PL6.E3A0      #008=FMD$DECRYPT_BUFFER File=FMD$BUF.:E05TSI                       TUE 07/29/97 16:41 Page:349
     1901        1        /*T***********************************************************/
     1902        2        /*T*                                                         */
     1903        3        /*T* Copyright (c) Bull HN Information Systems Inc., 1997    */
     1904        4        /*T*                                                         */
     1905        5        /*T***********************************************************/
     1906        6        FMD$DECRYPT_BUFFER: PROC(PSEED);
     1907        7    1          DCL PSEED UBIN;
     1908        8        /* */
     1909        9               %INCLUDE B$JIT;
     1910      612               %INCLUDE F$CP6V_C;
     1911      838               %MACRO F$DCB(BASED=BASED);
     1912      839               %INCLUDE F$DCB;
     1913      888               %MEND;
     1914      889        /* */
     1915      890               %F$DCB(BASED="BASED(JDCB$)");
     1916      940               %FPT$READ_V(BASED="BASED(B$PS0$)");
     1917      947        /* */
     1918      948    1          DCL JDCB$ PTR;
     1919      949    1          DCL MOVE UBIN;
     1920      950    1          DCL COUNT SBIN;
     1921      951    1          DCL BUF$ PTR;
     1922      952    1          DCL ISEED UBIN;
     1923      953    1          DCL TEMP_WORD CHAR(4);
     1924      954    1          DCL TEMP_WORD$ PTR;
     1925      955    1          DCL FAK UBIN;
     1926      956    1          DCL STRPVFC UBIN;
     1927      957        /* */
     1928      958    1          DCL BASED_WORD CHAR(4) CALIGNED BASED;
     1929      959        /* */
     1930      960    1          DCL B$JIT$ PTR SYMREF;
     1931      961    1          DCL B$PS2$ PTR SYMREF;
     1932      962    1          DCL B$PS0$ PTR SYMREF;
     1933      963        /* */
     1934      964    1          DCL FMD$DECRYPT ENTRY(5);
     1935      965        /* */
     1936      966    1          JDCB$=B$JIT.DCB$;
     1937      967    1          IF PSEED ~= 0 THEN
PL6.E3A0      #008=FMD$DECRYPT_BUFFER File=FMD$BUF.:E05TSI                       TUE 07/29/97 16:41 Page:350
     1938      968    1             ISEED = PSEED;
     1939      969    1          ELSE
     1940      970    1             ISEED = BITBIN(F$DCB.SEED);
     1941      971    1          COUNT=F$DCB.ARS;
     1942      972    1          FAK=1;
     1943      973    1          BUF$=B$PS2$;
     1944      974    1          IF FPT$READ_V.STRPVFC AND F$DCB.DVBYTE.VFC THEN
     1945      975    1             STRPVFC=1;
     1946      976    1          ELSE
     1947      977    1             STRPVFC=0;
     1948      978    1          TEMP_WORD$=ADDR(TEMP_WORD);
     1949      979
     1950      980    2          DO WHILE(COUNT > 0 OR STRPVFC = 1);
     1951      981    2             IF COUNT > 4 THEN
     1952      982    2                MOVE=4;
     1953      983    2             ELSE
     1954      984    2                MOVE=COUNT;
     1955      985
     1956      986    2             IF STRPVFC = 1 THEN
     1957      987    3                DO;   /* NEED VFC CHAR */
     1958      988    3                CALL INSERT(TEMP_WORD, 0, 1, F$DCB.VFCCHAR);
     1959      989    3                CALL INSERT(TEMP_WORD, 1, 3,
     1960      990    3                   SUBSTR(BUF$->BASED_WORD, 0, MOVE-1));
     1961      991    3                END;  /* NEED VFC CHAR */
     1962      992    2             ELSE
     1963      993    2                CALL INSERT(TEMP_WORD, 0, 4,
     1964      994    2                   SUBSTR(BUF$->BASED_WORD, 0, MOVE));
     1965      995
     1966      996    2             CALL FMD$DECRYPT(TEMP_WORD$, 1, ISEED, F$DCB.CSEED, FAK);
     1967      997
     1968      998    2             IF STRPVFC = 1 THEN
     1969      999    3                DO;   /* STRIP VFC */
     1970     1000    3                CALL INSERT(F$DCB.VFCCHAR, 0, 1, SUBSTR(TEMP_WORD, 0, 1));
     1971     1001    3                IF MOVE > 0 THEN
     1972     1002    3                   CALL INSERT(BUF$->BASED_WORD, 0, MOVE-1, SUBSTR(TEMP_WORD, 1, MOVE))
              1002                            ;
     1973     1003    3                BUF$=PINCRC(BUF$, 3);
PL6.E3A0      #008=FMD$DECRYPT_BUFFER File=FMD$BUF.:E05TSI                       TUE 07/29/97 16:41 Page:351
     1974     1004    3                COUNT=COUNT-3;
     1975     1005    3                END;  /* STRIP VFC */
     1976     1006    2             ELSE
     1977     1007    3                DO;   /* DONT STRIP VFC */
     1978     1008    3                CALL INSERT(BUF$->BASED_WORD, 0, MOVE, TEMP_WORD);
     1979     1009    3                BUF$=PINCRW(BUF$, 1);
     1980     1010    3                COUNT=COUNT-4;
     1981     1011    3                END;  /* DONT STRIP VFC */
     1982     1012    2             FAK=0;
     1983     1013    2             STRPVFC=0;
     1984     1014    2          END;  /* WHILE */
     1985     1015
     1986     1016    1          F$DCB.DECRYPT='0'B;
     1987     1017    1          RETURN;
     1988     1018    1          END FMD$DECRYPT_BUFFER;
     1989     1019               %EOD;

PL6.E3A0      #008=FMD$DECRYPT_BUFFER File=FMD$BUF.:E05TSI                       TUE 07/29/97 16:41 Page:352
--  Include file information  --

   F$DCB.:E05TOU  is referenced.
   F$CP6V_C.:E05TOU  is referenced.
   B$JIT_C.:E05TOU  is referenced.
   B$JIT.:E05TOU  cannot be made into a system file and is referenced.
      No diagnostics issued in procedure FMD$DECRYPT_BUFFER.

   Procedure FMD$DECRYPT_BUFFER requires 114 words for executable code.
   Procedure FMD$DECRYPT_BUFFER requires 20 words of local(AUTO) storage.

PL6.E3A0      #008=FMD$DECRYPT_BUFFER File=FMD$BUF.:E05TSI                       TUE 07/29/97 16:41 Page:353

 Object Unit name= FMD$DECRYPT_BUFFER                         File name= FMD$BUF.:E05TOU
 UTS= JUL 29 '97 16:41:40.88 TUE                              Compiler= PL-6/E31         Sev=      00
 SharedLib= :SHARED_SYSTEM                                    Alt SharedLib=


    ****  Control sections  ****

 Sect   Type Bound  Init  Size OctSiz  Section name(segment info)
    0   Proc  even  none   114    162  FMD$DECRYPT_BUFFER
    1  RoData even  none     2      2  FMD$DECRYPT_BUFFER

    ****  Entry defs  ****

                              Check   Calling
                             calling  sequence
  Sect OctLoc Primary Altret sequence   type   Parms  Name
     0      0   yes            yes      Std        1  FMD$DECRYPT_BUFFER

  ****  Entry refs  ****

         Check        Calling
        calling       sequence
Altret sequence SRef   type   Args  Name
         yes           Std       5 FMD$DECRYPT
                       nStd      0 X66_AUTO_1
                       Std       0 B_CONSPOOL_D
                       nStd      0 X66_ARET

  ****  Data refs  ****

  Flags:  r = read only, s = secondary
Flgs Name                             Flgs Name                             Flgs Name
     B$JIT$                                B$PS2$                                B$PS0$
     B_VECTNIL
PL6.E3A0      #008=FMD$DECRYPT_BUFFER File=FMD$BUF.:E05TSI                       TUE 07/29/97 16:41 Page:354

  ****  Segment refs  ****

  Flags:  r = read only, s = secondary
Flgs Name                             Flgs Name                             Flgs Name
     ISSID
PL6.E3A0      #008=FMD$DECRYPT_BUFFER File=FMD$BUF.:E05TSI                       TUE 07/29/97 16:41 Page:355


     1901        1        /*T***********************************************************/
     1902        2        /*T*                                                         */
     1903        3        /*T* Copyright (c) Bull HN Information Systems Inc., 1997    */
     1904        4        /*T*                                                         */
     1905        5        /*T***********************************************************/
     1906        6        FMD$DECRYPT_BUFFER: PROC(PSEED);

      6  0 000000   000000 700200 xent  FMD$DECRYPT* TSX0  ! X66_AUTO_1
         0 000001   000024 000001                    ZERO    20,1

     1907        7    1          DCL PSEED UBIN;
     1908        8        /* */
     1909        9               %INCLUDE B$JIT;
     1910      612               %INCLUDE F$CP6V_C;
     1911      838               %MACRO F$DCB(BASED=BASED);
     1912      839               %INCLUDE F$DCB;
     1913      888               %MEND;
     1914      889        /* */
     1915      890               %F$DCB(BASED="BASED(JDCB$)");
     1916      940               %FPT$READ_V(BASED="BASED(B$PS0$)");
     1917      947        /* */
     1918      948    1          DCL JDCB$ PTR;
     1919      949    1          DCL MOVE UBIN;
     1920      950    1          DCL COUNT SBIN;
     1921      951    1          DCL BUF$ PTR;
     1922      952    1          DCL ISEED UBIN;
     1923      953    1          DCL TEMP_WORD CHAR(4);
     1924      954    1          DCL TEMP_WORD$ PTR;
     1925      955    1          DCL FAK UBIN;
     1926      956    1          DCL STRPVFC UBIN;
     1927      957        /* */
     1928      958    1          DCL BASED_WORD CHAR(4) CALIGNED BASED;
     1929      959        /* */
     1930      960    1          DCL B$JIT$ PTR SYMREF;
     1931      961    1          DCL B$PS2$ PTR SYMREF;
     1932      962    1          DCL B$PS0$ PTR SYMREF;
PL6.E3A0      #008=FMD$DECRYPT_BUFFER File=FMD$BUF.:E05TSI                       TUE 07/29/97 16:41 Page:356
     1933      963        /* */
     1934      964    1          DCL FMD$DECRYPT ENTRY(5);
     1935      965        /* */
     1936      966    1          JDCB$=B$JIT.DCB$;

    966  0 000002   000000 470400 xsym               LDP0    B$JIT$
         0 000003   000232 236100                    LDQ     154,,PR0
         0 000004   200004 756100                    STQ     JDCB$,,AUTO

     1937      967    1          IF PSEED ~= 0 THEN

    967  0 000005   200003 471500                    LDP1    @PSEED,,AUTO
         0 000006   100000 235100                    LDA     0,,PR1
         0 000007   000012 600000 0                  TZE     s:970

     1938      968    1             ISEED = PSEED;

    968  0 000010   200010 755100                    STA     ISEED,,AUTO
         0 000011   000015 710000 0                  TRA     s:971

     1939      969    1          ELSE
     1940      970    1             ISEED = BITBIN(F$DCB.SEED);

    970  0 000012   200004 473500                    LDP3    JDCB$,,AUTO
         0 000013   300062 235100                    LDA     50,,PR3
         0 000014   200010 755100                    STA     ISEED,,AUTO

     1941      971    1          COUNT=F$DCB.ARS;

    971  0 000015   200004 473500                    LDP3    JDCB$,,AUTO
         0 000016   300000 235100                    LDA     0,,PR3
         0 000017   200006 755100                    STA     COUNT,,AUTO

     1942      972    1          FAK=1;

    972  0 000020   000001 235007                    LDA     1,DL
         0 000021   200013 755100                    STA     FAK,,AUTO
PL6.E3A0      #008=FMD$DECRYPT_BUFFER File=FMD$BUF.:E05TSI                       TUE 07/29/97 16:41 Page:357

     1943      973    1          BUF$=B$PS2$;

    973  0 000022   000000 236000 xsym               LDQ     B$PS2$
         0 000023   200007 756100                    STQ     BUF$,,AUTO

     1944      974    1          IF FPT$READ_V.STRPVFC AND F$DCB.DVBYTE.VFC THEN

    974  0 000024   000000 474400 xsym               LDP4    B$PS0$
         0 000025   400003 236100                    LDQ     3,,PR4
         0 000026   000400 316003                    CANQ    256,DU
         0 000027   000035 600000 0                  TZE     s:977
         0 000030   300003 236100                    LDQ     3,,PR3
         0 000031   100000 316003                    CANQ    32768,DU
         0 000032   000035 600000 0                  TZE     s:977

     1945      975    1             STRPVFC=1;

    975  0 000033   200014 755100                    STA     STRPVFC,,AUTO
         0 000034   000036 710000 0                  TRA     s:978

     1946      976    1          ELSE
     1947      977    1             STRPVFC=0;

    977  0 000035   200014 450100                    STZ     STRPVFC,,AUTO

     1948      978    1          TEMP_WORD$=ADDR(TEMP_WORD);

    978  0 000036   200011 635500                    EPPR5   TEMP_WORD,,AUTO
         0 000037   200012 455500                    STP5    TEMP_WORD$,,AUTO

     1949      979
     1950      980    2          DO WHILE(COUNT > 0 OR STRPVFC = 1);

    980  0 000040   000151 710000 0                  TRA     s:1014

     1951      981    2             IF COUNT > 4 THEN
PL6.E3A0      #008=FMD$DECRYPT_BUFFER File=FMD$BUF.:E05TSI                       TUE 07/29/97 16:41 Page:358

    981  0 000041   200006 235100                    LDA     COUNT,,AUTO
         0 000042   000004 115007                    CMPA    4,DL
         0 000043   000047 604400 0                  TMOZ    s:984

     1952      982    2                MOVE=4;

    982  0 000044   000004 236007                    LDQ     4,DL
         0 000045   200005 756100                    STQ     MOVE,,AUTO
         0 000046   000050 710000 0                  TRA     s:986

     1953      983    2             ELSE
     1954      984    2                MOVE=COUNT;

    984  0 000047   200005 755100                    STA     MOVE,,AUTO

     1955      985
     1956      986    2             IF STRPVFC = 1 THEN

    986  0 000050   200014 236100                    LDQ     STRPVFC,,AUTO
         0 000051   000001 116007                    CMPQ    1,DL
         0 000052   000065 601000 0                  TNZ     s:993

     1957      987    3                DO;   /* NEED VFC CHAR */

     1958      988    3                CALL INSERT(TEMP_WORD, 0, 1, F$DCB.VFCCHAR);

    988  0 000053   200004 470500                    LDP0    JDCB$,,AUTO
         0 000054   000056 236100                    LDQ     46,,PR0
         0 000055   200011 552140                    STBQ    TEMP_WORD,'40'O,AUTO

     1959      989    3                CALL INSERT(TEMP_WORD, 1, 3,

    989  0 000056   200005 720100                    LXL0    MOVE,,AUTO
         0 000057   777777 621010                    EAX1    -1,X0
         0 000060   200007 471500                    LDP1    BUF$,,AUTO
         0 000061   040100 100540                    MLR     fill='040'O
PL6.E3A0      #008=FMD$DECRYPT_BUFFER File=FMD$BUF.:E05TSI                       TUE 07/29/97 16:41 Page:359
         0 000062   100000 000011                    ADSC9   0,,PR1                   cn=0,n=*X1
         0 000063   200011 200003                    ADSC9   TEMP_WORD,,AUTO          cn=1,n=3

     1960      990    3                   SUBSTR(BUF$->BASED_WORD, 0, MOVE-1));
     1961      991    3                END;  /* NEED VFC CHAR */

    991  0 000064   000072 710000 0                  TRA     s:996

     1962      992    2             ELSE
     1963      993    2                CALL INSERT(TEMP_WORD, 0, 4,

    993  0 000065   200007 470500                    LDP0    BUF$,,AUTO
         0 000066   200005 720100                    LXL0    MOVE,,AUTO
         0 000067   040100 100540                    MLR     fill='040'O
         0 000070   000000 000010                    ADSC9   0,,PR0                   cn=0,n=*X0
         0 000071   200011 000004                    ADSC9   TEMP_WORD,,AUTO          cn=0,n=4

     1964      994    2                   SUBSTR(BUF$->BASED_WORD, 0, MOVE));
     1965      995
     1966      996    2             CALL FMD$DECRYPT(TEMP_WORD$, 1, ISEED, F$DCB.CSEED, FAK);

    996  0 000072   200013 630500                    EPPR0   FAK,,AUTO
         0 000073   200022 450500                    STP0    STRPVFC+6,,AUTO
         0 000074   200004 236100                    LDQ     JDCB$,,AUTO
         0 000075   000072 036003                    ADLQ    58,DU
         0 000076   200021 756100                    STQ     STRPVFC+5,,AUTO
         0 000077   200010 631500                    EPPR1   ISEED,,AUTO
         0 000100   200020 451500                    STP1    STRPVFC+4,,AUTO
         0 000101   000000 236000 1                  LDQ     0
         0 000102   200017 756100                    STQ     STRPVFC+3,,AUTO
         0 000103   200012 633500                    EPPR3   TEMP_WORD$,,AUTO
         0 000104   200016 453500                    STP3    STRPVFC+2,,AUTO
         0 000105   200016 630500                    EPPR0   STRPVFC+2,,AUTO
         0 000106   000023 631400 xsym               EPPR1   B_VECTNIL+19
         0 000107   000000 701000 xent               TSX1    FMD$DECRYPT
         0 000110   000000 011000                    NOP     0

PL6.E3A0      #008=FMD$DECRYPT_BUFFER File=FMD$BUF.:E05TSI                       TUE 07/29/97 16:41 Page:360
     1967      997
     1968      998    2             IF STRPVFC = 1 THEN

    998  0 000111   200014 235100                    LDA     STRPVFC,,AUTO
         0 000112   000001 115007                    CMPA    1,DL
         0 000113   000135 601000 0                  TNZ     s:1008

     1969      999    3                DO;   /* STRIP VFC */

     1970     1000    3                CALL INSERT(F$DCB.VFCCHAR, 0, 1, SUBSTR(TEMP_WORD, 0, 1));

   1000  0 000114   200004 470500                    LDP0    JDCB$,,AUTO
         0 000115   200011 236100                    LDQ     TEMP_WORD,,AUTO
         0 000116   000056 552140                    STBQ    46,'40'O,PR0

     1971     1001    3                IF MOVE > 0 THEN

   1001  0 000117   200005 235100                    LDA     MOVE,,AUTO
         0 000120   000127 600000 0                  TZE     s:1003

     1972     1002    3                  CALL INSERT(BUF$->BASED_WORD, 0, MOVE-1, SUBSTR(TEMP_WORD, 1, MOVE))
              1002                            ;

   1002  0 000121   777777 620005                    EAX0    -1,AL
         0 000122   000000 621005                    EAX1    0,AL
         0 000123   200007 471500                    LDP1    BUF$,,AUTO
         0 000124   040140 100540                    MLR     fill='040'O
         0 000125   200011 200011                    ADSC9   TEMP_WORD,,AUTO          cn=1,n=*X1
         0 000126   100000 000010                    ADSC9   0,,PR1                   cn=0,n=*X0

     1973     1003    3                BUF$=PINCRC(BUF$, 3);

   1003  0 000127   200007 236100                    LDQ     BUF$,,AUTO
         0 000130   600000 036007                    ADLQ    -65536,DL
         0 000131   200007 756100                    STQ     BUF$,,AUTO

     1974     1004    3                COUNT=COUNT-3;
PL6.E3A0      #008=FMD$DECRYPT_BUFFER File=FMD$BUF.:E05TSI                       TUE 07/29/97 16:41 Page:361

   1004  0 000132   000003 336007                    LCQ     3,DL
         0 000133   200006 056100                    ASQ     COUNT,,AUTO

     1975     1005    3                END;  /* STRIP VFC */

   1005  0 000134   000147 710000 0                  TRA     s:1012

     1976     1006    2             ELSE
     1977     1007    3                DO;   /* DONT STRIP VFC */

     1978     1008    3                CALL INSERT(BUF$->BASED_WORD, 0, MOVE, TEMP_WORD);

   1008  0 000135   200007 470500                    LDP0    BUF$,,AUTO
         0 000136   200005 720100                    LXL0    MOVE,,AUTO
         0 000137   040140 100500                    MLR     fill='040'O
         0 000140   200011 000004                    ADSC9   TEMP_WORD,,AUTO          cn=0,n=4
         0 000141   000000 000010                    ADSC9   0,,PR0                   cn=0,n=*X0

     1979     1009    3                BUF$=PINCRW(BUF$, 1);

   1009  0 000142   200007 236100                    LDQ     BUF$,,AUTO
         0 000143   000001 036003                    ADLQ    1,DU
         0 000144   200007 756100                    STQ     BUF$,,AUTO

     1980     1010    3                COUNT=COUNT-4;

   1010  0 000145   000004 336007                    LCQ     4,DL
         0 000146   200006 056100                    ASQ     COUNT,,AUTO

     1981     1011    3                END;  /* DONT STRIP VFC */

     1982     1012    2             FAK=0;

   1012  0 000147   200013 450100                    STZ     FAK,,AUTO

     1983     1013    2             STRPVFC=0;
PL6.E3A0      #008=FMD$DECRYPT_BUFFER File=FMD$BUF.:E05TSI                       TUE 07/29/97 16:41 Page:362

   1013  0 000150   200014 450100                    STZ     STRPVFC,,AUTO

     1984     1014    2          END;  /* WHILE */

   1014  0 000151   200006 235100                    LDA     COUNT,,AUTO
         0 000152   000041 605400 0                  TPNZ    s:981
         0 000153   200014 236100                    LDQ     STRPVFC,,AUTO
         0 000154   000001 116007                    CMPQ    1,DL
         0 000155   000041 600000 0                  TZE     s:981

     1985     1015
     1986     1016    1          F$DCB.DECRYPT='0'B;

   1016  0 000156   200004 470500                    LDP0    JDCB$,,AUTO
         0 000157   000001 236000 1                  LDQ     1
         0 000160   000102 356100                    ANSQ    66,,PR0

     1987     1017    1          RETURN;

   1017  0 000161   000000 702200 xent               TSX2  ! X66_ARET

(unnamed)
 Sect OctLoc
   1     000   000003 006000   777777 776777                                    ........
     1988     1018    1          END FMD$DECRYPT_BUFFER;
     1989     1019               %EOD;

PL6.E3A0      #008=FMD$DECRYPT_BUFFER File=FMD$BUF.:E05TSI                       TUE 07/29/97 16:41 Page:363
--  Include file information  --

   F$DCB.:E05TOU  is referenced.
   F$CP6V_C.:E05TOU  is referenced.
   B$JIT_C.:E05TOU  is referenced.
   B$JIT.:E05TOU  cannot be made into a system file and is referenced.
      No diagnostics issued in procedure FMD$DECRYPT_BUFFER.
PL6.E3A0      #008=FMD$DECRYPT_BUFFER File=FMD$BUF.:E05TSI                       TUE 07/29/97 16:41 Page:364

 **** Variables and constants ****

  ****  Auto variables  ****

  ****  Scalars and arrays  ****
OctLoc.c.b A Datatyp(siz) R M Lvl/name                 OctLoc.c.b A Datatyp(siz) R M Lvl/name

     3-0-0/w PTR         r     1 @PSEED                     7-0-0/w PTR         r     1 BUF$
     6-0-0/w SBIN        r     1 COUNT                     13-0-0/w UBIN        r     1 FAK
    10-0-0/w UBIN        r     1 ISEED                      4-0-0/w PTR         r     1 JDCB$
     5-0-0/w UBIN        r     1 MOVE                      *0-0-0/w UBIN        r     1 PSEED
    14-0-0/w UBIN        r     1 STRPVFC                   11-0-0/c CHAR(4)     r     1 TEMP_WORD
    12-0-0/w PTR         r     1 TEMP_WORD$

  ****  SYMREF variables  ****

  ****  Scalars and arrays  ****
OctLoc.c.b A Datatyp(siz) R M Lvl/name                 OctLoc.c.b A Datatyp(siz) R M Lvl/name

     0-0-0/w PTR         r     1 B$JIT$                     0-0-0/w PTR         r     1 B$PS0$
     0-0-0/w PTR         r     1 B$PS2$

  ****  BASED and DCB variables  ****

  ****  Scalars and arrays  ****
OctLoc.c.b A Datatyp(siz) R M Lvl/name                 OctLoc.c.b A Datatyp(siz) R M Lvl/name

     0-0-0/d STRC(8856)  r     1 B$JIT                      0-0-0/c CHAR(4)     r     1 BASED_WORD
     0-0-0/d ASTR(3528)  r     1 F$DCB                      0-0-0/d STRC(216)   r     1 FPT$READ_V


   Procedure FMD$DECRYPT_BUFFER requires 114 words for executable code.
   Procedure FMD$DECRYPT_BUFFER requires 20 words of local(AUTO) storage.
PL6.E3A0      #008=FMD$DECRYPT_BUFFER File=FMD$BUF.:E05TSI                       TUE 07/29/97 16:41 Page:365
          *** CROSS REFERENCE LISTING ***
**     DENOTES     IDENTIFIER DEFINITION
<<                 IDENTIFIER'S VALUE SET
>>                 IDENTIFIER'S VALUE USED
<>                 IDENTIFIER SET AND/OR USED
--                 IDENTIFIER REFERENCED
PL6.E3A0      #008=FMD$DECRYPT_BUFFER File=FMD$BUF.:E05TSI                       TUE 07/29/97 16:41 Page:366
          MINI XREF LISTING

B$JIT.CPFLAGS1.SLEAZE
       430**DCL       430--REDEF
B$JIT.DCB$
       504**DCL       966>>ASSIGN
B$JIT.ERR.MID
       337**DCL       337--REDEF
B$JIT.JRESPEAK
       498**DCL       499--REDEF
B$JIT.ORIGINATOR_PORT.FROM_CR
       607**DCL       607--REDEF     608--REDEF
B$JIT.PNR
       511**DCL       511--REDEF
B$JIT.TSLINE
       605**DCL       606--REDEF
B$JIT$
       960**DCL       331--IMP-PTR   966>>ASSIGN
B$PS0$
       962**DCL       941--IMP-PTR   974>>IF
B$PS2$
       961**DCL       973>>ASSIGN
BASED_WORD
       958**DCL       989>>CALLBLT   993>>CALLBLT  1002<<CALLBLT  1008<<CALLBLT
BUF$
       951**DCL       973<<ASSIGN    989>>CALLBLT   993>>CALLBLT  1002>>CALLBLT  1003<<ASSIGN   1003>>ASSIGN
      1008>>CALLBLT  1009<<ASSIGN   1009>>ASSIGN
COUNT
       950**DCL       971<<ASSIGN    980>>DOWHILE   981>>IF        984>>ASSIGN   1004<<ASSIGN   1004>>ASSIGN
      1010<<ASSIGN   1010>>ASSIGN
F$DCB.ACTPOS
       916**DCL       916--REDEF
F$DCB.ARS
       891**DCL       891--REDEF     971>>ASSIGN
PL6.E3A0      #008=FMD$DECRYPT_BUFFER File=FMD$BUF.:E05TSI                       TUE 07/29/97 16:41 Page:367
F$DCB.ATTR
       909**DCL       910--REDEF
F$DCB.BORROW
       924**DCL       924--REDEF     924--REDEF     924--REDEF
F$DCB.CSEED
       928**DCL       996<>CALL
F$DCB.DCBNAME.L
       938**DCL       938--IMP-SIZ
F$DCB.DECRYPT
       931**DCL      1016<<ASSIGN
F$DCB.DVBYTE.VFC
       894**DCL       974>>IF
F$DCB.EOMCHAR
       895**DCL       895--REDEF
F$DCB.FLDID
       919**DCL       919--REDEF
F$DCB.FORM$
       913**DCL       913--REDEF
F$DCB.FSECT
       929**DCL       929--REDEF
F$DCB.FSN
       906**DCL       906--REDEF     906--REDEF     907--REDEF
F$DCB.HEADER$
       912**DCL       912--REDEF
F$DCB.IXTNSIZE
       910**DCL       910--REDEF
F$DCB.LASTSTA$
       900**DCL       900--REDEF
F$DCB.LVL
       925**DCL       925--REDEF
F$DCB.NAME.C
       900**DCL       900--REDEF
F$DCB.NOEOF
       921**DCL       921--REDEF
F$DCB.NRECS
       911**DCL       911--REDEF
PL6.E3A0      #008=FMD$DECRYPT_BUFFER File=FMD$BUF.:E05TSI                       TUE 07/29/97 16:41 Page:368
F$DCB.NRECX
       930**DCL       930--REDEF
F$DCB.OHDR
       922**DCL       922--REDEF
F$DCB.ORG
       905**DCL       905--REDEF
F$DCB.PRECNO
       928**DCL       928--REDEF
F$DCB.RCSZ
       933**DCL       933--REDEF
F$DCB.RES
       901**DCL       901--REDEF
F$DCB.SEED
       919**DCL       970>>ASSIGN
F$DCB.SETX
       913**DCL       913--REDEF
F$DCB.TAB$
       912**DCL       913--REDEF
F$DCB.TDA
       927**DCL       927--REDEF
F$DCB.VFCCHAR
       915**DCL       988>>CALLBLT  1000<<CALLBLT
F$DCB.WSN
       902**DCL       902--REDEF
FAK
       955**DCL       972<<ASSIGN    996<>CALL     1012<<ASSIGN
FMD$DECRYPT
       964**DCL-ENT   996--CALL
FPT$READ_V.DVBYTE.REREAD
       943**DCL       944--REDEF
FPT$READ_V.INDX
       943**DCL       943--REDEF
FPT$READ_V.STRPVFC
       944**DCL       974>>IF
ISEED
       952**DCL       968<<ASSIGN    970<<ASSIGN    996<>CALL
PL6.E3A0      #008=FMD$DECRYPT_BUFFER File=FMD$BUF.:E05TSI                       TUE 07/29/97 16:41 Page:369
JDCB$
       948**DCL       891--IMP-PTR   966<<ASSIGN    970>>ASSIGN    971>>ASSIGN    974>>IF        988>>CALLBLT
       996>>CALL     1000>>CALLBLT  1016>>ASSIGN
MOVE
       949**DCL       982<<ASSIGN    984<<ASSIGN    989>>CALLBLT   993>>CALLBLT  1001>>IF       1002>>CALLBLT
      1002>>CALLBLT  1008>>CALLBLT
PSEED
         7**DCL         6--PROC      967>>IF        968>>ASSIGN
STRPVFC
       956**DCL       975<<ASSIGN    977<<ASSIGN    980>>DOWHILE   986>>IF        998>>IF       1013<<ASSIGN
TEMP_WORD
       953**DCL       978--ASSIGN    988<<CALLBLT   989<<CALLBLT   993<<CALLBLT  1000>>CALLBLT  1002>>CALLBLT
      1008>>CALLBLT
TEMP_WORD$
       954**DCL       978<<ASSIGN    996<>CALL
PL6.E3A0      #008=FMD$DECRYPT_BUFFER File=FMD$BUF.:E05TSI                       TUE 07/29/97 16:41 Page:370
              *** CROSS REFERENCE LISTING ***
    **     DENOTES     IDENTIFIER DEFINITION
    <<                 IDENTIFIER'S VALUE SET
    >>                 IDENTIFIER'S VALUE USED
    <>                 IDENTIFIER SET AND/OR USED
    --                 IDENTIFIER REFERENCED
PL6.E3A0      #008=FMD$DECRYPT_BUFFER File=FMD$BUF.:E05TSI                       TUE 07/29/97 16:41 Page:371
              MINI UREF LISTING

FMD$DECRYPT_BUFFER       6**PROC

PL6.E3A0      #009=FMD$CHKFIELD File=FMD$BUF.:E05TSI                             TUE 07/29/97 16:41 Page:372
     1990        1        /*T***********************************************************/
     1991        2        /*T*                                                         */
     1992        3        /*T* Copyright (c) Bull HN Information Systems Inc., 1997    */
     1993        4        /*T*                                                         */
     1994        5        /*T***********************************************************/
     1995        6        /*F*     NAME:     FMD$CHKFIELD
     1996        7                 PURPOSE:  To check key fields in a record or key buffer for
     1997        8                           an operation on an IREL file.
     1998        9        */
     1999       10        /*D*     NAME:     FMD$CHKFIELD
     2000       11                 CALL:     CALL FMD$CHKFIELD(F$, FTYP) ALTRET(ERR);
     2001       12                 INPUT:    F$   - Pointer to record or key
     2002       13                           FTYP - Type of field to check (record or key).
     2003       14                                  (See FM_FIELD_C for equates.)
     2004       15                 OUTPUT:   Validated key buffer or key fields.
     2005       16                 DESCRIPTION:
     2006       17                 If we're checking a key buffer, we need to know which
     2007       18                 fields are used for that particular key.  So, we set up the
     2008       19                 structures to access the list of fields for the key.  If
     2009       20                 we're checking the key fields in a record buffer, we only
     2010       21                 need to set up the RECFIELD, FIELD_START, and KFIELD
     2011       22                 structures to be able to access all the key fields.
     2012       23
     2013       24                 Loop through, checking all fields in the key buffer or all
     2014       25                 the key fields in the record.  If this is a key buffer, we
     2015       26                 have to be able to check partial keys (keys missing some
     2016       27                 fields at the end).  After setting up the start and length,
     2017       28                 check the field.  Since fields with data types NO, TEXTC,
     2018       29                 TEXTH, LIST, and VLIST cannot be used in keys, we
     2019       30                 don't need to check those.  We also don't need to check
     2020       31                 fields with data types CHAR, SFLT, DFLT, UBIN, SBIN, or
     2021       32                 UTS since they won't cause us to fault.  So, the only fields
     2022       33                 we actually validate have decimal data types.
     2023       34        */
     2024       35        FMD$CHKFIELD: PROC(F$, FTYP) ALTRET;
     2025       36    1          DCL F$ PTR;
     2026       37    1          DCL FTYP UBIN;
PL6.E3A0      #009=FMD$CHKFIELD File=FMD$BUF.:E05TSI                             TUE 07/29/97 16:41 Page:373
     2027       38        /* */
     2028       39               %INCLUDE B$JIT;
     2029      642               %MACRO F$DCB(BASED=BASED);
     2030      643               %INCLUDE F$DCB;
     2031      692               %MEND;
     2032      693               %INCLUDE F$CP6V_C;
     2033      919               %INCLUDE CP_6_SUBS;
     2034     1459               %INCLUDE F_MACROS_C;
     2035     1470               %INCLUDE F_ERRORS_C;
     2036     1710               %INCLUDE FM_FIELD_C;
     2037     1751               %INCLUDE B$OBJECT_C;
     2038     5181        /* */
     2039     5182               %F$DCB(BASED="BASED(JDCB$)");
     2040     5232               %VLP$RECFIELD_V(FPTN=RECFIELD, BASED="BASED(RECFIELD$)");
     2041     5269               %FM$FIELD_START(FPTN=FIELD_START, STCLASS="BASED(START$)");
     2042     5291               %FMG$IRKEYS(FPTN=IRKEYS, STCLASS="BASED(ALTKEY$)");
     2043     5298               %FMG$KFIELD(FPTN=KFIELD, STCLASS="BASED(KFIELD$)");
     2044     5301               %VREBL_DATATYPES;
     2045     5376        /* */
     2046     5377               %SUB FCG#='0615'O;
     2047     5378               %SUB MID#='04'O;
     2048     5379               %ERRCODE(NAME=ERRBADRFIELD, COD#=%E$BADRFIELD);
     2049     5383               %ERRCODE(NAME=ERRBADIRKEY, COD#=%E$BADIRKEY);
     2050     5387               %ERRCODE(NAME=ERRINDBC, COD#=%E$INDBC);
     2051     5391        /* */
     2052     5392    1          DCL B$JIT$ PTR SYMREF READONLY;
     2053     5393    1          DCL B$ROSEG$ PTR SYMREF READONLY;
     2054     5394        /* */
     2055     5395    1          DCL HFF$DSIZ ENTRY(2);
     2056     5396        /* */
     2057     5397               %INCLUDE B$TABLES_C;
     2058     5505               %B$SR_NON_DEC(NAME=DTABLE);
     2059     5509    1          DCL PTABLE(0:511) UBIN(9) CALIGNED CONSTANT INIT(
     2060     5510    1             0, 0, 0, 0, 0, 0, 0, 0, 0, 0, 1, 1, 1, 1, 1, 1, /* 0 - 15 */
     2061     5511    1             0, 0, 0, 0, 0, 0, 0, 0, 0, 0, 1, 1, 1, 1, 1, 1, /* 16 - 31 */
     2062     5512    1             0, 0, 0, 0, 0, 0, 0, 0, 0, 0, 1, 1, 1, 1, 1, 1, /* 32 - 47 */
     2063     5513    1             0, 0, 0, 0, 0, 0, 0, 0, 0, 0, 1, 1, 1, 1, 1, 1, /* 48 - 63 */
PL6.E3A0      #009=FMD$CHKFIELD File=FMD$BUF.:E05TSI                             TUE 07/29/97 16:41 Page:374
     2064     5514    1             0, 0, 0, 0, 0, 0, 0, 0, 0, 0, 1, 1, 1, 1, 1, 1, /* 64 - 79 */
     2065     5515    1             0, 0, 0, 0, 0, 0, 0, 0, 0, 0, 1, 1, 1, 1, 1, 1, /* 80 - 95 */
     2066     5516    1             0, 0, 0, 0, 0, 0, 0, 0, 0, 0, 1, 1, 1, 1, 1, 1, /* 96 - 111 */
     2067     5517    1             0, 0, 0, 0, 0, 0, 0, 0, 0, 0, 1, 1, 1, 1, 1, 1, /* 112 - 127 */
     2068     5518    1             0, 0, 0, 0, 0, 0, 0, 0, 0, 0, 1, 1, 1, 1, 1, 1, /* 128 - 143 */
     2069     5519    1             0, 0, 0, 0, 0, 0, 0, 0, 0, 0, 1, 1, 1, 1, 1, 1, /* 144 - 159 */
     2070     5520    1             1*352);
     2071     5521        /* */
     2072     5522    1          DCL REC(0:0) CHAR(1) BASED(FIELD$);
     2073     5523    1          DCL FIELD CHAR(NCHARS) BASED(FIELD$);
     2074     5524        /* */
     2075     5525    1          DCL JDCB$ PTR;
     2076     5526    1          DCL RECFIELD$ PTR;
     2077     5527    1          DCL START$ PTR;
     2078     5528    1          DCL ALTKEY$ PTR;
     2079     5529    1          DCL KFIELD$ PTR;
     2080     5530    1          DCL KEYSIZE UBIN;
     2081     5531    1          DCL N UBIN;
     2082     5532    1          DCL FN UBIN;
     2083     5533    1          DCL F UBIN;
     2084     5534    1          DCL FIRST UBIN;
     2085     5535    1          DCL START UBIN;
     2086     5536    1          DCL NEW_START UBIN;
     2087     5537    1          DCL LEN UBIN;
     2088     5538    1          DCL NCHARS UBIN;
     2089     5539    1          DCL BOUNDRY UBIN;
     2090     5540    1          DCL NDIG UBIN;
     2091     5541    1          DCL I UBIN;
     2092     5542    1          DCL DUMMY UBIN;
     2093     5543    1          DCL FIELD$ PTR;
     2094     5544    1          DCL 1 BYT,
     2095     5545    1               2 HBIT UBIN(1) UNAL,
     2096     5546    1               2 UPPER UBIN(4) UNAL,
     2097     5547    1               2 LOWER UBIN(4) UNAL;
     2098     5548    1          DCL BTEMP REDEF BYT UBIN(9) CALIGNED;
     2099     5549    1          DCL PACKED_FIELD BIT(1);
     2100     5550    1          DCL TEMP_START UBIN;
PL6.E3A0      #009=FMD$CHKFIELD File=FMD$BUF.:E05TSI                             TUE 07/29/97 16:41 Page:375
     2101     5551    1          DCL TEMP_SUM UBIN;
     2102     5552    1          DCL TEMP_CHAR CHAR(1) CALIGNED;
     2103     5553        /* */
     2104     5554               %EQU EVEN=0;
     2105     5555               %EQU ODD=1;
     2106     5556        /* */
     2107     5557    1          JDCB$=B$JIT.DCB$;
     2108     5558    1          RECFIELD$=PINCRW(B$ROSEG$, F$DCB.FIELDX);
     2109     5559    1          START$=PINCRW(B$ROSEG$, F$DCB.STARTX);
     2110     5560    1          KFIELD$=PINCRW(B$ROSEG$, F$DCB.KFIELDX);
     2111     5561
     2112     5562    1          IF FTYP = %FMD_CHKTYP_KEY THEN
     2113     5563    2             DO;   /* DO KEY SETUP */
     2114     5564    2             ALTKEY$=PINCRW(B$ROSEG$, F$DCB.ALTKEYX);
     2115     5565    2             CALL HFF$DSIZ(F$, KEYSIZE);
     2116     5566    2             N=IRKEYS.K.NFIELDS(F$DCB.INDX-1);
     2117     5567    2             FIRST=IRKEYS.K.FIRSTFIELD(F$DCB.INDX-1);
     2118     5568    2             NEW_START=0;
     2119     5569    2             END;
     2120     5570    1          ELSE
     2121     5571    1             N=KFIELD.NFIELDS;
     2122     5572
     2123     5573    2   LOOP:  DO FN=0 TO N-1;
     2124     5574    2             PACKED_FIELD=%NO#;
     2125     5575    2             IF FTYP = %FMD_CHKTYP_REC THEN
     2126     5576    3                DO;   /* RECORD */
     2127     5577                     /* Since a field may be used in several keys, we may
     2128     5578                        end up checking some fields more than once. Sigh. */
     2129     5579    3                F=KFIELD.FIELD(FN);
     2130     5580    3                CALL SET_START(F);
     2131     5581    3                CALL SET_LEN(F);
     2132     5582    3                TEMP_START=START;
     2133     5583    3                TEMP_SUM=START+LEN;
     2134     5584    3                IF PACKED_FIELD = %YES# THEN
     2135     5585    4                   DO;   /* PACKED DECIMAL FIELD */
     2136     5586    4                   TEMP_START=(TEMP_START+1)/2;
     2137     5587    4                   TEMP_SUM=(TEMP_SUM+1)/2;
PL6.E3A0      #009=FMD$CHKFIELD File=FMD$BUF.:E05TSI                             TUE 07/29/97 16:41 Page:376
     2138     5588    4                   END;  /* PACKED DECIMAL FIELD */
     2139     5589
     2140     5590                     /* This check shouldn't fail since F$DCB.UBYTES should
     2141     5591                        have been checked against IRKEYS.MINSIZE before we
     2142     5592                        were called. But, to be safe . . .               */
     2143     5593    3                IF TEMP_SUM > F$DCB.UBYTES THEN
     2144     5594    3                   GOTO REC_TOO_SMALL;
     2145     5595
     2146     5596    3                CALL CHECK_TYPE ALTRET(ERR);
     2147     5597    3                END;  /* RECORD */
     2148     5598    2             ELSE
     2149     5599    3                DO;   /* KEY */
     2150     5600    3                START=NEW_START;
     2151     5601    3                F=KFIELD.FIELD(FN+FIRST);
     2152     5602    3                CALL SET_LEN(F);
     2153     5603    3                CALL CALC_START;
     2154     5604    3                IF START < KEYSIZE THEN
     2155     5605    4                   DO;   /* CHECK FOR FULL KEY SEG */
     2156     5606    4                   IF NEW_START > KEYSIZE THEN
     2157     5607    4                      GOTO ERR;
     2158     5608    4                   END;  /* CHECK FOR FULL KEY SEG */
     2159     5609    3                ELSE
     2160     5610    3                   EXIT LOOP; /* partial key */
     2161     5611
     2162     5612                     /* If the field is packed, convert START to nibbles.
     2163     5613                        This is easy since, in key buffers, all fields must
     2164     5614                        begin on a byte bound.                           */
     2165     5615    3                IF PACKED_FIELD THEN
     2166     5616    3                   START=START*2;
     2167     5617    3                CALL CHECK_TYPE ALTRET(ERR);
     2168     5618    3                END;  /* KEY */
     2169     5619
     2170     5620    2          END;  /* DO FN */
     2171     5621
     2172     5622    1          RETURN;
     2173     5623    2   ERR:   IF FTYP = %FMD_CHKTYP_KEY THEN DO;
     2174     5624    2             B$JIT.ERR=ERRBADIRKEY;
PL6.E3A0      #009=FMD$CHKFIELD File=FMD$BUF.:E05TSI                             TUE 07/29/97 16:41 Page:377
     2175     5625    2             F$DCB.ARS=FN;
     2176     5626    2             END;
     2177     5627    2          ELSE DO;
     2178     5628    2             B$JIT.ERR=ERRBADRFIELD;
     2179     5629    2             F$DCB.ARS=F;
     2180     5630    2             END;
     2181     5631    1          ALTRETURN;
     2182     5632        /*E*   ERROR:      FMD-E$BADRFIELD-2
     2183     5633               MESSAGE: The record contains a bad key field %in %UF%
     2184     5634               MESSAGE1: One of the key fields in the record %in %UF%
     2185     5635                         contains bad data.  This is likely because the field
     2186     5636                         is a decimal field with an illegal decimal value.
     2187     5637                         F$DCB.ARS# contains the index into the RECFIELD field
     2188     5638                         array of the bad field.
     2189     5639        */
     2190     5640        /*E*   ERROR:   FMD-E$BADIRKEY-2
     2191     5641               MESSAGE: The key buffer specified %for %UF% contains a bad key segment
     2192     5642               MESSAGE1: The key buffer specified %for %UF% contains a badly
     2193     5643                         defined field or an incomplete key fragment.  The bad
     2194     5644                         key segment number is in F$DCB.ARS#.
     2195     5645        */
     2196     5646    1   REC_TOO_SMALL:;
     2197     5647    1          B$JIT.ERR=ERRINDBC;
     2198     5648    1          F$DCB.ARS=F;
     2199     5649    1          ALTRETURN;
     2200     5650
     2201     5651        /*E*   ERROR:    FMD-E$INDBC-2
     2202     5652               MESSAGE:  Byte count too small on M$WRITE to IREL file% %UF%
     2203     5653               MESSAGE1: The byte count of the record buffer on an M$WRITE
     2204     5654                         to an IREL file% %UF% was too small to contain all
     2205     5655                         the key(s).  F$DCB.ARS# contains the index into the
     2206     5656                         RECFIELD field array of the first key field not
     2207     5657                         contained in the record.
     2208     5658        */
     2209     5659               %EJECT;
PL6.E3A0      #009=FMD$CHKFIELD File=FMD$BUF.:E05TSI                             TUE 07/29/97 16:41 Page:378
     2210     5660        /*I*     NAME:     CALC_START
     2211     5661                 PURPOSE:  To calculate the byte offset to the start of a field
     2212     5662                           in a key buffer.
     2213     5663                 DESCRIPTION:
     2214     5664                      If this is a packed decimal field, then the offset is a
     2215     5665                 nibble offset, calculate it in bytes.  Otherwise, just add the
     2216     5666                 byte offset.
     2217     5667        */
     2218     5668    1   CALC_START: PROC;
     2219     5669        /* */
     2220     5670    3          DO CASE(RECFIELD.FIELD.TYPE(F));
     2221     5671    3             CASE(%PDLA_DATATYPE, %PDTA_DATATYPE, %PDNS_DATATYPE,
     2222     5672    3                  %PDFLT_DATATYPE, %PDLE_DATATYPE, %PDTE_DATATYPE,
     2223     5673    3                  %DATE_DATATYPE, %TIME_DATATYPE);
     2224     5674    3                NEW_START=START+(LEN+1)/2;
     2225     5675    3                PACKED_FIELD=%YES#;
     2226     5676
     2227     5677    3             CASE(ELSE);
     2228     5678    3                NEW_START=START+LEN;
     2229     5679
     2230     5680    3          END;  /* CASE */
     2231     5681
     2232     5682    2          RETURN;
     2233     5683    2          END CALC_START;
     2234     5684               %EJECT;
PL6.E3A0      #009=FMD$CHKFIELD File=FMD$BUF.:E05TSI                             TUE 07/29/97 16:41 Page:379
     2235     5685        /*I*     NAME:     CHECK_TYPE
     2236     5686                 PURPOSE:  To check a field
     2237     5687                 DESCRIPTION:
     2238     5688                      If this is a packed decimal field, then call PACKCHECK.
     2239     5689
     2240     5690                      If this is unpacked decimal, then call UNPACKCHECK.
     2241     5691
     2242     5692                      If this is unpacked floating, then make sure that the
     2243     5693                 exponent is valid, then call UNPACKCHECK to check the rest.
     2244     5694
     2245     5695                      If this is packed floating, then we need to check the
     2246     5696                 exponent.  This is tricky, because the exponent is two nibbles
     2247     5697                 that can start on any nibble boundary, so it may be split
     2248     5698                 across a byte.
     2249     5699        */
     2250     5700                 %EJECT;
PL6.E3A0      #009=FMD$CHKFIELD File=FMD$BUF.:E05TSI                             TUE 07/29/97 16:41 Page:380
     2251     5701    1   CHECK_TYPE: PROC ALTRET;
     2252     5702        /* */
     2253     5703    3          DO CASE(RECFIELD.FIELD.TYPE(F));
     2254     5704    3             CASE(%PDLA_DATATYPE, %PDTA_DATATYPE, %PDNS_DATATYPE,
     2255     5705    3                  %PDLE_DATATYPE, %PDTE_DATATYPE ,%DATE_DATATYPE,
     2256     5706    3                  %TIME_DATATYPE);
     2257     5707    3                CALL PACKCHECK ALTRET(ERR);
     2258     5708
     2259     5709    3             CASE(%UDLS_DATATYPE, %UDTS_DATATYPE, %UDNS_DATATYPE,
     2260     5710    3                  %UDLO_DATATYPE, %UDTO_DATATYPE);
     2261     5711    3                CALL UNPACKCHECK ALTRET(ERR);
     2262     5712
     2263     5713    3             CASE(%UDFLT_DATATYPE);
     2264     5714    3                FIELD$=PINCRC(F$, START);
     2265     5715    3                TEMP_CHAR=REC(LEN-1);
     2266     5716    3                IF ASCBIN(TEMP_CHAR) > 255 THEN
     2267     5717    3                   ALTRETURN;
     2268     5718    3                LEN=LEN-1;
     2269     5719    3                CALL UNPACKCHECK ALTRET(ERR);
     2270     5720
     2271     5721    3             CASE(%PDFLT_DATATYPE);
     2272     5722    3                FIELD$=PINCRC(F$, START/2);
     2273     5723    3                NCHARS=(LEN+1)/2;
     2274     5724    3                IF MOD(START+LEN, 2) = 0 THEN
     2275     5725    4                   DO;   /* EVEN */
     2276     5726    4                   TEMP_CHAR=REC(NCHARS-1);
     2277     5727    4                   IF ASCBIN(TEMP_CHAR) > 255 THEN
     2278     5728    4                      ALTRETURN;
     2279     5729    4                   END;  /* EVEN */
     2280     5730    3                ELSE
     2281     5731    4                   DO;   /* ODD */
     2282     5732    4                   TEMP_CHAR=REC(NCHARS-1);
     2283     5733    4                   BTEMP=ASCBIN(TEMP_CHAR);
     2284     5734    4                   IF BYT.HBIT = 1 THEN
     2285     5735    4                      ALTRETURN;
     2286     5736    4                   END;  /* ODD */
     2287     5737
PL6.E3A0      #009=FMD$CHKFIELD File=FMD$BUF.:E05TSI                             TUE 07/29/97 16:41 Page:381
     2288     5738    3                LEN=LEN-2;
     2289     5739    3                CALL PACKCHECK ALTRET(ERR);
     2290     5740
     2291     5741    3          END;  /* CASE */
     2292     5742
     2293     5743    2          RETURN;
     2294     5744    2   ERR:   ALTRETURN;
     2295     5745    2          END CHECK_TYPE;
     2296     5746               %EJECT;
PL6.E3A0      #009=FMD$CHKFIELD File=FMD$BUF.:E05TSI                             TUE 07/29/97 16:41 Page:382
     2297     5747        /*I*     NAME:     PACKCHECK
     2298     5748                 PURPOSE:  To check packed decimal fields
     2299     5749                 DESCRIPTION:
     2300     5750                      Point to the byte start of the field, and determine if the
     2301     5751                 nibble is on an even or odd boundary, same thing for the length.
     2302     5752
     2303     5753                      Next, check the sign.  Find the nibble that contains the
     2304     5754                 sign.  The sign must be greater than or equal to 10.
     2305     5755
     2306     5756                      Now, check the number itself.  We want the number to begin
     2307     5757                 and end on a byte boundary, so if the first or last digits are on
     2308     5758                 odd nibble boundaries, check these.
     2309     5759
     2310     5760                      The SEARCH call will now check the remainder of the string
     2311     5761                 against a table of all possible legal bytes that can contain legal
     2312     5762                 decimal values.
     2313     5763        */
     2314     5764                 %EJECT;
PL6.E3A0      #009=FMD$CHKFIELD File=FMD$BUF.:E05TSI                             TUE 07/29/97 16:41 Page:383
     2315     5765    1   PACKCHECK: PROC ALTRET;
     2316     5766        /* */
     2317     5767    2          FIELD$=PINCRC(F$, START/2);
     2318     5768
     2319     5769    2          IF MOD(START, 2) = 0 THEN
     2320     5770    2             BOUNDRY=%EVEN;
     2321     5771    2          ELSE
     2322     5772    2             BOUNDRY=%ODD;
     2323     5773
     2324     5774    2          IF MOD(LEN, 2) = 0 THEN
     2325     5775    2             NDIG=%EVEN;
     2326     5776    2          ELSE
     2327     5777    2             NDIG=%ODD;
     2328     5778
     2329     5779    3          DO CASE(RECFIELD.FIELD.TYPE(F));
     2330     5780    3             CASE(%PDLA_DATATYPE, %PDFLT_DATATYPE, %PDLE_DATATYPE,
     2331     5781    3                  %DATE_DATATYPE, %TIME_DATATYPE);
     2332     5782    3                TEMP_CHAR=REC(0);
     2333     5783    3                BTEMP=ASCBIN(TEMP_CHAR);
     2334     5784    3                IF BOUNDRY = %EVEN THEN
     2335     5785    4                   DO;   /* EVEN BOUNDRY */
     2336     5786    4                   IF BYT.UPPER < 10 THEN
     2337     5787    4                      ALTRETURN;
     2338     5788    4                   END;  /* EVEN BOUNDRY */
     2339     5789    3                ELSE
     2340     5790    4                   DO;   /* ODD BOUNDRY  */
     2341     5791    4                   IF BYT.LOWER < 10 THEN
     2342     5792    4                      ALTRETURN;
     2343     5793    4                   END;  /* ODD BOUNDRY  */
     2344     5794
     2345     5795    3                LEN=LEN-1;
     2346     5796    3                START=START+1;
     2347     5797
     2348     5798    3             CASE(%PDTA_DATATYPE, %PDTE_DATATYPE);
     2349     5799    3                TEMP_CHAR=REC((LEN+1)/2-1);
     2350     5800    3                BTEMP=ASCBIN(TEMP_CHAR);
     2351     5801    3                IF MOD(BOUNDRY+NDIG, 2) = %EVEN THEN
PL6.E3A0      #009=FMD$CHKFIELD File=FMD$BUF.:E05TSI                             TUE 07/29/97 16:41 Page:384
     2352     5802    4                   DO;   /* EVEN */
     2353     5803    4                   IF BYT.LOWER < 10 THEN
     2354     5804    4                      ALTRETURN;
     2355     5805    4                   END;  /* EVEN */
     2356     5806    3                ELSE
     2357     5807    4                   DO;   /* ODD  */
     2358     5808    4                   IF BYT.UPPER < 10 THEN
     2359     5809    4                      ALTRETURN;
     2360     5810    4                   END;  /* ODD  */
     2361     5811
     2362     5812    3                LEN=LEN-1;
     2363     5813
     2364     5814    3          END;  /* CASE */
     2365     5815
     2366     5816    2          FIELD$=PINCRC(F$, START/2);
     2367     5817
     2368     5818    2          IF MOD(START, 2) = 1 THEN
     2369     5819    3             DO;   /* CHECK FIRST DIGIT */
     2370     5820    3             TEMP_CHAR=REC(0);
     2371     5821    3             BTEMP=ASCBIN(TEMP_CHAR);
     2372     5822    3             IF BYT.LOWER > 9 THEN
     2373     5823    3                ALTRETURN;
     2374     5824    3             START=START+1;
     2375     5825    3             FIELD$=PINCRC(FIELD$, 1);
     2376     5826    3             LEN=LEN-1;
     2377     5827    3             END;  /* CHECK FIRST DIGIT */
     2378     5828
     2379     5829    2          IF MOD(LEN, 2) = 1 THEN
     2380     5830    3             DO;   /* CHECK LAST */
     2381     5831    3             TEMP_CHAR=REC((LEN+1)/2-1);
     2382     5832    3             BTEMP=ASCBIN(TEMP_CHAR);
     2383     5833    3             IF BYT.UPPER > 9 THEN
     2384     5834    3                ALTRETURN;
     2385     5835    3             IF BYT.HBIT = 1 THEN
     2386     5836    3                ALTRETURN;
     2387     5837    3             LEN=LEN-1;
     2388     5838    3             END;  /* CHECK LAST */
PL6.E3A0      #009=FMD$CHKFIELD File=FMD$BUF.:E05TSI                             TUE 07/29/97 16:41 Page:385
     2389     5839
     2390     5840    2          NCHARS=LEN/2;
     2391     5841    2          IF NCHARS > 0 THEN
     2392     5842    2             CALL SEARCH(I, DUMMY, PTABLE, FIELD);
     2393     5843
     2394     5844    2          IF I < NCHARS THEN
     2395     5845    2             ALTRETURN;
     2396     5846
     2397     5847    2          RETURN;
     2398     5848    2          END PACKCHECK;
     2399     5849               %EJECT;
PL6.E3A0      #009=FMD$CHKFIELD File=FMD$BUF.:E05TSI                             TUE 07/29/97 16:41 Page:386
     2400     5850        /*I*     NAME:     SET_LEN
     2401     5851                 PURPOSE:  To get the length of a field
     2402     5852                 DESCRIPTION:
     2403     5853                 The length of the field is stored differently depending upon
     2404     5854                 whether the field is a scaled decimal field or not.  If the
     2405     5855                 field is packed decimal, the length will be in nibbles.
     2406     5856                 All other legal key fields must start and end on a byte
     2407     5857                 boundary, so their lengths will either already be in bytes
     2408     5858                 or can be calculated in bytes.
     2409     5859        */
     2410     5860    1   SET_LEN: PROC(FN);
     2411     5861    2          DCL FN UBIN;
     2412     5862        /* */
     2413     5863    3          DO CASE(RECFIELD.FIELD.TYPE(FN));
     2414     5864    3             CASE(%UDLS_DATATYPE, %UDTS_DATATYPE, %UDNS_DATATYPE,
     2415     5865    3                  %UDLO_DATATYPE, %UDTO_DATATYPE, %PDLA_DATATYPE,
     2416     5866    3                  %PDLE_DATATYPE, %PDTA_DATATYPE, %PDTE_DATATYPE,
     2417     5867    3                  %PDNS_DATATYPE, %PDFLT_DATATYPE, %UDFLT_DATATYPE,
     2418     5868    3                  %DATE_DATATYPE, %TIME_DATATYPE);
     2419     5869    3                LEN=RECFIELD.DECFIELD.LEN(FN);
     2420     5870
     2421     5871    3             CASE(%SBIN_DATATYPE, %UBIN_DATATYPE, %UTS_DATATYPE);
     2422     5872    3                LEN=RECFIELD.FIELD.LEN(FN)/9;
     2423     5873
     2424     5874    3             CASE(ELSE);
     2425     5875    3                LEN=RECFIELD.FIELD.LEN(FN);
     2426     5876
     2427     5877    3          END;  /* CASE */
     2428     5878
     2429     5879    2          RETURN;
     2430     5880    2          END SET_LEN;
     2431     5881               %EJECT;
PL6.E3A0      #009=FMD$CHKFIELD File=FMD$BUF.:E05TSI                             TUE 07/29/97 16:41 Page:387
     2432     5882        /*I*     NAME:     SET_START
     2433     5883                 PURPOSE:  To calculate the offset to the start of a field in
     2434     5884                           a record buffer.
     2435     5885                 DESCRIPTION:
     2436     5886                 If the field is packed decimal, calculate the start in
     2437     5887                 nibbles, so we can add it to the nibble length from RECFIELD.
     2438     5888                 All other legal key fields must be byte aligned (and end on
     2439     5889                 a byte boundary), so calculate the start in bytes.
     2440     5890        */
     2441     5891    1   SET_START: PROC(FN);
     2442     5892    2          DCL FN UBIN;
     2443     5893        /* */
     2444     5894    3          DO CASE(RECFIELD.FIELD.TYPE(FN));
     2445     5895    3             CASE(%PDLA_DATATYPE, %PDTA_DATATYPE, %PDLE_DATATYPE,
     2446     5896    3                  %PDTE_DATATYPE, %PDNS_DATATYPE, %PDFLT_DATATYPE,
     2447     5897    3                  %DATE_DATATYPE, %TIME_DATATYPE);
     2448     5898    3                IF MOD(FIELD_START.OFFSET(FN),9)=0 THEN
     2449     5899    3                   START=(FIELD_START.OFFSET(FN)/9)*2;
     2450     5900    3                ELSE START=(FIELD_START.OFFSET(FN)/9)*2 + 1;
     2451     5901    3                PACKED_FIELD=%YES#;
     2452     5902
     2453     5903    3             CASE(ELSE);
     2454     5904    3                START=FIELD_START.OFFSET(FN)/9;
     2455     5905
     2456     5906    3          END;
     2457     5907
     2458     5908    2          RETURN;
     2459     5909    2          END SET_START;
     2460     5910               %EJECT;
PL6.E3A0      #009=FMD$CHKFIELD File=FMD$BUF.:E05TSI                             TUE 07/29/97 16:41 Page:388
     2461     5911        /*I*     NAME:     UNPACKCHECK
     2462     5912                 PURPOSE:  To check unpacked decimal fields
     2463     5913                 DESCRIPTION:
     2464     5914                      First check the sign.  It can either be at the beginning
     2465     5915                 or end of the number depending on the datatype.
     2466     5916
     2467     5917                      Overpunched sign is fun.  A sign and digit is contained in
     2468     5918                 a single byte.  The '{' and '}' are plus and minus 0.  'A' through
     2469     5919                 'I' are plus 1 to 9, and 'J' to 'R' are minus 1 to 9.
     2470     5920
     2471     5921                      Next, the number is check.  This is done by searching the
     2472     5922                 string against a table of all possible decimal values.  In this
     2473     5923                 case, this means the string can only contain the characters
     2474     5924                 '0' through '9'.
     2475     5925        */
     2476     5926                 %EJECT;
PL6.E3A0      #009=FMD$CHKFIELD File=FMD$BUF.:E05TSI                             TUE 07/29/97 16:41 Page:389
     2477     5927    1   UNPACKCHECK: PROC ALTRET;
     2478     5928        /* */
     2479     5929    2          FIELD$=PINCRC(F$, START);
     2480     5930    2          NCHARS=LEN;
     2481     5931
     2482     5932    3          DO CASE(RECFIELD.FIELD.TYPE(F));
     2483     5933    3             CASE(%UDLS_DATATYPE, %UDFLT_DATATYPE);
     2484     5934    3                IF REC(0) ~= '+' AND REC(0) ~= '-' THEN
     2485     5935    3                   ALTRETURN;
     2486     5936    3                FIELD$=PINCRC(FIELD$, 1);
     2487     5937    3                NCHARS=NCHARS-1;
     2488     5938
     2489     5939    3             CASE(%UDTS_DATATYPE);
     2490     5940    3                IF REC(NCHARS-1) ~= '+' AND REC(NCHARS-1) ~= '-' THEN
     2491     5941    3                   ALTRETURN;
     2492     5942    3                NCHARS=NCHARS-1;
     2493     5943
     2494     5944    3             CASE(%UDLO_DATATYPE);
     2495     5945    3                IF REC(0) ~= '{' AND REC(0) ~= '}' AND
     2496     5946    3                   (REC(0) < 'A' OR REC(0) > 'R') THEN
     2497     5947    3                   ALTRETURN;
     2498     5948    3                FIELD$=PINCRC(FIELD$, 1);
     2499     5949    3                NCHARS=NCHARS-1;
     2500     5950
     2501     5951    3             CASE(%UDTO_DATATYPE);
     2502     5952    3                IF REC(NCHARS-1) ~= '{' AND REC(NCHARS-1) ~= '}' AND
     2503     5953    3                   (REC(NCHARS-1) < 'A' OR REC(NCHARS-1) > 'R') THEN
     2504     5954    3                   ALTRETURN;
     2505     5955    3                NCHARS=NCHARS-1;
     2506     5956
     2507     5957    3          END;  /* CASE                               */
     2508     5958
     2509     5959    2          CALL SEARCH(I, DUMMY, DTABLE, FIELD);
     2510     5960
     2511     5961    2          IF I < NCHARS THEN
     2512     5962    2             ALTRETURN;
     2513     5963
PL6.E3A0      #009=FMD$CHKFIELD File=FMD$BUF.:E05TSI                             TUE 07/29/97 16:41 Page:390
     2514     5964    2          RETURN;
     2515     5965    2          END UNPACKCHECK;
     2516     5966    1          END FMD$CHKFIELD;

PL6.E3A0      #009=FMD$CHKFIELD File=FMD$BUF.:E05TSI                             TUE 07/29/97 16:41 Page:391
--  Include file information  --

   B$TABLES_C.:E05TOU  cannot be made into a system file and is referenced.
   B$OBJECT_C.:E05TOU  is referenced.
   FM_FIELD_C.:E05TOU  is referenced.
   F_ERRORS_C.:E05TOU  is referenced.
   F_MACROS_C.:E05TOU  is referenced.
   CP_6_SUBS.:E05TOU  is referenced.
   F$CP6V_C.:E05TOU  is referenced.
   F$DCB.:E05TOU  is referenced.
   B$JIT_C.:E05TOU  is referenced.
   B$JIT.:E05TOU  cannot be made into a system file and is referenced.
      No diagnostics issued in procedure FMD$CHKFIELD.

   Procedure FMD$CHKFIELD requires 873 words for executable code.
   Procedure FMD$CHKFIELD requires 36 words of local(AUTO) storage.

    No errors detected in file FMD$BUF.:E05TSI    .

PL6.E3A0      #009=FMD$CHKFIELD File=FMD$BUF.:E05TSI                             TUE 07/29/97 16:41 Page:392

 Object Unit name= FMD$CHKFIELD                               File name= FMD$BUF.:E05TOU
 UTS= JUL 29 '97 16:41:54.12 TUE                              Compiler= PL-6/E31         Sev=      00
 SharedLib= :SHARED_SYSTEM                                    Alt SharedLib=


    ****  Control sections  ****

 Sect   Type Bound  Init  Size OctSiz  Section name(segment info)
    0  RoData even  UTS    131    203  FMD$CHKFIELD
    1   Proc  even  none   873   1551  FMD$CHKFIELD
    2  RoData even  none     6      6  FMD$CHKFIELD

    ****  Entry defs  ****

                              Check   Calling
                             calling  sequence
  Sect OctLoc Primary Altret sequence   type   Parms  Name
     1      0   yes    yes     yes      Std        2  FMD$CHKFIELD

  ****  Entry refs  ****

         Check        Calling
        calling       sequence
Altret sequence SRef   type   Args  Name
         yes          ~proc      0 B_POINTER
         yes           Std       2 HFF$DSIZ
                       nStd      0 X66_AUTO_2
                       Std       0 B_CONSPOOL_D
                       nStd      0 X66_ARET
                       nStd      0 X66_AALT
PL6.E3A0      #009=FMD$CHKFIELD File=FMD$BUF.:E05TSI                             TUE 07/29/97 16:41 Page:393

  ****  Data refs  ****

  Flags:  r = read only, s = secondary
Flgs Name                             Flgs Name                             Flgs Name
r    B$JIT$                           r    B$ROSEG$                         r    B$SR_NON_DEC$
     B_VECTNIL
PL6.E3A0      #009=FMD$CHKFIELD File=FMD$BUF.:E05TSI                             TUE 07/29/97 16:41 Page:394


     1990        1        /*T***********************************************************/
     1991        2        /*T*                                                         */
     1992        3        /*T* Copyright (c) Bull HN Information Systems Inc., 1997    */
     1993        4        /*T*                                                         */
     1994        5        /*T***********************************************************/
     1995        6        /*F*     NAME:     FMD$CHKFIELD
     1996        7                 PURPOSE:  To check key fields in a record or key buffer for
     1997        8                           an operation on an IREL file.
     1998        9        */
     1999       10        /*D*     NAME:     FMD$CHKFIELD
     2000       11                 CALL:     CALL FMD$CHKFIELD(F$, FTYP) ALTRET(ERR);
     2001       12                 INPUT:    F$   - Pointer to record or key
     2002       13                           FTYP - Type of field to check (record or key).
     2003       14                                  (See FM_FIELD_C for equates.)
     2004       15                 OUTPUT:   Validated key buffer or key fields.
     2005       16                 DESCRIPTION:
     2006       17                 If we're checking a key buffer, we need to know which
     2007       18                 fields are used for that particular key.  So, we set up the
     2008       19                 structures to access the list of fields for the key.  If
     2009       20                 we're checking the key fields in a record buffer, we only
     2010       21                 need to set up the RECFIELD, FIELD_START, and KFIELD
     2011       22                 structures to be able to access all the key fields.
     2012       23
     2013       24                 Loop through, checking all fields in the key buffer or all
     2014       25                 the key fields in the record.  If this is a key buffer, we
     2015       26                 have to be able to check partial keys (keys missing some
     2016       27                 fields at the end).  After setting up the start and length,
     2017       28                 check the field.  Since fields with data types NO, TEXTC,
     2018       29                 TEXTH, LIST, and VLIST cannot be used in keys, we
     2019       30                 don't need to check those.  We also don't need to check
     2020       31                 fields with data types CHAR, SFLT, DFLT, UBIN, SBIN, or
     2021       32                 UTS since they won't cause us to fault.  So, the only fields
     2022       33                 we actually validate have decimal data types.
     2023       34        */
     2024       35        FMD$CHKFIELD: PROC(F$, FTYP) ALTRET;

PL6.E3A0      #009=FMD$CHKFIELD File=FMD$BUF.:E05TSI                             TUE 07/29/97 16:41 Page:395
     35  1 000000   000000 700200 xent  FMD$CHKFIELD TSX0  ! X66_AUTO_2
         1 000001   000044 000002                    ZERO    36,2

     2025       36    1          DCL F$ PTR;
     2026       37    1          DCL FTYP UBIN;
     2027       38        /* */
     2028       39               %INCLUDE B$JIT;
     2029      642               %MACRO F$DCB(BASED=BASED);
     2030      643               %INCLUDE F$DCB;
     2031      692               %MEND;
     2032      693               %INCLUDE F$CP6V_C;
     2033      919               %INCLUDE CP_6_SUBS;
     2034     1459               %INCLUDE F_MACROS_C;
     2035     1470               %INCLUDE F_ERRORS_C;
     2036     1710               %INCLUDE FM_FIELD_C;
     2037     1751               %INCLUDE B$OBJECT_C;
     2038     5181        /* */
     2039     5182               %F$DCB(BASED="BASED(JDCB$)");
     2040     5232               %VLP$RECFIELD_V(FPTN=RECFIELD, BASED="BASED(RECFIELD$)");
     2041     5269               %FM$FIELD_START(FPTN=FIELD_START, STCLASS="BASED(START$)");
     2042     5291               %FMG$IRKEYS(FPTN=IRKEYS, STCLASS="BASED(ALTKEY$)");
     2043     5298               %FMG$KFIELD(FPTN=KFIELD, STCLASS="BASED(KFIELD$)");
     2044     5301               %VREBL_DATATYPES;
     2045     5376        /* */
     2046     5377               %SUB FCG#='0615'O;
     2047     5378               %SUB MID#='04'O;
     2048     5379               %ERRCODE(NAME=ERRBADRFIELD, COD#=%E$BADRFIELD);
     2049     5383               %ERRCODE(NAME=ERRBADIRKEY, COD#=%E$BADIRKEY);
     2050     5387               %ERRCODE(NAME=ERRINDBC, COD#=%E$INDBC);
     2051     5391        /* */
     2052     5392    1          DCL B$JIT$ PTR SYMREF READONLY;
     2053     5393    1          DCL B$ROSEG$ PTR SYMREF READONLY;
     2054     5394        /* */
     2055     5395    1          DCL HFF$DSIZ ENTRY(2);
     2056     5396        /* */
     2057     5397               %INCLUDE B$TABLES_C;
     2058     5505               %B$SR_NON_DEC(NAME=DTABLE);
PL6.E3A0      #009=FMD$CHKFIELD File=FMD$BUF.:E05TSI                             TUE 07/29/97 16:41 Page:396
     2059     5509    1          DCL PTABLE(0:511) UBIN(9) CALIGNED CONSTANT INIT(
     2060     5510    1             0, 0, 0, 0, 0, 0, 0, 0, 0, 0, 1, 1, 1, 1, 1, 1, /* 0 - 15 */
     2061     5511    1             0, 0, 0, 0, 0, 0, 0, 0, 0, 0, 1, 1, 1, 1, 1, 1, /* 16 - 31 */
     2062     5512    1             0, 0, 0, 0, 0, 0, 0, 0, 0, 0, 1, 1, 1, 1, 1, 1, /* 32 - 47 */
     2063     5513    1             0, 0, 0, 0, 0, 0, 0, 0, 0, 0, 1, 1, 1, 1, 1, 1, /* 48 - 63 */
     2064     5514    1             0, 0, 0, 0, 0, 0, 0, 0, 0, 0, 1, 1, 1, 1, 1, 1, /* 64 - 79 */
     2065     5515    1             0, 0, 0, 0, 0, 0, 0, 0, 0, 0, 1, 1, 1, 1, 1, 1, /* 80 - 95 */
     2066     5516    1             0, 0, 0, 0, 0, 0, 0, 0, 0, 0, 1, 1, 1, 1, 1, 1, /* 96 - 111 */
     2067     5517    1             0, 0, 0, 0, 0, 0, 0, 0, 0, 0, 1, 1, 1, 1, 1, 1, /* 112 - 127 */
     2068     5518    1             0, 0, 0, 0, 0, 0, 0, 0, 0, 0, 1, 1, 1, 1, 1, 1, /* 128 - 143 */
     2069     5519    1             0, 0, 0, 0, 0, 0, 0, 0, 0, 0, 1, 1, 1, 1, 1, 1, /* 144 - 159 */
     2070     5520    1             1*352);
     2071     5521        /* */
     2072     5522    1          DCL REC(0:0) CHAR(1) BASED(FIELD$);
     2073     5523    1          DCL FIELD CHAR(NCHARS) BASED(FIELD$);
     2074     5524        /* */
     2075     5525    1          DCL JDCB$ PTR;
     2076     5526    1          DCL RECFIELD$ PTR;
     2077     5527    1          DCL START$ PTR;
     2078     5528    1          DCL ALTKEY$ PTR;
     2079     5529    1          DCL KFIELD$ PTR;
     2080     5530    1          DCL KEYSIZE UBIN;
     2081     5531    1          DCL N UBIN;
     2082     5532    1          DCL FN UBIN;
     2083     5533    1          DCL F UBIN;
     2084     5534    1          DCL FIRST UBIN;
     2085     5535    1          DCL START UBIN;
     2086     5536    1          DCL NEW_START UBIN;
     2087     5537    1          DCL LEN UBIN;
     2088     5538    1          DCL NCHARS UBIN;
     2089     5539    1          DCL BOUNDRY UBIN;
     2090     5540    1          DCL NDIG UBIN;
     2091     5541    1          DCL I UBIN;
     2092     5542    1          DCL DUMMY UBIN;
     2093     5543    1          DCL FIELD$ PTR;
     2094     5544    1          DCL 1 BYT,
     2095     5545    1               2 HBIT UBIN(1) UNAL,
PL6.E3A0      #009=FMD$CHKFIELD File=FMD$BUF.:E05TSI                             TUE 07/29/97 16:41 Page:397
     2096     5546    1               2 UPPER UBIN(4) UNAL,
     2097     5547    1               2 LOWER UBIN(4) UNAL;
     2098     5548    1          DCL BTEMP REDEF BYT UBIN(9) CALIGNED;
     2099     5549    1          DCL PACKED_FIELD BIT(1);
     2100     5550    1          DCL TEMP_START UBIN;
     2101     5551    1          DCL TEMP_SUM UBIN;
     2102     5552    1          DCL TEMP_CHAR CHAR(1) CALIGNED;
     2103     5553        /* */
     2104     5554               %EQU EVEN=0;
     2105     5555               %EQU ODD=1;
     2106     5556        /* */
     2107     5557    1          JDCB$=B$JIT.DCB$;

   5557  1 000002   000000 470400 xsym               LDP0    B$JIT$
         1 000003   000232 236100                    LDQ     154,,PR0
         1 000004   200005 756100                    STQ     JDCB$,,AUTO

     2108     5558    1          RECFIELD$=PINCRW(B$ROSEG$, F$DCB.FIELDX);

   5558  1 000005   200005 471500                    LDP1    JDCB$,,AUTO
         1 000006   100054 720100                    LXL0    44,,PR1
         1 000007   000000 636010                    EAQ     0,X0
         1 000010   000000 036000 xsym               ADLQ    B$ROSEG$
         1 000011   200006 756100                    STQ     RECFIELD$,,AUTO

     2109     5559    1          START$=PINCRW(B$ROSEG$, F$DCB.STARTX);

   5559  1 000012   100057 221100                    LDX1    47,,PR1
         1 000013   000000 636011                    EAQ     0,X1
         1 000014   000000 036000 xsym               ADLQ    B$ROSEG$
         1 000015   200007 756100                    STQ     START$,,AUTO

     2110     5560    1          KFIELD$=PINCRW(B$ROSEG$, F$DCB.KFIELDX);

   5560  1 000016   100056 722100                    LXL2    46,,PR1
         1 000017   000000 636012                    EAQ     0,X2
         1 000020   000000 036000 xsym               ADLQ    B$ROSEG$
PL6.E3A0      #009=FMD$CHKFIELD File=FMD$BUF.:E05TSI                             TUE 07/29/97 16:41 Page:398
         1 000021   200011 756100                    STQ     KFIELD$,,AUTO

     2111     5561
     2112     5562    1          IF FTYP = %FMD_CHKTYP_KEY THEN

   5562  1 000022   200004 473500                    LDP3    @FTYP,,AUTO
         1 000023   300000 235100                    LDA     0,,PR3
         1 000024   000001 115007                    CMPA    1,DL
         1 000025   000062 601000 1                  TNZ     s:5571

     2113     5563    2             DO;   /* DO KEY SETUP */

     2114     5564    2             ALTKEY$=PINCRW(B$ROSEG$, F$DCB.ALTKEYX);

   5564  1 000026   100052 723100                    LXL3    42,,PR1
         1 000027   000000 636013                    EAQ     0,X3
         1 000030   000000 036000 xsym               ADLQ    B$ROSEG$
         1 000031   200010 756100                    STQ     ALTKEY$,,AUTO

     2115     5565    2             CALL HFF$DSIZ(F$, KEYSIZE);

   5565  1 000032   200012 634500                    EPPR4   KEYSIZE,,AUTO
         1 000033   200043 454500                    STP4    @FN+4,,AUTO
         1 000034   200003 236100                    LDQ     @F$,,AUTO
         1 000035   200042 756100                    STQ     @FN+3,,AUTO
         1 000036   200042 630500                    EPPR0   @FN+3,,AUTO
         1 000037   000020 631400 xsym               EPPR1   B_VECTNIL+16
         1 000040   000000 701000 xent               TSX1    HFF$DSIZ
         1 000041   000000 011000                    NOP     0

     2116     5566    2             N=IRKEYS.K.NFIELDS(F$DCB.INDX-1);

   5566  1 000042   200005 470500                    LDP0    JDCB$,,AUTO
         1 000043   000077 236100                    LDQ     63,,PR0
         1 000044   000022 772000                    QRL     18
         1 000045   000007 402007                    MPY     7,DL
         1 000046   200010 471500                    LDP1    ALTKEY$,,AUTO
PL6.E3A0      #009=FMD$CHKFIELD File=FMD$BUF.:E05TSI                             TUE 07/29/97 16:41 Page:399
         1 000047   177775 236106                    LDQ     -3,QL,PR1
         1 000050   777777 376007                    ANQ     -1,DL
         1 000051   200013 756100                    STQ     N,,AUTO

     2117     5567    2             FIRST=IRKEYS.K.FIRSTFIELD(F$DCB.INDX-1);

   5567  1 000052   000077 236100                    LDQ     63,,PR0
         1 000053   000022 772000                    QRL     18
         1 000054   000007 402007                    MPY     7,DL
         1 000055   177775 236106                    LDQ     -3,QL,PR1
         1 000056   000022 772000                    QRL     18
         1 000057   200016 756100                    STQ     FIRST,,AUTO

     2118     5568    2             NEW_START=0;

   5568  1 000060   200020 450100                    STZ     NEW_START,,AUTO

     2119     5569    2             END;

   5569  1 000061   000065 710000 1                  TRA     LOOP

     2120     5570    1          ELSE
     2121     5571    1             N=KFIELD.NFIELDS;

   5571  1 000062   200011 474500                    LDP4    KFIELD$,,AUTO
         1 000063   400001 235100                    LDA     1,,PR4
         1 000064   200013 755100                    STA     N,,AUTO

     2122     5572
     2123     5573    2   LOOP:  DO FN=0 TO N-1;

   5573  1 000065   200014 450100       LOOP         STZ     FN,,AUTO
         1 000066   000175 710000 1                  TRA     s:5620+3

     2124     5574    2             PACKED_FIELD=%NO#;

   5574  1 000067   200031 450100                    STZ     PACKED_FIELD,,AUTO
PL6.E3A0      #009=FMD$CHKFIELD File=FMD$BUF.:E05TSI                             TUE 07/29/97 16:41 Page:400

     2125     5575    2             IF FTYP = %FMD_CHKTYP_REC THEN

   5575  1 000070   200004 470500                    LDP0    @FTYP,,AUTO
         1 000071   000000 235100                    LDA     0,,PR0
         1 000072   000136 601000 1                  TNZ     s:5600

     2126     5576    3                DO;   /* RECORD */

     2127     5577                     /* Since a field may be used in several keys, we may
     2128     5578                        end up checking some fields more than once. Sigh. */
     2129     5579    3                F=KFIELD.FIELD(FN);

   5579  1 000073   200011 471500                    LDP1    KFIELD$,,AUTO
         1 000074   200014 236100                    LDQ     FN,,AUTO
         1 000075   000100 101506                    MRL     fill='000'O
         1 000076   100002 000001                    ADSC9   2,Q,PR1                  cn=0,n=1
         1 000077   200015 000004                    ADSC9   F,,AUTO                  cn=0,n=4

     2130     5580    3                CALL SET_START(F);

   5580  1 000100   200015 633500                    EPPR3   F,,AUTO
         1 000101   200037 453500                    STP3    TEMP_CHAR+3,,AUTO
         1 000102   001233 701000 1                  TSX1    SET_START
         1 000103   000000 011000                    NOP     0

     2131     5581    3                CALL SET_LEN(F);

   5581  1 000104   200015 630500                    EPPR0   F,,AUTO
         1 000105   200037 450500                    STP0    TEMP_CHAR+3,,AUTO
         1 000106   001100 701000 1                  TSX1    SET_LEN
         1 000107   000000 011000                    NOP     0

     2132     5582    3                TEMP_START=START;

   5582  1 000110   200017 235100                    LDA     START,,AUTO
         1 000111   200032 755100                    STA     TEMP_START,,AUTO
PL6.E3A0      #009=FMD$CHKFIELD File=FMD$BUF.:E05TSI                             TUE 07/29/97 16:41 Page:401

     2133     5583    3                TEMP_SUM=START+LEN;

   5583  1 000112   200017 236100                    LDQ     START,,AUTO
         1 000113   200021 036100                    ADLQ    LEN,,AUTO
         1 000114   200033 756100                    STQ     TEMP_SUM,,AUTO

     2134     5584    3                IF PACKED_FIELD = %YES# THEN

   5584  1 000115   200031 234100                    SZN     PACKED_FIELD,,AUTO
         1 000116   000127 605000 1                  TPL     s:5593

     2135     5585    4                   DO;   /* PACKED DECIMAL FIELD */

     2136     5586    4                   TEMP_START=(TEMP_START+1)/2;

   5586  1 000117   200032 236100                    LDQ     TEMP_START,,AUTO
         1 000120   000001 036007                    ADLQ    1,DL
         1 000121   000001 772000                    QRL     1
         1 000122   200032 756100                    STQ     TEMP_START,,AUTO

     2137     5587    4                   TEMP_SUM=(TEMP_SUM+1)/2;

   5587  1 000123   200033 236100                    LDQ     TEMP_SUM,,AUTO
         1 000124   000001 036007                    ADLQ    1,DL
         1 000125   000001 772000                    QRL     1
         1 000126   200033 756100                    STQ     TEMP_SUM,,AUTO

     2138     5588    4                   END;  /* PACKED DECIMAL FIELD */

     2139     5589
     2140     5590                     /* This check shouldn't fail since F$DCB.UBYTES should
     2141     5591                        have been checked against IRKEYS.MINSIZE before we
     2142     5592                        were called. But, to be safe . . .               */
     2143     5593    3                IF TEMP_SUM > F$DCB.UBYTES THEN

   5593  1 000127   200005 470500                    LDP0    JDCB$,,AUTO
PL6.E3A0      #009=FMD$CHKFIELD File=FMD$BUF.:E05TSI                             TUE 07/29/97 16:41 Page:402
         1 000130   000076 116100                    CMPQ    62,,PR0
         1 000131   000133 600000 1                  TZE     s:5596
         1 000132   000223 603000 1                  TRC     REC_TOO_SMALL

     2144     5594    3                   GOTO REC_TOO_SMALL;
     2145     5595
     2146     5596    3                CALL CHECK_TYPE ALTRET(ERR);

   5596  1 000133   000342 701000 1                  TSX1    CHECK_TYPE
         1 000134   000201 702000 1                  TSX2    ERR

     2147     5597    3                END;  /* RECORD */

   5597  1 000135   000172 710000 1                  TRA     s:5620

     2148     5598    2             ELSE
     2149     5599    3                DO;   /* KEY */

     2150     5600    3                START=NEW_START;

   5600  1 000136   200020 236100                    LDQ     NEW_START,,AUTO
         1 000137   200017 756100                    STQ     START,,AUTO

     2151     5601    3                F=KFIELD.FIELD(FN+FIRST);

   5601  1 000140   200014 236100                    LDQ     FN,,AUTO
         1 000141   200016 036100                    ADLQ    FIRST,,AUTO
         1 000142   200011 471500                    LDP1    KFIELD$,,AUTO
         1 000143   000100 101506                    MRL     fill='000'O
         1 000144   100002 000001                    ADSC9   2,Q,PR1                  cn=0,n=1
         1 000145   200015 000004                    ADSC9   F,,AUTO                  cn=0,n=4

     2152     5602    3                CALL SET_LEN(F);

   5602  1 000146   200015 633500                    EPPR3   F,,AUTO
         1 000147   200037 453500                    STP3    TEMP_CHAR+3,,AUTO
         1 000150   001100 701000 1                  TSX1    SET_LEN
PL6.E3A0      #009=FMD$CHKFIELD File=FMD$BUF.:E05TSI                             TUE 07/29/97 16:41 Page:403
         1 000151   000000 011000                    NOP     0

     2153     5603    3                CALL CALC_START;

   5603  1 000152   000231 701000 1                  TSX1    CALC_START
         1 000153   000000 011000                    NOP     0

     2154     5604    3                IF START < KEYSIZE THEN

   5604  1 000154   200017 236100                    LDQ     START,,AUTO
         1 000155   200012 116100                    CMPQ    KEYSIZE,,AUTO
         1 000156   000200 603000 1                  TRC     s:5622

     2155     5605    4                   DO;   /* CHECK FOR FULL KEY SEG */

     2156     5606    4                   IF NEW_START > KEYSIZE THEN

   5606  1 000157   200012 236100                    LDQ     KEYSIZE,,AUTO
         1 000160   200020 116100                    CMPQ    NEW_START,,AUTO
         1 000161   000201 602000 1                  TNC     ERR

     2157     5607    4                      GOTO ERR;
     2158     5608    4                   END;  /* CHECK FOR FULL KEY SEG */

   5608  1 000162   000163 710000 1                  TRA     s:5615

     2159     5609    3                ELSE
     2160     5610    3                   EXIT LOOP; /* partial key */
     2161     5611
     2162     5612                     /* If the field is packed, convert START to nibbles.
     2163     5613                        This is easy since, in key buffers, all fields must
     2164     5614                        begin on a byte bound.                           */
     2165     5615    3                IF PACKED_FIELD THEN

   5615  1 000163   200031 234100                    SZN     PACKED_FIELD,,AUTO
         1 000164   000170 605000 1                  TPL     s:5617

PL6.E3A0      #009=FMD$CHKFIELD File=FMD$BUF.:E05TSI                             TUE 07/29/97 16:41 Page:404
     2166     5616    3                   START=START*2;

   5616  1 000165   200017 235100                    LDA     START,,AUTO
         1 000166   000001 735000                    ALS     1
         1 000167   200017 755100                    STA     START,,AUTO

     2167     5617    3                CALL CHECK_TYPE ALTRET(ERR);

   5617  1 000170   000342 701000 1                  TSX1    CHECK_TYPE
         1 000171   000201 702000 1                  TSX2    ERR

     2168     5618    3                END;  /* KEY */

     2169     5619
     2170     5620    2          END;  /* DO FN */

   5620  1 000172   200014 235100                    LDA     FN,,AUTO
         1 000173   000001 035007                    ADLA    1,DL
         1 000174   200014 755100                    STA     FN,,AUTO
         1 000175   200014 236100                    LDQ     FN,,AUTO
         1 000176   200013 116100                    CMPQ    N,,AUTO
         1 000177   000067 602000 1                  TNC     s:5574

     2171     5621
     2172     5622    1          RETURN;

   5622  1 000200   000000 702200 xent               TSX2  ! X66_ARET

     2173     5623    2   ERR:   IF FTYP = %FMD_CHKTYP_KEY THEN DO;

   5623  1 000201   200004 470500       ERR          LDP0    @FTYP,,AUTO
         1 000202   000000 235100                    LDA     0,,PR0
         1 000203   000001 115007                    CMPA    1,DL
         1 000204   000214 601000 1                  TNZ     s:5628

     2174     5624    2             B$JIT.ERR=ERRBADIRKEY;

PL6.E3A0      #009=FMD$CHKFIELD File=FMD$BUF.:E05TSI                             TUE 07/29/97 16:41 Page:405
   5624  1 000205   000001 236000 0                  LDQ     ERRBADIRKEY
         1 000206   000000 471400 xsym               LDP1    B$JIT$
         1 000207   100012 756100                    STQ     10,,PR1

     2175     5625    2             F$DCB.ARS=FN;

   5625  1 000210   200014 235100                    LDA     FN,,AUTO
         1 000211   200005 473500                    LDP3    JDCB$,,AUTO
         1 000212   300000 755100                    STA     0,,PR3

     2176     5626    2             END;

   5626  1 000213   000222 710000 1                  TRA     s:5631

     2177     5627    2          ELSE DO;

     2178     5628    2             B$JIT.ERR=ERRBADRFIELD;

   5628  1 000214   000000 236000 0                  LDQ     ERRBADRFIELD
         1 000215   000000 471400 xsym               LDP1    B$JIT$
         1 000216   100012 756100                    STQ     10,,PR1

     2179     5629    2             F$DCB.ARS=F;

   5629  1 000217   200015 235100                    LDA     F,,AUTO
         1 000220   200005 473500                    LDP3    JDCB$,,AUTO
         1 000221   300000 755100                    STA     0,,PR3

     2180     5630    2             END;

     2181     5631    1          ALTRETURN;

   5631  1 000222   000000 702200 xent               TSX2  ! X66_AALT

   5623  1 000223                       REC_TOO_SMA* null
     2182     5632        /*E*   ERROR:      FMD-E$BADRFIELD-2
     2183     5633               MESSAGE: The record contains a bad key field %in %UF%
PL6.E3A0      #009=FMD$CHKFIELD File=FMD$BUF.:E05TSI                             TUE 07/29/97 16:41 Page:406
     2184     5634               MESSAGE1: One of the key fields in the record %in %UF%
     2185     5635                         contains bad data.  This is likely because the field
     2186     5636                         is a decimal field with an illegal decimal value.
     2187     5637                         F$DCB.ARS# contains the index into the RECFIELD field
     2188     5638                         array of the bad field.
     2189     5639        */
     2190     5640        /*E*   ERROR:   FMD-E$BADIRKEY-2
     2191     5641               MESSAGE: The key buffer specified %for %UF% contains a bad key segment
     2192     5642               MESSAGE1: The key buffer specified %for %UF% contains a badly
     2193     5643                         defined field or an incomplete key fragment.  The bad
     2194     5644                         key segment number is in F$DCB.ARS#.
     2195     5645        */
     2196     5646    1   REC_TOO_SMALL:;
     2197     5647    1          B$JIT.ERR=ERRINDBC;

   5647  1 000223   000002 236000 0                  LDQ     ERRINDBC
         1 000224   000000 471400 xsym               LDP1    B$JIT$
         1 000225   100012 756100                    STQ     10,,PR1

     2198     5648    1          F$DCB.ARS=F;

   5648  1 000226   200015 235100                    LDA     F,,AUTO
         1 000227   000000 755100                    STA     0,,PR0

     2199     5649    1          ALTRETURN;

   5649  1 000230   000000 702200 xent               TSX2  ! X66_AALT

     2200     5650
     2201     5651        /*E*   ERROR:    FMD-E$INDBC-2
     2202     5652               MESSAGE:  Byte count too small on M$WRITE to IREL file% %UF%
     2203     5653               MESSAGE1: The byte count of the record buffer on an M$WRITE
     2204     5654                         to an IREL file% %UF% was too small to contain all
     2205     5655                         the key(s).  F$DCB.ARS# contains the index into the
     2206     5656                         RECFIELD field array of the first key field not
     2207     5657                         contained in the record.
     2208     5658        */
PL6.E3A0      #009=FMD$CHKFIELD File=FMD$BUF.:E05TSI                             TUE 07/29/97 16:41 Page:407
     2209     5659               %EJECT;
PL6.E3A0      #009=FMD$CHKFIELD File=FMD$BUF.:E05TSI                             TUE 07/29/97 16:41 Page:408
     2210     5660        /*I*     NAME:     CALC_START
     2211     5661                 PURPOSE:  To calculate the byte offset to the start of a field
     2212     5662                           in a key buffer.
     2213     5663                 DESCRIPTION:
     2214     5664                      If this is a packed decimal field, then the offset is a
     2215     5665                 nibble offset, calculate it in bytes.  Otherwise, just add the
     2216     5666                 byte offset.
     2217     5667        */
     2218     5668    1   CALC_START: PROC;

   5668  1 000231   200036 741300       CALC_START   STX1  ! TEMP_CHAR+2,,AUTO

     2219     5669        /* */
     2220     5670    3          DO CASE(RECFIELD.FIELD.TYPE(F));

   5670  1 000232   200015 236100                    LDQ     F,,AUTO
         1 000233   000003 402007                    MPY     3,DL
         1 000234   200006 470500                    LDP0    RECFIELD$,,AUTO
         1 000235   000100 101506                    MRL     fill='000'O
         1 000236   000001 020001                    ADSC6   1,Q,PR0                  cn=0,n=1
         1 000237   200042 020006                    ADSC6   @FN+3,,AUTO              cn=0,n=6
         1 000240   200042 236100                    LDQ     @FN+3,,AUTO
         1 000241   000011 136007                    SBLQ    9,DL
         1 000242   000061 116007                    CMPQ    49,DL
         1 000243   000245 602006 1                  TNC     s:5670+11,QL
         1 000244   000336 710000 1                  TRA     s:5678
         1 000245   000326 710000 1                  TRA     s:5674
         1 000246   000326 710000 1                  TRA     s:5674
         1 000247   000336 710000 1                  TRA     s:5678
         1 000250   000336 710000 1                  TRA     s:5678
         1 000251   000336 710000 1                  TRA     s:5678
         1 000252   000336 710000 1                  TRA     s:5678
         1 000253   000336 710000 1                  TRA     s:5678
         1 000254   000336 710000 1                  TRA     s:5678
         1 000255   000336 710000 1                  TRA     s:5678
         1 000256   000336 710000 1                  TRA     s:5678
         1 000257   000336 710000 1                  TRA     s:5678
PL6.E3A0      #009=FMD$CHKFIELD File=FMD$BUF.:E05TSI                             TUE 07/29/97 16:41 Page:409
         1 000260   000336 710000 1                  TRA     s:5678
         1 000261   000336 710000 1                  TRA     s:5678
         1 000262   000336 710000 1                  TRA     s:5678
         1 000263   000336 710000 1                  TRA     s:5678
         1 000264   000336 710000 1                  TRA     s:5678
         1 000265   000326 710000 1                  TRA     s:5674
         1 000266   000336 710000 1                  TRA     s:5678
         1 000267   000336 710000 1                  TRA     s:5678
         1 000270   000336 710000 1                  TRA     s:5678
         1 000271   000336 710000 1                  TRA     s:5678
         1 000272   000336 710000 1                  TRA     s:5678
         1 000273   000326 710000 1                  TRA     s:5674
         1 000274   000336 710000 1                  TRA     s:5678
         1 000275   000336 710000 1                  TRA     s:5678
         1 000276   000336 710000 1                  TRA     s:5678
         1 000277   000336 710000 1                  TRA     s:5678
         1 000300   000336 710000 1                  TRA     s:5678
         1 000301   000336 710000 1                  TRA     s:5678
         1 000302   000336 710000 1                  TRA     s:5678
         1 000303   000336 710000 1                  TRA     s:5678
         1 000304   000326 710000 1                  TRA     s:5674
         1 000305   000336 710000 1                  TRA     s:5678
         1 000306   000336 710000 1                  TRA     s:5678
         1 000307   000336 710000 1                  TRA     s:5678
         1 000310   000336 710000 1                  TRA     s:5678
         1 000311   000336 710000 1                  TRA     s:5678
         1 000312   000336 710000 1                  TRA     s:5678
         1 000313   000336 710000 1                  TRA     s:5678
         1 000314   000336 710000 1                  TRA     s:5678
         1 000315   000336 710000 1                  TRA     s:5678
         1 000316   000336 710000 1                  TRA     s:5678
         1 000317   000326 710000 1                  TRA     s:5674
         1 000320   000336 710000 1                  TRA     s:5678
         1 000321   000336 710000 1                  TRA     s:5678
         1 000322   000326 710000 1                  TRA     s:5674
         1 000323   000336 710000 1                  TRA     s:5678
         1 000324   000336 710000 1                  TRA     s:5678
PL6.E3A0      #009=FMD$CHKFIELD File=FMD$BUF.:E05TSI                             TUE 07/29/97 16:41 Page:410
         1 000325   000326 710000 1                  TRA     s:5674

     2221     5671    3             CASE(%PDLA_DATATYPE, %PDTA_DATATYPE, %PDNS_DATATYPE,

     2222     5672    3                  %PDFLT_DATATYPE, %PDLE_DATATYPE, %PDTE_DATATYPE,
     2223     5673    3                  %DATE_DATATYPE, %TIME_DATATYPE);
     2224     5674    3                NEW_START=START+(LEN+1)/2;

   5674  1 000326   200021 236100                    LDQ     LEN,,AUTO
         1 000327   000001 036007                    ADLQ    1,DL
         1 000330   000001 772000                    QRL     1
         1 000331   200017 036100                    ADLQ    START,,AUTO
         1 000332   200020 756100                    STQ     NEW_START,,AUTO

     2225     5675    3                PACKED_FIELD=%YES#;

   5675  1 000333   400000 236003                    LDQ     -131072,DU
         1 000334   200031 756100                    STQ     PACKED_FIELD,,AUTO
         1 000335   000341 710000 1                  TRA     s:5682

     2226     5676
     2227     5677    3             CASE(ELSE);

     2228     5678    3                NEW_START=START+LEN;

   5678  1 000336   200017 236100                    LDQ     START,,AUTO
         1 000337   200021 036100                    ADLQ    LEN,,AUTO
         1 000340   200020 756100                    STQ     NEW_START,,AUTO

     2229     5679
     2230     5680    3          END;  /* CASE */

     2231     5681
     2232     5682    2          RETURN;

   5682  1 000341   000001 702211                    TSX2  ! 1,X1

PL6.E3A0      #009=FMD$CHKFIELD File=FMD$BUF.:E05TSI                             TUE 07/29/97 16:41 Page:411
     2233     5683    2          END CALC_START;
     2234     5684               %EJECT;
PL6.E3A0      #009=FMD$CHKFIELD File=FMD$BUF.:E05TSI                             TUE 07/29/97 16:41 Page:412
     2235     5685        /*I*     NAME:     CHECK_TYPE
     2236     5686                 PURPOSE:  To check a field
     2237     5687                 DESCRIPTION:
     2238     5688                      If this is a packed decimal field, then call PACKCHECK.
     2239     5689
     2240     5690                      If this is unpacked decimal, then call UNPACKCHECK.
     2241     5691
     2242     5692                      If this is unpacked floating, then make sure that the
     2243     5693                 exponent is valid, then call UNPACKCHECK to check the rest.
     2244     5694
     2245     5695                      If this is packed floating, then we need to check the
     2246     5696                 exponent.  This is tricky, because the exponent is two nibbles
     2247     5697                 that can start on any nibble boundary, so it may be split
     2248     5698                 across a byte.
     2249     5699        */
     2250     5700                 %EJECT;
PL6.E3A0      #009=FMD$CHKFIELD File=FMD$BUF.:E05TSI                             TUE 07/29/97 16:41 Page:413
     2251     5701    1   CHECK_TYPE: PROC ALTRET;

   5701  1 000342   200036 741300       CHECK_TYPE   STX1  ! TEMP_CHAR+2,,AUTO

     2252     5702        /* */
     2253     5703    3          DO CASE(RECFIELD.FIELD.TYPE(F));

   5703  1 000343   200015 236100                    LDQ     F,,AUTO
         1 000344   000003 402007                    MPY     3,DL
         1 000345   200006 470500                    LDP0    RECFIELD$,,AUTO
         1 000346   000100 101506                    MRL     fill='000'O
         1 000347   000001 020001                    ADSC6   1,Q,PR0                  cn=0,n=1
         1 000350   200042 020006                    ADSC6   @FN+3,,AUTO              cn=0,n=6
         1 000351   200042 236100                    LDQ     @FN+3,,AUTO
         1 000352   000011 136007                    SBLQ    9,DL
         1 000353   000061 116007                    CMPQ    49,DL
         1 000354   000356 602006 1                  TNC     s:5703+11,QL
         1 000355   000545 710000 1                  TRA     s:5743
         1 000356   000437 710000 1                  TRA     s:5707
         1 000357   000471 710000 1                  TRA     s:5722
         1 000360   000545 710000 1                  TRA     s:5743
         1 000361   000545 710000 1                  TRA     s:5743
         1 000362   000545 710000 1                  TRA     s:5743
         1 000363   000545 710000 1                  TRA     s:5743
         1 000364   000545 710000 1                  TRA     s:5743
         1 000365   000545 710000 1                  TRA     s:5743
         1 000366   000545 710000 1                  TRA     s:5743
         1 000367   000545 710000 1                  TRA     s:5743
         1 000370   000545 710000 1                  TRA     s:5743
         1 000371   000545 710000 1                  TRA     s:5743
         1 000372   000545 710000 1                  TRA     s:5743
         1 000373   000545 710000 1                  TRA     s:5743
         1 000374   000545 710000 1                  TRA     s:5743
         1 000375   000545 710000 1                  TRA     s:5743
         1 000376   000437 710000 1                  TRA     s:5707
         1 000377   000545 710000 1                  TRA     s:5743
         1 000400   000545 710000 1                  TRA     s:5743
PL6.E3A0      #009=FMD$CHKFIELD File=FMD$BUF.:E05TSI                             TUE 07/29/97 16:41 Page:414
         1 000401   000545 710000 1                  TRA     s:5743
         1 000402   000545 710000 1                  TRA     s:5743
         1 000403   000545 710000 1                  TRA     s:5743
         1 000404   000437 710000 1                  TRA     s:5707
         1 000405   000545 710000 1                  TRA     s:5743
         1 000406   000545 710000 1                  TRA     s:5743
         1 000407   000545 710000 1                  TRA     s:5743
         1 000410   000545 710000 1                  TRA     s:5743
         1 000411   000545 710000 1                  TRA     s:5743
         1 000412   000545 710000 1                  TRA     s:5743
         1 000413   000545 710000 1                  TRA     s:5743
         1 000414   000545 710000 1                  TRA     s:5743
         1 000415   000437 710000 1                  TRA     s:5707
         1 000416   000442 710000 1                  TRA     s:5711
         1 000417   000442 710000 1                  TRA     s:5711
         1 000420   000442 710000 1                  TRA     s:5711
         1 000421   000442 710000 1                  TRA     s:5711
         1 000422   000442 710000 1                  TRA     s:5711
         1 000423   000545 710000 1                  TRA     s:5743
         1 000424   000545 710000 1                  TRA     s:5743
         1 000425   000545 710000 1                  TRA     s:5743
         1 000426   000545 710000 1                  TRA     s:5743
         1 000427   000445 710000 1                  TRA     s:5714
         1 000430   000437 710000 1                  TRA     s:5707
         1 000431   000545 710000 1                  TRA     s:5743
         1 000432   000545 710000 1                  TRA     s:5743
         1 000433   000437 710000 1                  TRA     s:5707
         1 000434   000545 710000 1                  TRA     s:5743
         1 000435   000545 710000 1                  TRA     s:5743
         1 000436   000437 710000 1                  TRA     s:5707

     2254     5704    3             CASE(%PDLA_DATATYPE, %PDTA_DATATYPE, %PDNS_DATATYPE,

     2255     5705    3                  %PDLE_DATATYPE, %PDTE_DATATYPE ,%DATE_DATATYPE,
     2256     5706    3                  %TIME_DATATYPE);
     2257     5707    3                CALL PACKCHECK ALTRET(ERR);

PL6.E3A0      #009=FMD$CHKFIELD File=FMD$BUF.:E05TSI                             TUE 07/29/97 16:41 Page:415
   5707  1 000437   000551 701000 1                  TSX1    PACKCHECK
         1 000440   000547 702000 1                  TSX2    ERR
         1 000441   000545 710000 1                  TRA     s:5743

     2258     5708
     2259     5709    3             CASE(%UDLS_DATATYPE, %UDTS_DATATYPE, %UDNS_DATATYPE,

     2260     5710    3                  %UDLO_DATATYPE, %UDTO_DATATYPE);
     2261     5711    3                CALL UNPACKCHECK ALTRET(ERR);

   5711  1 000442   001363 701000 1                  TSX1    UNPACKCHECK
         1 000443   000547 702000 1                  TSX2    ERR
         1 000444   000545 710000 1                  TRA     s:5743

     2262     5712
     2263     5713    3             CASE(%UDFLT_DATATYPE);

     2264     5714    3                FIELD$=PINCRC(F$, START);

   5714  1 000445   200003 471500                    LDP1    @F$,,AUTO
         1 000446   100000 473500                    LDP3    0,,PR1
         1 000447   200017 236100                    LDQ     START,,AUTO
         1 000450   000011 402007                    MPY     9,DL
         1 000451   300000 503506                    ABD     0,QL,PR3
         1 000452   200027 453500                    STP3    FIELD$,,AUTO

     2265     5715    3                TEMP_CHAR=REC(LEN-1);

   5715  1 000453   200021 235100                    LDA     LEN,,AUTO
         1 000454   040100 100505                    MLR     fill='040'O
         1 000455   377777 600001                    ADSC9   -1,A,PR3                 cn=3,n=1
         1 000456   200034 000001                    ADSC9   TEMP_CHAR,,AUTO          cn=0,n=1

     2266     5716    3                IF ASCBIN(TEMP_CHAR) > 255 THEN

   5716  1 000457   200034 236100                    LDQ     TEMP_CHAR,,AUTO
         1 000460   000033 772000                    QRL     27
PL6.E3A0      #009=FMD$CHKFIELD File=FMD$BUF.:E05TSI                             TUE 07/29/97 16:41 Page:416
         1 000461   000400 116007                    CMPQ    256,DL
         1 000462   000464 602000 1                  TNC     s:5718

     2267     5717    3                   ALTRETURN;

   5717  1 000463   000000 702211                    TSX2  ! 0,X1

     2268     5718    3                LEN=LEN-1;

   5718  1 000464   000001 135007                    SBLA    1,DL
         1 000465   200021 755100                    STA     LEN,,AUTO

     2269     5719    3                CALL UNPACKCHECK ALTRET(ERR);

   5719  1 000466   001363 701000 1                  TSX1    UNPACKCHECK
         1 000467   000547 702000 1                  TSX2    ERR
         1 000470   000545 710000 1                  TRA     s:5743

     2270     5720
     2271     5721    3             CASE(%PDFLT_DATATYPE);

     2272     5722    3                FIELD$=PINCRC(F$, START/2);

   5722  1 000471   200017 236100                    LDQ     START,,AUTO
         1 000472   000001 772000                    QRL     1
         1 000473   200003 471500                    LDP1    @F$,,AUTO
         1 000474   100000 473500                    LDP3    0,,PR1
         1 000475   000011 402007                    MPY     9,DL
         1 000476   300000 503506                    ABD     0,QL,PR3
         1 000477   200027 453500                    STP3    FIELD$,,AUTO

     2273     5723    3                NCHARS=(LEN+1)/2;

   5723  1 000500   200021 236100                    LDQ     LEN,,AUTO
         1 000501   000001 036007                    ADLQ    1,DL
         1 000502   000001 772000                    QRL     1
         1 000503   200022 756100                    STQ     NCHARS,,AUTO
PL6.E3A0      #009=FMD$CHKFIELD File=FMD$BUF.:E05TSI                             TUE 07/29/97 16:41 Page:417

     2274     5724    3                IF MOD(START+LEN, 2) = 0 THEN

   5724  1 000504   200017 236100                    LDQ     START,,AUTO
         1 000505   200021 036100                    ADLQ    LEN,,AUTO
         1 000506   000001 376007                    ANQ     1,DL
         1 000507   000521 601000 1                  TNZ     s:5732

     2275     5725    4                   DO;   /* EVEN */

     2276     5726    4                   TEMP_CHAR=REC(NCHARS-1);

   5726  1 000510   200022 235100                    LDA     NCHARS,,AUTO
         1 000511   040100 100505                    MLR     fill='040'O
         1 000512   377777 600001                    ADSC9   -1,A,PR3                 cn=3,n=1
         1 000513   200034 000001                    ADSC9   TEMP_CHAR,,AUTO          cn=0,n=1

     2277     5727    4                   IF ASCBIN(TEMP_CHAR) > 255 THEN

   5727  1 000514   200034 236100                    LDQ     TEMP_CHAR,,AUTO
         1 000515   000033 772000                    QRL     27
         1 000516   000400 116007                    CMPQ    256,DL
         1 000517   000540 602000 1                  TNC     s:5738

     2278     5728    4                      ALTRETURN;

   5728  1 000520   000000 702211                    TSX2  ! 0,X1

     2279     5729    4                   END;  /* EVEN */
     2280     5730    3                ELSE
     2281     5731    4                   DO;   /* ODD */

     2282     5732    4                   TEMP_CHAR=REC(NCHARS-1);

   5732  1 000521   200022 235100                    LDA     NCHARS,,AUTO
         1 000522   040100 100505                    MLR     fill='040'O
         1 000523   377777 600001                    ADSC9   -1,A,PR3                 cn=3,n=1
PL6.E3A0      #009=FMD$CHKFIELD File=FMD$BUF.:E05TSI                             TUE 07/29/97 16:41 Page:418
         1 000524   200034 000001                    ADSC9   TEMP_CHAR,,AUTO          cn=0,n=1

     2283     5733    4                   BTEMP=ASCBIN(TEMP_CHAR);

   5733  1 000525   200034 236100                    LDQ     TEMP_CHAR,,AUTO
         1 000526   000033 772000                    QRL     27
         1 000527   000033 736000                    QLS     27
         1 000530   200030 552140                    STBQ    BYT,'40'O,AUTO

     2284     5734    4                   IF BYT.HBIT = 1 THEN

   5734  1 000531   200030 236100                    LDQ     BYT,,AUTO
         1 000532   400000 376003                    ANQ     -131072,DU
         1 000533   000027 676000 xsym               ERQ     B_VECTNIL+23
         1 000534   000001 036007                    ADLQ    1,DL
         1 000535   400000 116003                    CMPQ    -131072,DU
         1 000536   000540 601000 1                  TNZ     s:5738

     2285     5735    4                      ALTRETURN;

   5735  1 000537   000000 702211                    TSX2  ! 0,X1

     2286     5736    4                   END;  /* ODD */
     2287     5737
     2288     5738    3                LEN=LEN-2;

   5738  1 000540   200021 236100                    LDQ     LEN,,AUTO
         1 000541   000002 136007                    SBLQ    2,DL
         1 000542   200021 756100                    STQ     LEN,,AUTO

     2289     5739    3                CALL PACKCHECK ALTRET(ERR);

   5739  1 000543   000551 701000 1                  TSX1    PACKCHECK
         1 000544   000547 702000 1                  TSX2    ERR

     2290     5740
     2291     5741    3          END;  /* CASE */
PL6.E3A0      #009=FMD$CHKFIELD File=FMD$BUF.:E05TSI                             TUE 07/29/97 16:41 Page:419

     2292     5742
     2293     5743    2          RETURN;

   5743  1 000545   200036 221300                    LDX1  ! TEMP_CHAR+2,,AUTO
         1 000546   000001 702211                    TSX2  ! 1,X1

     2294     5744    2   ERR:   ALTRETURN;

   5744  1 000547   200036 221300       ERR          LDX1  ! TEMP_CHAR+2,,AUTO
         1 000550   000000 702211                    TSX2  ! 0,X1

     2295     5745    2          END CHECK_TYPE;
     2296     5746               %EJECT;
PL6.E3A0      #009=FMD$CHKFIELD File=FMD$BUF.:E05TSI                             TUE 07/29/97 16:41 Page:420
     2297     5747        /*I*     NAME:     PACKCHECK
     2298     5748                 PURPOSE:  To check packed decimal fields
     2299     5749                 DESCRIPTION:
     2300     5750                      Point to the byte start of the field, and determine if the
     2301     5751                 nibble is on an even or odd boundary, same thing for the length.
     2302     5752
     2303     5753                      Next, check the sign.  Find the nibble that contains the
     2304     5754                 sign.  The sign must be greater than or equal to 10.
     2305     5755
     2306     5756                      Now, check the number itself.  We want the number to begin
     2307     5757                 and end on a byte boundary, so if the first or last digits are on
     2308     5758                 odd nibble boundaries, check these.
     2309     5759
     2310     5760                      The SEARCH call will now check the remainder of the string
     2311     5761                 against a table of all possible legal bytes that can contain legal
     2312     5762                 decimal values.
     2313     5763        */
     2314     5764                 %EJECT;
PL6.E3A0      #009=FMD$CHKFIELD File=FMD$BUF.:E05TSI                             TUE 07/29/97 16:41 Page:421
     2315     5765    1   PACKCHECK: PROC ALTRET;

   5765  1 000551   200040 741300       PACKCHECK    STX1  ! @FN+1,,AUTO

     2316     5766        /* */
     2317     5767    2          FIELD$=PINCRC(F$, START/2);

   5767  1 000552   200017 236100                    LDQ     START,,AUTO
         1 000553   000001 772000                    QRL     1
         1 000554   200003 470500                    LDP0    @F$,,AUTO
         1 000555   000000 471500                    LDP1    0,,PR0
         1 000556   000011 402007                    MPY     9,DL
         1 000557   100000 503506                    ABD     0,QL,PR1
         1 000560   200027 451500                    STP1    FIELD$,,AUTO

     2318     5768
     2319     5769    2          IF MOD(START, 2) = 0 THEN

   5769  1 000561   200017 236100                    LDQ     START,,AUTO
         1 000562   000001 376007                    ANQ     1,DL
         1 000563   000566 601000 1                  TNZ     s:5772

     2320     5770    2             BOUNDRY=%EVEN;

   5770  1 000564   200023 450100                    STZ     BOUNDRY,,AUTO
         1 000565   000570 710000 1                  TRA     s:5774

     2321     5771    2          ELSE
     2322     5772    2             BOUNDRY=%ODD;

   5772  1 000566   000001 235007                    LDA     1,DL
         1 000567   200023 755100                    STA     BOUNDRY,,AUTO

     2323     5773
     2324     5774    2          IF MOD(LEN, 2) = 0 THEN

   5774  1 000570   200021 236100                    LDQ     LEN,,AUTO
PL6.E3A0      #009=FMD$CHKFIELD File=FMD$BUF.:E05TSI                             TUE 07/29/97 16:41 Page:422
         1 000571   000001 376007                    ANQ     1,DL
         1 000572   000575 601000 1                  TNZ     s:5777

     2325     5775    2             NDIG=%EVEN;

   5775  1 000573   200024 450100                    STZ     NDIG,,AUTO
         1 000574   000577 710000 1                  TRA     s:5779

     2326     5776    2          ELSE
     2327     5777    2             NDIG=%ODD;

   5777  1 000575   000001 235007                    LDA     1,DL
         1 000576   200024 755100                    STA     NDIG,,AUTO

     2328     5778
     2329     5779    3          DO CASE(RECFIELD.FIELD.TYPE(F));

   5779  1 000577   200015 236100                    LDQ     F,,AUTO
         1 000600   000003 402007                    MPY     3,DL
         1 000601   200006 473500                    LDP3    RECFIELD$,,AUTO
         1 000602   000100 101506                    MRL     fill='000'O
         1 000603   300001 020001                    ADSC6   1,Q,PR3                  cn=0,n=1
         1 000604   200042 020006                    ADSC6   @FN+3,,AUTO              cn=0,n=6
         1 000605   200042 236100                    LDQ     @FN+3,,AUTO
         1 000606   000011 136007                    SBLQ    9,DL
         1 000607   000061 116007                    CMPQ    49,DL
         1 000610   000612 602006 1                  TNC     s:5779+11,QL
         1 000611   000760 710000 1                  TRA     s:5816
         1 000612   000673 710000 1                  TRA     s:5782
         1 000613   000673 710000 1                  TRA     s:5782
         1 000614   000760 710000 1                  TRA     s:5816
         1 000615   000760 710000 1                  TRA     s:5816
         1 000616   000760 710000 1                  TRA     s:5816
         1 000617   000760 710000 1                  TRA     s:5816
         1 000620   000760 710000 1                  TRA     s:5816
         1 000621   000760 710000 1                  TRA     s:5816
         1 000622   000760 710000 1                  TRA     s:5816
PL6.E3A0      #009=FMD$CHKFIELD File=FMD$BUF.:E05TSI                             TUE 07/29/97 16:41 Page:423
         1 000623   000760 710000 1                  TRA     s:5816
         1 000624   000760 710000 1                  TRA     s:5816
         1 000625   000760 710000 1                  TRA     s:5816
         1 000626   000760 710000 1                  TRA     s:5816
         1 000627   000760 710000 1                  TRA     s:5816
         1 000630   000760 710000 1                  TRA     s:5816
         1 000631   000760 710000 1                  TRA     s:5816
         1 000632   000725 710000 1                  TRA     s:5799
         1 000633   000760 710000 1                  TRA     s:5816
         1 000634   000760 710000 1                  TRA     s:5816
         1 000635   000760 710000 1                  TRA     s:5816
         1 000636   000760 710000 1                  TRA     s:5816
         1 000637   000760 710000 1                  TRA     s:5816
         1 000640   000725 710000 1                  TRA     s:5799
         1 000641   000760 710000 1                  TRA     s:5816
         1 000642   000760 710000 1                  TRA     s:5816
         1 000643   000760 710000 1                  TRA     s:5816
         1 000644   000760 710000 1                  TRA     s:5816
         1 000645   000760 710000 1                  TRA     s:5816
         1 000646   000760 710000 1                  TRA     s:5816
         1 000647   000760 710000 1                  TRA     s:5816
         1 000650   000760 710000 1                  TRA     s:5816
         1 000651   000760 710000 1                  TRA     s:5816
         1 000652   000760 710000 1                  TRA     s:5816
         1 000653   000760 710000 1                  TRA     s:5816
         1 000654   000760 710000 1                  TRA     s:5816
         1 000655   000760 710000 1                  TRA     s:5816
         1 000656   000760 710000 1                  TRA     s:5816
         1 000657   000760 710000 1                  TRA     s:5816
         1 000660   000760 710000 1                  TRA     s:5816
         1 000661   000760 710000 1                  TRA     s:5816
         1 000662   000760 710000 1                  TRA     s:5816
         1 000663   000760 710000 1                  TRA     s:5816
         1 000664   000673 710000 1                  TRA     s:5782
         1 000665   000760 710000 1                  TRA     s:5816
         1 000666   000760 710000 1                  TRA     s:5816
         1 000667   000673 710000 1                  TRA     s:5782
PL6.E3A0      #009=FMD$CHKFIELD File=FMD$BUF.:E05TSI                             TUE 07/29/97 16:41 Page:424
         1 000670   000760 710000 1                  TRA     s:5816
         1 000671   000760 710000 1                  TRA     s:5816
         1 000672   000673 710000 1                  TRA     s:5782

     2330     5780    3             CASE(%PDLA_DATATYPE, %PDFLT_DATATYPE, %PDLE_DATATYPE,

     2331     5781    3                  %DATE_DATATYPE, %TIME_DATATYPE);
     2332     5782    3                TEMP_CHAR=REC(0);

   5782  1 000673   040100 100500                    MLR     fill='040'O
         1 000674   100000 000001                    ADSC9   0,,PR1                   cn=0,n=1
         1 000675   200034 000001                    ADSC9   TEMP_CHAR,,AUTO          cn=0,n=1

     2333     5783    3                BTEMP=ASCBIN(TEMP_CHAR);

   5783  1 000676   200034 236100                    LDQ     TEMP_CHAR,,AUTO
         1 000677   000033 772000                    QRL     27
         1 000700   000033 736000                    QLS     27
         1 000701   200030 552140                    STBQ    BYT,'40'O,AUTO

     2334     5784    3                IF BOUNDRY = %EVEN THEN

   5784  1 000702   200023 235100                    LDA     BOUNDRY,,AUTO
         1 000703   000711 601000 1                  TNZ     s:5791

     2335     5785    4                   DO;   /* EVEN BOUNDRY */

     2336     5786    4                   IF BYT.UPPER < 10 THEN

   5786  1 000704   200030 236100                    LDQ     BYT,,AUTO
         1 000705   360000 376003                    ANQ     122880,DU
         1 000706   240000 116003                    CMPQ    81920,DU
         1 000707   000716 603000 1                  TRC     s:5795

     2337     5787    4                      ALTRETURN;

   5787  1 000710   000000 702211                    TSX2  ! 0,X1
PL6.E3A0      #009=FMD$CHKFIELD File=FMD$BUF.:E05TSI                             TUE 07/29/97 16:41 Page:425

     2338     5788    4                   END;  /* EVEN BOUNDRY */
     2339     5789    3                ELSE
     2340     5790    4                   DO;   /* ODD BOUNDRY  */

     2341     5791    4                   IF BYT.LOWER < 10 THEN

   5791  1 000711   200030 236100                    LDQ     BYT,,AUTO
         1 000712   017000 376003                    ANQ     7680,DU
         1 000713   012000 116003                    CMPQ    5120,DU
         1 000714   000716 603000 1                  TRC     s:5795

     2342     5792    4                      ALTRETURN;

   5792  1 000715   000000 702211                    TSX2  ! 0,X1

     2343     5793    4                   END;  /* ODD BOUNDRY  */
     2344     5794
     2345     5795    3                LEN=LEN-1;

   5795  1 000716   200021 236100                    LDQ     LEN,,AUTO
         1 000717   000001 136007                    SBLQ    1,DL
         1 000720   200021 756100                    STQ     LEN,,AUTO

     2346     5796    3                START=START+1;

   5796  1 000721   200017 235100                    LDA     START,,AUTO
         1 000722   000001 035007                    ADLA    1,DL
         1 000723   200017 755100                    STA     START,,AUTO
         1 000724   000760 710000 1                  TRA     s:5816

     2347     5797
     2348     5798    3             CASE(%PDTA_DATATYPE, %PDTE_DATATYPE);

     2349     5799    3                TEMP_CHAR=REC((LEN+1)/2-1);

   5799  1 000725   200021 236100                    LDQ     LEN,,AUTO
PL6.E3A0      #009=FMD$CHKFIELD File=FMD$BUF.:E05TSI                             TUE 07/29/97 16:41 Page:426
         1 000726   000001 036007                    ADLQ    1,DL
         1 000727   000001 772000                    QRL     1
         1 000730   040100 100506                    MLR     fill='040'O
         1 000731   177777 600001                    ADSC9   -1,Q,PR1                 cn=3,n=1
         1 000732   200034 000001                    ADSC9   TEMP_CHAR,,AUTO          cn=0,n=1

     2350     5800    3                BTEMP=ASCBIN(TEMP_CHAR);

   5800  1 000733   200034 236100                    LDQ     TEMP_CHAR,,AUTO
         1 000734   000033 772000                    QRL     27
         1 000735   000033 736000                    QLS     27
         1 000736   200030 552140                    STBQ    BYT,'40'O,AUTO

     2351     5801    3                IF MOD(BOUNDRY+NDIG, 2) = %EVEN THEN

   5801  1 000737   200023 236100                    LDQ     BOUNDRY,,AUTO
         1 000740   200024 036100                    ADLQ    NDIG,,AUTO
         1 000741   000001 376007                    ANQ     1,DL
         1 000742   000750 601000 1                  TNZ     s:5808

     2352     5802    4                   DO;   /* EVEN */

     2353     5803    4                   IF BYT.LOWER < 10 THEN

   5803  1 000743   200030 236100                    LDQ     BYT,,AUTO
         1 000744   017000 376003                    ANQ     7680,DU
         1 000745   012000 116003                    CMPQ    5120,DU
         1 000746   000755 603000 1                  TRC     s:5812

     2354     5804    4                      ALTRETURN;

   5804  1 000747   000000 702211                    TSX2  ! 0,X1

     2355     5805    4                   END;  /* EVEN */
     2356     5806    3                ELSE
     2357     5807    4                   DO;   /* ODD  */

PL6.E3A0      #009=FMD$CHKFIELD File=FMD$BUF.:E05TSI                             TUE 07/29/97 16:41 Page:427
     2358     5808    4                   IF BYT.UPPER < 10 THEN

   5808  1 000750   200030 236100                    LDQ     BYT,,AUTO
         1 000751   360000 376003                    ANQ     122880,DU
         1 000752   240000 116003                    CMPQ    81920,DU
         1 000753   000755 603000 1                  TRC     s:5812

     2359     5809    4                      ALTRETURN;

   5809  1 000754   000000 702211                    TSX2  ! 0,X1

     2360     5810    4                   END;  /* ODD  */
     2361     5811
     2362     5812    3                LEN=LEN-1;

   5812  1 000755   200021 235100                    LDA     LEN,,AUTO
         1 000756   000001 135007                    SBLA    1,DL
         1 000757   200021 755100                    STA     LEN,,AUTO

     2363     5813
     2364     5814    3          END;  /* CASE */

     2365     5815
     2366     5816    2          FIELD$=PINCRC(F$, START/2);

   5816  1 000760   200017 236100                    LDQ     START,,AUTO
         1 000761   000001 772000                    QRL     1
         1 000762   000000 474500                    LDP4    0,,PR0
         1 000763   000011 402007                    MPY     9,DL
         1 000764   400000 503506                    ABD     0,QL,PR4
         1 000765   200027 454500                    STP4    FIELD$,,AUTO

     2367     5817
     2368     5818    2          IF MOD(START, 2) = 1 THEN

   5818  1 000766   200017 236100                    LDQ     START,,AUTO
         1 000767   000001 376007                    ANQ     1,DL
PL6.E3A0      #009=FMD$CHKFIELD File=FMD$BUF.:E05TSI                             TUE 07/29/97 16:41 Page:428
         1 000770   000001 116007                    CMPQ    1,DL
         1 000771   001017 601000 1                  TNZ     s:5829

     2369     5819    3             DO;   /* CHECK FIRST DIGIT */

     2370     5820    3             TEMP_CHAR=REC(0);

   5820  1 000772   040100 100500                    MLR     fill='040'O
         1 000773   400000 000001                    ADSC9   0,,PR4                   cn=0,n=1
         1 000774   200034 000001                    ADSC9   TEMP_CHAR,,AUTO          cn=0,n=1

     2371     5821    3             BTEMP=ASCBIN(TEMP_CHAR);

   5821  1 000775   200034 236100                    LDQ     TEMP_CHAR,,AUTO
         1 000776   000033 772000                    QRL     27
         1 000777   000033 736000                    QLS     27
         1 001000   200030 552140                    STBQ    BYT,'40'O,AUTO

     2372     5822    3             IF BYT.LOWER > 9 THEN

   5822  1 001001   200030 236100                    LDQ     BYT,,AUTO
         1 001002   017000 376003                    ANQ     7680,DU
         1 001003   012000 116003                    CMPQ    5120,DU
         1 001004   001006 602000 1                  TNC     s:5824

     2373     5823    3                ALTRETURN;

   5823  1 001005   000000 702211                    TSX2  ! 0,X1

     2374     5824    3             START=START+1;

   5824  1 001006   200017 235100                    LDA     START,,AUTO
         1 001007   000001 035007                    ADLA    1,DL
         1 001010   200017 755100                    STA     START,,AUTO

     2375     5825    3             FIELD$=PINCRC(FIELD$, 1);

PL6.E3A0      #009=FMD$CHKFIELD File=FMD$BUF.:E05TSI                             TUE 07/29/97 16:41 Page:429
   5825  1 001011   200027 236100                    LDQ     FIELD$,,AUTO
         1 001012   200000 036007                    ADLQ    65536,DL
         1 001013   200027 756100                    STQ     FIELD$,,AUTO

     2376     5826    3             LEN=LEN-1;

   5826  1 001014   200021 235100                    LDA     LEN,,AUTO
         1 001015   000001 135007                    SBLA    1,DL
         1 001016   200021 755100                    STA     LEN,,AUTO

     2377     5827    3             END;  /* CHECK FIRST DIGIT */

     2378     5828
     2379     5829    2          IF MOD(LEN, 2) = 1 THEN

   5829  1 001017   200021 236100                    LDQ     LEN,,AUTO
         1 001020   000001 376007                    ANQ     1,DL
         1 001021   000001 116007                    CMPQ    1,DL
         1 001022   001055 601000 1                  TNZ     s:5840

     2380     5830    3             DO;   /* CHECK LAST */

     2381     5831    3             TEMP_CHAR=REC((LEN+1)/2-1);

   5831  1 001023   200021 236100                    LDQ     LEN,,AUTO
         1 001024   000001 036007                    ADLQ    1,DL
         1 001025   000001 772000                    QRL     1
         1 001026   200027 471500                    LDP1    FIELD$,,AUTO
         1 001027   040100 100506                    MLR     fill='040'O
         1 001030   177777 600001                    ADSC9   -1,Q,PR1                 cn=3,n=1
         1 001031   200034 000001                    ADSC9   TEMP_CHAR,,AUTO          cn=0,n=1

     2382     5832    3             BTEMP=ASCBIN(TEMP_CHAR);

   5832  1 001032   200034 236100                    LDQ     TEMP_CHAR,,AUTO
         1 001033   000033 772000                    QRL     27
         1 001034   000033 736000                    QLS     27
PL6.E3A0      #009=FMD$CHKFIELD File=FMD$BUF.:E05TSI                             TUE 07/29/97 16:41 Page:430
         1 001035   200030 552140                    STBQ    BYT,'40'O,AUTO

     2383     5833    3             IF BYT.UPPER > 9 THEN

   5833  1 001036   200030 236100                    LDQ     BYT,,AUTO
         1 001037   360000 376003                    ANQ     122880,DU
         1 001040   240000 116003                    CMPQ    81920,DU
         1 001041   001043 602000 1                  TNC     s:5835

     2384     5834    3                ALTRETURN;

   5834  1 001042   000000 702211                    TSX2  ! 0,X1

     2385     5835    3             IF BYT.HBIT = 1 THEN

   5835  1 001043   200030 236100                    LDQ     BYT,,AUTO
         1 001044   400000 376003                    ANQ     -131072,DU
         1 001045   000027 676000 xsym               ERQ     B_VECTNIL+23
         1 001046   000001 036007                    ADLQ    1,DL
         1 001047   400000 116003                    CMPQ    -131072,DU
         1 001050   001052 601000 1                  TNZ     s:5837

     2386     5836    3                ALTRETURN;

   5836  1 001051   000000 702211                    TSX2  ! 0,X1

     2387     5837    3             LEN=LEN-1;

   5837  1 001052   200021 235100                    LDA     LEN,,AUTO
         1 001053   000001 135007                    SBLA    1,DL
         1 001054   200021 755100                    STA     LEN,,AUTO

     2388     5838    3             END;  /* CHECK LAST */

     2389     5839
     2390     5840    2          NCHARS=LEN/2;

PL6.E3A0      #009=FMD$CHKFIELD File=FMD$BUF.:E05TSI                             TUE 07/29/97 16:41 Page:431
   5840  1 001055   200021 236100                    LDQ     LEN,,AUTO
         1 001056   000001 772000                    QRL     1
         1 001057   200022 756100                    STQ     NCHARS,,AUTO

     2391     5841    2          IF NCHARS > 0 THEN

   5841  1 001060   001073 600000 1                  TZE     s:5844

     2392     5842    2             CALL SEARCH(I, DUMMY, PTABLE, FIELD);

   5842  1 001061   200027 471500                    LDP1    FIELD$,,AUTO
         1 001062   000000 620006                    EAX0    0,QL
         1 001063   000000 164540                    TCT
         1 001064   100000 000010                    ADSC9   0,,PR1                   cn=0,n=*X0
         1 001065   000003 000000 0                  ARG     PTABLE
         1 001066   200025 000100                    ARG     I,,AUTO
         1 001067   200025 235100                    LDA     I,,AUTO
         1 001070   000033 771000                    ARL     27
         1 001071   200026 755100                    STA     DUMMY,,AUTO
         1 001072   200025 551140                    STBA    I,'40'O,AUTO

     2393     5843
     2394     5844    2          IF I < NCHARS THEN

   5844  1 001073   200025 236100                    LDQ     I,,AUTO
         1 001074   200022 116100                    CMPQ    NCHARS,,AUTO
         1 001075   001077 603000 1                  TRC     s:5847

     2395     5845    2             ALTRETURN;

   5845  1 001076   000000 702211                    TSX2  ! 0,X1

     2396     5846
     2397     5847    2          RETURN;

   5847  1 001077   000001 702211                    TSX2  ! 1,X1

PL6.E3A0      #009=FMD$CHKFIELD File=FMD$BUF.:E05TSI                             TUE 07/29/97 16:41 Page:432
     2398     5848    2          END PACKCHECK;
     2399     5849               %EJECT;
PL6.E3A0      #009=FMD$CHKFIELD File=FMD$BUF.:E05TSI                             TUE 07/29/97 16:41 Page:433
     2400     5850        /*I*     NAME:     SET_LEN
     2401     5851                 PURPOSE:  To get the length of a field
     2402     5852                 DESCRIPTION:
     2403     5853                 The length of the field is stored differently depending upon
     2404     5854                 whether the field is a scaled decimal field or not.  If the
     2405     5855                 field is packed decimal, the length will be in nibbles.
     2406     5856                 All other legal key fields must start and end on a byte
     2407     5857                 boundary, so their lengths will either already be in bytes
     2408     5858                 or can be calculated in bytes.
     2409     5859        */
     2410     5860    1   SET_LEN: PROC(FN);

   5860  1 001100   200036 741300       SET_LEN      STX1  ! TEMP_CHAR+2,,AUTO

     2411     5861    2          DCL FN UBIN;
     2412     5862        /* */
     2413     5863    3          DO CASE(RECFIELD.FIELD.TYPE(FN));

   5863  1 001101   200037 470500                    LDP0    @FN,,AUTO
         1 001102   000000 236100                    LDQ     0,,PR0
         1 001103   000003 402007                    MPY     3,DL
         1 001104   200006 471500                    LDP1    RECFIELD$,,AUTO
         1 001105   000100 101506                    MRL     fill='000'O
         1 001106   100001 020001                    ADSC6   1,Q,PR1                  cn=0,n=1
         1 001107   200042 020003                    ADSC6   @FN+3,,AUTO              cn=0,n=3
         1 001110   200042 220100                    LDX0    @FN+3,,AUTO
         1 001111   000072 100003                    CMPX0   58,DU
         1 001112   001114 602010 1                  TNC     s:5863+11,X0
         1 001113   001225 710000 1                  TRA     s:5875
         1 001114   001225 710000 1                  TRA     s:5875
         1 001115   001214 710000 1                  TRA     s:5872
         1 001116   001225 710000 1                  TRA     s:5875
         1 001117   001225 710000 1                  TRA     s:5875
         1 001120   001225 710000 1                  TRA     s:5875
         1 001121   001225 710000 1                  TRA     s:5875
         1 001122   001225 710000 1                  TRA     s:5875
         1 001123   001225 710000 1                  TRA     s:5875
PL6.E3A0      #009=FMD$CHKFIELD File=FMD$BUF.:E05TSI                             TUE 07/29/97 16:41 Page:434
         1 001124   001225 710000 1                  TRA     s:5875
         1 001125   001206 710000 1                  TRA     s:5869
         1 001126   001206 710000 1                  TRA     s:5869
         1 001127   001225 710000 1                  TRA     s:5875
         1 001130   001225 710000 1                  TRA     s:5875
         1 001131   001225 710000 1                  TRA     s:5875
         1 001132   001225 710000 1                  TRA     s:5875
         1 001133   001225 710000 1                  TRA     s:5875
         1 001134   001225 710000 1                  TRA     s:5875
         1 001135   001225 710000 1                  TRA     s:5875
         1 001136   001225 710000 1                  TRA     s:5875
         1 001137   001225 710000 1                  TRA     s:5875
         1 001140   001225 710000 1                  TRA     s:5875
         1 001141   001225 710000 1                  TRA     s:5875
         1 001142   001225 710000 1                  TRA     s:5875
         1 001143   001225 710000 1                  TRA     s:5875
         1 001144   001214 710000 1                  TRA     s:5872
         1 001145   001206 710000 1                  TRA     s:5869
         1 001146   001225 710000 1                  TRA     s:5875
         1 001147   001225 710000 1                  TRA     s:5875
         1 001150   001225 710000 1                  TRA     s:5875
         1 001151   001225 710000 1                  TRA     s:5875
         1 001152   001225 710000 1                  TRA     s:5875
         1 001153   001206 710000 1                  TRA     s:5869
         1 001154   001225 710000 1                  TRA     s:5875
         1 001155   001225 710000 1                  TRA     s:5875
         1 001156   001225 710000 1                  TRA     s:5875
         1 001157   001225 710000 1                  TRA     s:5875
         1 001160   001225 710000 1                  TRA     s:5875
         1 001161   001225 710000 1                  TRA     s:5875
         1 001162   001225 710000 1                  TRA     s:5875
         1 001163   001225 710000 1                  TRA     s:5875
         1 001164   001206 710000 1                  TRA     s:5869
         1 001165   001206 710000 1                  TRA     s:5869
         1 001166   001206 710000 1                  TRA     s:5869
         1 001167   001206 710000 1                  TRA     s:5869
         1 001170   001206 710000 1                  TRA     s:5869
PL6.E3A0      #009=FMD$CHKFIELD File=FMD$BUF.:E05TSI                             TUE 07/29/97 16:41 Page:435
         1 001171   001206 710000 1                  TRA     s:5869
         1 001172   001225 710000 1                  TRA     s:5875
         1 001173   001225 710000 1                  TRA     s:5875
         1 001174   001225 710000 1                  TRA     s:5875
         1 001175   001225 710000 1                  TRA     s:5875
         1 001176   001206 710000 1                  TRA     s:5869
         1 001177   001206 710000 1                  TRA     s:5869
         1 001200   001225 710000 1                  TRA     s:5875
         1 001201   001225 710000 1                  TRA     s:5875
         1 001202   001206 710000 1                  TRA     s:5869
         1 001203   001214 710000 1                  TRA     s:5872
         1 001204   001225 710000 1                  TRA     s:5875
         1 001205   001206 710000 1                  TRA     s:5869

     2414     5864    3             CASE(%UDLS_DATATYPE, %UDTS_DATATYPE, %UDNS_DATATYPE,

     2415     5865    3                  %UDLO_DATATYPE, %UDTO_DATATYPE, %PDLA_DATATYPE,
     2416     5866    3                  %PDLE_DATATYPE, %PDTA_DATATYPE, %PDTE_DATATYPE,
     2417     5867    3                  %PDNS_DATATYPE, %PDFLT_DATATYPE, %UDFLT_DATATYPE,
     2418     5868    3                  %DATE_DATATYPE, %TIME_DATATYPE);
     2419     5869    3                LEN=RECFIELD.DECFIELD.LEN(FN);

   5869  1 001206   000000 236100                    LDQ     0,,PR0
         1 001207   000003 402007                    MPY     3,DL
         1 001210   000100 101506                    MRL     fill='000'O
         1 001211   100001 120001                    ADSC6   1,Q,PR1                  cn=1,n=1
         1 001212   200021 020006                    ADSC6   LEN,,AUTO                cn=0,n=6
         1 001213   001232 710000 1                  TRA     s:5879

     2420     5870
     2421     5871    3             CASE(%SBIN_DATATYPE, %UBIN_DATATYPE, %UTS_DATATYPE);

     2422     5872    3                LEN=RECFIELD.FIELD.LEN(FN)/9;

   5872  1 001214   000000 236100                    LDQ     0,,PR0
         1 001215   000003 402007                    MPY     3,DL
         1 001216   000100 101506                    MRL     fill='000'O
PL6.E3A0      #009=FMD$CHKFIELD File=FMD$BUF.:E05TSI                             TUE 07/29/97 16:41 Page:436
         1 001217   100001 120002                    ADSC6   1,Q,PR1                  cn=1,n=2
         1 001220   200042 020006                    ADSC6   @FN+3,,AUTO              cn=0,n=6
         1 001221   200042 236100                    LDQ     @FN+3,,AUTO
         1 001222   000011 506007                    DIV     9,DL
         1 001223   200021 756100                    STQ     LEN,,AUTO
         1 001224   001232 710000 1                  TRA     s:5879

     2423     5873
     2424     5874    3             CASE(ELSE);

     2425     5875    3                LEN=RECFIELD.FIELD.LEN(FN);

   5875  1 001225   000000 236100                    LDQ     0,,PR0
         1 001226   000003 402007                    MPY     3,DL
         1 001227   000100 101506                    MRL     fill='000'O
         1 001230   100001 120002                    ADSC6   1,Q,PR1                  cn=1,n=2
         1 001231   200021 020006                    ADSC6   LEN,,AUTO                cn=0,n=6

     2426     5876
     2427     5877    3          END;  /* CASE */

     2428     5878
     2429     5879    2          RETURN;

   5879  1 001232   000001 702211                    TSX2  ! 1,X1

     2430     5880    2          END SET_LEN;
     2431     5881               %EJECT;
PL6.E3A0      #009=FMD$CHKFIELD File=FMD$BUF.:E05TSI                             TUE 07/29/97 16:41 Page:437
     2432     5882        /*I*     NAME:     SET_START
     2433     5883                 PURPOSE:  To calculate the offset to the start of a field in
     2434     5884                           a record buffer.
     2435     5885                 DESCRIPTION:
     2436     5886                 If the field is packed decimal, calculate the start in
     2437     5887                 nibbles, so we can add it to the nibble length from RECFIELD.
     2438     5888                 All other legal key fields must be byte aligned (and end on
     2439     5889                 a byte boundary), so calculate the start in bytes.
     2440     5890        */
     2441     5891    1   SET_START: PROC(FN);

   5891  1 001233   200036 741300       SET_START    STX1  ! TEMP_CHAR+2,,AUTO

     2442     5892    2          DCL FN UBIN;
     2443     5893        /* */
     2444     5894    3          DO CASE(RECFIELD.FIELD.TYPE(FN));

   5894  1 001234   200037 470500                    LDP0    @FN,,AUTO
         1 001235   000000 236100                    LDQ     0,,PR0
         1 001236   000003 402007                    MPY     3,DL
         1 001237   200006 471500                    LDP1    RECFIELD$,,AUTO
         1 001240   000100 101506                    MRL     fill='000'O
         1 001241   100001 020001                    ADSC6   1,Q,PR1                  cn=0,n=1
         1 001242   200042 020006                    ADSC6   @FN+3,,AUTO              cn=0,n=6
         1 001243   200042 236100                    LDQ     @FN+3,,AUTO
         1 001244   000011 136007                    SBLQ    9,DL
         1 001245   000061 116007                    CMPQ    49,DL
         1 001246   001250 602006 1                  TNC     s:5894+12,QL
         1 001247   001355 710000 1                  TRA     s:5904
         1 001250   001331 710000 1                  TRA     s:5898
         1 001251   001331 710000 1                  TRA     s:5898
         1 001252   001355 710000 1                  TRA     s:5904
         1 001253   001355 710000 1                  TRA     s:5904
         1 001254   001355 710000 1                  TRA     s:5904
         1 001255   001355 710000 1                  TRA     s:5904
         1 001256   001355 710000 1                  TRA     s:5904
         1 001257   001355 710000 1                  TRA     s:5904
PL6.E3A0      #009=FMD$CHKFIELD File=FMD$BUF.:E05TSI                             TUE 07/29/97 16:41 Page:438
         1 001260   001355 710000 1                  TRA     s:5904
         1 001261   001355 710000 1                  TRA     s:5904
         1 001262   001355 710000 1                  TRA     s:5904
         1 001263   001355 710000 1                  TRA     s:5904
         1 001264   001355 710000 1                  TRA     s:5904
         1 001265   001355 710000 1                  TRA     s:5904
         1 001266   001355 710000 1                  TRA     s:5904
         1 001267   001355 710000 1                  TRA     s:5904
         1 001270   001331 710000 1                  TRA     s:5898
         1 001271   001355 710000 1                  TRA     s:5904
         1 001272   001355 710000 1                  TRA     s:5904
         1 001273   001355 710000 1                  TRA     s:5904
         1 001274   001355 710000 1                  TRA     s:5904
         1 001275   001355 710000 1                  TRA     s:5904
         1 001276   001331 710000 1                  TRA     s:5898
         1 001277   001355 710000 1                  TRA     s:5904
         1 001300   001355 710000 1                  TRA     s:5904
         1 001301   001355 710000 1                  TRA     s:5904
         1 001302   001355 710000 1                  TRA     s:5904
         1 001303   001355 710000 1                  TRA     s:5904
         1 001304   001355 710000 1                  TRA     s:5904
         1 001305   001355 710000 1                  TRA     s:5904
         1 001306   001355 710000 1                  TRA     s:5904
         1 001307   001331 710000 1                  TRA     s:5898
         1 001310   001355 710000 1                  TRA     s:5904
         1 001311   001355 710000 1                  TRA     s:5904
         1 001312   001355 710000 1                  TRA     s:5904
         1 001313   001355 710000 1                  TRA     s:5904
         1 001314   001355 710000 1                  TRA     s:5904
         1 001315   001355 710000 1                  TRA     s:5904
         1 001316   001355 710000 1                  TRA     s:5904
         1 001317   001355 710000 1                  TRA     s:5904
         1 001320   001355 710000 1                  TRA     s:5904
         1 001321   001355 710000 1                  TRA     s:5904
         1 001322   001331 710000 1                  TRA     s:5898
         1 001323   001355 710000 1                  TRA     s:5904
         1 001324   001355 710000 1                  TRA     s:5904
PL6.E3A0      #009=FMD$CHKFIELD File=FMD$BUF.:E05TSI                             TUE 07/29/97 16:41 Page:439
         1 001325   001331 710000 1                  TRA     s:5898
         1 001326   001355 710000 1                  TRA     s:5904
         1 001327   001355 710000 1                  TRA     s:5904
         1 001330   001331 710000 1                  TRA     s:5898

     2445     5895    3             CASE(%PDLA_DATATYPE, %PDTA_DATATYPE, %PDLE_DATATYPE,

     2446     5896    3                  %PDTE_DATATYPE, %PDNS_DATATYPE, %PDFLT_DATATYPE,
     2447     5897    3                  %DATE_DATATYPE, %TIME_DATATYPE);
     2448     5898    3                IF MOD(FIELD_START.OFFSET(FN),9)=0 THEN

   5898  1 001331   000000 720100                    LXL0    0,,PR0
         1 001332   200007 473500                    LDP3    START$,,AUTO
         1 001333   300001 236110                    LDQ     1,X0,PR3
         1 001334   000011 506007                    DIV     9,DL
         1 001335   000044 733000                    LRS     36
         1 001336   000000 116003                    CMPQ    0,DU
         1 001337   001345 601000 1                  TNZ     s:5900

     2449     5899    3                   START=(FIELD_START.OFFSET(FN)/9)*2;

   5899  1 001340   300001 236110                    LDQ     1,X0,PR3
         1 001341   000011 506007                    DIV     9,DL
         1 001342   000001 736000                    QLS     1
         1 001343   200017 756100                    STQ     START,,AUTO
         1 001344   001352 710000 1                  TRA     s:5901

     2450     5900    3                ELSE START=(FIELD_START.OFFSET(FN)/9)*2 + 1;

   5900  1 001345   300001 236110                    LDQ     1,X0,PR3
         1 001346   000011 506007                    DIV     9,DL
         1 001347   000001 736000                    QLS     1
         1 001350   000001 036007                    ADLQ    1,DL
         1 001351   200017 756100                    STQ     START,,AUTO

     2451     5901    3                PACKED_FIELD=%YES#;

PL6.E3A0      #009=FMD$CHKFIELD File=FMD$BUF.:E05TSI                             TUE 07/29/97 16:41 Page:440
   5901  1 001352   400000 236003                    LDQ     -131072,DU
         1 001353   200031 756100                    STQ     PACKED_FIELD,,AUTO
         1 001354   001362 710000 1                  TRA     s:5908

     2452     5902
     2453     5903    3             CASE(ELSE);

     2454     5904    3                START=FIELD_START.OFFSET(FN)/9;

   5904  1 001355   000000 720100                    LXL0    0,,PR0
         1 001356   200007 473500                    LDP3    START$,,AUTO
         1 001357   300001 236110                    LDQ     1,X0,PR3
         1 001360   000011 506007                    DIV     9,DL
         1 001361   200017 756100                    STQ     START,,AUTO

     2455     5905
     2456     5906    3          END;

     2457     5907
     2458     5908    2          RETURN;

   5908  1 001362   000001 702211                    TSX2  ! 1,X1

     2459     5909    2          END SET_START;
     2460     5910               %EJECT;
PL6.E3A0      #009=FMD$CHKFIELD File=FMD$BUF.:E05TSI                             TUE 07/29/97 16:41 Page:441
     2461     5911        /*I*     NAME:     UNPACKCHECK
     2462     5912                 PURPOSE:  To check unpacked decimal fields
     2463     5913                 DESCRIPTION:
     2464     5914                      First check the sign.  It can either be at the beginning
     2465     5915                 or end of the number depending on the datatype.
     2466     5916
     2467     5917                      Overpunched sign is fun.  A sign and digit is contained in
     2468     5918                 a single byte.  The '{' and '}' are plus and minus 0.  'A' through
     2469     5919                 'I' are plus 1 to 9, and 'J' to 'R' are minus 1 to 9.
     2470     5920
     2471     5921                      Next, the number is check.  This is done by searching the
     2472     5922                 string against a table of all possible decimal values.  In this
     2473     5923                 case, this means the string can only contain the characters
     2474     5924                 '0' through '9'.
     2475     5925        */
     2476     5926                 %EJECT;
PL6.E3A0      #009=FMD$CHKFIELD File=FMD$BUF.:E05TSI                             TUE 07/29/97 16:41 Page:442
     2477     5927    1   UNPACKCHECK: PROC ALTRET;

   5927  1 001363   200040 741300       UNPACKCHECK  STX1  ! @FN+1,,AUTO

     2478     5928        /* */
     2479     5929    2          FIELD$=PINCRC(F$, START);

   5929  1 001364   200003 470500                    LDP0    @F$,,AUTO
         1 001365   000000 471500                    LDP1    0,,PR0
         1 001366   200017 236100                    LDQ     START,,AUTO
         1 001367   000011 402007                    MPY     9,DL
         1 001370   100000 503506                    ABD     0,QL,PR1
         1 001371   200027 451500                    STP1    FIELD$,,AUTO

     2480     5930    2          NCHARS=LEN;

   5930  1 001372   200021 235100                    LDA     LEN,,AUTO
         1 001373   200022 755100                    STA     NCHARS,,AUTO

     2481     5931
     2482     5932    3          DO CASE(RECFIELD.FIELD.TYPE(F));

   5932  1 001374   200015 236100                    LDQ     F,,AUTO
         1 001375   000003 402007                    MPY     3,DL
         1 001376   200006 473500                    LDP3    RECFIELD$,,AUTO
         1 001377   000100 101506                    MRL     fill='000'O
         1 001400   300001 020001                    ADSC6   1,Q,PR3                  cn=0,n=1
         1 001401   200042 020006                    ADSC6   @FN+3,,AUTO              cn=0,n=6
         1 001402   200042 236100                    LDQ     @FN+3,,AUTO
         1 001403   000052 136007                    SBLQ    42,DL
         1 001404   000011 116007                    CMPQ    9,DL
         1 001405   001407 602006 1                  TNC     s:5932+11,QL
         1 001406   001531 710000 1                  TRA     s:5959
         1 001407   001420 710000 1                  TRA     s:5934
         1 001410   001440 710000 1                  TRA     s:5940
         1 001411   001455 710000 1                  TRA     s:5945
         1 001412   001505 710000 1                  TRA     s:5952
PL6.E3A0      #009=FMD$CHKFIELD File=FMD$BUF.:E05TSI                             TUE 07/29/97 16:41 Page:443
         1 001413   001531 710000 1                  TRA     s:5959
         1 001414   001531 710000 1                  TRA     s:5959
         1 001415   001531 710000 1                  TRA     s:5959
         1 001416   001531 710000 1                  TRA     s:5959
         1 001417   001420 710000 1                  TRA     s:5934

     2483     5933    3             CASE(%UDLS_DATATYPE, %UDFLT_DATATYPE);

     2484     5934    3                IF REC(0) ~= '+' AND REC(0) ~= '-' THEN

   5934  1 001420   040000 106500                    CMPC    fill='040'O
         1 001421   100000 000001                    ADSC9   0,,PR1                   cn=0,n=1
         1 001422   000000 000001 2                  ADSC9   0                        cn=0,n=1
         1 001423   001431 600000 1                  TZE     s:5936
         1 001424   040000 106500                    CMPC    fill='040'O
         1 001425   100000 000001                    ADSC9   0,,PR1                   cn=0,n=1
         1 001426   000001 000001 2                  ADSC9   1                        cn=0,n=1
         1 001427   001431 600000 1                  TZE     s:5936

     2485     5935    3                   ALTRETURN;

   5935  1 001430   000000 702211                    TSX2  ! 0,X1

     2486     5936    3                FIELD$=PINCRC(FIELD$, 1);

   5936  1 001431   200027 236100                    LDQ     FIELD$,,AUTO
         1 001432   200000 036007                    ADLQ    65536,DL
         1 001433   200027 756100                    STQ     FIELD$,,AUTO

     2487     5937    3                NCHARS=NCHARS-1;

   5937  1 001434   200022 235100                    LDA     NCHARS,,AUTO
         1 001435   000001 135007                    SBLA    1,DL
         1 001436   200022 755100                    STA     NCHARS,,AUTO
         1 001437   001531 710000 1                  TRA     s:5959

     2488     5938
PL6.E3A0      #009=FMD$CHKFIELD File=FMD$BUF.:E05TSI                             TUE 07/29/97 16:41 Page:444
     2489     5939    3             CASE(%UDTS_DATATYPE);

     2490     5940    3                IF REC(NCHARS-1) ~= '+' AND REC(NCHARS-1) ~= '-' THEN

   5940  1 001440   200022 235100                    LDA     NCHARS,,AUTO
         1 001441   040000 106505                    CMPC    fill='040'O
         1 001442   177777 600001                    ADSC9   -1,A,PR1                 cn=3,n=1
         1 001443   000000 000001 2                  ADSC9   0                        cn=0,n=1
         1 001444   001452 600000 1                  TZE     s:5942
         1 001445   040000 106505                    CMPC    fill='040'O
         1 001446   177777 600001                    ADSC9   -1,A,PR1                 cn=3,n=1
         1 001447   000001 000001 2                  ADSC9   1                        cn=0,n=1
         1 001450   001452 600000 1                  TZE     s:5942

     2491     5941    3                   ALTRETURN;

   5941  1 001451   000000 702211                    TSX2  ! 0,X1

     2492     5942    3                NCHARS=NCHARS-1;

   5942  1 001452   000001 135007                    SBLA    1,DL
         1 001453   200022 755100                    STA     NCHARS,,AUTO
         1 001454   001531 710000 1                  TRA     s:5959

     2493     5943
     2494     5944    3             CASE(%UDLO_DATATYPE);

     2495     5945    3                IF REC(0) ~= '{' AND REC(0) ~= '}' AND

   5945  1 001455   040000 106500                    CMPC    fill='040'O
         1 001456   100000 000001                    ADSC9   0,,PR1                   cn=0,n=1
         1 001457   000002 000001 2                  ADSC9   2                        cn=0,n=1
         1 001460   001476 600000 1                  TZE     s:5948
         1 001461   040000 106500                    CMPC    fill='040'O
         1 001462   100000 000001                    ADSC9   0,,PR1                   cn=0,n=1
         1 001463   000003 000001 2                  ADSC9   3                        cn=0,n=1
         1 001464   001476 600000 1                  TZE     s:5948
PL6.E3A0      #009=FMD$CHKFIELD File=FMD$BUF.:E05TSI                             TUE 07/29/97 16:41 Page:445
         1 001465   040000 106500                    CMPC    fill='040'O
         1 001466   100000 000001                    ADSC9   0,,PR1                   cn=0,n=1
         1 001467   000004 000001 2                  ADSC9   4                        cn=0,n=1
         1 001470   001475 602000 1                  TNC     s:5947
         1 001471   040100 106400                    CMPC    fill='040'O
         1 001472   000005 000001 2                  ADSC9   5                        cn=0,n=1
         1 001473   100000 000001                    ADSC9   0,,PR1                   cn=0,n=1
         1 001474   001476 603000 1                  TRC     s:5948

     2496     5946    3                   (REC(0) < 'A' OR REC(0) > 'R') THEN
     2497     5947    3                   ALTRETURN;

   5947  1 001475   000000 702211                    TSX2  ! 0,X1

     2498     5948    3                FIELD$=PINCRC(FIELD$, 1);

   5948  1 001476   200027 236100                    LDQ     FIELD$,,AUTO
         1 001477   200000 036007                    ADLQ    65536,DL
         1 001500   200027 756100                    STQ     FIELD$,,AUTO

     2499     5949    3                NCHARS=NCHARS-1;

   5949  1 001501   200022 235100                    LDA     NCHARS,,AUTO
         1 001502   000001 135007                    SBLA    1,DL
         1 001503   200022 755100                    STA     NCHARS,,AUTO
         1 001504   001531 710000 1                  TRA     s:5959

     2500     5950
     2501     5951    3             CASE(%UDTO_DATATYPE);

     2502     5952    3                IF REC(NCHARS-1) ~= '{' AND REC(NCHARS-1) ~= '}' AND

   5952  1 001505   200022 235100                    LDA     NCHARS,,AUTO
         1 001506   040000 106505                    CMPC    fill='040'O
         1 001507   177777 600001                    ADSC9   -1,A,PR1                 cn=3,n=1
         1 001510   000002 000001 2                  ADSC9   2                        cn=0,n=1
         1 001511   001527 600000 1                  TZE     s:5955
PL6.E3A0      #009=FMD$CHKFIELD File=FMD$BUF.:E05TSI                             TUE 07/29/97 16:41 Page:446
         1 001512   040000 106505                    CMPC    fill='040'O
         1 001513   177777 600001                    ADSC9   -1,A,PR1                 cn=3,n=1
         1 001514   000003 000001 2                  ADSC9   3                        cn=0,n=1
         1 001515   001527 600000 1                  TZE     s:5955
         1 001516   040000 106505                    CMPC    fill='040'O
         1 001517   177777 600001                    ADSC9   -1,A,PR1                 cn=3,n=1
         1 001520   000004 000001 2                  ADSC9   4                        cn=0,n=1
         1 001521   001526 602000 1                  TNC     s:5954
         1 001522   040105 106400                    CMPC    fill='040'O
         1 001523   000005 000001 2                  ADSC9   5                        cn=0,n=1
         1 001524   177777 600001                    ADSC9   -1,A,PR1                 cn=3,n=1
         1 001525   001527 603000 1                  TRC     s:5955

     2503     5953    3                   (REC(NCHARS-1) < 'A' OR REC(NCHARS-1) > 'R') THEN
     2504     5954    3                   ALTRETURN;

   5954  1 001526   000000 702211                    TSX2  ! 0,X1

     2505     5955    3                NCHARS=NCHARS-1;

   5955  1 001527   000001 135007                    SBLA    1,DL
         1 001530   200022 755100                    STA     NCHARS,,AUTO

     2506     5956
     2507     5957    3          END;  /* CASE                               */

     2508     5958
     2509     5959    2          CALL SEARCH(I, DUMMY, DTABLE, FIELD);

   5959  1 001531   000000 471400 xsym               LDP1    B$SR_NON_DEC$
         1 001532   200027 474500                    LDP4    FIELD$,,AUTO
         1 001533   200022 720100                    LXL0    NCHARS,,AUTO
         1 001534   000000 164540                    TCT
         1 001535   400000 000010                    ADSC9   0,,PR4                   cn=0,n=*X0
         1 001536   100000 000100                    ARG     0,,PR1
         1 001537   200025 000100                    ARG     I,,AUTO
         1 001540   200025 235100                    LDA     I,,AUTO
PL6.E3A0      #009=FMD$CHKFIELD File=FMD$BUF.:E05TSI                             TUE 07/29/97 16:41 Page:447
         1 001541   000033 771000                    ARL     27
         1 001542   200026 755100                    STA     DUMMY,,AUTO
         1 001543   200025 551140                    STBA    I,'40'O,AUTO

     2510     5960
     2511     5961    2          IF I < NCHARS THEN

   5961  1 001544   200025 236100                    LDQ     I,,AUTO
         1 001545   200022 116100                    CMPQ    NCHARS,,AUTO
         1 001546   001550 603000 1                  TRC     s:5964

     2512     5962    2             ALTRETURN;

   5962  1 001547   000000 702211                    TSX2  ! 0,X1

     2513     5963
     2514     5964    2          RETURN;

   5964  1 001550   000001 702211                    TSX2  ! 1,X1

ERRBADRFIELD
 Sect OctLoc
   0     000   061504 002122                                                    1..R

ERRBADIRKEY
 Sect OctLoc
   0     001   061504 002132                                                    1..Z

ERRINDBC
 Sect OctLoc
   0     002   061504 001102                                                    1..B

PTABLE
 Sect OctLoc
   0     003   000000 000000   000000 000000   000000 001001   001001 001001    ................
   0     053*  001001 001001   001001 001001   001001 001001   001001 001001    ................
   0     177*  001001 001001   001001 001001   001001 001001   001001 001001    ................
PL6.E3A0      #009=FMD$CHKFIELD File=FMD$BUF.:E05TSI                             TUE 07/29/97 16:41 Page:448

(unnamed)
 Sect OctLoc
   2     000   053040 040040   055040 040040   173040 040040   175040 040040    +   -   {   }
   2     004   101040 040040   122040 040040                                    A   R
     2515     5965    2          END UNPACKCHECK;
     2516     5966    1          END FMD$CHKFIELD;

PL6.E3A0      #009=FMD$CHKFIELD File=FMD$BUF.:E05TSI                             TUE 07/29/97 16:41 Page:449
--  Include file information  --

   B$TABLES_C.:E05TOU  cannot be made into a system file and is referenced.
   B$OBJECT_C.:E05TOU  is referenced.
   FM_FIELD_C.:E05TOU  is referenced.
   F_ERRORS_C.:E05TOU  is referenced.
   F_MACROS_C.:E05TOU  is referenced.
   CP_6_SUBS.:E05TOU  is referenced.
   F$CP6V_C.:E05TOU  is referenced.
   F$DCB.:E05TOU  is referenced.
   B$JIT_C.:E05TOU  is referenced.
   B$JIT.:E05TOU  cannot be made into a system file and is referenced.
      No diagnostics issued in procedure FMD$CHKFIELD.
PL6.E3A0      #009=FMD$CHKFIELD File=FMD$BUF.:E05TSI                             TUE 07/29/97 16:41 Page:450

 **** Variables and constants ****

  ****  Section 000 RoData FMD$CHKFIELD

  ****  Scalars and arrays  ****
OctLoc.c.b A Datatyp(siz) R M Lvl/name                 OctLoc.c.b A Datatyp(siz) R M Lvl/name

     1-0-0/b STRC        r     1 ERRBADIRKEY                0-0-0/b STRC        r     1 ERRBADRFIELD
     2-0-0/b STRC        r     1 ERRINDBC                   3-0-0/c UBIN(9)     r     1 PTABLE(0:511)

  ****  Auto variables  ****

  ****  Scalars and arrays  ****
OctLoc.c.b A Datatyp(siz) R M Lvl/name                 OctLoc.c.b A Datatyp(siz) R M Lvl/name

     3-0-0/w PTR         r     1 @F$                       37-0-0/w PTR         r     1 @FN
    37-0-0/w PTR         r     1 @FN                        4-0-0/w PTR         r     1 @FTYP
    10-0-0/w PTR         r     1 ALTKEY$                   23-0-0/w UBIN        r     1 BOUNDRY
    30-0-0/c UBIN(9)     r     1 BTEMP                     30-0-0/b STRC(9)     r     1 BYT
    26-0-0/w UBIN        r     1 DUMMY                     15-0-0/w UBIN        r     1 F
    *0-0-0/w PTR         r     1 F$                        27-0-0/w PTR         r     1 FIELD$
    16-0-0/w UBIN        r     1 FIRST                     14-0-0/w UBIN        r     1 FN
    *0-0-0/w UBIN        r     1 FN                        *0-0-0/w UBIN        r     1 FN
    *0-0-0/w UBIN        r     1 FTYP                      25-0-0/w UBIN        r     1 I
     5-0-0/w PTR         r     1 JDCB$                     12-0-0/w UBIN        r     1 KEYSIZE
    11-0-0/w PTR         r     1 KFIELD$                   21-0-0/w UBIN        r     1 LEN
    13-0-0/w UBIN        r     1 N                         22-0-0/w UBIN        r     1 NCHARS
    24-0-0/w UBIN        r     1 NDIG                      20-0-0/w UBIN        r     1 NEW_START
    31-0-0/b BIT         r     1 PACKED_FIELD               6-0-0/w PTR         r     1 RECFIELD$
    17-0-0/w UBIN        r     1 START                      7-0-0/w PTR         r     1 START$
    34-0-0/c CHAR        r     1 TEMP_CHAR                 32-0-0/w UBIN        r     1 TEMP_START
    33-0-0/w UBIN        r     1 TEMP_SUM

  ****  SYMREF variables  ****

  ****  Scalars and arrays  ****
OctLoc.c.b A Datatyp(siz) R M Lvl/name                 OctLoc.c.b A Datatyp(siz) R M Lvl/name
PL6.E3A0      #009=FMD$CHKFIELD File=FMD$BUF.:E05TSI                             TUE 07/29/97 16:41 Page:451

     0-0-0/w PTR         r     1 B$JIT$                     0-0-0/w PTR         r     1 B$ROSEG$
     0-0-0/w PTR         r     1 B$SR_NON_DEC$

  ****  BASED and DCB variables  ****

  ****  Scalars and arrays  ****
OctLoc.c.b A Datatyp(siz) R M Lvl/name                 OctLoc.c.b A Datatyp(siz) R M Lvl/name

     0-0-0/d STRC(8856)  r     1 B$JIT                      0-0-0/d STRC(4608)  r     1 DTABLE
     0-0-0/d ASTR(3528)  r     1 F$DCB                      0-0-0/c ACHR        r     1 FIELD
     0-0-0/w STRC(72)    r     1 FIELD_START                0-0-0/w STRC(360)   r     1 IRKEYS
     0-0-0/w STRC(81)    r     1 KFIELD                     0-0-0/c CHAR        r     1 REC(0:0)
     0-0-0/d STRC(54)    r     1 RECFIELD


   Procedure FMD$CHKFIELD requires 873 words for executable code.
   Procedure FMD$CHKFIELD requires 36 words of local(AUTO) storage.

    No errors detected in file FMD$BUF.:E05TSI    .
PL6.E3A0      #009=FMD$CHKFIELD File=FMD$BUF.:E05TSI                             TUE 07/29/97 16:41 Page:452
          *** CROSS REFERENCE LISTING ***
**     DENOTES     IDENTIFIER DEFINITION
<<                 IDENTIFIER'S VALUE SET
>>                 IDENTIFIER'S VALUE USED
<>                 IDENTIFIER SET AND/OR USED
--                 IDENTIFIER REFERENCED
PL6.E3A0      #009=FMD$CHKFIELD File=FMD$BUF.:E05TSI                             TUE 07/29/97 16:41 Page:453
          MINI XREF LISTING

ALTKEY$
      5528**DCL      5292--IMP-PTR  5564<<ASSIGN   5566>>ASSIGN   5567>>ASSIGN
B$JIT.CPFLAGS1.SLEAZE
       460**DCL       460--REDEF
B$JIT.DCB$
       534**DCL      5557>>ASSIGN
B$JIT.ERR
       366**DCL      5624<<ASSIGN   5628<<ASSIGN   5647<<ASSIGN
B$JIT.ERR.MID
       367**DCL       367--REDEF
B$JIT.JRESPEAK
       528**DCL       529--REDEF
B$JIT.ORIGINATOR_PORT.FROM_CR
       637**DCL       637--REDEF     638--REDEF
B$JIT.PNR
       541**DCL       541--REDEF
B$JIT.TSLINE
       635**DCL       636--REDEF
B$JIT$
      5392**DCL       361--IMP-PTR  5557>>ASSIGN   5624>>ASSIGN   5628>>ASSIGN   5647>>ASSIGN
B$ROSEG$
      5393**DCL      5558>>ASSIGN   5559>>ASSIGN   5560>>ASSIGN   5564>>ASSIGN
B$SR_NON_DEC$
      5506**DCL      5507--IMP-PTR  5959>>CALLBLT
BOUNDRY
      5539**DCL      5770<<ASSIGN   5772<<ASSIGN   5784>>IF       5801>>IF
BTEMP
      5548**DCL      5733<<ASSIGN   5783<<ASSIGN   5800<<ASSIGN   5821<<ASSIGN   5832<<ASSIGN
BYT
      5544**DCL      5548--REDEF
BYT.HBIT
      5545**DCL      5734>>IF       5835>>IF
PL6.E3A0      #009=FMD$CHKFIELD File=FMD$BUF.:E05TSI                             TUE 07/29/97 16:41 Page:454
BYT.LOWER
      5547**DCL      5791>>IF       5803>>IF       5822>>IF
BYT.UPPER
      5546**DCL      5786>>IF       5808>>IF       5833>>IF
CALC_START
      5668**PROC     5603--CALL
CHECK_TYPE
      5701**PROC     5596--CALL     5617--CALL
DTABLE
      5507**DCL      5959>>CALLBLT
DUMMY
      5542**DCL      5842<<CALLBLT  5959<<CALLBLT
ERR
      5623**LABEL    5596--CALLALT  5607--GOTO     5617--CALLALT
ERR IN PROCEDURE CHECK_TYPE
      5744**LABEL    5707--CALLALT  5711--CALLALT  5719--CALLALT  5739--CALLALT
ERRBADIRKEY
      5384**DCL      5624>>ASSIGN
ERRBADRFIELD
      5380**DCL      5628>>ASSIGN
ERRINDBC
      5388**DCL      5647>>ASSIGN
F
      5533**DCL      5579<<ASSIGN   5580<>CALL     5581<>CALL     5601<<ASSIGN   5602<>CALL     5629>>ASSIGN
      5648>>ASSIGN   5670>>DOCASE   5703>>DOCASE   5779>>DOCASE   5932>>DOCASE
F$
        36**DCL        35--PROC     5565<>CALL     5714>>ASSIGN   5722>>ASSIGN   5767>>ASSIGN   5816>>ASSIGN
      5929>>ASSIGN
F$DCB.ACTPOS
      5208**DCL      5208--REDEF
F$DCB.ALTKEYX
      5206**DCL      5564>>ASSIGN
F$DCB.ARS
      5183**DCL      5183--REDEF    5625<<ASSIGN   5629<<ASSIGN   5648<<ASSIGN
F$DCB.ATTR
      5201**DCL      5202--REDEF
PL6.E3A0      #009=FMD$CHKFIELD File=FMD$BUF.:E05TSI                             TUE 07/29/97 16:41 Page:455
F$DCB.BORROW
      5216**DCL      5216--REDEF    5216--REDEF    5216--REDEF
F$DCB.DCBNAME.L
      5230**DCL      5230--IMP-SIZ
F$DCB.EOMCHAR
      5187**DCL      5187--REDEF
F$DCB.FIELDX
      5207**DCL      5558>>ASSIGN
F$DCB.FLDID
      5211**DCL      5211--REDEF
F$DCB.FORM$
      5205**DCL      5205--REDEF
F$DCB.FSECT
      5221**DCL      5221--REDEF
F$DCB.FSN
      5198**DCL      5198--REDEF    5198--REDEF    5199--REDEF
F$DCB.HEADER$
      5204**DCL      5204--REDEF
F$DCB.INDX
      5221**DCL      5566>>ASSIGN   5567>>ASSIGN
F$DCB.IXTNSIZE
      5202**DCL      5202--REDEF
F$DCB.KFIELDX
      5208**DCL      5560>>ASSIGN
F$DCB.LASTSTA$
      5192**DCL      5192--REDEF
F$DCB.LVL
      5217**DCL      5217--REDEF
F$DCB.NAME.C
      5192**DCL      5192--REDEF
F$DCB.NOEOF
      5213**DCL      5213--REDEF
F$DCB.NRECS
      5203**DCL      5203--REDEF
F$DCB.NRECX
      5222**DCL      5222--REDEF
PL6.E3A0      #009=FMD$CHKFIELD File=FMD$BUF.:E05TSI                             TUE 07/29/97 16:41 Page:456
F$DCB.OHDR
      5214**DCL      5214--REDEF
F$DCB.ORG
      5197**DCL      5197--REDEF
F$DCB.PRECNO
      5220**DCL      5220--REDEF
F$DCB.RCSZ
      5225**DCL      5225--REDEF
F$DCB.RES
      5193**DCL      5193--REDEF
F$DCB.SETX
      5205**DCL      5205--REDEF
F$DCB.STARTX
      5208**DCL      5559>>ASSIGN
F$DCB.TAB$
      5204**DCL      5205--REDEF
F$DCB.TDA
      5219**DCL      5219--REDEF
F$DCB.UBYTES
      5221**DCL      5593>>IF
F$DCB.WSN
      5194**DCL      5194--REDEF
FIELD
      5523**DCL      5842>>CALLBLT  5959>>CALLBLT
FIELD$
      5543**DCL      5522--IMP-PTR  5523--IMP-PTR  5714<<ASSIGN   5715>>ASSIGN   5722<<ASSIGN   5726>>ASSIGN
      5732>>ASSIGN   5767<<ASSIGN   5782>>ASSIGN   5799>>ASSIGN   5816<<ASSIGN   5820>>ASSIGN   5825<<ASSIGN
      5825>>ASSIGN   5831>>ASSIGN   5842>>CALLBLT  5929<<ASSIGN   5934>>IF       5934>>IF       5936<<ASSIGN
      5936>>ASSIGN   5940>>IF       5940>>IF       5945>>IF       5945>>IF       5945>>IF       5945>>IF
      5948<<ASSIGN   5948>>ASSIGN   5952>>IF       5952>>IF       5952>>IF       5952>>IF       5959>>CALLBLT
FIELD_START.OFFSET
      5285**DCL      5898>>IF       5899>>ASSIGN   5900>>ASSIGN   5904>>ASSIGN
FIRST
      5534**DCL      5567<<ASSIGN   5601>>ASSIGN
FN
      5532**DCL      5573<<DOINDEX  5579>>ASSIGN   5601>>ASSIGN   5625>>ASSIGN
PL6.E3A0      #009=FMD$CHKFIELD File=FMD$BUF.:E05TSI                             TUE 07/29/97 16:41 Page:457
FN IN PROCEDURE SET_LEN
      5861**DCL      5860--PROC     5863>>DOCASE   5869>>ASSIGN   5872>>ASSIGN   5875>>ASSIGN
FN IN PROCEDURE SET_START
      5892**DCL      5891--PROC     5894>>DOCASE   5898>>IF       5899>>ASSIGN   5900>>ASSIGN   5904>>ASSIGN
FTYP
        37**DCL        35--PROC     5562>>IF       5575>>IF       5623>>IF
HFF$DSIZ
      5395**DCL-ENT  5565--CALL
I
      5541**DCL      5842<<CALLBLT  5844>>IF       5959<<CALLBLT  5961>>IF
IRKEYS.K.FIRSTFIELD
      5293**DCL      5567>>ASSIGN
IRKEYS.K.NFIELDS
      5293**DCL      5566>>ASSIGN
JDCB$
      5525**DCL      5183--IMP-PTR  5557<<ASSIGN   5558>>ASSIGN   5559>>ASSIGN   5560>>ASSIGN   5564>>ASSIGN
      5566>>ASSIGN   5567>>ASSIGN   5593>>IF       5625>>ASSIGN   5629>>ASSIGN   5648>>ASSIGN
KEYSIZE
      5530**DCL      5565<>CALL     5604>>IF       5606>>IF
KFIELD.FIELD
      5299**DCL      5579>>ASSIGN   5601>>ASSIGN
KFIELD.NFIELDS
      5299**DCL      5571>>ASSIGN
KFIELD$
      5529**DCL      5299--IMP-PTR  5560<<ASSIGN   5571>>ASSIGN   5579>>ASSIGN   5601>>ASSIGN
LEN
      5537**DCL      5583>>ASSIGN   5674>>ASSIGN   5678>>ASSIGN   5715>>ASSIGN   5718<<ASSIGN   5718>>ASSIGN
      5723>>ASSIGN   5724>>IF       5738<<ASSIGN   5738>>ASSIGN   5774>>IF       5795<<ASSIGN   5795>>ASSIGN
      5799>>ASSIGN   5812<<ASSIGN   5812>>ASSIGN   5826<<ASSIGN   5826>>ASSIGN   5829>>IF       5831>>ASSIGN
      5837<<ASSIGN   5837>>ASSIGN   5840>>ASSIGN   5869<<ASSIGN   5872<<ASSIGN   5875<<ASSIGN   5930>>ASSIGN
LOOP
      5573**LABEL    5610--EXIT
N
      5531**DCL      5566<<ASSIGN   5571<<ASSIGN   5573>>DOINDEX
NCHARS
      5538**DCL      5523--IMP-SIZ  5723<<ASSIGN   5726>>ASSIGN   5732>>ASSIGN   5840<<ASSIGN   5841>>IF
PL6.E3A0      #009=FMD$CHKFIELD File=FMD$BUF.:E05TSI                             TUE 07/29/97 16:41 Page:458
      5842>>CALLBLT  5844>>IF       5930<<ASSIGN   5937<<ASSIGN   5937>>ASSIGN   5940>>IF       5940>>IF
      5942<<ASSIGN   5942>>ASSIGN   5949<<ASSIGN   5949>>ASSIGN   5952>>IF       5952>>IF       5952>>IF
      5952>>IF       5955<<ASSIGN   5955>>ASSIGN   5959>>CALLBLT  5961>>IF
NDIG
      5540**DCL      5775<<ASSIGN   5777<<ASSIGN   5801>>IF
NEW_START
      5536**DCL      5568<<ASSIGN   5600>>ASSIGN   5606>>IF       5674<<ASSIGN   5678<<ASSIGN
PACKCHECK
      5765**PROC     5707--CALL     5739--CALL
PACKED_FIELD
      5549**DCL      5574<<ASSIGN   5584>>IF       5615>>IF       5675<<ASSIGN   5901<<ASSIGN
PTABLE
      5509**DCL      5842>>CALLBLT
REC
      5522**DCL      5715>>ASSIGN   5726>>ASSIGN   5732>>ASSIGN   5782>>ASSIGN   5799>>ASSIGN   5820>>ASSIGN
      5831>>ASSIGN   5934>>IF       5934>>IF       5940>>IF       5940>>IF       5945>>IF       5945>>IF
      5945>>IF       5945>>IF       5952>>IF       5952>>IF       5952>>IF       5952>>IF
RECFIELD.DECFIELD.LEN
      5245**DCL      5869>>ASSIGN
RECFIELD.FIELD
      5245**DCL      5245--REDEF
RECFIELD.FIELD.LEN
      5245**DCL      5872>>ASSIGN   5875>>ASSIGN
RECFIELD.FIELD.TYPE
      5245**DCL      5670>>DOCASE   5703>>DOCASE   5779>>DOCASE   5863>>DOCASE   5894>>DOCASE   5932>>DOCASE
RECFIELD$
      5526**DCL      5238--IMP-PTR  5558<<ASSIGN   5670>>DOCASE   5703>>DOCASE   5779>>DOCASE   5863>>DOCASE
      5869>>ASSIGN   5872>>ASSIGN   5875>>ASSIGN   5894>>DOCASE   5932>>DOCASE
REC_TOO_SMALL
      5623**LABEL    5594--GOTO
SET_LEN
      5860**PROC     5581--CALL     5602--CALL
SET_START
      5891**PROC     5580--CALL
START
      5535**DCL      5582>>ASSIGN   5583>>ASSIGN   5600<<ASSIGN   5604>>IF       5616<<ASSIGN   5616>>ASSIGN
PL6.E3A0      #009=FMD$CHKFIELD File=FMD$BUF.:E05TSI                             TUE 07/29/97 16:41 Page:459
      5674>>ASSIGN   5678>>ASSIGN   5714>>ASSIGN   5722>>ASSIGN   5724>>IF       5767>>ASSIGN   5769>>IF
      5796<<ASSIGN   5796>>ASSIGN   5816>>ASSIGN   5818>>IF       5824<<ASSIGN   5824>>ASSIGN   5899<<ASSIGN
      5900<<ASSIGN   5904<<ASSIGN   5929>>ASSIGN
START$
      5527**DCL      5282--IMP-PTR  5559<<ASSIGN   5898>>IF       5899>>ASSIGN   5900>>ASSIGN   5904>>ASSIGN
TEMP_CHAR
      5552**DCL      5715<<ASSIGN   5716>>IF       5726<<ASSIGN   5727>>IF       5732<<ASSIGN   5733>>ASSIGN
      5782<<ASSIGN   5783>>ASSIGN   5799<<ASSIGN   5800>>ASSIGN   5820<<ASSIGN   5821>>ASSIGN   5831<<ASSIGN
      5832>>ASSIGN
TEMP_START
      5550**DCL      5582<<ASSIGN   5586<<ASSIGN   5586>>ASSIGN
TEMP_SUM
      5551**DCL      5583<<ASSIGN   5587<<ASSIGN   5587>>ASSIGN   5593>>IF
UNPACKCHECK
      5927**PROC     5711--CALL     5719--CALL
PL6.E3A0      #009=FMD$CHKFIELD File=FMD$BUF.:E05TSI                             TUE 07/29/97 16:41 Page:460
              *** CROSS REFERENCE LISTING ***
    **     DENOTES     IDENTIFIER DEFINITION
    <<                 IDENTIFIER'S VALUE SET
    >>                 IDENTIFIER'S VALUE USED
    <>                 IDENTIFIER SET AND/OR USED
    --                 IDENTIFIER REFERENCED
PL6.E3A0      #009=FMD$CHKFIELD File=FMD$BUF.:E05TSI                             TUE 07/29/97 16:41 Page:461
              MINI UREF LISTING

B_POINTER    5447**DCL-ENT
FMD$CHKFIELD      35**PROC
