PL6.E3A0      #005=FMD$WRTBUF File=FMD$BUF.:E05TSI                               TUE 07/29/97 16:40 Page:171
      917        1        /*T***********************************************************/
      918        2        /*T*                                                         */
      919        3        /*T* Copyright (c) Bull HN Information Systems Inc., 1997    */
      920        4        /*T*                                                         */
      921        5        /*T***********************************************************/
      922        6        /*F*   NAME:   FMD$WRTBUF
      923        7               PURPOSE:  Write pool buffer to disk and enter it into
      924        8             the I/O cache if appropriate.                                           */
      925        9
      926       10        /*D*     NAME:     FMD$WRTBUF
      927       11                 ENTRY:    FMD$FLSHBUF, FMD$WRTSV, FMD$WRTSVNW
      928       12                 CALL:     CALL FMD$WRTBUF(BUFNUM)
      929       13                 INPUT:    BUFNUM - Buffer number
      930       14                 DESCRIPTION:
      931       15
      932       16                      Call CALCSIZ to find out how many bytes we have to
      933       17                 write, and set up some other information.  Then call
      934       18                 FMC$FINISH to finish off the buffer if it is cached.
      935       19                 If FLAG is zero, then it wasn't cached, and we weren't
      936       20                 able to cache it.  If the buffer was updated, then
      937       21                 get the user off of the page, and start a no-wait I/O.
      938       22                 If it wasn't updated, then just release the buffer.
      939       23        */
      940       24                 %EJECT;
PL6.E3A0      #005=FMD$WRTBUF File=FMD$BUF.:E05TSI                               TUE 07/29/97 16:40 Page:172
      941       25
      942       26        FMD$WRTBUF: PROC(BUFNUM);
      943       27        /* PARAMETERS */
      944       28    1   DCL BUFNUM UBIN;
      945       29        /* EXTERNAL ROUTINES */
      946       30    1   DCL FMC$FINISH ENTRY(4) ALTRET;
      947       31    1   DCL FMC$UPLIMIT ENTRY(4) ALTRET;
      948       32    1   DCL FMC$STASH ENTRY(1);
      949       33    1   DCL FMC$CLR1 ENTRY(1);
      950       34    1   DCL MMD$GIOP ENTRY(1) ALTRET;
      951       35    1   DCL MMJ$FIOP ENTRY(1);
      952       36    1   DCL FMB$IOSPIN ENTRY;
      953       37    1   DCL FMD$RELBUF ENTRY(1);
      954       38    1   DCL FMD$GETBUF ENTRY(3);
      955       39    1   DCL FMB$QUEUE ENTRY(9) ALTRET;
      956       40    1   DCL FMB$RIO ENTRY(9) ALTRET;
      957       41    1   DCL FMD$WRTAHDEA ENTRY(1);
      958       42    1   DCL MMJ$FBTOIOPM ENTRY(2);
      959       43    1   DCL MMJ$UNMAPIOP ENTRY(1);
      960       44    1   DCL SC_FMD89 ENTRY CONV(2,0);
      961       45    1   DCL SC_FMD90 ENTRY CONV(2,0);
      962       46    1   DCL SC_FMD91 ENTRY CONV(2,0);
      963       47    1   DCL SC_FMD101 ENTRY CONV(2,0);
      964       48        /* LOCAL AUTOMATIC STORAGE */
      965       49    1   DCL JDCB$ PTR;
      966       50    1   DCL BUF$ PTR;
      967       51    1   DCL VPNO UBIN;
      968       52    1   DCL PPNO UBIN;
      969       53    1   DCL OLDPP UBIN;
      970       54    1   DCL ENTFLG SBIN;
      971       55    1   DCL BYTES UBIN;
      972       56    1   DCL DA UBIN;
      973       57    1   DCL FC UBIN;
      974       58    1   DCL N UBIN;
      975       59    1   DCL WAITFLG SBIN;
      976       60    1   DCL FLAG SBIN;
      977       61    1   DCL GTYP UBIN;
PL6.E3A0      #005=FMD$WRTBUF File=FMD$BUF.:E05TSI                               TUE 07/29/97 16:40 Page:173
      978       62    1   DCL LVL UBIN;
      979       63    1   DCL 1 EAINFO,
      980       64    1         2 * BIT(18),
      981       65    1         2 PAGE UBIN(18) UNAL;
      982       66        /* EXTERNAL DATA */
      983       67    1   DCL B$JIT$ PTR SYMREF;
      984       68    1   DCL FM$BUF$(0:0) PTR SYMREF;
      985       69        /* INCLUDE FILES */
      986       70        %MACRO F$DCB(BASED=BASED);
      987       71        %INCLUDE F$DCB;
      988      120        %MEND;
      989      121        %INCLUDE FM$MACROS;
      990      496        %INCLUDE FM_DATA_R;
      991      510        %INCLUDE F$JIT_C;
      992      940        %INCLUDE N_FC_C;
      993      977        %INCLUDE M_INFO_C;
      994     1117        /* BASED STRUCTURES */
      995     1118        %F$DCB (BASED="BASED(JDCB$)");
      996     1168        %FM$GRAN (BASED="BASED(BUF$)");
      997     1172        %FM$CFUJ;
      998     1177        %FM$SET (BASED="BASED(FM$SET$)");
      999     1182    1   DCL WRD SBIN BASED ALIGNED;
     1000     1183    1   DCL 1 ZAP BASED ALIGNED,
     1001     1184    1         2 * UBIN,
     1002     1185    1         2 X CHAR(4092);
     1003     1186        /* */
     1004     1187    1          ENTFLG=0;
     1005     1188    1          GOTO COMMON;
     1006     1189    1   FMD$FLSHBUF: ENTRY(BUFNUM);
     1007     1190    1          ENTFLG=1;
     1008     1191    1          GOTO COMMON;
     1009     1192    1   FMD$FLSHBUFNR: ENTRY(BUFNUM);
     1010     1193    1          ENTFLG=2;
     1011     1194
     1012     1195    1   COMMON: ;
     1013     1196    1          JDCB$=B$JIT$->B$JIT.DCB$;       /* POINTER TO CURRENT DCB             */
     1014     1197    1          IF ENTFLG = 0 THEN
PL6.E3A0      #005=FMD$WRTBUF File=FMD$BUF.:E05TSI                               TUE 07/29/97 16:40 Page:174
     1015     1198    1             F$DCB.BFR.BUFUP(BUFNUM)='1'B;
     1016     1199    1          IF F$DCB.BFR.BUFX(BUFNUM) = 0 AND ENTFLG > 0 THEN
     1017     1200    1             RETURN;
     1018     1201    1          IF BUFNUM>4 THEN
     1019     1202    1             CALL SC_FMD90;
     1020     1203        /*S*   SCREECH_CODE:  FMD-S$FM90
     1021     1204        *      TYPE:   SUA
     1022     1205        *      MESSAGE:  Bad arguments to FMD$WRTBUF
     1023     1206        */
     1024     1207        /* ATTEMPT TO STASH BUFFER IN THE I/O CACHE */
     1025     1208    1          FLAG=0;
     1026     1209    1          GTYP=F$DCB.GTYP;
     1027     1210    1          LVL=F$DCB.LVL;
     1028     1211    1          CALL CALCSIZ;                   /* Calc # words to write              */
     1029     1212    1          IF (~F$DCB.BFR.CVM(BUFNUM) AND F$DCB.BFR.BUFUP(BUFNUM) AND
     1030     1213    1             F$DCB.BFR.DA(BUFNUM) ~= 0) OR F$DCB.BFR1.CX(BUFNUM) > 0 THEN
     1031     1214    1             CALL FMC$FINISH(BUFNUM, BYTES, FC, FLAG) ALTRET(ERR);
     1032     1215    1          F$DCB.GTYP=GTYP;
     1033     1216    1          F$DCB.LVL=LVL;
     1034     1217
     1035     1218    1          IF FLAG = 0 THEN
     1036     1219    2             DO;   /* WASN'T CACHED */
     1037     1220    2             DA=F$DCB.BFR.DA(BUFNUM);
     1038     1221    2             IF F$DCB.CFU$ ~= ADDR(NIL) AND DA ~= 0 THEN
     1039     1222    2                CALL FMC$CLR1(DA);
     1040     1223    2             IF F$DCB.BFR.BUFUP(BUFNUM) THEN
     1041     1224    3                DO;   /* WRITE THE BUFFER */
     1042     1225    3                EAINFO='0'B;
     1043     1226    3                VPNO=F$DCB.BFR.BUFX(BUFNUM);
     1044     1227    3                IF NOT(JDCB$->F$DCB.BFR.CVM(BUFNUM)) THEN
     1045     1228    3                   CALL MMJ$FBTOIOPM(VPNO, OLDPP);
     1046     1229    3                ELSE
     1047     1230    4                   DO;
     1048     1231    4                   OLDPP=JDCB$->F$DCB.CFU$->FM$CFUJ.PAGE#;
     1049     1232    4                   IF OLDPP=0 THEN
     1050     1233    4                      GOTO XMAPERR;
     1051     1234    4                   END;
PL6.E3A0      #005=FMD$WRTBUF File=FMD$BUF.:E05TSI                               TUE 07/29/97 16:40 Page:175
     1052     1235
     1053     1236    3                EAINFO.PAGE=OLDPP;
     1054     1237
     1055     1238    3                DA=JDCB$->F$DCB.BFR.DA(BUFNUM);
     1056     1239    3                CALL FMC$CLR1(DA);
     1057     1240    3                CALL FMB$RIO(0,OLDPP,BYTES,DA,FC,0,
     1058     1241    3                   ENTADDR(FMD$WRTAHDEA),EAINFO) ALTRET(ERR);
     1059     1242
     1060     1243    3                CALL MMJ$UNMAPIOP(VPNO);
     1061     1244    3                IF (JDCB$->F$DCB.BFR.CVM(BUFNUM)) THEN
     1062     1245    3                   JDCB$->F$DCB.CFU$->FM$CFUJ.PAGE#=0;
     1063     1246
     1064     1247    3                F$DCB.BFR(BUFNUM)=F$DCB.BFR(BUFNUM)&'000777777777'O;
     1065     1248    3                F$DCB.BFR1(BUFNUM)='0'B;
     1066     1249    3                END;  /* WRITE THE BUFFER */
     1067     1250    2             ELSE
     1068     1251    2                IF ENTFLG ~= 2 THEN
     1069     1252    3                   DO;   /* RELEASE BUFFER */
     1070     1253    3                   IF JDCB$->F$DCB.BFR.CVM(BUFNUM) AND
     1071     1254    3                      JDCB$->F$DCB.CFU$ ~= ADDR(NIL) THEN
     1072     1255    4                      DO;   /* FREE JRNL PAGE */
     1073     1256    4                      CALL FMD$RELBUF(BUFNUM);
     1074     1257    4                      PPNO=JDCB$->F$DCB.CFU$->FM$CFUJ.PAGE#;
     1075     1258    4                      CALL MMJ$FIOP(PPNO);
     1076     1259    4                      JDCB$->F$DCB.CFU$->FM$CFUJ.PAGE#=0;
     1077     1260    4                      END;  /* FREE JRNL PAGE */
     1078     1261    3                   ELSE
     1079     1262    3                      CALL FMD$RELBUF(BUFNUM);
     1080     1263    3                   END;   /* RELEASE BUFFER */
     1081     1264    2             END;  /* WASN'T CACHED */
     1082     1265
     1083     1266    1          IF F$DCB.BFR.BUFX(BUFNUM) = 0 AND ENTFLG = 2 THEN
     1084     1267    1             CALL FMD$GETBUF(BUFNUM, 1, BUF$);
     1085     1268    1          RETURN;
     1086     1269
     1087     1270    1   ERR:   EAINFO=F$DCB.BFR(BUFNUM);
     1088     1271    1          F$DCB.BFR.BUFUP(BUFNUM)='0'B;   /* CLEAR FOR RUNDOWN                  */
PL6.E3A0      #005=FMD$WRTBUF File=FMD$BUF.:E05TSI                               TUE 07/29/97 16:40 Page:176
     1089     1272    1          IF BINBIT(DA,36) = '777777777777'O THEN /* DISK NOT SPINNING? */
     1090     1273    1             CALL SC_FMD101;
     1091     1274        /*S*   SCREECH_CODE:  FMD-S$FM101
     1092     1275        *      TYPE:   SUA
     1093     1276        *      MESSAGE:  Disk not spinning on write of uncached pool buffer */
     1094     1277
     1095     1278    1          CALL SC_FMD91;
     1096     1279        /*S*   SCREECH_CODE:  FMD-S$FM91
     1097     1280        *      TYPE:   SUA
     1098     1281        *      MESSAGE:  Illegal disk address for pool buffer */
     1099     1282
     1100     1283    1   XMAPERR: N=BITBIN(JDCB$->F$DCB.BFR1(BUFNUM)); /* SAVE                         */
     1101     1284    1          EAINFO=JDCB$->F$DCB.BFR(BUFNUM);
     1102     1285    1          JDCB$->F$DCB.BFR(BUFNUM)='0'B;  /* CLEAR SO THAT RUNDOWN              */
     1103     1286    1          JDCB$->F$DCB.BFR1(BUFNUM)='0'B; /* WON'T SCREECH AGAIN                */
     1104     1287    1          CALL SC_FMD89;
     1105     1288        /*S*   SCREECH_CODE:  FMD-S$FM89
     1106     1289        *      TYPE:   SUA
     1107     1290        *      MESSAGE:  Error manipulating map during write-ahead */
     1108     1291               %EJECT;
PL6.E3A0      #005=FMD$WRTBUF File=FMD$BUF.:E05TSI                               TUE 07/29/97 16:40 Page:177
     1109     1292        /*D*     ENTRY:    FMD$WRTCACHE
     1110     1293                 DESCRIPTION:
     1111     1294                      Calculates the size of the passed buffer (which is guaranteed
     1112     1295                      to be cached), and calls FMC$UPLIMIT to write it, if necessary.
     1113     1296        */
     1114     1297
     1115     1298    1   FMD$WRTCACHE: ENTRY(BUFNUM);
     1116     1299
     1117     1300    1           JDCB$ = B$JIT$->B$JIT.DCB$;
     1118     1301    1           FLAG = 0;
     1119     1302    1           GTYP = F$DCB.GTYP;
     1120     1303    1           LVL = F$DCB.LVL;
     1121     1304    1           CALL CALCSIZ;
     1122     1305    1           CALL FMC$UPLIMIT(BUFNUM,BYTES,FC,FLAG) ALTRET(ERR);
     1123     1306    1           F$DCB.BFR.BUFUP(BUFNUM) = '0'B;
     1124     1307    1           F$DCB.GTYP = GTYP;
     1125     1308    1           F$DCB.LVL = LVL;
     1126     1309    1           RETURN;
     1127     1310               %EJECT;
PL6.E3A0      #005=FMD$WRTBUF File=FMD$BUF.:E05TSI                               TUE 07/29/97 16:40 Page:178
     1128     1311        /*D*     ENTRY:    FMD$WRTSV
     1129     1312                 ENTRY:    FMD$WRTSVNW
     1130     1313                 DESCRIPTION:
     1131     1314
     1132     1315                      These routines just write out a buffer without releasing
     1133     1316                 it.  One waits, one doesn't (guess).
     1134     1317        */
     1135     1318               %EJECT;
PL6.E3A0      #005=FMD$WRTBUF File=FMD$BUF.:E05TSI                               TUE 07/29/97 16:40 Page:179
     1136     1319    1   FMD$WRTSV: ENTRY(BUFNUM);
     1137     1320    1          WAITFLG=1;
     1138     1321    1          GOTO BEGSV;
     1139     1322        /* */
     1140     1323    1   FMD$WRTSVNW: ENTRY(BUFNUM);
     1141     1324    1          WAITFLG=0;
     1142     1325        /* */
     1143     1326    1   BEGSV:  JDCB$=B$JIT$->B$JIT.DCB$;       /* POINTER TO CURRENT DCB             */
     1144     1327    1          IF BUFNUM>4 THEN
     1145     1328    1             CALL SC_FMD90;
     1146     1329    1          CALL WRTBFR ALTRET(ERR);
     1147     1330    1          RETURN;
     1148     1331               %EJECT;
PL6.E3A0      #005=FMD$WRTBUF File=FMD$BUF.:E05TSI                               TUE 07/29/97 16:40 Page:180
     1149     1332        /*I*     NAME:     WRTBFR
     1150     1333                 PURPOSE:  To write a buffer out
     1151     1334                 DESCRIPTION:
     1152     1335
     1153     1336                      Call CALCSIZ to set up some values, then write the
     1154     1337                 buffer out.
     1155     1338        */
     1156     1339                 %EJECT;
PL6.E3A0      #005=FMD$WRTBUF File=FMD$BUF.:E05TSI                               TUE 07/29/97 16:40 Page:181
     1157     1340        /* WRITE BUFFER IN-PLACE NO-WAIT */
     1158     1341    1   WRTBFR: PROC ALTRET;
     1159     1342        /* */
     1160     1343    2          LVL=F$DCB.LVL;
     1161     1344    2          GTYP=F$DCB.GTYP;
     1162     1345    2          CALL CALCSIZ;
     1163     1346    2          IF ~F$DCB.BFR.CVM(BUFNUM) AND F$DCB.BFR.DA(BUFNUM) ~= 0 AND
     1164     1347    2             F$DCB.BFR1.CX(BUFNUM) = 0 THEN
     1165     1348    2             CALL FMC$STASH(BUFNUM);
     1166     1349    2          ELSE
     1167     1350    2             IF F$DCB.BFR1.CX(BUFNUM) = 0 AND F$DCB.BFR.DA(BUFNUM) ~= 0 THEN
     1168     1351    3                DO;   /* CLEAR CACHE */
     1169     1352    3                DA=F$DCB.BFR.DA(BUFNUM);
     1170     1353    3                CALL FMC$CLR1(DA);
     1171     1354    3                END;  /* CLEAR CACHE */
     1172     1355
     1173     1356    2          F$DCB.LVL=LVL;
     1174     1357    2          F$DCB.GTYP=GTYP;
     1175     1358    2          DA=JDCB$->F$DCB.BFR.DA(BUFNUM);
     1176     1359    2          CALL FMB$QUEUE(BUF$,0,BYTES,DA,FC,WAITFLG,ENTADDR(NIL),0) ALTRET(ERR);
     1177     1360    2          JDCB$->F$DCB.BFR.BUFUP(BUFNUM)='0'B;
     1178     1361    2          RETURN;
     1179     1362    2   ERR:   IF BINBIT(DA,36) = '777777777777'O AND F$DCB.BFR1.CX(BUFNUM) ~= 0 THEN
     1180     1363    2             RETURN;
     1181     1364    2          ALTRETURN;
     1182     1365    2          END WRTBFR;
     1183     1366               %EJECT;
PL6.E3A0      #005=FMD$WRTBUF File=FMD$BUF.:E05TSI                               TUE 07/29/97 16:40 Page:182
     1184     1367        /*I*     NAME:     CALCSIZ
     1185     1368                 PURPOSE:  To set up value for the write
     1186     1369                 DESCRIPTION:
     1187     1370
     1188     1371                      Set up GTYP and LVL in the DCB for use by FMC.  Set up
     1189     1372                 the type of write we are going to do.  Set up the number
     1190     1373                 of bytes we want to write.
     1191     1374        */
     1192     1375                 %EJECT;
PL6.E3A0      #005=FMD$WRTBUF File=FMD$BUF.:E05TSI                               TUE 07/29/97 16:40 Page:183
     1193     1376        /* Calculate # words to write, and scrub if necessary */
     1194     1377    1   CALCSIZ: PROC;
     1195     1378        /* LOCAL AUTOMATIC STORAGE */
     1196     1379    2   DCL NUM UBIN;
     1197     1380        /* BASED STORAGE */
     1198     1381    2   DCL ZAP CHAR(NUM) BASED ALIGNED;
     1199     1382
     1200     1383    2          BUF$=FM$BUF$(F$DCB.BFR.BUFX(BUFNUM)); /* Buffer pointer               */
     1201     1384    2          IF FM$GRAN.ORG = 0 THEN
     1202     1385    2             F$DCB.GTYP=FM$GRAN.LVL;
     1203     1386    2          ELSE
     1204     1387    3             DO;
     1205     1388    3             F$DCB.GTYP=FMGTFILE;
     1206     1389    3             F$DCB.LVL=FM$GRAN.LVL;
     1207     1390    3             END;
     1208     1391    2          FC=%N_WRBIN;                    /* Assume regular write               */
     1209     1392    2          IF FM$GRAN.ORG=0 THEN
     1210     1393    3             DO CASE(FM$GRAN.LVL);
     1211     1394    3                CASE(FMGTGP,FMGTMAD,FMGTPAD);
     1212     1395    3   CHKSET:         IF FM$SET.WRCMP(F$DCB.SETX) THEN
     1213     1396    3                      FC=%N_WRCMP;  /* Write and compare */
     1214     1397    3                CASE(FMGTFD,FMGTFDSTAR);
     1215     1398    3                   IF F$DCB.STARF THEN
     1216     1399    3                      GOTO CHKSET;
     1217     1400    3                   ELSE
     1218     1401    3                     IF F$DCB.WRCMP THEN
     1219     1402    3                        FC=%N_WRCMP;
     1220     1403    3             END;
     1221     1404
     1222     1405    2          IF BUF$->FM$GRAN.NAVX+BUF$->FM$GRAN.AVAIL~=1024 THEN
     1223     1406    2             BYTES=4096;
     1224     1407    2          ELSE                            /* ONLY WRITE WHAT IS USED            */
     1225     1408    2             BYTES=BUF$->FM$GRAN.NAVX*4;
     1226     1409
     1227     1410    2          IF JDCB$->F$DCB.BFR.SCRUB(BUFNUM) THEN
     1228     1411    3             DO; /* SCRUB AVAIL AREA */
     1229     1412    3             JDCB$->F$DCB.BFR.SCRUB(BUFNUM)='0'B;
PL6.E3A0      #005=FMD$WRTBUF File=FMD$BUF.:E05TSI                               TUE 07/29/97 16:40 Page:184
     1230     1413    3             BYTES=4096;
     1231     1414    3             NUM=BUF$->FM$GRAN.AVAIL*4;
     1232     1415    3             PINCRW(BUF$,BUF$->FM$GRAN.NAVX)->ZAP=' ';
     1233     1416    3             END;
     1234     1417
     1235     1418    2          RETURN;
     1236     1419    2          END CALCSIZ;
     1237     1420    1          END FMD$WRTBUF;
     1238     1421               %EOD;

PL6.E3A0      #005=FMD$WRTBUF File=FMD$BUF.:E05TSI                               TUE 07/29/97 16:40 Page:185
--  Include file information  --

   M_INFO_C.:E05TOU  is referenced.
   N_FC_C.:E05TOU  is referenced.
   B$JIT_C.:E05TOU  is referenced.
   F$JIT_C.:E05TOU  cannot be made into a system file and is referenced.
   FM_DATA_R.:E05TOU  cannot be made into a system file and is referenced.
   FM$MACROS.:E05TOU  is referenced.
   F$DCB.:E05TOU  is referenced.
      No diagnostics issued in procedure FMD$WRTBUF.

   Procedure FMD$WRTBUF requires 539 words for executable code.
   Procedure FMD$WRTBUF requires 34 words of local(AUTO) storage.

PL6.E3A0      #005=FMD$WRTBUF File=FMD$BUF.:E05TSI                               TUE 07/29/97 16:40 Page:186

 Object Unit name= FMD$WRTBUF                                 File name= FMD$BUF.:E05TOU
 UTS= JUL 29 '97 16:40:33.32 TUE                              Compiler= PL-6/E31         Sev=      00
 SharedLib= :SHARED_SYSTEM                                    Alt SharedLib=


    ****  Control sections  ****

 Sect   Type Bound  Init  Size OctSiz  Section name(segment info)
    0   Proc  even  none   539   1033  FMD$WRTBUF
    1  RoData even  none     8     10  FMD$WRTBUF

    ****  Entry defs  ****

                              Check   Calling
                             calling  sequence
  Sect OctLoc Primary Altret sequence   type   Parms  Name
     0      0   yes            yes      Std        1  FMD$WRTBUF
     0      4                  yes      Std        1  FMD$FLSHBUF
     0     11                  yes      Std        1  FMD$FLSHBUFNR
     0    420                  yes      Std        1  FMD$WRTCACHE
     0    475                  yes      Std        1  FMD$WRTSV
     0    502                  yes      Std        1  FMD$WRTSVNW
PL6.E3A0      #005=FMD$WRTBUF File=FMD$BUF.:E05TSI                               TUE 07/29/97 16:40 Page:187

  ****  Entry refs  ****

         Check        Calling
        calling       sequence
Altret sequence SRef   type   Args  Name
 yes     yes           Std       4 FMC$FINISH
         yes           Std       1 MMJ$UNMAPIOP
         yes           Std       1 FMD$RELBUF
         yes           Std       1 FMD$WRTAHDEA
         yes           Std       1 MMJ$FIOP
         yes           Std       3 FMD$GETBUF
 yes     yes           Std       9 FMB$RIO
         yes           Std       1 FMC$CLR1
         yes           Std       2 MMJ$FBTOIOPM
 yes     yes           Std       4 FMC$UPLIMIT
         yes           Std       1 FMC$STASH
 yes     yes           Std       9 FMB$QUEUE
                       Std       0 B_CONSPOOL_D
                       nStd      0 X66_AUTO_1
                       nStd      0 X66_ARET

  ****  Data refs  ****

  Flags:  r = read only, s = secondary
Flgs Name                             Flgs Name                             Flgs Name
     SC_FMD90                              SC_FMD91                              SC_FMD89
     SC_FMD101                             B$JIT$                                FM$BUF$
r    FM$SET$                               B_VECTNIL

  ****  Segment refs  ****

  Flags:  r = read only, s = secondary
Flgs Name                             Flgs Name                             Flgs Name
     ASLENTSID                             ISSID
PL6.E3A0      #005=FMD$WRTBUF File=FMD$BUF.:E05TSI                               TUE 07/29/97 16:40 Page:188


      917        1        /*T***********************************************************/
      918        2        /*T*                                                         */
      919        3        /*T* Copyright (c) Bull HN Information Systems Inc., 1997    */
      920        4        /*T*                                                         */
      921        5        /*T***********************************************************/
      922        6        /*F*   NAME:   FMD$WRTBUF
      923        7               PURPOSE:  Write pool buffer to disk and enter it into
      924        8             the I/O cache if appropriate.                                           */
      925        9
      926       10        /*D*     NAME:     FMD$WRTBUF
      927       11                 ENTRY:    FMD$FLSHBUF, FMD$WRTSV, FMD$WRTSVNW
      928       12                 CALL:     CALL FMD$WRTBUF(BUFNUM)
      929       13                 INPUT:    BUFNUM - Buffer number
      930       14                 DESCRIPTION:
      931       15
      932       16                      Call CALCSIZ to find out how many bytes we have to
      933       17                 write, and set up some other information.  Then call
      934       18                 FMC$FINISH to finish off the buffer if it is cached.
      935       19                 If FLAG is zero, then it wasn't cached, and we weren't
      936       20                 able to cache it.  If the buffer was updated, then
      937       21                 get the user off of the page, and start a no-wait I/O.
      938       22                 If it wasn't updated, then just release the buffer.
      939       23        */
      940       24                 %EJECT;
PL6.E3A0      #005=FMD$WRTBUF File=FMD$BUF.:E05TSI                               TUE 07/29/97 16:40 Page:189
      941       25
      942       26        FMD$WRTBUF: PROC(BUFNUM);

     26  0 000000   000000 700200 xent  FMD$WRTBUF   TSX0  ! X66_AUTO_1
         0 000001   000042 000001                    ZERO    34,1

      943       27        /* PARAMETERS */
      944       28    1   DCL BUFNUM UBIN;
      945       29        /* EXTERNAL ROUTINES */
      946       30    1   DCL FMC$FINISH ENTRY(4) ALTRET;
      947       31    1   DCL FMC$UPLIMIT ENTRY(4) ALTRET;
      948       32    1   DCL FMC$STASH ENTRY(1);
      949       33    1   DCL FMC$CLR1 ENTRY(1);
      950       34    1   DCL MMD$GIOP ENTRY(1) ALTRET;
      951       35    1   DCL MMJ$FIOP ENTRY(1);
      952       36    1   DCL FMB$IOSPIN ENTRY;
      953       37    1   DCL FMD$RELBUF ENTRY(1);
      954       38    1   DCL FMD$GETBUF ENTRY(3);
      955       39    1   DCL FMB$QUEUE ENTRY(9) ALTRET;
      956       40    1   DCL FMB$RIO ENTRY(9) ALTRET;
      957       41    1   DCL FMD$WRTAHDEA ENTRY(1);
      958       42    1   DCL MMJ$FBTOIOPM ENTRY(2);
      959       43    1   DCL MMJ$UNMAPIOP ENTRY(1);
      960       44    1   DCL SC_FMD89 ENTRY CONV(2,0);
      961       45    1   DCL SC_FMD90 ENTRY CONV(2,0);
      962       46    1   DCL SC_FMD91 ENTRY CONV(2,0);
      963       47    1   DCL SC_FMD101 ENTRY CONV(2,0);
      964       48        /* LOCAL AUTOMATIC STORAGE */
      965       49    1   DCL JDCB$ PTR;
      966       50    1   DCL BUF$ PTR;
      967       51    1   DCL VPNO UBIN;
      968       52    1   DCL PPNO UBIN;
      969       53    1   DCL OLDPP UBIN;
      970       54    1   DCL ENTFLG SBIN;
      971       55    1   DCL BYTES UBIN;
      972       56    1   DCL DA UBIN;
      973       57    1   DCL FC UBIN;
PL6.E3A0      #005=FMD$WRTBUF File=FMD$BUF.:E05TSI                               TUE 07/29/97 16:40 Page:190
      974       58    1   DCL N UBIN;
      975       59    1   DCL WAITFLG SBIN;
      976       60    1   DCL FLAG SBIN;
      977       61    1   DCL GTYP UBIN;
      978       62    1   DCL LVL UBIN;
      979       63    1   DCL 1 EAINFO,
      980       64    1         2 * BIT(18),
      981       65    1         2 PAGE UBIN(18) UNAL;
      982       66        /* EXTERNAL DATA */
      983       67    1   DCL B$JIT$ PTR SYMREF;
      984       68    1   DCL FM$BUF$(0:0) PTR SYMREF;
      985       69        /* INCLUDE FILES */
      986       70        %MACRO F$DCB(BASED=BASED);
      987       71        %INCLUDE F$DCB;
      988      120        %MEND;
      989      121        %INCLUDE FM$MACROS;
      990      496        %INCLUDE FM_DATA_R;
      991      510        %INCLUDE F$JIT_C;
      992      940        %INCLUDE N_FC_C;
      993      977        %INCLUDE M_INFO_C;
      994     1117        /* BASED STRUCTURES */
      995     1118        %F$DCB (BASED="BASED(JDCB$)");
      996     1168        %FM$GRAN (BASED="BASED(BUF$)");
      997     1172        %FM$CFUJ;
      998     1177        %FM$SET (BASED="BASED(FM$SET$)");
      999     1182    1   DCL WRD SBIN BASED ALIGNED;
     1000     1183    1   DCL 1 ZAP BASED ALIGNED,
     1001     1184    1         2 * UBIN,
     1002     1185    1         2 X CHAR(4092);
     1003     1186        /* */
     1004     1187    1          ENTFLG=0;

   1187  0 000002   200011 450100                    STZ     ENTFLG,,AUTO

     1005     1188    1          GOTO COMMON;

   1188  0 000003   000015 710000 0                  TRA     COMMON
PL6.E3A0      #005=FMD$WRTBUF File=FMD$BUF.:E05TSI                               TUE 07/29/97 16:40 Page:191

     1006     1189    1   FMD$FLSHBUF: ENTRY(BUFNUM);

   1189  0 000004   000000 700200 xent  FMD$FLSHBUF  TSX0  ! X66_AUTO_1
         0 000005   000042 000001                    ZERO    34,1

     1007     1190    1          ENTFLG=1;

   1190  0 000006   000001 235007                    LDA     1,DL
         0 000007   200011 755100                    STA     ENTFLG,,AUTO

     1008     1191    1          GOTO COMMON;

   1191  0 000010   000015 710000 0                  TRA     COMMON

     1009     1192    1   FMD$FLSHBUFNR: ENTRY(BUFNUM);

   1192  0 000011   000000 700200 xent  FMD$FLSHBUF* TSX0  ! X66_AUTO_1
         0 000012   000042 000001                    ZERO    34,1

     1010     1193    1          ENTFLG=2;

   1193  0 000013   000002 235007                    LDA     2,DL
         0 000014   200011 755100                    STA     ENTFLG,,AUTO

   1193  0 000015                       COMMON       null
     1011     1194
     1012     1195    1   COMMON: ;
     1013     1196    1          JDCB$=B$JIT$->B$JIT.DCB$;       /* POINTER TO CURRENT DCB             */

   1196  0 000015   000000 470400 xsym               LDP0    B$JIT$
         0 000016   000232 236100                    LDQ     154,,PR0
         0 000017   200004 756100                    STQ     JDCB$,,AUTO

     1014     1197    1          IF ENTFLG = 0 THEN

   1197  0 000020   200011 235100                    LDA     ENTFLG,,AUTO
PL6.E3A0      #005=FMD$WRTBUF File=FMD$BUF.:E05TSI                               TUE 07/29/97 16:40 Page:192
         0 000021   000027 601000 0                  TNZ     s:1199

     1015     1198    1             F$DCB.BFR.BUFUP(BUFNUM)='1'B;

   1198  0 000022   200003 471500                    LDP1    @BUFNUM,,AUTO
         0 000023   100000 720100                    LXL0    0,,PR1
         0 000024   200004 473500                    LDP3    JDCB$,,AUTO
         0 000025   400000 236003                    LDQ     -131072,DU
         0 000026   300115 256110                    ORSQ    77,X0,PR3

     1016     1199    1          IF F$DCB.BFR.BUFX(BUFNUM) = 0 AND ENTFLG > 0 THEN

   1199  0 000027   200003 470500                    LDP0    @BUFNUM,,AUTO
         0 000030   000000 720100                    LXL0    0,,PR0
         0 000031   200004 471500                    LDP1    JDCB$,,AUTO
         0 000032   100115 236110                    LDQ     77,X0,PR1
         0 000033   037000 316003                    CANQ    15872,DU
         0 000034   000040 601000 0                  TNZ     s:1201
         0 000035   000000 115003                    CMPA    0,DU
         0 000036   000040 604400 0                  TMOZ    s:1201

     1017     1200    1             RETURN;

   1200  0 000037   000000 702200 xent               TSX2  ! X66_ARET

     1018     1201    1          IF BUFNUM>4 THEN

   1201  0 000040   000000 235100                    LDA     0,,PR0
         0 000041   000005 115007                    CMPA    5,DL
         0 000042   000045 602000 0                  TNC     s:1208

     1019     1202    1             CALL SC_FMD90;

   1202  0 000043   000000 713400 xsym               CLIMB   SC_FMD90
         0 000044   000000 600000 xsid               climb   nvectors=         0

     1020     1203        /*S*   SCREECH_CODE:  FMD-S$FM90
PL6.E3A0      #005=FMD$WRTBUF File=FMD$BUF.:E05TSI                               TUE 07/29/97 16:40 Page:193
     1021     1204        *      TYPE:   SUA
     1022     1205        *      MESSAGE:  Bad arguments to FMD$WRTBUF
     1023     1206        */
     1024     1207        /* ATTEMPT TO STASH BUFFER IN THE I/O CACHE */
     1025     1208    1          FLAG=0;

   1208  0 000045   200017 450100                    STZ     FLAG,,AUTO

     1026     1209    1          GTYP=F$DCB.GTYP;

   1209  0 000046   200004 470500                    LDP0    JDCB$,,AUTO
         0 000047   000064 236100                    LDQ     52,,PR0
         0 000050   000035 772000                    QRL     29
         0 000051   000007 376007                    ANQ     7,DL
         0 000052   200020 756100                    STQ     GTYP,,AUTO

     1027     1210    1          LVL=F$DCB.LVL;

   1210  0 000053   000067 236100                    LDQ     55,,PR0
         0 000054   000036 772000                    QRL     30
         0 000055   000007 376007                    ANQ     7,DL
         0 000056   200021 756100                    STQ     LVL,,AUTO

     1028     1211    1          CALL CALCSIZ;                   /* Calc # words to write              */

   1211  0 000057   000662 701000 0                  TSX1    CALCSIZ
         0 000060   000000 011000                    NOP     0

     1029     1212    1          IF (~F$DCB.BFR.CVM(BUFNUM) AND F$DCB.BFR.BUFUP(BUFNUM) AND

   1212  0 000061   200003 470500                    LDP0    @BUFNUM,,AUTO
         0 000062   000000 720100                    LXL0    0,,PR0
         0 000063   200004 471500                    LDP1    JDCB$,,AUTO
         0 000064   100115 236110                    LDQ     77,X0,PR1
         0 000065   000003 736000                    QLS     3
         0 000066   400000 376003                    ANQ     -131072,DU
         0 000067   400000 676003                    ERQ     -131072,DU
PL6.E3A0      #005=FMD$WRTBUF File=FMD$BUF.:E05TSI                               TUE 07/29/97 16:40 Page:194
         0 000070   000076 600000 0                  TZE     s:1212+13
         0 000071   100115 234110                    SZN     77,X0,PR1
         0 000072   000076 605000 0                  TPL     s:1212+13
         0 000073   100115 236110                    LDQ     77,X0,PR1
         0 000074   000032 316000 xsym               CANQ    B_VECTNIL+26
         0 000075   000100 601000 0                  TNZ     s:1214
         0 000076   100122 721110                    LXL1    82,X0,PR1
         0 000077   000114 600000 0                  TZE     s:1215

     1030     1213    1             F$DCB.BFR.DA(BUFNUM) ~= 0) OR F$DCB.BFR1.CX(BUFNUM) > 0 THEN
     1031     1214    1             CALL FMC$FINISH(BUFNUM, BYTES, FC, FLAG) ALTRET(ERR);

   1214  0 000100   200017 633500                    EPPR3   FLAG,,AUTO
         0 000101   200033 453500                    STP3    NUM+4,,AUTO
         0 000102   200014 634500                    EPPR4   FC,,AUTO
         0 000103   200032 454500                    STP4    NUM+3,,AUTO
         0 000104   200012 635500                    EPPR5   BYTES,,AUTO
         0 000105   200031 455500                    STP5    NUM+2,,AUTO
         0 000106   200003 236100                    LDQ     @BUFNUM,,AUTO
         0 000107   200030 756100                    STQ     NUM+1,,AUTO
         0 000110   200030 630500                    EPPR0   NUM+1,,AUTO
         0 000111   000022 631400 xsym               EPPR1   B_VECTNIL+18
         0 000112   000000 701000 xent               TSX1    FMC$FINISH
         0 000113   000363 702000 0                  TSX2    ERR

     1032     1215    1          F$DCB.GTYP=GTYP;

   1215  0 000114   200004 470500                    LDP0    JDCB$,,AUTO
         0 000115   200020 236100                    LDQ     GTYP,,AUTO
         0 000116   000035 736000                    QLS     29
         0 000117   000064 676100                    ERQ     52,,PR0
         0 000120   034000 376003                    ANQ     14336,DU
         0 000121   000064 656100                    ERSQ    52,,PR0

     1033     1216    1          F$DCB.LVL=LVL;

   1216  0 000122   200021 236100                    LDQ     LVL,,AUTO
PL6.E3A0      #005=FMD$WRTBUF File=FMD$BUF.:E05TSI                               TUE 07/29/97 16:40 Page:195
         0 000123   000036 736000                    QLS     30
         0 000124   000067 676100                    ERQ     55,,PR0
         0 000125   070000 376003                    ANQ     28672,DU
         0 000126   000067 656100                    ERSQ    55,,PR0

     1034     1217
     1035     1218    1          IF FLAG = 0 THEN

   1218  0 000127   200017 235100                    LDA     FLAG,,AUTO
         0 000130   000340 601000 0                  TNZ     s:1266

     1036     1219    2             DO;   /* WASN'T CACHED */

     1037     1220    2             DA=F$DCB.BFR.DA(BUFNUM);

   1220  0 000131   200003 471500                    LDP1    @BUFNUM,,AUTO
         0 000132   100000 720100                    LXL0    0,,PR1
         0 000133   000115 236110                    LDQ     77,X0,PR0
         0 000134   000032 376000 xsym               ANQ     B_VECTNIL+26
         0 000135   200013 756100                    STQ     DA,,AUTO

     1038     1221    2             IF F$DCB.CFU$ ~= ADDR(NIL) AND DA ~= 0 THEN

   1221  0 000136   000066 236100                    LDQ     54,,PR0
         0 000137   000001 116000 xsym               CMPQ    B_VECTNIL+1
         0 000140   000151 600000 0                  TZE     s:1223
         0 000141   200013 235100                    LDA     DA,,AUTO
         0 000142   000151 600000 0                  TZE     s:1223

     1039     1222    2                CALL FMC$CLR1(DA);

   1222  0 000143   200013 633500                    EPPR3   DA,,AUTO
         0 000144   200030 453500                    STP3    NUM+1,,AUTO
         0 000145   200030 630500                    EPPR0   NUM+1,,AUTO
         0 000146   000017 631400 xsym               EPPR1   B_VECTNIL+15
         0 000147   000000 701000 xent               TSX1    FMC$CLR1
         0 000150   000000 011000                    NOP     0
PL6.E3A0      #005=FMD$WRTBUF File=FMD$BUF.:E05TSI                               TUE 07/29/97 16:40 Page:196

     1040     1223    2             IF F$DCB.BFR.BUFUP(BUFNUM) THEN

   1223  0 000151   200003 470500                    LDP0    @BUFNUM,,AUTO
         0 000152   000000 720100                    LXL0    0,,PR0
         0 000153   200004 471500                    LDP1    JDCB$,,AUTO
         0 000154   100115 234110                    SZN     77,X0,PR1
         0 000155   000277 605000 0                  TPL     s:1251

     1041     1224    3                DO;   /* WRITE THE BUFFER */

     1042     1225    3                EAINFO='0'B;

   1225  0 000156   200022 450100                    STZ     EAINFO,,AUTO

     1043     1226    3                VPNO=F$DCB.BFR.BUFX(BUFNUM);

   1226  0 000157   000000 720100                    LXL0    0,,PR0
         0 000160   100115 236110                    LDQ     77,X0,PR1
         0 000161   000033 772000                    QRL     27
         0 000162   000037 376007                    ANQ     31,DL
         0 000163   200006 756100                    STQ     VPNO,,AUTO

     1044     1227    3                IF NOT(JDCB$->F$DCB.BFR.CVM(BUFNUM)) THEN

   1227  0 000164   000000 720100                    LXL0    0,,PR0
         0 000165   100115 236110                    LDQ     77,X0,PR1
         0 000166   040000 316003                    CANQ    16384,DU
         0 000167   000201 601000 0                  TNZ     s:1231

     1045     1228    3                   CALL MMJ$FBTOIOPM(VPNO, OLDPP);

   1228  0 000170   200010 633500                    EPPR3   OLDPP,,AUTO
         0 000171   200031 453500                    STP3    NUM+2,,AUTO
         0 000172   200006 634500                    EPPR4   VPNO,,AUTO
         0 000173   200030 454500                    STP4    NUM+1,,AUTO
         0 000174   200030 630500                    EPPR0   NUM+1,,AUTO
PL6.E3A0      #005=FMD$WRTBUF File=FMD$BUF.:E05TSI                               TUE 07/29/97 16:40 Page:197
         0 000175   000020 631400 xsym               EPPR1   B_VECTNIL+16
         0 000176   000000 701000 xent               TSX1    MMJ$FBTOIOPM
         0 000177   000000 011000                    NOP     0
         0 000200   000206 710000 0                  TRA     s:1236

     1046     1229    3                ELSE
     1047     1230    4                   DO;

     1048     1231    4                   OLDPP=JDCB$->F$DCB.CFU$->FM$CFUJ.PAGE#;

   1231  0 000201   100066 473500                    LDP3    54,,PR1
         0 000202   300005 236100                    LDQ     5,,PR3
         0 000203   777777 376007                    ANQ     -1,DL
         0 000204   200010 756100                    STQ     OLDPP,,AUTO

     1049     1232    4                   IF OLDPP=0 THEN

   1232  0 000205   000402 600000 0                  TZE     XMAPERR

     1050     1233    4                      GOTO XMAPERR;
     1051     1234    4                   END;

     1052     1235
     1053     1236    3                EAINFO.PAGE=OLDPP;

   1236  0 000206   200010 720100                    LXL0    OLDPP,,AUTO
         0 000207   200022 440100                    SXL0    EAINFO,,AUTO

     1054     1237
     1055     1238    3                DA=JDCB$->F$DCB.BFR.DA(BUFNUM);

   1238  0 000210   200003 470500                    LDP0    @BUFNUM,,AUTO
         0 000211   000000 721100                    LXL1    0,,PR0
         0 000212   200004 471500                    LDP1    JDCB$,,AUTO
         0 000213   100115 236111                    LDQ     77,X1,PR1
         0 000214   000032 376000 xsym               ANQ     B_VECTNIL+26
         0 000215   200013 756100                    STQ     DA,,AUTO
PL6.E3A0      #005=FMD$WRTBUF File=FMD$BUF.:E05TSI                               TUE 07/29/97 16:40 Page:198

     1056     1239    3                CALL FMC$CLR1(DA);

   1239  0 000216   200013 633500                    EPPR3   DA,,AUTO
         0 000217   200030 453500                    STP3    NUM+1,,AUTO
         0 000220   200030 630500                    EPPR0   NUM+1,,AUTO
         0 000221   000017 631400 xsym               EPPR1   B_VECTNIL+15
         0 000222   000000 701000 xent               TSX1    FMC$CLR1
         0 000223   000000 011000                    NOP     0

     1057     1240    3                CALL FMB$RIO(0,OLDPP,BYTES,DA,FC,0,

   1240  0 000224   000000 636000 xent               EAQ     FMD$WRTAHDEA
         0 000225   200030 756100                    STQ     NUM+1,,AUTO
         0 000226   200022 630500                    EPPR0   EAINFO,,AUTO
         0 000227   200041 450500                    STP0    NUM+10,,AUTO
         0 000230   200030 631500                    EPPR1   NUM+1,,AUTO
         0 000231   200040 451500                    STP1    NUM+9,,AUTO
         0 000232   000000 236000 1                  LDQ     0
         0 000233   200037 756100                    STQ     NUM+8,,AUTO
         0 000234   200014 633500                    EPPR3   FC,,AUTO
         0 000235   200036 453500                    STP3    NUM+7,,AUTO
         0 000236   200013 634500                    EPPR4   DA,,AUTO
         0 000237   200035 454500                    STP4    NUM+6,,AUTO
         0 000240   200012 635500                    EPPR5   BYTES,,AUTO
         0 000241   200034 455500                    STP5    NUM+5,,AUTO
         0 000242   200010 636500                    EPPR6   OLDPP,,AUTO
         0 000243   200033 456500                    STP6    NUM+4,,AUTO
         0 000244   200032 756100                    STQ     NUM+3,,AUTO
         0 000245   200032 630500                    EPPR0   NUM+3,,AUTO
         0 000246   000026 631400 xsym               EPPR1   B_VECTNIL+22
         0 000247   000000 701000 xent               TSX1    FMB$RIO
         0 000250   000363 702000 0                  TSX2    ERR

     1058     1241    3                   ENTADDR(FMD$WRTAHDEA),EAINFO) ALTRET(ERR);
     1059     1242
     1060     1243    3                CALL MMJ$UNMAPIOP(VPNO);
PL6.E3A0      #005=FMD$WRTBUF File=FMD$BUF.:E05TSI                               TUE 07/29/97 16:40 Page:199

   1243  0 000251   200006 630500                    EPPR0   VPNO,,AUTO
         0 000252   200030 450500                    STP0    NUM+1,,AUTO
         0 000253   200030 630500                    EPPR0   NUM+1,,AUTO
         0 000254   000017 631400 xsym               EPPR1   B_VECTNIL+15
         0 000255   000000 701000 xent               TSX1    MMJ$UNMAPIOP
         0 000256   000000 011000                    NOP     0

     1061     1244    3                IF (JDCB$->F$DCB.BFR.CVM(BUFNUM)) THEN

   1244  0 000257   200003 470500                    LDP0    @BUFNUM,,AUTO
         0 000260   000000 720100                    LXL0    0,,PR0
         0 000261   200004 471500                    LDP1    JDCB$,,AUTO
         0 000262   100115 236110                    LDQ     77,X0,PR1
         0 000263   040000 316003                    CANQ    16384,DU
         0 000264   000270 600000 0                  TZE     s:1247

     1062     1245    3                   JDCB$->F$DCB.CFU$->FM$CFUJ.PAGE#=0;

   1245  0 000265   100066 473500                    LDP3    54,,PR1
         0 000266   000000 221003                    LDX1    0,DU
         0 000267   300005 441100                    SXL1    5,,PR3

     1063     1246
     1064     1247    3                F$DCB.BFR(BUFNUM)=F$DCB.BFR(BUFNUM)&'000777777777'O;

   1247  0 000270   000000 720100                    LXL0    0,,PR0
         0 000271   100115 236110                    LDQ     77,X0,PR1
         0 000272   000032 376000 xsym               ANQ     B_VECTNIL+26
         0 000273   100115 756110                    STQ     77,X0,PR1

     1065     1248    3                F$DCB.BFR1(BUFNUM)='0'B;

   1248  0 000274   000000 720100                    LXL0    0,,PR0
         0 000275   100122 450110                    STZ     82,X0,PR1

     1066     1249    3                END;  /* WRITE THE BUFFER */
PL6.E3A0      #005=FMD$WRTBUF File=FMD$BUF.:E05TSI                               TUE 07/29/97 16:40 Page:200

   1249  0 000276   000340 710000 0                  TRA     s:1266

     1067     1250    2             ELSE
     1068     1251    2                IF ENTFLG ~= 2 THEN

   1251  0 000277   200011 235100                    LDA     ENTFLG,,AUTO
         0 000300   000002 115007                    CMPA    2,DL
         0 000301   000340 600000 0                  TZE     s:1266

     1069     1252    3                   DO;   /* RELEASE BUFFER */

     1070     1253    3                   IF JDCB$->F$DCB.BFR.CVM(BUFNUM) AND

   1253  0 000302   100115 236110                    LDQ     77,X0,PR1
         0 000303   040000 316003                    CANQ    16384,DU
         0 000304   000334 600000 0                  TZE     s:1262
         0 000305   100066 236100                    LDQ     54,,PR1
         0 000306   000001 116000 xsym               CMPQ    B_VECTNIL+1
         0 000307   000334 600000 0                  TZE     s:1262

     1071     1254    3                      JDCB$->F$DCB.CFU$ ~= ADDR(NIL) THEN
     1072     1255    4                      DO;   /* FREE JRNL PAGE */

     1073     1256    4                      CALL FMD$RELBUF(BUFNUM);

   1256  0 000310   200003 630500                    EPPR0   @BUFNUM,,AUTO
         0 000311   000017 631400 xsym               EPPR1   B_VECTNIL+15
         0 000312   000000 701000 xent               TSX1    FMD$RELBUF
         0 000313   000000 011000                    NOP     0

     1074     1257    4                      PPNO=JDCB$->F$DCB.CFU$->FM$CFUJ.PAGE#;

   1257  0 000314   200004 470500                    LDP0    JDCB$,,AUTO
         0 000315   000066 471500                    LDP1    54,,PR0
         0 000316   100005 236100                    LDQ     5,,PR1
         0 000317   777777 376007                    ANQ     -1,DL
PL6.E3A0      #005=FMD$WRTBUF File=FMD$BUF.:E05TSI                               TUE 07/29/97 16:40 Page:201
         0 000320   200007 756100                    STQ     PPNO,,AUTO

     1075     1258    4                      CALL MMJ$FIOP(PPNO);

   1258  0 000321   200007 633500                    EPPR3   PPNO,,AUTO
         0 000322   200030 453500                    STP3    NUM+1,,AUTO
         0 000323   200030 630500                    EPPR0   NUM+1,,AUTO
         0 000324   000017 631400 xsym               EPPR1   B_VECTNIL+15
         0 000325   000000 701000 xent               TSX1    MMJ$FIOP
         0 000326   000000 011000                    NOP     0

     1076     1259    4                      JDCB$->F$DCB.CFU$->FM$CFUJ.PAGE#=0;

   1259  0 000327   200004 470500                    LDP0    JDCB$,,AUTO
         0 000330   000066 471500                    LDP1    54,,PR0
         0 000331   000000 220003                    LDX0    0,DU
         0 000332   100005 440100                    SXL0    5,,PR1

     1077     1260    4                      END;  /* FREE JRNL PAGE */

   1260  0 000333   000340 710000 0                  TRA     s:1266

     1078     1261    3                   ELSE
     1079     1262    3                      CALL FMD$RELBUF(BUFNUM);

   1262  0 000334   200003 630500                    EPPR0   @BUFNUM,,AUTO
         0 000335   000017 631400 xsym               EPPR1   B_VECTNIL+15
         0 000336   000000 701000 xent               TSX1    FMD$RELBUF
         0 000337   000000 011000                    NOP     0

     1080     1263    3                   END;   /* RELEASE BUFFER */

     1081     1264    2             END;  /* WASN'T CACHED */

     1082     1265
     1083     1266    1          IF F$DCB.BFR.BUFX(BUFNUM) = 0 AND ENTFLG = 2 THEN

PL6.E3A0      #005=FMD$WRTBUF File=FMD$BUF.:E05TSI                               TUE 07/29/97 16:40 Page:202
   1266  0 000340   200003 470500                    LDP0    @BUFNUM,,AUTO
         0 000341   000000 720100                    LXL0    0,,PR0
         0 000342   200004 471500                    LDP1    JDCB$,,AUTO
         0 000343   100115 236110                    LDQ     77,X0,PR1
         0 000344   037000 316003                    CANQ    15872,DU
         0 000345   000362 601000 0                  TNZ     s:1268
         0 000346   200011 235100                    LDA     ENTFLG,,AUTO
         0 000347   000002 115007                    CMPA    2,DL
         0 000350   000362 601000 0                  TNZ     s:1268

     1084     1267    1             CALL FMD$GETBUF(BUFNUM, 1, BUF$);

   1267  0 000351   200005 633500                    EPPR3   BUF$,,AUTO
         0 000352   200032 453500                    STP3    NUM+3,,AUTO
         0 000353   000001 236000 1                  LDQ     1
         0 000354   200003 235100                    LDA     @BUFNUM,,AUTO
         0 000355   200030 757100                    STAQ    NUM+1,,AUTO
         0 000356   200030 630500                    EPPR0   NUM+1,,AUTO
         0 000357   000021 631400 xsym               EPPR1   B_VECTNIL+17
         0 000360   000000 701000 xent               TSX1    FMD$GETBUF
         0 000361   000000 011000                    NOP     0

     1085     1268    1          RETURN;

   1268  0 000362   000000 702200 xent               TSX2  ! X66_ARET

     1086     1269
     1087     1270    1   ERR:   EAINFO=F$DCB.BFR(BUFNUM);

   1270  0 000363   200003 470500       ERR          LDP0    @BUFNUM,,AUTO
         0 000364   000000 720100                    LXL0    0,,PR0
         0 000365   200004 471500                    LDP1    JDCB$,,AUTO
         0 000366   100115 236110                    LDQ     77,X0,PR1
         0 000367   200022 756100                    STQ     EAINFO,,AUTO

     1088     1271    1          F$DCB.BFR.BUFUP(BUFNUM)='0'B;   /* CLEAR FOR RUNDOWN                  */

PL6.E3A0      #005=FMD$WRTBUF File=FMD$BUF.:E05TSI                               TUE 07/29/97 16:40 Page:203
   1271  0 000370   000000 720100                    LXL0    0,,PR0
         0 000371   000031 236000 xsym               LDQ     B_VECTNIL+25
         0 000372   100115 356110                    ANSQ    77,X0,PR1

     1089     1272    1          IF BINBIT(DA,36) = '777777777777'O THEN /* DISK NOT SPINNING? */

   1272  0 000373   200013 236100                    LDQ     DA,,AUTO
         0 000374   000027 116000 xsym               CMPQ    B_VECTNIL+23
         0 000375   000400 601000 0                  TNZ     s:1278

     1090     1273    1             CALL SC_FMD101;

   1273  0 000376   000000 713400 xsym               CLIMB   SC_FMD101
         0 000377   000000 600000 xsid               climb   nvectors=         0

     1091     1274        /*S*   SCREECH_CODE:  FMD-S$FM101
     1092     1275        *      TYPE:   SUA
     1093     1276        *      MESSAGE:  Disk not spinning on write of uncached pool buffer */
     1094     1277
     1095     1278    1          CALL SC_FMD91;

   1278  0 000400   000000 713400 xsym               CLIMB   SC_FMD91
         0 000401   000000 600000 xsid               climb   nvectors=         0

     1096     1279        /*S*   SCREECH_CODE:  FMD-S$FM91
     1097     1280        *      TYPE:   SUA
     1098     1281        *      MESSAGE:  Illegal disk address for pool buffer */
     1099     1282
     1100     1283    1   XMAPERR: N=BITBIN(JDCB$->F$DCB.BFR1(BUFNUM)); /* SAVE                         */

   1283  0 000402   200003 470500       XMAPERR      LDP0    @BUFNUM,,AUTO
         0 000403   000000 720100                    LXL0    0,,PR0
         0 000404   200004 471500                    LDP1    JDCB$,,AUTO
         0 000405   100122 235110                    LDA     82,X0,PR1
         0 000406   200015 755100                    STA     N,,AUTO

     1101     1284    1          EAINFO=JDCB$->F$DCB.BFR(BUFNUM);
PL6.E3A0      #005=FMD$WRTBUF File=FMD$BUF.:E05TSI                               TUE 07/29/97 16:40 Page:204

   1284  0 000407   100115 236110                    LDQ     77,X0,PR1
         0 000410   200022 756100                    STQ     EAINFO,,AUTO

     1102     1285    1          JDCB$->F$DCB.BFR(BUFNUM)='0'B;  /* CLEAR SO THAT RUNDOWN              */

   1285  0 000411   000000 720100                    LXL0    0,,PR0
         0 000412   100115 450110                    STZ     77,X0,PR1

     1103     1286    1          JDCB$->F$DCB.BFR1(BUFNUM)='0'B; /* WON'T SCREECH AGAIN                */

   1286  0 000413   000000 720100                    LXL0    0,,PR0
         0 000414   100122 450110                    STZ     82,X0,PR1

     1104     1287    1          CALL SC_FMD89;

   1287  0 000415   000000 713400 xsym               CLIMB   SC_FMD89
         0 000416   000000 600000 xsid               climb   nvectors=         0
         0 000417   000422 710000 0                  TRA     s:1300

     1105     1288        /*S*   SCREECH_CODE:  FMD-S$FM89
     1106     1289        *      TYPE:   SUA
     1107     1290        *      MESSAGE:  Error manipulating map during write-ahead */
     1108     1291               %EJECT;
PL6.E3A0      #005=FMD$WRTBUF File=FMD$BUF.:E05TSI                               TUE 07/29/97 16:40 Page:205
     1109     1292        /*D*     ENTRY:    FMD$WRTCACHE
     1110     1293                 DESCRIPTION:
     1111     1294                      Calculates the size of the passed buffer (which is guaranteed
     1112     1295                      to be cached), and calls FMC$UPLIMIT to write it, if necessary.
     1113     1296        */
     1114     1297
     1115     1298    1   FMD$WRTCACHE: ENTRY(BUFNUM);

   1298  0 000420   000000 700200 xent  FMD$WRTCACHE TSX0  ! X66_AUTO_1
         0 000421   000042 000001                    ZERO    34,1

     1116     1299
     1117     1300    1           JDCB$ = B$JIT$->B$JIT.DCB$;

   1300  0 000422   000000 470400 xsym               LDP0    B$JIT$
         0 000423   000232 236100                    LDQ     154,,PR0
         0 000424   200004 756100                    STQ     JDCB$,,AUTO

     1118     1301    1           FLAG = 0;

   1301  0 000425   200017 450100                    STZ     FLAG,,AUTO

     1119     1302    1           GTYP = F$DCB.GTYP;

   1302  0 000426   200004 471500                    LDP1    JDCB$,,AUTO
         0 000427   100064 236100                    LDQ     52,,PR1
         0 000430   000035 772000                    QRL     29
         0 000431   000007 376007                    ANQ     7,DL
         0 000432   200020 756100                    STQ     GTYP,,AUTO

     1120     1303    1           LVL = F$DCB.LVL;

   1303  0 000433   100067 236100                    LDQ     55,,PR1
         0 000434   000036 772000                    QRL     30
         0 000435   000007 376007                    ANQ     7,DL
         0 000436   200021 756100                    STQ     LVL,,AUTO

PL6.E3A0      #005=FMD$WRTBUF File=FMD$BUF.:E05TSI                               TUE 07/29/97 16:40 Page:206
     1121     1304    1           CALL CALCSIZ;

   1304  0 000437   000662 701000 0                  TSX1    CALCSIZ
         0 000440   000000 011000                    NOP     0

     1122     1305    1           CALL FMC$UPLIMIT(BUFNUM,BYTES,FC,FLAG) ALTRET(ERR);

   1305  0 000441   200017 630500                    EPPR0   FLAG,,AUTO
         0 000442   200033 450500                    STP0    NUM+4,,AUTO
         0 000443   200014 631500                    EPPR1   FC,,AUTO
         0 000444   200032 451500                    STP1    NUM+3,,AUTO
         0 000445   200012 633500                    EPPR3   BYTES,,AUTO
         0 000446   200031 453500                    STP3    NUM+2,,AUTO
         0 000447   200003 236100                    LDQ     @BUFNUM,,AUTO
         0 000450   200030 756100                    STQ     NUM+1,,AUTO
         0 000451   200030 630500                    EPPR0   NUM+1,,AUTO
         0 000452   000022 631400 xsym               EPPR1   B_VECTNIL+18
         0 000453   000000 701000 xent               TSX1    FMC$UPLIMIT
         0 000454   000363 702000 0                  TSX2    ERR

     1123     1306    1           F$DCB.BFR.BUFUP(BUFNUM) = '0'B;

   1306  0 000455   200003 470500                    LDP0    @BUFNUM,,AUTO
         0 000456   000000 720100                    LXL0    0,,PR0
         0 000457   200004 471500                    LDP1    JDCB$,,AUTO
         0 000460   000031 236000 xsym               LDQ     B_VECTNIL+25
         0 000461   100115 356110                    ANSQ    77,X0,PR1

     1124     1307    1           F$DCB.GTYP = GTYP;

   1307  0 000462   200020 236100                    LDQ     GTYP,,AUTO
         0 000463   000035 736000                    QLS     29
         0 000464   100064 676100                    ERQ     52,,PR1
         0 000465   034000 376003                    ANQ     14336,DU
         0 000466   100064 656100                    ERSQ    52,,PR1

     1125     1308    1           F$DCB.LVL = LVL;
PL6.E3A0      #005=FMD$WRTBUF File=FMD$BUF.:E05TSI                               TUE 07/29/97 16:40 Page:207

   1308  0 000467   200021 236100                    LDQ     LVL,,AUTO
         0 000470   000036 736000                    QLS     30
         0 000471   100067 676100                    ERQ     55,,PR1
         0 000472   070000 376003                    ANQ     28672,DU
         0 000473   100067 656100                    ERSQ    55,,PR1

     1126     1309    1           RETURN;

   1309  0 000474   000000 702200 xent               TSX2  ! X66_ARET

     1127     1310               %EJECT;
PL6.E3A0      #005=FMD$WRTBUF File=FMD$BUF.:E05TSI                               TUE 07/29/97 16:40 Page:208
     1128     1311        /*D*     ENTRY:    FMD$WRTSV
     1129     1312                 ENTRY:    FMD$WRTSVNW
     1130     1313                 DESCRIPTION:
     1131     1314
     1132     1315                      These routines just write out a buffer without releasing
     1133     1316                 it.  One waits, one doesn't (guess).
     1134     1317        */
     1135     1318               %EJECT;
PL6.E3A0      #005=FMD$WRTBUF File=FMD$BUF.:E05TSI                               TUE 07/29/97 16:40 Page:209
     1136     1319    1   FMD$WRTSV: ENTRY(BUFNUM);

   1319  0 000475   000000 700200 xent  FMD$WRTSV    TSX0  ! X66_AUTO_1
         0 000476   000042 000001                    ZERO    34,1

     1137     1320    1          WAITFLG=1;

   1320  0 000477   000001 235007                    LDA     1,DL
         0 000500   200016 755100                    STA     WAITFLG,,AUTO

     1138     1321    1          GOTO BEGSV;

   1321  0 000501   000505 710000 0                  TRA     BEGSV

     1139     1322        /* */
     1140     1323    1   FMD$WRTSVNW: ENTRY(BUFNUM);

   1323  0 000502   000000 700200 xent  FMD$WRTSVNW  TSX0  ! X66_AUTO_1
         0 000503   000042 000001                    ZERO    34,1

     1141     1324    1          WAITFLG=0;

   1324  0 000504   200016 450100                    STZ     WAITFLG,,AUTO

     1142     1325        /* */
     1143     1326    1   BEGSV:  JDCB$=B$JIT$->B$JIT.DCB$;       /* POINTER TO CURRENT DCB             */

   1326  0 000505   000000 470400 xsym  BEGSV        LDP0    B$JIT$
         0 000506   000232 236100                    LDQ     154,,PR0
         0 000507   200004 756100                    STQ     JDCB$,,AUTO

     1144     1327    1          IF BUFNUM>4 THEN

   1327  0 000510   200003 471500                    LDP1    @BUFNUM,,AUTO
         0 000511   100000 235100                    LDA     0,,PR1
         0 000512   000005 115007                    CMPA    5,DL
         0 000513   000516 602000 0                  TNC     s:1329
PL6.E3A0      #005=FMD$WRTBUF File=FMD$BUF.:E05TSI                               TUE 07/29/97 16:40 Page:210

     1145     1328    1             CALL SC_FMD90;

   1328  0 000514   000000 713400 xsym               CLIMB   SC_FMD90
         0 000515   000000 600000 xsid               climb   nvectors=         0

     1146     1329    1          CALL WRTBFR ALTRET(ERR);

   1329  0 000516   000521 701000 0                  TSX1    WRTBFR
         0 000517   000363 702000 0                  TSX2    ERR

     1147     1330    1          RETURN;

   1330  0 000520   000000 702200 xent               TSX2  ! X66_ARET

     1148     1331               %EJECT;
PL6.E3A0      #005=FMD$WRTBUF File=FMD$BUF.:E05TSI                               TUE 07/29/97 16:40 Page:211
     1149     1332        /*I*     NAME:     WRTBFR
     1150     1333                 PURPOSE:  To write a buffer out
     1151     1334                 DESCRIPTION:
     1152     1335
     1153     1336                      Call CALCSIZ to set up some values, then write the
     1154     1337                 buffer out.
     1155     1338        */
     1156     1339                 %EJECT;
PL6.E3A0      #005=FMD$WRTBUF File=FMD$BUF.:E05TSI                               TUE 07/29/97 16:40 Page:212
     1157     1340        /* WRITE BUFFER IN-PLACE NO-WAIT */
     1158     1341    1   WRTBFR: PROC ALTRET;

   1341  0 000521   200024 741300       WRTBFR       STX1  ! EAINFO+2,,AUTO

     1159     1342        /* */
     1160     1343    2          LVL=F$DCB.LVL;

   1343  0 000522   200004 470500                    LDP0    JDCB$,,AUTO
         0 000523   000067 236100                    LDQ     55,,PR0
         0 000524   000036 772000                    QRL     30
         0 000525   000007 376007                    ANQ     7,DL
         0 000526   200021 756100                    STQ     LVL,,AUTO

     1161     1344    2          GTYP=F$DCB.GTYP;

   1344  0 000527   000064 236100                    LDQ     52,,PR0
         0 000530   000035 772000                    QRL     29
         0 000531   000007 376007                    ANQ     7,DL
         0 000532   200020 756100                    STQ     GTYP,,AUTO

     1162     1345    2          CALL CALCSIZ;

   1345  0 000533   000662 701000 0                  TSX1    CALCSIZ
         0 000534   000000 011000                    NOP     0

     1163     1346    2          IF ~F$DCB.BFR.CVM(BUFNUM) AND F$DCB.BFR.DA(BUFNUM) ~= 0 AND

   1346  0 000535   200003 470500                    LDP0    @BUFNUM,,AUTO
         0 000536   000000 720100                    LXL0    0,,PR0
         0 000537   200004 471500                    LDP1    JDCB$,,AUTO
         0 000540   100115 236110                    LDQ     77,X0,PR1
         0 000541   000003 736000                    QLS     3
         0 000542   400000 376003                    ANQ     -131072,DU
         0 000543   400000 676003                    ERQ     -131072,DU
         0 000544   000557 600000 0                  TZE     s:1350
         0 000545   100115 236110                    LDQ     77,X0,PR1
PL6.E3A0      #005=FMD$WRTBUF File=FMD$BUF.:E05TSI                               TUE 07/29/97 16:40 Page:213
         0 000546   000032 316000 xsym               CANQ    B_VECTNIL+26
         0 000547   000557 600000 0                  TZE     s:1350
         0 000550   100122 721110                    LXL1    82,X0,PR1
         0 000551   000557 601000 0                  TNZ     s:1350

     1164     1347    2             F$DCB.BFR1.CX(BUFNUM) = 0 THEN
     1165     1348    2             CALL FMC$STASH(BUFNUM);

   1348  0 000552   200003 630500                    EPPR0   @BUFNUM,,AUTO
         0 000553   000017 631400 xsym               EPPR1   B_VECTNIL+15
         0 000554   000000 701000 xent               TSX1    FMC$STASH
         0 000555   000000 011000                    NOP     0
         0 000556   000575 710000 0                  TRA     s:1356

     1166     1349    2          ELSE
     1167     1350    2             IF F$DCB.BFR1.CX(BUFNUM) = 0 AND F$DCB.BFR.DA(BUFNUM) ~= 0 THEN

   1350  0 000557   100122 721110                    LXL1    82,X0,PR1
         0 000560   000575 601000 0                  TNZ     s:1356
         0 000561   100115 236110                    LDQ     77,X0,PR1
         0 000562   000032 316000 xsym               CANQ    B_VECTNIL+26
         0 000563   000575 600000 0                  TZE     s:1356

     1168     1351    3                DO;   /* CLEAR CACHE */

     1169     1352    3                DA=F$DCB.BFR.DA(BUFNUM);

   1352  0 000564   100115 236110                    LDQ     77,X0,PR1
         0 000565   000032 376000 xsym               ANQ     B_VECTNIL+26
         0 000566   200013 756100                    STQ     DA,,AUTO

     1170     1353    3                CALL FMC$CLR1(DA);

   1353  0 000567   200013 633500                    EPPR3   DA,,AUTO
         0 000570   200030 453500                    STP3    NUM+1,,AUTO
         0 000571   200030 630500                    EPPR0   NUM+1,,AUTO
         0 000572   000017 631400 xsym               EPPR1   B_VECTNIL+15
PL6.E3A0      #005=FMD$WRTBUF File=FMD$BUF.:E05TSI                               TUE 07/29/97 16:40 Page:214
         0 000573   000000 701000 xent               TSX1    FMC$CLR1
         0 000574   000000 011000                    NOP     0

     1171     1354    3                END;  /* CLEAR CACHE */

     1172     1355
     1173     1356    2          F$DCB.LVL=LVL;

   1356  0 000575   200004 470500                    LDP0    JDCB$,,AUTO
         0 000576   200021 236100                    LDQ     LVL,,AUTO
         0 000577   000036 736000                    QLS     30
         0 000600   000067 676100                    ERQ     55,,PR0
         0 000601   070000 376003                    ANQ     28672,DU
         0 000602   000067 656100                    ERSQ    55,,PR0

     1174     1357    2          F$DCB.GTYP=GTYP;

   1357  0 000603   200020 236100                    LDQ     GTYP,,AUTO
         0 000604   000035 736000                    QLS     29
         0 000605   000064 676100                    ERQ     52,,PR0
         0 000606   034000 376003                    ANQ     14336,DU
         0 000607   000064 656100                    ERSQ    52,,PR0

     1175     1358    2          DA=JDCB$->F$DCB.BFR.DA(BUFNUM);

   1358  0 000610   200003 471500                    LDP1    @BUFNUM,,AUTO
         0 000611   100000 720100                    LXL0    0,,PR1
         0 000612   000115 236110                    LDQ     77,X0,PR0
         0 000613   000032 376000 xsym               ANQ     B_VECTNIL+26
         0 000614   200013 756100                    STQ     DA,,AUTO

     1176     1359    2          CALL FMB$QUEUE(BUF$,0,BYTES,DA,FC,WAITFLG,ENTADDR(NIL),0) ALTRET(ERR);

   1359  0 000615   000002 237000 1                  LDAQ    2
         0 000616   200036 757100                    STAQ    NUM+7,,AUTO
         0 000617   200016 633500                    EPPR3   WAITFLG,,AUTO
         0 000620   200035 453500                    STP3    NUM+6,,AUTO
PL6.E3A0      #005=FMD$WRTBUF File=FMD$BUF.:E05TSI                               TUE 07/29/97 16:40 Page:215
         0 000621   200014 634500                    EPPR4   FC,,AUTO
         0 000622   200034 454500                    STP4    NUM+5,,AUTO
         0 000623   200013 635500                    EPPR5   DA,,AUTO
         0 000624   200033 455500                    STP5    NUM+4,,AUTO
         0 000625   200012 636500                    EPPR6   BYTES,,AUTO
         0 000626   200032 456500                    STP6    NUM+3,,AUTO
         0 000627   000000 236000 1                  LDQ     0
         0 000630   200031 756100                    STQ     NUM+2,,AUTO
         0 000631   200005 637500                    EPPR7   BUF$,,AUTO
         0 000632   200030 457500                    STP7    NUM+1,,AUTO
         0 000633   200030 630500                    EPPR0   NUM+1,,AUTO
         0 000634   000026 631400 xsym               EPPR1   B_VECTNIL+22
         0 000635   000000 701000 xent               TSX1    FMB$QUEUE
         0 000636   000646 702000 0                  TSX2    ERR

     1177     1360    2          JDCB$->F$DCB.BFR.BUFUP(BUFNUM)='0'B;

   1360  0 000637   200003 470500                    LDP0    @BUFNUM,,AUTO
         0 000640   000000 720100                    LXL0    0,,PR0
         0 000641   200004 471500                    LDP1    JDCB$,,AUTO
         0 000642   000031 236000 xsym               LDQ     B_VECTNIL+25
         0 000643   100115 356110                    ANSQ    77,X0,PR1

     1178     1361    2          RETURN;

   1361  0 000644   200024 221300                    LDX1  ! EAINFO+2,,AUTO
         0 000645   000001 702211                    TSX2  ! 1,X1

     1179     1362    2   ERR:   IF BINBIT(DA,36) = '777777777777'O AND F$DCB.BFR1.CX(BUFNUM) ~= 0 THEN

   1362  0 000646   200013 236100       ERR          LDQ     DA,,AUTO
         0 000647   000027 116000 xsym               CMPQ    B_VECTNIL+23
         0 000650   000660 601000 0                  TNZ     s:1364
         0 000651   200003 470500                    LDP0    @BUFNUM,,AUTO
         0 000652   000000 720100                    LXL0    0,,PR0
         0 000653   200004 471500                    LDP1    JDCB$,,AUTO
         0 000654   100122 721110                    LXL1    82,X0,PR1
PL6.E3A0      #005=FMD$WRTBUF File=FMD$BUF.:E05TSI                               TUE 07/29/97 16:40 Page:216
         0 000655   000660 600000 0                  TZE     s:1364

     1180     1363    2             RETURN;

   1363  0 000656   200024 221300                    LDX1  ! EAINFO+2,,AUTO
         0 000657   000001 702211                    TSX2  ! 1,X1

     1181     1364    2          ALTRETURN;

   1364  0 000660   200024 221300                    LDX1  ! EAINFO+2,,AUTO
         0 000661   000000 702211                    TSX2  ! 0,X1

     1182     1365    2          END WRTBFR;
     1183     1366               %EJECT;
PL6.E3A0      #005=FMD$WRTBUF File=FMD$BUF.:E05TSI                               TUE 07/29/97 16:40 Page:217
     1184     1367        /*I*     NAME:     CALCSIZ
     1185     1368                 PURPOSE:  To set up value for the write
     1186     1369                 DESCRIPTION:
     1187     1370
     1188     1371                      Set up GTYP and LVL in the DCB for use by FMC.  Set up
     1189     1372                 the type of write we are going to do.  Set up the number
     1190     1373                 of bytes we want to write.
     1191     1374        */
     1192     1375                 %EJECT;
PL6.E3A0      #005=FMD$WRTBUF File=FMD$BUF.:E05TSI                               TUE 07/29/97 16:40 Page:218
     1193     1376        /* Calculate # words to write, and scrub if necessary */
     1194     1377    1   CALCSIZ: PROC;

   1377  0 000662   200026 741300       CALCSIZ      STX1  ! EAINFO+4,,AUTO

     1195     1378        /* LOCAL AUTOMATIC STORAGE */
     1196     1379    2   DCL NUM UBIN;
     1197     1380        /* BASED STORAGE */
     1198     1381    2   DCL ZAP CHAR(NUM) BASED ALIGNED;
     1199     1382
     1200     1383    2          BUF$=FM$BUF$(F$DCB.BFR.BUFX(BUFNUM)); /* Buffer pointer               */

   1383  0 000663   200003 470500                    LDP0    @BUFNUM,,AUTO
         0 000664   000000 720100                    LXL0    0,,PR0
         0 000665   200004 471500                    LDP1    JDCB$,,AUTO
         0 000666   100115 236110                    LDQ     77,X0,PR1
         0 000667   000033 772000                    QRL     27
         0 000670   000037 376007                    ANQ     31,DL
         0 000671   000000 236006 xsym               LDQ     FM$BUF$,QL
         0 000672   200005 756100                    STQ     BUF$,,AUTO

     1201     1384    2          IF FM$GRAN.ORG = 0 THEN

   1384  0 000673   200005 473500                    LDP3    BUF$,,AUTO
         0 000674   300001 236100                    LDQ     1,,PR3
         0 000675   036000 316007                    CANQ    15360,DL
         0 000676   000704 601000 0                  TNZ     s:1388

     1202     1385    2             F$DCB.GTYP=FM$GRAN.LVL;

   1385  0 000677   000017 736000                    QLS     15
         0 000700   100064 676100                    ERQ     52,,PR1
         0 000701   034000 376003                    ANQ     14336,DU
         0 000702   100064 656100                    ERSQ    52,,PR1
         0 000703   000715 710000 0                  TRA     s:1391

     1203     1386    2          ELSE
PL6.E3A0      #005=FMD$WRTBUF File=FMD$BUF.:E05TSI                               TUE 07/29/97 16:40 Page:219
     1204     1387    3             DO;

     1205     1388    3             F$DCB.GTYP=FMGTFILE;

   1388  0 000704   100064 236100                    LDQ     52,,PR1
         0 000705   000004 376000 1                  ANQ     4
         0 000706   030000 276003                    ORQ     12288,DU
         0 000707   100064 756100                    STQ     52,,PR1

     1206     1389    3             F$DCB.LVL=FM$GRAN.LVL;

   1389  0 000710   300001 236100                    LDQ     1,,PR3
         0 000711   000020 736000                    QLS     16
         0 000712   100067 676100                    ERQ     55,,PR1
         0 000713   070000 376003                    ANQ     28672,DU
         0 000714   100067 656100                    ERSQ    55,,PR1

     1207     1390    3             END;

     1208     1391    2          FC=%N_WRBIN;                    /* Assume regular write               */

   1391  0 000715   000003 235007                    LDA     3,DL
         0 000716   200014 755100                    STA     FC,,AUTO

     1209     1392    2          IF FM$GRAN.ORG=0 THEN

   1392  0 000717   300001 236100                    LDQ     1,,PR3
         0 000720   036000 316007                    CANQ    15360,DL
         0 000721   000763 601000 0                  TNZ     s:1405

     1210     1393    3             DO CASE(FM$GRAN.LVL);

   1393  0 000722   300001 236100                    LDQ     1,,PR3
         0 000723   000016 772000                    QRL     14
         0 000724   000007 376007                    ANQ     7,DL
         0 000725   000010 116007                    CMPQ    8,DL
         0 000726   000730 602006 0                  TNC     s:1393+6,QL
PL6.E3A0      #005=FMD$WRTBUF File=FMD$BUF.:E05TSI                               TUE 07/29/97 16:40 Page:220
         0 000727   000763 710000 0                  TRA     s:1405
         0 000730   000763 710000 0                  TRA     s:1405
         0 000731   000740 710000 0                  TRA     CHKSET
         0 000732   000740 710000 0                  TRA     CHKSET
         0 000733   000740 710000 0                  TRA     CHKSET
         0 000734   000753 710000 0                  TRA     s:1398
         0 000735   000763 710000 0                  TRA     s:1405
         0 000736   000763 710000 0                  TRA     s:1405
         0 000737   000753 710000 0                  TRA     s:1398

     1211     1394    3                CASE(FMGTGP,FMGTMAD,FMGTPAD);

     1212     1395    3   CHKSET:         IF FM$SET.WRCMP(F$DCB.SETX) THEN

   1395  0 000740   200004 470500       CHKSET       LDP0    JDCB$,,AUTO
         0 000741   000051 236100                    LDQ     41,,PR0
         0 000742   000003 736000                    QLS     3
         0 000743   000005 376000 1                  ANQ     5
         0 000744   000000 471400 xsym               LDP1    FM$SET$
         0 000745   100002 236106                    LDQ     2,QL,PR1
         0 000746   100000 316003                    CANQ    32768,DU
         0 000747   000763 600000 0                  TZE     s:1405

     1213     1396    3                      FC=%N_WRCMP;  /* Write and compare */

   1396  0 000750   000007 235007                    LDA     7,DL
         0 000751   200014 755100                    STA     FC,,AUTO
         0 000752   000763 710000 0                  TRA     s:1405

     1214     1397    3                CASE(FMGTFD,FMGTFDSTAR);

     1215     1398    3                   IF F$DCB.STARF THEN

   1398  0 000753   100064 236100                    LDQ     52,,PR1
         0 000754   200000 316003                    CANQ    65536,DU
         0 000755   000740 601000 0                  TNZ     CHKSET

PL6.E3A0      #005=FMD$WRTBUF File=FMD$BUF.:E05TSI                               TUE 07/29/97 16:40 Page:221
     1216     1399    3                      GOTO CHKSET;
     1217     1400    3                   ELSE
     1218     1401    3                     IF F$DCB.WRCMP THEN

   1401  0 000756   100067 236100                    LDQ     55,,PR1
         0 000757   004000 316003                    CANQ    2048,DU
         0 000760   000763 600000 0                  TZE     s:1405

     1219     1402    3                        FC=%N_WRCMP;

   1402  0 000761   000007 235007                    LDA     7,DL
         0 000762   200014 755100                    STA     FC,,AUTO

     1220     1403    3             END;

     1221     1404
     1222     1405    2          IF BUF$->FM$GRAN.NAVX+BUF$->FM$GRAN.AVAIL~=1024 THEN

   1405  0 000763   200005 470500                    LDP0    BUF$,,AUTO
         0 000764   000001 236100                    LDQ     1,,PR0
         0 000765   001777 376007                    ANQ     1023,DL
         0 000766   200030 756100                    STQ     NUM+1,,AUTO
         0 000767   000001 236100                    LDQ     1,,PR0
         0 000770   000022 772000                    QRL     18
         0 000771   200030 036100                    ADLQ    NUM+1,,AUTO
         0 000772   002000 116007                    CMPQ    1024,DL
         0 000773   000777 600000 0                  TZE     s:1408

     1223     1406    2             BYTES=4096;

   1406  0 000774   010000 235007                    LDA     4096,DL
         0 000775   200012 755100                    STA     BYTES,,AUTO
         0 000776   001003 710000 0                  TRA     s:1410

     1224     1407    2          ELSE                            /* ONLY WRITE WHAT IS USED            */
     1225     1408    2             BYTES=BUF$->FM$GRAN.NAVX*4;

PL6.E3A0      #005=FMD$WRTBUF File=FMD$BUF.:E05TSI                               TUE 07/29/97 16:40 Page:222
   1408  0 000777   000001 236100                    LDQ     1,,PR0
         0 001000   000020 772000                    QRL     16
         0 001001   000006 376000 1                  ANQ     6
         0 001002   200012 756100                    STQ     BYTES,,AUTO

     1226     1409
     1227     1410    2          IF JDCB$->F$DCB.BFR.SCRUB(BUFNUM) THEN

   1410  0 001003   200003 471500                    LDP1    @BUFNUM,,AUTO
         0 001004   100000 720100                    LXL0    0,,PR1
         0 001005   200004 473500                    LDP3    JDCB$,,AUTO
         0 001006   300115 236110                    LDQ     77,X0,PR3
         0 001007   200000 316003                    CANQ    65536,DU
         0 001010   001031 600000 0                  TZE     s:1418

     1228     1411    3             DO; /* SCRUB AVAIL AREA */

     1229     1412    3             JDCB$->F$DCB.BFR.SCRUB(BUFNUM)='0'B;

   1412  0 001011   000007 236000 1                  LDQ     7
         0 001012   300115 356110                    ANSQ    77,X0,PR3

     1230     1413    3             BYTES=4096;

   1413  0 001013   010000 235007                    LDA     4096,DL
         0 001014   200012 755100                    STA     BYTES,,AUTO

     1231     1414    3             NUM=BUF$->FM$GRAN.AVAIL*4;

   1414  0 001015   200005 470500                    LDP0    BUF$,,AUTO
         0 001016   000001 236100                    LDQ     1,,PR0
         0 001017   000002 736000                    QLS     2
         0 001020   007774 376007                    ANQ     4092,DL
         0 001021   200027 756100                    STQ     NUM,,AUTO

     1232     1415    3             PINCRW(BUF$,BUF$->FM$GRAN.NAVX)->ZAP=' ';

PL6.E3A0      #005=FMD$WRTBUF File=FMD$BUF.:E05TSI                               TUE 07/29/97 16:40 Page:223
   1415  0 001022   000001 220100                    LDX0    1,,PR0
         0 001023   000000 635010                    EAA     0,X0
         0 001024   000020 771000                    ARL     16
         0 001025   000000 621006                    EAX1    0,QL
         0 001026   040145 100400                    MLR     fill='040'O
         0 001027   000035 000001 xsym               ADSC9   B_VECTNIL+29             cn=0,n=1
         0 001030   000000 000011                    ADSC9   0,A,PR0                  cn=0,n=*X1

     1233     1416    3             END;

     1234     1417
     1235     1418    2          RETURN;

   1418  0 001031   200026 221300                    LDX1  ! EAINFO+4,,AUTO
         0 001032   000001 702211                    TSX2  ! 1,X1

(unnamed)
 Sect OctLoc
   1     000   000002 006000   000003 006000   000002 006000   000002 006000    ................
   1     004   743777 777777   000007 777770   000003 777774   577777 777777    ................
     1236     1419    2          END CALCSIZ;
     1237     1420    1          END FMD$WRTBUF;
     1238     1421               %EOD;

PL6.E3A0      #005=FMD$WRTBUF File=FMD$BUF.:E05TSI                               TUE 07/29/97 16:40 Page:224
--  Include file information  --

   M_INFO_C.:E05TOU  is referenced.
   N_FC_C.:E05TOU  is referenced.
   B$JIT_C.:E05TOU  is referenced.
   F$JIT_C.:E05TOU  cannot be made into a system file and is referenced.
   FM_DATA_R.:E05TOU  cannot be made into a system file and is referenced.
   FM$MACROS.:E05TOU  is referenced.
   F$DCB.:E05TOU  is referenced.
      No diagnostics issued in procedure FMD$WRTBUF.
PL6.E3A0      #005=FMD$WRTBUF File=FMD$BUF.:E05TSI                               TUE 07/29/97 16:40 Page:225

 **** Variables and constants ****

  ****  Auto variables  ****

  ****  Scalars and arrays  ****
OctLoc.c.b A Datatyp(siz) R M Lvl/name                 OctLoc.c.b A Datatyp(siz) R M Lvl/name

     3-0-0/w PTR         r     1 @BUFNUM                    5-0-0/w PTR         r     1 BUF$
    *0-0-0/w UBIN        r     1 BUFNUM                    12-0-0/w UBIN        r     1 BYTES
    13-0-0/w UBIN        r     1 DA                        22-0-0/b STRC        r     1 EAINFO
    11-0-0/w SBIN        r     1 ENTFLG                    14-0-0/w UBIN        r     1 FC
    17-0-0/w SBIN        r     1 FLAG                      20-0-0/w UBIN        r     1 GTYP
     4-0-0/w PTR         r     1 JDCB$                     21-0-0/w UBIN        r     1 LVL
    15-0-0/w UBIN        r     1 N                         27-0-0/w UBIN        r     1 NUM
    10-0-0/w UBIN        r     1 OLDPP                      7-0-0/w UBIN        r     1 PPNO
     6-0-0/w UBIN        r     1 VPNO                      16-0-0/w SBIN        r     1 WAITFLG

  ****  SYMREF variables  ****

  ****  Scalars and arrays  ****
OctLoc.c.b A Datatyp(siz) R M Lvl/name                 OctLoc.c.b A Datatyp(siz) R M Lvl/name

     0-0-0/w PTR         r     1 B$JIT$
     0-0-0/w PTR         r     1 FM$BUF$(0:0)
     0-0-0/w PTR         r     1 FM$SET$

  ****  BASED and DCB variables  ****

  ****  Scalars and arrays  ****
OctLoc.c.b A Datatyp(siz) R M Lvl/name                 OctLoc.c.b A Datatyp(siz) R M Lvl/name

     0-0-0/d STRC(8856)  r     1 B$JIT                      0-0-0/d ASTR(3528)  r     1 F$DCB
     0-0-0/w STRC(288)   r     1 FM$CFUJ                    0-0-0/w STRC(180)   r     1 FM$GRAN
     0-0-0/w STRC(288)   r     1 FM$SET(0:0)                0-0-0/w ACHR        r     1 ZAP

PL6.E3A0      #005=FMD$WRTBUF File=FMD$BUF.:E05TSI                               TUE 07/29/97 16:40 Page:226

   Procedure FMD$WRTBUF requires 539 words for executable code.
   Procedure FMD$WRTBUF requires 34 words of local(AUTO) storage.
PL6.E3A0      #005=FMD$WRTBUF File=FMD$BUF.:E05TSI                               TUE 07/29/97 16:40 Page:227
          *** CROSS REFERENCE LISTING ***
**     DENOTES     IDENTIFIER DEFINITION
<<                 IDENTIFIER'S VALUE SET
>>                 IDENTIFIER'S VALUE USED
<>                 IDENTIFIER SET AND/OR USED
--                 IDENTIFIER REFERENCED
PL6.E3A0      #005=FMD$WRTBUF File=FMD$BUF.:E05TSI                               TUE 07/29/97 16:40 Page:228
          MINI XREF LISTING

B$JIT.DCB$
       927**DCL      1196>>ASSIGN   1300>>ASSIGN   1326>>ASSIGN
B$JIT.ERR.MID
       838**DCL       838--REDEF
B$JIT$
        67**DCL       832--IMP-PTR  1196>>ASSIGN   1300>>ASSIGN   1326>>ASSIGN
BEGSV
      1326**LABEL    1321--GOTO
BUF$
        50**DCL      1169--IMP-PTR  1267<>CALL     1359<>CALL     1383<<ASSIGN   1384>>IF       1385>>ASSIGN
      1389>>ASSIGN   1392>>IF       1393>>DOCASE   1405>>IF       1405>>IF       1408>>ASSIGN   1414>>ASSIGN
      1415>>ASSIGN   1415>>ASSIGN
BUFNUM
        28**DCL        26--PROC     1189--ENTRY    1192--ENTRY    1198>>ASSIGN   1199>>IF       1201>>IF
      1212>>IF       1212>>IF       1212>>IF       1212>>IF       1214<>CALL     1220>>ASSIGN   1223>>IF
      1226>>ASSIGN   1227>>IF       1238>>ASSIGN   1244>>IF       1247>>ASSIGN   1247>>ASSIGN   1248>>ASSIGN
      1253>>IF       1256<>CALL     1262<>CALL     1266>>IF       1267<>CALL     1270>>ASSIGN   1271>>ASSIGN
      1283>>ASSIGN   1284>>ASSIGN   1285>>ASSIGN   1286>>ASSIGN   1298--ENTRY    1305<>CALL     1306>>ASSIGN
      1319--ENTRY    1323--ENTRY    1327>>IF       1346>>IF       1346>>IF       1346>>IF       1348<>CALL
      1350>>IF       1350>>IF       1352>>ASSIGN   1358>>ASSIGN   1360>>ASSIGN   1362>>IF       1383>>ASSIGN
      1410>>IF       1412>>ASSIGN
BYTES
        55**DCL      1214<>CALL     1240<>CALL     1305<>CALL     1359<>CALL     1406<<ASSIGN   1408<<ASSIGN
      1413<<ASSIGN
CALCSIZ
      1377**PROC     1211--CALL     1304--CALL     1345--CALL
CHKSET IN PROCEDURE CALCSIZ
      1395**LABEL    1399--GOTO
COMMON
      1193**LABEL    1188--GOTO     1191--GOTO
DA
        56**DCL      1220<<ASSIGN   1221>>IF       1222<>CALL     1238<<ASSIGN   1239<>CALL     1240<>CALL
PL6.E3A0      #005=FMD$WRTBUF File=FMD$BUF.:E05TSI                               TUE 07/29/97 16:40 Page:229
      1272>>IF       1352<<ASSIGN   1353<>CALL     1358<<ASSIGN   1359<>CALL     1362>>IF
EAINFO
        63**DCL      1225<<ASSIGN   1240<>CALL     1270<<ASSIGN   1284<<ASSIGN
EAINFO.PAGE
        65**DCL      1236<<ASSIGN
ENTFLG
        54**DCL      1187<<ASSIGN   1190<<ASSIGN   1193<<ASSIGN   1197>>IF       1199>>IF       1251>>IF
      1266>>IF
ERR
      1270**LABEL    1214--CALLALT  1240--CALLALT  1305--CALLALT  1329--CALLALT
ERR IN PROCEDURE WRTBFR
      1362**LABEL    1359--CALLALT
F$DCB.ACTPOS
      1144**DCL      1144--REDEF
F$DCB.ARS
      1119**DCL      1119--REDEF
F$DCB.ATTR
      1137**DCL      1138--REDEF
F$DCB.BFR
      1163**DCL      1247<<ASSIGN   1247>>ASSIGN   1270>>ASSIGN   1284>>ASSIGN   1285<<ASSIGN
F$DCB.BFR.BUFUP
      1163**DCL      1198<<ASSIGN   1212>>IF       1223>>IF       1271<<ASSIGN   1306<<ASSIGN   1360<<ASSIGN
F$DCB.BFR.BUFX
      1164**DCL      1199>>IF       1226>>ASSIGN   1266>>IF       1383>>ASSIGN
F$DCB.BFR.CVM
      1164**DCL      1212>>IF       1227>>IF       1244>>IF       1253>>IF       1346>>IF
F$DCB.BFR.DA
      1164**DCL      1212>>IF       1220>>ASSIGN   1238>>ASSIGN   1346>>IF       1350>>IF       1352>>ASSIGN
      1358>>ASSIGN
F$DCB.BFR.SCRUB
      1163**DCL      1410>>IF       1412<<ASSIGN
F$DCB.BFR1
      1164**DCL      1248<<ASSIGN   1283>>ASSIGN   1286<<ASSIGN
F$DCB.BFR1.CX
      1165**DCL      1212>>IF       1346>>IF       1350>>IF       1362>>IF
F$DCB.BORROW
PL6.E3A0      #005=FMD$WRTBUF File=FMD$BUF.:E05TSI                               TUE 07/29/97 16:40 Page:230
      1152**DCL      1152--REDEF    1152--REDEF    1152--REDEF
F$DCB.CFU$
      1153**DCL      1221>>IF       1231>>ASSIGN   1245>>ASSIGN   1253>>IF       1257>>ASSIGN   1259>>ASSIGN
F$DCB.DCBNAME.L
      1166**DCL      1166--IMP-SIZ
F$DCB.EOMCHAR
      1123**DCL      1123--REDEF
F$DCB.FLDID
      1147**DCL      1147--REDEF
F$DCB.FORM$
      1141**DCL      1141--REDEF
F$DCB.FSECT
      1157**DCL      1157--REDEF
F$DCB.FSN
      1134**DCL      1134--REDEF    1134--REDEF    1135--REDEF
F$DCB.GTYP
      1148**DCL      1209>>ASSIGN   1215<<ASSIGN   1302>>ASSIGN   1307<<ASSIGN   1344>>ASSIGN   1357<<ASSIGN
      1385<<ASSIGN   1388<<ASSIGN
F$DCB.HEADER$
      1140**DCL      1140--REDEF
F$DCB.IXTNSIZE
      1138**DCL      1138--REDEF
F$DCB.LASTSTA$
      1128**DCL      1128--REDEF
F$DCB.LVL
      1153**DCL      1153--REDEF    1210>>ASSIGN   1216<<ASSIGN   1303>>ASSIGN   1308<<ASSIGN   1343>>ASSIGN
      1356<<ASSIGN   1389<<ASSIGN
F$DCB.NAME.C
      1128**DCL      1128--REDEF
F$DCB.NOEOF
      1149**DCL      1149--REDEF
F$DCB.NRECS
      1139**DCL      1139--REDEF
F$DCB.NRECX
      1158**DCL      1158--REDEF
F$DCB.OHDR
PL6.E3A0      #005=FMD$WRTBUF File=FMD$BUF.:E05TSI                               TUE 07/29/97 16:40 Page:231
      1150**DCL      1150--REDEF
F$DCB.ORG
      1133**DCL      1133--REDEF
F$DCB.PRECNO
      1156**DCL      1156--REDEF
F$DCB.RCSZ
      1161**DCL      1161--REDEF
F$DCB.RES
      1129**DCL      1129--REDEF
F$DCB.SETX
      1141**DCL      1141--REDEF    1395>>IF
F$DCB.STARF
      1148**DCL      1398>>IF
F$DCB.TAB$
      1140**DCL      1141--REDEF
F$DCB.TDA
      1155**DCL      1155--REDEF
F$DCB.WRCMP
      1153**DCL      1401>>IF
F$DCB.WSN
      1130**DCL      1130--REDEF
FC
        57**DCL      1214<>CALL     1240<>CALL     1305<>CALL     1359<>CALL     1391<<ASSIGN   1396<<ASSIGN
      1402<<ASSIGN
FLAG
        60**DCL      1208<<ASSIGN   1214<>CALL     1218>>IF       1301<<ASSIGN   1305<>CALL
FM$BUF$
        68**DCL      1383>>ASSIGN
FM$CFUJ.PAGE#
      1174**DCL      1231>>ASSIGN   1245<<ASSIGN   1257>>ASSIGN   1259<<ASSIGN
FM$GRAN.AVAIL
      1170**DCL      1405>>IF       1414>>ASSIGN
FM$GRAN.LVL
      1169**DCL      1385>>ASSIGN   1389>>ASSIGN   1393>>DOCASE
FM$GRAN.NAVX
      1169**DCL      1405>>IF       1408>>ASSIGN   1415>>ASSIGN
PL6.E3A0      #005=FMD$WRTBUF File=FMD$BUF.:E05TSI                               TUE 07/29/97 16:40 Page:232
FM$GRAN.ORG
      1169**DCL      1384>>IF       1392>>IF
FM$SET.USERLIST
      1179**DCL      1179--REDEF
FM$SET.WRCMP
      1178**DCL      1395>>IF
FM$SET$
       508**DCL      1178--IMP-PTR  1395>>IF
FMB$QUEUE
        39**DCL-ENT  1359--CALL
FMB$RIO
        40**DCL-ENT  1240--CALL
FMC$CLR1
        33**DCL-ENT  1222--CALL     1239--CALL     1353--CALL
FMC$FINISH
        30**DCL-ENT  1214--CALL
FMC$STASH
        32**DCL-ENT  1348--CALL
FMC$UPLIMIT
        31**DCL-ENT  1305--CALL
FMD$GETBUF
        38**DCL-ENT  1267--CALL
FMD$RELBUF
        37**DCL-ENT  1256--CALL     1262--CALL
FMD$WRTAHDEA
        41**DCL-ENT  1240--CALL
GTYP
        61**DCL      1209<<ASSIGN   1215>>ASSIGN   1302<<ASSIGN   1307>>ASSIGN   1344<<ASSIGN   1357>>ASSIGN
JDCB$
        49**DCL      1119--IMP-PTR  1196<<ASSIGN   1198>>ASSIGN   1199>>IF       1209>>ASSIGN   1210>>ASSIGN
      1212>>IF       1212>>IF       1212>>IF       1212>>IF       1215>>ASSIGN   1216>>ASSIGN   1220>>ASSIGN
      1221>>IF       1223>>IF       1226>>ASSIGN   1227>>IF       1231>>ASSIGN   1238>>ASSIGN   1244>>IF
      1245>>ASSIGN   1247>>ASSIGN   1247>>ASSIGN   1248>>ASSIGN   1253>>IF       1253>>IF       1257>>ASSIGN
      1259>>ASSIGN   1266>>IF       1270>>ASSIGN   1271>>ASSIGN   1283>>ASSIGN   1284>>ASSIGN   1285>>ASSIGN
      1286>>ASSIGN   1300<<ASSIGN   1302>>ASSIGN   1303>>ASSIGN   1306>>ASSIGN   1307>>ASSIGN   1308>>ASSIGN
      1326<<ASSIGN   1343>>ASSIGN   1344>>ASSIGN   1346>>IF       1346>>IF       1346>>IF       1350>>IF
PL6.E3A0      #005=FMD$WRTBUF File=FMD$BUF.:E05TSI                               TUE 07/29/97 16:40 Page:233
      1350>>IF       1352>>ASSIGN   1356>>ASSIGN   1357>>ASSIGN   1358>>ASSIGN   1360>>ASSIGN   1362>>IF
      1383>>ASSIGN   1385>>ASSIGN   1388>>ASSIGN   1389>>ASSIGN   1395>>IF       1398>>IF       1401>>IF
      1410>>IF       1412>>ASSIGN
LVL
        62**DCL      1210<<ASSIGN   1216>>ASSIGN   1303<<ASSIGN   1308>>ASSIGN   1343<<ASSIGN   1356>>ASSIGN
MMJ$FBTOIOPM
        42**DCL-ENT  1228--CALL
MMJ$FIOP
        35**DCL-ENT  1258--CALL
MMJ$UNMAPIOP
        43**DCL-ENT  1243--CALL
N
        58**DCL      1283<<ASSIGN
NUM IN PROCEDURE CALCSIZ
      1379**DCL      1381--IMP-SIZ  1414<<ASSIGN   1415>>ASSIGN
OLDPP
        53**DCL      1228<>CALL     1231<<ASSIGN   1232>>IF       1236>>ASSIGN   1240<>CALL
PPNO
        52**DCL      1257<<ASSIGN   1258<>CALL
SC_FMD101
        47**DCL-ENT  1273--CALL
SC_FMD89
        44**DCL-ENT  1287--CALL
SC_FMD90
        45**DCL-ENT  1202--CALL     1328--CALL
SC_FMD91
        46**DCL-ENT  1278--CALL
VPNO
        51**DCL      1226<<ASSIGN   1228<>CALL     1243<>CALL
WAITFLG
        59**DCL      1320<<ASSIGN   1324<<ASSIGN   1359<>CALL
WRTBFR
      1341**PROC     1329--CALL
XMAPERR
      1283**LABEL    1233--GOTO
ZAP IN PROCEDURE CALCSIZ
PL6.E3A0      #005=FMD$WRTBUF File=FMD$BUF.:E05TSI                               TUE 07/29/97 16:40 Page:234
      1381**DCL      1415<<ASSIGN
PL6.E3A0      #005=FMD$WRTBUF File=FMD$BUF.:E05TSI                               TUE 07/29/97 16:40 Page:235
              *** CROSS REFERENCE LISTING ***
    **     DENOTES     IDENTIFIER DEFINITION
    <<                 IDENTIFIER'S VALUE SET
    >>                 IDENTIFIER'S VALUE USED
    <>                 IDENTIFIER SET AND/OR USED
    --                 IDENTIFIER REFERENCED
PL6.E3A0      #005=FMD$WRTBUF File=FMD$BUF.:E05TSI                               TUE 07/29/97 16:40 Page:236
              MINI UREF LISTING

F$CFU$     507**DCL
FMB$IOSPIN      36**DCL-ENT
FMD$FLSHBUF    1189**ENTRY
FMD$FLSHBUFNR    1192**ENTRY
FMD$WRTBUF      26**PROC
FMD$WRTCACHE    1298**ENTRY
FMD$WRTSV    1319**ENTRY
FMD$WRTSVNW    1323**ENTRY
FM_CFUWAIT     507**DCL
FM_CFUWGRB     507**DCL
FM_EOP     505**DCL
FM_FRMAX     504**DCL
FM_FRZERO     504**DCL
FM_GCT     508**DCL
FM_GIP     508**DCL
FM_GPSDA     505**DCL
FM_HASH     506**DCL
FM_MADSDA     505**DCL
FM_PADSDA     505**DCL
FM_SRMAX     504**DCL
FM_SRZERO     504**DCL
FM_SYSACCTX     508**DCL
FM_SYSSETX     508**DCL
FM_TRUNC     506**DCL
FM_WSQ     506**DCL
F_CWLK     507**DCL
F_CWUSER     507**DCL
F_DCBLOCK     506**DCL
MMD$GIOP      34**DCL-ENT
WRD    1182**DCL
ZAP    1183**DCL

PL6.E3A0      #006=FMD$WRTAHDEA File=FMD$BUF.:E05TSI                             TUE 07/29/97 16:40 Page:237
     1239        1        /*T***********************************************************/
     1240        2        /*T*                                                         */
     1241        3        /*T* Copyright (c) Bull HN Information Systems Inc., 1997    */
     1242        4        /*T*                                                         */
     1243        5        /*T***********************************************************/
     1244        6        /*F*   NAME:   FMD$WRTAHDEA
     1245        7        *       PURPOSE:  End-action routine for FMD$WRTBUF
     1246        8        */
     1247        9        /* */
     1248       10        /*D*     NAME:     FMD$WRTAHDEA
     1249       11                 CALL:     CALL FMD$WRTAHDEA
     1250       12                 PURPOSE:  End action routine for FMD$WRTBUF
     1251       13                 DESCRIPTION:
     1252       14
     1253       15                      The I/O has completed, free the page.
     1254       16        */
     1255       17        /* */
     1256       18        /* */
     1257       19        FMD$WRTAHDEA: PROC(N$REQ);
     1258       20        /* PARAMETERS */
     1259       21        %INCLUDE N$REQ;
     1260       95        %N$REQ (STCLASS="");
     1261      153        /* EXTERNAL ROUTINES */
     1262      154    1   DCL MMJ$FIOP ENTRY(1);
     1263      155        /* LOCAL AUTOMATIC STORAGE */
     1264      156    1   DCL 1 EAINFO,
     1265      157    1         2 * BIT(18),
     1266      158    1         2 PAGE UBIN(18) UNAL;
     1267      159    1   DCL EAINFOWD REDEF EAINFO SBIN;
     1268      160    1   DCL PP UBIN;
     1269      161        /* */
     1270      162    1          EAINFOWD=N$REQ.EAINFO;
     1271      163        /* */
     1272      164    1          PP=EAINFO.PAGE;                 /* PHYSICAL PAGE #                    */
     1273      165    1          CALL MMJ$FIOP(PP);
     1274      166    1   RET:   RETURN;
     1275      167    1          END FMD$WRTAHDEA;
PL6.E3A0      #006=FMD$WRTAHDEA File=FMD$BUF.:E05TSI                             TUE 07/29/97 16:40 Page:238
     1276      168               %EOD;

PL6.E3A0      #006=FMD$WRTAHDEA File=FMD$BUF.:E05TSI                             TUE 07/29/97 16:40 Page:239
--  Include file information  --

   N$REQ.:E05TOU  is referenced.
      No diagnostics issued in procedure FMD$WRTAHDEA.

   Procedure FMD$WRTAHDEA requires 15 words for executable code.
   Procedure FMD$WRTAHDEA requires 8 words of local(AUTO) storage.

PL6.E3A0      #006=FMD$WRTAHDEA File=FMD$BUF.:E05TSI                             TUE 07/29/97 16:40 Page:240

 Object Unit name= FMD$WRTAHDEA                               File name= FMD$BUF.:E05TOU
 UTS= JUL 29 '97 16:40:59.20 TUE                              Compiler= PL-6/E31         Sev=      00
 SharedLib= :SHARED_SYSTEM                                    Alt SharedLib=


    ****  Control sections  ****

 Sect   Type Bound  Init  Size OctSiz  Section name(segment info)
    0   Proc  even  none    15     17  FMD$WRTAHDEA

    ****  Entry defs  ****

                              Check   Calling
                             calling  sequence
  Sect OctLoc Primary Altret sequence   type   Parms  Name
     0      0   yes            yes      Std        1  FMD$WRTAHDEA

  ****  Entry refs  ****

         Check        Calling
        calling       sequence
Altret sequence SRef   type   Args  Name
         yes           Std       1 MMJ$FIOP
                       nStd      0 X66_AUTO_1
                       Std       0 B_CONSPOOL_D
                       nStd      0 X66_ARET

  ****  Data refs  ****

  Flags:  r = read only, s = secondary
Flgs Name                             Flgs Name                             Flgs Name
     B_VECTNIL
PL6.E3A0      #006=FMD$WRTAHDEA File=FMD$BUF.:E05TSI                             TUE 07/29/97 16:40 Page:241


     1239        1        /*T***********************************************************/
     1240        2        /*T*                                                         */
     1241        3        /*T* Copyright (c) Bull HN Information Systems Inc., 1997    */
     1242        4        /*T*                                                         */
     1243        5        /*T***********************************************************/
     1244        6        /*F*   NAME:   FMD$WRTAHDEA
     1245        7        *       PURPOSE:  End-action routine for FMD$WRTBUF
     1246        8        */
     1247        9        /* */
     1248       10        /*D*     NAME:     FMD$WRTAHDEA
     1249       11                 CALL:     CALL FMD$WRTAHDEA
     1250       12                 PURPOSE:  End action routine for FMD$WRTBUF
     1251       13                 DESCRIPTION:
     1252       14
     1253       15                      The I/O has completed, free the page.
     1254       16        */
     1255       17        /* */
     1256       18        /* */
     1257       19        FMD$WRTAHDEA: PROC(N$REQ);

     19  0 000000   000000 700200 xent  FMD$WRTAHDEA TSX0  ! X66_AUTO_1
         0 000001   000010 000001                    ZERO    8,1

     1258       20        /* PARAMETERS */
     1259       21        %INCLUDE N$REQ;
     1260       95        %N$REQ (STCLASS="");
     1261      153        /* EXTERNAL ROUTINES */
     1262      154    1   DCL MMJ$FIOP ENTRY(1);
     1263      155        /* LOCAL AUTOMATIC STORAGE */
     1264      156    1   DCL 1 EAINFO,
     1265      157    1         2 * BIT(18),
     1266      158    1         2 PAGE UBIN(18) UNAL;
     1267      159    1   DCL EAINFOWD REDEF EAINFO SBIN;
     1268      160    1   DCL PP UBIN;
     1269      161        /* */
     1270      162    1          EAINFOWD=N$REQ.EAINFO;
PL6.E3A0      #006=FMD$WRTAHDEA File=FMD$BUF.:E05TSI                             TUE 07/29/97 16:40 Page:242

    162  0 000002   200003 470500                    LDP0    @N$REQ,,AUTO
         0 000003   000024 235100                    LDA     20,,PR0
         0 000004   200004 755100                    STA     EAINFO,,AUTO

     1271      163        /* */
     1272      164    1          PP=EAINFO.PAGE;                 /* PHYSICAL PAGE #                    */

    164  0 000005   200004 236100                    LDQ     EAINFO,,AUTO
         0 000006   777777 376007                    ANQ     -1,DL
         0 000007   200005 756100                    STQ     PP,,AUTO

     1273      165    1          CALL MMJ$FIOP(PP);

    165  0 000010   200005 631500                    EPPR1   PP,,AUTO
         0 000011   200006 451500                    STP1    PP+1,,AUTO
         0 000012   200006 630500                    EPPR0   PP+1,,AUTO
         0 000013   000017 631400 xsym               EPPR1   B_VECTNIL+15
         0 000014   000000 701000 xent               TSX1    MMJ$FIOP
         0 000015   000000 011000                    NOP     0

     1274      166    1   RET:   RETURN;

    166  0 000016   000000 702200 xent  RET          TSX2  ! X66_ARET
     1275      167    1          END FMD$WRTAHDEA;
     1276      168               %EOD;

PL6.E3A0      #006=FMD$WRTAHDEA File=FMD$BUF.:E05TSI                             TUE 07/29/97 16:40 Page:243
--  Include file information  --

   N$REQ.:E05TOU  is referenced.
      No diagnostics issued in procedure FMD$WRTAHDEA.
PL6.E3A0      #006=FMD$WRTAHDEA File=FMD$BUF.:E05TSI                             TUE 07/29/97 16:40 Page:244

 **** Variables and constants ****

  ****  Auto variables  ****

  ****  Scalars and arrays  ****
OctLoc.c.b A Datatyp(siz) R M Lvl/name                 OctLoc.c.b A Datatyp(siz) R M Lvl/name

     3-0-0/w PTR         r     1 @N$REQ                     4-0-0/b STRC        r     1 EAINFO
     4-0-0/w SBIN        r     1 EAINFOWD                  *0-0-0/d STRC(1080)  r     1 N$REQ
     5-0-0/w UBIN        r     1 PP


   Procedure FMD$WRTAHDEA requires 15 words for executable code.
   Procedure FMD$WRTAHDEA requires 8 words of local(AUTO) storage.
PL6.E3A0      #006=FMD$WRTAHDEA File=FMD$BUF.:E05TSI                             TUE 07/29/97 16:40 Page:245
          *** CROSS REFERENCE LISTING ***
**     DENOTES     IDENTIFIER DEFINITION
<<                 IDENTIFIER'S VALUE SET
>>                 IDENTIFIER'S VALUE USED
<>                 IDENTIFIER SET AND/OR USED
--                 IDENTIFIER REFERENCED
PL6.E3A0      #006=FMD$WRTAHDEA File=FMD$BUF.:E05TSI                             TUE 07/29/97 16:40 Page:246
          MINI XREF LISTING

EAINFO
       156**DCL       159--REDEF
EAINFO.PAGE
       158**DCL       164>>ASSIGN
EAINFOWD
       159**DCL       162<<ASSIGN
MMJ$FIOP
       154**DCL-ENT   165--CALL
N$REQ
       104**DCL        19--PROC
N$REQ.BUFADDR
       113**DCL       114--REDEF     114--REDEF
N$REQ.DLA.DRELADDR
       105**DCL       105--REDEF
N$REQ.DVE.EOMCHAR
       142**DCL       143--REDEF
N$REQ.EAINFO
       136**DCL       136--REDEF     162>>ASSIGN
N$REQ.EAINFOX
       136**DCL       137--REDEF
N$REQ.EVNTINFO
       137**DCL       137--REDEF
N$REQ.STATUS
       118**DCL       124--REDEF
PP
       160**DCL       164<<ASSIGN    165<>CALL
PL6.E3A0      #006=FMD$WRTAHDEA File=FMD$BUF.:E05TSI                             TUE 07/29/97 16:40 Page:247
              *** CROSS REFERENCE LISTING ***
    **     DENOTES     IDENTIFIER DEFINITION
    <<                 IDENTIFIER'S VALUE SET
    >>                 IDENTIFIER'S VALUE USED
    <>                 IDENTIFIER SET AND/OR USED
    --                 IDENTIFIER REFERENCED
PL6.E3A0      #006=FMD$WRTAHDEA File=FMD$BUF.:E05TSI                             TUE 07/29/97 16:40 Page:248
              MINI UREF LISTING

FMD$WRTAHDEA      19**PROC
RET     166**LABEL

PL6.E3A0      #007=FMD$RECTRAN File=FMD$BUF.:E05TSI                              TUE 07/29/97 16:41 Page:249
     1277        1        /*T***********************************************************/
     1278        2        /*T*                                                         */
     1279        3        /*T* Copyright (c) Bull HN Information Systems Inc., 1997    */
     1280        4        /*T*                                                         */
     1281        5        /*T***********************************************************/
     1282        6        /*F*   NAME:   FMD$RECTRAN
     1283        7        *      PURPOSE:  Move bytes between user buffer and monitor buffer,
     1284        8        *                performing all necessary data conversion                    */
     1285        9        /**/
     1286       10        /**/
     1287       11        /**/
     1288       12        /*D*   NAME:   FMD$RECTRAN
     1289       13        *      CALL:   CALL FMD$RECTRAN(G$,GBYTES,BUFNUM,DIR,FAK,SEED,VFC,FPTCODE) ALTRET(ER
                13        R);
     1290       14        *      INPUT:  G$ - Pointer to data segment in monitor buffer
     1291       15        *              GBYTES - Size of data segment in bytes
     1292       16        *              BUFNUM - Monitor buffer number
     1293       17        *              DIR - 0 if moving monitor buffer to user,
     1294       18        *                    1 if moving user buffer to monitor
     1295       19        *              FAK - Zero if not first segment of record
     1296       20        *              SEED - Encryption seed (optional)
     1297       21        *              VFC - VFC char to insert (optional)
     1298       22        *              FPTCODE - FPT code for this operation
     1299       23        *              DCB.UB$ - Current pointer into user buffer
     1300       24        *              DCB.UBYTES - # bytes remaining in user buffer
     1301       25        *              DCB.ARS - # bytes moved to/from user so far
     1302       26        *              DCB.CSEED - Current intermediate encryption seed
     1303       27        *              DCB.SHFT - Current state of compression shift
     1304       28        *      OUTPUT: GBYTES - If DIR=0, # bytes remaining in mon buf
     1305       29        *                       If DIR=1, # bytes transfered into mon buf
     1306       30        *              DCB.UB$ - Updated by # bytes moved
     1307       31        *              DCB.UBYTES - Updated by # bytes moved
     1308       32        *              DCB.ARS - Updated by # bytes moved
     1309       33        *              DCB.CSEED - Current intermediate encryption seed
     1310       34        *              DCB.ARS - Incremented by # bytes moved
     1311       35        *              DCB.BFR.BUFUP(BUFNUM) - Set if moving to mon buffer
     1312       36        *              DCB.SHFT - Current state of compression shift
PL6.E3A0      #007=FMD$RECTRAN File=FMD$BUF.:E05TSI                              TUE 07/29/97 16:41 Page:250
     1313       37        *      DESCRIPTION:                                                          */
     1314       38        FMD$RECTRAN: PROC(G$,GBYTES,BUFNUM,DIR,FAK,PSEED,VFC,FPTCODE) ALTRET;
     1315       39        /* PARAMETERS */
     1316       40    1   DCL G$ PTR;              /* POINTER TO BEGINNING OF DATA AREA IN POOL BUFFER  */
     1317       41    1   DCL GBYTES SBIN;                        /* SIZE OF POOL BUFFER AREA IN BYTES  */
     1318       42    1   DCL BUFNUM UBIN(36);                    /* POOL BUFFER NUMBER                 */
     1319       43    1   DCL DIR SBIN;                      /* 0=MON BUFFER TO USER, 1=USER TO MON     */
     1320       44    1   DCL FAK SBIN;                      /* 0 IF NOT FIRST SEG OF RECORD, ELSE 1    */
     1321       45    1   DCL PSEED BIT(36) ALIGNED;             /* Passed encryption seed              */
     1322       46    1   DCL VFC CHAR(1);                   /* VFC char to insert - none if absent     */
     1323       47    1   DCL FPTCODE UBIN;                       /* FPT code for this operation        */
     1324       48    1   DCL CWORD$ PTR;
     1325       49    1   DCL TEMP_FAK SBIN;
     1326       50        /* LOCAL AUTOMATIC STORAGE */
     1327       51    1   DCL CSEED SBIN;
     1328       52    1   DCL ISEED BIT(36) ALIGNED;             /* Local encryption seed               */
     1329       53    1   DCL WRDS SBIN;
     1330       54    1   DCL BUF$ PTR;
     1331       55    1   DCL JDCB$ PTR;
     1332       56    1   DCL TFPTCODE UBIN;
     1333       57    1   DCL WORD_NUM SBIN;
     1334       58        /* BASED STRUCTURES */
     1335       59    1   DCL UBIN4 UBIN(4) UNAL BASED;
     1336       60    1   DCL BASED_WORD(0:0) CHAR(4) CALIGNED BASED;
     1337       61        /* EXTERNAL ROUTINES */
     1338       62    1   DCL FMD$WRTSV ENTRY(1);
     1339       63    1   DCL FMD$ENCRYPT ENTRY(5);
     1340       64    1   DCL FMD$DECRYPT ENTRY(5);
     1341       65        /* EXTERNAL DATA */
     1342       66    1   DCL B$JIT$ PTR SYMREF READONLY;
     1343       67    1   DCL B$PS0$ PTR SYMREF READONLY;
     1344       68    1   DCL FM$BUF$(0:0) PTR SYMREF;
     1345       69    1   DCL B$ROSEG$ PTR SYMREF;
     1346       70        %INCLUDE B$TABLES_C;
     1347      178        %B$XL_UR(NAME=NK_URTBL);
     1348      182        %B$XL_UPPER_UR(NAME=NK_URTBLUC);
     1349      186        /* INCLUDE FILES */
PL6.E3A0      #007=FMD$RECTRAN File=FMD$BUF.:E05TSI                              TUE 07/29/97 16:41 Page:251
     1350      187        %INCLUDE B_MICROPS_C;
     1351      359        %INCLUDE F$JIT_C;
     1352      789        %MACRO F$DCB(BASED=BASED);
     1353      790        %INCLUDE F$DCB;
     1354      839        %MEND;
     1355      840        %INCLUDE F_MACROS_C;
     1356      851        %INCLUDE F$CP6V_C;
     1357     1077        %INCLUDE F_ERRORS_C;
     1358     1317        %INCLUDE F_FPTCODE_C;
     1359     1353        %INCLUDE FM$GRAN;
     1360     1422        /* CONSTANT STORAGE */
     1361     1423        %SUB FCG#='0615'O;
     1362     1424        %SUB MID#='04'O;
     1363     1425        %ERRCODE (COD#=%E$DECOMP);
     1364     1429        /* MACRO CALLS */
     1365     1430        %F$DCB (BASED="BASED(JDCB$)");
     1366     1480        %FPT$READ_V (BASED="BASED(B$PS0$)");
     1367     1487        %FM$GRAN;
     1368     1491        /**/
     1369     1492    1           JDCB$=B$JIT.DCB$;
     1370     1493        /**/
     1371     1494    1           IF PSEED THEN                  /* Get the right seed value.           */
     1372     1495    1              ISEED = PSEED;              /* From FPT. */
     1373     1496    1           ELSE
     1374     1497    1              ISEED = F$DCB.SEED; /* From DCB. */
     1375     1498
     1376     1499    2           IF F$DCB.COMP THEN DO;
     1377     1500        /* COMPRESSION */
     1378     1501    2              IF DIR=0 THEN
     1379     1502    2              CALL DECOMP ALTRET(ERR);
     1380     1503    2              ELSE
     1381     1504    2              CALL COMPRESS;
     1382     1505    2              RETURN;
     1383     1506    2              END;
     1384     1507                                                /*                                    */
     1385     1508    2           IF NOT ISEED THEN DO;
     1386     1509        /* NO COMPRESSION OR ENCRYPTION */
PL6.E3A0      #007=FMD$RECTRAN File=FMD$BUF.:E05TSI                              TUE 07/29/97 16:41 Page:252
     1387     1510    2              CALL MOVE;
     1388     1511    2              RETURN;
     1389     1512    2              END;
     1390     1513                                                /*                                    */
     1391     1514        /* ENCRYPTION SPECIFIED */
     1392     1515    2           IF DIR~=0 THEN DO;              /* USER TO MONITOR                    */
     1393     1516    2              CALL MOVE;
     1394     1517    2              WRDS=(GBYTES+3)/4;           /* # WORDS TO ENCRYPT                 */
     1395     1518    2              CALL FMD$ENCRYPT(G$,WRDS,ISEED,JDCB$->F$DCB.CSEED,FAK);
              1518                       /* ENCRYPT IN MON BUFFER */
     1396     1519    2              END;
     1397     1520    2           ELSE DO;                        /* MONITOR TO USER                    */
     1398     1521    2              CALL MOVE;                   /* Move into user's buffer.           */
     1399     1522    2              F$DCB.DECRYPT = '1'B;        /* Decrypt later.                     */
     1400     1523    2              END;
     1401     1524    1           RETURN;
     1402     1525                                                /*                                    */
     1403     1526    1   ERR:    ALTRETURN;
     1404     1527        %EJECT;
PL6.E3A0      #007=FMD$RECTRAN File=FMD$BUF.:E05TSI                              TUE 07/29/97 16:41 Page:253
     1405     1528        /* LEVEL 2 ROUTINE TO MOVE BYTES WITHOUT MODIFICATION */
     1406     1529    1   MOVE:   PROC;
     1407     1530    2   DCL NUM SBIN;
     1408     1531    2   DCL CHRS CHAR(NUM) BASED;
     1409     1532    2   DCL CHAR1 CHAR(1) BASED;
     1410     1533    2   DCL 1 CHARS BASED,
     1411     1534    2         2 * CHAR(1),
     1412     1535    2         2 SKIP1 CHAR(NUM);
     1413     1536    2           NUM=GBYTES;                     /* # bytes to xfer                    */
     1414     1537    3           IF DIR=0 THEN DO;               /* Monitor to user                    */
     1415     1538    3              IF FPT$READ_V.STRPVFC AND F$DCB.DVBYTE.VFC AND FAK = 1 THEN
     1416     1539    4                 DO;  /* STRIP VFC */
     1417     1540    4                 F$DCB.VFCCHAR=G$->CHAR1;
     1418     1541    4                 F$DCB.GDISP=F$DCB.GDISP+1;
     1419     1542    4                 NUM=NUM-1;
     1420     1543    4                 GBYTES=GBYTES-1;
     1421     1544    4                 G$=PINCRC(G$, 1);
     1422     1545    4                 END;  /* STRIP VFC */
     1423     1546    3              IF NUM > F$DCB.UBYTES THEN
     1424     1547    3                 NUM=F$DCB.UBYTES;
     1425     1548    3              F$DCB.UB$->CHRS=G$->CHRS;
     1426     1549    3              GBYTES=GBYTES-NUM;
     1427     1550    3              F$DCB.ARS=F$DCB.ARS+NUM;
     1428     1551    3              END;
     1429     1552    3           ELSE DO;                        /* User to monitor                    */
     1430     1553    3              IF NUM>F$DCB.UBYTES THEN
     1431     1554    3                 NUM=F$DCB.UBYTES;
     1432     1555    3              IF ADDR(FPTCODE)=ADDR(NIL) THEN
     1433     1556    3                 TFPTCODE=MFC_WRITE;
     1434     1557    3              ELSE
     1435     1558    3                 TFPTCODE=FPTCODE;
     1436     1559    3              IF ADDR(VFC)~=ADDR(NIL) AND FAK~=0 THEN
     1437     1560    4                 IF GBYTES~=0 THEN DO;
     1438     1561    4                    NUM=GBYTES-1;
     1439     1562    4                    IF NUM>F$DCB.UBYTES THEN
     1440     1563    4                       NUM=F$DCB.UBYTES;
     1441     1564    4                    G$->CHAR1=VFC;
PL6.E3A0      #007=FMD$RECTRAN File=FMD$BUF.:E05TSI                              TUE 07/29/97 16:41 Page:254
     1442     1565    5                    DO CASE(TFPTCODE);     /* Move or translate data to monitor.*/
     1443     1566    5                     CASE(MFC_WRUR);
     1444     1567    5                       CALL XLATE(G$->CHARS.SKIP1,NK_URTBL,F$DCB.UB$->CHRS);
     1445     1568    5                     CASE(MFC_WRURUC);
     1446     1569    5                       CALL XLATE(G$->CHARS.SKIP1,NK_URTBLUC,F$DCB.UB$->CHRS);
     1447     1570    5                     CASE(ELSE);
     1448     1571    5                       G$->CHARS.SKIP1=F$DCB.UB$->CHRS;
     1449     1572    5                     END;
     1450     1573    4                    GBYTES=NUM+1;
     1451     1574    4                    F$DCB.GDISP=F$DCB.GDISP+1;
     1452     1575    4                    END;
     1453     1576    3                 ELSE ;
     1454     1577    4              ELSE DO;
     1455     1578    5                 DO CASE(TFPTCODE);        /* Move or translate data to monitor.*/
     1456     1579    5                  CASE(MFC_WRUR);
     1457     1580    5                    CALL XLATE(G$->CHRS,NK_URTBL,F$DCB.UB$->CHRS);
     1458     1581    5                  CASE(MFC_WRURUC);
     1459     1582    5                    CALL XLATE(G$->CHRS,NK_URTBLUC,F$DCB.UB$->CHRS);
     1460     1583    5                  CASE(ELSE);
     1461     1584    5                    G$->CHRS=F$DCB.UB$->CHRS;
     1462     1585    5                  END;
     1463     1586    4                 GBYTES=NUM;
     1464     1587    4                 END;
     1465     1588    3              F$DCB.BFR.BUFUP(BUFNUM)='1'B;
     1466     1589    3              END;
     1467     1590    2           F$DCB.UB$=PINCRC(F$DCB.UB$,NUM);
     1468     1591    2           F$DCB.UBYTES=F$DCB.UBYTES-NUM;
     1469     1592    2           F$DCB.GDISP=F$DCB.GDISP+NUM;
     1470     1593    2           RETURN;
     1471     1594    2   END MOVE;
     1472     1595        %EJECT;
PL6.E3A0      #007=FMD$RECTRAN File=FMD$BUF.:E05TSI                              TUE 07/29/97 16:41 Page:255
     1473     1596        /* Level 2 routine to compress records */
     1474     1597        /************************************************************/
     1475     1598        /*                                                          */
     1476     1599        /*  Great care must be taken when modifying the code        */
     1477     1600        /*  for compression/decompression.  It has been carefully   */
     1478     1601        /*  diddled (that's a technical term) to make sure that CSRs*/
     1479     1602        /*  rather than CSLs are always used when referencing an    */
     1480     1603        /*  FPOOL because of the DPS90 prepaging problem.  Since    */
     1481     1604        /*  none of this code can reference the first two words of  */
     1482     1605        /*  a block (control words are there) CSRs are immune from  */
     1483     1606        /*  the prepaging error.  This is somewhat anti-performant  */
     1484     1607        /*  as CSLs are considerably faster on some models, but we  */
     1485     1608        /*  have no real alternative.                               */
     1486     1609        /*                                                          */
     1487     1610        /************************************************************/
     1488     1611    1   COMPRESS: PROC;
     1489     1612        /* SUBS */
     1490     1613        %SUB CODUNK=0;
     1491     1614        %SUB CODSHIFT=1;
     1492     1615        %SUB CODDUP=2;
     1493     1616        /* CONSTANT STORAGE */
     1494     1617    2   DCL XLATETBL(0:511) UBIN CONSTANT INIT(
     1495     1618    2           0,0,0,0,0,0,0,0,0,0,
     1496     1619    2           0,0,0,0,0,0,0,0,0,0,
     1497     1620    2           0,0,0,0,0,0,0,0,0,0,
     1498     1621    2           0,0,3,4,5,6,7,8,0,9,
     1499     1622    2           10,11,12,13,14,15,16,17,18,19,
     1500     1623    2           20,21,22,23,24,25,26,27,28,29,
     1501     1624    2           30,31,32,33,34,419,420,421,422,423,
     1502     1625    2           424,425,426,427,428,429,430,431,432,433,
     1503     1626    2           434,435,436,437,438,439,440,441,442,443,
     1504     1627    2           444,0,0,0,0,61,0,163,164,165,
     1505     1628    2           166,167,168,169,170,171,172,173,174,175,
     1506     1629    2           176,177,178,179,180,181,182,183,184,185,
     1507     1630    2           186,187,188,0,62,0,63,0,0*0);
     1508     1631        /* LOCAL AUTOMATIC STORAGE */
     1509     1632    2   DCL CHR UBIN;
PL6.E3A0      #007=FMD$RECTRAN File=FMD$BUF.:E05TSI                              TUE 07/29/97 16:41 Page:256
     1510     1633    2   DCL PCHR UBIN;
     1511     1634    2   DCL PREVCHR UBIN;
     1512     1635    2   DCL PREV# SBIN;
     1513     1636    2   DCL N SBIN;
     1514     1637    2   DCL 1 NB REDEF N,
     1515     1638    2         2 * BIT(27),
     1516     1639    2         2 UC BIT(1),
     1517     1640    2         2 ALPHA BIT(1),
     1518     1641    2         2 * BIT(7);
     1519     1642    2   DCL GBITS SBIN;
     1520     1643    2   DCL T$ PTR;
     1521     1644    2   DCL CX UBIN;
     1522     1645    2   DCL CXS REDEF CX SBIN;
     1523     1646    2   DCL CNT SBIN;
     1524     1647    2   DCL SHFT SBIN;
     1525     1648    2   DCL 1 SHFTBIT REDEF SHFT,
     1526     1649    2         2 * BIT(35),
     1527     1650    2         2 B BIT(1);
     1528     1651    2   DCL UB$ PTR;
     1529     1652    2   DCL TEMPCHAR CHAR(1) CALIGNED;
     1530     1653        /* BASED STRUCTURES */
     1531     1654    2   DCL UBIN6 UBIN(6) UNAL BASED;
     1532     1655    2   DCL UBIN9 UBIN(9) UNAL BASED;
     1533     1656    2   DCL UBIN3 UBIN(3) UNAL BASED;
     1534     1657    2   DCL CHARS(0:0) CHAR(1) CALIGNED BASED;
     1535     1658    2   DCL 1 SKIP6 BASED UNAL,
     1536     1659    2         2 * BIT(6),
     1537     1660    2         2 UBIN6 UBIN(6) UNAL;
     1538     1661        /**/
     1539     1662    2           SHFT=1;                    /* Record segment starts in upper case     */
     1540     1663    2           F$DCB.BFR.BUFUP(BUFNUM)='1'B;   /* Buffer modified                    */
     1541     1664    2           IF ADDR(NIL)=ADDR(FPTCODE) THEN
     1542     1665    2              TFPTCODE=MFC_WRITE;
     1543     1666    2           ELSE
     1544     1667    2              TFPTCODE=FPTCODE;
     1545     1668    2           GBITS=GBYTES*9;                 /* # BITS IN MONITOR BUFFER AREA      */
     1546     1669    2           T$=G$;                          /* POINTER TO MONITOR BUFFER AREA     */
PL6.E3A0      #007=FMD$RECTRAN File=FMD$BUF.:E05TSI                              TUE 07/29/97 16:41 Page:257
     1547     1670    2           PREV#=0;                        /* NO PREV DUPLICATES                 */
     1548     1671    2           PREVCHR=32;                     /* PREV CHAR WAS BLANK                */
     1549     1672    2           CX=0;                           /* INDEX INTO USER BUFFER             */
     1550     1673    2           CNT=F$DCB.UBYTES;               /* SIZE OF USER BUFFER                */
     1551     1674    2           UB$=F$DCB.UB$;                  /* User buffer pointer                */
     1552     1675    2           TEMP_FAK=FAK;
     1553     1676    2           CWORD$=ADDR(F$DCB.CWORD);
     1554     1677    2           WORD_NUM=0;
     1555     1678    2           IF ISEED THEN
     1556     1679    2              IF FAK=1 THEN
     1557     1680    2                 CALL GET_WORD;
     1558     1681    2              ELSE IF TFPTCODE ~= MFC_WRUR AND TFPTCODE ~= MFC_WRURUC THEN
     1559     1682    2                 UB$=PINCRC(UB$,4-F$DCB.CX);
     1560     1683
     1561     1684    3           IF ADDR(VFC)~=ADDR(NIL) AND FAK~=0 THEN DO;
     1562     1685    3              CNT=CNT+1;                   /* Incr to include VFC                */
     1563     1686    3              CXS=-1;
     1564     1687    3              CHR=ASCBIN(VFC);
     1565     1688    3              GOTO GOTCHR;
     1566     1689    3              END;
     1567     1690    3           DO WHILE(CNT>0);
     1568     1691    4              DO CASE(TFPTCODE);      /* Get next byte (or translation thereof)*/
     1569     1692    4               CASE(MFC_WRUR);
     1570     1693    4                 TEMPCHAR=UB$->CHARS(CX);
     1571     1694    4                 CHR=ASCBIN(NK_URTBL.C(ASCBIN(TEMPCHAR)));
     1572     1695    4               CASE(MFC_WRURUC);
     1573     1696    4                 TEMPCHAR=UB$->CHARS(CX);
     1574     1697    4                 CHR=ASCBIN(NK_URTBLUC.C(ASCBIN(TEMPCHAR)));
     1575     1698    4               CASE(ELSE);
     1576     1699    4                 IF ISEED THEN
     1577     1700    4                    CALL GETCHAR;
     1578     1701    4                 ELSE
     1579     1702    5                    DO;   /* GET NEXT CHARACTER */
     1580     1703    5                    TEMPCHAR=UB$->CHARS(CX);
     1581     1704    5                    CHR=ASCBIN(TEMPCHAR);
     1582     1705    5                    END;  /* GET NEXT CHARACTER */
     1583     1706    4               END;
PL6.E3A0      #007=FMD$RECTRAN File=FMD$BUF.:E05TSI                              TUE 07/29/97 16:41 Page:258
     1584     1707    4   GOTCHR:    IF PREVCHR=CHR AND PREV#<63 THEN DO;
     1585     1708                                           /* EDITSTR can't do more than 63 at a time */
     1586     1709    4   PUTDUP:       PREV#=PREV#+1;
     1587     1710    4                 GOTO PUTOK;
     1588     1711    4                 END;
     1589     1712    4              ELSE DO;                     /* DIFF CHAR OR REACHED DUP MAX COUNT */
     1590     1713    4                 IF PREV#~=0 THEN          /* GOT SOME DUPS                      */
     1591     1714    4                 CALL DUMPPREV ALTRET(FULL);
     1592     1715    4                 IF PREVCHR=CHR THEN
     1593     1716    4                    GOTO PUTDUP;
     1594     1717    4                 PREVCHR=CHR;              /* NEW PREVIOUS CHAR                  */
     1595     1718    4                 END;
     1596     1719        /**/
     1597     1720    3              N=XLATETBL(CHR);
     1598     1721    4              IF NB.ALPHA THEN DO;         /* Alphabetic                         */
     1599     1722    4                 IF NB.UC=SHFTBIT.B THEN
     1600     1723    4                    GOTO NOSHIFT;
     1601     1724    4                 IF GBITS<6 THEN GOTO FULL; /* NO ROOM FOR SHIFT CHAR            */
     1602     1725    4                 T$->UBIN6=CODSHIFT;       /* MOVE IN SHIFT CHAR                 */
     1603     1726    4                 T$=PINCRB(T$,6);
     1604     1727    4                 GBITS=GBITS-6;
     1605     1728    4                 SHFT=SHFT+1;              /* Toggle shift                       */
     1606     1729    4                 END;
     1607     1730                                                /*                                    */
     1608     1731    3   NOSHIFT:   PCHR=CHR;
     1609     1732    3              CALL PUT ALTRET(FULL);       /* Put char in buffer                 */
     1610     1733    3   PUTOK:     CXS=CXS+1;
     1611     1734    3              CNT=CNT-1;
     1612     1735    3              END;
     1613     1736        /**/
     1614     1737    2           IF PREV#~=0 THEN
     1615     1738    2           CALL DUMPPREV;
     1616     1739        /**/
     1617     1740    3           DO WHILE('0'B);
     1618     1741    3   FULL:      F$DCB.CX=F$DCB.CX-1;
     1619     1742    3           END;  /* WHILE */
     1620     1743    2           N=MOD(GBITS,9);
PL6.E3A0      #007=FMD$RECTRAN File=FMD$BUF.:E05TSI                              TUE 07/29/97 16:41 Page:259
     1621     1744    2           IF N = 3                        /* ZERO TO NEXT BYTE BOUNDARY         */
     1622     1745    2           THEN
     1623     1746    2              T$ -> UBIN3 = 0;
     1624     1747    2           ELSE
     1625     1748    2              IF N = 6
     1626     1749    2              THEN
     1627     1750    2                 T$ -> UBIN6 = 0;
     1628     1751    2           F$DCB.UBYTES=CNT;
     1629     1752    2           F$DCB.UB$=PINCRC(F$DCB.UB$,CX);
     1630     1753    2           GBYTES=GBYTES-(GBITS/9);        /* # BYTES USED                       */
     1631     1754    2           F$DCB.GDISP=GBYTES;
     1632     1755    2           RETURN;
     1633     1756        %EJECT;
PL6.E3A0      #007=FMD$RECTRAN File=FMD$BUF.:E05TSI                              TUE 07/29/97 16:41 Page:260
     1634     1757    2   GETCHAR: PROC;
     1635     1758    3          DCL CHAR_TEMP CHAR(1);
     1636     1759        /* */
     1637     1760    3          IF F$DCB.CX >= 4 THEN
     1638     1761    3             CALL GET_WORD;
     1639     1762
     1640     1763    3          CALL INSERT(CHAR_TEMP, 0, 1,
     1641     1764    3             SUBSTR(F$DCB.CWORD, F$DCB.CX, 1));
     1642     1765    3          CHR=ASCBIN(CHAR_TEMP);
     1643     1766    3          F$DCB.CX=F$DCB.CX+1;
     1644     1767
     1645     1768    3          RETURN;
     1646     1769    3          END GETCHAR;
     1647     1770    2   GET_WORD: PROC;
     1648     1771    3          DCL MOVE UBIN;
     1649     1772        /* */
     1650     1773    3          IF CNT < 4 THEN
     1651     1774    3             MOVE=CNT;
     1652     1775    3          ELSE
     1653     1776    3             MOVE=4;
     1654     1777
     1655     1778    3          CALL INSERT(F$DCB.CWORD, 0, 4,
     1656     1779    3             SUBSTR(UB$->BASED_WORD(WORD_NUM), 0, MOVE));
     1657     1780    3          CALL FMD$ENCRYPT(CWORD$, 1, ISEED, F$DCB.CSEED,
     1658     1781    3             TEMP_FAK);
     1659     1782    3          TEMP_FAK=0;
     1660     1783    3          WORD_NUM=WORD_NUM+1;
     1661     1784    3          F$DCB.CX=0;
     1662     1785
     1663     1786    3          RETURN;
     1664     1787    3          END GET_WORD;
     1665     1788        %EJECT;
PL6.E3A0      #007=FMD$RECTRAN File=FMD$BUF.:E05TSI                              TUE 07/29/97 16:41 Page:261
     1666     1789        /* LEVEL 3 ROUTINE TO MOVE BITS INTO MONITOR BUFFER */
     1667     1790    2   PUT:    PROC ALTRET;
     1668     1791    3   DCL 1 SKIP6 BASED UNAL,
     1669     1792    3         2 * BIT(6),
     1670     1793    3         2 UBIN12 UBIN(12) UNAL;
     1671     1794        /**/
     1672     1795    4           IF N=0 THEN DO;                 /* UNKNOWN CHARACTER                  */
     1673     1796    4              IF GBITS<18 THEN ALTRETURN;  /* NO ROOM                            */
     1674     1797    4              T$->UBIN6=CODUNK;
     1675     1798    4              T$->SKIP6.UBIN12=PCHR;
     1676     1799    4              T$=PINCRB(T$,18);
     1677     1800    4              GBITS=GBITS-18;
     1678     1801    4              RETURN;
     1679     1802    4              END;
     1680     1803                                                /*                                    */
     1681     1804    3           IF GBITS<6 THEN ALTRETURN;
     1682     1805    3           T$->UBIN6=N;
     1683     1806    3           T$=PINCRB(T$,6);
     1684     1807    3           GBITS=GBITS-6;
     1685     1808    3           RETURN;
     1686     1809    3   END PUT;
     1687     1810        %EJECT;
PL6.E3A0      #007=FMD$RECTRAN File=FMD$BUF.:E05TSI                              TUE 07/29/97 16:41 Page:262
     1688     1811        /* LEVEL 3 ROUTINE TO DUMP DUP CHARS */
     1689     1812    2   DUMPPREV: PROC ALTRET;
     1690     1813    4           IF PREV#>=3 THEN DO;            /* ENUF FOR DUP CODE                  */
     1691     1814    5              IF GBITS<12 THEN DO;         /* NOT ENUF ROOM                      */
     1692     1815    5   BACKUP:       CX=CX-PREV#;              /* BACKUP TO GET THESE CHARS AGAIN    */
     1693     1816    5                 CNT=CNT+PREV#;
     1694     1817    5                 ALTRETURN;
     1695     1818    5                 END;
     1696     1819    4              T$->UBIN6=CODDUP;            /* MOVE IN DUP CODE                   */
     1697     1820    4              T$->SKIP6.UBIN6=PREV#-3;     /* COUNT-3                            */
     1698     1821    4              T$=PINCRB(T$,12);
     1699     1822    4              GBITS=GBITS-12;
     1700     1823    4              END;
     1701     1824    4           ELSE DO;                   /* NOT ENOUGH FOR DUP - PUT THE CHARS IN   */
     1702     1825    4              N=XLATETBL(PREVCHR);
     1703     1826    4              PCHR=PREVCHR;
     1704     1827    5              DO WHILE(PREV#>0);
     1705     1828    5                 CALL PUT ALTRET(BACKUP);
     1706     1829    5                 PREV#=PREV#-1;
     1707     1830    5                 END;
     1708     1831    4              END;
     1709     1832    3           PREV#=0;
     1710     1833    3           RETURN;
     1711     1834    3   END DUMPPREV;
     1712     1835    2   END COMPRESS;
     1713     1836        %EJECT;
PL6.E3A0      #007=FMD$RECTRAN File=FMD$BUF.:E05TSI                              TUE 07/29/97 16:41 Page:263
     1714     1837        /* Level 2 routine to compress records */
     1715     1838        /************************************************************/
     1716     1839        /*                                                          */
     1717     1840        /*  Great care must be taken when modifying the code        */
     1718     1841        /*  for compression/decompression.  It has been carefully   */
     1719     1842        /*  diddled (that's a technical term) to make sure that CSRs*/
     1720     1843        /*  rather than CSLs are always used when referencing an    */
     1721     1844        /*  FPOOL because of the DPS90 prepaging problem.  Since    */
     1722     1845        /*  none of this code can reference the first two words of  */
     1723     1846        /*  a block (control words are there) CSRs are immune from  */
     1724     1847        /*  the prepaging error.  This is somewhat anti-performant  */
     1725     1848        /*  as CSLs are considerably faster on some models, but we  */
     1726     1849        /*  have no real alternative.                               */
     1727     1850        /*                                                          */
     1728     1851        /************************************************************/
     1729     1852    1   DECOMP: PROC ALTRET;
     1730     1853        /* CONSTANT STORAGE */
     1731     1854    2   DCL 1 CHRTBL(0:127) UBIN CONSTANT INIT(
     1732     1855    2         0,0,0,32,33,34,35,36,37,39,
     1733     1856    2         40,41,42,43,44,45,46,47,48,49,
     1734     1857    2         50,51,52,53,54,55,56,57,58,59,
     1735     1858    2         60,61,62,63,64,65,66,67,68,69,
     1736     1859    2         70,71,72,73,74,75,76,77,78,79,
     1737     1860    2         80,81,82,83,84,85,86,87,88,89,
     1738     1861    2         90,95,124,126,
     1739     1862    2         0,0,0,32,33,34,35,36,37,39,
     1740     1863    2         40,41,42,43,44,45,46,47,48,49,
     1741     1864    2         50,51,52,53,54,55,56,57,58,59,
     1742     1865    2         60,61,62,63,64,97,98,99,100,101,
     1743     1866    2         102,103,104,105,106,107,108,109,110,111,
     1744     1867    2         112,113,114,115,116,117,118,119,120,121,
     1745     1868    2         122,95,124,126);
     1746     1869        /* LOCAL AUTOMATIC STORAGE */
     1747     1870    2   DCL GBITS SBIN;
     1748     1871    2   DCL T$ PTR;
     1749     1872    2   DCL PREVCHR UBIN;
     1750     1873    2   DCL I UBIN;
PL6.E3A0      #007=FMD$RECTRAN File=FMD$BUF.:E05TSI                              TUE 07/29/97 16:41 Page:264
     1751     1874    2   DCL N UBIN;
     1752     1875    2   DCL 1 NB REDEF N,
     1753     1876    2         2 * BIT(30),
     1754     1877    2         2 LB6 BIT(6);
     1755     1878    2   DCL CNT SBIN;
     1756     1879    2   DCL CX UBIN;
     1757     1880    2   DCL CXS REDEF CX SBIN;
     1758     1881    2   DCL 1 MICROPS DALIGNED,
     1759     1882    2         2 C CHAR(1),
     1760     1883    2         2 FILL UBIN(9) UNAL,
     1761     1884    2         2 * BIT(36);
     1762     1885    2   DCL SHFT SBIN;
     1763     1886    2   DCL 1 SHFTBIT REDEF SHFT,
     1764     1887    2         2 * BIT(35),
     1765     1888    2         2 B BIT(1);
     1766     1889    2   DCL UB$ PTR;
     1767     1890        /* BASED */
     1768     1891    2   DCL CHAR1 CHAR(1) BASED;
     1769     1892    2   DCL 1 SKIP6 BASED UNAL,
     1770     1893    2         2 * BIT(6),
     1771     1894    2         2 UBIN6 UBIN(6) UNAL;
     1772     1895    2   DCL 1 SKIP9 BASED UNAL,
     1773     1896    2         2 * BIT(9),
     1774     1897    2         2 UBIN9 UBIN(9) UNAL;
     1775     1898    2   DCL UBIN6 UBIN(6) UNAL BASED;
     1776     1899    2   DCL UBIN9 UBIN(9) UNAL BASED;
     1777     1900    2   DCL CHARS(0:0) CHAR(1) BASED;
     1778     1901        /* CONSTANT STORAGE */
     1779     1902    2   DCL 1 INITMICROPS CONSTANT DALIGNED,
     1780     1903    2         2 * BIT(9) INIT(%LTE1),
     1781     1904    2         2 * CHAR(1),
     1782     1905    2         2 * BIT(9) INIT(%INSM16),
     1783     1906    2         2 * BIT(9) INIT(%INSM16),
     1784     1907    2         2 * BIT(9) INIT(%INSM16),
     1785     1908    2         2 * BIT(9) INIT(%INSM16);
     1786     1909        /**/
     1787     1910    2           SHFT=1;                    /* Record segment starts in upper case     */
PL6.E3A0      #007=FMD$RECTRAN File=FMD$BUF.:E05TSI                              TUE 07/29/97 16:41 Page:265
     1788     1911    2           GBITS=GBYTES*9;                 /* SIZE OF MON BUFFER AREA IN BITS    */
     1789     1912    2           T$=G$;
     1790     1913    2           PREVCHR=32;                     /* PREVIOUS CHAR IS BLANK             */
     1791     1914    2           CX=0;                           /* INDEX INTO USER BUFFER             */
     1792     1915    2           CNT=F$DCB.UBYTES;               /* # BYTES REMAINING                  */
     1793     1916    2           UB$=F$DCB.UB$;                  /* User buffer pointer                */
     1794     1917    2           IF FAK = 1 AND FPT$READ_V.STRPVFC AND F$DCB.DVBYTE.VFC THEN
     1795     1918    2              TEMP_FAK=1;
     1796     1919    2           ELSE
     1797     1920    2              TEMP_FAK=0;
     1798     1921    2           IF ISEED THEN
     1799     1922    3              DO;   /* DECRYPT LATER */
     1800     1923    3              F$DCB.DECRYPT='1'B;
     1801     1924    3              END;  /* DECRYPT LATER */
     1802     1925    3           DO WHILE(CNT>0);
     1803     1926    4              IF GBITS<6 THEN DO;          /* At end                             */
     1804     1927    4                 GOTO DONE;
     1805     1928    4                 END;
     1806     1929    3              N=T$->UBIN6;
     1807     1930    4              DO CASE(N);
     1808     1931    4               CASE(2);                    /* DUPLICATE CHARS                    */
     1809     1932    4                 IF GBITS<12 THEN GOTO ERR; /* COUNT MUST BE PRESENT             */
     1810     1933    4                 N=T$->SKIP6.UBIN6;        /* Get the count                      */
     1811     1934    4                 N=N+3;
     1812     1935    4                 T$=PINCRB(T$,12);
     1813     1936    4                 GBITS=GBITS-12;
     1814     1937    4                 IF N>CNT
     1815     1938    4                 THEN  /* NOT ENOUGH ROOM IN USER BUFFER FOR ENTIRE REPEAT ITEM.
     1816     1939                              MUST SET N TO THE SMALLER AMOUNT, AND BACK UP T$ AND
     1817     1940                              GBITS SO THAT THE CODE AT THE END WILL REALIZE THAT
     1818     1941                              NOT ALL OF THE MON BUFFER INFO WAS PROCESSED. */
     1819     1942    5                 DO;
     1820     1943    5                    N=CNT;
     1821     1944    5                    T$=PINCRB(T$,-12);     /* BACK UP OVER COUNT AND DUP CODE    */
     1822     1945    5                    GBITS=GBITS+12;
     1823     1946    5                    END;
     1824     1947    4                 IF TEMP_FAK = 1 THEN
PL6.E3A0      #007=FMD$RECTRAN File=FMD$BUF.:E05TSI                              TUE 07/29/97 16:41 Page:266
     1825     1948    5                    DO;   /* STRIP VFC */
     1826     1949    5                    F$DCB.VFCCHAR=BINASC(PREVCHR);
     1827     1950    5                    N=N-1;
     1828     1951    5                    TEMP_FAK=0;
     1829     1952    5                    END;  /* STRIP VFC */
     1830     1953    4                 MICROPS=INITMICROPS;      /* MICRO OP CODES FOR EDITSTR         */
     1831     1954    4                 MICROPS.FILL=PREVCHR;     /* CHAR TO FILL WITH                  */
     1832     1955    4                 CALL EDITSTR(UB$->CHAR1,CX,N,MICROPS,' ');
     1833     1956    4                 CNT=CNT-N;
     1834     1957    4                 CXS=CXS+N;
     1835     1958    4                 GOTO ENDLOOP;
     1836     1959    4               CASE(1);                    /* SHIFT                              */
     1837     1960    4                 SHFT=SHFT+1;              /* TOGGLE SHIFT                       */
     1838     1961    4                 T$=PINCRB(T$,6);
     1839     1962    4                 GBITS=GBITS-6;
     1840     1963    4                 GOTO ENDLOOP;
     1841     1964    4               CASE(0);                    /* UNKNOWN                            */
     1842     1965    5                 IF GBITS<18 THEN DO;
     1843     1966    5                    GOTO DONE;
     1844     1967    5                    END;
     1845     1968    4                 I=T$->SKIP9.UBIN9;
     1846     1969    4                 ADDR(MICROPS.C)->UBIN9=I;
     1847     1970    4                 IF TEMP_FAK = 1 THEN
     1848     1971    5                    DO;
     1849     1972    5                    F$DCB.VFCCHAR=MICROPS.C;
     1850     1973    5                    CXS=CXS-1;
     1851     1974    5                    CNT=CNT+1;
     1852     1975    5                    TEMP_FAK=0;
     1853     1976    5                    END;
     1854     1977    4                 ELSE
     1855     1978    4                    UB$->CHARS(CX)=MICROPS.C;
     1856     1979    4                 PREVCHR=ASCBIN(MICROPS.C); /* REMEMBER AS PREV CHAR             */
     1857     1980    4                 T$=PINCRB(T$,18);
     1858     1981    4                 GBITS=GBITS-18;
     1859     1982    4               CASE(ELSE);                 /* KNOWN ASCII CHAR                   */
     1860     1983    4                 IF SHFTBIT.B THEN
     1861     1984    4                    PREVCHR=CHRTBL(N);
PL6.E3A0      #007=FMD$RECTRAN File=FMD$BUF.:E05TSI                              TUE 07/29/97 16:41 Page:267
     1862     1985    4                 ELSE
     1863     1986    4                    PREVCHR=CHRTBL(N+64);
     1864     1987    4                 IF TEMP_FAK = 1 THEN
     1865     1988    5                    DO;
     1866     1989    5                    F$DCB.VFCCHAR=BINASC(PREVCHR);
     1867     1990    5                    CXS=CXS-1;
     1868     1991    5                    CNT=CNT+1;
     1869     1992    5                    TEMP_FAK=0;
     1870     1993    5                    END;
     1871     1994    4                 ELSE
     1872     1995    4                    UB$->CHARS(CX)=BINASC(PREVCHR);
     1873     1996    4                 T$=PINCRB(T$,6);
     1874     1997    4                 GBITS=GBITS-6;
     1875     1998    4               END;
     1876     1999    3              CXS=CXS+1;
     1877     2000    3              CNT=CNT-1;
     1878     2001    3   ENDLOOP:   END;
     1879     2002        /* */
     1880     2003    2           IF GBITS>8 THEN GOTO EXITL;
     1881     2004        /**/
     1882     2005    2   DONE:   GBYTES=0;
     1883     2006    2   EXITL:  F$DCB.UB$=PINCRC(F$DCB.UB$,CX);
     1884     2007    2           F$DCB.UBYTES=CNT;
     1885     2008    2           F$DCB.ARS=F$DCB.ARS+CX;
     1886     2009    2           RETURN;
     1887     2010        /* */
     1888     2011    2   ERR:    B$JIT.ERR=ERRWD;
     1889     2012    2           F$DCB.UB$=PINCRC(F$DCB.UB$,CX);
     1890     2013    2           F$DCB.UBYTES=CNT;
     1891     2014    2           F$DCB.ARS=F$DCB.ARS+CX;
     1892     2015    2           ALTRETURN;
     1893     2016        /*E*    ERROR:   FMD-E$DECOMP-2
     1894     2017        *       MESSAGE: Decompression error% in file %FN%
     1895     2018        *       MESSAGE1: This record contains illegal compressed language
     1896     2019        */
     1897     2020    2   END DECOMP;
     1898     2021        /* */
PL6.E3A0      #007=FMD$RECTRAN File=FMD$BUF.:E05TSI                              TUE 07/29/97 16:41 Page:268
     1899     2022    1   END FMD$RECTRAN;
     1900     2023               %EOD;

PL6.E3A0      #007=FMD$RECTRAN File=FMD$BUF.:E05TSI                              TUE 07/29/97 16:41 Page:269
--  Include file information  --

   FM$GRAN.:E05TOU  is referenced.
   F_FPTCODE_C.:E05TOU  is referenced.
   F_ERRORS_C.:E05TOU  is referenced.
   F$CP6V_C.:E05TOU  is referenced.
   F_MACROS_C.:E05TOU  is referenced.
   F$DCB.:E05TOU  is referenced.
   B$JIT_C.:E05TOU  is referenced.
   F$JIT_C.:E05TOU  cannot be made into a system file and is referenced.
   B_MICROPS_C.:E05TOU  is referenced.
   B$TABLES_C.:E05TOU  cannot be made into a system file and is referenced.
      No diagnostics issued in procedure FMD$RECTRAN.

   Procedure FMD$RECTRAN requires 838 words for executable code.
   Procedure FMD$RECTRAN requires 44 words of local(AUTO) storage.

PL6.E3A0      #007=FMD$RECTRAN File=FMD$BUF.:E05TSI                              TUE 07/29/97 16:41 Page:270

 Object Unit name= FMD$RECTRAN                                File name= FMD$BUF.:E05TOU
 UTS= JUL 29 '97 16:41:03.68 TUE                              Compiler= PL-6/E31         Sev=      00
 SharedLib= :SHARED_SYSTEM                                    Alt SharedLib=


    ****  Control sections  ****

 Sect   Type Bound  Init  Size OctSiz  Section name(segment info)
    0  RoData even  UTS    644   1204  FMD$RECTRAN
    1   Proc  even  none   838   1506  FMD$RECTRAN
    2  RoData even  none     3      3  FMD$RECTRAN

    ****  Entry defs  ****

                              Check   Calling
                             calling  sequence
  Sect OctLoc Primary Altret sequence   type   Parms  Name
     1      0   yes    yes     yes      Std        8  FMD$RECTRAN

  ****  Entry refs  ****

         Check        Calling
        calling       sequence
Altret sequence SRef   type   Args  Name
         yes          ~proc      0 B_POINTER
         yes           Std       5 FMD$ENCRYPT
                       nStd      0 X66_AUTO_N
                       nStd      0 X66_ARET
                       Std       0 B_CONSPOOL_D
                       nStd      0 X66_AALT
PL6.E3A0      #007=FMD$RECTRAN File=FMD$BUF.:E05TSI                              TUE 07/29/97 16:41 Page:271

  ****  Data refs  ****

  Flags:  r = read only, s = secondary
Flgs Name                             Flgs Name                             Flgs Name
r    B$JIT$                           r    B$PS0$                           r    B$XL_UR$
r    B$XL_UPPER_UR$                        B_VECTNIL

  ****  Segment refs  ****

  Flags:  r = read only, s = secondary
Flgs Name                             Flgs Name                             Flgs Name
     ISSID
PL6.E3A0      #007=FMD$RECTRAN File=FMD$BUF.:E05TSI                              TUE 07/29/97 16:41 Page:272


     1277        1        /*T***********************************************************/
     1278        2        /*T*                                                         */
     1279        3        /*T* Copyright (c) Bull HN Information Systems Inc., 1997    */
     1280        4        /*T*                                                         */
     1281        5        /*T***********************************************************/
     1282        6        /*F*   NAME:   FMD$RECTRAN
     1283        7        *      PURPOSE:  Move bytes between user buffer and monitor buffer,
     1284        8        *                performing all necessary data conversion                    */
     1285        9        /**/
     1286       10        /**/
     1287       11        /**/
     1288       12        /*D*   NAME:   FMD$RECTRAN
     1289       13        *      CALL:  CALL FMD$RECTRAN(G$,GBYTES,BUFNUM,DIR,FAK,SEED,VFC,FPTCODE) ALTRET(ER
                13        R);
     1290       14        *      INPUT:  G$ - Pointer to data segment in monitor buffer
     1291       15        *              GBYTES - Size of data segment in bytes
     1292       16        *              BUFNUM - Monitor buffer number
     1293       17        *              DIR - 0 if moving monitor buffer to user,
     1294       18        *                    1 if moving user buffer to monitor
     1295       19        *              FAK - Zero if not first segment of record
     1296       20        *              SEED - Encryption seed (optional)
     1297       21        *              VFC - VFC char to insert (optional)
     1298       22        *              FPTCODE - FPT code for this operation
     1299       23        *              DCB.UB$ - Current pointer into user buffer
     1300       24        *              DCB.UBYTES - # bytes remaining in user buffer
     1301       25        *              DCB.ARS - # bytes moved to/from user so far
     1302       26        *              DCB.CSEED - Current intermediate encryption seed
     1303       27        *              DCB.SHFT - Current state of compression shift
     1304       28        *      OUTPUT: GBYTES - If DIR=0, # bytes remaining in mon buf
     1305       29        *                       If DIR=1, # bytes transfered into mon buf
     1306       30        *              DCB.UB$ - Updated by # bytes moved
     1307       31        *              DCB.UBYTES - Updated by # bytes moved
     1308       32        *              DCB.ARS - Updated by # bytes moved
     1309       33        *              DCB.CSEED - Current intermediate encryption seed
     1310       34        *              DCB.ARS - Incremented by # bytes moved
     1311       35        *              DCB.BFR.BUFUP(BUFNUM) - Set if moving to mon buffer
PL6.E3A0      #007=FMD$RECTRAN File=FMD$BUF.:E05TSI                              TUE 07/29/97 16:41 Page:273
     1312       36        *              DCB.SHFT - Current state of compression shift
     1313       37        *      DESCRIPTION:                                                          */
     1314       38        FMD$RECTRAN: PROC(G$,GBYTES,BUFNUM,DIR,FAK,PSEED,VFC,FPTCODE) ALTRET;

     38  1 000000   000000 700200 xent  FMD$RECTRAN  TSX0  ! X66_AUTO_N
         1 000001   000054 000010                    ZERO    44,8

     1315       39        /* PARAMETERS */
     1316       40    1   DCL G$ PTR;              /* POINTER TO BEGINNING OF DATA AREA IN POOL BUFFER  */
     1317       41    1   DCL GBYTES SBIN;                        /* SIZE OF POOL BUFFER AREA IN BYTES  */
     1318       42    1   DCL BUFNUM UBIN(36);                    /* POOL BUFFER NUMBER                 */
     1319       43    1   DCL DIR SBIN;                      /* 0=MON BUFFER TO USER, 1=USER TO MON     */
     1320       44    1   DCL FAK SBIN;                      /* 0 IF NOT FIRST SEG OF RECORD, ELSE 1    */
     1321       45    1   DCL PSEED BIT(36) ALIGNED;             /* Passed encryption seed              */
     1322       46    1   DCL VFC CHAR(1);                   /* VFC char to insert - none if absent     */
     1323       47    1   DCL FPTCODE UBIN;                       /* FPT code for this operation        */
     1324       48    1   DCL CWORD$ PTR;
     1325       49    1   DCL TEMP_FAK SBIN;
     1326       50        /* LOCAL AUTOMATIC STORAGE */
     1327       51    1   DCL CSEED SBIN;
     1328       52    1   DCL ISEED BIT(36) ALIGNED;             /* Local encryption seed               */
     1329       53    1   DCL WRDS SBIN;
     1330       54    1   DCL BUF$ PTR;
     1331       55    1   DCL JDCB$ PTR;
     1332       56    1   DCL TFPTCODE UBIN;
     1333       57    1   DCL WORD_NUM SBIN;
     1334       58        /* BASED STRUCTURES */
     1335       59    1   DCL UBIN4 UBIN(4) UNAL BASED;
     1336       60    1   DCL BASED_WORD(0:0) CHAR(4) CALIGNED BASED;
     1337       61        /* EXTERNAL ROUTINES */
     1338       62    1   DCL FMD$WRTSV ENTRY(1);
     1339       63    1   DCL FMD$ENCRYPT ENTRY(5);
     1340       64    1   DCL FMD$DECRYPT ENTRY(5);
     1341       65        /* EXTERNAL DATA */
     1342       66    1   DCL B$JIT$ PTR SYMREF READONLY;
     1343       67    1   DCL B$PS0$ PTR SYMREF READONLY;
     1344       68    1   DCL FM$BUF$(0:0) PTR SYMREF;
PL6.E3A0      #007=FMD$RECTRAN File=FMD$BUF.:E05TSI                              TUE 07/29/97 16:41 Page:274
     1345       69    1   DCL B$ROSEG$ PTR SYMREF;
     1346       70        %INCLUDE B$TABLES_C;
     1347      178        %B$XL_UR(NAME=NK_URTBL);
     1348      182        %B$XL_UPPER_UR(NAME=NK_URTBLUC);
     1349      186        /* INCLUDE FILES */
     1350      187        %INCLUDE B_MICROPS_C;
     1351      359        %INCLUDE F$JIT_C;
     1352      789        %MACRO F$DCB(BASED=BASED);
     1353      790        %INCLUDE F$DCB;
     1354      839        %MEND;
     1355      840        %INCLUDE F_MACROS_C;
     1356      851        %INCLUDE F$CP6V_C;
     1357     1077        %INCLUDE F_ERRORS_C;
     1358     1317        %INCLUDE F_FPTCODE_C;
     1359     1353        %INCLUDE FM$GRAN;
     1360     1422        /* CONSTANT STORAGE */
     1361     1423        %SUB FCG#='0615'O;
     1362     1424        %SUB MID#='04'O;
     1363     1425        %ERRCODE (COD#=%E$DECOMP);
     1364     1429        /* MACRO CALLS */
     1365     1430        %F$DCB (BASED="BASED(JDCB$)");
     1366     1480        %FPT$READ_V (BASED="BASED(B$PS0$)");
     1367     1487        %FM$GRAN;
     1368     1491        /**/
     1369     1492    1           JDCB$=B$JIT.DCB$;

   1492  1 000002   000000 470400 xsym               LDP0    B$JIT$
         1 000003   000232 236100                    LDQ     154,,PR0
         1 000004   200021 756100                    STQ     JDCB$,,AUTO

     1370     1493        /**/
     1371     1494    1           IF PSEED THEN                  /* Get the right seed value.           */

   1494  1 000005   200010 471500                    LDP1    @PSEED,,AUTO
         1 000006   100000 235100                    LDA     0,,PR1
         1 000007   000013 600000 1                  TZE     s:1497

PL6.E3A0      #007=FMD$RECTRAN File=FMD$BUF.:E05TSI                              TUE 07/29/97 16:41 Page:275
     1372     1495    1              ISEED = PSEED;              /* From FPT. */

   1495  1 000010   100000 236100                    LDQ     0,,PR1
         1 000011   200016 756100                    STQ     ISEED,,AUTO
         1 000012   000016 710000 1                  TRA     s:1499

     1373     1496    1           ELSE
     1374     1497    1              ISEED = F$DCB.SEED; /* From DCB. */

   1497  1 000013   200021 473500                    LDP3    JDCB$,,AUTO
         1 000014   300062 236100                    LDQ     50,,PR3
         1 000015   200016 756100                    STQ     ISEED,,AUTO

     1375     1498
     1376     1499    2           IF F$DCB.COMP THEN DO;

   1499  1 000016   200021 473500                    LDP3    JDCB$,,AUTO
         1 000017   300031 236100                    LDQ     25,,PR3
         1 000020   000100 316007                    CANQ    64,DL
         1 000021   000033 600000 1                  TZE     s:1508

     1377     1500        /* COMPRESSION */
     1378     1501    2              IF DIR=0 THEN

   1501  1 000022   200006 474500                    LDP4    @DIR,,AUTO
         1 000023   400000 235100                    LDA     0,,PR4
         1 000024   000030 601000 1                  TNZ     s:1504

     1379     1502    2              CALL DECOMP ALTRET(ERR);

   1502  1 000025   001144 701000 1                  TSX1    DECOMP
         1 000026   000100 702000 1                  TSX2    ERR
         1 000027   000032 710000 1                  TRA     s:1505

     1380     1503    2              ELSE
     1381     1504    2              CALL COMPRESS;

PL6.E3A0      #007=FMD$RECTRAN File=FMD$BUF.:E05TSI                              TUE 07/29/97 16:41 Page:276
   1504  1 000030   000376 701000 1                  TSX1    COMPRESS
         1 000031   000000 011000                    NOP     0

     1382     1505    2              RETURN;

   1505  1 000032   000000 702200 xent               TSX2  ! X66_ARET

     1383     1506    2              END;
     1384     1507                                                /*                                    */
     1385     1508    2           IF NOT ISEED THEN DO;

   1508  1 000033   200016 235100                    LDA     ISEED,,AUTO
         1 000034   000040 601000 1                  TNZ     s:1515

     1386     1509        /* NO COMPRESSION OR ENCRYPTION */
     1387     1510    2              CALL MOVE;

   1510  1 000035   000101 701000 1                  TSX1    MOVE
         1 000036   000000 011000                    NOP     0

     1388     1511    2              RETURN;

   1511  1 000037   000000 702200 xent               TSX2  ! X66_ARET

     1389     1512    2              END;
     1390     1513                                                /*                                    */
     1391     1514        /* ENCRYPTION SPECIFIED */
     1392     1515    2           IF DIR~=0 THEN DO;              /* USER TO MONITOR                    */

   1515  1 000040   200006 474500                    LDP4    @DIR,,AUTO
         1 000041   400000 235100                    LDA     0,,PR4
         1 000042   000072 600000 1                  TZE     s:1521

     1393     1516    2              CALL MOVE;

   1516  1 000043   000101 701000 1                  TSX1    MOVE
         1 000044   000000 011000                    NOP     0
PL6.E3A0      #007=FMD$RECTRAN File=FMD$BUF.:E05TSI                              TUE 07/29/97 16:41 Page:277

     1394     1517    2              WRDS=(GBYTES+3)/4;           /* # WORDS TO ENCRYPT                 */

   1517  1 000045   200004 470500                    LDP0    @GBYTES,,AUTO
         1 000046   000000 236100                    LDQ     0,,PR0
         1 000047   000003 036007                    ADLQ    3,DL
         1 000050   000004 506007                    DIV     4,DL
         1 000051   200017 756100                    STQ     WRDS,,AUTO

     1395     1518    2              CALL FMD$ENCRYPT(G$,WRDS,ISEED,JDCB$->F$DCB.CSEED,FAK);
              1518                       /* ENCRYPT IN MON BUFFER */

   1518  1 000052   200007 236100                    LDQ     @FAK,,AUTO
         1 000053   200052 756100                    STQ     MOVE+5,,AUTO
         1 000054   200021 236100                    LDQ     JDCB$,,AUTO
         1 000055   000072 036003                    ADLQ    58,DU
         1 000056   200051 756100                    STQ     MOVE+4,,AUTO
         1 000057   200016 631500                    EPPR1   ISEED,,AUTO
         1 000060   200050 451500                    STP1    MOVE+3,,AUTO
         1 000061   200017 633500                    EPPR3   WRDS,,AUTO
         1 000062   200047 453500                    STP3    MOVE+2,,AUTO
         1 000063   200003 236100                    LDQ     @G$,,AUTO
         1 000064   200046 756100                    STQ     MOVE+1,,AUTO
         1 000065   200046 630500                    EPPR0   MOVE+1,,AUTO
         1 000066   000023 631400 xsym               EPPR1   B_VECTNIL+19
         1 000067   000000 701000 xent               TSX1    FMD$ENCRYPT
         1 000070   000000 011000                    NOP     0

     1396     1519    2              END;

   1519  1 000071   000077 710000 1                  TRA     s:1524

     1397     1520    2           ELSE DO;                        /* MONITOR TO USER                    */

     1398     1521    2              CALL MOVE;                   /* Move into user's buffer.           */

   1521  1 000072   000101 701000 1                  TSX1    MOVE
PL6.E3A0      #007=FMD$RECTRAN File=FMD$BUF.:E05TSI                              TUE 07/29/97 16:41 Page:278
         1 000073   000000 011000                    NOP     0

     1399     1522    2              F$DCB.DECRYPT = '1'B;        /* Decrypt later.                     */

   1522  1 000074   200021 470500                    LDP0    JDCB$,,AUTO
         1 000075   001000 236007                    LDQ     512,DL
         1 000076   000102 256100                    ORSQ    66,,PR0

     1400     1523    2              END;

     1401     1524    1           RETURN;

   1524  1 000077   000000 702200 xent               TSX2  ! X66_ARET

     1402     1525                                                /*                                    */
     1403     1526    1   ERR:    ALTRETURN;

   1526  1 000100   000000 702200 xent  ERR          TSX2  ! X66_AALT

     1404     1527        %EJECT;
PL6.E3A0      #007=FMD$RECTRAN File=FMD$BUF.:E05TSI                              TUE 07/29/97 16:41 Page:279
     1405     1528        /* LEVEL 2 ROUTINE TO MOVE BYTES WITHOUT MODIFICATION */
     1406     1529    1   MOVE:   PROC;

   1529  1 000101   200024 741300       MOVE         STX1  ! WORD_NUM+1,,AUTO

     1407     1530    2   DCL NUM SBIN;
     1408     1531    2   DCL CHRS CHAR(NUM) BASED;
     1409     1532    2   DCL CHAR1 CHAR(1) BASED;
     1410     1533    2   DCL 1 CHARS BASED,
     1411     1534    2         2 * CHAR(1),
     1412     1535    2         2 SKIP1 CHAR(NUM);
     1413     1536    2           NUM=GBYTES;                     /* # bytes to xfer                    */

   1536  1 000102   200004 470500                    LDP0    @GBYTES,,AUTO
         1 000103   000000 235100                    LDA     0,,PR0
         1 000104   200025 755100                    STA     NUM,,AUTO

     1414     1537    3           IF DIR=0 THEN DO;               /* Monitor to user                    */

   1537  1 000105   200006 471500                    LDP1    @DIR,,AUTO
         1 000106   100000 235100                    LDA     0,,PR1
         1 000107   000166 601000 1                  TNZ     s:1553

     1415     1538    3              IF FPT$READ_V.STRPVFC AND F$DCB.DVBYTE.VFC AND FAK = 1 THEN

   1538  1 000110   000000 473400 xsym               LDP3    B$PS0$
         1 000111   300003 236100                    LDQ     3,,PR3
         1 000112   000400 316003                    CANQ    256,DU
         1 000113   000142 600000 1                  TZE     s:1546
         1 000114   200021 474500                    LDP4    JDCB$,,AUTO
         1 000115   400003 236100                    LDQ     3,,PR4
         1 000116   100000 316003                    CANQ    32768,DU
         1 000117   000142 600000 1                  TZE     s:1546
         1 000120   200007 475500                    LDP5    @FAK,,AUTO
         1 000121   500000 235100                    LDA     0,,PR5
         1 000122   000001 115007                    CMPA    1,DL
         1 000123   000142 601000 1                  TNZ     s:1546
PL6.E3A0      #007=FMD$RECTRAN File=FMD$BUF.:E05TSI                              TUE 07/29/97 16:41 Page:280

     1416     1539    4                 DO;  /* STRIP VFC */

     1417     1540    4                 F$DCB.VFCCHAR=G$->CHAR1;

   1540  1 000124   200003 476500                    LDP6    @G$,,AUTO
         1 000125   600000 477500                    LDP7    0,,PR6
         1 000126   040100 100500                    MLR     fill='040'O
         1 000127   700000 000001                    ADSC9   0,,PR7                   cn=0,n=1
         1 000130   400056 000001                    ADSC9   46,,PR4                  cn=0,n=1

     1418     1541    4                 F$DCB.GDISP=F$DCB.GDISP+1;

   1541  1 000131   400101 235100                    LDA     65,,PR4
         1 000132   000001 035007                    ADLA    1,DL
         1 000133   400101 755100                    STA     65,,PR4

     1419     1542    4                 NUM=NUM-1;

   1542  1 000134   000001 336007                    LCQ     1,DL
         1 000135   200025 056100                    ASQ     NUM,,AUTO

     1420     1543    4                 GBYTES=GBYTES-1;

   1543  1 000136   000000 056100                    ASQ     0,,PR0

     1421     1544    4                 G$=PINCRC(G$, 1);

   1544  1 000137   600000 236100                    LDQ     0,,PR6
         1 000140   200000 036007                    ADLQ    65536,DL
         1 000141   600000 756100                    STQ     0,,PR6

     1422     1545    4                 END;  /* STRIP VFC */

     1423     1546    3              IF NUM > F$DCB.UBYTES THEN

   1546  1 000142   200021 474500                    LDP4    JDCB$,,AUTO
PL6.E3A0      #007=FMD$RECTRAN File=FMD$BUF.:E05TSI                              TUE 07/29/97 16:41 Page:281
         1 000143   400076 236100                    LDQ     62,,PR4
         1 000144   000150 604000 1                  TMI     s:1548
         1 000145   200025 116100                    CMPQ    NUM,,AUTO
         1 000146   000150 605000 1                  TPL     s:1548

     1424     1547    3                 NUM=F$DCB.UBYTES;

   1547  1 000147   200025 756100                    STQ     NUM,,AUTO

     1425     1548    3              F$DCB.UB$->CHRS=G$->CHRS;

   1548  1 000150   400075 475500                    LDP5    61,,PR4
         1 000151   200003 476500                    LDP6    @G$,,AUTO
         1 000152   600000 477500                    LDP7    0,,PR6
         1 000153   200025 720100                    LXL0    NUM,,AUTO
         1 000154   040140 100540                    MLR     fill='040'O
         1 000155   700000 000010                    ADSC9   0,,PR7                   cn=0,n=*X0
         1 000156   500000 000010                    ADSC9   0,,PR5                   cn=0,n=*X0

     1426     1549    3              GBYTES=GBYTES-NUM;

   1549  1 000157   000000 236100                    LDQ     0,,PR0
         1 000160   200025 136100                    SBLQ    NUM,,AUTO
         1 000161   000000 756100                    STQ     0,,PR0

     1427     1550    3              F$DCB.ARS=F$DCB.ARS+NUM;

   1550  1 000162   400000 236100                    LDQ     0,,PR4
         1 000163   200025 036100                    ADLQ    NUM,,AUTO
         1 000164   400000 756100                    STQ     0,,PR4

     1428     1551    3              END;

   1551  1 000165   000355 710000 1                  TRA     s:1590

     1429     1552    3           ELSE DO;                        /* User to monitor                    */

PL6.E3A0      #007=FMD$RECTRAN File=FMD$BUF.:E05TSI                              TUE 07/29/97 16:41 Page:282
     1430     1553    3              IF NUM>F$DCB.UBYTES THEN

   1553  1 000166   200021 473500                    LDP3    JDCB$,,AUTO
         1 000167   300076 236100                    LDQ     62,,PR3
         1 000170   000174 604000 1                  TMI     s:1555
         1 000171   200025 116100                    CMPQ    NUM,,AUTO
         1 000172   000174 605000 1                  TPL     s:1555

     1431     1554    3                 NUM=F$DCB.UBYTES;

   1554  1 000173   200025 756100                    STQ     NUM,,AUTO

     1432     1555    3              IF ADDR(FPTCODE)=ADDR(NIL) THEN

   1555  1 000174   200012 236100                    LDQ     @FPTCODE,,AUTO
         1 000175   000001 116000 xsym               CMPQ    B_VECTNIL+1
         1 000176   000202 601000 1                  TNZ     s:1558

     1433     1556    3                 TFPTCODE=MFC_WRITE;

   1556  1 000177   000001 235007                    LDA     1,DL
         1 000200   200022 755100                    STA     TFPTCODE,,AUTO
         1 000201   000205 710000 1                  TRA     s:1559

     1434     1557    3              ELSE
     1435     1558    3                 TFPTCODE=FPTCODE;

   1558  1 000202   200012 474500                    LDP4    @FPTCODE,,AUTO
         1 000203   400000 235100                    LDA     0,,PR4
         1 000204   200022 755100                    STA     TFPTCODE,,AUTO

     1436     1559    3              IF ADDR(VFC)~=ADDR(NIL) AND FAK~=0 THEN

   1559  1 000205   200011 236100                    LDQ     @VFC,,AUTO
         1 000206   000001 116000 xsym               CMPQ    B_VECTNIL+1
         1 000207   000303 600000 1                  TZE     s:1578
         1 000210   200007 474500                    LDP4    @FAK,,AUTO
PL6.E3A0      #007=FMD$RECTRAN File=FMD$BUF.:E05TSI                              TUE 07/29/97 16:41 Page:283
         1 000211   400000 235100                    LDA     0,,PR4
         1 000212   000303 600000 1                  TZE     s:1578

     1437     1560    4                 IF GBYTES~=0 THEN DO;

   1560  1 000213   000000 235100                    LDA     0,,PR0
         1 000214   000351 600000 1                  TZE     s:1588

     1438     1561    4                    NUM=GBYTES-1;

   1561  1 000215   000001 135007                    SBLA    1,DL
         1 000216   200025 755100                    STA     NUM,,AUTO

     1439     1562    4                    IF NUM>F$DCB.UBYTES THEN

   1562  1 000217   300076 236100                    LDQ     62,,PR3
         1 000220   000224 604000 1                  TMI     s:1564
         1 000221   200025 116100                    CMPQ    NUM,,AUTO
         1 000222   000224 605000 1                  TPL     s:1564

     1440     1563    4                       NUM=F$DCB.UBYTES;

   1563  1 000223   200025 756100                    STQ     NUM,,AUTO

     1441     1564    4                    G$->CHAR1=VFC;

   1564  1 000224   200003 475500                    LDP5    @G$,,AUTO
         1 000225   500000 476500                    LDP6    0,,PR5
         1 000226   200011 477500                    LDP7    @VFC,,AUTO
         1 000227   040100 100500                    MLR     fill='040'O
         1 000230   700000 000001                    ADSC9   0,,PR7                   cn=0,n=1
         1 000231   600000 000001                    ADSC9   0,,PR6                   cn=0,n=1

     1442     1565    5                    DO CASE(TFPTCODE);     /* Move or translate data to monitor.*/

   1565  1 000232   200022 235100                    LDA     TFPTCODE,,AUTO
         1 000233   000012 135007                    SBLA    10,DL
PL6.E3A0      #007=FMD$RECTRAN File=FMD$BUF.:E05TSI                              TUE 07/29/97 16:41 Page:284
         1 000234   000004 115007                    CMPA    4,DL
         1 000235   000237 602005 1                  TNC     s:1565+5,AL
         1 000236   000265 710000 1                  TRA     s:1571
         1 000237   000243 710000 1                  TRA     s:1567
         1 000240   000265 710000 1                  TRA     s:1571
         1 000241   000265 710000 1                  TRA     s:1571
         1 000242   000254 710000 1                  TRA     s:1569

     1443     1566    5                     CASE(MFC_WRUR);

     1444     1567    5                       CALL XLATE(G$->CHARS.SKIP1,NK_URTBL,F$DCB.UB$->CHRS);

   1567  1 000243   500000 476500                    LDP6    0,,PR5
         1 000244   300075 470500                    LDP0    61,,PR3
         1 000245   200025 720100                    LXL0    NUM,,AUTO
         1 000246   000000 471400 xsym               LDP1    B$XL_UR$
         1 000247   040140 160540                    MVT     fill='040'O
         1 000250   000000 000010                    ADSC9   0,,PR0                   cn=0,n=*X0
         1 000251   600000 200010                    ADSC9   0,,PR6                   cn=1,n=*X0
         1 000252   100000 000100                    ARG     0,,PR1
         1 000253   000273 710000 1                  TRA     s:1573

     1445     1568    5                     CASE(MFC_WRURUC);

     1446     1569    5                       CALL XLATE(G$->CHARS.SKIP1,NK_URTBLUC,F$DCB.UB$->CHRS);

   1569  1 000254   500000 476500                    LDP6    0,,PR5
         1 000255   300075 470500                    LDP0    61,,PR3
         1 000256   200025 720100                    LXL0    NUM,,AUTO
         1 000257   000000 471400 xsym               LDP1    B$XL_UPPER_UR$
         1 000260   040140 160540                    MVT     fill='040'O
         1 000261   000000 000010                    ADSC9   0,,PR0                   cn=0,n=*X0
         1 000262   600000 200010                    ADSC9   0,,PR6                   cn=1,n=*X0
         1 000263   100000 000100                    ARG     0,,PR1
         1 000264   000273 710000 1                  TRA     s:1573

     1447     1570    5                     CASE(ELSE);
PL6.E3A0      #007=FMD$RECTRAN File=FMD$BUF.:E05TSI                              TUE 07/29/97 16:41 Page:285

     1448     1571    5                       G$->CHARS.SKIP1=F$DCB.UB$->CHRS;

   1571  1 000265   500000 476500                    LDP6    0,,PR5
         1 000266   300075 470500                    LDP0    61,,PR3
         1 000267   200025 720100                    LXL0    NUM,,AUTO
         1 000270   040140 100540                    MLR     fill='040'O
         1 000271   000000 000010                    ADSC9   0,,PR0                   cn=0,n=*X0
         1 000272   600000 200010                    ADSC9   0,,PR6                   cn=1,n=*X0

     1449     1572    5                     END;

     1450     1573    4                    GBYTES=NUM+1;

   1573  1 000273   200004 470500                    LDP0    @GBYTES,,AUTO
         1 000274   200025 236100                    LDQ     NUM,,AUTO
         1 000275   000001 036007                    ADLQ    1,DL
         1 000276   000000 756100                    STQ     0,,PR0

     1451     1574    4                    F$DCB.GDISP=F$DCB.GDISP+1;

   1574  1 000277   300101 235100                    LDA     65,,PR3
         1 000300   000001 035007                    ADLA    1,DL
         1 000301   300101 755100                    STA     65,,PR3

     1452     1575    4                    END;

   1575  1 000302   000351 710000 1                  TRA     s:1588

     1453     1576    3                 ELSE ;
     1454     1577    4              ELSE DO;

     1455     1578    5                 DO CASE(TFPTCODE);        /* Move or translate data to monitor.*/

   1578  1 000303   200022 235100                    LDA     TFPTCODE,,AUTO
         1 000304   000012 135007                    SBLA    10,DL
         1 000305   000004 115007                    CMPA    4,DL
PL6.E3A0      #007=FMD$RECTRAN File=FMD$BUF.:E05TSI                              TUE 07/29/97 16:41 Page:286
         1 000306   000310 602005 1                  TNC     s:1578+5,AL
         1 000307   000340 710000 1                  TRA     s:1584
         1 000310   000314 710000 1                  TRA     s:1580
         1 000311   000340 710000 1                  TRA     s:1584
         1 000312   000340 710000 1                  TRA     s:1584
         1 000313   000326 710000 1                  TRA     s:1582

     1456     1579    5                  CASE(MFC_WRUR);

     1457     1580    5                    CALL XLATE(G$->CHRS,NK_URTBL,F$DCB.UB$->CHRS);

   1580  1 000314   200003 474500                    LDP4    @G$,,AUTO
         1 000315   400000 475500                    LDP5    0,,PR4
         1 000316   300075 476500                    LDP6    61,,PR3
         1 000317   200025 720100                    LXL0    NUM,,AUTO
         1 000320   000000 477400 xsym               LDP7    B$XL_UR$
         1 000321   040140 160540                    MVT     fill='040'O
         1 000322   600000 000010                    ADSC9   0,,PR6                   cn=0,n=*X0
         1 000323   500000 000010                    ADSC9   0,,PR5                   cn=0,n=*X0
         1 000324   700000 000100                    ARG     0,,PR7
         1 000325   000347 710000 1                  TRA     s:1586

     1458     1581    5                  CASE(MFC_WRURUC);

     1459     1582    5                    CALL XLATE(G$->CHRS,NK_URTBLUC,F$DCB.UB$->CHRS);

   1582  1 000326   200003 474500                    LDP4    @G$,,AUTO
         1 000327   400000 475500                    LDP5    0,,PR4
         1 000330   300075 476500                    LDP6    61,,PR3
         1 000331   200025 720100                    LXL0    NUM,,AUTO
         1 000332   000000 477400 xsym               LDP7    B$XL_UPPER_UR$
         1 000333   040140 160540                    MVT     fill='040'O
         1 000334   600000 000010                    ADSC9   0,,PR6                   cn=0,n=*X0
         1 000335   500000 000010                    ADSC9   0,,PR5                   cn=0,n=*X0
         1 000336   700000 000100                    ARG     0,,PR7
         1 000337   000347 710000 1                  TRA     s:1586

PL6.E3A0      #007=FMD$RECTRAN File=FMD$BUF.:E05TSI                              TUE 07/29/97 16:41 Page:287
     1460     1583    5                  CASE(ELSE);

     1461     1584    5                    G$->CHRS=F$DCB.UB$->CHRS;

   1584  1 000340   200003 474500                    LDP4    @G$,,AUTO
         1 000341   400000 475500                    LDP5    0,,PR4
         1 000342   300075 476500                    LDP6    61,,PR3
         1 000343   200025 720100                    LXL0    NUM,,AUTO
         1 000344   040140 100540                    MLR     fill='040'O
         1 000345   600000 000010                    ADSC9   0,,PR6                   cn=0,n=*X0
         1 000346   500000 000010                    ADSC9   0,,PR5                   cn=0,n=*X0

     1462     1585    5                  END;

     1463     1586    4                 GBYTES=NUM;

   1586  1 000347   200025 235100                    LDA     NUM,,AUTO
         1 000350   000000 755100                    STA     0,,PR0

     1464     1587    4                 END;

     1465     1588    3              F$DCB.BFR.BUFUP(BUFNUM)='1'B;

   1588  1 000351   200005 471500                    LDP1    @BUFNUM,,AUTO
         1 000352   100000 720100                    LXL0    0,,PR1
         1 000353   400000 236003                    LDQ     -131072,DU
         1 000354   300115 256110                    ORSQ    77,X0,PR3

     1466     1589    3              END;

     1467     1590    2           F$DCB.UB$=PINCRC(F$DCB.UB$,NUM);

   1590  1 000355   200021 471500                    LDP1    JDCB$,,AUTO
         1 000356   100075 473500                    LDP3    61,,PR1
         1 000357   200025 236100                    LDQ     NUM,,AUTO
         1 000360   000011 402007                    MPY     9,DL
         1 000361   000000 116003                    CMPQ    0,DU
PL6.E3A0      #007=FMD$RECTRAN File=FMD$BUF.:E05TSI                              TUE 07/29/97 16:41 Page:288
         1 000362   000364 605000 1                  TPL     s:1590+7
         1 000363   000044 036003                    ADLQ    36,DU
         1 000364   300000 503506                    ABD     0,QL,PR3
         1 000365   100075 453500                    STP3    61,,PR1

     1468     1591    2           F$DCB.UBYTES=F$DCB.UBYTES-NUM;

   1591  1 000366   100076 236100                    LDQ     62,,PR1
         1 000367   200025 136100                    SBLQ    NUM,,AUTO
         1 000370   100076 756100                    STQ     62,,PR1

     1469     1592    2           F$DCB.GDISP=F$DCB.GDISP+NUM;

   1592  1 000371   100101 236100                    LDQ     65,,PR1
         1 000372   200025 036100                    ADLQ    NUM,,AUTO
         1 000373   100101 756100                    STQ     65,,PR1

     1470     1593    2           RETURN;

   1593  1 000374   200024 221300                    LDX1  ! WORD_NUM+1,,AUTO
         1 000375   000001 702211                    TSX2  ! 1,X1

     1471     1594    2   END MOVE;
     1472     1595        %EJECT;
PL6.E3A0      #007=FMD$RECTRAN File=FMD$BUF.:E05TSI                              TUE 07/29/97 16:41 Page:289
     1473     1596        /* Level 2 routine to compress records */
     1474     1597        /************************************************************/
     1475     1598        /*                                                          */
     1476     1599        /*  Great care must be taken when modifying the code        */
     1477     1600        /*  for compression/decompression.  It has been carefully   */
     1478     1601        /*  diddled (that's a technical term) to make sure that CSRs*/
     1479     1602        /*  rather than CSLs are always used when referencing an    */
     1480     1603        /*  FPOOL because of the DPS90 prepaging problem.  Since    */
     1481     1604        /*  none of this code can reference the first two words of  */
     1482     1605        /*  a block (control words are there) CSRs are immune from  */
     1483     1606        /*  the prepaging error.  This is somewhat anti-performant  */
     1484     1607        /*  as CSLs are considerably faster on some models, but we  */
     1485     1608        /*  have no real alternative.                               */
     1486     1609        /*                                                          */
     1487     1610        /************************************************************/
     1488     1611    1   COMPRESS: PROC;

   1611  1 000376   200024 741300       COMPRESS     STX1  ! WORD_NUM+1,,AUTO

     1489     1612        /* SUBS */
     1490     1613        %SUB CODUNK=0;
     1491     1614        %SUB CODSHIFT=1;
     1492     1615        %SUB CODDUP=2;
     1493     1616        /* CONSTANT STORAGE */
     1494     1617    2   DCL XLATETBL(0:511) UBIN CONSTANT INIT(
     1495     1618    2           0,0,0,0,0,0,0,0,0,0,
     1496     1619    2           0,0,0,0,0,0,0,0,0,0,
     1497     1620    2           0,0,0,0,0,0,0,0,0,0,
     1498     1621    2           0,0,3,4,5,6,7,8,0,9,
     1499     1622    2           10,11,12,13,14,15,16,17,18,19,
     1500     1623    2           20,21,22,23,24,25,26,27,28,29,
     1501     1624    2           30,31,32,33,34,419,420,421,422,423,
     1502     1625    2           424,425,426,427,428,429,430,431,432,433,
     1503     1626    2           434,435,436,437,438,439,440,441,442,443,
     1504     1627    2           444,0,0,0,0,61,0,163,164,165,
     1505     1628    2           166,167,168,169,170,171,172,173,174,175,
     1506     1629    2           176,177,178,179,180,181,182,183,184,185,
PL6.E3A0      #007=FMD$RECTRAN File=FMD$BUF.:E05TSI                              TUE 07/29/97 16:41 Page:290
     1507     1630    2           186,187,188,0,62,0,63,0,0*0);
     1508     1631        /* LOCAL AUTOMATIC STORAGE */
     1509     1632    2   DCL CHR UBIN;
     1510     1633    2   DCL PCHR UBIN;
     1511     1634    2   DCL PREVCHR UBIN;
     1512     1635    2   DCL PREV# SBIN;
     1513     1636    2   DCL N SBIN;
     1514     1637    2   DCL 1 NB REDEF N,
     1515     1638    2         2 * BIT(27),
     1516     1639    2         2 UC BIT(1),
     1517     1640    2         2 ALPHA BIT(1),
     1518     1641    2         2 * BIT(7);
     1519     1642    2   DCL GBITS SBIN;
     1520     1643    2   DCL T$ PTR;
     1521     1644    2   DCL CX UBIN;
     1522     1645    2   DCL CXS REDEF CX SBIN;
     1523     1646    2   DCL CNT SBIN;
     1524     1647    2   DCL SHFT SBIN;
     1525     1648    2   DCL 1 SHFTBIT REDEF SHFT,
     1526     1649    2         2 * BIT(35),
     1527     1650    2         2 B BIT(1);
     1528     1651    2   DCL UB$ PTR;
     1529     1652    2   DCL TEMPCHAR CHAR(1) CALIGNED;
     1530     1653        /* BASED STRUCTURES */
     1531     1654    2   DCL UBIN6 UBIN(6) UNAL BASED;
     1532     1655    2   DCL UBIN9 UBIN(9) UNAL BASED;
     1533     1656    2   DCL UBIN3 UBIN(3) UNAL BASED;
     1534     1657    2   DCL CHARS(0:0) CHAR(1) CALIGNED BASED;
     1535     1658    2   DCL 1 SKIP6 BASED UNAL,
     1536     1659    2         2 * BIT(6),
     1537     1660    2         2 UBIN6 UBIN(6) UNAL;
     1538     1661        /**/
     1539     1662    2           SHFT=1;                    /* Record segment starts in upper case     */

   1662  1 000377   000001 235007                    LDA     1,DL
         1 000400   200036 755100                    STA     SHFT,,AUTO

PL6.E3A0      #007=FMD$RECTRAN File=FMD$BUF.:E05TSI                              TUE 07/29/97 16:41 Page:291
     1540     1663    2           F$DCB.BFR.BUFUP(BUFNUM)='1'B;   /* Buffer modified                    */

   1663  1 000401   200005 470500                    LDP0    @BUFNUM,,AUTO
         1 000402   000000 720100                    LXL0    0,,PR0
         1 000403   200021 471500                    LDP1    JDCB$,,AUTO
         1 000404   400000 236003                    LDQ     -131072,DU
         1 000405   100115 256110                    ORSQ    77,X0,PR1

     1541     1664    2           IF ADDR(NIL)=ADDR(FPTCODE) THEN

   1664  1 000406   000001 236000 xsym               LDQ     B_VECTNIL+1
         1 000407   200012 116100                    CMPQ    @FPTCODE,,AUTO
         1 000410   000413 601000 1                  TNZ     s:1667

     1542     1665    2              TFPTCODE=MFC_WRITE;

   1665  1 000411   200022 755100                    STA     TFPTCODE,,AUTO
         1 000412   000416 710000 1                  TRA     s:1668

     1543     1666    2           ELSE
     1544     1667    2              TFPTCODE=FPTCODE;

   1667  1 000413   200012 473500                    LDP3    @FPTCODE,,AUTO
         1 000414   300000 235100                    LDA     0,,PR3
         1 000415   200022 755100                    STA     TFPTCODE,,AUTO

     1545     1668    2           GBITS=GBYTES*9;                 /* # BITS IN MONITOR BUFFER AREA      */

   1668  1 000416   200004 473500                    LDP3    @GBYTES,,AUTO
         1 000417   300000 236100                    LDQ     0,,PR3
         1 000420   000011 402007                    MPY     9,DL
         1 000421   200032 756100                    STQ     GBITS,,AUTO

     1546     1669    2           T$=G$;                          /* POINTER TO MONITOR BUFFER AREA     */

   1669  1 000422   200003 474500                    LDP4    @G$,,AUTO
         1 000423   400000 236100                    LDQ     0,,PR4
PL6.E3A0      #007=FMD$RECTRAN File=FMD$BUF.:E05TSI                              TUE 07/29/97 16:41 Page:292
         1 000424   200033 756100                    STQ     T$,,AUTO

     1547     1670    2           PREV#=0;                        /* NO PREV DUPLICATES                 */

   1670  1 000425   200030 450100                    STZ     PREV#,,AUTO

     1548     1671    2           PREVCHR=32;                     /* PREV CHAR WAS BLANK                */

   1671  1 000426   000040 235007                    LDA     32,DL
         1 000427   200027 755100                    STA     PREVCHR,,AUTO

     1549     1672    2           CX=0;                           /* INDEX INTO USER BUFFER             */

   1672  1 000430   200034 450100                    STZ     CX,,AUTO

     1550     1673    2           CNT=F$DCB.UBYTES;               /* SIZE OF USER BUFFER                */

   1673  1 000431   100076 235100                    LDA     62,,PR1
         1 000432   200035 755100                    STA     CNT,,AUTO

     1551     1674    2           UB$=F$DCB.UB$;                  /* User buffer pointer                */

   1674  1 000433   100075 236100                    LDQ     61,,PR1
         1 000434   200037 756100                    STQ     UB$,,AUTO

     1552     1675    2           TEMP_FAK=FAK;

   1675  1 000435   200007 475500                    LDP5    @FAK,,AUTO
         1 000436   500000 235100                    LDA     0,,PR5
         1 000437   200014 755100                    STA     TEMP_FAK,,AUTO

     1553     1676    2           CWORD$=ADDR(F$DCB.CWORD);

   1676  1 000440   200021 236100                    LDQ     JDCB$,,AUTO
         1 000441   000105 036003                    ADLQ    69,DU
         1 000442   200013 756100                    STQ     CWORD$,,AUTO

PL6.E3A0      #007=FMD$RECTRAN File=FMD$BUF.:E05TSI                              TUE 07/29/97 16:41 Page:293
     1554     1677    2           WORD_NUM=0;

   1677  1 000443   200023 450100                    STZ     WORD_NUM,,AUTO

     1555     1678    2           IF ISEED THEN

   1678  1 000444   200016 235100                    LDA     ISEED,,AUTO
         1 000445   000470 600000 1                  TZE     s:1684

     1556     1679    2              IF FAK=1 THEN

   1679  1 000446   500000 235100                    LDA     0,,PR5
         1 000447   000001 115007                    CMPA    1,DL
         1 000450   000454 601000 1                  TNZ     s:1681

     1557     1680    2                 CALL GET_WORD;

   1680  1 000451   000754 701000 1                  TSX1    GET_WORD
         1 000452   000000 011000                    NOP     0
         1 000453   000470 710000 1                  TRA     s:1684

     1558     1681    2              ELSE IF TFPTCODE ~= MFC_WRUR AND TFPTCODE ~= MFC_WRURUC THEN

   1681  1 000454   200022 235100                    LDA     TFPTCODE,,AUTO
         1 000455   000012 115007                    CMPA    10,DL
         1 000456   000470 600000 1                  TZE     s:1684
         1 000457   000015 115007                    CMPA    13,DL
         1 000460   000470 600000 1                  TZE     s:1684

     1559     1682    2                 UB$=PINCRC(UB$,4-F$DCB.CX);

   1682  1 000461   100104 236100                    LDQ     68,,PR1
         1 000462   000777 376007                    ANQ     511,DL
         1 000463   000020 736000                    QLS     16
         1 000464   000027 676000 xsym               ERQ     B_VECTNIL+23
         1 000465   000000 036000 2                  ADLQ    0
         1 000466   200037 036100                    ADLQ    UB$,,AUTO
PL6.E3A0      #007=FMD$RECTRAN File=FMD$BUF.:E05TSI                              TUE 07/29/97 16:41 Page:294
         1 000467   200037 756100                    STQ     UB$,,AUTO

     1560     1683
     1561     1684    3           IF ADDR(VFC)~=ADDR(NIL) AND FAK~=0 THEN DO;

   1684  1 000470   200011 236100                    LDQ     @VFC,,AUTO
         1 000471   000001 116000 xsym               CMPQ    B_VECTNIL+1
         1 000472   000510 600000 1                  TZE     s:1690
         1 000473   200007 470500                    LDP0    @FAK,,AUTO
         1 000474   000000 235100                    LDA     0,,PR0
         1 000475   000510 600000 1                  TZE     s:1690

     1562     1685    3              CNT=CNT+1;                   /* Incr to include VFC                */

   1685  1 000476   200035 054100                    AOS     CNT,,AUTO

     1563     1686    3              CXS=-1;

   1686  1 000477   000001 335007                    LCA     1,DL
         1 000500   200034 755100                    STA     CX,,AUTO

     1564     1687    3              CHR=ASCBIN(VFC);

   1687  1 000501   200011 471500                    LDP1    @VFC,,AUTO
         1 000502   000100 101500                    MRL     fill='000'O
         1 000503   100000 000001                    ADSC9   0,,PR1                   cn=0,n=1
         1 000504   200046 000004                    ADSC9   MOVE+1,,AUTO             cn=0,n=4
         1 000505   200046 236100                    LDQ     MOVE+1,,AUTO
         1 000506   200025 756100                    STQ     CHR,,AUTO

     1565     1688    3              GOTO GOTCHR;

   1688  1 000507   000574 710000 1                  TRA     GOTCHR

     1566     1689    3              END;
     1567     1690    3           DO WHILE(CNT>0);

PL6.E3A0      #007=FMD$RECTRAN File=FMD$BUF.:E05TSI                              TUE 07/29/97 16:41 Page:295
   1690  1 000510   200035 235100                    LDA     CNT,,AUTO
         1 000511   000653 604400 1                  TMOZ    s:1737

     1568     1691    4              DO CASE(TFPTCODE);      /* Get next byte (or translation thereof)*/

   1691  1 000512   200022 235100                    LDA     TFPTCODE,,AUTO
         1 000513   000012 135007                    SBLA    10,DL
         1 000514   000004 115007                    CMPA    4,DL
         1 000515   000517 602005 1                  TNC     s:1691+5,AL
         1 000516   000557 710000 1                  TRA     s:1699
         1 000517   000523 710000 1                  TRA     s:1693
         1 000520   000557 710000 1                  TRA     s:1699
         1 000521   000557 710000 1                  TRA     s:1699
         1 000522   000541 710000 1                  TRA     s:1696

     1569     1692    4               CASE(MFC_WRUR);

     1570     1693    4                 TEMPCHAR=UB$->CHARS(CX);

   1693  1 000523   200037 470500                    LDP0    UB$,,AUTO
         1 000524   200034 236100                    LDQ     CX,,AUTO
         1 000525   040100 100506                    MLR     fill='040'O
         1 000526   000000 000001                    ADSC9   0,Q,PR0                  cn=0,n=1
         1 000527   200040 000001                    ADSC9   TEMPCHAR,,AUTO           cn=0,n=1

     1571     1694    4                 CHR=ASCBIN(NK_URTBL.C(ASCBIN(TEMPCHAR)));

   1694  1 000530   200040 236100                    LDQ     TEMPCHAR,,AUTO
         1 000531   000033 772000                    QRL     27
         1 000532   000000 471400 xsym               LDP1    B$XL_UR$
         1 000533   000100 101506                    MRL     fill='000'O
         1 000534   100000 000001                    ADSC9   0,Q,PR1                  cn=0,n=1
         1 000535   200046 000004                    ADSC9   MOVE+1,,AUTO             cn=0,n=4
         1 000536   200046 236100                    LDQ     MOVE+1,,AUTO
         1 000537   200025 756100                    STQ     CHR,,AUTO
         1 000540   000574 710000 1                  TRA     GOTCHR

PL6.E3A0      #007=FMD$RECTRAN File=FMD$BUF.:E05TSI                              TUE 07/29/97 16:41 Page:296
     1572     1695    4               CASE(MFC_WRURUC);

     1573     1696    4                 TEMPCHAR=UB$->CHARS(CX);

   1696  1 000541   200037 470500                    LDP0    UB$,,AUTO
         1 000542   200034 236100                    LDQ     CX,,AUTO
         1 000543   040100 100506                    MLR     fill='040'O
         1 000544   000000 000001                    ADSC9   0,Q,PR0                  cn=0,n=1
         1 000545   200040 000001                    ADSC9   TEMPCHAR,,AUTO           cn=0,n=1

     1574     1697    4                 CHR=ASCBIN(NK_URTBLUC.C(ASCBIN(TEMPCHAR)));

   1697  1 000546   200040 236100                    LDQ     TEMPCHAR,,AUTO
         1 000547   000033 772000                    QRL     27
         1 000550   000000 471400 xsym               LDP1    B$XL_UPPER_UR$
         1 000551   000100 101506                    MRL     fill='000'O
         1 000552   100000 000001                    ADSC9   0,Q,PR1                  cn=0,n=1
         1 000553   200046 000004                    ADSC9   MOVE+1,,AUTO             cn=0,n=4
         1 000554   200046 236100                    LDQ     MOVE+1,,AUTO
         1 000555   200025 756100                    STQ     CHR,,AUTO
         1 000556   000574 710000 1                  TRA     GOTCHR

     1575     1698    4               CASE(ELSE);

     1576     1699    4                 IF ISEED THEN

   1699  1 000557   200016 236100                    LDQ     ISEED,,AUTO
         1 000560   000564 600000 1                  TZE     s:1703

     1577     1700    4                    CALL GETCHAR;

   1700  1 000561   000726 701000 1                  TSX1    GETCHAR
         1 000562   000000 011000                    NOP     0
         1 000563   000574 710000 1                  TRA     GOTCHR

     1578     1701    4                 ELSE
     1579     1702    5                    DO;   /* GET NEXT CHARACTER */
PL6.E3A0      #007=FMD$RECTRAN File=FMD$BUF.:E05TSI                              TUE 07/29/97 16:41 Page:297

     1580     1703    5                    TEMPCHAR=UB$->CHARS(CX);

   1703  1 000564   200037 470500                    LDP0    UB$,,AUTO
         1 000565   200034 235100                    LDA     CX,,AUTO
         1 000566   040100 100505                    MLR     fill='040'O
         1 000567   000000 000001                    ADSC9   0,A,PR0                  cn=0,n=1
         1 000570   200040 000001                    ADSC9   TEMPCHAR,,AUTO           cn=0,n=1

     1581     1704    5                    CHR=ASCBIN(TEMPCHAR);

   1704  1 000571   200040 236100                    LDQ     TEMPCHAR,,AUTO
         1 000572   000033 772000                    QRL     27
         1 000573   200025 756100                    STQ     CHR,,AUTO

     1582     1705    5                    END;  /* GET NEXT CHARACTER */

     1583     1706    4               END;

     1584     1707    4   GOTCHR:    IF PREVCHR=CHR AND PREV#<63 THEN DO;

   1707  1 000574   200027 236100       GOTCHR       LDQ     PREVCHR,,AUTO
         1 000575   200025 116100                    CMPQ    CHR,,AUTO
         1 000576   000604 601000 1                  TNZ     s:1713
         1 000577   200030 235100                    LDA     PREV#,,AUTO
         1 000600   000077 115007                    CMPA    63,DL
         1 000601   000604 605000 1                  TPL     s:1713

     1585     1708                                           /* EDITSTR can't do more than 63 at a time */
     1586     1709    4   PUTDUP:       PREV#=PREV#+1;

   1709  1 000602   200030 054100       PUTDUP       AOS     PREV#,,AUTO

     1587     1710    4                 GOTO PUTOK;

   1710  1 000603   000647 710000 1                  TRA     PUTOK

PL6.E3A0      #007=FMD$RECTRAN File=FMD$BUF.:E05TSI                              TUE 07/29/97 16:41 Page:298
     1588     1711    4                 END;
     1589     1712    4              ELSE DO;                     /* DIFF CHAR OR REACHED DUP MAX COUNT */

     1590     1713    4                 IF PREV#~=0 THEN          /* GOT SOME DUPS                      */

   1713  1 000604   200030 235100                    LDA     PREV#,,AUTO
         1 000605   000610 600000 1                  TZE     s:1715

     1591     1714    4                 CALL DUMPPREV ALTRET(FULL);

   1714  1 000606   001066 701000 1                  TSX1    DUMPPREV
         1 000607   000660 702000 1                  TSX2    FULL

     1592     1715    4                 IF PREVCHR=CHR THEN

   1715  1 000610   200027 236100                    LDQ     PREVCHR,,AUTO
         1 000611   200025 116100                    CMPQ    CHR,,AUTO
         1 000612   000602 600000 1                  TZE     PUTDUP

     1593     1716    4                    GOTO PUTDUP;
     1594     1717    4                 PREVCHR=CHR;              /* NEW PREVIOUS CHAR                  */

   1717  1 000613   200025 235100                    LDA     CHR,,AUTO
         1 000614   200027 755100                    STA     PREVCHR,,AUTO

     1595     1718    4                 END;

     1596     1719        /**/
     1597     1720    3              N=XLATETBL(CHR);

   1720  1 000615   000001 235005 0                  LDA     XLATETBL,AL
         1 000616   200031 755100                    STA     N,,AUTO

     1598     1721    4              IF NB.ALPHA THEN DO;         /* Alphabetic                         */

   1721  1 000617   200031 236100                    LDQ     N,,AUTO
         1 000620   000200 316007                    CANQ    128,DL
PL6.E3A0      #007=FMD$RECTRAN File=FMD$BUF.:E05TSI                              TUE 07/29/97 16:41 Page:299
         1 000621   000643 600000 1                  TZE     NOSHIFT

     1599     1722    4                 IF NB.UC=SHFTBIT.B THEN

   1722  1 000622   000100 066500                    CMPB    filb='0'B
         1 000623   200031 600001                    BDSC    N,,AUTO                  by=3,bit=0,n=1
         1 000624   200036 700001                    BDSC    SHFT,,AUTO               by=3,bit=8,n=1
         1 000625   000643 600000 1                  TZE     NOSHIFT

     1600     1723    4                    GOTO NOSHIFT;
     1601     1724    4                 IF GBITS<6 THEN GOTO FULL; /* NO ROOM FOR SHIFT CHAR            */

   1724  1 000626   200032 235100                    LDA     GBITS,,AUTO
         1 000627   000006 115007                    CMPA    6,DL
         1 000630   000660 604000 1                  TMI     FULL

     1602     1725    4                 T$->UBIN6=CODSHIFT;       /* MOVE IN SHIFT CHAR                 */

   1725  1 000631   200033 470500                    LDP0    T$,,AUTO
         1 000632   003100 061400                    CSR     bolr='003'O
         1 000633   000003 000044 xsym               BDSC    B_VECTNIL+3              by=0,bit=0,n=36
         1 000634   000000 000006                    BDSC    0,,PR0                   by=0,bit=0,n=6

     1603     1726    4                 T$=PINCRB(T$,6);

   1726  1 000635   000006 220003                    LDX0    6,DU
         1 000636   000000 503510                    ABD     0,X0,PR0
         1 000637   200033 450500                    STP0    T$,,AUTO

     1604     1727    4                 GBITS=GBITS-6;

   1727  1 000640   000006 336007                    LCQ     6,DL
         1 000641   200032 056100                    ASQ     GBITS,,AUTO

     1605     1728    4                 SHFT=SHFT+1;              /* Toggle shift                       */

   1728  1 000642   200036 054100                    AOS     SHFT,,AUTO
PL6.E3A0      #007=FMD$RECTRAN File=FMD$BUF.:E05TSI                              TUE 07/29/97 16:41 Page:300

     1606     1729    4                 END;

     1607     1730                                                /*                                    */
     1608     1731    3   NOSHIFT:   PCHR=CHR;

   1731  1 000643   200025 235100       NOSHIFT      LDA     CHR,,AUTO
         1 000644   200026 755100                    STA     PCHR,,AUTO

     1609     1732    3              CALL PUT ALTRET(FULL);       /* Put char in buffer                 */

   1732  1 000645   001022 701000 1                  TSX1    PUT
         1 000646   000660 702000 1                  TSX2    FULL

     1610     1733    3   PUTOK:     CXS=CXS+1;

   1733  1 000647   200034 054100       PUTOK        AOS     CX,,AUTO

     1611     1734    3              CNT=CNT-1;

   1734  1 000650   000001 336007                    LCQ     1,DL
         1 000651   200035 056100                    ASQ     CNT,,AUTO

     1612     1735    3              END;

   1735  1 000652   000512 605400 1                  TPNZ    s:1691

     1613     1736        /**/
     1614     1737    2           IF PREV#~=0 THEN

   1737  1 000653   200030 235100                    LDA     PREV#,,AUTO
         1 000654   000657 600000 1                  TZE     s:1740

     1615     1738    2           CALL DUMPPREV;

   1738  1 000655   001066 701000 1                  TSX1    DUMPPREV
         1 000656   000000 011000                    NOP     0
PL6.E3A0      #007=FMD$RECTRAN File=FMD$BUF.:E05TSI                              TUE 07/29/97 16:41 Page:301

     1616     1739        /**/
     1617     1740    3           DO WHILE('0'B);

   1740  1 000657   000664 710000 1                  TRA     s:1743

     1618     1741    3   FULL:      F$DCB.CX=F$DCB.CX-1;

   1741  1 000660   200021 470500       FULL         LDP0    JDCB$,,AUTO
         1 000661   000104 236100                    LDQ     68,,PR0
         1 000662   000777 036007                    ADLQ    511,DL
         1 000663   000104 552104                    STBQ    68,'04'O,PR0

     1619     1742    3           END;  /* WHILE */

     1620     1743    2           N=MOD(GBITS,9);

   1743  1 000664   200032 236100                    LDQ     GBITS,,AUTO
         1 000665   000011 506007                    DIV     9,DL
         1 000666   200031 755100                    STA     N,,AUTO

     1621     1744    2           IF N = 3                        /* ZERO TO NEXT BYTE BOUNDARY         */

   1744  1 000667   000003 115007                    CMPA    3,DL
         1 000670   000676 601000 1                  TNZ     s:1748

     1622     1745    2           THEN
     1623     1746    2              T$ -> UBIN3 = 0;

   1746  1 000671   200033 470500                    LDP0    T$,,AUTO
         1 000672   003100 061400                    CSR     bolr='003'O
         1 000673   000002 000044 xsym               BDSC    B_VECTNIL+2              by=0,bit=0,n=36
         1 000674   000000 000003                    BDSC    0,,PR0                   by=0,bit=0,n=3
         1 000675   000704 710000 1                  TRA     s:1751

     1624     1747    2           ELSE
     1625     1748    2              IF N = 6
PL6.E3A0      #007=FMD$RECTRAN File=FMD$BUF.:E05TSI                              TUE 07/29/97 16:41 Page:302

   1748  1 000676   000006 115007                    CMPA    6,DL
         1 000677   000704 601000 1                  TNZ     s:1751

     1626     1749    2              THEN
     1627     1750    2                 T$ -> UBIN6 = 0;

   1750  1 000700   200033 470500                    LDP0    T$,,AUTO
         1 000701   003100 061400                    CSR     bolr='003'O
         1 000702   000002 000044 xsym               BDSC    B_VECTNIL+2              by=0,bit=0,n=36
         1 000703   000000 000006                    BDSC    0,,PR0                   by=0,bit=0,n=6

     1628     1751    2           F$DCB.UBYTES=CNT;

   1751  1 000704   200035 236100                    LDQ     CNT,,AUTO
         1 000705   200021 470500                    LDP0    JDCB$,,AUTO
         1 000706   000076 756100                    STQ     62,,PR0

     1629     1752    2           F$DCB.UB$=PINCRC(F$DCB.UB$,CX);

   1752  1 000707   000075 471500                    LDP1    61,,PR0
         1 000710   200034 236100                    LDQ     CX,,AUTO
         1 000711   000011 402007                    MPY     9,DL
         1 000712   100000 503506                    ABD     0,QL,PR1
         1 000713   000075 451500                    STP1    61,,PR0

     1630     1753    2           GBYTES=GBYTES-(GBITS/9);        /* # BYTES USED                       */

   1753  1 000714   200032 236100                    LDQ     GBITS,,AUTO
         1 000715   000011 506007                    DIV     9,DL
         1 000716   200046 756100                    STQ     MOVE+1,,AUTO
         1 000717   200004 473500                    LDP3    @GBYTES,,AUTO
         1 000720   300000 236100                    LDQ     0,,PR3
         1 000721   200046 136100                    SBLQ    MOVE+1,,AUTO
         1 000722   300000 756100                    STQ     0,,PR3

     1631     1754    2           F$DCB.GDISP=GBYTES;
PL6.E3A0      #007=FMD$RECTRAN File=FMD$BUF.:E05TSI                              TUE 07/29/97 16:41 Page:303

   1754  1 000723   000101 756100                    STQ     65,,PR0

     1632     1755    2           RETURN;

   1755  1 000724   200024 221300                    LDX1  ! WORD_NUM+1,,AUTO
         1 000725   000001 702211                    TSX2  ! 1,X1

     1633     1756        %EJECT;
PL6.E3A0      #007=FMD$RECTRAN File=FMD$BUF.:E05TSI                              TUE 07/29/97 16:41 Page:304
     1634     1757    2   GETCHAR: PROC;

   1757  1 000726   200042 741300       GETCHAR      STX1  ! TEMPCHAR+2,,AUTO

     1635     1758    3          DCL CHAR_TEMP CHAR(1);
     1636     1759        /* */
     1637     1760    3          IF F$DCB.CX >= 4 THEN

   1760  1 000727   200021 470500                    LDP0    JDCB$,,AUTO
         1 000730   000104 236100                    LDQ     68,,PR0
         1 000731   000777 376007                    ANQ     511,DL
         1 000732   000004 116007                    CMPQ    4,DL
         1 000733   000736 602000 1                  TNC     s:1763

     1638     1761    3             CALL GET_WORD;

   1761  1 000734   000754 701000 1                  TSX1    GET_WORD
         1 000735   000000 011000                    NOP     0

     1639     1762
     1640     1763    3          CALL INSERT(CHAR_TEMP, 0, 1,

   1763  1 000736   200021 470500                    LDP0    JDCB$,,AUTO
         1 000737   000104 236100                    LDQ     68,,PR0
         1 000740   000777 376007                    ANQ     511,DL
         1 000741   040100 100506                    MLR     fill='040'O
         1 000742   000105 000001                    ADSC9   69,Q,PR0                 cn=0,n=1
         1 000743   200043 000001                    ADSC9   CHAR_TEMP,,AUTO          cn=0,n=1

     1641     1764    3             SUBSTR(F$DCB.CWORD, F$DCB.CX, 1));
     1642     1765    3          CHR=ASCBIN(CHAR_TEMP);

   1765  1 000744   200043 236100                    LDQ     CHAR_TEMP,,AUTO
         1 000745   000033 772000                    QRL     27
         1 000746   200025 756100                    STQ     CHR,,AUTO

     1643     1766    3          F$DCB.CX=F$DCB.CX+1;
PL6.E3A0      #007=FMD$RECTRAN File=FMD$BUF.:E05TSI                              TUE 07/29/97 16:41 Page:305

   1766  1 000747   000104 236100                    LDQ     68,,PR0
         1 000750   000001 036007                    ADLQ    1,DL
         1 000751   000104 552104                    STBQ    68,'04'O,PR0

     1644     1767
     1645     1768    3          RETURN;

   1768  1 000752   200042 221300                    LDX1  ! TEMPCHAR+2,,AUTO
         1 000753   000001 702211                    TSX2  ! 1,X1

     1646     1769    3          END GETCHAR;
     1647     1770    2   GET_WORD: PROC;

   1770  1 000754   200044 741300       GET_WORD     STX1  ! CHAR_TEMP+1,,AUTO

     1648     1771    3          DCL MOVE UBIN;
     1649     1772        /* */
     1650     1773    3          IF CNT < 4 THEN

   1773  1 000755   200035 235100                    LDA     CNT,,AUTO
         1 000756   000004 115007                    CMPA    4,DL
         1 000757   000762 605000 1                  TPL     s:1776

     1651     1774    3             MOVE=CNT;

   1774  1 000760   200045 755100                    STA     MOVE,,AUTO
         1 000761   000764 710000 1                  TRA     s:1778

     1652     1775    3          ELSE
     1653     1776    3             MOVE=4;

   1776  1 000762   000004 236007                    LDQ     4,DL
         1 000763   200045 756100                    STQ     MOVE,,AUTO

     1654     1777
     1655     1778    3          CALL INSERT(F$DCB.CWORD, 0, 4,
PL6.E3A0      #007=FMD$RECTRAN File=FMD$BUF.:E05TSI                              TUE 07/29/97 16:41 Page:306

   1778  1 000764   200023 236100                    LDQ     WORD_NUM,,AUTO
         1 000765   000002 736000                    QLS     2
         1 000766   200037 470500                    LDP0    UB$,,AUTO
         1 000767   200045 720100                    LXL0    MOVE,,AUTO
         1 000770   200021 471500                    LDP1    JDCB$,,AUTO
         1 000771   040100 100546                    MLR     fill='040'O
         1 000772   000000 000010                    ADSC9   0,Q,PR0                  cn=0,n=*X0
         1 000773   100105 000004                    ADSC9   69,,PR1                  cn=0,n=4

     1656     1779    3             SUBSTR(UB$->BASED_WORD(WORD_NUM), 0, MOVE));
     1657     1780    3          CALL FMD$ENCRYPT(CWORD$, 1, ISEED, F$DCB.CSEED,

   1780  1 000774   200014 633500                    EPPR3   TEMP_FAK,,AUTO
         1 000775   200052 453500                    STP3    MOVE+5,,AUTO
         1 000776   200021 236100                    LDQ     JDCB$,,AUTO
         1 000777   000072 036003                    ADLQ    58,DU
         1 001000   200051 756100                    STQ     MOVE+4,,AUTO
         1 001001   200016 634500                    EPPR4   ISEED,,AUTO
         1 001002   200050 454500                    STP4    MOVE+3,,AUTO
         1 001003   000001 236000 2                  LDQ     1
         1 001004   200047 756100                    STQ     MOVE+2,,AUTO
         1 001005   200013 635500                    EPPR5   CWORD$,,AUTO
         1 001006   200046 455500                    STP5    MOVE+1,,AUTO
         1 001007   200046 630500                    EPPR0   MOVE+1,,AUTO
         1 001010   000023 631400 xsym               EPPR1   B_VECTNIL+19
         1 001011   000000 701000 xent               TSX1    FMD$ENCRYPT
         1 001012   000000 011000                    NOP     0

     1658     1781    3             TEMP_FAK);
     1659     1782    3          TEMP_FAK=0;

   1782  1 001013   200014 450100                    STZ     TEMP_FAK,,AUTO

     1660     1783    3          WORD_NUM=WORD_NUM+1;

   1783  1 001014   200023 054100                    AOS     WORD_NUM,,AUTO
PL6.E3A0      #007=FMD$RECTRAN File=FMD$BUF.:E05TSI                              TUE 07/29/97 16:41 Page:307

     1661     1784    3          F$DCB.CX=0;

   1784  1 001015   200021 470500                    LDP0    JDCB$,,AUTO
         1 001016   000000 236003                    LDQ     0,DU
         1 001017   000104 552104                    STBQ    68,'04'O,PR0

     1662     1785
     1663     1786    3          RETURN;

   1786  1 001020   200044 221300                    LDX1  ! CHAR_TEMP+1,,AUTO
         1 001021   000001 702211                    TSX2  ! 1,X1

     1664     1787    3          END GET_WORD;
     1665     1788        %EJECT;
PL6.E3A0      #007=FMD$RECTRAN File=FMD$BUF.:E05TSI                              TUE 07/29/97 16:41 Page:308
     1666     1789        /* LEVEL 3 ROUTINE TO MOVE BITS INTO MONITOR BUFFER */
     1667     1790    2   PUT:    PROC ALTRET;

   1790  1 001022   200044 741300       PUT          STX1  ! CHAR_TEMP+1,,AUTO

     1668     1791    3   DCL 1 SKIP6 BASED UNAL,
     1669     1792    3         2 * BIT(6),
     1670     1793    3         2 UBIN12 UBIN(12) UNAL;
     1671     1794        /**/
     1672     1795    4           IF N=0 THEN DO;                 /* UNKNOWN CHARACTER                  */

   1795  1 001023   200031 235100                    LDA     N,,AUTO
         1 001024   001047 601000 1                  TNZ     s:1804

     1673     1796    4              IF GBITS<18 THEN ALTRETURN;  /* NO ROOM                            */

   1796  1 001025   200032 236100                    LDQ     GBITS,,AUTO
         1 001026   000022 116007                    CMPQ    18,DL
         1 001027   001031 605000 1                  TPL     s:1797

   1796  1 001030   000000 702211                    TSX2  ! 0,X1

     1674     1797    4              T$->UBIN6=CODUNK;

   1797  1 001031   200033 470500                    LDP0    T$,,AUTO
         1 001032   003100 061400                    CSR     bolr='003'O
         1 001033   000002 000044 xsym               BDSC    B_VECTNIL+2              by=0,bit=0,n=36
         1 001034   000000 000006                    BDSC    0,,PR0                   by=0,bit=0,n=6

     1675     1798    4              T$->SKIP6.UBIN12=PCHR;

   1798  1 001035   003100 061500                    CSR     bolr='003'O
         1 001036   200026 000044                    BDSC    PCHR,,AUTO               by=0,bit=0,n=36
         1 001037   000000 060014                    BDSC    0,,PR0                   by=0,bit=6,n=12

     1676     1799    4              T$=PINCRB(T$,18);

PL6.E3A0      #007=FMD$RECTRAN File=FMD$BUF.:E05TSI                              TUE 07/29/97 16:41 Page:309
   1799  1 001040   200033 236100                    LDQ     T$,,AUTO
         1 001041   400000 036007                    ADLQ    -131072,DL
         1 001042   200033 756100                    STQ     T$,,AUTO

     1677     1800    4              GBITS=GBITS-18;

   1800  1 001043   000022 336007                    LCQ     18,DL
         1 001044   200032 056100                    ASQ     GBITS,,AUTO

     1678     1801    4              RETURN;

   1801  1 001045   200044 221300                    LDX1  ! CHAR_TEMP+1,,AUTO
         1 001046   000001 702211                    TSX2  ! 1,X1

     1679     1802    4              END;
     1680     1803                                                /*                                    */
     1681     1804    3           IF GBITS<6 THEN ALTRETURN;

   1804  1 001047   200032 236100                    LDQ     GBITS,,AUTO
         1 001050   000006 116007                    CMPQ    6,DL
         1 001051   001053 605000 1                  TPL     s:1805

   1804  1 001052   000000 702211                    TSX2  ! 0,X1

     1682     1805    3           T$->UBIN6=N;

   1805  1 001053   200033 470500                    LDP0    T$,,AUTO
         1 001054   003100 061500                    CSR     bolr='003'O
         1 001055   200031 000044                    BDSC    N,,AUTO                  by=0,bit=0,n=36
         1 001056   000000 000006                    BDSC    0,,PR0                   by=0,bit=0,n=6

     1683     1806    3           T$=PINCRB(T$,6);

   1806  1 001057   000006 220003                    LDX0    6,DU
         1 001060   000000 503510                    ABD     0,X0,PR0
         1 001061   200033 450500                    STP0    T$,,AUTO

PL6.E3A0      #007=FMD$RECTRAN File=FMD$BUF.:E05TSI                              TUE 07/29/97 16:41 Page:310
     1684     1807    3           GBITS=GBITS-6;

   1807  1 001062   000006 336007                    LCQ     6,DL
         1 001063   200032 056100                    ASQ     GBITS,,AUTO

     1685     1808    3           RETURN;

   1808  1 001064   200044 221300                    LDX1  ! CHAR_TEMP+1,,AUTO
         1 001065   000001 702211                    TSX2  ! 1,X1

     1686     1809    3   END PUT;
     1687     1810        %EJECT;
PL6.E3A0      #007=FMD$RECTRAN File=FMD$BUF.:E05TSI                              TUE 07/29/97 16:41 Page:311
     1688     1811        /* LEVEL 3 ROUTINE TO DUMP DUP CHARS */
     1689     1812    2   DUMPPREV: PROC ALTRET;

   1812  1 001066   200042 741300       DUMPPREV     STX1  ! TEMPCHAR+2,,AUTO

     1690     1813    4           IF PREV#>=3 THEN DO;            /* ENUF FOR DUP CODE                  */

   1813  1 001067   200030 235100                    LDA     PREV#,,AUTO
         1 001070   000003 115007                    CMPA    3,DL
         1 001071   001125 604000 1                  TMI     s:1825

     1691     1814    5              IF GBITS<12 THEN DO;         /* NOT ENUF ROOM                      */

   1814  1 001072   200032 236100                    LDQ     GBITS,,AUTO
         1 001073   000014 116007                    CMPQ    12,DL
         1 001074   001105 605000 1                  TPL     s:1819

     1692     1815    5   BACKUP:       CX=CX-PREV#;              /* BACKUP TO GET THESE CHARS AGAIN    */

   1815  1 001075   200034 236100       BACKUP       LDQ     CX,,AUTO
         1 001076   200030 136100                    SBLQ    PREV#,,AUTO
         1 001077   200034 756100                    STQ     CX,,AUTO

     1693     1816    5                 CNT=CNT+PREV#;

   1816  1 001100   200035 236100                    LDQ     CNT,,AUTO
         1 001101   200030 036100                    ADLQ    PREV#,,AUTO
         1 001102   200035 756100                    STQ     CNT,,AUTO

     1694     1817    5                 ALTRETURN;

   1817  1 001103   200042 221300                    LDX1  ! TEMPCHAR+2,,AUTO
         1 001104   000000 702211                    TSX2  ! 0,X1

     1695     1818    5                 END;
     1696     1819    4              T$->UBIN6=CODDUP;            /* MOVE IN DUP CODE                   */

PL6.E3A0      #007=FMD$RECTRAN File=FMD$BUF.:E05TSI                              TUE 07/29/97 16:41 Page:312
   1819  1 001105   200033 470500                    LDP0    T$,,AUTO
         1 001106   003100 061400                    CSR     bolr='003'O
         1 001107   000004 000044 xsym               BDSC    B_VECTNIL+4              by=0,bit=0,n=36
         1 001110   000000 000006                    BDSC    0,,PR0                   by=0,bit=0,n=6

     1697     1820    4              T$->SKIP6.UBIN6=PREV#-3;     /* COUNT-3                            */

   1820  1 001111   200030 236100                    LDQ     PREV#,,AUTO
         1 001112   000003 136007                    SBLQ    3,DL
         1 001113   200046 756100                    STQ     MOVE+1,,AUTO
         1 001114   003100 061500                    CSR     bolr='003'O
         1 001115   200046 000044                    BDSC    MOVE+1,,AUTO             by=0,bit=0,n=36
         1 001116   000000 060006                    BDSC    0,,PR0                   by=0,bit=6,n=6

     1698     1821    4              T$=PINCRB(T$,12);

   1821  1 001117   000014 220003                    LDX0    12,DU
         1 001120   000000 503510                    ABD     0,X0,PR0
         1 001121   200033 450500                    STP0    T$,,AUTO

     1699     1822    4              GBITS=GBITS-12;

   1822  1 001122   000014 336007                    LCQ     12,DL
         1 001123   200032 056100                    ASQ     GBITS,,AUTO

     1700     1823    4              END;

   1823  1 001124   001141 710000 1                  TRA     s:1832

     1701     1824    4           ELSE DO;                   /* NOT ENOUGH FOR DUP - PUT THE CHARS IN   */

     1702     1825    4              N=XLATETBL(PREVCHR);

   1825  1 001125   200027 720100                    LXL0    PREVCHR,,AUTO
         1 001126   000001 235010 0                  LDA     XLATETBL,X0
         1 001127   200031 755100                    STA     N,,AUTO

PL6.E3A0      #007=FMD$RECTRAN File=FMD$BUF.:E05TSI                              TUE 07/29/97 16:41 Page:313
     1703     1826    4              PCHR=PREVCHR;

   1826  1 001130   200027 236100                    LDQ     PREVCHR,,AUTO
         1 001131   200026 756100                    STQ     PCHR,,AUTO

     1704     1827    5              DO WHILE(PREV#>0);

   1827  1 001132   200030 235100                    LDA     PREV#,,AUTO
         1 001133   001141 604400 1                  TMOZ    s:1832

     1705     1828    5                 CALL PUT ALTRET(BACKUP);

   1828  1 001134   001022 701000 1                  TSX1    PUT
         1 001135   001075 702000 1                  TSX2    BACKUP

     1706     1829    5                 PREV#=PREV#-1;

   1829  1 001136   000001 336007                    LCQ     1,DL
         1 001137   200030 056100                    ASQ     PREV#,,AUTO

     1707     1830    5                 END;

   1830  1 001140   001134 605400 1                  TPNZ    s:1828

     1708     1831    4              END;

     1709     1832    3           PREV#=0;

   1832  1 001141   200030 450100                    STZ     PREV#,,AUTO

     1710     1833    3           RETURN;

   1833  1 001142   200042 221300                    LDX1  ! TEMPCHAR+2,,AUTO
         1 001143   000001 702211                    TSX2  ! 1,X1

     1711     1834    3   END DUMPPREV;
     1712     1835    2   END COMPRESS;
PL6.E3A0      #007=FMD$RECTRAN File=FMD$BUF.:E05TSI                              TUE 07/29/97 16:41 Page:314
     1713     1836        %EJECT;
PL6.E3A0      #007=FMD$RECTRAN File=FMD$BUF.:E05TSI                              TUE 07/29/97 16:41 Page:315
     1714     1837        /* Level 2 routine to compress records */
     1715     1838        /************************************************************/
     1716     1839        /*                                                          */
     1717     1840        /*  Great care must be taken when modifying the code        */
     1718     1841        /*  for compression/decompression.  It has been carefully   */
     1719     1842        /*  diddled (that's a technical term) to make sure that CSRs*/
     1720     1843        /*  rather than CSLs are always used when referencing an    */
     1721     1844        /*  FPOOL because of the DPS90 prepaging problem.  Since    */
     1722     1845        /*  none of this code can reference the first two words of  */
     1723     1846        /*  a block (control words are there) CSRs are immune from  */
     1724     1847        /*  the prepaging error.  This is somewhat anti-performant  */
     1725     1848        /*  as CSLs are considerably faster on some models, but we  */
     1726     1849        /*  have no real alternative.                               */
     1727     1850        /*                                                          */
     1728     1851        /************************************************************/
     1729     1852    1   DECOMP: PROC ALTRET;

   1852  1 001144   200024 741300       DECOMP       STX1  ! WORD_NUM+1,,AUTO

     1730     1853        /* CONSTANT STORAGE */
     1731     1854    2   DCL 1 CHRTBL(0:127) UBIN CONSTANT INIT(
     1732     1855    2         0,0,0,32,33,34,35,36,37,39,
     1733     1856    2         40,41,42,43,44,45,46,47,48,49,
     1734     1857    2         50,51,52,53,54,55,56,57,58,59,
     1735     1858    2         60,61,62,63,64,65,66,67,68,69,
     1736     1859    2         70,71,72,73,74,75,76,77,78,79,
     1737     1860    2         80,81,82,83,84,85,86,87,88,89,
     1738     1861    2         90,95,124,126,
     1739     1862    2         0,0,0,32,33,34,35,36,37,39,
     1740     1863    2         40,41,42,43,44,45,46,47,48,49,
     1741     1864    2         50,51,52,53,54,55,56,57,58,59,
     1742     1865    2         60,61,62,63,64,97,98,99,100,101,
     1743     1866    2         102,103,104,105,106,107,108,109,110,111,
     1744     1867    2         112,113,114,115,116,117,118,119,120,121,
     1745     1868    2         122,95,124,126);
     1746     1869        /* LOCAL AUTOMATIC STORAGE */
     1747     1870    2   DCL GBITS SBIN;
PL6.E3A0      #007=FMD$RECTRAN File=FMD$BUF.:E05TSI                              TUE 07/29/97 16:41 Page:316
     1748     1871    2   DCL T$ PTR;
     1749     1872    2   DCL PREVCHR UBIN;
     1750     1873    2   DCL I UBIN;
     1751     1874    2   DCL N UBIN;
     1752     1875    2   DCL 1 NB REDEF N,
     1753     1876    2         2 * BIT(30),
     1754     1877    2         2 LB6 BIT(6);
     1755     1878    2   DCL CNT SBIN;
     1756     1879    2   DCL CX UBIN;
     1757     1880    2   DCL CXS REDEF CX SBIN;
     1758     1881    2   DCL 1 MICROPS DALIGNED,
     1759     1882    2         2 C CHAR(1),
     1760     1883    2         2 FILL UBIN(9) UNAL,
     1761     1884    2         2 * BIT(36);
     1762     1885    2   DCL SHFT SBIN;
     1763     1886    2   DCL 1 SHFTBIT REDEF SHFT,
     1764     1887    2         2 * BIT(35),
     1765     1888    2         2 B BIT(1);
     1766     1889    2   DCL UB$ PTR;
     1767     1890        /* BASED */
     1768     1891    2   DCL CHAR1 CHAR(1) BASED;
     1769     1892    2   DCL 1 SKIP6 BASED UNAL,
     1770     1893    2         2 * BIT(6),
     1771     1894    2         2 UBIN6 UBIN(6) UNAL;
     1772     1895    2   DCL 1 SKIP9 BASED UNAL,
     1773     1896    2         2 * BIT(9),
     1774     1897    2         2 UBIN9 UBIN(9) UNAL;
     1775     1898    2   DCL UBIN6 UBIN(6) UNAL BASED;
     1776     1899    2   DCL UBIN9 UBIN(9) UNAL BASED;
     1777     1900    2   DCL CHARS(0:0) CHAR(1) BASED;
     1778     1901        /* CONSTANT STORAGE */
     1779     1902    2   DCL 1 INITMICROPS CONSTANT DALIGNED,
     1780     1903    2         2 * BIT(9) INIT(%LTE1),
     1781     1904    2         2 * CHAR(1),
     1782     1905    2         2 * BIT(9) INIT(%INSM16),
     1783     1906    2         2 * BIT(9) INIT(%INSM16),
     1784     1907    2         2 * BIT(9) INIT(%INSM16),
PL6.E3A0      #007=FMD$RECTRAN File=FMD$BUF.:E05TSI                              TUE 07/29/97 16:41 Page:317
     1785     1908    2         2 * BIT(9) INIT(%INSM16);
     1786     1909        /**/
     1787     1910    2           SHFT=1;                    /* Record segment starts in upper case     */

   1910  1 001145   000001 235007                    LDA     1,DL
         1 001146   200036 755100                    STA     SHFT,,AUTO

     1788     1911    2           GBITS=GBYTES*9;                 /* SIZE OF MON BUFFER AREA IN BITS    */

   1911  1 001147   200004 470500                    LDP0    @GBYTES,,AUTO
         1 001150   000000 236100                    LDQ     0,,PR0
         1 001151   000011 402007                    MPY     9,DL
         1 001152   200025 756100                    STQ     GBITS,,AUTO

     1789     1912    2           T$=G$;

   1912  1 001153   200003 471500                    LDP1    @G$,,AUTO
         1 001154   100000 236100                    LDQ     0,,PR1
         1 001155   200026 756100                    STQ     T$,,AUTO

     1790     1913    2           PREVCHR=32;                     /* PREVIOUS CHAR IS BLANK             */

   1913  1 001156   000040 235007                    LDA     32,DL
         1 001157   200027 755100                    STA     PREVCHR,,AUTO

     1791     1914    2           CX=0;                           /* INDEX INTO USER BUFFER             */

   1914  1 001160   200033 450100                    STZ     CX,,AUTO

     1792     1915    2           CNT=F$DCB.UBYTES;               /* # BYTES REMAINING                  */

   1915  1 001161   200021 473500                    LDP3    JDCB$,,AUTO
         1 001162   300076 235100                    LDA     62,,PR3
         1 001163   200032 755100                    STA     CNT,,AUTO

     1793     1916    2           UB$=F$DCB.UB$;                  /* User buffer pointer                */

PL6.E3A0      #007=FMD$RECTRAN File=FMD$BUF.:E05TSI                              TUE 07/29/97 16:41 Page:318
   1916  1 001164   300075 236100                    LDQ     61,,PR3
         1 001165   200037 756100                    STQ     UB$,,AUTO

     1794     1917    2           IF FAK = 1 AND FPT$READ_V.STRPVFC AND F$DCB.DVBYTE.VFC THEN

   1917  1 001166   200007 474500                    LDP4    @FAK,,AUTO
         1 001167   400000 235100                    LDA     0,,PR4
         1 001170   000001 115007                    CMPA    1,DL
         1 001171   001204 601000 1                  TNZ     s:1920
         1 001172   000000 475400 xsym               LDP5    B$PS0$
         1 001173   500003 236100                    LDQ     3,,PR5
         1 001174   000400 316003                    CANQ    256,DU
         1 001175   001204 600000 1                  TZE     s:1920
         1 001176   300003 236100                    LDQ     3,,PR3
         1 001177   100000 316003                    CANQ    32768,DU
         1 001200   001204 600000 1                  TZE     s:1920

     1795     1918    2              TEMP_FAK=1;

   1918  1 001201   000001 235007                    LDA     1,DL
         1 001202   200014 755100                    STA     TEMP_FAK,,AUTO
         1 001203   001205 710000 1                  TRA     s:1921

     1796     1919    2           ELSE
     1797     1920    2              TEMP_FAK=0;

   1920  1 001204   200014 450100                    STZ     TEMP_FAK,,AUTO

     1798     1921    2           IF ISEED THEN

   1921  1 001205   200016 235100                    LDA     ISEED,,AUTO
         1 001206   001211 600000 1                  TZE     s:1925

     1799     1922    3              DO;   /* DECRYPT LATER */

     1800     1923    3              F$DCB.DECRYPT='1'B;

PL6.E3A0      #007=FMD$RECTRAN File=FMD$BUF.:E05TSI                              TUE 07/29/97 16:41 Page:319
   1923  1 001207   001000 236007                    LDQ     512,DL
         1 001210   300102 256100                    ORSQ    66,,PR3

     1801     1924    3              END;  /* DECRYPT LATER */

     1802     1925    3           DO WHILE(CNT>0);

   1925  1 001211   200032 236100                    LDQ     CNT,,AUTO
         1 001212   001444 604400 1                  TMOZ    s:2003

     1803     1926    4              IF GBITS<6 THEN DO;          /* At end                             */

   1926  1 001213   200025 235100                    LDA     GBITS,,AUTO
         1 001214   000006 115007                    CMPA    6,DL
         1 001215   001217 605000 1                  TPL     s:1929

     1804     1927    4                 GOTO DONE;

   1927  1 001216   001447 710000 1                  TRA     DONE

     1805     1928    4                 END;
     1806     1929    3              N=T$->UBIN6;

   1929  1 001217   200026 470500                    LDP0    T$,,AUTO
         1 001220   003100 061500                    CSR     bolr='003'O
         1 001221   000000 000006                    BDSC    0,,PR0                   by=0,bit=0,n=6
         1 001222   200031 000044                    BDSC    N,,AUTO                  by=0,bit=0,n=36

     1807     1930    4              DO CASE(N);

   1930  1 001223   200031 236100                    LDQ     N,,AUTO
         1 001224   000003 116007                    CMPQ    3,DL
         1 001225   001227 602006 1                  TNC     s:1930+4,QL
         1 001226   001372 710000 1                  TRA     s:1983
         1 001227   001330 710000 1                  TRA     s:1965
         1 001230   001321 710000 1                  TRA     s:1960
         1 001231   001232 710000 1                  TRA     s:1932
PL6.E3A0      #007=FMD$RECTRAN File=FMD$BUF.:E05TSI                              TUE 07/29/97 16:41 Page:320

     1808     1931    4               CASE(2);                    /* DUPLICATE CHARS                    */

     1809     1932    4                 IF GBITS<12 THEN GOTO ERR; /* COUNT MUST BE PRESENT             */

   1932  1 001232   000014 115007                    CMPA    12,DL
         1 001233   001466 604000 1                  TMI     ERR

     1810     1933    4                 N=T$->SKIP6.UBIN6;        /* Get the count                      */

   1933  1 001234   003100 061500                    CSR     bolr='003'O
         1 001235   000000 060006                    BDSC    0,,PR0                   by=0,bit=6,n=6
         1 001236   200031 000044                    BDSC    N,,AUTO                  by=0,bit=0,n=36

     1811     1934    4                 N=N+3;

   1934  1 001237   200031 236100                    LDQ     N,,AUTO
         1 001240   000003 036007                    ADLQ    3,DL
         1 001241   200031 756100                    STQ     N,,AUTO

     1812     1935    4                 T$=PINCRB(T$,12);

   1935  1 001242   000014 220003                    LDX0    12,DU
         1 001243   000000 503510                    ABD     0,X0,PR0
         1 001244   200026 450500                    STP0    T$,,AUTO

     1813     1936    4                 GBITS=GBITS-12;

   1936  1 001245   000014 336007                    LCQ     12,DL
         1 001246   200025 056100                    ASQ     GBITS,,AUTO

     1814     1937    4                 IF N>CNT

   1937  1 001247   200031 236100                    LDQ     N,,AUTO
         1 001250   001253 604000 1                  TMI     s:1943
         1 001251   200032 116100                    CMPQ    CNT,,AUTO
         1 001252   001261 604400 1                  TMOZ    s:1947
PL6.E3A0      #007=FMD$RECTRAN File=FMD$BUF.:E05TSI                              TUE 07/29/97 16:41 Page:321

     1815     1938    4                 THEN  /* NOT ENOUGH ROOM IN USER BUFFER FOR ENTIRE REPEAT ITEM.
     1816     1939                              MUST SET N TO THE SMALLER AMOUNT, AND BACK UP T$ AND
     1817     1940                              GBITS SO THAT THE CODE AT THE END WILL REALIZE THAT
     1818     1941                              NOT ALL OF THE MON BUFFER INFO WAS PROCESSED. */
     1819     1942    5                 DO;

     1820     1943    5                    N=CNT;

   1943  1 001253   200032 235100                    LDA     CNT,,AUTO
         1 001254   200031 755100                    STA     N,,AUTO

     1821     1944    5                    T$=PINCRB(T$,-12);     /* BACK UP OVER COUNT AND DUP CODE    */

   1944  1 001255   000000 523510                    SBD     0,X0,PR0
         1 001256   200026 450500                    STP0    T$,,AUTO

     1822     1945    5                    GBITS=GBITS+12;

   1945  1 001257   000014 236007                    LDQ     12,DL
         1 001260   200025 056100                    ASQ     GBITS,,AUTO

     1823     1946    5                    END;

     1824     1947    4                 IF TEMP_FAK = 1 THEN

   1947  1 001261   200014 235100                    LDA     TEMP_FAK,,AUTO
         1 001262   000001 115007                    CMPA    1,DL
         1 001263   001275 601000 1                  TNZ     s:1953

     1825     1948    5                    DO;   /* STRIP VFC */

     1826     1949    5                    F$DCB.VFCCHAR=BINASC(PREVCHR);

   1949  1 001264   200027 236100                    LDQ     PREVCHR,,AUTO
         1 001265   000033 736000                    QLS     27
         1 001266   000002 276000 2                  ORQ     2
PL6.E3A0      #007=FMD$RECTRAN File=FMD$BUF.:E05TSI                              TUE 07/29/97 16:41 Page:322
         1 001267   200021 471500                    LDP1    JDCB$,,AUTO
         1 001270   100056 552140                    STBQ    46,'40'O,PR1

     1827     1950    5                    N=N-1;

   1950  1 001271   200031 236100                    LDQ     N,,AUTO
         1 001272   000001 136007                    SBLQ    1,DL
         1 001273   200031 756100                    STQ     N,,AUTO

     1828     1951    5                    TEMP_FAK=0;

   1951  1 001274   200014 450100                    STZ     TEMP_FAK,,AUTO

     1829     1952    5                    END;  /* STRIP VFC */

     1830     1953    4                 MICROPS=INITMICROPS;      /* MICRO OP CODES FOR EDITSTR         */

   1953  1 001275   000100 100400                    MLR     fill='000'O
         1 001276   001202 000006 0                  ADSC9   INITMICROPS              cn=0,n=6
         1 001277   200034 000006                    ADSC9   MICROPS,,AUTO            cn=0,n=6

     1831     1954    4                 MICROPS.FILL=PREVCHR;     /* CHAR TO FILL WITH                  */

   1954  1 001300   200027 236100                    LDQ     PREVCHR,,AUTO
         1 001301   000022 736000                    QLS     18
         1 001302   200034 552120                    STBQ    MICROPS,'20'O,AUTO

     1832     1955    4                 CALL EDITSTR(UB$->CHAR1,CX,N,MICROPS,' ');

   1955  1 001303   200037 471500                    LDP1    UB$,,AUTO
         1 001304   200031 721100                    LXL1    N,,AUTO
         1 001305   200033 235100                    LDA     CX,,AUTO
         1 001306   145100 020400                    MVE
         1 001307   000035 000001 xsym               ADSC9   B_VECTNIL+29             cn=0,n=1
         1 001310   200034 000006                    ADSC9   MICROPS,,AUTO            cn=0,n=6
         1 001311   100000 000011                    ADSC9   0,A,PR1                  cn=0,n=*X1

PL6.E3A0      #007=FMD$RECTRAN File=FMD$BUF.:E05TSI                              TUE 07/29/97 16:41 Page:323
     1833     1956    4                 CNT=CNT-N;

   1956  1 001312   200032 236100                    LDQ     CNT,,AUTO
         1 001313   200031 136100                    SBLQ    N,,AUTO
         1 001314   200032 756100                    STQ     CNT,,AUTO

     1834     1957    4                 CXS=CXS+N;

   1957  1 001315   200033 236100                    LDQ     CX,,AUTO
         1 001316   200031 036100                    ADLQ    N,,AUTO
         1 001317   200033 756100                    STQ     CX,,AUTO

     1835     1958    4                 GOTO ENDLOOP;

   1958  1 001320   001442 710000 1                  TRA     ENDLOOP

     1836     1959    4               CASE(1);                    /* SHIFT                              */

     1837     1960    4                 SHFT=SHFT+1;              /* TOGGLE SHIFT                       */

   1960  1 001321   200036 054100                    AOS     SHFT,,AUTO

     1838     1961    4                 T$=PINCRB(T$,6);

   1961  1 001322   000006 220003                    LDX0    6,DU
         1 001323   000000 503510                    ABD     0,X0,PR0
         1 001324   200026 450500                    STP0    T$,,AUTO

     1839     1962    4                 GBITS=GBITS-6;

   1962  1 001325   000006 336007                    LCQ     6,DL
         1 001326   200025 056100                    ASQ     GBITS,,AUTO

     1840     1963    4                 GOTO ENDLOOP;

   1963  1 001327   001442 710000 1                  TRA     ENDLOOP

PL6.E3A0      #007=FMD$RECTRAN File=FMD$BUF.:E05TSI                              TUE 07/29/97 16:41 Page:324
     1841     1964    4               CASE(0);                    /* UNKNOWN                            */

     1842     1965    5                 IF GBITS<18 THEN DO;

   1965  1 001330   000022 115007                    CMPA    18,DL
         1 001331   001333 605000 1                  TPL     s:1968

     1843     1966    5                    GOTO DONE;

   1966  1 001332   001447 710000 1                  TRA     DONE

     1844     1967    5                    END;
     1845     1968    4                 I=T$->SKIP9.UBIN9;

   1968  1 001333   003100 061500                    CSR     bolr='003'O
         1 001334   000000 200011                    BDSC    0,,PR0                   by=1,bit=0,n=9
         1 001335   200030 000044                    BDSC    I,,AUTO                  by=0,bit=0,n=36

     1846     1969    4                 ADDR(MICROPS.C)->UBIN9=I;

   1969  1 001336   200030 236100                    LDQ     I,,AUTO
         1 001337   000033 736000                    QLS     27
         1 001340   200034 552140                    STBQ    MICROPS,'40'O,AUTO

     1847     1970    4                 IF TEMP_FAK = 1 THEN

   1970  1 001341   200014 236100                    LDQ     TEMP_FAK,,AUTO
         1 001342   000001 116007                    CMPQ    1,DL
         1 001343   001354 601000 1                  TNZ     s:1978

     1848     1971    5                    DO;

     1849     1972    5                    F$DCB.VFCCHAR=MICROPS.C;

   1972  1 001344   200021 471500                    LDP1    JDCB$,,AUTO
         1 001345   200034 236100                    LDQ     MICROPS,,AUTO
         1 001346   100056 552140                    STBQ    46,'40'O,PR1
PL6.E3A0      #007=FMD$RECTRAN File=FMD$BUF.:E05TSI                              TUE 07/29/97 16:41 Page:325

     1850     1973    5                    CXS=CXS-1;

   1973  1 001347   000001 336007                    LCQ     1,DL
         1 001350   200033 056100                    ASQ     CX,,AUTO

     1851     1974    5                    CNT=CNT+1;

   1974  1 001351   200032 054100                    AOS     CNT,,AUTO

     1852     1975    5                    TEMP_FAK=0;

   1975  1 001352   200014 450100                    STZ     TEMP_FAK,,AUTO

     1853     1976    5                    END;

   1976  1 001353   001361 710000 1                  TRA     s:1979

     1854     1977    4                 ELSE
     1855     1978    4                    UB$->CHARS(CX)=MICROPS.C;

   1978  1 001354   200037 471500                    LDP1    UB$,,AUTO
         1 001355   200033 235100                    LDA     CX,,AUTO
         1 001356   040105 100500                    MLR     fill='040'O
         1 001357   200034 000001                    ADSC9   MICROPS,,AUTO            cn=0,n=1
         1 001360   100000 000001                    ADSC9   0,A,PR1                  cn=0,n=1

     1856     1979    4                 PREVCHR=ASCBIN(MICROPS.C); /* REMEMBER AS PREV CHAR             */

   1979  1 001361   200034 236100                    LDQ     MICROPS,,AUTO
         1 001362   000033 772000                    QRL     27
         1 001363   200027 756100                    STQ     PREVCHR,,AUTO

     1857     1980    4                 T$=PINCRB(T$,18);

   1980  1 001364   200026 236100                    LDQ     T$,,AUTO
         1 001365   400000 036007                    ADLQ    -131072,DL
PL6.E3A0      #007=FMD$RECTRAN File=FMD$BUF.:E05TSI                              TUE 07/29/97 16:41 Page:326
         1 001366   200026 756100                    STQ     T$,,AUTO

     1858     1981    4                 GBITS=GBITS-18;

   1981  1 001367   000022 336007                    LCQ     18,DL
         1 001370   200025 056100                    ASQ     GBITS,,AUTO
         1 001371   001437 710000 1                  TRA     s:1999

     1859     1982    4               CASE(ELSE);                 /* KNOWN ASCII CHAR                   */

     1860     1983    4                 IF SHFTBIT.B THEN

   1983  1 001372   200036 236100                    LDQ     SHFT,,AUTO
         1 001373   000001 316007                    CANQ    1,DL
         1 001374   001401 600000 1                  TZE     s:1986

     1861     1984    4                    PREVCHR=CHRTBL(N);

   1984  1 001375   200031 720100                    LXL0    N,,AUTO
         1 001376   001001 235010 0                  LDA     CHRTBL,X0
         1 001377   200027 755100                    STA     PREVCHR,,AUTO
         1 001400   001404 710000 1                  TRA     s:1987

     1862     1985    4                 ELSE
     1863     1986    4                    PREVCHR=CHRTBL(N+64);

   1986  1 001401   200031 720100                    LXL0    N,,AUTO
         1 001402   001101 235010 0                  LDA     CHRTBL+64,X0
         1 001403   200027 755100                    STA     PREVCHR,,AUTO

     1864     1987    4                 IF TEMP_FAK = 1 THEN

   1987  1 001404   200014 235100                    LDA     TEMP_FAK,,AUTO
         1 001405   000001 115007                    CMPA    1,DL
         1 001406   001421 601000 1                  TNZ     s:1995

     1865     1988    5                    DO;
PL6.E3A0      #007=FMD$RECTRAN File=FMD$BUF.:E05TSI                              TUE 07/29/97 16:41 Page:327

     1866     1989    5                    F$DCB.VFCCHAR=BINASC(PREVCHR);

   1989  1 001407   200027 236100                    LDQ     PREVCHR,,AUTO
         1 001410   000033 736000                    QLS     27
         1 001411   000002 276000 2                  ORQ     2
         1 001412   200021 471500                    LDP1    JDCB$,,AUTO
         1 001413   100056 552140                    STBQ    46,'40'O,PR1

     1867     1990    5                    CXS=CXS-1;

   1990  1 001414   000001 336007                    LCQ     1,DL
         1 001415   200033 056100                    ASQ     CX,,AUTO

     1868     1991    5                    CNT=CNT+1;

   1991  1 001416   200032 054100                    AOS     CNT,,AUTO

     1869     1992    5                    TEMP_FAK=0;

   1992  1 001417   200014 450100                    STZ     TEMP_FAK,,AUTO

     1870     1993    5                    END;

   1993  1 001420   001432 710000 1                  TRA     s:1996

     1871     1994    4                 ELSE
     1872     1995    4                    UB$->CHARS(CX)=BINASC(PREVCHR);

   1995  1 001421   200027 236100                    LDQ     PREVCHR,,AUTO
         1 001422   000033 736000                    QLS     27
         1 001423   000002 276000 2                  ORQ     2
         1 001424   200046 756100                    STQ     MOVE+1,,AUTO
         1 001425   200037 471500                    LDP1    UB$,,AUTO
         1 001426   200033 235100                    LDA     CX,,AUTO
         1 001427   040105 100500                    MLR     fill='040'O
         1 001430   200046 000004                    ADSC9   MOVE+1,,AUTO             cn=0,n=4
PL6.E3A0      #007=FMD$RECTRAN File=FMD$BUF.:E05TSI                              TUE 07/29/97 16:41 Page:328
         1 001431   100000 000001                    ADSC9   0,A,PR1                  cn=0,n=1

     1873     1996    4                 T$=PINCRB(T$,6);

   1996  1 001432   000006 221003                    LDX1    6,DU
         1 001433   000000 503511                    ABD     0,X1,PR0
         1 001434   200026 450500                    STP0    T$,,AUTO

     1874     1997    4                 GBITS=GBITS-6;

   1997  1 001435   000006 336007                    LCQ     6,DL
         1 001436   200025 056100                    ASQ     GBITS,,AUTO

     1875     1998    4               END;

     1876     1999    3              CXS=CXS+1;

   1999  1 001437   200033 054100                    AOS     CX,,AUTO

     1877     2000    3              CNT=CNT-1;

   2000  1 001440   000001 336007                    LCQ     1,DL
         1 001441   200032 056100                    ASQ     CNT,,AUTO

     1878     2001    3   ENDLOOP:   END;

   2001  1 001442   200032 235100       ENDLOOP      LDA     CNT,,AUTO
         1 001443   001213 605400 1                  TPNZ    s:1926

     1879     2002        /* */
     1880     2003    2           IF GBITS>8 THEN GOTO EXITL;

   2003  1 001444   200025 235100                    LDA     GBITS,,AUTO
         1 001445   000010 115007                    CMPA    8,DL
         1 001446   001451 605400 1                  TPNZ    EXITL

     1881     2004        /**/
PL6.E3A0      #007=FMD$RECTRAN File=FMD$BUF.:E05TSI                              TUE 07/29/97 16:41 Page:329
     1882     2005    2   DONE:   GBYTES=0;

   2005  1 001447   200004 470500       DONE         LDP0    @GBYTES,,AUTO
         1 001450   000000 450100                    STZ     0,,PR0

     1883     2006    2   EXITL:  F$DCB.UB$=PINCRC(F$DCB.UB$,CX);

   2006  1 001451   200021 470500       EXITL        LDP0    JDCB$,,AUTO
         1 001452   000075 471500                    LDP1    61,,PR0
         1 001453   200033 236100                    LDQ     CX,,AUTO
         1 001454   000011 402007                    MPY     9,DL
         1 001455   100000 503506                    ABD     0,QL,PR1
         1 001456   000075 451500                    STP1    61,,PR0

     1884     2007    2           F$DCB.UBYTES=CNT;

   2007  1 001457   200032 235100                    LDA     CNT,,AUTO
         1 001460   000076 755100                    STA     62,,PR0

     1885     2008    2           F$DCB.ARS=F$DCB.ARS+CX;

   2008  1 001461   000000 236100                    LDQ     0,,PR0
         1 001462   200033 036100                    ADLQ    CX,,AUTO
         1 001463   000000 756100                    STQ     0,,PR0

     1886     2009    2           RETURN;

   2009  1 001464   200024 221300                    LDX1  ! WORD_NUM+1,,AUTO
         1 001465   000001 702211                    TSX2  ! 1,X1

     1887     2010        /* */
     1888     2011    2   ERR:    B$JIT.ERR=ERRWD;

   2011  1 001466   000000 236000 0     ERR          LDQ     ERRWD
         1 001467   000000 471400 xsym               LDP1    B$JIT$
         1 001470   100012 756100                    STQ     10,,PR1

PL6.E3A0      #007=FMD$RECTRAN File=FMD$BUF.:E05TSI                              TUE 07/29/97 16:41 Page:330
     1889     2012    2           F$DCB.UB$=PINCRC(F$DCB.UB$,CX);

   2012  1 001471   200021 473500                    LDP3    JDCB$,,AUTO
         1 001472   300075 474500                    LDP4    61,,PR3
         1 001473   200033 236100                    LDQ     CX,,AUTO
         1 001474   000011 402007                    MPY     9,DL
         1 001475   400000 503506                    ABD     0,QL,PR4
         1 001476   300075 454500                    STP4    61,,PR3

     1890     2013    2           F$DCB.UBYTES=CNT;

   2013  1 001477   200032 235100                    LDA     CNT,,AUTO
         1 001500   300076 755100                    STA     62,,PR3

     1891     2014    2           F$DCB.ARS=F$DCB.ARS+CX;

   2014  1 001501   300000 236100                    LDQ     0,,PR3
         1 001502   200033 036100                    ADLQ    CX,,AUTO
         1 001503   300000 756100                    STQ     0,,PR3

     1892     2015    2           ALTRETURN;

   2015  1 001504   200024 221300                    LDX1  ! WORD_NUM+1,,AUTO
         1 001505   000000 702211                    TSX2  ! 0,X1

ERRWD
 Sect OctLoc
   0     000   061504 001062                                                    1..2

XLATETBL
 Sect OctLoc
   0     001   000000 000000   000000 000000   000000 000000   000000 000000    ................
   0     041*  000000 000003   000000 000004   000000 000005   000000 000006    ................
   0     045   000000 000007   000000 000010   000000 000000   000000 000011    ................
   0     051   000000 000012   000000 000013   000000 000014   000000 000015    ................
   0     055   000000 000016   000000 000017   000000 000020   000000 000021    ................
   0     061   000000 000022   000000 000023   000000 000024   000000 000025    ................
PL6.E3A0      #007=FMD$RECTRAN File=FMD$BUF.:E05TSI                              TUE 07/29/97 16:41 Page:331
   0     065   000000 000026   000000 000027   000000 000030   000000 000031    ................
   0     071   000000 000032   000000 000033   000000 000034   000000 000035    ................
   0     075   000000 000036   000000 000037   000000 000040   000000 000041    ........... ...!
   0     101   000000 000042   000000 000643   000000 000644   000000 000645    ..."............
   0     105   000000 000646   000000 000647   000000 000650   000000 000651    ................
   0     111   000000 000652   000000 000653   000000 000654   000000 000655    ................
   0     115   000000 000656   000000 000657   000000 000660   000000 000661    ................
   0     121   000000 000662   000000 000663   000000 000664   000000 000665    ................
   0     125   000000 000666   000000 000667   000000 000670   000000 000671    ................
   0     131   000000 000672   000000 000673   000000 000674   000000 000000    ................
   0     135   000000 000000   000000 000000   000000 000000   000000 000075    ...............=
   0     141   000000 000000   000000 000243   000000 000244   000000 000245    ................
   0     145   000000 000246   000000 000247   000000 000250   000000 000251    ................
   0     151   000000 000252   000000 000253   000000 000254   000000 000255    ................
   0     155   000000 000256   000000 000257   000000 000260   000000 000261    ................
   0     161   000000 000262   000000 000263   000000 000264   000000 000265    ................
   0     165   000000 000266   000000 000267   000000 000270   000000 000271    ................
   0     171   000000 000272   000000 000273   000000 000274   000000 000000    ................
   0     175   000000 000076   000000 000000   000000 000077   000000 000000    ...>.......?....
   0     201   000000 000000   000000 000000   000000 000000   000000 000000    ................
   0     775*  000000 000000   000000 000000   000000 000000   000000 000000    ................

CHRTBL
 Sect OctLoc
   0    1001   000000 000000   000000 000000   000000 000000   000000 000040    ...............
   0    1005   000000 000041   000000 000042   000000 000043   000000 000044    ...!..."...#...$
   0    1011   000000 000045   000000 000047   000000 000050   000000 000051    ...%...'...(...)
   0    1015   000000 000052   000000 000053   000000 000054   000000 000055    ...*...+...,...-
   0    1021   000000 000056   000000 000057   000000 000060   000000 000061    ......./...0...1
   0    1025   000000 000062   000000 000063   000000 000064   000000 000065    ...2...3...4...5
   0    1031   000000 000066   000000 000067   000000 000070   000000 000071    ...6...7...8...9
   0    1035   000000 000072   000000 000073   000000 000074   000000 000075    ...:...;...<...=
   0    1041   000000 000076   000000 000077   000000 000100   000000 000101    ...>...?...@...A
   0    1045   000000 000102   000000 000103   000000 000104   000000 000105    ...B...C...D...E
   0    1051   000000 000106   000000 000107   000000 000110   000000 000111    ...F...G...H...I
   0    1055   000000 000112   000000 000113   000000 000114   000000 000115    ...J...K...L...M
   0    1061   000000 000116   000000 000117   000000 000120   000000 000121    ...N...O...P...Q
PL6.E3A0      #007=FMD$RECTRAN File=FMD$BUF.:E05TSI                              TUE 07/29/97 16:41 Page:332
   0    1065   000000 000122   000000 000123   000000 000124   000000 000125    ...R...S...T...U
   0    1071   000000 000126   000000 000127   000000 000130   000000 000131    ...V...W...X...Y
   0    1075   000000 000132   000000 000137   000000 000174   000000 000176    ...Z..._...|...~
   0    1101   000000 000000   000000 000000   000000 000000   000000 000040    ...............
   0    1105   000000 000041   000000 000042   000000 000043   000000 000044    ...!..."...#...$
   0    1111   000000 000045   000000 000047   000000 000050   000000 000051    ...%...'...(...)
   0    1115   000000 000052   000000 000053   000000 000054   000000 000055    ...*...+...,...-
   0    1121   000000 000056   000000 000057   000000 000060   000000 000061    ......./...0...1
   0    1125   000000 000062   000000 000063   000000 000064   000000 000065    ...2...3...4...5
   0    1131   000000 000066   000000 000067   000000 000070   000000 000071    ...6...7...8...9
   0    1135   000000 000072   000000 000073   000000 000074   000000 000075    ...:...;...<...=
   0    1141   000000 000076   000000 000077   000000 000100   000000 000141    ...>...?...@...a
   0    1145   000000 000142   000000 000143   000000 000144   000000 000145    ...b...c...d...e
   0    1151   000000 000146   000000 000147   000000 000150   000000 000151    ...f...g...h...i
   0    1155   000000 000152   000000 000153   000000 000154   000000 000155    ...j...k...l...m
   0    1161   000000 000156   000000 000157   000000 000160   000000 000161    ...n...o...p...q
   0    1165   000000 000162   000000 000163   000000 000164   000000 000165    ...r...s...t...u
   0    1171   000000 000166   000000 000167   000000 000170   000000 000171    ...v...w...x...y
   0    1175   000000 000172   000000 000137   000000 000174   000000 000176    ...z..._...|...~

INITMICROPS
 Sect OctLoc
   0    1202   401*** 020020   020020 ******                                    ........

(unnamed)
 Sect OctLoc
   2     000   000001 000001   000003 006000   000040 040040                    .........
     1893     2016        /*E*    ERROR:   FMD-E$DECOMP-2
     1894     2017        *       MESSAGE: Decompression error% in file %FN%
     1895     2018        *       MESSAGE1: This record contains illegal compressed language
     1896     2019        */
     1897     2020    2   END DECOMP;
     1898     2021        /* */
     1899     2022    1   END FMD$RECTRAN;
     1900     2023               %EOD;

PL6.E3A0      #007=FMD$RECTRAN File=FMD$BUF.:E05TSI                              TUE 07/29/97 16:41 Page:333
--  Include file information  --

   FM$GRAN.:E05TOU  is referenced.
   F_FPTCODE_C.:E05TOU  is referenced.
   F_ERRORS_C.:E05TOU  is referenced.
   F$CP6V_C.:E05TOU  is referenced.
   F_MACROS_C.:E05TOU  is referenced.
   F$DCB.:E05TOU  is referenced.
   B$JIT_C.:E05TOU  is referenced.
   F$JIT_C.:E05TOU  cannot be made into a system file and is referenced.
   B_MICROPS_C.:E05TOU  is referenced.
   B$TABLES_C.:E05TOU  cannot be made into a system file and is referenced.
      No diagnostics issued in procedure FMD$RECTRAN.
PL6.E3A0      #007=FMD$RECTRAN File=FMD$BUF.:E05TSI                              TUE 07/29/97 16:41 Page:334

 **** Variables and constants ****

  ****  Section 000 RoData FMD$RECTRAN

  ****  Scalars and arrays  ****
OctLoc.c.b A Datatyp(siz) R M Lvl/name                 OctLoc.c.b A Datatyp(siz) R M Lvl/name

  1001-0-0/w UBIN        r     1 CHRTBL(0:127)              0-0-0/b STRC        r     1 ERRWD
  1202-0-0/d STRC(54)    r     1 INITMICROPS                1-0-0/w UBIN        r     1 XLATETBL(0:511)

  ****  Auto variables  ****

  ****  Scalars and arrays  ****
OctLoc.c.b A Datatyp(siz) R M Lvl/name                 OctLoc.c.b A Datatyp(siz) R M Lvl/name

     5-0-0/w PTR         r     1 @BUFNUM                    6-0-0/w PTR         r     1 @DIR
     7-0-0/w PTR         r     1 @FAK                      12-0-0/w PTR         r     1 @FPTCODE
     3-0-0/w PTR         r     1 @G$                        4-0-0/w PTR         r     1 @GBYTES
    10-0-0/w PTR         r     1 @PSEED                    11-0-0/w PTR         r     1 @VFC
    *0-0-0/w UBIN        r     1 BUFNUM                    43-0-0/c CHAR        r     1 CHAR_TEMP
    25-0-0/w UBIN        r     1 CHR                       35-0-0/w SBIN        r     1 CNT
    32-0-0/w SBIN        r     1 CNT                       13-0-0/w PTR         r     1 CWORD$
    34-0-0/w UBIN        r     1 CX                        33-0-0/w UBIN        r     1 CX
    34-0-0/w SBIN        r     1 CXS                       33-0-0/w SBIN        r     1 CXS
    *0-0-0/w SBIN        r     1 DIR                       *0-0-0/w SBIN        r     1 FAK
    *0-0-0/w UBIN        r     1 FPTCODE                   *0-0-0/w PTR         r     1 G$
    32-0-0/w SBIN        r     1 GBITS                     25-0-0/w SBIN        r     1 GBITS
    *0-0-0/w SBIN        r     1 GBYTES                    30-0-0/w UBIN        r     1 I
    16-0-0/w BIT         r     1 ISEED                     21-0-0/w PTR         r     1 JDCB$
    34-0-0/d STRC(54)    r     1 MICROPS                   45-0-0/w UBIN        r     1 MOVE
    31-0-0/w SBIN        r     1 N                         31-0-0/w UBIN        r     1 N
    31-0-0/w STRC        r     1 NB                        25-0-0/w SBIN        r     1 NUM
    26-0-0/w UBIN        r     1 PCHR                      30-0-0/w SBIN        r     1 PREV#
    27-0-0/w UBIN        r     1 PREVCHR                   27-0-0/w UBIN        r     1 PREVCHR
    *0-0-0/w BIT         r     1 PSEED                     36-0-0/w SBIN        r     1 SHFT
    36-0-0/w SBIN        r     1 SHFT                      36-0-0/w STRC        r     1 SHFTBIT
    36-0-0/w STRC        r     1 SHFTBIT                   33-0-0/w PTR         r     1 T$
PL6.E3A0      #007=FMD$RECTRAN File=FMD$BUF.:E05TSI                              TUE 07/29/97 16:41 Page:335
    26-0-0/w PTR         r     1 T$                        40-0-0/c CHAR        r     1 TEMPCHAR
    14-0-0/w SBIN        r     1 TEMP_FAK                  22-0-0/w UBIN        r     1 TFPTCODE
    37-0-0/w PTR         r     1 UB$                       37-0-0/w PTR         r     1 UB$
    *0-0-0/c CHAR        r     1 VFC                       23-0-0/w SBIN        r     1 WORD_NUM
    17-0-0/w SBIN        r     1 WRDS

  ****  SYMREF variables  ****

  ****  Scalars and arrays  ****
OctLoc.c.b A Datatyp(siz) R M Lvl/name                 OctLoc.c.b A Datatyp(siz) R M Lvl/name

     0-0-0/w PTR         r     1 B$JIT$                     0-0-0/w PTR         r     1 B$PS0$
     0-0-0/w PTR         r     1 B$XL_UPPER_UR$             0-0-0/w PTR         r     1 B$XL_UR$

  ****  BASED and DCB variables  ****

  ****  Scalars and arrays  ****
OctLoc.c.b A Datatyp(siz) R M Lvl/name                 OctLoc.c.b A Datatyp(siz) R M Lvl/name

     0-0-0/d STRC(8856)  r     1 B$JIT
     0-0-0/c CHAR(4)     r     1 BASED_WORD(0:0)
     0-0-0/c CHAR        r     1 CHAR1                      0-0-0/c CHAR        r     1 CHAR1
     0-0-0/c ASTR(9)     r     1 CHARS                      0-0-0/c CHAR        r     1 CHARS(0:0)
     0-0-0/c CHAR        r     1 CHARS(0:0)                 0-0-0/c ACHR        r     1 CHRS
     0-0-0/d ASTR(3528)  r     1 F$DCB                      0-0-0/d STRC(216)   r     1 FPT$READ_V
     0-0-0/d STRC(4608)  r     1 NK_URTBL                   0-0-0/d STRC(4608)  r     1 NK_URTBLUC
     0-0-0/b STRC(12)    r     1 SKIP6                      0-0-0/b STRC(18)    r     1 SKIP6
     0-0-0/b STRC(12)    r     1 SKIP6                      0-0-0/b STRC(18)    r     1 SKIP9
     0-0-0/b UBIN(3)     r     1 UBIN3                      0-0-0/b UBIN(6)     r     1 UBIN6
     0-0-0/b UBIN(6)     r     1 UBIN6                      0-0-0/b UBIN(9)     r     1 UBIN9


   Procedure FMD$RECTRAN requires 838 words for executable code.
   Procedure FMD$RECTRAN requires 44 words of local(AUTO) storage.
PL6.E3A0      #007=FMD$RECTRAN File=FMD$BUF.:E05TSI                              TUE 07/29/97 16:41 Page:336
          *** CROSS REFERENCE LISTING ***
**     DENOTES     IDENTIFIER DEFINITION
<<                 IDENTIFIER'S VALUE SET
>>                 IDENTIFIER'S VALUE USED
<>                 IDENTIFIER SET AND/OR USED
--                 IDENTIFIER REFERENCED
PL6.E3A0      #007=FMD$RECTRAN File=FMD$BUF.:E05TSI                              TUE 07/29/97 16:41 Page:337
          MINI XREF LISTING

B$JIT.DCB$
       776**DCL      1492>>ASSIGN
B$JIT.ERR
       686**DCL      2011<<ASSIGN
B$JIT.ERR.MID
       687**DCL       687--REDEF
B$JIT$
        66**DCL       681--IMP-PTR  1492>>ASSIGN   2011>>ASSIGN
B$PS0$
        67**DCL      1481--IMP-PTR  1538>>IF       1917>>IF
B$XL_UPPER_UR$
       183**DCL       184--IMP-PTR  1569>>CALLBLT  1582>>CALLBLT  1697>>ASSIGN
B$XL_UR$
       179**DCL       180--IMP-PTR  1567>>CALLBLT  1580>>CALLBLT  1694>>ASSIGN
BACKUP IN PROCEDURE DUMPPREV
      1815**LABEL    1828--CALLALT
BASED_WORD
        60**DCL      1778>>CALLBLT
BUFNUM
        42**DCL        38--PROC     1588>>ASSIGN   1663>>ASSIGN
CHAR1 IN PROCEDURE DECOMP
      1891**DCL      1955<<CALLBLT
CHAR1 IN PROCEDURE MOVE
      1532**DCL      1540>>ASSIGN   1564<<ASSIGN
CHARS IN PROCEDURE COMPRESS
      1657**DCL      1693>>ASSIGN   1696>>ASSIGN   1703>>ASSIGN
CHARS IN PROCEDURE DECOMP
      1900**DCL      1978<<ASSIGN   1995<<ASSIGN
CHARS.SKIP1 IN PROCEDURE MOVE
      1535**DCL      1567<<CALLBLT  1569<<CALLBLT  1571<<ASSIGN
CHAR_TEMP IN PROCEDURE GETCHAR
      1758**DCL      1763<<CALLBLT  1765>>ASSIGN
PL6.E3A0      #007=FMD$RECTRAN File=FMD$BUF.:E05TSI                              TUE 07/29/97 16:41 Page:338
CHR IN PROCEDURE COMPRESS
      1632**DCL      1687<<ASSIGN   1694<<ASSIGN   1697<<ASSIGN   1704<<ASSIGN   1707>>IF       1715>>IF
      1717>>ASSIGN   1720>>ASSIGN   1731>>ASSIGN   1765<<ASSIGN
CHRS IN PROCEDURE MOVE
      1531**DCL      1548<<ASSIGN   1548>>ASSIGN   1567>>CALLBLT  1569>>CALLBLT  1571>>ASSIGN   1580<<CALLBLT
      1580>>CALLBLT  1582<<CALLBLT  1582>>CALLBLT  1584<<ASSIGN   1584>>ASSIGN
CHRTBL IN PROCEDURE DECOMP
      1854**DCL      1984>>ASSIGN   1986>>ASSIGN
CNT IN PROCEDURE COMPRESS
      1646**DCL      1673<<ASSIGN   1685<<ASSIGN   1685>>ASSIGN   1690>>DOWHILE  1734<<ASSIGN   1734>>ASSIGN
      1751>>ASSIGN   1773>>IF       1774>>ASSIGN   1816<<ASSIGN   1816>>ASSIGN
CNT IN PROCEDURE DECOMP
      1878**DCL      1915<<ASSIGN   1925>>DOWHILE  1937>>IF       1943>>ASSIGN   1956<<ASSIGN   1956>>ASSIGN
      1974<<ASSIGN   1974>>ASSIGN   1991<<ASSIGN   1991>>ASSIGN   2000<<ASSIGN   2000>>ASSIGN   2007>>ASSIGN
      2013>>ASSIGN
COMPRESS
      1611**PROC     1504--CALL
CWORD$
        48**DCL      1676<<ASSIGN   1780<>CALL
CX IN PROCEDURE COMPRESS
      1644**DCL      1645--REDEF    1672<<ASSIGN   1693>>ASSIGN   1696>>ASSIGN   1703>>ASSIGN   1752>>ASSIGN
      1815<<ASSIGN   1815>>ASSIGN
CX IN PROCEDURE DECOMP
      1879**DCL      1880--REDEF    1914<<ASSIGN   1955>>CALLBLT  1978>>ASSIGN   1995>>ASSIGN   2006>>ASSIGN
      2008>>ASSIGN   2012>>ASSIGN   2014>>ASSIGN
CXS IN PROCEDURE COMPRESS
      1645**DCL      1686<<ASSIGN   1733<<ASSIGN   1733>>ASSIGN
CXS IN PROCEDURE DECOMP
      1880**DCL      1957<<ASSIGN   1957>>ASSIGN   1973<<ASSIGN   1973>>ASSIGN   1990<<ASSIGN   1990>>ASSIGN
      1999<<ASSIGN   1999>>ASSIGN
DECOMP
      1852**PROC     1502--CALL
DIR
        43**DCL        38--PROC     1501>>IF       1515>>IF       1537>>IF
DONE IN PROCEDURE DECOMP
      2005**LABEL    1927--GOTO     1966--GOTO
PL6.E3A0      #007=FMD$RECTRAN File=FMD$BUF.:E05TSI                              TUE 07/29/97 16:41 Page:339
DUMPPREV IN PROCEDURE COMPRESS
      1812**PROC     1714--CALL     1738--CALL
ENDLOOP IN PROCEDURE DECOMP
      2001**LABEL    1958--GOTO     1963--GOTO
ERR
      1526**LABEL    1502--CALLALT
ERR IN PROCEDURE DECOMP
      2011**LABEL    1932--GOTO
ERRWD
      1426**DCL      2011>>ASSIGN
EXITL IN PROCEDURE DECOMP
      2006**LABEL    2003--GOTO
F$DCB.ACTPOS
      1456**DCL      1456--REDEF
F$DCB.ARS
      1431**DCL      1431--REDEF    1550<<ASSIGN   1550>>ASSIGN   2008<<ASSIGN   2008>>ASSIGN   2014<<ASSIGN
      2014>>ASSIGN
F$DCB.ATTR
      1449**DCL      1450--REDEF
F$DCB.BFR.BUFUP
      1475**DCL      1588<<ASSIGN   1663<<ASSIGN
F$DCB.BORROW
      1464**DCL      1464--REDEF    1464--REDEF    1464--REDEF
F$DCB.COMP
      1444**DCL      1499>>IF
F$DCB.CSEED
      1468**DCL      1518<>CALL     1780<>CALL
F$DCB.CWORD
      1473**DCL      1676--ASSIGN   1763>>CALLBLT  1778<<CALLBLT
F$DCB.CX
      1473**DCL      1682>>ASSIGN   1741<<ASSIGN   1741>>ASSIGN   1760>>IF       1763>>CALLBLT  1766<<ASSIGN
      1766>>ASSIGN   1784<<ASSIGN
F$DCB.DCBNAME.L
      1478**DCL      1478--IMP-SIZ
F$DCB.DECRYPT
      1471**DCL      1522<<ASSIGN   1923<<ASSIGN
PL6.E3A0      #007=FMD$RECTRAN File=FMD$BUF.:E05TSI                              TUE 07/29/97 16:41 Page:340
F$DCB.DVBYTE.VFC
      1434**DCL      1538>>IF       1917>>IF
F$DCB.EOMCHAR
      1435**DCL      1435--REDEF
F$DCB.FLDID
      1459**DCL      1459--REDEF
F$DCB.FORM$
      1453**DCL      1453--REDEF
F$DCB.FSECT
      1469**DCL      1469--REDEF
F$DCB.FSN
      1446**DCL      1446--REDEF    1446--REDEF    1447--REDEF
F$DCB.GDISP
      1470**DCL      1541<<ASSIGN   1541>>ASSIGN   1574<<ASSIGN   1574>>ASSIGN   1592<<ASSIGN   1592>>ASSIGN
      1754<<ASSIGN
F$DCB.HEADER$
      1452**DCL      1452--REDEF
F$DCB.IXTNSIZE
      1450**DCL      1450--REDEF
F$DCB.LASTSTA$
      1440**DCL      1440--REDEF
F$DCB.LVL
      1465**DCL      1465--REDEF
F$DCB.NAME.C
      1440**DCL      1440--REDEF
F$DCB.NOEOF
      1461**DCL      1461--REDEF
F$DCB.NRECS
      1451**DCL      1451--REDEF
F$DCB.NRECX
      1470**DCL      1470--REDEF
F$DCB.OHDR
      1462**DCL      1462--REDEF
F$DCB.ORG
      1445**DCL      1445--REDEF
F$DCB.PRECNO
PL6.E3A0      #007=FMD$RECTRAN File=FMD$BUF.:E05TSI                              TUE 07/29/97 16:41 Page:341
      1468**DCL      1468--REDEF
F$DCB.RCSZ
      1473**DCL      1473--REDEF
F$DCB.RES
      1441**DCL      1441--REDEF
F$DCB.SEED
      1459**DCL      1497>>ASSIGN
F$DCB.SETX
      1453**DCL      1453--REDEF
F$DCB.TAB$
      1452**DCL      1453--REDEF
F$DCB.TDA
      1467**DCL      1467--REDEF
F$DCB.UB$
      1469**DCL      1548>>ASSIGN   1567>>CALLBLT  1569>>CALLBLT  1571>>ASSIGN   1580>>CALLBLT  1582>>CALLBLT
      1584>>ASSIGN   1590<<ASSIGN   1590>>ASSIGN   1674>>ASSIGN   1752<<ASSIGN   1752>>ASSIGN   1916>>ASSIGN
      2006<<ASSIGN   2006>>ASSIGN   2012<<ASSIGN   2012>>ASSIGN
F$DCB.UBYTES
      1469**DCL      1546>>IF       1547>>ASSIGN   1553>>IF       1554>>ASSIGN   1562>>IF       1563>>ASSIGN
      1591<<ASSIGN   1591>>ASSIGN   1673>>ASSIGN   1751<<ASSIGN   1915>>ASSIGN   2007<<ASSIGN   2013<<ASSIGN
F$DCB.VFCCHAR
      1455**DCL      1540<<ASSIGN   1949<<ASSIGN   1972<<ASSIGN   1989<<ASSIGN
F$DCB.WSN
      1442**DCL      1442--REDEF
FAK
        44**DCL        38--PROC     1518<>CALL     1538>>IF       1559>>IF       1675>>ASSIGN   1679>>IF
      1684>>IF       1917>>IF
FMD$ENCRYPT
        63**DCL-ENT  1518--CALL     1780--CALL
FPT$READ_V.DVBYTE.REREAD
      1483**DCL      1484--REDEF
FPT$READ_V.INDX
      1483**DCL      1483--REDEF
FPT$READ_V.STRPVFC
      1484**DCL      1538>>IF       1917>>IF
FPTCODE
PL6.E3A0      #007=FMD$RECTRAN File=FMD$BUF.:E05TSI                              TUE 07/29/97 16:41 Page:342
        47**DCL        38--PROC     1555--IF       1558>>ASSIGN   1664--IF       1667>>ASSIGN
FULL IN PROCEDURE COMPRESS
      1741**LABEL    1714--CALLALT  1724--GOTO     1732--CALLALT
G$
        40**DCL        38--PROC     1518<>CALL     1540>>ASSIGN   1544<<ASSIGN   1544>>ASSIGN   1548>>ASSIGN
      1564>>ASSIGN   1567>>CALLBLT  1569>>CALLBLT  1571>>ASSIGN   1580>>CALLBLT  1582>>CALLBLT  1584>>ASSIGN
      1669>>ASSIGN   1912>>ASSIGN
GBITS IN PROCEDURE COMPRESS
      1642**DCL      1668<<ASSIGN   1724>>IF       1727<<ASSIGN   1727>>ASSIGN   1743>>ASSIGN   1753>>ASSIGN
      1796>>IF       1800<<ASSIGN   1800>>ASSIGN   1804>>IF       1807<<ASSIGN   1807>>ASSIGN   1814>>IF
      1822<<ASSIGN   1822>>ASSIGN
GBITS IN PROCEDURE DECOMP
      1870**DCL      1911<<ASSIGN   1926>>IF       1932>>IF       1936<<ASSIGN   1936>>ASSIGN   1945<<ASSIGN
      1945>>ASSIGN   1962<<ASSIGN   1962>>ASSIGN   1965>>IF       1981<<ASSIGN   1981>>ASSIGN   1997<<ASSIGN
      1997>>ASSIGN   2003>>IF
GBYTES
        41**DCL        38--PROC     1517>>ASSIGN   1536>>ASSIGN   1543<<ASSIGN   1543>>ASSIGN   1549<<ASSIGN
      1549>>ASSIGN   1560>>IF       1561>>ASSIGN   1573<<ASSIGN   1586<<ASSIGN   1668>>ASSIGN   1753<<ASSIGN
      1753>>ASSIGN   1754>>ASSIGN   1911>>ASSIGN   2005<<ASSIGN
GETCHAR IN PROCEDURE COMPRESS
      1757**PROC     1700--CALL
GET_WORD IN PROCEDURE COMPRESS
      1770**PROC     1680--CALL     1761--CALL
GOTCHR IN PROCEDURE COMPRESS
      1707**LABEL    1688--GOTO
I IN PROCEDURE DECOMP
      1873**DCL      1968<<ASSIGN   1969>>ASSIGN
INITMICROPS IN PROCEDURE DECOMP
      1902**DCL      1953>>ASSIGN
ISEED
        52**DCL      1495<<ASSIGN   1497<<ASSIGN   1508>>IF       1518<>CALL     1678>>IF       1699>>IF
      1780<>CALL     1921>>IF
JDCB$
        55**DCL      1431--IMP-PTR  1492<<ASSIGN   1497>>ASSIGN   1499>>IF       1518>>CALL     1522>>ASSIGN
      1538>>IF       1540>>ASSIGN   1541>>ASSIGN   1541>>ASSIGN   1546>>IF       1547>>ASSIGN   1548>>ASSIGN
      1550>>ASSIGN   1550>>ASSIGN   1553>>IF       1554>>ASSIGN   1562>>IF       1563>>ASSIGN   1567>>CALLBLT
PL6.E3A0      #007=FMD$RECTRAN File=FMD$BUF.:E05TSI                              TUE 07/29/97 16:41 Page:343
      1569>>CALLBLT  1571>>ASSIGN   1574>>ASSIGN   1574>>ASSIGN   1580>>CALLBLT  1582>>CALLBLT  1584>>ASSIGN
      1588>>ASSIGN   1590>>ASSIGN   1590>>ASSIGN   1591>>ASSIGN   1591>>ASSIGN   1592>>ASSIGN   1592>>ASSIGN
      1663>>ASSIGN   1673>>ASSIGN   1674>>ASSIGN   1676>>ASSIGN   1682>>ASSIGN   1741>>ASSIGN   1741>>ASSIGN
      1751>>ASSIGN   1752>>ASSIGN   1752>>ASSIGN   1754>>ASSIGN   1760>>IF       1763>>CALLBLT  1763>>CALLBLT
      1766>>ASSIGN   1766>>ASSIGN   1778>>CALLBLT  1780>>CALL     1784>>ASSIGN   1915>>ASSIGN   1916>>ASSIGN
      1917>>IF       1923>>ASSIGN   1949>>ASSIGN   1972>>ASSIGN   1989>>ASSIGN   2006>>ASSIGN   2006>>ASSIGN
      2007>>ASSIGN   2008>>ASSIGN   2008>>ASSIGN   2012>>ASSIGN   2012>>ASSIGN   2013>>ASSIGN   2014>>ASSIGN
      2014>>ASSIGN
MICROPS IN PROCEDURE DECOMP
      1881**DCL      1953<<ASSIGN   1955>>CALLBLT
MICROPS.C IN PROCEDURE DECOMP
      1882**DCL      1969--ASSIGN   1972>>ASSIGN   1978>>ASSIGN   1979>>ASSIGN
MICROPS.FILL IN PROCEDURE DECOMP
      1883**DCL      1954<<ASSIGN
MOVE
      1529**PROC     1510--CALL     1516--CALL     1521--CALL
MOVE IN PROCEDURE GET_WORD
      1771**DCL      1774<<ASSIGN   1776<<ASSIGN   1778>>CALLBLT
N IN PROCEDURE COMPRESS
      1636**DCL      1637--REDEF    1720<<ASSIGN   1743<<ASSIGN   1744>>IF       1748>>IF       1795>>IF
      1805>>ASSIGN   1825<<ASSIGN
N IN PROCEDURE DECOMP
      1874**DCL      1875--REDEF    1929<<ASSIGN   1930>>DOCASE   1933<<ASSIGN   1934<<ASSIGN   1934>>ASSIGN
      1937>>IF       1943<<ASSIGN   1950<<ASSIGN   1950>>ASSIGN   1955>>CALLBLT  1956>>ASSIGN   1957>>ASSIGN
      1984>>ASSIGN   1986>>ASSIGN
NB.ALPHA IN PROCEDURE COMPRESS
      1640**DCL      1721>>IF
NB.UC IN PROCEDURE COMPRESS
      1639**DCL      1722>>IF
NK_URTBL
       180**DCL      1567>>CALLBLT  1580>>CALLBLT
NK_URTBL.C
       180**DCL      1694>>ASSIGN
NK_URTBLUC
       184**DCL      1569>>CALLBLT  1582>>CALLBLT
NK_URTBLUC.C
PL6.E3A0      #007=FMD$RECTRAN File=FMD$BUF.:E05TSI                              TUE 07/29/97 16:41 Page:344
       184**DCL      1697>>ASSIGN
NOSHIFT IN PROCEDURE COMPRESS
      1731**LABEL    1723--GOTO
NUM IN PROCEDURE MOVE
      1530**DCL      1531--IMP-SIZ  1535--IMP-SIZ  1536<<ASSIGN   1542<<ASSIGN   1542>>ASSIGN   1546>>IF
      1547<<ASSIGN   1548>>ASSIGN   1548>>ASSIGN   1549>>ASSIGN   1550>>ASSIGN   1553>>IF       1554<<ASSIGN
      1561<<ASSIGN   1562>>IF       1563<<ASSIGN   1567>>CALLBLT  1567>>CALLBLT  1569>>CALLBLT  1569>>CALLBLT
      1571>>ASSIGN   1571>>ASSIGN   1573>>ASSIGN   1580>>CALLBLT  1580>>CALLBLT  1582>>CALLBLT  1582>>CALLBLT
      1584>>ASSIGN   1584>>ASSIGN   1586>>ASSIGN   1590>>ASSIGN   1591>>ASSIGN   1592>>ASSIGN
PCHR IN PROCEDURE COMPRESS
      1633**DCL      1731<<ASSIGN   1798>>ASSIGN   1826<<ASSIGN
PREV# IN PROCEDURE COMPRESS
      1635**DCL      1670<<ASSIGN   1707>>IF       1709<<ASSIGN   1709>>ASSIGN   1713>>IF       1737>>IF
      1813>>IF       1815>>ASSIGN   1816>>ASSIGN   1820>>ASSIGN   1827>>DOWHILE  1829<<ASSIGN   1829>>ASSIGN
      1832<<ASSIGN
PREVCHR IN PROCEDURE COMPRESS
      1634**DCL      1671<<ASSIGN   1707>>IF       1715>>IF       1717<<ASSIGN   1825>>ASSIGN   1826>>ASSIGN
PREVCHR IN PROCEDURE DECOMP
      1872**DCL      1913<<ASSIGN   1949>>ASSIGN   1954>>ASSIGN   1979<<ASSIGN   1984<<ASSIGN   1986<<ASSIGN
      1989>>ASSIGN   1995>>ASSIGN
PSEED
        45**DCL        38--PROC     1494>>IF       1495>>ASSIGN
PUT IN PROCEDURE COMPRESS
      1790**PROC     1732--CALL     1828--CALL
PUTDUP IN PROCEDURE COMPRESS
      1709**LABEL    1716--GOTO
PUTOK IN PROCEDURE COMPRESS
      1733**LABEL    1710--GOTO
SHFT IN PROCEDURE COMPRESS
      1647**DCL      1648--REDEF    1662<<ASSIGN   1728<<ASSIGN   1728>>ASSIGN
SHFT IN PROCEDURE DECOMP
      1885**DCL      1886--REDEF    1910<<ASSIGN   1960<<ASSIGN   1960>>ASSIGN
SHFTBIT.B IN PROCEDURE COMPRESS
      1650**DCL      1722>>IF
SHFTBIT.B IN PROCEDURE DECOMP
      1888**DCL      1983>>IF
PL6.E3A0      #007=FMD$RECTRAN File=FMD$BUF.:E05TSI                              TUE 07/29/97 16:41 Page:345
SKIP6.UBIN6 IN PROCEDURE COMPRESS
      1660**DCL      1820<<ASSIGN
SKIP6.UBIN6 IN PROCEDURE DECOMP
      1894**DCL      1933>>ASSIGN
SKIP6.UBIN12 IN PROCEDURE PUT
      1793**DCL      1798<<ASSIGN
SKIP9.UBIN9 IN PROCEDURE DECOMP
      1897**DCL      1968>>ASSIGN
T$ IN PROCEDURE COMPRESS
      1643**DCL      1669<<ASSIGN   1725>>ASSIGN   1726<<ASSIGN   1726>>ASSIGN   1746>>ASSIGN   1750>>ASSIGN
      1797>>ASSIGN   1798>>ASSIGN   1799<<ASSIGN   1799>>ASSIGN   1805>>ASSIGN   1806<<ASSIGN   1806>>ASSIGN
      1819>>ASSIGN   1820>>ASSIGN   1821<<ASSIGN   1821>>ASSIGN
T$ IN PROCEDURE DECOMP
      1871**DCL      1912<<ASSIGN   1929>>ASSIGN   1933>>ASSIGN   1935<<ASSIGN   1935>>ASSIGN   1944<<ASSIGN
      1944>>ASSIGN   1961<<ASSIGN   1961>>ASSIGN   1968>>ASSIGN   1980<<ASSIGN   1980>>ASSIGN   1996<<ASSIGN
      1996>>ASSIGN
TEMPCHAR IN PROCEDURE COMPRESS
      1652**DCL      1693<<ASSIGN   1694>>ASSIGN   1696<<ASSIGN   1697>>ASSIGN   1703<<ASSIGN   1704>>ASSIGN
TEMP_FAK
        49**DCL      1675<<ASSIGN   1780<>CALL     1782<<ASSIGN   1918<<ASSIGN   1920<<ASSIGN   1947>>IF
      1951<<ASSIGN   1970>>IF       1975<<ASSIGN   1987>>IF       1992<<ASSIGN
TFPTCODE
        56**DCL      1556<<ASSIGN   1558<<ASSIGN   1565>>DOCASE   1578>>DOCASE   1665<<ASSIGN   1667<<ASSIGN
      1681>>IF       1681>>IF       1691>>DOCASE
UB$ IN PROCEDURE COMPRESS
      1651**DCL      1674<<ASSIGN   1682<<ASSIGN   1682>>ASSIGN   1693>>ASSIGN   1696>>ASSIGN   1703>>ASSIGN
      1778>>CALLBLT
UB$ IN PROCEDURE DECOMP
      1889**DCL      1916<<ASSIGN   1955>>CALLBLT  1978>>ASSIGN   1995>>ASSIGN
UBIN3 IN PROCEDURE COMPRESS
      1656**DCL      1746<<ASSIGN
UBIN6 IN PROCEDURE COMPRESS
      1654**DCL      1725<<ASSIGN   1750<<ASSIGN   1797<<ASSIGN   1805<<ASSIGN   1819<<ASSIGN
UBIN6 IN PROCEDURE DECOMP
      1898**DCL      1929>>ASSIGN
UBIN9 IN PROCEDURE DECOMP
PL6.E3A0      #007=FMD$RECTRAN File=FMD$BUF.:E05TSI                              TUE 07/29/97 16:41 Page:346
      1899**DCL      1969<<ASSIGN
VFC
        46**DCL        38--PROC     1559--IF       1564>>ASSIGN   1684--IF       1687>>ASSIGN
WORD_NUM
        57**DCL      1677<<ASSIGN   1778>>CALLBLT  1783<<ASSIGN   1783>>ASSIGN
WRDS
        53**DCL      1517<<ASSIGN   1518<>CALL
XLATETBL IN PROCEDURE COMPRESS
      1617**DCL      1720>>ASSIGN   1825>>ASSIGN
PL6.E3A0      #007=FMD$RECTRAN File=FMD$BUF.:E05TSI                              TUE 07/29/97 16:41 Page:347
              *** CROSS REFERENCE LISTING ***
    **     DENOTES     IDENTIFIER DEFINITION
    <<                 IDENTIFIER'S VALUE SET
    >>                 IDENTIFIER'S VALUE USED
    <>                 IDENTIFIER SET AND/OR USED
    --                 IDENTIFIER REFERENCED
PL6.E3A0      #007=FMD$RECTRAN File=FMD$BUF.:E05TSI                              TUE 07/29/97 16:41 Page:348
              MINI UREF LISTING

B$ROSEG$      69**DCL
BUF$      54**DCL
B_POINTER     120**DCL-ENT
CSEED      51**DCL
FM$BUF$      68**DCL
FM$GRAN    1488**DCL
FMD$DECRYPT      64**DCL-ENT
FMD$RECTRAN      38**PROC
FMD$WRTSV      62**DCL-ENT
NB IN PROCEDURE DECOMP   1875**DCL
UBIN4      59**DCL
UBIN9 IN PROCEDURE COMPRESS   1655**DCL

