VERSION E05

PL6.E3A0      #001=FMD$GETBUF File=FMD$BUF.:E05TSI                               TUE 07/29/97 16:39 Page:1
        1        1        /*M*   FMD$BUF - Routines to manipulate pool buffers                         */
        2        2        /*T***********************************************************/
        3        3        /*T*                                                         */
        4        4        /*T* Copyright (c) Bull HN Information Systems Inc., 1997    */
        5        5        /*T*                                                         */
        6        6        /*T***********************************************************/
        7        7        /*X* DDA */
        8        8        /*P*   NAME:   FMD$BUF
        9        9        *      PURPOSE:  Routines to allocate, deallocate, read, write
       10       10        *              and move data to pool buffers.                                */
       11       11        %EJECT;
PL6.E3A0      #001=FMD$GETBUF File=FMD$BUF.:E05TSI                               TUE 07/29/97 16:39 Page:2
       12       12        /*F*   NAME:   FMD$GETBUF
       13       13        *      PURPOSE:  Obtain a pool buffer for a DCB.
       14       14        *      DESCRIPTION:  A pool buffer is obtained from memory management         */
       15       15        /*D*   NAME:   FMD$GETBUF
       16       16        *      CALL:   CALL FMD$GETBUF(BUFNUM,BUFSIZE,BUF$);
       17       17        *      INTERFACE:  MMJ$GFBUF,FMD$FLSHBUF,FTT$TRUNC
       18       18        *      INPUT:  BUFNUM - DCB buffer number to get (0-4)
       19       19        *              BUFSIZ - Size of buffer in pages
       20       20        *      OUTPUT: DCB.BFR1.BUFX  contains the buffer number (1-30)
       21       21        *              BUF$ - Pointer to the buffer obtained
       22       22                 DESCRIPTION:
       23       23
       24       24                      If we already have a buffer, then just set the pointers.
       25       25                 Otherwise, get a buffer, then set the appropriate values.
       26       26                                                                                      */
       27       27        FMD$GETBUF: PROC(BUFNUM,BUFSIZE,BUF$);
       28       28        /* PARAMETERS */
       29       29    1   DCL BUFNUM UBIN(36);
       30       30    1   DCL BUFNUM$ REDEF BUFNUM PTR;
       31       31    1   DCL BUFSIZE UBIN(36);
       32       32    1   DCL BUF$ PTR;
       33       33        /* EXTERNAL ROUTINES */
       34       34    1   DCL MMJ$GFBUF ENTRY(2);
       35       35    1   DCL SC_FMD84 ENTRY CONV(2,0);
       36       36        /* LOCAL AUTOMATIC STORAGE */
       37       37    1   DCL I SBIN WORD;
       38       38    1   DCL JDCB$ PTR;
       39       39        /* EXTERNAL DATA */
       40       40    1   DCL B$JIT$ PTR SYMREF READONLY;
       41       41    1   DCL FM$BUF$(0:0) PTR SYMREF READONLY;
       42       42        /* INCLUDE FILES */
       43       43        %INCLUDE B$JIT;
       44      646        %MACRO F$DCB(BASED=BASED);
       45      647        %INCLUDE F$DCB;
       46      696        %MEND;
       47      697        %INCLUDE FM_DATA_R;
       48      711        %INCLUDE CP_6_SUBS;
PL6.E3A0      #001=FMD$GETBUF File=FMD$BUF.:E05TSI                               TUE 07/29/97 16:39 Page:3
       49     1251        /* BASED STRUCTURES */
       50     1252        %F$DCB (BASED="BASED(JDCB$)");
       51     1302        /* */
       52     1303    1           JDCB$=B$JIT.DCB$;               /* POINTER TO CURRENT DCB             */
       53     1304    1           IF BUFSIZE=0 OR BUFNUM>4 THEN
       54     1305    1           CALL SC_FMD84;                  /* ILLEGAL ARGS                       */
       55     1306        /*S*   SCREECH_CODE:  FMD-S$FM84
       56     1307        *      TYPE:   SUA
       57     1308        *      MESSAGE:  FMD$GETBUF called with bad args */
       58     1309    1           IF F$DCB.BFR.BUFX(BUFNUM) = 0
       59     1310    2           THEN DO;
       60     1311    2              CALL MMJ$GFBUF(BUFSIZE,I);
       61     1312    2              F$DCB.BFR.BUFX(BUFNUM)=I;    /* Buffer number                      */
       62     1313    2              F$DCB.BFR1.SIZ(BUFNUM)=BUFSIZE;
       63     1314    2              END;
       64     1315    1           IF ADDR(BUF$)~=ADDR(NIL) THEN
       65     1316    1              BUF$=FM$BUF$(F$DCB.BFR.BUFX(BUFNUM));
       66     1317    1           RETURN;
       67     1318        /* */
       68     1319    1   FMD$GBUF: ENTRY(BUFNUM);
       69     1320        /* */
       70     1321    1           CALL MMJ$GFBUF(1,I);
       71     1322    1           BUFNUM$=FM$BUF$(I);
       72     1323    1           RETURN;
       73     1324    1   END FMD$GETBUF;
       74     1325        %EOD;

PL6.E3A0      #001=FMD$GETBUF File=FMD$BUF.:E05TSI                               TUE 07/29/97 16:39 Page:4
--  Include file information  --

   CP_6_SUBS.:E05TOU  is referenced.
   FM_DATA_R.:E05TOU  cannot be made into a system file and is referenced.
   F$DCB.:E05TOU  is referenced.
   B$JIT_C.:E05TOU  is referenced.
   B$JIT.:E05TOU  cannot be made into a system file and is referenced.
      No diagnostics issued in procedure FMD$GETBUF.

   Procedure FMD$GETBUF requires 69 words for executable code.
   Procedure FMD$GETBUF requires 10 words of local(AUTO) storage.

PL6.E3A0      #001=FMD$GETBUF File=FMD$BUF.:E05TSI                               TUE 07/29/97 16:39 Page:5

 Object Unit name= FMD$GETBUF                                 File name= FMD$BUF.:E05TOU
 UTS= JUL 29 '97 16:39:12.84 TUE                              Compiler= PL-6/E31         Sev=      00
 SharedLib= :SHARED_SYSTEM                                    Alt SharedLib=


    ****  Control sections  ****

 Sect   Type Bound  Init  Size OctSiz  Section name(segment info)
    0   Proc  even  none    69    105  FMD$GETBUF
    1  RoData even  none     1      1  FMD$GETBUF

    ****  Entry defs  ****

                              Check   Calling
                             calling  sequence
  Sect OctLoc Primary Altret sequence   type   Parms  Name
     0      0   yes            yes      Std        3  FMD$GETBUF
     0     66                  yes      Std        1  FMD$GBUF

  ****  Entry refs  ****

         Check        Calling
        calling       sequence
Altret sequence SRef   type   Args  Name
         yes           Std       2 MMJ$GFBUF
                       nStd      0 X66_AUTO_3
                       Std       0 B_CONSPOOL_D
                       nStd      0 X66_ARET

  ****  Data refs  ****

  Flags:  r = read only, s = secondary
Flgs Name                             Flgs Name                             Flgs Name
     SC_FMD84                         r    B$JIT$                           r    FM$BUF$
     B_VECTNIL
PL6.E3A0      #001=FMD$GETBUF File=FMD$BUF.:E05TSI                               TUE 07/29/97 16:39 Page:6

  ****  Segment refs  ****

  Flags:  r = read only, s = secondary
Flgs Name                             Flgs Name                             Flgs Name
     ASLENTSID                             ISSID
PL6.E3A0      #001=FMD$GETBUF File=FMD$BUF.:E05TSI                               TUE 07/29/97 16:39 Page:7


        1        1        /*M*   FMD$BUF - Routines to manipulate pool buffers                         */
        2        2        /*T***********************************************************/
        3        3        /*T*                                                         */
        4        4        /*T* Copyright (c) Bull HN Information Systems Inc., 1997    */
        5        5        /*T*                                                         */
        6        6        /*T***********************************************************/
        7        7        /*X* DDA */
        8        8        /*P*   NAME:   FMD$BUF
        9        9        *      PURPOSE:  Routines to allocate, deallocate, read, write
       10       10        *              and move data to pool buffers.                                */
       11       11        %EJECT;
PL6.E3A0      #001=FMD$GETBUF File=FMD$BUF.:E05TSI                               TUE 07/29/97 16:39 Page:8
       12       12        /*F*   NAME:   FMD$GETBUF
       13       13        *      PURPOSE:  Obtain a pool buffer for a DCB.
       14       14        *      DESCRIPTION:  A pool buffer is obtained from memory management         */
       15       15        /*D*   NAME:   FMD$GETBUF
       16       16        *      CALL:   CALL FMD$GETBUF(BUFNUM,BUFSIZE,BUF$);
       17       17        *      INTERFACE:  MMJ$GFBUF,FMD$FLSHBUF,FTT$TRUNC
       18       18        *      INPUT:  BUFNUM - DCB buffer number to get (0-4)
       19       19        *              BUFSIZ - Size of buffer in pages
       20       20        *      OUTPUT: DCB.BFR1.BUFX  contains the buffer number (1-30)
       21       21        *              BUF$ - Pointer to the buffer obtained
       22       22                 DESCRIPTION:
       23       23
       24       24                      If we already have a buffer, then just set the pointers.
       25       25                 Otherwise, get a buffer, then set the appropriate values.
       26       26                                                                                      */
       27       27        FMD$GETBUF: PROC(BUFNUM,BUFSIZE,BUF$);

     27  0 000000   000000 700200 xent  FMD$GETBUF   TSX0  ! X66_AUTO_3
         0 000001   000012 000003                    ZERO    10,3

       28       28        /* PARAMETERS */
       29       29    1   DCL BUFNUM UBIN(36);
       30       30    1   DCL BUFNUM$ REDEF BUFNUM PTR;
       31       31    1   DCL BUFSIZE UBIN(36);
       32       32    1   DCL BUF$ PTR;
       33       33        /* EXTERNAL ROUTINES */
       34       34    1   DCL MMJ$GFBUF ENTRY(2);
       35       35    1   DCL SC_FMD84 ENTRY CONV(2,0);
       36       36        /* LOCAL AUTOMATIC STORAGE */
       37       37    1   DCL I SBIN WORD;
       38       38    1   DCL JDCB$ PTR;
       39       39        /* EXTERNAL DATA */
       40       40    1   DCL B$JIT$ PTR SYMREF READONLY;
       41       41    1   DCL FM$BUF$(0:0) PTR SYMREF READONLY;
       42       42        /* INCLUDE FILES */
       43       43        %INCLUDE B$JIT;
       44      646        %MACRO F$DCB(BASED=BASED);
PL6.E3A0      #001=FMD$GETBUF File=FMD$BUF.:E05TSI                               TUE 07/29/97 16:39 Page:9
       45      647        %INCLUDE F$DCB;
       46      696        %MEND;
       47      697        %INCLUDE FM_DATA_R;
       48      711        %INCLUDE CP_6_SUBS;
       49     1251        /* BASED STRUCTURES */
       50     1252        %F$DCB (BASED="BASED(JDCB$)");
       51     1302        /* */
       52     1303    1           JDCB$=B$JIT.DCB$;               /* POINTER TO CURRENT DCB             */

   1303  0 000002   000000 470400 xsym               LDP0    B$JIT$
         0 000003   000232 236100                    LDQ     154,,PR0
         0 000004   200007 756100                    STQ     JDCB$,,AUTO

       53     1304    1           IF BUFSIZE=0 OR BUFNUM>4 THEN

   1304  0 000005   200004 471500                    LDP1    @BUFSIZE,,AUTO
         0 000006   100000 235100                    LDA     0,,PR1
         0 000007   000014 600000 0                  TZE     s:1305
         0 000010   200003 473500                    LDP3    @BUFNUM,,AUTO
         0 000011   300000 235100                    LDA     0,,PR3
         0 000012   000005 115007                    CMPA    5,DL
         0 000013   000016 602000 0                  TNC     s:1309

       54     1305    1           CALL SC_FMD84;                  /* ILLEGAL ARGS                       */

   1305  0 000014   000000 713400 xsym               CLIMB   SC_FMD84
         0 000015   000000 600000 xsid               climb   nvectors=         0

       55     1306        /*S*   SCREECH_CODE:  FMD-S$FM84
       56     1307        *      TYPE:   SUA
       57     1308        *      MESSAGE:  FMD$GETBUF called with bad args */
       58     1309    1           IF F$DCB.BFR.BUFX(BUFNUM) = 0

   1309  0 000016   200003 470500                    LDP0    @BUFNUM,,AUTO
         0 000017   000000 720100                    LXL0    0,,PR0
         0 000020   200007 471500                    LDP1    JDCB$,,AUTO
         0 000021   100115 236110                    LDQ     77,X0,PR1
PL6.E3A0      #001=FMD$GETBUF File=FMD$BUF.:E05TSI                               TUE 07/29/97 16:39 Page:10
         0 000022   037000 316003                    CANQ    15872,DU
         0 000023   000053 601000 0                  TNZ     s:1315

       59     1310    2           THEN DO;

       60     1311    2              CALL MMJ$GFBUF(BUFSIZE,I);

   1311  0 000024   200006 633500                    EPPR3   I,,AUTO
         0 000025   200011 453500                    STP3    JDCB$+2,,AUTO
         0 000026   200004 236100                    LDQ     @BUFSIZE,,AUTO
         0 000027   200010 756100                    STQ     JDCB$+1,,AUTO
         0 000030   200010 630500                    EPPR0   JDCB$+1,,AUTO
         0 000031   000020 631400 xsym               EPPR1   B_VECTNIL+16
         0 000032   000000 701000 xent               TSX1    MMJ$GFBUF
         0 000033   000000 011000                    NOP     0

       61     1312    2              F$DCB.BFR.BUFX(BUFNUM)=I;    /* Buffer number                      */

   1312  0 000034   200003 470500                    LDP0    @BUFNUM,,AUTO
         0 000035   000000 720100                    LXL0    0,,PR0
         0 000036   200007 471500                    LDP1    JDCB$,,AUTO
         0 000037   200006 236100                    LDQ     I,,AUTO
         0 000040   000033 736000                    QLS     27
         0 000041   100115 676110                    ERQ     77,X0,PR1
         0 000042   037000 376003                    ANQ     15872,DU
         0 000043   100115 656110                    ERSQ    77,X0,PR1

       62     1313    2              F$DCB.BFR1.SIZ(BUFNUM)=BUFSIZE;

   1313  0 000044   000000 720100                    LXL0    0,,PR0
         0 000045   200004 473500                    LDP3    @BUFSIZE,,AUTO
         0 000046   300000 236100                    LDQ     0,,PR3
         0 000047   000022 736000                    QLS     18
         0 000050   100122 676110                    ERQ     82,X0,PR1
         0 000051   000777 376003                    ANQ     511,DU
         0 000052   100122 656110                    ERSQ    82,X0,PR1

PL6.E3A0      #001=FMD$GETBUF File=FMD$BUF.:E05TSI                               TUE 07/29/97 16:39 Page:11
       63     1314    2              END;

       64     1315    1           IF ADDR(BUF$)~=ADDR(NIL) THEN

   1315  0 000053   200005 236100                    LDQ     @BUF$,,AUTO
         0 000054   000001 116000 xsym               CMPQ    B_VECTNIL+1
         0 000055   000065 600000 0                  TZE     s:1317

       65     1316    1              BUF$=FM$BUF$(F$DCB.BFR.BUFX(BUFNUM));

   1316  0 000056   000000 720100                    LXL0    0,,PR0
         0 000057   100115 236110                    LDQ     77,X0,PR1
         0 000060   000033 772000                    QRL     27
         0 000061   000037 376007                    ANQ     31,DL
         0 000062   000000 236006 xsym               LDQ     FM$BUF$,QL
         0 000063   200005 473500                    LDP3    @BUF$,,AUTO
         0 000064   300000 756100                    STQ     0,,PR3

       66     1317    1           RETURN;

   1317  0 000065   000000 702200 xent               TSX2  ! X66_ARET

       67     1318        /* */
       68     1319    1   FMD$GBUF: ENTRY(BUFNUM);

   1319  0 000066   000000 700200 xent  FMD$GBUF     TSX0  ! X66_AUTO_3
         0 000067   000012 000003                    ZERO    10,3

       69     1320        /* */
       70     1321    1           CALL MMJ$GFBUF(1,I);

   1321  0 000070   200006 630500                    EPPR0   I,,AUTO
         0 000071   200011 450500                    STP0    JDCB$+2,,AUTO
         0 000072   000000 236000 1                  LDQ     0
         0 000073   200010 756100                    STQ     JDCB$+1,,AUTO
         0 000074   200010 630500                    EPPR0   JDCB$+1,,AUTO
         0 000075   000020 631400 xsym               EPPR1   B_VECTNIL+16
PL6.E3A0      #001=FMD$GETBUF File=FMD$BUF.:E05TSI                               TUE 07/29/97 16:39 Page:12
         0 000076   000000 701000 xent               TSX1    MMJ$GFBUF
         0 000077   000000 011000                    NOP     0

       71     1322    1           BUFNUM$=FM$BUF$(I);

   1322  0 000100   200006 720100                    LXL0    I,,AUTO
         0 000101   000000 236010 xsym               LDQ     FM$BUF$,X0
         0 000102   200003 470500                    LDP0    @BUFNUM,,AUTO
         0 000103   000000 756100                    STQ     0,,PR0

       72     1323    1           RETURN;

   1323  0 000104   000000 702200 xent               TSX2  ! X66_ARET

(unnamed)
 Sect OctLoc
   1     000   000003 006000                                                    ....
       73     1324    1   END FMD$GETBUF;
       74     1325        %EOD;

PL6.E3A0      #001=FMD$GETBUF File=FMD$BUF.:E05TSI                               TUE 07/29/97 16:39 Page:13
--  Include file information  --

   CP_6_SUBS.:E05TOU  is referenced.
   FM_DATA_R.:E05TOU  cannot be made into a system file and is referenced.
   F$DCB.:E05TOU  is referenced.
   B$JIT_C.:E05TOU  is referenced.
   B$JIT.:E05TOU  cannot be made into a system file and is referenced.
      No diagnostics issued in procedure FMD$GETBUF.
PL6.E3A0      #001=FMD$GETBUF File=FMD$BUF.:E05TSI                               TUE 07/29/97 16:39 Page:14

 **** Variables and constants ****

  ****  Auto variables  ****

  ****  Scalars and arrays  ****
OctLoc.c.b A Datatyp(siz) R M Lvl/name                 OctLoc.c.b A Datatyp(siz) R M Lvl/name

     5-0-0/w PTR         r     1 @BUF$                      3-0-0/w PTR         r     1 @BUFNUM
     4-0-0/w PTR         r     1 @BUFSIZE                  *0-0-0/w PTR         r     1 BUF$
    *0-0-0/w UBIN        r     1 BUFNUM                    *0-0-0/w PTR         r     1 BUFNUM$
    *0-0-0/w UBIN        r     1 BUFSIZE                    6-0-0/w SBIN        r     1 I
     7-0-0/w PTR         r     1 JDCB$

  ****  SYMREF variables  ****

  ****  Scalars and arrays  ****
OctLoc.c.b A Datatyp(siz) R M Lvl/name                 OctLoc.c.b A Datatyp(siz) R M Lvl/name

     0-0-0/w PTR         r     1 B$JIT$
     0-0-0/w PTR         r     1 FM$BUF$(0:0)

  ****  BASED and DCB variables  ****

  ****  Scalars and arrays  ****
OctLoc.c.b A Datatyp(siz) R M Lvl/name                 OctLoc.c.b A Datatyp(siz) R M Lvl/name

     0-0-0/d STRC(8856)  r     1 B$JIT                      0-0-0/d ASTR(3528)  r     1 F$DCB


   Procedure FMD$GETBUF requires 69 words for executable code.
   Procedure FMD$GETBUF requires 10 words of local(AUTO) storage.
PL6.E3A0      #001=FMD$GETBUF File=FMD$BUF.:E05TSI                               TUE 07/29/97 16:39 Page:15
          *** CROSS REFERENCE LISTING ***
**     DENOTES     IDENTIFIER DEFINITION
<<                 IDENTIFIER'S VALUE SET
>>                 IDENTIFIER'S VALUE USED
<>                 IDENTIFIER SET AND/OR USED
--                 IDENTIFIER REFERENCED
PL6.E3A0      #001=FMD$GETBUF File=FMD$BUF.:E05TSI                               TUE 07/29/97 16:39 Page:16
          MINI XREF LISTING

B$JIT.CPFLAGS1.SLEAZE
       464**DCL       464--REDEF
B$JIT.DCB$
       538**DCL      1303>>ASSIGN
B$JIT.ERR.MID
       371**DCL       371--REDEF
B$JIT.JRESPEAK
       532**DCL       533--REDEF
B$JIT.ORIGINATOR_PORT.FROM_CR
       641**DCL       641--REDEF     642--REDEF
B$JIT.PNR
       545**DCL       545--REDEF
B$JIT.TSLINE
       639**DCL       640--REDEF
B$JIT$
        40**DCL       365--IMP-PTR  1303>>ASSIGN
BUF$
        32**DCL        27--PROC     1315--IF       1316<<ASSIGN
BUFNUM
        29**DCL        27--PROC       30--REDEF    1304>>IF       1309>>IF       1312>>ASSIGN   1313>>ASSIGN
      1316>>ASSIGN   1319--ENTRY
BUFNUM$
        30**DCL      1322<<ASSIGN
BUFSIZE
        31**DCL        27--PROC     1304>>IF       1311<>CALL     1313>>ASSIGN
F$DCB.ACTPOS
      1278**DCL      1278--REDEF
F$DCB.ARS
      1253**DCL      1253--REDEF
F$DCB.ATTR
      1271**DCL      1272--REDEF
F$DCB.BFR.BUFX
PL6.E3A0      #001=FMD$GETBUF File=FMD$BUF.:E05TSI                               TUE 07/29/97 16:39 Page:17
      1298**DCL      1309>>IF       1312<<ASSIGN   1316>>ASSIGN
F$DCB.BFR1.SIZ
      1298**DCL      1313<<ASSIGN
F$DCB.BORROW
      1286**DCL      1286--REDEF    1286--REDEF    1286--REDEF
F$DCB.DCBNAME.L
      1300**DCL      1300--IMP-SIZ
F$DCB.EOMCHAR
      1257**DCL      1257--REDEF
F$DCB.FLDID
      1281**DCL      1281--REDEF
F$DCB.FORM$
      1275**DCL      1275--REDEF
F$DCB.FSECT
      1291**DCL      1291--REDEF
F$DCB.FSN
      1268**DCL      1268--REDEF    1268--REDEF    1269--REDEF
F$DCB.HEADER$
      1274**DCL      1274--REDEF
F$DCB.IXTNSIZE
      1272**DCL      1272--REDEF
F$DCB.LASTSTA$
      1262**DCL      1262--REDEF
F$DCB.LVL
      1287**DCL      1287--REDEF
F$DCB.NAME.C
      1262**DCL      1262--REDEF
F$DCB.NOEOF
      1283**DCL      1283--REDEF
F$DCB.NRECS
      1273**DCL      1273--REDEF
F$DCB.NRECX
      1292**DCL      1292--REDEF
F$DCB.OHDR
      1284**DCL      1284--REDEF
F$DCB.ORG
PL6.E3A0      #001=FMD$GETBUF File=FMD$BUF.:E05TSI                               TUE 07/29/97 16:39 Page:18
      1267**DCL      1267--REDEF
F$DCB.PRECNO
      1290**DCL      1290--REDEF
F$DCB.RCSZ
      1295**DCL      1295--REDEF
F$DCB.RES
      1263**DCL      1263--REDEF
F$DCB.SETX
      1275**DCL      1275--REDEF
F$DCB.TAB$
      1274**DCL      1275--REDEF
F$DCB.TDA
      1289**DCL      1289--REDEF
F$DCB.WSN
      1264**DCL      1264--REDEF
FM$BUF$
        41**DCL      1316>>ASSIGN   1322>>ASSIGN
I
        37**DCL      1311<>CALL     1312>>ASSIGN   1321<>CALL     1322>>ASSIGN
JDCB$
        38**DCL      1253--IMP-PTR  1303<<ASSIGN   1309>>IF       1312>>ASSIGN   1313>>ASSIGN   1316>>ASSIGN
MMJ$GFBUF
        34**DCL-ENT  1311--CALL     1321--CALL
SC_FMD84
        35**DCL-ENT  1305--CALL
PL6.E3A0      #001=FMD$GETBUF File=FMD$BUF.:E05TSI                               TUE 07/29/97 16:39 Page:19
              *** CROSS REFERENCE LISTING ***
    **     DENOTES     IDENTIFIER DEFINITION
    <<                 IDENTIFIER'S VALUE SET
    >>                 IDENTIFIER'S VALUE USED
    <>                 IDENTIFIER SET AND/OR USED
    --                 IDENTIFIER REFERENCED
PL6.E3A0      #001=FMD$GETBUF File=FMD$BUF.:E05TSI                               TUE 07/29/97 16:39 Page:20
              MINI UREF LISTING

F$CFU$     708**DCL
FM$SET$     709**DCL
FMD$GBUF    1319**ENTRY
FMD$GETBUF      27**PROC
FM_CFUWAIT     708**DCL
FM_CFUWGRB     708**DCL
FM_EOP     706**DCL
FM_FRMAX     705**DCL
FM_FRZERO     705**DCL
FM_GCT     709**DCL
FM_GIP     709**DCL
FM_GPSDA     706**DCL
FM_HASH     707**DCL
FM_MADSDA     706**DCL
FM_PADSDA     706**DCL
FM_SRMAX     705**DCL
FM_SRZERO     705**DCL
FM_SYSACCTX     709**DCL
FM_SYSSETX     709**DCL
FM_TRUNC     707**DCL
FM_WSQ     707**DCL
F_CWLK     708**DCL
F_CWUSER     708**DCL
F_DCBLOCK     707**DCL

PL6.E3A0      #002=FMD$TRNC File=FMD$BUF.:E05TSI                                 TUE 07/29/97 16:39 Page:21
       75        1        /*T***********************************************************/
       76        2        /*T*                                                         */
       77        3        /*T* Copyright (c) Bull HN Information Systems Inc., 1997    */
       78        4        /*T*                                                         */
       79        5        /*T***********************************************************/
       80        6        /*D*     NAME:     FMD$TRUNC
       81        7                 PURPOSE:  To get rid of the oldest buffer at the request of
       82        8                           memory management.
       83        9                 DESCRIPTION:
       84       10
       85       11                      When we call memory management to get a buffer, it will
       86       12                 check to make sure the user has not exceeded his allowed
       87       13                 number of FPOOLS.  If he has, then MM will call FMD$TRNC
       88       14                 to get rid of the oldest buffer that is not part of the
       89       15                 current DCB.  Loop once through the list of the user's
       90       16                 DCBs, looking for the oldest one.  Loop once through the
       91       17                 buffer table, releasing the first buffer we find.  If we
       92       18                 can't find one, then scrag the user.
       93       19        */
       94       20                 %EJECT;
PL6.E3A0      #002=FMD$TRNC File=FMD$BUF.:E05TSI                                 TUE 07/29/97 16:39 Page:22
       95       21        FMD$TRNC: PROC;
       96       22        /* */
       97       23    1          DCL FMD$FLSHBUF ENTRY(1);
       98       24    1          DCL FMD$RELBUF ENTRY(1);
       99       25    1          DCL FTT$TRUNC ENTRY ALTRET;
      100       26    1          DCL SC_FMD85 ENTRY CONV(2, 0);
      101       27    1          DCL SSR$REG ENTRY(3) ALTRET;
      102       28        /* */
      103       29    1          DCL P$ PTR BASED ALIGNED;
      104       30        /* */
      105       31    1          DCL JDCB$ PTR;
      106       32    1          DCL OLDAGE SBIN;
      107       33    1          DCL I SBIN;
      108       34    1          DCL SAVDCB$ PTR;
      109       35    1          DCL PTRTBL$ PTR;
      110       36    1          DCL TDCB$ PTR;
      111       37    1          DCL DCBCNT SBIN;
      112       38    1          DCL OLDAGE_WIO SBIN;
      113       39    1          DCL BCDCB$ PTR;
      114       40    1          DCL 1 BCDCB REDEF BCDCB$,
      115       41    1               2 * BIT(24),
      116       42    1               2 SID BIT(12);
      117       43        /* */
      118       44    1          DCL B$JIT$ PTR SYMREF;
      119       45    1          DCL B$ROSEG$ PTR SYMREF;
      120       46    1          DCL B$UPT$ PTR SYMREF;
      121       47    1          DCL FM$BUF$(0:0) PTR SYMREF;
      122       48        /* */
      123       49               %INCLUDE B$JIT;
      124      652               %MACRO F$DCB(BASED=BASED);
      125      653               %INCLUDE F$DCB;
      126      702               %MEND;
      127      703               %INCLUDE B$ROSEG;
      128      766               %INCLUDE B$MAP;
      129      865               %INCLUDE M_INFO_C;
      130     1005               %INCLUDE B_SEGIDS_C;
      131     1544               %INCLUDE SS_SCHED_C;
PL6.E3A0      #002=FMD$TRNC File=FMD$BUF.:E05TSI                                 TUE 07/29/97 16:39 Page:23
      132     1777               %INCLUDE B_STRINGS_C;
      133     1906               %INCLUDE FM_DATA_R;
      134     1920               %INCLUDE CP_6_SUBS;
      135     2460        /* */
      136     2461               %F$DCB(BASED="BASED(JDCB$)");
      137     2511        /* */
      138     2512                                      /* Ptr to first neg DCB in DCB pointer table    */
      139     2513    1          JDCB$=B$JIT.DCB$;
      140     2514    1          PTRTBL$=PINCRW(B$ROSEG$->B$ROSEG.DCBPTR$,%M$MAXNEG#-1);
      141     2515                                           /* Total number of DCB pointers in table   */
      142     2516    1          DCBCNT=B$ROSEG$->B$ROSEG.NUMDCBS-%M$MAXNEG#+1;
      143     2517    1          SAVDCB$=ADDR(NIL);
      144     2518    1          BCDCB$ = ADDR(NIL) ;
      145     2519    1          OLDAGE_WIO=-1;
      146     2520    1          OLDAGE=-1;
      147     2521    2          DO WHILE(DCBCNT>0);
      148     2522    2             PTRTBL$=PINCRW(PTRTBL$,1);   /* ADVANCE TO NEXT DCB POINTER        */
      149     2523    2             TDCB$=PTRTBL$->P$;           /* POINTER TO THIS DCB                */
      150     2524    2             IF TDCB$=ADDR(NIL) THEN
      151     2525    2                GOTO NXTDCB;
      152     2526    2             IF NOT TDCB$->F$DCB.FCD THEN
      153     2527    2                GOTO NXTDCB;
      154     2528    2             IF TDCB$->F$DCB.IASN=%STREAM# THEN
      155     2529    2                TDCB$=TDCB$->F$DCB.CFU$;
      156     2530    2             IF TDCB$=JDCB$ THEN
      157     2531    2                IF F$DCB.IASN~=%RANDOM# OR NOT F$DCB.BFR1(0) THEN
      158     2532    2                   GOTO NXTDCB;  /* Skip current DCB unless RANDOM,
      159     2533                               in which case it is OK to take buffer 0 */
      160     2534    3             DO I=0 TO 4;
      161     2535    3                IF TDCB$->F$DCB.BFR.BUFX(I)~=0 THEN
      162     2536    3                   GOTO GOTONE;           /* Real page here                     */
      163     2537    3                END;
      164     2538    2             GOTO NXTDCB;                 /* THIS DCB HAS NO BUFFERS            */
      165     2539        /* */
      166     2540           /* The first IF finds the OLDEST DCB without an IO pending,
      167     2541              The second finds the OLDEST DCB with an IO pending.  If the
      168     2542              First one fails to find a DCB without an IO pending, we will
PL6.E3A0      #002=FMD$TRNC File=FMD$BUF.:E05TSI                                 TUE 07/29/97 16:39 Page:24
      169     2543              be forced to Wait for the IO to complete on the second.      */
      170     2544    3   GOTONE:   IF NOT TDCB$->F$DCB.FCN(0) THEN DO;              /* No IO pending */
      171     2545    4                IF TDCB$->F$DCB.AGE<OLDAGE OR OLDAGE=-1 THEN DO; /* FOUND OLDER */
      172     2546    4                   OLDAGE=TDCB$->F$DCB.AGE;  /* REMEMBER AGE OF THIS ONE        */
      173     2547    4                   SAVDCB$=TDCB$;            /* REMEMBER POINTER TO IT          */
      174     2548    4                   END;
      175     2549    3                END ;
      176     2550    3             ELSE DO;              /* Has an IO pending.  Use it if we have to. */
      177     2551    3                IF TDCB$->F$DCB.AGE<OLDAGE_WIO OR
      178     2552    4                        OLDAGE_WIO=-1 THEN DO;                /* FOUND OLDER    */
      179     2553    4                   OLDAGE_WIO=TDCB$->F$DCB.AGE;  /* REMEMBER AGE OF THIS ONE    */
      180     2554    4                   BCDCB$=TDCB$;                 /* REMEMBER POINTER TO IT      */
      181     2555    4                   END;
      182     2556    3                END ;
      183     2557    2   NXTDCB:   DCBCNT=DCBCNT-1;
      184     2558    2             END;
      185     2559        /* */
      186     2560        /* ALL DCBS HAVE BEEN LOOKED AT
      187     2561           If we didn't find a DCB without an IO use one with an IO */
      188     2562    1           IF SAVDCB$=ADDR(NIL) THEN SAVDCB$ = BCDCB$;
      189     2563    1           IF SAVDCB$=ADDR(NIL) THEN
      190     2564    1           IF B$JIT.FBUC > 8 THEN CALL SC_FMD85; /* ERROR IF NO DCB HAD BUFFERS  */
      191     2565    1           ELSE RETURN;
      192     2566    1           BCDCB$=SAVDCB$;
      193     2567    1           BCDCB.SID=%RONCSID;             /* BYPASS CACHE PTR                   */
      194     2568    1           IF BCDCB$->F$DCB.FCN(0) THEN    /* WAIT FOR I/O TO COMPLETE           */
      195     2569    1              CALL SSR$REG(%SS_IIP,BCDCB$->F$DCB.FCN(0));
      196     2570    2           DO I=0 TO 4;
      197     2571    2              IF SAVDCB$->F$DCB.BFR.BUFX(I)~=0 THEN
      198     2572    3                 DO;
      199     2573    3                 FM_TRUNC=FM_TRUNC+1;
      200     2574    3                 B$JIT.DCB$=SAVDCB$;       /* CHANGE JIT DCB PTR FOR FTT & FMD   */
      201     2575    4                 DO CASE(SAVDCB$->F$DCB.IASN);
      202     2576    4                    CASE(%FILE#);
      203     2577    4                       IF SAVDCB$ -> F$DCB.BFR.CVM(I) THEN
      204     2578    4                          CALL FMD$RELBUF(I);
      205     2579    4                       ELSE
PL6.E3A0      #002=FMD$TRNC File=FMD$BUF.:E05TSI                                 TUE 07/29/97 16:39 Page:25
      206     2580    4                          CALL FMD$FLSHBUF(I);
      207     2581    4                    CASE (%TAPE#, %OD#); /* Optical Disk and Tape DCB  */
      208     2582    4                       CALL FTT$TRUNC;
      209     2583    4                    CASE(%DEVICE#,%FPRGIASN#);
      210     2584    4                       CALL FMD$RELBUF(I);
      211     2585    4                    CASE(ELSE);
      212     2586    4                       CALL SC_FMD85;
      213     2587    4                 END;
      214     2588    3                 B$JIT.DCB$=JDCB$;         /* RESTORE DCB PTR                    */
      215     2589    3                 RETURN;
      216     2590    3                 END;
      217     2591    2           END;
      218     2592
      219     2593        /*S*   SCREECH_CODE:  FMD-S$FM85
      220     2594        *      TYPE:   SUA
      221     2595        *      MESSAGE:  Can't find any pool buffers */
      222     2596    1          END FMD$TRNC;
      223     2597               %EOD;

PL6.E3A0      #002=FMD$TRNC File=FMD$BUF.:E05TSI                                 TUE 07/29/97 16:39 Page:26
--  Include file information  --

   CP_6_SUBS.:E05TOU  is referenced.
   FM_DATA_R.:E05TOU  cannot be made into a system file and is referenced.
   B_STRINGS_C.:E05TOU  is referenced.
   SS_SCHED_C.:E05TOU  is referenced.
   B_SEGIDS_C.:E05TOU  is referenced.
   M_INFO_C.:E05TOU  is referenced.
   B$MAP.:E05TOU  cannot be made into a system file and is referenced.
   B$ROSEG.:E05TOU  cannot be made into a system file and is referenced.
   F$DCB.:E05TOU  is referenced.
   B$JIT_C.:E05TOU  is referenced.
   B$JIT.:E05TOU  cannot be made into a system file and is referenced.
      No diagnostics issued in procedure FMD$TRNC.

   Procedure FMD$TRNC requires 181 words for executable code.
   Procedure FMD$TRNC requires 14 words of local(AUTO) storage.

PL6.E3A0      #002=FMD$TRNC File=FMD$BUF.:E05TSI                                 TUE 07/29/97 16:39 Page:27

 Object Unit name= FMD$TRNC                                   File name= FMD$BUF.:E05TOU
 UTS= JUL 29 '97 16:39:25.72 TUE                              Compiler= PL-6/E31         Sev=      00
 SharedLib= :SHARED_SYSTEM                                    Alt SharedLib=


    ****  Control sections  ****

 Sect   Type Bound  Init  Size OctSiz  Section name(segment info)
    0   Proc  even  none   181    265  FMD$TRNC
    1  RoData even  none     1      1  FMD$TRNC

    ****  Entry defs  ****

                              Check   Calling
                             calling  sequence
  Sect OctLoc Primary Altret sequence   type   Parms  Name
     0      0   yes            yes      Std        0  FMD$TRNC

  ****  Entry refs  ****

         Check        Calling
        calling       sequence
Altret sequence SRef   type   Args  Name
 yes     yes           Std       3 SSR$REG
         yes           Std       1 FMD$RELBUF
         yes           Std       1 FMD$FLSHBUF
 yes     yes           Std       0 FTT$TRUNC
                       nStd      0 X66_AUTO_0
                       Std       0 B_CONSPOOL_D
                       nStd      0 X66_ARET
PL6.E3A0      #002=FMD$TRNC File=FMD$BUF.:E05TSI                                 TUE 07/29/97 16:39 Page:28

  ****  Data refs  ****

  Flags:  r = read only, s = secondary
Flgs Name                             Flgs Name                             Flgs Name
     SC_FMD85                              B$JIT$                                B$ROSEG$
     FM_TRUNC                              B_VECTNIL

  ****  Segment refs  ****

  Flags:  r = read only, s = secondary
Flgs Name                             Flgs Name                             Flgs Name
     ASLENTSID                             ISSID
PL6.E3A0      #002=FMD$TRNC File=FMD$BUF.:E05TSI                                 TUE 07/29/97 16:39 Page:29


       75        1        /*T***********************************************************/
       76        2        /*T*                                                         */
       77        3        /*T* Copyright (c) Bull HN Information Systems Inc., 1997    */
       78        4        /*T*                                                         */
       79        5        /*T***********************************************************/
       80        6        /*D*     NAME:     FMD$TRUNC
       81        7                 PURPOSE:  To get rid of the oldest buffer at the request of
       82        8                           memory management.
       83        9                 DESCRIPTION:
       84       10
       85       11                      When we call memory management to get a buffer, it will
       86       12                 check to make sure the user has not exceeded his allowed
       87       13                 number of FPOOLS.  If he has, then MM will call FMD$TRNC
       88       14                 to get rid of the oldest buffer that is not part of the
       89       15                 current DCB.  Loop once through the list of the user's
       90       16                 DCBs, looking for the oldest one.  Loop once through the
       91       17                 buffer table, releasing the first buffer we find.  If we
       92       18                 can't find one, then scrag the user.
       93       19        */
       94       20                 %EJECT;
PL6.E3A0      #002=FMD$TRNC File=FMD$BUF.:E05TSI                                 TUE 07/29/97 16:39 Page:30
       95       21        FMD$TRNC: PROC;

     21  0 000000   000000 700200 xent  FMD$TRNC     TSX0  ! X66_AUTO_0
         0 000001   000016 000000                    ZERO    14,0

       96       22        /* */
       97       23    1          DCL FMD$FLSHBUF ENTRY(1);
       98       24    1          DCL FMD$RELBUF ENTRY(1);
       99       25    1          DCL FTT$TRUNC ENTRY ALTRET;
      100       26    1          DCL SC_FMD85 ENTRY CONV(2, 0);
      101       27    1          DCL SSR$REG ENTRY(3) ALTRET;
      102       28        /* */
      103       29    1          DCL P$ PTR BASED ALIGNED;
      104       30        /* */
      105       31    1          DCL JDCB$ PTR;
      106       32    1          DCL OLDAGE SBIN;
      107       33    1          DCL I SBIN;
      108       34    1          DCL SAVDCB$ PTR;
      109       35    1          DCL PTRTBL$ PTR;
      110       36    1          DCL TDCB$ PTR;
      111       37    1          DCL DCBCNT SBIN;
      112       38    1          DCL OLDAGE_WIO SBIN;
      113       39    1          DCL BCDCB$ PTR;
      114       40    1          DCL 1 BCDCB REDEF BCDCB$,
      115       41    1               2 * BIT(24),
      116       42    1               2 SID BIT(12);
      117       43        /* */
      118       44    1          DCL B$JIT$ PTR SYMREF;
      119       45    1          DCL B$ROSEG$ PTR SYMREF;
      120       46    1          DCL B$UPT$ PTR SYMREF;
      121       47    1          DCL FM$BUF$(0:0) PTR SYMREF;
      122       48        /* */
      123       49               %INCLUDE B$JIT;
      124      652               %MACRO F$DCB(BASED=BASED);
      125      653               %INCLUDE F$DCB;
      126      702               %MEND;
      127      703               %INCLUDE B$ROSEG;
PL6.E3A0      #002=FMD$TRNC File=FMD$BUF.:E05TSI                                 TUE 07/29/97 16:39 Page:31
      128      766               %INCLUDE B$MAP;
      129      865               %INCLUDE M_INFO_C;
      130     1005               %INCLUDE B_SEGIDS_C;
      131     1544               %INCLUDE SS_SCHED_C;
      132     1777               %INCLUDE B_STRINGS_C;
      133     1906               %INCLUDE FM_DATA_R;
      134     1920               %INCLUDE CP_6_SUBS;
      135     2460        /* */
      136     2461               %F$DCB(BASED="BASED(JDCB$)");
      137     2511        /* */
      138     2512                                      /* Ptr to first neg DCB in DCB pointer table    */
      139     2513    1          JDCB$=B$JIT.DCB$;

   2513  0 000002   000000 470400 xsym               LDP0    B$JIT$
         0 000003   000232 236100                    LDQ     154,,PR0
         0 000004   200003 756100                    STQ     JDCB$,,AUTO

      140     2514    1          PTRTBL$=PINCRW(B$ROSEG$->B$ROSEG.DCBPTR$,%M$MAXNEG#-1);

   2514  0 000005   000000 471400 xsym               LDP1    B$ROSEG$
         0 000006   100000 236100                    LDQ     0,,PR1
         0 000007   777737 036003                    ADLQ    -33,DU
         0 000010   200007 756100                    STQ     PTRTBL$,,AUTO

      141     2515                                           /* Total number of DCB pointers in table   */
      142     2516    1          DCBCNT=B$ROSEG$->B$ROSEG.NUMDCBS-%M$MAXNEG#+1;

   2516  0 000011   100002 236100                    LDQ     2,,PR1
         0 000012   000022 772000                    QRL     18
         0 000013   000041 036007                    ADLQ    33,DL
         0 000014   200011 756100                    STQ     DCBCNT,,AUTO

      143     2517    1          SAVDCB$=ADDR(NIL);

   2517  0 000015   000001 236000 xsym               LDQ     B_VECTNIL+1
         0 000016   200006 756100                    STQ     SAVDCB$,,AUTO

PL6.E3A0      #002=FMD$TRNC File=FMD$BUF.:E05TSI                                 TUE 07/29/97 16:39 Page:32
      144     2518    1          BCDCB$ = ADDR(NIL) ;

   2518  0 000017   200013 756100                    STQ     BCDCB$,,AUTO

      145     2519    1          OLDAGE_WIO=-1;

   2519  0 000020   000001 335007                    LCA     1,DL
         0 000021   200012 755100                    STA     OLDAGE_WIO,,AUTO

      146     2520    1          OLDAGE=-1;

   2520  0 000022   200004 755100                    STA     OLDAGE,,AUTO

      147     2521    2          DO WHILE(DCBCNT>0);

   2521  0 000023   200011 235100                    LDA     DCBCNT,,AUTO
         0 000024   000125 604400 0                  TMOZ    s:2562

      148     2522    2             PTRTBL$=PINCRW(PTRTBL$,1);   /* ADVANCE TO NEXT DCB POINTER        */

   2522  0 000025   200007 236100                    LDQ     PTRTBL$,,AUTO
         0 000026   000001 036003                    ADLQ    1,DU
         0 000027   200007 756100                    STQ     PTRTBL$,,AUTO

      149     2523    2             TDCB$=PTRTBL$->P$;           /* POINTER TO THIS DCB                */

   2523  0 000030   200007 470500                    LDP0    PTRTBL$,,AUTO
         0 000031   000000 236100                    LDQ     0,,PR0
         0 000032   200010 756100                    STQ     TDCB$,,AUTO

      150     2524    2             IF TDCB$=ADDR(NIL) THEN

   2524  0 000033   000001 116000 xsym               CMPQ    B_VECTNIL+1
         0 000034   000122 600000 0                  TZE     NXTDCB

      151     2525    2                GOTO NXTDCB;
      152     2526    2             IF NOT TDCB$->F$DCB.FCD THEN
PL6.E3A0      #002=FMD$TRNC File=FMD$BUF.:E05TSI                                 TUE 07/29/97 16:39 Page:33

   2526  0 000035   200010 471500                    LDP1    TDCB$,,AUTO
         0 000036   100031 236100                    LDQ     25,,PR1
         0 000037   020000 316007                    CANQ    8192,DL
         0 000040   000122 600000 0                  TZE     NXTDCB

      153     2527    2                GOTO NXTDCB;
      154     2528    2             IF TDCB$->F$DCB.IASN=%STREAM# THEN

   2528  0 000041   100103 236100                    LDQ     67,,PR1
         0 000042   000777 376007                    ANQ     511,DL
         0 000043   000005 116007                    CMPQ    5,DL
         0 000044   000047 601000 0                  TNZ     s:2530

      155     2529    2                TDCB$=TDCB$->F$DCB.CFU$;

   2529  0 000045   100066 236100                    LDQ     54,,PR1
         0 000046   200010 756100                    STQ     TDCB$,,AUTO

      156     2530    2             IF TDCB$=JDCB$ THEN

   2530  0 000047   200010 236100                    LDQ     TDCB$,,AUTO
         0 000050   200003 116100                    CMPQ    JDCB$,,AUTO
         0 000051   000061 601000 0                  TNZ     s:2534

      157     2531    2                IF F$DCB.IASN~=%RANDOM# OR NOT F$DCB.BFR1(0) THEN

   2531  0 000052   200003 471500                    LDP1    JDCB$,,AUTO
         0 000053   100103 236100                    LDQ     67,,PR1
         0 000054   000777 376007                    ANQ     511,DL
         0 000055   000003 116007                    CMPQ    3,DL
         0 000056   000122 601000 0                  TNZ     NXTDCB
         0 000057   100122 235100                    LDA     82,,PR1
         0 000060   000122 600000 0                  TZE     NXTDCB

      158     2532    2                   GOTO NXTDCB;  /* Skip current DCB unless RANDOM,
      159     2533                               in which case it is OK to take buffer 0 */
PL6.E3A0      #002=FMD$TRNC File=FMD$BUF.:E05TSI                                 TUE 07/29/97 16:39 Page:34
      160     2534    3             DO I=0 TO 4;

   2534  0 000061   200005 450100                    STZ     I,,AUTO

      161     2535    3                IF TDCB$->F$DCB.BFR.BUFX(I)~=0 THEN

   2535  0 000062   200010 470500                    LDP0    TDCB$,,AUTO
         0 000063   200005 720100                    LXL0    I,,AUTO
         0 000064   000115 236110                    LDQ     77,X0,PR0
         0 000065   037000 316003                    CANQ    15872,DU
         0 000066   000074 601000 0                  TNZ     GOTONE

      162     2536    3                   GOTO GOTONE;           /* Real page here                     */
      163     2537    3                END;

   2537  0 000067   200005 054100                    AOS     I,,AUTO
         0 000070   200005 235100                    LDA     I,,AUTO
         0 000071   000004 115007                    CMPA    4,DL
         0 000072   000062 604400 0                  TMOZ    s:2535

      164     2538    2             GOTO NXTDCB;                 /* THIS DCB HAS NO BUFFERS            */

   2538  0 000073   000122 710000 0                  TRA     NXTDCB

      165     2539        /* */
      166     2540           /* The first IF finds the OLDEST DCB without an IO pending,
      167     2541              The second finds the OLDEST DCB with an IO pending.  If the
      168     2542              First one fails to find a DCB without an IO pending, we will
      169     2543              be forced to Wait for the IO to complete on the second.      */
      170     2544    3   GOTONE:   IF NOT TDCB$->F$DCB.FCN(0) THEN DO;              /* No IO pending */

   2544  0 000074   000074 236100       GOTONE       LDQ     60,,PR0
         0 000075   777000 316003                    CANQ    -512,DU
         0 000076   000111 601000 0                  TNZ     s:2551

      171     2545    4                IF TDCB$->F$DCB.AGE<OLDAGE OR OLDAGE=-1 THEN DO; /* FOUND OLDER */

PL6.E3A0      #002=FMD$TRNC File=FMD$BUF.:E05TSI                                 TUE 07/29/97 16:39 Page:35
   2545  0 000077   000114 236100                    LDQ     76,,PR0
         0 000100   200004 116100                    CMPQ    OLDAGE,,AUTO
         0 000101   000105 604000 0                  TMI     s:2546
         0 000102   200004 235100                    LDA     OLDAGE,,AUTO
         0 000103   000027 115000 xsym               CMPA    B_VECTNIL+23
         0 000104   000122 601000 0                  TNZ     NXTDCB

      172     2546    4                   OLDAGE=TDCB$->F$DCB.AGE;  /* REMEMBER AGE OF THIS ONE        */

   2546  0 000105   200004 756100                    STQ     OLDAGE,,AUTO

      173     2547    4                   SAVDCB$=TDCB$;            /* REMEMBER POINTER TO IT          */

   2547  0 000106   200010 236100                    LDQ     TDCB$,,AUTO
         0 000107   200006 756100                    STQ     SAVDCB$,,AUTO

      174     2548    4                   END;

      175     2549    3                END ;

   2549  0 000110   000122 710000 0                  TRA     NXTDCB

      176     2550    3             ELSE DO;              /* Has an IO pending.  Use it if we have to. */

      177     2551    3                IF TDCB$->F$DCB.AGE<OLDAGE_WIO OR

   2551  0 000111   000114 236100                    LDQ     76,,PR0
         0 000112   200012 116100                    CMPQ    OLDAGE_WIO,,AUTO
         0 000113   000117 604000 0                  TMI     s:2553
         0 000114   200012 235100                    LDA     OLDAGE_WIO,,AUTO
         0 000115   000027 115000 xsym               CMPA    B_VECTNIL+23
         0 000116   000122 601000 0                  TNZ     NXTDCB

      178     2552    4                        OLDAGE_WIO=-1 THEN DO;                /* FOUND OLDER    */

      179     2553    4                   OLDAGE_WIO=TDCB$->F$DCB.AGE;  /* REMEMBER AGE OF THIS ONE    */

PL6.E3A0      #002=FMD$TRNC File=FMD$BUF.:E05TSI                                 TUE 07/29/97 16:39 Page:36
   2553  0 000117   200012 756100                    STQ     OLDAGE_WIO,,AUTO

      180     2554    4                   BCDCB$=TDCB$;                 /* REMEMBER POINTER TO IT      */

   2554  0 000120   200010 236100                    LDQ     TDCB$,,AUTO
         0 000121   200013 756100                    STQ     BCDCB$,,AUTO

      181     2555    4                   END;

      182     2556    3                END ;

      183     2557    2   NXTDCB:   DCBCNT=DCBCNT-1;

   2557  0 000122   000001 336007       NXTDCB       LCQ     1,DL
         0 000123   200011 056100                    ASQ     DCBCNT,,AUTO

      184     2558    2             END;

   2558  0 000124   000025 605400 0                  TPNZ    s:2522

      185     2559        /* */
      186     2560        /* ALL DCBS HAVE BEEN LOOKED AT
      187     2561           If we didn't find a DCB without an IO use one with an IO */
      188     2562    1           IF SAVDCB$=ADDR(NIL) THEN SAVDCB$ = BCDCB$;

   2562  0 000125   200006 236100                    LDQ     SAVDCB$,,AUTO
         0 000126   000001 116000 xsym               CMPQ    B_VECTNIL+1
         0 000127   000132 601000 0                  TNZ     s:2563

   2562  0 000130   200013 236100                    LDQ     BCDCB$,,AUTO
         0 000131   200006 756100                    STQ     SAVDCB$,,AUTO

      189     2563    1           IF SAVDCB$=ADDR(NIL) THEN

   2563  0 000132   000001 116000 xsym               CMPQ    B_VECTNIL+1
         0 000133   000144 601000 0                  TNZ     s:2566

PL6.E3A0      #002=FMD$TRNC File=FMD$BUF.:E05TSI                                 TUE 07/29/97 16:39 Page:37
      190     2564    1           IF B$JIT.FBUC > 8 THEN CALL SC_FMD85; /* ERROR IF NO DCB HAD BUFFERS  */

   2564  0 000134   000000 470400 xsym               LDP0    B$JIT$
         0 000135   000205 220100                    LDX0    133,,PR0
         0 000136   000011 100003                    CMPX0   9,DU
         0 000137   000143 602000 0                  TNC     s:2565

   2564  0 000140   000000 713400 xsym               CLIMB   SC_FMD85
         0 000141   000000 600000 xsid               climb   nvectors=         0
         0 000142   000144 710000 0                  TRA     s:2566

      191     2565    1           ELSE RETURN;

   2565  0 000143   000000 702200 xent               TSX2  ! X66_ARET

      192     2566    1           BCDCB$=SAVDCB$;

   2566  0 000144   200006 236100                    LDQ     SAVDCB$,,AUTO
         0 000145   200013 756100                    STQ     BCDCB$,,AUTO

      193     2567    1           BCDCB.SID=%RONCSID;             /* BYPASS CACHE PTR                   */

   2567  0 000146   006124 236007                    LDQ     3156,DL
         0 000147   200013 752103                    STCQ    BCDCB$,'03'O,AUTO

      194     2568    1           IF BCDCB$->F$DCB.FCN(0) THEN    /* WAIT FOR I/O TO COMPLETE           */

   2568  0 000150   200013 470500                    LDP0    BCDCB$,,AUTO
         0 000151   000074 236100                    LDQ     60,,PR0
         0 000152   777000 316003                    CANQ    -512,DU
         0 000153   000164 600000 0                  TZE     s:2570

      195     2569    1              CALL SSR$REG(%SS_IIP,BCDCB$->F$DCB.FCN(0));

   2569  0 000154   200013 236100                    LDQ     BCDCB$,,AUTO
         0 000155   000074 036003                    ADLQ    60,DU
         0 000156   000000 235000 1                  LDA     0
PL6.E3A0      #002=FMD$TRNC File=FMD$BUF.:E05TSI                                 TUE 07/29/97 16:39 Page:38
         0 000157   200014 757100                    STAQ    BCDCB$+1,,AUTO
         0 000160   200014 630500                    EPPR0   BCDCB$+1,,AUTO
         0 000161   000020 631400 xsym               EPPR1   B_VECTNIL+16
         0 000162   000000 701000 xent               TSX1    SSR$REG
         0 000163   000000 011000                    NOP     0

      196     2570    2           DO I=0 TO 4;

   2570  0 000164   200005 450100                    STZ     I,,AUTO

      197     2571    2              IF SAVDCB$->F$DCB.BFR.BUFX(I)~=0 THEN

   2571  0 000165   200006 470500                    LDP0    SAVDCB$,,AUTO
         0 000166   200005 720100                    LXL0    I,,AUTO
         0 000167   000115 236110                    LDQ     77,X0,PR0
         0 000170   037000 316003                    CANQ    15872,DU
         0 000171   000260 600000 0                  TZE     s:2591

      198     2572    3                 DO;

      199     2573    3                 FM_TRUNC=FM_TRUNC+1;

   2573  0 000172   000000 054000 xsym               AOS     FM_TRUNC

      200     2574    3                 B$JIT.DCB$=SAVDCB$;       /* CHANGE JIT DCB PTR FOR FTT & FMD   */

   2574  0 000173   200006 236100                    LDQ     SAVDCB$,,AUTO
         0 000174   000000 471400 xsym               LDP1    B$JIT$
         0 000175   100232 756100                    STQ     154,,PR1

      201     2575    4                 DO CASE(SAVDCB$->F$DCB.IASN);

   2575  0 000176   000103 721100                    LXL1    67,,PR0
         0 000177   000777 361003                    ANX1    511,DU
         0 000200   000013 101003                    CMPX1   11,DU
         0 000201   000203 602011 0                  TNC     s:2575+5,X1
         0 000202   000252 710000 0                  TRA     s:2586
PL6.E3A0      #002=FMD$TRNC File=FMD$BUF.:E05TSI                                 TUE 07/29/97 16:39 Page:39
         0 000203   000252 710000 0                  TRA     s:2586
         0 000204   000216 710000 0                  TRA     s:2577
         0 000205   000237 710000 0                  TRA     s:2582
         0 000206   000243 710000 0                  TRA     s:2584
         0 000207   000252 710000 0                  TRA     s:2586
         0 000210   000252 710000 0                  TRA     s:2586
         0 000211   000252 710000 0                  TRA     s:2586
         0 000212   000252 710000 0                  TRA     s:2586
         0 000213   000243 710000 0                  TRA     s:2584
         0 000214   000252 710000 0                  TRA     s:2586
         0 000215   000237 710000 0                  TRA     s:2582

      202     2576    4                    CASE(%FILE#);

      203     2577    4                       IF SAVDCB$ -> F$DCB.BFR.CVM(I) THEN

   2577  0 000216   000115 236110                    LDQ     77,X0,PR0
         0 000217   040000 316003                    CANQ    16384,DU
         0 000220   000230 600000 0                  TZE     s:2580

      204     2578    4                          CALL FMD$RELBUF(I);

   2578  0 000221   200005 633500                    EPPR3   I,,AUTO
         0 000222   200014 453500                    STP3    BCDCB$+1,,AUTO
         0 000223   200014 630500                    EPPR0   BCDCB$+1,,AUTO
         0 000224   000017 631400 xsym               EPPR1   B_VECTNIL+15
         0 000225   000000 701000 xent               TSX1    FMD$RELBUF
         0 000226   000000 011000                    NOP     0
         0 000227   000254 710000 0                  TRA     s:2588

      205     2579    4                       ELSE
      206     2580    4                          CALL FMD$FLSHBUF(I);

   2580  0 000230   200005 633500                    EPPR3   I,,AUTO
         0 000231   200014 453500                    STP3    BCDCB$+1,,AUTO
         0 000232   200014 630500                    EPPR0   BCDCB$+1,,AUTO
         0 000233   000017 631400 xsym               EPPR1   B_VECTNIL+15
PL6.E3A0      #002=FMD$TRNC File=FMD$BUF.:E05TSI                                 TUE 07/29/97 16:39 Page:40
         0 000234   000000 701000 xent               TSX1    FMD$FLSHBUF
         0 000235   000000 011000                    NOP     0
         0 000236   000254 710000 0                  TRA     s:2588

      207     2581    4                    CASE (%TAPE#, %OD#); /* Optical Disk and Tape DCB  */

      208     2582    4                       CALL FTT$TRUNC;

   2582  0 000237   000002 631400 xsym               EPPR1   B_VECTNIL+2
         0 000240   000000 701000 xent               TSX1    FTT$TRUNC
         0 000241   000000 011000                    NOP     0
         0 000242   000254 710000 0                  TRA     s:2588

      209     2583    4                    CASE(%DEVICE#,%FPRGIASN#);

      210     2584    4                       CALL FMD$RELBUF(I);

   2584  0 000243   200005 633500                    EPPR3   I,,AUTO
         0 000244   200014 453500                    STP3    BCDCB$+1,,AUTO
         0 000245   200014 630500                    EPPR0   BCDCB$+1,,AUTO
         0 000246   000017 631400 xsym               EPPR1   B_VECTNIL+15
         0 000247   000000 701000 xent               TSX1    FMD$RELBUF
         0 000250   000000 011000                    NOP     0
         0 000251   000254 710000 0                  TRA     s:2588

      211     2585    4                    CASE(ELSE);

      212     2586    4                       CALL SC_FMD85;

   2586  0 000252   000000 713400 xsym               CLIMB   SC_FMD85
         0 000253   000000 600000 xsid               climb   nvectors=         0

      213     2587    4                 END;

      214     2588    3                 B$JIT.DCB$=JDCB$;         /* RESTORE DCB PTR                    */

   2588  0 000254   200003 236100                    LDQ     JDCB$,,AUTO
PL6.E3A0      #002=FMD$TRNC File=FMD$BUF.:E05TSI                                 TUE 07/29/97 16:39 Page:41
         0 000255   000000 470400 xsym               LDP0    B$JIT$
         0 000256   000232 756100                    STQ     154,,PR0

      215     2589    3                 RETURN;

   2589  0 000257   000000 702200 xent               TSX2  ! X66_ARET

      216     2590    3                 END;
      217     2591    2           END;

   2591  0 000260   200005 054100                    AOS     I,,AUTO
         0 000261   200005 235100                    LDA     I,,AUTO
         0 000262   000004 115007                    CMPA    4,DL
         0 000263   000165 604400 0                  TMOZ    s:2571

      218     2592
      219     2593        /*S*   SCREECH_CODE:  FMD-S$FM85
      220     2594        *      TYPE:   SUA
      221     2595        *      MESSAGE:  Can't find any pool buffers */
      222     2596    1          END FMD$TRNC;

   2596  0 000264   000000 702200 xent               TSX2  ! X66_ARET

(unnamed)
 Sect OctLoc
   1     000   000003 006000                                                    ....
      223     2597               %EOD;

PL6.E3A0      #002=FMD$TRNC File=FMD$BUF.:E05TSI                                 TUE 07/29/97 16:39 Page:42
--  Include file information  --

   CP_6_SUBS.:E05TOU  is referenced.
   FM_DATA_R.:E05TOU  cannot be made into a system file and is referenced.
   B_STRINGS_C.:E05TOU  is referenced.
   SS_SCHED_C.:E05TOU  is referenced.
   B_SEGIDS_C.:E05TOU  is referenced.
   M_INFO_C.:E05TOU  is referenced.
   B$MAP.:E05TOU  cannot be made into a system file and is referenced.
   B$ROSEG.:E05TOU  cannot be made into a system file and is referenced.
   F$DCB.:E05TOU  is referenced.
   B$JIT_C.:E05TOU  is referenced.
   B$JIT.:E05TOU  cannot be made into a system file and is referenced.
      No diagnostics issued in procedure FMD$TRNC.
PL6.E3A0      #002=FMD$TRNC File=FMD$BUF.:E05TSI                                 TUE 07/29/97 16:39 Page:43

 **** Variables and constants ****

  ****  Auto variables  ****

  ****  Scalars and arrays  ****
OctLoc.c.b A Datatyp(siz) R M Lvl/name                 OctLoc.c.b A Datatyp(siz) R M Lvl/name

    13-0-0/w STRC        r     1 BCDCB                     13-0-0/w PTR         r     1 BCDCB$
    11-0-0/w SBIN        r     1 DCBCNT                     5-0-0/w SBIN        r     1 I
     3-0-0/w PTR         r     1 JDCB$                      4-0-0/w SBIN        r     1 OLDAGE
    12-0-0/w SBIN        r     1 OLDAGE_WIO                 7-0-0/w PTR         r     1 PTRTBL$
     6-0-0/w PTR         r     1 SAVDCB$                   10-0-0/w PTR         r     1 TDCB$

  ****  SYMREF variables  ****

  ****  Scalars and arrays  ****
OctLoc.c.b A Datatyp(siz) R M Lvl/name                 OctLoc.c.b A Datatyp(siz) R M Lvl/name

     0-0-0/w PTR         r     1 B$JIT$                     0-0-0/w PTR         r     1 B$ROSEG$
     0-0-0/w SBIN        r     1 FM_TRUNC

  ****  BASED and DCB variables  ****

  ****  Scalars and arrays  ****
OctLoc.c.b A Datatyp(siz) R M Lvl/name                 OctLoc.c.b A Datatyp(siz) R M Lvl/name

     0-0-0/d STRC(8856)  r     1 B$JIT                      0-0-0/d STRC(3024)  r     1 B$ROSEG
     0-0-0/d ASTR(3528)  r     1 F$DCB                      0-0-0/w PTR         r     1 P$


   Procedure FMD$TRNC requires 181 words for executable code.
   Procedure FMD$TRNC requires 14 words of local(AUTO) storage.
PL6.E3A0      #002=FMD$TRNC File=FMD$BUF.:E05TSI                                 TUE 07/29/97 16:39 Page:44
          *** CROSS REFERENCE LISTING ***
**     DENOTES     IDENTIFIER DEFINITION
<<                 IDENTIFIER'S VALUE SET
>>                 IDENTIFIER'S VALUE USED
<>                 IDENTIFIER SET AND/OR USED
--                 IDENTIFIER REFERENCED
PL6.E3A0      #002=FMD$TRNC File=FMD$BUF.:E05TSI                                 TUE 07/29/97 16:39 Page:45
          MINI XREF LISTING

B$JIT.CPFLAGS1.SLEAZE
       470**DCL       470--REDEF
B$JIT.DCB$
       544**DCL      2513>>ASSIGN   2574<<ASSIGN   2588<<ASSIGN
B$JIT.ERR.MID
       377**DCL       377--REDEF
B$JIT.FBUC
       536**DCL      2564>>IF
B$JIT.JRESPEAK
       538**DCL       539--REDEF
B$JIT.ORIGINATOR_PORT.FROM_CR
       647**DCL       647--REDEF     648--REDEF
B$JIT.PNR
       551**DCL       551--REDEF
B$JIT.TSLINE
       645**DCL       646--REDEF
B$JIT$
        44**DCL       371--IMP-PTR  2513>>ASSIGN   2564>>IF       2574>>ASSIGN   2588>>ASSIGN
B$MAP.SCTRL
       809**DCL       810--REDEF
B$ROSEG.DCBPTR$
       714**DCL      2514>>ASSIGN
B$ROSEG.NUMDCBS
       716**DCL      2516>>ASSIGN
B$ROSEG$
        45**DCL      2514>>ASSIGN   2516>>ASSIGN
BCDCB.SID
        42**DCL      2567<<ASSIGN
BCDCB$
        39**DCL        40--REDEF    2518<<ASSIGN   2554<<ASSIGN   2562>>ASSIGN   2566<<ASSIGN   2568>>IF
      2569>>CALL
DCBCNT
PL6.E3A0      #002=FMD$TRNC File=FMD$BUF.:E05TSI                                 TUE 07/29/97 16:39 Page:46
        37**DCL      2516<<ASSIGN   2521>>DOWHILE  2557<<ASSIGN   2557>>ASSIGN
F$DCB.ACTPOS
      2487**DCL      2487--REDEF
F$DCB.AGE
      2506**DCL      2545>>IF       2546>>ASSIGN   2551>>IF       2553>>ASSIGN
F$DCB.ARS
      2462**DCL      2462--REDEF
F$DCB.ATTR
      2480**DCL      2481--REDEF
F$DCB.BFR.BUFX
      2507**DCL      2535>>IF       2571>>IF
F$DCB.BFR.CVM
      2507**DCL      2577>>IF
F$DCB.BFR1
      2507**DCL      2531>>IF
F$DCB.BORROW
      2495**DCL      2495--REDEF    2495--REDEF    2495--REDEF
F$DCB.CFU$
      2496**DCL      2529>>ASSIGN
F$DCB.DCBNAME.L
      2509**DCL      2509--IMP-SIZ
F$DCB.EOMCHAR
      2466**DCL      2466--REDEF
F$DCB.FCD
      2475**DCL      2526>>IF
F$DCB.FCN
      2499**DCL      2544>>IF       2568>>IF       2569<>CALL
F$DCB.FLDID
      2490**DCL      2490--REDEF
F$DCB.FORM$
      2484**DCL      2484--REDEF
F$DCB.FSECT
      2500**DCL      2500--REDEF
F$DCB.FSN
      2477**DCL      2477--REDEF    2477--REDEF    2478--REDEF
F$DCB.HEADER$
PL6.E3A0      #002=FMD$TRNC File=FMD$BUF.:E05TSI                                 TUE 07/29/97 16:39 Page:47
      2483**DCL      2483--REDEF
F$DCB.IASN
      2503**DCL      2528>>IF       2531>>IF       2575>>DOCASE
F$DCB.IXTNSIZE
      2481**DCL      2481--REDEF
F$DCB.LASTSTA$
      2471**DCL      2471--REDEF
F$DCB.LVL
      2496**DCL      2496--REDEF
F$DCB.NAME.C
      2471**DCL      2471--REDEF
F$DCB.NOEOF
      2492**DCL      2492--REDEF
F$DCB.NRECS
      2482**DCL      2482--REDEF
F$DCB.NRECX
      2501**DCL      2501--REDEF
F$DCB.OHDR
      2493**DCL      2493--REDEF
F$DCB.ORG
      2476**DCL      2476--REDEF
F$DCB.PRECNO
      2499**DCL      2499--REDEF
F$DCB.RCSZ
      2504**DCL      2504--REDEF
F$DCB.RES
      2472**DCL      2472--REDEF
F$DCB.SETX
      2484**DCL      2484--REDEF
F$DCB.TAB$
      2483**DCL      2484--REDEF
F$DCB.TDA
      2498**DCL      2498--REDEF
F$DCB.WSN
      2473**DCL      2473--REDEF
FMD$FLSHBUF
PL6.E3A0      #002=FMD$TRNC File=FMD$BUF.:E05TSI                                 TUE 07/29/97 16:39 Page:48
        23**DCL-ENT  2580--CALL
FMD$RELBUF
        24**DCL-ENT  2578--CALL     2584--CALL
FM_TRUNC
      1916**DCL      2573<<ASSIGN   2573>>ASSIGN
FTT$TRUNC
        25**DCL-ENT  2582--CALL
GOTONE
      2544**LABEL    2536--GOTO
I
        33**DCL      2534<<DOINDEX  2535>>IF       2570<<DOINDEX  2571>>IF       2577>>IF       2578<>CALL
      2580<>CALL     2584<>CALL
JDCB$
        31**DCL      2462--IMP-PTR  2513<<ASSIGN   2530>>IF       2531>>IF       2531>>IF       2588>>ASSIGN
NXTDCB
      2557**LABEL    2525--GOTO     2527--GOTO     2532--GOTO     2538--GOTO
OLDAGE
        32**DCL      2520<<ASSIGN   2545>>IF       2545>>IF       2546<<ASSIGN
OLDAGE_WIO
        38**DCL      2519<<ASSIGN   2551>>IF       2551>>IF       2553<<ASSIGN
P$
        29**DCL      2523>>ASSIGN
PTRTBL$
        35**DCL      2514<<ASSIGN   2522<<ASSIGN   2522>>ASSIGN   2523>>ASSIGN
SAVDCB$
        34**DCL      2517<<ASSIGN   2547<<ASSIGN   2562>>IF       2562<<ASSIGN   2563>>IF       2566>>ASSIGN
      2571>>IF       2574>>ASSIGN   2575>>DOCASE   2577>>IF
SC_FMD85
        26**DCL-ENT  2564--CALL     2586--CALL
SSR$REG
        27**DCL-ENT  2569--CALL
TDCB$
        36**DCL      2523<<ASSIGN   2524>>IF       2526>>IF       2528>>IF       2529<<ASSIGN   2529>>ASSIGN
      2530>>IF       2535>>IF       2544>>IF       2545>>IF       2546>>ASSIGN   2547>>ASSIGN   2551>>IF
      2553>>ASSIGN   2554>>ASSIGN
PL6.E3A0      #002=FMD$TRNC File=FMD$BUF.:E05TSI                                 TUE 07/29/97 16:39 Page:49
              *** CROSS REFERENCE LISTING ***
    **     DENOTES     IDENTIFIER DEFINITION
    <<                 IDENTIFIER'S VALUE SET
    >>                 IDENTIFIER'S VALUE USED
    <>                 IDENTIFIER SET AND/OR USED
    --                 IDENTIFIER REFERENCED
PL6.E3A0      #002=FMD$TRNC File=FMD$BUF.:E05TSI                                 TUE 07/29/97 16:39 Page:50
              MINI UREF LISTING

B$PAGE     858**DCL
B$ROAVAIL     753**DCL
B$RODCB$     750**DCL
B$SECT     848**DCL
B$UPT$      46**DCL
F$CFU$    1917**DCL
FM$BUF$      47**DCL
FM$SET$    1918**DCL
FMD$TRNC      21**PROC
FM_CFUWAIT    1917**DCL
FM_CFUWGRB    1917**DCL
FM_EOP    1915**DCL
FM_FRMAX    1914**DCL
FM_FRZERO    1914**DCL
FM_GCT    1918**DCL
FM_GIP    1918**DCL
FM_GPSDA    1915**DCL
FM_HASH    1916**DCL
FM_MADSDA    1915**DCL
FM_PADSDA    1915**DCL
FM_SRMAX    1914**DCL
FM_SRZERO    1914**DCL
FM_SYSACCTX    1918**DCL
FM_SYSSETX    1918**DCL
FM_WSQ    1916**DCL
F_CWLK    1917**DCL
F_CWUSER    1917**DCL
F_DCBLOCK    1916**DCL
MM$IPHY_MAP     863**DCL

PL6.E3A0      #003=FMD$RELBUF File=FMD$BUF.:E05TSI                               TUE 07/29/97 16:39 Page:51
      224        1        /*T***********************************************************/
      225        2        /*T*                                                         */
      226        3        /*T* Copyright (c) Bull HN Information Systems Inc., 1997    */
      227        4        /*T*                                                         */
      228        5        /*T***********************************************************/
      229        6        /*F*   NAME:   FMD$RELBUF
      230        7        *      PURPOSE:  Release a pool buffer belonging to a DCB.
      231        8        *      DESCRIPTION:  The buffer is written and/or stashed in the
      232        9        *    I/O cache and then released.                                            */
      233       10        /* */
      234       11        /*D*   NAME:   FMD$RELBUF
      235       12        *      CALL:   CALL FMD$RELBUF(BUFNUM)
      236       13        *      INTERFACE:  MMG$SFVP,FMD$FLSHBUF
      237       14        *      INPUT:  BUFNUM - DCB buffer number (0-4)
      238       15        *      OUTPUT: The appropriate DCB.BFR  entry is cleared except for
      239       16        *    DA, which is left alone.
      240       17        *      DESCRIPTION:  No action is taken if there is no buffer.
      241       18        *    Call FMD$FLSHBUF to write and/or stash the granule in the
      242       19        *    I/O cache.  Call MMG$SFVP to release the pages.  SCREECH if
      243       20        *    there was an error releasing the pages.  Zero all of the
      244       21        *    DCB.BFR  entry except DA.                                               */
      245       22                                                /*                                    */
      246       23        FMD$RELBUF: PROC(BUFNUM);
      247       24        /* PARAMETERS */
      248       25    1   DCL BUFNUM UBIN;
      249       26    1   DCL BUFNUM$ REDEF BUFNUM PTR;
      250       27        /* EXTERNAL PROCEDURES */
      251       28    1   DCL FMC$RELCACHE ENTRY(1);
      252       29    1   DCL MMJ$UNMAPIOP ENTRY(1);
      253       30    1   DCL MMJ$FFBUF ENTRY(2);
      254       31    1   DCL SC_FMD86 ENTRY CONV(2,0);
      255       32        /* LOCAL AUTOMATIC STORAGE */
      256       33    1   DCL JDCB$ PTR;
      257       34    1   DCL VPNO UBIN;
      258       35    1   DCL I UBIN;
      259       36    1   DCL ERR BIT(36);
      260       37        /* EXTERNAL DATA */
PL6.E3A0      #003=FMD$RELBUF File=FMD$BUF.:E05TSI                               TUE 07/29/97 16:39 Page:52
      261       38    1   DCL B$JIT$ PTR SYMREF;
      262       39    1   DCL FM_WSQ UBIN SYMREF;
      263       40    1   DCL FM$BUF$(0:31) PTR SYMREF;
      264       41        /* INCLUDE FILES */
      265       42        %INCLUDE F$JIT_C;
      266      472        %INCLUDE FM$MACROS;
      267      847        %MACRO F$DCB(BASED=BASED);
      268      848        %INCLUDE F$DCB;
      269      897        %MEND;
      270      898        %INCLUDE B_SEGIDS_C;
      271     1437        %INCLUDE M_INFO_C;
      272     1577        %FM$CFUJ;
      273     1582        /* BASED STRUCTURES */
      274     1583        %F$DCB (BASED="BASED(JDCB$)");
      275     1633                                                /*                                    */
      276     1634    1           IF BUFNUM>4 THEN
      277     1635    1           CALL SC_FMD86;                  /* BAD BUFFER NUMBER                  */
      278     1636    1           JDCB$=B$JIT$->B$JIT.DCB$;       /* POINTER TO CURRENT DCB             */
      279     1637    2           IF JDCB$->F$DCB.BFR1.CX(BUFNUM)~=0 THEN DO;
      280     1638    2              CALL FMC$RELCACHE(BUFNUM);   /* GET RID OF CVM'D BUFFER            */
      281     1639    2              RETURN;
      282     1640    2              END;
      283     1641    1           VPNO=F$DCB.BFR.BUFX(BUFNUM);    /* Buffer number                      */
      284     1642    1           IF VPNO=0 THEN RETURN;          /* DO NOTHING IF NO BUFFER            */
      285     1643    2           IF JDCB$->F$DCB.BFR.CVM(BUFNUM) THEN DO;
      286     1644    2              CALL MMJ$UNMAPIOP(VPNO);
      287     1645    2              END;
      288     1646    2           ELSE DO;
      289     1647    2              I=JDCB$->F$DCB.BFR1.SIZ(BUFNUM); /* # PAGES IN BUFFER              */
      290     1648    2              CALL MMJ$FFBUF(I,VPNO);
      291     1649    2              END;
      292     1650    1           JDCB$->F$DCB.BFR(BUFNUM)=JDCB$->F$DCB.BFR(BUFNUM)&'000777777777'O;
      293     1651    1           JDCB$->F$DCB.BFR1(BUFNUM)='0'B;
      294     1652    1           RETURN;
      295     1653                                                /*                                    */
      296     1654        /*S*   SCREECH_CODE:  FMD-S$FM86
      297     1655        *      TYPE:   SUA
PL6.E3A0      #003=FMD$RELBUF File=FMD$BUF.:E05TSI                               TUE 07/29/97 16:39 Page:53
      298     1656        *      MESSAGE:  Attempt to release a pool buffer that doesn't exist */
      299     1657        /* */
      300     1658    1   FMD$RBUF: ENTRY(BUFNUM);
      301     1659        /* */
      302     1660    1           IF BUFNUM$=ADDR(NIL) THEN
      303     1661    1              RETURN;
      304     1662    1           VPNO=POFFW(BUFNUM$,FM$BUF$(1))/1024+1;
      305     1663    1           IF VPNO > %FMSEGHI-%FMSEGLO+1 THEN
      306     1664    1           CALL SC_FMD86;                  /* Bad buffer pointer                 */
      307     1665    1           CALL MMJ$FFBUF(1, VPNO);
      308     1666    1           RETURN;
      309     1667        /**/
      310     1668    1   END FMD$RELBUF;
      311     1669        %EOD;

PL6.E3A0      #003=FMD$RELBUF File=FMD$BUF.:E05TSI                               TUE 07/29/97 16:39 Page:54
--  Include file information  --

   M_INFO_C.:E05TOU  is referenced.
   B_SEGIDS_C.:E05TOU  is referenced.
   F$DCB.:E05TOU  is referenced.
   FM$MACROS.:E05TOU  is referenced.
   B$JIT_C.:E05TOU  is referenced.
   F$JIT_C.:E05TOU  cannot be made into a system file and is referenced.
      No diagnostics issued in procedure FMD$RELBUF.

   Procedure FMD$RELBUF requires 88 words for executable code.
   Procedure FMD$RELBUF requires 10 words of local(AUTO) storage.

PL6.E3A0      #003=FMD$RELBUF File=FMD$BUF.:E05TSI                               TUE 07/29/97 16:39 Page:55

 Object Unit name= FMD$RELBUF                                 File name= FMD$BUF.:E05TOU
 UTS= JUL 29 '97 16:39:45.04 TUE                              Compiler= PL-6/E31         Sev=      00
 SharedLib= :SHARED_SYSTEM                                    Alt SharedLib=


    ****  Control sections  ****

 Sect   Type Bound  Init  Size OctSiz  Section name(segment info)
    0   Proc  even  none    88    130  FMD$RELBUF
    1  RoData even  none     1      1  FMD$RELBUF

    ****  Entry defs  ****

                              Check   Calling
                             calling  sequence
  Sect OctLoc Primary Altret sequence   type   Parms  Name
     0      0   yes            yes      Std        1  FMD$RELBUF
     0     73                  yes      Std        1  FMD$RBUF

  ****  Entry refs  ****

         Check        Calling
        calling       sequence
Altret sequence SRef   type   Args  Name
         yes           Std       1 FMC$RELCACHE
         yes           Std       1 MMJ$UNMAPIOP
         yes           Std       2 MMJ$FFBUF
                       Std       0 B_CONSPOOL_D
                       nStd      0 X66_AUTO_1
                       nStd      0 X66_ARET
PL6.E3A0      #003=FMD$RELBUF File=FMD$BUF.:E05TSI                               TUE 07/29/97 16:39 Page:56

  ****  Data refs  ****

  Flags:  r = read only, s = secondary
Flgs Name                             Flgs Name                             Flgs Name
     SC_FMD86                              B$JIT$                                FM$BUF$
     B_VECTNIL

  ****  Segment refs  ****

  Flags:  r = read only, s = secondary
Flgs Name                             Flgs Name                             Flgs Name
     ASLENTSID                             ISSID
PL6.E3A0      #003=FMD$RELBUF File=FMD$BUF.:E05TSI                               TUE 07/29/97 16:39 Page:57


      224        1        /*T***********************************************************/
      225        2        /*T*                                                         */
      226        3        /*T* Copyright (c) Bull HN Information Systems Inc., 1997    */
      227        4        /*T*                                                         */
      228        5        /*T***********************************************************/
      229        6        /*F*   NAME:   FMD$RELBUF
      230        7        *      PURPOSE:  Release a pool buffer belonging to a DCB.
      231        8        *      DESCRIPTION:  The buffer is written and/or stashed in the
      232        9        *    I/O cache and then released.                                            */
      233       10        /* */
      234       11        /*D*   NAME:   FMD$RELBUF
      235       12        *      CALL:   CALL FMD$RELBUF(BUFNUM)
      236       13        *      INTERFACE:  MMG$SFVP,FMD$FLSHBUF
      237       14        *      INPUT:  BUFNUM - DCB buffer number (0-4)
      238       15        *      OUTPUT: The appropriate DCB.BFR  entry is cleared except for
      239       16        *    DA, which is left alone.
      240       17        *      DESCRIPTION:  No action is taken if there is no buffer.
      241       18        *    Call FMD$FLSHBUF to write and/or stash the granule in the
      242       19        *    I/O cache.  Call MMG$SFVP to release the pages.  SCREECH if
      243       20        *    there was an error releasing the pages.  Zero all of the
      244       21        *    DCB.BFR  entry except DA.                                               */
      245       22                                                /*                                    */
      246       23        FMD$RELBUF: PROC(BUFNUM);

     23  0 000000   000000 700200 xent  FMD$RELBUF   TSX0  ! X66_AUTO_1
         0 000001   000012 000001                    ZERO    10,1

      247       24        /* PARAMETERS */
      248       25    1   DCL BUFNUM UBIN;
      249       26    1   DCL BUFNUM$ REDEF BUFNUM PTR;
      250       27        /* EXTERNAL PROCEDURES */
      251       28    1   DCL FMC$RELCACHE ENTRY(1);
      252       29    1   DCL MMJ$UNMAPIOP ENTRY(1);
      253       30    1   DCL MMJ$FFBUF ENTRY(2);
      254       31    1   DCL SC_FMD86 ENTRY CONV(2,0);
      255       32        /* LOCAL AUTOMATIC STORAGE */
PL6.E3A0      #003=FMD$RELBUF File=FMD$BUF.:E05TSI                               TUE 07/29/97 16:39 Page:58
      256       33    1   DCL JDCB$ PTR;
      257       34    1   DCL VPNO UBIN;
      258       35    1   DCL I UBIN;
      259       36    1   DCL ERR BIT(36);
      260       37        /* EXTERNAL DATA */
      261       38    1   DCL B$JIT$ PTR SYMREF;
      262       39    1   DCL FM_WSQ UBIN SYMREF;
      263       40    1   DCL FM$BUF$(0:31) PTR SYMREF;
      264       41        /* INCLUDE FILES */
      265       42        %INCLUDE F$JIT_C;
      266      472        %INCLUDE FM$MACROS;
      267      847        %MACRO F$DCB(BASED=BASED);
      268      848        %INCLUDE F$DCB;
      269      897        %MEND;
      270      898        %INCLUDE B_SEGIDS_C;
      271     1437        %INCLUDE M_INFO_C;
      272     1577        %FM$CFUJ;
      273     1582        /* BASED STRUCTURES */
      274     1583        %F$DCB (BASED="BASED(JDCB$)");
      275     1633                                                /*                                    */
      276     1634    1           IF BUFNUM>4 THEN

   1634  0 000002   200003 470500                    LDP0    @BUFNUM,,AUTO
         0 000003   000000 235100                    LDA     0,,PR0
         0 000004   000005 115007                    CMPA    5,DL
         0 000005   000010 602000 0                  TNC     s:1636

      277     1635    1           CALL SC_FMD86;                  /* BAD BUFFER NUMBER                  */

   1635  0 000006   000000 713400 xsym               CLIMB   SC_FMD86
         0 000007   000000 600000 xsid               climb   nvectors=         0

      278     1636    1           JDCB$=B$JIT$->B$JIT.DCB$;       /* POINTER TO CURRENT DCB             */

   1636  0 000010   000000 470400 xsym               LDP0    B$JIT$
         0 000011   000232 236100                    LDQ     154,,PR0
         0 000012   200004 756100                    STQ     JDCB$,,AUTO
PL6.E3A0      #003=FMD$RELBUF File=FMD$BUF.:E05TSI                               TUE 07/29/97 16:39 Page:59

      279     1637    2           IF JDCB$->F$DCB.BFR1.CX(BUFNUM)~=0 THEN DO;

   1637  0 000013   200003 471500                    LDP1    @BUFNUM,,AUTO
         0 000014   100000 720100                    LXL0    0,,PR1
         0 000015   200004 473500                    LDP3    JDCB$,,AUTO
         0 000016   300122 721110                    LXL1    82,X0,PR3
         0 000017   000025 600000 0                  TZE     s:1641

      280     1638    2              CALL FMC$RELCACHE(BUFNUM);   /* GET RID OF CVM'D BUFFER            */

   1638  0 000020   200003 630500                    EPPR0   @BUFNUM,,AUTO
         0 000021   000017 631400 xsym               EPPR1   B_VECTNIL+15
         0 000022   000000 701000 xent               TSX1    FMC$RELCACHE
         0 000023   000000 011000                    NOP     0

      281     1639    2              RETURN;

   1639  0 000024   000000 702200 xent               TSX2  ! X66_ARET

      282     1640    2              END;
      283     1641    1           VPNO=F$DCB.BFR.BUFX(BUFNUM);    /* Buffer number                      */

   1641  0 000025   300115 236110                    LDQ     77,X0,PR3
         0 000026   000033 772000                    QRL     27
         0 000027   000037 376007                    ANQ     31,DL
         0 000030   200005 756100                    STQ     VPNO,,AUTO

      284     1642    1           IF VPNO=0 THEN RETURN;          /* DO NOTHING IF NO BUFFER            */

   1642  0 000031   000033 601000 0                  TNZ     s:1643

   1642  0 000032   000000 702200 xent               TSX2  ! X66_ARET

      285     1643    2           IF JDCB$->F$DCB.BFR.CVM(BUFNUM) THEN DO;

   1643  0 000033   100000 720100                    LXL0    0,,PR1
PL6.E3A0      #003=FMD$RELBUF File=FMD$BUF.:E05TSI                               TUE 07/29/97 16:39 Page:60
         0 000034   300115 236110                    LDQ     77,X0,PR3
         0 000035   040000 316003                    CANQ    16384,DU
         0 000036   000046 600000 0                  TZE     s:1647

      286     1644    2              CALL MMJ$UNMAPIOP(VPNO);

   1644  0 000037   200005 634500                    EPPR4   VPNO,,AUTO
         0 000040   200010 454500                    STP4    I+2,,AUTO
         0 000041   200010 630500                    EPPR0   I+2,,AUTO
         0 000042   000017 631400 xsym               EPPR1   B_VECTNIL+15
         0 000043   000000 701000 xent               TSX1    MMJ$UNMAPIOP
         0 000044   000000 011000                    NOP     0

      287     1645    2              END;

   1645  0 000045   000062 710000 0                  TRA     s:1650

      288     1646    2           ELSE DO;

      289     1647    2              I=JDCB$->F$DCB.BFR1.SIZ(BUFNUM); /* # PAGES IN BUFFER              */

   1647  0 000046   300122 236110                    LDQ     82,X0,PR3
         0 000047   000022 772000                    QRL     18
         0 000050   000777 376007                    ANQ     511,DL
         0 000051   200006 756100                    STQ     I,,AUTO

      290     1648    2              CALL MMJ$FFBUF(I,VPNO);

   1648  0 000052   200005 634500                    EPPR4   VPNO,,AUTO
         0 000053   200011 454500                    STP4    I+3,,AUTO
         0 000054   200006 635500                    EPPR5   I,,AUTO
         0 000055   200010 455500                    STP5    I+2,,AUTO
         0 000056   200010 630500                    EPPR0   I+2,,AUTO
         0 000057   000020 631400 xsym               EPPR1   B_VECTNIL+16
         0 000060   000000 701000 xent               TSX1    MMJ$FFBUF
         0 000061   000000 011000                    NOP     0

PL6.E3A0      #003=FMD$RELBUF File=FMD$BUF.:E05TSI                               TUE 07/29/97 16:39 Page:61
      291     1649    2              END;

      292     1650    1           JDCB$->F$DCB.BFR(BUFNUM)=JDCB$->F$DCB.BFR(BUFNUM)&'000777777777'O;

   1650  0 000062   200003 470500                    LDP0    @BUFNUM,,AUTO
         0 000063   000000 720100                    LXL0    0,,PR0
         0 000064   200004 471500                    LDP1    JDCB$,,AUTO
         0 000065   100115 236110                    LDQ     77,X0,PR1
         0 000066   000032 376000 xsym               ANQ     B_VECTNIL+26
         0 000067   100115 756110                    STQ     77,X0,PR1

      293     1651    1           JDCB$->F$DCB.BFR1(BUFNUM)='0'B;

   1651  0 000070   000000 720100                    LXL0    0,,PR0
         0 000071   100122 450110                    STZ     82,X0,PR1

      294     1652    1           RETURN;

   1652  0 000072   000000 702200 xent               TSX2  ! X66_ARET

      295     1653                                                /*                                    */
      296     1654        /*S*   SCREECH_CODE:  FMD-S$FM86
      297     1655        *      TYPE:   SUA
      298     1656        *      MESSAGE:  Attempt to release a pool buffer that doesn't exist */
      299     1657        /* */
      300     1658    1   FMD$RBUF: ENTRY(BUFNUM);

   1658  0 000073   000000 700200 xent  FMD$RBUF     TSX0  ! X66_AUTO_1
         0 000074   000012 000001                    ZERO    10,1

      301     1659        /* */
      302     1660    1           IF BUFNUM$=ADDR(NIL) THEN

   1660  0 000075   200003 470500                    LDP0    @BUFNUM,,AUTO
         0 000076   000000 236100                    LDQ     0,,PR0
         0 000077   000001 116000 xsym               CMPQ    B_VECTNIL+1
         0 000100   000102 601000 0                  TNZ     s:1662
PL6.E3A0      #003=FMD$RELBUF File=FMD$BUF.:E05TSI                               TUE 07/29/97 16:39 Page:62

      303     1661    1              RETURN;

   1661  0 000101   000000 702200 xent               TSX2  ! X66_ARET

      304     1662    1           VPNO=POFFW(BUFNUM$,FM$BUF$(1))/1024+1;

   1662  0 000102   000001 235000 xsym               LDA     FM$BUF$+1
         0 000103   000022 771000                    ARL     18
         0 000104   200010 755100                    STA     I+2,,AUTO
         0 000105   000000 236100                    LDQ     0,,PR0
         0 000106   000022 772000                    QRL     18
         0 000107   200010 136100                    SBLQ    I+2,,AUTO
         0 000110   002000 506007                    DIV     1024,DL
         0 000111   000001 036007                    ADLQ    1,DL
         0 000112   200005 756100                    STQ     VPNO,,AUTO

      305     1663    1           IF VPNO > %FMSEGHI-%FMSEGLO+1 THEN

   1663  0 000113   000040 116007                    CMPQ    32,DL
         0 000114   000117 602000 0                  TNC     s:1665

      306     1664    1           CALL SC_FMD86;                  /* Bad buffer pointer                 */

   1664  0 000115   000000 713400 xsym               CLIMB   SC_FMD86
         0 000116   000000 600000 xsid               climb   nvectors=         0

      307     1665    1           CALL MMJ$FFBUF(1, VPNO);

   1665  0 000117   200005 630500                    EPPR0   VPNO,,AUTO
         0 000120   200011 450500                    STP0    I+3,,AUTO
         0 000121   000000 236000 1                  LDQ     0
         0 000122   200010 756100                    STQ     I+2,,AUTO
         0 000123   200010 630500                    EPPR0   I+2,,AUTO
         0 000124   000020 631400 xsym               EPPR1   B_VECTNIL+16
         0 000125   000000 701000 xent               TSX1    MMJ$FFBUF
         0 000126   000000 011000                    NOP     0
PL6.E3A0      #003=FMD$RELBUF File=FMD$BUF.:E05TSI                               TUE 07/29/97 16:39 Page:63

      308     1666    1           RETURN;

   1666  0 000127   000000 702200 xent               TSX2  ! X66_ARET

(unnamed)
 Sect OctLoc
   1     000   000003 006000                                                    ....
      309     1667        /**/
      310     1668    1   END FMD$RELBUF;
      311     1669        %EOD;

PL6.E3A0      #003=FMD$RELBUF File=FMD$BUF.:E05TSI                               TUE 07/29/97 16:39 Page:64
--  Include file information  --

   M_INFO_C.:E05TOU  is referenced.
   B_SEGIDS_C.:E05TOU  is referenced.
   F$DCB.:E05TOU  is referenced.
   FM$MACROS.:E05TOU  is referenced.
   B$JIT_C.:E05TOU  is referenced.
   F$JIT_C.:E05TOU  cannot be made into a system file and is referenced.
      No diagnostics issued in procedure FMD$RELBUF.
PL6.E3A0      #003=FMD$RELBUF File=FMD$BUF.:E05TSI                               TUE 07/29/97 16:39 Page:65

 **** Variables and constants ****

  ****  Auto variables  ****

  ****  Scalars and arrays  ****
OctLoc.c.b A Datatyp(siz) R M Lvl/name                 OctLoc.c.b A Datatyp(siz) R M Lvl/name

     3-0-0/w PTR         r     1 @BUFNUM                   *0-0-0/w UBIN        r     1 BUFNUM
    *0-0-0/w PTR         r     1 BUFNUM$                    6-0-0/w UBIN        r     1 I
     4-0-0/w PTR         r     1 JDCB$                      5-0-0/w UBIN        r     1 VPNO

  ****  SYMREF variables  ****

  ****  Scalars and arrays  ****
OctLoc.c.b A Datatyp(siz) R M Lvl/name                 OctLoc.c.b A Datatyp(siz) R M Lvl/name

     0-0-0/w PTR         r     1 B$JIT$                     0-0-0/w PTR         r     1 FM$BUF$(0:31)

  ****  BASED and DCB variables  ****

  ****  Scalars and arrays  ****
OctLoc.c.b A Datatyp(siz) R M Lvl/name                 OctLoc.c.b A Datatyp(siz) R M Lvl/name

     0-0-0/d STRC(8856)  r     1 B$JIT                      0-0-0/d ASTR(3528)  r     1 F$DCB


   Procedure FMD$RELBUF requires 88 words for executable code.
   Procedure FMD$RELBUF requires 10 words of local(AUTO) storage.
PL6.E3A0      #003=FMD$RELBUF File=FMD$BUF.:E05TSI                               TUE 07/29/97 16:39 Page:66
          *** CROSS REFERENCE LISTING ***
**     DENOTES     IDENTIFIER DEFINITION
<<                 IDENTIFIER'S VALUE SET
>>                 IDENTIFIER'S VALUE USED
<>                 IDENTIFIER SET AND/OR USED
--                 IDENTIFIER REFERENCED
PL6.E3A0      #003=FMD$RELBUF File=FMD$BUF.:E05TSI                               TUE 07/29/97 16:39 Page:67
          MINI XREF LISTING

B$JIT.DCB$
       459**DCL      1636>>ASSIGN
B$JIT.ERR.MID
       370**DCL       370--REDEF
B$JIT$
        38**DCL       364--IMP-PTR  1636>>ASSIGN
BUFNUM
        25**DCL        23--PROC       26--REDEF    1634>>IF       1637>>IF       1638<>CALL     1641>>ASSIGN
      1643>>IF       1647>>ASSIGN   1650>>ASSIGN   1650>>ASSIGN   1651>>ASSIGN   1658--ENTRY
BUFNUM$
        26**DCL      1660>>IF       1662>>ASSIGN
F$DCB.ACTPOS
      1609**DCL      1609--REDEF
F$DCB.ARS
      1584**DCL      1584--REDEF
F$DCB.ATTR
      1602**DCL      1603--REDEF
F$DCB.BFR
      1628**DCL      1650<<ASSIGN   1650>>ASSIGN
F$DCB.BFR.BUFX
      1629**DCL      1641>>ASSIGN
F$DCB.BFR.CVM
      1629**DCL      1643>>IF
F$DCB.BFR1
      1629**DCL      1651<<ASSIGN
F$DCB.BFR1.CX
      1630**DCL      1637>>IF
F$DCB.BFR1.SIZ
      1629**DCL      1647>>ASSIGN
F$DCB.BORROW
      1617**DCL      1617--REDEF    1617--REDEF    1617--REDEF
F$DCB.DCBNAME.L
PL6.E3A0      #003=FMD$RELBUF File=FMD$BUF.:E05TSI                               TUE 07/29/97 16:39 Page:68
      1631**DCL      1631--IMP-SIZ
F$DCB.EOMCHAR
      1588**DCL      1588--REDEF
F$DCB.FLDID
      1612**DCL      1612--REDEF
F$DCB.FORM$
      1606**DCL      1606--REDEF
F$DCB.FSECT
      1622**DCL      1622--REDEF
F$DCB.FSN
      1599**DCL      1599--REDEF    1599--REDEF    1600--REDEF
F$DCB.HEADER$
      1605**DCL      1605--REDEF
F$DCB.IXTNSIZE
      1603**DCL      1603--REDEF
F$DCB.LASTSTA$
      1593**DCL      1593--REDEF
F$DCB.LVL
      1618**DCL      1618--REDEF
F$DCB.NAME.C
      1593**DCL      1593--REDEF
F$DCB.NOEOF
      1614**DCL      1614--REDEF
F$DCB.NRECS
      1604**DCL      1604--REDEF
F$DCB.NRECX
      1623**DCL      1623--REDEF
F$DCB.OHDR
      1615**DCL      1615--REDEF
F$DCB.ORG
      1598**DCL      1598--REDEF
F$DCB.PRECNO
      1621**DCL      1621--REDEF
F$DCB.RCSZ
      1626**DCL      1626--REDEF
F$DCB.RES
PL6.E3A0      #003=FMD$RELBUF File=FMD$BUF.:E05TSI                               TUE 07/29/97 16:39 Page:69
      1594**DCL      1594--REDEF
F$DCB.SETX
      1606**DCL      1606--REDEF
F$DCB.TAB$
      1605**DCL      1606--REDEF
F$DCB.TDA
      1620**DCL      1620--REDEF
F$DCB.WSN
      1595**DCL      1595--REDEF
FM$BUF$
        40**DCL      1662>>ASSIGN
FMC$RELCACHE
        28**DCL-ENT  1638--CALL
I
        35**DCL      1647<<ASSIGN   1648<>CALL
JDCB$
        33**DCL      1584--IMP-PTR  1636<<ASSIGN   1637>>IF       1641>>ASSIGN   1643>>IF       1647>>ASSIGN
      1650>>ASSIGN   1650>>ASSIGN   1651>>ASSIGN
MMJ$FFBUF
        30**DCL-ENT  1648--CALL     1665--CALL
MMJ$UNMAPIOP
        29**DCL-ENT  1644--CALL
SC_FMD86
        31**DCL-ENT  1635--CALL     1664--CALL
VPNO
        34**DCL      1641<<ASSIGN   1642>>IF       1644<>CALL     1648<>CALL     1662<<ASSIGN   1663>>IF
      1665<>CALL
PL6.E3A0      #003=FMD$RELBUF File=FMD$BUF.:E05TSI                               TUE 07/29/97 16:39 Page:70
              *** CROSS REFERENCE LISTING ***
    **     DENOTES     IDENTIFIER DEFINITION
    <<                 IDENTIFIER'S VALUE SET
    >>                 IDENTIFIER'S VALUE USED
    <>                 IDENTIFIER SET AND/OR USED
    --                 IDENTIFIER REFERENCED
PL6.E3A0      #003=FMD$RELBUF File=FMD$BUF.:E05TSI                               TUE 07/29/97 16:39 Page:71
              MINI UREF LISTING

ERR      36**DCL
FM$CFUJ    1578**DCL
FMD$RBUF    1658**ENTRY
FMD$RELBUF      23**PROC
FM_WSQ      39**DCL

PL6.E3A0      #004=FMD$REDBUF File=FMD$BUF.:E05TSI                               TUE 07/29/97 16:39 Page:72
      312        1        /*T***********************************************************/
      313        2        /*T*                                                         */
      314        3        /*T* Copyright (c) Bull HN Information Systems Inc., 1997    */
      315        4        /*T*                                                         */
      316        5        /*T***********************************************************/
      317        6        /* */
      318        7        /*F*   NAME:   FMD$REDBUF
      319        8               PURPOSE:  Read and verify the header of all managed granules          */
      320        9        /* */
      321       10        /*D*   NAME:   FMD$REDBUF
      322       11        *              CALL FMD$REDBUF(BUF$,BUFNUM,DA,,LCDA,EFLG) ALTRET(LOC);
      323       12               INTERFACE:  FMB$QUEUE,FMD$FLSHBUF,FMD$GETBUF,FMD$RELBUF,
      324       13                           FMC$IOCGET,FMB$LOGERR,FMB$CHKDA,FAF$CHKDAFR
      325       14               INPUT:  BUFNUM - DCB buffer number (0-4) to read into
      326       15                       DA - Disk address to read
      327       16                       LCDA - Disk address for link check (-1 if no check)
      328       17                       EFLG - Type of errlog entry to make in case of
      329       18                                fatal error.  Zero or absence of parameter
      330       19                                means to log fatal error.  -1 means to log
      331       20                                no error.  1 means to log fast path error.
      332       21                       DCB fields that must be set:
      333       22                         GTYP - Set to indicate type of granule being read
      334       23                         LVL - Level # (files only)
      335       24                         ORG - File organization (files only)
      336       25                         HASH - FD and files only
      337       26               OUTPUT: BUF$ - Pointer to buffer
      338       27                       Normal return if no error,
      339       28                       ALTRET if I/O error or header verification failure.
      340       29                       JIT.ERR set if ALTRET
      341       30                 DESCRIPTION:
      342       31
      343       32                      First, check the buffer table to see if we already
      344       33                 have the buffer.  If we do, do the verification.  Next,
      345       34                 try the FMC routines to see if we can get a cached buffer.
      346       35                 FMC$NOCACHE is called when the user wants a buffer that
      347       36                 he can muck with that is not in the cache table.
      348       37
PL6.E3A0      #004=FMD$REDBUF File=FMD$BUF.:E05TSI                               TUE 07/29/97 16:39 Page:73
      349       38                      If all else fails, then try reading the granule up
      350       39                 to four times.  Do some clean up, log any errors we might
      351       40                 have found, then return.
      352       41        */
      353       42                 %EJECT;
PL6.E3A0      #004=FMD$REDBUF File=FMD$BUF.:E05TSI                               TUE 07/29/97 16:39 Page:74
      354       43                                                /*                                    */
      355       44        FMD$REDBUF: PROC(BUF$,BUFNUM,DA,DDA,LCDA,EFLG) ALTRET;
      356       45        /* PARAMETERS */
      357       46    1   DCL BUF$ PTR;
      358       47    1   DCL BUFNUM UBIN;
      359       48    1   DCL DA UBIN;
      360       49    1   DCL DDA UBIN;
      361       50    1   DCL LCDA SBIN;
      362       51    1   DCL EFLG SBIN;
      363       52        /* EXTERNAL ROUTINES */
      364       53    1   DCL FMD$FLSHBUF ENTRY(1);
      365       54    1   DCL FMD$FLSHBUFNR ENTRY(1);
      366       55    1   DCL FMD$WRTSV ENTRY(1);
      367       56    1   DCL FMD$GETBUF ENTRY(3);
      368       57    1   DCL FMC$GET ENTRY(4) ALTRET;
      369       58    1   DCL FMC$NOCACHE ENTRY(4) ALTRET;
      370       59    1   DCL FMC$FINISH ENTRY(4) ALTRET;
      371       60    1   DCL FMB$QUEUE ENTRY(9) ALTRET;
      372       61    1   DCL FMB$CHKDA ENTRY(1) ALTRET;
      373       62    1   DCL FAF$CHKDAFR ENTRY(1) ALTRET;
      374       63    1   DCL FMD$RELBUF ENTRY(1);
      375       64    1   DCL FMB$LOGERR ENTRY(11);
      376       65    1   DCL FMB$ERRTYP ENTRY(1);
      377       66    1   DCL FMO$FDHASH ENTRY(2);
      378       67    1   DCL NIQ$GET ENTRY(1) ALTRET;
      379       68    1   DCL NIQ$REL ENTRY(1) ALTRET;
      380       69    1   DCL SC_FMD87 ENTRY CONV(2,0);
      381       70    1   DCL SC_FMD100 ENTRY CONV(2,0);
      382       71        /* LOCAL AUTOMATIC STORAGE */
      383       72    1   DCL JDCB$ PTR;
      384       73    1   DCL TDA UBIN;
      385       74    1   DCL RETRY SBIN;
      386       75    1   DCL RREAD SBIN;
      387       76    1   DCL ERRNUM UBIN;
      388       77    1   DCL CODE UBIN;
      389       78    1   DCL 1 STAMP,
      390       79    1         2 HASH UBIN(27) UNAL,
PL6.E3A0      #004=FMD$REDBUF File=FMD$BUF.:E05TSI                               TUE 07/29/97 16:39 Page:75
      391       80    1         2 GMOD UBIN(9) UNAL;
      392       81    1   DCL STMPUBIN REDEF STAMP UBIN;
      393       82    1   DCL BFR1X UBIN;
      394       83    1   DCL BFR2X UBIN;
      395       84    1   DCL BFR3X UBIN;
      396       85    1   DCL MISC SBIN;
      397       86    1   DCL FLAG SBIN;
      398       87    1   DCL 1 SAVBUF,
      399       88    1         2 *(0:4) UBIN;
      400       89    1   DCL 1 SAVQ,
      401       90    1         2 STATUS BIT(36),
      402       91    1         2 REQID UBIN,
      403       92    1         2 TYC BIT(36);
      404       93    1   DCL BCFLG SBIN;
      405       94    1   DCL GTYP UBIN;
      406       95    1   DCL Q$ PTR;
      407       96    1   DCL T$ PTR;
      408       97        /* EXTERNAL DATA */
      409       98    1   DCL B$JIT$ PTR SYMREF;
      410       99    1   DCL FM$BUF$(0:0) PTR SYMREF;
      411      100        /* INCLUDE FILES */
      412      101        %INCLUDE F$JIT_C;
      413      531        %MACRO F$DCB(BASED=BASED);
      414      532        %INCLUDE F$DCB;
      415      581        %MEND;
      416      582        %INCLUDE FM$MACROS;
      417      957        %INCLUDE FM_DATA_R;
      418      971        %INCLUDE FM_CACHE_R;
      419      983        %INCLUDE FM_CACHE_C;
      420     1049        %INCLUDE F_ERRORS_C;
      421     1289        %INCLUDE N_FC_C;
      422     1326        %INCLUDE N$REQ;
      423     1400        %INCLUDE CP_6_SUBS;
      424     1940        /* SUBSTITUTIONS */
      425     1941        %SUB FCG#='0615'O;
      426     1942        %SUB MID#='04'O;
      427     1943        /* CONSTANT STORAGE */
PL6.E3A0      #004=FMD$REDBUF File=FMD$BUF.:E05TSI                               TUE 07/29/97 16:39 Page:76
      428     1944    1   DCL BFRTBL1(0:10) UBIN(3) CONSTANT INIT(0,0,0,0,0,0,0,0,1,1,1);
      429     1945    1   DCL BFRTBL2(0:10) UBIN(3) CONSTANT INIT(0,1,1,1,1,1,1,1,3,5,3);
      430     1946    1   DCL BFRTBL3(0:10) UBIN(3) CONSTANT INIT(0,2,2,2,2,2,2,2,4,6,4);
      431     1947    1   DCL ZAPBUF(0:4) CONSTANT BIT(36)
      432     1948    1       INIT('111111111111'O,'222222222222'O,'333333333333'O,
      433     1949    1            '444444444444'O,'555555555555'O);
      434     1950        %ERRCODE (NAME=ERRWD,COD#=0);
      435     1954        %ERRCODE (NAME=ERRDI,COD#=%E$DI);
      436     1958        /* BASED STRUCTURES */
      437     1959        %F$DCB  (BASED="BASED(JDCB$)");
      438     2009        %FM$CFU;
      439     2015        %FMC$CACHE;
      440     2038        %FM$GRAN (BASED="BASED(BUF$)");
      441     2042        %N$REQ (STCLASS="BASED(Q$)");
      442     2100    1   DCL WRD SBIN BASED ALIGNED;
      443     2101    1   DCL SDA UBIN WORD;
      444     2102        /* */
      445     2103    1          BCFLG=0;
      446     2104    1          GOTO COMMON;
      447     2105    1   FMD$REDBUFBC: ENTRY(BUF$, BUFNUM, DA, DDA, LCDA, EFLG) ALTRET;
      448     2106    1          BCFLG=1;
      449     2107
      450     2108    1   COMMON: ;
      451     2109        /* */
      452     2110    1          JDCB$=B$JIT.DCB$;               /* POINTER TO CURRENT DCB             */
      453     2111    1          Q$=ADDR(NIL);
      454     2112    1          SDA = DA;                       /* SAVE DA IN SDA                     */
      455     2113    1          GTYP=F$DCB.GTYP;
      456     2114    1          IF BUFNUM>4 THEN
      457     2115    1             CALL SC_FMD87;
      458     2116        /*S*  SCREECH_CODE:  FMD-S$FM87
      459     2117              TYPE:   SUA
      460     2118              MESSAGE:  Illegal arguments to FMD$REDBUF */
      461     2119                                                /*                                    */
      462     2120    1          IF GTYP=FMGTFILE THEN           /* File-relative disk address         */
      463     2121    2             DO;
      464     2122    2             IF DA > FM_FRMAX THEN
PL6.E3A0      #004=FMD$REDBUF File=FMD$BUF.:E05TSI                               TUE 07/29/97 16:39 Page:77
      465     2123    3                DO;
      466     2124    3                CALL LOGERR(1);
      467     2125    3                ALTRETURN;
      468     2126    3                END;
      469     2127    2             END;
      470     2128    1          ELSE
      471     2129    2             DO;
      472     2130    2             IF DA < FM_SRZERO THEN
      473     2131    3                DO;
      474     2132    3                CALL LOGERR(1);
      475     2133    3                ALTRETURN;
      476     2134    3                END;
      477     2135    2             END;
      478     2136                                                /*                                    */
      479     2137    1          IF F$DCB.BFR.BUFX(BUFNUM)~=0 AND F$DCB.BFR.DA(BUFNUM)=DA THEN
      480     2138    2             DO;
      481     2139    2             RETRY=5;
      482     2140    2             CALL VERIFY ALTRET(READBUF);
      483     2141    2             GOTO DONE;
      484     2142    2             END;
      485     2143        /* */
      486     2144    2          DO BFR1X=0 TO 4;
      487     2145    2             IF F$DCB.BFR.DA(BFR1X)=DA AND F$DCB.BFR.BUFX(BFR1X)~=0 THEN
      488     2146    3                DO;
      489     2147    3                CALL FMD$FLSHBUF(BUFNUM); /* Release any old buffer             */
      490     2148    3                F$DCB.BFR(BUFNUM)=F$DCB.BFR(BFR1X); /* Move FIT                 */
      491     2149    3                F$DCB.BFR1(BUFNUM)=F$DCB.BFR1(BFR1X);
      492     2150    3                F$DCB.BFR(BFR1X)='0'B;
      493     2151    3                F$DCB.BFR1(BFR1X)='0'B;
      494     2152    3                RETRY=6;                  /* Flag for buffer already in         */
      495     2153    3                CALL VERIFY ALTRET(READBUF);
      496     2154    3                GOTO DONE;
      497     2155    3                END;
      498     2156    2          END;
      499     2157        /* */
      500     2158    1          RETRY=7;
      501     2159    1          IF BCFLG = 0 THEN
PL6.E3A0      #004=FMD$REDBUF File=FMD$BUF.:E05TSI                               TUE 07/29/97 16:39 Page:78
      502     2160    1             CALL FMC$GET(BUF$, BUFNUM, DA, FLAG) ALTRET(ERR1);
      503     2161    1          ELSE
      504     2162    1             CALL FMC$NOCACHE(BUF$, BUFNUM, DA, FLAG) ALTRET(ERR1);
      505     2163    1          IF FLAG > 0 THEN
      506     2164    2             DO;
      507     2165    2             CALL VERIFY ALTRET(READBUF);
      508     2166    2             END;
      509     2167    1          ELSE
      510     2168    2             DO;
      511     2169    2   READBUF:  RETRY=4;
      512     2170    2             CALL FMD$FLSHBUFNR(BUFNUM);
      513     2171    3             DO UNTIL (RREAD = 0 OR RETRY = 0);
      514     2172    3                RREAD=0;
      515     2173    3                IF F$DCB.BFR.BUFX(BUFNUM) = 0 THEN
      516     2174    3                   CALL FMD$GETBUF(BUFNUM, 1, BUF$);
      517     2175    3                ELSE
      518     2176    3                   BUF$=FM$BUF$(F$DCB.BFR.BUFX(BUFNUM));
      519     2177    3                FM$GRAN=ZAPBUF;           /* Zap buffer contents                */
      520     2178    3                IF Q$~=ADDR(NIL) THEN
      521     2179    4                   DO;
      522     2180    4                   CALL NIQ$REL(Q$);
      523     2181    4                   Q$=ADDR(NIL);
      524     2182    4                   END;
      525     2183    3                CALL FMB$QUEUE(BUF$,1,4096,SDA,%N_RDBIN,-1,
      526     2184    3                   ENTADDR(NIL),0,Q$) ALTRET(ERR1);
      527     2185    3                IF N$REQ.TYC~='1'B THEN
      528     2186    4                   DO;   /* I/O ERROR */
      529     2187    4                   CALL LOGERR(2);
      530     2188    4                   END;  /* I/O ERROR */
      531     2189    3                ELSE
      532     2190    3                   CALL VERIFY;
      533     2191    3                END;
      534     2192    2             END;
      535     2193
      536     2194    1          IF RREAD = 1 AND RETRY = 0 THEN
      537     2195    2             DO;   /* CANT GET A GOOD GRAN */
      538     2196    2             GOTO ERR;
PL6.E3A0      #004=FMD$REDBUF File=FMD$BUF.:E05TSI                               TUE 07/29/97 16:39 Page:79
      539     2197    2             END;
      540     2198
      541     2199    1   DONE:  F$DCB.BFR.DA(BUFNUM)=DA;
      542     2200    1          IF RETRY<4 THEN
      543     2201    2             DO;
      544     2202    2             T$=Q$;                       /* Save current request packet        */
      545     2203    2             CALL NIQ$GET(Q$);
      546     2204    2             N$REQ.STATUS=SAVQ.STATUS;
      547     2205    2             N$REQ.TYC=SAVQ.TYC;
      548     2206    2             N$REQ.REQID=SAVQ.REQID;
      549     2207    2             CALL FMB$LOGERR(CODE,ERRNUM,1,DA,ADDR(SAVBUF),BFR1X,BFR2X,
      550     2208    2                BFR3X,MISC,,Q$);
      551     2209    2             CALL NIQ$REL(Q$);
      552     2210    2             Q$=ADDR(NIL);
      553     2211    2             CALL FMB$LOGERR(CODE,ERRNUM,2,DA,BUF$,BFR1X,BFR2X,BFR3X,
      554     2212    2                4-RETRY,,T$);
      555     2213    2             CALL NIQ$REL(T$);
      556     2214    2             END;
      557     2215    1          ELSE
      558     2216    1             IF Q$~=ADDR(NIL) THEN
      559     2217    1                CALL NIQ$REL(Q$);
      560     2218
      561     2219    1             RETURN;
      562     2220    1   ERR1:     CALL LOGERR(1);
      563     2221    1   ERR:   IF Q$ ~= ADDR(NIL) THEN
      564     2222    1             CALL NIQ$REL(Q$);
      565     2223    1          ALTRETURN;
      566     2224               %EJECT;
PL6.E3A0      #004=FMD$REDBUF File=FMD$BUF.:E05TSI                               TUE 07/29/97 16:39 Page:80
      567     2225        /*I*     NAME:     VERIFY
      568     2226                 PURPOSE:  To verify a buffer that we have found.
      569     2227                 DESCRIPTION:
      570     2228
      571     2229                      Depending on the granule type, check the stamp,
      572     2230                 ORG, and level.  Next check NAVX and AVAIL to make sure
      573     2231                 the make sense.  Then check the links if the file has
      574     2232                 any.  Call LOGERR to report any errors we might have
      575     2233                 found.
      576     2234        */
      577     2235               %EJECT;
PL6.E3A0      #004=FMD$REDBUF File=FMD$BUF.:E05TSI                               TUE 07/29/97 16:39 Page:81
      578     2236    1   VERIFY: PROC ALTRET;
      579     2237        /* VERIFY LVL AND ORG IN GRANULE HEADER */
      580     2238    2          BUF$=FM$BUF$(F$DCB.BFR.BUFX(BUFNUM));
      581     2239    2          STAMP.HASH=F$DCB.HASH;          /* File hash                          */
      582     2240    2          STAMP.GMOD=DA;                  /* LOW ORDER 9 BITS OF DISK ADDR      */
      583     2241        /* */
      584     2242    3          DO CASE(GTYP);
      585     2243    3             CASE(FMGTGP,FMGTPAD,FMGTMAD);
      586     2244    3                STAMP.HASH=FM_HASH(GTYP);
      587     2245    3   DRCTRY:      IF FM$GRAN.STAMP~=STAMP THEN
      588     2246    4                   DO;
      589     2247    4                   CALL LOGERR(5);
      590     2248    4                   ALTRETURN;
      591     2249    4                   END;
      592     2250
      593     2251    3                IF FM$GRAN.ORG~=0 THEN
      594     2252    4                   DO;
      595     2253    4                   CALL LOGERR(3);
      596     2254    4                   ALTRETURN;
      597     2255    4                   END;
      598     2256
      599     2257    3                IF FM$GRAN.LVL~=GTYP THEN
      600     2258    3                   IF GTYP~=FMGTFDSTAR THEN
      601     2259    4                   DO;
      602     2260    4                   CALL LOGERR(4);
      603     2261    4                   ALTRETURN;
      604     2262    4                   END;
      605     2263    3                ELSE
      606     2264    3                   IF FM$GRAN.LVL~=FMGTFD THEN
      607     2265    4                      DO;
      608     2266    4                      CALL LOGERR(4);
      609     2267    4                      ALTRETURN;
      610     2268    4                      END;
      611     2269
      612     2270    3             CASE(FMGTFD);
      613     2271    3                CALL FMO$FDHASH(JDCB$,STAMP.HASH);
      614     2272    3                GOTO DRCTRY;
PL6.E3A0      #004=FMD$REDBUF File=FMD$BUF.:E05TSI                               TUE 07/29/97 16:39 Page:82
      615     2273
      616     2274    3             CASE(FMGTFDSTAR);
      617     2275    3                STAMP.HASH=F$DCB.HASH;
      618     2276    3                GOTO DRCTRY;
      619     2277
      620     2278    3             CASE(FMGTFILE);
      621     2279    3                IF FM$GRAN.STAMP~=STAMP THEN
      622     2280    4                   IF F$DCB.ORG=%RELATIVE# THEN DO;
      623     2281    4                   B$JIT.ERR=ERRDI;
      624     2282    4                   RETURN;
      625     2283    4                   END;
      626     2284    3                ELSE
      627     2285    4                   DO;
      628     2286    4                   CALL LOGERR(5);
      629     2287    4                   ALTRETURN;
      630     2288    4                   END;
      631     2289
      632     2290    3                IF F$DCB.ORG ~= FM$GRAN.ORG THEN
      633     2291    4                   DO;
      634     2292    4                   CALL LOGERR(3);
      635     2293    4                   ALTRETURN;
      636     2294    4                   END;
      637     2295
      638     2296    3               IF F$DCB.LVL~=FM$GRAN.LVL AND ~F$DCB.SEZ_OK THEN
      639     2297    4                  IF F$DCB.ACS ~= %BLOCK# THEN DO;
      640     2298    4                     CALL LOGERR(4);
      641     2299    4                     ALTRETURN;
      642     2300    4                     END;
      643     2301
      644     2302    3             CASE(FMGTFIT);
      645     2303    3                IF FM$GRAN.LVL=6 THEN
      646     2304    3                   IF FM$GRAN.STAMP.GMOD~=STAMP.GMOD THEN
      647     2305    4                      DO;
      648     2306    4                      CALL LOGERR(5);
      649     2307    4                      ALTRETURN;
      650     2308    4                      END;
      651     2309    3                   ELSE ;
PL6.E3A0      #004=FMD$REDBUF File=FMD$BUF.:E05TSI                               TUE 07/29/97 16:39 Page:83
      652     2310    3                ELSE
      653     2311    4                   DO;
      654     2312    4                   IF FM$GRAN.STAMP.GMOD ~= 0 THEN
      655     2313    5                      DO;
      656     2314    5                      CALL LOGERR(5);
      657     2315    5                      ALTRETURN;
      658     2316    5                      END;
      659     2317    4                   IF FM$GRAN.LVL ~= 0 THEN
      660     2318    5                      DO;
      661     2319    5                      CALL LOGERR(4);
      662     2320    5                      ALTRETURN;
      663     2321    5                      END;
      664     2322    4                END;
      665     2323    3          END;
      666     2324        /* */
      667     2325    2          IF FM$GRAN.NAVX+FM$GRAN.AVAIL > 1024 THEN
      668     2326    3             DO;
      669     2327    3             CALL LOGERR(6);
      670     2328    3             ALTRETURN;
      671     2329    3             END;
      672     2330
      673     2331    2          IF NOT FM$GRAN.HDR THEN
      674     2332    2             RETURN;
      675     2333        /* */
      676     2334    2          IF FM$GRAN.FCEX>FM$GRAN.NAVX THEN
      677     2335    3             DO;
      678     2336    3             CALL LOGERR(7);
      679     2337    3             ALTRETURN;
      680     2338    3             END;
      681     2339        /* */
      682     2340    2          IF GTYP~=FMGTFIT THEN
      683     2341    3             DO;   /* DONT CHECK FIT LINKS */
      684     2342    3             TDA=BUF$->FM$GRAN.BLINK;
      685     2343    3             IF TDA~=0 THEN
      686     2344    3                IF BUF$->FM$GRAN.ORG>0 THEN
      687     2345    3                   CALL FAF$CHKDAFR(TDA) ALTRET(ERR8);
      688     2346    3                ELSE                      /* DIRECTORY - BLINK IS SET-RELATIVE  */
PL6.E3A0      #004=FMD$REDBUF File=FMD$BUF.:E05TSI                               TUE 07/29/97 16:39 Page:84
      689     2347    3                   CALL FMB$CHKDA(TDA) ALTRET(ERR8);
      690     2348    3                TDA=BUF$->FM$GRAN.FLINK;
      691     2349    3             IF TDA~=0 THEN
      692     2350    3                IF BUF$->FM$GRAN.ORG>0 THEN
      693     2351    3                   CALL FAF$CHKDAFR(TDA) ALTRET(ERR8);
      694     2352    3                ELSE                      /* DIRECTORY - FLINK IS SET-RELATIVE  */
      695     2353    3                   CALL FMB$CHKDA(TDA) ALTRET(ERR8);
      696     2354    3             END;
      697     2355    2          IF ADDR(LCDA) ~= ADDR(NIL) AND LCDA >= 0 THEN
      698     2356    2             IF LCDA~=FM$GRAN.BLINK AND LCDA~=FM$GRAN.FLINK THEN
      699     2357    3                DO;
      700     2358    3                CALL LOGERR(10);
      701     2359    3                ALTRETURN;
      702     2360    3                END;
      703     2361    2          RETURN;
      704     2362    2   ERR8:  CALL LOGERR(8);
      705     2363    2          ALTRETURN;
      706     2364    2          END VERIFY;
      707     2365               %EJECT;
PL6.E3A0      #004=FMD$REDBUF File=FMD$BUF.:E05TSI                               TUE 07/29/97 16:39 Page:85
      708     2366        /*I*     NAME:     LOGERR
      709     2367                 PURPOSE:  To report any errors we found while checking out
      710     2368                           the granule
      711     2369                 DESCRIPTION:
      712     2370
      713     2371                      Use MISC to save some interesting information depending
      714     2372                 on the error number.  Get the error type.  If the RETRY
      715     2373                 value is greater than 5, then snap to try to find out
      716     2374                 what went wrong.  If retry is greater than zero, then
      717     2375                 maybe we got a disk error, try again.
      718     2376
      719     2377                      Log the error, the set the error code in the JIT.
      720     2378        */
      721     2379                 %EJECT;
PL6.E3A0      #004=FMD$REDBUF File=FMD$BUF.:E05TSI                               TUE 07/29/97 16:39 Page:86
      722     2380    1   LOGERR: PROC(ERR);
      723     2381    2   DCL ERR SBIN;
      724     2382        /* */
      725     2383    2          ERRNUM=ERR;
      726     2384    3          DO CASE(ERR);
      727     2385    3             CASE(1);   /* BAD DA */
      728     2386    3                CALL FMB$ERRTYP(CODE);
      729     2387    3                BFR1X=0;
      730     2388    3                BFR2X=0;
      731     2389    3                BFR3X=0;
      732     2390    3                BUF$=ADDR(NIL);
      733     2391    3                IF DA > FM_FRMAX OR F$DCB.CFU$=ADDR(NIL) THEN
      734     2392    3                   MISC=-1;
      735     2393    3                ELSE
      736     2394    3                   MISC=F$DCB.CFU$->FM$CFU.UGRANS;
      737     2395    3                GOTO LOG;
      738     2396
      739     2397    3             CASE(2);
      740     2398    3                MISC=BITBIN(N$REQ.TYC);
      741     2399
      742     2400    3             CASE(3);   /* ORG WRONG */
      743     2401    3                MISC=0;
      744     2402
      745     2403    3             CASE(4);   /* LVL WRONG */
      746     2404    3                MISC=F$DCB.LVL;
      747     2405
      748     2406    3             CASE(5);   /* STAMP WRONG  */
      749     2407    3                MISC=STMPUBIN;
      750     2408
      751     2409    3             CASE(6);   /* NAVX+AVAIL BAD */
      752     2410    3                MISC=0;
      753     2411
      754     2412    3             CASE(7);   /* FECX TOO LARGE */
      755     2413    3                MISC=0;
      756     2414
      757     2415    3             CASE(8);   /* BLINK OR FLINK IS BAD DISC ADDRESS */
      758     2416    3                IF DA > FM_FRMAX OR F$DCB.CFU$=ADDR(NIL) THEN
PL6.E3A0      #004=FMD$REDBUF File=FMD$BUF.:E05TSI                               TUE 07/29/97 16:39 Page:87
      759     2417    3                   MISC=-1;
      760     2418    3                ELSE
      761     2419    3                   MISC=F$DCB.CFU$->FM$CFU.UGRANS;
      762     2420
      763     2421    3             CASE(10);
      764     2422    3                MISC=LCDA;
      765     2423    3          END;   /* CASE */
      766     2424
      767     2425    2          CALL FMB$ERRTYP(CODE);          /* CALC ERROR CODE                    */
      768     2426    2          BFR1X=BFRTBL1(ERRNUM);
      769     2427    2          BFR2X=BFRTBL2(ERRNUM);
      770     2428    2          BFR3X=BFRTBL3(ERRNUM);
      771     2429
      772     2430    2          IF RETRY>=4 THEN
      773     2431    3             DO;
      774     2432    3             IF BUF$~=ADDR(NIL) THEN
      775     2433    3                SAVBUF=FM$GRAN;           /* Save bad header                    */
      776     2434    3             IF Q$~=ADDR(NIL) THEN
      777     2435    4                DO;
      778     2436    4                SAVQ.STATUS=N$REQ.STATUS;
      779     2437    4                SAVQ.TYC=N$REQ.TYC;
      780     2438    4                SAVQ.REQID=N$REQ.REQID;
      781     2439    4                END;
      782     2440    3             END;
      783     2441
      784     2442    2          IF RETRY>=5 THEN
      785     2443    2             IF ERRNUM=5 AND FM$GRAN.STAMP.HASH=0 AND GTYP=FMGTFILE THEN
      786     2444    3                DO;
      787     2445    3                RREAD=1;
      788     2446    3                RETURN;
      789     2447    3                END;
      790     2448    2             ELSE
      791     2449    3                DO;
      792     2450    3                IF FLAG = 1 THEN
      793     2451    3                   CALL SC_FMD100;
      794     2452    3                IF F$DCB.BFR1.CX(BUFNUM) > 0 THEN
      795     2453    4                   DO;
PL6.E3A0      #004=FMD$REDBUF File=FMD$BUF.:E05TSI                               TUE 07/29/97 16:39 Page:88
      796     2454    4                   FMC$CACHETBL.FLAGS.ERR(F$DCB.BFR1.CX(BUFNUM))='1'B;
      797     2455    4                   CALL FMC$FINISH(BUFNUM, 0, 0, FLAG);
      798     2456    4                   END;
      799     2457    3                ELSE
      800     2458    3                   CALL FMD$RELBUF(BUFNUM);
      801     2459    3                RETRY=5;
      802     2460    3                END;
      803     2461        /*S*  SCREECH_CODE:  FMD-S$FM100
      804     2462        *     TYPE:  DUMP
      805     2463        *     MESSAGE:  An error was found in a buffer that was already
      806     2464        *       in core.
      807     2465        */
      808     2466        /* */
      809     2467    2          F$DCB.TYC(1)='0'B;              /* Clear any I/O error status         */
      810     2468    2          RETRY=RETRY-1;
      811     2469    2          IF Q$ ~= ADDR(NIL) THEN
      812     2470    2             IF N$REQ.TYC.OPER THEN
      813     2471    2                RETRY=0;
      814     2472    2          RREAD=1;
      815     2473    2          IF RETRY > 0 THEN
      816     2474    2             RETURN;
      817     2475        /* */
      818     2476    2          F$DCB.BFR.DA(BUFNUM)=DA;
      819     2477        /* */
      820     2478    2   LOG:   IF CODE=%E$ULMI THEN
      821     2479    2             TDA=0;
      822     2480    2          ELSE
      823     2481    2             TDA=8;
      824     2482    2          IF ADDR(EFLG)=ADDR(NIL) THEN
      825     2483    2             GOTO LOG5;
      826     2484    2          IF EFLG >= 0 THEN
      827     2485    3             DO;
      828     2486    3             IF EFLG>0 THEN
      829     2487    3                TDA=6;                    /* FAST PATH ERROR                    */
      830     2488    3   LOG5:     CALL FMB$LOGERR(CODE,ERRNUM,TDA,DA,BUF$,BFR1X,
      831     2489    3                BFR2X,BFR3X,MISC,,Q$);
      832     2490    3             END;
PL6.E3A0      #004=FMD$REDBUF File=FMD$BUF.:E05TSI                               TUE 07/29/97 16:39 Page:89
      833     2491    2          IF Q$~=ADDR(NIL) THEN
      834     2492    3             DO;
      835     2493    3             CALL NIQ$REL(Q$);
      836     2494    3             Q$=ADDR(NIL);
      837     2495    3             END;
      838     2496    2          IF CODE~=%E$DI AND ERRNUM=2 THEN
      839     2497    2             CODE=CODE-%E$MI+%E$MIIO;     /* CONVERT CODE TO I/O ERROR TYPE     */
      840     2498    2          B$JIT$->B$JIT.ERR=ERRWD;
      841     2499    2          B$JIT$->B$JIT.ERR.CODE=CODE;
      842     2500    2          IF JDCB$->F$DCB.GTYP=FMGTFILE AND CODE~=%E$ULMI THEN
      843     2501    2             JDCB$->F$DCB.CFU$->FM$CFU.B=1; /* SET BROKEN FILE FLAG             */
      844     2502    2          CALL FMD$RELBUF(BUFNUM);
      845     2503    2          BUF$=ADDR(NIL);
      846     2504    2          RETURN;
      847     2505    2          END LOGERR;
      848     2506               %EJECT;
PL6.E3A0      #004=FMD$REDBUF File=FMD$BUF.:E05TSI                               TUE 07/29/97 16:39 Page:90
      849     2507
      850     2508        /*E*    ERROR:   -E$MI-2
      851     2509                MESSAGE: System error - master index% of file %FN% is broken
      852     2510                MESSAGE1: One or more records in file %FN are lost
      853     2511                DESCRIPTION:  An inconsistency has been detected in a master
      854     2512                index granule.  All records in this granule are inaccessible.           */
      855     2513        /*E*    ERROR:   -E$ULMI-0
      856     2514                MESSAGE: Inconsistency in upper level index
      857     2515                DESCRIPTION:  An inconsistency has been detected in the
      858     2516                  upper level index of a keyed or indexed file.  This
      859     2517                  error is not reported to the user - it is only logged
      860     2518                  in the error log.
      861     2519        */
      862     2520        /*E*    ERROR:   -E$FIT-2
      863     2521                MESSAGE: System error - FIT% of file %FN% is broken
      864     2522                MESSAGE1: Entire file %FN is lost
      865     2523                DESCRIPTION:  An inconsistency has been detected in the file's
      866     2524                FIT.  The entire file is inaccessible.                                  */
      867     2525        /*E*    ERROR:   -E$FD-2
      868     2526                MESSAGE: System error - file directory% of account %AC% is broken
      869     2527                MESSAGE1: File %FN and all files beyond it in this account
      870     2528                  are lost
      871     2529                DESCRIPTION:  An inconsistency has been detected in the file
      872     2530                directory.  All files from this point to the end of the
      873     2531                directory have been lost.                                               */
      874     2532        /*E*    ERROR:   -E$PAD-2
      875     2533                MESSAGE: System error - account directory% on set %SN% is broken
      876     2534                MESSAGE1: Inconsistency in account directory on set %SN
      877     2535                DESCRIPTION:  An inconsistency has been detected in the
      878     2536                account directory.  All accounts on this pack set beyond this
      879     2537                point are inaccessible.                                                 */
      880     2538        /*E*    ERROR:   -E$MAD-2
      881     2539                MESSAGE: System error - master account directory is broken
      882     2540        */
      883     2541        /*E*    ERROR:  -E$GP-2
      884     2542                MESSAGE: System error - granule allocation pool% of pack %SN% is broken
      885     2543        */
PL6.E3A0      #004=FMD$REDBUF File=FMD$BUF.:E05TSI                               TUE 07/29/97 16:39 Page:91
      886     2544        /*E*    ERROR:   -E$MIIO-2
      887     2545                MESSAGE: Disk error reading index granule from file %FN
      888     2546                DESCRIPTION:  Unable to read a master index granule due to
      889     2547                hardware error.  All records in this granule are lost.                  */
      890     2548        /*E*    ERROR:   -E$ULMIIO-0
      891     2549                MESSAGE: Disk error reading upper level index
      892     2550                DESCRIPTION:  A disk error occurred reading the upper
      893     2551                  level index of a keyed or indexed file.  This error
      894     2552                  is not reported to the user - it is only logged in
      895     2553                  the error log.
      896     2554        */
      897     2555        /*E*    ERROR:   -E$FITIO-2
      898     2556                MESSAGE: Disk error reading FIT of file %FN
      899     2557                DESCRIPTION:  Unable to read the file's FIT due to a
      900     2558                hardware error.  The entire file is inaccessible.                       */
      901     2559        /*E*    ERROR:   -E$FDIO-2
      902     2560                MESSAGE: Disk error reading file directory% for account %AC%
      903     2561                DESCRIPTION:  Unable to read a file directory granule due to
      904     2562                a hardware error.  All files from this point to the end of the
      905     2563                directory are lost.                                                     */
      906     2564        /*E*    ERROR:  FMD-E$PADIO-2
      907     2565                MESSAGE: Disk error reading PAD% for set %SN%
      908     2566        */
      909     2567        /*E*    ERROR:   -E$MADIO-2
      910     2568                MESSAGE: Disk error reading MAD
      911     2569        */
      912     2570        /*E*    ERROR:   -E$GPIO-2
      913     2571                MESSAGE: Disk error reading granule pool for pack set %SN
      914     2572        */
      915     2573    1          END FMD$REDBUF;
      916     2574               %EOD;

PL6.E3A0      #004=FMD$REDBUF File=FMD$BUF.:E05TSI                               TUE 07/29/97 16:39 Page:92
--  Include file information  --

   CP_6_SUBS.:E05TOU  is referenced.
   N$REQ.:E05TOU  is referenced.
   N_FC_C.:E05TOU  is referenced.
   F_ERRORS_C.:E05TOU  is referenced.
   FM_CACHE_C.:E05TOU  is referenced.
   FM_CACHE_R.:E05TOU  cannot be made into a system file and is referenced.
   FM_DATA_R.:E05TOU  cannot be made into a system file and is referenced.
   FM$MACROS.:E05TOU  is referenced.
   F$DCB.:E05TOU  is referenced.
   B$JIT_C.:E05TOU  is referenced.
   F$JIT_C.:E05TOU  cannot be made into a system file and is referenced.
      No diagnostics issued in procedure FMD$REDBUF.

   Procedure FMD$REDBUF requires 913 words for executable code.
   Procedure FMD$REDBUF requires 50 words of local(AUTO) storage.

PL6.E3A0      #004=FMD$REDBUF File=FMD$BUF.:E05TSI                               TUE 07/29/97 16:39 Page:93

 Object Unit name= FMD$REDBUF                                 File name= FMD$BUF.:E05TOU
 UTS= JUL 29 '97 16:39:56.92 TUE                              Compiler= PL-6/E31         Sev=      00
 SharedLib= :SHARED_SYSTEM                                    Alt SharedLib=


    ****  Control sections  ****

 Sect   Type Bound  Init  Size OctSiz  Section name(segment info)
    0  RoData even  UTS     40     50  FMD$REDBUF
    1   Proc  even  none   913   1621  FMD$REDBUF
    2  RoData even  none    17     21  FMD$REDBUF

    ****  Entry defs  ****

                              Check   Calling
                             calling  sequence
  Sect OctLoc Primary Altret sequence   type   Parms  Name
     1      0   yes    yes     yes      Std        6  FMD$REDBUF
     1      4          yes     yes      Std        6  FMD$REDBUFBC
PL6.E3A0      #004=FMD$REDBUF File=FMD$BUF.:E05TSI                               TUE 07/29/97 16:39 Page:94

  ****  Entry refs  ****

         Check        Calling
        calling       sequence
Altret sequence SRef   type   Args  Name
         yes           Std       1 FMD$FLSHBUFNR
 yes     yes           Std       9 FMB$QUEUE
 yes     yes           Std       1 NIQ$REL
         yes           Std       1 FMD$FLSHBUF
 yes     yes           Std       4 FMC$GET
         yes           Std       3 FMD$GETBUF
 yes     yes           Std       1 NIQ$GET
         yes           Std      11 FMB$LOGERR
 yes     yes           Std       4 FMC$NOCACHE
         yes           Std       2 FMO$FDHASH
 yes     yes           Std       1 FAF$CHKDAFR
 yes     yes           Std       1 FMB$CHKDA
         yes           Std       1 FMB$ERRTYP
 yes     yes           Std       4 FMC$FINISH
         yes           Std       1 FMD$RELBUF
                       nStd      0 X66_AUTO_N
                       Std       0 B_CONSPOOL_D
                       nStd      0 X66_AALT
                       nStd      0 X66_ARET

  ****  Data refs  ****

  Flags:  r = read only, s = secondary
Flgs Name                             Flgs Name                             Flgs Name
     SC_FMD87                              SC_FMD100                             B$JIT$
     FM$BUF$                          r    FM_FRMAX                         r    FM_SRZERO
r    FM_HASH                               FMC_CACHE$                            FMC_CACHEPGCNT$
     B_VECTNIL
PL6.E3A0      #004=FMD$REDBUF File=FMD$BUF.:E05TSI                               TUE 07/29/97 16:39 Page:95

  ****  Segment refs  ****

  Flags:  r = read only, s = secondary
Flgs Name                             Flgs Name                             Flgs Name
     ASLENTSID                             ISSID
PL6.E3A0      #004=FMD$REDBUF File=FMD$BUF.:E05TSI                               TUE 07/29/97 16:39 Page:96


      312        1        /*T***********************************************************/
      313        2        /*T*                                                         */
      314        3        /*T* Copyright (c) Bull HN Information Systems Inc., 1997    */
      315        4        /*T*                                                         */
      316        5        /*T***********************************************************/
      317        6        /* */
      318        7        /*F*   NAME:   FMD$REDBUF
      319        8               PURPOSE:  Read and verify the header of all managed granules          */
      320        9        /* */
      321       10        /*D*   NAME:   FMD$REDBUF
      322       11        *              CALL FMD$REDBUF(BUF$,BUFNUM,DA,,LCDA,EFLG) ALTRET(LOC);
      323       12               INTERFACE:  FMB$QUEUE,FMD$FLSHBUF,FMD$GETBUF,FMD$RELBUF,
      324       13                           FMC$IOCGET,FMB$LOGERR,FMB$CHKDA,FAF$CHKDAFR
      325       14               INPUT:  BUFNUM - DCB buffer number (0-4) to read into
      326       15                       DA - Disk address to read
      327       16                       LCDA - Disk address for link check (-1 if no check)
      328       17                       EFLG - Type of errlog entry to make in case of
      329       18                                fatal error.  Zero or absence of parameter
      330       19                                means to log fatal error.  -1 means to log
      331       20                                no error.  1 means to log fast path error.
      332       21                       DCB fields that must be set:
      333       22                         GTYP - Set to indicate type of granule being read
      334       23                         LVL - Level # (files only)
      335       24                         ORG - File organization (files only)
      336       25                         HASH - FD and files only
      337       26               OUTPUT: BUF$ - Pointer to buffer
      338       27                       Normal return if no error,
      339       28                       ALTRET if I/O error or header verification failure.
      340       29                       JIT.ERR set if ALTRET
      341       30                 DESCRIPTION:
      342       31
      343       32                      First, check the buffer table to see if we already
      344       33                 have the buffer.  If we do, do the verification.  Next,
      345       34                 try the FMC routines to see if we can get a cached buffer.
      346       35                 FMC$NOCACHE is called when the user wants a buffer that
      347       36                 he can muck with that is not in the cache table.
PL6.E3A0      #004=FMD$REDBUF File=FMD$BUF.:E05TSI                               TUE 07/29/97 16:39 Page:97
      348       37
      349       38                      If all else fails, then try reading the granule up
      350       39                 to four times.  Do some clean up, log any errors we might
      351       40                 have found, then return.
      352       41        */
      353       42                 %EJECT;
PL6.E3A0      #004=FMD$REDBUF File=FMD$BUF.:E05TSI                               TUE 07/29/97 16:39 Page:98
      354       43                                                /*                                    */
      355       44        FMD$REDBUF: PROC(BUF$,BUFNUM,DA,DDA,LCDA,EFLG) ALTRET;

     44  1 000000   000000 700200 xent  FMD$REDBUF   TSX0  ! X66_AUTO_N
         1 000001   000062 000006                    ZERO    50,6

      356       45        /* PARAMETERS */
      357       46    1   DCL BUF$ PTR;
      358       47    1   DCL BUFNUM UBIN;
      359       48    1   DCL DA UBIN;
      360       49    1   DCL DDA UBIN;
      361       50    1   DCL LCDA SBIN;
      362       51    1   DCL EFLG SBIN;
      363       52        /* EXTERNAL ROUTINES */
      364       53    1   DCL FMD$FLSHBUF ENTRY(1);
      365       54    1   DCL FMD$FLSHBUFNR ENTRY(1);
      366       55    1   DCL FMD$WRTSV ENTRY(1);
      367       56    1   DCL FMD$GETBUF ENTRY(3);
      368       57    1   DCL FMC$GET ENTRY(4) ALTRET;
      369       58    1   DCL FMC$NOCACHE ENTRY(4) ALTRET;
      370       59    1   DCL FMC$FINISH ENTRY(4) ALTRET;
      371       60    1   DCL FMB$QUEUE ENTRY(9) ALTRET;
      372       61    1   DCL FMB$CHKDA ENTRY(1) ALTRET;
      373       62    1   DCL FAF$CHKDAFR ENTRY(1) ALTRET;
      374       63    1   DCL FMD$RELBUF ENTRY(1);
      375       64    1   DCL FMB$LOGERR ENTRY(11);
      376       65    1   DCL FMB$ERRTYP ENTRY(1);
      377       66    1   DCL FMO$FDHASH ENTRY(2);
      378       67    1   DCL NIQ$GET ENTRY(1) ALTRET;
      379       68    1   DCL NIQ$REL ENTRY(1) ALTRET;
      380       69    1   DCL SC_FMD87 ENTRY CONV(2,0);
      381       70    1   DCL SC_FMD100 ENTRY CONV(2,0);
      382       71        /* LOCAL AUTOMATIC STORAGE */
      383       72    1   DCL JDCB$ PTR;
      384       73    1   DCL TDA UBIN;
      385       74    1   DCL RETRY SBIN;
      386       75    1   DCL RREAD SBIN;
PL6.E3A0      #004=FMD$REDBUF File=FMD$BUF.:E05TSI                               TUE 07/29/97 16:39 Page:99
      387       76    1   DCL ERRNUM UBIN;
      388       77    1   DCL CODE UBIN;
      389       78    1   DCL 1 STAMP,
      390       79    1         2 HASH UBIN(27) UNAL,
      391       80    1         2 GMOD UBIN(9) UNAL;
      392       81    1   DCL STMPUBIN REDEF STAMP UBIN;
      393       82    1   DCL BFR1X UBIN;
      394       83    1   DCL BFR2X UBIN;
      395       84    1   DCL BFR3X UBIN;
      396       85    1   DCL MISC SBIN;
      397       86    1   DCL FLAG SBIN;
      398       87    1   DCL 1 SAVBUF,
      399       88    1         2 *(0:4) UBIN;
      400       89    1   DCL 1 SAVQ,
      401       90    1         2 STATUS BIT(36),
      402       91    1         2 REQID UBIN,
      403       92    1         2 TYC BIT(36);
      404       93    1   DCL BCFLG SBIN;
      405       94    1   DCL GTYP UBIN;
      406       95    1   DCL Q$ PTR;
      407       96    1   DCL T$ PTR;
      408       97        /* EXTERNAL DATA */
      409       98    1   DCL B$JIT$ PTR SYMREF;
      410       99    1   DCL FM$BUF$(0:0) PTR SYMREF;
      411      100        /* INCLUDE FILES */
      412      101        %INCLUDE F$JIT_C;
      413      531        %MACRO F$DCB(BASED=BASED);
      414      532        %INCLUDE F$DCB;
      415      581        %MEND;
      416      582        %INCLUDE FM$MACROS;
      417      957        %INCLUDE FM_DATA_R;
      418      971        %INCLUDE FM_CACHE_R;
      419      983        %INCLUDE FM_CACHE_C;
      420     1049        %INCLUDE F_ERRORS_C;
      421     1289        %INCLUDE N_FC_C;
      422     1326        %INCLUDE N$REQ;
      423     1400        %INCLUDE CP_6_SUBS;
PL6.E3A0      #004=FMD$REDBUF File=FMD$BUF.:E05TSI                               TUE 07/29/97 16:39 Page:100
      424     1940        /* SUBSTITUTIONS */
      425     1941        %SUB FCG#='0615'O;
      426     1942        %SUB MID#='04'O;
      427     1943        /* CONSTANT STORAGE */
      428     1944    1   DCL BFRTBL1(0:10) UBIN(3) CONSTANT INIT(0,0,0,0,0,0,0,0,1,1,1);
      429     1945    1   DCL BFRTBL2(0:10) UBIN(3) CONSTANT INIT(0,1,1,1,1,1,1,1,3,5,3);
      430     1946    1   DCL BFRTBL3(0:10) UBIN(3) CONSTANT INIT(0,2,2,2,2,2,2,2,4,6,4);
      431     1947    1   DCL ZAPBUF(0:4) CONSTANT BIT(36)
      432     1948    1       INIT('111111111111'O,'222222222222'O,'333333333333'O,
      433     1949    1            '444444444444'O,'555555555555'O);
      434     1950        %ERRCODE (NAME=ERRWD,COD#=0);
      435     1954        %ERRCODE (NAME=ERRDI,COD#=%E$DI);
      436     1958        /* BASED STRUCTURES */
      437     1959        %F$DCB  (BASED="BASED(JDCB$)");
      438     2009        %FM$CFU;
      439     2015        %FMC$CACHE;
      440     2038        %FM$GRAN (BASED="BASED(BUF$)");
      441     2042        %N$REQ (STCLASS="BASED(Q$)");
      442     2100    1   DCL WRD SBIN BASED ALIGNED;
      443     2101    1   DCL SDA UBIN WORD;
      444     2102        /* */
      445     2103    1          BCFLG=0;

   2103  1 000002   200035 450100                    STZ     BCFLG,,AUTO

      446     2104    1          GOTO COMMON;

   2104  1 000003   000010 710000 1                  TRA     COMMON

      447     2105    1   FMD$REDBUFBC: ENTRY(BUF$, BUFNUM, DA, DDA, LCDA, EFLG) ALTRET;

   2105  1 000004   000000 700200 xent  FMD$REDBUFBC TSX0  ! X66_AUTO_N
         1 000005   000062 000006                    ZERO    50,6

      448     2106    1          BCFLG=1;

   2106  1 000006   000001 235007                    LDA     1,DL
PL6.E3A0      #004=FMD$REDBUF File=FMD$BUF.:E05TSI                               TUE 07/29/97 16:39 Page:101
         1 000007   200035 755100                    STA     BCFLG,,AUTO

   2106  1 000010                       COMMON       null
      449     2107
      450     2108    1   COMMON: ;
      451     2109        /* */
      452     2110    1          JDCB$=B$JIT.DCB$;               /* POINTER TO CURRENT DCB             */

   2110  1 000010   000000 470400 xsym               LDP0    B$JIT$
         1 000011   000232 236100                    LDQ     154,,PR0
         1 000012   200011 756100                    STQ     JDCB$,,AUTO

      453     2111    1          Q$=ADDR(NIL);

   2111  1 000013   000001 236000 xsym               LDQ     B_VECTNIL+1
         1 000014   200037 756100                    STQ     Q$,,AUTO

      454     2112    1          SDA = DA;                       /* SAVE DA IN SDA                     */

   2112  1 000015   200005 471500                    LDP1    @DA,,AUTO
         1 000016   100000 235100                    LDA     0,,PR1
         1 000017   200041 755100                    STA     SDA,,AUTO

      455     2113    1          GTYP=F$DCB.GTYP;

   2113  1 000020   200011 473500                    LDP3    JDCB$,,AUTO
         1 000021   300064 236100                    LDQ     52,,PR3
         1 000022   000035 772000                    QRL     29
         1 000023   000007 376007                    ANQ     7,DL
         1 000024   200036 756100                    STQ     GTYP,,AUTO

      456     2114    1          IF BUFNUM>4 THEN

   2114  1 000025   200004 474500                    LDP4    @BUFNUM,,AUTO
         1 000026   400000 235100                    LDA     0,,PR4
         1 000027   000005 115007                    CMPA    5,DL
         1 000030   000033 602000 1                  TNC     s:2120
PL6.E3A0      #004=FMD$REDBUF File=FMD$BUF.:E05TSI                               TUE 07/29/97 16:39 Page:102

      457     2115    1             CALL SC_FMD87;

   2115  1 000031   000000 713400 xsym               CLIMB   SC_FMD87
         1 000032   000000 600000 xsid               climb   nvectors=         0

      458     2116        /*S*  SCREECH_CODE:  FMD-S$FM87
      459     2117              TYPE:   SUA
      460     2118              MESSAGE:  Illegal arguments to FMD$REDBUF */
      461     2119                                                /*                                    */
      462     2120    1          IF GTYP=FMGTFILE THEN           /* File-relative disk address         */

   2120  1 000033   200036 235100                    LDA     GTYP,,AUTO
         1 000034   000006 115007                    CMPA    6,DL
         1 000035   000047 601000 1                  TNZ     s:2130

      463     2121    2             DO;

      464     2122    2             IF DA > FM_FRMAX THEN

   2122  1 000036   200005 470500                    LDP0    @DA,,AUTO
         1 000037   000000 236000 xsym               LDQ     FM_FRMAX
         1 000040   000000 116100                    CMPQ    0,,PR0
         1 000041   000060 603000 1                  TRC     s:2137

      465     2123    3                DO;

      466     2124    3                CALL LOGERR(1);

   2124  1 000042   000000 236000 2                  LDQ     0
         1 000043   200045 756100                    STQ     SDA+4,,AUTO
         1 000044   001157 701000 1                  TSX1    LOGERR
         1 000045   000000 011000                    NOP     0

      467     2125    3                ALTRETURN;

   2125  1 000046   000000 702200 xent               TSX2  ! X66_AALT
PL6.E3A0      #004=FMD$REDBUF File=FMD$BUF.:E05TSI                               TUE 07/29/97 16:39 Page:103

      468     2126    3                END;
      469     2127    2             END;
      470     2128    1          ELSE
      471     2129    2             DO;

      472     2130    2             IF DA < FM_SRZERO THEN

   2130  1 000047   200005 470500                    LDP0    @DA,,AUTO
         1 000050   000000 236100                    LDQ     0,,PR0
         1 000051   000000 116000 xsym               CMPQ    FM_SRZERO
         1 000052   000060 603000 1                  TRC     s:2137

      473     2131    3                DO;

      474     2132    3                CALL LOGERR(1);

   2132  1 000053   000000 236000 2                  LDQ     0
         1 000054   200045 756100                    STQ     SDA+4,,AUTO
         1 000055   001157 701000 1                  TSX1    LOGERR
         1 000056   000000 011000                    NOP     0

      475     2133    3                ALTRETURN;

   2133  1 000057   000000 702200 xent               TSX2  ! X66_AALT

      476     2134    3                END;
      477     2135    2             END;
      478     2136                                                /*                                    */
      479     2137    1          IF F$DCB.BFR.BUFX(BUFNUM)~=0 AND F$DCB.BFR.DA(BUFNUM)=DA THEN

   2137  1 000060   200004 471500                    LDP1    @BUFNUM,,AUTO
         1 000061   100000 720100                    LXL0    0,,PR1
         1 000062   200011 473500                    LDP3    JDCB$,,AUTO
         1 000063   300115 236110                    LDQ     77,X0,PR3
         1 000064   037000 316003                    CANQ    15872,DU
         1 000065   000077 600000 1                  TZE     s:2144
PL6.E3A0      #004=FMD$REDBUF File=FMD$BUF.:E05TSI                               TUE 07/29/97 16:39 Page:104
         1 000066   300115 236110                    LDQ     77,X0,PR3
         1 000067   000032 376000 xsym               ANQ     B_VECTNIL+26
         1 000070   000000 116100                    CMPQ    0,,PR0
         1 000071   000077 601000 1                  TNZ     s:2144

      480     2138    2             DO;

      481     2139    2             RETRY=5;

   2139  1 000072   000005 235007                    LDA     5,DL
         1 000073   200013 755100                    STA     RETRY,,AUTO

      482     2140    2             CALL VERIFY ALTRET(READBUF);

   2140  1 000074   000527 701000 1                  TSX1    VERIFY
         1 000075   000211 702000 1                  TSX2    READBUF

      483     2141    2             GOTO DONE;

   2141  1 000076   000334 710000 1                  TRA     DONE

      484     2142    2             END;
      485     2143        /* */
      486     2144    2          DO BFR1X=0 TO 4;

   2144  1 000077   200020 450100                    STZ     BFR1X,,AUTO

      487     2145    2             IF F$DCB.BFR.DA(BFR1X)=DA AND F$DCB.BFR.BUFX(BFR1X)~=0 THEN

   2145  1 000100   200005 470500                    LDP0    @DA,,AUTO
         1 000101   200011 471500                    LDP1    JDCB$,,AUTO
         1 000102   200020 720100                    LXL0    BFR1X,,AUTO
         1 000103   100115 236110                    LDQ     77,X0,PR1
         1 000104   000032 376000 xsym               ANQ     B_VECTNIL+26
         1 000105   000000 116100                    CMPQ    0,,PR0
         1 000106   000144 601000 1                  TNZ     s:2156
         1 000107   100115 236110                    LDQ     77,X0,PR1
PL6.E3A0      #004=FMD$REDBUF File=FMD$BUF.:E05TSI                               TUE 07/29/97 16:39 Page:105
         1 000110   037000 316003                    CANQ    15872,DU
         1 000111   000144 600000 1                  TZE     s:2156

      488     2146    3                DO;

      489     2147    3                CALL FMD$FLSHBUF(BUFNUM); /* Release any old buffer             */

   2147  1 000112   200004 630500                    EPPR0   @BUFNUM,,AUTO
         1 000113   000017 631400 xsym               EPPR1   B_VECTNIL+15
         1 000114   000000 701000 xent               TSX1    FMD$FLSHBUF
         1 000115   000000 011000                    NOP     0

      490     2148    3                F$DCB.BFR(BUFNUM)=F$DCB.BFR(BFR1X); /* Move FIT                 */

   2148  1 000116   200004 470500                    LDP0    @BUFNUM,,AUTO
         1 000117   000000 720100                    LXL0    0,,PR0
         1 000120   200011 471500                    LDP1    JDCB$,,AUTO
         1 000121   200020 721100                    LXL1    BFR1X,,AUTO
         1 000122   100115 236111                    LDQ     77,X1,PR1
         1 000123   100115 756110                    STQ     77,X0,PR1

      491     2149    3                F$DCB.BFR1(BUFNUM)=F$DCB.BFR1(BFR1X);

   2149  1 000124   000000 720100                    LXL0    0,,PR0
         1 000125   200011 471500                    LDP1    JDCB$,,AUTO
         1 000126   200020 721100                    LXL1    BFR1X,,AUTO
         1 000127   100122 236111                    LDQ     82,X1,PR1
         1 000130   100122 756110                    STQ     82,X0,PR1

      492     2150    3                F$DCB.BFR(BFR1X)='0'B;

   2150  1 000131   200011 471500                    LDP1    JDCB$,,AUTO
         1 000132   200020 720100                    LXL0    BFR1X,,AUTO
         1 000133   100115 450110                    STZ     77,X0,PR1

      493     2151    3                F$DCB.BFR1(BFR1X)='0'B;

PL6.E3A0      #004=FMD$REDBUF File=FMD$BUF.:E05TSI                               TUE 07/29/97 16:39 Page:106
   2151  1 000134   200011 471500                    LDP1    JDCB$,,AUTO
         1 000135   200020 720100                    LXL0    BFR1X,,AUTO
         1 000136   100122 450110                    STZ     82,X0,PR1

      494     2152    3                RETRY=6;                  /* Flag for buffer already in         */

   2152  1 000137   000006 235007                    LDA     6,DL
         1 000140   200013 755100                    STA     RETRY,,AUTO

      495     2153    3                CALL VERIFY ALTRET(READBUF);

   2153  1 000141   000527 701000 1                  TSX1    VERIFY
         1 000142   000211 702000 1                  TSX2    READBUF

      496     2154    3                GOTO DONE;

   2154  1 000143   000334 710000 1                  TRA     DONE

      497     2155    3                END;
      498     2156    2          END;

   2156  1 000144   200020 235100                    LDA     BFR1X,,AUTO
         1 000145   000001 035007                    ADLA    1,DL
         1 000146   200020 755100                    STA     BFR1X,,AUTO
         1 000147   000005 115007                    CMPA    5,DL
         1 000150   000100 602000 1                  TNC     s:2145

      499     2157        /* */
      500     2158    1          RETRY=7;

   2158  1 000151   000007 236007                    LDQ     7,DL
         1 000152   200013 756100                    STQ     RETRY,,AUTO

      501     2159    1          IF BCFLG = 0 THEN

   2159  1 000153   200035 235100                    LDA     BCFLG,,AUTO
         1 000154   000171 601000 1                  TNZ     s:2162
PL6.E3A0      #004=FMD$REDBUF File=FMD$BUF.:E05TSI                               TUE 07/29/97 16:39 Page:107

      502     2160    1             CALL FMC$GET(BUF$, BUFNUM, DA, FLAG) ALTRET(ERR1);

   2160  1 000155   200024 633500                    EPPR3   FLAG,,AUTO
         1 000156   200051 453500                    STP3    @ERR+4,,AUTO
         1 000157   200005 236100                    LDQ     @DA,,AUTO
         1 000160   200050 756100                    STQ     @ERR+3,,AUTO
         1 000161   200004 236100                    LDQ     @BUFNUM,,AUTO
         1 000162   200003 235100                    LDA     @BUF$,,AUTO
         1 000163   200046 757100                    STAQ    @ERR+1,,AUTO
         1 000164   200046 630500                    EPPR0   @ERR+1,,AUTO
         1 000165   000022 631400 xsym               EPPR1   B_VECTNIL+18
         1 000166   000000 701000 xent               TSX1    FMC$GET
         1 000167   000511 702000 1                  TSX2    ERR1
         1 000170   000204 710000 1                  TRA     s:2163

      503     2161    1          ELSE
      504     2162    1             CALL FMC$NOCACHE(BUF$, BUFNUM, DA, FLAG) ALTRET(ERR1);

   2162  1 000171   200024 633500                    EPPR3   FLAG,,AUTO
         1 000172   200051 453500                    STP3    @ERR+4,,AUTO
         1 000173   200005 236100                    LDQ     @DA,,AUTO
         1 000174   200050 756100                    STQ     @ERR+3,,AUTO
         1 000175   200004 236100                    LDQ     @BUFNUM,,AUTO
         1 000176   200003 235100                    LDA     @BUF$,,AUTO
         1 000177   200046 757100                    STAQ    @ERR+1,,AUTO
         1 000200   200046 630500                    EPPR0   @ERR+1,,AUTO
         1 000201   000022 631400 xsym               EPPR1   B_VECTNIL+18
         1 000202   000000 701000 xent               TSX1    FMC$NOCACHE
         1 000203   000511 702000 1                  TSX2    ERR1

      505     2163    1          IF FLAG > 0 THEN

   2163  1 000204   200024 235100                    LDA     FLAG,,AUTO
         1 000205   000211 604400 1                  TMOZ    READBUF

      506     2164    2             DO;
PL6.E3A0      #004=FMD$REDBUF File=FMD$BUF.:E05TSI                               TUE 07/29/97 16:39 Page:108

      507     2165    2             CALL VERIFY ALTRET(READBUF);

   2165  1 000206   000527 701000 1                  TSX1    VERIFY
         1 000207   000211 702000 1                  TSX2    READBUF

      508     2166    2             END;

   2166  1 000210   000326 710000 1                  TRA     s:2194

      509     2167    1          ELSE
      510     2168    2             DO;

      511     2169    2   READBUF:  RETRY=4;

   2169  1 000211   000004 235007       READBUF      LDA     4,DL
         1 000212   200013 755100                    STA     RETRY,,AUTO

      512     2170    2             CALL FMD$FLSHBUFNR(BUFNUM);

   2170  1 000213   200004 630500                    EPPR0   @BUFNUM,,AUTO
         1 000214   000017 631400 xsym               EPPR1   B_VECTNIL+15
         1 000215   000000 701000 xent               TSX1    FMD$FLSHBUFNR
         1 000216   000000 011000                    NOP     0

      513     2171    3             DO UNTIL (RREAD = 0 OR RETRY = 0);

      514     2172    3                RREAD=0;

   2172  1 000217   200014 450100                    STZ     RREAD,,AUTO

      515     2173    3                IF F$DCB.BFR.BUFX(BUFNUM) = 0 THEN

   2173  1 000220   200004 470500                    LDP0    @BUFNUM,,AUTO
         1 000221   000000 720100                    LXL0    0,,PR0
         1 000222   200011 471500                    LDP1    JDCB$,,AUTO
         1 000223   100115 236110                    LDQ     77,X0,PR1
PL6.E3A0      #004=FMD$REDBUF File=FMD$BUF.:E05TSI                               TUE 07/29/97 16:39 Page:109
         1 000224   037000 316003                    CANQ    15872,DU
         1 000225   000240 601000 1                  TNZ     s:2176

      516     2174    3                   CALL FMD$GETBUF(BUFNUM, 1, BUF$);

   2174  1 000226   200003 236100                    LDQ     @BUF$,,AUTO
         1 000227   200050 756100                    STQ     @ERR+3,,AUTO
         1 000230   000000 236000 2                  LDQ     0
         1 000231   200004 235100                    LDA     @BUFNUM,,AUTO
         1 000232   200046 757100                    STAQ    @ERR+1,,AUTO
         1 000233   200046 630500                    EPPR0   @ERR+1,,AUTO
         1 000234   000021 631400 xsym               EPPR1   B_VECTNIL+17
         1 000235   000000 701000 xent               TSX1    FMD$GETBUF
         1 000236   000000 011000                    NOP     0
         1 000237   000246 710000 1                  TRA     s:2177

      517     2175    3                ELSE
      518     2176    3                   BUF$=FM$BUF$(F$DCB.BFR.BUFX(BUFNUM));

   2176  1 000240   100115 236110                    LDQ     77,X0,PR1
         1 000241   000033 772000                    QRL     27
         1 000242   000037 376007                    ANQ     31,DL
         1 000243   000000 236006 xsym               LDQ     FM$BUF$,QL
         1 000244   200003 473500                    LDP3    @BUF$,,AUTO
         1 000245   300000 756100                    STQ     0,,PR3

      519     2177    3                FM$GRAN=ZAPBUF;           /* Zap buffer contents                */

   2177  1 000246   200003 470500                    LDP0    @BUF$,,AUTO
         1 000247   000000 471500                    LDP1    0,,PR0
         1 000250   000100 100400                    MLR     fill='000'O
         1 000251   000041 000024 0                  ADSC9   ZAPBUF                   cn=0,n=20
         1 000252   100000 000024                    ADSC9   0,,PR1                   cn=0,n=20

      520     2178    3                IF Q$~=ADDR(NIL) THEN

   2178  1 000253   200037 236100                    LDQ     Q$,,AUTO
PL6.E3A0      #004=FMD$REDBUF File=FMD$BUF.:E05TSI                               TUE 07/29/97 16:39 Page:110
         1 000254   000001 116000 xsym               CMPQ    B_VECTNIL+1
         1 000255   000266 600000 1                  TZE     s:2183

      521     2179    4                   DO;

      522     2180    4                   CALL NIQ$REL(Q$);

   2180  1 000256   200037 631500                    EPPR1   Q$,,AUTO
         1 000257   200046 451500                    STP1    @ERR+1,,AUTO
         1 000260   200046 630500                    EPPR0   @ERR+1,,AUTO
         1 000261   000017 631400 xsym               EPPR1   B_VECTNIL+15
         1 000262   000000 701000 xent               TSX1    NIQ$REL
         1 000263   000000 011000                    NOP     0

      523     2181    4                   Q$=ADDR(NIL);

   2181  1 000264   000001 236000 xsym               LDQ     B_VECTNIL+1
         1 000265   200037 756100                    STQ     Q$,,AUTO

      524     2182    4                   END;

      525     2183    3                CALL FMB$QUEUE(BUF$,1,4096,SDA,%N_RDBIN,-1,

   2183  1 000266   200037 630500                    EPPR0   Q$,,AUTO
         1 000267   200056 450500                    STP0    @ERR+9,,AUTO
         1 000270   000004 237000 2                  LDAQ    4
         1 000271   200054 757100                    STAQ    @ERR+7,,AUTO
         1 000272   000006 237000 2                  LDAQ    6
         1 000273   200052 757100                    STAQ    @ERR+5,,AUTO
         1 000274   200041 631500                    EPPR1   SDA,,AUTO
         1 000275   200051 451500                    STP1    @ERR+4,,AUTO
         1 000276   000003 236000 2                  LDQ     3
         1 000277   200050 756100                    STQ     @ERR+3,,AUTO
         1 000300   000000 236000 2                  LDQ     0
         1 000301   200003 235100                    LDA     @BUF$,,AUTO
         1 000302   200046 757100                    STAQ    @ERR+1,,AUTO
         1 000303   200046 630500                    EPPR0   @ERR+1,,AUTO
PL6.E3A0      #004=FMD$REDBUF File=FMD$BUF.:E05TSI                               TUE 07/29/97 16:39 Page:111
         1 000304   000001 631400 2                  EPPR1   1
         1 000305   000000 701000 xent               TSX1    FMB$QUEUE
         1 000306   000511 702000 1                  TSX2    ERR1

      526     2184    3                   ENTADDR(NIL),0,Q$) ALTRET(ERR1);
      527     2185    3                IF N$REQ.TYC~='1'B THEN

   2185  1 000307   200037 470500                    LDP0    Q$,,AUTO
         1 000310   000021 236100                    LDQ     17,,PR0
         1 000311   400000 116003                    CMPQ    -131072,DU
         1 000312   000320 600000 1                  TZE     s:2190

      528     2186    4                   DO;   /* I/O ERROR */

      529     2187    4                   CALL LOGERR(2);

   2187  1 000313   000006 236000 2                  LDQ     6
         1 000314   200045 756100                    STQ     SDA+4,,AUTO
         1 000315   001157 701000 1                  TSX1    LOGERR
         1 000316   000000 011000                    NOP     0

      530     2188    4                   END;  /* I/O ERROR */

   2188  1 000317   000322 710000 1                  TRA     s:2191

      531     2189    3                ELSE
      532     2190    3                   CALL VERIFY;

   2190  1 000320   000527 701000 1                  TSX1    VERIFY
         1 000321   000000 011000                    NOP     0

      533     2191    3                END;

   2191  1 000322   200014 235100                    LDA     RREAD,,AUTO
         1 000323   000326 600000 1                  TZE     s:2194
         1 000324   200013 236100                    LDQ     RETRY,,AUTO
         1 000325   000217 601000 1                  TNZ     s:2172
PL6.E3A0      #004=FMD$REDBUF File=FMD$BUF.:E05TSI                               TUE 07/29/97 16:39 Page:112

      534     2192    2             END;

      535     2193
      536     2194    1          IF RREAD = 1 AND RETRY = 0 THEN

   2194  1 000326   200014 235100                    LDA     RREAD,,AUTO
         1 000327   000001 115007                    CMPA    1,DL
         1 000330   000334 601000 1                  TNZ     DONE
         1 000331   200013 236100                    LDQ     RETRY,,AUTO
         1 000332   000334 601000 1                  TNZ     DONE

      537     2195    2             DO;   /* CANT GET A GOOD GRAN */

      538     2196    2             GOTO ERR;

   2196  1 000333   000515 710000 1                  TRA     ERR

      539     2197    2             END;
      540     2198
      541     2199    1   DONE:  F$DCB.BFR.DA(BUFNUM)=DA;

   2199  1 000334   200004 470500       DONE         LDP0    @BUFNUM,,AUTO
         1 000335   000000 720100                    LXL0    0,,PR0
         1 000336   200005 471500                    LDP1    @DA,,AUTO
         1 000337   200011 473500                    LDP3    JDCB$,,AUTO
         1 000340   100000 236100                    LDQ     0,,PR1
         1 000341   300115 676110                    ERQ     77,X0,PR3
         1 000342   000032 376000 xsym               ANQ     B_VECTNIL+26
         1 000343   300115 656110                    ERSQ    77,X0,PR3

      542     2200    1          IF RETRY<4 THEN

   2200  1 000344   200013 235100                    LDA     RETRY,,AUTO
         1 000345   000004 115007                    CMPA    4,DL
         1 000346   000477 605000 1                  TPL     s:2216

PL6.E3A0      #004=FMD$REDBUF File=FMD$BUF.:E05TSI                               TUE 07/29/97 16:39 Page:113
      543     2201    2             DO;

      544     2202    2             T$=Q$;                       /* Save current request packet        */

   2202  1 000347   200037 236100                    LDQ     Q$,,AUTO
         1 000350   200040 756100                    STQ     T$,,AUTO

      545     2203    2             CALL NIQ$GET(Q$);

   2203  1 000351   200037 633500                    EPPR3   Q$,,AUTO
         1 000352   200046 453500                    STP3    @ERR+1,,AUTO
         1 000353   200046 630500                    EPPR0   @ERR+1,,AUTO
         1 000354   000017 631400 xsym               EPPR1   B_VECTNIL+15
         1 000355   000000 701000 xent               TSX1    NIQ$GET
         1 000356   000000 011000                    NOP     0

      546     2204    2             N$REQ.STATUS=SAVQ.STATUS;

   2204  1 000357   200032 235100                    LDA     SAVQ,,AUTO
         1 000360   000000 236003                    LDQ     0,DU
         1 000361   200037 470500                    LDP0    Q$,,AUTO
         1 000362   000014 757100                    STAQ    12,,PR0

      547     2205    2             N$REQ.TYC=SAVQ.TYC;

   2205  1 000363   200034 236100                    LDQ     SAVQ+2,,AUTO
         1 000364   200037 470500                    LDP0    Q$,,AUTO
         1 000365   000021 756100                    STQ     17,,PR0

      548     2206    2             N$REQ.REQID=SAVQ.REQID;

   2206  1 000366   200033 720100                    LXL0    SAVQ+1,,AUTO
         1 000367   200037 470500                    LDP0    Q$,,AUTO
         1 000370   000010 740100                    STX0    8,,PR0

      549     2207    2             CALL FMB$LOGERR(CODE,ERRNUM,1,DA,ADDR(SAVBUF),BFR1X,BFR2X,

PL6.E3A0      #004=FMD$REDBUF File=FMD$BUF.:E05TSI                               TUE 07/29/97 16:39 Page:114
   2207  1 000371   200025 630500                    EPPR0   SAVBUF,,AUTO
         1 000372   200046 450500                    STP0    @ERR+1,,AUTO
         1 000373   200037 631500                    EPPR1   Q$,,AUTO
         1 000374   200061 451500                    STP1    @ERR+12,,AUTO
         1 000375   000001 236000 xsym               LDQ     B_VECTNIL+1
         1 000376   200060 756100                    STQ     @ERR+11,,AUTO
         1 000377   200023 633500                    EPPR3   MISC,,AUTO
         1 000400   200057 453500                    STP3    @ERR+10,,AUTO
         1 000401   200022 634500                    EPPR4   BFR3X,,AUTO
         1 000402   200056 454500                    STP4    @ERR+9,,AUTO
         1 000403   200021 635500                    EPPR5   BFR2X,,AUTO
         1 000404   200055 455500                    STP5    @ERR+8,,AUTO
         1 000405   200020 636500                    EPPR6   BFR1X,,AUTO
         1 000406   200054 456500                    STP6    @ERR+7,,AUTO
         1 000407   200046 637500                    EPPR7   @ERR+1,,AUTO
         1 000410   200053 457500                    STP7    @ERR+6,,AUTO
         1 000411   200005 236100                    LDQ     @DA,,AUTO
         1 000412   200052 756100                    STQ     @ERR+5,,AUTO
         1 000413   000000 236000 2                  LDQ     0
         1 000414   200051 756100                    STQ     @ERR+4,,AUTO
         1 000415   200015 630500                    EPPR0   ERRNUM,,AUTO
         1 000416   200050 450500                    STP0    @ERR+3,,AUTO
         1 000417   200016 630500                    EPPR0   CODE,,AUTO
         1 000420   200047 450500                    STP0    @ERR+2,,AUTO
         1 000421   200047 630500                    EPPR0   @ERR+2,,AUTO
         1 000422   000010 631400 2                  EPPR1   8
         1 000423   000000 701000 xent               TSX1    FMB$LOGERR
         1 000424   000000 011000                    NOP     0

      550     2208    2                BFR3X,MISC,,Q$);
      551     2209    2             CALL NIQ$REL(Q$);

   2209  1 000425   200037 630500                    EPPR0   Q$,,AUTO
         1 000426   200046 450500                    STP0    @ERR+1,,AUTO
         1 000427   200046 630500                    EPPR0   @ERR+1,,AUTO
         1 000430   000017 631400 xsym               EPPR1   B_VECTNIL+15
         1 000431   000000 701000 xent               TSX1    NIQ$REL
PL6.E3A0      #004=FMD$REDBUF File=FMD$BUF.:E05TSI                               TUE 07/29/97 16:39 Page:115
         1 000432   000000 011000                    NOP     0

      552     2210    2             Q$=ADDR(NIL);

   2210  1 000433   000001 236000 xsym               LDQ     B_VECTNIL+1
         1 000434   200037 756100                    STQ     Q$,,AUTO

      553     2211    2             CALL FMB$LOGERR(CODE,ERRNUM,2,DA,BUF$,BFR1X,BFR2X,BFR3X,

   2211  1 000435   000004 235007                    LDA     4,DL
         1 000436   200013 135100                    SBLA    RETRY,,AUTO
         1 000437   200046 755100                    STA     @ERR+1,,AUTO
         1 000440   200040 630500                    EPPR0   T$,,AUTO
         1 000441   200061 450500                    STP0    @ERR+12,,AUTO
         1 000442   200060 756100                    STQ     @ERR+11,,AUTO
         1 000443   200046 631500                    EPPR1   @ERR+1,,AUTO
         1 000444   200057 451500                    STP1    @ERR+10,,AUTO
         1 000445   200022 633500                    EPPR3   BFR3X,,AUTO
         1 000446   200056 453500                    STP3    @ERR+9,,AUTO
         1 000447   200021 634500                    EPPR4   BFR2X,,AUTO
         1 000450   200055 454500                    STP4    @ERR+8,,AUTO
         1 000451   200020 635500                    EPPR5   BFR1X,,AUTO
         1 000452   200054 455500                    STP5    @ERR+7,,AUTO
         1 000453   200003 236100                    LDQ     @BUF$,,AUTO
         1 000454   200005 235100                    LDA     @DA,,AUTO
         1 000455   200052 757100                    STAQ    @ERR+5,,AUTO
         1 000456   000006 236000 2                  LDQ     6
         1 000457   200051 756100                    STQ     @ERR+4,,AUTO
         1 000460   200015 636500                    EPPR6   ERRNUM,,AUTO
         1 000461   200050 456500                    STP6    @ERR+3,,AUTO
         1 000462   200016 637500                    EPPR7   CODE,,AUTO
         1 000463   200047 457500                    STP7    @ERR+2,,AUTO
         1 000464   200047 630500                    EPPR0   @ERR+2,,AUTO
         1 000465   000010 631400 2                  EPPR1   8
         1 000466   000000 701000 xent               TSX1    FMB$LOGERR
         1 000467   000000 011000                    NOP     0

PL6.E3A0      #004=FMD$REDBUF File=FMD$BUF.:E05TSI                               TUE 07/29/97 16:39 Page:116
      554     2212    2                4-RETRY,,T$);
      555     2213    2             CALL NIQ$REL(T$);

   2213  1 000470   200040 630500                    EPPR0   T$,,AUTO
         1 000471   200046 450500                    STP0    @ERR+1,,AUTO
         1 000472   200046 630500                    EPPR0   @ERR+1,,AUTO
         1 000473   000017 631400 xsym               EPPR1   B_VECTNIL+15
         1 000474   000000 701000 xent               TSX1    NIQ$REL
         1 000475   000000 011000                    NOP     0

      556     2214    2             END;

   2214  1 000476   000510 710000 1                  TRA     s:2219

      557     2215    1          ELSE
      558     2216    1             IF Q$~=ADDR(NIL) THEN

   2216  1 000477   200037 236100                    LDQ     Q$,,AUTO
         1 000500   000001 116000 xsym               CMPQ    B_VECTNIL+1
         1 000501   000510 600000 1                  TZE     s:2219

      559     2217    1                CALL NIQ$REL(Q$);

   2217  1 000502   200037 633500                    EPPR3   Q$,,AUTO
         1 000503   200046 453500                    STP3    @ERR+1,,AUTO
         1 000504   200046 630500                    EPPR0   @ERR+1,,AUTO
         1 000505   000017 631400 xsym               EPPR1   B_VECTNIL+15
         1 000506   000000 701000 xent               TSX1    NIQ$REL
         1 000507   000000 011000                    NOP     0

      560     2218
      561     2219    1             RETURN;

   2219  1 000510   000000 702200 xent               TSX2  ! X66_ARET

      562     2220    1   ERR1:     CALL LOGERR(1);

PL6.E3A0      #004=FMD$REDBUF File=FMD$BUF.:E05TSI                               TUE 07/29/97 16:39 Page:117
   2220  1 000511   000000 236000 2     ERR1         LDQ     0
         1 000512   200045 756100                    STQ     SDA+4,,AUTO
         1 000513   001157 701000 1                  TSX1    LOGERR
         1 000514   000000 011000                    NOP     0

      563     2221    1   ERR:   IF Q$ ~= ADDR(NIL) THEN

   2221  1 000515   200037 236100       ERR          LDQ     Q$,,AUTO
         1 000516   000001 116000 xsym               CMPQ    B_VECTNIL+1
         1 000517   000526 600000 1                  TZE     s:2223

      564     2222    1             CALL NIQ$REL(Q$);

   2222  1 000520   200037 630500                    EPPR0   Q$,,AUTO
         1 000521   200046 450500                    STP0    @ERR+1,,AUTO
         1 000522   200046 630500                    EPPR0   @ERR+1,,AUTO
         1 000523   000017 631400 xsym               EPPR1   B_VECTNIL+15
         1 000524   000000 701000 xent               TSX1    NIQ$REL
         1 000525   000000 011000                    NOP     0

      565     2223    1          ALTRETURN;

   2223  1 000526   000000 702200 xent               TSX2  ! X66_AALT

      566     2224               %EJECT;
PL6.E3A0      #004=FMD$REDBUF File=FMD$BUF.:E05TSI                               TUE 07/29/97 16:39 Page:118
      567     2225        /*I*     NAME:     VERIFY
      568     2226                 PURPOSE:  To verify a buffer that we have found.
      569     2227                 DESCRIPTION:
      570     2228
      571     2229                      Depending on the granule type, check the stamp,
      572     2230                 ORG, and level.  Next check NAVX and AVAIL to make sure
      573     2231                 the make sense.  Then check the links if the file has
      574     2232                 any.  Call LOGERR to report any errors we might have
      575     2233                 found.
      576     2234        */
      577     2235               %EJECT;
PL6.E3A0      #004=FMD$REDBUF File=FMD$BUF.:E05TSI                               TUE 07/29/97 16:39 Page:119
      578     2236    1   VERIFY: PROC ALTRET;

   2236  1 000527   200042 741300       VERIFY       STX1  ! SDA+1,,AUTO

      579     2237        /* VERIFY LVL AND ORG IN GRANULE HEADER */
      580     2238    2          BUF$=FM$BUF$(F$DCB.BFR.BUFX(BUFNUM));

   2238  1 000530   200004 470500                    LDP0    @BUFNUM,,AUTO
         1 000531   000000 720100                    LXL0    0,,PR0
         1 000532   200011 471500                    LDP1    JDCB$,,AUTO
         1 000533   100115 236110                    LDQ     77,X0,PR1
         1 000534   000033 772000                    QRL     27
         1 000535   000037 376007                    ANQ     31,DL
         1 000536   000000 236006 xsym               LDQ     FM$BUF$,QL
         1 000537   200003 473500                    LDP3    @BUF$,,AUTO
         1 000540   300000 756100                    STQ     0,,PR3

      581     2239    2          STAMP.HASH=F$DCB.HASH;          /* File hash                          */

   2239  1 000541   200011 471500                    LDP1    JDCB$,,AUTO
         1 000542   100073 236100                    LDQ     59,,PR1
         1 000543   200017 552170                    STBQ    STAMP,'70'O,AUTO

      582     2240    2          STAMP.GMOD=DA;                  /* LOW ORDER 9 BITS OF DISK ADDR      */

   2240  1 000544   200005 474500                    LDP4    @DA,,AUTO
         1 000545   400000 236100                    LDQ     0,,PR4
         1 000546   200017 552104                    STBQ    STAMP,'04'O,AUTO

      583     2241        /* */
      584     2242    3          DO CASE(GTYP);

   2242  1 000547   200036 235100                    LDA     GTYP,,AUTO
         1 000550   000010 115007                    CMPA    8,DL
         1 000551   000553 602005 1                  TNC     s:2242+4,AL
         1 000552   001010 710000 1                  TRA     s:2325
         1 000553   001010 710000 1                  TRA     s:2325
PL6.E3A0      #004=FMD$REDBUF File=FMD$BUF.:E05TSI                               TUE 07/29/97 16:39 Page:120
         1 000554   000563 710000 1                  TRA     s:2244
         1 000555   000563 710000 1                  TRA     s:2244
         1 000556   000563 710000 1                  TRA     s:2244
         1 000557   000641 710000 1                  TRA     s:2271
         1 000560   000747 710000 1                  TRA     s:2303
         1 000561   000655 710000 1                  TRA     s:2279
         1 000562   000652 710000 1                  TRA     s:2275

      585     2243    3             CASE(FMGTGP,FMGTPAD,FMGTMAD);

      586     2244    3                STAMP.HASH=FM_HASH(GTYP);

   2244  1 000563   000000 236005 xsym               LDQ     FM_HASH,AL
         1 000564   000011 736000                    QLS     9
         1 000565   200017 552170                    STBQ    STAMP,'70'O,AUTO

      587     2245    3   DRCTRY:      IF FM$GRAN.STAMP~=STAMP THEN

   2245  1 000566   200003 470500       DRCTRY       LDP0    @BUF$,,AUTO
         1 000567   000000 471500                    LDP1    0,,PR0
         1 000570   100000 236100                    LDQ     0,,PR1
         1 000571   200017 116100                    CMPQ    STAMP,,AUTO
         1 000572   000601 600000 1                  TZE     s:2251

      588     2246    4                   DO;

      589     2247    4                   CALL LOGERR(5);

   2247  1 000573   000011 236000 2                  LDQ     9
         1 000574   200045 756100                    STQ     SDA+4,,AUTO
         1 000575   001157 701000 1                  TSX1    LOGERR
         1 000576   000000 011000                    NOP     0

      590     2248    4                   ALTRETURN;

   2248  1 000577   200042 221300                    LDX1  ! SDA+1,,AUTO
         1 000600   000000 702211                    TSX2  ! 0,X1
PL6.E3A0      #004=FMD$REDBUF File=FMD$BUF.:E05TSI                               TUE 07/29/97 16:39 Page:121

      591     2249    4                   END;
      592     2250
      593     2251    3                IF FM$GRAN.ORG~=0 THEN

   2251  1 000601   100001 236100                    LDQ     1,,PR1
         1 000602   036000 316007                    CANQ    15360,DL
         1 000603   000612 600000 1                  TZE     s:2257

      594     2252    4                   DO;

      595     2253    4                   CALL LOGERR(3);

   2253  1 000604   000012 236000 2                  LDQ     10
         1 000605   200045 756100                    STQ     SDA+4,,AUTO
         1 000606   001157 701000 1                  TSX1    LOGERR
         1 000607   000000 011000                    NOP     0

      596     2254    4                   ALTRETURN;

   2254  1 000610   200042 221300                    LDX1  ! SDA+1,,AUTO
         1 000611   000000 702211                    TSX2  ! 0,X1

      597     2255    4                   END;
      598     2256
      599     2257    3                IF FM$GRAN.LVL~=GTYP THEN

   2257  1 000612   100001 236100                    LDQ     1,,PR1
         1 000613   000016 772000                    QRL     14
         1 000614   000007 376007                    ANQ     7,DL
         1 000615   200036 116100                    CMPQ    GTYP,,AUTO
         1 000616   001010 600000 1                  TZE     s:2325

      600     2258    3                   IF GTYP~=FMGTFDSTAR THEN

   2258  1 000617   200036 235100                    LDA     GTYP,,AUTO
         1 000620   000007 115007                    CMPA    7,DL
PL6.E3A0      #004=FMD$REDBUF File=FMD$BUF.:E05TSI                               TUE 07/29/97 16:39 Page:122
         1 000621   000630 600000 1                  TZE     s:2264

      601     2259    4                   DO;

      602     2260    4                   CALL LOGERR(4);

   2260  1 000622   000013 236000 2                  LDQ     11
         1 000623   200045 756100                    STQ     SDA+4,,AUTO
         1 000624   001157 701000 1                  TSX1    LOGERR
         1 000625   000000 011000                    NOP     0

      603     2261    4                   ALTRETURN;

   2261  1 000626   200042 221300                    LDX1  ! SDA+1,,AUTO
         1 000627   000000 702211                    TSX2  ! 0,X1

      604     2262    4                   END;
      605     2263    3                ELSE
      606     2264    3                   IF FM$GRAN.LVL~=FMGTFD THEN

   2264  1 000630   000016 736000                    QLS     14
         1 000631   200000 116007                    CMPQ    65536,DL
         1 000632   001010 600000 1                  TZE     s:2325

      607     2265    4                      DO;

      608     2266    4                      CALL LOGERR(4);

   2266  1 000633   000013 236000 2                  LDQ     11
         1 000634   200045 756100                    STQ     SDA+4,,AUTO
         1 000635   001157 701000 1                  TSX1    LOGERR
         1 000636   000000 011000                    NOP     0

      609     2267    4                      ALTRETURN;

   2267  1 000637   200042 221300                    LDX1  ! SDA+1,,AUTO
         1 000640   000000 702211                    TSX2  ! 0,X1
PL6.E3A0      #004=FMD$REDBUF File=FMD$BUF.:E05TSI                               TUE 07/29/97 16:39 Page:123

      610     2268    4                      END;
      611     2269
      612     2270    3             CASE(FMGTFD);

      613     2271    3                CALL FMO$FDHASH(JDCB$,STAMP.HASH);

   2271  1 000641   200017 635500                    EPPR5   STAMP,,AUTO
         1 000642   200047 455500                    STP5    @ERR+2,,AUTO
         1 000643   200011 636500                    EPPR6   JDCB$,,AUTO
         1 000644   200046 456500                    STP6    @ERR+1,,AUTO
         1 000645   200046 630500                    EPPR0   @ERR+1,,AUTO
         1 000646   000020 631400 xsym               EPPR1   B_VECTNIL+16
         1 000647   000000 701000 xent               TSX1    FMO$FDHASH
         1 000650   000000 011000                    NOP     0

      614     2272    3                GOTO DRCTRY;

   2272  1 000651   000566 710000 1                  TRA     DRCTRY

      615     2273
      616     2274    3             CASE(FMGTFDSTAR);

      617     2275    3                STAMP.HASH=F$DCB.HASH;

   2275  1 000652   100073 236100                    LDQ     59,,PR1
         1 000653   200017 552170                    STBQ    STAMP,'70'O,AUTO

      618     2276    3                GOTO DRCTRY;

   2276  1 000654   000566 710000 1                  TRA     DRCTRY

      619     2277
      620     2278    3             CASE(FMGTFILE);

      621     2279    3                IF FM$GRAN.STAMP~=STAMP THEN

PL6.E3A0      #004=FMD$REDBUF File=FMD$BUF.:E05TSI                               TUE 07/29/97 16:39 Page:124
   2279  1 000655   300000 475500                    LDP5    0,,PR3
         1 000656   500000 236100                    LDQ     0,,PR5
         1 000657   200017 116100                    CMPQ    STAMP,,AUTO
         1 000660   000700 600000 1                  TZE     s:2290

      622     2280    4                   IF F$DCB.ORG=%RELATIVE# THEN DO;

   2280  1 000661   100032 236100                    LDQ     26,,PR1
         1 000662   777000 376003                    ANQ     -512,DU
         1 000663   005000 116003                    CMPQ    2560,DU
         1 000664   000672 601000 1                  TNZ     s:2286

      623     2281    4                   B$JIT.ERR=ERRDI;

   2281  1 000665   000047 236000 0                  LDQ     ERRDI
         1 000666   000000 476400 xsym               LDP6    B$JIT$
         1 000667   600012 756100                    STQ     10,,PR6

      624     2282    4                   RETURN;

   2282  1 000670   200042 221300                    LDX1  ! SDA+1,,AUTO
         1 000671   000001 702211                    TSX2  ! 1,X1

      625     2283    4                   END;
      626     2284    3                ELSE
      627     2285    4                   DO;

      628     2286    4                   CALL LOGERR(5);

   2286  1 000672   000011 236000 2                  LDQ     9
         1 000673   200045 756100                    STQ     SDA+4,,AUTO
         1 000674   001157 701000 1                  TSX1    LOGERR
         1 000675   000000 011000                    NOP     0

      629     2287    4                   ALTRETURN;

   2287  1 000676   200042 221300                    LDX1  ! SDA+1,,AUTO
PL6.E3A0      #004=FMD$REDBUF File=FMD$BUF.:E05TSI                               TUE 07/29/97 16:39 Page:125
         1 000677   000000 702211                    TSX2  ! 0,X1

      630     2288    4                   END;
      631     2289
      632     2290    3                IF F$DCB.ORG ~= FM$GRAN.ORG THEN

   2290  1 000700   500001 236100                    LDQ     1,,PR5
         1 000701   000012 772000                    QRL     10
         1 000702   000017 376007                    ANQ     15,DL
         1 000703   200046 756100                    STQ     @ERR+1,,AUTO
         1 000704   100032 236100                    LDQ     26,,PR1
         1 000705   000033 772000                    QRL     27
         1 000706   200046 116100                    CMPQ    @ERR+1,,AUTO
         1 000707   000716 600000 1                  TZE     s:2296

      633     2291    4                   DO;

      634     2292    4                   CALL LOGERR(3);

   2292  1 000710   000012 236000 2                  LDQ     10
         1 000711   200045 756100                    STQ     SDA+4,,AUTO
         1 000712   001157 701000 1                  TSX1    LOGERR
         1 000713   000000 011000                    NOP     0

      635     2293    4                   ALTRETURN;

   2293  1 000714   200042 221300                    LDX1  ! SDA+1,,AUTO
         1 000715   000000 702211                    TSX2  ! 0,X1

      636     2294    4                   END;
      637     2295
      638     2296    3               IF F$DCB.LVL~=FM$GRAN.LVL AND ~F$DCB.SEZ_OK THEN

   2296  1 000716   300000 475500                    LDP5    0,,PR3
         1 000717   500001 236100                    LDQ     1,,PR5
         1 000720   000016 772000                    QRL     14
         1 000721   000007 376007                    ANQ     7,DL
PL6.E3A0      #004=FMD$REDBUF File=FMD$BUF.:E05TSI                               TUE 07/29/97 16:39 Page:126
         1 000722   200046 756100                    STQ     @ERR+1,,AUTO
         1 000723   100067 236100                    LDQ     55,,PR1
         1 000724   000036 772000                    QRL     30
         1 000725   000007 376007                    ANQ     7,DL
         1 000726   200046 116100                    CMPQ    @ERR+1,,AUTO
         1 000727   001010 600000 1                  TZE     s:2325
         1 000730   100064 236100                    LDQ     52,,PR1
         1 000731   000017 736000                    QLS     15
         1 000732   400000 376003                    ANQ     -131072,DU
         1 000733   400000 676003                    ERQ     -131072,DU
         1 000734   001010 600000 1                  TZE     s:2325

      639     2297    4                  IF F$DCB.ACS ~= %BLOCK# THEN DO;

   2297  1 000735   100036 236100                    LDQ     30,,PR1
         1 000736   000777 376007                    ANQ     511,DL
         1 000737   000003 116007                    CMPQ    3,DL
         1 000740   001010 600000 1                  TZE     s:2325

      640     2298    4                     CALL LOGERR(4);

   2298  1 000741   000013 236000 2                  LDQ     11
         1 000742   200045 756100                    STQ     SDA+4,,AUTO
         1 000743   001157 701000 1                  TSX1    LOGERR
         1 000744   000000 011000                    NOP     0

      641     2299    4                     ALTRETURN;

   2299  1 000745   200042 221300                    LDX1  ! SDA+1,,AUTO
         1 000746   000000 702211                    TSX2  ! 0,X1

      642     2300    4                     END;
      643     2301
      644     2302    3             CASE(FMGTFIT);

      645     2303    3                IF FM$GRAN.LVL=6 THEN

PL6.E3A0      #004=FMD$REDBUF File=FMD$BUF.:E05TSI                               TUE 07/29/97 16:39 Page:127
   2303  1 000747   300000 475500                    LDP5    0,,PR3
         1 000750   500001 236100                    LDQ     1,,PR5
         1 000751   340000 376007                    ANQ     114688,DL
         1 000752   300000 116007                    CMPQ    98304,DL
         1 000753   000766 601000 1                  TNZ     s:2312

      646     2304    3                   IF FM$GRAN.STAMP.GMOD~=STAMP.GMOD THEN

   2304  1 000754   500000 236100                    LDQ     0,,PR5
         1 000755   200017 676100                    ERQ     STAMP,,AUTO
         1 000756   000777 376007                    ANQ     511,DL
         1 000757   001010 600000 1                  TZE     s:2325

      647     2305    4                      DO;

      648     2306    4                      CALL LOGERR(5);

   2306  1 000760   000011 236000 2                  LDQ     9
         1 000761   200045 756100                    STQ     SDA+4,,AUTO
         1 000762   001157 701000 1                  TSX1    LOGERR
         1 000763   000000 011000                    NOP     0

      649     2307    4                      ALTRETURN;

   2307  1 000764   200042 221300                    LDX1  ! SDA+1,,AUTO
         1 000765   000000 702211                    TSX2  ! 0,X1

      650     2308    4                      END;
      651     2309    3                   ELSE ;
      652     2310    3                ELSE
      653     2311    4                   DO;

      654     2312    4                   IF FM$GRAN.STAMP.GMOD ~= 0 THEN

   2312  1 000766   500000 236100                    LDQ     0,,PR5
         1 000767   000777 316007                    CANQ    511,DL
         1 000770   000777 600000 1                  TZE     s:2317
PL6.E3A0      #004=FMD$REDBUF File=FMD$BUF.:E05TSI                               TUE 07/29/97 16:39 Page:128

      655     2313    5                      DO;

      656     2314    5                      CALL LOGERR(5);

   2314  1 000771   000011 236000 2                  LDQ     9
         1 000772   200045 756100                    STQ     SDA+4,,AUTO
         1 000773   001157 701000 1                  TSX1    LOGERR
         1 000774   000000 011000                    NOP     0

      657     2315    5                      ALTRETURN;

   2315  1 000775   200042 221300                    LDX1  ! SDA+1,,AUTO
         1 000776   000000 702211                    TSX2  ! 0,X1

      658     2316    5                      END;
      659     2317    4                   IF FM$GRAN.LVL ~= 0 THEN

   2317  1 000777   500001 236100                    LDQ     1,,PR5
         1 001000   340000 316007                    CANQ    114688,DL
         1 001001   001010 600000 1                  TZE     s:2325

      660     2318    5                      DO;

      661     2319    5                      CALL LOGERR(4);

   2319  1 001002   000013 236000 2                  LDQ     11
         1 001003   200045 756100                    STQ     SDA+4,,AUTO
         1 001004   001157 701000 1                  TSX1    LOGERR
         1 001005   000000 011000                    NOP     0

      662     2320    5                      ALTRETURN;

   2320  1 001006   200042 221300                    LDX1  ! SDA+1,,AUTO
         1 001007   000000 702211                    TSX2  ! 0,X1

      663     2321    5                      END;
PL6.E3A0      #004=FMD$REDBUF File=FMD$BUF.:E05TSI                               TUE 07/29/97 16:39 Page:129
      664     2322    4                END;
      665     2323    3          END;

      666     2324        /* */
      667     2325    2          IF FM$GRAN.NAVX+FM$GRAN.AVAIL > 1024 THEN

   2325  1 001010   200003 470500                    LDP0    @BUF$,,AUTO
         1 001011   000000 471500                    LDP1    0,,PR0
         1 001012   100001 236100                    LDQ     1,,PR1
         1 001013   001777 376007                    ANQ     1023,DL
         1 001014   200046 756100                    STQ     @ERR+1,,AUTO
         1 001015   100001 236100                    LDQ     1,,PR1
         1 001016   000022 772000                    QRL     18
         1 001017   200046 036100                    ADLQ    @ERR+1,,AUTO
         1 001020   002001 116007                    CMPQ    1025,DL
         1 001021   001030 602000 1                  TNC     s:2331

      668     2326    3             DO;

      669     2327    3             CALL LOGERR(6);

   2327  1 001022   000014 236000 2                  LDQ     12
         1 001023   200045 756100                    STQ     SDA+4,,AUTO
         1 001024   001157 701000 1                  TSX1    LOGERR
         1 001025   000000 011000                    NOP     0

      670     2328    3             ALTRETURN;

   2328  1 001026   200042 221300                    LDX1  ! SDA+1,,AUTO
         1 001027   000000 702211                    TSX2  ! 0,X1

      671     2329    3             END;
      672     2330
      673     2331    2          IF NOT FM$GRAN.HDR THEN

   2331  1 001030   000000 471500                    LDP1    0,,PR0
         1 001031   100001 236100                    LDQ     1,,PR1
PL6.E3A0      #004=FMD$REDBUF File=FMD$BUF.:E05TSI                               TUE 07/29/97 16:39 Page:130
         1 001032   400000 316007                    CANQ    -131072,DL
         1 001033   001036 601000 1                  TNZ     s:2334

      674     2332    2             RETURN;

   2332  1 001034   200042 221300                    LDX1  ! SDA+1,,AUTO
         1 001035   000001 702211                    TSX2  ! 1,X1

      675     2333        /* */
      676     2334    2          IF FM$GRAN.FCEX>FM$GRAN.NAVX THEN

   2334  1 001036   100001 220100                    LDX0    1,,PR1
         1 001037   100002 100100                    CMPX0   2,,PR1
         1 001040   001047 603000 1                  TRC     s:2340

      677     2335    3             DO;

      678     2336    3             CALL LOGERR(7);

   2336  1 001041   000015 236000 2                  LDQ     13
         1 001042   200045 756100                    STQ     SDA+4,,AUTO
         1 001043   001157 701000 1                  TSX1    LOGERR
         1 001044   000000 011000                    NOP     0

      679     2337    3             ALTRETURN;

   2337  1 001045   200042 221300                    LDX1  ! SDA+1,,AUTO
         1 001046   000000 702211                    TSX2  ! 0,X1

      680     2338    3             END;
      681     2339        /* */
      682     2340    2          IF GTYP~=FMGTFIT THEN

   2340  1 001047   200036 235100                    LDA     GTYP,,AUTO
         1 001050   000005 115007                    CMPA    5,DL
         1 001051   001124 600000 1                  TZE     s:2355

PL6.E3A0      #004=FMD$REDBUF File=FMD$BUF.:E05TSI                               TUE 07/29/97 16:39 Page:131
      683     2341    3             DO;   /* DONT CHECK FIT LINKS */

      684     2342    3             TDA=BUF$->FM$GRAN.BLINK;

   2342  1 001052   100003 235100                    LDA     3,,PR1
         1 001053   200012 755100                    STA     TDA,,AUTO

      685     2343    3             IF TDA~=0 THEN

   2343  1 001054   001076 600000 1                  TZE     s:2348

      686     2344    3                IF BUF$->FM$GRAN.ORG>0 THEN

   2344  1 001055   000000 471500                    LDP1    0,,PR0
         1 001056   100001 236100                    LDQ     1,,PR1
         1 001057   036000 316007                    CANQ    15360,DL
         1 001060   001070 600000 1                  TZE     s:2347

      687     2345    3                   CALL FAF$CHKDAFR(TDA) ALTRET(ERR8);

   2345  1 001061   200012 633500                    EPPR3   TDA,,AUTO
         1 001062   200046 453500                    STP3    @ERR+1,,AUTO
         1 001063   200046 630500                    EPPR0   @ERR+1,,AUTO
         1 001064   000017 631400 xsym               EPPR1   B_VECTNIL+15
         1 001065   000000 701000 xent               TSX1    FAF$CHKDAFR
         1 001066   001151 702000 1                  TSX2    ERR8
         1 001067   001076 710000 1                  TRA     s:2348

      688     2346    3                ELSE                      /* DIRECTORY - BLINK IS SET-RELATIVE  */
      689     2347    3                   CALL FMB$CHKDA(TDA) ALTRET(ERR8);

   2347  1 001070   200012 633500                    EPPR3   TDA,,AUTO
         1 001071   200046 453500                    STP3    @ERR+1,,AUTO
         1 001072   200046 630500                    EPPR0   @ERR+1,,AUTO
         1 001073   000017 631400 xsym               EPPR1   B_VECTNIL+15
         1 001074   000000 701000 xent               TSX1    FMB$CHKDA
         1 001075   001151 702000 1                  TSX2    ERR8
PL6.E3A0      #004=FMD$REDBUF File=FMD$BUF.:E05TSI                               TUE 07/29/97 16:39 Page:132

      690     2348    3                TDA=BUF$->FM$GRAN.FLINK;

   2348  1 001076   200003 470500                    LDP0    @BUF$,,AUTO
         1 001077   000000 471500                    LDP1    0,,PR0
         1 001100   100004 235100                    LDA     4,,PR1
         1 001101   200012 755100                    STA     TDA,,AUTO

      691     2349    3             IF TDA~=0 THEN

   2349  1 001102   001124 600000 1                  TZE     s:2355

      692     2350    3                IF BUF$->FM$GRAN.ORG>0 THEN

   2350  1 001103   000000 471500                    LDP1    0,,PR0
         1 001104   100001 236100                    LDQ     1,,PR1
         1 001105   036000 316007                    CANQ    15360,DL
         1 001106   001116 600000 1                  TZE     s:2353

      693     2351    3                   CALL FAF$CHKDAFR(TDA) ALTRET(ERR8);

   2351  1 001107   200012 633500                    EPPR3   TDA,,AUTO
         1 001110   200046 453500                    STP3    @ERR+1,,AUTO
         1 001111   200046 630500                    EPPR0   @ERR+1,,AUTO
         1 001112   000017 631400 xsym               EPPR1   B_VECTNIL+15
         1 001113   000000 701000 xent               TSX1    FAF$CHKDAFR
         1 001114   001151 702000 1                  TSX2    ERR8
         1 001115   001124 710000 1                  TRA     s:2355

      694     2352    3                ELSE                      /* DIRECTORY - FLINK IS SET-RELATIVE  */
      695     2353    3                   CALL FMB$CHKDA(TDA) ALTRET(ERR8);

   2353  1 001116   200012 633500                    EPPR3   TDA,,AUTO
         1 001117   200046 453500                    STP3    @ERR+1,,AUTO
         1 001120   200046 630500                    EPPR0   @ERR+1,,AUTO
         1 001121   000017 631400 xsym               EPPR1   B_VECTNIL+15
         1 001122   000000 701000 xent               TSX1    FMB$CHKDA
PL6.E3A0      #004=FMD$REDBUF File=FMD$BUF.:E05TSI                               TUE 07/29/97 16:39 Page:133
         1 001123   001151 702000 1                  TSX2    ERR8

      696     2354    3             END;

      697     2355    2          IF ADDR(LCDA) ~= ADDR(NIL) AND LCDA >= 0 THEN

   2355  1 001124   200007 236100                    LDQ     @LCDA,,AUTO
         1 001125   000001 116000 xsym               CMPQ    B_VECTNIL+1
         1 001126   001147 600000 1                  TZE     s:2361
         1 001127   200007 470500                    LDP0    @LCDA,,AUTO
         1 001130   000000 235100                    LDA     0,,PR0
         1 001131   001147 604000 1                  TMI     s:2361

      698     2356    2             IF LCDA~=FM$GRAN.BLINK AND LCDA~=FM$GRAN.FLINK THEN

   2356  1 001132   200003 471500                    LDP1    @BUF$,,AUTO
         1 001133   100000 473500                    LDP3    0,,PR1
         1 001134   000000 236100                    LDQ     0,,PR0
         1 001135   300003 116100                    CMPQ    3,,PR3
         1 001136   001147 600000 1                  TZE     s:2361
         1 001137   300004 116100                    CMPQ    4,,PR3
         1 001140   001147 600000 1                  TZE     s:2361

      699     2357    3                DO;

      700     2358    3                CALL LOGERR(10);

   2358  1 001141   000016 236000 2                  LDQ     14
         1 001142   200045 756100                    STQ     SDA+4,,AUTO
         1 001143   001157 701000 1                  TSX1    LOGERR
         1 001144   000000 011000                    NOP     0

      701     2359    3                ALTRETURN;

   2359  1 001145   200042 221300                    LDX1  ! SDA+1,,AUTO
         1 001146   000000 702211                    TSX2  ! 0,X1

PL6.E3A0      #004=FMD$REDBUF File=FMD$BUF.:E05TSI                               TUE 07/29/97 16:39 Page:134
      702     2360    3                END;
      703     2361    2          RETURN;

   2361  1 001147   200042 221300                    LDX1  ! SDA+1,,AUTO
         1 001150   000001 702211                    TSX2  ! 1,X1

      704     2362    2   ERR8:  CALL LOGERR(8);

   2362  1 001151   000017 236000 2     ERR8         LDQ     15
         1 001152   200045 756100                    STQ     SDA+4,,AUTO
         1 001153   001157 701000 1                  TSX1    LOGERR
         1 001154   000000 011000                    NOP     0

      705     2363    2          ALTRETURN;

   2363  1 001155   200042 221300                    LDX1  ! SDA+1,,AUTO
         1 001156   000000 702211                    TSX2  ! 0,X1

      706     2364    2          END VERIFY;
      707     2365               %EJECT;
PL6.E3A0      #004=FMD$REDBUF File=FMD$BUF.:E05TSI                               TUE 07/29/97 16:39 Page:135
      708     2366        /*I*     NAME:     LOGERR
      709     2367                 PURPOSE:  To report any errors we found while checking out
      710     2368                           the granule
      711     2369                 DESCRIPTION:
      712     2370
      713     2371                      Use MISC to save some interesting information depending
      714     2372                 on the error number.  Get the error type.  If the RETRY
      715     2373                 value is greater than 5, then snap to try to find out
      716     2374                 what went wrong.  If retry is greater than zero, then
      717     2375                 maybe we got a disk error, try again.
      718     2376
      719     2377                      Log the error, the set the error code in the JIT.
      720     2378        */
      721     2379                 %EJECT;
PL6.E3A0      #004=FMD$REDBUF File=FMD$BUF.:E05TSI                               TUE 07/29/97 16:39 Page:136
      722     2380    1   LOGERR: PROC(ERR);

   2380  1 001157   200044 741300       LOGERR       STX1  ! SDA+3,,AUTO

      723     2381    2   DCL ERR SBIN;
      724     2382        /* */
      725     2383    2          ERRNUM=ERR;

   2383  1 001160   200045 470500                    LDP0    @ERR,,AUTO
         1 001161   000000 235100                    LDA     0,,PR0
         1 001162   200015 755100                    STA     ERRNUM,,AUTO

      726     2384    3          DO CASE(ERR);

   2384  1 001163   000000 235100                    LDA     0,,PR0
         1 001164   000013 115007                    CMPA    11,DL
         1 001165   001167 602005 1                  TNC     s:2384+4,AL
         1 001166   001304 710000 1                  TRA     s:2425
         1 001167   001304 710000 1                  TRA     s:2425
         1 001170   001202 710000 1                  TRA     s:2386
         1 001171   001236 710000 1                  TRA     s:2398
         1 001172   001242 710000 1                  TRA     s:2401
         1 001173   001244 710000 1                  TRA     s:2404
         1 001174   001252 710000 1                  TRA     s:2407
         1 001175   001255 710000 1                  TRA     s:2410
         1 001176   001257 710000 1                  TRA     s:2413
         1 001177   001261 710000 1                  TRA     s:2416
         1 001200   001304 710000 1                  TRA     s:2425
         1 001201   001301 710000 1                  TRA     s:2422

      727     2385    3             CASE(1);   /* BAD DA */

      728     2386    3                CALL FMB$ERRTYP(CODE);

   2386  1 001202   200016 631500                    EPPR1   CODE,,AUTO
         1 001203   200046 451500                    STP1    @ERR+1,,AUTO
         1 001204   200046 630500                    EPPR0   @ERR+1,,AUTO
PL6.E3A0      #004=FMD$REDBUF File=FMD$BUF.:E05TSI                               TUE 07/29/97 16:39 Page:137
         1 001205   000017 631400 xsym               EPPR1   B_VECTNIL+15
         1 001206   000000 701000 xent               TSX1    FMB$ERRTYP
         1 001207   000000 011000                    NOP     0

      729     2387    3                BFR1X=0;

   2387  1 001210   200020 450100                    STZ     BFR1X,,AUTO

      730     2388    3                BFR2X=0;

   2388  1 001211   200021 450100                    STZ     BFR2X,,AUTO

      731     2389    3                BFR3X=0;

   2389  1 001212   200022 450100                    STZ     BFR3X,,AUTO

      732     2390    3                BUF$=ADDR(NIL);

   2390  1 001213   000001 236000 xsym               LDQ     B_VECTNIL+1
         1 001214   200003 470500                    LDP0    @BUF$,,AUTO
         1 001215   000000 756100                    STQ     0,,PR0

      733     2391    3                IF DA > FM_FRMAX OR F$DCB.CFU$=ADDR(NIL) THEN

   2391  1 001216   200005 471500                    LDP1    @DA,,AUTO
         1 001217   000000 236000 xsym               LDQ     FM_FRMAX
         1 001220   100000 116100                    CMPQ    0,,PR1
         1 001221   001226 602000 1                  TNC     s:2392
         1 001222   200011 473500                    LDP3    JDCB$,,AUTO
         1 001223   300066 236100                    LDQ     54,,PR3
         1 001224   000001 116000 xsym               CMPQ    B_VECTNIL+1
         1 001225   001231 601000 1                  TNZ     s:2394

      734     2392    3                   MISC=-1;

   2392  1 001226   000001 335007                    LCA     1,DL
         1 001227   200023 755100                    STA     MISC,,AUTO
PL6.E3A0      #004=FMD$REDBUF File=FMD$BUF.:E05TSI                               TUE 07/29/97 16:39 Page:138
         1 001230   001235 710000 1                  TRA     s:2395

      735     2393    3                ELSE
      736     2394    3                   MISC=F$DCB.CFU$->FM$CFU.UGRANS;

   2394  1 001231   300066 474500                    LDP4    54,,PR3
         1 001232   400004 236100                    LDQ     4,,PR4
         1 001233   000032 376000 xsym               ANQ     B_VECTNIL+26
         1 001234   200023 756100                    STQ     MISC,,AUTO

      737     2395    3                GOTO LOG;

   2395  1 001235   001467 710000 1                  TRA     LOG

      738     2396
      739     2397    3             CASE(2);

      740     2398    3                MISC=BITBIN(N$REQ.TYC);

   2398  1 001236   200037 471500                    LDP1    Q$,,AUTO
         1 001237   100021 235100                    LDA     17,,PR1
         1 001240   200023 755100                    STA     MISC,,AUTO
         1 001241   001304 710000 1                  TRA     s:2425

      741     2399
      742     2400    3             CASE(3);   /* ORG WRONG */

      743     2401    3                MISC=0;

   2401  1 001242   200023 450100                    STZ     MISC,,AUTO
         1 001243   001304 710000 1                  TRA     s:2425

      744     2402
      745     2403    3             CASE(4);   /* LVL WRONG */

      746     2404    3                MISC=F$DCB.LVL;

PL6.E3A0      #004=FMD$REDBUF File=FMD$BUF.:E05TSI                               TUE 07/29/97 16:39 Page:139
   2404  1 001244   200011 471500                    LDP1    JDCB$,,AUTO
         1 001245   100067 236100                    LDQ     55,,PR1
         1 001246   000036 772000                    QRL     30
         1 001247   000007 376007                    ANQ     7,DL
         1 001250   200023 756100                    STQ     MISC,,AUTO
         1 001251   001304 710000 1                  TRA     s:2425

      747     2405
      748     2406    3             CASE(5);   /* STAMP WRONG  */

      749     2407    3                MISC=STMPUBIN;

   2407  1 001252   200017 236100                    LDQ     STAMP,,AUTO
         1 001253   200023 756100                    STQ     MISC,,AUTO
         1 001254   001304 710000 1                  TRA     s:2425

      750     2408
      751     2409    3             CASE(6);   /* NAVX+AVAIL BAD */

      752     2410    3                MISC=0;

   2410  1 001255   200023 450100                    STZ     MISC,,AUTO
         1 001256   001304 710000 1                  TRA     s:2425

      753     2411
      754     2412    3             CASE(7);   /* FECX TOO LARGE */

      755     2413    3                MISC=0;

   2413  1 001257   200023 450100                    STZ     MISC,,AUTO
         1 001260   001304 710000 1                  TRA     s:2425

      756     2414
      757     2415    3             CASE(8);   /* BLINK OR FLINK IS BAD DISC ADDRESS */

      758     2416    3                IF DA > FM_FRMAX OR F$DCB.CFU$=ADDR(NIL) THEN

PL6.E3A0      #004=FMD$REDBUF File=FMD$BUF.:E05TSI                               TUE 07/29/97 16:39 Page:140
   2416  1 001261   200005 471500                    LDP1    @DA,,AUTO
         1 001262   000000 236000 xsym               LDQ     FM_FRMAX
         1 001263   100000 116100                    CMPQ    0,,PR1
         1 001264   001271 602000 1                  TNC     s:2417
         1 001265   200011 473500                    LDP3    JDCB$,,AUTO
         1 001266   300066 236100                    LDQ     54,,PR3
         1 001267   000001 116000 xsym               CMPQ    B_VECTNIL+1
         1 001270   001274 601000 1                  TNZ     s:2419

      759     2417    3                   MISC=-1;

   2417  1 001271   000001 336007                    LCQ     1,DL
         1 001272   200023 756100                    STQ     MISC,,AUTO
         1 001273   001304 710000 1                  TRA     s:2425

      760     2418    3                ELSE
      761     2419    3                   MISC=F$DCB.CFU$->FM$CFU.UGRANS;

   2419  1 001274   300066 474500                    LDP4    54,,PR3
         1 001275   400004 236100                    LDQ     4,,PR4
         1 001276   000032 376000 xsym               ANQ     B_VECTNIL+26
         1 001277   200023 756100                    STQ     MISC,,AUTO
         1 001300   001304 710000 1                  TRA     s:2425

      762     2420
      763     2421    3             CASE(10);

      764     2422    3                MISC=LCDA;

   2422  1 001301   200007 471500                    LDP1    @LCDA,,AUTO
         1 001302   100000 235100                    LDA     0,,PR1
         1 001303   200023 755100                    STA     MISC,,AUTO

      765     2423    3          END;   /* CASE */

      766     2424
      767     2425    2          CALL FMB$ERRTYP(CODE);          /* CALC ERROR CODE                    */
PL6.E3A0      #004=FMD$REDBUF File=FMD$BUF.:E05TSI                               TUE 07/29/97 16:39 Page:141

   2425  1 001304   200016 631500                    EPPR1   CODE,,AUTO
         1 001305   200046 451500                    STP1    @ERR+1,,AUTO
         1 001306   200046 630500                    EPPR0   @ERR+1,,AUTO
         1 001307   000017 631400 xsym               EPPR1   B_VECTNIL+15
         1 001310   000000 701000 xent               TSX1    FMB$ERRTYP
         1 001311   000000 011000                    NOP     0

      768     2426    2          BFR1X=BFRTBL1(ERRNUM);

   2426  1 001312   200015 720100                    LXL0    ERRNUM,,AUTO
         1 001313   000000 236010 0                  LDQ     BFRTBL1,X0
         1 001314   000041 772000                    QRL     33
         1 001315   200020 756100                    STQ     BFR1X,,AUTO

      769     2427    2          BFR2X=BFRTBL2(ERRNUM);

   2427  1 001316   000013 236010 0                  LDQ     BFRTBL2,X0
         1 001317   000041 772000                    QRL     33
         1 001320   200021 756100                    STQ     BFR2X,,AUTO

      770     2428    2          BFR3X=BFRTBL3(ERRNUM);

   2428  1 001321   000026 236010 0                  LDQ     BFRTBL3,X0
         1 001322   000041 772000                    QRL     33
         1 001323   200022 756100                    STQ     BFR3X,,AUTO

      771     2429
      772     2430    2          IF RETRY>=4 THEN

   2430  1 001324   200013 235100                    LDA     RETRY,,AUTO
         1 001325   000004 115007                    CMPA    4,DL
         1 001326   001352 604000 1                  TMI     s:2442

      773     2431    3             DO;

      774     2432    3             IF BUF$~=ADDR(NIL) THEN
PL6.E3A0      #004=FMD$REDBUF File=FMD$BUF.:E05TSI                               TUE 07/29/97 16:39 Page:142

   2432  1 001327   200003 470500                    LDP0    @BUF$,,AUTO
         1 001330   000000 236100                    LDQ     0,,PR0
         1 001331   000001 116000 xsym               CMPQ    B_VECTNIL+1
         1 001332   001337 600000 1                  TZE     s:2434

      775     2433    3                SAVBUF=FM$GRAN;           /* Save bad header                    */

   2433  1 001333   000000 471500                    LDP1    0,,PR0
         1 001334   000100 100500                    MLR     fill='000'O
         1 001335   100000 000024                    ADSC9   0,,PR1                   cn=0,n=20
         1 001336   200025 000024                    ADSC9   SAVBUF,,AUTO             cn=0,n=20

      776     2434    3             IF Q$~=ADDR(NIL) THEN

   2434  1 001337   200037 236100                    LDQ     Q$,,AUTO
         1 001340   000001 116000 xsym               CMPQ    B_VECTNIL+1
         1 001341   001352 600000 1                  TZE     s:2442

      777     2435    4                DO;

      778     2436    4                SAVQ.STATUS=N$REQ.STATUS;

   2436  1 001342   200037 471500                    LDP1    Q$,,AUTO
         1 001343   100014 236100                    LDQ     12,,PR1
         1 001344   200032 756100                    STQ     SAVQ,,AUTO

      779     2437    4                SAVQ.TYC=N$REQ.TYC;

   2437  1 001345   100021 236100                    LDQ     17,,PR1
         1 001346   200034 756100                    STQ     SAVQ+2,,AUTO

      780     2438    4                SAVQ.REQID=N$REQ.REQID;

   2438  1 001347   100010 236100                    LDQ     8,,PR1
         1 001350   000022 772000                    QRL     18
         1 001351   200033 756100                    STQ     SAVQ+1,,AUTO
PL6.E3A0      #004=FMD$REDBUF File=FMD$BUF.:E05TSI                               TUE 07/29/97 16:39 Page:143

      781     2439    4                END;

      782     2440    3             END;

      783     2441
      784     2442    2          IF RETRY>=5 THEN

   2442  1 001352   000005 115007                    CMPA    5,DL
         1 001353   001435 604000 1                  TMI     s:2467

      785     2443    2             IF ERRNUM=5 AND FM$GRAN.STAMP.HASH=0 AND GTYP=FMGTFILE THEN

   2443  1 001354   200015 236100                    LDQ     ERRNUM,,AUTO
         1 001355   000005 116007                    CMPQ    5,DL
         1 001356   001373 601000 1                  TNZ     s:2450
         1 001357   200003 470500                    LDP0    @BUF$,,AUTO
         1 001360   000000 471500                    LDP1    0,,PR0
         1 001361   100000 236100                    LDQ     0,,PR1
         1 001362   000020 316000 2                  CANQ    16
         1 001363   001373 601000 1                  TNZ     s:2450
         1 001364   200036 235100                    LDA     GTYP,,AUTO
         1 001365   000006 115007                    CMPA    6,DL
         1 001366   001373 601000 1                  TNZ     s:2450

      786     2444    3                DO;

      787     2445    3                RREAD=1;

   2445  1 001367   000001 235007                    LDA     1,DL
         1 001370   200014 755100                    STA     RREAD,,AUTO

      788     2446    3                RETURN;

   2446  1 001371   200044 221300                    LDX1  ! SDA+3,,AUTO
         1 001372   000001 702211                    TSX2  ! 1,X1

PL6.E3A0      #004=FMD$REDBUF File=FMD$BUF.:E05TSI                               TUE 07/29/97 16:39 Page:144
      789     2447    3                END;
      790     2448    2             ELSE
      791     2449    3                DO;

      792     2450    3                IF FLAG = 1 THEN

   2450  1 001373   200024 235100                    LDA     FLAG,,AUTO
         1 001374   000001 115007                    CMPA    1,DL
         1 001375   001400 601000 1                  TNZ     s:2452

      793     2451    3                   CALL SC_FMD100;

   2451  1 001376   000000 713400 xsym               CLIMB   SC_FMD100
         1 001377   000000 600000 xsid               climb   nvectors=         0

      794     2452    3                IF F$DCB.BFR1.CX(BUFNUM) > 0 THEN

   2452  1 001400   200004 470500                    LDP0    @BUFNUM,,AUTO
         1 001401   000000 720100                    LXL0    0,,PR0
         1 001402   200011 471500                    LDP1    JDCB$,,AUTO
         1 001403   100122 721110                    LXL1    82,X0,PR1
         1 001404   001427 600000 1                  TZE     s:2458

      795     2453    4                   DO;

      796     2454    4                   FMC$CACHETBL.FLAGS.ERR(F$DCB.BFR1.CX(BUFNUM))='1'B;

   2454  1 001405   100122 236110                    LDQ     82,X0,PR1
         1 001406   777777 376007                    ANQ     -1,DL
         1 001407   000006 402007                    MPY     6,DL
         1 001410   000000 473400 xsym               LDP3    FMC_CACHE$
         1 001411   000000 622006                    EAX2    0,QL
         1 001412   000002 236007                    LDQ     2,DL
         1 001413   300004 256112                    ORSQ    4,X2,PR3

      797     2455    4                   CALL FMC$FINISH(BUFNUM, 0, 0, FLAG);

PL6.E3A0      #004=FMD$REDBUF File=FMD$BUF.:E05TSI                               TUE 07/29/97 16:39 Page:145
   2455  1 001414   200024 631500                    EPPR1   FLAG,,AUTO
         1 001415   200051 451500                    STP1    @ERR+4,,AUTO
         1 001416   000004 236000 2                  LDQ     4
         1 001417   200050 756100                    STQ     @ERR+3,,AUTO
         1 001420   200004 235100                    LDA     @BUFNUM,,AUTO
         1 001421   200046 757100                    STAQ    @ERR+1,,AUTO
         1 001422   200046 630500                    EPPR0   @ERR+1,,AUTO
         1 001423   000022 631400 xsym               EPPR1   B_VECTNIL+18
         1 001424   000000 701000 xent               TSX1    FMC$FINISH
         1 001425   000000 011000                    NOP     0

      798     2456    4                   END;

   2456  1 001426   001433 710000 1                  TRA     s:2459

      799     2457    3                ELSE
      800     2458    3                   CALL FMD$RELBUF(BUFNUM);

   2458  1 001427   200004 630500                    EPPR0   @BUFNUM,,AUTO
         1 001430   000017 631400 xsym               EPPR1   B_VECTNIL+15
         1 001431   000000 701000 xent               TSX1    FMD$RELBUF
         1 001432   000000 011000                    NOP     0

      801     2459    3                RETRY=5;

   2459  1 001433   000005 235007                    LDA     5,DL
         1 001434   200013 755100                    STA     RETRY,,AUTO

      802     2460    3                END;

      803     2461        /*S*  SCREECH_CODE:  FMD-S$FM100
      804     2462        *     TYPE:  DUMP
      805     2463        *     MESSAGE:  An error was found in a buffer that was already
      806     2464        *       in core.
      807     2465        */
      808     2466        /* */
      809     2467    2          F$DCB.TYC(1)='0'B;              /* Clear any I/O error status         */
PL6.E3A0      #004=FMD$REDBUF File=FMD$BUF.:E05TSI                               TUE 07/29/97 16:39 Page:146

   2467  1 001435   200011 470500                    LDP0    JDCB$,,AUTO
         1 001436   000002 450100                    STZ     2,,PR0

      810     2468    2          RETRY=RETRY-1;

   2468  1 001437   000001 336007                    LCQ     1,DL
         1 001440   200013 056100                    ASQ     RETRY,,AUTO

      811     2469    2          IF Q$ ~= ADDR(NIL) THEN

   2469  1 001441   200037 236100                    LDQ     Q$,,AUTO
         1 001442   000001 116000 xsym               CMPQ    B_VECTNIL+1
         1 001443   001451 600000 1                  TZE     s:2472

      812     2470    2             IF N$REQ.TYC.OPER THEN

   2470  1 001444   200037 470500                    LDP0    Q$,,AUTO
         1 001445   000021 236100                    LDQ     17,,PR0
         1 001446   200000 316003                    CANQ    65536,DU
         1 001447   001451 600000 1                  TZE     s:2472

      813     2471    2                RETRY=0;

   2471  1 001450   200013 450100                    STZ     RETRY,,AUTO

      814     2472    2          RREAD=1;

   2472  1 001451   000001 235007                    LDA     1,DL
         1 001452   200014 755100                    STA     RREAD,,AUTO

      815     2473    2          IF RETRY > 0 THEN

   2473  1 001453   200013 236100                    LDQ     RETRY,,AUTO
         1 001454   001457 604400 1                  TMOZ    s:2476

      816     2474    2             RETURN;
PL6.E3A0      #004=FMD$REDBUF File=FMD$BUF.:E05TSI                               TUE 07/29/97 16:39 Page:147

   2474  1 001455   200044 221300                    LDX1  ! SDA+3,,AUTO
         1 001456   000001 702211                    TSX2  ! 1,X1

      817     2475        /* */
      818     2476    2          F$DCB.BFR.DA(BUFNUM)=DA;

   2476  1 001457   200004 470500                    LDP0    @BUFNUM,,AUTO
         1 001460   000000 720100                    LXL0    0,,PR0
         1 001461   200005 471500                    LDP1    @DA,,AUTO
         1 001462   200011 473500                    LDP3    JDCB$,,AUTO
         1 001463   100000 236100                    LDQ     0,,PR1
         1 001464   300115 676110                    ERQ     77,X0,PR3
         1 001465   000032 376000 xsym               ANQ     B_VECTNIL+26
         1 001466   300115 656110                    ERSQ    77,X0,PR3

      819     2477        /* */
      820     2478    2   LOG:   IF CODE=%E$ULMI THEN

   2478  1 001467   200016 235100       LOG          LDA     CODE,,AUTO
         1 001470   000050 115007                    CMPA    40,DL
         1 001471   001474 601000 1                  TNZ     s:2481

      821     2479    2             TDA=0;

   2479  1 001472   200012 450100                    STZ     TDA,,AUTO
         1 001473   001476 710000 1                  TRA     s:2482

      822     2480    2          ELSE
      823     2481    2             TDA=8;

   2481  1 001474   000010 236007                    LDQ     8,DL
         1 001475   200012 756100                    STQ     TDA,,AUTO

      824     2482    2          IF ADDR(EFLG)=ADDR(NIL) THEN

   2482  1 001476   200010 236100                    LDQ     @EFLG,,AUTO
PL6.E3A0      #004=FMD$REDBUF File=FMD$BUF.:E05TSI                               TUE 07/29/97 16:39 Page:148
         1 001477   000001 116000 xsym               CMPQ    B_VECTNIL+1
         1 001500   001507 600000 1                  TZE     LOG5

      825     2483    2             GOTO LOG5;
      826     2484    2          IF EFLG >= 0 THEN

   2484  1 001501   200010 470500                    LDP0    @EFLG,,AUTO
         1 001502   000000 235100                    LDA     0,,PR0
         1 001503   001541 604000 1                  TMI     s:2491

      827     2485    3             DO;

      828     2486    3             IF EFLG>0 THEN

   2486  1 001504   001507 604400 1                  TMOZ    LOG5

      829     2487    3                TDA=6;                    /* FAST PATH ERROR                    */

   2487  1 001505   000006 235007                    LDA     6,DL
         1 001506   200012 755100                    STA     TDA,,AUTO

      830     2488    3   LOG5:     CALL FMB$LOGERR(CODE,ERRNUM,TDA,DA,BUF$,BFR1X,

   2488  1 001507   200037 630500       LOG5         EPPR0   Q$,,AUTO
         1 001510   200060 450500                    STP0    @ERR+11,,AUTO
         1 001511   000001 236000 xsym               LDQ     B_VECTNIL+1
         1 001512   200057 756100                    STQ     @ERR+10,,AUTO
         1 001513   200023 633500                    EPPR3   MISC,,AUTO
         1 001514   200056 453500                    STP3    @ERR+9,,AUTO
         1 001515   200022 634500                    EPPR4   BFR3X,,AUTO
         1 001516   200055 454500                    STP4    @ERR+8,,AUTO
         1 001517   200021 635500                    EPPR5   BFR2X,,AUTO
         1 001520   200054 455500                    STP5    @ERR+7,,AUTO
         1 001521   200020 636500                    EPPR6   BFR1X,,AUTO
         1 001522   200053 456500                    STP6    @ERR+6,,AUTO
         1 001523   200003 236100                    LDQ     @BUF$,,AUTO
         1 001524   200052 756100                    STQ     @ERR+5,,AUTO
PL6.E3A0      #004=FMD$REDBUF File=FMD$BUF.:E05TSI                               TUE 07/29/97 16:39 Page:149
         1 001525   200005 236100                    LDQ     @DA,,AUTO
         1 001526   200051 756100                    STQ     @ERR+4,,AUTO
         1 001527   200012 637500                    EPPR7   TDA,,AUTO
         1 001530   200050 457500                    STP7    @ERR+3,,AUTO
         1 001531   200015 630500                    EPPR0   ERRNUM,,AUTO
         1 001532   200047 450500                    STP0    @ERR+2,,AUTO
         1 001533   200016 630500                    EPPR0   CODE,,AUTO
         1 001534   200046 450500                    STP0    @ERR+1,,AUTO
         1 001535   200046 630500                    EPPR0   @ERR+1,,AUTO
         1 001536   000010 631400 2                  EPPR1   8
         1 001537   000000 701000 xent               TSX1    FMB$LOGERR
         1 001540   000000 011000                    NOP     0

      831     2489    3                BFR2X,BFR3X,MISC,,Q$);
      832     2490    3             END;

      833     2491    2          IF Q$~=ADDR(NIL) THEN

   2491  1 001541   200037 236100                    LDQ     Q$,,AUTO
         1 001542   000001 116000 xsym               CMPQ    B_VECTNIL+1
         1 001543   001554 600000 1                  TZE     s:2496

      834     2492    3             DO;

      835     2493    3             CALL NIQ$REL(Q$);

   2493  1 001544   200037 630500                    EPPR0   Q$,,AUTO
         1 001545   200046 450500                    STP0    @ERR+1,,AUTO
         1 001546   200046 630500                    EPPR0   @ERR+1,,AUTO
         1 001547   000017 631400 xsym               EPPR1   B_VECTNIL+15
         1 001550   000000 701000 xent               TSX1    NIQ$REL
         1 001551   000000 011000                    NOP     0

      836     2494    3             Q$=ADDR(NIL);

   2494  1 001552   000001 236000 xsym               LDQ     B_VECTNIL+1
         1 001553   200037 756100                    STQ     Q$,,AUTO
PL6.E3A0      #004=FMD$REDBUF File=FMD$BUF.:E05TSI                               TUE 07/29/97 16:39 Page:150

      837     2495    3             END;

      838     2496    2          IF CODE~=%E$DI AND ERRNUM=2 THEN

   2496  1 001554   200016 235100                    LDA     CODE,,AUTO
         1 001555   000011 115007                    CMPA    9,DL
         1 001556   001565 600000 1                  TZE     s:2498
         1 001557   200015 235100                    LDA     ERRNUM,,AUTO
         1 001560   000002 115007                    CMPA    2,DL
         1 001561   001565 601000 1                  TNZ     s:2498

      839     2497    2             CODE=CODE-%E$MI+%E$MIIO;     /* CONVERT CODE TO I/O ERROR TYPE     */

   2497  1 001562   200016 235100                    LDA     CODE,,AUTO
         1 001563   000007 035007                    ADLA    7,DL
         1 001564   200016 755100                    STA     CODE,,AUTO

      840     2498    2          B$JIT$->B$JIT.ERR=ERRWD;

   2498  1 001565   000046 236000 0                  LDQ     ERRWD
         1 001566   000000 470400 xsym               LDP0    B$JIT$
         1 001567   000012 756100                    STQ     10,,PR0

      841     2499    2          B$JIT$->B$JIT.ERR.CODE=CODE;

   2499  1 001570   200016 236100                    LDQ     CODE,,AUTO
         1 001571   000003 736000                    QLS     3
         1 001572   000012 676100                    ERQ     10,,PR0
         1 001573   377770 376007                    ANQ     131064,DL
         1 001574   000012 656100                    ERSQ    10,,PR0

      842     2500    2          IF JDCB$->F$DCB.GTYP=FMGTFILE AND CODE~=%E$ULMI THEN

   2500  1 001575   200011 471500                    LDP1    JDCB$,,AUTO
         1 001576   100064 236100                    LDQ     52,,PR1
         1 001577   034000 376003                    ANQ     14336,DU
PL6.E3A0      #004=FMD$REDBUF File=FMD$BUF.:E05TSI                               TUE 07/29/97 16:39 Page:151
         1 001600   030000 116003                    CMPQ    12288,DU
         1 001601   001610 601000 1                  TNZ     s:2502
         1 001602   200016 235100                    LDA     CODE,,AUTO
         1 001603   000050 115007                    CMPA    40,DL
         1 001604   001610 600000 1                  TZE     s:2502

      843     2501    2             JDCB$->F$DCB.CFU$->FM$CFU.B=1; /* SET BROKEN FILE FLAG             */

   2501  1 001605   100066 473500                    LDP3    54,,PR1
         1 001606   000002 236003                    LDQ     2,DU
         1 001607   300006 256100                    ORSQ    6,,PR3

      844     2502    2          CALL FMD$RELBUF(BUFNUM);

   2502  1 001610   200004 630500                    EPPR0   @BUFNUM,,AUTO
         1 001611   000017 631400 xsym               EPPR1   B_VECTNIL+15
         1 001612   000000 701000 xent               TSX1    FMD$RELBUF
         1 001613   000000 011000                    NOP     0

      845     2503    2          BUF$=ADDR(NIL);

   2503  1 001614   000001 236000 xsym               LDQ     B_VECTNIL+1
         1 001615   200003 470500                    LDP0    @BUF$,,AUTO
         1 001616   000000 756100                    STQ     0,,PR0

      846     2504    2          RETURN;

   2504  1 001617   200044 221300                    LDX1  ! SDA+3,,AUTO
         1 001620   000001 702211                    TSX2  ! 1,X1

BFRTBL1
 Sect OctLoc
   0     000   0***** ******   0***** ******   0***** ******   0***** ******    ................
   0     010*  1***** ******   1***** ******   1***** ******                    @...@...@...

BFRTBL2
 Sect OctLoc
PL6.E3A0      #004=FMD$REDBUF File=FMD$BUF.:E05TSI                               TUE 07/29/97 16:39 Page:152
   0     013   0***** ******   1***** ******   1***** ******   1***** ******    ....@...@...@...
   0     017   1***** ******   1***** ******   1***** ******   1***** ******    @...@...@...@...
   0     023   3***** ******   5***** ******   3***** ******                    ............

BFRTBL3
 Sect OctLoc
   0     026   0***** ******   2***** ******   2***** ******   2***** ******    ................
   0     032   2***** ******   2***** ******   2***** ******   2***** ******    ................
   0     036   4***** ******   6***** ******   4***** ******                    ............

ZAPBUF
 Sect OctLoc
   0     041   111111 111111   222222 222222   333333 333333   444444 444444    IIII............
   0     045   555555 555555                                                    ....

ERRWD
 Sect OctLoc
   0     046   061504 000002                                                    1...

ERRDI
 Sect OctLoc
   0     047   061504 000112                                                    1..J

(unnamed)
 Sect OctLoc
   2     000   000003 006000   000011 000000   000000 010000   000002 006000    ................
   2     004   000002 006000   000002 006000   000004 006000   000027 006000    ................
   2     010   000013 000000   000007 006000   000005 006000   000006 006000    ................
   2     014   000010 006000   000011 006000   000014 006000   000012 006000    ................
   2     020   777777 777000                                                    ....
      847     2505    2          END LOGERR;
      848     2506               %EJECT;
PL6.E3A0      #004=FMD$REDBUF File=FMD$BUF.:E05TSI                               TUE 07/29/97 16:39 Page:153
      849     2507
      850     2508        /*E*    ERROR:   -E$MI-2
      851     2509                MESSAGE: System error - master index% of file %FN% is broken
      852     2510                MESSAGE1: One or more records in file %FN are lost
      853     2511                DESCRIPTION:  An inconsistency has been detected in a master
      854     2512                index granule.  All records in this granule are inaccessible.           */
      855     2513        /*E*    ERROR:   -E$ULMI-0
      856     2514                MESSAGE: Inconsistency in upper level index
      857     2515                DESCRIPTION:  An inconsistency has been detected in the
      858     2516                  upper level index of a keyed or indexed file.  This
      859     2517                  error is not reported to the user - it is only logged
      860     2518                  in the error log.
      861     2519        */
      862     2520        /*E*    ERROR:   -E$FIT-2
      863     2521                MESSAGE: System error - FIT% of file %FN% is broken
      864     2522                MESSAGE1: Entire file %FN is lost
      865     2523                DESCRIPTION:  An inconsistency has been detected in the file's
      866     2524                FIT.  The entire file is inaccessible.                                  */
      867     2525        /*E*    ERROR:   -E$FD-2
      868     2526                MESSAGE: System error - file directory% of account %AC% is broken
      869     2527                MESSAGE1: File %FN and all files beyond it in this account
      870     2528                  are lost
      871     2529                DESCRIPTION:  An inconsistency has been detected in the file
      872     2530                directory.  All files from this point to the end of the
      873     2531                directory have been lost.                                               */
      874     2532        /*E*    ERROR:   -E$PAD-2
      875     2533                MESSAGE: System error - account directory% on set %SN% is broken
      876     2534                MESSAGE1: Inconsistency in account directory on set %SN
      877     2535                DESCRIPTION:  An inconsistency has been detected in the
      878     2536                account directory.  All accounts on this pack set beyond this
      879     2537                point are inaccessible.                                                 */
      880     2538        /*E*    ERROR:   -E$MAD-2
      881     2539                MESSAGE: System error - master account directory is broken
      882     2540        */
      883     2541        /*E*    ERROR:  -E$GP-2
      884     2542                MESSAGE: System error - granule allocation pool% of pack %SN% is broken
      885     2543        */
PL6.E3A0      #004=FMD$REDBUF File=FMD$BUF.:E05TSI                               TUE 07/29/97 16:39 Page:154
      886     2544        /*E*    ERROR:   -E$MIIO-2
      887     2545                MESSAGE: Disk error reading index granule from file %FN
      888     2546                DESCRIPTION:  Unable to read a master index granule due to
      889     2547                hardware error.  All records in this granule are lost.                  */
      890     2548        /*E*    ERROR:   -E$ULMIIO-0
      891     2549                MESSAGE: Disk error reading upper level index
      892     2550                DESCRIPTION:  A disk error occurred reading the upper
      893     2551                  level index of a keyed or indexed file.  This error
      894     2552                  is not reported to the user - it is only logged in
      895     2553                  the error log.
      896     2554        */
      897     2555        /*E*    ERROR:   -E$FITIO-2
      898     2556                MESSAGE: Disk error reading FIT of file %FN
      899     2557                DESCRIPTION:  Unable to read the file's FIT due to a
      900     2558                hardware error.  The entire file is inaccessible.                       */
      901     2559        /*E*    ERROR:   -E$FDIO-2
      902     2560                MESSAGE: Disk error reading file directory% for account %AC%
      903     2561                DESCRIPTION:  Unable to read a file directory granule due to
      904     2562                a hardware error.  All files from this point to the end of the
      905     2563                directory are lost.                                                     */
      906     2564        /*E*    ERROR:  FMD-E$PADIO-2
      907     2565                MESSAGE: Disk error reading PAD% for set %SN%
      908     2566        */
      909     2567        /*E*    ERROR:   -E$MADIO-2
      910     2568                MESSAGE: Disk error reading MAD
      911     2569        */
      912     2570        /*E*    ERROR:   -E$GPIO-2
      913     2571                MESSAGE: Disk error reading granule pool for pack set %SN
      914     2572        */
      915     2573    1          END FMD$REDBUF;
      916     2574               %EOD;

PL6.E3A0      #004=FMD$REDBUF File=FMD$BUF.:E05TSI                               TUE 07/29/97 16:39 Page:155
--  Include file information  --

   CP_6_SUBS.:E05TOU  is referenced.
   N$REQ.:E05TOU  is referenced.
   N_FC_C.:E05TOU  is referenced.
   F_ERRORS_C.:E05TOU  is referenced.
   FM_CACHE_C.:E05TOU  is referenced.
   FM_CACHE_R.:E05TOU  cannot be made into a system file and is referenced.
   FM_DATA_R.:E05TOU  cannot be made into a system file and is referenced.
   FM$MACROS.:E05TOU  is referenced.
   F$DCB.:E05TOU  is referenced.
   B$JIT_C.:E05TOU  is referenced.
   F$JIT_C.:E05TOU  cannot be made into a system file and is referenced.
      No diagnostics issued in procedure FMD$REDBUF.
PL6.E3A0      #004=FMD$REDBUF File=FMD$BUF.:E05TSI                               TUE 07/29/97 16:39 Page:156

 **** Variables and constants ****

  ****  Section 000 RoData FMD$REDBUF

  ****  Scalars and arrays  ****
OctLoc.c.b A Datatyp(siz) R M Lvl/name                 OctLoc.c.b A Datatyp(siz) R M Lvl/name

     0-0-0/w UBIN(3)     r     1 BFRTBL1(0:10)             13-0-0/w UBIN(3)     r     1 BFRTBL2(0:10)
    26-0-0/w UBIN(3)     r     1 BFRTBL3(0:10)             47-0-0/b STRC        r     1 ERRDI
    46-0-0/b STRC        r     1 ERRWD                     41-0-0/b BIT         r     1 ZAPBUF(0:4)

  ****  Auto variables  ****

  ****  Scalars and arrays  ****
OctLoc.c.b A Datatyp(siz) R M Lvl/name                 OctLoc.c.b A Datatyp(siz) R M Lvl/name

     3-0-0/w PTR         r     1 @BUF$                      4-0-0/w PTR         r     1 @BUFNUM
     5-0-0/w PTR         r     1 @DA                        6-0-0/w PTR         r     1 @DDA
    10-0-0/w PTR         r     1 @EFLG                     45-0-0/w PTR         r     1 @ERR
     7-0-0/w PTR         r     1 @LCDA                     35-0-0/w SBIN        r     1 BCFLG
    20-0-0/w UBIN        r     1 BFR1X                     21-0-0/w UBIN        r     1 BFR2X
    22-0-0/w UBIN        r     1 BFR3X                     *0-0-0/w PTR         r     1 BUF$
    *0-0-0/w UBIN        r     1 BUFNUM                    16-0-0/w UBIN        r     1 CODE
    *0-0-0/w UBIN        r     1 DA                        *0-0-0/w UBIN        r     1 DDA
    *0-0-0/w SBIN        r     1 EFLG                      *0-0-0/w SBIN        r     1 ERR
    15-0-0/w UBIN        r     1 ERRNUM                    24-0-0/w SBIN        r     1 FLAG
    36-0-0/w UBIN        r     1 GTYP                      11-0-0/w PTR         r     1 JDCB$
    *0-0-0/w SBIN        r     1 LCDA                      23-0-0/w SBIN        r     1 MISC
    37-0-0/w PTR         r     1 Q$                        13-0-0/w SBIN        r     1 RETRY
    14-0-0/w SBIN        r     1 RREAD                     25-0-0/w STRC(180)   r     1 SAVBUF
    32-0-0/w STRC(108)   r     1 SAVQ                      41-0-0/w UBIN        r     1 SDA
    17-0-0/b STRC        r     1 STAMP                     17-0-0/w UBIN        r     1 STMPUBIN
    40-0-0/w PTR         r     1 T$                        12-0-0/w UBIN        r     1 TDA

  ****  SYMREF variables  ****

  ****  Scalars and arrays  ****
PL6.E3A0      #004=FMD$REDBUF File=FMD$BUF.:E05TSI                               TUE 07/29/97 16:39 Page:157
OctLoc.c.b A Datatyp(siz) R M Lvl/name                 OctLoc.c.b A Datatyp(siz) R M Lvl/name

     0-0-0/w PTR         r     1 B$JIT$
     0-0-0/w PTR         r     1 FM$BUF$(0:0)
     0-0-0/w PTR         r     1 FMC_CACHE$                 0-0-0/w PTR         r     1 FMC_CACHEPGCNT$
     0-0-0/w UBIN        r     1 FM_FRMAX
     0-0-0/w UBIN        r     1 FM_HASH(0:3)
     0-0-0/w UBIN        r     1 FM_SRZERO

  ****  BASED and DCB variables  ****

  ****  Scalars and arrays  ****
OctLoc.c.b A Datatyp(siz) R M Lvl/name                 OctLoc.c.b A Datatyp(siz) R M Lvl/name

     0-0-0/d STRC(8856)  r     1 B$JIT                      0-0-0/d ASTR(3528)  r     1 F$DCB
     0-0-0/w STRC(288)   r     1 FM$CFU                     0-0-0/w STRC(180)   r     1 FM$GRAN
     0-0-0/w STRC(216)   r     1 FMC$CACHETBL(0:0)
     0-0-0/d STRC(1080)  r     1 N$REQ


   Procedure FMD$REDBUF requires 913 words for executable code.
   Procedure FMD$REDBUF requires 50 words of local(AUTO) storage.
PL6.E3A0      #004=FMD$REDBUF File=FMD$BUF.:E05TSI                               TUE 07/29/97 16:39 Page:158
          *** CROSS REFERENCE LISTING ***
**     DENOTES     IDENTIFIER DEFINITION
<<                 IDENTIFIER'S VALUE SET
>>                 IDENTIFIER'S VALUE USED
<>                 IDENTIFIER SET AND/OR USED
--                 IDENTIFIER REFERENCED
PL6.E3A0      #004=FMD$REDBUF File=FMD$BUF.:E05TSI                               TUE 07/29/97 16:39 Page:159
          MINI XREF LISTING

B$JIT.DCB$
       518**DCL      2110>>ASSIGN
B$JIT.ERR
       428**DCL      2281<<ASSIGN   2498<<ASSIGN
B$JIT.ERR.CODE
       429**DCL      2499<<ASSIGN
B$JIT.ERR.MID
       429**DCL       429--REDEF
B$JIT$
        98**DCL       423--IMP-PTR  2110>>ASSIGN   2281>>ASSIGN   2498>>ASSIGN   2499>>ASSIGN
BCFLG
        93**DCL      2103<<ASSIGN   2106<<ASSIGN   2159>>IF
BFR1X
        82**DCL      2144<<DOINDEX  2145>>IF       2145>>IF       2148>>ASSIGN   2149>>ASSIGN   2150>>ASSIGN
      2151>>ASSIGN   2207<>CALL     2211<>CALL     2387<<ASSIGN   2426<<ASSIGN   2488<>CALL
BFR2X
        83**DCL      2207<>CALL     2211<>CALL     2388<<ASSIGN   2427<<ASSIGN   2488<>CALL
BFR3X
        84**DCL      2207<>CALL     2211<>CALL     2389<<ASSIGN   2428<<ASSIGN   2488<>CALL
BFRTBL1
      1944**DCL      2426>>ASSIGN
BFRTBL2
      1945**DCL      2427>>ASSIGN
BFRTBL3
      1946**DCL      2428>>ASSIGN
BUF$
        46**DCL        44--PROC     2039--IMP-PTR  2105--ENTRY    2160<>CALL     2162<>CALL     2174<>CALL
      2176<<ASSIGN   2177>>ASSIGN   2183<>CALL     2211<>CALL     2238<<ASSIGN   2245>>IF       2251>>IF
      2257>>IF       2264>>IF       2279>>IF       2290>>IF       2296>>IF       2303>>IF       2304>>IF
      2312>>IF       2317>>IF       2325>>IF       2325>>IF       2331>>IF       2334>>IF       2334>>IF
      2342>>ASSIGN   2344>>IF       2348>>ASSIGN   2350>>IF       2356>>IF       2356>>IF       2390<<ASSIGN
      2432>>IF       2433>>ASSIGN   2443>>IF       2488<>CALL     2503<<ASSIGN
PL6.E3A0      #004=FMD$REDBUF File=FMD$BUF.:E05TSI                               TUE 07/29/97 16:39 Page:160
BUFNUM
        47**DCL        44--PROC     2105--ENTRY    2114>>IF       2137>>IF       2137>>IF       2147<>CALL
      2148>>ASSIGN   2149>>ASSIGN   2160<>CALL     2162<>CALL     2170<>CALL     2173>>IF       2174<>CALL
      2176>>ASSIGN   2199>>ASSIGN   2238>>ASSIGN   2452>>IF       2454>>ASSIGN   2455<>CALL     2458<>CALL
      2476>>ASSIGN   2502<>CALL
CODE
        77**DCL      2207<>CALL     2211<>CALL     2386<>CALL     2425<>CALL     2478>>IF       2488<>CALL
      2496>>IF       2497<<ASSIGN   2497>>ASSIGN   2499>>ASSIGN   2500>>IF
COMMON
      2106**LABEL    2104--GOTO
DA
        48**DCL        44--PROC     2105--ENTRY    2112>>ASSIGN   2122>>IF       2130>>IF       2137>>IF
      2145>>IF       2160<>CALL     2162<>CALL     2199>>ASSIGN   2207<>CALL     2211<>CALL     2240>>ASSIGN
      2391>>IF       2416>>IF       2476>>ASSIGN   2488<>CALL
DDA
        49**DCL        44--PROC     2105--ENTRY
DONE
      2199**LABEL    2141--GOTO     2154--GOTO
DRCTRY IN PROCEDURE VERIFY
      2245**LABEL    2272--GOTO     2276--GOTO
EFLG
        51**DCL        44--PROC     2105--ENTRY    2482--IF       2484>>IF       2486>>IF
ERR
      2221**LABEL    2196--GOTO
ERR IN PROCEDURE LOGERR
      2381**DCL      2380--PROC     2383>>ASSIGN   2384>>DOCASE
ERR1
      2220**LABEL    2160--CALLALT  2162--CALLALT  2183--CALLALT
ERR8 IN PROCEDURE VERIFY
      2362**LABEL    2345--CALLALT  2347--CALLALT  2351--CALLALT  2353--CALLALT
ERRDI
      1955**DCL      2281>>ASSIGN
ERRNUM
        76**DCL      2207<>CALL     2211<>CALL     2383<<ASSIGN   2426>>ASSIGN   2427>>ASSIGN   2428>>ASSIGN
      2443>>IF       2488<>CALL     2496>>IF
ERRWD
PL6.E3A0      #004=FMD$REDBUF File=FMD$BUF.:E05TSI                               TUE 07/29/97 16:39 Page:161
      1951**DCL      2498>>ASSIGN
F$DCB.ACS
      1977**DCL      2297>>IF
F$DCB.ACTPOS
      1985**DCL      1985--REDEF
F$DCB.ARS
      1960**DCL      1960--REDEF
F$DCB.ATTR
      1978**DCL      1979--REDEF
F$DCB.BFR
      2004**DCL      2148<<ASSIGN   2148>>ASSIGN   2150<<ASSIGN
F$DCB.BFR.BUFX
      2005**DCL      2137>>IF       2145>>IF       2173>>IF       2176>>ASSIGN   2238>>ASSIGN
F$DCB.BFR.DA
      2005**DCL      2137>>IF       2145>>IF       2199<<ASSIGN   2476<<ASSIGN
F$DCB.BFR1
      2005**DCL      2149<<ASSIGN   2149>>ASSIGN   2151<<ASSIGN
F$DCB.BFR1.CX
      2006**DCL      2452>>IF       2454>>ASSIGN
F$DCB.BORROW
      1993**DCL      1993--REDEF    1993--REDEF    1993--REDEF
F$DCB.CFU$
      1994**DCL      2391>>IF       2394>>ASSIGN   2416>>IF       2419>>ASSIGN   2501>>ASSIGN
F$DCB.DCBNAME.L
      2007**DCL      2007--IMP-SIZ
F$DCB.EOMCHAR
      1964**DCL      1964--REDEF
F$DCB.FLDID
      1988**DCL      1988--REDEF
F$DCB.FORM$
      1982**DCL      1982--REDEF
F$DCB.FSECT
      1998**DCL      1998--REDEF
F$DCB.FSN
      1975**DCL      1975--REDEF    1975--REDEF    1976--REDEF
F$DCB.GTYP
PL6.E3A0      #004=FMD$REDBUF File=FMD$BUF.:E05TSI                               TUE 07/29/97 16:39 Page:162
      1989**DCL      2113>>ASSIGN   2500>>IF
F$DCB.HASH
      1997**DCL      2239>>ASSIGN   2275>>ASSIGN
F$DCB.HEADER$
      1981**DCL      1981--REDEF
F$DCB.IXTNSIZE
      1979**DCL      1979--REDEF
F$DCB.LASTSTA$
      1969**DCL      1969--REDEF
F$DCB.LVL
      1994**DCL      1994--REDEF    2296>>IF       2404>>ASSIGN
F$DCB.NAME.C
      1969**DCL      1969--REDEF
F$DCB.NOEOF
      1990**DCL      1990--REDEF
F$DCB.NRECS
      1980**DCL      1980--REDEF
F$DCB.NRECX
      1999**DCL      1999--REDEF
F$DCB.OHDR
      1991**DCL      1991--REDEF
F$DCB.ORG
      1974**DCL      1974--REDEF    2280>>IF       2290>>IF
F$DCB.PRECNO
      1997**DCL      1997--REDEF
F$DCB.RCSZ
      2002**DCL      2002--REDEF
F$DCB.RES
      1970**DCL      1970--REDEF
F$DCB.SETX
      1982**DCL      1982--REDEF
F$DCB.SEZ_OK
      1990**DCL      2296>>IF
F$DCB.TAB$
      1981**DCL      1982--REDEF
F$DCB.TDA
PL6.E3A0      #004=FMD$REDBUF File=FMD$BUF.:E05TSI                               TUE 07/29/97 16:39 Page:163
      1996**DCL      1996--REDEF
F$DCB.TYC
      1960**DCL      2467<<ASSIGN
F$DCB.WSN
      1971**DCL      1971--REDEF
FAF$CHKDAFR
        62**DCL-ENT  2345--CALL     2351--CALL
FLAG
        86**DCL      2160<>CALL     2162<>CALL     2163>>IF       2450>>IF       2455<>CALL
FM$BUF$
        99**DCL      2176>>ASSIGN   2238>>ASSIGN
FM$CFU.ACCTX
      2011**DCL      2011--REDEF
FM$CFU.B
      2013**DCL      2501<<ASSIGN
FM$CFU.UGRANS
      2012**DCL      2394>>ASSIGN   2419>>ASSIGN
FM$GRAN
      2039**DCL      2177<<ASSIGN   2433>>ASSIGN
FM$GRAN.AVAIL
      2040**DCL      2325>>IF
FM$GRAN.BLINK
      2040**DCL      2342>>ASSIGN   2356>>IF
FM$GRAN.FCEX
      2040**DCL      2334>>IF
FM$GRAN.FLINK
      2040**DCL      2348>>ASSIGN   2356>>IF
FM$GRAN.HDR
      2039**DCL      2331>>IF
FM$GRAN.LVL
      2039**DCL      2257>>IF       2264>>IF       2296>>IF       2303>>IF       2317>>IF
FM$GRAN.NAVX
      2039**DCL      2325>>IF       2334>>IF
FM$GRAN.ORG
      2039**DCL      2251>>IF       2290>>IF       2344>>IF       2350>>IF
FM$GRAN.STAMP
PL6.E3A0      #004=FMD$REDBUF File=FMD$BUF.:E05TSI                               TUE 07/29/97 16:39 Page:164
      2039**DCL      2245>>IF       2279>>IF
FM$GRAN.STAMP.GMOD
      2039**DCL      2304>>IF       2312>>IF
FM$GRAN.STAMP.HASH
      2039**DCL      2443>>IF
FMB$CHKDA
        61**DCL-ENT  2347--CALL     2353--CALL
FMB$ERRTYP
        65**DCL-ENT  2386--CALL     2425--CALL
FMB$LOGERR
        64**DCL-ENT  2207--CALL     2211--CALL     2488--CALL
FMB$QUEUE
        60**DCL-ENT  2183--CALL
FMC$CACHETBL.FLAGS.ERR
      2034**DCL      2454<<ASSIGN
FMC$FINISH
        59**DCL-ENT  2455--CALL
FMC$GET
        57**DCL-ENT  2160--CALL
FMC$NOCACHE
        58**DCL-ENT  2162--CALL
FMC_CACHE$
       979**DCL      2017--IMP-PTR  2454>>ASSIGN
FMC_CACHEPGCNT$
       980**DCL       980--IMP-PTR   980--REDEF
FMD$FLSHBUF
        53**DCL-ENT  2147--CALL
FMD$FLSHBUFNR
        54**DCL-ENT  2170--CALL
FMD$GETBUF
        56**DCL-ENT  2174--CALL
FMD$RELBUF
        63**DCL-ENT  2458--CALL     2502--CALL
FMO$FDHASH
        66**DCL-ENT  2271--CALL
FM_FRMAX
PL6.E3A0      #004=FMD$REDBUF File=FMD$BUF.:E05TSI                               TUE 07/29/97 16:39 Page:165
       965**DCL      2122>>IF       2391>>IF       2416>>IF
FM_HASH
       967**DCL      2244>>ASSIGN
FM_SRZERO
       965**DCL      2130>>IF
GTYP
        94**DCL      2113<<ASSIGN   2120>>IF       2242>>DOCASE   2244>>ASSIGN   2257>>IF       2258>>IF
      2340>>IF       2443>>IF
JDCB$
        72**DCL      1960--IMP-PTR  2110<<ASSIGN   2113>>ASSIGN   2137>>IF       2137>>IF       2145>>IF
      2145>>IF       2148>>ASSIGN   2148>>ASSIGN   2149>>ASSIGN   2149>>ASSIGN   2150>>ASSIGN   2151>>ASSIGN
      2173>>IF       2176>>ASSIGN   2199>>ASSIGN   2238>>ASSIGN   2239>>ASSIGN   2271<>CALL     2275>>ASSIGN
      2280>>IF       2290>>IF       2296>>IF       2296>>IF       2297>>IF       2391>>IF       2394>>ASSIGN
      2404>>ASSIGN   2416>>IF       2419>>ASSIGN   2452>>IF       2454>>ASSIGN   2467>>ASSIGN   2476>>ASSIGN
      2500>>IF       2501>>ASSIGN
LCDA
        50**DCL        44--PROC     2105--ENTRY    2355--IF       2355>>IF       2356>>IF       2356>>IF
      2422>>ASSIGN
LOG IN PROCEDURE LOGERR
      2478**LABEL    2395--GOTO
LOG5 IN PROCEDURE LOGERR
      2488**LABEL    2483--GOTO
LOGERR
      2380**PROC     2124--CALL     2132--CALL     2187--CALL     2220--CALL     2247--CALL     2253--CALL
      2260--CALL     2266--CALL     2286--CALL     2292--CALL     2298--CALL     2306--CALL     2314--CALL
      2319--CALL     2327--CALL     2336--CALL     2358--CALL     2362--CALL
MISC
        85**DCL      2207<>CALL     2392<<ASSIGN   2394<<ASSIGN   2398<<ASSIGN   2401<<ASSIGN   2404<<ASSIGN
      2407<<ASSIGN   2410<<ASSIGN   2413<<ASSIGN   2417<<ASSIGN   2419<<ASSIGN   2422<<ASSIGN   2488<>CALL
N$REQ.BUFADDR
      2060**DCL      2061--REDEF    2061--REDEF
N$REQ.DLA.DRELADDR
      2052**DCL      2052--REDEF
N$REQ.DVE.EOMCHAR
      2089**DCL      2090--REDEF
N$REQ.EAINFO
PL6.E3A0      #004=FMD$REDBUF File=FMD$BUF.:E05TSI                               TUE 07/29/97 16:39 Page:166
      2083**DCL      2083--REDEF
N$REQ.EAINFOX
      2083**DCL      2084--REDEF
N$REQ.EVNTINFO
      2084**DCL      2084--REDEF
N$REQ.REQID
      2062**DCL      2206<<ASSIGN   2438>>ASSIGN
N$REQ.STATUS
      2065**DCL      2071--REDEF    2204<<ASSIGN   2436>>ASSIGN
N$REQ.TYC
      2073**DCL      2185>>IF       2205<<ASSIGN   2398>>ASSIGN   2437>>ASSIGN
N$REQ.TYC.OPER
      2074**DCL      2470>>IF
NIQ$GET
        67**DCL-ENT  2203--CALL
NIQ$REL
        68**DCL-ENT  2180--CALL     2209--CALL     2213--CALL     2217--CALL     2222--CALL     2493--CALL
Q$
        95**DCL      2051--IMP-PTR  2111<<ASSIGN   2178>>IF       2180<>CALL     2181<<ASSIGN   2183<>CALL
      2185>>IF       2202>>ASSIGN   2203<>CALL     2204>>ASSIGN   2205>>ASSIGN   2206>>ASSIGN   2207<>CALL
      2209<>CALL     2210<<ASSIGN   2216>>IF       2217<>CALL     2221>>IF       2222<>CALL     2398>>ASSIGN
      2434>>IF       2436>>ASSIGN   2437>>ASSIGN   2438>>ASSIGN   2469>>IF       2470>>IF       2488<>CALL
      2491>>IF       2493<>CALL     2494<<ASSIGN
READBUF
      2169**LABEL    2140--CALLALT  2153--CALLALT  2165--CALLALT
RETRY
        74**DCL      2139<<ASSIGN   2152<<ASSIGN   2158<<ASSIGN   2169<<ASSIGN   2171>>DOUNTIL  2194>>IF
      2200>>IF       2211>>CALL     2430>>IF       2442>>IF       2459<<ASSIGN   2468<<ASSIGN   2468>>ASSIGN
      2471<<ASSIGN   2473>>IF
RREAD
        75**DCL      2171>>DOUNTIL  2172<<ASSIGN   2194>>IF       2445<<ASSIGN   2472<<ASSIGN
SAVBUF
        87**DCL      2207--CALL     2433<<ASSIGN
SAVQ.REQID
        91**DCL      2206>>ASSIGN   2438<<ASSIGN
SAVQ.STATUS
PL6.E3A0      #004=FMD$REDBUF File=FMD$BUF.:E05TSI                               TUE 07/29/97 16:39 Page:167
        90**DCL      2204>>ASSIGN   2436<<ASSIGN
SAVQ.TYC
        92**DCL      2205>>ASSIGN   2437<<ASSIGN
SC_FMD100
        70**DCL-ENT  2451--CALL
SC_FMD87
        69**DCL-ENT  2115--CALL
SDA
      2101**DCL      2112<<ASSIGN   2183<>CALL
STAMP
        78**DCL        81--REDEF    2245>>IF       2279>>IF
STAMP.GMOD
        80**DCL      2240<<ASSIGN   2304>>IF
STAMP.HASH
        79**DCL      2239<<ASSIGN   2244<<ASSIGN   2271<>CALL     2275<<ASSIGN
STMPUBIN
        81**DCL      2407>>ASSIGN
T$
        96**DCL      2202<<ASSIGN   2211<>CALL     2213<>CALL
TDA
        73**DCL      2342<<ASSIGN   2343>>IF       2345<>CALL     2347<>CALL     2348<<ASSIGN   2349>>IF
      2351<>CALL     2353<>CALL     2479<<ASSIGN   2481<<ASSIGN   2487<<ASSIGN   2488<>CALL
VERIFY
      2236**PROC     2140--CALL     2153--CALL     2165--CALL     2190--CALL
ZAPBUF
      1947**DCL      2177>>ASSIGN
PL6.E3A0      #004=FMD$REDBUF File=FMD$BUF.:E05TSI                               TUE 07/29/97 16:39 Page:168
              *** CROSS REFERENCE LISTING ***
    **     DENOTES     IDENTIFIER DEFINITION
    <<                 IDENTIFIER'S VALUE SET
    >>                 IDENTIFIER'S VALUE USED
    <>                 IDENTIFIER SET AND/OR USED
    --                 IDENTIFIER REFERENCED
PL6.E3A0      #004=FMD$REDBUF File=FMD$BUF.:E05TSI                               TUE 07/29/97 16:39 Page:169
              MINI UREF LISTING

F$CFU$     968**DCL
FM$SET$     969**DCL
FMC$CACHEPGCNT     980**DCL
FMC_CACHEPGCNT     980**DCL
FMC_CACHEPGCNT$R     980**DCL
FMC_CACHESIZ     979**DCL
FMC_CACHESIZN     979**DCL
FMC_LOCK     981**DCL
FMC_MASK     981**DCL
FMC_MASKTBL     981**DCL
FMC_STATS$     979**DCL
FMC_TYPTBL$     979**DCL
FMD$REDBUF      44**PROC
FMD$REDBUFBC    2105**ENTRY
FMD$WRTSV      55**DCL-ENT
FM_CFUWAIT     968**DCL
FM_CFUWGRB     968**DCL
FM_EOP     966**DCL
FM_FRZERO     965**DCL
FM_GCT     969**DCL
FM_GIP     969**DCL
FM_GPSDA     966**DCL
FM_MADSDA     966**DCL
FM_PADSDA     966**DCL
FM_SRMAX     965**DCL
FM_SYSACCTX     969**DCL
FM_SYSSETX     969**DCL
FM_TRUNC     967**DCL
FM_WSQ     967**DCL
F_CWLK     968**DCL
F_CWUSER     968**DCL
F_DCBLOCK     967**DCL
PL6.E3A0      #004=FMD$REDBUF File=FMD$BUF.:E05TSI                               TUE 07/29/97 16:39 Page:170
WRD    2100**DCL

