VERSION E05

 16:42 07/29/97  FILE=FMD$BUF1.:E05TSI                                                                   1    BMAP - B00
                                         1  *M*  FMD$BUF1 - BMAP encryption/decryption subroutines
                                         2  *T***********************************************************
                                         3  *T*                                                         *
                                         4  *T* Copyright (c) Bull HN Information Systems Inc., 1997    *
                                         5  *T*                                                         *
                                         6  *T***********************************************************
 0 000000                                7           USE       PROCED,1
                                         8  *
                                         9  *
                                        10  *        CALL FMD$ENCRYPT(BUF$,WRDS,ISEED,CSEED,FAK)
                                        11  *        CALL FMD$DECRYPT(BUF$,WRDS,ISEED,CSEED,FAK)
                                        12  *
                                        13  *                  BUF$ - POINTER TO BUFFER TO BE ENCRYPTED/DECRYPTED
                                        14  *                  WRDS - SIZE OF BUFFER IN WORDS
                                        15  *                  ISEED - INITIAL ENCRYPTION SEED
                                        16  *                  CSEED - CURRENT ENCRYPTION SEED.  IGNORED IF FIRST
                                        17  *                          SEGMENT.
                                        18  *                  FAK - ZERO IF NOT FIRST SEGMENT
                                        19  *
                                        20           ENTDEF    FMD$ENCRYPT,FMD$DECRYPT
                                        21           ENTREF    X66_AUTO_N,X66_ARET
                                        22  *
             000000000002               23  A        EQU       2         AUTO POINTER
             000000000003               24  BUF      EQU       3         POINTER TO POINTER TO BUFFER
             000000000004               25  WRDS     EQU       4         POINTER TO # WORDS
             000000000005               26  ISEED    EQU       5         POINTER TO INITIAL SEED
             000000000006               27  CSEED    EQU       6         POINTER TO CURRENT SEED
             000000000007               28  FAK      EQU       7         POINTER TO FIRST SEG FLAG
             000000000005               29  NUMPAR   EQU       FAK-2
             000000000010               30  VAR      EQU       8             8 WORDS
             000000000011               31  MSK      EQU       9             7 WORDS
             000000000020               32  SHFT     EQU       16           6 WORDS
             000000000027               33  TMP      EQU       23           TEMP CELL
             000000000030               34  NUMAUTO  EQU       TMP+1
                                        35  *
   000000  X 000000 7000 00             36  FMD$ENCRYPT TSX0   X66_AUTO_N
   000001    000030 000005              37           ZERO      NUMAUTO,NUMPAR
 16:42 07/29/97  FILE=FMD$BUF1.:E05TSI                                                                   2    BMAP - B00
   000002    000000 6240 00             38           EAX4      0         FLAG FOR ENCRYPTION
   000003 (0)000007 7100 00             39           TRA       COMMON
                                        40  *
   000004  X 000000 7000 00             41  FMD$DECRYPT TSX0   X66_AUTO_N
   000005    000030 000005              42           ZERO      NUMAUTO,NUMPAR
   000006    000001 6240 00             43           EAX4      1         FLAG FOR DECRYPTION
                                        44  *
                                        45  *
   000007    2 00005 4775 00            46  COMMON   LDP7      ISEED,,A  POINTER TO SEED
   000010    7 00000 2361 00            47           LDQ       0,,7      SEED
   000011    000001 2760 07             48           ORQ       1,DL      MAKE SURE SEED IS ODD
   000012    000000 6260 00             49           EAX6      0         ZERO INDEX
                                        50  *  GENERATE RANDOM NUMBERS FROM SEED
   000013 (0)000115 4020 00             51  MSKLOOP  MPY       MAGIC     MULTIPLY BY MAGIC NUMBER
   000014    2 00010 7561 16            52           STQ       VAR,6,A
   000015    000001 6260 16             53           EAX6      1,6       INCR 6
   000016    000012 1060 03             54           CMPX6     10,DU
   000017 (0)000013 6010 00             55           TNZ       MSKLOOP   GENERATE 10 NUMBERS
                                        56  *
                                        57  *  GENERATE 6-BIT SHIFT VALUES
                                        58  *
   000020    000000 6260 00             59           EAX6      0         CLEAR INDEX
   000021    000000 6250 00             60           EAX5      0         ZERO INDEX 5
   000022    2 00020 2351 00            61           LDA       VAR+8,,A  TWO RANDOM NUMBERS IN A AND Q
   000023    000014 7730 00             62           LRL       12        SHIFT AQ RIGHT 12
   000024    2 00020 7551 16            63  SHFTLOOP STA       SHFT,6,A  6-BIT VALUE IN HW 0
   000025    2 00020 4451 16            64           SXL5      SHFT,6,A  CLEAR HW 1
   000026    000006 7370 00             65           LLS       6         SHIFT AQ LEFT 6
   000027 (1)000000 3750 00             66           ANA       =O000077777777   AND OFF HIGH ORDER 12 BITS
   000030    000001 6260 16             67           EAX6      1,6       INCR X6
   000031    000007 1060 03             68           CMPX6     7,DU
   000032 (0)000024 6010 00             69           TNZ       SHFTLOOP  GENERATE 7 VALUES
                                        70  *
                                        71  *
   000033    2 00003 4735 00            72           LDP3      BUF,,A    POINTER TO POINTER TO BUFFER
   000034    3 00000 4735 00            73           LDP3      ,,3       POINTER TO BUFFER
   000035    2 00004 4755 00            74           LDP5      WRDS,,A   POINTER TO # WORDS
 16:42 07/29/97  FILE=FMD$BUF1.:E05TSI                                                                   3    BMAP - B00
   000036    5 00000 7251 00            75           LXL5      ,,5       # WORDS
   000037  X 000000 6000 00             76           TZE       X66_ARET
   000040    000000 6260 00             77           EAX6      0         CLEAR INDEX
   000041    2 00006 4775 00            78           LDP7      CSEED,,A  POINTER TO CURRENT SEED
   000042    7 00000 2351 00            79           LDA       ,,7       GET CURRENT SEED
   000043    2 00007 4745 00            80           LDP4      FAK,,A
   000044    4 00000 2361 00            81           LDQ       ,,4       GET FIRST SEG INDICATOR
   000045 (0)000047 6000 00             82           TZE       CLOOP     ZERO, NOT FIRST PART
   000046    2 00010 2351 00            83           LDA       VAR,,A
                                        84  *
   000047    2 00027 7551 00            85  CLOOP    STA       TMP,,A    SAVE A
   000050    2 00025 7751 20            86           ALR       SHFT+5,*,A  SHIFT BY AMOUNT IN SHFT+5
   000051    2 00016 0351 00            87           ADLA      MSK+5,,A  ADD MASK 5
   000052    2 00026 7751 20            88           ALR       SHFT+6,*,A  SHIFT BY AMOUNT IN SHFT+6
   000053    2 00017 6751 00            89           ERA       MSK+6,,A  EOR WITH MASK 6
   000054    000000 6210 05             90           EAX1      0,AL      CAPTURE LOW A IN X1
                                        91  *
   000055    2 00027 2351 00            92           LDA       TMP,,A    RESTORE A
   000056    2 00020 7751 20            93           ALR       SHFT,*,A
   000057    2 00011 0351 00            94           ADLA      MSK,,A
   000060    000010 3010 03             95           CANX1     =O10,DU
   000061    000002 6010 04             96           TNZ       2,IC
   000062    2 00021 7751 20            97           ALR       SHFT+1,*,A
   000063    2 00012 6751 00            98           ERA       MSK+1,,A
   000064    000004 3010 03             99           CANX1     =O4,DU
   000065    000002 6010 04            100           TNZ       2,IC
   000066    2 00022 7751 20           101           ALR       SHFT+2,*,A
   000067    2 00013 0351 00           102           ADLA      MSK+2,,A
   000070    000002 3010 03            103           CANX1     =O2,DU
   000071    000002 6010 04            104           TNZ       2,IC
   000072    2 00023 7751 20           105           ALR       SHFT+3,*,A
   000073    2 00014 6751 00           106           ERA       MSK+3,,A
   000074    000001 3010 03            107           CANX1     =O1,DU
   000075    000002 6010 04            108           TNZ       2,IC
   000076    2 00024 7751 20           109           ALR       SHFT+4,*,A
   000077    2 00015 0351 00           110           ADLA      MSK+4,,A
                                       111  *
 16:42 07/29/97  FILE=FMD$BUF1.:E05TSI                                                                   4    BMAP - B00
   000100    3 00000 6751 16           112           ERA       0,6,3     EOR
                                       113  *
   000101    000000 1040 03            114           CMPX4     0,DU
   000102 (0)000111 6010 00            115           TNZ       CL8       BR IF DECRYPTION
   000103    3 00000 7551 16           116           STA       0,6,3
                                       117  *
   000104    000001 6260 16            118  CL6      EAX6      1,6       INCR INDEX
   000105    777777 6250 15            119           EAX5      -1,5
   000106 (0)000047 6054 00            120           TPNZ      CLOOP
                                       121  *
   000107    7 00000 7551 00           122           STA       ,,7       UPDATE CURRENT SEED
                                       123  *
   000110  X 000000 7100 00            124           TRA       X66_ARET
                                       125  *
   000111    3 00000 2361 16           126  CL8      LDQ       0,6,3     SAVE OLD VALUE
   000112    3 00000 7551 16           127           STA       0,6,3     STORE NEW
   000113    000044 7370 00            128           LLS       36        MOVE Q TO A
   000114 (0)000104 7100 00            129           TRA       CL6
                                       130  *
   000115    000001000003              131  MAGIC    OCT       1000003   MAGIC NUMBER FOR MULTIPLY
                                       132  *
                                       133           END
 1 000000    000077777777

  CONTROL SECTION TABLE

   0 CODE   EVEN  000116 PROCED
   1 RODATA EVEN  000001 LITERALS

 16:42 07/29/97  FILE=FMD$BUF1.:E05TSI        SYMBOL TABLE                                               5    BMAP - B00
 41000000 000000000002 A              *23        46        52        61        63        64        72
                                       74        78        80        83        85        86        87
                                       88        89        92        93        94        97        98
                                      101       102       105       106       109       110
 41000000 000000000003 BUF            *24        72
 01101000 000000000104 CL6           *118       129
 01101000 000000000111 CL8            115      *126
 01101000 000000000047 CLOOP           82       *85       120
 01101000 000000000007 COMMON          39       *46
 41000000 000000000006 CSEED          *27        78
 41000000 000000000007 FAK            *28        29        80
 12101000 000000000004 FMD$DECRYPT     20       *41
 12101000 000000000000 FMD$ENCRYPT     20       *36
 41000000 000000000005 ISEED          *26        46
 01101000 000000000115 MAGIC           51      *131
 41000000 000000000011 MSK            *31        87        89        94        98       102       106
                                      110
 01101000 000000000013 MSKLOOP        *51        55
 41000000 000000000030 NUMAUTO        *34        37        42
 41000000 000000000005 NUMPAR         *29        37        42
 41000000 000000000020 SHFT           *32        63        64        86        88        93        97
                                      101       105       109
 01101000 000000000024 SHFTLOOP       *63        69
 41000000 000000000027 TMP            *33        34        85        92
 41000000 000000000010 VAR            *30        52        61        83
 41000000 000000000004 WRDS           *25        74
 03201001 000000000000 X66_ARET       *21        76       124
 03201000 000000000000 X66_AUTO_N     *21        36        41

      23 SYMBOLS

       0 MACROS

    SYMBOL SPACE USED   363 WORDS
     MACRO SPACE USED     0 WORDS
   INPUT RECORDS READ   266
 STATEMENTS PROCESSED   109
 16:42 07/29/97  FILE=FMD$BUF1.:E05TSI        SYMBOL TABLE                                               6    BMAP - B00
         ELAPSED TIME  0:01.84
             CPU TIME     1.06 SEC.
        ASSEMBLY RATE  6170 STATEMENTS/CPU MIN.

      NO ERRORS

