PL6.E3A0      #002=FMF$ICORRES File=FMF$PMME.:E05TSI                             TUE 07/29/97 16:44 Page:213
     1391        1        /*T***********************************************************/
     1392        2        /*T*                                                         */
     1393        3        /*T* Copyright (c) Bull HN Information Systems Inc., 1997    */
     1394        4        /*T*                                                         */
     1395        5        /*T***********************************************************/
     1396        6        FMF$ICORRES: PROC(IDCB1,IDCB2,IERR1,IERR2);
     1397        7        /*F*    NAME: FMF$ICORRES
     1398        8                PURPOSE: Internal entry point to M$CORRES for use by
     1399        9                   monitor folk.  Is passed two DCB numbers, returns
     1400       10                   two error words zeroed or containing error reasons.
     1401       11                   See FMF$CORRES for more complete description. */
     1402       12        /*D*    NAME: FMF$ICORRES
     1403       13                CALL: CALL FMF$ICORRES(DCB1,DCB2,ERR1,ERR2);
     1404       14                INPUT: DCB1 and DCB2 are two DCB numbers. (UBIN HALF).
     1405       15                OUTPUT: ERR1 and ERR2 indicate whether DCB1 and DCB2 are
     1406       16                   valid DCB's and whether their assignments correspond.
     1407       17                   If DCBi is zero, ERRi will be zero.
     1408       18                   If DCBi is not a DCB, ERRi will be E$BADDCB#.
     1409       19                   If DCBi is a good DCB, ERRi will be zero, unless both
     1410       20                      DCB's are good and assigned the same place, in which
     1411       21                      case ERR2 will be E$CORRES.
     1412       22         */
     1413       23    1   DCL IDCB1 UBIN HALF HALIGNED;
     1414       24    1   DCL IDCB2 UBIN HALF HALIGNED;
     1415       25    1   DCL IERR1 BIT(36) ALIGNED;
     1416       26    1   DCL IERR2 BIT(36) ALIGNED;
     1417       27        /* LOCAL AUTOMATIC STORAGE */
     1418       28    1   DCL DCB1$ PTR;
     1419       29    1   DCL DCB2$ PTR;
     1420       30    1   DCL ASN1 SBIN;
     1421       31    1   DCL ASN2 SBIN;
     1422       32    1   DCL THEDCB UBIN;
     1423       33    1   DCL ACCT1 CHAR(8);
     1424       34    1   DCL ACCT2 CHAR(8);
     1425       35    1   DCL PSN1 CHAR(6);
     1426       36    1   DCL PSN2 CHAR(6);
     1427       37        /* INCLUDE FILES */
PL6.E3A0      #002=FMF$ICORRES File=FMF$PMME.:E05TSI                             TUE 07/29/97 16:44 Page:214
     1428       38        %INCLUDE F$DCB;
     1429       87        %INCLUDE B$ROSEG;
     1430      150        %INCLUDE B$JIT;
     1431      753        %INCLUDE F$CP6V_C;
     1432      979        %INCLUDE F_ERRORS_C;
     1433     1219        %INCLUDE UD_ERRORS_C;
     1434     1261        %INCLUDE F_MACROS_C;
     1435     1272        %INCLUDE CP_6_SUBS;
     1436     1812        /* SUBSTITUTIONS */
     1437     1813        %SUB FCG#='0615'O;
     1438     1814        %SUB MID#='06'O;
     1439     1815        /* EXTERNAL DATA */
     1440     1816    1   DCL B$JIT$ PTR SYMREF READONLY;
     1441     1817    1   DCL B$M$UC$ PTR SYMREF READONLY;
     1442     1818    1   DCL B$ROSEG$ PTR SYMREF;
     1443     1819    1   DCL B$PS0$ PTR SYMREF READONLY;
     1444     1820        /* CONSTANT STORAGE */
     1445     1821        %ERRCODE (NAME=ECORRES,COD#=%E$CORRES);
     1446     1825        %ERRCODE (NAME=ERRBADDCB,COD#=%E$BADDCB#);
     1447     1829        /* FPTS */
     1448     1830        %FPT$CORRES_V (BASED="BASED(B$PS0$)");
     1449     1833        /**/
     1450     1834    1           IERR1='0'B; IERR2='0'B;
     1451     1835    1           THEDCB=IDCB1;
     1452     1836    2           IF THEDCB~=0 THEN DO;
     1453     1837    2              CALL CHKDCB ALTRET(ONEBAD);
     1454     1838                                      /* Returns DCB2$ ->THEDCB,  ASN2 =THEDCB.ASN    */
     1455     1839    2              DCB1$=DCB2$; ASN1=ASN2;
     1456     1840    2              THEDCB=IDCB2;
     1457     1841    3              IF THEDCB~=0 THEN DO;
     1458     1842    3                 CALL CHKDCB ALTRET(TWOBAD);
     1459     1843    3                 CALL DOCORRES(IERR2);
     1460     1844    3                 END;
     1461     1845    2              RETURN;
     1462     1846    2   ONEBAD:    IERR1=ERRBADDCB;
     1463     1847    2              END;
     1464     1848                       /* IDCB1 is zero or bad. IERR1 has been set. Look at IDCB2.*/
PL6.E3A0      #002=FMF$ICORRES File=FMF$PMME.:E05TSI                             TUE 07/29/97 16:44 Page:215
     1465     1849                       /*(We don't need to CORRES, since at most one DCB is good.)*/
     1466     1850    1           THEDCB=IDCB2;
     1467     1851    1           IF THEDCB~=0 THEN CALL CHKDCB ALTRET(TWOBAD);
     1468     1852    1           RETURN;
     1469     1853    1   TWOBAD: IERR2=ERRBADDCB;
     1470     1854    1           RETURN;
     1471     1855    1   FMF$CORRES: ENTRY;
     1472     1856        /*F*    NAME: FMF$CORRES
     1473     1857                PURPOSE: FMF$CORRES performs the M$CORRES PMME.  It is passed
     1474     1858                   two DCB numbers.  If their assignments correspond, it
     1475     1859                   sets B$JIT.ERR to be E$CORRES.  If their assignments
     1476     1860                   differ, it sets B$JIT.ERR zero. */
     1477     1861        /*D*    NAME: FMF$CORRES
     1478     1862                CALL: CALL FMF$CORRES.
     1479     1863                INPUT: $PS0 points to the V area of an M$CORRES FPT.
     1480     1864                   This area contains the numbers of two DCB's.
     1481     1865                OUTPUT: B$JIT.ERR contains E$BADDCB# if either "DCB number"
     1482     1866                            is not the number of a DCB.
     1483     1867                      B$JIT.ERR contains E$CORRES if the assignments of the
     1484     1868                         two DCB's are the same.
     1485     1869                      B$JIT.ERR is zero if the assignments of the two DCB's
     1486     1870                         are different.
     1487     1871         */
     1488     1872        /**/
     1489     1873    1           THEDCB=FPT$CORRES_V.DCB1;
     1490     1874    1           CALL CHKDCB ALTRET(BADDCB);
     1491     1875                                      /* Returns DCB2$ ->THEDCB,  ASN2 =THEDCB.ASN    */
     1492     1876    1           DCB1$=DCB2$; ASN1=ASN2;
     1493     1877    1           THEDCB=FPT$CORRES_V.DCB2;
     1494     1878    1           CALL CHKDCB ALTRET(BADDCB);
     1495     1879    1           CALL DOCORRES(B$JIT.ERR);
     1496     1880    1           RETURN;
     1497     1881    1   BADDCB: B$JIT.ERR=ERRBADDCB;
     1498     1882    1           RETURN;
     1499     1883        /**/
     1500     1884        /*E*   ERROR:   FMF-E$BADDCB#-2
     1501     1885        *       MESSAGE: One or both of the DCB numbers passed to M$CORRES
PL6.E3A0      #002=FMF$ICORRES File=FMF$PMME.:E05TSI                             TUE 07/29/97 16:44 Page:216
     1502     1886        is for a DCB that doesn't exist
     1503     1887        */
     1504     1888        /**/
     1505     1889        /**/
     1506     1890    1   CHKDCB: PROC ALTRET;
     1507     1891    2           IF THEDCB>B$ROSEG$->B$ROSEG.NUMDCBS THEN ALTRETURN;
     1508     1892    2           DCB2$=B$ROSEG$->B$ROSEG.DCBPTR$->B$RODCB$(THEDCB);
     1509     1893    2           IF DCB2$=ADDR(NIL) THEN ALTRETURN;
     1510     1894    2           IF THEDCB=%M$UC# THEN ASN2=%DEVICE#;
     1511     1895    2           ELSE ASN2=DCB2$->F$DCB.ASN;
     1512     1896    2           RETURN;
     1513     1897    2   END CHKDCB;
     1514     1898        /**/
     1515     1899        /**/
     1516     1900    1   DOCORRES: PROC(ERRWORD);
     1517     1901    2   DCL ERRWORD BIT(36) ALIGNED;
     1518     1902        /**/
     1519     1903    2           IF ASN1~=ASN2 THEN GOTO DIFF;
     1520     1904    3           DO CASE(ASN1);
     1521     1905    3            CASE(0); GOTO DIFF;            /*ASN=0 are no-match.*/
     1522     1906    3            CASE(%FILE#,%TAPE#);
     1523     1907    3              IF DCB1$->F$DCB.NAME~=
     1524     1908    3                DCB2$->F$DCB.NAME
     1525     1909    3              THEN GOTO DIFF;
     1526     1910    3              ACCT1=DCB1$->F$DCB.ACCT;
     1527     1911    3              PSN1=DCB1$->F$DCB.PSN;
     1528     1912    3              PSN2=DCB2$->F$DCB.PSN;
     1529     1913    4              IF ACCT1=' ' THEN DO;
     1530     1914    4                 ACCT1=B$JIT.FACCN;
     1531     1915    4                 IF PSN1=' ' THEN
     1532     1916    4                    PSN1=B$JIT.FPSN;
     1533     1917    4                 END;
     1534     1918    3              ACCT2=DCB2$->F$DCB.ACCT;
     1535     1919    4              IF ACCT2=' ' THEN DO;
     1536     1920    4                 ACCT2=B$JIT.FACCN;
     1537     1921    4                 IF PSN2=' ' THEN
     1538     1922    4                    PSN2=B$JIT.FPSN;
PL6.E3A0      #002=FMF$ICORRES File=FMF$PMME.:E05TSI                             TUE 07/29/97 16:44 Page:217
     1539     1923    4                 END;
     1540     1924    3              IF ACCT1~=ACCT2 THEN
     1541     1925    3                 GOTO DIFF;
     1542     1926    3              IF PSN1~=PSN2 THEN
     1543     1927    3                 GOTO DIFF;
     1544     1928    3              GOTO SAME;
     1545     1929    3            CASE(%DEVICE#);
     1546     1930                                      /*GETRES ALTRET is dd@wsn; they're all different*/
     1547     1931    3              CALL GETRES(ASN1,DCB1$)ALTRET(DIFF);
     1548     1932    3              CALL GETRES(ASN2,DCB2$)ALTRET(DIFF);
     1549     1933    4              DO SELECT(ASN1+10*ASN2);
     1550     1934                   /*0=Commands(file),1=LP01,2=CP01,3=UC,4=NO,
     1551     1935                      5=MT..,6=MTnn,7=DP,8=etc.*/
     1552     1936    4                 SELECT(00,11,22,33,44);
     1553     1937    4                 GOTO SAME;
     1554     1938    4                 SELECT(66,77);            /*MT/DP same if same nn & same SN*/
     1555     1939    4                 IF SUBSTR(DCB1$->F$DCB.RES,2,2)=
     1556     1940    4                   SUBSTR(DCB2$->F$DCB.RES,2,2) THEN GOTO COMPSN;
     1557     1941    4                 SELECT(55,56,65);         /*MT=MTnn if same SN*/
     1558     1942    4   COMPSN:       ;
     1559     1943    4                 IF DCB1$->F$DCB.PSN=DCB2$->F$DCB.PSN THEN
     1560     1944    4                    GOTO SAME;
     1561     1945    4                 SELECT(88);               /*Others (Streams) same if same RES*/
     1562     1946    4                 IF DCB1$->F$DCB.RES=DCB2$->F$DCB.RES THEN
     1563     1947    4                    GOTO SAME;
     1564     1948    4                 END;
     1565     1949    3              GOTO DIFF;
     1566     1950    3            END;
     1567     1951        /**/
     1568     1952    2   SAME:   ERRWORD=ECORRES;
     1569     1953    2   DIFF:   RETURN;
     1570     1954    2   END DOCORRES;
     1571     1955        /**/
     1572     1956        /*E*   ERROR:   FMF-E$CORRES-2
     1573     1957        *       MESSAGE: The two DCBs are assigned to the same thing
     1574     1958        */
     1575     1959        /**/
PL6.E3A0      #002=FMF$ICORRES File=FMF$PMME.:E05TSI                             TUE 07/29/97 16:44 Page:218
     1576     1960        /**/
     1577     1961    1   GETRES: PROC(I,DCB$) ALTRET;
     1578     1962    2   DCL I SBIN;
     1579     1963    2   DCL DCB$ PTR;
     1580     1964        /*
     1581     1965         *      OPLABEL tables.
     1582     1966         *      "OPLABEL" is user-specified 2-character oplabel names.
     1583     1967         *      "OPL_xxx" (xxx per user mode ... Batch,Ghost,etc.) is
     1584     1968         *         index defining where the oplabel goes ..
     1585     1969         *         0 = CR01   1 = LP01   2 = CP01   3 = M$UC    4 = NO
     1586     1970         */
     1587     1971    2   DCL OPLABEL CHAR(0)CONSTANT INIT
     1588     1972    2           ('ME NO UC JE JF C1 L1 P1 CR LP CP SI LO PO');
     1589     1973    2   DCL OPL_BAT(0:13) UBIN(9) UNAL CONSTANT INIT
     1590     1974    2           (  1, 4, 4, 9, 9, 0, 1, 2, 0, 1, 2, 0, 1, 2);
     1591     1975    2   DCL OPL_INT(0:13) UBIN(9) UNAL CONSTANT INIT
     1592     1976    2           (  3, 4, 3, 9, 9, 0, 1, 2, 0, 1, 2, 0, 3, 4);
     1593     1977        /**/
     1594     1978    3           IF DCB$=B$M$UC$ THEN DO;
     1595     1979    3              IF B$ROSEG$->B$ROSEG.CR01ID.INT THEN I=3;
     1596     1980    3              ELSE I=4;
     1597     1981    3              RETURN;
     1598     1982    3              END;
     1599     1983    2           IF DCB$->F$DCB.WSN~=' ' THEN ALTRETURN;
     1600     1984    2           CALL INDEX(I,' ',DCB$->F$DCB.RES);
     1601     1985    3           DO CASE(I);
     1602     1986    3            CASE(0,1,3); ALTRETURN;        /* BAD RES NOT EQUAL                  */
     1603     1987    3            CASE(2);
     1604     1988    3              IF SUBSTR(DCB$->F$DCB.RES,2,2)~='  ' THEN ALTRETURN;
     1605     1989    3              CALL INDEX(I,SUBSTR(DCB$->F$DCB.RES,0,2),OPLABEL)
     1606     1990    3                ALTRET(LBLNOT2);
     1607     1991    3              IF B$ROSEG$->B$ROSEG.CR01ID.INT THEN
     1608     1992    3                 I=OPL_INT(I/3);
     1609     1993    3              ELSE I=OPL_BAT(I/3);
     1610     1994    3              IF I=0 THEN IF B$JIT.NEXTCC=%CC_FROMUC# THEN I=3;
     1611     1995    3            CASE(4);
     1612     1996    3   LBLNOT2:   CALL INDEX(I,SUBSTR(DCB$->F$DCB.RES,0,2),
PL6.E3A0      #002=FMF$ICORRES File=FMF$PMME.:E05TSI                             TUE 07/29/97 16:44 Page:219
     1613     1997    3                'LP CP FT MT LT DP UC');
     1614     1998    4              DO CASE(I);
     1615     1999    4               CASE(0);
     1616     2000    4                 IF DCB$->F$DCB.RES='LP01' THEN I=1;
     1617     2001    4                 ELSE I=8;
     1618     2002    4               CASE(3);
     1619     2003    4                 IF DCB$->F$DCB.RES='CP01' THEN I=2;
     1620     2004    4                 ELSE I=8;
     1621     2005    4               CASE(6,9,12);
     1622     2006    4                 IF SUBSTR(DCB$->F$DCB.RES,2,2)='  ' THEN I=5;
     1623     2007    4                 ELSE I=6;
     1624     2008    4               CASE(15);
     1625     2009    4                 I=7;
     1626     2010    4               CASE(18);
     1627     2011    4                 I=3;
     1628     2012    4               CASE(ELSE);
     1629     2013    4                 I=8;
     1630     2014    4               END;
     1631     2015    3            END;
     1632     2016    2           RETURN;
     1633     2017    2   END GETRES;
     1634     2018        /**/
     1635     2019    1   END FMF$ICORRES;
     1636     2020        %EOD;

PL6.E3A0      #002=FMF$ICORRES File=FMF$PMME.:E05TSI                             TUE 07/29/97 16:44 Page:220
--  Include file information  --

   CP_6_SUBS.:E05TOU  is referenced.
   F_MACROS_C.:E05TOU  is referenced.
   UD_ERRORS_C.:E05TOU  is referenced.
   F_ERRORS_C.:E05TOU  is referenced.
   F$CP6V_C.:E05TOU  is referenced.
   B$JIT_C.:E05TOU  is referenced.
   B$JIT.:E05TOU  cannot be made into a system file and is referenced.
   B$ROSEG.:E05TOU  cannot be made into a system file and is referenced.
   F$DCB.:E05TOU  cannot be made into a system file and is referenced.
      No diagnostics issued in procedure FMF$ICORRES.

   Procedure FMF$ICORRES requires 386 words for executable code.
   Procedure FMF$ICORRES requires 26 words of local(AUTO) storage.

PL6.E3A0      #002=FMF$ICORRES File=FMF$PMME.:E05TSI                             TUE 07/29/97 16:44 Page:221

 Object Unit name= FMF$ICORRES                                File name= FMF$PMME.:E05TOU
 UTS= JUL 29 '97 16:44:33.92 TUE                              Compiler= PL-6/E31         Sev=      00
 SharedLib= :SHARED_SYSTEM                                    Alt SharedLib=


    ****  Control sections  ****

 Sect   Type Bound  Init  Size OctSiz  Section name(segment info)
    0  RoData even  UTS     29     35  FMF$ICORRES
    1   Proc  even  none   386    602  FMF$ICORRES
    2  RoData even  none     2      2  FMF$ICORRES

    ****  Entry defs  ****

                              Check   Calling
                             calling  sequence
  Sect OctLoc Primary Altret sequence   type   Parms  Name
     1      0   yes            yes      Std        4  FMF$ICORRES
     1     57                  yes      Std        0  FMF$CORRES

  ****  Entry refs  ****

         Check        Calling
        calling       sequence
Altret sequence SRef   type   Args  Name
                       nStd      0 X66_AUTO_4
                       nStd      0 X66_ARET
                       Std       0 B_CONSPOOL_D

  ****  Data refs  ****

  Flags:  r = read only, s = secondary
Flgs Name                             Flgs Name                             Flgs Name
r    B$JIT$                           r    B$M$UC$                               B$ROSEG$
r    B$PS0$                                B_VECTNIL
PL6.E3A0      #002=FMF$ICORRES File=FMF$PMME.:E05TSI                             TUE 07/29/97 16:44 Page:222


     1391        1        /*T***********************************************************/
     1392        2        /*T*                                                         */
     1393        3        /*T* Copyright (c) Bull HN Information Systems Inc., 1997    */
     1394        4        /*T*                                                         */
     1395        5        /*T***********************************************************/
     1396        6        FMF$ICORRES: PROC(IDCB1,IDCB2,IERR1,IERR2);

      6  1 000000   000000 700200 xent  FMF$ICORRES  TSX0  ! X66_AUTO_4
         1 000001   000032 000004                    ZERO    26,4

     1397        7        /*F*    NAME: FMF$ICORRES
     1398        8                PURPOSE: Internal entry point to M$CORRES for use by
     1399        9                   monitor folk.  Is passed two DCB numbers, returns
     1400       10                   two error words zeroed or containing error reasons.
     1401       11                   See FMF$CORRES for more complete description. */
     1402       12        /*D*    NAME: FMF$ICORRES
     1403       13                CALL: CALL FMF$ICORRES(DCB1,DCB2,ERR1,ERR2);
     1404       14                INPUT: DCB1 and DCB2 are two DCB numbers. (UBIN HALF).
     1405       15                OUTPUT: ERR1 and ERR2 indicate whether DCB1 and DCB2 are
     1406       16                   valid DCB's and whether their assignments correspond.
     1407       17                   If DCBi is zero, ERRi will be zero.
     1408       18                   If DCBi is not a DCB, ERRi will be E$BADDCB#.
     1409       19                   If DCBi is a good DCB, ERRi will be zero, unless both
     1410       20                      DCB's are good and assigned the same place, in which
     1411       21                      case ERR2 will be E$CORRES.
     1412       22         */
     1413       23    1   DCL IDCB1 UBIN HALF HALIGNED;
     1414       24    1   DCL IDCB2 UBIN HALF HALIGNED;
     1415       25    1   DCL IERR1 BIT(36) ALIGNED;
     1416       26    1   DCL IERR2 BIT(36) ALIGNED;
     1417       27        /* LOCAL AUTOMATIC STORAGE */
     1418       28    1   DCL DCB1$ PTR;
     1419       29    1   DCL DCB2$ PTR;
     1420       30    1   DCL ASN1 SBIN;
     1421       31    1   DCL ASN2 SBIN;
     1422       32    1   DCL THEDCB UBIN;
PL6.E3A0      #002=FMF$ICORRES File=FMF$PMME.:E05TSI                             TUE 07/29/97 16:44 Page:223
     1423       33    1   DCL ACCT1 CHAR(8);
     1424       34    1   DCL ACCT2 CHAR(8);
     1425       35    1   DCL PSN1 CHAR(6);
     1426       36    1   DCL PSN2 CHAR(6);
     1427       37        /* INCLUDE FILES */
     1428       38        %INCLUDE F$DCB;
     1429       87        %INCLUDE B$ROSEG;
     1430      150        %INCLUDE B$JIT;
     1431      753        %INCLUDE F$CP6V_C;
     1432      979        %INCLUDE F_ERRORS_C;
     1433     1219        %INCLUDE UD_ERRORS_C;
     1434     1261        %INCLUDE F_MACROS_C;
     1435     1272        %INCLUDE CP_6_SUBS;
     1436     1812        /* SUBSTITUTIONS */
     1437     1813        %SUB FCG#='0615'O;
     1438     1814        %SUB MID#='06'O;
     1439     1815        /* EXTERNAL DATA */
     1440     1816    1   DCL B$JIT$ PTR SYMREF READONLY;
     1441     1817    1   DCL B$M$UC$ PTR SYMREF READONLY;
     1442     1818    1   DCL B$ROSEG$ PTR SYMREF;
     1443     1819    1   DCL B$PS0$ PTR SYMREF READONLY;
     1444     1820        /* CONSTANT STORAGE */
     1445     1821        %ERRCODE (NAME=ECORRES,COD#=%E$CORRES);
     1446     1825        %ERRCODE (NAME=ERRBADDCB,COD#=%E$BADDCB#);
     1447     1829        /* FPTS */
     1448     1830        %FPT$CORRES_V (BASED="BASED(B$PS0$)");
     1449     1833        /**/
     1450     1834    1           IERR1='0'B; IERR2='0'B;

   1834  1 000002   200005 470500                    LDP0    @IERR1,,AUTO
         1 000003   000000 450100                    STZ     0,,PR0

   1834  1 000004   200006 471500                    LDP1    @IERR2,,AUTO
         1 000005   100000 450100                    STZ     0,,PR1

     1451     1835    1           THEDCB=IDCB1;

PL6.E3A0      #002=FMF$ICORRES File=FMF$PMME.:E05TSI                             TUE 07/29/97 16:44 Page:224
   1835  1 000006   200003 473500                    LDP3    @IDCB1,,AUTO
         1 000007   000100 101500                    MRL     fill='000'O
         1 000010   300000 000002                    ADSC9   0,,PR3                   cn=0,n=2
         1 000011   200013 000004                    ADSC9   THEDCB,,AUTO             cn=0,n=4

     1452     1836    2           IF THEDCB~=0 THEN DO;

   1836  1 000012   200013 235100                    LDA     THEDCB,,AUTO
         1 000013   000042 600000 1                  TZE     s:1850

     1453     1837    2              CALL CHKDCB ALTRET(ONEBAD);

   1837  1 000014   000113 701000 1                  TSX1    CHKDCB
         1 000015   000037 702000 1                  TSX2    ONEBAD

     1454     1838                                      /* Returns DCB2$ ->THEDCB,  ASN2 =THEDCB.ASN    */
     1455     1839    2              DCB1$=DCB2$; ASN1=ASN2;

   1839  1 000016   200010 236100                    LDQ     DCB2$,,AUTO
         1 000017   200007 756100                    STQ     DCB1$,,AUTO

   1839  1 000020   200012 235100                    LDA     ASN2,,AUTO
         1 000021   200011 755100                    STA     ASN1,,AUTO

     1456     1840    2              THEDCB=IDCB2;

   1840  1 000022   200004 470500                    LDP0    @IDCB2,,AUTO
         1 000023   000100 101500                    MRL     fill='000'O
         1 000024   000000 000002                    ADSC9   0,,PR0                   cn=0,n=2
         1 000025   200013 000004                    ADSC9   THEDCB,,AUTO             cn=0,n=4

     1457     1841    3              IF THEDCB~=0 THEN DO;

   1841  1 000026   200013 235100                    LDA     THEDCB,,AUTO
         1 000027   000036 600000 1                  TZE     s:1845

     1458     1842    3                 CALL CHKDCB ALTRET(TWOBAD);
PL6.E3A0      #002=FMF$ICORRES File=FMF$PMME.:E05TSI                             TUE 07/29/97 16:44 Page:225

   1842  1 000030   000113 701000 1                  TSX1    CHKDCB
         1 000031   000053 702000 1                  TSX2    TWOBAD

     1459     1843    3                 CALL DOCORRES(IERR2);

   1843  1 000032   200006 236100                    LDQ     @IERR2,,AUTO
         1 000033   200025 756100                    STQ     PSN2+3,,AUTO
         1 000034   000145 701000 1                  TSX1    DOCORRES
         1 000035   000000 011000                    NOP     0

     1460     1844    3                 END;

     1461     1845    2              RETURN;

   1845  1 000036   000000 702200 xent               TSX2  ! X66_ARET

     1462     1846    2   ONEBAD:    IERR1=ERRBADDCB;

   1846  1 000037   000001 236000 0     ONEBAD       LDQ     ERRBADDCB
         1 000040   200005 470500                    LDP0    @IERR1,,AUTO
         1 000041   000000 756100                    STQ     0,,PR0

     1463     1847    2              END;

     1464     1848                       /* IDCB1 is zero or bad. IERR1 has been set. Look at IDCB2.*/
     1465     1849                       /*(We don't need to CORRES, since at most one DCB is good.)*/
     1466     1850    1           THEDCB=IDCB2;

   1850  1 000042   200004 471500                    LDP1    @IDCB2,,AUTO
         1 000043   000100 101500                    MRL     fill='000'O
         1 000044   100000 000002                    ADSC9   0,,PR1                   cn=0,n=2
         1 000045   200013 000004                    ADSC9   THEDCB,,AUTO             cn=0,n=4

     1467     1851    1           IF THEDCB~=0 THEN CALL CHKDCB ALTRET(TWOBAD);

   1851  1 000046   200013 235100                    LDA     THEDCB,,AUTO
PL6.E3A0      #002=FMF$ICORRES File=FMF$PMME.:E05TSI                             TUE 07/29/97 16:44 Page:226
         1 000047   000052 600000 1                  TZE     s:1852

   1851  1 000050   000113 701000 1                  TSX1    CHKDCB
         1 000051   000053 702000 1                  TSX2    TWOBAD

     1468     1852    1           RETURN;

   1852  1 000052   000000 702200 xent               TSX2  ! X66_ARET

     1469     1853    1   TWOBAD: IERR2=ERRBADDCB;

   1853  1 000053   000001 236000 0     TWOBAD       LDQ     ERRBADDCB
         1 000054   200006 470500                    LDP0    @IERR2,,AUTO
         1 000055   000000 756100                    STQ     0,,PR0

     1470     1854    1           RETURN;

   1854  1 000056   000000 702200 xent               TSX2  ! X66_ARET

     1471     1855    1   FMF$CORRES: ENTRY;

   1855  1 000057   000000 700200 xent  FMF$CORRES   TSX0  ! X66_AUTO_4
         1 000060   000032 000004                    ZERO    26,4

     1472     1856        /*F*    NAME: FMF$CORRES
     1473     1857                PURPOSE: FMF$CORRES performs the M$CORRES PMME.  It is passed
     1474     1858                   two DCB numbers.  If their assignments correspond, it
     1475     1859                   sets B$JIT.ERR to be E$CORRES.  If their assignments
     1476     1860                   differ, it sets B$JIT.ERR zero. */
     1477     1861        /*D*    NAME: FMF$CORRES
     1478     1862                CALL: CALL FMF$CORRES.
     1479     1863                INPUT: $PS0 points to the V area of an M$CORRES FPT.
     1480     1864                   This area contains the numbers of two DCB's.
     1481     1865                OUTPUT: B$JIT.ERR contains E$BADDCB# if either "DCB number"
     1482     1866                            is not the number of a DCB.
     1483     1867                      B$JIT.ERR contains E$CORRES if the assignments of the
     1484     1868                         two DCB's are the same.
PL6.E3A0      #002=FMF$ICORRES File=FMF$PMME.:E05TSI                             TUE 07/29/97 16:44 Page:227
     1485     1869                      B$JIT.ERR is zero if the assignments of the two DCB's
     1486     1870                         are different.
     1487     1871         */
     1488     1872        /**/
     1489     1873    1           THEDCB=FPT$CORRES_V.DCB1;

   1873  1 000061   000000 470400 xsym               LDP0    B$PS0$
         1 000062   000000 236100                    LDQ     0,,PR0
         1 000063   000022 772000                    QRL     18
         1 000064   200013 756100                    STQ     THEDCB,,AUTO

     1490     1874    1           CALL CHKDCB ALTRET(BADDCB);

   1874  1 000065   000113 701000 1                  TSX1    CHKDCB
         1 000066   000107 702000 1                  TSX2    BADDCB

     1491     1875                                      /* Returns DCB2$ ->THEDCB,  ASN2 =THEDCB.ASN    */
     1492     1876    1           DCB1$=DCB2$; ASN1=ASN2;

   1876  1 000067   200010 236100                    LDQ     DCB2$,,AUTO
         1 000070   200007 756100                    STQ     DCB1$,,AUTO

   1876  1 000071   200012 235100                    LDA     ASN2,,AUTO
         1 000072   200011 755100                    STA     ASN1,,AUTO

     1493     1877    1           THEDCB=FPT$CORRES_V.DCB2;

   1877  1 000073   000000 470400 xsym               LDP0    B$PS0$
         1 000074   000000 236100                    LDQ     0,,PR0
         1 000075   777777 376007                    ANQ     -1,DL
         1 000076   200013 756100                    STQ     THEDCB,,AUTO

     1494     1878    1           CALL CHKDCB ALTRET(BADDCB);

   1878  1 000077   000113 701000 1                  TSX1    CHKDCB
         1 000100   000107 702000 1                  TSX2    BADDCB

PL6.E3A0      #002=FMF$ICORRES File=FMF$PMME.:E05TSI                             TUE 07/29/97 16:44 Page:228
     1495     1879    1           CALL DOCORRES(B$JIT.ERR);

   1879  1 000101   000000 236000 xsym               LDQ     B$JIT$
         1 000102   000012 036003                    ADLQ    10,DU
         1 000103   200025 756100                    STQ     PSN2+3,,AUTO
         1 000104   000145 701000 1                  TSX1    DOCORRES
         1 000105   000000 011000                    NOP     0

     1496     1880    1           RETURN;

   1880  1 000106   000000 702200 xent               TSX2  ! X66_ARET

     1497     1881    1   BADDCB: B$JIT.ERR=ERRBADDCB;

   1881  1 000107   000001 236000 0     BADDCB       LDQ     ERRBADDCB
         1 000110   000000 470400 xsym               LDP0    B$JIT$
         1 000111   000012 756100                    STQ     10,,PR0

     1498     1882    1           RETURN;

   1882  1 000112   000000 702200 xent               TSX2  ! X66_ARET

     1499     1883        /**/
     1500     1884        /*E*   ERROR:   FMF-E$BADDCB#-2
     1501     1885        *       MESSAGE: One or both of the DCB numbers passed to M$CORRES
     1502     1886        is for a DCB that doesn't exist
     1503     1887        */
     1504     1888        /**/
     1505     1889        /**/
     1506     1890    1   CHKDCB: PROC ALTRET;

   1890  1 000113   200024 741300       CHKDCB       STX1  ! PSN2+2,,AUTO

     1507     1891    2           IF THEDCB>B$ROSEG$->B$ROSEG.NUMDCBS THEN ALTRETURN;

   1891  1 000114   000000 470400 xsym               LDP0    B$ROSEG$
         1 000115   000002 236100                    LDQ     2,,PR0
PL6.E3A0      #002=FMF$ICORRES File=FMF$PMME.:E05TSI                             TUE 07/29/97 16:44 Page:229
         1 000116   000022 772000                    QRL     18
         1 000117   200013 116100                    CMPQ    THEDCB,,AUTO
         1 000120   000122 603000 1                  TRC     s:1892

   1891  1 000121   000000 702211                    TSX2  ! 0,X1

     1508     1892    2           DCB2$=B$ROSEG$->B$ROSEG.DCBPTR$->B$RODCB$(THEDCB);

   1892  1 000122   000000 471500                    LDP1    0,,PR0
         1 000123   200013 720100                    LXL0    THEDCB,,AUTO
         1 000124   100000 236110                    LDQ     0,X0,PR1
         1 000125   200010 756100                    STQ     DCB2$,,AUTO

     1509     1893    2           IF DCB2$=ADDR(NIL) THEN ALTRETURN;

   1893  1 000126   000001 116000 xsym               CMPQ    B_VECTNIL+1
         1 000127   000131 601000 1                  TNZ     s:1894

   1893  1 000130   000000 702211                    TSX2  ! 0,X1

     1510     1894    2           IF THEDCB=%M$UC# THEN ASN2=%DEVICE#;

   1894  1 000131   200013 235100                    LDA     THEDCB,,AUTO
         1 000132   000003 115007                    CMPA    3,DL
         1 000133   000137 601000 1                  TNZ     s:1895

   1894  1 000134   000003 235007                    LDA     3,DL
         1 000135   200012 755100                    STA     ASN2,,AUTO
         1 000136   000144 710000 1                  TRA     s:1896

     1511     1895    2           ELSE ASN2=DCB2$->F$DCB.ASN;

   1895  1 000137   200010 471500                    LDP1    DCB2$,,AUTO
         1 000140   100032 236100                    LDQ     26,,PR1
         1 000141   000011 772000                    QRL     9
         1 000142   000777 376007                    ANQ     511,DL
         1 000143   200012 756100                    STQ     ASN2,,AUTO
PL6.E3A0      #002=FMF$ICORRES File=FMF$PMME.:E05TSI                             TUE 07/29/97 16:44 Page:230

     1512     1896    2           RETURN;

   1896  1 000144   000001 702211                    TSX2  ! 1,X1

     1513     1897    2   END CHKDCB;
     1514     1898        /**/
     1515     1899        /**/
     1516     1900    1   DOCORRES: PROC(ERRWORD);

   1900  1 000145   200024 741300       DOCORRES     STX1  ! PSN2+2,,AUTO

     1517     1901    2   DCL ERRWORD BIT(36) ALIGNED;
     1518     1902        /**/
     1519     1903    2           IF ASN1~=ASN2 THEN GOTO DIFF;

   1903  1 000146   200011 236100                    LDQ     ASN1,,AUTO
         1 000147   200012 116100                    CMPQ    ASN2,,AUTO
         1 000150   000354 601000 1                  TNZ     DIFF

     1520     1904    3           DO CASE(ASN1);

   1904  1 000151   000004 116007                    CMPQ    4,DL
         1 000152   000154 602006 1                  TNC     s:1904+3,QL
         1 000153   000351 710000 1                  TRA     SAME
         1 000154   000160 710000 1                  TRA     s:1905
         1 000155   000161 710000 1                  TRA     s:1907
         1 000156   000161 710000 1                  TRA     s:1907
         1 000157   000243 710000 1                  TRA     s:1931

     1521     1905    3            CASE(0); GOTO DIFF;            /*ASN=0 are no-match.*/

   1905  1 000160   000354 710000 1                  TRA     DIFF

     1522     1906    3            CASE(%FILE#,%TAPE#);

     1523     1907    3              IF DCB1$->F$DCB.NAME~=
PL6.E3A0      #002=FMF$ICORRES File=FMF$PMME.:E05TSI                             TUE 07/29/97 16:44 Page:231

   1907  1 000161   200007 470500                    LDP0    DCB1$,,AUTO
         1 000162   200010 471500                    LDP1    DCB2$,,AUTO
         1 000163   000100 106500                    CMPC    fill='000'O
         1 000164   000010 000040                    ADSC9   8,,PR0                   cn=0,n=32
         1 000165   100010 000040                    ADSC9   8,,PR1                   cn=0,n=32
         1 000166   000354 601000 1                  TNZ     DIFF

     1524     1908    3                DCB2$->F$DCB.NAME
     1525     1909    3              THEN GOTO DIFF;
     1526     1910    3              ACCT1=DCB1$->F$DCB.ACCT;

   1910  1 000167   000020 237100                    LDAQ    16,,PR0
         1 000170   200014 757100                    STAQ    ACCT1,,AUTO

     1527     1911    3              PSN1=DCB1$->F$DCB.PSN;

   1911  1 000171   040100 100500                    MLR     fill='040'O
         1 000172   000024 000006                    ADSC9   20,,PR0                  cn=0,n=6
         1 000173   200020 000006                    ADSC9   PSN1,,AUTO               cn=0,n=6

     1528     1912    3              PSN2=DCB2$->F$DCB.PSN;

   1912  1 000174   040100 100500                    MLR     fill='040'O
         1 000175   100024 000006                    ADSC9   20,,PR1                  cn=0,n=6
         1 000176   200022 000006                    ADSC9   PSN2,,AUTO               cn=0,n=6

     1529     1913    4              IF ACCT1=' ' THEN DO;

   1913  1 000177   200014 237100                    LDAQ    ACCT1,,AUTO
         1 000200   000000 117000 2                  CMPAQ   0
         1 000201   000214 601000 1                  TNZ     s:1918

     1530     1914    4                 ACCT1=B$JIT.FACCN;

   1914  1 000202   000000 473400 xsym               LDP3    B$JIT$
         1 000203   300006 237100                    LDAQ    6,,PR3
PL6.E3A0      #002=FMF$ICORRES File=FMF$PMME.:E05TSI                             TUE 07/29/97 16:44 Page:232
         1 000204   200014 757100                    STAQ    ACCT1,,AUTO

     1531     1915    4                 IF PSN1=' ' THEN

   1915  1 000205   040000 106500                    CMPC    fill='040'O
         1 000206   200020 000006                    ADSC9   PSN1,,AUTO               cn=0,n=6
         1 000207   000035 000001 xsym               ADSC9   B_VECTNIL+29             cn=0,n=1
         1 000210   000214 601000 1                  TNZ     s:1918

     1532     1916    4                    PSN1=B$JIT.FPSN;

   1916  1 000211   040100 100500                    MLR     fill='040'O
         1 000212   300021 000006                    ADSC9   17,,PR3                  cn=0,n=6
         1 000213   200020 000006                    ADSC9   PSN1,,AUTO               cn=0,n=6

     1533     1917    4                 END;

     1534     1918    3              ACCT2=DCB2$->F$DCB.ACCT;

   1918  1 000214   100020 237100                    LDAQ    16,,PR1
         1 000215   200016 757100                    STAQ    ACCT2,,AUTO

     1535     1919    4              IF ACCT2=' ' THEN DO;

   1919  1 000216   200016 237100                    LDAQ    ACCT2,,AUTO
         1 000217   000000 117000 2                  CMPAQ   0
         1 000220   000233 601000 1                  TNZ     s:1924

     1536     1920    4                 ACCT2=B$JIT.FACCN;

   1920  1 000221   000000 473400 xsym               LDP3    B$JIT$
         1 000222   300006 237100                    LDAQ    6,,PR3
         1 000223   200016 757100                    STAQ    ACCT2,,AUTO

     1537     1921    4                 IF PSN2=' ' THEN

   1921  1 000224   040000 106500                    CMPC    fill='040'O
PL6.E3A0      #002=FMF$ICORRES File=FMF$PMME.:E05TSI                             TUE 07/29/97 16:44 Page:233
         1 000225   200022 000006                    ADSC9   PSN2,,AUTO               cn=0,n=6
         1 000226   000035 000001 xsym               ADSC9   B_VECTNIL+29             cn=0,n=1
         1 000227   000233 601000 1                  TNZ     s:1924

     1538     1922    4                    PSN2=B$JIT.FPSN;

   1922  1 000230   040100 100500                    MLR     fill='040'O
         1 000231   300021 000006                    ADSC9   17,,PR3                  cn=0,n=6
         1 000232   200022 000006                    ADSC9   PSN2,,AUTO               cn=0,n=6

     1539     1923    4                 END;

     1540     1924    3              IF ACCT1~=ACCT2 THEN

   1924  1 000233   200014 237100                    LDAQ    ACCT1,,AUTO
         1 000234   200016 117100                    CMPAQ   ACCT2,,AUTO
         1 000235   000354 601000 1                  TNZ     DIFF

     1541     1925    3                 GOTO DIFF;
     1542     1926    3              IF PSN1~=PSN2 THEN

   1926  1 000236   040100 106500                    CMPC    fill='040'O
         1 000237   200020 000006                    ADSC9   PSN1,,AUTO               cn=0,n=6
         1 000240   200022 000006                    ADSC9   PSN2,,AUTO               cn=0,n=6
         1 000241   000354 601000 1                  TNZ     DIFF

     1543     1927    3                 GOTO DIFF;
     1544     1928    3              GOTO SAME;

   1928  1 000242   000351 710000 1                  TRA     SAME

     1545     1929    3            CASE(%DEVICE#);

     1546     1930                                      /*GETRES ALTRET is dd@wsn; they're all different*/
     1547     1931    3              CALL GETRES(ASN1,DCB1$)ALTRET(DIFF);

   1931  1 000243   200007 630500                    EPPR0   DCB1$,,AUTO
PL6.E3A0      #002=FMF$ICORRES File=FMF$PMME.:E05TSI                             TUE 07/29/97 16:44 Page:234
         1 000244   200030 450500                    STP0    @I+1,,AUTO
         1 000245   200011 631500                    EPPR1   ASN1,,AUTO
         1 000246   200027 451500                    STP1    @ERRWORD+2,,AUTO
         1 000247   000356 701000 1                  TSX1    GETRES
         1 000250   000354 702000 1                  TSX2    DIFF

     1548     1932    3              CALL GETRES(ASN2,DCB2$)ALTRET(DIFF);

   1932  1 000251   200010 630500                    EPPR0   DCB2$,,AUTO
         1 000252   200030 450500                    STP0    @I+1,,AUTO
         1 000253   200012 631500                    EPPR1   ASN2,,AUTO
         1 000254   200027 451500                    STP1    @ERRWORD+2,,AUTO
         1 000255   000356 701000 1                  TSX1    GETRES
         1 000256   000354 702000 1                  TSX2    DIFF

     1549     1933    4              DO SELECT(ASN1+10*ASN2);

   1933  1 000257   200012 236100                    LDQ     ASN2,,AUTO
         1 000260   000012 402007                    MPY     10,DL
         1 000261   200011 036100                    ADLQ    ASN1,,AUTO
         1 000262   000070 116007                    CMPQ    56,DL
         1 000263   000301 604000 1                  TMI     s:1933+18
         1 000264   000334 600000 1                  TZE     COMPSN
         1 000265   000102 116007                    CMPQ    66,DL
         1 000266   000276 604000 1                  TMI     s:1933+15
         1 000267   000325 600000 1                  TZE     s:1939
         1 000270   000115 116007                    CMPQ    77,DL
         1 000271   000350 604000 1                  TMI     s:1949
         1 000272   000325 600000 1                  TZE     s:1939
         1 000273   000130 116007                    CMPQ    88,DL
         1 000274   000350 601000 1                  TNZ     s:1949
         1 000275   000343 710000 1                  TRA     s:1946
         1 000276   000101 116007                    CMPQ    65,DL
         1 000277   000350 601000 1                  TNZ     s:1949
         1 000300   000334 710000 1                  TRA     COMPSN
         1 000301   000041 116007                    CMPQ    33,DL
         1 000302   000313 604000 1                  TMI     s:1933+28
PL6.E3A0      #002=FMF$ICORRES File=FMF$PMME.:E05TSI                             TUE 07/29/97 16:44 Page:235
         1 000303   000324 600000 1                  TZE     s:1937
         1 000304   000067 116007                    CMPQ    55,DL
         1 000305   000310 604000 1                  TMI     s:1933+25
         1 000306   000334 600000 1                  TZE     COMPSN
         1 000307   000350 710000 1                  TRA     s:1949
         1 000310   000054 116007                    CMPQ    44,DL
         1 000311   000350 601000 1                  TNZ     s:1949
         1 000312   000324 710000 1                  TRA     s:1937
         1 000313   000013 116007                    CMPQ    11,DL
         1 000314   000321 604000 1                  TMI     s:1933+34
         1 000315   000324 600000 1                  TZE     s:1937
         1 000316   000026 116007                    CMPQ    22,DL
         1 000317   000350 601000 1                  TNZ     s:1949
         1 000320   000324 710000 1                  TRA     s:1937
         1 000321   000000 116003                    CMPQ    0,DU
         1 000322   000350 601000 1                  TNZ     s:1949
         1 000323   000324 710000 1                  TRA     s:1937

     1550     1934                   /*0=Commands(file),1=LP01,2=CP01,3=UC,4=NO,
     1551     1935                      5=MT..,6=MTnn,7=DP,8=etc.*/
     1552     1936    4                 SELECT(00,11,22,33,44);

     1553     1937    4                 GOTO SAME;

   1937  1 000324   000351 710000 1                  TRA     SAME

     1554     1938    4                 SELECT(66,77);            /*MT/DP same if same nn & same SN*/

     1555     1939    4                 IF SUBSTR(DCB1$->F$DCB.RES,2,2)=

   1939  1 000325   200010 470500                    LDP0    DCB2$,,AUTO
         1 000326   200007 471500                    LDP1    DCB1$,,AUTO
         1 000327   100026 236100                    LDQ     22,,PR1
         1 000330   000026 676100                    ERQ     22,,PR0
         1 000331   777777 376007                    ANQ     -1,DL
         1 000332   000334 600000 1                  TZE     COMPSN
         1 000333   000350 710000 1                  TRA     s:1949
PL6.E3A0      #002=FMF$ICORRES File=FMF$PMME.:E05TSI                             TUE 07/29/97 16:44 Page:236

     1556     1940    4                   SUBSTR(DCB2$->F$DCB.RES,2,2) THEN GOTO COMPSN;
     1557     1941    4                 SELECT(55,56,65);         /*MT=MTnn if same SN*/

   1941  1 000334                       COMPSN       null
     1558     1942    4   COMPSN:       ;
     1559     1943    4                 IF DCB1$->F$DCB.PSN=DCB2$->F$DCB.PSN THEN

   1943  1 000334   200007 470500                    LDP0    DCB1$,,AUTO
         1 000335   200010 471500                    LDP1    DCB2$,,AUTO
         1 000336   040100 106500                    CMPC    fill='040'O
         1 000337   000024 000006                    ADSC9   20,,PR0                  cn=0,n=6
         1 000340   100024 000006                    ADSC9   20,,PR1                  cn=0,n=6
         1 000341   000351 600000 1                  TZE     SAME
         1 000342   000350 710000 1                  TRA     s:1949

     1560     1944    4                    GOTO SAME;
     1561     1945    4                 SELECT(88);               /*Others (Streams) same if same RES*/

     1562     1946    4                 IF DCB1$->F$DCB.RES=DCB2$->F$DCB.RES THEN

   1946  1 000343   200007 470500                    LDP0    DCB1$,,AUTO
         1 000344   200010 471500                    LDP1    DCB2$,,AUTO
         1 000345   000026 236100                    LDQ     22,,PR0
         1 000346   100026 116100                    CMPQ    22,,PR1
         1 000347   000351 600000 1                  TZE     SAME

     1563     1947    4                    GOTO SAME;
     1564     1948    4                 END;

     1565     1949    3              GOTO DIFF;

   1949  1 000350   000354 710000 1                  TRA     DIFF

     1566     1950    3            END;

     1567     1951        /**/
PL6.E3A0      #002=FMF$ICORRES File=FMF$PMME.:E05TSI                             TUE 07/29/97 16:44 Page:237
     1568     1952    2   SAME:   ERRWORD=ECORRES;

   1952  1 000351   000000 236000 0     SAME         LDQ     ECORRES
         1 000352   200025 470500                    LDP0    @ERRWORD,,AUTO
         1 000353   000000 756100                    STQ     0,,PR0

     1569     1953    2   DIFF:   RETURN;

   1953  1 000354   200024 221300       DIFF         LDX1  ! PSN2+2,,AUTO
         1 000355   000001 702211                    TSX2  ! 1,X1

     1570     1954    2   END DOCORRES;
     1571     1955        /**/
     1572     1956        /*E*   ERROR:   FMF-E$CORRES-2
     1573     1957        *       MESSAGE: The two DCBs are assigned to the same thing
     1574     1958        */
     1575     1959        /**/
     1576     1960        /**/
     1577     1961    1   GETRES: PROC(I,DCB$) ALTRET;

   1961  1 000356   200026 741300       GETRES       STX1  ! @ERRWORD+1,,AUTO

     1578     1962    2   DCL I SBIN;
     1579     1963    2   DCL DCB$ PTR;
     1580     1964        /*
     1581     1965         *      OPLABEL tables.
     1582     1966         *      "OPLABEL" is user-specified 2-character oplabel names.
     1583     1967         *      "OPL_xxx" (xxx per user mode ... Batch,Ghost,etc.) is
     1584     1968         *         index defining where the oplabel goes ..
     1585     1969         *         0 = CR01   1 = LP01   2 = CP01   3 = M$UC    4 = NO
     1586     1970         */
     1587     1971    2   DCL OPLABEL CHAR(0)CONSTANT INIT
     1588     1972    2           ('ME NO UC JE JF C1 L1 P1 CR LP CP SI LO PO');
     1589     1973    2   DCL OPL_BAT(0:13) UBIN(9) UNAL CONSTANT INIT
     1590     1974    2           (  1, 4, 4, 9, 9, 0, 1, 2, 0, 1, 2, 0, 1, 2);
     1591     1975    2   DCL OPL_INT(0:13) UBIN(9) UNAL CONSTANT INIT
     1592     1976    2           (  3, 4, 3, 9, 9, 0, 1, 2, 0, 1, 2, 0, 3, 4);
PL6.E3A0      #002=FMF$ICORRES File=FMF$PMME.:E05TSI                             TUE 07/29/97 16:44 Page:238
     1593     1977        /**/
     1594     1978    3           IF DCB$=B$M$UC$ THEN DO;

   1978  1 000357   200030 470500                    LDP0    @DCB$,,AUTO
         1 000360   000000 236100                    LDQ     0,,PR0
         1 000361   000000 116000 xsym               CMPQ    B$M$UC$
         1 000362   000377 601000 1                  TNZ     s:1983

     1595     1979    3              IF B$ROSEG$->B$ROSEG.CR01ID.INT THEN I=3;

   1979  1 000363   000000 471400 xsym               LDP1    B$ROSEG$
         1 000364   100114 234100                    SZN     76,,PR1
         1 000365   000372 605000 1                  TPL     s:1980

   1979  1 000366   000003 235007                    LDA     3,DL
         1 000367   200027 473500                    LDP3    @I,,AUTO
         1 000370   300000 755100                    STA     0,,PR3
         1 000371   000375 710000 1                  TRA     s:1981

     1596     1980    3              ELSE I=4;

   1980  1 000372   000004 235007                    LDA     4,DL
         1 000373   200027 473500                    LDP3    @I,,AUTO
         1 000374   300000 755100                    STA     0,,PR3

     1597     1981    3              RETURN;

   1981  1 000375   200026 221300                    LDX1  ! @ERRWORD+1,,AUTO
         1 000376   000001 702211                    TSX2  ! 1,X1

     1598     1982    3              END;
     1599     1983    2           IF DCB$->F$DCB.WSN~=' ' THEN ALTRETURN;

   1983  1 000377   000000 471500                    LDP1    0,,PR0
         1 000400   040000 106500                    CMPC    fill='040'O
         1 000401   100027 000010                    ADSC9   23,,PR1                  cn=0,n=8
         1 000402   000035 000001 xsym               ADSC9   B_VECTNIL+29             cn=0,n=1
PL6.E3A0      #002=FMF$ICORRES File=FMF$PMME.:E05TSI                             TUE 07/29/97 16:44 Page:239
         1 000403   000405 600000 1                  TZE     s:1984

   1983  1 000404   000000 702211                    TSX2  ! 0,X1

     1600     1984    2           CALL INDEX(I,' ',DCB$->F$DCB.RES);

   1984  1 000405   200027 473500                    LDP3    @I,,AUTO
         1 000406   000000 124500                    SCM     mask='000'O
         1 000407   100026 000004                    ADSC9   22,,PR1                  cn=0,n=4
         1 000410   000035 000001 xsym               ADSC9   B_VECTNIL+29             cn=0,n=1
         1 000411   300000 000100                    ARG     0,,PR3

     1601     1985    3           DO CASE(I);

   1985  1 000412   300000 235100                    LDA     0,,PR3
         1 000413   000005 115007                    CMPA    5,DL
         1 000414   000416 602005 1                  TNC     s:1985+4,AL
         1 000415   000600 710000 1                  TRA     s:2016
         1 000416   000423 710000 1                  TRA     s:1986
         1 000417   000423 710000 1                  TRA     s:1986
         1 000420   000425 710000 1                  TRA     s:1988
         1 000421   000423 710000 1                  TRA     s:1986
         1 000422   000472 710000 1                  TRA     LBLNOT2

     1602     1986    3            CASE(0,1,3); ALTRETURN;        /* BAD RES NOT EQUAL                  */

   1986  1 000423   200026 221300                    LDX1  ! @ERRWORD+1,,AUTO
         1 000424   000000 702211                    TSX2  ! 0,X1

     1603     1987    3            CASE(2);

     1604     1988    3              IF SUBSTR(DCB$->F$DCB.RES,2,2)~='  ' THEN ALTRETURN;

   1988  1 000425   000000 471500                    LDP1    0,,PR0
         1 000426   100026 720100                    LXL0    22,,PR1
         1 000427   000025 100000 0                  CMPX0   OPL_INT+4
         1 000430   000433 600000 1                  TZE     s:1989
PL6.E3A0      #002=FMF$ICORRES File=FMF$PMME.:E05TSI                             TUE 07/29/97 16:44 Page:240

   1988  1 000431   200026 221300                    LDX1  ! @ERRWORD+1,,AUTO
         1 000432   000000 702211                    TSX2  ! 0,X1

     1605     1989    3              CALL INDEX(I,SUBSTR(DCB$->F$DCB.RES,0,2),OPLABEL)

   1989  1 000433   000100 120400                    SCD
         1 000434   000002 000051 0                  ADSC9   OPLABEL                  cn=0,n=41
         1 000435   100026 000002                    ADSC9   22,,PR1                  cn=0,n=2
         1 000436   300000 000100                    ARG     0,,PR3
         1 000437   000442 607000 1                  TTF     s:1991
         1 000440   300000 054100                    AOS     0,,PR3
         1 000441   000472 710000 1                  TRA     LBLNOT2

     1606     1990    3                ALTRET(LBLNOT2);
     1607     1991    3              IF B$ROSEG$->B$ROSEG.CR01ID.INT THEN

   1991  1 000442   000000 471400 xsym               LDP1    B$ROSEG$
         1 000443   100114 234100                    SZN     76,,PR1
         1 000444   000453 605000 1                  TPL     s:1993

     1608     1992    3                 I=OPL_INT(I/3);

   1992  1 000445   300000 236100                    LDQ     0,,PR3
         1 000446   000003 506007                    DIV     3,DL
         1 000447   000100 101406                    MRL     fill='000'O
         1 000450   000021 000001 0                  ADSC9   OPL_INT,Q                cn=0,n=1
         1 000451   300000 000004                    ADSC9   0,,PR3                   cn=0,n=4
         1 000452   000460 710000 1                  TRA     s:1994

     1609     1993    3              ELSE I=OPL_BAT(I/3);

   1993  1 000453   300000 236100                    LDQ     0,,PR3
         1 000454   000003 506007                    DIV     3,DL
         1 000455   000100 101406                    MRL     fill='000'O
         1 000456   000015 000001 0                  ADSC9   OPL_BAT,Q                cn=0,n=1
         1 000457   300000 000004                    ADSC9   0,,PR3                   cn=0,n=4
PL6.E3A0      #002=FMF$ICORRES File=FMF$PMME.:E05TSI                             TUE 07/29/97 16:44 Page:241

     1610     1994    3              IF I=0 THEN IF B$JIT.NEXTCC=%CC_FROMUC# THEN I=3;

   1994  1 000460   300000 235100                    LDA     0,,PR3
         1 000461   000600 601000 1                  TNZ     s:2016

   1994  1 000462   000000 471400 xsym               LDP1    B$JIT$
         1 000463   100151 236100                    LDQ     105,,PR1
         1 000464   000777 376003                    ANQ     511,DU
         1 000465   000003 116003                    CMPQ    3,DU
         1 000466   000600 601000 1                  TNZ     s:2016

   1994  1 000467   000003 235007                    LDA     3,DL
         1 000470   300000 755100                    STA     0,,PR3
         1 000471   000600 710000 1                  TRA     s:2016

     1611     1995    3            CASE(4);

     1612     1996    3   LBLNOT2:   CALL INDEX(I,SUBSTR(DCB$->F$DCB.RES,0,2),

   1996  1 000472   200030 470500       LBLNOT2      LDP0    @DCB$,,AUTO
         1 000473   000000 471500                    LDP1    0,,PR0
         1 000474   200027 473500                    LDP3    @I,,AUTO
         1 000475   000100 120400                    SCD
         1 000476   000026 000024 0                  ADSC9   OPL_INT+5                cn=0,n=20
         1 000477   100026 000002                    ADSC9   22,,PR1                  cn=0,n=2
         1 000500   300000 000100                    ARG     0,,PR3
         1 000501   000503 607000 1                  TTF     s:1998
         1 000502   300000 054100                    AOS     0,,PR3

     1613     1997    3                'LP CP FT MT LT DP UC');
     1614     1998    4              DO CASE(I);

   1998  1 000503   300000 235100                    LDA     0,,PR3
         1 000504   000023 115007                    CMPA    19,DL
         1 000505   000507 602005 1                  TNC     s:1998+4,AL
         1 000506   000576 710000 1                  TRA     s:2013
PL6.E3A0      #002=FMF$ICORRES File=FMF$PMME.:E05TSI                             TUE 07/29/97 16:44 Page:242
         1 000507   000532 710000 1                  TRA     s:2000
         1 000510   000576 710000 1                  TRA     s:2013
         1 000511   000576 710000 1                  TRA     s:2013
         1 000512   000544 710000 1                  TRA     s:2003
         1 000513   000576 710000 1                  TRA     s:2013
         1 000514   000576 710000 1                  TRA     s:2013
         1 000515   000556 710000 1                  TRA     s:2006
         1 000516   000576 710000 1                  TRA     s:2013
         1 000517   000576 710000 1                  TRA     s:2013
         1 000520   000556 710000 1                  TRA     s:2006
         1 000521   000576 710000 1                  TRA     s:2013
         1 000522   000576 710000 1                  TRA     s:2013
         1 000523   000556 710000 1                  TRA     s:2006
         1 000524   000576 710000 1                  TRA     s:2013
         1 000525   000576 710000 1                  TRA     s:2013
         1 000526   000570 710000 1                  TRA     s:2009
         1 000527   000576 710000 1                  TRA     s:2013
         1 000530   000576 710000 1                  TRA     s:2013
         1 000531   000573 710000 1                  TRA     s:2011

     1615     1999    4               CASE(0);

     1616     2000    4                 IF DCB$->F$DCB.RES='LP01' THEN I=1;

   2000  1 000532   000000 471500                    LDP1    0,,PR0
         1 000533   100026 236100                    LDQ     22,,PR1
         1 000534   000033 116000 0                  CMPQ    OPL_INT+10
         1 000535   000541 601000 1                  TNZ     s:2001

   2000  1 000536   000001 235007                    LDA     1,DL
         1 000537   300000 755100                    STA     0,,PR3
         1 000540   000600 710000 1                  TRA     s:2016

     1617     2001    4                 ELSE I=8;

   2001  1 000541   000010 235007                    LDA     8,DL
         1 000542   300000 755100                    STA     0,,PR3
PL6.E3A0      #002=FMF$ICORRES File=FMF$PMME.:E05TSI                             TUE 07/29/97 16:44 Page:243
         1 000543   000600 710000 1                  TRA     s:2016

     1618     2002    4               CASE(3);

     1619     2003    4                 IF DCB$->F$DCB.RES='CP01' THEN I=2;

   2003  1 000544   000000 471500                    LDP1    0,,PR0
         1 000545   100026 236100                    LDQ     22,,PR1
         1 000546   000034 116000 0                  CMPQ    OPL_INT+11
         1 000547   000553 601000 1                  TNZ     s:2004

   2003  1 000550   000002 235007                    LDA     2,DL
         1 000551   300000 755100                    STA     0,,PR3
         1 000552   000600 710000 1                  TRA     s:2016

     1620     2004    4                 ELSE I=8;

   2004  1 000553   000010 235007                    LDA     8,DL
         1 000554   300000 755100                    STA     0,,PR3
         1 000555   000600 710000 1                  TRA     s:2016

     1621     2005    4               CASE(6,9,12);

     1622     2006    4                 IF SUBSTR(DCB$->F$DCB.RES,2,2)='  ' THEN I=5;

   2006  1 000556   000000 471500                    LDP1    0,,PR0
         1 000557   100026 720100                    LXL0    22,,PR1
         1 000560   000025 100000 0                  CMPX0   OPL_INT+4
         1 000561   000565 601000 1                  TNZ     s:2007

   2006  1 000562   000005 236007                    LDQ     5,DL
         1 000563   300000 756100                    STQ     0,,PR3
         1 000564   000600 710000 1                  TRA     s:2016

     1623     2007    4                 ELSE I=6;

   2007  1 000565   000006 236007                    LDQ     6,DL
PL6.E3A0      #002=FMF$ICORRES File=FMF$PMME.:E05TSI                             TUE 07/29/97 16:44 Page:244
         1 000566   300000 756100                    STQ     0,,PR3
         1 000567   000600 710000 1                  TRA     s:2016

     1624     2008    4               CASE(15);

     1625     2009    4                 I=7;

   2009  1 000570   000007 236007                    LDQ     7,DL
         1 000571   300000 756100                    STQ     0,,PR3
         1 000572   000600 710000 1                  TRA     s:2016

     1626     2010    4               CASE(18);

     1627     2011    4                 I=3;

   2011  1 000573   000003 236007                    LDQ     3,DL
         1 000574   300000 756100                    STQ     0,,PR3
         1 000575   000600 710000 1                  TRA     s:2016

     1628     2012    4               CASE(ELSE);

     1629     2013    4                 I=8;

   2013  1 000576   000010 236007                    LDQ     8,DL
         1 000577   300000 756100                    STQ     0,,PR3

     1630     2014    4               END;

     1631     2015    3            END;

     1632     2016    2           RETURN;

   2016  1 000600   200026 221300                    LDX1  ! @ERRWORD+1,,AUTO
         1 000601   000001 702211                    TSX2  ! 1,X1

ECORRES
 Sect OctLoc
PL6.E3A0      #002=FMF$ICORRES File=FMF$PMME.:E05TSI                             TUE 07/29/97 16:44 Page:245
   0     000   061506 001122                                                    1..R

ERRBADDCB
 Sect OctLoc
   0     001   061506 006242                                                    1...

OPLABEL
 Sect OctLoc
   0     002   115105 040116   117040 125103   040112 105040   112106 040103    ME NO UC JE JF C
   0     006   061040 114061   040120 061040   103122 040114   120040 103120    1 L1 P1 CR LP CP
   0     012   040123 111040   114117 040120   117*** ******                     SI LO PO...

OPL_BAT
 Sect OctLoc
   0     015   001004 004011   011000 001002   000001 002000   001002 ******    ................

OPL_INT
 Sect OctLoc
   0     021   003004 003011   011000 001002   000001 002000   003004 ******    ................

(unnamed)
 Sect OctLoc
   0     025   040040 040040   114120 040103   120040 106124   040115 124040        LP CP FT MT
   0     031   114124 040104   120040 125103   114120 060061   103120 060061    LT DP UCLP01CP01

(unnamed)
 Sect OctLoc
   2     000   040040 040040   040040 040040
     1633     2017    2   END GETRES;
     1634     2018        /**/
     1635     2019    1   END FMF$ICORRES;
     1636     2020        %EOD;

PL6.E3A0      #002=FMF$ICORRES File=FMF$PMME.:E05TSI                             TUE 07/29/97 16:44 Page:246
--  Include file information  --

   CP_6_SUBS.:E05TOU  is referenced.
   F_MACROS_C.:E05TOU  is referenced.
   UD_ERRORS_C.:E05TOU  is referenced.
   F_ERRORS_C.:E05TOU  is referenced.
   F$CP6V_C.:E05TOU  is referenced.
   B$JIT_C.:E05TOU  is referenced.
   B$JIT.:E05TOU  cannot be made into a system file and is referenced.
   B$ROSEG.:E05TOU  cannot be made into a system file and is referenced.
   F$DCB.:E05TOU  cannot be made into a system file and is referenced.
      No diagnostics issued in procedure FMF$ICORRES.
PL6.E3A0      #002=FMF$ICORRES File=FMF$PMME.:E05TSI                             TUE 07/29/97 16:44 Page:247

 **** Variables and constants ****

  ****  Section 000 RoData FMF$ICORRES

  ****  Scalars and arrays  ****
OctLoc.c.b A Datatyp(siz) R M Lvl/name                 OctLoc.c.b A Datatyp(siz) R M Lvl/name

     0-0-0/b STRC        r     1 ECORRES                    1-0-0/b STRC        r     1 ERRBADDCB
     2-0-0/c CHAR(41)    r     1 OPLABEL                   15-0-0/b UBIN(9)     r     1 OPL_BAT(0:13)
    21-0-0/b UBIN(9)     r     1 OPL_INT(0:13)

  ****  Auto variables  ****

  ****  Scalars and arrays  ****
OctLoc.c.b A Datatyp(siz) R M Lvl/name                 OctLoc.c.b A Datatyp(siz) R M Lvl/name

    30-0-0/w PTR         r     1 @DCB$                     25-0-0/w PTR         r     1 @ERRWORD
    27-0-0/w PTR         r     1 @I                         3-0-0/w PTR         r     1 @IDCB1
     4-0-0/w PTR         r     1 @IDCB2                     5-0-0/w PTR         r     1 @IERR1
     6-0-0/w PTR         r     1 @IERR2                    14-0-0/c CHAR(8)     r     1 ACCT1
    16-0-0/c CHAR(8)     r     1 ACCT2                     11-0-0/w SBIN        r     1 ASN1
    12-0-0/w SBIN        r     1 ASN2                      *0-0-0/w PTR         r     1 DCB$
     7-0-0/w PTR         r     1 DCB1$                     10-0-0/w PTR         r     1 DCB2$
    *0-0-0/w BIT         r     1 ERRWORD                   *0-0-0/w SBIN        r     1 I
    *0-0-0/h UBIN(18)    r     1 IDCB1                     *0-0-0/h UBIN(18)    r     1 IDCB2
    *0-0-0/w BIT         r     1 IERR1                     *0-0-0/w BIT         r     1 IERR2
    20-0-0/c CHAR(6)     r     1 PSN1                      22-0-0/c CHAR(6)     r     1 PSN2
    13-0-0/w UBIN        r     1 THEDCB

  ****  SYMREF variables  ****

  ****  Scalars and arrays  ****
OctLoc.c.b A Datatyp(siz) R M Lvl/name                 OctLoc.c.b A Datatyp(siz) R M Lvl/name

     0-0-0/w PTR         r     1 B$JIT$                     0-0-0/w PTR         r     1 B$M$UC$
     0-0-0/w PTR         r     1 B$PS0$                     0-0-0/w PTR         r     1 B$ROSEG$

PL6.E3A0      #002=FMF$ICORRES File=FMF$PMME.:E05TSI                             TUE 07/29/97 16:44 Page:248
  ****  BASED and DCB variables  ****

  ****  Scalars and arrays  ****
OctLoc.c.b A Datatyp(siz) R M Lvl/name                 OctLoc.c.b A Datatyp(siz) R M Lvl/name

     0-0-0/d STRC(8856)  r     1 B$JIT
     0-0-0/w PTR         r     1 B$RODCB$(0:0)
     0-0-0/d STRC(3024)  r     1 B$ROSEG                    0-0-0/d ASTR(3528)  r     1 F$DCB
     0-0-0/d STRC        r     1 FPT$CORRES_V


   Procedure FMF$ICORRES requires 386 words for executable code.
   Procedure FMF$ICORRES requires 26 words of local(AUTO) storage.
PL6.E3A0      #002=FMF$ICORRES File=FMF$PMME.:E05TSI                             TUE 07/29/97 16:44 Page:249
          *** CROSS REFERENCE LISTING ***
**     DENOTES     IDENTIFIER DEFINITION
<<                 IDENTIFIER'S VALUE SET
>>                 IDENTIFIER'S VALUE USED
<>                 IDENTIFIER SET AND/OR USED
--                 IDENTIFIER REFERENCED
PL6.E3A0      #002=FMF$ICORRES File=FMF$PMME.:E05TSI                             TUE 07/29/97 16:44 Page:250
          MINI XREF LISTING

ACCT1
        33**DCL      1910<<ASSIGN   1913>>IF       1914<<ASSIGN   1924>>IF
ACCT2
        34**DCL      1918<<ASSIGN   1919>>IF       1920<<ASSIGN   1924>>IF
ASN1
        30**DCL      1839<<ASSIGN   1876<<ASSIGN   1903>>IF       1904>>DOCASE   1931<>CALL     1933>>DOSELCT
ASN2
        31**DCL      1839>>ASSIGN   1876>>ASSIGN   1894<<ASSIGN   1895<<ASSIGN   1903>>IF       1932<>CALL
      1933>>DOSELCT
B$JIT.CPFLAGS1.SLEAZE
       571**DCL       571--REDEF
B$JIT.ERR
       477**DCL      1879<>CALL     1881<<ASSIGN
B$JIT.ERR.MID
       478**DCL       478--REDEF
B$JIT.FACCN
       477**DCL      1914>>ASSIGN   1920>>ASSIGN
B$JIT.FPSN
       558**DCL      1916>>ASSIGN   1922>>ASSIGN
B$JIT.JRESPEAK
       639**DCL       640--REDEF
B$JIT.NEXTCC
       619**DCL      1994>>IF
B$JIT.ORIGINATOR_PORT.FROM_CR
       748**DCL       748--REDEF     749--REDEF
B$JIT.PNR
       652**DCL       652--REDEF
B$JIT.TSLINE
       746**DCL       747--REDEF
B$JIT$
      1816**DCL       472--IMP-PTR  1879>>CALL     1881>>ASSIGN   1914>>ASSIGN   1916>>ASSIGN   1920>>ASSIGN
      1922>>ASSIGN   1994>>IF
PL6.E3A0      #002=FMF$ICORRES File=FMF$PMME.:E05TSI                             TUE 07/29/97 16:44 Page:251
B$M$UC$
      1817**DCL      1978>>IF
B$PS0$
      1819**DCL      1831--IMP-PTR  1873>>ASSIGN   1877>>ASSIGN
B$RODCB$
       134**DCL      1892>>ASSIGN
B$ROSEG.CR01ID.INT
       120**DCL      1979>>IF       1991>>IF
B$ROSEG.DCBPTR$
        98**DCL      1892>>ASSIGN
B$ROSEG.NUMDCBS
       100**DCL      1891>>IF
B$ROSEG$
      1818**DCL      1891>>IF       1892>>ASSIGN   1979>>IF       1991>>IF
BADDCB
      1881**LABEL    1874--CALLALT  1878--CALLALT
CHKDCB
      1890**PROC     1837--CALL     1842--CALL     1851--CALL     1874--CALL     1878--CALL
COMPSN IN PROCEDURE DOCORRES
      1941**LABEL    1940--GOTO
DCB$ IN PROCEDURE GETRES
      1963**DCL      1961--PROC     1978>>IF       1983>>IF       1984>>CALLBLT  1988>>IF       1989>>CALLBLT
      1996>>CALLBLT  2000>>IF       2003>>IF       2006>>IF
DCB1$
        28**DCL      1839<<ASSIGN   1876<<ASSIGN   1907>>IF       1910>>ASSIGN   1911>>ASSIGN   1931<>CALL
      1939>>IF       1943>>IF       1946>>IF
DCB2$
        29**DCL      1839>>ASSIGN   1876>>ASSIGN   1892<<ASSIGN   1893>>IF       1895>>ASSIGN   1907>>IF
      1912>>ASSIGN   1918>>ASSIGN   1932<>CALL     1939>>IF       1943>>IF       1946>>IF
DIFF IN PROCEDURE DOCORRES
      1953**LABEL    1903--GOTO     1905--GOTO     1909--GOTO     1925--GOTO     1927--GOTO     1931--CALLALT
      1932--CALLALT  1949--GOTO
DOCORRES
      1900**PROC     1843--CALL     1879--CALL
ECORRES
      1822**DCL      1952>>ASSIGN
PL6.E3A0      #002=FMF$ICORRES File=FMF$PMME.:E05TSI                             TUE 07/29/97 16:44 Page:252
ERRBADDCB
      1826**DCL      1846>>ASSIGN   1853>>ASSIGN   1881>>ASSIGN
ERRWORD IN PROCEDURE DOCORRES
      1901**DCL      1900--PROC     1952<<ASSIGN
F$DCB.ACCT
        49**DCL      1910>>ASSIGN   1918>>ASSIGN
F$DCB.ACTPOS
        64**DCL        64--REDEF
F$DCB.ARS
        39**DCL        39--REDEF
F$DCB.ASN
        54**DCL      1895>>ASSIGN
F$DCB.ATTR
        57**DCL        58--REDEF
F$DCB.BORROW
        72**DCL        72--REDEF      72--REDEF      72--REDEF
F$DCB.DCBNAME.L
        86**DCL        86--IMP-SIZ
F$DCB.EOMCHAR
        43**DCL        43--REDEF
F$DCB.FLDID
        67**DCL        67--REDEF
F$DCB.FORM$
        61**DCL        61--REDEF
F$DCB.FSECT
        77**DCL        77--REDEF
F$DCB.FSN
        54**DCL        54--REDEF      54--REDEF      55--REDEF
F$DCB.HEADER$
        60**DCL        60--REDEF
F$DCB.IXTNSIZE
        58**DCL        58--REDEF
F$DCB.LASTSTA$
        48**DCL        48--REDEF
F$DCB.LVL
        73**DCL        73--REDEF
PL6.E3A0      #002=FMF$ICORRES File=FMF$PMME.:E05TSI                             TUE 07/29/97 16:44 Page:253
F$DCB.NAME
        48**DCL      1907>>IF       1907>>IF
F$DCB.NAME.C
        48**DCL        48--REDEF
F$DCB.NOEOF
        69**DCL        69--REDEF
F$DCB.NRECS
        59**DCL        59--REDEF
F$DCB.NRECX
        78**DCL        78--REDEF
F$DCB.OHDR
        70**DCL        70--REDEF
F$DCB.ORG
        53**DCL        53--REDEF
F$DCB.PRECNO
        76**DCL        76--REDEF
F$DCB.PSN
        49**DCL      1911>>ASSIGN   1912>>ASSIGN   1943>>IF       1943>>IF
F$DCB.RCSZ
        81**DCL        81--REDEF
F$DCB.RES
        49**DCL        49--REDEF    1939>>IF       1939>>IF       1946>>IF       1946>>IF       1984>>CALLBLT
      1988>>IF       1989>>CALLBLT  1996>>CALLBLT  2000>>IF       2003>>IF       2006>>IF
F$DCB.SETX
        61**DCL        61--REDEF
F$DCB.TAB$
        60**DCL        61--REDEF
F$DCB.TDA
        75**DCL        75--REDEF
F$DCB.WSN
        50**DCL        50--REDEF    1983>>IF
FPT$CORRES_V.DCB1
      1831**DCL      1873>>ASSIGN
FPT$CORRES_V.DCB2
      1831**DCL      1877>>ASSIGN
GETRES
PL6.E3A0      #002=FMF$ICORRES File=FMF$PMME.:E05TSI                             TUE 07/29/97 16:44 Page:254
      1961**PROC     1931--CALL     1932--CALL
I IN PROCEDURE GETRES
      1962**DCL      1961--PROC     1979<<ASSIGN   1980<<ASSIGN   1984<<CALLBLT  1985>>DOCASE   1989<<CALLBLT
      1992<<ASSIGN   1992>>ASSIGN   1993<<ASSIGN   1993>>ASSIGN   1994>>IF       1994<<ASSIGN   1996<<CALLBLT
      1998>>DOCASE   2000<<ASSIGN   2001<<ASSIGN   2003<<ASSIGN   2004<<ASSIGN   2006<<ASSIGN   2007<<ASSIGN
      2009<<ASSIGN   2011<<ASSIGN   2013<<ASSIGN
IDCB1
        23**DCL         6--PROC     1835>>ASSIGN
IDCB2
        24**DCL         6--PROC     1840>>ASSIGN   1850>>ASSIGN
IERR1
        25**DCL         6--PROC     1834<<ASSIGN   1846<<ASSIGN
IERR2
        26**DCL         6--PROC     1834<<ASSIGN   1843<>CALL     1853<<ASSIGN
LBLNOT2 IN PROCEDURE GETRES
      1996**LABEL    1989--CALLALT
ONEBAD
      1846**LABEL    1837--CALLALT
OPLABEL IN PROCEDURE GETRES
      1971**DCL      1989>>CALLBLT
OPL_BAT IN PROCEDURE GETRES
      1973**DCL      1993>>ASSIGN
OPL_INT IN PROCEDURE GETRES
      1975**DCL      1992>>ASSIGN
PSN1
        35**DCL      1911<<ASSIGN   1915>>IF       1916<<ASSIGN   1926>>IF
PSN2
        36**DCL      1912<<ASSIGN   1921>>IF       1922<<ASSIGN   1926>>IF
SAME IN PROCEDURE DOCORRES
      1952**LABEL    1928--GOTO     1937--GOTO     1944--GOTO     1947--GOTO
THEDCB
        32**DCL      1835<<ASSIGN   1836>>IF       1840<<ASSIGN   1841>>IF       1850<<ASSIGN   1851>>IF
      1873<<ASSIGN   1877<<ASSIGN   1891>>IF       1892>>ASSIGN   1894>>IF
TWOBAD
      1853**LABEL    1842--CALLALT  1851--CALLALT
PL6.E3A0      #002=FMF$ICORRES File=FMF$PMME.:E05TSI                             TUE 07/29/97 16:44 Page:255
              *** CROSS REFERENCE LISTING ***
    **     DENOTES     IDENTIFIER DEFINITION
    <<                 IDENTIFIER'S VALUE SET
    >>                 IDENTIFIER'S VALUE USED
    <>                 IDENTIFIER SET AND/OR USED
    --                 IDENTIFIER REFERENCED
PL6.E3A0      #002=FMF$ICORRES File=FMF$PMME.:E05TSI                             TUE 07/29/97 16:44 Page:256
              MINI UREF LISTING

B$ROAVAIL     137**DCL
FMF$CORRES    1855**ENTRY
FMF$ICORRES       6**PROC

PL6.E3A0      #003=FMF$TYC File=FMF$PMME.:E05TSI                                 TUE 07/29/97 16:44 Page:257
     1637        1        /*T***********************************************************/
     1638        2        /*T*                                                         */
     1639        3        /*T* Copyright (c) Bull HN Information Systems Inc., 1997    */
     1640        4        /*T*                                                         */
     1641        5        /*T***********************************************************/
     1642        6        /*F*    NAME:    FMF$TYC
     1643        7        *       PURPOSE:  Convert a TYC to JIT.ERR */
     1644        8        /**/
     1645        9        /**/
     1646       10        /*D*    NAME:    FMF$TYC
     1647       11        *       CALL:    CALL FMF$TYC(TYC,ERRCODE);
     1648       12        *       INPUT:   TYC - 36 bit TYC to convert
     1649       13        *       OUTPUT:  ERRCODE - The error code in same format as JIT.ERR
     1650       14        *       DESCRIPTION:  ERRCODE is zeroed.  If TYC.EGV is zero, return.
     1651       15        *                Scan TYC from bit 1 to bit 35.  When the first
     1652       16        *                non-zero bit is found, set ERRCODE from F_CODE and
     1653       17        *                F_SEV.
     1654       18        */
     1655       19        /**/
     1656       20        /**/
     1657       21        FMF$TYC: PROC(TYC,ERRCODE);
     1658       22        /* PARAMETERS */
     1659       23    1   DCL 1 TYC ALIGNED,
     1660       24    1         2 B(0:35) BIT(1) UNAL;
     1661       25    1   DCL 1 ERRCODE ALIGNED,
     1662       26    1         2 * BIT(19),
     1663       27    1         2 CODE UBIN(14) UNAL,
     1664       28    1         2 SEV UBIN(3) UNAL;
     1665       29        /* INCLUDE FILES */
     1666       30        %INCLUDE F_CODE_R;
     1667       40        %INCLUDE F_MACROS_C;
     1668       51        /* LOCAL AUTOMATIC STORAGE */
     1669       52    1   DCL I UBIN;
     1670       53        /* SUBSTITUTIONS */
     1671       54        %SUB FCG#='0615'O;
     1672       55        %SUB MID#='06'O;
     1673       56        /* CONSTANT STORAGE */
PL6.E3A0      #003=FMF$TYC File=FMF$PMME.:E05TSI                                 TUE 07/29/97 16:44 Page:258
     1674       57        %ERRCODE (NAME=ERRDMY,COD#=0);
     1675       61        /**/
     1676       62        /**/
     1677       63    1           ERRCODE='0'B;
     1678       64    1           IF TYC.B(0) THEN      /* EGV set - there is something significant     */
     1679       65    2           DO I=1 TO F_TYCMAX;
     1680       66    3              IF TYC.B(I) THEN DO;
     1681       67    3                 ERRCODE=ERRDMY;
     1682       68    3                 ERRCODE.CODE=F_CODE(I);
     1683       69    3                 ERRCODE.SEV=F_SEV(I);
     1684       70    3                 RETURN;
     1685       71    3                 END;
     1686       72    2              END;
     1687       73    1           RETURN;
     1688       74    1   END FMF$TYC;

PL6.E3A0      #003=FMF$TYC File=FMF$PMME.:E05TSI                                 TUE 07/29/97 16:44 Page:259
--  Include file information  --

   F_MACROS_C.:E05TOU  is referenced.
   F_CODE_R.:E05TOU  cannot be made into a system file and is referenced.
      No diagnostics issued in procedure FMF$TYC.

   Procedure FMF$TYC requires 37 words for executable code.
   Procedure FMF$TYC requires 6 words of local(AUTO) storage.

    No errors detected in file FMF$PMME.:E05TSI    .

PL6.E3A0      #003=FMF$TYC File=FMF$PMME.:E05TSI                                 TUE 07/29/97 16:44 Page:260

 Object Unit name= FMF$TYC                                    File name= FMF$PMME.:E05TOU
 UTS= JUL 29 '97 16:44:57.40 TUE                              Compiler= PL-6/E31         Sev=      00
 SharedLib= :SHARED_SYSTEM                                    Alt SharedLib=


    ****  Control sections  ****

 Sect   Type Bound  Init  Size OctSiz  Section name(segment info)
    0  RoData even  UTS      1      1  FMF$TYC
    1   Proc  even  none    37     45  FMF$TYC

    ****  Entry defs  ****

                              Check   Calling
                             calling  sequence
  Sect OctLoc Primary Altret sequence   type   Parms  Name
     1      0   yes            yes      Std        2  FMF$TYC

  ****  Entry refs  ****

         Check        Calling
        calling       sequence
Altret sequence SRef   type   Args  Name
                       nStd      0 X66_AUTO_2
                       Std       0 B_CONSPOOL_D
                       nStd      0 X66_ARET

  ****  Data refs  ****

  Flags:  r = read only, s = secondary
Flgs Name                             Flgs Name                             Flgs Name
r    F_CODE                           r    F_SEV                            r    F_TYCMAX
     B_VECTNIL
PL6.E3A0      #003=FMF$TYC File=FMF$PMME.:E05TSI                                 TUE 07/29/97 16:44 Page:261


     1637        1        /*T***********************************************************/
     1638        2        /*T*                                                         */
     1639        3        /*T* Copyright (c) Bull HN Information Systems Inc., 1997    */
     1640        4        /*T*                                                         */
     1641        5        /*T***********************************************************/
     1642        6        /*F*    NAME:    FMF$TYC
     1643        7        *       PURPOSE:  Convert a TYC to JIT.ERR */
     1644        8        /**/
     1645        9        /**/
     1646       10        /*D*    NAME:    FMF$TYC
     1647       11        *       CALL:    CALL FMF$TYC(TYC,ERRCODE);
     1648       12        *       INPUT:   TYC - 36 bit TYC to convert
     1649       13        *       OUTPUT:  ERRCODE - The error code in same format as JIT.ERR
     1650       14        *       DESCRIPTION:  ERRCODE is zeroed.  If TYC.EGV is zero, return.
     1651       15        *                Scan TYC from bit 1 to bit 35.  When the first
     1652       16        *                non-zero bit is found, set ERRCODE from F_CODE and
     1653       17        *                F_SEV.
     1654       18        */
     1655       19        /**/
     1656       20        /**/
     1657       21        FMF$TYC: PROC(TYC,ERRCODE);

     21  1 000000   000000 700200 xent  FMF$TYC      TSX0  ! X66_AUTO_2
         1 000001   000006 000002                    ZERO    6,2

     1658       22        /* PARAMETERS */
     1659       23    1   DCL 1 TYC ALIGNED,
     1660       24    1         2 B(0:35) BIT(1) UNAL;
     1661       25    1   DCL 1 ERRCODE ALIGNED,
     1662       26    1         2 * BIT(19),
     1663       27    1         2 CODE UBIN(14) UNAL,
     1664       28    1         2 SEV UBIN(3) UNAL;
     1665       29        /* INCLUDE FILES */
     1666       30        %INCLUDE F_CODE_R;
     1667       40        %INCLUDE F_MACROS_C;
     1668       51        /* LOCAL AUTOMATIC STORAGE */
PL6.E3A0      #003=FMF$TYC File=FMF$PMME.:E05TSI                                 TUE 07/29/97 16:44 Page:262
     1669       52    1   DCL I UBIN;
     1670       53        /* SUBSTITUTIONS */
     1671       54        %SUB FCG#='0615'O;
     1672       55        %SUB MID#='06'O;
     1673       56        /* CONSTANT STORAGE */
     1674       57        %ERRCODE (NAME=ERRDMY,COD#=0);
     1675       61        /**/
     1676       62        /**/
     1677       63    1           ERRCODE='0'B;

     63  1 000002   200004 470500                    LDP0    @ERRCODE,,AUTO
         1 000003   000000 450100                    STZ     0,,PR0

     1678       64    1           IF TYC.B(0) THEN      /* EGV set - there is something significant     */

     64  1 000004   200003 471500                    LDP1    @TYC,,AUTO
         1 000005   100000 234100                    SZN     0,,PR1
         1 000006   000044 605000 1                  TPL     s:73

     1679       65    2           DO I=1 TO F_TYCMAX;

     65  1 000007   000001 235007                    LDA     1,DL
         1 000010   200005 755100                    STA     I,,AUTO
         1 000011   000040 710000 1                  TRA     s:72+2

     1680       66    3              IF TYC.B(I) THEN DO;

     66  1 000012   200003 470500                    LDP0    @TYC,,AUTO
         1 000013   200005 235100                    LDA     I,,AUTO
         1 000014   000000 066505                    CMPB    filb='0'B
         1 000015   000000 000001                    BDSC    0,A,PR0                  by=0,bit=0,n=1
         1 000016   000002 000022 xsym               BDSC    B_VECTNIL+2              by=0,bit=0,n=18
         1 000017   000036 600000 1                  TZE     s:72

     1681       67    3                 ERRCODE=ERRDMY;

     67  1 000020   000000 236000 0                  LDQ     ERRDMY
PL6.E3A0      #003=FMF$TYC File=FMF$PMME.:E05TSI                                 TUE 07/29/97 16:44 Page:263
         1 000021   200004 471500                    LDP1    @ERRCODE,,AUTO
         1 000022   100000 756100                    STQ     0,,PR1

     1682       68    3                 ERRCODE.CODE=F_CODE(I);

     68  1 000023   200005 236100                    LDQ     I,,AUTO
         1 000024   000011 402007                    MPY     9,DL
         1 000025   003100 061406                    CSR     bolr='003'O
         1 000026   000000 000011 xsym               BDSC    F_CODE,Q                 by=0,bit=0,n=9
         1 000027   100000 410016                    BDSC    0,,PR1                   by=2,bit=1,n=14

     1683       69    3                 ERRCODE.SEV=F_SEV(I);

     69  1 000030   200005 235100                    LDA     I,,AUTO
         1 000031   000001 735000                    ALS     1
         1 000032   003100 061405                    CSR     bolr='003'O
         1 000033   000000 000002 xsym               BDSC    F_SEV,A                  by=0,bit=0,n=2
         1 000034   100000 660003                    BDSC    0,,PR1                   by=3,bit=6,n=3

     1684       70    3                 RETURN;

     70  1 000035   000000 702200 xent               TSX2  ! X66_ARET

     1685       71    3                 END;
     1686       72    2              END;

     72  1 000036   000001 035007                    ADLA    1,DL
         1 000037   200005 755100                    STA     I,,AUTO
         1 000040   200005 236100                    LDQ     I,,AUTO
         1 000041   000044 604000 1                  TMI     s:73
         1 000042   000000 116000 xsym               CMPQ    F_TYCMAX
         1 000043   000012 604400 1                  TMOZ    s:66

     1687       73    1           RETURN;

     73  1 000044   000000 702200 xent               TSX2  ! X66_ARET

PL6.E3A0      #003=FMF$TYC File=FMF$PMME.:E05TSI                                 TUE 07/29/97 16:44 Page:264
ERRDMY
 Sect OctLoc
   0     000   061506 000002                                                    1...
     1688       74    1   END FMF$TYC;

PL6.E3A0      #003=FMF$TYC File=FMF$PMME.:E05TSI                                 TUE 07/29/97 16:44 Page:265
--  Include file information  --

   F_MACROS_C.:E05TOU  is referenced.
   F_CODE_R.:E05TOU  cannot be made into a system file and is referenced.
      No diagnostics issued in procedure FMF$TYC.
PL6.E3A0      #003=FMF$TYC File=FMF$PMME.:E05TSI                                 TUE 07/29/97 16:44 Page:266

 **** Variables and constants ****

  ****  Section 000 RoData FMF$TYC

  ****  Scalars and arrays  ****
OctLoc.c.b A Datatyp(siz) R M Lvl/name                 OctLoc.c.b A Datatyp(siz) R M Lvl/name

     0-0-0/b STRC        r     1 ERRDMY

  ****  Auto variables  ****

  ****  Scalars and arrays  ****
OctLoc.c.b A Datatyp(siz) R M Lvl/name                 OctLoc.c.b A Datatyp(siz) R M Lvl/name

     4-0-0/w PTR         r     1 @ERRCODE                   3-0-0/w PTR         r     1 @TYC
    *0-0-0/w STRC        r     1 ERRCODE                    5-0-0/w UBIN        r     1 I
    *0-0-0/w STRC        r     1 TYC

  ****  SYMREF variables  ****

  ****  Scalars and arrays  ****
OctLoc.c.b A Datatyp(siz) R M Lvl/name                 OctLoc.c.b A Datatyp(siz) R M Lvl/name

     0-0-0/b UBIN(9)     r     1 F_CODE(0:24)               0-0-0/b UBIN(2)     r     1 F_SEV(0:24)
     0-0-0/w SBIN        r     1 F_TYCMAX


   Procedure FMF$TYC requires 37 words for executable code.
   Procedure FMF$TYC requires 6 words of local(AUTO) storage.

    No errors detected in file FMF$PMME.:E05TSI    .
PL6.E3A0      #003=FMF$TYC File=FMF$PMME.:E05TSI                                 TUE 07/29/97 16:44 Page:267
          *** CROSS REFERENCE LISTING ***
**     DENOTES     IDENTIFIER DEFINITION
<<                 IDENTIFIER'S VALUE SET
>>                 IDENTIFIER'S VALUE USED
<>                 IDENTIFIER SET AND/OR USED
--                 IDENTIFIER REFERENCED
PL6.E3A0      #003=FMF$TYC File=FMF$PMME.:E05TSI                                 TUE 07/29/97 16:44 Page:268
          MINI XREF LISTING

ERRCODE
        25**DCL        21--PROC       63<<ASSIGN     67<<ASSIGN
ERRCODE.CODE
        27**DCL        68<<ASSIGN
ERRCODE.SEV
        28**DCL        69<<ASSIGN
ERRDMY
        58**DCL        67>>ASSIGN
F_CODE
        38**DCL        68>>ASSIGN
F_SEV
        38**DCL        69>>ASSIGN
F_TYCMAX
        38**DCL        65>>DOINDEX
I
        52**DCL        65<<DOINDEX    66>>IF         68>>ASSIGN     69>>ASSIGN
TYC
        23**DCL        21--PROC
TYC.B
        24**DCL        64>>IF         66>>IF
PL6.E3A0      #003=FMF$TYC File=FMF$PMME.:E05TSI                                 TUE 07/29/97 16:44 Page:269
              *** CROSS REFERENCE LISTING ***
    **     DENOTES     IDENTIFIER DEFINITION
    <<                 IDENTIFIER'S VALUE SET
    >>                 IDENTIFIER'S VALUE USED
    <>                 IDENTIFIER SET AND/OR USED
    --                 IDENTIFIER REFERENCED
PL6.E3A0      #003=FMF$TYC File=FMF$PMME.:E05TSI                                 TUE 07/29/97 16:44 Page:270
              MINI UREF LISTING

FMF$TYC      21**PROC
F_TYCBITS      38**DCL
