PL6.E3A0      #001=FMG$KEYED File=FMG$KEYED.:E05TSI                              TUE 07/29/97 16:43 Page:1201
JDCB$
      6898**DCL      6349--IMP-PTR  7008>>ASSIGN   7010>>ASSIGN   7044>>ASSIGN   7045>>ASSIGN   7046>>IF
      7063>>ASSIGN   7067>>ASSIGN   7137>>ASSIGN   7139>>ASSIGN   7143>>ASSIGN   7144>>ASSIGN   7145>>ASSIGN
      7146>>ASSIGN   7147>>ASSIGN   7156>>ASSIGN   7222>>ASSIGN   7223>>ASSIGN   7224>>IF       7247>>IF
      7247>>IF       7259>>ASSIGN   7334>>ASSIGN   7372>>IF       7372>>IF       7380>>ASSIGN   7399>>ASSIGN
      7446>>ASSIGN   7452>>IF       7457>>ASSIGN   7461>>ASSIGN   7463>>ASSIGN   7470>>ASSIGN   7470>>ASSIGN
      7471>>ASSIGN   7471>>ASSIGN   7472>>ASSIGN   7473>>ASSIGN   7476>>ASSIGN   7477>>ASSIGN   7498>>ASSIGN
      7499>>IF       7499>>IF       7507>>ASSIGN   7515>>ASSIGN   7523>>ASSIGN   7524>>ASSIGN   7527>>ASSIGN
      7581>>ASSIGN   7586>>DOUNTIL  7587>>IF       7592>>ASSIGN   7612>>ASSIGN   7613>>ASSIGN   7614>>IF
      7628>>ASSIGN   7655>>IF       7763>>ASSIGN   7874>>IF       7880>>ASSIGN   7881>>ASSIGN   7882>>IF
      7902>>IF       7902>>IF       7906>>ASSIGN   8003>>ASSIGN   8009>>ASSIGN   8020>>ASSIGN   8028>>ASSIGN
      8057>>ASSIGN   8255>>IF       8304>>ASSIGN   8444>>IF       8542>>ASSIGN   8545>>IF       8547>>ASSIGN
      8558>>ASSIGN   8564>>ASSIGN   8595>>ASSIGN   8596>>IF       8603>>IF       8605>>ASSIGN   8627>>ASSIGN
      8653>>IF       8653>>IF       8675>>ASSIGN   8690>>ASSIGN   8706>>ASSIGN   8717>>ASSIGN   8742>>ASSIGN
      8798>>IF       8801>>IF       8801>>IF       8801>>IF       8808>>ASSIGN   8818>>ASSIGN   8819>>ASSIGN
      8820>>ASSIGN   8833>>ASSIGN   8836>>IF       8839>>IF       8853>>ASSIGN   8854>>ASSIGN   8857>>ASSIGN
      8859>>ASSIGN   8861>>ASSIGN   8862>>ASSIGN   8863>>ASSIGN   8864>>ASSIGN   8865>>ASSIGN   8880>>ASSIGN
      8909>>ASSIGN   8945>>ASSIGN   8946>>ASSIGN   8947>>IF       8953>>ASSIGN   8961>>ASSIGN   8963>>ASSIGN
      8964>>ASSIGN   8964>>ASSIGN   8971>>ASSIGN   8972>>ASSIGN   8973>>IF       8988>>IF       8988>>IF
      9007>>ASSIGN   9060>>ASSIGN   9131>>ASSIGN   9146>>ASSIGN   9165>>ASSIGN   9209>>ASSIGN   9300>>IF
      9300>>IF       9300>>IF       9321>>ASSIGN   9326>>ASSIGN   9328>>ASSIGN   9330>>IF       9334>>IF
      9337>>ASSIGN   9342>>ASSIGN   9342>>ASSIGN   9352>>ASSIGN   9421>>ASSIGN   9422>>IF       9424>>ASSIGN
      9435>>IF       9435>>IF       9444>>ASSIGN   9447>>ASSIGN   9448>>ASSIGN   9510>>ASSIGN   9511>>ASSIGN
      9515>>IF       9515>>IF       9529>>ASSIGN   9537>>ASSIGN   9546>>ASSIGN   9548>>IF       9548>>IF
      9556>>ASSIGN   9563>>ASSIGN   9564>>ASSIGN   9566>>IF       9566>>IF       9606>>ASSIGN   9607>>ASSIGN
      9611>>ASSIGN   9611>>ASSIGN   9612>>ASSIGN   9612>>ASSIGN   9613>>ASSIGN   9613>>ASSIGN   9614>>ASSIGN
      9614>>ASSIGN   9615>>ASSIGN   9616>>ASSIGN   9627>>ASSIGN   9691>>ASSIGN   9694>>ASSIGN   9708>>ASSIGN
      9709>>IF       9712>>ASSIGN   9716>>ASSIGN   9717>>ASSIGN   9718>>ASSIGN   9802>>IF       9805>>IF
      9838>>ASSIGN   9888>>ASSIGN   9893>>ASSIGN   9897>>ASSIGN   9898>>IF       9907>>ASSIGN   9918>>ASSIGN
      9929>>ASSIGN   9978>>IF       9979>>ASSIGN   9983>>ASSIGN  10035>>ASSIGN  10074>>ASSIGN  10075>>ASSIGN
     10119>>ASSIGN  10120>>ASSIGN  10121>>ASSIGN  10124>>ASSIGN  10128>>ASSIGN  10149>>ASSIGN  10150>>ASSIGN
     10219>>ASSIGN  10220>>ASSIGN  10242>>ASSIGN  10245>>ASSIGN  10246>>ASSIGN  10249>>ASSIGN  10251>>ASSIGN
     10258>>IF      10258>>IF      10261>>ASSIGN  10262>>ASSIGN  10262>>ASSIGN  10272>>ASSIGN  10273>>ASSIGN
     10298>>IF      10300>>ASSIGN  10301>>ASSIGN  10302>>IF      10306>>ASSIGN  10309>>ASSIGN  10310>>ASSIGN
     10370>>IF      10370>>IF      10370>>IF      10370>>IF      10370>>IF      10383>>ASSIGN  10384>>ASSIGN
     10398>>ASSIGN  10413>>ASSIGN  10439<<ASSIGN  10440>>ASSIGN  10441>>ASSIGN  10442>>ASSIGN  10446>>IF
PL6.E3A0      #001=FMG$KEYED File=FMG$KEYED.:E05TSI                              TUE 07/29/97 16:43 Page:1202
     10446>>IF      10473>>IF      10474>>ASSIGN  10479>>ASSIGN  10480>>ASSIGN  10634>>ASSIGN  10634>>ASSIGN
     10654>>ASSIGN  10654>>ASSIGN  10660>>ASSIGN  10660>>ASSIGN  10666>>ASSIGN  10666>>ASSIGN  10676>>ASSIGN
     10699>>ASSIGN  10711>>ASSIGN  10873>>ASSIGN  10874>>ASSIGN  10916>>ASSIGN  10917>>ASSIGN  10957>>ASSIGN
     10968>>ASSIGN  11010>>ASSIGN  11030>>ASSIGN  11031>>ASSIGN  11083>>IF      11083>>IF      11089>>ASSIGN
     11108>>ASSIGN  11136>>IF      11147>>ASSIGN  11164>>ASSIGN  11206>>ASSIGN  11216>>IF      11229>>ASSIGN
     11233>>ASSIGN  11234>>ASSIGN  11254>>ASSIGN  11314>>ASSIGN  11337>>ASSIGN  11343>>ASSIGN  11418>>ASSIGN
     11456>>ASSIGN  11486>>ASSIGN  11511>>IF      11519>>ASSIGN  11524>>ASSIGN  11537>>IF      11589>>ASSIGN
     11634>>ASSIGN  11640>>ASSIGN  11648>>ASSIGN  11654>>ASSIGN  11673>>ASSIGN  11703>>ASSIGN  11705>>ASSIGN
     11706>>ASSIGN  11707>>ASSIGN  11708>>ASSIGN  11739>>ASSIGN  11740>>ASSIGN  11741>>IF      11743>>ASSIGN
     11744>>ASSIGN  11745>>ASSIGN  11746>>ASSIGN  11799>>IF      11822>>IF      11830>>IF      11830>>IF
     11846>>IF      11853>>ASSIGN  11854>>IF      11857>>ASSIGN  11864>>ASSIGN  11867>>IF      11868>>ASSIGN
     11871>>ASSIGN  11872>>ASSIGN  11872>>ASSIGN  11874>>ASSIGN  11874>>ASSIGN  11875>>ASSIGN  11875>>ASSIGN
     11876>>ASSIGN  11876>>ASSIGN  11887>>ASSIGN  11902>>ASSIGN  11908>>ASSIGN  11930>>ASSIGN  11931>>ASSIGN
     11934>>ASSIGN  11934>>ASSIGN  11979>>ASSIGN  11980>>IF      12006>>ASSIGN  12071>>IF      12081>>ASSIGN
     12083>>ASSIGN  12092>>IF      12140>>IF      12208>>ASSIGN  12214>>ASSIGN  12224>>ASSIGN  12324>>ASSIGN
     12325>>ASSIGN  12327>>IF      12333>>ASSIGN  12336>>ASSIGN  12342>>ASSIGN  12346>>ASSIGN  12349>>ASSIGN
     12357>>ASSIGN  12357>>ASSIGN  12358>>ASSIGN  12358>>ASSIGN  12359>>ASSIGN  12360>>ASSIGN  12361>>ASSIGN
     12362>>ASSIGN  12364>>ASSIGN  12366>>ASSIGN  12367>>ASSIGN  12412>>ASSIGN  12413>>ASSIGN  12475>>ASSIGN
     12517>>ASSIGN  12520>>ASSIGN  12530>>ASSIGN  12536>>ASSIGN  12539>>ASSIGN  12546>>ASSIGN  12562>>ASSIGN
     12563>>ASSIGN  12564>>ASSIGN  12571>>ASSIGN  12572>>ASSIGN  12599>>IF      12599>>IF      12610>>IF
     12610>>IF      12656>>ASSIGN  12657>>ASSIGN  12661>>ASSIGN  12716>>ASSIGN  12723>>ASSIGN  12723>>ASSIGN
     12749>>ASSIGN  12763<<ASSIGN  12764>>ASSIGN  12765>>ASSIGN  12769>>ASSIGN  12771>>ASSIGN  12797>>ASSIGN
     12800>>ASSIGN  12802>>IF      12814>>IF      12828>>ASSIGN  12829>>ASSIGN  12830>>ASSIGN  12831>>ASSIGN
     12832>>ASSIGN  12833>>ASSIGN  12837>>ASSIGN  12838>>ASSIGN  12839>>ASSIGN  12840>>ASSIGN  12841>>ASSIGN
     12842>>ASSIGN  12843>>ASSIGN  12844>>ASSIGN  12845>>ASSIGN  12846>>ASSIGN  12849>>ASSIGN  12850>>ASSIGN
     12852>>ASSIGN  12852>>ASSIGN  12880>>ASSIGN  12883>>ASSIGN  12885>>IF      12894>>IF      12903>>ASSIGN
     12904>>ASSIGN  12905>>ASSIGN  12906>>ASSIGN  12907>>ASSIGN  12908>>ASSIGN  12912>>ASSIGN  12913>>ASSIGN
     12914>>ASSIGN  12916>>ASSIGN  12917>>ASSIGN  12918>>ASSIGN  12919>>ASSIGN  12922>>ASSIGN  12923>>ASSIGN
     12925>>ASSIGN  12925>>ASSIGN  12928>>ASSIGN  13023>>ASSIGN  13024>>ASSIGN  13025>>ASSIGN  13032>>ASSIGN
     13033>>ASSIGN  13055>>IF      13057>>ASSIGN  13060>>ASSIGN  13062>>ASSIGN  13065>>IF      13067>>IF
     13075>>DOWHILE 13075>>DOWHILE 13081>>ASSIGN  13186>>ASSIGN  13218>>ASSIGN  13224>>IF      13226>>IF
     13409>>ASSIGN  13410>>ASSIGN  13411>>ASSIGN  13411>>ASSIGN  13412>>ASSIGN  13412>>ASSIGN  13413>>ASSIGN
     13414>>ASSIGN  13424>>ASSIGN  13437>>ASSIGN  13453>>ASSIGN  13479>>ASSIGN  13480>>ASSIGN  13481>>ASSIGN
     13482>>ASSIGN  13484>>ASSIGN  13493>>ASSIGN  13504>>ASSIGN  13518>>ASSIGN  13519>>ASSIGN  13553>>IF
     13553>>IF      13565>>ASSIGN  13621>>IF      13621>>IF      13631>>ASSIGN  13645>>IF      13657>>DOUNTIL
     13666>>ASSIGN  13667>>ASSIGN  13668>>IF      13677>>ASSIGN  13678>>IF      13681>>ASSIGN  13691>>IF
PL6.E3A0      #001=FMG$KEYED File=FMG$KEYED.:E05TSI                              TUE 07/29/97 16:43 Page:1203
     13692>>ASSIGN  13695>>CALLBLT 13703>>ASSIGN  13704>>ASSIGN  13706>>ASSIGN  13706>>ASSIGN  13707>>ASSIGN
     13707>>ASSIGN  13708>>ASSIGN  13708>>ASSIGN  13755>>IF      13759>>ASSIGN  13762>>IF      13762>>IF
     13762>>IF      13767>>IF      13768>>IF      13769>>ASSIGN  13774>>ASSIGN  13774>>ASSIGN  13780>>IF
     13789>>IF      13845>>IF      13845>>IF      13851>>ASSIGN  13860>>IF      13860>>IF      13866>>IF
     13895>>IF      13915>>IF      13915>>IF      13961>>ASSIGN  14010>>ASSIGN  14012>>ASSIGN  14020>>ASSIGN
     14043>>IF      14057>>DOCASE  14115>>ASSIGN  14119>>IF      14121>>ASSIGN  14123>>ASSIGN  14222>>ASSIGN
     14235<<ASSIGN  14236>>ASSIGN  14300>>ASSIGN  14337>>ASSIGN  14338>>ASSIGN
K$ IN PROCEDURE SETKEY
     12696**DCL     12695--PROC    12700>>ASSIGN  12720<>CALL    12725>>ASSIGN
KCHR IN PROCEDURE COMPKEY
      8413**DCL      8423>>IF       8423>>IF       8424>>IF       8424>>IF
KCHRS IN PROCEDURE COMPKEY
      8412**DCL      8413--IMP-SIZ  8419<<ASSIGN   8423>>IF       8423>>IF       8424>>IF       8424>>IF
      8432>>DOWHILE  8439<<ASSIGN   8439>>ASSIGN
KEY.SIZE IN PROCEDURE COMKEY
      8222**DCL      8254>>ASSIGN
KEY.TEXT IN PROCEDURE COMKEY
      8223**DCL      8238>>IF       8238>>IF       8244>>IF       8244>>IF       8270>>IF       8275>>IF
KEY.SIZE IN PROCEDURE GETKEY
      9797**DCL      9817<<ASSIGN
KEY.TEXT IN PROCEDURE GETKEY
      9798**DCL      9813>>ASSIGN   9818<<ASSIGN   9818>>ASSIGN
KEY.SIZE IN PROCEDURE SLIDE
     13127**DCL     13195<<ASSIGN
KEY.TEXT IN PROCEDURE SLIDE
     13128**DCL     13197<<ASSIGN  13199<<ASSIGN  13199>>ASSIGN
KEY.TEXT IN PROCEDURE WRNEWKEY
     13958**DCL     13986<<ASSIGN  13997<<ASSIGN  13997>>ASSIGN
KEY$
      6907**DCL      6419--IMP-PTR  6422--IMP-PTR  6429--IMP-PTR  7153<<ASSIGN   7153>>ASSIGN   7170>>ASSIGN
      7313<<ASSIGN   7315<<ASSIGN   7757>>ASSIGN   7759>>ASSIGN   7760>>ASSIGN   7766>>ASSIGN   8004>>IF
      8027>>ASSIGN   8091<<ASSIGN   8093<<ASSIGN   8121<<ASSIGN   8123<<ASSIGN   8131<<ASSIGN   8133<<ASSIGN
      8163<<ASSIGN   8167>>ASSIGN   8180>>ASSIGN   8229>>ASSIGN   8238>>IF       8244>>IF       8254>>ASSIGN
      8270>>IF       8275>>IF       8305<>CALL     8305<>CALL     8416>>ASSIGN   8469>>ASSIGN   8662<<ASSIGN
      8667>>IF       8960>>ASSIGN   9051>>IF       9054>>IF       9140>>IF       9152>>IF       9560<<ASSIGN
      9808>>ASSIGN   9810>>ASSIGN   9813>>ASSIGN   9815>>ASSIGN   9815>>ASSIGN   9818>>ASSIGN  10296<<ASSIGN
PL6.E3A0      #001=FMG$KEYED File=FMG$KEYED.:E05TSI                              TUE 07/29/97 16:43 Page:1204
     10304<<ASSIGN  10306<<ASSIGN  10306>>ASSIGN  10313<<ASSIGN  10315<<ASSIGN  10651>>IF      10686<<ASSIGN
     10702>>IF      11195<<ASSIGN  11279>>DOUNTIL 11471>>IF      11502>>IF      11610<<ASSIGN  11612<<ASSIGN
     11614>>ASSIGN  11616>>ASSIGN  11618>>ASSIGN  11641>>ASSIGN  11672>>DOUNTIL 11825>>IF      12062>>IF
     12278<<ASSIGN  12280<<ASSIGN  12285>>ASSIGN  12287>>ASSIGN  12289>>ASSIGN  12291<>CALL    12294>>ASSIGN
     12457<<ASSIGN  12459<<ASSIGN  12461>>ASSIGN  12463>>ASSIGN  12464>>IF      12504>>ASSIGN  12506>>ASSIGN
     12514>>IF      12525>>IF      12573<<ASSIGN  12640>>ASSIGN  12740<<ASSIGN  12742<<ASSIGN  12745>>ASSIGN
     12745>>ASSIGN  12747>>ASSIGN  12747>>ASSIGN  13034<<ASSIGN  13190<<ASSIGN  13212>>ASSIGN  13256<<ASSIGN
     13258<<ASSIGN  13281<<ASSIGN  13283<<ASSIGN  13286>>ASSIGN  13288>>ASSIGN  13289<<ASSIGN  13289>>ASSIGN
     13290>>ASSIGN  13353<<ASSIGN  13355>>ASSIGN  13357>>ASSIGN  13358<<ASSIGN  13358>>ASSIGN  13359>>ASSIGN
     13376<<ASSIGN  13378<<ASSIGN  13380>>ASSIGN  13382>>ASSIGN  13383<<ASSIGN  13383>>ASSIGN  13384>>ASSIGN
     13635>>IF      13852<<ASSIGN  13857>>IF      13916>>IF      13963>>IF      13966>>IF      13971<<ASSIGN
     13973<<ASSIGN  13974>>IF      13986>>ASSIGN  13991>>IF      13995>>ASSIGN  13996>>ASSIGN  13997>>ASSIGN
     14011>>ASSIGN  14221>>IF
KEYCHNG IN PROCEDURE NXTREC
     11187**DCL     11189<<ASSIGN  11193<<ASSIGN  11197>>IF      11250>>IF
KEYCNT
      6906**DCL      7307>>ASSIGN   7959>>IF       7972>>IF       8008>>ASSIGN   8019>>ASSIGN   8066>>IF
      8086<<ASSIGN   8090>>IF       8091>>ASSIGN   8093>>ASSIGN   8095>>IF       8114>>IF       8120>>IF
      8121>>ASSIGN   8123>>ASSIGN   8541>>ASSIGN   8551>>DOUNTIL  8554>>ASSIGN   8592>>IF       8594>>ASSIGN
      8659<<ASSIGN   8823<<ASSIGN   9425<<ASSIGN   9438<<ASSIGN   9450<<ASSIGN   9527>>IF       9555>>ASSIGN
      9620<<ASSIGN   9624>>ASSIGN   9626>>ASSIGN  10004<<ASSIGN  10007<<ASSIGN  10031>>ASSIGN  10540>>ASSIGN
     10800>>ASSIGN  10840>>ASSIGN  10860<<ASSIGN  10860>>ASSIGN  10861>>ASSIGN  10863>>IF      10925>>ASSIGN
     10960>>DOINDEX 11138>>IF      11140>>DOUNTIL 11151>>IF      11153>>DOUNTIL 11217>>IF      11319>>IF
     11596>>IF      11633>>ASSIGN  11936<<ASSIGN  12282>>IF      12297>>DOINDEX 12312>>ASSIGN  12313<<ASSIGN
     12313>>ASSIGN  12315>>IF      12320>>ASSIGN  12327>>IF      12398>>DOINDEX 12405>>IF      12444>>IF
     12454>>IF      12454>>IF      12480>>IF      12484>>IF      12508>>IF      12568<<ASSIGN  12768<<ASSIGN
     13029<<ASSIGN  13058>>IF      13061>>ASSIGN  13139>>IF      13162>>ASSIGN  13210<<ASSIGN  13210>>ASSIGN
     13211>>ASSIGN  13250>>ASSIGN  13326<<ASSIGN  13375>>IF      13376>>ASSIGN  13378>>ASSIGN  13416<<ASSIGN
     13850>>ASSIGN  14190>>IF
KEYCNT3 IN PROCEDURE MOVETOB3
     10782**DCL     10795<<ASSIGN  10802>>IF      10807<<ASSIGN  10825>>ASSIGN  10871<<ASSIGN  10871>>ASSIGN
     10872>>ASSIGN
KEYERR IN PROCEDURE COMKEY
      8292**LABEL    8231--GOTO     8256--GOTO
KEYEXP
     10207**PROC    14237--CALL
PL6.E3A0      #001=FMG$KEYED File=FMG$KEYED.:E05TSI                              TUE 07/29/97 16:43 Page:1205
KEYIN.SIZE
      6956**DCL     12701>>ASSIGN  14145>>ASSIGN  14215>>ASSIGN
KEYIN$
      6921**DCL      6955--IMP-PTR  7259<<ASSIGN   7380<<ASSIGN   7758>>ASSIGN   8168>>ASSIGN   8181>>ASSIGN
      8238>>IF       8244>>IF       8258>>IF       8258>>IF       8260<>CALL     8270>>IF       8275>>IF
      8417>>ASSIGN   8473>>ASSIGN   8487>>ASSIGN   8706<<ASSIGN   8953<<ASSIGN   9352<<ASSIGN  11010<<ASSIGN
     11031<<ASSIGN  11089<<ASSIGN  12208<<ASSIGN  12700<<ASSIGN  12701>>ASSIGN  12723<<ASSIGN  12725<<ASSIGN
     13197>>ASSIGN  13199>>ASSIGN  13986>>ASSIGN  13997>>ASSIGN  14144<<ASSIGN  14145>>ASSIGN  14214<<ASSIGN
     14215>>ASSIGN
KEYIN_SIZE
      6935**DCL      6957--IMP-SIZ  7090>>ASSIGN   7092>>ASSIGN   7756>>ASSIGN   7759>>ASSIGN   8228>>ASSIGN
     12702<<ASSIGN  12703>>IF      12703>>IF      12716<<ASSIGN  12719<<ASSIGN  12841<<ASSIGN  12915<<ASSIGN
     13123--IMP-SIZ 13128--IMP-SIZ 13195>>ASSIGN  13197>>ASSIGN  13197>>ASSIGN  13199>>ASSIGN  13199>>ASSIGN
     13953--IMP-SIZ 13958--IMP-SIZ 13986>>ASSIGN  13986>>ASSIGN  13991>>IF      13995>>ASSIGN  13996>>ASSIGN
     13997>>ASSIGN  13997>>ASSIGN  14146<<ASSIGN  14216<<ASSIGN
KEYPTR
     10292**PROC     9800--CALL
KEYSQZ
     10359**PROC    14250--CALL
KEYWORDS
      6927**DCL      7090<<ASSIGN   7092<<ASSIGN   7093>>ASSIGN   7109<<ASSIGN   9973>>ASSIGN   9975>>ASSIGN
     13212>>ASSIGN
KFIELD.FIELD
      6451**DCL      7770>>ASSIGN   8166>>ASSIGN   8178>>ASSIGN   8433>>ASSIGN   8472>>ASSIGN   8486>>ASSIGN
KFIELD$
      6944**DCL      6451--IMP-PTR  7770>>ASSIGN   8166>>ASSIGN   8178>>ASSIGN   8433>>ASSIGN   8472>>ASSIGN
      8486>>ASSIGN  10474<<ASSIGN  10476<<ASSIGN
KINIT
     10437**PROC     6981--CALL
KLB IN PROCEDURE PREVREC
     11585**DCL     11614<<ASSIGN  11616<<ASSIGN  11618>>ASSIGN
KLB IN PROCEDURE REMSEG
     12442**DCL     12461<<ASSIGN  12463<<ASSIGN  12464>>IF      12504<<ASSIGN  12506<<ASSIGN  12514>>IF
     12525>>IF
KLB IN PROCEDURE SRCHGRAN
     13247**DCL     13286<<ASSIGN  13288<<ASSIGN  13289>>ASSIGN
PL6.E3A0      #001=FMG$KEYED File=FMG$KEYED.:E05TSI                              TUE 07/29/97 16:43 Page:1206
KLB IN PROCEDURE SRCHLVL
     13321**DCL     13355<<ASSIGN  13357<<ASSIGN  13358>>ASSIGN  13380<<ASSIGN  13382<<ASSIGN  13383>>ASSIGN
KTPTR$
      6912**DCL      6432--IMP-PTR  6432--IMP-PTR  7149>>IF       7151>>ASSIGN   7152<<ASSIGN   7157>>ASSIGN
      7313>>ASSIGN   7315>>ASSIGN   7501<<ASSIGN   7502>>ASSIGN   7963>>ASSIGN   7965>>ASSIGN   8087<<ASSIGN
      8088>>ASSIGN   8091>>ASSIGN   8093>>ASSIGN   8121>>ASSIGN   8123>>ASSIGN   8131>>ASSIGN   8133>>ASSIGN
      8657<<ASSIGN   8658>>ASSIGN   8821<<ASSIGN   8822>>ASSIGN   8850<<ASSIGN   8851>>ASSIGN   9426<<ASSIGN
      9427>>ASSIGN   9439<<ASSIGN   9440>>ASSIGN   9451<<ASSIGN   9452>>ASSIGN   9621<<ASSIGN   9622>>ASSIGN
     10022>>ASSIGN  10024>>ASSIGN  10311<<ASSIGN  10312>>IF      10313>>ASSIGN  10315>>ASSIGN  10544>>ASSIGN
     10546>>ASSIGN  10841>>ASSIGN  10847>>ASSIGN  10848>>ASSIGN  10866>>ASSIGN  10930>>ASSIGN  10932>>ASSIGN
     10958<<ASSIGN  10958>>ASSIGN  10961>>ASSIGN  10964>>ASSIGN  10967>>ASSIGN  11322>>ASSIGN  11324>>ASSIGN
     11598>>ASSIGN  11610>>ASSIGN  11612>>ASSIGN  11935<<ASSIGN  11937>>ASSIGN  12278>>ASSIGN  12280>>ASSIGN
     12285>>ASSIGN  12287>>ASSIGN  12299>>ASSIGN  12309>>ASSIGN  12312>>ASSIGN  12318>>ASSIGN  12399>>ASSIGN
     12402>>ASSIGN  12407>>ASSIGN  12448>>ASSIGN  12450>>ASSIGN  12457>>ASSIGN  12459>>ASSIGN  12488>>ASSIGN
     12490>>ASSIGN  12511>>ASSIGN  12513>>ASSIGN  12569<<ASSIGN  12570>>ASSIGN  12740>>ASSIGN  12742>>ASSIGN
     12766<<ASSIGN  12767>>ASSIGN  13030<<ASSIGN  13031>>ASSIGN  13143>>ASSIGN  13145>>ASSIGN  13174>>ASSIGN
     13177>>ASSIGN  13181>>ASSIGN  13203>>ASSIGN  13206>>ASSIGN  13256>>ASSIGN  13258>>ASSIGN  13281>>ASSIGN
     13283>>ASSIGN  13327<<ASSIGN  13328>>ASSIGN  13353>>ASSIGN  13376>>ASSIGN  13378>>ASSIGN  13417<<ASSIGN
     13418>>ASSIGN  13971>>ASSIGN  13973>>ASSIGN  14194>>ASSIGN  14196>>ASSIGN
KTPTR3$ IN PROCEDURE BLDFLINK
      7443**DCL      7519<<ASSIGN   7520>>ASSIGN   7521>>ASSIGN
KTPTR3$ IN PROCEDURE MOVETOB3
     10783**DCL     10796<<ASSIGN  10797>>ASSIGN  10799>>ASSIGN  10808<<ASSIGN  10809>>ASSIGN  10831>>ASSIGN
     10834>>ASSIGN  10854>>ASSIGN  10859>>ASSIGN
LASTSEG IN PROCEDURE NXTSEG
     11306**DCL     11322<<ASSIGN  11324<<ASSIGN  11327<<ASSIGN  11329>>IF
LAST_RESULT IN PROCEDURE FINDKEY
      9417**DCL      9456<<ASSIGN   9467>>IF       9476>>DOCASE   9500>>ASSIGN   9503<<ASSIGN
LAST_RESULT IN PROCEDURE SRCHLVL
     13320**DCL     13325<<ASSIGN  13364>>IF
LCDA IN PROCEDURE GETBLINK
      9602**DCL      9606<<ASSIGN   9608<>CALL
LCDA IN PROCEDURE GETFLINK
      9833**DCL      9838<<ASSIGN   9839<>CALL
LCDA IN PROCEDURE MOVKEYS
     10901**DCL     10916<<ASSIGN  10918<>CALL
PL6.E3A0      #001=FMG$KEYED File=FMG$KEYED.:E05TSI                              TUE 07/29/97 16:43 Page:1207
LCDA IN PROCEDURE PTOEOF
     11727**DCL     11737<<ASSIGN  11742<>CALL    11746<<ASSIGN
LCDA IN PROCEDURE RDGRAN
     11928**DCL     11931<<ASSIGN  11933<>CALL
LCDA IN PROCEDURE REMKEY
     12269**DCL     12336<<ASSIGN  12337<>CALL    12342<<ASSIGN  12343<>CALL
LCDA IN PROCEDURE ULBLINK
     13435**DCL     13437<<ASSIGN  13439<>CALL
LCDA IN PROCEDURE ULFLINK
     13451**DCL     13453<<ASSIGN  13455<>CALL
LEN
      6938**DCL      7706--IMP-SIZ  7713>>ASSIGN   7717>>ASSIGN   7717>>ASSIGN   7718>>ASSIGN   7818>>DOINDEX
      8332--IMP-SIZ  8342<>CALL     8345<>CALL     8348<>CALL     8351<>CALL     8355<>CALL     8358<>CALL
      8361<>CALL     8364>>IF       8364>>IF       8365>>IF       8365>>IF       8384<>CALL     8387<>CALL
      8508--IMP-SIZ  8514>>ASSIGN   8515>>ASSIGN  12957<<ASSIGN  12960<<ASSIGN  12963<<ASSIGN  14109--IMP-SIZ
LEN IN PROCEDURE COMKEY
      8216**DCL      8219--IMP-SIZ  8223--IMP-SIZ  8234<<ASSIGN   8236<<ASSIGN   8238>>IF       8238>>IF
      8244>>IF       8244>>IF       8266<<ASSIGN   8268<<ASSIGN   8270>>IF       8270>>IF       8275>>IF
      8275>>IF       8303<>CALL     8305<>CALL     8307>>ASSIGN
LEN1 IN PROCEDURE COMKEY
      8217**DCL      8228<<ASSIGN   8233>>IF       8234>>ASSIGN   8260<>CALL     8263<<ASSIGN   8265>>IF
      8268>>ASSIGN   8292>>IF       8294>>IF       8304<<ASSIGN   8305<>CALL
LEN2 IN PROCEDURE COMKEY
      8218**DCL      8229<<ASSIGN   8230>>IF       8233>>IF       8236>>ASSIGN   8254<<ASSIGN   8255>>IF
      8263>>ASSIGN   8265>>IF       8266>>ASSIGN   8292>>IF       8294>>IF
LEVEL IN PROCEDURE ULSEARCH
     13477**DCL     13479<<ASSIGN  13480>>ASSIGN  13489>>DOUNTIL 13492<<ASSIGN  13492>>ASSIGN  13493>>ASSIGN
LKEY IN PROCEDURE DELKEY
      9040**DCL      9044<>CALL     9045>>IF       9055>>IF       9063>>IF       9080>>IF       9102>>IF
LKEYERR IN PROCEDURE DELKEY
      9102**LABEL    9066--CALLALT  9082--CALLALT
LKEYERR IN PROCEDURE DELRANGE
      9176**LABEL    9133--CALLALT
LOOP IN PROCEDURE CHKEY
      8176**LABEL    8186--EXIT
LOOP IN PROCEDURE COMPKEY
PL6.E3A0      #001=FMG$KEYED File=FMG$KEYED.:E05TSI                              TUE 07/29/97 16:43 Page:1208
      8432**LABEL    8436--EXIT
LOOP IN PROCEDURE COMPREC
      8483**LABEL    8490--EXIT
LOOP IN PROCEDURE DELRANGE
      9132**LABEL    9147--EXIT
LOOP IN PROCEDURE GETREC
      9881**LABEL    9884--EXIT     9919--EXIT     9923--EXIT
LOOP IN PROCEDURE GETSPACE
      9987**LABEL    9990--EXIT
LOOP IN PROCEDURE NXTREC
     11239**LABEL   11243--EXIT    11246--EXIT
LOOP IN PROCEDURE PREVREC
     11606**LABEL   11644--EXIT
LOOP IN PROCEDURE RDCONT
     11841**LABEL   11888--EXIT    11892--EXIT
LOOP IN PROCEDURE REMSEG
     12452**LABEL   12493--EXIT    12496--EXIT
LOOP IN PROCEDURE SRCHGRAN
     13253**LABEL   13265--EXIT    13276--EXIT
LOOP IN PROCEDURE WRCONT
     13643**LABEL   13646--EXIT    13654--EXIT
LOOP1 IN PROCEDURE NXTREC
     11220**LABEL   11224--EXIT    11227--EXIT
LOSTDATA IN PROCEDURE GETREC
      9919**LABEL    9911--GOTO
LOSTDATA IN PROCEDURE RDCONT
     11886**LABEL   11878--GOTO
LOW IN PROCEDURE BINSEARCH
      7301**DCL      7306<<ASSIGN   7308>>ASSIGN   7324<<ASSIGN   7330>>ASSIGN
LOW IN PROCEDURE SRCHGRAN
     13245**DCL     13249<<ASSIGN  13251>>ASSIGN  13264<<ASSIGN  13268<<ASSIGN  13274>>ASSIGN  13279>>ASSIGN
MAKE_SPACE
     10530**PROC    10016--CALL
MINSIZE IN PROCEDURE FINDIDO
      9297**DCL      9342<<ASSIGN   9343<<ASSIGN   9344>>IF
MIN_SIZE IN PROCEDURE CALCSEG
PL6.E3A0      #001=FMG$KEYED File=FMG$KEYED.:E05TSI                              TUE 07/29/97 16:43 Page:1209
      7872**DCL      7892<<ASSIGN   7894<<ASSIGN   7895>>IF
MISEG IN PROCEDURE REBLD_ALT
     12167**DCL     12179<<ASSIGN  12182--ASSIGN  12186<<ASSIGN  12227>>ASSIGN  12231>>ASSIGN
MKEYCNT IN PROCEDURE MOVETOB3
     10786**DCL     10800<<ASSIGN  10802>>IF      10826>>ASSIGN  10828>>ASSIGN  10839>>ASSIGN  10860>>ASSIGN
     10871>>ASSIGN
MOVCNT IN PROCEDURE KEYEXP
     10208**DCL     10228<<ASSIGN  10229>>ASSIGN  10232>>ASSIGN  10235>>ASSIGN  10236>>ASSIGN  10241>>ASSIGN
MOVCNT IN PROCEDURE KEYSQZ
     10360**DCL     10387<<ASSIGN  10388>>IF      10391>>ASSIGN  10393>>ASSIGN  10395>>ASSIGN
MOVECNT
      6934**DCL     10022<<ASSIGN  10024<<ASSIGN  10025>>IF      10028>>IF      10533<<ASSIGN  10544<<ASSIGN
     10546<<ASSIGN  10548>>IF      10549>>IF      10557>>IF      10571<<ASSIGN  10577>>IF      10581>>IF
     10802>>IF      10815<>CALL    10818>>ASSIGN  10819>>ASSIGN  10822>>ASSIGN  10823>>ASSIGN  10831>>ASSIGN
     10869>>ASSIGN  10870>>ASSIGN  10924<<ASSIGN  10930<<ASSIGN  10932<<ASSIGN  10933>>IF
MOVEN
     10620**PROC    11491--CALL
MOVERECN
     10724**PROC     9098--CALL    11484--CALL    12057--CALL
MOVETOB3
     10781**PROC    10032--CALL    10578--CALL    10583--CALL    10589--CALL    10948--CALL
MOVKEYS
     10900**PROC    14264--CALL
N IN PROCEDURE MOVEN
     10621**DCL     10628<<ASSIGN  10630>>IF      10633>>DOWHILE 10635<<ASSIGN  10635>>ASSIGN  10653<<ASSIGN
     10653>>ASSIGN  10659<<ASSIGN  10659>>ASSIGN  10663>>DOWHILE 10665<<ASSIGN  10665>>ASSIGN  10682>>IF
N IN PROCEDURE MOVERECN
     10725**DCL     10730<<ASSIGN  10732>>DOWHILE 10734<<ASSIGN  10734>>ASSIGN
N IN PROCEDURE MOVKEYS
     10903**DCL     10961<<ASSIGN  10962>>IF      10964>>ASSIGN
NEW IN PROCEDURE BLDALTSEG
      7387**LABEL    7382--CALLALT
NEW IN PROCEDURE REBLD_ALT
     12220**LABEL   12210--CALLALT
NEWKEY
     10988**PROC    14017--CALL
PL6.E3A0      #001=FMG$KEYED File=FMG$KEYED.:E05TSI                              TUE 07/29/97 16:43 Page:1210
NEWKEYF IN PROCEDURE WRNEWKEY
     13952**DCL     13962<<ASSIGN  13964<<ASSIGN  13975<<ASSIGN  13978<<ASSIGN  13982>>IF      13992<<ASSIGN
     14006>>IF
NEWSEG
     11062**PROC     7607--CALL    13659--CALL
NODUPS IN PROCEDURE ALTCHK
      7269**LABEL    7261--CALLALT
NOKEY IN PROCEDURE DELKEY
      9054**LABEL    9050--CALLALT
NOKEY IN PROCEDURE DELREC
      9220**LABEL    9214--CALLALT
NOKEY IN PROCEDURE FINDIDO
      9368**LABEL    9354--CALLALT  9355--CALLALT
NOKEY IN PROCEDURE PREC
     11516**LABEL   11454--GOTO    11467--GOTO    11470--CALLALT 11478--CALLALT
NOKEY IN PROCEDURE RDCONT
     11902**LABEL   11821--CALLALT 11826--GOTO
NOKEY IN PROCEDURE READKEY
     12078**LABEL   12045--CALLALT
NOKEY IN PROCEDURE WRITE
     13812**LABEL   13802--CALLALT
NOKEY1 IN PROCEDURE PREC
     11518**LABEL   11472--GOTO
NOKEY1 IN PROCEDURE READKEY
     12078**LABEL   12050--CALLALT 12063--GOTO
NOMORE IN PROCEDURE GETIDP
      9708**LABEL    9697--CALLALT
NOMORE IN PROCEDURE NXTKEY
     11126**DCL     11128<<ASSIGN  11132<<ASSIGN  11141>>IF      11154>>IF
NONE IN PROCEDURE DELKEY
      9095**LABEL    9090--CALLALT
NONE IN PROCEDURE FINDID
      9276**LABEL    9272--CALLALT
NONXTKEY IN PROCEDURE PREC
     11543**LABEL   11523--CALLALT
NONXTKEY IN PROCEDURE RDCONT
PL6.E3A0      #001=FMG$KEYED File=FMG$KEYED.:E05TSI                              TUE 07/29/97 16:43 Page:1211
     11911**LABEL   11907--CALLALT
NONXTKEY IN PROCEDURE READKEY
     12095**LABEL   12082--CALLALT
NOREC IN PROCEDURE MOVERECN
     10738**LABEL   10733--CALLALT
NOREC IN PROCEDURE READKEY
     12101**LABEL   12057--CALLALT
NORM_SEG IN PROCEDURE CALC_INSRT
      8001**LABEL    7996--GOTO
NOSQZ IN PROCEDURE KEYSQZ
     10422**LABEL   10385--CALLALT 10389--GOTO    10409--CALLALT
NOTFIND IN PROCEDURE WRKEY
     13886**LABEL   13856--CALLALT
NOTFIND1 IN PROCEDURE WRKEY
     13892**LABEL   13853--GOTO    13858--GOTO
NUMENTS IN PROCEDURE ALTCHK
      7199**DCL      7207<<ASSIGN   7209<<ASSIGN   7211>>DOINDEX  7228>>DOINDEX
NUMENTS IN PROCEDURE BLDALTSEG
      7358**DCL      7362<<ASSIGN   7364<<ASSIGN   7366>>DOINDEX
NUMENTS IN PROCEDURE DELETE
      8939**DCL      8978<<ASSIGN   8980<<ASSIGN   8982>>DOINDEX
NUMENTS IN PROCEDURE NEWKEY
     10990**DCL     10997<<ASSIGN  10998<<ASSIGN  11000>>DOINDEX
NUMENTS IN PROCEDURE NEWSEG
     11064**DCL     11073<<ASSIGN  11075<<ASSIGN  11077>>DOINDEX
NUMENTS IN PROCEDURE REBLD_ALT
     12169**DCL     12192<<ASSIGN  12194<<ASSIGN  12196>>DOINDEX
NUMENTS IN PROCEDURE UPALTSEGS
     13539**DCL     13543<<ASSIGN  13545<<ASSIGN  13547>>DOINDEX
NUMWRDS
        90**DCL     10907>>IF      10920>>IF      10933>>IF      10953<>CALL    10954>>ASSIGN  10955>>ASSIGN
     10956>>ASSIGN  10957>>ASSIGN  10958>>ASSIGN  10961>>ASSIGN
NXTEOF IN PROCEDURE REMSEG
     12542**LABEL   12533--CALLALT
NXTKEY
     11125**PROC     8001--CALL     8666--CALL    11212--CALL    11259--CALL    11280--CALL    12533--CALL
PL6.E3A0      #001=FMG$KEYED File=FMG$KEYED.:E05TSI                              TUE 07/29/97 16:43 Page:1212
     13077--CALL    14279--CALL    14301--CALL
NXTKEYNM IN PROCEDURE NXTKEY
     11131**ENTRY   10254--CALL    10402--CALL    14319--CALL
NXTR IN PROCEDURE NXTREC
     11195**LABEL   11190--GOTO
NXTREC
     11186**PROC     9134--CALL     9532--CALL    11285--CALL    12132--CALL    14339--CALL
NXTRECND
     11275**PROC     8826--CALL     9231--CALL    10632--CALL    10636--CALL    10698--CALL    11470--CALL
     11523--CALL    11907--CALL    12082--CALL    12126--CALL    14062--CALL
NXTRECNM IN PROCEDURE NXTREC
     11192**ENTRY    7985--CALL     8711--CALL     8735--CALL     9272--CALL     9697--CALL    10733--CALL
     12130--CALL
NXTSEG
     11304**PROC     7401--CALL     7659--CALL     7983--CALL     9914--CALL    10268--CALL    10409--CALL
     11221--CALL    11240--CALL    11883--CALL    12183--CALL    12188--CALL    12230--CALL    12466--CALL
     12482--CALL    13561--CALL    13650--CALL    13712--CALL    14353--CALL
ODD IN PROCEDURE BUILD_NIBFIELD
      7802**DCL      7814<<ASSIGN   7815>>IF       7816<<ASSIGN   7819>>ASSIGN   7820>>IF
OLD_MISEG
      6923**DCL      7590<<ASSIGN   7593>>IF       7599--ASSIGN   7622<<ASSIGN   7634>>IF       7637--ASSIGN
     13560>>DOWHILE 13671<<ASSIGN  13673--ASSIGN
ONE_GRAN IN PROCEDURE KEYSQZ
     10415**LABEL   10380--GOTO
ORG
      6909**DCL      7089>>IF       7206>>IF       7212>>IF       7229>>IF       7242>>IF       7251>>IF
      7361>>IF       7367>>IF       7454>>IF       7485>>IF       7891>>IF       8056>>IF       8226>>IF
      8226>>IF       8252>>IF       8899>>IF       8977>>IF       8983>>IF       9045>>IF       9215>>IF
      9339>>IF       9514>>IF       9547>>IF       9565>>IF       9660>>IF       9752>>IF       9802>>IF
      9805>>IF       9807>>IF       9811>>DOCASE   9979<<ASSIGN   9981<<ASSIGN  10251<<ASSIGN  10294>>IF
     10305>>IF      10441<<ASSIGN  10478>>IF      10549>>IF      10996>>IF      11002>>IF      11072>>IF
     11078>>IF      11441>>IF      11441>>IF      11461>>IF      11613>>IF      11698>>IF      11732>>IF
     11752>>IF      11818>>IF      11980>>IF      11999>>IF      11999>>IF      12041>>IF      12191>>IF
     12197>>IF      12460>>IF      12503>>IF      12597>>IF      12674>>IF      12698>>IF      12715>>IF
     12744>>IF      12770<<ASSIGN  13191>>IF      13196>>IF      13222>>IF      13285>>IF      13345>>IF
     13354>>IF      13379>>IF      13509>>IF      13542>>IF      13548>>IF      13771>>IF      13776>>IF
PL6.E3A0      #001=FMG$KEYED File=FMG$KEYED.:E05TSI                              TUE 07/29/97 16:43 Page:1213
     13795>>IF      13984>>IF      13989>>IF      14111>>IF      14300<<ASSIGN  14338<<ASSIGN
P$ IN PROCEDURE MOVKEYS
     10904**DCL     10952<<ASSIGN  10953<>CALL
P1$ IN PROCEDURE KEYEXP
     10209**DCL     10229<<ASSIGN  10233>>ASSIGN  10248>>ASSIGN
P1$ IN PROCEDURE KEYSQZ
     10362**DCL     10391<<ASSIGN  10394>>ASSIGN  10397>>ASSIGN
P1$ IN PROCEDURE MOVETOB3
     10787**DCL     10819<<ASSIGN  10820>>ASSIGN
P2$ IN PROCEDURE KEYEXP
     10210**DCL     10230<<ASSIGN  10233>>ASSIGN
P2$ IN PROCEDURE KEYSQZ
     10363**DCL     10392<<ASSIGN  10394>>ASSIGN
P3$ IN PROCEDURE MOVETOB3
     10785**DCL     10799<<ASSIGN  10809<<ASSIGN  10815<>CALL    10820>>ASSIGN
PFIL
     11357**PROC     6988--CALL
PKEY$
        92**DCL        87--PROC    12639--IF      12640<<ASSIGN  14141--ENTRY   14186--ENTRY   14211--ENTRY
     14276--ENTRY   14296--ENTRY   14316--ENTRY
PKEYIN$
        93**DCL        87--PROC    14141--ENTRY   14144>>ASSIGN  14211--ENTRY   14214>>ASSIGN
PMMEINT IN PROCEDURE PREC
     11523**LABEL   11494--GOTO
PREC
     11413**PROC     6997--CALL
PRECN IN PROCEDURE PREC
     11491**LABEL   11521--GOTO
PREVREC
     11582**PROC     8600--CALL     8606--CALL    11678--CALL    14009--CALL
PREVRECND
     11668**PROC    10664--CALL
PSEG$
        88**DCL        87--PROC       89--REDEF      90--REDEF    6979--ENTRY   12638<<ASSIGN  14141--ENTRY
     14163--ENTRY   14168<<ASSIGN  14170<<ASSIGN  14186--ENTRY   14211--ENTRY   14248--ENTRY   14261--ENTRY
     14276--ENTRY   14296--ENTRY   14316--ENTRY   14350--ENTRY   14354<<ASSIGN  14356<<ASSIGN
PL6.E3A0      #001=FMG$KEYED File=FMG$KEYED.:E05TSI                              TUE 07/29/97 16:43 Page:1214
PSEGCNT
        91**DCL        87--PROC    14141--ENTRY   14147>>ASSIGN  14163--ENTRY   14166>>ASSIGN  14186--ENTRY
     14191<<ASSIGN  14194<<ASSIGN  14196<<ASSIGN  14211--ENTRY   14276--ENTRY   14296--ENTRY   14316--ENTRY
PTOBOF
     11693**PROC     6994--CALL     8656--CALL    11360--CALL    11423--CALL
PTOEOF
     11726**PROC     6991--CALL     8085--CALL    11362--CALL    11424--CALL    13068--CALL
PTR$ IN PROCEDURE GETIDP
      9652**DCL      9695<<ASSIGN   9700>>ASSIGN   9701>>ASSIGN   9702<<ASSIGN   9702>>ASSIGN
RDCONT
     11790**PROC    11976--CALL
RDGRAN
     11927**PROC     7690--CALL     9586--CALL
READ
     11957**PROC     6985--CALL
READKEY
     12038**PROC    11994--CALL
READNOKEY
     12120**PROC    12008--CALL
REBLD_ALT
     12166**PROC     7280--CALL    12620--CALL
REC$
      6939**DCL      7716>>ASSIGN   7758<<ASSIGN   7766<<ASSIGN   7813>>ASSIGN
RECFIELD.DECFIELD.LEN
      6466**DCL     12957>>ASSIGN  12987>>ASSIGN  12991>>ASSIGN
RECFIELD.FIELD
      6466**DCL      6466--REDEF
RECFIELD.FIELD.LEN
      6466**DCL     12960>>ASSIGN  12963>>ASSIGN  12994>>ASSIGN  12997>>ASSIGN
RECFIELD.FIELD.TYPE
      6466**DCL      7708>>DOCASE   8340>>DOCASE  12951>>DOCASE  12983>>DOCASE
RECFIELD$
      6942**DCL      6459--IMP-PTR  7708>>DOCASE   8340>>DOCASE  10479<<ASSIGN  10483<<ASSIGN  12951>>DOCASE
     12957>>ASSIGN  12960>>ASSIGN  12963>>ASSIGN  12983>>DOCASE  12987>>ASSIGN  12991>>ASSIGN  12994>>ASSIGN
     12997>>ASSIGN
RECNUM
PL6.E3A0      #001=FMG$KEYED File=FMG$KEYED.:E05TSI                              TUE 07/29/97 16:43 Page:1215
      6917**DCL      9097<<ASSIGN  10730>>ASSIGN  11483<<ASSIGN  12056<<ASSIGN
REMKEY
     12264**PROC    12516--CALL    12527--CALL    14368--CALL
REMOVESEG
     12387**PROC    12453--CALL    12470--CALL
REMSEG
     12439**PROC     8714--CALL
REPOS IN PROCEDURE FINDIDO
      9296**DCL      9299<<ASSIGN   9309<<ASSIGN   9316>>IF
RERR IN PROCEDURE KEYEXP
     10278**LABEL   10238--CALLALT
RESTOREPOS
     12560**PROC     7284--CALL     7395--CALL     7411--CALL     8954--CALL     9003--CALL    11028--CALL
     11103--CALL    11425--CALL    11836--CALL    12175--CALL    12215--CALL    12239--CALL    12623--CALL
     13573--CALL    13628--CALL
RESULT
      6915**DCL      7234<<ASSIGN   7236<<ASSIGN   7240>>IF       7319>>DOCASE   8096<<ASSIGN   8116<<ASSIGN
      8127>>IF       8127>>IF       8137>>IF       8137>>IF       8140<<ASSIGN   8171<<ASSIGN   8173<<ASSIGN
      8185>>IF       8225<<ASSIGN   8240<<ASSIGN   8246<<ASSIGN   8272<<ASSIGN   8277<<ASSIGN   8295<<ASSIGN
      8297<<ASSIGN   8342<>CALL     8345<>CALL     8348<>CALL     8351<>CALL     8355<>CALL     8358<>CALL
      8361<>CALL     8366<<ASSIGN   8368<<ASSIGN   8373<>CALL     8378<>CALL     8384<>CALL     8387<>CALL
      8418<<ASSIGN   8425<<ASSIGN   8427<<ASSIGN   8435>>IF       8444>>IF       8445<<ASSIGN   8476<<ASSIGN
      8478<<ASSIGN   8489>>IF       8520<<ASSIGN   8522<<ASSIGN   9068>>IF       9084>>IF       9142<<ASSIGN
      9144>>IF       9419<<ASSIGN   9429>>IF       9433>>IF       9456>>ASSIGN   9457>>DOWHILE  9459>>DOCASE
      9469<<ASSIGN   9500<<ASSIGN   9503>>ASSIGN  13262>>DOCASE  13323<<ASSIGN  13324>>DOUNTIL 13325>>ASSIGN
     13331>>DOCASE  13334<<ASSIGN  13349<<ASSIGN  13360<<ASSIGN  13367<<ASSIGN  13385<<ASSIGN  13848>>IF
REUSE_ALT
     12594**PROC    14014--CALL
RPOS IN PROCEDURE SHAREPOS
     13021**DCL     13057<<ASSIGN  13081>>ASSIGN
S$CU$
      6617**DCL      8669>>IF       8736>>IF       9157>>IF      10638>>IF      10668>>IF
SAVE.CRECX IN PROCEDURE GETIDP
      9655**DCL      9692<<ASSIGN   9714>>ASSIGN
SAVE.DA IN PROCEDURE GETIDP
      9656**DCL      9691<<ASSIGN   9709>>IF       9712>>ASSIGN
PL6.E3A0      #001=FMG$KEYED File=FMG$KEYED.:E05TSI                              TUE 07/29/97 16:43 Page:1216
SAVE.RPOS IN PROCEDURE GETIDP
      9657**DCL      9694<<ASSIGN   9718>>ASSIGN
SAVE.SEGX IN PROCEDURE GETIDP
      9658**DCL      9693<<ASSIGN   9715>>ASSIGN
SAVE_ERR IN PROCEDURE PREC
     11416**DCL     11531<<ASSIGN  11534>>ASSIGN
SAVE_ERROR IN PROCEDURE BLDREC
      7577**DCL      7584<<ASSIGN   7653<<ASSIGN   7663>>IF       7665>>ASSIGN
SAVE_INDEX#
      6901**DCL      7011>>IF       7013>>ASSIGN   8999>>IF       9001>>ASSIGN  10487<<ASSIGN
SAVE_MISEG IN PROCEDURE REMSEG
     12441**DCL     12469<<ASSIGN  12472>>ASSIGN
SEG$
      6903**DCL      6425--IMP-PTR  7059>>ASSIGN   7064>>ASSIGN   7065>>ASSIGN   7066>>ASSIGN   7070>>ASSIGN
      7154<<ASSIGN   7154>>ASSIGN   7162>>IF       7167>>IF       7218>>ASSIGN   7220>>ASSIGN   7226>>ASSIGN
      7396<<ASSIGN   7400>>ASSIGN   7412<<ASSIGN   7582>>ASSIGN   7583>>ASSIGN   7586>>DOUNTIL  7590>>ASSIGN
      7591>>ASSIGN   7593>>IF       7595>>ASSIGN   7606>>IF       7609>>IF       7611>>ASSIGN   7616>>ASSIGN
      7619>>ASSIGN   7622>>ASSIGN   7626>>ASSIGN   7631>>ASSIGN   7634>>IF       7657>>ASSIGN   7982>>DOWHILE
      8029<<ASSIGN   8587<<ASSIGN   8589>>IF       8626>>ASSIGN   8663<<ASSIGN   8710>>DOWHILE  8944>>ASSIGN
      8949>>ASSIGN   8968>>ASSIGN   8970>>ASSIGN   8975>>ASSIGN   9270>>DOWHILE  9270>>DOWHILE  9306<<ASSIGN
      9307>>IF       9307>>IF       9561<<ASSIGN   9678>>IF       9683>>ASSIGN   9684>>ASSIGN   9700>>ASSIGN
      9701>>ASSIGN   9760>>IF       9768>>ASSIGN   9769>>ASSIGN   9882>>ASSIGN   9883>>IF       9902>>ASSIGN
      9905>>ASSIGN   9907>>ASSIGN   9916>>IF       9996<<ASSIGN  10042<<ASSIGN  10255>>DOWHILE 10256>>IF
     10258>>IF      10258>>IF      10265>>ASSIGN  10266>>ASSIGN  10266>>ASSIGN  10295>>IF      10299>>ASSIGN
     10304>>ASSIGN  10403>>DOWHILE 10404>>IF      10406>>ASSIGN  10407>>ASSIGN  10407>>ASSIGN  10444<<ASSIGN
     10571>>ASSIGN  10685<<ASSIGN  10702>>IF      11029<<ASSIGN  11104<<ASSIGN  11222>>IF      11223>>IF
     11235<<ASSIGN  11241>>IF      11242>>IF      11249>>IF      11332<<ASSIGN  11335<<ASSIGN  11344<<ASSIGN
     11502>>IF      11607<<ASSIGN  11622>>DOWHILE 11626<<ASSIGN  11649<<ASSIGN  11655<<ASSIGN  11842>>ASSIGN
     11843>>IF      11846>>IF      11861>>ASSIGN  11866>>ASSIGN  11882>>ASSIGN  11885>>IF      12176<<ASSIGN
     12179>>ASSIGN  12184>>IF      12186>>ASSIGN  12227>>ASSIGN  12231>>ASSIGN  12240<<ASSIGN  12392>>ASSIGN
     12396<>CALL    12445>>ASSIGN  12448>>ASSIGN  12450>>ASSIGN  12467>>IF      12469>>ASSIGN  12472>>ASSIGN
     12480>>IF      12483>>IF      12485>>ASSIGN  12488>>ASSIGN  12490>>ASSIGN  12492>>IF      12495>>IF
     12499>>IF      12518<<ASSIGN  12529<<ASSIGN  12534<<ASSIGN  12544<<ASSIGN  12574<<ASSIGN  12638>>ASSIGN
     12654>>IF      12656>>ASSIGN  12657>>ASSIGN  12745<<ASSIGN  12747<<ASSIGN  12748>>ASSIGN  13035<<ASSIGN
     13075>>DOWHILE 13075>>DOWHILE 13136>>ASSIGN  13212<<ASSIGN  13215<<ASSIGN  13217>>ASSIGN  13560>>DOWHILE
     13564>>ASSIGN  13574<<ASSIGN  13632>>ASSIGN  13633>>ASSIGN  13644>>IF      13645>>IF      13649>>ASSIGN
PL6.E3A0      #001=FMG$KEYED File=FMG$KEYED.:E05TSI                              TUE 07/29/97 16:43 Page:1217
     13657>>DOUNTIL 13658>>IF      13661>>ASSIGN  13662>>IF      13671>>ASSIGN  13674>>ASSIGN  13678>>IF
     13679>>IF      13679>>IF      13681>>ASSIGN  13684>>ASSIGN  13684>>ASSIGN  13689>>ASSIGN  13696>>ASSIGN
     13699>>ASSIGN  13711>>ASSIGN  14168>>ASSIGN  14170>>ASSIGN  14354>>ASSIGN  14356>>ASSIGN
SEGCNT
      6919**DCL      7093>>ASSIGN   7110>>ASSIGN   7162>>IF       7903<<ASSIGN   7906<<ASSIGN   7908<<ASSIGN
      7908>>ASSIGN   9973<<ASSIGN   9974<<ASSIGN   9974>>ASSIGN   9975>>ASSIGN  12180<<ASSIGN  12187<<ASSIGN
     12228>>IF      12414<<ASSIGN  12414>>ASSIGN  12445<<ASSIGN  12448<<ASSIGN  12450<<ASSIGN  12452>>DOWHILE
     12454>>IF      12476<<ASSIGN  12480>>IF      12485<<ASSIGN  12488<<ASSIGN  12490<<ASSIGN  12499>>IF
     14147<<ASSIGN  14166<<ASSIGN
SEGX
      6902**DCL      7147>>ASSIGN   7155<<ASSIGN   7155>>ASSIGN   7156>>ASSIGN   7396>>ASSIGN   7412>>ASSIGN
      7987>>IF       8026<<ASSIGN   8027<<ASSIGN   8028>>ASSIGN   8029>>ASSIGN   8587>>ASSIGN   8589>>IF
      8592>>IF       8661<<ASSIGN   9304>>IF       9306>>ASSIGN   9531<<ASSIGN   9562<<ASSIGN   9693>>ASSIGN
      9715<<ASSIGN   9717>>ASSIGN   9915>>IF      11029>>ASSIGN  11104>>ASSIGN  11196>>IF      11205<<ASSIGN
     11219<<ASSIGN  11234<<ASSIGN  11235>>ASSIGN  11253<<ASSIGN  11310<<ASSIGN  11310>>ASSIGN  11311>>DOWHILE
     11315<<ASSIGN  11329>>IF      11331<<ASSIGN  11335>>ASSIGN  11337>>ASSIGN  11342<<ASSIGN  11594>>IF
     11598<<ASSIGN  11600<<ASSIGN  11600>>ASSIGN  11602<<ASSIGN  11605<<ASSIGN  11605>>ASSIGN  11607>>ASSIGN
     11622>>DOWHILE 11622>>DOWHILE 11625<<ASSIGN  11625>>ASSIGN  11626>>ASSIGN  11629>>IF      11632<<ASSIGN
     11637>>IF      11641<<ASSIGN  11648>>ASSIGN  11649>>ASSIGN  11653<<ASSIGN  11884>>IF      12176>>ASSIGN
     12178>>DOUNTIL 12240>>ASSIGN  12519<<ASSIGN  12528<<ASSIGN  12535<<ASSIGN  12545<<ASSIGN  12572<<ASSIGN
     12748<<ASSIGN  12749>>ASSIGN  12771<<ASSIGN  12844<<ASSIGN  12918<<ASSIGN  13033<<ASSIGN  13217<<ASSIGN
     13218>>ASSIGN  13574>>ASSIGN  14191>>ASSIGN  14194>>ASSIGN  14196>>ASSIGN
SETARG
     12636**PROC    14149--CALL    14151--CALL    14197--CALL    14199--CALL    14218--CALL    14220--CALL
     14280--CALL    14282--CALL    14302--CALL    14304--CALL    14320--CALL    14322--CALL
SETID
     12652**PROC     7656--CALL     8799--CALL    11512--CALL    11538--CALL    11823--CALL    12072--CALL
     12093--CALL    12141--CALL
SETINDEX
     12672**PROC     7014--CALL     7258--CALL     7283--CALL     7376--CALL     7410--CALL     8650--CALL
      8705--CALL     8815--CALL     8952--CALL     9002--CALL    10465--CALL    11009--CALL    11027--CALL
     11087--CALL    11102--CALL    12174--CALL    12205--CALL    12238--CALL    12622--CALL    13557--CALL
     13572--CALL
SETKEY
     12695**PROC     7272--CALL     9048--CALL     9066--CALL     9082--CALL     9133--CALL    11463--CALL
     11817--CALL    12040--CALL    13842--CALL
PL6.E3A0      #001=FMG$KEYED File=FMG$KEYED.:E05TSI                              TUE 07/29/97 16:43 Page:1218
SETPTRS
     12737**PROC     8561--CALL     9512--CALL     9538--CALL    11165--CALL    13072--CALL
SETUP
     12761**PROC    10250--CALL    10368--CALL    14143--CALL    14165--CALL    14188--CALL    14213--CALL
     14263--CALL    14278--CALL    14298--CALL    14318--CALL    14336--CALL    14352--CALL    14367--CALL
SETUP_ALTKEY
     12794**PROC    12675--CALL
SETUP_IRKEY
     12877**PROC    12677--CALL
SET_LEN
     12949**PROC     7771--CALL     8339--CALL
SET_SIZE
     12979**PROC     8438--CALL     8491--CALL
SHAREPOS
     13020**PROC     9224--CALL     9303--CALL     9313--CALL    10626--CALL    12123--CALL    14055--CALL
SIZE IN PROCEDURE ALLOCATE
      7131**DCL      7151<<ASSIGN   7153>>ASSIGN   7154>>ASSIGN   7155>>ASSIGN
SIZE IN PROCEDURE ALTCHK
      7203**DCL      7204--IMP-SIZ  7231<<ASSIGN   7232>>IF       7232>>IF
SIZE IN PROCEDURE BUILD_IRKEY
      7750**DCL      7753--IMP-SIZ  7756<<ASSIGN   7757>>ASSIGN   7763<<ASSIGN   7765>>ASSIGN
SIZE IN PROCEDURE CALC_SPACE
      8050**DCL      8052<<ASSIGN   8063<<ASSIGN   8063>>ASSIGN   8066>>IF
SIZE IN PROCEDURE COMPKEY
      8414**DCL      8438<>CALL     8439>>ASSIGN   8440>>ASSIGN   8441>>ASSIGN
SIZE IN PROCEDURE COMPREC
      8467**DCL      8491<>CALL     8492>>ASSIGN
SIZE IN PROCEDURE GETKEY
      9794**DCL      9795--IMP-SIZ  9798--IMP-SIZ  9806<<ASSIGN   9808<<ASSIGN   9810<<ASSIGN   9813>>ASSIGN
      9813>>ASSIGN   9815>>ASSIGN   9817>>ASSIGN   9818>>ASSIGN   9818>>ASSIGN
SIZE IN PROCEDURE KEYEXP
     10212**DCL     10213--IMP-SIZ 10232<<ASSIGN  10233>>ASSIGN  10233>>ASSIGN
SIZE IN PROCEDURE KEYSQZ
     10364**DCL     10365--IMP-SIZ 10393<<ASSIGN  10394>>ASSIGN  10394>>ASSIGN
SIZE IN PROCEDURE MOVETOB3
     10788**DCL     10792--IMP-SIZ 10818<<ASSIGN  10820>>ASSIGN  10820>>ASSIGN  10847<<ASSIGN  10850<<ASSIGN
PL6.E3A0      #001=FMG$KEYED File=FMG$KEYED.:E05TSI                              TUE 07/29/97 16:43 Page:1219
     10850>>ASSIGN  10852>>IF      10854>>ASSIGN
SIZE IN PROCEDURE RDCONT
     11793**DCL     11796--IMP-SIZ 11868<<ASSIGN  11870<<ASSIGN  11871>>ASSIGN  11871>>ASSIGN  11872>>ASSIGN
     11874>>ASSIGN  11875>>ASSIGN  11876>>ASSIGN  11877>>IF
SIZE IN PROCEDURE REMKEY
     12265**DCL     12289<<ASSIGN  12291<>CALL
SIZE IN PROCEDURE REMOVESEG
     12388**DCL     12392<<ASSIGN  12394>>IF      12396<>CALL
SIZE IN PROCEDURE SET_SIZE
     12981**DCL     12979--PROC    12987<<ASSIGN  12991<<ASSIGN  12994<<ASSIGN  12997<<ASSIGN
SIZE IN PROCEDURE SLIDE
     13122**DCL     13125--IMP-SIZ 13184<<ASSIGN  13185>>ASSIGN
SIZE IN PROCEDURE WRCONT
     13618**DCL     13619--IMP-SIZ 13692<<ASSIGN  13694<<ASSIGN  13695>>CALLBLT 13695>>CALLBLT 13696>>ASSIGN
     13706>>ASSIGN  13707>>ASSIGN  13708>>ASSIGN
SIZE IN PROCEDURE ZAPKEY
     14104**DCL     14106--IMP-SIZ 14115<<ASSIGN  14116>>ASSIGN
SLIDE
     13117**PROC    10047--CALL
SPARE
      6932**DCL      8053<<ASSIGN   8057<<ASSIGN   8060<<ASSIGN   8062<<ASSIGN   8063>>ASSIGN  10011<<ASSIGN
     10025>>IF
SRCH IN PROCEDURE FINDKEY
      9457**LABEL    9461--EXIT     9470--EXIT
SRCHGRAN
     13243**PROC    13333--CALL    13366--CALL
SRCHLVL
     13319**PROC    13490--CALL
START$
      6943**DCL      6503--IMP-PTR  7716>>ASSIGN   7813>>ASSIGN   7814>>ASSIGN   8167>>ASSIGN   8168>>ASSIGN
      8180>>ASSIGN   8181>>ASSIGN   8473>>ASSIGN   8487>>ASSIGN  10480<<ASSIGN  10484<<ASSIGN
STEMP_FIELD IN PROCEDURE COMPSBIN
      8509**DCL      8510--REDEF    8517>>IF       8519>>IF
STEMP_FIELDIN IN PROCEDURE COMPSBIN
      8511**DCL      8512--REDEF    8517>>IF       8519>>IF
SWITCH1_3
PL6.E3A0      #001=FMG$KEYED File=FMG$KEYED.:E05TSI                              TUE 07/29/97 16:43 Page:1220
     13405**PROC    10033--CALL    10040--CALL    10584--CALL
T IN PROCEDURE WRCONT
     13616**DCL     13681<<ASSIGN  13682>>IF      13683<<ASSIGN  13684>>ASSIGN  13685>>ASSIGN  13686>>ASSIGN
T$ IN PROCEDURE DELEND
      8796**DCL      8881<<ASSIGN   8882<>CALL     8883>>ASSIGN   8884>>ASSIGN   8885>>ASSIGN   8886<<ASSIGN
      8888<>CALL     8889>>ASSIGN   8890>>ASSIGN   8891>>ASSIGN
TBUF$ IN PROCEDURE GETSPACE
      9969**DCL     10002<<ASSIGN  10006>>ASSIGN
TCRECX IN PROCEDURE BINSEARCH
      7303**DCL      7308<<ASSIGN   7310>>DOUNTIL  7311>>ASSIGN   7330<<ASSIGN
TCRECX IN PROCEDURE MAKE_SPACE
     10531**DCL     10535<<ASSIGN  10537<<ASSIGN  10541>>DOWHILE 10576>>ASSIGN
TCRECX IN PROCEDURE WRNEWKEY
     13950**DCL     13969<<ASSIGN  13970>>IF      13971>>ASSIGN  13973>>ASSIGN  13980<<ASSIGN  14008>>IF
TEMP IN PROCEDURE BUILD_NIBFIELD
      7804**DCL      7821<<ASSIGN   7823<<ASSIGN   7827>>ASSIGN   7829>>ASSIGN
TEMP IN PROCEDURE SRCHGRAN
     13246**DCL     13251<<ASSIGN  13254>>ASSIGN  13274<<ASSIGN  13275>>IF
TEMP_CHAR
      6947**DCL     12701<<ASSIGN  12702>>ASSIGN  13803<<ASSIGN  13804>>IF      14145<<ASSIGN  14146>>ASSIGN
     14215<<ASSIGN  14216>>ASSIGN
TOT IN PROCEDURE WRCONT
     13613**DCL     13642<<ASSIGN  13645>>IF      13649<<ASSIGN  13649>>ASSIGN  13677>>ASSIGN  13711<<ASSIGN
     13711>>ASSIGN
TOTSIZE
      6926**DCL      7093<<ASSIGN   7110<<ASSIGN   8066>>IF       9971>>IF       9975<<ASSIGN  10025>>IF
     10028>>IF      10548>>IF      10549>>IF      10553>>IF      10577>>IF      10581>>IF      13161<>CALL
     13174>>ASSIGN  13184>>ASSIGN  13219>>ASSIGN  13220>>ASSIGN
TRY_FORWARD IN PROCEDURE FINDKEY
      9485**LABEL    9495--CALLALT
TSIZE IN PROCEDURE CALC_INSRT
      7956**DCL      7960<<ASSIGN   7963<<ASSIGN   7965<<ASSIGN   7969>>IF
TSIZE IN PROCEDURE MOVETOB3
     10791**DCL     10813<<ASSIGN  10814>>IF      10815<>CALL    10831<<ASSIGN  10832>>IF      10834>>ASSIGN
     10841<<ASSIGN  10844<<ASSIGN  10844>>ASSIGN  10847>>ASSIGN
TSIZE IN PROCEDURE REMKEY
PL6.E3A0      #001=FMG$KEYED File=FMG$KEYED.:E05TSI                              TUE 07/29/97 16:43 Page:1221
     12267**DCL     12299<<ASSIGN  12300>>IF      12309>>ASSIGN
TSIZE IN PROCEDURE REMOVESEG
     12389**DCL     12399<<ASSIGN  12400>>IF      12402>>ASSIGN
TSIZE IN PROCEDURE SLIDE
     13119**DCL     13148<<ASSIGN  13150>>IF      13159>>IF      13161<>CALL    13174<<ASSIGN  13175>>IF
     13177>>ASSIGN  13202<<ASSIGN  13203>>ASSIGN  13204>>IF
TYPE IN PROCEDURE BUILD_IRKEY
      7749**DCL      7748--PROC     7755>>IF
UKEY.SIZE IN PROCEDURE ZAPKEY
     14108**DCL     14112<<ASSIGN
ULBLINK
     13434**PROC    13338--CALL
ULFLINK
     13450**PROC    13372--CALL
ULSEARCH
     13476**PROC     9437--CALL
UNIQUE IN PROCEDURE ALTCHK
      7202**DCL      7243<<ASSIGN   7245<<ASSIGN   7247>>IF       7255>>IF
UNIQUE IN PROCEDURE BLDALTSEG
      7359**DCL      7368<<ASSIGN   7370<<ASSIGN   7372>>IF
UNIQUE IN PROCEDURE DELETE
      8940**DCL      8984<<ASSIGN   8986<<ASSIGN   8988>>IF
UNIQUE IN PROCEDURE NEWKEY
     10991**DCL     11003<<ASSIGN  11004<<ASSIGN  11006>>IF
UNIQUE IN PROCEDURE NEWSEG
     11065**DCL     11079<<ASSIGN  11081<<ASSIGN  11083>>IF
UNIQUE IN PROCEDURE UPALTSEGS
     13540**DCL     13549<<ASSIGN  13551<<ASSIGN  13553>>IF
UPALTSEGS
     13537**PROC     7601--CALL     7638--CALL    13700--CALL
USERKEY_SIZE
      6948**DCL      8419>>ASSIGN   8444>>IF      12720<>CALL
WRCONT
     13612**PROC    13756--CALL
WRITE
     13747**PROC     7003--CALL
PL6.E3A0      #001=FMG$KEYED File=FMG$KEYED.:E05TSI                              TUE 07/29/97 16:43 Page:1222
WRKEY
     13840**PROC    13798--CALL    13809--CALL
WRNEWKEY
     13949**PROC    13922--CALL
WRNOKEY
     14041**PROC    13812--CALL
ZAP IN PROCEDURE BUILD_IRKEY
      7752**DCL      7757<<ASSIGN   7765<<ASSIGN
ZAP IN PROCEDURE SLIDE
     13124**DCL     13185<<ASSIGN
ZAP IN PROCEDURE ZAPKEY
     14105**DCL     14116<<ASSIGN
ZAPID
     14084**PROC    11552--CALL    12104--CALL
ZAPKEY
     14103**PROC    10704--CALL    11506--CALL    11545--CALL    11550--CALL    11916--CALL    12102--CALL
PL6.E3A0      #001=FMG$KEYED File=FMG$KEYED.:E05TSI                              TUE 07/29/97 16:43 Page:1223
              *** CROSS REFERENCE LISTING ***
    **     DENOTES     IDENTIFIER DEFINITION
    <<                 IDENTIFIER'S VALUE SET
    >>                 IDENTIFIER'S VALUE USED
    <>                 IDENTIFIER SET AND/OR USED
    --                 IDENTIFIER REFERENCED
PL6.E3A0      #001=FMG$KEYED File=FMG$KEYED.:E05TSI                              TUE 07/29/97 16:43 Page:1224
              MINI UREF LISTING

B$DOCONT    2576**DCL
B$USRT$    6618**DCL
BUFNUM IN PROCEDURE BLDREC   7576**DCL
DONE IN PROCEDURE PREVREC  11648**LABEL
ERR IN PROCEDURE MOVERECN  10744**LABEL
FIELD    6959**DCL
FM$SET$    1148**DCL
FMC$CACHEPGCNT     758**DCL
FMC$CLR1    6864**DCL-ENT
FMC_CACHE$     757**DCL
FMC_CACHEPGCNT     758**DCL
FMC_CACHEPGCNT$R     758**DCL
FMC_CACHESIZ     757**DCL
FMC_CACHESIZN     757**DCL
FMC_LOCK     759**DCL
FMC_MASK     759**DCL
FMC_MASKTBL     759**DCL
FMC_STATS$     757**DCL
FMC_TYPTBL$     757**DCL
FMG$ADDKEY   14141**ENTRY
FMG$ADDSEG   14163**ENTRY
FMG$CURKEY   14186**ENTRY
FMG$FINDKEY   14211**ENTRY
FMG$KEYED      87**PROC
FMG$KEYEXP   14233**ENTRY
FMG$KEYSQZ   14248**ENTRY
FMG$KPMME    6979**ENTRY
FMG$MOVKEYS   14261**ENTRY
FMG$NXTKEY   14276**ENTRY
FMG$NXTKEYNM   14316**ENTRY
FMG$NXTKEY_ORG   14296**ENTRY
FMG$NXTREC   14334**ENTRY
PL6.E3A0      #001=FMG$KEYED File=FMG$KEYED.:E05TSI                              TUE 07/29/97 16:43 Page:1225
FMG$NXTSEG   14350**ENTRY
FMG$REMKEY   14365**ENTRY
FM_CFUWAIT    1147**DCL
FM_CFUWGRB    1147**DCL
FM_GCT    1148**DCL
FM_GIP    1148**DCL
FM_GPSDA    1145**DCL
FM_HASH    1146**DCL
FM_MADSDA    1145**DCL
FM_PADSDA    1145**DCL
FM_SRMAX    1144**DCL
FM_SYSACCTX    1148**DCL
FM_SYSSETX    1148**DCL
FM_TRUNC    1146**DCL
FM_WSQ    1146**DCL
F_CWLK    1147**DCL
F_CWUSER    1147**DCL
F_DCBLOCK    1146**DCL
GSIZ IN PROCEDURE BLDREC   7575**DCL
I IN PROCEDURE GETREC   9877**DCL
I IN PROCEDURE WRNEWKEY  13951**DCL
KLB IN PROCEDURE PREC  11414**DCL
LCDA IN PROCEDURE RDCONT  11794**DCL
TEMP_SIZE IN PROCEDURE COMPFIELD   8333**DCL
ZAP IN PROCEDURE WRITE  13749**DCL
