VERSION E05

 16:45 07/29/97  FILE=FMG$KEYEDG.:E05TSI                                                                 1    BMAP - B00
                                         1  *M* FMG$KEYEDG - GMAP key comparison routines for IREL files
                                         2  *T***********************************************************
                                         3  *T*                                                         *
                                         4  *T* Copyright (c) Bull HN Information Systems Inc., 1997    *
                                         5  *T*                                                         *
                                         6  *T***********************************************************
                                         7         OUNAME      'FMG$COMPUDTS'
                                         8         ENTDEF      FMG$COMPUDTS
                                         9         ENTDEF      FMG$COMPUDLS
                                        10         ENTDEF      FMG$COMPPDLS
                                        11         ENTDEF      FMG$COMPPDNS
                                        12         ENTDEF      FMG$COMPPDTS
                                        13         ENTDEF      FMG$COMPSFLT
                                        14         ENTDEF      FMG$COMPDFLT
                                        15         ENTDEF      FMG$COMPPDFLT
                                        16         ENTDEF      FMG$COMPUDFLT
                                        17  *
                                        18         ENTREF      X66_AUTO_4
                                        19         ENTREF      X66_AUTO_3
                                        20         ENTREF      X66_ARET
                                        21  *
             000000000000               22  EQUAL  EQU         0
             000000000001               23  LESS   EQU         1
             000000000002               24  GREATER EQU        2
                                        25  *
                                        26  *      UNPACKED SCALED TRAILING SIGN
                                        27  *
 0 000000                               28  FMG$COMPUDTS
                                        29         INHIB       ON
   000000  X 000000 7002 00             30         TSX0        X66_AUTO_4
                                        31         INHIB       OFF
   000001    000010 000004              32         ZERO        8,4
                                        33  *
   000002 (0)000075 7010 00             34         TSX1        SETUPD
   000003    0 000 0 0 140 3035 40      35         CMPN        (1,1),(1,1)
   000004    0 00000 0 0 2 00 17        36         NDSC9       0,0,15,2,,0
   000005    1 00000 0 0 2 00 17        37         NDSC9       0,0,15,2,,1
 16:45 07/29/97  FILE=FMG$KEYEDG.:E05TSI                                                                 2    BMAP - B00
                                        38  *
   000006 (0)000107 7100 00             39         TRA         SETRSLT
                                        40  *
                                        41  *      UNPACKED SCALED LEADING SIGN
                                        42  *
   000007                               43  FMG$COMPUDLS
                                        44         INHIB       ON
   000007  X 000000 7002 00             45         TSX0        X66_AUTO_4
                                        46         INHIB       OFF
   000010    000010 000004              47         ZERO        8,4
                                        48  *
   000011 (0)000075 7010 00             49         TSX1        SETUPD
   000012    0 000 0 0 140 3035 40      50         CMPN        (1,1),(1,1)
   000013    0 00000 0 0 1 00 17        51         NDSC9       0,0,15,1,,0
   000014    1 00000 0 0 1 00 17        52         NDSC9       0,0,15,1,,1
                                        53  *
   000015 (0)000107 7100 00             54         TRA         SETRSLT
                                        55  *
                                        56  *      PACKED SCALED NO SIGN
                                        57  *
   000016                               58  FMG$COMPPDNS
                                        59         INHIB       ON
   000016  X 000000 7002 00             60         TSX0        X66_AUTO_4
                                        61         INHIB       OFF
   000017    000010 000004              62         ZERO        8,4
                                        63  *
   000020 (0)000075 7010 00             64         TSX1        SETUPD
   000021    0 000 0 0 140 3035 40      65         CMPN        (1,1),(1,1)
   000022    0 00000 0 1 3 00 17        66         NDSC4       0,0,15,3,,0
   000023    1 00000 0 1 3 00 17        67         NDSC4       0,0,15,3,,1
                                        68  *
   000024 (0)000107 7100 00             69         TRA         SETRSLT
                                        70  *
                                        71  *      PACKED SCALED TRAILING SIGN
                                        72  *
   000025                               73  FMG$COMPPDTS
                                        74         INHIB       ON
 16:45 07/29/97  FILE=FMG$KEYEDG.:E05TSI                                                                 3    BMAP - B00
   000025  X 000000 7002 00             75         TSX0        X66_AUTO_4
                                        76         INHIB       OFF
   000026    000010 000004              77         ZERO        8,4
                                        78  *
   000027 (0)000075 7010 00             79         TSX1        SETUPD
   000030    0 000 0 0 140 3035 40      80         CMPN        (1,1),(1,1)
   000031    0 00000 0 1 2 00 17        81         NDSC4       0,0,15,2,,0
   000032    1 00000 0 1 2 00 17        82         NDSC4       0,0,15,2,,1
                                        83  *
   000033 (0)000107 7100 00             84         TRA         SETRSLT
                                        85  *
                                        86  *      PACKED SCALED LEADING SIGN
                                        87  *
   000034                               88  FMG$COMPPDLS
                                        89         INHIB       ON
   000034  X 000000 7002 00             90         TSX0        X66_AUTO_4
                                        91         INHIB       OFF
   000035    000010 000004              92         ZERO        8,4
                                        93  *
   000036 (0)000075 7010 00             94         TSX1        SETUPD
   000037    0 000 0 0 140 3035 40      95         CMPN        (1,1),(1,1)
   000040    0 00000 0 1 1 00 17        96         NDSC4       0,0,15,1,,0
   000041    1 00000 0 1 1 00 17        97         NDSC4       0,0,15,1,,1
                                        98  *
   000042 (0)000107 7100 00             99         TRA         SETRSLT
                                       100  *
                                       101  *      PACKED FLOATING DECIMAL
                                       102  *
   000043                              103  FMG$COMPPDFLT
                                       104         INHIB       ON
   000043  X 000000 7002 00            105         TSX0        X66_AUTO_4
                                       106         INHIB       OFF
   000044    000010 000004             107         ZERO        8,4
                                       108  *
   000045 (0)000075 7010 00            109         TSX1        SETUPD
   000046    0 000 0 0 140 3035 40     110         CMPN        (1,1),(1,1)
   000047    0 00000 0 1 0 00 17       111         NDSC4       0,0,15,0,,0
 16:45 07/29/97  FILE=FMG$KEYEDG.:E05TSI                                                                 4    BMAP - B00
   000050    1 00000 0 1 0 00 17       112         NDSC4       0,0,15,0,,1
                                       113  *
   000051 (0)000107 7100 00            114         TRA         SETRSLT
                                       115  *
                                       116  *      UNPACKED FLOATING DECIMAL
                                       117  *
   000052                              118  FMG$COMPUDFLT
                                       119         INHIB       ON
   000052  X 000000 7002 00            120         TSX0        X66_AUTO_4
                                       121         INHIB       OFF
   000053    000010 000004             122         ZERO        8,4
                                       123  *
   000054 (0)000075 7010 00            124         TSX1        SETUPD
   000055    0 000 0 0 140 3035 40     125         CMPN        (1,1),(1,1)
   000056    0 00000 0 0 0 00 17       126         NDSC9       0,0,15,0,,0
   000057    1 00000 0 0 0 00 17       127         NDSC9       0,0,15,0,,1
                                       128  *
   000060 (0)000107 7100 00            129         TRA         SETRSLT
                                       130  *
                                       131  *      SINGLE PRECISION FLOATING
                                       132  *
   000061                              133  FMG$COMPSFLT
                                       134         INHIB       ON
   000061  X 000000 7002 00            135         TSX0        X66_AUTO_3
                                       136         INHIB       OFF
   000062    000006 000003             137         ZERO        6,3
                                       138  *
   000063 (0)000103 7010 00            139         TSX1        SETUPF
   000064    0 00000 4311 00           140         FLD         0,,0
   000065    1 00000 5151 00           141         FCMP        0,,1
                                       142  *
   000066 (0)000107 7100 00            143         TRA         SETRSLT
                                       144  *
                                       145  *      DOUBLE PRECISION FLOATING
                                       146  *
   000067                              147  FMG$COMPDFLT
                                       148         INHIB    ON
 16:45 07/29/97  FILE=FMG$KEYEDG.:E05TSI                                                                 5    BMAP - B00
   000067  X 000000 7002 00            149         TSX0     X66_AUTO_3
                                       150         INHIB    OFF
   000070    000006 000000             151         ZERO     6,,3
                                       152  *
   000071 (0)000103 7010 00            153         TSX1     SETUPF
   000072    0 00000 4331 00           154         DFLD     0,,0
   000073    1 00000 5171 00           155         DFCMP    0,,1
                                       156  *
   000074 (0)000107 7100 00            157         TRA      SETRSLT
                                       158  *
                                       159  *      SETUP FOR DECIMAL
                                       160  *
   000075    2 00003 4715 00           161  SETUPD LDP1     3,,2
   000076    2 00004 4705 00           162         LDP0     4,,2
                                       163  *
   000077    2 00005 4735 00           164         LDP3     5,,2
   000100    3 00000 7271 00           165         LXL7     0,,3
   000101    2 00006 4735 00           166         LDP3     6,,2
   000102    000000 7100 11            167         TRA      0,1
                                       168  *
                                       169  *      SETUP FOR FLOATING
                                       170  *
   000103    2 00003 4705 00           171  SETUPF LDP0     3,,2
   000104    2 00004 4715 00           172         LDP1     4,,2
   000105    2 00005 4735 00           173         LDP3     5,,2
   000106    000000 7100 11            174         TRA      0,1
                                       175  *
                                       176  *      SET RESULT
                                       177  *
   000107                              178  SETRSLT
   000107 (0)000113 6040 00            179         TMI      NEG
   000110 (0)000115 6000 00            180         TZE      ZER
   000111    000002 2360 07            181         LDQ      GREATER,DL
   000112 (0)000116 7100 00            182         TRA      SET
                                       183  *
   000113    000001 2360 07            184  NEG    LDQ      LESS,DL
   000114 (0)000116 7100 00            185         TRA      SET
 16:45 07/29/97  FILE=FMG$KEYEDG.:E05TSI                                                                 6    BMAP - B00
                                       186  *
   000115    000000 2360 07            187  ZER    LDQ      EQUAL,DL
   000116    3 00000 7561 00           188  SET    STQ      0,,3
                                       189         INHIB    ON
   000117  X 000000 7022 00            190         TSX2     X66_ARET
                                       191         INHIB    OFF
                                       192         END

  CONTROL SECTION TABLE

   0 CODE   EVEN  000120
   1 RODATA EVEN  000000 LITERALS

 16:45 07/29/97  FILE=FMG$KEYEDG.:E05TSI      SYMBOL TABLE                                               7    BMAP - B00
 41000000 000000000000 EQUAL          *22       187
 12101000 000000000067 FMG$COMPDFLT    14      *147
 12101000 000000000043 FMG$COMPPDFLT   15      *103
 12101000 000000000034 FMG$COMPPDLS    10       *88
 12101000 000000000016 FMG$COMPPDNS    11       *58
 12101000 000000000025 FMG$COMPPDTS    12       *73
 12101000 000000000061 FMG$COMPSFLT    13      *133
 12101000 000000000052 FMG$COMPUDFLT   16      *118
 12101000 000000000007 FMG$COMPUDLS     9       *43
 12101000 000000000000 FMG$COMPUDTS     8       *28
 41000000 000000000002 GREATER        *24       181
 41000000 000000000001 LESS           *23       184
 01101000 000000000113 NEG            179      *184
 01101000 000000000116 SET            182       185      *188
 01101000 000000000107 SETRSLT         39        54        69        84        99       114       129
                                      143       157      *178
 01101000 000000000075 SETUPD          34        49        64        79        94       109       124
                                     *161
 01101000 000000000103 SETUPF         139       153      *171
 03201002 000000000000 X66_ARET       *20       190
 03201001 000000000000 X66_AUTO_3     *19       135       149
 03201000 000000000000 X66_AUTO_4     *18        30        45        60        75        90       105
                                      120
 01101000 000000000115 ZER            180      *187

      21 SYMBOLS

       0 MACROS

    SYMBOL SPACE USED   293 WORDS
     MACRO SPACE USED     0 WORDS
   INPUT RECORDS READ   384
 STATEMENTS PROCESSED   141
         ELAPSED TIME  0:02.64
             CPU TIME     1.18 SEC.
        ASSEMBLY RATE  7169 STATEMENTS/CPU MIN.

 16:45 07/29/97  FILE=FMG$KEYEDG.:E05TSI      SYMBOL TABLE                                               8    BMAP - B00
      NO ERRORS

