PL6.E3A0      #003=FMG$IRSETUP File=FMG$UTIL.:E05TSI                             TUE 07/29/97 16:46 Page:166
      864        1        /*T***********************************************************/
      865        2        /*T*                                                         */
      866        3        /*T* Copyright (c) Bull HN Information Systems Inc., 1997    */
      867        4        /*T*                                                         */
      868        5        /*T***********************************************************/
      869        6        /*F*     NAME:     FMG$IRSETUP
      870        7                 PURPOSE:  To handle setup for irel files
      871        8        */
      872        9        /*D*     NAME:     FMG$IRSETUP
      873       10                 CALL:     CALL FMG$IRSETUP(VLP$IRKEYS)
      874       11                 INPUT:    VLP$IRKEYS - The VLP_IRKEYS structure from the OPEN fpt,
      875       12                           the assign merge record, or the FIT.
      876       13                 DESCRIPTION:
      877       14                      The VLP_IRKEYS structure was designed to be easy for users
      878       15                 to specify in a single vector.  Unfortunately, it isn't so easy
      879       16                 for file management to use.  It would have no idea how many fields
      880       17                 define the key, or even where the key starts, without doing a
      881       18                 sequential search every time it had to access key information.
      882       19                 So, the imformation is split up into two structures, the IRKEYS
      883       20                 structure, and the KFIELD structure.  KFIELD is a lot like the
      884       21                 VLP_IRKEYS structure.  It is a sequential list of the fields that
      885       22                 define the keys.  The IRKEYS structure is an array with one entry
      886       23                 per index.  Among other things, each entry has an index into the
      887       24                 FMG$KFIELD.FIELD array for the start of this key definition,
      888       25                 and a count of how many entries in FMG$KFIELD.FIELD it takes
      889       26                 to define this key.
      890       27
      891       28                      First, we do a little field rearranging.  SBIN and
      892       29                 UBIN fields are specified in bits.  But file management
      893       30                 prefers to treat them in bytes.
      894       31
      895       32                      If more than 72 keys were defined, then use only the first
      896       33                 72 keys.  We can't fit any more than that in the FIT.  Next, get
      897       34                 enough space in the ROSEG to hold the IRKEYS information.  Next,
      898       35                 count the number of actual entries in VLP$IRKEYS.  That will tell
      899       36                 us how much space we need for the KFIELD structure.
      900       37
PL6.E3A0      #003=FMG$IRSETUP File=FMG$UTIL.:E05TSI                             TUE 07/29/97 16:46 Page:167
      901       38                      Now, loop through the list of keys, setting the values in
      902       39                 the IRKEYS and KFIELD structures.
      903       40        */
      904       41                 %EJECT;
PL6.E3A0      #003=FMG$IRSETUP File=FMG$UTIL.:E05TSI                             TUE 07/29/97 16:46 Page:168
      905       42        FMG$IRSETUP: PROC(VLP$IRKEYS) ALTRET;
      906       43               %INCLUDE F_CP6;
      907     1068               %INCLUDE B$JIT;
      908     1671               %MACRO F$DCB(BASED=BASED);
      909     1672               %INCLUDE F$DCB;
      910     1721               %MEND;
      911     1722               %INCLUDE FM_FIELD_C;
      912     1763               %INCLUDE B$OBJECT_C;
      913     5193               %INCLUDE F$CP6V_C;
      914     5419        /* */
      915     5420               %VLP_IRKEYS(FPTN=VLP$IRKEYS, STCLASS="");
      916     5435               %VLP_IRKEYS(FPTN=VLP_IRKEYS, STCLASS="");
      917     5450               %FMG$IRKEYS(FPTN=IRKEYS, STCLASS="BASED(ALTKEY$)");
      918     5457               %FMG$KFIELD(FPTN=KFIELD, STCLASS="BASED(KFIELD$)");
      919     5460               %F$DCB(BASED="BASED(JDCB$)");
      920     5510        /* */
      921     5511    1          DCL JDCB$ PTR;
      922     5512    1          DCL K SBIN;
      923     5513    1          DCL NKEYS SBIN;
      924     5514    1          DCL ALTKEY$ PTR;
      925     5515    1          DCL N SBIN;
      926     5516    1          DCL I SBIN;
      927     5517    1          DCL LEN SBIN;
      928     5518    1          DCL START SBIN;
      929     5519    1          DCL KFIELD$ PTR;
      930     5520        /* */
      931     5521    1          DCL 1 BLOCK BASED,
      932     5522    1               2 * CHAR(K);
      933     5523        /* */
      934     5524    1          DCL FSA$GSP ENTRY(2) ALTRET;
      935     5525    1          DCL FSA$FSP ENTRY(2) ALTRET;
      936     5526        /* */
      937     5527    1          DCL B$JIT$ PTR SYMREF;
      938     5528    1          DCL B$ROSEG$ PTR SYMREF;
      939     5529        /* */
      940     5530    1          JDCB$=B$JIT.DCB$;
      941     5531
PL6.E3A0      #003=FMG$IRSETUP File=FMG$UTIL.:E05TSI                             TUE 07/29/97 16:46 Page:169
      942     5532    1          NKEYS=VLP$IRKEYS.NKEYS#;
      943     5533    1          IF NKEYS > 72 THEN
      944     5534    1             NKEYS=72;
      945     5535    1          K=(NKEYS*SIZEW(IRKEYS.K(0)))+3;
      946     5536    1          CALL FSA$GSP(K, ALTKEY$) ALTRET(ERR);
      947     5537    1          K=K*4;
      948     5538    1          ALTKEY$->BLOCK='0'B;
      949     5539    1          IRKEYS.NWORDS=K/4;
      950     5540    1          IRKEYS.NKEYS=NKEYS;
      951     5541    1          F$DCB.ALTKEYX=POFFW(ALTKEY$, B$ROSEG$);
      952     5542
      953     5543    1          N=0;
      954     5544    2          DO I=1 TO NKEYS;
      955     5545    3             DO UNTIL(VLP_IRKEYS.K.KEYEND#(0));
      956     5546    3                VLP_IRKEYS.K(0)=VLP$IRKEYS.K(N);
      957     5547    3                N=N+1;
      958     5548    3                END;
      959     5549    2             END;
      960     5550
      961     5551    1          K=(N+3)/4+2;
      962     5552    1          CALL FSA$GSP(K, KFIELD$) ALTRET(ERR);
      963     5553    1          K=K*4;
      964     5554    1          KFIELD$->BLOCK='0'B;
      965     5555    1          KFIELD.NWORDS=K/4;
      966     5556    1          KFIELD.NFIELDS=N;
      967     5557    1          F$DCB.KFIELDX=POFFW(KFIELD$, B$ROSEG$);
      968     5558
      969     5559    1          N=0;
      970     5560    2          DO I=0 TO NKEYS-1;
      971     5561    2             IRKEYS.K.FIRSTFIELD(I)=N;
      972     5562    2             VLP_IRKEYS.K(0)=VLP$IRKEYS.K(N);
      973     5563    2             IRKEYS.K.UNIQUE(I)=VLP_IRKEYS.K.UNIQUE#(0);
      974     5564    2             IF I = 0 THEN
      975     5565    2                IRKEYS.K.UNIQUE(I)='1'B;
      976     5566
      977     5567    2             KFIELD.FIELD(N)=VLP_IRKEYS.K.FIELDN#(0);
      978     5568    2             IRKEYS.K.NFIELDS(I)=IRKEYS.K.NFIELDS(I)+1;
PL6.E3A0      #003=FMG$IRSETUP File=FMG$UTIL.:E05TSI                             TUE 07/29/97 16:46 Page:170
      979     5569
      980     5570    3             DO WHILE(NOT VLP_IRKEYS.K.KEYEND#(0));
      981     5571    3                N=N+1;
      982     5572    3                VLP_IRKEYS.K(0)=VLP$IRKEYS.K(N);
      983     5573    3                KFIELD.FIELD(N)=VLP_IRKEYS.K.FIELDN#(0);
      984     5574    3                IRKEYS.K.NFIELDS(I)=IRKEYS.K.NFIELDS(I)+1;
      985     5575    3                END;
      986     5576    2             N=N+1;
      987     5577    2             END;
      988     5578
      989     5579    1          RETURN;
      990     5580    1   ERR:   IF F$DCB.ALTKEYX ~= 0 THEN
      991     5581    2             DO;   /* FREE SPACE */
      992     5582    2             K=IRKEYS.NWORDS;
      993     5583    2             CALL FSA$FSP(K, ALTKEY$);
      994     5584    2             F$DCB.ALTKEYX=0;
      995     5585    2             END;  /* FREE SPACE */
      996     5586
      997     5587    1          ALTRETURN;
      998     5588    1          END FMG$IRSETUP;

PL6.E3A0      #003=FMG$IRSETUP File=FMG$UTIL.:E05TSI                             TUE 07/29/97 16:46 Page:171
--  Include file information  --

   F$CP6V_C.:E05TOU  is referenced.
   B$OBJECT_C.:E05TOU  is referenced.
   FM_FIELD_C.:E05TOU  is referenced.
   F$DCB.:E05TOU  is referenced.
   B$JIT_C.:E05TOU  is referenced.
   B$JIT.:E05TOU  cannot be made into a system file and is referenced.
   F_CP6.:E05TOU  is referenced.
      No diagnostics issued in procedure FMG$IRSETUP.

   Procedure FMG$IRSETUP requires 184 words for executable code.
   Procedure FMG$IRSETUP requires 18 words of local(AUTO) storage.

    No errors detected in file FMG$UTIL.:E05TSI    .

PL6.E3A0      #003=FMG$IRSETUP File=FMG$UTIL.:E05TSI                             TUE 07/29/97 16:46 Page:172

 Object Unit name= FMG$IRSETUP                                File name= FMG$UTIL.:E05TOU
 UTS= JUL 29 '97 16:46:37.60 TUE                              Compiler= PL-6/E31         Sev=      00
 SharedLib= :SHARED_SYSTEM                                    Alt SharedLib=


    ****  Control sections  ****

 Sect   Type Bound  Init  Size OctSiz  Section name(segment info)
    0   Proc  even  none   184    270  FMG$IRSETUP

    ****  Entry defs  ****

                              Check   Calling
                             calling  sequence
  Sect OctLoc Primary Altret sequence   type   Parms  Name
     0      0   yes    yes     yes      Std        1  FMG$IRSETUP

  ****  Entry refs  ****

         Check        Calling
        calling       sequence
Altret sequence SRef   type   Args  Name
 yes     yes           Std       2 FSA$GSP
 yes     yes           Std       2 FSA$FSP
                       nStd      0 X66_AUTO_1
                       Std       0 B_CONSPOOL_D
                       nStd      0 X66_ARET
                       nStd      0 X66_AALT

  ****  Data refs  ****

  Flags:  r = read only, s = secondary
Flgs Name                             Flgs Name                             Flgs Name
     B$JIT$                                B$ROSEG$                              B_VECTNIL
PL6.E3A0      #003=FMG$IRSETUP File=FMG$UTIL.:E05TSI                             TUE 07/29/97 16:46 Page:173


      864        1        /*T***********************************************************/
      865        2        /*T*                                                         */
      866        3        /*T* Copyright (c) Bull HN Information Systems Inc., 1997    */
      867        4        /*T*                                                         */
      868        5        /*T***********************************************************/
      869        6        /*F*     NAME:     FMG$IRSETUP
      870        7                 PURPOSE:  To handle setup for irel files
      871        8        */
      872        9        /*D*     NAME:     FMG$IRSETUP
      873       10                 CALL:     CALL FMG$IRSETUP(VLP$IRKEYS)
      874       11                 INPUT:    VLP$IRKEYS - The VLP_IRKEYS structure from the OPEN fpt,
      875       12                           the assign merge record, or the FIT.
      876       13                 DESCRIPTION:
      877       14                      The VLP_IRKEYS structure was designed to be easy for users
      878       15                 to specify in a single vector.  Unfortunately, it isn't so easy
      879       16                 for file management to use.  It would have no idea how many fields
      880       17                 define the key, or even where the key starts, without doing a
      881       18                 sequential search every time it had to access key information.
      882       19                 So, the imformation is split up into two structures, the IRKEYS
      883       20                 structure, and the KFIELD structure.  KFIELD is a lot like the
      884       21                 VLP_IRKEYS structure.  It is a sequential list of the fields that
      885       22                 define the keys.  The IRKEYS structure is an array with one entry
      886       23                 per index.  Among other things, each entry has an index into the
      887       24                 FMG$KFIELD.FIELD array for the start of this key definition,
      888       25                 and a count of how many entries in FMG$KFIELD.FIELD it takes
      889       26                 to define this key.
      890       27
      891       28                      First, we do a little field rearranging.  SBIN and
      892       29                 UBIN fields are specified in bits.  But file management
      893       30                 prefers to treat them in bytes.
      894       31
      895       32                      If more than 72 keys were defined, then use only the first
      896       33                 72 keys.  We can't fit any more than that in the FIT.  Next, get
      897       34                 enough space in the ROSEG to hold the IRKEYS information.  Next,
      898       35                 count the number of actual entries in VLP$IRKEYS.  That will tell
      899       36                 us how much space we need for the KFIELD structure.
PL6.E3A0      #003=FMG$IRSETUP File=FMG$UTIL.:E05TSI                             TUE 07/29/97 16:46 Page:174
      900       37
      901       38                      Now, loop through the list of keys, setting the values in
      902       39                 the IRKEYS and KFIELD structures.
      903       40        */
      904       41                 %EJECT;
PL6.E3A0      #003=FMG$IRSETUP File=FMG$UTIL.:E05TSI                             TUE 07/29/97 16:46 Page:175
      905       42        FMG$IRSETUP: PROC(VLP$IRKEYS) ALTRET;

     42  0 000000   000000 700200 xent  FMG$IRSETUP  TSX0  ! X66_AUTO_1
         0 000001   000022 000001                    ZERO    18,1

      906       43               %INCLUDE F_CP6;
      907     1068               %INCLUDE B$JIT;
      908     1671               %MACRO F$DCB(BASED=BASED);
      909     1672               %INCLUDE F$DCB;
      910     1721               %MEND;
      911     1722               %INCLUDE FM_FIELD_C;
      912     1763               %INCLUDE B$OBJECT_C;
      913     5193               %INCLUDE F$CP6V_C;
      914     5419        /* */
      915     5420               %VLP_IRKEYS(FPTN=VLP$IRKEYS, STCLASS="");
      916     5435               %VLP_IRKEYS(FPTN=VLP_IRKEYS, STCLASS="");
      917     5450               %FMG$IRKEYS(FPTN=IRKEYS, STCLASS="BASED(ALTKEY$)");
      918     5457               %FMG$KFIELD(FPTN=KFIELD, STCLASS="BASED(KFIELD$)");
      919     5460               %F$DCB(BASED="BASED(JDCB$)");
      920     5510        /* */
      921     5511    1          DCL JDCB$ PTR;
      922     5512    1          DCL K SBIN;
      923     5513    1          DCL NKEYS SBIN;
      924     5514    1          DCL ALTKEY$ PTR;
      925     5515    1          DCL N SBIN;
      926     5516    1          DCL I SBIN;
      927     5517    1          DCL LEN SBIN;
      928     5518    1          DCL START SBIN;
      929     5519    1          DCL KFIELD$ PTR;
      930     5520        /* */
      931     5521    1          DCL 1 BLOCK BASED,
      932     5522    1               2 * CHAR(K);
      933     5523        /* */
      934     5524    1          DCL FSA$GSP ENTRY(2) ALTRET;
      935     5525    1          DCL FSA$FSP ENTRY(2) ALTRET;
      936     5526        /* */
      937     5527    1          DCL B$JIT$ PTR SYMREF;
PL6.E3A0      #003=FMG$IRSETUP File=FMG$UTIL.:E05TSI                             TUE 07/29/97 16:46 Page:176
      938     5528    1          DCL B$ROSEG$ PTR SYMREF;
      939     5529        /* */
      940     5530    1          JDCB$=B$JIT.DCB$;

   5530  0 000002   000000 470400 xsym               LDP0    B$JIT$
         0 000003   000232 236100                    LDQ     154,,PR0
         0 000004   200006 756100                    STQ     JDCB$,,AUTO

      941     5531
      942     5532    1          NKEYS=VLP$IRKEYS.NKEYS#;

   5532  0 000005   200003 471500                    LDP1    @VLP$IRKEYS,,AUTO
         0 000006   100000 235100                    LDA     0,,PR1
         0 000007   200010 755100                    STA     NKEYS,,AUTO

      943     5533    1          IF NKEYS > 72 THEN

   5533  0 000010   000110 115007                    CMPA    72,DL
         0 000011   000014 604400 0                  TMOZ    s:5535

      944     5534    1             NKEYS=72;

   5534  0 000012   000110 235007                    LDA     72,DL
         0 000013   200010 755100                    STA     NKEYS,,AUTO

      945     5535    1          K=(NKEYS*SIZEW(IRKEYS.K(0)))+3;

   5535  0 000014   200010 236100                    LDQ     NKEYS,,AUTO
         0 000015   000007 402007                    MPY     7,DL
         0 000016   000003 036007                    ADLQ    3,DL
         0 000017   200007 756100                    STQ     K,,AUTO

      946     5536    1          CALL FSA$GSP(K, ALTKEY$) ALTRET(ERR);

   5536  0 000020   200011 633500                    EPPR3   ALTKEY$,,AUTO
         0 000021   200021 453500                    STP3    KFIELD$+3,,AUTO
         0 000022   200007 634500                    EPPR4   K,,AUTO
PL6.E3A0      #003=FMG$IRSETUP File=FMG$UTIL.:E05TSI                             TUE 07/29/97 16:46 Page:177
         0 000023   200020 454500                    STP4    KFIELD$+2,,AUTO
         0 000024   200020 630500                    EPPR0   KFIELD$+2,,AUTO
         0 000025   000020 631400 xsym               EPPR1   B_VECTNIL+16
         0 000026   000000 701000 xent               TSX1    FSA$GSP
         0 000027   000245 702000 0                  TSX2    ERR

      947     5537    1          K=K*4;

   5537  0 000030   200007 235100                    LDA     K,,AUTO
         0 000031   000002 735000                    ALS     2
         0 000032   200007 755100                    STA     K,,AUTO

      948     5538    1          ALTKEY$->BLOCK='0'B;

   5538  0 000033   200011 470500                    LDP0    ALTKEY$,,AUTO
         0 000034   000000 620005                    EAX0    0,AL
         0 000035   000140 100400                    MLR     fill='000'O
         0 000036   000002 000001 xsym               ADSC9   B_VECTNIL+2              cn=0,n=1
         0 000037   000000 000010                    ADSC9   0,,PR0                   cn=0,n=*X0

      949     5539    1          IRKEYS.NWORDS=K/4;

   5539  0 000040   200007 236100                    LDQ     K,,AUTO
         0 000041   000004 506007                    DIV     4,DL
         0 000042   200011 470500                    LDP0    ALTKEY$,,AUTO
         0 000043   000033 736000                    QLS     27
         0 000044   000000 552140                    STBQ    0,'40'O,PR0

      950     5540    1          IRKEYS.NKEYS=NKEYS;

   5540  0 000045   200011 470500                    LDP0    ALTKEY$,,AUTO
         0 000046   200010 236100                    LDQ     NKEYS,,AUTO
         0 000047   000000 552134                    STBQ    0,'34'O,PR0

      951     5541    1          F$DCB.ALTKEYX=POFFW(ALTKEY$, B$ROSEG$);

   5541  0 000050   000000 235000 xsym               LDA     B$ROSEG$
PL6.E3A0      #003=FMG$IRSETUP File=FMG$UTIL.:E05TSI                             TUE 07/29/97 16:46 Page:178
         0 000051   000022 771000                    ARL     18
         0 000052   200020 755100                    STA     KFIELD$+2,,AUTO
         0 000053   200011 236100                    LDQ     ALTKEY$,,AUTO
         0 000054   000022 772000                    QRL     18
         0 000055   200020 136100                    SBLQ    KFIELD$+2,,AUTO
         0 000056   000000 620006                    EAX0    0,QL
         0 000057   200006 470500                    LDP0    JDCB$,,AUTO
         0 000060   000052 440100                    SXL0    42,,PR0

      952     5542
      953     5543    1          N=0;

   5543  0 000061   200012 450100                    STZ     N,,AUTO

      954     5544    2          DO I=1 TO NKEYS;

   5544  0 000062   000001 236007                    LDQ     1,DL
         0 000063   200013 756100                    STQ     I,,AUTO
         0 000064   000077 710000 0                  TRA     s:5549+1

      955     5545    3             DO UNTIL(VLP_IRKEYS.K.KEYEND#(0));

      956     5546    3                VLP_IRKEYS.K(0)=VLP$IRKEYS.K(N);

   5546  0 000065   200012 235100                    LDA     N,,AUTO
         0 000066   000001 735000                    ALS     1
         0 000067   200003 470500                    LDP0    @VLP$IRKEYS,,AUTO
         0 000070   000100 100505                    MLR     fill='000'O
         0 000071   000001 000002                    ADSC9   1,A,PR0                  cn=0,n=2
         0 000072   200005 000002                    ADSC9   VLP_IRKEYS+1,,AUTO       cn=0,n=2

      957     5547    3                N=N+1;

   5547  0 000073   200012 054100                    AOS     N,,AUTO

      958     5548    3                END;

PL6.E3A0      #003=FMG$IRSETUP File=FMG$UTIL.:E05TSI                             TUE 07/29/97 16:46 Page:179
   5548  0 000074   200005 234100                    SZN     VLP_IRKEYS+1,,AUTO
         0 000075   000065 605000 0                  TPL     s:5546

      959     5549    2             END;

   5549  0 000076   200013 054100                    AOS     I,,AUTO
         0 000077   200013 236100                    LDQ     I,,AUTO
         0 000100   200010 116100                    CMPQ    NKEYS,,AUTO
         0 000101   000065 604400 0                  TMOZ    s:5546

      960     5550
      961     5551    1          K=(N+3)/4+2;

   5551  0 000102   200012 236100                    LDQ     N,,AUTO
         0 000103   000003 036007                    ADLQ    3,DL
         0 000104   000004 506007                    DIV     4,DL
         0 000105   000002 036007                    ADLQ    2,DL
         0 000106   200007 756100                    STQ     K,,AUTO

      962     5552    1          CALL FSA$GSP(K, KFIELD$) ALTRET(ERR);

   5552  0 000107   200016 630500                    EPPR0   KFIELD$,,AUTO
         0 000110   200021 450500                    STP0    KFIELD$+3,,AUTO
         0 000111   200007 631500                    EPPR1   K,,AUTO
         0 000112   200020 451500                    STP1    KFIELD$+2,,AUTO
         0 000113   200020 630500                    EPPR0   KFIELD$+2,,AUTO
         0 000114   000020 631400 xsym               EPPR1   B_VECTNIL+16
         0 000115   000000 701000 xent               TSX1    FSA$GSP
         0 000116   000245 702000 0                  TSX2    ERR

      963     5553    1          K=K*4;

   5553  0 000117   200007 235100                    LDA     K,,AUTO
         0 000120   000002 735000                    ALS     2
         0 000121   200007 755100                    STA     K,,AUTO

      964     5554    1          KFIELD$->BLOCK='0'B;
PL6.E3A0      #003=FMG$IRSETUP File=FMG$UTIL.:E05TSI                             TUE 07/29/97 16:46 Page:180

   5554  0 000122   200016 470500                    LDP0    KFIELD$,,AUTO
         0 000123   000000 620005                    EAX0    0,AL
         0 000124   000140 100400                    MLR     fill='000'O
         0 000125   000002 000001 xsym               ADSC9   B_VECTNIL+2              cn=0,n=1
         0 000126   000000 000010                    ADSC9   0,,PR0                   cn=0,n=*X0

      965     5555    1          KFIELD.NWORDS=K/4;

   5555  0 000127   200007 236100                    LDQ     K,,AUTO
         0 000130   000004 506007                    DIV     4,DL
         0 000131   200016 470500                    LDP0    KFIELD$,,AUTO
         0 000132   000000 756100                    STQ     0,,PR0

      966     5556    1          KFIELD.NFIELDS=N;

   5556  0 000133   200012 235100                    LDA     N,,AUTO
         0 000134   200016 470500                    LDP0    KFIELD$,,AUTO
         0 000135   000001 755100                    STA     1,,PR0

      967     5557    1          F$DCB.KFIELDX=POFFW(KFIELD$, B$ROSEG$);

   5557  0 000136   000000 236000 xsym               LDQ     B$ROSEG$
         0 000137   000022 772000                    QRL     18
         0 000140   200020 756100                    STQ     KFIELD$+2,,AUTO
         0 000141   200016 236100                    LDQ     KFIELD$,,AUTO
         0 000142   000022 772000                    QRL     18
         0 000143   200020 136100                    SBLQ    KFIELD$+2,,AUTO
         0 000144   000000 620006                    EAX0    0,QL
         0 000145   200006 470500                    LDP0    JDCB$,,AUTO
         0 000146   000056 440100                    SXL0    46,,PR0

      968     5558
      969     5559    1          N=0;

   5559  0 000147   200012 450100                    STZ     N,,AUTO

PL6.E3A0      #003=FMG$IRSETUP File=FMG$UTIL.:E05TSI                             TUE 07/29/97 16:46 Page:181
      970     5560    2          DO I=0 TO NKEYS-1;

   5560  0 000150   200013 450100                    STZ     I,,AUTO
         0 000151   000241 710000 0                  TRA     s:5577+1

      971     5561    2             IRKEYS.K.FIRSTFIELD(I)=N;

   5561  0 000152   200013 236100                    LDQ     I,,AUTO
         0 000153   000007 402007                    MPY     7,DL
         0 000154   200012 720100                    LXL0    N,,AUTO
         0 000155   200011 470500                    LDP0    ALTKEY$,,AUTO
         0 000156   000004 740106                    STX0    4,QL,PR0

      972     5562    2             VLP_IRKEYS.K(0)=VLP$IRKEYS.K(N);

   5562  0 000157   200012 235100                    LDA     N,,AUTO
         0 000160   000001 735000                    ALS     1
         0 000161   200003 470500                    LDP0    @VLP$IRKEYS,,AUTO
         0 000162   000100 100505                    MLR     fill='000'O
         0 000163   000001 000002                    ADSC9   1,A,PR0                  cn=0,n=2
         0 000164   200005 000002                    ADSC9   VLP_IRKEYS+1,,AUTO       cn=0,n=2

      973     5563    2             IRKEYS.K.UNIQUE(I)=VLP_IRKEYS.K.UNIQUE#(0);

   5563  0 000165   200011 471500                    LDP1    ALTKEY$,,AUTO
         0 000166   000000 621006                    EAX1    0,QL
         0 000167   200005 236100                    LDQ     VLP_IRKEYS+1,,AUTO
         0 000170   000021 772000                    QRL     17
         0 000171   100006 676111                    ERQ     6,X1,PR1
         0 000172   400000 376007                    ANQ     -131072,DL
         0 000173   100006 656111                    ERSQ    6,X1,PR1

      974     5564    2             IF I = 0 THEN

   5564  0 000174   200013 236100                    LDQ     I,,AUTO
         0 000175   000201 601000 0                  TNZ     s:5567

PL6.E3A0      #003=FMG$IRSETUP File=FMG$UTIL.:E05TSI                             TUE 07/29/97 16:46 Page:182
      975     5565    2                IRKEYS.K.UNIQUE(I)='1'B;

   5565  0 000176   200011 471500                    LDP1    ALTKEY$,,AUTO
         0 000177   400000 236007                    LDQ     -131072,DL
         0 000200   100006 256111                    ORSQ    6,X1,PR1

      976     5566
      977     5567    2             KFIELD.FIELD(N)=VLP_IRKEYS.K.FIELDN#(0);

   5567  0 000201   200016 471500                    LDP1    KFIELD$,,AUTO
         0 000202   200012 236100                    LDQ     N,,AUTO
         0 000203   000106 100500                    MLR     fill='000'O
         0 000204   200005 200001                    ADSC9   VLP_IRKEYS+1,,AUTO       cn=1,n=1
         0 000205   100002 000001                    ADSC9   2,Q,PR1                  cn=0,n=1

      978     5568    2             IRKEYS.K.NFIELDS(I)=IRKEYS.K.NFIELDS(I)+1;

   5568  0 000206   200011 471500                    LDP1    ALTKEY$,,AUTO
         0 000207   100004 722111                    LXL2    4,X1,PR1
         0 000210   000001 623012                    EAX3    1,X2
         0 000211   100004 443111                    SXL3    4,X1,PR1

      979     5569
      980     5570    3             DO WHILE(NOT VLP_IRKEYS.K.KEYEND#(0));

   5570  0 000212   000235 710000 0                  TRA     s:5575

      981     5571    3                N=N+1;

   5571  0 000213   200012 054100                    AOS     N,,AUTO

      982     5572    3                VLP_IRKEYS.K(0)=VLP$IRKEYS.K(N);

   5572  0 000214   200012 235100                    LDA     N,,AUTO
         0 000215   000001 735000                    ALS     1
         0 000216   200003 470500                    LDP0    @VLP$IRKEYS,,AUTO
         0 000217   000100 100505                    MLR     fill='000'O
PL6.E3A0      #003=FMG$IRSETUP File=FMG$UTIL.:E05TSI                             TUE 07/29/97 16:46 Page:183
         0 000220   000001 000002                    ADSC9   1,A,PR0                  cn=0,n=2
         0 000221   200005 000002                    ADSC9   VLP_IRKEYS+1,,AUTO       cn=0,n=2

      983     5573    3                KFIELD.FIELD(N)=VLP_IRKEYS.K.FIELDN#(0);

   5573  0 000222   200016 471500                    LDP1    KFIELD$,,AUTO
         0 000223   200012 236100                    LDQ     N,,AUTO
         0 000224   000106 100500                    MLR     fill='000'O
         0 000225   200005 200001                    ADSC9   VLP_IRKEYS+1,,AUTO       cn=1,n=1
         0 000226   100002 000001                    ADSC9   2,Q,PR1                  cn=0,n=1

      984     5574    3                IRKEYS.K.NFIELDS(I)=IRKEYS.K.NFIELDS(I)+1;

   5574  0 000227   200013 236100                    LDQ     I,,AUTO
         0 000230   000007 402007                    MPY     7,DL
         0 000231   200011 471500                    LDP1    ALTKEY$,,AUTO
         0 000232   100004 720106                    LXL0    4,QL,PR1
         0 000233   000001 621010                    EAX1    1,X0
         0 000234   100004 441106                    SXL1    4,QL,PR1

      985     5575    3                END;

   5575  0 000235   200005 234100                    SZN     VLP_IRKEYS+1,,AUTO
         0 000236   000213 605000 0                  TPL     s:5571

      986     5576    2             N=N+1;

   5576  0 000237   200012 054100                    AOS     N,,AUTO

      987     5577    2             END;

   5577  0 000240   200013 054100                    AOS     I,,AUTO
         0 000241   200013 236100                    LDQ     I,,AUTO
         0 000242   200010 116100                    CMPQ    NKEYS,,AUTO
         0 000243   000152 604000 0                  TMI     s:5561

      988     5578
PL6.E3A0      #003=FMG$IRSETUP File=FMG$UTIL.:E05TSI                             TUE 07/29/97 16:46 Page:184
      989     5579    1          RETURN;

   5579  0 000244   000000 702200 xent               TSX2  ! X66_ARET

      990     5580    1   ERR:   IF F$DCB.ALTKEYX ~= 0 THEN

   5580  0 000245   200006 470500       ERR          LDP0    JDCB$,,AUTO
         0 000246   000052 720100                    LXL0    42,,PR0
         0 000247   000267 600000 0                  TZE     s:5587

      991     5581    2             DO;   /* FREE SPACE */

      992     5582    2             K=IRKEYS.NWORDS;

   5582  0 000250   200011 471500                    LDP1    ALTKEY$,,AUTO
         0 000251   100000 236100                    LDQ     0,,PR1
         0 000252   000033 772000                    QRL     27
         0 000253   200007 756100                    STQ     K,,AUTO

      993     5583    2             CALL FSA$FSP(K, ALTKEY$);

   5583  0 000254   200011 633500                    EPPR3   ALTKEY$,,AUTO
         0 000255   200021 453500                    STP3    KFIELD$+3,,AUTO
         0 000256   200007 634500                    EPPR4   K,,AUTO
         0 000257   200020 454500                    STP4    KFIELD$+2,,AUTO
         0 000260   200020 630500                    EPPR0   KFIELD$+2,,AUTO
         0 000261   000020 631400 xsym               EPPR1   B_VECTNIL+16
         0 000262   000000 701000 xent               TSX1    FSA$FSP
         0 000263   000000 011000                    NOP     0

      994     5584    2             F$DCB.ALTKEYX=0;

   5584  0 000264   000000 220003                    LDX0    0,DU
         0 000265   200006 470500                    LDP0    JDCB$,,AUTO
         0 000266   000052 440100                    SXL0    42,,PR0

      995     5585    2             END;  /* FREE SPACE */
PL6.E3A0      #003=FMG$IRSETUP File=FMG$UTIL.:E05TSI                             TUE 07/29/97 16:46 Page:185

      996     5586
      997     5587    1          ALTRETURN;

   5587  0 000267   000000 702200 xent               TSX2  ! X66_AALT
      998     5588    1          END FMG$IRSETUP;

PL6.E3A0      #003=FMG$IRSETUP File=FMG$UTIL.:E05TSI                             TUE 07/29/97 16:46 Page:186
--  Include file information  --

   F$CP6V_C.:E05TOU  is referenced.
   B$OBJECT_C.:E05TOU  is referenced.
   FM_FIELD_C.:E05TOU  is referenced.
   F$DCB.:E05TOU  is referenced.
   B$JIT_C.:E05TOU  is referenced.
   B$JIT.:E05TOU  cannot be made into a system file and is referenced.
   F_CP6.:E05TOU  is referenced.
      No diagnostics issued in procedure FMG$IRSETUP.
PL6.E3A0      #003=FMG$IRSETUP File=FMG$UTIL.:E05TSI                             TUE 07/29/97 16:46 Page:187

 **** Variables and constants ****

  ****  Auto variables  ****

  ****  Scalars and arrays  ****
OctLoc.c.b A Datatyp(siz) R M Lvl/name                 OctLoc.c.b A Datatyp(siz) R M Lvl/name

     3-0-0/w PTR         r     1 @VLP$IRKEYS               11-0-0/w PTR         r     1 ALTKEY$
    13-0-0/w SBIN        r     1 I                          6-0-0/w PTR         r     1 JDCB$
     7-0-0/w SBIN        r     1 K                         16-0-0/w PTR         r     1 KFIELD$
    12-0-0/w SBIN        r     1 N                         10-0-0/w SBIN        r     1 NKEYS
    *0-0-0/d STRC(54)    r     1 VLP$IRKEYS                 4-0-0/d STRC(54)    r     1 VLP_IRKEYS

  ****  SYMREF variables  ****

  ****  Scalars and arrays  ****
OctLoc.c.b A Datatyp(siz) R M Lvl/name                 OctLoc.c.b A Datatyp(siz) R M Lvl/name

     0-0-0/w PTR         r     1 B$JIT$                     0-0-0/w PTR         r     1 B$ROSEG$

  ****  BASED and DCB variables  ****

  ****  Scalars and arrays  ****
OctLoc.c.b A Datatyp(siz) R M Lvl/name                 OctLoc.c.b A Datatyp(siz) R M Lvl/name

     0-0-0/d STRC(8856)  r     1 B$JIT                      0-0-0/c ASTR(0)     r     1 BLOCK
     0-0-0/d ASTR(3528)  r     1 F$DCB                      0-0-0/w STRC(360)   r     1 IRKEYS
     0-0-0/w STRC(81)    r     1 KFIELD


   Procedure FMG$IRSETUP requires 184 words for executable code.
   Procedure FMG$IRSETUP requires 18 words of local(AUTO) storage.

    No errors detected in file FMG$UTIL.:E05TSI    .
PL6.E3A0      #003=FMG$IRSETUP File=FMG$UTIL.:E05TSI                             TUE 07/29/97 16:46 Page:188
          *** CROSS REFERENCE LISTING ***
**     DENOTES     IDENTIFIER DEFINITION
<<                 IDENTIFIER'S VALUE SET
>>                 IDENTIFIER'S VALUE USED
<>                 IDENTIFIER SET AND/OR USED
--                 IDENTIFIER REFERENCED
PL6.E3A0      #003=FMG$IRSETUP File=FMG$UTIL.:E05TSI                             TUE 07/29/97 16:46 Page:189
          MINI XREF LISTING

ALTKEY$
      5514**DCL      5451--IMP-PTR  5536<>CALL     5538>>ASSIGN   5539>>ASSIGN   5540>>ASSIGN   5541>>ASSIGN
      5561>>ASSIGN   5563>>ASSIGN   5565>>ASSIGN   5568>>ASSIGN   5568>>ASSIGN   5574>>ASSIGN   5574>>ASSIGN
      5582>>ASSIGN   5583<>CALL
B$JIT.CPFLAGS1.SLEAZE
      1489**DCL      1489--REDEF
B$JIT.DCB$
      1563**DCL      5530>>ASSIGN
B$JIT.ERR.MID
      1396**DCL      1396--REDEF
B$JIT.JRESPEAK
      1557**DCL      1558--REDEF
B$JIT.ORIGINATOR_PORT.FROM_CR
      1666**DCL      1666--REDEF    1667--REDEF
B$JIT.PNR
      1570**DCL      1570--REDEF
B$JIT.TSLINE
      1664**DCL      1665--REDEF
B$JIT$
      5527**DCL      1390--IMP-PTR  5530>>ASSIGN
B$ROSEG$
      5528**DCL      5541>>ASSIGN   5557>>ASSIGN
BLOCK
      5521**DCL      5538<<ASSIGN   5554<<ASSIGN
ERR
      5580**LABEL    5536--CALLALT  5552--CALLALT
F$DCB.ACTPOS
      5486**DCL      5486--REDEF
F$DCB.ALTKEYX
      5484**DCL      5541<<ASSIGN   5580>>IF       5584<<ASSIGN
F$DCB.ARS
      5461**DCL      5461--REDEF
PL6.E3A0      #003=FMG$IRSETUP File=FMG$UTIL.:E05TSI                             TUE 07/29/97 16:46 Page:190
F$DCB.ATTR
      5479**DCL      5480--REDEF
F$DCB.BORROW
      5494**DCL      5494--REDEF    5494--REDEF    5494--REDEF
F$DCB.DCBNAME.L
      5508**DCL      5508--IMP-SIZ
F$DCB.EOMCHAR
      5465**DCL      5465--REDEF
F$DCB.FLDID
      5489**DCL      5489--REDEF
F$DCB.FORM$
      5483**DCL      5483--REDEF
F$DCB.FSECT
      5499**DCL      5499--REDEF
F$DCB.FSN
      5476**DCL      5476--REDEF    5476--REDEF    5477--REDEF
F$DCB.HEADER$
      5482**DCL      5482--REDEF
F$DCB.IXTNSIZE
      5480**DCL      5480--REDEF
F$DCB.KFIELDX
      5486**DCL      5557<<ASSIGN
F$DCB.LASTSTA$
      5470**DCL      5470--REDEF
F$DCB.LVL
      5495**DCL      5495--REDEF
F$DCB.NAME.C
      5470**DCL      5470--REDEF
F$DCB.NOEOF
      5491**DCL      5491--REDEF
F$DCB.NRECS
      5481**DCL      5481--REDEF
F$DCB.NRECX
      5500**DCL      5500--REDEF
F$DCB.OHDR
      5492**DCL      5492--REDEF
PL6.E3A0      #003=FMG$IRSETUP File=FMG$UTIL.:E05TSI                             TUE 07/29/97 16:46 Page:191
F$DCB.ORG
      5475**DCL      5475--REDEF
F$DCB.PRECNO
      5498**DCL      5498--REDEF
F$DCB.RCSZ
      5503**DCL      5503--REDEF
F$DCB.RES
      5471**DCL      5471--REDEF
F$DCB.SETX
      5483**DCL      5483--REDEF
F$DCB.TAB$
      5482**DCL      5483--REDEF
F$DCB.TDA
      5497**DCL      5497--REDEF
F$DCB.WSN
      5472**DCL      5472--REDEF
FSA$FSP
      5525**DCL-ENT  5583--CALL
FSA$GSP
      5524**DCL-ENT  5536--CALL     5552--CALL
I
      5516**DCL      5544<<DOINDEX  5560<<DOINDEX  5561>>ASSIGN   5563>>ASSIGN   5564>>IF       5565>>ASSIGN
      5568>>ASSIGN   5568>>ASSIGN   5574>>ASSIGN   5574>>ASSIGN
IRKEYS.K
      5452**DCL      5535--ASSIGN
IRKEYS.K.FIRSTFIELD
      5452**DCL      5561<<ASSIGN
IRKEYS.K.NFIELDS
      5452**DCL      5568<<ASSIGN   5568>>ASSIGN   5574<<ASSIGN   5574>>ASSIGN
IRKEYS.K.UNIQUE
      5453**DCL      5563<<ASSIGN   5565<<ASSIGN
IRKEYS.NKEYS
      5451**DCL      5540<<ASSIGN
IRKEYS.NWORDS
      5451**DCL      5539<<ASSIGN   5582>>ASSIGN
JDCB$
PL6.E3A0      #003=FMG$IRSETUP File=FMG$UTIL.:E05TSI                             TUE 07/29/97 16:46 Page:192
      5511**DCL      5461--IMP-PTR  5530<<ASSIGN   5541>>ASSIGN   5557>>ASSIGN   5580>>IF       5584>>ASSIGN
K
      5512**DCL      5522--IMP-SIZ  5535<<ASSIGN   5536<>CALL     5537<<ASSIGN   5537>>ASSIGN   5538>>ASSIGN
      5539>>ASSIGN   5551<<ASSIGN   5552<>CALL     5553<<ASSIGN   5553>>ASSIGN   5554>>ASSIGN   5555>>ASSIGN
      5582<<ASSIGN   5583<>CALL
KFIELD.FIELD
      5458**DCL      5567<<ASSIGN   5573<<ASSIGN
KFIELD.NFIELDS
      5458**DCL      5556<<ASSIGN
KFIELD.NWORDS
      5458**DCL      5555<<ASSIGN
KFIELD$
      5519**DCL      5458--IMP-PTR  5552<>CALL     5554>>ASSIGN   5555>>ASSIGN   5556>>ASSIGN   5557>>ASSIGN
      5567>>ASSIGN   5573>>ASSIGN
N
      5515**DCL      5543<<ASSIGN   5546>>ASSIGN   5547<<ASSIGN   5547>>ASSIGN   5551>>ASSIGN   5556>>ASSIGN
      5559<<ASSIGN   5561>>ASSIGN   5562>>ASSIGN   5567>>ASSIGN   5571<<ASSIGN   5571>>ASSIGN   5572>>ASSIGN
      5573>>ASSIGN   5576<<ASSIGN   5576>>ASSIGN
NKEYS
      5513**DCL      5532<<ASSIGN   5533>>IF       5534<<ASSIGN   5535>>ASSIGN   5540>>ASSIGN   5544>>DOINDEX
      5560>>DOINDEX
VLP$IRKEYS
      5431**DCL        42--PROC
VLP$IRKEYS.K
      5431**DCL      5546>>ASSIGN   5562>>ASSIGN   5572>>ASSIGN
VLP$IRKEYS.NKEYS#
      5431**DCL      5532>>ASSIGN
VLP_IRKEYS.K
      5446**DCL      5546<<ASSIGN   5562<<ASSIGN   5572<<ASSIGN
VLP_IRKEYS.K.FIELDN#
      5447**DCL      5567>>ASSIGN   5573>>ASSIGN
VLP_IRKEYS.K.KEYEND#
      5446**DCL      5545>>DOUNTIL  5570>>DOWHILE
VLP_IRKEYS.K.UNIQUE#
      5447**DCL      5563>>ASSIGN
PL6.E3A0      #003=FMG$IRSETUP File=FMG$UTIL.:E05TSI                             TUE 07/29/97 16:46 Page:193
              *** CROSS REFERENCE LISTING ***
    **     DENOTES     IDENTIFIER DEFINITION
    <<                 IDENTIFIER'S VALUE SET
    >>                 IDENTIFIER'S VALUE USED
    <>                 IDENTIFIER SET AND/OR USED
    --                 IDENTIFIER REFERENCED
PL6.E3A0      #003=FMG$IRSETUP File=FMG$UTIL.:E05TSI                             TUE 07/29/97 16:46 Page:194
              MINI UREF LISTING

FMG$IRSETUP      42**PROC
LEN    5517**DCL
START    5518**DCL
