PL6.E3A0      #002=FMH$MAPJRNL File=FMH$CONSEC.:E05TSI                           TUE 07/29/97 16:49 Page:220
     1347        1        /*T***********************************************************/
     1348        2        /*T*                                                         */
     1349        3        /*T* Copyright (c) Bull HN Information Systems Inc., 1997    */
     1350        4        /*T*                                                         */
     1351        5        /*T***********************************************************/
     1352        6        /*F*    NAME:    FMH$MAPJRNL
     1353        7        *       PURPOSE:  Map the current journal buffer page into
     1354        8        *                 a pool buffer slot */
     1355        9        /**/
     1356       10        /**/
     1357       11        /**/
     1358       12        /*D*    NAME:    FMH$MAPJRNL
     1359       13        *       CALL:    CALL FMH$MAPJRNL(BUFNUM,BUF$);
     1360       14        *       INPUT:   BUFNUM - The buffer number to map into
     1361       15        *       OUTPUT:  BUF$ - Pointer to the buffer (optional)
     1362       16        *       DESCRIPTION:  If no buffer exists in the BUFNUM slot,
     1363       17        *                a buffer slot is obtained via MMJ$MAPIOP.
     1364       18        *                This CVM's onto the current buffer page.
     1365       19        *                If BUF$ was specified, it is set.
     1366       20        */
     1367       21        /**/
     1368       22        /**/
     1369       23        FMH$MAPJRNL: PROC(BUFNUM,BUF$);
     1370       24        /* PARAMETERS */
     1371       25    1   DCL BUFNUM UBIN;
     1372       26    1   DCL BUF$ PTR;
     1373       27        /* EXTERNAL ROUTINES */
     1374       28    1   DCL MMJ$UNMAPIOP ENTRY(1);
     1375       29    1   DCL MMJ$MAPIOP ENTRY(2);
     1376       30    1   DCL SC_FMH89 ENTRY CONV(2,0);
     1377       31        /* LOCAL AUTOMATIC STORAGE */
     1378       32    1   DCL JDCB$ PTR;
     1379       33    1   DCL CFU$ PTR;
     1380       34    1   DCL VPNO SBIN;
     1381       35    1   DCL PP SBIN;
     1382       36        /* INCLUDE FILES */
     1383       37        %INCLUDE F$JIT_C;
PL6.E3A0      #002=FMH$MAPJRNL File=FMH$CONSEC.:E05TSI                           TUE 07/29/97 16:49 Page:221
     1384      467        %INCLUDE F_MACROS_C;
     1385      478        %INCLUDE M_INFO_C;
     1386      618        %INCLUDE B$MAP;
     1387      717        %MACRO F$DCBMAC(BASED=BASED);
     1388      718        %INCLUDE F$DCB;
     1389      767        %MEND;
     1390      768        %INCLUDE FM$CFU;
     1391      813        %INCLUDE HF_DATA_R;
     1392      856        /* EXTERNAL DATA */
     1393      857    1   DCL B$JIT$ PTR SYMREF READONLY;
     1394      858    1   DCL FM$BUF$(0:0) PTR SYMREF;
     1395      859    1   DCL B$UPT$ PTR SYMREF READONLY;
     1396      860    1   DCL B$IPHYMAP$ PTR SYMREF READONLY;
     1397      861        /* BASED STRUCTURES */
     1398      862        %F$DCBMAC (BASED="BASED(JDCB$)");
     1399      912        %FM$CFUJ (BASED="BASED(CFU$)");
     1400      917        %FM$CFU  (BASED="BASED(CFU$)");
     1401      923        /**/
     1402      924        /**/
     1403      925    1           JDCB$=B$JIT.DCB$;
     1404      926    1           CFU$=F$DCB.CFU$;
     1405      927    1           VPNO=F$DCB.BFR.BUFX(BUFNUM);
     1406      928    1           PP=FM$CFUJ.PAGE#;               /* CURRENT PAGE #                     */
     1407      929    2           IF VPNO ~= 0 THEN DO;
     1408      930    2              IF HW_WSQ0PT THEN
     1409      931    2                 IF B$IPHYMAP$->MM$IPHY_MAP(B$UPT$->B$MAP.RPN(VPNO+%FMSEGLO-1)) = PP
     1410      932    2                 THEN
     1411      933    2                    GOTO RETBUF;
     1412      934    2                 ELSE;
     1413      935    2              ELSE
     1414      936    2                 IF B$UPT$->B$MAP.RPN(VPNO+%FMSEGLO-1) = PP
     1415      937    2              THEN
     1416      938    2                 GOTO RETBUF;
     1417      939    2              CALL MMJ$UNMAPIOP (VPNO);
     1418      940    2              END;
     1419      941    1           IF PP=0 THEN GOTO CVMERR;       /* MUST HAVE PAGE                     */
     1420      942    1           CALL MMJ$MAPIOP (VPNO , PP);
PL6.E3A0      #002=FMH$MAPJRNL File=FMH$CONSEC.:E05TSI                           TUE 07/29/97 16:49 Page:222
     1421      943    1   RETBUF: F$DCB.BFR.BUFX (BUFNUM) = VPNO;
     1422      944    1           F$DCB.BFR.CVM (BUFNUM) = '1'B;
     1423      945    1           F$DCB.BFR.DA(BUFNUM)=FM$CFU.LDA;
     1424      946    1           F$DCB.BFR.BUFUP(BUFNUM)=FM$CFUJ.UPD;
     1425      947    1           F$DCB.BFR1.SIZ(BUFNUM)=1;
     1426      948    1           IF ADDR(BUF$)~=ADDR(NIL) THEN
     1427      949    1              BUF$ = FM$BUF$ (VPNO);
     1428      950    1           RETURN;
     1429      951        /**/
     1430      952    1   CVMERR: CALL SC_FMH89;
     1431      953        /*S*    SCREECH_CODE:  FMH-S$FM89
     1432      954        *       TYPE:  SUA
     1433      955        *       MESSAGE:  Error trying to CVM onto JRNL file page
     1434      956        */
     1435      957    1   END FMH$MAPJRNL;
     1436      958        %EOD;

PL6.E3A0      #002=FMH$MAPJRNL File=FMH$CONSEC.:E05TSI                           TUE 07/29/97 16:49 Page:223
--  Include file information  --

   HF_DATA_R.:E05TOU  cannot be made into a system file and is referenced.
   FM$CFU.:E05TOU  is referenced.
   F$DCB.:E05TOU  is referenced.
   B$MAP.:E05TOU  cannot be made into a system file and is referenced.
   M_INFO_C.:E05TOU  is referenced.
   F_MACROS_C.:E05TOU  is referenced.
   B$JIT_C.:E05TOU  is referenced.
   F$JIT_C.:E05TOU  cannot be made into a system file and is referenced.
      No diagnostics issued in procedure FMH$MAPJRNL.

   Procedure FMH$MAPJRNL requires 96 words for executable code.
   Procedure FMH$MAPJRNL requires 12 words of local(AUTO) storage.

PL6.E3A0      #002=FMH$MAPJRNL File=FMH$CONSEC.:E05TSI                           TUE 07/29/97 16:49 Page:224

 Object Unit name= FMH$MAPJRNL                                File name= FMH$CONSEC.:E05TOU
 UTS= JUL 29 '97 16:49:00.92 TUE                              Compiler= PL-6/E31         Sev=      00
 SharedLib= :SHARED_SYSTEM                                    Alt SharedLib=


    ****  Control sections  ****

 Sect   Type Bound  Init  Size OctSiz  Section name(segment info)
    0   Proc  even  none    96    140  FMH$MAPJRNL
    1  RoData even  none     1      1  FMH$MAPJRNL

    ****  Entry defs  ****

                              Check   Calling
                             calling  sequence
  Sect OctLoc Primary Altret sequence   type   Parms  Name
     0      0   yes            yes      Std        2  FMH$MAPJRNL

  ****  Entry refs  ****

         Check        Calling
        calling       sequence
Altret sequence SRef   type   Args  Name
         yes           Std       1 MMJ$UNMAPIOP
         yes           Std       2 MMJ$MAPIOP
                       nStd      0 X66_AUTO_2
                       Std       0 B_CONSPOOL_D
                       nStd      0 X66_ARET

  ****  Data refs  ****

  Flags:  r = read only, s = secondary
Flgs Name                             Flgs Name                             Flgs Name
     SC_FMH89                              HW_WSQ0PT                        r    B$JIT$
     FM$BUF$                          r    B$UPT$                           r    B$IPHYMAP$
     B_VECTNIL
PL6.E3A0      #002=FMH$MAPJRNL File=FMH$CONSEC.:E05TSI                           TUE 07/29/97 16:49 Page:225

  ****  Segment refs  ****

  Flags:  r = read only, s = secondary
Flgs Name                             Flgs Name                             Flgs Name
     ASLENTSID
PL6.E3A0      #002=FMH$MAPJRNL File=FMH$CONSEC.:E05TSI                           TUE 07/29/97 16:49 Page:226


     1347        1        /*T***********************************************************/
     1348        2        /*T*                                                         */
     1349        3        /*T* Copyright (c) Bull HN Information Systems Inc., 1997    */
     1350        4        /*T*                                                         */
     1351        5        /*T***********************************************************/
     1352        6        /*F*    NAME:    FMH$MAPJRNL
     1353        7        *       PURPOSE:  Map the current journal buffer page into
     1354        8        *                 a pool buffer slot */
     1355        9        /**/
     1356       10        /**/
     1357       11        /**/
     1358       12        /*D*    NAME:    FMH$MAPJRNL
     1359       13        *       CALL:    CALL FMH$MAPJRNL(BUFNUM,BUF$);
     1360       14        *       INPUT:   BUFNUM - The buffer number to map into
     1361       15        *       OUTPUT:  BUF$ - Pointer to the buffer (optional)
     1362       16        *       DESCRIPTION:  If no buffer exists in the BUFNUM slot,
     1363       17        *                a buffer slot is obtained via MMJ$MAPIOP.
     1364       18        *                This CVM's onto the current buffer page.
     1365       19        *                If BUF$ was specified, it is set.
     1366       20        */
     1367       21        /**/
     1368       22        /**/
     1369       23        FMH$MAPJRNL: PROC(BUFNUM,BUF$);

     23  0 000000   000000 700200 xent  FMH$MAPJRNL  TSX0  ! X66_AUTO_2
         0 000001   000014 000002                    ZERO    12,2

     1370       24        /* PARAMETERS */
     1371       25    1   DCL BUFNUM UBIN;
     1372       26    1   DCL BUF$ PTR;
     1373       27        /* EXTERNAL ROUTINES */
     1374       28    1   DCL MMJ$UNMAPIOP ENTRY(1);
     1375       29    1   DCL MMJ$MAPIOP ENTRY(2);
     1376       30    1   DCL SC_FMH89 ENTRY CONV(2,0);
     1377       31        /* LOCAL AUTOMATIC STORAGE */
     1378       32    1   DCL JDCB$ PTR;
PL6.E3A0      #002=FMH$MAPJRNL File=FMH$CONSEC.:E05TSI                           TUE 07/29/97 16:49 Page:227
     1379       33    1   DCL CFU$ PTR;
     1380       34    1   DCL VPNO SBIN;
     1381       35    1   DCL PP SBIN;
     1382       36        /* INCLUDE FILES */
     1383       37        %INCLUDE F$JIT_C;
     1384      467        %INCLUDE F_MACROS_C;
     1385      478        %INCLUDE M_INFO_C;
     1386      618        %INCLUDE B$MAP;
     1387      717        %MACRO F$DCBMAC(BASED=BASED);
     1388      718        %INCLUDE F$DCB;
     1389      767        %MEND;
     1390      768        %INCLUDE FM$CFU;
     1391      813        %INCLUDE HF_DATA_R;
     1392      856        /* EXTERNAL DATA */
     1393      857    1   DCL B$JIT$ PTR SYMREF READONLY;
     1394      858    1   DCL FM$BUF$(0:0) PTR SYMREF;
     1395      859    1   DCL B$UPT$ PTR SYMREF READONLY;
     1396      860    1   DCL B$IPHYMAP$ PTR SYMREF READONLY;
     1397      861        /* BASED STRUCTURES */
     1398      862        %F$DCBMAC (BASED="BASED(JDCB$)");
     1399      912        %FM$CFUJ (BASED="BASED(CFU$)");
     1400      917        %FM$CFU  (BASED="BASED(CFU$)");
     1401      923        /**/
     1402      924        /**/
     1403      925    1           JDCB$=B$JIT.DCB$;

    925  0 000002   000000 470400 xsym               LDP0    B$JIT$
         0 000003   000232 236100                    LDQ     154,,PR0
         0 000004   200005 756100                    STQ     JDCB$,,AUTO

     1404      926    1           CFU$=F$DCB.CFU$;

    926  0 000005   200005 471500                    LDP1    JDCB$,,AUTO
         0 000006   100066 236100                    LDQ     54,,PR1
         0 000007   200006 756100                    STQ     CFU$,,AUTO

     1405      927    1           VPNO=F$DCB.BFR.BUFX(BUFNUM);
PL6.E3A0      #002=FMH$MAPJRNL File=FMH$CONSEC.:E05TSI                           TUE 07/29/97 16:49 Page:228

    927  0 000010   200003 473500                    LDP3    @BUFNUM,,AUTO
         0 000011   300000 720100                    LXL0    0,,PR3
         0 000012   100115 236110                    LDQ     77,X0,PR1
         0 000013   000033 772000                    QRL     27
         0 000014   000037 376007                    ANQ     31,DL
         0 000015   200007 756100                    STQ     VPNO,,AUTO

     1406      928    1           PP=FM$CFUJ.PAGE#;               /* CURRENT PAGE #                     */

    928  0 000016   200006 474500                    LDP4    CFU$,,AUTO
         0 000017   400005 236100                    LDQ     5,,PR4
         0 000020   777777 376007                    ANQ     -1,DL
         0 000021   200010 756100                    STQ     PP,,AUTO

     1407      929    2           IF VPNO ~= 0 THEN DO;

    929  0 000022   200007 235100                    LDA     VPNO,,AUTO
         0 000023   000055 600000 0                  TZE     s:941

     1408      930    2              IF HW_WSQ0PT THEN

    930  0 000024   000000 234000 xsym               SZN     HW_WSQ0PT
         0 000025   000042 605000 0                  TPL     s:936

     1409      931    2                 IF B$IPHYMAP$->MM$IPHY_MAP(B$UPT$->B$MAP.RPN(VPNO+%FMSEGLO-1)) = PP

    931  0 000026   000000 475400 xsym               LDP5    B$UPT$
         0 000027   500017 236105                    LDQ     15,AL,PR5
         0 000030   000022 772000                    QRL     18
         0 000031   000001 736000                    QLS     1
         0 000032   000000 476400 xsym               LDP6    B$IPHYMAP$
         0 000033   000100 101506                    MRL     fill='000'O
         0 000034   600000 000002                    ADSC9   0,Q,PR6                  cn=0,n=2
         0 000035   200012 000004                    ADSC9   PP+2,,AUTO               cn=0,n=4
         0 000036   200012 236100                    LDQ     PP+2,,AUTO
         0 000037   200010 116100                    CMPQ    PP,,AUTO
PL6.E3A0      #002=FMH$MAPJRNL File=FMH$CONSEC.:E05TSI                           TUE 07/29/97 16:49 Page:229
         0 000040   000067 600000 0                  TZE     RETBUF
         0 000041   000047 710000 0                  TRA     s:939

     1410      932    2                 THEN
     1411      933    2                    GOTO RETBUF;
     1412      934    2                 ELSE;
     1413      935    2              ELSE
     1414      936    2                 IF B$UPT$->B$MAP.RPN(VPNO+%FMSEGLO-1) = PP

    936  0 000042   000000 475400 xsym               LDP5    B$UPT$
         0 000043   500017 236105                    LDQ     15,AL,PR5
         0 000044   000022 772000                    QRL     18
         0 000045   200010 116100                    CMPQ    PP,,AUTO
         0 000046   000067 600000 0                  TZE     RETBUF

     1415      937    2              THEN
     1416      938    2                 GOTO RETBUF;
     1417      939    2              CALL MMJ$UNMAPIOP (VPNO);

    939  0 000047   200007 636500                    EPPR6   VPNO,,AUTO
         0 000050   200012 456500                    STP6    PP+2,,AUTO
         0 000051   200012 630500                    EPPR0   PP+2,,AUTO
         0 000052   000017 631400 xsym               EPPR1   B_VECTNIL+15
         0 000053   000000 701000 xent               TSX1    MMJ$UNMAPIOP
         0 000054   000000 011000                    NOP     0

     1418      940    2              END;

     1419      941    1           IF PP=0 THEN GOTO CVMERR;       /* MUST HAVE PAGE                     */

    941  0 000055   200010 235100                    LDA     PP,,AUTO
         0 000056   000135 600000 0                  TZE     CVMERR

     1420      942    1           CALL MMJ$MAPIOP (VPNO , PP);

    942  0 000057   200010 630500                    EPPR0   PP,,AUTO
         0 000060   200013 450500                    STP0    PP+3,,AUTO
PL6.E3A0      #002=FMH$MAPJRNL File=FMH$CONSEC.:E05TSI                           TUE 07/29/97 16:49 Page:230
         0 000061   200007 631500                    EPPR1   VPNO,,AUTO
         0 000062   200012 451500                    STP1    PP+2,,AUTO
         0 000063   200012 630500                    EPPR0   PP+2,,AUTO
         0 000064   000020 631400 xsym               EPPR1   B_VECTNIL+16
         0 000065   000000 701000 xent               TSX1    MMJ$MAPIOP
         0 000066   000000 011000                    NOP     0

     1421      943    1   RETBUF: F$DCB.BFR.BUFX (BUFNUM) = VPNO;

    943  0 000067   200003 470500       RETBUF       LDP0    @BUFNUM,,AUTO
         0 000070   000000 720100                    LXL0    0,,PR0
         0 000071   200005 471500                    LDP1    JDCB$,,AUTO
         0 000072   200007 236100                    LDQ     VPNO,,AUTO
         0 000073   000033 736000                    QLS     27
         0 000074   100115 676110                    ERQ     77,X0,PR1
         0 000075   037000 376003                    ANQ     15872,DU
         0 000076   100115 656110                    ERSQ    77,X0,PR1

     1422      944    1           F$DCB.BFR.CVM (BUFNUM) = '1'B;

    944  0 000077   000000 720100                    LXL0    0,,PR0
         0 000100   040000 236003                    LDQ     16384,DU
         0 000101   100115 256110                    ORSQ    77,X0,PR1

     1423      945    1           F$DCB.BFR.DA(BUFNUM)=FM$CFU.LDA;

    945  0 000102   000000 720100                    LXL0    0,,PR0
         0 000103   200006 473500                    LDP3    CFU$,,AUTO
         0 000104   300006 235100                    LDA     6,,PR3
         0 000105   300007 236100                    LDQ     7,,PR3
         0 000106   000033 773000                    LRL     27
         0 000107   000032 376000 xsym               ANQ     B_VECTNIL+26
         0 000110   100115 676110                    ERQ     77,X0,PR1
         0 000111   000032 376000 xsym               ANQ     B_VECTNIL+26
         0 000112   100115 656110                    ERSQ    77,X0,PR1

     1424      946    1           F$DCB.BFR.BUFUP(BUFNUM)=FM$CFUJ.UPD;
PL6.E3A0      #002=FMH$MAPJRNL File=FMH$CONSEC.:E05TSI                           TUE 07/29/97 16:49 Page:231

    946  0 000113   000000 720100                    LXL0    0,,PR0
         0 000114   300005 236100                    LDQ     5,,PR3
         0 000115   100115 676110                    ERQ     77,X0,PR1
         0 000116   400000 376003                    ANQ     -131072,DU
         0 000117   100115 656110                    ERSQ    77,X0,PR1

     1425      947    1           F$DCB.BFR1.SIZ(BUFNUM)=1;

    947  0 000120   000000 720100                    LXL0    0,,PR0
         0 000121   100122 236110                    LDQ     82,X0,PR1
         0 000122   000000 376000 1                  ANQ     0
         0 000123   000001 276003                    ORQ     1,DU
         0 000124   100122 756110                    STQ     82,X0,PR1

     1426      948    1           IF ADDR(BUF$)~=ADDR(NIL) THEN

    948  0 000125   200004 236100                    LDQ     @BUF$,,AUTO
         0 000126   000001 116000 xsym               CMPQ    B_VECTNIL+1
         0 000127   000134 600000 0                  TZE     s:950

     1427      949    1              BUF$ = FM$BUF$ (VPNO);

    949  0 000130   200007 720100                    LXL0    VPNO,,AUTO
         0 000131   000000 236010 xsym               LDQ     FM$BUF$,X0
         0 000132   200004 474500                    LDP4    @BUF$,,AUTO
         0 000133   400000 756100                    STQ     0,,PR4

     1428      950    1           RETURN;

    950  0 000134   000000 702200 xent               TSX2  ! X66_ARET

     1429      951        /**/
     1430      952    1   CVMERR: CALL SC_FMH89;

    952  0 000135   000000 713400 xsym  CVMERR       CLIMB   SC_FMH89
         0 000136   000000 600000 xsid               climb   nvectors=         0
PL6.E3A0      #002=FMH$MAPJRNL File=FMH$CONSEC.:E05TSI                           TUE 07/29/97 16:49 Page:232

     1431      953        /*S*    SCREECH_CODE:  FMH-S$FM89
     1432      954        *       TYPE:  SUA
     1433      955        *       MESSAGE:  Error trying to CVM onto JRNL file page
     1434      956        */
     1435      957    1   END FMH$MAPJRNL;

    957  0 000137   000000 702200 xent               TSX2  ! X66_ARET

(unnamed)
 Sect OctLoc
   1     000   777000 777777                                                    ....
     1436      958        %EOD;

PL6.E3A0      #002=FMH$MAPJRNL File=FMH$CONSEC.:E05TSI                           TUE 07/29/97 16:49 Page:233
--  Include file information  --

   HF_DATA_R.:E05TOU  cannot be made into a system file and is referenced.
   FM$CFU.:E05TOU  is referenced.
   F$DCB.:E05TOU  is referenced.
   B$MAP.:E05TOU  cannot be made into a system file and is referenced.
   M_INFO_C.:E05TOU  is referenced.
   F_MACROS_C.:E05TOU  is referenced.
   B$JIT_C.:E05TOU  is referenced.
   F$JIT_C.:E05TOU  cannot be made into a system file and is referenced.
      No diagnostics issued in procedure FMH$MAPJRNL.
PL6.E3A0      #002=FMH$MAPJRNL File=FMH$CONSEC.:E05TSI                           TUE 07/29/97 16:49 Page:234

 **** Variables and constants ****

  ****  Auto variables  ****

  ****  Scalars and arrays  ****
OctLoc.c.b A Datatyp(siz) R M Lvl/name                 OctLoc.c.b A Datatyp(siz) R M Lvl/name

     4-0-0/w PTR         r     1 @BUF$                      3-0-0/w PTR         r     1 @BUFNUM
    *0-0-0/w PTR         r     1 BUF$                      *0-0-0/w UBIN        r     1 BUFNUM
     6-0-0/w PTR         r     1 CFU$                       5-0-0/w PTR         r     1 JDCB$
    10-0-0/w SBIN        r     1 PP                         7-0-0/w SBIN        r     1 VPNO

  ****  SYMREF variables  ****

  ****  Scalars and arrays  ****
OctLoc.c.b A Datatyp(siz) R M Lvl/name                 OctLoc.c.b A Datatyp(siz) R M Lvl/name

     0-0-0/w PTR         r     1 B$IPHYMAP$                 0-0-0/w PTR         r     1 B$JIT$
     0-0-0/w PTR         r     1 B$UPT$
     0-0-0/w PTR         r     1 FM$BUF$(0:0)
     0-0-0/w BIT         r     1 HW_WSQ0PT

  ****  BASED and DCB variables  ****

  ****  Scalars and arrays  ****
OctLoc.c.b A Datatyp(siz) R M Lvl/name                 OctLoc.c.b A Datatyp(siz) R M Lvl/name

     0-0-0/d STRC(8856)  r     1 B$JIT                      0-0-0/w STRC        r     1 B$MAP(0:1023)
     0-0-0/d ASTR(3528)  r     1 F$DCB                      0-0-0/w STRC(288)   r     1 FM$CFU
     0-0-0/w STRC(288)   r     1 FM$CFUJ
     0-0-0/h UBIN(18)    r     1 MM$IPHY_MAP(0:0)


   Procedure FMH$MAPJRNL requires 96 words for executable code.
   Procedure FMH$MAPJRNL requires 12 words of local(AUTO) storage.
PL6.E3A0      #002=FMH$MAPJRNL File=FMH$CONSEC.:E05TSI                           TUE 07/29/97 16:49 Page:235
          *** CROSS REFERENCE LISTING ***
**     DENOTES     IDENTIFIER DEFINITION
<<                 IDENTIFIER'S VALUE SET
>>                 IDENTIFIER'S VALUE USED
<>                 IDENTIFIER SET AND/OR USED
--                 IDENTIFIER REFERENCED
PL6.E3A0      #002=FMH$MAPJRNL File=FMH$CONSEC.:E05TSI                           TUE 07/29/97 16:49 Page:236
          MINI XREF LISTING

B$IPHYMAP$
       860**DCL       931>>IF
B$JIT.DCB$
       454**DCL       925>>ASSIGN
B$JIT.ERR.MID
       365**DCL       365--REDEF
B$JIT$
       857**DCL       359--IMP-PTR   925>>ASSIGN
B$MAP.RPN
       660**DCL       931>>IF        936>>IF
B$MAP.SCTRL
       661**DCL       662--REDEF
B$UPT$
       859**DCL       931>>IF        936>>IF
BUF$
        26**DCL        23--PROC      948--IF        949<<ASSIGN
BUFNUM
        25**DCL        23--PROC      927>>ASSIGN    943>>ASSIGN    944>>ASSIGN    945>>ASSIGN    946>>ASSIGN
       947>>ASSIGN
CFU$
        33**DCL       913--IMP-PTR   918--IMP-PTR   926<<ASSIGN    928>>ASSIGN    945>>ASSIGN    946>>ASSIGN
CVMERR
       952**LABEL     941--GOTO
F$DCB.ACTPOS
       888**DCL       888--REDEF
F$DCB.ARS
       863**DCL       863--REDEF
F$DCB.ATTR
       881**DCL       882--REDEF
F$DCB.BFR.BUFUP
       907**DCL       946<<ASSIGN
F$DCB.BFR.BUFX
PL6.E3A0      #002=FMH$MAPJRNL File=FMH$CONSEC.:E05TSI                           TUE 07/29/97 16:49 Page:237
       908**DCL       927>>ASSIGN    943<<ASSIGN
F$DCB.BFR.CVM
       908**DCL       944<<ASSIGN
F$DCB.BFR.DA
       908**DCL       945<<ASSIGN
F$DCB.BFR1.SIZ
       908**DCL       947<<ASSIGN
F$DCB.BORROW
       896**DCL       896--REDEF     896--REDEF     896--REDEF
F$DCB.CFU$
       897**DCL       926>>ASSIGN
F$DCB.DCBNAME.L
       910**DCL       910--IMP-SIZ
F$DCB.EOMCHAR
       867**DCL       867--REDEF
F$DCB.FLDID
       891**DCL       891--REDEF
F$DCB.FORM$
       885**DCL       885--REDEF
F$DCB.FSECT
       901**DCL       901--REDEF
F$DCB.FSN
       878**DCL       878--REDEF     878--REDEF     879--REDEF
F$DCB.HEADER$
       884**DCL       884--REDEF
F$DCB.IXTNSIZE
       882**DCL       882--REDEF
F$DCB.LASTSTA$
       872**DCL       872--REDEF
F$DCB.LVL
       897**DCL       897--REDEF
F$DCB.NAME.C
       872**DCL       872--REDEF
F$DCB.NOEOF
       893**DCL       893--REDEF
F$DCB.NRECS
PL6.E3A0      #002=FMH$MAPJRNL File=FMH$CONSEC.:E05TSI                           TUE 07/29/97 16:49 Page:238
       883**DCL       883--REDEF
F$DCB.NRECX
       902**DCL       902--REDEF
F$DCB.OHDR
       894**DCL       894--REDEF
F$DCB.ORG
       877**DCL       877--REDEF
F$DCB.PRECNO
       900**DCL       900--REDEF
F$DCB.RCSZ
       905**DCL       905--REDEF
F$DCB.RES
       873**DCL       873--REDEF
F$DCB.SETX
       885**DCL       885--REDEF
F$DCB.TAB$
       884**DCL       885--REDEF
F$DCB.TDA
       899**DCL       899--REDEF
F$DCB.WSN
       874**DCL       874--REDEF
FM$BUF$
       858**DCL       949>>ASSIGN
FM$CFU.ACCTX
       919**DCL       919--REDEF
FM$CFU.LDA
       921**DCL       945>>ASSIGN
FM$CFUJ.PAGE#
       914**DCL       928>>ASSIGN
FM$CFUJ.UPD
       913**DCL       946>>ASSIGN
HW_WSQ0PT
       851**DCL       930>>IF
JDCB$
        32**DCL       863--IMP-PTR   925<<ASSIGN    926>>ASSIGN    927>>ASSIGN    943>>ASSIGN    944>>ASSIGN
       945>>ASSIGN    946>>ASSIGN    947>>ASSIGN
PL6.E3A0      #002=FMH$MAPJRNL File=FMH$CONSEC.:E05TSI                           TUE 07/29/97 16:49 Page:239
MM$IPHY_MAP
       715**DCL       931>>IF
MMJ$MAPIOP
        29**DCL-ENT   942--CALL
MMJ$UNMAPIOP
        28**DCL-ENT   939--CALL
PP
        35**DCL       928<<ASSIGN    931>>IF        936>>IF        941>>IF        942<>CALL
RETBUF
       943**LABEL     933--GOTO      938--GOTO
SC_FMH89
        30**DCL-ENT   952--CALL
VPNO
        34**DCL       927<<ASSIGN    929>>IF        931>>IF        936>>IF        939<>CALL      942<>CALL
       943>>ASSIGN    949>>ASSIGN
PL6.E3A0      #002=FMH$MAPJRNL File=FMH$CONSEC.:E05TSI                           TUE 07/29/97 16:49 Page:240
              *** CROSS REFERENCE LISTING ***
    **     DENOTES     IDENTIFIER DEFINITION
    <<                 IDENTIFIER'S VALUE SET
    >>                 IDENTIFIER'S VALUE USED
    <>                 IDENTIFIER SET AND/OR USED
    --                 IDENTIFIER REFERENCED
PL6.E3A0      #002=FMH$MAPJRNL File=FMH$CONSEC.:E05TSI                           TUE 07/29/97 16:49 Page:241
              MINI UREF LISTING

B$PAGE     710**DCL
B$SECT     700**DCL
EPU_MASK     849**DCL
FMH$MAPJRNL      23**PROC
HW_CHANS     854**DCL
HW_EDAC     854**DCL
HW_EI     853**DCL
HW_ES     853**DCL
HW_EXT_STATUS     852**DCL
HW_FLTIC_OK     854**DCL
HW_FRAG_PT     852**DCL
HW_IMX     855**DCL
HW_IOP     852**DCL
HW_IOPTP_UNITS     850**DCL
HW_LOAD_FW     851**DCL
HW_NORM_CLOCK     854**DCL
HW_PERF     849**DCL
HW_PERF_SUB     849**DCL
HW_PROG_SCU     853**DCL
HW_PTB_UNITS     850**DCL
HW_SECT_PT     851**DCL
HW_SMART_CACHE     853**DCL
HW_TIME_LEGAL     851**DCL
HW_TYPE     850**DCL
H_CNCTEVBF     839**DCL
H_CNCTEVGATE     839**DCL
H_CNCTEVX     839**DCL
H_CNNCTMLBX     821**DCL
H_CODE     832**DCL
H_CPUGATE     821**DCL
H_CPU_BF     831**DCL
H_CPU_CONFIG     827**DCL
PL6.E3A0      #002=FMH$MAPJRNL File=FMH$CONSEC.:E05TSI                           TUE 07/29/97 16:49 Page:242
H_DPS8000_CI_TABLE     846**DCL
H_DPS8000_CONFIG_NAME     846**DCL
H_DPS8000_CPU_CONF_REG     842**DCL
H_DPS8000_SCU_CONF_REG     843**DCL
H_DPS8000_SCU_INFO     844**DCL
H_DSMASK     823**DCL
H_DUMMY     836**DCL
H_EDACHIST     840**DCL
H_EDACUTS     840**DCL
H_ENMASK     823**DCL
H_EXTFLTREG_MASK     841**DCL
H_FAIL_NUM     826**DCL
H_FAIL_PARK     826**DCL
H_FAIL_PORT     826**DCL
H_FLTCNT     821**DCL
H_FLTREG     841**DCL
H_FLTREG_MASK     840**DCL
H_HRMODE     837**DCL
H_HRMODE_MASK     837**DCL
H_INTMASK     822**DCL
H_LUFREG     837**DCL
H_LUFREG_MASK     838**DCL
H_MAKE_IN_PROGRESS     834**DCL
H_MAXPORT#     832**DCL
H_MAXSU#     824**DCL
H_MAX_PERF     848**DCL
H_MEMOK     824**DCL
H_MIXED_FLT     835**DCL
H_MIXED_INT     834**DCL
H_MIXED_MP     834**DCL
H_MIXED_RMIR     836**DCL
H_MIXED_SSS     835**DCL
H_MIXED_SSX     835**DCL
H_MIXED_TRO     835**DCL
H_MODE     833**DCL
H_NURSE     827**DCL
PL6.E3A0      #002=FMH$MAPJRNL File=FMH$CONSEC.:E05TSI                           TUE 07/29/97 16:49 Page:243
H_NURSE_PARK     827**DCL
H_PERF     848**DCL
H_PERF_DATA     841**DCL
H_PORT#     833**DCL
H_PORTMASK     832**DCL
H_PORT_FIRST_ADDR     831**DCL
H_RELIEF     827**DCL
H_RELOAD_CACHE     838**DCL
H_RELOAD_MODE     838**DCL
H_RLF_GATE     825**DCL
H_RPM_CONNECT_TABLE     847**DCL
H_RPM_FLG     825**DCL
H_RSW1     836**DCL
H_RSW2     836**DCL
H_S1000_CONFIG     825**DCL
H_S1000_FLG     825**DCL
H_SAVE_SS     834**DCL
H_SCU_BF     831**DCL
H_SCU_CONFIG     828**DCL
H_SNAP     833**DCL
H_SPROC#     833**DCL
H_STOREUNIT     823**DCL
H_SYSID     833**DCL
H_TIME     822**DCL
H_TIME_CORR     849**DCL
H_XDELTA     822**DCL

PL6.E3A0      #003=FMH$JGETPG File=FMH$CONSEC.:E05TSI                            TUE 07/29/97 16:49 Page:244
     1437        1        /*T***********************************************************/
     1438        2        /*T*                                                         */
     1439        3        /*T* Copyright (c) Bull HN Information Systems Inc., 1997    */
     1440        4        /*T*                                                         */
     1441        5        /*T***********************************************************/
     1442        6        /*F*    NAME:     FMH$JGETPG
     1443        7        *       PURPOSE:  Get the initial page for a journal file */
     1444        8        /**/
     1445        9        /**/
     1446       10        /**/
     1447       11        /*D*    NAME:     FMH$JGETPG
     1448       12        *       CALL:     CALL FMH$JGETPG(BUFNUM) ALTRET(LOC);
     1449       13        *       INPUT:    BUFNUM - Number of the buffer containing the
     1450       14        *                          current buffer.
     1451       15        *       OUTPUT:   CFU.PAGE# is set.
     1452       16        *       DESCRIPTION:  Flushes buffer if journal already open.
     1453       17        *                 Otherwise switches current page into I/O page,
     1454       18        *                 (if it isn't already one),
     1455       19        *                 sets it into CFU, and maps onto it.
     1456       20        */
     1457       21        /**/
     1458       22        /**/
     1459       23        FMH$JGETPG: PROC(BUFNUM) ALTRET;
     1460       24        /* PARAMETERS */
     1461       25    1   DCL BUFNUM UBIN;
     1462       26        /* EXTERNAL ROUTINES */
     1463       27    1   DCL FMD$FLSHBUF ENTRY(1);
     1464       28    1   DCL FMH$MAPJRNL ENTRY(2);
     1465       29    1   DCL MMJ$FBTOIOP ENTRY(2);
     1466       30    1   DCL SC_FMH89 ENTRY CONV(2,0);
     1467       31        /* INCLUDE FILES */
     1468       32        %INCLUDE F$JIT_C;
     1469      462        %INCLUDE FM_CACHE_R;
     1470      474        %INCLUDE FM_CACHE_C;
     1471      540        %INCLUDE F_ERRORS_C;
     1472      780        %INCLUDE F_MACROS_C;
     1473      791        %INCLUDE FM$CFU;
PL6.E3A0      #003=FMH$JGETPG File=FMH$CONSEC.:E05TSI                            TUE 07/29/97 16:49 Page:245
     1474      836        %INCLUDE HF_LOCK_C;
     1475      850        %INCLUDE P_PMDAT_R;
     1476     1158        %MACRO F$DCBMAC(BASED=BASED);
     1477     1159        %FMC$CACHE;
     1478     1160        %INCLUDE F$DCB;
     1479     1209        %MEND;
     1480     1210        /* EXTERNAL DATA */
     1481     1211    1   DCL B$JIT$ PTR SYMREF;
     1482     1212        /* CONSTANT STORAGE */
     1483     1213        %SUB FCG#='0615'O;
     1484     1214        %SUB MID#='10'O;
     1485     1215        %ERRCODE (NAME=ERRNOJRNLPG,COD#=%E$NOJRNLPG);
     1486     1219        /* LOCAL AUTOMATIC STORAGE */
     1487     1220    1   DCL JDCB$ PTR;
     1488     1221    1   DCL CFU$ PTR;
     1489     1222    1   DCL PP SBIN;
     1490     1223    1   DCL VPNO SBIN;
     1491     1224    1   DCL S_CUN UBIN SYMREF;
     1492     1225        /* BASED STRUCTURES */
     1493     1226        %F$DCBMAC (BASED="BASED(JDCB$)");
     1494     1299        %FM$CFUJ (BASED="BASED(CFU$)");
     1495     1304        /**/
     1496     1305        /**/
     1497     1306    1           JDCB$=B$JIT.DCB$;
     1498     1307    1           F$DCB.RPOS='0'B;
     1499     1308    1           CFU$=F$DCB.CFU$;
     1500     1309    2           IF NOT F$DCB.OWNER THEN DO;
     1501     1310    2              CALL FMD$FLSHBUF(BUFNUM);    /* GET RID OF REAL BUFFER             */
     1502     1311    2              RETURN;
     1503     1312    2              END;
     1504     1313    1           VPNO=F$DCB.BFR1.CX(BUFNUM);
     1505     1314    1           IF VPNO=0
     1506     1315    2           THEN DO;
     1507     1316    2              VPNO=F$DCB.BFR.BUFX(BUFNUM);
     1508     1317    2              F$DCB.BFR.BUFX(BUFNUM) = 0;
     1509     1318    2              CALL MMJ$FBTOIOP (VPNO , PP);
     1510     1319    2              END;
PL6.E3A0      #003=FMH$JGETPG File=FMH$CONSEC.:E05TSI                            TUE 07/29/97 16:49 Page:246
     1511     1320    2           ELSE DO;
     1512     1321                   %LOCK(G=FMC_LOCK);
     1513     1324    2              PP=FMC$CACHETBL.PAGE(VPNO);
     1514     1325    2              FMC$CACHETBL(VPNO)='0'B;
     1515     1326                  %DEC_COUNTER(ITEM=IOCACHE);
     1516     1332                   %UNLOCK(G=FMC_LOCK);
     1517     1335    2              F$DCB.BFR1.CX(BUFNUM)=0;
     1518     1336    2              END;
     1519     1337    1           FM$CFUJ.PAGE# = PP;
     1520     1338    1           CALL FMH$MAPJRNL(BUFNUM);
     1521     1339    1           RETURN;
     1522     1340        /**/
     1523     1341        %EJECT;
PL6.E3A0      #003=FMH$JGETPG File=FMH$CONSEC.:E05TSI                            TUE 07/29/97 16:49 Page:247
     1524     1342        /*F*    NAME:    FMH$JRELPG
     1525     1343        *       PURPOSE:  Release the journal page when owner closes */
     1526     1344        /**/
     1527     1345        /**/
     1528     1346        /**/
     1529     1347        /*D*    NAME:    FMH$JRELPG
     1530     1348        *       INPUT:   BUFNUM - Number of the buffer containing the current page
     1531     1349        *       OUTPUT:  The buffer page is released
     1532     1350        *       DESCRIPTION:  Call FMH$MAPJRNL to get the current buffer mapped in.
     1533     1351        *                Call FMD$FLSHBUF to get rid of it.
     1534     1352        */
     1535     1353        /**/
     1536     1354        /**/
     1537     1355        /**/
     1538     1356    1   FMH$JRELPG: ENTRY(BUFNUM) ALTRET;
     1539     1357        /**/
     1540     1358    1           IF B$JIT.DCB$->F$DCB.CFU$->FM$CFUJ.PAGE#=0 THEN RETURN; /* NOTHING HERE */
     1541     1359    1           CALL FMH$MAPJRNL(BUFNUM);
     1542     1360    1           CALL FMD$FLSHBUF(BUFNUM);
     1543     1361    1           RETURN;
     1544     1362    1   END FMH$JGETPG;
     1545     1363        %EOD;

PL6.E3A0      #003=FMH$JGETPG File=FMH$CONSEC.:E05TSI                            TUE 07/29/97 16:49 Page:248
--  Include file information  --

   F$DCB.:E05TOU  is referenced.
   P_PMDAT_C.:E05TOU  is referenced.
   P_PMDAT_R.:E05TOU  cannot be made into a system file and is referenced.
   HF_LOCK_C.:E05TOU  cannot be made into a system file and is referenced.
   FM$CFU.:E05TOU  is referenced.
   F_MACROS_C.:E05TOU  is referenced.
   F_ERRORS_C.:E05TOU  is referenced.
   FM_CACHE_C.:E05TOU  is referenced.
   FM_CACHE_R.:E05TOU  cannot be made into a system file and is referenced.
   B$JIT_C.:E05TOU  is referenced.
   F$JIT_C.:E05TOU  cannot be made into a system file and is referenced.
      No diagnostics issued in procedure FMH$JGETPG.

   Procedure FMH$JGETPG requires 98 words for executable code.
   Procedure FMH$JGETPG requires 10 words of local(AUTO) storage.

PL6.E3A0      #003=FMH$JGETPG File=FMH$CONSEC.:E05TSI                            TUE 07/29/97 16:49 Page:249

 Object Unit name= FMH$JGETPG                                 File name= FMH$CONSEC.:E05TOU
 UTS= JUL 29 '97 16:49:22.00 TUE                              Compiler= PL-6/E31         Sev=      00
 SharedLib= :SHARED_SYSTEM                                    Alt SharedLib=


    ****  Control sections  ****

 Sect   Type Bound  Init  Size OctSiz  Section name(segment info)
    0  RoData even  UTS      1      1  FMH$JGETPG
    1   Proc  even  none    98    142  FMH$JGETPG
    2  RoData even  none     3      3  FMH$JGETPG

    ****  Entry defs  ****

                              Check   Calling
                             calling  sequence
  Sect OctLoc Primary Altret sequence   type   Parms  Name
     1      0   yes    yes     yes      Std        1  FMH$JGETPG
     1    121          yes     yes      Std        1  FMH$JRELPG

  ****  Entry refs  ****

         Check        Calling
        calling       sequence
Altret sequence SRef   type   Args  Name
         yes           Std       1 FMD$FLSHBUF
         yes           Std       1 HFC$UNLOCK
         yes           Std       2 FMH$MAPJRNL
         yes           Std       2 MMJ$FBTOIOP
         yes           Std       1 HFC$LOCK
                       nStd      0 X66_AUTO_1
                       Std       0 B_CONSPOOL_D
                       nStd      0 X66_ARET
PL6.E3A0      #003=FMH$JGETPG File=FMH$CONSEC.:E05TSI                            TUE 07/29/97 16:49 Page:250

  ****  Data refs  ****

  Flags:  r = read only, s = secondary
Flgs Name                             Flgs Name                             Flgs Name
     FMC_CACHE$                            FMC_CACHEPGCNT$                       FMC_LOCK
     P_RESOURCE$                           P_UPTIME                              P_NSCPU
     B$JIT$                                B_VECTNIL

  ****  Segment refs  ****

  Flags:  r = read only, s = secondary
Flgs Name                             Flgs Name                             Flgs Name
     ISSID
PL6.E3A0      #003=FMH$JGETPG File=FMH$CONSEC.:E05TSI                            TUE 07/29/97 16:49 Page:251


     1437        1        /*T***********************************************************/
     1438        2        /*T*                                                         */
     1439        3        /*T* Copyright (c) Bull HN Information Systems Inc., 1997    */
     1440        4        /*T*                                                         */
     1441        5        /*T***********************************************************/
     1442        6        /*F*    NAME:     FMH$JGETPG
     1443        7        *       PURPOSE:  Get the initial page for a journal file */
     1444        8        /**/
     1445        9        /**/
     1446       10        /**/
     1447       11        /*D*    NAME:     FMH$JGETPG
     1448       12        *       CALL:     CALL FMH$JGETPG(BUFNUM) ALTRET(LOC);
     1449       13        *       INPUT:    BUFNUM - Number of the buffer containing the
     1450       14        *                          current buffer.
     1451       15        *       OUTPUT:   CFU.PAGE# is set.
     1452       16        *       DESCRIPTION:  Flushes buffer if journal already open.
     1453       17        *                 Otherwise switches current page into I/O page,
     1454       18        *                 (if it isn't already one),
     1455       19        *                 sets it into CFU, and maps onto it.
     1456       20        */
     1457       21        /**/
     1458       22        /**/
     1459       23        FMH$JGETPG: PROC(BUFNUM) ALTRET;

     23  1 000000   000000 700200 xent  FMH$JGETPG   TSX0  ! X66_AUTO_1
         1 000001   000012 000001                    ZERO    10,1

     1460       24        /* PARAMETERS */
     1461       25    1   DCL BUFNUM UBIN;
     1462       26        /* EXTERNAL ROUTINES */
     1463       27    1   DCL FMD$FLSHBUF ENTRY(1);
     1464       28    1   DCL FMH$MAPJRNL ENTRY(2);
     1465       29    1   DCL MMJ$FBTOIOP ENTRY(2);
     1466       30    1   DCL SC_FMH89 ENTRY CONV(2,0);
     1467       31        /* INCLUDE FILES */
     1468       32        %INCLUDE F$JIT_C;
PL6.E3A0      #003=FMH$JGETPG File=FMH$CONSEC.:E05TSI                            TUE 07/29/97 16:49 Page:252
     1469      462        %INCLUDE FM_CACHE_R;
     1470      474        %INCLUDE FM_CACHE_C;
     1471      540        %INCLUDE F_ERRORS_C;
     1472      780        %INCLUDE F_MACROS_C;
     1473      791        %INCLUDE FM$CFU;
     1474      836        %INCLUDE HF_LOCK_C;
     1475      850        %INCLUDE P_PMDAT_R;
     1476     1158        %MACRO F$DCBMAC(BASED=BASED);
     1477     1159        %FMC$CACHE;
     1478     1160        %INCLUDE F$DCB;
     1479     1209        %MEND;
     1480     1210        /* EXTERNAL DATA */
     1481     1211    1   DCL B$JIT$ PTR SYMREF;
     1482     1212        /* CONSTANT STORAGE */
     1483     1213        %SUB FCG#='0615'O;
     1484     1214        %SUB MID#='10'O;
     1485     1215        %ERRCODE (NAME=ERRNOJRNLPG,COD#=%E$NOJRNLPG);
     1486     1219        /* LOCAL AUTOMATIC STORAGE */
     1487     1220    1   DCL JDCB$ PTR;
     1488     1221    1   DCL CFU$ PTR;
     1489     1222    1   DCL PP SBIN;
     1490     1223    1   DCL VPNO SBIN;
     1491     1224    1   DCL S_CUN UBIN SYMREF;
     1492     1225        /* BASED STRUCTURES */
     1493     1226        %F$DCBMAC (BASED="BASED(JDCB$)");
     1494     1299        %FM$CFUJ (BASED="BASED(CFU$)");
     1495     1304        /**/
     1496     1305        /**/
     1497     1306    1           JDCB$=B$JIT.DCB$;

   1306  1 000002   000000 470400 xsym               LDP0    B$JIT$
         1 000003   000232 236100                    LDQ     154,,PR0
         1 000004   200004 756100                    STQ     JDCB$,,AUTO

     1498     1307    1           F$DCB.RPOS='0'B;

   1307  1 000005   200004 471500                    LDP1    JDCB$,,AUTO
PL6.E3A0      #003=FMH$JGETPG File=FMH$CONSEC.:E05TSI                            TUE 07/29/97 16:49 Page:253
         1 000006   000000 236000 2                  LDQ     0
         1 000007   100064 356100                    ANSQ    52,,PR1

     1499     1308    1           CFU$=F$DCB.CFU$;

   1308  1 000010   100066 236100                    LDQ     54,,PR1
         1 000011   200005 756100                    STQ     CFU$,,AUTO

     1500     1309    2           IF NOT F$DCB.OWNER THEN DO;

   1309  1 000012   100064 236100                    LDQ     52,,PR1
         1 000013   040000 316007                    CANQ    16384,DL
         1 000014   000022 601000 1                  TNZ     s:1313

     1501     1310    2              CALL FMD$FLSHBUF(BUFNUM);    /* GET RID OF REAL BUFFER             */

   1310  1 000015   200003 630500                    EPPR0   @BUFNUM,,AUTO
         1 000016   000017 631400 xsym               EPPR1   B_VECTNIL+15
         1 000017   000000 701000 xent               TSX1    FMD$FLSHBUF
         1 000020   000000 011000                    NOP     0

     1502     1311    2              RETURN;

   1311  1 000021   000000 702200 xent               TSX2  ! X66_ARET

     1503     1312    2              END;
     1504     1313    1           VPNO=F$DCB.BFR1.CX(BUFNUM);

   1313  1 000022   200003 473500                    LDP3    @BUFNUM,,AUTO
         1 000023   300000 720100                    LXL0    0,,PR3
         1 000024   100122 236110                    LDQ     82,X0,PR1
         1 000025   777777 376007                    ANQ     -1,DL
         1 000026   200007 756100                    STQ     VPNO,,AUTO

     1505     1314    1           IF VPNO=0

   1314  1 000027   000051 601000 1                  TNZ     s:1322
PL6.E3A0      #003=FMH$JGETPG File=FMH$CONSEC.:E05TSI                            TUE 07/29/97 16:49 Page:254

     1506     1315    2           THEN DO;

     1507     1316    2              VPNO=F$DCB.BFR.BUFX(BUFNUM);

   1316  1 000030   300000 720100                    LXL0    0,,PR3
         1 000031   100115 236110                    LDQ     77,X0,PR1
         1 000032   000033 772000                    QRL     27
         1 000033   000037 376007                    ANQ     31,DL
         1 000034   200007 756100                    STQ     VPNO,,AUTO

     1508     1317    2              F$DCB.BFR.BUFX(BUFNUM) = 0;

   1317  1 000035   300000 720100                    LXL0    0,,PR3
         1 000036   000001 236000 2                  LDQ     1
         1 000037   100115 356110                    ANSQ    77,X0,PR1

     1509     1318    2              CALL MMJ$FBTOIOP (VPNO , PP);

   1318  1 000040   200006 630500                    EPPR0   PP,,AUTO
         1 000041   200011 450500                    STP0    VPNO+2,,AUTO
         1 000042   200007 634500                    EPPR4   VPNO,,AUTO
         1 000043   200010 454500                    STP4    VPNO+1,,AUTO
         1 000044   200010 630500                    EPPR0   VPNO+1,,AUTO
         1 000045   000020 631400 xsym               EPPR1   B_VECTNIL+16
         1 000046   000000 701000 xent               TSX1    MMJ$FBTOIOP
         1 000047   000000 011000                    NOP     0

     1510     1319    2              END;

   1319  1 000050   000111 710000 1                  TRA     s:1337

     1511     1320    2           ELSE DO;

     1512     1321                   %LOCK(G=FMC_LOCK);

   1322  1 000051   000002 630400 2                  EPPR0   2
PL6.E3A0      #003=FMH$JGETPG File=FMH$CONSEC.:E05TSI                            TUE 07/29/97 16:49 Page:255
         1 000052   000017 631400 xsym               EPPR1   B_VECTNIL+15
         1 000053   000000 701000 xent               TSX1    HFC$LOCK
         1 000054   000000 011000                    NOP     0

     1513     1324    2              PP=FMC$CACHETBL.PAGE(VPNO);

   1324  1 000055   200007 236100                    LDQ     VPNO,,AUTO
         1 000056   000006 402007                    MPY     6,DL
         1 000057   000000 470400 xsym               LDP0    FMC_CACHE$
         1 000060   000002 236106                    LDQ     2,QL,PR0
         1 000061   000022 772000                    QRL     18
         1 000062   200006 756100                    STQ     PP,,AUTO

     1514     1325    2              FMC$CACHETBL(VPNO)='0'B;

   1325  1 000063   200007 236100                    LDQ     VPNO,,AUTO
         1 000064   000030 402007                    MPY     24,DL
         1 000065   000106 100400                    MLR     fill='000'O
         1 000066   000002 000001 xsym               ADSC9   B_VECTNIL+2              cn=0,n=1
         1 000067   000000 000030                    ADSC9   0,Q,PR0                  cn=0,n=24

     1515     1326                  %DEC_COUNTER(ITEM=IOCACHE);

   1327  1 000070   000000 470400 xsym               LDP0    P_RESOURCE$
         1 000071   000055 235100                    LDA     45,,PR0
         1 000072   000001 135007                    SBLA    1,DL
         1 000073   000055 755100                    STA     45,,PR0

   1328  1 000074   000055 236100                    LDQ     45,,PR0
         1 000075   000057 116100                    CMPQ    47,,PR0
         1 000076   000100 603000 1                  TRC     s:1333

   1330  1 000077   000057 756100                    STQ     47,,PR0

     1516     1332                   %UNLOCK(G=FMC_LOCK);

   1333  1 000100   000002 630400 2                  EPPR0   2
PL6.E3A0      #003=FMH$JGETPG File=FMH$CONSEC.:E05TSI                            TUE 07/29/97 16:49 Page:256
         1 000101   000017 631400 xsym               EPPR1   B_VECTNIL+15
         1 000102   000000 701000 xent               TSX1    HFC$UNLOCK
         1 000103   000000 011000                    NOP     0

     1517     1335    2              F$DCB.BFR1.CX(BUFNUM)=0;

   1335  1 000104   200003 470500                    LDP0    @BUFNUM,,AUTO
         1 000105   000000 720100                    LXL0    0,,PR0
         1 000106   000000 221003                    LDX1    0,DU
         1 000107   200004 471500                    LDP1    JDCB$,,AUTO
         1 000110   100122 441110                    SXL1    82,X0,PR1

     1518     1336    2              END;

     1519     1337    1           FM$CFUJ.PAGE# = PP;

   1337  1 000111   200006 720100                    LXL0    PP,,AUTO
         1 000112   200005 470500                    LDP0    CFU$,,AUTO
         1 000113   000005 440100                    SXL0    5,,PR0

     1520     1338    1           CALL FMH$MAPJRNL(BUFNUM);

   1338  1 000114   200003 630500                    EPPR0   @BUFNUM,,AUTO
         1 000115   000017 631400 xsym               EPPR1   B_VECTNIL+15
         1 000116   000000 701000 xent               TSX1    FMH$MAPJRNL
         1 000117   000000 011000                    NOP     0

     1521     1339    1           RETURN;

   1339  1 000120   000000 702200 xent               TSX2  ! X66_ARET

     1522     1340        /**/
     1523     1341        %EJECT;
PL6.E3A0      #003=FMH$JGETPG File=FMH$CONSEC.:E05TSI                            TUE 07/29/97 16:49 Page:257
     1524     1342        /*F*    NAME:    FMH$JRELPG
     1525     1343        *       PURPOSE:  Release the journal page when owner closes */
     1526     1344        /**/
     1527     1345        /**/
     1528     1346        /**/
     1529     1347        /*D*    NAME:    FMH$JRELPG
     1530     1348        *       INPUT:   BUFNUM - Number of the buffer containing the current page
     1531     1349        *       OUTPUT:  The buffer page is released
     1532     1350        *       DESCRIPTION:  Call FMH$MAPJRNL to get the current buffer mapped in.
     1533     1351        *                Call FMD$FLSHBUF to get rid of it.
     1534     1352        */
     1535     1353        /**/
     1536     1354        /**/
     1537     1355        /**/
     1538     1356    1   FMH$JRELPG: ENTRY(BUFNUM) ALTRET;

   1356  1 000121   000000 700200 xent  FMH$JRELPG   TSX0  ! X66_AUTO_1
         1 000122   000012 000001                    ZERO    10,1

     1539     1357        /**/
     1540     1358    1           IF B$JIT.DCB$->F$DCB.CFU$->FM$CFUJ.PAGE#=0 THEN RETURN; /* NOTHING HERE */

   1358  1 000123   000000 470400 xsym               LDP0    B$JIT$
         1 000124   000232 471500                    LDP1    154,,PR0
         1 000125   100066 473500                    LDP3    54,,PR1
         1 000126   300005 720100                    LXL0    5,,PR3
         1 000127   000131 601000 1                  TNZ     s:1359

   1358  1 000130   000000 702200 xent               TSX2  ! X66_ARET

     1541     1359    1           CALL FMH$MAPJRNL(BUFNUM);

   1359  1 000131   200003 630500                    EPPR0   @BUFNUM,,AUTO
         1 000132   000017 631400 xsym               EPPR1   B_VECTNIL+15
         1 000133   000000 701000 xent               TSX1    FMH$MAPJRNL
         1 000134   000000 011000                    NOP     0

PL6.E3A0      #003=FMH$JGETPG File=FMH$CONSEC.:E05TSI                            TUE 07/29/97 16:49 Page:258
     1542     1360    1           CALL FMD$FLSHBUF(BUFNUM);

   1360  1 000135   200003 630500                    EPPR0   @BUFNUM,,AUTO
         1 000136   000017 631400 xsym               EPPR1   B_VECTNIL+15
         1 000137   000000 701000 xent               TSX1    FMD$FLSHBUF
         1 000140   000000 011000                    NOP     0

     1543     1361    1           RETURN;

   1361  1 000141   000000 702200 xent               TSX2  ! X66_ARET

(unnamed)
 Sect OctLoc
   0     000   061510 001222                                                    1...

(unnamed)
 Sect OctLoc
   2     000   777777 767777   740777 777777   000000 006000                    ............
     1544     1362    1   END FMH$JGETPG;
     1545     1363        %EOD;

PL6.E3A0      #003=FMH$JGETPG File=FMH$CONSEC.:E05TSI                            TUE 07/29/97 16:49 Page:259
--  Include file information  --

   F$DCB.:E05TOU  is referenced.
   P_PMDAT_C.:E05TOU  is referenced.
   P_PMDAT_R.:E05TOU  cannot be made into a system file and is referenced.
   HF_LOCK_C.:E05TOU  cannot be made into a system file and is referenced.
   FM$CFU.:E05TOU  is referenced.
   F_MACROS_C.:E05TOU  is referenced.
   F_ERRORS_C.:E05TOU  is referenced.
   FM_CACHE_C.:E05TOU  is referenced.
   FM_CACHE_R.:E05TOU  cannot be made into a system file and is referenced.
   B$JIT_C.:E05TOU  is referenced.
   F$JIT_C.:E05TOU  cannot be made into a system file and is referenced.
      No diagnostics issued in procedure FMH$JGETPG.
PL6.E3A0      #003=FMH$JGETPG File=FMH$CONSEC.:E05TSI                            TUE 07/29/97 16:49 Page:260

 **** Variables and constants ****

  ****  Auto variables  ****

  ****  Scalars and arrays  ****
OctLoc.c.b A Datatyp(siz) R M Lvl/name                 OctLoc.c.b A Datatyp(siz) R M Lvl/name

     3-0-0/w PTR         r     1 @BUFNUM                   *0-0-0/w UBIN        r     1 BUFNUM
     5-0-0/w PTR         r     1 CFU$                       4-0-0/w PTR         r     1 JDCB$
     6-0-0/w SBIN        r     1 PP                         7-0-0/w SBIN        r     1 VPNO

  ****  SYMREF variables  ****

  ****  Scalars and arrays  ****
OctLoc.c.b A Datatyp(siz) R M Lvl/name                 OctLoc.c.b A Datatyp(siz) R M Lvl/name

     0-0-0/w PTR         r     1 B$JIT$                     0-0-0/w PTR         r     1 FMC_CACHE$
     0-0-0/w PTR         r     1 FMC_CACHEPGCNT$            0-0-0/b BIT (72)    r     1 FMC_LOCK
     0-0-0/w PTR         r     1 P_RESOURCE$

  ****  BASED and DCB variables  ****

  ****  Scalars and arrays  ****
OctLoc.c.b A Datatyp(siz) R M Lvl/name                 OctLoc.c.b A Datatyp(siz) R M Lvl/name

     0-0-0/d STRC(8856)  r     1 B$JIT                      0-0-0/d ASTR(3528)  r     1 F$DCB
     0-0-0/w STRC(288)   r     1 FM$CFUJ
     0-0-0/w STRC(216)   r     1 FMC$CACHETBL(0:0)
     0-0-0/w STRC(2268)  r     1 P_RESOURCE


   Procedure FMH$JGETPG requires 98 words for executable code.
   Procedure FMH$JGETPG requires 10 words of local(AUTO) storage.
PL6.E3A0      #003=FMH$JGETPG File=FMH$CONSEC.:E05TSI                            TUE 07/29/97 16:49 Page:261
          *** CROSS REFERENCE LISTING ***
**     DENOTES     IDENTIFIER DEFINITION
<<                 IDENTIFIER'S VALUE SET
>>                 IDENTIFIER'S VALUE USED
<>                 IDENTIFIER SET AND/OR USED
--                 IDENTIFIER REFERENCED
PL6.E3A0      #003=FMH$JGETPG File=FMH$CONSEC.:E05TSI                            TUE 07/29/97 16:49 Page:262
          MINI XREF LISTING

B$JIT.DCB$
       449**DCL      1306>>ASSIGN   1358>>IF
B$JIT.ERR.MID
       360**DCL       360--REDEF
B$JIT$
      1211**DCL       354--IMP-PTR  1306>>ASSIGN   1358>>IF
BUFNUM
        25**DCL        23--PROC     1310<>CALL     1313>>ASSIGN   1316>>ASSIGN   1317>>ASSIGN   1335>>ASSIGN
      1338<>CALL     1356--ENTRY    1359<>CALL     1360<>CALL
CFU$
      1221**DCL      1300--IMP-PTR  1308<<ASSIGN   1337>>ASSIGN
F$DCB.ACTPOS
      1275**DCL      1275--REDEF
F$DCB.ARS
      1250**DCL      1250--REDEF
F$DCB.ATTR
      1268**DCL      1269--REDEF
F$DCB.BFR.BUFX
      1295**DCL      1316>>ASSIGN   1317<<ASSIGN
F$DCB.BFR1.CX
      1296**DCL      1313>>ASSIGN   1335<<ASSIGN
F$DCB.BORROW
      1283**DCL      1283--REDEF    1283--REDEF    1283--REDEF
F$DCB.CFU$
      1284**DCL      1308>>ASSIGN   1358>>IF
F$DCB.DCBNAME.L
      1297**DCL      1297--IMP-SIZ
F$DCB.EOMCHAR
      1254**DCL      1254--REDEF
F$DCB.FLDID
      1278**DCL      1278--REDEF
F$DCB.FORM$
PL6.E3A0      #003=FMH$JGETPG File=FMH$CONSEC.:E05TSI                            TUE 07/29/97 16:49 Page:263
      1272**DCL      1272--REDEF
F$DCB.FSECT
      1288**DCL      1288--REDEF
F$DCB.FSN
      1265**DCL      1265--REDEF    1265--REDEF    1266--REDEF
F$DCB.HEADER$
      1271**DCL      1271--REDEF
F$DCB.IXTNSIZE
      1269**DCL      1269--REDEF
F$DCB.LASTSTA$
      1259**DCL      1259--REDEF
F$DCB.LVL
      1284**DCL      1284--REDEF
F$DCB.NAME.C
      1259**DCL      1259--REDEF
F$DCB.NOEOF
      1280**DCL      1280--REDEF
F$DCB.NRECS
      1270**DCL      1270--REDEF
F$DCB.NRECX
      1289**DCL      1289--REDEF
F$DCB.OHDR
      1281**DCL      1281--REDEF
F$DCB.ORG
      1264**DCL      1264--REDEF
F$DCB.OWNER
      1281**DCL      1309>>IF
F$DCB.PRECNO
      1287**DCL      1287--REDEF
F$DCB.RCSZ
      1292**DCL      1292--REDEF
F$DCB.RES
      1260**DCL      1260--REDEF
F$DCB.RPOS
      1281**DCL      1307<<ASSIGN
F$DCB.SETX
PL6.E3A0      #003=FMH$JGETPG File=FMH$CONSEC.:E05TSI                            TUE 07/29/97 16:49 Page:264
      1272**DCL      1272--REDEF
F$DCB.TAB$
      1271**DCL      1272--REDEF
F$DCB.TDA
      1286**DCL      1286--REDEF
F$DCB.WSN
      1261**DCL      1261--REDEF
FM$CFUJ.PAGE#
      1301**DCL      1337<<ASSIGN   1358>>IF
FMC$CACHETBL
      1229**DCL      1325<<ASSIGN
FMC$CACHETBL.PAGE
      1237**DCL      1324>>ASSIGN
FMC_CACHE$
       470**DCL      1229--IMP-PTR  1324>>ASSIGN   1325>>ASSIGN
FMC_CACHEPGCNT$
       471**DCL       471--IMP-PTR   471--REDEF
FMC_LOCK
       472**DCL      1322<>CALL     1333<>CALL
FMD$FLSHBUF
        27**DCL-ENT  1310--CALL     1360--CALL
FMH$MAPJRNL
        28**DCL-ENT  1338--CALL     1359--CALL
HFC$LOCK
       849**DCL-ENT  1322--CALL
HFC$UNLOCK
       849**DCL-ENT  1333--CALL
JDCB$
      1220**DCL      1250--IMP-PTR  1306<<ASSIGN   1307>>ASSIGN   1308>>ASSIGN   1309>>IF       1313>>ASSIGN
      1316>>ASSIGN   1317>>ASSIGN   1335>>ASSIGN
MMJ$FBTOIOP
        29**DCL-ENT  1318--CALL
PP
      1222**DCL      1318<>CALL     1324<<ASSIGN   1337>>ASSIGN
P_NSCPU
      1138**DCL      1139--REDEF
PL6.E3A0      #003=FMH$JGETPG File=FMH$CONSEC.:E05TSI                            TUE 07/29/97 16:49 Page:265
P_RESOURCE.RES
      1011**DCL      1078--REDEF
P_RESOURCE.RES.IOCACHE.CURRENT
      1040**DCL      1327<<ASSIGN   1327>>ASSIGN   1328>>IF       1330>>ASSIGN
P_RESOURCE.RES.IOCACHE.MIN
      1042**DCL      1328>>IF       1330<<ASSIGN
P_RESOURCE$
      1091**DCL       979--IMP-PTR  1327>>ASSIGN   1327>>ASSIGN   1328>>IF       1328>>IF       1330>>ASSIGN
      1330>>ASSIGN
P_UPTIME
      1127**DCL      1128--REDEF
VPNO
      1223**DCL      1313<<ASSIGN   1314>>IF       1316<<ASSIGN   1318<>CALL     1324>>ASSIGN   1325>>ASSIGN
PL6.E3A0      #003=FMH$JGETPG File=FMH$CONSEC.:E05TSI                            TUE 07/29/97 16:49 Page:266
              *** CROSS REFERENCE LISTING ***
    **     DENOTES     IDENTIFIER DEFINITION
    <<                 IDENTIFIER'S VALUE SET
    >>                 IDENTIFIER'S VALUE USED
    <>                 IDENTIFIER SET AND/OR USED
    --                 IDENTIFIER REFERENCED
PL6.E3A0      #003=FMH$JGETPG File=FMH$CONSEC.:E05TSI                            TUE 07/29/97 16:49 Page:267
              MINI UREF LISTING

ERRNOJRNLPG    1216**DCL
FMC$CACHEPGCNT     471**DCL
FMC_CACHEPGCNT     471**DCL
FMC_CACHEPGCNT$R     471**DCL
FMC_CACHESIZ     470**DCL
FMC_CACHESIZN     470**DCL
FMC_MASK     472**DCL
FMC_MASKTBL     472**DCL
FMC_STATS$     470**DCL
FMC_TYPTBL$     470**DCL
FMH$JGETPG      23**PROC
FMH$JRELPG    1356**ENTRY
P$IODATA    1092**DCL
P$TABLE    1101**DCL
PH_CPU_MOUSED    1156**DCL
PH_JIT_ENTRY    1152**DCL
PH_MOUSE_ENTRY    1148**DCL
PH_MOUSE_LOCK    1155**DCL
PH_MOUSE_USERS    1145**DCL
PH_MOUSE_USER_NUMBER    1157**DCL
PH_MUS_PAGES    1147**DCL
P_AUIS    1133**DCL
P_AVAIL_MEM    1140**DCL
P_AVGAVAIL_MEM    1141**DCL
P_AVGETMF    1130**DCL
P_AVGIOL    1132**DCL
P_AVGRT90    1129**DCL
P_CALCNT    1117**DCL
P_CALCOMP    1118**DCL
P_DCTXMAX    1134**DCL
P_ETMF    1111**DCL
P_GATE    1137**DCL
PL6.E3A0      #003=FMH$JGETPG File=FMH$CONSEC.:E05TSI                            TUE 07/29/97 16:49 Page:268
P_IOLOAD    1131**DCL
P_IOS    1126**DCL
P_NINTS    1112**DCL
P_NOW    1136**DCL
P_NSCPU_SBIN    1139**DCL
P_RT90    1113**DCL
P_RUE#    1109**DCL
P_SCHD#    1110**DCL
P_STARTUP    1114**DCL
P_STOPTIME    1135**DCL
P_S_MIDLTIME    1122**DCL
P_S_MIDLWIO    1123**DCL
P_S_MIDLWRES    1124**DCL
P_S_MIDLWRESIO    1125**DCL
P_S_MXEQTIME    1121**DCL
P_S_USRVTIME    1120**DCL
P_S_UXEQTIME    1119**DCL
P_UPTIME_SBIN    1128**DCL
P_USRVTIME    1116**DCL
P_UXEQTIME    1115**DCL
SC_FMH89      30**DCL-ENT
S_CUN    1224**DCL
WORD_    1146**DCL

PL6.E3A0      #004=FMH$INIT File=FMH$CONSEC.:E05TSI                              TUE 07/29/97 16:49 Page:269
     1546        1        /*T***********************************************************/
     1547        2        /*T*                                                         */
     1548        3        /*T* Copyright (c) Bull HN Information Systems Inc., 1997    */
     1549        4        /*T*                                                         */
     1550        5        /*T***********************************************************/
     1551        6        /*F*   NAME:   FMH$INIT
     1552        7        *      PURPOSE:  Provide DCB initialization for consecutive files
     1553        8        *                at M$OPEN time.                                             */
     1554        9        /*D*     NAME:     FMH$INIT
     1555       10                 CALL:     CALL FMH$INIT
     1556       11                 DESCRIPTION:
     1557       12                      Set up the DCB to point to the first record of the file.
     1558       13
     1559       14                      If the file was left open (probably because we didn't
     1560       15                 go through recovery), then check the file for
     1561       16                 inconsistancies.  If the file was open UBLOCK, then fast
     1562       17                 sequential files will take care of the formating.  If it
     1563       18                 is open BLOCK, then just return.
     1564       19
     1565       20                      Consecutive files are used for Unit Record, and
     1566       21                 Symbiot files too.
     1567       22        */
     1568       23                 %EJECT;
PL6.E3A0      #004=FMH$INIT File=FMH$CONSEC.:E05TSI                              TUE 07/29/97 16:49 Page:270
     1569       24        FMH$INIT: PROC;
     1570       25               %INCLUDE CP_6_SUBS;
     1571      565               %INCLUDE B$JIT;
     1572     1168               %INCLUDE FM$MACROS;
     1573     1543               %MACRO F$DCB(BASED=BASED);
     1574     1544               %INCLUDE F$DCB;
     1575     1593               %MEND;
     1576     1594               %INCLUDE F_FMTCODE_C;
     1577     1628               %INCLUDE F_ERRORS_C;
     1578     1868        /* */
     1579     1869               %F$DCB(BASED="BASED(JDCB$)");
     1580     1919               %FM$CFU(BASED="BASED(CFU$)");
     1581     1925               %FM$GRAN(BASED="BASED(BUF$)",ENDLVL=NOTLDA);
     1582     1929               %FM$CON(BASED="BASED(SEG$)");
     1583     1933        /* */
     1584     1934    1          DCL FM_FRZERO UBIN SYMREF READONLY;
     1585     1935    1          DCL B$JIT$ PTR SYMREF READONLY;
     1586     1936        /* */
     1587     1937    1          DCL FMD$REDBUF ENTRY(6) ALTRET;
     1588     1938    1          DCL FMB$LOGERR ENTRY(11);
     1589     1939    1          DCL FMD$FLSHBUF ENTRY(1);
     1590     1940        /* */
     1591     1941    1          DCL JDCB$ PTR;
     1592     1942    1          DCL BUF$ PTR;
     1593     1943    1          DCL SEG$ PTR;
     1594     1944    1          DCL SEGX SBIN;
     1595     1945    1          DCL NAVX SBIN;
     1596     1946    1          DCL DA UBIN;
     1597     1947    1          DCL N SBIN;
     1598     1948    1          DCL NRECS SBIN;
     1599     1949    1          DCL CFU$ PTR;
     1600     1950    1          DCL UGRANS SBIN;
     1601     1951        /* */
     1602     1952    1          JDCB$=B$JIT.DCB$;
     1603     1953    1          CFU$=F$DCB.CFU$;
     1604     1954
     1605     1955    1          IF F$DCB.BFR.DA(1) ~= FM_FRZERO THEN
PL6.E3A0      #004=FMH$INIT File=FMH$CONSEC.:E05TSI                              TUE 07/29/97 16:49 Page:271
     1606     1956    2             DO;   /* FLUSH IT */
     1607     1957    2             CALL FMD$FLSHBUF(1);
     1608     1958    2             F$DCB.BFR.DA(1)=FM_FRZERO;
     1609     1959    2             END;  /* FLUSH IT */
     1610     1960
     1611     1961    1          F$DCB.GTYP=FMGTFILE;
     1612     1962    1          F$DCB.CRECX=1024;
     1613     1963    1          F$DCB.RPOS='0'B;
     1614     1964    1          F$DCB.EOP=0;
     1615     1965    1          F$DCB.CRECNO=0;
     1616     1966    1          F$DCB.LVL=0;
     1617     1967
     1618     1968    1          IF F$DCB.RA THEN
     1619     1969    1             CALL CHECK;
     1620     1970
     1621     1971    1          IF F$DCB.ACS = %UBLOCK# THEN
     1622     1972    2             DO;   /* UBLOCK */
     1623     1973    2             F$DCB.IFMT=FMTCONUBLK#;
     1624     1974    2             RETURN;
     1625     1975    2             END;  /* UBLOCK */
     1626     1976
     1627     1977    1          IF F$DCB.ACS = %BLOCK# THEN
     1628     1978    1             RETURN;
     1629     1979
     1630     1980    1          IF F$DCB.FUN ~= %IN# THEN
     1631     1981    2             DO CASE(F$DCB.ORG);
     1632     1982    2                CASE(%UR#);
     1633     1983    2                   F$DCB.IFMT=FMTURFILE#;
     1634     1984    2                   F$DCB.FEXT='1'B;
     1635     1985
     1636     1986    2                CASE(%SYMB#);
     1637     1987    2                   IF F$DCB.FPRGX ~= 0
     1638     1988    3                   THEN DO;
     1639     1989    3                     IF (F$DCB.IASN = %STREAM#)
     1640     1990    3                        THEN F$DCB.IFMT = FMTGRSTRM#;
     1641     1991    3                        ELSE F$DCB.IFMT = FMTGR#;
     1642     1992    3                     END;
PL6.E3A0      #004=FMH$INIT File=FMH$CONSEC.:E05TSI                              TUE 07/29/97 16:49 Page:272
     1643     1993    2                   F$DCB.MEDIA=FMTSYMB#;
     1644     1994    2                   F$DCB.FEXT='1'B;
     1645     1995    2             END;  /* CASE */
     1646     1996
     1647     1997    1          RETURN;
     1648     1998               %EJECT;
PL6.E3A0      #004=FMH$INIT File=FMH$CONSEC.:E05TSI                              TUE 07/29/97 16:49 Page:273
     1649     1999        /*I*     NAME:     CHECK
     1650     2000                 PURPOSE:  To check a file that was left open
     1651     2001                 DESCRIPTION:
     1652     2002                      Start by reading in the first granule of the file.
     1653     2003                 Count all of the records in this granule, then move on
     1654     2004                 to the next granule.  If we run into an error reading,
     1655     2005                 then if this is the LDA, we are probably done.  If this
     1656     2006                 isn't the LDA, then there is probably something wrong
     1657     2007                 with the file.
     1658     2008
     1659     2009                      Recalculate UGRANS.  If it looks okay, then set the
     1660     2010                 new values in the CFU, and log an error.  Reset buffer 1
     1661     2011                 to point to the beginning of the file.
     1662     2012        */
     1663     2013    1   CHECK: PROC;
     1664     2014        /* */
     1665     2015    2          F$DCB.RA='0'B;
     1666     2016    2          NRECS=0;
     1667     2017    2          DA=FM_FRZERO;
     1668     2018    2          CALL FMD$FLSHBUF(1);
     1669     2019
     1670     2020    3   LOOP:  DO UNTIL(NOT FM$GRAN.NOTLDA);
     1671     2021    3   TOP:      CALL FMD$REDBUF(BUF$, 1, DA, 0, 0) ALTRET(DATA_ERROR);
     1672     2022
     1673     2023    3             NAVX=FM$GRAN.NAVX+FM$GRAN.AVAIL;
     1674     2024    3             SEG$=PINCRW(BUF$, 1023);
     1675     2025    3             SEGX=1023;
     1676     2026    4             DO WHILE(SEGX >= NAVX);
     1677     2027    4                IF FM$CON.FAK = 1 THEN
     1678     2028    4                   NRECS=NRECS+1;
     1679     2029    4                SEGX=SEGX-1;
     1680     2030    4                SEG$=PINCRW(BUF$, SEGX);
     1681     2031    4             END;
     1682     2032
     1683     2033    3             DA=DA+1;
     1684     2034
     1685     2035    4             DO WHILE('0'B);
PL6.E3A0      #004=FMH$INIT File=FMH$CONSEC.:E05TSI                              TUE 07/29/97 16:49 Page:274
     1686     2036    4   DATA_ERROR:  IF DA < FM$CFU.LDA THEN
     1687     2037    5                   DO;   /* FIND REAL END */
     1688     2038    5                   F$DCB.DESC.BAD='1'B;
     1689     2039    5                   NRECS=-10000000;
     1690     2040    5                   FM$CFU.B=1;
     1691     2041    5                   DA=FM$CFU.LDA;
     1692     2042    5                   GOTO TOP;
     1693     2043    5                   END;  /* FIND REAL END */
     1694     2044    4                ELSE
     1695     2045    4                   EXIT LOOP;
     1696     2046    4             END;
     1697     2047    3          END;
     1698     2048
     1699     2049    2          FM$CFU.LDA=DA-1;
     1700     2050    2          UGRANS=FM$CFU.LDA-FM_FRZERO+1;
     1701     2051    2          IF UGRANS > 0 AND UGRANS <= FM$CFU.UGRANS+FM$CFU.NGAVAL THEN
     1702     2052    3             DO;   /* UGRANS OKAY */
     1703     2053    3             CALL FMB$LOGERR(%E$FREC, 70, 0, 0, CFU$, 4, 5, 7, UGRANS);
     1704     2054    3             N=FM$CFU.UGRANS+FM_FRZERO-FM$CFU.LDA-1;
     1705     2055    3             FM$CFU.UGRANS=FM$CFU.UGRANS-N;
     1706     2056    3             FM$CFU.NGAVAL=FM$CFU.NGAVAL+N;
     1707     2057    3             END;  /* UGRANS OKAY */
     1708     2058    2          ELSE
     1709     2059    2             CALL FMB$LOGERR(%E$FREC, 71, 0, 0, CFU$, 4, 5, 7, UGRANS);
     1710     2060
     1711     2061    2          IF NRECS >= 0 THEN
     1712     2062    2             FM$CFU.NRECS=NRECS;
     1713     2063    2          FM$CFU.FMOD='1'B;
     1714     2064    2          B$JIT.ERR='0'B;
     1715     2065    2          F$DCB.TYC='0'B;
     1716     2066    2          CALL FMD$FLSHBUF(1);
     1717     2067    2          F$DCB.BFR.DA(1)=FM_FRZERO;
     1718     2068
     1719     2069    2          CALL FMB$LOGERR(%E$FREC, 72, 0, 0, CFU$, 4, 5, 7, 0);
     1720     2070    2          RETURN;
     1721     2071    2          END CHECK;
     1722     2072    1          END FMH$INIT;
PL6.E3A0      #004=FMH$INIT File=FMH$CONSEC.:E05TSI                              TUE 07/29/97 16:49 Page:275

PL6.E3A0      #004=FMH$INIT File=FMH$CONSEC.:E05TSI                              TUE 07/29/97 16:49 Page:276
--  Include file information  --

   F_ERRORS_C.:E05TOU  is referenced.
   F_FMTCODE_C.:E05TOU  is referenced.
   F$DCB.:E05TOU  is referenced.
   FM$MACROS.:E05TOU  is referenced.
   B$JIT_C.:E05TOU  is referenced.
   B$JIT.:E05TOU  cannot be made into a system file and is referenced.
   CP_6_SUBS.:E05TOU  is referenced.
      No diagnostics issued in procedure FMH$INIT.

   Procedure FMH$INIT requires 292 words for executable code.
   Procedure FMH$INIT requires 26 words of local(AUTO) storage.

    No errors detected in file FMH$CONSEC.:E05TSI    .

PL6.E3A0      #004=FMH$INIT File=FMH$CONSEC.:E05TSI                              TUE 07/29/97 16:49 Page:277

 Object Unit name= FMH$INIT                                   File name= FMH$CONSEC.:E05TOU
 UTS= JUL 29 '97 16:49:40.72 TUE                              Compiler= PL-6/E31         Sev=      00
 SharedLib= :SHARED_SYSTEM                                    Alt SharedLib=


    ****  Control sections  ****

 Sect   Type Bound  Init  Size OctSiz  Section name(segment info)
    0   Proc  even  none   292    444  FMH$INIT
    1  RoData even  none    24     30  FMH$INIT

    ****  Entry defs  ****

                              Check   Calling
                             calling  sequence
  Sect OctLoc Primary Altret sequence   type   Parms  Name
     0      0   yes            yes      Std        0  FMH$INIT

  ****  Entry refs  ****

         Check        Calling
        calling       sequence
Altret sequence SRef   type   Args  Name
         yes           Std       1 FMD$FLSHBUF
 yes     yes           Std       6 FMD$REDBUF
         yes           Std      11 FMB$LOGERR
                       nStd      0 X66_AUTO_0
                       Std       0 B_CONSPOOL_D
                       nStd      0 X66_ARET

  ****  Data refs  ****

  Flags:  r = read only, s = secondary
Flgs Name                             Flgs Name                             Flgs Name
r    FM_FRZERO                        r    B$JIT$                                B_VECTNIL
PL6.E3A0      #004=FMH$INIT File=FMH$CONSEC.:E05TSI                              TUE 07/29/97 16:49 Page:278

  ****  Segment refs  ****

  Flags:  r = read only, s = secondary
Flgs Name                             Flgs Name                             Flgs Name
     ISSID
PL6.E3A0      #004=FMH$INIT File=FMH$CONSEC.:E05TSI                              TUE 07/29/97 16:49 Page:279


     1546        1        /*T***********************************************************/
     1547        2        /*T*                                                         */
     1548        3        /*T* Copyright (c) Bull HN Information Systems Inc., 1997    */
     1549        4        /*T*                                                         */
     1550        5        /*T***********************************************************/
     1551        6        /*F*   NAME:   FMH$INIT
     1552        7        *      PURPOSE:  Provide DCB initialization for consecutive files
     1553        8        *                at M$OPEN time.                                             */
     1554        9        /*D*     NAME:     FMH$INIT
     1555       10                 CALL:     CALL FMH$INIT
     1556       11                 DESCRIPTION:
     1557       12                      Set up the DCB to point to the first record of the file.
     1558       13
     1559       14                      If the file was left open (probably because we didn't
     1560       15                 go through recovery), then check the file for
     1561       16                 inconsistancies.  If the file was open UBLOCK, then fast
     1562       17                 sequential files will take care of the formating.  If it
     1563       18                 is open BLOCK, then just return.
     1564       19
     1565       20                      Consecutive files are used for Unit Record, and
     1566       21                 Symbiot files too.
     1567       22        */
     1568       23                 %EJECT;
PL6.E3A0      #004=FMH$INIT File=FMH$CONSEC.:E05TSI                              TUE 07/29/97 16:49 Page:280
     1569       24        FMH$INIT: PROC;

     24  0 000000   000000 700200 xent  FMH$INIT     TSX0  ! X66_AUTO_0
         0 000001   000032 000000                    ZERO    26,0

     1570       25               %INCLUDE CP_6_SUBS;
     1571      565               %INCLUDE B$JIT;
     1572     1168               %INCLUDE FM$MACROS;
     1573     1543               %MACRO F$DCB(BASED=BASED);
     1574     1544               %INCLUDE F$DCB;
     1575     1593               %MEND;
     1576     1594               %INCLUDE F_FMTCODE_C;
     1577     1628               %INCLUDE F_ERRORS_C;
     1578     1868        /* */
     1579     1869               %F$DCB(BASED="BASED(JDCB$)");
     1580     1919               %FM$CFU(BASED="BASED(CFU$)");
     1581     1925               %FM$GRAN(BASED="BASED(BUF$)",ENDLVL=NOTLDA);
     1582     1929               %FM$CON(BASED="BASED(SEG$)");
     1583     1933        /* */
     1584     1934    1          DCL FM_FRZERO UBIN SYMREF READONLY;
     1585     1935    1          DCL B$JIT$ PTR SYMREF READONLY;
     1586     1936        /* */
     1587     1937    1          DCL FMD$REDBUF ENTRY(6) ALTRET;
     1588     1938    1          DCL FMB$LOGERR ENTRY(11);
     1589     1939    1          DCL FMD$FLSHBUF ENTRY(1);
     1590     1940        /* */
     1591     1941    1          DCL JDCB$ PTR;
     1592     1942    1          DCL BUF$ PTR;
     1593     1943    1          DCL SEG$ PTR;
     1594     1944    1          DCL SEGX SBIN;
     1595     1945    1          DCL NAVX SBIN;
     1596     1946    1          DCL DA UBIN;
     1597     1947    1          DCL N SBIN;
     1598     1948    1          DCL NRECS SBIN;
     1599     1949    1          DCL CFU$ PTR;
     1600     1950    1          DCL UGRANS SBIN;
     1601     1951        /* */
PL6.E3A0      #004=FMH$INIT File=FMH$CONSEC.:E05TSI                              TUE 07/29/97 16:49 Page:281
     1602     1952    1          JDCB$=B$JIT.DCB$;

   1952  0 000002   000000 470400 xsym               LDP0    B$JIT$
         0 000003   000232 236100                    LDQ     154,,PR0
         0 000004   200003 756100                    STQ     JDCB$,,AUTO

     1603     1953    1          CFU$=F$DCB.CFU$;

   1953  0 000005   200003 471500                    LDP1    JDCB$,,AUTO
         0 000006   100066 236100                    LDQ     54,,PR1
         0 000007   200013 756100                    STQ     CFU$,,AUTO

     1604     1954
     1605     1955    1          IF F$DCB.BFR.DA(1) ~= FM_FRZERO THEN

   1955  0 000010   100116 236100                    LDQ     78,,PR1
         0 000011   000032 376000 xsym               ANQ     B_VECTNIL+26
         0 000012   000000 116000 xsym               CMPQ    FM_FRZERO
         0 000013   000023 600000 0                  TZE     s:1961

     1606     1956    2             DO;   /* FLUSH IT */

     1607     1957    2             CALL FMD$FLSHBUF(1);

   1957  0 000014   000000 630400 1                  EPPR0   0
         0 000015   000017 631400 xsym               EPPR1   B_VECTNIL+15
         0 000016   000000 701000 xent               TSX1    FMD$FLSHBUF
         0 000017   000000 011000                    NOP     0

     1608     1958    2             F$DCB.BFR.DA(1)=FM_FRZERO;

   1958  0 000020   200003 470500                    LDP0    JDCB$,,AUTO
         0 000021   000000 236000 xsym               LDQ     FM_FRZERO
         0 000022   000116 552134                    STBQ    78,'34'O,PR0

     1609     1959    2             END;  /* FLUSH IT */

PL6.E3A0      #004=FMH$INIT File=FMH$CONSEC.:E05TSI                              TUE 07/29/97 16:49 Page:282
     1610     1960
     1611     1961    1          F$DCB.GTYP=FMGTFILE;

   1961  0 000023   200003 470500                    LDP0    JDCB$,,AUTO
         0 000024   000064 236100                    LDQ     52,,PR0
         0 000025   000001 376000 1                  ANQ     1
         0 000026   030000 276003                    ORQ     12288,DU
         0 000027   000064 756100                    STQ     52,,PR0

     1612     1962    1          F$DCB.CRECX=1024;

   1962  0 000030   002000 220003                    LDX0    1024,DU
         0 000031   000067 440100                    SXL0    55,,PR0

     1613     1963    1          F$DCB.RPOS='0'B;

   1963  0 000032   000002 236000 1                  LDQ     2
         0 000033   000064 356100                    ANSQ    52,,PR0

     1614     1964    1          F$DCB.EOP=0;

   1964  0 000034   000003 236000 1                  LDQ     3
         0 000035   000064 356100                    ANSQ    52,,PR0

     1615     1965    1          F$DCB.CRECNO=0;

   1965  0 000036   000071 450100                    STZ     57,,PR0

     1616     1966    1          F$DCB.LVL=0;

   1966  0 000037   000004 236000 1                  LDQ     4
         0 000040   000067 356100                    ANSQ    55,,PR0

     1617     1967
     1618     1968    1          IF F$DCB.RA THEN

   1968  0 000041   000064 236100                    LDQ     52,,PR0
PL6.E3A0      #004=FMH$INIT File=FMH$CONSEC.:E05TSI                              TUE 07/29/97 16:49 Page:283
         0 000042   020000 316007                    CANQ    8192,DL
         0 000043   000046 600000 0                  TZE     s:1971

     1619     1969    1             CALL CHECK;

   1969  0 000044   000126 701000 0                  TSX1    CHECK
         0 000045   000000 011000                    NOP     0

     1620     1970
     1621     1971    1          IF F$DCB.ACS = %UBLOCK# THEN

   1971  0 000046   200003 470500                    LDP0    JDCB$,,AUTO
         0 000047   000036 236100                    LDQ     30,,PR0
         0 000050   000777 376007                    ANQ     511,DL
         0 000051   000014 116007                    CMPQ    12,DL
         0 000052   000056 601000 0                  TNZ     s:1977

     1622     1972    2             DO;   /* UBLOCK */

     1623     1973    2             F$DCB.IFMT=FMTCONUBLK#;

   1973  0 000053   025000 236003                    LDQ     10752,DU
         0 000054   000103 552140                    STBQ    67,'40'O,PR0

     1624     1974    2             RETURN;

   1974  0 000055   000000 702200 xent               TSX2  ! X66_ARET

     1625     1975    2             END;  /* UBLOCK */
     1626     1976
     1627     1977    1          IF F$DCB.ACS = %BLOCK# THEN

   1977  0 000056   000003 116007                    CMPQ    3,DL
         0 000057   000061 601000 0                  TNZ     s:1980

     1628     1978    1             RETURN;

PL6.E3A0      #004=FMH$INIT File=FMH$CONSEC.:E05TSI                              TUE 07/29/97 16:49 Page:284
   1978  0 000060   000000 702200 xent               TSX2  ! X66_ARET

     1629     1979
     1630     1980    1          IF F$DCB.FUN ~= %IN# THEN

   1980  0 000061   000032 236100                    LDQ     26,,PR0
         0 000062   000777 376003                    ANQ     511,DU
         0 000063   000002 116003                    CMPQ    2,DU
         0 000064   000125 600000 0                  TZE     s:1997

     1631     1981    2             DO CASE(F$DCB.ORG);

   1981  0 000065   000032 236100                    LDQ     26,,PR0
         0 000066   000033 772000                    QRL     27
         0 000067   000004 136007                    SBLQ    4,DL
         0 000070   000006 116007                    CMPQ    6,DL
         0 000071   000073 602006 0                  TNC     s:1981+6,QL
         0 000072   000125 710000 0                  TRA     s:1997
         0 000073   000101 710000 0                  TRA     s:1983
         0 000074   000125 710000 0                  TRA     s:1997
         0 000075   000125 710000 0                  TRA     s:1997
         0 000076   000125 710000 0                  TRA     s:1997
         0 000077   000125 710000 0                  TRA     s:1997
         0 000100   000106 710000 0                  TRA     s:1987

     1632     1982    2                CASE(%UR#);

     1633     1983    2                   F$DCB.IFMT=FMTURFILE#;

   1983  0 000101   013000 236003                    LDQ     5632,DU
         0 000102   000103 552140                    STBQ    67,'40'O,PR0

     1634     1984    2                   F$DCB.FEXT='1'B;

   1984  0 000103   400000 236003                    LDQ     -131072,DU
         0 000104   000064 256100                    ORSQ    52,,PR0
         0 000105   000125 710000 0                  TRA     s:1997
PL6.E3A0      #004=FMH$INIT File=FMH$CONSEC.:E05TSI                              TUE 07/29/97 16:49 Page:285

     1635     1985
     1636     1986    2                CASE(%SYMB#);

     1637     1987    2                   IF F$DCB.FPRGX ~= 0

   1987  0 000106   000054 220100                    LDX0    44,,PR0
         0 000107   000121 600000 0                  TZE     s:1993

     1638     1988    3                   THEN DO;

     1639     1989    3                     IF (F$DCB.IASN = %STREAM#)

   1989  0 000110   000103 236100                    LDQ     67,,PR0
         0 000111   000777 376007                    ANQ     511,DL
         0 000112   000005 116007                    CMPQ    5,DL
         0 000113   000117 601000 0                  TNZ     s:1991

     1640     1990    3                        THEN F$DCB.IFMT = FMTGRSTRM#;

   1990  0 000114   030000 236003                    LDQ     12288,DU
         0 000115   000103 552140                    STBQ    67,'40'O,PR0
         0 000116   000121 710000 0                  TRA     s:1993

     1641     1991    3                        ELSE F$DCB.IFMT = FMTGR#;

   1991  0 000117   027000 236003                    LDQ     11776,DU
         0 000120   000103 552140                    STBQ    67,'40'O,PR0

     1642     1992    3                     END;

     1643     1993    2                   F$DCB.MEDIA=FMTSYMB#;

   1993  0 000121   000022 236003                    LDQ     18,DU
         0 000122   000103 552120                    STBQ    67,'20'O,PR0

     1644     1994    2                   F$DCB.FEXT='1'B;
PL6.E3A0      #004=FMH$INIT File=FMH$CONSEC.:E05TSI                              TUE 07/29/97 16:49 Page:286

   1994  0 000123   400000 236003                    LDQ     -131072,DU
         0 000124   000064 256100                    ORSQ    52,,PR0

     1645     1995    2             END;  /* CASE */

     1646     1996
     1647     1997    1          RETURN;

   1997  0 000125   000000 702200 xent               TSX2  ! X66_ARET

     1648     1998               %EJECT;
PL6.E3A0      #004=FMH$INIT File=FMH$CONSEC.:E05TSI                              TUE 07/29/97 16:49 Page:287
     1649     1999        /*I*     NAME:     CHECK
     1650     2000                 PURPOSE:  To check a file that was left open
     1651     2001                 DESCRIPTION:
     1652     2002                      Start by reading in the first granule of the file.
     1653     2003                 Count all of the records in this granule, then move on
     1654     2004                 to the next granule.  If we run into an error reading,
     1655     2005                 then if this is the LDA, we are probably done.  If this
     1656     2006                 isn't the LDA, then there is probably something wrong
     1657     2007                 with the file.
     1658     2008
     1659     2009                      Recalculate UGRANS.  If it looks okay, then set the
     1660     2010                 new values in the CFU, and log an error.  Reset buffer 1
     1661     2011                 to point to the beginning of the file.
     1662     2012        */
     1663     2013    1   CHECK: PROC;

   2013  0 000126   200016 741300       CHECK        STX1  ! UGRANS+2,,AUTO

     1664     2014        /* */
     1665     2015    2          F$DCB.RA='0'B;

   2015  0 000127   200003 470500                    LDP0    JDCB$,,AUTO
         0 000130   000005 236000 1                  LDQ     5
         0 000131   000064 356100                    ANSQ    52,,PR0

     1666     2016    2          NRECS=0;

   2016  0 000132   200012 450100                    STZ     NRECS,,AUTO

     1667     2017    2          DA=FM_FRZERO;

   2017  0 000133   000000 235000 xsym               LDA     FM_FRZERO
         0 000134   200010 755100                    STA     DA,,AUTO

     1668     2018    2          CALL FMD$FLSHBUF(1);

   2018  0 000135   000000 630400 1                  EPPR0   0
PL6.E3A0      #004=FMH$INIT File=FMH$CONSEC.:E05TSI                              TUE 07/29/97 16:49 Page:288
         0 000136   000017 631400 xsym               EPPR1   B_VECTNIL+15
         0 000137   000000 701000 xent               TSX1    FMD$FLSHBUF
         0 000140   000000 011000                    NOP     0

     1669     2019
     1670     2020    3   LOOP:  DO UNTIL(NOT FM$GRAN.NOTLDA);

   2020  0 000141                       LOOP         null
     1671     2021    3   TOP:      CALL FMD$REDBUF(BUF$, 1, DA, 0, 0) ALTRET(DATA_ERROR);

   2021  0 000141   000006 236000 1     TOP          LDQ     6
         0 000142   200024 756100                    STQ     UGRANS+8,,AUTO
         0 000143   200023 756100                    STQ     UGRANS+7,,AUTO
         0 000144   200010 630500                    EPPR0   DA,,AUTO
         0 000145   200022 450500                    STP0    UGRANS+6,,AUTO
         0 000146   000000 236000 1                  LDQ     0
         0 000147   200021 756100                    STQ     UGRANS+5,,AUTO
         0 000150   200004 631500                    EPPR1   BUF$,,AUTO
         0 000151   200020 451500                    STP1    UGRANS+4,,AUTO
         0 000152   200020 630500                    EPPR0   UGRANS+4,,AUTO
         0 000153   000023 631400 xsym               EPPR1   B_VECTNIL+19
         0 000154   000000 701000 xent               TSX1    FMD$REDBUF
         0 000155   000223 702000 0                  TSX2    DATA_ERROR

     1672     2022
     1673     2023    3             NAVX=FM$GRAN.NAVX+FM$GRAN.AVAIL;

   2023  0 000156   200004 470500                    LDP0    BUF$,,AUTO
         0 000157   000001 236100                    LDQ     1,,PR0
         0 000160   001777 376007                    ANQ     1023,DL
         0 000161   200020 756100                    STQ     UGRANS+4,,AUTO
         0 000162   000001 236100                    LDQ     1,,PR0
         0 000163   000022 772000                    QRL     18
         0 000164   200020 036100                    ADLQ    UGRANS+4,,AUTO
         0 000165   200007 756100                    STQ     NAVX,,AUTO

     1674     2024    3             SEG$=PINCRW(BUF$, 1023);
PL6.E3A0      #004=FMH$INIT File=FMH$CONSEC.:E05TSI                              TUE 07/29/97 16:49 Page:289

   2024  0 000166   200004 236100                    LDQ     BUF$,,AUTO
         0 000167   001777 036003                    ADLQ    1023,DU
         0 000170   200005 756100                    STQ     SEG$,,AUTO

     1675     2025    3             SEGX=1023;

   2025  0 000171   001777 235007                    LDA     1023,DL
         0 000172   200006 755100                    STA     SEGX,,AUTO

     1676     2026    4             DO WHILE(SEGX >= NAVX);

   2026  0 000173   200006 236100                    LDQ     SEGX,,AUTO
         0 000174   200007 116100                    CMPQ    NAVX,,AUTO
         0 000175   000217 604000 0                  TMI     s:2033

     1677     2027    4                IF FM$CON.FAK = 1 THEN

   2027  0 000176   200005 470500                    LDP0    SEG$,,AUTO
         0 000177   000000 236100                    LDQ     0,,PR0
         0 000200   400000 376003                    ANQ     -131072,DU
         0 000201   000027 676000 xsym               ERQ     B_VECTNIL+23
         0 000202   000001 036007                    ADLQ    1,DL
         0 000203   400000 116003                    CMPQ    -131072,DU
         0 000204   000206 601000 0                  TNZ     s:2029

     1678     2028    4                   NRECS=NRECS+1;

   2028  0 000205   200012 054100                    AOS     NRECS,,AUTO

     1679     2029    4                SEGX=SEGX-1;

   2029  0 000206   000001 336007                    LCQ     1,DL
         0 000207   200006 056100                    ASQ     SEGX,,AUTO

     1680     2030    4                SEG$=PINCRW(BUF$, SEGX);

PL6.E3A0      #004=FMH$INIT File=FMH$CONSEC.:E05TSI                              TUE 07/29/97 16:49 Page:290
   2030  0 000210   200006 236100                    LDQ     SEGX,,AUTO
         0 000211   000022 736000                    QLS     18
         0 000212   200004 036100                    ADLQ    BUF$,,AUTO
         0 000213   200005 756100                    STQ     SEG$,,AUTO

     1681     2031    4             END;

   2031  0 000214   200006 236100                    LDQ     SEGX,,AUTO
         0 000215   200007 116100                    CMPQ    NAVX,,AUTO
         0 000216   000176 605000 0                  TPL     s:2027

     1682     2032
     1683     2033    3             DA=DA+1;

   2033  0 000217   200010 235100                    LDA     DA,,AUTO
         0 000220   000001 035007                    ADLA    1,DL
         0 000221   200010 755100                    STA     DA,,AUTO

     1684     2034
     1685     2035    4             DO WHILE('0'B);

   2035  0 000222   000252 710000 0                  TRA     s:2047

     1686     2036    4   DATA_ERROR:  IF DA < FM$CFU.LDA THEN

   2036  0 000223   200013 470500       DATA_ERROR   LDP0    CFU$,,AUTO
         0 000224   000006 235100                    LDA     6,,PR0
         0 000225   000007 236100                    LDQ     7,,PR0
         0 000226   000033 773000                    LRL     27
         0 000227   000032 376000 xsym               ANQ     B_VECTNIL+26
         0 000230   200010 116100                    CMPQ    DA,,AUTO
         0 000231   000256 602000 0                  TNC     s:2049
         0 000232   000256 600000 0                  TZE     s:2049

     1687     2037    5                   DO;   /* FIND REAL END */

     1688     2038    5                   F$DCB.DESC.BAD='1'B;
PL6.E3A0      #004=FMH$INIT File=FMH$CONSEC.:E05TSI                              TUE 07/29/97 16:49 Page:291

   2038  0 000233   200003 471500                    LDP1    JDCB$,,AUTO
         0 000234   020000 236007                    LDQ     8192,DL
         0 000235   100005 256100                    ORSQ    5,,PR1

     1689     2039    5                   NRECS=-10000000;

   2039  0 000236   000007 235000 1                  LDA     7
         0 000237   200012 755100                    STA     NRECS,,AUTO

     1690     2040    5                   FM$CFU.B=1;

   2040  0 000240   200013 470500                    LDP0    CFU$,,AUTO
         0 000241   000002 236003                    LDQ     2,DU
         0 000242   000006 256100                    ORSQ    6,,PR0

     1691     2041    5                   DA=FM$CFU.LDA;

   2041  0 000243   200013 470500                    LDP0    CFU$,,AUTO
         0 000244   000006 235100                    LDA     6,,PR0
         0 000245   000007 236100                    LDQ     7,,PR0
         0 000246   000033 773000                    LRL     27
         0 000247   000032 376000 xsym               ANQ     B_VECTNIL+26
         0 000250   200010 756100                    STQ     DA,,AUTO

     1692     2042    5                   GOTO TOP;

   2042  0 000251   000141 710000 0                  TRA     LOOP

     1693     2043    5                   END;  /* FIND REAL END */
     1694     2044    4                ELSE
     1695     2045    4                   EXIT LOOP;
     1696     2046    4             END;

     1697     2047    3          END;

   2047  0 000252   200004 470500                    LDP0    BUF$,,AUTO
PL6.E3A0      #004=FMH$INIT File=FMH$CONSEC.:E05TSI                              TUE 07/29/97 16:49 Page:292
         0 000253   000002 236100                    LDQ     2,,PR0
         0 000254   400000 316007                    CANQ    -131072,DL
         0 000255   000141 601000 0                  TNZ     LOOP

     1698     2048
     1699     2049    2          FM$CFU.LDA=DA-1;

   2049  0 000256   200013 470500                    LDP0    CFU$,,AUTO
         0 000257   200010 236100                    LDQ     DA,,AUTO
         0 000260   000001 136007                    SBLQ    1,DL
         0 000261   200020 756100                    STQ     UGRANS+4,,AUTO
         0 000262   000100 101500                    MRL     fill='000'O
         0 000263   200020 000004                    ADSC9   UGRANS+4,,AUTO           cn=0,n=4
         0 000264   000006 400003                    ADSC9   6,,PR0                   cn=2,n=3

     1700     2050    2          UGRANS=FM$CFU.LDA-FM_FRZERO+1;

   2050  0 000265   200013 470500                    LDP0    CFU$,,AUTO
         0 000266   000006 235100                    LDA     6,,PR0
         0 000267   000007 236100                    LDQ     7,,PR0
         0 000270   000033 773000                    LRL     27
         0 000271   000032 376000 xsym               ANQ     B_VECTNIL+26
         0 000272   000000 136000 xsym               SBLQ    FM_FRZERO
         0 000273   000001 036007                    ADLQ    1,DL
         0 000274   200014 756100                    STQ     UGRANS,,AUTO

     1701     2051    2          IF UGRANS > 0 AND UGRANS <= FM$CFU.UGRANS+FM$CFU.NGAVAL THEN

   2051  0 000275   000357 604400 0                  TMOZ    s:2059
         0 000276   000007 236100                    LDQ     7,,PR0
         0 000277   000032 376000 xsym               ANQ     B_VECTNIL+26
         0 000300   200020 756100                    STQ     UGRANS+4,,AUTO
         0 000301   000004 236100                    LDQ     4,,PR0
         0 000302   000032 376000 xsym               ANQ     B_VECTNIL+26
         0 000303   200020 036100                    ADLQ    UGRANS+4,,AUTO
         0 000304   000307 604000 0                  TMI     s:2053
         0 000305   200014 116100                    CMPQ    UGRANS,,AUTO
PL6.E3A0      #004=FMH$INIT File=FMH$CONSEC.:E05TSI                              TUE 07/29/97 16:49 Page:293
         0 000306   000357 604000 0                  TMI     s:2059

     1702     2052    3             DO;   /* UGRANS OKAY */

     1703     2053    3             CALL FMB$LOGERR(%E$FREC, 70, 0, 0, CFU$, 4, 5, 7, UGRANS);

   2053  0 000307   200014 631500                    EPPR1   UGRANS,,AUTO
         0 000310   200030 451500                    STP1    UGRANS+12,,AUTO
         0 000311   000014 237000 1                  LDAQ    12
         0 000312   200026 757100                    STAQ    UGRANS+10,,AUTO
         0 000313   000013 236000 1                  LDQ     11
         0 000314   200025 756100                    STQ     UGRANS+9,,AUTO
         0 000315   200013 633500                    EPPR3   CFU$,,AUTO
         0 000316   200024 453500                    STP3    UGRANS+8,,AUTO
         0 000317   000016 237000 1                  LDAQ    14
         0 000320   200022 757100                    STAQ    UGRANS+6,,AUTO
         0 000321   000020 237000 1                  LDAQ    16
         0 000322   200020 757100                    STAQ    UGRANS+4,,AUTO
         0 000323   200020 630500                    EPPR0   UGRANS+4,,AUTO
         0 000324   000010 631400 1                  EPPR1   8
         0 000325   000000 701000 xent               TSX1    FMB$LOGERR
         0 000326   000000 011000                    NOP     0

     1704     2054    3             N=FM$CFU.UGRANS+FM_FRZERO-FM$CFU.LDA-1;

   2054  0 000327   200013 470500                    LDP0    CFU$,,AUTO
         0 000330   000004 236100                    LDQ     4,,PR0
         0 000331   000032 376000 xsym               ANQ     B_VECTNIL+26
         0 000332   000000 036000 xsym               ADLQ    FM_FRZERO
         0 000333   000006 235100                    LDA     6,,PR0
         0 000334   200020 756100                    STQ     UGRANS+4,,AUTO
         0 000335   000007 236100                    LDQ     7,,PR0
         0 000336   000033 773000                    LRL     27
         0 000337   000032 376000 xsym               ANQ     B_VECTNIL+26
         0 000340   200021 756100                    STQ     UGRANS+5,,AUTO
         0 000341   200020 236100                    LDQ     UGRANS+4,,AUTO
         0 000342   200021 136100                    SBLQ    UGRANS+5,,AUTO
PL6.E3A0      #004=FMH$INIT File=FMH$CONSEC.:E05TSI                              TUE 07/29/97 16:49 Page:294
         0 000343   000001 136007                    SBLQ    1,DL
         0 000344   200011 756100                    STQ     N,,AUTO

     1705     2055    3             FM$CFU.UGRANS=FM$CFU.UGRANS-N;

   2055  0 000345   000004 236100                    LDQ     4,,PR0
         0 000346   000032 376000 xsym               ANQ     B_VECTNIL+26
         0 000347   200011 136100                    SBLQ    N,,AUTO
         0 000350   000004 552134                    STBQ    4,'34'O,PR0

     1706     2056    3             FM$CFU.NGAVAL=FM$CFU.NGAVAL+N;

   2056  0 000351   200013 470500                    LDP0    CFU$,,AUTO
         0 000352   000007 236100                    LDQ     7,,PR0
         0 000353   000032 376000 xsym               ANQ     B_VECTNIL+26
         0 000354   200011 036100                    ADLQ    N,,AUTO
         0 000355   000007 552134                    STBQ    7,'34'O,PR0

     1707     2057    3             END;  /* UGRANS OKAY */

   2057  0 000356   000377 710000 0                  TRA     s:2061

     1708     2058    2          ELSE
     1709     2059    2             CALL FMB$LOGERR(%E$FREC, 71, 0, 0, CFU$, 4, 5, 7, UGRANS);

   2059  0 000357   200014 631500                    EPPR1   UGRANS,,AUTO
         0 000360   200030 451500                    STP1    UGRANS+12,,AUTO
         0 000361   000014 237000 1                  LDAQ    12
         0 000362   200026 757100                    STAQ    UGRANS+10,,AUTO
         0 000363   000013 236000 1                  LDQ     11
         0 000364   200025 756100                    STQ     UGRANS+9,,AUTO
         0 000365   200013 633500                    EPPR3   CFU$,,AUTO
         0 000366   200024 453500                    STP3    UGRANS+8,,AUTO
         0 000367   000016 237000 1                  LDAQ    14
         0 000370   200022 757100                    STAQ    UGRANS+6,,AUTO
         0 000371   000024 237000 1                  LDAQ    20
         0 000372   200020 757100                    STAQ    UGRANS+4,,AUTO
PL6.E3A0      #004=FMH$INIT File=FMH$CONSEC.:E05TSI                              TUE 07/29/97 16:49 Page:295
         0 000373   200020 630500                    EPPR0   UGRANS+4,,AUTO
         0 000374   000010 631400 1                  EPPR1   8
         0 000375   000000 701000 xent               TSX1    FMB$LOGERR
         0 000376   000000 011000                    NOP     0

     1710     2060
     1711     2061    2          IF NRECS >= 0 THEN

   2061  0 000377   200012 235100                    LDA     NRECS,,AUTO
         0 000400   000403 604000 0                  TMI     s:2063

     1712     2062    2             FM$CFU.NRECS=NRECS;

   2062  0 000401   200013 470500                    LDP0    CFU$,,AUTO
         0 000402   000001 755100                    STA     1,,PR0

     1713     2063    2          FM$CFU.FMOD='1'B;

   2063  0 000403   200013 470500                    LDP0    CFU$,,AUTO
         0 000404   004000 236003                    LDQ     2048,DU
         0 000405   000000 256100                    ORSQ    0,,PR0

     1714     2064    2          B$JIT.ERR='0'B;

   2064  0 000406   000000 470400 xsym               LDP0    B$JIT$
         0 000407   000012 450100                    STZ     10,,PR0

     1715     2065    2          F$DCB.TYC='0'B;

   2065  0 000410   200003 471500                    LDP1    JDCB$,,AUTO
         0 000411   100001 450100                    STZ     1,,PR1
         0 000412   100002 450100                    STZ     2,,PR1

     1716     2066    2          CALL FMD$FLSHBUF(1);

   2066  0 000413   000000 630400 1                  EPPR0   0
         0 000414   000017 631400 xsym               EPPR1   B_VECTNIL+15
PL6.E3A0      #004=FMH$INIT File=FMH$CONSEC.:E05TSI                              TUE 07/29/97 16:49 Page:296
         0 000415   000000 701000 xent               TSX1    FMD$FLSHBUF
         0 000416   000000 011000                    NOP     0

     1717     2067    2          F$DCB.BFR.DA(1)=FM_FRZERO;

   2067  0 000417   200003 470500                    LDP0    JDCB$,,AUTO
         0 000420   000000 236000 xsym               LDQ     FM_FRZERO
         0 000421   000116 552134                    STBQ    78,'34'O,PR0

     1718     2068
     1719     2069    2          CALL FMB$LOGERR(%E$FREC, 72, 0, 0, CFU$, 4, 5, 7, 0);

   2069  0 000422   000006 236000 1                  LDQ     6
         0 000423   200030 756100                    STQ     UGRANS+12,,AUTO
         0 000424   000014 237000 1                  LDAQ    12
         0 000425   200026 757100                    STAQ    UGRANS+10,,AUTO
         0 000426   000013 236000 1                  LDQ     11
         0 000427   200025 756100                    STQ     UGRANS+9,,AUTO
         0 000430   200013 631500                    EPPR1   CFU$,,AUTO
         0 000431   200024 451500                    STP1    UGRANS+8,,AUTO
         0 000432   000016 237000 1                  LDAQ    14
         0 000433   200022 757100                    STAQ    UGRANS+6,,AUTO
         0 000434   000026 237000 1                  LDAQ    22
         0 000435   200020 757100                    STAQ    UGRANS+4,,AUTO
         0 000436   200020 630500                    EPPR0   UGRANS+4,,AUTO
         0 000437   000010 631400 1                  EPPR1   8
         0 000440   000000 701000 xent               TSX1    FMB$LOGERR
         0 000441   000000 011000                    NOP     0

     1720     2070    2          RETURN;

   2070  0 000442   200016 221300                    LDX1  ! UGRANS+2,,AUTO
         0 000443   000001 702211                    TSX2  ! 1,X1

(unnamed)
 Sect OctLoc
   1     000   000003 006000   743777 777777   777777 767777   774777 777777    ................
PL6.E3A0      #004=FMH$INIT File=FMH$CONSEC.:E05TSI                              TUE 07/29/97 16:49 Page:297
   1     004   707777 777777   777777 757777   000002 006000   777731 664600    ................
   1     010   000011 000000   000000 000046   000000 000106   000006 006000    .......&...F....
   1     014   000007 006000   000011 006000   000002 006000   000002 006000    ................
   1     020   000011 006000   000012 006000   000000 000107   000000 000110    ...........G...H
   1     024   000011 006000   000022 006000   000011 006000   000023 006000    ................
     1721     2071    2          END CHECK;
     1722     2072    1          END FMH$INIT;

PL6.E3A0      #004=FMH$INIT File=FMH$CONSEC.:E05TSI                              TUE 07/29/97 16:49 Page:298
--  Include file information  --

   F_ERRORS_C.:E05TOU  is referenced.
   F_FMTCODE_C.:E05TOU  is referenced.
   F$DCB.:E05TOU  is referenced.
   FM$MACROS.:E05TOU  is referenced.
   B$JIT_C.:E05TOU  is referenced.
   B$JIT.:E05TOU  cannot be made into a system file and is referenced.
   CP_6_SUBS.:E05TOU  is referenced.
      No diagnostics issued in procedure FMH$INIT.
PL6.E3A0      #004=FMH$INIT File=FMH$CONSEC.:E05TSI                              TUE 07/29/97 16:49 Page:299

 **** Variables and constants ****

  ****  Auto variables  ****

  ****  Scalars and arrays  ****
OctLoc.c.b A Datatyp(siz) R M Lvl/name                 OctLoc.c.b A Datatyp(siz) R M Lvl/name

     4-0-0/w PTR         r     1 BUF$                      13-0-0/w PTR         r     1 CFU$
    10-0-0/w UBIN        r     1 DA                         3-0-0/w PTR         r     1 JDCB$
    11-0-0/w SBIN        r     1 N                          7-0-0/w SBIN        r     1 NAVX
    12-0-0/w SBIN        r     1 NRECS                      5-0-0/w PTR         r     1 SEG$
     6-0-0/w SBIN        r     1 SEGX                      14-0-0/w SBIN        r     1 UGRANS

  ****  SYMREF variables  ****

  ****  Scalars and arrays  ****
OctLoc.c.b A Datatyp(siz) R M Lvl/name                 OctLoc.c.b A Datatyp(siz) R M Lvl/name

     0-0-0/w PTR         r     1 B$JIT$                     0-0-0/w UBIN        r     1 FM_FRZERO

  ****  BASED and DCB variables  ****

  ****  Scalars and arrays  ****
OctLoc.c.b A Datatyp(siz) R M Lvl/name                 OctLoc.c.b A Datatyp(siz) R M Lvl/name

     0-0-0/d STRC(8856)  r     1 B$JIT                      0-0-0/d ASTR(3528)  r     1 F$DCB
     0-0-0/w STRC(288)   r     1 FM$CFU                     0-0-0/w STRC        r     1 FM$CON
     0-0-0/w STRC(180)   r     1 FM$GRAN


   Procedure FMH$INIT requires 292 words for executable code.
   Procedure FMH$INIT requires 26 words of local(AUTO) storage.

    No errors detected in file FMH$CONSEC.:E05TSI    .
PL6.E3A0      #004=FMH$INIT File=FMH$CONSEC.:E05TSI                              TUE 07/29/97 16:49 Page:300
          *** CROSS REFERENCE LISTING ***
**     DENOTES     IDENTIFIER DEFINITION
<<                 IDENTIFIER'S VALUE SET
>>                 IDENTIFIER'S VALUE USED
<>                 IDENTIFIER SET AND/OR USED
--                 IDENTIFIER REFERENCED
PL6.E3A0      #004=FMH$INIT File=FMH$CONSEC.:E05TSI                              TUE 07/29/97 16:49 Page:301
          MINI XREF LISTING

B$JIT.CPFLAGS1.SLEAZE
       986**DCL       986--REDEF
B$JIT.DCB$
      1060**DCL      1952>>ASSIGN
B$JIT.ERR
       892**DCL      2064<<ASSIGN
B$JIT.ERR.MID
       893**DCL       893--REDEF
B$JIT.JRESPEAK
      1054**DCL      1055--REDEF
B$JIT.ORIGINATOR_PORT.FROM_CR
      1163**DCL      1163--REDEF    1164--REDEF
B$JIT.PNR
      1067**DCL      1067--REDEF
B$JIT.TSLINE
      1161**DCL      1162--REDEF
B$JIT$
      1935**DCL       887--IMP-PTR  1952>>ASSIGN   2064>>ASSIGN
BUF$
      1942**DCL      1926--IMP-PTR  2020>>DOUNTIL  2021<>CALL     2023>>ASSIGN   2023>>ASSIGN   2024>>ASSIGN
      2030>>ASSIGN
CFU$
      1949**DCL      1920--IMP-PTR  1953<<ASSIGN   2036>>IF       2040>>ASSIGN   2041>>ASSIGN   2049>>ASSIGN
      2050>>ASSIGN   2051>>IF       2051>>IF       2053<>CALL     2054>>ASSIGN   2054>>ASSIGN   2055>>ASSIGN
      2055>>ASSIGN   2056>>ASSIGN   2056>>ASSIGN   2059<>CALL     2062>>ASSIGN   2063>>ASSIGN   2069<>CALL
CHECK
      2013**PROC     1969--CALL
DA
      1946**DCL      2017<<ASSIGN   2021<>CALL     2033<<ASSIGN   2033>>ASSIGN   2036>>IF       2041<<ASSIGN
      2049>>ASSIGN
DATA_ERROR IN PROCEDURE CHECK
      2036**LABEL    2021--CALLALT
PL6.E3A0      #004=FMH$INIT File=FMH$CONSEC.:E05TSI                              TUE 07/29/97 16:49 Page:302
F$DCB.ACS
      1887**DCL      1971>>IF       1977>>IF
F$DCB.ACTPOS
      1895**DCL      1895--REDEF
F$DCB.ARS
      1870**DCL      1870--REDEF
F$DCB.ATTR
      1888**DCL      1889--REDEF
F$DCB.BFR.DA
      1915**DCL      1955>>IF       1958<<ASSIGN   2067<<ASSIGN
F$DCB.BORROW
      1903**DCL      1903--REDEF    1903--REDEF    1903--REDEF
F$DCB.CFU$
      1904**DCL      1953>>ASSIGN
F$DCB.CRECNO
      1907**DCL      1965<<ASSIGN
F$DCB.CRECX
      1906**DCL      1962<<ASSIGN
F$DCB.DCBNAME.L
      1917**DCL      1917--IMP-SIZ
F$DCB.DESC.BAD
      1878**DCL      2038<<ASSIGN
F$DCB.EOMCHAR
      1874**DCL      1874--REDEF
F$DCB.EOP
      1899**DCL      1964<<ASSIGN
F$DCB.FEXT
      1898**DCL      1984<<ASSIGN   1994<<ASSIGN
F$DCB.FLDID
      1898**DCL      1898--REDEF
F$DCB.FORM$
      1892**DCL      1892--REDEF
F$DCB.FPRGX
      1894**DCL      1987>>IF
F$DCB.FSECT
      1908**DCL      1908--REDEF
PL6.E3A0      #004=FMH$INIT File=FMH$CONSEC.:E05TSI                              TUE 07/29/97 16:49 Page:303
F$DCB.FSN
      1885**DCL      1885--REDEF    1885--REDEF    1886--REDEF
F$DCB.FUN
      1884**DCL      1980>>IF
F$DCB.GTYP
      1899**DCL      1961<<ASSIGN
F$DCB.HEADER$
      1891**DCL      1891--REDEF
F$DCB.IASN
      1911**DCL      1989>>IF
F$DCB.IFMT
      1910**DCL      1973<<ASSIGN   1983<<ASSIGN   1990<<ASSIGN   1991<<ASSIGN
F$DCB.IXTNSIZE
      1889**DCL      1889--REDEF
F$DCB.LASTSTA$
      1879**DCL      1879--REDEF
F$DCB.LVL
      1904**DCL      1904--REDEF    1966<<ASSIGN
F$DCB.MEDIA
      1910**DCL      1993<<ASSIGN
F$DCB.NAME.C
      1879**DCL      1879--REDEF
F$DCB.NOEOF
      1900**DCL      1900--REDEF
F$DCB.NRECS
      1890**DCL      1890--REDEF
F$DCB.NRECX
      1909**DCL      1909--REDEF
F$DCB.OHDR
      1901**DCL      1901--REDEF
F$DCB.ORG
      1884**DCL      1884--REDEF    1981>>DOCASE
F$DCB.PRECNO
      1907**DCL      1907--REDEF
F$DCB.RA
      1901**DCL      1968>>IF       2015<<ASSIGN
PL6.E3A0      #004=FMH$INIT File=FMH$CONSEC.:E05TSI                              TUE 07/29/97 16:49 Page:304
F$DCB.RCSZ
      1912**DCL      1912--REDEF
F$DCB.RES
      1880**DCL      1880--REDEF
F$DCB.RPOS
      1901**DCL      1963<<ASSIGN
F$DCB.SETX
      1892**DCL      1892--REDEF
F$DCB.TAB$
      1891**DCL      1892--REDEF
F$DCB.TDA
      1906**DCL      1906--REDEF
F$DCB.TYC
      1870**DCL      2065<<ASSIGN
F$DCB.WSN
      1881**DCL      1881--REDEF
FM$CFU.ACCTX
      1921**DCL      1921--REDEF
FM$CFU.B
      1923**DCL      2040<<ASSIGN
FM$CFU.FMOD
      1920**DCL      2063<<ASSIGN
FM$CFU.LDA
      1923**DCL      2036>>IF       2041>>ASSIGN   2049<<ASSIGN   2050>>ASSIGN   2054>>ASSIGN
FM$CFU.NGAVAL
      1923**DCL      2051>>IF       2056<<ASSIGN   2056>>ASSIGN
FM$CFU.NRECS
      1921**DCL      2062<<ASSIGN
FM$CFU.UGRANS
      1922**DCL      2051>>IF       2054>>ASSIGN   2055<<ASSIGN   2055>>ASSIGN
FM$CON.FAK
      1930**DCL      2027>>IF
FM$GRAN.AVAIL
      1927**DCL      2023>>ASSIGN
FM$GRAN.NAVX
      1926**DCL      2023>>ASSIGN
PL6.E3A0      #004=FMH$INIT File=FMH$CONSEC.:E05TSI                              TUE 07/29/97 16:49 Page:305
FM$GRAN.NOTLDA
      1927**DCL      2020>>DOUNTIL
FMB$LOGERR
      1938**DCL-ENT  2053--CALL     2059--CALL     2069--CALL
FMD$FLSHBUF
      1939**DCL-ENT  1957--CALL     2018--CALL     2066--CALL
FMD$REDBUF
      1937**DCL-ENT  2021--CALL
FM_FRZERO
      1934**DCL      1955>>IF       1958>>ASSIGN   2017>>ASSIGN   2050>>ASSIGN   2054>>ASSIGN   2067>>ASSIGN
JDCB$
      1941**DCL      1870--IMP-PTR  1952<<ASSIGN   1953>>ASSIGN   1955>>IF       1958>>ASSIGN   1961>>ASSIGN
      1962>>ASSIGN   1963>>ASSIGN   1964>>ASSIGN   1965>>ASSIGN   1966>>ASSIGN   1968>>IF       1971>>IF
      1973>>ASSIGN   1977>>IF       1980>>IF       1981>>DOCASE   1983>>ASSIGN   1984>>ASSIGN   1987>>IF
      1989>>IF       1990>>ASSIGN   1991>>ASSIGN   1993>>ASSIGN   1994>>ASSIGN   2015>>ASSIGN   2038>>ASSIGN
      2065>>ASSIGN   2067>>ASSIGN
LOOP IN PROCEDURE CHECK
      2020**LABEL    2045--EXIT
N
      1947**DCL      2054<<ASSIGN   2055>>ASSIGN   2056>>ASSIGN
NAVX
      1945**DCL      2023<<ASSIGN   2026>>DOWHILE
NRECS
      1948**DCL      2016<<ASSIGN   2028<<ASSIGN   2028>>ASSIGN   2039<<ASSIGN   2061>>IF       2062>>ASSIGN
SEG$
      1943**DCL      1930--IMP-PTR  2024<<ASSIGN   2027>>IF       2030<<ASSIGN
SEGX
      1944**DCL      2025<<ASSIGN   2026>>DOWHILE  2029<<ASSIGN   2029>>ASSIGN   2030>>ASSIGN
TOP IN PROCEDURE CHECK
      2021**LABEL    2042--GOTO
UGRANS
      1950**DCL      2050<<ASSIGN   2051>>IF       2051>>IF       2053<>CALL     2059<>CALL
PL6.E3A0      #004=FMH$INIT File=FMH$CONSEC.:E05TSI                              TUE 07/29/97 16:49 Page:306
              *** CROSS REFERENCE LISTING ***
    **     DENOTES     IDENTIFIER DEFINITION
    <<                 IDENTIFIER'S VALUE SET
    >>                 IDENTIFIER'S VALUE USED
    <>                 IDENTIFIER SET AND/OR USED
    --                 IDENTIFIER REFERENCED
PL6.E3A0      #004=FMH$INIT File=FMH$CONSEC.:E05TSI                              TUE 07/29/97 16:49 Page:307
              MINI UREF LISTING

FMH$INIT      24**PROC
