PL6.E3A0      #002=FMI$INIT File=FMI$RAN.:E05TSI                                 TUE 07/29/97 16:50 Page:136
      754        1        /*T***********************************************************/
      755        2        /*T*                                                         */
      756        3        /*T* Copyright (c) Bull HN Information Systems Inc., 1997    */
      757        4        /*T*                                                         */
      758        5        /*T***********************************************************/
      759        6        /*F*   NAME:   FMI$INIT
      760        7        *      PURPOSE:  To initialize a newly opened RANDOM file DCB                */
      761        8                                                /*                                    */
      762        9                                                /*                                    */
      763       10                                                /*                                    */
      764       11        /*D*   NAME:   FMI$INIT
      765       12        *      CALL:   CALL FMI$INIT;
      766       13        *       OUTPUT: Various DCB fields initialized
      767       14        *      DESCRIPTION:                                                          */
      768       15                                                /*                                    */
      769       16        FMI$INIT: PROC ALTRET;
      770       17        /* LOCAL AUTOMATIC STORAGE */
      771       18    1   DCL JDCB$ PTR;
      772       19    1   DCL CFU$ PTR;
      773       20    1   DCL TEMP_DCB PTR;
      774       21    1   DCL 1 TEMP_DCB_R REDEF TEMP_DCB,
      775       22    1         2 ADDR_BITS UBIN(18) UNAL,
      776       23    1         2 LS   UBIN(18) UNAL;
      777       24    1   DCL DSACC UBIN;
      778       25    1   DCL DSSID UBIN;
      779       26    1   DCL HEADPP# UBIN;
      780       27    1   DCL DSWSQ UBIN;
      781       28        /* EXTERNAL DATA */
      782       29    1   DCL B$JIT$ PTR SYMREF;
      783       30    1   DCL B$IS$ PTR SYMREF;
      784       31    1   DCL LS0UBIN REDEF B$IS$ UBIN;
      785       32    1   DCL MM_SHAREDSUSE SBIN SYMREF;
      786       33        /* EXTERNAL ROUTINES */
      787       34    1   DCL FMG$INIT ENTRY ALTRET;
      788       35    1   DCL FMH$INIT ENTRY;
      789       36    1   DCL FMI$DSREAD ENTRY(1);
      790       37    1   DCL FMI$DSWRITE ENTRY(1);
PL6.E3A0      #002=FMI$INIT File=FMI$RAN.:E05TSI                                 TUE 07/29/97 16:50 Page:137
      791       38    1   DCL MMH$MAP_DS ENTRY(8)ALTRET;
      792       39    1   DCL MMH$SHARE_DS ENTRY(8)ALTRET;
      793       40    1   DCL MMH$FDS ENTRY(4)ALTRET;
      794       41    1   DCL MMJ$FPPCHAIN ENTRY(3);
      795       42    1   DCL MMV$CLOSE ENTRY ALTRET;
      796       43    1   DCL UQB$MENQX ENTRY(1) ALTRET;
      797       44    1   DCL UQB$MDEQ ENTRY(1) ALTRET;
      798       45        /* INCLUDE FILES */
      799       46        %INCLUDE B_STRINGS_C;
      800      175        %INCLUDE F$JIT_C;
      801      605        %MACRO F$DCB (BASED="BASED(JDCB$)");
      802      606        %INCLUDE F$DCB;
      803      655        %MEND;
      804      656        %INCLUDE FM$MACROS;
      805     1031        %INCLUDE CP_6_SUBS;
      806     1571        %INCLUDE FM_DATA_R;
      807     1585        %INCLUDE F_ERRORS_C;
      808     1825        %INCLUDE M_INFO_C;
      809     1965        /* CONSTANT DATA */
      810     1966        %SUB FCG#='0615'O;
      811     1967        %SUB MID#='11'O;
      812     1968        %ERRCODE (NAME=ERRCGFILE,COD#=%E$CGFILE);
      813     1972        %ERRCODE (NAME=ERRNOSHRDS,COD#=%E$NOSHRDS);
      814     1976        %ERRCODE(NAME=ERRSHRDS2BIG,COD#=%E$SHRDS2BIG);
      815     1980        %ERRCODE(NAME=ERRNOACCESS,COD#=%E$READ);
      816     1984        %ERRCODE(NAME=ERRNOCODE,COD#=0);
      817     1988        /* BASED STRUCTURES */
      818     1989        %FM$CFU(BASED="BASED(CFU$)");
      819     1995        %FM$CFUR(BASED="BASED(CFU$)");
      820     1998        %F$DCB;
      821     2048                                                /*                                    */
      822     2049    1           JDCB$=B$JIT.DCB$;
      823     2050        /**/
      824     2051    1           IF F$DCB.ORG=%CG# AND F$DCB.ASN=%FILE# THEN
      825     2052    1              IF NOT B$JIT.PRIV.ACTIVE&%PR_FMDIAG# AND
      826     2053    1                (F$DCB.FUN~=%IN# OR NOT(F$DCB.FFLG&(%FFLG_AU#|%FFLG_AURD#))) THEN
      827     2054    1                 IF F$DCB.FFLG.REATTR THEN
PL6.E3A0      #002=FMI$INIT File=FMI$RAN.:E05TSI                                 TUE 07/29/97 16:50 Page:138
      828     2055    1                    F$DCB.FFLG=F$DCB.FFLG&(%FFLG_NOLIST#|%FFLG_REATTR#|
      829     2056    1                      %FFLG_DELF#|%FFLG_EXEC#);
      830     2057    2                 ELSE DO;
      831     2058    2                    B$JIT.ERR=ERRCGFILE;
      832     2059    2                    ALTRETURN;
      833     2060    2                    END;
      834     2061        /*E*    ERROR: -E$CGFILE-2
      835     2062                MESSAGE: You are not allowed to open comgroup% %UF% as a file
      836     2063        */
      837     2064        /**/
      838     2065                /* Make sure F$DCB.KEYL is set correctly for IREL files when
      839     2066                   opened by XSA$FSF.                                     */
      840     2067    1           IF F$DCB.ORG=%IREL# AND F$DCB.ACS=%UBLOCK# THEN
      841     2068    1              GOTO FMG_INIT;
      842     2069                /* Otherwise, make sure files are fixed up if they weren't
      843     2070                   closed properly before.                             */
      844     2071    1           IF F$DCB.RA THEN
      845     2072    2           DO CASE(F$DCB.ORG);
      846     2073    2            CASE(%CONSEC#,%UR#,%SYMB#,%TERMINAL#);
      847     2074    2              CALL FMH$INIT;
      848     2075    2            CASE(%KEYED#,%INDEXED#,%IREL#);
      849     2076    2   FMG_INIT:  CALL FMG$INIT;
      850     2077    2            END;
      851     2078        /**/
      852     2079                /*
      853     2080                   If we're creating a file with ACS=BLOCK, and hence IFPARAM,
      854     2081                   FMO$BLDFIT already set CRECNO 'cause he knew what kind of
      855     2082                   fit we started with. I.e., granule 0 may have already been
      856     2083                   written if a FIT became an AFIT when we got extents during
      857     2084                   open. Otherwise, set CRECNO here.
      858     2085                */
      859     2086    1           IF NOT(F$DCB.IASN=%FILE# AND F$DCB.ACS=%BLOCK# AND
      860     2087    1             (F$DCB.CFU$->FM$CFU.FUN=%CREATE# OR
      861     2088    1             (F$DCB.CFU$->FM$CFU.FUN=%UPDATE# AND F$DCB.CTG AND
      862     2089    1             F$DCB.FUN=%CREATE#))) THEN
      863     2090    1              F$DCB.CRECNO=0;              /* Current block number               */
      864     2091    2           IF F$DCB.IASN=%FILE# THEN DO;
PL6.E3A0      #002=FMI$INIT File=FMI$RAN.:E05TSI                                 TUE 07/29/97 16:50 Page:139
      865     2092    2              IF F$DCB.ACS=%BLOCK# AND F$DCB.CFU$->FM$CFU.AFIT=0 THEN
      866     2093    2                 F$DCB.CRECNO=1;           /* BLOCK ACCESS WITH AFIT             */
      867     2094    2              F$DCB.GTYP=FMGTFILE;
      868     2095    2              IF F$DCB.ORG~=%RANDOM# THEN RETURN;
      869     2096    2              IF F$DCB.WSR~=7 THEN DSWSQ=F$DCB.WSR;
      870     2097    2              ELSE DSWSQ=%USERWSQ;
      871     2098    2              DSSID=LS0UBIN+F$DCB.ACS;
      872     2099    2              CFU$=F$DCB.CFU$;
      873     2100    3              IF NOT F$DCB.ENQF THEN DO;
      874     2101    3                 F$DCB.ENQF='1'B;
      875     2102    3                 CALL UQB$MENQX(CFU$);
      876     2103    3                 END;
      877     2104    3              IF FM$CFUR.HEADPP#~=0 THEN DO; /* ALREADY OPEN SHRDS               */
      878     2105    3                 IF F$DCB.ACS<=%JRNL# THEN GOTO SHRDSERR;
      879     2106        /*E*      ERROR: FMI-E$NOSHRDS-E
      880     2107        *         MESSAGE:Shared data segment file %FN must be shared alike.
      881     2108        *         MESSAGE1:All users of %UF must share it in a data segment, or
      882     2109        *         they must all share it normally.
      883     2110        */
      884     2111    3                 IF NOT F$DCB.FFLG.READ THEN GOTO NOACCESS;
      885     2112    3                 F$DCB.NRECS=FM$CFU.NRECS;
      886     2113    3                 IF F$DCB.FFLG&%(FFLG_WNEW#|FFLG_UPD#) THEN DSACC=BITBIN(%MM_DSWRITE#);
      887     2114    3                 ELSE DSACC=BITBIN(%MM_DSREAD#);
      888     2115        /*E*      ERROR: FMI-E$READ-E
      889     2116        *         MESSAGE:DS sharing %of %FN% denied because you can't do anything.
      890     2117        *         MESSAGE1:To share a file %(%UF) % in a data segment, you must be
      891     2118        *         able to read the information therein.
      892     2119        */
      893     2120    3                 HEADPP#=FM$CFUR.HEADPP#;
      894     2121    3                 CALL MMH$MAP_DS(DSWSQ,DSSID,FM$CFU.NRECS*1024-1,B$JIT.ERR,
      895     2122    3                   DSACC,HEADPP#,,FM$CFU.NRECS) ALTRET(MMERR);
      896     2123    3                 IF DSACC=BITBIN(%MM_DSWRITE#) THEN FM$CFU.FMOD='1'B;
      897     2124    3                 RETURN;
      898     2125    3                 END;
      899     2126    3              ELSE IF F$DCB.ACS<=%JRNL# THEN DO;
      900     2127                                      /* Indicate that the mode is now established    */
      901     2128    3                    FM$CFUR.TAILPP#=1;
PL6.E3A0      #002=FMI$INIT File=FMI$RAN.:E05TSI                                 TUE 07/29/97 16:50 Page:140
      902     2129    3                    RETURN;
      903     2130    3                    END;
      904     2131    2              IF FM$CFUR.TAILPP#~=0 THEN GOTO SHRDSERR;
      905     2132    2              FM$CFU.NRECS=FM$CFU.UGRANS-1;
      906     2133    2              IF FM$CFU.UGRANS=0 THEN FM$CFU.NRECS=F$DCB.XTNSIZE;
      907     2134    2              IF FM$CFU.NRECS>256 OR FM$CFU.NRECS=0 THEN GOTO SHRDS2BIG;
      908     2135        /*E*      ERROR: FMI-E$SHRDS2BIG-E
      909     2136        *         MESSAGE:File %%FN %shared in a data segment must fit there.
      910     2137        *         MESSAGE1:File %FN is > 257k or < 2k, so it cannot be DS shared.
      911     2138        */
      912     2139    2              IF NOT F$DCB.FFLG.READ THEN GOTO NOACCESS;
      913     2140    2              IF F$DCB.FFLG&%(FFLG_WNEW#|FFLG_UPD#) THEN DSACC=BITBIN(%MM_DSWRITE#);
      914     2141    2              ELSE DSACC=BITBIN(%MM_DSREAD#);
      915     2142    2              HEADPP#=0;
      916     2143    2              CALL MMH$SHARE_DS(DSWSQ,DSSID,FM$CFU.NRECS*1024-1,B$JIT.ERR,
      917     2144    2                DSACC,HEADPP#,FM$CFUR.HEADPP#,FM$CFU.NRECS)
      918     2145    2                ALTRET(MMERR);
      919     2146    2              FM$CFUR.HEADPP#=HEADPP#;
      920     2147    2              F$DCB.NRECS=FM$CFU.NRECS;
      921     2148    2              MM_SHAREDSUSE=MM_SHAREDSUSE+FM$CFU.NRECS;
      922     2149    2              IF FM$CFU.UGRANS~=0 THEN CALL FMI$DSREAD(DSWSQ);
      923     2150    2              IF DSACC=BITBIN(%MM_DSWRITE#) THEN FM$CFU.FMOD='1'B;
      924     2151    2              END;
      925     2152    1           RETURN;
      926     2153        /**/
      927     2154    1   SHRDSERR: B$JIT.ERR=ERRNOSHRDS;
      928     2155    1           ALTRETURN;
      929     2156        /**/
      930     2157    1   SHRDS2BIG: B$JIT.ERR=ERRSHRDS2BIG;
      931     2158    1           ALTRETURN;
      932     2159        /**/
      933     2160    1   NOACCESS: B$JIT.ERR=ERRNOACCESS;
      934     2161    1           ALTRETURN;
      935     2162        /**/
      936     2163    1   MMERR:  ;
      937     2164    1           B$JIT.ERR=BINBIT(BITBIN(B$JIT.ERR),33)|ERRNOCODE;
      938     2165    1           ALTRETURN;
PL6.E3A0      #002=FMI$INIT File=FMI$RAN.:E05TSI                                 TUE 07/29/97 16:50 Page:141
      939     2166        %EJECT;
PL6.E3A0      #002=FMI$INIT File=FMI$RAN.:E05TSI                                 TUE 07/29/97 16:50 Page:142
      940     2167        /*F*   NAME:   FMI$DSREL
      941     2168        *      PURPOSE: Release a shared data segment at close time.
      942     2169        *      INTERFACE: MMH$FDS - free the data segment.
      943     2170        *                 FMI$DSWRITE - save the data in the segment.
      944     2171        *                 MMJ$FPPCHAIN - free the physical pages.
      945     2172        *      DESCRIPTION: If this is not the last user, just release the segment.
      946     2173        *        Otherwise, if any user could have stored in it, write the segment
      947     2174        *        to the file before freeing it and releasing the page chain.
      948     2175        */
      949     2176    1   FMI$DSREL: ENTRY ALTRET;
      950     2177    1           JDCB$=B$JIT.DCB$;
      951     2178    1           CFU$=F$DCB.CFU$;
      952     2179    1           TEMP_DCB = F$DCB.LASTSTA$;
      953     2180    1           TEMP_DCB_R.ADDR_BITS = 0;
      954     2181    1           IF F$DCB.IORG = %KEYED# AND TEMP_DCB ~=ADDR(NIL)
      955     2182    2           THEN DO;
      956     2183    2              CALL MMV$CLOSE;
      957     2184    2              RETURN;
      958     2185    2              END;
      959     2186    1           IF F$DCB.ORG~=%RANDOM# OR FM$CFUR.HEADPP#=0 OR F$DCB.FFLG='0'B THEN
      960     2187    1              RETURN;
      961     2188    1           CALL UQB$MENQX (CFU$);
      962     2189    1           DSSID=LS0UBIN+F$DCB.ACS;
      963     2190    1           DSWSQ=F$DCB.WSR;
      964     2191    1           IF DSWSQ=7 THEN DSWSQ=%USERWSQ;
      965     2192    1           DSACC=0;
      966     2193    1           HEADPP#=FM$CFUR.HEADPP#;
      967     2194    1           CALL MMH$MAP_DS(DSWSQ,DSSID,FM$CFU.NRECS*1024-1,DSACC,,
      968     2195    1             HEADPP#,,FM$CFU.NRECS);
      969     2196    1           IF DSACC~=0 THEN RETURN;
      970     2197    2           IF FM$CFU.USECNT=1 THEN DO;
      971     2198    2              IF FM$CFU.FMOD AND FM$CFU.UGRANS~=0 AND FM$CFU.NAMEX~=0
      972     2199    2              THEN CALL FMI$DSWRITE(DSWSQ);
      973     2200    2              FM$CFUR.HEADPP#=0;
      974     2201    2              FM$CFUR.TAILPP#=0;
      975     2202    2              CALL MMJ$FPPCHAIN(HEADPP#,FM$CFUR.HEADPP#,FM$CFU.NRECS);
      976     2203    2              MM_SHAREDSUSE=MM_SHAREDSUSE-FM$CFU.NRECS;
PL6.E3A0      #002=FMI$INIT File=FMI$RAN.:E05TSI                                 TUE 07/29/97 16:50 Page:143
      977     2204    2              END;
      978     2205    1           CALL MMH$FDS(DSWSQ,DSSID,262144,DSACC);
      979     2206    1           IF FM$CFU.UGRANS=0 AND FM$CFU.USECNT=1 THEN ALTRETURN;
      980     2207    1           RETURN;
      981     2208    1   END FMI$INIT;
      982     2209        %EOD;

PL6.E3A0      #002=FMI$INIT File=FMI$RAN.:E05TSI                                 TUE 07/29/97 16:50 Page:144
--  Include file information  --

   M_INFO_C.:E05TOU  is referenced.
   F_ERRORS_C.:E05TOU  is referenced.
   FM_DATA_R.:E05TOU  cannot be made into a system file and is referenced.
   CP_6_SUBS.:E05TOU  is referenced.
   FM$MACROS.:E05TOU  is referenced.
   F$DCB.:E05TOU  is referenced.
   B$JIT_C.:E05TOU  is referenced.
   F$JIT_C.:E05TOU  cannot be made into a system file and is referenced.
   B_STRINGS_C.:E05TOU  is referenced.
      No diagnostics issued in procedure FMI$INIT.

   Procedure FMI$INIT requires 452 words for executable code.
   Procedure FMI$INIT requires 20 words of local(AUTO) storage.

PL6.E3A0      #002=FMI$INIT File=FMI$RAN.:E05TSI                                 TUE 07/29/97 16:50 Page:145

 Object Unit name= FMI$INIT                                   File name= FMI$RAN.:E05TOU
 UTS= JUL 29 '97 16:50:42.56 TUE                              Compiler= PL-6/E31         Sev=      00
 SharedLib= :SHARED_SYSTEM                                    Alt SharedLib=


    ****  Control sections  ****

 Sect   Type Bound  Init  Size OctSiz  Section name(segment info)
    0  RoData even  UTS      6      6  FMI$INIT
    1   Proc  even  none   452    704  FMI$INIT
    2  RoData even  none     2      2  FMI$INIT

    ****  Entry defs  ****

                              Check   Calling
                             calling  sequence
  Sect OctLoc Primary Altret sequence   type   Parms  Name
     1      0   yes    yes     yes      Std        0  FMI$INIT
     1    465          yes     yes      Std        0  FMI$DSREL
PL6.E3A0      #002=FMI$INIT File=FMI$RAN.:E05TSI                                 TUE 07/29/97 16:50 Page:146

  ****  Entry refs  ****

         Check        Calling
        calling       sequence
Altret sequence SRef   type   Args  Name
         yes           Std       0 FMH$INIT
 yes     yes           Std       0 FMG$INIT
         yes           Std       3 MMJ$FPPCHAIN
 yes     yes           Std       4 MMH$FDS
 yes     yes           Std       1 UQB$MENQX
 yes     yes           Std       8 MMH$MAP_DS
 yes     yes           Std       8 MMH$SHARE_DS
         yes           Std       1 FMI$DSREAD
         yes           Std       1 FMI$DSWRITE
 yes     yes           Std       0 MMV$CLOSE
                       nStd      0 X66_AUTO_0
                       nStd      0 X66_AALT
                       Std       0 B_CONSPOOL_D
                       nStd      0 X66_ARET

  ****  Data refs  ****

  Flags:  r = read only, s = secondary
Flgs Name                             Flgs Name                             Flgs Name
     B$JIT$                                B$IS$                                 MM_SHAREDSUSE
     B_VECTNIL

  ****  Segment refs  ****

  Flags:  r = read only, s = secondary
Flgs Name                             Flgs Name                             Flgs Name
     ISSID
PL6.E3A0      #002=FMI$INIT File=FMI$RAN.:E05TSI                                 TUE 07/29/97 16:50 Page:147


      754        1        /*T***********************************************************/
      755        2        /*T*                                                         */
      756        3        /*T* Copyright (c) Bull HN Information Systems Inc., 1997    */
      757        4        /*T*                                                         */
      758        5        /*T***********************************************************/
      759        6        /*F*   NAME:   FMI$INIT
      760        7        *      PURPOSE:  To initialize a newly opened RANDOM file DCB                */
      761        8                                                /*                                    */
      762        9                                                /*                                    */
      763       10                                                /*                                    */
      764       11        /*D*   NAME:   FMI$INIT
      765       12        *      CALL:   CALL FMI$INIT;
      766       13        *       OUTPUT: Various DCB fields initialized
      767       14        *      DESCRIPTION:                                                          */
      768       15                                                /*                                    */
      769       16        FMI$INIT: PROC ALTRET;

     16  1 000000   000000 700200 xent  FMI$INIT     TSX0  ! X66_AUTO_0
         1 000001   000024 000000                    ZERO    20,0

      770       17        /* LOCAL AUTOMATIC STORAGE */
      771       18    1   DCL JDCB$ PTR;
      772       19    1   DCL CFU$ PTR;
      773       20    1   DCL TEMP_DCB PTR;
      774       21    1   DCL 1 TEMP_DCB_R REDEF TEMP_DCB,
      775       22    1         2 ADDR_BITS UBIN(18) UNAL,
      776       23    1         2 LS   UBIN(18) UNAL;
      777       24    1   DCL DSACC UBIN;
      778       25    1   DCL DSSID UBIN;
      779       26    1   DCL HEADPP# UBIN;
      780       27    1   DCL DSWSQ UBIN;
      781       28        /* EXTERNAL DATA */
      782       29    1   DCL B$JIT$ PTR SYMREF;
      783       30    1   DCL B$IS$ PTR SYMREF;
      784       31    1   DCL LS0UBIN REDEF B$IS$ UBIN;
      785       32    1   DCL MM_SHAREDSUSE SBIN SYMREF;
PL6.E3A0      #002=FMI$INIT File=FMI$RAN.:E05TSI                                 TUE 07/29/97 16:50 Page:148
      786       33        /* EXTERNAL ROUTINES */
      787       34    1   DCL FMG$INIT ENTRY ALTRET;
      788       35    1   DCL FMH$INIT ENTRY;
      789       36    1   DCL FMI$DSREAD ENTRY(1);
      790       37    1   DCL FMI$DSWRITE ENTRY(1);
      791       38    1   DCL MMH$MAP_DS ENTRY(8)ALTRET;
      792       39    1   DCL MMH$SHARE_DS ENTRY(8)ALTRET;
      793       40    1   DCL MMH$FDS ENTRY(4)ALTRET;
      794       41    1   DCL MMJ$FPPCHAIN ENTRY(3);
      795       42    1   DCL MMV$CLOSE ENTRY ALTRET;
      796       43    1   DCL UQB$MENQX ENTRY(1) ALTRET;
      797       44    1   DCL UQB$MDEQ ENTRY(1) ALTRET;
      798       45        /* INCLUDE FILES */
      799       46        %INCLUDE B_STRINGS_C;
      800      175        %INCLUDE F$JIT_C;
      801      605        %MACRO F$DCB (BASED="BASED(JDCB$)");
      802      606        %INCLUDE F$DCB;
      803      655        %MEND;
      804      656        %INCLUDE FM$MACROS;
      805     1031        %INCLUDE CP_6_SUBS;
      806     1571        %INCLUDE FM_DATA_R;
      807     1585        %INCLUDE F_ERRORS_C;
      808     1825        %INCLUDE M_INFO_C;
      809     1965        /* CONSTANT DATA */
      810     1966        %SUB FCG#='0615'O;
      811     1967        %SUB MID#='11'O;
      812     1968        %ERRCODE (NAME=ERRCGFILE,COD#=%E$CGFILE);
      813     1972        %ERRCODE (NAME=ERRNOSHRDS,COD#=%E$NOSHRDS);
      814     1976        %ERRCODE(NAME=ERRSHRDS2BIG,COD#=%E$SHRDS2BIG);
      815     1980        %ERRCODE(NAME=ERRNOACCESS,COD#=%E$READ);
      816     1984        %ERRCODE(NAME=ERRNOCODE,COD#=0);
      817     1988        /* BASED STRUCTURES */
      818     1989        %FM$CFU(BASED="BASED(CFU$)");
      819     1995        %FM$CFUR(BASED="BASED(CFU$)");
      820     1998        %F$DCB;
      821     2048                                                /*                                    */
      822     2049    1           JDCB$=B$JIT.DCB$;
PL6.E3A0      #002=FMI$INIT File=FMI$RAN.:E05TSI                                 TUE 07/29/97 16:50 Page:149

   2049  1 000002   000000 470400 xsym               LDP0    B$JIT$
         1 000003   000232 236100                    LDQ     154,,PR0
         1 000004   200003 756100                    STQ     JDCB$,,AUTO

      823     2050        /**/
      824     2051    1           IF F$DCB.ORG=%CG# AND F$DCB.ASN=%FILE# THEN

   2051  1 000005   200003 471500                    LDP1    JDCB$,,AUTO
         1 000006   100032 236100                    LDQ     26,,PR1
         1 000007   777000 376003                    ANQ     -512,DU
         1 000010   013000 116003                    CMPQ    5632,DU
         1 000011   000042 601000 1                  TNZ     s:2067
         1 000012   100032 236100                    LDQ     26,,PR1
         1 000013   777000 376007                    ANQ     -512,DL
         1 000014   001000 116007                    CMPQ    512,DL
         1 000015   000042 601000 1                  TNZ     s:2067

      825     2052    1              IF NOT B$JIT.PRIV.ACTIVE&%PR_FMDIAG# AND

   2052  1 000016   000013 236100                    LDQ     11,,PR0
         1 000017   000005 376000 0                  ANQ     ERRNOCODE+1
         1 000020   000042 601000 1                  TNZ     s:2067
         1 000021   100032 236100                    LDQ     26,,PR1
         1 000022   000777 376003                    ANQ     511,DU
         1 000023   000002 116003                    CMPQ    2,DU
         1 000024   000030 601000 1                  TNZ     s:2054
         1 000025   100004 220100                    LDX0    4,,PR1
         1 000026   000600 360003                    ANX0    384,DU
         1 000027   000042 601000 1                  TNZ     s:2067

      826     2053    1                (F$DCB.FUN~=%IN# OR NOT(F$DCB.FFLG&(%FFLG_AU#|%FFLG_AURD#))) THEN
      827     2054    1                 IF F$DCB.FFLG.REATTR THEN

   2054  1 000030   100004 236100                    LDQ     4,,PR1
         1 000031   004000 316003                    CANQ    2048,DU
         1 000032   000037 600000 1                  TZE     s:2058
PL6.E3A0      #002=FMI$INIT File=FMI$RAN.:E05TSI                                 TUE 07/29/97 16:50 Page:150

      828     2055    1                    F$DCB.FFLG=F$DCB.FFLG&(%FFLG_NOLIST#|%FFLG_REATTR#|

   2055  1 000033   100004 220100                    LDX0    4,,PR1
         1 000034   036000 360003                    ANX0    15360,DU
         1 000035   100004 740100                    STX0    4,,PR1
         1 000036   000042 710000 1                  TRA     s:2067

      829     2056    1                      %FFLG_DELF#|%FFLG_EXEC#);
      830     2057    2                 ELSE DO;

      831     2058    2                    B$JIT.ERR=ERRCGFILE;

   2058  1 000037   000000 236000 0                  LDQ     ERRCGFILE
         1 000040   000012 756100                    STQ     10,,PR0

      832     2059    2                    ALTRETURN;

   2059  1 000041   000000 702200 xent               TSX2  ! X66_AALT

      833     2060    2                    END;
      834     2061        /*E*    ERROR: -E$CGFILE-2
      835     2062                MESSAGE: You are not allowed to open comgroup% %UF% as a file
      836     2063        */
      837     2064        /**/
      838     2065                /* Make sure F$DCB.KEYL is set correctly for IREL files when
      839     2066                   opened by XSA$FSF.                                     */
      840     2067    1           IF F$DCB.ORG=%IREL# AND F$DCB.ACS=%UBLOCK# THEN

   2067  1 000042   100032 236100                    LDQ     26,,PR1
         1 000043   777000 376003                    ANQ     -512,DU
         1 000044   015000 116003                    CMPQ    6656,DU
         1 000045   000052 601000 1                  TNZ     s:2071
         1 000046   100036 236100                    LDQ     30,,PR1
         1 000047   000777 376007                    ANQ     511,DL
         1 000050   000014 116007                    CMPQ    12,DL
         1 000051   000104 600000 1                  TZE     FMG_INIT
PL6.E3A0      #002=FMI$INIT File=FMI$RAN.:E05TSI                                 TUE 07/29/97 16:50 Page:151

      841     2068    1              GOTO FMG_INIT;
      842     2069                /* Otherwise, make sure files are fixed up if they weren't
      843     2070                   closed properly before.                             */
      844     2071    1           IF F$DCB.RA THEN

   2071  1 000052   100064 236100                    LDQ     52,,PR1
         1 000053   020000 316007                    CANQ    8192,DL
         1 000054   000107 600000 1                  TZE     s:2086

      845     2072    2           DO CASE(F$DCB.ORG);

   2072  1 000055   100032 236100                    LDQ     26,,PR1
         1 000056   000033 772000                    QRL     27
         1 000057   000016 116007                    CMPQ    14,DL
         1 000060   000062 602006 1                  TNC     s:2072+5,QL
         1 000061   000107 710000 1                  TRA     s:2086
         1 000062   000107 710000 1                  TRA     s:2086
         1 000063   000100 710000 1                  TRA     s:2074
         1 000064   000104 710000 1                  TRA     FMG_INIT
         1 000065   000107 710000 1                  TRA     s:2086
         1 000066   000100 710000 1                  TRA     s:2074
         1 000067   000107 710000 1                  TRA     s:2086
         1 000070   000104 710000 1                  TRA     FMG_INIT
         1 000071   000107 710000 1                  TRA     s:2086
         1 000072   000100 710000 1                  TRA     s:2074
         1 000073   000100 710000 1                  TRA     s:2074
         1 000074   000107 710000 1                  TRA     s:2086
         1 000075   000107 710000 1                  TRA     s:2086
         1 000076   000107 710000 1                  TRA     s:2086
         1 000077   000104 710000 1                  TRA     FMG_INIT

      846     2073    2            CASE(%CONSEC#,%UR#,%SYMB#,%TERMINAL#);

      847     2074    2              CALL FMH$INIT;

   2074  1 000100   000002 631400 xsym               EPPR1   B_VECTNIL+2
PL6.E3A0      #002=FMI$INIT File=FMI$RAN.:E05TSI                                 TUE 07/29/97 16:50 Page:152
         1 000101   000000 701000 xent               TSX1    FMH$INIT
         1 000102   000000 011000                    NOP     0
         1 000103   000107 710000 1                  TRA     s:2086

      848     2075    2            CASE(%KEYED#,%INDEXED#,%IREL#);

      849     2076    2   FMG_INIT:  CALL FMG$INIT;

   2076  1 000104   000002 631400 xsym  FMG_INIT     EPPR1   B_VECTNIL+2
         1 000105   000000 701000 xent               TSX1    FMG$INIT
         1 000106   000000 011000                    NOP     0

      850     2077    2            END;

      851     2078        /**/
      852     2079                /*
      853     2080                   If we're creating a file with ACS=BLOCK, and hence IFPARAM,
      854     2081                   FMO$BLDFIT already set CRECNO 'cause he knew what kind of
      855     2082                   fit we started with. I.e., granule 0 may have already been
      856     2083                   written if a FIT became an AFIT when we got extents during
      857     2084                   open. Otherwise, set CRECNO here.
      858     2085                */
      859     2086    1           IF NOT(F$DCB.IASN=%FILE# AND F$DCB.ACS=%BLOCK# AND

   2086  1 000107   200003 470500                    LDP0    JDCB$,,AUTO
         1 000110   000103 236100                    LDQ     67,,PR0
         1 000111   000777 376007                    ANQ     511,DL
         1 000112   000001 116007                    CMPQ    1,DL
         1 000113   000136 601000 1                  TNZ     s:2090
         1 000114   000036 236100                    LDQ     30,,PR0
         1 000115   000777 376007                    ANQ     511,DL
         1 000116   000003 116007                    CMPQ    3,DL
         1 000117   000136 601000 1                  TNZ     s:2090
         1 000120   000066 471500                    LDP1    54,,PR0
         1 000121   100000 236100                    LDQ     0,,PR1
         1 000122   700000 376003                    ANQ     -32768,DU
         1 000123   300000 116003                    CMPQ    98304,DU
PL6.E3A0      #002=FMI$INIT File=FMI$RAN.:E05TSI                                 TUE 07/29/97 16:50 Page:153
         1 000124   000137 600000 1                  TZE     s:2091
         1 000125   100000 116003                    CMPQ    32768,DU
         1 000126   000136 601000 1                  TNZ     s:2090
         1 000127   000031 236100                    LDQ     25,,PR0
         1 000130   004000 316007                    CANQ    2048,DL
         1 000131   000136 600000 1                  TZE     s:2090
         1 000132   000032 236100                    LDQ     26,,PR0
         1 000133   000777 376003                    ANQ     511,DU
         1 000134   000003 116003                    CMPQ    3,DU
         1 000135   000137 600000 1                  TZE     s:2091

      860     2087    1             (F$DCB.CFU$->FM$CFU.FUN=%CREATE# OR
      861     2088    1             (F$DCB.CFU$->FM$CFU.FUN=%UPDATE# AND F$DCB.CTG AND
      862     2089    1             F$DCB.FUN=%CREATE#))) THEN
      863     2090    1              F$DCB.CRECNO=0;              /* Current block number               */

   2090  1 000136   000071 450100                    STZ     57,,PR0

      864     2091    2           IF F$DCB.IASN=%FILE# THEN DO;

   2091  1 000137   000103 236100                    LDQ     67,,PR0
         1 000140   000777 376007                    ANQ     511,DL
         1 000141   000001 116007                    CMPQ    1,DL
         1 000142   000442 601000 1                  TNZ     s:2152

      865     2092    2              IF F$DCB.ACS=%BLOCK# AND F$DCB.CFU$->FM$CFU.AFIT=0 THEN

   2092  1 000143   000036 236100                    LDQ     30,,PR0
         1 000144   000777 376007                    ANQ     511,DL
         1 000145   000003 116007                    CMPQ    3,DL
         1 000146   000155 601000 1                  TNZ     s:2094
         1 000147   000066 471500                    LDP1    54,,PR0
         1 000150   100000 236100                    LDQ     0,,PR1
         1 000151   001000 316003                    CANQ    512,DU
         1 000152   000155 601000 1                  TNZ     s:2094

      866     2093    2                 F$DCB.CRECNO=1;           /* BLOCK ACCESS WITH AFIT             */
PL6.E3A0      #002=FMI$INIT File=FMI$RAN.:E05TSI                                 TUE 07/29/97 16:50 Page:154

   2093  1 000153   000001 235007                    LDA     1,DL
         1 000154   000071 755100                    STA     57,,PR0

      867     2094    2              F$DCB.GTYP=FMGTFILE;

   2094  1 000155   000064 236100                    LDQ     52,,PR0
         1 000156   000000 376000 2                  ANQ     0
         1 000157   030000 276003                    ORQ     12288,DU
         1 000160   000064 756100                    STQ     52,,PR0

      868     2095    2              IF F$DCB.ORG~=%RANDOM# THEN RETURN;

   2095  1 000161   000032 236100                    LDQ     26,,PR0
         1 000162   777000 376003                    ANQ     -512,DU
         1 000163   003000 116003                    CMPQ    1536,DU
         1 000164   000166 600000 1                  TZE     s:2096

   2095  1 000165   000000 702200 xent               TSX2  ! X66_ARET

      869     2096    2              IF F$DCB.WSR~=7 THEN DSWSQ=F$DCB.WSR;

   2096  1 000166   000040 236100                    LDQ     32,,PR0
         1 000167   000777 376003                    ANQ     511,DU
         1 000170   000007 116003                    CMPQ    7,DU
         1 000171   000177 600000 1                  TZE     s:2097

   2096  1 000172   000040 236100                    LDQ     32,,PR0
         1 000173   000022 772000                    QRL     18
         1 000174   000777 376007                    ANQ     511,DL
         1 000175   200011 756100                    STQ     DSWSQ,,AUTO
         1 000176   000201 710000 1                  TRA     s:2098

      870     2097    2              ELSE DSWSQ=%USERWSQ;

   2097  1 000177   000010 235007                    LDA     8,DL
         1 000200   200011 755100                    STA     DSWSQ,,AUTO
PL6.E3A0      #002=FMI$INIT File=FMI$RAN.:E05TSI                                 TUE 07/29/97 16:50 Page:155

      871     2098    2              DSSID=LS0UBIN+F$DCB.ACS;

   2098  1 000201   000036 236100                    LDQ     30,,PR0
         1 000202   000777 376007                    ANQ     511,DL
         1 000203   000000 036000 xsym               ADLQ    B$IS$
         1 000204   200007 756100                    STQ     DSSID,,AUTO

      872     2099    2              CFU$=F$DCB.CFU$;

   2099  1 000205   000066 236100                    LDQ     54,,PR0
         1 000206   200004 756100                    STQ     CFU$,,AUTO

      873     2100    3              IF NOT F$DCB.ENQF THEN DO;

   2100  1 000207   000064 236100                    LDQ     52,,PR0
         1 000210   000200 316007                    CANQ    128,DL
         1 000211   000222 601000 1                  TNZ     s:2104

      874     2101    3                 F$DCB.ENQF='1'B;

   2101  1 000212   000200 236007                    LDQ     128,DL
         1 000213   000064 256100                    ORSQ    52,,PR0

      875     2102    3                 CALL UQB$MENQX(CFU$);

   2102  1 000214   200004 631500                    EPPR1   CFU$,,AUTO
         1 000215   200012 451500                    STP1    DSWSQ+1,,AUTO
         1 000216   200012 630500                    EPPR0   DSWSQ+1,,AUTO
         1 000217   000017 631400 xsym               EPPR1   B_VECTNIL+15
         1 000220   000000 701000 xent               TSX1    UQB$MENQX
         1 000221   000000 011000                    NOP     0

      876     2103    3                 END;

      877     2104    3              IF FM$CFUR.HEADPP#~=0 THEN DO; /* ALREADY OPEN SHRDS               */

PL6.E3A0      #002=FMI$INIT File=FMI$RAN.:E05TSI                                 TUE 07/29/97 16:50 Page:156
   2104  1 000222   200004 470500                    LDP0    CFU$,,AUTO
         1 000223   000005 220100                    LDX0    5,,PR0
         1 000224   000311 600000 1                  TZE     s:2126

      878     2105    3                 IF F$DCB.ACS<=%JRNL# THEN GOTO SHRDSERR;

   2105  1 000225   200003 471500                    LDP1    JDCB$,,AUTO
         1 000226   100036 236100                    LDQ     30,,PR1
         1 000227   000777 376007                    ANQ     511,DL
         1 000230   000005 116007                    CMPQ    5,DL
         1 000231   000443 602000 1                  TNC     SHRDSERR

      879     2106        /*E*      ERROR: FMI-E$NOSHRDS-E
      880     2107        *         MESSAGE:Shared data segment file %FN must be shared alike.
      881     2108        *         MESSAGE1:All users of %UF must share it in a data segment, or
      882     2109        *         they must all share it normally.
      883     2110        */
      884     2111    3                 IF NOT F$DCB.FFLG.READ THEN GOTO NOACCESS;

   2111  1 000232   100004 234100                    SZN     4,,PR1
         1 000233   000453 605000 1                  TPL     NOACCESS

      885     2112    3                 F$DCB.NRECS=FM$CFU.NRECS;

   2112  1 000234   000001 235100                    LDA     1,,PR0
         1 000235   100042 755100                    STA     34,,PR1

      886     2113    3                IF F$DCB.FFLG&%(FFLG_WNEW#|FFLG_UPD#) THEN DSACC=BITBIN(%MM_DSWRITE#);

   2113  1 000236   100004 220100                    LDX0    4,,PR1
         1 000237   140000 360003                    ANX0    49152,DU
         1 000240   000244 600000 1                  TZE     s:2114

   2113  1 000241   000600 235007                    LDA     384,DL
         1 000242   200006 755100                    STA     DSACC,,AUTO
         1 000243   000246 710000 1                  TRA     s:2120

PL6.E3A0      #002=FMI$INIT File=FMI$RAN.:E05TSI                                 TUE 07/29/97 16:50 Page:157
      887     2114    3                 ELSE DSACC=BITBIN(%MM_DSREAD#);

   2114  1 000244   000400 235007                    LDA     256,DL
         1 000245   200006 755100                    STA     DSACC,,AUTO

      888     2115        /*E*      ERROR: FMI-E$READ-E
      889     2116        *         MESSAGE:DS sharing %of %FN% denied because you can't do anything.
      890     2117        *         MESSAGE1:To share a file %(%UF) % in a data segment, you must be
      891     2118        *         able to read the information therein.
      892     2119        */
      893     2120    3                 HEADPP#=FM$CFUR.HEADPP#;

   2120  1 000246   000005 236100                    LDQ     5,,PR0
         1 000247   000022 772000                    QRL     18
         1 000250   200010 756100                    STQ     HEADPP#,,AUTO

      894     2121    3                 CALL MMH$MAP_DS(DSWSQ,DSSID,FM$CFU.NRECS*1024-1,B$JIT.ERR,

   2121  1 000251   000001 235100                    LDA     1,,PR0
         1 000252   000012 735000                    ALS     10
         1 000253   000001 135007                    SBLA    1,DL
         1 000254   200012 755100                    STA     DSWSQ+1,,AUTO
         1 000255   200004 236100                    LDQ     CFU$,,AUTO
         1 000256   000001 036003                    ADLQ    1,DU
         1 000257   000001 235000 xsym               LDA     B_VECTNIL+1
         1 000260   200022 757100                    STAQ    DSWSQ+9,,AUTO
         1 000261   200010 633500                    EPPR3   HEADPP#,,AUTO
         1 000262   200021 453500                    STP3    DSWSQ+8,,AUTO
         1 000263   200006 634500                    EPPR4   DSACC,,AUTO
         1 000264   200020 454500                    STP4    DSWSQ+7,,AUTO
         1 000265   000000 236000 xsym               LDQ     B$JIT$
         1 000266   000012 036003                    ADLQ    10,DU
         1 000267   200017 756100                    STQ     DSWSQ+6,,AUTO
         1 000270   200012 635500                    EPPR5   DSWSQ+1,,AUTO
         1 000271   200016 455500                    STP5    DSWSQ+5,,AUTO
         1 000272   200007 636500                    EPPR6   DSSID,,AUTO
         1 000273   200015 456500                    STP6    DSWSQ+4,,AUTO
PL6.E3A0      #002=FMI$INIT File=FMI$RAN.:E05TSI                                 TUE 07/29/97 16:50 Page:158
         1 000274   200011 637500                    EPPR7   DSWSQ,,AUTO
         1 000275   200014 457500                    STP7    DSWSQ+3,,AUTO
         1 000276   200014 630500                    EPPR0   DSWSQ+3,,AUTO
         1 000277   000026 631400 xsym               EPPR1   B_VECTNIL+22
         1 000300   000000 701000 xent               TSX1    MMH$MAP_DS
         1 000301   000457 702000 1                  TSX2    MMERR

      895     2122    3                   DSACC,HEADPP#,,FM$CFU.NRECS) ALTRET(MMERR);
      896     2123    3                 IF DSACC=BITBIN(%MM_DSWRITE#) THEN FM$CFU.FMOD='1'B;

   2123  1 000302   200006 235100                    LDA     DSACC,,AUTO
         1 000303   000600 115007                    CMPA    384,DL
         1 000304   000310 601000 1                  TNZ     s:2124

   2123  1 000305   200004 470500                    LDP0    CFU$,,AUTO
         1 000306   004000 236003                    LDQ     2048,DU
         1 000307   000000 256100                    ORSQ    0,,PR0

      897     2124    3                 RETURN;

   2124  1 000310   000000 702200 xent               TSX2  ! X66_ARET

      898     2125    3                 END;
      899     2126    3              ELSE IF F$DCB.ACS<=%JRNL# THEN DO;

   2126  1 000311   200003 471500                    LDP1    JDCB$,,AUTO
         1 000312   100036 236100                    LDQ     30,,PR1
         1 000313   000777 376007                    ANQ     511,DL
         1 000314   000005 116007                    CMPQ    5,DL
         1 000315   000321 603000 1                  TRC     s:2131

      900     2127                                      /* Indicate that the mode is now established    */
      901     2128    3                    FM$CFUR.TAILPP#=1;

   2128  1 000316   000001 221003                    LDX1    1,DU
         1 000317   000005 441100                    SXL1    5,,PR0

PL6.E3A0      #002=FMI$INIT File=FMI$RAN.:E05TSI                                 TUE 07/29/97 16:50 Page:159
      902     2129    3                    RETURN;

   2129  1 000320   000000 702200 xent               TSX2  ! X66_ARET

      903     2130    3                    END;
      904     2131    2              IF FM$CFUR.TAILPP#~=0 THEN GOTO SHRDSERR;

   2131  1 000321   000005 721100                    LXL1    5,,PR0
         1 000322   000443 601000 1                  TNZ     SHRDSERR

      905     2132    2              FM$CFU.NRECS=FM$CFU.UGRANS-1;

   2132  1 000323   000004 236100                    LDQ     4,,PR0
         1 000324   000032 376000 xsym               ANQ     B_VECTNIL+26
         1 000325   000001 136007                    SBLQ    1,DL
         1 000326   000001 756100                    STQ     1,,PR0

      906     2133    2              IF FM$CFU.UGRANS=0 THEN FM$CFU.NRECS=F$DCB.XTNSIZE;

   2133  1 000327   200004 470500                    LDP0    CFU$,,AUTO
         1 000330   000004 236100                    LDQ     4,,PR0
         1 000331   000032 316000 xsym               CANQ    B_VECTNIL+26
         1 000332   000336 601000 1                  TNZ     s:2134

   2133  1 000333   100037 236100                    LDQ     31,,PR1
         1 000334   000022 772000                    QRL     18
         1 000335   000001 756100                    STQ     1,,PR0

      907     2134    2              IF FM$CFU.NRECS>256 OR FM$CFU.NRECS=0 THEN GOTO SHRDS2BIG;

   2134  1 000336   200004 470500                    LDP0    CFU$,,AUTO
         1 000337   000001 235100                    LDA     1,,PR0
         1 000340   000400 115007                    CMPA    256,DL
         1 000341   000447 605400 1                  TPNZ    SHRDS2BIG
         1 000342   000000 115003                    CMPA    0,DU
         1 000343   000447 600000 1                  TZE     SHRDS2BIG

PL6.E3A0      #002=FMI$INIT File=FMI$RAN.:E05TSI                                 TUE 07/29/97 16:50 Page:160
      908     2135        /*E*      ERROR: FMI-E$SHRDS2BIG-E
      909     2136        *         MESSAGE:File %%FN %shared in a data segment must fit there.
      910     2137        *         MESSAGE1:File %FN is > 257k or < 2k, so it cannot be DS shared.
      911     2138        */
      912     2139    2              IF NOT F$DCB.FFLG.READ THEN GOTO NOACCESS;

   2139  1 000344   100004 234100                    SZN     4,,PR1
         1 000345   000453 605000 1                  TPL     NOACCESS

      913     2140    2              IF F$DCB.FFLG&%(FFLG_WNEW#|FFLG_UPD#) THEN DSACC=BITBIN(%MM_DSWRITE#);

   2140  1 000346   100004 220100                    LDX0    4,,PR1
         1 000347   140000 360003                    ANX0    49152,DU
         1 000350   000354 600000 1                  TZE     s:2141

   2140  1 000351   000600 236007                    LDQ     384,DL
         1 000352   200006 756100                    STQ     DSACC,,AUTO
         1 000353   000356 710000 1                  TRA     s:2142

      914     2141    2              ELSE DSACC=BITBIN(%MM_DSREAD#);

   2141  1 000354   000400 236007                    LDQ     256,DL
         1 000355   200006 756100                    STQ     DSACC,,AUTO

      915     2142    2              HEADPP#=0;

   2142  1 000356   200010 450100                    STZ     HEADPP#,,AUTO

      916     2143    2              CALL MMH$SHARE_DS(DSWSQ,DSSID,FM$CFU.NRECS*1024-1,B$JIT.ERR,

   2143  1 000357   000001 235100                    LDA     1,,PR0
         1 000360   000012 735000                    ALS     10
         1 000361   000001 135007                    SBLA    1,DL
         1 000362   200012 755100                    STA     DSWSQ+1,,AUTO
         1 000363   200004 236100                    LDQ     CFU$,,AUTO
         1 000364   000001 036003                    ADLQ    1,DU
         1 000365   200023 756100                    STQ     DSWSQ+10,,AUTO
PL6.E3A0      #002=FMI$INIT File=FMI$RAN.:E05TSI                                 TUE 07/29/97 16:50 Page:161
         1 000366   200004 236100                    LDQ     CFU$,,AUTO
         1 000367   000005 036003                    ADLQ    5,DU
         1 000370   200022 756100                    STQ     DSWSQ+9,,AUTO
         1 000371   200010 633500                    EPPR3   HEADPP#,,AUTO
         1 000372   200021 453500                    STP3    DSWSQ+8,,AUTO
         1 000373   200006 634500                    EPPR4   DSACC,,AUTO
         1 000374   200020 454500                    STP4    DSWSQ+7,,AUTO
         1 000375   000000 236000 xsym               LDQ     B$JIT$
         1 000376   000012 036003                    ADLQ    10,DU
         1 000377   200017 756100                    STQ     DSWSQ+6,,AUTO
         1 000400   200012 635500                    EPPR5   DSWSQ+1,,AUTO
         1 000401   200016 455500                    STP5    DSWSQ+5,,AUTO
         1 000402   200007 636500                    EPPR6   DSSID,,AUTO
         1 000403   200015 456500                    STP6    DSWSQ+4,,AUTO
         1 000404   200011 637500                    EPPR7   DSWSQ,,AUTO
         1 000405   200014 457500                    STP7    DSWSQ+3,,AUTO
         1 000406   200014 630500                    EPPR0   DSWSQ+3,,AUTO
         1 000407   000026 631400 xsym               EPPR1   B_VECTNIL+22
         1 000410   000000 701000 xent               TSX1    MMH$SHARE_DS
         1 000411   000457 702000 1                  TSX2    MMERR

      917     2144    2                DSACC,HEADPP#,FM$CFUR.HEADPP#,FM$CFU.NRECS)
      918     2145    2                ALTRET(MMERR);
      919     2146    2              FM$CFUR.HEADPP#=HEADPP#;

   2146  1 000412   200010 720100                    LXL0    HEADPP#,,AUTO
         1 000413   200004 470500                    LDP0    CFU$,,AUTO
         1 000414   000005 740100                    STX0    5,,PR0

      920     2147    2              F$DCB.NRECS=FM$CFU.NRECS;

   2147  1 000415   200003 471500                    LDP1    JDCB$,,AUTO
         1 000416   000001 235100                    LDA     1,,PR0
         1 000417   100042 755100                    STA     34,,PR1

      921     2148    2              MM_SHAREDSUSE=MM_SHAREDSUSE+FM$CFU.NRECS;

PL6.E3A0      #002=FMI$INIT File=FMI$RAN.:E05TSI                                 TUE 07/29/97 16:50 Page:162
   2148  1 000420   000000 236000 xsym               LDQ     MM_SHAREDSUSE
         1 000421   000001 036100                    ADLQ    1,,PR0
         1 000422   000000 756000 xsym               STQ     MM_SHAREDSUSE

      922     2149    2              IF FM$CFU.UGRANS~=0 THEN CALL FMI$DSREAD(DSWSQ);

   2149  1 000423   000004 236100                    LDQ     4,,PR0
         1 000424   000032 316000 xsym               CANQ    B_VECTNIL+26
         1 000425   000434 600000 1                  TZE     s:2150

   2149  1 000426   200011 633500                    EPPR3   DSWSQ,,AUTO
         1 000427   200012 453500                    STP3    DSWSQ+1,,AUTO
         1 000430   200012 630500                    EPPR0   DSWSQ+1,,AUTO
         1 000431   000017 631400 xsym               EPPR1   B_VECTNIL+15
         1 000432   000000 701000 xent               TSX1    FMI$DSREAD
         1 000433   000000 011000                    NOP     0

      923     2150    2              IF DSACC=BITBIN(%MM_DSWRITE#) THEN FM$CFU.FMOD='1'B;

   2150  1 000434   200006 235100                    LDA     DSACC,,AUTO
         1 000435   000600 115007                    CMPA    384,DL
         1 000436   000442 601000 1                  TNZ     s:2152

   2150  1 000437   200004 470500                    LDP0    CFU$,,AUTO
         1 000440   004000 236003                    LDQ     2048,DU
         1 000441   000000 256100                    ORSQ    0,,PR0

      924     2151    2              END;

      925     2152    1           RETURN;

   2152  1 000442   000000 702200 xent               TSX2  ! X66_ARET

      926     2153        /**/
      927     2154    1   SHRDSERR: B$JIT.ERR=ERRNOSHRDS;

   2154  1 000443   000001 236000 0     SHRDSERR     LDQ     ERRNOSHRDS
PL6.E3A0      #002=FMI$INIT File=FMI$RAN.:E05TSI                                 TUE 07/29/97 16:50 Page:163
         1 000444   000000 473400 xsym               LDP3    B$JIT$
         1 000445   300012 756100                    STQ     10,,PR3

      928     2155    1           ALTRETURN;

   2155  1 000446   000000 702200 xent               TSX2  ! X66_AALT

      929     2156        /**/
      930     2157    1   SHRDS2BIG: B$JIT.ERR=ERRSHRDS2BIG;

   2157  1 000447   000002 236000 0     SHRDS2BIG    LDQ     ERRSHRDS2BIG
         1 000450   000000 473400 xsym               LDP3    B$JIT$
         1 000451   300012 756100                    STQ     10,,PR3

      931     2158    1           ALTRETURN;

   2158  1 000452   000000 702200 xent               TSX2  ! X66_AALT

      932     2159        /**/
      933     2160    1   NOACCESS: B$JIT.ERR=ERRNOACCESS;

   2160  1 000453   000003 236000 0     NOACCESS     LDQ     ERRNOACCESS
         1 000454   000000 473400 xsym               LDP3    B$JIT$
         1 000455   300012 756100                    STQ     10,,PR3

      934     2161    1           ALTRETURN;

   2161  1 000456   000000 702200 xent               TSX2  ! X66_AALT

   2150  1 000457                       MMERR        null
      935     2162        /**/
      936     2163    1   MMERR:  ;
      937     2164    1           B$JIT.ERR=BINBIT(BITBIN(B$JIT.ERR),33)|ERRNOCODE;

   2164  1 000457   000000 470400 xsym               LDP0    B$JIT$
         1 000460   000012 236100                    LDQ     10,,PR0
         1 000461   000003 736000                    QLS     3
PL6.E3A0      #002=FMI$INIT File=FMI$RAN.:E05TSI                                 TUE 07/29/97 16:50 Page:164
         1 000462   000004 276000 0                  ORQ     ERRNOCODE
         1 000463   000012 756100                    STQ     10,,PR0

      938     2165    1           ALTRETURN;

   2165  1 000464   000000 702200 xent               TSX2  ! X66_AALT

      939     2166        %EJECT;
PL6.E3A0      #002=FMI$INIT File=FMI$RAN.:E05TSI                                 TUE 07/29/97 16:50 Page:165
      940     2167        /*F*   NAME:   FMI$DSREL
      941     2168        *      PURPOSE: Release a shared data segment at close time.
      942     2169        *      INTERFACE: MMH$FDS - free the data segment.
      943     2170        *                 FMI$DSWRITE - save the data in the segment.
      944     2171        *                 MMJ$FPPCHAIN - free the physical pages.
      945     2172        *      DESCRIPTION: If this is not the last user, just release the segment.
      946     2173        *        Otherwise, if any user could have stored in it, write the segment
      947     2174        *        to the file before freeing it and releasing the page chain.
      948     2175        */
      949     2176    1   FMI$DSREL: ENTRY ALTRET;

   2176  1 000465   000000 700200 xent  FMI$DSREL    TSX0  ! X66_AUTO_0
         1 000466   000024 000000                    ZERO    20,0

      950     2177    1           JDCB$=B$JIT.DCB$;

   2177  1 000467   000000 470400 xsym               LDP0    B$JIT$
         1 000470   000232 236100                    LDQ     154,,PR0
         1 000471   200003 756100                    STQ     JDCB$,,AUTO

      951     2178    1           CFU$=F$DCB.CFU$;

   2178  1 000472   200003 471500                    LDP1    JDCB$,,AUTO
         1 000473   100066 236100                    LDQ     54,,PR1
         1 000474   200004 756100                    STQ     CFU$,,AUTO

      952     2179    1           TEMP_DCB = F$DCB.LASTSTA$;

   2179  1 000475   100007 236100                    LDQ     7,,PR1
         1 000476   200005 756100                    STQ     TEMP_DCB,,AUTO

      953     2180    1           TEMP_DCB_R.ADDR_BITS = 0;

   2180  1 000477   000000 220003                    LDX0    0,DU
         1 000500   200005 740100                    STX0    TEMP_DCB,,AUTO

      954     2181    1           IF F$DCB.IORG = %KEYED# AND TEMP_DCB ~=ADDR(NIL)
PL6.E3A0      #002=FMI$INIT File=FMI$RAN.:E05TSI                                 TUE 07/29/97 16:50 Page:166

   2181  1 000501   100070 236100                    LDQ     56,,PR1
         1 000502   077000 376003                    ANQ     32256,DU
         1 000503   002000 116003                    CMPQ    1024,DU
         1 000504   000514 601000 1                  TNZ     s:2186
         1 000505   200005 236100                    LDQ     TEMP_DCB,,AUTO
         1 000506   000001 116000 xsym               CMPQ    B_VECTNIL+1
         1 000507   000514 600000 1                  TZE     s:2186

      955     2182    2           THEN DO;

      956     2183    2              CALL MMV$CLOSE;

   2183  1 000510   000002 631400 xsym               EPPR1   B_VECTNIL+2
         1 000511   000000 701000 xent               TSX1    MMV$CLOSE
         1 000512   000000 011000                    NOP     0

      957     2184    2              RETURN;

   2184  1 000513   000000 702200 xent               TSX2  ! X66_ARET

      958     2185    2              END;
      959     2186    1           IF F$DCB.ORG~=%RANDOM# OR FM$CFUR.HEADPP#=0 OR F$DCB.FFLG='0'B THEN

   2186  1 000514   100032 236100                    LDQ     26,,PR1
         1 000515   777000 376003                    ANQ     -512,DU
         1 000516   003000 116003                    CMPQ    1536,DU
         1 000517   000525 601000 1                  TNZ     s:2187
         1 000520   200004 473500                    LDP3    CFU$,,AUTO
         1 000521   300005 221100                    LDX1    5,,PR3
         1 000522   000525 600000 1                  TZE     s:2187
         1 000523   100004 222100                    LDX2    4,,PR1
         1 000524   000526 601000 1                  TNZ     s:2188

      960     2187    1              RETURN;

   2187  1 000525   000000 702200 xent               TSX2  ! X66_ARET
PL6.E3A0      #002=FMI$INIT File=FMI$RAN.:E05TSI                                 TUE 07/29/97 16:50 Page:167

      961     2188    1           CALL UQB$MENQX (CFU$);

   2188  1 000526   200004 634500                    EPPR4   CFU$,,AUTO
         1 000527   200012 454500                    STP4    DSWSQ+1,,AUTO
         1 000530   200012 630500                    EPPR0   DSWSQ+1,,AUTO
         1 000531   000017 631400 xsym               EPPR1   B_VECTNIL+15
         1 000532   000000 701000 xent               TSX1    UQB$MENQX
         1 000533   000000 011000                    NOP     0

      962     2189    1           DSSID=LS0UBIN+F$DCB.ACS;

   2189  1 000534   200003 470500                    LDP0    JDCB$,,AUTO
         1 000535   000036 236100                    LDQ     30,,PR0
         1 000536   000777 376007                    ANQ     511,DL
         1 000537   000000 036000 xsym               ADLQ    B$IS$
         1 000540   200007 756100                    STQ     DSSID,,AUTO

      963     2190    1           DSWSQ=F$DCB.WSR;

   2190  1 000541   000040 236100                    LDQ     32,,PR0
         1 000542   000022 772000                    QRL     18
         1 000543   000777 376007                    ANQ     511,DL
         1 000544   200011 756100                    STQ     DSWSQ,,AUTO

      964     2191    1           IF DSWSQ=7 THEN DSWSQ=%USERWSQ;

   2191  1 000545   000007 116007                    CMPQ    7,DL
         1 000546   000551 601000 1                  TNZ     s:2192

   2191  1 000547   000010 235007                    LDA     8,DL
         1 000550   200011 755100                    STA     DSWSQ,,AUTO

      965     2192    1           DSACC=0;

   2192  1 000551   200006 450100                    STZ     DSACC,,AUTO

PL6.E3A0      #002=FMI$INIT File=FMI$RAN.:E05TSI                                 TUE 07/29/97 16:50 Page:168
      966     2193    1           HEADPP#=FM$CFUR.HEADPP#;

   2193  1 000552   200004 471500                    LDP1    CFU$,,AUTO
         1 000553   100005 236100                    LDQ     5,,PR1
         1 000554   000022 772000                    QRL     18
         1 000555   200010 756100                    STQ     HEADPP#,,AUTO

      967     2194    1           CALL MMH$MAP_DS(DSWSQ,DSSID,FM$CFU.NRECS*1024-1,DSACC,,

   2194  1 000556   100001 235100                    LDA     1,,PR1
         1 000557   000012 735000                    ALS     10
         1 000560   000001 135007                    SBLA    1,DL
         1 000561   200012 755100                    STA     DSWSQ+1,,AUTO
         1 000562   200004 236100                    LDQ     CFU$,,AUTO
         1 000563   000001 036003                    ADLQ    1,DU
         1 000564   000001 235000 xsym               LDA     B_VECTNIL+1
         1 000565   200022 757100                    STAQ    DSWSQ+9,,AUTO
         1 000566   200010 633500                    EPPR3   HEADPP#,,AUTO
         1 000567   200021 453500                    STP3    DSWSQ+8,,AUTO
         1 000570   000001 236000 xsym               LDQ     B_VECTNIL+1
         1 000571   200020 756100                    STQ     DSWSQ+7,,AUTO
         1 000572   200006 634500                    EPPR4   DSACC,,AUTO
         1 000573   200017 454500                    STP4    DSWSQ+6,,AUTO
         1 000574   200012 635500                    EPPR5   DSWSQ+1,,AUTO
         1 000575   200016 455500                    STP5    DSWSQ+5,,AUTO
         1 000576   200007 636500                    EPPR6   DSSID,,AUTO
         1 000577   200015 456500                    STP6    DSWSQ+4,,AUTO
         1 000600   200011 637500                    EPPR7   DSWSQ,,AUTO
         1 000601   200014 457500                    STP7    DSWSQ+3,,AUTO
         1 000602   200014 630500                    EPPR0   DSWSQ+3,,AUTO
         1 000603   000026 631400 xsym               EPPR1   B_VECTNIL+22
         1 000604   000000 701000 xent               TSX1    MMH$MAP_DS
         1 000605   000000 011000                    NOP     0

      968     2195    1             HEADPP#,,FM$CFU.NRECS);
      969     2196    1           IF DSACC~=0 THEN RETURN;

PL6.E3A0      #002=FMI$INIT File=FMI$RAN.:E05TSI                                 TUE 07/29/97 16:50 Page:169
   2196  1 000606   200006 235100                    LDA     DSACC,,AUTO
         1 000607   000611 600000 1                  TZE     s:2197

   2196  1 000610   000000 702200 xent               TSX2  ! X66_ARET

      970     2197    2           IF FM$CFU.USECNT=1 THEN DO;

   2197  1 000611   200004 470500                    LDP0    CFU$,,AUTO
         1 000612   000003 720100                    LXL0    3,,PR0
         1 000613   000001 100003                    CMPX0   1,DU
         1 000614   000657 601000 1                  TNZ     s:2205

      971     2198    2              IF FM$CFU.FMOD AND FM$CFU.UGRANS~=0 AND FM$CFU.NAMEX~=0

   2198  1 000615   000000 236100                    LDQ     0,,PR0
         1 000616   004000 316003                    CANQ    2048,DU
         1 000617   000633 600000 1                  TZE     s:2200
         1 000620   000004 236100                    LDQ     4,,PR0
         1 000621   000032 316000 xsym               CANQ    B_VECTNIL+26
         1 000622   000633 600000 1                  TZE     s:2200
         1 000623   000002 721100                    LXL1    2,,PR0
         1 000624   000633 600000 1                  TZE     s:2200

      972     2199    2              THEN CALL FMI$DSWRITE(DSWSQ);

   2199  1 000625   200011 631500                    EPPR1   DSWSQ,,AUTO
         1 000626   200012 451500                    STP1    DSWSQ+1,,AUTO
         1 000627   200012 630500                    EPPR0   DSWSQ+1,,AUTO
         1 000630   000017 631400 xsym               EPPR1   B_VECTNIL+15
         1 000631   000000 701000 xent               TSX1    FMI$DSWRITE
         1 000632   000000 011000                    NOP     0

      973     2200    2              FM$CFUR.HEADPP#=0;

   2200  1 000633   000000 220003                    LDX0    0,DU
         1 000634   200004 470500                    LDP0    CFU$,,AUTO
         1 000635   000005 740100                    STX0    5,,PR0
PL6.E3A0      #002=FMI$INIT File=FMI$RAN.:E05TSI                                 TUE 07/29/97 16:50 Page:170

      974     2201    2              FM$CFUR.TAILPP#=0;

   2201  1 000636   000005 440100                    SXL0    5,,PR0

      975     2202    2              CALL MMJ$FPPCHAIN(HEADPP#,FM$CFUR.HEADPP#,FM$CFU.NRECS);

   2202  1 000637   200004 236100                    LDQ     CFU$,,AUTO
         1 000640   000001 036003                    ADLQ    1,DU
         1 000641   200014 756100                    STQ     DSWSQ+3,,AUTO
         1 000642   200004 236100                    LDQ     CFU$,,AUTO
         1 000643   000005 036003                    ADLQ    5,DU
         1 000644   200013 756100                    STQ     DSWSQ+2,,AUTO
         1 000645   200010 631500                    EPPR1   HEADPP#,,AUTO
         1 000646   200012 451500                    STP1    DSWSQ+1,,AUTO
         1 000647   200012 630500                    EPPR0   DSWSQ+1,,AUTO
         1 000650   000021 631400 xsym               EPPR1   B_VECTNIL+17
         1 000651   000000 701000 xent               TSX1    MMJ$FPPCHAIN
         1 000652   000000 011000                    NOP     0

      976     2203    2              MM_SHAREDSUSE=MM_SHAREDSUSE-FM$CFU.NRECS;

   2203  1 000653   200004 470500                    LDP0    CFU$,,AUTO
         1 000654   000000 236000 xsym               LDQ     MM_SHAREDSUSE
         1 000655   000001 136100                    SBLQ    1,,PR0
         1 000656   000000 756000 xsym               STQ     MM_SHAREDSUSE

      977     2204    2              END;

      978     2205    1           CALL MMH$FDS(DSWSQ,DSSID,262144,DSACC);

   2205  1 000657   200006 631500                    EPPR1   DSACC,,AUTO
         1 000660   200015 451500                    STP1    DSWSQ+4,,AUTO
         1 000661   000001 236000 2                  LDQ     1
         1 000662   200014 756100                    STQ     DSWSQ+3,,AUTO
         1 000663   200007 633500                    EPPR3   DSSID,,AUTO
         1 000664   200013 453500                    STP3    DSWSQ+2,,AUTO
PL6.E3A0      #002=FMI$INIT File=FMI$RAN.:E05TSI                                 TUE 07/29/97 16:50 Page:171
         1 000665   200011 634500                    EPPR4   DSWSQ,,AUTO
         1 000666   200012 454500                    STP4    DSWSQ+1,,AUTO
         1 000667   200012 630500                    EPPR0   DSWSQ+1,,AUTO
         1 000670   000022 631400 xsym               EPPR1   B_VECTNIL+18
         1 000671   000000 701000 xent               TSX1    MMH$FDS
         1 000672   000000 011000                    NOP     0

      979     2206    1           IF FM$CFU.UGRANS=0 AND FM$CFU.USECNT=1 THEN ALTRETURN;

   2206  1 000673   200004 470500                    LDP0    CFU$,,AUTO
         1 000674   000004 236100                    LDQ     4,,PR0
         1 000675   000032 316000 xsym               CANQ    B_VECTNIL+26
         1 000676   000703 601000 1                  TNZ     s:2207
         1 000677   000003 720100                    LXL0    3,,PR0
         1 000700   000001 100003                    CMPX0   1,DU
         1 000701   000703 601000 1                  TNZ     s:2207

   2206  1 000702   000000 702200 xent               TSX2  ! X66_AALT

      980     2207    1           RETURN;

   2207  1 000703   000000 702200 xent               TSX2  ! X66_ARET

ERRCGFILE
 Sect OctLoc
   0     000   061511 001772                                                    1...

ERRNOSHRDS
 Sect OctLoc
   0     001   061511 001742                                                    1...

ERRSHRDS2BIG
 Sect OctLoc
   0     002   061511 002002                                                    1...

ERRNOACCESS
 Sect OctLoc
PL6.E3A0      #002=FMI$INIT File=FMI$RAN.:E05TSI                                 TUE 07/29/97 16:50 Page:172
   0     003   061511 000702                                                    1...

ERRNOCODE
 Sect OctLoc
   0     004   061511 000002                                                    1...

(unnamed)
 Sect OctLoc
   0     005   040000 000000                                                     ...

(unnamed)
 Sect OctLoc
   2     000   743777 777777   000017 006000                                    ........
      981     2208    1   END FMI$INIT;
      982     2209        %EOD;

PL6.E3A0      #002=FMI$INIT File=FMI$RAN.:E05TSI                                 TUE 07/29/97 16:50 Page:173
--  Include file information  --

   M_INFO_C.:E05TOU  is referenced.
   F_ERRORS_C.:E05TOU  is referenced.
   FM_DATA_R.:E05TOU  cannot be made into a system file and is referenced.
   CP_6_SUBS.:E05TOU  is referenced.
   FM$MACROS.:E05TOU  is referenced.
   F$DCB.:E05TOU  is referenced.
   B$JIT_C.:E05TOU  is referenced.
   F$JIT_C.:E05TOU  cannot be made into a system file and is referenced.
   B_STRINGS_C.:E05TOU  is referenced.
      No diagnostics issued in procedure FMI$INIT.
PL6.E3A0      #002=FMI$INIT File=FMI$RAN.:E05TSI                                 TUE 07/29/97 16:50 Page:174

 **** Variables and constants ****

  ****  Section 000 RoData FMI$INIT

  ****  Scalars and arrays  ****
OctLoc.c.b A Datatyp(siz) R M Lvl/name                 OctLoc.c.b A Datatyp(siz) R M Lvl/name

     0-0-0/b STRC        r     1 ERRCGFILE                  3-0-0/b STRC        r     1 ERRNOACCESS
     4-0-0/b STRC        r     1 ERRNOCODE                  1-0-0/b STRC        r     1 ERRNOSHRDS
     2-0-0/b STRC        r     1 ERRSHRDS2BIG

  ****  Auto variables  ****

  ****  Scalars and arrays  ****
OctLoc.c.b A Datatyp(siz) R M Lvl/name                 OctLoc.c.b A Datatyp(siz) R M Lvl/name

     4-0-0/w PTR         r     1 CFU$                       6-0-0/w UBIN        r     1 DSACC
     7-0-0/w UBIN        r     1 DSSID                     11-0-0/w UBIN        r     1 DSWSQ
    10-0-0/w UBIN        r     1 HEADPP#                    3-0-0/w PTR         r     1 JDCB$
     5-0-0/w PTR         r     1 TEMP_DCB                   5-0-0/w STRC        r     1 TEMP_DCB_R

  ****  SYMREF variables  ****

  ****  Scalars and arrays  ****
OctLoc.c.b A Datatyp(siz) R M Lvl/name                 OctLoc.c.b A Datatyp(siz) R M Lvl/name

     0-0-0/w PTR         r     1 B$IS$                      0-0-0/w PTR         r     1 B$JIT$
     0-0-0/w UBIN        r     1 LS0UBIN                    0-0-0/w SBIN        r     1 MM_SHAREDSUSE

  ****  BASED and DCB variables  ****

  ****  Scalars and arrays  ****
OctLoc.c.b A Datatyp(siz) R M Lvl/name                 OctLoc.c.b A Datatyp(siz) R M Lvl/name

     0-0-0/d STRC(8856)  r     1 B$JIT                      0-0-0/d ASTR(3528)  r     1 F$DCB
     0-0-0/w STRC(288)   r     1 FM$CFU                     0-0-0/w STRC(288)   r     1 FM$CFUR

PL6.E3A0      #002=FMI$INIT File=FMI$RAN.:E05TSI                                 TUE 07/29/97 16:50 Page:175

   Procedure FMI$INIT requires 452 words for executable code.
   Procedure FMI$INIT requires 20 words of local(AUTO) storage.
PL6.E3A0      #002=FMI$INIT File=FMI$RAN.:E05TSI                                 TUE 07/29/97 16:50 Page:176
          *** CROSS REFERENCE LISTING ***
**     DENOTES     IDENTIFIER DEFINITION
<<                 IDENTIFIER'S VALUE SET
>>                 IDENTIFIER'S VALUE USED
<>                 IDENTIFIER SET AND/OR USED
--                 IDENTIFIER REFERENCED
PL6.E3A0      #002=FMI$INIT File=FMI$RAN.:E05TSI                                 TUE 07/29/97 16:50 Page:177
          MINI XREF LISTING

B$IS$
        30**DCL        31--REDEF
B$JIT.DCB$
       592**DCL      2049>>ASSIGN   2177>>ASSIGN
B$JIT.ERR
       502**DCL      2058<<ASSIGN   2121<>CALL     2143<>CALL     2154<<ASSIGN   2157<<ASSIGN   2160<<ASSIGN
      2164<<ASSIGN   2164>>ASSIGN
B$JIT.ERR.MID
       503**DCL       503--REDEF
B$JIT.PRIV.ACTIVE
       503**DCL      2052>>IF
B$JIT$
        29**DCL       497--IMP-PTR  2049>>ASSIGN   2052>>IF       2058>>ASSIGN   2121>>CALL     2143>>CALL
      2154>>ASSIGN   2157>>ASSIGN   2160>>ASSIGN   2164>>ASSIGN   2164>>ASSIGN   2177>>ASSIGN
CFU$
        19**DCL      1990--IMP-PTR  1996--IMP-PTR  2099<<ASSIGN   2102<>CALL     2104>>IF       2112>>ASSIGN
      2120>>ASSIGN   2121>>CALL     2121>>CALL     2123>>ASSIGN   2128>>ASSIGN   2131>>IF       2132>>ASSIGN
      2132>>ASSIGN   2133>>IF       2133>>ASSIGN   2134>>IF       2134>>IF       2143>>CALL     2143>>CALL
      2143>>CALL     2146>>ASSIGN   2147>>ASSIGN   2148>>ASSIGN   2149>>IF       2150>>ASSIGN   2178<<ASSIGN
      2186>>IF       2188<>CALL     2193>>ASSIGN   2194>>CALL     2194>>CALL     2197>>IF       2198>>IF
      2198>>IF       2198>>IF       2200>>ASSIGN   2201>>ASSIGN   2202>>CALL     2202>>CALL     2203>>ASSIGN
      2206>>IF       2206>>IF
DSACC
        24**DCL      2113<<ASSIGN   2114<<ASSIGN   2121<>CALL     2123>>IF       2140<<ASSIGN   2141<<ASSIGN
      2143<>CALL     2150>>IF       2192<<ASSIGN   2194<>CALL     2196>>IF       2205<>CALL
DSSID
        25**DCL      2098<<ASSIGN   2121<>CALL     2143<>CALL     2189<<ASSIGN   2194<>CALL     2205<>CALL
DSWSQ
        27**DCL      2096<<ASSIGN   2097<<ASSIGN   2121<>CALL     2143<>CALL     2149<>CALL     2190<<ASSIGN
      2191>>IF       2191<<ASSIGN   2194<>CALL     2199<>CALL     2205<>CALL
ERRCGFILE
      1969**DCL      2058>>ASSIGN
PL6.E3A0      #002=FMI$INIT File=FMI$RAN.:E05TSI                                 TUE 07/29/97 16:50 Page:178
ERRNOACCESS
      1981**DCL      2160>>ASSIGN
ERRNOCODE
      1985**DCL      2164>>ASSIGN
ERRNOSHRDS
      1973**DCL      2154>>ASSIGN
ERRSHRDS2BIG
      1977**DCL      2157>>ASSIGN
F$DCB.ACS
      2016**DCL      2067>>IF       2086>>IF       2092>>IF       2098>>ASSIGN   2105>>IF       2126>>IF
      2189>>ASSIGN
F$DCB.ACTPOS
      2024**DCL      2024--REDEF
F$DCB.ARS
      1999**DCL      1999--REDEF
F$DCB.ASN
      2014**DCL      2051>>IF
F$DCB.ATTR
      2017**DCL      2018--REDEF
F$DCB.BORROW
      2032**DCL      2032--REDEF    2032--REDEF    2032--REDEF
F$DCB.CFU$
      2033**DCL      2086>>IF       2086>>IF       2092>>IF       2099>>ASSIGN   2178>>ASSIGN
F$DCB.CRECNO
      2036**DCL      2090<<ASSIGN   2093<<ASSIGN
F$DCB.CTG
      2012**DCL      2086>>IF
F$DCB.DCBNAME.L
      2046**DCL      2046--IMP-SIZ
F$DCB.ENQF
      2031**DCL      2100>>IF       2101<<ASSIGN
F$DCB.EOMCHAR
      2003**DCL      2003--REDEF
F$DCB.FFLG
      2003**DCL      2052>>IF       2055<<ASSIGN   2055>>ASSIGN   2113>>IF       2140>>IF       2186>>IF
F$DCB.FFLG.READ
PL6.E3A0      #002=FMI$INIT File=FMI$RAN.:E05TSI                                 TUE 07/29/97 16:50 Page:179
      2004**DCL      2111>>IF       2139>>IF
F$DCB.FFLG.REATTR
      2004**DCL      2054>>IF
F$DCB.FLDID
      2027**DCL      2027--REDEF
F$DCB.FORM$
      2021**DCL      2021--REDEF
F$DCB.FSECT
      2037**DCL      2037--REDEF
F$DCB.FSN
      2014**DCL      2014--REDEF    2014--REDEF    2015--REDEF
F$DCB.FUN
      2013**DCL      2052>>IF       2086>>IF
F$DCB.GTYP
      2028**DCL      2094<<ASSIGN
F$DCB.HEADER$
      2020**DCL      2020--REDEF
F$DCB.IASN
      2040**DCL      2086>>IF       2091>>IF
F$DCB.IORG
      2035**DCL      2181>>IF
F$DCB.IXTNSIZE
      2018**DCL      2018--REDEF
F$DCB.LASTSTA$
      2008**DCL      2008--REDEF    2179>>ASSIGN
F$DCB.LVL
      2033**DCL      2033--REDEF
F$DCB.NAME.C
      2008**DCL      2008--REDEF
F$DCB.NOEOF
      2029**DCL      2029--REDEF
F$DCB.NRECS
      2019**DCL      2019--REDEF    2112<<ASSIGN   2147<<ASSIGN
F$DCB.NRECX
      2038**DCL      2038--REDEF
F$DCB.OHDR
PL6.E3A0      #002=FMI$INIT File=FMI$RAN.:E05TSI                                 TUE 07/29/97 16:50 Page:180
      2030**DCL      2030--REDEF
F$DCB.ORG
      2013**DCL      2013--REDEF    2051>>IF       2067>>IF       2072>>DOCASE   2095>>IF       2186>>IF
F$DCB.PRECNO
      2036**DCL      2036--REDEF
F$DCB.RA
      2030**DCL      2071>>IF
F$DCB.RCSZ
      2041**DCL      2041--REDEF
F$DCB.RES
      2009**DCL      2009--REDEF
F$DCB.SETX
      2021**DCL      2021--REDEF
F$DCB.TAB$
      2020**DCL      2021--REDEF
F$DCB.TDA
      2035**DCL      2035--REDEF
F$DCB.WSN
      2010**DCL      2010--REDEF
F$DCB.WSR
      2016**DCL      2096>>IF       2096>>ASSIGN   2190>>ASSIGN
F$DCB.XTNSIZE
      2016**DCL      2133>>ASSIGN
FM$CFU.ACCTX
      1991**DCL      1991--REDEF
FM$CFU.AFIT
      1990**DCL      2092>>IF
FM$CFU.FMOD
      1990**DCL      2123<<ASSIGN   2150<<ASSIGN   2198>>IF
FM$CFU.FUN
      1990**DCL      2086>>IF       2086>>IF
FM$CFU.NAMEX
      1991**DCL      2198>>IF
FM$CFU.NRECS
      1991**DCL      2112>>ASSIGN   2121>>CALL     2121<>CALL     2132<<ASSIGN   2133<<ASSIGN   2134>>IF
      2134>>IF       2143>>CALL     2143<>CALL     2147>>ASSIGN   2148>>ASSIGN   2194>>CALL     2194<>CALL
PL6.E3A0      #002=FMI$INIT File=FMI$RAN.:E05TSI                                 TUE 07/29/97 16:50 Page:181
      2202<>CALL     2203>>ASSIGN
FM$CFU.UGRANS
      1992**DCL      2132>>ASSIGN   2133>>IF       2149>>IF       2198>>IF       2206>>IF
FM$CFU.USECNT
      1992**DCL      2197>>IF       2206>>IF
FM$CFUR.HEADPP#
      1996**DCL      2104>>IF       2120>>ASSIGN   2143<>CALL     2146<<ASSIGN   2186>>IF       2193>>ASSIGN
      2200<<ASSIGN   2202<>CALL
FM$CFUR.TAILPP#
      1996**DCL      2128<<ASSIGN   2131>>IF       2201<<ASSIGN
FMG$INIT
        34**DCL-ENT  2076--CALL
FMG_INIT
      2076**LABEL    2068--GOTO
FMH$INIT
        35**DCL-ENT  2074--CALL
FMI$DSREAD
        36**DCL-ENT  2149--CALL
FMI$DSWRITE
        37**DCL-ENT  2199--CALL
HEADPP#
        26**DCL      2120<<ASSIGN   2121<>CALL     2142<<ASSIGN   2143<>CALL     2146>>ASSIGN   2193<<ASSIGN
      2194<>CALL     2202<>CALL
JDCB$
        18**DCL      1999--IMP-PTR  2049<<ASSIGN   2051>>IF       2051>>IF       2052>>IF       2052>>IF
      2054>>IF       2055>>ASSIGN   2055>>ASSIGN   2067>>IF       2067>>IF       2071>>IF       2072>>DOCASE
      2086>>IF       2086>>IF       2086>>IF       2086>>IF       2086>>IF       2086>>IF       2090>>ASSIGN
      2091>>IF       2092>>IF       2092>>IF       2093>>ASSIGN   2094>>ASSIGN   2095>>IF       2096>>IF
      2096>>ASSIGN   2098>>ASSIGN   2099>>ASSIGN   2100>>IF       2101>>ASSIGN   2105>>IF       2111>>IF
      2112>>ASSIGN   2113>>IF       2126>>IF       2133>>ASSIGN   2139>>IF       2140>>IF       2147>>ASSIGN
      2177<<ASSIGN   2178>>ASSIGN   2179>>ASSIGN   2181>>IF       2186>>IF       2186>>IF       2189>>ASSIGN
      2190>>ASSIGN
LS0UBIN
        31**DCL      2098>>ASSIGN   2189>>ASSIGN
MMERR
      2150**LABEL    2121--CALLALT  2143--CALLALT
PL6.E3A0      #002=FMI$INIT File=FMI$RAN.:E05TSI                                 TUE 07/29/97 16:50 Page:182
MMH$FDS
        40**DCL-ENT  2205--CALL
MMH$MAP_DS
        38**DCL-ENT  2121--CALL     2194--CALL
MMH$SHARE_DS
        39**DCL-ENT  2143--CALL
MMJ$FPPCHAIN
        41**DCL-ENT  2202--CALL
MMV$CLOSE
        42**DCL-ENT  2183--CALL
MM_SHAREDSUSE
        32**DCL      2148<<ASSIGN   2148>>ASSIGN   2203<<ASSIGN   2203>>ASSIGN
NOACCESS
      2160**LABEL    2111--GOTO     2139--GOTO
SHRDS2BIG
      2157**LABEL    2134--GOTO
SHRDSERR
      2154**LABEL    2105--GOTO     2131--GOTO
TEMP_DCB
        20**DCL        21--REDEF    2179<<ASSIGN   2181>>IF
TEMP_DCB_R.ADDR_BITS
        22**DCL      2180<<ASSIGN
UQB$MENQX
        43**DCL-ENT  2102--CALL     2188--CALL
PL6.E3A0      #002=FMI$INIT File=FMI$RAN.:E05TSI                                 TUE 07/29/97 16:50 Page:183
              *** CROSS REFERENCE LISTING ***
    **     DENOTES     IDENTIFIER DEFINITION
    <<                 IDENTIFIER'S VALUE SET
    >>                 IDENTIFIER'S VALUE USED
    <>                 IDENTIFIER SET AND/OR USED
    --                 IDENTIFIER REFERENCED
PL6.E3A0      #002=FMI$INIT File=FMI$RAN.:E05TSI                                 TUE 07/29/97 16:50 Page:184
              MINI UREF LISTING

F$CFU$    1582**DCL
FM$SET$    1583**DCL
FMI$DSREL    2176**ENTRY
FMI$INIT      16**PROC
FM_CFUWAIT    1582**DCL
FM_CFUWGRB    1582**DCL
FM_EOP    1580**DCL
FM_FRMAX    1579**DCL
FM_FRZERO    1579**DCL
FM_GCT    1583**DCL
FM_GIP    1583**DCL
FM_GPSDA    1580**DCL
FM_HASH    1581**DCL
FM_MADSDA    1580**DCL
FM_PADSDA    1580**DCL
FM_SRMAX    1579**DCL
FM_SRZERO    1579**DCL
FM_SYSACCTX    1583**DCL
FM_SYSSETX    1583**DCL
FM_TRUNC    1581**DCL
FM_WSQ    1581**DCL
F_CWLK    1582**DCL
F_CWUSER    1582**DCL
F_DCBLOCK    1581**DCL
UQB$MDEQ      44**DCL-ENT

PL6.E3A0      #003=FMI$EA File=FMI$RAN.:E05TSI                                   TUE 07/29/97 16:51 Page:185
      983        1        /*T***********************************************************/
      984        2        /*T*                                                         */
      985        3        /*T* Copyright (c) Bull HN Information Systems Inc., 1997    */
      986        4        /*T*                                                         */
      987        5        /*T***********************************************************/
      988        6        /*F*   NAME:   FMI$EA
      989        7        *      PURPOSE:  End-action routine for no-wait reads */
      990        8        /**/
      991        9        /**/
      992       10        /**/
      993       11        /*D*   NAME:   FMI$EA
      994       12        *      CALL:   CALL FMI$EA(Q$);
      995       13        *                Called by IOQ as an end-action routine
      996       14        *      INPUT:  Q$ - PTR to queue packet
      997       15        *              End-action info is stamp word for first granule
      998       16        *      OUTPUT: TYC.DI set in queue packet if any stamp is wrong
      999       17        *      DESCRIPTION:  The user page table pointer from the queue
     1000       18        *        packet is placed in WSQ 8 and HFC$ASSOCCLR called to
     1001       19        *        clear the page table cache.  MMC$CP_IOM is called to
     1002       20        *        restore CPU access to the buffer pages.  The stamp in
     1003       21        *        each granule header is checked, and if any are wrong
     1004       22        *        the entire granule in core is clobbered, and a -1 is
     1005       23        *        placed in word zero.  */
     1006       24        /**/
     1007       25        FMI$EA: PROC(N$REQ);
     1008       26        /* PARAMETERS */
     1009       27        %INCLUDE N$REQ;
     1010      101        %N$REQ (STCLASS="");
     1011      159        /* EXTERNAL ROUTINES */
     1012      160    1   DCL FMB$LOGERR ENTRY(11);
     1013      161    1   DCL FMB$QUEUE ENTRY(9) ALTRET;
     1014      162    1   DCL FMD$FLSHBUF ENTRY(1);
     1015      163    1   DCL FMD$GETBUF ENTRY(3);
     1016      164    1   DCL FMD$RELBUF ENTRY(1);
     1017      165    1   DCL HFC$ASSOCCLR ENTRY(3);
     1018      166    1   DCL MM0$FINDLS ENTRY(2);
     1019      167    1   DCL M$MREAD ENTRY(1)ALTRET;
PL6.E3A0      #003=FMI$EA File=FMI$RAN.:E05TSI                                   TUE 07/29/97 16:51 Page:186
     1020      168    1   DCL M$MWRITE ENTRY(1)ALTRET;
     1021      169    1   DCL MMC$CP_IOM ENTRY(3);
     1022      170    1   DCL MMC$ONLY_IOM ENTRY(3);
     1023      171    1   DCL NIQ$REL ENTRY(1) ALTRET;
     1024      172        /* EXTERNAL DATA */
     1025      173    1   DCL B$LS$ PTR SYMREF;
     1026      174    1   DCL B$MISC$ PTR SYMREF;
     1027      175    1   DCL B$MISC2$ PTR SYMREF;
     1028      176    1   DCL B$JIT$ PTR SYMREF;
     1029      177    1   DCL FM_FRZERO UBIN SYMREF;
     1030      178    1   DCL F_DCBLOCK SBIN SYMREF;
     1031      179        /* LOCAL AUTOMATIC STORAGE */
     1032      180    1   DCL VPNO SBIN;
     1033      181    1   DCL N SBIN;
     1034      182    1   DCL 1 STAMP,
     1035      183    1         2 HASH UBIN(27) UNAL,
     1036      184    1         2 GMOD UBIN(9) UNAL;
     1037      185    1   DCL P$ PTR;
     1038      186    1   DCL SIZ UBIN;
     1039      187    1   DCL BLKNO SBIN;
     1040      188    1   DCL B$ PTR;
     1041      189    1   DCL B$UBIN REDEF B$ UBIN;
     1042      190    1   DCL PGS UBIN;
     1043      191    1   DCL SAVSTMP BIT(36);
     1044      192    1   DCL SAVBUF(0:2) UBIN;
     1045      193    1   DCL JDCB$ PTR;
     1046      194    1   DCL SAVDA UBIN;
     1047      195    1   DCL CFU$ REDEF SAVDA PTR;
     1048      196        /* INCLUDE FILES */
     1049      197        %INCLUDE B$USER;
     1050      413        %INCLUDE B_STRINGS_C;
     1051      542        %B$USERREFS;
     1052      546        %INCLUDE F_CP6;
     1053     1571        %INCLUDE CP_6_SUBS;
     1054     2111        %INCLUDE F$JIT_C;
     1055     2541        %INCLUDE FM$MACROS;
     1056     2916        %INCLUDE N_FC_C;
PL6.E3A0      #003=FMI$EA File=FMI$RAN.:E05TSI                                   TUE 07/29/97 16:51 Page:187
     1057     2953        %INCLUDE S_WSPTD_R;
     1058     2969        %INCLUDE HF_LOCK_C;
     1059     2983        %INCLUDE HF_DATA_R;
     1060     3026        %INCLUDE B_MLSMAC_C;
     1061     3968        %INCLUDE F_ERRORS_C;
     1062     4208        %INCLUDE FM$RANEA;
     1063     4218        /* CONSTANT STORAGE */
     1064     4219    1   DCL 1 DESCINIT CONSTANT ALIGNED,
     1065     4220    1         2 BOUND UBIN(20) UNAL INIT(0),
     1066     4221    1         2 FLGS BIT(3) UNAL INIT('7'O),
     1067     4222    1         2 WSQ UBIN(9) UNAL INIT(%IOENDWSQ),
     1068     4223    1         2 TYP UBIN(4) UNAL INIT(2);
     1069     4224    1   DCL X1 CONSTANT SBIN INIT(-1);
     1070     4225    1   DCL X REDEF X1 CHAR(4);
     1071     4226        %FPT_READ(FPTN=CREAD,STCLASS=CONSTANT,FULL=YES);
     1072     4265        %FPT_READ(FPTN=AREAD,STCLASS=);
     1073     4304        %MACRO F$DCB(BASED="BASED(JDCB$)");
     1074     4305        %INCLUDE F$DCB;
     1075     4354        %MEND;
     1076     4355        %F$DCB;
     1077     4405        /* BASED STRUCTURES */
     1078     4406        %B_MLS (FPTN=B$MLNK,STCLASS=BASED);
     1079     5221        %FM$RANEA (BASED="BASED(B$)");
     1080     5224        %N$REQ(NAME=REALREQ,STCLASS=BASED);
     1081     5282    1   DCL ZAP CHAR(SIZ) BASED ALIGNED;
     1082     5283    1   DCL WRD UBIN BASED ALIGNED;
     1083     5284    1   DCL WRDS3(0:2) UBIN BASED ALIGNED;
     1084     5285    1   DCL LS#N(0:0)BASED DALIGNED BIT(72);
     1085     5286    1   DCL 1 PAGES(0:0) BASED(B$MISC2$) ALIGNED,
     1086     5287    1         2 W0 UBIN,
     1087     5288    1         2 * CHAR(4092);
     1088     5289    1   DCL 1 RANGRAN BASED(B$)ALIGNED,
     1089     5290    1         2 STAMP BIT(36),
     1090     5291    1         2 WDS(0:1022)UBIN;
     1091     5292        %FM$CFU(BASED="BASED(CFU$)");
     1092     5298        /**/
     1093     5299    1           SAVSTMP='0'B;
PL6.E3A0      #003=FMI$EA File=FMI$RAN.:E05TSI                                   TUE 07/29/97 16:51 Page:188
     1094     5300    1           B$UBIN=N$REQ.EAINFO;            /* Ptr to other Q packet              */
     1095     5301    1           VPNO=FM$RANEA.VPNO;
     1096     5302    1           PGS=FM$RANEA.PGS;
     1097     5303    1           STAMP=FM$RANEA.STAMP;
     1098     5304    1           STAMP.GMOD=STAMP.GMOD+N$REQ.EAINFOX;
     1099     5305    1           BLKNO=FM$RANEA.BLKNO+N$REQ.EAINFOX;
     1100     5306                                                /****  LOCK DISABLES  ****/
     1101     5307                %LOCK (G#=F_DCBLOCK);
     1102     5310    1           S_WSPTD.BLKNO(%IOENDWSQ)=B$USRT$->B$USER.PT(N$REQ.USER#);
              5310                    /* Page table ptr */
     1103     5311    1           CALL HFC$ASSOCCLR (%IOENDWSQ,0,16384); /*MAX Dense PT*/
     1104     5312    1           CALL MMC$CP_IOM(%IOENDWSQ,VPNO,PGS); /* Restore CPU access to pages   */
     1105     5313    1           S_WSPTD.BLKNO(%IOENDWSQ)=N$REQ.PTP / (HW_PTB_UNITS/HW_IOPTP_UNITS);
     1106     5314    1           CALL HFC$ASSOCCLR (%IOENDWSQ,0,16384); /*MAX Dense PT*/
     1107     5315        /**/
     1108     5316    1           B$LS$->B$MLNK.MISC=DESCINIT;    /* BUILD WSQ %IOENDWSQ DESCRIPTOR     */
     1109     5317    1           B$LS$->B$MLNK.MISC.BOUND=N$REQ.BUFSIZE-1;
     1110     5318    1           B$LS$->B$MLNK.MISC.BASE=BITBIN(N$REQ.BUFVIRT)+
     1111     5319    1             MOD(N$REQ.PTP,HW_PTB_UNITS/HW_IOPTP_UNITS)*HW_IOPTP_UNITS*4096;
     1112     5320    1           P$=B$MISC$;                     /* POINT THRU DESCRIPTOR JUST BUILT   */
     1113     5321    1           N=N$REQ.BUFSIZE;                /* BUFFER SIZE IN BYTES               */
     1114     5322    2           DO WHILE(N>0);
     1115     5323    3              IF P$->WRD~=BITBIN(STAMP) THEN DO;
     1116     5324    4                 IF NOT SAVSTMP AND FM$RANEA.TYP~=0 THEN DO; /* First error      */
     1117     5325    4                    SAVSTMP=STAMP;
     1118     5326    4                    SAVBUF=P$->WRDS3;
     1119     5327    4                    SAVDA=BITBIN(N$REQ.DLA)+(BLKNO-FM$RANEA.BLKNO-
     1120     5328    4                      N$REQ.EAINFOX)*16;
     1121     5329    4                    END;
     1122     5330    3                 SIZ=4096;
     1123     5331    3                 IF N<4096 THEN SIZ=N;
     1124     5332    3                 P$->ZAP=X;                /* CLEAR BUFFER                       */
     1125     5333    3                 N$REQ.TYC.DI='1'B;
     1126     5334    3                 N$REQ.TYC.EGV='1'B;
     1127     5335    3                 END;
     1128     5336    2              ELSE
     1129     5337    2                 P$->WRD=BLKNO;
PL6.E3A0      #003=FMI$EA File=FMI$RAN.:E05TSI                                   TUE 07/29/97 16:51 Page:189
     1130     5338    2              P$=PINCRW(P$,1024);
     1131     5339    2              STAMP.GMOD=STAMP.GMOD+1;
     1132     5340    2              BLKNO=BLKNO+1;
     1133     5341    2              N=N-4096;
     1134     5342    2              END;
     1135     5343        /**/
     1136     5344    1           FM$RANEA.CNT=FM$RANEA.CNT-1;    /* Decr count of I/Os                 */
     1137     5345    2           IF FM$RANEA.CNT=0 THEN DO;      /* All done                           */
     1138     5346                   %UNLOCK (G#=F_DCBLOCK);
     1139     5349    2              B$->REALREQ='0'B;
     1140     5350    2              B$->REALREQ.ERR$=ADDR(NIL);
     1141     5351    2              B$->REALREQ.IOQFLG.INUSE = '1'B;
     1142     5352    2              CALL NIQ$REL(B$);
     1143     5353    2              N$REQ.OPFLG.CLR='1'B;        /* Prepare to clear cache             */
     1144     5354    2              END;
     1145     5355    2           ELSE DO;
     1146     5356    2              S_WSPTD.BLKNO(%IOENDWSQ)=B$USRT$->B$USER.PT(N$REQ.USER#);
              5356                       /* Page tbl ptr */
     1147     5357    2              CALL HFC$ASSOCCLR (%IOENDWSQ,0,16384); /*MAX Dense PT*/
     1148     5358    2              CALL MMC$ONLY_IOM(%IOENDWSQ,VPNO,PGS);
     1149     5359                   %UNLOCK (G#=F_DCBLOCK);
     1150     5362    2              END;
     1151     5363                                                /****  UNLOCK ENABLES  ****/
     1152     5364        /**/
     1153     5365    1           IF SAVSTMP THEN
     1154     5366    1              CALL FMB$LOGERR(%E$MI,5,8,SAVDA,ADDR(SAVBUF),0,1,2,SAVSTMP,1,ADDR(N$REQ))
              5366                       ;
     1155     5367    1           RETURN;
     1156     5368        %EJECT;
PL6.E3A0      #003=FMI$EA File=FMI$RAN.:E05TSI                                   TUE 07/29/97 16:51 Page:190
     1157     5369        /*F*   NAME:   FMI$DSREAD
     1158     5370        *      PURPOSE:Read a random file into the user data segment.
     1159     5371        *      INPUT:  The parameter is the requesting WSQ (4,5,6,9).
     1160     5372        *      INTERFACE: MM0$FINDLS, FMD$FLSHBUF, FMD$GETBUF, M$MREAD
     1161     5373        *      DESCRIPTION: The first granule has the first word of each other granule,
     1162     5374        *        so it is read into BUF0 first. Then a descriptor framing the data
     1163     5375        *        segment is formed in B$MISC$. The FFLG in the DCB is saved and set
     1164     5376        *        to FFLG_READ so that M$MREAD will work, even if file is open
     1165     5377        *        by an execute vehicle.
     1166     5378        *      ENTRY:   FMI$DSWRITE
     1167     5379        *      PURPOSE: Undo the work of FMI$DSREAD
     1168     5380        *      DESCRIPTION: All is as in FMI$DSREAD except that M$MWRITE is used
     1169     5381        *      and, of course, the order of events is slightly different.
     1170     5382        */
     1171     5383    1   FMI$DSREAD: ENTRY(N$REQ);
     1172     5384    1           CALL SETUPDS;
     1173     5385    1           F$DCB.FFLG.EXEC='0'B;
     1174     5386    1           CALL FMB$QUEUE(B$,0,4096,FM_FRZERO,%N_RDBIN,2,ENTADDR(NIL),0);
     1175     5387    1           IF RANGRAN.STAMP~=BINBIT(F$DCB.HASH,27) THEN RANGRAN='0'B;
     1176     5388    1   COMMONRW:;
     1177     5389    1           CALL RESETMISC;
     1178     5390    1           IF F$DCB.FFLG=%FFLG_WNEW# THEN CALL M$MWRITE(AREAD)ALTRET(HERE);
     1179     5391    1           ELSE CALL M$MREAD(AREAD)ALTRET(HERE);
     1180     5392    1   HERE:   CALL RESETMISC;                 /* RANEA ALSO USED IT                 */
     1181     5393    2           DO PGS=0 TO FM$CFU.NRECS-1;
     1182     5394    2              IF PAGES.W0(PGS)~=BITBIN('777777777777'O) THEN
     1183     5395    2                 PAGES.W0(PGS)=RANGRAN.WDS(PGS);
     1184     5396    2              END;
     1185     5397    1           F$DCB.FFLG=SAVSTMP;
     1186     5398    1           B$JIT.ERR='0'B;
     1187     5399    1           CALL FMD$RELBUF(2);
     1188     5400    1           RETURN;
     1189     5401        %EJECT;
PL6.E3A0      #003=FMI$EA File=FMI$RAN.:E05TSI                                   TUE 07/29/97 16:51 Page:191
     1190     5402    1   FMI$DSWRITE: ENTRY(N$REQ);
     1191     5403    1           CALL SETUPDS;
     1192     5404    1           F$DCB.FFLG=%FFLG_WNEW#;
     1193     5405    1           RANGRAN=BINBIT(F$DCB.HASH,27);
     1194     5406    2           DO PGS=0 TO FM$CFU.NRECS-1;
     1195     5407    2              RANGRAN.WDS(PGS)=PAGES.W0(PGS);
     1196     5408    2              END;
     1197     5409    1           N = FM_FRZERO;
     1198     5410    1           CALL FMB$QUEUE(B$,0,4096,N,%N_WRBIN,2,ENTADDR(NIL),0);
     1199     5411    1           GOTO COMMONRW;
     1200     5412        %EJECT;
PL6.E3A0      #003=FMI$EA File=FMI$RAN.:E05TSI                                   TUE 07/29/97 16:51 Page:192
     1201     5413        /*I*   NAME:   SETUPDS
     1202     5414        *      PURPOSE: Sets up the auto frame and B$MISC for %DSREAD and %DSWRITE.
     1203     5415        */
     1204     5416    1   SETUPDS: PROC;
     1205     5417    2           JDCB$=B$JIT.DCB$;
     1206     5418    2           CFU$=F$DCB.CFU$;
     1207     5419    2           SAVSTMP=F$DCB.FFLG;
     1208     5420    2           CALL FMD$FLSHBUF(2);
     1209     5421    2           CALL FMD$GETBUF(2,1,B$);
     1210     5422    2           F$DCB.CRECNO=1;
     1211     5423    2           AREAD=CREAD;
     1212     5424    2           AREAD.V_=VECTOR(AREAD.V);
     1213     5425    3           DO WHILE(DCBADDR(AREAD.V.DCB#)~=JDCB$);
     1214     5426    3              AREAD.V.DCB#=AREAD.V.DCB#+1;
     1215     5427    3              END;
     1216     5428    2   RESETMISC: ENTRY;
     1217     5429    2           CALL MM0$FINDLS(ADDR(N$REQ)->WRD,P$);
     1218     5430    2           B$LS$->B$MLNK.MISC2=P$->LS#N(F$DCB.ACS);
     1219     5431    2           B$LS$->B$MLNK.MISC2.FLGS=B$LS$->B$MLNK.MISC2.FLGS|'2'O; /* WRITE      */
     1220     5432    2           AREAD.BUF_.BOUND=B$LS$->B$MLNK.MISC2.BOUND;
     1221     5433    2           AREAD.BUF_.BUF$=B$MISC2$;
     1222     5434    2           RETURN;
     1223     5435    2   END SETUPDS;
     1224     5436    1   END FMI$EA;

PL6.E3A0      #003=FMI$EA File=FMI$RAN.:E05TSI                                   TUE 07/29/97 16:51 Page:193
--  Include file information  --

   F$DCB.:E05TOU  is referenced.
   FM$RANEA.:E05TOU  is referenced.
   F_ERRORS_C.:E05TOU  is referenced.
   B_MLSMAC_C.:E05TOU  is referenced.
   HF_DATA_R.:E05TOU  cannot be made into a system file and is referenced.
   HF_LOCK_C.:E05TOU  cannot be made into a system file and is referenced.
   S_WSPTD_R.:E05TOU  cannot be made into a system file and is referenced.
   N_FC_C.:E05TOU  is referenced.
   FM$MACROS.:E05TOU  is referenced.
   B$JIT_C.:E05TOU  is referenced.
   F$JIT_C.:E05TOU  cannot be made into a system file and is referenced.
   CP_6_SUBS.:E05TOU  is referenced.
   F_CP6.:E05TOU  is referenced.
   B_STRINGS_C.:E05TOU  is referenced.
   B$USER.:E05TOU  cannot be made into a system file and is referenced.
   N$REQ.:E05TOU  is referenced.
      No diagnostics issued in procedure FMI$EA.

   Procedure FMI$EA requires 426 words for executable code.
   Procedure FMI$EA requires 48 words of local(AUTO) storage.

    No errors detected in file FMI$RAN.:E05TSI    .

PL6.E3A0      #003=FMI$EA File=FMI$RAN.:E05TSI                                   TUE 07/29/97 16:51 Page:194

 Object Unit name= FMI$EA                                     File name= FMI$RAN.:E05TOU
 UTS= JUL 29 '97 16:51:06.56 TUE                              Compiler= PL-6/E31         Sev=      00
 SharedLib= :SHARED_SYSTEM                                    Alt SharedLib=


    ****  Control sections  ****

 Sect   Type Bound  Init  Size OctSiz  Section name(segment info)
    0  RoData even  UTS     16     20  FMI$EA
    1   Proc  even  none   426    652  FMI$EA
    2  RoData even  none    28     34  FMI$EA

    ****  Entry defs  ****

                              Check   Calling
                             calling  sequence
  Sect OctLoc Primary Altret sequence   type   Parms  Name
     1      0   yes            yes      Std        1  FMI$EA
     1    331                  yes      Std        1  FMI$DSREAD
     1    454                  yes      Std        1  FMI$DSWRITE
PL6.E3A0      #003=FMI$EA File=FMI$RAN.:E05TSI                                   TUE 07/29/97 16:51 Page:195

  ****  Entry refs  ****

         Check        Calling
        calling       sequence
Altret sequence SRef   type   Args  Name
         yes           Std       1 HFC$LOCK
         yes           Std       3 HFC$ASSOCCLR
         yes           Std       1 HFC$UNLOCK
 yes     yes           Std       9 FMB$QUEUE
         yes           Std       1 FMD$RELBUF
 yes     yes           Std       1 M$MWRITE
         yes           Std       3 MMC$CP_IOM
 yes     yes           Std       1 NIQ$REL
         yes           Std      11 FMB$LOGERR
 yes     yes           Std       1 M$MREAD
         yes           Std       3 MMC$ONLY_IOM
         yes           Std       1 FMD$FLSHBUF
         yes           Std       2 MM0$FINDLS
         yes           Std       3 FMD$GETBUF
                       Std       0 B_CONSPOOL_D
                       nStd      0 X66_AUTO_1
                       nStd      0 X66_ARET

  ****  Data refs  ****

  Flags:  r = read only, s = secondary
Flgs Name                             Flgs Name                             Flgs Name
     B$LS$                                 B$MISC$                               B$MISC2$
     B$JIT$                                FM_FRZERO                             F_DCBLOCK
     B$USRT$                               S_WSPTD                               HW_PTB_UNITS
     HW_IOPTP_UNITS                        B_VECTNIL
PL6.E3A0      #003=FMI$EA File=FMI$RAN.:E05TSI                                   TUE 07/29/97 16:51 Page:196

  ****  Segment refs  ****

  Flags:  r = read only, s = secondary
Flgs Name                             Flgs Name                             Flgs Name
     ISSID                                 NULLSID                               ROSID
PL6.E3A0      #003=FMI$EA File=FMI$RAN.:E05TSI                                   TUE 07/29/97 16:51 Page:197


      983        1        /*T***********************************************************/
      984        2        /*T*                                                         */
      985        3        /*T* Copyright (c) Bull HN Information Systems Inc., 1997    */
      986        4        /*T*                                                         */
      987        5        /*T***********************************************************/
      988        6        /*F*   NAME:   FMI$EA
      989        7        *      PURPOSE:  End-action routine for no-wait reads */
      990        8        /**/
      991        9        /**/
      992       10        /**/
      993       11        /*D*   NAME:   FMI$EA
      994       12        *      CALL:   CALL FMI$EA(Q$);
      995       13        *                Called by IOQ as an end-action routine
      996       14        *      INPUT:  Q$ - PTR to queue packet
      997       15        *              End-action info is stamp word for first granule
      998       16        *      OUTPUT: TYC.DI set in queue packet if any stamp is wrong
      999       17        *      DESCRIPTION:  The user page table pointer from the queue
     1000       18        *        packet is placed in WSQ 8 and HFC$ASSOCCLR called to
     1001       19        *        clear the page table cache.  MMC$CP_IOM is called to
     1002       20        *        restore CPU access to the buffer pages.  The stamp in
     1003       21        *        each granule header is checked, and if any are wrong
     1004       22        *        the entire granule in core is clobbered, and a -1 is
     1005       23        *        placed in word zero.  */
     1006       24        /**/
     1007       25        FMI$EA: PROC(N$REQ);

     25  1 000000   000000 700200 xent  FMI$EA       TSX0  ! X66_AUTO_1
         1 000001   000060 000001                    ZERO    48,1

     1008       26        /* PARAMETERS */
     1009       27        %INCLUDE N$REQ;
     1010      101        %N$REQ (STCLASS="");
     1011      159        /* EXTERNAL ROUTINES */
     1012      160    1   DCL FMB$LOGERR ENTRY(11);
     1013      161    1   DCL FMB$QUEUE ENTRY(9) ALTRET;
     1014      162    1   DCL FMD$FLSHBUF ENTRY(1);
PL6.E3A0      #003=FMI$EA File=FMI$RAN.:E05TSI                                   TUE 07/29/97 16:51 Page:198
     1015      163    1   DCL FMD$GETBUF ENTRY(3);
     1016      164    1   DCL FMD$RELBUF ENTRY(1);
     1017      165    1   DCL HFC$ASSOCCLR ENTRY(3);
     1018      166    1   DCL MM0$FINDLS ENTRY(2);
     1019      167    1   DCL M$MREAD ENTRY(1)ALTRET;
     1020      168    1   DCL M$MWRITE ENTRY(1)ALTRET;
     1021      169    1   DCL MMC$CP_IOM ENTRY(3);
     1022      170    1   DCL MMC$ONLY_IOM ENTRY(3);
     1023      171    1   DCL NIQ$REL ENTRY(1) ALTRET;
     1024      172        /* EXTERNAL DATA */
     1025      173    1   DCL B$LS$ PTR SYMREF;
     1026      174    1   DCL B$MISC$ PTR SYMREF;
     1027      175    1   DCL B$MISC2$ PTR SYMREF;
     1028      176    1   DCL B$JIT$ PTR SYMREF;
     1029      177    1   DCL FM_FRZERO UBIN SYMREF;
     1030      178    1   DCL F_DCBLOCK SBIN SYMREF;
     1031      179        /* LOCAL AUTOMATIC STORAGE */
     1032      180    1   DCL VPNO SBIN;
     1033      181    1   DCL N SBIN;
     1034      182    1   DCL 1 STAMP,
     1035      183    1         2 HASH UBIN(27) UNAL,
     1036      184    1         2 GMOD UBIN(9) UNAL;
     1037      185    1   DCL P$ PTR;
     1038      186    1   DCL SIZ UBIN;
     1039      187    1   DCL BLKNO SBIN;
     1040      188    1   DCL B$ PTR;
     1041      189    1   DCL B$UBIN REDEF B$ UBIN;
     1042      190    1   DCL PGS UBIN;
     1043      191    1   DCL SAVSTMP BIT(36);
     1044      192    1   DCL SAVBUF(0:2) UBIN;
     1045      193    1   DCL JDCB$ PTR;
     1046      194    1   DCL SAVDA UBIN;
     1047      195    1   DCL CFU$ REDEF SAVDA PTR;
     1048      196        /* INCLUDE FILES */
     1049      197        %INCLUDE B$USER;
     1050      413        %INCLUDE B_STRINGS_C;
     1051      542        %B$USERREFS;
PL6.E3A0      #003=FMI$EA File=FMI$RAN.:E05TSI                                   TUE 07/29/97 16:51 Page:199
     1052      546        %INCLUDE F_CP6;
     1053     1571        %INCLUDE CP_6_SUBS;
     1054     2111        %INCLUDE F$JIT_C;
     1055     2541        %INCLUDE FM$MACROS;
     1056     2916        %INCLUDE N_FC_C;
     1057     2953        %INCLUDE S_WSPTD_R;
     1058     2969        %INCLUDE HF_LOCK_C;
     1059     2983        %INCLUDE HF_DATA_R;
     1060     3026        %INCLUDE B_MLSMAC_C;
     1061     3968        %INCLUDE F_ERRORS_C;
     1062     4208        %INCLUDE FM$RANEA;
     1063     4218        /* CONSTANT STORAGE */
     1064     4219    1   DCL 1 DESCINIT CONSTANT ALIGNED,
     1065     4220    1         2 BOUND UBIN(20) UNAL INIT(0),
     1066     4221    1         2 FLGS BIT(3) UNAL INIT('7'O),
     1067     4222    1         2 WSQ UBIN(9) UNAL INIT(%IOENDWSQ),
     1068     4223    1         2 TYP UBIN(4) UNAL INIT(2);
     1069     4224    1   DCL X1 CONSTANT SBIN INIT(-1);
     1070     4225    1   DCL X REDEF X1 CHAR(4);
     1071     4226        %FPT_READ(FPTN=CREAD,STCLASS=CONSTANT,FULL=YES);
     1072     4265        %FPT_READ(FPTN=AREAD,STCLASS=);
     1073     4304        %MACRO F$DCB(BASED="BASED(JDCB$)");
     1074     4305        %INCLUDE F$DCB;
     1075     4354        %MEND;
     1076     4355        %F$DCB;
     1077     4405        /* BASED STRUCTURES */
     1078     4406        %B_MLS (FPTN=B$MLNK,STCLASS=BASED);
     1079     5221        %FM$RANEA (BASED="BASED(B$)");
     1080     5224        %N$REQ(NAME=REALREQ,STCLASS=BASED);
     1081     5282    1   DCL ZAP CHAR(SIZ) BASED ALIGNED;
     1082     5283    1   DCL WRD UBIN BASED ALIGNED;
     1083     5284    1   DCL WRDS3(0:2) UBIN BASED ALIGNED;
     1084     5285    1   DCL LS#N(0:0)BASED DALIGNED BIT(72);
     1085     5286    1   DCL 1 PAGES(0:0) BASED(B$MISC2$) ALIGNED,
     1086     5287    1         2 W0 UBIN,
     1087     5288    1         2 * CHAR(4092);
     1088     5289    1   DCL 1 RANGRAN BASED(B$)ALIGNED,
PL6.E3A0      #003=FMI$EA File=FMI$RAN.:E05TSI                                   TUE 07/29/97 16:51 Page:200
     1089     5290    1         2 STAMP BIT(36),
     1090     5291    1         2 WDS(0:1022)UBIN;
     1091     5292        %FM$CFU(BASED="BASED(CFU$)");
     1092     5298        /**/
     1093     5299    1           SAVSTMP='0'B;

   5299  1 000002   200014 450100                    STZ     SAVSTMP,,AUTO

     1094     5300    1           B$UBIN=N$REQ.EAINFO;            /* Ptr to other Q packet              */

   5300  1 000003   200003 470500                    LDP0    @N$REQ,,AUTO
         1 000004   000024 235100                    LDA     20,,PR0
         1 000005   200012 755100                    STA     B$,,AUTO

     1095     5301    1           VPNO=FM$RANEA.VPNO;

   5301  1 000006   200012 471500                    LDP1    B$,,AUTO
         1 000007   100004 235100                    LDA     4,,PR1
         1 000010   200004 755100                    STA     VPNO,,AUTO

     1096     5302    1           PGS=FM$RANEA.PGS;

   5302  1 000011   100005 235100                    LDA     5,,PR1
         1 000012   200013 755100                    STA     PGS,,AUTO

     1097     5303    1           STAMP=FM$RANEA.STAMP;

   5303  1 000013   100002 236100                    LDQ     2,,PR1
         1 000014   200006 756100                    STQ     STAMP,,AUTO

     1098     5304    1           STAMP.GMOD=STAMP.GMOD+N$REQ.EAINFOX;

   5304  1 000015   200006 236100                    LDQ     STAMP,,AUTO
         1 000016   000777 376007                    ANQ     511,DL
         1 000017   000025 036100                    ADLQ    21,,PR0
         1 000020   200006 552104                    STBQ    STAMP,'04'O,AUTO

PL6.E3A0      #003=FMI$EA File=FMI$RAN.:E05TSI                                   TUE 07/29/97 16:51 Page:201
     1099     5305    1           BLKNO=FM$RANEA.BLKNO+N$REQ.EAINFOX;

   5305  1 000021   100003 236100                    LDQ     3,,PR1
         1 000022   000025 036100                    ADLQ    21,,PR0
         1 000023   200011 756100                    STQ     BLKNO,,AUTO

     1100     5306                                                /****  LOCK DISABLES  ****/
     1101     5307                %LOCK (G#=F_DCBLOCK);

   5308  1 000024   000000 630400 2                  EPPR0   0
         1 000025   000017 631400 xsym               EPPR1   B_VECTNIL+15
         1 000026   000000 701000 xent               TSX1    HFC$LOCK
         1 000027   000000 011000                    NOP     0

     1102     5310    1           S_WSPTD.BLKNO(%IOENDWSQ)=B$USRT$->B$USER.PT(N$REQ.USER#);
              5310                    /* Page table ptr */

   5310  1 000030   200003 470500                    LDP0    @N$REQ,,AUTO
         1 000031   000027 236100                    LDQ     23,,PR0
         1 000032   000004 736000                    QLS     4
         1 000033   017760 376007                    ANQ     8176,DL
         1 000034   000000 471400 xsym               LDP1    B$USRT$
         1 000035   100014 220106                    LDX0    12,QL,PR1
         1 000036   000007 740000 xsym               STX0    S_WSPTD+7

     1103     5311    1           CALL HFC$ASSOCCLR (%IOENDWSQ,0,16384); /*MAX Dense PT*/

   5311  1 000037   000002 630400 2                  EPPR0   2
         1 000040   000021 631400 xsym               EPPR1   B_VECTNIL+17
         1 000041   000000 701000 xent               TSX1    HFC$ASSOCCLR
         1 000042   000000 011000                    NOP     0

     1104     5312    1           CALL MMC$CP_IOM(%IOENDWSQ,VPNO,PGS); /* Restore CPU access to pages   */

   5312  1 000043   200013 630500                    EPPR0   PGS,,AUTO
         1 000044   200044 450500                    STP0    AREAD+18,,AUTO
         1 000045   200004 631500                    EPPR1   VPNO,,AUTO
PL6.E3A0      #003=FMI$EA File=FMI$RAN.:E05TSI                                   TUE 07/29/97 16:51 Page:202
         1 000046   200043 451500                    STP1    AREAD+17,,AUTO
         1 000047   000002 236000 2                  LDQ     2
         1 000050   200042 756100                    STQ     AREAD+16,,AUTO
         1 000051   200042 630500                    EPPR0   AREAD+16,,AUTO
         1 000052   000021 631400 xsym               EPPR1   B_VECTNIL+17
         1 000053   000000 701000 xent               TSX1    MMC$CP_IOM
         1 000054   000000 011000                    NOP     0

     1105     5313    1           S_WSPTD.BLKNO(%IOENDWSQ)=N$REQ.PTP / (HW_PTB_UNITS/HW_IOPTP_UNITS);

   5313  1 000055   000000 236000 xsym               LDQ     HW_PTB_UNITS
         1 000056   000000 506000 xsym               DIV     HW_IOPTP_UNITS
         1 000057   200042 756100                    STQ     AREAD+16,,AUTO
         1 000060   200003 470500                    LDP0    @N$REQ,,AUTO
         1 000061   000007 236100                    LDQ     7,,PR0
         1 000062   200042 506100                    DIV     AREAD+16,,AUTO
         1 000063   000000 620006                    EAX0    0,QL
         1 000064   000007 740000 xsym               STX0    S_WSPTD+7

     1106     5314    1           CALL HFC$ASSOCCLR (%IOENDWSQ,0,16384); /*MAX Dense PT*/

   5314  1 000065   000002 630400 2                  EPPR0   2
         1 000066   000021 631400 xsym               EPPR1   B_VECTNIL+17
         1 000067   000000 701000 xent               TSX1    HFC$ASSOCCLR
         1 000070   000000 011000                    NOP     0

     1107     5315        /**/
     1108     5316    1           B$LS$->B$MLNK.MISC=DESCINIT;    /* BUILD WSQ %IOENDWSQ DESCRIPTOR     */

   5316  1 000071   000000 235000 0                  LDA     DESCINIT
         1 000072   000000 236003                    LDQ     0,DU
         1 000073   000000 470400 xsym               LDP0    B$LS$
         1 000074   000130 757100                    STAQ    88,,PR0

     1109     5317    1           B$LS$->B$MLNK.MISC.BOUND=N$REQ.BUFSIZE-1;

   5317  1 000075   200003 471500                    LDP1    @N$REQ,,AUTO
PL6.E3A0      #003=FMI$EA File=FMI$RAN.:E05TSI                                   TUE 07/29/97 16:51 Page:203
         1 000076   100004 236100                    LDQ     4,,PR1
         1 000077   000020 772000                    QRL     16
         1 000100   000001 136007                    SBLQ    1,DL
         1 000101   000020 736000                    QLS     16
         1 000102   000130 676100                    ERQ     88,,PR0
         1 000103   000034 376000 xsym               ANQ     B_VECTNIL+28
         1 000104   000130 656100                    ERSQ    88,,PR0

     1110     5318    1           B$LS$->B$MLNK.MISC.BASE=BITBIN(N$REQ.BUFVIRT)+

   5318  1 000105   000000 236000 xsym               LDQ     HW_PTB_UNITS
         1 000106   000000 506000 xsym               DIV     HW_IOPTP_UNITS
         1 000107   200042 756100                    STQ     AREAD+16,,AUTO
         1 000110   100007 236100                    LDQ     7,,PR1
         1 000111   200042 506100                    DIV     AREAD+16,,AUTO
         1 000112   000044 733000                    LRS     36
         1 000113   000000 402000 xsym               MPY     HW_IOPTP_UNITS
         1 000114   000014 736000                    QLS     12
         1 000115   100006 036100                    ADLQ    6,,PR1
         1 000116   000131 756100                    STQ     89,,PR0

     1111     5319    1             MOD(N$REQ.PTP,HW_PTB_UNITS/HW_IOPTP_UNITS)*HW_IOPTP_UNITS*4096;
     1112     5320    1           P$=B$MISC$;                     /* POINT THRU DESCRIPTOR JUST BUILT   */

   5320  1 000117   000000 236000 xsym               LDQ     B$MISC$
         1 000120   200007 756100                    STQ     P$,,AUTO

     1113     5321    1           N=N$REQ.BUFSIZE;                /* BUFFER SIZE IN BYTES               */

   5321  1 000121   100004 236100                    LDQ     4,,PR1
         1 000122   000020 772000                    QRL     16
         1 000123   200005 756100                    STQ     N,,AUTO

     1114     5322    2           DO WHILE(N>0);

   5322  1 000124   000206 604400 1                  TMOZ    s:5344

PL6.E3A0      #003=FMI$EA File=FMI$RAN.:E05TSI                                   TUE 07/29/97 16:51 Page:204
     1115     5323    3              IF P$->WRD~=BITBIN(STAMP) THEN DO;

   5323  1 000125   200007 470500                    LDP0    P$,,AUTO
         1 000126   000000 236100                    LDQ     0,,PR0
         1 000127   200006 116100                    CMPQ    STAMP,,AUTO
         1 000130   000172 600000 1                  TZE     s:5337

     1116     5324    4                 IF NOT SAVSTMP AND FM$RANEA.TYP~=0 THEN DO; /* First error      */

   5324  1 000131   200014 235100                    LDA     SAVSTMP,,AUTO
         1 000132   000152 601000 1                  TNZ     s:5330
         1 000133   200012 471500                    LDP1    B$,,AUTO
         1 000134   100006 235100                    LDA     6,,PR1
         1 000135   000152 600000 1                  TZE     s:5330

     1117     5325    4                    SAVSTMP=STAMP;

   5325  1 000136   200006 236100                    LDQ     STAMP,,AUTO
         1 000137   200014 756100                    STQ     SAVSTMP,,AUTO

     1118     5326    4                    SAVBUF=P$->WRDS3;

   5326  1 000140   000100 100500                    MLR     fill='000'O
         1 000141   000000 000014                    ADSC9   0,,PR0                   cn=0,n=12
         1 000142   200015 000014                    ADSC9   SAVBUF,,AUTO             cn=0,n=12

     1119     5327    4                    SAVDA=BITBIN(N$REQ.DLA)+(BLKNO-FM$RANEA.BLKNO-

   5327  1 000143   200011 236100                    LDQ     BLKNO,,AUTO
         1 000144   100003 136100                    SBLQ    3,,PR1
         1 000145   200003 473500                    LDP3    @N$REQ,,AUTO
         1 000146   300025 136100                    SBLQ    21,,PR3
         1 000147   000004 736000                    QLS     4
         1 000150   300001 036100                    ADLQ    1,,PR3
         1 000151   200021 756100                    STQ     SAVDA,,AUTO

     1120     5328    4                      N$REQ.EAINFOX)*16;
PL6.E3A0      #003=FMI$EA File=FMI$RAN.:E05TSI                                   TUE 07/29/97 16:51 Page:205
     1121     5329    4                    END;

     1122     5330    3                 SIZ=4096;

   5330  1 000152   010000 235007                    LDA     4096,DL
         1 000153   200010 755100                    STA     SIZ,,AUTO

     1123     5331    3                 IF N<4096 THEN SIZ=N;

   5331  1 000154   200005 236100                    LDQ     N,,AUTO
         1 000155   010000 116007                    CMPQ    4096,DL
         1 000156   000160 605000 1                  TPL     s:5332

   5331  1 000157   200010 756100                    STQ     SIZ,,AUTO

     1124     5332    3                 P$->ZAP=X;                /* CLEAR BUFFER                       */

   5332  1 000160   200010 720100                    LXL0    SIZ,,AUTO
         1 000161   040140 100400                    MLR     fill='040'O
         1 000162   000001 000004 0                  ADSC9   X1                       cn=0,n=4
         1 000163   000000 000010                    ADSC9   0,,PR0                   cn=0,n=*X0

     1125     5333    3                 N$REQ.TYC.DI='1'B;

   5333  1 000164   200003 470500                    LDP0    @N$REQ,,AUTO
         1 000165   000400 236003                    LDQ     256,DU
         1 000166   000021 256100                    ORSQ    17,,PR0

     1126     5334    3                 N$REQ.TYC.EGV='1'B;

   5334  1 000167   400000 236003                    LDQ     -131072,DU
         1 000170   000021 256100                    ORSQ    17,,PR0

     1127     5335    3                 END;

   5335  1 000171   000174 710000 1                  TRA     s:5338

PL6.E3A0      #003=FMI$EA File=FMI$RAN.:E05TSI                                   TUE 07/29/97 16:51 Page:206
     1128     5336    2              ELSE
     1129     5337    2                 P$->WRD=BLKNO;

   5337  1 000172   200011 235100                    LDA     BLKNO,,AUTO
         1 000173   000000 755100                    STA     0,,PR0

     1130     5338    2              P$=PINCRW(P$,1024);

   5338  1 000174   200007 236100                    LDQ     P$,,AUTO
         1 000175   002000 036003                    ADLQ    1024,DU
         1 000176   200007 756100                    STQ     P$,,AUTO

     1131     5339    2              STAMP.GMOD=STAMP.GMOD+1;

   5339  1 000177   200006 236100                    LDQ     STAMP,,AUTO
         1 000200   000001 036007                    ADLQ    1,DL
         1 000201   200006 552104                    STBQ    STAMP,'04'O,AUTO

     1132     5340    2              BLKNO=BLKNO+1;

   5340  1 000202   200011 054100                    AOS     BLKNO,,AUTO

     1133     5341    2              N=N-4096;

   5341  1 000203   010000 336007                    LCQ     4096,DL
         1 000204   200005 056100                    ASQ     N,,AUTO

     1134     5342    2              END;

   5342  1 000205   000125 605400 1                  TPNZ    s:5323

     1135     5343        /**/
     1136     5344    1           FM$RANEA.CNT=FM$RANEA.CNT-1;    /* Decr count of I/Os                 */

   5344  1 000206   200012 470500                    LDP0    B$,,AUTO
         1 000207   000001 336007                    LCQ     1,DL
         1 000210   000001 056100                    ASQ     1,,PR0
PL6.E3A0      #003=FMI$EA File=FMI$RAN.:E05TSI                                   TUE 07/29/97 16:51 Page:207

     1137     5345    2           IF FM$RANEA.CNT=0 THEN DO;      /* All done                           */

   5345  1 000211   200012 470500                    LDP0    B$,,AUTO
         1 000212   000001 235100                    LDA     1,,PR0
         1 000213   000243 601000 1                  TNZ     s:5356

     1138     5346                   %UNLOCK (G#=F_DCBLOCK);

   5347  1 000214   000000 630400 2                  EPPR0   0
         1 000215   000017 631400 xsym               EPPR1   B_VECTNIL+15
         1 000216   000000 701000 xent               TSX1    HFC$UNLOCK
         1 000217   000000 011000                    NOP     0

     1139     5349    2              B$->REALREQ='0'B;

   5349  1 000220   200012 470500                    LDP0    B$,,AUTO
         1 000221   000100 100400                    MLR     fill='000'O
         1 000222   000002 000001 xsym               ADSC9   B_VECTNIL+2              cn=0,n=1
         1 000223   000000 000170                    ADSC9   0,,PR0                   cn=0,n=120

     1140     5350    2              B$->REALREQ.ERR$=ADDR(NIL);

   5350  1 000224   000001 236000 xsym               LDQ     B_VECTNIL+1
         1 000225   200012 470500                    LDP0    B$,,AUTO
         1 000226   000017 756100                    STQ     15,,PR0

     1141     5351    2              B$->REALREQ.IOQFLG.INUSE = '1'B;

   5351  1 000227   400000 236003                    LDQ     -131072,DU
         1 000230   000033 256100                    ORSQ    27,,PR0

     1142     5352    2              CALL NIQ$REL(B$);

   5352  1 000231   200012 631500                    EPPR1   B$,,AUTO
         1 000232   200042 451500                    STP1    AREAD+16,,AUTO
         1 000233   200042 630500                    EPPR0   AREAD+16,,AUTO
PL6.E3A0      #003=FMI$EA File=FMI$RAN.:E05TSI                                   TUE 07/29/97 16:51 Page:208
         1 000234   000017 631400 xsym               EPPR1   B_VECTNIL+15
         1 000235   000000 701000 xent               TSX1    NIQ$REL
         1 000236   000000 011000                    NOP     0

     1143     5353    2              N$REQ.OPFLG.CLR='1'B;        /* Prepare to clear cache             */

   5353  1 000237   200003 470500                    LDP0    @N$REQ,,AUTO
         1 000240   000001 236007                    LDQ     1,DL
         1 000241   000004 256100                    ORSQ    4,,PR0

     1144     5354    2              END;

   5354  1 000242   000274 710000 1                  TRA     s:5365

     1145     5355    2           ELSE DO;

     1146     5356    2              S_WSPTD.BLKNO(%IOENDWSQ)=B$USRT$->B$USER.PT(N$REQ.USER#);
              5356                       /* Page tbl ptr */

   5356  1 000243   200003 471500                    LDP1    @N$REQ,,AUTO
         1 000244   100027 236100                    LDQ     23,,PR1
         1 000245   000004 736000                    QLS     4
         1 000246   017760 376007                    ANQ     8176,DL
         1 000247   000000 473400 xsym               LDP3    B$USRT$
         1 000250   300014 220106                    LDX0    12,QL,PR3
         1 000251   000007 740000 xsym               STX0    S_WSPTD+7

     1147     5357    2              CALL HFC$ASSOCCLR (%IOENDWSQ,0,16384); /*MAX Dense PT*/

   5357  1 000252   000002 630400 2                  EPPR0   2
         1 000253   000021 631400 xsym               EPPR1   B_VECTNIL+17
         1 000254   000000 701000 xent               TSX1    HFC$ASSOCCLR
         1 000255   000000 011000                    NOP     0

     1148     5358    2              CALL MMC$ONLY_IOM(%IOENDWSQ,VPNO,PGS);

   5358  1 000256   200013 630500                    EPPR0   PGS,,AUTO
PL6.E3A0      #003=FMI$EA File=FMI$RAN.:E05TSI                                   TUE 07/29/97 16:51 Page:209
         1 000257   200044 450500                    STP0    AREAD+18,,AUTO
         1 000260   200004 631500                    EPPR1   VPNO,,AUTO
         1 000261   200043 451500                    STP1    AREAD+17,,AUTO
         1 000262   000002 236000 2                  LDQ     2
         1 000263   200042 756100                    STQ     AREAD+16,,AUTO
         1 000264   200042 630500                    EPPR0   AREAD+16,,AUTO
         1 000265   000021 631400 xsym               EPPR1   B_VECTNIL+17
         1 000266   000000 701000 xent               TSX1    MMC$ONLY_IOM
         1 000267   000000 011000                    NOP     0

     1149     5359                   %UNLOCK (G#=F_DCBLOCK);

   5360  1 000270   000000 630400 2                  EPPR0   0
         1 000271   000017 631400 xsym               EPPR1   B_VECTNIL+15
         1 000272   000000 701000 xent               TSX1    HFC$UNLOCK
         1 000273   000000 011000                    NOP     0

     1150     5362    2              END;

     1151     5363                                                /****  UNLOCK ENABLES  ****/
     1152     5364        /**/
     1153     5365    1           IF SAVSTMP THEN

   5365  1 000274   200014 235100                    LDA     SAVSTMP,,AUTO
         1 000275   000330 600000 1                  TZE     s:5367

     1154     5366    1             CALL FMB$LOGERR(%E$MI,5,8,SAVDA,ADDR(SAVBUF),0,1,2,SAVSTMP,1,ADDR(N$REQ))
              5366                       ;

   5366  1 000276   200015 630500                    EPPR0   SAVBUF,,AUTO
         1 000277   200042 450500                    STP0    AREAD+16,,AUTO
         1 000300   200003 236100                    LDQ     @N$REQ,,AUTO
         1 000301   200043 756100                    STQ     AREAD+17,,AUTO
         1 000302   200043 631500                    EPPR1   AREAD+17,,AUTO
         1 000303   200056 451500                    STP1    AREAD+28,,AUTO
         1 000304   000007 236000 2                  LDQ     7
         1 000305   200055 756100                    STQ     AREAD+27,,AUTO
PL6.E3A0      #003=FMI$EA File=FMI$RAN.:E05TSI                                   TUE 07/29/97 16:51 Page:210
         1 000306   200014 633500                    EPPR3   SAVSTMP,,AUTO
         1 000307   200054 453500                    STP3    AREAD+26,,AUTO
         1 000310   000010 237000 2                  LDAQ    8
         1 000311   200052 757100                    STAQ    AREAD+24,,AUTO
         1 000312   000003 236000 2                  LDQ     3
         1 000313   200051 756100                    STQ     AREAD+23,,AUTO
         1 000314   200042 634500                    EPPR4   AREAD+16,,AUTO
         1 000315   200050 454500                    STP4    AREAD+22,,AUTO
         1 000316   200021 635500                    EPPR5   SAVDA,,AUTO
         1 000317   200047 455500                    STP5    AREAD+21,,AUTO
         1 000320   000012 236000 2                  LDQ     10
         1 000321   200046 756100                    STQ     AREAD+20,,AUTO
         1 000322   000014 237000 2                  LDAQ    12
         1 000323   200044 757100                    STAQ    AREAD+18,,AUTO
         1 000324   200044 630500                    EPPR0   AREAD+18,,AUTO
         1 000325   000005 631400 2                  EPPR1   5
         1 000326   000000 701000 xent               TSX1    FMB$LOGERR
         1 000327   000000 011000                    NOP     0

     1155     5367    1           RETURN;

   5367  1 000330   000000 702200 xent               TSX2  ! X66_ARET

     1156     5368        %EJECT;
PL6.E3A0      #003=FMI$EA File=FMI$RAN.:E05TSI                                   TUE 07/29/97 16:51 Page:211
     1157     5369        /*F*   NAME:   FMI$DSREAD
     1158     5370        *      PURPOSE:Read a random file into the user data segment.
     1159     5371        *      INPUT:  The parameter is the requesting WSQ (4,5,6,9).
     1160     5372        *      INTERFACE: MM0$FINDLS, FMD$FLSHBUF, FMD$GETBUF, M$MREAD
     1161     5373        *      DESCRIPTION: The first granule has the first word of each other granule,
     1162     5374        *        so it is read into BUF0 first. Then a descriptor framing the data
     1163     5375        *        segment is formed in B$MISC$. The FFLG in the DCB is saved and set
     1164     5376        *        to FFLG_READ so that M$MREAD will work, even if file is open
     1165     5377        *        by an execute vehicle.
     1166     5378        *      ENTRY:   FMI$DSWRITE
     1167     5379        *      PURPOSE: Undo the work of FMI$DSREAD
     1168     5380        *      DESCRIPTION: All is as in FMI$DSREAD except that M$MWRITE is used
     1169     5381        *      and, of course, the order of events is slightly different.
     1170     5382        */
     1171     5383    1   FMI$DSREAD: ENTRY(N$REQ);

   5383  1 000331   000000 700200 xent  FMI$DSREAD   TSX0  ! X66_AUTO_1
         1 000332   000060 000001                    ZERO    48,1

     1172     5384    1           CALL SETUPDS;

   5384  1 000333   000534 701000 1                  TSX1    SETUPDS
         1 000334   000000 011000                    NOP     0

     1173     5385    1           F$DCB.FFLG.EXEC='0'B;

   5385  1 000335   200020 470500                    LDP0    JDCB$,,AUTO
         1 000336   000016 236000 2                  LDQ     14
         1 000337   000004 356100                    ANSQ    4,,PR0

     1174     5386    1           CALL FMB$QUEUE(B$,0,4096,FM_FRZERO,%N_RDBIN,2,ENTADDR(NIL),0);

   5386  1 000340   000020 237000 2                  LDAQ    16
         1 000341   200050 757100                    STAQ    AREAD+22,,AUTO
         1 000342   000022 237000 2                  LDAQ    18
         1 000343   200046 757100                    STAQ    AREAD+20,,AUTO
         1 000344   000024 237000 2                  LDAQ    20
PL6.E3A0      #003=FMI$EA File=FMI$RAN.:E05TSI                                   TUE 07/29/97 16:51 Page:212
         1 000345   200044 757100                    STAQ    AREAD+18,,AUTO
         1 000346   000003 236000 2                  LDQ     3
         1 000347   200043 756100                    STQ     AREAD+17,,AUTO
         1 000350   200012 631500                    EPPR1   B$,,AUTO
         1 000351   200042 451500                    STP1    AREAD+16,,AUTO
         1 000352   200042 630500                    EPPR0   AREAD+16,,AUTO
         1 000353   000026 631400 xsym               EPPR1   B_VECTNIL+22
         1 000354   000000 701000 xent               TSX1    FMB$QUEUE
         1 000355   000000 011000                    NOP     0

     1175     5387    1           IF RANGRAN.STAMP~=BINBIT(F$DCB.HASH,27) THEN RANGRAN='0'B;

   5387  1 000356   200012 470500                    LDP0    B$,,AUTO
         1 000357   200020 471500                    LDP1    JDCB$,,AUTO
         1 000360   000100 106500                    CMPC    fill='000'O
         1 000361   000000 000004                    ADSC9   0,,PR0                   cn=0,n=4
         1 000362   100073 000003                    ADSC9   59,,PR1                  cn=0,n=3
         1 000363   000370 600000 1                  TZE     COMMONRW

   5387  1 000364   010000 220003                    LDX0    4096,DU
         1 000365   000140 100400                    MLR     fill='000'O
         1 000366   000002 000001 xsym               ADSC9   B_VECTNIL+2              cn=0,n=1
         1 000367   000000 000010                    ADSC9   0,,PR0                   cn=0,n=*X0

   5387  1 000370                       COMMONRW     null
     1176     5388    1   COMMONRW:;
     1177     5389    1           CALL RESETMISC;

   5389  1 000370   000610 701000 1                  TSX1    RESETMISC
         1 000371   000000 011000                    NOP     0

     1178     5390    1           IF F$DCB.FFLG=%FFLG_WNEW# THEN CALL M$MWRITE(AREAD)ALTRET(HERE);

   5390  1 000372   200020 470500                    LDP0    JDCB$,,AUTO
         1 000373   000004 220100                    LDX0    4,,PR0
         1 000374   100000 100003                    CMPX0   32768,DU
         1 000375   000405 601000 1                  TNZ     s:5391
PL6.E3A0      #003=FMI$EA File=FMI$RAN.:E05TSI                                   TUE 07/29/97 16:51 Page:213

   5390  1 000376   200022 631500                    EPPR1   AREAD,,AUTO
         1 000377   200042 451500                    STP1    AREAD+16,,AUTO
         1 000400   200042 630500                    EPPR0   AREAD+16,,AUTO
         1 000401   000017 631400 xsym               EPPR1   B_VECTNIL+15
         1 000402   000000 701000 xent               TSX1    M$MWRITE
         1 000403   000413 702000 1                  TSX2    HERE
         1 000404   000413 710000 1                  TRA     HERE

     1179     5391    1           ELSE CALL M$MREAD(AREAD)ALTRET(HERE);

   5391  1 000405   200022 631500                    EPPR1   AREAD,,AUTO
         1 000406   200042 451500                    STP1    AREAD+16,,AUTO
         1 000407   200042 630500                    EPPR0   AREAD+16,,AUTO
         1 000410   000017 631400 xsym               EPPR1   B_VECTNIL+15
         1 000411   000000 701000 xent               TSX1    M$MREAD
         1 000412   000413 702000 1                  TSX2    HERE

     1180     5392    1   HERE:   CALL RESETMISC;                 /* RANEA ALSO USED IT                 */

   5392  1 000413   000610 701000 1     HERE         TSX1    RESETMISC
         1 000414   000000 011000                    NOP     0

     1181     5393    2           DO PGS=0 TO FM$CFU.NRECS-1;

   5393  1 000415   200013 450100                    STZ     PGS,,AUTO
         1 000416   000435 710000 1                  TRA     s:5396+3

     1182     5394    2              IF PAGES.W0(PGS)~=BITBIN('777777777777'O) THEN

   5394  1 000417   200013 235100                    LDA     PGS,,AUTO
         1 000420   000012 735000                    ALS     10
         1 000421   000000 470400 xsym               LDP0    B$MISC2$
         1 000422   000000 236105                    LDQ     0,AL,PR0
         1 000423   000027 116000 xsym               CMPQ    B_VECTNIL+23
         1 000424   000432 600000 1                  TZE     s:5396

PL6.E3A0      #003=FMI$EA File=FMI$RAN.:E05TSI                                   TUE 07/29/97 16:51 Page:214
     1183     5395    2                 PAGES.W0(PGS)=RANGRAN.WDS(PGS);

   5395  1 000425   200012 471500                    LDP1    B$,,AUTO
         1 000426   200013 720100                    LXL0    PGS,,AUTO
         1 000427   000000 621005                    EAX1    0,AL
         1 000430   100001 235110                    LDA     1,X0,PR1
         1 000431   000000 755111                    STA     0,X1,PR0

     1184     5396    2              END;

   5396  1 000432   200013 235100                    LDA     PGS,,AUTO
         1 000433   000001 035007                    ADLA    1,DL
         1 000434   200013 755100                    STA     PGS,,AUTO
         1 000435   200021 470500                    LDP0    SAVDA,,AUTO
         1 000436   200013 236100                    LDQ     PGS,,AUTO
         1 000437   000442 604000 1                  TMI     s:5397
         1 000440   000001 116100                    CMPQ    1,,PR0
         1 000441   000417 604000 1                  TMI     s:5394

     1185     5397    1           F$DCB.FFLG=SAVSTMP;

   5397  1 000442   200014 220100                    LDX0    SAVSTMP,,AUTO
         1 000443   200020 471500                    LDP1    JDCB$,,AUTO
         1 000444   100004 740100                    STX0    4,,PR1

     1186     5398    1           B$JIT.ERR='0'B;

   5398  1 000445   000000 470400 xsym               LDP0    B$JIT$
         1 000446   000012 450100                    STZ     10,,PR0

     1187     5399    1           CALL FMD$RELBUF(2);

   5399  1 000447   000011 630400 2                  EPPR0   9
         1 000450   000017 631400 xsym               EPPR1   B_VECTNIL+15
         1 000451   000000 701000 xent               TSX1    FMD$RELBUF
         1 000452   000000 011000                    NOP     0

PL6.E3A0      #003=FMI$EA File=FMI$RAN.:E05TSI                                   TUE 07/29/97 16:51 Page:215
     1188     5400    1           RETURN;

   5400  1 000453   000000 702200 xent               TSX2  ! X66_ARET

     1189     5401        %EJECT;
PL6.E3A0      #003=FMI$EA File=FMI$RAN.:E05TSI                                   TUE 07/29/97 16:51 Page:216
     1190     5402    1   FMI$DSWRITE: ENTRY(N$REQ);

   5402  1 000454   000000 700200 xent  FMI$DSWRITE  TSX0  ! X66_AUTO_1
         1 000455   000060 000001                    ZERO    48,1

     1191     5403    1           CALL SETUPDS;

   5403  1 000456   000534 701000 1                  TSX1    SETUPDS
         1 000457   000000 011000                    NOP     0

     1192     5404    1           F$DCB.FFLG=%FFLG_WNEW#;

   5404  1 000460   100000 220003                    LDX0    32768,DU
         1 000461   200020 470500                    LDP0    JDCB$,,AUTO
         1 000462   000004 740100                    STX0    4,,PR0

     1193     5405    1           RANGRAN=BINBIT(F$DCB.HASH,27);

   5405  1 000463   200012 471500                    LDP1    B$,,AUTO
         1 000464   010000 221003                    LDX1    4096,DU
         1 000465   000140 100500                    MLR     fill='000'O
         1 000466   000073 000003                    ADSC9   59,,PR0                  cn=0,n=3
         1 000467   100000 000011                    ADSC9   0,,PR1                   cn=0,n=*X1

     1194     5406    2           DO PGS=0 TO FM$CFU.NRECS-1;

   5406  1 000470   200013 450100                    STZ     PGS,,AUTO
         1 000471   000504 710000 1                  TRA     s:5408+3

     1195     5407    2              RANGRAN.WDS(PGS)=PAGES.W0(PGS);

   5407  1 000472   200013 235100                    LDA     PGS,,AUTO
         1 000473   000012 735000                    ALS     10
         1 000474   000000 470400 xsym               LDP0    B$MISC2$
         1 000475   200012 471500                    LDP1    B$,,AUTO
         1 000476   200013 720100                    LXL0    PGS,,AUTO
         1 000477   000000 235105                    LDA     0,AL,PR0
PL6.E3A0      #003=FMI$EA File=FMI$RAN.:E05TSI                                   TUE 07/29/97 16:51 Page:217
         1 000500   100001 755110                    STA     1,X0,PR1

     1196     5408    2              END;

   5408  1 000501   200013 235100                    LDA     PGS,,AUTO
         1 000502   000001 035007                    ADLA    1,DL
         1 000503   200013 755100                    STA     PGS,,AUTO
         1 000504   200021 470500                    LDP0    SAVDA,,AUTO
         1 000505   200013 236100                    LDQ     PGS,,AUTO
         1 000506   000511 604000 1                  TMI     s:5409
         1 000507   000001 116100                    CMPQ    1,,PR0
         1 000510   000472 604000 1                  TMI     s:5407

     1197     5409    1           N = FM_FRZERO;

   5409  1 000511   000000 235000 xsym               LDA     FM_FRZERO
         1 000512   200005 755100                    STA     N,,AUTO

     1198     5410    1           CALL FMB$QUEUE(B$,0,4096,N,%N_WRBIN,2,ENTADDR(NIL),0);

   5410  1 000513   000020 237000 2                  LDAQ    16
         1 000514   200050 757100                    STAQ    AREAD+22,,AUTO
         1 000515   000026 237000 2                  LDAQ    22
         1 000516   200046 757100                    STAQ    AREAD+20,,AUTO
         1 000517   200005 631500                    EPPR1   N,,AUTO
         1 000520   200045 451500                    STP1    AREAD+19,,AUTO
         1 000521   000024 236000 2                  LDQ     20
         1 000522   200044 756100                    STQ     AREAD+18,,AUTO
         1 000523   000003 236000 2                  LDQ     3
         1 000524   200043 756100                    STQ     AREAD+17,,AUTO
         1 000525   200012 633500                    EPPR3   B$,,AUTO
         1 000526   200042 453500                    STP3    AREAD+16,,AUTO
         1 000527   200042 630500                    EPPR0   AREAD+16,,AUTO
         1 000530   000026 631400 xsym               EPPR1   B_VECTNIL+22
         1 000531   000000 701000 xent               TSX1    FMB$QUEUE
         1 000532   000000 011000                    NOP     0

PL6.E3A0      #003=FMI$EA File=FMI$RAN.:E05TSI                                   TUE 07/29/97 16:51 Page:218
     1199     5411    1           GOTO COMMONRW;

   5411  1 000533   000370 710000 1                  TRA     COMMONRW

     1200     5412        %EJECT;
PL6.E3A0      #003=FMI$EA File=FMI$RAN.:E05TSI                                   TUE 07/29/97 16:51 Page:219
     1201     5413        /*I*   NAME:   SETUPDS
     1202     5414        *      PURPOSE: Sets up the auto frame and B$MISC for %DSREAD and %DSWRITE.
     1203     5415        */
     1204     5416    1   SETUPDS: PROC;

   5416  1 000534   200040 741300       SETUPDS      STX1  ! AREAD+14,,AUTO

     1205     5417    2           JDCB$=B$JIT.DCB$;

   5417  1 000535   000000 470400 xsym               LDP0    B$JIT$
         1 000536   000232 236100                    LDQ     154,,PR0
         1 000537   200020 756100                    STQ     JDCB$,,AUTO

     1206     5418    2           CFU$=F$DCB.CFU$;

   5418  1 000540   200020 471500                    LDP1    JDCB$,,AUTO
         1 000541   100066 236100                    LDQ     54,,PR1
         1 000542   200021 756100                    STQ     SAVDA,,AUTO

     1207     5419    2           SAVSTMP=F$DCB.FFLG;

   5419  1 000543   100004 236100                    LDQ     4,,PR1
         1 000544   777777 376003                    ANQ     -1,DU
         1 000545   200014 756100                    STQ     SAVSTMP,,AUTO

     1208     5420    2           CALL FMD$FLSHBUF(2);

   5420  1 000546   000011 630400 2                  EPPR0   9
         1 000547   000017 631400 xsym               EPPR1   B_VECTNIL+15
         1 000550   000000 701000 xent               TSX1    FMD$FLSHBUF
         1 000551   000000 011000                    NOP     0

     1209     5421    2           CALL FMD$GETBUF(2,1,B$);

   5421  1 000552   200012 630500                    EPPR0   B$,,AUTO
         1 000553   200044 450500                    STP0    AREAD+18,,AUTO
         1 000554   000030 237000 2                  LDAQ    24
PL6.E3A0      #003=FMI$EA File=FMI$RAN.:E05TSI                                   TUE 07/29/97 16:51 Page:220
         1 000555   200042 757100                    STAQ    AREAD+16,,AUTO
         1 000556   200042 630500                    EPPR0   AREAD+16,,AUTO
         1 000557   000021 631400 xsym               EPPR1   B_VECTNIL+17
         1 000560   000000 701000 xent               TSX1    FMD$GETBUF
         1 000561   000000 011000                    NOP     0

     1210     5422    2           F$DCB.CRECNO=1;

   5422  1 000562   000001 235007                    LDA     1,DL
         1 000563   200020 470500                    LDP0    JDCB$,,AUTO
         1 000564   000071 755100                    STA     57,,PR0

     1211     5423    2           AREAD=CREAD;

   5423  1 000565   000100 100400                    MLR     fill='000'O
         1 000566   000002 000070 0                  ADSC9   CREAD                    cn=0,n=56
         1 000567   200022 000070                    ADSC9   AREAD,,AUTO              cn=0,n=56

     1212     5424    2           AREAD.V_=VECTOR(AREAD.V);

   5424  1 000570   000032 235000 2                  LDA     26
         1 000571   200042 452500                    STP2    AREAD+16,,AUTO
         1 000572   200042 236100                    LDQ     AREAD+16,,AUTO
         1 000573   000032 036003                    ADLQ    26,DU
         1 000574   200022 757100                    STAQ    AREAD,,AUTO

     1213     5425    3           DO WHILE(DCBADDR(AREAD.V.DCB#)~=JDCB$);

   5425  1 000575   000601 710000 1                  TRA     s:5427

     1214     5426    3              AREAD.V.DCB#=AREAD.V.DCB#+1;

   5426  1 000576   200032 220100                    LDX0    AREAD+8,,AUTO
         1 000577   000001 621010                    EAX1    1,X0
         1 000600   200032 741100                    STX1    AREAD+8,,AUTO

     1215     5427    3              END;
PL6.E3A0      #003=FMI$EA File=FMI$RAN.:E05TSI                                   TUE 07/29/97 16:51 Page:221

   5427  1 000601   000033 470400 2                  LDP0    27
         1 000602   000000 471500                    LDP1    0,,PR0
         1 000603   200032 220100                    LDX0    AREAD+8,,AUTO
         1 000604   100000 236110                    LDQ     0,X0,PR1
         1 000605   200020 116100                    CMPQ    JDCB$,,AUTO
         1 000606   000576 601000 1                  TNZ     s:5426
         1 000607   000611 710000 1                  TRA     s:5429

     1216     5428    2   RESETMISC: ENTRY;

   5428  1 000610   200040 741300       RESETMISC    STX1  ! AREAD+14,,AUTO

     1217     5429    2           CALL MM0$FINDLS(ADDR(N$REQ)->WRD,P$);

   5429  1 000611   200007 630500                    EPPR0   P$,,AUTO
         1 000612   200043 450500                    STP0    AREAD+17,,AUTO
         1 000613   200003 236100                    LDQ     @N$REQ,,AUTO
         1 000614   200042 756100                    STQ     AREAD+16,,AUTO
         1 000615   200042 630500                    EPPR0   AREAD+16,,AUTO
         1 000616   000020 631400 xsym               EPPR1   B_VECTNIL+16
         1 000617   000000 701000 xent               TSX1    MM0$FINDLS
         1 000620   000000 011000                    NOP     0

     1218     5430    2           B$LS$->B$MLNK.MISC2=P$->LS#N(F$DCB.ACS);

   5430  1 000621   200020 470500                    LDP0    JDCB$,,AUTO
         1 000622   000036 720100                    LXL0    30,,PR0
         1 000623   000777 360003                    ANX0    511,DU
         1 000624   000000 635010                    EAA     0,X0
         1 000625   000021 771000                    ARL     17
         1 000626   200007 471500                    LDP1    P$,,AUTO
         1 000627   100000 237105                    LDAQ    0,AL,PR1
         1 000630   000000 473400 xsym               LDP3    B$LS$
         1 000631   300260 757100                    STAQ    176,,PR3

     1219     5431    2           B$LS$->B$MLNK.MISC2.FLGS=B$LS$->B$MLNK.MISC2.FLGS|'2'O; /* WRITE      */
PL6.E3A0      #003=FMI$EA File=FMI$RAN.:E05TSI                                   TUE 07/29/97 16:51 Page:222

   5431  1 000632   300260 236100                    LDQ     176,,PR3
         1 000633   000024 736000                    QLS     20
         1 000634   700000 376003                    ANQ     -32768,DU
         1 000635   200000 276003                    ORQ     65536,DU
         1 000636   000024 772000                    QRL     20
         1 000637   300260 676100                    ERQ     176,,PR3
         1 000640   160000 376007                    ANQ     57344,DL
         1 000641   300260 656100                    ERSQ    176,,PR3

     1220     5432    2           AREAD.BUF_.BOUND=B$LS$->B$MLNK.MISC2.BOUND;

   5432  1 000642   300260 236100                    LDQ     176,,PR3
         1 000643   200026 676100                    ERQ     AREAD+4,,AUTO
         1 000644   000034 376000 xsym               ANQ     B_VECTNIL+28
         1 000645   200026 656100                    ERSQ    AREAD+4,,AUTO

     1221     5433    2           AREAD.BUF_.BUF$=B$MISC2$;

   5433  1 000646   000000 236000 xsym               LDQ     B$MISC2$
         1 000647   200027 756100                    STQ     AREAD+5,,AUTO

     1222     5434    2           RETURN;

   5434  1 000650   200040 221300                    LDX1  ! AREAD+14,,AUTO
         1 000651   000001 702211                    TSX2  ! 1,X1

DESCINIT
 Sect OctLoc
   0     000   000000 160162                                                    ..pr

X1
 Sect OctLoc
   0     001   777777 777777                                                    ....

CREAD
 Sect OctLoc
PL6.E3A0      #003=FMI$EA File=FMI$RAN.:E05TSI                                   TUE 07/29/97 16:51 Page:223
   0     002   000005 777640   000012 006000   000000 177640   000000 006014    ................
   0     006   000000 177640   000000 006014   000000 177640   000000 006014    ................
   0     012   000000 410000   000000 000000   000000 000000   000000 000000    ................
   0     016   000000 000000   000000 000000                                    ........

(unnamed)
 Sect OctLoc
   2     000   000000 006000   000000 040000   000011 006000   000002 006000    ...... .........
   2     004   000001 006000   000013 000000   000000 000047   000003 006000    ...........'....
   2     010   000003 006000   000004 006000   000012 006000   000000 000000    ................
   2     014   000006 006000   000007 006000   775777 777777   000000 010000    ................
   2     020   000002 006000   000002 006000   000004 006000   000004 006000    ................
   2     024   000017 006000   000000 006000   000005 006000   000004 006000    ................
   2     030   000004 006000   000003 006000   000005 777640   000000 006003    ................
     1223     5435    2   END SETUPDS;
     1224     5436    1   END FMI$EA;

PL6.E3A0      #003=FMI$EA File=FMI$RAN.:E05TSI                                   TUE 07/29/97 16:51 Page:224
--  Include file information  --

   F$DCB.:E05TOU  is referenced.
   FM$RANEA.:E05TOU  is referenced.
   F_ERRORS_C.:E05TOU  is referenced.
   B_MLSMAC_C.:E05TOU  is referenced.
   HF_DATA_R.:E05TOU  cannot be made into a system file and is referenced.
   HF_LOCK_C.:E05TOU  cannot be made into a system file and is referenced.
   S_WSPTD_R.:E05TOU  cannot be made into a system file and is referenced.
   N_FC_C.:E05TOU  is referenced.
   FM$MACROS.:E05TOU  is referenced.
   B$JIT_C.:E05TOU  is referenced.
   F$JIT_C.:E05TOU  cannot be made into a system file and is referenced.
   CP_6_SUBS.:E05TOU  is referenced.
   F_CP6.:E05TOU  is referenced.
   B_STRINGS_C.:E05TOU  is referenced.
   B$USER.:E05TOU  cannot be made into a system file and is referenced.
   N$REQ.:E05TOU  is referenced.
      No diagnostics issued in procedure FMI$EA.
PL6.E3A0      #003=FMI$EA File=FMI$RAN.:E05TSI                                   TUE 07/29/97 16:51 Page:225

 **** Variables and constants ****

  ****  Section 000 RoData FMI$EA

  ****  Scalars and arrays  ****
OctLoc.c.b A Datatyp(siz) R M Lvl/name                 OctLoc.c.b A Datatyp(siz) R M Lvl/name

     2-0-0/d STRC(504)   r     1 CREAD                      0-0-0/w STRC        r     1 DESCINIT
     1-0-0/w CHAR(4)     r     1 X                          1-0-0/w SBIN        r     1 X1

  ****  Auto variables  ****

  ****  Scalars and arrays  ****
OctLoc.c.b A Datatyp(siz) R M Lvl/name                 OctLoc.c.b A Datatyp(siz) R M Lvl/name

     3-0-0/w PTR         r     1 @N$REQ                    22-0-0/d STRC(504)   r     1 AREAD
    12-0-0/w PTR         r     1 B$                        12-0-0/w UBIN        r     1 B$UBIN
    11-0-0/w SBIN        r     1 BLKNO                     21-0-0/w PTR         r     1 CFU$
    20-0-0/w PTR         r     1 JDCB$                      5-0-0/w SBIN        r     1 N
    *0-0-0/d STRC(1080)  r     1 N$REQ                      7-0-0/w PTR         r     1 P$
    13-0-0/w UBIN        r     1 PGS                       15-0-0/w UBIN        r     1 SAVBUF(0:2)
    21-0-0/w UBIN        r     1 SAVDA                     14-0-0/b BIT         r     1 SAVSTMP
    10-0-0/w UBIN        r     1 SIZ                        6-0-0/b STRC        r     1 STAMP
     4-0-0/w SBIN        r     1 VPNO

  ****  SYMREF variables  ****

  ****  Scalars and arrays  ****
OctLoc.c.b A Datatyp(siz) R M Lvl/name                 OctLoc.c.b A Datatyp(siz) R M Lvl/name

     0-0-0/w PTR         r     1 B$JIT$                     0-0-0/w PTR         r     1 B$LS$
     0-0-0/w PTR         r     1 B$MISC$                    0-0-0/w PTR         r     1 B$MISC2$
     0-0-0/w PTR         r     1 B$USRT$                    0-0-0/w UBIN        r     1 FM_FRZERO
     0-0-0/w SBIN        r     1 F_DCBLOCK                  0-0-0/w SBIN        r     1 HW_IOPTP_UNITS
     0-0-0/w SBIN        r     1 HW_PTB_UNITS               0-0-0/w STRC        r     1 S_WSPTD(0:28)

  ****  BASED and DCB variables  ****
PL6.E3A0      #003=FMI$EA File=FMI$RAN.:E05TSI                                   TUE 07/29/97 16:51 Page:226

  ****  Scalars and arrays  ****
OctLoc.c.b A Datatyp(siz) R M Lvl/name                 OctLoc.c.b A Datatyp(siz) R M Lvl/name

     0-0-0/d STRC(8856)  r     1 B$JIT                      0-0-0/d STRC(10368) r     1 B$MLNK
     0-0-0/w STRC(576)   r     1 B$USER(0:0)                0-0-0/d ASTR(3528)  r     1 F$DCB
     0-0-0/w STRC(288)   r     1 FM$CFU                     0-0-0/w STRC(252)   r     1 FM$RANEA
     0-0-0/d BIT (72)    r     1 LS#N(0:0)                  0-0-0/w STRC(36864) r     1 PAGES(0:0)
     0-0-0/w STRC(36864) r     1 RANGRAN                    0-0-0/d STRC(1080)  r     1 REALREQ
     0-0-0/w UBIN        r     1 WRD                        0-0-0/w UBIN        r     1 WRDS3(0:2)
     0-0-0/w ACHR        r     1 ZAP


   Procedure FMI$EA requires 426 words for executable code.
   Procedure FMI$EA requires 48 words of local(AUTO) storage.

    No errors detected in file FMI$RAN.:E05TSI    .
PL6.E3A0      #003=FMI$EA File=FMI$RAN.:E05TSI                                   TUE 07/29/97 16:51 Page:227
          *** CROSS REFERENCE LISTING ***
**     DENOTES     IDENTIFIER DEFINITION
<<                 IDENTIFIER'S VALUE SET
>>                 IDENTIFIER'S VALUE USED
<>                 IDENTIFIER SET AND/OR USED
--                 IDENTIFIER REFERENCED
PL6.E3A0      #003=FMI$EA File=FMI$RAN.:E05TSI                                   TUE 07/29/97 16:51 Page:228
          MINI XREF LISTING

AREAD
      4282**DCL      5390<>CALL     5391<>CALL     5423<<ASSIGN
AREAD.BUF_.BOUND
      4284**DCL      5432<<ASSIGN
AREAD.BUF_.BUF$
      4285**DCL      5433<<ASSIGN
AREAD.STATION_
      4285**DCL      4286--REDEF
AREAD.V
      4286**DCL      5424--ASSIGN
AREAD.V.DCB#
      4286**DCL      5425--DOWHILE  5426<<ASSIGN   5426>>ASSIGN
AREAD.V.DVBYTE.REREAD#
      4297**DCL      4297--REDEF
AREAD.V.INDX#
      4295**DCL      4295--REDEF
AREAD.V_
      4282**DCL      5424<<ASSIGN
B$
       188**DCL       189--REDEF    5222--IMP-PTR  5289--IMP-PTR  5301>>ASSIGN   5302>>ASSIGN   5303>>ASSIGN
      5305>>ASSIGN   5324>>IF       5327>>ASSIGN   5344>>ASSIGN   5344>>ASSIGN   5345>>IF       5349>>ASSIGN
      5350>>ASSIGN   5351>>ASSIGN   5352<>CALL     5386<>CALL     5387>>IF       5387>>ASSIGN   5395>>ASSIGN
      5405>>ASSIGN   5407>>ASSIGN   5410<>CALL     5421<>CALL
B$DO.ECCINFO
       348**DCL       349--REDEF
B$JIT.DCB$
      2528**DCL      5417>>ASSIGN
B$JIT.ERR
      2438**DCL      5398<<ASSIGN
B$JIT.ERR.MID
      2439**DCL      2439--REDEF
B$JIT$
PL6.E3A0      #003=FMI$EA File=FMI$RAN.:E05TSI                                   TUE 07/29/97 16:51 Page:229
       176**DCL      2433--IMP-PTR  5398>>ASSIGN   5417>>ASSIGN
B$LS$
       173**DCL      5316>>ASSIGN   5317>>ASSIGN   5318>>ASSIGN   5430>>ASSIGN   5431>>ASSIGN   5431>>ASSIGN
      5432>>ASSIGN
B$MISC$
       174**DCL      5320>>ASSIGN
B$MISC2$
       175**DCL      5286--IMP-PTR  5394>>IF       5395>>ASSIGN   5407>>ASSIGN   5433>>ASSIGN
B$MLNK.MISC
      4718**DCL      5316<<ASSIGN
B$MLNK.MISC.BASE
      4723**DCL      5318<<ASSIGN
B$MLNK.MISC.BOUND
      4719**DCL      5317<<ASSIGN
B$MLNK.MISC2
      4986**DCL      5430<<ASSIGN
B$MLNK.MISC2.BOUND
      4987**DCL      5432>>ASSIGN
B$MLNK.MISC2.FLGS
      4988**DCL      5431<<ASSIGN   5431>>ASSIGN
B$U.MISC
       327**DCL       328--REDEF
B$UBIN
       189**DCL      5300<<ASSIGN
B$USER.MISC
       403**DCL       404--REDEF
B$USER.PT
       397**DCL      5310>>ASSIGN   5356>>ASSIGN
B$USRT$
       544**DCL      5310>>ASSIGN   5356>>ASSIGN
BLKNO
       187**DCL      5305<<ASSIGN   5327>>ASSIGN   5337>>ASSIGN   5340<<ASSIGN   5340>>ASSIGN
CFU$
       195**DCL      5293--IMP-PTR  5393>>DOINDEX  5406>>DOINDEX  5418<<ASSIGN
COMMONRW
      5387**LABEL    5411--GOTO
PL6.E3A0      #003=FMI$EA File=FMI$RAN.:E05TSI                                   TUE 07/29/97 16:51 Page:230
CREAD
      4243**DCL      5423>>ASSIGN
CREAD.STATION_
      4246**DCL      4247--REDEF
CREAD.V
      4247**DCL      4243--DCLINIT
CREAD.V.DVBYTE.REREAD#
      4258**DCL      4258--REDEF
CREAD.V.INDX#
      4256**DCL      4256--REDEF
DESCINIT
      4219**DCL      5316>>ASSIGN
F$DCB.ACS
      4373**DCL      5430>>ASSIGN
F$DCB.ACTPOS
      4381**DCL      4381--REDEF
F$DCB.ARS
      4356**DCL      4356--REDEF
F$DCB.ATTR
      4374**DCL      4375--REDEF
F$DCB.BORROW
      4389**DCL      4389--REDEF    4389--REDEF    4389--REDEF
F$DCB.CFU$
      4390**DCL      5418>>ASSIGN
F$DCB.CRECNO
      4393**DCL      5422<<ASSIGN
F$DCB.DCBNAME.L
      4403**DCL      4403--IMP-SIZ
F$DCB.EOMCHAR
      4360**DCL      4360--REDEF
F$DCB.FFLG
      4360**DCL      5390>>IF       5397<<ASSIGN   5404<<ASSIGN   5419>>ASSIGN
F$DCB.FFLG.EXEC
      4361**DCL      5385<<ASSIGN
F$DCB.FLDID
      4384**DCL      4384--REDEF
PL6.E3A0      #003=FMI$EA File=FMI$RAN.:E05TSI                                   TUE 07/29/97 16:51 Page:231
F$DCB.FORM$
      4378**DCL      4378--REDEF
F$DCB.FSECT
      4394**DCL      4394--REDEF
F$DCB.FSN
      4371**DCL      4371--REDEF    4371--REDEF    4372--REDEF
F$DCB.HASH
      4393**DCL      5387>>IF       5405>>ASSIGN
F$DCB.HEADER$
      4377**DCL      4377--REDEF
F$DCB.IXTNSIZE
      4375**DCL      4375--REDEF
F$DCB.LASTSTA$
      4365**DCL      4365--REDEF
F$DCB.LVL
      4390**DCL      4390--REDEF
F$DCB.NAME.C
      4365**DCL      4365--REDEF
F$DCB.NOEOF
      4386**DCL      4386--REDEF
F$DCB.NRECS
      4376**DCL      4376--REDEF
F$DCB.NRECX
      4395**DCL      4395--REDEF
F$DCB.OHDR
      4387**DCL      4387--REDEF
F$DCB.ORG
      4370**DCL      4370--REDEF
F$DCB.PRECNO
      4393**DCL      4393--REDEF
F$DCB.RCSZ
      4398**DCL      4398--REDEF
F$DCB.RES
      4366**DCL      4366--REDEF
F$DCB.SETX
      4378**DCL      4378--REDEF
PL6.E3A0      #003=FMI$EA File=FMI$RAN.:E05TSI                                   TUE 07/29/97 16:51 Page:232
F$DCB.TAB$
      4377**DCL      4378--REDEF
F$DCB.TDA
      4392**DCL      4392--REDEF
F$DCB.WSN
      4367**DCL      4367--REDEF
FM$CFU.ACCTX
      5294**DCL      5294--REDEF
FM$CFU.NRECS
      5294**DCL      5393>>DOINDEX  5406>>DOINDEX
FM$RANEA.BLKNO
      5222**DCL      5305>>ASSIGN   5327>>ASSIGN
FM$RANEA.CNT
      5222**DCL      5344<<ASSIGN   5344>>ASSIGN   5345>>IF
FM$RANEA.PGS
      5222**DCL      5302>>ASSIGN
FM$RANEA.STAMP
      5222**DCL      5303>>ASSIGN
FM$RANEA.TYP
      5222**DCL      5324>>IF
FM$RANEA.VPNO
      5222**DCL      5301>>ASSIGN
FMB$LOGERR
       160**DCL-ENT  5366--CALL
FMB$QUEUE
       161**DCL-ENT  5386--CALL     5410--CALL
FMD$FLSHBUF
       162**DCL-ENT  5420--CALL
FMD$GETBUF
       163**DCL-ENT  5421--CALL
FMD$RELBUF
       164**DCL-ENT  5399--CALL
FM_FRZERO
       177**DCL      5386<>CALL     5409>>ASSIGN
F_DCBLOCK
       178**DCL      5308<>CALL     5347<>CALL     5360<>CALL
PL6.E3A0      #003=FMI$EA File=FMI$RAN.:E05TSI                                   TUE 07/29/97 16:51 Page:233
HERE
      5392**LABEL    5390--CALLALT  5391--CALLALT
HFC$ASSOCCLR
       165**DCL-ENT  5311--CALL     5314--CALL     5357--CALL
HFC$LOCK
      2982**DCL-ENT  5308--CALL
HFC$UNLOCK
      2982**DCL-ENT  5347--CALL     5360--CALL
HW_IOPTP_UNITS
      3020**DCL      5313>>ASSIGN   5318>>ASSIGN   5318>>ASSIGN
HW_PTB_UNITS
      3020**DCL      5313>>ASSIGN   5318>>ASSIGN
JDCB$
       193**DCL      4356--IMP-PTR  5385>>ASSIGN   5387>>IF       5390>>IF       5397>>ASSIGN   5404>>ASSIGN
      5405>>ASSIGN   5417<<ASSIGN   5418>>ASSIGN   5419>>ASSIGN   5422>>ASSIGN   5425>>DOWHILE  5430>>ASSIGN
LS#N
      5285**DCL      5430>>ASSIGN
M$MREAD
       167**DCL-ENT  5391--CALL
M$MWRITE
       168**DCL-ENT  5390--CALL
MM0$FINDLS
       166**DCL-ENT  5429--CALL
MMC$CP_IOM
       169**DCL-ENT  5312--CALL
MMC$ONLY_IOM
       170**DCL-ENT  5358--CALL
N
       181**DCL      5321<<ASSIGN   5322>>DOWHILE  5331>>IF       5331>>ASSIGN   5341<<ASSIGN   5341>>ASSIGN
      5409<<ASSIGN   5410<>CALL
N$REQ
       110**DCL        25--PROC     5366--CALL     5383--ENTRY    5402--ENTRY    5429--CALL
N$REQ.BUFADDR
       119**DCL       120--REDEF     120--REDEF
N$REQ.BUFSIZE
       113**DCL      5317>>ASSIGN   5321>>ASSIGN
PL6.E3A0      #003=FMI$EA File=FMI$RAN.:E05TSI                                   TUE 07/29/97 16:51 Page:234
N$REQ.BUFVIRT
       120**DCL      5318>>ASSIGN
N$REQ.DLA
       110**DCL      5327>>ASSIGN
N$REQ.DLA.DRELADDR
       111**DCL       111--REDEF
N$REQ.DVE.EOMCHAR
       148**DCL       149--REDEF
N$REQ.EAINFO
       142**DCL       142--REDEF    5300>>ASSIGN
N$REQ.EAINFOX
       142**DCL       143--REDEF    5304>>ASSIGN   5305>>ASSIGN   5327>>ASSIGN
N$REQ.EVNTINFO
       143**DCL       143--REDEF
N$REQ.OPFLG.CLR
       119**DCL      5353<<ASSIGN
N$REQ.PTP
       121**DCL      5313>>ASSIGN   5318>>ASSIGN
N$REQ.STATUS
       124**DCL       130--REDEF
N$REQ.TYC.DI
       135**DCL      5333<<ASSIGN
N$REQ.TYC.EGV
       132**DCL      5334<<ASSIGN
N$REQ.USER#
       144**DCL      5310>>ASSIGN   5356>>ASSIGN
NIQ$REL
       171**DCL-ENT  5352--CALL
P$
       185**DCL      5320<<ASSIGN   5323>>IF       5326>>ASSIGN   5332>>ASSIGN   5337>>ASSIGN   5338<<ASSIGN
      5338>>ASSIGN   5429<>CALL     5430>>ASSIGN
PAGES.W0
      5287**DCL      5394>>IF       5395<<ASSIGN   5407>>ASSIGN
PGS
       190**DCL      5302<<ASSIGN   5312<>CALL     5358<>CALL     5393<<DOINDEX  5394>>IF       5395>>ASSIGN
      5395>>ASSIGN   5406<<DOINDEX  5407>>ASSIGN   5407>>ASSIGN
PL6.E3A0      #003=FMI$EA File=FMI$RAN.:E05TSI                                   TUE 07/29/97 16:51 Page:235
RANGRAN
      5289**DCL      5387<<ASSIGN   5405<<ASSIGN
RANGRAN.STAMP
      5290**DCL      5387>>IF
RANGRAN.WDS
      5291**DCL      5395>>ASSIGN   5407<<ASSIGN
REALREQ
      5233**DCL      5349<<ASSIGN
REALREQ.BUFADDR
      5242**DCL      5243--REDEF    5243--REDEF
REALREQ.DLA.DRELADDR
      5234**DCL      5234--REDEF
REALREQ.DVE.EOMCHAR
      5271**DCL      5272--REDEF
REALREQ.EAINFO
      5265**DCL      5265--REDEF
REALREQ.EAINFOX
      5265**DCL      5266--REDEF
REALREQ.ERR$
      5255**DCL      5350<<ASSIGN
REALREQ.EVNTINFO
      5266**DCL      5266--REDEF
REALREQ.IOQFLG.INUSE
      5276**DCL      5351<<ASSIGN
REALREQ.STATUS
      5247**DCL      5253--REDEF
RESETMISC IN PROCEDURE SETUPDS
      5428**ENTRY    5389--CALL     5392--CALL
SAVBUF
       192**DCL      5326<<ASSIGN   5366--CALL
SAVDA
       194**DCL       195--REDEF    5327<<ASSIGN   5366<>CALL
SAVSTMP
       191**DCL      5299<<ASSIGN   5324>>IF       5325<<ASSIGN   5365>>IF       5366<>CALL     5397>>ASSIGN
      5419<<ASSIGN
SETUPDS
PL6.E3A0      #003=FMI$EA File=FMI$RAN.:E05TSI                                   TUE 07/29/97 16:51 Page:236
      5416**PROC     5384--CALL     5403--CALL
SIZ
       186**DCL      5282--IMP-SIZ  5330<<ASSIGN   5331<<ASSIGN   5332>>ASSIGN
STAMP
       182**DCL      5303<<ASSIGN   5323>>IF       5325>>ASSIGN
STAMP.GMOD
       184**DCL      5304<<ASSIGN   5304>>ASSIGN   5339<<ASSIGN   5339>>ASSIGN
S_WSPTD.BLKNO
      2961**DCL      5310<<ASSIGN   5313<<ASSIGN   5356<<ASSIGN
VPNO
       180**DCL      5301<<ASSIGN   5312<>CALL     5358<>CALL
WRD
      5283**DCL      5323>>IF       5337<<ASSIGN   5429<>CALL
WRDS3
      5284**DCL      5326>>ASSIGN
X
      4225**DCL      5332>>ASSIGN
X1
      4224**DCL      4225--REDEF
ZAP
      5282**DCL      5332<<ASSIGN
PL6.E3A0      #003=FMI$EA File=FMI$RAN.:E05TSI                                   TUE 07/29/97 16:51 Page:237
              *** CROSS REFERENCE LISTING ***
    **     DENOTES     IDENTIFIER DEFINITION
    <<                 IDENTIFIER'S VALUE SET
    >>                 IDENTIFIER'S VALUE USED
    <>                 IDENTIFIER SET AND/OR USED
    --                 IDENTIFIER REFERENCED
PL6.E3A0      #003=FMI$EA File=FMI$RAN.:E05TSI                                   TUE 07/29/97 16:51 Page:238
              MINI UREF LISTING

B$DOCONT     361**DCL
EPU_MASK    3019**DCL
FMI$DSREAD    5383**ENTRY
FMI$DSWRITE    5402**ENTRY
FMI$EA      25**PROC
HW_CHANS    3024**DCL
HW_EDAC    3024**DCL
HW_EI    3023**DCL
HW_ES    3023**DCL
HW_EXT_STATUS    3022**DCL
HW_FLTIC_OK    3024**DCL
HW_FRAG_PT    3022**DCL
HW_IMX    3025**DCL
HW_IOP    3022**DCL
HW_LOAD_FW    3021**DCL
HW_NORM_CLOCK    3024**DCL
HW_PERF    3019**DCL
HW_PERF_SUB    3019**DCL
HW_PROG_SCU    3023**DCL
HW_SECT_PT    3021**DCL
HW_SMART_CACHE    3023**DCL
HW_TIME_LEGAL    3021**DCL
HW_TYPE    3020**DCL
HW_WSQ0PT    3021**DCL
H_CNCTEVBF    3009**DCL
H_CNCTEVGATE    3009**DCL
H_CNCTEVX    3009**DCL
H_CNNCTMLBX    2991**DCL
H_CODE    3002**DCL
H_CPUGATE    2991**DCL
H_CPU_BF    3001**DCL
H_CPU_CONFIG    2997**DCL
PL6.E3A0      #003=FMI$EA File=FMI$RAN.:E05TSI                                   TUE 07/29/97 16:51 Page:239
H_DPS8000_CI_TABLE    3016**DCL
H_DPS8000_CONFIG_NAME    3016**DCL
H_DPS8000_CPU_CONF_REG    3012**DCL
H_DPS8000_SCU_CONF_REG    3013**DCL
H_DPS8000_SCU_INFO    3014**DCL
H_DSMASK    2993**DCL
H_DUMMY    3006**DCL
H_EDACHIST    3010**DCL
H_EDACUTS    3010**DCL
H_ENMASK    2993**DCL
H_EXTFLTREG_MASK    3011**DCL
H_FAIL_NUM    2996**DCL
H_FAIL_PARK    2996**DCL
H_FAIL_PORT    2996**DCL
H_FLTCNT    2991**DCL
H_FLTREG    3011**DCL
H_FLTREG_MASK    3010**DCL
H_HRMODE    3007**DCL
H_HRMODE_MASK    3007**DCL
H_INTMASK    2992**DCL
H_LUFREG    3007**DCL
H_LUFREG_MASK    3008**DCL
H_MAKE_IN_PROGRESS    3004**DCL
H_MAXPORT#    3002**DCL
H_MAXSU#    2994**DCL
H_MAX_PERF    3018**DCL
H_MEMOK    2994**DCL
H_MIXED_FLT    3005**DCL
H_MIXED_INT    3004**DCL
H_MIXED_MP    3004**DCL
H_MIXED_RMIR    3006**DCL
H_MIXED_SSS    3005**DCL
H_MIXED_SSX    3005**DCL
H_MIXED_TRO    3005**DCL
H_MODE    3003**DCL
H_NURSE    2997**DCL
PL6.E3A0      #003=FMI$EA File=FMI$RAN.:E05TSI                                   TUE 07/29/97 16:51 Page:240
H_NURSE_PARK    2997**DCL
H_PERF    3018**DCL
H_PERF_DATA    3011**DCL
H_PORT#    3003**DCL
H_PORTMASK    3002**DCL
H_PORT_FIRST_ADDR    3001**DCL
H_RELIEF    2997**DCL
H_RELOAD_CACHE    3008**DCL
H_RELOAD_MODE    3008**DCL
H_RLF_GATE    2995**DCL
H_RPM_CONNECT_TABLE    3017**DCL
H_RPM_FLG    2995**DCL
H_RSW1    3006**DCL
H_RSW2    3006**DCL
H_S1000_CONFIG    2995**DCL
H_S1000_FLG    2995**DCL
H_SAVE_SS    3004**DCL
H_SCU_BF    3001**DCL
H_SCU_CONFIG    2998**DCL
H_SNAP    3003**DCL
H_SPROC#    3003**DCL
H_STOREUNIT    2993**DCL
H_SYSID    3003**DCL
H_TIME    2992**DCL
H_TIME_CORR    3019**DCL
H_XDELTA    2992**DCL
S$CU$     543**DCL
S_DPR2    2965**DCL
S_FLT_IS    2963**DCL
S_FLT_IS_START    2962**DCL
S_INT_SS    2963**DCL
S_OPTION_REG    2962**DCL
S_PDBR    2961**DCL
S_PGTABLE    2964**DCL
S_PTWAM    2964**DCL
S_RETRY    2963**DCL
PL6.E3A0      #003=FMI$EA File=FMI$RAN.:E05TSI                                   TUE 07/29/97 16:51 Page:241
S_RLF_SSR    2966**DCL
S_RVA    2968**DCL
S_SSR_EXIT1    2966**DCL
S_SSR_EXIT2    2967**DCL
S_SSR_EXIT3    2967**DCL
S_SSR_EXIT4    2967**DCL
S_SSR_EXIT5    2968**DCL
S_SSR_EXIT6    2968**DCL
S_THIS_PERF    2963**DCL
S_THIS_PTYPE    2962**DCL
S_TRO_SS    2964**DCL
S_WSR    2962**DCL
S_X1    2966**DCL
S_XASR    2965**DCL
S_XPR2    2966**DCL
S_XPSR    2965**DCL
S_XSSR    2965**DCL
S_XX    2966**DCL
