PL6.E3A0      #002=FMM$IFPARAM File=FMM$OPN.:E05TSI                              TUE 07/29/97 16:52 Page:225
     1306        1        /*T***********************************************************/
     1307        2        /*T*                                                         */
     1308        3        /*T* Copyright (c) Bull HN Information Systems Inc., 1997    */
     1309        4        /*T*                                                         */
     1310        5        /*T***********************************************************/
     1311        6                    /*F*
     1312        7                    *     NAME:   FMM$IFPARAM
     1313        8                    *     PURPOSE:  MERGE THE NECESSARY ITEMS FROM THE IFPARAM
     1314        9                    *               RECORD INTO THE DCB AND SET THE CORRESPONDING
     1315       10                    *               POINTERS INTO THE VALID IFPARAM AREAS.
     1316       11                    *
     1317       12                    *     CALL:   CALL FMM$IFPARAM(PN$);
     1318       13                    *
     1319       14                    *     DESCRIPTION:  FMM$IFPARAM TAKES APART THE PARAMETERS IN
     1320       15                    *             THE INPUT FIT RECORD AND MERGES THEM INTO THE DCB
     1321       16                    *             OR SETS THE OPEN POINTER TO THE IFPARAM AREA
     1322       17                    *             DESCRIBING THE FILE ATTRIBUTES.  NOTE THAT THE
     1323       18                    *             IFPARAM ITEMS ARE MERGED PRIOR TO THE OPEN FPT,
     1324       19                    *             AND THUS MAY BE INDIVIDUALLY OVERRIDDEN BY ITEMS
     1325       20                    *             IN THE OPEN FPT ITSELF (E.G. AN ERASE FPT VECTOR
     1326       21                    *             WILL OVERRIDE A SPECIFIC IFPARAM ITEM SUCH AS AN
     1327       22                    *             ACCOUNT ACCESS LIST).
     1328       23                    *
     1329       24                    */
     1330       25        FMM$IFPARAM:PROC(FPT) ALTRET;
     1331       26                    /**/
     1332       27        %INCLUDE F$JIT_C;
     1333      457        %INCLUDE F$CP6P_C;
     1334      468        %INCLUDE KI_CP6;
     1335     1564        %INCLUDE FM_FIELD_C;
     1336     1605        %MACRO F$DCB(BASED=BASED);
     1337     1606        %INCLUDE F$DCB;
     1338     1655        %MEND;
     1339     1656        %INCLUDE FM$MACROS;
     1340     2031        %F$DCB(BASED="BASED(JDCB$)");
     1341     2081        %FPT$OPEN_P(FPTN=FPT,PFMT=PTR,STCLASS=);
     1342     2087        %FM$FIT(BASED="BASED(FPT.IFPARAM_)");
PL6.E3A0      #002=FMM$IFPARAM File=FMM$OPN.:E05TSI                              TUE 07/29/97 16:52 Page:226
     1343     2090        %CODE02(BASED="BASED(TEMP$)");
     1344     2094        %CODE03(BASED="BASED(TEMP$)");
     1345     2101        %CODE04(BASED="BASED(TEMP$)");
     1346     2109        %CODE05(BASED="BASED(TEMP$)");
     1347     2112        %CODE06(BASED="BASED(TEMP$)");
     1348     2116        %CODE07(BASED="BASED(TEMP$)");
     1349     2119        %FITALTKEYS(BASED="BASED(TEMP$)");
     1350     2125        %CODE14(BASED="BASED(TEMP$)");
     1351     2135        %CODE16(BASED="BASED(TEMP$)");
     1352     2143        %VLP_FPRG (FPTN=VLP$FPRG, STCLASS="BASED(TEMP$)");
     1353     2164        %CODE18 (BASED="BASED(TEMP$)");
     1354     2168        %CODE19 (BASED="BASED(TEMP$)");
     1355     2171        %CODE21 (BASED="BASED(TEMP$)");
     1356     2174        %FMG$KFIELD (FPTN=KFIELD,STCLASS=BASED);
     1357     2177        %FM$FIELD_START (FPTN=FM$FIELD_START,STCLASS=BASED);
     1358     2199        %INCLUDE CP_6_SUBS;
     1359     2739        %INCLUDE UD_ERRORS_C;
     1360     2781        %SUB FCG#='0615'O;
     1361     2782        %SUB MID#='15'O;
     1362     2783        %ERRCODE(NAME=FMM$E$BADVECT11,COD#=%E$BADVECT11);
     1363     2787    1   DCL IFPARMSZ(0:21)UBIN CONSTANT INIT(0,0,
     1364     2788    1   SIZEW(CODE02),
     1365     2789    1   SIZEW(CODE03),
     1366     2790    1   SIZEW(CODE04),
     1367     2791    1   SIZEW(CODE05),
     1368     2792    1   SIZEW(CODE06),
     1369     2793    1   SIZEW(CODE07),
     1370     2794    1   7,          /* For alternate keys - use min word size */
     1371     2795    1   0,0,0,0,0,
     1372     2796    1   SIZEW(CODE14),0,
     1373     2797    1   SIZEW(CODE16),
     1374     2798    1   SIZEW(VLP$FPRG),
     1375     2799    1   2,          /* For physical field description - use min word size */
     1376     2800    1   2,          /* For IRKEYS - use min word size */
     1377     2801    1   5,          /* For 2nd IRKEYS - use min word size */
     1378     2802    1   2);         /* For logical field description - use min word size */
     1379     2803    1   DCL 1 MOVEL BASED,
PL6.E3A0      #002=FMM$IFPARAM File=FMM$OPN.:E05TSI                              TUE 07/29/97 16:52 Page:227
     1380     2804    1         2 * CHAR(L);
     1381     2805                    /* AUTO FRAME */
     1382     2806    1   DCL T$ PTR;
     1383     2807    1   DCL L UBIN;
     1384     2808    1   DCL K UBIN;
     1385     2809    1   DCL J UBIN;
     1386     2810    1   DCL I UBIN;
     1387     2811    1   DCL JDCB$ PTR;
     1388     2812    1   DCL TEMP$ PTR;
     1389     2813    1   DCL FIELD$ PTR;
     1390     2814    1   DCL START$ PTR;
     1391     2815        %SUB IFPARAMX="POFFW(ADDR(FPT.IFPARAM_),ADDR(FPT.V_))";
     1392     2816                    /* SYMREFS */
     1393     2817    1   DCL B$JIT$ PTR SYMREF READONLY;
     1394     2818    1   DCL B$ROSEG$ PTR SYMREF READONLY;
     1395     2819    1   DCL B$PS$(0:0) PTR SYMREF READONLY;
     1396     2820                    /**/
     1397     2821    1   DCL FSA$FSP ENTRY(2) ALTRET;
     1398     2822    1   DCL FMG$IRSETUP ENTRY(1) ALTRET;
     1399     2823    1   DCL FSA$GSP ENTRY(2) ALTRET;
     1400     2824    1   DCL HFF$DSIZ ENTRY(2);
     1401     2825        %EJECT;
PL6.E3A0      #002=FMM$IFPARAM File=FMM$OPN.:E05TSI                              TUE 07/29/97 16:52 Page:228
     1402     2826    1      JDCB$=B$JIT.DCB$;
     1403     2827    1      J=FM$FIT.CODES.CODE(0); /* NO. OF CONTROL WORDS */
     1404     2828    1      CALL HFF$DSIZ(IFPARAMX,K);
     1405     2829    1      K=K/4;
     1406     2830    1      IF K<J THEN GOTO FMME$BADVECT11;
     1407     2831                    /**/
     1408     2832    2      DO I=1 TO J;
     1409     2833    2         TEMP$=PINCRW(FPT.IFPARAM_,FM$FIT.CODES.ITEMX(I));
     1410     2834    2         IF FM$FIT.CODES.ITEMX(I)+FM$FIT.CODES.NDW(I)>K
     1411     2835    2           OR FM$FIT.CODES.ITEMX(I)+IFPARMSZ(FM$FIT.CODES.CODE(I))>K
     1412     2836    2         THEN GOTO FMME$BADVECT11;
     1413     2837    3         DO CASE(FM$FIT.CODES.CODE(I));
     1414     2838                    /**/
     1415     2839    3         CASE(2); /* FPARAM DATA FOR KEYED FILES */
     1416     2840    3            IF CODE02.LSLIDE~=0 THEN F$DCB.LSLIDE=CODE02.LSLIDE;
     1417     2841    3            IF CODE02.LRDL0~=0 THEN F$DCB.LRDL0=CODE02.LRDL0;
     1418     2842    3            IF CODE02.SPARE~=0 THEN F$DCB.SPARE=CODE02.SPARE;
     1419     2843    4            IF CODE02.KEYL~=0 AND NOT F$DCB.FCD THEN DO;
     1420     2844    4               F$DCB.KEYL=CODE02.KEYL;
     1421     2845    4               F$DCB.KEYX=CODE02.KEYX;
     1422     2846    4               END;
     1423     2847                    /**/
     1424     2848    3         CASE(3); /* FPARAM DATA FOR ALL FILES */
     1425     2849    4            IF NOT F$DCB.FCD THEN DO;
     1426     2850    4               IF CODE03.ORG~=0 THEN F$DCB.ORG=CODE03.ORG;
     1427     2851    4               IF CODE03.UGRANS~=0 THEN F$DCB.IXTNSIZE=CODE03.UGRANS;
     1428     2852    4               IF CODE03.RECL~=0 THEN F$DCB.RECL=CODE03.RECL;
     1429     2853    4               IF F$DCB.ORG=%RELATIVE#
     1430     2854    4                 AND CODE03.NRECS~=0 THEN F$DCB.NRECS=CODE03.NRECS;
     1431     2855    4               IF CODE03.COMP THEN F$DCB.COMP='1'B;
     1432     2856    4               END;
     1433     2857    3            IF CODE03.TYPE~=BINASC(0) THEN F$DCB.TYPE=CODE03.TYPE;
     1434     2858    3            IF CODE03.DESC THEN F$DCB.BUPM=CODE03.DESC.BUPM;
     1435     2859    3            IF CODE03.XTNSIZE~=0 THEN F$DCB.XTNSIZE=CODE03.XTNSIZE;
     1436     2860    3            IF CODE03.EXPIRE~=0 THEN F$DCB.EXPIRE=CODE03.EXPIRE;
     1437     2861    3            IF CODE03.GHSTACS~=0 THEN F$DCB.GHSTACS=CODE03.GHSTACS;
     1438     2862    3         CASE(7); /* PASSWORD */
PL6.E3A0      #002=FMM$IFPARAM File=FMM$OPN.:E05TSI                              TUE 07/29/97 16:52 Page:229
     1439     2863    4            IF NOT F$DCB.FCD THEN DO;
     1440     2864    4               F$DCB.PASSF='1'B;
     1441     2865    4               F$DCB.PASS=CODE07.PASS;
     1442     2866    4               END;
     1443     2867                    /**/
     1444     2868    3         CASE(8); /* ALTERNATE KEYS (INDEXED FILES) */
     1445     2869    3            IF NOT F$DCB.FCD AND FM$FIT.CODES.NDW(I)>=7 AND
     1446     2870    3              F$DCB.ORG = %INDEXED#
     1447     2871    4            THEN DO;
     1448     2872    5               IF F$DCB.ALTKEYX~=0 THEN DO;
     1449     2873    5                  T$=PINCRW(B$ROSEG$,F$DCB.ALTKEYX);
     1450     2874    5                  L=T$->FITALTKEYS.NUMWRDS;
     1451     2875    5                  CALL FSA$FSP(L,T$);
     1452     2876    5                  F$DCB.ALTKEYX=0;
     1453     2877    5                  END;
     1454     2878    5               IF F$DCB.KFIELDX~=0 THEN DO;
     1455     2879    5                  T$=PINCRW(B$ROSEG$,F$DCB.KFIELDX);
     1456     2880    5                  L=T$->KFIELD.NWORDS;
     1457     2881    5                  CALL FSA$FSP(L,T$);
     1458     2882    5                  F$DCB.KFIELDX=0;
     1459     2883    5                  END;
     1460     2884    4               L=FM$FIT.CODES.NDW(I);
     1461     2885    4               CALL FSA$GSP(L,T$) ALTRET(IFPARERR);
     1462     2886    4               L=L*4;
     1463     2887    4               T$->MOVEL='0'B;
     1464     2888    4               L=L/4;
     1465     2889    4               T$->FITALTKEYS.NUMWRDS=L;
     1466     2890    4               F$DCB.ALTKEYX=POFFW(T$,B$ROSEG$);
     1467     2891    4               T$->FITALTKEYS.NUMENTS=MINIMUM((L-1)/SIZEW(FITALTKEYS.K(0)),
     1468     2892    4                 FITALTKEYS.NUMENTS);
     1469     2893    5               DO L=0 TO T$->FITALTKEYS.NUMENTS-1;
     1470     2894    5                  T$->FITALTKEYS.K.KEYX(L)=FITALTKEYS.K.KEYX(L);
     1471     2895    5                  T$->FITALTKEYS.K.KEYL(L)=FITALTKEYS.K.KEYL(L);
     1472     2896    5                  T$->FITALTKEYS.K.UNIQUE(L)=FITALTKEYS.K.UNIQUE(L);
     1473     2897    5                  END;
     1474     2898    4               END;
     1475     2899                    /**/
PL6.E3A0      #002=FMM$IFPARAM File=FMM$OPN.:E05TSI                              TUE 07/29/97 16:52 Page:230
     1476     2900    3         CASE(16); /* FORM NAME */
     1477     2901    4            IF NOT F$DCB.FCD THEN DO;
     1478     2902    4               IF F$DCB.FORM$=ADDR(NIL)
     1479     2903    4               THEN CALL FSA$GSP(SIZEW(CODE16),F$DCB.FORM$)ALTRET(IFPARERR);
     1480     2904    4               F$DCB.FORM$->CODE16=CODE16;
     1481     2905    4               END;
     1482     2906                    /**/
     1483     2907    3         CASE(9); /* ACCOUNT LIST */
     1484     2908    3            F$DCB.AMFLG.ACCF='0'B;
     1485     2909    3            IF FPT.ACCESS_=ADDR(NIL) THEN FPT.ACCESS_=B$PS$(IFPARAMX);
     1486     2910                    /**/
     1487     2911    3         CASE(10); /* ACCESS VEHICLES */
     1488     2912    3            F$DCB.AMFLG.ACSF='0'B;
     1489     2913    3            IF FPT.ACSVEH_=ADDR(NIL) THEN FPT.ACSVEH_=B$PS$(IFPARAMX);
     1490     2914                    /**/
     1491     2915    3         CASE(11); /* USER ATTRIBUTES */
     1492     2916    3            F$DCB.AMFLG.USRF='0'B;
     1493     2917    3            IF FPT.UATTR_=ADDR(NIL) THEN FPT.UATTR_=B$PS$(IFPARAMX);
     1494     2918                    /**/
     1495     2919    3         CASE(12); /* INSTALLATION ATTRIBUTES */
     1496     2920    3            F$DCB.AMFLG.INSF='0'B;
     1497     2921    3            IF FPT.INSTATTR_=ADDR(NIL) THEN FPT.INSTATTR_=B$PS$(IFPARAMX);
     1498     2922                    /**/
     1499     2923    3         CASE(13); /* PROCESSOR ATTRIBUTES */
     1500     2924    3            F$DCB.AMFLG.PROF='0'B;
     1501     2925    3            IF FPT.PROCATTR_=ADDR(NIL) THEN FPT.PROCATTR_=B$PS$(IFPARAMX);
     1502     2926                    /**/
     1503     2927                    /**/
     1504     2928    3         CASE(17); /* FPRG */
     1505     2929    4            IF NOT F$DCB.FCD THEN DO;
     1506     2930    5               IF F$DCB.FPRGX=0 THEN DO;
     1507     2931    5                  CALL FSA$GSP(SIZEW(VLP$FPRG),T$) ALTRET(IFPARERR);
     1508     2932    5                  F$DCB.FPRGX=POFFW(T$,B$ROSEG$);
     1509     2933    5                  END;
     1510     2934    4               ELSE T$=PINCRW(B$ROSEG$,F$DCB.FPRGX);
     1511     2935    4               T$->VLP$FPRG=VLP$FPRG;
     1512     2936    4               END;
PL6.E3A0      #002=FMM$IFPARAM File=FMM$OPN.:E05TSI                              TUE 07/29/97 16:52 Page:231
     1513     2937                    /* */
     1514     2938    3         CASE(18); /* Physical field data */
     1515     2939    4            IF NOT F$DCB.FCD THEN DO;
     1516     2940    5               IF F$DCB.FIELDX~=0 THEN DO;
     1517     2941    5                  FIELD$=PINCRW(B$ROSEG$, F$DCB.FIELDX);
     1518     2942    5                  L=(FIELD$->CODE18.NFIELDS+1)/2 + 1;
     1519     2943    5                  CALL FSA$FSP(L, FIELD$);
     1520     2944    5                  F$DCB.FIELDX=0;
     1521     2945    5                  END;
     1522     2946
     1523     2947    5               IF F$DCB.STARTX~=0 THEN DO;
     1524     2948    5                  T$=PINCRW(B$ROSEG$,F$DCB.STARTX);
     1525     2949    5                  L=T$->FM$FIELD_START.NWORDS;
     1526     2950    5                  CALL FSA$FSP(L,T$);
     1527     2951    5                  F$DCB.STARTX=0;
     1528     2952    5                  END;
     1529     2953
     1530     2954    4               L=FM$FIT.CODES.NDW(I);
     1531     2955    4               CALL FSA$GSP(L, FIELD$) ALTRET(IFPARERR);
     1532     2956    4               L=L*4;
     1533     2957    4               FIELD$->MOVEL='0'B;
     1534     2958    4               F$DCB.FIELDX=POFFW(FIELD$, B$ROSEG$);
     1535     2959
     1536     2960    4               FIELD$->MOVEL=TEMP$->MOVEL;
     1537     2961    4               IF FIELD$->CODE18.NFIELDS > (L-4)/2 THEN
     1538     2962    4               FIELD$->CODE18.NFIELDS=(L-4)/2;
     1539     2963                    /* Set F$DCB.STARTX and FM$FIELD_START later, so we can
     1540     2964                       give better errors and not do it several times.    */
     1541     2965    4               END;
     1542     2966                    /**/
     1543     2967    3         CASE(19); /* IREL key data */
     1544     2968    4            IF NOT F$DCB.FCD THEN DO;
     1545     2969    5               IF F$DCB.ALTKEYX~=0 THEN DO;
     1546     2970    5                  T$=PINCRW(B$ROSEG$,F$DCB.ALTKEYX);
     1547     2971    5                  L=T$->FITALTKEYS.NUMWRDS;
     1548     2972    5                  CALL FSA$FSP(L,T$);
     1549     2973    5                  F$DCB.ALTKEYX=0;
PL6.E3A0      #002=FMM$IFPARAM File=FMM$OPN.:E05TSI                              TUE 07/29/97 16:52 Page:232
     1550     2974    5                  END;
     1551     2975    5               IF F$DCB.KFIELDX~=0 THEN DO;
     1552     2976    5                  T$=PINCRW(B$ROSEG$,F$DCB.KFIELDX);
     1553     2977    5                  L=T$->KFIELD.NWORDS;
     1554     2978    5                  CALL FSA$FSP(L,T$);
     1555     2979    5                  F$DCB.KFIELDX=0;
     1556     2980    5                  END;
     1557     2981    4               CALL FMG$IRSETUP(CODE19) ALTRET(IFPARERR);
     1558     2982    4               END;
     1559     2983                    /**/
     1560     2984    3         CASE(21); /* Logical field data */
     1561     2985    4            IF NOT F$DCB.FCD THEN DO;
     1562     2986    5               IF F$DCB.IRRECX ~= 0 THEN DO;
     1563     2987    5                  T$=PINCRW(B$ROSEG$,F$DCB.IRRECX);
     1564     2988    5                  L=(T$->CODE21.NFIELDS+3)/4 + 1;
     1565     2989    5                  CALL FSA$FSP(L,T$);
     1566     2990    5                  F$DCB.IRRECX=0;
     1567     2991    5                  END;
     1568     2992    4               L=FM$FIT.CODES.NDW(I);
     1569     2993    4               CALL FSA$GSP(L,T$) ALTRET(IFPARERR);
     1570     2994    4               L=L*4;
     1571     2995    4               T$->MOVEL='0'B;
     1572     2996    4               F$DCB.IRRECX=POFFW(T$,B$ROSEG$);
     1573     2997    4               T$->MOVEL=TEMP$->MOVEL;
     1574     2998    4               IF T$->CODE21.NFIELDS > L-4 THEN
     1575     2999    4               T$->CODE21.NFIELDS=L-4;
     1576     3000    4               END;
     1577     3001                    /**/
     1578     3002    3         CASE(ELSE);
     1579     3003    3         END;  /* DO CASE(FM$FIT.CODES.CODE(I)) */
     1580     3004    2         END;  /* DO I=1 TO J */
     1581     3005    1      RETURN;
     1582     3006    1   FMME$BADVECT11:;
     1583     3007    1      B$JIT.ERR=FMM$E$BADVECT11;
     1584     3008    1   IFPARERR: ALTRETURN;
     1585     3009    1   END FMM$IFPARAM;
     1586     3010        %EOD;
PL6.E3A0      #002=FMM$IFPARAM File=FMM$OPN.:E05TSI                              TUE 07/29/97 16:52 Page:233

PL6.E3A0      #002=FMM$IFPARAM File=FMM$OPN.:E05TSI                              TUE 07/29/97 16:52 Page:234
--  Include file information  --

   UD_ERRORS_C.:E05TOU  is referenced.
   CP_6_SUBS.:E05TOU  is referenced.
   FM$MACROS.:E05TOU  is referenced.
   F$DCB.:E05TOU  is referenced.
   FM_FIELD_C.:E05TOU  is referenced.
   KI_CP6.:E05TOU  is referenced.
   F$CP6P_C.:E05TOU  is referenced.
   B$JIT_C.:E05TOU  is referenced.
   F$JIT_C.:E05TOU  cannot be made into a system file and is referenced.
      No diagnostics issued in procedure FMM$IFPARAM.

   Procedure FMM$IFPARAM requires 697 words for executable code.
   Procedure FMM$IFPARAM requires 18 words of local(AUTO) storage.

PL6.E3A0      #002=FMM$IFPARAM File=FMM$OPN.:E05TSI                              TUE 07/29/97 16:52 Page:235

 Object Unit name= FMM$IFPARAM                                File name= FMM$OPN.:E05TOU
 UTS= JUL 29 '97 16:52:54.68 TUE                              Compiler= PL-6/E31         Sev=      00
 SharedLib= :SHARED_SYSTEM                                    Alt SharedLib=


    ****  Control sections  ****

 Sect   Type Bound  Init  Size OctSiz  Section name(segment info)
    0  RoData even  UTS     23     27  FMM$IFPARAM
    1   Proc  even  none   697   1271  FMM$IFPARAM
    2  RoData even  none    10     12  FMM$IFPARAM

    ****  Entry defs  ****

                              Check   Calling
                             calling  sequence
  Sect OctLoc Primary Altret sequence   type   Parms  Name
     1      0   yes    yes     yes      Std        1  FMM$IFPARAM

  ****  Entry refs  ****

         Check        Calling
        calling       sequence
Altret sequence SRef   type   Args  Name
         yes           Std       2 HFF$DSIZ
 yes     yes           Std       2 FSA$FSP
 yes     yes           Std       2 FSA$GSP
 yes     yes           Std       1 FMG$IRSETUP
                       nStd      0 X66_AUTO_1
                       Std       0 B_CONSPOOL_D
                       nStd      0 X66_ARET
                       nStd      0 X66_AALT
PL6.E3A0      #002=FMM$IFPARAM File=FMM$OPN.:E05TSI                              TUE 07/29/97 16:52 Page:236

  ****  Data refs  ****

  Flags:  r = read only, s = secondary
Flgs Name                             Flgs Name                             Flgs Name
r    B$JIT$                           r    B$ROSEG$                         r    B$PS$
     B_VECTNIL

  ****  Segment refs  ****

  Flags:  r = read only, s = secondary
Flgs Name                             Flgs Name                             Flgs Name
     ISSID
PL6.E3A0      #002=FMM$IFPARAM File=FMM$OPN.:E05TSI                              TUE 07/29/97 16:52 Page:237


     1306        1        /*T***********************************************************/
     1307        2        /*T*                                                         */
     1308        3        /*T* Copyright (c) Bull HN Information Systems Inc., 1997    */
     1309        4        /*T*                                                         */
     1310        5        /*T***********************************************************/
     1311        6                    /*F*
     1312        7                    *     NAME:   FMM$IFPARAM
     1313        8                    *     PURPOSE:  MERGE THE NECESSARY ITEMS FROM THE IFPARAM
     1314        9                    *               RECORD INTO THE DCB AND SET THE CORRESPONDING
     1315       10                    *               POINTERS INTO THE VALID IFPARAM AREAS.
     1316       11                    *
     1317       12                    *     CALL:   CALL FMM$IFPARAM(PN$);
     1318       13                    *
     1319       14                    *     DESCRIPTION:  FMM$IFPARAM TAKES APART THE PARAMETERS IN
     1320       15                    *             THE INPUT FIT RECORD AND MERGES THEM INTO THE DCB
     1321       16                    *             OR SETS THE OPEN POINTER TO THE IFPARAM AREA
     1322       17                    *             DESCRIBING THE FILE ATTRIBUTES.  NOTE THAT THE
     1323       18                    *             IFPARAM ITEMS ARE MERGED PRIOR TO THE OPEN FPT,
     1324       19                    *             AND THUS MAY BE INDIVIDUALLY OVERRIDDEN BY ITEMS
     1325       20                    *             IN THE OPEN FPT ITSELF (E.G. AN ERASE FPT VECTOR
     1326       21                    *             WILL OVERRIDE A SPECIFIC IFPARAM ITEM SUCH AS AN
     1327       22                    *             ACCOUNT ACCESS LIST).
     1328       23                    *
     1329       24                    */
     1330       25        FMM$IFPARAM:PROC(FPT) ALTRET;

     25  1 000000   000000 700200 xent  FMM$IFPARAM  TSX0  ! X66_AUTO_1
         1 000001   000022 000001                    ZERO    18,1

     1331       26                    /**/
     1332       27        %INCLUDE F$JIT_C;
     1333      457        %INCLUDE F$CP6P_C;
     1334      468        %INCLUDE KI_CP6;
     1335     1564        %INCLUDE FM_FIELD_C;
     1336     1605        %MACRO F$DCB(BASED=BASED);
     1337     1606        %INCLUDE F$DCB;
PL6.E3A0      #002=FMM$IFPARAM File=FMM$OPN.:E05TSI                              TUE 07/29/97 16:52 Page:238
     1338     1655        %MEND;
     1339     1656        %INCLUDE FM$MACROS;
     1340     2031        %F$DCB(BASED="BASED(JDCB$)");
     1341     2081        %FPT$OPEN_P(FPTN=FPT,PFMT=PTR,STCLASS=);
     1342     2087        %FM$FIT(BASED="BASED(FPT.IFPARAM_)");
     1343     2090        %CODE02(BASED="BASED(TEMP$)");
     1344     2094        %CODE03(BASED="BASED(TEMP$)");
     1345     2101        %CODE04(BASED="BASED(TEMP$)");
     1346     2109        %CODE05(BASED="BASED(TEMP$)");
     1347     2112        %CODE06(BASED="BASED(TEMP$)");
     1348     2116        %CODE07(BASED="BASED(TEMP$)");
     1349     2119        %FITALTKEYS(BASED="BASED(TEMP$)");
     1350     2125        %CODE14(BASED="BASED(TEMP$)");
     1351     2135        %CODE16(BASED="BASED(TEMP$)");
     1352     2143        %VLP_FPRG (FPTN=VLP$FPRG, STCLASS="BASED(TEMP$)");
     1353     2164        %CODE18 (BASED="BASED(TEMP$)");
     1354     2168        %CODE19 (BASED="BASED(TEMP$)");
     1355     2171        %CODE21 (BASED="BASED(TEMP$)");
     1356     2174        %FMG$KFIELD (FPTN=KFIELD,STCLASS=BASED);
     1357     2177        %FM$FIELD_START (FPTN=FM$FIELD_START,STCLASS=BASED);
     1358     2199        %INCLUDE CP_6_SUBS;
     1359     2739        %INCLUDE UD_ERRORS_C;
     1360     2781        %SUB FCG#='0615'O;
     1361     2782        %SUB MID#='15'O;
     1362     2783        %ERRCODE(NAME=FMM$E$BADVECT11,COD#=%E$BADVECT11);
     1363     2787    1   DCL IFPARMSZ(0:21)UBIN CONSTANT INIT(0,0,
     1364     2788    1   SIZEW(CODE02),
     1365     2789    1   SIZEW(CODE03),
     1366     2790    1   SIZEW(CODE04),
     1367     2791    1   SIZEW(CODE05),
     1368     2792    1   SIZEW(CODE06),
     1369     2793    1   SIZEW(CODE07),
     1370     2794    1   7,          /* For alternate keys - use min word size */
     1371     2795    1   0,0,0,0,0,
     1372     2796    1   SIZEW(CODE14),0,
     1373     2797    1   SIZEW(CODE16),
     1374     2798    1   SIZEW(VLP$FPRG),
PL6.E3A0      #002=FMM$IFPARAM File=FMM$OPN.:E05TSI                              TUE 07/29/97 16:52 Page:239
     1375     2799    1   2,          /* For physical field description - use min word size */
     1376     2800    1   2,          /* For IRKEYS - use min word size */
     1377     2801    1   5,          /* For 2nd IRKEYS - use min word size */
     1378     2802    1   2);         /* For logical field description - use min word size */
     1379     2803    1   DCL 1 MOVEL BASED,
     1380     2804    1         2 * CHAR(L);
     1381     2805                    /* AUTO FRAME */
     1382     2806    1   DCL T$ PTR;
     1383     2807    1   DCL L UBIN;
     1384     2808    1   DCL K UBIN;
     1385     2809    1   DCL J UBIN;
     1386     2810    1   DCL I UBIN;
     1387     2811    1   DCL JDCB$ PTR;
     1388     2812    1   DCL TEMP$ PTR;
     1389     2813    1   DCL FIELD$ PTR;
     1390     2814    1   DCL START$ PTR;
     1391     2815        %SUB IFPARAMX="POFFW(ADDR(FPT.IFPARAM_),ADDR(FPT.V_))";
     1392     2816                    /* SYMREFS */
     1393     2817    1   DCL B$JIT$ PTR SYMREF READONLY;
     1394     2818    1   DCL B$ROSEG$ PTR SYMREF READONLY;
     1395     2819    1   DCL B$PS$(0:0) PTR SYMREF READONLY;
     1396     2820                    /**/
     1397     2821    1   DCL FSA$FSP ENTRY(2) ALTRET;
     1398     2822    1   DCL FMG$IRSETUP ENTRY(1) ALTRET;
     1399     2823    1   DCL FSA$GSP ENTRY(2) ALTRET;
     1400     2824    1   DCL HFF$DSIZ ENTRY(2);
     1401     2825        %EJECT;
PL6.E3A0      #002=FMM$IFPARAM File=FMM$OPN.:E05TSI                              TUE 07/29/97 16:52 Page:240
     1402     2826    1      JDCB$=B$JIT.DCB$;

   2826  1 000002   000000 470400 xsym               LDP0    B$JIT$
         1 000003   000232 236100                    LDQ     154,,PR0
         1 000004   200011 756100                    STQ     JDCB$,,AUTO

     1403     2827    1      J=FM$FIT.CODES.CODE(0); /* NO. OF CONTROL WORDS */

   2827  1 000005   200003 471500                    LDP1    @FPT,,AUTO
         1 000006   100013 473500                    LDP3    11,,PR1
         1 000007   300000 236100                    LDQ     0,,PR3
         1 000010   000037 772000                    QRL     31
         1 000011   200007 756100                    STQ     J,,AUTO

     1404     2828    1      CALL HFF$DSIZ(IFPARAMX,K);

   2828  1 000012   200003 236100                    LDQ     @FPT,,AUTO
         1 000013   000022 772000                    QRL     18
         1 000014   200016 756100                    STQ     FIELD$+3,,AUTO
         1 000015   200003 236100                    LDQ     @FPT,,AUTO
         1 000016   000013 036003                    ADLQ    11,DU
         1 000017   000022 772000                    QRL     18
         1 000020   200016 136100                    SBLQ    FIELD$+3,,AUTO
         1 000021   200017 756100                    STQ     FIELD$+4,,AUTO
         1 000022   200006 633500                    EPPR3   K,,AUTO
         1 000023   200021 453500                    STP3    FIELD$+6,,AUTO
         1 000024   200017 634500                    EPPR4   FIELD$+4,,AUTO
         1 000025   200020 454500                    STP4    FIELD$+5,,AUTO
         1 000026   200020 630500                    EPPR0   FIELD$+5,,AUTO
         1 000027   000020 631400 xsym               EPPR1   B_VECTNIL+16
         1 000030   000000 701000 xent               TSX1    HFF$DSIZ
         1 000031   000000 011000                    NOP     0

     1405     2829    1      K=K/4;

   2829  1 000032   200006 236100                    LDQ     K,,AUTO
         1 000033   000002 772000                    QRL     2
PL6.E3A0      #002=FMM$IFPARAM File=FMM$OPN.:E05TSI                              TUE 07/29/97 16:52 Page:241
         1 000034   200006 756100                    STQ     K,,AUTO

     1406     2830    1      IF K<J THEN GOTO FMME$BADVECT11;

   2830  1 000035   200007 116100                    CMPQ    J,,AUTO
         1 000036   001265 602000 1                  TNC     FMME$BADVECT11

     1407     2831                    /**/
     1408     2832    2      DO I=1 TO J;

   2832  1 000037   000001 235007                    LDA     1,DL
         1 000040   200010 755100                    STA     I,,AUTO
         1 000041   001261 710000 1                  TRA     s:3004+3

     1409     2833    2         TEMP$=PINCRW(FPT.IFPARAM_,FM$FIT.CODES.ITEMX(I));

   2833  1 000042   200003 470500                    LDP0    @FPT,,AUTO
         1 000043   000013 471500                    LDP1    11,,PR0
         1 000044   200010 720100                    LXL0    I,,AUTO
         1 000045   100000 721110                    LXL1    0,X0,PR1
         1 000046   001777 361003                    ANX1    1023,DU
         1 000047   100000 633511                    EPPR3   0,X1,PR1
         1 000050   200012 453500                    STP3    TEMP$,,AUTO

     1410     2834    2         IF FM$FIT.CODES.ITEMX(I)+FM$FIT.CODES.NDW(I)>K

   2834  1 000051   100000 236110                    LDQ     0,X0,PR1
         1 000052   000012 772000                    QRL     10
         1 000053   001777 376007                    ANQ     1023,DL
         1 000054   200016 756100                    STQ     FIELD$+3,,AUTO
         1 000055   100000 236110                    LDQ     0,X0,PR1
         1 000056   001777 376007                    ANQ     1023,DL
         1 000057   200016 036100                    ADLQ    FIELD$+3,,AUTO
         1 000060   200006 116100                    CMPQ    K,,AUTO
         1 000061   000063 600000 1                  TZE     s:2834+10
         1 000062   001265 603000 1                  TRC     FMME$BADVECT11
         1 000063   000013 471500                    LDP1    11,,PR0
PL6.E3A0      #002=FMM$IFPARAM File=FMM$OPN.:E05TSI                              TUE 07/29/97 16:52 Page:242
         1 000064   100000 236110                    LDQ     0,X0,PR1
         1 000065   000037 772000                    QRL     31
         1 000066   000000 621006                    EAX1    0,QL
         1 000067   100000 236110                    LDQ     0,X0,PR1
         1 000070   001777 376007                    ANQ     1023,DL
         1 000071   000001 036011 0                  ADLQ    IFPARMSZ,X1
         1 000072   200006 116100                    CMPQ    K,,AUTO
         1 000073   000075 600000 1                  TZE     s:2837
         1 000074   001265 603000 1                  TRC     FMME$BADVECT11

     1411     2835    2           OR FM$FIT.CODES.ITEMX(I)+IFPARMSZ(FM$FIT.CODES.CODE(I))>K
     1412     2836    2         THEN GOTO FMME$BADVECT11;
     1413     2837    3         DO CASE(FM$FIT.CODES.CODE(I));

   2837  1 000075   000026 101003                    CMPX1   22,DU
         1 000076   000100 602011 1                  TNC     s:2837+3,X1
         1 000077   001256 710000 1                  TRA     s:3004
         1 000100   001256 710000 1                  TRA     s:3004
         1 000101   001256 710000 1                  TRA     s:3004
         1 000102   000126 710000 1                  TRA     s:2840
         1 000103   000164 710000 1                  TRA     s:2849
         1 000104   001256 710000 1                  TRA     s:3004
         1 000105   001256 710000 1                  TRA     s:3004
         1 000106   001256 710000 1                  TRA     s:3004
         1 000107   000254 710000 1                  TRA     s:2863
         1 000110   000266 710000 1                  TRA     s:2869
         1 000111   000534 710000 1                  TRA     s:2908
         1 000112   000554 710000 1                  TRA     s:2912
         1 000113   000574 710000 1                  TRA     s:2916
         1 000114   000614 710000 1                  TRA     s:2920
         1 000115   000634 710000 1                  TRA     s:2924
         1 000116   001256 710000 1                  TRA     s:3004
         1 000117   001256 710000 1                  TRA     s:3004
         1 000120   000506 710000 1                  TRA     s:2901
         1 000121   000654 710000 1                  TRA     s:2929
         1 000122   000715 710000 1                  TRA     s:2939
         1 000123   001062 710000 1                  TRA     s:2968
PL6.E3A0      #002=FMM$IFPARAM File=FMM$OPN.:E05TSI                              TUE 07/29/97 16:52 Page:243
         1 000124   001256 710000 1                  TRA     s:3004
         1 000125   001143 710000 1                  TRA     s:2985

     1414     2838                    /**/
     1415     2839    3         CASE(2); /* FPARAM DATA FOR KEYED FILES */

     1416     2840    3            IF CODE02.LSLIDE~=0 THEN F$DCB.LSLIDE=CODE02.LSLIDE;

   2840  1 000126   300000 236100                    LDQ     0,,PR3
         1 000127   777000 316003                    CANQ    -512,DU
         1 000130   000134 600000 1                  TZE     s:2841

   2840  1 000131   200011 474500                    LDP4    JDCB$,,AUTO
         1 000132   000022 772000                    QRL     18
         1 000133   400037 552110                    STBQ    31,'10'O,PR4

     1417     2841    3            IF CODE02.LRDL0~=0 THEN F$DCB.LRDL0=CODE02.LRDL0;

   2841  1 000134   300000 236100                    LDQ     0,,PR3
         1 000135   000777 316003                    CANQ    511,DU
         1 000136   000142 600000 1                  TZE     s:2842

   2841  1 000137   200011 471500                    LDP1    JDCB$,,AUTO
         1 000140   000022 772000                    QRL     18
         1 000141   100037 552104                    STBQ    31,'04'O,PR1

     1418     2842    3            IF CODE02.SPARE~=0 THEN F$DCB.SPARE=CODE02.SPARE;

   2842  1 000142   300000 236100                    LDQ     0,,PR3
         1 000143   777000 316007                    CANQ    -512,DL
         1 000144   000150 600000 1                  TZE     s:2843

   2842  1 000145   200011 471500                    LDP1    JDCB$,,AUTO
         1 000146   000022 736000                    QLS     18
         1 000147   100040 552140                    STBQ    32,'40'O,PR1

     1419     2843    4            IF CODE02.KEYL~=0 AND NOT F$DCB.FCD THEN DO;
PL6.E3A0      #002=FMM$IFPARAM File=FMM$OPN.:E05TSI                              TUE 07/29/97 16:52 Page:244

   2843  1 000150   300003 236100                    LDQ     3,,PR3
         1 000151   777000 316007                    CANQ    -512,DL
         1 000152   001256 600000 1                  TZE     s:3004
         1 000153   200011 471500                    LDP1    JDCB$,,AUTO
         1 000154   100031 236100                    LDQ     25,,PR1
         1 000155   020000 316007                    CANQ    8192,DL
         1 000156   001256 601000 1                  TNZ     s:3004

     1420     2844    4               F$DCB.KEYL=CODE02.KEYL;

   2844  1 000157   300003 236100                    LDQ     3,,PR3
         1 000160   100036 552110                    STBQ    30,'10'O,PR1

     1421     2845    4               F$DCB.KEYX=CODE02.KEYX;

   2845  1 000161   300003 221100                    LDX1    3,,PR3
         1 000162   100036 741100                    STX1    30,,PR1

     1422     2846    4               END;

   2846  1 000163   001256 710000 1                  TRA     s:3004

     1423     2847                    /**/
     1424     2848    3         CASE(3); /* FPARAM DATA FOR ALL FILES */

     1425     2849    4            IF NOT F$DCB.FCD THEN DO;

   2849  1 000164   200011 474500                    LDP4    JDCB$,,AUTO
         1 000165   400031 236100                    LDQ     25,,PR4
         1 000166   020000 316007                    CANQ    8192,DL
         1 000167   000220 601000 1                  TNZ     s:2857

     1426     2850    4               IF CODE03.ORG~=0 THEN F$DCB.ORG=CODE03.ORG;

   2850  1 000170   300000 236100                    LDQ     0,,PR3
         1 000171   777000 316003                    CANQ    -512,DU
PL6.E3A0      #002=FMM$IFPARAM File=FMM$OPN.:E05TSI                              TUE 07/29/97 16:52 Page:245
         1 000172   000174 600000 1                  TZE     s:2851

   2850  1 000173   400032 552140                    STBQ    26,'40'O,PR4

     1427     2851    4               IF CODE03.UGRANS~=0 THEN F$DCB.IXTNSIZE=CODE03.UGRANS;

   2851  1 000174   300000 236100                    LDQ     0,,PR3
         1 000175   000032 316000 xsym               CANQ    B_VECTNIL+26
         1 000176   000202 600000 1                  TZE     s:2852

   2851  1 000177   300000 236100                    LDQ     0,,PR3
         1 000200   000032 376000 xsym               ANQ     B_VECTNIL+26
         1 000201   400041 756100                    STQ     33,,PR4

     1428     2852    4               IF CODE03.RECL~=0 THEN F$DCB.RECL=CODE03.RECL;

   2852  1 000202   300005 721100                    LXL1    5,,PR3
         1 000203   000205 600000 1                  TZE     s:2853

   2852  1 000204   400033 441100                    SXL1    27,,PR4

     1429     2853    4               IF F$DCB.ORG=%RELATIVE#

   2853  1 000205   400032 236100                    LDQ     26,,PR4
         1 000206   777000 376003                    ANQ     -512,DU
         1 000207   005000 116003                    CMPQ    2560,DU
         1 000210   000214 601000 1                  TNZ     s:2855
         1 000211   300002 235100                    LDA     2,,PR3
         1 000212   000214 600000 1                  TZE     s:2855

     1430     2854    4                 AND CODE03.NRECS~=0 THEN F$DCB.NRECS=CODE03.NRECS;

   2854  1 000213   400042 755100                    STA     34,,PR4

     1431     2855    4               IF CODE03.COMP THEN F$DCB.COMP='1'B;

   2855  1 000214   300004 234100                    SZN     4,,PR3
PL6.E3A0      #002=FMM$IFPARAM File=FMM$OPN.:E05TSI                              TUE 07/29/97 16:52 Page:246
         1 000215   000220 605000 1                  TPL     s:2857

   2855  1 000216   000100 236007                    LDQ     64,DL
         1 000217   400031 256100                    ORSQ    25,,PR4

     1432     2856    4               END;

     1433     2857    3            IF CODE03.TYPE~=BINASC(0) THEN F$DCB.TYPE=CODE03.TYPE;

   2857  1 000220   300001 721100                    LXL1    1,,PR3
         1 000221   000040 101003                    CMPX1   32,DU
         1 000222   000224 600000 1                  TZE     s:2858

   2857  1 000223   400025 441100                    SXL1    21,,PR4

     1434     2858    3            IF CODE03.DESC THEN F$DCB.BUPM=CODE03.DESC.BUPM;

   2858  1 000224   300001 221100                    LDX1    1,,PR3
         1 000225   000234 600000 1                  TZE     s:2859

   2858  1 000226   300001 236100                    LDQ     1,,PR3
         1 000227   000400 376003                    ANQ     256,DU
         1 000230   000031 772000                    QRL     25
         1 000231   400031 676100                    ERQ     25,,PR4
         1 000232   000003 376007                    ANQ     3,DL
         1 000233   400031 656100                    ERSQ    25,,PR4

     1435     2859    3            IF CODE03.XTNSIZE~=0 THEN F$DCB.XTNSIZE=CODE03.XTNSIZE;

   2859  1 000234   300005 221100                    LDX1    5,,PR3
         1 000235   000237 600000 1                  TZE     s:2860

   2859  1 000236   400037 741100                    STX1    31,,PR4

     1436     2860    3            IF CODE03.EXPIRE~=0 THEN F$DCB.EXPIRE=CODE03.EXPIRE;

   2860  1 000237   300007 221100                    LDX1    7,,PR3
PL6.E3A0      #002=FMM$IFPARAM File=FMM$OPN.:E05TSI                              TUE 07/29/97 16:52 Page:247
         1 000240   000244 600000 1                  TZE     s:2861

   2860  1 000241   300007 236100                    LDQ     7,,PR3
         1 000242   000022 732000                    QRS     18
         1 000243   400035 756100                    STQ     29,,PR4

     1437     2861    3            IF CODE03.GHSTACS~=0 THEN F$DCB.GHSTACS=CODE03.GHSTACS;

   2861  1 000244   300004 236100                    LDQ     4,,PR3
         1 000245   017000 316003                    CANQ    7680,DU
         1 000246   001256 600000 1                  TZE     s:3004

   2861  1 000247   000011 772000                    QRL     9
         1 000250   400052 676100                    ERQ     42,,PR4
         1 000251   000017 376003                    ANQ     15,DU
         1 000252   400052 656100                    ERSQ    42,,PR4
         1 000253   001256 710000 1                  TRA     s:3004

     1438     2862    3         CASE(7); /* PASSWORD */

     1439     2863    4            IF NOT F$DCB.FCD THEN DO;

   2863  1 000254   200011 474500                    LDP4    JDCB$,,AUTO
         1 000255   400031 236100                    LDQ     25,,PR4
         1 000256   020000 316007                    CANQ    8192,DL
         1 000257   001256 601000 1                  TNZ     s:3004

     1440     2864    4               F$DCB.PASSF='1'B;

   2864  1 000260   400000 236007                    LDQ     -131072,DL
         1 000261   400031 256100                    ORSQ    25,,PR4

     1441     2865    4               F$DCB.PASS=CODE07.PASS;

   2865  1 000262   040100 100500                    MLR     fill='040'O
         1 000263   300000 000010                    ADSC9   0,,PR3                   cn=0,n=8
         1 000264   400022 000010                    ADSC9   18,,PR4                  cn=0,n=8
PL6.E3A0      #002=FMM$IFPARAM File=FMM$OPN.:E05TSI                              TUE 07/29/97 16:52 Page:248

     1442     2866    4               END;

   2866  1 000265   001256 710000 1                  TRA     s:3004

     1443     2867                    /**/
     1444     2868    3         CASE(8); /* ALTERNATE KEYS (INDEXED FILES) */

     1445     2869    3            IF NOT F$DCB.FCD AND FM$FIT.CODES.NDW(I)>=7 AND

   2869  1 000266   200011 474500                    LDP4    JDCB$,,AUTO
         1 000267   400031 236100                    LDQ     25,,PR4
         1 000270   020000 316007                    CANQ    8192,DL
         1 000271   001256 601000 1                  TNZ     s:3004
         1 000272   100000 236110                    LDQ     0,X0,PR1
         1 000273   000000 376000 2                  ANQ     0
         1 000274   016000 116007                    CMPQ    7168,DL
         1 000275   001256 602000 1                  TNC     s:3004
         1 000276   400032 236100                    LDQ     26,,PR4
         1 000277   777000 376003                    ANQ     -512,DU
         1 000300   006000 116003                    CMPQ    3072,DU
         1 000301   001256 601000 1                  TNZ     s:3004

     1446     2870    3              F$DCB.ORG = %INDEXED#
     1447     2871    4            THEN DO;

     1448     2872    5               IF F$DCB.ALTKEYX~=0 THEN DO;

   2872  1 000302   400052 722100                    LXL2    42,,PR4
         1 000303   000326 600000 1                  TZE     s:2878

     1449     2873    5                  T$=PINCRW(B$ROSEG$,F$DCB.ALTKEYX);

   2873  1 000304   000000 636012                    EAQ     0,X2
         1 000305   000000 036000 xsym               ADLQ    B$ROSEG$
         1 000306   200004 756100                    STQ     T$,,AUTO

PL6.E3A0      #002=FMM$IFPARAM File=FMM$OPN.:E05TSI                              TUE 07/29/97 16:52 Page:249
     1450     2874    5                  L=T$->FITALTKEYS.NUMWRDS;

   2874  1 000307   200004 475500                    LDP5    T$,,AUTO
         1 000310   500000 236100                    LDQ     0,,PR5
         1 000311   000033 772000                    QRL     27
         1 000312   200005 756100                    STQ     L,,AUTO

     1451     2875    5                  CALL FSA$FSP(L,T$);

   2875  1 000313   200004 636500                    EPPR6   T$,,AUTO
         1 000314   200017 456500                    STP6    FIELD$+4,,AUTO
         1 000315   200005 631500                    EPPR1   L,,AUTO
         1 000316   200016 451500                    STP1    FIELD$+3,,AUTO
         1 000317   200016 630500                    EPPR0   FIELD$+3,,AUTO
         1 000320   000020 631400 xsym               EPPR1   B_VECTNIL+16
         1 000321   000000 701000 xent               TSX1    FSA$FSP
         1 000322   000000 011000                    NOP     0

     1452     2876    5                  F$DCB.ALTKEYX=0;

   2876  1 000323   000000 220003                    LDX0    0,DU
         1 000324   200011 470500                    LDP0    JDCB$,,AUTO
         1 000325   000052 440100                    SXL0    42,,PR0

     1453     2877    5                  END;

     1454     2878    5               IF F$DCB.KFIELDX~=0 THEN DO;

   2878  1 000326   200011 470500                    LDP0    JDCB$,,AUTO
         1 000327   000056 720100                    LXL0    46,,PR0
         1 000330   000352 600000 1                  TZE     s:2884

     1455     2879    5                  T$=PINCRW(B$ROSEG$,F$DCB.KFIELDX);

   2879  1 000331   000000 636010                    EAQ     0,X0
         1 000332   000000 036000 xsym               ADLQ    B$ROSEG$
         1 000333   200004 756100                    STQ     T$,,AUTO
PL6.E3A0      #002=FMM$IFPARAM File=FMM$OPN.:E05TSI                              TUE 07/29/97 16:52 Page:250

     1456     2880    5                  L=T$->KFIELD.NWORDS;

   2880  1 000334   200004 471500                    LDP1    T$,,AUTO
         1 000335   100000 235100                    LDA     0,,PR1
         1 000336   200005 755100                    STA     L,,AUTO

     1457     2881    5                  CALL FSA$FSP(L,T$);

   2881  1 000337   200004 633500                    EPPR3   T$,,AUTO
         1 000340   200017 453500                    STP3    FIELD$+4,,AUTO
         1 000341   200005 634500                    EPPR4   L,,AUTO
         1 000342   200016 454500                    STP4    FIELD$+3,,AUTO
         1 000343   200016 630500                    EPPR0   FIELD$+3,,AUTO
         1 000344   000020 631400 xsym               EPPR1   B_VECTNIL+16
         1 000345   000000 701000 xent               TSX1    FSA$FSP
         1 000346   000000 011000                    NOP     0

     1458     2882    5                  F$DCB.KFIELDX=0;

   2882  1 000347   000000 220003                    LDX0    0,DU
         1 000350   200011 470500                    LDP0    JDCB$,,AUTO
         1 000351   000056 440100                    SXL0    46,,PR0

     1459     2883    5                  END;

     1460     2884    4               L=FM$FIT.CODES.NDW(I);

   2884  1 000352   200003 471500                    LDP1    @FPT,,AUTO
         1 000353   100013 473500                    LDP3    11,,PR1
         1 000354   200010 721100                    LXL1    I,,AUTO
         1 000355   300000 236111                    LDQ     0,X1,PR3
         1 000356   000012 772000                    QRL     10
         1 000357   001777 376007                    ANQ     1023,DL
         1 000360   200005 756100                    STQ     L,,AUTO

     1461     2885    4               CALL FSA$GSP(L,T$) ALTRET(IFPARERR);
PL6.E3A0      #002=FMM$IFPARAM File=FMM$OPN.:E05TSI                              TUE 07/29/97 16:52 Page:251

   2885  1 000361   200004 634500                    EPPR4   T$,,AUTO
         1 000362   200017 454500                    STP4    FIELD$+4,,AUTO
         1 000363   200005 633500                    EPPR3   L,,AUTO
         1 000364   200016 453500                    STP3    FIELD$+3,,AUTO
         1 000365   200016 630500                    EPPR0   FIELD$+3,,AUTO
         1 000366   000020 631400 xsym               EPPR1   B_VECTNIL+16
         1 000367   000000 701000 xent               TSX1    FSA$GSP
         1 000370   001270 702000 1                  TSX2    IFPARERR

     1462     2886    4               L=L*4;

   2886  1 000371   200005 235100                    LDA     L,,AUTO
         1 000372   000002 735000                    ALS     2
         1 000373   200005 755100                    STA     L,,AUTO

     1463     2887    4               T$->MOVEL='0'B;

   2887  1 000374   200004 470500                    LDP0    T$,,AUTO
         1 000375   000000 620005                    EAX0    0,AL
         1 000376   000140 100400                    MLR     fill='000'O
         1 000377   000002 000001 xsym               ADSC9   B_VECTNIL+2              cn=0,n=1
         1 000400   000000 000010                    ADSC9   0,,PR0                   cn=0,n=*X0

     1464     2888    4               L=L/4;

   2888  1 000401   200005 236100                    LDQ     L,,AUTO
         1 000402   000002 772000                    QRL     2
         1 000403   200005 756100                    STQ     L,,AUTO

     1465     2889    4               T$->FITALTKEYS.NUMWRDS=L;

   2889  1 000404   200004 470500                    LDP0    T$,,AUTO
         1 000405   000033 736000                    QLS     27
         1 000406   000000 552140                    STBQ    0,'40'O,PR0

     1466     2890    4               F$DCB.ALTKEYX=POFFW(T$,B$ROSEG$);
PL6.E3A0      #002=FMM$IFPARAM File=FMM$OPN.:E05TSI                              TUE 07/29/97 16:52 Page:252

   2890  1 000407   000000 235000 xsym               LDA     B$ROSEG$
         1 000410   000022 771000                    ARL     18
         1 000411   200016 755100                    STA     FIELD$+3,,AUTO
         1 000412   200004 236100                    LDQ     T$,,AUTO
         1 000413   000022 772000                    QRL     18
         1 000414   200016 136100                    SBLQ    FIELD$+3,,AUTO
         1 000415   000000 620006                    EAX0    0,QL
         1 000416   200011 470500                    LDP0    JDCB$,,AUTO
         1 000417   000052 440100                    SXL0    42,,PR0

     1467     2891    4               T$->FITALTKEYS.NUMENTS=MINIMUM((L-1)/SIZEW(FITALTKEYS.K(0)),

   2891  1 000420   200005 236100                    LDQ     L,,AUTO
         1 000421   000001 136007                    SBLQ    1,DL
         1 000422   000006 506007                    DIV     6,DL
         1 000423   200012 471500                    LDP1    TEMP$,,AUTO
         1 000424   200016 756100                    STQ     FIELD$+3,,AUTO
         1 000425   100000 236100                    LDQ     0,,PR1
         1 000426   000022 772000                    QRL     18
         1 000427   000377 376007                    ANQ     255,DL
         1 000430   200017 756100                    STQ     FIELD$+4,,AUTO
         1 000431   200016 236100                    LDQ     FIELD$+3,,AUTO
         1 000432   200017 116100                    CMPQ    FIELD$+4,,AUTO
         1 000433   000436 602000 1                  TNC     s:2891+14
         1 000434   000436 600000 1                  TZE     s:2891+14
         1 000435   200017 236100                    LDQ     FIELD$+4,,AUTO
         1 000436   200004 473500                    LDP3    T$,,AUTO
         1 000437   000022 736000                    QLS     18
         1 000440   300000 676100                    ERQ     0,,PR3
         1 000441   000377 376003                    ANQ     255,DU
         1 000442   300000 656100                    ERSQ    0,,PR3

     1468     2892    4                 FITALTKEYS.NUMENTS);
     1469     2893    5               DO L=0 TO T$->FITALTKEYS.NUMENTS-1;

   2893  1 000443   200005 450100                    STZ     L,,AUTO
PL6.E3A0      #002=FMM$IFPARAM File=FMM$OPN.:E05TSI                              TUE 07/29/97 16:52 Page:253
         1 000444   000476 710000 1                  TRA     s:2897+3

     1470     2894    5                  T$->FITALTKEYS.K.KEYX(L)=FITALTKEYS.K.KEYX(L);

   2894  1 000445   200005 236100                    LDQ     L,,AUTO
         1 000446   000006 402007                    MPY     6,DL
         1 000447   200012 470500                    LDP0    TEMP$,,AUTO
         1 000450   000003 720106                    LXL0    3,QL,PR0
         1 000451   200004 471500                    LDP1    T$,,AUTO
         1 000452   100003 440106                    SXL0    3,QL,PR1

     1471     2895    5                  T$->FITALTKEYS.K.KEYL(L)=FITALTKEYS.K.KEYL(L);

   2895  1 000453   200005 236100                    LDQ     L,,AUTO
         1 000454   000006 402007                    MPY     6,DL
         1 000455   200004 471500                    LDP1    T$,,AUTO
         1 000456   000000 620006                    EAX0    0,QL
         1 000457   000001 236106                    LDQ     1,QL,PR0
         1 000460   100001 676110                    ERQ     1,X0,PR1
         1 000461   777000 376003                    ANQ     -512,DU
         1 000462   100001 656110                    ERSQ    1,X0,PR1

     1472     2896    5                  T$->FITALTKEYS.K.UNIQUE(L)=FITALTKEYS.K.UNIQUE(L);

   2896  1 000463   200005 236100                    LDQ     L,,AUTO
         1 000464   000006 402007                    MPY     6,DL
         1 000465   200004 471500                    LDP1    T$,,AUTO
         1 000466   000000 620006                    EAX0    0,QL
         1 000467   000004 236106                    LDQ     4,QL,PR0
         1 000470   100004 676110                    ERQ     4,X0,PR1
         1 000471   000400 376003                    ANQ     256,DU
         1 000472   100004 656110                    ERSQ    4,X0,PR1

     1473     2897    5                  END;

   2897  1 000473   200005 235100                    LDA     L,,AUTO
         1 000474   000001 035007                    ADLA    1,DL
PL6.E3A0      #002=FMM$IFPARAM File=FMM$OPN.:E05TSI                              TUE 07/29/97 16:52 Page:254
         1 000475   200005 755100                    STA     L,,AUTO
         1 000476   200004 470500                    LDP0    T$,,AUTO
         1 000477   000000 236100                    LDQ     0,,PR0
         1 000500   000022 772000                    QRL     18
         1 000501   000377 376007                    ANQ     255,DL
         1 000502   200005 116100                    CMPQ    L,,AUTO
         1 000503   000505 600000 1                  TZE     s:2898
         1 000504   000445 603000 1                  TRC     s:2894

     1474     2898    4               END;

   2898  1 000505   001256 710000 1                  TRA     s:3004

     1475     2899                    /**/
     1476     2900    3         CASE(16); /* FORM NAME */

     1477     2901    4            IF NOT F$DCB.FCD THEN DO;

   2901  1 000506   200011 474500                    LDP4    JDCB$,,AUTO
         1 000507   400031 236100                    LDQ     25,,PR4
         1 000510   020000 316007                    CANQ    8192,DL
         1 000511   001256 601000 1                  TNZ     s:3004

     1478     2902    4               IF F$DCB.FORM$=ADDR(NIL)

   2902  1 000512   400050 236100                    LDQ     40,,PR4
         1 000513   000001 116000 xsym               CMPQ    B_VECTNIL+1
         1 000514   000525 601000 1                  TNZ     s:2904

     1479     2903    4               THEN CALL FSA$GSP(SIZEW(CODE16),F$DCB.FORM$)ALTRET(IFPARERR);

   2903  1 000515   200011 236100                    LDQ     JDCB$,,AUTO
         1 000516   000050 036003                    ADLQ    40,DU
         1 000517   000002 235000 2                  LDA     2
         1 000520   200016 757100                    STAQ    FIELD$+3,,AUTO
         1 000521   200016 630500                    EPPR0   FIELD$+3,,AUTO
         1 000522   000020 631400 xsym               EPPR1   B_VECTNIL+16
PL6.E3A0      #002=FMM$IFPARAM File=FMM$OPN.:E05TSI                              TUE 07/29/97 16:52 Page:255
         1 000523   000000 701000 xent               TSX1    FSA$GSP
         1 000524   001270 702000 1                  TSX2    IFPARERR

     1480     2904    4               F$DCB.FORM$->CODE16=CODE16;

   2904  1 000525   200011 470500                    LDP0    JDCB$,,AUTO
         1 000526   000050 471500                    LDP1    40,,PR0
         1 000527   200012 473500                    LDP3    TEMP$,,AUTO
         1 000530   000100 100500                    MLR     fill='000'O
         1 000531   300000 000234                    ADSC9   0,,PR3                   cn=0,n=156
         1 000532   100000 000234                    ADSC9   0,,PR1                   cn=0,n=156

     1481     2905    4               END;

   2905  1 000533   001256 710000 1                  TRA     s:3004

     1482     2906                    /**/
     1483     2907    3         CASE(9); /* ACCOUNT LIST */

     1484     2908    3            F$DCB.AMFLG.ACCF='0'B;

   2908  1 000534   200011 474500                    LDP4    JDCB$,,AUTO
         1 000535   000003 236000 2                  LDQ     3
         1 000536   400064 356100                    ANSQ    52,,PR4

     1485     2909    3            IF FPT.ACCESS_=ADDR(NIL) THEN FPT.ACCESS_=B$PS$(IFPARAMX);

   2909  1 000537   000005 236100                    LDQ     5,,PR0
         1 000540   000001 116000 xsym               CMPQ    B_VECTNIL+1
         1 000541   001256 601000 1                  TNZ     s:3004

   2909  1 000542   200003 236100                    LDQ     @FPT,,AUTO
         1 000543   000022 772000                    QRL     18
         1 000544   200016 756100                    STQ     FIELD$+3,,AUTO
         1 000545   200003 236100                    LDQ     @FPT,,AUTO
         1 000546   000013 036003                    ADLQ    11,DU
         1 000547   000022 772000                    QRL     18
PL6.E3A0      #002=FMM$IFPARAM File=FMM$OPN.:E05TSI                              TUE 07/29/97 16:52 Page:256
         1 000550   200016 136100                    SBLQ    FIELD$+3,,AUTO
         1 000551   000000 236006 xsym               LDQ     B$PS$,QL
         1 000552   000005 756100                    STQ     5,,PR0
         1 000553   001256 710000 1                  TRA     s:3004

     1486     2910                    /**/
     1487     2911    3         CASE(10); /* ACCESS VEHICLES */

     1488     2912    3            F$DCB.AMFLG.ACSF='0'B;

   2912  1 000554   200011 474500                    LDP4    JDCB$,,AUTO
         1 000555   000004 236000 2                  LDQ     4
         1 000556   400064 356100                    ANSQ    52,,PR4

     1489     2913    3            IF FPT.ACSVEH_=ADDR(NIL) THEN FPT.ACSVEH_=B$PS$(IFPARAMX);

   2913  1 000557   000006 236100                    LDQ     6,,PR0
         1 000560   000001 116000 xsym               CMPQ    B_VECTNIL+1
         1 000561   001256 601000 1                  TNZ     s:3004

   2913  1 000562   200003 236100                    LDQ     @FPT,,AUTO
         1 000563   000022 772000                    QRL     18
         1 000564   200016 756100                    STQ     FIELD$+3,,AUTO
         1 000565   200003 236100                    LDQ     @FPT,,AUTO
         1 000566   000013 036003                    ADLQ    11,DU
         1 000567   000022 772000                    QRL     18
         1 000570   200016 136100                    SBLQ    FIELD$+3,,AUTO
         1 000571   000000 236006 xsym               LDQ     B$PS$,QL
         1 000572   000006 756100                    STQ     6,,PR0
         1 000573   001256 710000 1                  TRA     s:3004

     1490     2914                    /**/
     1491     2915    3         CASE(11); /* USER ATTRIBUTES */

     1492     2916    3            F$DCB.AMFLG.USRF='0'B;

   2916  1 000574   200011 474500                    LDP4    JDCB$,,AUTO
PL6.E3A0      #002=FMM$IFPARAM File=FMM$OPN.:E05TSI                              TUE 07/29/97 16:52 Page:257
         1 000575   000005 236000 2                  LDQ     5
         1 000576   400064 356100                    ANSQ    52,,PR4

     1493     2917    3            IF FPT.UATTR_=ADDR(NIL) THEN FPT.UATTR_=B$PS$(IFPARAMX);

   2917  1 000577   000007 236100                    LDQ     7,,PR0
         1 000600   000001 116000 xsym               CMPQ    B_VECTNIL+1
         1 000601   001256 601000 1                  TNZ     s:3004

   2917  1 000602   200003 236100                    LDQ     @FPT,,AUTO
         1 000603   000022 772000                    QRL     18
         1 000604   200016 756100                    STQ     FIELD$+3,,AUTO
         1 000605   200003 236100                    LDQ     @FPT,,AUTO
         1 000606   000013 036003                    ADLQ    11,DU
         1 000607   000022 772000                    QRL     18
         1 000610   200016 136100                    SBLQ    FIELD$+3,,AUTO
         1 000611   000000 236006 xsym               LDQ     B$PS$,QL
         1 000612   000007 756100                    STQ     7,,PR0
         1 000613   001256 710000 1                  TRA     s:3004

     1494     2918                    /**/
     1495     2919    3         CASE(12); /* INSTALLATION ATTRIBUTES */

     1496     2920    3            F$DCB.AMFLG.INSF='0'B;

   2920  1 000614   200011 474500                    LDP4    JDCB$,,AUTO
         1 000615   000006 236000 2                  LDQ     6
         1 000616   400064 356100                    ANSQ    52,,PR4

     1497     2921    3            IF FPT.INSTATTR_=ADDR(NIL) THEN FPT.INSTATTR_=B$PS$(IFPARAMX);

   2921  1 000617   000010 236100                    LDQ     8,,PR0
         1 000620   000001 116000 xsym               CMPQ    B_VECTNIL+1
         1 000621   001256 601000 1                  TNZ     s:3004

   2921  1 000622   200003 236100                    LDQ     @FPT,,AUTO
         1 000623   000022 772000                    QRL     18
PL6.E3A0      #002=FMM$IFPARAM File=FMM$OPN.:E05TSI                              TUE 07/29/97 16:52 Page:258
         1 000624   200016 756100                    STQ     FIELD$+3,,AUTO
         1 000625   200003 236100                    LDQ     @FPT,,AUTO
         1 000626   000013 036003                    ADLQ    11,DU
         1 000627   000022 772000                    QRL     18
         1 000630   200016 136100                    SBLQ    FIELD$+3,,AUTO
         1 000631   000000 236006 xsym               LDQ     B$PS$,QL
         1 000632   000010 756100                    STQ     8,,PR0
         1 000633   001256 710000 1                  TRA     s:3004

     1498     2922                    /**/
     1499     2923    3         CASE(13); /* PROCESSOR ATTRIBUTES */

     1500     2924    3            F$DCB.AMFLG.PROF='0'B;

   2924  1 000634   200011 474500                    LDP4    JDCB$,,AUTO
         1 000635   000007 236000 2                  LDQ     7
         1 000636   400064 356100                    ANSQ    52,,PR4

     1501     2925    3            IF FPT.PROCATTR_=ADDR(NIL) THEN FPT.PROCATTR_=B$PS$(IFPARAMX);

   2925  1 000637   000011 236100                    LDQ     9,,PR0
         1 000640   000001 116000 xsym               CMPQ    B_VECTNIL+1
         1 000641   001256 601000 1                  TNZ     s:3004

   2925  1 000642   200003 236100                    LDQ     @FPT,,AUTO
         1 000643   000022 772000                    QRL     18
         1 000644   200016 756100                    STQ     FIELD$+3,,AUTO
         1 000645   200003 236100                    LDQ     @FPT,,AUTO
         1 000646   000013 036003                    ADLQ    11,DU
         1 000647   000022 772000                    QRL     18
         1 000650   200016 136100                    SBLQ    FIELD$+3,,AUTO
         1 000651   000000 236006 xsym               LDQ     B$PS$,QL
         1 000652   000011 756100                    STQ     9,,PR0
         1 000653   001256 710000 1                  TRA     s:3004

     1502     2926                    /**/
     1503     2927                    /**/
PL6.E3A0      #002=FMM$IFPARAM File=FMM$OPN.:E05TSI                              TUE 07/29/97 16:52 Page:259
     1504     2928    3         CASE(17); /* FPRG */

     1505     2929    4            IF NOT F$DCB.FCD THEN DO;

   2929  1 000654   200011 474500                    LDP4    JDCB$,,AUTO
         1 000655   400031 236100                    LDQ     25,,PR4
         1 000656   020000 316007                    CANQ    8192,DL
         1 000657   001256 601000 1                  TNZ     s:3004

     1506     2930    5               IF F$DCB.FPRGX=0 THEN DO;

   2930  1 000660   400054 222100                    LDX2    44,,PR4
         1 000661   000704 601000 1                  TNZ     s:2934

     1507     2931    5                  CALL FSA$GSP(SIZEW(VLP$FPRG),T$) ALTRET(IFPARERR);

   2931  1 000662   200004 635500                    EPPR5   T$,,AUTO
         1 000663   200017 455500                    STP5    FIELD$+4,,AUTO
         1 000664   000011 236000 2                  LDQ     9
         1 000665   200016 756100                    STQ     FIELD$+3,,AUTO
         1 000666   200016 630500                    EPPR0   FIELD$+3,,AUTO
         1 000667   000020 631400 xsym               EPPR1   B_VECTNIL+16
         1 000670   000000 701000 xent               TSX1    FSA$GSP
         1 000671   001270 702000 1                  TSX2    IFPARERR

     1508     2932    5                  F$DCB.FPRGX=POFFW(T$,B$ROSEG$);

   2932  1 000672   000000 235000 xsym               LDA     B$ROSEG$
         1 000673   000022 771000                    ARL     18
         1 000674   200016 755100                    STA     FIELD$+3,,AUTO
         1 000675   200004 236100                    LDQ     T$,,AUTO
         1 000676   000022 772000                    QRL     18
         1 000677   200016 136100                    SBLQ    FIELD$+3,,AUTO
         1 000700   000000 620006                    EAX0    0,QL
         1 000701   200011 470500                    LDP0    JDCB$,,AUTO
         1 000702   000054 740100                    STX0    44,,PR0

PL6.E3A0      #002=FMM$IFPARAM File=FMM$OPN.:E05TSI                              TUE 07/29/97 16:52 Page:260
     1509     2933    5                  END;

   2933  1 000703   000707 710000 1                  TRA     s:2935

     1510     2934    4               ELSE T$=PINCRW(B$ROSEG$,F$DCB.FPRGX);

   2934  1 000704   000000 636012                    EAQ     0,X2
         1 000705   000000 036000 xsym               ADLQ    B$ROSEG$
         1 000706   200004 756100                    STQ     T$,,AUTO

     1511     2935    4               T$->VLP$FPRG=VLP$FPRG;

   2935  1 000707   200012 470500                    LDP0    TEMP$,,AUTO
         1 000710   200004 471500                    LDP1    T$,,AUTO
         1 000711   000100 100500                    MLR     fill='000'O
         1 000712   000000 000104                    ADSC9   0,,PR0                   cn=0,n=68
         1 000713   100000 000104                    ADSC9   0,,PR1                   cn=0,n=68

     1512     2936    4               END;

   2936  1 000714   001256 710000 1                  TRA     s:3004

     1513     2937                    /* */
     1514     2938    3         CASE(18); /* Physical field data */

     1515     2939    4            IF NOT F$DCB.FCD THEN DO;

   2939  1 000715   200011 474500                    LDP4    JDCB$,,AUTO
         1 000716   400031 236100                    LDQ     25,,PR4
         1 000717   020000 316007                    CANQ    8192,DL
         1 000720   001256 601000 1                  TNZ     s:3004

     1516     2940    5               IF F$DCB.FIELDX~=0 THEN DO;

   2940  1 000721   400054 722100                    LXL2    44,,PR4
         1 000722   000750 600000 1                  TZE     s:2947

PL6.E3A0      #002=FMM$IFPARAM File=FMM$OPN.:E05TSI                              TUE 07/29/97 16:52 Page:261
     1517     2941    5                  FIELD$=PINCRW(B$ROSEG$, F$DCB.FIELDX);

   2941  1 000723   000000 636012                    EAQ     0,X2
         1 000724   000000 036000 xsym               ADLQ    B$ROSEG$
         1 000725   200013 756100                    STQ     FIELD$,,AUTO

     1518     2942    5                  L=(FIELD$->CODE18.NFIELDS+1)/2 + 1;

   2942  1 000726   200013 471500                    LDP1    FIELD$,,AUTO
         1 000727   100000 236100                    LDQ     0,,PR1
         1 000730   000032 376000 xsym               ANQ     B_VECTNIL+26
         1 000731   000001 036007                    ADLQ    1,DL
         1 000732   000001 772000                    QRL     1
         1 000733   000001 036007                    ADLQ    1,DL
         1 000734   200005 756100                    STQ     L,,AUTO

     1519     2943    5                  CALL FSA$FSP(L, FIELD$);

   2943  1 000735   200013 635500                    EPPR5   FIELD$,,AUTO
         1 000736   200017 455500                    STP5    FIELD$+4,,AUTO
         1 000737   200005 636500                    EPPR6   L,,AUTO
         1 000740   200016 456500                    STP6    FIELD$+3,,AUTO
         1 000741   200016 630500                    EPPR0   FIELD$+3,,AUTO
         1 000742   000020 631400 xsym               EPPR1   B_VECTNIL+16
         1 000743   000000 701000 xent               TSX1    FSA$FSP
         1 000744   000000 011000                    NOP     0

     1520     2944    5                  F$DCB.FIELDX=0;

   2944  1 000745   000000 220003                    LDX0    0,DU
         1 000746   200011 470500                    LDP0    JDCB$,,AUTO
         1 000747   000054 440100                    SXL0    44,,PR0

     1521     2945    5                  END;

     1522     2946
     1523     2947    5               IF F$DCB.STARTX~=0 THEN DO;
PL6.E3A0      #002=FMM$IFPARAM File=FMM$OPN.:E05TSI                              TUE 07/29/97 16:52 Page:262

   2947  1 000750   200011 470500                    LDP0    JDCB$,,AUTO
         1 000751   000057 220100                    LDX0    47,,PR0
         1 000752   000774 600000 1                  TZE     s:2954

     1524     2948    5                  T$=PINCRW(B$ROSEG$,F$DCB.STARTX);

   2948  1 000753   000000 636010                    EAQ     0,X0
         1 000754   000000 036000 xsym               ADLQ    B$ROSEG$
         1 000755   200004 756100                    STQ     T$,,AUTO

     1525     2949    5                  L=T$->FM$FIELD_START.NWORDS;

   2949  1 000756   200004 471500                    LDP1    T$,,AUTO
         1 000757   100000 235100                    LDA     0,,PR1
         1 000760   200005 755100                    STA     L,,AUTO

     1526     2950    5                  CALL FSA$FSP(L,T$);

   2950  1 000761   200004 633500                    EPPR3   T$,,AUTO
         1 000762   200017 453500                    STP3    FIELD$+4,,AUTO
         1 000763   200005 634500                    EPPR4   L,,AUTO
         1 000764   200016 454500                    STP4    FIELD$+3,,AUTO
         1 000765   200016 630500                    EPPR0   FIELD$+3,,AUTO
         1 000766   000020 631400 xsym               EPPR1   B_VECTNIL+16
         1 000767   000000 701000 xent               TSX1    FSA$FSP
         1 000770   000000 011000                    NOP     0

     1527     2951    5                  F$DCB.STARTX=0;

   2951  1 000771   000000 220003                    LDX0    0,DU
         1 000772   200011 470500                    LDP0    JDCB$,,AUTO
         1 000773   000057 740100                    STX0    47,,PR0

     1528     2952    5                  END;

     1529     2953
PL6.E3A0      #002=FMM$IFPARAM File=FMM$OPN.:E05TSI                              TUE 07/29/97 16:52 Page:263
     1530     2954    4               L=FM$FIT.CODES.NDW(I);

   2954  1 000774   200003 471500                    LDP1    @FPT,,AUTO
         1 000775   100013 473500                    LDP3    11,,PR1
         1 000776   200010 721100                    LXL1    I,,AUTO
         1 000777   300000 236111                    LDQ     0,X1,PR3
         1 001000   000012 772000                    QRL     10
         1 001001   001777 376007                    ANQ     1023,DL
         1 001002   200005 756100                    STQ     L,,AUTO

     1531     2955    4               CALL FSA$GSP(L, FIELD$) ALTRET(IFPARERR);

   2955  1 001003   200013 634500                    EPPR4   FIELD$,,AUTO
         1 001004   200017 454500                    STP4    FIELD$+4,,AUTO
         1 001005   200005 633500                    EPPR3   L,,AUTO
         1 001006   200016 453500                    STP3    FIELD$+3,,AUTO
         1 001007   200016 630500                    EPPR0   FIELD$+3,,AUTO
         1 001010   000020 631400 xsym               EPPR1   B_VECTNIL+16
         1 001011   000000 701000 xent               TSX1    FSA$GSP
         1 001012   001270 702000 1                  TSX2    IFPARERR

     1532     2956    4               L=L*4;

   2956  1 001013   200005 235100                    LDA     L,,AUTO
         1 001014   000002 735000                    ALS     2
         1 001015   200005 755100                    STA     L,,AUTO

     1533     2957    4               FIELD$->MOVEL='0'B;

   2957  1 001016   200013 470500                    LDP0    FIELD$,,AUTO
         1 001017   000000 620005                    EAX0    0,AL
         1 001020   000140 100400                    MLR     fill='000'O
         1 001021   000002 000001 xsym               ADSC9   B_VECTNIL+2              cn=0,n=1
         1 001022   000000 000010                    ADSC9   0,,PR0                   cn=0,n=*X0

     1534     2958    4               F$DCB.FIELDX=POFFW(FIELD$, B$ROSEG$);

PL6.E3A0      #002=FMM$IFPARAM File=FMM$OPN.:E05TSI                              TUE 07/29/97 16:52 Page:264
   2958  1 001023   000000 235000 xsym               LDA     B$ROSEG$
         1 001024   000022 771000                    ARL     18
         1 001025   200016 755100                    STA     FIELD$+3,,AUTO
         1 001026   200013 236100                    LDQ     FIELD$,,AUTO
         1 001027   000022 772000                    QRL     18
         1 001030   200016 136100                    SBLQ    FIELD$+3,,AUTO
         1 001031   000000 620006                    EAX0    0,QL
         1 001032   200011 470500                    LDP0    JDCB$,,AUTO
         1 001033   000054 440100                    SXL0    44,,PR0

     1535     2959
     1536     2960    4               FIELD$->MOVEL=TEMP$->MOVEL;

   2960  1 001034   200012 471500                    LDP1    TEMP$,,AUTO
         1 001035   200005 721100                    LXL1    L,,AUTO
         1 001036   200013 473500                    LDP3    FIELD$,,AUTO
         1 001037   000140 100540                    MLR     fill='000'O
         1 001040   100000 000011                    ADSC9   0,,PR1                   cn=0,n=*X1
         1 001041   300000 000011                    ADSC9   0,,PR3                   cn=0,n=*X1

     1537     2961    4               IF FIELD$->CODE18.NFIELDS > (L-4)/2 THEN

   2961  1 001042   200005 236100                    LDQ     L,,AUTO
         1 001043   000004 136007                    SBLQ    4,DL
         1 001044   000002 506007                    DIV     2,DL
         1 001045   200013 473500                    LDP3    FIELD$,,AUTO
         1 001046   200016 756100                    STQ     FIELD$+3,,AUTO
         1 001047   300000 236100                    LDQ     0,,PR3
         1 001050   000032 376000 xsym               ANQ     B_VECTNIL+26
         1 001051   200017 756100                    STQ     FIELD$+4,,AUTO
         1 001052   200016 236100                    LDQ     FIELD$+3,,AUTO
         1 001053   200017 116100                    CMPQ    FIELD$+4,,AUTO
         1 001054   001256 603000 1                  TRC     s:3004

     1538     2962    4               FIELD$->CODE18.NFIELDS=(L-4)/2;

   2962  1 001055   200005 236100                    LDQ     L,,AUTO
PL6.E3A0      #002=FMM$IFPARAM File=FMM$OPN.:E05TSI                              TUE 07/29/97 16:52 Page:265
         1 001056   000004 136007                    SBLQ    4,DL
         1 001057   000002 506007                    DIV     2,DL
         1 001060   300000 552134                    STBQ    0,'34'O,PR3

     1539     2963                    /* Set F$DCB.STARTX and FM$FIELD_START later, so we can
     1540     2964                       give better errors and not do it several times.    */
     1541     2965    4               END;

   2965  1 001061   001256 710000 1                  TRA     s:3004

     1542     2966                    /**/
     1543     2967    3         CASE(19); /* IREL key data */

     1544     2968    4            IF NOT F$DCB.FCD THEN DO;

   2968  1 001062   200011 474500                    LDP4    JDCB$,,AUTO
         1 001063   400031 236100                    LDQ     25,,PR4
         1 001064   020000 316007                    CANQ    8192,DL
         1 001065   001256 601000 1                  TNZ     s:3004

     1545     2969    5               IF F$DCB.ALTKEYX~=0 THEN DO;

   2969  1 001066   400052 722100                    LXL2    42,,PR4
         1 001067   001112 600000 1                  TZE     s:2975

     1546     2970    5                  T$=PINCRW(B$ROSEG$,F$DCB.ALTKEYX);

   2970  1 001070   000000 636012                    EAQ     0,X2
         1 001071   000000 036000 xsym               ADLQ    B$ROSEG$
         1 001072   200004 756100                    STQ     T$,,AUTO

     1547     2971    5                  L=T$->FITALTKEYS.NUMWRDS;

   2971  1 001073   200004 475500                    LDP5    T$,,AUTO
         1 001074   500000 236100                    LDQ     0,,PR5
         1 001075   000033 772000                    QRL     27
         1 001076   200005 756100                    STQ     L,,AUTO
PL6.E3A0      #002=FMM$IFPARAM File=FMM$OPN.:E05TSI                              TUE 07/29/97 16:52 Page:266

     1548     2972    5                  CALL FSA$FSP(L,T$);

   2972  1 001077   200004 636500                    EPPR6   T$,,AUTO
         1 001100   200017 456500                    STP6    FIELD$+4,,AUTO
         1 001101   200005 631500                    EPPR1   L,,AUTO
         1 001102   200016 451500                    STP1    FIELD$+3,,AUTO
         1 001103   200016 630500                    EPPR0   FIELD$+3,,AUTO
         1 001104   000020 631400 xsym               EPPR1   B_VECTNIL+16
         1 001105   000000 701000 xent               TSX1    FSA$FSP
         1 001106   000000 011000                    NOP     0

     1549     2973    5                  F$DCB.ALTKEYX=0;

   2973  1 001107   000000 220003                    LDX0    0,DU
         1 001110   200011 470500                    LDP0    JDCB$,,AUTO
         1 001111   000052 440100                    SXL0    42,,PR0

     1550     2974    5                  END;

     1551     2975    5               IF F$DCB.KFIELDX~=0 THEN DO;

   2975  1 001112   200011 470500                    LDP0    JDCB$,,AUTO
         1 001113   000056 720100                    LXL0    46,,PR0
         1 001114   001136 600000 1                  TZE     s:2981

     1552     2976    5                  T$=PINCRW(B$ROSEG$,F$DCB.KFIELDX);

   2976  1 001115   000000 636010                    EAQ     0,X0
         1 001116   000000 036000 xsym               ADLQ    B$ROSEG$
         1 001117   200004 756100                    STQ     T$,,AUTO

     1553     2977    5                  L=T$->KFIELD.NWORDS;

   2977  1 001120   200004 471500                    LDP1    T$,,AUTO
         1 001121   100000 235100                    LDA     0,,PR1
         1 001122   200005 755100                    STA     L,,AUTO
PL6.E3A0      #002=FMM$IFPARAM File=FMM$OPN.:E05TSI                              TUE 07/29/97 16:52 Page:267

     1554     2978    5                  CALL FSA$FSP(L,T$);

   2978  1 001123   200004 633500                    EPPR3   T$,,AUTO
         1 001124   200017 453500                    STP3    FIELD$+4,,AUTO
         1 001125   200005 634500                    EPPR4   L,,AUTO
         1 001126   200016 454500                    STP4    FIELD$+3,,AUTO
         1 001127   200016 630500                    EPPR0   FIELD$+3,,AUTO
         1 001130   000020 631400 xsym               EPPR1   B_VECTNIL+16
         1 001131   000000 701000 xent               TSX1    FSA$FSP
         1 001132   000000 011000                    NOP     0

     1555     2979    5                  F$DCB.KFIELDX=0;

   2979  1 001133   000000 220003                    LDX0    0,DU
         1 001134   200011 470500                    LDP0    JDCB$,,AUTO
         1 001135   000056 440100                    SXL0    46,,PR0

     1556     2980    5                  END;

     1557     2981    4               CALL FMG$IRSETUP(CODE19) ALTRET(IFPARERR);

   2981  1 001136   200012 630500                    EPPR0   TEMP$,,AUTO
         1 001137   000017 631400 xsym               EPPR1   B_VECTNIL+15
         1 001140   000000 701000 xent               TSX1    FMG$IRSETUP
         1 001141   001270 702000 1                  TSX2    IFPARERR

     1558     2982    4               END;

   2982  1 001142   001256 710000 1                  TRA     s:3004

     1559     2983                    /**/
     1560     2984    3         CASE(21); /* Logical field data */

     1561     2985    4            IF NOT F$DCB.FCD THEN DO;

   2985  1 001143   200011 474500                    LDP4    JDCB$,,AUTO
PL6.E3A0      #002=FMM$IFPARAM File=FMM$OPN.:E05TSI                              TUE 07/29/97 16:52 Page:268
         1 001144   400031 236100                    LDQ     25,,PR4
         1 001145   020000 316007                    CANQ    8192,DL
         1 001146   001256 601000 1                  TNZ     s:3004

     1562     2986    5               IF F$DCB.IRRECX ~= 0 THEN DO;

   2986  1 001147   400061 222100                    LDX2    49,,PR4
         1 001150   001176 600000 1                  TZE     s:2992

     1563     2987    5                  T$=PINCRW(B$ROSEG$,F$DCB.IRRECX);

   2987  1 001151   000000 636012                    EAQ     0,X2
         1 001152   000000 036000 xsym               ADLQ    B$ROSEG$
         1 001153   200004 756100                    STQ     T$,,AUTO

     1564     2988    5                  L=(T$->CODE21.NFIELDS+3)/4 + 1;

   2988  1 001154   200004 475500                    LDP5    T$,,AUTO
         1 001155   500000 236100                    LDQ     0,,PR5
         1 001156   000032 376000 xsym               ANQ     B_VECTNIL+26
         1 001157   000003 036007                    ADLQ    3,DL
         1 001160   000002 772000                    QRL     2
         1 001161   000001 036007                    ADLQ    1,DL
         1 001162   200005 756100                    STQ     L,,AUTO

     1565     2989    5                  CALL FSA$FSP(L,T$);

   2989  1 001163   200004 636500                    EPPR6   T$,,AUTO
         1 001164   200017 456500                    STP6    FIELD$+4,,AUTO
         1 001165   200005 631500                    EPPR1   L,,AUTO
         1 001166   200016 451500                    STP1    FIELD$+3,,AUTO
         1 001167   200016 630500                    EPPR0   FIELD$+3,,AUTO
         1 001170   000020 631400 xsym               EPPR1   B_VECTNIL+16
         1 001171   000000 701000 xent               TSX1    FSA$FSP
         1 001172   000000 011000                    NOP     0

     1566     2990    5                  F$DCB.IRRECX=0;
PL6.E3A0      #002=FMM$IFPARAM File=FMM$OPN.:E05TSI                              TUE 07/29/97 16:52 Page:269

   2990  1 001173   000000 220003                    LDX0    0,DU
         1 001174   200011 470500                    LDP0    JDCB$,,AUTO
         1 001175   000061 740100                    STX0    49,,PR0

     1567     2991    5                  END;

     1568     2992    4               L=FM$FIT.CODES.NDW(I);

   2992  1 001176   200003 470500                    LDP0    @FPT,,AUTO
         1 001177   000013 471500                    LDP1    11,,PR0
         1 001200   200010 720100                    LXL0    I,,AUTO
         1 001201   100000 236110                    LDQ     0,X0,PR1
         1 001202   000012 772000                    QRL     10
         1 001203   001777 376007                    ANQ     1023,DL
         1 001204   200005 756100                    STQ     L,,AUTO

     1569     2993    4               CALL FSA$GSP(L,T$) ALTRET(IFPARERR);

   2993  1 001205   200004 633500                    EPPR3   T$,,AUTO
         1 001206   200017 453500                    STP3    FIELD$+4,,AUTO
         1 001207   200005 631500                    EPPR1   L,,AUTO
         1 001210   200016 451500                    STP1    FIELD$+3,,AUTO
         1 001211   200016 630500                    EPPR0   FIELD$+3,,AUTO
         1 001212   000020 631400 xsym               EPPR1   B_VECTNIL+16
         1 001213   000000 701000 xent               TSX1    FSA$GSP
         1 001214   001270 702000 1                  TSX2    IFPARERR

     1570     2994    4               L=L*4;

   2994  1 001215   200005 235100                    LDA     L,,AUTO
         1 001216   000002 735000                    ALS     2
         1 001217   200005 755100                    STA     L,,AUTO

     1571     2995    4               T$->MOVEL='0'B;

   2995  1 001220   200004 470500                    LDP0    T$,,AUTO
PL6.E3A0      #002=FMM$IFPARAM File=FMM$OPN.:E05TSI                              TUE 07/29/97 16:52 Page:270
         1 001221   000000 620005                    EAX0    0,AL
         1 001222   000140 100400                    MLR     fill='000'O
         1 001223   000002 000001 xsym               ADSC9   B_VECTNIL+2              cn=0,n=1
         1 001224   000000 000010                    ADSC9   0,,PR0                   cn=0,n=*X0

     1572     2996    4               F$DCB.IRRECX=POFFW(T$,B$ROSEG$);

   2996  1 001225   000000 235000 xsym               LDA     B$ROSEG$
         1 001226   000022 771000                    ARL     18
         1 001227   200016 755100                    STA     FIELD$+3,,AUTO
         1 001230   200004 236100                    LDQ     T$,,AUTO
         1 001231   000022 772000                    QRL     18
         1 001232   200016 136100                    SBLQ    FIELD$+3,,AUTO
         1 001233   000000 620006                    EAX0    0,QL
         1 001234   200011 470500                    LDP0    JDCB$,,AUTO
         1 001235   000061 740100                    STX0    49,,PR0

     1573     2997    4               T$->MOVEL=TEMP$->MOVEL;

   2997  1 001236   200012 471500                    LDP1    TEMP$,,AUTO
         1 001237   200005 721100                    LXL1    L,,AUTO
         1 001240   200004 473500                    LDP3    T$,,AUTO
         1 001241   000140 100540                    MLR     fill='000'O
         1 001242   100000 000011                    ADSC9   0,,PR1                   cn=0,n=*X1
         1 001243   300000 000011                    ADSC9   0,,PR3                   cn=0,n=*X1

     1574     2998    4               IF T$->CODE21.NFIELDS > L-4 THEN

   2998  1 001244   200004 473500                    LDP3    T$,,AUTO
         1 001245   300000 236100                    LDQ     0,,PR3
         1 001246   000032 376000 xsym               ANQ     B_VECTNIL+26
         1 001247   200016 756100                    STQ     FIELD$+3,,AUTO
         1 001250   200005 236100                    LDQ     L,,AUTO
         1 001251   000004 136007                    SBLQ    4,DL
         1 001252   200016 116100                    CMPQ    FIELD$+3,,AUTO
         1 001253   001256 605000 1                  TPL     s:3004

PL6.E3A0      #002=FMM$IFPARAM File=FMM$OPN.:E05TSI                              TUE 07/29/97 16:52 Page:271
     1575     2999    4               T$->CODE21.NFIELDS=L-4;

   2999  1 001254   300000 552134                    STBQ    0,'34'O,PR3

     1576     3000    4               END;

   3000  1 001255   001256 710000 1                  TRA     s:3004

     1577     3001                    /**/
     1578     3002    3         CASE(ELSE);

     1579     3003    3         END;  /* DO CASE(FM$FIT.CODES.CODE(I)) */

     1580     3004    2         END;  /* DO I=1 TO J */

   3004  1 001256   200010 235100                    LDA     I,,AUTO
         1 001257   000001 035007                    ADLA    1,DL
         1 001260   200010 755100                    STA     I,,AUTO
         1 001261   200007 236100                    LDQ     J,,AUTO
         1 001262   200010 116100                    CMPQ    I,,AUTO
         1 001263   000042 603000 1                  TRC     s:2833

     1581     3005    1      RETURN;

   3005  1 001264   000000 702200 xent               TSX2  ! X66_ARET

   2998  1 001265                       FMME$BADVEC* null
     1582     3006    1   FMME$BADVECT11:;
     1583     3007    1      B$JIT.ERR=FMM$E$BADVECT11;

   3007  1 001265   000000 236000 0                  LDQ     FMM$E$BADVECT11
         1 001266   000000 470400 xsym               LDP0    B$JIT$
         1 001267   000012 756100                    STQ     10,,PR0

     1584     3008    1   IFPARERR: ALTRETURN;

   3008  1 001270   000000 702200 xent  IFPARERR     TSX2  ! X66_AALT
PL6.E3A0      #002=FMM$IFPARAM File=FMM$OPN.:E05TSI                              TUE 07/29/97 16:52 Page:272

FMM$E$BADVECT11
 Sect OctLoc
   0     000   061515 006572                                                    1...

IFPARMSZ
 Sect OctLoc
   0     001   000000 000000   000000 000000   000000 000004   000000 000011    ................
   0     005   000000 000013   000000 000003   000000 000003   000000 000002    ................
   0     011   000000 000007   000000 000000   000000 000000   000000 000000    ................
   0     015   000000 000000   000000 000000   000000 000010   000000 000000    ................
   0     021   000000 000047   000000 000022   000000 000002   000000 000002    ...'............
   0     025   000000 000005   000000 000002                                    ........

(unnamed)
 Sect OctLoc
   2     000   000003 776000   000000 000047   000001 006000   777377 777777    .......'........
   2     004   777577 777777   777737 777777   777677 777777   777767 777777    ................
   2     010   000000 000022   000010 006000                                    ........
     1585     3009    1   END FMM$IFPARAM;
     1586     3010        %EOD;

PL6.E3A0      #002=FMM$IFPARAM File=FMM$OPN.:E05TSI                              TUE 07/29/97 16:52 Page:273
--  Include file information  --

   UD_ERRORS_C.:E05TOU  is referenced.
   CP_6_SUBS.:E05TOU  is referenced.
   FM$MACROS.:E05TOU  is referenced.
   F$DCB.:E05TOU  is referenced.
   FM_FIELD_C.:E05TOU  is referenced.
   KI_CP6.:E05TOU  is referenced.
   F$CP6P_C.:E05TOU  is referenced.
   B$JIT_C.:E05TOU  is referenced.
   F$JIT_C.:E05TOU  cannot be made into a system file and is referenced.
      No diagnostics issued in procedure FMM$IFPARAM.
PL6.E3A0      #002=FMM$IFPARAM File=FMM$OPN.:E05TSI                              TUE 07/29/97 16:52 Page:274

 **** Variables and constants ****

  ****  Section 000 RoData FMM$IFPARAM

  ****  Scalars and arrays  ****
OctLoc.c.b A Datatyp(siz) R M Lvl/name                 OctLoc.c.b A Datatyp(siz) R M Lvl/name

     0-0-0/b STRC        r     1 FMM$E$BADVECT11
     1-0-0/w UBIN        r     1 IFPARMSZ(0:21)

  ****  Auto variables  ****

  ****  Scalars and arrays  ****
OctLoc.c.b A Datatyp(siz) R M Lvl/name                 OctLoc.c.b A Datatyp(siz) R M Lvl/name

     3-0-0/w PTR         r     1 @FPT                      13-0-0/w PTR         r     1 FIELD$
    *0-0-0/w STRC(684)   r     1 FPT                       10-0-0/w UBIN        r     1 I
     7-0-0/w UBIN        r     1 J                         11-0-0/w PTR         r     1 JDCB$
     6-0-0/w UBIN        r     1 K                          5-0-0/w UBIN        r     1 L
     4-0-0/w PTR         r     1 T$                        12-0-0/w PTR         r     1 TEMP$

  ****  SYMREF variables  ****

  ****  Scalars and arrays  ****
OctLoc.c.b A Datatyp(siz) R M Lvl/name                 OctLoc.c.b A Datatyp(siz) R M Lvl/name

     0-0-0/w PTR         r     1 B$JIT$                     0-0-0/w PTR         r     1 B$PS$(0:0)
     0-0-0/w PTR         r     1 B$ROSEG$

  ****  BASED and DCB variables  ****

  ****  Scalars and arrays  ****
OctLoc.c.b A Datatyp(siz) R M Lvl/name                 OctLoc.c.b A Datatyp(siz) R M Lvl/name

     0-0-0/d STRC(8856)  r     1 B$JIT                      0-0-0/w STRC(135)   r     1 CODE02
     0-0-0/w STRC(324)   r     1 CODE03                     0-0-0/w STRC(396)   r     1 CODE04
     0-0-0/w STRC(108)   r     1 CODE05                     0-0-0/w STRC(108)   r     1 CODE06
PL6.E3A0      #002=FMM$IFPARAM File=FMM$OPN.:E05TSI                              TUE 07/29/97 16:52 Page:275
     0-0-0/w STRC(72)    r     1 CODE07                     0-0-0/w STRC(288)   r     1 CODE14
     0-0-0/w STRC(1404)  r     1 CODE16                     0-0-0/w STRC(54)    r     1 CODE18
     0-0-0/w STRC(54)    r     1 CODE19                     0-0-0/w STRC(45)    r     1 CODE21
     0-0-0/d ASTR(3528)  r     1 F$DCB                      0-0-0/w STRC(4572)  r     1 FITALTKEYS
     0-0-0/w STRC(72)    r     1 FM$FIELD_START             0-0-0/w STRC(1116)  r     1 FM$FIT
     0-0-0/w STRC(81)    r     1 KFIELD                     0-0-0/c ASTR(0)     r     1 MOVEL
     0-0-0/d STRC(612)   r     1 VLP$FPRG


   Procedure FMM$IFPARAM requires 697 words for executable code.
   Procedure FMM$IFPARAM requires 18 words of local(AUTO) storage.
PL6.E3A0      #002=FMM$IFPARAM File=FMM$OPN.:E05TSI                              TUE 07/29/97 16:52 Page:276
          *** CROSS REFERENCE LISTING ***
**     DENOTES     IDENTIFIER DEFINITION
<<                 IDENTIFIER'S VALUE SET
>>                 IDENTIFIER'S VALUE USED
<>                 IDENTIFIER SET AND/OR USED
--                 IDENTIFIER REFERENCED
PL6.E3A0      #002=FMM$IFPARAM File=FMM$OPN.:E05TSI                              TUE 07/29/97 16:52 Page:277
          MINI XREF LISTING

B$JIT.DCB$
       444**DCL      2826>>ASSIGN
B$JIT.ERR
       354**DCL      3007<<ASSIGN
B$JIT.ERR.MID
       355**DCL       355--REDEF
B$JIT$
      2817**DCL       349--IMP-PTR  2826>>ASSIGN   3007>>ASSIGN
B$PS$
      2819**DCL      2909>>ASSIGN   2913>>ASSIGN   2917>>ASSIGN   2921>>ASSIGN   2925>>ASSIGN
B$ROSEG$
      2818**DCL      2873>>ASSIGN   2879>>ASSIGN   2890>>ASSIGN   2932>>ASSIGN   2934>>ASSIGN   2941>>ASSIGN
      2948>>ASSIGN   2958>>ASSIGN   2970>>ASSIGN   2976>>ASSIGN   2987>>ASSIGN   2996>>ASSIGN
CODE02
      2091**DCL      2788--DCLINIT
CODE02.KEYL
      2092**DCL      2843>>IF       2844>>ASSIGN
CODE02.KEYX
      2092**DCL      2845>>ASSIGN
CODE02.LRDL0
      2091**DCL      2841>>IF       2841>>ASSIGN
CODE02.LSLIDE
      2091**DCL      2840>>IF       2840>>ASSIGN
CODE02.SPARE
      2091**DCL      2842>>IF       2842>>ASSIGN
CODE03
      2095**DCL      2789--DCLINIT
CODE03.COMP
      2097**DCL      2855>>IF
CODE03.DESC
      2095**DCL      2858>>IF
CODE03.DESC.BUPM
PL6.E3A0      #002=FMM$IFPARAM File=FMM$OPN.:E05TSI                              TUE 07/29/97 16:52 Page:278
      2096**DCL      2858>>ASSIGN
CODE03.EXPIRE
      2098**DCL      2860>>IF       2860>>ASSIGN
CODE03.GHSTACS
      2097**DCL      2861>>IF       2861>>ASSIGN
CODE03.NRECS
      2097**DCL      2853>>IF       2854>>ASSIGN
CODE03.ORG
      2095**DCL      2850>>IF       2850>>ASSIGN
CODE03.RECL
      2098**DCL      2852>>IF       2852>>ASSIGN
CODE03.TYPE
      2097**DCL      2857>>IF       2857>>ASSIGN
CODE03.UGRANS
      2095**DCL      2851>>IF       2851>>ASSIGN
CODE03.XTNSIZE
      2098**DCL      2859>>IF       2859>>ASSIGN
CODE04
      2104**DCL      2790--DCLINIT
CODE05
      2110**DCL      2791--DCLINIT
CODE06
      2113**DCL      2792--DCLINIT
CODE06.STOW.EFT
      2113**DCL      2114--REDEF
CODE07
      2117**DCL      2793--DCLINIT
CODE07.PASS
      2117**DCL      2865>>ASSIGN
CODE14
      2128**DCL      2796--DCLINIT
CODE16
      2136**DCL      2797--DCLINIT  2903--CALL     2904<<ASSIGN   2904>>ASSIGN
CODE18.DECFIELD
      2165**DCL      2166--REDEF
CODE18.NFIELDS
PL6.E3A0      #002=FMM$IFPARAM File=FMM$OPN.:E05TSI                              TUE 07/29/97 16:52 Page:279
      2165**DCL      2942>>ASSIGN   2961>>IF       2962<<ASSIGN
CODE19
      2169**DCL      2981<>CALL
CODE21.NFIELDS
      2172**DCL      2988>>ASSIGN   2998>>IF       2999<<ASSIGN
F$DCB.ACTPOS
      2057**DCL      2057--REDEF
F$DCB.ALTKEYX
      2055**DCL      2872>>IF       2873>>ASSIGN   2876<<ASSIGN   2890<<ASSIGN   2969>>IF       2970>>ASSIGN
      2973<<ASSIGN
F$DCB.AMFLG.ACCF
      2061**DCL      2908<<ASSIGN
F$DCB.AMFLG.ACSF
      2061**DCL      2912<<ASSIGN
F$DCB.AMFLG.INSF
      2061**DCL      2920<<ASSIGN
F$DCB.AMFLG.PROF
      2062**DCL      2924<<ASSIGN
F$DCB.AMFLG.USRF
      2062**DCL      2916<<ASSIGN
F$DCB.ARS
      2032**DCL      2032--REDEF
F$DCB.ATTR
      2050**DCL      2051--REDEF
F$DCB.BORROW
      2065**DCL      2065--REDEF    2065--REDEF    2065--REDEF
F$DCB.BUPM
      2046**DCL      2858<<ASSIGN
F$DCB.COMP
      2045**DCL      2855<<ASSIGN
F$DCB.DCBNAME.L
      2079**DCL      2079--IMP-SIZ
F$DCB.EOMCHAR
      2036**DCL      2036--REDEF
F$DCB.EXPIRE
      2048**DCL      2860<<ASSIGN
PL6.E3A0      #002=FMM$IFPARAM File=FMM$OPN.:E05TSI                              TUE 07/29/97 16:52 Page:280
F$DCB.FCD
      2045**DCL      2843>>IF       2849>>IF       2863>>IF       2869>>IF       2901>>IF       2929>>IF
      2939>>IF       2968>>IF       2985>>IF
F$DCB.FIELDX
      2056**DCL      2940>>IF       2941>>ASSIGN   2944<<ASSIGN   2958<<ASSIGN
F$DCB.FLDID
      2060**DCL      2060--REDEF
F$DCB.FORM$
      2054**DCL      2054--REDEF    2902>>IF       2903<>CALL     2904>>ASSIGN
F$DCB.FPRGX
      2056**DCL      2930>>IF       2932<<ASSIGN   2934>>ASSIGN
F$DCB.FSECT
      2070**DCL      2070--REDEF
F$DCB.FSN
      2047**DCL      2047--REDEF    2047--REDEF    2048--REDEF
F$DCB.GHSTACS
      2055**DCL      2861<<ASSIGN
F$DCB.HEADER$
      2053**DCL      2053--REDEF
F$DCB.IRRECX
      2060**DCL      2986>>IF       2987>>ASSIGN   2990<<ASSIGN   2996<<ASSIGN
F$DCB.IXTNSIZE
      2051**DCL      2051--REDEF    2851<<ASSIGN
F$DCB.KEYL
      2049**DCL      2844<<ASSIGN
F$DCB.KEYX
      2048**DCL      2845<<ASSIGN
F$DCB.KFIELDX
      2057**DCL      2878>>IF       2879>>ASSIGN   2882<<ASSIGN   2975>>IF       2976>>ASSIGN   2979<<ASSIGN
F$DCB.LASTSTA$
      2041**DCL      2041--REDEF
F$DCB.LRDL0
      2049**DCL      2841<<ASSIGN
F$DCB.LSLIDE
      2049**DCL      2840<<ASSIGN
F$DCB.LVL
PL6.E3A0      #002=FMM$IFPARAM File=FMM$OPN.:E05TSI                              TUE 07/29/97 16:52 Page:281
      2066**DCL      2066--REDEF
F$DCB.NAME.C
      2041**DCL      2041--REDEF
F$DCB.NOEOF
      2062**DCL      2062--REDEF
F$DCB.NRECS
      2052**DCL      2052--REDEF    2854<<ASSIGN
F$DCB.NRECX
      2071**DCL      2071--REDEF
F$DCB.OHDR
      2063**DCL      2063--REDEF
F$DCB.ORG
      2046**DCL      2046--REDEF    2850<<ASSIGN   2853>>IF       2869>>IF
F$DCB.PASS
      2042**DCL      2865<<ASSIGN
F$DCB.PASSF
      2044**DCL      2864<<ASSIGN
F$DCB.PRECNO
      2069**DCL      2069--REDEF
F$DCB.RCSZ
      2074**DCL      2074--REDEF
F$DCB.RECL
      2047**DCL      2852<<ASSIGN
F$DCB.RES
      2042**DCL      2042--REDEF
F$DCB.SETX
      2054**DCL      2054--REDEF
F$DCB.SPARE
      2049**DCL      2842<<ASSIGN
F$DCB.STARTX
      2057**DCL      2947>>IF       2948>>ASSIGN   2951<<ASSIGN
F$DCB.TAB$
      2053**DCL      2054--REDEF
F$DCB.TDA
      2068**DCL      2068--REDEF
F$DCB.TYPE
PL6.E3A0      #002=FMM$IFPARAM File=FMM$OPN.:E05TSI                              TUE 07/29/97 16:52 Page:282
      2042**DCL      2857<<ASSIGN
F$DCB.WSN
      2043**DCL      2043--REDEF
F$DCB.XTNSIZE
      2049**DCL      2859<<ASSIGN
FIELD$
      2813**DCL      2941<<ASSIGN   2942>>ASSIGN   2943<>CALL     2955<>CALL     2957>>ASSIGN   2958>>ASSIGN
      2960>>ASSIGN   2961>>IF       2962>>ASSIGN
FITALTKEYS.K
      2121**DCL      2891--ASSIGN
FITALTKEYS.K.KEYL
      2121**DCL      2895<<ASSIGN   2895>>ASSIGN
FITALTKEYS.K.KEYX
      2121**DCL      2894<<ASSIGN   2894>>ASSIGN
FITALTKEYS.K.UNIQUE
      2122**DCL      2896<<ASSIGN   2896>>ASSIGN
FITALTKEYS.NUMENTS
      2120**DCL      2891<<ASSIGN   2891>>ASSIGN   2893>>DOINDEX
FITALTKEYS.NUMWRDS
      2120**DCL      2874>>ASSIGN   2889<<ASSIGN   2971>>ASSIGN
FM$FIELD_START.NWORDS
      2191**DCL      2949>>ASSIGN
FM$FIT.CODES.CODE
      2088**DCL      2827>>ASSIGN   2834>>IF       2837>>DOCASE
FM$FIT.CODES.ITEMX
      2088**DCL      2833>>ASSIGN   2834>>IF       2834>>IF
FM$FIT.CODES.NDW
      2088**DCL      2834>>IF       2869>>IF       2884>>ASSIGN   2954>>ASSIGN   2992>>ASSIGN
FMG$IRSETUP
      2822**DCL-ENT  2981--CALL
FMM$E$BADVECT11
      2784**DCL      3007>>ASSIGN
FMME$BADVECT11
      2998**LABEL    2830--GOTO     2836--GOTO
FPT
      2082**DCL        25--PROC
PL6.E3A0      #002=FMM$IFPARAM File=FMM$OPN.:E05TSI                              TUE 07/29/97 16:52 Page:283
FPT.ACCESS_
      2082**DCL      2909>>IF       2909<<ASSIGN
FPT.ACSVEH_
      2083**DCL      2083--REDEF    2913>>IF       2913<<ASSIGN
FPT.ALTKEYS_
      2085**DCL      2085--REDEF    2085--REDEF
FPT.HDR_
      2084**DCL      2084--REDEF
FPT.IFPARAM_
      2083**DCL      2088--IMP-PTR  2827>>ASSIGN   2828--CALL     2833>>ASSIGN   2833>>ASSIGN   2834>>IF
      2834>>IF       2834>>IF       2834>>IF       2837>>DOCASE   2869>>IF       2884>>ASSIGN   2909--ASSIGN
      2913--ASSIGN   2917--ASSIGN   2921--ASSIGN   2925--ASSIGN   2954>>ASSIGN   2992>>ASSIGN
FPT.INSTATTR_
      2083**DCL      2921>>IF       2921<<ASSIGN
FPT.PROCATTR_
      2083**DCL      2925>>IF       2925<<ASSIGN
FPT.TAB_
      2084**DCL      2084--REDEF
FPT.UATTR_
      2083**DCL      2917>>IF       2917<<ASSIGN
FPT.UHL_
      2082**DCL      2082--REDEF    2082--REDEF
FPT.V_
      2082**DCL      2828--CALL     2909--ASSIGN   2913--ASSIGN   2917--ASSIGN   2921--ASSIGN   2925--ASSIGN
FPT.WSN_
      2084**DCL      2084--REDEF
FSA$FSP
      2821**DCL-ENT  2875--CALL     2881--CALL     2943--CALL     2950--CALL     2972--CALL     2978--CALL
      2989--CALL
FSA$GSP
      2823**DCL-ENT  2885--CALL     2903--CALL     2931--CALL     2955--CALL     2993--CALL
HFF$DSIZ
      2824**DCL-ENT  2828--CALL
I
      2810**DCL      2832<<DOINDEX  2833>>ASSIGN   2834>>IF       2834>>IF       2834>>IF       2834>>IF
      2837>>DOCASE   2869>>IF       2884>>ASSIGN   2954>>ASSIGN   2992>>ASSIGN
PL6.E3A0      #002=FMM$IFPARAM File=FMM$OPN.:E05TSI                              TUE 07/29/97 16:52 Page:284
IFPARERR
      3008**LABEL    2885--CALLALT  2903--CALLALT  2931--CALLALT  2955--CALLALT  2981--CALLALT  2993--CALLALT
IFPARMSZ
      2787**DCL      2834>>IF
J
      2809**DCL      2827<<ASSIGN   2830>>IF       2832>>DOINDEX
JDCB$
      2811**DCL      2032--IMP-PTR  2826<<ASSIGN   2840>>ASSIGN   2841>>ASSIGN   2842>>ASSIGN   2843>>IF
      2844>>ASSIGN   2845>>ASSIGN   2849>>IF       2850>>ASSIGN   2851>>ASSIGN   2852>>ASSIGN   2853>>IF
      2854>>ASSIGN   2855>>ASSIGN   2857>>ASSIGN   2858>>ASSIGN   2859>>ASSIGN   2860>>ASSIGN   2861>>ASSIGN
      2863>>IF       2864>>ASSIGN   2865>>ASSIGN   2869>>IF       2869>>IF       2872>>IF       2873>>ASSIGN
      2876>>ASSIGN   2878>>IF       2879>>ASSIGN   2882>>ASSIGN   2890>>ASSIGN   2901>>IF       2902>>IF
      2903>>CALL     2904>>ASSIGN   2908>>ASSIGN   2912>>ASSIGN   2916>>ASSIGN   2920>>ASSIGN   2924>>ASSIGN
      2929>>IF       2930>>IF       2932>>ASSIGN   2934>>ASSIGN   2939>>IF       2940>>IF       2941>>ASSIGN
      2944>>ASSIGN   2947>>IF       2948>>ASSIGN   2951>>ASSIGN   2958>>ASSIGN   2968>>IF       2969>>IF
      2970>>ASSIGN   2973>>ASSIGN   2975>>IF       2976>>ASSIGN   2979>>ASSIGN   2985>>IF       2986>>IF
      2987>>ASSIGN   2990>>ASSIGN   2996>>ASSIGN
K
      2808**DCL      2828<>CALL     2829<<ASSIGN   2829>>ASSIGN   2830>>IF       2834>>IF       2834>>IF
KFIELD.NWORDS
      2175**DCL      2880>>ASSIGN   2977>>ASSIGN
L
      2807**DCL      2804--IMP-SIZ  2874<<ASSIGN   2875<>CALL     2880<<ASSIGN   2881<>CALL     2884<<ASSIGN
      2885<>CALL     2886<<ASSIGN   2886>>ASSIGN   2887>>ASSIGN   2888<<ASSIGN   2888>>ASSIGN   2889>>ASSIGN
      2891>>ASSIGN   2893<<DOINDEX  2894>>ASSIGN   2894>>ASSIGN   2895>>ASSIGN   2895>>ASSIGN   2896>>ASSIGN
      2896>>ASSIGN   2942<<ASSIGN   2943<>CALL     2949<<ASSIGN   2950<>CALL     2954<<ASSIGN   2955<>CALL
      2956<<ASSIGN   2956>>ASSIGN   2957>>ASSIGN   2960>>ASSIGN   2960>>ASSIGN   2961>>IF       2962>>ASSIGN
      2971<<ASSIGN   2972<>CALL     2977<<ASSIGN   2978<>CALL     2988<<ASSIGN   2989<>CALL     2992<<ASSIGN
      2993<>CALL     2994<<ASSIGN   2994>>ASSIGN   2995>>ASSIGN   2997>>ASSIGN   2997>>ASSIGN   2998>>IF
      2999>>ASSIGN
MOVEL
      2803**DCL      2887<<ASSIGN   2957<<ASSIGN   2960<<ASSIGN   2960>>ASSIGN   2995<<ASSIGN   2997<<ASSIGN
      2997>>ASSIGN
T$
      2806**DCL      2873<<ASSIGN   2874>>ASSIGN   2875<>CALL     2879<<ASSIGN   2880>>ASSIGN   2881<>CALL
      2885<>CALL     2887>>ASSIGN   2889>>ASSIGN   2890>>ASSIGN   2891>>ASSIGN   2893>>DOINDEX  2894>>ASSIGN
PL6.E3A0      #002=FMM$IFPARAM File=FMM$OPN.:E05TSI                              TUE 07/29/97 16:52 Page:285
      2895>>ASSIGN   2896>>ASSIGN   2931<>CALL     2932>>ASSIGN   2934<<ASSIGN   2935>>ASSIGN   2948<<ASSIGN
      2949>>ASSIGN   2950<>CALL     2970<<ASSIGN   2971>>ASSIGN   2972<>CALL     2976<<ASSIGN   2977>>ASSIGN
      2978<>CALL     2987<<ASSIGN   2988>>ASSIGN   2989<>CALL     2993<>CALL     2995>>ASSIGN   2996>>ASSIGN
      2997>>ASSIGN   2998>>IF       2999>>ASSIGN
TEMP$
      2812**DCL      2091--IMP-PTR  2095--IMP-PTR  2104--IMP-PTR  2110--IMP-PTR  2113--IMP-PTR  2117--IMP-PTR
      2120--IMP-PTR  2128--IMP-PTR  2136--IMP-PTR  2154--IMP-PTR  2165--IMP-PTR  2169--IMP-PTR  2172--IMP-PTR
      2833<<ASSIGN   2840>>IF       2840>>ASSIGN   2841>>IF       2841>>ASSIGN   2842>>IF       2842>>ASSIGN
      2843>>IF       2844>>ASSIGN   2845>>ASSIGN   2850>>IF       2850>>ASSIGN   2851>>IF       2851>>ASSIGN
      2852>>IF       2852>>ASSIGN   2853>>IF       2854>>ASSIGN   2855>>IF       2857>>IF       2857>>ASSIGN
      2858>>IF       2858>>ASSIGN   2859>>IF       2859>>ASSIGN   2860>>IF       2860>>ASSIGN   2861>>IF
      2861>>ASSIGN   2865>>ASSIGN   2891>>ASSIGN   2894>>ASSIGN   2895>>ASSIGN   2896>>ASSIGN   2904>>ASSIGN
      2935>>ASSIGN   2960>>ASSIGN   2981>>CALL     2997>>ASSIGN
VLP$FPRG
      2154**DCL      2798--DCLINIT  2931--CALL     2935<<ASSIGN   2935>>ASSIGN

PL6.E3A0      #003=FMM$GETAMR File=FMM$OPN.:E05TSI                               TUE 07/29/97 16:53 Page:286
     1587        1        /*T***********************************************************/
     1588        2        /*T*                                                         */
     1589        3        /*T* Copyright (c) Bull HN Information Systems Inc., 1997    */
     1590        4        /*T*                                                         */
     1591        5        /*T***********************************************************/
     1592        6                    /*F*  NAME:     FMM$GETAMR
     1593        7                    *     PURPOSE:  GET THE ASSIGN MERGE RECORD FOR THIS DCB.
     1594        8                    */
     1595        9                    /*D*
     1596       10                     NAME:     FMM$GETAMR
     1597       11                     CALL:     CALL FMM$GETAMR(DCB$,BUF$) ALTRET(RTN)
     1598       12
     1599       13                     WHERE DCB$ POINTS TO THE CURRENT DCB
     1600       14                     BUF$ IS RETURNED POINTING TO THE RECORD.
     1601       15                     ALTRET SPECIFIES EITHER AN ERROR CONDITION
     1602       16                     SPECIFIED IN B$JIT.ERR.CODE OR (IF CODE
     1603       17                     INDICATES 'KEY NOT FOUND') THAT NO AMR
     1604       18                     EXISTS FOR THIS DCB.
     1605       19
     1606       20                     OUTPUT:   THE AMR IF FOUND IS CONTAINED IN F$DCB.BUFR1.BUFX(0).
     1607       21
     1608       22                     DESCRIPTION:  FMM$GETAMR GETS A FILE MANAGEMENT BUFFER, THEN
     1609       23                     USES THE M$STAR DCB TO READ THE AMR FOR THE SPECIFIED
     1610       24                     DCB (KEY IS THE DCB NAME) INTO THE BUFFER.  IF M$STAR
     1611       25                     IS ALREADY OPEN OR CANNOT BE OPENED, THE ALTRET IS
     1612       26                     TAKEN. IF THERE IS NO AMR FOR THIS DCB, THE ALTRET IS
     1613       27                     ALSO TAKEN.  IF M$STAR WAS OPENED SUCCESSFULLY, IT IS
     1614       28                     CLOSED BEFORE THE RETURN.  ON THE ALTRETURN THE FILE
     1615       29                     MANAGEMENT BUFFER WILL HAVE BEEN RETURNED.
     1616       30
     1617       31                    */
     1618       32        FMM$GETAMR: PROC(JDCB$,BUF$) ALTRET;
     1619       33                    /*F*  NAME:     FMM$READAMR
     1620       34                    *     PURPOSE:  READ THE ASSIGN MERGE RECORD FOR THIS DCB.
     1621       35                    */
     1622       36                    /*D*
     1623       37                    *     NAME:     FMM$READAMR
PL6.E3A0      #003=FMM$GETAMR File=FMM$OPN.:E05TSI                               TUE 07/29/97 16:53 Page:287
     1624       38                    *     CALL:     CALL FMM$READAMR(DCB$,BUF$) ALTRET(RTN)
     1625       39                    *
     1626       40                    *     INPUT:          DCB$ POINTS TO THE CURRENT DCB.
     1627       41                    *                     BUF$ POINTS TO AN FM BUFFER.
     1628       42                    *
     1629       43                    *                     ALTRET SPECIFIES EITHER AN ERROR CONDITION
     1630       44                    *                     SPECIFIED IN B$JIT.ERR.CODE OR (IF CODE
     1631       45                    *                     INDICATES 'KEY NOT FOUND') THAT NO AMR
     1632       46                    *                     EXISTS FOR THIS DCB.
     1633       47                    *
     1634       48                    *     OUTPUT:   THE AMR IF FOUND IS READ INTO THE BUF$ AREA.
     1635       49                    *
     1636       50                    *     DESCRIPTION:  FMM$READAMR USES THE M$STAR DCB TO READ THE AMR FOR
     1637       51                    *               THE SPECIFIED DCB (KEY IS THE DCB NAME).  IF THIS DCB
     1638       52                    *               IS DEFINED AS #1, #2, OR #3 THAT AMR IS OBTAINED
     1639       53                    *               INSTEAD OF THE AMR KEYED BY THE DCB NAME.
     1640       54                    *               IF THERE IS NO AMR FOR THIS DCB, THE ALTRET IS TAKEN.
     1641       55                    *               IF THE M$* DCB HAS NOT BEEN OPENED, THE ALTRET
     1642       56                    *               IS ALSO TAKEN.
     1643       57                    *
     1644       58                    */
     1645       59        %INCLUDE CP_6_SUBS;
     1646      599                    /**/
     1647      600                    /* ENTRYIS */
     1648      601                    /**/
     1649      602    1   DCL FMD$GETBUF ENTRY(3);
     1650      603    1   DCL FMD$RELBUF ENTRY(1);
     1651      604    1   DCL FMM$DFLOPNP ENTRY;
     1652      605    1   DCL FMP$CLSTAR ENTRY;
     1653      606        %MACRO F$DCB#(BASED=BASED);
     1654      607        %INCLUDE F$DCB;
     1655      656        %MEND;
     1656      657        %F$DCB#(BASED="BASED(JDCB$)");
     1657      707        %INCLUDE F_CP6;
     1658     1732        %INCLUDE F$JIT_C;
     1659     2162        %INCLUDE FM_OPLBL_R;
     1660     2176    1   DCL M$MREAD ENTRY(1)ALTRET; /* INTRA MONITOR M$READ */
PL6.E3A0      #003=FMM$GETAMR File=FMM$OPN.:E05TSI                               TUE 07/29/97 16:53 Page:288
     1661     2177                    /**/
     1662     2178                    /* PARAMETER DATA */
     1663     2179                    /**/
     1664     2180    1   DCL JDCB$ PTR; /* INPUT DCB--GET IT'S AMR */
     1665     2181    1   DCL BUF$ PTR; /* PTR TO FM BUFFER */
     1666     2182                    /**/
     1667     2183                    /* AUTOMATIC DATA */
     1668     2184                    /**/
     1669     2185    1   DCL I UBIN;
     1670     2186    1   DCL ENT# SBIN; /* -1=GET,0=READ,1=OPN */
     1671     2187        %FPT_READ (FPTN=RSTARA,STCLASS=AUTO);
     1672     2226                    /**/
     1673     2227                    /* SYMREF DATA */
     1674     2228                    /**/
     1675     2229    1   DCL B$JIT$ PTR SYMREF; /* POINTER TO THE JIT */
     1676     2230    1   DCL 1 AMRKEY BASED(BUF$) ALIGNED,
     1677     2231    1         2 L UBIN BYTE UNAL,
     1678     2232    1         2 N CHAR(31);
     1679     2233    1   DCL 1 DCBNAME ALIGNED BASED,
     1680     2234    1         2 * BIT(3),
     1681     2235    1         2 M$ BIT(24);
     1682     2236                    /**/
     1683     2237                    /* CONSTANT DATA */
     1684     2238                    /**/
     1685     2239        %FPT_READ(FPTN=RSTARC,STCLASS=CONSTANT,KEYS=YES);
     1686     2278        %VLP_NAME(FPTN=STARA,NAME='*A',STCLASS=CONSTANT);
     1687     2305                    /**/
     1688     2306                    /* PROCEDURE */
     1689     2307                    /**/
     1690     2308    1      ENT#=-1;
     1691     2309    1      CALL FMD$GETBUF(0,1,BUF$);
     1692     2310    1      B$JIT.DCB$=DCBADDR(1);
     1693     2311    1      GOTO OPNAMR;
     1694     2312    1   FMM$OPNAMR: ENTRY ALTRET;
     1695     2313    1      ENT#=1;
     1696     2314    1   OPNAMR:;
     1697     2315    1      IF B$JIT.DCB$->F$DCB.FCD THEN CALL FMP$CLSTAR;
PL6.E3A0      #003=FMM$GETAMR File=FMM$OPN.:E05TSI                               TUE 07/29/97 16:53 Page:289
     1698     2316    1      B$JIT.ERR='0'B;
     1699     2317    1      B$JIT.DCB$->F$DCB.NAME=STARA;
     1700     2318    1      B$JIT.DCB$->F$DCB.ASN=%FILE#;
     1701     2319    1      B$JIT.DCB$->F$DCB.FUN=%IN#;
     1702     2320    1      B$JIT.DCB$->F$DCB.SHARE=%NONE#;
     1703     2321    1      B$JIT.DCB$->F$DCB.AMFLG='0'B;
     1704     2322    1      CALL FMM$DFLOPNP;
     1705     2323    1      IF B$JIT.ERR.CODE~=0 THEN GOTO RETALT;
     1706     2324    1      IF ENT#>0 THEN RETURN; /* OPNAMR CALL */
     1707     2325    1      GOTO READAMR;
     1708     2326    1   FMM$READAMR: ENTRY(JDCB$,BUF$) ALTRET;
     1709     2327    1      ENT#=0;
     1710     2328    1      IF NOT B$JIT.DCB$->F$DCB.FCD THEN ALTRETURN;
     1711     2329                    /* DON'T READ IF M$* ISN'T OPEN */
     1712     2330                    /*
     1713     2331                    *  SET UP THE READ FPT
     1714     2332                    */
     1715     2333    1   READAMR:;
     1716     2334    1      RSTARA=RSTARC;
     1717     2335    1      RSTARA.V_=VECTOR(RSTARA.V);
     1718     2336    1      RSTARA.BUF_.BOUND=4095;
     1719     2337                    /*
     1720     2338                    *  TRY FOR A PROCESSOR CALL LINE RECORD IF DCBNAME.X ISNT 0
     1721     2339                    */
     1722     2340    1      I=F$DCB.DCBNAME.X;
     1723     2341    1      RSTARA.KEY_=VECTOR(AMRKEY);
     1724     2342    1   RETRY:;
     1725     2343    1      AMRKEY.L=F$DCB.DCBNAME.L;
     1726     2344    1      AMRKEY.N=F$DCB.DCBNAME.N;
     1727     2345    1      IF I~=0 THEN AMRKEY='002043060'O|BINBIT(I,27);
     1728     2346    1      RSTARA.BUF_.BUF$=BUF$;
     1729     2347    1      RSTARA.V.DCB#=1; /* DCBNUM IS ONE FOR M$STAR */
     1730     2348
     1731     2349    1      CALL M$MREAD(RSTARA)ALTRET(NOTREAD);
     1732     2350    1      IF I~=0 THEN F$DCB.FEXTX=I;
     1733     2351    2      IF ENT#<0 THEN DO;
     1734     2352    2         CALL FMP$CLSTAR;
PL6.E3A0      #003=FMM$GETAMR File=FMM$OPN.:E05TSI                               TUE 07/29/97 16:53 Page:290
     1735     2353    2         B$JIT.DCB$=JDCB$;
     1736     2354    2         END;
     1737     2355    1      RETURN;
     1738     2356
     1739     2357                    /*
     1740     2358                    *  IF ANY ERROR OCCURRED ON THE READ, THEN THE ERROR CODE IS
     1741     2359                    *  IN JIT.ERR.CODE.  THE CALLER MUST CHECK THIS AT THE
     1742     2360                    *  ALTRET ENTRY.
     1743     2361                    */
     1744     2362    1   NOTREAD:
     1745     2363    2      IF I=0 THEN DO;
     1746     2364    2         IF F$DCB.DCBNAME.X=3 THEN F$DCB.FEXTX=3;
     1747     2365    2         GOTO RETALT;
     1748     2366    2         END;
     1749     2367    1      IF ADDR(F$DCB.DCBNAME)->DCBNAME.M$='04115044'O /* M$.. */
     1750     2368    2      THEN DO I=4 TO F_NUMOPS;
     1751     2369    2         IF F_OPLBL(I)=SUBSTR(F$DCB.DCBNAME.N,2,2) THEN F$DCB.FEXTX=I;
     1752     2370    2         END;
     1753     2371    1      I=0;
     1754     2372    1      GOTO RETRY;
     1755     2373    1   RETALT:;
     1756     2374    2      IF ENT#<0 THEN DO;
     1757     2375    2         CALL FMP$CLSTAR;
     1758     2376    2         B$JIT.DCB$=JDCB$;
     1759     2377    2         CALL FMD$RELBUF(0);
     1760     2378    2         END;
     1761     2379    1      ALTRETURN;
     1762     2380    1   END FMM$GETAMR;
     1763     2381        %EOD;

PL6.E3A0      #003=FMM$GETAMR File=FMM$OPN.:E05TSI                               TUE 07/29/97 16:53 Page:291
--  Include file information  --

   FM_OPLBL_R.:E05TOU  cannot be made into a system file and is referenced.
   B$JIT_C.:E05TOU  is referenced.
   F$JIT_C.:E05TOU  cannot be made into a system file and is referenced.
   F_CP6.:E05TOU  is referenced.
   F$DCB.:E05TOU  is referenced.
   CP_6_SUBS.:E05TOU  is referenced.
      No diagnostics issued in procedure FMM$GETAMR.

   Procedure FMM$GETAMR requires 198 words for executable code.
   Procedure FMM$GETAMR requires 26 words of local(AUTO) storage.

PL6.E3A0      #003=FMM$GETAMR File=FMM$OPN.:E05TSI                               TUE 07/29/97 16:53 Page:292

 Object Unit name= FMM$GETAMR                                 File name= FMM$OPN.:E05TOU
 UTS= JUL 29 '97 16:53:24.76 TUE                              Compiler= PL-6/E31         Sev=      00
 SharedLib= :SHARED_SYSTEM                                    Alt SharedLib=


    ****  Control sections  ****

 Sect   Type Bound  Init  Size OctSiz  Section name(segment info)
    0  RoData even  UTS     17     21  FMM$GETAMR
    1   Proc  even  none   198    306  FMM$GETAMR
    2  RoData even  none     7      7  FMM$GETAMR

    ****  Entry defs  ****

                              Check   Calling
                             calling  sequence
  Sect OctLoc Primary Altret sequence   type   Parms  Name
     1      0   yes    yes     yes      Std        2  FMM$GETAMR
     1     22          yes     yes      Std        0  FMM$OPNAMR
     1     73          yes     yes      Std        2  FMM$READAMR

  ****  Entry refs  ****

         Check        Calling
        calling       sequence
Altret sequence SRef   type   Args  Name
         yes           Std       3 FMD$GETBUF
         yes           Std       0 FMM$DFLOPNP
         yes           Std       1 FMD$RELBUF
         yes           Std       0 FMP$CLSTAR
 yes     yes           Std       1 M$MREAD
                       nStd      0 X66_AUTO_2
                       Std       0 B_CONSPOOL_D
                       nStd      0 X66_ARET
                       nStd      0 X66_AALT
PL6.E3A0      #003=FMM$GETAMR File=FMM$OPN.:E05TSI                               TUE 07/29/97 16:53 Page:293

  ****  Data refs  ****

  Flags:  r = read only, s = secondary
Flgs Name                             Flgs Name                             Flgs Name
r    F_OPLBL                               B$JIT$                                B_VECTNIL

  ****  Segment refs  ****

  Flags:  r = read only, s = secondary
Flgs Name                             Flgs Name                             Flgs Name
     ISSID                                 NULLSID                               ROSID
PL6.E3A0      #003=FMM$GETAMR File=FMM$OPN.:E05TSI                               TUE 07/29/97 16:53 Page:294


     1587        1        /*T***********************************************************/
     1588        2        /*T*                                                         */
     1589        3        /*T* Copyright (c) Bull HN Information Systems Inc., 1997    */
     1590        4        /*T*                                                         */
     1591        5        /*T***********************************************************/
     1592        6                    /*F*  NAME:     FMM$GETAMR
     1593        7                    *     PURPOSE:  GET THE ASSIGN MERGE RECORD FOR THIS DCB.
     1594        8                    */
     1595        9                    /*D*
     1596       10                     NAME:     FMM$GETAMR
     1597       11                     CALL:     CALL FMM$GETAMR(DCB$,BUF$) ALTRET(RTN)
     1598       12
     1599       13                     WHERE DCB$ POINTS TO THE CURRENT DCB
     1600       14                     BUF$ IS RETURNED POINTING TO THE RECORD.
     1601       15                     ALTRET SPECIFIES EITHER AN ERROR CONDITION
     1602       16                     SPECIFIED IN B$JIT.ERR.CODE OR (IF CODE
     1603       17                     INDICATES 'KEY NOT FOUND') THAT NO AMR
     1604       18                     EXISTS FOR THIS DCB.
     1605       19
     1606       20                     OUTPUT:   THE AMR IF FOUND IS CONTAINED IN F$DCB.BUFR1.BUFX(0).
     1607       21
     1608       22                     DESCRIPTION:  FMM$GETAMR GETS A FILE MANAGEMENT BUFFER, THEN
     1609       23                     USES THE M$STAR DCB TO READ THE AMR FOR THE SPECIFIED
     1610       24                     DCB (KEY IS THE DCB NAME) INTO THE BUFFER.  IF M$STAR
     1611       25                     IS ALREADY OPEN OR CANNOT BE OPENED, THE ALTRET IS
     1612       26                     TAKEN. IF THERE IS NO AMR FOR THIS DCB, THE ALTRET IS
     1613       27                     ALSO TAKEN.  IF M$STAR WAS OPENED SUCCESSFULLY, IT IS
     1614       28                     CLOSED BEFORE THE RETURN.  ON THE ALTRETURN THE FILE
     1615       29                     MANAGEMENT BUFFER WILL HAVE BEEN RETURNED.
     1616       30
     1617       31                    */
     1618       32        FMM$GETAMR: PROC(JDCB$,BUF$) ALTRET;

     32  1 000000   000000 700200 xent  FMM$GETAMR   TSX0  ! X66_AUTO_2
         1 000001   000032 000002                    ZERO    26,2

PL6.E3A0      #003=FMM$GETAMR File=FMM$OPN.:E05TSI                               TUE 07/29/97 16:53 Page:295
     1619       33                    /*F*  NAME:     FMM$READAMR
     1620       34                    *     PURPOSE:  READ THE ASSIGN MERGE RECORD FOR THIS DCB.
     1621       35                    */
     1622       36                    /*D*
     1623       37                    *     NAME:     FMM$READAMR
     1624       38                    *     CALL:     CALL FMM$READAMR(DCB$,BUF$) ALTRET(RTN)
     1625       39                    *
     1626       40                    *     INPUT:          DCB$ POINTS TO THE CURRENT DCB.
     1627       41                    *                     BUF$ POINTS TO AN FM BUFFER.
     1628       42                    *
     1629       43                    *                     ALTRET SPECIFIES EITHER AN ERROR CONDITION
     1630       44                    *                     SPECIFIED IN B$JIT.ERR.CODE OR (IF CODE
     1631       45                    *                     INDICATES 'KEY NOT FOUND') THAT NO AMR
     1632       46                    *                     EXISTS FOR THIS DCB.
     1633       47                    *
     1634       48                    *     OUTPUT:   THE AMR IF FOUND IS READ INTO THE BUF$ AREA.
     1635       49                    *
     1636       50                    *     DESCRIPTION:  FMM$READAMR USES THE M$STAR DCB TO READ THE AMR FOR
     1637       51                    *               THE SPECIFIED DCB (KEY IS THE DCB NAME).  IF THIS DCB
     1638       52                    *               IS DEFINED AS #1, #2, OR #3 THAT AMR IS OBTAINED
     1639       53                    *               INSTEAD OF THE AMR KEYED BY THE DCB NAME.
     1640       54                    *               IF THERE IS NO AMR FOR THIS DCB, THE ALTRET IS TAKEN.
     1641       55                    *               IF THE M$* DCB HAS NOT BEEN OPENED, THE ALTRET
     1642       56                    *               IS ALSO TAKEN.
     1643       57                    *
     1644       58                    */
     1645       59        %INCLUDE CP_6_SUBS;
     1646      599                    /**/
     1647      600                    /* ENTRYIS */
     1648      601                    /**/
     1649      602    1   DCL FMD$GETBUF ENTRY(3);
     1650      603    1   DCL FMD$RELBUF ENTRY(1);
     1651      604    1   DCL FMM$DFLOPNP ENTRY;
     1652      605    1   DCL FMP$CLSTAR ENTRY;
     1653      606        %MACRO F$DCB#(BASED=BASED);
     1654      607        %INCLUDE F$DCB;
     1655      656        %MEND;
PL6.E3A0      #003=FMM$GETAMR File=FMM$OPN.:E05TSI                               TUE 07/29/97 16:53 Page:296
     1656      657        %F$DCB#(BASED="BASED(JDCB$)");
     1657      707        %INCLUDE F_CP6;
     1658     1732        %INCLUDE F$JIT_C;
     1659     2162        %INCLUDE FM_OPLBL_R;
     1660     2176    1   DCL M$MREAD ENTRY(1)ALTRET; /* INTRA MONITOR M$READ */
     1661     2177                    /**/
     1662     2178                    /* PARAMETER DATA */
     1663     2179                    /**/
     1664     2180    1   DCL JDCB$ PTR; /* INPUT DCB--GET IT'S AMR */
     1665     2181    1   DCL BUF$ PTR; /* PTR TO FM BUFFER */
     1666     2182                    /**/
     1667     2183                    /* AUTOMATIC DATA */
     1668     2184                    /**/
     1669     2185    1   DCL I UBIN;
     1670     2186    1   DCL ENT# SBIN; /* -1=GET,0=READ,1=OPN */
     1671     2187        %FPT_READ (FPTN=RSTARA,STCLASS=AUTO);
     1672     2226                    /**/
     1673     2227                    /* SYMREF DATA */
     1674     2228                    /**/
     1675     2229    1   DCL B$JIT$ PTR SYMREF; /* POINTER TO THE JIT */
     1676     2230    1   DCL 1 AMRKEY BASED(BUF$) ALIGNED,
     1677     2231    1         2 L UBIN BYTE UNAL,
     1678     2232    1         2 N CHAR(31);
     1679     2233    1   DCL 1 DCBNAME ALIGNED BASED,
     1680     2234    1         2 * BIT(3),
     1681     2235    1         2 M$ BIT(24);
     1682     2236                    /**/
     1683     2237                    /* CONSTANT DATA */
     1684     2238                    /**/
     1685     2239        %FPT_READ(FPTN=RSTARC,STCLASS=CONSTANT,KEYS=YES);
     1686     2278        %VLP_NAME(FPTN=STARA,NAME='*A',STCLASS=CONSTANT);
     1687     2305                    /**/
     1688     2306                    /* PROCEDURE */
     1689     2307                    /**/
     1690     2308    1      ENT#=-1;

   2308  1 000002   000001 335007                    LCA     1,DL
PL6.E3A0      #003=FMM$GETAMR File=FMM$OPN.:E05TSI                               TUE 07/29/97 16:53 Page:297
         1 000003   200006 755100                    STA     ENT#,,AUTO

     1691     2309    1      CALL FMD$GETBUF(0,1,BUF$);

   2309  1 000004   200004 236100                    LDQ     @BUF$,,AUTO
         1 000005   200030 756100                    STQ     RSTARA+16,,AUTO
         1 000006   000000 237000 2                  LDAQ    0
         1 000007   200026 757100                    STAQ    RSTARA+14,,AUTO
         1 000010   200026 630500                    EPPR0   RSTARA+14,,AUTO
         1 000011   000021 631400 xsym               EPPR1   B_VECTNIL+17
         1 000012   000000 701000 xent               TSX1    FMD$GETBUF
         1 000013   000000 011000                    NOP     0

     1692     2310    1      B$JIT.DCB$=DCBADDR(1);

   2310  1 000014   000002 470400 2                  LDP0    2
         1 000015   000000 471500                    LDP1    0,,PR0
         1 000016   100001 236100                    LDQ     1,,PR1
         1 000017   000000 473400 xsym               LDP3    B$JIT$
         1 000020   300232 756100                    STQ     154,,PR3

     1693     2311    1      GOTO OPNAMR;

   2311  1 000021   000026 710000 1                  TRA     OPNAMR

     1694     2312    1   FMM$OPNAMR: ENTRY ALTRET;

   2312  1 000022   000000 700200 xent  FMM$OPNAMR   TSX0  ! X66_AUTO_2
         1 000023   000032 000002                    ZERO    26,2

     1695     2313    1      ENT#=1;

   2313  1 000024   000001 235007                    LDA     1,DL
         1 000025   200006 755100                    STA     ENT#,,AUTO

   2313  1 000026                       OPNAMR       null
     1696     2314    1   OPNAMR:;
PL6.E3A0      #003=FMM$GETAMR File=FMM$OPN.:E05TSI                               TUE 07/29/97 16:53 Page:298
     1697     2315    1      IF B$JIT.DCB$->F$DCB.FCD THEN CALL FMP$CLSTAR;

   2315  1 000026   000000 470400 xsym               LDP0    B$JIT$
         1 000027   000232 471500                    LDP1    154,,PR0
         1 000030   100031 236100                    LDQ     25,,PR1
         1 000031   020000 316007                    CANQ    8192,DL
         1 000032   000036 600000 1                  TZE     s:2316

   2315  1 000033   000002 631400 xsym               EPPR1   B_VECTNIL+2
         1 000034   000000 701000 xent               TSX1    FMP$CLSTAR
         1 000035   000000 011000                    NOP     0

     1698     2316    1      B$JIT.ERR='0'B;

   2316  1 000036   000000 470400 xsym               LDP0    B$JIT$
         1 000037   000012 450100                    STZ     10,,PR0

     1699     2317    1      B$JIT.DCB$->F$DCB.NAME=STARA;

   2317  1 000040   000232 471500                    LDP1    154,,PR0
         1 000041   000100 100400                    MLR     fill='000'O
         1 000042   000016 000003 0                  ADSC9   STARA                    cn=0,n=3
         1 000043   100010 000040                    ADSC9   8,,PR1                   cn=0,n=32

     1700     2318    1      B$JIT.DCB$->F$DCB.ASN=%FILE#;

   2318  1 000044   000232 471500                    LDP1    154,,PR0
         1 000045   001000 236007                    LDQ     512,DL
         1 000046   100032 552110                    STBQ    26,'10'O,PR1

     1701     2319    1      B$JIT.DCB$->F$DCB.FUN=%IN#;

   2319  1 000047   000232 471500                    LDP1    154,,PR0
         1 000050   000002 236003                    LDQ     2,DU
         1 000051   100032 552120                    STBQ    26,'20'O,PR1

     1702     2320    1      B$JIT.DCB$->F$DCB.SHARE=%NONE#;
PL6.E3A0      #003=FMM$GETAMR File=FMM$OPN.:E05TSI                               TUE 07/29/97 16:53 Page:299

   2320  1 000052   000232 471500                    LDP1    154,,PR0
         1 000053   000600 236007                    LDQ     384,DL
         1 000054   100031 256100                    ORSQ    25,,PR1

     1703     2321    1      B$JIT.DCB$->F$DCB.AMFLG='0'B;

   2321  1 000055   000232 471500                    LDP1    154,,PR0
         1 000056   000003 236000 2                  LDQ     3
         1 000057   100064 356100                    ANSQ    52,,PR1

     1704     2322    1      CALL FMM$DFLOPNP;

   2322  1 000060   000002 631400 xsym               EPPR1   B_VECTNIL+2
         1 000061   000000 701000 xent               TSX1    FMM$DFLOPNP
         1 000062   000000 011000                    NOP     0

     1705     2323    1      IF B$JIT.ERR.CODE~=0 THEN GOTO RETALT;

   2323  1 000063   000000 470400 xsym               LDP0    B$JIT$
         1 000064   000012 236100                    LDQ     10,,PR0
         1 000065   377770 316007                    CANQ    131064,DL
         1 000066   000270 601000 1                  TNZ     RETALT

     1706     2324    1      IF ENT#>0 THEN RETURN; /* OPNAMR CALL */

   2324  1 000067   200006 235100                    LDA     ENT#,,AUTO
         1 000070   000072 604400 1                  TMOZ    s:2325

   2324  1 000071   000000 702200 xent               TSX2  ! X66_ARET

     1707     2325    1      GOTO READAMR;

   2325  1 000072   000104 710000 1                  TRA     READAMR

     1708     2326    1   FMM$READAMR: ENTRY(JDCB$,BUF$) ALTRET;

PL6.E3A0      #003=FMM$GETAMR File=FMM$OPN.:E05TSI                               TUE 07/29/97 16:53 Page:300
   2326  1 000073   000000 700200 xent  FMM$READAMR  TSX0  ! X66_AUTO_2
         1 000074   000032 000002                    ZERO    26,2

     1709     2327    1      ENT#=0;

   2327  1 000075   200006 450100                    STZ     ENT#,,AUTO

     1710     2328    1      IF NOT B$JIT.DCB$->F$DCB.FCD THEN ALTRETURN;

   2328  1 000076   000000 470400 xsym               LDP0    B$JIT$
         1 000077   000232 471500                    LDP1    154,,PR0
         1 000100   100031 236100                    LDQ     25,,PR1
         1 000101   020000 316007                    CANQ    8192,DL
         1 000102   000104 601000 1                  TNZ     READAMR

   2328  1 000103   000000 702200 xent               TSX2  ! X66_AALT

   2328  1 000104                       READAMR      null
     1711     2329                    /* DON'T READ IF M$* ISN'T OPEN */
     1712     2330                    /*
     1713     2331                    *  SET UP THE READ FPT
     1714     2332                    */
     1715     2333    1   READAMR:;
     1716     2334    1      RSTARA=RSTARC;

   2334  1 000104   000100 100400                    MLR     fill='000'O
         1 000105   000000 000070 0                  ADSC9   RSTARC                   cn=0,n=56
         1 000106   200010 000070                    ADSC9   RSTARA,,AUTO             cn=0,n=56

     1717     2335    1      RSTARA.V_=VECTOR(RSTARA.V);

   2335  1 000107   000004 235000 2                  LDA     4
         1 000110   200026 452500                    STP2    RSTARA+14,,AUTO
         1 000111   200026 236100                    LDQ     RSTARA+14,,AUTO
         1 000112   000020 036003                    ADLQ    16,DU
         1 000113   200010 757100                    STAQ    RSTARA,,AUTO

PL6.E3A0      #003=FMM$GETAMR File=FMM$OPN.:E05TSI                               TUE 07/29/97 16:53 Page:301
     1718     2336    1      RSTARA.BUF_.BOUND=4095;

   2336  1 000114   200014 236100                    LDQ     RSTARA+4,,AUTO
         1 000115   177777 376007                    ANQ     65535,DL
         1 000116   000005 276000 2                  ORQ     5
         1 000117   200014 756100                    STQ     RSTARA+4,,AUTO

     1719     2337                    /*
     1720     2338                    *  TRY FOR A PROCESSOR CALL LINE RECORD IF DCBNAME.X ISNT 0
     1721     2339                    */
     1722     2340    1      I=F$DCB.DCBNAME.X;

   2340  1 000120   200003 471500                    LDP1    @JDCB$,,AUTO
         1 000121   100000 473500                    LDP3    0,,PR1
         1 000122   300140 236100                    LDQ     96,,PR3
         1 000123   000041 772000                    QRL     33
         1 000124   200005 756100                    STQ     I,,AUTO

     1723     2341    1      RSTARA.KEY_=VECTOR(AMRKEY);

   2341  1 000125   200004 474500                    LDP4    @BUF$,,AUTO
         1 000126   400000 475500                    LDP5    0,,PR4
         1 000127   000006 235000 2                  LDA     6
         1 000130   200026 455500                    STP5    RSTARA+14,,AUTO
         1 000131   200026 236100                    LDQ     RSTARA+14,,AUTO
         1 000132   200012 757100                    STAQ    RSTARA+2,,AUTO

   2341  1 000133                       RETRY        null
     1724     2342    1   RETRY:;
     1725     2343    1      AMRKEY.L=F$DCB.DCBNAME.L;

   2343  1 000133   200004 470500                    LDP0    @BUF$,,AUTO
         1 000134   000000 471500                    LDP1    0,,PR0
         1 000135   200003 473500                    LDP3    @JDCB$,,AUTO
         1 000136   300000 474500                    LDP4    0,,PR3
         1 000137   400140 236100                    LDQ     96,,PR4
         1 000140   037000 376003                    ANQ     15872,DU
PL6.E3A0      #003=FMM$GETAMR File=FMM$OPN.:E05TSI                               TUE 07/29/97 16:53 Page:302
         1 000141   100000 552140                    STBQ    0,'40'O,PR1

     1726     2344    1      AMRKEY.N=F$DCB.DCBNAME.N;

   2344  1 000142   000000 471500                    LDP1    0,,PR0
         1 000143   300000 474500                    LDP4    0,,PR3
         1 000144   400140 236100                    LDQ     96,,PR4
         1 000145   000033 772000                    QRL     27
         1 000146   000037 376007                    ANQ     31,DL
         1 000147   000000 620006                    EAX0    0,QL
         1 000150   040100 100540                    MLR     fill='040'O
         1 000151   400140 200010                    ADSC9   96,,PR4                  cn=1,n=*X0
         1 000152   100000 200037                    ADSC9   0,,PR1                   cn=1,n=31

     1727     2345    1      IF I~=0 THEN AMRKEY='002043060'O|BINBIT(I,27);

   2345  1 000153   200005 235100                    LDA     I,,AUTO
         1 000154   000165 600000 1                  TZE     s:2346

   2345  1 000155   000000 471500                    LDP1    0,,PR0
         1 000156   200005 236100                    LDQ     I,,AUTO
         1 000157   000011 736000                    QLS     9
         1 000160   000017 276000 0                  ORQ     STARA+1
         1 000161   200026 756100                    STQ     RSTARA+14,,AUTO
         1 000162   000100 100500                    MLR     fill='000'O
         1 000163   200026 000004                    ADSC9   RSTARA+14,,AUTO          cn=0,n=4
         1 000164   100000 000040                    ADSC9   0,,PR1                   cn=0,n=32

     1728     2346    1      RSTARA.BUF_.BUF$=BUF$;

   2346  1 000165   000000 236100                    LDQ     0,,PR0
         1 000166   200015 756100                    STQ     RSTARA+5,,AUTO

     1729     2347    1      RSTARA.V.DCB#=1; /* DCBNUM IS ONE FOR M$STAR */

   2347  1 000167   000001 220003                    LDX0    1,DU
         1 000170   200020 740100                    STX0    RSTARA+8,,AUTO
PL6.E3A0      #003=FMM$GETAMR File=FMM$OPN.:E05TSI                               TUE 07/29/97 16:53 Page:303

     1730     2348
     1731     2349    1      CALL M$MREAD(RSTARA)ALTRET(NOTREAD);

   2349  1 000171   200010 631500                    EPPR1   RSTARA,,AUTO
         1 000172   200026 451500                    STP1    RSTARA+14,,AUTO
         1 000173   200026 630500                    EPPR0   RSTARA+14,,AUTO
         1 000174   000017 631400 xsym               EPPR1   B_VECTNIL+15
         1 000175   000000 701000 xent               TSX1    M$MREAD
         1 000176   000220 702000 1                  TSX2    NOTREAD

     1732     2350    1      IF I~=0 THEN F$DCB.FEXTX=I;

   2350  1 000177   200005 235100                    LDA     I,,AUTO
         1 000200   000206 600000 1                  TZE     s:2351

   2350  1 000201   200003 470500                    LDP0    @JDCB$,,AUTO
         1 000202   000000 471500                    LDP1    0,,PR0
         1 000203   200005 236100                    LDQ     I,,AUTO
         1 000204   000011 736000                    QLS     9
         1 000205   100034 552110                    STBQ    28,'10'O,PR1

     1733     2351    2      IF ENT#<0 THEN DO;

   2351  1 000206   200006 236100                    LDQ     ENT#,,AUTO
         1 000207   000217 605000 1                  TPL     s:2355

     1734     2352    2         CALL FMP$CLSTAR;

   2352  1 000210   000002 631400 xsym               EPPR1   B_VECTNIL+2
         1 000211   000000 701000 xent               TSX1    FMP$CLSTAR
         1 000212   000000 011000                    NOP     0

     1735     2353    2         B$JIT.DCB$=JDCB$;

   2353  1 000213   200003 470500                    LDP0    @JDCB$,,AUTO
         1 000214   000000 236100                    LDQ     0,,PR0
PL6.E3A0      #003=FMM$GETAMR File=FMM$OPN.:E05TSI                               TUE 07/29/97 16:53 Page:304
         1 000215   000000 471400 xsym               LDP1    B$JIT$
         1 000216   100232 756100                    STQ     154,,PR1

     1736     2354    2         END;

     1737     2355    1      RETURN;

   2355  1 000217   000000 702200 xent               TSX2  ! X66_ARET

     1738     2356
     1739     2357                    /*
     1740     2358                    *  IF ANY ERROR OCCURRED ON THE READ, THEN THE ERROR CODE IS
     1741     2359                    *  IN JIT.ERR.CODE.  THE CALLER MUST CHECK THIS AT THE
     1742     2360                    *  ALTRET ENTRY.
     1743     2361                    */
     1744     2362    1   NOTREAD:
     1745     2363    2      IF I=0 THEN DO;

   2363  1 000220   200005 235100       NOTREAD      LDA     I,,AUTO
         1 000221   000233 601000 1                  TNZ     s:2367

     1746     2364    2         IF F$DCB.DCBNAME.X=3 THEN F$DCB.FEXTX=3;

   2364  1 000222   200003 470500                    LDP0    @JDCB$,,AUTO
         1 000223   000000 471500                    LDP1    0,,PR0
         1 000224   100140 236100                    LDQ     96,,PR1
         1 000225   700000 376003                    ANQ     -32768,DU
         1 000226   300000 116003                    CMPQ    98304,DU
         1 000227   000232 601000 1                  TNZ     s:2365

   2364  1 000230   003000 236007                    LDQ     1536,DL
         1 000231   100034 552110                    STBQ    28,'10'O,PR1

     1747     2365    2         GOTO RETALT;

   2365  1 000232   000270 710000 1                  TRA     RETALT

PL6.E3A0      #003=FMM$GETAMR File=FMM$OPN.:E05TSI                               TUE 07/29/97 16:53 Page:305
     1748     2366    2         END;
     1749     2367    1      IF ADDR(F$DCB.DCBNAME)->DCBNAME.M$='04115044'O /* M$.. */

   2367  1 000233   200003 470500                    LDP0    @JDCB$,,AUTO
         1 000234   000000 471500                    LDP1    0,,PR0
         1 000235   000000 066500                    CMPB    filb='0'B
         1 000236   100140 030030                    BDSC    96,,PR1                  by=0,bit=3,n=24
         1 000237   000020 000030 0                  BDSC    STARA+2                  by=0,bit=0,n=24
         1 000240   000266 601000 1                  TNZ     s:2371

     1750     2368    2      THEN DO I=4 TO F_NUMOPS;

   2368  1 000241   000004 236007                    LDQ     4,DL
         1 000242   200005 756100                    STQ     I,,AUTO

     1751     2369    2         IF F_OPLBL(I)=SUBSTR(F$DCB.DCBNAME.N,2,2) THEN F$DCB.FEXTX=I;

   2369  1 000243   200003 470500                    LDP0    @JDCB$,,AUTO
         1 000244   000000 471500                    LDP1    0,,PR0
         1 000245   100140 236100                    LDQ     96,,PR1
         1 000246   000033 772000                    QRL     27
         1 000247   000037 376007                    ANQ     31,DL
         1 000250   200005 235100                    LDA     I,,AUTO
         1 000251   000001 735000                    ALS     1
         1 000252   040100 106405                    CMPC    fill='040'O
         1 000253   000000 000002 xsym               ADSC9   F_OPLBL,A                cn=0,n=2
         1 000254   100140 600002                    ADSC9   96,,PR1                  cn=3,n=2
         1 000255   000261 601000 1                  TNZ     s:2370

   2369  1 000256   200005 236100                    LDQ     I,,AUTO
         1 000257   000011 736000                    QLS     9
         1 000260   100034 552110                    STBQ    28,'10'O,PR1

     1752     2370    2         END;

   2370  1 000261   200005 236100                    LDQ     I,,AUTO
         1 000262   000001 036007                    ADLQ    1,DL
PL6.E3A0      #003=FMM$GETAMR File=FMM$OPN.:E05TSI                               TUE 07/29/97 16:53 Page:306
         1 000263   200005 756100                    STQ     I,,AUTO
         1 000264   000021 116007                    CMPQ    17,DL
         1 000265   000243 602000 1                  TNC     s:2369

     1753     2371    1      I=0;

   2371  1 000266   200005 450100                    STZ     I,,AUTO

     1754     2372    1      GOTO RETRY;

   2372  1 000267   000133 710000 1                  TRA     RETRY

   2371  1 000270                       RETALT       null
     1755     2373    1   RETALT:;
     1756     2374    2      IF ENT#<0 THEN DO;

   2374  1 000270   200006 235100                    LDA     ENT#,,AUTO
         1 000271   000305 605000 1                  TPL     s:2379

     1757     2375    2         CALL FMP$CLSTAR;

   2375  1 000272   000002 631400 xsym               EPPR1   B_VECTNIL+2
         1 000273   000000 701000 xent               TSX1    FMP$CLSTAR
         1 000274   000000 011000                    NOP     0

     1758     2376    2         B$JIT.DCB$=JDCB$;

   2376  1 000275   200003 470500                    LDP0    @JDCB$,,AUTO
         1 000276   000000 236100                    LDQ     0,,PR0
         1 000277   000000 471400 xsym               LDP1    B$JIT$
         1 000300   100232 756100                    STQ     154,,PR1

     1759     2377    2         CALL FMD$RELBUF(0);

   2377  1 000301   000000 630400 2                  EPPR0   0
         1 000302   000017 631400 xsym               EPPR1   B_VECTNIL+15
         1 000303   000000 701000 xent               TSX1    FMD$RELBUF
PL6.E3A0      #003=FMM$GETAMR File=FMM$OPN.:E05TSI                               TUE 07/29/97 16:53 Page:307
         1 000304   000000 011000                    NOP     0

     1760     2378    2         END;

     1761     2379    1      ALTRETURN;

   2379  1 000305   000000 702200 xent               TSX2  ! X66_AALT

RSTARC
 Sect OctLoc
   0     000   000005 777640   000010 006000   000000 177640   000000 006014    ................
   0     004   000000 177640   000000 006014   000000 177640   000000 006014    ................
   0     010   000000 600000   000000 000000   000000 000000   000000 000000    ................
   0     014   000000 000000   000000 000000                                    ........

STARA
 Sect OctLoc
   0     016   002052 101***                                                    .*A.

(unnamed)
 Sect OctLoc
   0     017   002043 060000   041150 440000                                    .#0.!h..

(unnamed)
 Sect OctLoc
   2     000   000002 006000   000003 006000   000000 006003   777007 777777    ................
   2     004   000005 777640   001777 600000   000007 777640                    ............
     1762     2380    1   END FMM$GETAMR;
     1763     2381        %EOD;

PL6.E3A0      #003=FMM$GETAMR File=FMM$OPN.:E05TSI                               TUE 07/29/97 16:53 Page:308
--  Include file information  --

   FM_OPLBL_R.:E05TOU  cannot be made into a system file and is referenced.
   B$JIT_C.:E05TOU  is referenced.
   F$JIT_C.:E05TOU  cannot be made into a system file and is referenced.
   F_CP6.:E05TOU  is referenced.
   F$DCB.:E05TOU  is referenced.
   CP_6_SUBS.:E05TOU  is referenced.
      No diagnostics issued in procedure FMM$GETAMR.
PL6.E3A0      #003=FMM$GETAMR File=FMM$OPN.:E05TSI                               TUE 07/29/97 16:53 Page:309

 **** Variables and constants ****

  ****  Section 000 RoData FMM$GETAMR

  ****  Scalars and arrays  ****
OctLoc.c.b A Datatyp(siz) R M Lvl/name                 OctLoc.c.b A Datatyp(siz) R M Lvl/name

     0-0-0/d STRC(504)   r     1 RSTARC                    16-0-0/c STRC(27)    r     1 STARA

  ****  Auto variables  ****

  ****  Scalars and arrays  ****
OctLoc.c.b A Datatyp(siz) R M Lvl/name                 OctLoc.c.b A Datatyp(siz) R M Lvl/name

     4-0-0/w PTR         r     1 @BUF$                      3-0-0/w PTR         r     1 @JDCB$
    *0-0-0/w PTR         r     1 BUF$                       6-0-0/w SBIN        r     1 ENT#
     5-0-0/w UBIN        r     1 I                         *0-0-0/w PTR         r     1 JDCB$
    10-0-0/d STRC(504)   r     1 RSTARA

  ****  SYMREF variables  ****

  ****  Scalars and arrays  ****
OctLoc.c.b A Datatyp(siz) R M Lvl/name                 OctLoc.c.b A Datatyp(siz) R M Lvl/name

     0-0-0/w PTR         r     1 B$JIT$                     0-0-0/c CHAR(2)     r     1 F_OPLBL(0:8191)

  ****  BASED and DCB variables  ****

  ****  Scalars and arrays  ****
OctLoc.c.b A Datatyp(siz) R M Lvl/name                 OctLoc.c.b A Datatyp(siz) R M Lvl/name

     0-0-0/w STRC(288)   r     1 AMRKEY                     0-0-0/d STRC(8856)  r     1 B$JIT
     0-0-0/w STRC(27)    r     1 DCBNAME                    0-0-0/d ASTR(3528)  r     1 F$DCB


   Procedure FMM$GETAMR requires 198 words for executable code.
PL6.E3A0      #003=FMM$GETAMR File=FMM$OPN.:E05TSI                               TUE 07/29/97 16:53 Page:310
   Procedure FMM$GETAMR requires 26 words of local(AUTO) storage.
PL6.E3A0      #003=FMM$GETAMR File=FMM$OPN.:E05TSI                               TUE 07/29/97 16:53 Page:311
          *** CROSS REFERENCE LISTING ***
**     DENOTES     IDENTIFIER DEFINITION
<<                 IDENTIFIER'S VALUE SET
>>                 IDENTIFIER'S VALUE USED
<>                 IDENTIFIER SET AND/OR USED
--                 IDENTIFIER REFERENCED
PL6.E3A0      #003=FMM$GETAMR File=FMM$OPN.:E05TSI                               TUE 07/29/97 16:53 Page:312
          MINI XREF LISTING

AMRKEY
      2230**DCL      2341--ASSIGN   2345<<ASSIGN
AMRKEY.L
      2231**DCL      2343<<ASSIGN
AMRKEY.N
      2232**DCL      2344<<ASSIGN
B$JIT.DCB$
      2149**DCL      2310<<ASSIGN   2315>>IF       2317>>ASSIGN   2318>>ASSIGN   2319>>ASSIGN   2320>>ASSIGN
      2321>>ASSIGN   2328>>IF       2353<<ASSIGN   2376<<ASSIGN
B$JIT.ERR
      2059**DCL      2316<<ASSIGN
B$JIT.ERR.CODE
      2060**DCL      2323>>IF
B$JIT.ERR.MID
      2060**DCL      2060--REDEF
B$JIT$
      2229**DCL      2054--IMP-PTR  2310>>ASSIGN   2315>>IF       2316>>ASSIGN   2317>>ASSIGN   2318>>ASSIGN
      2319>>ASSIGN   2320>>ASSIGN   2321>>ASSIGN   2323>>IF       2328>>IF       2353>>ASSIGN   2376>>ASSIGN
BUF$
      2181**DCL        32--PROC     2230--IMP-PTR  2309<>CALL     2326--ENTRY    2341>>ASSIGN   2343>>ASSIGN
      2344>>ASSIGN   2345>>ASSIGN   2346>>ASSIGN
DCBNAME.M$
      2235**DCL      2367>>IF
ENT#
      2186**DCL      2308<<ASSIGN   2313<<ASSIGN   2324>>IF       2327<<ASSIGN   2351>>IF       2374>>IF
F$DCB.ACTPOS
       683**DCL       683--REDEF
F$DCB.AMFLG
       687**DCL      2321<<ASSIGN
F$DCB.ARS
       658**DCL       658--REDEF
F$DCB.ASN
PL6.E3A0      #003=FMM$GETAMR File=FMM$OPN.:E05TSI                               TUE 07/29/97 16:53 Page:313
       673**DCL      2318<<ASSIGN
F$DCB.ATTR
       676**DCL       677--REDEF
F$DCB.BORROW
       691**DCL       691--REDEF     691--REDEF     691--REDEF
F$DCB.DCBNAME
       704**DCL      2367--IF
F$DCB.DCBNAME.L
       705**DCL       705--IMP-SIZ  2343>>ASSIGN   2344>>ASSIGN   2369>>IF
F$DCB.DCBNAME.N
       705**DCL      2344>>ASSIGN   2369>>IF
F$DCB.DCBNAME.X
       704**DCL      2340>>ASSIGN   2364>>IF
F$DCB.EOMCHAR
       662**DCL       662--REDEF
F$DCB.FCD
       671**DCL      2315>>IF       2328>>IF
F$DCB.FEXTX
       674**DCL      2350<<ASSIGN   2364<<ASSIGN   2369<<ASSIGN
F$DCB.FLDID
       686**DCL       686--REDEF
F$DCB.FORM$
       680**DCL       680--REDEF
F$DCB.FSECT
       696**DCL       696--REDEF
F$DCB.FSN
       673**DCL       673--REDEF     673--REDEF     674--REDEF
F$DCB.FUN
       672**DCL      2319<<ASSIGN
F$DCB.HEADER$
       679**DCL       679--REDEF
F$DCB.IXTNSIZE
       677**DCL       677--REDEF
F$DCB.LASTSTA$
       667**DCL       667--REDEF
F$DCB.LVL
PL6.E3A0      #003=FMM$GETAMR File=FMM$OPN.:E05TSI                               TUE 07/29/97 16:53 Page:314
       692**DCL       692--REDEF
F$DCB.NAME
       667**DCL      2317<<ASSIGN
F$DCB.NAME.C
       667**DCL       667--REDEF
F$DCB.NOEOF
       688**DCL       688--REDEF
F$DCB.NRECS
       678**DCL       678--REDEF
F$DCB.NRECX
       697**DCL       697--REDEF
F$DCB.OHDR
       689**DCL       689--REDEF
F$DCB.ORG
       672**DCL       672--REDEF
F$DCB.PRECNO
       695**DCL       695--REDEF
F$DCB.RCSZ
       700**DCL       700--REDEF
F$DCB.RES
       668**DCL       668--REDEF
F$DCB.SETX
       680**DCL       680--REDEF
F$DCB.SHARE
       671**DCL      2320<<ASSIGN
F$DCB.TAB$
       679**DCL       680--REDEF
F$DCB.TDA
       694**DCL       694--REDEF
F$DCB.WSN
       669**DCL       669--REDEF
FMD$GETBUF
       602**DCL-ENT  2309--CALL
FMD$RELBUF
       603**DCL-ENT  2377--CALL
FMM$DFLOPNP
PL6.E3A0      #003=FMM$GETAMR File=FMM$OPN.:E05TSI                               TUE 07/29/97 16:53 Page:315
       604**DCL-ENT  2322--CALL
FMP$CLSTAR
       605**DCL-ENT  2315--CALL     2352--CALL     2375--CALL
F_OPLBL
      2171**DCL      2369>>IF
I
      2185**DCL      2340<<ASSIGN   2345>>IF       2345>>ASSIGN   2350>>IF       2350>>ASSIGN   2363>>IF
      2368<<DOINDEX  2369>>IF       2369>>ASSIGN   2371<<ASSIGN
JDCB$
      2180**DCL        32--PROC      658--IMP-PTR  2326--ENTRY    2340>>ASSIGN   2343>>ASSIGN   2344>>ASSIGN
      2344>>ASSIGN   2350>>ASSIGN   2353>>ASSIGN   2364>>IF       2364>>ASSIGN   2367>>IF       2369>>IF
      2369>>IF       2369>>ASSIGN   2376>>ASSIGN
M$MREAD
      2176**DCL-ENT  2349--CALL
NOTREAD
      2363**LABEL    2349--CALLALT
OPNAMR
      2313**LABEL    2311--GOTO
READAMR
      2328**LABEL    2325--GOTO
RETALT
      2371**LABEL    2323--GOTO     2365--GOTO
RETRY
      2341**LABEL    2372--GOTO
RSTARA
      2204**DCL      2334<<ASSIGN   2349<>CALL
RSTARA.BUF_.BOUND
      2206**DCL      2336<<ASSIGN
RSTARA.BUF_.BUF$
      2207**DCL      2346<<ASSIGN
RSTARA.KEY_
      2204**DCL      2341<<ASSIGN
RSTARA.STATION_
      2207**DCL      2208--REDEF
RSTARA.V
      2208**DCL      2335--ASSIGN
PL6.E3A0      #003=FMM$GETAMR File=FMM$OPN.:E05TSI                               TUE 07/29/97 16:53 Page:316
RSTARA.V.DCB#
      2208**DCL      2347<<ASSIGN
RSTARA.V.DVBYTE.REREAD#
      2219**DCL      2219--REDEF
RSTARA.V.INDX#
      2217**DCL      2217--REDEF
RSTARA.V_
      2204**DCL      2335<<ASSIGN
RSTARC
      2256**DCL      2334>>ASSIGN
RSTARC.STATION_
      2259**DCL      2260--REDEF
RSTARC.V
      2260**DCL      2256--DCLINIT
RSTARC.V.DVBYTE.REREAD#
      2271**DCL      2271--REDEF
RSTARC.V.INDX#
      2269**DCL      2269--REDEF
STARA
      2303**DCL      2317>>ASSIGN

PL6.E3A0      #004=FMM$SCRAMBLE File=FMM$OPN.:E05TSI                             TUE 07/29/97 16:53 Page:317
     1764        1        /*T***********************************************************/
     1765        2        /*T*                                                         */
     1766        3        /*T* Copyright (c) Bull HN Information Systems Inc., 1997    */
     1767        4        /*T*                                                         */
     1768        5        /*T***********************************************************/
     1769        6                    /*F*  NAME:   FMM$SCRAMBLE
     1770        7                    *     PURPOSE:  SCRAMBLE THE PASSWORD INTO A NON REVERSABLE
     1771        8                    *               BIT PATTERN.
     1772        9                    */
     1773       10        FMM$SCRAMBLE: PROC(PASS);
     1774       11                    /**/
     1775       12                    /* PARAMETER DATA */
     1776       13                    /**/
     1777       14    1   DCL 1 PASS ALIGNED,
     1778       15    1         2 WD(0:5),
     1779       16    1           3 A UBIN(6)UNAL,
     1780       17    1           3 B UBIN(6)UNAL;
     1781       18    1   DCL 1 RSLT REDEF PASS ALIGNED,
     1782       19    1         2 AB BIT(36),
     1783       20    1         2 BB BIT(36);
     1784       21                    /**/
     1785       22                    /* EXT DATA */
     1786       23                    /**/
     1787       24        %INCLUDE F$DCB;
     1788       73        %INCLUDE F$JIT_C;
     1789      503    1   DCL B$JIT$ PTR SYMREF;
     1790      504    1   DCL 1 P2,
     1791      505    1         2 X,
     1792      506    1           3 A SBIN,
     1793      507    1           3 AB REDEF A BIT(36),
     1794      508    1           3 B SBIN,
     1795      509    1           3 BB REDEF B BIT(36),
     1796      510    1         2 B(0:71) REDEF X BIT(1),
     1797      511    1         2 Y,
     1798      512    1           3 A SBIN,
     1799      513    1           3 B SBIN,
     1800      514    1         2 Z,
PL6.E3A0      #004=FMM$SCRAMBLE File=FMM$OPN.:E05TSI                             TUE 07/29/97 16:53 Page:318
     1801      515    1           3 A UBIN,
     1802      516    1           3 B UBIN,
     1803      517    1         2 I SBIN,
     1804      518    1         2 IB REDEF I BIT(36),
     1805      519    1         2 J SBIN,
     1806      520    1         2 JB REDEF J BIT(36);
     1807      521    1   DCL CNAME REDEF P2 CHAR(32);
     1808      522    1   DCL PBASED BASED BIT(72);
     1809      523    1   DCL PNAME BASED CHAR(P2.I);
     1810      524        %EJECT;
PL6.E3A0      #004=FMM$SCRAMBLE File=FMM$OPN.:E05TSI                             TUE 07/29/97 16:53 Page:319
     1811      525    1      P2.X.A=7777;
     1812      526    1      P2.X.B=3333;
     1813      527    2      DO P2.I=0 TO 5;
     1814      528    2         P2.B(35)='1'B;
     1815      529    2         P2.B(71)='1'B;
     1816      530    2         P2.Y=P2.X;
     1817      531    2         P2.J=-3;
     1818      532    3         DO WHILE(P2.J<PASS.WD.A(P2.I));
     1819      533    3            P2.X.A=P2.X.A*P2.Y.B;
     1820      534    3            P2.X.B=P2.X.B*P2.Y.A;
     1821      535    3            P2.J=P2.J+1;
     1822      536    3            END;
     1823      537    2         P2.Y=P2.X;
     1824      538    2         P2.X=ADDR(P2.B(PASS.WD.B(P2.I)+4))->PBASED;
     1825      539    2         P2.X.BB=P2.X.BB\P2.X.AB;
     1826      540    2         END;
     1827      541    1      PASS=P2.X;
     1828      542    1      RETURN;
     1829      543    1   FMM$NSTAMP: ENTRY(PASS);
     1830      544    1      P2.I=B$JIT.DCB$->F$DCB.NAME.L+1;
     1831      545    1      CNAME=ADDR(B$JIT.DCB$->F$DCB.NAME)->PNAME;
     1832      546    1      P2.J=P2.J+P2.I*3+P2.Z.B*5+P2.Z.A*7+P2.Y.B*11+P2.Y.A*13+P2.X.B*17;
     1833      547    1      RSLT.AB=P2.X.AB\P2.JB;
     1834      548    1      RETURN;
     1835      549    1   END FMM$SCRAMBLE;
     1836      550        %EOD;

PL6.E3A0      #004=FMM$SCRAMBLE File=FMM$OPN.:E05TSI                             TUE 07/29/97 16:53 Page:320
--  Include file information  --

   B$JIT_C.:E05TOU  is referenced.
   F$JIT_C.:E05TOU  cannot be made into a system file and is referenced.
   F$DCB.:E05TOU  cannot be made into a system file and is referenced.
      No diagnostics issued in procedure FMM$SCRAMBLE.

   Procedure FMM$SCRAMBLE requires 108 words for executable code.
   Procedure FMM$SCRAMBLE requires 18 words of local(AUTO) storage.

PL6.E3A0      #004=FMM$SCRAMBLE File=FMM$OPN.:E05TSI                             TUE 07/29/97 16:53 Page:321

 Object Unit name= FMM$SCRAMBLE                               File name= FMM$OPN.:E05TOU
 UTS= JUL 29 '97 16:53:44.40 TUE                              Compiler= PL-6/E31         Sev=      00
 SharedLib= :SHARED_SYSTEM                                    Alt SharedLib=


    ****  Control sections  ****

 Sect   Type Bound  Init  Size OctSiz  Section name(segment info)
    0   Proc  even  none   108    154  FMM$SCRAMBLE

    ****  Entry defs  ****

                              Check   Calling
                             calling  sequence
  Sect OctLoc Primary Altret sequence   type   Parms  Name
     0      0   yes            yes      Std        1  FMM$SCRAMBLE
     0    103                  yes      Std        1  FMM$NSTAMP

  ****  Entry refs  ****

         Check        Calling
        calling       sequence
Altret sequence SRef   type   Args  Name
                       nStd      0 X66_AUTO_1
                       nStd      0 X66_ARET

  ****  Data refs  ****

  Flags:  r = read only, s = secondary
Flgs Name                             Flgs Name                             Flgs Name
     B$JIT$
PL6.E3A0      #004=FMM$SCRAMBLE File=FMM$OPN.:E05TSI                             TUE 07/29/97 16:53 Page:322


     1764        1        /*T***********************************************************/
     1765        2        /*T*                                                         */
     1766        3        /*T* Copyright (c) Bull HN Information Systems Inc., 1997    */
     1767        4        /*T*                                                         */
     1768        5        /*T***********************************************************/
     1769        6                    /*F*  NAME:   FMM$SCRAMBLE
     1770        7                    *     PURPOSE:  SCRAMBLE THE PASSWORD INTO A NON REVERSABLE
     1771        8                    *               BIT PATTERN.
     1772        9                    */
     1773       10        FMM$SCRAMBLE: PROC(PASS);

     10  0 000000   000000 700200 xent  FMM$SCRAMBLE TSX0  ! X66_AUTO_1
         0 000001   000022 000001                    ZERO    18,1

     1774       11                    /**/
     1775       12                    /* PARAMETER DATA */
     1776       13                    /**/
     1777       14    1   DCL 1 PASS ALIGNED,
     1778       15    1         2 WD(0:5),
     1779       16    1           3 A UBIN(6)UNAL,
     1780       17    1           3 B UBIN(6)UNAL;
     1781       18    1   DCL 1 RSLT REDEF PASS ALIGNED,
     1782       19    1         2 AB BIT(36),
     1783       20    1         2 BB BIT(36);
     1784       21                    /**/
     1785       22                    /* EXT DATA */
     1786       23                    /**/
     1787       24        %INCLUDE F$DCB;
     1788       73        %INCLUDE F$JIT_C;
     1789      503    1   DCL B$JIT$ PTR SYMREF;
     1790      504    1   DCL 1 P2,
     1791      505    1         2 X,
     1792      506    1           3 A SBIN,
     1793      507    1           3 AB REDEF A BIT(36),
     1794      508    1           3 B SBIN,
     1795      509    1           3 BB REDEF B BIT(36),
PL6.E3A0      #004=FMM$SCRAMBLE File=FMM$OPN.:E05TSI                             TUE 07/29/97 16:53 Page:323
     1796      510    1         2 B(0:71) REDEF X BIT(1),
     1797      511    1         2 Y,
     1798      512    1           3 A SBIN,
     1799      513    1           3 B SBIN,
     1800      514    1         2 Z,
     1801      515    1           3 A UBIN,
     1802      516    1           3 B UBIN,
     1803      517    1         2 I SBIN,
     1804      518    1         2 IB REDEF I BIT(36),
     1805      519    1         2 J SBIN,
     1806      520    1         2 JB REDEF J BIT(36);
     1807      521    1   DCL CNAME REDEF P2 CHAR(32);
     1808      522    1   DCL PBASED BASED BIT(72);
     1809      523    1   DCL PNAME BASED CHAR(P2.I);
     1810      524        %EJECT;
PL6.E3A0      #004=FMM$SCRAMBLE File=FMM$OPN.:E05TSI                             TUE 07/29/97 16:53 Page:324
     1811      525    1      P2.X.A=7777;

    525  0 000002   017141 235007                    LDA     7777,DL
         0 000003   200004 755100                    STA     P2,,AUTO

     1812      526    1      P2.X.B=3333;

    526  0 000004   006405 236007                    LDQ     3333,DL
         0 000005   200005 756100                    STQ     P2+1,,AUTO

     1813      527    2      DO P2.I=0 TO 5;

    527  0 000006   200012 450100                    STZ     P2+6,,AUTO

     1814      528    2         P2.B(35)='1'B;

    528  0 000007   000001 236007                    LDQ     1,DL
         0 000010   200004 256100                    ORSQ    P2,,AUTO

     1815      529    2         P2.B(71)='1'B;

    529  0 000011   200005 256100                    ORSQ    P2+1,,AUTO

     1816      530    2         P2.Y=P2.X;

    530  0 000012   200004 237100                    LDAQ    P2,,AUTO
         0 000013   200006 757100                    STAQ    P2+2,,AUTO

     1817      531    2         P2.J=-3;

    531  0 000014   000003 335007                    LCA     3,DL
         0 000015   200013 755100                    STA     P2+7,,AUTO

     1818      532    3         DO WHILE(P2.J<PASS.WD.A(P2.I));

    532  0 000016   200012 235100                    LDA     P2+6,,AUTO
         0 000017   000001 735000                    ALS     1
PL6.E3A0      #004=FMM$SCRAMBLE File=FMM$OPN.:E05TSI                             TUE 07/29/97 16:53 Page:325
         0 000020   000022 605000 0                  TPL     s:532+4
         0 000021   000006 035003                    ADLA    6,DU
         0 000022   200003 470500                    LDP0    @PASS,,AUTO
         0 000023   000100 101505                    MRL     fill='000'O
         0 000024   000000 020001                    ADSC6   0,A,PR0                  cn=0,n=1
         0 000025   200014 020006                    ADSC6   P2+8,,AUTO               cn=0,n=6
         0 000026   200014 236100                    LDQ     P2+8,,AUTO
         0 000027   200013 116100                    CMPQ    P2+7,,AUTO
         0 000030   000053 604400 0                  TMOZ    s:537

     1819      533    3            P2.X.A=P2.X.A*P2.Y.B;

    533  0 000031   200004 236100                    LDQ     P2,,AUTO
         0 000032   200007 402100                    MPY     P2+3,,AUTO
         0 000033   200004 756100                    STQ     P2,,AUTO

     1820      534    3            P2.X.B=P2.X.B*P2.Y.A;

    534  0 000034   200005 236100                    LDQ     P2+1,,AUTO
         0 000035   200006 402100                    MPY     P2+2,,AUTO
         0 000036   200005 756100                    STQ     P2+1,,AUTO

     1821      535    3            P2.J=P2.J+1;

    535  0 000037   200013 054100                    AOS     P2+7,,AUTO

     1822      536    3            END;

    536  0 000040   200012 235100                    LDA     P2+6,,AUTO
         0 000041   000001 735000                    ALS     1
         0 000042   000044 605000 0                  TPL     s:536+4
         0 000043   000006 035003                    ADLA    6,DU
         0 000044   200003 470500                    LDP0    @PASS,,AUTO
         0 000045   000100 101505                    MRL     fill='000'O
         0 000046   000000 020001                    ADSC6   0,A,PR0                  cn=0,n=1
         0 000047   200014 020006                    ADSC6   P2+8,,AUTO               cn=0,n=6
         0 000050   200014 236100                    LDQ     P2+8,,AUTO
PL6.E3A0      #004=FMM$SCRAMBLE File=FMM$OPN.:E05TSI                             TUE 07/29/97 16:53 Page:326
         0 000051   200013 116100                    CMPQ    P2+7,,AUTO
         0 000052   000031 605400 0                  TPNZ    s:533

     1823      537    2         P2.Y=P2.X;

    537  0 000053   200004 237100                    LDAQ    P2,,AUTO
         0 000054   200006 757100                    STAQ    P2+2,,AUTO

     1824      538    2         P2.X=ADDR(P2.B(PASS.WD.B(P2.I)+4))->PBASED;

    538  0 000055   200012 235100                    LDA     P2+6,,AUTO
         0 000056   000001 735000                    ALS     1
         0 000057   000061 605000 0                  TPL     s:538+4
         0 000060   000006 035003                    ADLA    6,DU
         0 000061   000100 101505                    MRL     fill='000'O
         0 000062   000000 120001                    ADSC6   0,A,PR0                  cn=1,n=1
         0 000063   200014 020006                    ADSC6   P2+8,,AUTO               cn=0,n=6
         0 000064   200014 236100                    LDQ     P2+8,,AUTO
         0 000065   003100 060506                    CSL     bolr='003'O
         0 000066   200004 040110                    BDSC    P2,Q,AUTO                by=0,bit=4,n=72
         0 000067   200004 000110                    BDSC    P2,,AUTO                 by=0,bit=0,n=72

     1825      539    2         P2.X.BB=P2.X.BB\P2.X.AB;

    539  0 000070   200005 236100                    LDQ     P2+1,,AUTO
         0 000071   200004 676100                    ERQ     P2,,AUTO
         0 000072   200005 756100                    STQ     P2+1,,AUTO

     1826      540    2         END;

    540  0 000073   200012 054100                    AOS     P2+6,,AUTO
         0 000074   200012 235100                    LDA     P2+6,,AUTO
         0 000075   000005 115007                    CMPA    5,DL
         0 000076   000007 604400 0                  TMOZ    s:528

     1827      541    1      PASS=P2.X;

PL6.E3A0      #004=FMM$SCRAMBLE File=FMM$OPN.:E05TSI                             TUE 07/29/97 16:53 Page:327
    541  0 000077   200004 237100                    LDAQ    P2,,AUTO
         0 000100   000000 755100                    STA     0,,PR0
         0 000101   000001 756100                    STQ     1,,PR0

     1828      542    1      RETURN;

    542  0 000102   000000 702200 xent               TSX2  ! X66_ARET

     1829      543    1   FMM$NSTAMP: ENTRY(PASS);

    543  0 000103   000000 700200 xent  FMM$NSTAMP   TSX0  ! X66_AUTO_1
         0 000104   000022 000001                    ZERO    18,1

     1830      544    1      P2.I=B$JIT.DCB$->F$DCB.NAME.L+1;

    544  0 000105   000000 470400 xsym               LDP0    B$JIT$
         0 000106   000232 471500                    LDP1    154,,PR0
         0 000107   100010 236100                    LDQ     8,,PR1
         0 000110   000033 772000                    QRL     27
         0 000111   000001 036007                    ADLQ    1,DL
         0 000112   200012 756100                    STQ     P2+6,,AUTO

     1831      545    1      CNAME=ADDR(B$JIT.DCB$->F$DCB.NAME)->PNAME;

    545  0 000113   000000 620006                    EAX0    0,QL
         0 000114   040100 100540                    MLR     fill='040'O
         0 000115   100010 000010                    ADSC9   8,,PR1                   cn=0,n=*X0
         0 000116   200004 000040                    ADSC9   P2,,AUTO                 cn=0,n=32

     1832      546    1      P2.J=P2.J+P2.I*3+P2.Z.B*5+P2.Z.A*7+P2.Y.B*11+P2.Y.A*13+P2.X.B*17;

    546  0 000117   200012 236100                    LDQ     P2+6,,AUTO
         0 000120   000003 402007                    MPY     3,DL
         0 000121   200013 036100                    ADLQ    P2+7,,AUTO
         0 000122   200014 756100                    STQ     P2+8,,AUTO
         0 000123   200011 236100                    LDQ     P2+5,,AUTO
         0 000124   000005 402007                    MPY     5,DL
PL6.E3A0      #004=FMM$SCRAMBLE File=FMM$OPN.:E05TSI                             TUE 07/29/97 16:53 Page:328
         0 000125   200014 036100                    ADLQ    P2+8,,AUTO
         0 000126   200015 756100                    STQ     P2+9,,AUTO
         0 000127   200010 236100                    LDQ     P2+4,,AUTO
         0 000130   000007 402007                    MPY     7,DL
         0 000131   200015 036100                    ADLQ    P2+9,,AUTO
         0 000132   200016 756100                    STQ     P2+10,,AUTO
         0 000133   200007 236100                    LDQ     P2+3,,AUTO
         0 000134   000013 402007                    MPY     11,DL
         0 000135   200016 036100                    ADLQ    P2+10,,AUTO
         0 000136   200017 756100                    STQ     P2+11,,AUTO
         0 000137   200006 236100                    LDQ     P2+2,,AUTO
         0 000140   000015 402007                    MPY     13,DL
         0 000141   200017 036100                    ADLQ    P2+11,,AUTO
         0 000142   200020 756100                    STQ     P2+12,,AUTO
         0 000143   200005 236100                    LDQ     P2+1,,AUTO
         0 000144   000021 402007                    MPY     17,DL
         0 000145   200020 036100                    ADLQ    P2+12,,AUTO
         0 000146   200013 756100                    STQ     P2+7,,AUTO

     1833      547    1      RSLT.AB=P2.X.AB\P2.JB;

    547  0 000147   200004 236100                    LDQ     P2,,AUTO
         0 000150   200013 676100                    ERQ     P2+7,,AUTO
         0 000151   200003 473500                    LDP3    @PASS,,AUTO
         0 000152   300000 756100                    STQ     0,,PR3

     1834      548    1      RETURN;

    548  0 000153   000000 702200 xent               TSX2  ! X66_ARET
     1835      549    1   END FMM$SCRAMBLE;
     1836      550        %EOD;

PL6.E3A0      #004=FMM$SCRAMBLE File=FMM$OPN.:E05TSI                             TUE 07/29/97 16:53 Page:329
--  Include file information  --

   B$JIT_C.:E05TOU  is referenced.
   F$JIT_C.:E05TOU  cannot be made into a system file and is referenced.
   F$DCB.:E05TOU  cannot be made into a system file and is referenced.
      No diagnostics issued in procedure FMM$SCRAMBLE.
PL6.E3A0      #004=FMM$SCRAMBLE File=FMM$OPN.:E05TSI                             TUE 07/29/97 16:53 Page:330

 **** Variables and constants ****

  ****  Auto variables  ****

  ****  Scalars and arrays  ****
OctLoc.c.b A Datatyp(siz) R M Lvl/name                 OctLoc.c.b A Datatyp(siz) R M Lvl/name

     3-0-0/w PTR         r     1 @PASS                      4-0-0/w CHAR(32)    r     1 CNAME
     4-0-0/w STRC(288)   r     1 P2                        *0-0-0/w STRC(72)    r     1 PASS
    *0-0-0/w STRC(72)    r     1 RSLT

  ****  SYMREF variables  ****

  ****  Scalars and arrays  ****
OctLoc.c.b A Datatyp(siz) R M Lvl/name                 OctLoc.c.b A Datatyp(siz) R M Lvl/name

     0-0-0/w PTR         r     1 B$JIT$

  ****  BASED and DCB variables  ****

  ****  Scalars and arrays  ****
OctLoc.c.b A Datatyp(siz) R M Lvl/name                 OctLoc.c.b A Datatyp(siz) R M Lvl/name

     0-0-0/d STRC(8856)  r     1 B$JIT                      0-0-0/d ASTR(3528)  r     1 F$DCB
     0-0-0/b BIT (72)    r     1 PBASED                     0-0-0/c ACHR        r     1 PNAME


   Procedure FMM$SCRAMBLE requires 108 words for executable code.
   Procedure FMM$SCRAMBLE requires 18 words of local(AUTO) storage.
PL6.E3A0      #004=FMM$SCRAMBLE File=FMM$OPN.:E05TSI                             TUE 07/29/97 16:53 Page:331
          *** CROSS REFERENCE LISTING ***
**     DENOTES     IDENTIFIER DEFINITION
<<                 IDENTIFIER'S VALUE SET
>>                 IDENTIFIER'S VALUE USED
<>                 IDENTIFIER SET AND/OR USED
--                 IDENTIFIER REFERENCED
PL6.E3A0      #004=FMM$SCRAMBLE File=FMM$OPN.:E05TSI                             TUE 07/29/97 16:53 Page:332
          MINI XREF LISTING

B$JIT.DCB$
       490**DCL       544>>ASSIGN    545>>ASSIGN
B$JIT.ERR.MID
       401**DCL       401--REDEF
B$JIT$
       503**DCL       395--IMP-PTR   544>>ASSIGN    545>>ASSIGN
CNAME
       521**DCL       545<<ASSIGN
F$DCB.ACTPOS
        50**DCL        50--REDEF
F$DCB.ARS
        25**DCL        25--REDEF
F$DCB.ATTR
        43**DCL        44--REDEF
F$DCB.BORROW
        58**DCL        58--REDEF      58--REDEF      58--REDEF
F$DCB.DCBNAME.L
        72**DCL        72--IMP-SIZ
F$DCB.EOMCHAR
        29**DCL        29--REDEF
F$DCB.FLDID
        53**DCL        53--REDEF
F$DCB.FORM$
        47**DCL        47--REDEF
F$DCB.FSECT
        63**DCL        63--REDEF
F$DCB.FSN
        40**DCL        40--REDEF      40--REDEF      41--REDEF
F$DCB.HEADER$
        46**DCL        46--REDEF
F$DCB.IXTNSIZE
        44**DCL        44--REDEF
PL6.E3A0      #004=FMM$SCRAMBLE File=FMM$OPN.:E05TSI                             TUE 07/29/97 16:53 Page:333
F$DCB.LASTSTA$
        34**DCL        34--REDEF
F$DCB.LVL
        59**DCL        59--REDEF
F$DCB.NAME
        34**DCL       545--ASSIGN
F$DCB.NAME.C
        34**DCL        34--REDEF
F$DCB.NAME.L
        34**DCL       544>>ASSIGN
F$DCB.NOEOF
        55**DCL        55--REDEF
F$DCB.NRECS
        45**DCL        45--REDEF
F$DCB.NRECX
        64**DCL        64--REDEF
F$DCB.OHDR
        56**DCL        56--REDEF
F$DCB.ORG
        39**DCL        39--REDEF
F$DCB.PRECNO
        62**DCL        62--REDEF
F$DCB.RCSZ
        67**DCL        67--REDEF
F$DCB.RES
        35**DCL        35--REDEF
F$DCB.SETX
        47**DCL        47--REDEF
F$DCB.TAB$
        46**DCL        47--REDEF
F$DCB.TDA
        61**DCL        61--REDEF
F$DCB.WSN
        36**DCL        36--REDEF
P2
       504**DCL       521--REDEF
PL6.E3A0      #004=FMM$SCRAMBLE File=FMM$OPN.:E05TSI                             TUE 07/29/97 16:53 Page:334
P2.B
       510**DCL       528<<ASSIGN    529<<ASSIGN    538--ASSIGN
P2.I
       517**DCL       518--REDEF     523--IMP-SIZ   527<<DOINDEX   532>>DOWHILE   538>>ASSIGN    544<<ASSIGN
       545>>ASSIGN    546>>ASSIGN
P2.J
       519**DCL       520--REDEF     531<<ASSIGN    532>>DOWHILE   535<<ASSIGN    535>>ASSIGN    546<<ASSIGN
       546>>ASSIGN
P2.JB
       520**DCL       547>>ASSIGN
P2.X
       505**DCL       510--REDEF     530>>ASSIGN    537>>ASSIGN    538<<ASSIGN    541>>ASSIGN
P2.X.A
       506**DCL       507--REDEF     525<<ASSIGN    533<<ASSIGN    533>>ASSIGN
P2.X.AB
       507**DCL       539>>ASSIGN    547>>ASSIGN
P2.X.B
       508**DCL       509--REDEF     526<<ASSIGN    534<<ASSIGN    534>>ASSIGN    546>>ASSIGN
P2.X.BB
       509**DCL       539<<ASSIGN    539>>ASSIGN
P2.Y
       511**DCL       530<<ASSIGN    537<<ASSIGN
P2.Y.A
       512**DCL       534>>ASSIGN    546>>ASSIGN
P2.Y.B
       513**DCL       533>>ASSIGN    546>>ASSIGN
P2.Z.A
       515**DCL       546>>ASSIGN
P2.Z.B
       516**DCL       546>>ASSIGN
PASS
        14**DCL        10--PROC       18--REDEF     541<<ASSIGN    543--ENTRY
PASS.WD.A
        16**DCL       532>>DOWHILE
PASS.WD.B
        17**DCL       538>>ASSIGN
PL6.E3A0      #004=FMM$SCRAMBLE File=FMM$OPN.:E05TSI                             TUE 07/29/97 16:53 Page:335
PBASED
       522**DCL       538>>ASSIGN
PNAME
       523**DCL       545>>ASSIGN
RSLT.AB
        19**DCL       547<<ASSIGN

PL6.E3A0      #005=FMM$SCRUB File=FMM$OPN.:E05TSI                                TUE 07/29/97 16:53 Page:336
     1837        1        /*T***********************************************************/
     1838        2        /*T*                                                         */
     1839        3        /*T* Copyright (c) Bull HN Information Systems Inc., 1997    */
     1840        4        /*T*                                                         */
     1841        5        /*T***********************************************************/
     1842        6                    /*F*
     1843        7                    *     NAME:    FMM$SCRUB
     1844        8                    *
     1845        9                    *     PURPOSE:  TO CLEAN THE DCB BACK TO LOADER BUILT CONDITIONS.
     1846       10                    */
     1847       11        FMM$SCRUB: PROC(JDCB$);
     1848       12                    /**/
     1849       13                    /* PARAMETER DATA */
     1850       14                    /**/
     1851       15    1   DCL JDCB$ PTR; /* POINTER TO THE DCB */
     1852       16                    /**/
     1853       17                    /* AUTOMATIC DATA */
     1854       18                    /**/
     1855       19    1   DCL FPT$ PTR; /* TEMPORARY POINTER */
     1856       20    1   DCL J UBIN;
     1857       21    1   DCL FEXTX REDEF J UBIN;
     1858       22    1   DCL N SBIN;
     1859       23                    /**/
     1860       24                    /* SPECIAL BASED DATA */
     1861       25                    /**/
     1862       26    1   DCL MOVEJC BASED CHAR(J);
     1863       27    1   DCL 1 MOVEJB BASED,2 * CHAR(J);
     1864       28    1   DCL 1 SNAME BASED (FPT$),
     1865       29    1         2 S CHAR(2) UNAL,
     1866       30    1         2 OP CHAR(N) UNAL;
     1867       31                    /**/
     1868       32                    /* CONSTANT DATA */
     1869       33                    /**/
     1870       34    1   DCL 1 STARG CONSTANT,
     1871       35    1         2 L UBIN(9) UNAL INIT(2),
     1872       36    1         2 C CHAR(2) UNAL INIT('*G');
     1873       37    1   DCL STARGC REDEF STARG CHAR(3);
PL6.E3A0      #005=FMM$SCRUB File=FMM$OPN.:E05TSI                                TUE 07/29/97 16:53 Page:337
     1874       38    1   DCL CHAR32 BASED CHAR(32);
     1875       39                    /**/
     1876       40                    /* DEFINE EXTERNAL ROUTINES */
     1877       41                    /**/
     1878       42    1   DCL FSA$FSP ENTRY(2) ALTRET; /* FREE ROSEG SPACE */
     1879       43                    /**/
     1880       44                    /* DEFINE EXTERNAL DATA */
     1881       45                    /**/
     1882       46    1   DCL B$ROSEG$ PTR SYMREF READONLY;
     1883       47                    /**/
     1884       48        %MACRO F$DCB#(BASED=BASED);
     1885       49        %INCLUDE F$DCB;
     1886       98        %MEND;
     1887       99        %F$DCB#(BASED="BASED(JDCB$)");
     1888      149        %INCLUDE CP_6;
     1889     5708        %INCLUDE FM_OPLBL_R;
     1890     5722        %INCLUDE FM$MACROS;
     1891     6097        %INCLUDE FM_FIELD_C;
     1892     6138        %CODE16;
     1893     6146        %VLP_TAB(STCLASS=BASED,FPTN=VLP$TAB);
     1894     6160        %VLP_HDR (LEN=163, FPTN=VLP$HDRF, STCLASS=BASED);
     1895     6176        %VLP_STATION (STCLASS=BASED,FPTN=VLP$STATION);
     1896     6203        %VLP_SETSTA  (STCLASS=BASED,FPTN=VLP$SETSTA);
     1897     6231        %VLP_FPRG (STCLASS=BASED, FPTN=VLP$FPRG);
     1898     6252        %VLP_RECFIELD (FPTN=RECFIELD, STCLASS=BASED);
     1899     6296        %VLP_IRREC (FPTN=IRREC, STCLASS=BASED);
     1900     6310        %FMG$KFIELD (FPTN=KFIELD);
     1901     6313        %FM$FIELD_START(FPTN=FM$FIELD_START, STCLASS=BASED);
     1902     6335        %FITALTKEYS (BASED="BASED(FPT$)");
     1903     6341        %INCLUDE CP_6_SUBS;
     1904     6881        %INCLUDE F_DCB_D;
     1905     6969        %M$MDCB(DCBN=FMM$SDCB,STCLASS="CONSTANT SYMDEF");
     1906     7043                    /**/
     1907     7044                    /*
     1908     7045                    *  FIRST ERASE THE ENTIRE DCB, THEN REINITIALIZE IT.
     1909     7046                    */
     1910     7047    1      IF F$DCB.TAB$~=ADDR(NIL)
PL6.E3A0      #005=FMM$SCRUB File=FMM$OPN.:E05TSI                                TUE 07/29/97 16:53 Page:338
     1911     7048    1      THEN CALL FSA$FSP(SIZEW(VLP$TAB),F$DCB.TAB$);
     1912     7049    1      IF F$DCB.HEADER$~=ADDR(NIL)
     1913     7050    1      THEN CALL FSA$FSP(SIZEW(VLP$HDRF),F$DCB.HEADER$);
     1914     7051    1      IF F$DCB.FORM$~=ADDR(NIL)
     1915     7052    1      THEN CALL FSA$FSP(SIZEW(CODE16),F$DCB.FORM$);
     1916     7053    1      IF F$DCB.LASTSTA$~=ADDR(NIL)
     1917     7054    1      THEN CALL FSA$FSP(SIZEW(VLP$STATION)+SIZEW(VLP$SETSTA),F$DCB.LASTSTA$);
     1918     7055    2      IF F$DCB.ALTKEYX~=0 THEN DO;
     1919     7056    2         FPT$=PINCRW(B$ROSEG$,F$DCB.ALTKEYX);
     1920     7057    2         J=FITALTKEYS.NUMWRDS; /* Happens to work for IRKEYS too */
     1921     7058    2         CALL FSA$FSP(J,FPT$);
     1922     7059    2         F$DCB.ALTKEYX=0;
     1923     7060    2         END;
     1924     7061    2      IF F$DCB.FPRGX~=0 THEN DO;
     1925     7062    2         FPT$=PINCRW(B$ROSEG$,F$DCB.FPRGX);
     1926     7063    2         CALL FSA$FSP(SIZEW(VLP$FPRG),FPT$);
     1927     7064    2         F$DCB.FPRGX=0;
     1928     7065    2         END;
     1929     7066    2      IF F$DCB.KFIELDX~=0 THEN DO;
     1930     7067    2         FPT$=PINCRW(B$ROSEG$, F$DCB.KFIELDX);
     1931     7068    2         J=FPT$->KFIELD.NWORDS;
     1932     7069    2         CALL FSA$FSP(J, FPT$);
     1933     7070    2         F$DCB.KFIELDX=0;
     1934     7071    2         END;
     1935     7072    2      IF F$DCB.FIELDX~=0 THEN DO;
     1936     7073    2         FPT$=PINCRW(B$ROSEG$, F$DCB.FIELDX);
     1937     7074    2         J=(FPT$->RECFIELD.NFIELDS#+1)/2 +1;
     1938     7075    2         CALL FSA$FSP(J, FPT$);
     1939     7076    2         F$DCB.FIELDX=0;
     1940     7077    2         END;
     1941     7078    2      IF F$DCB.STARTX~=0 THEN DO;
     1942     7079    2         FPT$=PINCRW(B$ROSEG$,F$DCB.STARTX);
     1943     7080    2         J=FPT$->FM$FIELD_START.NWORDS;
     1944     7081    2         CALL FSA$FSP(J,FPT$);
     1945     7082    2         F$DCB.STARTX=0;
     1946     7083    2         END;
     1947     7084    2      IF F$DCB.IRRECX~=0 THEN DO;
PL6.E3A0      #005=FMM$SCRUB File=FMM$OPN.:E05TSI                                TUE 07/29/97 16:53 Page:339
     1948     7085    2         FPT$=PINCRW(B$ROSEG$, F$DCB.IRRECX);
     1949     7086    2         J=(FPT$->IRREC.NFIELDS#+3)/4 + 1;
     1950     7087    2         CALL FSA$FSP(J, FPT$);
     1951     7088    2         F$DCB.IRRECX=0;
     1952     7089    2         END;
     1953     7090                    /**/
     1954     7091    1   FMM$SCRUB1: ENTRY(JDCB$);
     1955     7092                    /**/
     1956     7093    1      J=POFFC(ADDR(FMM$SDCB.BFR),ADDR(FMM$SDCB));
     1957     7094    1      JDCB$->MOVEJB=FMM$SDCB;
     1958     7095    1      F$DCB.DCBNAME.S='0'B;
     1959     7096    1      F$DCB.NAME.L=0;
     1960     7097                    /*
     1961     7098                    *  IF FEXTX NOT ALREADY FOUND, THEN LOOK UP THE DCB IN THE
     1962     7099                    *  OP LABEL TABLES TO DETERMINE THE FUN AND RES FOR THE DCB.
     1963     7100                    *  SPECIAL DCBS ARE NAMED 'M$xx', 'F$nnn', AND 'F$n'.
     1964     7101                    *  FIRST SEARCH FOR A SYSTEM OP LABEL (AS IN CP-V)
     1965     7102                    */
     1966     7103    1      N=F$DCB.DCBNAME.L-2;
     1967     7104    1      J=F$DCB.DCBNAME.X;
     1968     7105    1      IF J~=0 OR N<=0 THEN GOTO FILLOPL;
     1969     7106    1      FPT$=ADDR(F$DCB.DCBNAME.N);
     1970     7107    2      IF SNAME.S='M$' THEN DO J=4 TO F_NUMOPS;
     1971     7108    2         IF SNAME.OP=F_OPLBL(J) THEN GOTO FILLOPL;
     1972     7109    2         END;
     1973     7110                    /*
     1974     7111                    *  NEXT SEARCH FOR FORTRAN DCBS (101 THRU 108)
     1975     7112                    */
     1976     7113    2      IF SNAME.S='F$' THEN DO;
     1977     7114    3         DO J=0 TO F_NUMSPS;
     1978     7115    4            IF SNAME.OP=F_OPSPS(J) OR J=0 THEN DO;
     1979     7116    4               F$DCB.FUN=F_OPSPFUN(FEXTX);
     1980     7117    4               F$DCB.RES=F_OPLRES(F_OPSPRX(FEXTX));
     1981     7118    4               END;
     1982     7119    3            END;
     1983     7120    2         GOTO FILLSPS;
     1984     7121    2         END;
PL6.E3A0      #005=FMM$SCRUB File=FMM$OPN.:E05TSI                                TUE 07/29/97 16:53 Page:340
     1985     7122    1      J=0;
     1986     7123                    /*
     1987     7124                    *  SPECIAL OP LABEL DCB ('M$C' THRU 'M$GO')
     1988     7125                    */
     1989     7126    1   FILLOPL:
     1990     7127    1      F$DCB.FUN=F_OPLFUN(FEXTX);
     1991     7128    1      F$DCB.RES=F_OPLRES(F_OPLRX(FEXTX));
     1992     7129    1      F$DCB.FEXTX=J;
     1993     7130                    /*
     1994     7131                    *  NOW SPECIAL CASE M$GO OP LABEL
     1995     7132                    */
     1996     7133    1   FILLSPS:;
     1997     7134    2      IF FEXTX=3 THEN DO; /* GO IS THIRD ON COMMAND LINE */
     1998     7135    2         F$DCB.ASN=%FILE#;
     1999     7136    2         ADDR(F$DCB.NAME)->CHAR32=STARGC;
     2000     7137    2         END;
     2001     7138    1      RETURN;
     2002     7139    1   END FMM$SCRUB;

PL6.E3A0      #005=FMM$SCRUB File=FMM$OPN.:E05TSI                                TUE 07/29/97 16:53 Page:341
--  Include file information  --

   F_DCB_D.:E05TOU  is referenced.
   CP_6_SUBS.:E05TOU  is referenced.
   FM_FIELD_C.:E05TOU  is referenced.
   FM$MACROS.:E05TOU  is referenced.
   FM_OPLBL_R.:E05TOU  cannot be made into a system file and is referenced.
   CP_6_C.:E05TOU  is referenced.
   CP_6.:E05TOU  cannot be made into a system file and is referenced.
   F$DCB.:E05TOU  is referenced.
      No diagnostics issued in procedure FMM$SCRUB.

   Procedure FMM$SCRUB requires 309 words for executable code.
   Procedure FMM$SCRUB requires 10 words of local(AUTO) storage.

    No errors detected in file FMM$OPN.:E05TSI    .

PL6.E3A0      #005=FMM$SCRUB File=FMM$OPN.:E05TSI                                TUE 07/29/97 16:53 Page:342

 Object Unit name= FMM$SCRUB                                  File name= FMM$OPN.:E05TOU
 UTS= JUL 29 '97 16:53:54.48 TUE                              Compiler= PL-6/E31         Sev=      00
 SharedLib= :SHARED_SYSTEM                                    Alt SharedLib=


    ****  Control sections  ****

 Sect   Type Bound  Init  Size OctSiz  Section name(segment info)
    0  RoData even  UTS     99    143  FMM$SCRUB
    1   DCB   even  none     0      0  M$UC
    2   Proc  even  none   309    465  FMM$SCRUB
    3  RoData even  none    13     15  FMM$SCRUB

    ****  Entry defs  ****

                              Check   Calling
                             calling  sequence
  Sect OctLoc Primary Altret sequence   type   Parms  Name
     2      0   yes            yes      Std        1  FMM$SCRUB
     2    274                  yes      Std        1  FMM$SCRUB1

  ****  Data defs  ****

 Sect OctLoc  Name                           Sect OctLoc  Name
    0      1  FMM$SDCB

  ****  Entry refs  ****

         Check        Calling
        calling       sequence
Altret sequence SRef   type   Args  Name
 yes     yes           Std       2 FSA$FSP
                       nStd      0 X66_AUTO_1
                       Std       0 B_CONSPOOL_D
                       nStd      0 X66_ARET
PL6.E3A0      #005=FMM$SCRUB File=FMM$OPN.:E05TSI                                TUE 07/29/97 16:53 Page:343

  ****  Data refs  ****

  Flags:  r = read only, s = secondary
Flgs Name                             Flgs Name                             Flgs Name
r    B$ROSEG$                              M$UC                             r    F_OPLBL
r    F_OPLFUN                         r    F_OPLRX                          r    F_OPLRES
r    F_OPSPS                          r    F_OPSPFUN                        r    F_OPSPRX
     B_VECTNIL

  ****  Segment refs  ****

  Flags:  r = read only, s = secondary
Flgs Name                             Flgs Name                             Flgs Name
     NULLSID                               ISSID
PL6.E3A0      #005=FMM$SCRUB File=FMM$OPN.:E05TSI                                TUE 07/29/97 16:53 Page:344


     1837        1        /*T***********************************************************/
     1838        2        /*T*                                                         */
     1839        3        /*T* Copyright (c) Bull HN Information Systems Inc., 1997    */
     1840        4        /*T*                                                         */
     1841        5        /*T***********************************************************/
     1842        6                    /*F*
     1843        7                    *     NAME:    FMM$SCRUB
     1844        8                    *
     1845        9                    *     PURPOSE:  TO CLEAN THE DCB BACK TO LOADER BUILT CONDITIONS.
     1846       10                    */
     1847       11        FMM$SCRUB: PROC(JDCB$);

     11  2 000000   000000 700200 xent  FMM$SCRUB    TSX0  ! X66_AUTO_1
         2 000001   000012 000001                    ZERO    10,1

     1848       12                    /**/
     1849       13                    /* PARAMETER DATA */
     1850       14                    /**/
     1851       15    1   DCL JDCB$ PTR; /* POINTER TO THE DCB */
     1852       16                    /**/
     1853       17                    /* AUTOMATIC DATA */
     1854       18                    /**/
     1855       19    1   DCL FPT$ PTR; /* TEMPORARY POINTER */
     1856       20    1   DCL J UBIN;
     1857       21    1   DCL FEXTX REDEF J UBIN;
     1858       22    1   DCL N SBIN;
     1859       23                    /**/
     1860       24                    /* SPECIAL BASED DATA */
     1861       25                    /**/
     1862       26    1   DCL MOVEJC BASED CHAR(J);
     1863       27    1   DCL 1 MOVEJB BASED,2 * CHAR(J);
     1864       28    1   DCL 1 SNAME BASED (FPT$),
     1865       29    1         2 S CHAR(2) UNAL,
     1866       30    1         2 OP CHAR(N) UNAL;
     1867       31                    /**/
     1868       32                    /* CONSTANT DATA */
PL6.E3A0      #005=FMM$SCRUB File=FMM$OPN.:E05TSI                                TUE 07/29/97 16:53 Page:345
     1869       33                    /**/
     1870       34    1   DCL 1 STARG CONSTANT,
     1871       35    1         2 L UBIN(9) UNAL INIT(2),
     1872       36    1         2 C CHAR(2) UNAL INIT('*G');
     1873       37    1   DCL STARGC REDEF STARG CHAR(3);
     1874       38    1   DCL CHAR32 BASED CHAR(32);
     1875       39                    /**/
     1876       40                    /* DEFINE EXTERNAL ROUTINES */
     1877       41                    /**/
     1878       42    1   DCL FSA$FSP ENTRY(2) ALTRET; /* FREE ROSEG SPACE */
     1879       43                    /**/
     1880       44                    /* DEFINE EXTERNAL DATA */
     1881       45                    /**/
     1882       46    1   DCL B$ROSEG$ PTR SYMREF READONLY;
     1883       47                    /**/
     1884       48        %MACRO F$DCB#(BASED=BASED);
     1885       49        %INCLUDE F$DCB;
     1886       98        %MEND;
     1887       99        %F$DCB#(BASED="BASED(JDCB$)");
     1888      149        %INCLUDE CP_6;
     1889     5708        %INCLUDE FM_OPLBL_R;
     1890     5722        %INCLUDE FM$MACROS;
     1891     6097        %INCLUDE FM_FIELD_C;
     1892     6138        %CODE16;
     1893     6146        %VLP_TAB(STCLASS=BASED,FPTN=VLP$TAB);
     1894     6160        %VLP_HDR (LEN=163, FPTN=VLP$HDRF, STCLASS=BASED);
     1895     6176        %VLP_STATION (STCLASS=BASED,FPTN=VLP$STATION);
     1896     6203        %VLP_SETSTA  (STCLASS=BASED,FPTN=VLP$SETSTA);
     1897     6231        %VLP_FPRG (STCLASS=BASED, FPTN=VLP$FPRG);
     1898     6252        %VLP_RECFIELD (FPTN=RECFIELD, STCLASS=BASED);
     1899     6296        %VLP_IRREC (FPTN=IRREC, STCLASS=BASED);
     1900     6310        %FMG$KFIELD (FPTN=KFIELD);
     1901     6313        %FM$FIELD_START(FPTN=FM$FIELD_START, STCLASS=BASED);
     1902     6335        %FITALTKEYS (BASED="BASED(FPT$)");
     1903     6341        %INCLUDE CP_6_SUBS;
     1904     6881        %INCLUDE F_DCB_D;
     1905     6969        %M$MDCB(DCBN=FMM$SDCB,STCLASS="CONSTANT SYMDEF");
PL6.E3A0      #005=FMM$SCRUB File=FMM$OPN.:E05TSI                                TUE 07/29/97 16:53 Page:346
     1906     7043                    /**/
     1907     7044                    /*
     1908     7045                    *  FIRST ERASE THE ENTIRE DCB, THEN REINITIALIZE IT.
     1909     7046                    */
     1910     7047    1      IF F$DCB.TAB$~=ADDR(NIL)

   7047  2 000002   200003 470500                    LDP0    @JDCB$,,AUTO
         2 000003   000000 471500                    LDP1    0,,PR0
         2 000004   100047 236100                    LDQ     39,,PR1
         2 000005   000001 116000 xsym               CMPQ    B_VECTNIL+1
         2 000006   000017 600000 2                  TZE     s:7049

     1911     7048    1      THEN CALL FSA$FSP(SIZEW(VLP$TAB),F$DCB.TAB$);

   7048  2 000007   100047 633500                    EPPR3   39,,PR1
         2 000010   200011 453500                    STP3    N+3,,AUTO
         2 000011   000000 236000 3                  LDQ     0
         2 000012   200010 756100                    STQ     N+2,,AUTO
         2 000013   200010 630500                    EPPR0   N+2,,AUTO
         2 000014   000020 631400 xsym               EPPR1   B_VECTNIL+16
         2 000015   000000 701000 xent               TSX1    FSA$FSP
         2 000016   000000 011000                    NOP     0

     1912     7049    1      IF F$DCB.HEADER$~=ADDR(NIL)

   7049  2 000017   200003 470500                    LDP0    @JDCB$,,AUTO
         2 000020   000000 471500                    LDP1    0,,PR0
         2 000021   100046 236100                    LDQ     38,,PR1
         2 000022   000001 116000 xsym               CMPQ    B_VECTNIL+1
         2 000023   000034 600000 2                  TZE     s:7051

     1913     7050    1      THEN CALL FSA$FSP(SIZEW(VLP$HDRF),F$DCB.HEADER$);

   7050  2 000024   100046 633500                    EPPR3   38,,PR1
         2 000025   200011 453500                    STP3    N+3,,AUTO
         2 000026   000002 236000 3                  LDQ     2
         2 000027   200010 756100                    STQ     N+2,,AUTO
PL6.E3A0      #005=FMM$SCRUB File=FMM$OPN.:E05TSI                                TUE 07/29/97 16:53 Page:347
         2 000030   200010 630500                    EPPR0   N+2,,AUTO
         2 000031   000020 631400 xsym               EPPR1   B_VECTNIL+16
         2 000032   000000 701000 xent               TSX1    FSA$FSP
         2 000033   000000 011000                    NOP     0

     1914     7051    1      IF F$DCB.FORM$~=ADDR(NIL)

   7051  2 000034   200003 470500                    LDP0    @JDCB$,,AUTO
         2 000035   000000 471500                    LDP1    0,,PR0
         2 000036   100050 236100                    LDQ     40,,PR1
         2 000037   000001 116000 xsym               CMPQ    B_VECTNIL+1
         2 000040   000051 600000 2                  TZE     s:7053

     1915     7052    1      THEN CALL FSA$FSP(SIZEW(CODE16),F$DCB.FORM$);

   7052  2 000041   100050 633500                    EPPR3   40,,PR1
         2 000042   200011 453500                    STP3    N+3,,AUTO
         2 000043   000004 236000 3                  LDQ     4
         2 000044   200010 756100                    STQ     N+2,,AUTO
         2 000045   200010 630500                    EPPR0   N+2,,AUTO
         2 000046   000020 631400 xsym               EPPR1   B_VECTNIL+16
         2 000047   000000 701000 xent               TSX1    FSA$FSP
         2 000050   000000 011000                    NOP     0

     1916     7053    1      IF F$DCB.LASTSTA$~=ADDR(NIL)

   7053  2 000051   200003 470500                    LDP0    @JDCB$,,AUTO
         2 000052   000000 471500                    LDP1    0,,PR0
         2 000053   100007 236100                    LDQ     7,,PR1
         2 000054   000001 116000 xsym               CMPQ    B_VECTNIL+1
         2 000055   000066 600000 2                  TZE     s:7055

     1917     7054    1      THEN CALL FSA$FSP(SIZEW(VLP$STATION)+SIZEW(VLP$SETSTA),F$DCB.LASTSTA$);

   7054  2 000056   100007 633500                    EPPR3   7,,PR1
         2 000057   200011 453500                    STP3    N+3,,AUTO
         2 000060   000006 236000 3                  LDQ     6
PL6.E3A0      #005=FMM$SCRUB File=FMM$OPN.:E05TSI                                TUE 07/29/97 16:53 Page:348
         2 000061   200010 756100                    STQ     N+2,,AUTO
         2 000062   200010 630500                    EPPR0   N+2,,AUTO
         2 000063   000020 631400 xsym               EPPR1   B_VECTNIL+16
         2 000064   000000 701000 xent               TSX1    FSA$FSP
         2 000065   000000 011000                    NOP     0

     1918     7055    2      IF F$DCB.ALTKEYX~=0 THEN DO;

   7055  2 000066   200003 470500                    LDP0    @JDCB$,,AUTO
         2 000067   000000 471500                    LDP1    0,,PR0
         2 000070   100052 720100                    LXL0    42,,PR1
         2 000071   000115 600000 2                  TZE     s:7061

     1919     7056    2         FPT$=PINCRW(B$ROSEG$,F$DCB.ALTKEYX);

   7056  2 000072   000000 636010                    EAQ     0,X0
         2 000073   000000 036000 xsym               ADLQ    B$ROSEG$
         2 000074   200004 756100                    STQ     FPT$,,AUTO

     1920     7057    2         J=FITALTKEYS.NUMWRDS; /* Happens to work for IRKEYS too */

   7057  2 000075   200004 471500                    LDP1    FPT$,,AUTO
         2 000076   100000 236100                    LDQ     0,,PR1
         2 000077   000033 772000                    QRL     27
         2 000100   200005 756100                    STQ     J,,AUTO

     1921     7058    2         CALL FSA$FSP(J,FPT$);

   7058  2 000101   200004 633500                    EPPR3   FPT$,,AUTO
         2 000102   200011 453500                    STP3    N+3,,AUTO
         2 000103   200005 634500                    EPPR4   J,,AUTO
         2 000104   200010 454500                    STP4    N+2,,AUTO
         2 000105   200010 630500                    EPPR0   N+2,,AUTO
         2 000106   000020 631400 xsym               EPPR1   B_VECTNIL+16
         2 000107   000000 701000 xent               TSX1    FSA$FSP
         2 000110   000000 011000                    NOP     0

PL6.E3A0      #005=FMM$SCRUB File=FMM$OPN.:E05TSI                                TUE 07/29/97 16:53 Page:349
     1922     7059    2         F$DCB.ALTKEYX=0;

   7059  2 000111   200003 470500                    LDP0    @JDCB$,,AUTO
         2 000112   000000 471500                    LDP1    0,,PR0
         2 000113   000000 220003                    LDX0    0,DU
         2 000114   100052 440100                    SXL0    42,,PR1

     1923     7060    2         END;

     1924     7061    2      IF F$DCB.FPRGX~=0 THEN DO;

   7061  2 000115   000000 471500                    LDP1    0,,PR0
         2 000116   100054 220100                    LDX0    44,,PR1
         2 000117   000137 600000 2                  TZE     s:7066

     1925     7062    2         FPT$=PINCRW(B$ROSEG$,F$DCB.FPRGX);

   7062  2 000120   000000 636010                    EAQ     0,X0
         2 000121   000000 036000 xsym               ADLQ    B$ROSEG$
         2 000122   200004 756100                    STQ     FPT$,,AUTO

     1926     7063    2         CALL FSA$FSP(SIZEW(VLP$FPRG),FPT$);

   7063  2 000123   200004 631500                    EPPR1   FPT$,,AUTO
         2 000124   200011 451500                    STP1    N+3,,AUTO
         2 000125   000010 236000 3                  LDQ     8
         2 000126   200010 756100                    STQ     N+2,,AUTO
         2 000127   200010 630500                    EPPR0   N+2,,AUTO
         2 000130   000020 631400 xsym               EPPR1   B_VECTNIL+16
         2 000131   000000 701000 xent               TSX1    FSA$FSP
         2 000132   000000 011000                    NOP     0

     1927     7064    2         F$DCB.FPRGX=0;

   7064  2 000133   200003 470500                    LDP0    @JDCB$,,AUTO
         2 000134   000000 471500                    LDP1    0,,PR0
         2 000135   000000 220003                    LDX0    0,DU
PL6.E3A0      #005=FMM$SCRUB File=FMM$OPN.:E05TSI                                TUE 07/29/97 16:53 Page:350
         2 000136   100054 740100                    STX0    44,,PR1

     1928     7065    2         END;

     1929     7066    2      IF F$DCB.KFIELDX~=0 THEN DO;

   7066  2 000137   000000 471500                    LDP1    0,,PR0
         2 000140   100056 720100                    LXL0    46,,PR1
         2 000141   000164 600000 2                  TZE     s:7072

     1930     7067    2         FPT$=PINCRW(B$ROSEG$, F$DCB.KFIELDX);

   7067  2 000142   000000 636010                    EAQ     0,X0
         2 000143   000000 036000 xsym               ADLQ    B$ROSEG$
         2 000144   200004 756100                    STQ     FPT$,,AUTO

     1931     7068    2         J=FPT$->KFIELD.NWORDS;

   7068  2 000145   200004 471500                    LDP1    FPT$,,AUTO
         2 000146   100000 235100                    LDA     0,,PR1
         2 000147   200005 755100                    STA     J,,AUTO

     1932     7069    2         CALL FSA$FSP(J, FPT$);

   7069  2 000150   200004 633500                    EPPR3   FPT$,,AUTO
         2 000151   200011 453500                    STP3    N+3,,AUTO
         2 000152   200005 634500                    EPPR4   J,,AUTO
         2 000153   200010 454500                    STP4    N+2,,AUTO
         2 000154   200010 630500                    EPPR0   N+2,,AUTO
         2 000155   000020 631400 xsym               EPPR1   B_VECTNIL+16
         2 000156   000000 701000 xent               TSX1    FSA$FSP
         2 000157   000000 011000                    NOP     0

     1933     7070    2         F$DCB.KFIELDX=0;

   7070  2 000160   200003 470500                    LDP0    @JDCB$,,AUTO
         2 000161   000000 471500                    LDP1    0,,PR0
PL6.E3A0      #005=FMM$SCRUB File=FMM$OPN.:E05TSI                                TUE 07/29/97 16:53 Page:351
         2 000162   000000 220003                    LDX0    0,DU
         2 000163   100056 440100                    SXL0    46,,PR1

     1934     7071    2         END;

     1935     7072    2      IF F$DCB.FIELDX~=0 THEN DO;

   7072  2 000164   000000 471500                    LDP1    0,,PR0
         2 000165   100054 720100                    LXL0    44,,PR1
         2 000166   000215 600000 2                  TZE     s:7078

     1936     7073    2         FPT$=PINCRW(B$ROSEG$, F$DCB.FIELDX);

   7073  2 000167   000000 636010                    EAQ     0,X0
         2 000170   000000 036000 xsym               ADLQ    B$ROSEG$
         2 000171   200004 756100                    STQ     FPT$,,AUTO

     1937     7074    2         J=(FPT$->RECFIELD.NFIELDS#+1)/2 +1;

   7074  2 000172   200004 471500                    LDP1    FPT$,,AUTO
         2 000173   100000 236100                    LDQ     0,,PR1
         2 000174   000032 376000 xsym               ANQ     B_VECTNIL+26
         2 000175   000001 036007                    ADLQ    1,DL
         2 000176   000001 772000                    QRL     1
         2 000177   000001 036007                    ADLQ    1,DL
         2 000200   200005 756100                    STQ     J,,AUTO

     1938     7075    2         CALL FSA$FSP(J, FPT$);

   7075  2 000201   200004 633500                    EPPR3   FPT$,,AUTO
         2 000202   200011 453500                    STP3    N+3,,AUTO
         2 000203   200005 634500                    EPPR4   J,,AUTO
         2 000204   200010 454500                    STP4    N+2,,AUTO
         2 000205   200010 630500                    EPPR0   N+2,,AUTO
         2 000206   000020 631400 xsym               EPPR1   B_VECTNIL+16
         2 000207   000000 701000 xent               TSX1    FSA$FSP
         2 000210   000000 011000                    NOP     0
PL6.E3A0      #005=FMM$SCRUB File=FMM$OPN.:E05TSI                                TUE 07/29/97 16:53 Page:352

     1939     7076    2         F$DCB.FIELDX=0;

   7076  2 000211   200003 470500                    LDP0    @JDCB$,,AUTO
         2 000212   000000 471500                    LDP1    0,,PR0
         2 000213   000000 220003                    LDX0    0,DU
         2 000214   100054 440100                    SXL0    44,,PR1

     1940     7077    2         END;

     1941     7078    2      IF F$DCB.STARTX~=0 THEN DO;

   7078  2 000215   000000 471500                    LDP1    0,,PR0
         2 000216   100057 220100                    LDX0    47,,PR1
         2 000217   000242 600000 2                  TZE     s:7084

     1942     7079    2         FPT$=PINCRW(B$ROSEG$,F$DCB.STARTX);

   7079  2 000220   000000 636010                    EAQ     0,X0
         2 000221   000000 036000 xsym               ADLQ    B$ROSEG$
         2 000222   200004 756100                    STQ     FPT$,,AUTO

     1943     7080    2         J=FPT$->FM$FIELD_START.NWORDS;

   7080  2 000223   200004 471500                    LDP1    FPT$,,AUTO
         2 000224   100000 235100                    LDA     0,,PR1
         2 000225   200005 755100                    STA     J,,AUTO

     1944     7081    2         CALL FSA$FSP(J,FPT$);

   7081  2 000226   200004 633500                    EPPR3   FPT$,,AUTO
         2 000227   200011 453500                    STP3    N+3,,AUTO
         2 000230   200005 634500                    EPPR4   J,,AUTO
         2 000231   200010 454500                    STP4    N+2,,AUTO
         2 000232   200010 630500                    EPPR0   N+2,,AUTO
         2 000233   000020 631400 xsym               EPPR1   B_VECTNIL+16
         2 000234   000000 701000 xent               TSX1    FSA$FSP
PL6.E3A0      #005=FMM$SCRUB File=FMM$OPN.:E05TSI                                TUE 07/29/97 16:53 Page:353
         2 000235   000000 011000                    NOP     0

     1945     7082    2         F$DCB.STARTX=0;

   7082  2 000236   200003 470500                    LDP0    @JDCB$,,AUTO
         2 000237   000000 471500                    LDP1    0,,PR0
         2 000240   000000 220003                    LDX0    0,DU
         2 000241   100057 740100                    STX0    47,,PR1

     1946     7083    2         END;

     1947     7084    2      IF F$DCB.IRRECX~=0 THEN DO;

   7084  2 000242   000000 471500                    LDP1    0,,PR0
         2 000243   100061 220100                    LDX0    49,,PR1
         2 000244   000273 600000 2                  TZE     s:7089

     1948     7085    2         FPT$=PINCRW(B$ROSEG$, F$DCB.IRRECX);

   7085  2 000245   000000 636010                    EAQ     0,X0
         2 000246   000000 036000 xsym               ADLQ    B$ROSEG$
         2 000247   200004 756100                    STQ     FPT$,,AUTO

     1949     7086    2         J=(FPT$->IRREC.NFIELDS#+3)/4 + 1;

   7086  2 000250   200004 471500                    LDP1    FPT$,,AUTO
         2 000251   100000 236100                    LDQ     0,,PR1
         2 000252   000032 376000 xsym               ANQ     B_VECTNIL+26
         2 000253   000003 036007                    ADLQ    3,DL
         2 000254   000002 772000                    QRL     2
         2 000255   000001 036007                    ADLQ    1,DL
         2 000256   200005 756100                    STQ     J,,AUTO

     1950     7087    2         CALL FSA$FSP(J, FPT$);

   7087  2 000257   200004 633500                    EPPR3   FPT$,,AUTO
         2 000260   200011 453500                    STP3    N+3,,AUTO
PL6.E3A0      #005=FMM$SCRUB File=FMM$OPN.:E05TSI                                TUE 07/29/97 16:53 Page:354
         2 000261   200005 634500                    EPPR4   J,,AUTO
         2 000262   200010 454500                    STP4    N+2,,AUTO
         2 000263   200010 630500                    EPPR0   N+2,,AUTO
         2 000264   000020 631400 xsym               EPPR1   B_VECTNIL+16
         2 000265   000000 701000 xent               TSX1    FSA$FSP
         2 000266   000000 011000                    NOP     0

     1951     7088    2         F$DCB.IRRECX=0;

   7088  2 000267   200003 470500                    LDP0    @JDCB$,,AUTO
         2 000270   000000 471500                    LDP1    0,,PR0
         2 000271   000000 220003                    LDX0    0,DU
         2 000272   100061 740100                    STX0    49,,PR1

     1952     7089    2         END;

   7089  2 000273   000276 710000 2                  TRA     s:7093

     1953     7090                    /**/
     1954     7091    1   FMM$SCRUB1: ENTRY(JDCB$);

   7091  2 000274   000000 700200 xent  FMM$SCRUB1   TSX0  ! X66_AUTO_1
         2 000275   000012 000001                    ZERO    10,1

     1955     7092                    /**/
     1956     7093    1      J=POFFC(ADDR(FMM$SDCB.BFR),ADDR(FMM$SDCB));

   7093  2 000276   000011 236000 3                  LDQ     9
         2 000277   000020 772000                    QRL     16
         2 000300   200010 756100                    STQ     N+2,,AUTO
         2 000301   000012 236000 3                  LDQ     10
         2 000302   000020 772000                    QRL     16
         2 000303   200010 136100                    SBLQ    N+2,,AUTO
         2 000304   200005 756100                    STQ     J,,AUTO

     1957     7094    1      JDCB$->MOVEJB=FMM$SDCB;

PL6.E3A0      #005=FMM$SCRUB File=FMM$OPN.:E05TSI                                TUE 07/29/97 16:53 Page:355
   7094  2 000305   200003 470500                    LDP0    @JDCB$,,AUTO
         2 000306   000000 471500                    LDP1    0,,PR0
         2 000307   000000 620006                    EAX0    0,QL
         2 000310   000140 100400                    MLR     fill='000'O
         2 000311   000001 000600 0                  ADSC9   FMM$SDCB                 cn=0,n=384
         2 000312   100000 000010                    ADSC9   0,,PR1                   cn=0,n=*X0

     1958     7095    1      F$DCB.DCBNAME.S='0'B;

   7095  2 000313   000000 471500                    LDP1    0,,PR0
         2 000314   000013 236000 3                  LDQ     11
         2 000315   100140 356100                    ANSQ    96,,PR1

     1959     7096    1      F$DCB.NAME.L=0;

   7096  2 000316   000000 471500                    LDP1    0,,PR0
         2 000317   000000 236003                    LDQ     0,DU
         2 000320   100010 552140                    STBQ    8,'40'O,PR1

     1960     7097                    /*
     1961     7098                    *  IF FEXTX NOT ALREADY FOUND, THEN LOOK UP THE DCB IN THE
     1962     7099                    *  OP LABEL TABLES TO DETERMINE THE FUN AND RES FOR THE DCB.
     1963     7100                    *  SPECIAL DCBS ARE NAMED 'M$xx', 'F$nnn', AND 'F$n'.
     1964     7101                    *  FIRST SEARCH FOR A SYSTEM OP LABEL (AS IN CP-V)
     1965     7102                    */
     1966     7103    1      N=F$DCB.DCBNAME.L-2;

   7103  2 000321   000000 471500                    LDP1    0,,PR0
         2 000322   100140 236100                    LDQ     96,,PR1
         2 000323   000033 772000                    QRL     27
         2 000324   000037 376007                    ANQ     31,DL
         2 000325   000002 136007                    SBLQ    2,DL
         2 000326   200006 756100                    STQ     N,,AUTO

     1967     7104    1      J=F$DCB.DCBNAME.X;

   7104  2 000327   100140 236100                    LDQ     96,,PR1
PL6.E3A0      #005=FMM$SCRUB File=FMM$OPN.:E05TSI                                TUE 07/29/97 16:53 Page:356
         2 000330   000041 772000                    QRL     33
         2 000331   200005 756100                    STQ     J,,AUTO

     1968     7105    1      IF J~=0 OR N<=0 THEN GOTO FILLOPL;

   7105  2 000332   000431 601000 2                  TNZ     FILLOPL
         2 000333   200006 235100                    LDA     N,,AUTO
         2 000334   000431 604400 2                  TMOZ    FILLOPL

     1969     7106    1      FPT$=ADDR(F$DCB.DCBNAME.N);

   7106  2 000335   000000 471500                    LDP1    0,,PR0
         2 000336   200010 451500                    STP1    N+2,,AUTO
         2 000337   200010 236100                    LDQ     N+2,,AUTO
         2 000340   000014 036000 3                  ADLQ    12
         2 000341   200004 756100                    STQ     FPT$,,AUTO

     1970     7107    2      IF SNAME.S='M$' THEN DO J=4 TO F_NUMOPS;

   7107  2 000342   200004 471500                    LDP1    FPT$,,AUTO
         2 000343   040000 106500                    CMPC    fill='040'O
         2 000344   100000 000002                    ADSC9   0,,PR1                   cn=0,n=2
         2 000345   000141 000002 0                  ADSC9   FMM$SDCB+96              cn=0,n=2
         2 000346   000366 601000 2                  TNZ     s:7113

   7107  2 000347   000004 235007                    LDA     4,DL
         2 000350   200005 755100                    STA     J,,AUTO

     1971     7108    2         IF SNAME.OP=F_OPLBL(J) THEN GOTO FILLOPL;

   7108  2 000351   200005 235100                    LDA     J,,AUTO
         2 000352   000001 735000                    ALS     1
         2 000353   200004 470500                    LDP0    FPT$,,AUTO
         2 000354   200006 720100                    LXL0    N,,AUTO
         2 000355   040005 106540                    CMPC    fill='040'O
         2 000356   000000 400010                    ADSC9   0,,PR0                   cn=2,n=*X0
         2 000357   000000 000002 xsym               ADSC9   F_OPLBL,A                cn=0,n=2
PL6.E3A0      #005=FMM$SCRUB File=FMM$OPN.:E05TSI                                TUE 07/29/97 16:53 Page:357
         2 000360   000431 600000 2                  TZE     FILLOPL

     1972     7109    2         END;

   7109  2 000361   200005 236100                    LDQ     J,,AUTO
         2 000362   000001 036007                    ADLQ    1,DL
         2 000363   200005 756100                    STQ     J,,AUTO
         2 000364   000021 116007                    CMPQ    17,DL
         2 000365   000351 602000 2                  TNC     s:7108

     1973     7110                    /*
     1974     7111                    *  NEXT SEARCH FOR FORTRAN DCBS (101 THRU 108)
     1975     7112                    */
     1976     7113    2      IF SNAME.S='F$' THEN DO;

   7113  2 000366   200004 470500                    LDP0    FPT$,,AUTO
         2 000367   040000 106500                    CMPC    fill='040'O
         2 000370   000000 000002                    ADSC9   0,,PR0                   cn=0,n=2
         2 000371   000142 000002 0                  ADSC9   FMM$SDCB+97              cn=0,n=2
         2 000372   000430 601000 2                  TNZ     s:7122

     1977     7114    3         DO J=0 TO F_NUMSPS;

   7114  2 000373   200005 450100                    STZ     J,,AUTO

     1978     7115    4            IF SNAME.OP=F_OPSPS(J) OR J=0 THEN DO;

   7115  2 000374   200005 236100                    LDQ     J,,AUTO
         2 000375   000003 402007                    MPY     3,DL
         2 000376   200004 470500                    LDP0    FPT$,,AUTO
         2 000377   200006 720100                    LXL0    N,,AUTO
         2 000400   040006 106540                    CMPC    fill='040'O
         2 000401   000000 400010                    ADSC9   0,,PR0                   cn=2,n=*X0
         2 000402   000000 000003 xsym               ADSC9   F_OPSPS,Q                cn=0,n=3
         2 000403   000406 600000 2                  TZE     s:7116
         2 000404   200005 235100                    LDA     J,,AUTO
         2 000405   000422 601000 2                  TNZ     s:7119
PL6.E3A0      #005=FMM$SCRUB File=FMM$OPN.:E05TSI                                TUE 07/29/97 16:53 Page:358

     1979     7116    4               F$DCB.FUN=F_OPSPFUN(FEXTX);

   7116  2 000406   200003 471500                    LDP1    @JDCB$,,AUTO
         2 000407   100000 473500                    LDP3    0,,PR1
         2 000410   200005 235100                    LDA     J,,AUTO
         2 000411   000100 100405                    MLR     fill='000'O
         2 000412   000000 000001 xsym               ADSC9   F_OPSPFUN,A              cn=0,n=1
         2 000413   300032 200001                    ADSC9   26,,PR3                  cn=1,n=1

     1980     7117    4               F$DCB.RES=F_OPLRES(F_OPSPRX(FEXTX));

   7117  2 000414   100000 473500                    LDP3    0,,PR1
         2 000415   000000 235005 xsym               LDA     F_OPSPRX,AL
         2 000416   000001 735000                    ALS     1
         2 000417   040100 100405                    MLR     fill='040'O
         2 000420   000000 000002 xsym               ADSC9   F_OPLRES,A               cn=0,n=2
         2 000421   300026 000004                    ADSC9   22,,PR3                  cn=0,n=4

     1981     7118    4               END;

     1982     7119    3            END;

   7119  2 000422   200005 235100                    LDA     J,,AUTO
         2 000423   000001 035007                    ADLA    1,DL
         2 000424   200005 755100                    STA     J,,AUTO
         2 000425   000014 115007                    CMPA    12,DL
         2 000426   000374 602000 2                  TNC     s:7115

     1983     7120    2         GOTO FILLSPS;

   7120  2 000427   000451 710000 2                  TRA     FILLSPS

     1984     7121    2         END;
     1985     7122    1      J=0;

   7122  2 000430   200005 450100                    STZ     J,,AUTO
PL6.E3A0      #005=FMM$SCRUB File=FMM$OPN.:E05TSI                                TUE 07/29/97 16:53 Page:359

     1986     7123                    /*
     1987     7124                    *  SPECIAL OP LABEL DCB ('M$C' THRU 'M$GO')
     1988     7125                    */
     1989     7126    1   FILLOPL:
     1990     7127    1      F$DCB.FUN=F_OPLFUN(FEXTX);

   7127  2 000431   200003 470500       FILLOPL      LDP0    @JDCB$,,AUTO
         2 000432   000000 471500                    LDP1    0,,PR0
         2 000433   200005 235100                    LDA     J,,AUTO
         2 000434   000100 100405                    MLR     fill='000'O
         2 000435   000000 000001 xsym               ADSC9   F_OPLFUN,A               cn=0,n=1
         2 000436   100032 200001                    ADSC9   26,,PR1                  cn=1,n=1

     1991     7128    1      F$DCB.RES=F_OPLRES(F_OPLRX(FEXTX));

   7128  2 000437   000000 471500                    LDP1    0,,PR0
         2 000440   000000 235005 xsym               LDA     F_OPLRX,AL
         2 000441   000001 735000                    ALS     1
         2 000442   040100 100405                    MLR     fill='040'O
         2 000443   000000 000002 xsym               ADSC9   F_OPLRES,A               cn=0,n=2
         2 000444   100026 000004                    ADSC9   22,,PR1                  cn=0,n=4

     1992     7129    1      F$DCB.FEXTX=J;

   7129  2 000445   000000 471500                    LDP1    0,,PR0
         2 000446   200005 236100                    LDQ     J,,AUTO
         2 000447   000011 736000                    QLS     9
         2 000450   100034 552110                    STBQ    28,'10'O,PR1

   7129  2 000451                       FILLSPS      null
     1993     7130                    /*
     1994     7131                    *  NOW SPECIAL CASE M$GO OP LABEL
     1995     7132                    */
     1996     7133    1   FILLSPS:;
     1997     7134    2      IF FEXTX=3 THEN DO; /* GO IS THIRD ON COMMAND LINE */

PL6.E3A0      #005=FMM$SCRUB File=FMM$OPN.:E05TSI                                TUE 07/29/97 16:53 Page:360
   7134  2 000451   200005 235100                    LDA     J,,AUTO
         2 000452   000003 115007                    CMPA    3,DL
         2 000453   000464 601000 2                  TNZ     s:7138

     1998     7135    2         F$DCB.ASN=%FILE#;

   7135  2 000454   200003 470500                    LDP0    @JDCB$,,AUTO
         2 000455   000000 471500                    LDP1    0,,PR0
         2 000456   001000 236007                    LDQ     512,DL
         2 000457   100032 552110                    STBQ    26,'10'O,PR1

     1999     7136    2         ADDR(F$DCB.NAME)->CHAR32=STARGC;

   7136  2 000460   000000 471500                    LDP1    0,,PR0
         2 000461   040100 100400                    MLR     fill='040'O
         2 000462   000000 000003 0                  ADSC9   STARG                    cn=0,n=3
         2 000463   100010 000040                    ADSC9   8,,PR1                   cn=0,n=32

     2000     7137    2         END;

     2001     7138    1      RETURN;

   7138  2 000464   000000 702200 xent               TSX2  ! X66_ARET

STARG
 Sect OctLoc
   0     000   002052 107***                                                    .*G.

FMM$SDCB
 Sect OctLoc
   0     001   000000 000000   000000 000000   000000 000000   000000 000501    ................
   0     005   000000 000000   000000 000000   000000 006014   000000 006014    ................
   0     011   001040 040040   040040 040040   040040 040040   040040 040040    .
   0     015   040040 040040   040040 040040   040040 040040   040040 040040
   0     025*  040040 040040   040040 040040   115105 040040   040040 040040            ME
   0     031   040040 040040   000000 203015   000000 003000   000000 000000        ............
   0     035   000000 000000   000000 000000   000000 000000   000002 776003    ................
PL6.E3A0      #005=FMM$SCRUB File=FMM$OPN.:E05TSI                                TUE 07/29/97 16:53 Page:361
   0     041   001000 000000   000000 000002   000000 000000   000000 000000    ................
   0     045   000000 000111   040040 040040   000000 006014   000000 006014    ...I    ........
   0     051   000000 006014   000000 000000   000000 000000   000000 006014    ................
   0     055   000000 000000   000000 000000   000000 000000   000000 000000    ................
   0     061   000000 010000   000000 000000   000000 000000   000000 000000    ................
   0     065   000000 000020   000000 000000   000000 006014   000000 000000    ................
   0     071   000000 000000   000000 000000   000000 000000   000000 000000    ................
   0     075   000000 000000   000000 006014   000000 000000   000000 000000    ................
   0     101   000000 000000   000000 000000   000000 000000   000000 000000    ................
   0     105   ****** ******   ****** ******   000000 000000   ****** ******    ................
   0     111   000000 000000   000000 000000   000000 000000   000000 000000    ................
   0     125*  000000 000000   000000 000000   000000 000000   ****** ******    ................
   0     135*  ****** ******   ****** ******   ****** ******   000000 070707    ..............8.

(unnamed)
 Sect OctLoc
   0     141   115044 040040   106044 040040                                    M$  F$

(unnamed)
 Sect OctLoc
   3     000   000012 006000   000000 000052   000001 006000   000000 000047    .......*.......'
   3     004   000003 006000   000000 000024   000005 006000   000000 000022    ................
   3     010   000007 006000   000001 006000   000116 006000   737777 777777    .........N......
   3     014   000140 200000                                                    .`..
     2002     7139    1   END FMM$SCRUB;

PL6.E3A0      #005=FMM$SCRUB File=FMM$OPN.:E05TSI                                TUE 07/29/97 16:53 Page:362
--  Include file information  --

   F_DCB_D.:E05TOU  is referenced.
   CP_6_SUBS.:E05TOU  is referenced.
   FM_FIELD_C.:E05TOU  is referenced.
   FM$MACROS.:E05TOU  is referenced.
   FM_OPLBL_R.:E05TOU  cannot be made into a system file and is referenced.
   CP_6_C.:E05TOU  is referenced.
   CP_6.:E05TOU  cannot be made into a system file and is referenced.
   F$DCB.:E05TOU  is referenced.
      No diagnostics issued in procedure FMM$SCRUB.
PL6.E3A0      #005=FMM$SCRUB File=FMM$OPN.:E05TSI                                TUE 07/29/97 16:53 Page:363

 **** Variables and constants ****

  ****  Section 000 RoData FMM$SCRUB

  ****  Scalars and arrays  ****
OctLoc.c.b A Datatyp(siz) R M Lvl/name                 OctLoc.c.b A Datatyp(siz) R M Lvl/name

     1-0-0/w STRC(3456)  r     1 FMM$SDCB                   0-0-0/c STRC(27)    r     1 STARG
     0-0-0/c CHAR(3)     r     1 STARGC

  ****  Auto variables  ****

  ****  Scalars and arrays  ****
OctLoc.c.b A Datatyp(siz) R M Lvl/name                 OctLoc.c.b A Datatyp(siz) R M Lvl/name

     3-0-0/w PTR         r     1 @JDCB$                     5-0-0/w UBIN        r     1 FEXTX
     4-0-0/w PTR         r     1 FPT$                       5-0-0/w UBIN        r     1 J
    *0-0-0/w PTR         r     1 JDCB$                      6-0-0/w SBIN        r     1 N

  ****  SYMREF variables  ****

  ****  Scalars and arrays  ****
OctLoc.c.b A Datatyp(siz) R M Lvl/name                 OctLoc.c.b A Datatyp(siz) R M Lvl/name

     0-0-0/w PTR         r     1 B$ROSEG$                   0-0-0/c CHAR(2)     r     1 F_OPLBL(0:8191)
     0-0-0/b UBIN(9)     r     1 F_OPLFUN(0:8191)
     0-0-0/c CHAR(2)     r     1 F_OPLRES(0:6)
     0-0-0/w UBIN        r     1 F_OPLRX(0:8191)            0-0-0/b UBIN(9)     r     1 F_OPSPFUN(0:8191)
     0-0-0/w UBIN        r     1 F_OPSPRX(0:8191)           0-0-0/c CHAR(3)     r     1 F_OPSPS(0:8191)

  ****  BASED and DCB variables  ****

  ****  Scalars and arrays  ****
OctLoc.c.b A Datatyp(siz) R M Lvl/name                 OctLoc.c.b A Datatyp(siz) R M Lvl/name

     0-0-0/c CHAR(32)    r     1 CHAR32                     0-0-0/w STRC(1404)  r     1 CODE16
     0-0-0/d ASTR(3528)  r     1 F$DCB                      0-0-0/w STRC(4572)  r     1 FITALTKEYS
PL6.E3A0      #005=FMM$SCRUB File=FMM$OPN.:E05TSI                                TUE 07/29/97 16:53 Page:364
     0-0-0/w STRC(72)    r     1 FM$FIELD_START             0-0-0/d STRC(45)    r     1 IRREC
     0-0-0/w STRC(81)    r     1 KFIELD                     0-0-0/c ASTR(0)     r     1 MOVEJB
     0-0-0/d STRC(54)    r     1 RECFIELD                   0-0-0/c ASTR(18)    r     1 SNAME
     0-0-0/d STRC(612)   r     1 VLP$FPRG                   0-0-0/w STRC(1512)  r     1 VLP$HDRF
     0-0-0/w STRC(432)   r     1 VLP$SETSTA                 0-0-0/w STRC(288)   r     1 VLP$STATION
     0-0-0/w STRC(288)   r     1 VLP$TAB


   Procedure FMM$SCRUB requires 309 words for executable code.
   Procedure FMM$SCRUB requires 10 words of local(AUTO) storage.

    No errors detected in file FMM$OPN.:E05TSI    .
PL6.E3A0      #005=FMM$SCRUB File=FMM$OPN.:E05TSI                                TUE 07/29/97 16:53 Page:365
          *** CROSS REFERENCE LISTING ***
**     DENOTES     IDENTIFIER DEFINITION
<<                 IDENTIFIER'S VALUE SET
>>                 IDENTIFIER'S VALUE USED
<>                 IDENTIFIER SET AND/OR USED
--                 IDENTIFIER REFERENCED
PL6.E3A0      #005=FMM$SCRUB File=FMM$OPN.:E05TSI                                TUE 07/29/97 16:53 Page:366
          MINI XREF LISTING

B$ROSEG$
        46**DCL      7056>>ASSIGN   7062>>ASSIGN   7067>>ASSIGN   7073>>ASSIGN   7079>>ASSIGN   7085>>ASSIGN
CHAR32
        38**DCL      7136<<ASSIGN
CODE16
      6139**DCL      7052--CALL
F$DCB.ACTPOS
       125**DCL       125--REDEF
F$DCB.ALTKEYX
       123**DCL      7055>>IF       7056>>ASSIGN   7059<<ASSIGN
F$DCB.ARS
       100**DCL       100--REDEF
F$DCB.ASN
       115**DCL      7135<<ASSIGN
F$DCB.ATTR
       118**DCL       119--REDEF
F$DCB.BORROW
       133**DCL       133--REDEF     133--REDEF     133--REDEF
F$DCB.DCBNAME.L
       147**DCL       147--IMP-SIZ  7103>>ASSIGN
F$DCB.DCBNAME.N
       147**DCL      7106--ASSIGN
F$DCB.DCBNAME.S
       146**DCL      7095<<ASSIGN
F$DCB.DCBNAME.X
       146**DCL      7104>>ASSIGN
F$DCB.EOMCHAR
       104**DCL       104--REDEF
F$DCB.FEXTX
       116**DCL      7129<<ASSIGN
F$DCB.FIELDX
       124**DCL      7072>>IF       7073>>ASSIGN   7076<<ASSIGN
PL6.E3A0      #005=FMM$SCRUB File=FMM$OPN.:E05TSI                                TUE 07/29/97 16:53 Page:367
F$DCB.FLDID
       128**DCL       128--REDEF
F$DCB.FORM$
       122**DCL       122--REDEF    7051>>IF       7052<>CALL
F$DCB.FPRGX
       124**DCL      7061>>IF       7062>>ASSIGN   7064<<ASSIGN
F$DCB.FSECT
       138**DCL       138--REDEF
F$DCB.FSN
       115**DCL       115--REDEF     115--REDEF     116--REDEF
F$DCB.FUN
       114**DCL      7116<<ASSIGN   7127<<ASSIGN
F$DCB.HEADER$
       121**DCL       121--REDEF    7049>>IF       7050<>CALL
F$DCB.IRRECX
       128**DCL      7084>>IF       7085>>ASSIGN   7088<<ASSIGN
F$DCB.IXTNSIZE
       119**DCL       119--REDEF
F$DCB.KFIELDX
       125**DCL      7066>>IF       7067>>ASSIGN   7070<<ASSIGN
F$DCB.LASTSTA$
       109**DCL       109--REDEF    7053>>IF       7054<>CALL
F$DCB.LVL
       134**DCL       134--REDEF
F$DCB.NAME
       109**DCL      7136--ASSIGN
F$DCB.NAME.C
       109**DCL       109--REDEF
F$DCB.NAME.L
       109**DCL      7096<<ASSIGN
F$DCB.NOEOF
       130**DCL       130--REDEF
F$DCB.NRECS
       120**DCL       120--REDEF
F$DCB.NRECX
       139**DCL       139--REDEF
PL6.E3A0      #005=FMM$SCRUB File=FMM$OPN.:E05TSI                                TUE 07/29/97 16:53 Page:368
F$DCB.OHDR
       131**DCL       131--REDEF
F$DCB.ORG
       114**DCL       114--REDEF
F$DCB.PRECNO
       137**DCL       137--REDEF
F$DCB.RCSZ
       142**DCL       142--REDEF
F$DCB.RES
       110**DCL       110--REDEF    7117<<ASSIGN   7128<<ASSIGN
F$DCB.SETX
       122**DCL       122--REDEF
F$DCB.STARTX
       125**DCL      7078>>IF       7079>>ASSIGN   7082<<ASSIGN
F$DCB.TAB$
       121**DCL       122--REDEF    7047>>IF       7048<>CALL
F$DCB.TDA
       136**DCL       136--REDEF
F$DCB.WSN
       111**DCL       111--REDEF
FEXTX
        21**DCL      7116>>ASSIGN   7117>>ASSIGN   7127>>ASSIGN   7128>>ASSIGN   7134>>IF
FILLOPL
      7127**LABEL    7105--GOTO     7108--GOTO
FILLSPS
      7129**LABEL    7120--GOTO
FITALTKEYS.NUMWRDS
      6336**DCL      7057>>ASSIGN
FM$FIELD_START.NWORDS
      6327**DCL      7080>>ASSIGN
FMM$SDCB
      6970**DCL      7093--ASSIGN   7094>>ASSIGN
FMM$SDCB.ACTPOS
      7011**DCL      7011--REDEF
FMM$SDCB.ARS#
      6970**DCL      6970--REDEF
PL6.E3A0      #005=FMM$SCRUB File=FMM$OPN.:E05TSI                                TUE 07/29/97 16:53 Page:369
FMM$SDCB.ATTR#
      7000**DCL      7000--REDEF    7002--REDEF
FMM$SDCB.BFR
      7038**DCL      7093--ASSIGN
FMM$SDCB.BORROW
      7022**DCL      7022--REDEF    7022--REDEF    7022--REDEF
FMM$SDCB.EOMCHAR#
      6977**DCL      6978--REDEF
FMM$SDCB.FLDID
      7014**DCL      7015--REDEF
FMM$SDCB.FORM$
      7006**DCL      7006--REDEF
FMM$SDCB.FSECT
      7029**DCL      7029--REDEF
FMM$SDCB.FSN#
      6996**DCL      6996--REDEF    6996--REDEF    6997--REDEF
FMM$SDCB.HEADER$
      7005**DCL      7006--REDEF
FMM$SDCB.IXTNSIZE#
      7002**DCL      7003--REDEF
FMM$SDCB.LASTSTA$
      6986**DCL      6986--REDEF
FMM$SDCB.LVL
      7023**DCL      7023--REDEF
FMM$SDCB.NAME#.C
      6986**DCL      6987--REDEF
FMM$SDCB.NOEOF
      7018**DCL      7018--REDEF
FMM$SDCB.NRECS#
      7003**DCL      7003--REDEF
FMM$SDCB.NRECX
      7030**DCL      7030--REDEF
FMM$SDCB.OHDR
      7019**DCL      7019--REDEF
FMM$SDCB.ORG#
      6994**DCL      6995--REDEF
PL6.E3A0      #005=FMM$SCRUB File=FMM$OPN.:E05TSI                                TUE 07/29/97 16:53 Page:370
FMM$SDCB.PRECNO
      7027**DCL      7027--REDEF
FMM$SDCB.RCSZ
      7035**DCL      7035--REDEF
FMM$SDCB.RES#
      6988**DCL      6988--REDEF
FMM$SDCB.SETX
      7007**DCL      7007--REDEF
FMM$SDCB.TAB$
      7006**DCL      7006--REDEF
FMM$SDCB.TDA
      7026**DCL      7027--REDEF
FMM$SDCB.WSN#
      6988**DCL      6989--REDEF
FPT$
        19**DCL        28--IMP-PTR  6336--IMP-PTR  7056<<ASSIGN   7057>>ASSIGN   7058<>CALL     7062<<ASSIGN
      7063<>CALL     7067<<ASSIGN   7068>>ASSIGN   7069<>CALL     7073<<ASSIGN   7074>>ASSIGN   7075<>CALL
      7079<<ASSIGN   7080>>ASSIGN   7081<>CALL     7085<<ASSIGN   7086>>ASSIGN   7087<>CALL     7106<<ASSIGN
      7107>>IF       7108>>IF       7113>>IF       7115>>IF
FSA$FSP
        42**DCL-ENT  7048--CALL     7050--CALL     7052--CALL     7054--CALL     7058--CALL     7063--CALL
      7069--CALL     7075--CALL     7081--CALL     7087--CALL
F_OPLBL
      5717**DCL      7108>>IF
F_OPLFUN
      5717**DCL      7127>>ASSIGN
F_OPLRES
      5718**DCL      7117>>ASSIGN   7128>>ASSIGN
F_OPLRX
      5717**DCL      7128>>ASSIGN
F_OPSPFUN
      5720**DCL      7116>>ASSIGN
F_OPSPRX
      5720**DCL      7117>>ASSIGN
F_OPSPS
      5720**DCL      7115>>IF
PL6.E3A0      #005=FMM$SCRUB File=FMM$OPN.:E05TSI                                TUE 07/29/97 16:53 Page:371
IRREC.NFIELDS#
      6307**DCL      7086>>ASSIGN
J
        20**DCL        21--REDEF      26--IMP-SIZ    27--IMP-SIZ  7057<<ASSIGN   7058<>CALL     7068<<ASSIGN
      7069<>CALL     7074<<ASSIGN   7075<>CALL     7080<<ASSIGN   7081<>CALL     7086<<ASSIGN   7087<>CALL
      7093<<ASSIGN   7094>>ASSIGN   7104<<ASSIGN   7105>>IF       7107<<DOINDEX  7108>>IF       7114<<DOINDEX
      7115>>IF       7115>>IF       7122<<ASSIGN   7129>>ASSIGN
JDCB$
        15**DCL        11--PROC      100--IMP-PTR  7047>>IF       7048>>CALL     7049>>IF       7050>>CALL
      7051>>IF       7052>>CALL     7053>>IF       7054>>CALL     7055>>IF       7056>>ASSIGN   7059>>ASSIGN
      7061>>IF       7062>>ASSIGN   7064>>ASSIGN   7066>>IF       7067>>ASSIGN   7070>>ASSIGN   7072>>IF
      7073>>ASSIGN   7076>>ASSIGN   7078>>IF       7079>>ASSIGN   7082>>ASSIGN   7084>>IF       7085>>ASSIGN
      7088>>ASSIGN   7091--ENTRY    7094>>ASSIGN   7095>>ASSIGN   7096>>ASSIGN   7103>>ASSIGN   7104>>ASSIGN
      7106>>ASSIGN   7116>>ASSIGN   7117>>ASSIGN   7127>>ASSIGN   7128>>ASSIGN   7129>>ASSIGN   7135>>ASSIGN
      7136>>ASSIGN
KFIELD.NWORDS
      6311**DCL      7068>>ASSIGN
MOVEJB
        27**DCL      7094<<ASSIGN
N
        22**DCL        30--IMP-SIZ  7103<<ASSIGN   7105>>IF       7108>>IF       7115>>IF
RECFIELD.FIELD
      6272**DCL      6272--REDEF
RECFIELD.NFIELDS#
      6264**DCL      7074>>ASSIGN
SNAME.OP
        30**DCL      7108>>IF       7115>>IF
SNAME.S
        29**DCL      7107>>IF       7113>>IF
STARG
        34**DCL        37--REDEF
STARGC
        37**DCL      7136>>ASSIGN
VLP$FPRG
      6242**DCL      7063--CALL
VLP$HDRF
PL6.E3A0      #005=FMM$SCRUB File=FMM$OPN.:E05TSI                                TUE 07/29/97 16:53 Page:372
      6171**DCL      7050--CALL
VLP$SETSTA
      6215**DCL      7054--CALL
VLP$STATION
      6188**DCL      7054--CALL
VLP$STATION.MSGIDXT
      6198**DCL      6201--REDEF
VLP$TAB
      6157**DCL      7048--CALL
