PL6.E3A0      #004=FMN$MADMUCK File=FMN$OPNDP.:E05TSI                            TUE 07/29/97 16:54 Page:315
     1488        1        /*T***********************************************************/
     1489        2        /*T*                                                         */
     1490        3        /*T* Copyright (c) Bull HN Information Systems Inc., 1997    */
     1491        4        /*T*                                                         */
     1492        5        /*T***********************************************************/
     1493        6                    /*F*     NAME: FMN$MADMUCK
     1494        7                   *        PURPOSE: To perform read, write, and delete functions on keys of
     1495        8                    *        the MAD.
     1496        9                    *        DESCRIPTION: The M$MADMUCK FPT dictates what function(s)
     1497       10                    *        to perform with the ACCT and SN parameters.
     1498       11                    */
     1499       12        FMN$MADMUCK: PROC;
     1500       13        %INCLUDE F$CP6V_C;
     1501      239        %INCLUDE F_CP6;
     1502     1264        %FPT$MADMUCK_V(FPTN=FPTV,BASED="BASED(B$PS0$)");
     1503     1267        %INCLUDE F$JIT_C;
     1504     1697        %INCLUDE FM$MACROS;
     1505     2072        %INCLUDE F_ERRORS_C;
     1506     2312        %INCLUDE UD_ERRORS_C;
     1507     2354        %INCLUDE CP_6_SUBS;
     1508     2894        %MACRO F$DCB(BASED=BASED);
     1509     2895        %INCLUDE F$DCB;
     1510     2944        %MEND;
     1511     2945        %F$DCB(BASED="BASED(JDCB$)");
     1512     2995        %FM$CFUA(BASED="BASED(ACCT$)");
     1513     3001        %VLP_ACCT(FPTN=ACCT,STCLASS="BASED(B$PS1$)");
     1514     3014        %VLP_SN(FPTN=PSN,STCLASS="BASED(B$PS2$)");
     1515     3027        %FM$MADKEY(BASED="BASED(KEY$)");
     1516     3030    1   DCL JDCB$ PTR;
     1517     3031    1   DCL KEY$ PTR;
     1518     3032    1   DCL SEG$ PTR;
     1519     3033    1   DCL ACCT$ PTR;
     1520     3034        %SUB FCG#='0615'O;
     1521     3035        %SUB MID#='16'O;
     1522     3036        %ERRCODE(NAME=FMN$E$OLDREC,COD#=%E$OLDREC);
     1523     3040        %ERRCODE(NAME=FMN$E$NOTAUTH,COD#=%E$NOTAUTH);
     1524     3044        %ERRCODE(NAME=FMN$E$NOKEY,COD#=%E$NOKEY);
PL6.E3A0      #004=FMN$MADMUCK File=FMN$OPNDP.:E05TSI                            TUE 07/29/97 16:54 Page:316
     1525     3048                    /* ENTREFS */
     1526     3049    1   DCL FMD$REDBUF ENTRY(6)ALTRET;
     1527     3050    1   DCL FMD$FLSHBUF ENTRY(1);
     1528     3051    1   DCL FMG$ADDKEY ENTRY(4) ALTRET;
     1529     3052    1   DCL FMG$FINDKEY ENTRY(4) ALTRET;
     1530     3053    1   DCL FMG$REMKEY ENTRY ALTRET;
     1531     3054    1   DCL FMM$SCRUB ENTRY(1);
     1532     3055    1   DCL FMO$PACKACCT ENTRY(2);
     1533     3056    1   DCL FMP$CLSJ ENTRY;
     1534     3057    1   DCL FMR$SLIDE ENTRY(3);
     1535     3058    1   DCL FMR$L8 ENTRY;
     1536     3059    1   DCL FMR$U8 ENTRY;
     1537     3060    1   DCL HFF$TRAPALT ENTRY ALTRET;
     1538     3061    1   DCL HFF$WRITE1 ENTRY(1)ALTRET;
     1539     3062    1   DCL UQB$MENQS ENTRY(1)ALTRET;
     1540     3063    1   DCL UQB$MENQX ENTRY(1)ALTRET;
     1541     3064    1   DCL UQB$MDEQ ENTRY(1)ALTRET;
     1542     3065                    /* SYMREFS */
     1543     3066    1   DCL B$PS0$ PTR SYMREF;
     1544     3067    1   DCL B$PS1$ PTR SYMREF;
     1545     3068    1   DCL B$PS2$ PTR SYMREF;
     1546     3069    1   DCL B$JIT$ PTR SYMREF;
     1547     3070    1   DCL FM$SET$ PTR SYMREF;
     1548     3071    1   DCL FM_MADSDA UBIN SYMREF;
     1549     3072    1   DCL FM_SYSSETX UBIN SYMREF;
     1550     3073                    /**/
     1551     3074    1      JDCB$=DCBADDR(1); /* USE M$* FOR PLACE TO HOOK BUFFERS */
     1552     3075    1      B$JIT.DCB$=JDCB$;
     1553     3076    1      IF F$DCB.FCD THEN CALL FMP$CLSJ;
     1554     3077    1      CALL FMM$SCRUB(JDCB$);
     1555     3078    1      ACCT$=ADDR(F$DCB.ACCT);
     1556     3079    1      F$DCB.ACCT=ACCT.ACCT#;
     1557     3080    1      CALL FMO$PACKACCT(JDCB$,ACCT$);
     1558     3081    1      IF FPTV.WRITE THEN F$DCB.PSN=PSN.SN#(0);
     1559     3082    1      F$DCB.SETX=FM_SYSSETX;
     1560     3083    1      F$DCB.GTYP=FMGTMAD;
     1561     3084    1      IF FPTV.WRITE OR FPTV.DELETE
PL6.E3A0      #004=FMN$MADMUCK File=FMN$OPNDP.:E05TSI                            TUE 07/29/97 16:54 Page:317
     1562     3085    1      THEN CALL UQB$MENQX(FM$SET$)ALTRET(RETALT);
     1563     3086    1      ELSE CALL UQB$MENQS(FM$SET$)ALTRET(RETALT);
     1564     3087    1      CALL HFF$TRAPALT ALTRET(RETALTU);
     1565     3088    1      CALL FMD$REDBUF(KEY$,1,FM_MADSDA,,0) ALTRET(RETALTU);
     1566     3089    1      CALL FMG$FINDKEY(SEG$,SEG$,KEY$,ACCT$) ALTRET(NOKEY);
     1567     3090    1      IF FPTV.WRITE
     1568     3091    1      THEN IF F$DCB.PSN=FM$MADKEY.PSN THEN GOTO RETALTU; /*OK IF NO CHANGE*/
     1569     3092    1         ELSE B$JIT.ERR=FMN$E$OLDREC;
     1570     3093    2      IF FPTV.READ THEN DO;
     1571     3094    2         F$DCB.PSN=FM$MADKEY.PSN;
     1572     3095    2         CALL HFF$WRITE1(2)ALTRET(NOWRITE);
     1573     3096    2         PSN.SN#(0)=FM$MADKEY.PSN;
     1574     3097    2   NOWRITE:;
     1575     3098    2         END;
     1576     3099    2      IF FPTV.DELETE THEN DO;
     1577     3100    2         IF NOT B$JIT.PRIV.ACTIVE&%PR_FMDIAG# THEN GOTO NOPRIV;
     1578     3101    2         CALL FMG$REMKEY;
     1579     3102    2         CALL FMR$L8;
     1580     3103                    /* NOW MARK NON-PUBLIC ANY ACCT BLOCKS */
     1581     3104    2         ACCT$=PINCRW(FM$SET$,FM$SET$->FM$CFUA.LINKX);
     1582     3105    3         DO WHILE(ACCT$~=FM$SET$);
     1583     3106    3            IF FM$CFUA.ACCT=ACCT.ACCT# THEN FM$CFUA.PRIV='1'B;
     1584     3107    3            ACCT$=PINCRW(FM$SET$,FM$CFUA.LINKX);
     1585     3108    3            END;
     1586     3109    2         CALL FMR$U8;
     1587     3110    2         END;
     1588     3111    1   RETALTU:;
     1589     3112    1      CALL FMD$FLSHBUF(1);
     1590     3113    1      CALL UQB$MDEQ(FM$SET$);
     1591     3114    1   RETALT:;
     1592     3115    1      RETURN;
     1593     3116                    /**/
     1594     3117    1   NOKEY:;
     1595     3118    1      IF B$JIT.ERR.CODE=%E$NOKEY THEN B$JIT.ERR=FMN$E$NOKEY;
     1596     3119    1      IF NOT FPTV.WRITE
     1597     3120    1        OR FPTV.READ OR FPTV.DELETE
     1598     3121    1        OR B$JIT.ERR.CODE~=%E$NOKEY THEN GOTO RETALTU;
PL6.E3A0      #004=FMN$MADMUCK File=FMN$OPNDP.:E05TSI                            TUE 07/29/97 16:54 Page:318
     1599     3122    1      B$JIT.ERR='0'B;
     1600     3123    1      IF NOT B$JIT.PRIV.ACTIVE&%PR_FMDIAG# THEN GOTO NOPRIV;
     1601     3124    1      CALL FMG$ADDKEY(SEG$,2,KEY$,ACCT$) ALTRET(RETALTU);
     1602     3125    1      FM$MADKEY.PSN=F$DCB.PSN;
     1603     3126    1      GOTO RETALTU;
     1604     3127                    /**/
     1605     3128    1   NOPRIV:;
     1606     3129    1      B$JIT.ERR=FMN$E$NOTAUTH;
     1607     3130    1      GOTO RETALTU;
     1608     3131    1   END FMN$MADMUCK;
     1609     3132        %EOD;

PL6.E3A0      #004=FMN$MADMUCK File=FMN$OPNDP.:E05TSI                            TUE 07/29/97 16:54 Page:319
--  Include file information  --

   F$DCB.:E05TOU  is referenced.
   CP_6_SUBS.:E05TOU  is referenced.
   UD_ERRORS_C.:E05TOU  is referenced.
   F_ERRORS_C.:E05TOU  is referenced.
   FM$MACROS.:E05TOU  is referenced.
   B$JIT_C.:E05TOU  is referenced.
   F$JIT_C.:E05TOU  cannot be made into a system file and is referenced.
   F_CP6.:E05TOU  is referenced.
   F$CP6V_C.:E05TOU  is referenced.
      No diagnostics issued in procedure FMN$MADMUCK.

   Procedure FMN$MADMUCK requires 218 words for executable code.
   Procedure FMN$MADMUCK requires 14 words of local(AUTO) storage.

PL6.E3A0      #004=FMN$MADMUCK File=FMN$OPNDP.:E05TSI                            TUE 07/29/97 16:54 Page:320

 Object Unit name= FMN$MADMUCK                                File name= FMN$OPNDP.:E05TOU
 UTS= JUL 29 '97 16:54:26.96 TUE                              Compiler= PL-6/E31         Sev=      00
 SharedLib= :SHARED_SYSTEM                                    Alt SharedLib=


    ****  Control sections  ****

 Sect   Type Bound  Init  Size OctSiz  Section name(segment info)
    0  RoData even  UTS      4      4  FMN$MADMUCK
    1   Proc  even  none   218    332  FMN$MADMUCK
    2  RoData even  none     7      7  FMN$MADMUCK

    ****  Entry defs  ****

                              Check   Calling
                             calling  sequence
  Sect OctLoc Primary Altret sequence   type   Parms  Name
     1      0   yes            yes      Std        0  FMN$MADMUCK
PL6.E3A0      #004=FMN$MADMUCK File=FMN$OPNDP.:E05TSI                            TUE 07/29/97 16:54 Page:321

  ****  Entry refs  ****

         Check        Calling
        calling       sequence
Altret sequence SRef   type   Args  Name
         yes           Std       0 FMP$CLSJ
         yes           Std       1 FMM$SCRUB
 yes     yes           Std       1 UQB$MENQS
 yes     yes           Std       1 HFF$WRITE1
 yes     yes           Std       0 HFF$TRAPALT
         yes           Std       1 FMD$FLSHBUF
 yes     yes           Std       4 FMG$ADDKEY
 yes     yes           Std       1 UQB$MDEQ
         yes           Std       2 FMO$PACKACCT
 yes     yes           Std       1 UQB$MENQX
 yes     yes           Std       4 FMG$FINDKEY
         yes           Std       0 FMR$L8
 yes     yes           Std       6 FMD$REDBUF
 yes     yes           Std       0 FMG$REMKEY
         yes           Std       0 FMR$U8
                       nStd      0 X66_AUTO_0
                       Std       0 B_CONSPOOL_D
                       nStd      0 X66_ARET

  ****  Data refs  ****

  Flags:  r = read only, s = secondary
Flgs Name                             Flgs Name                             Flgs Name
     B$PS0$                                B$PS1$                                B$PS2$
     B$JIT$                                FM$SET$                               FM_MADSDA
     FM_SYSSETX                            B_VECTNIL
PL6.E3A0      #004=FMN$MADMUCK File=FMN$OPNDP.:E05TSI                            TUE 07/29/97 16:54 Page:322

  ****  Segment refs  ****

  Flags:  r = read only, s = secondary
Flgs Name                             Flgs Name                             Flgs Name
     ROSID                                 ISSID
PL6.E3A0      #004=FMN$MADMUCK File=FMN$OPNDP.:E05TSI                            TUE 07/29/97 16:54 Page:323


     1488        1        /*T***********************************************************/
     1489        2        /*T*                                                         */
     1490        3        /*T* Copyright (c) Bull HN Information Systems Inc., 1997    */
     1491        4        /*T*                                                         */
     1492        5        /*T***********************************************************/
     1493        6                    /*F*     NAME: FMN$MADMUCK
     1494        7                   *       PURPOSE: To perform read, write, and delete functions on keys of
     1495        8                    *        the MAD.
     1496        9                    *        DESCRIPTION: The M$MADMUCK FPT dictates what function(s)
     1497       10                    *        to perform with the ACCT and SN parameters.
     1498       11                    */
     1499       12        FMN$MADMUCK: PROC;

     12  1 000000   000000 700200 xent  FMN$MADMUCK  TSX0  ! X66_AUTO_0
         1 000001   000016 000000                    ZERO    14,0

     1500       13        %INCLUDE F$CP6V_C;
     1501      239        %INCLUDE F_CP6;
     1502     1264        %FPT$MADMUCK_V(FPTN=FPTV,BASED="BASED(B$PS0$)");
     1503     1267        %INCLUDE F$JIT_C;
     1504     1697        %INCLUDE FM$MACROS;
     1505     2072        %INCLUDE F_ERRORS_C;
     1506     2312        %INCLUDE UD_ERRORS_C;
     1507     2354        %INCLUDE CP_6_SUBS;
     1508     2894        %MACRO F$DCB(BASED=BASED);
     1509     2895        %INCLUDE F$DCB;
     1510     2944        %MEND;
     1511     2945        %F$DCB(BASED="BASED(JDCB$)");
     1512     2995        %FM$CFUA(BASED="BASED(ACCT$)");
     1513     3001        %VLP_ACCT(FPTN=ACCT,STCLASS="BASED(B$PS1$)");
     1514     3014        %VLP_SN(FPTN=PSN,STCLASS="BASED(B$PS2$)");
     1515     3027        %FM$MADKEY(BASED="BASED(KEY$)");
     1516     3030    1   DCL JDCB$ PTR;
     1517     3031    1   DCL KEY$ PTR;
     1518     3032    1   DCL SEG$ PTR;
     1519     3033    1   DCL ACCT$ PTR;
PL6.E3A0      #004=FMN$MADMUCK File=FMN$OPNDP.:E05TSI                            TUE 07/29/97 16:54 Page:324
     1520     3034        %SUB FCG#='0615'O;
     1521     3035        %SUB MID#='16'O;
     1522     3036        %ERRCODE(NAME=FMN$E$OLDREC,COD#=%E$OLDREC);
     1523     3040        %ERRCODE(NAME=FMN$E$NOTAUTH,COD#=%E$NOTAUTH);
     1524     3044        %ERRCODE(NAME=FMN$E$NOKEY,COD#=%E$NOKEY);
     1525     3048                    /* ENTREFS */
     1526     3049    1   DCL FMD$REDBUF ENTRY(6)ALTRET;
     1527     3050    1   DCL FMD$FLSHBUF ENTRY(1);
     1528     3051    1   DCL FMG$ADDKEY ENTRY(4) ALTRET;
     1529     3052    1   DCL FMG$FINDKEY ENTRY(4) ALTRET;
     1530     3053    1   DCL FMG$REMKEY ENTRY ALTRET;
     1531     3054    1   DCL FMM$SCRUB ENTRY(1);
     1532     3055    1   DCL FMO$PACKACCT ENTRY(2);
     1533     3056    1   DCL FMP$CLSJ ENTRY;
     1534     3057    1   DCL FMR$SLIDE ENTRY(3);
     1535     3058    1   DCL FMR$L8 ENTRY;
     1536     3059    1   DCL FMR$U8 ENTRY;
     1537     3060    1   DCL HFF$TRAPALT ENTRY ALTRET;
     1538     3061    1   DCL HFF$WRITE1 ENTRY(1)ALTRET;
     1539     3062    1   DCL UQB$MENQS ENTRY(1)ALTRET;
     1540     3063    1   DCL UQB$MENQX ENTRY(1)ALTRET;
     1541     3064    1   DCL UQB$MDEQ ENTRY(1)ALTRET;
     1542     3065                    /* SYMREFS */
     1543     3066    1   DCL B$PS0$ PTR SYMREF;
     1544     3067    1   DCL B$PS1$ PTR SYMREF;
     1545     3068    1   DCL B$PS2$ PTR SYMREF;
     1546     3069    1   DCL B$JIT$ PTR SYMREF;
     1547     3070    1   DCL FM$SET$ PTR SYMREF;
     1548     3071    1   DCL FM_MADSDA UBIN SYMREF;
     1549     3072    1   DCL FM_SYSSETX UBIN SYMREF;
     1550     3073                    /**/
     1551     3074    1      JDCB$=DCBADDR(1); /* USE M$* FOR PLACE TO HOOK BUFFERS */

   3074  1 000002   000000 470400 2                  LDP0    0
         1 000003   000000 471500                    LDP1    0,,PR0
         1 000004   100001 236100                    LDQ     1,,PR1
         1 000005   200003 756100                    STQ     JDCB$,,AUTO
PL6.E3A0      #004=FMN$MADMUCK File=FMN$OPNDP.:E05TSI                            TUE 07/29/97 16:54 Page:325

     1552     3075    1      B$JIT.DCB$=JDCB$;

   3075  1 000006   000000 473400 xsym               LDP3    B$JIT$
         1 000007   300232 756100                    STQ     154,,PR3

     1553     3076    1      IF F$DCB.FCD THEN CALL FMP$CLSJ;

   3076  1 000010   200003 474500                    LDP4    JDCB$,,AUTO
         1 000011   400031 236100                    LDQ     25,,PR4
         1 000012   020000 316007                    CANQ    8192,DL
         1 000013   000017 600000 1                  TZE     s:3077

   3076  1 000014   000002 631400 xsym               EPPR1   B_VECTNIL+2
         1 000015   000000 701000 xent               TSX1    FMP$CLSJ
         1 000016   000000 011000                    NOP     0

     1554     3077    1      CALL FMM$SCRUB(JDCB$);

   3077  1 000017   200003 630500                    EPPR0   JDCB$,,AUTO
         1 000020   200010 450500                    STP0    ACCT$+2,,AUTO
         1 000021   200010 630500                    EPPR0   ACCT$+2,,AUTO
         1 000022   000017 631400 xsym               EPPR1   B_VECTNIL+15
         1 000023   000000 701000 xent               TSX1    FMM$SCRUB
         1 000024   000000 011000                    NOP     0

     1555     3078    1      ACCT$=ADDR(F$DCB.ACCT);

   3078  1 000025   200003 236100                    LDQ     JDCB$,,AUTO
         1 000026   000020 036003                    ADLQ    16,DU
         1 000027   200006 756100                    STQ     ACCT$,,AUTO

     1556     3079    1      F$DCB.ACCT=ACCT.ACCT#;

   3079  1 000030   000000 470400 xsym               LDP0    B$PS1$
         1 000031   200003 471500                    LDP1    JDCB$,,AUTO
         1 000032   040100 100500                    MLR     fill='040'O
PL6.E3A0      #004=FMN$MADMUCK File=FMN$OPNDP.:E05TSI                            TUE 07/29/97 16:54 Page:326
         1 000033   000000 000010                    ADSC9   0,,PR0                   cn=0,n=8
         1 000034   100020 000010                    ADSC9   16,,PR1                  cn=0,n=8

     1557     3080    1      CALL FMO$PACKACCT(JDCB$,ACCT$);

   3080  1 000035   200006 633500                    EPPR3   ACCT$,,AUTO
         1 000036   200011 453500                    STP3    ACCT$+3,,AUTO
         1 000037   200003 634500                    EPPR4   JDCB$,,AUTO
         1 000040   200010 454500                    STP4    ACCT$+2,,AUTO
         1 000041   200010 630500                    EPPR0   ACCT$+2,,AUTO
         1 000042   000020 631400 xsym               EPPR1   B_VECTNIL+16
         1 000043   000000 701000 xent               TSX1    FMO$PACKACCT
         1 000044   000000 011000                    NOP     0

     1558     3081    1      IF FPTV.WRITE THEN F$DCB.PSN=PSN.SN#(0);

   3081  1 000045   000000 470400 xsym               LDP0    B$PS0$
         1 000046   000000 236100                    LDQ     0,,PR0
         1 000047   200000 316007                    CANQ    65536,DL
         1 000050   000056 600000 1                  TZE     s:3082

   3081  1 000051   000000 471400 xsym               LDP1    B$PS2$
         1 000052   200003 473500                    LDP3    JDCB$,,AUTO
         1 000053   040100 100500                    MLR     fill='040'O
         1 000054   100001 000006                    ADSC9   1,,PR1                   cn=0,n=6
         1 000055   300024 000006                    ADSC9   20,,PR3                  cn=0,n=6

     1559     3082    1      F$DCB.SETX=FM_SYSSETX;

   3082  1 000056   000000 720000 xsym               LXL0    FM_SYSSETX
         1 000057   200003 471500                    LDP1    JDCB$,,AUTO
         1 000060   100051 440100                    SXL0    41,,PR1

     1560     3083    1      F$DCB.GTYP=FMGTMAD;

   3083  1 000061   100064 236100                    LDQ     52,,PR1
         1 000062   000001 376000 2                  ANQ     1
PL6.E3A0      #004=FMN$MADMUCK File=FMN$OPNDP.:E05TSI                            TUE 07/29/97 16:54 Page:327
         1 000063   010000 276003                    ORQ     4096,DU
         1 000064   100064 756100                    STQ     52,,PR1

     1561     3084    1      IF FPTV.WRITE OR FPTV.DELETE

   3084  1 000065   000000 236100                    LDQ     0,,PR0
         1 000066   200000 316007                    CANQ    65536,DL
         1 000067   000072 601000 1                  TNZ     s:3085
         1 000070   100000 316007                    CANQ    32768,DL
         1 000071   000077 600000 1                  TZE     s:3086

     1562     3085    1      THEN CALL UQB$MENQX(FM$SET$)ALTRET(RETALT);

   3085  1 000072   000002 630400 2                  EPPR0   2
         1 000073   000017 631400 xsym               EPPR1   B_VECTNIL+15
         1 000074   000000 701000 xent               TSX1    UQB$MENQX
         1 000075   000254 702000 1                  TSX2    RETALT
         1 000076   000103 710000 1                  TRA     s:3087

     1563     3086    1      ELSE CALL UQB$MENQS(FM$SET$)ALTRET(RETALT);

   3086  1 000077   000002 630400 2                  EPPR0   2
         1 000100   000017 631400 xsym               EPPR1   B_VECTNIL+15
         1 000101   000000 701000 xent               TSX1    UQB$MENQS
         1 000102   000254 702000 1                  TSX2    RETALT

     1564     3087    1      CALL HFF$TRAPALT ALTRET(RETALTU);

   3087  1 000103   000002 631400 xsym               EPPR1   B_VECTNIL+2
         1 000104   000000 701000 xent               TSX1    HFF$TRAPALT
         1 000105   000244 702000 1                  TSX2    RETALTU

     1565     3088    1      CALL FMD$REDBUF(KEY$,1,FM_MADSDA,,0) ALTRET(RETALTU);

   3088  1 000106   000003 236000 2                  LDQ     3
         1 000107   200014 756100                    STQ     ACCT$+6,,AUTO
         1 000110   000001 236000 xsym               LDQ     B_VECTNIL+1
PL6.E3A0      #004=FMN$MADMUCK File=FMN$OPNDP.:E05TSI                            TUE 07/29/97 16:54 Page:328
         1 000111   000004 235000 2                  LDA     4
         1 000112   200012 757100                    STAQ    ACCT$+4,,AUTO
         1 000113   000005 236000 2                  LDQ     5
         1 000114   200011 756100                    STQ     ACCT$+3,,AUTO
         1 000115   200004 630500                    EPPR0   KEY$,,AUTO
         1 000116   200010 450500                    STP0    ACCT$+2,,AUTO
         1 000117   200010 630500                    EPPR0   ACCT$+2,,AUTO
         1 000120   000023 631400 xsym               EPPR1   B_VECTNIL+19
         1 000121   000000 701000 xent               TSX1    FMD$REDBUF
         1 000122   000244 702000 1                  TSX2    RETALTU

     1566     3089    1      CALL FMG$FINDKEY(SEG$,SEG$,KEY$,ACCT$) ALTRET(NOKEY);

   3089  1 000123   200006 630500                    EPPR0   ACCT$,,AUTO
         1 000124   200013 450500                    STP0    ACCT$+5,,AUTO
         1 000125   200004 631500                    EPPR1   KEY$,,AUTO
         1 000126   200012 451500                    STP1    ACCT$+4,,AUTO
         1 000127   200005 633500                    EPPR3   SEG$,,AUTO
         1 000130   200011 453500                    STP3    ACCT$+3,,AUTO
         1 000131   200005 634500                    EPPR4   SEG$,,AUTO
         1 000132   200010 454500                    STP4    ACCT$+2,,AUTO
         1 000133   200010 630500                    EPPR0   ACCT$+2,,AUTO
         1 000134   000022 631400 xsym               EPPR1   B_VECTNIL+18
         1 000135   000000 701000 xent               TSX1    FMG$FINDKEY
         1 000136   000255 702000 1                  TSX2    NOKEY

     1567     3090    1      IF FPTV.WRITE

   3090  1 000137   000000 470400 xsym               LDP0    B$PS0$
         1 000140   000000 236100                    LDQ     0,,PR0
         1 000141   200000 316007                    CANQ    65536,DL
         1 000142   000154 600000 1                  TZE     s:3093

     1568     3091    1      THEN IF F$DCB.PSN=FM$MADKEY.PSN THEN GOTO RETALTU; /*OK IF NO CHANGE*/

   3091  1 000143   200003 471500                    LDP1    JDCB$,,AUTO
         1 000144   200004 473500                    LDP3    KEY$,,AUTO
PL6.E3A0      #004=FMN$MADMUCK File=FMN$OPNDP.:E05TSI                            TUE 07/29/97 16:54 Page:329
         1 000145   040100 106500                    CMPC    fill='040'O
         1 000146   100024 000006                    ADSC9   20,,PR1                  cn=0,n=6
         1 000147   300002 400006                    ADSC9   2,,PR3                   cn=2,n=6
         1 000150   000244 600000 1                  TZE     RETALTU

     1569     3092    1         ELSE B$JIT.ERR=FMN$E$OLDREC;

   3092  1 000151   000000 236000 0                  LDQ     FMN$E$OLDREC
         1 000152   000000 474400 xsym               LDP4    B$JIT$
         1 000153   400012 756100                    STQ     10,,PR4

     1570     3093    2      IF FPTV.READ THEN DO;

   3093  1 000154   000000 236100                    LDQ     0,,PR0
         1 000155   400000 316007                    CANQ    -131072,DL
         1 000156   000175 600000 1                  TZE     NOWRITE

     1571     3094    2         F$DCB.PSN=FM$MADKEY.PSN;

   3094  1 000157   200004 471500                    LDP1    KEY$,,AUTO
         1 000160   200003 473500                    LDP3    JDCB$,,AUTO
         1 000161   040100 100500                    MLR     fill='040'O
         1 000162   100002 400006                    ADSC9   2,,PR1                   cn=2,n=6
         1 000163   300024 000006                    ADSC9   20,,PR3                  cn=0,n=6

     1572     3095    2         CALL HFF$WRITE1(2)ALTRET(NOWRITE);

   3095  1 000164   000006 630400 2                  EPPR0   6
         1 000165   000017 631400 xsym               EPPR1   B_VECTNIL+15
         1 000166   000000 701000 xent               TSX1    HFF$WRITE1
         1 000167   000175 702000 1                  TSX2    NOWRITE

     1573     3096    2         PSN.SN#(0)=FM$MADKEY.PSN;

   3096  1 000170   200004 470500                    LDP0    KEY$,,AUTO
         1 000171   000000 471400 xsym               LDP1    B$PS2$
         1 000172   040100 100500                    MLR     fill='040'O
PL6.E3A0      #004=FMN$MADMUCK File=FMN$OPNDP.:E05TSI                            TUE 07/29/97 16:54 Page:330
         1 000173   000002 400006                    ADSC9   2,,PR0                   cn=2,n=6
         1 000174   100001 000006                    ADSC9   1,,PR1                   cn=0,n=6

   3096  1 000175                       NOWRITE      null
     1574     3097    2   NOWRITE:;
     1575     3098    2         END;

     1576     3099    2      IF FPTV.DELETE THEN DO;

   3099  1 000175   000000 470400 xsym               LDP0    B$PS0$
         1 000176   000000 236100                    LDQ     0,,PR0
         1 000177   100000 316007                    CANQ    32768,DL
         1 000200   000244 600000 1                  TZE     RETALTU

     1577     3100    2         IF NOT B$JIT.PRIV.ACTIVE&%PR_FMDIAG# THEN GOTO NOPRIV;

   3100  1 000201   000000 471400 xsym               LDP1    B$JIT$
         1 000202   100013 236100                    LDQ     11,,PR1
         1 000203   000003 376000 0                  ANQ     FMN$E$NOKEY+1
         1 000204   000326 600000 1                  TZE     NOPRIV

     1578     3101    2         CALL FMG$REMKEY;

   3101  1 000205   000002 631400 xsym               EPPR1   B_VECTNIL+2
         1 000206   000000 701000 xent               TSX1    FMG$REMKEY
         1 000207   000000 011000                    NOP     0

     1579     3102    2         CALL FMR$L8;

   3102  1 000210   000002 631400 xsym               EPPR1   B_VECTNIL+2
         1 000211   000000 701000 xent               TSX1    FMR$L8
         1 000212   000000 011000                    NOP     0

     1580     3103                    /* NOW MARK NON-PUBLIC ANY ACCT BLOCKS */
     1581     3104    2         ACCT$=PINCRW(FM$SET$,FM$SET$->FM$CFUA.LINKX);

   3104  1 000213   000000 470400 xsym               LDP0    FM$SET$
PL6.E3A0      #004=FMN$MADMUCK File=FMN$OPNDP.:E05TSI                            TUE 07/29/97 16:54 Page:331
         1 000214   000000 720100                    LXL0    0,,PR0
         1 000215   000000 636010                    EAQ     0,X0
         1 000216   000000 036000 xsym               ADLQ    FM$SET$
         1 000217   200006 756100                    STQ     ACCT$,,AUTO

     1582     3105    3         DO WHILE(ACCT$~=FM$SET$);

   3105  1 000220   000000 116000 xsym               CMPQ    FM$SET$
         1 000221   000241 600000 1                  TZE     s:3109

     1583     3106    3            IF FM$CFUA.ACCT=ACCT.ACCT# THEN FM$CFUA.PRIV='1'B;

   3106  1 000222   200006 470500                    LDP0    ACCT$,,AUTO
         1 000223   000000 471400 xsym               LDP1    B$PS1$
         1 000224   040100 106500                    CMPC    fill='040'O
         1 000225   000001 000010                    ADSC9   1,,PR0                   cn=0,n=8
         1 000226   100000 000010                    ADSC9   0,,PR1                   cn=0,n=8
         1 000227   000232 601000 1                  TNZ     s:3107

   3106  1 000230   040000 236003                    LDQ     16384,DU
         1 000231   000005 256100                    ORSQ    5,,PR0

     1584     3107    3            ACCT$=PINCRW(FM$SET$,FM$CFUA.LINKX);

   3107  1 000232   200006 470500                    LDP0    ACCT$,,AUTO
         1 000233   000000 720100                    LXL0    0,,PR0
         1 000234   000000 636010                    EAQ     0,X0
         1 000235   000000 036000 xsym               ADLQ    FM$SET$
         1 000236   200006 756100                    STQ     ACCT$,,AUTO

     1585     3108    3            END;

   3108  1 000237   000000 116000 xsym               CMPQ    FM$SET$
         1 000240   000222 601000 1                  TNZ     s:3106

     1586     3109    2         CALL FMR$U8;

PL6.E3A0      #004=FMN$MADMUCK File=FMN$OPNDP.:E05TSI                            TUE 07/29/97 16:54 Page:332
   3109  1 000241   000002 631400 xsym               EPPR1   B_VECTNIL+2
         1 000242   000000 701000 xent               TSX1    FMR$U8
         1 000243   000000 011000                    NOP     0

     1587     3110    2         END;

   3106  1 000244                       RETALTU      null
     1588     3111    1   RETALTU:;
     1589     3112    1      CALL FMD$FLSHBUF(1);

   3112  1 000244   000005 630400 2                  EPPR0   5
         1 000245   000017 631400 xsym               EPPR1   B_VECTNIL+15
         1 000246   000000 701000 xent               TSX1    FMD$FLSHBUF
         1 000247   000000 011000                    NOP     0

     1590     3113    1      CALL UQB$MDEQ(FM$SET$);

   3113  1 000250   000002 630400 2                  EPPR0   2
         1 000251   000017 631400 xsym               EPPR1   B_VECTNIL+15
         1 000252   000000 701000 xent               TSX1    UQB$MDEQ
         1 000253   000000 011000                    NOP     0

   3106  1 000254                       RETALT       null
     1591     3114    1   RETALT:;
     1592     3115    1      RETURN;

   3115  1 000254   000000 702200 xent               TSX2  ! X66_ARET

   3106  1 000255                       NOKEY        null
     1593     3116                    /**/
     1594     3117    1   NOKEY:;
     1595     3118    1      IF B$JIT.ERR.CODE=%E$NOKEY THEN B$JIT.ERR=FMN$E$NOKEY;

   3118  1 000255   000000 470400 xsym               LDP0    B$JIT$
         1 000256   000012 236100                    LDQ     10,,PR0
         1 000257   377770 376007                    ANQ     131064,DL
         1 000260   001020 116007                    CMPQ    528,DL
PL6.E3A0      #004=FMN$MADMUCK File=FMN$OPNDP.:E05TSI                            TUE 07/29/97 16:54 Page:333
         1 000261   000264 601000 1                  TNZ     s:3119

   3118  1 000262   000002 236000 0                  LDQ     FMN$E$NOKEY
         1 000263   000012 756100                    STQ     10,,PR0

     1596     3119    1      IF NOT FPTV.WRITE

   3119  1 000264   000000 471400 xsym               LDP1    B$PS0$
         1 000265   100000 236100                    LDQ     0,,PR1
         1 000266   200000 316007                    CANQ    65536,DL
         1 000267   000244 600000 1                  TZE     RETALTU
         1 000270   400000 316007                    CANQ    -131072,DL
         1 000271   000244 601000 1                  TNZ     RETALTU
         1 000272   100000 316007                    CANQ    32768,DL
         1 000273   000244 601000 1                  TNZ     RETALTU
         1 000274   000012 236100                    LDQ     10,,PR0
         1 000275   377770 376007                    ANQ     131064,DL
         1 000276   001020 116007                    CMPQ    528,DL
         1 000277   000244 601000 1                  TNZ     RETALTU

     1597     3120    1        OR FPTV.READ OR FPTV.DELETE
     1598     3121    1        OR B$JIT.ERR.CODE~=%E$NOKEY THEN GOTO RETALTU;
     1599     3122    1      B$JIT.ERR='0'B;

   3122  1 000300   000012 450100                    STZ     10,,PR0

     1600     3123    1      IF NOT B$JIT.PRIV.ACTIVE&%PR_FMDIAG# THEN GOTO NOPRIV;

   3123  1 000301   000013 236100                    LDQ     11,,PR0
         1 000302   000003 376000 0                  ANQ     FMN$E$NOKEY+1
         1 000303   000326 600000 1                  TZE     NOPRIV

     1601     3124    1      CALL FMG$ADDKEY(SEG$,2,KEY$,ACCT$) ALTRET(RETALTU);

   3124  1 000304   200006 633500                    EPPR3   ACCT$,,AUTO
         1 000305   200013 453500                    STP3    ACCT$+5,,AUTO
         1 000306   200004 634500                    EPPR4   KEY$,,AUTO
PL6.E3A0      #004=FMN$MADMUCK File=FMN$OPNDP.:E05TSI                            TUE 07/29/97 16:54 Page:334
         1 000307   200012 454500                    STP4    ACCT$+4,,AUTO
         1 000310   000006 236000 2                  LDQ     6
         1 000311   200011 756100                    STQ     ACCT$+3,,AUTO
         1 000312   200005 635500                    EPPR5   SEG$,,AUTO
         1 000313   200010 455500                    STP5    ACCT$+2,,AUTO
         1 000314   200010 630500                    EPPR0   ACCT$+2,,AUTO
         1 000315   000022 631400 xsym               EPPR1   B_VECTNIL+18
         1 000316   000000 701000 xent               TSX1    FMG$ADDKEY
         1 000317   000244 702000 1                  TSX2    RETALTU

     1602     3125    1      FM$MADKEY.PSN=F$DCB.PSN;

   3125  1 000320   200003 470500                    LDP0    JDCB$,,AUTO
         1 000321   200004 471500                    LDP1    KEY$,,AUTO
         1 000322   040100 100500                    MLR     fill='040'O
         1 000323   000024 000006                    ADSC9   20,,PR0                  cn=0,n=6
         1 000324   100002 400006                    ADSC9   2,,PR1                   cn=2,n=6

     1603     3126    1      GOTO RETALTU;

   3126  1 000325   000244 710000 1                  TRA     RETALTU

   3125  1 000326                       NOPRIV       null
     1604     3127                    /**/
     1605     3128    1   NOPRIV:;
     1606     3129    1      B$JIT.ERR=FMN$E$NOTAUTH;

   3129  1 000326   000001 236000 0                  LDQ     FMN$E$NOTAUTH
         1 000327   000000 470400 xsym               LDP0    B$JIT$
         1 000330   000012 756100                    STQ     10,,PR0

     1607     3130    1      GOTO RETALTU;

   3130  1 000331   000244 710000 1                  TRA     RETALTU

FMN$E$OLDREC
 Sect OctLoc
PL6.E3A0      #004=FMN$MADMUCK File=FMN$OPNDP.:E05TSI                            TUE 07/29/97 16:54 Page:335
   0     000   061516 000752                                                    1...

FMN$E$NOTAUTH
 Sect OctLoc
   0     001   061516 006252                                                    1...

FMN$E$NOKEY
 Sect OctLoc
   0     002   061516 001022                                                    1...

(unnamed)
 Sect OctLoc
   0     003   040000 000000                                                     ...

(unnamed)
 Sect OctLoc
   2     000   000000 006003   743777 777777   000000 006000   000002 006000    ................
   2     004   000000 006000   000003 006000   000004 006000                    ............
     1608     3131    1   END FMN$MADMUCK;
     1609     3132        %EOD;

PL6.E3A0      #004=FMN$MADMUCK File=FMN$OPNDP.:E05TSI                            TUE 07/29/97 16:54 Page:336
--  Include file information  --

   F$DCB.:E05TOU  is referenced.
   CP_6_SUBS.:E05TOU  is referenced.
   UD_ERRORS_C.:E05TOU  is referenced.
   F_ERRORS_C.:E05TOU  is referenced.
   FM$MACROS.:E05TOU  is referenced.
   B$JIT_C.:E05TOU  is referenced.
   F$JIT_C.:E05TOU  cannot be made into a system file and is referenced.
   F_CP6.:E05TOU  is referenced.
   F$CP6V_C.:E05TOU  is referenced.
      No diagnostics issued in procedure FMN$MADMUCK.
PL6.E3A0      #004=FMN$MADMUCK File=FMN$OPNDP.:E05TSI                            TUE 07/29/97 16:54 Page:337

 **** Variables and constants ****

  ****  Section 000 RoData FMN$MADMUCK

  ****  Scalars and arrays  ****
OctLoc.c.b A Datatyp(siz) R M Lvl/name                 OctLoc.c.b A Datatyp(siz) R M Lvl/name

     2-0-0/b STRC        r     1 FMN$E$NOKEY                1-0-0/b STRC        r     1 FMN$E$NOTAUTH
     0-0-0/b STRC        r     1 FMN$E$OLDREC

  ****  Auto variables  ****

  ****  Scalars and arrays  ****
OctLoc.c.b A Datatyp(siz) R M Lvl/name                 OctLoc.c.b A Datatyp(siz) R M Lvl/name

     6-0-0/w PTR         r     1 ACCT$                      3-0-0/w PTR         r     1 JDCB$
     4-0-0/w PTR         r     1 KEY$                       5-0-0/w PTR         r     1 SEG$

  ****  SYMREF variables  ****

  ****  Scalars and arrays  ****
OctLoc.c.b A Datatyp(siz) R M Lvl/name                 OctLoc.c.b A Datatyp(siz) R M Lvl/name

     0-0-0/w PTR         r     1 B$JIT$                     0-0-0/w PTR         r     1 B$PS0$
     0-0-0/w PTR         r     1 B$PS1$                     0-0-0/w PTR         r     1 B$PS2$
     0-0-0/w PTR         r     1 FM$SET$                    0-0-0/w UBIN        r     1 FM_MADSDA
     0-0-0/w UBIN        r     1 FM_SYSSETX

  ****  BASED and DCB variables  ****

  ****  Scalars and arrays  ****
OctLoc.c.b A Datatyp(siz) R M Lvl/name                 OctLoc.c.b A Datatyp(siz) R M Lvl/name

     0-0-0/c STRC(72)    r     1 ACCT                       0-0-0/d STRC(8856)  r     1 B$JIT
     0-0-0/d ASTR(3528)  r     1 F$DCB                      0-0-0/w STRC(288)   r     1 FM$CFUA
     0-0-0/w STRC(144)   r     1 FM$MADKEY                  0-0-0/d STRC(72)    r     1 FPTV
     0-0-0/d STRC(90)    r     1 PSN
PL6.E3A0      #004=FMN$MADMUCK File=FMN$OPNDP.:E05TSI                            TUE 07/29/97 16:54 Page:338


   Procedure FMN$MADMUCK requires 218 words for executable code.
   Procedure FMN$MADMUCK requires 14 words of local(AUTO) storage.
PL6.E3A0      #004=FMN$MADMUCK File=FMN$OPNDP.:E05TSI                            TUE 07/29/97 16:54 Page:339
          *** CROSS REFERENCE LISTING ***
**     DENOTES     IDENTIFIER DEFINITION
<<                 IDENTIFIER'S VALUE SET
>>                 IDENTIFIER'S VALUE USED
<>                 IDENTIFIER SET AND/OR USED
--                 IDENTIFIER REFERENCED
PL6.E3A0      #004=FMN$MADMUCK File=FMN$OPNDP.:E05TSI                            TUE 07/29/97 16:54 Page:340
          MINI XREF LISTING

ACCT.ACCT#
      3012**DCL      3079>>ASSIGN   3106>>IF
ACCT$
      3033**DCL      2996--IMP-PTR  3078<<ASSIGN   3080<>CALL     3089<>CALL     3104<<ASSIGN   3105>>DOWHILE
      3106>>IF       3106>>ASSIGN   3107<<ASSIGN   3107>>ASSIGN   3124<>CALL
B$JIT.DCB$
      1684**DCL      3075<<ASSIGN
B$JIT.ERR
      1594**DCL      3092<<ASSIGN   3118<<ASSIGN   3122<<ASSIGN   3129<<ASSIGN
B$JIT.ERR.CODE
      1595**DCL      3118>>IF       3119>>IF
B$JIT.ERR.MID
      1595**DCL      1595--REDEF
B$JIT.PRIV.ACTIVE
      1595**DCL      3100>>IF       3123>>IF
B$JIT$
      3069**DCL      1589--IMP-PTR  3075>>ASSIGN   3092>>ASSIGN   3100>>IF       3118>>IF       3118>>ASSIGN
      3119>>IF       3122>>ASSIGN   3123>>IF       3129>>ASSIGN
B$PS0$
      3066**DCL      1265--IMP-PTR  3081>>IF       3084>>IF       3084>>IF       3090>>IF       3093>>IF
      3099>>IF       3119>>IF       3119>>IF       3119>>IF
B$PS1$
      3067**DCL      3012--IMP-PTR  3079>>ASSIGN   3106>>IF
B$PS2$
      3068**DCL      3025--IMP-PTR  3081>>ASSIGN   3096>>ASSIGN
F$DCB.ACCT
      2956**DCL      3078--ASSIGN   3079<<ASSIGN
F$DCB.ACTPOS
      2971**DCL      2971--REDEF
F$DCB.ARS
      2946**DCL      2946--REDEF
F$DCB.ATTR
PL6.E3A0      #004=FMN$MADMUCK File=FMN$OPNDP.:E05TSI                            TUE 07/29/97 16:54 Page:341
      2964**DCL      2965--REDEF
F$DCB.BORROW
      2979**DCL      2979--REDEF    2979--REDEF    2979--REDEF
F$DCB.DCBNAME.L
      2993**DCL      2993--IMP-SIZ
F$DCB.EOMCHAR
      2950**DCL      2950--REDEF
F$DCB.FCD
      2959**DCL      3076>>IF
F$DCB.FLDID
      2974**DCL      2974--REDEF
F$DCB.FORM$
      2968**DCL      2968--REDEF
F$DCB.FSECT
      2984**DCL      2984--REDEF
F$DCB.FSN
      2961**DCL      2961--REDEF    2961--REDEF    2962--REDEF
F$DCB.GTYP
      2975**DCL      3083<<ASSIGN
F$DCB.HEADER$
      2967**DCL      2967--REDEF
F$DCB.IXTNSIZE
      2965**DCL      2965--REDEF
F$DCB.LASTSTA$
      2955**DCL      2955--REDEF
F$DCB.LVL
      2980**DCL      2980--REDEF
F$DCB.NAME.C
      2955**DCL      2955--REDEF
F$DCB.NOEOF
      2976**DCL      2976--REDEF
F$DCB.NRECS
      2966**DCL      2966--REDEF
F$DCB.NRECX
      2985**DCL      2985--REDEF
F$DCB.OHDR
PL6.E3A0      #004=FMN$MADMUCK File=FMN$OPNDP.:E05TSI                            TUE 07/29/97 16:54 Page:342
      2977**DCL      2977--REDEF
F$DCB.ORG
      2960**DCL      2960--REDEF
F$DCB.PRECNO
      2983**DCL      2983--REDEF
F$DCB.PSN
      2956**DCL      3081<<ASSIGN   3091>>IF       3094<<ASSIGN   3125>>ASSIGN
F$DCB.RCSZ
      2988**DCL      2988--REDEF
F$DCB.RES
      2956**DCL      2956--REDEF
F$DCB.SETX
      2968**DCL      2968--REDEF    3082<<ASSIGN
F$DCB.TAB$
      2967**DCL      2968--REDEF
F$DCB.TDA
      2982**DCL      2982--REDEF
F$DCB.WSN
      2957**DCL      2957--REDEF
FM$CFUA.ACCT
      2996**DCL      3106>>IF
FM$CFUA.LINKX
      2996**DCL      3104>>ASSIGN   3107>>ASSIGN
FM$CFUA.PRIV
      2997**DCL      3106<<ASSIGN
FM$MADKEY.PSN
      3028**DCL      3091>>IF       3094>>ASSIGN   3096>>ASSIGN   3125<<ASSIGN
FM$SET$
      3070**DCL      3085<>CALL     3086<>CALL     3104>>ASSIGN   3104>>ASSIGN   3105>>DOWHILE  3107>>ASSIGN
      3113<>CALL
FMD$FLSHBUF
      3050**DCL-ENT  3112--CALL
FMD$REDBUF
      3049**DCL-ENT  3088--CALL
FMG$ADDKEY
      3051**DCL-ENT  3124--CALL
PL6.E3A0      #004=FMN$MADMUCK File=FMN$OPNDP.:E05TSI                            TUE 07/29/97 16:54 Page:343
FMG$FINDKEY
      3052**DCL-ENT  3089--CALL
FMG$REMKEY
      3053**DCL-ENT  3101--CALL
FMM$SCRUB
      3054**DCL-ENT  3077--CALL
FMN$E$NOKEY
      3045**DCL      3118>>ASSIGN
FMN$E$NOTAUTH
      3041**DCL      3129>>ASSIGN
FMN$E$OLDREC
      3037**DCL      3092>>ASSIGN
FMO$PACKACCT
      3055**DCL-ENT  3080--CALL
FMP$CLSJ
      3056**DCL-ENT  3076--CALL
FMR$L8
      3058**DCL-ENT  3102--CALL
FMR$U8
      3059**DCL-ENT  3109--CALL
FM_MADSDA
      3071**DCL      3088<>CALL
FM_SYSSETX
      3072**DCL      3082>>ASSIGN
FPTV.DELETE
      1265**DCL      3084>>IF       3099>>IF       3119>>IF
FPTV.READ
      1265**DCL      3093>>IF       3119>>IF
FPTV.WRITE
      1265**DCL      3081>>IF       3084>>IF       3090>>IF       3119>>IF
HFF$TRAPALT
      3060**DCL-ENT  3087--CALL
HFF$WRITE1
      3061**DCL-ENT  3095--CALL
JDCB$
      3030**DCL      2946--IMP-PTR  3074<<ASSIGN   3075>>ASSIGN   3076>>IF       3077<>CALL     3078>>ASSIGN
PL6.E3A0      #004=FMN$MADMUCK File=FMN$OPNDP.:E05TSI                            TUE 07/29/97 16:54 Page:344
      3079>>ASSIGN   3080<>CALL     3081>>ASSIGN   3082>>ASSIGN   3083>>ASSIGN   3091>>IF       3094>>ASSIGN
      3125>>ASSIGN
KEY$
      3031**DCL      3028--IMP-PTR  3088<>CALL     3089<>CALL     3091>>IF       3094>>ASSIGN   3096>>ASSIGN
      3124<>CALL     3125>>ASSIGN
NOKEY
      3106**LABEL    3089--CALLALT
NOPRIV
      3125**LABEL    3100--GOTO     3123--GOTO
NOWRITE
      3096**LABEL    3095--CALLALT
PSN.SN#
      3025**DCL      3081>>ASSIGN   3096<<ASSIGN
RETALT
      3106**LABEL    3085--CALLALT  3086--CALLALT
RETALTU
      3106**LABEL    3087--CALLALT  3088--CALLALT  3091--GOTO     3121--GOTO     3124--CALLALT  3126--GOTO
      3130--GOTO
SEG$
      3032**DCL      3089<>CALL     3089<>CALL     3124<>CALL
UQB$MDEQ
      3064**DCL-ENT  3113--CALL
UQB$MENQS
      3062**DCL-ENT  3086--CALL
UQB$MENQX
      3063**DCL-ENT  3085--CALL

PL6.E3A0      #005=FMN$RDGRAN File=FMN$OPNDP.:E05TSI                             TUE 07/29/97 16:54 Page:345
     1610        1        /*T***********************************************************/
     1611        2        /*T*                                                         */
     1612        3        /*T* Copyright (c) Bull HN Information Systems Inc., 1997    */
     1613        4        /*T*                                                         */
     1614        5        /*T***********************************************************/
     1615        6                    /*F*     NAME: FMN$RDGRAN
     1616        7                    *        PURPOSE: To read a granule for set AVR and suchlike.
     1617        8                    *        DESCRIPTION: The two parameters are BUF$ and SRGRANULE#.
     1618        9                    *        Read is performed with wait and no content validation */
     1619       10        FMN$RDGRAN:PROC(BUF$,GRAN)ALTRET;
     1620       11        %INCLUDE N_FC_C;
     1621       48    1   DCL FMB$QUEUE ENTRY(9)ALTRET;
     1622       49    1   DCL GRAN UBIN;
     1623       50    1   DCL BUF$ PTR;
     1624       51    1   DCL AGRAN UBIN;
     1625       52        %EJECT;
PL6.E3A0      #005=FMN$RDGRAN File=FMN$OPNDP.:E05TSI                             TUE 07/29/97 16:54 Page:346
     1626       53                    /* PASS LOCAL COPY OF GRAN IN CASE FMB$QUEUE NEEDS TO MODIFY IT */
     1627       54    1      AGRAN = GRAN;
     1628       55    1      CALL FMB$QUEUE(BUF$,1,4096,AGRAN,%N_RDBIN,-1,
     1629       56    1        ENTADDR(NIL),0)ALTRET(RETALT);
     1630       57    1      RETURN;
     1631       58    1   RETALT:ALTRETURN;
     1632       59    1   END FMN$RDGRAN;

PL6.E3A0      #005=FMN$RDGRAN File=FMN$OPNDP.:E05TSI                             TUE 07/29/97 16:54 Page:347
--  Include file information  --

   N_FC_C.:E05TOU  is referenced.
      No diagnostics issued in procedure FMN$RDGRAN.

   Procedure FMN$RDGRAN requires 22 words for executable code.
   Procedure FMN$RDGRAN requires 14 words of local(AUTO) storage.

    No errors detected in file FMN$OPNDP.:E05TSI    .

PL6.E3A0      #005=FMN$RDGRAN File=FMN$OPNDP.:E05TSI                             TUE 07/29/97 16:54 Page:348

 Object Unit name= FMN$RDGRAN                                 File name= FMN$OPNDP.:E05TOU
 UTS= JUL 29 '97 16:54:43.52 TUE                              Compiler= PL-6/E31         Sev=      00
 SharedLib= :SHARED_SYSTEM                                    Alt SharedLib=


    ****  Control sections  ****

 Sect   Type Bound  Init  Size OctSiz  Section name(segment info)
    0   Proc  even  none    22     26  FMN$RDGRAN
    1  RoData even  none     7      7  FMN$RDGRAN

    ****  Entry defs  ****

                              Check   Calling
                             calling  sequence
  Sect OctLoc Primary Altret sequence   type   Parms  Name
     0      0   yes    yes     yes      Std        2  FMN$RDGRAN

  ****  Entry refs  ****

         Check        Calling
        calling       sequence
Altret sequence SRef   type   Args  Name
 yes     yes           Std       9 FMB$QUEUE
                       nStd      0 X66_AUTO_2
                       Std       0 B_CONSPOOL_D
                       nStd      0 X66_ARET
                       nStd      0 X66_AALT

  ****  Data refs  ****

  Flags:  r = read only, s = secondary
Flgs Name                             Flgs Name                             Flgs Name
     B_VECTNIL
PL6.E3A0      #005=FMN$RDGRAN File=FMN$OPNDP.:E05TSI                             TUE 07/29/97 16:54 Page:349

  ****  Segment refs  ****

  Flags:  r = read only, s = secondary
Flgs Name                             Flgs Name                             Flgs Name
     ISSID
PL6.E3A0      #005=FMN$RDGRAN File=FMN$OPNDP.:E05TSI                             TUE 07/29/97 16:54 Page:350


     1610        1        /*T***********************************************************/
     1611        2        /*T*                                                         */
     1612        3        /*T* Copyright (c) Bull HN Information Systems Inc., 1997    */
     1613        4        /*T*                                                         */
     1614        5        /*T***********************************************************/
     1615        6                    /*F*     NAME: FMN$RDGRAN
     1616        7                    *        PURPOSE: To read a granule for set AVR and suchlike.
     1617        8                    *        DESCRIPTION: The two parameters are BUF$ and SRGRANULE#.
     1618        9                    *        Read is performed with wait and no content validation */
     1619       10        FMN$RDGRAN:PROC(BUF$,GRAN)ALTRET;

     10  0 000000   000000 700200 xent  FMN$RDGRAN   TSX0  ! X66_AUTO_2
         0 000001   000016 000002                    ZERO    14,2

     1620       11        %INCLUDE N_FC_C;
     1621       48    1   DCL FMB$QUEUE ENTRY(9)ALTRET;
     1622       49    1   DCL GRAN UBIN;
     1623       50    1   DCL BUF$ PTR;
     1624       51    1   DCL AGRAN UBIN;
     1625       52        %EJECT;
PL6.E3A0      #005=FMN$RDGRAN File=FMN$OPNDP.:E05TSI                             TUE 07/29/97 16:54 Page:351
     1626       53                    /* PASS LOCAL COPY OF GRAN IN CASE FMB$QUEUE NEEDS TO MODIFY IT */
     1627       54    1      AGRAN = GRAN;

     54  0 000002   200004 470500                    LDP0    @GRAN,,AUTO
         0 000003   000000 235100                    LDA     0,,PR0
         0 000004   200005 755100                    STA     AGRAN,,AUTO

     1628       55    1      CALL FMB$QUEUE(BUF$,1,4096,AGRAN,%N_RDBIN,-1,

     55  0 000005   000002 237000 1                  LDAQ    2
         0 000006   200014 757100                    STAQ    AGRAN+7,,AUTO
         0 000007   000004 237000 1                  LDAQ    4
         0 000010   200012 757100                    STAQ    AGRAN+5,,AUTO
         0 000011   200005 631500                    EPPR1   AGRAN,,AUTO
         0 000012   200011 451500                    STP1    AGRAN+4,,AUTO
         0 000013   000001 236000 1                  LDQ     1
         0 000014   200010 756100                    STQ     AGRAN+3,,AUTO
         0 000015   000006 236000 1                  LDQ     6
         0 000016   200003 235100                    LDA     @BUF$,,AUTO
         0 000017   200006 757100                    STAQ    AGRAN+1,,AUTO
         0 000020   200006 630500                    EPPR0   AGRAN+1,,AUTO
         0 000021   000026 631400 xsym               EPPR1   B_VECTNIL+22
         0 000022   000000 701000 xent               TSX1    FMB$QUEUE
         0 000023   000025 702000 0                  TSX2    RETALT

     1629       56    1        ENTADDR(NIL),0)ALTRET(RETALT);
     1630       57    1      RETURN;

     57  0 000024   000000 702200 xent               TSX2  ! X66_ARET

     1631       58    1   RETALT:ALTRETURN;

     58  0 000025   000000 702200 xent  RETALT       TSX2  ! X66_AALT

(unnamed)
 Sect OctLoc
   1     000   000000 010000   000000 006000   000002 006000   000002 006000    ................
PL6.E3A0      #005=FMN$RDGRAN File=FMN$OPNDP.:E05TSI                             TUE 07/29/97 16:54 Page:352
   1     004   000004 006000   000027 006000   000003 006000                    ............
     1632       59    1   END FMN$RDGRAN;

PL6.E3A0      #005=FMN$RDGRAN File=FMN$OPNDP.:E05TSI                             TUE 07/29/97 16:54 Page:353
--  Include file information  --

   N_FC_C.:E05TOU  is referenced.
      No diagnostics issued in procedure FMN$RDGRAN.
PL6.E3A0      #005=FMN$RDGRAN File=FMN$OPNDP.:E05TSI                             TUE 07/29/97 16:54 Page:354

 **** Variables and constants ****

  ****  Auto variables  ****

  ****  Scalars and arrays  ****
OctLoc.c.b A Datatyp(siz) R M Lvl/name                 OctLoc.c.b A Datatyp(siz) R M Lvl/name

     3-0-0/w PTR         r     1 @BUF$                      4-0-0/w PTR         r     1 @GRAN
     5-0-0/w UBIN        r     1 AGRAN                     *0-0-0/w PTR         r     1 BUF$
    *0-0-0/w UBIN        r     1 GRAN


   Procedure FMN$RDGRAN requires 22 words for executable code.
   Procedure FMN$RDGRAN requires 14 words of local(AUTO) storage.

    No errors detected in file FMN$OPNDP.:E05TSI    .
PL6.E3A0      #005=FMN$RDGRAN File=FMN$OPNDP.:E05TSI                             TUE 07/29/97 16:54 Page:355
          *** CROSS REFERENCE LISTING ***
**     DENOTES     IDENTIFIER DEFINITION
<<                 IDENTIFIER'S VALUE SET
>>                 IDENTIFIER'S VALUE USED
<>                 IDENTIFIER SET AND/OR USED
--                 IDENTIFIER REFERENCED
PL6.E3A0      #005=FMN$RDGRAN File=FMN$OPNDP.:E05TSI                             TUE 07/29/97 16:54 Page:356
          MINI XREF LISTING

AGRAN
        51**DCL        54<<ASSIGN     55<>CALL
BUF$
        50**DCL        10--PROC       55<>CALL
FMB$QUEUE
        48**DCL-ENT    55--CALL
GRAN
        49**DCL        10--PROC       54>>ASSIGN
RETALT
        58**LABEL      55--CALLALT
