VERSION E05

PL6.E3A0      #001=FMN$SETX File=FMN$OPNDP.:E05TSI                               TUE 07/29/97 16:52 Page:1
        1        1        /*M*  FMN$OPNDP - Open routines for access to pack(set)s.  */
        2        2        /*T***********************************************************/
        3        3        /*T*                                                         */
        4        4        /*T* Copyright (c) Bull HN Information Systems Inc., 1997    */
        5        5        /*T*                                                         */
        6        6        /*T***********************************************************/
        7        7        /*X* NSO,MCL=0,MOC,MEC,CLM=12,EXM=12,CRT=6,DMR,PLM=3,IND=3,ENU=0,DCI=3,
        8        8        CSU=3,ECU=3,THI=0,DTI=0,CRM=86 */
        9        9                    /*F*     NAME: FMN$SETX
       10       10                    *        PURPOSE: To put a non-zero into DCB.SETX if PSN isnt blank
       11       11                    *        or after a MAD search. Input parameter is a 6-char psn to find
       12       12                    *        in FM$SET. If up for another user or not up, FMN$SETX altrets.
       13       13                    */
       14       14        FMN$SETX: PROC(PSN) ALTRET;
       15       15        %INCLUDE F$JIT_C;
       16      445        %MACRO F$DCB#(BASED=BASED);
       17      446        %INCLUDE F$DCB;
       18      495        %MEND;
       19      496        %F$DCB#(BASED="BASED(JDCB$)");
       20      546        %INCLUDE FM$MACROS;
       21      921        %FM$SET(BASED="BASED(FM$SET$)");
       22      926        %FM$DEV(BASED="BASED(FM$SET$)");
       23      932        %FM$VOL(BASED="BASED(FM$SET$)");
       24      938        %FM$CFUX;
       25      943        %FM$VID(FM$VID=VID,BASED="BASED(VID$)");
       26      949        %FM$VID(FM$VID=VID0,BASED="BASED(VID0$)");
       27      955        %CODE04(BASED="BASED(VID0$)");
       28      963        %CODE14(BASED="BASED(VID0$)");
       29      973        %FM$GRAN;
       30      977        %INCLUDE FR$RAT;
       31     1030        %FR$RAT(STCLASS="BASED(RAT$)");
       32     1070        %INCLUDE NI$TABLES;
       33     1286        %NI$DCT;
       34     1334        %INCLUDE F_ERRORS_C;
       35     1574        %INCLUDE FR_ERRORS_C;
       36     1605        %INCLUDE UD_ERRORS_C;
       37     1647        %INCLUDE CP_6_SUBS;
PL6.E3A0      #001=FMN$SETX File=FMN$OPNDP.:E05TSI                               TUE 07/29/97 16:52 Page:2
       38     2187        %INCLUDE JG_GHOSTS_C;
       39     2277        %SUB FCG#='0615'O;
       40     2278        %SUB MID#='16'O;
       41     2279        %ERRCODE(NAME=FMN$E$XCLSET,COD#=%E$XCLSET);
       42     2283        %ERRCODE(NAME=FMN$E$SETDOWN,COD#=%E$SETDOWN);
       43     2287        %ERRCODE(NAME=FMN$E$BADVOL,COD#=%E$BADVOL);
       44     2291        %ERRCODE(NAME=FMN$E$NOTAUTH,COD#=%E$NOTAUTH);
       45     2295        %ERRCODE(NAME=FMN$E$SPLITRES,COD#=%E$SPLITRES);
       46     2299                    /**/
       47     2300                    /* AUTO/PARAM DATA */
       48     2301                    /**/
       49     2302    1   DCL PSN CHAR(6); /* INPUT PSN */
       50     2303    1   DCL I UBIN; /* INDEX TO SET TABLES */
       51     2304    1   DCL 1 IC REDEF I,
       52     2305    1         2 * BIT(18),
       53     2306    1         2 DCTX CHAR(2);
       54     2307    1   DCL JDCB$ PTR;
       55     2308    1   DCL J UBIN;
       56     2309    1   DCL VID$ PTR;
       57     2310    1   DCL VID0$ PTR;
       58     2311    1   DCL VOL UBIN;
       59     2312    1   DCL RAT$ PTR;
       60     2313    1   DCL SYSID UBIN;
       61     2314    1   DCL MODE UBIN;
       62     2315                    /**/
       63     2316                    /* SYMREF */
       64     2317                    /**/
       65     2318    1   DCL B$JIT$ SYMREF PTR;
       66     2319    1   DCL FM$SET$ SYMREF PTR;
       67     2320    1   DCL F$CFU$ PTR SYMREF;
       68     2321    1   DCL N$DCT$$ PTR SYMREF;
       69     2322    1   DCL N$DCT$(0:0)BASED(N$DCT$$)PTR;
       70     2323    1   DCL FM_SRZERO UBIN SYMREF;
       71     2324    1   DCL FM_PADSDA UBIN SYMREF;
       72     2325    1   DCL FM_GPSDA UBIN SYMREF;
       73     2326                    /**/
       74     2327                    /**/
PL6.E3A0      #001=FMN$SETX File=FMN$OPNDP.:E05TSI                               TUE 07/29/97 16:52 Page:3
       75     2328                    /* ENTREFS */
       76     2329                    /**/
       77     2330    1   DCL FAG$CGRANS ENTRY ALTRET;
       78     2331    1   DCL FMD$GETBUF ENTRY(3);
       79     2332    1   DCL FMD$RELBUF ENTRY(1);
       80     2333    1   DCL FMN$RDGRAN ENTRY(2)ALTRET;
       81     2334    1   DCL FMO$LOCCODP ENTRY(2)ALTRET;
       82     2335    1   DCL FMR$L8 ENTRY;
       83     2336    1   DCL FMR$U8 ENTRY;
       84     2337    1   DCL FMP$ULIST ENTRY(2)ALTRET;
       85     2338    1   DCL FMP$UDLIST ENTRY(2)ALTRET;
       86     2339    1   DCL FRA$OPR ENTRY ALTRET;
       87     2340    1   DCL FRZ$GETRES ENTRY(5)ALTRET;
       88     2341    1   DCL FRZ$RRES ENTRY(2);
       89     2342    1   DCL FRZ$RRESNA ENTRY(2);
       90     2343    1   DCL SC_SETRES ENTRY CONV(2,0);
       91     2344                    /**/
       92     2345                    /* BASED */
       93     2346                    /**/
       94     2347    1   DCL CHAR4 CHAR(4) BASED;
       95     2348        %EJECT;
PL6.E3A0      #001=FMN$SETX File=FMN$OPNDP.:E05TSI                               TUE 07/29/97 16:52 Page:4
       96     2349                    /**/
       97     2350                    /* PROCEDUER */
       98     2351                    /**/
       99     2352    1      JDCB$=B$JIT.DCB$;
      100     2353    1      F$DCB.SETX=0;
      101     2354    1      CALL FMR$L8;
      102     2355    1      I=FM$CFUX.SETH;
      103     2356    2      IF PSN>' ' THEN DO WHILE(I~=0);
      104     2357    3         IF FM$SET.PSN(I)=PSN THEN DO;
      105     2358    3   GOTONE:  ;
      106     2359    3            IF FM$SET.XCL(I) THEN IF FM$SET.SYSID(I)~=B$JIT.SYSID
      107     2360    3                 AND (FM$SET.SYSID(I)~=0
      108     2361    3                 OR F$DCB.IASN~=%FMDIAG# AND B$JIT.SYSID~=JG_SLUG#)
      109     2362    3               THEN IF FM$SET.SYSID(I)=0 THEN GOTO FMNE$SETDOWN;
      110     2363    3                  ELSE GOTO FMNE$XCLSET;
      111     2364                    /*E*     ERROR: FMN-E$XCLSET-E
      112     2365                    *         MESSAGE: Packset %DP#%SN %is busy
      113     2366                    */
      114     2367    3               ELSE IF NOT FM$SET.SET(I) AND
      115     2368    4                    FM$SET.DCTX(I)~=FM$SET.DCTX(FM$SET.DCTX(I)) THEN DO;
      116     2369    4                     FM$SET.ONEU(I)='1'B;
      117     2370    4                     IF FM$SET.SYSID(I)=0 THEN FM$SET.DIAGOPN(I)='1'B;
      118     2371    4                     FM$SET.SYSID(I)=B$JIT.SYSID;
      119     2372    4                     CALL FMR$U8;
      120     2373    4                     CALL FMD$GETBUF(3,1,VID0$);
      121     2374    4                     CALL FMD$GETBUF(4,1,VID$);
      122     2375    4                     J=175;/* NO VOLUMES HERE YET */
      123     2376    4                     CALL READVID0 ALTRET(RETALTREL);
      124     2377    5                     DO J=0 TO VID0.VOLCNT-1;
      125     2378    5                        CALL READVID ALTRET(RETALTREL);
      126     2379    5                        FM$SET.NXTSDA(I)=FM$SET.NXTSDA(I)+VID.SNLIST.SIZE(J);
      127     2380    5                        END;
      128     2381    4                     F$DCB.SETX=I;
      129     2382    4                     FM$SET.SET(I)='1'B;
      130     2383    4                     CALL FMN$RDGRAN(VID$,FM_PADSDA);
      131     2384    4                     VID0$=PINCRW(VID$,SIZEW(FM$GRAN));
      132     2385    4                     CALL FMO$LOCCODP(VID0$,4);
PL6.E3A0      #001=FMN$SETX File=FMN$OPNDP.:E05TSI                               TUE 07/29/97 16:52 Page:5
      133     2386    4                     FM$SET.GACTIME(I)=CODE04.GAC.TIME;
      134     2387    4                     VID0$=PINCRW(VID$,SIZEW(FM$GRAN));
      135     2388    4                     CALL FMO$LOCCODP(VID0$,14);
      136     2389    4                     FM$SET.GACSHELF(I)=CODE14.ACCESS.GACSHELF;
      137     2390    4                     FM$SET.WRCMP(I)=CODE14.ACCESS.WRCMP|CODE14.ACCESS.WCDATA;
      138     2391    4                     CALL FMD$RELBUF(3);
      139     2392    4                     CALL FMD$RELBUF(4);
      140     2393    4                     IF F$DCB.IASN~=%FMDIAG# THEN CALL FAG$CGRANS;
      141     2394    4                     B$JIT.ERR='0'B;/* CLEAR POSSIBLE ERROR FROM FAG$CGRANS */
      142     2395    4                     CALL FMR$L8;
      143     2396    4                     END;
      144     2397    4                  ELSE IF NOT FM$SET.SET(I) THEN DO;
      145     2398    4                        J=FM$SET.DCTX(I);
      146     2399    4                        IF FM$SET.SYSID(J)~=0 AND FM$SET.SYSID(J)~=B$JIT.SYSID
      147     2400    4                        THEN GOTO FMNE$XCLSET;
      148     2401    4                        CALL FMP$ULIST(FM$SET(J))ALTRET(RETALT);
      149     2402    4                        END;
      150     2403    3            CALL FMP$ULIST(FM$SET(I))ALTRET(RETALT);
      151     2404    3            FM$DEV.AVR(I)='0'B;
      152     2405    3            F$DCB.SETX=I;
      153     2406    3            CALL FMR$U8;
      154     2407    3            RETURN;
      155     2408    3            END;
      156     2409    2         I=FM$SET.SETL(I); /* FLINK */
      157     2410    2         END;
      158     2411    1      I=FM$CFUX.DSETH;
      159     2412    2      IF PSN<=' ' THEN DO WHILE(I~=0);
      160     2413    2         IF PSN=' ' AND FM$DEV.AVR(I) AND B$JIT.SYSID<=JG_PIG#
      161     2414    2         THEN GOTO GOTONE;
      162     2415    2         IF NOT FM$DEV.MIRROR(I) OR FM$DEV.SECTL(I)~=0
      163     2416    2           OR F$DCB.FUN=%IN# OR B$JIT.SYSID=JG_SLUG#
      164     2417    2         THEN IF FM$DEV.VSN(I)~=0
      165     2418    2              AND SUBSTR(PSN,0,4)=ADDR(FM$DEV.VSN(I))->CHAR4
      166     2419    2              OR SUBSTR(PSN,4,2)=IC.DCTX
      167     2420    2            THEN GOTO GOTONE;
      168     2421    2            ELSE IF I=FM$DEV.DCTX(I) THEN IF SUBSTR(PSN,1,4)=
      169     2422    2                    SUBSTR(N$DCT$(I)->NI$DCT.DEVNM,0,4) THEN GOTO GOTONE;
PL6.E3A0      #001=FMN$SETX File=FMN$OPNDP.:E05TSI                               TUE 07/29/97 16:52 Page:6
      170     2423    2         IF FM$VOL.SECTL(I)~=0 THEN I=FM$VOL.SECTL(I);
      171     2424    2         ELSE I=FM$DEV.DEVL(FM$VOL.DCTX(I));
      172     2425    2         END;
      173     2426                    /*E*     ERROR: FMN-E$SETDOWN-E
      174     2427                    *        MESSAGE:Packset% DP#%SN% is not ready to use.
      175     2428                   *        MESSAGE1:Packset% #%SN% is either not up, is use by an exclusive
      176     2429                    *        user, or is waiting for the operator to make it available.
      177     2430                    */
      178     2431    1   FMNE$SETDOWN:B$JIT.ERR=FMN$E$SETDOWN;
      179     2432    1      IF F$DCB.IASN=%DEVICE# AND PSN<=' ' THEN B$JIT.ERR=FMN$E$NOTAUTH;
      180     2433    1      GOTO RETALT;
      181     2434    1   FMNE$XCLSET: B$JIT.ERR=FMN$E$XCLSET;
      182     2435    1   RETALT:;
      183     2436    1      F$DCB.SETX=I;
      184     2437    1      CALL FMR$U8;
      185     2438    1      ALTRETURN;
      186     2439    1   RETALTREL:;
      187     2440    1      VOL=FM$SET.DCTX(I);
      188     2441    2      DO WHILE(VOL~=0);
      189     2442    2         RAT$=N$DCT$(FM$VOL.DCTX(VOL))->NI$DCT.RAT$;
      190     2443    3         IF FR$RAT.RES.SISID=SYSID THEN DO;
      191     2444    3            FR$RAT.FLG.OPN='0'B;
      192     2445    3            FR$RAT.FLG.MBIT='0'B;
      193     2446    3            FR$RAT.REEL.ASID=0;
      194     2447    3            IF FR$RAT.RES.RFLG.OLT THEN CALL FRZ$RRESNA(FR$RAT,MODE);
      195     2448    3            END;
      196     2449    2         VOL=FM$VOL.VOLL(VOL);
      197     2450    2         END;
      198     2451    1      IF J<175 THEN CALL BINCHAR(F$DCB.PSN,VID.VSN);
      199     2452    1      CALL FMD$RELBUF(3);
      200     2453    1      CALL FMD$RELBUF(4);
      201     2454    1      IF FM$SET.DIAGOPN(I) THEN CALL FMP$UDLIST(FM$SET(I));
      202     2455    1      IF B$JIT.ERR='0'B THEN B$JIT.ERR=FMN$E$SETDOWN;
      203     2456    1      ALTRETURN;
      204     2457        %EJECT;
PL6.E3A0      #001=FMN$SETX File=FMN$OPNDP.:E05TSI                               TUE 07/29/97 16:52 Page:7
      205     2458    1   READVID0: PROC ALTRET;
      206     2459    2      MODE=B$JIT.MODE;
      207     2460    2      SYSID=B$JIT.SYSID;
      208     2461    2      VOL=FM$SET.DCTX(I);
      209     2462    2      IF VOL=0 THEN VID.VSN=0;
      210     2463    2      ELSE VID.VSN=FM$VOL.VSN(VOL);
      211     2464    2      FM$SET.NXTSDA(I)=FM_SRZERO;
      212     2465    2      GOTO COMMON;
      213     2466    2   READVID: ENTRY ALTRET;
      214     2467    2      VID.VSN=VID0.SNLIST.VSN.N(J);
      215     2468    2      IF VID.VSN=0 THEN GOTO FMNE$BADVOL;
      216     2469    2      VID.VOLCNT=0;
      217     2470    2   COMMON:;
      218     2471    2      F$DCB.CSEED=VID.VSN;
      219     2472    2      F$DCB.SETX=0;
      220     2473    2      VOL=FM$SET.DCTX(I);
      221     2474    3      DO WHILE(VOL~=0 AND F$DCB.SETX=0);
      222     2475    3         IF J=175 THEN F$DCB.SETX=FM$VOL.DCTX(VOL);
      223     2476    3         ELSE IF FM$DEV.VSN(VOL)=BITBIN(VID0.SNLIST.VSN(J))
      224     2477    3            THEN F$DCB.SETX=FM$VOL.DCTX(VOL);
      225     2478    3            ELSE VOL=FM$VOL.VOLL(VOL);
      226     2479    3         END;
      227     2480    2      IF F$DCB.RESNT.TYP~='DP' THEN F$DCB.RES='DP';
      228     2481    2      IF F$DCB.IASN=%FMDIAG# OR SYSID=JG_SLUG# THEN IF VOL=0 THEN ALTRETURN;
      229     2482    2         ELSE F$DCB.ATTR=N$DCT$(F$DCB.SETX)->NI$DCT.RAT$->FR$RAT.M1;
      230     2483    3      IF VOL=0 THEN DO;
      231     2484    3         CALL FRA$OPR ALTRET(RETALT);
      232     2485                    /* NOW WHERE DID IT APPEAR */
      233     2486    3         VOL=FM$SET.DCTX(I);
      234     2487    4         DO WHILE(VOL~=0 AND FM$VOL.DCTX(VOL)~=F$DCB.SETX);
      235     2488    4            VOL=FM$VOL.VOLL(VOL);
      236     2489    4            END;
      237     2490    3         IF VOL=0 THEN GOTO FMNE$BADVOL;
      238     2491    3         END;
      239     2492    3      ELSE DO;
      240     2493    3         RAT$=N$DCT$(F$DCB.SETX)->NI$DCT.RAT$;
      241     2494    3         IF NOT FR$RAT.FLG.OPN THEN IF FM$VOL.SECT#(VOL)=0
PL6.E3A0      #001=FMN$SETX File=FMN$OPNDP.:E05TSI                               TUE 07/29/97 16:52 Page:8
      242     2495    3            THEN CALL FRA$OPR ALTRET(RETALT);
      243     2496    4            ELSE IF FR$RAT.RES.SISID=JG_PIG# OR B$JIT.SYSID=JG_SLUG# THEN DO;
      244     2497    4                  FR$RAT.FLG.MBIT.MTD='1'B;
      245     2498    4                  FR$RAT.FLG.OPN='1'B;
      246     2499    4                  END;
      247     2500    3               ELSE GOTO FMNE$SPLITRES;
      248     2501                    /*E*     ERROR: FMN-E$SPLITRES-E
      249     2502                    *        MESSAGE:No DP resource available to mount split set% %UF%.
      250     2503                    *        MESSAGE1:Set% #%UF% occupies a multi-set volume and PIG
      251     2504                    *                 was unable to allocate its resource when it AVR'ed.
      252     2505                    */
      253     2506    3         ELSE IF FR$RAT.RES.SISID~=SYSID AND FM$VOL.SECT#(VOL)=0
      254     2507    3            THEN CALL SC_SETRES;
      255     2508                    /*S*     SCREECH_CODE: FMR-S$SETRES
      256     2509                    *        TYPE: SUA
      257     2510              *        MESSAGE:Another user is using a volume of a properly reserved set.
      258     2511              */
      259     2512    3         END;
      260     2513
      261     2514    2      F$DCB.SETX=VOL;
      262     2515    2      CALL FMN$RDGRAN(VID$,FM_SRZERO);
      263     2516    2      IF J=175 THEN VID0=VID;
      264     2517    3      ELSE DO;
      265     2518    3         IF B$JIT.ERR='0'B THEN
      266     2519    3            IF VID.PSN~=VID0.PSN
      267     2520    3              OR VID.VOLCNT~=VID0.VOLCNT
      268     2521    3              OR VID.SNLIST(0)~=VID0.SNLIST(0)
      269     2522    3              OR VID.SNLIST(J)~=VID0.SNLIST(J)
      270     2523    3              OR VID.SNLIST.SIZE(J)~=FM$SET.NXTSDA(F$DCB.SETX)-FM_SRZERO
      271     2524    3            THEN B$JIT.ERR=FMN$E$BADVOL;
      272     2525                    /*E*     ERROR: FMN-E$BADVOL-E
      273     2526                    *        MESSAGE: Packset volume #%SN is not part of its set.
      274     2527                    */
      275     2528    3         END;
      276     2529    2      FM$VOL.RGRANS(VOL)=0;
      277     2530    2      FM$VOL.GPSDA(VOL)=FM_GPSDA;
      278     2531    2      IF B$JIT.ERR='0'B THEN RETURN;
PL6.E3A0      #001=FMN$SETX File=FMN$OPNDP.:E05TSI                               TUE 07/29/97 16:52 Page:9
      279     2532    2      ALTRETURN;
      280     2533    2   FMNE$BADVOL:B$JIT.ERR=FMN$E$BADVOL;
      281     2534    2      ALTRETURN;
      282     2535    2   FMNE$SPLITRES: B$JIT.ERR=FMN$E$SPLITRES;
      283     2536    2      ALTRETURN;
      284     2537    2   RETALT:;
      285     2538    2      IF B$JIT.ERR.CODE=%E$NORES AND (F$DCB.IASN=%FMDIAG# OR SYSID=JG_SLUG#)
      286     2539    3        OR B$JIT.ERR.CODE=%E$BDATTR AND SYSID=JG_PIG# THEN DO;
      287     2540    3         B$JIT.ERR='0'B;
      288     2541    3         CALL FRZ$GETRES(F$DCB.RES,F$DCB.ATTR,SYSID,
      289     2542    3           MODE,RAT$)ALTRET(RETALT);
      290     2543    3         FR$RAT.RES.RFLG.OLT='1'B;
      291     2544    3         FR$RAT.RES.NUMB=' ';
      292     2545    3         FR$RAT.RES.ACTX=0;
      293     2546    3         GOTO COMMON;
      294     2547    3         END;
      295     2548    2      ALTRETURN;
      296     2549    2   END READVID0;
      297     2550    1   END FMN$SETX;
      298     2551        %EOD;

PL6.E3A0      #001=FMN$SETX File=FMN$OPNDP.:E05TSI                               TUE 07/29/97 16:52 Page:10
--  Include file information  --

   JG_GHOSTS_C.:E05TOU  is referenced.
   CP_6_SUBS.:E05TOU  is referenced.
   UD_ERRORS_C.:E05TOU  is referenced.
   FR_ERRORS_C.:E05TOU  is referenced.
   F_ERRORS_C.:E05TOU  is referenced.
   NI$TABLES.:E05TOU  is referenced.
   FR$RAT.:E05TOU  is referenced.
   FM$MACROS.:E05TOU  is referenced.
   F$DCB.:E05TOU  is referenced.
   B$JIT_C.:E05TOU  is referenced.
   F$JIT_C.:E05TOU  cannot be made into a system file and is referenced.
      No diagnostics issued in procedure FMN$SETX.

   Procedure FMN$SETX requires 769 words for executable code.
   Procedure FMN$SETX requires 22 words of local(AUTO) storage.

PL6.E3A0      #001=FMN$SETX File=FMN$OPNDP.:E05TSI                               TUE 07/29/97 16:52 Page:11

 Object Unit name= FMN$SETX                                   File name= FMN$OPNDP.:E05TOU
 UTS= JUL 29 '97 16:52:02.56 TUE                              Compiler= PL-6/E31         Sev=      00
 SharedLib= :SHARED_SYSTEM                                    Alt SharedLib=


    ****  Control sections  ****

 Sect   Type Bound  Init  Size OctSiz  Section name(segment info)
    0  RoData even  UTS      6      6  FMN$SETX
    1   Proc  even  none   769   1401  FMN$SETX
    2  RoData even  none    13     15  FMN$SETX

    ****  Entry defs  ****

                              Check   Calling
                             calling  sequence
  Sect OctLoc Primary Altret sequence   type   Parms  Name
     1      0   yes    yes     yes      Std        1  FMN$SETX
PL6.E3A0      #001=FMN$SETX File=FMN$OPNDP.:E05TSI                               TUE 07/29/97 16:52 Page:12

  ****  Entry refs  ****

         Check        Calling
        calling       sequence
Altret sequence SRef   type   Args  Name
         yes           Std       0 FMR$L8
         yes           Std       3 FMD$GETBUF
 yes     yes           Std       2 FMO$LOCCODP
         yes           Std       1 FMD$RELBUF
 yes     yes           Std       2 FMP$UDLIST
 yes     yes           Std       0 FAG$CGRANS
 yes     yes           Std       2 FMN$RDGRAN
         yes           Std       0 FMR$U8
 yes     yes           Std       2 FMP$ULIST
         yes           Std       2 FRZ$RRESNA
 yes     yes           Std       0 FRA$OPR
 yes     yes           Std       5 FRZ$GETRES
                       nStd      0 X66_AUTO_1
                       Std       0 B_CONSPOOL_D
                       nStd      0 X66_ARET
                       nStd      0 X66_AALT

  ****  Data refs  ****

  Flags:  r = read only, s = secondary
Flgs Name                             Flgs Name                             Flgs Name
     SC_SETRES                             B$JIT$                                FM$SET$
     F$CFU$                                N$DCT$$                               FM_SRZERO
     FM_PADSDA                             FM_GPSDA                              B_VECTNIL

  ****  Segment refs  ****

  Flags:  r = read only, s = secondary
Flgs Name                             Flgs Name                             Flgs Name
     ASLENTSID                             ISSID
PL6.E3A0      #001=FMN$SETX File=FMN$OPNDP.:E05TSI                               TUE 07/29/97 16:52 Page:13


        1        1        /*M*  FMN$OPNDP - Open routines for access to pack(set)s.  */
        2        2        /*T***********************************************************/
        3        3        /*T*                                                         */
        4        4        /*T* Copyright (c) Bull HN Information Systems Inc., 1997    */
        5        5        /*T*                                                         */
        6        6        /*T***********************************************************/
        7        7        /*X* NSO,MCL=0,MOC,MEC,CLM=12,EXM=12,CRT=6,DMR,PLM=3,IND=3,ENU=0,DCI=3,
        8        8        CSU=3,ECU=3,THI=0,DTI=0,CRM=86 */
        9        9                    /*F*     NAME: FMN$SETX
       10       10                    *        PURPOSE: To put a non-zero into DCB.SETX if PSN isnt blank
       11       11                    *        or after a MAD search. Input parameter is a 6-char psn to find
       12       12                    *        in FM$SET. If up for another user or not up, FMN$SETX altrets.
       13       13                    */
       14       14        FMN$SETX: PROC(PSN) ALTRET;

     14  1 000000   000000 700200 xent  FMN$SETX     TSX0  ! X66_AUTO_1
         1 000001   000026 000001                    ZERO    22,1

       15       15        %INCLUDE F$JIT_C;
       16      445        %MACRO F$DCB#(BASED=BASED);
       17      446        %INCLUDE F$DCB;
       18      495        %MEND;
       19      496        %F$DCB#(BASED="BASED(JDCB$)");
       20      546        %INCLUDE FM$MACROS;
       21      921        %FM$SET(BASED="BASED(FM$SET$)");
       22      926        %FM$DEV(BASED="BASED(FM$SET$)");
       23      932        %FM$VOL(BASED="BASED(FM$SET$)");
       24      938        %FM$CFUX;
       25      943        %FM$VID(FM$VID=VID,BASED="BASED(VID$)");
       26      949        %FM$VID(FM$VID=VID0,BASED="BASED(VID0$)");
       27      955        %CODE04(BASED="BASED(VID0$)");
       28      963        %CODE14(BASED="BASED(VID0$)");
       29      973        %FM$GRAN;
       30      977        %INCLUDE FR$RAT;
       31     1030        %FR$RAT(STCLASS="BASED(RAT$)");
       32     1070        %INCLUDE NI$TABLES;
PL6.E3A0      #001=FMN$SETX File=FMN$OPNDP.:E05TSI                               TUE 07/29/97 16:52 Page:14
       33     1286        %NI$DCT;
       34     1334        %INCLUDE F_ERRORS_C;
       35     1574        %INCLUDE FR_ERRORS_C;
       36     1605        %INCLUDE UD_ERRORS_C;
       37     1647        %INCLUDE CP_6_SUBS;
       38     2187        %INCLUDE JG_GHOSTS_C;
       39     2277        %SUB FCG#='0615'O;
       40     2278        %SUB MID#='16'O;
       41     2279        %ERRCODE(NAME=FMN$E$XCLSET,COD#=%E$XCLSET);
       42     2283        %ERRCODE(NAME=FMN$E$SETDOWN,COD#=%E$SETDOWN);
       43     2287        %ERRCODE(NAME=FMN$E$BADVOL,COD#=%E$BADVOL);
       44     2291        %ERRCODE(NAME=FMN$E$NOTAUTH,COD#=%E$NOTAUTH);
       45     2295        %ERRCODE(NAME=FMN$E$SPLITRES,COD#=%E$SPLITRES);
       46     2299                    /**/
       47     2300                    /* AUTO/PARAM DATA */
       48     2301                    /**/
       49     2302    1   DCL PSN CHAR(6); /* INPUT PSN */
       50     2303    1   DCL I UBIN; /* INDEX TO SET TABLES */
       51     2304    1   DCL 1 IC REDEF I,
       52     2305    1         2 * BIT(18),
       53     2306    1         2 DCTX CHAR(2);
       54     2307    1   DCL JDCB$ PTR;
       55     2308    1   DCL J UBIN;
       56     2309    1   DCL VID$ PTR;
       57     2310    1   DCL VID0$ PTR;
       58     2311    1   DCL VOL UBIN;
       59     2312    1   DCL RAT$ PTR;
       60     2313    1   DCL SYSID UBIN;
       61     2314    1   DCL MODE UBIN;
       62     2315                    /**/
       63     2316                    /* SYMREF */
       64     2317                    /**/
       65     2318    1   DCL B$JIT$ SYMREF PTR;
       66     2319    1   DCL FM$SET$ SYMREF PTR;
       67     2320    1   DCL F$CFU$ PTR SYMREF;
       68     2321    1   DCL N$DCT$$ PTR SYMREF;
       69     2322    1   DCL N$DCT$(0:0)BASED(N$DCT$$)PTR;
PL6.E3A0      #001=FMN$SETX File=FMN$OPNDP.:E05TSI                               TUE 07/29/97 16:52 Page:15
       70     2323    1   DCL FM_SRZERO UBIN SYMREF;
       71     2324    1   DCL FM_PADSDA UBIN SYMREF;
       72     2325    1   DCL FM_GPSDA UBIN SYMREF;
       73     2326                    /**/
       74     2327                    /**/
       75     2328                    /* ENTREFS */
       76     2329                    /**/
       77     2330    1   DCL FAG$CGRANS ENTRY ALTRET;
       78     2331    1   DCL FMD$GETBUF ENTRY(3);
       79     2332    1   DCL FMD$RELBUF ENTRY(1);
       80     2333    1   DCL FMN$RDGRAN ENTRY(2)ALTRET;
       81     2334    1   DCL FMO$LOCCODP ENTRY(2)ALTRET;
       82     2335    1   DCL FMR$L8 ENTRY;
       83     2336    1   DCL FMR$U8 ENTRY;
       84     2337    1   DCL FMP$ULIST ENTRY(2)ALTRET;
       85     2338    1   DCL FMP$UDLIST ENTRY(2)ALTRET;
       86     2339    1   DCL FRA$OPR ENTRY ALTRET;
       87     2340    1   DCL FRZ$GETRES ENTRY(5)ALTRET;
       88     2341    1   DCL FRZ$RRES ENTRY(2);
       89     2342    1   DCL FRZ$RRESNA ENTRY(2);
       90     2343    1   DCL SC_SETRES ENTRY CONV(2,0);
       91     2344                    /**/
       92     2345                    /* BASED */
       93     2346                    /**/
       94     2347    1   DCL CHAR4 CHAR(4) BASED;
       95     2348        %EJECT;
PL6.E3A0      #001=FMN$SETX File=FMN$OPNDP.:E05TSI                               TUE 07/29/97 16:52 Page:16
       96     2349                    /**/
       97     2350                    /* PROCEDUER */
       98     2351                    /**/
       99     2352    1      JDCB$=B$JIT.DCB$;

   2352  1 000002   000000 470400 xsym               LDP0    B$JIT$
         1 000003   000232 236100                    LDQ     154,,PR0
         1 000004   200005 756100                    STQ     JDCB$,,AUTO

      100     2353    1      F$DCB.SETX=0;

   2353  1 000005   000000 220003                    LDX0    0,DU
         1 000006   200005 471500                    LDP1    JDCB$,,AUTO
         1 000007   100051 440100                    SXL0    41,,PR1

      101     2354    1      CALL FMR$L8;

   2354  1 000010   000002 631400 xsym               EPPR1   B_VECTNIL+2
         1 000011   000000 701000 xent               TSX1    FMR$L8
         1 000012   000000 011000                    NOP     0

      102     2355    1      I=FM$CFUX.SETH;

   2355  1 000013   000000 470400 xsym               LDP0    F$CFU$
         1 000014   000005 236100                    LDQ     5,,PR0
         1 000015   000022 772000                    QRL     18
         1 000016   200004 756100                    STQ     I,,AUTO

      103     2356    2      IF PSN>' ' THEN DO WHILE(I~=0);

   2356  1 000017   200003 471500                    LDP1    @PSN,,AUTO
         1 000020   040100 106400                    CMPC    fill='040'O
         1 000021   000035 000001 xsym               ADSC9   B_VECTNIL+29             cn=0,n=1
         1 000022   100000 000006                    ADSC9   0,,PR1                   cn=0,n=6
         1 000023   000402 603000 1                  TRC     s:2411

   2356  1 000024   000000 116003                    CMPQ    0,DU
PL6.E3A0      #001=FMN$SETX File=FMN$OPNDP.:E05TSI                               TUE 07/29/97 16:52 Page:17
         1 000025   000402 600000 1                  TZE     s:2411

      104     2357    3         IF FM$SET.PSN(I)=PSN THEN DO;

   2357  1 000026   200004 235100                    LDA     I,,AUTO
         1 000027   000005 735000                    ALS     5
         1 000030   000000 470400 xsym               LDP0    FM$SET$
         1 000031   200003 471500                    LDP1    @PSN,,AUTO
         1 000032   040100 106505                    CMPC    fill='040'O
         1 000033   000000 400006                    ADSC9   0,A,PR0                  cn=2,n=6
         1 000034   100000 000006                    ADSC9   0,,PR1                   cn=0,n=6
         1 000035   000374 601000 1                  TNZ     s:2409

      105     2358    3   GOTONE:  ;

   2358  1 000036                       GOTONE       null
      106     2359    3            IF FM$SET.XCL(I) THEN IF FM$SET.SYSID(I)~=B$JIT.SYSID

   2359  1 000036   200004 235100                    LDA     I,,AUTO
         1 000037   000003 735000                    ALS     3
         1 000040   000000 470400 xsym               LDP0    FM$SET$
         1 000041   000002 234105                    SZN     2,AL,PR0
         1 000042   000350 605000 1                  TPL     s:2403

   2359  1 000043   000000 471400 xsym               LDP1    B$JIT$
         1 000044   000002 236105                    LDQ     2,AL,PR0
         1 000045   100000 676100                    ERQ     0,,PR1
         1 000046   777777 376007                    ANQ     -1,DL
         1 000047   000065 600000 1                  TZE     s:2367
         1 000050   000002 720105                    LXL0    2,AL,PR0
         1 000051   000062 601000 1                  TNZ     s:2362
         1 000052   200005 473500                    LDP3    JDCB$,,AUTO
         1 000053   300103 236100                    LDQ     67,,PR3
         1 000054   000777 376007                    ANQ     511,DL
         1 000055   000007 116007                    CMPQ    7,DL
         1 000056   000065 600000 1                  TZE     s:2367
         1 000057   100000 721100                    LXL1    0,,PR1
PL6.E3A0      #001=FMN$SETX File=FMN$OPNDP.:E05TSI                               TUE 07/29/97 16:52 Page:18
         1 000060   000001 101003                    CMPX1   1,DU
         1 000061   000065 600000 1                  TZE     s:2367

      107     2360    3                 AND (FM$SET.SYSID(I)~=0
      108     2361    3                 OR F$DCB.IASN~=%FMDIAG# AND B$JIT.SYSID~=JG_SLUG#)
      109     2362    3               THEN IF FM$SET.SYSID(I)=0 THEN GOTO FMNE$SETDOWN;

   2362  1 000062   000000 100003                    CMPX0   0,DU
         1 000063   000522 600000 1                  TZE     FMNE$SETDOWN

      110     2363    3                  ELSE GOTO FMNE$XCLSET;

   2363  1 000064   000542 710000 1                  TRA     FMNE$XCLSET

      111     2364                    /*E*     ERROR: FMN-E$XCLSET-E
      112     2365                    *         MESSAGE: Packset %DP#%SN %is busy
      113     2366                    */
      114     2367    3               ELSE IF NOT FM$SET.SET(I) AND

   2367  1 000065   000002 236105                    LDQ     2,AL,PR0
         1 000066   200000 316003                    CANQ    65536,DU
         1 000067   000322 601000 1                  TNZ     s:2397
         1 000070   000000 236105                    LDQ     0,AL,PR0
         1 000071   000017 772000                    QRL     15
         1 000072   000000 376000 2                  ANQ     0
         1 000073   000000 220105                    LDX0    0,AL,PR0
         1 000074   000000 100106                    CMPX0   0,QL,PR0
         1 000075   000322 600000 1                  TZE     s:2397

      115     2368    4                    FM$SET.DCTX(I)~=FM$SET.DCTX(FM$SET.DCTX(I)) THEN DO;

      116     2369    4                     FM$SET.ONEU(I)='1'B;

   2369  1 000076   000001 236003                    LDQ     1,DU
         1 000077   000002 256105                    ORSQ    2,AL,PR0

      117     2370    4                     IF FM$SET.SYSID(I)=0 THEN FM$SET.DIAGOPN(I)='1'B;
PL6.E3A0      #001=FMN$SETX File=FMN$OPNDP.:E05TSI                               TUE 07/29/97 16:52 Page:19

   2370  1 000100   000000 470400 xsym               LDP0    FM$SET$
         1 000101   000002 720105                    LXL0    2,AL,PR0
         1 000102   000105 601000 1                  TNZ     s:2371

   2370  1 000103   004000 236003                    LDQ     2048,DU
         1 000104   000002 256105                    ORSQ    2,AL,PR0

      118     2371    4                     FM$SET.SYSID(I)=B$JIT.SYSID;

   2371  1 000105   000000 470400 xsym               LDP0    B$JIT$
         1 000106   000000 720100                    LXL0    0,,PR0
         1 000107   000000 471400 xsym               LDP1    FM$SET$
         1 000110   100002 440105                    SXL0    2,AL,PR1

      119     2372    4                     CALL FMR$U8;

   2372  1 000111   000002 631400 xsym               EPPR1   B_VECTNIL+2
         1 000112   000000 701000 xent               TSX1    FMR$U8
         1 000113   000000 011000                    NOP     0

      120     2373    4                     CALL FMD$GETBUF(3,1,VID0$);

   2373  1 000114   200010 630500                    EPPR0   VID0$,,AUTO
         1 000115   200022 450500                    STP0    MODE+6,,AUTO
         1 000116   000002 237000 2                  LDAQ    2
         1 000117   200020 757100                    STAQ    MODE+4,,AUTO
         1 000120   200020 630500                    EPPR0   MODE+4,,AUTO
         1 000121   000021 631400 xsym               EPPR1   B_VECTNIL+17
         1 000122   000000 701000 xent               TSX1    FMD$GETBUF
         1 000123   000000 011000                    NOP     0

      121     2374    4                     CALL FMD$GETBUF(4,1,VID$);

   2374  1 000124   200007 630500                    EPPR0   VID$,,AUTO
         1 000125   200022 450500                    STP0    MODE+6,,AUTO
         1 000126   000004 237000 2                  LDAQ    4
PL6.E3A0      #001=FMN$SETX File=FMN$OPNDP.:E05TSI                               TUE 07/29/97 16:52 Page:20
         1 000127   200020 757100                    STAQ    MODE+4,,AUTO
         1 000130   200020 630500                    EPPR0   MODE+4,,AUTO
         1 000131   000021 631400 xsym               EPPR1   B_VECTNIL+17
         1 000132   000000 701000 xent               TSX1    FMD$GETBUF
         1 000133   000000 011000                    NOP     0

      122     2375    4                     J=175;/* NO VOLUMES HERE YET */

   2375  1 000134   000257 235007                    LDA     175,DL
         1 000135   200006 755100                    STA     J,,AUTO

      123     2376    4                     CALL READVID0 ALTRET(RETALTREL);

   2376  1 000136   000702 701000 1                  TSX1    READVID0
         1 000137   000553 702000 1                  TSX2    RETALTREL

      124     2377    5                     DO J=0 TO VID0.VOLCNT-1;

   2377  1 000140   200006 450100                    STZ     J,,AUTO
         1 000141   000164 710000 1                  TRA     s:2380+3

      125     2378    5                        CALL READVID ALTRET(RETALTREL);

   2378  1 000142   000741 701000 1                  TSX1    READVID
         1 000143   000553 702000 1                  TSX2    RETALTREL

      126     2379    5                        FM$SET.NXTSDA(I)=FM$SET.NXTSDA(I)+VID.SNLIST.SIZE(J);

   2379  1 000144   200004 235100                    LDA     I,,AUTO
         1 000145   000003 735000                    ALS     3
         1 000146   200006 236100                    LDQ     J,,AUTO
         1 000147   000002 736000                    QLS     2
         1 000150   200007 470500                    LDP0    VID$,,AUTO
         1 000151   000000 620006                    EAX0    0,QL
         1 000152   000000 471400 xsym               LDP1    FM$SET$
         1 000153   100003 236105                    LDQ     3,AL,PR1
         1 000154   000032 376000 xsym               ANQ     B_VECTNIL+26
PL6.E3A0      #001=FMN$SETX File=FMN$OPNDP.:E05TSI                               TUE 07/29/97 16:52 Page:21
         1 000155   000501 036110                    ADLQ    321,X0,PR0
         1 000156   100003 676105                    ERQ     3,AL,PR1
         1 000157   000032 376000 xsym               ANQ     B_VECTNIL+26
         1 000160   100003 656105                    ERSQ    3,AL,PR1

      127     2380    5                        END;

   2380  1 000161   200006 236100                    LDQ     J,,AUTO
         1 000162   000001 036007                    ADLQ    1,DL
         1 000163   200006 756100                    STQ     J,,AUTO
         1 000164   200010 470500                    LDP0    VID0$,,AUTO
         1 000165   000004 236100                    LDQ     4,,PR0
         1 000166   777777 376007                    ANQ     -1,DL
         1 000167   200006 116100                    CMPQ    J,,AUTO
         1 000170   000172 600000 1                  TZE     s:2381
         1 000171   000142 603000 1                  TRC     s:2378

      128     2381    4                     F$DCB.SETX=I;

   2381  1 000172   200004 720100                    LXL0    I,,AUTO
         1 000173   200005 471500                    LDP1    JDCB$,,AUTO
         1 000174   100051 440100                    SXL0    41,,PR1

      129     2382    4                     FM$SET.SET(I)='1'B;

   2382  1 000175   200004 235100                    LDA     I,,AUTO
         1 000176   000003 735000                    ALS     3
         1 000177   000000 473400 xsym               LDP3    FM$SET$
         1 000200   200000 236003                    LDQ     65536,DU
         1 000201   300002 256105                    ORSQ    2,AL,PR3

      130     2383    4                     CALL FMN$RDGRAN(VID$,FM_PADSDA);

   2383  1 000202   000001 236000 2                  LDQ     1
         1 000203   200021 756100                    STQ     MODE+5,,AUTO
         1 000204   200007 630500                    EPPR0   VID$,,AUTO
         1 000205   200020 450500                    STP0    MODE+4,,AUTO
PL6.E3A0      #001=FMN$SETX File=FMN$OPNDP.:E05TSI                               TUE 07/29/97 16:52 Page:22
         1 000206   200020 630500                    EPPR0   MODE+4,,AUTO
         1 000207   000020 631400 xsym               EPPR1   B_VECTNIL+16
         1 000210   000000 701000 xent               TSX1    FMN$RDGRAN
         1 000211   000000 011000                    NOP     0

      131     2384    4                     VID0$=PINCRW(VID$,SIZEW(FM$GRAN));

   2384  1 000212   200007 236100                    LDQ     VID$,,AUTO
         1 000213   000005 036003                    ADLQ    5,DU
         1 000214   200010 756100                    STQ     VID0$,,AUTO

      132     2385    4                     CALL FMO$LOCCODP(VID0$,4);

   2385  1 000215   000004 236000 2                  LDQ     4
         1 000216   200021 756100                    STQ     MODE+5,,AUTO
         1 000217   200010 630500                    EPPR0   VID0$,,AUTO
         1 000220   200020 450500                    STP0    MODE+4,,AUTO
         1 000221   200020 630500                    EPPR0   MODE+4,,AUTO
         1 000222   000020 631400 xsym               EPPR1   B_VECTNIL+16
         1 000223   000000 701000 xent               TSX1    FMO$LOCCODP
         1 000224   000000 011000                    NOP     0

      133     2386    4                     FM$SET.GACTIME(I)=CODE04.GAC.TIME;

   2386  1 000225   200004 235100                    LDA     I,,AUTO
         1 000226   000003 735000                    ALS     3
         1 000227   200010 470500                    LDP0    VID0$,,AUTO
         1 000230   000000 471400 xsym               LDP1    FM$SET$
         1 000231   000000 620005                    EAX0    0,AL
         1 000232   000012 235100                    LDA     10,,PR0
         1 000233   100004 755110                    STA     4,X0,PR1

      134     2387    4                     VID0$=PINCRW(VID$,SIZEW(FM$GRAN));

   2387  1 000234   200007 236100                    LDQ     VID$,,AUTO
         1 000235   000005 036003                    ADLQ    5,DU
         1 000236   200010 756100                    STQ     VID0$,,AUTO
PL6.E3A0      #001=FMN$SETX File=FMN$OPNDP.:E05TSI                               TUE 07/29/97 16:52 Page:23

      135     2388    4                     CALL FMO$LOCCODP(VID0$,14);

   2388  1 000237   000007 236000 2                  LDQ     7
         1 000240   200021 756100                    STQ     MODE+5,,AUTO
         1 000241   200010 630500                    EPPR0   VID0$,,AUTO
         1 000242   200020 450500                    STP0    MODE+4,,AUTO
         1 000243   200020 630500                    EPPR0   MODE+4,,AUTO
         1 000244   000020 631400 xsym               EPPR1   B_VECTNIL+16
         1 000245   000000 701000 xent               TSX1    FMO$LOCCODP
         1 000246   000000 011000                    NOP     0

      136     2389    4                     FM$SET.GACSHELF(I)=CODE14.ACCESS.GACSHELF;

   2389  1 000247   200004 235100                    LDA     I,,AUTO
         1 000250   000003 735000                    ALS     3
         1 000251   000000 470400 xsym               LDP0    FM$SET$
         1 000252   200010 471500                    LDP1    VID0$,,AUTO
         1 000253   100000 236100                    LDQ     0,,PR1
         1 000254   000002 676105                    ERQ     2,AL,PR0
         1 000255   000002 376003                    ANQ     2,DU
         1 000256   000002 656105                    ERSQ    2,AL,PR0

      137     2390    4                     FM$SET.WRCMP(I)=CODE14.ACCESS.WRCMP|CODE14.ACCESS.WCDATA;

   2390  1 000257   200010 470500                    LDP0    VID0$,,AUTO
         1 000260   000000 236100                    LDQ     0,,PR0
         1 000261   400000 376003                    ANQ     -131072,DU
         1 000262   200020 756100                    STQ     MODE+4,,AUTO
         1 000263   000000 236100                    LDQ     0,,PR0
         1 000264   000002 736000                    QLS     2
         1 000265   400000 376003                    ANQ     -131072,DU
         1 000266   200020 276100                    ORQ     MODE+4,,AUTO
         1 000267   000000 471400 xsym               LDP1    FM$SET$
         1 000270   000002 772000                    QRL     2
         1 000271   100002 676105                    ERQ     2,AL,PR1
         1 000272   100000 376003                    ANQ     32768,DU
PL6.E3A0      #001=FMN$SETX File=FMN$OPNDP.:E05TSI                               TUE 07/29/97 16:52 Page:24
         1 000273   100002 656105                    ERSQ    2,AL,PR1

      138     2391    4                     CALL FMD$RELBUF(3);

   2391  1 000274   000002 630400 2                  EPPR0   2
         1 000275   000017 631400 xsym               EPPR1   B_VECTNIL+15
         1 000276   000000 701000 xent               TSX1    FMD$RELBUF
         1 000277   000000 011000                    NOP     0

      139     2392    4                     CALL FMD$RELBUF(4);

   2392  1 000300   000004 630400 2                  EPPR0   4
         1 000301   000017 631400 xsym               EPPR1   B_VECTNIL+15
         1 000302   000000 701000 xent               TSX1    FMD$RELBUF
         1 000303   000000 011000                    NOP     0

      140     2393    4                     IF F$DCB.IASN~=%FMDIAG# THEN CALL FAG$CGRANS;

   2393  1 000304   200005 470500                    LDP0    JDCB$,,AUTO
         1 000305   000103 236100                    LDQ     67,,PR0
         1 000306   000777 376007                    ANQ     511,DL
         1 000307   000007 116007                    CMPQ    7,DL
         1 000310   000314 600000 1                  TZE     s:2394

   2393  1 000311   000002 631400 xsym               EPPR1   B_VECTNIL+2
         1 000312   000000 701000 xent               TSX1    FAG$CGRANS
         1 000313   000000 011000                    NOP     0

      141     2394    4                     B$JIT.ERR='0'B;/* CLEAR POSSIBLE ERROR FROM FAG$CGRANS */

   2394  1 000314   000000 470400 xsym               LDP0    B$JIT$
         1 000315   000012 450100                    STZ     10,,PR0

      142     2395    4                     CALL FMR$L8;

   2395  1 000316   000002 631400 xsym               EPPR1   B_VECTNIL+2
         1 000317   000000 701000 xent               TSX1    FMR$L8
PL6.E3A0      #001=FMN$SETX File=FMN$OPNDP.:E05TSI                               TUE 07/29/97 16:52 Page:25
         1 000320   000000 011000                    NOP     0

      143     2396    4                     END;

   2396  1 000321   000350 710000 1                  TRA     s:2403

      144     2397    4                  ELSE IF NOT FM$SET.SET(I) THEN DO;

   2397  1 000322   000002 236105                    LDQ     2,AL,PR0
         1 000323   200000 316003                    CANQ    65536,DU
         1 000324   000350 601000 1                  TNZ     s:2403

      145     2398    4                        J=FM$SET.DCTX(I);

   2398  1 000325   000000 236105                    LDQ     0,AL,PR0
         1 000326   000022 772000                    QRL     18
         1 000327   200006 756100                    STQ     J,,AUTO

      146     2399    4                        IF FM$SET.SYSID(J)~=0 AND FM$SET.SYSID(J)~=B$JIT.SYSID

   2399  1 000330   200006 235100                    LDA     J,,AUTO
         1 000331   000003 735000                    ALS     3
         1 000332   000002 720105                    LXL0    2,AL,PR0
         1 000333   000340 600000 1                  TZE     s:2401
         1 000334   000002 236105                    LDQ     2,AL,PR0
         1 000335   100000 676100                    ERQ     0,,PR1
         1 000336   777777 376007                    ANQ     -1,DL
         1 000337   000542 601000 1                  TNZ     FMNE$XCLSET

      147     2400    4                        THEN GOTO FMNE$XCLSET;
      148     2401    4                        CALL FMP$ULIST(FM$SET(J))ALTRET(RETALT);

   2401  1 000340   200006 236100                    LDQ     J,,AUTO
         1 000341   000025 736000                    QLS     21
         1 000342   000000 036000 xsym               ADLQ    FM$SET$
         1 000343   200020 756100                    STQ     MODE+4,,AUTO
         1 000344   200020 630500                    EPPR0   MODE+4,,AUTO
PL6.E3A0      #001=FMN$SETX File=FMN$OPNDP.:E05TSI                               TUE 07/29/97 16:52 Page:26
         1 000345   000017 631400 xsym               EPPR1   B_VECTNIL+15
         1 000346   000000 701000 xent               TSX1    FMP$ULIST
         1 000347   000544 702000 1                  TSX2    RETALT

      149     2402    4                        END;

      150     2403    3            CALL FMP$ULIST(FM$SET(I))ALTRET(RETALT);

   2403  1 000350   200004 236100                    LDQ     I,,AUTO
         1 000351   000025 736000                    QLS     21
         1 000352   000000 036000 xsym               ADLQ    FM$SET$
         1 000353   200020 756100                    STQ     MODE+4,,AUTO
         1 000354   200020 630500                    EPPR0   MODE+4,,AUTO
         1 000355   000017 631400 xsym               EPPR1   B_VECTNIL+15
         1 000356   000000 701000 xent               TSX1    FMP$ULIST
         1 000357   000544 702000 1                  TSX2    RETALT

      151     2404    3            FM$DEV.AVR(I)='0'B;

   2404  1 000360   200004 235100                    LDA     I,,AUTO
         1 000361   000003 735000                    ALS     3
         1 000362   000000 470400 xsym               LDP0    FM$SET$
         1 000363   000010 236000 2                  LDQ     8
         1 000364   000002 356105                    ANSQ    2,AL,PR0

      152     2405    3            F$DCB.SETX=I;

   2405  1 000365   200004 720100                    LXL0    I,,AUTO
         1 000366   200005 470500                    LDP0    JDCB$,,AUTO
         1 000367   000051 440100                    SXL0    41,,PR0

      153     2406    3            CALL FMR$U8;

   2406  1 000370   000002 631400 xsym               EPPR1   B_VECTNIL+2
         1 000371   000000 701000 xent               TSX1    FMR$U8
         1 000372   000000 011000                    NOP     0

PL6.E3A0      #001=FMN$SETX File=FMN$OPNDP.:E05TSI                               TUE 07/29/97 16:52 Page:27
      154     2407    3            RETURN;

   2407  1 000373   000000 702200 xent               TSX2  ! X66_ARET

      155     2408    3            END;
      156     2409    2         I=FM$SET.SETL(I); /* FLINK */

   2409  1 000374   200004 236100                    LDQ     I,,AUTO
         1 000375   000003 736000                    QLS     3
         1 000376   000005 236106                    LDQ     5,QL,PR0
         1 000377   000022 772000                    QRL     18
         1 000400   200004 756100                    STQ     I,,AUTO

      157     2410    2         END;

   2410  1 000401   000026 601000 1                  TNZ     s:2357

      158     2411    1      I=FM$CFUX.DSETH;

   2411  1 000402   000000 470400 xsym               LDP0    F$CFU$
         1 000403   000005 236100                    LDQ     5,,PR0
         1 000404   777777 376007                    ANQ     -1,DL
         1 000405   200004 756100                    STQ     I,,AUTO

      159     2412    2      IF PSN<=' ' THEN DO WHILE(I~=0);

   2412  1 000406   040100 106400                    CMPC    fill='040'O
         1 000407   000035 000001 xsym               ADSC9   B_VECTNIL+29             cn=0,n=1
         1 000410   100000 000006                    ADSC9   0,,PR1                   cn=0,n=6
         1 000411   000522 602000 1                  TNC     FMNE$SETDOWN

   2412  1 000412   000000 116003                    CMPQ    0,DU
         1 000413   000522 600000 1                  TZE     FMNE$SETDOWN

      160     2413    2         IF PSN=' ' AND FM$DEV.AVR(I) AND B$JIT.SYSID<=JG_PIG#

   2413  1 000414   200003 470500                    LDP0    @PSN,,AUTO
PL6.E3A0      #001=FMN$SETX File=FMN$OPNDP.:E05TSI                               TUE 07/29/97 16:52 Page:28
         1 000415   040000 106500                    CMPC    fill='040'O
         1 000416   000000 000006                    ADSC9   0,,PR0                   cn=0,n=6
         1 000417   000035 000001 xsym               ADSC9   B_VECTNIL+29             cn=0,n=1
         1 000420   000433 601000 1                  TNZ     s:2415
         1 000421   200004 235100                    LDA     I,,AUTO
         1 000422   000003 735000                    ALS     3
         1 000423   000000 471400 xsym               LDP1    FM$SET$
         1 000424   100002 236105                    LDQ     2,AL,PR1
         1 000425   010000 316003                    CANQ    4096,DU
         1 000426   000433 600000 1                  TZE     s:2415
         1 000427   000000 473400 xsym               LDP3    B$JIT$
         1 000430   300000 720100                    LXL0    0,,PR3
         1 000431   000010 100003                    CMPX0   8,DU
         1 000432   000036 602000 1                  TNC     GOTONE

      161     2414    2         THEN GOTO GOTONE;
      162     2415    2         IF NOT FM$DEV.MIRROR(I) OR FM$DEV.SECTL(I)~=0

   2415  1 000433   200004 235100                    LDA     I,,AUTO
         1 000434   000003 735000                    ALS     3
         1 000435   000000 471400 xsym               LDP1    FM$SET$
         1 000436   100002 236105                    LDQ     2,AL,PR1
         1 000437   002000 316003                    CANQ    1024,DU
         1 000440   000454 600000 1                  TZE     s:2417
         1 000441   100005 720105                    LXL0    5,AL,PR1
         1 000442   000454 601000 1                  TNZ     s:2417
         1 000443   200005 473500                    LDP3    JDCB$,,AUTO
         1 000444   300032 236100                    LDQ     26,,PR3
         1 000445   000777 376003                    ANQ     511,DU
         1 000446   000002 116003                    CMPQ    2,DU
         1 000447   000454 600000 1                  TZE     s:2417
         1 000450   000000 474400 xsym               LDP4    B$JIT$
         1 000451   400000 721100                    LXL1    0,,PR4
         1 000452   000001 101003                    CMPX1   1,DU
         1 000453   000505 601000 1                  TNZ     s:2423

      163     2416    2           OR F$DCB.FUN=%IN# OR B$JIT.SYSID=JG_SLUG#
PL6.E3A0      #001=FMN$SETX File=FMN$OPNDP.:E05TSI                               TUE 07/29/97 16:52 Page:29
      164     2417    2         THEN IF FM$DEV.VSN(I)~=0

   2417  1 000454   100001 235105                    LDA     1,AL,PR1
         1 000455   000464 600000 1                  TZE     s:2417+8
         1 000456   200004 235100                    LDA     I,,AUTO
         1 000457   000005 735000                    ALS     5
         1 000460   040105 106500                    CMPC    fill='040'O
         1 000461   000000 000004                    ADSC9   0,,PR0                   cn=0,n=4
         1 000462   100001 000004                    ADSC9   1,A,PR1                  cn=0,n=4
         1 000463   000036 600000 1                  TZE     GOTONE
         1 000464   040100 106500                    CMPC    fill='040'O
         1 000465   000001 000002                    ADSC9   1,,PR0                   cn=0,n=2
         1 000466   200004 400002                    ADSC9   I,,AUTO                  cn=2,n=2
         1 000467   000036 600000 1                  TZE     GOTONE

      165     2418    2              AND SUBSTR(PSN,0,4)=ADDR(FM$DEV.VSN(I))->CHAR4
      166     2419    2              OR SUBSTR(PSN,4,2)=IC.DCTX
      167     2420    2            THEN GOTO GOTONE;
      168     2421    2            ELSE IF I=FM$DEV.DCTX(I) THEN IF SUBSTR(PSN,1,4)=

   2421  1 000470   200004 235100                    LDA     I,,AUTO
         1 000471   000003 735000                    ALS     3
         1 000472   100000 236105                    LDQ     0,AL,PR1
         1 000473   000022 772000                    QRL     18
         1 000474   200004 116100                    CMPQ    I,,AUTO
         1 000475   000505 601000 1                  TNZ     s:2423

   2421  1 000476   000000 473400 xsym               LDP3    N$DCT$$
         1 000477   200004 720100                    LXL0    I,,AUTO
         1 000500   300000 474510                    LDP4    0,X0,PR3
         1 000501   040100 106500                    CMPC    fill='040'O
         1 000502   000000 200004                    ADSC9   0,,PR0                   cn=1,n=4
         1 000503   400002 000004                    ADSC9   2,,PR4                   cn=0,n=4
         1 000504   000036 600000 1                  TZE     GOTONE

      169     2422    2                    SUBSTR(N$DCT$(I)->NI$DCT.DEVNM,0,4) THEN GOTO GOTONE;
      170     2423    2         IF FM$VOL.SECTL(I)~=0 THEN I=FM$VOL.SECTL(I);
PL6.E3A0      #001=FMN$SETX File=FMN$OPNDP.:E05TSI                               TUE 07/29/97 16:52 Page:30

   2423  1 000505   100005 720105                    LXL0    5,AL,PR1
         1 000506   000513 600000 1                  TZE     s:2424

   2423  1 000507   100005 236105                    LDQ     5,AL,PR1
         1 000510   777777 376007                    ANQ     -1,DL
         1 000511   200004 756100                    STQ     I,,AUTO
         1 000512   000521 710000 1                  TRA     s:2425

      171     2424    2         ELSE I=FM$DEV.DEVL(FM$VOL.DCTX(I));

   2424  1 000513   100000 236105                    LDQ     0,AL,PR1
         1 000514   000017 772000                    QRL     15
         1 000515   000000 376000 2                  ANQ     0
         1 000516   100005 236106                    LDQ     5,QL,PR1
         1 000517   000022 772000                    QRL     18
         1 000520   200004 756100                    STQ     I,,AUTO

      172     2425    2         END;

   2425  1 000521   000414 601000 1                  TNZ     s:2413

      173     2426                    /*E*     ERROR: FMN-E$SETDOWN-E
      174     2427                    *        MESSAGE:Packset% DP#%SN% is not ready to use.
      175     2428                   *       MESSAGE1:Packset% #%SN% is either not up, is use by an exclusive
      176     2429                    *        user, or is waiting for the operator to make it available.
      177     2430                    */
      178     2431    1   FMNE$SETDOWN:B$JIT.ERR=FMN$E$SETDOWN;

   2431  1 000522   000001 236000 0     FMNE$SETDOWN LDQ     FMN$E$SETDOWN
         1 000523   000000 470400 xsym               LDP0    B$JIT$
         1 000524   000012 756100                    STQ     10,,PR0

      179     2432    1      IF F$DCB.IASN=%DEVICE# AND PSN<=' ' THEN B$JIT.ERR=FMN$E$NOTAUTH;

   2432  1 000525   200005 471500                    LDP1    JDCB$,,AUTO
         1 000526   100103 236100                    LDQ     67,,PR1
PL6.E3A0      #001=FMN$SETX File=FMN$OPNDP.:E05TSI                               TUE 07/29/97 16:52 Page:31
         1 000527   000777 376007                    ANQ     511,DL
         1 000530   000003 116007                    CMPQ    3,DL
         1 000531   000541 601000 1                  TNZ     s:2433
         1 000532   200003 473500                    LDP3    @PSN,,AUTO
         1 000533   040100 106400                    CMPC    fill='040'O
         1 000534   000035 000001 xsym               ADSC9   B_VECTNIL+29             cn=0,n=1
         1 000535   300000 000006                    ADSC9   0,,PR3                   cn=0,n=6
         1 000536   000541 602000 1                  TNC     s:2433

   2432  1 000537   000003 236000 0                  LDQ     FMN$E$NOTAUTH
         1 000540   000012 756100                    STQ     10,,PR0

      180     2433    1      GOTO RETALT;

   2433  1 000541   000544 710000 1                  TRA     RETALT

      181     2434    1   FMNE$XCLSET: B$JIT.ERR=FMN$E$XCLSET;

   2434  1 000542   000000 236000 0     FMNE$XCLSET  LDQ     FMN$E$XCLSET
         1 000543   100012 756100                    STQ     10,,PR1

   2432  1 000544                       RETALT       null
      182     2435    1   RETALT:;
      183     2436    1      F$DCB.SETX=I;

   2436  1 000544   200004 720100                    LXL0    I,,AUTO
         1 000545   200005 470500                    LDP0    JDCB$,,AUTO
         1 000546   000051 440100                    SXL0    41,,PR0

      184     2437    1      CALL FMR$U8;

   2437  1 000547   000002 631400 xsym               EPPR1   B_VECTNIL+2
         1 000550   000000 701000 xent               TSX1    FMR$U8
         1 000551   000000 011000                    NOP     0

      185     2438    1      ALTRETURN;

PL6.E3A0      #001=FMN$SETX File=FMN$OPNDP.:E05TSI                               TUE 07/29/97 16:52 Page:32
   2438  1 000552   000000 702200 xent               TSX2  ! X66_AALT

   2436  1 000553                       RETALTREL    null
      186     2439    1   RETALTREL:;
      187     2440    1      VOL=FM$SET.DCTX(I);

   2440  1 000553   200004 235100                    LDA     I,,AUTO
         1 000554   000003 735000                    ALS     3
         1 000555   000000 470400 xsym               LDP0    FM$SET$
         1 000556   000000 236105                    LDQ     0,AL,PR0
         1 000557   000022 772000                    QRL     18
         1 000560   200011 756100                    STQ     VOL,,AUTO

      188     2441    2      DO WHILE(VOL~=0);

   2441  1 000561   000633 600000 1                  TZE     s:2451

      189     2442    2         RAT$=N$DCT$(FM$VOL.DCTX(VOL))->NI$DCT.RAT$;

   2442  1 000562   200011 235100                    LDA     VOL,,AUTO
         1 000563   000003 735000                    ALS     3
         1 000564   000000 470400 xsym               LDP0    FM$SET$
         1 000565   000000 220105                    LDX0    0,AL,PR0
         1 000566   000000 471400 xsym               LDP1    N$DCT$$
         1 000567   100000 473510                    LDP3    0,X0,PR1
         1 000570   300005 236100                    LDQ     5,,PR3
         1 000571   200012 756100                    STQ     RAT$,,AUTO

      190     2443    3         IF FR$RAT.RES.SISID=SYSID THEN DO;

   2443  1 000572   200012 473500                    LDP3    RAT$,,AUTO
         1 000573   300001 236100                    LDQ     1,,PR3
         1 000574   000022 732000                    QRS     18
         1 000575   000624 604000 1                  TMI     s:2449
         1 000576   200013 116100                    CMPQ    SYSID,,AUTO
         1 000577   000624 601000 1                  TNZ     s:2449

PL6.E3A0      #001=FMN$SETX File=FMN$OPNDP.:E05TSI                               TUE 07/29/97 16:52 Page:33
      191     2444    3            FR$RAT.FLG.OPN='0'B;

   2444  1 000600   000011 236000 2                  LDQ     9
         1 000601   300010 356100                    ANSQ    8,,PR3

      192     2445    3            FR$RAT.FLG.MBIT='0'B;

   2445  1 000602   200012 473500                    LDP3    RAT$,,AUTO
         1 000603   000012 236000 2                  LDQ     10
         1 000604   300010 356100                    ANSQ    8,,PR3

      193     2446    3            FR$RAT.REEL.ASID=0;

   2446  1 000605   000000 220003                    LDX0    0,DU
         1 000606   200012 473500                    LDP3    RAT$,,AUTO
         1 000607   300004 740100                    STX0    4,,PR3

      194     2447    3            IF FR$RAT.RES.RFLG.OLT THEN CALL FRZ$RRESNA(FR$RAT,MODE);

   2447  1 000610   200012 473500                    LDP3    RAT$,,AUTO
         1 000611   300003 236100                    LDQ     3,,PR3
         1 000612   020000 316003                    CANQ    8192,DU
         1 000613   000624 600000 1                  TZE     s:2449

   2447  1 000614   200014 634500                    EPPR4   MODE,,AUTO
         1 000615   200021 454500                    STP4    MODE+5,,AUTO
         1 000616   200012 236100                    LDQ     RAT$,,AUTO
         1 000617   200020 756100                    STQ     MODE+4,,AUTO
         1 000620   200020 630500                    EPPR0   MODE+4,,AUTO
         1 000621   000020 631400 xsym               EPPR1   B_VECTNIL+16
         1 000622   000000 701000 xent               TSX1    FRZ$RRESNA
         1 000623   000000 011000                    NOP     0

      195     2448    3            END;

      196     2449    2         VOL=FM$VOL.VOLL(VOL);

PL6.E3A0      #001=FMN$SETX File=FMN$OPNDP.:E05TSI                               TUE 07/29/97 16:52 Page:34
   2449  1 000624   200011 235100                    LDA     VOL,,AUTO
         1 000625   000003 735000                    ALS     3
         1 000626   000000 470400 xsym               LDP0    FM$SET$
         1 000627   000005 236105                    LDQ     5,AL,PR0
         1 000630   000022 772000                    QRL     18
         1 000631   200011 756100                    STQ     VOL,,AUTO

      197     2450    2         END;

   2450  1 000632   000562 601000 1                  TNZ     s:2442

      198     2451    1      IF J<175 THEN CALL BINCHAR(F$DCB.PSN,VID.VSN);

   2451  1 000633   200006 235100                    LDA     J,,AUTO
         1 000634   000257 115007                    CMPA    175,DL
         1 000635   000646 603000 1                  TRC     s:2452

   2451  1 000636   200007 471500                    LDP1    VID$,,AUTO
         1 000637   100002 235100                    LDA     2,,PR1
         1 000640   000044 773000                    LRL     36
         1 000641   200020 757100                    STAQ    MODE+4,,AUTO
         1 000642   200005 473500                    LDP3    JDCB$,,AUTO
         1 000643   000100 301500                    BTD
         1 000644   200020 000010                    NDSC9   MODE+4,,AUTO             cn=0,s=lsgnf,sf=0,n=8
         1 000645   300024 030006                    NDSC9   20,,PR3                  cn=0,s=nosgn,sf=0,n=6

      199     2452    1      CALL FMD$RELBUF(3);

   2452  1 000646   000002 630400 2                  EPPR0   2
         1 000647   000017 631400 xsym               EPPR1   B_VECTNIL+15
         1 000650   000000 701000 xent               TSX1    FMD$RELBUF
         1 000651   000000 011000                    NOP     0

      200     2453    1      CALL FMD$RELBUF(4);

   2453  1 000652   000004 630400 2                  EPPR0   4
         1 000653   000017 631400 xsym               EPPR1   B_VECTNIL+15
PL6.E3A0      #001=FMN$SETX File=FMN$OPNDP.:E05TSI                               TUE 07/29/97 16:52 Page:35
         1 000654   000000 701000 xent               TSX1    FMD$RELBUF
         1 000655   000000 011000                    NOP     0

      201     2454    1      IF FM$SET.DIAGOPN(I) THEN CALL FMP$UDLIST(FM$SET(I));

   2454  1 000656   200004 235100                    LDA     I,,AUTO
         1 000657   000003 735000                    ALS     3
         1 000660   000000 470400 xsym               LDP0    FM$SET$
         1 000661   000002 236105                    LDQ     2,AL,PR0
         1 000662   004000 316003                    CANQ    2048,DU
         1 000663   000674 600000 1                  TZE     s:2455

   2454  1 000664   200004 236100                    LDQ     I,,AUTO
         1 000665   000025 736000                    QLS     21
         1 000666   000000 036000 xsym               ADLQ    FM$SET$
         1 000667   200020 756100                    STQ     MODE+4,,AUTO
         1 000670   200020 630500                    EPPR0   MODE+4,,AUTO
         1 000671   000017 631400 xsym               EPPR1   B_VECTNIL+15
         1 000672   000000 701000 xent               TSX1    FMP$UDLIST
         1 000673   000000 011000                    NOP     0

      202     2455    1      IF B$JIT.ERR='0'B THEN B$JIT.ERR=FMN$E$SETDOWN;

   2455  1 000674   000000 470400 xsym               LDP0    B$JIT$
         1 000675   000012 235100                    LDA     10,,PR0
         1 000676   000701 601000 1                  TNZ     s:2456

   2455  1 000677   000001 236000 0                  LDQ     FMN$E$SETDOWN
         1 000700   000012 756100                    STQ     10,,PR0

      203     2456    1      ALTRETURN;

   2456  1 000701   000000 702200 xent               TSX2  ! X66_AALT

      204     2457        %EJECT;
PL6.E3A0      #001=FMN$SETX File=FMN$OPNDP.:E05TSI                               TUE 07/29/97 16:52 Page:36
      205     2458    1   READVID0: PROC ALTRET;

   2458  1 000702   200016 741300       READVID0     STX1  ! MODE+2,,AUTO

      206     2459    2      MODE=B$JIT.MODE;

   2459  1 000703   000000 470400 xsym               LDP0    B$JIT$
         1 000704   000000 236100                    LDQ     0,,PR0
         1 000705   000040 772000                    QRL     32
         1 000706   200014 756100                    STQ     MODE,,AUTO

      207     2460    2      SYSID=B$JIT.SYSID;

   2460  1 000707   000000 236100                    LDQ     0,,PR0
         1 000710   777777 376007                    ANQ     -1,DL
         1 000711   200013 756100                    STQ     SYSID,,AUTO

      208     2461    2      VOL=FM$SET.DCTX(I);

   2461  1 000712   200004 235100                    LDA     I,,AUTO
         1 000713   000003 735000                    ALS     3
         1 000714   000000 471400 xsym               LDP1    FM$SET$
         1 000715   100000 236105                    LDQ     0,AL,PR1
         1 000716   000022 772000                    QRL     18
         1 000717   200011 756100                    STQ     VOL,,AUTO

      209     2462    2      IF VOL=0 THEN VID.VSN=0;

   2462  1 000720   000724 601000 1                  TNZ     s:2463

   2462  1 000721   200007 473500                    LDP3    VID$,,AUTO
         1 000722   300002 450100                    STZ     2,,PR3
         1 000723   000732 710000 1                  TRA     s:2464

      210     2463    2      ELSE VID.VSN=FM$VOL.VSN(VOL);

   2463  1 000724   200011 235100                    LDA     VOL,,AUTO
PL6.E3A0      #001=FMN$SETX File=FMN$OPNDP.:E05TSI                               TUE 07/29/97 16:52 Page:37
         1 000725   000003 735000                    ALS     3
         1 000726   200007 473500                    LDP3    VID$,,AUTO
         1 000727   100001 236105                    LDQ     1,AL,PR1
         1 000730   000032 376000 xsym               ANQ     B_VECTNIL+26
         1 000731   300002 756100                    STQ     2,,PR3

      211     2464    2      FM$SET.NXTSDA(I)=FM_SRZERO;

   2464  1 000732   200004 235100                    LDA     I,,AUTO
         1 000733   000003 735000                    ALS     3
         1 000734   000000 236000 xsym               LDQ     FM_SRZERO
         1 000735   100003 676105                    ERQ     3,AL,PR1
         1 000736   000032 376000 xsym               ANQ     B_VECTNIL+26
         1 000737   100003 656105                    ERSQ    3,AL,PR1

      212     2465    2      GOTO COMMON;

   2465  1 000740   000756 710000 1                  TRA     COMMON

      213     2466    2   READVID: ENTRY ALTRET;

   2466  1 000741   200016 741300       READVID      STX1  ! MODE+2,,AUTO

      214     2467    2      VID.VSN=VID0.SNLIST.VSN.N(J);

   2467  1 000742   200006 235100                    LDA     J,,AUTO
         1 000743   000002 735000                    ALS     2
         1 000744   200010 470500                    LDP0    VID0$,,AUTO
         1 000745   200007 471500                    LDP1    VID$,,AUTO
         1 000746   000500 236105                    LDQ     320,AL,PR0
         1 000747   000032 376000 xsym               ANQ     B_VECTNIL+26
         1 000750   100002 756100                    STQ     2,,PR1

      215     2468    2      IF VID.VSN=0 THEN GOTO FMNE$BADVOL;

   2468  1 000751   200007 470500                    LDP0    VID$,,AUTO
         1 000752   000002 235100                    LDA     2,,PR0
PL6.E3A0      #001=FMN$SETX File=FMN$OPNDP.:E05TSI                               TUE 07/29/97 16:52 Page:38
         1 000753   001307 600000 1                  TZE     FMNE$BADVOL

      216     2469    2      VID.VOLCNT=0;

   2469  1 000754   000000 220003                    LDX0    0,DU
         1 000755   000004 440100                    SXL0    4,,PR0

   2469  1 000756                       COMMON       null
      217     2470    2   COMMON:;
      218     2471    2      F$DCB.CSEED=VID.VSN;

   2471  1 000756   200007 470500                    LDP0    VID$,,AUTO
         1 000757   000002 235100                    LDA     2,,PR0
         1 000760   200005 471500                    LDP1    JDCB$,,AUTO
         1 000761   100072 755100                    STA     58,,PR1

      219     2472    2      F$DCB.SETX=0;

   2472  1 000762   000000 220003                    LDX0    0,DU
         1 000763   100051 440100                    SXL0    41,,PR1

      220     2473    2      VOL=FM$SET.DCTX(I);

   2473  1 000764   200004 236100                    LDQ     I,,AUTO
         1 000765   000003 736000                    QLS     3
         1 000766   000000 473400 xsym               LDP3    FM$SET$
         1 000767   300000 236106                    LDQ     0,QL,PR3
         1 000770   000022 772000                    QRL     18
         1 000771   200011 756100                    STQ     VOL,,AUTO

      221     2474    3      DO WHILE(VOL~=0 AND F$DCB.SETX=0);

   2474  1 000772   001030 710000 1                  TRA     s:2479

      222     2475    3         IF J=175 THEN F$DCB.SETX=FM$VOL.DCTX(VOL);

   2475  1 000773   200006 235100                    LDA     J,,AUTO
PL6.E3A0      #001=FMN$SETX File=FMN$OPNDP.:E05TSI                               TUE 07/29/97 16:52 Page:39
         1 000774   000257 115007                    CMPA    175,DL
         1 000775   001005 601000 1                  TNZ     s:2476

   2475  1 000776   200011 236100                    LDQ     VOL,,AUTO
         1 000777   000003 736000                    QLS     3
         1 001000   000000 470400 xsym               LDP0    FM$SET$
         1 001001   000000 220106                    LDX0    0,QL,PR0
         1 001002   200005 471500                    LDP1    JDCB$,,AUTO
         1 001003   100051 440100                    SXL0    41,,PR1
         1 001004   001030 710000 1                  TRA     s:2479

      223     2476    3         ELSE IF FM$DEV.VSN(VOL)=BITBIN(VID0.SNLIST.VSN(J))

   2476  1 001005   000002 735000                    ALS     2
         1 001006   200010 470500                    LDP0    VID0$,,AUTO
         1 001007   200011 236100                    LDQ     VOL,,AUTO
         1 001010   000003 736000                    QLS     3
         1 001011   000000 471400 xsym               LDP1    FM$SET$
         1 001012   100001 236106                    LDQ     1,QL,PR1
         1 001013   000500 116105                    CMPQ    320,AL,PR0
         1 001014   001023 601000 1                  TNZ     s:2478

      224     2477    3            THEN F$DCB.SETX=FM$VOL.DCTX(VOL);

   2477  1 001015   200011 236100                    LDQ     VOL,,AUTO
         1 001016   000003 736000                    QLS     3
         1 001017   100000 220106                    LDX0    0,QL,PR1
         1 001020   200005 473500                    LDP3    JDCB$,,AUTO
         1 001021   300051 440100                    SXL0    41,,PR3
         1 001022   001030 710000 1                  TRA     s:2479

      225     2478    3            ELSE VOL=FM$VOL.VOLL(VOL);

   2478  1 001023   200011 236100                    LDQ     VOL,,AUTO
         1 001024   000003 736000                    QLS     3
         1 001025   100005 236106                    LDQ     5,QL,PR1
         1 001026   000022 772000                    QRL     18
PL6.E3A0      #001=FMN$SETX File=FMN$OPNDP.:E05TSI                               TUE 07/29/97 16:52 Page:40
         1 001027   200011 756100                    STQ     VOL,,AUTO

      226     2479    3         END;

   2479  1 001030   200011 235100                    LDA     VOL,,AUTO
         1 001031   001035 600000 1                  TZE     s:2480
         1 001032   200005 470500                    LDP0    JDCB$,,AUTO
         1 001033   000051 720100                    LXL0    41,,PR0
         1 001034   000773 600000 1                  TZE     s:2475

      227     2480    2      IF F$DCB.RESNT.TYP~='DP' THEN F$DCB.RES='DP';

   2480  1 001035   200005 470500                    LDP0    JDCB$,,AUTO
         1 001036   000026 220100                    LDX0    22,,PR0
         1 001037   000005 100000 0                  CMPX0   FMN$E$SPLITRES+1
         1 001040   001045 600000 1                  TZE     s:2481

   2480  1 001041   000005 236000 0                  LDQ     FMN$E$SPLITRES+1
         1 001042   777777 376003                    ANQ     -1,DU
         1 001043   040040 276007                    ORQ     16416,DL
         1 001044   000026 756100                    STQ     22,,PR0

      228     2481    2      IF F$DCB.IASN=%FMDIAG# OR SYSID=JG_SLUG# THEN IF VOL=0 THEN ALTRETURN;

   2481  1 001045   000103 236100                    LDQ     67,,PR0
         1 001046   000777 376007                    ANQ     511,DL
         1 001047   000007 116007                    CMPQ    7,DL
         1 001050   001054 600000 1                  TZE     s:2481+7
         1 001051   200013 235100                    LDA     SYSID,,AUTO
         1 001052   000001 115007                    CMPA    1,DL
         1 001053   001066 601000 1                  TNZ     s:2483

   2481  1 001054   200011 235100                    LDA     VOL,,AUTO
         1 001055   001060 601000 1                  TNZ     s:2482

   2481  1 001056   200016 221300                    LDX1  ! MODE+2,,AUTO
         1 001057   000000 702211                    TSX2  ! 0,X1
PL6.E3A0      #001=FMN$SETX File=FMN$OPNDP.:E05TSI                               TUE 07/29/97 16:52 Page:41

      229     2482    2         ELSE F$DCB.ATTR=N$DCT$(F$DCB.SETX)->NI$DCT.RAT$->FR$RAT.M1;

   2482  1 001060   000051 720100                    LXL0    41,,PR0
         1 001061   000000 471400 xsym               LDP1    N$DCT$$
         1 001062   100000 473510                    LDP3    0,X0,PR1
         1 001063   300005 474500                    LDP4    5,,PR3
         1 001064   400006 221100                    LDX1    6,,PR4
         1 001065   000040 441100                    SXL1    32,,PR0

      230     2483    3      IF VOL=0 THEN DO;

   2483  1 001066   200011 235100                    LDA     VOL,,AUTO
         1 001067   001122 601000 1                  TNZ     s:2493

      231     2484    3         CALL FRA$OPR ALTRET(RETALT);

   2484  1 001070   000002 631400 xsym               EPPR1   B_VECTNIL+2
         1 001071   000000 701000 xent               TSX1    FRA$OPR
         1 001072   001320 702000 1                  TSX2    RETALT

      232     2485                    /* NOW WHERE DID IT APPEAR */
      233     2486    3         VOL=FM$SET.DCTX(I);

   2486  1 001073   200004 235100                    LDA     I,,AUTO
         1 001074   000003 735000                    ALS     3
         1 001075   000000 470400 xsym               LDP0    FM$SET$
         1 001076   000000 236105                    LDQ     0,AL,PR0
         1 001077   000022 772000                    QRL     18
         1 001100   200011 756100                    STQ     VOL,,AUTO

      234     2487    4         DO WHILE(VOL~=0 AND FM$VOL.DCTX(VOL)~=F$DCB.SETX);

   2487  1 001101   001110 710000 1                  TRA     s:2489

      235     2488    4            VOL=FM$VOL.VOLL(VOL);

PL6.E3A0      #001=FMN$SETX File=FMN$OPNDP.:E05TSI                               TUE 07/29/97 16:52 Page:42
   2488  1 001102   200011 235100                    LDA     VOL,,AUTO
         1 001103   000003 735000                    ALS     3
         1 001104   000000 470400 xsym               LDP0    FM$SET$
         1 001105   000005 236105                    LDQ     5,AL,PR0
         1 001106   000022 772000                    QRL     18
         1 001107   200011 756100                    STQ     VOL,,AUTO

      236     2489    4            END;

   2489  1 001110   001117 600000 1                  TZE     s:2490
         1 001111   200005 471500                    LDP1    JDCB$,,AUTO
         1 001112   100051 720100                    LXL0    41,,PR1
         1 001113   200011 235100                    LDA     VOL,,AUTO
         1 001114   000003 735000                    ALS     3
         1 001115   000000 100105                    CMPX0   0,AL,PR0
         1 001116   001102 601000 1                  TNZ     s:2488

      237     2490    3         IF VOL=0 THEN GOTO FMNE$BADVOL;

   2490  1 001117   000000 116003                    CMPQ    0,DU
         1 001120   001307 600000 1                  TZE     FMNE$BADVOL

      238     2491    3         END;

   2491  1 001121   001175 710000 1                  TRA     s:2514

      239     2492    3      ELSE DO;

      240     2493    3         RAT$=N$DCT$(F$DCB.SETX)->NI$DCT.RAT$;

   2493  1 001122   000051 720100                    LXL0    41,,PR0
         1 001123   000000 471400 xsym               LDP1    N$DCT$$
         1 001124   100000 473510                    LDP3    0,X0,PR1
         1 001125   300005 236100                    LDQ     5,,PR3
         1 001126   200012 756100                    STQ     RAT$,,AUTO

      241     2494    3         IF NOT FR$RAT.FLG.OPN THEN IF FM$VOL.SECT#(VOL)=0
PL6.E3A0      #001=FMN$SETX File=FMN$OPNDP.:E05TSI                               TUE 07/29/97 16:52 Page:43

   2494  1 001127   200012 473500                    LDP3    RAT$,,AUTO
         1 001130   300010 236100                    LDQ     8,,PR3
         1 001131   000020 316007                    CANQ    16,DL
         1 001132   001161 601000 1                  TNZ     s:2506

   2494  1 001133   000003 735000                    ALS     3
         1 001134   000000 474400 xsym               LDP4    FM$SET$
         1 001135   400001 236105                    LDQ     1,AL,PR4
         1 001136   777000 316003                    CANQ    -512,DU
         1 001137   001144 601000 1                  TNZ     s:2496

      242     2495    3            THEN CALL FRA$OPR ALTRET(RETALT);

   2495  1 001140   000002 631400 xsym               EPPR1   B_VECTNIL+2
         1 001141   000000 701000 xent               TSX1    FRA$OPR
         1 001142   001320 702000 1                  TSX2    RETALT
         1 001143   001175 710000 1                  TRA     s:2514

      243     2496    4            ELSE IF FR$RAT.RES.SISID=JG_PIG# OR B$JIT.SYSID=JG_SLUG# THEN DO;

   2496  1 001144   300001 221100                    LDX1    1,,PR3
         1 001145   000007 101003                    CMPX1   7,DU
         1 001146   001153 600000 1                  TZE     s:2497
         1 001147   000000 475400 xsym               LDP5    B$JIT$
         1 001150   500000 722100                    LXL2    0,,PR5
         1 001151   000001 102003                    CMPX2   1,DU
         1 001152   001314 601000 1                  TNZ     FMNE$SPLITRES

      244     2497    4                  FR$RAT.FLG.MBIT.MTD='1'B;

   2497  1 001153   000400 236007                    LDQ     256,DL
         1 001154   300010 256100                    ORSQ    8,,PR3

      245     2498    4                  FR$RAT.FLG.OPN='1'B;

   2498  1 001155   200012 473500                    LDP3    RAT$,,AUTO
PL6.E3A0      #001=FMN$SETX File=FMN$OPNDP.:E05TSI                               TUE 07/29/97 16:52 Page:44
         1 001156   000020 236007                    LDQ     16,DL
         1 001157   300010 256100                    ORSQ    8,,PR3

      246     2499    4                  END;

   2499  1 001160   001175 710000 1                  TRA     s:2514

      247     2500    3               ELSE GOTO FMNE$SPLITRES;
      248     2501                    /*E*     ERROR: FMN-E$SPLITRES-E
      249     2502                    *        MESSAGE:No DP resource available to mount split set% %UF%.
      250     2503                    *        MESSAGE1:Set% #%UF% occupies a multi-set volume and PIG
      251     2504                    *                 was unable to allocate its resource when it AVR'ed.
      252     2505                    */
      253     2506    3         ELSE IF FR$RAT.RES.SISID~=SYSID AND FM$VOL.SECT#(VOL)=0

   2506  1 001161   300001 236100                    LDQ     1,,PR3
         1 001162   000022 732000                    QRS     18
         1 001163   001166 604000 1                  TMI     s:2506+5
         1 001164   200013 116100                    CMPQ    SYSID,,AUTO
         1 001165   001175 600000 1                  TZE     s:2514
         1 001166   000003 735000                    ALS     3
         1 001167   000000 474400 xsym               LDP4    FM$SET$
         1 001170   400001 236105                    LDQ     1,AL,PR4
         1 001171   777000 316003                    CANQ    -512,DU
         1 001172   001175 601000 1                  TNZ     s:2514

      254     2507    3            THEN CALL SC_SETRES;

   2507  1 001173   000000 713400 xsym               CLIMB   SC_SETRES
         1 001174   000000 600000 xsid               climb   nvectors=         0

      255     2508                    /*S*     SCREECH_CODE: FMR-S$SETRES
      256     2509                    *        TYPE: SUA
      257     2510              *        MESSAGE:Another user is using a volume of a properly reserved set.
      258     2511              */
      259     2512    3         END;

PL6.E3A0      #001=FMN$SETX File=FMN$OPNDP.:E05TSI                               TUE 07/29/97 16:52 Page:45
      260     2513
      261     2514    2      F$DCB.SETX=VOL;

   2514  1 001175   200011 720100                    LXL0    VOL,,AUTO
         1 001176   200005 470500                    LDP0    JDCB$,,AUTO
         1 001177   000051 440100                    SXL0    41,,PR0

      262     2515    2      CALL FMN$RDGRAN(VID$,FM_SRZERO);

   2515  1 001200   000013 236000 2                  LDQ     11
         1 001201   200021 756100                    STQ     MODE+5,,AUTO
         1 001202   200007 631500                    EPPR1   VID$,,AUTO
         1 001203   200020 451500                    STP1    MODE+4,,AUTO
         1 001204   200020 630500                    EPPR0   MODE+4,,AUTO
         1 001205   000020 631400 xsym               EPPR1   B_VECTNIL+16
         1 001206   000000 701000 xent               TSX1    FMN$RDGRAN
         1 001207   000000 011000                    NOP     0

      263     2516    2      IF J=175 THEN VID0=VID;

   2516  1 001210   200006 235100                    LDA     J,,AUTO
         1 001211   000257 115007                    CMPA    175,DL
         1 001212   001222 601000 1                  TNZ     s:2518

   2516  1 001213   200007 470500                    LDP0    VID$,,AUTO
         1 001214   010000 220003                    LDX0    4096,DU
         1 001215   200010 471500                    LDP1    VID0$,,AUTO
         1 001216   000140 100540                    MLR     fill='000'O
         1 001217   000000 000010                    ADSC9   0,,PR0                   cn=0,n=*X0
         1 001220   100000 000010                    ADSC9   0,,PR1                   cn=0,n=*X0
         1 001221   001271 710000 1                  TRA     s:2529

      264     2517    3      ELSE DO;

      265     2518    3         IF B$JIT.ERR='0'B THEN

   2518  1 001222   000000 470400 xsym               LDP0    B$JIT$
PL6.E3A0      #001=FMN$SETX File=FMN$OPNDP.:E05TSI                               TUE 07/29/97 16:52 Page:46
         1 001223   000012 235100                    LDA     10,,PR0
         1 001224   001271 601000 1                  TNZ     s:2529

      266     2519    3            IF VID.PSN~=VID0.PSN

   2519  1 001225   200007 471500                    LDP1    VID$,,AUTO
         1 001226   200010 473500                    LDP3    VID0$,,AUTO
         1 001227   040100 106500                    CMPC    fill='040'O
         1 001230   100003 000006                    ADSC9   3,,PR1                   cn=0,n=6
         1 001231   300003 000006                    ADSC9   3,,PR3                   cn=0,n=6
         1 001232   001267 601000 1                  TNZ     s:2524
         1 001233   100004 236100                    LDQ     4,,PR1
         1 001234   300004 676100                    ERQ     4,,PR3
         1 001235   777777 376007                    ANQ     -1,DL
         1 001236   001267 601000 1                  TNZ     s:2524
         1 001237   000100 106500                    CMPC    fill='000'O
         1 001240   100500 000020                    ADSC9   320,,PR1                 cn=0,n=16
         1 001241   300500 000020                    ADSC9   320,,PR3                 cn=0,n=16
         1 001242   001267 601000 1                  TNZ     s:2524
         1 001243   200006 236100                    LDQ     J,,AUTO
         1 001244   000004 736000                    QLS     4
         1 001245   000106 106506                    CMPC    fill='000'O
         1 001246   100500 000020                    ADSC9   320,Q,PR1                cn=0,n=16
         1 001247   300500 000020                    ADSC9   320,Q,PR3                cn=0,n=16
         1 001250   001267 601000 1                  TNZ     s:2524
         1 001251   200005 474500                    LDP4    JDCB$,,AUTO
         1 001252   400051 236100                    LDQ     41,,PR4
         1 001253   000003 736000                    QLS     3
         1 001254   000000 376000 2                  ANQ     0
         1 001255   000000 475400 xsym               LDP5    FM$SET$
         1 001256   500003 236106                    LDQ     3,QL,PR5
         1 001257   000032 376000 xsym               ANQ     B_VECTNIL+26
         1 001260   000000 136000 xsym               SBLQ    FM_SRZERO
         1 001261   200006 235100                    LDA     J,,AUTO
         1 001262   000002 735000                    ALS     2
         1 001263   000000 116003                    CMPQ    0,DU
         1 001264   001267 604000 1                  TMI     s:2524
PL6.E3A0      #001=FMN$SETX File=FMN$OPNDP.:E05TSI                               TUE 07/29/97 16:52 Page:47
         1 001265   100501 116105                    CMPQ    321,AL,PR1
         1 001266   001271 600000 1                  TZE     s:2529

      267     2520    3              OR VID.VOLCNT~=VID0.VOLCNT
      268     2521    3              OR VID.SNLIST(0)~=VID0.SNLIST(0)
      269     2522    3              OR VID.SNLIST(J)~=VID0.SNLIST(J)
      270     2523    3              OR VID.SNLIST.SIZE(J)~=FM$SET.NXTSDA(F$DCB.SETX)-FM_SRZERO
      271     2524    3            THEN B$JIT.ERR=FMN$E$BADVOL;

   2524  1 001267   000002 236000 0                  LDQ     FMN$E$BADVOL
         1 001270   000012 756100                    STQ     10,,PR0

      272     2525                    /*E*     ERROR: FMN-E$BADVOL-E
      273     2526                    *        MESSAGE: Packset volume #%SN is not part of its set.
      274     2527                    */
      275     2528    3         END;

      276     2529    2      FM$VOL.RGRANS(VOL)=0;

   2529  1 001271   200011 235100                    LDA     VOL,,AUTO
         1 001272   000003 735000                    ALS     3
         1 001273   000000 470400 xsym               LDP0    FM$SET$
         1 001274   000006 450105                    STZ     6,AL,PR0

      277     2530    2      FM$VOL.GPSDA(VOL)=FM_GPSDA;

   2530  1 001275   000000 470400 xsym               LDP0    FM$SET$
         1 001276   000000 236000 xsym               LDQ     FM_GPSDA
         1 001277   000007 756105                    STQ     7,AL,PR0

      278     2531    2      IF B$JIT.ERR='0'B THEN RETURN;

   2531  1 001300   000000 470400 xsym               LDP0    B$JIT$
         1 001301   000012 235100                    LDA     10,,PR0
         1 001302   001305 601000 1                  TNZ     s:2532

   2531  1 001303   200016 221300                    LDX1  ! MODE+2,,AUTO
PL6.E3A0      #001=FMN$SETX File=FMN$OPNDP.:E05TSI                               TUE 07/29/97 16:52 Page:48
         1 001304   000001 702211                    TSX2  ! 1,X1

      279     2532    2      ALTRETURN;

   2532  1 001305   200016 221300                    LDX1  ! MODE+2,,AUTO
         1 001306   000000 702211                    TSX2  ! 0,X1

      280     2533    2   FMNE$BADVOL:B$JIT.ERR=FMN$E$BADVOL;

   2533  1 001307   000002 236000 0     FMNE$BADVOL  LDQ     FMN$E$BADVOL
         1 001310   000000 470400 xsym               LDP0    B$JIT$
         1 001311   000012 756100                    STQ     10,,PR0

      281     2534    2      ALTRETURN;

   2534  1 001312   200016 221300                    LDX1  ! MODE+2,,AUTO
         1 001313   000000 702211                    TSX2  ! 0,X1

      282     2535    2   FMNE$SPLITRES: B$JIT.ERR=FMN$E$SPLITRES;

   2535  1 001314   000004 236000 0     FMNE$SPLITR* LDQ     FMN$E$SPLITRES
         1 001315   500012 756100                    STQ     10,,PR5

      283     2536    2      ALTRETURN;

   2536  1 001316   200016 221300                    LDX1  ! MODE+2,,AUTO
         1 001317   000000 702211                    TSX2  ! 0,X1

   2531  1 001320                       RETALT       null
      284     2537    2   RETALT:;
      285     2538    2      IF B$JIT.ERR.CODE=%E$NORES AND (F$DCB.IASN=%FMDIAG# OR SYSID=JG_SLUG#)

   2538  1 001320   000000 470400 xsym               LDP0    B$JIT$
         1 001321   000012 236100                    LDQ     10,,PR0
         1 001322   377770 376007                    ANQ     131064,DL
         1 001323   012150 116007                    CMPQ    5224,DL
         1 001324   001335 601000 1                  TNZ     RETALT+13
PL6.E3A0      #001=FMN$SETX File=FMN$OPNDP.:E05TSI                               TUE 07/29/97 16:52 Page:49
         1 001325   200005 471500                    LDP1    JDCB$,,AUTO
         1 001326   100103 236100                    LDQ     67,,PR1
         1 001327   000777 376007                    ANQ     511,DL
         1 001330   000007 116007                    CMPQ    7,DL
         1 001331   001344 600000 1                  TZE     s:2540
         1 001332   200013 235100                    LDA     SYSID,,AUTO
         1 001333   000001 115007                    CMPA    1,DL
         1 001334   001344 600000 1                  TZE     s:2540
         1 001335   000012 236100                    LDQ     10,,PR0
         1 001336   377770 376007                    ANQ     131064,DL
         1 001337   012310 116007                    CMPQ    5320,DL
         1 001340   001377 601000 1                  TNZ     s:2548
         1 001341   200013 235100                    LDA     SYSID,,AUTO
         1 001342   000007 115007                    CMPA    7,DL
         1 001343   001377 601000 1                  TNZ     s:2548

      286     2539    3        OR B$JIT.ERR.CODE=%E$BDATTR AND SYSID=JG_PIG# THEN DO;

      287     2540    3         B$JIT.ERR='0'B;

   2540  1 001344   000012 450100                    STZ     10,,PR0

      288     2541    3         CALL FRZ$GETRES(F$DCB.RES,F$DCB.ATTR,SYSID,

   2541  1 001345   200012 631500                    EPPR1   RAT$,,AUTO
         1 001346   200024 451500                    STP1    MODE+8,,AUTO
         1 001347   200014 633500                    EPPR3   MODE,,AUTO
         1 001350   200023 453500                    STP3    MODE+7,,AUTO
         1 001351   200013 634500                    EPPR4   SYSID,,AUTO
         1 001352   200022 454500                    STP4    MODE+6,,AUTO
         1 001353   200005 236100                    LDQ     JDCB$,,AUTO
         1 001354   000014 036000 2                  ADLQ    12
         1 001355   200021 756100                    STQ     MODE+5,,AUTO
         1 001356   200005 236100                    LDQ     JDCB$,,AUTO
         1 001357   000026 036003                    ADLQ    22,DU
         1 001360   200020 756100                    STQ     MODE+4,,AUTO
         1 001361   200020 630500                    EPPR0   MODE+4,,AUTO
PL6.E3A0      #001=FMN$SETX File=FMN$OPNDP.:E05TSI                               TUE 07/29/97 16:52 Page:50
         1 001362   000023 631400 xsym               EPPR1   B_VECTNIL+19
         1 001363   000000 701000 xent               TSX1    FRZ$GETRES
         1 001364   001320 702000 1                  TSX2    RETALT

      289     2542    3           MODE,RAT$)ALTRET(RETALT);
      290     2543    3         FR$RAT.RES.RFLG.OLT='1'B;

   2543  1 001365   200012 470500                    LDP0    RAT$,,AUTO
         1 001366   020000 236003                    LDQ     8192,DU
         1 001367   000003 256100                    ORSQ    3,,PR0

      291     2544    3         FR$RAT.RES.NUMB=' ';

   2544  1 001370   040040 220003                    LDX0    16416,DU
         1 001371   200012 470500                    LDP0    RAT$,,AUTO
         1 001372   000001 440100                    SXL0    1,,PR0

      292     2545    3         FR$RAT.RES.ACTX=0;

   2545  1 001373   000000 221003                    LDX1    0,DU
         1 001374   200012 470500                    LDP0    RAT$,,AUTO
         1 001375   000002 441100                    SXL1    2,,PR0

      293     2546    3         GOTO COMMON;

   2546  1 001376   000756 710000 1                  TRA     COMMON

      294     2547    3         END;
      295     2548    2      ALTRETURN;

   2548  1 001377   200016 221300                    LDX1  ! MODE+2,,AUTO
         1 001400   000000 702211                    TSX2  ! 0,X1

FMN$E$XCLSET
 Sect OctLoc
   0     000   061516 002172                                                    1..z

PL6.E3A0      #001=FMN$SETX File=FMN$OPNDP.:E05TSI                               TUE 07/29/97 16:52 Page:51
FMN$E$SETDOWN
 Sect OctLoc
   0     001   061516 002202                                                    1...

FMN$E$BADVOL
 Sect OctLoc
   0     002   061516 001532                                                    1...

FMN$E$NOTAUTH
 Sect OctLoc
   0     003   061516 006252                                                    1...

FMN$E$SPLITRES
 Sect OctLoc
   0     004   061516 002222                                                    1...

(unnamed)
 Sect OctLoc
   0     005   104120 040040                                                    DP

(unnamed)
 Sect OctLoc
   2     000   000007 777770   000000 006000   000005 006000   000003 006000    ................
   2     004   000006 006000   000003 006000   000000 000016   000006 006000    ................
   2     010   767777 777777   777777 777757   777777 777077   000000 006000    ...........?....
   2     014   000040 400000                                                    . ..
      296     2549    2   END READVID0;
      297     2550    1   END FMN$SETX;
      298     2551        %EOD;

PL6.E3A0      #001=FMN$SETX File=FMN$OPNDP.:E05TSI                               TUE 07/29/97 16:52 Page:52
--  Include file information  --

   JG_GHOSTS_C.:E05TOU  is referenced.
   CP_6_SUBS.:E05TOU  is referenced.
   UD_ERRORS_C.:E05TOU  is referenced.
   FR_ERRORS_C.:E05TOU  is referenced.
   F_ERRORS_C.:E05TOU  is referenced.
   NI$TABLES.:E05TOU  is referenced.
   FR$RAT.:E05TOU  is referenced.
   FM$MACROS.:E05TOU  is referenced.
   F$DCB.:E05TOU  is referenced.
   B$JIT_C.:E05TOU  is referenced.
   F$JIT_C.:E05TOU  cannot be made into a system file and is referenced.
      No diagnostics issued in procedure FMN$SETX.
PL6.E3A0      #001=FMN$SETX File=FMN$OPNDP.:E05TSI                               TUE 07/29/97 16:52 Page:53

 **** Variables and constants ****

  ****  Section 000 RoData FMN$SETX

  ****  Scalars and arrays  ****
OctLoc.c.b A Datatyp(siz) R M Lvl/name                 OctLoc.c.b A Datatyp(siz) R M Lvl/name

     2-0-0/b STRC        r     1 FMN$E$BADVOL               3-0-0/b STRC        r     1 FMN$E$NOTAUTH
     1-0-0/b STRC        r     1 FMN$E$SETDOWN              4-0-0/b STRC        r     1 FMN$E$SPLITRES
     0-0-0/b STRC        r     1 FMN$E$XCLSET

  ****  Auto variables  ****

  ****  Scalars and arrays  ****
OctLoc.c.b A Datatyp(siz) R M Lvl/name                 OctLoc.c.b A Datatyp(siz) R M Lvl/name

     3-0-0/w PTR         r     1 @PSN                       4-0-0/w UBIN        r     1 I
     4-0-0/w STRC        r     1 IC                         6-0-0/w UBIN        r     1 J
     5-0-0/w PTR         r     1 JDCB$                     14-0-0/w UBIN        r     1 MODE
    *0-0-0/c CHAR(6)     r     1 PSN                       12-0-0/w PTR         r     1 RAT$
    13-0-0/w UBIN        r     1 SYSID                      7-0-0/w PTR         r     1 VID$
    10-0-0/w PTR         r     1 VID0$                     11-0-0/w UBIN        r     1 VOL

  ****  SYMREF variables  ****

  ****  Scalars and arrays  ****
OctLoc.c.b A Datatyp(siz) R M Lvl/name                 OctLoc.c.b A Datatyp(siz) R M Lvl/name

     0-0-0/w PTR         r     1 B$JIT$                     0-0-0/w PTR         r     1 F$CFU$
     0-0-0/w PTR         r     1 FM$SET$                    0-0-0/w UBIN        r     1 FM_GPSDA
     0-0-0/w UBIN        r     1 FM_PADSDA                  0-0-0/w UBIN        r     1 FM_SRZERO
     0-0-0/w PTR         r     1 N$DCT$$

  ****  BASED and DCB variables  ****

  ****  Scalars and arrays  ****
OctLoc.c.b A Datatyp(siz) R M Lvl/name                 OctLoc.c.b A Datatyp(siz) R M Lvl/name
PL6.E3A0      #001=FMN$SETX File=FMN$OPNDP.:E05TSI                               TUE 07/29/97 16:52 Page:54

     0-0-0/d STRC(8856)  r     1 B$JIT                      0-0-0/c CHAR(4)     r     1 CHAR4
     0-0-0/w STRC(396)   r     1 CODE04                     0-0-0/w STRC(288)   r     1 CODE14
     0-0-0/d ASTR(3528)  r     1 F$DCB                      0-0-0/w STRC(288)   r     1 FM$CFUX
     0-0-0/w STRC(288)   r     1 FM$DEV(0:0)                0-0-0/w STRC(180)   r     1 FM$GRAN
     0-0-0/w STRC(288)   r     1 FM$SET(0:0)                0-0-0/w STRC(288)   r     1 FM$VOL(0:0)
     0-0-0/w STRC(324)   r     1 FR$RAT                     0-0-0/w PTR         r     1 N$DCT$(0:0)
     0-0-0/w STRC(1332)  r     1 NI$DCT                     0-0-0/w STRC(36864) r     1 VID
     0-0-0/w STRC(36864) r     1 VID0


   Procedure FMN$SETX requires 769 words for executable code.
   Procedure FMN$SETX requires 22 words of local(AUTO) storage.
PL6.E3A0      #001=FMN$SETX File=FMN$OPNDP.:E05TSI                               TUE 07/29/97 16:52 Page:55
          *** CROSS REFERENCE LISTING ***
**     DENOTES     IDENTIFIER DEFINITION
<<                 IDENTIFIER'S VALUE SET
>>                 IDENTIFIER'S VALUE USED
<>                 IDENTIFIER SET AND/OR USED
--                 IDENTIFIER REFERENCED
PL6.E3A0      #001=FMN$SETX File=FMN$OPNDP.:E05TSI                               TUE 07/29/97 16:52 Page:56
          MINI XREF LISTING

B$JIT.DCB$
       432**DCL      2352>>ASSIGN
B$JIT.ERR
       342**DCL      2394<<ASSIGN   2431<<ASSIGN   2432<<ASSIGN   2434<<ASSIGN   2455>>IF       2455<<ASSIGN
      2518>>IF       2524<<ASSIGN   2531>>IF       2533<<ASSIGN   2535<<ASSIGN   2540<<ASSIGN
B$JIT.ERR.CODE
       343**DCL      2538>>IF       2538>>IF
B$JIT.ERR.MID
       343**DCL       343--REDEF
B$JIT.MODE
       337**DCL      2459>>ASSIGN
B$JIT.SYSID
       342**DCL      2359>>IF       2359>>IF       2371>>ASSIGN   2399>>IF       2413>>IF       2415>>IF
      2460>>ASSIGN   2496>>IF
B$JIT$
      2318**DCL       337--IMP-PTR  2352>>ASSIGN   2359>>IF       2359>>IF       2371>>ASSIGN   2394>>ASSIGN
      2399>>IF       2413>>IF       2415>>IF       2431>>ASSIGN   2432>>ASSIGN   2434>>ASSIGN   2455>>IF
      2455>>ASSIGN   2459>>ASSIGN   2460>>ASSIGN   2496>>IF       2518>>IF       2524>>ASSIGN   2531>>IF
      2533>>ASSIGN   2535>>ASSIGN   2538>>IF       2538>>IF       2540>>ASSIGN
CHAR4
      2347**DCL      2417>>IF
CODE04.GAC.TIME
       961**DCL      2386>>ASSIGN
CODE14.ACCESS.GACSHELF
       969**DCL      2389>>ASSIGN
CODE14.ACCESS.WCDATA
       968**DCL      2390>>ASSIGN
CODE14.ACCESS.WRCMP
       968**DCL      2390>>ASSIGN
COMMON IN PROCEDURE READVID0
      2469**LABEL    2465--GOTO     2546--GOTO
F$CFU$
PL6.E3A0      #001=FMN$SETX File=FMN$OPNDP.:E05TSI                               TUE 07/29/97 16:52 Page:57
      2320**DCL       939--IMP-PTR  2355>>ASSIGN   2411>>ASSIGN
F$DCB.ACTPOS
       522**DCL       522--REDEF
F$DCB.ARS
       497**DCL       497--REDEF
F$DCB.ATTR
       515**DCL       516--REDEF    2482<<ASSIGN   2541<>CALL
F$DCB.BORROW
       530**DCL       530--REDEF     530--REDEF     530--REDEF
F$DCB.CSEED
       534**DCL      2471<<ASSIGN
F$DCB.DCBNAME.L
       544**DCL       544--IMP-SIZ
F$DCB.EOMCHAR
       501**DCL       501--REDEF
F$DCB.FLDID
       525**DCL       525--REDEF
F$DCB.FORM$
       519**DCL       519--REDEF
F$DCB.FSECT
       535**DCL       535--REDEF
F$DCB.FSN
       512**DCL       512--REDEF     512--REDEF     513--REDEF
F$DCB.FUN
       511**DCL      2415>>IF
F$DCB.HEADER$
       518**DCL       518--REDEF
F$DCB.IASN
       538**DCL      2359>>IF       2393>>IF       2432>>IF       2481>>IF       2538>>IF
F$DCB.IXTNSIZE
       516**DCL       516--REDEF
F$DCB.LASTSTA$
       506**DCL       506--REDEF
F$DCB.LVL
       531**DCL       531--REDEF
F$DCB.NAME.C
PL6.E3A0      #001=FMN$SETX File=FMN$OPNDP.:E05TSI                               TUE 07/29/97 16:52 Page:58
       506**DCL       506--REDEF
F$DCB.NOEOF
       527**DCL       527--REDEF
F$DCB.NRECS
       517**DCL       517--REDEF
F$DCB.NRECX
       536**DCL       536--REDEF
F$DCB.OHDR
       528**DCL       528--REDEF
F$DCB.ORG
       511**DCL       511--REDEF
F$DCB.PRECNO
       534**DCL       534--REDEF
F$DCB.PSN
       507**DCL      2451<<CALLBLT
F$DCB.RCSZ
       539**DCL       539--REDEF
F$DCB.RES
       507**DCL       507--REDEF    2480<<ASSIGN   2541<>CALL
F$DCB.RESNT.TYP
       507**DCL      2480>>IF
F$DCB.SETX
       519**DCL       519--REDEF    2353<<ASSIGN   2381<<ASSIGN   2405<<ASSIGN   2436<<ASSIGN   2472<<ASSIGN
      2474>>DOWHILE  2475<<ASSIGN   2477<<ASSIGN   2482>>ASSIGN   2487>>DOWHILE  2493>>ASSIGN   2514<<ASSIGN
      2519>>IF
F$DCB.TAB$
       518**DCL       519--REDEF
F$DCB.TDA
       533**DCL       533--REDEF
F$DCB.WSN
       508**DCL       508--REDEF
FAG$CGRANS
      2330**DCL-ENT  2393--CALL
FM$CFUX.DSETH
       940**DCL      2411>>ASSIGN
FM$CFUX.SETH
PL6.E3A0      #001=FMN$SETX File=FMN$OPNDP.:E05TSI                               TUE 07/29/97 16:52 Page:59
       940**DCL      2355>>ASSIGN
FM$DEV.AVR
       928**DCL      2404<<ASSIGN   2413>>IF
FM$DEV.DCTX
       927**DCL      2421>>IF
FM$DEV.DEVL
       929**DCL      2424>>ASSIGN
FM$DEV.MIRROR
       928**DCL      2415>>IF
FM$DEV.SECTL
       929**DCL      2415>>IF
FM$DEV.USERLIST
       928**DCL       929--REDEF
FM$DEV.VSN
       927**DCL      2417>>IF       2417--IF       2476>>IF
FM$GRAN
       974**DCL      2384--ASSIGN   2387--ASSIGN
FM$SET
       922**DCL      2401<>CALL     2403<>CALL     2454<>CALL
FM$SET.DCTX
       922**DCL      2367>>IF       2367>>IF       2367>>IF       2398>>ASSIGN   2440>>ASSIGN   2461>>ASSIGN
      2473>>ASSIGN   2486>>ASSIGN
FM$SET.DIAGOPN
       923**DCL      2370<<ASSIGN   2454>>IF
FM$SET.GACSHELF
       923**DCL      2389<<ASSIGN
FM$SET.GACTIME
       924**DCL      2386<<ASSIGN
FM$SET.NXTSDA
       924**DCL      2379<<ASSIGN   2379>>ASSIGN   2464<<ASSIGN   2519>>IF
FM$SET.ONEU
       923**DCL      2369<<ASSIGN
FM$SET.PSN
       922**DCL      2357>>IF
FM$SET.SET
       922**DCL      2367>>IF       2382<<ASSIGN   2397>>IF
PL6.E3A0      #001=FMN$SETX File=FMN$OPNDP.:E05TSI                               TUE 07/29/97 16:52 Page:60
FM$SET.SETL
       924**DCL      2409>>ASSIGN
FM$SET.SYSID
       923**DCL      2359>>IF       2359>>IF       2362>>IF       2370>>IF       2371<<ASSIGN   2399>>IF
      2399>>IF
FM$SET.USERLIST
       923**DCL       923--REDEF
FM$SET.WRCMP
       922**DCL      2390<<ASSIGN
FM$SET.XCL
       922**DCL      2359>>IF
FM$SET$
      2319**DCL       922--IMP-PTR   927--IMP-PTR   933--IMP-PTR  2357>>IF       2359>>IF       2359>>IF
      2359>>IF       2362>>IF       2367>>IF       2367>>IF       2367>>IF       2367>>IF       2369>>ASSIGN
      2370>>IF       2370>>ASSIGN   2371>>ASSIGN   2379>>ASSIGN   2379>>ASSIGN   2382>>ASSIGN   2386>>ASSIGN
      2389>>ASSIGN   2390>>ASSIGN   2397>>IF       2398>>ASSIGN   2399>>IF       2399>>IF       2401>>CALL
      2403>>CALL     2404>>ASSIGN   2409>>ASSIGN   2413>>IF       2415>>IF       2415>>IF       2417>>IF
      2417>>IF       2421>>IF       2423>>IF       2423>>ASSIGN   2424>>ASSIGN   2424>>ASSIGN   2440>>ASSIGN
      2442>>ASSIGN   2449>>ASSIGN   2454>>IF       2454>>CALL     2461>>ASSIGN   2463>>ASSIGN   2464>>ASSIGN
      2473>>ASSIGN   2475>>ASSIGN   2476>>IF       2477>>ASSIGN   2478>>ASSIGN   2486>>ASSIGN   2487>>DOWHILE
      2488>>ASSIGN   2494>>IF       2506>>IF       2519>>IF       2529>>ASSIGN   2530>>ASSIGN
FM$VOL.DCTX
       933**DCL      2424>>ASSIGN   2442>>ASSIGN   2475>>ASSIGN   2477>>ASSIGN   2487>>DOWHILE
FM$VOL.GPSDA
       936**DCL      2530<<ASSIGN
FM$VOL.RGRANS
       936**DCL      2529<<ASSIGN
FM$VOL.SECT#
       933**DCL      2494>>IF       2506>>IF
FM$VOL.SECTL
       935**DCL      2423>>IF       2423>>ASSIGN
FM$VOL.USERLIST
       934**DCL       935--REDEF
FM$VOL.VOLL
       935**DCL      2449>>ASSIGN   2478>>ASSIGN   2488>>ASSIGN
FM$VOL.VSN
PL6.E3A0      #001=FMN$SETX File=FMN$OPNDP.:E05TSI                               TUE 07/29/97 16:52 Page:61
       933**DCL      2463>>ASSIGN
FMD$GETBUF
      2331**DCL-ENT  2373--CALL     2374--CALL
FMD$RELBUF
      2332**DCL-ENT  2391--CALL     2392--CALL     2452--CALL     2453--CALL
FMN$E$BADVOL
      2288**DCL      2524>>ASSIGN   2533>>ASSIGN
FMN$E$NOTAUTH
      2292**DCL      2432>>ASSIGN
FMN$E$SETDOWN
      2284**DCL      2431>>ASSIGN   2455>>ASSIGN
FMN$E$SPLITRES
      2296**DCL      2535>>ASSIGN
FMN$E$XCLSET
      2280**DCL      2434>>ASSIGN
FMN$RDGRAN
      2333**DCL-ENT  2383--CALL     2515--CALL
FMNE$BADVOL IN PROCEDURE READVID0
      2533**LABEL    2468--GOTO     2490--GOTO
FMNE$SETDOWN
      2431**LABEL    2362--GOTO
FMNE$SPLITRES IN PROCEDURE READVID0
      2535**LABEL    2500--GOTO
FMNE$XCLSET
      2434**LABEL    2363--GOTO     2400--GOTO
FMO$LOCCODP
      2334**DCL-ENT  2385--CALL     2388--CALL
FMP$UDLIST
      2338**DCL-ENT  2454--CALL
FMP$ULIST
      2337**DCL-ENT  2401--CALL     2403--CALL
FMR$L8
      2335**DCL-ENT  2354--CALL     2395--CALL
FMR$U8
      2336**DCL-ENT  2372--CALL     2406--CALL     2437--CALL
FM_GPSDA
PL6.E3A0      #001=FMN$SETX File=FMN$OPNDP.:E05TSI                               TUE 07/29/97 16:52 Page:62
      2325**DCL      2530>>ASSIGN
FM_PADSDA
      2324**DCL      2383<>CALL
FM_SRZERO
      2323**DCL      2464>>ASSIGN   2515<>CALL     2519>>IF
FR$RAT
      1032**DCL      2447<>CALL
FR$RAT.FLG.MBIT
      1059**DCL      2445<<ASSIGN
FR$RAT.FLG.MBIT.MTD
      1060**DCL      2497<<ASSIGN
FR$RAT.FLG.OPN
      1064**DCL      2444<<ASSIGN   2494>>IF       2498<<ASSIGN
FR$RAT.M1
      1054**DCL      2482>>ASSIGN
FR$RAT.REEL.ASID
      1052**DCL      2446<<ASSIGN
FR$RAT.RES.ACTX
      1038**DCL      2545<<ASSIGN
FR$RAT.RES.NUMB
      1036**DCL      2544<<ASSIGN
FR$RAT.RES.RFLG.OLT
      1041**DCL      2447>>IF       2543<<ASSIGN
FR$RAT.RES.SISID
      1035**DCL      2443>>IF       2496>>IF       2506>>IF
FRA$OPR
      2339**DCL-ENT  2484--CALL     2495--CALL
FRZ$GETRES
      2340**DCL-ENT  2541--CALL
FRZ$RRESNA
      2342**DCL-ENT  2447--CALL
GOTONE
      2358**LABEL    2414--GOTO     2420--GOTO     2422--GOTO
I
      2303**DCL      2304--REDEF    2355<<ASSIGN   2356>>DOWHILE  2357>>IF       2359>>IF       2359>>IF
      2359>>IF       2362>>IF       2367>>IF       2367>>IF       2367>>IF       2369>>ASSIGN   2370>>IF
PL6.E3A0      #001=FMN$SETX File=FMN$OPNDP.:E05TSI                               TUE 07/29/97 16:52 Page:63
      2370>>ASSIGN   2371>>ASSIGN   2379>>ASSIGN   2379>>ASSIGN   2381>>ASSIGN   2382>>ASSIGN   2386>>ASSIGN
      2389>>ASSIGN   2390>>ASSIGN   2397>>IF       2398>>ASSIGN   2403>>CALL     2404>>ASSIGN   2405>>ASSIGN
      2409<<ASSIGN   2409>>ASSIGN   2411<<ASSIGN   2412>>DOWHILE  2413>>IF       2415>>IF       2415>>IF
      2417>>IF       2417>>IF       2421>>IF       2421>>IF       2421>>IF       2423>>IF       2423<<ASSIGN
      2423>>ASSIGN   2424<<ASSIGN   2424>>ASSIGN   2436>>ASSIGN   2440>>ASSIGN   2454>>IF       2454>>CALL
      2461>>ASSIGN   2464>>ASSIGN   2473>>ASSIGN   2486>>ASSIGN
IC.DCTX
      2306**DCL      2417>>IF
J
      2308**DCL      2375<<ASSIGN   2377<<DOINDEX  2379>>ASSIGN   2398<<ASSIGN   2399>>IF       2399>>IF
      2401>>CALL     2451>>IF       2467>>ASSIGN   2475>>IF       2476>>IF       2516>>IF       2519>>IF
      2519>>IF       2519>>IF
JDCB$
      2307**DCL       497--IMP-PTR  2352<<ASSIGN   2353>>ASSIGN   2359>>IF       2381>>ASSIGN   2393>>IF
      2405>>ASSIGN   2415>>IF       2432>>IF       2436>>ASSIGN   2451>>CALLBLT  2471>>ASSIGN   2472>>ASSIGN
      2474>>DOWHILE  2475>>ASSIGN   2477>>ASSIGN   2480>>IF       2480>>ASSIGN   2481>>IF       2482>>ASSIGN
      2482>>ASSIGN   2487>>DOWHILE  2493>>ASSIGN   2514>>ASSIGN   2519>>IF       2538>>IF       2541>>CALL
      2541>>CALL
MODE
      2314**DCL      2447<>CALL     2459<<ASSIGN   2541<>CALL
N$DCT$
      2322**DCL      2421>>IF       2442>>ASSIGN   2482>>ASSIGN   2493>>ASSIGN
N$DCT$$
      2321**DCL      2322--IMP-PTR  2421>>IF       2442>>ASSIGN   2482>>ASSIGN   2493>>ASSIGN
NI$DCT.DEVNM
      1295**DCL      2421>>IF
NI$DCT.DP
      1315**DCL      1322--REDEF    1325--REDEF    1326--REDEF    1328--REDEF    1328--REDEF    1329--REDEF
      1330--REDEF    1330--REDEF
NI$DCT.MPC.IOCHANX
      1323**DCL      1323--REDEF
NI$DCT.RAT$
      1296**DCL      2442>>ASSIGN   2482>>ASSIGN   2493>>ASSIGN
PSN
      2302**DCL        14--PROC     2356>>IF       2357>>IF       2412>>IF       2413>>IF       2417>>IF
      2417>>IF       2421>>IF       2432>>IF
PL6.E3A0      #001=FMN$SETX File=FMN$OPNDP.:E05TSI                               TUE 07/29/97 16:52 Page:64
RAT$
      2312**DCL      1032--IMP-PTR  2442<<ASSIGN   2443>>IF       2444>>ASSIGN   2445>>ASSIGN   2446>>ASSIGN
      2447>>IF       2447>>CALL     2493<<ASSIGN   2494>>IF       2496>>IF       2497>>ASSIGN   2498>>ASSIGN
      2506>>IF       2541<>CALL     2543>>ASSIGN   2544>>ASSIGN   2545>>ASSIGN
READVID IN PROCEDURE READVID0
      2466**ENTRY    2378--CALL
READVID0
      2458**PROC     2376--CALL
RETALT
      2432**LABEL    2401--CALLALT  2403--CALLALT  2433--GOTO
RETALT IN PROCEDURE READVID0
      2531**LABEL    2484--CALLALT  2495--CALLALT  2541--CALLALT
RETALTREL
      2436**LABEL    2376--CALLALT  2378--CALLALT
SC_SETRES
      2343**DCL-ENT  2507--CALL
SYSID
      2313**DCL      2443>>IF       2460<<ASSIGN   2481>>IF       2506>>IF       2538>>IF       2538>>IF
      2541<>CALL
VID
       944**DCL      2516>>ASSIGN
VID.DTT
       946**DCL       946--REDEF
VID.PSN
       944**DCL      2519>>IF
VID.SNLIST
       947**DCL      2519>>IF       2519>>IF
VID.SNLIST.SIZE
       947**DCL      2379>>ASSIGN   2519>>IF
VID.VOLCNT
       944**DCL      2469<<ASSIGN   2519>>IF
VID.VSN
       944**DCL      2451>>CALLBLT  2462<<ASSIGN   2463<<ASSIGN   2467<<ASSIGN   2468>>IF       2471>>ASSIGN
VID$
      2309**DCL       944--IMP-PTR  2374<>CALL     2379>>ASSIGN   2383<>CALL     2384>>ASSIGN   2387>>ASSIGN
      2451>>CALLBLT  2462>>ASSIGN   2463>>ASSIGN   2467>>ASSIGN   2468>>IF       2469>>ASSIGN   2471>>ASSIGN
PL6.E3A0      #001=FMN$SETX File=FMN$OPNDP.:E05TSI                               TUE 07/29/97 16:52 Page:65
      2515<>CALL     2516>>ASSIGN   2519>>IF       2519>>IF       2519>>IF       2519>>IF       2519>>IF
VID0
       950**DCL      2516<<ASSIGN
VID0.DTT
       952**DCL       952--REDEF
VID0.PSN
       950**DCL      2519>>IF
VID0.SNLIST
       953**DCL      2519>>IF       2519>>IF
VID0.SNLIST.VSN
       953**DCL      2476>>IF
VID0.SNLIST.VSN.N
       953**DCL      2467>>ASSIGN
VID0.VOLCNT
       950**DCL      2377>>DOINDEX  2519>>IF
VID0$
      2310**DCL       950--IMP-PTR   958--IMP-PTR   966--IMP-PTR  2373<>CALL     2377>>DOINDEX  2384<<ASSIGN
      2385<>CALL     2386>>ASSIGN   2387<<ASSIGN   2388<>CALL     2389>>ASSIGN   2390>>ASSIGN   2390>>ASSIGN
      2467>>ASSIGN   2476>>IF       2516>>ASSIGN   2519>>IF       2519>>IF       2519>>IF       2519>>IF
VOL
      2311**DCL      2440<<ASSIGN   2441>>DOWHILE  2442>>ASSIGN   2449<<ASSIGN   2449>>ASSIGN   2461<<ASSIGN
      2462>>IF       2463>>ASSIGN   2473<<ASSIGN   2474>>DOWHILE  2475>>ASSIGN   2476>>IF       2477>>ASSIGN
      2478<<ASSIGN   2478>>ASSIGN   2481>>IF       2483>>IF       2486<<ASSIGN   2487>>DOWHILE  2487>>DOWHILE
      2488<<ASSIGN   2488>>ASSIGN   2490>>IF       2494>>IF       2506>>IF       2514>>ASSIGN   2529>>ASSIGN
      2530>>ASSIGN

PL6.E3A0      #002=FMN$AVR File=FMN$OPNDP.:E05TSI                                TUE 07/29/97 16:52 Page:66
      299        1        /*T***********************************************************/
      300        2        /*T*                                                         */
      301        3        /*T* Copyright (c) Bull HN Information Systems Inc., 1997    */
      302        4        /*T*                                                         */
      303        5        /*T***********************************************************/
      304        6                    /*F*     NAME: FMN$AVR
      305        7                    *        PURPOSE: To respond to the special interrupt for disks.
      306        8                    *        DESCRIPTION: When a diskpack is loaded or unloaded, it
      307        9                    *        generates an interrupt, which IOQ sends to FMN$AVR to
      308       10                    *        inform the world. It sets FM$DEV.AVR(DCTX) if the 'upness'
      309       11                    *        of the device has changed, inverting FM$DEV.SPIN(DCTX),
      310       12                    *        and writing an AVR message to PIG through the CSCG if PIG
      311       13                    *        is running.
      312       14                    *        (see FMN$OPNDP).
      313       15                    *        CALL: CALL FMN$AVR(DCTX,STATUS);
      314       16                    */
      315       17        FMN$AVR: PROC(DCTX_PRM,STATUS);
      316       18        %INCLUDE FM$MACROS;
      317      393        %FM$DEV(BASED="BASED(DEV$)", ARY=);
      318      399        %FM$DEV(FM$DEV=FM$DEVARRAY,BASED="BASED(FM$SET$)");
      319      405        %INCLUDE JG_GHOSTS_C;
      320      495        %INCLUDE B$USER;
      321      711        %B$USERREFS;
      322      715        %INCLUDE SS_SCHED_C;
      323      948        %INCLUDE OCI_SUBS_C;
      324     1046        %INCLUDE NI$TABLES;
      325     1262        %NI$DCT;
      326     1310    1   DCL N$DCT$$ PTR SYMREF;
      327     1311    1   DCL N$DCT$(0:0) PTR BASED(N$DCT$$);
      328     1312        %INCLUDE FR$RAT;
      329     1365        %FR$RAT(NAME=BRAT);
      330     1405        %INCLUDE NI_DATA_C;
      331     1518    1   DCL KUW$WRITE ENTRY(3) ALTRET;
      332     1519    1   DCL 1 STATUS ALIGNED,
      333     1520    1         2 * BIT(18),
      334     1521    1         2 CODE UBIN(18)UNAL;
      335     1522    1   DCL DCTX_PRM UBIN(15) UNAL;
PL6.E3A0      #002=FMN$AVR File=FMN$OPNDP.:E05TSI                                TUE 07/29/97 16:52 Page:67
      336     1523    1   DCL DEV$ PTR;
      337     1524    1   DCL RAT$ PTR;
      338     1525        %FR$RAT(NAME=ARAT,STCLASS=AUTO);
      339     1565    1   DCL DCTX SBIN;
      340     1566    1   DCL N_DCTXMAX SBIN SYMREF ALIGNED; /* Max DCTX index */
      341     1567    1   DCL FM$SET$ PTR SYMREF READONLY;
      342     1568    1   DCL FM_GCT UBIN SYMREF;
      343     1569        %JG_GHOSTS(STCLASS=SYMREF);
      344     1607    1   DCL 1 AVRM CONSTANT,
      345     1608    1         2 * BIT(18)INIT('0'B),
      346     1609    1         2 * BIT(18)INIT(K_DISK),
      347     1610    1         2 * CHAR(6)INIT(' ');
      348     1611
      349     1612                    /* Procedure */
      350     1613
      351     1614    2   INHIB: DO INHIBIT;
      352     1615    2         IF FM_GCT=0 THEN EXIT; /* Ignore it if not initialized yet */
      353     1616    2         DCTX=DCTX_PRM ;
      354     1617    2         IF DCTX=0 OR DCTX>N_DCTXMAX THEN EXIT; /* Bad DCTX */
      355     1618    2         DEV$=ADDR(FM$DEVARRAY(DCTX)) ;
      356     1619    2         IF DCTX~=FM$DEV.DCTX THEN EXIT; /* Bad DCTX */
      357     1620    2         IF STATUS.CODE=0 THEN EXIT;
      358     1621    3         IF FM$DEV.SPIN THEN DO;
      359     1622    3            IF STATUS.CODE=%NI_AVR_READY THEN EXIT INHIB;
      360     1623    3            IF STATUS.CODE=%NI_AVR_MIRROR THEN FM$DEV.MRRCHK='1'B;
      361     1624    3            ELSE FM$DEV.SPIN='0'B;
      362     1625    3            END;
      363     1626    3         ELSE DO;
      364     1627    3            IF STATUS.CODE=%NI_AVR_MIRROR THEN FM$DEV.MRRCHK='1'B;
      365     1628    3            ELSE IF STATUS.CODE~=%NI_AVR_READY THEN EXIT INHIB;
      366     1629    3            FM$DEV.SPIN='1'B;
      367     1630    3            END;
      368     1631    2         FM$DEV.AVR='1'B;
      369     1632    2         IF B$USRT$->B$USER.US(JG_PIG#)~=%SS_SNULL
      370     1633    2         THEN CALL KUW$WRITE(AVRM,10,J_PIG);
      371     1634    2         END;
      372     1635    1      RETURN;
PL6.E3A0      #002=FMN$AVR File=FMN$OPNDP.:E05TSI                                TUE 07/29/97 16:52 Page:68
      373     1636        %EJECT;
PL6.E3A0      #002=FMN$AVR File=FMN$OPNDP.:E05TSI                                TUE 07/29/97 16:52 Page:69
      374     1637    1   FMN$MRRSWITCH: ENTRY(DCTX_PRM);
      375     1638                    /*F*     NAME: FMN$MRRSWITCH
      376     1639                    *        PURPOSE: To switch the primary and secondary of a mirror pair.
      377     1640                    *        DESCRIPTION: If the primary device of a mirror pair fails, it
      378     1641                    *        becomes necessary to make file management think the files are
      379     1642                    *        really on the secondary device, so that it will use that DCTX
      380     1643                    *        when talking about the device to NI routines.  All that's
      381     1644                    *        required is to hook the FM$VOL chain to the secondary's FM$DEV
      382     1645                    *        instead of the primary's, and change all the FM$VOL.DCTX's in
      383     1646                    *        the chain to point to the secondary device.
      384     1647                    *        CALL: CALL FMN$MRRSWITCH (DCTX-UNAL-UBIN15);
      385     1648                    */
      386     1649    2      DO INHIBIT;
      387     1650    2         DEV$=ADDR(FM$DEVARRAY(DCTX_PRM));
      388     1651    2         DCTX=FM$DEV.MRRDCTX;
      389     1652    2         IF DCTX=0 THEN
      390     1653    2            DCTX=N$DCT$(DCTX_PRM)->NI$DCT.DP.MIRROR.DCTX;
      391     1654    2         RAT$=N$DCT$(DCTX)->NI$DCT.RAT$;
      392     1655    2         ARAT=RAT$->BRAT;
      393     1656    2         ARAT.LNK$=N$DCT$(FM$DEV.DCTX)->NI$DCT.RAT$;
      394     1657    2         RAT$->BRAT.RES=ARAT.LNK$->BRAT.RES;
      395     1658    2         RAT$->BRAT.REEL=ARAT.LNK$->BRAT.REEL;
      396     1659    2         ARAT.LNK$->BRAT.FLG.OPN=ARAT.FLG.OPN;
      397     1660    2         ARAT.LNK$->BRAT.FLG.MBIT=ARAT.FLG.MBIT;
      398     1661    2         ARAT.LNK$->BRAT.RES=ARAT.RES;
      399     1662    2         ARAT.LNK$->BRAT.REEL=ARAT.REEL;
      400     1663    2         FM$DEVARRAY.SECTL(DCTX)=FM$DEV.SECTL;
      401     1664    2         FM$DEV.SECTL=0;
      402     1665    2         DEV$=ADDR(FM$DEVARRAY(DCTX));
      403     1666    3         DO WHILE '1'B;
      404     1667    3            IF FM$DEV.SECTL=0 THEN EXIT;
      405     1668    3            DEV$=ADDR(FM$DEVARRAY(FM$DEV.SECTL));
      406     1669    3            FM$DEV.DCTX=DCTX;
      407     1670    3            END;
      408     1671    2         END;
      409     1672    1      RETURN;
      410     1673    1   END FMN$AVR;
PL6.E3A0      #002=FMN$AVR File=FMN$OPNDP.:E05TSI                                TUE 07/29/97 16:52 Page:70
      411     1674        %EOD;

PL6.E3A0      #002=FMN$AVR File=FMN$OPNDP.:E05TSI                                TUE 07/29/97 16:52 Page:71
--  Include file information  --

   NI_DATA_C.:E05TOU  is referenced.
   FR$RAT.:E05TOU  is referenced.
   NI$TABLES.:E05TOU  is referenced.
   OCI_SUBS_C.:E05TOU  is referenced.
   SS_SCHED_C.:E05TOU  is referenced.
   B$USER.:E05TOU  cannot be made into a system file and is referenced.
   JG_GHOSTS_C.:E05TOU  is referenced.
   FM$MACROS.:E05TOU  is referenced.
      No diagnostics issued in procedure FMN$AVR.

   Procedure FMN$AVR requires 140 words for executable code.
   Procedure FMN$AVR requires 20 words of local(AUTO) storage.

PL6.E3A0      #002=FMN$AVR File=FMN$OPNDP.:E05TSI                                TUE 07/29/97 16:52 Page:72

 Object Unit name= FMN$AVR                                    File name= FMN$OPNDP.:E05TOU
 UTS= JUL 29 '97 16:52:39.08 TUE                              Compiler= PL-6/E31         Sev=      00
 SharedLib= :SHARED_SYSTEM                                    Alt SharedLib=


    ****  Control sections  ****

 Sect   Type Bound  Init  Size OctSiz  Section name(segment info)
    0  RoData even  UTS      3      3  FMN$AVR
    1   Proc  even  none   140    214  FMN$AVR
    2  RoData even  none     5      5  FMN$AVR

    ****  Entry defs  ****

                              Check   Calling
                             calling  sequence
  Sect OctLoc Primary Altret sequence   type   Parms  Name
     1      0   yes            yes      Std        2  FMN$AVR
     1     71                  yes      Std        1  FMN$MRRSWITCH

  ****  Entry refs  ****

         Check        Calling
        calling       sequence
Altret sequence SRef   type   Args  Name
 yes     yes           Std       3 KUW$WRITE
                       nStd      0 X66_AUTO_2
                       Std       0 B_CONSPOOL_D
                       nStd      0 X66_ARET
PL6.E3A0      #002=FMN$AVR File=FMN$OPNDP.:E05TSI                                TUE 07/29/97 16:52 Page:73

  ****  Data refs  ****

  Flags:  r = read only, s = secondary
Flgs Name                             Flgs Name                             Flgs Name
     B$USRT$                               N$DCT$$                               N_DCTXMAX
r    FM$SET$                               FM_GCT                                J_PIG
     B_VECTNIL

  ****  Segment refs  ****

  Flags:  r = read only, s = secondary
Flgs Name                             Flgs Name                             Flgs Name
     ISSID
PL6.E3A0      #002=FMN$AVR File=FMN$OPNDP.:E05TSI                                TUE 07/29/97 16:52 Page:74


      299        1        /*T***********************************************************/
      300        2        /*T*                                                         */
      301        3        /*T* Copyright (c) Bull HN Information Systems Inc., 1997    */
      302        4        /*T*                                                         */
      303        5        /*T***********************************************************/
      304        6                    /*F*     NAME: FMN$AVR
      305        7                    *        PURPOSE: To respond to the special interrupt for disks.
      306        8                    *        DESCRIPTION: When a diskpack is loaded or unloaded, it
      307        9                    *        generates an interrupt, which IOQ sends to FMN$AVR to
      308       10                    *        inform the world. It sets FM$DEV.AVR(DCTX) if the 'upness'
      309       11                    *        of the device has changed, inverting FM$DEV.SPIN(DCTX),
      310       12                    *        and writing an AVR message to PIG through the CSCG if PIG
      311       13                    *        is running.
      312       14                    *        (see FMN$OPNDP).
      313       15                    *        CALL: CALL FMN$AVR(DCTX,STATUS);
      314       16                    */
      315       17        FMN$AVR: PROC(DCTX_PRM,STATUS);

     17  1 000000   000000 700200 xent  FMN$AVR      TSX0  ! X66_AUTO_2
         1 000001   000024 000002                    ZERO    20,2

      316       18        %INCLUDE FM$MACROS;
      317      393        %FM$DEV(BASED="BASED(DEV$)", ARY=);
      318      399        %FM$DEV(FM$DEV=FM$DEVARRAY,BASED="BASED(FM$SET$)");
      319      405        %INCLUDE JG_GHOSTS_C;
      320      495        %INCLUDE B$USER;
      321      711        %B$USERREFS;
      322      715        %INCLUDE SS_SCHED_C;
      323      948        %INCLUDE OCI_SUBS_C;
      324     1046        %INCLUDE NI$TABLES;
      325     1262        %NI$DCT;
      326     1310    1   DCL N$DCT$$ PTR SYMREF;
      327     1311    1   DCL N$DCT$(0:0) PTR BASED(N$DCT$$);
      328     1312        %INCLUDE FR$RAT;
      329     1365        %FR$RAT(NAME=BRAT);
      330     1405        %INCLUDE NI_DATA_C;
PL6.E3A0      #002=FMN$AVR File=FMN$OPNDP.:E05TSI                                TUE 07/29/97 16:52 Page:75
      331     1518    1   DCL KUW$WRITE ENTRY(3) ALTRET;
      332     1519    1   DCL 1 STATUS ALIGNED,
      333     1520    1         2 * BIT(18),
      334     1521    1         2 CODE UBIN(18)UNAL;
      335     1522    1   DCL DCTX_PRM UBIN(15) UNAL;
      336     1523    1   DCL DEV$ PTR;
      337     1524    1   DCL RAT$ PTR;
      338     1525        %FR$RAT(NAME=ARAT,STCLASS=AUTO);
      339     1565    1   DCL DCTX SBIN;
      340     1566    1   DCL N_DCTXMAX SBIN SYMREF ALIGNED; /* Max DCTX index */
      341     1567    1   DCL FM$SET$ PTR SYMREF READONLY;
      342     1568    1   DCL FM_GCT UBIN SYMREF;
      343     1569        %JG_GHOSTS(STCLASS=SYMREF);
      344     1607    1   DCL 1 AVRM CONSTANT,
      345     1608    1         2 * BIT(18)INIT('0'B),
      346     1609    1         2 * BIT(18)INIT(K_DISK),
      347     1610    1         2 * CHAR(6)INIT(' ');
      348     1611
      349     1612                    /* Procedure */
      350     1613
      351     1614    2   INHIB: DO INHIBIT;

   1614  1 000002                       INHIB        null
      352     1615    2         IF FM_GCT=0 THEN EXIT; /* Ignore it if not initialized yet */

   1615  1 000002   000000 235200 xsym               LDA   ! FM_GCT
         1 000003   000070 600200 1                  TZE   ! s:1635

      353     1616    2         DCTX=DCTX_PRM ;

   1616  1 000004   200003 470700                    LDP0  ! @DCTX_PRM,,AUTO
         1 000005   003100 061700                    CSR   ! bolr='003'O
         1 000006   000000 000017                    BDSC    0,,PR0                   by=0,bit=0,n=15
         1 000007   200020 000044                    BDSC    DCTX,,AUTO               by=0,bit=0,n=36

      354     1617    2         IF DCTX=0 OR DCTX>N_DCTXMAX THEN EXIT; /* Bad DCTX */

PL6.E3A0      #002=FMN$AVR File=FMN$OPNDP.:E05TSI                                TUE 07/29/97 16:52 Page:76
   1617  1 000010   200020 236300                    LDQ   ! DCTX,,AUTO
         1 000011   000070 600200 1                  TZE   ! s:1635
         1 000012   000000 116200 xsym               CMPQ  ! N_DCTXMAX
         1 000013   000070 605600 1                  TPNZ  ! s:1635

      355     1618    2         DEV$=ADDR(FM$DEVARRAY(DCTX)) ;

   1618  1 000014   000025 736200                    QLS   ! 21
         1 000015   000000 036200 xsym               ADLQ  ! FM$SET$
         1 000016   200005 756300                    STQ   ! DEV$,,AUTO

      356     1619    2         IF DCTX~=FM$DEV.DCTX THEN EXIT; /* Bad DCTX */

   1619  1 000017   200005 471700                    LDP1  ! DEV$,,AUTO
         1 000020   100000 236300                    LDQ   ! 0,,PR1
         1 000021   000022 772200                    QRL   ! 18
         1 000022   200020 116300                    CMPQ  ! DCTX,,AUTO
         1 000023   000070 601200 1                  TNZ   ! s:1635

      357     1620    2         IF STATUS.CODE=0 THEN EXIT;

   1620  1 000024   200004 473700                    LDP3  ! @STATUS,,AUTO
         1 000025   300000 720300                    LXL0  ! 0,,PR3
         1 000026   000070 600200 1                  TZE   ! s:1635

      358     1621    3         IF FM$DEV.SPIN THEN DO;

   1621  1 000027   100002 236300                    LDQ   ! 2,,PR1
         1 000030   004000 316203                    CANQ  ! 2048,DU
         1 000031   000044 600200 1                  TZE   ! s:1627

      359     1622    3            IF STATUS.CODE=%NI_AVR_READY THEN EXIT INHIB;

   1622  1 000032   000001 100203                    CMPX0 ! 1,DU
         1 000033   000070 600200 1                  TZE   ! s:1635

      360     1623    3            IF STATUS.CODE=%NI_AVR_MIRROR THEN FM$DEV.MRRCHK='1'B;
PL6.E3A0      #002=FMN$AVR File=FMN$OPNDP.:E05TSI                                TUE 07/29/97 16:52 Page:77

   1623  1 000034   000005 100203                    CMPX0 ! 5,DU
         1 000035   000041 601200 1                  TNZ   ! s:1624

   1623  1 000036   001000 236203                    LDQ   ! 512,DU
         1 000037   100002 256300                    ORSQ  ! 2,,PR1
         1 000040   000055 710200 1                  TRA   ! s:1631

      361     1624    3            ELSE FM$DEV.SPIN='0'B;

   1624  1 000041   000000 236200 2                  LDQ   ! 0
         1 000042   100002 356300                    ANSQ  ! 2,,PR1

      362     1625    3            END;

   1625  1 000043   000055 710200 1                  TRA   ! s:1631

      363     1626    3         ELSE DO;

      364     1627    3            IF STATUS.CODE=%NI_AVR_MIRROR THEN FM$DEV.MRRCHK='1'B;

   1627  1 000044   000005 100203                    CMPX0 ! 5,DU
         1 000045   000051 601200 1                  TNZ   ! s:1628

   1627  1 000046   001000 236203                    LDQ   ! 512,DU
         1 000047   100002 256300                    ORSQ  ! 2,,PR1
         1 000050   000053 710200 1                  TRA   ! s:1629

      365     1628    3            ELSE IF STATUS.CODE~=%NI_AVR_READY THEN EXIT INHIB;

   1628  1 000051   000001 100203                    CMPX0 ! 1,DU
         1 000052   000070 601200 1                  TNZ   ! s:1635

      366     1629    3            FM$DEV.SPIN='1'B;

   1629  1 000053   004000 236203                    LDQ   ! 2048,DU
         1 000054   100002 256300                    ORSQ  ! 2,,PR1
PL6.E3A0      #002=FMN$AVR File=FMN$OPNDP.:E05TSI                                TUE 07/29/97 16:52 Page:78

      367     1630    3            END;

      368     1631    2         FM$DEV.AVR='1'B;

   1631  1 000055   010000 236203                    LDQ   ! 4096,DU
         1 000056   100002 256300                    ORSQ  ! 2,,PR1

      369     1632    2         IF B$USRT$->B$USER.US(JG_PIG#)~=%SS_SNULL

   1632  1 000057   000000 474600 xsym               LDP4  ! B$USRT$
         1 000060   400171 236300                    LDQ   ! 121,,PR4
         1 000061   770000 376203                    ANQ   ! -4096,DU
         1 000062   300000 116203                    CMPQ  ! 98304,DU
         1 000063   000070 600200 1                  TZE   ! s:1635

      370     1633    2         THEN CALL KUW$WRITE(AVRM,10,J_PIG);

   1633  1 000064   000001 630600 2                  EPPR0 ! 1
         1 000065   000021 631600 xsym               EPPR1 ! B_VECTNIL+17
         1 000066   000000 701200 xent               TSX1  ! KUW$WRITE
         1 000067   000000 011200                    NOP   ! 0

      371     1634    2         END;

      372     1635    1      RETURN;

   1635  1 000070   000000 702200 xent               TSX2  ! X66_ARET

      373     1636        %EJECT;
PL6.E3A0      #002=FMN$AVR File=FMN$OPNDP.:E05TSI                                TUE 07/29/97 16:52 Page:79
      374     1637    1   FMN$MRRSWITCH: ENTRY(DCTX_PRM);

   1637  1 000071   000000 700200 xent  FMN$MRRSWIT* TSX0  ! X66_AUTO_2
         1 000072   000024 000002                    ZERO    20,2

      375     1638                    /*F*     NAME: FMN$MRRSWITCH
      376     1639                    *        PURPOSE: To switch the primary and secondary of a mirror pair.
      377     1640                    *        DESCRIPTION: If the primary device of a mirror pair fails, it
      378     1641                    *        becomes necessary to make file management think the files are
      379     1642                    *        really on the secondary device, so that it will use that DCTX
      380     1643                    *        when talking about the device to NI routines.  All that's
      381     1644                    *        required is to hook the FM$VOL chain to the secondary's FM$DEV
      382     1645                    *        instead of the primary's, and change all the FM$VOL.DCTX's in
      383     1646                    *        the chain to point to the secondary device.
      384     1647                    *        CALL: CALL FMN$MRRSWITCH (DCTX-UNAL-UBIN15);
      385     1648                    */
      386     1649    2      DO INHIBIT;

      387     1650    2         DEV$=ADDR(FM$DEVARRAY(DCTX_PRM));

   1650  1 000073   200003 470700                    LDP0  ! @DCTX_PRM,,AUTO
         1 000074   003100 061700                    CSR   ! bolr='003'O
         1 000075   000000 000017                    BDSC    0,,PR0                   by=0,bit=0,n=15
         1 000076   200022 000044                    BDSC    DCTX+2,,AUTO             by=0,bit=0,n=36
         1 000077   200022 236300                    LDQ   ! DCTX+2,,AUTO
         1 000100   000003 736200                    QLS   ! 3
         1 000101   000022 736200                    QLS   ! 18
         1 000102   000000 036200 xsym               ADLQ  ! FM$SET$
         1 000103   200005 756300                    STQ   ! DEV$,,AUTO

      388     1651    2         DCTX=FM$DEV.MRRDCTX;

   1651  1 000104   200005 471700                    LDP1  ! DEV$,,AUTO
         1 000105   100006 235300                    LDA   ! 6,,PR1
         1 000106   200020 755300                    STA   ! DCTX,,AUTO

      389     1652    2         IF DCTX=0 THEN
PL6.E3A0      #002=FMN$AVR File=FMN$OPNDP.:E05TSI                                TUE 07/29/97 16:52 Page:80

   1652  1 000107   000121 601200 1                  TNZ   ! s:1654

      390     1653    2            DCTX=N$DCT$(DCTX_PRM)->NI$DCT.DP.MIRROR.DCTX;

   1653  1 000110   003100 061700                    CSR   ! bolr='003'O
         1 000111   000000 000017                    BDSC    0,,PR0                   by=0,bit=0,n=15
         1 000112   200022 000022                    BDSC    DCTX+2,,AUTO             by=0,bit=0,n=18
         1 000113   200022 220300                    LDX0  ! DCTX+2,,AUTO
         1 000114   000000 473600 xsym               LDP3  ! N$DCT$$
         1 000115   300000 474710                    LDP4  ! 0,X0,PR3
         1 000116   400037 236300                    LDQ   ! 31,,PR4
         1 000117   000022 772200                    QRL   ! 18
         1 000120   200020 756300                    STQ   ! DCTX,,AUTO

      391     1654    2         RAT$=N$DCT$(DCTX)->NI$DCT.RAT$;

   1654  1 000121   000000 473600 xsym               LDP3  ! N$DCT$$
         1 000122   200020 720300                    LXL0  ! DCTX,,AUTO
         1 000123   300000 474710                    LDP4  ! 0,X0,PR3
         1 000124   400005 236300                    LDQ   ! 5,,PR4
         1 000125   200006 756300                    STQ   ! RAT$,,AUTO

      392     1655    2         ARAT=RAT$->BRAT;

   1655  1 000126   200006 475700                    LDP5  ! RAT$,,AUTO
         1 000127   000100 100700                    MLR   ! fill='000'O
         1 000130   500000 000044                    ADSC9   0,,PR5                   cn=0,n=36
         1 000131   200007 000044                    ADSC9   ARAT,,AUTO               cn=0,n=36

      393     1656    2         ARAT.LNK$=N$DCT$(FM$DEV.DCTX)->NI$DCT.RAT$;

   1656  1 000132   100000 221300                    LDX1  ! 0,,PR1
         1 000133   300000 476711                    LDP6  ! 0,X1,PR3
         1 000134   600005 236300                    LDQ   ! 5,,PR6
         1 000135   200007 756300                    STQ   ! ARAT,,AUTO

PL6.E3A0      #002=FMN$AVR File=FMN$OPNDP.:E05TSI                                TUE 07/29/97 16:52 Page:81
      394     1657    2         RAT$->BRAT.RES=ARAT.LNK$->BRAT.RES;

   1657  1 000136   200007 477700                    LDP7  ! ARAT,,AUTO
         1 000137   000100 100700                    MLR   ! fill='000'O
         1 000140   700001 000011                    ADSC9   1,,PR7                   cn=0,n=9
         1 000141   500001 000011                    ADSC9   1,,PR5                   cn=0,n=9

      395     1658    2         RAT$->BRAT.REEL=ARAT.LNK$->BRAT.REEL;

   1658  1 000142   000100 100700                    MLR   ! fill='000'O
         1 000143   700004 000010                    ADSC9   4,,PR7                   cn=0,n=8
         1 000144   500004 000010                    ADSC9   4,,PR5                   cn=0,n=8

      396     1659    2         ARAT.LNK$->BRAT.FLG.OPN=ARAT.FLG.OPN;

   1659  1 000145   200017 236300                    LDQ   ! ARAT+8,,AUTO
         1 000146   700010 676300                    ERQ   ! 8,,PR7
         1 000147   000020 376207                    ANQ   ! 16,DL
         1 000150   700010 656300                    ERSQ  ! 8,,PR7

      397     1660    2         ARAT.LNK$->BRAT.FLG.MBIT=ARAT.FLG.MBIT;

   1660  1 000151   200017 236300                    LDQ   ! ARAT+8,,AUTO
         1 000152   700010 676300                    ERQ   ! 8,,PR7
         1 000153   000700 376207                    ANQ   ! 448,DL
         1 000154   700010 656300                    ERSQ  ! 8,,PR7

      398     1661    2         ARAT.LNK$->BRAT.RES=ARAT.RES;

   1661  1 000155   000100 100700                    MLR   ! fill='000'O
         1 000156   200010 000011                    ADSC9   ARAT+1,,AUTO             cn=0,n=9
         1 000157   700001 000011                    ADSC9   1,,PR7                   cn=0,n=9

      399     1662    2         ARAT.LNK$->BRAT.REEL=ARAT.REEL;

   1662  1 000160   000100 100700                    MLR   ! fill='000'O
         1 000161   200013 000010                    ADSC9   ARAT+4,,AUTO             cn=0,n=8
PL6.E3A0      #002=FMN$AVR File=FMN$OPNDP.:E05TSI                                TUE 07/29/97 16:52 Page:82
         1 000162   700004 000010                    ADSC9   4,,PR7                   cn=0,n=8

      400     1663    2         FM$DEVARRAY.SECTL(DCTX)=FM$DEV.SECTL;

   1663  1 000163   200020 235300                    LDA   ! DCTX,,AUTO
         1 000164   000003 735200                    ALS   ! 3
         1 000165   100005 721300                    LXL1  ! 5,,PR1
         1 000166   000000 474600 xsym               LDP4  ! FM$SET$
         1 000167   400005 441305                    SXL1  ! 5,AL,PR4

      401     1664    2         FM$DEV.SECTL=0;

   1664  1 000170   000000 222203                    LDX2  ! 0,DU
         1 000171   100005 442300                    SXL2  ! 5,,PR1

      402     1665    2         DEV$=ADDR(FM$DEVARRAY(DCTX));

   1665  1 000172   200020 236300                    LDQ   ! DCTX,,AUTO
         1 000173   000025 736200                    QLS   ! 21
         1 000174   000000 036200 xsym               ADLQ  ! FM$SET$
         1 000175   200005 756300                    STQ   ! DEV$,,AUTO

      403     1666    3         DO WHILE '1'B;

      404     1667    3            IF FM$DEV.SECTL=0 THEN EXIT;

   1667  1 000176   200005 470700                    LDP0  ! DEV$,,AUTO
         1 000177   000005 720300                    LXL0  ! 5,,PR0
         1 000200   000213 600200 1                  TZE   ! s:1672

      405     1668    3            DEV$=ADDR(FM$DEVARRAY(FM$DEV.SECTL));

   1668  1 000201   000005 236300                    LDQ   ! 5,,PR0
         1 000202   000003 736200                    QLS   ! 3
         1 000203   000004 376200 2                  ANQ   ! 4
         1 000204   000022 736200                    QLS   ! 18
         1 000205   000000 036200 xsym               ADLQ  ! FM$SET$
PL6.E3A0      #002=FMN$AVR File=FMN$OPNDP.:E05TSI                                TUE 07/29/97 16:52 Page:83
         1 000206   200005 756300                    STQ   ! DEV$,,AUTO

      406     1669    3            FM$DEV.DCTX=DCTX;

   1669  1 000207   200020 720300                    LXL0  ! DCTX,,AUTO
         1 000210   200005 470700                    LDP0  ! DEV$,,AUTO
         1 000211   000000 740300                    STX0  ! 0,,PR0

      407     1670    3            END;

   1670  1 000212   000176 710200 1                  TRA   ! s:1667

      408     1671    2         END;

      409     1672    1      RETURN;

   1672  1 000213   000000 702200 xent               TSX2  ! X66_ARET

AVRM
 Sect OctLoc
   0     000   000000 100000   040040 040040   040040 ******                    ..@.      ..

(unnamed)
 Sect OctLoc
   2     000   773777 777777   000000 006000   000014 006000   000000 006000    ................
   2     004   000007 777770                                                    ....
      410     1673    1   END FMN$AVR;
      411     1674        %EOD;

PL6.E3A0      #002=FMN$AVR File=FMN$OPNDP.:E05TSI                                TUE 07/29/97 16:52 Page:84
--  Include file information  --

   NI_DATA_C.:E05TOU  is referenced.
   FR$RAT.:E05TOU  is referenced.
   NI$TABLES.:E05TOU  is referenced.
   OCI_SUBS_C.:E05TOU  is referenced.
   SS_SCHED_C.:E05TOU  is referenced.
   B$USER.:E05TOU  cannot be made into a system file and is referenced.
   JG_GHOSTS_C.:E05TOU  is referenced.
   FM$MACROS.:E05TOU  is referenced.
      No diagnostics issued in procedure FMN$AVR.
PL6.E3A0      #002=FMN$AVR File=FMN$OPNDP.:E05TSI                                TUE 07/29/97 16:52 Page:85

 **** Variables and constants ****

  ****  Section 000 RoData FMN$AVR

  ****  Scalars and arrays  ****
OctLoc.c.b A Datatyp(siz) R M Lvl/name                 OctLoc.c.b A Datatyp(siz) R M Lvl/name

     0-0-0/c STRC(90)    r     1 AVRM

  ****  Auto variables  ****

  ****  Scalars and arrays  ****
OctLoc.c.b A Datatyp(siz) R M Lvl/name                 OctLoc.c.b A Datatyp(siz) R M Lvl/name

     3-0-0/w PTR         r     1 @DCTX_PRM                  4-0-0/w PTR         r     1 @STATUS
     7-0-0/w STRC(324)   r     1 ARAT                      20-0-0/w SBIN        r     1 DCTX
    *0-0-0/b UBIN(15)    r     1 DCTX_PRM                   5-0-0/w PTR         r     1 DEV$
     6-0-0/w PTR         r     1 RAT$                      *0-0-0/w STRC        r     1 STATUS

  ****  SYMREF variables  ****

  ****  Scalars and arrays  ****
OctLoc.c.b A Datatyp(siz) R M Lvl/name                 OctLoc.c.b A Datatyp(siz) R M Lvl/name

     0-0-0/w PTR         r     1 B$USRT$                    0-0-0/w PTR         r     1 FM$SET$
     0-0-0/w UBIN        r     1 FM_GCT                     0-0-0/d CHAR(8)     r     1 J_PIG
     0-0-0/w PTR         r     1 N$DCT$$                    0-0-0/w SBIN        r     1 N_DCTXMAX

  ****  BASED and DCB variables  ****

  ****  Scalars and arrays  ****
OctLoc.c.b A Datatyp(siz) R M Lvl/name                 OctLoc.c.b A Datatyp(siz) R M Lvl/name

     0-0-0/w STRC(576)   r     1 B$USER(0:0)                0-0-0/w STRC(324)   r     1 BRAT
     0-0-0/w STRC(288)   r     1 FM$DEV
     0-0-0/w STRC(288)   r     1 FM$DEVARRAY(0:0)
     0-0-0/w PTR         r     1 N$DCT$(0:0)                0-0-0/w STRC(1332)  r     1 NI$DCT
PL6.E3A0      #002=FMN$AVR File=FMN$OPNDP.:E05TSI                                TUE 07/29/97 16:52 Page:86


   Procedure FMN$AVR requires 140 words for executable code.
   Procedure FMN$AVR requires 20 words of local(AUTO) storage.
PL6.E3A0      #002=FMN$AVR File=FMN$OPNDP.:E05TSI                                TUE 07/29/97 16:52 Page:87
          *** CROSS REFERENCE LISTING ***
**     DENOTES     IDENTIFIER DEFINITION
<<                 IDENTIFIER'S VALUE SET
>>                 IDENTIFIER'S VALUE USED
<>                 IDENTIFIER SET AND/OR USED
--                 IDENTIFIER REFERENCED
PL6.E3A0      #002=FMN$AVR File=FMN$OPNDP.:E05TSI                                TUE 07/29/97 16:52 Page:88
          MINI XREF LISTING

ARAT
      1527**DCL      1655<<ASSIGN
ARAT.FLG.MBIT
      1554**DCL      1660>>ASSIGN
ARAT.FLG.OPN
      1559**DCL      1659>>ASSIGN
ARAT.LNK$
      1528**DCL      1656<<ASSIGN   1657>>ASSIGN   1658>>ASSIGN   1659>>ASSIGN   1660>>ASSIGN   1661>>ASSIGN
      1662>>ASSIGN
ARAT.REEL
      1546**DCL      1662>>ASSIGN
ARAT.RES
      1529**DCL      1661>>ASSIGN
AVRM
      1607**DCL      1633<>CALL
B$DO.ECCINFO
       646**DCL       647--REDEF
B$U.MISC
       625**DCL       626--REDEF
B$USER.MISC
       701**DCL       702--REDEF
B$USER.US
       688**DCL      1632>>IF
B$USRT$
       713**DCL      1632>>IF
BRAT
      1367**DCL      1655>>ASSIGN
BRAT.FLG.MBIT
      1394**DCL      1660<<ASSIGN
BRAT.FLG.OPN
      1399**DCL      1659<<ASSIGN
BRAT.REEL
PL6.E3A0      #002=FMN$AVR File=FMN$OPNDP.:E05TSI                                TUE 07/29/97 16:52 Page:89
      1386**DCL      1658<<ASSIGN   1658>>ASSIGN   1662<<ASSIGN
BRAT.RES
      1369**DCL      1657<<ASSIGN   1657>>ASSIGN   1661<<ASSIGN
DCTX
      1565**DCL      1616<<ASSIGN   1617>>IF       1617>>IF       1618>>ASSIGN   1619>>IF       1651<<ASSIGN
      1652>>IF       1653<<ASSIGN   1654>>ASSIGN   1663>>ASSIGN   1665>>ASSIGN   1669>>ASSIGN
DCTX_PRM
      1522**DCL        17--PROC     1616>>ASSIGN   1637--ENTRY    1650>>ASSIGN   1653>>ASSIGN
DEV$
      1523**DCL       394--IMP-PTR  1618<<ASSIGN   1619>>IF       1621>>IF       1623>>ASSIGN   1624>>ASSIGN
      1627>>ASSIGN   1629>>ASSIGN   1631>>ASSIGN   1650<<ASSIGN   1651>>ASSIGN   1656>>ASSIGN   1663>>ASSIGN
      1664>>ASSIGN   1665<<ASSIGN   1667>>IF       1668<<ASSIGN   1668>>ASSIGN   1669>>ASSIGN
FM$DEV.AVR
       395**DCL      1631<<ASSIGN
FM$DEV.DCTX
       394**DCL      1619>>IF       1656>>ASSIGN   1669<<ASSIGN
FM$DEV.MRRCHK
       395**DCL      1623<<ASSIGN   1627<<ASSIGN
FM$DEV.MRRDCTX
       397**DCL      1651>>ASSIGN
FM$DEV.SECTL
       396**DCL      1663>>ASSIGN   1664<<ASSIGN   1667>>IF       1668>>ASSIGN
FM$DEV.SPIN
       395**DCL      1621>>IF       1624<<ASSIGN   1629<<ASSIGN
FM$DEV.USERLIST
       395**DCL       396--REDEF
FM$DEVARRAY
       400**DCL      1618--ASSIGN   1650--ASSIGN   1665--ASSIGN   1668--ASSIGN
FM$DEVARRAY.SECTL
       402**DCL      1663<<ASSIGN
FM$DEVARRAY.USERLIST
       401**DCL       402--REDEF
FM$SET$
      1567**DCL       400--IMP-PTR  1618>>ASSIGN   1650>>ASSIGN   1663>>ASSIGN   1665>>ASSIGN   1668>>ASSIGN
FM_GCT
      1568**DCL      1615>>IF
PL6.E3A0      #002=FMN$AVR File=FMN$OPNDP.:E05TSI                                TUE 07/29/97 16:52 Page:90
INHIB
      1614**LABEL    1622--EXIT     1628--EXIT
J_PIG
      1596**DCL      1633<>CALL
KUW$WRITE
      1518**DCL-ENT  1633--CALL
N$DCT$
      1311**DCL      1653>>ASSIGN   1654>>ASSIGN   1656>>ASSIGN
N$DCT$$
      1310**DCL      1311--IMP-PTR  1653>>ASSIGN   1654>>ASSIGN   1656>>ASSIGN
NI$DCT.DP
      1291**DCL      1298--REDEF    1301--REDEF    1302--REDEF    1304--REDEF    1304--REDEF    1305--REDEF
      1306--REDEF    1306--REDEF
NI$DCT.DP.MIRROR.DCTX
      1296**DCL      1653>>ASSIGN
NI$DCT.MPC.IOCHANX
      1299**DCL      1299--REDEF
NI$DCT.RAT$
      1272**DCL      1654>>ASSIGN   1656>>ASSIGN
N_DCTXMAX
      1566**DCL      1617>>IF
RAT$
      1524**DCL      1654<<ASSIGN   1655>>ASSIGN   1657>>ASSIGN   1658>>ASSIGN
STATUS
      1519**DCL        17--PROC
STATUS.CODE
      1521**DCL      1620>>IF       1622>>IF       1623>>IF       1627>>IF       1628>>IF

