PL6.E3A0      #002=FMN$GETFIT File=FMN$OPNF.:E05TSI                              TUE 07/29/97 16:56 Page:275
     1489        1        /*T***********************************************************/
     1490        2        /*T*                                                         */
     1491        3        /*T* Copyright (c) Bull HN Information Systems Inc., 1997    */
     1492        4        /*T*                                                         */
     1493        5        /*T***********************************************************/
     1494        6                    /*F*
     1495        7                    *     NAME:   FMN$GETFIT
     1496        8                    *
     1497        9                    *     PURPOSE:    TO READ THE FIT IF IT IS NOT ALREADY IN A
     1498       10                    *             BUFFER OR TO RETURN THE BUFFER ADDRESS AND
     1499       11                    *             BUFFER NUMBER IF IT IS ALREADY IN A DCB BUFFER.
     1500       12                    *             FMN$GETFIT SHOULD ALWAYS BE USED WHEN FILE REL
     1501       13                    *             DISK ADDRESSES HAVE BEEN ACCESSED.
     1502       14                    */
     1503       15        FMN$GETFIT: PROC(BUF$,BUFNO)ALTRET;
     1504       16                    /**/
     1505       17                    /*F*
     1506       18                    *     NAME:   FMN$READFIT
     1507       19                    *
     1508       20                    *     PURPOSE:   TO READ AND VERIFY THE FIT (OR AFIT) GRANULE.
     1509       21                    *
     1510       22                    *     DESCRIPTION:  THE FIT SET DISK ADDRESS INPUT AS FDA IS
     1511       23                    *             READ INTO BUFX(1) AND VERIFIED.
     1512       24                    *
     1513       25                    */
     1514       26                    /**/
     1515       27                    /* PARAMETER DATA */
     1516       28    1   DCL BUF$ PTR; /* POINTER TO FIT GRAN (RETURNED)*/
     1517       29    1   DCL BUFNO UBIN;
     1518       30    1   DCL FDA REDEF BUFNO SBIN;
     1519       31                    /**/
     1520       32                    /* AUTOMATIC DATA */
     1521       33                    /**/
     1522       34    1   DCL STAMP UBIN; /* PLACE TO BUILD COMPARE STAMP */
     1523       35    1   DCL LOC$ PTR; /* POINTER TO CODE03 */
     1524       36    1   DCL I SBIN; /* ERROR SUBCODE */
     1525       37    1   DCL IU REDEF I UBIN;
PL6.E3A0      #002=FMN$GETFIT File=FMN$OPNF.:E05TSI                              TUE 07/29/97 16:56 Page:276
     1526       38    1   DCL JDCB$ PTR; /* POINTER TO THE DCB */
     1527       39    1   DCL FAST UBIN; /* FAST PATH FLAG (=1 IF SO) */
     1528       40                    /**/
     1529       41                    /* SYMREF DATA */
     1530       42                    /**/
     1531       43    1   DCL B$JIT$ PTR SYMREF; /* POINTER TO THE JIT */
     1532       44                    /**/
     1533       45                    /**/
     1534       46        %INCLUDE F$JIT_C;
     1535      476        %INCLUDE FM$MACROS;
     1536      851        %MACRO F$DCB(BASED=BASED);
     1537      852        %INCLUDE F$DCB;
     1538      901        %MEND;
     1539      902        %F$DCB(BASED="BASED(JDCB$)");
     1540      952        %FM$GRAN(BASED="BASED(BUF$)");
     1541      956        %FM$FIT(BASED="BASED(LOC$)");
     1542      959        %FM$CFU(BASED="BASED(LOC$)");
     1543      965        %CODE01;
     1544      969        %CODE03(BASED="BASED(LOC$)");
     1545      976        %INCLUDE F_ERRORS_C;
     1546     1216        %SUB FCG#='0615'O;
     1547     1217        %SUB MID#='16'O;
     1548     1218        %ERRCODE(NAME=FMN$E$BADFIT,COD#=%E$BADFIT);
     1549     1222    1   DCL FM$BUF$(0:31)PTR SYMREF;
     1550     1223    1   DCL FM_FRZERO UBIN SYMREF;
     1551     1224                    /**/
     1552     1225                    /* DEFINE EXTERNAL ROUTINES */
     1553     1226                    /**/
     1554     1227    1   DCL FMD$REDBUF ENTRY(6) ALTRET; /* READ THE FIT */
     1555     1228    1   DCL FMB$LOGERR ENTRY(11);
     1556     1229    1   DCL FMM$NSTAMP ENTRY(1); /* CHECK FILENAME */
     1557     1230    1   DCL FMO$LOCCODP ENTRY(2) ALTRET; /* CHECK FOR CODE03 */
     1558     1231                    /**/
     1559     1232    1      JDCB$=B$JIT.DCB$;
     1560     1233    1      LOC$=F$DCB.CFU$;
     1561     1234    1      STAMP=FM_FRZERO;
     1562     1235    1      IF FM$CFU.AFIT~=0 THEN STAMP=FM$CFU.FITSDA;
PL6.E3A0      #002=FMN$GETFIT File=FMN$OPNF.:E05TSI                              TUE 07/29/97 16:56 Page:277
     1563     1236    2      DO I=0 TO 4;
     1564     1237    2         IF F$DCB.BFR.DA(I)~=0 AND (F$DCB.BFR.DA(I)=STAMP
     1565     1238    3           OR F$DCB.BFR.DA(I)=FM$CFU.FITSDA) THEN DO;
     1566     1239    3            BUF$=FM$BUF$(F$DCB.BFR.BUFX(IU));
     1567     1240    3            BUFNO=I;
     1568     1241    3            IF F$DCB.BFR.BUFX(IU)~=0 THEN GOTO CHKFIT;
     1569     1242    3            END;
     1570     1243    2         END;
     1571     1244    1      F$DCB.GTYP=FMGTFIT;
     1572     1245    1      STAMP=FM$CFU.FITSDA;
     1573     1246    1      FAST=0;
     1574     1247    1      CALL FMD$REDBUF(BUF$,BUFNO,STAMP,,-1) ALTRET(RETALT);
     1575     1248    1      IF FM$CFU.AFIT=0 THEN F$DCB.BFR.DA(BUFNO)=FM_FRZERO;
     1576     1249    1      GOTO CHKFIT;
     1577     1250                    /**/
     1578     1251    1   FMN$READFITF: ENTRY(BUF$,BUFNO/*FDA*/)ALTRET;
     1579     1252    1      FAST=1;
     1580     1253    1      GOTO READFIT;
     1581     1254    1   FMN$READFIT: ENTRY(BUF$,BUFNO/*FDA*/)ALTRET;
     1582     1255    1      FAST=0;
     1583     1256    1   READFIT:;
     1584     1257    1      JDCB$=B$JIT.DCB$;
     1585     1258    1      F$DCB.GTYP=FMGTFIT;
     1586     1259    1      CALL FMD$REDBUF(BUF$,1,FDA,0,-1,FAST)ALTRET(RETALT);
     1587     1260                    /*E*     ERROR:  FMN-E$BADFIT-A
     1588     1261                    *        MESSAGE:File% %FN% is irrecoverably lost.
     1589     1262                    *        MESSAGE1:File% %UF% has been mucked up by a system failure,
     1590     1263                    *        and is completely inaccessible. Use backup copy if needed.
     1591     1264                    */
     1592     1265                    /*
     1593     1266                    *  VERIFY THAT THIS IS FIT OR AFIT GRANULE
     1594     1267                    */
     1595     1268    1      STAMP=FDA;
     1596     1269    1   CHKFIT:;
     1597     1270    1      LOC$=PINCRW(BUF$,SIZEW(FM$GRAN)+1); /* Point to CODE01 FITword */
     1598     1271    1      IF FM$GRAN.LVL=0 THEN STAMP=0;
     1599     1272    1      IF FM$FIT.CODES.CODE(0)~=1 THEN GOTO BADFIT13;
PL6.E3A0      #002=FMN$GETFIT File=FMN$OPNF.:E05TSI                              TUE 07/29/97 16:56 Page:278
     1600     1273    1      I=MOD(FM$FIT.CODES.NDW(0)-1,512);
     1601     1274    1      LOC$=PINCRW(LOC$,FM$FIT.CODES.ITEMX(0)-1);
     1602     1275    1      IF LOC$->CODE01.NXTNTS~=I THEN GOTO BADFIT14;
     1603     1276    1      ADDR(STAMP)->FM$GRAN.STAMP.HASH=LOC$->CODE01.HASH;
     1604     1277    1      LOC$=PALIGNW(ADDR(FM$GRAN.HDR));
     1605     1278    1      IF STAMP~=BITBIN(FM$GRAN.STAMP) THEN GOTO BADFIT15;
     1606     1279    1      IF NOT FM$GRAN.HDR THEN GOTO BADFIT16;
     1607     1280    1      LOC$=PINCRW(BUF$,SIZEW(FM$GRAN));
     1608     1281    1      CALL FMO$LOCCODP(LOC$,3)ALTRET(BADFIT18);
     1609     1282    1      CALL FMM$NSTAMP(STAMP);
     1610     1283    1      IF CODE03.NSTAMP=STAMP THEN RETURN;
     1611     1284    1      LOC$=ADDR(CODE03.NSTAMP);
     1612     1285    1      I=19;
     1613     1286    1      GOTO FMNE$BADFIT;
     1614     1287    1   BADFIT18:I=18;
     1615     1288    1      GOTO FMNE$BADFIT;
     1616     1289    1   BADFIT16:I=16;
     1617     1290    1      GOTO FMNE$BADFIT;
     1618     1291    1   BADFIT15:I=15;
     1619     1292    1      GOTO FMNE$BADFIT;
     1620     1293    1   BADFIT14:I=14;
     1621     1294    1      GOTO FMNE$BADFIT;
     1622     1295    1   BADFIT13:I=13;
     1623     1296                    /**/
     1624     1297    1   FMNE$BADFIT:
     1625     1298    1      B$JIT$->B$JIT.ERR=FMN$E$BADFIT;
     1626     1299    1      IF BUFNO<5 THEN JDCB$=F$DCB.CFU$;
     1627     1300    1      ELSE JDCB$=ADDR(BUFNO);
     1628     1301    1      CALL FMB$LOGERR(%E$FIT,I,8-2*FAST,JDCB$->FM$CFU,BUF$,0,
     1629     1302    1        SIZEW(FM$GRAN)+1,POFFW(LOC$,BUF$),STAMP);
     1630     1303    1      JDCB$=B$JIT.DCB$;
     1631     1304    1   RETALT:;
     1632     1305    1      IF FAST~=0 THEN B$JIT.ERR='0'B;
     1633     1306    1      IF BUFNO<5 THEN F$DCB.BFR.DA(BUFNO)=F$DCB.CFU$->FM$CFU.FITSDA;
     1634     1307    1      ELSE F$DCB.BFR.DA(1)=BUFNO;
     1635     1308    1      F$DCB.CSEED=I;/* RETURN SUBCODE FOR FIX */
     1636     1309    1      IF B$JIT.ERR.CODE=%E$FIT THEN B$JIT.ERR=FMN$E$BADFIT;
PL6.E3A0      #002=FMN$GETFIT File=FMN$OPNF.:E05TSI                              TUE 07/29/97 16:56 Page:279
     1637     1310    1      ALTRETURN;
     1638     1311                    /**/
     1639     1312    1   END FMN$GETFIT;
     1640     1313        %EOD;

PL6.E3A0      #002=FMN$GETFIT File=FMN$OPNF.:E05TSI                              TUE 07/29/97 16:56 Page:280
--  Include file information  --

   F_ERRORS_C.:E05TOU  is referenced.
   F$DCB.:E05TOU  is referenced.
   FM$MACROS.:E05TOU  is referenced.
   B$JIT_C.:E05TOU  is referenced.
   F$JIT_C.:E05TOU  cannot be made into a system file and is referenced.
      No diagnostics issued in procedure FMN$GETFIT.

   Procedure FMN$GETFIT requires 282 words for executable code.
   Procedure FMN$GETFIT requires 22 words of local(AUTO) storage.

PL6.E3A0      #002=FMN$GETFIT File=FMN$OPNF.:E05TSI                              TUE 07/29/97 16:56 Page:281

 Object Unit name= FMN$GETFIT                                 File name= FMN$OPNF.:E05TOU
 UTS= JUL 29 '97 16:56:30.12 TUE                              Compiler= PL-6/E31         Sev=      00
 SharedLib= :SHARED_SYSTEM                                    Alt SharedLib=


    ****  Control sections  ****

 Sect   Type Bound  Init  Size OctSiz  Section name(segment info)
    0  RoData even  UTS      1      1  FMN$GETFIT
    1   Proc  even  none   282    432  FMN$GETFIT
    2  RoData even  none    12     14  FMN$GETFIT

    ****  Entry defs  ****

                              Check   Calling
                             calling  sequence
  Sect OctLoc Primary Altret sequence   type   Parms  Name
     1      0   yes    yes     yes      Std        2  FMN$GETFIT
     1    124          yes     yes      Std        2  FMN$READFITF
     1    131          yes     yes      Std        2  FMN$READFIT

  ****  Entry refs  ****

         Check        Calling
        calling       sequence
Altret sequence SRef   type   Args  Name
 yes     yes           Std       6 FMD$REDBUF
 yes     yes           Std       2 FMO$LOCCODP
         yes           Std       1 FMM$NSTAMP
         yes           Std      11 FMB$LOGERR
                       nStd      0 X66_AUTO_2
                       Std       0 B_CONSPOOL_D
                       nStd      0 X66_ARET
                       nStd      0 X66_AALT
PL6.E3A0      #002=FMN$GETFIT File=FMN$OPNF.:E05TSI                              TUE 07/29/97 16:56 Page:282

  ****  Data refs  ****

  Flags:  r = read only, s = secondary
Flgs Name                             Flgs Name                             Flgs Name
     B$JIT$                                FM$BUF$                               FM_FRZERO
     B_VECTNIL

  ****  Segment refs  ****

  Flags:  r = read only, s = secondary
Flgs Name                             Flgs Name                             Flgs Name
     ISSID
PL6.E3A0      #002=FMN$GETFIT File=FMN$OPNF.:E05TSI                              TUE 07/29/97 16:56 Page:283


     1489        1        /*T***********************************************************/
     1490        2        /*T*                                                         */
     1491        3        /*T* Copyright (c) Bull HN Information Systems Inc., 1997    */
     1492        4        /*T*                                                         */
     1493        5        /*T***********************************************************/
     1494        6                    /*F*
     1495        7                    *     NAME:   FMN$GETFIT
     1496        8                    *
     1497        9                    *     PURPOSE:    TO READ THE FIT IF IT IS NOT ALREADY IN A
     1498       10                    *             BUFFER OR TO RETURN THE BUFFER ADDRESS AND
     1499       11                    *             BUFFER NUMBER IF IT IS ALREADY IN A DCB BUFFER.
     1500       12                    *             FMN$GETFIT SHOULD ALWAYS BE USED WHEN FILE REL
     1501       13                    *             DISK ADDRESSES HAVE BEEN ACCESSED.
     1502       14                    */
     1503       15        FMN$GETFIT: PROC(BUF$,BUFNO)ALTRET;

     15  1 000000   000000 700200 xent  FMN$GETFIT   TSX0  ! X66_AUTO_2
         1 000001   000026 000002                    ZERO    22,2

     1504       16                    /**/
     1505       17                    /*F*
     1506       18                    *     NAME:   FMN$READFIT
     1507       19                    *
     1508       20                    *     PURPOSE:   TO READ AND VERIFY THE FIT (OR AFIT) GRANULE.
     1509       21                    *
     1510       22                    *     DESCRIPTION:  THE FIT SET DISK ADDRESS INPUT AS FDA IS
     1511       23                    *             READ INTO BUFX(1) AND VERIFIED.
     1512       24                    *
     1513       25                    */
     1514       26                    /**/
     1515       27                    /* PARAMETER DATA */
     1516       28    1   DCL BUF$ PTR; /* POINTER TO FIT GRAN (RETURNED)*/
     1517       29    1   DCL BUFNO UBIN;
     1518       30    1   DCL FDA REDEF BUFNO SBIN;
     1519       31                    /**/
     1520       32                    /* AUTOMATIC DATA */
PL6.E3A0      #002=FMN$GETFIT File=FMN$OPNF.:E05TSI                              TUE 07/29/97 16:56 Page:284
     1521       33                    /**/
     1522       34    1   DCL STAMP UBIN; /* PLACE TO BUILD COMPARE STAMP */
     1523       35    1   DCL LOC$ PTR; /* POINTER TO CODE03 */
     1524       36    1   DCL I SBIN; /* ERROR SUBCODE */
     1525       37    1   DCL IU REDEF I UBIN;
     1526       38    1   DCL JDCB$ PTR; /* POINTER TO THE DCB */
     1527       39    1   DCL FAST UBIN; /* FAST PATH FLAG (=1 IF SO) */
     1528       40                    /**/
     1529       41                    /* SYMREF DATA */
     1530       42                    /**/
     1531       43    1   DCL B$JIT$ PTR SYMREF; /* POINTER TO THE JIT */
     1532       44                    /**/
     1533       45                    /**/
     1534       46        %INCLUDE F$JIT_C;
     1535      476        %INCLUDE FM$MACROS;
     1536      851        %MACRO F$DCB(BASED=BASED);
     1537      852        %INCLUDE F$DCB;
     1538      901        %MEND;
     1539      902        %F$DCB(BASED="BASED(JDCB$)");
     1540      952        %FM$GRAN(BASED="BASED(BUF$)");
     1541      956        %FM$FIT(BASED="BASED(LOC$)");
     1542      959        %FM$CFU(BASED="BASED(LOC$)");
     1543      965        %CODE01;
     1544      969        %CODE03(BASED="BASED(LOC$)");
     1545      976        %INCLUDE F_ERRORS_C;
     1546     1216        %SUB FCG#='0615'O;
     1547     1217        %SUB MID#='16'O;
     1548     1218        %ERRCODE(NAME=FMN$E$BADFIT,COD#=%E$BADFIT);
     1549     1222    1   DCL FM$BUF$(0:31)PTR SYMREF;
     1550     1223    1   DCL FM_FRZERO UBIN SYMREF;
     1551     1224                    /**/
     1552     1225                    /* DEFINE EXTERNAL ROUTINES */
     1553     1226                    /**/
     1554     1227    1   DCL FMD$REDBUF ENTRY(6) ALTRET; /* READ THE FIT */
     1555     1228    1   DCL FMB$LOGERR ENTRY(11);
     1556     1229    1   DCL FMM$NSTAMP ENTRY(1); /* CHECK FILENAME */
     1557     1230    1   DCL FMO$LOCCODP ENTRY(2) ALTRET; /* CHECK FOR CODE03 */
PL6.E3A0      #002=FMN$GETFIT File=FMN$OPNF.:E05TSI                              TUE 07/29/97 16:56 Page:285
     1558     1231                    /**/
     1559     1232    1      JDCB$=B$JIT.DCB$;

   1232  1 000002   000000 470400 xsym               LDP0    B$JIT$
         1 000003   000232 236100                    LDQ     154,,PR0
         1 000004   200010 756100                    STQ     JDCB$,,AUTO

     1560     1233    1      LOC$=F$DCB.CFU$;

   1233  1 000005   200010 471500                    LDP1    JDCB$,,AUTO
         1 000006   100066 236100                    LDQ     54,,PR1
         1 000007   200006 756100                    STQ     LOC$,,AUTO

     1561     1234    1      STAMP=FM_FRZERO;

   1234  1 000010   000000 235000 xsym               LDA     FM_FRZERO
         1 000011   200005 755100                    STA     STAMP,,AUTO

     1562     1235    1      IF FM$CFU.AFIT~=0 THEN STAMP=FM$CFU.FITSDA;

   1235  1 000012   200006 473500                    LDP3    LOC$,,AUTO
         1 000013   300000 236100                    LDQ     0,,PR3
         1 000014   001000 316003                    CANQ    512,DU
         1 000015   000021 600000 1                  TZE     s:1236

   1235  1 000016   300000 236100                    LDQ     0,,PR3
         1 000017   000032 376000 xsym               ANQ     B_VECTNIL+26
         1 000020   200005 756100                    STQ     STAMP,,AUTO

     1563     1236    2      DO I=0 TO 4;

   1236  1 000021   200007 450100                    STZ     I,,AUTO

     1564     1237    2         IF F$DCB.BFR.DA(I)~=0 AND (F$DCB.BFR.DA(I)=STAMP

   1237  1 000022   200010 470500                    LDP0    JDCB$,,AUTO
         1 000023   200007 720100                    LXL0    I,,AUTO
PL6.E3A0      #002=FMN$GETFIT File=FMN$OPNF.:E05TSI                              TUE 07/29/97 16:56 Page:286
         1 000024   000115 236110                    LDQ     77,X0,PR0
         1 000025   000032 316000 xsym               CANQ    B_VECTNIL+26
         1 000026   000056 600000 1                  TZE     s:1243
         1 000027   000115 236110                    LDQ     77,X0,PR0
         1 000030   000032 376000 xsym               ANQ     B_VECTNIL+26
         1 000031   200005 116100                    CMPQ    STAMP,,AUTO
         1 000032   000040 600000 1                  TZE     s:1239
         1 000033   200006 471500                    LDP1    LOC$,,AUTO
         1 000034   000115 236110                    LDQ     77,X0,PR0
         1 000035   100000 676100                    ERQ     0,,PR1
         1 000036   000032 376000 xsym               ANQ     B_VECTNIL+26
         1 000037   000056 601000 1                  TNZ     s:1243

     1565     1238    3           OR F$DCB.BFR.DA(I)=FM$CFU.FITSDA) THEN DO;

     1566     1239    3            BUF$=FM$BUF$(F$DCB.BFR.BUFX(IU));

   1239  1 000040   200007 721100                    LXL1    I,,AUTO
         1 000041   000115 236111                    LDQ     77,X1,PR0
         1 000042   000033 772000                    QRL     27
         1 000043   000037 376007                    ANQ     31,DL
         1 000044   000000 236006 xsym               LDQ     FM$BUF$,QL
         1 000045   200003 471500                    LDP1    @BUF$,,AUTO
         1 000046   100000 756100                    STQ     0,,PR1

     1567     1240    3            BUFNO=I;

   1240  1 000047   200007 235100                    LDA     I,,AUTO
         1 000050   200004 473500                    LDP3    @BUFNO,,AUTO
         1 000051   300000 755100                    STA     0,,PR3

     1568     1241    3            IF F$DCB.BFR.BUFX(IU)~=0 THEN GOTO CHKFIT;

   1241  1 000052   200007 720100                    LXL0    I,,AUTO
         1 000053   000115 236110                    LDQ     77,X0,PR0
         1 000054   037000 316003                    CANQ    15872,DU
         1 000055   000165 601000 1                  TNZ     CHKFIT
PL6.E3A0      #002=FMN$GETFIT File=FMN$OPNF.:E05TSI                              TUE 07/29/97 16:56 Page:287

     1569     1242    3            END;

     1570     1243    2         END;

   1243  1 000056   200007 054100                    AOS     I,,AUTO
         1 000057   200007 235100                    LDA     I,,AUTO
         1 000060   000004 115007                    CMPA    4,DL
         1 000061   000022 604400 1                  TMOZ    s:1237

     1571     1244    1      F$DCB.GTYP=FMGTFIT;

   1244  1 000062   000064 236100                    LDQ     52,,PR0
         1 000063   000000 376000 2                  ANQ     0
         1 000064   024000 276003                    ORQ     10240,DU
         1 000065   000064 756100                    STQ     52,,PR0

     1572     1245    1      STAMP=FM$CFU.FITSDA;

   1245  1 000066   200006 471500                    LDP1    LOC$,,AUTO
         1 000067   100000 236100                    LDQ     0,,PR1
         1 000070   000032 376000 xsym               ANQ     B_VECTNIL+26
         1 000071   200005 756100                    STQ     STAMP,,AUTO

     1573     1246    1      FAST=0;

   1246  1 000072   200011 450100                    STZ     FAST,,AUTO

     1574     1247    1      CALL FMD$REDBUF(BUF$,BUFNO,STAMP,,-1) ALTRET(RETALT);

   1247  1 000073   000001 236000 2                  LDQ     1
         1 000074   200016 756100                    STQ     FAST+5,,AUTO
         1 000075   000001 236000 xsym               LDQ     B_VECTNIL+1
         1 000076   200015 756100                    STQ     FAST+4,,AUTO
         1 000077   200005 633500                    EPPR3   STAMP,,AUTO
         1 000100   200014 453500                    STP3    FAST+3,,AUTO
         1 000101   200004 236100                    LDQ     @BUFNO,,AUTO
PL6.E3A0      #002=FMN$GETFIT File=FMN$OPNF.:E05TSI                              TUE 07/29/97 16:56 Page:288
         1 000102   200003 235100                    LDA     @BUF$,,AUTO
         1 000103   200012 757100                    STAQ    FAST+1,,AUTO
         1 000104   200012 630500                    EPPR0   FAST+1,,AUTO
         1 000105   000023 631400 xsym               EPPR1   B_VECTNIL+19
         1 000106   000000 701000 xent               TSX1    FMD$REDBUF
         1 000107   000375 702000 1                  TSX2    RETALT

     1575     1248    1      IF FM$CFU.AFIT=0 THEN F$DCB.BFR.DA(BUFNO)=FM_FRZERO;

   1248  1 000110   200006 470500                    LDP0    LOC$,,AUTO
         1 000111   000000 236100                    LDQ     0,,PR0
         1 000112   001000 316003                    CANQ    512,DU
         1 000113   000123 601000 1                  TNZ     s:1249

   1248  1 000114   200004 471500                    LDP1    @BUFNO,,AUTO
         1 000115   100000 720100                    LXL0    0,,PR1
         1 000116   200010 473500                    LDP3    JDCB$,,AUTO
         1 000117   000000 236000 xsym               LDQ     FM_FRZERO
         1 000120   300115 676110                    ERQ     77,X0,PR3
         1 000121   000032 376000 xsym               ANQ     B_VECTNIL+26
         1 000122   300115 656110                    ERSQ    77,X0,PR3

     1576     1249    1      GOTO CHKFIT;

   1249  1 000123   000165 710000 1                  TRA     CHKFIT

     1577     1250                    /**/
     1578     1251    1   FMN$READFITF: ENTRY(BUF$,BUFNO/*FDA*/)ALTRET;

   1251  1 000124   000000 700200 xent  FMN$READFITF TSX0  ! X66_AUTO_2
         1 000125   000026 000002                    ZERO    22,2

     1579     1252    1      FAST=1;

   1252  1 000126   000001 235007                    LDA     1,DL
         1 000127   200011 755100                    STA     FAST,,AUTO

PL6.E3A0      #002=FMN$GETFIT File=FMN$OPNF.:E05TSI                              TUE 07/29/97 16:56 Page:289
     1580     1253    1      GOTO READFIT;

   1253  1 000130   000134 710000 1                  TRA     READFIT

     1581     1254    1   FMN$READFIT: ENTRY(BUF$,BUFNO/*FDA*/)ALTRET;

   1254  1 000131   000000 700200 xent  FMN$READFIT  TSX0  ! X66_AUTO_2
         1 000132   000026 000002                    ZERO    22,2

     1582     1255    1      FAST=0;

   1255  1 000133   200011 450100                    STZ     FAST,,AUTO

   1255  1 000134                       READFIT      null
     1583     1256    1   READFIT:;
     1584     1257    1      JDCB$=B$JIT.DCB$;

   1257  1 000134   000000 470400 xsym               LDP0    B$JIT$
         1 000135   000232 236100                    LDQ     154,,PR0
         1 000136   200010 756100                    STQ     JDCB$,,AUTO

     1585     1258    1      F$DCB.GTYP=FMGTFIT;

   1258  1 000137   200010 471500                    LDP1    JDCB$,,AUTO
         1 000140   100064 236100                    LDQ     52,,PR1
         1 000141   000000 376000 2                  ANQ     0
         1 000142   024000 276003                    ORQ     10240,DU
         1 000143   100064 756100                    STQ     52,,PR1

     1586     1259    1      CALL FMD$REDBUF(BUF$,1,FDA,0,-1,FAST)ALTRET(RETALT);

   1259  1 000144   200011 633500                    EPPR3   FAST,,AUTO
         1 000145   200017 453500                    STP3    FAST+6,,AUTO
         1 000146   000001 236000 2                  LDQ     1
         1 000147   200016 756100                    STQ     FAST+5,,AUTO
         1 000150   000002 236000 2                  LDQ     2
         1 000151   200004 235100                    LDA     @BUFNO,,AUTO
PL6.E3A0      #002=FMN$GETFIT File=FMN$OPNF.:E05TSI                              TUE 07/29/97 16:56 Page:290
         1 000152   200014 757100                    STAQ    FAST+3,,AUTO
         1 000153   000003 236000 2                  LDQ     3
         1 000154   200003 235100                    LDA     @BUF$,,AUTO
         1 000155   200012 757100                    STAQ    FAST+1,,AUTO
         1 000156   200012 630500                    EPPR0   FAST+1,,AUTO
         1 000157   000024 631400 xsym               EPPR1   B_VECTNIL+20
         1 000160   000000 701000 xent               TSX1    FMD$REDBUF
         1 000161   000375 702000 1                  TSX2    RETALT

     1587     1260                    /*E*     ERROR:  FMN-E$BADFIT-A
     1588     1261                    *        MESSAGE:File% %FN% is irrecoverably lost.
     1589     1262                    *        MESSAGE1:File% %UF% has been mucked up by a system failure,
     1590     1263                    *        and is completely inaccessible. Use backup copy if needed.
     1591     1264                    */
     1592     1265                    /*
     1593     1266                    *  VERIFY THAT THIS IS FIT OR AFIT GRANULE
     1594     1267                    */
     1595     1268    1      STAMP=FDA;

   1268  1 000162   200004 470500                    LDP0    @BUFNO,,AUTO
         1 000163   000000 235100                    LDA     0,,PR0
         1 000164   200005 755100                    STA     STAMP,,AUTO

   1268  1 000165                       CHKFIT       null
     1596     1269    1   CHKFIT:;
     1597     1270    1      LOC$=PINCRW(BUF$,SIZEW(FM$GRAN)+1); /* Point to CODE01 FITword */

   1270  1 000165   200003 470500                    LDP0    @BUF$,,AUTO
         1 000166   000000 236100                    LDQ     0,,PR0
         1 000167   000006 036003                    ADLQ    6,DU
         1 000170   200006 756100                    STQ     LOC$,,AUTO

     1598     1271    1      IF FM$GRAN.LVL=0 THEN STAMP=0;

   1271  1 000171   000000 471500                    LDP1    0,,PR0
         1 000172   100001 236100                    LDQ     1,,PR1
         1 000173   340000 316007                    CANQ    114688,DL
PL6.E3A0      #002=FMN$GETFIT File=FMN$OPNF.:E05TSI                              TUE 07/29/97 16:56 Page:291
         1 000174   000176 601000 1                  TNZ     s:1272

   1271  1 000175   200005 450100                    STZ     STAMP,,AUTO

     1599     1272    1      IF FM$FIT.CODES.CODE(0)~=1 THEN GOTO BADFIT13;

   1272  1 000176   200006 471500                    LDP1    LOC$,,AUTO
         1 000177   100000 236100                    LDQ     0,,PR1
         1 000200   760000 376003                    ANQ     -8192,DU
         1 000201   020000 116003                    CMPQ    8192,DU
         1 000202   000314 601000 1                  TNZ     BADFIT13

     1600     1273    1      I=MOD(FM$FIT.CODES.NDW(0)-1,512);

   1273  1 000203   100000 236100                    LDQ     0,,PR1
         1 000204   000012 772000                    QRL     10
         1 000205   001777 376007                    ANQ     1023,DL
         1 000206   000001 136007                    SBLQ    1,DL
         1 000207   001000 506007                    DIV     512,DL
         1 000210   200007 755100                    STA     I,,AUTO

     1601     1274    1      LOC$=PINCRW(LOC$,FM$FIT.CODES.ITEMX(0)-1);

   1274  1 000211   100000 720100                    LXL0    0,,PR1
         1 000212   001777 360003                    ANX0    1023,DU
         1 000213   777777 636010                    EAQ     -1,X0
         1 000214   200006 036100                    ADLQ    LOC$,,AUTO
         1 000215   200006 756100                    STQ     LOC$,,AUTO

     1602     1275    1      IF LOC$->CODE01.NXTNTS~=I THEN GOTO BADFIT14;

   1275  1 000216   200006 471500                    LDP1    LOC$,,AUTO
         1 000217   100000 236100                    LDQ     0,,PR1
         1 000220   000033 772000                    QRL     27
         1 000221   200007 116100                    CMPQ    I,,AUTO
         1 000222   000311 601000 1                  TNZ     BADFIT14

PL6.E3A0      #002=FMN$GETFIT File=FMN$OPNF.:E05TSI                              TUE 07/29/97 16:56 Page:292
     1603     1276    1      ADDR(STAMP)->FM$GRAN.STAMP.HASH=LOC$->CODE01.HASH;

   1276  1 000223   100000 236100                    LDQ     0,,PR1
         1 000224   000011 736000                    QLS     9
         1 000225   200005 552170                    STBQ    STAMP,'70'O,AUTO

     1604     1277    1      LOC$=PALIGNW(ADDR(FM$GRAN.HDR));

   1277  1 000226   000000 473500                    LDP3    0,,PR0
         1 000227   200012 453500                    STP3    FAST+1,,AUTO
         1 000230   200012 236100                    LDQ     FAST+1,,AUTO
         1 000231   000004 036000 2                  ADLQ    4
         1 000232   770000 036007                    ADLQ    -4096,DL
         1 000233   000005 376000 2                  ANQ     5
         1 000234   200006 756100                    STQ     LOC$,,AUTO

     1605     1278    1      IF STAMP~=BITBIN(FM$GRAN.STAMP) THEN GOTO BADFIT15;

   1278  1 000235   000000 471500                    LDP1    0,,PR0
         1 000236   200005 236100                    LDQ     STAMP,,AUTO
         1 000237   100000 116100                    CMPQ    0,,PR1
         1 000240   000306 601000 1                  TNZ     BADFIT15

     1606     1279    1      IF NOT FM$GRAN.HDR THEN GOTO BADFIT16;

   1279  1 000241   100001 236100                    LDQ     1,,PR1
         1 000242   400000 316007                    CANQ    -131072,DL
         1 000243   000303 600000 1                  TZE     BADFIT16

     1607     1280    1      LOC$=PINCRW(BUF$,SIZEW(FM$GRAN));

   1280  1 000244   000000 236100                    LDQ     0,,PR0
         1 000245   000005 036003                    ADLQ    5,DU
         1 000246   200006 756100                    STQ     LOC$,,AUTO

     1608     1281    1      CALL FMO$LOCCODP(LOC$,3)ALTRET(BADFIT18);

PL6.E3A0      #002=FMN$GETFIT File=FMN$OPNF.:E05TSI                              TUE 07/29/97 16:56 Page:293
   1281  1 000247   000006 236000 2                  LDQ     6
         1 000250   200013 756100                    STQ     FAST+2,,AUTO
         1 000251   200006 631500                    EPPR1   LOC$,,AUTO
         1 000252   200012 451500                    STP1    FAST+1,,AUTO
         1 000253   200012 630500                    EPPR0   FAST+1,,AUTO
         1 000254   000020 631400 xsym               EPPR1   B_VECTNIL+16
         1 000255   000000 701000 xent               TSX1    FMO$LOCCODP
         1 000256   000300 702000 1                  TSX2    BADFIT18

     1609     1282    1      CALL FMM$NSTAMP(STAMP);

   1282  1 000257   200005 630500                    EPPR0   STAMP,,AUTO
         1 000260   200012 450500                    STP0    FAST+1,,AUTO
         1 000261   200012 630500                    EPPR0   FAST+1,,AUTO
         1 000262   000017 631400 xsym               EPPR1   B_VECTNIL+15
         1 000263   000000 701000 xent               TSX1    FMM$NSTAMP
         1 000264   000000 011000                    NOP     0

     1610     1283    1      IF CODE03.NSTAMP=STAMP THEN RETURN;

   1283  1 000265   200006 470500                    LDP0    LOC$,,AUTO
         1 000266   000006 236100                    LDQ     6,,PR0
         1 000267   200005 116100                    CMPQ    STAMP,,AUTO
         1 000270   000272 601000 1                  TNZ     s:1284

   1283  1 000271   000000 702200 xent               TSX2  ! X66_ARET

     1611     1284    1      LOC$=ADDR(CODE03.NSTAMP);

   1284  1 000272   200006 236100                    LDQ     LOC$,,AUTO
         1 000273   000006 036003                    ADLQ    6,DU
         1 000274   200006 756100                    STQ     LOC$,,AUTO

     1612     1285    1      I=19;

   1285  1 000275   000023 235007                    LDA     19,DL
         1 000276   200007 755100                    STA     I,,AUTO
PL6.E3A0      #002=FMN$GETFIT File=FMN$OPNF.:E05TSI                              TUE 07/29/97 16:56 Page:294

     1613     1286    1      GOTO FMNE$BADFIT;

   1286  1 000277   000316 710000 1                  TRA     FMNE$BADFIT

     1614     1287    1   BADFIT18:I=18;

   1287  1 000300   000022 235007       BADFIT18     LDA     18,DL
         1 000301   200007 755100                    STA     I,,AUTO

     1615     1288    1      GOTO FMNE$BADFIT;

   1288  1 000302   000316 710000 1                  TRA     FMNE$BADFIT

     1616     1289    1   BADFIT16:I=16;

   1289  1 000303   000020 235007       BADFIT16     LDA     16,DL
         1 000304   200007 755100                    STA     I,,AUTO

     1617     1290    1      GOTO FMNE$BADFIT;

   1290  1 000305   000316 710000 1                  TRA     FMNE$BADFIT

     1618     1291    1   BADFIT15:I=15;

   1291  1 000306   000017 235007       BADFIT15     LDA     15,DL
         1 000307   200007 755100                    STA     I,,AUTO

     1619     1292    1      GOTO FMNE$BADFIT;

   1292  1 000310   000316 710000 1                  TRA     FMNE$BADFIT

     1620     1293    1   BADFIT14:I=14;

   1293  1 000311   000016 235007       BADFIT14     LDA     14,DL
         1 000312   200007 755100                    STA     I,,AUTO

PL6.E3A0      #002=FMN$GETFIT File=FMN$OPNF.:E05TSI                              TUE 07/29/97 16:56 Page:295
     1621     1294    1      GOTO FMNE$BADFIT;

   1294  1 000313   000316 710000 1                  TRA     FMNE$BADFIT

     1622     1295    1   BADFIT13:I=13;

   1295  1 000314   000015 235007       BADFIT13     LDA     13,DL
         1 000315   200007 755100                    STA     I,,AUTO

     1623     1296                    /**/
     1624     1297    1   FMNE$BADFIT:
     1625     1298    1      B$JIT$->B$JIT.ERR=FMN$E$BADFIT;

   1298  1 000316   000000 236000 0     FMNE$BADFIT  LDQ     FMN$E$BADFIT
         1 000317   000000 470400 xsym               LDP0    B$JIT$
         1 000320   000012 756100                    STQ     10,,PR0

     1626     1299    1      IF BUFNO<5 THEN JDCB$=F$DCB.CFU$;

   1299  1 000321   200004 471500                    LDP1    @BUFNO,,AUTO
         1 000322   100000 235100                    LDA     0,,PR1
         1 000323   000005 115007                    CMPA    5,DL
         1 000324   000331 603000 1                  TRC     s:1300

   1299  1 000325   200010 473500                    LDP3    JDCB$,,AUTO
         1 000326   300066 236100                    LDQ     54,,PR3
         1 000327   200010 756100                    STQ     JDCB$,,AUTO
         1 000330   000333 710000 1                  TRA     s:1301

     1627     1300    1      ELSE JDCB$=ADDR(BUFNO);

   1300  1 000331   200004 236100                    LDQ     @BUFNO,,AUTO
         1 000332   200010 756100                    STQ     JDCB$,,AUTO

     1628     1301    1      CALL FMB$LOGERR(%E$FIT,I,8-2*FAST,JDCB$->FM$CFU,BUF$,0,

   1301  1 000333   200003 473500                    LDP3    @BUF$,,AUTO
PL6.E3A0      #002=FMN$GETFIT File=FMN$OPNF.:E05TSI                              TUE 07/29/97 16:56 Page:296
         1 000334   300000 236100                    LDQ     0,,PR3
         1 000335   000022 772000                    QRL     18
         1 000336   200012 756100                    STQ     FAST+1,,AUTO
         1 000337   200006 236100                    LDQ     LOC$,,AUTO
         1 000340   000022 772000                    QRL     18
         1 000341   200012 136100                    SBLQ    FAST+1,,AUTO
         1 000342   000004 235007                    LDA     4,DL
         1 000343   200011 135100                    SBLA    FAST,,AUTO
         1 000344   000001 735000                    ALS     1
         1 000345   200013 755100                    STA     FAST+2,,AUTO
         1 000346   200014 756100                    STQ     FAST+3,,AUTO
         1 000347   200005 634500                    EPPR4   STAMP,,AUTO
         1 000350   200025 454500                    STP4    FAST+12,,AUTO
         1 000351   200014 635500                    EPPR5   FAST+3,,AUTO
         1 000352   200024 455500                    STP5    FAST+11,,AUTO
         1 000353   000012 237000 2                  LDAQ    10
         1 000354   200022 757100                    STAQ    FAST+9,,AUTO
         1 000355   200003 236100                    LDQ     @BUF$,,AUTO
         1 000356   200010 235100                    LDA     JDCB$,,AUTO
         1 000357   200020 757100                    STAQ    FAST+7,,AUTO
         1 000360   200013 636500                    EPPR6   FAST+2,,AUTO
         1 000361   200017 456500                    STP6    FAST+6,,AUTO
         1 000362   200007 637500                    EPPR7   I,,AUTO
         1 000363   200016 457500                    STP7    FAST+5,,AUTO
         1 000364   000011 236000 2                  LDQ     9
         1 000365   200015 756100                    STQ     FAST+4,,AUTO
         1 000366   200015 630500                    EPPR0   FAST+4,,AUTO
         1 000367   000007 631400 2                  EPPR1   7
         1 000370   000000 701000 xent               TSX1    FMB$LOGERR
         1 000371   000000 011000                    NOP     0

     1629     1302    1        SIZEW(FM$GRAN)+1,POFFW(LOC$,BUF$),STAMP);
     1630     1303    1      JDCB$=B$JIT.DCB$;

   1303  1 000372   000000 470400 xsym               LDP0    B$JIT$
         1 000373   000232 236100                    LDQ     154,,PR0
         1 000374   200010 756100                    STQ     JDCB$,,AUTO
PL6.E3A0      #002=FMN$GETFIT File=FMN$OPNF.:E05TSI                              TUE 07/29/97 16:56 Page:297

   1303  1 000375                       RETALT       null
     1631     1304    1   RETALT:;
     1632     1305    1      IF FAST~=0 THEN B$JIT.ERR='0'B;

   1305  1 000375   200011 235100                    LDA     FAST,,AUTO
         1 000376   000401 600000 1                  TZE     s:1306

   1305  1 000377   000000 470400 xsym               LDP0    B$JIT$
         1 000400   000012 450100                    STZ     10,,PR0

     1633     1306    1      IF BUFNO<5 THEN F$DCB.BFR.DA(BUFNO)=F$DCB.CFU$->FM$CFU.FITSDA;

   1306  1 000401   200004 470500                    LDP0    @BUFNO,,AUTO
         1 000402   000000 235100                    LDA     0,,PR0
         1 000403   000005 115007                    CMPA    5,DL
         1 000404   000415 603000 1                  TRC     s:1307

   1306  1 000405   000000 720100                    LXL0    0,,PR0
         1 000406   200010 471500                    LDP1    JDCB$,,AUTO
         1 000407   100066 473500                    LDP3    54,,PR1
         1 000410   300000 236100                    LDQ     0,,PR3
         1 000411   100115 676110                    ERQ     77,X0,PR1
         1 000412   000032 376000 xsym               ANQ     B_VECTNIL+26
         1 000413   100115 656110                    ERSQ    77,X0,PR1
         1 000414   000420 710000 1                  TRA     s:1308

     1634     1307    1      ELSE F$DCB.BFR.DA(1)=BUFNO;

   1307  1 000415   200010 471500                    LDP1    JDCB$,,AUTO
         1 000416   000000 236100                    LDQ     0,,PR0
         1 000417   100116 552134                    STBQ    78,'34'O,PR1

     1635     1308    1      F$DCB.CSEED=I;/* RETURN SUBCODE FOR FIX */

   1308  1 000420   200007 235100                    LDA     I,,AUTO
         1 000421   100072 755100                    STA     58,,PR1
PL6.E3A0      #002=FMN$GETFIT File=FMN$OPNF.:E05TSI                              TUE 07/29/97 16:56 Page:298

     1636     1309    1      IF B$JIT.ERR.CODE=%E$FIT THEN B$JIT.ERR=FMN$E$BADFIT;

   1309  1 000422   000000 473400 xsym               LDP3    B$JIT$
         1 000423   300012 236100                    LDQ     10,,PR3
         1 000424   377770 376007                    ANQ     131064,DL
         1 000425   000510 116007                    CMPQ    328,DL
         1 000426   000431 601000 1                  TNZ     s:1310

   1309  1 000427   000000 236000 0                  LDQ     FMN$E$BADFIT
         1 000430   300012 756100                    STQ     10,,PR3

     1637     1310    1      ALTRETURN;

   1310  1 000431   000000 702200 xent               TSX2  ! X66_AALT

FMN$E$BADFIT
 Sect OctLoc
   0     000   061516 002572                                                    1...

(unnamed)
 Sect OctLoc
   2     000   743777 777777   000027 006000   000002 006000   000003 006000    ................
   2     004   000001 400000   777777 007777   000005 006000   000011 000000    ................
   2     010   000000 000051   000010 006000   000002 006000   000010 006000    ...)............
     1638     1311                    /**/
     1639     1312    1   END FMN$GETFIT;
     1640     1313        %EOD;

PL6.E3A0      #002=FMN$GETFIT File=FMN$OPNF.:E05TSI                              TUE 07/29/97 16:56 Page:299
--  Include file information  --

   F_ERRORS_C.:E05TOU  is referenced.
   F$DCB.:E05TOU  is referenced.
   FM$MACROS.:E05TOU  is referenced.
   B$JIT_C.:E05TOU  is referenced.
   F$JIT_C.:E05TOU  cannot be made into a system file and is referenced.
      No diagnostics issued in procedure FMN$GETFIT.
PL6.E3A0      #002=FMN$GETFIT File=FMN$OPNF.:E05TSI                              TUE 07/29/97 16:56 Page:300

 **** Variables and constants ****

  ****  Section 000 RoData FMN$GETFIT

  ****  Scalars and arrays  ****
OctLoc.c.b A Datatyp(siz) R M Lvl/name                 OctLoc.c.b A Datatyp(siz) R M Lvl/name

     0-0-0/b STRC        r     1 FMN$E$BADFIT

  ****  Auto variables  ****

  ****  Scalars and arrays  ****
OctLoc.c.b A Datatyp(siz) R M Lvl/name                 OctLoc.c.b A Datatyp(siz) R M Lvl/name

     3-0-0/w PTR         r     1 @BUF$                      4-0-0/w PTR         r     1 @BUFNO
    *0-0-0/w PTR         r     1 BUF$                      *0-0-0/w UBIN        r     1 BUFNO
    11-0-0/w UBIN        r     1 FAST                      *0-0-0/w SBIN        r     1 FDA
     7-0-0/w SBIN        r     1 I                          7-0-0/w UBIN        r     1 IU
    10-0-0/w PTR         r     1 JDCB$                      6-0-0/w PTR         r     1 LOC$
     5-0-0/w UBIN        r     1 STAMP

  ****  SYMREF variables  ****

  ****  Scalars and arrays  ****
OctLoc.c.b A Datatyp(siz) R M Lvl/name                 OctLoc.c.b A Datatyp(siz) R M Lvl/name

     0-0-0/w PTR         r     1 B$JIT$                     0-0-0/w PTR         r     1 FM$BUF$(0:31)
     0-0-0/w UBIN        r     1 FM_FRZERO

  ****  BASED and DCB variables  ****

  ****  Scalars and arrays  ****
OctLoc.c.b A Datatyp(siz) R M Lvl/name                 OctLoc.c.b A Datatyp(siz) R M Lvl/name

     0-0-0/d STRC(8856)  r     1 B$JIT                      0-0-0/w STRC(576)   r     1 CODE01
     0-0-0/w STRC(324)   r     1 CODE03                     0-0-0/d ASTR(3528)  r     1 F$DCB
     0-0-0/w STRC(288)   r     1 FM$CFU                     0-0-0/w STRC(1116)  r     1 FM$FIT
PL6.E3A0      #002=FMN$GETFIT File=FMN$OPNF.:E05TSI                              TUE 07/29/97 16:56 Page:301
     0-0-0/w STRC(180)   r     1 FM$GRAN


   Procedure FMN$GETFIT requires 282 words for executable code.
   Procedure FMN$GETFIT requires 22 words of local(AUTO) storage.
PL6.E3A0      #002=FMN$GETFIT File=FMN$OPNF.:E05TSI                              TUE 07/29/97 16:56 Page:302
          *** CROSS REFERENCE LISTING ***
**     DENOTES     IDENTIFIER DEFINITION
<<                 IDENTIFIER'S VALUE SET
>>                 IDENTIFIER'S VALUE USED
<>                 IDENTIFIER SET AND/OR USED
--                 IDENTIFIER REFERENCED
PL6.E3A0      #002=FMN$GETFIT File=FMN$OPNF.:E05TSI                              TUE 07/29/97 16:56 Page:303
          MINI XREF LISTING

B$JIT.DCB$
       463**DCL      1232>>ASSIGN   1257>>ASSIGN   1303>>ASSIGN
B$JIT.ERR
       373**DCL      1298<<ASSIGN   1305<<ASSIGN   1309<<ASSIGN
B$JIT.ERR.CODE
       374**DCL      1309>>IF
B$JIT.ERR.MID
       374**DCL       374--REDEF
B$JIT$
        43**DCL       368--IMP-PTR  1232>>ASSIGN   1257>>ASSIGN   1298>>ASSIGN   1303>>ASSIGN   1305>>ASSIGN
      1309>>IF       1309>>ASSIGN
BADFIT13
      1295**LABEL    1272--GOTO
BADFIT14
      1293**LABEL    1275--GOTO
BADFIT15
      1291**LABEL    1278--GOTO
BADFIT16
      1289**LABEL    1279--GOTO
BADFIT18
      1287**LABEL    1281--CALLALT
BUF$
        28**DCL        15--PROC      953--IMP-PTR  1239<<ASSIGN   1247<>CALL     1251--ENTRY    1254--ENTRY
      1259<>CALL     1270>>ASSIGN   1271>>IF       1277>>ASSIGN   1278>>IF       1279>>IF       1280>>ASSIGN
      1301<>CALL     1301>>CALL
BUFNO
        29**DCL        15--PROC       30--REDEF    1240<<ASSIGN   1247<>CALL     1248>>ASSIGN   1251--ENTRY
      1254--ENTRY    1299>>IF       1300--ASSIGN   1306>>IF       1306>>ASSIGN   1307>>ASSIGN
CHKFIT
      1268**LABEL    1241--GOTO     1249--GOTO
CODE01.HASH
       966**DCL      1276>>ASSIGN
PL6.E3A0      #002=FMN$GETFIT File=FMN$OPNF.:E05TSI                              TUE 07/29/97 16:56 Page:304
CODE01.NXTNTS
       966**DCL      1275>>IF
CODE01.XTNT
       966**DCL       967--REDEF
CODE03.NSTAMP
       973**DCL      1283>>IF       1284--ASSIGN
F$DCB.ACTPOS
       928**DCL       928--REDEF
F$DCB.ARS
       903**DCL       903--REDEF
F$DCB.ATTR
       921**DCL       922--REDEF
F$DCB.BFR.BUFX
       948**DCL      1239>>ASSIGN   1241>>IF
F$DCB.BFR.DA
       948**DCL      1237>>IF       1237>>IF       1237>>IF       1248<<ASSIGN   1306<<ASSIGN   1307<<ASSIGN
F$DCB.BORROW
       936**DCL       936--REDEF     936--REDEF     936--REDEF
F$DCB.CFU$
       937**DCL      1233>>ASSIGN   1299>>ASSIGN   1306>>ASSIGN
F$DCB.CSEED
       940**DCL      1308<<ASSIGN
F$DCB.DCBNAME.L
       950**DCL       950--IMP-SIZ
F$DCB.EOMCHAR
       907**DCL       907--REDEF
F$DCB.FLDID
       931**DCL       931--REDEF
F$DCB.FORM$
       925**DCL       925--REDEF
F$DCB.FSECT
       941**DCL       941--REDEF
F$DCB.FSN
       918**DCL       918--REDEF     918--REDEF     919--REDEF
F$DCB.GTYP
       932**DCL      1244<<ASSIGN   1258<<ASSIGN
PL6.E3A0      #002=FMN$GETFIT File=FMN$OPNF.:E05TSI                              TUE 07/29/97 16:56 Page:305
F$DCB.HEADER$
       924**DCL       924--REDEF
F$DCB.IXTNSIZE
       922**DCL       922--REDEF
F$DCB.LASTSTA$
       912**DCL       912--REDEF
F$DCB.LVL
       937**DCL       937--REDEF
F$DCB.NAME.C
       912**DCL       912--REDEF
F$DCB.NOEOF
       933**DCL       933--REDEF
F$DCB.NRECS
       923**DCL       923--REDEF
F$DCB.NRECX
       942**DCL       942--REDEF
F$DCB.OHDR
       934**DCL       934--REDEF
F$DCB.ORG
       917**DCL       917--REDEF
F$DCB.PRECNO
       940**DCL       940--REDEF
F$DCB.RCSZ
       945**DCL       945--REDEF
F$DCB.RES
       913**DCL       913--REDEF
F$DCB.SETX
       925**DCL       925--REDEF
F$DCB.TAB$
       924**DCL       925--REDEF
F$DCB.TDA
       939**DCL       939--REDEF
F$DCB.WSN
       914**DCL       914--REDEF
FAST
        39**DCL      1246<<ASSIGN   1252<<ASSIGN   1255<<ASSIGN   1259<>CALL     1301>>CALL     1305>>IF
PL6.E3A0      #002=FMN$GETFIT File=FMN$OPNF.:E05TSI                              TUE 07/29/97 16:56 Page:306
FDA
        30**DCL      1259<>CALL     1268>>ASSIGN
FM$BUF$
      1222**DCL      1239>>ASSIGN
FM$CFU
       960**DCL      1301<>CALL
FM$CFU.ACCTX
       961**DCL       961--REDEF
FM$CFU.AFIT
       960**DCL      1235>>IF       1248>>IF
FM$CFU.FITSDA
       961**DCL      1235>>ASSIGN   1237>>IF       1245>>ASSIGN   1306>>ASSIGN
FM$FIT.CODES.CODE
       957**DCL      1272>>IF
FM$FIT.CODES.ITEMX
       957**DCL      1274>>ASSIGN
FM$FIT.CODES.NDW
       957**DCL      1273>>ASSIGN
FM$GRAN
       953**DCL      1270--ASSIGN   1280--ASSIGN   1301--CALL
FM$GRAN.HDR
       953**DCL      1277--ASSIGN   1279>>IF
FM$GRAN.LVL
       953**DCL      1271>>IF
FM$GRAN.STAMP
       953**DCL      1278>>IF
FM$GRAN.STAMP.HASH
       953**DCL      1276<<ASSIGN
FMB$LOGERR
      1228**DCL-ENT  1301--CALL
FMD$REDBUF
      1227**DCL-ENT  1247--CALL     1259--CALL
FMM$NSTAMP
      1229**DCL-ENT  1282--CALL
FMN$E$BADFIT
      1219**DCL      1298>>ASSIGN   1309>>ASSIGN
PL6.E3A0      #002=FMN$GETFIT File=FMN$OPNF.:E05TSI                              TUE 07/29/97 16:56 Page:307
FMNE$BADFIT
      1298**LABEL    1286--GOTO     1288--GOTO     1290--GOTO     1292--GOTO     1294--GOTO
FMO$LOCCODP
      1230**DCL-ENT  1281--CALL
FM_FRZERO
      1223**DCL      1234>>ASSIGN   1248>>ASSIGN
I
        36**DCL        37--REDEF    1236<<DOINDEX  1237>>IF       1237>>IF       1237>>IF       1240>>ASSIGN
      1273<<ASSIGN   1275>>IF       1285<<ASSIGN   1287<<ASSIGN   1289<<ASSIGN   1291<<ASSIGN   1293<<ASSIGN
      1295<<ASSIGN   1301<>CALL     1308>>ASSIGN
IU
        37**DCL      1239>>ASSIGN   1241>>IF
JDCB$
        38**DCL       903--IMP-PTR  1232<<ASSIGN   1233>>ASSIGN   1237>>IF       1237>>IF       1237>>IF
      1239>>ASSIGN   1241>>IF       1244>>ASSIGN   1248>>ASSIGN   1257<<ASSIGN   1258>>ASSIGN   1299<<ASSIGN
      1299>>ASSIGN   1300<<ASSIGN   1301>>CALL     1303<<ASSIGN   1306>>ASSIGN   1306>>ASSIGN   1307>>ASSIGN
      1308>>ASSIGN
LOC$
        35**DCL       957--IMP-PTR   960--IMP-PTR   970--IMP-PTR  1233<<ASSIGN   1235>>IF       1235>>ASSIGN
      1237>>IF       1245>>ASSIGN   1248>>IF       1270<<ASSIGN   1272>>IF       1273>>ASSIGN   1274<<ASSIGN
      1274>>ASSIGN   1274>>ASSIGN   1275>>IF       1276>>ASSIGN   1277<<ASSIGN   1280<<ASSIGN   1281<>CALL
      1283>>IF       1284<<ASSIGN   1284>>ASSIGN   1301>>CALL
READFIT
      1255**LABEL    1253--GOTO
RETALT
      1303**LABEL    1247--CALLALT  1259--CALLALT
STAMP
        34**DCL      1234<<ASSIGN   1235<<ASSIGN   1237>>IF       1245<<ASSIGN   1247<>CALL     1268<<ASSIGN
      1271<<ASSIGN   1276--ASSIGN   1278>>IF       1282<>CALL     1283>>IF       1301<>CALL

PL6.E3A0      #003=FMN$CHKFLACN File=FMN$OPNF.:E05TSI                            TUE 07/29/97 16:56 Page:308
     1641        1        /*T***********************************************************/
     1642        2        /*T*                                                         */
     1643        3        /*T* Copyright (c) Bull HN Information Systems Inc., 1997    */
     1644        4        /*T*                                                         */
     1645        5        /*T***********************************************************/
     1646        6                    /*F*  NAME:   FMN$CHKFLACN
     1647        7                    *     PURPOSE: VERIFY THAT THE FILENAME GIVEN AS THE OPEN
     1648        8                    *              PARAMETER IS A LEGAL FILENAME, AND THAT THE ACCT IS
     1649        9                    *              7-BIT ASCII CHARACTERS.
     1650       10                    */
     1651       11        FMN$CHKFLACN: PROC(JDCB$) ALTRET;
     1652       12                    /**/
     1653       13        %MACRO F$DCB#(BASED=BASED);
     1654       14        %INCLUDE F$DCB;
     1655       63        %MEND;
     1656       64        %F$DCB#(BASED="BASED(JDCB$)");
     1657      114        %INCLUDE F$JIT_C;
     1658      544        %INCLUDE CP_6_SUBS;
     1659     1084        %INCLUDE F_ERRORS_C;
     1660     1324        %INCLUDE FM$MACROS;
     1661     1699        %SUB FCG#='0615'O;
     1662     1700        %SUB MID#='16'O;
     1663     1701                    /**/
     1664     1702                    /* ENTRY REFS */
     1665     1703                    /**/
     1666     1704    1   DCL FMN$SETX ENTRY(1) ALTRET; /* ST DCB.SETX FROM INPUT TEXT */
     1667     1705                    /**/
     1668     1706                    /* PARAMETER DATA */
     1669     1707                    /**/
     1670     1708    1   DCL JDCB$ PTR; /* POINTER TO CURRENT DCB */
     1671     1709    1   DCL B$JIT$ PTR SYMREF; /* POINTER TO JIT */
     1672     1710    1   DCL FM_SYSSETX UBIN SYMREF;
     1673     1711                    /**/
     1674     1712                    /* SPECIAL BASED ITEMS */
     1675     1713                    /**/
     1676     1714    1   DCL NAME BASED(P1$) CHAR(31);
     1677     1715    1   DCL ACCT BASED BIT(72) ALIGNED;
PL6.E3A0      #003=FMN$CHKFLACN File=FMN$OPNF.:E05TSI                            TUE 07/29/97 16:56 Page:309
     1678     1716                    /* CONSTANTS */
     1679     1717    1   DCL NASCII7 CONSTANT BIT(72) INIT('600600600600600600600600'O);
     1680     1718    1   DCL 1 TFCHARS CONSTANT,
     1681     1719    1         2 T CHAR(0) INIT( /* ANSTAPE ONLY CHARS */
     1682     1720    1   '!"%&''()*+,./;<=>?'),
     1683     1721    1         2 TF CHAR(0) INIT( /* COMMON TO BOTH */
     1684     1722    1   ':ALSKDJFHGYTURIEOWPQBVNCMXZ1234567890-_'),
     1685     1723    1         2 F CHAR(0) INIT( /* FILE ONLY */
     1686     1724    1   '$alskdjfhgyturieowpqbvncmxz[\]^`{|}~');
     1687     1725    1   DCL VALIDCHARS REDEF TFCHARS CHAR(92);
     1688     1726    1   DCL FM_STARCHARS CONSTANT SYMDEF CHAR(8)INIT(' GLASNXI');
     1689     1727        %ERRCODE(NAME=FMN$E$INVSTAR,COD#=%E$INVSTAR);
     1690     1731        %ERRCODE(NAME=FMN$E$BADFNME,COD#=%E$BADFNME);
     1691     1735                    /**/
     1692     1736                    /* AUTOMATIC DATA */
     1693     1737                    /**/
     1694     1738    1   DCL I SBIN; /* INDEX HOLDER */
     1695     1739    1   DCL N SBIN; /* FILENAME SIZE */
     1696     1740    1   DCL P1$ PTR; /* INTERNAL POINTER */
     1697     1741        %EJECT;
PL6.E3A0      #003=FMN$CHKFLACN File=FMN$OPNF.:E05TSI                            TUE 07/29/97 16:56 Page:310
     1698     1742                    /* PROCEDURE */
     1699     1743    1      N=JDCB$->F$DCB.NAME.L;
     1700     1744    1      JDCB$->F$DCB.STARX=0;
     1701     1745    1      IF N > 31 THEN GOTO FMNE$BADFNME;
     1702     1746                    /*E*     ERROR:  FMN-E$BADFNME-E
     1703     1747                    *        MESSAGE:Improper name or account%: %FN%
     1704     1748                    *        MESSAGE1: A permanent filename must consist of 1 to 31
     1705     1749                    characters: alpha-numeric or $-_:[\]^'{|}~. An account
     1706     1750                    name must consist of non-control, 7-bit ASCII characters.
     1707     1751                    A standard format ANS tape filename must be 1 to 17
     1708     1752                    characters: upper case, numeric, !"%&'()*+,./?;:<>=-.
     1709     1753                    */
     1710     1754    1      IF F$DCB.IASN~=%FILE# THEN GOTO NOTSTRSCR;
     1711     1755        %EJECT;
PL6.E3A0      #003=FMN$CHKFLACN File=FMN$OPNF.:E05TSI                            TUE 07/29/97 16:56 Page:311
     1712     1756    2      IF F$DCB.FUN=%CREATE# AND F$DCB.DISP=%SCRATCH# THEN DO;
     1713     1757    2         F$DCB.SETX=FM_SYSSETX;
     1714     1758    2   RET:  RETURN;
     1715     1759    2         END;
     1716     1760    1      IF SUBSTR(F$DCB.NAME.C,0,1)~='*' THEN GOTO NOTSTRSCR;
     1717     1761    1      F$DCB.SETX=FM_SYSSETX;
     1718     1762    1      F$DCB.STARF='1'B;
     1719     1763    1      IF N~=2 THEN RETURN;
     1720     1764    1      CALL INDEX(I,SUBSTR(F$DCB.NAME.C,1,1),FM_STARCHARS) ALTRET(RET);
     1721     1765    1      IF I<SIZEW(B$JIT.STAR) THEN F$DCB.STARX=I;
     1722     1766    2      DO CASE(I); /* NOW DO THE ACCESS CONTROL */
     1723     1767    2      CASE(0,1,2); /* G, BLANK,  AND L: UP FOR GRABS */
     1724     1768    2         RETURN;
     1725     1769    2      CASE(3); /* A: INPUT TO ALL, ELSE CP ONLY */
     1726     1770    2   CPFILE: IF F$DCB.FUN=%IN# OR F$DCB.WSR=4 THEN RETURN;
     1727     1771    2      CASE(4); /* S: SAME AS A, BUT SHARE ALL */
     1728     1772    2         F$DCB.SHARE=%ALL#;
     1729     1773    2         GOTO CPFILE;
     1730     1774    2      CASE(7); /* I: ONLY FMSEC OR ASL */
     1731     1775    2         IF F$DCB.FUN=%IN# AND B$JIT.PRIV.ACTIVE.FMSEC
     1732     1776    2           OR F$DCB.WSR=6 THEN RETURN;
     1733     1777    2      END;     /* N, X, OR OTHERWISE: ONLY MONITOR */
     1734     1778    1      IF F$DCB.WSR=1 THEN RETURN;
     1735     1779                    /*E* ERROR: FMN-E$INVSTAR-E
     1736     1780                    *        MESSAGE: File %FN is not accessible from your domain
     1737     1781                  *        MESSAGE1:*N and *X are reserved for CP-6, *A and *S may be opened
     1738     1782                   *        only input except by a command processor, and *I is reserved for
     1739     1783                    *        alternate shared libraries.% %FN was the culprit this time.%
     1740     1784                    */
     1741     1785    1   FMNE$INVSTAR: B$JIT$->B$JIT.ERR=FMN$E$INVSTAR;
     1742     1786    1      ALTRETURN;
     1743     1787    1   NOTSTRSCR:;
     1744     1788    2      IF F$DCB.FUN=%CREATE# THEN DO;
     1745     1789    2         IF N=0 THEN GOTO FMNE$BADFNME;
     1746     1790    2         P1$=ADDR(JDCB$->F$DCB.NAME.C);
     1747     1791                    /*
     1748     1792                    *  FOR ALL CREATE OPENS VERIFY THAT THE CHARACTERS IN THE FILE NAME
PL6.E3A0      #003=FMN$CHKFLACN File=FMN$OPNF.:E05TSI                            TUE 07/29/97 16:56 Page:312
     1749     1793                    *  CONSIST OF THE FOLLOWING:
     1750     1794                    *                       1)  UPPER CASE LETTERS
     1751     1795                    *                       2)  LOWER CASE LETTERS
     1752     1796                    *                       3)  NUMBERS
     1753     1797                    *                       4)  SPECIAL CHARACTERS : $ - _
     1754     1798                    */
     1755     1799    2         IF F$DCB.IASN=%FILE# OR F$DCB.ORG<%FIXED# OR F$DCB.ORG>%UNDEF#
     1756     1800    3         THEN DO WHILE(N>0);
     1757     1801    3            N=N-1;
     1758     1802    3            CALL INDEX(I,SUBSTR(NAME,N,1),SUBSTR(VALIDCHARS,SIZEC(TFCHARS.T),
     1759     1803    3              SIZEC(TFCHARS.TF)+SIZEC(TFCHARS.F))) ALTRET(FMNE$BADFNME);
     1760     1804    3            END;
     1761     1805                    /*
     1762     1806                    *  UNLESS ITS AN ANS TAPE FORMAT FILE, WHICH MUST BE:
     1763     1807                    *                        1)  UPPER CASE LETTERS
     1764     1808                    *                        2)  NUMBERS
     1765     1809                    *                        3   SPECIALS :-!"%&'()*+,./?;<>=
     1766     1810                    */
     1767     1811    3         ELSE DO WHILE(N>0);
     1768     1812    3            N=N-1;
     1769     1813    3            CALL INDEX(I,SUBSTR(NAME,N,1),SUBSTR(VALIDCHARS,0,
     1770     1814    3              SIZEC(TFCHARS.T)+SIZEC(TFCHARS.TF))) ALTRET(FMNE$BADFNME);
     1771     1815    3            END;
     1772     1816        %EJECT;
PL6.E3A0      #003=FMN$CHKFLACN File=FMN$OPNF.:E05TSI                            TUE 07/29/97 16:56 Page:313
     1773     1817    2   CHKACCN:;
     1774     1818                    /*
     1775     1819                    *  NOW VERIFY ACCOUNT NUMBER
     1776     1820                    */
     1777     1821    2         IF ADDR(JDCB$->F$DCB.ACCT)->ACCT&NASCII7 THEN GOTO FMNE$BADFNME;
     1778     1822    2         CALL INDEX(I,' ',F$DCB.ACCT);
     1779     1823    2         IF I=0 OR SUBSTR(F$DCB.ACCT,I,8-I)~=' ' THEN GOTO FMNE$BADFNME;
     1780     1824    2         CALL INDEX(I,BINASC(0),F$DCB.ACCT,0,'037'O)ALTRET(CHKACCT1);
     1781     1825    2         GOTO FMNE$BADFNME; /* MUST NOT HAVE CONTROL CHARS OR IMBEDDED BLANKS*/
     1782     1826    2   CHKACCT1: CALL INDEX(I,BINASC(127),F$DCB.ACCT)ALTRET(SELECTPS);
     1783     1827    2         GOTO FMNE$BADFNME;/* NOT EVEN DEL */
     1784     1828    2         END;
     1785     1829    1   SELECTPS:;
     1786     1830    2      IF F$DCB.IASN=%TAPE# THEN DO;
     1787     1831    2         IF F$DCB.NAME.L>17 AND F$DCB.ORG>=%FIXED#
     1788     1832    2           AND F$DCB.ORG~=%RESTRICT#
     1789     1833    2         THEN GOTO FMNE$BADFNME;
     1790     1834    2         END;
     1791     1835    1      IF F$DCB.IASN~=%FILE# THEN RETURN;
     1792     1836    1      IF F$DCB.PSN~=' ' THEN CALL FMN$SETX(F$DCB.PSN)ALTRET(RETALT);
     1793     1837    1      ELSE F$DCB.SETX=0;
     1794     1838    1      RETURN;
     1795     1839    1   FMN$CHKACCN: ENTRY(JDCB$)ALTRET;
     1796     1840    1      GOTO CHKACCN;
     1797     1841                    /**/
     1798     1842    1   FMNE$BADFNME: B$JIT$->B$JIT.ERR=FMN$E$BADFNME;
     1799     1843    1   RETALT:
     1800     1844    1      ALTRETURN;
     1801     1845    1   END FMN$CHKFLACN;
     1802     1846        %EOD;

PL6.E3A0      #003=FMN$CHKFLACN File=FMN$OPNF.:E05TSI                            TUE 07/29/97 16:56 Page:314
--  Include file information  --

   FM$MACROS.:E05TOU  is referenced.
   F_ERRORS_C.:E05TOU  is referenced.
   CP_6_SUBS.:E05TOU  is referenced.
   B$JIT_C.:E05TOU  is referenced.
   F$JIT_C.:E05TOU  cannot be made into a system file and is referenced.
   F$DCB.:E05TOU  is referenced.
      No diagnostics issued in procedure FMN$CHKFLACN.

   Procedure FMN$CHKFLACN requires 226 words for executable code.
   Procedure FMN$CHKFLACN requires 10 words of local(AUTO) storage.

PL6.E3A0      #003=FMN$CHKFLACN File=FMN$OPNF.:E05TSI                            TUE 07/29/97 16:56 Page:315

 Object Unit name= FMN$CHKFLACN                               File name= FMN$OPNF.:E05TOU
 UTS= JUL 29 '97 16:56:48.64 TUE                              Compiler= PL-6/E31         Sev=      00
 SharedLib= :SHARED_SYSTEM                                    Alt SharedLib=


    ****  Control sections  ****

 Sect   Type Bound  Init  Size OctSiz  Section name(segment info)
    0  RoData even  UTS     29     35  FMN$CHKFLACN
    1   Proc  even  none   226    342  FMN$CHKFLACN
    2  RoData even  none     5      5  FMN$CHKFLACN

    ****  Entry defs  ****

                              Check   Calling
                             calling  sequence
  Sect OctLoc Primary Altret sequence   type   Parms  Name
     1      0   yes    yes     yes      Std        1  FMN$CHKFLACN
     1    333          yes     yes      Std        1  FMN$CHKACCN

  ****  Data defs  ****

 Sect OctLoc  Name                           Sect OctLoc  Name
    0     31  FM_STARCHARS

  ****  Entry refs  ****

         Check        Calling
        calling       sequence
Altret sequence SRef   type   Args  Name
 yes     yes           Std       1 FMN$SETX
                       nStd      0 X66_AUTO_1
                       nStd      0 X66_ARET
                       Std       0 B_CONSPOOL_D
                       nStd      0 X66_AALT
PL6.E3A0      #003=FMN$CHKFLACN File=FMN$OPNF.:E05TSI                            TUE 07/29/97 16:56 Page:316

  ****  Data refs  ****

  Flags:  r = read only, s = secondary
Flgs Name                             Flgs Name                             Flgs Name
     B$JIT$                                FM_SYSSETX                            B_VECTNIL
PL6.E3A0      #003=FMN$CHKFLACN File=FMN$OPNF.:E05TSI                            TUE 07/29/97 16:56 Page:317


     1641        1        /*T***********************************************************/
     1642        2        /*T*                                                         */
     1643        3        /*T* Copyright (c) Bull HN Information Systems Inc., 1997    */
     1644        4        /*T*                                                         */
     1645        5        /*T***********************************************************/
     1646        6                    /*F*  NAME:   FMN$CHKFLACN
     1647        7                    *     PURPOSE: VERIFY THAT THE FILENAME GIVEN AS THE OPEN
     1648        8                    *              PARAMETER IS A LEGAL FILENAME, AND THAT THE ACCT IS
     1649        9                    *              7-BIT ASCII CHARACTERS.
     1650       10                    */
     1651       11        FMN$CHKFLACN: PROC(JDCB$) ALTRET;

     11  1 000000   000000 700200 xent  FMN$CHKFLACN TSX0  ! X66_AUTO_1
         1 000001   000012 000001                    ZERO    10,1

     1652       12                    /**/
     1653       13        %MACRO F$DCB#(BASED=BASED);
     1654       14        %INCLUDE F$DCB;
     1655       63        %MEND;
     1656       64        %F$DCB#(BASED="BASED(JDCB$)");
     1657      114        %INCLUDE F$JIT_C;
     1658      544        %INCLUDE CP_6_SUBS;
     1659     1084        %INCLUDE F_ERRORS_C;
     1660     1324        %INCLUDE FM$MACROS;
     1661     1699        %SUB FCG#='0615'O;
     1662     1700        %SUB MID#='16'O;
     1663     1701                    /**/
     1664     1702                    /* ENTRY REFS */
     1665     1703                    /**/
     1666     1704    1   DCL FMN$SETX ENTRY(1) ALTRET; /* ST DCB.SETX FROM INPUT TEXT */
     1667     1705                    /**/
     1668     1706                    /* PARAMETER DATA */
     1669     1707                    /**/
     1670     1708    1   DCL JDCB$ PTR; /* POINTER TO CURRENT DCB */
     1671     1709    1   DCL B$JIT$ PTR SYMREF; /* POINTER TO JIT */
     1672     1710    1   DCL FM_SYSSETX UBIN SYMREF;
PL6.E3A0      #003=FMN$CHKFLACN File=FMN$OPNF.:E05TSI                            TUE 07/29/97 16:56 Page:318
     1673     1711                    /**/
     1674     1712                    /* SPECIAL BASED ITEMS */
     1675     1713                    /**/
     1676     1714    1   DCL NAME BASED(P1$) CHAR(31);
     1677     1715    1   DCL ACCT BASED BIT(72) ALIGNED;
     1678     1716                    /* CONSTANTS */
     1679     1717    1   DCL NASCII7 CONSTANT BIT(72) INIT('600600600600600600600600'O);
     1680     1718    1   DCL 1 TFCHARS CONSTANT,
     1681     1719    1         2 T CHAR(0) INIT( /* ANSTAPE ONLY CHARS */
     1682     1720    1   '!"%&''()*+,./;<=>?'),
     1683     1721    1         2 TF CHAR(0) INIT( /* COMMON TO BOTH */
     1684     1722    1   ':ALSKDJFHGYTURIEOWPQBVNCMXZ1234567890-_'),
     1685     1723    1         2 F CHAR(0) INIT( /* FILE ONLY */
     1686     1724    1   '$alskdjfhgyturieowpqbvncmxz[\]^`{|}~');
     1687     1725    1   DCL VALIDCHARS REDEF TFCHARS CHAR(92);
     1688     1726    1   DCL FM_STARCHARS CONSTANT SYMDEF CHAR(8)INIT(' GLASNXI');
     1689     1727        %ERRCODE(NAME=FMN$E$INVSTAR,COD#=%E$INVSTAR);
     1690     1731        %ERRCODE(NAME=FMN$E$BADFNME,COD#=%E$BADFNME);
     1691     1735                    /**/
     1692     1736                    /* AUTOMATIC DATA */
     1693     1737                    /**/
     1694     1738    1   DCL I SBIN; /* INDEX HOLDER */
     1695     1739    1   DCL N SBIN; /* FILENAME SIZE */
     1696     1740    1   DCL P1$ PTR; /* INTERNAL POINTER */
     1697     1741        %EJECT;
PL6.E3A0      #003=FMN$CHKFLACN File=FMN$OPNF.:E05TSI                            TUE 07/29/97 16:56 Page:319
     1698     1742                    /* PROCEDURE */
     1699     1743    1      N=JDCB$->F$DCB.NAME.L;

   1743  1 000002   200003 470500                    LDP0    @JDCB$,,AUTO
         1 000003   000000 471500                    LDP1    0,,PR0
         1 000004   100010 236100                    LDQ     8,,PR1
         1 000005   000033 772000                    QRL     27
         1 000006   200005 756100                    STQ     N,,AUTO

     1700     1744    1      JDCB$->F$DCB.STARX=0;

   1744  1 000007   000000 236000 2                  LDQ     0
         1 000010   100064 356100                    ANSQ    52,,PR1

     1701     1745    1      IF N > 31 THEN GOTO FMNE$BADFNME;

   1745  1 000011   200005 235100                    LDA     N,,AUTO
         1 000012   000037 115007                    CMPA    31,DL
         1 000013   000336 605400 1                  TPNZ    FMNE$BADFNME

     1702     1746                    /*E*     ERROR:  FMN-E$BADFNME-E
     1703     1747                    *        MESSAGE:Improper name or account%: %FN%
     1704     1748                    *        MESSAGE1: A permanent filename must consist of 1 to 31
     1705     1749                    characters: alpha-numeric or $-_:[\]^'{|}~. An account
     1706     1750                    name must consist of non-control, 7-bit ASCII characters.
     1707     1751                    A standard format ANS tape filename must be 1 to 17
     1708     1752                    characters: upper case, numeric, !"%&'()*+,./?;:<>=-.
     1709     1753                    */
     1710     1754    1      IF F$DCB.IASN~=%FILE# THEN GOTO NOTSTRSCR;

   1754  1 000014   000000 471500                    LDP1    0,,PR0
         1 000015   100103 236100                    LDQ     67,,PR1
         1 000016   000777 376007                    ANQ     511,DL
         1 000017   000001 116007                    CMPQ    1,DL
         1 000020   000153 601000 1                  TNZ     NOTSTRSCR

     1711     1755        %EJECT;
PL6.E3A0      #003=FMN$CHKFLACN File=FMN$OPNF.:E05TSI                            TUE 07/29/97 16:56 Page:320
     1712     1756    2      IF F$DCB.FUN=%CREATE# AND F$DCB.DISP=%SCRATCH# THEN DO;

   1756  1 000021   100032 236100                    LDQ     26,,PR1
         1 000022   000777 376003                    ANQ     511,DU
         1 000023   000003 116003                    CMPQ    3,DU
         1 000024   000034 601000 1                  TNZ     s:1760
         1 000025   100032 236100                    LDQ     26,,PR1
         1 000026   000777 376007                    ANQ     511,DL
         1 000027   000001 116007                    CMPQ    1,DL
         1 000030   000034 601000 1                  TNZ     s:1760

     1713     1757    2         F$DCB.SETX=FM_SYSSETX;

   1757  1 000031   000000 720000 xsym               LXL0    FM_SYSSETX
         1 000032   100051 440100                    SXL0    41,,PR1

     1714     1758    2   RET:  RETURN;

   1758  1 000033   000000 702200 xent  RET          TSX2  ! X66_ARET

     1715     1759    2         END;
     1716     1760    1      IF SUBSTR(F$DCB.NAME.C,0,1)~='*' THEN GOTO NOTSTRSCR;

   1760  1 000034   100010 236100                    LDQ     8,,PR1
         1 000035   000777 376003                    ANQ     511,DU
         1 000036   000052 116003                    CMPQ    42,DU
         1 000037   000153 601000 1                  TNZ     NOTSTRSCR

     1717     1761    1      F$DCB.SETX=FM_SYSSETX;

   1761  1 000040   000000 720000 xsym               LXL0    FM_SYSSETX
         1 000041   100051 440100                    SXL0    41,,PR1

     1718     1762    1      F$DCB.STARF='1'B;

   1762  1 000042   000000 471500                    LDP1    0,,PR0
         1 000043   200000 236003                    LDQ     65536,DU
PL6.E3A0      #003=FMN$CHKFLACN File=FMN$OPNF.:E05TSI                            TUE 07/29/97 16:56 Page:321
         1 000044   100064 256100                    ORSQ    52,,PR1

     1719     1763    1      IF N~=2 THEN RETURN;

   1763  1 000045   000002 115007                    CMPA    2,DL
         1 000046   000050 600000 1                  TZE     s:1764

   1763  1 000047   000000 702200 xent               TSX2  ! X66_ARET

     1720     1764    1      CALL INDEX(I,SUBSTR(F$DCB.NAME.C,1,1),FM_STARCHARS) ALTRET(RET);

   1764  1 000050   000000 471500                    LDP1    0,,PR0
         1 000051   000100 124400                    SCM     mask='000'O
         1 000052   000031 000010 0                  ADSC9   FM_STARCHARS             cn=0,n=8
         1 000053   100010 400001                    ADSC9   8,,PR1                   cn=2,n=1
         1 000054   200004 000100                    ARG     I,,AUTO
         1 000055   000033 606400 1                  TTN     RET

     1721     1765    1      IF I<SIZEW(B$JIT.STAR) THEN F$DCB.STARX=I;

   1765  1 000056   200004 235100                    LDA     I,,AUTO
         1 000057   000010 115007                    CMPA    8,DL
         1 000060   000066 605000 1                  TPL     s:1766

   1765  1 000061   200004 236100                    LDQ     I,,AUTO
         1 000062   000011 736000                    QLS     9
         1 000063   100064 676100                    ERQ     52,,PR1
         1 000064   007000 376007                    ANQ     3584,DL
         1 000065   100064 656100                    ERSQ    52,,PR1

     1722     1766    2      DO CASE(I); /* NOW DO THE ACCESS CONTROL */

   1766  1 000066   000010 115007                    CMPA    8,DL
         1 000067   000071 602005 1                  TNC     s:1766+3,AL
         1 000070   000141 710000 1                  TRA     s:1778
         1 000071   000101 710000 1                  TRA     s:1768
         1 000072   000101 710000 1                  TRA     s:1768
PL6.E3A0      #003=FMN$CHKFLACN File=FMN$OPNF.:E05TSI                            TUE 07/29/97 16:56 Page:322
         1 000073   000101 710000 1                  TRA     s:1768
         1 000074   000102 710000 1                  TRA     CPFILE
         1 000075   000115 710000 1                  TRA     s:1772
         1 000076   000141 710000 1                  TRA     s:1778
         1 000077   000141 710000 1                  TRA     s:1778
         1 000100   000123 710000 1                  TRA     s:1775

     1723     1767    2      CASE(0,1,2); /* G, BLANK,  AND L: UP FOR GRABS */

     1724     1768    2         RETURN;

   1768  1 000101   000000 702200 xent               TSX2  ! X66_ARET

     1725     1769    2      CASE(3); /* A: INPUT TO ALL, ELSE CP ONLY */

     1726     1770    2   CPFILE: IF F$DCB.FUN=%IN# OR F$DCB.WSR=4 THEN RETURN;

   1770  1 000102   200003 470500       CPFILE       LDP0    @JDCB$,,AUTO
         1 000103   000000 471500                    LDP1    0,,PR0
         1 000104   100032 236100                    LDQ     26,,PR1
         1 000105   000777 376003                    ANQ     511,DU
         1 000106   000002 116003                    CMPQ    2,DU
         1 000107   000114 600000 1                  TZE     s:1770
         1 000110   100040 236100                    LDQ     32,,PR1
         1 000111   000777 376003                    ANQ     511,DU
         1 000112   000004 116003                    CMPQ    4,DU
         1 000113   000141 601000 1                  TNZ     s:1778

   1770  1 000114   000000 702200 xent               TSX2  ! X66_ARET

     1727     1771    2      CASE(4); /* S: SAME AS A, BUT SHARE ALL */

     1728     1772    2         F$DCB.SHARE=%ALL#;

   1772  1 000115   000000 471500                    LDP1    0,,PR0
         1 000116   100031 236100                    LDQ     25,,PR1
         1 000117   000001 376000 2                  ANQ     1
PL6.E3A0      #003=FMN$CHKFLACN File=FMN$OPNF.:E05TSI                            TUE 07/29/97 16:56 Page:323
         1 000120   000200 276007                    ORQ     128,DL
         1 000121   100031 756100                    STQ     25,,PR1

     1729     1773    2         GOTO CPFILE;

   1773  1 000122   000102 710000 1                  TRA     CPFILE

     1730     1774    2      CASE(7); /* I: ONLY FMSEC OR ASL */

     1731     1775    2         IF F$DCB.FUN=%IN# AND B$JIT.PRIV.ACTIVE.FMSEC

   1775  1 000123   000000 471500                    LDP1    0,,PR0
         1 000124   100032 236100                    LDQ     26,,PR1
         1 000125   000777 376003                    ANQ     511,DU
         1 000126   000002 116003                    CMPQ    2,DU
         1 000127   000134 601000 1                  TNZ     s:1775+9
         1 000130   000000 473400 xsym               LDP3    B$JIT$
         1 000131   300013 236100                    LDQ     11,,PR3
         1 000132   100000 316003                    CANQ    32768,DU
         1 000133   000140 601000 1                  TNZ     s:1776
         1 000134   100040 236100                    LDQ     32,,PR1
         1 000135   000777 376003                    ANQ     511,DU
         1 000136   000006 116003                    CMPQ    6,DU
         1 000137   000141 601000 1                  TNZ     s:1778

     1732     1776    2           OR F$DCB.WSR=6 THEN RETURN;

   1776  1 000140   000000 702200 xent               TSX2  ! X66_ARET

     1733     1777    2      END;     /* N, X, OR OTHERWISE: ONLY MONITOR */

     1734     1778    1      IF F$DCB.WSR=1 THEN RETURN;

   1778  1 000141   000000 471500                    LDP1    0,,PR0
         1 000142   100040 236100                    LDQ     32,,PR1
         1 000143   000777 376003                    ANQ     511,DU
         1 000144   000001 116003                    CMPQ    1,DU
PL6.E3A0      #003=FMN$CHKFLACN File=FMN$OPNF.:E05TSI                            TUE 07/29/97 16:56 Page:324
         1 000145   000147 601000 1                  TNZ     FMNE$INVSTAR

   1778  1 000146   000000 702200 xent               TSX2  ! X66_ARET

     1735     1779                    /*E* ERROR: FMN-E$INVSTAR-E
     1736     1780                    *        MESSAGE: File %FN is not accessible from your domain
     1737     1781                  *       MESSAGE1:*N and *X are reserved for CP-6, *A and *S may be opened
     1738     1782                   *       only input except by a command processor, and *I is reserved for
     1739     1783                    *        alternate shared libraries.% %FN was the culprit this time.%
     1740     1784                    */
     1741     1785    1   FMNE$INVSTAR: B$JIT$->B$JIT.ERR=FMN$E$INVSTAR;

   1785  1 000147   000033 236000 0     FMNE$INVSTAR LDQ     FMN$E$INVSTAR
         1 000150   000000 473400 xsym               LDP3    B$JIT$
         1 000151   300012 756100                    STQ     10,,PR3

     1742     1786    1      ALTRETURN;

   1786  1 000152   000000 702200 xent               TSX2  ! X66_AALT

   1778  1 000153                       NOTSTRSCR    null
     1743     1787    1   NOTSTRSCR:;
     1744     1788    2      IF F$DCB.FUN=%CREATE# THEN DO;

   1788  1 000153   100032 236100                    LDQ     26,,PR1
         1 000154   000777 376003                    ANQ     511,DU
         1 000155   000003 116003                    CMPQ    3,DU
         1 000156   000270 601000 1                  TNZ     SELECTPS

     1745     1789    2         IF N=0 THEN GOTO FMNE$BADFNME;

   1789  1 000157   000000 115003                    CMPA    0,DU
         1 000160   000336 600000 1                  TZE     FMNE$BADFNME

     1746     1790    2         P1$=ADDR(JDCB$->F$DCB.NAME.C);

   1790  1 000161   200010 451500                    STP1    P1$+2,,AUTO
PL6.E3A0      #003=FMN$CHKFLACN File=FMN$OPNF.:E05TSI                            TUE 07/29/97 16:56 Page:325
         1 000162   200010 236100                    LDQ     P1$+2,,AUTO
         1 000163   000002 036000 2                  ADLQ    2
         1 000164   200006 756100                    STQ     P1$,,AUTO

     1747     1791                    /*
     1748     1792                    *  FOR ALL CREATE OPENS VERIFY THAT THE CHARACTERS IN THE FILE NAME
     1749     1793                    *  CONSIST OF THE FOLLOWING:
     1750     1794                    *                       1)  UPPER CASE LETTERS
     1751     1795                    *                       2)  LOWER CASE LETTERS
     1752     1796                    *                       3)  NUMBERS
     1753     1797                    *                       4)  SPECIAL CHARACTERS : $ - _
     1754     1798                    */
     1755     1799    2         IF F$DCB.IASN=%FILE# OR F$DCB.ORG<%FIXED# OR F$DCB.ORG>%UNDEF#

   1799  1 000165   000000 471500                    LDP1    0,,PR0
         1 000166   100103 236100                    LDQ     67,,PR1
         1 000167   000777 376007                    ANQ     511,DL
         1 000170   000001 116007                    CMPQ    1,DL
         1 000171   000200 600000 1                  TZE     s:1800
         1 000172   100032 236100                    LDQ     26,,PR1
         1 000173   777000 376003                    ANQ     -512,DU
         1 000174   017000 116003                    CMPQ    7680,DU
         1 000175   000200 602000 1                  TNC     s:1800
         1 000176   022000 116003                    CMPQ    9216,DU
         1 000177   000215 602000 1                  TNC     s:1811

     1756     1800    3         THEN DO WHILE(N>0);

   1800  1 000200   000000 115003                    CMPA    0,DU
         1 000201   000231 604400 1                  TMOZ    CHKACCN

     1757     1801    3            N=N-1;

   1801  1 000202   000001 336007                    LCQ     1,DL
         1 000203   200005 056100                    ASQ     N,,AUTO

     1758     1802    3            CALL INDEX(I,SUBSTR(NAME,N,1),SUBSTR(VALIDCHARS,SIZEC(TFCHARS.T),
PL6.E3A0      #003=FMN$CHKFLACN File=FMN$OPNF.:E05TSI                            TUE 07/29/97 16:56 Page:326

   1802  1 000204   200006 470500                    LDP0    P1$,,AUTO
         1 000205   200005 235100                    LDA     N,,AUTO
         1 000206   000105 124400                    SCM     mask='000'O
         1 000207   000006 200113 0                  ADSC9   TFCHARS+4                cn=1,n=75
         1 000210   000000 000001                    ADSC9   0,A,PR0                  cn=0,n=1
         1 000211   200004 000100                    ARG     I,,AUTO
         1 000212   000336 606400 1                  TTN     FMNE$BADFNME

     1759     1803    3              SIZEC(TFCHARS.TF)+SIZEC(TFCHARS.F))) ALTRET(FMNE$BADFNME);
     1760     1804    3            END;

   1804  1 000213   000202 605400 1                  TPNZ    s:1801
         1 000214   000231 710000 1                  TRA     CHKACCN

     1761     1805                    /*
     1762     1806                    *  UNLESS ITS AN ANS TAPE FORMAT FILE, WHICH MUST BE:
     1763     1807                    *                        1)  UPPER CASE LETTERS
     1764     1808                    *                        2)  NUMBERS
     1765     1809                    *                        3   SPECIALS :-!"%&'()*+,./?;<>=
     1766     1810                    */
     1767     1811    3         ELSE DO WHILE(N>0);

   1811  1 000215   000000 115003                    CMPA    0,DU
         1 000216   000231 604400 1                  TMOZ    CHKACCN

     1768     1812    3            N=N-1;

   1812  1 000217   000001 336007                    LCQ     1,DL
         1 000220   200005 056100                    ASQ     N,,AUTO

     1769     1813    3            CALL INDEX(I,SUBSTR(NAME,N,1),SUBSTR(VALIDCHARS,0,

   1813  1 000221   200006 470500                    LDP0    P1$,,AUTO
         1 000222   200005 235100                    LDA     N,,AUTO
         1 000223   000105 124400                    SCM     mask='000'O
         1 000224   000002 000070 0                  ADSC9   TFCHARS                  cn=0,n=56
PL6.E3A0      #003=FMN$CHKFLACN File=FMN$OPNF.:E05TSI                            TUE 07/29/97 16:56 Page:327
         1 000225   000000 000001                    ADSC9   0,A,PR0                  cn=0,n=1
         1 000226   200004 000100                    ARG     I,,AUTO
         1 000227   000336 606400 1                  TTN     FMNE$BADFNME

     1770     1814    3              SIZEC(TFCHARS.T)+SIZEC(TFCHARS.TF))) ALTRET(FMNE$BADFNME);
     1771     1815    3            END;

   1815  1 000230   000217 605400 1                  TPNZ    s:1812

   1813  1 000231                       CHKACCN      null
     1772     1816        %EJECT;
PL6.E3A0      #003=FMN$CHKFLACN File=FMN$OPNF.:E05TSI                            TUE 07/29/97 16:56 Page:328
     1773     1817    2   CHKACCN:;
     1774     1818                    /*
     1775     1819                    *  NOW VERIFY ACCOUNT NUMBER
     1776     1820                    */
     1777     1821    2         IF ADDR(JDCB$->F$DCB.ACCT)->ACCT&NASCII7 THEN GOTO FMNE$BADFNME;

   1821  1 000231   200003 470500                    LDP0    @JDCB$,,AUTO
         1 000232   000000 471500                    LDP1    0,,PR0
         1 000233   100020 237100                    LDAQ    16,,PR1
         1 000234   000000 377000 0                  ANAQ    NASCII7
         1 000235   000336 601000 1                  TNZ     FMNE$BADFNME

     1778     1822    2         CALL INDEX(I,' ',F$DCB.ACCT);

   1822  1 000236   000000 124500                    SCM     mask='000'O
         1 000237   100020 000010                    ADSC9   16,,PR1                  cn=0,n=8
         1 000240   000035 000001 xsym               ADSC9   B_VECTNIL+29             cn=0,n=1
         1 000241   200004 000100                    ARG     I,,AUTO

     1779     1823    2         IF I=0 OR SUBSTR(F$DCB.ACCT,I,8-I)~=' ' THEN GOTO FMNE$BADFNME;

   1823  1 000242   200004 235100                    LDA     I,,AUTO
         1 000243   000336 600000 1                  TZE     FMNE$BADFNME
         1 000244   777767 620005                    EAX0    -9,AL
         1 000245   777777 660003                    ERX0    -1,DU
         1 000246   040000 106545                    CMPC    fill='040'O
         1 000247   100020 000010                    ADSC9   16,A,PR1                 cn=0,n=*X0
         1 000250   000035 000001 xsym               ADSC9   B_VECTNIL+29             cn=0,n=1
         1 000251   000336 601000 1                  TNZ     FMNE$BADFNME

     1780     1824    2         CALL INDEX(I,BINASC(0),F$DCB.ACCT,0,'037'O)ALTRET(CHKACCT1);

   1824  1 000252   037000 124500                    SCM     mask='037'O
         1 000253   100020 000010                    ADSC9   16,,PR1                  cn=0,n=8
         1 000254   000003 000001 2                  ADSC9   3                        cn=0,n=1
         1 000255   200004 000100                    ARG     I,,AUTO
         1 000256   000260 606400 1                  TTN     CHKACCT1
PL6.E3A0      #003=FMN$CHKFLACN File=FMN$OPNF.:E05TSI                            TUE 07/29/97 16:56 Page:329

     1781     1825    2         GOTO FMNE$BADFNME; /* MUST NOT HAVE CONTROL CHARS OR IMBEDDED BLANKS*/

   1825  1 000257   000336 710000 1                  TRA     FMNE$BADFNME

     1782     1826    2   CHKACCT1: CALL INDEX(I,BINASC(127),F$DCB.ACCT)ALTRET(SELECTPS);

   1826  1 000260   200003 470500       CHKACCT1     LDP0    @JDCB$,,AUTO
         1 000261   000000 471500                    LDP1    0,,PR0
         1 000262   000000 124500                    SCM     mask='000'O
         1 000263   100020 000010                    ADSC9   16,,PR1                  cn=0,n=8
         1 000264   000004 000001 2                  ADSC9   4                        cn=0,n=1
         1 000265   200004 000100                    ARG     I,,AUTO
         1 000266   000270 606400 1                  TTN     SELECTPS

     1783     1827    2         GOTO FMNE$BADFNME;/* NOT EVEN DEL */

   1827  1 000267   000336 710000 1                  TRA     FMNE$BADFNME

   1826  1 000270                       SELECTPS     null
     1784     1828    2         END;
     1785     1829    1   SELECTPS:;
     1786     1830    2      IF F$DCB.IASN=%TAPE# THEN DO;

   1830  1 000270   200003 470500                    LDP0    @JDCB$,,AUTO
         1 000271   000000 471500                    LDP1    0,,PR0
         1 000272   100103 236100                    LDQ     67,,PR1
         1 000273   000777 376007                    ANQ     511,DL
         1 000274   000002 116007                    CMPQ    2,DL
         1 000275   000310 601000 1                  TNZ     s:1835

     1787     1831    2         IF F$DCB.NAME.L>17 AND F$DCB.ORG>=%FIXED#

   1831  1 000276   100010 236100                    LDQ     8,,PR1
         1 000277   777000 376003                    ANQ     -512,DU
         1 000300   022000 116003                    CMPQ    9216,DU
         1 000301   000310 602000 1                  TNC     s:1835
PL6.E3A0      #003=FMN$CHKFLACN File=FMN$OPNF.:E05TSI                            TUE 07/29/97 16:56 Page:330
         1 000302   100032 236100                    LDQ     26,,PR1
         1 000303   777000 376003                    ANQ     -512,DU
         1 000304   017000 116003                    CMPQ    7680,DU
         1 000305   000310 602000 1                  TNC     s:1835
         1 000306   022000 116003                    CMPQ    9216,DU
         1 000307   000336 601000 1                  TNZ     FMNE$BADFNME

     1788     1832    2           AND F$DCB.ORG~=%RESTRICT#
     1789     1833    2         THEN GOTO FMNE$BADFNME;
     1790     1834    2         END;

     1791     1835    1      IF F$DCB.IASN~=%FILE# THEN RETURN;

   1835  1 000310   100103 236100                    LDQ     67,,PR1
         1 000311   000777 376007                    ANQ     511,DL
         1 000312   000001 116007                    CMPQ    1,DL
         1 000313   000315 600000 1                  TZE     s:1836

   1835  1 000314   000000 702200 xent               TSX2  ! X66_ARET

     1792     1836    1      IF F$DCB.PSN~=' ' THEN CALL FMN$SETX(F$DCB.PSN)ALTRET(RETALT);

   1836  1 000315   040000 106500                    CMPC    fill='040'O
         1 000316   100024 000006                    ADSC9   20,,PR1                  cn=0,n=6
         1 000317   000035 000001 xsym               ADSC9   B_VECTNIL+29             cn=0,n=1
         1 000320   000330 600000 1                  TZE     s:1837

   1836  1 000321   100024 633500                    EPPR3   20,,PR1
         1 000322   200010 453500                    STP3    P1$+2,,AUTO
         1 000323   200010 630500                    EPPR0   P1$+2,,AUTO
         1 000324   000017 631400 xsym               EPPR1   B_VECTNIL+15
         1 000325   000000 701000 xent               TSX1    FMN$SETX
         1 000326   000341 702000 1                  TSX2    RETALT
         1 000327   000332 710000 1                  TRA     s:1838

     1793     1837    1      ELSE F$DCB.SETX=0;

PL6.E3A0      #003=FMN$CHKFLACN File=FMN$OPNF.:E05TSI                            TUE 07/29/97 16:56 Page:331
   1837  1 000330   000000 220003                    LDX0    0,DU
         1 000331   100051 440100                    SXL0    41,,PR1

     1794     1838    1      RETURN;

   1838  1 000332   000000 702200 xent               TSX2  ! X66_ARET

     1795     1839    1   FMN$CHKACCN: ENTRY(JDCB$)ALTRET;

   1839  1 000333   000000 700200 xent  FMN$CHKACCN  TSX0  ! X66_AUTO_1
         1 000334   000012 000001                    ZERO    10,1

     1796     1840    1      GOTO CHKACCN;

   1840  1 000335   000231 710000 1                  TRA     CHKACCN

     1797     1841                    /**/
     1798     1842    1   FMNE$BADFNME: B$JIT$->B$JIT.ERR=FMN$E$BADFNME;

   1842  1 000336   000034 236000 0     FMNE$BADFNME LDQ     FMN$E$BADFNME
         1 000337   000000 470400 xsym               LDP0    B$JIT$
         1 000340   000012 756100                    STQ     10,,PR0

     1799     1843    1   RETALT:
     1800     1844    1      ALTRETURN;

   1844  1 000341   000000 702200 xent  RETALT       TSX2  ! X66_AALT

NASCII7
 Sect OctLoc
   0     000   600600 600600   600600 600600                                    ........

TFCHARS
 Sect OctLoc
   0     002   041042 045046   047050 051052   053054 056057   073074 075076    !"%&'()*+,./;<=>
   0     006   077072 101114   123113 104112   106110 107131   124125 122111    ?:ALSKDJFHGYTURI
   0     012   105117 127120   121102 126116   103115 130132   061062 063064    EOWPQBVNCMXZ1234
PL6.E3A0      #003=FMN$CHKFLACN File=FMN$OPNF.:E05TSI                            TUE 07/29/97 16:56 Page:332
   0     016   065066 067070   071060 055137   044141 154163   153144 152146    567890-_$alskdjf
   0     022   150147 171164   165162 151145   157167 160161   142166 156143    hgyturieowpqbvnc
   0     026   155170 172133   134135 136140   173174 175176                    mxz[\]^`{|}~

FM_STARCHARS
 Sect OctLoc
   0     031   040107 114101   123116 130111                                     GLASNXI

FMN$E$INVSTAR
 Sect OctLoc
   0     033   061516 001602                                                    1...

FMN$E$BADFNME
 Sect OctLoc
   0     034   061516 001622                                                    1...

(unnamed)
 Sect OctLoc
   2     000   777777 770777   777777 777177   000010 200000   000040 040040    .............
   2     004   177040 040040                                                    .
     1801     1845    1   END FMN$CHKFLACN;
     1802     1846        %EOD;

PL6.E3A0      #003=FMN$CHKFLACN File=FMN$OPNF.:E05TSI                            TUE 07/29/97 16:56 Page:333
--  Include file information  --

   FM$MACROS.:E05TOU  is referenced.
   F_ERRORS_C.:E05TOU  is referenced.
   CP_6_SUBS.:E05TOU  is referenced.
   B$JIT_C.:E05TOU  is referenced.
   F$JIT_C.:E05TOU  cannot be made into a system file and is referenced.
   F$DCB.:E05TOU  is referenced.
      No diagnostics issued in procedure FMN$CHKFLACN.
PL6.E3A0      #003=FMN$CHKFLACN File=FMN$OPNF.:E05TSI                            TUE 07/29/97 16:56 Page:334

 **** Variables and constants ****

  ****  Section 000 RoData FMN$CHKFLACN

  ****  Scalars and arrays  ****
OctLoc.c.b A Datatyp(siz) R M Lvl/name                 OctLoc.c.b A Datatyp(siz) R M Lvl/name

    34-0-0/b STRC        r     1 FMN$E$BADFNME             33-0-0/b STRC        r     1 FMN$E$INVSTAR
    31-0-0/c CHAR(8)     r     1 FM_STARCHARS               0-0-0/b BIT (72)    r     1 NASCII7
     2-0-0/c STRC(828)   r     1 TFCHARS                    2-0-0/c CHAR(92)    r     1 VALIDCHARS

  ****  Auto variables  ****

  ****  Scalars and arrays  ****
OctLoc.c.b A Datatyp(siz) R M Lvl/name                 OctLoc.c.b A Datatyp(siz) R M Lvl/name

     3-0-0/w PTR         r     1 @JDCB$                     4-0-0/w SBIN        r     1 I
    *0-0-0/w PTR         r     1 JDCB$                      5-0-0/w SBIN        r     1 N
     6-0-0/w PTR         r     1 P1$

  ****  SYMREF variables  ****

  ****  Scalars and arrays  ****
OctLoc.c.b A Datatyp(siz) R M Lvl/name                 OctLoc.c.b A Datatyp(siz) R M Lvl/name

     0-0-0/w PTR         r     1 B$JIT$                     0-0-0/w UBIN        r     1 FM_SYSSETX

  ****  BASED and DCB variables  ****

  ****  Scalars and arrays  ****
OctLoc.c.b A Datatyp(siz) R M Lvl/name                 OctLoc.c.b A Datatyp(siz) R M Lvl/name

     0-0-0/w BIT (72)    r     1 ACCT                       0-0-0/d STRC(8856)  r     1 B$JIT
     0-0-0/d ASTR(3528)  r     1 F$DCB                      0-0-0/c CHAR(31)    r     1 NAME

PL6.E3A0      #003=FMN$CHKFLACN File=FMN$OPNF.:E05TSI                            TUE 07/29/97 16:56 Page:335

   Procedure FMN$CHKFLACN requires 226 words for executable code.
   Procedure FMN$CHKFLACN requires 10 words of local(AUTO) storage.
PL6.E3A0      #003=FMN$CHKFLACN File=FMN$OPNF.:E05TSI                            TUE 07/29/97 16:56 Page:336
          *** CROSS REFERENCE LISTING ***
**     DENOTES     IDENTIFIER DEFINITION
<<                 IDENTIFIER'S VALUE SET
>>                 IDENTIFIER'S VALUE USED
<>                 IDENTIFIER SET AND/OR USED
--                 IDENTIFIER REFERENCED
PL6.E3A0      #003=FMN$CHKFLACN File=FMN$OPNF.:E05TSI                            TUE 07/29/97 16:56 Page:337
          MINI XREF LISTING

ACCT
      1715**DCL      1821>>IF
B$JIT.ERR
       441**DCL      1785<<ASSIGN   1842<<ASSIGN
B$JIT.ERR.MID
       442**DCL       442--REDEF
B$JIT.PRIV.ACTIVE.FMSEC
       443**DCL      1775>>IF
B$JIT.STAR
       531**DCL      1765--IF
B$JIT$
      1709**DCL       436--IMP-PTR  1775>>IF       1785>>ASSIGN   1842>>ASSIGN
CHKACCN
      1813**LABEL    1840--GOTO
CHKACCT1
      1826**LABEL    1824--CALLALT
CPFILE
      1770**LABEL    1773--GOTO
F$DCB.ACCT
        75**DCL      1821--IF       1822>>CALLBLT  1823>>IF       1824>>CALLBLT  1826>>CALLBLT
F$DCB.ACTPOS
        90**DCL        90--REDEF
F$DCB.ARS
        65**DCL        65--REDEF
F$DCB.ATTR
        83**DCL        84--REDEF
F$DCB.BORROW
        98**DCL        98--REDEF      98--REDEF      98--REDEF
F$DCB.DCBNAME.L
       112**DCL       112--IMP-SIZ
F$DCB.DISP
        80**DCL      1756>>IF
PL6.E3A0      #003=FMN$CHKFLACN File=FMN$OPNF.:E05TSI                            TUE 07/29/97 16:56 Page:338
F$DCB.EOMCHAR
        69**DCL        69--REDEF
F$DCB.FLDID
        93**DCL        93--REDEF
F$DCB.FORM$
        87**DCL        87--REDEF
F$DCB.FSECT
       103**DCL       103--REDEF
F$DCB.FSN
        80**DCL        80--REDEF      80--REDEF      81--REDEF
F$DCB.FUN
        79**DCL      1756>>IF       1770>>IF       1775>>IF       1788>>IF
F$DCB.HEADER$
        86**DCL        86--REDEF
F$DCB.IASN
       106**DCL      1754>>IF       1799>>IF       1830>>IF       1835>>IF
F$DCB.IXTNSIZE
        84**DCL        84--REDEF
F$DCB.LASTSTA$
        74**DCL        74--REDEF
F$DCB.LVL
        99**DCL        99--REDEF
F$DCB.NAME.C
        74**DCL        74--REDEF    1760>>IF       1764>>CALLBLT  1790--ASSIGN
F$DCB.NAME.L
        74**DCL      1743>>ASSIGN   1831>>IF
F$DCB.NOEOF
        95**DCL        95--REDEF
F$DCB.NRECS
        85**DCL        85--REDEF
F$DCB.NRECX
       104**DCL       104--REDEF
F$DCB.OHDR
        96**DCL        96--REDEF
F$DCB.ORG
        79**DCL        79--REDEF    1799>>IF       1799>>IF       1831>>IF       1831>>IF
PL6.E3A0      #003=FMN$CHKFLACN File=FMN$OPNF.:E05TSI                            TUE 07/29/97 16:56 Page:339
F$DCB.PRECNO
       102**DCL       102--REDEF
F$DCB.PSN
        75**DCL      1836>>IF       1836<>CALL
F$DCB.RCSZ
       107**DCL       107--REDEF
F$DCB.RES
        75**DCL        75--REDEF
F$DCB.SETX
        87**DCL        87--REDEF    1757<<ASSIGN   1761<<ASSIGN   1837<<ASSIGN
F$DCB.SHARE
        78**DCL      1772<<ASSIGN
F$DCB.STARF
        94**DCL      1762<<ASSIGN
F$DCB.STARX
        96**DCL      1744<<ASSIGN   1765<<ASSIGN
F$DCB.TAB$
        86**DCL        87--REDEF
F$DCB.TDA
       101**DCL       101--REDEF
F$DCB.WSN
        76**DCL        76--REDEF
F$DCB.WSR
        82**DCL      1770>>IF       1775>>IF       1778>>IF
FMN$E$BADFNME
      1732**DCL      1842>>ASSIGN
FMN$E$INVSTAR
      1728**DCL      1785>>ASSIGN
FMN$SETX
      1704**DCL-ENT  1836--CALL
FMNE$BADFNME
      1842**LABEL    1745--GOTO     1789--GOTO     1802--CALLALT  1813--CALLALT  1821--GOTO     1823--GOTO
      1825--GOTO     1827--GOTO     1833--GOTO
FM_STARCHARS
      1726**DCL      1764>>CALLBLT
FM_SYSSETX
PL6.E3A0      #003=FMN$CHKFLACN File=FMN$OPNF.:E05TSI                            TUE 07/29/97 16:56 Page:340
      1710**DCL      1757>>ASSIGN   1761>>ASSIGN
I
      1738**DCL      1764<<CALLBLT  1765>>IF       1765>>ASSIGN   1766>>DOCASE   1802<<CALLBLT  1813<<CALLBLT
      1822<<CALLBLT  1823>>IF       1823>>IF       1823>>IF       1824<<CALLBLT  1826<<CALLBLT
JDCB$
      1708**DCL        11--PROC       65--IMP-PTR  1743>>ASSIGN   1744>>ASSIGN   1754>>IF       1756>>IF
      1756>>IF       1757>>ASSIGN   1760>>IF       1761>>ASSIGN   1762>>ASSIGN   1764>>CALLBLT  1765>>ASSIGN
      1770>>IF       1770>>IF       1772>>ASSIGN   1775>>IF       1775>>IF       1778>>IF       1788>>IF
      1790>>ASSIGN   1799>>IF       1799>>IF       1799>>IF       1821>>IF       1822>>CALLBLT  1823>>IF
      1824>>CALLBLT  1826>>CALLBLT  1830>>IF       1831>>IF       1831>>IF       1831>>IF       1835>>IF
      1836>>IF       1836>>CALL     1837>>ASSIGN   1839--ENTRY
N
      1739**DCL      1743<<ASSIGN   1745>>IF       1763>>IF       1789>>IF       1800>>DOWHILE  1801<<ASSIGN
      1801>>ASSIGN   1802>>CALLBLT  1811>>DOWHILE  1812<<ASSIGN   1812>>ASSIGN   1813>>CALLBLT
NAME
      1714**DCL      1802>>CALLBLT  1813>>CALLBLT
NASCII7
      1717**DCL      1821>>IF
NOTSTRSCR
      1778**LABEL    1754--GOTO     1760--GOTO
P1$
      1740**DCL      1714--IMP-PTR  1790<<ASSIGN   1802>>CALLBLT  1813>>CALLBLT
RET
      1758**LABEL    1764--CALLALT
RETALT
      1844**LABEL    1836--CALLALT
SELECTPS
      1826**LABEL    1826--CALLALT
TFCHARS
      1718**DCL      1725--REDEF
TFCHARS.F
      1723**DCL      1802--CALLBLT
TFCHARS.T
      1719**DCL      1802--CALLBLT  1813--CALLBLT
TFCHARS.TF
      1721**DCL      1802--CALLBLT  1813--CALLBLT
PL6.E3A0      #003=FMN$CHKFLACN File=FMN$OPNF.:E05TSI                            TUE 07/29/97 16:56 Page:341
VALIDCHARS
      1725**DCL      1802>>CALLBLT  1813>>CALLBLT

PL6.E3A0      #004=FMN$READFDFIT File=FMN$OPNF.:E05TSI                           TUE 07/29/97 16:57 Page:342
     1803        1        /*T***********************************************************/
     1804        2        /*T*                                                         */
     1805        3        /*T* Copyright (c) Bull HN Information Systems Inc., 1997    */
     1806        4        /*T*                                                         */
     1807        5        /*T***********************************************************/
     1808        6                    /*F*
     1809        7                    *     NAME:   FMN$READFDFIT
     1810        8                    *
     1811        9                    *        PURPOSE: To read,verify, and process security information
     1812       10                    *        for FILE directory FIT.
     1813       11                    *        DESCRIPTION: Entered whenever a new CFU account blkock must be
     1814       12                   *        set up. If 'new', the PAD FIT is read instead and newfd checked.
     1815       13                    *        The access and granule info is moved to the new acct block.
     1816       14                    *        Also entered if the account has 09 vlp entries (indicated by
     1817       15                   *        'ACCESS' in CODE14 and acct block). This info is used perhaps to
     1818       16                    *        abort the open.
     1819       17                    */
     1820       18        FMN$READFDFIT: PROC ALTRET;
     1821       19                    /**/
     1822       20                    /* AUTOMATIC DATA */
     1823       21                    /**/
     1824       22    1   DCL JDCB$ PTR; /* DCB POINTER */
     1825       23    1   DCL ACCT$ PTR; /* ACCOUNT BLOCK POINTER */
     1826       24    1   DCL FIT$ PTR; /* FIT PINTER */
     1827       25    1   DCL BUF$ PTR; /* BUFFER POINTER */
     1828       26    1   DCL FDA SBIN; /* SET RELATIVE DISK ADDRESS */
     1829       27                    /**/
     1830       28                    /* EXTERNAL ROUTINES */
     1831       29    1   DCL FMD$REDBUF ENTRY(6) ALTRET; /* READ THE FIT */
     1832       30    1   DCL FMO$LOCCODP ENTRY(2) ALTRET; /* LOCATE FIT CODE */
     1833       31    1   DCL FMB$LOGERR ENTRY(11);
     1834       32    1   DCL FMD$FLSHBUF ENTRY(1);
     1835       33    1   DCL FMO$TRNINFO ENTRY(2)ALTRET;
     1836       34    1   DCL FMO$SECCHK ENTRY(2);
     1837       35    1   DCL FMR$L8 ENTRY;
     1838       36    1   DCL FMR$U8 ENTRY;
     1839       37    1   DCL UQB$MENQS ENTRY(1)ALTRET;
PL6.E3A0      #004=FMN$READFDFIT File=FMN$OPNF.:E05TSI                           TUE 07/29/97 16:57 Page:343
     1840       38    1   DCL UQB$MENQX ENTRY(1)ALTRET;
     1841       39    1   DCL UQB$MDEQ ENTRY(1)ALTRET;
     1842       40                    /**/
     1843       41        %INCLUDE FM$MACROS;
     1844      416        %FM$CFUA(BASED="BASED(ACCT$)");
     1845      422        %FM$CFU(BASED="BASED(ACCT$)");
     1846      428        %CODE14(BASED="BASED(FIT$)");
     1847      438        %FM$GRAN;
     1848      442        %FM$SET(BASED="BASED(F$CFU$)");
     1849      447        %INCLUDE CP_6_SUBS;
     1850      987        %MACRO F$DCB#(BASED=BASED);
     1851      988        %INCLUDE F$DCB;
     1852     1037        %MEND;
     1853     1038        %F$DCB#(BASED="BASED(JDCB$)");
     1854     1088        %INCLUDE F_ERRORS_C;
     1855     1328        %INCLUDE AZ_SUBS_C;
     1856     1397        %INCLUDE F$JIT_C;
     1857     1827        %INCLUDE JG_GHOSTS_C;
     1858     1917        %INCLUDE PC_SUBS_C;
     1859     2249                    /**/
     1860     2250    1   DCL S_CUN SBIN SYMREF;
     1861     2251    1   DCL ES_LOGFILEGRANT SBIN SYMREF;
     1862     2252    1   DCL F$CFU$ SYMREF PTR; /* POINTER TO THE CFU SEGMENT */
     1863     2253    1   DCL B$JIT$ PTR SYMREF; /* POINTER TO THE JIT */
     1864     2254    1   DCL FM_PADSDA SBIN SYMREF;
     1865     2255    1   DCL FM$BUF$(0:0)PTR SYMREF;
     1866     2256        %SUB FCG#='0615'O;
     1867     2257        %SUB MID#='16'O;
     1868     2258        %ERRCODE(NAME=FMN$E$NEWFILE,COD#=%E$NEWFILE);
     1869     2262        %ERRCODE(NAME=FMN$E$FD,COD#=%E$FD);
     1870     2266        %ERRCODE(NAME=FMN$E$NONEWFD,COD#=%E$NONEWFD);
     1871     2270        %ERRCODE(NAME=FMN$E$NOFILE,COD#=%E$NOFILE);
     1872     2274        %ERRCODE(NAME=FMN$E$NOACCESS,COD#=%E$NOACCESS);
     1873     2278        %ERRCODE(NAME=FMN$E$NOKEY,COD#=%E$NOKEY);
     1874     2282                    /**/
     1875     2283    1      JDCB$=B$JIT.DCB$;
     1876     2284    1      IF F$DCB.FFLG THEN RETURN; /* WE'VE BEEN HERE BEFORE */
PL6.E3A0      #004=FMN$READFDFIT File=FMN$OPNF.:E05TSI                           TUE 07/29/97 16:57 Page:344
     1877     2285    1      F$DCB.GTYP=FMGTFIT;
     1878     2286    1      ACCT$=PINCRW(F$CFU$,F$DCB.CFU$->FM$CFU.ACCTX);
     1879     2287    1      IF F$DCB.IASN=%FILE# AND F$DCB.NAME.L~=0
     1880     2288    1        AND FM$CFUA.FLAGS.EXIST THEN GOTO SECCHKFD;
     1881     2289    1   REREAD:;
     1882     2290    2      IF FM$CFUA.FDFITSDA=0 THEN DO;/* A NEW ACCOUNT */
     1883     2291    2         IF F$DCB.FUN~=%CREATE# THEN GOTO FMNE$NOFILE;
     1884     2292    2         FDA=FM_PADSDA;
     1885     2293    2         F$DCB.GTYP=FMGTPAD;
     1886     2294    2         END;
     1887     2295    2      ELSE DO;
     1888     2296    2         IF F$DCB.IASN=%FILE# THEN CALL UQB$MENQS(ACCT$)ALTRET(ENQERR);
     1889     2297    2         JDCB$->F$DCB.GTYP=FMGTFD;
     1890     2298    2         FDA=ACCT$->FM$CFUA.FDFITSDA;
     1891     2299    2         END;
     1892     2300    1      CALL FMD$REDBUF(BUF$,1,FDA,,0) ALTRET(RETALT);
     1893     2301    1      FIT$=PINCRW(BUF$,SIZEW(FM$GRAN));
     1894     2302    1      CALL FMO$LOCCODP(FIT$,14) ALTRET(FMNE$FD);
     1895     2303    2      IF NOT FM$CFUA.FLAGS THEN DO;
     1896     2304    2         FM$CFUA.GRANS=CODE14.MGRANS-CODE14.CGRANS;
     1897     2305    2         FM$CFUA.ACCESS=CODE14.ACCESS;
     1898     2306    2         FM$CFUA.DFLTALL=CODE14.DFLTALL;
     1899     2307    2         IF FM$CFUA.FDFITSDA=0 THEN FM$CFUA.FLAGS.NEW='1'B;
     1900     2308    2         ELSE FM$CFUA.FLAGS.EXIST='1'B;
     1901     2309    2         END;
     1902     2310    2      ELSE IF FM$CFUA.FLAGS.EXIST AND FM$CFUA.GMOD~=0 THEN DO;
     1903     2311    2            CODE14.CGRANS=CODE14.MGRANS-FM$CFUA.GRANS;/*GET IT RIGHT FOR FPARAM*/
     1904     2312    3            IF F$DCB.IASN=%FILE# THEN DO;/* DEVICE MAY DEADLOCK */
     1905     2313    3               CALL UQB$MENQX(ACCT$)ALTRET(SECCHKFD);/*EVEN IF THIS FAILS */
     1906     2314    3               CALL FMR$L8;
     1907     2315    3               FM$CFUA.GMOD=0;
     1908     2316    3               CODE14.CGRANS=CODE14.MGRANS-FM$CFUA.GRANS;
     1909     2317    3               F$DCB.BFR.BUFUP(1)='1'B;
     1910     2318    3               CALL FMR$U8;
     1911     2319    3               END;
     1912     2320    2            END;
     1913     2321    1      IF F$DCB.IASN=%FILE# AND FM$CFUA.FDFITSDA=0 THEN
PL6.E3A0      #004=FMN$READFDFIT File=FMN$OPNF.:E05TSI                           TUE 07/29/97 16:57 Page:345
     1914     2322    1         IF NOT B$JIT.PRIV.ACTIVE.FMSEC AND
     1915     2323    1           (FM$SET.PSN(F$DCB.SETX)~=B$JIT.HPSN OR FM$CFUA.ACCT~=B$JIT.ACCN)
     1916     2324    1         THEN GOTO FMNE$NEWFILE;
     1917     2325    1         ELSE IF NOT CODE14.ACCESS.NEWFD THEN GOTO FMNE$NONEWFD;
     1918     2326                    /* NOW DO THE ACCOUNT ACCESS CONTROL */
     1919     2327    1   SECCHKFD:;
     1920     2328    1      B$JIT.ERR='0'B;
     1921     2329    1      IF B$JIT.PRIV.ACTIVE.FMSEC AND (ES_LOGFILEGRANT~=%PC_ES_YES#
     1922     2330    1        OR B$JIT.PRIV.ACTIVE.FMBLK OR S_CUN<%JG_MING#)
     1923     2331    1        OR B$JIT.ACCN=FM$CFUA.ACCT
     1924     2332    1        AND FM$CFUA.ACCESS.OWNERF
     1925     2333    1        OR F$DCB.IASN=%FMDIAG#
     1926     2334    1        OR F$DCB.WSR=1 THEN F$DCB.FFLG=%FFLG_OWNER#;
     1927     2335    2      ELSE DO;
     1928     2336    2         F$DCB.FFLG=FM$CFUA.DFLTALL;
     1929     2337    3         IF FM$CFUA.ACCESS.LIST OR B$JIT.PRIV.ACTIVE.FMSEC THEN DO;
     1930     2338    3            IF B$JIT.FACCN=F$DCB.ACCT AND B$JIT.FPSN=F$DCB.PSN AND B$JIT.FACNACS
     1931     2339    3              AND NOT B$JIT.PRIV.ACTIVE&%SUBBIT(PR_FMSEC#|PR_FMREAD#,0,18)
     1932     2340    4            THEN DO;
     1933     2341    4               F$DCB.FFLG=B$JIT.FACNACS;
     1934     2342    4               F$DCB.FDCM=B$JIT.FACNCM;
     1935     2343    4               END;
     1936     2344    4            ELSE DO;
     1937     2345    4               IF F$DCB.GTYP=FMGTFIT THEN GOTO REREAD; /* DIDNT READ IT YET */
     1938     2346    4               BUF$=FM$BUF$(F$DCB.BFR.BUFX(1));
     1939     2347    4               CALL FMO$SECCHK(,PINCRW(BUF$,SIZEW(FM$GRAN))->FM$GRAN);
     1940     2348    4               IF B$JIT.FACCN=F$DCB.ACCT AND B$JIT.FPSN=F$DCB.PSN
     1941     2349    4                 AND NOT B$JIT.PRIV.ACTIVE&%SUBBIT(PR_FMSEC#|PR_FMREAD#,0,18)
     1942     2350    5               THEN DO;
     1943     2351    5                  B$JIT.FACNACS=F$DCB.FFLG;
     1944     2352    5                  B$JIT.FACNCM=F$DCB.FDCM;
     1945     2353    5                  END;
     1946     2354    4               END;
     1947     2355    3            END;
     1948     2356    2         IF B$JIT.ACCN=FM$CFUA.ACCT THEN F$DCB.FFLG=F$DCB.FFLG|%FFLG_CREATE#;
     1949     2357    2         END;
     1950     2358    1      F$DCB.AUTHFFLG=F$DCB.FFLG;
PL6.E3A0      #004=FMN$READFDFIT File=FMN$OPNF.:E05TSI                           TUE 07/29/97 16:57 Page:346
     1951     2359    1      F$DCB.WCDATA=FM$CFUA.ACCESS.WCDATA;
     1952     2360    1      F$DCB.WRCMP=FM$CFUA.ACCESS.WRCMP;
     1953     2361    1      F$DCB.BUPF=FM$CFUA.ACCESS.BUPF;
     1954     2362    1      IF NOT FM$CFUA.ACCESS.MERGEAC THEN F$DCB.FDCM=0;
     1955     2363    2      IF NOT F$DCB.FFLG AND B$JIT.PRIV.ACTIVE&%SUBBIT(PR_FMSEC#|PR_FMREAD#,0,18) THEN
              2363               DO;
     1956     2364                    /* IF NONE->READONLY, IGNORE FILE ACCESS MODIFICATIONS */
     1957     2365    2         IF NOT B$JIT.PRIV.ACTIVE.FMSEC THEN F$DCB.FDCM=511;
     1958     2366    2         F$DCB.FFLG.EXEC=%YES#;
     1959     2367    2         F$DCB.PRIVOPN='1'B;
     1960     2368    2         END;
     1961     2369    2      IF F$DCB.IASN~=%FILE# THEN DO;
     1962     2370    2         IF NOT F$DCB.FFLG THEN B$JIT.ERR=FMN$E$NOKEY;
     1963     2371    2         ELSE IF NOT F$DCB.FFLG.READ THEN B$JIT.ERR=FMN$E$NOACCESS;
     1964     2372    2         RETURN;
     1965     2373    2         END;
     1966     2374    1      IF F$DCB.FFLG THEN GOTO FLSHRET;
     1967     2375    1      IF F$DCB.FUN=%CREATE# THEN B$JIT.ERR=FMN$E$NEWFILE;
     1968     2376    1      ELSE B$JIT.ERR=FMN$E$NOFILE;
     1969     2377    1      GOTO RETALT;
     1970     2378    1   FMNE$NONEWFD: B$JIT.ERR=FMN$E$NONEWFD;
     1971     2379                    /*E*     ERROR: FMN-E$NONEWFD-E
     1972     2380                    *        MESSAGE: You may not create a new account% for %UF%
     1973     2381                    */
     1974     2382    1      ALTRETURN;
     1975     2383    1   FMNE$NEWFILE: B$JIT.ERR=FMN$E$NEWFILE;
     1976     2384    1      ALTRETURN;
     1977     2385    1   FMNE$NOFILE: B$JIT.ERR=FMN$E$NOFILE;
     1978     2386    1   ENQERR:;
     1979     2387    1      ALTRETURN;
     1980     2388    1   FLSHRET:;
     1981     2389    1      IF F$DCB.NAME.L=0 AND F$DCB.ACS~=%BLOCK#
     1982     2390    1        AND F$DCB.FFLG&%(FFLG_DELF#|FFLG_CREATE#)
     1983     2391    1      THEN CALL FMO$TRNINFO(12,PINCRW(BUF$,SIZEW(FM$GRAN)));
     1984     2392    1      B$JIT.ERR='0'B;
     1985     2393    1      CALL FMD$FLSHBUF(1);
     1986     2394    1      IF F$DCB.GTYP=FMGTFD
PL6.E3A0      #004=FMN$READFDFIT File=FMN$OPNF.:E05TSI                           TUE 07/29/97 16:57 Page:347
     1987     2395    1      THEN CALL UQB$MDEQ(ACCT$)ALTRET(ENQERR);
     1988     2396    1      RETURN;
     1989     2397                    /**/
     1990     2398    1   FMNE$FD: B$JIT$->B$JIT.ERR=FMN$E$FD;
     1991     2399    1      CALL FMB$LOGERR(%E$FD,13,8,FDA,BUF$,SIZEW(FM$GRAN),
     1992     2400    1        SIZEW(FM$GRAN)+1,SIZEW(FM$GRAN)+2);
     1993     2401    1   RETALT:;
     1994     2402    1      CALL FMD$FLSHBUF(1);
     1995     2403    1      F$DCB.BFR.DA(1)=FDA;
     1996     2404    1      IF F$DCB.IASN=%FILE# AND F$DCB.GTYP=FMGTFD
     1997     2405    1      THEN CALL UQB$MDEQ(ACCT$)ALTRET(ENQERR);
     1998     2406    1      ALTRETURN;
     1999     2407    1   END FMN$READFDFIT;

PL6.E3A0      #004=FMN$READFDFIT File=FMN$OPNF.:E05TSI                           TUE 07/29/97 16:57 Page:348
--  Include file information  --

   PC_SUBS_C.:E05TOU  is referenced.
   JG_GHOSTS_C.:E05TOU  is referenced.
   B$JIT_C.:E05TOU  is referenced.
   F$JIT_C.:E05TOU  cannot be made into a system file and is referenced.
   AZ_SUBS_C.:E05TOU  is referenced.
   F_ERRORS_C.:E05TOU  is referenced.
   F$DCB.:E05TOU  is referenced.
   CP_6_SUBS.:E05TOU  is referenced.
   FM$MACROS.:E05TOU  is referenced.
      No diagnostics issued in procedure FMN$READFDFIT.

   Procedure FMN$READFDFIT requires 432 words for executable code.
   Procedure FMN$READFDFIT requires 16 words of local(AUTO) storage.

    No errors detected in file FMN$OPNF.:E05TSI    .

PL6.E3A0      #004=FMN$READFDFIT File=FMN$OPNF.:E05TSI                           TUE 07/29/97 16:57 Page:349

 Object Unit name= FMN$READFDFIT                              File name= FMN$OPNF.:E05TOU
 UTS= JUL 29 '97 16:57:06.72 TUE                              Compiler= PL-6/E31         Sev=      00
 SharedLib= :SHARED_SYSTEM                                    Alt SharedLib=


    ****  Control sections  ****

 Sect   Type Bound  Init  Size OctSiz  Section name(segment info)
    0  RoData even  UTS      6      6  FMN$READFDFIT
    1   Proc  even  none   432    660  FMN$READFDFIT
    2  RoData even  none    18     22  FMN$READFDFIT

    ****  Entry defs  ****

                              Check   Calling
                             calling  sequence
  Sect OctLoc Primary Altret sequence   type   Parms  Name
     1      0   yes    yes     yes      Std        0  FMN$READFDFIT
PL6.E3A0      #004=FMN$READFDFIT File=FMN$OPNF.:E05TSI                           TUE 07/29/97 16:57 Page:350

  ****  Entry refs  ****

         Check        Calling
        calling       sequence
Altret sequence SRef   type   Args  Name
 yes     yes           Std       1 UQB$MENQS
 yes     yes           Std       6 FMD$REDBUF
 yes     yes           Std       2 FMO$LOCCODP
 yes     yes           Std       1 UQB$MENQX
         yes           Std       0 FMR$L8
         yes           Std       2 FMO$SECCHK
 yes     yes           Std       2 FMO$TRNINFO
         yes           Std       1 FMD$FLSHBUF
 yes     yes           Std       1 UQB$MDEQ
         yes           Std      11 FMB$LOGERR
         yes           Std       0 FMR$U8
                       nStd      0 X66_AUTO_0
                       nStd      0 X66_ARET
                       Std       0 B_CONSPOOL_D
                       nStd      0 X66_AALT

  ****  Data refs  ****

  Flags:  r = read only, s = secondary
Flgs Name                             Flgs Name                             Flgs Name
     S_CUN                                 ES_LOGFILEGRANT                       F$CFU$
     B$JIT$                                FM_PADSDA                             FM$BUF$
     B_VECTNIL

  ****  Segment refs  ****

  Flags:  r = read only, s = secondary
Flgs Name                             Flgs Name                             Flgs Name
     ISSID
PL6.E3A0      #004=FMN$READFDFIT File=FMN$OPNF.:E05TSI                           TUE 07/29/97 16:57 Page:351


     1803        1        /*T***********************************************************/
     1804        2        /*T*                                                         */
     1805        3        /*T* Copyright (c) Bull HN Information Systems Inc., 1997    */
     1806        4        /*T*                                                         */
     1807        5        /*T***********************************************************/
     1808        6                    /*F*
     1809        7                    *     NAME:   FMN$READFDFIT
     1810        8                    *
     1811        9                    *        PURPOSE: To read,verify, and process security information
     1812       10                    *        for FILE directory FIT.
     1813       11                    *        DESCRIPTION: Entered whenever a new CFU account blkock must be
     1814       12                   *       set up. If 'new', the PAD FIT is read instead and newfd checked.
     1815       13                    *        The access and granule info is moved to the new acct block.
     1816       14                    *        Also entered if the account has 09 vlp entries (indicated by
     1817       15                   *       'ACCESS' in CODE14 and acct block). This info is used perhaps to
     1818       16                    *        abort the open.
     1819       17                    */
     1820       18        FMN$READFDFIT: PROC ALTRET;

     18  1 000000   000000 700200 xent  FMN$READFDF* TSX0  ! X66_AUTO_0
         1 000001   000020 000000                    ZERO    16,0

     1821       19                    /**/
     1822       20                    /* AUTOMATIC DATA */
     1823       21                    /**/
     1824       22    1   DCL JDCB$ PTR; /* DCB POINTER */
     1825       23    1   DCL ACCT$ PTR; /* ACCOUNT BLOCK POINTER */
     1826       24    1   DCL FIT$ PTR; /* FIT PINTER */
     1827       25    1   DCL BUF$ PTR; /* BUFFER POINTER */
     1828       26    1   DCL FDA SBIN; /* SET RELATIVE DISK ADDRESS */
     1829       27                    /**/
     1830       28                    /* EXTERNAL ROUTINES */
     1831       29    1   DCL FMD$REDBUF ENTRY(6) ALTRET; /* READ THE FIT */
     1832       30    1   DCL FMO$LOCCODP ENTRY(2) ALTRET; /* LOCATE FIT CODE */
     1833       31    1   DCL FMB$LOGERR ENTRY(11);
     1834       32    1   DCL FMD$FLSHBUF ENTRY(1);
PL6.E3A0      #004=FMN$READFDFIT File=FMN$OPNF.:E05TSI                           TUE 07/29/97 16:57 Page:352
     1835       33    1   DCL FMO$TRNINFO ENTRY(2)ALTRET;
     1836       34    1   DCL FMO$SECCHK ENTRY(2);
     1837       35    1   DCL FMR$L8 ENTRY;
     1838       36    1   DCL FMR$U8 ENTRY;
     1839       37    1   DCL UQB$MENQS ENTRY(1)ALTRET;
     1840       38    1   DCL UQB$MENQX ENTRY(1)ALTRET;
     1841       39    1   DCL UQB$MDEQ ENTRY(1)ALTRET;
     1842       40                    /**/
     1843       41        %INCLUDE FM$MACROS;
     1844      416        %FM$CFUA(BASED="BASED(ACCT$)");
     1845      422        %FM$CFU(BASED="BASED(ACCT$)");
     1846      428        %CODE14(BASED="BASED(FIT$)");
     1847      438        %FM$GRAN;
     1848      442        %FM$SET(BASED="BASED(F$CFU$)");
     1849      447        %INCLUDE CP_6_SUBS;
     1850      987        %MACRO F$DCB#(BASED=BASED);
     1851      988        %INCLUDE F$DCB;
     1852     1037        %MEND;
     1853     1038        %F$DCB#(BASED="BASED(JDCB$)");
     1854     1088        %INCLUDE F_ERRORS_C;
     1855     1328        %INCLUDE AZ_SUBS_C;
     1856     1397        %INCLUDE F$JIT_C;
     1857     1827        %INCLUDE JG_GHOSTS_C;
     1858     1917        %INCLUDE PC_SUBS_C;
     1859     2249                    /**/
     1860     2250    1   DCL S_CUN SBIN SYMREF;
     1861     2251    1   DCL ES_LOGFILEGRANT SBIN SYMREF;
     1862     2252    1   DCL F$CFU$ SYMREF PTR; /* POINTER TO THE CFU SEGMENT */
     1863     2253    1   DCL B$JIT$ PTR SYMREF; /* POINTER TO THE JIT */
     1864     2254    1   DCL FM_PADSDA SBIN SYMREF;
     1865     2255    1   DCL FM$BUF$(0:0)PTR SYMREF;
     1866     2256        %SUB FCG#='0615'O;
     1867     2257        %SUB MID#='16'O;
     1868     2258        %ERRCODE(NAME=FMN$E$NEWFILE,COD#=%E$NEWFILE);
     1869     2262        %ERRCODE(NAME=FMN$E$FD,COD#=%E$FD);
     1870     2266        %ERRCODE(NAME=FMN$E$NONEWFD,COD#=%E$NONEWFD);
     1871     2270        %ERRCODE(NAME=FMN$E$NOFILE,COD#=%E$NOFILE);
PL6.E3A0      #004=FMN$READFDFIT File=FMN$OPNF.:E05TSI                           TUE 07/29/97 16:57 Page:353
     1872     2274        %ERRCODE(NAME=FMN$E$NOACCESS,COD#=%E$NOACCESS);
     1873     2278        %ERRCODE(NAME=FMN$E$NOKEY,COD#=%E$NOKEY);
     1874     2282                    /**/
     1875     2283    1      JDCB$=B$JIT.DCB$;

   2283  1 000002   000000 470400 xsym               LDP0    B$JIT$
         1 000003   000232 236100                    LDQ     154,,PR0
         1 000004   200003 756100                    STQ     JDCB$,,AUTO

     1876     2284    1      IF F$DCB.FFLG THEN RETURN; /* WE'VE BEEN HERE BEFORE */

   2284  1 000005   200003 471500                    LDP1    JDCB$,,AUTO
         1 000006   100004 220100                    LDX0    4,,PR1
         1 000007   000011 600000 1                  TZE     s:2285

   2284  1 000010   000000 702200 xent               TSX2  ! X66_ARET

     1877     2285    1      F$DCB.GTYP=FMGTFIT;

   2285  1 000011   100064 236100                    LDQ     52,,PR1
         1 000012   000000 376000 2                  ANQ     0
         1 000013   024000 276003                    ORQ     10240,DU
         1 000014   100064 756100                    STQ     52,,PR1

     1878     2286    1      ACCT$=PINCRW(F$CFU$,F$DCB.CFU$->FM$CFU.ACCTX);

   2286  1 000015   100066 473500                    LDP3    54,,PR1
         1 000016   300002 221100                    LDX1    2,,PR3
         1 000017   000000 636011                    EAQ     0,X1
         1 000020   000000 036000 xsym               ADLQ    F$CFU$
         1 000021   200004 756100                    STQ     ACCT$,,AUTO

     1879     2287    1      IF F$DCB.IASN=%FILE# AND F$DCB.NAME.L~=0

   2287  1 000022   100103 236100                    LDQ     67,,PR1
         1 000023   000777 376007                    ANQ     511,DL
         1 000024   000001 116007                    CMPQ    1,DL
PL6.E3A0      #004=FMN$READFDFIT File=FMN$OPNF.:E05TSI                           TUE 07/29/97 16:57 Page:354
         1 000025   000034 601000 1                  TNZ     REREAD
         1 000026   100010 236100                    LDQ     8,,PR1
         1 000027   777000 316003                    CANQ    -512,DU
         1 000030   000034 600000 1                  TZE     REREAD
         1 000031   200004 474500                    LDP4    ACCT$,,AUTO
         1 000032   400005 234100                    SZN     5,,PR4
         1 000033   000257 604000 1                  TMI     SECCHKFD

   2287  1 000034                       REREAD       null
     1880     2288    1        AND FM$CFUA.FLAGS.EXIST THEN GOTO SECCHKFD;
     1881     2289    1   REREAD:;
     1882     2290    2      IF FM$CFUA.FDFITSDA=0 THEN DO;/* A NEW ACCOUNT */

   2290  1 000034   200004 470500                    LDP0    ACCT$,,AUTO
         1 000035   000004 235100                    LDA     4,,PR0
         1 000036   000053 601000 1                  TNZ     s:2296

     1883     2291    2         IF F$DCB.FUN~=%CREATE# THEN GOTO FMNE$NOFILE;

   2291  1 000037   200003 471500                    LDP1    JDCB$,,AUTO
         1 000040   100032 236100                    LDQ     26,,PR1
         1 000041   000777 376003                    ANQ     511,DU
         1 000042   000003 116003                    CMPQ    3,DU
         1 000043   000535 601000 1                  TNZ     FMNE$NOFILE

     1884     2292    2         FDA=FM_PADSDA;

   2292  1 000044   000000 235000 xsym               LDA     FM_PADSDA
         1 000045   200007 755100                    STA     FDA,,AUTO

     1885     2293    2         F$DCB.GTYP=FMGTPAD;

   2293  1 000046   100064 236100                    LDQ     52,,PR1
         1 000047   000000 376000 2                  ANQ     0
         1 000050   014000 276003                    ORQ     6144,DU
         1 000051   100064 756100                    STQ     52,,PR1

PL6.E3A0      #004=FMN$READFDFIT File=FMN$OPNF.:E05TSI                           TUE 07/29/97 16:57 Page:355
     1886     2294    2         END;

   2294  1 000052   000076 710000 1                  TRA     s:2300

     1887     2295    2      ELSE DO;

     1888     2296    2         IF F$DCB.IASN=%FILE# THEN CALL UQB$MENQS(ACCT$)ALTRET(ENQERR);

   2296  1 000053   200003 471500                    LDP1    JDCB$,,AUTO
         1 000054   100103 236100                    LDQ     67,,PR1
         1 000055   000777 376007                    ANQ     511,DL
         1 000056   000001 116007                    CMPQ    1,DL
         1 000057   000066 601000 1                  TNZ     s:2297

   2296  1 000060   200004 633500                    EPPR3   ACCT$,,AUTO
         1 000061   200010 453500                    STP3    FDA+1,,AUTO
         1 000062   200010 630500                    EPPR0   FDA+1,,AUTO
         1 000063   000017 631400 xsym               EPPR1   B_VECTNIL+15
         1 000064   000000 701000 xent               TSX1    UQB$MENQS
         1 000065   000540 702000 1                  TSX2    ENQERR

     1889     2297    2         JDCB$->F$DCB.GTYP=FMGTFD;

   2297  1 000066   200003 470500                    LDP0    JDCB$,,AUTO
         1 000067   000064 236100                    LDQ     52,,PR0
         1 000070   000000 376000 2                  ANQ     0
         1 000071   020000 276003                    ORQ     8192,DU
         1 000072   000064 756100                    STQ     52,,PR0

     1890     2298    2         FDA=ACCT$->FM$CFUA.FDFITSDA;

   2298  1 000073   200004 471500                    LDP1    ACCT$,,AUTO
         1 000074   100004 235100                    LDA     4,,PR1
         1 000075   200007 755100                    STA     FDA,,AUTO

     1891     2299    2         END;

PL6.E3A0      #004=FMN$READFDFIT File=FMN$OPNF.:E05TSI                           TUE 07/29/97 16:57 Page:356
     1892     2300    1      CALL FMD$REDBUF(BUF$,1,FDA,,0) ALTRET(RETALT);

   2300  1 000076   000001 236000 2                  LDQ     1
         1 000077   200014 756100                    STQ     FDA+5,,AUTO
         1 000100   000001 236000 xsym               LDQ     B_VECTNIL+1
         1 000101   200013 756100                    STQ     FDA+4,,AUTO
         1 000102   200007 630500                    EPPR0   FDA,,AUTO
         1 000103   200012 450500                    STP0    FDA+3,,AUTO
         1 000104   000002 236000 2                  LDQ     2
         1 000105   200011 756100                    STQ     FDA+2,,AUTO
         1 000106   200006 631500                    EPPR1   BUF$,,AUTO
         1 000107   200010 451500                    STP1    FDA+1,,AUTO
         1 000110   200010 630500                    EPPR0   FDA+1,,AUTO
         1 000111   000023 631400 xsym               EPPR1   B_VECTNIL+19
         1 000112   000000 701000 xent               TSX1    FMD$REDBUF
         1 000113   000632 702000 1                  TSX2    RETALT

     1893     2301    1      FIT$=PINCRW(BUF$,SIZEW(FM$GRAN));

   2301  1 000114   200006 236100                    LDQ     BUF$,,AUTO
         1 000115   000005 036003                    ADLQ    5,DU
         1 000116   200005 756100                    STQ     FIT$,,AUTO

     1894     2302    1      CALL FMO$LOCCODP(FIT$,14) ALTRET(FMNE$FD);

   2302  1 000117   000004 236000 2                  LDQ     4
         1 000120   200011 756100                    STQ     FDA+2,,AUTO
         1 000121   200005 630500                    EPPR0   FIT$,,AUTO
         1 000122   200010 450500                    STP0    FDA+1,,AUTO
         1 000123   200010 630500                    EPPR0   FDA+1,,AUTO
         1 000124   000020 631400 xsym               EPPR1   B_VECTNIL+16
         1 000125   000000 701000 xent               TSX1    FMO$LOCCODP
         1 000126   000607 702000 1                  TSX2    FMNE$FD

     1895     2303    2      IF NOT FM$CFUA.FLAGS THEN DO;

   2303  1 000127   200004 470500                    LDP0    ACCT$,,AUTO
PL6.E3A0      #004=FMN$READFDFIT File=FMN$OPNF.:E05TSI                           TUE 07/29/97 16:57 Page:357
         1 000130   000005 236100                    LDQ     5,,PR0
         1 000131   600000 316003                    CANQ    -65536,DU
         1 000132   000155 601000 1                  TNZ     s:2310

     1896     2304    2         FM$CFUA.GRANS=CODE14.MGRANS-CODE14.CGRANS;

   2304  1 000133   200005 471500                    LDP1    FIT$,,AUTO
         1 000134   100001 236100                    LDQ     1,,PR1
         1 000135   000032 376000 xsym               ANQ     B_VECTNIL+26
         1 000136   100002 136100                    SBLQ    2,,PR1
         1 000137   000007 756100                    STQ     7,,PR0

     1897     2305    2         FM$CFUA.ACCESS=CODE14.ACCESS;

   2305  1 000140   100000 220100                    LDX0    0,,PR1
         1 000141   000005 440100                    SXL0    5,,PR0

     1898     2306    2         FM$CFUA.DFLTALL=CODE14.DFLTALL;

   2306  1 000142   200005 471500                    LDP1    FIT$,,AUTO
         1 000143   100000 721100                    LXL1    0,,PR1
         1 000144   000006 441100                    SXL1    6,,PR0

     1899     2307    2         IF FM$CFUA.FDFITSDA=0 THEN FM$CFUA.FLAGS.NEW='1'B;

   2307  1 000145   000004 235100                    LDA     4,,PR0
         1 000146   000152 601000 1                  TNZ     s:2308

   2307  1 000147   200000 236003                    LDQ     65536,DU
         1 000150   000005 256100                    ORSQ    5,,PR0
         1 000151   000222 710000 1                  TRA     s:2321

     1900     2308    2         ELSE FM$CFUA.FLAGS.EXIST='1'B;

   2308  1 000152   400000 236003                    LDQ     -131072,DU
         1 000153   000005 256100                    ORSQ    5,,PR0

PL6.E3A0      #004=FMN$READFDFIT File=FMN$OPNF.:E05TSI                           TUE 07/29/97 16:57 Page:358
     1901     2309    2         END;

   2309  1 000154   000222 710000 1                  TRA     s:2321

     1902     2310    2      ELSE IF FM$CFUA.FLAGS.EXIST AND FM$CFUA.GMOD~=0 THEN DO;

   2310  1 000155   000005 234100                    SZN     5,,PR0
         1 000156   000222 605000 1                  TPL     s:2321
         1 000157   100000 316003                    CANQ    32768,DU
         1 000160   000222 600000 1                  TZE     s:2321

     1903     2311    2            CODE14.CGRANS=CODE14.MGRANS-FM$CFUA.GRANS;/*GET IT RIGHT FOR FPARAM*/

   2311  1 000161   200005 471500                    LDP1    FIT$,,AUTO
         1 000162   100001 236100                    LDQ     1,,PR1
         1 000163   000032 376000 xsym               ANQ     B_VECTNIL+26
         1 000164   000007 136100                    SBLQ    7,,PR0
         1 000165   100002 756100                    STQ     2,,PR1

     1904     2312    3            IF F$DCB.IASN=%FILE# THEN DO;/* DEVICE MAY DEADLOCK */

   2312  1 000166   200003 470500                    LDP0    JDCB$,,AUTO
         1 000167   000103 236100                    LDQ     67,,PR0
         1 000170   000777 376007                    ANQ     511,DL
         1 000171   000001 116007                    CMPQ    1,DL
         1 000172   000222 601000 1                  TNZ     s:2321

     1905     2313    3               CALL UQB$MENQX(ACCT$)ALTRET(SECCHKFD);/*EVEN IF THIS FAILS */

   2313  1 000173   200004 631500                    EPPR1   ACCT$,,AUTO
         1 000174   200010 451500                    STP1    FDA+1,,AUTO
         1 000175   200010 630500                    EPPR0   FDA+1,,AUTO
         1 000176   000017 631400 xsym               EPPR1   B_VECTNIL+15
         1 000177   000000 701000 xent               TSX1    UQB$MENQX
         1 000200   000257 702000 1                  TSX2    SECCHKFD

     1906     2314    3               CALL FMR$L8;
PL6.E3A0      #004=FMN$READFDFIT File=FMN$OPNF.:E05TSI                           TUE 07/29/97 16:57 Page:359

   2314  1 000201   000002 631400 xsym               EPPR1   B_VECTNIL+2
         1 000202   000000 701000 xent               TSX1    FMR$L8
         1 000203   000000 011000                    NOP     0

     1907     2315    3               FM$CFUA.GMOD=0;

   2315  1 000204   200004 470500                    LDP0    ACCT$,,AUTO
         1 000205   000005 236000 2                  LDQ     5
         1 000206   000005 356100                    ANSQ    5,,PR0

     1908     2316    3               CODE14.CGRANS=CODE14.MGRANS-FM$CFUA.GRANS;

   2316  1 000207   200005 471500                    LDP1    FIT$,,AUTO
         1 000210   100001 236100                    LDQ     1,,PR1
         1 000211   000032 376000 xsym               ANQ     B_VECTNIL+26
         1 000212   000007 136100                    SBLQ    7,,PR0
         1 000213   100002 756100                    STQ     2,,PR1

     1909     2317    3               F$DCB.BFR.BUFUP(1)='1'B;

   2317  1 000214   200003 470500                    LDP0    JDCB$,,AUTO
         1 000215   400000 236003                    LDQ     -131072,DU
         1 000216   000116 256100                    ORSQ    78,,PR0

     1910     2318    3               CALL FMR$U8;

   2318  1 000217   000002 631400 xsym               EPPR1   B_VECTNIL+2
         1 000220   000000 701000 xent               TSX1    FMR$U8
         1 000221   000000 011000                    NOP     0

     1911     2319    3               END;

     1912     2320    2            END;

     1913     2321    1      IF F$DCB.IASN=%FILE# AND FM$CFUA.FDFITSDA=0 THEN

PL6.E3A0      #004=FMN$READFDFIT File=FMN$OPNF.:E05TSI                           TUE 07/29/97 16:57 Page:360
   2321  1 000222   200003 470500                    LDP0    JDCB$,,AUTO
         1 000223   000103 236100                    LDQ     67,,PR0
         1 000224   000777 376007                    ANQ     511,DL
         1 000225   000001 116007                    CMPQ    1,DL
         1 000226   000257 601000 1                  TNZ     SECCHKFD
         1 000227   200004 471500                    LDP1    ACCT$,,AUTO
         1 000230   100004 235100                    LDA     4,,PR1
         1 000231   000257 601000 1                  TNZ     SECCHKFD

     1914     2322    1         IF NOT B$JIT.PRIV.ACTIVE.FMSEC AND

   2322  1 000232   000000 473400 xsym               LDP3    B$JIT$
         1 000233   300013 236100                    LDQ     11,,PR3
         1 000234   100000 316003                    CANQ    32768,DU
         1 000235   000253 601000 1                  TNZ     s:2325
         1 000236   000051 236100                    LDQ     41,,PR0
         1 000237   000003 736000                    QLS     3
         1 000240   000006 376000 2                  ANQ     6
         1 000241   000002 736000                    QLS     2
         1 000242   000000 474400 xsym               LDP4    F$CFU$
         1 000243   040100 106506                    CMPC    fill='040'O
         1 000244   400000 400006                    ADSC9   0,Q,PR4                  cn=2,n=6
         1 000245   300234 000006                    ADSC9   156,,PR3                 cn=0,n=6
         1 000246   000532 601000 1                  TNZ     FMNE$NEWFILE
         1 000247   040100 106500                    CMPC    fill='040'O
         1 000250   100001 000010                    ADSC9   1,,PR1                   cn=0,n=8
         1 000251   300001 000010                    ADSC9   1,,PR3                   cn=0,n=8
         1 000252   000532 601000 1                  TNZ     FMNE$NEWFILE

     1915     2323    1           (FM$SET.PSN(F$DCB.SETX)~=B$JIT.HPSN OR FM$CFUA.ACCT~=B$JIT.ACCN)
     1916     2324    1         THEN GOTO FMNE$NEWFILE;
     1917     2325    1         ELSE IF NOT CODE14.ACCESS.NEWFD THEN GOTO FMNE$NONEWFD;

   2325  1 000253   200005 474500                    LDP4    FIT$,,AUTO
         1 000254   400000 236100                    LDQ     0,,PR4
         1 000255   000001 316003                    CANQ    1,DU
         1 000256   000527 600000 1                  TZE     FMNE$NONEWFD
PL6.E3A0      #004=FMN$READFDFIT File=FMN$OPNF.:E05TSI                           TUE 07/29/97 16:57 Page:361

   2325  1 000257                       SECCHKFD     null
     1918     2326                    /* NOW DO THE ACCOUNT ACCESS CONTROL */
     1919     2327    1   SECCHKFD:;
     1920     2328    1      B$JIT.ERR='0'B;

   2328  1 000257   000000 470400 xsym               LDP0    B$JIT$
         1 000260   000012 450100                    STZ     10,,PR0

     1921     2329    1      IF B$JIT.PRIV.ACTIVE.FMSEC AND (ES_LOGFILEGRANT~=%PC_ES_YES#

   2329  1 000261   000013 236100                    LDQ     11,,PR0
         1 000262   100000 316003                    CANQ    32768,DU
         1 000263   000274 600000 1                  TZE     s:2329+11
         1 000264   000000 235000 xsym               LDA     ES_LOGFILEGRANT
         1 000265   000001 115007                    CMPA    1,DL
         1 000266   000315 601000 1                  TNZ     s:2334
         1 000267   200000 316003                    CANQ    65536,DU
         1 000270   000315 601000 1                  TNZ     s:2334
         1 000271   000000 235000 xsym               LDA     S_CUN
         1 000272   000017 115007                    CMPA    15,DL
         1 000273   000315 604000 1                  TMI     s:2334
         1 000274   200004 471500                    LDP1    ACCT$,,AUTO
         1 000275   040100 106500                    CMPC    fill='040'O
         1 000276   000001 000010                    ADSC9   1,,PR0                   cn=0,n=8
         1 000277   100001 000010                    ADSC9   1,,PR1                   cn=0,n=8
         1 000300   000304 601000 1                  TNZ     s:2329+19
         1 000301   100005 236100                    LDQ     5,,PR1
         1 000302   004000 316007                    CANQ    2048,DL
         1 000303   000315 601000 1                  TNZ     s:2334
         1 000304   200003 473500                    LDP3    JDCB$,,AUTO
         1 000305   300103 236100                    LDQ     67,,PR3
         1 000306   000777 376007                    ANQ     511,DL
         1 000307   000007 116007                    CMPQ    7,DL
         1 000310   000315 600000 1                  TZE     s:2334
         1 000311   300040 236100                    LDQ     32,,PR3
         1 000312   000777 376003                    ANQ     511,DU
PL6.E3A0      #004=FMN$READFDFIT File=FMN$OPNF.:E05TSI                           TUE 07/29/97 16:57 Page:362
         1 000313   000001 116003                    CMPQ    1,DU
         1 000314   000321 601000 1                  TNZ     s:2336

     1922     2330    1        OR B$JIT.PRIV.ACTIVE.FMBLK OR S_CUN<%JG_MING#)
     1923     2331    1        OR B$JIT.ACCN=FM$CFUA.ACCT
     1924     2332    1        AND FM$CFUA.ACCESS.OWNERF
     1925     2333    1        OR F$DCB.IASN=%FMDIAG#
     1926     2334    1        OR F$DCB.WSR=1 THEN F$DCB.FFLG=%FFLG_OWNER#;

   2334  1 000315   765700 220003                    LDX0    -5184,DU
         1 000316   200003 471500                    LDP1    JDCB$,,AUTO
         1 000317   100004 740100                    STX0    4,,PR1
         1 000320   000426 710000 1                  TRA     s:2358

     1927     2335    2      ELSE DO;

     1928     2336    2         F$DCB.FFLG=FM$CFUA.DFLTALL;

   2336  1 000321   100006 720100                    LXL0    6,,PR1
         1 000322   300004 740100                    STX0    4,,PR3

     1929     2337    3         IF FM$CFUA.ACCESS.LIST OR B$JIT.PRIV.ACTIVE.FMSEC THEN DO;

   2337  1 000323   200004 471500                    LDP1    ACCT$,,AUTO
         1 000324   100005 236100                    LDQ     5,,PR1
         1 000325   200000 316007                    CANQ    65536,DL
         1 000326   000332 601000 1                  TNZ     s:2338
         1 000327   000013 236100                    LDQ     11,,PR0
         1 000330   100000 316003                    CANQ    32768,DU
         1 000331   000414 600000 1                  TZE     s:2356

     1930     2338    3            IF B$JIT.FACCN=F$DCB.ACCT AND B$JIT.FPSN=F$DCB.PSN AND B$JIT.FACNACS

   2338  1 000332   000006 237100                    LDAQ    6,,PR0
         1 000333   300020 117100                    CMPAQ   16,,PR3
         1 000334   000353 601000 1                  TNZ     s:2345
         1 000335   040100 106500                    CMPC    fill='040'O
PL6.E3A0      #004=FMN$READFDFIT File=FMN$OPNF.:E05TSI                           TUE 07/29/97 16:57 Page:363
         1 000336   000021 000006                    ADSC9   17,,PR0                  cn=0,n=6
         1 000337   300024 000006                    ADSC9   20,,PR3                  cn=0,n=6
         1 000340   000353 601000 1                  TNZ     s:2345
         1 000341   000235 721100                    LXL1    157,,PR0
         1 000342   000353 600000 1                  TZE     s:2345
         1 000343   000013 236100                    LDQ     11,,PR0
         1 000344   120000 376003                    ANQ     40960,DU
         1 000345   000353 601000 1                  TNZ     s:2345

     1931     2339    3              AND NOT B$JIT.PRIV.ACTIVE&%SUBBIT(PR_FMSEC#|PR_FMREAD#,0,18)
     1932     2340    4            THEN DO;

     1933     2341    4               F$DCB.FFLG=B$JIT.FACNACS;

   2341  1 000346   300004 741100                    STX1    4,,PR3

     1934     2342    4               F$DCB.FDCM=B$JIT.FACNCM;

   2342  1 000347   000250 236100                    LDQ     168,,PR0
         1 000350   000033 772000                    QRL     27
         1 000351   300073 552104                    STBQ    59,'04'O,PR3

     1935     2343    4               END;

   2343  1 000352   000414 710000 1                  TRA     s:2356

     1936     2344    4            ELSE DO;

     1937     2345    4               IF F$DCB.GTYP=FMGTFIT THEN GOTO REREAD; /* DIDNT READ IT YET */

   2345  1 000353   300064 236100                    LDQ     52,,PR3
         1 000354   034000 376003                    ANQ     14336,DU
         1 000355   024000 116003                    CMPQ    10240,DU
         1 000356   000034 600000 1                  TZE     REREAD

     1938     2346    4               BUF$=FM$BUF$(F$DCB.BFR.BUFX(1));

PL6.E3A0      #004=FMN$READFDFIT File=FMN$OPNF.:E05TSI                           TUE 07/29/97 16:57 Page:364
   2346  1 000357   300116 236100                    LDQ     78,,PR3
         1 000360   000033 772000                    QRL     27
         1 000361   000037 376007                    ANQ     31,DL
         1 000362   000000 236006 xsym               LDQ     FM$BUF$,QL
         1 000363   200006 756100                    STQ     BUF$,,AUTO

     1939     2347    4               CALL FMO$SECCHK(,PINCRW(BUF$,SIZEW(FM$GRAN))->FM$GRAN);

   2347  1 000364   000005 036003                    ADLQ    5,DU
         1 000365   000001 235000 xsym               LDA     B_VECTNIL+1
         1 000366   200010 757100                    STAQ    FDA+1,,AUTO
         1 000367   200010 630500                    EPPR0   FDA+1,,AUTO
         1 000370   000020 631400 xsym               EPPR1   B_VECTNIL+16
         1 000371   000000 701000 xent               TSX1    FMO$SECCHK
         1 000372   000000 011000                    NOP     0

     1940     2348    4               IF B$JIT.FACCN=F$DCB.ACCT AND B$JIT.FPSN=F$DCB.PSN

   2348  1 000373   200003 470500                    LDP0    JDCB$,,AUTO
         1 000374   000000 471400 xsym               LDP1    B$JIT$
         1 000375   100006 237100                    LDAQ    6,,PR1
         1 000376   000020 117100                    CMPAQ   16,,PR0
         1 000377   000414 601000 1                  TNZ     s:2356
         1 000400   040100 106500                    CMPC    fill='040'O
         1 000401   100021 000006                    ADSC9   17,,PR1                  cn=0,n=6
         1 000402   000024 000006                    ADSC9   20,,PR0                  cn=0,n=6
         1 000403   000414 601000 1                  TNZ     s:2356
         1 000404   100013 236100                    LDQ     11,,PR1
         1 000405   120000 376003                    ANQ     40960,DU
         1 000406   000414 601000 1                  TNZ     s:2356

     1941     2349    4                 AND NOT B$JIT.PRIV.ACTIVE&%SUBBIT(PR_FMSEC#|PR_FMREAD#,0,18)
     1942     2350    5               THEN DO;

     1943     2351    5                  B$JIT.FACNACS=F$DCB.FFLG;

   2351  1 000407   000004 220100                    LDX0    4,,PR0
PL6.E3A0      #004=FMN$READFDFIT File=FMN$OPNF.:E05TSI                           TUE 07/29/97 16:57 Page:365
         1 000410   100235 440100                    SXL0    157,,PR1

     1944     2352    5                  B$JIT.FACNCM=F$DCB.FDCM;

   2352  1 000411   000073 236100                    LDQ     59,,PR0
         1 000412   000033 736000                    QLS     27
         1 000413   100250 552140                    STBQ    168,'40'O,PR1

     1945     2353    5                  END;

     1946     2354    4               END;

     1947     2355    3            END;

     1948     2356    2         IF B$JIT.ACCN=FM$CFUA.ACCT THEN F$DCB.FFLG=F$DCB.FFLG|%FFLG_CREATE#;

   2356  1 000414   000000 470400 xsym               LDP0    B$JIT$
         1 000415   200004 471500                    LDP1    ACCT$,,AUTO
         1 000416   040100 106500                    CMPC    fill='040'O
         1 000417   000001 000010                    ADSC9   1,,PR0                   cn=0,n=8
         1 000420   100001 000010                    ADSC9   1,,PR1                   cn=0,n=8
         1 000421   000426 601000 1                  TNZ     s:2358

   2356  1 000422   200003 473500                    LDP3    JDCB$,,AUTO
         1 000423   300004 220100                    LDX0    4,,PR3
         1 000424   001000 260003                    ORX0    512,DU
         1 000425   300004 740100                    STX0    4,,PR3

     1949     2357    2         END;

     1950     2358    1      F$DCB.AUTHFFLG=F$DCB.FFLG;

   2358  1 000426   200003 471500                    LDP1    JDCB$,,AUTO
         1 000427   100004 220100                    LDX0    4,,PR1
         1 000430   100057 440100                    SXL0    47,,PR1

     1951     2359    1      F$DCB.WCDATA=FM$CFUA.ACCESS.WCDATA;
PL6.E3A0      #004=FMN$READFDFIT File=FMN$OPNF.:E05TSI                           TUE 07/29/97 16:57 Page:366

   2359  1 000431   200004 473500                    LDP3    ACCT$,,AUTO
         1 000432   300005 236100                    LDQ     5,,PR3
         1 000433   000013 736000                    QLS     11
         1 000434   100067 676100                    ERQ     55,,PR1
         1 000435   002000 376003                    ANQ     1024,DU
         1 000436   100067 656100                    ERSQ    55,,PR1

     1952     2360    1      F$DCB.WRCMP=FM$CFUA.ACCESS.WRCMP;

   2360  1 000437   300005 236100                    LDQ     5,,PR3
         1 000440   000016 736000                    QLS     14
         1 000441   100067 676100                    ERQ     55,,PR1
         1 000442   004000 376003                    ANQ     2048,DU
         1 000443   100067 656100                    ERSQ    55,,PR1

     1953     2361    1      F$DCB.BUPF=FM$CFUA.ACCESS.BUPF;

   2361  1 000444   300005 236100                    LDQ     5,,PR3
         1 000445   000015 736000                    QLS     13
         1 000446   100003 676100                    ERQ     3,,PR1
         1 000447   001000 376003                    ANQ     512,DU
         1 000450   100003 656100                    ERSQ    3,,PR1

     1954     2362    1      IF NOT FM$CFUA.ACCESS.MERGEAC THEN F$DCB.FDCM=0;

   2362  1 000451   200004 473500                    LDP3    ACCT$,,AUTO
         1 000452   300005 236100                    LDQ     5,,PR3
         1 000453   000400 316007                    CANQ    256,DL
         1 000454   000457 601000 1                  TNZ     s:2363

   2362  1 000455   000000 236003                    LDQ     0,DU
         1 000456   100073 552104                    STBQ    59,'04'O,PR1

     1955     2363    2      IF NOT F$DCB.FFLG AND B$JIT.PRIV.ACTIVE&%SUBBIT(PR_FMSEC#|PR_FMREAD#,0,18) THEN
              2363               DO;

PL6.E3A0      #004=FMN$READFDFIT File=FMN$OPNF.:E05TSI                           TUE 07/29/97 16:57 Page:367
   2363  1 000457   000000 100003                    CMPX0   0,DU
         1 000460   000475 601000 1                  TNZ     s:2369
         1 000461   000013 236100                    LDQ     11,,PR0
         1 000462   120000 376003                    ANQ     40960,DU
         1 000463   000475 600000 1                  TZE     s:2369

     1956     2364                    /* IF NONE->READONLY, IGNORE FILE ACCESS MODIFICATIONS */
     1957     2365    2         IF NOT B$JIT.PRIV.ACTIVE.FMSEC THEN F$DCB.FDCM=511;

   2365  1 000464   000013 236100                    LDQ     11,,PR0
         1 000465   100000 316003                    CANQ    32768,DU
         1 000466   000471 601000 1                  TNZ     s:2366

   2365  1 000467   000777 236007                    LDQ     511,DL
         1 000470   100073 552104                    STBQ    59,'04'O,PR1

     1958     2366    2         F$DCB.FFLG.EXEC=%YES#;

   2366  1 000471   002000 236003                    LDQ     1024,DU
         1 000472   100004 256100                    ORSQ    4,,PR1

     1959     2367    2         F$DCB.PRIVOPN='1'B;

   2367  1 000473   200000 236003                    LDQ     65536,DU
         1 000474   100102 256100                    ORSQ    66,,PR1

     1960     2368    2         END;

     1961     2369    2      IF F$DCB.IASN~=%FILE# THEN DO;

   2369  1 000475   100103 236100                    LDQ     67,,PR1
         1 000476   000777 376007                    ANQ     511,DL
         1 000477   000001 116007                    CMPQ    1,DL
         1 000500   000513 600000 1                  TZE     s:2374

     1962     2370    2         IF NOT F$DCB.FFLG THEN B$JIT.ERR=FMN$E$NOKEY;

PL6.E3A0      #004=FMN$READFDFIT File=FMN$OPNF.:E05TSI                           TUE 07/29/97 16:57 Page:368
   2370  1 000501   100004 221100                    LDX1    4,,PR1
         1 000502   000506 601000 1                  TNZ     s:2371

   2370  1 000503   000005 236000 0                  LDQ     FMN$E$NOKEY
         1 000504   000012 756100                    STQ     10,,PR0
         1 000505   000512 710000 1                  TRA     s:2372

     1963     2371    2         ELSE IF NOT F$DCB.FFLG.READ THEN B$JIT.ERR=FMN$E$NOACCESS;

   2371  1 000506   100004 234100                    SZN     4,,PR1
         1 000507   000512 604000 1                  TMI     s:2372

   2371  1 000510   000004 236000 0                  LDQ     FMN$E$NOACCESS
         1 000511   000012 756100                    STQ     10,,PR0

     1964     2372    2         RETURN;

   2372  1 000512   000000 702200 xent               TSX2  ! X66_ARET

     1965     2373    2         END;
     1966     2374    1      IF F$DCB.FFLG THEN GOTO FLSHRET;

   2374  1 000513   100004 221100                    LDX1    4,,PR1
         1 000514   000541 601000 1                  TNZ     FLSHRET

     1967     2375    1      IF F$DCB.FUN=%CREATE# THEN B$JIT.ERR=FMN$E$NEWFILE;

   2375  1 000515   100032 236100                    LDQ     26,,PR1
         1 000516   000777 376003                    ANQ     511,DU
         1 000517   000003 116003                    CMPQ    3,DU
         1 000520   000524 601000 1                  TNZ     s:2376

   2375  1 000521   000000 236000 0                  LDQ     FMN$E$NEWFILE
         1 000522   000012 756100                    STQ     10,,PR0
         1 000523   000526 710000 1                  TRA     s:2377

     1968     2376    1      ELSE B$JIT.ERR=FMN$E$NOFILE;
PL6.E3A0      #004=FMN$READFDFIT File=FMN$OPNF.:E05TSI                           TUE 07/29/97 16:57 Page:369

   2376  1 000524   000003 236000 0                  LDQ     FMN$E$NOFILE
         1 000525   000012 756100                    STQ     10,,PR0

     1969     2377    1      GOTO RETALT;

   2377  1 000526   000632 710000 1                  TRA     RETALT

     1970     2378    1   FMNE$NONEWFD: B$JIT.ERR=FMN$E$NONEWFD;

   2378  1 000527   000002 236000 0     FMNE$NONEWFD LDQ     FMN$E$NONEWFD
         1 000530   300012 756100                    STQ     10,,PR3

     1971     2379                    /*E*     ERROR: FMN-E$NONEWFD-E
     1972     2380                    *        MESSAGE: You may not create a new account% for %UF%
     1973     2381                    */
     1974     2382    1      ALTRETURN;

   2382  1 000531   000000 702200 xent               TSX2  ! X66_AALT

     1975     2383    1   FMNE$NEWFILE: B$JIT.ERR=FMN$E$NEWFILE;

   2383  1 000532   000000 236000 0     FMNE$NEWFILE LDQ     FMN$E$NEWFILE
         1 000533   300012 756100                    STQ     10,,PR3

     1976     2384    1      ALTRETURN;

   2384  1 000534   000000 702200 xent               TSX2  ! X66_AALT

     1977     2385    1   FMNE$NOFILE: B$JIT.ERR=FMN$E$NOFILE;

   2385  1 000535   000003 236000 0     FMNE$NOFILE  LDQ     FMN$E$NOFILE
         1 000536   000000 473400 xsym               LDP3    B$JIT$
         1 000537   300012 756100                    STQ     10,,PR3

     1978     2386    1   ENQERR:;

PL6.E3A0      #004=FMN$READFDFIT File=FMN$OPNF.:E05TSI                           TUE 07/29/97 16:57 Page:370
   2386  1 000540                       ENQERR       null
     1979     2387    1      ALTRETURN;

   2387  1 000540   000000 702200 xent               TSX2  ! X66_AALT

   2386  1 000541                       FLSHRET      null
     1980     2388    1   FLSHRET:;
     1981     2389    1      IF F$DCB.NAME.L=0 AND F$DCB.ACS~=%BLOCK#

   2389  1 000541   100010 236100                    LDQ     8,,PR1
         1 000542   777000 316003                    CANQ    -512,DU
         1 000543   000565 601000 1                  TNZ     s:2392
         1 000544   100036 236100                    LDQ     30,,PR1
         1 000545   000777 376007                    ANQ     511,DL
         1 000546   000003 116007                    CMPQ    3,DL
         1 000547   000565 600000 1                  TZE     s:2392
         1 000550   021000 361003                    ANX1    8704,DU
         1 000551   000565 600000 1                  TZE     s:2392

     1982     2390    1        AND F$DCB.FFLG&%(FFLG_DELF#|FFLG_CREATE#)
     1983     2391    1      THEN CALL FMO$TRNINFO(12,PINCRW(BUF$,SIZEW(FM$GRAN)));

   2391  1 000552   200006 236100                    LDQ     BUF$,,AUTO
         1 000553   000005 036003                    ADLQ    5,DU
         1 000554   200010 756100                    STQ     FDA+1,,AUTO
         1 000555   200010 633500                    EPPR3   FDA+1,,AUTO
         1 000556   200013 453500                    STP3    FDA+4,,AUTO
         1 000557   000010 236000 2                  LDQ     8
         1 000560   200012 756100                    STQ     FDA+3,,AUTO
         1 000561   200012 630500                    EPPR0   FDA+3,,AUTO
         1 000562   000020 631400 xsym               EPPR1   B_VECTNIL+16
         1 000563   000000 701000 xent               TSX1    FMO$TRNINFO
         1 000564   000000 011000                    NOP     0

     1984     2392    1      B$JIT.ERR='0'B;

   2392  1 000565   000000 470400 xsym               LDP0    B$JIT$
PL6.E3A0      #004=FMN$READFDFIT File=FMN$OPNF.:E05TSI                           TUE 07/29/97 16:57 Page:371
         1 000566   000012 450100                    STZ     10,,PR0

     1985     2393    1      CALL FMD$FLSHBUF(1);

   2393  1 000567   000002 630400 2                  EPPR0   2
         1 000570   000017 631400 xsym               EPPR1   B_VECTNIL+15
         1 000571   000000 701000 xent               TSX1    FMD$FLSHBUF
         1 000572   000000 011000                    NOP     0

     1986     2394    1      IF F$DCB.GTYP=FMGTFD

   2394  1 000573   200003 470500                    LDP0    JDCB$,,AUTO
         1 000574   000064 236100                    LDQ     52,,PR0
         1 000575   034000 376003                    ANQ     14336,DU
         1 000576   020000 116003                    CMPQ    8192,DU
         1 000577   000606 601000 1                  TNZ     s:2396

     1987     2395    1      THEN CALL UQB$MDEQ(ACCT$)ALTRET(ENQERR);

   2395  1 000600   200004 631500                    EPPR1   ACCT$,,AUTO
         1 000601   200010 451500                    STP1    FDA+1,,AUTO
         1 000602   200010 630500                    EPPR0   FDA+1,,AUTO
         1 000603   000017 631400 xsym               EPPR1   B_VECTNIL+15
         1 000604   000000 701000 xent               TSX1    UQB$MDEQ
         1 000605   000540 702000 1                  TSX2    ENQERR

     1988     2396    1      RETURN;

   2396  1 000606   000000 702200 xent               TSX2  ! X66_ARET

     1989     2397                    /**/
     1990     2398    1   FMNE$FD: B$JIT$->B$JIT.ERR=FMN$E$FD;

   2398  1 000607   000001 236000 0     FMNE$FD      LDQ     FMN$E$FD
         1 000610   000000 470400 xsym               LDP0    B$JIT$
         1 000611   000012 756100                    STQ     10,,PR0

PL6.E3A0      #004=FMN$READFDFIT File=FMN$OPNF.:E05TSI                           TUE 07/29/97 16:57 Page:372
     1991     2399    1      CALL FMB$LOGERR(%E$FD,13,8,FDA,BUF$,SIZEW(FM$GRAN),

   2399  1 000612   000014 237000 2                  LDAQ    12
         1 000613   200016 757100                    STAQ    FDA+7,,AUTO
         1 000614   000013 236000 2                  LDQ     11
         1 000615   200015 756100                    STQ     FDA+6,,AUTO
         1 000616   200006 631500                    EPPR1   BUF$,,AUTO
         1 000617   200014 451500                    STP1    FDA+5,,AUTO
         1 000620   200007 633500                    EPPR3   FDA,,AUTO
         1 000621   200013 453500                    STP3    FDA+4,,AUTO
         1 000622   000016 236000 2                  LDQ     14
         1 000623   200012 756100                    STQ     FDA+3,,AUTO
         1 000624   000020 237000 2                  LDAQ    16
         1 000625   200010 757100                    STAQ    FDA+1,,AUTO
         1 000626   200010 630500                    EPPR0   FDA+1,,AUTO
         1 000627   000026 631400 xsym               EPPR1   B_VECTNIL+22
         1 000630   000000 701000 xent               TSX1    FMB$LOGERR
         1 000631   000000 011000                    NOP     0

     1992     2400    1        SIZEW(FM$GRAN)+1,SIZEW(FM$GRAN)+2);

   2400  1 000632                       RETALT       null
     1993     2401    1   RETALT:;
     1994     2402    1      CALL FMD$FLSHBUF(1);

   2402  1 000632   000002 630400 2                  EPPR0   2
         1 000633   000017 631400 xsym               EPPR1   B_VECTNIL+15
         1 000634   000000 701000 xent               TSX1    FMD$FLSHBUF
         1 000635   000000 011000                    NOP     0

     1995     2403    1      F$DCB.BFR.DA(1)=FDA;

   2403  1 000636   200003 470500                    LDP0    JDCB$,,AUTO
         1 000637   200007 236100                    LDQ     FDA,,AUTO
         1 000640   000116 552134                    STBQ    78,'34'O,PR0

     1996     2404    1      IF F$DCB.IASN=%FILE# AND F$DCB.GTYP=FMGTFD
PL6.E3A0      #004=FMN$READFDFIT File=FMN$OPNF.:E05TSI                           TUE 07/29/97 16:57 Page:373

   2404  1 000641   000103 236100                    LDQ     67,,PR0
         1 000642   000777 376007                    ANQ     511,DL
         1 000643   000001 116007                    CMPQ    1,DL
         1 000644   000657 601000 1                  TNZ     s:2406
         1 000645   000064 236100                    LDQ     52,,PR0
         1 000646   034000 376003                    ANQ     14336,DU
         1 000647   020000 116003                    CMPQ    8192,DU
         1 000650   000657 601000 1                  TNZ     s:2406

     1997     2405    1      THEN CALL UQB$MDEQ(ACCT$)ALTRET(ENQERR);

   2405  1 000651   200004 631500                    EPPR1   ACCT$,,AUTO
         1 000652   200010 451500                    STP1    FDA+1,,AUTO
         1 000653   200010 630500                    EPPR0   FDA+1,,AUTO
         1 000654   000017 631400 xsym               EPPR1   B_VECTNIL+15
         1 000655   000000 701000 xent               TSX1    UQB$MDEQ
         1 000656   000540 702000 1                  TSX2    ENQERR

     1998     2406    1      ALTRETURN;

   2406  1 000657   000000 702200 xent               TSX2  ! X66_AALT

FMN$E$NEWFILE
 Sect OctLoc
   0     000   061516 001732                                                    1...

FMN$E$FD
 Sect OctLoc
   0     001   061516 000522                                                    1...

FMN$E$NONEWFD
 Sect OctLoc
   0     002   061516 001762                                                    1...

FMN$E$NOFILE
 Sect OctLoc
PL6.E3A0      #004=FMN$READFDFIT File=FMN$OPNF.:E05TSI                           TUE 07/29/97 16:57 Page:374
   0     003   061516 001612                                                    1...

FMN$E$NOACCESS
 Sect OctLoc
   0     004   061516 001642                                                    1...

FMN$E$NOKEY
 Sect OctLoc
   0     005   061516 001022                                                    1...

(unnamed)
 Sect OctLoc
   2     000   743777 777777   000002 006000   000003 006000   000000 000016    ................
   2     004   000003 006000   677777 777777   000007 777770   000000 000014    ................
   2     010   000007 006000   000000 000052   000000 000015   000007 006000    .......*........
   2     014   000010 006000   000011 006000   000012 006000   000000 000000    ................
   2     020   000011 006000   000012 006000                                    ........
     1999     2407    1   END FMN$READFDFIT;

PL6.E3A0      #004=FMN$READFDFIT File=FMN$OPNF.:E05TSI                           TUE 07/29/97 16:57 Page:375
--  Include file information  --

   PC_SUBS_C.:E05TOU  is referenced.
   JG_GHOSTS_C.:E05TOU  is referenced.
   B$JIT_C.:E05TOU  is referenced.
   F$JIT_C.:E05TOU  cannot be made into a system file and is referenced.
   AZ_SUBS_C.:E05TOU  is referenced.
   F_ERRORS_C.:E05TOU  is referenced.
   F$DCB.:E05TOU  is referenced.
   CP_6_SUBS.:E05TOU  is referenced.
   FM$MACROS.:E05TOU  is referenced.
      No diagnostics issued in procedure FMN$READFDFIT.
PL6.E3A0      #004=FMN$READFDFIT File=FMN$OPNF.:E05TSI                           TUE 07/29/97 16:57 Page:376

 **** Variables and constants ****

  ****  Section 000 RoData FMN$READFDFIT

  ****  Scalars and arrays  ****
OctLoc.c.b A Datatyp(siz) R M Lvl/name                 OctLoc.c.b A Datatyp(siz) R M Lvl/name

     1-0-0/b STRC        r     1 FMN$E$FD                   0-0-0/b STRC        r     1 FMN$E$NEWFILE
     4-0-0/b STRC        r     1 FMN$E$NOACCESS             3-0-0/b STRC        r     1 FMN$E$NOFILE
     5-0-0/b STRC        r     1 FMN$E$NOKEY                2-0-0/b STRC        r     1 FMN$E$NONEWFD

  ****  Auto variables  ****

  ****  Scalars and arrays  ****
OctLoc.c.b A Datatyp(siz) R M Lvl/name                 OctLoc.c.b A Datatyp(siz) R M Lvl/name

     4-0-0/w PTR         r     1 ACCT$                      6-0-0/w PTR         r     1 BUF$
     7-0-0/w SBIN        r     1 FDA                        5-0-0/w PTR         r     1 FIT$
     3-0-0/w PTR         r     1 JDCB$

  ****  SYMREF variables  ****

  ****  Scalars and arrays  ****
OctLoc.c.b A Datatyp(siz) R M Lvl/name                 OctLoc.c.b A Datatyp(siz) R M Lvl/name

     0-0-0/w PTR         r     1 B$JIT$                     0-0-0/w SBIN        r     1 ES_LOGFILEGRANT
     0-0-0/w PTR         r     1 F$CFU$
     0-0-0/w PTR         r     1 FM$BUF$(0:0)
     0-0-0/w SBIN        r     1 FM_PADSDA                  0-0-0/w SBIN        r     1 S_CUN

  ****  BASED and DCB variables  ****

  ****  Scalars and arrays  ****
OctLoc.c.b A Datatyp(siz) R M Lvl/name                 OctLoc.c.b A Datatyp(siz) R M Lvl/name

     0-0-0/d STRC(8856)  r     1 B$JIT                      0-0-0/w STRC(288)   r     1 CODE14
     0-0-0/d ASTR(3528)  r     1 F$DCB                      0-0-0/w STRC(288)   r     1 FM$CFU
PL6.E3A0      #004=FMN$READFDFIT File=FMN$OPNF.:E05TSI                           TUE 07/29/97 16:57 Page:377
     0-0-0/w STRC(288)   r     1 FM$CFUA                    0-0-0/w STRC(180)   r     1 FM$GRAN
     0-0-0/w STRC(288)   r     1 FM$SET(0:0)


   Procedure FMN$READFDFIT requires 432 words for executable code.
   Procedure FMN$READFDFIT requires 16 words of local(AUTO) storage.

    No errors detected in file FMN$OPNF.:E05TSI    .
PL6.E3A0      #004=FMN$READFDFIT File=FMN$OPNF.:E05TSI                           TUE 07/29/97 16:57 Page:378
          *** CROSS REFERENCE LISTING ***
**     DENOTES     IDENTIFIER DEFINITION
<<                 IDENTIFIER'S VALUE SET
>>                 IDENTIFIER'S VALUE USED
<>                 IDENTIFIER SET AND/OR USED
--                 IDENTIFIER REFERENCED
PL6.E3A0      #004=FMN$READFDFIT File=FMN$OPNF.:E05TSI                           TUE 07/29/97 16:57 Page:379
          MINI XREF LISTING

ACCT$
        23**DCL       417--IMP-PTR   423--IMP-PTR  2286<<ASSIGN   2287>>IF       2290>>IF       2296<>CALL
      2298>>ASSIGN   2303>>IF       2304>>ASSIGN   2305>>ASSIGN   2306>>ASSIGN   2307>>IF       2307>>ASSIGN
      2308>>ASSIGN   2310>>IF       2310>>IF       2311>>ASSIGN   2313<>CALL     2315>>ASSIGN   2316>>ASSIGN
      2321>>IF       2322>>IF       2329>>IF       2329>>IF       2336>>ASSIGN   2337>>IF       2356>>IF
      2359>>ASSIGN   2360>>ASSIGN   2361>>ASSIGN   2362>>IF       2395<>CALL     2405<>CALL
B$JIT.ACCN
      1724**DCL      2322>>IF       2329>>IF       2356>>IF
B$JIT.DCB$
      1814**DCL      2283>>ASSIGN
B$JIT.ERR
      1724**DCL      2328<<ASSIGN   2370<<ASSIGN   2371<<ASSIGN   2375<<ASSIGN   2376<<ASSIGN   2378<<ASSIGN
      2383<<ASSIGN   2385<<ASSIGN   2392<<ASSIGN   2398<<ASSIGN
B$JIT.ERR.MID
      1725**DCL      1725--REDEF
B$JIT.FACCN
      1724**DCL      2338>>IF       2348>>IF
B$JIT.FACNACS
      1814**DCL      2338>>IF       2341>>ASSIGN   2351<<ASSIGN
B$JIT.FACNCM
      1816**DCL      2342>>ASSIGN   2352<<ASSIGN
B$JIT.FPSN
      1805**DCL      2338>>IF       2348>>IF
B$JIT.HPSN
      1814**DCL      2322>>IF
B$JIT.PRIV.ACTIVE
      1725**DCL      2338>>IF       2348>>IF       2363>>IF
B$JIT.PRIV.ACTIVE.FMBLK
      1725**DCL      2329>>IF
B$JIT.PRIV.ACTIVE.FMSEC
      1726**DCL      2322>>IF       2329>>IF       2337>>IF       2365>>IF
B$JIT$
PL6.E3A0      #004=FMN$READFDFIT File=FMN$OPNF.:E05TSI                           TUE 07/29/97 16:57 Page:380
      2253**DCL      1719--IMP-PTR  2283>>ASSIGN   2322>>IF       2322>>IF       2322>>IF       2328>>ASSIGN
      2329>>IF       2329>>IF       2329>>IF       2337>>IF       2338>>IF       2338>>IF       2338>>IF
      2338>>IF       2341>>ASSIGN   2342>>ASSIGN   2348>>IF       2348>>IF       2348>>IF       2351>>ASSIGN
      2352>>ASSIGN   2356>>IF       2363>>IF       2365>>IF       2370>>ASSIGN   2371>>ASSIGN   2375>>ASSIGN
      2376>>ASSIGN   2378>>ASSIGN   2383>>ASSIGN   2385>>ASSIGN   2392>>ASSIGN   2398>>ASSIGN
BUF$
        25**DCL      2300<>CALL     2301>>ASSIGN   2346<<ASSIGN   2347>>CALL     2391>>CALL     2399<>CALL
CODE14.ACCESS
       433**DCL      2305>>ASSIGN
CODE14.ACCESS.NEWFD
       434**DCL      2325>>IF
CODE14.CGRANS
       436**DCL      2304>>ASSIGN   2311<<ASSIGN   2316<<ASSIGN
CODE14.DFLTALL
       434**DCL      2306>>ASSIGN
CODE14.MGRANS
       436**DCL      2304>>ASSIGN   2311>>ASSIGN   2316>>ASSIGN
ENQERR
      2386**LABEL    2296--CALLALT  2395--CALLALT  2405--CALLALT
ES_LOGFILEGRANT
      2251**DCL      2329>>IF
F$CFU$
      2252**DCL       443--IMP-PTR  2286>>ASSIGN   2322>>IF
F$DCB.ACCT
      1049**DCL      2338>>IF       2348>>IF
F$DCB.ACS
      1056**DCL      2389>>IF
F$DCB.ACTPOS
      1064**DCL      1064--REDEF
F$DCB.ARS
      1039**DCL      1039--REDEF
F$DCB.ATTR
      1057**DCL      1058--REDEF
F$DCB.AUTHFFLG
      1064**DCL      2358<<ASSIGN
F$DCB.BFR.BUFUP
PL6.E3A0      #004=FMN$READFDFIT File=FMN$OPNF.:E05TSI                           TUE 07/29/97 16:57 Page:381
      1083**DCL      2317<<ASSIGN
F$DCB.BFR.BUFX
      1084**DCL      2346>>ASSIGN
F$DCB.BFR.DA
      1084**DCL      2403<<ASSIGN
F$DCB.BORROW
      1072**DCL      1072--REDEF    1072--REDEF    1072--REDEF
F$DCB.BUPF
      1042**DCL      2361<<ASSIGN
F$DCB.CFU$
      1073**DCL      2286>>ASSIGN
F$DCB.DCBNAME.L
      1086**DCL      1086--IMP-SIZ
F$DCB.EOMCHAR
      1043**DCL      1043--REDEF
F$DCB.FDCM
      1076**DCL      2342<<ASSIGN   2352>>ASSIGN   2362<<ASSIGN   2365<<ASSIGN
F$DCB.FFLG
      1043**DCL      2284>>IF       2334<<ASSIGN   2336<<ASSIGN   2341<<ASSIGN   2351>>ASSIGN   2356<<ASSIGN
      2356>>ASSIGN   2358>>ASSIGN   2363>>IF       2370>>IF       2374>>IF       2389>>IF
F$DCB.FFLG.EXEC
      1044**DCL      2366<<ASSIGN
F$DCB.FFLG.READ
      1044**DCL      2371>>IF
F$DCB.FLDID
      1067**DCL      1067--REDEF
F$DCB.FORM$
      1061**DCL      1061--REDEF
F$DCB.FSECT
      1077**DCL      1077--REDEF
F$DCB.FSN
      1054**DCL      1054--REDEF    1054--REDEF    1055--REDEF
F$DCB.FUN
      1053**DCL      2291>>IF       2375>>IF
F$DCB.GTYP
      1068**DCL      2285<<ASSIGN   2293<<ASSIGN   2297<<ASSIGN   2345>>IF       2394>>IF       2404>>IF
PL6.E3A0      #004=FMN$READFDFIT File=FMN$OPNF.:E05TSI                           TUE 07/29/97 16:57 Page:382
F$DCB.HEADER$
      1060**DCL      1060--REDEF
F$DCB.IASN
      1080**DCL      2287>>IF       2296>>IF       2312>>IF       2321>>IF       2329>>IF       2369>>IF
      2404>>IF
F$DCB.IXTNSIZE
      1058**DCL      1058--REDEF
F$DCB.LASTSTA$
      1048**DCL      1048--REDEF
F$DCB.LVL
      1073**DCL      1073--REDEF
F$DCB.NAME.C
      1048**DCL      1048--REDEF
F$DCB.NAME.L
      1048**DCL      2287>>IF       2389>>IF
F$DCB.NOEOF
      1069**DCL      1069--REDEF
F$DCB.NRECS
      1059**DCL      1059--REDEF
F$DCB.NRECX
      1078**DCL      1078--REDEF
F$DCB.OHDR
      1070**DCL      1070--REDEF
F$DCB.ORG
      1053**DCL      1053--REDEF
F$DCB.PRECNO
      1076**DCL      1076--REDEF
F$DCB.PRIVOPN
      1078**DCL      2367<<ASSIGN
F$DCB.PSN
      1049**DCL      2338>>IF       2348>>IF
F$DCB.RCSZ
      1081**DCL      1081--REDEF
F$DCB.RES
      1049**DCL      1049--REDEF
F$DCB.SETX
PL6.E3A0      #004=FMN$READFDFIT File=FMN$OPNF.:E05TSI                           TUE 07/29/97 16:57 Page:383
      1061**DCL      1061--REDEF    2322>>IF
F$DCB.TAB$
      1060**DCL      1061--REDEF
F$DCB.TDA
      1075**DCL      1075--REDEF
F$DCB.WCDATA
      1073**DCL      2359<<ASSIGN
F$DCB.WRCMP
      1073**DCL      2360<<ASSIGN
F$DCB.WSN
      1050**DCL      1050--REDEF
F$DCB.WSR
      1056**DCL      2329>>IF
FDA
        26**DCL      2292<<ASSIGN   2298<<ASSIGN   2300<>CALL     2399<>CALL     2403>>ASSIGN
FIT$
        24**DCL       431--IMP-PTR  2301<<ASSIGN   2302<>CALL     2304>>ASSIGN   2304>>ASSIGN   2305>>ASSIGN
      2306>>ASSIGN   2311>>ASSIGN   2311>>ASSIGN   2316>>ASSIGN   2316>>ASSIGN   2325>>IF
FLSHRET
      2386**LABEL    2374--GOTO
FM$BUF$
      2255**DCL      2346>>ASSIGN
FM$CFU.ACCTX
       424**DCL       424--REDEF    2286>>ASSIGN
FM$CFUA.ACCESS
       418**DCL      2305<<ASSIGN
FM$CFUA.ACCESS.BUPF
       419**DCL      2361>>ASSIGN
FM$CFUA.ACCESS.LIST
       418**DCL      2337>>IF
FM$CFUA.ACCESS.MERGEAC
       419**DCL      2362>>IF
FM$CFUA.ACCESS.OWNERF
       419**DCL      2329>>IF
FM$CFUA.ACCESS.WCDATA
       418**DCL      2359>>ASSIGN
PL6.E3A0      #004=FMN$READFDFIT File=FMN$OPNF.:E05TSI                           TUE 07/29/97 16:57 Page:384
FM$CFUA.ACCESS.WRCMP
       419**DCL      2360>>ASSIGN
FM$CFUA.ACCT
       417**DCL      2322>>IF       2329>>IF       2356>>IF
FM$CFUA.DFLTALL
       420**DCL      2306<<ASSIGN   2336>>ASSIGN
FM$CFUA.FDFITSDA
       417**DCL      2290>>IF       2298>>ASSIGN   2307>>IF       2321>>IF
FM$CFUA.FLAGS
       417**DCL      2303>>IF
FM$CFUA.FLAGS.EXIST
       417**DCL      2287>>IF       2308<<ASSIGN   2310>>IF
FM$CFUA.FLAGS.NEW
       418**DCL      2307<<ASSIGN
FM$CFUA.GMOD
       418**DCL      2310>>IF       2315<<ASSIGN
FM$CFUA.GRANS
       420**DCL      2304<<ASSIGN   2311>>ASSIGN   2316>>ASSIGN
FM$GRAN
       439**DCL      2301--ASSIGN   2347--CALL     2347<>CALL     2391--CALL     2399--CALL     2399--CALL
      2399--CALL
FM$SET.PSN
       443**DCL      2322>>IF
FM$SET.USERLIST
       444**DCL       444--REDEF
FMB$LOGERR
        31**DCL-ENT  2399--CALL
FMD$FLSHBUF
        32**DCL-ENT  2393--CALL     2402--CALL
FMD$REDBUF
        29**DCL-ENT  2300--CALL
FMN$E$FD
      2263**DCL      2398>>ASSIGN
FMN$E$NEWFILE
      2259**DCL      2375>>ASSIGN   2383>>ASSIGN
FMN$E$NOACCESS
PL6.E3A0      #004=FMN$READFDFIT File=FMN$OPNF.:E05TSI                           TUE 07/29/97 16:57 Page:385
      2275**DCL      2371>>ASSIGN
FMN$E$NOFILE
      2271**DCL      2376>>ASSIGN   2385>>ASSIGN
FMN$E$NOKEY
      2279**DCL      2370>>ASSIGN
FMN$E$NONEWFD
      2267**DCL      2378>>ASSIGN
FMNE$FD
      2398**LABEL    2302--CALLALT
FMNE$NEWFILE
      2383**LABEL    2324--GOTO
FMNE$NOFILE
      2385**LABEL    2291--GOTO
FMNE$NONEWFD
      2378**LABEL    2325--GOTO
FMO$LOCCODP
        30**DCL-ENT  2302--CALL
FMO$SECCHK
        34**DCL-ENT  2347--CALL
FMO$TRNINFO
        33**DCL-ENT  2391--CALL
FMR$L8
        35**DCL-ENT  2314--CALL
FMR$U8
        36**DCL-ENT  2318--CALL
FM_PADSDA
      2254**DCL      2292>>ASSIGN
JDCB$
        22**DCL      1039--IMP-PTR  2283<<ASSIGN   2284>>IF       2285>>ASSIGN   2286>>ASSIGN   2287>>IF
      2287>>IF       2291>>IF       2293>>ASSIGN   2296>>IF       2297>>ASSIGN   2312>>IF       2317>>ASSIGN
      2321>>IF       2322>>IF       2329>>IF       2329>>IF       2334>>ASSIGN   2336>>ASSIGN   2338>>IF
      2338>>IF       2341>>ASSIGN   2342>>ASSIGN   2345>>IF       2346>>ASSIGN   2348>>IF       2348>>IF
      2351>>ASSIGN   2352>>ASSIGN   2356>>ASSIGN   2356>>ASSIGN   2358>>ASSIGN   2358>>ASSIGN   2359>>ASSIGN
      2360>>ASSIGN   2361>>ASSIGN   2362>>ASSIGN   2363>>IF       2365>>ASSIGN   2366>>ASSIGN   2367>>ASSIGN
      2369>>IF       2370>>IF       2371>>IF       2374>>IF       2375>>IF       2389>>IF       2389>>IF
      2389>>IF       2394>>IF       2403>>ASSIGN   2404>>IF       2404>>IF
PL6.E3A0      #004=FMN$READFDFIT File=FMN$OPNF.:E05TSI                           TUE 07/29/97 16:57 Page:386
REREAD
      2287**LABEL    2345--GOTO
RETALT
      2400**LABEL    2300--CALLALT  2377--GOTO
SECCHKFD
      2325**LABEL    2288--GOTO     2313--CALLALT
S_CUN
      2250**DCL      2329>>IF
UQB$MDEQ
        39**DCL-ENT  2395--CALL     2405--CALL
UQB$MENQS
        37**DCL-ENT  2296--CALL
UQB$MENQX
        38**DCL-ENT  2313--CALL
