PL6.E3A0      #002=FMO$LOCCODE File=FMO$OBSE.:E05TSI                             TUE 07/29/97 16:57 Page:424
     2288        1        /*T***********************************************************/
     2289        2        /*T*                                                         */
     2290        3        /*T* Copyright (c) Bull HN Information Systems Inc., 1997    */
     2291        4        /*T*                                                         */
     2292        5        /*T***********************************************************/
     2293        6                    /* FMO$LOCCODx */
     2294        7        %INCLUDE FM$FIT;
     2295      228        %LIST;
     2296      229           %LOCCODE(PREF=FMO);
               230        %LSET LISTDIR='0'B;
               237        FMO$LOCCODE:  PROC(FIT$,CODE) ALTRET;
               238    1   DCL FIT$ PTR;
               239    1   DCL CODE UBIN;
               240    1   DCL I UBIN;
               241    1   DCL NC UBIN;
               242    1   DCL ENTNO UBIN;
               248    1           ENTNO=0;
               249    1           GOTO MAINLOOP;
               250    1   FMO$LOCCODX:  ENTRY(FIT$,CODE) ALTRET;
               251    1           ENTNO=2;
               252    1           GOTO MAINLOOP;
               253    1   FMO$LOCCODT:  ENTRY(FIT$,CODE)ALTRET;
               254    1           ENTNO=3;
               255    1           GOTO MAINLOOP;
               256    1   FMO$LOCCODP:  ENTRY(FIT$,CODE) ALTRET;
               257    1           ENTNO=1;
               258    1   MAINLOOP:
               259    1           NC=FM$FIT.CODES.CODE(0);
               260    2           DO I= 1 TO NC;
               261    3              IF FM$FIT.CODES.CODE(I)=CODE THEN DO CASE(ENTNO);
               262    3               CASE(0);
               263    3                 FIT$=PINCRW(FIT$,FM$FIT.CODES.ITEMX(I));
               264    3                 CODE=I;
               265    3                 RETURN;
               266    3               CASE(1);
               267    3                 FIT$=PINCRW(FIT$,FM$FIT.CODES.ITEMX(I));
               268    3                 RETURN;
PL6.E3A0      #002=FMO$LOCCODE File=FMO$OBSE.:E05TSI                             TUE 07/29/97 16:57 Page:425
               269    3               CASE(2);
               270    3                 CODE=I;
               271    3                 RETURN;
               272    3               CASE(3);
               273    3                 IF FM$FIT.CODES.NDW(I)=0 THEN ALTRETURN;
               274    3                 FIT$=PINCRW(FIT$,FM$FIT.CODES.ITEMX(I));
               275    3                 RETURN;
               276    3               END;
               277    2              END;
               278    1           ALTRETURN;
               279    1   END FMO$LOCCODE;
     2297      281        %EOD;

PL6.E3A0      #002=FMO$LOCCODE File=FMO$OBSE.:E05TSI                             TUE 07/29/97 16:57 Page:426
--  Include file information  --

   FM$FIT.:E05TOU  is referenced.
      No diagnostics issued in procedure FMO$LOCCODE.

   Procedure FMO$LOCCODE requires 73 words for executable code.
   Procedure FMO$LOCCODE requires 8 words of local(AUTO) storage.

PL6.E3A0      #002=FMO$LOCCODE File=FMO$OBSE.:E05TSI                             TUE 07/29/97 16:57 Page:427

 Object Unit name= FMO$LOCCODE                                File name= FMO$OBSE.:E05TOU
 UTS= JUL 29 '97 16:57:49.96 TUE                              Compiler= PL-6/E31         Sev=      00
 SharedLib= :SHARED_SYSTEM                                    Alt SharedLib=


    ****  Control sections  ****

 Sect   Type Bound  Init  Size OctSiz  Section name(segment info)
    0   Proc  even  none    73    111  FMO$LOCCODE
    1  RoData even  none     1      1  FMO$LOCCODE

    ****  Entry defs  ****

                              Check   Calling
                             calling  sequence
  Sect OctLoc Primary Altret sequence   type   Parms  Name
     0      0   yes    yes     yes      Std        2  FMO$LOCCODE
     0      4          yes     yes      Std        2  FMO$LOCCODX
     0     11          yes     yes      Std        2  FMO$LOCCODT
     0     16          yes     yes      Std        2  FMO$LOCCODP

  ****  Entry refs  ****

         Check        Calling
        calling       sequence
Altret sequence SRef   type   Args  Name
                       nStd      0 X66_AUTO_2
                       nStd      0 X66_ARET
                       nStd      0 X66_AALT
PL6.E3A0      #002=FMO$LOCCODE File=FMO$OBSE.:E05TSI                             TUE 07/29/97 16:57 Page:428


     2288        1        /*T***********************************************************/
     2289        2        /*T*                                                         */
     2290        3        /*T* Copyright (c) Bull HN Information Systems Inc., 1997    */
     2291        4        /*T*                                                         */
     2292        5        /*T***********************************************************/
     2293        6                    /* FMO$LOCCODx */
     2294        7        %INCLUDE FM$FIT;
     2295      228        %LIST;
     2296      229           %LOCCODE(PREF=FMO);
               230        %LSET LISTDIR='0'B;
               237        FMO$LOCCODE:  PROC(FIT$,CODE) ALTRET;

    237  0 000000   000000 700200 xent  FMO$LOCCODE  TSX0  ! X66_AUTO_2
         0 000001   000010 000002                    ZERO    8,2

               238    1   DCL FIT$ PTR;
               239    1   DCL CODE UBIN;
               240    1   DCL I UBIN;
               241    1   DCL NC UBIN;
               242    1   DCL ENTNO UBIN;
               248    1           ENTNO=0;

    248  0 000002   200007 450100                    STZ     ENTNO,,AUTO

               249    1           GOTO MAINLOOP;

    249  0 000003   000022 710000 0                  TRA     MAINLOOP

               250    1   FMO$LOCCODX:  ENTRY(FIT$,CODE) ALTRET;

    250  0 000004   000000 700200 xent  FMO$LOCCODX  TSX0  ! X66_AUTO_2
         0 000005   000010 000002                    ZERO    8,2

               251    1           ENTNO=2;

    251  0 000006   000002 235007                    LDA     2,DL
PL6.E3A0      #002=FMO$LOCCODE File=FMO$OBSE.:E05TSI                             TUE 07/29/97 16:57 Page:429
         0 000007   200007 755100                    STA     ENTNO,,AUTO

               252    1           GOTO MAINLOOP;

    252  0 000010   000022 710000 0                  TRA     MAINLOOP

               253    1   FMO$LOCCODT:  ENTRY(FIT$,CODE)ALTRET;

    253  0 000011   000000 700200 xent  FMO$LOCCODT  TSX0  ! X66_AUTO_2
         0 000012   000010 000002                    ZERO    8,2

               254    1           ENTNO=3;

    254  0 000013   000003 235007                    LDA     3,DL
         0 000014   200007 755100                    STA     ENTNO,,AUTO

               255    1           GOTO MAINLOOP;

    255  0 000015   000022 710000 0                  TRA     MAINLOOP

               256    1   FMO$LOCCODP:  ENTRY(FIT$,CODE) ALTRET;

    256  0 000016   000000 700200 xent  FMO$LOCCODP  TSX0  ! X66_AUTO_2
         0 000017   000010 000002                    ZERO    8,2

               257    1           ENTNO=1;

    257  0 000020   000001 235007                    LDA     1,DL
         0 000021   200007 755100                    STA     ENTNO,,AUTO

               258    1   MAINLOOP:
               259    1           NC=FM$FIT.CODES.CODE(0);

    259  0 000022   200003 470500       MAINLOOP     LDP0    @FIT$,,AUTO
         0 000023   000000 471500                    LDP1    0,,PR0
         0 000024   100000 236100                    LDQ     0,,PR1
         0 000025   000037 772000                    QRL     31
PL6.E3A0      #002=FMO$LOCCODE File=FMO$OBSE.:E05TSI                             TUE 07/29/97 16:57 Page:430
         0 000026   200006 756100                    STQ     NC,,AUTO

               260    2           DO I= 1 TO NC;

    260  0 000027   000001 235007                    LDA     1,DL
         0 000030   200005 755100                    STA     I,,AUTO
         0 000031   000105 710000 0                  TRA     s:277+3

               261    3              IF FM$FIT.CODES.CODE(I)=CODE THEN DO CASE(ENTNO);

    261  0 000032   200003 470500                    LDP0    @FIT$,,AUTO
         0 000033   000000 471500                    LDP1    0,,PR0
         0 000034   200004 473500                    LDP3    @CODE,,AUTO
         0 000035   200005 720100                    LXL0    I,,AUTO
         0 000036   100000 236110                    LDQ     0,X0,PR1
         0 000037   000037 772000                    QRL     31
         0 000040   300000 116100                    CMPQ    0,,PR3
         0 000041   000102 601000 0                  TNZ     s:277

    261  0 000042   200007 235100                    LDA     ENTNO,,AUTO
         0 000043   000004 115007                    CMPA    4,DL
         0 000044   000046 602005 0                  TNC     s:261+12,AL
         0 000045   000102 710000 0                  TRA     s:277
         0 000046   000052 710000 0                  TRA     s:263
         0 000047   000061 710000 0                  TRA     s:267
         0 000050   000066 710000 0                  TRA     s:270
         0 000051   000071 710000 0                  TRA     s:273

               262    3               CASE(0);

               263    3                 FIT$=PINCRW(FIT$,FM$FIT.CODES.ITEMX(I));

    263  0 000052   100000 721110                    LXL1    0,X0,PR1
         0 000053   001777 361003                    ANX1    1023,DU
         0 000054   100000 634511                    EPPR4   0,X1,PR1
         0 000055   000000 454500                    STP4    0,,PR0

PL6.E3A0      #002=FMO$LOCCODE File=FMO$OBSE.:E05TSI                             TUE 07/29/97 16:57 Page:431
               264    3                 CODE=I;

    264  0 000056   200005 236100                    LDQ     I,,AUTO
         0 000057   300000 756100                    STQ     0,,PR3

               265    3                 RETURN;

    265  0 000060   000000 702200 xent               TSX2  ! X66_ARET

               266    3               CASE(1);

               267    3                 FIT$=PINCRW(FIT$,FM$FIT.CODES.ITEMX(I));

    267  0 000061   100000 721110                    LXL1    0,X0,PR1
         0 000062   001777 361003                    ANX1    1023,DU
         0 000063   100000 634511                    EPPR4   0,X1,PR1
         0 000064   000000 454500                    STP4    0,,PR0

               268    3                 RETURN;

    268  0 000065   000000 702200 xent               TSX2  ! X66_ARET

               269    3               CASE(2);

               270    3                 CODE=I;

    270  0 000066   200005 235100                    LDA     I,,AUTO
         0 000067   300000 755100                    STA     0,,PR3

               271    3                 RETURN;

    271  0 000070   000000 702200 xent               TSX2  ! X66_ARET

               272    3               CASE(3);

               273    3                 IF FM$FIT.CODES.NDW(I)=0 THEN ALTRETURN;

PL6.E3A0      #002=FMO$LOCCODE File=FMO$OBSE.:E05TSI                             TUE 07/29/97 16:57 Page:432
    273  0 000071   100000 236110                    LDQ     0,X0,PR1
         0 000072   000000 316000 1                  CANQ    0
         0 000073   000075 601000 0                  TNZ     s:274

    273  0 000074   000000 702200 xent               TSX2  ! X66_AALT

               274    3                 FIT$=PINCRW(FIT$,FM$FIT.CODES.ITEMX(I));

    274  0 000075   100000 721110                    LXL1    0,X0,PR1
         0 000076   001777 361003                    ANX1    1023,DU
         0 000077   100000 634511                    EPPR4   0,X1,PR1
         0 000100   000000 454500                    STP4    0,,PR0

               275    3                 RETURN;

    275  0 000101   000000 702200 xent               TSX2  ! X66_ARET

               276    3               END;

               277    2              END;

    277  0 000102   200005 235100                    LDA     I,,AUTO
         0 000103   000001 035007                    ADLA    1,DL
         0 000104   200005 755100                    STA     I,,AUTO
         0 000105   200006 236100                    LDQ     NC,,AUTO
         0 000106   200005 116100                    CMPQ    I,,AUTO
         0 000107   000032 603000 0                  TRC     s:261

               278    1           ALTRETURN;

    278  0 000110   000000 702200 xent               TSX2  ! X66_AALT
               279    1   END FMO$LOCCODE;
     2297      281        %EOD;

PL6.E3A0      #002=FMO$LOCCODE File=FMO$OBSE.:E05TSI                             TUE 07/29/97 16:57 Page:433
--  Include file information  --

   FM$FIT.:E05TOU  is referenced.
      No diagnostics issued in procedure FMO$LOCCODE.
PL6.E3A0      #002=FMO$LOCCODE File=FMO$OBSE.:E05TSI                             TUE 07/29/97 16:57 Page:434

 **** Variables and constants ****

  ****  Auto variables  ****

  ****  Scalars and arrays  ****
OctLoc.c.b A Datatyp(siz) R M Lvl/name                 OctLoc.c.b A Datatyp(siz) R M Lvl/name

     4-0-0/w PTR         r     1 @CODE                      3-0-0/w PTR         r     1 @FIT$
    *0-0-0/w UBIN        r     1 CODE                       7-0-0/w UBIN        r     1 ENTNO
    *0-0-0/w PTR         r     1 FIT$                       5-0-0/w UBIN        r     1 I
     6-0-0/w UBIN        r     1 NC

  ****  BASED and DCB variables  ****

  ****  Scalars and arrays  ****
OctLoc.c.b A Datatyp(siz) R M Lvl/name                 OctLoc.c.b A Datatyp(siz) R M Lvl/name

     0-0-0/w STRC(1116)  r     1 FM$FIT


   Procedure FMO$LOCCODE requires 73 words for executable code.
   Procedure FMO$LOCCODE requires 8 words of local(AUTO) storage.
PL6.E3A0      #002=FMO$LOCCODE File=FMO$OBSE.:E05TSI                             TUE 07/29/97 16:57 Page:435
          *** CROSS REFERENCE LISTING ***
**     DENOTES     IDENTIFIER DEFINITION
<<                 IDENTIFIER'S VALUE SET
>>                 IDENTIFIER'S VALUE USED
<>                 IDENTIFIER SET AND/OR USED
--                 IDENTIFIER REFERENCED
PL6.E3A0      #002=FMO$LOCCODE File=FMO$OBSE.:E05TSI                             TUE 07/29/97 16:57 Page:436
          MINI XREF LISTING

CODE
       239**DCL       237--PROC      250--ENTRY     253--ENTRY     256--ENTRY     261>>IF        264<<ASSIGN
       270<<ASSIGN
ENTNO
       242**DCL       248<<ASSIGN    251<<ASSIGN    254<<ASSIGN    257<<ASSIGN    261>>DOCASE
FIT$
       238**DCL       237--PROC      245--IMP-PTR   250--ENTRY     253--ENTRY     256--ENTRY     259>>ASSIGN
       261>>IF        263<<ASSIGN    263>>ASSIGN    263>>ASSIGN    267<<ASSIGN    267>>ASSIGN    267>>ASSIGN
       273>>IF        274<<ASSIGN    274>>ASSIGN    274>>ASSIGN
FM$FIT.CODES.CODE
       245**DCL       259>>ASSIGN    261>>IF
FM$FIT.CODES.ITEMX
       245**DCL       263>>ASSIGN    267>>ASSIGN    274>>ASSIGN
FM$FIT.CODES.NDW
       245**DCL       273>>IF
I
       240**DCL       260<<DOINDEX   261>>IF        263>>ASSIGN    264>>ASSIGN    267>>ASSIGN    270>>ASSIGN
       273>>IF        274>>ASSIGN
MAINLOOP
       259**LABEL     249--GOTO      252--GOTO      255--GOTO
NC
       241**DCL       259<<ASSIGN    260>>DOINDEX

PL6.E3A0      #003=FMO$GETDOMAIN File=FMO$OBSE.:E05TSI                           TUE 07/29/97 16:57 Page:437
     2298        1        /*T***********************************************************/
     2299        2        /*T*                                                         */
     2300        3        /*T* Copyright (c) Bull HN Information Systems Inc., 1997    */
     2301        4        /*T*                                                         */
     2302        5        /*T***********************************************************/
     2303        6                    /*F*
     2304        7                    *     NAME:   FMO$GETDOMAIN
     2305        8                    *     PURPOSE:  TO GET THE WSR NUMBER FROM THE SAFE STORE FRAME
     2306        9                    *               WHICH EXECUTED THIS PMME CLIMB.
     2307       10                    */
     2308       11        FMO$GETDOMAIN: PROC(WSR);
     2309       12                    /**/
     2310       13        %MACRO B$ROSEG (BASED="BASED(B$ROSEG$)");
     2311       14        %INCLUDE B$ROSEG;
     2312       77        %MEND;
     2313       78        %B$ROSEG;
     2314      138    1   DCL B$ROSEG$ PTR SYMREF READONLY;
     2315      139        %INCLUDE B$SS;
     2316      318        %INCLUDE B_MAGIC_C;
     2317      436        %B_MPT (FPTN=B_MPT,STCLASS=SYMREF);
     2318      529        %INCLUDE B_STRINGS_C;
     2319      658        %INCLUDE KI_SUBS_C;
     2320      794        %INCLUDE M_INFO_C;
     2321      934        %INCLUDE B_MACROS_C;
     2322     1045        %T01DESCR (NAME=DSC);
     2323     1053    1   DCL B$USERHJIT$ PTR SYMREF READONLY;
     2324     1054        %LIST;
     2325     1055                    /**/
     2326     1056                    /* PARAMETER DATA */
     2327     1057    1   DCL WSR SBIN; /* WORKING SPACE QUARTER */
     2328     1058                    /**/
     2329     1059                    /**/
     2330     1060                    /* AUTO VARIABLE(S) */
     2331     1061                    /**/
     2332     1062    1   DCL OFS SBIN;
     2333     1063
     2334     1064    1      WSR=B_MPT.SS$->B$SS.ISR.WSR;
PL6.E3A0      #003=FMO$GETDOMAIN File=FMO$OBSE.:E05TSI                           TUE 07/29/97 16:57 Page:438
     2335     1065    1      RETURN;
     2336     1066                    /**/
     2337     1067    1   FMO$GETPFB: ENTRY (WSR);
     2338     1068                    /**/
     2339     1069                    /*F*
     2340     1070                    *     NAME:   FMO$GETPFB
     2341     1071                    *     PURPOSE: GETS THE WSR NUMBER OF THE SAFE STORE FRAME WHICH
     2342     1072                    *              EXECUTED THIS PMME AND CONVERTS IT TO FEP DOMAIN
     2343     1073                    *              INDEX FORMAT (PAUL'S FUNNY BYTE).
     2344     1074                    */
     2345     1075    1      OFS=B_MPT.SSDESC$->DSC.BASE/4-%HJITPG*1024;
     2346     1076    1   NXTFRAME:;
     2347     1077    1      WSR=PINCRW(B$USERHJIT$,OFS)->B$SS.ISR.WSR;
     2348     1078    1      IF WSR=%CPWSR THEN WSR=KIDM_CP;
     2349     1079    1      ELSE IF WSR=%DBWSR THEN WSR=KIDM_DB;
     2350     1080    1         ELSE IF WSR=%USERWSR THEN WSR=KIDM_USER;
     2351     1081    2            ELSE DO;
     2352     1082                    /* Must be a monitor PMME, find the one that invoked it. */
     2353     1083    3               DO SELECT PINCRW(B$USERHJIT$,OFS)->B$SS.SCR;
     2354     1084    3                  SELECT '00'B;
     2355     1085    3                  OFS=OFS-16;
     2356     1086    3                  SELECT '01'B;
     2357     1087    3                  OFS=OFS-24;
     2358     1088    3                  SELECT ELSE;
     2359     1089    3               OFS=OFS-64;
     2360     1090    3                  END;
     2361     1091    2            GOTO NXTFRAME;
     2362     1092    2               END;
     2363     1093    1      IF NOT B$ROSEG.STREAM_VALID(WSR) THEN WSR=KIDM_CP;
     2364     1094    1      RETURN;
     2365     1095                    /**/
     2366     1096    1   END FMO$GETDOMAIN;
     2367     1097        %EOD;

PL6.E3A0      #003=FMO$GETDOMAIN File=FMO$OBSE.:E05TSI                           TUE 07/29/97 16:57 Page:439
--  Include file information  --

   B_MACROS_C.:E05TOU  is referenced.
   M_INFO_C.:E05TOU  is referenced.
   KI_SUBS_C.:E05TOU  is referenced.
   B_STRINGS_C.:E05TOU  is referenced.
   B_MAGIC_C.:E05TOU  is referenced.
   B$SS.:E05TOU  cannot be made into a system file and is referenced.
   B$ROSEG.:E05TOU  is referenced.
      No diagnostics issued in procedure FMO$GETDOMAIN.

   Procedure FMO$GETDOMAIN requires 67 words for executable code.
   Procedure FMO$GETDOMAIN requires 6 words of local(AUTO) storage.

PL6.E3A0      #003=FMO$GETDOMAIN File=FMO$OBSE.:E05TSI                           TUE 07/29/97 16:57 Page:440

 Object Unit name= FMO$GETDOMAIN                              File name= FMO$OBSE.:E05TOU
 UTS= JUL 29 '97 16:57:54.20 TUE                              Compiler= PL-6/E31         Sev=      00
 SharedLib= :SHARED_SYSTEM                                    Alt SharedLib=


    ****  Control sections  ****

 Sect   Type Bound  Init  Size OctSiz  Section name(segment info)
    0   Proc  even  none    67    103  FMO$GETDOMAIN

    ****  Entry defs  ****

                              Check   Calling
                             calling  sequence
  Sect OctLoc Primary Altret sequence   type   Parms  Name
     0      0   yes            yes      Std        1  FMO$GETDOMAIN
     0     11                  yes      Std        1  FMO$GETPFB

  ****  Entry refs  ****

         Check        Calling
        calling       sequence
Altret sequence SRef   type   Args  Name
                       nStd      0 X66_AUTO_1
                       nStd      0 X66_ARET
                       Std       0 B_CONSPOOL_D

  ****  Data refs  ****

  Flags:  r = read only, s = secondary
Flgs Name                             Flgs Name                             Flgs Name
r    B$ROSEG$                              B_MPT                            r    B$USERHJIT$
     B_VECTNIL
PL6.E3A0      #003=FMO$GETDOMAIN File=FMO$OBSE.:E05TSI                           TUE 07/29/97 16:57 Page:441


     2298        1        /*T***********************************************************/
     2299        2        /*T*                                                         */
     2300        3        /*T* Copyright (c) Bull HN Information Systems Inc., 1997    */
     2301        4        /*T*                                                         */
     2302        5        /*T***********************************************************/
     2303        6                    /*F*
     2304        7                    *     NAME:   FMO$GETDOMAIN
     2305        8                    *     PURPOSE:  TO GET THE WSR NUMBER FROM THE SAFE STORE FRAME
     2306        9                    *               WHICH EXECUTED THIS PMME CLIMB.
     2307       10                    */
     2308       11        FMO$GETDOMAIN: PROC(WSR);

     11  0 000000   000000 700200 xent  FMO$GETDOMA* TSX0  ! X66_AUTO_1
         0 000001   000006 000001                    ZERO    6,1

     2309       12                    /**/
     2310       13        %MACRO B$ROSEG (BASED="BASED(B$ROSEG$)");
     2311       14        %INCLUDE B$ROSEG;
     2312       77        %MEND;
     2313       78        %B$ROSEG;
     2314      138    1   DCL B$ROSEG$ PTR SYMREF READONLY;
     2315      139        %INCLUDE B$SS;
     2316      318        %INCLUDE B_MAGIC_C;
     2317      436        %B_MPT (FPTN=B_MPT,STCLASS=SYMREF);
     2318      529        %INCLUDE B_STRINGS_C;
     2319      658        %INCLUDE KI_SUBS_C;
     2320      794        %INCLUDE M_INFO_C;
     2321      934        %INCLUDE B_MACROS_C;
     2322     1045        %T01DESCR (NAME=DSC);
     2323     1053    1   DCL B$USERHJIT$ PTR SYMREF READONLY;
     2324     1054        %LIST;
     2325     1055                    /**/
     2326     1056                    /* PARAMETER DATA */
     2327     1057    1   DCL WSR SBIN; /* WORKING SPACE QUARTER */
     2328     1058                    /**/
     2329     1059                    /**/
PL6.E3A0      #003=FMO$GETDOMAIN File=FMO$OBSE.:E05TSI                           TUE 07/29/97 16:57 Page:442
     2330     1060                    /* AUTO VARIABLE(S) */
     2331     1061                    /**/
     2332     1062    1   DCL OFS SBIN;
     2333     1063
     2334     1064    1      WSR=B_MPT.SS$->B$SS.ISR.WSR;

   1064  0 000002   000000 470400 xsym               LDP0    B_MPT
         0 000003   000010 236100                    LDQ     8,,PR0
         0 000004   000004 772000                    QRL     4
         0 000005   000007 376007                    ANQ     7,DL
         0 000006   200003 471500                    LDP1    @WSR,,AUTO
         0 000007   100000 756100                    STQ     0,,PR1

     2335     1065    1      RETURN;

   1065  0 000010   000000 702200 xent               TSX2  ! X66_ARET

     2336     1066                    /**/
     2337     1067    1   FMO$GETPFB: ENTRY (WSR);

   1067  0 000011   000000 700200 xent  FMO$GETPFB   TSX0  ! X66_AUTO_1
         0 000012   000006 000001                    ZERO    6,1

     2338     1068                    /**/
     2339     1069                    /*F*
     2340     1070                    *     NAME:   FMO$GETPFB
     2341     1071                    *     PURPOSE: GETS THE WSR NUMBER OF THE SAFE STORE FRAME WHICH
     2342     1072                    *              EXECUTED THIS PMME AND CONVERTS IT TO FEP DOMAIN
     2343     1073                    *              INDEX FORMAT (PAUL'S FUNNY BYTE).
     2344     1074                    */
     2345     1075    1      OFS=B_MPT.SSDESC$->DSC.BASE/4-%HJITPG*1024;

   1075  0 000013   000006 470400 xsym               LDP0    B_MPT+6
         0 000014   000001 236100                    LDQ     1,,PR0
         0 000015   000004 506007                    DIV     4,DL
         0 000016   032000 136007                    SBLQ    13312,DL
         0 000017   200004 756100                    STQ     OFS,,AUTO
PL6.E3A0      #003=FMO$GETDOMAIN File=FMO$OBSE.:E05TSI                           TUE 07/29/97 16:57 Page:443

   1075  0 000020                       NXTFRAME     null
     2346     1076    1   NXTFRAME:;
     2347     1077    1      WSR=PINCRW(B$USERHJIT$,OFS)->B$SS.ISR.WSR;

   1077  0 000020   000000 470400 xsym               LDP0    B$USERHJIT$
         0 000021   200004 720100                    LXL0    OFS,,AUTO
         0 000022   000010 236110                    LDQ     8,X0,PR0
         0 000023   000004 772000                    QRL     4
         0 000024   000007 376007                    ANQ     7,DL
         0 000025   200003 471500                    LDP1    @WSR,,AUTO
         0 000026   100000 756100                    STQ     0,,PR1

     2348     1078    1      IF WSR=%CPWSR THEN WSR=KIDM_CP;

   1078  0 000027   000004 116007                    CMPQ    4,DL
         0 000030   000034 601000 0                  TNZ     s:1079

   1078  0 000031   000001 235007                    LDA     1,DL
         0 000032   100000 755100                    STA     0,,PR1
         0 000033   000071 710000 0                  TRA     s:1093

     2349     1079    1      ELSE IF WSR=%DBWSR THEN WSR=KIDM_DB;

   1079  0 000034   000005 116007                    CMPQ    5,DL
         0 000035   000041 601000 0                  TNZ     s:1080

   1079  0 000036   000003 235007                    LDA     3,DL
         0 000037   100000 755100                    STA     0,,PR1
         0 000040   000071 710000 0                  TRA     s:1093

     2350     1080    1         ELSE IF WSR=%USERWSR THEN WSR=KIDM_USER;

   1080  0 000041   000007 116007                    CMPQ    7,DL
         0 000042   000046 601000 0                  TNZ     s:1083

   1080  0 000043   000002 235007                    LDA     2,DL
PL6.E3A0      #003=FMO$GETDOMAIN File=FMO$OBSE.:E05TSI                           TUE 07/29/97 16:57 Page:444
         0 000044   100000 755100                    STA     0,,PR1
         0 000045   000071 710000 0                  TRA     s:1093

     2351     1081    2            ELSE DO;

     2352     1082                    /* Must be a monitor PMME, find the one that invoked it. */
     2353     1083    3               DO SELECT PINCRW(B$USERHJIT$,OFS)->B$SS.SCR;

   1083  0 000046   000005 236110                    LDQ     5,X0,PR0
         0 000047   030000 376007                    ANQ     12288,DL
         0 000050   000000 116003                    CMPQ    0,DU
         0 000051   000060 602000 0                  TNC     s:1085
         0 000052   000060 600000 0                  TZE     s:1085
         0 000053   000005 236110                    LDQ     5,X0,PR0
         0 000054   030000 376007                    ANQ     12288,DL
         0 000055   010000 116007                    CMPQ    4096,DL
         0 000056   000066 601000 0                  TNZ     s:1089
         0 000057   000063 710000 0                  TRA     s:1087

     2354     1084    3                  SELECT '00'B;

     2355     1085    3                  OFS=OFS-16;

   1085  0 000060   000020 336007                    LCQ     16,DL
         0 000061   200004 056100                    ASQ     OFS,,AUTO
         0 000062   000070 710000 0                  TRA     s:1091

     2356     1086    3                  SELECT '01'B;

     2357     1087    3                  OFS=OFS-24;

   1087  0 000063   000030 336007                    LCQ     24,DL
         0 000064   200004 056100                    ASQ     OFS,,AUTO
         0 000065   000070 710000 0                  TRA     s:1091

     2358     1088    3                  SELECT ELSE;

PL6.E3A0      #003=FMO$GETDOMAIN File=FMO$OBSE.:E05TSI                           TUE 07/29/97 16:57 Page:445
     2359     1089    3               OFS=OFS-64;

   1089  0 000066   000100 336007                    LCQ     64,DL
         0 000067   200004 056100                    ASQ     OFS,,AUTO

     2360     1090    3                  END;

     2361     1091    2            GOTO NXTFRAME;

   1091  0 000070   000020 710000 0                  TRA     NXTFRAME

     2362     1092    2               END;
     2363     1093    1      IF NOT B$ROSEG.STREAM_VALID(WSR) THEN WSR=KIDM_CP;

   1093  0 000071   000073 605000 0                  TPL     s:1093+2
         0 000072   000044 035003                    ADLA    36,DU
         0 000073   000000 473400 xsym               LDP3    B$ROSEG$
         0 000074   000000 066505                    CMPB    filb='0'B
         0 000075   300117 000001                    BDSC    79,A,PR3                 by=0,bit=0,n=1
         0 000076   000002 000022 xsym               BDSC    B_VECTNIL+2              by=0,bit=0,n=18
         0 000077   000102 601000 0                  TNZ     s:1094

   1093  0 000100   000001 235007                    LDA     1,DL
         0 000101   100000 755100                    STA     0,,PR1

     2364     1094    1      RETURN;

   1094  0 000102   000000 702200 xent               TSX2  ! X66_ARET
     2365     1095                    /**/
     2366     1096    1   END FMO$GETDOMAIN;
     2367     1097        %EOD;

PL6.E3A0      #003=FMO$GETDOMAIN File=FMO$OBSE.:E05TSI                           TUE 07/29/97 16:57 Page:446
--  Include file information  --

   B_MACROS_C.:E05TOU  is referenced.
   M_INFO_C.:E05TOU  is referenced.
   KI_SUBS_C.:E05TOU  is referenced.
   B_STRINGS_C.:E05TOU  is referenced.
   B_MAGIC_C.:E05TOU  is referenced.
   B$SS.:E05TOU  cannot be made into a system file and is referenced.
   B$ROSEG.:E05TOU  is referenced.
      No diagnostics issued in procedure FMO$GETDOMAIN.
PL6.E3A0      #003=FMO$GETDOMAIN File=FMO$OBSE.:E05TSI                           TUE 07/29/97 16:57 Page:447

 **** Variables and constants ****

  ****  Auto variables  ****

  ****  Scalars and arrays  ****
OctLoc.c.b A Datatyp(siz) R M Lvl/name                 OctLoc.c.b A Datatyp(siz) R M Lvl/name

     3-0-0/w PTR         r     1 @WSR                       4-0-0/w SBIN        r     1 OFS
    *0-0-0/w SBIN        r     1 WSR

  ****  SYMREF variables  ****

  ****  Scalars and arrays  ****
OctLoc.c.b A Datatyp(siz) R M Lvl/name                 OctLoc.c.b A Datatyp(siz) R M Lvl/name

     0-0-0/w PTR         r     1 B$ROSEG$                   0-0-0/w PTR         r     1 B$USERHJIT$
     0-0-0/d STRC(432)   r     1 B_MPT

  ****  BASED and DCB variables  ****

  ****  Scalars and arrays  ****
OctLoc.c.b A Datatyp(siz) R M Lvl/name                 OctLoc.c.b A Datatyp(siz) R M Lvl/name

     0-0-0/d STRC(3024)  r     1 B$ROSEG                    0-0-0/d STRC(2304)  r     1 B$SS
     0-0-0/w STRC(72)    r     1 DSC


   Procedure FMO$GETDOMAIN requires 67 words for executable code.
   Procedure FMO$GETDOMAIN requires 6 words of local(AUTO) storage.
PL6.E3A0      #003=FMO$GETDOMAIN File=FMO$OBSE.:E05TSI                           TUE 07/29/97 16:57 Page:448
          *** CROSS REFERENCE LISTING ***
**     DENOTES     IDENTIFIER DEFINITION
<<                 IDENTIFIER'S VALUE SET
>>                 IDENTIFIER'S VALUE USED
<>                 IDENTIFIER SET AND/OR USED
--                 IDENTIFIER REFERENCED
PL6.E3A0      #003=FMO$GETDOMAIN File=FMO$OBSE.:E05TSI                           TUE 07/29/97 16:57 Page:449
          MINI XREF LISTING

B$ROSEG.STREAM_VALID
       120**DCL      1093>>IF
B$ROSEG$
       138**DCL        87--IMP-PTR   123--IMP-PTR   125--IMP-PTR  1093>>IF
B$SS.ISR.WSR
       196**DCL      1064>>ASSIGN   1077>>ASSIGN
B$SS.RVA
       191**DCL       192--REDEF
B$SS.SCR
       183**DCL      1083>>DOSELCT
B$USERHJIT$
      1053**DCL      1077>>ASSIGN   1083>>DOSELCT
B_MPT.AS
       472**DCL       475--REDEF
B_MPT.ASDESC
       504**DCL       508--REDEF
B_MPT.ECCB
       487**DCL       490--REDEF
B_MPT.ECCBDESC
       522**DCL       526--REDEF
B_MPT.LS
       467**DCL       470--REDEF
B_MPT.LSDESC
       498**DCL       502--REDEF
B_MPT.PS
       477**DCL       480--REDEF
B_MPT.PSDESC
       510**DCL       514--REDEF
B_MPT.SS
       462**DCL       465--REDEF
B_MPT.SS$
       465**DCL      1064>>ASSIGN
PL6.E3A0      #003=FMO$GETDOMAIN File=FMO$OBSE.:E05TSI                           TUE 07/29/97 16:57 Page:450
B_MPT.SSDESC
       492**DCL       496--REDEF
B_MPT.SSDESC$
       496**DCL      1075>>ASSIGN
B_MPT.TCB
       482**DCL       485--REDEF
B_MPT.TCBDESC
       516**DCL       520--REDEF
DSC.BASE
      1051**DCL      1075>>ASSIGN
NXTFRAME
      1075**LABEL    1091--GOTO
OFS
      1062**DCL      1075<<ASSIGN   1077>>ASSIGN   1083>>DOSELCT  1085<<ASSIGN   1085>>ASSIGN   1087<<ASSIGN
      1087>>ASSIGN   1089<<ASSIGN   1089>>ASSIGN
WSR
      1057**DCL        11--PROC     1064<<ASSIGN   1067--ENTRY    1077<<ASSIGN   1078>>IF       1078<<ASSIGN
      1079>>IF       1079<<ASSIGN   1080>>IF       1080<<ASSIGN   1093>>IF       1093<<ASSIGN

PL6.E3A0      #004=FMO$TRNINFO File=FMO$OBSE.:E05TSI                             TUE 07/29/97 16:58 Page:451
     2368        1        /*T***********************************************************/
     2369        2        /*T*                                                         */
     2370        3        /*T* Copyright (c) Bull HN Information Systems Inc., 1997    */
     2371        4        /*T*                                                         */
     2372        5        /*T***********************************************************/
     2373        6                    /*F*
     2374        7                    *     NAME:             FMO$TRNINFO
     2375        8                    *
     2376        9                    *     PURPOSE:          THIS ROUTINE MOVES THE FIT INFORMATION
     2377       10                    *                       TO THE USER SPECIFIED FPARAM BUFFER.
     2378       11                    *
     2379       12                    */
     2380       13                    /*D*
     2381       14                    *     NAME:             FMO$TRNINFO
     2382       15                    *     CALL:             CALL FMO$TRNINFO(FPARAM$,FIT$)  ALTRET(ADDR);
     2383       16                    *
     2384       17                    *                       THE FIT MUST HAVE BEEN READ INTO
     2385       18                    *                       A BUFFER  BEFORE THIS ROUTINE
     2386       19                    *                       IS CALLED.
     2387       20                    *
     2388       21                    *     DESCRIPTION:      FOR A NORMAL OPEN WITH FPARAMS, ONLY
     2389       22                    *                       FIT CODES 2 THROUGH 31 ARE MOVED TO THE
     2390       23                    *                       FPARAM BUFFER.  FOR A BLOCKED ACCESS
     2391       24                    *                       OPEN WITH FPARAMS, THE ENTIRE FIT (OR AFIT)
     2392       25                    *                       GRANULE IS MOVED TO THE FPARAM BUFFR.
     2393       26                    */
     2394       27        FMO$TRNINFO: PROC(FPARAM$,FIT$)  ALTRET;
     2395       28                    /**/
     2396       29                    /* PARAMETER DATA */
     2397       30                    /**/
     2398       31    1   DCL FPARAM$ PTR; /* FPARAM BUFFER ADDRESS */
     2399       32    1   DCL FIT$ PTR; /* POINTER TO FIT */
     2400       33                    /**/
     2401       34                    /* SYMREF DATA */
     2402       35    1   DCL B$JIT$ PTR SYMREF; /* POINTER TO JIT */
     2403       36                    /**/
     2404       37                    /* DEFINE EXTERNAL ROUTINES */
PL6.E3A0      #004=FMO$TRNINFO File=FMO$OBSE.:E05TSI                             TUE 07/29/97 16:58 Page:452
     2405       38                    /**/
     2406       39    1   DCL FMO$LOCCODP ENTRY(2)ALTRET;
     2407       40    1   DCL HFF$DSIZ ENTRY(2); /* GET BYTE SIZE FROM DESCRIPTOR */
     2408       41                    /**/
     2409       42                    /* AUTOMATIC DATA */
     2410       43                    /**/
     2411       44    1   DCL JDCB$ PTR; /* CURRENT DCB ADDRESS */
     2412       45    1   DCL LOC$ PTR; /* POINTER TO FIT DATA ITEM */
     2413       46    1   DCL BUF$ PTR; /* SCRATCH POINTER */
     2414       47    1   DCL NDW SBIN; /* ITEM SIZE */
     2415       48    1   DCL ITEMX SBIN; /* ITEM OFFSET */
     2416       49    1   DCL I UBIN;
     2417       50    1   DCL J UBIN;
     2418       51    1   DCL REC CHAR(NDW) BASED; /* FORM FOR MOVING FIT ITEMS */
     2419       52    1   DCL AVAIL SBIN; /* NO BYTES LEFT IN FPARAM BUF */
     2420       53                    /**/
     2421       54        %INCLUDE F$JIT_C;
     2422      484        %MACRO F$DCB(BASED=BASED);
     2423      485        %INCLUDE F$DCB;
     2424      534        %MEND;
     2425      535        %F$DCB(BASED="BASED(JDCB$)");
     2426      585        %INCLUDE F_CP6;
     2427     1610        %FPT_OPEN(PFMT=PTR,STCLASS="BASED(BUF$)",FPTN=PN$);
     2428     1719        %INCLUDE FM$MACROS;
     2429     2094        %FM$CFU;
     2430     2100        %FM$FIT;
     2431     2103        %CODE04(BASED="BASED(LOC$)");
     2432     2111        %CODE14(BASED="BASED(LOC$)");
     2433     2121        %FM$GRAN;
     2434     2125        %INCLUDE CP_6_SUBS;
     2435     2665        %INCLUDE F_ERRORS_C;
     2436     2905        %SUB FCG#='0615'O;
     2437     2906        %SUB MID#='17'O;
     2438     2907        %ERRCODE(NAME=FMO$E$FPARAM,COD#=%E$FPARAM);
     2439     2911        %ERRCODE(NAME=FMO$E$BADFIT,COD#=%E$BADFIT);
     2440     2915                    /**/
     2441     2916    1      JDCB$=B$JIT$->B$JIT.DCB$;
PL6.E3A0      #004=FMO$TRNINFO File=FMO$OBSE.:E05TSI                             TUE 07/29/97 16:58 Page:453
     2442     2917    1      CALL HFF$DSIZ(POFFW(ADDR(PN$.FPARAM_),ADDR(PN$.V_)),AVAIL);
     2443     2918                    /*
     2444     2919                    *  FOR BLOCK ACCESS, THE ENTIRE FIT/AFIT GRANULE IS
     2445     2920                    *  MOVED TO THE FPARAM BUFFER.
     2446     2921                    */
     2447     2922    1      IF F$DCB.ACS=%BLOCK#
     2448     2923    2      THEN DO;
     2449     2924    2         IF AVAIL < 4095 THEN GOTO FMOE$FPARAM;
     2450     2925    2         BUF$=PINCRW(FIT$,-SIZEW(FM$GRAN));
     2451     2926    2         NDW=4096;
     2452     2927    2         FPARAM$->REC=BUF$->REC;
     2453     2928    2         IF B$JIT.PRIV.ACTIVE.FMSEC THEN RETURN;
     2454     2929    2         LOC$=PINCRW(FPARAM$,SIZEW(FM$GRAN));
     2455     2930    2         CALL FMO$LOCCODP(LOC$,4)ALTRET(NONAME);/*ZAP NAME IF NOT PRIVILEGED*/
     2456     2931    2         IF POFFW(LOC$,FPARAM$)+SIZEW(CODE04)>1024 THEN GOTO FMOE$BADFIT;
     2457     2932    2         CODE04.CREATOR.NAME=' ';
     2458     2933    2         CODE04.CREATOR.ACCT=' ';
     2459     2934    2   NONAME:;
     2460     2935    2         RETURN;
     2461     2936    2         END;
     2462     2937                    /*
     2463     2938                    *  FOR NORMAL FPARAM REQUESTS, CODES 02 THROUGH 31 ARE
     2464     2939                    *  MOVED TO THE FPARAM BUFFER IN FIT FORMAT.
     2465     2940                    */
     2466     2941    1      IF AVAIL<SIZEC(FIT$->FM$FIT) THEN RETURN;
     2467     2942                    /*
     2468     2943                    *  SPECIAL CASE FOR SMALL FPARAM BUFFER GIVES USER NO FPARAMS
     2469     2944                    */
     2470     2945    1      FPARAM$->FM$FIT='0'B;
     2471     2946    1      ITEMX=FIT$->FM$FIT.CODES.CODE(0)+1;
     2472     2947    1      J=0;
     2473     2948    2      DO I=1 TO FIT$->FM$FIT.CODES.CODE(0);
     2474     2949    2         NDW=FIT$->FM$FIT.CODES.NDW(I);
     2475     2950    3         IF NOT B$JIT.PRIV.ACTIVE.FMSEC AND NDW~=0 THEN DO;
     2476     2951    3            IF FIT$->FM$FIT.CODES.CODE(I)=4
     2477     2952    3            THEN NDW=POFFW(ADDR(CODE04.CREATOR),ADDR(CODE04));
     2478     2953    3            IF FIT$->FM$FIT.CODES.CODE(I)=14
PL6.E3A0      #004=FMO$TRNINFO File=FMO$OBSE.:E05TSI                             TUE 07/29/97 16:58 Page:454
     2479     2954    3            THEN NDW=POFFW(ADDR(CODE14.OWNER),ADDR(CODE14));
     2480     2955    3            END;
     2481     2956    2         IF FIT$->FM$FIT.CODES.CODE(I)~=1 AND
     2482     2957    3           (NDW~=0 OR B$JIT.PRIV.ACTIVE.FMEFT) THEN DO;
     2483     2958    3            J=J+1;
     2484     2959    3            FPARAM$->FM$FIT.CODES(J)=FIT$->FM$FIT.CODES(I);
     2485     2960    3            FPARAM$->FM$FIT.CODES.NDW(J)=NDW;
     2486     2961    3            FPARAM$->FM$FIT.CODES.ITEMX(J)=ITEMX;
     2487     2962                    /*
     2488     2963                    *  NOW THAT THE FIT HEADER CODE IS BUILT, MOVE THE FIT ITEM
     2489     2964                    *  TO THE FPARAM BUFFER.
     2490     2965                    */
     2491     2966    3            LOC$=PINCRW(FIT$,FIT$->FM$FIT.CODES.ITEMX(I));
     2492     2967    3            BUF$=PINCRW(FPARAM$,ITEMX);
     2493     2968    3            IF POFFW(LOC$,FIT$)+NDW+SIZEW(FM$GRAN)>1024
     2494     2969    3            THEN GOTO FMOE$BADFIT;
     2495     2970    3            ITEMX=ITEMX+NDW;
     2496     2971    3            NDW=NDW*4;
     2497     2972    3            IF ITEMX*4>AVAIL THEN GOTO FMOE$FPARAM;
     2498     2973    3            BUF$->REC=LOC$->REC;
     2499     2974    4            IF FIT$->FM$FIT.CODES.CODE(I)=4 AND LOC$->CODE04.SVMODIFY THEN DO;
     2500     2975    4               IF F$DCB.ASN=%TAPE# OR F$DCB.CFU$=ADDR(NIL) THEN EXIT;
     2501     2976    4               IF F$DCB.CFU$->FM$CFU.FMOD THEN EXIT;
     2502     2977    4               BUF$->CODE04.MODIFY=LOC$->CODE04.SVMODIFY;
     2503     2978    4               END;
     2504     2979    3            END;
     2505     2980    2   NXTCODE:
     2506     2981    2         END;
     2507     2982                    /*
     2508     2983                    *  FINALLY FILL IN THE ZERO FIT ENTRY TO DEFINE HOW MANY ITEMS
     2509     2984                    *  ARE DESCRIBED IN THE FPARAM.
     2510     2985                    */
     2511     2986    1      FPARAM$->FM$FIT.CODES.NAW(0)=FIT$->FM$FIT.CODES.NDW(0);
     2512     2987    1      FPARAM$->FM$FIT.CODES.NDW(0)=ITEMX;
     2513     2988    1      FPARAM$->FM$FIT.CODES.CODE(0)=J;
     2514     2989    1      RETURN;
     2515     2990                    /**/
PL6.E3A0      #004=FMO$TRNINFO File=FMO$OBSE.:E05TSI                             TUE 07/29/97 16:58 Page:455
     2516     2991                    /*E*     ERROR: FMO-E$FPARAM-E
     2517     2992                    *        MESSAGE:FPARAM area too small% for %UF%
     2518     2993                    */
     2519     2994    1   FMOE$FPARAM: B$JIT$->B$JIT.ERR=FMO$E$FPARAM;
     2520     2995    1      ALTRETURN;
     2521     2996    1   FMOE$BADFIT: B$JIT.ERR=FMO$E$BADFIT;
     2522     2997    1      ALTRETURN;
     2523     2998    1   END FMO$TRNINFO;
     2524     2999        %EOD;

PL6.E3A0      #004=FMO$TRNINFO File=FMO$OBSE.:E05TSI                             TUE 07/29/97 16:58 Page:456
--  Include file information  --

   F_ERRORS_C.:E05TOU  is referenced.
   CP_6_SUBS.:E05TOU  is referenced.
   FM$MACROS.:E05TOU  is referenced.
   F_CP6.:E05TOU  is referenced.
   F$DCB.:E05TOU  is referenced.
   B$JIT_C.:E05TOU  is referenced.
   F$JIT_C.:E05TOU  cannot be made into a system file and is referenced.
      No diagnostics issued in procedure FMO$TRNINFO.

   Procedure FMO$TRNINFO requires 255 words for executable code.
   Procedure FMO$TRNINFO requires 18 words of local(AUTO) storage.

PL6.E3A0      #004=FMO$TRNINFO File=FMO$OBSE.:E05TSI                             TUE 07/29/97 16:58 Page:457

 Object Unit name= FMO$TRNINFO                                File name= FMO$OBSE.:E05TOU
 UTS= JUL 29 '97 16:58:02.64 TUE                              Compiler= PL-6/E31         Sev=      00
 SharedLib= :SHARED_SYSTEM                                    Alt SharedLib=


    ****  Control sections  ****

 Sect   Type Bound  Init  Size OctSiz  Section name(segment info)
    0  RoData even  UTS      2      2  FMO$TRNINFO
    1   Proc  even  none   255    377  FMO$TRNINFO
    2  RoData even  none     2      2  FMO$TRNINFO

    ****  Entry defs  ****

                              Check   Calling
                             calling  sequence
  Sect OctLoc Primary Altret sequence   type   Parms  Name
     1      0   yes    yes     yes      Std        2  FMO$TRNINFO

  ****  Entry refs  ****

         Check        Calling
        calling       sequence
Altret sequence SRef   type   Args  Name
         yes           Std       2 HFF$DSIZ
 yes     yes           Std       2 FMO$LOCCODP
                       nStd      0 X66_AUTO_2
                       Std       0 B_CONSPOOL_D
                       nStd      0 X66_ARET
                       nStd      0 X66_AALT

  ****  Data refs  ****

  Flags:  r = read only, s = secondary
Flgs Name                             Flgs Name                             Flgs Name
     B$JIT$                                B_VECTNIL
PL6.E3A0      #004=FMO$TRNINFO File=FMO$OBSE.:E05TSI                             TUE 07/29/97 16:58 Page:458

  ****  Segment refs  ****

  Flags:  r = read only, s = secondary
Flgs Name                             Flgs Name                             Flgs Name
     ISSID
PL6.E3A0      #004=FMO$TRNINFO File=FMO$OBSE.:E05TSI                             TUE 07/29/97 16:58 Page:459


     2368        1        /*T***********************************************************/
     2369        2        /*T*                                                         */
     2370        3        /*T* Copyright (c) Bull HN Information Systems Inc., 1997    */
     2371        4        /*T*                                                         */
     2372        5        /*T***********************************************************/
     2373        6                    /*F*
     2374        7                    *     NAME:             FMO$TRNINFO
     2375        8                    *
     2376        9                    *     PURPOSE:          THIS ROUTINE MOVES THE FIT INFORMATION
     2377       10                    *                       TO THE USER SPECIFIED FPARAM BUFFER.
     2378       11                    *
     2379       12                    */
     2380       13                    /*D*
     2381       14                    *     NAME:             FMO$TRNINFO
     2382       15                    *     CALL:             CALL FMO$TRNINFO(FPARAM$,FIT$)  ALTRET(ADDR);
     2383       16                    *
     2384       17                    *                       THE FIT MUST HAVE BEEN READ INTO
     2385       18                    *                       A BUFFER  BEFORE THIS ROUTINE
     2386       19                    *                       IS CALLED.
     2387       20                    *
     2388       21                    *     DESCRIPTION:      FOR A NORMAL OPEN WITH FPARAMS, ONLY
     2389       22                    *                       FIT CODES 2 THROUGH 31 ARE MOVED TO THE
     2390       23                    *                       FPARAM BUFFER.  FOR A BLOCKED ACCESS
     2391       24                    *                       OPEN WITH FPARAMS, THE ENTIRE FIT (OR AFIT)
     2392       25                    *                       GRANULE IS MOVED TO THE FPARAM BUFFR.
     2393       26                    */
     2394       27        FMO$TRNINFO: PROC(FPARAM$,FIT$)  ALTRET;

     27  1 000000   000000 700200 xent  FMO$TRNINFO  TSX0  ! X66_AUTO_2
         1 000001   000022 000002                    ZERO    18,2

     2395       28                    /**/
     2396       29                    /* PARAMETER DATA */
     2397       30                    /**/
     2398       31    1   DCL FPARAM$ PTR; /* FPARAM BUFFER ADDRESS */
     2399       32    1   DCL FIT$ PTR; /* POINTER TO FIT */
PL6.E3A0      #004=FMO$TRNINFO File=FMO$OBSE.:E05TSI                             TUE 07/29/97 16:58 Page:460
     2400       33                    /**/
     2401       34                    /* SYMREF DATA */
     2402       35    1   DCL B$JIT$ PTR SYMREF; /* POINTER TO JIT */
     2403       36                    /**/
     2404       37                    /* DEFINE EXTERNAL ROUTINES */
     2405       38                    /**/
     2406       39    1   DCL FMO$LOCCODP ENTRY(2)ALTRET;
     2407       40    1   DCL HFF$DSIZ ENTRY(2); /* GET BYTE SIZE FROM DESCRIPTOR */
     2408       41                    /**/
     2409       42                    /* AUTOMATIC DATA */
     2410       43                    /**/
     2411       44    1   DCL JDCB$ PTR; /* CURRENT DCB ADDRESS */
     2412       45    1   DCL LOC$ PTR; /* POINTER TO FIT DATA ITEM */
     2413       46    1   DCL BUF$ PTR; /* SCRATCH POINTER */
     2414       47    1   DCL NDW SBIN; /* ITEM SIZE */
     2415       48    1   DCL ITEMX SBIN; /* ITEM OFFSET */
     2416       49    1   DCL I UBIN;
     2417       50    1   DCL J UBIN;
     2418       51    1   DCL REC CHAR(NDW) BASED; /* FORM FOR MOVING FIT ITEMS */
     2419       52    1   DCL AVAIL SBIN; /* NO BYTES LEFT IN FPARAM BUF */
     2420       53                    /**/
     2421       54        %INCLUDE F$JIT_C;
     2422      484        %MACRO F$DCB(BASED=BASED);
     2423      485        %INCLUDE F$DCB;
     2424      534        %MEND;
     2425      535        %F$DCB(BASED="BASED(JDCB$)");
     2426      585        %INCLUDE F_CP6;
     2427     1610        %FPT_OPEN(PFMT=PTR,STCLASS="BASED(BUF$)",FPTN=PN$);
     2428     1719        %INCLUDE FM$MACROS;
     2429     2094        %FM$CFU;
     2430     2100        %FM$FIT;
     2431     2103        %CODE04(BASED="BASED(LOC$)");
     2432     2111        %CODE14(BASED="BASED(LOC$)");
     2433     2121        %FM$GRAN;
     2434     2125        %INCLUDE CP_6_SUBS;
     2435     2665        %INCLUDE F_ERRORS_C;
     2436     2905        %SUB FCG#='0615'O;
PL6.E3A0      #004=FMO$TRNINFO File=FMO$OBSE.:E05TSI                             TUE 07/29/97 16:58 Page:461
     2437     2906        %SUB MID#='17'O;
     2438     2907        %ERRCODE(NAME=FMO$E$FPARAM,COD#=%E$FPARAM);
     2439     2911        %ERRCODE(NAME=FMO$E$BADFIT,COD#=%E$BADFIT);
     2440     2915                    /**/
     2441     2916    1      JDCB$=B$JIT$->B$JIT.DCB$;

   2916  1 000002   000000 470400 xsym               LDP0    B$JIT$
         1 000003   000232 236100                    LDQ     154,,PR0
         1 000004   200005 756100                    STQ     JDCB$,,AUTO

     2442     2917    1      CALL HFF$DSIZ(POFFW(ADDR(PN$.FPARAM_),ADDR(PN$.V_)),AVAIL);

   2917  1 000005   200007 236100                    LDQ     BUF$,,AUTO
         1 000006   000022 772000                    QRL     18
         1 000007   200016 756100                    STQ     AVAIL+2,,AUTO
         1 000010   200007 236100                    LDQ     BUF$,,AUTO
         1 000011   000014 036003                    ADLQ    12,DU
         1 000012   000022 772000                    QRL     18
         1 000013   200016 136100                    SBLQ    AVAIL+2,,AUTO
         1 000014   200017 756100                    STQ     AVAIL+3,,AUTO
         1 000015   200014 631500                    EPPR1   AVAIL,,AUTO
         1 000016   200021 451500                    STP1    AVAIL+5,,AUTO
         1 000017   200017 633500                    EPPR3   AVAIL+3,,AUTO
         1 000020   200020 453500                    STP3    AVAIL+4,,AUTO
         1 000021   200020 630500                    EPPR0   AVAIL+4,,AUTO
         1 000022   000020 631400 xsym               EPPR1   B_VECTNIL+16
         1 000023   000000 701000 xent               TSX1    HFF$DSIZ
         1 000024   000000 011000                    NOP     0

     2443     2918                    /*
     2444     2919                    *  FOR BLOCK ACCESS, THE ENTIRE FIT/AFIT GRANULE IS
     2445     2920                    *  MOVED TO THE FPARAM BUFFER.
     2446     2921                    */
     2447     2922    1      IF F$DCB.ACS=%BLOCK#

   2922  1 000025   200005 470500                    LDP0    JDCB$,,AUTO
         1 000026   000036 236100                    LDQ     30,,PR0
PL6.E3A0      #004=FMO$TRNINFO File=FMO$OBSE.:E05TSI                             TUE 07/29/97 16:58 Page:462
         1 000027   000777 376007                    ANQ     511,DL
         1 000030   000003 116007                    CMPQ    3,DL
         1 000031   000116 601000 1                  TNZ     s:2941

     2448     2923    2      THEN DO;

     2449     2924    2         IF AVAIL < 4095 THEN GOTO FMOE$FPARAM;

   2924  1 000032   200014 235100                    LDA     AVAIL,,AUTO
         1 000033   007777 115007                    CMPA    4095,DL
         1 000034   000367 604000 1                  TMI     FMOE$FPARAM

     2450     2925    2         BUF$=PINCRW(FIT$,-SIZEW(FM$GRAN));

   2925  1 000035   200004 471500                    LDP1    @FIT$,,AUTO
         1 000036   100000 236100                    LDQ     0,,PR1
         1 000037   777773 036003                    ADLQ    -5,DU
         1 000040   200007 756100                    STQ     BUF$,,AUTO

     2451     2926    2         NDW=4096;

   2926  1 000041   010000 235007                    LDA     4096,DL
         1 000042   200010 755100                    STA     NDW,,AUTO

     2452     2927    2         FPARAM$->REC=BUF$->REC;

   2927  1 000043   200003 473500                    LDP3    @FPARAM$,,AUTO
         1 000044   300000 474500                    LDP4    0,,PR3
         1 000045   200007 475500                    LDP5    BUF$,,AUTO
         1 000046   000000 620005                    EAX0    0,AL
         1 000047   200010 721100                    LXL1    NDW,,AUTO
         1 000050   040140 100540                    MLR     fill='040'O
         1 000051   500000 000010                    ADSC9   0,,PR5                   cn=0,n=*X0
         1 000052   400000 000011                    ADSC9   0,,PR4                   cn=0,n=*X1

     2453     2928    2         IF B$JIT.PRIV.ACTIVE.FMSEC THEN RETURN;

PL6.E3A0      #004=FMO$TRNINFO File=FMO$OBSE.:E05TSI                             TUE 07/29/97 16:58 Page:463
   2928  1 000053   000000 474400 xsym               LDP4    B$JIT$
         1 000054   400013 236100                    LDQ     11,,PR4
         1 000055   100000 316003                    CANQ    32768,DU
         1 000056   000060 600000 1                  TZE     s:2929

   2928  1 000057   000000 702200 xent               TSX2  ! X66_ARET

     2454     2929    2         LOC$=PINCRW(FPARAM$,SIZEW(FM$GRAN));

   2929  1 000060   300000 236100                    LDQ     0,,PR3
         1 000061   000005 036003                    ADLQ    5,DU
         1 000062   200006 756100                    STQ     LOC$,,AUTO

     2455     2930    2         CALL FMO$LOCCODP(LOC$,4)ALTRET(NONAME);/*ZAP NAME IF NOT PRIVILEGED*/

   2930  1 000063   000000 236000 2                  LDQ     0
         1 000064   200017 756100                    STQ     AVAIL+3,,AUTO
         1 000065   200006 636500                    EPPR6   LOC$,,AUTO
         1 000066   200016 456500                    STP6    AVAIL+2,,AUTO
         1 000067   200016 630500                    EPPR0   AVAIL+2,,AUTO
         1 000070   000020 631400 xsym               EPPR1   B_VECTNIL+16
         1 000071   000000 701000 xent               TSX1    FMO$LOCCODP
         1 000072   000115 702000 1                  TSX2    NONAME

     2456     2931    2         IF POFFW(LOC$,FPARAM$)+SIZEW(CODE04)>1024 THEN GOTO FMOE$BADFIT;

   2931  1 000073   200003 470500                    LDP0    @FPARAM$,,AUTO
         1 000074   000000 236100                    LDQ     0,,PR0
         1 000075   000022 772000                    QRL     18
         1 000076   200016 756100                    STQ     AVAIL+2,,AUTO
         1 000077   200006 236100                    LDQ     LOC$,,AUTO
         1 000100   000022 772000                    QRL     18
         1 000101   200016 136100                    SBLQ    AVAIL+2,,AUTO
         1 000102   001765 116007                    CMPQ    1013,DL
         1 000103   000373 605400 1                  TPNZ    FMOE$BADFIT

     2457     2932    2         CODE04.CREATOR.NAME=' ';
PL6.E3A0      #004=FMO$TRNINFO File=FMO$OBSE.:E05TSI                             TUE 07/29/97 16:58 Page:464

   2932  1 000104   200006 471500                    LDP1    LOC$,,AUTO
         1 000105   040100 100400                    MLR     fill='040'O
         1 000106   000035 000001 xsym               ADSC9   B_VECTNIL+29             cn=0,n=1
         1 000107   100005 000014                    ADSC9   5,,PR1                   cn=0,n=12

     2458     2933    2         CODE04.CREATOR.ACCT=' ';

   2933  1 000110   200006 471500                    LDP1    LOC$,,AUTO
         1 000111   000035 235000 xsym               LDA     B_VECTNIL+29
         1 000112   000035 236000 xsym               LDQ     B_VECTNIL+29
         1 000113   100003 755100                    STA     3,,PR1
         1 000114   100004 756100                    STQ     4,,PR1

   2933  1 000115                       NONAME       null
     2459     2934    2   NONAME:;
     2460     2935    2         RETURN;

   2935  1 000115   000000 702200 xent               TSX2  ! X66_ARET

     2461     2936    2         END;
     2462     2937                    /*
     2463     2938                    *  FOR NORMAL FPARAM REQUESTS, CODES 02 THROUGH 31 ARE
     2464     2939                    *  MOVED TO THE FPARAM BUFFER IN FIT FORMAT.
     2465     2940                    */
     2466     2941    1      IF AVAIL<SIZEC(FIT$->FM$FIT) THEN RETURN;

   2941  1 000116   200004 471500                    LDP1    @FIT$,,AUTO
         1 000117   100000 473500                    LDP3    0,,PR1
         1 000120   200014 235100                    LDA     AVAIL,,AUTO
         1 000121   000174 115007                    CMPA    124,DL
         1 000122   000124 605000 1                  TPL     s:2945

   2941  1 000123   000000 702200 xent               TSX2  ! X66_ARET

     2467     2942                    /*
     2468     2943                    *  SPECIAL CASE FOR SMALL FPARAM BUFFER GIVES USER NO FPARAMS
PL6.E3A0      #004=FMO$TRNINFO File=FMO$OBSE.:E05TSI                             TUE 07/29/97 16:58 Page:465
     2469     2944                    */
     2470     2945    1      FPARAM$->FM$FIT='0'B;

   2945  1 000124   200003 474500                    LDP4    @FPARAM$,,AUTO
         1 000125   400000 475500                    LDP5    0,,PR4
         1 000126   000100 100400                    MLR     fill='000'O
         1 000127   000002 000001 xsym               ADSC9   B_VECTNIL+2              cn=0,n=1
         1 000130   500000 000174                    ADSC9   0,,PR5                   cn=0,n=124

     2471     2946    1      ITEMX=FIT$->FM$FIT.CODES.CODE(0)+1;

   2946  1 000131   100000 473500                    LDP3    0,,PR1
         1 000132   300000 236100                    LDQ     0,,PR3
         1 000133   000037 772000                    QRL     31
         1 000134   000001 036007                    ADLQ    1,DL
         1 000135   200011 756100                    STQ     ITEMX,,AUTO

     2472     2947    1      J=0;

   2947  1 000136   200013 450100                    STZ     J,,AUTO

     2473     2948    2      DO I=1 TO FIT$->FM$FIT.CODES.CODE(0);

   2948  1 000137   000001 235007                    LDA     1,DL
         1 000140   200012 755100                    STA     I,,AUTO
         1 000141   000335 710000 1                  TRA     NXTCODE+3

     2474     2949    2         NDW=FIT$->FM$FIT.CODES.NDW(I);

   2949  1 000142   200004 470500                    LDP0    @FIT$,,AUTO
         1 000143   000000 471500                    LDP1    0,,PR0
         1 000144   200012 720100                    LXL0    I,,AUTO
         1 000145   100000 236110                    LDQ     0,X0,PR1
         1 000146   000012 772000                    QRL     10
         1 000147   001777 376007                    ANQ     1023,DL
         1 000150   200010 756100                    STQ     NDW,,AUTO

PL6.E3A0      #004=FMO$TRNINFO File=FMO$OBSE.:E05TSI                             TUE 07/29/97 16:58 Page:466
     2475     2950    3         IF NOT B$JIT.PRIV.ACTIVE.FMSEC AND NDW~=0 THEN DO;

   2950  1 000151   000000 473400 xsym               LDP3    B$JIT$
         1 000152   300013 236100                    LDQ     11,,PR3
         1 000153   100000 316003                    CANQ    32768,DU
         1 000154   000210 601000 1                  TNZ     s:2956
         1 000155   200010 235100                    LDA     NDW,,AUTO
         1 000156   000210 600000 1                  TZE     s:2956

     2476     2951    3            IF FIT$->FM$FIT.CODES.CODE(I)=4

   2951  1 000157   100000 236110                    LDQ     0,X0,PR1
         1 000160   760000 376003                    ANQ     -8192,DU
         1 000161   100000 116003                    CMPQ    32768,DU
         1 000162   000173 601000 1                  TNZ     s:2953

     2477     2952    3            THEN NDW=POFFW(ADDR(CODE04.CREATOR),ADDR(CODE04));

   2952  1 000163   200006 236100                    LDQ     LOC$,,AUTO
         1 000164   000022 772000                    QRL     18
         1 000165   200016 756100                    STQ     AVAIL+2,,AUTO
         1 000166   200006 236100                    LDQ     LOC$,,AUTO
         1 000167   000003 036003                    ADLQ    3,DU
         1 000170   000022 772000                    QRL     18
         1 000171   200016 136100                    SBLQ    AVAIL+2,,AUTO
         1 000172   200010 756100                    STQ     NDW,,AUTO

     2478     2953    3            IF FIT$->FM$FIT.CODES.CODE(I)=14

   2953  1 000173   000000 471500                    LDP1    0,,PR0
         1 000174   100000 236110                    LDQ     0,X0,PR1
         1 000175   760000 376003                    ANQ     -8192,DU
         1 000176   340000 116003                    CMPQ    114688,DU
         1 000177   000210 601000 1                  TNZ     s:2956

     2479     2954    3            THEN NDW=POFFW(ADDR(CODE14.OWNER),ADDR(CODE14));

PL6.E3A0      #004=FMO$TRNINFO File=FMO$OBSE.:E05TSI                             TUE 07/29/97 16:58 Page:467
   2954  1 000200   200006 236100                    LDQ     LOC$,,AUTO
         1 000201   000022 772000                    QRL     18
         1 000202   200016 756100                    STQ     AVAIL+2,,AUTO
         1 000203   200006 236100                    LDQ     LOC$,,AUTO
         1 000204   000003 036003                    ADLQ    3,DU
         1 000205   000022 772000                    QRL     18
         1 000206   200016 136100                    SBLQ    AVAIL+2,,AUTO
         1 000207   200010 756100                    STQ     NDW,,AUTO

     2480     2955    3            END;

     2481     2956    2         IF FIT$->FM$FIT.CODES.CODE(I)~=1 AND

   2956  1 000210   000000 471500                    LDP1    0,,PR0
         1 000211   100000 236110                    LDQ     0,X0,PR1
         1 000212   760000 376003                    ANQ     -8192,DU
         1 000213   020000 116003                    CMPQ    8192,DU
         1 000214   000332 600000 1                  TZE     NXTCODE
         1 000215   200010 235100                    LDA     NDW,,AUTO
         1 000216   000221 601000 1                  TNZ     s:2958
         1 000217   300013 234100                    SZN     11,,PR3
         1 000220   000332 605000 1                  TPL     NXTCODE

     2482     2957    3           (NDW~=0 OR B$JIT.PRIV.ACTIVE.FMEFT) THEN DO;

     2483     2958    3            J=J+1;

   2958  1 000221   200013 235100                    LDA     J,,AUTO
         1 000222   000001 035007                    ADLA    1,DL
         1 000223   200013 755100                    STA     J,,AUTO

     2484     2959    3            FPARAM$->FM$FIT.CODES(J)=FIT$->FM$FIT.CODES(I);

   2959  1 000224   200003 474500                    LDP4    @FPARAM$,,AUTO
         1 000225   400000 475500                    LDP5    0,,PR4
         1 000226   100000 236110                    LDQ     0,X0,PR1
         1 000227   500000 756105                    STQ     0,AL,PR5
PL6.E3A0      #004=FMO$TRNINFO File=FMO$OBSE.:E05TSI                             TUE 07/29/97 16:58 Page:468

     2485     2960    3            FPARAM$->FM$FIT.CODES.NDW(J)=NDW;

   2960  1 000230   400000 471500                    LDP1    0,,PR4
         1 000231   200013 721100                    LXL1    J,,AUTO
         1 000232   200010 236100                    LDQ     NDW,,AUTO
         1 000233   000012 736000                    QLS     10
         1 000234   100000 676111                    ERQ     0,X1,PR1
         1 000235   000001 376000 2                  ANQ     1
         1 000236   100000 656111                    ERSQ    0,X1,PR1

     2486     2961    3            FPARAM$->FM$FIT.CODES.ITEMX(J)=ITEMX;

   2961  1 000237   400000 471500                    LDP1    0,,PR4
         1 000240   200011 236100                    LDQ     ITEMX,,AUTO
         1 000241   100000 676111                    ERQ     0,X1,PR1
         1 000242   001777 376007                    ANQ     1023,DL
         1 000243   100000 656111                    ERSQ    0,X1,PR1

     2487     2962                    /*
     2488     2963                    *  NOW THAT THE FIT HEADER CODE IS BUILT, MOVE THE FIT ITEM
     2489     2964                    *  TO THE FPARAM BUFFER.
     2490     2965                    */
     2491     2966    3            LOC$=PINCRW(FIT$,FIT$->FM$FIT.CODES.ITEMX(I));

   2966  1 000244   000000 471500                    LDP1    0,,PR0
         1 000245   100000 722110                    LXL2    0,X0,PR1
         1 000246   001777 362003                    ANX2    1023,DU
         1 000247   100000 633512                    EPPR3   0,X2,PR1
         1 000250   200006 453500                    STP3    LOC$,,AUTO

     2492     2967    3            BUF$=PINCRW(FPARAM$,ITEMX);

   2967  1 000251   400000 471500                    LDP1    0,,PR4
         1 000252   200011 722100                    LXL2    ITEMX,,AUTO
         1 000253   100000 635512                    EPPR5   0,X2,PR1
         1 000254   200007 455500                    STP5    BUF$,,AUTO
PL6.E3A0      #004=FMO$TRNINFO File=FMO$OBSE.:E05TSI                             TUE 07/29/97 16:58 Page:469

     2493     2968    3            IF POFFW(LOC$,FIT$)+NDW+SIZEW(FM$GRAN)>1024

   2968  1 000255   000000 236100                    LDQ     0,,PR0
         1 000256   000022 772000                    QRL     18
         1 000257   200016 756100                    STQ     AVAIL+2,,AUTO
         1 000260   200006 236100                    LDQ     LOC$,,AUTO
         1 000261   000022 772000                    QRL     18
         1 000262   200016 136100                    SBLQ    AVAIL+2,,AUTO
         1 000263   200010 036100                    ADLQ    NDW,,AUTO
         1 000264   001773 116007                    CMPQ    1019,DL
         1 000265   000373 605400 1                  TPNZ    FMOE$BADFIT

     2494     2969    3            THEN GOTO FMOE$BADFIT;
     2495     2970    3            ITEMX=ITEMX+NDW;

   2970  1 000266   200011 236100                    LDQ     ITEMX,,AUTO
         1 000267   200010 036100                    ADLQ    NDW,,AUTO
         1 000270   200011 756100                    STQ     ITEMX,,AUTO

     2496     2971    3            NDW=NDW*4;

   2971  1 000271   200010 235100                    LDA     NDW,,AUTO
         1 000272   000002 735000                    ALS     2
         1 000273   200010 755100                    STA     NDW,,AUTO

     2497     2972    3            IF ITEMX*4>AVAIL THEN GOTO FMOE$FPARAM;

   2972  1 000274   000002 736000                    QLS     2
         1 000275   200014 116100                    CMPQ    AVAIL,,AUTO
         1 000276   000367 605400 1                  TPNZ    FMOE$FPARAM

     2498     2973    3            BUF$->REC=LOC$->REC;

   2973  1 000277   000000 622005                    EAX2    0,AL
         1 000300   200010 723100                    LXL3    NDW,,AUTO
         1 000301   040140 100540                    MLR     fill='040'O
PL6.E3A0      #004=FMO$TRNINFO File=FMO$OBSE.:E05TSI                             TUE 07/29/97 16:58 Page:470
         1 000302   300000 000012                    ADSC9   0,,PR3                   cn=0,n=*X2
         1 000303   500000 000013                    ADSC9   0,,PR5                   cn=0,n=*X3

     2499     2974    4            IF FIT$->FM$FIT.CODES.CODE(I)=4 AND LOC$->CODE04.SVMODIFY THEN DO;

   2974  1 000304   000000 471500                    LDP1    0,,PR0
         1 000305   100000 236110                    LDQ     0,X0,PR1
         1 000306   760000 376003                    ANQ     -8192,DU
         1 000307   100000 116003                    CMPQ    32768,DU
         1 000310   000332 601000 1                  TNZ     NXTCODE
         1 000311   200006 473500                    LDP3    LOC$,,AUTO
         1 000312   300010 235100                    LDA     8,,PR3
         1 000313   000332 600000 1                  TZE     NXTCODE

     2500     2975    4               IF F$DCB.ASN=%TAPE# OR F$DCB.CFU$=ADDR(NIL) THEN EXIT;

   2975  1 000314   200005 476500                    LDP6    JDCB$,,AUTO
         1 000315   600032 236100                    LDQ     26,,PR6
         1 000316   777000 376007                    ANQ     -512,DL
         1 000317   002000 116007                    CMPQ    1024,DL
         1 000320   000332 600000 1                  TZE     NXTCODE
         1 000321   600066 236100                    LDQ     54,,PR6
         1 000322   000001 116000 xsym               CMPQ    B_VECTNIL+1
         1 000323   000332 600000 1                  TZE     NXTCODE

     2501     2976    4               IF F$DCB.CFU$->FM$CFU.FMOD THEN EXIT;

   2976  1 000324   600066 477500                    LDP7    54,,PR6
         1 000325   700000 236100                    LDQ     0,,PR7
         1 000326   004000 316003                    CANQ    2048,DU
         1 000327   000332 601000 1                  TNZ     NXTCODE

     2502     2977    4               BUF$->CODE04.MODIFY=LOC$->CODE04.SVMODIFY;

   2977  1 000330   300010 236100                    LDQ     8,,PR3
         1 000331   500001 756100                    STQ     1,,PR5

PL6.E3A0      #004=FMO$TRNINFO File=FMO$OBSE.:E05TSI                             TUE 07/29/97 16:58 Page:471
     2503     2978    4               END;

     2504     2979    3            END;

     2505     2980    2   NXTCODE:
     2506     2981    2         END;

   2981  1 000332   200012 235100       NXTCODE      LDA     I,,AUTO
         1 000333   000001 035007                    ADLA    1,DL
         1 000334   200012 755100                    STA     I,,AUTO
         1 000335   200004 470500                    LDP0    @FIT$,,AUTO
         1 000336   000000 471500                    LDP1    0,,PR0
         1 000337   100000 236100                    LDQ     0,,PR1
         1 000340   000037 772000                    QRL     31
         1 000341   200012 116100                    CMPQ    I,,AUTO
         1 000342   000142 603000 1                  TRC     s:2949

     2507     2982                    /*
     2508     2983                    *  FINALLY FILL IN THE ZERO FIT ENTRY TO DEFINE HOW MANY ITEMS
     2509     2984                    *  ARE DESCRIBED IN THE FPARAM.
     2510     2985                    */
     2511     2986    1      FPARAM$->FM$FIT.CODES.NAW(0)=FIT$->FM$FIT.CODES.NDW(0);

   2986  1 000343   200003 473500                    LDP3    @FPARAM$,,AUTO
         1 000344   300000 474500                    LDP4    0,,PR3
         1 000345   100000 236100                    LDQ     0,,PR1
         1 000346   000012 736000                    QLS     10
         1 000347   400000 676100                    ERQ     0,,PR4
         1 000350   007774 376003                    ANQ     4092,DU
         1 000351   400000 656100                    ERSQ    0,,PR4

     2512     2987    1      FPARAM$->FM$FIT.CODES.NDW(0)=ITEMX;

   2987  1 000352   300000 471500                    LDP1    0,,PR3
         1 000353   200011 236100                    LDQ     ITEMX,,AUTO
         1 000354   000012 736000                    QLS     10
         1 000355   100000 676100                    ERQ     0,,PR1
PL6.E3A0      #004=FMO$TRNINFO File=FMO$OBSE.:E05TSI                             TUE 07/29/97 16:58 Page:472
         1 000356   000001 376000 2                  ANQ     1
         1 000357   100000 656100                    ERSQ    0,,PR1

     2513     2988    1      FPARAM$->FM$FIT.CODES.CODE(0)=J;

   2988  1 000360   300000 471500                    LDP1    0,,PR3
         1 000361   200013 236100                    LDQ     J,,AUTO
         1 000362   000037 736000                    QLS     31
         1 000363   100000 676100                    ERQ     0,,PR1
         1 000364   760000 376003                    ANQ     -8192,DU
         1 000365   100000 656100                    ERSQ    0,,PR1

     2514     2989    1      RETURN;

   2989  1 000366   000000 702200 xent               TSX2  ! X66_ARET

     2515     2990                    /**/
     2516     2991                    /*E*     ERROR: FMO-E$FPARAM-E
     2517     2992                    *        MESSAGE:FPARAM area too small% for %UF%
     2518     2993                    */
     2519     2994    1   FMOE$FPARAM: B$JIT$->B$JIT.ERR=FMO$E$FPARAM;

   2994  1 000367   000000 236000 0     FMOE$FPARAM  LDQ     FMO$E$FPARAM
         1 000370   000000 470400 xsym               LDP0    B$JIT$
         1 000371   000012 756100                    STQ     10,,PR0

     2520     2995    1      ALTRETURN;

   2995  1 000372   000000 702200 xent               TSX2  ! X66_AALT

     2521     2996    1   FMOE$BADFIT: B$JIT.ERR=FMO$E$BADFIT;

   2996  1 000373   000001 236000 0     FMOE$BADFIT  LDQ     FMO$E$BADFIT
         1 000374   000000 470400 xsym               LDP0    B$JIT$
         1 000375   000012 756100                    STQ     10,,PR0

     2522     2997    1      ALTRETURN;
PL6.E3A0      #004=FMO$TRNINFO File=FMO$OBSE.:E05TSI                             TUE 07/29/97 16:58 Page:473

   2997  1 000376   000000 702200 xent               TSX2  ! X66_AALT
     2523     2998    1   END FMO$TRNINFO;
     2524     2999        %EOD;

PL6.E3A0      #004=FMO$TRNINFO File=FMO$OBSE.:E05TSI                             TUE 07/29/97 16:58 Page:474
--  Include file information  --

   F_ERRORS_C.:E05TOU  is referenced.
   CP_6_SUBS.:E05TOU  is referenced.
   FM$MACROS.:E05TOU  is referenced.
   F_CP6.:E05TOU  is referenced.
   F$DCB.:E05TOU  is referenced.
   B$JIT_C.:E05TOU  is referenced.
   F$JIT_C.:E05TOU  cannot be made into a system file and is referenced.
      No diagnostics issued in procedure FMO$TRNINFO.
PL6.E3A0      #004=FMO$TRNINFO File=FMO$OBSE.:E05TSI                             TUE 07/29/97 16:58 Page:475

 **** Variables and constants ****

  ****  Section 000 RoData FMO$TRNINFO

  ****  Scalars and arrays  ****
OctLoc.c.b A Datatyp(siz) R M Lvl/name                 OctLoc.c.b A Datatyp(siz) R M Lvl/name

     1-0-0/b STRC        r     1 FMO$E$BADFIT               0-0-0/b STRC        r     1 FMO$E$FPARAM

  ****  Auto variables  ****

  ****  Scalars and arrays  ****
OctLoc.c.b A Datatyp(siz) R M Lvl/name                 OctLoc.c.b A Datatyp(siz) R M Lvl/name

     4-0-0/w PTR         r     1 @FIT$                      3-0-0/w PTR         r     1 @FPARAM$
    14-0-0/w SBIN        r     1 AVAIL                      7-0-0/w PTR         r     1 BUF$
    *0-0-0/w PTR         r     1 FIT$                      *0-0-0/w PTR         r     1 FPARAM$
    12-0-0/w UBIN        r     1 I                         11-0-0/w SBIN        r     1 ITEMX
    13-0-0/w UBIN        r     1 J                          5-0-0/w PTR         r     1 JDCB$
     6-0-0/w PTR         r     1 LOC$                      10-0-0/w SBIN        r     1 NDW

  ****  SYMREF variables  ****

  ****  Scalars and arrays  ****
OctLoc.c.b A Datatyp(siz) R M Lvl/name                 OctLoc.c.b A Datatyp(siz) R M Lvl/name

     0-0-0/w PTR         r     1 B$JIT$

  ****  BASED and DCB variables  ****

  ****  Scalars and arrays  ****
OctLoc.c.b A Datatyp(siz) R M Lvl/name                 OctLoc.c.b A Datatyp(siz) R M Lvl/name

     0-0-0/d STRC(8856)  r     1 B$JIT                      0-0-0/w STRC(396)   r     1 CODE04
     0-0-0/w STRC(288)   r     1 CODE14                     0-0-0/d ASTR(3528)  r     1 F$DCB
     0-0-0/w STRC(288)   r     1 FM$CFU                     0-0-0/w STRC(1116)  r     1 FM$FIT
     0-0-0/w STRC(180)   r     1 FM$GRAN                    0-0-0/d STRC(1440)  r     1 PN$
PL6.E3A0      #004=FMO$TRNINFO File=FMO$OBSE.:E05TSI                             TUE 07/29/97 16:58 Page:476
     0-0-0/c ACHR        r     1 REC


   Procedure FMO$TRNINFO requires 255 words for executable code.
   Procedure FMO$TRNINFO requires 18 words of local(AUTO) storage.
PL6.E3A0      #004=FMO$TRNINFO File=FMO$OBSE.:E05TSI                             TUE 07/29/97 16:58 Page:477
          *** CROSS REFERENCE LISTING ***
**     DENOTES     IDENTIFIER DEFINITION
<<                 IDENTIFIER'S VALUE SET
>>                 IDENTIFIER'S VALUE USED
<>                 IDENTIFIER SET AND/OR USED
--                 IDENTIFIER REFERENCED
PL6.E3A0      #004=FMO$TRNINFO File=FMO$OBSE.:E05TSI                             TUE 07/29/97 16:58 Page:478
          MINI XREF LISTING

AVAIL
        52**DCL      2917<>CALL     2924>>IF       2941>>IF       2972>>IF
B$JIT.DCB$
       471**DCL      2916>>ASSIGN
B$JIT.ERR
       381**DCL      2994<<ASSIGN   2996<<ASSIGN
B$JIT.ERR.MID
       382**DCL       382--REDEF
B$JIT.PRIV.ACTIVE.FMEFT
       382**DCL      2956>>IF
B$JIT.PRIV.ACTIVE.FMSEC
       383**DCL      2928>>IF       2950>>IF
B$JIT$
        35**DCL       376--IMP-PTR  2916>>ASSIGN   2928>>IF       2950>>IF       2956>>IF       2994>>ASSIGN
      2996>>ASSIGN
BUF$
        46**DCL      1675--IMP-PTR  2917>>CALL     2917>>CALL     2925<<ASSIGN   2927>>ASSIGN   2967<<ASSIGN
      2973>>ASSIGN   2977>>ASSIGN
CODE04
      2106**DCL      2931--IF       2952--ASSIGN
CODE04.CREATOR
      2108**DCL      2952--ASSIGN
CODE04.CREATOR.ACCT
      2108**DCL      2933<<ASSIGN
CODE04.CREATOR.NAME
      2108**DCL      2932<<ASSIGN
CODE04.MODIFY
      2108**DCL      2977<<ASSIGN
CODE04.SVMODIFY
      2109**DCL      2974>>IF       2977>>ASSIGN
CODE14
      2114**DCL      2954--ASSIGN
PL6.E3A0      #004=FMO$TRNINFO File=FMO$OBSE.:E05TSI                             TUE 07/29/97 16:58 Page:479
CODE14.OWNER
      2119**DCL      2954--ASSIGN
F$DCB.ACS
       553**DCL      2922>>IF
F$DCB.ACTPOS
       561**DCL       561--REDEF
F$DCB.ARS
       536**DCL       536--REDEF
F$DCB.ASN
       551**DCL      2975>>IF
F$DCB.ATTR
       554**DCL       555--REDEF
F$DCB.BORROW
       569**DCL       569--REDEF     569--REDEF     569--REDEF
F$DCB.CFU$
       570**DCL      2975>>IF       2976>>IF
F$DCB.DCBNAME.L
       583**DCL       583--IMP-SIZ
F$DCB.EOMCHAR
       540**DCL       540--REDEF
F$DCB.FLDID
       564**DCL       564--REDEF
F$DCB.FORM$
       558**DCL       558--REDEF
F$DCB.FSECT
       574**DCL       574--REDEF
F$DCB.FSN
       551**DCL       551--REDEF     551--REDEF     552--REDEF
F$DCB.HEADER$
       557**DCL       557--REDEF
F$DCB.IXTNSIZE
       555**DCL       555--REDEF
F$DCB.LASTSTA$
       545**DCL       545--REDEF
F$DCB.LVL
       570**DCL       570--REDEF
PL6.E3A0      #004=FMO$TRNINFO File=FMO$OBSE.:E05TSI                             TUE 07/29/97 16:58 Page:480
F$DCB.NAME.C
       545**DCL       545--REDEF
F$DCB.NOEOF
       566**DCL       566--REDEF
F$DCB.NRECS
       556**DCL       556--REDEF
F$DCB.NRECX
       575**DCL       575--REDEF
F$DCB.OHDR
       567**DCL       567--REDEF
F$DCB.ORG
       550**DCL       550--REDEF
F$DCB.PRECNO
       573**DCL       573--REDEF
F$DCB.RCSZ
       578**DCL       578--REDEF
F$DCB.RES
       546**DCL       546--REDEF
F$DCB.SETX
       558**DCL       558--REDEF
F$DCB.TAB$
       557**DCL       558--REDEF
F$DCB.TDA
       572**DCL       572--REDEF
F$DCB.WSN
       547**DCL       547--REDEF
FIT$
        32**DCL        27--PROC     2925>>ASSIGN   2941>>IF       2946>>ASSIGN   2948>>DOINDEX  2949>>ASSIGN
      2951>>IF       2953>>IF       2956>>IF       2959>>ASSIGN   2966>>ASSIGN   2966>>ASSIGN   2968>>IF
      2974>>IF       2986>>ASSIGN
FM$CFU.ACCTX
      2096**DCL      2096--REDEF
FM$CFU.FMOD
      2095**DCL      2976>>IF
FM$FIT
      2101**DCL      2941--IF       2945<<ASSIGN
PL6.E3A0      #004=FMO$TRNINFO File=FMO$OBSE.:E05TSI                             TUE 07/29/97 16:58 Page:481
FM$FIT.CODES
      2101**DCL      2959<<ASSIGN   2959>>ASSIGN
FM$FIT.CODES.CODE
      2101**DCL      2946>>ASSIGN   2948>>DOINDEX  2951>>IF       2953>>IF       2956>>IF       2974>>IF
      2988<<ASSIGN
FM$FIT.CODES.ITEMX
      2101**DCL      2961<<ASSIGN   2966>>ASSIGN
FM$FIT.CODES.NAW
      2101**DCL      2986<<ASSIGN
FM$FIT.CODES.NDW
      2101**DCL      2949>>ASSIGN   2960<<ASSIGN   2986>>ASSIGN   2987<<ASSIGN
FM$GRAN
      2122**DCL      2925--ASSIGN   2929--ASSIGN   2968--IF
FMO$E$BADFIT
      2912**DCL      2996>>ASSIGN
FMO$E$FPARAM
      2908**DCL      2994>>ASSIGN
FMO$LOCCODP
        39**DCL-ENT  2930--CALL
FMOE$BADFIT
      2996**LABEL    2931--GOTO     2969--GOTO
FMOE$FPARAM
      2994**LABEL    2924--GOTO     2972--GOTO
FPARAM$
        31**DCL        27--PROC     2927>>ASSIGN   2929>>ASSIGN   2931>>IF       2945>>ASSIGN   2959>>ASSIGN
      2960>>ASSIGN   2961>>ASSIGN   2967>>ASSIGN   2986>>ASSIGN   2987>>ASSIGN   2988>>ASSIGN
HFF$DSIZ
        40**DCL-ENT  2917--CALL
I
        49**DCL      2948<<DOINDEX  2949>>ASSIGN   2951>>IF       2953>>IF       2956>>IF       2959>>ASSIGN
      2966>>ASSIGN   2974>>IF
ITEMX
        48**DCL      2946<<ASSIGN   2961>>ASSIGN   2967>>ASSIGN   2970<<ASSIGN   2970>>ASSIGN   2972>>IF
      2987>>ASSIGN
J
        50**DCL      2947<<ASSIGN   2958<<ASSIGN   2958>>ASSIGN   2959>>ASSIGN   2960>>ASSIGN   2961>>ASSIGN
PL6.E3A0      #004=FMO$TRNINFO File=FMO$OBSE.:E05TSI                             TUE 07/29/97 16:58 Page:482
      2988>>ASSIGN
JDCB$
        44**DCL       536--IMP-PTR  2916<<ASSIGN   2922>>IF       2975>>IF       2975>>IF       2976>>IF
LOC$
        45**DCL      2106--IMP-PTR  2114--IMP-PTR  2929<<ASSIGN   2930<>CALL     2931>>IF       2932>>ASSIGN
      2933>>ASSIGN   2952>>ASSIGN   2952>>ASSIGN   2954>>ASSIGN   2954>>ASSIGN   2966<<ASSIGN   2968>>IF
      2973>>ASSIGN   2974>>IF       2977>>ASSIGN
NDW
        47**DCL        51--IMP-SIZ  2926<<ASSIGN   2927>>ASSIGN   2927>>ASSIGN   2949<<ASSIGN   2950>>IF
      2952<<ASSIGN   2954<<ASSIGN   2956>>IF       2960>>ASSIGN   2968>>IF       2970>>ASSIGN   2971<<ASSIGN
      2971>>ASSIGN   2973>>ASSIGN   2973>>ASSIGN
NONAME
      2933**LABEL    2930--CALLALT
PN$.ACSVEH_
      1677**DCL      1678--REDEF
PN$.ALTKEYS_
      1683**DCL      1684--REDEF    1684--REDEF
PN$.FPARAM_
      1680**DCL      2917--CALL
PN$.HDR_
      1682**DCL      1683--REDEF
PN$.TAB_
      1681**DCL      1682--REDEF
PN$.UHL_
      1675**DCL      1676--REDEF    1676--REDEF
PN$.V.FSN#
      1715**DCL      1715--REDEF    1715--REDEF
PN$.V_
      1675**DCL      2917--CALL
PN$.WSN_
      1681**DCL      1681--REDEF
REC
        51**DCL      2927<<ASSIGN   2927>>ASSIGN   2973<<ASSIGN   2973>>ASSIGN

PL6.E3A0      #005=FMO$FDHASH File=FMO$OBSE.:E05TSI                              TUE 07/29/97 16:58 Page:483
     2525        1        /*T***********************************************************/
     2526        2        /*T*                                                         */
     2527        3        /*T* Copyright (c) Bull HN Information Systems Inc., 1997    */
     2528        4        /*T*                                                         */
     2529        5        /*T***********************************************************/
     2530        6                    /*F*   NAME:   FMO$FDHASH
     2531        7                    *      PURPOSE:  Generate the hash used in the stamp of file
     2532        8                    *                directory granules.
     2533        9                    *
     2534       10                    *
     2535       11                    */
     2536       12                    /*D*   NAME:   FMO$FDHASH
     2537       13                    *      CALL:   CALL FMO$FDHASH(JDCB$,HASH);
     2538       14                    *      INPUT:  JDCB$ - Pointer to DCB
     2539       15                    *      OUTPUT: HASH - The hash (a 27-bit variable)
     2540       16                    *      DESCRIPTION:  The hash for regular accounts is the sum
     2541       17                    *                    of bits 0-26, 24-50 and 45-71 of the account.
     2542       18                    *                    For the star-file directory, it is the SYSID
     2543       19                    *                    of the user.  */
     2544       20                    /* */
     2545       21        FMO$FDHASH: PROC(JDCB$,HASH);
     2546       22                    /* PARAMETERS */
     2547       23    1   DCL JDCB$ PTR;
     2548       24    1   DCL HASH UBIN(27) CALIGNED;
     2549       25                    /* LOCAL AUTOMATIC STORAGE */
     2550       26    1   DCL ACCT$ PTR;
     2551       27                    /* INCLUDE FILES */
     2552       28        %INCLUDE F$DCB;
     2553       77        %INCLUDE B$USER;
     2554      293        %B$USERREFS;
     2555      297                    /* BASED STRUCTURES */
     2556      298    1   DCL 1 BITS BASED ALIGNED,
     2557      299    1         2 B1 UBIN(27) UNAL,
     2558      300    1         2 * UBIN(18) UNAL,
     2559      301    1         2 B2 UBIN(27) UNAL;
     2560      302    1   DCL 1 MBITS BASED ALIGNED,
     2561      303    1         2 * UBIN(24) UNAL,
PL6.E3A0      #005=FMO$FDHASH File=FMO$OBSE.:E05TSI                              TUE 07/29/97 16:58 Page:484
     2562      304    1         2 B3 UBIN(27) UNAL;
     2563      305                    /* */
     2564      306    1      IF JDCB$->F$DCB.STARF
     2565      307    1      THEN     /* STAR FILE DIRECTORY */
     2566      308    1         HASH=S$CU$->B$U.SYSID; /* HASH IS USER'S SYSID */
     2567      309    1      ELSE     /* REGULAR DIRECTORY */
     2568      310    2      DO;
     2569      311    2         ACCT$=ADDR(JDCB$->F$DCB.ACCT); /* ADDRESS OF ACCOUNT NAME */
     2570      312    2         HASH=ACCT$->BITS.B1+ACCT$->BITS.B2+ACCT$->MBITS.B3;
     2571      313    2         END;
     2572      314    1      RETURN;
     2573      315    1   END FMO$FDHASH;
     2574      316        %EOD;

PL6.E3A0      #005=FMO$FDHASH File=FMO$OBSE.:E05TSI                              TUE 07/29/97 16:58 Page:485
--  Include file information  --

   B$USER.:E05TOU  cannot be made into a system file and is referenced.
   F$DCB.:E05TOU  cannot be made into a system file and is referenced.
      No diagnostics issued in procedure FMO$FDHASH.

   Procedure FMO$FDHASH requires 35 words for executable code.
   Procedure FMO$FDHASH requires 10 words of local(AUTO) storage.

PL6.E3A0      #005=FMO$FDHASH File=FMO$OBSE.:E05TSI                              TUE 07/29/97 16:58 Page:486

 Object Unit name= FMO$FDHASH                                 File name= FMO$OBSE.:E05TOU
 UTS= JUL 29 '97 16:58:24.48 TUE                              Compiler= PL-6/E31         Sev=      00
 SharedLib= :SHARED_SYSTEM                                    Alt SharedLib=


    ****  Control sections  ****

 Sect   Type Bound  Init  Size OctSiz  Section name(segment info)
    0   Proc  even  none    35     43  FMO$FDHASH

    ****  Entry defs  ****

                              Check   Calling
                             calling  sequence
  Sect OctLoc Primary Altret sequence   type   Parms  Name
     0      0   yes            yes      Std        2  FMO$FDHASH

  ****  Entry refs  ****

         Check        Calling
        calling       sequence
Altret sequence SRef   type   Args  Name
                       nStd      0 X66_AUTO_2
                       Std       0 B_CONSPOOL_D
                       nStd      0 X66_ARET

  ****  Data refs  ****

  Flags:  r = read only, s = secondary
Flgs Name                             Flgs Name                             Flgs Name
     S$CU$                                 B_VECTNIL
PL6.E3A0      #005=FMO$FDHASH File=FMO$OBSE.:E05TSI                              TUE 07/29/97 16:58 Page:487


     2525        1        /*T***********************************************************/
     2526        2        /*T*                                                         */
     2527        3        /*T* Copyright (c) Bull HN Information Systems Inc., 1997    */
     2528        4        /*T*                                                         */
     2529        5        /*T***********************************************************/
     2530        6                    /*F*   NAME:   FMO$FDHASH
     2531        7                    *      PURPOSE:  Generate the hash used in the stamp of file
     2532        8                    *                directory granules.
     2533        9                    *
     2534       10                    *
     2535       11                    */
     2536       12                    /*D*   NAME:   FMO$FDHASH
     2537       13                    *      CALL:   CALL FMO$FDHASH(JDCB$,HASH);
     2538       14                    *      INPUT:  JDCB$ - Pointer to DCB
     2539       15                    *      OUTPUT: HASH - The hash (a 27-bit variable)
     2540       16                    *      DESCRIPTION:  The hash for regular accounts is the sum
     2541       17                    *                    of bits 0-26, 24-50 and 45-71 of the account.
     2542       18                    *                    For the star-file directory, it is the SYSID
     2543       19                    *                    of the user.  */
     2544       20                    /* */
     2545       21        FMO$FDHASH: PROC(JDCB$,HASH);

     21  0 000000   000000 700200 xent  FMO$FDHASH   TSX0  ! X66_AUTO_2
         0 000001   000012 000002                    ZERO    10,2

     2546       22                    /* PARAMETERS */
     2547       23    1   DCL JDCB$ PTR;
     2548       24    1   DCL HASH UBIN(27) CALIGNED;
     2549       25                    /* LOCAL AUTOMATIC STORAGE */
     2550       26    1   DCL ACCT$ PTR;
     2551       27                    /* INCLUDE FILES */
     2552       28        %INCLUDE F$DCB;
     2553       77        %INCLUDE B$USER;
     2554      293        %B$USERREFS;
     2555      297                    /* BASED STRUCTURES */
     2556      298    1   DCL 1 BITS BASED ALIGNED,
PL6.E3A0      #005=FMO$FDHASH File=FMO$OBSE.:E05TSI                              TUE 07/29/97 16:58 Page:488
     2557      299    1         2 B1 UBIN(27) UNAL,
     2558      300    1         2 * UBIN(18) UNAL,
     2559      301    1         2 B2 UBIN(27) UNAL;
     2560      302    1   DCL 1 MBITS BASED ALIGNED,
     2561      303    1         2 * UBIN(24) UNAL,
     2562      304    1         2 B3 UBIN(27) UNAL;
     2563      305                    /* */
     2564      306    1      IF JDCB$->F$DCB.STARF

    306  0 000002   200003 470500                    LDP0    @JDCB$,,AUTO
         0 000003   000000 471500                    LDP1    0,,PR0
         0 000004   100064 236100                    LDQ     52,,PR1
         0 000005   200000 316003                    CANQ    65536,DU
         0 000006   000015 600000 0                  TZE     s:311

     2565      307    1      THEN     /* STAR FILE DIRECTORY */
     2566      308    1         HASH=S$CU$->B$U.SYSID; /* HASH IS USER'S SYSID */

    308  0 000007   000000 473400 xsym               LDP3    S$CU$
         0 000010   200004 474500                    LDP4    @HASH,,AUTO
         0 000011   000100 101500                    MRL     fill='000'O
         0 000012   300014 400002                    ADSC9   12,,PR3                  cn=2,n=2
         0 000013   400000 000003                    ADSC9   0,,PR4                   cn=0,n=3
         0 000014   000042 710000 0                  TRA     s:314

     2567      309    1      ELSE     /* REGULAR DIRECTORY */
     2568      310    2      DO;

     2569      311    2         ACCT$=ADDR(JDCB$->F$DCB.ACCT); /* ADDRESS OF ACCOUNT NAME */

    311  0 000015   100020 633500                    EPPR3   16,,PR1
         0 000016   200005 453500                    STP3    ACCT$,,AUTO

     2570      312    2         HASH=ACCT$->BITS.B1+ACCT$->BITS.B2+ACCT$->MBITS.B3;

    312  0 000017   300001 236100                    LDQ     1,,PR3
         0 000020   000032 376000 xsym               ANQ     B_VECTNIL+26
PL6.E3A0      #005=FMO$FDHASH File=FMO$OBSE.:E05TSI                              TUE 07/29/97 16:58 Page:489
         0 000021   200006 756100                    STQ     ACCT$+1,,AUTO
         0 000022   300000 236100                    LDQ     0,,PR3
         0 000023   000011 772000                    QRL     9
         0 000024   200006 036100                    ADLQ    ACCT$+1,,AUTO
         0 000025   300000 235100                    LDA     0,,PR3
         0 000026   200007 756100                    STQ     ACCT$+2,,AUTO
         0 000027   300001 236100                    LDQ     1,,PR3
         0 000030   000025 773000                    LRL     21
         0 000031   000032 376000 xsym               ANQ     B_VECTNIL+26
         0 000032   200010 756100                    STQ     ACCT$+3,,AUTO
         0 000033   200007 236100                    LDQ     ACCT$+2,,AUTO
         0 000034   200010 036100                    ADLQ    ACCT$+3,,AUTO
         0 000035   200011 756100                    STQ     ACCT$+4,,AUTO
         0 000036   200004 471500                    LDP1    @HASH,,AUTO
         0 000037   000100 101500                    MRL     fill='000'O
         0 000040   200011 000004                    ADSC9   ACCT$+4,,AUTO            cn=0,n=4
         0 000041   100000 000003                    ADSC9   0,,PR1                   cn=0,n=3

     2571      313    2         END;

     2572      314    1      RETURN;

    314  0 000042   000000 702200 xent               TSX2  ! X66_ARET
     2573      315    1   END FMO$FDHASH;
     2574      316        %EOD;

PL6.E3A0      #005=FMO$FDHASH File=FMO$OBSE.:E05TSI                              TUE 07/29/97 16:58 Page:490
--  Include file information  --

   B$USER.:E05TOU  cannot be made into a system file and is referenced.
   F$DCB.:E05TOU  cannot be made into a system file and is referenced.
      No diagnostics issued in procedure FMO$FDHASH.
PL6.E3A0      #005=FMO$FDHASH File=FMO$OBSE.:E05TSI                              TUE 07/29/97 16:58 Page:491

 **** Variables and constants ****

  ****  Auto variables  ****

  ****  Scalars and arrays  ****
OctLoc.c.b A Datatyp(siz) R M Lvl/name                 OctLoc.c.b A Datatyp(siz) R M Lvl/name

     4-0-0/w PTR         r     1 @HASH                      3-0-0/w PTR         r     1 @JDCB$
     5-0-0/w PTR         r     1 ACCT$                     *0-0-0/c UBIN(27)    r     1 HASH
    *0-0-0/w PTR         r     1 JDCB$

  ****  SYMREF variables  ****

  ****  Scalars and arrays  ****
OctLoc.c.b A Datatyp(siz) R M Lvl/name                 OctLoc.c.b A Datatyp(siz) R M Lvl/name

     0-0-0/w PTR         r     1 S$CU$

  ****  BASED and DCB variables  ****

  ****  Scalars and arrays  ****
OctLoc.c.b A Datatyp(siz) R M Lvl/name                 OctLoc.c.b A Datatyp(siz) R M Lvl/name

     0-0-0/d STRC(576)   r     1 B$U                        0-0-0/w STRC(72)    r     1 BITS
     0-0-0/d ASTR(3528)  r     1 F$DCB                      0-0-0/w STRC(51)    r     1 MBITS


   Procedure FMO$FDHASH requires 35 words for executable code.
   Procedure FMO$FDHASH requires 10 words of local(AUTO) storage.
PL6.E3A0      #005=FMO$FDHASH File=FMO$OBSE.:E05TSI                              TUE 07/29/97 16:58 Page:492
          *** CROSS REFERENCE LISTING ***
**     DENOTES     IDENTIFIER DEFINITION
<<                 IDENTIFIER'S VALUE SET
>>                 IDENTIFIER'S VALUE USED
<>                 IDENTIFIER SET AND/OR USED
--                 IDENTIFIER REFERENCED
PL6.E3A0      #005=FMO$FDHASH File=FMO$OBSE.:E05TSI                              TUE 07/29/97 16:58 Page:493
          MINI XREF LISTING

ACCT$
        26**DCL       311<<ASSIGN    312>>ASSIGN    312>>ASSIGN    312>>ASSIGN
B$DO.ECCINFO
       228**DCL       229--REDEF
B$U.MISC
       207**DCL       208--REDEF
B$U.SYSID
       202**DCL       308>>ASSIGN
B$USER.MISC
       283**DCL       284--REDEF
BITS.B1
       299**DCL       312>>ASSIGN
BITS.B2
       301**DCL       312>>ASSIGN
F$DCB.ACCT
        39**DCL       311--ASSIGN
F$DCB.ACTPOS
        54**DCL        54--REDEF
F$DCB.ARS
        29**DCL        29--REDEF
F$DCB.ATTR
        47**DCL        48--REDEF
F$DCB.BORROW
        62**DCL        62--REDEF      62--REDEF      62--REDEF
F$DCB.DCBNAME.L
        76**DCL        76--IMP-SIZ
F$DCB.EOMCHAR
        33**DCL        33--REDEF
F$DCB.FLDID
        57**DCL        57--REDEF
F$DCB.FORM$
        51**DCL        51--REDEF
PL6.E3A0      #005=FMO$FDHASH File=FMO$OBSE.:E05TSI                              TUE 07/29/97 16:58 Page:494
F$DCB.FSECT
        67**DCL        67--REDEF
F$DCB.FSN
        44**DCL        44--REDEF      44--REDEF      45--REDEF
F$DCB.HEADER$
        50**DCL        50--REDEF
F$DCB.IXTNSIZE
        48**DCL        48--REDEF
F$DCB.LASTSTA$
        38**DCL        38--REDEF
F$DCB.LVL
        63**DCL        63--REDEF
F$DCB.NAME.C
        38**DCL        38--REDEF
F$DCB.NOEOF
        59**DCL        59--REDEF
F$DCB.NRECS
        49**DCL        49--REDEF
F$DCB.NRECX
        68**DCL        68--REDEF
F$DCB.OHDR
        60**DCL        60--REDEF
F$DCB.ORG
        43**DCL        43--REDEF
F$DCB.PRECNO
        66**DCL        66--REDEF
F$DCB.RCSZ
        71**DCL        71--REDEF
F$DCB.RES
        39**DCL        39--REDEF
F$DCB.SETX
        51**DCL        51--REDEF
F$DCB.STARF
        58**DCL       306>>IF
F$DCB.TAB$
        50**DCL        51--REDEF
PL6.E3A0      #005=FMO$FDHASH File=FMO$OBSE.:E05TSI                              TUE 07/29/97 16:58 Page:495
F$DCB.TDA
        65**DCL        65--REDEF
F$DCB.WSN
        40**DCL        40--REDEF
HASH
        24**DCL        21--PROC      308<<ASSIGN    312<<ASSIGN
JDCB$
        23**DCL        21--PROC      306>>IF        311>>ASSIGN
MBITS.B3
       304**DCL       312>>ASSIGN
S$CU$
       294**DCL       308>>ASSIGN

PL6.E3A0      #006=FMO$PACKACCT File=FMO$OBSE.:E05TSI                            TUE 07/29/97 16:58 Page:496
     2575        1        /*T***********************************************************/
     2576        2        /*T*                                                         */
     2577        3        /*T* Copyright (c) Bull HN Information Systems Inc., 1997    */
     2578        4        /*T*                                                         */
     2579        5        /*T***********************************************************/
     2580        6                    /*F*
     2581        7                    *      NAME:   FMO$PACKACCT
     2582        8                    *
     2583        9                    *      PURPOSE:   TO PACK THE ACCT FROM THE DCB INTO A TEXTC
     2584       10                    *                 TYPE KEY FOR THE ACCT DIRECTORY.
     2585       11                    *
     2586       12                    */
     2587       13        FMO$PACKACCT: PROC(JDCB$,KEY$);
     2588       14                    /**/
     2589       15        %INCLUDE F$DCB;
     2590       64                    /**/
     2591       65                    /* PARAMETER DATA */
     2592       66                    /**/
     2593       67    1   DCL JDCB$ PTR; /* POINTER TO THE DCB */
     2594       68    1   DCL KEY$ PTR; /* POINTER TO THE AREA FOR KEY*/
     2595       69                    /**/
     2596       70                    /* AUTOMATIC DATA */
     2597       71    1   DCL I UBIN; /* INDEX */
     2598       72                    /**/
     2599       73                    /* BASED STRUCTURES */
     2600       74                    /**/
     2601       75    1   DCL 1 AC7 BASED ALIGNED,
     2602       76    1         2 C UBIN(9) UNAL,
     2603       77    1         2 R (0:7) UBIN(7) UNAL,
     2604       78    1         2 P UBIN(7) UNAL;
     2605       79                    /* TEXTC TYPE ACCT NUMBER */
     2606       80    1   DCL 1 AC9,
     2607       81    1         2 R(0:7) UBIN BYTE UNAL;
     2608       82                    /* TEXT TYPE ACCT NO. (ASCII)*/
     2609       83                    /**/
     2610       84    1      AC9=ADDR(JDCB$->F$DCB.ACCT)->AC7;
     2611       85    2      DO I=0 TO 7;
PL6.E3A0      #006=FMO$PACKACCT File=FMO$OBSE.:E05TSI                            TUE 07/29/97 16:58 Page:497
     2612       86    2         KEY$->AC7.R(I)=AC9.R(I);
     2613       87    2         END;
     2614       88    1      KEY$->AC7.C=7;
     2615       89    1      KEY$->AC7.P=0;
     2616       90    1      RETURN;
     2617       91                    /**/
     2618       92                    /*F*
     2619       93                    *      NAME:   FMO$UNPKACCT
     2620       94                    *
     2621       95                    *      PURPOSE:   TO UNPACK THE ACCOUNT FROM ITS TEXTC FORM IN
     2622       96                    *                 THE ACCT DIRECTORY TO TEXT IN THE DCB.
     2623       97                    */
     2624       98    1   FMO$UPKACCT: ENTRY(JDCB$,KEY$);
     2625       99                    /**/
     2626      100    2      DO I=0 TO 7;
     2627      101    2         AC9.R(I)=KEY$->AC7.R(I);
     2628      102    2         ADDR(JDCB$->F$DCB.ACCT)->AC7=AC9;
     2629      103    2         END;
     2630      104    1      RETURN;
     2631      105                    /**/
     2632      106    1   END FMO$PACKACCT;
     2633      107        %EOD;

PL6.E3A0      #006=FMO$PACKACCT File=FMO$OBSE.:E05TSI                            TUE 07/29/97 16:58 Page:498
--  Include file information  --

   F$DCB.:E05TOU  cannot be made into a system file and is referenced.
      No diagnostics issued in procedure FMO$PACKACCT.

   Procedure FMO$PACKACCT requires 54 words for executable code.
   Procedure FMO$PACKACCT requires 10 words of local(AUTO) storage.

PL6.E3A0      #006=FMO$PACKACCT File=FMO$OBSE.:E05TSI                            TUE 07/29/97 16:58 Page:499

 Object Unit name= FMO$PACKACCT                               File name= FMO$OBSE.:E05TOU
 UTS= JUL 29 '97 16:58:31.44 TUE                              Compiler= PL-6/E31         Sev=      00
 SharedLib= :SHARED_SYSTEM                                    Alt SharedLib=


    ****  Control sections  ****

 Sect   Type Bound  Init  Size OctSiz  Section name(segment info)
    0   Proc  even  none    54     66  FMO$PACKACCT
    1  RoData even  none     1      1  FMO$PACKACCT

    ****  Entry defs  ****

                              Check   Calling
                             calling  sequence
  Sect OctLoc Primary Altret sequence   type   Parms  Name
     0      0   yes            yes      Std        2  FMO$PACKACCT
     0     36                  yes      Std        2  FMO$UPKACCT

  ****  Entry refs  ****

         Check        Calling
        calling       sequence
Altret sequence SRef   type   Args  Name
                       nStd      0 X66_AUTO_2
                       nStd      0 X66_ARET
PL6.E3A0      #006=FMO$PACKACCT File=FMO$OBSE.:E05TSI                            TUE 07/29/97 16:58 Page:500


     2575        1        /*T***********************************************************/
     2576        2        /*T*                                                         */
     2577        3        /*T* Copyright (c) Bull HN Information Systems Inc., 1997    */
     2578        4        /*T*                                                         */
     2579        5        /*T***********************************************************/
     2580        6                    /*F*
     2581        7                    *      NAME:   FMO$PACKACCT
     2582        8                    *
     2583        9                    *      PURPOSE:   TO PACK THE ACCT FROM THE DCB INTO A TEXTC
     2584       10                    *                 TYPE KEY FOR THE ACCT DIRECTORY.
     2585       11                    *
     2586       12                    */
     2587       13        FMO$PACKACCT: PROC(JDCB$,KEY$);

     13  0 000000   000000 700200 xent  FMO$PACKACCT TSX0  ! X66_AUTO_2
         0 000001   000012 000002                    ZERO    10,2

     2588       14                    /**/
     2589       15        %INCLUDE F$DCB;
     2590       64                    /**/
     2591       65                    /* PARAMETER DATA */
     2592       66                    /**/
     2593       67    1   DCL JDCB$ PTR; /* POINTER TO THE DCB */
     2594       68    1   DCL KEY$ PTR; /* POINTER TO THE AREA FOR KEY*/
     2595       69                    /**/
     2596       70                    /* AUTOMATIC DATA */
     2597       71    1   DCL I UBIN; /* INDEX */
     2598       72                    /**/
     2599       73                    /* BASED STRUCTURES */
     2600       74                    /**/
     2601       75    1   DCL 1 AC7 BASED ALIGNED,
     2602       76    1         2 C UBIN(9) UNAL,
     2603       77    1         2 R (0:7) UBIN(7) UNAL,
     2604       78    1         2 P UBIN(7) UNAL;
     2605       79                    /* TEXTC TYPE ACCT NUMBER */
     2606       80    1   DCL 1 AC9,
PL6.E3A0      #006=FMO$PACKACCT File=FMO$OBSE.:E05TSI                            TUE 07/29/97 16:58 Page:501
     2607       81    1         2 R(0:7) UBIN BYTE UNAL;
     2608       82                    /* TEXT TYPE ACCT NO. (ASCII)*/
     2609       83                    /**/
     2610       84    1      AC9=ADDR(JDCB$->F$DCB.ACCT)->AC7;

     84  0 000002   200003 470500                    LDP0    @JDCB$,,AUTO
         0 000003   000000 471500                    LDP1    0,,PR0
         0 000004   100020 237100                    LDAQ    16,,PR1
         0 000005   200006 757100                    STAQ    AC9,,AUTO

     2611       85    2      DO I=0 TO 7;

     85  0 000006   200005 450100                    STZ     I,,AUTO

     2612       86    2         KEY$->AC7.R(I)=AC9.R(I);

     86  0 000007   200004 470500                    LDP0    @KEY$,,AUTO
         0 000010   000000 471500                    LDP1    0,,PR0
         0 000011   200005 236100                    LDQ     I,,AUTO
         0 000012   000011 402007                    MPY     9,DL
         0 000013   200010 756100                    STQ     AC9+2,,AUTO
         0 000014   200005 236100                    LDQ     I,,AUTO
         0 000015   000007 402007                    MPY     7,DL
         0 000016   200010 235100                    LDA     AC9+2,,AUTO
         0 000017   003106 061505                    CSR     bolr='003'O
         0 000020   200006 000011                    BDSC    AC9,A,AUTO               by=0,bit=0,n=9
         0 000021   100000 200007                    BDSC    0,Q,PR1                  by=1,bit=0,n=7

     2613       87    2         END;

     87  0 000022   200005 235100                    LDA     I,,AUTO
         0 000023   000001 035007                    ADLA    1,DL
         0 000024   200005 755100                    STA     I,,AUTO
         0 000025   000010 115007                    CMPA    8,DL
         0 000026   000007 602000 0                  TNC     s:86

     2614       88    1      KEY$->AC7.C=7;
PL6.E3A0      #006=FMO$PACKACCT File=FMO$OBSE.:E05TSI                            TUE 07/29/97 16:58 Page:502

     88  0 000027   000000 471500                    LDP1    0,,PR0
         0 000030   007000 236003                    LDQ     3584,DU
         0 000031   100000 552140                    STBQ    0,'40'O,PR1

     2615       89    1      KEY$->AC7.P=0;

     89  0 000032   000000 471500                    LDP1    0,,PR0
         0 000033   000000 236000 1                  LDQ     0
         0 000034   100001 356100                    ANSQ    1,,PR1

     2616       90    1      RETURN;

     90  0 000035   000000 702200 xent               TSX2  ! X66_ARET

     2617       91                    /**/
     2618       92                    /*F*
     2619       93                    *      NAME:   FMO$UNPKACCT
     2620       94                    *
     2621       95                    *      PURPOSE:   TO UNPACK THE ACCOUNT FROM ITS TEXTC FORM IN
     2622       96                    *                 THE ACCT DIRECTORY TO TEXT IN THE DCB.
     2623       97                    */
     2624       98    1   FMO$UPKACCT: ENTRY(JDCB$,KEY$);

     98  0 000036   000000 700200 xent  FMO$UPKACCT  TSX0  ! X66_AUTO_2
         0 000037   000012 000002                    ZERO    10,2

     2625       99                    /**/
     2626      100    2      DO I=0 TO 7;

    100  0 000040   200005 450100                    STZ     I,,AUTO

     2627      101    2         AC9.R(I)=KEY$->AC7.R(I);

    101  0 000041   200004 470500                    LDP0    @KEY$,,AUTO
         0 000042   000000 471500                    LDP1    0,,PR0
         0 000043   200005 236100                    LDQ     I,,AUTO
PL6.E3A0      #006=FMO$PACKACCT File=FMO$OBSE.:E05TSI                            TUE 07/29/97 16:58 Page:503
         0 000044   000007 402007                    MPY     7,DL
         0 000045   200010 756100                    STQ     AC9+2,,AUTO
         0 000046   200005 236100                    LDQ     I,,AUTO
         0 000047   000011 402007                    MPY     9,DL
         0 000050   200010 235100                    LDA     AC9+2,,AUTO
         0 000051   003106 061505                    CSR     bolr='003'O
         0 000052   100000 200007                    BDSC    0,A,PR1                  by=1,bit=0,n=7
         0 000053   200006 000011                    BDSC    AC9,Q,AUTO               by=0,bit=0,n=9

     2628      102    2         ADDR(JDCB$->F$DCB.ACCT)->AC7=AC9;

    102  0 000054   200003 471500                    LDP1    @JDCB$,,AUTO
         0 000055   100000 473500                    LDP3    0,,PR1
         0 000056   200006 237100                    LDAQ    AC9,,AUTO
         0 000057   300020 757100                    STAQ    16,,PR3

     2629      103    2         END;

    103  0 000060   200005 235100                    LDA     I,,AUTO
         0 000061   000001 035007                    ADLA    1,DL
         0 000062   200005 755100                    STA     I,,AUTO
         0 000063   000010 115007                    CMPA    8,DL
         0 000064   000041 602000 0                  TNC     s:101

     2630      104    1      RETURN;

    104  0 000065   000000 702200 xent               TSX2  ! X66_ARET
     2631      105                    /**/
     2632      106    1   END FMO$PACKACCT;
     2633      107        %EOD;

PL6.E3A0      #006=FMO$PACKACCT File=FMO$OBSE.:E05TSI                            TUE 07/29/97 16:58 Page:504
--  Include file information  --

   F$DCB.:E05TOU  cannot be made into a system file and is referenced.
      No diagnostics issued in procedure FMO$PACKACCT.
PL6.E3A0      #006=FMO$PACKACCT File=FMO$OBSE.:E05TSI                            TUE 07/29/97 16:58 Page:505

 **** Variables and constants ****

  ****  Auto variables  ****

  ****  Scalars and arrays  ****
OctLoc.c.b A Datatyp(siz) R M Lvl/name                 OctLoc.c.b A Datatyp(siz) R M Lvl/name

     3-0-0/w PTR         r     1 @JDCB$                     4-0-0/w PTR         r     1 @KEY$
     6-0-0/b STRC(72)    r     1 AC9                        5-0-0/w UBIN        r     1 I
    *0-0-0/w PTR         r     1 JDCB$                     *0-0-0/w PTR         r     1 KEY$

  ****  BASED and DCB variables  ****

  ****  Scalars and arrays  ****
OctLoc.c.b A Datatyp(siz) R M Lvl/name                 OctLoc.c.b A Datatyp(siz) R M Lvl/name

     0-0-0/w STRC(72)    r     1 AC7                        0-0-0/d ASTR(3528)  r     1 F$DCB


   Procedure FMO$PACKACCT requires 54 words for executable code.
   Procedure FMO$PACKACCT requires 10 words of local(AUTO) storage.
PL6.E3A0      #006=FMO$PACKACCT File=FMO$OBSE.:E05TSI                            TUE 07/29/97 16:58 Page:506
          *** CROSS REFERENCE LISTING ***
**     DENOTES     IDENTIFIER DEFINITION
<<                 IDENTIFIER'S VALUE SET
>>                 IDENTIFIER'S VALUE USED
<>                 IDENTIFIER SET AND/OR USED
--                 IDENTIFIER REFERENCED
PL6.E3A0      #006=FMO$PACKACCT File=FMO$OBSE.:E05TSI                            TUE 07/29/97 16:58 Page:507
          MINI XREF LISTING

AC7
        75**DCL        84>>ASSIGN    102<<ASSIGN
AC7.C
        76**DCL        88<<ASSIGN
AC7.P
        78**DCL        89<<ASSIGN
AC7.R
        77**DCL        86<<ASSIGN    101>>ASSIGN
AC9
        80**DCL        84<<ASSIGN    102>>ASSIGN
AC9.R
        81**DCL        86>>ASSIGN    101<<ASSIGN
F$DCB.ACCT
        26**DCL        84--ASSIGN    102--ASSIGN
F$DCB.ACTPOS
        41**DCL        41--REDEF
F$DCB.ARS
        16**DCL        16--REDEF
F$DCB.ATTR
        34**DCL        35--REDEF
F$DCB.BORROW
        49**DCL        49--REDEF      49--REDEF      49--REDEF
F$DCB.DCBNAME.L
        63**DCL        63--IMP-SIZ
F$DCB.EOMCHAR
        20**DCL        20--REDEF
F$DCB.FLDID
        44**DCL        44--REDEF
F$DCB.FORM$
        38**DCL        38--REDEF
F$DCB.FSECT
        54**DCL        54--REDEF
PL6.E3A0      #006=FMO$PACKACCT File=FMO$OBSE.:E05TSI                            TUE 07/29/97 16:58 Page:508
F$DCB.FSN
        31**DCL        31--REDEF      31--REDEF      32--REDEF
F$DCB.HEADER$
        37**DCL        37--REDEF
F$DCB.IXTNSIZE
        35**DCL        35--REDEF
F$DCB.LASTSTA$
        25**DCL        25--REDEF
F$DCB.LVL
        50**DCL        50--REDEF
F$DCB.NAME.C
        25**DCL        25--REDEF
F$DCB.NOEOF
        46**DCL        46--REDEF
F$DCB.NRECS
        36**DCL        36--REDEF
F$DCB.NRECX
        55**DCL        55--REDEF
F$DCB.OHDR
        47**DCL        47--REDEF
F$DCB.ORG
        30**DCL        30--REDEF
F$DCB.PRECNO
        53**DCL        53--REDEF
F$DCB.RCSZ
        58**DCL        58--REDEF
F$DCB.RES
        26**DCL        26--REDEF
F$DCB.SETX
        38**DCL        38--REDEF
F$DCB.TAB$
        37**DCL        38--REDEF
F$DCB.TDA
        52**DCL        52--REDEF
F$DCB.WSN
        27**DCL        27--REDEF
PL6.E3A0      #006=FMO$PACKACCT File=FMO$OBSE.:E05TSI                            TUE 07/29/97 16:58 Page:509
I
        71**DCL        85<<DOINDEX    86>>ASSIGN     86>>ASSIGN    100<<DOINDEX   101>>ASSIGN    101>>ASSIGN
JDCB$
        67**DCL        13--PROC       84>>ASSIGN     98--ENTRY     102>>ASSIGN
KEY$
        68**DCL        13--PROC       86>>ASSIGN     88>>ASSIGN     89>>ASSIGN     98--ENTRY     101>>ASSIGN

PL6.E3A0      #007=FMO$SECCHK File=FMO$OBSE.:E05TSI                              TUE 07/29/97 16:58 Page:510
     2634        1        /*T***********************************************************/
     2635        2        /*T*                                                         */
     2636        3        /*T* Copyright (c) Bull HN Information Systems Inc., 1997    */
     2637        4        /*T*                                                         */
     2638        5        /*T***********************************************************/
     2639        6                    /*F*
     2640        7                    *     NAME:   FMO$SECCHK
     2641        8                    *
     2642        9                    *     PURPOSE:  TO CHECK THE SECURITY OF THE FILE IN CONJUNCTION
     2643       10                    *               WITH THE CURRENT OPEN REQUEST.
     2644       11                    */
     2645       12        FMO$SECCHK: PROC(FDFIT,FM$FIT);
     2646       13    1   DCL FDFIT UBIN;/* THIS PARAMEWTER IS PRESENT, BUT UNUSED, IF NOT SECCHKFD */
     2647       14        %INCLUDE FM$MACROS;
     2648      389        %FM$FIT(BASED=" ");
     2649      392        %CODE03(BASED="BASED(LOC$)");
     2650      399        %CODE04(BASED="BASED(LOC$)");
     2651      407        %CODE07(BASED="BASED(LOC$)");
     2652      410        %CODE09(BASED="BASED(LOC$)");
     2653      414        %CODE10(BASED="BASED(LOC$)");
     2654      418        %FM$CFU(BASED="BASED(CFU$)");
     2655      424        %FM$CFUA(BASED="BASED(CFU$)");
     2656      430        %INCLUDE F_ERRORS_C;
     2657      670        %INCLUDE F$JIT_C;
     2658     1100        %MACRO F$DCB#(BASED=BASED);
     2659     1101        %INCLUDE F$DCB;
     2660     1150        %MEND;
     2661     1151        %F$DCB#(BASED="BASED(JDCB$)");
     2662     1201        %INCLUDE CP_6_SUBS;
     2663     1741        %INCLUDE B$P;
     2664     1825        %INCLUDE B$USER;
     2665     2041        %B$USERREFS;
     2666     2045    1   DCL 1 BACSVEH BASED,
     2667     2046    1         2 L UBIN BYTE UNAL,
     2668     2047    1         2 C CHAR(BACSVEH.L);
     2669     2048    1   DCL BACCT BASED CHAR(8);
     2670     2049                    /**/
PL6.E3A0      #007=FMO$SECCHK File=FMO$OBSE.:E05TSI                              TUE 07/29/97 16:58 Page:511
     2671     2050                    /* AUTO DATA */
     2672     2051    1   DCL JDCB$ PTR; /* DCB POINTER */
     2673     2052    1   DCL LOC$ PTR; /* FITCODE PTR */
     2674     2053    1   DCL CFU$ PTR; /* CFU AREA PINTER */
     2675     2054    1   DCL I UBIN;
     2676     2055    1   DCL J UBIN;
     2677     2056    1   DCL WILD_XC REDEF J CHAR(4);
     2678     2057    1   DCL K UBIN;
     2679     2058    1   DCL JP UBIN;
     2680     2059    1   DCL KP UBIN;
     2681     2060    1   DCL ACCT$ REDEF KP PTR;
     2682     2061    1   DCL 1 M,
     2683     2062    1         2 CM UBIN,
     2684     2063    1         2 C SBIN;
     2685     2064    1   DCL TACCT REDEF M CHAR(8);
     2686     2065    1   DCL 1 FLAGS, /* IMTERMEDIATE RESULT */
     2687     2066    1         2 READ BIT(1),
     2688     2067    1         2 DELR BIT(1),
     2689     2068    1         2 WNEW BIT(1),
     2690     2069    1         2 UPD BIT(1),
     2691     2070    1         2 DELF BIT(1),
     2692     2071    1         2 NOLIST BIT(1),
     2693     2072    1         2 REATTR BIT(1),
     2694     2073    1         2 EXEC BIT(1),
     2695     2074    1         2 CREATE BIT(1),
     2696     2075    1         2 ANY BIT(1),
     2697     2076    1         2 * BIT(26);
     2698     2077                    /**/
     2699     2078    1   DCL FMO$LOCCODE ENTRY(2) ALTRET;
     2700     2079    1   DCL FMO$LOCCODT ENTRY(2)ALTRET;
     2701     2080    1   DCL FMR$L8 ENTRY; /* KEEP ACCTX FIXED */
     2702     2081    1   DCL FMR$U8 ENTRY; /* ALSO */
     2703     2082                    /* STATIC */
     2704     2083    1   DCL F$CFU$ PTR SYMREF;
     2705     2084    1   DCL B$JIT$ PTR SYMREF;
     2706     2085    1   DCL FM_SYSACCTX UBIN SYMREF;
     2707     2086                    /* CONSTANT DATA */
PL6.E3A0      #007=FMO$SECCHK File=FMO$OBSE.:E05TSI                              TUE 07/29/97 16:58 Page:512
     2708     2087        %SUB FCG#='0615'O;
     2709     2088        %SUB MID#='16'O;
     2710     2089        %ERRCODE(NAME=FMO$E$NOFILE,COD#=%E$NOFILE);
     2711     2093        %ERRCODE(NAME=FMO$E$NOACCESS,COD#=%E$NOACCESS);
     2712     2097        %ERRCODE(NAME=FMO$E$QSTOW,COD#=%E$QSTOW);
     2713     2101        %ERRCODE(NAME=FMO$E$CLSREL,COD#=%E$CLSREL);
     2714     2105    1   DCL 1 FETCHVEH CONSTANT,
     2715     2106    1         2 * UBIN BYTE UNAL INIT(5),
     2716     2107    1         2 * CHAR(5) INIT('FETCH');
     2717     2108    1   DCL SYSACCT CHAR(8)INIT(':SYS')CONSTANT;
     2718     2109        %EJECT;
PL6.E3A0      #007=FMO$SECCHK File=FMO$OBSE.:E05TSI                              TUE 07/29/97 16:58 Page:513
     2719     2110                    /* PROCDEURE */
     2720     2111    1      JDCB$=B$JIT.DCB$;
     2721     2112    2      IF ADDR(FDFIT)=ADDR(NIL) THEN DO;
     2722     2113    2         FLAGS=F$DCB.FFLG; /* MUST BE CALL FOR SECCHKFD */
     2723     2114    2         GOTO SECCHKFD;
     2724     2115    2         END;
     2725     2116    1      IF F$DCB.IASN~=%FILE# THEN F$DCB.FFLG=F$CFU$->FM$CFUA.DFLTALL;
     2726     2117    1      KP=BITBIN(F$DCB.FFLG); /* REMEMBER THE DEFAULT FOR NON-OWNERS */
     2727     2118    1      F$DCB.FFLG='0'B;
     2728     2119    1      FLAGS=%FFLG_OWNER#;
     2729     2120    1      I=4;
     2730     2121    1      LOC$=ADDR(FM$FIT);
     2731     2122    1      CALL FMO$LOCCODE(LOC$,I) ALTRET(OWNEROK);/*STAR IF ALTRET */
     2732     2123    1      IF CODE04.CREATOR.NAME=B$JIT.UNAME
     2733     2124    2        AND CODE04.CREATOR.ACCT=B$JIT.ACCN THEN DO;
     2734     2125    2         F$DCB.OWNER='1'B;
     2735     2126    2         GOTO OWNEROK;
     2736     2127    2         END;
     2737     2128    2      IF F$DCB.OWNER THEN DO; /* NOT A PROTECTED ACCOUNT */
     2738     2129    2         F$DCB.OWNER='0'B; /* NOT THE FILE'S OWNER */
     2739     2130    2         IF F$DCB.ACCT=B$JIT.ACCN THEN GOTO OWNEROK;
     2740     2131    2         END;
     2741     2132    1      FLAGS=BINBIT(KP,18); /* NOT OWNER, OR ACCOUNT PRIVILEGED */
     2742     2133    2      IF FLAGS=%FFLG_CREATE# THEN DO;
     2743     2134                    /* This is a "write-only" account, so only owned files are visible. */
     2744     2135    2         FLAGS=%FFLG_NOLIST#;
     2745     2136    2         GOTO OWNEROK;
     2746     2137    2         END;
     2747     2138    1   SECCHKFD:;
     2748     2139    1      I=9;
     2749     2140    1      LOC$=ADDR(FM$FIT);
     2750     2141    1      CALL FMO$LOCCODE(LOC$,I) ALTRET(OTHEROK);
     2751     2142    1      I=FM$FIT.CODES.NDW(I)*4;
     2752     2143    1      CFU$=ADDR(NIL);
     2753     2144    1      M.CM=F$DCB.FDCM;
     2754     2145    2      DO WHILE (I>9);
     2755     2146        %LIST;
PL6.E3A0      #007=FMO$SECCHK File=FMO$OBSE.:E05TSI                              TUE 07/29/97 16:58 Page:514
     2756     2147              %WILD_COMPARE(COMP_COUNT=M.C,
     2757     2148              WILD_CHARS=CODE09.ACCT,
     2758     2149              WILD_X=J,
     2759     2150              WILD_XP=JP,
     2760     2151              COMPARE_CHARS=B$JIT.ACCN,
     2761     2152              COMPARE_X=K,
     2762     2153              COMPARE_XP=KP,
     2763     2154              NO_MATCH=GOTO NOMATCH);
              2155        %LSET LISTDIR='0'B;
              2172    2           WILD_XC=CODE09.ACCT;
              2173    3           IF (BINBIT(J,36)&'737737737777'O)='101114114040'O THEN DO;
              2174    3              J=3;
              2175    3              JP=2;
              2176    3              END;
              2186    3           ELSE DO;
              2187    3              J=0;
              2188    3              JP=SIZEC(CODE09.ACCT);
              2189    3              END;
              2190    2           K=0;
              2191    2           KP=0;
              2193    2           M.C=0;
              2195    3           DO WHILE(J<SIZEC(CODE09.ACCT) AND SUBSTR(CODE09.ACCT,J,1)~=' '
              2196    3             OR K<SIZEC(B$JIT.ACCN) AND SUBSTR(B$JIT.ACCN,K,1)~=' ');
              2197    4              IF J<SIZEC(CODE09.ACCT) AND SUBSTR(CODE09.ACCT,J,1)='?' THEN DO;
              2198    4                 JP=J;
              2199    4                 END;
              2200    4              ELSE DO;
              2201    4                 IF J=JP+1 THEN KP=K;
              2202    4                 IF J>=SIZEC(CODE09.ACCT)
              2203    4                   OR K>=SIZEC(B$JIT.ACCN)
              2204    4                   OR SUBSTR(CODE09.ACCT,J,1) ~=
              2205    5                   SUBSTR(B$JIT.ACCN,K,1) THEN DO;
              2206    5                    IF JP=SIZEC(CODE09.ACCT) OR KP=SIZEC(B$JIT.ACCN)
              2207    5                    THEN GOTO NOMATCH;
              2208    5                    J=JP;
              2210    5                    M.C=M.C-K+KP;
              2212    5                    K=KP;
PL6.E3A0      #007=FMO$SECCHK File=FMO$OBSE.:E05TSI                              TUE 07/29/97 16:58 Page:515
              2213    5                    END;
              2215    4                 ELSE M.C=M.C+1;
              2217    4                 K=K+1;
              2218    4                 END;
              2219    3              IF J<SIZEC(CODE09.ACCT) THEN J=J+1;
              2220    3   END;
              2222    2           IF JP=SIZEC(CODE09.ACCT) THEN M.C=SIZEC(CODE09.ACCT);
     2764     2225    3         IF M.C>=M.CM THEN DO;
     2765     2226    3            CFU$=LOC$;
     2766     2227    3            M.CM=M.C;
     2767     2228    3            END;
     2768     2229    2   NOMATCH:;
     2769     2230    2         LOC$=PINCRC(LOC$,10);
     2770     2231    2         I=I-10;
     2771     2232    2         END;
     2772     2233    1      IF CFU$~=ADDR(NIL) THEN FLAGS=CFU$->CODE09.FFLG;
     2773     2234    1      F$DCB.FDCM=M.CM;
     2774     2235                    /**/
     2775     2236    1   OTHEROK:;
     2776     2237    1      IF ADDR(FDFIT)=ADDR(NIL) THEN GOTO NOPASSWD; /* SECCHKFD - nearly done */
     2777     2238    1      IF NOT FLAGS.EXEC THEN GOTO OWNEROK; /* MUST WE CHECK FOR VEHICLE */
     2778     2239    1      FLAGS.EXEC='0'B; /* FLAGS IF NO MATCH */
     2779     2240    1      ACCT$=ADDR(SYSACCT); /* DEFAULT ACCOUNT */
     2780     2241    2      DO CASE (F$DCB.WSR);
     2781     2242    2      CASE(0); /* MONITOR */
     2782     2243    2         CFU$=ADDR(FETCHVEH); /* MOST LIKELY FETCH */
     2783     2244    2         FLAGS=%(FFLG_READ#|FFLG_EXEC#);
     2784     2245    2      CASE(4); /* CP */
     2785     2246    2         CFU$=ADDR(B$P$->B$P.NAME(S$CU$->B$U.ACP));
     2786     2247    2      CASE(5); /* DB */
     2787     2248    2         CFU$=ADDR(B$P$->B$P.NAME(S$CU$->B$U.DB));
     2788     2249    2      CASE(6); /* ASL */
     2789     2250    2         CFU$=ADDR(B$P$->B$P.NAME(S$CU$->B$U.ASL));
     2790     2251    2      CASE(7); /* USER */
     2791     2252    2         IF DCBADDR(2)->F$DCB.WSR=0 AND DCBADDR(2)->F$DCB.FCD
     2792     2253    2           AND DCBADDR(2)->F$DCB.PSN=' '
     2793     2254    3         THEN DO;
PL6.E3A0      #007=FMO$SECCHK File=FMO$OBSE.:E05TSI                              TUE 07/29/97 16:58 Page:516
     2794     2255    3            CFU$=ADDR(DCBADDR(2)->F$DCB.NAME);
     2795     2256    3            ACCT$=ADDR(DCBADDR(2)->F$DCB.ACCT);
     2796     2257    3            END;
     2797     2258    2         ELSE GOTO OWNEROK; /* USE WHAT'S HERE */
     2798     2259    2      CASE(ELSE);
     2799     2260    2         GOTO OWNEROK;
     2800     2261    2      END;
     2801     2262    1      I=10;
     2802     2263    1      LOC$=ADDR(FM$FIT);
     2803     2264    1      CALL FMO$LOCCODE(LOC$,I)ALTRET(OWNEROK);
     2804     2265    1      K=0;
     2805     2266    1      I=FM$FIT.CODES.NDW(I)*4;
     2806     2267    2      DO WHILE(I>=SIZEC(CODE10));
     2807     2268    2         I=I-SIZEC(CODE10);
     2808     2269    2         CALL INDEX1(J,'.',CODE10.ACSVEH.T);
     2809     2270    2         IF J=CODE10.ACSVEH.C THEN TACCT=SYSACCT;
     2810     2271    2         ELSE IF J=CODE10.ACSVEH.C-1 THEN TACCT=F$DCB.ACCT;
     2811     2272    2            ELSE TACCT=SUBSTR(CODE10.ACSVEH.T,J+1);
     2812     2273    2         IF TACCT=ACCT$->BACCT
     2813     2274    3         THEN IF SUBSTR(CODE10.ACSVEH.T,0,J)=CFU$->BACSVEH.C THEN DO;
     2814     2275    3   GOTONE:     ;
     2815     2276    3               K=J;
     2816     2277    3               FLAGS=CODE10.FFLG;
     2817     2278    3               IF FLAGS&~%FFLG_EXEC# THEN FLAGS.EXEC='1'B;
     2818     2279    3               ELSE FLAGS='0'B;
     2819     2280    3               END;
     2820     2281    3            ELSE IF J>K THEN DO;
     2821     2282    3                  J=J-1;
     2822     2283    3                  IF SUBSTR(CODE10.ACSVEH.T,J,1)='?' AND J<=CFU$->BACSVEH.L
     2823     2284    3                    AND SUBSTR(CODE10.ACSVEH.T,0,J)=SUBSTR(CFU$->BACSVEH.C,0,J)
     2824     2285    3                  THEN GOTO GOTONE;
     2825     2286    3                  END;
     2826     2287    2         LOC$=PINCRC(LOC$,SIZEC(CODE10));
     2827     2288    2         END;
     2828     2289        %EJECT;
PL6.E3A0      #007=FMO$SECCHK File=FMO$OBSE.:E05TSI                              TUE 07/29/97 16:58 Page:517
     2829     2290    1   OWNEROK:;
     2830     2291    1      LOC$=ADDR(FM$FIT);
     2831     2292    1      CALL FMO$LOCCODT(LOC$,7)ALTRET(NOPASSWD);
     2832     2293    1      IF NOT F$DCB.PASSF OR F$DCB.PASS~=CODE07.PASS
     2833     2294    1      THEN FLAGS=FLAGS&%FFLG_NOLIST#;
     2834     2295                    /*E*     ERROR: -E$NOACCESS-E
     2835     2296                    *        MESSAGE:Access denied% to %UF% %through %DC%
     2836     2297                    */
     2837     2298    1   NOPASSWD:;
     2838     2299    1      F$DCB.AUTHFFLG=FLAGS;
     2839     2300    2      DO;
     2840     2301    2         IF F$DCB.WSR=1 THEN F$DCB.OWNER='0'B;
     2841     2302    2         ELSE IF NOT B$JIT.PRIV.ACTIVE.FMSEC THEN EXIT;
     2842     2303    2            ELSE IF (FLAGS&%FFLG_WRITE#)~=%FFLG_WRITE# THEN F$DCB.PRIVOPN='1'B;
     2843     2304    2         FLAGS=%FFLG_OWNER#;
     2844     2305    2         END;
     2845     2306    1      IF ADDR(FDFIT)=ADDR(NIL) THEN GOTO NOTFILE; /* SECCHKFD - all done */
     2846     2307    1      IF FLAGS.NOLIST AND NOT B$JIT.PRIV.ACTIVE.FMREAD
     2847     2308    1      THEN GOTO FMOE$NOFILE;
     2848     2309    1      IF F$DCB.FUN=%IN# THEN FLAGS=FLAGS&%FFLG_INFLGS#;
     2849     2310    1      J=F$DCB.STARX-3; /* 0 AND 1 FOR *A AND *S */
     2850     2311    1      IF J<=1 AND F$DCB.WSR>4
     2851     2312    2        OR J=4 AND F$DCB.WSR~=6 THEN DO;
     2852     2313    2         FLAGS=%FFLG_READ#;
     2853     2314    2         F$DCB.AUTHFFLG=%FFLG_READ#;
     2854     2315    2         END;
     2855     2316    2      ELSE IF J<5 THEN DO;
     2856     2317    2            FLAGS=FLAGS|%FFLG_EXEC#;
     2857     2318    2            IF F$DCB.WSR=1 THEN F$DCB.WSR=0;/* ALL IO WILL BE M$M... */
     2858     2319    2            END;
     2859     2320    1      IF F$DCB.FUN=%CREATE#
     2860     2321    1      THEN IF F$DCB.EXIST~=%OLDFILE#
     2861     2322    1           AND (NOT FLAGS.DELF OR J<5) THEN GOTO FMOE$CLSREL;
     2862     2323    1         ELSE IF NOT FLAGS&%FFLG_UPFLGS# THEN GOTO FMOE$NOACCESS;
     2863     2324                    /*E*     ERROR: FMN-E$CLSREL-E
     2864     2325                    *        MESSAGE:You may not replace file %FN
     2865     2326                    */
PL6.E3A0      #007=FMO$SECCHK File=FMO$OBSE.:E05TSI                              TUE 07/29/97 16:58 Page:518
     2866     2327    1      I=3;
     2867     2328    1      LOC$=ADDR(FM$FIT);
     2868     2329    1      CALL FMO$LOCCODE(LOC$,I)ALTRET(NOTFILE);
     2869     2330    1      IF (F$DCB.FUN~=%CREATE# OR F$DCB.EXIST=%OLDFILE#)
     2870     2331    2        AND F$DCB.ASN~=%TAPE# THEN DO;
     2871     2332    2         F$DCB.TYPE=CODE03.TYPE;
     2872     2333    2         F$DCB.ORG=CODE03.ORG;
     2873     2334    2         END;
     2874     2335    1      IF CODE03.DESC.ARCHIVE
     2875     2336    1      THEN IF F$DCB.FUN=%CREATE# THEN GOTO FMOE$QSTOW;
     2876     2337    1         ELSE IF B$JIT.PRIV.ACTIVE.FMEFT THEN FLAGS=FLAGS&%FFLG_INFLGS#;
     2877     2338    1            ELSE FLAGS=FLAGS&%(FFLG_INFLGS#&~FFLG_DELF#);
     2878     2339                    /*E*     ERROR: FMN-E$QSTOW-E
     2879     2340                    *        MESSAGE:File% %FN% is read-only because it is archived.
     2880     2341                    *        MESSAGE1:File% %UF% is stowed or waiting to be stowed.
     2881     2342                    */
     2882     2343    1      IF SUBSTR(CODE03.TYPE,0,1)='*' AND F$DCB.WSR~=0
     2883     2344    2        AND NOT B$JIT.PRIV.ACTIVE.FMSEC THEN DO;
     2884     2345    2         IF FLAGS.READ THEN FLAGS=FLAGS|%FFLG_AURD#; /* LET LIST WORK */
     2885     2346    2         FLAGS=FLAGS&
     2886     2347    2           %(FFLG_DELF#|FFLG_EXEC#|FFLG_CREATE#|FFLG_REATTR#|FFLG_AURD#);
     2887     2348    2         END;
     2888     2349    1      IF CODE03.ORG=%SYMB# THEN FLAGS=FLAGS&~(%FFLG_UPD#|%FFLG_DELR#);
     2889     2350    1      IF CODE03.GHSTACS~=0 THEN F$DCB.GHSTACS=CODE03.GHSTACS;
     2890     2351    1   NOTFILE:;
     2891     2352    2      IF B$JIT.PRIV.ACTIVE.FMREAD AND ADDR(FDFIT)~=ADDR(NIL) THEN DO;
     2892     2353    2         IF F$DCB.STARX~=0 THEN EXIT; /* do nothing for system starfiles */
     2893     2354    2         IF FLAGS.EXEC OR NOT FLAGS.READ THEN F$DCB.PRIVOPN='1'B;
     2894     2355    2         FLAGS=FLAGS&~%FFLG_EXEC#|%FFLG_READ#;
     2895     2356    2         END;
     2896     2357                    /* IF FMREAD PRIV OVERRODE NONE ACCESS, HE GETS ONLY READ */
     2897     2358    1      IF F$DCB.FDCM=511 THEN FLAGS=%FFLG_READ#;
     2898     2359    1      F$DCB.FFLG=FLAGS;
     2899     2360    1      IF F$DCB.FFLG THEN RETURN;
     2900     2361                    /**/
     2901     2362    1   FMOE$NOACCESS: B$JIT.ERR=FMO$E$NOACCESS;
     2902     2363    1      RETURN;
PL6.E3A0      #007=FMO$SECCHK File=FMO$OBSE.:E05TSI                              TUE 07/29/97 16:58 Page:519
     2903     2364    1   FMOE$NOFILE: B$JIT.ERR=FMO$E$NOFILE;
     2904     2365    1      F$DCB.AUTHFFLG='0'B;
     2905     2366    1      RETURN;
     2906     2367    1   FMOE$QSTOW: B$JIT.ERR=FMO$E$QSTOW;
     2907     2368    1      RETURN;
     2908     2369    1   FMOE$CLSREL: B$JIT.ERR=FMO$E$CLSREL;
     2909     2370    1      RETURN;
     2910     2371    1   END FMO$SECCHK;
     2911     2372        %EOD;

PL6.E3A0      #007=FMO$SECCHK File=FMO$OBSE.:E05TSI                              TUE 07/29/97 16:58 Page:520
--  Include file information  --

   B$USER.:E05TOU  cannot be made into a system file and is referenced.
   B$P.:E05TOU  cannot be made into a system file and is referenced.
   CP_6_SUBS.:E05TOU  is referenced.
   F$DCB.:E05TOU  is referenced.
   B$JIT_C.:E05TOU  is referenced.
   F$JIT_C.:E05TOU  cannot be made into a system file and is referenced.
   F_ERRORS_C.:E05TOU  is referenced.
   FM$MACROS.:E05TOU  is referenced.
      No diagnostics issued in procedure FMO$SECCHK.

   Procedure FMO$SECCHK requires 700 words for executable code.
   Procedure FMO$SECCHK requires 20 words of local(AUTO) storage.

PL6.E3A0      #007=FMO$SECCHK File=FMO$OBSE.:E05TSI                              TUE 07/29/97 16:58 Page:521

 Object Unit name= FMO$SECCHK                                 File name= FMO$OBSE.:E05TOU
 UTS= JUL 29 '97 16:58:37.20 TUE                              Compiler= PL-6/E31         Sev=      00
 SharedLib= :SHARED_SYSTEM                                    Alt SharedLib=


    ****  Control sections  ****

 Sect   Type Bound  Init  Size OctSiz  Section name(segment info)
    0  RoData even  UTS     10     12  FMO$SECCHK
    1   Proc  even  none   700   1274  FMO$SECCHK
    2  RoData even  none     9     11  FMO$SECCHK

    ****  Entry defs  ****

                              Check   Calling
                             calling  sequence
  Sect OctLoc Primary Altret sequence   type   Parms  Name
     1      0   yes            yes      Std        2  FMO$SECCHK

  ****  Entry refs  ****

         Check        Calling
        calling       sequence
Altret sequence SRef   type   Args  Name
 yes     yes           Std       2 FMO$LOCCODE
 yes     yes           Std       2 FMO$LOCCODT
                       nStd      0 X66_AUTO_2
                       Std       0 B_CONSPOOL_D
                       nStd      0 X66_ARET

  ****  Data refs  ****

  Flags:  r = read only, s = secondary
Flgs Name                             Flgs Name                             Flgs Name
     B$P$                                  S$CU$                                 F$CFU$
     B$JIT$                                B_VECTNIL
PL6.E3A0      #007=FMO$SECCHK File=FMO$OBSE.:E05TSI                              TUE 07/29/97 16:58 Page:522

  ****  Segment refs  ****

  Flags:  r = read only, s = secondary
Flgs Name                             Flgs Name                             Flgs Name
     ROSID                                 ISSID
PL6.E3A0      #007=FMO$SECCHK File=FMO$OBSE.:E05TSI                              TUE 07/29/97 16:58 Page:523


     2634        1        /*T***********************************************************/
     2635        2        /*T*                                                         */
     2636        3        /*T* Copyright (c) Bull HN Information Systems Inc., 1997    */
     2637        4        /*T*                                                         */
     2638        5        /*T***********************************************************/
     2639        6                    /*F*
     2640        7                    *     NAME:   FMO$SECCHK
     2641        8                    *
     2642        9                    *     PURPOSE:  TO CHECK THE SECURITY OF THE FILE IN CONJUNCTION
     2643       10                    *               WITH THE CURRENT OPEN REQUEST.
     2644       11                    */
     2645       12        FMO$SECCHK: PROC(FDFIT,FM$FIT);

     12  1 000000   000000 700200 xent  FMO$SECCHK   TSX0  ! X66_AUTO_2
         1 000001   000024 000002                    ZERO    20,2

     2646       13    1   DCL FDFIT UBIN;/* THIS PARAMEWTER IS PRESENT, BUT UNUSED, IF NOT SECCHKFD */
     2647       14        %INCLUDE FM$MACROS;
     2648      389        %FM$FIT(BASED=" ");
     2649      392        %CODE03(BASED="BASED(LOC$)");
     2650      399        %CODE04(BASED="BASED(LOC$)");
     2651      407        %CODE07(BASED="BASED(LOC$)");
     2652      410        %CODE09(BASED="BASED(LOC$)");
     2653      414        %CODE10(BASED="BASED(LOC$)");
     2654      418        %FM$CFU(BASED="BASED(CFU$)");
     2655      424        %FM$CFUA(BASED="BASED(CFU$)");
     2656      430        %INCLUDE F_ERRORS_C;
     2657      670        %INCLUDE F$JIT_C;
     2658     1100        %MACRO F$DCB#(BASED=BASED);
     2659     1101        %INCLUDE F$DCB;
     2660     1150        %MEND;
     2661     1151        %F$DCB#(BASED="BASED(JDCB$)");
     2662     1201        %INCLUDE CP_6_SUBS;
     2663     1741        %INCLUDE B$P;
     2664     1825        %INCLUDE B$USER;
     2665     2041        %B$USERREFS;
PL6.E3A0      #007=FMO$SECCHK File=FMO$OBSE.:E05TSI                              TUE 07/29/97 16:58 Page:524
     2666     2045    1   DCL 1 BACSVEH BASED,
     2667     2046    1         2 L UBIN BYTE UNAL,
     2668     2047    1         2 C CHAR(BACSVEH.L);
     2669     2048    1   DCL BACCT BASED CHAR(8);
     2670     2049                    /**/
     2671     2050                    /* AUTO DATA */
     2672     2051    1   DCL JDCB$ PTR; /* DCB POINTER */
     2673     2052    1   DCL LOC$ PTR; /* FITCODE PTR */
     2674     2053    1   DCL CFU$ PTR; /* CFU AREA PINTER */
     2675     2054    1   DCL I UBIN;
     2676     2055    1   DCL J UBIN;
     2677     2056    1   DCL WILD_XC REDEF J CHAR(4);
     2678     2057    1   DCL K UBIN;
     2679     2058    1   DCL JP UBIN;
     2680     2059    1   DCL KP UBIN;
     2681     2060    1   DCL ACCT$ REDEF KP PTR;
     2682     2061    1   DCL 1 M,
     2683     2062    1         2 CM UBIN,
     2684     2063    1         2 C SBIN;
     2685     2064    1   DCL TACCT REDEF M CHAR(8);
     2686     2065    1   DCL 1 FLAGS, /* IMTERMEDIATE RESULT */
     2687     2066    1         2 READ BIT(1),
     2688     2067    1         2 DELR BIT(1),
     2689     2068    1         2 WNEW BIT(1),
     2690     2069    1         2 UPD BIT(1),
     2691     2070    1         2 DELF BIT(1),
     2692     2071    1         2 NOLIST BIT(1),
     2693     2072    1         2 REATTR BIT(1),
     2694     2073    1         2 EXEC BIT(1),
     2695     2074    1         2 CREATE BIT(1),
     2696     2075    1         2 ANY BIT(1),
     2697     2076    1         2 * BIT(26);
     2698     2077                    /**/
     2699     2078    1   DCL FMO$LOCCODE ENTRY(2) ALTRET;
     2700     2079    1   DCL FMO$LOCCODT ENTRY(2)ALTRET;
     2701     2080    1   DCL FMR$L8 ENTRY; /* KEEP ACCTX FIXED */
     2702     2081    1   DCL FMR$U8 ENTRY; /* ALSO */
PL6.E3A0      #007=FMO$SECCHK File=FMO$OBSE.:E05TSI                              TUE 07/29/97 16:58 Page:525
     2703     2082                    /* STATIC */
     2704     2083    1   DCL F$CFU$ PTR SYMREF;
     2705     2084    1   DCL B$JIT$ PTR SYMREF;
     2706     2085    1   DCL FM_SYSACCTX UBIN SYMREF;
     2707     2086                    /* CONSTANT DATA */
     2708     2087        %SUB FCG#='0615'O;
     2709     2088        %SUB MID#='16'O;
     2710     2089        %ERRCODE(NAME=FMO$E$NOFILE,COD#=%E$NOFILE);
     2711     2093        %ERRCODE(NAME=FMO$E$NOACCESS,COD#=%E$NOACCESS);
     2712     2097        %ERRCODE(NAME=FMO$E$QSTOW,COD#=%E$QSTOW);
     2713     2101        %ERRCODE(NAME=FMO$E$CLSREL,COD#=%E$CLSREL);
     2714     2105    1   DCL 1 FETCHVEH CONSTANT,
     2715     2106    1         2 * UBIN BYTE UNAL INIT(5),
     2716     2107    1         2 * CHAR(5) INIT('FETCH');
     2717     2108    1   DCL SYSACCT CHAR(8)INIT(':SYS')CONSTANT;
     2718     2109        %EJECT;
PL6.E3A0      #007=FMO$SECCHK File=FMO$OBSE.:E05TSI                              TUE 07/29/97 16:58 Page:526
     2719     2110                    /* PROCDEURE */
     2720     2111    1      JDCB$=B$JIT.DCB$;

   2111  1 000002   000000 470400 xsym               LDP0    B$JIT$
         1 000003   000232 236100                    LDQ     154,,PR0
         1 000004   200005 756100                    STQ     JDCB$,,AUTO

     2721     2112    2      IF ADDR(FDFIT)=ADDR(NIL) THEN DO;

   2112  1 000005   200003 236100                    LDQ     @FDFIT,,AUTO
         1 000006   000001 116000 xsym               CMPQ    B_VECTNIL+1
         1 000007   000015 601000 1                  TNZ     s:2116

     2722     2113    2         FLAGS=F$DCB.FFLG; /* MUST BE CALL FOR SECCHKFD */

   2113  1 000010   200005 471500                    LDP1    JDCB$,,AUTO
         1 000011   100004 236100                    LDQ     4,,PR1
         1 000012   777777 376003                    ANQ     -1,DU
         1 000013   200017 756100                    STQ     FLAGS,,AUTO

     2723     2114    2         GOTO SECCHKFD;

   2114  1 000014   000110 710000 1                  TRA     SECCHKFD

     2724     2115    2         END;
     2725     2116    1      IF F$DCB.IASN~=%FILE# THEN F$DCB.FFLG=F$CFU$->FM$CFUA.DFLTALL;

   2116  1 000015   200005 471500                    LDP1    JDCB$,,AUTO
         1 000016   100103 236100                    LDQ     67,,PR1
         1 000017   000777 376007                    ANQ     511,DL
         1 000020   000001 116007                    CMPQ    1,DL
         1 000021   000025 600000 1                  TZE     s:2117

   2116  1 000022   000000 473400 xsym               LDP3    F$CFU$
         1 000023   300006 720100                    LXL0    6,,PR3
         1 000024   100004 740100                    STX0    4,,PR1

PL6.E3A0      #007=FMO$SECCHK File=FMO$OBSE.:E05TSI                              TUE 07/29/97 16:58 Page:527
     2726     2117    1      KP=BITBIN(F$DCB.FFLG); /* REMEMBER THE DEFAULT FOR NON-OWNERS */

   2117  1 000025   100004 236100                    LDQ     4,,PR1
         1 000026   000022 772000                    QRL     18
         1 000027   200014 756100                    STQ     KP,,AUTO

     2727     2118    1      F$DCB.FFLG='0'B;

   2118  1 000030   000000 220003                    LDX0    0,DU
         1 000031   100004 740100                    STX0    4,,PR1

     2728     2119    1      FLAGS=%FFLG_OWNER#;

   2119  1 000032   765700 236003                    LDQ     -5184,DU
         1 000033   200017 756100                    STQ     FLAGS,,AUTO

     2729     2120    1      I=4;

   2120  1 000034   000004 235007                    LDA     4,DL
         1 000035   200010 755100                    STA     I,,AUTO

     2730     2121    1      LOC$=ADDR(FM$FIT);

   2121  1 000036   200004 236100                    LDQ     @FM$FIT,,AUTO
         1 000037   200006 756100                    STQ     LOC$,,AUTO

     2731     2122    1      CALL FMO$LOCCODE(LOC$,I) ALTRET(OWNEROK);/*STAR IF ALTRET */

   2122  1 000040   200010 633500                    EPPR3   I,,AUTO
         1 000041   200021 453500                    STP3    FLAGS+2,,AUTO
         1 000042   200006 634500                    EPPR4   LOC$,,AUTO
         1 000043   200020 454500                    STP4    FLAGS+1,,AUTO
         1 000044   200020 630500                    EPPR0   FLAGS+1,,AUTO
         1 000045   000020 631400 xsym               EPPR1   B_VECTNIL+16
         1 000046   000000 701000 xent               TSX1    FMO$LOCCODE
         1 000047   000712 702000 1                  TSX2    OWNEROK

PL6.E3A0      #007=FMO$SECCHK File=FMO$OBSE.:E05TSI                              TUE 07/29/97 16:58 Page:528
     2732     2123    1      IF CODE04.CREATOR.NAME=B$JIT.UNAME

   2123  1 000050   200006 470500                    LDP0    LOC$,,AUTO
         1 000051   000000 471400 xsym               LDP1    B$JIT$
         1 000052   040100 106500                    CMPC    fill='040'O
         1 000053   000005 000014                    ADSC9   5,,PR0                   cn=0,n=12
         1 000054   100003 000014                    ADSC9   3,,PR1                   cn=0,n=12
         1 000055   000066 601000 1                  TNZ     s:2128
         1 000056   040100 106500                    CMPC    fill='040'O
         1 000057   000003 000010                    ADSC9   3,,PR0                   cn=0,n=8
         1 000060   100001 000010                    ADSC9   1,,PR1                   cn=0,n=8
         1 000061   000066 601000 1                  TNZ     s:2128

     2733     2124    2        AND CODE04.CREATOR.ACCT=B$JIT.ACCN THEN DO;

     2734     2125    2         F$DCB.OWNER='1'B;

   2125  1 000062   200005 473500                    LDP3    JDCB$,,AUTO
         1 000063   040000 236007                    LDQ     16384,DL
         1 000064   300064 256100                    ORSQ    52,,PR3

     2735     2126    2         GOTO OWNEROK;

   2126  1 000065   000712 710000 1                  TRA     OWNEROK

     2736     2127    2         END;
     2737     2128    2      IF F$DCB.OWNER THEN DO; /* NOT A PROTECTED ACCOUNT */

   2128  1 000066   200005 473500                    LDP3    JDCB$,,AUTO
         1 000067   300064 236100                    LDQ     52,,PR3
         1 000070   040000 316007                    CANQ    16384,DL
         1 000071   000100 600000 1                  TZE     s:2132

     2738     2129    2         F$DCB.OWNER='0'B; /* NOT THE FILE'S OWNER */

   2129  1 000072   000000 236000 2                  LDQ     0
         1 000073   300064 356100                    ANSQ    52,,PR3
PL6.E3A0      #007=FMO$SECCHK File=FMO$OBSE.:E05TSI                              TUE 07/29/97 16:58 Page:529

     2739     2130    2         IF F$DCB.ACCT=B$JIT.ACCN THEN GOTO OWNEROK;

   2130  1 000074   040100 106500                    CMPC    fill='040'O
         1 000075   300020 000010                    ADSC9   16,,PR3                  cn=0,n=8
         1 000076   100001 000010                    ADSC9   1,,PR1                   cn=0,n=8
         1 000077   000712 600000 1                  TZE     OWNEROK

     2740     2131    2         END;

     2741     2132    1      FLAGS=BINBIT(KP,18); /* NOT OWNER, OR ACCOUNT PRIVILEGED */

   2132  1 000100   200014 236100                    LDQ     KP,,AUTO
         1 000101   000022 736000                    QLS     18
         1 000102   200017 756100                    STQ     FLAGS,,AUTO

     2742     2133    2      IF FLAGS=%FFLG_CREATE# THEN DO;

   2133  1 000103   001000 116003                    CMPQ    512,DU
         1 000104   000110 601000 1                  TNZ     SECCHKFD

     2743     2134                    /* This is a "write-only" account, so only owned files are visible. */
     2744     2135    2         FLAGS=%FFLG_NOLIST#;

   2135  1 000105   010000 236003                    LDQ     4096,DU
         1 000106   200017 756100                    STQ     FLAGS,,AUTO

     2745     2136    2         GOTO OWNEROK;

   2136  1 000107   000712 710000 1                  TRA     OWNEROK

   2133  1 000110                       SECCHKFD     null
     2746     2137    2         END;
     2747     2138    1   SECCHKFD:;
     2748     2139    1      I=9;

   2139  1 000110   000011 235007                    LDA     9,DL
PL6.E3A0      #007=FMO$SECCHK File=FMO$OBSE.:E05TSI                              TUE 07/29/97 16:58 Page:530
         1 000111   200010 755100                    STA     I,,AUTO

     2749     2140    1      LOC$=ADDR(FM$FIT);

   2140  1 000112   200004 236100                    LDQ     @FM$FIT,,AUTO
         1 000113   200006 756100                    STQ     LOC$,,AUTO

     2750     2141    1      CALL FMO$LOCCODE(LOC$,I) ALTRET(OTHEROK);

   2141  1 000114   200010 630500                    EPPR0   I,,AUTO
         1 000115   200021 450500                    STP0    FLAGS+2,,AUTO
         1 000116   200006 631500                    EPPR1   LOC$,,AUTO
         1 000117   200020 451500                    STP1    FLAGS+1,,AUTO
         1 000120   200020 630500                    EPPR0   FLAGS+1,,AUTO
         1 000121   000020 631400 xsym               EPPR1   B_VECTNIL+16
         1 000122   000000 701000 xent               TSX1    FMO$LOCCODE
         1 000123   000333 702000 1                  TSX2    OTHEROK

     2751     2142    1      I=FM$FIT.CODES.NDW(I)*4;

   2142  1 000124   200004 470500                    LDP0    @FM$FIT,,AUTO
         1 000125   200010 720100                    LXL0    I,,AUTO
         1 000126   000000 236110                    LDQ     0,X0,PR0
         1 000127   000010 772000                    QRL     8
         1 000130   007774 376007                    ANQ     4092,DL
         1 000131   200010 756100                    STQ     I,,AUTO

     2752     2143    1      CFU$=ADDR(NIL);

   2143  1 000132   000001 236000 xsym               LDQ     B_VECTNIL+1
         1 000133   200007 756100                    STQ     CFU$,,AUTO

     2753     2144    1      M.CM=F$DCB.FDCM;

   2144  1 000134   200005 471500                    LDP1    JDCB$,,AUTO
         1 000135   100073 236100                    LDQ     59,,PR1
         1 000136   000777 376007                    ANQ     511,DL
PL6.E3A0      #007=FMO$SECCHK File=FMO$OBSE.:E05TSI                              TUE 07/29/97 16:58 Page:531
         1 000137   200015 756100                    STQ     M,,AUTO

     2754     2145    2      DO WHILE (I>9);

   2145  1 000140   200010 235100                    LDA     I,,AUTO
         1 000141   000012 115007                    CMPA    10,DL
         1 000142   000321 602000 1                  TNC     s:2233

     2755     2146        %LIST;
     2756     2147              %WILD_COMPARE(COMP_COUNT=M.C,
     2757     2148              WILD_CHARS=CODE09.ACCT,
     2758     2149              WILD_X=J,
     2759     2150              WILD_XP=JP,
     2760     2151              COMPARE_CHARS=B$JIT.ACCN,
     2761     2152              COMPARE_X=K,
     2762     2153              COMPARE_XP=KP,
     2763     2154              NO_MATCH=GOTO NOMATCH);
              2155        %LSET LISTDIR='0'B;
              2172    2           WILD_XC=CODE09.ACCT;

   2172  1 000143   200006 470500                    LDP0    LOC$,,AUTO
         1 000144   040100 100500                    MLR     fill='040'O
         1 000145   000000 400004                    ADSC9   0,,PR0                   cn=2,n=4
         1 000146   200011 000004                    ADSC9   J,,AUTO                  cn=0,n=4

              2173    3           IF (BINBIT(J,36)&'737737737777'O)='101114114040'O THEN DO;

   2173  1 000147   200011 236100                    LDQ     J,,AUTO
         1 000150   000010 376000 0                  ANQ     SYSACCT+2
         1 000151   000011 116000 0                  CMPQ    SYSACCT+3
         1 000152   000160 601000 1                  TNZ     s:2187

              2174    3              J=3;

   2174  1 000153   000003 235007                    LDA     3,DL
         1 000154   200011 755100                    STA     J,,AUTO

PL6.E3A0      #007=FMO$SECCHK File=FMO$OBSE.:E05TSI                              TUE 07/29/97 16:58 Page:532
              2175    3              JP=2;

   2175  1 000155   000002 236007                    LDQ     2,DL
         1 000156   200013 756100                    STQ     JP,,AUTO

              2176    3              END;

   2176  1 000157   000163 710000 1                  TRA     s:2190

              2186    3           ELSE DO;

              2187    3              J=0;

   2187  1 000160   200011 450100                    STZ     J,,AUTO

              2188    3              JP=SIZEC(CODE09.ACCT);

   2188  1 000161   000010 235007                    LDA     8,DL
         1 000162   200013 755100                    STA     JP,,AUTO

              2189    3              END;

              2190    2           K=0;

   2190  1 000163   200012 450100                    STZ     K,,AUTO

              2191    2           KP=0;

   2191  1 000164   200014 450100                    STZ     KP,,AUTO

              2193    2           M.C=0;

   2193  1 000165   200016 450100                    STZ     M+1,,AUTO

              2195    3           DO WHILE(J<SIZEC(CODE09.ACCT) AND SUBSTR(CODE09.ACCT,J,1)~=' '

   2195  1 000166   000254 710000 1                  TRA     s:2220
PL6.E3A0      #007=FMO$SECCHK File=FMO$OBSE.:E05TSI                              TUE 07/29/97 16:58 Page:533

              2196    3             OR K<SIZEC(B$JIT.ACCN) AND SUBSTR(B$JIT.ACCN,K,1)~=' ');
              2197    4              IF J<SIZEC(CODE09.ACCT) AND SUBSTR(CODE09.ACCT,J,1)='?' THEN DO;

   2197  1 000167   200011 235100                    LDA     J,,AUTO
         1 000170   000010 115007                    CMPA    8,DL
         1 000171   000201 603000 1                  TRC     s:2201
         1 000172   200006 470500                    LDP0    LOC$,,AUTO
         1 000173   040000 106505                    CMPC    fill='040'O
         1 000174   000000 400001                    ADSC9   0,A,PR0                  cn=2,n=1
         1 000175   000001 000001 2                  ADSC9   1                        cn=0,n=1
         1 000176   000201 601000 1                  TNZ     s:2201

              2198    4                 JP=J;

   2198  1 000177   200013 755100                    STA     JP,,AUTO

              2199    4                 END;

   2199  1 000200   000247 710000 1                  TRA     s:2219

              2200    4              ELSE DO;

              2201    4                 IF J=JP+1 THEN KP=K;

   2201  1 000201   200013 236100                    LDQ     JP,,AUTO
         1 000202   000001 036007                    ADLQ    1,DL
         1 000203   200011 116100                    CMPQ    J,,AUTO
         1 000204   000207 601000 1                  TNZ     s:2202

   2201  1 000205   200012 235100                    LDA     K,,AUTO
         1 000206   200014 755100                    STA     KP,,AUTO

              2202    4                 IF J>=SIZEC(CODE09.ACCT)

   2202  1 000207   200011 235100                    LDA     J,,AUTO
         1 000210   000010 115007                    CMPA    8,DL
PL6.E3A0      #007=FMO$SECCHK File=FMO$OBSE.:E05TSI                              TUE 07/29/97 16:58 Page:534
         1 000211   000225 603000 1                  TRC     s:2206
         1 000212   200012 235100                    LDA     K,,AUTO
         1 000213   000010 115007                    CMPA    8,DL
         1 000214   000225 603000 1                  TRC     s:2206
         1 000215   200006 470500                    LDP0    LOC$,,AUTO
         1 000216   200011 235100                    LDA     J,,AUTO
         1 000217   000000 471400 xsym               LDP1    B$JIT$
         1 000220   200012 236100                    LDQ     K,,AUTO
         1 000221   040106 106505                    CMPC    fill='040'O
         1 000222   000000 400001                    ADSC9   0,A,PR0                  cn=2,n=1
         1 000223   100001 000001                    ADSC9   1,Q,PR1                  cn=0,n=1
         1 000224   000243 600000 1                  TZE     s:2215

              2203    4                   OR K>=SIZEC(B$JIT.ACCN)
              2204    4                   OR SUBSTR(CODE09.ACCT,J,1) ~=
              2205    5                   SUBSTR(B$JIT.ACCN,K,1) THEN DO;

              2206    5                    IF JP=SIZEC(CODE09.ACCT) OR KP=SIZEC(B$JIT.ACCN)

   2206  1 000225   200013 235100                    LDA     JP,,AUTO
         1 000226   000010 115007                    CMPA    8,DL
         1 000227   000311 600000 1                  TZE     NOMATCH
         1 000230   200014 236100                    LDQ     KP,,AUTO
         1 000231   000010 116007                    CMPQ    8,DL
         1 000232   000311 600000 1                  TZE     NOMATCH

              2207    5                    THEN GOTO NOMATCH;
              2208    5                    J=JP;

   2208  1 000233   200011 755100                    STA     J,,AUTO

              2210    5                    M.C=M.C-K+KP;

   2210  1 000234   200016 236100                    LDQ     M+1,,AUTO
         1 000235   200012 136100                    SBLQ    K,,AUTO
         1 000236   200014 036100                    ADLQ    KP,,AUTO
         1 000237   200016 756100                    STQ     M+1,,AUTO
PL6.E3A0      #007=FMO$SECCHK File=FMO$OBSE.:E05TSI                              TUE 07/29/97 16:58 Page:535

              2212    5                    K=KP;

   2212  1 000240   200014 235100                    LDA     KP,,AUTO
         1 000241   200012 755100                    STA     K,,AUTO

              2213    5                    END;

   2213  1 000242   000244 710000 1                  TRA     s:2217

              2215    4                 ELSE M.C=M.C+1;

   2215  1 000243   200016 054100                    AOS     M+1,,AUTO

              2217    4                 K=K+1;

   2217  1 000244   200012 235100                    LDA     K,,AUTO
         1 000245   000001 035007                    ADLA    1,DL
         1 000246   200012 755100                    STA     K,,AUTO

              2218    4                 END;

              2219    3              IF J<SIZEC(CODE09.ACCT) THEN J=J+1;

   2219  1 000247   200011 235100                    LDA     J,,AUTO
         1 000250   000010 115007                    CMPA    8,DL
         1 000251   000254 603000 1                  TRC     s:2220

   2219  1 000252   000001 035007                    ADLA    1,DL
         1 000253   200011 755100                    STA     J,,AUTO

              2220    3   END;

   2220  1 000254   200011 235100                    LDA     J,,AUTO
         1 000255   000010 115007                    CMPA    8,DL
         1 000256   000264 603000 1                  TRC     s:2220+8
         1 000257   200006 470500                    LDP0    LOC$,,AUTO
PL6.E3A0      #007=FMO$SECCHK File=FMO$OBSE.:E05TSI                              TUE 07/29/97 16:58 Page:536
         1 000260   040000 106505                    CMPC    fill='040'O
         1 000261   000000 400001                    ADSC9   0,A,PR0                  cn=2,n=1
         1 000262   000035 000001 xsym               ADSC9   B_VECTNIL+29             cn=0,n=1
         1 000263   000167 601000 1                  TNZ     s:2197
         1 000264   200012 236100                    LDQ     K,,AUTO
         1 000265   000010 116007                    CMPQ    8,DL
         1 000266   000274 603000 1                  TRC     s:2222
         1 000267   000000 470400 xsym               LDP0    B$JIT$
         1 000270   040000 106506                    CMPC    fill='040'O
         1 000271   000001 000001                    ADSC9   1,Q,PR0                  cn=0,n=1
         1 000272   000035 000001 xsym               ADSC9   B_VECTNIL+29             cn=0,n=1
         1 000273   000167 601000 1                  TNZ     s:2197

              2222    2           IF JP=SIZEC(CODE09.ACCT) THEN M.C=SIZEC(CODE09.ACCT);

   2222  1 000274   200013 235100                    LDA     JP,,AUTO
         1 000275   000010 115007                    CMPA    8,DL
         1 000276   000301 601000 1                  TNZ     s:2225

   2222  1 000277   000010 235007                    LDA     8,DL
         1 000300   200016 755100                    STA     M+1,,AUTO

     2764     2225    3         IF M.C>=M.CM THEN DO;

   2225  1 000301   200016 236100                    LDQ     M+1,,AUTO
         1 000302   000311 604000 1                  TMI     NOMATCH
         1 000303   200015 116100                    CMPQ    M,,AUTO
         1 000304   000311 602000 1                  TNC     NOMATCH

     2765     2226    3            CFU$=LOC$;

   2226  1 000305   200006 236100                    LDQ     LOC$,,AUTO
         1 000306   200007 756100                    STQ     CFU$,,AUTO

     2766     2227    3            M.CM=M.C;

   2227  1 000307   200016 235100                    LDA     M+1,,AUTO
PL6.E3A0      #007=FMO$SECCHK File=FMO$OBSE.:E05TSI                              TUE 07/29/97 16:58 Page:537
         1 000310   200015 755100                    STA     M,,AUTO

     2767     2228    3            END;

   2225  1 000311                       NOMATCH      null
     2768     2229    2   NOMATCH:;
     2769     2230    2         LOC$=PINCRC(LOC$,10);

   2230  1 000311   200006 236100                    LDQ     LOC$,,AUTO
         1 000312   000002 036000 2                  ADLQ    2
         1 000313   200006 756100                    STQ     LOC$,,AUTO

     2770     2231    2         I=I-10;

   2231  1 000314   200010 235100                    LDA     I,,AUTO
         1 000315   000012 135007                    SBLA    10,DL
         1 000316   200010 755100                    STA     I,,AUTO

     2771     2232    2         END;

   2232  1 000317   000012 115007                    CMPA    10,DL
         1 000320   000143 603000 1                  TRC     s:2172

     2772     2233    1      IF CFU$~=ADDR(NIL) THEN FLAGS=CFU$->CODE09.FFLG;

   2233  1 000321   200007 236100                    LDQ     CFU$,,AUTO
         1 000322   000001 116000 xsym               CMPQ    B_VECTNIL+1
         1 000323   000330 600000 1                  TZE     s:2234

   2233  1 000324   200007 470500                    LDP0    CFU$,,AUTO
         1 000325   000100 100500                    MLR     fill='000'O
         1 000326   000000 000002                    ADSC9   0,,PR0                   cn=0,n=2
         1 000327   200017 000004                    ADSC9   FLAGS,,AUTO              cn=0,n=4

     2773     2234    1      F$DCB.FDCM=M.CM;

   2234  1 000330   200005 470500                    LDP0    JDCB$,,AUTO
PL6.E3A0      #007=FMO$SECCHK File=FMO$OBSE.:E05TSI                              TUE 07/29/97 16:58 Page:538
         1 000331   200015 236100                    LDQ     M,,AUTO
         1 000332   000073 552104                    STBQ    59,'04'O,PR0

   2234  1 000333                       OTHEROK      null
     2774     2235                    /**/
     2775     2236    1   OTHEROK:;
     2776     2237    1      IF ADDR(FDFIT)=ADDR(NIL) THEN GOTO NOPASSWD; /* SECCHKFD - nearly done */

   2237  1 000333   200003 236100                    LDQ     @FDFIT,,AUTO
         1 000334   000001 116000 xsym               CMPQ    B_VECTNIL+1
         1 000335   000740 600000 1                  TZE     NOPASSWD

     2777     2238    1      IF NOT FLAGS.EXEC THEN GOTO OWNEROK; /* MUST WE CHECK FOR VEHICLE */

   2238  1 000336   200017 236100                    LDQ     FLAGS,,AUTO
         1 000337   002000 316003                    CANQ    1024,DU
         1 000340   000712 600000 1                  TZE     OWNEROK

     2778     2239    1      FLAGS.EXEC='0'B; /* FLAGS IF NO MATCH */

   2239  1 000341   000003 236000 2                  LDQ     3
         1 000342   200017 356100                    ANSQ    FLAGS,,AUTO

     2779     2240    1      ACCT$=ADDR(SYSACCT); /* DEFAULT ACCOUNT */

   2240  1 000343   000004 236000 2                  LDQ     4
         1 000344   200014 756100                    STQ     KP,,AUTO

     2780     2241    2      DO CASE (F$DCB.WSR);

   2241  1 000345   200005 470500                    LDP0    JDCB$,,AUTO
         1 000346   000040 220100                    LDX0    32,,PR0
         1 000347   000777 360003                    ANX0    511,DU
         1 000350   000010 100003                    CMPX0   8,DU
         1 000351   000353 602010 1                  TNC     s:2241+6,X0
         1 000352   000447 710000 1                  TRA     s:2260
         1 000353   000363 710000 1                  TRA     s:2243
PL6.E3A0      #007=FMO$SECCHK File=FMO$OBSE.:E05TSI                              TUE 07/29/97 16:58 Page:539
         1 000354   000447 710000 1                  TRA     s:2260
         1 000355   000447 710000 1                  TRA     s:2260
         1 000356   000447 710000 1                  TRA     s:2260
         1 000357   000370 710000 1                  TRA     s:2246
         1 000360   000402 710000 1                  TRA     s:2248
         1 000361   000414 710000 1                  TRA     s:2250
         1 000362   000425 710000 1                  TRA     s:2252

     2781     2242    2      CASE(0); /* MONITOR */

     2782     2243    2         CFU$=ADDR(FETCHVEH); /* MOST LIKELY FETCH */

   2243  1 000363   000005 236000 2                  LDQ     5
         1 000364   200007 756100                    STQ     CFU$,,AUTO

     2783     2244    2         FLAGS=%(FFLG_READ#|FFLG_EXEC#);

   2244  1 000365   402000 236003                    LDQ     -130048,DU
         1 000366   200017 756100                    STQ     FLAGS,,AUTO
         1 000367   000450 710000 1                  TRA     s:2262

     2784     2245    2      CASE(4); /* CP */

     2785     2246    2         CFU$=ADDR(B$P$->B$P.NAME(S$CU$->B$U.ACP));

   2246  1 000370   000000 471400 xsym               LDP1    S$CU$
         1 000371   100006 236100                    LDQ     6,,PR1
         1 000372   000022 772000                    QRL     18
         1 000373   000777 376007                    ANQ     511,DL
         1 000374   000021 402007                    MPY     17,DL
         1 000375   000023 736000                    QLS     19
         1 000376   000032 036003                    ADLQ    26,DU
         1 000377   000000 036000 xsym               ADLQ    B$P$
         1 000400   200007 756100                    STQ     CFU$,,AUTO
         1 000401   000450 710000 1                  TRA     s:2262

     2786     2247    2      CASE(5); /* DB */
PL6.E3A0      #007=FMO$SECCHK File=FMO$OBSE.:E05TSI                              TUE 07/29/97 16:58 Page:540

     2787     2248    2         CFU$=ADDR(B$P$->B$P.NAME(S$CU$->B$U.DB));

   2248  1 000402   000000 471400 xsym               LDP1    S$CU$
         1 000403   100006 236100                    LDQ     6,,PR1
         1 000404   000011 772000                    QRL     9
         1 000405   000777 376007                    ANQ     511,DL
         1 000406   000021 402007                    MPY     17,DL
         1 000407   000023 736000                    QLS     19
         1 000410   000032 036003                    ADLQ    26,DU
         1 000411   000000 036000 xsym               ADLQ    B$P$
         1 000412   200007 756100                    STQ     CFU$,,AUTO
         1 000413   000450 710000 1                  TRA     s:2262

     2788     2249    2      CASE(6); /* ASL */

     2789     2250    2         CFU$=ADDR(B$P$->B$P.NAME(S$CU$->B$U.ASL));

   2250  1 000414   000000 471400 xsym               LDP1    S$CU$
         1 000415   100006 236100                    LDQ     6,,PR1
         1 000416   000777 376007                    ANQ     511,DL
         1 000417   000021 402007                    MPY     17,DL
         1 000420   000023 736000                    QLS     19
         1 000421   000032 036003                    ADLQ    26,DU
         1 000422   000000 036000 xsym               ADLQ    B$P$
         1 000423   200007 756100                    STQ     CFU$,,AUTO
         1 000424   000450 710000 1                  TRA     s:2262

     2790     2251    2      CASE(7); /* USER */

     2791     2252    2         IF DCBADDR(2)->F$DCB.WSR=0 AND DCBADDR(2)->F$DCB.FCD

   2252  1 000425   000006 471400 2                  LDP1    6
         1 000426   100000 473500                    LDP3    0,,PR1
         1 000427   300002 474500                    LDP4    2,,PR3
         1 000430   400040 236100                    LDQ     32,,PR4
         1 000431   000777 316003                    CANQ    511,DU
PL6.E3A0      #007=FMO$SECCHK File=FMO$OBSE.:E05TSI                              TUE 07/29/97 16:58 Page:541
         1 000432   000712 601000 1                  TNZ     OWNEROK
         1 000433   400031 236100                    LDQ     25,,PR4
         1 000434   020000 316007                    CANQ    8192,DL
         1 000435   000712 600000 1                  TZE     OWNEROK
         1 000436   040000 106500                    CMPC    fill='040'O
         1 000437   400024 000006                    ADSC9   20,,PR4                  cn=0,n=6
         1 000440   000035 000001 xsym               ADSC9   B_VECTNIL+29             cn=0,n=1
         1 000441   000712 601000 1                  TNZ     OWNEROK

     2792     2253    2           AND DCBADDR(2)->F$DCB.PSN=' '
     2793     2254    3         THEN DO;

     2794     2255    3            CFU$=ADDR(DCBADDR(2)->F$DCB.NAME);

   2255  1 000442   400010 635500                    EPPR5   8,,PR4
         1 000443   200007 455500                    STP5    CFU$,,AUTO

     2795     2256    3            ACCT$=ADDR(DCBADDR(2)->F$DCB.ACCT);

   2256  1 000444   400020 636500                    EPPR6   16,,PR4
         1 000445   200014 456500                    STP6    KP,,AUTO

     2796     2257    3            END;

   2257  1 000446   000450 710000 1                  TRA     s:2262

     2797     2258    2         ELSE GOTO OWNEROK; /* USE WHAT'S HERE */
     2798     2259    2      CASE(ELSE);

     2799     2260    2         GOTO OWNEROK;

   2260  1 000447   000712 710000 1                  TRA     OWNEROK

     2800     2261    2      END;

     2801     2262    1      I=10;

PL6.E3A0      #007=FMO$SECCHK File=FMO$OBSE.:E05TSI                              TUE 07/29/97 16:58 Page:542
   2262  1 000450   000012 235007                    LDA     10,DL
         1 000451   200010 755100                    STA     I,,AUTO

     2802     2263    1      LOC$=ADDR(FM$FIT);

   2263  1 000452   200004 236100                    LDQ     @FM$FIT,,AUTO
         1 000453   200006 756100                    STQ     LOC$,,AUTO

     2803     2264    1      CALL FMO$LOCCODE(LOC$,I)ALTRET(OWNEROK);

   2264  1 000454   200010 631500                    EPPR1   I,,AUTO
         1 000455   200021 451500                    STP1    FLAGS+2,,AUTO
         1 000456   200006 633500                    EPPR3   LOC$,,AUTO
         1 000457   200020 453500                    STP3    FLAGS+1,,AUTO
         1 000460   200020 630500                    EPPR0   FLAGS+1,,AUTO
         1 000461   000020 631400 xsym               EPPR1   B_VECTNIL+16
         1 000462   000000 701000 xent               TSX1    FMO$LOCCODE
         1 000463   000712 702000 1                  TSX2    OWNEROK

     2804     2265    1      K=0;

   2265  1 000464   200012 450100                    STZ     K,,AUTO

     2805     2266    1      I=FM$FIT.CODES.NDW(I)*4;

   2266  1 000465   200004 470500                    LDP0    @FM$FIT,,AUTO
         1 000466   200010 720100                    LXL0    I,,AUTO
         1 000467   000000 236110                    LDQ     0,X0,PR0
         1 000470   000010 772000                    QRL     8
         1 000471   007774 376007                    ANQ     4092,DL
         1 000472   200010 756100                    STQ     I,,AUTO

     2806     2267    2      DO WHILE(I>=SIZEC(CODE10));

   2267  1 000473   000677 710000 1                  TRA     s:2288

     2807     2268    2         I=I-SIZEC(CODE10);
PL6.E3A0      #007=FMO$SECCHK File=FMO$OBSE.:E05TSI                              TUE 07/29/97 16:58 Page:543

   2268  1 000474   200006 470500                    LDP0    LOC$,,AUTO
         1 000475   000100 101500                    MRL     fill='000'O
         1 000476   000000 400001                    ADSC9   0,,PR0                   cn=2,n=1
         1 000477   200020 000002                    ADSC9   FLAGS+1,,AUTO            cn=0,n=2
         1 000500   200020 220100                    LDX0    FLAGS+1,,AUTO
         1 000501   000003 621010                    EAX1    3,X0
         1 000502   000000 635011                    EAA     0,X1
         1 000503   000022 771000                    ARL     18
         1 000504   200021 755100                    STA     FLAGS+2,,AUTO
         1 000505   200010 236100                    LDQ     I,,AUTO
         1 000506   200021 136100                    SBLQ    FLAGS+2,,AUTO
         1 000507   200010 756100                    STQ     I,,AUTO

     2808     2269    2         CALL INDEX1(J,'.',CODE10.ACSVEH.T);

   2269  1 000510   000100 101500                    MRL     fill='000'O
         1 000511   000000 400001                    ADSC9   0,,PR0                   cn=2,n=1
         1 000512   200020 000002                    ADSC9   FLAGS+1,,AUTO            cn=0,n=2
         1 000513   200020 220100                    LDX0    FLAGS+1,,AUTO
         1 000514   000000 124540                    SCM     mask='000'O
         1 000515   000000 600010                    ADSC9   0,,PR0                   cn=3,n=*X0
         1 000516   000007 000001 2                  ADSC9   7                        cn=0,n=1
         1 000517   200011 000100                    ARG     J,,AUTO

     2809     2270    2         IF J=CODE10.ACSVEH.C THEN TACCT=SYSACCT;

   2270  1 000520   000100 101500                    MRL     fill='000'O
         1 000521   000000 400001                    ADSC9   0,,PR0                   cn=2,n=1
         1 000522   200020 000004                    ADSC9   FLAGS+1,,AUTO            cn=0,n=4
         1 000523   200020 236100                    LDQ     FLAGS+1,,AUTO
         1 000524   200011 116100                    CMPQ    J,,AUTO
         1 000525   000532 601000 1                  TNZ     s:2271

   2270  1 000526   000006 237000 0                  LDAQ    SYSACCT
         1 000527   200015 755100                    STA     M,,AUTO
         1 000530   200016 756100                    STQ     M+1,,AUTO
PL6.E3A0      #007=FMO$SECCHK File=FMO$OBSE.:E05TSI                              TUE 07/29/97 16:58 Page:544
         1 000531   000563 710000 1                  TRA     s:2273

     2810     2271    2         ELSE IF J=CODE10.ACSVEH.C-1 THEN TACCT=F$DCB.ACCT;

   2271  1 000532   000100 101500                    MRL     fill='000'O
         1 000533   000000 400001                    ADSC9   0,,PR0                   cn=2,n=1
         1 000534   200020 000004                    ADSC9   FLAGS+1,,AUTO            cn=0,n=4
         1 000535   200020 236100                    LDQ     FLAGS+1,,AUTO
         1 000536   000001 136007                    SBLQ    1,DL
         1 000537   000547 604000 1                  TMI     s:2272
         1 000540   200011 116100                    CMPQ    J,,AUTO
         1 000541   000547 601000 1                  TNZ     s:2272

   2271  1 000542   200005 471500                    LDP1    JDCB$,,AUTO
         1 000543   100020 237100                    LDAQ    16,,PR1
         1 000544   200015 755100                    STA     M,,AUTO
         1 000545   200016 756100                    STQ     M+1,,AUTO
         1 000546   000563 710000 1                  TRA     s:2273

     2811     2272    2            ELSE TACCT=SUBSTR(CODE10.ACSVEH.T,J+1);

   2272  1 000547   000100 101500                    MRL     fill='000'O
         1 000550   000000 400001                    ADSC9   0,,PR0                   cn=2,n=1
         1 000551   200020 000002                    ADSC9   FLAGS+1,,AUTO            cn=0,n=2
         1 000552   200020 220100                    LDX0    FLAGS+1,,AUTO
         1 000553   000000 636010                    EAQ     0,X0
         1 000554   000022 772000                    QRL     18
         1 000555   200011 136100                    SBLQ    J,,AUTO
         1 000556   777777 621006                    EAX1    -1,QL
         1 000557   200011 235100                    LDA     J,,AUTO
         1 000560   040100 100545                    MLR     fill='040'O
         1 000561   000001 000011                    ADSC9   1,A,PR0                  cn=0,n=*X1
         1 000562   200015 000010                    ADSC9   M,,AUTO                  cn=0,n=8

     2812     2273    2         IF TACCT=ACCT$->BACCT

   2273  1 000563   200014 471500                    LDP1    KP,,AUTO
PL6.E3A0      #007=FMO$SECCHK File=FMO$OBSE.:E05TSI                              TUE 07/29/97 16:58 Page:545
         1 000564   040100 106500                    CMPC    fill='040'O
         1 000565   200015 000010                    ADSC9   M,,AUTO                  cn=0,n=8
         1 000566   100000 000010                    ADSC9   0,,PR1                   cn=0,n=8
         1 000567   000666 601000 1                  TNZ     s:2287

     2813     2274    3         THEN IF SUBSTR(CODE10.ACSVEH.T,0,J)=CFU$->BACSVEH.C THEN DO;

   2274  1 000570   000100 101500                    MRL     fill='000'O
         1 000571   000000 400001                    ADSC9   0,,PR0                   cn=2,n=1
         1 000572   200020 000002                    ADSC9   FLAGS+1,,AUTO            cn=0,n=2
         1 000573   200020 220100                    LDX0    FLAGS+1,,AUTO
         1 000574   200007 473500                    LDP3    CFU$,,AUTO
         1 000575   000100 101500                    MRL     fill='000'O
         1 000576   300000 000001                    ADSC9   0,,PR3                   cn=0,n=1
         1 000577   200021 000002                    ADSC9   FLAGS+2,,AUTO            cn=0,n=2
         1 000600   200021 221100                    LDX1    FLAGS+2,,AUTO
         1 000601   200011 722100                    LXL2    J,,AUTO
         1 000602   040140 106540                    CMPC    fill='040'O
         1 000603   000000 600012                    ADSC9   0,,PR0                   cn=3,n=*X2
         1 000604   300000 200011                    ADSC9   0,,PR3                   cn=1,n=*X1
         1 000605   000624 601000 1                  TNZ     s:2281

   2272  1 000606                       GOTONE       null
     2814     2275    3   GOTONE:     ;
     2815     2276    3               K=J;

   2276  1 000606   200011 235100                    LDA     J,,AUTO
         1 000607   200012 755100                    STA     K,,AUTO

     2816     2277    3               FLAGS=CODE10.FFLG;

   2277  1 000610   200006 470500                    LDP0    LOC$,,AUTO
         1 000611   000100 100500                    MLR     fill='000'O
         1 000612   000000 000002                    ADSC9   0,,PR0                   cn=0,n=2
         1 000613   200017 000004                    ADSC9   FLAGS,,AUTO              cn=0,n=4

     2817     2278    3               IF FLAGS&~%FFLG_EXEC# THEN FLAGS.EXEC='1'B;
PL6.E3A0      #007=FMO$SECCHK File=FMO$OBSE.:E05TSI                              TUE 07/29/97 16:58 Page:546

   2278  1 000614   200017 236100                    LDQ     FLAGS,,AUTO
         1 000615   775777 376003                    ANQ     -1025,DU
         1 000616   000622 600000 1                  TZE     s:2279

   2278  1 000617   002000 236003                    LDQ     1024,DU
         1 000620   200017 256100                    ORSQ    FLAGS,,AUTO
         1 000621   000666 710000 1                  TRA     s:2287

     2818     2279    3               ELSE FLAGS='0'B;

   2279  1 000622   200017 450100                    STZ     FLAGS,,AUTO

     2819     2280    3               END;

   2280  1 000623   000666 710000 1                  TRA     s:2287

     2820     2281    3            ELSE IF J>K THEN DO;

   2281  1 000624   200012 236100                    LDQ     K,,AUTO
         1 000625   200011 116100                    CMPQ    J,,AUTO
         1 000626   000666 603000 1                  TRC     s:2287

     2821     2282    3                  J=J-1;

   2282  1 000627   200011 235100                    LDA     J,,AUTO
         1 000630   000001 135007                    SBLA    1,DL
         1 000631   200011 755100                    STA     J,,AUTO

     2822     2283    3                  IF SUBSTR(CODE10.ACSVEH.T,J,1)='?' AND J<=CFU$->BACSVEH.L

   2283  1 000632   000100 101500                    MRL     fill='000'O
         1 000633   000000 400001                    ADSC9   0,,PR0                   cn=2,n=1
         1 000634   200020 000002                    ADSC9   FLAGS+1,,AUTO            cn=0,n=2
         1 000635   200020 220100                    LDX0    FLAGS+1,,AUTO
         1 000636   040000 106505                    CMPC    fill='040'O
         1 000637   000000 600001                    ADSC9   0,A,PR0                  cn=3,n=1
PL6.E3A0      #007=FMO$SECCHK File=FMO$OBSE.:E05TSI                              TUE 07/29/97 16:58 Page:547
         1 000640   000001 000001 2                  ADSC9   1                        cn=0,n=1
         1 000641   000666 601000 1                  TNZ     s:2287
         1 000642   000100 101500                    MRL     fill='000'O
         1 000643   300000 000001                    ADSC9   0,,PR3                   cn=0,n=1
         1 000644   200021 000004                    ADSC9   FLAGS+2,,AUTO            cn=0,n=4
         1 000645   200021 236100                    LDQ     FLAGS+2,,AUTO
         1 000646   200011 116100                    CMPQ    J,,AUTO
         1 000647   000666 602000 1                  TNC     s:2287
         1 000650   000100 101500                    MRL     fill='000'O
         1 000651   000000 400001                    ADSC9   0,,PR0                   cn=2,n=1
         1 000652   200022 000002                    ADSC9   FLAGS+3,,AUTO            cn=0,n=2
         1 000653   200022 221100                    LDX1    FLAGS+3,,AUTO
         1 000654   000100 101500                    MRL     fill='000'O
         1 000655   300000 000001                    ADSC9   0,,PR3                   cn=0,n=1
         1 000656   200023 000002                    ADSC9   FLAGS+4,,AUTO            cn=0,n=2
         1 000657   200023 222100                    LDX2    FLAGS+4,,AUTO
         1 000660   000000 623005                    EAX3    0,AL
         1 000661   200011 724100                    LXL4    J,,AUTO
         1 000662   040140 106540                    CMPC    fill='040'O
         1 000663   000000 600013                    ADSC9   0,,PR0                   cn=3,n=*X3
         1 000664   300000 200014                    ADSC9   0,,PR3                   cn=1,n=*X4
         1 000665   000606 600000 1                  TZE     GOTONE

     2823     2284    3                    AND SUBSTR(CODE10.ACSVEH.T,0,J)=SUBSTR(CFU$->BACSVEH.C,0,J)
     2824     2285    3                  THEN GOTO GOTONE;
     2825     2286    3                  END;

     2826     2287    2         LOC$=PINCRC(LOC$,SIZEC(CODE10));

   2287  1 000666   000100 101500                    MRL     fill='000'O
         1 000667   000000 400001                    ADSC9   0,,PR0                   cn=2,n=1
         1 000670   200020 000002                    ADSC9   FLAGS+1,,AUTO            cn=0,n=2
         1 000671   200020 220100                    LDX0    FLAGS+1,,AUTO
         1 000672   000003 621010                    EAX1    3,X0
         1 000673   000000 636011                    EAQ     0,X1
         1 000674   000002 772000                    QRL     2
         1 000675   200006 036100                    ADLQ    LOC$,,AUTO
PL6.E3A0      #007=FMO$SECCHK File=FMO$OBSE.:E05TSI                              TUE 07/29/97 16:58 Page:548
         1 000676   200006 756100                    STQ     LOC$,,AUTO

     2827     2288    2         END;

   2288  1 000677   200006 470500                    LDP0    LOC$,,AUTO
         1 000700   000100 101500                    MRL     fill='000'O
         1 000701   000000 400001                    ADSC9   0,,PR0                   cn=2,n=1
         1 000702   200020 000002                    ADSC9   FLAGS+1,,AUTO            cn=0,n=2
         1 000703   200020 220100                    LDX0    FLAGS+1,,AUTO
         1 000704   000003 621010                    EAX1    3,X0
         1 000705   000000 636011                    EAQ     0,X1
         1 000706   000022 772000                    QRL     18
         1 000707   200010 116100                    CMPQ    I,,AUTO
         1 000710   000474 602000 1                  TNC     s:2268
         1 000711   000474 600000 1                  TZE     s:2268

   2287  1 000712                       OWNEROK      null
     2828     2289        %EJECT;
PL6.E3A0      #007=FMO$SECCHK File=FMO$OBSE.:E05TSI                              TUE 07/29/97 16:58 Page:549
     2829     2290    1   OWNEROK:;
     2830     2291    1      LOC$=ADDR(FM$FIT);

   2291  1 000712   200004 236100                    LDQ     @FM$FIT,,AUTO
         1 000713   200006 756100                    STQ     LOC$,,AUTO

     2831     2292    1      CALL FMO$LOCCODT(LOC$,7)ALTRET(NOPASSWD);

   2292  1 000714   000010 236000 2                  LDQ     8
         1 000715   200021 756100                    STQ     FLAGS+2,,AUTO
         1 000716   200006 630500                    EPPR0   LOC$,,AUTO
         1 000717   200020 450500                    STP0    FLAGS+1,,AUTO
         1 000720   200020 630500                    EPPR0   FLAGS+1,,AUTO
         1 000721   000020 631400 xsym               EPPR1   B_VECTNIL+16
         1 000722   000000 701000 xent               TSX1    FMO$LOCCODT
         1 000723   000740 702000 1                  TSX2    NOPASSWD

     2832     2293    1      IF NOT F$DCB.PASSF OR F$DCB.PASS~=CODE07.PASS

   2293  1 000724   200005 470500                    LDP0    JDCB$,,AUTO
         1 000725   000031 236100                    LDQ     25,,PR0
         1 000726   400000 316007                    CANQ    -131072,DL
         1 000727   000735 600000 1                  TZE     s:2294
         1 000730   200006 471500                    LDP1    LOC$,,AUTO
         1 000731   040100 106500                    CMPC    fill='040'O
         1 000732   000022 000010                    ADSC9   18,,PR0                  cn=0,n=8
         1 000733   100000 000010                    ADSC9   0,,PR1                   cn=0,n=8
         1 000734   000740 600000 1                  TZE     NOPASSWD

     2833     2294    1      THEN FLAGS=FLAGS&%FFLG_NOLIST#;

   2294  1 000735   200017 236100                    LDQ     FLAGS,,AUTO
         1 000736   010000 376003                    ANQ     4096,DU
         1 000737   200017 756100                    STQ     FLAGS,,AUTO

   2293  1 000740                       NOPASSWD     null
     2834     2295                    /*E*     ERROR: -E$NOACCESS-E
PL6.E3A0      #007=FMO$SECCHK File=FMO$OBSE.:E05TSI                              TUE 07/29/97 16:58 Page:550
     2835     2296                    *        MESSAGE:Access denied% to %UF% %through %DC%
     2836     2297                    */
     2837     2298    1   NOPASSWD:;
     2838     2299    1      F$DCB.AUTHFFLG=FLAGS;

   2299  1 000740   200017 220100                    LDX0    FLAGS,,AUTO
         1 000741   200005 470500                    LDP0    JDCB$,,AUTO
         1 000742   000057 440100                    SXL0    47,,PR0

     2839     2300    2      DO;

     2840     2301    2         IF F$DCB.WSR=1 THEN F$DCB.OWNER='0'B;

   2301  1 000743   000040 236100                    LDQ     32,,PR0
         1 000744   000777 376003                    ANQ     511,DU
         1 000745   000001 116003                    CMPQ    1,DU
         1 000746   000752 601000 1                  TNZ     s:2302

   2301  1 000747   000000 236000 2                  LDQ     0
         1 000750   000064 356100                    ANSQ    52,,PR0
         1 000751   000764 710000 1                  TRA     s:2304

     2841     2302    2         ELSE IF NOT B$JIT.PRIV.ACTIVE.FMSEC THEN EXIT;

   2302  1 000752   000000 471400 xsym               LDP1    B$JIT$
         1 000753   100013 236100                    LDQ     11,,PR1
         1 000754   100000 316003                    CANQ    32768,DU
         1 000755   000766 600000 1                  TZE     s:2306

     2842     2303    2            ELSE IF (FLAGS&%FFLG_WRITE#)~=%FFLG_WRITE# THEN F$DCB.PRIVOPN='1'B;

   2303  1 000756   200017 236100                    LDQ     FLAGS,,AUTO
         1 000757   765000 376003                    ANQ     -5632,DU
         1 000760   765000 116003                    CMPQ    -5632,DU
         1 000761   000764 600000 1                  TZE     s:2304

   2303  1 000762   200000 236003                    LDQ     65536,DU
PL6.E3A0      #007=FMO$SECCHK File=FMO$OBSE.:E05TSI                              TUE 07/29/97 16:58 Page:551
         1 000763   000102 256100                    ORSQ    66,,PR0

     2843     2304    2         FLAGS=%FFLG_OWNER#;

   2304  1 000764   765700 236003                    LDQ     -5184,DU
         1 000765   200017 756100                    STQ     FLAGS,,AUTO

     2844     2305    2         END;

     2845     2306    1      IF ADDR(FDFIT)=ADDR(NIL) THEN GOTO NOTFILE; /* SECCHKFD - all done */

   2306  1 000766   200003 236100                    LDQ     @FDFIT,,AUTO
         1 000767   000001 116000 xsym               CMPQ    B_VECTNIL+1
         1 000770   001212 600000 1                  TZE     NOTFILE

     2846     2307    1      IF FLAGS.NOLIST AND NOT B$JIT.PRIV.ACTIVE.FMREAD

   2307  1 000771   200017 236100                    LDQ     FLAGS,,AUTO
         1 000772   010000 316003                    CANQ    4096,DU
         1 000773   001000 600000 1                  TZE     s:2309
         1 000774   000000 471400 xsym               LDP1    B$JIT$
         1 000775   100013 236100                    LDQ     11,,PR1
         1 000776   020000 316003                    CANQ    8192,DU
         1 000777   001257 600000 1                  TZE     FMOE$NOFILE

     2847     2308    1      THEN GOTO FMOE$NOFILE;
     2848     2309    1      IF F$DCB.FUN=%IN# THEN FLAGS=FLAGS&%FFLG_INFLGS#;

   2309  1 001000   000032 236100                    LDQ     26,,PR0
         1 001001   000777 376003                    ANQ     511,DU
         1 001002   000002 116003                    CMPQ    2,DU
         1 001003   001007 601000 1                  TNZ     s:2310

   2309  1 001004   200017 236100                    LDQ     FLAGS,,AUTO
         1 001005   422200 376003                    ANQ     -121728,DU
         1 001006   200017 756100                    STQ     FLAGS,,AUTO

PL6.E3A0      #007=FMO$SECCHK File=FMO$OBSE.:E05TSI                              TUE 07/29/97 16:58 Page:552
     2849     2310    1      J=F$DCB.STARX-3; /* 0 AND 1 FOR *A AND *S */

   2310  1 001007   000064 236100                    LDQ     52,,PR0
         1 001010   000011 772000                    QRL     9
         1 001011   000007 376007                    ANQ     7,DL
         1 001012   000003 136007                    SBLQ    3,DL
         1 001013   200011 756100                    STQ     J,,AUTO

     2850     2311    1      IF J<=1 AND F$DCB.WSR>4

   2311  1 001014   000002 116007                    CMPQ    2,DL
         1 001015   001022 603000 1                  TRC     s:2311+6
         1 001016   000040 236100                    LDQ     32,,PR0
         1 001017   000777 376003                    ANQ     511,DU
         1 001020   000005 116003                    CMPQ    5,DU
         1 001021   001031 603000 1                  TRC     s:2313
         1 001022   200011 235100                    LDA     J,,AUTO
         1 001023   000004 115007                    CMPA    4,DL
         1 001024   001036 601000 1                  TNZ     s:2316
         1 001025   000040 236100                    LDQ     32,,PR0
         1 001026   000777 376003                    ANQ     511,DU
         1 001027   000006 116003                    CMPQ    6,DU
         1 001030   001036 600000 1                  TZE     s:2316

     2851     2312    2        OR J=4 AND F$DCB.WSR~=6 THEN DO;

     2852     2313    2         FLAGS=%FFLG_READ#;

   2313  1 001031   400000 236003                    LDQ     -131072,DU
         1 001032   200017 756100                    STQ     FLAGS,,AUTO

     2853     2314    2         F$DCB.AUTHFFLG=%FFLG_READ#;

   2314  1 001033   400000 221003                    LDX1    -131072,DU
         1 001034   000057 441100                    SXL1    47,,PR0

     2854     2315    2         END;
PL6.E3A0      #007=FMO$SECCHK File=FMO$OBSE.:E05TSI                              TUE 07/29/97 16:58 Page:553

   2315  1 001035   001051 710000 1                  TRA     s:2320

     2855     2316    2      ELSE IF J<5 THEN DO;

   2316  1 001036   000005 115007                    CMPA    5,DL
         1 001037   001051 603000 1                  TRC     s:2320

     2856     2317    2            FLAGS=FLAGS|%FFLG_EXEC#;

   2317  1 001040   200017 236100                    LDQ     FLAGS,,AUTO
         1 001041   002000 276003                    ORQ     1024,DU
         1 001042   200017 756100                    STQ     FLAGS,,AUTO

     2857     2318    2            IF F$DCB.WSR=1 THEN F$DCB.WSR=0;/* ALL IO WILL BE M$M... */

   2318  1 001043   000040 236100                    LDQ     32,,PR0
         1 001044   000777 376003                    ANQ     511,DU
         1 001045   000001 116003                    CMPQ    1,DU
         1 001046   001051 601000 1                  TNZ     s:2320

   2318  1 001047   000000 236003                    LDQ     0,DU
         1 001050   000040 552120                    STBQ    32,'20'O,PR0

     2858     2319    2            END;

     2859     2320    1      IF F$DCB.FUN=%CREATE#

   2320  1 001051   000032 236100                    LDQ     26,,PR0
         1 001052   000777 376003                    ANQ     511,DU
         1 001053   000003 116003                    CMPQ    3,DU
         1 001054   001072 601000 1                  TNZ     s:2327

     2860     2321    1      THEN IF F$DCB.EXIST~=%OLDFILE#

   2321  1 001055   000031 236100                    LDQ     25,,PR0
         1 001056   003000 376007                    ANQ     1536,DL
PL6.E3A0      #007=FMO$SECCHK File=FMO$OBSE.:E05TSI                              TUE 07/29/97 16:58 Page:554
         1 001057   002000 116007                    CMPQ    1024,DL
         1 001060   001067 600000 1                  TZE     s:2323
         1 001061   200017 236100                    LDQ     FLAGS,,AUTO
         1 001062   020000 316003                    CANQ    8192,DU
         1 001063   001270 600000 1                  TZE     FMOE$CLSREL
         1 001064   200011 235100                    LDA     J,,AUTO
         1 001065   000005 115007                    CMPA    5,DL
         1 001066   001270 602000 1                  TNC     FMOE$CLSREL

     2861     2322    1           AND (NOT FLAGS.DELF OR J<5) THEN GOTO FMOE$CLSREL;
     2862     2323    1         ELSE IF NOT FLAGS&%FFLG_UPFLGS# THEN GOTO FMOE$NOACCESS;

   2323  1 001067   200017 236100                    LDQ     FLAGS,,AUTO
         1 001070   344500 376003                    ANQ     117056,DU
         1 001071   001253 600000 1                  TZE     FMOE$NOACCESS

     2863     2324                    /*E*     ERROR: FMN-E$CLSREL-E
     2864     2325                    *        MESSAGE:You may not replace file %FN
     2865     2326                    */
     2866     2327    1      I=3;

   2327  1 001072   000003 235007                    LDA     3,DL
         1 001073   200010 755100                    STA     I,,AUTO

     2867     2328    1      LOC$=ADDR(FM$FIT);

   2328  1 001074   200004 236100                    LDQ     @FM$FIT,,AUTO
         1 001075   200006 756100                    STQ     LOC$,,AUTO

     2868     2329    1      CALL FMO$LOCCODE(LOC$,I)ALTRET(NOTFILE);

   2329  1 001076   200010 631500                    EPPR1   I,,AUTO
         1 001077   200021 451500                    STP1    FLAGS+2,,AUTO
         1 001100   200006 633500                    EPPR3   LOC$,,AUTO
         1 001101   200020 453500                    STP3    FLAGS+1,,AUTO
         1 001102   200020 630500                    EPPR0   FLAGS+1,,AUTO
         1 001103   000020 631400 xsym               EPPR1   B_VECTNIL+16
PL6.E3A0      #007=FMO$SECCHK File=FMO$OBSE.:E05TSI                              TUE 07/29/97 16:58 Page:555
         1 001104   000000 701000 xent               TSX1    FMO$LOCCODE
         1 001105   001212 702000 1                  TSX2    NOTFILE

     2869     2330    1      IF (F$DCB.FUN~=%CREATE# OR F$DCB.EXIST=%OLDFILE#)

   2330  1 001106   200005 470500                    LDP0    JDCB$,,AUTO
         1 001107   000032 236100                    LDQ     26,,PR0
         1 001110   000777 376003                    ANQ     511,DU
         1 001111   000003 116003                    CMPQ    3,DU
         1 001112   001117 601000 1                  TNZ     s:2330+9
         1 001113   000031 236100                    LDQ     25,,PR0
         1 001114   003000 376007                    ANQ     1536,DL
         1 001115   002000 116007                    CMPQ    1024,DL
         1 001116   001130 601000 1                  TNZ     s:2335
         1 001117   000032 236100                    LDQ     26,,PR0
         1 001120   777000 376007                    ANQ     -512,DL
         1 001121   002000 116007                    CMPQ    1024,DL
         1 001122   001130 600000 1                  TZE     s:2335

     2870     2331    2        AND F$DCB.ASN~=%TAPE# THEN DO;

     2871     2332    2         F$DCB.TYPE=CODE03.TYPE;

   2332  1 001123   200006 471500                    LDP1    LOC$,,AUTO
         1 001124   100001 720100                    LXL0    1,,PR1
         1 001125   000025 440100                    SXL0    21,,PR0

     2872     2333    2         F$DCB.ORG=CODE03.ORG;

   2333  1 001126   100000 236100                    LDQ     0,,PR1
         1 001127   000032 552140                    STBQ    26,'40'O,PR0

     2873     2334    2         END;

     2874     2335    1      IF CODE03.DESC.ARCHIVE

   2335  1 001130   200006 471500                    LDP1    LOC$,,AUTO
PL6.E3A0      #007=FMO$SECCHK File=FMO$OBSE.:E05TSI                              TUE 07/29/97 16:58 Page:556
         1 001131   100001 430100                    FSZN    1,,PR1
         1 001132   001151 605000 1                  TPL     s:2343

     2875     2336    1      THEN IF F$DCB.FUN=%CREATE# THEN GOTO FMOE$QSTOW;

   2336  1 001133   000032 236100                    LDQ     26,,PR0
         1 001134   000777 376003                    ANQ     511,DU
         1 001135   000003 116003                    CMPQ    3,DU
         1 001136   001264 600000 1                  TZE     FMOE$QSTOW

     2876     2337    1         ELSE IF B$JIT.PRIV.ACTIVE.FMEFT THEN FLAGS=FLAGS&%FFLG_INFLGS#;

   2337  1 001137   000000 473400 xsym               LDP3    B$JIT$
         1 001140   300013 234100                    SZN     11,,PR3
         1 001141   001146 605000 1                  TPL     s:2338

   2337  1 001142   200017 236100                    LDQ     FLAGS,,AUTO
         1 001143   422200 376003                    ANQ     -121728,DU
         1 001144   200017 756100                    STQ     FLAGS,,AUTO
         1 001145   001151 710000 1                  TRA     s:2343

     2877     2338    1            ELSE FLAGS=FLAGS&%(FFLG_INFLGS#&~FFLG_DELF#);

   2338  1 001146   200017 236100                    LDQ     FLAGS,,AUTO
         1 001147   402200 376003                    ANQ     -129920,DU
         1 001150   200017 756100                    STQ     FLAGS,,AUTO

     2878     2339                    /*E*     ERROR: FMN-E$QSTOW-E
     2879     2340                    *        MESSAGE:File% %FN% is read-only because it is archived.
     2880     2341                    *        MESSAGE1:File% %UF% is stowed or waiting to be stowed.
     2881     2342                    */
     2882     2343    1      IF SUBSTR(CODE03.TYPE,0,1)='*' AND F$DCB.WSR~=0

   2343  1 001151   100001 236100                    LDQ     1,,PR1
         1 001152   777000 376007                    ANQ     -512,DL
         1 001153   052000 116007                    CMPQ    21504,DL
         1 001154   001174 601000 1                  TNZ     s:2349
PL6.E3A0      #007=FMO$SECCHK File=FMO$OBSE.:E05TSI                              TUE 07/29/97 16:58 Page:557
         1 001155   000040 236100                    LDQ     32,,PR0
         1 001156   000777 316003                    CANQ    511,DU
         1 001157   001174 600000 1                  TZE     s:2349
         1 001160   000000 473400 xsym               LDP3    B$JIT$
         1 001161   300013 236100                    LDQ     11,,PR3
         1 001162   100000 316003                    CANQ    32768,DU
         1 001163   001174 601000 1                  TNZ     s:2349

     2883     2344    2        AND NOT B$JIT.PRIV.ACTIVE.FMSEC THEN DO;

     2884     2345    2         IF FLAGS.READ THEN FLAGS=FLAGS|%FFLG_AURD#; /* LET LIST WORK */

   2345  1 001164   200017 234100                    SZN     FLAGS,,AUTO
         1 001165   001171 605000 1                  TPL     s:2346

   2345  1 001166   200017 236100                    LDQ     FLAGS,,AUTO
         1 001167   000200 276003                    ORQ     128,DU
         1 001170   200017 756100                    STQ     FLAGS,,AUTO

     2885     2346    2         FLAGS=FLAGS&

   2346  1 001171   200017 236100                    LDQ     FLAGS,,AUTO
         1 001172   027200 376003                    ANQ     11904,DU
         1 001173   200017 756100                    STQ     FLAGS,,AUTO

     2886     2347    2           %(FFLG_DELF#|FFLG_EXEC#|FFLG_CREATE#|FFLG_REATTR#|FFLG_AURD#);
     2887     2348    2         END;

     2888     2349    1      IF CODE03.ORG=%SYMB# THEN FLAGS=FLAGS&~(%FFLG_UPD#|%FFLG_DELR#);

   2349  1 001174   100000 236100                    LDQ     0,,PR1
         1 001175   777000 376003                    ANQ     -512,DU
         1 001176   011000 116003                    CMPQ    4608,DU
         1 001177   001203 601000 1                  TNZ     s:2350

   2349  1 001200   200017 236100                    LDQ     FLAGS,,AUTO
         1 001201   537777 376003                    ANQ     -81921,DU
PL6.E3A0      #007=FMO$SECCHK File=FMO$OBSE.:E05TSI                              TUE 07/29/97 16:58 Page:558
         1 001202   200017 756100                    STQ     FLAGS,,AUTO

     2889     2350    1      IF CODE03.GHSTACS~=0 THEN F$DCB.GHSTACS=CODE03.GHSTACS;

   2350  1 001203   100004 236100                    LDQ     4,,PR1
         1 001204   017000 316003                    CANQ    7680,DU
         1 001205   001212 600000 1                  TZE     NOTFILE

   2350  1 001206   000011 772000                    QRL     9
         1 001207   000052 676100                    ERQ     42,,PR0
         1 001210   000017 376003                    ANQ     15,DU
         1 001211   000052 656100                    ERSQ    42,,PR0

   2350  1 001212                       NOTFILE      null
     2890     2351    1   NOTFILE:;
     2891     2352    2      IF B$JIT.PRIV.ACTIVE.FMREAD AND ADDR(FDFIT)~=ADDR(NIL) THEN DO;

   2352  1 001212   000000 470400 xsym               LDP0    B$JIT$
         1 001213   000013 236100                    LDQ     11,,PR0
         1 001214   020000 316003                    CANQ    8192,DU
         1 001215   001240 600000 1                  TZE     s:2358
         1 001216   200003 236100                    LDQ     @FDFIT,,AUTO
         1 001217   000001 116000 xsym               CMPQ    B_VECTNIL+1
         1 001220   001240 600000 1                  TZE     s:2358

     2892     2353    2         IF F$DCB.STARX~=0 THEN EXIT; /* do nothing for system starfiles */

   2353  1 001221   200005 471500                    LDP1    JDCB$,,AUTO
         1 001222   100064 236100                    LDQ     52,,PR1
         1 001223   007000 316007                    CANQ    3584,DL
         1 001224   001240 601000 1                  TNZ     s:2358

     2893     2354    2         IF FLAGS.EXEC OR NOT FLAGS.READ THEN F$DCB.PRIVOPN='1'B;

   2354  1 001225   200017 236100                    LDQ     FLAGS,,AUTO
         1 001226   002000 316003                    CANQ    1024,DU
         1 001227   001232 601000 1                  TNZ     s:2354+5
PL6.E3A0      #007=FMO$SECCHK File=FMO$OBSE.:E05TSI                              TUE 07/29/97 16:58 Page:559
         1 001230   200017 234100                    SZN     FLAGS,,AUTO
         1 001231   001234 604000 1                  TMI     s:2355

   2354  1 001232   200000 236003                    LDQ     65536,DU
         1 001233   100102 256100                    ORSQ    66,,PR1

     2894     2355    2         FLAGS=FLAGS&~%FFLG_EXEC#|%FFLG_READ#;

   2355  1 001234   200017 236100                    LDQ     FLAGS,,AUTO
         1 001235   775777 376003                    ANQ     -1025,DU
         1 001236   400000 276003                    ORQ     -131072,DU
         1 001237   200017 756100                    STQ     FLAGS,,AUTO

     2895     2356    2         END;

     2896     2357                    /* IF FMREAD PRIV OVERRODE NONE ACCESS, HE GETS ONLY READ */
     2897     2358    1      IF F$DCB.FDCM=511 THEN FLAGS=%FFLG_READ#;

   2358  1 001240   200005 471500                    LDP1    JDCB$,,AUTO
         1 001241   100073 236100                    LDQ     59,,PR1
         1 001242   000777 376007                    ANQ     511,DL
         1 001243   000777 116007                    CMPQ    511,DL
         1 001244   001247 601000 1                  TNZ     s:2359

   2358  1 001245   400000 236003                    LDQ     -131072,DU
         1 001246   200017 756100                    STQ     FLAGS,,AUTO

     2898     2359    1      F$DCB.FFLG=FLAGS;

   2359  1 001247   200017 220100                    LDX0    FLAGS,,AUTO
         1 001250   100004 740100                    STX0    4,,PR1

     2899     2360    1      IF F$DCB.FFLG THEN RETURN;

   2360  1 001251   001253 600000 1                  TZE     FMOE$NOACCESS

   2360  1 001252   000000 702200 xent               TSX2  ! X66_ARET
PL6.E3A0      #007=FMO$SECCHK File=FMO$OBSE.:E05TSI                              TUE 07/29/97 16:58 Page:560

     2900     2361                    /**/
     2901     2362    1   FMOE$NOACCESS: B$JIT.ERR=FMO$E$NOACCESS;

   2362  1 001253   000001 236000 0     FMOE$NOACCE* LDQ     FMO$E$NOACCESS
         1 001254   000000 470400 xsym               LDP0    B$JIT$
         1 001255   000012 756100                    STQ     10,,PR0

     2902     2363    1      RETURN;

   2363  1 001256   000000 702200 xent               TSX2  ! X66_ARET

     2903     2364    1   FMOE$NOFILE: B$JIT.ERR=FMO$E$NOFILE;

   2364  1 001257   000000 236000 0     FMOE$NOFILE  LDQ     FMO$E$NOFILE
         1 001260   100012 756100                    STQ     10,,PR1

     2904     2365    1      F$DCB.AUTHFFLG='0'B;

   2365  1 001261   000000 220003                    LDX0    0,DU
         1 001262   000057 440100                    SXL0    47,,PR0

     2905     2366    1      RETURN;

   2366  1 001263   000000 702200 xent               TSX2  ! X66_ARET

     2906     2367    1   FMOE$QSTOW: B$JIT.ERR=FMO$E$QSTOW;

   2367  1 001264   000002 236000 0     FMOE$QSTOW   LDQ     FMO$E$QSTOW
         1 001265   000000 473400 xsym               LDP3    B$JIT$
         1 001266   300012 756100                    STQ     10,,PR3

     2907     2368    1      RETURN;

   2368  1 001267   000000 702200 xent               TSX2  ! X66_ARET

     2908     2369    1   FMOE$CLSREL: B$JIT.ERR=FMO$E$CLSREL;
PL6.E3A0      #007=FMO$SECCHK File=FMO$OBSE.:E05TSI                              TUE 07/29/97 16:58 Page:561

   2369  1 001270   000003 236000 0     FMOE$CLSREL  LDQ     FMO$E$CLSREL
         1 001271   000000 471400 xsym               LDP1    B$JIT$
         1 001272   100012 756100                    STQ     10,,PR1

     2909     2370    1      RETURN;

   2370  1 001273   000000 702200 xent               TSX2  ! X66_ARET
     2910     2371    1   END FMO$SECCHK;
     2911     2372        %EOD;

PL6.E3A0      #007=FMO$SECCHK File=FMO$OBSE.:E05TSI                              TUE 07/29/97 16:58 Page:562
--  Include file information  --

   B$USER.:E05TOU  cannot be made into a system file and is referenced.
   B$P.:E05TOU  cannot be made into a system file and is referenced.
   CP_6_SUBS.:E05TOU  is referenced.
   F$DCB.:E05TOU  is referenced.
   B$JIT_C.:E05TOU  is referenced.
   F$JIT_C.:E05TOU  cannot be made into a system file and is referenced.
   F_ERRORS_C.:E05TOU  is referenced.
   FM$MACROS.:E05TOU  is referenced.
      No diagnostics issued in procedure FMO$SECCHK.
PL6.E3A0      #007=FMO$SECCHK File=FMO$OBSE.:E05TSI                              TUE 07/29/97 16:58 Page:563

 **** Variables and constants ****

  ****  Section 000 RoData FMO$SECCHK

  ****  Scalars and arrays  ****
OctLoc.c.b A Datatyp(siz) R M Lvl/name                 OctLoc.c.b A Datatyp(siz) R M Lvl/name

     4-0-0/c STRC(54)    r     1 FETCHVEH                   3-0-0/b STRC        r     1 FMO$E$CLSREL
     1-0-0/b STRC        r     1 FMO$E$NOACCESS             0-0-0/b STRC        r     1 FMO$E$NOFILE
     2-0-0/b STRC        r     1 FMO$E$QSTOW                6-0-0/c CHAR(8)     r     1 SYSACCT

  ****  Auto variables  ****

  ****  Scalars and arrays  ****
OctLoc.c.b A Datatyp(siz) R M Lvl/name                 OctLoc.c.b A Datatyp(siz) R M Lvl/name

     3-0-0/w PTR         r     1 @FDFIT                     4-0-0/w PTR         r     1 @FM$FIT
    14-0-0/w PTR         r     1 ACCT$                      7-0-0/w PTR         r     1 CFU$
    *0-0-0/w UBIN        r     1 FDFIT                     17-0-0/b STRC        r     1 FLAGS
    *0-0-0/w STRC(1116)  r     1 FM$FIT                    10-0-0/w UBIN        r     1 I
    11-0-0/w UBIN        r     1 J                          5-0-0/w PTR         r     1 JDCB$
    13-0-0/w UBIN        r     1 JP                        12-0-0/w UBIN        r     1 K
    14-0-0/w UBIN        r     1 KP                         6-0-0/w PTR         r     1 LOC$
    15-0-0/w STRC(72)    r     1 M                         15-0-0/w CHAR(8)     r     1 TACCT
    11-0-0/w CHAR(4)     r     1 WILD_XC

  ****  SYMREF variables  ****

  ****  Scalars and arrays  ****
OctLoc.c.b A Datatyp(siz) R M Lvl/name                 OctLoc.c.b A Datatyp(siz) R M Lvl/name

     0-0-0/w PTR         r     1 B$JIT$                     0-0-0/w PTR         r     1 B$P$
     0-0-0/w PTR         r     1 F$CFU$                     0-0-0/w PTR         r     1 S$CU$

  ****  BASED and DCB variables  ****

  ****  Scalars and arrays  ****
PL6.E3A0      #007=FMO$SECCHK File=FMO$OBSE.:E05TSI                              TUE 07/29/97 16:58 Page:564
OctLoc.c.b A Datatyp(siz) R M Lvl/name                 OctLoc.c.b A Datatyp(siz) R M Lvl/name

     0-0-0/d STRC(8856)  r     1 B$JIT                      0-0-0/d STRC(1224)  r     1 B$P(0:0)
     0-0-0/d STRC(576)   r     1 B$U                        0-0-0/c CHAR(8)     r     1 BACCT
     0-0-0/c ASTR(9)     r     1 BACSVEH                    0-0-0/w STRC(324)   r     1 CODE03
     0-0-0/w STRC(396)   r     1 CODE04                     0-0-0/w STRC(72)    r     1 CODE07
     0-0-0/c STRC(90)    r     1 CODE09                     0-0-0/c ASTR(27)    r     1 CODE10
     0-0-0/d ASTR(3528)  r     1 F$DCB                      0-0-0/w STRC(288)   r     1 FM$CFUA


   Procedure FMO$SECCHK requires 700 words for executable code.
   Procedure FMO$SECCHK requires 20 words of local(AUTO) storage.
PL6.E3A0      #007=FMO$SECCHK File=FMO$OBSE.:E05TSI                              TUE 07/29/97 16:58 Page:565
          *** CROSS REFERENCE LISTING ***
**     DENOTES     IDENTIFIER DEFINITION
<<                 IDENTIFIER'S VALUE SET
>>                 IDENTIFIER'S VALUE USED
<>                 IDENTIFIER SET AND/OR USED
--                 IDENTIFIER REFERENCED
PL6.E3A0      #007=FMO$SECCHK File=FMO$OBSE.:E05TSI                              TUE 07/29/97 16:58 Page:566
          MINI XREF LISTING

ACCT$
      2060**DCL      2240<<ASSIGN   2256<<ASSIGN   2273>>IF
B$DO.ECCINFO
      1976**DCL      1977--REDEF
B$JIT.ACCN
       997**DCL      2123>>IF       2130>>IF       2195--DOWHILE  2195>>DOWHILE  2202--IF       2202>>IF
      2206--IF
B$JIT.DCB$
      1087**DCL      2111>>ASSIGN
B$JIT.ERR
       997**DCL      2362<<ASSIGN   2364<<ASSIGN   2367<<ASSIGN   2369<<ASSIGN
B$JIT.ERR.MID
       998**DCL       998--REDEF
B$JIT.PRIV.ACTIVE.FMEFT
       998**DCL      2337>>IF
B$JIT.PRIV.ACTIVE.FMREAD
       999**DCL      2307>>IF       2352>>IF
B$JIT.PRIV.ACTIVE.FMSEC
       999**DCL      2302>>IF       2343>>IF
B$JIT.UNAME
       997**DCL      2123>>IF
B$JIT$
      2084**DCL       992--IMP-PTR  2111>>ASSIGN   2123>>IF       2123>>IF       2130>>IF       2195>>DOWHILE
      2202>>IF       2302>>IF       2307>>IF       2337>>IF       2343>>IF       2352>>IF       2362>>ASSIGN
      2364>>ASSIGN   2367>>ASSIGN   2369>>ASSIGN
B$P.NAME
      1773**DCL      2246--ASSIGN   2248--ASSIGN   2250--ASSIGN
B$P$
      1803**DCL      2246>>ASSIGN   2248>>ASSIGN   2250>>ASSIGN
B$U.ACP
      1932**DCL      2246>>ASSIGN
B$U.ASL
PL6.E3A0      #007=FMO$SECCHK File=FMO$OBSE.:E05TSI                              TUE 07/29/97 16:58 Page:567
      1934**DCL      2250>>ASSIGN
B$U.DB
      1933**DCL      2248>>ASSIGN
B$U.MISC
      1955**DCL      1956--REDEF
B$USER.MISC
      2031**DCL      2032--REDEF
BACCT
      2048**DCL      2273>>IF
BACSVEH.C
      2047**DCL      2274>>IF       2283>>IF
BACSVEH.L
      2046**DCL      2047--IMP-SIZ  2274>>IF       2283>>IF       2283>>IF
CFU$
      2053**DCL       419--IMP-PTR   425--IMP-PTR  2143<<ASSIGN   2226<<ASSIGN   2233>>IF       2233>>ASSIGN
      2243<<ASSIGN   2246<<ASSIGN   2248<<ASSIGN   2250<<ASSIGN   2255<<ASSIGN   2274>>IF       2274>>IF
      2283>>IF       2283>>IF       2283>>IF
CODE03.DESC.ARCHIVE
       394**DCL      2335>>IF
CODE03.GHSTACS
       395**DCL      2350>>IF       2350>>ASSIGN
CODE03.ORG
       393**DCL      2333>>ASSIGN   2349>>IF
CODE03.TYPE
       395**DCL      2332>>ASSIGN   2343>>IF
CODE04.CREATOR.ACCT
       404**DCL      2123>>IF
CODE04.CREATOR.NAME
       404**DCL      2123>>IF
CODE07.PASS
       408**DCL      2293>>IF
CODE09.ACCT
       412**DCL      2172>>ASSIGN   2188--ASSIGN   2195--DOWHILE  2195>>DOWHILE  2197--IF       2197>>IF
      2202--IF       2202>>IF       2206--IF       2219--IF       2222--IF       2222--ASSIGN
CODE09.FFLG
       411**DCL      2233>>ASSIGN
PL6.E3A0      #007=FMO$SECCHK File=FMO$OBSE.:E05TSI                              TUE 07/29/97 16:58 Page:568
CODE10
       415**DCL      2267--DOWHILE  2268--ASSIGN   2287--ASSIGN
CODE10.ACSVEH.C
       416**DCL       416--IMP-SIZ  2267>>DOWHILE  2268>>ASSIGN   2269>>CALLBLT  2270>>IF       2271>>IF
      2272>>ASSIGN   2274>>IF       2283>>IF       2283>>IF       2287>>ASSIGN
CODE10.ACSVEH.T
       416**DCL      2269>>CALLBLT  2272>>ASSIGN   2274>>IF       2283>>IF       2283>>IF
CODE10.FFLG
       415**DCL      2277>>ASSIGN
F$CFU$
      2083**DCL      2116>>ASSIGN
F$DCB.ACCT
      1162**DCL      2130>>IF       2256--ASSIGN   2271>>ASSIGN
F$DCB.ACTPOS
      1177**DCL      1177--REDEF
F$DCB.ARS
      1152**DCL      1152--REDEF
F$DCB.ASN
      1167**DCL      2330>>IF
F$DCB.ATTR
      1170**DCL      1171--REDEF
F$DCB.AUTHFFLG
      1177**DCL      2299<<ASSIGN   2314<<ASSIGN   2365<<ASSIGN
F$DCB.BORROW
      1185**DCL      1185--REDEF    1185--REDEF    1185--REDEF
F$DCB.DCBNAME.L
      1199**DCL      1199--IMP-SIZ
F$DCB.EOMCHAR
      1156**DCL      1156--REDEF
F$DCB.EXIST
      1165**DCL      2321>>IF       2330>>IF
F$DCB.FCD
      1165**DCL      2252>>IF
F$DCB.FDCM
      1189**DCL      2144>>ASSIGN   2234<<ASSIGN   2358>>IF
F$DCB.FFLG
PL6.E3A0      #007=FMO$SECCHK File=FMO$OBSE.:E05TSI                              TUE 07/29/97 16:58 Page:569
      1156**DCL      2113>>ASSIGN   2116<<ASSIGN   2117>>ASSIGN   2118<<ASSIGN   2359<<ASSIGN   2360>>IF
F$DCB.FLDID
      1180**DCL      1180--REDEF
F$DCB.FORM$
      1174**DCL      1174--REDEF
F$DCB.FSECT
      1190**DCL      1190--REDEF
F$DCB.FSN
      1167**DCL      1167--REDEF    1167--REDEF    1168--REDEF
F$DCB.FUN
      1166**DCL      2309>>IF       2320>>IF       2330>>IF       2336>>IF
F$DCB.GHSTACS
      1175**DCL      2350<<ASSIGN
F$DCB.HEADER$
      1173**DCL      1173--REDEF
F$DCB.IASN
      1193**DCL      2116>>IF
F$DCB.IXTNSIZE
      1171**DCL      1171--REDEF
F$DCB.LASTSTA$
      1161**DCL      1161--REDEF
F$DCB.LVL
      1186**DCL      1186--REDEF
F$DCB.NAME
      1161**DCL      2255--ASSIGN
F$DCB.NAME.C
      1161**DCL      1161--REDEF
F$DCB.NOEOF
      1182**DCL      1182--REDEF
F$DCB.NRECS
      1172**DCL      1172--REDEF
F$DCB.NRECX
      1191**DCL      1191--REDEF
F$DCB.OHDR
      1183**DCL      1183--REDEF
F$DCB.ORG
PL6.E3A0      #007=FMO$SECCHK File=FMO$OBSE.:E05TSI                              TUE 07/29/97 16:58 Page:570
      1166**DCL      1166--REDEF    2333<<ASSIGN
F$DCB.OWNER
      1183**DCL      2125<<ASSIGN   2128>>IF       2129<<ASSIGN   2301<<ASSIGN
F$DCB.PASS
      1162**DCL      2293>>IF
F$DCB.PASSF
      1164**DCL      2293>>IF
F$DCB.PRECNO
      1189**DCL      1189--REDEF
F$DCB.PRIVOPN
      1191**DCL      2303<<ASSIGN   2354<<ASSIGN
F$DCB.PSN
      1162**DCL      2252>>IF
F$DCB.RCSZ
      1194**DCL      1194--REDEF
F$DCB.RES
      1162**DCL      1162--REDEF
F$DCB.SETX
      1174**DCL      1174--REDEF
F$DCB.STARX
      1183**DCL      2310>>ASSIGN   2353>>IF
F$DCB.TAB$
      1173**DCL      1174--REDEF
F$DCB.TDA
      1188**DCL      1188--REDEF
F$DCB.TYPE
      1162**DCL      2332<<ASSIGN
F$DCB.WSN
      1163**DCL      1163--REDEF
F$DCB.WSR
      1169**DCL      2241>>DOCASE   2252>>IF       2301>>IF       2311>>IF       2311>>IF       2318>>IF
      2318<<ASSIGN   2343>>IF
FDFIT
        13**DCL        12--PROC     2112--IF       2237--IF       2306--IF       2352--IF
FETCHVEH
      2105**DCL      2243--ASSIGN
PL6.E3A0      #007=FMO$SECCHK File=FMO$OBSE.:E05TSI                              TUE 07/29/97 16:58 Page:571
FLAGS
      2065**DCL      2113<<ASSIGN   2119<<ASSIGN   2132<<ASSIGN   2133>>IF       2135<<ASSIGN   2233<<ASSIGN
      2244<<ASSIGN   2277<<ASSIGN   2278>>IF       2279<<ASSIGN   2294<<ASSIGN   2294>>ASSIGN   2299>>ASSIGN
      2303>>IF       2304<<ASSIGN   2309<<ASSIGN   2309>>ASSIGN   2313<<ASSIGN   2317<<ASSIGN   2317>>ASSIGN
      2323>>IF       2337<<ASSIGN   2337>>ASSIGN   2338<<ASSIGN   2338>>ASSIGN   2345<<ASSIGN   2345>>ASSIGN
      2346<<ASSIGN   2346>>ASSIGN   2349<<ASSIGN   2349>>ASSIGN   2355<<ASSIGN   2355>>ASSIGN   2358<<ASSIGN
      2359>>ASSIGN
FLAGS.DELF
      2070**DCL      2321>>IF
FLAGS.EXEC
      2073**DCL      2238>>IF       2239<<ASSIGN   2278<<ASSIGN   2354>>IF
FLAGS.NOLIST
      2071**DCL      2307>>IF
FLAGS.READ
      2066**DCL      2345>>IF       2354>>IF
FM$CFU.ACCTX
       420**DCL       420--REDEF
FM$CFUA.DFLTALL
       428**DCL      2116>>ASSIGN
FM$FIT
       390**DCL        12--PROC     2121--ASSIGN   2140--ASSIGN   2263--ASSIGN   2291--ASSIGN   2328--ASSIGN
FM$FIT.CODES.NDW
       390**DCL      2142>>ASSIGN   2266>>ASSIGN
FMO$E$CLSREL
      2102**DCL      2369>>ASSIGN
FMO$E$NOACCESS
      2094**DCL      2362>>ASSIGN
FMO$E$NOFILE
      2090**DCL      2364>>ASSIGN
FMO$E$QSTOW
      2098**DCL      2367>>ASSIGN
FMO$LOCCODE
      2078**DCL-ENT  2122--CALL     2141--CALL     2264--CALL     2329--CALL
FMO$LOCCODT
      2079**DCL-ENT  2292--CALL
FMOE$CLSREL
PL6.E3A0      #007=FMO$SECCHK File=FMO$OBSE.:E05TSI                              TUE 07/29/97 16:58 Page:572
      2369**LABEL    2322--GOTO
FMOE$NOACCESS
      2362**LABEL    2323--GOTO
FMOE$NOFILE
      2364**LABEL    2308--GOTO
FMOE$QSTOW
      2367**LABEL    2336--GOTO
GOTONE
      2272**LABEL    2285--GOTO
I
      2054**DCL      2120<<ASSIGN   2122<>CALL     2139<<ASSIGN   2141<>CALL     2142<<ASSIGN   2142>>ASSIGN
      2145>>DOWHILE  2231<<ASSIGN   2231>>ASSIGN   2262<<ASSIGN   2264<>CALL     2266<<ASSIGN   2266>>ASSIGN
      2267>>DOWHILE  2268<<ASSIGN   2268>>ASSIGN   2327<<ASSIGN   2329<>CALL
J
      2055**DCL      2056--REDEF    2173>>IF       2174<<ASSIGN   2187<<ASSIGN   2195>>DOWHILE  2195>>DOWHILE
      2197>>IF       2197>>IF       2198>>ASSIGN   2201>>IF       2202>>IF       2202>>IF       2208<<ASSIGN
      2219>>IF       2219<<ASSIGN   2219>>ASSIGN   2269<<CALLBLT  2270>>IF       2271>>IF       2272>>ASSIGN
      2274>>IF       2276>>ASSIGN   2281>>IF       2282<<ASSIGN   2282>>ASSIGN   2283>>IF       2283>>IF
      2283>>IF       2283>>IF       2310<<ASSIGN   2311>>IF       2311>>IF       2316>>IF       2321>>IF
JDCB$
      2051**DCL      1152--IMP-PTR  2111<<ASSIGN   2113>>ASSIGN   2116>>IF       2116>>ASSIGN   2117>>ASSIGN
      2118>>ASSIGN   2125>>ASSIGN   2128>>IF       2129>>ASSIGN   2130>>IF       2144>>ASSIGN   2234>>ASSIGN
      2241>>DOCASE   2271>>ASSIGN   2293>>IF       2293>>IF       2299>>ASSIGN   2301>>IF       2301>>ASSIGN
      2303>>ASSIGN   2309>>IF       2310>>ASSIGN   2311>>IF       2311>>IF       2314>>ASSIGN   2318>>IF
      2318>>ASSIGN   2320>>IF       2321>>IF       2330>>IF       2330>>IF       2330>>IF       2332>>ASSIGN
      2333>>ASSIGN   2336>>IF       2343>>IF       2350>>ASSIGN   2353>>IF       2354>>ASSIGN   2358>>IF
      2359>>ASSIGN   2360>>IF       2365>>ASSIGN
JP
      2058**DCL      2175<<ASSIGN   2188<<ASSIGN   2198<<ASSIGN   2201>>IF       2206>>IF       2208>>ASSIGN
      2222>>IF
K
      2057**DCL      2190<<ASSIGN   2195>>DOWHILE  2195>>DOWHILE  2201>>ASSIGN   2202>>IF       2202>>IF
      2210>>ASSIGN   2212<<ASSIGN   2217<<ASSIGN   2217>>ASSIGN   2265<<ASSIGN   2276<<ASSIGN   2281>>IF
KP
      2059**DCL      2060--REDEF    2117<<ASSIGN   2132>>ASSIGN   2191<<ASSIGN   2201<<ASSIGN   2206>>IF
      2210>>ASSIGN   2212>>ASSIGN
PL6.E3A0      #007=FMO$SECCHK File=FMO$OBSE.:E05TSI                              TUE 07/29/97 16:58 Page:573
LOC$
      2052**DCL       393--IMP-PTR   402--IMP-PTR   408--IMP-PTR   411--IMP-PTR   415--IMP-PTR  2121<<ASSIGN
      2122<>CALL     2123>>IF       2123>>IF       2140<<ASSIGN   2141<>CALL     2172>>ASSIGN   2195>>DOWHILE
      2197>>IF       2202>>IF       2226>>ASSIGN   2230<<ASSIGN   2230>>ASSIGN   2263<<ASSIGN   2264<>CALL
      2267>>DOWHILE  2267>>DOWHILE  2268>>ASSIGN   2268>>ASSIGN   2269>>CALLBLT  2269>>CALLBLT  2270>>IF
      2271>>IF       2272>>ASSIGN   2272>>ASSIGN   2274>>IF       2274>>IF       2277>>ASSIGN   2283>>IF
      2283>>IF       2283>>IF       2283>>IF       2287<<ASSIGN   2287>>ASSIGN   2287>>ASSIGN   2287>>ASSIGN
      2291<<ASSIGN   2292<>CALL     2293>>IF       2328<<ASSIGN   2329<>CALL     2332>>ASSIGN   2333>>ASSIGN
      2335>>IF       2343>>IF       2349>>IF       2350>>IF       2350>>ASSIGN
M
      2061**DCL      2064--REDEF
M.C
      2063**DCL      2193<<ASSIGN   2210<<ASSIGN   2210>>ASSIGN   2215<<ASSIGN   2215>>ASSIGN   2222<<ASSIGN
      2225>>IF       2227>>ASSIGN
M.CM
      2062**DCL      2144<<ASSIGN   2225>>IF       2227<<ASSIGN   2234>>ASSIGN
NOMATCH
      2225**LABEL    2207--GOTO
NOPASSWD
      2293**LABEL    2237--GOTO     2292--CALLALT
NOTFILE
      2350**LABEL    2306--GOTO     2329--CALLALT
OTHEROK
      2234**LABEL    2141--CALLALT
OWNEROK
      2287**LABEL    2122--CALLALT  2126--GOTO     2130--GOTO     2136--GOTO     2238--GOTO     2258--GOTO
      2260--GOTO     2264--CALLALT
S$CU$
      2042**DCL      2246>>ASSIGN   2248>>ASSIGN   2250>>ASSIGN
SECCHKFD
      2133**LABEL    2114--GOTO
SYSACCT
      2108**DCL      2240--ASSIGN   2270>>ASSIGN
TACCT
      2064**DCL      2270<<ASSIGN   2271<<ASSIGN   2272<<ASSIGN   2273>>IF
WILD_XC
PL6.E3A0      #007=FMO$SECCHK File=FMO$OBSE.:E05TSI                              TUE 07/29/97 16:58 Page:574
      2056**DCL      2172<<ASSIGN

