PL6.E3A0      #008=FMO$FIELD_START_SETUP File=FMO$OBSE.:E05TSI                   TUE 07/29/97 16:59 Page:575
     2912        1        /*T***********************************************************/
     2913        2        /*T*                                                         */
     2914        3        /*T* Copyright (c) Bull HN Information Systems Inc., 1997    */
     2915        4        /*T*                                                         */
     2916        5        /*T***********************************************************/
     2917        6        FMO$FIELD_START_SETUP: PROC ALTRET;
     2918        7                    /*F*     NAME:     FMO$FIELD_START_SETUP
     2919        8
     2920        9                             PURPOSE:  To set up the FM$FIELD_START array in the ROSEG
     2921       10                                       from information in a VLP_RECFIELD or CODE18
     2922       11                                       structure which is known to contain legal field
     2923       12                                       definitions.
     2924       13                    */
     2925       14                    /*D*     NAME:     FMO$FIELD_START_SETUP
     2926       15
     2927       16                             CALL:     CALL FMO$FIELD_START_SETUP(VLP_RECFIELD) ALTRET(LBL);
     2928       17                             INPUT:    F$DCB.FIELDX, indicating an existing area in the
     2929       18                                       ROSEG which contains a VLP_RECFIELD structure
     2930       19                                       known to contain legal field definitions.
     2931       20
     2932       21                                       F$DCB.STARTX=0
     2933       22
     2934       23                             OUTPUT:   F$DCB.STARTX, set to a ROSEG offset.
     2935       24
     2936       25                                       Initial field offsets placed in the FM$FIELD_START
     2937       26                                       array for each field in VLP_RECFIELD.
     2938       27
     2939       28                             DESCRIPTION:
     2940       29                                       An area in the ROSEG is located for FM$FIELD_START
     2941       30                                       and F$DCB.STARTX is set.  Then, elements in the
     2942       31                                       FM$FIELD_START array are set to contain the offset,
     2943       32                                       in bits, from the start of a record to the start
     2944       33                                       of a field defined in VLP_RECFIELD.  The index
     2945       34                                       into the FM$FIELD_START array for each field is
     2946       35                                       the same as its index in the VLP_RECFIELD field
     2947       36                                       array (VLP_RECFIELD.FIELD or VLP_RECFIELD.DECFIELD).
     2948       37                                       Field offsets must be computed in accordance with
PL6.E3A0      #008=FMO$FIELD_START_SETUP File=FMO$OBSE.:E05TSI                   TUE 07/29/97 16:59 Page:576
     2949       38                                       the data types specified.  All fields must be on
     2950       39                                       byte boundaries except packed decimal which can be
     2951       40                                       on nibble boundaries and integer (SBIN, UBIN) which
     2952       41                                       can be on bit boundaries.  If fields are specified
     2953       42                                       in an order that would place a field on a boundary
     2954       43                                       which is not normally legal, slack bits will be
     2955       44                                       inserted until a legal boundary is reached.  These
     2956       45                                       slack bits will not be inserted into the
     2957       46                                       VLP_RECFIELD structure, but will be reflected in
     2958       47                                       the bit offsets placed in the FM$FIELD_START array.
     2959       48
     2960       49                                       VLP_RECFIELD fields are assumed to have been
     2961       50                                       verified already to assure that they specify legal
     2962       51                                       data types, lengths, and scale values.  (See
     2963       52                                       FMO$CHKRECFIELD).
     2964       53
     2965       54                                       The altreturn will be taken if no space was
     2966       55                                       available in the ROSEG for FIELD_START or if
     2967       56                                       F$DCB.FIELDX=0.
     2968       57                    */
     2969       58                    /**/
     2970       59                    /* Includes */
     2971       60                    /**/
     2972       61        %INCLUDE F$CP6V_C;
     2973      287        %INCLUDE B$JIT;
     2974      890        %MACRO F$DCB(BASED=BASED);
     2975      891        %INCLUDE F$DCB;
     2976      940        %MEND;
     2977      941        %INCLUDE F_ERRORS_C;
     2978     1181        %INCLUDE FM$MACROS;
     2979     1556        %INCLUDE FM_FIELD_C;
     2980     1597        %INCLUDE B$OBJECT_C;
     2981     5027        %VREBL_DATATYPES;
     2982     5102                    /**/
     2983     5103                    /* Entry Points */
     2984     5104                    /**/
     2985     5105    1   DCL FSA$FSP ENTRY(2) ALTRET;
PL6.E3A0      #008=FMO$FIELD_START_SETUP File=FMO$OBSE.:E05TSI                   TUE 07/29/97 16:59 Page:577
     2986     5106    1   DCL FSA$GSP ENTRY(2) ALTRET;
     2987     5107                    /**/
     2988     5108                    /* Based Variables */
     2989     5109                    /**/
     2990     5110        %VLP$RECFIELD_V(FPTN=RECFIELD,BASED="BASED(FIELD$)");
     2991     5147        %FM$FIELD_START(FPTN=FIELD_START,STCLASS="BASED(START$)");
     2992     5169        %F$DCB(BASED="BASED(JDCB$)");
     2993     5219    1   DCL 1 MOVEI BASED ALIGNED,
     2994     5220    1         2 * CHAR(I) CALIGNED;
     2995     5221                    /**/
     2996     5222                    /* Auto Variables */
     2997     5223                    /**/
     2998     5224    1   DCL JDCB$ PTR;
     2999     5225    1   DCL FIELD$ PTR;
     3000     5226    1   DCL START$ PTR;
     3001     5227    1   DCL I UBIN;
     3002     5228    1   DCL J UBIN;
     3003     5229    1   DCL REC_OFFSET SBIN;
     3004     5230                    /**/
     3005     5231                    /* Symrefed Variables */
     3006     5232                    /**/
     3007     5233    1   DCL B$JIT$ PTR SYMREF;
     3008     5234    1   DCL B$ROSEG$ PTR SYMREF;
     3009     5235                    /**/
     3010     5236                    /* Equates */
     3011     5237                    /**/
     3012     5238        %EQU BYTE_ALIGNED   = 1;
     3013     5239        %EQU NIBBLE_ALIGNED = 2;
     3014     5240        %EQU BIT_ALIGNED    = 3;
     3015     5241                    /**/
     3016     5242                    /* Constant data */
     3017     5243                    /**/
     3018     5244        %SUB FCG#='0615'O;
     3019     5245        %SUB MID#='17'O;
     3020     5246        %ERRCODE(NAME=FMO$E$NOFLD,COD#=%E$NOFLD);
     3021     5250        %EJECT;
PL6.E3A0      #008=FMO$FIELD_START_SETUP File=FMO$OBSE.:E05TSI                   TUE 07/29/97 16:59 Page:578
     3022     5251    1      JDCB$=B$JIT.DCB$;
     3023     5252    2      IF F$DCB.STARTX~=0 THEN DO;
     3024     5253    2         START$=PINCRW(B$ROSEG$,F$DCB.STARTX);
     3025     5254    2         I=FIELD_START.NWORDS;
     3026     5255    2         CALL FSA$FSP(I,START$);
     3027     5256    2         F$DCB.STARTX=0;
     3028     5257    2         END;
     3029     5258    2      IF F$DCB.FIELDX=0 THEN DO;
     3030     5259    2         B$JIT.ERR=FMO$E$NOFLD;
     3031     5260    2         ALTRETURN;
     3032     5261    2         END;
     3033     5262    1      FIELD$=PINCRW(B$ROSEG$,F$DCB.FIELDX);
     3034     5263    1      I=RECFIELD.NFIELDS+1;
     3035     5264    2      CALL FSA$GSP(I,START$) WHENALTRETURN DO;
     3036     5265    2         ALTRETURN;
     3037     5266    2         END;
     3038     5267    1      F$DCB.STARTX=POFFW(START$,B$ROSEG$);
     3039     5268    1      I=I*4;
     3040     5269    1      START$->MOVEI='0'B;
     3041     5270    1      FIELD_START.NWORDS=I/4;
     3042     5271
     3043     5272    1      REC_OFFSET=0;
     3044     5273    1      I=0;
     3045     5274
     3046     5275    2      DO WHILE(I <= RECFIELD.NFIELDS-1);
     3047     5276
     3048     5277    3         DO CASE(RECFIELD.FIELD.TYPE(I));
     3049     5278
     3050     5279    3         CASE(%LIST_DATATYPE);
     3051     5280                    /* Since the next entry defines the elements of the array,
     3052     5281                       set up the first element so we can get REC_OFFSET
     3053     5282                       for the list.                                       */
     3054     5283    3            CALL FIELD_START_SETUP(I+1);
     3055     5284    3            FIELD_START.OFFSET(I)=FIELD_START.OFFSET(I+1);
     3056     5285                    /* Now, do the remaining number of list elements so
     3057     5286                       REC_OFFSET will be right for the next non-element
     3058     5287                       field following this list.                          */
PL6.E3A0      #008=FMO$FIELD_START_SETUP File=FMO$OBSE.:E05TSI                   TUE 07/29/97 16:59 Page:579
     3059     5288    4            DO J=2 TO RECFIELD.FIELD.LEN(I);
     3060     5289    4               CALL FIELD_START_SETUP(I+1);
     3061     5290    4               END;
     3062     5291                    /* Set the offset for the element definition back to what
     3063     5292                       it was for the first element.                       */
     3064     5293    3            FIELD_START.OFFSET(I+1)=FIELD_START.OFFSET(I);
     3065     5294    3            I=I+1;
     3066     5295
     3067     5296    3         CASE(%VLIST_DATATYPE);
     3068     5297    3            CALL FIELD_START_SETUP(I+1);
     3069     5298    3            FIELD_START.OFFSET(I)=FIELD_START.OFFSET(I+1);
     3070     5299                    /* Since the count field is a separate field entirely,
     3071     5300                       set REC_OFFSET back so we add in the length of zero
     3072     5301                       elements at initialization. So, REC_OFFSET will
     3073     5302                       only have been affected by the alignment requirements
     3074     5303                       of the element type.                               */
     3075     5304    3            REC_OFFSET=FIELD_START.OFFSET(I);
     3076     5305    3            I=I+1;
     3077     5306
     3078     5307    3         CASE(ELSE);
     3079     5308    3            CALL FIELD_START_SETUP(I);
     3080     5309
     3081     5310    3         END;  /* Do Case */
     3082     5311
     3083     5312    2         I=I+1;
     3084     5313    2         END;  /* Do While */
     3085     5314
     3086     5315    1      RETURN;
     3087     5316        %EJECT;
PL6.E3A0      #008=FMO$FIELD_START_SETUP File=FMO$OBSE.:E05TSI                   TUE 07/29/97 16:59 Page:580
     3088     5317    1   FIELD_START_SETUP: PROC(K);
     3089     5318                    /**/
     3090     5319    2   DCL K UBIN;
     3091     5320                    /**/
     3092     5321
     3093     5322    3      DO CASE(RECFIELD.FIELD.TYPE(K));
     3094     5323
     3095     5324    3      CASE(%NO_DATATYPE,%CHAR_DATATYPE);
     3096     5325    3         CALL SET_FIELD_START(%BYTE_ALIGNED);
     3097     5326    3         REC_OFFSET=REC_OFFSET + (RECFIELD.FIELD.LEN(K)*9);
     3098     5327
     3099     5328    3      CASE(%SBIN_DATATYPE,%UBIN_DATATYPE);
     3100     5329    3         CALL SET_FIELD_START(%BIT_ALIGNED);
     3101     5330    3         REC_OFFSET=REC_OFFSET + RECFIELD.FIELD.LEN(K);
     3102     5331
     3103     5332    3      CASE(%SFLT_DATATYPE,%UTS_DATATYPE);
     3104     5333    3         CALL SET_FIELD_START(%BYTE_ALIGNED);
     3105     5334    3         REC_OFFSET=REC_OFFSET + 36;
     3106     5335
     3107     5336    3      CASE(%DFLT_DATATYPE,%DATE_DATATYPE,%TIME_DATATYPE);
     3108     5337    3         CALL SET_FIELD_START(%BYTE_ALIGNED);
     3109     5338    3         REC_OFFSET=REC_OFFSET + 72;
     3110     5339
     3111     5340    3      CASE(%PDLA_DATATYPE,%PDTA_DATATYPE,%PDLE_DATATYPE,
     3112     5341    3           %PDTE_DATATYPE,%PDFLT_DATATYPE,%PDNS_DATATYPE);
     3113     5342    3         CALL SET_FIELD_START(%NIBBLE_ALIGNED);
     3114     5343                    /* Compute the bit length for this packed field.  First,
     3115     5344                       add in the bit length of the even number of bytes in the
     3116     5345                       field. If the field length is even, we're done. Otherwise,
     3117     5346                       we need to know if the field started on an even nibble
     3118     5347                       (byte) or odd nibble boundary so we can tell whether to
     3119     5348                       add 5 bits or 4 bits to the bit length to account for the
     3120     5349                       extra nibble.                                         */
     3121     5350    3         REC_OFFSET=REC_OFFSET + ((RECFIELD.DECFIELD.LEN(K)/2)*9);
     3122     5351    3         IF MOD(RECFIELD.DECFIELD.LEN(K),2)~=0 THEN /* odd length */
     3123     5352    3            IF MOD(REC_OFFSET,9)=0 THEN
     3124     5353    3               REC_OFFSET=REC_OFFSET+5; /* even nibble boundary */
PL6.E3A0      #008=FMO$FIELD_START_SETUP File=FMO$OBSE.:E05TSI                   TUE 07/29/97 16:59 Page:581
     3125     5354    3            ELSE REC_OFFSET=REC_OFFSET+4; /* odd nibble boundary */
     3126     5355
     3127     5356    3      CASE(%TEXTC_DATATYPE);
     3128     5357    3         CALL SET_FIELD_START(%BYTE_ALIGNED);
     3129     5358    3         REC_OFFSET=REC_OFFSET + 9; /* For initialization */
     3130     5359
     3131     5360    3      CASE(%TEXTH_DATATYPE);
     3132     5361    3         CALL SET_FIELD_START(%BYTE_ALIGNED);
     3133     5362    3         REC_OFFSET=REC_OFFSET + 18; /* For initialization */
     3134     5363
     3135     5364    3      CASE(%UDNS_DATATYPE,%UDLS_DATATYPE,%UDTS_DATATYPE,
     3136     5365    3           %UDLO_DATATYPE,%UDTO_DATATYPE,%UDFLT_DATATYPE);
     3137     5366    3         CALL SET_FIELD_START(%BYTE_ALIGNED);
     3138     5367    3         REC_OFFSET=REC_OFFSET + (RECFIELD.DECFIELD.LEN(K)*9);
     3139     5368
     3140     5369    3      END;     /* Do Case */
     3141     5370
     3142     5371    2      RETURN;
     3143     5372        %EJECT;
PL6.E3A0      #008=FMO$FIELD_START_SETUP File=FMO$OBSE.:E05TSI                   TUE 07/29/97 16:59 Page:582
     3144     5373    2   SET_FIELD_START: PROC (ALIGN_TYPE);
     3145     5374                    /**/
     3146     5375    3   DCL ALIGN_TYPE UBIN;
     3147     5376                    /**/
     3148     5377    3   DCL EVEN UBIN;
     3149     5378                    /**/
     3150     5379
     3151     5380    4      DO CASE(ALIGN_TYPE);
     3152     5381    4      CASE(%BYTE_ALIGNED);
     3153     5382    4         IF MOD(REC_OFFSET,9)~=0 THEN
     3154     5383    4            REC_OFFSET=((REC_OFFSET/9)*9) + 9;
     3155     5384
     3156     5385    4      CASE(%NIBBLE_ALIGNED);
     3157     5386    4         EVEN=(REC_OFFSET/9)*9;
     3158     5387    4         IF REC_OFFSET > EVEN AND REC_OFFSET < EVEN+5 THEN
     3159     5388    4            REC_OFFSET=EVEN+5;
     3160     5389    4         ELSE IF REC_OFFSET > EVEN+5 THEN
     3161     5390    4               REC_OFFSET=EVEN+9;
     3162     5391
     3163     5392    4      CASE(%BIT_ALIGNED);
     3164     5393                    /* Don't need to do anything. */
     3165     5394
     3166     5395    4      END;     /* Do Case */
     3167     5396
     3168     5397    3      FIELD_START.OFFSET(K)=REC_OFFSET; /* K defined in FIELD_START_SETUP */
     3169     5398    3      RETURN;
     3170     5399
     3171     5400    3   END SET_FIELD_START;
     3172     5401
     3173     5402    2   END FIELD_START_SETUP;
     3174     5403
     3175     5404    1   END FMO$FIELD_START_SETUP;

PL6.E3A0      #008=FMO$FIELD_START_SETUP File=FMO$OBSE.:E05TSI                   TUE 07/29/97 16:59 Page:583
--  Include file information  --

   B$OBJECT_C.:E05TOU  is referenced.
   FM_FIELD_C.:E05TOU  is referenced.
   FM$MACROS.:E05TOU  is referenced.
   F_ERRORS_C.:E05TOU  is referenced.
   F$DCB.:E05TOU  is referenced.
   B$JIT_C.:E05TOU  is referenced.
   B$JIT.:E05TOU  cannot be made into a system file and is referenced.
   F$CP6V_C.:E05TOU  is referenced.
      No diagnostics issued in procedure FMO$FIELD_START_SETUP.

   Procedure FMO$FIELD_START_SETUP requires 392 words for executable code.
   Procedure FMO$FIELD_START_SETUP requires 22 words of local(AUTO) storage.

    No errors detected in file FMO$OBSE.:E05TSI    .

PL6.E3A0      #008=FMO$FIELD_START_SETUP File=FMO$OBSE.:E05TSI                   TUE 07/29/97 16:59 Page:584

 Object Unit name= FMO$FIELD_START_SETUP                      File name= FMO$OBSE.:E05TOU
 UTS= JUL 29 '97 16:59:04.92 TUE                              Compiler= PL-6/E31         Sev=      00
 SharedLib= :SHARED_SYSTEM                                    Alt SharedLib=


    ****  Control sections  ****

 Sect   Type Bound  Init  Size OctSiz  Section name(segment info)
    0  RoData even  UTS      1      1  FMO$FIELD_START_SETUP
    1   Proc  even  none   392    610  FMO$FIELD_START_SETUP
    2  RoData even  none     3      3  FMO$FIELD_START_SETUP

    ****  Entry defs  ****

                              Check   Calling
                             calling  sequence
  Sect OctLoc Primary Altret sequence   type   Parms  Name
     1      0   yes    yes     yes      Std        0  FMO$FIELD_START_SETUP

  ****  Entry refs  ****

         Check        Calling
        calling       sequence
Altret sequence SRef   type   Args  Name
 yes     yes           Std       2 FSA$FSP
 yes     yes           Std       2 FSA$GSP
                       nStd      0 X66_AUTO_0
                       Std       0 B_CONSPOOL_D
                       nStd      0 X66_AALT
                       nStd      0 X66_ARET

  ****  Data refs  ****

  Flags:  r = read only, s = secondary
Flgs Name                             Flgs Name                             Flgs Name
     B$JIT$                                B$ROSEG$                              B_VECTNIL
PL6.E3A0      #008=FMO$FIELD_START_SETUP File=FMO$OBSE.:E05TSI                   TUE 07/29/97 16:59 Page:585

  ****  Segment refs  ****

  Flags:  r = read only, s = secondary
Flgs Name                             Flgs Name                             Flgs Name
     ISSID
PL6.E3A0      #008=FMO$FIELD_START_SETUP File=FMO$OBSE.:E05TSI                   TUE 07/29/97 16:59 Page:586


     2912        1        /*T***********************************************************/
     2913        2        /*T*                                                         */
     2914        3        /*T* Copyright (c) Bull HN Information Systems Inc., 1997    */
     2915        4        /*T*                                                         */
     2916        5        /*T***********************************************************/
     2917        6        FMO$FIELD_START_SETUP: PROC ALTRET;

      6  1 000000   000000 700200 xent  FMO$FIELD_S* TSX0  ! X66_AUTO_0
         1 000001   000026 000000                    ZERO    22,0

     2918        7                    /*F*     NAME:     FMO$FIELD_START_SETUP
     2919        8
     2920        9                             PURPOSE:  To set up the FM$FIELD_START array in the ROSEG
     2921       10                                       from information in a VLP_RECFIELD or CODE18
     2922       11                                       structure which is known to contain legal field
     2923       12                                       definitions.
     2924       13                    */
     2925       14                    /*D*     NAME:     FMO$FIELD_START_SETUP
     2926       15
     2927       16                             CALL:    CALL FMO$FIELD_START_SETUP(VLP_RECFIELD) ALTRET(LBL);
     2928       17                             INPUT:    F$DCB.FIELDX, indicating an existing area in the
     2929       18                                       ROSEG which contains a VLP_RECFIELD structure
     2930       19                                       known to contain legal field definitions.
     2931       20
     2932       21                                       F$DCB.STARTX=0
     2933       22
     2934       23                             OUTPUT:   F$DCB.STARTX, set to a ROSEG offset.
     2935       24
     2936       25                                       Initial field offsets placed in the FM$FIELD_START
     2937       26                                       array for each field in VLP_RECFIELD.
     2938       27
     2939       28                             DESCRIPTION:
     2940       29                                       An area in the ROSEG is located for FM$FIELD_START
     2941       30                                       and F$DCB.STARTX is set.  Then, elements in the
     2942       31                                       FM$FIELD_START array are set to contain the offset,
     2943       32                                       in bits, from the start of a record to the start
PL6.E3A0      #008=FMO$FIELD_START_SETUP File=FMO$OBSE.:E05TSI                   TUE 07/29/97 16:59 Page:587
     2944       33                                       of a field defined in VLP_RECFIELD.  The index
     2945       34                                       into the FM$FIELD_START array for each field is
     2946       35                                       the same as its index in the VLP_RECFIELD field
     2947       36                                       array (VLP_RECFIELD.FIELD or VLP_RECFIELD.DECFIELD).
     2948       37                                       Field offsets must be computed in accordance with
     2949       38                                       the data types specified.  All fields must be on
     2950       39                                       byte boundaries except packed decimal which can be
     2951       40                                       on nibble boundaries and integer (SBIN, UBIN) which
     2952       41                                       can be on bit boundaries.  If fields are specified
     2953       42                                       in an order that would place a field on a boundary
     2954       43                                       which is not normally legal, slack bits will be
     2955       44                                       inserted until a legal boundary is reached.  These
     2956       45                                       slack bits will not be inserted into the
     2957       46                                       VLP_RECFIELD structure, but will be reflected in
     2958       47                                       the bit offsets placed in the FM$FIELD_START array.
     2959       48
     2960       49                                       VLP_RECFIELD fields are assumed to have been
     2961       50                                       verified already to assure that they specify legal
     2962       51                                       data types, lengths, and scale values.  (See
     2963       52                                       FMO$CHKRECFIELD).
     2964       53
     2965       54                                       The altreturn will be taken if no space was
     2966       55                                       available in the ROSEG for FIELD_START or if
     2967       56                                       F$DCB.FIELDX=0.
     2968       57                    */
     2969       58                    /**/
     2970       59                    /* Includes */
     2971       60                    /**/
     2972       61        %INCLUDE F$CP6V_C;
     2973      287        %INCLUDE B$JIT;
     2974      890        %MACRO F$DCB(BASED=BASED);
     2975      891        %INCLUDE F$DCB;
     2976      940        %MEND;
     2977      941        %INCLUDE F_ERRORS_C;
     2978     1181        %INCLUDE FM$MACROS;
     2979     1556        %INCLUDE FM_FIELD_C;
     2980     1597        %INCLUDE B$OBJECT_C;
PL6.E3A0      #008=FMO$FIELD_START_SETUP File=FMO$OBSE.:E05TSI                   TUE 07/29/97 16:59 Page:588
     2981     5027        %VREBL_DATATYPES;
     2982     5102                    /**/
     2983     5103                    /* Entry Points */
     2984     5104                    /**/
     2985     5105    1   DCL FSA$FSP ENTRY(2) ALTRET;
     2986     5106    1   DCL FSA$GSP ENTRY(2) ALTRET;
     2987     5107                    /**/
     2988     5108                    /* Based Variables */
     2989     5109                    /**/
     2990     5110        %VLP$RECFIELD_V(FPTN=RECFIELD,BASED="BASED(FIELD$)");
     2991     5147        %FM$FIELD_START(FPTN=FIELD_START,STCLASS="BASED(START$)");
     2992     5169        %F$DCB(BASED="BASED(JDCB$)");
     2993     5219    1   DCL 1 MOVEI BASED ALIGNED,
     2994     5220    1         2 * CHAR(I) CALIGNED;
     2995     5221                    /**/
     2996     5222                    /* Auto Variables */
     2997     5223                    /**/
     2998     5224    1   DCL JDCB$ PTR;
     2999     5225    1   DCL FIELD$ PTR;
     3000     5226    1   DCL START$ PTR;
     3001     5227    1   DCL I UBIN;
     3002     5228    1   DCL J UBIN;
     3003     5229    1   DCL REC_OFFSET SBIN;
     3004     5230                    /**/
     3005     5231                    /* Symrefed Variables */
     3006     5232                    /**/
     3007     5233    1   DCL B$JIT$ PTR SYMREF;
     3008     5234    1   DCL B$ROSEG$ PTR SYMREF;
     3009     5235                    /**/
     3010     5236                    /* Equates */
     3011     5237                    /**/
     3012     5238        %EQU BYTE_ALIGNED   = 1;
     3013     5239        %EQU NIBBLE_ALIGNED = 2;
     3014     5240        %EQU BIT_ALIGNED    = 3;
     3015     5241                    /**/
     3016     5242                    /* Constant data */
     3017     5243                    /**/
PL6.E3A0      #008=FMO$FIELD_START_SETUP File=FMO$OBSE.:E05TSI                   TUE 07/29/97 16:59 Page:589
     3018     5244        %SUB FCG#='0615'O;
     3019     5245        %SUB MID#='17'O;
     3020     5246        %ERRCODE(NAME=FMO$E$NOFLD,COD#=%E$NOFLD);
     3021     5250        %EJECT;
PL6.E3A0      #008=FMO$FIELD_START_SETUP File=FMO$OBSE.:E05TSI                   TUE 07/29/97 16:59 Page:590
     3022     5251    1      JDCB$=B$JIT.DCB$;

   5251  1 000002   000000 470400 xsym               LDP0    B$JIT$
         1 000003   000232 236100                    LDQ     154,,PR0
         1 000004   200003 756100                    STQ     JDCB$,,AUTO

     3023     5252    2      IF F$DCB.STARTX~=0 THEN DO;

   5252  1 000005   200003 471500                    LDP1    JDCB$,,AUTO
         1 000006   100057 220100                    LDX0    47,,PR1
         1 000007   000031 600000 1                  TZE     s:5258

     3024     5253    2         START$=PINCRW(B$ROSEG$,F$DCB.STARTX);

   5253  1 000010   000000 636010                    EAQ     0,X0
         1 000011   000000 036000 xsym               ADLQ    B$ROSEG$
         1 000012   200005 756100                    STQ     START$,,AUTO

     3025     5254    2         I=FIELD_START.NWORDS;

   5254  1 000013   200005 473500                    LDP3    START$,,AUTO
         1 000014   300000 235100                    LDA     0,,PR3
         1 000015   200006 755100                    STA     I,,AUTO

     3026     5255    2         CALL FSA$FSP(I,START$);

   5255  1 000016   200005 634500                    EPPR4   START$,,AUTO
         1 000017   200021 454500                    STP4    EVEN+3,,AUTO
         1 000020   200006 635500                    EPPR5   I,,AUTO
         1 000021   200020 455500                    STP5    EVEN+2,,AUTO
         1 000022   200020 630500                    EPPR0   EVEN+2,,AUTO
         1 000023   000020 631400 xsym               EPPR1   B_VECTNIL+16
         1 000024   000000 701000 xent               TSX1    FSA$FSP
         1 000025   000000 011000                    NOP     0

     3027     5256    2         F$DCB.STARTX=0;

PL6.E3A0      #008=FMO$FIELD_START_SETUP File=FMO$OBSE.:E05TSI                   TUE 07/29/97 16:59 Page:591
   5256  1 000026   000000 220003                    LDX0    0,DU
         1 000027   200003 470500                    LDP0    JDCB$,,AUTO
         1 000030   000057 740100                    STX0    47,,PR0

     3028     5257    2         END;

     3029     5258    2      IF F$DCB.FIELDX=0 THEN DO;

   5258  1 000031   200003 470500                    LDP0    JDCB$,,AUTO
         1 000032   000054 720100                    LXL0    44,,PR0
         1 000033   000040 601000 1                  TNZ     s:5262

     3030     5259    2         B$JIT.ERR=FMO$E$NOFLD;

   5259  1 000034   000000 236000 0                  LDQ     FMO$E$NOFLD
         1 000035   000000 471400 xsym               LDP1    B$JIT$
         1 000036   100012 756100                    STQ     10,,PR1

     3031     5260    2         ALTRETURN;

   5260  1 000037   000000 702200 xent               TSX2  ! X66_AALT

     3032     5261    2         END;
     3033     5262    1      FIELD$=PINCRW(B$ROSEG$,F$DCB.FIELDX);

   5262  1 000040   000000 636010                    EAQ     0,X0
         1 000041   000000 036000 xsym               ADLQ    B$ROSEG$
         1 000042   200004 756100                    STQ     FIELD$,,AUTO

     3034     5263    1      I=RECFIELD.NFIELDS+1;

   5263  1 000043   200004 471500                    LDP1    FIELD$,,AUTO
         1 000044   100000 236100                    LDQ     0,,PR1
         1 000045   000032 376000 xsym               ANQ     B_VECTNIL+26
         1 000046   000001 036007                    ADLQ    1,DL
         1 000047   200006 756100                    STQ     I,,AUTO

PL6.E3A0      #008=FMO$FIELD_START_SETUP File=FMO$OBSE.:E05TSI                   TUE 07/29/97 16:59 Page:592
     3035     5264    2      CALL FSA$GSP(I,START$) WHENALTRETURN DO;

   5264  1 000050   200005 633500                    EPPR3   START$,,AUTO
         1 000051   200021 453500                    STP3    EVEN+3,,AUTO
         1 000052   200006 634500                    EPPR4   I,,AUTO
         1 000053   200020 454500                    STP4    EVEN+2,,AUTO
         1 000054   200020 630500                    EPPR0   EVEN+2,,AUTO
         1 000055   000020 631400 xsym               EPPR1   B_VECTNIL+16
         1 000056   000000 701000 xent               TSX1    FSA$GSP
         1 000057   000061 702000 1                  TSX2    s:5265
         1 000060   000062 710000 1                  TRA     s:5267

     3036     5265    2         ALTRETURN;

   5265  1 000061   000000 702200 xent               TSX2  ! X66_AALT

     3037     5266    2         END;
     3038     5267    1      F$DCB.STARTX=POFFW(START$,B$ROSEG$);

   5267  1 000062   000000 235000 xsym               LDA     B$ROSEG$
         1 000063   000022 771000                    ARL     18
         1 000064   200020 755100                    STA     EVEN+2,,AUTO
         1 000065   200005 236100                    LDQ     START$,,AUTO
         1 000066   000022 772000                    QRL     18
         1 000067   200020 136100                    SBLQ    EVEN+2,,AUTO
         1 000070   000000 620006                    EAX0    0,QL
         1 000071   200003 470500                    LDP0    JDCB$,,AUTO
         1 000072   000057 740100                    STX0    47,,PR0

     3039     5268    1      I=I*4;

   5268  1 000073   200006 236100                    LDQ     I,,AUTO
         1 000074   000002 736000                    QLS     2
         1 000075   200006 756100                    STQ     I,,AUTO

     3040     5269    1      START$->MOVEI='0'B;

PL6.E3A0      #008=FMO$FIELD_START_SETUP File=FMO$OBSE.:E05TSI                   TUE 07/29/97 16:59 Page:593
   5269  1 000076   200005 471500                    LDP1    START$,,AUTO
         1 000077   000000 621006                    EAX1    0,QL
         1 000100   000140 100400                    MLR     fill='000'O
         1 000101   000002 000001 xsym               ADSC9   B_VECTNIL+2              cn=0,n=1
         1 000102   100000 000011                    ADSC9   0,,PR1                   cn=0,n=*X1

     3041     5270    1      FIELD_START.NWORDS=I/4;

   5270  1 000103   200006 236100                    LDQ     I,,AUTO
         1 000104   000002 772000                    QRL     2
         1 000105   200005 471500                    LDP1    START$,,AUTO
         1 000106   100000 756100                    STQ     0,,PR1

     3042     5271
     3043     5272    1      REC_OFFSET=0;

   5272  1 000107   200010 450100                    STZ     REC_OFFSET,,AUTO

     3044     5273    1      I=0;

   5273  1 000110   200006 450100                    STZ     I,,AUTO

     3045     5274
     3046     5275    2      DO WHILE(I <= RECFIELD.NFIELDS-1);

   5275  1 000111   000232 710000 1                  TRA     s:5313

     3047     5276
     3048     5277    3         DO CASE(RECFIELD.FIELD.TYPE(I));

   5277  1 000112   200006 236100                    LDQ     I,,AUTO
         1 000113   000003 402007                    MPY     3,DL
         1 000114   200004 470500                    LDP0    FIELD$,,AUTO
         1 000115   000100 101506                    MRL     fill='000'O
         1 000116   000001 020001                    ADSC6   1,Q,PR0                  cn=0,n=1
         1 000117   200020 020006                    ADSC6   EVEN+2,,AUTO             cn=0,n=6
         1 000120   200020 236100                    LDQ     EVEN+2,,AUTO
PL6.E3A0      #008=FMO$FIELD_START_SETUP File=FMO$OBSE.:E05TSI                   TUE 07/29/97 16:59 Page:594
         1 000121   000057 136007                    SBLQ    47,DL
         1 000122   000002 116007                    CMPQ    2,DL
         1 000123   000125 602006 1                  TNC     s:5277+11,QL
         1 000124   000223 710000 1                  TRA     s:5308
         1 000125   000127 710000 1                  TRA     s:5283
         1 000126   000200 710000 1                  TRA     s:5297

     3049     5278
     3050     5279    3         CASE(%LIST_DATATYPE);

     3051     5280                    /* Since the next entry defines the elements of the array,
     3052     5281                       set up the first element so we can get REC_OFFSET
     3053     5282                       for the list.                                       */
     3054     5283    3            CALL FIELD_START_SETUP(I+1);

   5283  1 000127   200006 235100                    LDA     I,,AUTO
         1 000130   000001 035007                    ADLA    1,DL
         1 000131   200022 755100                    STA     EVEN+4,,AUTO
         1 000132   200022 631500                    EPPR1   EVEN+4,,AUTO
         1 000133   200013 451500                    STP1    REC_OFFSET+3,,AUTO
         1 000134   000241 701000 1                  TSX1    FIELD_START_SETUP
         1 000135   000000 011000                    NOP     0

     3055     5284    3            FIELD_START.OFFSET(I)=FIELD_START.OFFSET(I+1);

   5284  1 000136   200005 470500                    LDP0    START$,,AUTO
         1 000137   200006 720100                    LXL0    I,,AUTO
         1 000140   000002 235110                    LDA     2,X0,PR0
         1 000141   000001 755110                    STA     1,X0,PR0

     3056     5285                    /* Now, do the remaining number of list elements so
     3057     5286                       REC_OFFSET will be right for the next non-element
     3058     5287                       field following this list.                          */
     3059     5288    4            DO J=2 TO RECFIELD.FIELD.LEN(I);

   5288  1 000142   000002 235007                    LDA     2,DL
         1 000143   200007 755100                    STA     J,,AUTO
PL6.E3A0      #008=FMO$FIELD_START_SETUP File=FMO$OBSE.:E05TSI                   TUE 07/29/97 16:59 Page:595
         1 000144   000157 710000 1                  TRA     s:5290+3

     3060     5289    4               CALL FIELD_START_SETUP(I+1);

   5289  1 000145   200006 235100                    LDA     I,,AUTO
         1 000146   000001 035007                    ADLA    1,DL
         1 000147   200023 755100                    STA     EVEN+5,,AUTO
         1 000150   200023 630500                    EPPR0   EVEN+5,,AUTO
         1 000151   200013 450500                    STP0    REC_OFFSET+3,,AUTO
         1 000152   000241 701000 1                  TSX1    FIELD_START_SETUP
         1 000153   000000 011000                    NOP     0

     3061     5290    4               END;

   5290  1 000154   200007 235100                    LDA     J,,AUTO
         1 000155   000001 035007                    ADLA    1,DL
         1 000156   200007 755100                    STA     J,,AUTO
         1 000157   200006 236100                    LDQ     I,,AUTO
         1 000160   000003 402007                    MPY     3,DL
         1 000161   200004 470500                    LDP0    FIELD$,,AUTO
         1 000162   000100 101506                    MRL     fill='000'O
         1 000163   000001 120002                    ADSC6   1,Q,PR0                  cn=1,n=2
         1 000164   200020 020006                    ADSC6   EVEN+2,,AUTO             cn=0,n=6
         1 000165   200020 236100                    LDQ     EVEN+2,,AUTO
         1 000166   200007 116100                    CMPQ    J,,AUTO
         1 000167   000145 603000 1                  TRC     s:5289

     3062     5291                    /* Set the offset for the element definition back to what
     3063     5292                       it was for the first element.                       */
     3064     5293    3            FIELD_START.OFFSET(I+1)=FIELD_START.OFFSET(I);

   5293  1 000170   200005 471500                    LDP1    START$,,AUTO
         1 000171   200006 720100                    LXL0    I,,AUTO
         1 000172   100001 235110                    LDA     1,X0,PR1
         1 000173   100002 755110                    STA     2,X0,PR1

     3065     5294    3            I=I+1;
PL6.E3A0      #008=FMO$FIELD_START_SETUP File=FMO$OBSE.:E05TSI                   TUE 07/29/97 16:59 Page:596

   5294  1 000174   200006 235100                    LDA     I,,AUTO
         1 000175   000001 035007                    ADLA    1,DL
         1 000176   200006 755100                    STA     I,,AUTO
         1 000177   000227 710000 1                  TRA     s:5312

     3066     5295
     3067     5296    3         CASE(%VLIST_DATATYPE);

     3068     5297    3            CALL FIELD_START_SETUP(I+1);

   5297  1 000200   200006 235100                    LDA     I,,AUTO
         1 000201   000001 035007                    ADLA    1,DL
         1 000202   200024 755100                    STA     EVEN+6,,AUTO
         1 000203   200024 631500                    EPPR1   EVEN+6,,AUTO
         1 000204   200013 451500                    STP1    REC_OFFSET+3,,AUTO
         1 000205   000241 701000 1                  TSX1    FIELD_START_SETUP
         1 000206   000000 011000                    NOP     0

     3069     5298    3            FIELD_START.OFFSET(I)=FIELD_START.OFFSET(I+1);

   5298  1 000207   200005 470500                    LDP0    START$,,AUTO
         1 000210   200006 720100                    LXL0    I,,AUTO
         1 000211   000002 235110                    LDA     2,X0,PR0
         1 000212   000001 755110                    STA     1,X0,PR0

     3070     5299                    /* Since the count field is a separate field entirely,
     3071     5300                       set REC_OFFSET back so we add in the length of zero
     3072     5301                       elements at initialization. So, REC_OFFSET will
     3073     5302                       only have been affected by the alignment requirements
     3074     5303                       of the element type.                               */
     3075     5304    3            REC_OFFSET=FIELD_START.OFFSET(I);

   5304  1 000213   200005 470500                    LDP0    START$,,AUTO
         1 000214   200006 720100                    LXL0    I,,AUTO
         1 000215   000001 235110                    LDA     1,X0,PR0
         1 000216   200010 755100                    STA     REC_OFFSET,,AUTO
PL6.E3A0      #008=FMO$FIELD_START_SETUP File=FMO$OBSE.:E05TSI                   TUE 07/29/97 16:59 Page:597

     3076     5305    3            I=I+1;

   5305  1 000217   200006 236100                    LDQ     I,,AUTO
         1 000220   000001 036007                    ADLQ    1,DL
         1 000221   200006 756100                    STQ     I,,AUTO
         1 000222   000227 710000 1                  TRA     s:5312

     3077     5306
     3078     5307    3         CASE(ELSE);

     3079     5308    3            CALL FIELD_START_SETUP(I);

   5308  1 000223   200006 631500                    EPPR1   I,,AUTO
         1 000224   200013 451500                    STP1    REC_OFFSET+3,,AUTO
         1 000225   000241 701000 1                  TSX1    FIELD_START_SETUP
         1 000226   000000 011000                    NOP     0

     3080     5309
     3081     5310    3         END;  /* Do Case */

     3082     5311
     3083     5312    2         I=I+1;

   5312  1 000227   200006 235100                    LDA     I,,AUTO
         1 000230   000001 035007                    ADLA    1,DL
         1 000231   200006 755100                    STA     I,,AUTO

     3084     5313    2         END;  /* Do While */

   5313  1 000232   200004 470500                    LDP0    FIELD$,,AUTO
         1 000233   000000 236100                    LDQ     0,,PR0
         1 000234   000032 376000 xsym               ANQ     B_VECTNIL+26
         1 000235   200006 116100                    CMPQ    I,,AUTO
         1 000236   000240 600000 1                  TZE     s:5315
         1 000237   000112 603000 1                  TRC     s:5277

PL6.E3A0      #008=FMO$FIELD_START_SETUP File=FMO$OBSE.:E05TSI                   TUE 07/29/97 16:59 Page:598
     3085     5314
     3086     5315    1      RETURN;

   5315  1 000240   000000 702200 xent               TSX2  ! X66_ARET

     3087     5316        %EJECT;
PL6.E3A0      #008=FMO$FIELD_START_SETUP File=FMO$OBSE.:E05TSI                   TUE 07/29/97 16:59 Page:599
     3088     5317    1   FIELD_START_SETUP: PROC(K);

   5317  1 000241   200012 741300       FIELD_START* STX1  ! REC_OFFSET+2,,AUTO

     3089     5318                    /**/
     3090     5319    2   DCL K UBIN;
     3091     5320                    /**/
     3092     5321
     3093     5322    3      DO CASE(RECFIELD.FIELD.TYPE(K));

   5322  1 000242   200013 470500                    LDP0    @K,,AUTO
         1 000243   000000 236100                    LDQ     0,,PR0
         1 000244   000003 402007                    MPY     3,DL
         1 000245   200004 471500                    LDP1    FIELD$,,AUTO
         1 000246   000100 101506                    MRL     fill='000'O
         1 000247   100001 020001                    ADSC6   1,Q,PR1                  cn=0,n=1
         1 000250   200020 020003                    ADSC6   EVEN+2,,AUTO             cn=0,n=3
         1 000251   200020 220100                    LDX0    EVEN+2,,AUTO
         1 000252   000072 100003                    CMPX0   58,DU
         1 000253   000255 602010 1                  TNC     s:5322+11,X0
         1 000254   000524 710000 1                  TRA     s:5371
         1 000255   000347 710000 1                  TRA     s:5325
         1 000256   000367 710000 1                  TRA     s:5329
         1 000257   000524 710000 1                  TRA     s:5371
         1 000260   000406 710000 1                  TRA     s:5333
         1 000261   000415 710000 1                  TRA     s:5337
         1 000262   000524 710000 1                  TRA     s:5371
         1 000263   000524 710000 1                  TRA     s:5371
         1 000264   000524 710000 1                  TRA     s:5371
         1 000265   000524 710000 1                  TRA     s:5371
         1 000266   000424 710000 1                  TRA     s:5342
         1 000267   000424 710000 1                  TRA     s:5342
         1 000270   000524 710000 1                  TRA     s:5371
         1 000271   000524 710000 1                  TRA     s:5371
         1 000272   000524 710000 1                  TRA     s:5371
         1 000273   000524 710000 1                  TRA     s:5371
         1 000274   000524 710000 1                  TRA     s:5371
PL6.E3A0      #008=FMO$FIELD_START_SETUP File=FMO$OBSE.:E05TSI                   TUE 07/29/97 16:59 Page:600
         1 000275   000524 710000 1                  TRA     s:5371
         1 000276   000524 710000 1                  TRA     s:5371
         1 000277   000524 710000 1                  TRA     s:5371
         1 000300   000524 710000 1                  TRA     s:5371
         1 000301   000524 710000 1                  TRA     s:5371
         1 000302   000347 710000 1                  TRA     s:5325
         1 000303   000467 710000 1                  TRA     s:5357
         1 000304   000524 710000 1                  TRA     s:5371
         1 000305   000367 710000 1                  TRA     s:5329
         1 000306   000424 710000 1                  TRA     s:5342
         1 000307   000524 710000 1                  TRA     s:5371
         1 000310   000524 710000 1                  TRA     s:5371
         1 000311   000524 710000 1                  TRA     s:5371
         1 000312   000524 710000 1                  TRA     s:5371
         1 000313   000524 710000 1                  TRA     s:5371
         1 000314   000424 710000 1                  TRA     s:5342
         1 000315   000524 710000 1                  TRA     s:5371
         1 000316   000524 710000 1                  TRA     s:5371
         1 000317   000524 710000 1                  TRA     s:5371
         1 000320   000524 710000 1                  TRA     s:5371
         1 000321   000524 710000 1                  TRA     s:5371
         1 000322   000524 710000 1                  TRA     s:5371
         1 000323   000524 710000 1                  TRA     s:5371
         1 000324   000524 710000 1                  TRA     s:5371
         1 000325   000424 710000 1                  TRA     s:5342
         1 000326   000505 710000 1                  TRA     s:5366
         1 000327   000505 710000 1                  TRA     s:5366
         1 000330   000505 710000 1                  TRA     s:5366
         1 000331   000505 710000 1                  TRA     s:5366
         1 000332   000505 710000 1                  TRA     s:5366
         1 000333   000524 710000 1                  TRA     s:5371
         1 000334   000524 710000 1                  TRA     s:5371
         1 000335   000524 710000 1                  TRA     s:5371
         1 000336   000524 710000 1                  TRA     s:5371
         1 000337   000505 710000 1                  TRA     s:5366
         1 000340   000424 710000 1                  TRA     s:5342
         1 000341   000524 710000 1                  TRA     s:5371
PL6.E3A0      #008=FMO$FIELD_START_SETUP File=FMO$OBSE.:E05TSI                   TUE 07/29/97 16:59 Page:601
         1 000342   000524 710000 1                  TRA     s:5371
         1 000343   000415 710000 1                  TRA     s:5337
         1 000344   000406 710000 1                  TRA     s:5333
         1 000345   000476 710000 1                  TRA     s:5361
         1 000346   000415 710000 1                  TRA     s:5337

     3094     5323
     3095     5324    3      CASE(%NO_DATATYPE,%CHAR_DATATYPE);

     3096     5325    3         CALL SET_FIELD_START(%BYTE_ALIGNED);

   5325  1 000347   000000 236000 2                  LDQ     0
         1 000350   200015 756100                    STQ     @K+2,,AUTO
         1 000351   000526 701000 1                  TSX1    SET_FIELD_START
         1 000352   000000 011000                    NOP     0

     3097     5326    3         REC_OFFSET=REC_OFFSET + (RECFIELD.FIELD.LEN(K)*9);

   5326  1 000353   200013 470500                    LDP0    @K,,AUTO
         1 000354   000000 236100                    LDQ     0,,PR0
         1 000355   000003 402007                    MPY     3,DL
         1 000356   200004 471500                    LDP1    FIELD$,,AUTO
         1 000357   000100 101506                    MRL     fill='000'O
         1 000360   100001 120002                    ADSC6   1,Q,PR1                  cn=1,n=2
         1 000361   200020 020006                    ADSC6   EVEN+2,,AUTO             cn=0,n=6
         1 000362   200020 236100                    LDQ     EVEN+2,,AUTO
         1 000363   000011 402007                    MPY     9,DL
         1 000364   200010 036100                    ADLQ    REC_OFFSET,,AUTO
         1 000365   200010 756100                    STQ     REC_OFFSET,,AUTO
         1 000366   000524 710000 1                  TRA     s:5371

     3098     5327
     3099     5328    3      CASE(%SBIN_DATATYPE,%UBIN_DATATYPE);

     3100     5329    3         CALL SET_FIELD_START(%BIT_ALIGNED);

   5329  1 000367   000001 236000 2                  LDQ     1
PL6.E3A0      #008=FMO$FIELD_START_SETUP File=FMO$OBSE.:E05TSI                   TUE 07/29/97 16:59 Page:602
         1 000370   200015 756100                    STQ     @K+2,,AUTO
         1 000371   000526 701000 1                  TSX1    SET_FIELD_START
         1 000372   000000 011000                    NOP     0

     3101     5330    3         REC_OFFSET=REC_OFFSET + RECFIELD.FIELD.LEN(K);

   5330  1 000373   200013 470500                    LDP0    @K,,AUTO
         1 000374   000000 236100                    LDQ     0,,PR0
         1 000375   000003 402007                    MPY     3,DL
         1 000376   200004 471500                    LDP1    FIELD$,,AUTO
         1 000377   000100 101506                    MRL     fill='000'O
         1 000400   100001 120002                    ADSC6   1,Q,PR1                  cn=1,n=2
         1 000401   200020 020006                    ADSC6   EVEN+2,,AUTO             cn=0,n=6
         1 000402   200020 236100                    LDQ     EVEN+2,,AUTO
         1 000403   200010 036100                    ADLQ    REC_OFFSET,,AUTO
         1 000404   200010 756100                    STQ     REC_OFFSET,,AUTO
         1 000405   000524 710000 1                  TRA     s:5371

     3102     5331
     3103     5332    3      CASE(%SFLT_DATATYPE,%UTS_DATATYPE);

     3104     5333    3         CALL SET_FIELD_START(%BYTE_ALIGNED);

   5333  1 000406   000000 236000 2                  LDQ     0
         1 000407   200015 756100                    STQ     @K+2,,AUTO
         1 000410   000526 701000 1                  TSX1    SET_FIELD_START
         1 000411   000000 011000                    NOP     0

     3105     5334    3         REC_OFFSET=REC_OFFSET + 36;

   5334  1 000412   000044 236007                    LDQ     36,DL
         1 000413   200010 056100                    ASQ     REC_OFFSET,,AUTO
         1 000414   000524 710000 1                  TRA     s:5371

     3106     5335
     3107     5336    3      CASE(%DFLT_DATATYPE,%DATE_DATATYPE,%TIME_DATATYPE);

PL6.E3A0      #008=FMO$FIELD_START_SETUP File=FMO$OBSE.:E05TSI                   TUE 07/29/97 16:59 Page:603
     3108     5337    3         CALL SET_FIELD_START(%BYTE_ALIGNED);

   5337  1 000415   000000 236000 2                  LDQ     0
         1 000416   200015 756100                    STQ     @K+2,,AUTO
         1 000417   000526 701000 1                  TSX1    SET_FIELD_START
         1 000420   000000 011000                    NOP     0

     3109     5338    3         REC_OFFSET=REC_OFFSET + 72;

   5338  1 000421   000110 236007                    LDQ     72,DL
         1 000422   200010 056100                    ASQ     REC_OFFSET,,AUTO
         1 000423   000524 710000 1                  TRA     s:5371

     3110     5339
     3111     5340    3      CASE(%PDLA_DATATYPE,%PDTA_DATATYPE,%PDLE_DATATYPE,

     3112     5341    3           %PDTE_DATATYPE,%PDFLT_DATATYPE,%PDNS_DATATYPE);
     3113     5342    3         CALL SET_FIELD_START(%NIBBLE_ALIGNED);

   5342  1 000424   000002 236000 2                  LDQ     2
         1 000425   200015 756100                    STQ     @K+2,,AUTO
         1 000426   000526 701000 1                  TSX1    SET_FIELD_START
         1 000427   000000 011000                    NOP     0

     3114     5343                    /* Compute the bit length for this packed field.  First,
     3115     5344                       add in the bit length of the even number of bytes in the
     3116     5345                       field. If the field length is even, we're done. Otherwise,
     3117     5346                       we need to know if the field started on an even nibble
     3118     5347                       (byte) or odd nibble boundary so we can tell whether to
     3119     5348                       add 5 bits or 4 bits to the bit length to account for the
     3120     5349                       extra nibble.                                         */
     3121     5350    3         REC_OFFSET=REC_OFFSET + ((RECFIELD.DECFIELD.LEN(K)/2)*9);

   5350  1 000430   200013 470500                    LDP0    @K,,AUTO
         1 000431   000000 236100                    LDQ     0,,PR0
         1 000432   000003 402007                    MPY     3,DL
         1 000433   200004 471500                    LDP1    FIELD$,,AUTO
PL6.E3A0      #008=FMO$FIELD_START_SETUP File=FMO$OBSE.:E05TSI                   TUE 07/29/97 16:59 Page:604
         1 000434   000100 101506                    MRL     fill='000'O
         1 000435   100001 120001                    ADSC6   1,Q,PR1                  cn=1,n=1
         1 000436   200020 020006                    ADSC6   EVEN+2,,AUTO             cn=0,n=6
         1 000437   200020 236100                    LDQ     EVEN+2,,AUTO
         1 000440   000001 772000                    QRL     1
         1 000441   000011 402007                    MPY     9,DL
         1 000442   200010 036100                    ADLQ    REC_OFFSET,,AUTO
         1 000443   200010 756100                    STQ     REC_OFFSET,,AUTO

     3122     5351    3         IF MOD(RECFIELD.DECFIELD.LEN(K),2)~=0 THEN /* odd length */

   5351  1 000444   000000 236100                    LDQ     0,,PR0
         1 000445   000003 402007                    MPY     3,DL
         1 000446   000100 101506                    MRL     fill='000'O
         1 000447   100001 120001                    ADSC6   1,Q,PR1                  cn=1,n=1
         1 000450   200020 020006                    ADSC6   EVEN+2,,AUTO             cn=0,n=6
         1 000451   200020 236100                    LDQ     EVEN+2,,AUTO
         1 000452   000001 376007                    ANQ     1,DL
         1 000453   000524 600000 1                  TZE     s:5371

     3123     5352    3            IF MOD(REC_OFFSET,9)=0 THEN

   5352  1 000454   200010 236100                    LDQ     REC_OFFSET,,AUTO
         1 000455   000011 506007                    DIV     9,DL
         1 000456   000044 733000                    LRS     36
         1 000457   000000 116003                    CMPQ    0,DU
         1 000460   000464 601000 1                  TNZ     s:5354

     3124     5353    3               REC_OFFSET=REC_OFFSET+5; /* even nibble boundary */

   5353  1 000461   000005 236007                    LDQ     5,DL
         1 000462   200010 056100                    ASQ     REC_OFFSET,,AUTO
         1 000463   000524 710000 1                  TRA     s:5371

     3125     5354    3            ELSE REC_OFFSET=REC_OFFSET+4; /* odd nibble boundary */

   5354  1 000464   000004 236007                    LDQ     4,DL
PL6.E3A0      #008=FMO$FIELD_START_SETUP File=FMO$OBSE.:E05TSI                   TUE 07/29/97 16:59 Page:605
         1 000465   200010 056100                    ASQ     REC_OFFSET,,AUTO
         1 000466   000524 710000 1                  TRA     s:5371

     3126     5355
     3127     5356    3      CASE(%TEXTC_DATATYPE);

     3128     5357    3         CALL SET_FIELD_START(%BYTE_ALIGNED);

   5357  1 000467   000000 236000 2                  LDQ     0
         1 000470   200015 756100                    STQ     @K+2,,AUTO
         1 000471   000526 701000 1                  TSX1    SET_FIELD_START
         1 000472   000000 011000                    NOP     0

     3129     5358    3         REC_OFFSET=REC_OFFSET + 9; /* For initialization */

   5358  1 000473   000011 236007                    LDQ     9,DL
         1 000474   200010 056100                    ASQ     REC_OFFSET,,AUTO
         1 000475   000524 710000 1                  TRA     s:5371

     3130     5359
     3131     5360    3      CASE(%TEXTH_DATATYPE);

     3132     5361    3         CALL SET_FIELD_START(%BYTE_ALIGNED);

   5361  1 000476   000000 236000 2                  LDQ     0
         1 000477   200015 756100                    STQ     @K+2,,AUTO
         1 000500   000526 701000 1                  TSX1    SET_FIELD_START
         1 000501   000000 011000                    NOP     0

     3133     5362    3         REC_OFFSET=REC_OFFSET + 18; /* For initialization */

   5362  1 000502   000022 236007                    LDQ     18,DL
         1 000503   200010 056100                    ASQ     REC_OFFSET,,AUTO
         1 000504   000524 710000 1                  TRA     s:5371

     3134     5363
     3135     5364    3      CASE(%UDNS_DATATYPE,%UDLS_DATATYPE,%UDTS_DATATYPE,
PL6.E3A0      #008=FMO$FIELD_START_SETUP File=FMO$OBSE.:E05TSI                   TUE 07/29/97 16:59 Page:606

     3136     5365    3           %UDLO_DATATYPE,%UDTO_DATATYPE,%UDFLT_DATATYPE);
     3137     5366    3         CALL SET_FIELD_START(%BYTE_ALIGNED);

   5366  1 000505   000000 236000 2                  LDQ     0
         1 000506   200015 756100                    STQ     @K+2,,AUTO
         1 000507   000526 701000 1                  TSX1    SET_FIELD_START
         1 000510   000000 011000                    NOP     0

     3138     5367    3         REC_OFFSET=REC_OFFSET + (RECFIELD.DECFIELD.LEN(K)*9);

   5367  1 000511   200013 470500                    LDP0    @K,,AUTO
         1 000512   000000 236100                    LDQ     0,,PR0
         1 000513   000003 402007                    MPY     3,DL
         1 000514   200004 471500                    LDP1    FIELD$,,AUTO
         1 000515   000100 101506                    MRL     fill='000'O
         1 000516   100001 120001                    ADSC6   1,Q,PR1                  cn=1,n=1
         1 000517   200020 020006                    ADSC6   EVEN+2,,AUTO             cn=0,n=6
         1 000520   200020 236100                    LDQ     EVEN+2,,AUTO
         1 000521   000011 402007                    MPY     9,DL
         1 000522   200010 036100                    ADLQ    REC_OFFSET,,AUTO
         1 000523   200010 756100                    STQ     REC_OFFSET,,AUTO

     3139     5368
     3140     5369    3      END;     /* Do Case */

     3141     5370
     3142     5371    2      RETURN;

   5371  1 000524   200012 221300                    LDX1  ! REC_OFFSET+2,,AUTO
         1 000525   000001 702211                    TSX2  ! 1,X1

     3143     5372        %EJECT;
PL6.E3A0      #008=FMO$FIELD_START_SETUP File=FMO$OBSE.:E05TSI                   TUE 07/29/97 16:59 Page:607
     3144     5373    2   SET_FIELD_START: PROC (ALIGN_TYPE);

   5373  1 000526   200014 741300       SET_FIELD_S* STX1  ! @K+1,,AUTO

     3145     5374                    /**/
     3146     5375    3   DCL ALIGN_TYPE UBIN;
     3147     5376                    /**/
     3148     5377    3   DCL EVEN UBIN;
     3149     5378                    /**/
     3150     5379
     3151     5380    4      DO CASE(ALIGN_TYPE);

   5380  1 000527   200015 470500                    LDP0    @ALIGN_TYPE,,AUTO
         1 000530   000000 235100                    LDA     0,,PR0
         1 000531   000003 115007                    CMPA    3,DL
         1 000532   000534 602005 1                  TNC     s:5380+5,AL
         1 000533   000601 710000 1                  TRA     s:5397
         1 000534   000601 710000 1                  TRA     s:5397
         1 000535   000537 710000 1                  TRA     s:5382
         1 000536   000552 710000 1                  TRA     s:5386

     3152     5381    4      CASE(%BYTE_ALIGNED);

     3153     5382    4         IF MOD(REC_OFFSET,9)~=0 THEN

   5382  1 000537   200010 236100                    LDQ     REC_OFFSET,,AUTO
         1 000540   000011 506007                    DIV     9,DL
         1 000541   000044 733000                    LRS     36
         1 000542   000000 116003                    CMPQ    0,DU
         1 000543   000601 600000 1                  TZE     s:5397

     3154     5383    4            REC_OFFSET=((REC_OFFSET/9)*9) + 9;

   5383  1 000544   200010 236100                    LDQ     REC_OFFSET,,AUTO
         1 000545   000011 506007                    DIV     9,DL
         1 000546   000011 402007                    MPY     9,DL
         1 000547   000011 036007                    ADLQ    9,DL
PL6.E3A0      #008=FMO$FIELD_START_SETUP File=FMO$OBSE.:E05TSI                   TUE 07/29/97 16:59 Page:608
         1 000550   200010 756100                    STQ     REC_OFFSET,,AUTO
         1 000551   000601 710000 1                  TRA     s:5397

     3155     5384
     3156     5385    4      CASE(%NIBBLE_ALIGNED);

     3157     5386    4         EVEN=(REC_OFFSET/9)*9;

   5386  1 000552   200010 236100                    LDQ     REC_OFFSET,,AUTO
         1 000553   000011 506007                    DIV     9,DL
         1 000554   000011 402007                    MPY     9,DL
         1 000555   200016 756100                    STQ     EVEN,,AUTO

     3158     5387    4         IF REC_OFFSET > EVEN AND REC_OFFSET < EVEN+5 THEN

   5387  1 000556   000000 116003                    CMPQ    0,DU
         1 000557   000570 604000 1                  TMI     s:5389
         1 000560   200010 116100                    CMPQ    REC_OFFSET,,AUTO
         1 000561   000570 605000 1                  TPL     s:5389
         1 000562   000005 036007                    ADLQ    5,DL
         1 000563   000566 604000 1                  TMI     s:5388
         1 000564   200010 116100                    CMPQ    REC_OFFSET,,AUTO
         1 000565   000570 604400 1                  TMOZ    s:5389

     3159     5388    4            REC_OFFSET=EVEN+5;

   5388  1 000566   200010 756100                    STQ     REC_OFFSET,,AUTO
         1 000567   000601 710000 1                  TRA     s:5397

     3160     5389    4         ELSE IF REC_OFFSET > EVEN+5 THEN

   5389  1 000570   200016 236100                    LDQ     EVEN,,AUTO
         1 000571   000005 036007                    ADLQ    5,DL
         1 000572   000601 604000 1                  TMI     s:5397
         1 000573   200010 116100                    CMPQ    REC_OFFSET,,AUTO
         1 000574   000601 605000 1                  TPL     s:5397

PL6.E3A0      #008=FMO$FIELD_START_SETUP File=FMO$OBSE.:E05TSI                   TUE 07/29/97 16:59 Page:609
     3161     5390    4               REC_OFFSET=EVEN+9;

   5390  1 000575   200016 235100                    LDA     EVEN,,AUTO
         1 000576   000011 035007                    ADLA    9,DL
         1 000577   200010 755100                    STA     REC_OFFSET,,AUTO
         1 000600   000601 710000 1                  TRA     s:5397

     3162     5391
     3163     5392    4      CASE(%BIT_ALIGNED);

     3164     5393                    /* Don't need to do anything. */
     3165     5394
     3166     5395    4      END;     /* Do Case */

     3167     5396
     3168     5397    3      FIELD_START.OFFSET(K)=REC_OFFSET; /* K defined in FIELD_START_SETUP */

   5397  1 000601   200013 471500                    LDP1    @K,,AUTO
         1 000602   100000 720100                    LXL0    0,,PR1
         1 000603   200005 473500                    LDP3    START$,,AUTO
         1 000604   200010 235100                    LDA     REC_OFFSET,,AUTO
         1 000605   300001 755110                    STA     1,X0,PR3

     3169     5398    3      RETURN;

   5398  1 000606   200014 221300                    LDX1  ! @K+1,,AUTO
         1 000607   000001 702211                    TSX2  ! 1,X1
     3170     5399
     3171     5400    3   END SET_FIELD_START;
     3172     5401
     3173     5402    2   END FIELD_START_SETUP;
     3174     5403
     3175     5404    1   END FMO$FIELD_START_SETUP;

PL6.E3A0      #008=FMO$FIELD_START_SETUP File=FMO$OBSE.:E05TSI                   TUE 07/29/97 16:59 Page:610
--  Include file information  --

   B$OBJECT_C.:E05TOU  is referenced.
   FM_FIELD_C.:E05TOU  is referenced.
   FM$MACROS.:E05TOU  is referenced.
   F_ERRORS_C.:E05TOU  is referenced.
   F$DCB.:E05TOU  is referenced.
   B$JIT_C.:E05TOU  is referenced.
   B$JIT.:E05TOU  cannot be made into a system file and is referenced.
   F$CP6V_C.:E05TOU  is referenced.
      No diagnostics issued in procedure FMO$FIELD_START_SETUP.
PL6.E3A0      #008=FMO$FIELD_START_SETUP File=FMO$OBSE.:E05TSI                   TUE 07/29/97 16:59 Page:611

 **** Variables and constants ****

  ****  Section 000 RoData FMO$FIELD_START_SETUP

  ****  Scalars and arrays  ****
OctLoc.c.b A Datatyp(siz) R M Lvl/name                 OctLoc.c.b A Datatyp(siz) R M Lvl/name

     0-0-0/b STRC        r     1 FMO$E$NOFLD

  ****  Auto variables  ****

  ****  Scalars and arrays  ****
OctLoc.c.b A Datatyp(siz) R M Lvl/name                 OctLoc.c.b A Datatyp(siz) R M Lvl/name

    15-0-0/w PTR         r     1 @ALIGN_TYPE               13-0-0/w PTR         r     1 @K
    *0-0-0/w UBIN        r     1 ALIGN_TYPE                16-0-0/w UBIN        r     1 EVEN
     4-0-0/w PTR         r     1 FIELD$                     6-0-0/w UBIN        r     1 I
     7-0-0/w UBIN        r     1 J                          3-0-0/w PTR         r     1 JDCB$
    *0-0-0/w UBIN        r     1 K                         10-0-0/w SBIN        r     1 REC_OFFSET
     5-0-0/w PTR         r     1 START$

  ****  SYMREF variables  ****

  ****  Scalars and arrays  ****
OctLoc.c.b A Datatyp(siz) R M Lvl/name                 OctLoc.c.b A Datatyp(siz) R M Lvl/name

     0-0-0/w PTR         r     1 B$JIT$                     0-0-0/w PTR         r     1 B$ROSEG$

  ****  BASED and DCB variables  ****

  ****  Scalars and arrays  ****
OctLoc.c.b A Datatyp(siz) R M Lvl/name                 OctLoc.c.b A Datatyp(siz) R M Lvl/name

     0-0-0/d STRC(8856)  r     1 B$JIT                      0-0-0/d ASTR(3528)  r     1 F$DCB
     0-0-0/w STRC(72)    r     1 FIELD_START                0-0-0/w ASTR(0)     r     1 MOVEI
     0-0-0/d STRC(54)    r     1 RECFIELD

PL6.E3A0      #008=FMO$FIELD_START_SETUP File=FMO$OBSE.:E05TSI                   TUE 07/29/97 16:59 Page:612

   Procedure FMO$FIELD_START_SETUP requires 392 words for executable code.
   Procedure FMO$FIELD_START_SETUP requires 22 words of local(AUTO) storage.

    No errors detected in file FMO$OBSE.:E05TSI    .
PL6.E3A0      #008=FMO$FIELD_START_SETUP File=FMO$OBSE.:E05TSI                   TUE 07/29/97 16:59 Page:613
          *** CROSS REFERENCE LISTING ***
**     DENOTES     IDENTIFIER DEFINITION
<<                 IDENTIFIER'S VALUE SET
>>                 IDENTIFIER'S VALUE USED
<>                 IDENTIFIER SET AND/OR USED
--                 IDENTIFIER REFERENCED
PL6.E3A0      #008=FMO$FIELD_START_SETUP File=FMO$OBSE.:E05TSI                   TUE 07/29/97 16:59 Page:614
          MINI XREF LISTING

ALIGN_TYPE IN PROCEDURE SET_FIELD_START
      5375**DCL      5373--PROC     5380>>DOCASE
B$JIT.CPFLAGS1.SLEAZE
       708**DCL       708--REDEF
B$JIT.DCB$
       782**DCL      5251>>ASSIGN
B$JIT.ERR
       614**DCL      5259<<ASSIGN
B$JIT.ERR.MID
       615**DCL       615--REDEF
B$JIT.JRESPEAK
       776**DCL       777--REDEF
B$JIT.ORIGINATOR_PORT.FROM_CR
       885**DCL       885--REDEF     886--REDEF
B$JIT.PNR
       789**DCL       789--REDEF
B$JIT.TSLINE
       883**DCL       884--REDEF
B$JIT$
      5233**DCL       609--IMP-PTR  5251>>ASSIGN   5259>>ASSIGN
B$ROSEG$
      5234**DCL      5253>>ASSIGN   5262>>ASSIGN   5267>>ASSIGN
EVEN IN PROCEDURE SET_FIELD_START
      5377**DCL      5386<<ASSIGN   5387>>IF       5387>>IF       5388>>ASSIGN   5389>>IF       5390>>ASSIGN
F$DCB.ACTPOS
      5195**DCL      5195--REDEF
F$DCB.ARS
      5170**DCL      5170--REDEF
F$DCB.ATTR
      5188**DCL      5189--REDEF
F$DCB.BORROW
      5203**DCL      5203--REDEF    5203--REDEF    5203--REDEF
PL6.E3A0      #008=FMO$FIELD_START_SETUP File=FMO$OBSE.:E05TSI                   TUE 07/29/97 16:59 Page:615
F$DCB.DCBNAME.L
      5217**DCL      5217--IMP-SIZ
F$DCB.EOMCHAR
      5174**DCL      5174--REDEF
F$DCB.FIELDX
      5194**DCL      5258>>IF       5262>>ASSIGN
F$DCB.FLDID
      5198**DCL      5198--REDEF
F$DCB.FORM$
      5192**DCL      5192--REDEF
F$DCB.FSECT
      5208**DCL      5208--REDEF
F$DCB.FSN
      5185**DCL      5185--REDEF    5185--REDEF    5186--REDEF
F$DCB.HEADER$
      5191**DCL      5191--REDEF
F$DCB.IXTNSIZE
      5189**DCL      5189--REDEF
F$DCB.LASTSTA$
      5179**DCL      5179--REDEF
F$DCB.LVL
      5204**DCL      5204--REDEF
F$DCB.NAME.C
      5179**DCL      5179--REDEF
F$DCB.NOEOF
      5200**DCL      5200--REDEF
F$DCB.NRECS
      5190**DCL      5190--REDEF
F$DCB.NRECX
      5209**DCL      5209--REDEF
F$DCB.OHDR
      5201**DCL      5201--REDEF
F$DCB.ORG
      5184**DCL      5184--REDEF
F$DCB.PRECNO
      5207**DCL      5207--REDEF
PL6.E3A0      #008=FMO$FIELD_START_SETUP File=FMO$OBSE.:E05TSI                   TUE 07/29/97 16:59 Page:616
F$DCB.RCSZ
      5212**DCL      5212--REDEF
F$DCB.RES
      5180**DCL      5180--REDEF
F$DCB.SETX
      5192**DCL      5192--REDEF
F$DCB.STARTX
      5195**DCL      5252>>IF       5253>>ASSIGN   5256<<ASSIGN   5267<<ASSIGN
F$DCB.TAB$
      5191**DCL      5192--REDEF
F$DCB.TDA
      5206**DCL      5206--REDEF
F$DCB.WSN
      5181**DCL      5181--REDEF
FIELD$
      5225**DCL      5116--IMP-PTR  5262<<ASSIGN   5263>>ASSIGN   5275>>DOWHILE  5277>>DOCASE   5288>>DOINDEX
      5322>>DOCASE   5326>>ASSIGN   5330>>ASSIGN   5350>>ASSIGN   5351>>IF       5367>>ASSIGN
FIELD_START.NWORDS
      5161**DCL      5254>>ASSIGN   5270<<ASSIGN
FIELD_START.OFFSET
      5163**DCL      5284<<ASSIGN   5284>>ASSIGN   5293<<ASSIGN   5293>>ASSIGN   5298<<ASSIGN   5298>>ASSIGN
      5304>>ASSIGN   5397<<ASSIGN
FIELD_START_SETUP
      5317**PROC     5283--CALL     5289--CALL     5297--CALL     5308--CALL
FMO$E$NOFLD
      5247**DCL      5259>>ASSIGN
FSA$FSP
      5105**DCL-ENT  5255--CALL
FSA$GSP
      5106**DCL-ENT  5264--CALL
I
      5227**DCL      5220--IMP-SIZ  5254<<ASSIGN   5255<>CALL     5263<<ASSIGN   5264<>CALL     5268<<ASSIGN
      5268>>ASSIGN   5269>>ASSIGN   5270>>ASSIGN   5273<<ASSIGN   5275>>DOWHILE  5277>>DOCASE   5283>>CALL
      5284>>ASSIGN   5284>>ASSIGN   5288>>DOINDEX  5289>>CALL     5293>>ASSIGN   5293>>ASSIGN   5294<<ASSIGN
      5294>>ASSIGN   5297>>CALL     5298>>ASSIGN   5298>>ASSIGN   5304>>ASSIGN   5305<<ASSIGN   5305>>ASSIGN
      5308<>CALL     5312<<ASSIGN   5312>>ASSIGN
PL6.E3A0      #008=FMO$FIELD_START_SETUP File=FMO$OBSE.:E05TSI                   TUE 07/29/97 16:59 Page:617
J
      5228**DCL      5288<<DOINDEX
JDCB$
      5224**DCL      5170--IMP-PTR  5251<<ASSIGN   5252>>IF       5253>>ASSIGN   5256>>ASSIGN   5258>>IF
      5262>>ASSIGN   5267>>ASSIGN
K IN PROCEDURE FIELD_START_SETUP
      5319**DCL      5317--PROC     5322>>DOCASE   5326>>ASSIGN   5330>>ASSIGN   5350>>ASSIGN   5351>>IF
      5367>>ASSIGN   5397>>ASSIGN
MOVEI
      5219**DCL      5269<<ASSIGN
RECFIELD.DECFIELD.LEN
      5123**DCL      5350>>ASSIGN   5351>>IF       5367>>ASSIGN
RECFIELD.FIELD
      5123**DCL      5123--REDEF
RECFIELD.FIELD.LEN
      5123**DCL      5288>>DOINDEX  5326>>ASSIGN   5330>>ASSIGN
RECFIELD.FIELD.TYPE
      5123**DCL      5277>>DOCASE   5322>>DOCASE
RECFIELD.NFIELDS
      5116**DCL      5263>>ASSIGN   5275>>DOWHILE
REC_OFFSET
      5229**DCL      5272<<ASSIGN   5304<<ASSIGN   5326<<ASSIGN   5326>>ASSIGN   5330<<ASSIGN   5330>>ASSIGN
      5334<<ASSIGN   5334>>ASSIGN   5338<<ASSIGN   5338>>ASSIGN   5350<<ASSIGN   5350>>ASSIGN   5352>>IF
      5353<<ASSIGN   5353>>ASSIGN   5354<<ASSIGN   5354>>ASSIGN   5358<<ASSIGN   5358>>ASSIGN   5362<<ASSIGN
      5362>>ASSIGN   5367<<ASSIGN   5367>>ASSIGN   5382>>IF       5383<<ASSIGN   5383>>ASSIGN   5386>>ASSIGN
      5387>>IF       5387>>IF       5388<<ASSIGN   5389>>IF       5390<<ASSIGN   5397>>ASSIGN
SET_FIELD_START IN PROCEDURE FIELD_START_SETUP
      5373**PROC     5325--CALL     5329--CALL     5333--CALL     5337--CALL     5342--CALL     5357--CALL
      5361--CALL     5366--CALL
START$
      5226**DCL      5160--IMP-PTR  5253<<ASSIGN   5254>>ASSIGN   5255<>CALL     5264<>CALL     5267>>ASSIGN
      5269>>ASSIGN   5270>>ASSIGN   5284>>ASSIGN   5284>>ASSIGN   5293>>ASSIGN   5293>>ASSIGN   5298>>ASSIGN
      5298>>ASSIGN   5304>>ASSIGN   5397>>ASSIGN
