PL6.E3A0      #007=FMP$RENAME File=FMP$CLSF.:E05TSI                              TUE 07/29/97 16:59 Page:202
      901        1        /*T***********************************************************/
      902        2        /*T*                                                         */
      903        3        /*T* Copyright (c) Bull HN Information Systems Inc., 1997    */
      904        4        /*T*                                                         */
      905        5        /*T***********************************************************/
      906        6        FMP$RENAME: PROC(NAME$)ALTRET;
      907        7                    /*F*     NAME: FMP$RENAME
      908        8                    *        PURPOSE: To perform the FIT and directory manipulation
      909        9                    *        required for file name change and m$JRNL.
      910       10                    *        DESCRIPTION: The single parameter is a pointer to the new name.
      911       11                    *        The M$* DCB is used and must not be open.  The used DCB pointer
      912       12                    *        is in B$JIT.DCB$ and is not disturbed.  The new name must be in
      913       13                    *        the same directory as the old one (e.g., both star files).  The
      914       14                    *        new name must not refer to an existing or busy file.       */
      915       15    1   DCL NAME$ PTR;
      916       16        %INCLUDE FM$MACROS;
      917      391        %INCLUDE F_ERRORS_C;
      918      631        %INCLUDE F$JIT_C;
      919     1061        %INCLUDE JG_GHOSTS_C;
      920     1151        %MACRO F$DCB(BASED=,F$DCB=);
      921     1152        %INCLUDE F$DCB;
      922     1201        %MEND;
      923     1202        %F$DCB(F$DCB=S$DCB,BASED="BASED(SDCB$)");
      924     1252        %F$DCB(F$DCB=U$DCB,BASED="BASED(UDCB$)");
      925     1302        %FM$CFU(FM$CFU=S$CFU,BASED="BASED(SCFU$)");
      926     1308        %FM$CFU(FM$CFU=U$CFU,BASED="BASED(UCFU$)");
      927     1314        %FM$CFUJ(FM$CFUJ=U$CFUJ,BASED="BASED(UCFU$)");
      928     1319        %FM$CFUA(BASED="BASED(ACCT$)");
      929     1325        %FM$CFUEXT(BASED="BASED(LOC$)");
      930     1329        %FM$FIT(BASED="BASED(LOC$)");
      931     1332        %INCLUDE CP_6_SUBS;
      932     1872        %FM$KEYENT(BASED="BASED(BUF$)");
      933     1875        %FM$FDSEG(BASED="BASED(TMP$)");
      934     1879        %FM$GRAN(BASED="BASED(BUF$)");
      935     1883        %CODE01(BASED="BASED(LOC$)");
      936     1887        %CODE03(BASED="BASED(LOC$)");
      937     1894        %CODE04(BASED="BASED(LOC$)");
PL6.E3A0      #007=FMP$RENAME File=FMP$CLSF.:E05TSI                              TUE 07/29/97 16:59 Page:203
      938     1902    1   DCL 1 NAME BASED(NAME$),
      939     1903    1         2 L CHAR(1),
      940     1904    1         2 C CHAR(I);
      941     1905        %EJECT;
PL6.E3A0      #007=FMP$RENAME File=FMP$CLSF.:E05TSI                              TUE 07/29/97 16:59 Page:204
      942     1906    1   DCL I SBIN;
      943     1907    1   DCL 1 IC(0:3) REDEF I CHAR(1);
      944     1908    1   DCL IU REDEF I UBIN;
      945     1909    1   DCL BUFNO UBIN;
      946     1910    1   DCL UDCB$ PTR;
      947     1911    1   DCL SDCB$ PTR;
      948     1912    1   DCL UCFU$ PTR;
      949     1913    1   DCL SCFU$ PTR;
      950     1914    1   DCL LOC$ PTR;
      951     1915    1   DCL BUF$ PTR;
      952     1916    1   DCL ACCT$ PTR;
      953     1917    1   DCL TMP$ PTR; /* Used in subroutine calls, to preserve the real ones */
      954     1918    1   DCL GRAN BASED CHAR(4096);
      955     1919    1   DCL DA UBIN;
      956     1920                    /**/
      957     1921    1   DCL FAG$COUNT ENTRY(1) ALTRET;
      958     1922    1   DCL FAG$GEXT ENTRY ALTRET;
      959     1923    1   DCL FMD$FLSHBUF ENTRY(1);
      960     1924    1   DCL FMD$GETBUF ENTRY(3);
      961     1925    1   DCL FMD$WRTBUF ENTRY(1);
      962     1926    1   DCL FMD$WRTSV ENTRY(1);
      963     1927    1   DCL FMD$REDBUFBC ENTRY(6) ALTRET;
      964     1928    1   DCL FMC$CLR1 ENTRY(1);
      965     1929    1   DCL FMF$PEOF ENTRY(1);
      966     1930        %INCLUDE F_FPTCODE_C;
      967     1966    1   DCL FMG$ADDKEY ENTRY(4)ALTRET;
      968     1967    1   DCL FMG$REMKEY ENTRY ALTRET;
      969     1968    1   DCL FMH$JGETPG ENTRY(1)ALTRET;
      970     1969    1   DCL FMH$INIT ENTRY;
      971     1970    1   DCL FMH$JRELPG ENTRY(1)ALTRET;
      972     1971    1   DCL FMM$NSTAMP ENTRY(1);
      973     1972    1   DCL FMM$SCRUB ENTRY(1);
      974     1973    1   DCL FMN$CHKFLACN ENTRY(1)ALTRET;
      975     1974    1   DCL FMN$GETFIT ENTRY(2)ALTRET;
      976     1975    1   DCL FMO$LOCCODP ENTRY(2)ALTRET;
      977     1976    1   DCL FMO$LOCCODX ENTRY(2)ALTRET;
      978     1977    1   DCL FMP$RELCFUS ENTRY(1);
PL6.E3A0      #007=FMP$RENAME File=FMP$CLSF.:E05TSI                              TUE 07/29/97 16:59 Page:205
      979     1978    1   DCL FMQ$BLDFD ENTRY(1)ALTRET;
      980     1979    1   DCL FMQ$CTG ENTRY(2)ALTRET;
      981     1980    1   DCL FMQ$SRCHFD ENTRY(5)ALTRET;
      982     1981    1   DCL FMR$G8 ENTRY(2)ALTRET;
      983     1982    1   DCL FMS$SCANNAME ENTRY ALTRET;
      984     1983    1   DCL SSS$SYSTIME ENTRY(1);
      985     1984    1   DCL UDB$PMMEXIT ENTRY;
      986     1985    1   DCL UQB$MENQX ENTRY(1)ALTRET;
      987     1986    1   DCL UQB$MDEQ ENTRY(1)ALTRET;
      988     1987                    /**/
      989     1988    1   DCL B$JIT$ PTR SYMREF;
      990     1989    1   DCL B$M$STAR$ PTR SYMREF READONLY;
      991     1990    1   DCL F$CFU$ PTR SYMREF;
      992     1991    1   DCL FM_FRZERO UBIN SYMREF;
      993     1992    1   DCL FM_SYSACCTX UBIN SYMREF;
      994     1993    1   DCL S_CUN UBIN WORD SYMREF;
      995     1994        %SUB FCG#='0615'O;
      996     1995        %SUB MID#='20'O;
      997     1996        %ERRCODE(NAME=FMP$E$BADFNME,COD#=%E$BADFNME);
      998     2000        %ERRCODE(NAME=FMP$E$PSGRANS,COD#=%E$PSGRANS);
      999     2004        %ERRCODE(NAME=FMP$E$USGRANS,COD#=%E$USGRANS);
     1000     2008        %ERRCODE(NAME=FMP$E$ACGRANS,COD#=%E$ACGRANS);
     1001     2012        %EJECT;
PL6.E3A0      #007=FMP$RENAME File=FMP$CLSF.:E05TSI                              TUE 07/29/97 16:59 Page:206
     1002     2013    1      SDCB$=B$M$STAR$;
     1003     2014    1      UDCB$=B$JIT.DCB$;
     1004     2015    1      UCFU$=U$DCB.CFU$;
     1005     2016    2      IF S$DCB.FCD THEN DO;
     1006     2017    2         SDCB$=ADDR(NIL);
     1007     2018    2         GOTO FMPE$BADFNME;
     1008     2019    2         END;
     1009     2020                    /*E*     ERROR: FMP-E$BADFNME-E
     1010     2021                    *        MESSAGE: Rename% of %FN% not permitted.
     1011     2022                    *        MESSAGE1: The new file% %U1% either exists, is being created,
     1012     2023                    *        or is not the same "starness"% as %UF%
     1013     2024                    */
     1014     2025    1      I=U$CFU.ACCTX;
     1015     2026    1      IF I=0 THEN I=PINCRW(F$CFU$,U$CFU.NAMEX)->U$CFU.ACCTX;
     1016     2027    1      ACCT$=PINCRW(F$CFU$,I);
     1017     2028    1      CALL FAG$COUNT (I); /* Make sure there's some space to work with */
     1018     2029    2      IF U$CFU.FUN=%JRNL# THEN DO;
     1019     2030    2         I=I-U$DCB.XTNSIZE-1;
     1020     2031    2         IF U$DCB.BORROW>1 THEN EXIT; /* Need 2 granules of user space */
     1021     2032    2         IF NOT U$DCB.STARF AND FM$CFUA.GRANS<2
     1022     2033    2         THEN B$JIT.ERR=FMP$E$ACGRANS;
     1023     2034    2         ELSE IF U$DCB.STARF AND B$JIT.CURTMPDP+2<=B$JIT.MAXTMPDP
     1024     2035    2              OR NOT U$DCB.STARF AND B$JIT.PRDPRM>1 THEN EXIT;
     1025     2036    2            ELSE B$JIT.ERR=FMP$E$USGRANS;
     1026     2037    2         GOTO NOSPACE;
     1027     2038    2         END;
     1028     2039    1      IF U$CFU.FUN=%CREATE# THEN I=I-1;
     1029     2040    2      IF I<1 THEN DO;
     1030     2041    2         B$JIT.ERR=FMP$E$PSGRANS;
     1031     2042    2   NOSPACE:;
     1032     2043    2         SDCB$=ADDR(NIL);
     1033     2044    2         GOTO RETRET;
     1034     2045    2         END;
     1035     2046    1      CALL FMM$SCRUB(DCBADDR(%M$STAR#));
     1036     2047    1      I=0;
     1037     2048    1      IC(3)=NAME.L;
     1038     2049    1      S$DCB.NAME.L=I;
PL6.E3A0      #007=FMP$RENAME File=FMP$CLSF.:E05TSI                              TUE 07/29/97 16:59 Page:207
     1039     2050    1      S$DCB.NAME.C=NAME.C;
     1040     2051    1      IF S$DCB.NAME=U$DCB.NAME THEN GOTO RETRET;
     1041     2052    1      S$DCB.DESC=U$DCB.DESC;
     1042     2053    1      S$DCB.ACCT=U$DCB.ACCT;
     1043     2054    1      S$DCB.IASN=%FILE#;
     1044     2055    1      S$DCB.FUN=%CREATE#;
     1045     2056    1      S$DCB.WSR=U$DCB.WSR;
     1046     2057    1      CALL FMN$CHKFLACN(DCBADDR(%M$STAR#))ALTRET(RETRET);
     1047     2058    1      IF S$DCB.STARF~=U$DCB.STARF THEN GOTO FMPE$BADFNME;
     1048     2059    1      S$DCB.SETX=U$DCB.SETX;
     1049     2060    1      CALL FMR$G8(S$DCB.CFU$,I)ALTRET(RETRET);
     1050     2061    1      SCFU$=S$DCB.CFU$;
     1051     2062    1      S$CFU.FUN=7;
     1052     2063    1      S$DCB.FUN=%UPDATE#;
     1053     2064    1      S$CFU.SHARE=%NONE#;
     1054     2065    1      S$CFU.ACCTX=POFFW(ACCT$,F$CFU$);
     1055     2066    1      B$JIT.DCB$=SDCB$;
     1056     2067    1      IF NOT U$DCB.STARF THEN CALL UQB$MENQX(ACCT$)ALTRET(RETRET);
     1057     2068    1      CALL FMS$SCANNAME ALTRET(FMPE$BADFNME);/* ALTRETS IF CFU FOUND */
     1058     2069    2      IF S$DCB.STARX=0 THEN DO;
     1059     2070    2         IF S$DCB.STARF AND B$JIT.STAR.DA(0)=0 THEN CALL FMQ$BLDFD ALTRET(RETRET);
     1060     2071    2         CALL FMQ$SRCHFD(ADDR(S$DCB.NAME),BUF$,TMP$,ACCT$,ADDR(NIL))ALTRET(NOKEY);
     1061     2072    2         GOTO FMPE$BADFNME;
     1062     2073    2   NOKEY:;
     1063     2074    2         IF B$JIT.ERR.CODE~=%E$NOKEY THEN GOTO RETRET;
     1064     2075    2         IF SUBSTR(S$DCB.NAME.C,0,7)=':SECLOG' AND S$CFU.ACCTX=FM_SYSACCTX AND S_CUN~=
              2075                  JG_ELF#
     1065     2076    2         THEN GOTO FMPE$BADFNME;
     1066     2077    2         IF B$JIT.ERR.MID~='21'O THEN CALL
     1067     2078    2              FMG$ADDKEY(TMP$,SIZEW(FM$FDSEG),BUF$,ADDR(S$DCB.NAME))ALTRET(RETRET);
     1068     2079    2         B$JIT.ERR='0'B;
     1069     2080    2         FM$KEYENT.D='0'B;
     1070     2081    2         FM$FDSEG.FITSDA=U$CFU.FITSDA;
     1071     2082    2         U$DCB.DESC.BUF=U$DCB.DESC.BUPM;
     1072     2083    2         FM$FDSEG.DESC=U$DCB.DESC;
     1073     2084    2         CALL FMD$WRTSV(1);
     1074     2085    2         END;
PL6.E3A0      #007=FMP$RENAME File=FMP$CLSF.:E05TSI                              TUE 07/29/97 16:59 Page:208
     1075     2086    1      ELSE B$JIT.STAR.DA(S$DCB.STARX)=U$CFU.FITSDA;
     1076     2087        %EJECT;
PL6.E3A0      #007=FMP$RENAME File=FMP$CLSF.:E05TSI                              TUE 07/29/97 16:59 Page:209
     1077     2088                    /* THE NEW NAME IS NOW CATALOGUED, BUT THE FIT DOWSN'T MATCH */
     1078     2089                    /* IF THE FILE IS NEW, MAKE SURE THERE IS NO OLD ONE */
     1079     2090                    /* SINCE WE BORROWED ON ITS GRANULES */
     1080     2091    2      IF U$CFU.FUN=%CREATE# THEN DO;
     1081     2092    2         CALL FMD$FLSHBUF(1); /* RELEASE THE FD BUFFER */
     1082     2093    2         B$JIT.DCB$=UDCB$;
     1083     2094    2         CALL FMQ$CTG(ADDR(U$DCB.NAME),I);
     1084     2095    2         IF NOT U$DCB.STARF THEN CALL UQB$MENQX(ACCT$);
     1085     2096    2         END;
     1086     2097    1      B$JIT.DCB$=UDCB$;
     1087     2098    1      BUFNO=0;
     1088     2099    1      CALL FMN$GETFIT(BUF$,BUFNO)ALTRET(RETRET);
     1089     2100    1      LOC$=PINCRW(BUF$,SIZEW(FM$GRAN));
     1090     2101    1      TMP$=LOC$;
     1091     2102    2      DO I=5 TO 6;
     1092     2103    2         CALL FMO$LOCCODX(TMP$,I)ALTRET(NOEFT);
     1093     2104    2         FM$FIT.CODES.NDW(I)=0;
     1094     2105    2         I=FM$FIT.CODES.CODE(I);
     1095     2106    2   NOEFT:END;
     1096     2107    1      CALL SSS$SYSTIME(I);
     1097     2108    1      CALL LOCCODP(4)ALTRET(NOTIME);
     1098     2109    1      CODE04.MODIFY.TIME=I;
     1099     2110    1   NOTIME:;
     1100     2111    1      CALL LOCCODP(3);
     1101     2112    1      B$JIT.DCB$=SDCB$;
     1102     2113    1      CALL FMM$NSTAMP(CODE03.NSTAMP);
     1103     2114    1      B$JIT.DCB$=UDCB$;
     1104     2115    1      CALL FMD$WRTSV(BUFNO);
     1105     2116    1      S$CFU.FITSDA=U$CFU.FITSDA;
     1106     2117    2      IF U$CFU.FUN=%JRNL# THEN DO;
     1107     2118                    /* IF JOURNAL SWITCH, START UP A NEW FILE HERE */
     1108     2119    3         IF BUFNO=1 THEN DO;
     1109     2120    3            LOC$=BUF$;
     1110     2121    3            CALL FMD$GETBUF(0,1,BUF$);
     1111     2122    3            BUF$->GRAN=LOC$->GRAN;
     1112     2123    3            BUFNO=0;
     1113     2124    3            DA=U$CFU.FITSDA;
PL6.E3A0      #007=FMP$RENAME File=FMP$CLSF.:E05TSI                              TUE 07/29/97 16:59 Page:210
     1114     2125    3            CALL FMC$CLR1(DA);
     1115     2126    3            CALL LOCCODP(3);
     1116     2127    3            END;
     1117     2128    2         ELSE
     1118     2129    3         DO;   /* GET UNCACHED COPY */
     1119     2130    3            CALL FMD$FLSHBUF(BUFNO);
     1120     2131    3            DA=U$CFU.FITSDA;
     1121     2132    3            CALL FMD$REDBUFBC(BUF$, BUFNO, DA) ALTRET(RETRET);
     1122     2133    3            END; /* GET UNCACHED COPY */
     1123     2134    2         CALL FMH$JRELPG(1);
     1124     2135    2         U$DCB.BFR(1)=U$DCB.BFR(BUFNO);
     1125     2136    2         U$DCB.BFR1(1)=U$DCB.BFR1(BUFNO);
     1126     2137    2         U$DCB.BFR(BUFNO)='0'B;
     1127     2138    2         U$DCB.BFR1(BUFNO)='0'B;
     1128     2139    2         U$CFU.FITSDA=0;
     1129     2140    2         U$CFU.UGRANS=0;
     1130     2141    2         U$CFU.AFIT=0;
     1131     2142    2         U$CFU.NRECS=0;
     1132     2143    2         U$CFU.LDA=FM_FRZERO;
     1133     2144    2         FM$GRAN.LVL=0;/* NOT AN AFIT */
     1134     2145    2         FM$GRAN.NAVX=FM$GRAN.FCEX;
     1135     2146    2         FM$GRAN.AVAIL=1024-FM$GRAN.NAVX;
     1136     2147    2         CALL FMM$NSTAMP(CODE03.NSTAMP);
     1137     2148    2         CODE03.UGRANS=0;
     1138     2149    2         CODE03.NGAVAL=0;
     1139     2150    2         CODE03.NRECS=0;
     1140     2151    2         CODE03.DESC.BAD='0'B;
     1141     2152    2         U$DCB.HASH=I;
     1142     2153    2         FM$GRAN.STAMP.GMOD=0;
     1143     2154    2         FM$GRAN.STAMP.HASH=I;
     1144     2155    2         CALL LOCCODP(4)ALTRET(NOTIME1);
     1145     2156    2         CODE04.ACCESS.TIME=I;
     1146     2157    2         CODE04.CREATION.TIME=I;
     1147     2158    2         CODE04.SVMODIFY.TIME=I;
     1148     2159    2   NOTIME1:;
     1149     2160    2         PINCRW(BUF$,SIZEW(FM$GRAN))->FM$FIT.CODES.NDW(1)=1;
     1150     2161    2         CALL LOCCODP(1);/* FIX EXTENT LIST, HASH*/
PL6.E3A0      #007=FMP$RENAME File=FMP$CLSF.:E05TSI                              TUE 07/29/97 16:59 Page:211
     1151     2162    2         CODE01.HASH=I;
     1152     2163    2         CODE01.NXTNTS=0;
     1153     2164    2         CALL FMR$G8(TMP$,I)ALTRET(RETRET);
     1154     2165    2         S$CFU.XTX=U$CFU.XTX;
     1155     2166    2         U$CFU.XTX=I;
     1156     2167    2         U$DCB.BFR.DA(1)=FM_FRZERO;
     1157     2168    2         U$DCB.IXTNSIZE=U$DCB.XTNSIZE+1;
     1158     2169    2         U$DCB.BFR.BUFUP(1)='1'B;
     1159     2170    2         CALL FAG$GEXT ALTRET(RETRET);
     1160     2171    2         U$CFU.UGRANS=1;
     1161     2172    2         U$CFU.NGAVAL=U$CFU.NGAVAL-1;
     1162     2173    2         U$CFU.FITSDA=FM$CFUEXT.XTNT.XTNSDA(0);
     1163     2174    2         U$CFUJ.ERR_WAIT='0'B;
     1164     2175    2         END;
     1165     2176    1      ELSE U$CFU.FITSDA=0;
     1166     2177    1      CALL FMD$FLSHBUF(1);/* MOVE STAR BUFFER HERE*/
     1167     2178    1      U$DCB.BFR1(1)=S$DCB.BFR1(1);
     1168     2179    1      S$DCB.BFR1(1)='0'B;
     1169     2180    1      U$DCB.BFR(1)=S$DCB.BFR(1);
     1170     2181    1      S$DCB.BFR(1)='0'B;
     1171     2182    2      IF U$DCB.STARX=0 THEN DO;
     1172     2183                    /* NOW REMOVE THE OLD FD POINTER */
     1173     2184    2         CALL FMQ$SRCHFD(ADDR(U$DCB.NAME),BUF$,TMP$,ACCT$,ADDR(NIL))ALTRET(RETRET);
     1174     2185    2         FM$FDSEG.FITSDA=U$CFU.FITSDA;
     1175     2186    2         FM$FDSEG.DESC.BAD='0'B;
     1176     2187    2         U$DCB.BFR.BUFUP(1)='1'B;
     1177     2188    3         IF U$CFU.FITSDA=0 THEN DO;
     1178     2189    3            FM$KEYENT.D='1'B;
     1179     2190    3            FM$FDSEG='0'B;
     1180     2191    3            FM$FDSEG.DESC.DELF='1'B;
     1181     2192    3            IF U$DCB.STARF THEN CALL FMG$REMKEY;
     1182     2193    3            ELSE IF NOT FM$CFUA.ACCESS.BUPF THEN CALL FMG$REMKEY;
     1183     2194    4               ELSE DO;
     1184     2195    4                  CALL SSS$SYSTIME(I);
     1185     2196    4                  FM$FDSEG.FITSDA=IU/512;
     1186     2197    4                  END;
     1187     2198    3            END;
PL6.E3A0      #007=FMP$RENAME File=FMP$CLSF.:E05TSI                              TUE 07/29/97 16:59 Page:212
     1188     2199    2         END;
     1189     2200    1      ELSE B$JIT.STAR.DA(U$DCB.STARX)=U$CFU.FITSDA;
     1190     2201    1      CALL FMP$RELCFUS(S$DCB.CFU$);
     1191     2202    1      CALL FMD$FLSHBUF(1);
     1192     2203    1      IF NOT U$DCB.STARF THEN CALL UQB$MDEQ(ACCT$);
     1193     2204    2      IF U$CFU.FUN=%JRNL# THEN DO;
     1194     2205    2         IC=B$JIT.ERR;
     1195     2206    2   JRNLRET:;
     1196     2207    2         U$DCB.SHARED='0'B; /* DISABLE ENQ-DEQ IN FMF */
     1197     2208    2         U$DCB.GTYP=FMGTFILE;
     1198     2209    2         CALL FMF$PEOF(FPTPFILEOF);
     1199     2210    2         U$DCB.SHARED='1'B;
     1200     2211    2         CALL FMH$JGETPG(1);
     1201     2212    2         CALL UQB$MDEQ(U$DCB.CFU$);
     1202     2213    2         B$JIT.ERR=IC;
     1203     2214    2         CALL UDB$PMMEXIT;
     1204     2215    2         END;
     1205     2216    1      RETURN;
     1206     2217                    /**/
     1207     2218        %EJECT;
PL6.E3A0      #007=FMP$RENAME File=FMP$CLSF.:E05TSI                              TUE 07/29/97 16:59 Page:213
     1208     2219    1   FMPE$BADFNME:;
     1209     2220    1      B$JIT.ERR=FMP$E$BADFNME;
     1210     2221    1   RETRET:;
     1211     2222    1      IF SDCB$ ~= ADDR(NIL) THEN
     1212     2223    2         IF S$DCB.CFU$~=ADDR(NIL) THEN DO;
     1213     2224    2            B$JIT.DCB$=SDCB$;
     1214     2225    2            CALL FMD$FLSHBUF(1);
     1215     2226    2            CALL FMP$RELCFUS(S$DCB.CFU$);
     1216     2227    2            B$JIT.DCB$=UDCB$;
     1217     2228    2            CALL FMD$FLSHBUF(1);
     1218     2229    2            IF NOT U$DCB.STARF THEN CALL UQB$MDEQ(ACCT$);
     1219     2230    2            END;
     1220     2231    1      IF U$CFU.FUN=%CREATE# AND B$JIT.ERR.CODE=%E$NOKEY
     1221     2232    1      THEN B$JIT.ERR='0'B;
     1222     2233    1      IF U$CFU.FUN~=%JRNL# THEN ALTRETURN;
     1223     2234    1      CALL FMH$JRELPG(1);
     1224     2235    1      BUFNO=0;
     1225     2236    1      IC=B$JIT.ERR;
     1226     2237    1      CALL FMN$GETFIT(BUF$,BUFNO) ALTRET(JRNLRET);
     1227     2238    1      CALL LOCCODP(3) ALTRET(JRNLRET);
     1228     2239    1      CODE03.UGRANS=CODE03.UGRANS+CODE03.NGAVAL;
     1229     2240    1      CODE03.NGAVAL=0;
     1230     2241    1      CALL LOCCODP(4) ALTRET(MBSTAR);
     1231     2242    1      CODE04.SVMODIFY=CODE04.MODIFY; /* MAKE IT LOOK OPEN */
     1232     2243    1   MBSTAR:;
     1233     2244    1      CALL FMD$WRTBUF(BUFNO);
     1234     2245    1      GOTO JRNLRET;
     1235     2246        %EJECT;
PL6.E3A0      #007=FMP$RENAME File=FMP$CLSF.:E05TSI                              TUE 07/29/97 16:59 Page:214
     1236     2247                    /*I* NAME: LOCCODP
     1237     2248                         DESCRIPTION: Calls FMO$LOCCODP for the single parameter without
     1238     2249                         making PL6 think LOC$ is a poor risk. */
     1239     2250    1   LOCCODP: PROC(I) ALTRET;
     1240     2251    2   DCL I UBIN;
     1241     2252    2      TMP$=PINCRW(BUF$,SIZEW(FM$GRAN));
     1242     2253    3      CALL FMO$LOCCODP(TMP$,I) WHENALTRETURN DO; ALTRETURN; END;
     1243     2254    2      LOC$=TMP$;
     1244     2255    2      RETURN;
     1245     2256    2   END LOCCODP;
     1246     2257    1   END FMP$RENAME;

PL6.E3A0      #007=FMP$RENAME File=FMP$CLSF.:E05TSI                              TUE 07/29/97 16:59 Page:215
--  Include file information  --

   F_FPTCODE_C.:E05TOU  is referenced.
   CP_6_SUBS.:E05TOU  is referenced.
   F$DCB.:E05TOU  is referenced.
   JG_GHOSTS_C.:E05TOU  is referenced.
   B$JIT_C.:E05TOU  is referenced.
   F$JIT_C.:E05TOU  cannot be made into a system file and is referenced.
   F_ERRORS_C.:E05TOU  is referenced.
   FM$MACROS.:E05TOU  is referenced.
      No diagnostics issued in procedure FMP$RENAME.

   Procedure FMP$RENAME requires 860 words for executable code.
   Procedure FMP$RENAME requires 26 words of local(AUTO) storage.

    No errors detected in file FMP$CLSF.:E05TSI    .

PL6.E3A0      #007=FMP$RENAME File=FMP$CLSF.:E05TSI                              TUE 07/29/97 16:59 Page:216

 Object Unit name= FMP$RENAME                                 File name= FMP$CLSF.:E05TOU
 UTS= JUL 29 '97 16:59:33.00 TUE                              Compiler= PL-6/E31         Sev=      00
 SharedLib= :SHARED_SYSTEM                                    Alt SharedLib=


    ****  Control sections  ****

 Sect   Type Bound  Init  Size OctSiz  Section name(segment info)
    0  RoData even  UTS      6      6  FMP$RENAME
    1   Proc  even  none   860   1534  FMP$RENAME
    2  RoData even  none    15     17  FMP$RENAME

    ****  Entry defs  ****

                              Check   Calling
                             calling  sequence
  Sect OctLoc Primary Altret sequence   type   Parms  Name
     1      0   yes    yes     yes      Std        1  FMP$RENAME
PL6.E3A0      #007=FMP$RENAME File=FMP$CLSF.:E05TSI                              TUE 07/29/97 16:59 Page:217

  ****  Entry refs  ****

         Check        Calling
        calling       sequence
Altret sequence SRef   type   Args  Name
 yes     yes           Std       1 FAG$COUNT
         yes           Std       1 FMD$WRTSV
         yes           Std       1 SSS$SYSTIME
 yes     yes           Std       1 FMH$JGETPG
         yes           Std       1 FMD$FLSHBUF
 yes     yes           Std       2 FMO$LOCCODX
         yes           Std       1 FMM$NSTAMP
         yes           Std       1 FMD$WRTBUF
         yes           Std       1 FMM$SCRUB
 yes     yes           Std       2 FMR$G8
         yes           Std       1 FMP$RELCFUS
 yes     yes           Std       5 FMQ$SRCHFD
 yes     yes           Std       4 FMG$ADDKEY
         yes           Std       3 FMD$GETBUF
         yes           Std       1 FMF$PEOF
 yes     yes           Std       1 FMH$JRELPG
 yes     yes           Std       1 UQB$MDEQ
 yes     yes           Std       1 FMN$CHKFLACN
 yes     yes           Std       1 FMQ$BLDFD
 yes     yes           Std       1 UQB$MENQX
 yes     yes           Std       0 FMS$SCANNAME
 yes     yes           Std       2 FMQ$CTG
 yes     yes           Std       2 FMN$GETFIT
         yes           Std       0 UDB$PMMEXIT
 yes     yes           Std       0 FAG$GEXT
 yes     yes           Std       0 FMG$REMKEY
         yes           Std       1 FMC$CLR1
 yes     yes           Std       6 FMD$REDBUFBC
 yes     yes           Std       2 FMO$LOCCODP
                       nStd      0 X66_AUTO_1
                       Std       0 B_CONSPOOL_D
                       nStd      0 X66_ARET
PL6.E3A0      #007=FMP$RENAME File=FMP$CLSF.:E05TSI                              TUE 07/29/97 16:59 Page:218
                       nStd      0 X66_AALT

  ****  Data refs  ****

  Flags:  r = read only, s = secondary
Flgs Name                             Flgs Name                             Flgs Name
     B$JIT$                           r    B$M$STAR$                             F$CFU$
     FM_FRZERO                             FM_SYSACCTX                           S_CUN
     B_VECTNIL

  ****  Segment refs  ****

  Flags:  r = read only, s = secondary
Flgs Name                             Flgs Name                             Flgs Name
     ROSID                                 ISSID
PL6.E3A0      #007=FMP$RENAME File=FMP$CLSF.:E05TSI                              TUE 07/29/97 16:59 Page:219


      901        1        /*T***********************************************************/
      902        2        /*T*                                                         */
      903        3        /*T* Copyright (c) Bull HN Information Systems Inc., 1997    */
      904        4        /*T*                                                         */
      905        5        /*T***********************************************************/
      906        6        FMP$RENAME: PROC(NAME$)ALTRET;

      6  1 000000   000000 700200 xent  FMP$RENAME   TSX0  ! X66_AUTO_1
         1 000001   000032 000001                    ZERO    26,1

      907        7                    /*F*     NAME: FMP$RENAME
      908        8                    *        PURPOSE: To perform the FIT and directory manipulation
      909        9                    *        required for file name change and m$JRNL.
      910       10                    *       DESCRIPTION: The single parameter is a pointer to the new name.
      911       11                    *        The M$* DCB is used and must not be open. The used DCB pointer
      912       12                    *        is in B$JIT.DCB$ and is not disturbed. The new name must be in
      913       13                    *        the same directory as the old one (e.g., both star files). The
      914       14                    *        new name must not refer to an existing or busy file.       */
      915       15    1   DCL NAME$ PTR;
      916       16        %INCLUDE FM$MACROS;
      917      391        %INCLUDE F_ERRORS_C;
      918      631        %INCLUDE F$JIT_C;
      919     1061        %INCLUDE JG_GHOSTS_C;
      920     1151        %MACRO F$DCB(BASED=,F$DCB=);
      921     1152        %INCLUDE F$DCB;
      922     1201        %MEND;
      923     1202        %F$DCB(F$DCB=S$DCB,BASED="BASED(SDCB$)");
      924     1252        %F$DCB(F$DCB=U$DCB,BASED="BASED(UDCB$)");
      925     1302        %FM$CFU(FM$CFU=S$CFU,BASED="BASED(SCFU$)");
      926     1308        %FM$CFU(FM$CFU=U$CFU,BASED="BASED(UCFU$)");
      927     1314        %FM$CFUJ(FM$CFUJ=U$CFUJ,BASED="BASED(UCFU$)");
      928     1319        %FM$CFUA(BASED="BASED(ACCT$)");
      929     1325        %FM$CFUEXT(BASED="BASED(LOC$)");
      930     1329        %FM$FIT(BASED="BASED(LOC$)");
      931     1332        %INCLUDE CP_6_SUBS;
      932     1872        %FM$KEYENT(BASED="BASED(BUF$)");
PL6.E3A0      #007=FMP$RENAME File=FMP$CLSF.:E05TSI                              TUE 07/29/97 16:59 Page:220
      933     1875        %FM$FDSEG(BASED="BASED(TMP$)");
      934     1879        %FM$GRAN(BASED="BASED(BUF$)");
      935     1883        %CODE01(BASED="BASED(LOC$)");
      936     1887        %CODE03(BASED="BASED(LOC$)");
      937     1894        %CODE04(BASED="BASED(LOC$)");
      938     1902    1   DCL 1 NAME BASED(NAME$),
      939     1903    1         2 L CHAR(1),
      940     1904    1         2 C CHAR(I);
      941     1905        %EJECT;
PL6.E3A0      #007=FMP$RENAME File=FMP$CLSF.:E05TSI                              TUE 07/29/97 16:59 Page:221
      942     1906    1   DCL I SBIN;
      943     1907    1   DCL 1 IC(0:3) REDEF I CHAR(1);
      944     1908    1   DCL IU REDEF I UBIN;
      945     1909    1   DCL BUFNO UBIN;
      946     1910    1   DCL UDCB$ PTR;
      947     1911    1   DCL SDCB$ PTR;
      948     1912    1   DCL UCFU$ PTR;
      949     1913    1   DCL SCFU$ PTR;
      950     1914    1   DCL LOC$ PTR;
      951     1915    1   DCL BUF$ PTR;
      952     1916    1   DCL ACCT$ PTR;
      953     1917    1   DCL TMP$ PTR; /* Used in subroutine calls, to preserve the real ones */
      954     1918    1   DCL GRAN BASED CHAR(4096);
      955     1919    1   DCL DA UBIN;
      956     1920                    /**/
      957     1921    1   DCL FAG$COUNT ENTRY(1) ALTRET;
      958     1922    1   DCL FAG$GEXT ENTRY ALTRET;
      959     1923    1   DCL FMD$FLSHBUF ENTRY(1);
      960     1924    1   DCL FMD$GETBUF ENTRY(3);
      961     1925    1   DCL FMD$WRTBUF ENTRY(1);
      962     1926    1   DCL FMD$WRTSV ENTRY(1);
      963     1927    1   DCL FMD$REDBUFBC ENTRY(6) ALTRET;
      964     1928    1   DCL FMC$CLR1 ENTRY(1);
      965     1929    1   DCL FMF$PEOF ENTRY(1);
      966     1930        %INCLUDE F_FPTCODE_C;
      967     1966    1   DCL FMG$ADDKEY ENTRY(4)ALTRET;
      968     1967    1   DCL FMG$REMKEY ENTRY ALTRET;
      969     1968    1   DCL FMH$JGETPG ENTRY(1)ALTRET;
      970     1969    1   DCL FMH$INIT ENTRY;
      971     1970    1   DCL FMH$JRELPG ENTRY(1)ALTRET;
      972     1971    1   DCL FMM$NSTAMP ENTRY(1);
      973     1972    1   DCL FMM$SCRUB ENTRY(1);
      974     1973    1   DCL FMN$CHKFLACN ENTRY(1)ALTRET;
      975     1974    1   DCL FMN$GETFIT ENTRY(2)ALTRET;
      976     1975    1   DCL FMO$LOCCODP ENTRY(2)ALTRET;
      977     1976    1   DCL FMO$LOCCODX ENTRY(2)ALTRET;
      978     1977    1   DCL FMP$RELCFUS ENTRY(1);
PL6.E3A0      #007=FMP$RENAME File=FMP$CLSF.:E05TSI                              TUE 07/29/97 16:59 Page:222
      979     1978    1   DCL FMQ$BLDFD ENTRY(1)ALTRET;
      980     1979    1   DCL FMQ$CTG ENTRY(2)ALTRET;
      981     1980    1   DCL FMQ$SRCHFD ENTRY(5)ALTRET;
      982     1981    1   DCL FMR$G8 ENTRY(2)ALTRET;
      983     1982    1   DCL FMS$SCANNAME ENTRY ALTRET;
      984     1983    1   DCL SSS$SYSTIME ENTRY(1);
      985     1984    1   DCL UDB$PMMEXIT ENTRY;
      986     1985    1   DCL UQB$MENQX ENTRY(1)ALTRET;
      987     1986    1   DCL UQB$MDEQ ENTRY(1)ALTRET;
      988     1987                    /**/
      989     1988    1   DCL B$JIT$ PTR SYMREF;
      990     1989    1   DCL B$M$STAR$ PTR SYMREF READONLY;
      991     1990    1   DCL F$CFU$ PTR SYMREF;
      992     1991    1   DCL FM_FRZERO UBIN SYMREF;
      993     1992    1   DCL FM_SYSACCTX UBIN SYMREF;
      994     1993    1   DCL S_CUN UBIN WORD SYMREF;
      995     1994        %SUB FCG#='0615'O;
      996     1995        %SUB MID#='20'O;
      997     1996        %ERRCODE(NAME=FMP$E$BADFNME,COD#=%E$BADFNME);
      998     2000        %ERRCODE(NAME=FMP$E$PSGRANS,COD#=%E$PSGRANS);
      999     2004        %ERRCODE(NAME=FMP$E$USGRANS,COD#=%E$USGRANS);
     1000     2008        %ERRCODE(NAME=FMP$E$ACGRANS,COD#=%E$ACGRANS);
     1001     2012        %EJECT;
PL6.E3A0      #007=FMP$RENAME File=FMP$CLSF.:E05TSI                              TUE 07/29/97 16:59 Page:223
     1002     2013    1      SDCB$=B$M$STAR$;

   2013  1 000002   000000 236000 xsym               LDQ     B$M$STAR$
         1 000003   200007 756100                    STQ     SDCB$,,AUTO

     1003     2014    1      UDCB$=B$JIT.DCB$;

   2014  1 000004   000000 470400 xsym               LDP0    B$JIT$
         1 000005   000232 236100                    LDQ     154,,PR0
         1 000006   200006 756100                    STQ     UDCB$,,AUTO

     1004     2015    1      UCFU$=U$DCB.CFU$;

   2015  1 000007   200006 471500                    LDP1    UDCB$,,AUTO
         1 000010   100066 236100                    LDQ     54,,PR1
         1 000011   200010 756100                    STQ     UCFU$,,AUTO

     1005     2016    2      IF S$DCB.FCD THEN DO;

   2016  1 000012   200007 473500                    LDP3    SDCB$,,AUTO
         1 000013   300031 236100                    LDQ     25,,PR3
         1 000014   020000 316007                    CANQ    8192,DL
         1 000015   000021 600000 1                  TZE     s:2025

     1006     2017    2         SDCB$=ADDR(NIL);

   2017  1 000016   000001 236000 xsym               LDQ     B_VECTNIL+1
         1 000017   200007 756100                    STQ     SDCB$,,AUTO

     1007     2018    2         GOTO FMPE$BADFNME;

   2018  1 000020   001344 710000 1                  TRA     FMPE$BADFNME

     1008     2019    2         END;
     1009     2020                    /*E*     ERROR: FMP-E$BADFNME-E
     1010     2021                    *        MESSAGE: Rename% of %FN% not permitted.
     1011     2022                    *        MESSAGE1: The new file% %U1% either exists, is being created,
PL6.E3A0      #007=FMP$RENAME File=FMP$CLSF.:E05TSI                              TUE 07/29/97 16:59 Page:224
     1012     2023                    *        or is not the same "starness"% as %UF%
     1013     2024                    */
     1014     2025    1      I=U$CFU.ACCTX;

   2025  1 000021   200010 474500                    LDP4    UCFU$,,AUTO
         1 000022   400002 236100                    LDQ     2,,PR4
         1 000023   000022 772000                    QRL     18
         1 000024   200004 756100                    STQ     I,,AUTO

     1015     2026    1      IF I=0 THEN I=PINCRW(F$CFU$,U$CFU.NAMEX)->U$CFU.ACCTX;

   2026  1 000025   000033 601000 1                  TNZ     s:2027

   2026  1 000026   400002 720100                    LXL0    2,,PR4
         1 000027   000000 475400 xsym               LDP5    F$CFU$
         1 000030   500002 236110                    LDQ     2,X0,PR5
         1 000031   000022 772000                    QRL     18
         1 000032   200004 756100                    STQ     I,,AUTO

     1016     2027    1      ACCT$=PINCRW(F$CFU$,I);

   2027  1 000033   000022 736000                    QLS     18
         1 000034   000000 036000 xsym               ADLQ    F$CFU$
         1 000035   200014 756100                    STQ     ACCT$,,AUTO

     1017     2028    1      CALL FAG$COUNT (I); /* Make sure there's some space to work with */

   2028  1 000036   200004 635500                    EPPR5   I,,AUTO
         1 000037   200022 455500                    STP5    @I+1,,AUTO
         1 000040   200022 630500                    EPPR0   @I+1,,AUTO
         1 000041   000017 631400 xsym               EPPR1   B_VECTNIL+15
         1 000042   000000 701000 xent               TSX1    FAG$COUNT
         1 000043   000000 011000                    NOP     0

     1018     2029    2      IF U$CFU.FUN=%JRNL# THEN DO;

   2029  1 000044   200010 470500                    LDP0    UCFU$,,AUTO
PL6.E3A0      #007=FMP$RENAME File=FMP$CLSF.:E05TSI                              TUE 07/29/97 16:59 Page:225
         1 000045   000000 236100                    LDQ     0,,PR0
         1 000046   700000 376003                    ANQ     -32768,DU
         1 000047   400000 116003                    CMPQ    -131072,DU
         1 000050   000121 601000 1                  TNZ     s:2039

     1019     2030    2         I=I-U$DCB.XTNSIZE-1;

   2030  1 000051   200006 471500                    LDP1    UDCB$,,AUTO
         1 000052   100037 236100                    LDQ     31,,PR1
         1 000053   000022 772000                    QRL     18
         1 000054   200022 756100                    STQ     @I+1,,AUTO
         1 000055   200004 236100                    LDQ     I,,AUTO
         1 000056   200022 136100                    SBLQ    @I+1,,AUTO
         1 000057   000001 136007                    SBLQ    1,DL
         1 000060   200004 756100                    STQ     I,,AUTO

     1020     2031    2         IF U$DCB.BORROW>1 THEN EXIT; /* Need 2 granules of user space */

   2031  1 000061   100065 235100                    LDA     53,,PR1
         1 000062   000001 115007                    CMPA    1,DL
         1 000063   000121 605400 1                  TPNZ    s:2039

     1021     2032    2         IF NOT U$DCB.STARF AND FM$CFUA.GRANS<2

   2032  1 000064   100064 236100                    LDQ     52,,PR1
         1 000065   200000 316003                    CANQ    65536,DU
         1 000066   000077 601000 1                  TNZ     s:2034
         1 000067   200014 473500                    LDP3    ACCT$,,AUTO
         1 000070   300007 235100                    LDA     7,,PR3
         1 000071   000002 115007                    CMPA    2,DL
         1 000072   000077 605000 1                  TPL     s:2034

     1022     2033    2         THEN B$JIT.ERR=FMP$E$ACGRANS;

   2033  1 000073   000003 236000 0                  LDQ     FMP$E$ACGRANS
         1 000074   000000 474400 xsym               LDP4    B$JIT$
         1 000075   400012 756100                    STQ     10,,PR4
PL6.E3A0      #007=FMP$RENAME File=FMP$CLSF.:E05TSI                              TUE 07/29/97 16:59 Page:226
         1 000076   000120 710000 1                  TRA     s:2037

     1023     2034    2         ELSE IF U$DCB.STARF AND B$JIT.CURTMPDP+2<=B$JIT.MAXTMPDP

   2034  1 000077   200000 316003                    CANQ    65536,DU
         1 000100   000106 600000 1                  TZE     s:2034+7
         1 000101   000000 473400 xsym               LDP3    B$JIT$
         1 000102   300240 236100                    LDQ     160,,PR3
         1 000103   000002 036007                    ADLQ    2,DL
         1 000104   300241 116100                    CMPQ    161,,PR3
         1 000105   000121 604400 1                  TMOZ    s:2039
         1 000106   100064 236100                    LDQ     52,,PR1
         1 000107   200000 316003                    CANQ    65536,DU
         1 000110   000115 601000 1                  TNZ     s:2036
         1 000111   000000 473400 xsym               LDP3    B$JIT$
         1 000112   300242 235100                    LDA     162,,PR3
         1 000113   000001 115007                    CMPA    1,DL
         1 000114   000121 605400 1                  TPNZ    s:2039

     1024     2035    2              OR NOT U$DCB.STARF AND B$JIT.PRDPRM>1 THEN EXIT;
     1025     2036    2            ELSE B$JIT.ERR=FMP$E$USGRANS;

   2036  1 000115   000002 236000 0                  LDQ     FMP$E$USGRANS
         1 000116   000000 473400 xsym               LDP3    B$JIT$
         1 000117   300012 756100                    STQ     10,,PR3

     1026     2037    2         GOTO NOSPACE;

   2037  1 000120   000134 710000 1                  TRA     NOSPACE

     1027     2038    2         END;
     1028     2039    1      IF U$CFU.FUN=%CREATE# THEN I=I-1;

   2039  1 000121   000000 236100                    LDQ     0,,PR0
         1 000122   700000 376003                    ANQ     -32768,DU
         1 000123   300000 116003                    CMPQ    98304,DU
         1 000124   000127 601000 1                  TNZ     s:2040
PL6.E3A0      #007=FMP$RENAME File=FMP$CLSF.:E05TSI                              TUE 07/29/97 16:59 Page:227

   2039  1 000125   000001 336007                    LCQ     1,DL
         1 000126   200004 056100                    ASQ     I,,AUTO

     1029     2040    2      IF I<1 THEN DO;

   2040  1 000127   200004 235100                    LDA     I,,AUTO
         1 000130   000137 605400 1                  TPNZ    s:2046

     1030     2041    2         B$JIT.ERR=FMP$E$PSGRANS;

   2041  1 000131   000001 236000 0                  LDQ     FMP$E$PSGRANS
         1 000132   000000 471400 xsym               LDP1    B$JIT$
         1 000133   100012 756100                    STQ     10,,PR1

   2041  1 000134                       NOSPACE      null
     1031     2042    2   NOSPACE:;
     1032     2043    2         SDCB$=ADDR(NIL);

   2043  1 000134   000001 236000 xsym               LDQ     B_VECTNIL+1
         1 000135   200007 756100                    STQ     SDCB$,,AUTO

     1033     2044    2         GOTO RETRET;

   2044  1 000136   001347 710000 1                  TRA     RETRET

     1034     2045    2         END;
     1035     2046    1      CALL FMM$SCRUB(DCBADDR(%M$STAR#));

   2046  1 000137   000000 471400 2                  LDP1    0
         1 000140   100000 473500                    LDP3    0,,PR1
         1 000141   300001 634500                    EPPR4   1,,PR3
         1 000142   200022 454500                    STP4    @I+1,,AUTO
         1 000143   200022 630500                    EPPR0   @I+1,,AUTO
         1 000144   000017 631400 xsym               EPPR1   B_VECTNIL+15
         1 000145   000000 701000 xent               TSX1    FMM$SCRUB
         1 000146   000000 011000                    NOP     0
PL6.E3A0      #007=FMP$RENAME File=FMP$CLSF.:E05TSI                              TUE 07/29/97 16:59 Page:228

     1036     2047    1      I=0;

   2047  1 000147   200004 450100                    STZ     I,,AUTO

     1037     2048    1      IC(3)=NAME.L;

   2048  1 000150   200003 470500                    LDP0    @NAME$,,AUTO
         1 000151   000000 471500                    LDP1    0,,PR0
         1 000152   040100 100500                    MLR     fill='040'O
         1 000153   100000 000001                    ADSC9   0,,PR1                   cn=0,n=1
         1 000154   200004 600001                    ADSC9   I,,AUTO                  cn=3,n=1

     1038     2049    1      S$DCB.NAME.L=I;

   2049  1 000155   200007 471500                    LDP1    SDCB$,,AUTO
         1 000156   200004 236100                    LDQ     I,,AUTO
         1 000157   000033 736000                    QLS     27
         1 000160   100010 552140                    STBQ    8,'40'O,PR1

     1039     2050    1      S$DCB.NAME.C=NAME.C;

   2050  1 000161   000000 473500                    LDP3    0,,PR0
         1 000162   200004 720100                    LXL0    I,,AUTO
         1 000163   040100 100540                    MLR     fill='040'O
         1 000164   300000 200010                    ADSC9   0,,PR3                   cn=1,n=*X0
         1 000165   100010 200037                    ADSC9   8,,PR1                   cn=1,n=31

     1040     2051    1      IF S$DCB.NAME=U$DCB.NAME THEN GOTO RETRET;

   2051  1 000166   200006 473500                    LDP3    UDCB$,,AUTO
         1 000167   000100 106500                    CMPC    fill='000'O
         1 000170   100010 000040                    ADSC9   8,,PR1                   cn=0,n=32
         1 000171   300010 000040                    ADSC9   8,,PR3                   cn=0,n=32
         1 000172   001347 600000 1                  TZE     RETRET

     1041     2052    1      S$DCB.DESC=U$DCB.DESC;
PL6.E3A0      #007=FMP$RENAME File=FMP$CLSF.:E05TSI                              TUE 07/29/97 16:59 Page:229

   2052  1 000173   300005 721100                    LXL1    5,,PR3
         1 000174   100005 441100                    SXL1    5,,PR1

     1042     2053    1      S$DCB.ACCT=U$DCB.ACCT;

   2053  1 000175   300020 237100                    LDAQ    16,,PR3
         1 000176   100020 757100                    STAQ    16,,PR1

     1043     2054    1      S$DCB.IASN=%FILE#;

   2054  1 000177   000001 236007                    LDQ     1,DL
         1 000200   100103 552104                    STBQ    67,'04'O,PR1

     1044     2055    1      S$DCB.FUN=%CREATE#;

   2055  1 000201   000003 236003                    LDQ     3,DU
         1 000202   100032 552120                    STBQ    26,'20'O,PR1

     1045     2056    1      S$DCB.WSR=U$DCB.WSR;

   2056  1 000203   300040 236100                    LDQ     32,,PR3
         1 000204   100040 552120                    STBQ    32,'20'O,PR1

     1046     2057    1      CALL FMN$CHKFLACN(DCBADDR(%M$STAR#))ALTRET(RETRET);

   2057  1 000205   000000 474400 2                  LDP4    0
         1 000206   400000 475500                    LDP5    0,,PR4
         1 000207   500001 636500                    EPPR6   1,,PR5
         1 000210   200022 456500                    STP6    @I+1,,AUTO
         1 000211   200022 630500                    EPPR0   @I+1,,AUTO
         1 000212   000017 631400 xsym               EPPR1   B_VECTNIL+15
         1 000213   000000 701000 xent               TSX1    FMN$CHKFLACN
         1 000214   001347 702000 1                  TSX2    RETRET

     1047     2058    1      IF S$DCB.STARF~=U$DCB.STARF THEN GOTO FMPE$BADFNME;

PL6.E3A0      #007=FMP$RENAME File=FMP$CLSF.:E05TSI                              TUE 07/29/97 16:59 Page:230
   2058  1 000215   200006 470500                    LDP0    UDCB$,,AUTO
         1 000216   200007 471500                    LDP1    SDCB$,,AUTO
         1 000217   100064 236100                    LDQ     52,,PR1
         1 000220   000064 676100                    ERQ     52,,PR0
         1 000221   200000 376003                    ANQ     65536,DU
         1 000222   001344 601000 1                  TNZ     FMPE$BADFNME

     1048     2059    1      S$DCB.SETX=U$DCB.SETX;

   2059  1 000223   000051 720100                    LXL0    41,,PR0
         1 000224   100051 440100                    SXL0    41,,PR1

     1049     2060    1      CALL FMR$G8(S$DCB.CFU$,I)ALTRET(RETRET);

   2060  1 000225   200004 633500                    EPPR3   I,,AUTO
         1 000226   200023 453500                    STP3    @I+2,,AUTO
         1 000227   200007 236100                    LDQ     SDCB$,,AUTO
         1 000230   000066 036003                    ADLQ    54,DU
         1 000231   200022 756100                    STQ     @I+1,,AUTO
         1 000232   200022 630500                    EPPR0   @I+1,,AUTO
         1 000233   000020 631400 xsym               EPPR1   B_VECTNIL+16
         1 000234   000000 701000 xent               TSX1    FMR$G8
         1 000235   001347 702000 1                  TSX2    RETRET

     1050     2061    1      SCFU$=S$DCB.CFU$;

   2061  1 000236   200007 470500                    LDP0    SDCB$,,AUTO
         1 000237   000066 236100                    LDQ     54,,PR0
         1 000240   200011 756100                    STQ     SCFU$,,AUTO

     1051     2062    1      S$CFU.FUN=7;

   2062  1 000241   200011 471500                    LDP1    SCFU$,,AUTO
         1 000242   700000 236003                    LDQ     -32768,DU
         1 000243   100000 256100                    ORSQ    0,,PR1

     1052     2063    1      S$DCB.FUN=%UPDATE#;
PL6.E3A0      #007=FMP$RENAME File=FMP$CLSF.:E05TSI                              TUE 07/29/97 16:59 Page:231

   2063  1 000244   000001 236003                    LDQ     1,DU
         1 000245   000032 552120                    STBQ    26,'20'O,PR0

     1053     2064    1      S$CFU.SHARE=%NONE#;

   2064  1 000246   060000 236003                    LDQ     24576,DU
         1 000247   100000 256100                    ORSQ    0,,PR1

     1054     2065    1      S$CFU.ACCTX=POFFW(ACCT$,F$CFU$);

   2065  1 000250   000000 235000 xsym               LDA     F$CFU$
         1 000251   000022 771000                    ARL     18
         1 000252   200022 755100                    STA     @I+1,,AUTO
         1 000253   200014 236100                    LDQ     ACCT$,,AUTO
         1 000254   000022 772000                    QRL     18
         1 000255   200022 136100                    SBLQ    @I+1,,AUTO
         1 000256   000000 620006                    EAX0    0,QL
         1 000257   100002 740100                    STX0    2,,PR1

     1055     2066    1      B$JIT.DCB$=SDCB$;

   2066  1 000260   200007 236100                    LDQ     SDCB$,,AUTO
         1 000261   000000 473400 xsym               LDP3    B$JIT$
         1 000262   300232 756100                    STQ     154,,PR3

     1056     2067    1      IF NOT U$DCB.STARF THEN CALL UQB$MENQX(ACCT$)ALTRET(RETRET);

   2067  1 000263   200006 474500                    LDP4    UDCB$,,AUTO
         1 000264   400064 236100                    LDQ     52,,PR4
         1 000265   200000 316003                    CANQ    65536,DU
         1 000266   000275 601000 1                  TNZ     s:2068

   2067  1 000267   200014 635500                    EPPR5   ACCT$,,AUTO
         1 000270   200022 455500                    STP5    @I+1,,AUTO
         1 000271   200022 630500                    EPPR0   @I+1,,AUTO
         1 000272   000017 631400 xsym               EPPR1   B_VECTNIL+15
PL6.E3A0      #007=FMP$RENAME File=FMP$CLSF.:E05TSI                              TUE 07/29/97 16:59 Page:232
         1 000273   000000 701000 xent               TSX1    UQB$MENQX
         1 000274   001347 702000 1                  TSX2    RETRET

     1057     2068    1      CALL FMS$SCANNAME ALTRET(FMPE$BADFNME);/* ALTRETS IF CFU FOUND */

   2068  1 000275   000002 631400 xsym               EPPR1   B_VECTNIL+2
         1 000276   000000 701000 xent               TSX1    FMS$SCANNAME
         1 000277   001344 702000 1                  TSX2    FMPE$BADFNME

     1058     2069    2      IF S$DCB.STARX=0 THEN DO;

   2069  1 000300   200007 470500                    LDP0    SDCB$,,AUTO
         1 000301   000064 236100                    LDQ     52,,PR0
         1 000302   007000 316007                    CANQ    3584,DL
         1 000303   000435 601000 1                  TNZ     s:2086

     1059     2070    2         IF S$DCB.STARF AND B$JIT.STAR.DA(0)=0 THEN CALL FMQ$BLDFD ALTRET(RETRET);

   2070  1 000304   200000 316003                    CANQ    65536,DU
         1 000305   000314 600000 1                  TZE     s:2071
         1 000306   000000 471400 xsym               LDP1    B$JIT$
         1 000307   100222 235100                    LDA     146,,PR1
         1 000310   000314 601000 1                  TNZ     s:2071

   2070  1 000311   000002 631400 xsym               EPPR1   B_VECTNIL+2
         1 000312   000000 701000 xent               TSX1    FMQ$BLDFD
         1 000313   001347 702000 1                  TSX2    RETRET

     1060     2071    2         CALL FMQ$SRCHFD(ADDR(S$DCB.NAME),BUF$,TMP$,ACCT$,ADDR(NIL))ALTRET(NOKEY);

   2071  1 000314   200007 236100                    LDQ     SDCB$,,AUTO
         1 000315   000010 036003                    ADLQ    8,DU
         1 000316   200022 756100                    STQ     @I+1,,AUTO
         1 000317   000001 236000 xsym               LDQ     B_VECTNIL+1
         1 000320   200023 756100                    STQ     @I+2,,AUTO
         1 000321   200023 630500                    EPPR0   @I+2,,AUTO
         1 000322   200030 450500                    STP0    @I+7,,AUTO
PL6.E3A0      #007=FMP$RENAME File=FMP$CLSF.:E05TSI                              TUE 07/29/97 16:59 Page:233
         1 000323   200014 631500                    EPPR1   ACCT$,,AUTO
         1 000324   200027 451500                    STP1    @I+6,,AUTO
         1 000325   200015 633500                    EPPR3   TMP$,,AUTO
         1 000326   200026 453500                    STP3    @I+5,,AUTO
         1 000327   200013 634500                    EPPR4   BUF$,,AUTO
         1 000330   200025 454500                    STP4    @I+4,,AUTO
         1 000331   200022 635500                    EPPR5   @I+1,,AUTO
         1 000332   200024 455500                    STP5    @I+3,,AUTO
         1 000333   200024 630500                    EPPR0   @I+3,,AUTO
         1 000334   000023 631400 xsym               EPPR1   B_VECTNIL+19
         1 000335   000000 701000 xent               TSX1    FMQ$SRCHFD
         1 000336   000340 702000 1                  TSX2    NOKEY

     1061     2072    2         GOTO FMPE$BADFNME;

   2072  1 000337   001344 710000 1                  TRA     FMPE$BADFNME

   2070  1 000340                       NOKEY        null
     1062     2073    2   NOKEY:;
     1063     2074    2         IF B$JIT.ERR.CODE~=%E$NOKEY THEN GOTO RETRET;

   2074  1 000340   000000 470400 xsym               LDP0    B$JIT$
         1 000341   000012 236100                    LDQ     10,,PR0
         1 000342   377770 376007                    ANQ     131064,DL
         1 000343   001020 116007                    CMPQ    528,DL
         1 000344   001347 601000 1                  TNZ     RETRET

     1064     2075    2         IF SUBSTR(S$DCB.NAME.C,0,7)=':SECLOG' AND S$CFU.ACCTX=FM_SYSACCTX AND S_CUN~=
              2075                  JG_ELF#

   2075  1 000345   200007 471500                    LDP1    SDCB$,,AUTO
         1 000346   040000 106500                    CMPC    fill='040'O
         1 000347   100010 200007                    ADSC9   8,,PR1                   cn=1,n=7
         1 000350   000004 000007 0                  ADSC9   FMP$E$ACGRANS+1          cn=0,n=7
         1 000351   000362 601000 1                  TNZ     s:2077
         1 000352   200011 473500                    LDP3    SCFU$,,AUTO
         1 000353   300002 236100                    LDQ     2,,PR3
PL6.E3A0      #007=FMP$RENAME File=FMP$CLSF.:E05TSI                              TUE 07/29/97 16:59 Page:234
         1 000354   000022 772000                    QRL     18
         1 000355   000000 116000 xsym               CMPQ    FM_SYSACCTX
         1 000356   000362 601000 1                  TNZ     s:2077
         1 000357   000000 235000 xsym               LDA     S_CUN
         1 000360   000006 115007                    CMPA    6,DL
         1 000361   001344 601000 1                  TNZ     FMPE$BADFNME

     1065     2076    2         THEN GOTO FMPE$BADFNME;
     1066     2077    2         IF B$JIT.ERR.MID~='21'O THEN CALL

   2077  1 000362   000012 236100                    LDQ     10,,PR0
         1 000363   000077 376003                    ANQ     63,DU
         1 000364   000021 116003                    CMPQ    17,DU
         1 000365   000405 600000 1                  TZE     s:2079

     1067     2078    2              FMG$ADDKEY(TMP$,SIZEW(FM$FDSEG),BUF$,ADDR(S$DCB.NAME))ALTRET(RETRET);

   2078  1 000366   200007 236100                    LDQ     SDCB$,,AUTO
         1 000367   000010 036003                    ADLQ    8,DU
         1 000370   200022 756100                    STQ     @I+1,,AUTO
         1 000371   200022 633500                    EPPR3   @I+1,,AUTO
         1 000372   200027 453500                    STP3    @I+6,,AUTO
         1 000373   200013 634500                    EPPR4   BUF$,,AUTO
         1 000374   200026 454500                    STP4    @I+5,,AUTO
         1 000375   000001 236000 2                  LDQ     1
         1 000376   200025 756100                    STQ     @I+4,,AUTO
         1 000377   200015 635500                    EPPR5   TMP$,,AUTO
         1 000400   200024 455500                    STP5    @I+3,,AUTO
         1 000401   200024 630500                    EPPR0   @I+3,,AUTO
         1 000402   000022 631400 xsym               EPPR1   B_VECTNIL+18
         1 000403   000000 701000 xent               TSX1    FMG$ADDKEY
         1 000404   001347 702000 1                  TSX2    RETRET

     1068     2079    2         B$JIT.ERR='0'B;

   2079  1 000405   000000 470400 xsym               LDP0    B$JIT$
         1 000406   000012 450100                    STZ     10,,PR0
PL6.E3A0      #007=FMP$RENAME File=FMP$CLSF.:E05TSI                              TUE 07/29/97 16:59 Page:235

     1069     2080    2         FM$KEYENT.D='0'B;

   2080  1 000407   200013 471500                    LDP1    BUF$,,AUTO
         1 000410   000031 236000 xsym               LDQ     B_VECTNIL+25
         1 000411   100000 356100                    ANSQ    0,,PR1

     1070     2081    2         FM$FDSEG.FITSDA=U$CFU.FITSDA;

   2081  1 000412   200010 470500                    LDP0    UCFU$,,AUTO
         1 000413   200015 471500                    LDP1    TMP$,,AUTO
         1 000414   000000 236100                    LDQ     0,,PR0
         1 000415   100000 552134                    STBQ    0,'34'O,PR1

     1071     2082    2         U$DCB.DESC.BUF=U$DCB.DESC.BUPM;

   2082  1 000416   200006 471500                    LDP1    UDCB$,,AUTO
         1 000417   100005 236100                    LDQ     5,,PR1
         1 000420   000007 736000                    QLS     7
         1 000421   100005 676100                    ERQ     5,,PR1
         1 000422   100000 376007                    ANQ     32768,DL
         1 000423   100005 656100                    ERSQ    5,,PR1

     1072     2083    2         FM$FDSEG.DESC=U$DCB.DESC;

   2083  1 000424   200015 473500                    LDP3    TMP$,,AUTO
         1 000425   100005 236100                    LDQ     5,,PR1
         1 000426   000022 736000                    QLS     18
         1 000427   300000 552140                    STBQ    0,'40'O,PR3

     1073     2084    2         CALL FMD$WRTSV(1);

   2084  1 000430   000001 630400 2                  EPPR0   1
         1 000431   000017 631400 xsym               EPPR1   B_VECTNIL+15
         1 000432   000000 701000 xent               TSX1    FMD$WRTSV
         1 000433   000000 011000                    NOP     0

PL6.E3A0      #007=FMP$RENAME File=FMP$CLSF.:E05TSI                              TUE 07/29/97 16:59 Page:236
     1074     2085    2         END;

   2085  1 000434   000446 710000 1                  TRA     s:2091

     1075     2086    1      ELSE B$JIT.STAR.DA(S$DCB.STARX)=U$CFU.FITSDA;

   2086  1 000435   000064 236100                    LDQ     52,,PR0
         1 000436   000011 772000                    QRL     9
         1 000437   000007 376007                    ANQ     7,DL
         1 000440   200010 471500                    LDP1    UCFU$,,AUTO
         1 000441   000000 473400 xsym               LDP3    B$JIT$
         1 000442   000000 620006                    EAX0    0,QL
         1 000443   100000 236100                    LDQ     0,,PR1
         1 000444   000032 376000 xsym               ANQ     B_VECTNIL+26
         1 000445   300222 756110                    STQ     146,X0,PR3

     1076     2087        %EJECT;
PL6.E3A0      #007=FMP$RENAME File=FMP$CLSF.:E05TSI                              TUE 07/29/97 16:59 Page:237
     1077     2088                    /* THE NEW NAME IS NOW CATALOGUED, BUT THE FIT DOWSN'T MATCH */
     1078     2089                    /* IF THE FILE IS NEW, MAKE SURE THERE IS NO OLD ONE */
     1079     2090                    /* SINCE WE BORROWED ON ITS GRANULES */
     1080     2091    2      IF U$CFU.FUN=%CREATE# THEN DO;

   2091  1 000446   200010 470500                    LDP0    UCFU$,,AUTO
         1 000447   000000 236100                    LDQ     0,,PR0
         1 000450   700000 376003                    ANQ     -32768,DU
         1 000451   300000 116003                    CMPQ    98304,DU
         1 000452   000506 601000 1                  TNZ     s:2097

     1081     2092    2         CALL FMD$FLSHBUF(1); /* RELEASE THE FD BUFFER */

   2092  1 000453   000001 630400 2                  EPPR0   1
         1 000454   000017 631400 xsym               EPPR1   B_VECTNIL+15
         1 000455   000000 701000 xent               TSX1    FMD$FLSHBUF
         1 000456   000000 011000                    NOP     0

     1082     2093    2         B$JIT.DCB$=UDCB$;

   2093  1 000457   200006 236100                    LDQ     UDCB$,,AUTO
         1 000460   000000 470400 xsym               LDP0    B$JIT$
         1 000461   000232 756100                    STQ     154,,PR0

     1083     2094    2         CALL FMQ$CTG(ADDR(U$DCB.NAME),I);

   2094  1 000462   000010 036003                    ADLQ    8,DU
         1 000463   200022 756100                    STQ     @I+1,,AUTO
         1 000464   200004 631500                    EPPR1   I,,AUTO
         1 000465   200025 451500                    STP1    @I+4,,AUTO
         1 000466   200022 633500                    EPPR3   @I+1,,AUTO
         1 000467   200024 453500                    STP3    @I+3,,AUTO
         1 000470   200024 630500                    EPPR0   @I+3,,AUTO
         1 000471   000020 631400 xsym               EPPR1   B_VECTNIL+16
         1 000472   000000 701000 xent               TSX1    FMQ$CTG
         1 000473   000000 011000                    NOP     0

PL6.E3A0      #007=FMP$RENAME File=FMP$CLSF.:E05TSI                              TUE 07/29/97 16:59 Page:238
     1084     2095    2         IF NOT U$DCB.STARF THEN CALL UQB$MENQX(ACCT$);

   2095  1 000474   200006 470500                    LDP0    UDCB$,,AUTO
         1 000475   000064 236100                    LDQ     52,,PR0
         1 000476   200000 316003                    CANQ    65536,DU
         1 000477   000506 601000 1                  TNZ     s:2097

   2095  1 000500   200014 631500                    EPPR1   ACCT$,,AUTO
         1 000501   200022 451500                    STP1    @I+1,,AUTO
         1 000502   200022 630500                    EPPR0   @I+1,,AUTO
         1 000503   000017 631400 xsym               EPPR1   B_VECTNIL+15
         1 000504   000000 701000 xent               TSX1    UQB$MENQX
         1 000505   000000 011000                    NOP     0

     1085     2096    2         END;

     1086     2097    1      B$JIT.DCB$=UDCB$;

   2097  1 000506   200006 236100                    LDQ     UDCB$,,AUTO
         1 000507   000000 470400 xsym               LDP0    B$JIT$
         1 000510   000232 756100                    STQ     154,,PR0

     1087     2098    1      BUFNO=0;

   2098  1 000511   200005 450100                    STZ     BUFNO,,AUTO

     1088     2099    1      CALL FMN$GETFIT(BUF$,BUFNO)ALTRET(RETRET);

   2099  1 000512   200005 631500                    EPPR1   BUFNO,,AUTO
         1 000513   200023 451500                    STP1    @I+2,,AUTO
         1 000514   200013 633500                    EPPR3   BUF$,,AUTO
         1 000515   200022 453500                    STP3    @I+1,,AUTO
         1 000516   200022 630500                    EPPR0   @I+1,,AUTO
         1 000517   000020 631400 xsym               EPPR1   B_VECTNIL+16
         1 000520   000000 701000 xent               TSX1    FMN$GETFIT
         1 000521   001347 702000 1                  TSX2    RETRET

PL6.E3A0      #007=FMP$RENAME File=FMP$CLSF.:E05TSI                              TUE 07/29/97 16:59 Page:239
     1089     2100    1      LOC$=PINCRW(BUF$,SIZEW(FM$GRAN));

   2100  1 000522   200013 236100                    LDQ     BUF$,,AUTO
         1 000523   000005 036003                    ADLQ    5,DU
         1 000524   200012 756100                    STQ     LOC$,,AUTO

     1090     2101    1      TMP$=LOC$;

   2101  1 000525   200015 756100                    STQ     TMP$,,AUTO

     1091     2102    2      DO I=5 TO 6;

   2102  1 000526   000005 235007                    LDA     5,DL
         1 000527   200004 755100                    STA     I,,AUTO

     1092     2103    2         CALL FMO$LOCCODX(TMP$,I)ALTRET(NOEFT);

   2103  1 000530   200004 630500                    EPPR0   I,,AUTO
         1 000531   200023 450500                    STP0    @I+2,,AUTO
         1 000532   200015 631500                    EPPR1   TMP$,,AUTO
         1 000533   200022 451500                    STP1    @I+1,,AUTO
         1 000534   200022 630500                    EPPR0   @I+1,,AUTO
         1 000535   000020 631400 xsym               EPPR1   B_VECTNIL+16
         1 000536   000000 701000 xent               TSX1    FMO$LOCCODX
         1 000537   000550 702000 1                  TSX2    NOEFT

     1093     2104    2         FM$FIT.CODES.NDW(I)=0;

   2104  1 000540   200012 470500                    LDP0    LOC$,,AUTO
         1 000541   200004 720100                    LXL0    I,,AUTO
         1 000542   000002 236000 2                  LDQ     2
         1 000543   000000 356110                    ANSQ    0,X0,PR0

     1094     2105    2         I=FM$FIT.CODES.CODE(I);

   2105  1 000544   200004 720100                    LXL0    I,,AUTO
         1 000545   000000 236110                    LDQ     0,X0,PR0
PL6.E3A0      #007=FMP$RENAME File=FMP$CLSF.:E05TSI                              TUE 07/29/97 16:59 Page:240
         1 000546   000037 772000                    QRL     31
         1 000547   200004 756100                    STQ     I,,AUTO

     1095     2106    2   NOEFT:END;

   2106  1 000550   200004 054100       NOEFT        AOS     I,,AUTO
         1 000551   200004 235100                    LDA     I,,AUTO
         1 000552   000006 115007                    CMPA    6,DL
         1 000553   000530 604400 1                  TMOZ    s:2103

     1096     2107    1      CALL SSS$SYSTIME(I);

   2107  1 000554   200004 630500                    EPPR0   I,,AUTO
         1 000555   200022 450500                    STP0    @I+1,,AUTO
         1 000556   200022 630500                    EPPR0   @I+1,,AUTO
         1 000557   000017 631400 xsym               EPPR1   B_VECTNIL+15
         1 000560   000000 701000 xent               TSX1    SSS$SYSTIME
         1 000561   000000 011000                    NOP     0

     1097     2108    1      CALL LOCCODP(4)ALTRET(NOTIME);

   2108  1 000562   000003 236000 2                  LDQ     3
         1 000563   200021 756100                    STQ     DA+3,,AUTO
         1 000564   001511 701000 1                  TSX1    LOCCODP
         1 000565   000571 702000 1                  TSX2    NOTIME

     1098     2109    1      CODE04.MODIFY.TIME=I;

   2109  1 000566   200004 235100                    LDA     I,,AUTO
         1 000567   200012 470500                    LDP0    LOC$,,AUTO
         1 000570   000001 755100                    STA     1,,PR0

   2109  1 000571                       NOTIME       null
     1099     2110    1   NOTIME:;
     1100     2111    1      CALL LOCCODP(3);

   2111  1 000571   000004 236000 2                  LDQ     4
PL6.E3A0      #007=FMP$RENAME File=FMP$CLSF.:E05TSI                              TUE 07/29/97 16:59 Page:241
         1 000572   200021 756100                    STQ     DA+3,,AUTO
         1 000573   001511 701000 1                  TSX1    LOCCODP
         1 000574   000000 011000                    NOP     0

     1101     2112    1      B$JIT.DCB$=SDCB$;

   2112  1 000575   200007 236100                    LDQ     SDCB$,,AUTO
         1 000576   000000 470400 xsym               LDP0    B$JIT$
         1 000577   000232 756100                    STQ     154,,PR0

     1102     2113    1      CALL FMM$NSTAMP(CODE03.NSTAMP);

   2113  1 000600   200012 236100                    LDQ     LOC$,,AUTO
         1 000601   000006 036003                    ADLQ    6,DU
         1 000602   200022 756100                    STQ     @I+1,,AUTO
         1 000603   200022 630500                    EPPR0   @I+1,,AUTO
         1 000604   000017 631400 xsym               EPPR1   B_VECTNIL+15
         1 000605   000000 701000 xent               TSX1    FMM$NSTAMP
         1 000606   000000 011000                    NOP     0

     1103     2114    1      B$JIT.DCB$=UDCB$;

   2114  1 000607   200006 236100                    LDQ     UDCB$,,AUTO
         1 000610   000000 470400 xsym               LDP0    B$JIT$
         1 000611   000232 756100                    STQ     154,,PR0

     1104     2115    1      CALL FMD$WRTSV(BUFNO);

   2115  1 000612   200005 631500                    EPPR1   BUFNO,,AUTO
         1 000613   200022 451500                    STP1    @I+1,,AUTO
         1 000614   200022 630500                    EPPR0   @I+1,,AUTO
         1 000615   000017 631400 xsym               EPPR1   B_VECTNIL+15
         1 000616   000000 701000 xent               TSX1    FMD$WRTSV
         1 000617   000000 011000                    NOP     0

     1105     2116    1      S$CFU.FITSDA=U$CFU.FITSDA;

PL6.E3A0      #007=FMP$RENAME File=FMP$CLSF.:E05TSI                              TUE 07/29/97 16:59 Page:242
   2116  1 000620   200010 470500                    LDP0    UCFU$,,AUTO
         1 000621   200011 471500                    LDP1    SCFU$,,AUTO
         1 000622   000000 236100                    LDQ     0,,PR0
         1 000623   100000 552134                    STBQ    0,'34'O,PR1

     1106     2117    2      IF U$CFU.FUN=%JRNL# THEN DO;

   2117  1 000624   000000 236100                    LDQ     0,,PR0
         1 000625   700000 376003                    ANQ     -32768,DU
         1 000626   400000 116003                    CMPQ    -131072,DU
         1 000627   001114 601000 1                  TNZ     s:2176

     1107     2118                    /* IF JOURNAL SWITCH, START UP A NEW FILE HERE */
     1108     2119    3         IF BUFNO=1 THEN DO;

   2119  1 000630   200005 235100                    LDA     BUFNO,,AUTO
         1 000631   000001 115007                    CMPA    1,DL
         1 000632   000673 601000 1                  TNZ     s:2130

     1109     2120    3            LOC$=BUF$;

   2120  1 000633   200013 236100                    LDQ     BUF$,,AUTO
         1 000634   200012 756100                    STQ     LOC$,,AUTO

     1110     2121    3            CALL FMD$GETBUF(0,1,BUF$);

   2121  1 000635   200013 633500                    EPPR3   BUF$,,AUTO
         1 000636   200024 453500                    STP3    @I+3,,AUTO
         1 000637   000006 237000 2                  LDAQ    6
         1 000640   200022 757100                    STAQ    @I+1,,AUTO
         1 000641   200022 630500                    EPPR0   @I+1,,AUTO
         1 000642   000021 631400 xsym               EPPR1   B_VECTNIL+17
         1 000643   000000 701000 xent               TSX1    FMD$GETBUF
         1 000644   000000 011000                    NOP     0

     1111     2122    3            BUF$->GRAN=LOC$->GRAN;

PL6.E3A0      #007=FMP$RENAME File=FMP$CLSF.:E05TSI                              TUE 07/29/97 16:59 Page:243
   2122  1 000645   200012 470500                    LDP0    LOC$,,AUTO
         1 000646   010000 220003                    LDX0    4096,DU
         1 000647   200013 471500                    LDP1    BUF$,,AUTO
         1 000650   040140 100540                    MLR     fill='040'O
         1 000651   000000 000010                    ADSC9   0,,PR0                   cn=0,n=*X0
         1 000652   100000 000010                    ADSC9   0,,PR1                   cn=0,n=*X0

     1112     2123    3            BUFNO=0;

   2123  1 000653   200005 450100                    STZ     BUFNO,,AUTO

     1113     2124    3            DA=U$CFU.FITSDA;

   2124  1 000654   200010 471500                    LDP1    UCFU$,,AUTO
         1 000655   100000 236100                    LDQ     0,,PR1
         1 000656   000032 376000 xsym               ANQ     B_VECTNIL+26
         1 000657   200016 756100                    STQ     DA,,AUTO

     1114     2125    3            CALL FMC$CLR1(DA);

   2125  1 000660   200016 633500                    EPPR3   DA,,AUTO
         1 000661   200022 453500                    STP3    @I+1,,AUTO
         1 000662   200022 630500                    EPPR0   @I+1,,AUTO
         1 000663   000017 631400 xsym               EPPR1   B_VECTNIL+15
         1 000664   000000 701000 xent               TSX1    FMC$CLR1
         1 000665   000000 011000                    NOP     0

     1115     2126    3            CALL LOCCODP(3);

   2126  1 000666   000004 236000 2                  LDQ     4
         1 000667   200021 756100                    STQ     DA+3,,AUTO
         1 000670   001511 701000 1                  TSX1    LOCCODP
         1 000671   000000 011000                    NOP     0

     1116     2127    3            END;

   2127  1 000672   000717 710000 1                  TRA     s:2134
PL6.E3A0      #007=FMP$RENAME File=FMP$CLSF.:E05TSI                              TUE 07/29/97 16:59 Page:244

     1117     2128    2         ELSE
     1118     2129    3         DO;   /* GET UNCACHED COPY */

     1119     2130    3            CALL FMD$FLSHBUF(BUFNO);

   2130  1 000673   200005 633500                    EPPR3   BUFNO,,AUTO
         1 000674   200022 453500                    STP3    @I+1,,AUTO
         1 000675   200022 630500                    EPPR0   @I+1,,AUTO
         1 000676   000017 631400 xsym               EPPR1   B_VECTNIL+15
         1 000677   000000 701000 xent               TSX1    FMD$FLSHBUF
         1 000700   000000 011000                    NOP     0

     1120     2131    3            DA=U$CFU.FITSDA;

   2131  1 000701   200010 470500                    LDP0    UCFU$,,AUTO
         1 000702   000000 236100                    LDQ     0,,PR0
         1 000703   000032 376000 xsym               ANQ     B_VECTNIL+26
         1 000704   200016 756100                    STQ     DA,,AUTO

     1121     2132    3            CALL FMD$REDBUFBC(BUF$, BUFNO, DA) ALTRET(RETRET);

   2132  1 000705   200016 631500                    EPPR1   DA,,AUTO
         1 000706   200024 451500                    STP1    @I+3,,AUTO
         1 000707   200005 633500                    EPPR3   BUFNO,,AUTO
         1 000710   200023 453500                    STP3    @I+2,,AUTO
         1 000711   200013 634500                    EPPR4   BUF$,,AUTO
         1 000712   200022 454500                    STP4    @I+1,,AUTO
         1 000713   200022 630500                    EPPR0   @I+1,,AUTO
         1 000714   000021 631400 xsym               EPPR1   B_VECTNIL+17
         1 000715   000000 701000 xent               TSX1    FMD$REDBUFBC
         1 000716   001347 702000 1                  TSX2    RETRET

     1122     2133    3            END; /* GET UNCACHED COPY */

     1123     2134    2         CALL FMH$JRELPG(1);

PL6.E3A0      #007=FMP$RENAME File=FMP$CLSF.:E05TSI                              TUE 07/29/97 16:59 Page:245
   2134  1 000717   000001 630400 2                  EPPR0   1
         1 000720   000017 631400 xsym               EPPR1   B_VECTNIL+15
         1 000721   000000 701000 xent               TSX1    FMH$JRELPG
         1 000722   000000 011000                    NOP     0

     1124     2135    2         U$DCB.BFR(1)=U$DCB.BFR(BUFNO);

   2135  1 000723   200006 470500                    LDP0    UDCB$,,AUTO
         1 000724   200005 720100                    LXL0    BUFNO,,AUTO
         1 000725   000115 236110                    LDQ     77,X0,PR0
         1 000726   000116 756100                    STQ     78,,PR0

     1125     2136    2         U$DCB.BFR1(1)=U$DCB.BFR1(BUFNO);

   2136  1 000727   000122 236110                    LDQ     82,X0,PR0
         1 000730   000123 756100                    STQ     83,,PR0

     1126     2137    2         U$DCB.BFR(BUFNO)='0'B;

   2137  1 000731   000115 450110                    STZ     77,X0,PR0

     1127     2138    2         U$DCB.BFR1(BUFNO)='0'B;

   2138  1 000732   200005 720100                    LXL0    BUFNO,,AUTO
         1 000733   000122 450110                    STZ     82,X0,PR0

     1128     2139    2         U$CFU.FITSDA=0;

   2139  1 000734   200010 471500                    LDP1    UCFU$,,AUTO
         1 000735   000000 236003                    LDQ     0,DU
         1 000736   100000 552134                    STBQ    0,'34'O,PR1

     1129     2140    2         U$CFU.UGRANS=0;

   2140  1 000737   100004 552134                    STBQ    4,'34'O,PR1

     1130     2141    2         U$CFU.AFIT=0;
PL6.E3A0      #007=FMP$RENAME File=FMP$CLSF.:E05TSI                              TUE 07/29/97 16:59 Page:246

   2141  1 000740   000010 236000 2                  LDQ     8
         1 000741   100000 356100                    ANSQ    0,,PR1

     1131     2142    2         U$CFU.NRECS=0;

   2142  1 000742   100001 450100                    STZ     1,,PR1

     1132     2143    2         U$CFU.LDA=FM_FRZERO;

   2143  1 000743   000100 101400                    MRL     fill='000'O
         1 000744   000000 000004 xsym               ADSC9   FM_FRZERO                cn=0,n=4
         1 000745   100006 400003                    ADSC9   6,,PR1                   cn=2,n=3

     1133     2144    2         FM$GRAN.LVL=0;/* NOT AN AFIT */

   2144  1 000746   200013 473500                    LDP3    BUF$,,AUTO
         1 000747   000011 236000 2                  LDQ     9
         1 000750   300001 356100                    ANSQ    1,,PR3

     1134     2145    2         FM$GRAN.NAVX=FM$GRAN.FCEX;

   2145  1 000751   200013 473500                    LDP3    BUF$,,AUTO
         1 000752   300002 220100                    LDX0    2,,PR3
         1 000753   300001 740100                    STX0    1,,PR3

     1135     2146    2         FM$GRAN.AVAIL=1024-FM$GRAN.NAVX;

   2146  1 000754   200013 473500                    LDP3    BUF$,,AUTO
         1 000755   300001 236100                    LDQ     1,,PR3
         1 000756   000022 772000                    QRL     18
         1 000757   000027 676000 xsym               ERQ     B_VECTNIL+23
         1 000760   002001 036007                    ADLQ    1025,DL
         1 000761   300001 676100                    ERQ     1,,PR3
         1 000762   001777 376007                    ANQ     1023,DL
         1 000763   300001 656100                    ERSQ    1,,PR3

PL6.E3A0      #007=FMP$RENAME File=FMP$CLSF.:E05TSI                              TUE 07/29/97 16:59 Page:247
     1136     2147    2         CALL FMM$NSTAMP(CODE03.NSTAMP);

   2147  1 000764   200012 236100                    LDQ     LOC$,,AUTO
         1 000765   000006 036003                    ADLQ    6,DU
         1 000766   200022 756100                    STQ     @I+1,,AUTO
         1 000767   200022 630500                    EPPR0   @I+1,,AUTO
         1 000770   000017 631400 xsym               EPPR1   B_VECTNIL+15
         1 000771   000000 701000 xent               TSX1    FMM$NSTAMP
         1 000772   000000 011000                    NOP     0

     1137     2148    2         CODE03.UGRANS=0;

   2148  1 000773   200012 470500                    LDP0    LOC$,,AUTO
         1 000774   000000 236003                    LDQ     0,DU
         1 000775   000000 552134                    STBQ    0,'34'O,PR0

     1138     2149    2         CODE03.NGAVAL=0;

   2149  1 000776   000003 552134                    STBQ    3,'34'O,PR0

     1139     2150    2         CODE03.NRECS=0;

   2150  1 000777   000002 450100                    STZ     2,,PR0

     1140     2151    2         CODE03.DESC.BAD='0'B;

   2151  1 001000   000012 236000 2                  LDQ     10
         1 001001   000001 356100                    ANSQ    1,,PR0

     1141     2152    2         U$DCB.HASH=I;

   2152  1 001002   200006 471500                    LDP1    UDCB$,,AUTO
         1 001003   200004 236100                    LDQ     I,,AUTO
         1 001004   000011 736000                    QLS     9
         1 001005   100073 552170                    STBQ    59,'70'O,PR1

     1142     2153    2         FM$GRAN.STAMP.GMOD=0;
PL6.E3A0      #007=FMP$RENAME File=FMP$CLSF.:E05TSI                              TUE 07/29/97 16:59 Page:248

   2153  1 001006   200013 473500                    LDP3    BUF$,,AUTO
         1 001007   000000 236003                    LDQ     0,DU
         1 001010   300000 552104                    STBQ    0,'04'O,PR3

     1143     2154    2         FM$GRAN.STAMP.HASH=I;

   2154  1 001011   200013 473500                    LDP3    BUF$,,AUTO
         1 001012   200004 236100                    LDQ     I,,AUTO
         1 001013   000011 736000                    QLS     9
         1 001014   300000 552170                    STBQ    0,'70'O,PR3

     1144     2155    2         CALL LOCCODP(4)ALTRET(NOTIME1);

   2155  1 001015   000003 236000 2                  LDQ     3
         1 001016   200021 756100                    STQ     DA+3,,AUTO
         1 001017   001511 701000 1                  TSX1    LOCCODP
         1 001020   001030 702000 1                  TSX2    NOTIME1

     1145     2156    2         CODE04.ACCESS.TIME=I;

   2156  1 001021   200004 235100                    LDA     I,,AUTO
         1 001022   200012 470500                    LDP0    LOC$,,AUTO
         1 001023   000000 755100                    STA     0,,PR0

     1146     2157    2         CODE04.CREATION.TIME=I;

   2157  1 001024   200004 236100                    LDQ     I,,AUTO
         1 001025   000002 756100                    STQ     2,,PR0

     1147     2158    2         CODE04.SVMODIFY.TIME=I;

   2158  1 001026   200004 235100                    LDA     I,,AUTO
         1 001027   000010 755100                    STA     8,,PR0

   2158  1 001030                       NOTIME1      null
     1148     2159    2   NOTIME1:;
PL6.E3A0      #007=FMP$RENAME File=FMP$CLSF.:E05TSI                              TUE 07/29/97 16:59 Page:249
     1149     2160    2         PINCRW(BUF$,SIZEW(FM$GRAN))->FM$FIT.CODES.NDW(1)=1;

   2160  1 001030   200013 470500                    LDP0    BUF$,,AUTO
         1 001031   000006 236100                    LDQ     6,,PR0
         1 001032   000002 376000 2                  ANQ     2
         1 001033   002000 276007                    ORQ     1024,DL
         1 001034   000006 756100                    STQ     6,,PR0

     1150     2161    2         CALL LOCCODP(1);/* FIX EXTENT LIST, HASH*/

   2161  1 001035   000001 236000 2                  LDQ     1
         1 001036   200021 756100                    STQ     DA+3,,AUTO
         1 001037   001511 701000 1                  TSX1    LOCCODP
         1 001040   000000 011000                    NOP     0

     1151     2162    2         CODE01.HASH=I;

   2162  1 001041   200012 470500                    LDP0    LOC$,,AUTO
         1 001042   200004 236100                    LDQ     I,,AUTO
         1 001043   000000 552134                    STBQ    0,'34'O,PR0

     1152     2163    2         CODE01.NXTNTS=0;

   2163  1 001044   000000 236003                    LDQ     0,DU
         1 001045   000000 552140                    STBQ    0,'40'O,PR0

     1153     2164    2         CALL FMR$G8(TMP$,I)ALTRET(RETRET);

   2164  1 001046   200004 631500                    EPPR1   I,,AUTO
         1 001047   200023 451500                    STP1    @I+2,,AUTO
         1 001050   200015 633500                    EPPR3   TMP$,,AUTO
         1 001051   200022 453500                    STP3    @I+1,,AUTO
         1 001052   200022 630500                    EPPR0   @I+1,,AUTO
         1 001053   000020 631400 xsym               EPPR1   B_VECTNIL+16
         1 001054   000000 701000 xent               TSX1    FMR$G8
         1 001055   001347 702000 1                  TSX2    RETRET

PL6.E3A0      #007=FMP$RENAME File=FMP$CLSF.:E05TSI                              TUE 07/29/97 16:59 Page:250
     1154     2165    2         S$CFU.XTX=U$CFU.XTX;

   2165  1 001056   200010 470500                    LDP0    UCFU$,,AUTO
         1 001057   000003 220100                    LDX0    3,,PR0
         1 001060   200011 471500                    LDP1    SCFU$,,AUTO
         1 001061   100003 740100                    STX0    3,,PR1

     1155     2166    2         U$CFU.XTX=I;

   2166  1 001062   200004 721100                    LXL1    I,,AUTO
         1 001063   000003 741100                    STX1    3,,PR0

     1156     2167    2         U$DCB.BFR.DA(1)=FM_FRZERO;

   2167  1 001064   200006 473500                    LDP3    UDCB$,,AUTO
         1 001065   000000 236000 xsym               LDQ     FM_FRZERO
         1 001066   300116 552134                    STBQ    78,'34'O,PR3

     1157     2168    2         U$DCB.IXTNSIZE=U$DCB.XTNSIZE+1;

   2168  1 001067   300037 236100                    LDQ     31,,PR3
         1 001070   000022 772000                    QRL     18
         1 001071   000001 036007                    ADLQ    1,DL
         1 001072   300041 756100                    STQ     33,,PR3

     1158     2169    2         U$DCB.BFR.BUFUP(1)='1'B;

   2169  1 001073   400000 236003                    LDQ     -131072,DU
         1 001074   300116 256100                    ORSQ    78,,PR3

     1159     2170    2         CALL FAG$GEXT ALTRET(RETRET);

   2170  1 001075   000002 631400 xsym               EPPR1   B_VECTNIL+2
         1 001076   000000 701000 xent               TSX1    FAG$GEXT
         1 001077   001347 702000 1                  TSX2    RETRET

     1160     2171    2         U$CFU.UGRANS=1;
PL6.E3A0      #007=FMP$RENAME File=FMP$CLSF.:E05TSI                              TUE 07/29/97 16:59 Page:251

   2171  1 001100   200010 470500                    LDP0    UCFU$,,AUTO
         1 001101   000001 236007                    LDQ     1,DL
         1 001102   000004 552134                    STBQ    4,'34'O,PR0

     1161     2172    2         U$CFU.NGAVAL=U$CFU.NGAVAL-1;

   2172  1 001103   000007 236100                    LDQ     7,,PR0
         1 001104   000032 036000 xsym               ADLQ    B_VECTNIL+26
         1 001105   000007 552134                    STBQ    7,'34'O,PR0

     1162     2173    2         U$CFU.FITSDA=FM$CFUEXT.XTNT.XTNSDA(0);

   2173  1 001106   200012 471500                    LDP1    LOC$,,AUTO
         1 001107   100001 236100                    LDQ     1,,PR1
         1 001110   000000 552134                    STBQ    0,'34'O,PR0

     1163     2174    2         U$CFUJ.ERR_WAIT='0'B;

   2174  1 001111   000013 236000 2                  LDQ     11
         1 001112   000005 356100                    ANSQ    5,,PR0

     1164     2175    2         END;

   2175  1 001113   001116 710000 1                  TRA     s:2177

     1165     2176    1      ELSE U$CFU.FITSDA=0;

   2176  1 001114   000000 236003                    LDQ     0,DU
         1 001115   000000 552134                    STBQ    0,'34'O,PR0

     1166     2177    1      CALL FMD$FLSHBUF(1);/* MOVE STAR BUFFER HERE*/

   2177  1 001116   000001 630400 2                  EPPR0   1
         1 001117   000017 631400 xsym               EPPR1   B_VECTNIL+15
         1 001120   000000 701000 xent               TSX1    FMD$FLSHBUF
         1 001121   000000 011000                    NOP     0
PL6.E3A0      #007=FMP$RENAME File=FMP$CLSF.:E05TSI                              TUE 07/29/97 16:59 Page:252

     1167     2178    1      U$DCB.BFR1(1)=S$DCB.BFR1(1);

   2178  1 001122   200007 470500                    LDP0    SDCB$,,AUTO
         1 001123   000123 236100                    LDQ     83,,PR0
         1 001124   200006 471500                    LDP1    UDCB$,,AUTO
         1 001125   100123 756100                    STQ     83,,PR1

     1168     2179    1      S$DCB.BFR1(1)='0'B;

   2179  1 001126   000123 450100                    STZ     83,,PR0

     1169     2180    1      U$DCB.BFR(1)=S$DCB.BFR(1);

   2180  1 001127   000116 236100                    LDQ     78,,PR0
         1 001130   100116 756100                    STQ     78,,PR1

     1170     2181    1      S$DCB.BFR(1)='0'B;

   2181  1 001131   000116 450100                    STZ     78,,PR0

     1171     2182    2      IF U$DCB.STARX=0 THEN DO;

   2182  1 001132   100064 236100                    LDQ     52,,PR1
         1 001133   007000 316007                    CANQ    3584,DL
         1 001134   001236 601000 1                  TNZ     s:2200

     1172     2183                    /* NOW REMOVE THE OLD FD POINTER */
     1173     2184    2         CALL FMQ$SRCHFD(ADDR(U$DCB.NAME),BUF$,TMP$,ACCT$,ADDR(NIL))ALTRET(RETRET);

   2184  1 001135   200006 236100                    LDQ     UDCB$,,AUTO
         1 001136   000010 036003                    ADLQ    8,DU
         1 001137   200022 756100                    STQ     @I+1,,AUTO
         1 001140   000001 236000 xsym               LDQ     B_VECTNIL+1
         1 001141   200023 756100                    STQ     @I+2,,AUTO
         1 001142   200023 633500                    EPPR3   @I+2,,AUTO
         1 001143   200030 453500                    STP3    @I+7,,AUTO
PL6.E3A0      #007=FMP$RENAME File=FMP$CLSF.:E05TSI                              TUE 07/29/97 16:59 Page:253
         1 001144   200014 634500                    EPPR4   ACCT$,,AUTO
         1 001145   200027 454500                    STP4    @I+6,,AUTO
         1 001146   200015 635500                    EPPR5   TMP$,,AUTO
         1 001147   200026 455500                    STP5    @I+5,,AUTO
         1 001150   200013 636500                    EPPR6   BUF$,,AUTO
         1 001151   200025 456500                    STP6    @I+4,,AUTO
         1 001152   200022 637500                    EPPR7   @I+1,,AUTO
         1 001153   200024 457500                    STP7    @I+3,,AUTO
         1 001154   200024 630500                    EPPR0   @I+3,,AUTO
         1 001155   000023 631400 xsym               EPPR1   B_VECTNIL+19
         1 001156   000000 701000 xent               TSX1    FMQ$SRCHFD
         1 001157   001347 702000 1                  TSX2    RETRET

     1174     2185    2         FM$FDSEG.FITSDA=U$CFU.FITSDA;

   2185  1 001160   200010 470500                    LDP0    UCFU$,,AUTO
         1 001161   200015 471500                    LDP1    TMP$,,AUTO
         1 001162   000000 236100                    LDQ     0,,PR0
         1 001163   100000 552134                    STBQ    0,'34'O,PR1

     1175     2186    2         FM$FDSEG.DESC.BAD='0'B;

   2186  1 001164   200015 471500                    LDP1    TMP$,,AUTO
         1 001165   000012 236000 2                  LDQ     10
         1 001166   100000 356100                    ANSQ    0,,PR1

     1176     2187    2         U$DCB.BFR.BUFUP(1)='1'B;

   2187  1 001167   200006 471500                    LDP1    UDCB$,,AUTO
         1 001170   400000 236003                    LDQ     -131072,DU
         1 001171   100116 256100                    ORSQ    78,,PR1

     1177     2188    3         IF U$CFU.FITSDA=0 THEN DO;

   2188  1 001172   000000 236100                    LDQ     0,,PR0
         1 001173   000032 316000 xsym               CANQ    B_VECTNIL+26
         1 001174   001247 601000 1                  TNZ     s:2201
PL6.E3A0      #007=FMP$RENAME File=FMP$CLSF.:E05TSI                              TUE 07/29/97 16:59 Page:254

     1178     2189    3            FM$KEYENT.D='1'B;

   2189  1 001175   200013 473500                    LDP3    BUF$,,AUTO
         1 001176   400000 236003                    LDQ     -131072,DU
         1 001177   300000 256100                    ORSQ    0,,PR3

     1179     2190    3            FM$FDSEG='0'B;

   2190  1 001200   200015 473500                    LDP3    TMP$,,AUTO
         1 001201   300000 450100                    STZ     0,,PR3

     1180     2191    3            FM$FDSEG.DESC.DELF='1'B;

   2191  1 001202   200015 473500                    LDP3    TMP$,,AUTO
         1 001203   300000 256100                    ORSQ    0,,PR3

     1181     2192    3            IF U$DCB.STARF THEN CALL FMG$REMKEY;

   2192  1 001204   100064 236100                    LDQ     52,,PR1
         1 001205   200000 316003                    CANQ    65536,DU
         1 001206   001213 600000 1                  TZE     s:2193

   2192  1 001207   000002 631400 xsym               EPPR1   B_VECTNIL+2
         1 001210   000000 701000 xent               TSX1    FMG$REMKEY
         1 001211   000000 011000                    NOP     0
         1 001212   001247 710000 1                  TRA     s:2201

     1182     2193    3            ELSE IF NOT FM$CFUA.ACCESS.BUPF THEN CALL FMG$REMKEY;

   2193  1 001213   200014 473500                    LDP3    ACCT$,,AUTO
         1 001214   300005 236100                    LDQ     5,,PR3
         1 001215   040000 316007                    CANQ    16384,DL
         1 001216   001223 601000 1                  TNZ     s:2195

   2193  1 001217   000002 631400 xsym               EPPR1   B_VECTNIL+2
         1 001220   000000 701000 xent               TSX1    FMG$REMKEY
PL6.E3A0      #007=FMP$RENAME File=FMP$CLSF.:E05TSI                              TUE 07/29/97 16:59 Page:255
         1 001221   000000 011000                    NOP     0
         1 001222   001247 710000 1                  TRA     s:2201

     1183     2194    4               ELSE DO;

     1184     2195    4                  CALL SSS$SYSTIME(I);

   2195  1 001223   200004 634500                    EPPR4   I,,AUTO
         1 001224   200022 454500                    STP4    @I+1,,AUTO
         1 001225   200022 630500                    EPPR0   @I+1,,AUTO
         1 001226   000017 631400 xsym               EPPR1   B_VECTNIL+15
         1 001227   000000 701000 xent               TSX1    SSS$SYSTIME
         1 001230   000000 011000                    NOP     0

     1185     2196    4                  FM$FDSEG.FITSDA=IU/512;

   2196  1 001231   200004 236100                    LDQ     I,,AUTO
         1 001232   000011 772000                    QRL     9
         1 001233   200015 470500                    LDP0    TMP$,,AUTO
         1 001234   000000 552134                    STBQ    0,'34'O,PR0

     1186     2197    4                  END;

     1187     2198    3            END;

     1188     2199    2         END;

   2199  1 001235   001247 710000 1                  TRA     s:2201

     1189     2200    1      ELSE B$JIT.STAR.DA(U$DCB.STARX)=U$CFU.FITSDA;

   2200  1 001236   100064 236100                    LDQ     52,,PR1
         1 001237   000011 772000                    QRL     9
         1 001240   000007 376007                    ANQ     7,DL
         1 001241   200010 473500                    LDP3    UCFU$,,AUTO
         1 001242   000000 474400 xsym               LDP4    B$JIT$
         1 001243   000000 620006                    EAX0    0,QL
PL6.E3A0      #007=FMP$RENAME File=FMP$CLSF.:E05TSI                              TUE 07/29/97 16:59 Page:256
         1 001244   300000 236100                    LDQ     0,,PR3
         1 001245   000032 376000 xsym               ANQ     B_VECTNIL+26
         1 001246   400222 756110                    STQ     146,X0,PR4

     1190     2201    1      CALL FMP$RELCFUS(S$DCB.CFU$);

   2201  1 001247   200007 236100                    LDQ     SDCB$,,AUTO
         1 001250   000066 036003                    ADLQ    54,DU
         1 001251   200022 756100                    STQ     @I+1,,AUTO
         1 001252   200022 630500                    EPPR0   @I+1,,AUTO
         1 001253   000017 631400 xsym               EPPR1   B_VECTNIL+15
         1 001254   000000 701000 xent               TSX1    FMP$RELCFUS
         1 001255   000000 011000                    NOP     0

     1191     2202    1      CALL FMD$FLSHBUF(1);

   2202  1 001256   000001 630400 2                  EPPR0   1
         1 001257   000017 631400 xsym               EPPR1   B_VECTNIL+15
         1 001260   000000 701000 xent               TSX1    FMD$FLSHBUF
         1 001261   000000 011000                    NOP     0

     1192     2203    1      IF NOT U$DCB.STARF THEN CALL UQB$MDEQ(ACCT$);

   2203  1 001262   200006 470500                    LDP0    UDCB$,,AUTO
         1 001263   000064 236100                    LDQ     52,,PR0
         1 001264   200000 316003                    CANQ    65536,DU
         1 001265   001274 601000 1                  TNZ     s:2204

   2203  1 001266   200014 631500                    EPPR1   ACCT$,,AUTO
         1 001267   200022 451500                    STP1    @I+1,,AUTO
         1 001270   200022 630500                    EPPR0   @I+1,,AUTO
         1 001271   000017 631400 xsym               EPPR1   B_VECTNIL+15
         1 001272   000000 701000 xent               TSX1    UQB$MDEQ
         1 001273   000000 011000                    NOP     0

     1193     2204    2      IF U$CFU.FUN=%JRNL# THEN DO;

PL6.E3A0      #007=FMP$RENAME File=FMP$CLSF.:E05TSI                              TUE 07/29/97 16:59 Page:257
   2204  1 001274   200010 470500                    LDP0    UCFU$,,AUTO
         1 001275   000000 236100                    LDQ     0,,PR0
         1 001276   700000 376003                    ANQ     -32768,DU
         1 001277   400000 116003                    CMPQ    -131072,DU
         1 001300   001343 601000 1                  TNZ     s:2216

     1194     2205    2         IC=B$JIT.ERR;

   2205  1 001301   000000 471400 xsym               LDP1    B$JIT$
         1 001302   100012 236100                    LDQ     10,,PR1
         1 001303   200004 756100                    STQ     I,,AUTO

   2205  1 001304                       JRNLRET      null
     1195     2206    2   JRNLRET:;
     1196     2207    2         U$DCB.SHARED='0'B; /* DISABLE ENQ-DEQ IN FMF */

   2207  1 001304   200006 470500                    LDP0    UDCB$,,AUTO
         1 001305   000014 236000 2                  LDQ     12
         1 001306   000064 356100                    ANSQ    52,,PR0

     1197     2208    2         U$DCB.GTYP=FMGTFILE;

   2208  1 001307   000064 236100                    LDQ     52,,PR0
         1 001310   000015 376000 2                  ANQ     13
         1 001311   030000 276003                    ORQ     12288,DU
         1 001312   000064 756100                    STQ     52,,PR0

     1198     2209    2         CALL FMF$PEOF(FPTPFILEOF);

   2209  1 001313   000016 630400 2                  EPPR0   14
         1 001314   000017 631400 xsym               EPPR1   B_VECTNIL+15
         1 001315   000000 701000 xent               TSX1    FMF$PEOF
         1 001316   000000 011000                    NOP     0

     1199     2210    2         U$DCB.SHARED='1'B;

   2210  1 001317   200006 470500                    LDP0    UDCB$,,AUTO
PL6.E3A0      #007=FMP$RENAME File=FMP$CLSF.:E05TSI                              TUE 07/29/97 16:59 Page:258
         1 001320   100000 236003                    LDQ     32768,DU
         1 001321   000064 256100                    ORSQ    52,,PR0

     1200     2211    2         CALL FMH$JGETPG(1);

   2211  1 001322   000001 630400 2                  EPPR0   1
         1 001323   000017 631400 xsym               EPPR1   B_VECTNIL+15
         1 001324   000000 701000 xent               TSX1    FMH$JGETPG
         1 001325   000000 011000                    NOP     0

     1201     2212    2         CALL UQB$MDEQ(U$DCB.CFU$);

   2212  1 001326   200006 236100                    LDQ     UDCB$,,AUTO
         1 001327   000066 036003                    ADLQ    54,DU
         1 001330   200022 756100                    STQ     @I+1,,AUTO
         1 001331   200022 630500                    EPPR0   @I+1,,AUTO
         1 001332   000017 631400 xsym               EPPR1   B_VECTNIL+15
         1 001333   000000 701000 xent               TSX1    UQB$MDEQ
         1 001334   000000 011000                    NOP     0

     1202     2213    2         B$JIT.ERR=IC;

   2213  1 001335   200004 236100                    LDQ     I,,AUTO
         1 001336   000000 470400 xsym               LDP0    B$JIT$
         1 001337   000012 756100                    STQ     10,,PR0

     1203     2214    2         CALL UDB$PMMEXIT;

   2214  1 001340   000002 631400 xsym               EPPR1   B_VECTNIL+2
         1 001341   000000 701000 xent               TSX1    UDB$PMMEXIT
         1 001342   000000 011000                    NOP     0

     1204     2215    2         END;

     1205     2216    1      RETURN;

   2216  1 001343   000000 702200 xent               TSX2  ! X66_ARET
PL6.E3A0      #007=FMP$RENAME File=FMP$CLSF.:E05TSI                              TUE 07/29/97 16:59 Page:259

   2212  1 001344                       FMPE$BADFNME null
     1206     2217                    /**/
     1207     2218        %EJECT;
PL6.E3A0      #007=FMP$RENAME File=FMP$CLSF.:E05TSI                              TUE 07/29/97 16:59 Page:260
     1208     2219    1   FMPE$BADFNME:;
     1209     2220    1      B$JIT.ERR=FMP$E$BADFNME;

   2220  1 001344   000000 236000 0                  LDQ     FMP$E$BADFNME
         1 001345   000000 470400 xsym               LDP0    B$JIT$
         1 001346   000012 756100                    STQ     10,,PR0

   2220  1 001347                       RETRET       null
     1210     2221    1   RETRET:;
     1211     2222    1      IF SDCB$ ~= ADDR(NIL) THEN

   2222  1 001347   200007 236100                    LDQ     SDCB$,,AUTO
         1 001350   000001 116000 xsym               CMPQ    B_VECTNIL+1
         1 001351   001415 600000 1                  TZE     s:2231

     1212     2223    2         IF S$DCB.CFU$~=ADDR(NIL) THEN DO;

   2223  1 001352   200007 470500                    LDP0    SDCB$,,AUTO
         1 001353   000066 236100                    LDQ     54,,PR0
         1 001354   000001 116000 xsym               CMPQ    B_VECTNIL+1
         1 001355   001415 600000 1                  TZE     s:2231

     1213     2224    2            B$JIT.DCB$=SDCB$;

   2224  1 001356   200007 236100                    LDQ     SDCB$,,AUTO
         1 001357   000000 471400 xsym               LDP1    B$JIT$
         1 001360   100232 756100                    STQ     154,,PR1

     1214     2225    2            CALL FMD$FLSHBUF(1);

   2225  1 001361   000001 630400 2                  EPPR0   1
         1 001362   000017 631400 xsym               EPPR1   B_VECTNIL+15
         1 001363   000000 701000 xent               TSX1    FMD$FLSHBUF
         1 001364   000000 011000                    NOP     0

     1215     2226    2            CALL FMP$RELCFUS(S$DCB.CFU$);

PL6.E3A0      #007=FMP$RENAME File=FMP$CLSF.:E05TSI                              TUE 07/29/97 16:59 Page:261
   2226  1 001365   200007 236100                    LDQ     SDCB$,,AUTO
         1 001366   000066 036003                    ADLQ    54,DU
         1 001367   200022 756100                    STQ     @I+1,,AUTO
         1 001370   200022 630500                    EPPR0   @I+1,,AUTO
         1 001371   000017 631400 xsym               EPPR1   B_VECTNIL+15
         1 001372   000000 701000 xent               TSX1    FMP$RELCFUS
         1 001373   000000 011000                    NOP     0

     1216     2227    2            B$JIT.DCB$=UDCB$;

   2227  1 001374   200006 236100                    LDQ     UDCB$,,AUTO
         1 001375   000000 470400 xsym               LDP0    B$JIT$
         1 001376   000232 756100                    STQ     154,,PR0

     1217     2228    2            CALL FMD$FLSHBUF(1);

   2228  1 001377   000001 630400 2                  EPPR0   1
         1 001400   000017 631400 xsym               EPPR1   B_VECTNIL+15
         1 001401   000000 701000 xent               TSX1    FMD$FLSHBUF
         1 001402   000000 011000                    NOP     0

     1218     2229    2            IF NOT U$DCB.STARF THEN CALL UQB$MDEQ(ACCT$);

   2229  1 001403   200006 470500                    LDP0    UDCB$,,AUTO
         1 001404   000064 236100                    LDQ     52,,PR0
         1 001405   200000 316003                    CANQ    65536,DU
         1 001406   001415 601000 1                  TNZ     s:2231

   2229  1 001407   200014 631500                    EPPR1   ACCT$,,AUTO
         1 001410   200022 451500                    STP1    @I+1,,AUTO
         1 001411   200022 630500                    EPPR0   @I+1,,AUTO
         1 001412   000017 631400 xsym               EPPR1   B_VECTNIL+15
         1 001413   000000 701000 xent               TSX1    UQB$MDEQ
         1 001414   000000 011000                    NOP     0

     1219     2230    2            END;

PL6.E3A0      #007=FMP$RENAME File=FMP$CLSF.:E05TSI                              TUE 07/29/97 16:59 Page:262
     1220     2231    1      IF U$CFU.FUN=%CREATE# AND B$JIT.ERR.CODE=%E$NOKEY

   2231  1 001415   200010 470500                    LDP0    UCFU$,,AUTO
         1 001416   000000 236100                    LDQ     0,,PR0
         1 001417   700000 376003                    ANQ     -32768,DU
         1 001420   300000 116003                    CMPQ    98304,DU
         1 001421   001430 601000 1                  TNZ     s:2233
         1 001422   000000 471400 xsym               LDP1    B$JIT$
         1 001423   100012 236100                    LDQ     10,,PR1
         1 001424   377770 376007                    ANQ     131064,DL
         1 001425   001020 116007                    CMPQ    528,DL
         1 001426   001430 601000 1                  TNZ     s:2233

     1221     2232    1      THEN B$JIT.ERR='0'B;

   2232  1 001427   100012 450100                    STZ     10,,PR1

     1222     2233    1      IF U$CFU.FUN~=%JRNL# THEN ALTRETURN;

   2233  1 001430   000000 236100                    LDQ     0,,PR0
         1 001431   700000 376003                    ANQ     -32768,DU
         1 001432   400000 116003                    CMPQ    -131072,DU
         1 001433   001435 600000 1                  TZE     s:2234

   2233  1 001434   000000 702200 xent               TSX2  ! X66_AALT

     1223     2234    1      CALL FMH$JRELPG(1);

   2234  1 001435   000001 630400 2                  EPPR0   1
         1 001436   000017 631400 xsym               EPPR1   B_VECTNIL+15
         1 001437   000000 701000 xent               TSX1    FMH$JRELPG
         1 001440   000000 011000                    NOP     0

     1224     2235    1      BUFNO=0;

   2235  1 001441   200005 450100                    STZ     BUFNO,,AUTO

PL6.E3A0      #007=FMP$RENAME File=FMP$CLSF.:E05TSI                              TUE 07/29/97 16:59 Page:263
     1225     2236    1      IC=B$JIT.ERR;

   2236  1 001442   000000 470400 xsym               LDP0    B$JIT$
         1 001443   000012 236100                    LDQ     10,,PR0
         1 001444   200004 756100                    STQ     I,,AUTO

     1226     2237    1      CALL FMN$GETFIT(BUF$,BUFNO) ALTRET(JRNLRET);

   2237  1 001445   200005 631500                    EPPR1   BUFNO,,AUTO
         1 001446   200023 451500                    STP1    @I+2,,AUTO
         1 001447   200013 633500                    EPPR3   BUF$,,AUTO
         1 001450   200022 453500                    STP3    @I+1,,AUTO
         1 001451   200022 630500                    EPPR0   @I+1,,AUTO
         1 001452   000020 631400 xsym               EPPR1   B_VECTNIL+16
         1 001453   000000 701000 xent               TSX1    FMN$GETFIT
         1 001454   001304 702000 1                  TSX2    JRNLRET

     1227     2238    1      CALL LOCCODP(3) ALTRET(JRNLRET);

   2238  1 001455   000004 236000 2                  LDQ     4
         1 001456   200021 756100                    STQ     DA+3,,AUTO
         1 001457   001511 701000 1                  TSX1    LOCCODP
         1 001460   001304 702000 1                  TSX2    JRNLRET

     1228     2239    1      CODE03.UGRANS=CODE03.UGRANS+CODE03.NGAVAL;

   2239  1 001461   200012 470500                    LDP0    LOC$,,AUTO
         1 001462   000003 236100                    LDQ     3,,PR0
         1 001463   000032 376000 xsym               ANQ     B_VECTNIL+26
         1 001464   200022 756100                    STQ     @I+1,,AUTO
         1 001465   000000 236100                    LDQ     0,,PR0
         1 001466   000032 376000 xsym               ANQ     B_VECTNIL+26
         1 001467   200022 036100                    ADLQ    @I+1,,AUTO
         1 001470   000000 552134                    STBQ    0,'34'O,PR0

     1229     2240    1      CODE03.NGAVAL=0;

PL6.E3A0      #007=FMP$RENAME File=FMP$CLSF.:E05TSI                              TUE 07/29/97 16:59 Page:264
   2240  1 001471   000000 236003                    LDQ     0,DU
         1 001472   000003 552134                    STBQ    3,'34'O,PR0

     1230     2241    1      CALL LOCCODP(4) ALTRET(MBSTAR);

   2241  1 001473   000003 236000 2                  LDQ     3
         1 001474   200021 756100                    STQ     DA+3,,AUTO
         1 001475   001511 701000 1                  TSX1    LOCCODP
         1 001476   001502 702000 1                  TSX2    MBSTAR

     1231     2242    1      CODE04.SVMODIFY=CODE04.MODIFY; /* MAKE IT LOOK OPEN */

   2242  1 001477   200012 470500                    LDP0    LOC$,,AUTO
         1 001500   000001 236100                    LDQ     1,,PR0
         1 001501   000010 756100                    STQ     8,,PR0

   2242  1 001502                       MBSTAR       null
     1232     2243    1   MBSTAR:;
     1233     2244    1      CALL FMD$WRTBUF(BUFNO);

   2244  1 001502   200005 630500                    EPPR0   BUFNO,,AUTO
         1 001503   200022 450500                    STP0    @I+1,,AUTO
         1 001504   200022 630500                    EPPR0   @I+1,,AUTO
         1 001505   000017 631400 xsym               EPPR1   B_VECTNIL+15
         1 001506   000000 701000 xent               TSX1    FMD$WRTBUF
         1 001507   000000 011000                    NOP     0

     1234     2245    1      GOTO JRNLRET;

   2245  1 001510   001304 710000 1                  TRA     JRNLRET

     1235     2246        %EJECT;
PL6.E3A0      #007=FMP$RENAME File=FMP$CLSF.:E05TSI                              TUE 07/29/97 16:59 Page:265
     1236     2247                    /*I* NAME: LOCCODP
     1237     2248                         DESCRIPTION: Calls FMO$LOCCODP for the single parameter without
     1238     2249                         making PL6 think LOC$ is a poor risk. */
     1239     2250    1   LOCCODP: PROC(I) ALTRET;

   2250  1 001511   200020 741300       LOCCODP      STX1  ! DA+2,,AUTO

     1240     2251    2   DCL I UBIN;
     1241     2252    2      TMP$=PINCRW(BUF$,SIZEW(FM$GRAN));

   2252  1 001512   200013 236100                    LDQ     BUF$,,AUTO
         1 001513   000005 036003                    ADLQ    5,DU
         1 001514   200015 756100                    STQ     TMP$,,AUTO

     1242     2253    3      CALL FMO$LOCCODP(TMP$,I) WHENALTRETURN DO; ALTRETURN; END;

   2253  1 001515   200021 236100                    LDQ     @I,,AUTO
         1 001516   200023 756100                    STQ     @I+2,,AUTO
         1 001517   200015 630500                    EPPR0   TMP$,,AUTO
         1 001520   200022 450500                    STP0    @I+1,,AUTO
         1 001521   200022 630500                    EPPR0   @I+1,,AUTO
         1 001522   000020 631400 xsym               EPPR1   B_VECTNIL+16
         1 001523   000000 701000 xent               TSX1    FMO$LOCCODP
         1 001524   001526 702000 1                  TSX2    s:2253+9
         1 001525   001530 710000 1                  TRA     s:2254

   2253  1 001526   200020 221300                    LDX1  ! DA+2,,AUTO
         1 001527   000000 702211                    TSX2  ! 0,X1

     1243     2254    2      LOC$=TMP$;

   2254  1 001530   200015 236100                    LDQ     TMP$,,AUTO
         1 001531   200012 756100                    STQ     LOC$,,AUTO

     1244     2255    2      RETURN;

   2255  1 001532   200020 221300                    LDX1  ! DA+2,,AUTO
PL6.E3A0      #007=FMP$RENAME File=FMP$CLSF.:E05TSI                              TUE 07/29/97 16:59 Page:266
         1 001533   000001 702211                    TSX2  ! 1,X1

FMP$E$BADFNME
 Sect OctLoc
   0     000   061520 001622                                                    1...

FMP$E$PSGRANS
 Sect OctLoc
   0     001   061520 002142                                                    1..b

FMP$E$USGRANS
 Sect OctLoc
   0     002   061520 002152                                                    1..j

FMP$E$ACGRANS
 Sect OctLoc
   0     003   061520 002162                                                    1..r

(unnamed)
 Sect OctLoc
   0     004   072123 105103   114117 107040                                    :SECLOG

(unnamed)
 Sect OctLoc
   2     000   000000 006003   000003 006000   777774 001777   000006 006000    ................
   2     004   000005 006000   000000 000000   000002 006000   000003 006000    ................
   2     010   776777 777777   777777 437777   757777 777777   577777 777777    ................
   2     014   677777 777777   743777 777777   000012 006000                    ............
     1245     2256    2   END LOCCODP;
     1246     2257    1   END FMP$RENAME;

PL6.E3A0      #007=FMP$RENAME File=FMP$CLSF.:E05TSI                              TUE 07/29/97 16:59 Page:267
--  Include file information  --

   F_FPTCODE_C.:E05TOU  is referenced.
   CP_6_SUBS.:E05TOU  is referenced.
   F$DCB.:E05TOU  is referenced.
   JG_GHOSTS_C.:E05TOU  is referenced.
   B$JIT_C.:E05TOU  is referenced.
   F$JIT_C.:E05TOU  cannot be made into a system file and is referenced.
   F_ERRORS_C.:E05TOU  is referenced.
   FM$MACROS.:E05TOU  is referenced.
      No diagnostics issued in procedure FMP$RENAME.
PL6.E3A0      #007=FMP$RENAME File=FMP$CLSF.:E05TSI                              TUE 07/29/97 16:59 Page:268

 **** Variables and constants ****

  ****  Section 000 RoData FMP$RENAME

  ****  Scalars and arrays  ****
OctLoc.c.b A Datatyp(siz) R M Lvl/name                 OctLoc.c.b A Datatyp(siz) R M Lvl/name

     3-0-0/b STRC        r     1 FMP$E$ACGRANS              0-0-0/b STRC        r     1 FMP$E$BADFNME
     1-0-0/b STRC        r     1 FMP$E$PSGRANS              2-0-0/b STRC        r     1 FMP$E$USGRANS

  ****  Auto variables  ****

  ****  Scalars and arrays  ****
OctLoc.c.b A Datatyp(siz) R M Lvl/name                 OctLoc.c.b A Datatyp(siz) R M Lvl/name

    21-0-0/w PTR         r     1 @I                         3-0-0/w PTR         r     1 @NAME$
    14-0-0/w PTR         r     1 ACCT$                     13-0-0/w PTR         r     1 BUF$
     5-0-0/w UBIN        r     1 BUFNO                     16-0-0/w UBIN        r     1 DA
     4-0-0/w SBIN        r     1 I                         *0-0-0/w UBIN        r     1 I
     4-0-0/w CHAR        r     1 IC(0:3)                    4-0-0/w UBIN        r     1 IU
    12-0-0/w PTR         r     1 LOC$                      *0-0-0/w PTR         r     1 NAME$
    11-0-0/w PTR         r     1 SCFU$                      7-0-0/w PTR         r     1 SDCB$
    15-0-0/w PTR         r     1 TMP$                      10-0-0/w PTR         r     1 UCFU$
     6-0-0/w PTR         r     1 UDCB$

  ****  SYMREF variables  ****

  ****  Scalars and arrays  ****
OctLoc.c.b A Datatyp(siz) R M Lvl/name                 OctLoc.c.b A Datatyp(siz) R M Lvl/name

     0-0-0/w PTR         r     1 B$JIT$                     0-0-0/w PTR         r     1 B$M$STAR$
     0-0-0/w PTR         r     1 F$CFU$                     0-0-0/w UBIN        r     1 FM_FRZERO
     0-0-0/w UBIN        r     1 FM_SYSACCTX                0-0-0/w UBIN        r     1 S_CUN

  ****  BASED and DCB variables  ****

  ****  Scalars and arrays  ****
PL6.E3A0      #007=FMP$RENAME File=FMP$CLSF.:E05TSI                              TUE 07/29/97 16:59 Page:269
OctLoc.c.b A Datatyp(siz) R M Lvl/name                 OctLoc.c.b A Datatyp(siz) R M Lvl/name

     0-0-0/d STRC(8856)  r     1 B$JIT                      0-0-0/w STRC(576)   r     1 CODE01
     0-0-0/w STRC(324)   r     1 CODE03                     0-0-0/w STRC(396)   r     1 CODE04
     0-0-0/w STRC(288)   r     1 FM$CFUA                    0-0-0/w STRC(288)   r     1 FM$CFUEXT
     0-0-0/w STRC        r     1 FM$FDSEG                   0-0-0/w STRC(1116)  r     1 FM$FIT
     0-0-0/w STRC(180)   r     1 FM$GRAN                    0-0-0/w ASTR(9)     r     1 FM$KEYENT
     0-0-0/c CHAR(4096)  r     1 GRAN                       0-0-0/c ASTR(9)     r     1 NAME
     0-0-0/w STRC(288)   r     1 S$CFU                      0-0-0/d ASTR(3528)  r     1 S$DCB
     0-0-0/w STRC(288)   r     1 U$CFU                      0-0-0/w STRC(288)   r     1 U$CFUJ
     0-0-0/d ASTR(3528)  r     1 U$DCB


   Procedure FMP$RENAME requires 860 words for executable code.
   Procedure FMP$RENAME requires 26 words of local(AUTO) storage.

    No errors detected in file FMP$CLSF.:E05TSI    .
PL6.E3A0      #007=FMP$RENAME File=FMP$CLSF.:E05TSI                              TUE 07/29/97 16:59 Page:270
          *** CROSS REFERENCE LISTING ***
**     DENOTES     IDENTIFIER DEFINITION
<<                 IDENTIFIER'S VALUE SET
>>                 IDENTIFIER'S VALUE USED
<>                 IDENTIFIER SET AND/OR USED
--                 IDENTIFIER REFERENCED
PL6.E3A0      #007=FMP$RENAME File=FMP$CLSF.:E05TSI                              TUE 07/29/97 16:59 Page:271
          MINI XREF LISTING

ACCT$
      1916**DCL      1320--IMP-PTR  2027<<ASSIGN   2032>>IF       2065>>ASSIGN   2067<>CALL     2071<>CALL
      2095<>CALL     2184<>CALL     2193>>IF       2203<>CALL     2229<>CALL
B$JIT.CURTMPDP
      1049**DCL      2034>>IF
B$JIT.DCB$
      1048**DCL      2014>>ASSIGN   2066<<ASSIGN   2093<<ASSIGN   2097<<ASSIGN   2112<<ASSIGN   2114<<ASSIGN
      2224<<ASSIGN   2227<<ASSIGN
B$JIT.ERR
       958**DCL      2033<<ASSIGN   2036<<ASSIGN   2041<<ASSIGN   2079<<ASSIGN   2205>>ASSIGN   2213<<ASSIGN
      2220<<ASSIGN   2232<<ASSIGN   2236>>ASSIGN
B$JIT.ERR.CODE
       959**DCL      2074>>IF       2231>>IF
B$JIT.ERR.MID
       959**DCL       959--REDEF    2077>>IF
B$JIT.MAXTMPDP
      1049**DCL      2034>>IF
B$JIT.PRDPRM
      1049**DCL      2034>>IF
B$JIT.STAR.DA
      1048**DCL      2070>>IF       2086<<ASSIGN   2200<<ASSIGN
B$JIT$
      1988**DCL       953--IMP-PTR  2014>>ASSIGN   2033>>ASSIGN   2034>>IF       2034>>IF       2034>>IF
      2036>>ASSIGN   2041>>ASSIGN   2066>>ASSIGN   2070>>IF       2074>>IF       2077>>IF       2079>>ASSIGN
      2086>>ASSIGN   2093>>ASSIGN   2097>>ASSIGN   2112>>ASSIGN   2114>>ASSIGN   2200>>ASSIGN   2205>>ASSIGN
      2213>>ASSIGN   2220>>ASSIGN   2224>>ASSIGN   2227>>ASSIGN   2231>>IF       2232>>ASSIGN   2236>>ASSIGN
B$M$STAR$
      1989**DCL      2013>>ASSIGN
BUF$
      1915**DCL      1873--IMP-PTR  1880--IMP-PTR  2071<>CALL     2078<>CALL     2080>>ASSIGN   2099<>CALL
      2100>>ASSIGN   2120>>ASSIGN   2121<>CALL     2122>>ASSIGN   2132<>CALL     2144>>ASSIGN   2145>>ASSIGN
      2145>>ASSIGN   2146>>ASSIGN   2146>>ASSIGN   2153>>ASSIGN   2154>>ASSIGN   2160>>ASSIGN   2184<>CALL
PL6.E3A0      #007=FMP$RENAME File=FMP$CLSF.:E05TSI                              TUE 07/29/97 16:59 Page:272
      2189>>ASSIGN   2237<>CALL     2252>>ASSIGN
BUFNO
      1909**DCL      2098<<ASSIGN   2099<>CALL     2115<>CALL     2119>>IF       2123<<ASSIGN   2130<>CALL
      2132<>CALL     2135>>ASSIGN   2136>>ASSIGN   2137>>ASSIGN   2138>>ASSIGN   2235<<ASSIGN   2237<>CALL
      2244<>CALL
CODE01.HASH
      1884**DCL      2162<<ASSIGN
CODE01.NXTNTS
      1884**DCL      2163<<ASSIGN
CODE01.XTNT
      1884**DCL      1885--REDEF
CODE03.DESC.BAD
      1889**DCL      2151<<ASSIGN
CODE03.NGAVAL
      1890**DCL      2149<<ASSIGN   2239>>ASSIGN   2240<<ASSIGN
CODE03.NRECS
      1890**DCL      2150<<ASSIGN
CODE03.NSTAMP
      1891**DCL      2113<>CALL     2147<>CALL
CODE03.UGRANS
      1888**DCL      2148<<ASSIGN   2239<<ASSIGN   2239>>ASSIGN
CODE04.ACCESS.TIME
      1899**DCL      2156<<ASSIGN
CODE04.CREATION.TIME
      1899**DCL      2157<<ASSIGN
CODE04.MODIFY
      1899**DCL      2242>>ASSIGN
CODE04.MODIFY.TIME
      1899**DCL      2109<<ASSIGN
CODE04.SVMODIFY
      1900**DCL      2242<<ASSIGN
CODE04.SVMODIFY.TIME
      1900**DCL      2158<<ASSIGN
DA
      1919**DCL      2124<<ASSIGN   2125<>CALL     2131<<ASSIGN   2132<>CALL
F$CFU$
PL6.E3A0      #007=FMP$RENAME File=FMP$CLSF.:E05TSI                              TUE 07/29/97 16:59 Page:273
      1990**DCL      2026>>ASSIGN   2027>>ASSIGN   2065>>ASSIGN
FAG$COUNT
      1921**DCL-ENT  2028--CALL
FAG$GEXT
      1922**DCL-ENT  2170--CALL
FM$CFUA.ACCESS.BUPF
      1322**DCL      2193>>IF
FM$CFUA.GRANS
      1323**DCL      2032>>IF
FM$CFUEXT.XTNT
      1326**DCL      1327--REDEF
FM$CFUEXT.XTNT.XTNSDA
      1327**DCL      2173>>ASSIGN
FM$FDSEG
      1876**DCL      2078--CALL     2190<<ASSIGN
FM$FDSEG.DESC
      1876**DCL      2083<<ASSIGN
FM$FDSEG.DESC.BAD
      1876**DCL      2186<<ASSIGN
FM$FDSEG.DESC.DELF
      1876**DCL      2191<<ASSIGN
FM$FDSEG.FITSDA
      1877**DCL      2081<<ASSIGN   2185<<ASSIGN   2196<<ASSIGN
FM$FIT.CODES.CODE
      1330**DCL      2105>>ASSIGN
FM$FIT.CODES.NDW
      1330**DCL      2104<<ASSIGN   2160<<ASSIGN
FM$GRAN
      1880**DCL      2100--ASSIGN   2160--ASSIGN   2252--ASSIGN
FM$GRAN.AVAIL
      1881**DCL      2146<<ASSIGN
FM$GRAN.FCEX
      1881**DCL      2145>>ASSIGN
FM$GRAN.LVL
      1880**DCL      2144<<ASSIGN
FM$GRAN.NAVX
PL6.E3A0      #007=FMP$RENAME File=FMP$CLSF.:E05TSI                              TUE 07/29/97 16:59 Page:274
      1880**DCL      2145<<ASSIGN   2146>>ASSIGN
FM$GRAN.STAMP.GMOD
      1880**DCL      2153<<ASSIGN
FM$GRAN.STAMP.HASH
      1880**DCL      2154<<ASSIGN
FM$KEYENT.D
      1873**DCL      2080<<ASSIGN   2189<<ASSIGN
FM$KEYENT.KLB
      1873**DCL      1873--IMP-SIZ
FMC$CLR1
      1928**DCL-ENT  2125--CALL
FMD$FLSHBUF
      1923**DCL-ENT  2092--CALL     2130--CALL     2177--CALL     2202--CALL     2225--CALL     2228--CALL
FMD$GETBUF
      1924**DCL-ENT  2121--CALL
FMD$REDBUFBC
      1927**DCL-ENT  2132--CALL
FMD$WRTBUF
      1925**DCL-ENT  2244--CALL
FMD$WRTSV
      1926**DCL-ENT  2084--CALL     2115--CALL
FMF$PEOF
      1929**DCL-ENT  2209--CALL
FMG$ADDKEY
      1966**DCL-ENT  2078--CALL
FMG$REMKEY
      1967**DCL-ENT  2192--CALL     2193--CALL
FMH$JGETPG
      1968**DCL-ENT  2211--CALL
FMH$JRELPG
      1970**DCL-ENT  2134--CALL     2234--CALL
FMM$NSTAMP
      1971**DCL-ENT  2113--CALL     2147--CALL
FMM$SCRUB
      1972**DCL-ENT  2046--CALL
FMN$CHKFLACN
PL6.E3A0      #007=FMP$RENAME File=FMP$CLSF.:E05TSI                              TUE 07/29/97 16:59 Page:275
      1973**DCL-ENT  2057--CALL
FMN$GETFIT
      1974**DCL-ENT  2099--CALL     2237--CALL
FMO$LOCCODP
      1975**DCL-ENT  2253--CALL
FMO$LOCCODX
      1976**DCL-ENT  2103--CALL
FMP$E$ACGRANS
      2009**DCL      2033>>ASSIGN
FMP$E$BADFNME
      1997**DCL      2220>>ASSIGN
FMP$E$PSGRANS
      2001**DCL      2041>>ASSIGN
FMP$E$USGRANS
      2005**DCL      2036>>ASSIGN
FMP$RELCFUS
      1977**DCL-ENT  2201--CALL     2226--CALL
FMPE$BADFNME
      2212**LABEL    2018--GOTO     2058--GOTO     2068--CALLALT  2072--GOTO     2076--GOTO
FMQ$BLDFD
      1978**DCL-ENT  2070--CALL
FMQ$CTG
      1979**DCL-ENT  2094--CALL
FMQ$SRCHFD
      1980**DCL-ENT  2071--CALL     2184--CALL
FMR$G8
      1981**DCL-ENT  2060--CALL     2164--CALL
FMS$SCANNAME
      1982**DCL-ENT  2068--CALL
FM_FRZERO
      1991**DCL      2143>>ASSIGN   2167>>ASSIGN
FM_SYSACCTX
      1992**DCL      2075>>IF
GRAN
      1918**DCL      2122<<ASSIGN   2122>>ASSIGN
I
PL6.E3A0      #007=FMP$RENAME File=FMP$CLSF.:E05TSI                              TUE 07/29/97 16:59 Page:276
      1906**DCL      1904--IMP-SIZ  1907--REDEF    1908--REDEF    2025<<ASSIGN   2026>>IF       2026<<ASSIGN
      2027>>ASSIGN   2028<>CALL     2030<<ASSIGN   2030>>ASSIGN   2039<<ASSIGN   2039>>ASSIGN   2040>>IF
      2047<<ASSIGN   2049>>ASSIGN   2050>>ASSIGN   2060<>CALL     2094<>CALL     2102<<DOINDEX  2103<>CALL
      2104>>ASSIGN   2105<<ASSIGN   2105>>ASSIGN   2107<>CALL     2109>>ASSIGN   2152>>ASSIGN   2154>>ASSIGN
      2156>>ASSIGN   2157>>ASSIGN   2158>>ASSIGN   2162>>ASSIGN   2164<>CALL     2166>>ASSIGN   2195<>CALL
I IN PROCEDURE LOCCODP
      2251**DCL      2250--PROC     2253<>CALL
IC
      1907**DCL      2048<<ASSIGN   2205<<ASSIGN   2213>>ASSIGN   2236<<ASSIGN
IU
      1908**DCL      2196>>ASSIGN
JRNLRET
      2205**LABEL    2237--CALLALT  2238--CALLALT  2245--GOTO
LOC$
      1914**DCL      1326--IMP-PTR  1330--IMP-PTR  1884--IMP-PTR  1888--IMP-PTR  1897--IMP-PTR  2100<<ASSIGN
      2101>>ASSIGN   2104>>ASSIGN   2105>>ASSIGN   2109>>ASSIGN   2113>>CALL     2120<<ASSIGN   2122>>ASSIGN
      2147>>CALL     2148>>ASSIGN   2149>>ASSIGN   2150>>ASSIGN   2151>>ASSIGN   2156>>ASSIGN   2157>>ASSIGN
      2158>>ASSIGN   2162>>ASSIGN   2163>>ASSIGN   2173>>ASSIGN   2239>>ASSIGN   2239>>ASSIGN   2239>>ASSIGN
      2240>>ASSIGN   2242>>ASSIGN   2242>>ASSIGN   2254<<ASSIGN
LOCCODP
      2250**PROC     2108--CALL     2111--CALL     2126--CALL     2155--CALL     2161--CALL     2238--CALL
      2241--CALL
MBSTAR
      2242**LABEL    2241--CALLALT
NAME.C
      1904**DCL      2050>>ASSIGN
NAME.L
      1903**DCL      2048>>ASSIGN
NAME$
        15**DCL         6--PROC     1902--IMP-PTR  2048>>ASSIGN   2050>>ASSIGN
NOEFT
      2106**LABEL    2103--CALLALT
NOKEY
      2070**LABEL    2071--CALLALT
NOSPACE
      2041**LABEL    2037--GOTO
PL6.E3A0      #007=FMP$RENAME File=FMP$CLSF.:E05TSI                              TUE 07/29/97 16:59 Page:277
NOTIME
      2109**LABEL    2108--CALLALT
NOTIME1
      2158**LABEL    2155--CALLALT
RETRET
      2220**LABEL    2044--GOTO     2051--GOTO     2057--CALLALT  2060--CALLALT  2067--CALLALT  2070--CALLALT
      2074--GOTO     2078--CALLALT  2099--CALLALT  2132--CALLALT  2164--CALLALT  2170--CALLALT  2184--CALLALT
S$CFU.ACCTX
      1304**DCL      1304--REDEF    2065<<ASSIGN   2075>>IF
S$CFU.FITSDA
      1304**DCL      2116<<ASSIGN
S$CFU.FUN
      1303**DCL      2062<<ASSIGN
S$CFU.SHARE
      1303**DCL      2064<<ASSIGN
S$CFU.XTX
      1305**DCL      2165<<ASSIGN
S$DCB.ACCT
      1213**DCL      2053<<ASSIGN
S$DCB.ACTPOS
      1228**DCL      1228--REDEF
S$DCB.ARS
      1203**DCL      1203--REDEF
S$DCB.ATTR
      1221**DCL      1222--REDEF
S$DCB.BFR
      1247**DCL      2180>>ASSIGN   2181<<ASSIGN
S$DCB.BFR1
      1248**DCL      2178>>ASSIGN   2179<<ASSIGN
S$DCB.BORROW
      1236**DCL      1236--REDEF    1236--REDEF    1236--REDEF
S$DCB.CFU$
      1237**DCL      2060<>CALL     2061>>ASSIGN   2201<>CALL     2223>>IF       2226<>CALL
S$DCB.DCBNAME.L
      1250**DCL      1250--IMP-SIZ
S$DCB.DESC
PL6.E3A0      #007=FMP$RENAME File=FMP$CLSF.:E05TSI                              TUE 07/29/97 16:59 Page:278
      1210**DCL      2052<<ASSIGN
S$DCB.EOMCHAR
      1207**DCL      1207--REDEF
S$DCB.FCD
      1216**DCL      2016>>IF
S$DCB.FLDID
      1231**DCL      1231--REDEF
S$DCB.FORM$
      1225**DCL      1225--REDEF
S$DCB.FSECT
      1241**DCL      1241--REDEF
S$DCB.FSN
      1218**DCL      1218--REDEF    1218--REDEF    1219--REDEF
S$DCB.FUN
      1217**DCL      2055<<ASSIGN   2063<<ASSIGN
S$DCB.HEADER$
      1224**DCL      1224--REDEF
S$DCB.IASN
      1244**DCL      2054<<ASSIGN
S$DCB.IXTNSIZE
      1222**DCL      1222--REDEF
S$DCB.LASTSTA$
      1212**DCL      1212--REDEF
S$DCB.LVL
      1237**DCL      1237--REDEF
S$DCB.NAME
      1212**DCL      2051>>IF       2071--CALL     2078--CALL
S$DCB.NAME.C
      1212**DCL      1212--REDEF    2050<<ASSIGN   2075>>IF
S$DCB.NAME.L
      1212**DCL      2049<<ASSIGN
S$DCB.NOEOF
      1233**DCL      1233--REDEF
S$DCB.NRECS
      1223**DCL      1223--REDEF
S$DCB.NRECX
PL6.E3A0      #007=FMP$RENAME File=FMP$CLSF.:E05TSI                              TUE 07/29/97 16:59 Page:279
      1242**DCL      1242--REDEF
S$DCB.OHDR
      1234**DCL      1234--REDEF
S$DCB.ORG
      1217**DCL      1217--REDEF
S$DCB.PRECNO
      1240**DCL      1240--REDEF
S$DCB.RCSZ
      1245**DCL      1245--REDEF
S$DCB.RES
      1213**DCL      1213--REDEF
S$DCB.SETX
      1225**DCL      1225--REDEF    2059<<ASSIGN
S$DCB.STARF
      1232**DCL      2058>>IF       2070>>IF
S$DCB.STARX
      1234**DCL      2069>>IF       2086>>ASSIGN
S$DCB.TAB$
      1224**DCL      1225--REDEF
S$DCB.TDA
      1239**DCL      1239--REDEF
S$DCB.WSN
      1214**DCL      1214--REDEF
S$DCB.WSR
      1220**DCL      2056<<ASSIGN
SCFU$
      1913**DCL      1303--IMP-PTR  2061<<ASSIGN   2062>>ASSIGN   2064>>ASSIGN   2065>>ASSIGN   2075>>IF
      2116>>ASSIGN   2165>>ASSIGN
SDCB$
      1911**DCL      1203--IMP-PTR  2013<<ASSIGN   2016>>IF       2017<<ASSIGN   2043<<ASSIGN   2049>>ASSIGN
      2050>>ASSIGN   2051>>IF       2052>>ASSIGN   2053>>ASSIGN   2054>>ASSIGN   2055>>ASSIGN   2056>>ASSIGN
      2058>>IF       2059>>ASSIGN   2060>>CALL     2061>>ASSIGN   2063>>ASSIGN   2066>>ASSIGN   2069>>IF
      2070>>IF       2071>>CALL     2075>>IF       2078>>CALL     2086>>ASSIGN   2112>>ASSIGN   2178>>ASSIGN
      2179>>ASSIGN   2180>>ASSIGN   2181>>ASSIGN   2201>>CALL     2222>>IF       2223>>IF       2224>>ASSIGN
      2226>>CALL
SSS$SYSTIME
PL6.E3A0      #007=FMP$RENAME File=FMP$CLSF.:E05TSI                              TUE 07/29/97 16:59 Page:280
      1983**DCL-ENT  2107--CALL     2195--CALL
S_CUN
      1993**DCL      2075>>IF
TMP$
      1917**DCL      1876--IMP-PTR  2071<>CALL     2078<>CALL     2081>>ASSIGN   2083>>ASSIGN   2101<<ASSIGN
      2103<>CALL     2164<>CALL     2184<>CALL     2185>>ASSIGN   2186>>ASSIGN   2190>>ASSIGN   2191>>ASSIGN
      2196>>ASSIGN   2252<<ASSIGN   2253<>CALL     2254>>ASSIGN
U$CFU.ACCTX
      1310**DCL      1310--REDEF    2025>>ASSIGN   2026>>ASSIGN
U$CFU.AFIT
      1309**DCL      2141<<ASSIGN
U$CFU.FITSDA
      1310**DCL      2081>>ASSIGN   2086>>ASSIGN   2116>>ASSIGN   2124>>ASSIGN   2131>>ASSIGN   2139<<ASSIGN
      2173<<ASSIGN   2176<<ASSIGN   2185>>ASSIGN   2188>>IF       2200>>ASSIGN
U$CFU.FUN
      1309**DCL      2029>>IF       2039>>IF       2091>>IF       2117>>IF       2204>>IF       2231>>IF
      2233>>IF
U$CFU.LDA
      1312**DCL      2143<<ASSIGN
U$CFU.NAMEX
      1310**DCL      2026>>ASSIGN
U$CFU.NGAVAL
      1312**DCL      2172<<ASSIGN   2172>>ASSIGN
U$CFU.NRECS
      1310**DCL      2142<<ASSIGN
U$CFU.UGRANS
      1311**DCL      2140<<ASSIGN   2171<<ASSIGN
U$CFU.XTX
      1311**DCL      2165>>ASSIGN   2166<<ASSIGN
U$CFUJ.ERR_WAIT
      1316**DCL      2174<<ASSIGN
U$DCB.ACCT
      1263**DCL      2053>>ASSIGN
U$DCB.ACTPOS
      1278**DCL      1278--REDEF
U$DCB.ARS
PL6.E3A0      #007=FMP$RENAME File=FMP$CLSF.:E05TSI                              TUE 07/29/97 16:59 Page:281
      1253**DCL      1253--REDEF
U$DCB.ATTR
      1271**DCL      1272--REDEF
U$DCB.BFR
      1297**DCL      2135<<ASSIGN   2135>>ASSIGN   2137<<ASSIGN   2180<<ASSIGN
U$DCB.BFR.BUFUP
      1297**DCL      2169<<ASSIGN   2187<<ASSIGN
U$DCB.BFR.DA
      1298**DCL      2167<<ASSIGN
U$DCB.BFR1
      1298**DCL      2136<<ASSIGN   2136>>ASSIGN   2138<<ASSIGN   2178<<ASSIGN
U$DCB.BORROW
      1286**DCL      1286--REDEF    1286--REDEF    1286--REDEF    2031>>IF
U$DCB.CFU$
      1287**DCL      2015>>ASSIGN   2212<>CALL
U$DCB.DCBNAME.L
      1300**DCL      1300--IMP-SIZ
U$DCB.DESC
      1260**DCL      2052>>ASSIGN   2083>>ASSIGN
U$DCB.DESC.BUF
      1260**DCL      2082<<ASSIGN
U$DCB.DESC.BUPM
      1261**DCL      2082>>ASSIGN
U$DCB.EOMCHAR
      1257**DCL      1257--REDEF
U$DCB.FLDID
      1281**DCL      1281--REDEF
U$DCB.FORM$
      1275**DCL      1275--REDEF
U$DCB.FSECT
      1291**DCL      1291--REDEF
U$DCB.FSN
      1268**DCL      1268--REDEF    1268--REDEF    1269--REDEF
U$DCB.GTYP
      1282**DCL      2208<<ASSIGN
U$DCB.HASH
PL6.E3A0      #007=FMP$RENAME File=FMP$CLSF.:E05TSI                              TUE 07/29/97 16:59 Page:282
      1290**DCL      2152<<ASSIGN
U$DCB.HEADER$
      1274**DCL      1274--REDEF
U$DCB.IXTNSIZE
      1272**DCL      1272--REDEF    2168<<ASSIGN
U$DCB.LASTSTA$
      1262**DCL      1262--REDEF
U$DCB.LVL
      1287**DCL      1287--REDEF
U$DCB.NAME
      1262**DCL      2051>>IF       2094--CALL     2184--CALL
U$DCB.NAME.C
      1262**DCL      1262--REDEF
U$DCB.NOEOF
      1283**DCL      1283--REDEF
U$DCB.NRECS
      1273**DCL      1273--REDEF
U$DCB.NRECX
      1292**DCL      1292--REDEF
U$DCB.OHDR
      1284**DCL      1284--REDEF
U$DCB.ORG
      1267**DCL      1267--REDEF
U$DCB.PRECNO
      1290**DCL      1290--REDEF
U$DCB.RCSZ
      1295**DCL      1295--REDEF
U$DCB.RES
      1263**DCL      1263--REDEF
U$DCB.SETX
      1275**DCL      1275--REDEF    2059>>ASSIGN
U$DCB.SHARED
      1282**DCL      2207<<ASSIGN   2210<<ASSIGN
U$DCB.STARF
      1282**DCL      2032>>IF       2034>>IF       2034>>IF       2058>>IF       2067>>IF       2095>>IF
      2192>>IF       2203>>IF       2229>>IF
PL6.E3A0      #007=FMP$RENAME File=FMP$CLSF.:E05TSI                              TUE 07/29/97 16:59 Page:283
U$DCB.STARX
      1284**DCL      2182>>IF       2200>>ASSIGN
U$DCB.TAB$
      1274**DCL      1275--REDEF
U$DCB.TDA
      1289**DCL      1289--REDEF
U$DCB.WSN
      1264**DCL      1264--REDEF
U$DCB.WSR
      1270**DCL      2056>>ASSIGN
U$DCB.XTNSIZE
      1270**DCL      2030>>ASSIGN   2168>>ASSIGN
UCFU$
      1912**DCL      1309--IMP-PTR  1315--IMP-PTR  2015<<ASSIGN   2025>>ASSIGN   2026>>ASSIGN   2029>>IF
      2039>>IF       2081>>ASSIGN   2086>>ASSIGN   2091>>IF       2116>>ASSIGN   2117>>IF       2124>>ASSIGN
      2131>>ASSIGN   2139>>ASSIGN   2140>>ASSIGN   2141>>ASSIGN   2142>>ASSIGN   2143>>ASSIGN   2165>>ASSIGN
      2166>>ASSIGN   2171>>ASSIGN   2172>>ASSIGN   2172>>ASSIGN   2173>>ASSIGN   2174>>ASSIGN   2176>>ASSIGN
      2185>>ASSIGN   2188>>IF       2200>>ASSIGN   2204>>IF       2231>>IF       2233>>IF
UDB$PMMEXIT
      1984**DCL-ENT  2214--CALL
UDCB$
      1910**DCL      1253--IMP-PTR  2014<<ASSIGN   2015>>ASSIGN   2030>>ASSIGN   2031>>IF       2032>>IF
      2034>>IF       2034>>IF       2051>>IF       2052>>ASSIGN   2053>>ASSIGN   2056>>ASSIGN   2058>>IF
      2059>>ASSIGN   2067>>IF       2082>>ASSIGN   2082>>ASSIGN   2083>>ASSIGN   2093>>ASSIGN   2094>>CALL
      2095>>IF       2097>>ASSIGN   2114>>ASSIGN   2135>>ASSIGN   2135>>ASSIGN   2136>>ASSIGN   2136>>ASSIGN
      2137>>ASSIGN   2138>>ASSIGN   2152>>ASSIGN   2167>>ASSIGN   2168>>ASSIGN   2168>>ASSIGN   2169>>ASSIGN
      2178>>ASSIGN   2180>>ASSIGN   2182>>IF       2184>>CALL     2187>>ASSIGN   2192>>IF       2200>>ASSIGN
      2203>>IF       2207>>ASSIGN   2208>>ASSIGN   2210>>ASSIGN   2212>>CALL     2227>>ASSIGN   2229>>IF
UQB$MDEQ
      1986**DCL-ENT  2203--CALL     2212--CALL     2229--CALL
UQB$MENQX
      1985**DCL-ENT  2067--CALL     2095--CALL
