PL6.E3A0      #006=FMQ$RELSTARF File=FMQ$DIR.:E05TSI                             TUE 07/29/97 17:02 Page:164
      789        1        /*T***********************************************************/
      790        2        /*T*                                                         */
      791        3        /*T* Copyright (c) Bull HN Information Systems Inc., 1997    */
      792        4        /*T*                                                         */
      793        5        /*T***********************************************************/
      794        6        /*F*  NAME:   FMQ$RELSTARF
      795        7        *     PURPOSE:  Release all star files for the current user. */
      796        8        /*D*     NAME:     FMQ$RELSTARF
      797        9                 ENTRY:    FMQ$RELSTARFP
      798       10                 PURPOSE:  To release star files, and handle sleazy
      799       11                           ALTKEY monitor calls
      800       12                 CALL:     CALL FMQ$RELSTARF
      801       13                 DESCRIPTION:
      802       14
      803       15                      This routine can be called for one of several
      804       16                 reasons.  It could be called while running a user down
      805       17                 to release star files, it could be called during RECOVER2
      806       18                 to release star files, and it could be called by ALTKEY
      807       19                 for some sleazy monitor calls.
      808       20
      809       21                      If we get called through the main entry point, then
      810       22                 we are getting called as a result of running down a user.
      811       23                 We want to release all of the user's star files.
      812       24        */
      813       25                 %EJECT;
PL6.E3A0      #006=FMQ$RELSTARF File=FMQ$DIR.:E05TSI                             TUE 07/29/97 17:02 Page:165
      814       26        FMQ$RELSTARF: PROC;
      815       27        /* */
      816       28               %INCLUDE B$ROSEG;
      817       91               %INCLUDE F$JIT_C;
      818      521               %MACRO F$DCB(BASED=BASED);
      819      522               %INCLUDE F$DCB;
      820      571               %MEND;
      821      572               %INCLUDE CP_6_SUBS;
      822     1112               %INCLUDE FM$MACROS;
      823     1487               %INCLUDE F_FMTCODE_C;
      824     1521               %INCLUDE FK_DATA_C;
      825     1598               %INCLUDE JG_GHOSTS_C;
      826     1688               %INCLUDE FM_FIELD_C;
      827     1729               %INCLUDE F_ERRORS_C;
      828     1969        /* */
      829     1970               %F$DCB (BASED="BASED(JDCB$)");
      830     2020               %FITALTKEYS;
      831     2026               %FMG$IRKEYS(FPTN=IRKEYS, STCLASS="BASED(ALTKEY$)");
      832     2033               %FK$ALTKEY_BFR(FPTN=FKA_ALTKEYS_BFR, STCLASS="BASED(B$PS1$)");
      833     2053               %CODE01(BASED="BASED(CODE$)");
      834     2057               %CODE02(BASED="BASED(CODE$)");
      835     2061               %CODE03(BASED="BASED(CODE$)");
      836     2068               %CODE19(BASED="BASED(CODE19$)");
      837     2071               %CODE20(BASED="BASED(CODE20$)");
      838     2076               %FM$CFU(BASED="BASED(CFU$)");
      839     2082               %FM$CFUA;
      840     2088               %FM$CFUN(BASED="BASED(NAME$)");
      841     2091               %FM$CFUX(BASED="BASED(F$CFU$)");
      842     2096               %FM$GRAN (BASED="BASED(BUF$)");
      843     2100               %FM$KEYENT (BASED="BASED(KEY$)");
      844     2103               %FM$FDSEG (BASED="BASED(SEG$)");
      845     2107        /* */
      846     2108    1          DCL FAF$GETGRAN ENTRY(1) ALTRET;
      847     2109    1          DCL FAG$REXT ENTRY(1) ALTRET;
      848     2110    1          DCL FAG$RFILE ENTRY(1) ALTRET;
      849     2111    1          DCL FMC$CLR1 ENTRY(1);
      850     2112    1          DCL FMD$REDBUF ENTRY(6) ALTRET;
PL6.E3A0      #006=FMQ$RELSTARF File=FMQ$DIR.:E05TSI                             TUE 07/29/97 17:02 Page:166
      851     2113    1          DCL FMD$RELBUF ENTRY(1);
      852     2114    1          DCL FMD$WRTBUF ENTRY(1);
      853     2115    1          DCL FMG$NXTKEYNM ENTRY(3) ALTRET;
      854     2116    1          DCL FMG$IRSETUP ENTRY(1) ALTRET;
      855     2117    1          DCL FMM$SCRUB ENTRY(1);
      856     2118    1          DCL FMN$GETFIT ENTRY(2) ALTRET;
      857     2119    1          DCL FMO$GETDOMAIN ENTRY(1);
      858     2120    1          DCL FMO$LOCCODP ENTRY(2) ALTRET;
      859     2121    1          DCL FMO$RELG ENTRY(1) ALTRET;
      860     2122    1          DCL FMP$CLSJ ENTRY;
      861     2123    1          DCL FMU$BLDALT ENTRY;
      862     2124    1          DCL FSA$FSP ENTRY(2) ALTRET;
      863     2125    1          DCL FSA$GSP ENTRY(2) ALTRET;
      864     2126    1          DCL HFF$DSIZ ENTRY(2);
      865     2127    1          DCL HFF$NILERASE ENTRY(1) ALTRET;
      866     2128    1          DCL UMD$QDRIB ENTRY ALTRET;
      867     2129        /* */
      868     2130    1          DCL B$JIT$ PTR SYMREF;
      869     2131    1          DCL B$PS0$ PTR SYMREF;
      870     2132    1          DCL B$PS1$ PTR SYMREF;
      871     2133    1          DCL B$ROSEG$ PTR SYMREF;
      872     2134    1          DCL F$CFU$ PTR SYMREF;
      873     2135    1          DCL FM_SYSSETX UBIN SYMREF;
      874     2136    1          DCL FM_STARCHARS(0:0) CHAR(1) UNAL SYMREF;
      875     2137    1          DCL S_CUN UBIN SYMREF;
      876     2138        /* */
      877     2139               %SUB FCG#='0615'O;
      878     2140               %SUB MID#='21'O;
      879     2141               %ERRCODE(NAME=FMQ$E$CLSREL,COD#=%E$CLSREL);
      880     2145        /* */
      881     2146    1          DCL JDCB$ PTR;
      882     2147    1          DCL UJIT$ PTR;
      883     2148    1          DCL DA SBIN;
      884     2149    1          DCL I SBIN;
      885     2150    1          DCL LCDA SBIN;
      886     2151    1          DCL FITDA SBIN;
      887     2152    1          DCL 1 EXTNT REDEF FITDA,
PL6.E3A0      #006=FMQ$RELSTARF File=FMQ$DIR.:E05TSI                             TUE 07/29/97 17:02 Page:167
      888     2153    1               2 SIZ UBIN(9) UNAL,
      889     2154    1               2 DA UBIN(27) UNAL;
      890     2155    1          DCL BUF$ PTR;
      891     2156    1          DCL SEG$ PTR;
      892     2157    1          DCL KEY$ PTR;
      893     2158    1          DCL NAME$ PTR;
      894     2159    1          DCL CFU$ PTR;
      895     2160    1          DCL ALLFILES BIT(1);
      896     2161    1          DCL BFR BIT(36);
      897     2162    1          DCL BFR1 BIT(36);
      898     2163    1          DCL FIT$ PTR;
      899     2164    1          DCL FPARAM$ PTR;
      900     2165    1          DCL IORG UBIN;
      901     2166    1          DCL BUFNO SBIN;
      902     2167    1          DCL CODE$ PTR;
      903     2168    1          DCL N SBIN;
      904     2169    1          DCL CODE19$ PTR;
      905     2170    1          DCL CODE20$ PTR;
      906     2171    1          DCL ALTKEY$ PTR;
      907     2172    1          DCL NEWCODE$ PTR;
      908     2173    1          DCL ACCTX UBIN;
      909     2174    1          DCL ACCT$ PTR;
      910     2175        /* */
      911     2176    1          DCL FPARAM(0:1023) UBIN BASED(FPARAM$);
      912     2177    1          DCL MOVEN CHAR(N) BASED CALIGNED;
      913     2178        /* */
      914     2179    1          UJIT$=B$JIT$;
      915     2180    1          ALLFILES=%YES#;
      916     2181    1          CALL RELSTARF;
      917     2182    1          RETURN;
      918     2183               %EJECT;
PL6.E3A0      #006=FMQ$RELSTARF File=FMQ$DIR.:E05TSI                             TUE 07/29/97 17:02 Page:168
      919     2184        /*F*     NAME:     FMQ$RELSTARFP
      920     2185                 PURPOSE:  To handle the M$RELSTARF monitor call
      921     2186                 CALL:     CALL FMQ$RELSTARFP
      922     2187                 DESCRIPTION:
      923     2188                      Get the size of the second vector.  If it is
      924     2189                 zero, then we want to release star files, otherwise,
      925     2190                 this is probably a sleazy ALTKEY monitor call.
      926     2191
      927     2192                      If there is a vector 0, then it is GHOST1 releasing
      928     2193                 star files during RECOVER2.  Otherwise, it is LOGOFF
      929     2194                 releasing all but *A, and *S.
      930     2195        */
      931     2196                 %EJECT;
PL6.E3A0      #006=FMQ$RELSTARF File=FMQ$DIR.:E05TSI                             TUE 07/29/97 17:02 Page:169
      932     2197    1   FMQ$RELSTARFP: ENTRY;
      933     2198    1          CALL HFF$DSIZ(1,I);
      934     2199    1          IF I = 0 THEN
      935     2200    2             DO;   /* RELEASE FILES */
      936     2201    2             CALL HFF$NILERASE(0) ALTRET(PARTREL);
      937     2202    2             ALLFILES=%YES#;
      938     2203    2             UJIT$=B$PS0$;
      939     2204    2             IF S_CUN~=JG_SLUG# THEN
      940     2205    2                RETURN;
      941     2206
      942     2207    3             DO WHILE ('0'B);
      943     2208    3   PARTREL:     ALLFILES=%NO#;
      944     2209    3                CALL FMO$GETDOMAIN(I);
      945     2210    3                IF I~=4 THEN
      946     2211    3                   RETURN;
      947     2212    3                UJIT$=B$JIT$;
      948     2213    3             END;
      949     2214    2             CALL RELSTARF;
      950     2215    2             END;  /* RELEASE FILES */
      951     2216    1          ELSE
      952     2217    1             CALL ALTKEYS;
      953     2218
      954     2219    1          RETURN;
      955     2220               %EJECT;
PL6.E3A0      #006=FMQ$RELSTARF File=FMQ$DIR.:E05TSI                             TUE 07/29/97 17:02 Page:170
      956     2221        /*I*     NAME:     RELSTARF
      957     2222                 PURPOSE:  To release star files
      958     2223                 DESCRIPTION:
      959     2224
      960     2225                      If we are dribbling, then we need to clean it up.
      961     2226
      962     2227                      Make sure M$STAR is closed, we will use it to
      963     2228                 release star files.
      964     2229
      965     2230                      First, release all of the JIT cataloged files.
      966     2231                 If there is a DA for the file, and we want to release
      967     2232                 it, then put the name of the star file in the DCB, and
      968     2233                 release the file.
      969     2234
      970     2235                      Next, get the DA of the file directory for star
      971     2236                 files, to release the rest of the user's star files.
      972     2237                 Point to the first record, then use FMG$NXTKEYNM to
      973     2238                 position to the name of the next star file.  We
      974     2239                 want to save the buffer that holds the file directory.
      975     2240
      976     2241                     Finally, release the file directory, and then
      977     2242                 return.
      978     2243        */
      979     2244               %EJECT;
PL6.E3A0      #006=FMQ$RELSTARF File=FMQ$DIR.:E05TSI                             TUE 07/29/97 17:02 Page:171
      980     2245    1   RELSTARF: PROC;
      981     2246        /* */
      982     2247    2          IF DCBADDR(%M$DRIBBLE#) ~= ADDR(NIL) THEN
      983     2248    2             IF DCBADDR(%M$DRIBBLE#)->F$DCB.STARF THEN
      984     2249    2             CALL UMD$QDRIB;
      985     2250    2          B$JIT.DCB$=DCBADDR(%M$STAR#);
      986     2251    2          JDCB$=B$JIT.DCB$;
      987     2252    2          IF F$DCB.FCD THEN
      988     2253    2             CALL FMP$CLSJ;
      989     2254    2          F$DCB.BFR='0'B;
      990     2255    2          F$DCB.BFR1='0'B;
      991     2256    2          F$DCB.SETX=FM_SYSSETX;
      992     2257
      993     2258    3          DO I=1 TO SIZEW(B$JIT.STAR)-1;
      994     2259    3             IF UJIT$->B$JIT.STAR.DA(I) ~= 0 AND
      995     2260    3                (ALLFILES = %YES# OR I < 3 OR I > 4) THEN
      996     2261    4                DO;   /* PUT NAME IN DCB */
      997     2262    4                F$DCB.NAME.L=2;
      998     2263    4                F$DCB.NAME.C='*';
      999     2264    4                CALL INSERT(F$DCB.NAME.C,1,1,FM_STARCHARS(I));
     1000     2265    4                FITDA=UJIT$->B$JIT.STAR.DA(I);
     1001     2266    4                UJIT$->B$JIT.STAR.DA(I)=0;
     1002     2267    4                CALL FAG$RFILE(FITDA) ALTRET(ERR);
     1003     2268    4                CALL FMD$RELBUF(1);
     1004     2269    4                END;  /* PUT NAME IN DCB */
     1005     2270    3          END;
     1006     2271
     1007     2272    2          DA=UJIT$->B$JIT.STAR.DA(0);
     1008     2273    2          UJIT$->B$JIT.STAR.DA(0)=0;
     1009     2274    2          F$DCB.HASH=UJIT$->B$JIT.SYSID;
     1010     2275    2          LCDA=0;
     1011     2276
     1012     2277    3          DO WHILE (DA ~= 0);
     1013     2278    3             F$DCB.GTYP=FMGTFDSTAR;
     1014     2279    3             CALL FMC$CLR1(DA);
     1015     2280    3             F$DCB.HASH=UJIT$->B$JIT.SYSID;
     1016     2281    3             F$DCB.STARF='1'B;
PL6.E3A0      #006=FMQ$RELSTARF File=FMQ$DIR.:E05TSI                             TUE 07/29/97 17:02 Page:172
     1017     2282    3             F$DCB.CRECX=0;
     1018     2283    3             F$DCB.RPOS='0'B;
     1019     2284    3             CALL FMD$REDBUF(BUF$,1,DA,,LCDA) ALTRET(ERR);
     1020     2285
     1021     2286    4             DO WHILE ('1'B);
     1022     2287    4                B$JIT.ERR='0'B;
     1023     2288    4                CALL FMG$NXTKEYNM(SEG$,I,KEY$) ALTRET(NXTERR);
     1024     2289    4                IF NOT FM$KEYENT.D AND FM$FDSEG.FITSDA~=0 THEN
     1025     2290    5                   DO;
     1026     2291    5                   F$DCB.NAME.L=FM$KEYENT.KLB;
     1027     2292    5                   F$DCB.NAME.C=FM$KEYENT.TXT;
     1028     2293    5                   FITDA=FM$FDSEG.FITSDA;
     1029     2294    5                   BFR=F$DCB.BFR(1);
     1030     2295    5                   BFR1=F$DCB.BFR1(1);
     1031     2296    5                   F$DCB.BFR(1)='0'B;
     1032     2297    5                   F$DCB.BFR1(1)='0'B;
     1033     2298    5                   CALL FAG$RFILE(FITDA) ALTRET(ERR);
     1034     2299    5                   CALL FMD$RELBUF(1);
     1035     2300    5                   F$DCB.BFR(1)=BFR;
     1036     2301    5                   F$DCB.BFR1(1)=BFR1;
     1037     2302    5                   BFR='0'B;
     1038     2303    5                   BFR1='0'B;
     1039     2304    5                   F$DCB.GTYP=FMGTFD;
     1040     2305    5                   END;
     1041     2306    4             END;  /* FOREVER */
     1042     2307
     1043     2308    3   NXTERR:   IF B$JIT.ERR THEN
     1044     2309    3                GOTO ERR;
     1045     2310    3             EXTNT.DA=DA;
     1046     2311    3             EXTNT.SIZ=1;
     1047     2312    3             LCDA=DA;
     1048     2313    3             DA=FM$GRAN.FLINK;
     1049     2314    3             CALL FMD$RELBUF(1);
     1050     2315    3             CALL FAG$REXT(EXTNT) ALTRET(ERR);
     1051     2316    3          END;  /* WHILE */
     1052     2317
     1053     2318    2          RETURN;
PL6.E3A0      #006=FMQ$RELSTARF File=FMQ$DIR.:E05TSI                             TUE 07/29/97 17:02 Page:173
     1054     2319
     1055     2320    2   ERR:   CALL FMD$RELBUF(0);
     1056     2321    2          CALL FMD$RELBUF(1);
     1057     2322    2          B$JIT.ERR='0'B;
     1058     2323    2          RETURN;
     1059     2324    2          END RELSTARF;
     1060     2325               %EJECT;
PL6.E3A0      #006=FMQ$RELSTARF File=FMQ$DIR.:E05TSI                             TUE 07/29/97 17:02 Page:174
     1061     2326        /*I*     NAME:     ALTKEYS
     1062     2327                 PURPOSE:  To handle sleazy monitor calls for ALTKEY
     1063     2328                 DESCRIPTION:
     1064     2329
     1065     2330                      Make sure that this is ALTKEY.:SYS calling us,
     1066     2331                 if it isn't, hang up.
     1067     2332
     1068     2333                      Find out want it wants to do.
     1069     2334        */
     1070     2335                 %EJECT;
PL6.E3A0      #006=FMQ$RELSTARF File=FMQ$DIR.:E05TSI                             TUE 07/29/97 17:02 Page:175
     1071     2336    1   ALTKEYS: PROC;
     1072     2337        /* */
     1073     2338    2          IF DCBADDR(%M$LM#)->F$DCB.NAME.C ~= 'ALTKEY' OR
     1074     2339    2             DCBADDR(%M$LM#)->F$DCB.ACCT ~= ':SYS' THEN
     1075     2340    2             RETURN;
     1076     2341
     1077     2342    2          B$JIT.DCB$=B$ROSEG$->B$ROSEG.DCBPTR$->B$RODCB$(FKA_ALTKEYS_BFR.DCB#);
     1078     2343    2          JDCB$=B$JIT.DCB$;
     1079     2344
     1080     2345    3          DO CASE(FKA_ALTKEYS_BFR.CODE);
     1081     2346    3             CASE(%ALTKEY_OPEN#);
     1082     2347    3                CALL OPEN;
     1083     2348
     1084     2349    3             CASE(%ALTKEY_CLOSE#);
     1085     2350    3                CALL CLOSE;
     1086     2351
     1087     2352    3             CASE(%ALTKEY_EXTEND#);
     1088     2353    3                CALL EXTEND;
     1089     2354
     1090     2355    3          END;  /* CASE */
     1091     2356
     1092     2357    2          RETURN;
     1093     2358    2          END ALTKEYS;
     1094     2359               %EJECT;
PL6.E3A0      #006=FMQ$RELSTARF File=FMQ$DIR.:E05TSI                             TUE 07/29/97 17:02 Page:176
     1095     2360        /*I*     NAME:     OPEN
     1096     2361                 PURPOSE:  To handle sleazy opens for ALTKEY
     1097     2362                 DESCRIPTION:
     1098     2363
     1099     2364                      Initialize the DCB from the information from
     1100     2365                 the CFU pointer given to us.
     1101     2366
     1102     2367                      Next, get the FIT, and initialize some more
     1103     2368                 information in the DCB.
     1104     2369        */
     1105     2370                 %EJECT;
PL6.E3A0      #006=FMQ$RELSTARF File=FMQ$DIR.:E05TSI                             TUE 07/29/97 17:02 Page:177
     1106     2371    1   OPEN:  PROC;
     1107     2372        /* */
     1108     2373    2          CALL FMM$SCRUB(JDCB$);
     1109     2374
     1110     2375    2          F$DCB.CFU$=FKA_ALTKEYS_BFR.CFU$;
     1111     2376    2          F$DCB.ASN=%FILE#;
     1112     2377    2          F$DCB.IASN=%FILE#;
     1113     2378    2          F$DCB.IORG=%KEYED#;
     1114     2379    2          F$DCB.IFMT=FMTRAN#;
     1115     2380    2          F$DCB.MEDIA=FMTRAN#;
     1116     2381    2          F$DCB.ACS=%BLOCK#;
     1117     2382    2          F$DCB.SETX=FKA_ALTKEYS_BFR.SETX;
     1118     2383    2          F$DCB.FFLG=%FFLG_OWNER#;
     1119     2384    2          F$DCB.FUN=%IN#;
     1120     2385    2          F$DCB.FCD='1'B;
     1121     2386    2          CFU$=FKA_ALTKEYS_BFR.CFU$;
     1122     2387    2          F$DCB.CFU$=CFU$;
     1123     2388    2          B$JIT.CHECK_CFU = '0'B;
     1124     2389
     1125     2390    3          DO WHILE(FM$CFU.NAMEX < FM$CFUX.NAMES);
     1126     2391    3             CFU$=PINCRW(F$CFU$, FM$CFU.NAMEX);
     1127     2392    3          END;
     1128     2393
     1129     2394    2          NAME$=PINCRC(F$CFU$, FM$CFU.NAMEX);
     1130     2395    2          F$DCB.NAME.C=FM$CFUN.C;
     1131     2396    2          F$DCB.NAME.L=FM$CFUN.L;
     1132     2397    2          F$DCB.STARF=BINBIT(FM$CFU.STARX.F, 1);
     1133     2398
     1134     2399    2          IF F$DCB.STARF THEN
     1135     2400    3             DO;   /* STAR FILE */
     1136     2401    3             F$DCB.ACCT='*';
     1137     2402    3             END;  /* STAR FILE */
     1138     2403    2          ELSE
     1139     2404    3             DO;   /* REAL FILE */
     1140     2405    3             CFU$=F$DCB.CFU$;
     1141     2406    3             ACCTX=FM$CFU.ACCTX;
     1142     2407    3             IF ACCTX = 0 THEN
PL6.E3A0      #006=FMQ$RELSTARF File=FMQ$DIR.:E05TSI                             TUE 07/29/97 17:02 Page:178
     1143     2408    3                ACCTX=PINCRW(F$CFU$, FM$CFU.NAMEX)->FM$CFU.ACCTX;
     1144     2409    3             ACCT$=PINCRW(F$CFU$, ACCTX);
     1145     2410    3             F$DCB.ACCT=ACCT$->FM$CFUA.ACCT;
     1146     2411    3             END;  /* REAL FILE */
     1147     2412
     1148     2413    2          BUFNO=1;
     1149     2414    2          CALL FMN$GETFIT(BUF$, BUFNO) ALTRET(ERR);
     1150     2415
     1151     2416    2          FKA_ALTKEYS_BFR.FPARAM=BUF$->FPARAM;
     1152     2417    2          FIT$=PINCRW(BUF$, SIZEW(FM$GRAN));
     1153     2418
     1154     2419    2          CODE$=FIT$;
     1155     2420    2          CALL FMO$LOCCODP(CODE$, 1);
     1156     2421    2          F$DCB.HASH=CODE01.HASH;
     1157     2422
     1158     2423    2          CODE$=FIT$;
     1159     2424    2          CALL FMO$LOCCODP(CODE$, 2);
     1160     2425    2          F$DCB.SPARE=CODE02.SPARE;
     1161     2426
     1162     2427    2          CODE$=FIT$;
     1163     2428    2          CALL FMO$LOCCODP(CODE$, 3);
     1164     2429    2          F$DCB.ORG=CODE03.ORG;
     1165     2430    2          F$DCB.XTNSIZE=CODE03.XTNSIZE;
     1166     2431    2          F$DCB.DESC=CODE03.DESC;
     1167     2432
     1168     2433    2   ERR:   RETURN;
     1169     2434    2          END OPEN;
     1170     2435               %EJECT;
PL6.E3A0      #006=FMQ$RELSTARF File=FMQ$DIR.:E05TSI                             TUE 07/29/97 17:02 Page:179
     1171     2436        /*I*     NAME:     CLOSE
     1172     2437                 PURPOSE:  To handle sleazy closes for ALTKEY
     1173     2438                 DESCRIPTION:
     1174     2439
     1175     2440                      We need to rebuild the upper levels for the alternate
     1176     2441                 indexes and update the FIT.  ALTKEY has some new information
     1177     2442                 for the DCB and ROSEG, so put that in place first.
     1178     2443
     1179     2444                      Next, rebuild the upper levels for just the alternate
     1180     2445                 keys.  Since we may have added extents to the file during
     1181     2446                 the build, there may be something in NGAVAL even though
     1182     2447                 FMO$MODFIT may have already thrown away extras before linking
     1183     2448                 to ALTKEY.  So, see if he wants to release NGAVAL. If so and
     1184     2449                 he's allowed to, do it.  Otherwise, give him an error.  Then
     1185     2450                 get the FIT and call the right routine to update it with the
     1186     2451                 new information.  Finally, write out the updated FIT.
     1187     2452        */
     1188     2453                 %EJECT;
PL6.E3A0      #006=FMQ$RELSTARF File=FMQ$DIR.:E05TSI                             TUE 07/29/97 17:02 Page:180
     1189     2454    1   CLOSE: PROC;
     1190     2455        /* */
     1191     2456    2          FPARAM$=PINCRW(ADDR(FKA_ALTKEYS_BFR.FPARAM), SIZEW(FM$GRAN));
     1192     2457    2          IF F$DCB.ORG = %INDEXED# THEN
     1193     2458    2             CALL INDEXED_SETUP ALTRET(ERR);
     1194     2459    2          ELSE
     1195     2460    2             CALL IREL_SETUP ALTRET(ERR);
     1196     2461
     1197     2462    2          IORG=F$DCB.IORG;
     1198     2463    2          F$DCB.IORG=%KEYED#;
     1199     2464    2          F$DCB.CFU$->FM$CFU.ULBLD=1;
     1200     2465    2          CALL FMU$BLDALT;
     1201     2466    2          F$DCB.CFU$->FM$CFU.FUN=MOD(F$DCB.CFU$->FM$CFU.FUN,4);
     1202     2467
     1203     2468    2          IF FKA_ALTKEYS_BFR.RELG AND F$DCB.CFU$->FM$CFU.NGAVAL~=0 THEN
     1204     2469    2             IF FKA_ALTKEYS_BFR.DELF THEN
     1205     2470    3                DO;  /* Release NGAVAL */
     1206     2471    3                BUFNO=1;
     1207     2472    4                CALL FMO$RELG(BUFNO) WHENALTRETURN DO;
     1208     2473    4                   F$DCB.IORG=IORG;
     1209     2474    4                   GOTO ERR; /* Bad fit */
     1210     2475    4                   END;
     1211     2476    3                END; /* Release NGAVAL */
     1212     2477    2             ELSE B$JIT.ERR=FMQ$E$CLSREL;
     1213     2478
     1214     2479               /*E* ERROR:    FMQ-E$CLSREL-E
     1215     2480                    MESSAGE:  You may not release NGAVAL% for %FN% since you
     1216     2481                              do not have DELF access
     1217     2482               */
     1218     2483
     1219     2484    2          F$DCB.IORG=IORG;
     1220     2485    2          BUFNO=1;
     1221     2486    2          CALL FMN$GETFIT(BUF$, BUFNO) ALTRET(ERR);
     1222     2487    2          FIT$=PINCRW(BUF$, SIZEW(FM$GRAN));
     1223     2488
     1224     2489    2          IF F$DCB.ORG = %INDEXED# THEN
     1225     2490    2             CALL INDEXED_CLEANUP;
PL6.E3A0      #006=FMQ$RELSTARF File=FMQ$DIR.:E05TSI                             TUE 07/29/97 17:02 Page:181
     1226     2491    2          ELSE
     1227     2492    2             CALL IREL_CLEANUP;
     1228     2493
     1229     2494    2          CALL FMD$WRTBUF(BUFNO);
     1230     2495    2   ERR:   RETURN;
     1231     2496    2          END CLOSE;
     1232     2497               %EJECT;
PL6.E3A0      #006=FMQ$RELSTARF File=FMQ$DIR.:E05TSI                             TUE 07/29/97 17:02 Page:182
     1233     2498        /*I*     NAME:     EXTEND
     1234     2499                 PURPOSE:  To get another granule for an altkey file
     1235     2500                 DESCRIPTION:
     1236     2501
     1237     2502                      Set the IORG to KEYED, so the CFU will get updated
     1238     2503                 correctly, then get a granule.  Tell ALTKEY what the
     1239     2504                 DA was.
     1240     2505        */
     1241     2506    1   EXTEND: PROC;
     1242     2507        /* */
     1243     2508    2          IORG=F$DCB.IORG;
     1244     2509    2          F$DCB.IORG=%KEYED#;
     1245     2510    2          CALL FAF$GETGRAN(DA) ALTRET(NONE);
     1246     2511    2          F$DCB.IORG=IORG;
     1247     2512    2          FKA_ALTKEYS_BFR.DA=DA;
     1248     2513    2          RETURN;
     1249     2514    2   NONE:  FKA_ALTKEYS_BFR.DA=0;
     1250     2515    2          RETURN;
     1251     2516    2          END EXTEND;
     1252     2517               %EJECT;
PL6.E3A0      #006=FMQ$RELSTARF File=FMQ$DIR.:E05TSI                             TUE 07/29/97 17:02 Page:183
     1253     2518        /*I*     NAME:     INDEXED_SETUP
     1254     2519                 PURPOSE:  To handle some set-up for indexed files
     1255     2520                 DESCRIPTION:
     1256     2521
     1257     2522                      Find the CODE08 from the FPARAM buffer passed
     1258     2523                 by ALTKEY.  Get some space in the ROSEG, and stuff
     1259     2524                 the information there.
     1260     2525        */
     1261     2526                 %EJECT;
PL6.E3A0      #006=FMQ$RELSTARF File=FMQ$DIR.:E05TSI                             TUE 07/29/97 17:02 Page:184
     1262     2527    1   INDEXED_SETUP: PROC ALTRET;
     1263     2528        /* */
     1264     2529    2          CODE$=FPARAM$;
     1265     2530    2          CALL FMO$LOCCODP(CODE$, 8);
     1266     2531    2          N=CODE$->FITALTKEYS.NUMWRDS;
     1267     2532    2          CALL FSA$GSP(N, ALTKEY$) ALTRET(ERR);
     1268     2533    2          F$DCB.ALTKEYX=POFFW(ALTKEY$, B$ROSEG$);
     1269     2534    2          N=N*4;
     1270     2535    2          ALTKEY$->MOVEN=CODE$->MOVEN;
     1271     2536    2          F$DCB.CFU$->FM$CFU.ALTBLD=ALTKEY$->FITALTKEYS.ALTBLD;
     1272     2537
     1273     2538    2          RETURN;
     1274     2539    2   ERR:   ALTRETURN;
     1275     2540    2          END INDEXED_SETUP;
     1276     2541               %EJECT;
PL6.E3A0      #006=FMQ$RELSTARF File=FMQ$DIR.:E05TSI                             TUE 07/29/97 17:02 Page:185
     1277     2542        /*I*     NAME:     IREL_SETUP
     1278     2543                 PURPOSE:  To handle the set-up for IREL files
     1279     2544                 DESCRIPTION:
     1280     2545
     1281     2546                      Find the information from the buffer passed
     1282     2547                 by ALTKEY.  Selectively move the information from
     1283     2548                 the buffer to the ROSEG.
     1284     2549        */
     1285     2550                 %EJECT;
PL6.E3A0      #006=FMQ$RELSTARF File=FMQ$DIR.:E05TSI                             TUE 07/29/97 17:02 Page:186
     1286     2551    1   IREL_SETUP: PROC ALTRET;
     1287     2552        /* */
     1288     2553    2          CODE19$=FPARAM$;
     1289     2554    2          CALL FMO$LOCCODP(CODE19$, 19);
     1290     2555    2          CALL FMG$IRSETUP(CODE19) ALTRET(ERR);
     1291     2556
     1292     2557    2          CODE20$=FPARAM$;
     1293     2558    2          CALL FMO$LOCCODP(CODE20$, 20);
     1294     2559    2          F$DCB.CFU$->FM$CFU.ALTBLD=CODE20.ALTBLD;
     1295     2560
     1296     2561    2          ALTKEY$=PINCRW(B$ROSEG$, F$DCB.ALTKEYX);
     1297     2562
     1298     2563    3          DO I=0 TO CODE20.NKEYS-1;
     1299     2564    3             IRKEYS.K.TDALVL(I)=CODE20.K.TDALVL(I);
     1300     2565    3             IRKEYS.K.TDA(I)=CODE20.K.TDA(I);
     1301     2566    3             IRKEYS.K.FDA(I)=CODE20.K.FDA(I);
     1302     2567    3             IRKEYS.K.LDA(I)=CODE20.K.LDA(I);
     1303     2568    3          END;  /* DO I */
     1304     2569
     1305     2570    2          RETURN;
     1306     2571    2   ERR:   ALTRETURN;
     1307     2572    2          END IREL_SETUP;
     1308     2573               %EJECT;
PL6.E3A0      #006=FMQ$RELSTARF File=FMQ$DIR.:E05TSI                             TUE 07/29/97 17:02 Page:187
     1309     2574        /*I*     NAME:     INDEXED_CLEANUP
     1310     2575                 PURPOSE:  To handle clean-up for Indexed files
     1311     2576                 DESCRIPTION:
     1312     2577
     1313     2578                      Move the information from the ROSEG to the
     1314     2579                 fit buffer, then release the ROSEG space we
     1315     2580                 obtained.
     1316     2581        */
     1317     2582    1   INDEXED_CLEANUP: PROC;
     1318     2583        /* */
     1319     2584    2          CODE$=FIT$;
     1320     2585    2          CALL FMO$LOCCODP(CODE$, 8);
     1321     2586
     1322     2587    2          N=CODE$->FITALTKEYS.NUMWRDS*4;
     1323     2588    2          CODE$->MOVEN=ALTKEY$->MOVEN;
     1324     2589
     1325     2590    2          N=N/4;
     1326     2591    2          CALL FSA$FSP(N, ALTKEY$);
     1327     2592    2          F$DCB.ALTKEYX=0;
     1328     2593
     1329     2594    2          RETURN;
     1330     2595    2          END INDEXED_CLEANUP;
     1331     2596               %EJECT;
PL6.E3A0      #006=FMQ$RELSTARF File=FMQ$DIR.:E05TSI                             TUE 07/29/97 17:02 Page:188
     1332     2597        /*I*     NAME:     IREL_CLEANUP
     1333     2598                 PURPOSE:  To handle clean-up for IREL files.
     1334     2599                 DESCRIPTION:
     1335     2600
     1336     2601                      Find the CODE19 blocks from the FIT, and
     1337     2602                 the buffer passed by ALTKEY.  Since duplicates
     1338     2603                 may have been found by ALTKEY, we may have to
     1339     2604                 reset some UNIQUE bits.
     1340     2605
     1341     2606                      Next, set ALTBLD, and the other information
     1342     2607                 for the alternate indexes that may have changed.
     1343     2608        */
     1344     2609                 %EJECT;
PL6.E3A0      #006=FMQ$RELSTARF File=FMQ$DIR.:E05TSI                             TUE 07/29/97 17:02 Page:189
     1345     2610    1   IREL_CLEANUP: PROC;
     1346     2611    2          DCL I SBIN;
     1347     2612        /* */
     1348     2613    2          CODE19$=FIT$;
     1349     2614    2          CALL FMO$LOCCODP(CODE19$, 19);
     1350     2615
     1351     2616    2          NEWCODE$=FPARAM$;
     1352     2617    2          CALL FMO$LOCCODP(NEWCODE$, 19);
     1353     2618
     1354     2619    2          N=0;
     1355     2620    2          I=0;
     1356     2621    3          DO UNTIL(N >= CODE19.NKEYS);
     1357     2622    3             CODE19.K.UNIQUE(I)=NEWCODE$->CODE19.K.UNIQUE(I);
     1358     2623    3             IF CODE19.K.KEYEND(I) THEN
     1359     2624    3                N=N+1;
     1360     2625    3             I=I+1;
     1361     2626    3          END;  /* UNTIL */
     1362     2627
     1363     2628    2          CODE20$=FIT$;
     1364     2629    2          CALL FMO$LOCCODP(CODE20$, 20);
     1365     2630    2          CODE20.ALTBLD=IRKEYS.ALTBLD;
     1366     2631
     1367     2632    3          DO I=0 TO IRKEYS.NKEYS-1;
     1368     2633    3             CODE20.K.TDALVL(I)=IRKEYS.K.TDALVL(I);
     1369     2634    3             CODE20.K.TDA(I)=IRKEYS.K.TDA(I);
     1370     2635    3             CODE20.K.FDA(I)=IRKEYS.K.FDA(I);
     1371     2636    3             CODE20.K.LDA(I)=IRKEYS.K.LDA(I);
     1372     2637    3          END;  /* DO I */
     1373     2638
     1374     2639    2          RETURN;
     1375     2640    2          END IREL_CLEANUP;
     1376     2641    1          END FMQ$RELSTARF;

PL6.E3A0      #006=FMQ$RELSTARF File=FMQ$DIR.:E05TSI                             TUE 07/29/97 17:02 Page:190
--  Include file information  --

   F_ERRORS_C.:E05TOU  is referenced.
   FM_FIELD_C.:E05TOU  is referenced.
   JG_GHOSTS_C.:E05TOU  is referenced.
   FK_DATA_C.:E05TOU  is referenced.
   F_FMTCODE_C.:E05TOU  is referenced.
   FM$MACROS.:E05TOU  is referenced.
   CP_6_SUBS.:E05TOU  is referenced.
   F$DCB.:E05TOU  is referenced.
   B$JIT_C.:E05TOU  is referenced.
   F$JIT_C.:E05TOU  cannot be made into a system file and is referenced.
   B$ROSEG.:E05TOU  cannot be made into a system file and is referenced.
      No diagnostics issued in procedure FMQ$RELSTARF.

   Procedure FMQ$RELSTARF requires 940 words for executable code.
   Procedure FMQ$RELSTARF requires 42 words of local(AUTO) storage.

    No errors detected in file FMQ$DIR.:E05TSI    .

PL6.E3A0      #006=FMQ$RELSTARF File=FMQ$DIR.:E05TSI                             TUE 07/29/97 17:02 Page:191

 Object Unit name= FMQ$RELSTARF                               File name= FMQ$DIR.:E05TOU
 UTS= JUL 29 '97 17:02:10.40 TUE                              Compiler= PL-6/E31         Sev=      00
 SharedLib= :SHARED_SYSTEM                                    Alt SharedLib=


    ****  Control sections  ****

 Sect   Type Bound  Init  Size OctSiz  Section name(segment info)
    0  RoData even  UTS      4      4  FMQ$RELSTARF
    1   Proc  even  none   940   1654  FMQ$RELSTARF
    2  RoData even  none    16     20  FMQ$RELSTARF

    ****  Entry defs  ****

                              Check   Calling
                             calling  sequence
  Sect OctLoc Primary Altret sequence   type   Parms  Name
     1      0   yes            yes      Std        0  FMQ$RELSTARF
     1     11                  yes      Std        0  FMQ$RELSTARFP
PL6.E3A0      #006=FMQ$RELSTARF File=FMQ$DIR.:E05TSI                             TUE 07/29/97 17:02 Page:192

  ****  Entry refs  ****

         Check        Calling
        calling       sequence
Altret sequence SRef   type   Args  Name
         yes           Std       2 HFF$DSIZ
 yes     yes           Std       1 HFF$NILERASE
         yes           Std       1 FMO$GETDOMAIN
 yes     yes           Std       0 UMD$QDRIB
         yes           Std       0 FMP$CLSJ
 yes     yes           Std       1 FAG$RFILE
         yes           Std       1 FMD$RELBUF
 yes     yes           Std       3 FMG$NXTKEYNM
 yes     yes           Std       1 FAG$REXT
         yes           Std       1 FMC$CLR1
 yes     yes           Std       6 FMD$REDBUF
         yes           Std       1 FMM$SCRUB
 yes     yes           Std       2 FMO$LOCCODP
 yes     yes           Std       2 FMN$GETFIT
 yes     yes           Std       1 FMO$RELG
         yes           Std       1 FMD$WRTBUF
         yes           Std       0 FMU$BLDALT
 yes     yes           Std       1 FAF$GETGRAN
 yes     yes           Std       2 FSA$GSP
 yes     yes           Std       1 FMG$IRSETUP
 yes     yes           Std       2 FSA$FSP
                       nStd      0 X66_AUTO_0
                       nStd      0 X66_ARET
                       Std       0 B_CONSPOOL_D
PL6.E3A0      #006=FMQ$RELSTARF File=FMQ$DIR.:E05TSI                             TUE 07/29/97 17:02 Page:193

  ****  Data refs  ****

  Flags:  r = read only, s = secondary
Flgs Name                             Flgs Name                             Flgs Name
     B$JIT$                                B$PS0$                                B$PS1$
     B$ROSEG$                              F$CFU$                                FM_SYSSETX
     FM_STARCHARS                          S_CUN                                 B_VECTNIL

  ****  Segment refs  ****

  Flags:  r = read only, s = secondary
Flgs Name                             Flgs Name                             Flgs Name
     ROSID                                 ISSID
PL6.E3A0      #006=FMQ$RELSTARF File=FMQ$DIR.:E05TSI                             TUE 07/29/97 17:02 Page:194


      789        1        /*T***********************************************************/
      790        2        /*T*                                                         */
      791        3        /*T* Copyright (c) Bull HN Information Systems Inc., 1997    */
      792        4        /*T*                                                         */
      793        5        /*T***********************************************************/
      794        6        /*F*  NAME:   FMQ$RELSTARF
      795        7        *     PURPOSE:  Release all star files for the current user. */
      796        8        /*D*     NAME:     FMQ$RELSTARF
      797        9                 ENTRY:    FMQ$RELSTARFP
      798       10                 PURPOSE:  To release star files, and handle sleazy
      799       11                           ALTKEY monitor calls
      800       12                 CALL:     CALL FMQ$RELSTARF
      801       13                 DESCRIPTION:
      802       14
      803       15                      This routine can be called for one of several
      804       16                 reasons.  It could be called while running a user down
      805       17                 to release star files, it could be called during RECOVER2
      806       18                 to release star files, and it could be called by ALTKEY
      807       19                 for some sleazy monitor calls.
      808       20
      809       21                      If we get called through the main entry point, then
      810       22                 we are getting called as a result of running down a user.
      811       23                 We want to release all of the user's star files.
      812       24        */
      813       25                 %EJECT;
PL6.E3A0      #006=FMQ$RELSTARF File=FMQ$DIR.:E05TSI                             TUE 07/29/97 17:02 Page:195
      814       26        FMQ$RELSTARF: PROC;

     26  1 000000   000000 700200 xent  FMQ$RELSTARF TSX0  ! X66_AUTO_0
         1 000001   000052 000000                    ZERO    42,0

      815       27        /* */
      816       28               %INCLUDE B$ROSEG;
      817       91               %INCLUDE F$JIT_C;
      818      521               %MACRO F$DCB(BASED=BASED);
      819      522               %INCLUDE F$DCB;
      820      571               %MEND;
      821      572               %INCLUDE CP_6_SUBS;
      822     1112               %INCLUDE FM$MACROS;
      823     1487               %INCLUDE F_FMTCODE_C;
      824     1521               %INCLUDE FK_DATA_C;
      825     1598               %INCLUDE JG_GHOSTS_C;
      826     1688               %INCLUDE FM_FIELD_C;
      827     1729               %INCLUDE F_ERRORS_C;
      828     1969        /* */
      829     1970               %F$DCB (BASED="BASED(JDCB$)");
      830     2020               %FITALTKEYS;
      831     2026               %FMG$IRKEYS(FPTN=IRKEYS, STCLASS="BASED(ALTKEY$)");
      832     2033               %FK$ALTKEY_BFR(FPTN=FKA_ALTKEYS_BFR, STCLASS="BASED(B$PS1$)");
      833     2053               %CODE01(BASED="BASED(CODE$)");
      834     2057               %CODE02(BASED="BASED(CODE$)");
      835     2061               %CODE03(BASED="BASED(CODE$)");
      836     2068               %CODE19(BASED="BASED(CODE19$)");
      837     2071               %CODE20(BASED="BASED(CODE20$)");
      838     2076               %FM$CFU(BASED="BASED(CFU$)");
      839     2082               %FM$CFUA;
      840     2088               %FM$CFUN(BASED="BASED(NAME$)");
      841     2091               %FM$CFUX(BASED="BASED(F$CFU$)");
      842     2096               %FM$GRAN (BASED="BASED(BUF$)");
      843     2100               %FM$KEYENT (BASED="BASED(KEY$)");
      844     2103               %FM$FDSEG (BASED="BASED(SEG$)");
      845     2107        /* */
      846     2108    1          DCL FAF$GETGRAN ENTRY(1) ALTRET;
PL6.E3A0      #006=FMQ$RELSTARF File=FMQ$DIR.:E05TSI                             TUE 07/29/97 17:02 Page:196
      847     2109    1          DCL FAG$REXT ENTRY(1) ALTRET;
      848     2110    1          DCL FAG$RFILE ENTRY(1) ALTRET;
      849     2111    1          DCL FMC$CLR1 ENTRY(1);
      850     2112    1          DCL FMD$REDBUF ENTRY(6) ALTRET;
      851     2113    1          DCL FMD$RELBUF ENTRY(1);
      852     2114    1          DCL FMD$WRTBUF ENTRY(1);
      853     2115    1          DCL FMG$NXTKEYNM ENTRY(3) ALTRET;
      854     2116    1          DCL FMG$IRSETUP ENTRY(1) ALTRET;
      855     2117    1          DCL FMM$SCRUB ENTRY(1);
      856     2118    1          DCL FMN$GETFIT ENTRY(2) ALTRET;
      857     2119    1          DCL FMO$GETDOMAIN ENTRY(1);
      858     2120    1          DCL FMO$LOCCODP ENTRY(2) ALTRET;
      859     2121    1          DCL FMO$RELG ENTRY(1) ALTRET;
      860     2122    1          DCL FMP$CLSJ ENTRY;
      861     2123    1          DCL FMU$BLDALT ENTRY;
      862     2124    1          DCL FSA$FSP ENTRY(2) ALTRET;
      863     2125    1          DCL FSA$GSP ENTRY(2) ALTRET;
      864     2126    1          DCL HFF$DSIZ ENTRY(2);
      865     2127    1          DCL HFF$NILERASE ENTRY(1) ALTRET;
      866     2128    1          DCL UMD$QDRIB ENTRY ALTRET;
      867     2129        /* */
      868     2130    1          DCL B$JIT$ PTR SYMREF;
      869     2131    1          DCL B$PS0$ PTR SYMREF;
      870     2132    1          DCL B$PS1$ PTR SYMREF;
      871     2133    1          DCL B$ROSEG$ PTR SYMREF;
      872     2134    1          DCL F$CFU$ PTR SYMREF;
      873     2135    1          DCL FM_SYSSETX UBIN SYMREF;
      874     2136    1          DCL FM_STARCHARS(0:0) CHAR(1) UNAL SYMREF;
      875     2137    1          DCL S_CUN UBIN SYMREF;
      876     2138        /* */
      877     2139               %SUB FCG#='0615'O;
      878     2140               %SUB MID#='21'O;
      879     2141               %ERRCODE(NAME=FMQ$E$CLSREL,COD#=%E$CLSREL);
      880     2145        /* */
      881     2146    1          DCL JDCB$ PTR;
      882     2147    1          DCL UJIT$ PTR;
      883     2148    1          DCL DA SBIN;
PL6.E3A0      #006=FMQ$RELSTARF File=FMQ$DIR.:E05TSI                             TUE 07/29/97 17:02 Page:197
      884     2149    1          DCL I SBIN;
      885     2150    1          DCL LCDA SBIN;
      886     2151    1          DCL FITDA SBIN;
      887     2152    1          DCL 1 EXTNT REDEF FITDA,
      888     2153    1               2 SIZ UBIN(9) UNAL,
      889     2154    1               2 DA UBIN(27) UNAL;
      890     2155    1          DCL BUF$ PTR;
      891     2156    1          DCL SEG$ PTR;
      892     2157    1          DCL KEY$ PTR;
      893     2158    1          DCL NAME$ PTR;
      894     2159    1          DCL CFU$ PTR;
      895     2160    1          DCL ALLFILES BIT(1);
      896     2161    1          DCL BFR BIT(36);
      897     2162    1          DCL BFR1 BIT(36);
      898     2163    1          DCL FIT$ PTR;
      899     2164    1          DCL FPARAM$ PTR;
      900     2165    1          DCL IORG UBIN;
      901     2166    1          DCL BUFNO SBIN;
      902     2167    1          DCL CODE$ PTR;
      903     2168    1          DCL N SBIN;
      904     2169    1          DCL CODE19$ PTR;
      905     2170    1          DCL CODE20$ PTR;
      906     2171    1          DCL ALTKEY$ PTR;
      907     2172    1          DCL NEWCODE$ PTR;
      908     2173    1          DCL ACCTX UBIN;
      909     2174    1          DCL ACCT$ PTR;
      910     2175        /* */
      911     2176    1          DCL FPARAM(0:1023) UBIN BASED(FPARAM$);
      912     2177    1          DCL MOVEN CHAR(N) BASED CALIGNED;
      913     2178        /* */
      914     2179    1          UJIT$=B$JIT$;

   2179  1 000002   000000 236000 xsym               LDQ     B$JIT$
         1 000003   200004 756100                    STQ     UJIT$,,AUTO

      915     2180    1          ALLFILES=%YES#;

PL6.E3A0      #006=FMQ$RELSTARF File=FMQ$DIR.:E05TSI                             TUE 07/29/97 17:02 Page:198
   2180  1 000004   400000 236003                    LDQ     -131072,DU
         1 000005   200016 756100                    STQ     ALLFILES,,AUTO

      916     2181    1          CALL RELSTARF;

   2181  1 000006   000065 701000 1                  TSX1    RELSTARF
         1 000007   000000 011000                    NOP     0

      917     2182    1          RETURN;

   2182  1 000010   000000 702200 xent               TSX2  ! X66_ARET

      918     2183               %EJECT;
PL6.E3A0      #006=FMQ$RELSTARF File=FMQ$DIR.:E05TSI                             TUE 07/29/97 17:02 Page:199
      919     2184        /*F*     NAME:     FMQ$RELSTARFP
      920     2185                 PURPOSE:  To handle the M$RELSTARF monitor call
      921     2186                 CALL:     CALL FMQ$RELSTARFP
      922     2187                 DESCRIPTION:
      923     2188                      Get the size of the second vector.  If it is
      924     2189                 zero, then we want to release star files, otherwise,
      925     2190                 this is probably a sleazy ALTKEY monitor call.
      926     2191
      927     2192                      If there is a vector 0, then it is GHOST1 releasing
      928     2193                 star files during RECOVER2.  Otherwise, it is LOGOFF
      929     2194                 releasing all but *A, and *S.
      930     2195        */
      931     2196                 %EJECT;
PL6.E3A0      #006=FMQ$RELSTARF File=FMQ$DIR.:E05TSI                             TUE 07/29/97 17:02 Page:200
      932     2197    1   FMQ$RELSTARFP: ENTRY;

   2197  1 000011   000000 700200 xent  FMQ$RELSTAR* TSX0  ! X66_AUTO_0
         1 000012   000052 000000                    ZERO    42,0

      933     2198    1          CALL HFF$DSIZ(1,I);

   2198  1 000013   200006 630500                    EPPR0   I,,AUTO
         1 000014   200045 450500                    STP0    I+2,,AUTO
         1 000015   000000 236000 2                  LDQ     0
         1 000016   200044 756100                    STQ     I+1,,AUTO
         1 000017   200044 630500                    EPPR0   I+1,,AUTO
         1 000020   000020 631400 xsym               EPPR1   B_VECTNIL+16
         1 000021   000000 701000 xent               TSX1    HFF$DSIZ
         1 000022   000000 011000                    NOP     0

      934     2199    1          IF I = 0 THEN

   2199  1 000023   200006 235100                    LDA     I,,AUTO
         1 000024   000062 601000 1                  TNZ     s:2217

      935     2200    2             DO;   /* RELEASE FILES */

      936     2201    2             CALL HFF$NILERASE(0) ALTRET(PARTREL);

   2201  1 000025   000001 630400 2                  EPPR0   1
         1 000026   000017 631400 xsym               EPPR1   B_VECTNIL+15
         1 000027   000000 701000 xent               TSX1    HFF$NILERASE
         1 000030   000042 702000 1                  TSX2    PARTREL

      937     2202    2             ALLFILES=%YES#;

   2202  1 000031   400000 236003                    LDQ     -131072,DU
         1 000032   200016 756100                    STQ     ALLFILES,,AUTO

      938     2203    2             UJIT$=B$PS0$;

PL6.E3A0      #006=FMQ$RELSTARF File=FMQ$DIR.:E05TSI                             TUE 07/29/97 17:02 Page:201
   2203  1 000033   000000 236000 xsym               LDQ     B$PS0$
         1 000034   200004 756100                    STQ     UJIT$,,AUTO

      939     2204    2             IF S_CUN~=JG_SLUG# THEN

   2204  1 000035   000000 235000 xsym               LDA     S_CUN
         1 000036   000001 115007                    CMPA    1,DL
         1 000037   000041 600000 1                  TZE     s:2207

      940     2205    2                RETURN;

   2205  1 000040   000000 702200 xent               TSX2  ! X66_ARET

      941     2206
      942     2207    3             DO WHILE ('0'B);

   2207  1 000041   000057 710000 1                  TRA     s:2214

      943     2208    3   PARTREL:     ALLFILES=%NO#;

   2208  1 000042   200016 450100       PARTREL      STZ     ALLFILES,,AUTO

      944     2209    3                CALL FMO$GETDOMAIN(I);

   2209  1 000043   200006 630500                    EPPR0   I,,AUTO
         1 000044   200044 450500                    STP0    I+1,,AUTO
         1 000045   200044 630500                    EPPR0   I+1,,AUTO
         1 000046   000017 631400 xsym               EPPR1   B_VECTNIL+15
         1 000047   000000 701000 xent               TSX1    FMO$GETDOMAIN
         1 000050   000000 011000                    NOP     0

      945     2210    3                IF I~=4 THEN

   2210  1 000051   200006 235100                    LDA     I,,AUTO
         1 000052   000004 115007                    CMPA    4,DL
         1 000053   000055 600000 1                  TZE     s:2212

PL6.E3A0      #006=FMQ$RELSTARF File=FMQ$DIR.:E05TSI                             TUE 07/29/97 17:02 Page:202
      946     2211    3                   RETURN;

   2211  1 000054   000000 702200 xent               TSX2  ! X66_ARET

      947     2212    3                UJIT$=B$JIT$;

   2212  1 000055   000000 236000 xsym               LDQ     B$JIT$
         1 000056   200004 756100                    STQ     UJIT$,,AUTO

      948     2213    3             END;

      949     2214    2             CALL RELSTARF;

   2214  1 000057   000065 701000 1                  TSX1    RELSTARF
         1 000060   000000 011000                    NOP     0

      950     2215    2             END;  /* RELEASE FILES */

   2215  1 000061   000064 710000 1                  TRA     s:2219

      951     2216    1          ELSE
      952     2217    1             CALL ALTKEYS;

   2217  1 000062   000425 701000 1                  TSX1    ALTKEYS
         1 000063   000000 011000                    NOP     0

      953     2218
      954     2219    1          RETURN;

   2219  1 000064   000000 702200 xent               TSX2  ! X66_ARET

      955     2220               %EJECT;
PL6.E3A0      #006=FMQ$RELSTARF File=FMQ$DIR.:E05TSI                             TUE 07/29/97 17:02 Page:203
      956     2221        /*I*     NAME:     RELSTARF
      957     2222                 PURPOSE:  To release star files
      958     2223                 DESCRIPTION:
      959     2224
      960     2225                      If we are dribbling, then we need to clean it up.
      961     2226
      962     2227                      Make sure M$STAR is closed, we will use it to
      963     2228                 release star files.
      964     2229
      965     2230                      First, release all of the JIT cataloged files.
      966     2231                 If there is a DA for the file, and we want to release
      967     2232                 it, then put the name of the star file in the DCB, and
      968     2233                 release the file.
      969     2234
      970     2235                      Next, get the DA of the file directory for star
      971     2236                 files, to release the rest of the user's star files.
      972     2237                 Point to the first record, then use FMG$NXTKEYNM to
      973     2238                 position to the name of the next star file.  We
      974     2239                 want to save the buffer that holds the file directory.
      975     2240
      976     2241                     Finally, release the file directory, and then
      977     2242                 return.
      978     2243        */
      979     2244               %EJECT;
PL6.E3A0      #006=FMQ$RELSTARF File=FMQ$DIR.:E05TSI                             TUE 07/29/97 17:02 Page:204
      980     2245    1   RELSTARF: PROC;

   2245  1 000065   200036 741300       RELSTARF     STX1  ! ACCT$+2,,AUTO

      981     2246        /* */
      982     2247    2          IF DCBADDR(%M$DRIBBLE#) ~= ADDR(NIL) THEN

   2247  1 000066   000002 470400 2                  LDP0    2
         1 000067   000000 471500                    LDP1    0,,PR0
         1 000070   177777 236100                    LDQ     -1,,PR1
         1 000071   000001 116000 xsym               CMPQ    B_VECTNIL+1
         1 000072   000102 600000 1                  TZE     s:2250

      983     2248    2             IF DCBADDR(%M$DRIBBLE#)->F$DCB.STARF THEN

   2248  1 000073   177777 473500                    LDP3    -1,,PR1
         1 000074   300064 236100                    LDQ     52,,PR3
         1 000075   200000 316003                    CANQ    65536,DU
         1 000076   000102 600000 1                  TZE     s:2250

      984     2249    2             CALL UMD$QDRIB;

   2249  1 000077   000002 631400 xsym               EPPR1   B_VECTNIL+2
         1 000100   000000 701000 xent               TSX1    UMD$QDRIB
         1 000101   000000 011000                    NOP     0

      985     2250    2          B$JIT.DCB$=DCBADDR(%M$STAR#);

   2250  1 000102   000002 470400 2                  LDP0    2
         1 000103   000000 471500                    LDP1    0,,PR0
         1 000104   100001 236100                    LDQ     1,,PR1
         1 000105   000000 473400 xsym               LDP3    B$JIT$
         1 000106   300232 756100                    STQ     154,,PR3

      986     2251    2          JDCB$=B$JIT.DCB$;

   2251  1 000107   200003 756100                    STQ     JDCB$,,AUTO
PL6.E3A0      #006=FMQ$RELSTARF File=FMQ$DIR.:E05TSI                             TUE 07/29/97 17:02 Page:205

      987     2252    2          IF F$DCB.FCD THEN

   2252  1 000110   200003 474500                    LDP4    JDCB$,,AUTO
         1 000111   400031 236100                    LDQ     25,,PR4
         1 000112   020000 316007                    CANQ    8192,DL
         1 000113   000117 600000 1                  TZE     s:2254

      988     2253    2             CALL FMP$CLSJ;

   2253  1 000114   000002 631400 xsym               EPPR1   B_VECTNIL+2
         1 000115   000000 701000 xent               TSX1    FMP$CLSJ
         1 000116   000000 011000                    NOP     0

      989     2254    2          F$DCB.BFR='0'B;

   2254  1 000117   200003 470500                    LDP0    JDCB$,,AUTO
         1 000120   000100 100400                    MLR     fill='000'O
         1 000121   000002 000001 xsym               ADSC9   B_VECTNIL+2              cn=0,n=1
         1 000122   000115 000024                    ADSC9   77,,PR0                  cn=0,n=20

      990     2255    2          F$DCB.BFR1='0'B;

   2255  1 000123   000100 100400                    MLR     fill='000'O
         1 000124   000002 000001 xsym               ADSC9   B_VECTNIL+2              cn=0,n=1
         1 000125   000122 000024                    ADSC9   82,,PR0                  cn=0,n=20

      991     2256    2          F$DCB.SETX=FM_SYSSETX;

   2256  1 000126   000000 720000 xsym               LXL0    FM_SYSSETX
         1 000127   000051 440100                    SXL0    41,,PR0

      992     2257
      993     2258    3          DO I=1 TO SIZEW(B$JIT.STAR)-1;

   2258  1 000130   000001 235007                    LDA     1,DL
         1 000131   200006 755100                    STA     I,,AUTO
PL6.E3A0      #006=FMQ$RELSTARF File=FMQ$DIR.:E05TSI                             TUE 07/29/97 17:02 Page:206
         1 000132   000176 710000 1                  TRA     s:2270+1

      994     2259    3             IF UJIT$->B$JIT.STAR.DA(I) ~= 0 AND

   2259  1 000133   200004 470500                    LDP0    UJIT$,,AUTO
         1 000134   200006 720100                    LXL0    I,,AUTO
         1 000135   000222 235110                    LDA     146,X0,PR0
         1 000136   000175 600000 1                  TZE     s:2270
         1 000137   200016 234100                    SZN     ALLFILES,,AUTO
         1 000140   000146 604000 1                  TMI     s:2262
         1 000141   200006 236100                    LDQ     I,,AUTO
         1 000142   000003 116007                    CMPQ    3,DL
         1 000143   000146 604000 1                  TMI     s:2262
         1 000144   000004 116007                    CMPQ    4,DL
         1 000145   000175 604400 1                  TMOZ    s:2270

      995     2260    3                (ALLFILES = %YES# OR I < 3 OR I > 4) THEN
      996     2261    4                DO;   /* PUT NAME IN DCB */

      997     2262    4                F$DCB.NAME.L=2;

   2262  1 000146   200003 471500                    LDP1    JDCB$,,AUTO
         1 000147   002000 236003                    LDQ     1024,DU
         1 000150   100010 552140                    STBQ    8,'40'O,PR1

      998     2263    4                F$DCB.NAME.C='*';

   2263  1 000151   040100 100400                    MLR     fill='040'O
         1 000152   000003 000001 2                  ADSC9   3                        cn=0,n=1
         1 000153   100010 200037                    ADSC9   8,,PR1                   cn=1,n=31

      999     2264    4                CALL INSERT(F$DCB.NAME.C,1,1,FM_STARCHARS(I));

   2264  1 000154   200006 235100                    LDA     I,,AUTO
         1 000155   040100 100405                    MLR     fill='040'O
         1 000156   000000 000001 xsym               ADSC9   FM_STARCHARS,A           cn=0,n=1
         1 000157   100010 400001                    ADSC9   8,,PR1                   cn=2,n=1
PL6.E3A0      #006=FMQ$RELSTARF File=FMQ$DIR.:E05TSI                             TUE 07/29/97 17:02 Page:207

     1000     2265    4                FITDA=UJIT$->B$JIT.STAR.DA(I);

   2265  1 000160   000222 235110                    LDA     146,X0,PR0
         1 000161   200010 755100                    STA     FITDA,,AUTO

     1001     2266    4                UJIT$->B$JIT.STAR.DA(I)=0;

   2266  1 000162   000222 450110                    STZ     146,X0,PR0

     1002     2267    4                CALL FAG$RFILE(FITDA) ALTRET(ERR);

   2267  1 000163   200010 631500                    EPPR1   FITDA,,AUTO
         1 000164   200044 451500                    STP1    I+1,,AUTO
         1 000165   200044 630500                    EPPR0   I+1,,AUTO
         1 000166   000017 631400 xsym               EPPR1   B_VECTNIL+15
         1 000167   000000 701000 xent               TSX1    FAG$RFILE
         1 000170   000411 702000 1                  TSX2    ERR

     1003     2268    4                CALL FMD$RELBUF(1);

   2268  1 000171   000000 630400 2                  EPPR0   0
         1 000172   000017 631400 xsym               EPPR1   B_VECTNIL+15
         1 000173   000000 701000 xent               TSX1    FMD$RELBUF
         1 000174   000000 011000                    NOP     0

     1004     2269    4                END;  /* PUT NAME IN DCB */

     1005     2270    3          END;

   2270  1 000175   200006 054100                    AOS     I,,AUTO
         1 000176   200006 235100                    LDA     I,,AUTO
         1 000177   000007 115007                    CMPA    7,DL
         1 000200   000133 604400 1                  TMOZ    s:2259

     1006     2271
     1007     2272    2          DA=UJIT$->B$JIT.STAR.DA(0);
PL6.E3A0      #006=FMQ$RELSTARF File=FMQ$DIR.:E05TSI                             TUE 07/29/97 17:02 Page:208

   2272  1 000201   200004 470500                    LDP0    UJIT$,,AUTO
         1 000202   000222 235100                    LDA     146,,PR0
         1 000203   200005 755100                    STA     DA,,AUTO

     1008     2273    2          UJIT$->B$JIT.STAR.DA(0)=0;

   2273  1 000204   000222 450100                    STZ     146,,PR0

     1009     2274    2          F$DCB.HASH=UJIT$->B$JIT.SYSID;

   2274  1 000205   200003 471500                    LDP1    JDCB$,,AUTO
         1 000206   000000 236100                    LDQ     0,,PR0
         1 000207   777777 376007                    ANQ     -1,DL
         1 000210   000011 736000                    QLS     9
         1 000211   100073 552170                    STBQ    59,'70'O,PR1

     1010     2275    2          LCDA=0;

   2275  1 000212   200007 450100                    STZ     LCDA,,AUTO

     1011     2276
     1012     2277    3          DO WHILE (DA ~= 0);

   2277  1 000213   000000 115003                    CMPA    0,DU
         1 000214   000407 600000 1                  TZE     s:2318

     1013     2278    3             F$DCB.GTYP=FMGTFDSTAR;

   2278  1 000215   200003 470500                    LDP0    JDCB$,,AUTO
         1 000216   034000 236003                    LDQ     14336,DU
         1 000217   000064 256100                    ORSQ    52,,PR0

     1014     2279    3             CALL FMC$CLR1(DA);

   2279  1 000220   200005 631500                    EPPR1   DA,,AUTO
         1 000221   200044 451500                    STP1    I+1,,AUTO
PL6.E3A0      #006=FMQ$RELSTARF File=FMQ$DIR.:E05TSI                             TUE 07/29/97 17:02 Page:209
         1 000222   200044 630500                    EPPR0   I+1,,AUTO
         1 000223   000017 631400 xsym               EPPR1   B_VECTNIL+15
         1 000224   000000 701000 xent               TSX1    FMC$CLR1
         1 000225   000000 011000                    NOP     0

     1015     2280    3             F$DCB.HASH=UJIT$->B$JIT.SYSID;

   2280  1 000226   200003 470500                    LDP0    JDCB$,,AUTO
         1 000227   200004 471500                    LDP1    UJIT$,,AUTO
         1 000230   100000 236100                    LDQ     0,,PR1
         1 000231   777777 376007                    ANQ     -1,DL
         1 000232   000011 736000                    QLS     9
         1 000233   000073 552170                    STBQ    59,'70'O,PR0

     1016     2281    3             F$DCB.STARF='1'B;

   2281  1 000234   200000 236003                    LDQ     65536,DU
         1 000235   000064 256100                    ORSQ    52,,PR0

     1017     2282    3             F$DCB.CRECX=0;

   2282  1 000236   000000 220003                    LDX0    0,DU
         1 000237   000067 440100                    SXL0    55,,PR0

     1018     2283    3             F$DCB.RPOS='0'B;

   2283  1 000240   000004 236000 2                  LDQ     4
         1 000241   000064 356100                    ANSQ    52,,PR0

     1019     2284    3             CALL FMD$REDBUF(BUF$,1,DA,,LCDA) ALTRET(ERR);

   2284  1 000242   200007 633500                    EPPR3   LCDA,,AUTO
         1 000243   200050 453500                    STP3    I+5,,AUTO
         1 000244   000001 236000 xsym               LDQ     B_VECTNIL+1
         1 000245   200047 756100                    STQ     I+4,,AUTO
         1 000246   200005 634500                    EPPR4   DA,,AUTO
         1 000247   200046 454500                    STP4    I+3,,AUTO
PL6.E3A0      #006=FMQ$RELSTARF File=FMQ$DIR.:E05TSI                             TUE 07/29/97 17:02 Page:210
         1 000250   000000 236000 2                  LDQ     0
         1 000251   200045 756100                    STQ     I+2,,AUTO
         1 000252   200011 635500                    EPPR5   BUF$,,AUTO
         1 000253   200044 455500                    STP5    I+1,,AUTO
         1 000254   200044 630500                    EPPR0   I+1,,AUTO
         1 000255   000023 631400 xsym               EPPR1   B_VECTNIL+19
         1 000256   000000 701000 xent               TSX1    FMD$REDBUF
         1 000257   000411 702000 1                  TSX2    ERR

     1020     2285
     1021     2286    4             DO WHILE ('1'B);

     1022     2287    4                B$JIT.ERR='0'B;

   2287  1 000260   000000 470400 xsym               LDP0    B$JIT$
         1 000261   000012 450100                    STZ     10,,PR0

     1023     2288    4                CALL FMG$NXTKEYNM(SEG$,I,KEY$) ALTRET(NXTERR);

   2288  1 000262   200013 631500                    EPPR1   KEY$,,AUTO
         1 000263   200046 451500                    STP1    I+3,,AUTO
         1 000264   200006 633500                    EPPR3   I,,AUTO
         1 000265   200045 453500                    STP3    I+2,,AUTO
         1 000266   200012 634500                    EPPR4   SEG$,,AUTO
         1 000267   200044 454500                    STP4    I+1,,AUTO
         1 000270   200044 630500                    EPPR0   I+1,,AUTO
         1 000271   000021 631400 xsym               EPPR1   B_VECTNIL+17
         1 000272   000000 701000 xent               TSX1    FMG$NXTKEYNM
         1 000273   000357 702000 1                  TSX2    NXTERR

     1024     2289    4                IF NOT FM$KEYENT.D AND FM$FDSEG.FITSDA~=0 THEN

   2289  1 000274   200013 470500                    LDP0    KEY$,,AUTO
         1 000275   000000 234100                    SZN     0,,PR0
         1 000276   000260 604000 1                  TMI     s:2287
         1 000277   200012 471500                    LDP1    SEG$,,AUTO
         1 000300   100000 236100                    LDQ     0,,PR1
PL6.E3A0      #006=FMQ$RELSTARF File=FMQ$DIR.:E05TSI                             TUE 07/29/97 17:02 Page:211
         1 000301   000032 316000 xsym               CANQ    B_VECTNIL+26
         1 000302   000260 600000 1                  TZE     s:2287

     1025     2290    5                   DO;

     1026     2291    5                   F$DCB.NAME.L=FM$KEYENT.KLB;

   2291  1 000303   200003 473500                    LDP3    JDCB$,,AUTO
         1 000304   000000 236100                    LDQ     0,,PR0
         1 000305   377000 376003                    ANQ     130560,DU
         1 000306   300010 552140                    STBQ    8,'40'O,PR3

     1027     2292    5                   F$DCB.NAME.C=FM$KEYENT.TXT;

   2292  1 000307   200013 470500                    LDP0    KEY$,,AUTO
         1 000310   000000 236100                    LDQ     0,,PR0
         1 000311   000033 772000                    QRL     27
         1 000312   000377 376007                    ANQ     255,DL
         1 000313   000000 620006                    EAX0    0,QL
         1 000314   040100 100540                    MLR     fill='040'O
         1 000315   000000 200010                    ADSC9   0,,PR0                   cn=1,n=*X0
         1 000316   300010 200037                    ADSC9   8,,PR3                   cn=1,n=31

     1028     2293    5                   FITDA=FM$FDSEG.FITSDA;

   2293  1 000317   200012 470500                    LDP0    SEG$,,AUTO
         1 000320   000000 236100                    LDQ     0,,PR0
         1 000321   000032 376000 xsym               ANQ     B_VECTNIL+26
         1 000322   200010 756100                    STQ     FITDA,,AUTO

     1029     2294    5                   BFR=F$DCB.BFR(1);

   2294  1 000323   300116 236100                    LDQ     78,,PR3
         1 000324   200017 756100                    STQ     BFR,,AUTO

     1030     2295    5                   BFR1=F$DCB.BFR1(1);

PL6.E3A0      #006=FMQ$RELSTARF File=FMQ$DIR.:E05TSI                             TUE 07/29/97 17:02 Page:212
   2295  1 000325   300123 236100                    LDQ     83,,PR3
         1 000326   200020 756100                    STQ     BFR1,,AUTO

     1031     2296    5                   F$DCB.BFR(1)='0'B;

   2296  1 000327   300116 450100                    STZ     78,,PR3

     1032     2297    5                   F$DCB.BFR1(1)='0'B;

   2297  1 000330   300123 450100                    STZ     83,,PR3

     1033     2298    5                   CALL FAG$RFILE(FITDA) ALTRET(ERR);

   2298  1 000331   200010 631500                    EPPR1   FITDA,,AUTO
         1 000332   200044 451500                    STP1    I+1,,AUTO
         1 000333   200044 630500                    EPPR0   I+1,,AUTO
         1 000334   000017 631400 xsym               EPPR1   B_VECTNIL+15
         1 000335   000000 701000 xent               TSX1    FAG$RFILE
         1 000336   000411 702000 1                  TSX2    ERR

     1034     2299    5                   CALL FMD$RELBUF(1);

   2299  1 000337   000000 630400 2                  EPPR0   0
         1 000340   000017 631400 xsym               EPPR1   B_VECTNIL+15
         1 000341   000000 701000 xent               TSX1    FMD$RELBUF
         1 000342   000000 011000                    NOP     0

     1035     2300    5                   F$DCB.BFR(1)=BFR;

   2300  1 000343   200017 236100                    LDQ     BFR,,AUTO
         1 000344   200003 470500                    LDP0    JDCB$,,AUTO
         1 000345   000116 756100                    STQ     78,,PR0

     1036     2301    5                   F$DCB.BFR1(1)=BFR1;

   2301  1 000346   200020 236100                    LDQ     BFR1,,AUTO
         1 000347   000123 756100                    STQ     83,,PR0
PL6.E3A0      #006=FMQ$RELSTARF File=FMQ$DIR.:E05TSI                             TUE 07/29/97 17:02 Page:213

     1037     2302    5                   BFR='0'B;

   2302  1 000350   200017 450100                    STZ     BFR,,AUTO

     1038     2303    5                   BFR1='0'B;

   2303  1 000351   200020 450100                    STZ     BFR1,,AUTO

     1039     2304    5                   F$DCB.GTYP=FMGTFD;

   2304  1 000352   000064 236100                    LDQ     52,,PR0
         1 000353   000005 376000 2                  ANQ     5
         1 000354   020000 276003                    ORQ     8192,DU
         1 000355   000064 756100                    STQ     52,,PR0

     1040     2305    5                   END;

     1041     2306    4             END;  /* FOREVER */

   2306  1 000356   000260 710000 1                  TRA     s:2287

     1042     2307
     1043     2308    3   NXTERR:   IF B$JIT.ERR THEN

   2308  1 000357   000000 470400 xsym  NXTERR       LDP0    B$JIT$
         1 000360   000012 235100                    LDA     10,,PR0
         1 000361   000411 601000 1                  TNZ     ERR

     1044     2309    3                GOTO ERR;
     1045     2310    3             EXTNT.DA=DA;

   2310  1 000362   200005 236100                    LDQ     DA,,AUTO
         1 000363   200010 552134                    STBQ    FITDA,'34'O,AUTO

     1046     2311    3             EXTNT.SIZ=1;

PL6.E3A0      #006=FMQ$RELSTARF File=FMQ$DIR.:E05TSI                             TUE 07/29/97 17:02 Page:214
   2311  1 000364   001000 236003                    LDQ     512,DU
         1 000365   200010 552140                    STBQ    FITDA,'40'O,AUTO

     1047     2312    3             LCDA=DA;

   2312  1 000366   200005 235100                    LDA     DA,,AUTO
         1 000367   200007 755100                    STA     LCDA,,AUTO

     1048     2313    3             DA=FM$GRAN.FLINK;

   2313  1 000370   200011 471500                    LDP1    BUF$,,AUTO
         1 000371   100004 235100                    LDA     4,,PR1
         1 000372   200005 755100                    STA     DA,,AUTO

     1049     2314    3             CALL FMD$RELBUF(1);

   2314  1 000373   000000 630400 2                  EPPR0   0
         1 000374   000017 631400 xsym               EPPR1   B_VECTNIL+15
         1 000375   000000 701000 xent               TSX1    FMD$RELBUF
         1 000376   000000 011000                    NOP     0

     1050     2315    3             CALL FAG$REXT(EXTNT) ALTRET(ERR);

   2315  1 000377   200010 630500                    EPPR0   FITDA,,AUTO
         1 000400   200044 450500                    STP0    I+1,,AUTO
         1 000401   200044 630500                    EPPR0   I+1,,AUTO
         1 000402   000017 631400 xsym               EPPR1   B_VECTNIL+15
         1 000403   000000 701000 xent               TSX1    FAG$REXT
         1 000404   000411 702000 1                  TSX2    ERR

     1051     2316    3          END;  /* WHILE */

   2316  1 000405   200005 235100                    LDA     DA,,AUTO
         1 000406   000215 601000 1                  TNZ     s:2278

     1052     2317
     1053     2318    2          RETURN;
PL6.E3A0      #006=FMQ$RELSTARF File=FMQ$DIR.:E05TSI                             TUE 07/29/97 17:02 Page:215

   2318  1 000407   200036 221300                    LDX1  ! ACCT$+2,,AUTO
         1 000410   000001 702211                    TSX2  ! 1,X1

     1054     2319
     1055     2320    2   ERR:   CALL FMD$RELBUF(0);

   2320  1 000411   000001 630400 2     ERR          EPPR0   1
         1 000412   000017 631400 xsym               EPPR1   B_VECTNIL+15
         1 000413   000000 701000 xent               TSX1    FMD$RELBUF
         1 000414   000000 011000                    NOP     0

     1056     2321    2          CALL FMD$RELBUF(1);

   2321  1 000415   000000 630400 2                  EPPR0   0
         1 000416   000017 631400 xsym               EPPR1   B_VECTNIL+15
         1 000417   000000 701000 xent               TSX1    FMD$RELBUF
         1 000420   000000 011000                    NOP     0

     1057     2322    2          B$JIT.ERR='0'B;

   2322  1 000421   000000 470400 xsym               LDP0    B$JIT$
         1 000422   000012 450100                    STZ     10,,PR0

     1058     2323    2          RETURN;

   2323  1 000423   200036 221300                    LDX1  ! ACCT$+2,,AUTO
         1 000424   000001 702211                    TSX2  ! 1,X1

     1059     2324    2          END RELSTARF;
     1060     2325               %EJECT;
PL6.E3A0      #006=FMQ$RELSTARF File=FMQ$DIR.:E05TSI                             TUE 07/29/97 17:02 Page:216
     1061     2326        /*I*     NAME:     ALTKEYS
     1062     2327                 PURPOSE:  To handle sleazy monitor calls for ALTKEY
     1063     2328                 DESCRIPTION:
     1064     2329
     1065     2330                      Make sure that this is ALTKEY.:SYS calling us,
     1066     2331                 if it isn't, hang up.
     1067     2332
     1068     2333                      Find out want it wants to do.
     1069     2334        */
     1070     2335                 %EJECT;
PL6.E3A0      #006=FMQ$RELSTARF File=FMQ$DIR.:E05TSI                             TUE 07/29/97 17:02 Page:217
     1071     2336    1   ALTKEYS: PROC;

   2336  1 000425   200036 741300       ALTKEYS      STX1  ! ACCT$+2,,AUTO

     1072     2337        /* */
     1073     2338    2          IF DCBADDR(%M$LM#)->F$DCB.NAME.C ~= 'ALTKEY' OR

   2338  1 000426   000002 470400 2                  LDP0    2
         1 000427   000000 471500                    LDP1    0,,PR0
         1 000430   100002 473500                    LDP3    2,,PR1
         1 000431   040000 106500                    CMPC    fill='040'O
         1 000432   300010 200037                    ADSC9   8,,PR3                   cn=1,n=31
         1 000433   000001 000006 0                  ADSC9   FMQ$E$CLSREL+1           cn=0,n=6
         1 000434   000441 601000 1                  TNZ     s:2340
         1 000435   040000 106500                    CMPC    fill='040'O
         1 000436   300020 000010                    ADSC9   16,,PR3                  cn=0,n=8
         1 000437   000003 000004 0                  ADSC9   FMQ$E$CLSREL+3           cn=0,n=4
         1 000440   000442 600000 1                  TZE     s:2342

     1074     2339    2             DCBADDR(%M$LM#)->F$DCB.ACCT ~= ':SYS' THEN
     1075     2340    2             RETURN;

   2340  1 000441   000001 702211                    TSX2  ! 1,X1

     1076     2341
     1077     2342    2          B$JIT.DCB$=B$ROSEG$->B$ROSEG.DCBPTR$->B$RODCB$(FKA_ALTKEYS_BFR.DCB#);

   2342  1 000442   000000 474400 xsym               LDP4    B$ROSEG$
         1 000443   400000 475500                    LDP5    0,,PR4
         1 000444   000000 476400 xsym               LDP6    B$PS1$
         1 000445   600000 720100                    LXL0    0,,PR6
         1 000446   500000 236110                    LDQ     0,X0,PR5
         1 000447   000000 477400 xsym               LDP7    B$JIT$
         1 000450   700232 756100                    STQ     154,,PR7

     1078     2343    2          JDCB$=B$JIT.DCB$;

PL6.E3A0      #006=FMQ$RELSTARF File=FMQ$DIR.:E05TSI                             TUE 07/29/97 17:02 Page:218
   2343  1 000451   200003 756100                    STQ     JDCB$,,AUTO

     1079     2344
     1080     2345    3          DO CASE(FKA_ALTKEYS_BFR.CODE);

   2345  1 000452   600002 235100                    LDA     2,,PR6
         1 000453   000003 115007                    CMPA    3,DL
         1 000454   000456 602005 1                  TNC     s:2345+4,AL
         1 000455   000471 710000 1                  TRA     s:2357
         1 000456   000461 710000 1                  TRA     s:2347
         1 000457   000467 710000 1                  TRA     s:2353
         1 000460   000464 710000 1                  TRA     s:2350

     1081     2346    3             CASE(%ALTKEY_OPEN#);

     1082     2347    3                CALL OPEN;

   2347  1 000461   000473 701000 1                  TSX1    OPEN
         1 000462   000000 011000                    NOP     0
         1 000463   000471 710000 1                  TRA     s:2357

     1083     2348
     1084     2349    3             CASE(%ALTKEY_CLOSE#);

     1085     2350    3                CALL CLOSE;

   2350  1 000464   000756 701000 1                  TSX1    CLOSE
         1 000465   000000 011000                    NOP     0
         1 000466   000471 710000 1                  TRA     s:2357

     1086     2351
     1087     2352    3             CASE(%ALTKEY_EXTEND#);

     1088     2353    3                CALL EXTEND;

   2353  1 000467   001130 701000 1                  TSX1    EXTEND
         1 000470   000000 011000                    NOP     0
PL6.E3A0      #006=FMQ$RELSTARF File=FMQ$DIR.:E05TSI                             TUE 07/29/97 17:02 Page:219

     1089     2354
     1090     2355    3          END;  /* CASE */

     1091     2356
     1092     2357    2          RETURN;

   2357  1 000471   200036 221300                    LDX1  ! ACCT$+2,,AUTO
         1 000472   000001 702211                    TSX2  ! 1,X1

     1093     2358    2          END ALTKEYS;
     1094     2359               %EJECT;
PL6.E3A0      #006=FMQ$RELSTARF File=FMQ$DIR.:E05TSI                             TUE 07/29/97 17:02 Page:220
     1095     2360        /*I*     NAME:     OPEN
     1096     2361                 PURPOSE:  To handle sleazy opens for ALTKEY
     1097     2362                 DESCRIPTION:
     1098     2363
     1099     2364                      Initialize the DCB from the information from
     1100     2365                 the CFU pointer given to us.
     1101     2366
     1102     2367                      Next, get the FIT, and initialize some more
     1103     2368                 information in the DCB.
     1104     2369        */
     1105     2370                 %EJECT;
PL6.E3A0      #006=FMQ$RELSTARF File=FMQ$DIR.:E05TSI                             TUE 07/29/97 17:02 Page:221
     1106     2371    1   OPEN:  PROC;

   2371  1 000473   200040 741300       OPEN         STX1  ! ACCT$+4,,AUTO

     1107     2372        /* */
     1108     2373    2          CALL FMM$SCRUB(JDCB$);

   2373  1 000474   200003 630500                    EPPR0   JDCB$,,AUTO
         1 000475   200044 450500                    STP0    I+1,,AUTO
         1 000476   200044 630500                    EPPR0   I+1,,AUTO
         1 000477   000017 631400 xsym               EPPR1   B_VECTNIL+15
         1 000500   000000 701000 xent               TSX1    FMM$SCRUB
         1 000501   000000 011000                    NOP     0

     1109     2374
     1110     2375    2          F$DCB.CFU$=FKA_ALTKEYS_BFR.CFU$;

   2375  1 000502   000000 470400 xsym               LDP0    B$PS1$
         1 000503   000001 236100                    LDQ     1,,PR0
         1 000504   200003 471500                    LDP1    JDCB$,,AUTO
         1 000505   100066 756100                    STQ     54,,PR1

     1111     2376    2          F$DCB.ASN=%FILE#;

   2376  1 000506   001000 236007                    LDQ     512,DL
         1 000507   100032 552110                    STBQ    26,'10'O,PR1

     1112     2377    2          F$DCB.IASN=%FILE#;

   2377  1 000510   000001 236007                    LDQ     1,DL
         1 000511   100103 552104                    STBQ    67,'04'O,PR1

     1113     2378    2          F$DCB.IORG=%KEYED#;

   2378  1 000512   100070 236100                    LDQ     56,,PR1
         1 000513   000006 376000 2                  ANQ     6
         1 000514   002000 276003                    ORQ     1024,DU
PL6.E3A0      #006=FMQ$RELSTARF File=FMQ$DIR.:E05TSI                             TUE 07/29/97 17:02 Page:222
         1 000515   100070 756100                    STQ     56,,PR1

     1114     2379    2          F$DCB.IFMT=FMTRAN#;

   2379  1 000516   003000 236003                    LDQ     1536,DU
         1 000517   100103 552140                    STBQ    67,'40'O,PR1

     1115     2380    2          F$DCB.MEDIA=FMTRAN#;

   2380  1 000520   000003 236003                    LDQ     3,DU
         1 000521   100103 552120                    STBQ    67,'20'O,PR1

     1116     2381    2          F$DCB.ACS=%BLOCK#;

   2381  1 000522   000003 236007                    LDQ     3,DL
         1 000523   100036 552104                    STBQ    30,'04'O,PR1

     1117     2382    2          F$DCB.SETX=FKA_ALTKEYS_BFR.SETX;

   2382  1 000524   000004 720100                    LXL0    4,,PR0
         1 000525   100051 440100                    SXL0    41,,PR1

     1118     2383    2          F$DCB.FFLG=%FFLG_OWNER#;

   2383  1 000526   765700 221003                    LDX1    -5184,DU
         1 000527   100004 741100                    STX1    4,,PR1

     1119     2384    2          F$DCB.FUN=%IN#;

   2384  1 000530   000002 236003                    LDQ     2,DU
         1 000531   100032 552120                    STBQ    26,'20'O,PR1

     1120     2385    2          F$DCB.FCD='1'B;

   2385  1 000532   020000 236007                    LDQ     8192,DL
         1 000533   100031 256100                    ORSQ    25,,PR1

PL6.E3A0      #006=FMQ$RELSTARF File=FMQ$DIR.:E05TSI                             TUE 07/29/97 17:02 Page:223
     1121     2386    2          CFU$=FKA_ALTKEYS_BFR.CFU$;

   2386  1 000534   000001 236100                    LDQ     1,,PR0
         1 000535   200015 756100                    STQ     CFU$,,AUTO

     1122     2387    2          F$DCB.CFU$=CFU$;

   2387  1 000536   100066 756100                    STQ     54,,PR1

     1123     2388    2          B$JIT.CHECK_CFU = '0'B;

   2388  1 000537   000000 473400 xsym               LDP3    B$JIT$
         1 000540   000007 236000 2                  LDQ     7
         1 000541   300250 356100                    ANSQ    168,,PR3

     1124     2389
     1125     2390    3          DO WHILE(FM$CFU.NAMEX < FM$CFUX.NAMES);

   2390  1 000542   000000 474400 xsym               LDP4    F$CFU$
         1 000543   400001 236100                    LDQ     1,,PR4
         1 000544   777777 376007                    ANQ     -1,DL
         1 000545   200044 756100                    STQ     I+1,,AUTO
         1 000546   200015 475500                    LDP5    CFU$,,AUTO
         1 000547   500002 236100                    LDQ     2,,PR5
         1 000550   777777 376007                    ANQ     -1,DL
         1 000551   200044 116100                    CMPQ    I+1,,AUTO
         1 000552   000571 605000 1                  TPL     s:2394

     1126     2391    3             CFU$=PINCRW(F$CFU$, FM$CFU.NAMEX);

   2391  1 000553   200015 470500                    LDP0    CFU$,,AUTO
         1 000554   000002 720100                    LXL0    2,,PR0
         1 000555   000000 636010                    EAQ     0,X0
         1 000556   000000 036000 xsym               ADLQ    F$CFU$
         1 000557   200015 756100                    STQ     CFU$,,AUTO

     1127     2392    3          END;
PL6.E3A0      #006=FMQ$RELSTARF File=FMQ$DIR.:E05TSI                             TUE 07/29/97 17:02 Page:224

   2392  1 000560   000000 470400 xsym               LDP0    F$CFU$
         1 000561   000001 236100                    LDQ     1,,PR0
         1 000562   777777 376007                    ANQ     -1,DL
         1 000563   200044 756100                    STQ     I+1,,AUTO
         1 000564   200015 471500                    LDP1    CFU$,,AUTO
         1 000565   100002 236100                    LDQ     2,,PR1
         1 000566   777777 376007                    ANQ     -1,DL
         1 000567   200044 116100                    CMPQ    I+1,,AUTO
         1 000570   000553 604000 1                  TMI     s:2391

     1128     2393
     1129     2394    2          NAME$=PINCRC(F$CFU$, FM$CFU.NAMEX);

   2394  1 000571   200015 470500                    LDP0    CFU$,,AUTO
         1 000572   000002 236100                    LDQ     2,,PR0
         1 000573   777777 376007                    ANQ     -1,DL
         1 000574   000020 736000                    QLS     16
         1 000575   000000 036000 xsym               ADLQ    F$CFU$
         1 000576   200014 756100                    STQ     NAME$,,AUTO

     1130     2395    2          F$DCB.NAME.C=FM$CFUN.C;

   2395  1 000577   200014 471500                    LDP1    NAME$,,AUTO
         1 000600   000100 101500                    MRL     fill='000'O
         1 000601   100000 400001                    ADSC9   0,,PR1                   cn=2,n=1
         1 000602   200044 000002                    ADSC9   I+1,,AUTO                cn=0,n=2
         1 000603   200044 220100                    LDX0    I+1,,AUTO
         1 000604   200003 473500                    LDP3    JDCB$,,AUTO
         1 000605   040100 100540                    MLR     fill='040'O
         1 000606   100000 600010                    ADSC9   0,,PR1                   cn=3,n=*X0
         1 000607   300010 200037                    ADSC9   8,,PR3                   cn=1,n=31

     1131     2396    2          F$DCB.NAME.L=FM$CFUN.L;

   2396  1 000610   000100 100500                    MLR     fill='000'O
         1 000611   100000 400001                    ADSC9   0,,PR1                   cn=2,n=1
PL6.E3A0      #006=FMQ$RELSTARF File=FMQ$DIR.:E05TSI                             TUE 07/29/97 17:02 Page:225
         1 000612   300010 000001                    ADSC9   8,,PR3                   cn=0,n=1

     1132     2397    2          F$DCB.STARF=BINBIT(FM$CFU.STARX.F, 1);

   2397  1 000613   000002 236100                    LDQ     2,,PR0
         1 000614   000001 772000                    QRL     1
         1 000615   300064 676100                    ERQ     52,,PR3
         1 000616   200000 376003                    ANQ     65536,DU
         1 000617   300064 656100                    ERSQ    52,,PR3

     1133     2398
     1134     2399    2          IF F$DCB.STARF THEN

   2399  1 000620   300064 236100                    LDQ     52,,PR3
         1 000621   200000 316003                    CANQ    65536,DU
         1 000622   000627 600000 1                  TZE     s:2405

     1135     2400    3             DO;   /* STAR FILE */

     1136     2401    3             F$DCB.ACCT='*';

   2401  1 000623   000003 235000 2                  LDA     3
         1 000624   000035 236000 xsym               LDQ     B_VECTNIL+29
         1 000625   300020 757100                    STAQ    16,,PR3

     1137     2402    3             END;  /* STAR FILE */

   2402  1 000626   000652 710000 1                  TRA     s:2413

     1138     2403    2          ELSE
     1139     2404    3             DO;   /* REAL FILE */

     1140     2405    3             CFU$=F$DCB.CFU$;

   2405  1 000627   300066 236100                    LDQ     54,,PR3
         1 000630   200015 756100                    STQ     CFU$,,AUTO

PL6.E3A0      #006=FMQ$RELSTARF File=FMQ$DIR.:E05TSI                             TUE 07/29/97 17:02 Page:226
     1141     2406    3             ACCTX=FM$CFU.ACCTX;

   2406  1 000631   200015 470500                    LDP0    CFU$,,AUTO
         1 000632   000002 236100                    LDQ     2,,PR0
         1 000633   000022 772000                    QRL     18
         1 000634   200033 756100                    STQ     ACCTX,,AUTO

     1142     2407    3             IF ACCTX = 0 THEN

   2407  1 000635   000643 601000 1                  TNZ     s:2409

     1143     2408    3                ACCTX=PINCRW(F$CFU$, FM$CFU.NAMEX)->FM$CFU.ACCTX;

   2408  1 000636   000002 720100                    LXL0    2,,PR0
         1 000637   000000 474400 xsym               LDP4    F$CFU$
         1 000640   400002 236110                    LDQ     2,X0,PR4
         1 000641   000022 772000                    QRL     18
         1 000642   200033 756100                    STQ     ACCTX,,AUTO

     1144     2409    3             ACCT$=PINCRW(F$CFU$, ACCTX);

   2409  1 000643   000022 736000                    QLS     18
         1 000644   000000 036000 xsym               ADLQ    F$CFU$
         1 000645   200034 756100                    STQ     ACCT$,,AUTO

     1145     2410    3             F$DCB.ACCT=ACCT$->FM$CFUA.ACCT;

   2410  1 000646   200034 474500                    LDP4    ACCT$,,AUTO
         1 000647   040100 100500                    MLR     fill='040'O
         1 000650   400001 000010                    ADSC9   1,,PR4                   cn=0,n=8
         1 000651   300020 000010                    ADSC9   16,,PR3                  cn=0,n=8

     1146     2411    3             END;  /* REAL FILE */

     1147     2412
     1148     2413    2          BUFNO=1;

PL6.E3A0      #006=FMQ$RELSTARF File=FMQ$DIR.:E05TSI                             TUE 07/29/97 17:02 Page:227
   2413  1 000652   000001 235007                    LDA     1,DL
         1 000653   200024 755100                    STA     BUFNO,,AUTO

     1149     2414    2          CALL FMN$GETFIT(BUF$, BUFNO) ALTRET(ERR);

   2414  1 000654   200024 634500                    EPPR4   BUFNO,,AUTO
         1 000655   200045 454500                    STP4    I+2,,AUTO
         1 000656   200011 635500                    EPPR5   BUF$,,AUTO
         1 000657   200044 455500                    STP5    I+1,,AUTO
         1 000660   200044 630500                    EPPR0   I+1,,AUTO
         1 000661   000020 631400 xsym               EPPR1   B_VECTNIL+16
         1 000662   000000 701000 xent               TSX1    FMN$GETFIT
         1 000663   000754 702000 1                  TSX2    ERR

     1150     2415
     1151     2416    2          FKA_ALTKEYS_BFR.FPARAM=BUF$->FPARAM;

   2416  1 000664   200011 470500                    LDP0    BUF$,,AUTO
         1 000665   010000 220003                    LDX0    4096,DU
         1 000666   000000 471400 xsym               LDP1    B$PS1$
         1 000667   000140 100540                    MLR     fill='000'O
         1 000670   000000 000010                    ADSC9   0,,PR0                   cn=0,n=*X0
         1 000671   100006 000010                    ADSC9   6,,PR1                   cn=0,n=*X0

     1152     2417    2          FIT$=PINCRW(BUF$, SIZEW(FM$GRAN));

   2417  1 000672   200011 236100                    LDQ     BUF$,,AUTO
         1 000673   000005 036003                    ADLQ    5,DU
         1 000674   200021 756100                    STQ     FIT$,,AUTO

     1153     2418
     1154     2419    2          CODE$=FIT$;

   2419  1 000675   200025 756100                    STQ     CODE$,,AUTO

     1155     2420    2          CALL FMO$LOCCODP(CODE$, 1);

PL6.E3A0      #006=FMQ$RELSTARF File=FMQ$DIR.:E05TSI                             TUE 07/29/97 17:02 Page:228
   2420  1 000676   000000 236000 2                  LDQ     0
         1 000677   200045 756100                    STQ     I+2,,AUTO
         1 000700   200025 630500                    EPPR0   CODE$,,AUTO
         1 000701   200044 450500                    STP0    I+1,,AUTO
         1 000702   200044 630500                    EPPR0   I+1,,AUTO
         1 000703   000020 631400 xsym               EPPR1   B_VECTNIL+16
         1 000704   000000 701000 xent               TSX1    FMO$LOCCODP
         1 000705   000000 011000                    NOP     0

     1156     2421    2          F$DCB.HASH=CODE01.HASH;

   2421  1 000706   200025 470500                    LDP0    CODE$,,AUTO
         1 000707   200003 471500                    LDP1    JDCB$,,AUTO
         1 000710   000000 236100                    LDQ     0,,PR0
         1 000711   000011 736000                    QLS     9
         1 000712   100073 552170                    STBQ    59,'70'O,PR1

     1157     2422
     1158     2423    2          CODE$=FIT$;

   2423  1 000713   200021 236100                    LDQ     FIT$,,AUTO
         1 000714   200025 756100                    STQ     CODE$,,AUTO

     1159     2424    2          CALL FMO$LOCCODP(CODE$, 2);

   2424  1 000715   000010 236000 2                  LDQ     8
         1 000716   200045 756100                    STQ     I+2,,AUTO
         1 000717   200025 630500                    EPPR0   CODE$,,AUTO
         1 000720   200044 450500                    STP0    I+1,,AUTO
         1 000721   200044 630500                    EPPR0   I+1,,AUTO
         1 000722   000020 631400 xsym               EPPR1   B_VECTNIL+16
         1 000723   000000 701000 xent               TSX1    FMO$LOCCODP
         1 000724   000000 011000                    NOP     0

     1160     2425    2          F$DCB.SPARE=CODE02.SPARE;

   2425  1 000725   200025 470500                    LDP0    CODE$,,AUTO
PL6.E3A0      #006=FMQ$RELSTARF File=FMQ$DIR.:E05TSI                             TUE 07/29/97 17:02 Page:229
         1 000726   200003 471500                    LDP1    JDCB$,,AUTO
         1 000727   000000 236100                    LDQ     0,,PR0
         1 000730   000022 736000                    QLS     18
         1 000731   100040 552140                    STBQ    32,'40'O,PR1

     1161     2426
     1162     2427    2          CODE$=FIT$;

   2427  1 000732   200021 236100                    LDQ     FIT$,,AUTO
         1 000733   200025 756100                    STQ     CODE$,,AUTO

     1163     2428    2          CALL FMO$LOCCODP(CODE$, 3);

   2428  1 000734   000011 236000 2                  LDQ     9
         1 000735   200045 756100                    STQ     I+2,,AUTO
         1 000736   200025 630500                    EPPR0   CODE$,,AUTO
         1 000737   200044 450500                    STP0    I+1,,AUTO
         1 000740   200044 630500                    EPPR0   I+1,,AUTO
         1 000741   000020 631400 xsym               EPPR1   B_VECTNIL+16
         1 000742   000000 701000 xent               TSX1    FMO$LOCCODP
         1 000743   000000 011000                    NOP     0

     1164     2429    2          F$DCB.ORG=CODE03.ORG;

   2429  1 000744   200025 470500                    LDP0    CODE$,,AUTO
         1 000745   200003 471500                    LDP1    JDCB$,,AUTO
         1 000746   000000 236100                    LDQ     0,,PR0
         1 000747   100032 552140                    STBQ    26,'40'O,PR1

     1165     2430    2          F$DCB.XTNSIZE=CODE03.XTNSIZE;

   2430  1 000750   000005 220100                    LDX0    5,,PR0
         1 000751   100037 740100                    STX0    31,,PR1

     1166     2431    2          F$DCB.DESC=CODE03.DESC;

   2431  1 000752   000001 221100                    LDX1    1,,PR0
PL6.E3A0      #006=FMQ$RELSTARF File=FMQ$DIR.:E05TSI                             TUE 07/29/97 17:02 Page:230
         1 000753   100005 441100                    SXL1    5,,PR1

     1167     2432
     1168     2433    2   ERR:   RETURN;

   2433  1 000754   200040 221300       ERR          LDX1  ! ACCT$+4,,AUTO
         1 000755   000001 702211                    TSX2  ! 1,X1

     1169     2434    2          END OPEN;
     1170     2435               %EJECT;
PL6.E3A0      #006=FMQ$RELSTARF File=FMQ$DIR.:E05TSI                             TUE 07/29/97 17:02 Page:231
     1171     2436        /*I*     NAME:     CLOSE
     1172     2437                 PURPOSE:  To handle sleazy closes for ALTKEY
     1173     2438                 DESCRIPTION:
     1174     2439
     1175     2440                      We need to rebuild the upper levels for the alternate
     1176     2441                 indexes and update the FIT.  ALTKEY has some new information
     1177     2442                 for the DCB and ROSEG, so put that in place first.
     1178     2443
     1179     2444                      Next, rebuild the upper levels for just the alternate
     1180     2445                 keys.  Since we may have added extents to the file during
     1181     2446                 the build, there may be something in NGAVAL even though
     1182     2447                 FMO$MODFIT may have already thrown away extras before linking
     1183     2448                 to ALTKEY.  So, see if he wants to release NGAVAL. If so and
     1184     2449                 he's allowed to, do it.  Otherwise, give him an error.  Then
     1185     2450                 get the FIT and call the right routine to update it with the
     1186     2451                 new information.  Finally, write out the updated FIT.
     1187     2452        */
     1188     2453                 %EJECT;
PL6.E3A0      #006=FMQ$RELSTARF File=FMQ$DIR.:E05TSI                             TUE 07/29/97 17:02 Page:232
     1189     2454    1   CLOSE: PROC;

   2454  1 000756   200040 741300       CLOSE        STX1  ! ACCT$+4,,AUTO

     1190     2455        /* */
     1191     2456    2          FPARAM$=PINCRW(ADDR(FKA_ALTKEYS_BFR.FPARAM), SIZEW(FM$GRAN));

   2456  1 000757   000000 236000 xsym               LDQ     B$PS1$
         1 000760   000013 036003                    ADLQ    11,DU
         1 000761   200022 756100                    STQ     FPARAM$,,AUTO

     1192     2457    2          IF F$DCB.ORG = %INDEXED# THEN

   2457  1 000762   200003 470500                    LDP0    JDCB$,,AUTO
         1 000763   000032 236100                    LDQ     26,,PR0
         1 000764   777000 376003                    ANQ     -512,DU
         1 000765   006000 116003                    CMPQ    3072,DU
         1 000766   000772 601000 1                  TNZ     s:2460

     1193     2458    2             CALL INDEXED_SETUP ALTRET(ERR);

   2458  1 000767   001167 701000 1                  TSX1    INDEXED_SETUP
         1 000770   001126 702000 1                  TSX2    ERR
         1 000771   000774 710000 1                  TRA     s:2462

     1194     2459    2          ELSE
     1195     2460    2             CALL IREL_SETUP ALTRET(ERR);

   2460  1 000772   001255 701000 1                  TSX1    IREL_SETUP
         1 000773   001126 702000 1                  TSX2    ERR

     1196     2461
     1197     2462    2          IORG=F$DCB.IORG;

   2462  1 000774   200003 470500                    LDP0    JDCB$,,AUTO
         1 000775   000070 236100                    LDQ     56,,PR0
         1 000776   000033 772000                    QRL     27
PL6.E3A0      #006=FMQ$RELSTARF File=FMQ$DIR.:E05TSI                             TUE 07/29/97 17:02 Page:233
         1 000777   000077 376007                    ANQ     63,DL
         1 001000   200023 756100                    STQ     IORG,,AUTO

     1198     2463    2          F$DCB.IORG=%KEYED#;

   2463  1 001001   000070 236100                    LDQ     56,,PR0
         1 001002   000006 376000 2                  ANQ     6
         1 001003   002000 276003                    ORQ     1024,DU
         1 001004   000070 756100                    STQ     56,,PR0

     1199     2464    2          F$DCB.CFU$->FM$CFU.ULBLD=1;

   2464  1 001005   000066 471500                    LDP1    54,,PR0
         1 001006   000001 236003                    LDQ     1,DU
         1 001007   100006 256100                    ORSQ    6,,PR1

     1200     2465    2          CALL FMU$BLDALT;

   2465  1 001010   000002 631400 xsym               EPPR1   B_VECTNIL+2
         1 001011   000000 701000 xent               TSX1    FMU$BLDALT
         1 001012   000000 011000                    NOP     0

     1201     2466    2          F$DCB.CFU$->FM$CFU.FUN=MOD(F$DCB.CFU$->FM$CFU.FUN,4);

   2466  1 001013   200003 470500                    LDP0    JDCB$,,AUTO
         1 001014   000066 471500                    LDP1    54,,PR0
         1 001015   100000 236100                    LDQ     0,,PR1
         1 001016   000041 772000                    QRL     33
         1 001017   000003 376007                    ANQ     3,DL
         1 001020   000041 736000                    QLS     33
         1 001021   100000 676100                    ERQ     0,,PR1
         1 001022   700000 376003                    ANQ     -32768,DU
         1 001023   100000 656100                    ERSQ    0,,PR1

     1202     2467
     1203     2468    2          IF FKA_ALTKEYS_BFR.RELG AND F$DCB.CFU$->FM$CFU.NGAVAL~=0 THEN

PL6.E3A0      #006=FMQ$RELSTARF File=FMQ$DIR.:E05TSI                             TUE 07/29/97 17:02 Page:234
   2468  1 001024   000000 470400 xsym               LDP0    B$PS1$
         1 001025   000005 234100                    SZN     5,,PR0
         1 001026   001063 605000 1                  TPL     s:2484
         1 001027   200003 471500                    LDP1    JDCB$,,AUTO
         1 001030   100066 473500                    LDP3    54,,PR1
         1 001031   300007 236100                    LDQ     7,,PR3
         1 001032   000032 316000 xsym               CANQ    B_VECTNIL+26
         1 001033   001063 600000 1                  TZE     s:2484

     1204     2469    2             IF FKA_ALTKEYS_BFR.DELF THEN

   2469  1 001034   000005 236100                    LDQ     5,,PR0
         1 001035   200000 316003                    CANQ    65536,DU
         1 001036   001060 600000 1                  TZE     s:2477

     1205     2470    3                DO;  /* Release NGAVAL */

     1206     2471    3                BUFNO=1;

   2471  1 001037   000001 235007                    LDA     1,DL
         1 001040   200024 755100                    STA     BUFNO,,AUTO

     1207     2472    4                CALL FMO$RELG(BUFNO) WHENALTRETURN DO;

   2472  1 001041   200024 634500                    EPPR4   BUFNO,,AUTO
         1 001042   200044 454500                    STP4    I+1,,AUTO
         1 001043   200044 630500                    EPPR0   I+1,,AUTO
         1 001044   000017 631400 xsym               EPPR1   B_VECTNIL+15
         1 001045   000000 701000 xent               TSX1    FMO$RELG
         1 001046   001050 702000 1                  TSX2    s:2473
         1 001047   001057 710000 1                  TRA     s:2476

     1208     2473    4                   F$DCB.IORG=IORG;

   2473  1 001050   200003 470500                    LDP0    JDCB$,,AUTO
         1 001051   200023 236100                    LDQ     IORG,,AUTO
         1 001052   000033 736000                    QLS     27
PL6.E3A0      #006=FMQ$RELSTARF File=FMQ$DIR.:E05TSI                             TUE 07/29/97 17:02 Page:235
         1 001053   000070 676100                    ERQ     56,,PR0
         1 001054   077000 376003                    ANQ     32256,DU
         1 001055   000070 656100                    ERSQ    56,,PR0

     1209     2474    4                   GOTO ERR; /* Bad fit */

   2474  1 001056   001126 710000 1                  TRA     ERR

     1210     2475    4                   END;
     1211     2476    3                END; /* Release NGAVAL */

   2476  1 001057   001063 710000 1                  TRA     s:2484

     1212     2477    2             ELSE B$JIT.ERR=FMQ$E$CLSREL;

   2477  1 001060   000000 236000 0                  LDQ     FMQ$E$CLSREL
         1 001061   000000 474400 xsym               LDP4    B$JIT$
         1 001062   400012 756100                    STQ     10,,PR4

     1213     2478
     1214     2479               /*E* ERROR:    FMQ-E$CLSREL-E
     1215     2480                    MESSAGE:  You may not release NGAVAL% for %FN% since you
     1216     2481                              do not have DELF access
     1217     2482               */
     1218     2483
     1219     2484    2          F$DCB.IORG=IORG;

   2484  1 001063   200003 470500                    LDP0    JDCB$,,AUTO
         1 001064   200023 236100                    LDQ     IORG,,AUTO
         1 001065   000033 736000                    QLS     27
         1 001066   000070 676100                    ERQ     56,,PR0
         1 001067   077000 376003                    ANQ     32256,DU
         1 001070   000070 656100                    ERSQ    56,,PR0

     1220     2485    2          BUFNO=1;

   2485  1 001071   000001 235007                    LDA     1,DL
PL6.E3A0      #006=FMQ$RELSTARF File=FMQ$DIR.:E05TSI                             TUE 07/29/97 17:02 Page:236
         1 001072   200024 755100                    STA     BUFNO,,AUTO

     1221     2486    2          CALL FMN$GETFIT(BUF$, BUFNO) ALTRET(ERR);

   2486  1 001073   200024 631500                    EPPR1   BUFNO,,AUTO
         1 001074   200045 451500                    STP1    I+2,,AUTO
         1 001075   200011 633500                    EPPR3   BUF$,,AUTO
         1 001076   200044 453500                    STP3    I+1,,AUTO
         1 001077   200044 630500                    EPPR0   I+1,,AUTO
         1 001100   000020 631400 xsym               EPPR1   B_VECTNIL+16
         1 001101   000000 701000 xent               TSX1    FMN$GETFIT
         1 001102   001126 702000 1                  TSX2    ERR

     1222     2487    2          FIT$=PINCRW(BUF$, SIZEW(FM$GRAN));

   2487  1 001103   200011 236100                    LDQ     BUF$,,AUTO
         1 001104   000005 036003                    ADLQ    5,DU
         1 001105   200021 756100                    STQ     FIT$,,AUTO

     1223     2488
     1224     2489    2          IF F$DCB.ORG = %INDEXED# THEN

   2489  1 001106   200003 470500                    LDP0    JDCB$,,AUTO
         1 001107   000032 236100                    LDQ     26,,PR0
         1 001110   777000 376003                    ANQ     -512,DU
         1 001111   006000 116003                    CMPQ    3072,DU
         1 001112   001116 601000 1                  TNZ     s:2492

     1225     2490    2             CALL INDEXED_CLEANUP;

   2490  1 001113   001416 701000 1                  TSX1    INDEXED_CLEANUP
         1 001114   000000 011000                    NOP     0
         1 001115   001120 710000 1                  TRA     s:2494

     1226     2491    2          ELSE
     1227     2492    2             CALL IREL_CLEANUP;

PL6.E3A0      #006=FMQ$RELSTARF File=FMQ$DIR.:E05TSI                             TUE 07/29/97 17:02 Page:237
   2492  1 001116   001464 701000 1                  TSX1    IREL_CLEANUP
         1 001117   000000 011000                    NOP     0

     1228     2493
     1229     2494    2          CALL FMD$WRTBUF(BUFNO);

   2494  1 001120   200024 630500                    EPPR0   BUFNO,,AUTO
         1 001121   200044 450500                    STP0    I+1,,AUTO
         1 001122   200044 630500                    EPPR0   I+1,,AUTO
         1 001123   000017 631400 xsym               EPPR1   B_VECTNIL+15
         1 001124   000000 701000 xent               TSX1    FMD$WRTBUF
         1 001125   000000 011000                    NOP     0

     1230     2495    2   ERR:   RETURN;

   2495  1 001126   200040 221300       ERR          LDX1  ! ACCT$+4,,AUTO
         1 001127   000001 702211                    TSX2  ! 1,X1

     1231     2496    2          END CLOSE;
     1232     2497               %EJECT;
PL6.E3A0      #006=FMQ$RELSTARF File=FMQ$DIR.:E05TSI                             TUE 07/29/97 17:02 Page:238
     1233     2498        /*I*     NAME:     EXTEND
     1234     2499                 PURPOSE:  To get another granule for an altkey file
     1235     2500                 DESCRIPTION:
     1236     2501
     1237     2502                      Set the IORG to KEYED, so the CFU will get updated
     1238     2503                 correctly, then get a granule.  Tell ALTKEY what the
     1239     2504                 DA was.
     1240     2505        */
     1241     2506    1   EXTEND: PROC;

   2506  1 001130   200040 741300       EXTEND       STX1  ! ACCT$+4,,AUTO

     1242     2507        /* */
     1243     2508    2          IORG=F$DCB.IORG;

   2508  1 001131   200003 470500                    LDP0    JDCB$,,AUTO
         1 001132   000070 236100                    LDQ     56,,PR0
         1 001133   000033 772000                    QRL     27
         1 001134   000077 376007                    ANQ     63,DL
         1 001135   200023 756100                    STQ     IORG,,AUTO

     1244     2509    2          F$DCB.IORG=%KEYED#;

   2509  1 001136   000070 236100                    LDQ     56,,PR0
         1 001137   000006 376000 2                  ANQ     6
         1 001140   002000 276003                    ORQ     1024,DU
         1 001141   000070 756100                    STQ     56,,PR0

     1245     2510    2          CALL FAF$GETGRAN(DA) ALTRET(NONE);

   2510  1 001142   200005 631500                    EPPR1   DA,,AUTO
         1 001143   200044 451500                    STP1    I+1,,AUTO
         1 001144   200044 630500                    EPPR0   I+1,,AUTO
         1 001145   000017 631400 xsym               EPPR1   B_VECTNIL+15
         1 001146   000000 701000 xent               TSX1    FAF$GETGRAN
         1 001147   001163 702000 1                  TSX2    NONE

PL6.E3A0      #006=FMQ$RELSTARF File=FMQ$DIR.:E05TSI                             TUE 07/29/97 17:02 Page:239
     1246     2511    2          F$DCB.IORG=IORG;

   2511  1 001150   200003 470500                    LDP0    JDCB$,,AUTO
         1 001151   200023 236100                    LDQ     IORG,,AUTO
         1 001152   000033 736000                    QLS     27
         1 001153   000070 676100                    ERQ     56,,PR0
         1 001154   077000 376003                    ANQ     32256,DU
         1 001155   000070 656100                    ERSQ    56,,PR0

     1247     2512    2          FKA_ALTKEYS_BFR.DA=DA;

   2512  1 001156   200005 235100                    LDA     DA,,AUTO
         1 001157   000000 471400 xsym               LDP1    B$PS1$
         1 001160   100003 755100                    STA     3,,PR1

     1248     2513    2          RETURN;

   2513  1 001161   200040 221300                    LDX1  ! ACCT$+4,,AUTO
         1 001162   000001 702211                    TSX2  ! 1,X1

     1249     2514    2   NONE:  FKA_ALTKEYS_BFR.DA=0;

   2514  1 001163   000000 470400 xsym  NONE         LDP0    B$PS1$
         1 001164   000003 450100                    STZ     3,,PR0

     1250     2515    2          RETURN;

   2515  1 001165   200040 221300                    LDX1  ! ACCT$+4,,AUTO
         1 001166   000001 702211                    TSX2  ! 1,X1

     1251     2516    2          END EXTEND;
     1252     2517               %EJECT;
PL6.E3A0      #006=FMQ$RELSTARF File=FMQ$DIR.:E05TSI                             TUE 07/29/97 17:02 Page:240
     1253     2518        /*I*     NAME:     INDEXED_SETUP
     1254     2519                 PURPOSE:  To handle some set-up for indexed files
     1255     2520                 DESCRIPTION:
     1256     2521
     1257     2522                      Find the CODE08 from the FPARAM buffer passed
     1258     2523                 by ALTKEY.  Get some space in the ROSEG, and stuff
     1259     2524                 the information there.
     1260     2525        */
     1261     2526                 %EJECT;
PL6.E3A0      #006=FMQ$RELSTARF File=FMQ$DIR.:E05TSI                             TUE 07/29/97 17:02 Page:241
     1262     2527    1   INDEXED_SETUP: PROC ALTRET;

   2527  1 001167   200042 741300       INDEXED_SET* STX1  ! ACCT$+6,,AUTO

     1263     2528        /* */
     1264     2529    2          CODE$=FPARAM$;

   2529  1 001170   200022 236100                    LDQ     FPARAM$,,AUTO
         1 001171   200025 756100                    STQ     CODE$,,AUTO

     1265     2530    2          CALL FMO$LOCCODP(CODE$, 8);

   2530  1 001172   000012 236000 2                  LDQ     10
         1 001173   200045 756100                    STQ     I+2,,AUTO
         1 001174   200025 630500                    EPPR0   CODE$,,AUTO
         1 001175   200044 450500                    STP0    I+1,,AUTO
         1 001176   200044 630500                    EPPR0   I+1,,AUTO
         1 001177   000020 631400 xsym               EPPR1   B_VECTNIL+16
         1 001200   000000 701000 xent               TSX1    FMO$LOCCODP
         1 001201   000000 011000                    NOP     0

     1266     2531    2          N=CODE$->FITALTKEYS.NUMWRDS;

   2531  1 001202   200025 470500                    LDP0    CODE$,,AUTO
         1 001203   000000 236100                    LDQ     0,,PR0
         1 001204   000033 772000                    QRL     27
         1 001205   200026 756100                    STQ     N,,AUTO

     1267     2532    2          CALL FSA$GSP(N, ALTKEY$) ALTRET(ERR);

   2532  1 001206   200031 631500                    EPPR1   ALTKEY$,,AUTO
         1 001207   200045 451500                    STP1    I+2,,AUTO
         1 001210   200026 633500                    EPPR3   N,,AUTO
         1 001211   200044 453500                    STP3    I+1,,AUTO
         1 001212   200044 630500                    EPPR0   I+1,,AUTO
         1 001213   000020 631400 xsym               EPPR1   B_VECTNIL+16
         1 001214   000000 701000 xent               TSX1    FSA$GSP
PL6.E3A0      #006=FMQ$RELSTARF File=FMQ$DIR.:E05TSI                             TUE 07/29/97 17:02 Page:242
         1 001215   001253 702000 1                  TSX2    ERR

     1268     2533    2          F$DCB.ALTKEYX=POFFW(ALTKEY$, B$ROSEG$);

   2533  1 001216   000000 235000 xsym               LDA     B$ROSEG$
         1 001217   000022 771000                    ARL     18
         1 001220   200044 755100                    STA     I+1,,AUTO
         1 001221   200031 236100                    LDQ     ALTKEY$,,AUTO
         1 001222   000022 772000                    QRL     18
         1 001223   200044 136100                    SBLQ    I+1,,AUTO
         1 001224   000000 620006                    EAX0    0,QL
         1 001225   200003 470500                    LDP0    JDCB$,,AUTO
         1 001226   000052 440100                    SXL0    42,,PR0

     1269     2534    2          N=N*4;

   2534  1 001227   200026 236100                    LDQ     N,,AUTO
         1 001230   000002 736000                    QLS     2
         1 001231   200026 756100                    STQ     N,,AUTO

     1270     2535    2          ALTKEY$->MOVEN=CODE$->MOVEN;

   2535  1 001232   200025 471500                    LDP1    CODE$,,AUTO
         1 001233   000000 621006                    EAX1    0,QL
         1 001234   200031 473500                    LDP3    ALTKEY$,,AUTO
         1 001235   200026 722100                    LXL2    N,,AUTO
         1 001236   040140 100540                    MLR     fill='040'O
         1 001237   100000 000011                    ADSC9   0,,PR1                   cn=0,n=*X1
         1 001240   300000 000012                    ADSC9   0,,PR3                   cn=0,n=*X2

     1271     2536    2          F$DCB.CFU$->FM$CFU.ALTBLD=ALTKEY$->FITALTKEYS.ALTBLD;

   2536  1 001241   200003 470500                    LDP0    JDCB$,,AUTO
         1 001242   000066 471500                    LDP1    54,,PR0
         1 001243   200031 473500                    LDP3    ALTKEY$,,AUTO
         1 001244   300000 236100                    LDQ     0,,PR3
         1 001245   000006 772000                    QRL     6
PL6.E3A0      #006=FMQ$RELSTARF File=FMQ$DIR.:E05TSI                             TUE 07/29/97 17:02 Page:243
         1 001246   100006 676100                    ERQ     6,,PR1
         1 001247   000004 376003                    ANQ     4,DU
         1 001250   100006 656100                    ERSQ    6,,PR1

     1272     2537
     1273     2538    2          RETURN;

   2538  1 001251   200042 221300                    LDX1  ! ACCT$+6,,AUTO
         1 001252   000001 702211                    TSX2  ! 1,X1

     1274     2539    2   ERR:   ALTRETURN;

   2539  1 001253   200042 221300       ERR          LDX1  ! ACCT$+6,,AUTO
         1 001254   000000 702211                    TSX2  ! 0,X1

     1275     2540    2          END INDEXED_SETUP;
     1276     2541               %EJECT;
PL6.E3A0      #006=FMQ$RELSTARF File=FMQ$DIR.:E05TSI                             TUE 07/29/97 17:02 Page:244
     1277     2542        /*I*     NAME:     IREL_SETUP
     1278     2543                 PURPOSE:  To handle the set-up for IREL files
     1279     2544                 DESCRIPTION:
     1280     2545
     1281     2546                      Find the information from the buffer passed
     1282     2547                 by ALTKEY.  Selectively move the information from
     1283     2548                 the buffer to the ROSEG.
     1284     2549        */
     1285     2550                 %EJECT;
PL6.E3A0      #006=FMQ$RELSTARF File=FMQ$DIR.:E05TSI                             TUE 07/29/97 17:02 Page:245
     1286     2551    1   IREL_SETUP: PROC ALTRET;

   2551  1 001255   200042 741300       IREL_SETUP   STX1  ! ACCT$+6,,AUTO

     1287     2552        /* */
     1288     2553    2          CODE19$=FPARAM$;

   2553  1 001256   200022 236100                    LDQ     FPARAM$,,AUTO
         1 001257   200027 756100                    STQ     CODE19$,,AUTO

     1289     2554    2          CALL FMO$LOCCODP(CODE19$, 19);

   2554  1 001260   000014 236000 2                  LDQ     12
         1 001261   200045 756100                    STQ     I+2,,AUTO
         1 001262   200027 630500                    EPPR0   CODE19$,,AUTO
         1 001263   200044 450500                    STP0    I+1,,AUTO
         1 001264   200044 630500                    EPPR0   I+1,,AUTO
         1 001265   000020 631400 xsym               EPPR1   B_VECTNIL+16
         1 001266   000000 701000 xent               TSX1    FMO$LOCCODP
         1 001267   000000 011000                    NOP     0

     1290     2555    2          CALL FMG$IRSETUP(CODE19) ALTRET(ERR);

   2555  1 001270   200027 630500                    EPPR0   CODE19$,,AUTO
         1 001271   000017 631400 xsym               EPPR1   B_VECTNIL+15
         1 001272   000000 701000 xent               TSX1    FMG$IRSETUP
         1 001273   001414 702000 1                  TSX2    ERR

     1291     2556
     1292     2557    2          CODE20$=FPARAM$;

   2557  1 001274   200022 236100                    LDQ     FPARAM$,,AUTO
         1 001275   200030 756100                    STQ     CODE20$,,AUTO

     1293     2558    2          CALL FMO$LOCCODP(CODE20$, 20);

   2558  1 001276   000016 236000 2                  LDQ     14
PL6.E3A0      #006=FMQ$RELSTARF File=FMQ$DIR.:E05TSI                             TUE 07/29/97 17:02 Page:246
         1 001277   200045 756100                    STQ     I+2,,AUTO
         1 001300   200030 630500                    EPPR0   CODE20$,,AUTO
         1 001301   200044 450500                    STP0    I+1,,AUTO
         1 001302   200044 630500                    EPPR0   I+1,,AUTO
         1 001303   000020 631400 xsym               EPPR1   B_VECTNIL+16
         1 001304   000000 701000 xent               TSX1    FMO$LOCCODP
         1 001305   000000 011000                    NOP     0

     1294     2559    2          F$DCB.CFU$->FM$CFU.ALTBLD=CODE20.ALTBLD;

   2559  1 001306   200003 470500                    LDP0    JDCB$,,AUTO
         1 001307   000066 471500                    LDP1    54,,PR0
         1 001310   200030 473500                    LDP3    CODE20$,,AUTO
         1 001311   300001 236100                    LDQ     1,,PR3
         1 001312   000017 772000                    QRL     15
         1 001313   100006 676100                    ERQ     6,,PR1
         1 001314   000004 376003                    ANQ     4,DU
         1 001315   100006 656100                    ERSQ    6,,PR1

     1295     2560
     1296     2561    2          ALTKEY$=PINCRW(B$ROSEG$, F$DCB.ALTKEYX);

   2561  1 001316   000052 720100                    LXL0    42,,PR0
         1 001317   000000 636010                    EAQ     0,X0
         1 001320   000000 036000 xsym               ADLQ    B$ROSEG$
         1 001321   200031 756100                    STQ     ALTKEY$,,AUTO

     1297     2562
     1298     2563    3          DO I=0 TO CODE20.NKEYS-1;

   2563  1 001322   200006 450100                    STZ     I,,AUTO
         1 001323   001405 710000 1                  TRA     s:2568+1

     1299     2564    3             IRKEYS.K.TDALVL(I)=CODE20.K.TDALVL(I);

   2564  1 001324   200006 236100                    LDQ     I,,AUTO
         1 001325   000007 402007                    MPY     7,DL
PL6.E3A0      #006=FMQ$RELSTARF File=FMQ$DIR.:E05TSI                             TUE 07/29/97 17:02 Page:247
         1 001326   000000 620006                    EAX0    0,QL
         1 001327   200006 236100                    LDQ     I,,AUTO
         1 001330   000003 402007                    MPY     3,DL
         1 001331   200030 470500                    LDP0    CODE20$,,AUTO
         1 001332   200031 471500                    LDP1    ALTKEY$,,AUTO
         1 001333   000002 236106                    LDQ     2,QL,PR0
         1 001334   100003 676110                    ERQ     3,X0,PR1
         1 001335   777000 376003                    ANQ     -512,DU
         1 001336   100003 656110                    ERSQ    3,X0,PR1

     1300     2565    3             IRKEYS.K.TDA(I)=CODE20.K.TDA(I);

   2565  1 001337   200006 236100                    LDQ     I,,AUTO
         1 001340   000007 402007                    MPY     7,DL
         1 001341   000000 620006                    EAX0    0,QL
         1 001342   200006 236100                    LDQ     I,,AUTO
         1 001343   000003 402007                    MPY     3,DL
         1 001344   200030 470500                    LDP0    CODE20$,,AUTO
         1 001345   200031 471500                    LDP1    ALTKEY$,,AUTO
         1 001346   000002 236106                    LDQ     2,QL,PR0
         1 001347   100003 676110                    ERQ     3,X0,PR1
         1 001350   000032 376000 xsym               ANQ     B_VECTNIL+26
         1 001351   100003 656110                    ERSQ    3,X0,PR1

     1301     2566    3             IRKEYS.K.FDA(I)=CODE20.K.FDA(I);

   2566  1 001352   200006 236100                    LDQ     I,,AUTO
         1 001353   000007 402007                    MPY     7,DL
         1 001354   000000 620006                    EAX0    0,QL
         1 001355   200006 236100                    LDQ     I,,AUTO
         1 001356   000003 402007                    MPY     3,DL
         1 001357   200030 470500                    LDP0    CODE20$,,AUTO
         1 001360   200031 471500                    LDP1    ALTKEY$,,AUTO
         1 001361   000003 236106                    LDQ     3,QL,PR0
         1 001362   000011 772000                    QRL     9
         1 001363   100007 676110                    ERQ     7,X0,PR1
         1 001364   000032 376000 xsym               ANQ     B_VECTNIL+26
PL6.E3A0      #006=FMQ$RELSTARF File=FMQ$DIR.:E05TSI                             TUE 07/29/97 17:02 Page:248
         1 001365   100007 656110                    ERSQ    7,X0,PR1

     1302     2567    3             IRKEYS.K.LDA(I)=CODE20.K.LDA(I);

   2567  1 001366   200006 236100                    LDQ     I,,AUTO
         1 001367   000007 402007                    MPY     7,DL
         1 001370   000000 620006                    EAX0    0,QL
         1 001371   200006 236100                    LDQ     I,,AUTO
         1 001372   000003 402007                    MPY     3,DL
         1 001373   200030 470500                    LDP0    CODE20$,,AUTO
         1 001374   200031 471500                    LDP1    ALTKEY$,,AUTO
         1 001375   000003 235106                    LDA     3,QL,PR0
         1 001376   000004 236106                    LDQ     4,QL,PR0
         1 001377   000022 773000                    LRL     18
         1 001400   000032 376000 xsym               ANQ     B_VECTNIL+26
         1 001401   100011 676110                    ERQ     9,X0,PR1
         1 001402   000032 376000 xsym               ANQ     B_VECTNIL+26
         1 001403   100011 656110                    ERSQ    9,X0,PR1

     1303     2568    3          END;  /* DO I */

   2568  1 001404   200006 054100                    AOS     I,,AUTO
         1 001405   200030 470500                    LDP0    CODE20$,,AUTO
         1 001406   200006 236100                    LDQ     I,,AUTO
         1 001407   001324 604000 1                  TMI     s:2564
         1 001410   000000 116100                    CMPQ    0,,PR0
         1 001411   001324 602000 1                  TNC     s:2564

     1304     2569
     1305     2570    2          RETURN;

   2570  1 001412   200042 221300                    LDX1  ! ACCT$+6,,AUTO
         1 001413   000001 702211                    TSX2  ! 1,X1

     1306     2571    2   ERR:   ALTRETURN;

   2571  1 001414   200042 221300       ERR          LDX1  ! ACCT$+6,,AUTO
PL6.E3A0      #006=FMQ$RELSTARF File=FMQ$DIR.:E05TSI                             TUE 07/29/97 17:02 Page:249
         1 001415   000000 702211                    TSX2  ! 0,X1

     1307     2572    2          END IREL_SETUP;
     1308     2573               %EJECT;
PL6.E3A0      #006=FMQ$RELSTARF File=FMQ$DIR.:E05TSI                             TUE 07/29/97 17:02 Page:250
     1309     2574        /*I*     NAME:     INDEXED_CLEANUP
     1310     2575                 PURPOSE:  To handle clean-up for Indexed files
     1311     2576                 DESCRIPTION:
     1312     2577
     1313     2578                      Move the information from the ROSEG to the
     1314     2579                 fit buffer, then release the ROSEG space we
     1315     2580                 obtained.
     1316     2581        */
     1317     2582    1   INDEXED_CLEANUP: PROC;

   2582  1 001416   200042 741300       INDEXED_CLE* STX1  ! ACCT$+6,,AUTO

     1318     2583        /* */
     1319     2584    2          CODE$=FIT$;

   2584  1 001417   200021 236100                    LDQ     FIT$,,AUTO
         1 001420   200025 756100                    STQ     CODE$,,AUTO

     1320     2585    2          CALL FMO$LOCCODP(CODE$, 8);

   2585  1 001421   000012 236000 2                  LDQ     10
         1 001422   200045 756100                    STQ     I+2,,AUTO
         1 001423   200025 630500                    EPPR0   CODE$,,AUTO
         1 001424   200044 450500                    STP0    I+1,,AUTO
         1 001425   200044 630500                    EPPR0   I+1,,AUTO
         1 001426   000020 631400 xsym               EPPR1   B_VECTNIL+16
         1 001427   000000 701000 xent               TSX1    FMO$LOCCODP
         1 001430   000000 011000                    NOP     0

     1321     2586
     1322     2587    2          N=CODE$->FITALTKEYS.NUMWRDS*4;

   2587  1 001431   200025 470500                    LDP0    CODE$,,AUTO
         1 001432   000000 236100                    LDQ     0,,PR0
         1 001433   000031 772000                    QRL     25
         1 001434   003774 376007                    ANQ     2044,DL
         1 001435   200026 756100                    STQ     N,,AUTO
PL6.E3A0      #006=FMQ$RELSTARF File=FMQ$DIR.:E05TSI                             TUE 07/29/97 17:02 Page:251

     1323     2588    2          CODE$->MOVEN=ALTKEY$->MOVEN;

   2588  1 001436   200031 471500                    LDP1    ALTKEY$,,AUTO
         1 001437   000000 620006                    EAX0    0,QL
         1 001440   200026 721100                    LXL1    N,,AUTO
         1 001441   040140 100540                    MLR     fill='040'O
         1 001442   100000 000010                    ADSC9   0,,PR1                   cn=0,n=*X0
         1 001443   000000 000011                    ADSC9   0,,PR0                   cn=0,n=*X1

     1324     2589
     1325     2590    2          N=N/4;

   2590  1 001444   200026 236100                    LDQ     N,,AUTO
         1 001445   000004 506007                    DIV     4,DL
         1 001446   200026 756100                    STQ     N,,AUTO

     1326     2591    2          CALL FSA$FSP(N, ALTKEY$);

   2591  1 001447   200031 630500                    EPPR0   ALTKEY$,,AUTO
         1 001450   200045 450500                    STP0    I+2,,AUTO
         1 001451   200026 631500                    EPPR1   N,,AUTO
         1 001452   200044 451500                    STP1    I+1,,AUTO
         1 001453   200044 630500                    EPPR0   I+1,,AUTO
         1 001454   000020 631400 xsym               EPPR1   B_VECTNIL+16
         1 001455   000000 701000 xent               TSX1    FSA$FSP
         1 001456   000000 011000                    NOP     0

     1327     2592    2          F$DCB.ALTKEYX=0;

   2592  1 001457   000000 220003                    LDX0    0,DU
         1 001460   200003 470500                    LDP0    JDCB$,,AUTO
         1 001461   000052 440100                    SXL0    42,,PR0

     1328     2593
     1329     2594    2          RETURN;

PL6.E3A0      #006=FMQ$RELSTARF File=FMQ$DIR.:E05TSI                             TUE 07/29/97 17:02 Page:252
   2594  1 001462   200042 221300                    LDX1  ! ACCT$+6,,AUTO
         1 001463   000001 702211                    TSX2  ! 1,X1

     1330     2595    2          END INDEXED_CLEANUP;
     1331     2596               %EJECT;
PL6.E3A0      #006=FMQ$RELSTARF File=FMQ$DIR.:E05TSI                             TUE 07/29/97 17:02 Page:253
     1332     2597        /*I*     NAME:     IREL_CLEANUP
     1333     2598                 PURPOSE:  To handle clean-up for IREL files.
     1334     2599                 DESCRIPTION:
     1335     2600
     1336     2601                      Find the CODE19 blocks from the FIT, and
     1337     2602                 the buffer passed by ALTKEY.  Since duplicates
     1338     2603                 may have been found by ALTKEY, we may have to
     1339     2604                 reset some UNIQUE bits.
     1340     2605
     1341     2606                      Next, set ALTBLD, and the other information
     1342     2607                 for the alternate indexes that may have changed.
     1343     2608        */
     1344     2609                 %EJECT;
PL6.E3A0      #006=FMQ$RELSTARF File=FMQ$DIR.:E05TSI                             TUE 07/29/97 17:02 Page:254
     1345     2610    1   IREL_CLEANUP: PROC;

   2610  1 001464   200042 741300       IREL_CLEANUP STX1  ! ACCT$+6,,AUTO

     1346     2611    2          DCL I SBIN;
     1347     2612        /* */
     1348     2613    2          CODE19$=FIT$;

   2613  1 001465   200021 236100                    LDQ     FIT$,,AUTO
         1 001466   200027 756100                    STQ     CODE19$,,AUTO

     1349     2614    2          CALL FMO$LOCCODP(CODE19$, 19);

   2614  1 001467   000014 236000 2                  LDQ     12
         1 001470   200045 756100                    STQ     I+2,,AUTO
         1 001471   200027 630500                    EPPR0   CODE19$,,AUTO
         1 001472   200044 450500                    STP0    I+1,,AUTO
         1 001473   200044 630500                    EPPR0   I+1,,AUTO
         1 001474   000020 631400 xsym               EPPR1   B_VECTNIL+16
         1 001475   000000 701000 xent               TSX1    FMO$LOCCODP
         1 001476   000000 011000                    NOP     0

     1350     2615
     1351     2616    2          NEWCODE$=FPARAM$;

   2616  1 001477   200022 236100                    LDQ     FPARAM$,,AUTO
         1 001500   200032 756100                    STQ     NEWCODE$,,AUTO

     1352     2617    2          CALL FMO$LOCCODP(NEWCODE$, 19);

   2617  1 001501   000014 236000 2                  LDQ     12
         1 001502   200045 756100                    STQ     I+2,,AUTO
         1 001503   200032 630500                    EPPR0   NEWCODE$,,AUTO
         1 001504   200044 450500                    STP0    I+1,,AUTO
         1 001505   200044 630500                    EPPR0   I+1,,AUTO
         1 001506   000020 631400 xsym               EPPR1   B_VECTNIL+16
         1 001507   000000 701000 xent               TSX1    FMO$LOCCODP
PL6.E3A0      #006=FMQ$RELSTARF File=FMQ$DIR.:E05TSI                             TUE 07/29/97 17:02 Page:255
         1 001510   000000 011000                    NOP     0

     1353     2618
     1354     2619    2          N=0;

   2619  1 001511   200026 450100                    STZ     N,,AUTO

     1355     2620    2          I=0;

   2620  1 001512   200043 450100                    STZ     I,,AUTO

     1356     2621    3          DO UNTIL(N >= CODE19.NKEYS);

     1357     2622    3             CODE19.K.UNIQUE(I)=NEWCODE$->CODE19.K.UNIQUE(I);

   2622  1 001513   200043 236100                    LDQ     I,,AUTO
         1 001514   000022 402007                    MPY     18,DL
         1 001515   000000 116003                    CMPQ    0,DU
         1 001516   001520 605000 1                  TPL     s:2622+5
         1 001517   000044 036003                    ADLQ    36,DU
         1 001520   200044 756100                    STQ     I+1,,AUTO
         1 001521   200043 236100                    LDQ     I,,AUTO
         1 001522   000022 402007                    MPY     18,DL
         1 001523   000000 116003                    CMPQ    0,DU
         1 001524   001526 605000 1                  TPL     s:2622+11
         1 001525   000044 036003                    ADLQ    36,DU
         1 001526   200032 470500                    LDP0    NEWCODE$,,AUTO
         1 001527   200044 235100                    LDA     I+1,,AUTO
         1 001530   200027 471500                    LDP1    CODE19$,,AUTO
         1 001531   003106 060505                    CSL     bolr='003'O
         1 001532   000001 010001                    BDSC    1,A,PR0                  by=0,bit=1,n=1
         1 001533   100001 010001                    BDSC    1,Q,PR1                  by=0,bit=1,n=1

     1358     2623    3             IF CODE19.K.KEYEND(I) THEN

   2623  1 001534   200043 236100                    LDQ     I,,AUTO
         1 001535   000022 402007                    MPY     18,DL
PL6.E3A0      #006=FMQ$RELSTARF File=FMQ$DIR.:E05TSI                             TUE 07/29/97 17:02 Page:256
         1 001536   000000 116003                    CMPQ    0,DU
         1 001537   001541 605000 1                  TPL     s:2623+5
         1 001540   000044 036003                    ADLQ    36,DU
         1 001541   200027 470500                    LDP0    CODE19$,,AUTO
         1 001542   000000 066506                    CMPB    filb='0'B
         1 001543   000001 000001                    BDSC    1,Q,PR0                  by=0,bit=0,n=1
         1 001544   000002 000022 xsym               BDSC    B_VECTNIL+2              by=0,bit=0,n=18
         1 001545   001547 600000 1                  TZE     s:2625

     1359     2624    3                N=N+1;

   2624  1 001546   200026 054100                    AOS     N,,AUTO

     1360     2625    3             I=I+1;

   2625  1 001547   200043 054100                    AOS     I,,AUTO

     1361     2626    3          END;  /* UNTIL */

   2626  1 001550   200026 236100                    LDQ     N,,AUTO
         1 001551   001513 604000 1                  TMI     s:2622
         1 001552   000000 116100                    CMPQ    0,,PR0
         1 001553   001513 602000 1                  TNC     s:2622

     1362     2627
     1363     2628    2          CODE20$=FIT$;

   2628  1 001554   200021 236100                    LDQ     FIT$,,AUTO
         1 001555   200030 756100                    STQ     CODE20$,,AUTO

     1364     2629    2          CALL FMO$LOCCODP(CODE20$, 20);

   2629  1 001556   000016 236000 2                  LDQ     14
         1 001557   200045 756100                    STQ     I+2,,AUTO
         1 001560   200030 631500                    EPPR1   CODE20$,,AUTO
         1 001561   200044 451500                    STP1    I+1,,AUTO
         1 001562   200044 630500                    EPPR0   I+1,,AUTO
PL6.E3A0      #006=FMQ$RELSTARF File=FMQ$DIR.:E05TSI                             TUE 07/29/97 17:02 Page:257
         1 001563   000020 631400 xsym               EPPR1   B_VECTNIL+16
         1 001564   000000 701000 xent               TSX1    FMO$LOCCODP
         1 001565   000000 011000                    NOP     0

     1365     2630    2          CODE20.ALTBLD=IRKEYS.ALTBLD;

   2630  1 001566   200030 470500                    LDP0    CODE20$,,AUTO
         1 001567   200031 471500                    LDP1    ALTKEY$,,AUTO
         1 001570   100002 236100                    LDQ     2,,PR1
         1 001571   000001 676100                    ERQ     1,,PR0
         1 001572   400000 376003                    ANQ     -131072,DU
         1 001573   000001 656100                    ERSQ    1,,PR0

     1366     2631
     1367     2632    3          DO I=0 TO IRKEYS.NKEYS-1;

   2632  1 001574   200043 450100                    STZ     I,,AUTO
         1 001575   001645 710000 1                  TRA     s:2637+1

     1368     2633    3             CODE20.K.TDALVL(I)=IRKEYS.K.TDALVL(I);

   2633  1 001576   200043 236100                    LDQ     I,,AUTO
         1 001577   000003 402007                    MPY     3,DL
         1 001600   000000 620006                    EAX0    0,QL
         1 001601   200043 236100                    LDQ     I,,AUTO
         1 001602   000007 402007                    MPY     7,DL
         1 001603   200031 470500                    LDP0    ALTKEY$,,AUTO
         1 001604   200030 471500                    LDP1    CODE20$,,AUTO
         1 001605   000003 236106                    LDQ     3,QL,PR0
         1 001606   100002 676110                    ERQ     2,X0,PR1
         1 001607   777000 376003                    ANQ     -512,DU
         1 001610   100002 656110                    ERSQ    2,X0,PR1

     1369     2634    3             CODE20.K.TDA(I)=IRKEYS.K.TDA(I);

   2634  1 001611   200043 236100                    LDQ     I,,AUTO
         1 001612   000007 402007                    MPY     7,DL
PL6.E3A0      #006=FMQ$RELSTARF File=FMQ$DIR.:E05TSI                             TUE 07/29/97 17:02 Page:258
         1 001613   200031 470500                    LDP0    ALTKEY$,,AUTO
         1 001614   200030 471500                    LDP1    CODE20$,,AUTO
         1 001615   000003 236106                    LDQ     3,QL,PR0
         1 001616   100002 676110                    ERQ     2,X0,PR1
         1 001617   000032 376000 xsym               ANQ     B_VECTNIL+26
         1 001620   100002 656110                    ERSQ    2,X0,PR1

     1370     2635    3             CODE20.K.FDA(I)=IRKEYS.K.FDA(I);

   2635  1 001621   200043 236100                    LDQ     I,,AUTO
         1 001622   000007 402007                    MPY     7,DL
         1 001623   200031 470500                    LDP0    ALTKEY$,,AUTO
         1 001624   200030 471500                    LDP1    CODE20$,,AUTO
         1 001625   000007 236106                    LDQ     7,QL,PR0
         1 001626   000011 736000                    QLS     9
         1 001627   100003 676110                    ERQ     3,X0,PR1
         1 001630   000017 376000 2                  ANQ     15
         1 001631   100003 656110                    ERSQ    3,X0,PR1

     1371     2636    3             CODE20.K.LDA(I)=IRKEYS.K.LDA(I);

   2636  1 001632   200043 236100                    LDQ     I,,AUTO
         1 001633   000007 402007                    MPY     7,DL
         1 001634   200031 470500                    LDP0    ALTKEY$,,AUTO
         1 001635   200030 471500                    LDP1    CODE20$,,AUTO
         1 001636   000002 736000                    QLS     2
         1 001637   000000 635010                    EAA     0,X0
         1 001640   000020 731000                    ARS     16
         1 001641   000105 100506                    MLR     fill='000'O
         1 001642   000011 200003                    ADSC9   9,Q,PR0                  cn=1,n=3
         1 001643   100003 600003                    ADSC9   3,A,PR1                  cn=3,n=3

     1372     2637    3          END;  /* DO I */

   2637  1 001644   200043 054100                    AOS     I,,AUTO
         1 001645   200031 470500                    LDP0    ALTKEY$,,AUTO
         1 001646   000000 236100                    LDQ     0,,PR0
PL6.E3A0      #006=FMQ$RELSTARF File=FMQ$DIR.:E05TSI                             TUE 07/29/97 17:02 Page:259
         1 001647   000032 376000 xsym               ANQ     B_VECTNIL+26
         1 001650   200043 116100                    CMPQ    I,,AUTO
         1 001651   001576 605400 1                  TPNZ    s:2633

     1373     2638
     1374     2639    2          RETURN;

   2639  1 001652   200042 221300                    LDX1  ! ACCT$+6,,AUTO
         1 001653   000001 702211                    TSX2  ! 1,X1

FMQ$E$CLSREL
 Sect OctLoc
   0     000   061521 002332                                                    1...

(unnamed)
 Sect OctLoc
   0     001   101114 124113   105131 040040   072123 131123                    ALTKEY  :SYS

(unnamed)
 Sect OctLoc
   2     000   000003 006000   000002 006000   000000 006003   052040 040040    ............*
   2     004   777777 767777   743777 777777   700777 777777   777377 777777    ................
   2     010   000004 006000   000005 006000   000012 006000   000000 000023    ................
   2     014   000013 006000   000000 000024   000015 006000   777777 777000    ................
     1375     2640    2          END IREL_CLEANUP;
     1376     2641    1          END FMQ$RELSTARF;

PL6.E3A0      #006=FMQ$RELSTARF File=FMQ$DIR.:E05TSI                             TUE 07/29/97 17:02 Page:260
--  Include file information  --

   F_ERRORS_C.:E05TOU  is referenced.
   FM_FIELD_C.:E05TOU  is referenced.
   JG_GHOSTS_C.:E05TOU  is referenced.
   FK_DATA_C.:E05TOU  is referenced.
   F_FMTCODE_C.:E05TOU  is referenced.
   FM$MACROS.:E05TOU  is referenced.
   CP_6_SUBS.:E05TOU  is referenced.
   F$DCB.:E05TOU  is referenced.
   B$JIT_C.:E05TOU  is referenced.
   F$JIT_C.:E05TOU  cannot be made into a system file and is referenced.
   B$ROSEG.:E05TOU  cannot be made into a system file and is referenced.
      No diagnostics issued in procedure FMQ$RELSTARF.
PL6.E3A0      #006=FMQ$RELSTARF File=FMQ$DIR.:E05TSI                             TUE 07/29/97 17:02 Page:261

 **** Variables and constants ****

  ****  Section 000 RoData FMQ$RELSTARF

  ****  Scalars and arrays  ****
OctLoc.c.b A Datatyp(siz) R M Lvl/name                 OctLoc.c.b A Datatyp(siz) R M Lvl/name

     0-0-0/b STRC        r     1 FMQ$E$CLSREL

  ****  Auto variables  ****

  ****  Scalars and arrays  ****
OctLoc.c.b A Datatyp(siz) R M Lvl/name                 OctLoc.c.b A Datatyp(siz) R M Lvl/name

    34-0-0/w PTR         r     1 ACCT$                     33-0-0/w UBIN        r     1 ACCTX
    16-0-0/b BIT         r     1 ALLFILES                  31-0-0/w PTR         r     1 ALTKEY$
    17-0-0/b BIT         r     1 BFR                       20-0-0/b BIT         r     1 BFR1
    11-0-0/w PTR         r     1 BUF$                      24-0-0/w SBIN        r     1 BUFNO
    15-0-0/w PTR         r     1 CFU$                      25-0-0/w PTR         r     1 CODE$
    27-0-0/w PTR         r     1 CODE19$                   30-0-0/w PTR         r     1 CODE20$
     5-0-0/w SBIN        r     1 DA                        10-0-0/w STRC        r     1 EXTNT
    21-0-0/w PTR         r     1 FIT$                      10-0-0/w SBIN        r     1 FITDA
    22-0-0/w PTR         r     1 FPARAM$                    6-0-0/w SBIN        r     1 I
    43-0-0/w SBIN        r     1 I                         23-0-0/w UBIN        r     1 IORG
     3-0-0/w PTR         r     1 JDCB$                     13-0-0/w PTR         r     1 KEY$
     7-0-0/w SBIN        r     1 LCDA                      26-0-0/w SBIN        r     1 N
    14-0-0/w PTR         r     1 NAME$                     32-0-0/w PTR         r     1 NEWCODE$
    12-0-0/w PTR         r     1 SEG$                       4-0-0/w PTR         r     1 UJIT$

  ****  SYMREF variables  ****

  ****  Scalars and arrays  ****
OctLoc.c.b A Datatyp(siz) R M Lvl/name                 OctLoc.c.b A Datatyp(siz) R M Lvl/name

     0-0-0/w PTR         r     1 B$JIT$                     0-0-0/w PTR         r     1 B$PS0$
     0-0-0/w PTR         r     1 B$PS1$                     0-0-0/w PTR         r     1 B$ROSEG$
     0-0-0/w PTR         r     1 F$CFU$
PL6.E3A0      #006=FMQ$RELSTARF File=FMQ$DIR.:E05TSI                             TUE 07/29/97 17:02 Page:262
     0-0-0/c CHAR        r     1 FM_STARCHARS(0:0)
     0-0-0/w UBIN        r     1 FM_SYSSETX                 0-0-0/w UBIN        r     1 S_CUN

  ****  BASED and DCB variables  ****

  ****  Scalars and arrays  ****
OctLoc.c.b A Datatyp(siz) R M Lvl/name                 OctLoc.c.b A Datatyp(siz) R M Lvl/name

     0-0-0/d STRC(8856)  r     1 B$JIT
     0-0-0/w PTR         r     1 B$RODCB$(0:0)
     0-0-0/d STRC(3024)  r     1 B$ROSEG                    0-0-0/w STRC(576)   r     1 CODE01
     0-0-0/w STRC(135)   r     1 CODE02                     0-0-0/w STRC(324)   r     1 CODE03
     0-0-0/w STRC(54)    r     1 CODE19                     0-0-0/w STRC(180)   r     1 CODE20
     0-0-0/d ASTR(3528)  r     1 F$DCB                      0-0-0/w STRC(4572)  r     1 FITALTKEYS
     0-0-0/d STRC(37080) r     1 FKA_ALTKEYS_BFR            0-0-0/w STRC(288)   r     1 FM$CFU
     0-0-0/w STRC(288)   r     1 FM$CFUA                    0-0-0/c ASTR(27)    r     1 FM$CFUN
     0-0-0/w STRC(288)   r     1 FM$CFUX                    0-0-0/w STRC        r     1 FM$FDSEG
     0-0-0/w STRC(180)   r     1 FM$GRAN                    0-0-0/w ASTR(9)     r     1 FM$KEYENT
     0-0-0/w UBIN        r     1 FPARAM(0:1023)             0-0-0/w STRC(360)   r     1 IRKEYS
     0-0-0/c ACHR        r     1 MOVEN


   Procedure FMQ$RELSTARF requires 940 words for executable code.
   Procedure FMQ$RELSTARF requires 42 words of local(AUTO) storage.

    No errors detected in file FMQ$DIR.:E05TSI    .
PL6.E3A0      #006=FMQ$RELSTARF File=FMQ$DIR.:E05TSI                             TUE 07/29/97 17:02 Page:263
          *** CROSS REFERENCE LISTING ***
**     DENOTES     IDENTIFIER DEFINITION
<<                 IDENTIFIER'S VALUE SET
>>                 IDENTIFIER'S VALUE USED
<>                 IDENTIFIER SET AND/OR USED
--                 IDENTIFIER REFERENCED
PL6.E3A0      #006=FMQ$RELSTARF File=FMQ$DIR.:E05TSI                             TUE 07/29/97 17:02 Page:264
          MINI XREF LISTING

ACCT$
      2174**DCL      2409<<ASSIGN   2410>>ASSIGN
ACCTX
      2173**DCL      2406<<ASSIGN   2407>>IF       2408<<ASSIGN   2409>>ASSIGN
ALLFILES
      2160**DCL      2180<<ASSIGN   2202<<ASSIGN   2208<<ASSIGN   2259>>IF
ALTKEY$
      2171**DCL      2027--IMP-PTR  2532<>CALL     2533>>ASSIGN   2535>>ASSIGN   2536>>ASSIGN   2561<<ASSIGN
      2564>>ASSIGN   2565>>ASSIGN   2566>>ASSIGN   2567>>ASSIGN   2588>>ASSIGN   2591<>CALL     2630>>ASSIGN
      2632>>DOINDEX  2633>>ASSIGN   2634>>ASSIGN   2635>>ASSIGN   2636>>ASSIGN
ALTKEYS
      2336**PROC     2217--CALL
B$JIT.CHECK_CFU
       510**DCL      2388<<ASSIGN
B$JIT.DCB$
       508**DCL      2250<<ASSIGN   2251>>ASSIGN   2342<<ASSIGN   2343>>ASSIGN
B$JIT.ERR
       418**DCL      2287<<ASSIGN   2308>>IF       2322<<ASSIGN   2477<<ASSIGN
B$JIT.ERR.MID
       419**DCL       419--REDEF
B$JIT.STAR
       508**DCL      2258--DOINDEX
B$JIT.STAR.DA
       508**DCL      2259>>IF       2265>>ASSIGN   2266<<ASSIGN   2272>>ASSIGN   2273<<ASSIGN
B$JIT.SYSID
       418**DCL      2274>>ASSIGN   2280>>ASSIGN
B$JIT$
      2130**DCL       413--IMP-PTR  2179>>ASSIGN   2212>>ASSIGN   2250>>ASSIGN   2251>>ASSIGN   2287>>ASSIGN
      2308>>IF       2322>>ASSIGN   2342>>ASSIGN   2343>>ASSIGN   2388>>ASSIGN   2477>>ASSIGN
B$PS0$
      2131**DCL      2203>>ASSIGN
B$PS1$
PL6.E3A0      #006=FMQ$RELSTARF File=FMQ$DIR.:E05TSI                             TUE 07/29/97 17:02 Page:265
      2132**DCL      2034--IMP-PTR  2342>>ASSIGN   2345>>DOCASE   2375>>ASSIGN   2382>>ASSIGN   2386>>ASSIGN
      2416>>ASSIGN   2456>>ASSIGN   2468>>IF       2469>>IF       2512>>ASSIGN   2514>>ASSIGN
B$RODCB$
        75**DCL      2342>>ASSIGN
B$ROSEG.DCBPTR$
        39**DCL      2342>>ASSIGN
B$ROSEG$
      2133**DCL      2342>>ASSIGN   2533>>ASSIGN   2561>>ASSIGN
BFR
      2161**DCL      2294<<ASSIGN   2300>>ASSIGN   2302<<ASSIGN
BFR1
      2162**DCL      2295<<ASSIGN   2301>>ASSIGN   2303<<ASSIGN
BUF$
      2155**DCL      2097--IMP-PTR  2284<>CALL     2313>>ASSIGN   2414<>CALL     2416>>ASSIGN   2417>>ASSIGN
      2486<>CALL     2487>>ASSIGN
BUFNO
      2166**DCL      2413<<ASSIGN   2414<>CALL     2471<<ASSIGN   2472<>CALL     2485<<ASSIGN   2486<>CALL
      2494<>CALL
CFU$
      2159**DCL      2077--IMP-PTR  2386<<ASSIGN   2387>>ASSIGN   2390>>DOWHILE  2391<<ASSIGN   2391>>ASSIGN
      2394>>ASSIGN   2397>>ASSIGN   2405<<ASSIGN   2406>>ASSIGN   2408>>ASSIGN
CLOSE
      2454**PROC     2350--CALL
CODE$
      2167**DCL      2054--IMP-PTR  2058--IMP-PTR  2062--IMP-PTR  2419<<ASSIGN   2420<>CALL     2421>>ASSIGN
      2423<<ASSIGN   2424<>CALL     2425>>ASSIGN   2427<<ASSIGN   2428<>CALL     2429>>ASSIGN   2430>>ASSIGN
      2431>>ASSIGN   2529<<ASSIGN   2530<>CALL     2531>>ASSIGN   2535>>ASSIGN   2584<<ASSIGN   2585<>CALL
      2587>>ASSIGN   2588>>ASSIGN
CODE01.HASH
      2054**DCL      2421>>ASSIGN
CODE01.XTNT
      2054**DCL      2055--REDEF
CODE02.SPARE
      2058**DCL      2425>>ASSIGN
CODE03.DESC
      2062**DCL      2431>>ASSIGN
PL6.E3A0      #006=FMQ$RELSTARF File=FMQ$DIR.:E05TSI                             TUE 07/29/97 17:02 Page:266
CODE03.ORG
      2062**DCL      2429>>ASSIGN
CODE03.XTNSIZE
      2065**DCL      2430>>ASSIGN
CODE19
      2069**DCL      2555<>CALL
CODE19.K.KEYEND
      2069**DCL      2623>>IF
CODE19.K.UNIQUE
      2069**DCL      2622<<ASSIGN   2622>>ASSIGN
CODE19.NKEYS
      2069**DCL      2621>>DOUNTIL
CODE19$
      2169**DCL      2069--IMP-PTR  2553<<ASSIGN   2554<>CALL     2555>>CALL     2613<<ASSIGN   2614<>CALL
      2621>>DOUNTIL  2622>>ASSIGN   2623>>IF
CODE20.ALTBLD
      2072**DCL      2559>>ASSIGN   2630<<ASSIGN
CODE20.K.FDA
      2073**DCL      2566>>ASSIGN   2635<<ASSIGN
CODE20.K.LDA
      2073**DCL      2567>>ASSIGN   2636<<ASSIGN
CODE20.K.TDA
      2072**DCL      2565>>ASSIGN   2634<<ASSIGN
CODE20.K.TDALVL
      2072**DCL      2564>>ASSIGN   2633<<ASSIGN
CODE20.NKEYS
      2072**DCL      2563>>DOINDEX
CODE20$
      2170**DCL      2072--IMP-PTR  2557<<ASSIGN   2558<>CALL     2559>>ASSIGN   2563>>DOINDEX  2564>>ASSIGN
      2565>>ASSIGN   2566>>ASSIGN   2567>>ASSIGN   2628<<ASSIGN   2629<>CALL     2630>>ASSIGN   2633>>ASSIGN
      2634>>ASSIGN   2635>>ASSIGN   2636>>ASSIGN
DA
      2148**DCL      2272<<ASSIGN   2277>>DOWHILE  2279<>CALL     2284<>CALL     2310>>ASSIGN   2312>>ASSIGN
      2313<<ASSIGN   2510<>CALL     2512>>ASSIGN
ERR IN PROCEDURE CLOSE
      2495**LABEL    2458--CALLALT  2460--CALLALT  2474--GOTO     2486--CALLALT
PL6.E3A0      #006=FMQ$RELSTARF File=FMQ$DIR.:E05TSI                             TUE 07/29/97 17:02 Page:267
ERR IN PROCEDURE INDEXED_SETUP
      2539**LABEL    2532--CALLALT
ERR IN PROCEDURE IREL_SETUP
      2571**LABEL    2555--CALLALT
ERR IN PROCEDURE OPEN
      2433**LABEL    2414--CALLALT
ERR IN PROCEDURE RELSTARF
      2320**LABEL    2267--CALLALT  2284--CALLALT  2298--CALLALT  2309--GOTO     2315--CALLALT
EXTEND
      2506**PROC     2353--CALL
EXTNT
      2152**DCL      2315<>CALL
EXTNT.DA
      2154**DCL      2310<<ASSIGN
EXTNT.SIZ
      2153**DCL      2311<<ASSIGN
F$CFU$
      2134**DCL      2092--IMP-PTR  2390>>DOWHILE  2391>>ASSIGN   2394>>ASSIGN   2408>>ASSIGN   2409>>ASSIGN
F$DCB.ACCT
      1981**DCL      2338>>IF       2401<<ASSIGN   2410<<ASSIGN
F$DCB.ACS
      1988**DCL      2381<<ASSIGN
F$DCB.ACTPOS
      1996**DCL      1996--REDEF
F$DCB.ALTKEYX
      1994**DCL      2533<<ASSIGN   2561>>ASSIGN   2592<<ASSIGN
F$DCB.ARS
      1971**DCL      1971--REDEF
F$DCB.ASN
      1986**DCL      2376<<ASSIGN
F$DCB.ATTR
      1989**DCL      1990--REDEF
F$DCB.BFR
      2015**DCL      2254<<ASSIGN   2294>>ASSIGN   2296<<ASSIGN   2300<<ASSIGN
F$DCB.BFR1
      2016**DCL      2255<<ASSIGN   2295>>ASSIGN   2297<<ASSIGN   2301<<ASSIGN
PL6.E3A0      #006=FMQ$RELSTARF File=FMQ$DIR.:E05TSI                             TUE 07/29/97 17:02 Page:268
F$DCB.BORROW
      2004**DCL      2004--REDEF    2004--REDEF    2004--REDEF
F$DCB.CFU$
      2005**DCL      2375<<ASSIGN   2387<<ASSIGN   2405>>ASSIGN   2464>>ASSIGN   2466>>ASSIGN   2466>>ASSIGN
      2468>>IF       2536>>ASSIGN   2559>>ASSIGN
F$DCB.CRECX
      2007**DCL      2282<<ASSIGN
F$DCB.DCBNAME.L
      2018**DCL      2018--IMP-SIZ
F$DCB.DESC
      1978**DCL      2431<<ASSIGN
F$DCB.EOMCHAR
      1975**DCL      1975--REDEF
F$DCB.FCD
      1984**DCL      2252>>IF       2385<<ASSIGN
F$DCB.FFLG
      1975**DCL      2383<<ASSIGN
F$DCB.FLDID
      1999**DCL      1999--REDEF
F$DCB.FORM$
      1993**DCL      1993--REDEF
F$DCB.FSECT
      2009**DCL      2009--REDEF
F$DCB.FSN
      1986**DCL      1986--REDEF    1986--REDEF    1987--REDEF
F$DCB.FUN
      1985**DCL      2384<<ASSIGN
F$DCB.GTYP
      2000**DCL      2278<<ASSIGN   2304<<ASSIGN
F$DCB.HASH
      2008**DCL      2274<<ASSIGN   2280<<ASSIGN   2421<<ASSIGN
F$DCB.HEADER$
      1992**DCL      1992--REDEF
F$DCB.IASN
      2012**DCL      2377<<ASSIGN
F$DCB.IFMT
PL6.E3A0      #006=FMQ$RELSTARF File=FMQ$DIR.:E05TSI                             TUE 07/29/97 17:02 Page:269
      2011**DCL      2379<<ASSIGN
F$DCB.IORG
      2007**DCL      2378<<ASSIGN   2462>>ASSIGN   2463<<ASSIGN   2473<<ASSIGN   2484<<ASSIGN   2508>>ASSIGN
      2509<<ASSIGN   2511<<ASSIGN
F$DCB.IXTNSIZE
      1990**DCL      1990--REDEF
F$DCB.LASTSTA$
      1980**DCL      1980--REDEF
F$DCB.LVL
      2005**DCL      2005--REDEF
F$DCB.MEDIA
      2011**DCL      2380<<ASSIGN
F$DCB.NAME.C
      1980**DCL      1980--REDEF    2263<<ASSIGN   2264<<CALLBLT  2292<<ASSIGN   2338>>IF       2395<<ASSIGN
F$DCB.NAME.L
      1980**DCL      2262<<ASSIGN   2291<<ASSIGN   2396<<ASSIGN
F$DCB.NOEOF
      2001**DCL      2001--REDEF
F$DCB.NRECS
      1991**DCL      1991--REDEF
F$DCB.NRECX
      2010**DCL      2010--REDEF
F$DCB.OHDR
      2002**DCL      2002--REDEF
F$DCB.ORG
      1985**DCL      1985--REDEF    2429<<ASSIGN   2457>>IF       2489>>IF
F$DCB.PRECNO
      2008**DCL      2008--REDEF
F$DCB.RCSZ
      2013**DCL      2013--REDEF
F$DCB.RES
      1981**DCL      1981--REDEF
F$DCB.RPOS
      2002**DCL      2283<<ASSIGN
F$DCB.SETX
      1993**DCL      1993--REDEF    2256<<ASSIGN   2382<<ASSIGN
PL6.E3A0      #006=FMQ$RELSTARF File=FMQ$DIR.:E05TSI                             TUE 07/29/97 17:02 Page:270
F$DCB.SPARE
      1988**DCL      2425<<ASSIGN
F$DCB.STARF
      2000**DCL      2248>>IF       2281<<ASSIGN   2397<<ASSIGN   2399>>IF
F$DCB.TAB$
      1992**DCL      1993--REDEF
F$DCB.TDA
      2007**DCL      2007--REDEF
F$DCB.WSN
      1982**DCL      1982--REDEF
F$DCB.XTNSIZE
      1988**DCL      2430<<ASSIGN
FAF$GETGRAN
      2108**DCL-ENT  2510--CALL
FAG$REXT
      2109**DCL-ENT  2315--CALL
FAG$RFILE
      2110**DCL-ENT  2267--CALL     2298--CALL
FIT$
      2163**DCL      2417<<ASSIGN   2419>>ASSIGN   2423>>ASSIGN   2427>>ASSIGN   2487<<ASSIGN   2584>>ASSIGN
      2613>>ASSIGN   2628>>ASSIGN
FITALTKEYS.ALTBLD
      2021**DCL      2536>>ASSIGN
FITALTKEYS.NUMWRDS
      2021**DCL      2531>>ASSIGN   2587>>ASSIGN
FITDA
      2151**DCL      2152--REDEF    2265<<ASSIGN   2267<>CALL     2293<<ASSIGN   2298<>CALL
FKA_ALTKEYS_BFR.CFU$
      2037**DCL      2375>>ASSIGN   2386>>ASSIGN
FKA_ALTKEYS_BFR.CODE
      2039**DCL      2345>>DOCASE
FKA_ALTKEYS_BFR.DA
      2041**DCL      2512<<ASSIGN   2514<<ASSIGN
FKA_ALTKEYS_BFR.DCB#
      2035**DCL      2342>>ASSIGN
FKA_ALTKEYS_BFR.DELF
PL6.E3A0      #006=FMQ$RELSTARF File=FMQ$DIR.:E05TSI                             TUE 07/29/97 17:02 Page:271
      2047**DCL      2469>>IF
FKA_ALTKEYS_BFR.FPARAM
      2050**DCL      2416<<ASSIGN   2456--ASSIGN
FKA_ALTKEYS_BFR.RELG
      2045**DCL      2468>>IF
FKA_ALTKEYS_BFR.SETX
      2043**DCL      2382>>ASSIGN
FM$CFU.ACCTX
      2078**DCL      2078--REDEF    2406>>ASSIGN   2408>>ASSIGN
FM$CFU.ALTBLD
      2080**DCL      2536<<ASSIGN   2559<<ASSIGN
FM$CFU.FUN
      2077**DCL      2466<<ASSIGN   2466>>ASSIGN
FM$CFU.NAMEX
      2078**DCL      2390>>DOWHILE  2391>>ASSIGN   2394>>ASSIGN   2408>>ASSIGN
FM$CFU.NGAVAL
      2080**DCL      2468>>IF
FM$CFU.STARX.F
      2078**DCL      2397>>ASSIGN
FM$CFU.ULBLD
      2080**DCL      2464<<ASSIGN
FM$CFUA.ACCT
      2083**DCL      2410>>ASSIGN
FM$CFUN.C
      2089**DCL      2395>>ASSIGN
FM$CFUN.L
      2089**DCL      2089--IMP-SIZ  2395>>ASSIGN   2396>>ASSIGN
FM$CFUX.NAMES
      2092**DCL      2390>>DOWHILE
FM$FDSEG.FITSDA
      2105**DCL      2289>>IF       2293>>ASSIGN
FM$GRAN
      2097**DCL      2417--ASSIGN   2456--ASSIGN   2487--ASSIGN
FM$GRAN.FLINK
      2098**DCL      2313>>ASSIGN
FM$KEYENT.D
PL6.E3A0      #006=FMQ$RELSTARF File=FMQ$DIR.:E05TSI                             TUE 07/29/97 17:02 Page:272
      2101**DCL      2289>>IF
FM$KEYENT.KLB
      2101**DCL      2101--IMP-SIZ  2291>>ASSIGN   2292>>ASSIGN
FM$KEYENT.TXT
      2101**DCL      2292>>ASSIGN
FMC$CLR1
      2111**DCL-ENT  2279--CALL
FMD$REDBUF
      2112**DCL-ENT  2284--CALL
FMD$RELBUF
      2113**DCL-ENT  2268--CALL     2299--CALL     2314--CALL     2320--CALL     2321--CALL
FMD$WRTBUF
      2114**DCL-ENT  2494--CALL
FMG$IRSETUP
      2116**DCL-ENT  2555--CALL
FMG$NXTKEYNM
      2115**DCL-ENT  2288--CALL
FMM$SCRUB
      2117**DCL-ENT  2373--CALL
FMN$GETFIT
      2118**DCL-ENT  2414--CALL     2486--CALL
FMO$GETDOMAIN
      2119**DCL-ENT  2209--CALL
FMO$LOCCODP
      2120**DCL-ENT  2420--CALL     2424--CALL     2428--CALL     2530--CALL     2554--CALL     2558--CALL
      2585--CALL     2614--CALL     2617--CALL     2629--CALL
FMO$RELG
      2121**DCL-ENT  2472--CALL
FMP$CLSJ
      2122**DCL-ENT  2253--CALL
FMQ$E$CLSREL
      2142**DCL      2477>>ASSIGN
FMU$BLDALT
      2123**DCL-ENT  2465--CALL
FM_STARCHARS
      2136**DCL      2264>>CALLBLT
PL6.E3A0      #006=FMQ$RELSTARF File=FMQ$DIR.:E05TSI                             TUE 07/29/97 17:02 Page:273
FM_SYSSETX
      2135**DCL      2256>>ASSIGN
FPARAM
      2176**DCL      2416>>ASSIGN
FPARAM$
      2164**DCL      2176--IMP-PTR  2456<<ASSIGN   2529>>ASSIGN   2553>>ASSIGN   2557>>ASSIGN   2616>>ASSIGN
FSA$FSP
      2124**DCL-ENT  2591--CALL
FSA$GSP
      2125**DCL-ENT  2532--CALL
HFF$DSIZ
      2126**DCL-ENT  2198--CALL
HFF$NILERASE
      2127**DCL-ENT  2201--CALL
I
      2149**DCL      2198<>CALL     2199>>IF       2209<>CALL     2210>>IF       2258<<DOINDEX  2259>>IF
      2259>>IF       2259>>IF       2264>>CALLBLT  2265>>ASSIGN   2266>>ASSIGN   2288<>CALL     2563<<DOINDEX
      2564>>ASSIGN   2564>>ASSIGN   2565>>ASSIGN   2565>>ASSIGN   2566>>ASSIGN   2566>>ASSIGN   2567>>ASSIGN
      2567>>ASSIGN
I IN PROCEDURE IREL_CLEANUP
      2611**DCL      2620<<ASSIGN   2622>>ASSIGN   2622>>ASSIGN   2623>>IF       2625<<ASSIGN   2625>>ASSIGN
      2632<<DOINDEX  2633>>ASSIGN   2633>>ASSIGN   2634>>ASSIGN   2634>>ASSIGN   2635>>ASSIGN   2635>>ASSIGN
      2636>>ASSIGN   2636>>ASSIGN
INDEXED_CLEANUP
      2582**PROC     2490--CALL
INDEXED_SETUP
      2527**PROC     2458--CALL
IORG
      2165**DCL      2462<<ASSIGN   2473>>ASSIGN   2484>>ASSIGN   2508<<ASSIGN   2511>>ASSIGN
IREL_CLEANUP
      2610**PROC     2492--CALL
IREL_SETUP
      2551**PROC     2460--CALL
IRKEYS.ALTBLD
      2027**DCL      2630>>ASSIGN
IRKEYS.K.FDA
PL6.E3A0      #006=FMQ$RELSTARF File=FMQ$DIR.:E05TSI                             TUE 07/29/97 17:02 Page:274
      2030**DCL      2566<<ASSIGN   2635>>ASSIGN
IRKEYS.K.LDA
      2031**DCL      2567<<ASSIGN   2636>>ASSIGN
IRKEYS.K.TDA
      2028**DCL      2565<<ASSIGN   2634>>ASSIGN
IRKEYS.K.TDALVL
      2028**DCL      2564<<ASSIGN   2633>>ASSIGN
IRKEYS.NKEYS
      2027**DCL      2632>>DOINDEX
JDCB$
      2146**DCL      1971--IMP-PTR  2251<<ASSIGN   2252>>IF       2254>>ASSIGN   2255>>ASSIGN   2256>>ASSIGN
      2262>>ASSIGN   2263>>ASSIGN   2264>>CALLBLT  2274>>ASSIGN   2278>>ASSIGN   2280>>ASSIGN   2281>>ASSIGN
      2282>>ASSIGN   2283>>ASSIGN   2291>>ASSIGN   2292>>ASSIGN   2294>>ASSIGN   2295>>ASSIGN   2296>>ASSIGN
      2297>>ASSIGN   2300>>ASSIGN   2301>>ASSIGN   2304>>ASSIGN   2343<<ASSIGN   2373<>CALL     2375>>ASSIGN
      2376>>ASSIGN   2377>>ASSIGN   2378>>ASSIGN   2379>>ASSIGN   2380>>ASSIGN   2381>>ASSIGN   2382>>ASSIGN
      2383>>ASSIGN   2384>>ASSIGN   2385>>ASSIGN   2387>>ASSIGN   2395>>ASSIGN   2396>>ASSIGN   2397>>ASSIGN
      2399>>IF       2401>>ASSIGN   2405>>ASSIGN   2410>>ASSIGN   2421>>ASSIGN   2425>>ASSIGN   2429>>ASSIGN
      2430>>ASSIGN   2431>>ASSIGN   2457>>IF       2462>>ASSIGN   2463>>ASSIGN   2464>>ASSIGN   2466>>ASSIGN
      2466>>ASSIGN   2468>>IF       2473>>ASSIGN   2484>>ASSIGN   2489>>IF       2508>>ASSIGN   2509>>ASSIGN
      2511>>ASSIGN   2533>>ASSIGN   2536>>ASSIGN   2559>>ASSIGN   2561>>ASSIGN   2592>>ASSIGN
KEY$
      2157**DCL      2101--IMP-PTR  2288<>CALL     2289>>IF       2291>>ASSIGN   2292>>ASSIGN   2292>>ASSIGN
LCDA
      2150**DCL      2275<<ASSIGN   2284<>CALL     2312<<ASSIGN
MOVEN
      2177**DCL      2535<<ASSIGN   2535>>ASSIGN   2588<<ASSIGN   2588>>ASSIGN
N
      2168**DCL      2177--IMP-SIZ  2531<<ASSIGN   2532<>CALL     2534<<ASSIGN   2534>>ASSIGN   2535>>ASSIGN
      2535>>ASSIGN   2587<<ASSIGN   2588>>ASSIGN   2588>>ASSIGN   2590<<ASSIGN   2590>>ASSIGN   2591<>CALL
      2619<<ASSIGN   2621>>DOUNTIL  2624<<ASSIGN   2624>>ASSIGN
NAME$
      2158**DCL      2089--IMP-PTR  2394<<ASSIGN   2395>>ASSIGN   2395>>ASSIGN   2396>>ASSIGN
NEWCODE$
      2172**DCL      2616<<ASSIGN   2617<>CALL     2622>>ASSIGN
NONE IN PROCEDURE EXTEND
      2514**LABEL    2510--CALLALT
PL6.E3A0      #006=FMQ$RELSTARF File=FMQ$DIR.:E05TSI                             TUE 07/29/97 17:02 Page:275
NXTERR IN PROCEDURE RELSTARF
      2308**LABEL    2288--CALLALT
OPEN
      2371**PROC     2347--CALL
PARTREL
      2208**LABEL    2201--CALLALT
RELSTARF
      2245**PROC     2181--CALL     2214--CALL
SEG$
      2156**DCL      2104--IMP-PTR  2288<>CALL     2289>>IF       2293>>ASSIGN
S_CUN
      2137**DCL      2204>>IF
UJIT$
      2147**DCL      2179<<ASSIGN   2203<<ASSIGN   2212<<ASSIGN   2259>>IF       2265>>ASSIGN   2266>>ASSIGN
      2272>>ASSIGN   2273>>ASSIGN   2274>>ASSIGN   2280>>ASSIGN
UMD$QDRIB
      2128**DCL-ENT  2249--CALL
PL6.E3A0      #006=FMQ$RELSTARF File=FMQ$DIR.:E05TSI                             TUE 07/29/97 17:02 Page:276
              *** CROSS REFERENCE LISTING ***
    **     DENOTES     IDENTIFIER DEFINITION
    <<                 IDENTIFIER'S VALUE SET
    >>                 IDENTIFIER'S VALUE USED
    <>                 IDENTIFIER SET AND/OR USED
    --                 IDENTIFIER REFERENCED
PL6.E3A0      #006=FMQ$RELSTARF File=FMQ$DIR.:E05TSI                             TUE 07/29/97 17:02 Page:277
              MINI UREF LISTING

B$ROAVAIL      78**DCL
FMQ$RELSTARF      26**PROC
FMQ$RELSTARFP    2197**ENTRY
