VERSION E05

PL6.E3A0      #001=FMQ$SRCHFD File=FMQ$DIR.:E05TSI                               TUE 07/29/97 16:59 Page:1
        1        1        /*M*  FMQ$DIR - Routines to manipulate directories */
        2        2        /*T***********************************************************/
        3        3        /*T*                                                         */
        4        4        /*T* Copyright (c) Bull HN Information Systems Inc., 1997    */
        5        5        /*T*                                                         */
        6        6        /*T***********************************************************/
        7        7        /**/
        8        8        /*X* DDA */
        9        9        /*P*   NAME:   FMQ$DIR
       10       10        *      PURPOSE:  Routines to search, build and add entries to
       11       11        *                file and account directories                                */
       12       12        %EJECT;
PL6.E3A0      #001=FMQ$SRCHFD File=FMQ$DIR.:E05TSI                               TUE 07/29/97 16:59 Page:2
       13       13        /*F*   NAME:   FMQ$SRCHFD
       14       14        *      PURPOSE:  Search file directory for a given file name entry           */
       15       15                                                /*                                    */
       16       16                                                /*                                    */
       17       17                                                /*                                    */
       18       18        /*D*   NAME:   FMQ$SRCHFD
       19       19        *      CALL:   CALL FMQ$SRCHFD(KEYIN$,KEY$,SEG$,ACCT$,FPT$) ALTRET(LOC);
       20       20        *      INTERFACE:  FMD$REDBUF,FMG$LOCKEY,FMG$NXTKEY,FMG$CURKEY
       21       21        *      INPUT:  KEYIN$ - Ptr to the key to find
       22       22        *              ACCT$ - Ptr to account block
       23       23        *              FPT$ - Ptr to FPT (may be NIL)
       24       24        *      OUTPUT: KEY$ - Ptr to key found, or next highest
       25       25        *              SEG$ - Ptr to segment area associated with KEY$
       26       26        *      DESCRIPTION:  The current FD granule is read.  If no FPT
       27       27        *        or if the FPT does not say NXTF, FMG$LOCKEY is called to
       28       28        *        find the desired key.  Return if found and not deleted,
       29       29        *        altret if not found or if deleted.
       30       30        *        If NXTF is specified, call FMG$LOCKEY to locate the desired
       31       31        *        key.  If found and THISF specified, skip next step.
       32       32        *        Find next key using FMG$NXTKEY or FMG$CURKEY.  If SRCHCOND
       33       33        *        specified, check if this file qualifies, else check if it
       34       34        *        is deleted.  If don't want this one, loop back to find
       35       35        *        next file.
       36       36        *        When done, whether or not anything was found, set current
       37       37        *        disk address in cfu account block to the disk address of
       38       38        *        the last granule read.
       39       39        */
       40       40        /**/
       41       41        FMQ$SRCHFD: PROC(KEYIN$,KEY$,SEG$,ACCT$,FPT$) ALTRET;
       42       42        /* PARAMETERS */
       43       43    1   DCL KEYIN$ PTR;
       44       44    1   DCL KEY$ PTR;
       45       45    1   DCL SEG$ PTR;
       46       46    1   DCL ACCT$ PTR;
       47       47    1   DCL FPT$ PTR;
       48       48        /* LOCAL AUTOMATIC STORAGE */
       49       49    1   DCL DA SBIN;
PL6.E3A0      #001=FMQ$SRCHFD File=FMQ$DIR.:E05TSI                               TUE 07/29/97 16:59 Page:3
       50       50    1   DCL LCDA SBIN;
       51       51    1   DCL EFLG SBIN;
       52       52    1   DCL JDCB$ PTR;
       53       53    1   DCL BUF$ PTR;
       54       54        /* INCLUDE FILES */
       55       55        %INCLUDE F$JIT_C;
       56      485        %INCLUDE FM$MACROS;
       57      860        %INCLUDE F_ERRORS_C;
       58     1100        %INCLUDE F$CP6V_C;
       59     1326        %MACRO F$DCB(BASED=BASED);
       60     1327        %INCLUDE F$DCB;
       61     1376        %MEND;
       62     1377        /* EXTERNAL DATA */
       63     1378    1   DCL B$JIT$ PTR SYMREF;
       64     1379        /* EXTERNAL ROUTINES */
       65     1380    1   DCL FMD$REDBUF ENTRY(6) ALTRET;
       66     1381    1   DCL FMD$FLSHBUF ENTRY(1);
       67     1382    1   DCL FMG$CURKEY ENTRY(3) ALTRET;
       68     1383    1   DCL FMG$FINDKEY ENTRY(4) ALTRET;
       69     1384    1   DCL FMG$NXTKEY ENTRY(3) ALTRET;
       70     1385        /* BASED STRUCTURES */
       71     1386        %F$DCB (BASED="BASED(JDCB$)");
       72     1436        %FM$CFUA (BASED="BASED(ACCT$)");
       73     1442        %FM$KEYENT (BASED="BASED(KEY$)");
       74     1445        %FM$FDSEG  (BASED="BASED(SEG$)");
       75     1449        %FPT$OPEN_V (BASED="BASED(FPT$)");
       76     1464        /* CONSTANT STORAGE */
       77     1465        %SUB TRUE='1'B;
       78     1466        %SUB FCG#='0615'O;
       79     1467        %SUB MID#='21'O;
       80     1468        %ERRCODE (NAME=ERRNOKEY,COD#=%E$NOKEY);
       81     1472        /**/
       82     1473    1           JDCB$=B$JIT.DCB$;
       83     1474    1           F$DCB.GTYP=FMGTFD;              /* PREPARE TO READ FILE DIRECTORY     */
       84     1475    2           IF F$DCB.STARF THEN DO;         /* STAR FIE DIRECTORY                 */
       85     1476    2              DA=B$JIT.STAR.DA(0);         /* FDA OF STAR FD                     */
       86     1477    2              LCDA=0;
PL6.E3A0      #001=FMQ$SRCHFD File=FMQ$DIR.:E05TSI                               TUE 07/29/97 16:59 Page:4
       87     1478    2              EFLG=0;                      /* NO FAST PATH HERE                  */
       88     1479    2              END;
       89     1480    2           ELSE DO;
       90     1481    2              DA=FM$CFUA.FDCSDA;           /* LAST FD GRAN READ                  */
       91     1482    2              LCDA=-1;                     /* DON'T KNOW GRAN FOR LINK CHECK     */
       92     1483    2              EFLG=1;                      /* FAST PATH                          */
       93     1484    2              END;
       94     1485        /**/
       95     1486    1   READ:   CALL FMD$REDBUF(BUF$,1,DA,,LCDA,EFLG) ALTRET(ERR1);
       96     1487        /**/
       97     1488    1           IF FPT$~=ADDR(NIL) THEN         /* THERE IS AN FPT                    */
       98     1489    1              IF FPT$OPEN_V.OPER.NXTF THEN /* WANT NEXT FILE                     */
       99     1490    1                 GOTO NXTF;
      100     1491        /**/
      101     1492        /* Want the named file */
      102     1493        /**/
      103     1494    1              CALL FMG$FINDKEY(SEG$,DA,KEY$,KEYIN$) ALTRET(NOKEY);
      104     1495        /**/
      105     1496    2           IF FM$KEYENT.D THEN DO;         /* ENTRY IS DELETED                   */
      106     1497    2              B$JIT.ERR=ERRNOKEY;
      107     1498    2              GOTO DONENOKEY;
      108     1499    2              END;
      109     1500    1           GOTO DONE;
      110     1501        /**/
      111     1502    1   NOKEY:  IF B$JIT.ERR.CODE=%E$NOKEY THEN
      112     1503    1              GOTO DONENOKEY;              /* EVERYTHING OK                      */
      113     1504    1           ELSE
      114     1505    1              GOTO ERR;                    /* FILE INCONSISTENCY                 */
      115     1506        /**/
      116     1507        /**/
      117     1508        /**/
      118     1509    1   NXTF:   CALL FMG$FINDKEY(SEG$,DA,KEY$,KEYIN$) ALTRET(NXTF40);
      119     1510        /**/
      120     1511    1           IF FPT$OPEN_V.OPER.THISF THEN   /* WANT THE NAMED FILE, NOT NEXT      */
      121     1512    1              GOTO NXTF30;
      122     1513        /**/
      123     1514    2   NXTF20: DO WHILE(TRUE);
PL6.E3A0      #001=FMQ$SRCHFD File=FMQ$DIR.:E05TSI                               TUE 07/29/97 16:59 Page:5
      124     1515    3              IF FPT$OPEN_V.SRCHCOND.REV THEN DO; /* BACK UP                     */
      125     1516    3                 F$DCB.RPOS='1'B;
      126     1517    3                 CALL FMG$CURKEY(SEG$,DA,KEY$) ALTRET(CHKBOF);
      127     1518    3                 END;
      128     1519    2              ELSE                         /* GO FORWARD                         */
      129     1520    2              CALL FMG$NXTKEY(SEG$,DA,KEY$) ALTRET(CHKEOF);
      130     1521        /**/
      131     1522        /* Decide if this file is wanted */
      132     1523        /**/
      133     1524    3   NXTF30:    IF FPT$OPEN_V.SRCHCOND&'777776'O THEN DO; /* SPECIAL SEARCH        */
      134     1525    3                 IF FPT$OPEN_V.SRCHCOND.ANYF THEN /* WANT ALL FILES              */
      135     1526    3                    GOTO DONE;
      136     1527    3                 IF FPT$OPEN_V.SRCHCOND&FM$FDSEG.DESC THEN
      137     1528    3                    GOTO DONE;
      138     1529    3                 END;
      139     1530    2              ELSE     /* NO SPECIAL SEARCH CONDITIONS - IGNORE DELETED FILES    */
      140     1531    2                 IF NOT FM$KEYENT.D THEN
      141     1532    2                    GOTO DONE;
      142     1533    2              END;
      143     1534        /**/
      144     1535    2   NXTF40: IF B$JIT.ERR.CODE=%E$NOKEY THEN DO; /* Named file doesn't exist       */
      145     1536    2              B$JIT.ERR='0'B;              /* Get rid of spurious error          */
      146     1537    2              GOTO NXTF20;
      147     1538    2              END;
      148     1539    1   ERR:    CALL FMD$FLSHBUF(1);
      149     1540    1           ALTRETURN;
      150     1541        /**/
      151     1542    1   CHKBOF: IF B$JIT.ERR.CODE=%E$BOF THEN
      152     1543    1              GOTO DONENOKEY;
      153     1544    1           ELSE
      154     1545    1              GOTO ERR;
      155     1546    1   CHKEOF: IF B$JIT.ERR.CODE=%E$EOF THEN
      156     1547    1              GOTO DONENOKEY;
      157     1548    1           ELSE
      158     1549    1              GOTO ERR;
      159     1550        /**/
      160     1551        /**/
PL6.E3A0      #001=FMQ$SRCHFD File=FMQ$DIR.:E05TSI                               TUE 07/29/97 16:59 Page:6
      161     1552        /**/
      162     1553    1   DONE:   IF NOT F$DCB.STARF THEN
      163     1554    1              FM$CFUA.FDCSDA=F$DCB.BFR.DA(1); /* REMEMBER CURRENT GRAN           */
      164     1555    1           B$JIT.ERR='0'B;
      165     1556    1           RETURN;
      166     1557        /**/
      167     1558    1   DONENOKEY: IF NOT F$DCB.STARF THEN
      168     1559    1              FM$CFUA.FDCSDA=F$DCB.BFR.DA(1);
      169     1560    1           ALTRETURN;
      170     1561        /**/
      171     1562        /**/
      172     1563        /**/
      173     1564    2   ERR1:   IF EFLG~=0 THEN DO;             /* GOT ERROR ON FAST PATH             */
      174     1565    2              DA=FM$CFUA.FDFITSDA;         /* START FROM BEGINNING               */
      175     1566    2              EFLG=0;                      /* DON'T COME HERE AGAIN              */
      176     1567    2              LCDA=0;
      177     1568    2              FM$CFUA.FDCSDA=DA;           /* MAKE SURE GOOD DISK ADDR HERE      */
      178     1569    2              B$JIT.ERR='0'B;              /* FORGET ABOUT ERROR                 */
      179     1570    2              GOTO READ;
      180     1571    2              END;
      181     1572    1           GOTO ERR;
      182     1573        /**/
      183     1574    1   END FMQ$SRCHFD;
      184     1575        %EOD;

PL6.E3A0      #001=FMQ$SRCHFD File=FMQ$DIR.:E05TSI                               TUE 07/29/97 16:59 Page:7
--  Include file information  --

   F$DCB.:E05TOU  is referenced.
   F$CP6V_C.:E05TOU  is referenced.
   F_ERRORS_C.:E05TOU  is referenced.
   FM$MACROS.:E05TOU  is referenced.
   B$JIT_C.:E05TOU  is referenced.
   F$JIT_C.:E05TOU  cannot be made into a system file and is referenced.
      No diagnostics issued in procedure FMQ$SRCHFD.

   Procedure FMQ$SRCHFD requires 204 words for executable code.
   Procedure FMQ$SRCHFD requires 20 words of local(AUTO) storage.

PL6.E3A0      #001=FMQ$SRCHFD File=FMQ$DIR.:E05TSI                               TUE 07/29/97 16:59 Page:8

 Object Unit name= FMQ$SRCHFD                                 File name= FMQ$DIR.:E05TOU
 UTS= JUL 29 '97 16:59:47.84 TUE                              Compiler= PL-6/E31         Sev=      00
 SharedLib= :SHARED_SYSTEM                                    Alt SharedLib=


    ****  Control sections  ****

 Sect   Type Bound  Init  Size OctSiz  Section name(segment info)
    0  RoData even  UTS      1      1  FMQ$SRCHFD
    1   Proc  even  none   204    314  FMQ$SRCHFD
    2  RoData even  none     2      2  FMQ$SRCHFD

    ****  Entry defs  ****

                              Check   Calling
                             calling  sequence
  Sect OctLoc Primary Altret sequence   type   Parms  Name
     1      0   yes    yes     yes      Std        5  FMQ$SRCHFD

  ****  Entry refs  ****

         Check        Calling
        calling       sequence
Altret sequence SRef   type   Args  Name
 yes     yes           Std       6 FMD$REDBUF
 yes     yes           Std       4 FMG$FINDKEY
 yes     yes           Std       3 FMG$NXTKEY
         yes           Std       1 FMD$FLSHBUF
 yes     yes           Std       3 FMG$CURKEY
                       nStd      0 X66_AUTO_5
                       Std       0 B_CONSPOOL_D
                       nStd      0 X66_AALT
                       nStd      0 X66_ARET
PL6.E3A0      #001=FMQ$SRCHFD File=FMQ$DIR.:E05TSI                               TUE 07/29/97 16:59 Page:9

  ****  Data refs  ****

  Flags:  r = read only, s = secondary
Flgs Name                             Flgs Name                             Flgs Name
     B$JIT$                                B_VECTNIL

  ****  Segment refs  ****

  Flags:  r = read only, s = secondary
Flgs Name                             Flgs Name                             Flgs Name
     ISSID
PL6.E3A0      #001=FMQ$SRCHFD File=FMQ$DIR.:E05TSI                               TUE 07/29/97 16:59 Page:10


        1        1        /*M*  FMQ$DIR - Routines to manipulate directories */
        2        2        /*T***********************************************************/
        3        3        /*T*                                                         */
        4        4        /*T* Copyright (c) Bull HN Information Systems Inc., 1997    */
        5        5        /*T*                                                         */
        6        6        /*T***********************************************************/
        7        7        /**/
        8        8        /*X* DDA */
        9        9        /*P*   NAME:   FMQ$DIR
       10       10        *      PURPOSE:  Routines to search, build and add entries to
       11       11        *                file and account directories                                */
       12       12        %EJECT;
PL6.E3A0      #001=FMQ$SRCHFD File=FMQ$DIR.:E05TSI                               TUE 07/29/97 16:59 Page:11
       13       13        /*F*   NAME:   FMQ$SRCHFD
       14       14        *      PURPOSE:  Search file directory for a given file name entry           */
       15       15                                                /*                                    */
       16       16                                                /*                                    */
       17       17                                                /*                                    */
       18       18        /*D*   NAME:   FMQ$SRCHFD
       19       19        *      CALL:   CALL FMQ$SRCHFD(KEYIN$,KEY$,SEG$,ACCT$,FPT$) ALTRET(LOC);
       20       20        *      INTERFACE:  FMD$REDBUF,FMG$LOCKEY,FMG$NXTKEY,FMG$CURKEY
       21       21        *      INPUT:  KEYIN$ - Ptr to the key to find
       22       22        *              ACCT$ - Ptr to account block
       23       23        *              FPT$ - Ptr to FPT (may be NIL)
       24       24        *      OUTPUT: KEY$ - Ptr to key found, or next highest
       25       25        *              SEG$ - Ptr to segment area associated with KEY$
       26       26        *      DESCRIPTION:  The current FD granule is read.  If no FPT
       27       27        *        or if the FPT does not say NXTF, FMG$LOCKEY is called to
       28       28        *        find the desired key.  Return if found and not deleted,
       29       29        *        altret if not found or if deleted.
       30       30        *        If NXTF is specified, call FMG$LOCKEY to locate the desired
       31       31        *        key.  If found and THISF specified, skip next step.
       32       32        *        Find next key using FMG$NXTKEY or FMG$CURKEY.  If SRCHCOND
       33       33        *        specified, check if this file qualifies, else check if it
       34       34        *        is deleted.  If don't want this one, loop back to find
       35       35        *        next file.
       36       36        *        When done, whether or not anything was found, set current
       37       37        *        disk address in cfu account block to the disk address of
       38       38        *        the last granule read.
       39       39        */
       40       40        /**/
       41       41        FMQ$SRCHFD: PROC(KEYIN$,KEY$,SEG$,ACCT$,FPT$) ALTRET;

     41  1 000000   000000 700200 xent  FMQ$SRCHFD   TSX0  ! X66_AUTO_5
         1 000001   000024 000005                    ZERO    20,5

       42       42        /* PARAMETERS */
       43       43    1   DCL KEYIN$ PTR;
       44       44    1   DCL KEY$ PTR;
       45       45    1   DCL SEG$ PTR;
PL6.E3A0      #001=FMQ$SRCHFD File=FMQ$DIR.:E05TSI                               TUE 07/29/97 16:59 Page:12
       46       46    1   DCL ACCT$ PTR;
       47       47    1   DCL FPT$ PTR;
       48       48        /* LOCAL AUTOMATIC STORAGE */
       49       49    1   DCL DA SBIN;
       50       50    1   DCL LCDA SBIN;
       51       51    1   DCL EFLG SBIN;
       52       52    1   DCL JDCB$ PTR;
       53       53    1   DCL BUF$ PTR;
       54       54        /* INCLUDE FILES */
       55       55        %INCLUDE F$JIT_C;
       56      485        %INCLUDE FM$MACROS;
       57      860        %INCLUDE F_ERRORS_C;
       58     1100        %INCLUDE F$CP6V_C;
       59     1326        %MACRO F$DCB(BASED=BASED);
       60     1327        %INCLUDE F$DCB;
       61     1376        %MEND;
       62     1377        /* EXTERNAL DATA */
       63     1378    1   DCL B$JIT$ PTR SYMREF;
       64     1379        /* EXTERNAL ROUTINES */
       65     1380    1   DCL FMD$REDBUF ENTRY(6) ALTRET;
       66     1381    1   DCL FMD$FLSHBUF ENTRY(1);
       67     1382    1   DCL FMG$CURKEY ENTRY(3) ALTRET;
       68     1383    1   DCL FMG$FINDKEY ENTRY(4) ALTRET;
       69     1384    1   DCL FMG$NXTKEY ENTRY(3) ALTRET;
       70     1385        /* BASED STRUCTURES */
       71     1386        %F$DCB (BASED="BASED(JDCB$)");
       72     1436        %FM$CFUA (BASED="BASED(ACCT$)");
       73     1442        %FM$KEYENT (BASED="BASED(KEY$)");
       74     1445        %FM$FDSEG  (BASED="BASED(SEG$)");
       75     1449        %FPT$OPEN_V (BASED="BASED(FPT$)");
       76     1464        /* CONSTANT STORAGE */
       77     1465        %SUB TRUE='1'B;
       78     1466        %SUB FCG#='0615'O;
       79     1467        %SUB MID#='21'O;
       80     1468        %ERRCODE (NAME=ERRNOKEY,COD#=%E$NOKEY);
       81     1472        /**/
       82     1473    1           JDCB$=B$JIT.DCB$;
PL6.E3A0      #001=FMQ$SRCHFD File=FMQ$DIR.:E05TSI                               TUE 07/29/97 16:59 Page:13

   1473  1 000002   000000 470400 xsym               LDP0    B$JIT$
         1 000003   000232 236100                    LDQ     154,,PR0
         1 000004   200013 756100                    STQ     JDCB$,,AUTO

       83     1474    1           F$DCB.GTYP=FMGTFD;              /* PREPARE TO READ FILE DIRECTORY     */

   1474  1 000005   200013 471500                    LDP1    JDCB$,,AUTO
         1 000006   100064 236100                    LDQ     52,,PR1
         1 000007   000000 376000 2                  ANQ     0
         1 000010   020000 276003                    ORQ     8192,DU
         1 000011   100064 756100                    STQ     52,,PR1

       84     1475    2           IF F$DCB.STARF THEN DO;         /* STAR FIE DIRECTORY                 */

   1475  1 000012   100064 236100                    LDQ     52,,PR1
         1 000013   200000 316003                    CANQ    65536,DU
         1 000014   000022 600000 1                  TZE     s:1481

       85     1476    2              DA=B$JIT.STAR.DA(0);         /* FDA OF STAR FD                     */

   1476  1 000015   000222 235100                    LDA     146,,PR0
         1 000016   200010 755100                    STA     DA,,AUTO

       86     1477    2              LCDA=0;

   1477  1 000017   200011 450100                    STZ     LCDA,,AUTO

       87     1478    2              EFLG=0;                      /* NO FAST PATH HERE                  */

   1478  1 000020   200012 450100                    STZ     EFLG,,AUTO

       88     1479    2              END;

   1479  1 000021   000032 710000 1                  TRA     READ

       89     1480    2           ELSE DO;
PL6.E3A0      #001=FMQ$SRCHFD File=FMQ$DIR.:E05TSI                               TUE 07/29/97 16:59 Page:14

       90     1481    2              DA=FM$CFUA.FDCSDA;           /* LAST FD GRAN READ                  */

   1481  1 000022   200006 473500                    LDP3    @ACCT$,,AUTO
         1 000023   300000 474500                    LDP4    0,,PR3
         1 000024   400003 235100                    LDA     3,,PR4
         1 000025   200010 755100                    STA     DA,,AUTO

       91     1482    2              LCDA=-1;                     /* DON'T KNOW GRAN FOR LINK CHECK     */

   1482  1 000026   000001 335007                    LCA     1,DL
         1 000027   200011 755100                    STA     LCDA,,AUTO

       92     1483    2              EFLG=1;                      /* FAST PATH                          */

   1483  1 000030   000001 235007                    LDA     1,DL
         1 000031   200012 755100                    STA     EFLG,,AUTO

       93     1484    2              END;

       94     1485        /**/
       95     1486    1   READ:   CALL FMD$REDBUF(BUF$,1,DA,,LCDA,EFLG) ALTRET(ERR1);

   1486  1 000032   200012 630500       READ         EPPR0   EFLG,,AUTO
         1 000033   200023 450500                    STP0    BUF$+7,,AUTO
         1 000034   200011 631500                    EPPR1   LCDA,,AUTO
         1 000035   200022 451500                    STP1    BUF$+6,,AUTO
         1 000036   000001 236000 xsym               LDQ     B_VECTNIL+1
         1 000037   200021 756100                    STQ     BUF$+5,,AUTO
         1 000040   200010 633500                    EPPR3   DA,,AUTO
         1 000041   200020 453500                    STP3    BUF$+4,,AUTO
         1 000042   000001 236000 2                  LDQ     1
         1 000043   200017 756100                    STQ     BUF$+3,,AUTO
         1 000044   200014 634500                    EPPR4   BUF$,,AUTO
         1 000045   200016 454500                    STP4    BUF$+2,,AUTO
         1 000046   200016 630500                    EPPR0   BUF$+2,,AUTO
         1 000047   000024 631400 xsym               EPPR1   B_VECTNIL+20
PL6.E3A0      #001=FMQ$SRCHFD File=FMQ$DIR.:E05TSI                               TUE 07/29/97 16:59 Page:15
         1 000050   000000 701000 xent               TSX1    FMD$REDBUF
         1 000051   000276 702000 1                  TSX2    ERR1

       96     1487        /**/
       97     1488    1           IF FPT$~=ADDR(NIL) THEN         /* THERE IS AN FPT                    */

   1488  1 000052   200007 470500                    LDP0    @FPT$,,AUTO
         1 000053   000000 236100                    LDQ     0,,PR0
         1 000054   000001 116000 xsym               CMPQ    B_VECTNIL+1
         1 000055   000062 600000 1                  TZE     s:1494

       98     1489    1              IF FPT$OPEN_V.OPER.NXTF THEN /* WANT NEXT FILE                     */

   1489  1 000056   000000 471500                    LDP1    0,,PR0
         1 000057   100000 236100                    LDQ     0,,PR1
         1 000060   004000 316007                    CANQ    2048,DL
         1 000061   000114 601000 1                  TNZ     NXTF

       99     1490    1                 GOTO NXTF;
      100     1491        /**/
      101     1492        /* Want the named file */
      102     1493        /**/
      103     1494    1              CALL FMG$FINDKEY(SEG$,DA,KEY$,KEYIN$) ALTRET(NOKEY);

   1494  1 000062   200003 236100                    LDQ     @KEYIN$,,AUTO
         1 000063   200004 235100                    LDA     @KEY$,,AUTO
         1 000064   200020 757100                    STAQ    BUF$+4,,AUTO
         1 000065   200010 631500                    EPPR1   DA,,AUTO
         1 000066   200017 451500                    STP1    BUF$+3,,AUTO
         1 000067   200005 236100                    LDQ     @SEG$,,AUTO
         1 000070   200016 756100                    STQ     BUF$+2,,AUTO
         1 000071   200016 630500                    EPPR0   BUF$+2,,AUTO
         1 000072   000022 631400 xsym               EPPR1   B_VECTNIL+18
         1 000073   000000 701000 xent               TSX1    FMG$FINDKEY
         1 000074   000106 702000 1                  TSX2    NOKEY

      104     1495        /**/
PL6.E3A0      #001=FMQ$SRCHFD File=FMQ$DIR.:E05TSI                               TUE 07/29/97 16:59 Page:16
      105     1496    2           IF FM$KEYENT.D THEN DO;         /* ENTRY IS DELETED                   */

   1496  1 000075   200004 470500                    LDP0    @KEY$,,AUTO
         1 000076   000000 471500                    LDP1    0,,PR0
         1 000077   100000 234100                    SZN     0,,PR1
         1 000100   000105 605000 1                  TPL     s:1500

      106     1497    2              B$JIT.ERR=ERRNOKEY;

   1497  1 000101   000000 236000 0                  LDQ     ERRNOKEY
         1 000102   000000 473400 xsym               LDP3    B$JIT$
         1 000103   300012 756100                    STQ     10,,PR3

      107     1498    2              GOTO DONENOKEY;

   1498  1 000104   000264 710000 1                  TRA     DONENOKEY

      108     1499    2              END;
      109     1500    1           GOTO DONE;

   1500  1 000105   000250 710000 1                  TRA     DONE

      110     1501        /**/
      111     1502    1   NOKEY:  IF B$JIT.ERR.CODE=%E$NOKEY THEN

   1502  1 000106   000000 470400 xsym  NOKEY        LDP0    B$JIT$
         1 000107   000012 236100                    LDQ     10,,PR0
         1 000110   377770 376007                    ANQ     131064,DL
         1 000111   001020 116007                    CMPQ    528,DL
         1 000112   000264 600000 1                  TZE     DONENOKEY

      112     1503    1              GOTO DONENOKEY;              /* EVERYTHING OK                      */
      113     1504    1           ELSE
      114     1505    1              GOTO ERR;                    /* FILE INCONSISTENCY                 */

   1505  1 000113   000227 710000 1                  TRA     ERR

PL6.E3A0      #001=FMQ$SRCHFD File=FMQ$DIR.:E05TSI                               TUE 07/29/97 16:59 Page:17
      115     1506        /**/
      116     1507        /**/
      117     1508        /**/
      118     1509    1   NXTF:   CALL FMG$FINDKEY(SEG$,DA,KEY$,KEYIN$) ALTRET(NXTF40);

   1509  1 000114   200003 236100       NXTF         LDQ     @KEYIN$,,AUTO
         1 000115   200004 235100                    LDA     @KEY$,,AUTO
         1 000116   200020 757100                    STAQ    BUF$+4,,AUTO
         1 000117   200010 631500                    EPPR1   DA,,AUTO
         1 000120   200017 451500                    STP1    BUF$+3,,AUTO
         1 000121   200005 236100                    LDQ     @SEG$,,AUTO
         1 000122   200016 756100                    STQ     BUF$+2,,AUTO
         1 000123   200016 630500                    EPPR0   BUF$+2,,AUTO
         1 000124   000022 631400 xsym               EPPR1   B_VECTNIL+18
         1 000125   000000 701000 xent               TSX1    FMG$FINDKEY
         1 000126   000220 702000 1                  TSX2    NXTF40

      119     1510        /**/
      120     1511    1           IF FPT$OPEN_V.OPER.THISF THEN   /* WANT THE NAMED FILE, NOT NEXT      */

   1511  1 000127   200007 470500                    LDP0    @FPT$,,AUTO
         1 000130   000000 471500                    LDP1    0,,PR0
         1 000131   100000 236100                    LDQ     0,,PR1
         1 000132   002000 316007                    CANQ    1024,DL
         1 000133   000171 601000 1                  TNZ     NXTF30

      121     1512    1              GOTO NXTF30;
      122     1513        /**/
      123     1514    2   NXTF20: DO WHILE(TRUE);

   1514  1 000134                       NXTF20       null
      124     1515    3              IF FPT$OPEN_V.SRCHCOND.REV THEN DO; /* BACK UP                     */

   1515  1 000134   200007 470500                    LDP0    @FPT$,,AUTO
         1 000135   000000 471500                    LDP1    0,,PR0
         1 000136   100001 236100                    LDQ     1,,PR1
         1 000137   000001 316003                    CANQ    1,DU
PL6.E3A0      #001=FMQ$SRCHFD File=FMQ$DIR.:E05TSI                               TUE 07/29/97 16:59 Page:18
         1 000140   000157 600000 1                  TZE     s:1520

      125     1516    3                 F$DCB.RPOS='1'B;

   1516  1 000141   200013 473500                    LDP3    JDCB$,,AUTO
         1 000142   010000 236007                    LDQ     4096,DL
         1 000143   300064 256100                    ORSQ    52,,PR3

      126     1517    3                 CALL FMG$CURKEY(SEG$,DA,KEY$) ALTRET(CHKBOF);

   1517  1 000144   200004 236100                    LDQ     @KEY$,,AUTO
         1 000145   200020 756100                    STQ     BUF$+4,,AUTO
         1 000146   200010 631500                    EPPR1   DA,,AUTO
         1 000147   200017 451500                    STP1    BUF$+3,,AUTO
         1 000150   200005 236100                    LDQ     @SEG$,,AUTO
         1 000151   200016 756100                    STQ     BUF$+2,,AUTO
         1 000152   200016 630500                    EPPR0   BUF$+2,,AUTO
         1 000153   000021 631400 xsym               EPPR1   B_VECTNIL+17
         1 000154   000000 701000 xent               TSX1    FMG$CURKEY
         1 000155   000234 702000 1                  TSX2    CHKBOF

      127     1518    3                 END;

   1518  1 000156   000171 710000 1                  TRA     NXTF30

      128     1519    2              ELSE                         /* GO FORWARD                         */
      129     1520    2              CALL FMG$NXTKEY(SEG$,DA,KEY$) ALTRET(CHKEOF);

   1520  1 000157   200004 236100                    LDQ     @KEY$,,AUTO
         1 000160   200020 756100                    STQ     BUF$+4,,AUTO
         1 000161   200010 631500                    EPPR1   DA,,AUTO
         1 000162   200017 451500                    STP1    BUF$+3,,AUTO
         1 000163   200005 236100                    LDQ     @SEG$,,AUTO
         1 000164   200016 756100                    STQ     BUF$+2,,AUTO
         1 000165   200016 630500                    EPPR0   BUF$+2,,AUTO
         1 000166   000021 631400 xsym               EPPR1   B_VECTNIL+17
         1 000167   000000 701000 xent               TSX1    FMG$NXTKEY
PL6.E3A0      #001=FMQ$SRCHFD File=FMQ$DIR.:E05TSI                               TUE 07/29/97 16:59 Page:19
         1 000170   000242 702000 1                  TSX2    CHKEOF

      130     1521        /**/
      131     1522        /* Decide if this file is wanted */
      132     1523        /**/
      133     1524    3   NXTF30:    IF FPT$OPEN_V.SRCHCOND&'777776'O THEN DO; /* SPECIAL SEARCH        */

   1524  1 000171   200007 470500       NXTF30       LDP0    @FPT$,,AUTO
         1 000172   000000 471500                    LDP1    0,,PR0
         1 000173   100001 220100                    LDX0    1,,PR1
         1 000174   777776 360003                    ANX0    -2,DU
         1 000175   000213 600000 1                  TZE     s:1531

      134     1525    3                 IF FPT$OPEN_V.SRCHCOND.ANYF THEN /* WANT ALL FILES              */

   1525  1 000176   100001 236100                    LDQ     1,,PR1
         1 000177   000400 316003                    CANQ    256,DU
         1 000200   000250 601000 1                  TNZ     DONE

      135     1526    3                    GOTO DONE;
      136     1527    3                 IF FPT$OPEN_V.SRCHCOND&FM$FDSEG.DESC THEN

   1527  1 000201   200005 473500                    LDP3    @SEG$,,AUTO
         1 000202   300000 474500                    LDP4    0,,PR3
         1 000203   400000 236100                    LDQ     0,,PR4
         1 000204   777000 376003                    ANQ     -512,DU
         1 000205   200016 756100                    STQ     BUF$+2,,AUTO
         1 000206   100001 236100                    LDQ     1,,PR1
         1 000207   777777 376003                    ANQ     -1,DU
         1 000210   200016 376100                    ANQ     BUF$+2,,AUTO
         1 000211   000250 601000 1                  TNZ     DONE

      137     1528    3                    GOTO DONE;
      138     1529    3                 END;

   1529  1 000212   000134 710000 1                  TRA     NXTF20

PL6.E3A0      #001=FMQ$SRCHFD File=FMQ$DIR.:E05TSI                               TUE 07/29/97 16:59 Page:20
      139     1530    2              ELSE     /* NO SPECIAL SEARCH CONDITIONS - IGNORE DELETED FILES    */
      140     1531    2                 IF NOT FM$KEYENT.D THEN

   1531  1 000213   200004 473500                    LDP3    @KEY$,,AUTO
         1 000214   300000 474500                    LDP4    0,,PR3
         1 000215   400000 234100                    SZN     0,,PR4
         1 000216   000250 605000 1                  TPL     DONE

      141     1532    2                    GOTO DONE;
      142     1533    2              END;

   1533  1 000217   000134 710000 1                  TRA     NXTF20

      143     1534        /**/
      144     1535    2   NXTF40: IF B$JIT.ERR.CODE=%E$NOKEY THEN DO; /* Named file doesn't exist       */

   1535  1 000220   000000 470400 xsym  NXTF40       LDP0    B$JIT$
         1 000221   000012 236100                    LDQ     10,,PR0
         1 000222   377770 376007                    ANQ     131064,DL
         1 000223   001020 116007                    CMPQ    528,DL
         1 000224   000227 601000 1                  TNZ     ERR

      145     1536    2              B$JIT.ERR='0'B;              /* Get rid of spurious error          */

   1536  1 000225   000012 450100                    STZ     10,,PR0

      146     1537    2              GOTO NXTF20;

   1537  1 000226   000134 710000 1                  TRA     NXTF20

      147     1538    2              END;
      148     1539    1   ERR:    CALL FMD$FLSHBUF(1);

   1539  1 000227   000001 630400 2     ERR          EPPR0   1
         1 000230   000017 631400 xsym               EPPR1   B_VECTNIL+15
         1 000231   000000 701000 xent               TSX1    FMD$FLSHBUF
         1 000232   000000 011000                    NOP     0
PL6.E3A0      #001=FMQ$SRCHFD File=FMQ$DIR.:E05TSI                               TUE 07/29/97 16:59 Page:21

      149     1540    1           ALTRETURN;

   1540  1 000233   000000 702200 xent               TSX2  ! X66_AALT

      150     1541        /**/
      151     1542    1   CHKBOF: IF B$JIT.ERR.CODE=%E$BOF THEN

   1542  1 000234   000000 470400 xsym  CHKBOF       LDP0    B$JIT$
         1 000235   000012 236100                    LDQ     10,,PR0
         1 000236   377770 376007                    ANQ     131064,DL
         1 000237   000040 116007                    CMPQ    32,DL
         1 000240   000264 600000 1                  TZE     DONENOKEY

      152     1543    1              GOTO DONENOKEY;
      153     1544    1           ELSE
      154     1545    1              GOTO ERR;

   1545  1 000241   000227 710000 1                  TRA     ERR

      155     1546    1   CHKEOF: IF B$JIT.ERR.CODE=%E$EOF THEN

   1546  1 000242   000000 470400 xsym  CHKEOF       LDP0    B$JIT$
         1 000243   000012 236100                    LDQ     10,,PR0
         1 000244   377770 376007                    ANQ     131064,DL
         1 000245   000060 116007                    CMPQ    48,DL
         1 000246   000264 600000 1                  TZE     DONENOKEY

      156     1547    1              GOTO DONENOKEY;
      157     1548    1           ELSE
      158     1549    1              GOTO ERR;

   1549  1 000247   000227 710000 1                  TRA     ERR

      159     1550        /**/
      160     1551        /**/
      161     1552        /**/
PL6.E3A0      #001=FMQ$SRCHFD File=FMQ$DIR.:E05TSI                               TUE 07/29/97 16:59 Page:22
      162     1553    1   DONE:   IF NOT F$DCB.STARF THEN

   1553  1 000250   200013 470500       DONE         LDP0    JDCB$,,AUTO
         1 000251   000064 236100                    LDQ     52,,PR0
         1 000252   200000 316003                    CANQ    65536,DU
         1 000253   000261 601000 1                  TNZ     s:1555

      163     1554    1              FM$CFUA.FDCSDA=F$DCB.BFR.DA(1); /* REMEMBER CURRENT GRAN           */

   1554  1 000254   200006 471500                    LDP1    @ACCT$,,AUTO
         1 000255   100000 473500                    LDP3    0,,PR1
         1 000256   000116 236100                    LDQ     78,,PR0
         1 000257   000032 376000 xsym               ANQ     B_VECTNIL+26
         1 000260   300003 756100                    STQ     3,,PR3

      164     1555    1           B$JIT.ERR='0'B;

   1555  1 000261   000000 471400 xsym               LDP1    B$JIT$
         1 000262   100012 450100                    STZ     10,,PR1

      165     1556    1           RETURN;

   1556  1 000263   000000 702200 xent               TSX2  ! X66_ARET

      166     1557        /**/
      167     1558    1   DONENOKEY: IF NOT F$DCB.STARF THEN

   1558  1 000264   200013 470500       DONENOKEY    LDP0    JDCB$,,AUTO
         1 000265   000064 236100                    LDQ     52,,PR0
         1 000266   200000 316003                    CANQ    65536,DU
         1 000267   000275 601000 1                  TNZ     s:1560

      168     1559    1              FM$CFUA.FDCSDA=F$DCB.BFR.DA(1);

   1559  1 000270   200006 471500                    LDP1    @ACCT$,,AUTO
         1 000271   100000 473500                    LDP3    0,,PR1
         1 000272   000116 236100                    LDQ     78,,PR0
PL6.E3A0      #001=FMQ$SRCHFD File=FMQ$DIR.:E05TSI                               TUE 07/29/97 16:59 Page:23
         1 000273   000032 376000 xsym               ANQ     B_VECTNIL+26
         1 000274   300003 756100                    STQ     3,,PR3

      169     1560    1           ALTRETURN;

   1560  1 000275   000000 702200 xent               TSX2  ! X66_AALT

      170     1561        /**/
      171     1562        /**/
      172     1563        /**/
      173     1564    2   ERR1:   IF EFLG~=0 THEN DO;             /* GOT ERROR ON FAST PATH             */

   1564  1 000276   200012 235100       ERR1         LDA     EFLG,,AUTO
         1 000277   000313 600000 1                  TZE     s:1572

      174     1565    2              DA=FM$CFUA.FDFITSDA;         /* START FROM BEGINNING               */

   1565  1 000300   200006 470500                    LDP0    @ACCT$,,AUTO
         1 000301   000000 471500                    LDP1    0,,PR0
         1 000302   100004 235100                    LDA     4,,PR1
         1 000303   200010 755100                    STA     DA,,AUTO

      175     1566    2              EFLG=0;                      /* DON'T COME HERE AGAIN              */

   1566  1 000304   200012 450100                    STZ     EFLG,,AUTO

      176     1567    2              LCDA=0;

   1567  1 000305   200011 450100                    STZ     LCDA,,AUTO

      177     1568    2              FM$CFUA.FDCSDA=DA;           /* MAKE SURE GOOD DISK ADDR HERE      */

   1568  1 000306   000000 471500                    LDP1    0,,PR0
         1 000307   100003 755100                    STA     3,,PR1

      178     1569    2              B$JIT.ERR='0'B;              /* FORGET ABOUT ERROR                 */

PL6.E3A0      #001=FMQ$SRCHFD File=FMQ$DIR.:E05TSI                               TUE 07/29/97 16:59 Page:24
   1569  1 000310   000000 471400 xsym               LDP1    B$JIT$
         1 000311   100012 450100                    STZ     10,,PR1

      179     1570    2              GOTO READ;

   1570  1 000312   000032 710000 1                  TRA     READ

      180     1571    2              END;
      181     1572    1           GOTO ERR;

   1572  1 000313   000227 710000 1                  TRA     ERR

ERRNOKEY
 Sect OctLoc
   0     000   061521 001022                                                    1...

(unnamed)
 Sect OctLoc
   2     000   743777 777777   000003 006000                                    ........
      182     1573        /**/
      183     1574    1   END FMQ$SRCHFD;
      184     1575        %EOD;

PL6.E3A0      #001=FMQ$SRCHFD File=FMQ$DIR.:E05TSI                               TUE 07/29/97 16:59 Page:25
--  Include file information  --

   F$DCB.:E05TOU  is referenced.
   F$CP6V_C.:E05TOU  is referenced.
   F_ERRORS_C.:E05TOU  is referenced.
   FM$MACROS.:E05TOU  is referenced.
   B$JIT_C.:E05TOU  is referenced.
   F$JIT_C.:E05TOU  cannot be made into a system file and is referenced.
      No diagnostics issued in procedure FMQ$SRCHFD.
PL6.E3A0      #001=FMQ$SRCHFD File=FMQ$DIR.:E05TSI                               TUE 07/29/97 16:59 Page:26

 **** Variables and constants ****

  ****  Section 000 RoData FMQ$SRCHFD

  ****  Scalars and arrays  ****
OctLoc.c.b A Datatyp(siz) R M Lvl/name                 OctLoc.c.b A Datatyp(siz) R M Lvl/name

     0-0-0/b STRC        r     1 ERRNOKEY

  ****  Auto variables  ****

  ****  Scalars and arrays  ****
OctLoc.c.b A Datatyp(siz) R M Lvl/name                 OctLoc.c.b A Datatyp(siz) R M Lvl/name

     6-0-0/w PTR         r     1 @ACCT$                     7-0-0/w PTR         r     1 @FPT$
     4-0-0/w PTR         r     1 @KEY$                      3-0-0/w PTR         r     1 @KEYIN$
     5-0-0/w PTR         r     1 @SEG$                     *0-0-0/w PTR         r     1 ACCT$
    14-0-0/w PTR         r     1 BUF$                      10-0-0/w SBIN        r     1 DA
    12-0-0/w SBIN        r     1 EFLG                      *0-0-0/w PTR         r     1 FPT$
    13-0-0/w PTR         r     1 JDCB$                     *0-0-0/w PTR         r     1 KEY$
    *0-0-0/w PTR         r     1 KEYIN$                    11-0-0/w SBIN        r     1 LCDA
    *0-0-0/w PTR         r     1 SEG$

  ****  SYMREF variables  ****

  ****  Scalars and arrays  ****
OctLoc.c.b A Datatyp(siz) R M Lvl/name                 OctLoc.c.b A Datatyp(siz) R M Lvl/name

     0-0-0/w PTR         r     1 B$JIT$

  ****  BASED and DCB variables  ****

  ****  Scalars and arrays  ****
OctLoc.c.b A Datatyp(siz) R M Lvl/name                 OctLoc.c.b A Datatyp(siz) R M Lvl/name

     0-0-0/d STRC(8856)  r     1 B$JIT                      0-0-0/d ASTR(3528)  r     1 F$DCB
     0-0-0/w STRC(288)   r     1 FM$CFUA                    0-0-0/w STRC        r     1 FM$FDSEG
PL6.E3A0      #001=FMQ$SRCHFD File=FMQ$DIR.:E05TSI                               TUE 07/29/97 16:59 Page:27
     0-0-0/w ASTR(9)     r     1 FM$KEYENT                  0-0-0/d STRC(756)   r     1 FPT$OPEN_V


   Procedure FMQ$SRCHFD requires 204 words for executable code.
   Procedure FMQ$SRCHFD requires 20 words of local(AUTO) storage.
PL6.E3A0      #001=FMQ$SRCHFD File=FMQ$DIR.:E05TSI                               TUE 07/29/97 16:59 Page:28
          *** CROSS REFERENCE LISTING ***
**     DENOTES     IDENTIFIER DEFINITION
<<                 IDENTIFIER'S VALUE SET
>>                 IDENTIFIER'S VALUE USED
<>                 IDENTIFIER SET AND/OR USED
--                 IDENTIFIER REFERENCED
PL6.E3A0      #001=FMQ$SRCHFD File=FMQ$DIR.:E05TSI                               TUE 07/29/97 16:59 Page:29
          MINI XREF LISTING

ACCT$
        46**DCL        41--PROC     1437--IMP-PTR  1481>>ASSIGN   1554>>ASSIGN   1559>>ASSIGN   1565>>ASSIGN
      1568>>ASSIGN
B$JIT.DCB$
       472**DCL      1473>>ASSIGN
B$JIT.ERR
       382**DCL      1497<<ASSIGN   1536<<ASSIGN   1555<<ASSIGN   1569<<ASSIGN
B$JIT.ERR.CODE
       383**DCL      1502>>IF       1535>>IF       1542>>IF       1546>>IF
B$JIT.ERR.MID
       383**DCL       383--REDEF
B$JIT.STAR.DA
       472**DCL      1476>>ASSIGN
B$JIT$
      1378**DCL       377--IMP-PTR  1473>>ASSIGN   1476>>ASSIGN   1497>>ASSIGN   1502>>IF       1535>>IF
      1536>>ASSIGN   1542>>IF       1546>>IF       1555>>ASSIGN   1569>>ASSIGN
BUF$
        53**DCL      1486<>CALL
CHKBOF
      1542**LABEL    1517--CALLALT
CHKEOF
      1546**LABEL    1520--CALLALT
DA
        49**DCL      1476<<ASSIGN   1481<<ASSIGN   1486<>CALL     1494<>CALL     1509<>CALL     1517<>CALL
      1520<>CALL     1565<<ASSIGN   1568>>ASSIGN
DONE
      1553**LABEL    1500--GOTO     1526--GOTO     1528--GOTO     1532--GOTO
DONENOKEY
      1558**LABEL    1498--GOTO     1503--GOTO     1543--GOTO     1547--GOTO
EFLG
        51**DCL      1478<<ASSIGN   1483<<ASSIGN   1486<>CALL     1564>>IF       1566<<ASSIGN
ERR
PL6.E3A0      #001=FMQ$SRCHFD File=FMQ$DIR.:E05TSI                               TUE 07/29/97 16:59 Page:30
      1539**LABEL    1505--GOTO     1545--GOTO     1549--GOTO     1572--GOTO
ERR1
      1564**LABEL    1486--CALLALT
ERRNOKEY
      1469**DCL      1497>>ASSIGN
F$DCB.ACTPOS
      1412**DCL      1412--REDEF
F$DCB.ARS
      1387**DCL      1387--REDEF
F$DCB.ATTR
      1405**DCL      1406--REDEF
F$DCB.BFR.DA
      1432**DCL      1554>>ASSIGN   1559>>ASSIGN
F$DCB.BORROW
      1420**DCL      1420--REDEF    1420--REDEF    1420--REDEF
F$DCB.DCBNAME.L
      1434**DCL      1434--IMP-SIZ
F$DCB.EOMCHAR
      1391**DCL      1391--REDEF
F$DCB.FLDID
      1415**DCL      1415--REDEF
F$DCB.FORM$
      1409**DCL      1409--REDEF
F$DCB.FSECT
      1425**DCL      1425--REDEF
F$DCB.FSN
      1402**DCL      1402--REDEF    1402--REDEF    1403--REDEF
F$DCB.GTYP
      1416**DCL      1474<<ASSIGN
F$DCB.HEADER$
      1408**DCL      1408--REDEF
F$DCB.IXTNSIZE
      1406**DCL      1406--REDEF
F$DCB.LASTSTA$
      1396**DCL      1396--REDEF
F$DCB.LVL
PL6.E3A0      #001=FMQ$SRCHFD File=FMQ$DIR.:E05TSI                               TUE 07/29/97 16:59 Page:31
      1421**DCL      1421--REDEF
F$DCB.NAME.C
      1396**DCL      1396--REDEF
F$DCB.NOEOF
      1417**DCL      1417--REDEF
F$DCB.NRECS
      1407**DCL      1407--REDEF
F$DCB.NRECX
      1426**DCL      1426--REDEF
F$DCB.OHDR
      1418**DCL      1418--REDEF
F$DCB.ORG
      1401**DCL      1401--REDEF
F$DCB.PRECNO
      1424**DCL      1424--REDEF
F$DCB.RCSZ
      1429**DCL      1429--REDEF
F$DCB.RES
      1397**DCL      1397--REDEF
F$DCB.RPOS
      1418**DCL      1516<<ASSIGN
F$DCB.SETX
      1409**DCL      1409--REDEF
F$DCB.STARF
      1416**DCL      1475>>IF       1553>>IF       1558>>IF
F$DCB.TAB$
      1408**DCL      1409--REDEF
F$DCB.TDA
      1423**DCL      1423--REDEF
F$DCB.WSN
      1398**DCL      1398--REDEF
FM$CFUA.FDCSDA
      1437**DCL      1481>>ASSIGN   1554<<ASSIGN   1559<<ASSIGN   1568<<ASSIGN
FM$CFUA.FDFITSDA
      1437**DCL      1565>>ASSIGN
FM$FDSEG.DESC
PL6.E3A0      #001=FMQ$SRCHFD File=FMQ$DIR.:E05TSI                               TUE 07/29/97 16:59 Page:32
      1446**DCL      1527>>IF
FM$KEYENT.D
      1443**DCL      1496>>IF       1531>>IF
FM$KEYENT.KLB
      1443**DCL      1443--IMP-SIZ
FMD$FLSHBUF
      1381**DCL-ENT  1539--CALL
FMD$REDBUF
      1380**DCL-ENT  1486--CALL
FMG$CURKEY
      1382**DCL-ENT  1517--CALL
FMG$FINDKEY
      1383**DCL-ENT  1494--CALL     1509--CALL
FMG$NXTKEY
      1384**DCL-ENT  1520--CALL
FPT$
        47**DCL        41--PROC     1450--IMP-PTR  1488>>IF       1489>>IF       1511>>IF       1515>>IF
      1524>>IF       1525>>IF       1527>>IF
FPT$OPEN_V.FSN
      1460**DCL      1460--REDEF    1461--REDEF
FPT$OPEN_V.OPER.NXTF
      1451**DCL      1489>>IF
FPT$OPEN_V.OPER.THISF
      1451**DCL      1511>>IF
FPT$OPEN_V.SRCHCOND
      1452**DCL      1524>>IF       1527>>IF
FPT$OPEN_V.SRCHCOND.ANYF
      1453**DCL      1525>>IF
FPT$OPEN_V.SRCHCOND.REV
      1453**DCL      1515>>IF
JDCB$
        52**DCL      1387--IMP-PTR  1473<<ASSIGN   1474>>ASSIGN   1475>>IF       1516>>ASSIGN   1553>>IF
      1554>>ASSIGN   1558>>IF       1559>>ASSIGN
KEY$
        44**DCL        41--PROC     1443--IMP-PTR  1494<>CALL     1496>>IF       1509<>CALL     1517<>CALL
      1520<>CALL     1531>>IF
PL6.E3A0      #001=FMQ$SRCHFD File=FMQ$DIR.:E05TSI                               TUE 07/29/97 16:59 Page:33
KEYIN$
        43**DCL        41--PROC     1494<>CALL     1509<>CALL
LCDA
        50**DCL      1477<<ASSIGN   1482<<ASSIGN   1486<>CALL     1567<<ASSIGN
NOKEY
      1502**LABEL    1494--CALLALT
NXTF
      1509**LABEL    1490--GOTO
NXTF20
      1514**LABEL    1537--GOTO
NXTF30
      1524**LABEL    1512--GOTO
NXTF40
      1535**LABEL    1509--CALLALT
READ
      1486**LABEL    1570--GOTO
SEG$
        45**DCL        41--PROC     1446--IMP-PTR  1494<>CALL     1509<>CALL     1517<>CALL     1520<>CALL
      1527>>IF
PL6.E3A0      #001=FMQ$SRCHFD File=FMQ$DIR.:E05TSI                               TUE 07/29/97 16:59 Page:34
              *** CROSS REFERENCE LISTING ***
    **     DENOTES     IDENTIFIER DEFINITION
    <<                 IDENTIFIER'S VALUE SET
    >>                 IDENTIFIER'S VALUE USED
    <>                 IDENTIFIER SET AND/OR USED
    --                 IDENTIFIER REFERENCED
PL6.E3A0      #001=FMQ$SRCHFD File=FMQ$DIR.:E05TSI                               TUE 07/29/97 16:59 Page:35
              MINI UREF LISTING

FMQ$SRCHFD      41**PROC

PL6.E3A0      #002=FMQ$SRCHAD File=FMQ$DIR.:E05TSI                               TUE 07/29/97 17:00 Page:36
      185        1        /*T***********************************************************/
      186        2        /*T*                                                         */
      187        3        /*T* Copyright (c) Bull HN Information Systems Inc., 1997    */
      188        4        /*T*                                                         */
      189        5        /*T***********************************************************/
      190        6        /*F*   NAME:   FMQ$SRCHAD
      191        7        *      PURPOSE:  Search an account directory                                 */
      192        8                                                                                  /*
      193        9                                                                                   *
      194       10                                                                                     */
      195       11        /*D*   NAME:   FMQ$SRCHAD
      196       12        *      CALL:   CALL FMQ$SRCHAD(KEY$,FPT$) ALTRET(LOC);
      197       13        *      INPUT:  DCB.ACCT - The account to search for.
      198       14        *              DCB.SETX - 0 to search MAD, else SETX of the set
      199       15        *                 whose PAD is to be searched.
      200       16        *              FPT$ - Ptr to FPT (may be NIL)
      201       17        *      OUTPUT: KEY$ - Ptr to the key found
      202       18        *      DESCRIPTION:  The directory must already be reserved.
      203       19        *        The first granule of the MAD or PAD is read.  If no FPT is
      204       20        *        specified or if NXTA is not requested, FMG$FINDKEY is called
      205       21        *        to find the desried account.  Return if found, altret if not.
      206       22        *        If NXTA is requested, call FMG$LOCKEY.  Call FMG$NXTKEY or
      207       23        *        FMG$CURKEY to locate the next entry in either forward or
      208       24        *        reverse direction (reverse if SRCHCOND.REV is set).
      209       25        *        Altret if no more entries.
      210       26        */
      211       27        /**/
      212       28        FMQ$SRCHAD: PROC(KEY$,FPT$) ALTRET;
      213       29        /* PARAMETERS */
      214       30    1   DCL KEY$ PTR;
      215       31    1   DCL FPT$ PTR;
      216       32        /* LOCAL AUTOMATIC STORAGE */
      217       33    1   DCL JDCB$ PTR;
      218       34    1   DCL DA SBIN WORD;
      219       35    1   DCL BUF$ PTR;
      220       36    1   DCL ACCT$ PTR;
      221       37    1   DCL PACKACCT CHAR(8);
PL6.E3A0      #002=FMQ$SRCHAD File=FMQ$DIR.:E05TSI                               TUE 07/29/97 17:00 Page:37
      222       38        /* INCLUDE FILES */
      223       39        %MACRO F$DCB(BASED="BASED(JDCB$)");
      224       40        %INCLUDE F$DCB;
      225       89        %MEND;
      226       90        %INCLUDE FM$GRAN;
      227      159        %INCLUDE F$JIT_C;
      228      589        %INCLUDE F_ERRORS_C;
      229      829        %INCLUDE F$CP6V_C;
      230     1055        /* BASED STRUCTURES */
      231     1056        %FPT$OPEN_V (BASED="BASED(FPT$)");
      232     1071        %F$DCB;
      233     1121        /* EXTERNAL DATA */
      234     1122    1   DCL B$JIT$ PTR SYMREF;
      235     1123    1   DCL FM_MADSDA UBIN SYMREF;
      236     1124    1   DCL FM_PADSDA UBIN SYMREF;
      237     1125    1   DCL FM_SYSSETX UBIN SYMREF;
      238     1126        /* EXTERNAL ROUTINES */
      239     1127    1   DCL FMD$REDBUF ENTRY(6) ALTRET;
      240     1128    1   DCL FMG$CURKEY ENTRY(3) ALTRET;
      241     1129    1   DCL FMG$FINDKEY ENTRY(4) ALTRET;
      242     1130    1   DCL FMG$NXTKEY ENTRY(3) ALTRET;
      243     1131    1   DCL FMO$PACKACCT ENTRY(2);
      244     1132        /**/
      245     1133    1           JDCB$=B$JIT.DCB$;
      246     1134    2           IF F$DCB.SETX=0 THEN DO;
      247     1135    2              DA=FM_MADSDA;                /* READ MAD                           */
      248     1136    2              F$DCB.GTYP=FMGTMAD;
      249     1137    2              F$DCB.SETX=FM_SYSSETX;       /* SYSTEM PACK SET INDEX              */
      250     1138    2              END;
      251     1139    2           ELSE DO;
      252     1140    2              DA=FM_PADSDA;
      253     1141    2              F$DCB.GTYP=FMGTPAD;
      254     1142    2              END;
      255     1143    1           ACCT$=ADDR(PACKACCT);
      256     1144    1           CALL FMO$PACKACCT(JDCB$,ACCT$);
      257     1145    1           CALL FMD$REDBUF(BUF$,1,DA,0,0) ALTRET(ERR);
      258     1146        /**/
PL6.E3A0      #002=FMQ$SRCHAD File=FMQ$DIR.:E05TSI                               TUE 07/29/97 17:00 Page:38
      259     1147    1           IF FPT$~=ADDR(NIL) THEN         /* THERE IS AN FPT                    */
      260     1148    2              IF FPT$OPEN_V.OPER.NXTA THEN DO; /* WANT NEXT ACCOUNT              */
      261     1149    2                 CALL FMG$FINDKEY(DA,DA,KEY$,ACCT$) ALTRET(NOKNXT);
      262     1150    3   NXTA:         IF FPT$OPEN_V.SRCHCOND.REV THEN DO; /* WANT PREV                */
      263     1151    3                    F$DCB.RPOS='1'B;
      264     1152    3                    CALL FMG$CURKEY(DA,DA,KEY$) ALTRET(ERR);
      265     1153    3                    END;
      266     1154    2                 ELSE
      267     1155    2                 CALL FMG$NXTKEY(DA,DA,KEY$) ALTRET(ERR);
      268     1156    2                 GOTO DONE;
      269     1157        /**/
      270     1158    3   NOKNXT:       IF B$JIT.ERR.CODE=%E$NOKEY THEN DO;
      271     1159    3                    B$JIT.ERR='0'B;        /* Get rid of spurious error          */
      272     1160    3                    GOTO NXTA;
      273     1161    3                    END;
      274     1162    2                 ELSE
      275     1163    2                    GOTO ERR;
      276     1164    2                 END;
      277     1165        /**/
      278     1166        /**/
      279     1167    1              CALL FMG$FINDKEY(DA,DA,KEY$,ACCT$) ALTRET(ERR);
      280     1168        /**/
      281     1169    1   DONE:      B$JIT.ERR='0'B;
      282     1170    1              RETURN;
      283     1171    1   ERR:       ;
      284     1172    1              ALTRETURN;
      285     1173        /**/
      286     1174    1   END FMQ$SRCHAD;
      287     1175        %EOD;

PL6.E3A0      #002=FMQ$SRCHAD File=FMQ$DIR.:E05TSI                               TUE 07/29/97 17:00 Page:39
--  Include file information  --

   F$CP6V_C.:E05TOU  is referenced.
   F_ERRORS_C.:E05TOU  is referenced.
   B$JIT_C.:E05TOU  is referenced.
   F$JIT_C.:E05TOU  cannot be made into a system file and is referenced.
   FM$GRAN.:E05TOU  is referenced.
   F$DCB.:E05TOU  is referenced.
      No diagnostics issued in procedure FMQ$SRCHAD.

   Procedure FMQ$SRCHAD requires 119 words for executable code.
   Procedure FMQ$SRCHAD requires 18 words of local(AUTO) storage.

PL6.E3A0      #002=FMQ$SRCHAD File=FMQ$DIR.:E05TSI                               TUE 07/29/97 17:00 Page:40

 Object Unit name= FMQ$SRCHAD                                 File name= FMQ$DIR.:E05TOU
 UTS= JUL 29 '97 17:00:10.72 TUE                              Compiler= PL-6/E31         Sev=      00
 SharedLib= :SHARED_SYSTEM                                    Alt SharedLib=


    ****  Control sections  ****

 Sect   Type Bound  Init  Size OctSiz  Section name(segment info)
    0   Proc  even  none   119    167  FMQ$SRCHAD
    1  RoData even  none     3      3  FMQ$SRCHAD

    ****  Entry defs  ****

                              Check   Calling
                             calling  sequence
  Sect OctLoc Primary Altret sequence   type   Parms  Name
     0      0   yes    yes     yes      Std        2  FMQ$SRCHAD

  ****  Entry refs  ****

         Check        Calling
        calling       sequence
Altret sequence SRef   type   Args  Name
         yes           Std       2 FMO$PACKACCT
 yes     yes           Std       4 FMG$FINDKEY
 yes     yes           Std       3 FMG$NXTKEY
 yes     yes           Std       3 FMG$CURKEY
 yes     yes           Std       6 FMD$REDBUF
                       nStd      0 X66_AUTO_2
                       Std       0 B_CONSPOOL_D
                       nStd      0 X66_ARET
                       nStd      0 X66_AALT
PL6.E3A0      #002=FMQ$SRCHAD File=FMQ$DIR.:E05TSI                               TUE 07/29/97 17:00 Page:41

  ****  Data refs  ****

  Flags:  r = read only, s = secondary
Flgs Name                             Flgs Name                             Flgs Name
     B$JIT$                                FM_MADSDA                             FM_PADSDA
     FM_SYSSETX                            B_VECTNIL

  ****  Segment refs  ****

  Flags:  r = read only, s = secondary
Flgs Name                             Flgs Name                             Flgs Name
     ISSID
PL6.E3A0      #002=FMQ$SRCHAD File=FMQ$DIR.:E05TSI                               TUE 07/29/97 17:00 Page:42


      185        1        /*T***********************************************************/
      186        2        /*T*                                                         */
      187        3        /*T* Copyright (c) Bull HN Information Systems Inc., 1997    */
      188        4        /*T*                                                         */
      189        5        /*T***********************************************************/
      190        6        /*F*   NAME:   FMQ$SRCHAD
      191        7        *      PURPOSE:  Search an account directory                                 */
      192        8                                                                                  /*
      193        9                                                                                   *
      194       10                                                                                     */
      195       11        /*D*   NAME:   FMQ$SRCHAD
      196       12        *      CALL:   CALL FMQ$SRCHAD(KEY$,FPT$) ALTRET(LOC);
      197       13        *      INPUT:  DCB.ACCT - The account to search for.
      198       14        *              DCB.SETX - 0 to search MAD, else SETX of the set
      199       15        *                 whose PAD is to be searched.
      200       16        *              FPT$ - Ptr to FPT (may be NIL)
      201       17        *      OUTPUT: KEY$ - Ptr to the key found
      202       18        *      DESCRIPTION:  The directory must already be reserved.
      203       19        *        The first granule of the MAD or PAD is read.  If no FPT is
      204       20        *        specified or if NXTA is not requested, FMG$FINDKEY is called
      205       21        *        to find the desried account.  Return if found, altret if not.
      206       22        *        If NXTA is requested, call FMG$LOCKEY.  Call FMG$NXTKEY or
      207       23        *        FMG$CURKEY to locate the next entry in either forward or
      208       24        *        reverse direction (reverse if SRCHCOND.REV is set).
      209       25        *        Altret if no more entries.
      210       26        */
      211       27        /**/
      212       28        FMQ$SRCHAD: PROC(KEY$,FPT$) ALTRET;

     28  0 000000   000000 700200 xent  FMQ$SRCHAD   TSX0  ! X66_AUTO_2
         0 000001   000022 000002                    ZERO    18,2

      213       29        /* PARAMETERS */
      214       30    1   DCL KEY$ PTR;
      215       31    1   DCL FPT$ PTR;
      216       32        /* LOCAL AUTOMATIC STORAGE */
PL6.E3A0      #002=FMQ$SRCHAD File=FMQ$DIR.:E05TSI                               TUE 07/29/97 17:00 Page:43
      217       33    1   DCL JDCB$ PTR;
      218       34    1   DCL DA SBIN WORD;
      219       35    1   DCL BUF$ PTR;
      220       36    1   DCL ACCT$ PTR;
      221       37    1   DCL PACKACCT CHAR(8);
      222       38        /* INCLUDE FILES */
      223       39        %MACRO F$DCB(BASED="BASED(JDCB$)");
      224       40        %INCLUDE F$DCB;
      225       89        %MEND;
      226       90        %INCLUDE FM$GRAN;
      227      159        %INCLUDE F$JIT_C;
      228      589        %INCLUDE F_ERRORS_C;
      229      829        %INCLUDE F$CP6V_C;
      230     1055        /* BASED STRUCTURES */
      231     1056        %FPT$OPEN_V (BASED="BASED(FPT$)");
      232     1071        %F$DCB;
      233     1121        /* EXTERNAL DATA */
      234     1122    1   DCL B$JIT$ PTR SYMREF;
      235     1123    1   DCL FM_MADSDA UBIN SYMREF;
      236     1124    1   DCL FM_PADSDA UBIN SYMREF;
      237     1125    1   DCL FM_SYSSETX UBIN SYMREF;
      238     1126        /* EXTERNAL ROUTINES */
      239     1127    1   DCL FMD$REDBUF ENTRY(6) ALTRET;
      240     1128    1   DCL FMG$CURKEY ENTRY(3) ALTRET;
      241     1129    1   DCL FMG$FINDKEY ENTRY(4) ALTRET;
      242     1130    1   DCL FMG$NXTKEY ENTRY(3) ALTRET;
      243     1131    1   DCL FMO$PACKACCT ENTRY(2);
      244     1132        /**/
      245     1133    1           JDCB$=B$JIT.DCB$;

   1133  0 000002   000000 470400 xsym               LDP0    B$JIT$
         0 000003   000232 236100                    LDQ     154,,PR0
         0 000004   200005 756100                    STQ     JDCB$,,AUTO

      246     1134    2           IF F$DCB.SETX=0 THEN DO;

   1134  0 000005   200005 471500                    LDP1    JDCB$,,AUTO
PL6.E3A0      #002=FMQ$SRCHAD File=FMQ$DIR.:E05TSI                               TUE 07/29/97 17:00 Page:44
         0 000006   100051 720100                    LXL0    41,,PR1
         0 000007   000021 601000 0                  TNZ     s:1140

      247     1135    2              DA=FM_MADSDA;                /* READ MAD                           */

   1135  0 000010   000000 235000 xsym               LDA     FM_MADSDA
         0 000011   200006 755100                    STA     DA,,AUTO

      248     1136    2              F$DCB.GTYP=FMGTMAD;

   1136  0 000012   100064 236100                    LDQ     52,,PR1
         0 000013   000000 376000 1                  ANQ     0
         0 000014   010000 276003                    ORQ     4096,DU
         0 000015   100064 756100                    STQ     52,,PR1

      249     1137    2              F$DCB.SETX=FM_SYSSETX;       /* SYSTEM PACK SET INDEX              */

   1137  0 000016   000000 721000 xsym               LXL1    FM_SYSSETX
         0 000017   100051 441100                    SXL1    41,,PR1

      250     1138    2              END;

   1138  0 000020   000027 710000 0                  TRA     s:1143

      251     1139    2           ELSE DO;

      252     1140    2              DA=FM_PADSDA;

   1140  0 000021   000000 235000 xsym               LDA     FM_PADSDA
         0 000022   200006 755100                    STA     DA,,AUTO

      253     1141    2              F$DCB.GTYP=FMGTPAD;

   1141  0 000023   100064 236100                    LDQ     52,,PR1
         0 000024   000000 376000 1                  ANQ     0
         0 000025   014000 276003                    ORQ     6144,DU
         0 000026   100064 756100                    STQ     52,,PR1
PL6.E3A0      #002=FMQ$SRCHAD File=FMQ$DIR.:E05TSI                               TUE 07/29/97 17:00 Page:45

      254     1142    2              END;

      255     1143    1           ACCT$=ADDR(PACKACCT);

   1143  0 000027   200011 633500                    EPPR3   PACKACCT,,AUTO
         0 000030   200010 453500                    STP3    ACCT$,,AUTO

      256     1144    1           CALL FMO$PACKACCT(JDCB$,ACCT$);

   1144  0 000031   200010 634500                    EPPR4   ACCT$,,AUTO
         0 000032   200015 454500                    STP4    PACKACCT+4,,AUTO
         0 000033   200005 635500                    EPPR5   JDCB$,,AUTO
         0 000034   200014 455500                    STP5    PACKACCT+3,,AUTO
         0 000035   200014 630500                    EPPR0   PACKACCT+3,,AUTO
         0 000036   000020 631400 xsym               EPPR1   B_VECTNIL+16
         0 000037   000000 701000 xent               TSX1    FMO$PACKACCT
         0 000040   000000 011000                    NOP     0

      257     1145    1           CALL FMD$REDBUF(BUF$,1,DA,0,0) ALTRET(ERR);

   1145  0 000041   000001 236000 1                  LDQ     1
         0 000042   200020 756100                    STQ     PACKACCT+7,,AUTO
         0 000043   200017 756100                    STQ     PACKACCT+6,,AUTO
         0 000044   200006 630500                    EPPR0   DA,,AUTO
         0 000045   200016 450500                    STP0    PACKACCT+5,,AUTO
         0 000046   000002 236000 1                  LDQ     2
         0 000047   200015 756100                    STQ     PACKACCT+4,,AUTO
         0 000050   200007 631500                    EPPR1   BUF$,,AUTO
         0 000051   200014 451500                    STP1    PACKACCT+3,,AUTO
         0 000052   200014 630500                    EPPR0   PACKACCT+3,,AUTO
         0 000053   000023 631400 xsym               EPPR1   B_VECTNIL+19
         0 000054   000000 701000 xent               TSX1    FMD$REDBUF
         0 000055   000166 702000 0                  TSX2    ERR

      258     1146        /**/
      259     1147    1           IF FPT$~=ADDR(NIL) THEN         /* THERE IS AN FPT                    */
PL6.E3A0      #002=FMQ$SRCHAD File=FMQ$DIR.:E05TSI                               TUE 07/29/97 17:00 Page:46

   1147  0 000056   200004 470500                    LDP0    @FPT$,,AUTO
         0 000057   000000 236100                    LDQ     0,,PR0
         0 000060   000001 116000 xsym               CMPQ    B_VECTNIL+1
         0 000061   000147 600000 0                  TZE     s:1167

      260     1148    2              IF FPT$OPEN_V.OPER.NXTA THEN DO; /* WANT NEXT ACCOUNT              */

   1148  0 000062   000000 471500                    LDP1    0,,PR0
         0 000063   100000 236100                    LDQ     0,,PR1
         0 000064   010000 316007                    CANQ    4096,DL
         0 000065   000147 600000 0                  TZE     s:1167

      261     1149    2                 CALL FMG$FINDKEY(DA,DA,KEY$,ACCT$) ALTRET(NOKNXT);

   1149  0 000066   200010 633500                    EPPR3   ACCT$,,AUTO
         0 000067   200017 453500                    STP3    PACKACCT+6,,AUTO
         0 000070   200003 236100                    LDQ     @KEY$,,AUTO
         0 000071   200016 756100                    STQ     PACKACCT+5,,AUTO
         0 000072   200006 631500                    EPPR1   DA,,AUTO
         0 000073   200015 451500                    STP1    PACKACCT+4,,AUTO
         0 000074   200006 634500                    EPPR4   DA,,AUTO
         0 000075   200014 454500                    STP4    PACKACCT+3,,AUTO
         0 000076   200014 630500                    EPPR0   PACKACCT+3,,AUTO
         0 000077   000022 631400 xsym               EPPR1   B_VECTNIL+18
         0 000100   000000 701000 xent               TSX1    FMG$FINDKEY
         0 000101   000140 702000 0                  TSX2    NOKNXT

      262     1150    3   NXTA:         IF FPT$OPEN_V.SRCHCOND.REV THEN DO; /* WANT PREV                */

   1150  0 000102   200004 470500       NXTA         LDP0    @FPT$,,AUTO
         0 000103   000000 471500                    LDP1    0,,PR0
         0 000104   100001 236100                    LDQ     1,,PR1
         0 000105   000001 316003                    CANQ    1,DU
         0 000106   000125 600000 0                  TZE     s:1155

      263     1151    3                    F$DCB.RPOS='1'B;
PL6.E3A0      #002=FMQ$SRCHAD File=FMQ$DIR.:E05TSI                               TUE 07/29/97 17:00 Page:47

   1151  0 000107   200005 473500                    LDP3    JDCB$,,AUTO
         0 000110   010000 236007                    LDQ     4096,DL
         0 000111   300064 256100                    ORSQ    52,,PR3

      264     1152    3                    CALL FMG$CURKEY(DA,DA,KEY$) ALTRET(ERR);

   1152  0 000112   200003 236100                    LDQ     @KEY$,,AUTO
         0 000113   200016 756100                    STQ     PACKACCT+5,,AUTO
         0 000114   200006 631500                    EPPR1   DA,,AUTO
         0 000115   200015 451500                    STP1    PACKACCT+4,,AUTO
         0 000116   200006 634500                    EPPR4   DA,,AUTO
         0 000117   200014 454500                    STP4    PACKACCT+3,,AUTO
         0 000120   200014 630500                    EPPR0   PACKACCT+3,,AUTO
         0 000121   000021 631400 xsym               EPPR1   B_VECTNIL+17
         0 000122   000000 701000 xent               TSX1    FMG$CURKEY
         0 000123   000166 702000 0                  TSX2    ERR

      265     1153    3                    END;

   1153  0 000124   000137 710000 0                  TRA     s:1156

      266     1154    2                 ELSE
      267     1155    2                 CALL FMG$NXTKEY(DA,DA,KEY$) ALTRET(ERR);

   1155  0 000125   200003 236100                    LDQ     @KEY$,,AUTO
         0 000126   200016 756100                    STQ     PACKACCT+5,,AUTO
         0 000127   200006 631500                    EPPR1   DA,,AUTO
         0 000130   200015 451500                    STP1    PACKACCT+4,,AUTO
         0 000131   200006 633500                    EPPR3   DA,,AUTO
         0 000132   200014 453500                    STP3    PACKACCT+3,,AUTO
         0 000133   200014 630500                    EPPR0   PACKACCT+3,,AUTO
         0 000134   000021 631400 xsym               EPPR1   B_VECTNIL+17
         0 000135   000000 701000 xent               TSX1    FMG$NXTKEY
         0 000136   000166 702000 0                  TSX2    ERR

      268     1156    2                 GOTO DONE;
PL6.E3A0      #002=FMQ$SRCHAD File=FMQ$DIR.:E05TSI                               TUE 07/29/97 17:00 Page:48

   1156  0 000137   000163 710000 0                  TRA     DONE

      269     1157        /**/
      270     1158    3   NOKNXT:       IF B$JIT.ERR.CODE=%E$NOKEY THEN DO;

   1158  0 000140   000000 470400 xsym  NOKNXT       LDP0    B$JIT$
         0 000141   000012 236100                    LDQ     10,,PR0
         0 000142   377770 376007                    ANQ     131064,DL
         0 000143   001020 116007                    CMPQ    528,DL
         0 000144   000166 601000 0                  TNZ     ERR

      271     1159    3                    B$JIT.ERR='0'B;        /* Get rid of spurious error          */

   1159  0 000145   000012 450100                    STZ     10,,PR0

      272     1160    3                    GOTO NXTA;

   1160  0 000146   000102 710000 0                  TRA     NXTA

      273     1161    3                    END;
      274     1162    2                 ELSE
      275     1163    2                    GOTO ERR;
      276     1164    2                 END;
      277     1165        /**/
      278     1166        /**/
      279     1167    1              CALL FMG$FINDKEY(DA,DA,KEY$,ACCT$) ALTRET(ERR);

   1167  0 000147   200010 631500                    EPPR1   ACCT$,,AUTO
         0 000150   200017 451500                    STP1    PACKACCT+6,,AUTO
         0 000151   200003 236100                    LDQ     @KEY$,,AUTO
         0 000152   200016 756100                    STQ     PACKACCT+5,,AUTO
         0 000153   200006 633500                    EPPR3   DA,,AUTO
         0 000154   200015 453500                    STP3    PACKACCT+4,,AUTO
         0 000155   200006 634500                    EPPR4   DA,,AUTO
         0 000156   200014 454500                    STP4    PACKACCT+3,,AUTO
         0 000157   200014 630500                    EPPR0   PACKACCT+3,,AUTO
PL6.E3A0      #002=FMQ$SRCHAD File=FMQ$DIR.:E05TSI                               TUE 07/29/97 17:00 Page:49
         0 000160   000022 631400 xsym               EPPR1   B_VECTNIL+18
         0 000161   000000 701000 xent               TSX1    FMG$FINDKEY
         0 000162   000166 702000 0                  TSX2    ERR

      280     1168        /**/
      281     1169    1   DONE:      B$JIT.ERR='0'B;

   1169  0 000163   000000 470400 xsym  DONE         LDP0    B$JIT$
         0 000164   000012 450100                    STZ     10,,PR0

      282     1170    1              RETURN;

   1170  0 000165   000000 702200 xent               TSX2  ! X66_ARET

   1160  0 000166                       ERR          null
      283     1171    1   ERR:       ;
      284     1172    1              ALTRETURN;

   1172  0 000166   000000 702200 xent               TSX2  ! X66_AALT

(unnamed)
 Sect OctLoc
   1     000   743777 777777   000002 006000   000003 006000                    ............
      285     1173        /**/
      286     1174    1   END FMQ$SRCHAD;
      287     1175        %EOD;

PL6.E3A0      #002=FMQ$SRCHAD File=FMQ$DIR.:E05TSI                               TUE 07/29/97 17:00 Page:50
--  Include file information  --

   F$CP6V_C.:E05TOU  is referenced.
   F_ERRORS_C.:E05TOU  is referenced.
   B$JIT_C.:E05TOU  is referenced.
   F$JIT_C.:E05TOU  cannot be made into a system file and is referenced.
   FM$GRAN.:E05TOU  is referenced.
   F$DCB.:E05TOU  is referenced.
      No diagnostics issued in procedure FMQ$SRCHAD.
PL6.E3A0      #002=FMQ$SRCHAD File=FMQ$DIR.:E05TSI                               TUE 07/29/97 17:00 Page:51

 **** Variables and constants ****

  ****  Auto variables  ****

  ****  Scalars and arrays  ****
OctLoc.c.b A Datatyp(siz) R M Lvl/name                 OctLoc.c.b A Datatyp(siz) R M Lvl/name

     4-0-0/w PTR         r     1 @FPT$                      3-0-0/w PTR         r     1 @KEY$
    10-0-0/w PTR         r     1 ACCT$                      7-0-0/w PTR         r     1 BUF$
     6-0-0/w SBIN        r     1 DA                        *0-0-0/w PTR         r     1 FPT$
     5-0-0/w PTR         r     1 JDCB$                     *0-0-0/w PTR         r     1 KEY$
    11-0-0/c CHAR(8)     r     1 PACKACCT

  ****  SYMREF variables  ****

  ****  Scalars and arrays  ****
OctLoc.c.b A Datatyp(siz) R M Lvl/name                 OctLoc.c.b A Datatyp(siz) R M Lvl/name

     0-0-0/w PTR         r     1 B$JIT$                     0-0-0/w UBIN        r     1 FM_MADSDA
     0-0-0/w UBIN        r     1 FM_PADSDA                  0-0-0/w UBIN        r     1 FM_SYSSETX

  ****  BASED and DCB variables  ****

  ****  Scalars and arrays  ****
OctLoc.c.b A Datatyp(siz) R M Lvl/name                 OctLoc.c.b A Datatyp(siz) R M Lvl/name

     0-0-0/d STRC(8856)  r     1 B$JIT                      0-0-0/d ASTR(3528)  r     1 F$DCB
     0-0-0/d STRC(756)   r     1 FPT$OPEN_V


   Procedure FMQ$SRCHAD requires 119 words for executable code.
   Procedure FMQ$SRCHAD requires 18 words of local(AUTO) storage.
PL6.E3A0      #002=FMQ$SRCHAD File=FMQ$DIR.:E05TSI                               TUE 07/29/97 17:00 Page:52
          *** CROSS REFERENCE LISTING ***
**     DENOTES     IDENTIFIER DEFINITION
<<                 IDENTIFIER'S VALUE SET
>>                 IDENTIFIER'S VALUE USED
<>                 IDENTIFIER SET AND/OR USED
--                 IDENTIFIER REFERENCED
PL6.E3A0      #002=FMQ$SRCHAD File=FMQ$DIR.:E05TSI                               TUE 07/29/97 17:00 Page:53
          MINI XREF LISTING

ACCT$
        36**DCL      1143<<ASSIGN   1144<>CALL     1149<>CALL     1167<>CALL
B$JIT.DCB$
       576**DCL      1133>>ASSIGN
B$JIT.ERR
       486**DCL      1159<<ASSIGN   1169<<ASSIGN
B$JIT.ERR.CODE
       487**DCL      1158>>IF
B$JIT.ERR.MID
       487**DCL       487--REDEF
B$JIT$
      1122**DCL       481--IMP-PTR  1133>>ASSIGN   1158>>IF       1159>>ASSIGN   1169>>ASSIGN
BUF$
        35**DCL      1145<>CALL
DA
        34**DCL      1135<<ASSIGN   1140<<ASSIGN   1145<>CALL     1149<>CALL     1149<>CALL     1152<>CALL
      1152<>CALL     1155<>CALL     1155<>CALL     1167<>CALL     1167<>CALL
DONE
      1169**LABEL    1156--GOTO
ERR
      1160**LABEL    1145--CALLALT  1152--CALLALT  1155--CALLALT  1163--GOTO     1167--CALLALT
F$DCB.ACTPOS
      1097**DCL      1097--REDEF
F$DCB.ARS
      1072**DCL      1072--REDEF
F$DCB.ATTR
      1090**DCL      1091--REDEF
F$DCB.BORROW
      1105**DCL      1105--REDEF    1105--REDEF    1105--REDEF
F$DCB.DCBNAME.L
      1119**DCL      1119--IMP-SIZ
F$DCB.EOMCHAR
PL6.E3A0      #002=FMQ$SRCHAD File=FMQ$DIR.:E05TSI                               TUE 07/29/97 17:00 Page:54
      1076**DCL      1076--REDEF
F$DCB.FLDID
      1100**DCL      1100--REDEF
F$DCB.FORM$
      1094**DCL      1094--REDEF
F$DCB.FSECT
      1110**DCL      1110--REDEF
F$DCB.FSN
      1087**DCL      1087--REDEF    1087--REDEF    1088--REDEF
F$DCB.GTYP
      1101**DCL      1136<<ASSIGN   1141<<ASSIGN
F$DCB.HEADER$
      1093**DCL      1093--REDEF
F$DCB.IXTNSIZE
      1091**DCL      1091--REDEF
F$DCB.LASTSTA$
      1081**DCL      1081--REDEF
F$DCB.LVL
      1106**DCL      1106--REDEF
F$DCB.NAME.C
      1081**DCL      1081--REDEF
F$DCB.NOEOF
      1102**DCL      1102--REDEF
F$DCB.NRECS
      1092**DCL      1092--REDEF
F$DCB.NRECX
      1111**DCL      1111--REDEF
F$DCB.OHDR
      1103**DCL      1103--REDEF
F$DCB.ORG
      1086**DCL      1086--REDEF
F$DCB.PRECNO
      1109**DCL      1109--REDEF
F$DCB.RCSZ
      1114**DCL      1114--REDEF
F$DCB.RES
PL6.E3A0      #002=FMQ$SRCHAD File=FMQ$DIR.:E05TSI                               TUE 07/29/97 17:00 Page:55
      1082**DCL      1082--REDEF
F$DCB.RPOS
      1103**DCL      1151<<ASSIGN
F$DCB.SETX
      1094**DCL      1094--REDEF    1134>>IF       1137<<ASSIGN
F$DCB.TAB$
      1093**DCL      1094--REDEF
F$DCB.TDA
      1108**DCL      1108--REDEF
F$DCB.WSN
      1083**DCL      1083--REDEF
FMD$REDBUF
      1127**DCL-ENT  1145--CALL
FMG$CURKEY
      1128**DCL-ENT  1152--CALL
FMG$FINDKEY
      1129**DCL-ENT  1149--CALL     1167--CALL
FMG$NXTKEY
      1130**DCL-ENT  1155--CALL
FMO$PACKACCT
      1131**DCL-ENT  1144--CALL
FM_MADSDA
      1123**DCL      1135>>ASSIGN
FM_PADSDA
      1124**DCL      1140>>ASSIGN
FM_SYSSETX
      1125**DCL      1137>>ASSIGN
FPT$
        31**DCL        28--PROC     1057--IMP-PTR  1147>>IF       1148>>IF       1150>>IF
FPT$OPEN_V.FSN
      1067**DCL      1067--REDEF    1068--REDEF
FPT$OPEN_V.OPER.NXTA
      1058**DCL      1148>>IF
FPT$OPEN_V.SRCHCOND.REV
      1060**DCL      1150>>IF
JDCB$
PL6.E3A0      #002=FMQ$SRCHAD File=FMQ$DIR.:E05TSI                               TUE 07/29/97 17:00 Page:56
        33**DCL      1072--IMP-PTR  1133<<ASSIGN   1134>>IF       1136>>ASSIGN   1137>>ASSIGN   1141>>ASSIGN
      1144<>CALL     1151>>ASSIGN
KEY$
        30**DCL        28--PROC     1149<>CALL     1152<>CALL     1155<>CALL     1167<>CALL
NOKNXT
      1158**LABEL    1149--CALLALT
NXTA
      1150**LABEL    1160--GOTO
PACKACCT
        37**DCL      1143--ASSIGN
PL6.E3A0      #002=FMQ$SRCHAD File=FMQ$DIR.:E05TSI                               TUE 07/29/97 17:00 Page:57
              *** CROSS REFERENCE LISTING ***
    **     DENOTES     IDENTIFIER DEFINITION
    <<                 IDENTIFIER'S VALUE SET
    >>                 IDENTIFIER'S VALUE USED
    <>                 IDENTIFIER SET AND/OR USED
    --                 IDENTIFIER REFERENCED
PL6.E3A0      #002=FMQ$SRCHAD File=FMQ$DIR.:E05TSI                               TUE 07/29/97 17:00 Page:58
              MINI UREF LISTING

FMQ$SRCHAD      28**PROC

PL6.E3A0      #003=FMQ$BLDFD File=FMQ$DIR.:E05TSI                                TUE 07/29/97 17:00 Page:59
      288        1        /*T***********************************************************/
      289        2        /*T*                                                         */
      290        3        /*T* Copyright (c) Bull HN Information Systems Inc., 1997    */
      291        4        /*T*                                                         */
      292        5        /*T***********************************************************/
      293        6        /*F*   NAME:   FMQ$BLDFD
      294        7        *      PURPOSE:  Create a new file directory                                 */
      295        8                                                                                  /*
      296        9                                                                                   *
      297       10                                                                                  */
      298       11        /*D*   NAME:   FMQ$BLDFD
      299       12        *      CALL:   CALL FMQ$BLDFD(FM$CFUA) ALTRET(LOC);
      300       13        *      INPUT:  FM$CFUA - Account block
      301       14        *      OUTPUT: FM$CFUA.FLAGS.EXIST and NEW changed, FDFITSDA changed.
      302       15        *      DESCRIPTION:  If not the * file directory the PAD is read
      303       16        *        since the PAD FIT is same as FD FIT.  The PAD granule is
      304       17        *        modified to remove all but the FIT, a granule is allocated,
      305       18        *        and buffer is written.  If this is the * directory, it is
      306       19        *        cataloged in JIT and routine exits.  For other directories,
      307       20        *        the FD disk addr is placed in the CFU account block, the
      308       21        *        account directory is reserved for write and searched to
      309       22        *        find the place to insert new name.  Name is inserted via
      310       23        *        FMG$ADDKEY, disk addr is placed in entry, and PAD is written.
      311       24        *        CFU account block flags are changed and PAD reservation
      312       25        *        is released.
      313       26        */
      314       27        /**/
      315       28        FMQ$BLDFD: PROC(FM$CFUA) ALTRET;
      316       29        /* LOCAL AUTOMATIC STORAGE */
      317       30    1   DCL JDCB$ PTR;
      318       31    1   DCL DA SBIN;
      319       32    1   DCL ACN$ PTR;
      320       33    1   DCL BUF$ PTR;
      321       34    1   DCL SEG$ PTR;
      322       35    1   DCL I REDEF SEG$ UBIN;
      323       36    1   DCL PACKACCT CHAR(8);
      324       37    1   DCL PACKACCTB REDEF PACKACCT BIT(72);
PL6.E3A0      #003=FMQ$BLDFD File=FMQ$DIR.:E05TSI                                TUE 07/29/97 17:00 Page:60
      325       38    1   DCL KEY$ PTR;
      326       39    1   DCL PAD$ PTR;
      327       40        /* EXTERNAL ROUTINES */
      328       41    1   DCL FMD$FLSHBUF ENTRY(1);
      329       42    1   DCL FMD$GETBUF ENTRY(3);
      330       43    1   DCL FMD$REDBUFBC ENTRY(6) ALTRET;
      331       44    1   DCL FMO$FDHASH ENTRY(2);
      332       45    1   DCL FMO$LOCCODE ENTRY(2)ALTRET;
      333       46    1   DCL FMO$LOCCODP ENTRY(2)ALTRET;
      334       47    1   DCL FMQ$SRCHAD ENTRY(2) ALTRET;
      335       48    1   DCL FMO$PACKACCT ENTRY(2);
      336       49    1   DCL FMG$ADDKEY ENTRY(4) ALTRET;
      337       50    1   DCL FMD$WRTBUF ENTRY(1);
      338       51    1   DCL FAG$G1DIR ENTRY(1) ALTRET;
      339       52    1   DCL SSS$SYSTIME ENTRY(1);
      340       53    1   DCL UQB$MENQX ENTRY(1)ALTRET;
      341       54    1   DCL UQB$MDEQ ENTRY(1)ALTRET;
      342       55    1   DCL SC_FMQ81 ENTRY CONV(2,0);
      343       56    1   DCL SC_FMQ83 ENTRY CONV(2,0);
      344       57    1   DCL SC_FMQ94 ENTRY CONV(2,0);
      345       58        /* INCLUDE FILES */
      346       59        %INCLUDE F$JIT_C;
      347      489        %INCLUDE F_ERRORS_C;
      348      729        %INCLUDE FM$MACROS;
      349     1104        %INCLUDE CP_6_SUBS;
      350     1644        %MACRO F$DCB(BASED=BASED);
      351     1645        %INCLUDE F$DCB;
      352     1694        %MEND;
      353     1695        /* PARAMETERS */
      354     1696        %FM$CFUA (BASED=PARAM);
      355     1702        /* EXTERNAL DATA */
      356     1703    1   DCL B$JIT$ PTR SYMREF;
      357     1704    1   DCL FM$BUF$(0:0) PTR SYMREF;
      358     1705    1   DCL FM_PADSDA SBIN SYMREF;
      359     1706    1   DCL FM$SET$ PTR SYMREF;
      360     1707        /* BASED STRUCTURES */
      361     1708        %F$DCB (BASED="BASED(JDCB$)");
PL6.E3A0      #003=FMQ$BLDFD File=FMQ$DIR.:E05TSI                                TUE 07/29/97 17:00 Page:61
      362     1758        %FM$GRAN (BASED="BASED(BUF$)");
      363     1762        %FM$SET  (BASED="BASED(FM$SET$)");
      364     1767        %FM$ADKEY (BASED="BASED(KEY$)");
      365     1770        %FM$KEYTBL;
      366     1773        %CODE04(BASED="BASED(SEG$)");
      367     1781        %CODE14(BASED="BASED(PAD$)");
      368     1791        %FM$FIT(BASED="BASED(BUF$)");
      369     1794    1   DCL 1 WRDS20 BASED ALIGNED,
      370     1795    1         2 *(0:19) UBIN;
      371     1796        /* CONSTANTS */
      372     1797    1   DCL 1 INITKEYTBL CONSTANT,
      373     1798    1         2 * UBIN(9) UNAL INIT(SIZEC(FM$KEYTBL));
      374     1799        /**/
      375     1800    1           JDCB$=B$JIT.DCB$;
      376     1801        /**/
      377     1802        /* SCREECH IF DCB AND CFU ACCOUNTS DIFFER */
      378     1803    1           IF NOT F$DCB.STARF THEN
      379     1804    1              IF FM$CFUA.ACCT~=F$DCB.ACCT THEN
      380     1805    1              CALL SC_FMQ83;
      381     1806        /*S*    SCREECH_CODE:   FMQ-S$FM83
      382     1807        *      TYPE:   SUA
      383     1808        *      MESSAGE:  Account in CFU differs from DCB */
      384     1809        /**/
      385     1810    2           IF F$DCB.STARF THEN DO;         /* STAR DIRECTORY                     */
      386     1811    2              CALL FMD$FLSHBUF(0);
      387     1812    2              CALL FMD$GETBUF(0,1,ACN$);
      388     1813    2              BUF$=ACN$;
      389     1814    2              BUF$->WRDS20='0'B;           /* Clear header and a few more words  */
      390     1815    2              FM$GRAN.FCEX=SIZEW(FM$GRAN);
      391     1816    2              END;
      392     1817    2           ELSE DO;                        /* REGULAR DIRECTORY                  */
      393     1818    2              F$DCB.GTYP=FMGTPAD;          /* READ PAD TO GET FIT                */
      394     1819    2              CALL FMD$REDBUFBC(ACN$,0,FM_PADSDA,,0) ALTRET(ERR1);
      395     1820    2              BUF$=ACN$;
      396     1821    2              FM$GRAN.KEYCNT=0;            /* NO KEYS HERE                       */
      397     1822    2              END;
      398     1823    1           CALL FAG$G1DIR(DA) ALTRET(ERR1); /* ALLOCATE A GRANULE                */
PL6.E3A0      #003=FMQ$BLDFD File=FMQ$DIR.:E05TSI                                TUE 07/29/97 17:00 Page:62
      399     1824    1           CALL FMO$FDHASH(B$JIT.DCB$,FM$GRAN.STAMP.HASH);
              1824                    /* CALC HASH               */
      400     1825    1           FM$GRAN.STAMP.GMOD=DA;
      401     1826    1           FM$GRAN.HDR='1'B;
      402     1827    1           FM$GRAN.LVL=FMGTFD;
      403     1828    1           FM$GRAN.NAVX=FM$GRAN.FCEX+SIZEW(FM$KEYTBL);
      404     1829    1           FM$GRAN.AVAIL=1024-FM$GRAN.NAVX;
      405     1830    1           FM$GRAN.FLINK=0;
      406     1831    1           FM$GRAN.BLINK=0;
      407     1832    1           PAD$=PINCRW(BUF$,SIZEW(FM$GRAN));
      408     1833    1           ACN$=PAD$;
      409     1834    1           CALL FMO$LOCCODP(ACN$,4)ALTRET(NOTIMES);
      410     1835    1           SEG$=ACN$;
      411     1836    1           CODE04='0'B;
      412     1837    1           CODE04.CREATOR.NAME=B$JIT.UNAME;
      413     1838    1           CODE04.CREATOR.ACCT=B$JIT.ACCN;
      414     1839    1           CALL SSS$SYSTIME(CODE04.CREATION);
      415     1840    1           CODE04.MODIFY=CODE04.CREATION;
      416     1841    1   NOTIMES:;
      417     1842    1           I=14;
      418     1843    1           CALL FMO$LOCCODE(PAD$,I)ALTRET(NO14);
      419     1844    1           FM$FIT.CODES.NDW(I+SIZEW(FM$GRAN))=SIZEW(CODE14);/*STRIP OWNERS*/
      420     1845    1           CODE14.OWNER.ACCT(0)=' ';
      421     1846    1   NO14:   ;
      422     1847    1           PINCRW(BUF$,FM$GRAN.FCEX)->FM$KEYTBL=INITKEYTBL;
      423     1848    1           F$DCB.BFR.DA(0)=DA;
      424     1849    1           F$DCB.BFR.SCRUB(0)='1'B;
      425     1850    1           CALL FMD$WRTBUF(0);             /* WRITE IT OUT                       */
      426     1851        /**/
      427     1852        /* CATALOG THE FILE DIRECTORY JUST BUILT */
      428     1853        /**/
      429     1854    2           IF F$DCB.STARF THEN DO;
      430     1855    2              B$JIT.STAR.DA(0)=DA;
      431     1856    2              RETURN;
      432     1857    2              END;
      433     1858        /**/
      434     1859    1           PAD$=ADDR(FM$SET(F$DCB.SETX));  /* SET TABLE ADDR                     */
PL6.E3A0      #003=FMQ$BLDFD File=FMQ$DIR.:E05TSI                                TUE 07/29/97 17:00 Page:63
      435     1860        /* RESERVE ACCOUNT DIRECTORY FOR WRITE */
      436     1861    1           CALL UQB$MENQX(PAD$)ALTRET(ENQERR);
      437     1862    1           CALL FMQ$SRCHAD(KEY$,ADDR(NIL)) ALTRET(NOFD);
      438     1863    2           IF FM$ADKEY.D THEN DO;
      439     1864    2              FM$ADKEY.D='0'B;
      440     1865    2              GOTO OLDFD;
      441     1866    2              END;
      442     1867    1           CALL SC_FMQ81;                  /* SCREECH IF ALREADY CATALOGED       */
      443     1868        /*S*    SCREECH_CODE:   FMQ-S$FM81
      444     1869        *       TYPE:   SUA
      445     1870        *       MESSAGE:  FD already exists but CFU block says it is new
      446     1871        */
      447     1872        /**/
      448     1873    1   NOFD:   ACN$=ADDR(PACKACCT);
      449     1874    1           CALL FMO$PACKACCT(B$JIT.DCB$,ACN$); /* CREATE ACCOUNT KEY                 */
      450     1875    1           CALL FMG$ADDKEY(SEG$,SIZEW(FM$ADKEY)-2,KEY$,ACN$) ALTRET(ERR);
      451     1876    1   OLDFD:  ;
      452     1877    1           FM$ADKEY.FDSDA=DA;
      453     1878    1           CALL FMD$WRTBUF(1);
      454     1879        /**/
      455     1880    1           FM$CFUA.FDFITSDA=DA;
      456     1881    1           FM$CFUA.FDCSDA=DA;
      457     1882    1           FM$CFUA.FLAGS.EXIST='1'B;
      458     1883    1           FM$CFUA.FLAGS.NEW='0'B;
      459     1884        /* RELEASE AD RESERVATION */
      460     1885    1           CALL UQB$MDEQ(PAD$);
      461     1886    1           RETURN;
      462     1887                                                /*                                    */
      463     1888    1   ERR:    CALL UQB$MDEQ(PAD$);
      464     1889    1   ERR1:   ALTRETURN;
      465     1890                                                /*                                    */
      466     1891    1   ENQERR: ;
      467     1892    1           CALL SC_FMQ94;
      468     1893        /*S*    SCREECH_CODE:   FMQ-S$FM94
      469     1894        *      TYPE:   SUA
      470     1895        *      MESSAGE:  Error attempting to ENQ or DEQ account directory */
      471     1896    1   END FMQ$BLDFD;
PL6.E3A0      #003=FMQ$BLDFD File=FMQ$DIR.:E05TSI                                TUE 07/29/97 17:00 Page:64
      472     1897        %EOD;

PL6.E3A0      #003=FMQ$BLDFD File=FMQ$DIR.:E05TSI                                TUE 07/29/97 17:00 Page:65
--  Include file information  --

   F$DCB.:E05TOU  is referenced.
   CP_6_SUBS.:E05TOU  is referenced.
   FM$MACROS.:E05TOU  is referenced.
   F_ERRORS_C.:E05TOU  is referenced.
   B$JIT_C.:E05TOU  is referenced.
   F$JIT_C.:E05TOU  cannot be made into a system file and is referenced.
      No diagnostics issued in procedure FMQ$BLDFD.

   Procedure FMQ$BLDFD requires 266 words for executable code.
   Procedure FMQ$BLDFD requires 20 words of local(AUTO) storage.

PL6.E3A0      #003=FMQ$BLDFD File=FMQ$DIR.:E05TSI                                TUE 07/29/97 17:00 Page:66

 Object Unit name= FMQ$BLDFD                                  File name= FMQ$DIR.:E05TOU
 UTS= JUL 29 '97 17:00:30.20 TUE                              Compiler= PL-6/E31         Sev=      00
 SharedLib= :SHARED_SYSTEM                                    Alt SharedLib=


    ****  Control sections  ****

 Sect   Type Bound  Init  Size OctSiz  Section name(segment info)
    0  RoData even  UTS      1      1  FMQ$BLDFD
    1   Proc  even  none   266    412  FMQ$BLDFD
    2  RoData even  none    11     13  FMQ$BLDFD

    ****  Entry defs  ****

                              Check   Calling
                             calling  sequence
  Sect OctLoc Primary Altret sequence   type   Parms  Name
     1      0   yes    yes     yes      Std        1  FMQ$BLDFD
PL6.E3A0      #003=FMQ$BLDFD File=FMQ$DIR.:E05TSI                                TUE 07/29/97 17:00 Page:67

  ****  Entry refs  ****

         Check        Calling
        calling       sequence
Altret sequence SRef   type   Args  Name
         yes           Std       1 FMD$FLSHBUF
 yes     yes           Std       2 FMO$LOCCODP
         yes           Std       1 SSS$SYSTIME
         yes           Std       3 FMD$GETBUF
         yes           Std       1 FMD$WRTBUF
 yes     yes           Std       2 FMQ$SRCHAD
         yes           Std       2 FMO$FDHASH
 yes     yes           Std       2 FMO$LOCCODE
 yes     yes           Std       1 UQB$MENQX
 yes     yes           Std       4 FMG$ADDKEY
 yes     yes           Std       1 UQB$MDEQ
         yes           Std       2 FMO$PACKACCT
 yes     yes           Std       6 FMD$REDBUFBC
 yes     yes           Std       1 FAG$G1DIR
                       nStd      0 X66_AUTO_1
                       Std       0 B_CONSPOOL_D
                       nStd      0 X66_ARET
                       nStd      0 X66_AALT

  ****  Data refs  ****

  Flags:  r = read only, s = secondary
Flgs Name                             Flgs Name                             Flgs Name
     SC_FMQ83                              SC_FMQ81                              SC_FMQ94
     B$JIT$                                FM_PADSDA                             FM$SET$
     B_VECTNIL
PL6.E3A0      #003=FMQ$BLDFD File=FMQ$DIR.:E05TSI                                TUE 07/29/97 17:00 Page:68

  ****  Segment refs  ****

  Flags:  r = read only, s = secondary
Flgs Name                             Flgs Name                             Flgs Name
     ASLENTSID                             ISSID
PL6.E3A0      #003=FMQ$BLDFD File=FMQ$DIR.:E05TSI                                TUE 07/29/97 17:00 Page:69


      288        1        /*T***********************************************************/
      289        2        /*T*                                                         */
      290        3        /*T* Copyright (c) Bull HN Information Systems Inc., 1997    */
      291        4        /*T*                                                         */
      292        5        /*T***********************************************************/
      293        6        /*F*   NAME:   FMQ$BLDFD
      294        7        *      PURPOSE:  Create a new file directory                                 */
      295        8                                                                                  /*
      296        9                                                                                   *
      297       10                                                                                  */
      298       11        /*D*   NAME:   FMQ$BLDFD
      299       12        *      CALL:   CALL FMQ$BLDFD(FM$CFUA) ALTRET(LOC);
      300       13        *      INPUT:  FM$CFUA - Account block
      301       14        *      OUTPUT: FM$CFUA.FLAGS.EXIST and NEW changed, FDFITSDA changed.
      302       15        *      DESCRIPTION:  If not the * file directory the PAD is read
      303       16        *        since the PAD FIT is same as FD FIT.  The PAD granule is
      304       17        *        modified to remove all but the FIT, a granule is allocated,
      305       18        *        and buffer is written.  If this is the * directory, it is
      306       19        *        cataloged in JIT and routine exits.  For other directories,
      307       20        *        the FD disk addr is placed in the CFU account block, the
      308       21        *        account directory is reserved for write and searched to
      309       22        *        find the place to insert new name.  Name is inserted via
      310       23        *        FMG$ADDKEY, disk addr is placed in entry, and PAD is written.
      311       24        *        CFU account block flags are changed and PAD reservation
      312       25        *        is released.
      313       26        */
      314       27        /**/
      315       28        FMQ$BLDFD: PROC(FM$CFUA) ALTRET;

     28  1 000000   000000 700200 xent  FMQ$BLDFD    TSX0  ! X66_AUTO_1
         1 000001   000024 000001                    ZERO    20,1

      316       29        /* LOCAL AUTOMATIC STORAGE */
      317       30    1   DCL JDCB$ PTR;
      318       31    1   DCL DA SBIN;
      319       32    1   DCL ACN$ PTR;
PL6.E3A0      #003=FMQ$BLDFD File=FMQ$DIR.:E05TSI                                TUE 07/29/97 17:00 Page:70
      320       33    1   DCL BUF$ PTR;
      321       34    1   DCL SEG$ PTR;
      322       35    1   DCL I REDEF SEG$ UBIN;
      323       36    1   DCL PACKACCT CHAR(8);
      324       37    1   DCL PACKACCTB REDEF PACKACCT BIT(72);
      325       38    1   DCL KEY$ PTR;
      326       39    1   DCL PAD$ PTR;
      327       40        /* EXTERNAL ROUTINES */
      328       41    1   DCL FMD$FLSHBUF ENTRY(1);
      329       42    1   DCL FMD$GETBUF ENTRY(3);
      330       43    1   DCL FMD$REDBUFBC ENTRY(6) ALTRET;
      331       44    1   DCL FMO$FDHASH ENTRY(2);
      332       45    1   DCL FMO$LOCCODE ENTRY(2)ALTRET;
      333       46    1   DCL FMO$LOCCODP ENTRY(2)ALTRET;
      334       47    1   DCL FMQ$SRCHAD ENTRY(2) ALTRET;
      335       48    1   DCL FMO$PACKACCT ENTRY(2);
      336       49    1   DCL FMG$ADDKEY ENTRY(4) ALTRET;
      337       50    1   DCL FMD$WRTBUF ENTRY(1);
      338       51    1   DCL FAG$G1DIR ENTRY(1) ALTRET;
      339       52    1   DCL SSS$SYSTIME ENTRY(1);
      340       53    1   DCL UQB$MENQX ENTRY(1)ALTRET;
      341       54    1   DCL UQB$MDEQ ENTRY(1)ALTRET;
      342       55    1   DCL SC_FMQ81 ENTRY CONV(2,0);
      343       56    1   DCL SC_FMQ83 ENTRY CONV(2,0);
      344       57    1   DCL SC_FMQ94 ENTRY CONV(2,0);
      345       58        /* INCLUDE FILES */
      346       59        %INCLUDE F$JIT_C;
      347      489        %INCLUDE F_ERRORS_C;
      348      729        %INCLUDE FM$MACROS;
      349     1104        %INCLUDE CP_6_SUBS;
      350     1644        %MACRO F$DCB(BASED=BASED);
      351     1645        %INCLUDE F$DCB;
      352     1694        %MEND;
      353     1695        /* PARAMETERS */
      354     1696        %FM$CFUA (BASED=PARAM);
      355     1702        /* EXTERNAL DATA */
      356     1703    1   DCL B$JIT$ PTR SYMREF;
PL6.E3A0      #003=FMQ$BLDFD File=FMQ$DIR.:E05TSI                                TUE 07/29/97 17:00 Page:71
      357     1704    1   DCL FM$BUF$(0:0) PTR SYMREF;
      358     1705    1   DCL FM_PADSDA SBIN SYMREF;
      359     1706    1   DCL FM$SET$ PTR SYMREF;
      360     1707        /* BASED STRUCTURES */
      361     1708        %F$DCB (BASED="BASED(JDCB$)");
      362     1758        %FM$GRAN (BASED="BASED(BUF$)");
      363     1762        %FM$SET  (BASED="BASED(FM$SET$)");
      364     1767        %FM$ADKEY (BASED="BASED(KEY$)");
      365     1770        %FM$KEYTBL;
      366     1773        %CODE04(BASED="BASED(SEG$)");
      367     1781        %CODE14(BASED="BASED(PAD$)");
      368     1791        %FM$FIT(BASED="BASED(BUF$)");
      369     1794    1   DCL 1 WRDS20 BASED ALIGNED,
      370     1795    1         2 *(0:19) UBIN;
      371     1796        /* CONSTANTS */
      372     1797    1   DCL 1 INITKEYTBL CONSTANT,
      373     1798    1         2 * UBIN(9) UNAL INIT(SIZEC(FM$KEYTBL));
      374     1799        /**/
      375     1800    1           JDCB$=B$JIT.DCB$;

   1800  1 000002   000000 470400 xsym               LDP0    B$JIT$
         1 000003   000232 236100                    LDQ     154,,PR0
         1 000004   200004 756100                    STQ     JDCB$,,AUTO

      376     1801        /**/
      377     1802        /* SCREECH IF DCB AND CFU ACCOUNTS DIFFER */
      378     1803    1           IF NOT F$DCB.STARF THEN

   1803  1 000005   200004 471500                    LDP1    JDCB$,,AUTO
         1 000006   100064 236100                    LDQ     52,,PR1
         1 000007   200000 316003                    CANQ    65536,DU
         1 000010   000020 601000 1                  TNZ     s:1810

      379     1804    1              IF FM$CFUA.ACCT~=F$DCB.ACCT THEN

   1804  1 000011   200003 473500                    LDP3    @FM$CFUA,,AUTO
         1 000012   040100 106500                    CMPC    fill='040'O
PL6.E3A0      #003=FMQ$BLDFD File=FMQ$DIR.:E05TSI                                TUE 07/29/97 17:00 Page:72
         1 000013   300001 000010                    ADSC9   1,,PR3                   cn=0,n=8
         1 000014   100020 000010                    ADSC9   16,,PR1                  cn=0,n=8
         1 000015   000020 600000 1                  TZE     s:1810

      380     1805    1              CALL SC_FMQ83;

   1805  1 000016   000000 713400 xsym               CLIMB   SC_FMQ83
         1 000017   000000 600000 xsid               climb   nvectors=         0

      381     1806        /*S*    SCREECH_CODE:   FMQ-S$FM83
      382     1807        *      TYPE:   SUA
      383     1808        *      MESSAGE:  Account in CFU differs from DCB */
      384     1809        /**/
      385     1810    2           IF F$DCB.STARF THEN DO;         /* STAR DIRECTORY                     */

   1810  1 000020   200004 470500                    LDP0    JDCB$,,AUTO
         1 000021   000064 236100                    LDQ     52,,PR0
         1 000022   200000 316003                    CANQ    65536,DU
         1 000023   000051 600000 1                  TZE     s:1818

      386     1811    2              CALL FMD$FLSHBUF(0);

   1811  1 000024   000000 630400 2                  EPPR0   0
         1 000025   000017 631400 xsym               EPPR1   B_VECTNIL+15
         1 000026   000000 701000 xent               TSX1    FMD$FLSHBUF
         1 000027   000000 011000                    NOP     0

      387     1812    2              CALL FMD$GETBUF(0,1,ACN$);

   1812  1 000030   200006 630500                    EPPR0   ACN$,,AUTO
         1 000031   200020 450500                    STP0    PAD$+4,,AUTO
         1 000032   000002 237000 2                  LDAQ    2
         1 000033   200016 757100                    STAQ    PAD$+2,,AUTO
         1 000034   200016 630500                    EPPR0   PAD$+2,,AUTO
         1 000035   000021 631400 xsym               EPPR1   B_VECTNIL+17
         1 000036   000000 701000 xent               TSX1    FMD$GETBUF
         1 000037   000000 011000                    NOP     0
PL6.E3A0      #003=FMQ$BLDFD File=FMQ$DIR.:E05TSI                                TUE 07/29/97 17:00 Page:73

      388     1813    2              BUF$=ACN$;

   1813  1 000040   200006 236100                    LDQ     ACN$,,AUTO
         1 000041   200007 756100                    STQ     BUF$,,AUTO

      389     1814    2              BUF$->WRDS20='0'B;           /* Clear header and a few more words  */

   1814  1 000042   200007 470500                    LDP0    BUF$,,AUTO
         1 000043   000100 100400                    MLR     fill='000'O
         1 000044   000002 000001 xsym               ADSC9   B_VECTNIL+2              cn=0,n=1
         1 000045   000000 000120                    ADSC9   0,,PR0                   cn=0,n=80

      390     1815    2              FM$GRAN.FCEX=SIZEW(FM$GRAN);

   1815  1 000046   000005 220003                    LDX0    5,DU
         1 000047   000002 740100                    STX0    2,,PR0

      391     1816    2              END;

   1816  1 000050   000076 710000 1                  TRA     s:1823

      392     1817    2           ELSE DO;                        /* REGULAR DIRECTORY                  */

      393     1818    2              F$DCB.GTYP=FMGTPAD;          /* READ PAD TO GET FIT                */

   1818  1 000051   000004 376000 2                  ANQ     4
         1 000052   014000 276003                    ORQ     6144,DU
         1 000053   000064 756100                    STQ     52,,PR0

      394     1819    2              CALL FMD$REDBUFBC(ACN$,0,FM_PADSDA,,0) ALTRET(ERR1);

   1819  1 000054   000000 236000 2                  LDQ     0
         1 000055   200022 756100                    STQ     PAD$+6,,AUTO
         1 000056   000001 236000 xsym               LDQ     B_VECTNIL+1
         1 000057   000005 235000 2                  LDA     5
         1 000060   200020 757100                    STAQ    PAD$+4,,AUTO
PL6.E3A0      #003=FMQ$BLDFD File=FMQ$DIR.:E05TSI                                TUE 07/29/97 17:00 Page:74
         1 000061   000000 236000 2                  LDQ     0
         1 000062   200017 756100                    STQ     PAD$+3,,AUTO
         1 000063   200006 631500                    EPPR1   ACN$,,AUTO
         1 000064   200016 451500                    STP1    PAD$+2,,AUTO
         1 000065   200016 630500                    EPPR0   PAD$+2,,AUTO
         1 000066   000023 631400 xsym               EPPR1   B_VECTNIL+19
         1 000067   000000 701000 xent               TSX1    FMD$REDBUFBC
         1 000070   000406 702000 1                  TSX2    ERR1

      395     1820    2              BUF$=ACN$;

   1820  1 000071   200006 236100                    LDQ     ACN$,,AUTO
         1 000072   200007 756100                    STQ     BUF$,,AUTO

      396     1821    2              FM$GRAN.KEYCNT=0;            /* NO KEYS HERE                       */

   1821  1 000073   200007 470500                    LDP0    BUF$,,AUTO
         1 000074   000000 236003                    LDQ     0,DU
         1 000075   000002 552104                    STBQ    2,'04'O,PR0

      397     1822    2              END;

      398     1823    1           CALL FAG$G1DIR(DA) ALTRET(ERR1); /* ALLOCATE A GRANULE                */

   1823  1 000076   200005 631500                    EPPR1   DA,,AUTO
         1 000077   200016 451500                    STP1    PAD$+2,,AUTO
         1 000100   200016 630500                    EPPR0   PAD$+2,,AUTO
         1 000101   000017 631400 xsym               EPPR1   B_VECTNIL+15
         1 000102   000000 701000 xent               TSX1    FAG$G1DIR
         1 000103   000406 702000 1                  TSX2    ERR1

      399     1824    1           CALL FMO$FDHASH(B$JIT.DCB$,FM$GRAN.STAMP.HASH);
              1824                    /* CALC HASH               */

   1824  1 000104   200007 236100                    LDQ     BUF$,,AUTO
         1 000105   200017 756100                    STQ     PAD$+3,,AUTO
         1 000106   000000 236000 xsym               LDQ     B$JIT$
PL6.E3A0      #003=FMQ$BLDFD File=FMQ$DIR.:E05TSI                                TUE 07/29/97 17:00 Page:75
         1 000107   000232 036003                    ADLQ    154,DU
         1 000110   200016 756100                    STQ     PAD$+2,,AUTO
         1 000111   200016 630500                    EPPR0   PAD$+2,,AUTO
         1 000112   000020 631400 xsym               EPPR1   B_VECTNIL+16
         1 000113   000000 701000 xent               TSX1    FMO$FDHASH
         1 000114   000000 011000                    NOP     0

      400     1825    1           FM$GRAN.STAMP.GMOD=DA;

   1825  1 000115   200007 470500                    LDP0    BUF$,,AUTO
         1 000116   200005 236100                    LDQ     DA,,AUTO
         1 000117   000000 552104                    STBQ    0,'04'O,PR0

      401     1826    1           FM$GRAN.HDR='1'B;

   1826  1 000120   400000 236007                    LDQ     -131072,DL
         1 000121   000001 256100                    ORSQ    1,,PR0

      402     1827    1           FM$GRAN.LVL=FMGTFD;

   1827  1 000122   000001 236100                    LDQ     1,,PR0
         1 000123   000006 376000 2                  ANQ     6
         1 000124   200000 276007                    ORQ     65536,DL
         1 000125   000001 756100                    STQ     1,,PR0

      403     1828    1           FM$GRAN.NAVX=FM$GRAN.FCEX+SIZEW(FM$KEYTBL);

   1828  1 000126   000002 220100                    LDX0    2,,PR0
         1 000127   000106 621010                    EAX1    70,X0
         1 000130   000001 741100                    STX1    1,,PR0

      404     1829    1           FM$GRAN.AVAIL=1024-FM$GRAN.NAVX;

   1829  1 000131   000001 236100                    LDQ     1,,PR0
         1 000132   000022 772000                    QRL     18
         1 000133   000027 676000 xsym               ERQ     B_VECTNIL+23
         1 000134   002001 036007                    ADLQ    1025,DL
PL6.E3A0      #003=FMQ$BLDFD File=FMQ$DIR.:E05TSI                                TUE 07/29/97 17:00 Page:76
         1 000135   000001 676100                    ERQ     1,,PR0
         1 000136   001777 376007                    ANQ     1023,DL
         1 000137   000001 656100                    ERSQ    1,,PR0

      405     1830    1           FM$GRAN.FLINK=0;

   1830  1 000140   000004 450100                    STZ     4,,PR0

      406     1831    1           FM$GRAN.BLINK=0;

   1831  1 000141   000003 450100                    STZ     3,,PR0

      407     1832    1           PAD$=PINCRW(BUF$,SIZEW(FM$GRAN));

   1832  1 000142   200007 236100                    LDQ     BUF$,,AUTO
         1 000143   000005 036003                    ADLQ    5,DU
         1 000144   200014 756100                    STQ     PAD$,,AUTO

      408     1833    1           ACN$=PAD$;

   1833  1 000145   200006 756100                    STQ     ACN$,,AUTO

      409     1834    1           CALL FMO$LOCCODP(ACN$,4)ALTRET(NOTIMES);

   1834  1 000146   000007 236000 2                  LDQ     7
         1 000147   200017 756100                    STQ     PAD$+3,,AUTO
         1 000150   200006 631500                    EPPR1   ACN$,,AUTO
         1 000151   200016 451500                    STP1    PAD$+2,,AUTO
         1 000152   200016 630500                    EPPR0   PAD$+2,,AUTO
         1 000153   000020 631400 xsym               EPPR1   B_VECTNIL+16
         1 000154   000000 701000 xent               TSX1    FMO$LOCCODP
         1 000155   000207 702000 1                  TSX2    NOTIMES

      410     1835    1           SEG$=ACN$;

   1835  1 000156   200006 236100                    LDQ     ACN$,,AUTO
         1 000157   200010 756100                    STQ     SEG$,,AUTO
PL6.E3A0      #003=FMQ$BLDFD File=FMQ$DIR.:E05TSI                                TUE 07/29/97 17:00 Page:77

      411     1836    1           CODE04='0'B;

   1836  1 000160   200010 470500                    LDP0    SEG$,,AUTO
         1 000161   000100 100400                    MLR     fill='000'O
         1 000162   000002 000001 xsym               ADSC9   B_VECTNIL+2              cn=0,n=1
         1 000163   000000 000054                    ADSC9   0,,PR0                   cn=0,n=44

      412     1837    1           CODE04.CREATOR.NAME=B$JIT.UNAME;

   1837  1 000164   000000 470400 xsym               LDP0    B$JIT$
         1 000165   200010 471500                    LDP1    SEG$,,AUTO
         1 000166   040100 100500                    MLR     fill='040'O
         1 000167   000003 000014                    ADSC9   3,,PR0                   cn=0,n=12
         1 000170   100005 000014                    ADSC9   5,,PR1                   cn=0,n=12

      413     1838    1           CODE04.CREATOR.ACCT=B$JIT.ACCN;

   1838  1 000171   200010 471500                    LDP1    SEG$,,AUTO
         1 000172   040100 100500                    MLR     fill='040'O
         1 000173   000001 000010                    ADSC9   1,,PR0                   cn=0,n=8
         1 000174   100003 000010                    ADSC9   3,,PR1                   cn=0,n=8

      414     1839    1           CALL SSS$SYSTIME(CODE04.CREATION);

   1839  1 000175   200010 236100                    LDQ     SEG$,,AUTO
         1 000176   000002 036003                    ADLQ    2,DU
         1 000177   200016 756100                    STQ     PAD$+2,,AUTO
         1 000200   200016 630500                    EPPR0   PAD$+2,,AUTO
         1 000201   000017 631400 xsym               EPPR1   B_VECTNIL+15
         1 000202   000000 701000 xent               TSX1    SSS$SYSTIME
         1 000203   000000 011000                    NOP     0

      415     1840    1           CODE04.MODIFY=CODE04.CREATION;

   1840  1 000204   200010 470500                    LDP0    SEG$,,AUTO
         1 000205   000002 236100                    LDQ     2,,PR0
PL6.E3A0      #003=FMQ$BLDFD File=FMQ$DIR.:E05TSI                                TUE 07/29/97 17:00 Page:78
         1 000206   000001 756100                    STQ     1,,PR0

   1840  1 000207                       NOTIMES      null
      416     1841    1   NOTIMES:;
      417     1842    1           I=14;

   1842  1 000207   000016 235007                    LDA     14,DL
         1 000210   200010 755100                    STA     SEG$,,AUTO

      418     1843    1           CALL FMO$LOCCODE(PAD$,I)ALTRET(NO14);

   1843  1 000211   200010 630500                    EPPR0   SEG$,,AUTO
         1 000212   200017 450500                    STP0    PAD$+3,,AUTO
         1 000213   200014 631500                    EPPR1   PAD$,,AUTO
         1 000214   200016 451500                    STP1    PAD$+2,,AUTO
         1 000215   200016 630500                    EPPR0   PAD$+2,,AUTO
         1 000216   000020 631400 xsym               EPPR1   B_VECTNIL+16
         1 000217   000000 701000 xent               TSX1    FMO$LOCCODE
         1 000220   000234 702000 1                  TSX2    NO14

      419     1844    1           FM$FIT.CODES.NDW(I+SIZEW(FM$GRAN))=SIZEW(CODE14);/*STRIP OWNERS*/

   1844  1 000221   200007 470500                    LDP0    BUF$,,AUTO
         1 000222   200010 720100                    LXL0    SEG$,,AUTO
         1 000223   000005 236110                    LDQ     5,X0,PR0
         1 000224   000010 376000 2                  ANQ     8
         1 000225   020000 276007                    ORQ     8192,DL
         1 000226   000005 756110                    STQ     5,X0,PR0

      420     1845    1           CODE14.OWNER.ACCT(0)=' ';

   1845  1 000227   200014 471500                    LDP1    PAD$,,AUTO
         1 000230   000035 235000 xsym               LDA     B_VECTNIL+29
         1 000231   000035 236000 xsym               LDQ     B_VECTNIL+29
         1 000232   100003 755100                    STA     3,,PR1
         1 000233   100004 756100                    STQ     4,,PR1

PL6.E3A0      #003=FMQ$BLDFD File=FMQ$DIR.:E05TSI                                TUE 07/29/97 17:00 Page:79
   1845  1 000234                       NO14         null
      421     1846    1   NO14:   ;
      422     1847    1           PINCRW(BUF$,FM$GRAN.FCEX)->FM$KEYTBL=INITKEYTBL;

   1847  1 000234   200007 470500                    LDP0    BUF$,,AUTO
         1 000235   000002 220100                    LDX0    2,,PR0
         1 000236   000000 635010                    EAA     0,X0
         1 000237   000020 771000                    ARL     16
         1 000240   000105 100400                    MLR     fill='000'O
         1 000241   000000 000001 0                  ADSC9   INITKEYTBL               cn=0,n=1
         1 000242   000000 000430                    ADSC9   0,A,PR0                  cn=0,n=280

      423     1848    1           F$DCB.BFR.DA(0)=DA;

   1848  1 000243   200004 471500                    LDP1    JDCB$,,AUTO
         1 000244   200005 236100                    LDQ     DA,,AUTO
         1 000245   100115 552134                    STBQ    77,'34'O,PR1

      424     1849    1           F$DCB.BFR.SCRUB(0)='1'B;

   1849  1 000246   200000 236003                    LDQ     65536,DU
         1 000247   100115 256100                    ORSQ    77,,PR1

      425     1850    1           CALL FMD$WRTBUF(0);             /* WRITE IT OUT                       */

   1850  1 000250   000000 630400 2                  EPPR0   0
         1 000251   000017 631400 xsym               EPPR1   B_VECTNIL+15
         1 000252   000000 701000 xent               TSX1    FMD$WRTBUF
         1 000253   000000 011000                    NOP     0

      426     1851        /**/
      427     1852        /* CATALOG THE FILE DIRECTORY JUST BUILT */
      428     1853        /**/
      429     1854    2           IF F$DCB.STARF THEN DO;

   1854  1 000254   200004 470500                    LDP0    JDCB$,,AUTO
         1 000255   000064 236100                    LDQ     52,,PR0
PL6.E3A0      #003=FMQ$BLDFD File=FMQ$DIR.:E05TSI                                TUE 07/29/97 17:00 Page:80
         1 000256   200000 316003                    CANQ    65536,DU
         1 000257   000264 600000 1                  TZE     s:1859

      430     1855    2              B$JIT.STAR.DA(0)=DA;

   1855  1 000260   200005 235100                    LDA     DA,,AUTO
         1 000261   000000 471400 xsym               LDP1    B$JIT$
         1 000262   100222 755100                    STA     146,,PR1

      431     1856    2              RETURN;

   1856  1 000263   000000 702200 xent               TSX2  ! X66_ARET

      432     1857    2              END;
      433     1858        /**/
      434     1859    1           PAD$=ADDR(FM$SET(F$DCB.SETX));  /* SET TABLE ADDR                     */

   1859  1 000264   000051 236100                    LDQ     41,,PR0
         1 000265   000003 736000                    QLS     3
         1 000266   000011 376000 2                  ANQ     9
         1 000267   000022 736000                    QLS     18
         1 000270   000000 036000 xsym               ADLQ    FM$SET$
         1 000271   200014 756100                    STQ     PAD$,,AUTO

      435     1860        /* RESERVE ACCOUNT DIRECTORY FOR WRITE */
      436     1861    1           CALL UQB$MENQX(PAD$)ALTRET(ENQERR);

   1861  1 000272   200014 631500                    EPPR1   PAD$,,AUTO
         1 000273   200016 451500                    STP1    PAD$+2,,AUTO
         1 000274   200016 630500                    EPPR0   PAD$+2,,AUTO
         1 000275   000017 631400 xsym               EPPR1   B_VECTNIL+15
         1 000276   000000 701000 xent               TSX1    UQB$MENQX
         1 000277   000407 702000 1                  TSX2    ENQERR

      437     1862    1           CALL FMQ$SRCHAD(KEY$,ADDR(NIL)) ALTRET(NOFD);

   1862  1 000300   000001 236000 xsym               LDQ     B_VECTNIL+1
PL6.E3A0      #003=FMQ$BLDFD File=FMQ$DIR.:E05TSI                                TUE 07/29/97 17:00 Page:81
         1 000301   200016 756100                    STQ     PAD$+2,,AUTO
         1 000302   200016 630500                    EPPR0   PAD$+2,,AUTO
         1 000303   200021 450500                    STP0    PAD$+5,,AUTO
         1 000304   200013 631500                    EPPR1   KEY$,,AUTO
         1 000305   200020 451500                    STP1    PAD$+4,,AUTO
         1 000306   200020 630500                    EPPR0   PAD$+4,,AUTO
         1 000307   000020 631400 xsym               EPPR1   B_VECTNIL+16
         1 000310   000000 701000 xent               TSX1    FMQ$SRCHAD
         1 000311   000322 702000 1                  TSX2    NOFD

      438     1863    2           IF FM$ADKEY.D THEN DO;

   1863  1 000312   200013 470500                    LDP0    KEY$,,AUTO
         1 000313   000000 234100                    SZN     0,,PR0
         1 000314   000320 605000 1                  TPL     s:1867

      439     1864    2              FM$ADKEY.D='0'B;

   1864  1 000315   000031 236000 xsym               LDQ     B_VECTNIL+25
         1 000316   000000 356100                    ANSQ    0,,PR0

      440     1865    2              GOTO OLDFD;

   1865  1 000317   000351 710000 1                  TRA     OLDFD

      441     1866    2              END;
      442     1867    1           CALL SC_FMQ81;                  /* SCREECH IF ALREADY CATALOGED       */

   1867  1 000320   000000 713400 xsym               CLIMB   SC_FMQ81
         1 000321   000000 600000 xsid               climb   nvectors=         0

      443     1868        /*S*    SCREECH_CODE:   FMQ-S$FM81
      444     1869        *       TYPE:   SUA
      445     1870        *       MESSAGE:  FD already exists but CFU block says it is new
      446     1871        */
      447     1872        /**/
      448     1873    1   NOFD:   ACN$=ADDR(PACKACCT);
PL6.E3A0      #003=FMQ$BLDFD File=FMQ$DIR.:E05TSI                                TUE 07/29/97 17:00 Page:82

   1873  1 000322   200011 630500       NOFD         EPPR0   PACKACCT,,AUTO
         1 000323   200006 450500                    STP0    ACN$,,AUTO

      449     1874    1           CALL FMO$PACKACCT(B$JIT.DCB$,ACN$); /* CREATE ACCOUNT KEY                */

   1874  1 000324   200006 631500                    EPPR1   ACN$,,AUTO
         1 000325   200017 451500                    STP1    PAD$+3,,AUTO
         1 000326   000000 236000 xsym               LDQ     B$JIT$
         1 000327   000232 036003                    ADLQ    154,DU
         1 000330   200016 756100                    STQ     PAD$+2,,AUTO
         1 000331   200016 630500                    EPPR0   PAD$+2,,AUTO
         1 000332   000020 631400 xsym               EPPR1   B_VECTNIL+16
         1 000333   000000 701000 xent               TSX1    FMO$PACKACCT
         1 000334   000000 011000                    NOP     0

      450     1875    1           CALL FMG$ADDKEY(SEG$,SIZEW(FM$ADKEY)-2,KEY$,ACN$) ALTRET(ERR);

   1875  1 000335   200006 630500                    EPPR0   ACN$,,AUTO
         1 000336   200021 450500                    STP0    PAD$+5,,AUTO
         1 000337   200013 631500                    EPPR1   KEY$,,AUTO
         1 000340   200020 451500                    STP1    PAD$+4,,AUTO
         1 000341   000003 236000 2                  LDQ     3
         1 000342   200017 756100                    STQ     PAD$+3,,AUTO
         1 000343   200010 633500                    EPPR3   SEG$,,AUTO
         1 000344   200016 453500                    STP3    PAD$+2,,AUTO
         1 000345   200016 630500                    EPPR0   PAD$+2,,AUTO
         1 000346   000022 631400 xsym               EPPR1   B_VECTNIL+18
         1 000347   000000 701000 xent               TSX1    FMG$ADDKEY
         1 000350   000400 702000 1                  TSX2    ERR

   1875  1 000351                       OLDFD        null
      451     1876    1   OLDFD:  ;
      452     1877    1           FM$ADKEY.FDSDA=DA;

   1877  1 000351   200005 235100                    LDA     DA,,AUTO
         1 000352   200013 470500                    LDP0    KEY$,,AUTO
PL6.E3A0      #003=FMQ$BLDFD File=FMQ$DIR.:E05TSI                                TUE 07/29/97 17:00 Page:83
         1 000353   000002 755100                    STA     2,,PR0

      453     1878    1           CALL FMD$WRTBUF(1);

   1878  1 000354   000003 630400 2                  EPPR0   3
         1 000355   000017 631400 xsym               EPPR1   B_VECTNIL+15
         1 000356   000000 701000 xent               TSX1    FMD$WRTBUF
         1 000357   000000 011000                    NOP     0

      454     1879        /**/
      455     1880    1           FM$CFUA.FDFITSDA=DA;

   1880  1 000360   200005 235100                    LDA     DA,,AUTO
         1 000361   200003 470500                    LDP0    @FM$CFUA,,AUTO
         1 000362   000004 755100                    STA     4,,PR0

      456     1881    1           FM$CFUA.FDCSDA=DA;

   1881  1 000363   200005 236100                    LDQ     DA,,AUTO
         1 000364   000003 756100                    STQ     3,,PR0

      457     1882    1           FM$CFUA.FLAGS.EXIST='1'B;

   1882  1 000365   400000 236003                    LDQ     -131072,DU
         1 000366   000005 256100                    ORSQ    5,,PR0

      458     1883    1           FM$CFUA.FLAGS.NEW='0'B;

   1883  1 000367   000012 236000 2                  LDQ     10
         1 000370   000005 356100                    ANSQ    5,,PR0

      459     1884        /* RELEASE AD RESERVATION */
      460     1885    1           CALL UQB$MDEQ(PAD$);

   1885  1 000371   200014 631500                    EPPR1   PAD$,,AUTO
         1 000372   200016 451500                    STP1    PAD$+2,,AUTO
         1 000373   200016 630500                    EPPR0   PAD$+2,,AUTO
PL6.E3A0      #003=FMQ$BLDFD File=FMQ$DIR.:E05TSI                                TUE 07/29/97 17:00 Page:84
         1 000374   000017 631400 xsym               EPPR1   B_VECTNIL+15
         1 000375   000000 701000 xent               TSX1    UQB$MDEQ
         1 000376   000000 011000                    NOP     0

      461     1886    1           RETURN;

   1886  1 000377   000000 702200 xent               TSX2  ! X66_ARET

      462     1887                                                /*                                    */
      463     1888    1   ERR:    CALL UQB$MDEQ(PAD$);

   1888  1 000400   200014 630500       ERR          EPPR0   PAD$,,AUTO
         1 000401   200016 450500                    STP0    PAD$+2,,AUTO
         1 000402   200016 630500                    EPPR0   PAD$+2,,AUTO
         1 000403   000017 631400 xsym               EPPR1   B_VECTNIL+15
         1 000404   000000 701000 xent               TSX1    UQB$MDEQ
         1 000405   000000 011000                    NOP     0

      464     1889    1   ERR1:   ALTRETURN;

   1889  1 000406   000000 702200 xent  ERR1         TSX2  ! X66_AALT

   1883  1 000407                       ENQERR       null
      465     1890                                                /*                                    */
      466     1891    1   ENQERR: ;
      467     1892    1           CALL SC_FMQ94;

   1892  1 000407   000000 713400 xsym               CLIMB   SC_FMQ94
         1 000410   000000 600000 xsid               climb   nvectors=         0

      468     1893        /*S*    SCREECH_CODE:   FMQ-S$FM94
      469     1894        *      TYPE:   SUA
      470     1895        *      MESSAGE:  Error attempting to ENQ or DEQ account directory */
      471     1896    1   END FMQ$BLDFD;

   1896  1 000411   000000 702200 xent               TSX2  ! X66_ARET

PL6.E3A0      #003=FMQ$BLDFD File=FMQ$DIR.:E05TSI                                TUE 07/29/97 17:00 Page:85
INITKEYTBL
 Sect OctLoc
   0     000   430*** ******                                                    ....

(unnamed)
 Sect OctLoc
   2     000   000002 006000   000000 000000   000002 006000   000003 006000    ................
   2     004   743777 777777   000000 006000   777777 437777   000006 006000    ................
   2     010   777774 001777   000007 777770   577777 777777                    ............
      472     1897        %EOD;

PL6.E3A0      #003=FMQ$BLDFD File=FMQ$DIR.:E05TSI                                TUE 07/29/97 17:00 Page:86
--  Include file information  --

   F$DCB.:E05TOU  is referenced.
   CP_6_SUBS.:E05TOU  is referenced.
   FM$MACROS.:E05TOU  is referenced.
   F_ERRORS_C.:E05TOU  is referenced.
   B$JIT_C.:E05TOU  is referenced.
   F$JIT_C.:E05TOU  cannot be made into a system file and is referenced.
      No diagnostics issued in procedure FMQ$BLDFD.
PL6.E3A0      #003=FMQ$BLDFD File=FMQ$DIR.:E05TSI                                TUE 07/29/97 17:00 Page:87

 **** Variables and constants ****

  ****  Section 000 RoData FMQ$BLDFD

  ****  Scalars and arrays  ****
OctLoc.c.b A Datatyp(siz) R M Lvl/name                 OctLoc.c.b A Datatyp(siz) R M Lvl/name

     0-0-0/b STRC(9)     r     1 INITKEYTBL

  ****  Auto variables  ****

  ****  Scalars and arrays  ****
OctLoc.c.b A Datatyp(siz) R M Lvl/name                 OctLoc.c.b A Datatyp(siz) R M Lvl/name

     3-0-0/w PTR         r     1 @FM$CFUA                   6-0-0/w PTR         r     1 ACN$
     7-0-0/w PTR         r     1 BUF$                       5-0-0/w SBIN        r     1 DA
    *0-0-0/w STRC(288)   r     1 FM$CFUA                   10-0-0/w UBIN        r     1 I
     4-0-0/w PTR         r     1 JDCB$                     13-0-0/w PTR         r     1 KEY$
    11-0-0/c CHAR(8)     r     1 PACKACCT                  14-0-0/w PTR         r     1 PAD$
    10-0-0/w PTR         r     1 SEG$

  ****  SYMREF variables  ****

  ****  Scalars and arrays  ****
OctLoc.c.b A Datatyp(siz) R M Lvl/name                 OctLoc.c.b A Datatyp(siz) R M Lvl/name

     0-0-0/w PTR         r     1 B$JIT$                     0-0-0/w PTR         r     1 FM$SET$
     0-0-0/w SBIN        r     1 FM_PADSDA

  ****  BASED and DCB variables  ****

  ****  Scalars and arrays  ****
OctLoc.c.b A Datatyp(siz) R M Lvl/name                 OctLoc.c.b A Datatyp(siz) R M Lvl/name

     0-0-0/d STRC(8856)  r     1 B$JIT                      0-0-0/w STRC(396)   r     1 CODE04
     0-0-0/w STRC(288)   r     1 CODE14                     0-0-0/d ASTR(3528)  r     1 F$DCB
     0-0-0/w STRC(108)   r     1 FM$ADKEY                   0-0-0/w STRC(1116)  r     1 FM$FIT
PL6.E3A0      #003=FMQ$BLDFD File=FMQ$DIR.:E05TSI                                TUE 07/29/97 17:00 Page:88
     0-0-0/w STRC(180)   r     1 FM$GRAN
     0-0-0/w UBIN(9)     r     1 FM$KEYTBL(0:279)
     0-0-0/w UBIN        r     1 FM$KT(0:69)                0-0-0/w STRC(288)   r     1 FM$SET(0:0)
     0-0-0/w STRC(720)   r     1 WRDS20


   Procedure FMQ$BLDFD requires 266 words for executable code.
   Procedure FMQ$BLDFD requires 20 words of local(AUTO) storage.
PL6.E3A0      #003=FMQ$BLDFD File=FMQ$DIR.:E05TSI                                TUE 07/29/97 17:00 Page:89
          *** CROSS REFERENCE LISTING ***
**     DENOTES     IDENTIFIER DEFINITION
<<                 IDENTIFIER'S VALUE SET
>>                 IDENTIFIER'S VALUE USED
<>                 IDENTIFIER SET AND/OR USED
--                 IDENTIFIER REFERENCED
PL6.E3A0      #003=FMQ$BLDFD File=FMQ$DIR.:E05TSI                                TUE 07/29/97 17:00 Page:90
          MINI XREF LISTING

ACN$
        32**DCL      1812<>CALL     1813>>ASSIGN   1819<>CALL     1820>>ASSIGN   1833<<ASSIGN   1834<>CALL
      1835>>ASSIGN   1873<<ASSIGN   1874<>CALL     1875<>CALL
B$JIT.ACCN
       386**DCL      1838>>ASSIGN
B$JIT.DCB$
       476**DCL      1800>>ASSIGN   1824<>CALL     1874<>CALL
B$JIT.ERR.MID
       387**DCL       387--REDEF
B$JIT.STAR.DA
       476**DCL      1855<<ASSIGN
B$JIT.UNAME
       386**DCL      1837>>ASSIGN
B$JIT$
      1703**DCL       381--IMP-PTR  1800>>ASSIGN   1824>>CALL     1837>>ASSIGN   1838>>ASSIGN   1855>>ASSIGN
      1874>>CALL
BUF$
        33**DCL      1759--IMP-PTR  1792--IMP-PTR  1813<<ASSIGN   1814>>ASSIGN   1815>>ASSIGN   1820<<ASSIGN
      1821>>ASSIGN   1824>>CALL     1825>>ASSIGN   1826>>ASSIGN   1827>>ASSIGN   1828>>ASSIGN   1828>>ASSIGN
      1829>>ASSIGN   1829>>ASSIGN   1830>>ASSIGN   1831>>ASSIGN   1832>>ASSIGN   1844>>ASSIGN   1847>>ASSIGN
      1847>>ASSIGN
CODE04
      1776**DCL      1836<<ASSIGN
CODE04.CREATION
      1778**DCL      1839<>CALL     1840>>ASSIGN
CODE04.CREATOR.ACCT
      1778**DCL      1838<<ASSIGN
CODE04.CREATOR.NAME
      1778**DCL      1837<<ASSIGN
CODE04.MODIFY
      1778**DCL      1840<<ASSIGN
CODE14
PL6.E3A0      #003=FMQ$BLDFD File=FMQ$DIR.:E05TSI                                TUE 07/29/97 17:00 Page:91
      1784**DCL      1844--ASSIGN
CODE14.OWNER.ACCT
      1789**DCL      1845<<ASSIGN
DA
        31**DCL      1823<>CALL     1825>>ASSIGN   1848>>ASSIGN   1855>>ASSIGN   1877>>ASSIGN   1880>>ASSIGN
      1881>>ASSIGN
ENQERR
      1883**LABEL    1861--CALLALT
ERR
      1888**LABEL    1875--CALLALT
ERR1
      1889**LABEL    1819--CALLALT  1823--CALLALT
F$DCB.ACCT
      1719**DCL      1804>>IF
F$DCB.ACTPOS
      1734**DCL      1734--REDEF
F$DCB.ARS
      1709**DCL      1709--REDEF
F$DCB.ATTR
      1727**DCL      1728--REDEF
F$DCB.BFR.DA
      1754**DCL      1848<<ASSIGN
F$DCB.BFR.SCRUB
      1753**DCL      1849<<ASSIGN
F$DCB.BORROW
      1742**DCL      1742--REDEF    1742--REDEF    1742--REDEF
F$DCB.DCBNAME.L
      1756**DCL      1756--IMP-SIZ
F$DCB.EOMCHAR
      1713**DCL      1713--REDEF
F$DCB.FLDID
      1737**DCL      1737--REDEF
F$DCB.FORM$
      1731**DCL      1731--REDEF
F$DCB.FSECT
      1747**DCL      1747--REDEF
PL6.E3A0      #003=FMQ$BLDFD File=FMQ$DIR.:E05TSI                                TUE 07/29/97 17:00 Page:92
F$DCB.FSN
      1724**DCL      1724--REDEF    1724--REDEF    1725--REDEF
F$DCB.GTYP
      1738**DCL      1818<<ASSIGN
F$DCB.HEADER$
      1730**DCL      1730--REDEF
F$DCB.IXTNSIZE
      1728**DCL      1728--REDEF
F$DCB.LASTSTA$
      1718**DCL      1718--REDEF
F$DCB.LVL
      1743**DCL      1743--REDEF
F$DCB.NAME.C
      1718**DCL      1718--REDEF
F$DCB.NOEOF
      1739**DCL      1739--REDEF
F$DCB.NRECS
      1729**DCL      1729--REDEF
F$DCB.NRECX
      1748**DCL      1748--REDEF
F$DCB.OHDR
      1740**DCL      1740--REDEF
F$DCB.ORG
      1723**DCL      1723--REDEF
F$DCB.PRECNO
      1746**DCL      1746--REDEF
F$DCB.RCSZ
      1751**DCL      1751--REDEF
F$DCB.RES
      1719**DCL      1719--REDEF
F$DCB.SETX
      1731**DCL      1731--REDEF    1859>>ASSIGN
F$DCB.STARF
      1738**DCL      1803>>IF       1810>>IF       1854>>IF
F$DCB.TAB$
      1730**DCL      1731--REDEF
PL6.E3A0      #003=FMQ$BLDFD File=FMQ$DIR.:E05TSI                                TUE 07/29/97 17:00 Page:93
F$DCB.TDA
      1745**DCL      1745--REDEF
F$DCB.WSN
      1720**DCL      1720--REDEF
FAG$G1DIR
        51**DCL-ENT  1823--CALL
FM$ADKEY
      1768**DCL      1875--CALL
FM$ADKEY.D
      1768**DCL      1863>>IF       1864<<ASSIGN
FM$ADKEY.FDSDA
      1768**DCL      1877<<ASSIGN
FM$CFUA
      1697**DCL        28--PROC
FM$CFUA.ACCT
      1697**DCL      1804>>IF
FM$CFUA.FDCSDA
      1697**DCL      1881<<ASSIGN
FM$CFUA.FDFITSDA
      1697**DCL      1880<<ASSIGN
FM$CFUA.FLAGS.EXIST
      1697**DCL      1882<<ASSIGN
FM$CFUA.FLAGS.NEW
      1698**DCL      1883<<ASSIGN
FM$FIT.CODES.NDW
      1792**DCL      1844<<ASSIGN
FM$GRAN
      1759**DCL      1815--ASSIGN   1832--ASSIGN   1844--ASSIGN
FM$GRAN.AVAIL
      1760**DCL      1829<<ASSIGN
FM$GRAN.BLINK
      1760**DCL      1831<<ASSIGN
FM$GRAN.FCEX
      1760**DCL      1815<<ASSIGN   1828>>ASSIGN   1847>>ASSIGN
FM$GRAN.FLINK
      1760**DCL      1830<<ASSIGN
PL6.E3A0      #003=FMQ$BLDFD File=FMQ$DIR.:E05TSI                                TUE 07/29/97 17:00 Page:94
FM$GRAN.HDR
      1759**DCL      1826<<ASSIGN
FM$GRAN.KEYCNT
      1760**DCL      1821<<ASSIGN
FM$GRAN.LVL
      1759**DCL      1827<<ASSIGN
FM$GRAN.NAVX
      1759**DCL      1828<<ASSIGN   1829>>ASSIGN
FM$GRAN.STAMP.GMOD
      1759**DCL      1825<<ASSIGN
FM$GRAN.STAMP.HASH
      1759**DCL      1824<>CALL
FM$KEYTBL
      1771**DCL      1798--DCLINIT  1828--ASSIGN   1847<<ASSIGN
FM$KT
      1771**DCL      1771--REDEF
FM$SET
      1763**DCL      1859--ASSIGN
FM$SET.USERLIST
      1764**DCL      1764--REDEF
FM$SET$
      1706**DCL      1763--IMP-PTR  1859>>ASSIGN
FMD$FLSHBUF
        41**DCL-ENT  1811--CALL
FMD$GETBUF
        42**DCL-ENT  1812--CALL
FMD$REDBUFBC
        43**DCL-ENT  1819--CALL
FMD$WRTBUF
        50**DCL-ENT  1850--CALL     1878--CALL
FMG$ADDKEY
        49**DCL-ENT  1875--CALL
FMO$FDHASH
        44**DCL-ENT  1824--CALL
FMO$LOCCODE
        45**DCL-ENT  1843--CALL
PL6.E3A0      #003=FMQ$BLDFD File=FMQ$DIR.:E05TSI                                TUE 07/29/97 17:00 Page:95
FMO$LOCCODP
        46**DCL-ENT  1834--CALL
FMO$PACKACCT
        48**DCL-ENT  1874--CALL
FMQ$SRCHAD
        47**DCL-ENT  1862--CALL
FM_PADSDA
      1705**DCL      1819<>CALL
I
        35**DCL      1842<<ASSIGN   1843<>CALL     1844>>ASSIGN
INITKEYTBL
      1797**DCL      1847>>ASSIGN
JDCB$
        30**DCL      1709--IMP-PTR  1800<<ASSIGN   1803>>IF       1804>>IF       1810>>IF       1818>>ASSIGN
      1848>>ASSIGN   1849>>ASSIGN   1854>>IF       1859>>ASSIGN
KEY$
        38**DCL      1768--IMP-PTR  1862<>CALL     1863>>IF       1864>>ASSIGN   1875<>CALL     1877>>ASSIGN
NO14
      1845**LABEL    1843--CALLALT
NOFD
      1873**LABEL    1862--CALLALT
NOTIMES
      1840**LABEL    1834--CALLALT
OLDFD
      1875**LABEL    1865--GOTO
PACKACCT
        36**DCL        37--REDEF    1873--ASSIGN
PAD$
        39**DCL      1784--IMP-PTR  1832<<ASSIGN   1833>>ASSIGN   1843<>CALL     1845>>ASSIGN   1859<<ASSIGN
      1861<>CALL     1885<>CALL     1888<>CALL
SC_FMQ81
        55**DCL-ENT  1867--CALL
SC_FMQ83
        56**DCL-ENT  1805--CALL
SC_FMQ94
        57**DCL-ENT  1892--CALL
PL6.E3A0      #003=FMQ$BLDFD File=FMQ$DIR.:E05TSI                                TUE 07/29/97 17:00 Page:96
SEG$
        34**DCL        35--REDEF    1776--IMP-PTR  1835<<ASSIGN   1836>>ASSIGN   1837>>ASSIGN   1838>>ASSIGN
      1839>>CALL     1840>>ASSIGN   1840>>ASSIGN   1875<>CALL
SSS$SYSTIME
        52**DCL-ENT  1839--CALL
UQB$MDEQ
        54**DCL-ENT  1885--CALL     1888--CALL
UQB$MENQX
        53**DCL-ENT  1861--CALL
WRDS20
      1794**DCL      1814<<ASSIGN
PL6.E3A0      #003=FMQ$BLDFD File=FMQ$DIR.:E05TSI                                TUE 07/29/97 17:00 Page:97
              *** CROSS REFERENCE LISTING ***
    **     DENOTES     IDENTIFIER DEFINITION
    <<                 IDENTIFIER'S VALUE SET
    >>                 IDENTIFIER'S VALUE USED
    <>                 IDENTIFIER SET AND/OR USED
    --                 IDENTIFIER REFERENCED
PL6.E3A0      #003=FMQ$BLDFD File=FMQ$DIR.:E05TSI                                TUE 07/29/97 17:00 Page:98
              MINI UREF LISTING

FM$BUF$    1704**DCL
FMQ$BLDFD      28**PROC
PACKACCTB      37**DCL

PL6.E3A0      #004=FMQ$CTG File=FMQ$DIR.:E05TSI                                  TUE 07/29/97 17:01 Page:99
      473        1        /*T***********************************************************/
      474        2        /*T*                                                         */
      475        3        /*T* Copyright (c) Bull HN Information Systems Inc., 1997    */
      476        4        /*T*                                                         */
      477        5        /*T***********************************************************/
      478        6        /*F*   NAME:  FMQ$CTG
      479        7        *      PURPOSE:  Catalog a file in a directory, either by adding
      480        8        *                a new entry or by changing the pointers in an
      481        9        *                existing one.                                               */
      482       10                                                                                  /*
      483       11                                                                                   *
      484       12                                                                                     */
      485       13        /*D*     NAME:   FMQ$CTG
      486       14        *      CALL:   CALL FMQ$CTG(JDCB$,NAME$,OLDFITDA) ALTRET(LOC);
      487       15        *      INPUT:  JDCB$ - Pointer to DCB
      488       16        *              NAME$ - Pointer to name to add
      489       17        *              CFU contains DA of FIT, and ACCTX points to the
      490       18        *                account block of the FD
      491       19        *      OUTPUT: OLDFITDA - Disk address of old FIT if cataloging
      492       20        *                         over an existing file, else zero
      493       21        *      DESCRIPTION:                                                          */
      494       22                                                /*                                    */
      495       23        FMQ$CTG: PROC(NAME$,OLDFITDA) ALTRET;
      496       24        /* PARAMETERS */
      497       25    1   DCL NAME$ PTR;
      498       26    1   DCL OLDFITDA SBIN WORD;
      499       27        /* LOCAL AUTOMATIC STORAGE */
      500       28    1   DCL JDCB$ PTR;
      501       29    1   DCL ACCTX SBIN WORD;
      502       30    1   DCL ACCT$ PTR;
      503       31    1   DCL BUF$ PTR;
      504       32    1   DCL KEY$ PTR;
      505       33    1   DCL SEG$ PTR;
      506       34    1   DCL CFU$ PTR;
      507       35        /* EXTERNAL ROUTINES */
      508       36    1   DCL FAG$RFILE ENTRY(1) ALTRET;
      509       37    1   DCL FMP$RELCFUS ENTRY(1);
PL6.E3A0      #004=FMQ$CTG File=FMQ$DIR.:E05TSI                                  TUE 07/29/97 17:01 Page:100
      510       38    1   DCL FMR$FN ENTRY(1);
      511       39    1   DCL FMR$L8 ENTRY;
      512       40    1   DCL FMR$U8 ENTRY;
      513       41    1   DCL FMQ$BLDFD ENTRY(1) ALTRET;
      514       42    1   DCL FMD$FLSHBUF ENTRY(1);
      515       43    1   DCL FMR$UPDGAC ENTRY(2);
      516       44    1   DCL FMQ$SRCHFD ENTRY(5) ALTRET;
      517       45    1   DCL FMG$ADDKEY ENTRY(4) ALTRET;
      518       46    1   DCL FMD$WRTBUF ENTRY(1);
      519       47    1   DCL FMO$LOCCODP ENTRY(2)ALTRET;
      520       48    1   DCL UQB$MENQX ENTRY(1)ALTRET;
      521       49    1   DCL UQB$MDEQ ENTRY(1)ALTRET;
      522       50    1   DCL UQB$WAIT ENTRY(8) ALTRET;
      523       51    1   DCL SC_FMQ94 ENTRY CONV(2,0);
      524       52        /* INCLUDE FILES */
      525       53        %INCLUDE F$JIT_C;
      526      483        %MACRO F$DCB(BASED=BASED);
      527      484        %INCLUDE F$DCB;
      528      533        %MEND;
      529      534        %F$DCB(BASED="BASED(JDCB$)");
      530      584        %INCLUDE FM$MACROS;
      531      959        %INCLUDE F_ERRORS_C;
      532     1199        %INCLUDE FM_DATA_R;
      533     1213        %INCLUDE CP_6_SUBS;
      534     1753        /* EXTERNAL DATA */
      535     1754    1   DCL B$JIT$ PTR SYMREF;
      536     1755    1   DCL FM$BUF$(0:0) PTR SYMREF;
      537     1756        /* BASED STRUCTURES */
      538     1757        %FM$CFU(BASED="BASED(CFU$)");
      539     1763        %FM$CFUA(BASED="BASED(ACCT$)");
      540     1769        %FM$KEYENT(BASED="BASED(KEY$)");
      541     1772        %FM$FDSEG(BASED="BASED(SEG$)");
      542     1776        %FM$CFUF(BASED="BASED(CFU$)");
      543     1779        %CODE14(BASED="BASED(SEG$)");
      544     1789        %FM$GRAN;
      545     1793        /**/
      546     1794    1           JDCB$=B$JIT.DCB$;
PL6.E3A0      #004=FMQ$CTG File=FMQ$DIR.:E05TSI                                  TUE 07/29/97 17:01 Page:101
      547     1795    1           CFU$=F$DCB.CFU$;
      548     1796    2           IF NOT F$DCB.STARF THEN DO;     /* NOT STAR FILE                      */
      549     1797    2              ACCTX=FM$CFU.ACCTX;
      550     1798    2              IF ACCTX=0 THEN              /* TWO CFUS, OTHER HAS REAL ACCTX     */
      551     1799    2                 ACCTX=PINCRW(F$CFU$,FM$CFU.NAMEX)->FM$CFU.ACCTX;
      552     1800    2              ACCT$=PINCRW(F$CFU$,ACCTX);  /* ACCT BLOCK POINTER                 */
      553     1801        /* RESERVE FILE DIRECTORY FOR WRITE */
      554     1802    2              CALL UQB$MENQX(ACCT$)ALTRET(ENQERR);
      555     1803    2              IF NOT FM$CFUA.FLAGS.NEW THEN /* DIRECTORY EXISTS                  */
      556     1804    2                 GOTO OLDDIR;
      557     1805    2              ELSE                         /* NEW DIRECTORY                      */
      558     1806    2                 GOTO NEWDIR;
      559     1807    2              END;
      560     1808        /**/
      561     1809    2           IF B$JIT.STAR.DA(0)+F$DCB.STARX=0 THEN DO; /* MUST BUILD DRCTRY       */
      562     1810    2   NEWDIR:    CALL FMQ$BLDFD(FM$CFUA) ALTRET(ERR);
      563     1811    2              END;
      564     1812        /**/
      565     1813    1   OLDDIR: OLDFITDA=0;                     /* ASSUME NO OLD FIT                  */
      566     1814    2           IF F$DCB.STARF AND F$DCB.STARX~=0 THEN DO; /* JIT CATALOGED           */
      567     1815    2              OLDFITDA=B$JIT.STAR.DA(F$DCB.STARX);
      568     1816    2              B$JIT.STAR.DA(F$DCB.STARX)=FM$CFU.FITSDA;
      569     1817    2              GOTO FIXCFU;
      570     1818    2              END;
      571     1819        /**/
      572     1820    1           CALL FMQ$SRCHFD(NAME$,KEY$,SEG$,ACCT$,ADDR(NIL)) ALTRET(NOKEY);
      573     1821    1   GOTENT: IF FM$KEYENT.D THEN             /* OLD DELETED ENTRY                  */
      574     1822    1              FM$KEYENT.D='0'B;
      575     1823    1           ELSE
      576     1824    1              IF NOT FM$FDSEG.DESC.DELF THEN
      577     1825    1                 OLDFITDA=FM$FDSEG.FITSDA; /* GET OLD FIT ADDR                   */
      578     1826        /**/
      579     1827    1   SETPTR: FM$FDSEG.FITSDA=FM$CFU.FITSDA;
      580     1828    1           FM$FDSEG.DESC=F$DCB.DESC;
      581     1829    1           IF NOT F$DCB.STARF THEN
      582     1830    2              IF F$DCB.BFR.DA(1)=FM$CFUA.FDFITSDA AND FM$CFUA.GMOD~=0 THEN DO;
      583     1831    2                 CALL FMR$L8;
PL6.E3A0      #004=FMQ$CTG File=FMQ$DIR.:E05TSI                                  TUE 07/29/97 17:01 Page:102
      584     1832    2                 SEG$=PINCRW(FM$BUF$(F$DCB.BFR.BUFX(1)),SIZEW(FM$GRAN));
      585     1833    2                 CALL FMO$LOCCODP(SEG$,14);
      586     1834    2                 CODE14.CGRANS=CODE14.MGRANS-FM$CFUA.GRANS;
      587     1835    2                 FM$CFUA.GMOD=0;
      588     1836    2                 CALL FMR$U8;
      589     1837    2                 END;
      590     1838                                                /*                                    */
      591     1839    1              CALL FMD$WRTBUF(1);
      592     1840        /**/
      593     1841    2   FIXCFU: IF MOD(FM$CFU.FUN,4)=%CREATE# THEN DO;
      594     1842    2              CALL FMR$L8;
      595     1843    2              IF F$DCB.ACS~=%JRNL# THEN FM$CFU.FUN=%UPDATE#;
      596     1844    2              ELSE FM$CFU.FUN=%JRNL#;
      597     1845                            /* IF A FILE ALREADY EXISTED, CAUSE IT TO BE RELEASED     */
      598     1846    3              IF FM$CFU.ACCTX=0 THEN DO;
      599     1847    3                 SEG$=PINCRW(F$CFU$,FM$CFU.NAMEX);
      600     1848    3                 FM$CFUF.ACCNAM=SEG$->FM$CFUF.ACCNAM;
      601     1849    3                 SEG$->FM$CFU.NAMEX=POFFW(CFU$,F$CFU$); /* POINT IT AT US        */
      602     1850    3                 CALL FMR$FN(SEG$);        /* UNLINK IT                          */
      603     1851    3                 SEG$->FM$CFU.ACFU=0;
      604     1852    3                 CALL FMR$U8;
      605     1853    3                 CALL FMP$RELCFUS(SEG$);   /* UNCOUNT US..MEBBE RFILE            */
      606     1854    3                 END;
      607     1855    3              ELSE DO;
      608     1856    3                 CALL FMR$U8;              /* NO INPUT OPENS                     */
      609     1857    4                 IF OLDFITDA~=0 THEN DO;
      610     1858    4                    CALL FAG$RFILE(OLDFITDA);
      611     1859    4                    CALL FMD$FLSHBUF(1);
      612     1860    4                    END;
      613     1861    3                 END;
      614     1862    2              IF F$DCB.BORROW>0 THEN
      615     1863    3                 IF NOT F$DCB.STARF THEN DO;
      616     1864    3                    CALL FMR$L8;
      617     1865    3                    FM$CFUA.GRANS=FM$CFUA.GRANS+F$DCB.BORROW;
      618     1866    3                    FM$CFUA.GMOD=1;
      619     1867    3                    CALL FMR$U8;
      620     1868    3                    B$JIT.PRDPRM=B$JIT.PRDPRM+F$DCB.BORROW;
PL6.E3A0      #004=FMQ$CTG File=FMQ$DIR.:E05TSI                                  TUE 07/29/97 17:01 Page:103
      621     1869    3                    END;
      622     1870    3                 ELSE DO;
      623     1871    3                    CALL FMR$UPDGAC(B$JIT.TMPGAC,B$JIT.CURTMPDP);
      624     1872    3                    B$JIT.CURTMPDP=B$JIT.CURTMPDP-F$DCB.BORROW;
      625     1873    3                    END;
      626     1874    2              F$DCB.BORROW=0;
      627     1875    2              END;
      628     1876                                                /*                                    */
      629     1877    1           IF NOT F$DCB.STARF THEN         /* RELEASE FD RESERVATION             */
      630     1878    1           CALL UQB$MDEQ(ACCT$);
      631     1879                                                /*                                    */
      632     1880    1           B$JIT.ERR='0'B;                 /* CLEAR ANY ERROR                    */
      633     1881                                                /*                                    */
      634     1882    1           RETURN;
      635     1883        /**/
      636     1884        /**/
      637     1885    1   NOKEY:  IF B$JIT.ERR.CODE~=%E$NOKEY THEN
      638     1886    1              GOTO ERR;
      639     1887    1           IF B$JIT.ERR.MID='21'O THEN     /* SRCHFD FOUND DELETED ENTRY         */
      640     1888    1              GOTO GOTENT;
      641     1889    1           CALL FMG$ADDKEY(SEG$,SIZEW(FM$FDSEG),KEY$,NAME$) ALTRET(ERR);
      642     1890    1           GOTO SETPTR;
      643     1891        /**/
      644     1892        /**/
      645     1893    1   ERR:    IF NOT F$DCB.STARF THEN         /* RELEASE FD RESERVATION             */
      646     1894    1           CALL UQB$MDEQ(ACCT$);
      647     1895    1           ALTRETURN;
      648     1896                                                /*                                    */
      649     1897    1   ENQERR: ;
      650     1898    1           CALL SC_FMQ94;
      651     1899        /*S*    SCREECH_CODE:   FMQ-S$FM94
      652     1900        *       TYPE:  SUA
      653     1901        */
      654     1902    1   END FMQ$CTG;
      655     1903        %EOD;

PL6.E3A0      #004=FMQ$CTG File=FMQ$DIR.:E05TSI                                  TUE 07/29/97 17:01 Page:104
--  Include file information  --

   CP_6_SUBS.:E05TOU  is referenced.
   FM_DATA_R.:E05TOU  cannot be made into a system file and is referenced.
   F_ERRORS_C.:E05TOU  is referenced.
   FM$MACROS.:E05TOU  is referenced.
   F$DCB.:E05TOU  is referenced.
   B$JIT_C.:E05TOU  is referenced.
   F$JIT_C.:E05TOU  cannot be made into a system file and is referenced.
      No diagnostics issued in procedure FMQ$CTG.

   Procedure FMQ$CTG requires 319 words for executable code.
   Procedure FMQ$CTG requires 18 words of local(AUTO) storage.

PL6.E3A0      #004=FMQ$CTG File=FMQ$DIR.:E05TSI                                  TUE 07/29/97 17:01 Page:105

 Object Unit name= FMQ$CTG                                    File name= FMQ$DIR.:E05TOU
 UTS= JUL 29 '97 17:01:10.84 TUE                              Compiler= PL-6/E31         Sev=      00
 SharedLib= :SHARED_SYSTEM                                    Alt SharedLib=


    ****  Control sections  ****

 Sect   Type Bound  Init  Size OctSiz  Section name(segment info)
    0   Proc  even  none   319    477  FMQ$CTG
    1  RoData even  none     6      6  FMQ$CTG

    ****  Entry defs  ****

                              Check   Calling
                             calling  sequence
  Sect OctLoc Primary Altret sequence   type   Parms  Name
     0      0   yes    yes     yes      Std        2  FMQ$CTG

  ****  Entry refs  ****

         Check        Calling
        calling       sequence
Altret sequence SRef   type   Args  Name
 yes     yes           Std       1 UQB$MENQX
 yes     yes           Std       1 FMQ$BLDFD
 yes     yes           Std       5 FMQ$SRCHFD
 yes     yes           Std       2 FMO$LOCCODP
         yes           Std       2 FMR$UPDGAC
         yes           Std       1 FMD$WRTBUF
         yes           Std       1 FMR$FN
 yes     yes           Std       1 FAG$RFILE
         yes           Std       1 FMD$FLSHBUF
         yes           Std       1 FMP$RELCFUS
 yes     yes           Std       1 UQB$MDEQ
 yes     yes           Std       4 FMG$ADDKEY
         yes           Std       0 FMR$L8
         yes           Std       0 FMR$U8
PL6.E3A0      #004=FMQ$CTG File=FMQ$DIR.:E05TSI                                  TUE 07/29/97 17:01 Page:106
                       nStd      0 X66_AUTO_2
                       Std       0 B_CONSPOOL_D
                       nStd      0 X66_ARET
                       nStd      0 X66_AALT

  ****  Data refs  ****

  Flags:  r = read only, s = secondary
Flgs Name                             Flgs Name                             Flgs Name
     SC_FMQ94                         r    F$CFU$                                B$JIT$
     FM$BUF$                               B_VECTNIL

  ****  Segment refs  ****

  Flags:  r = read only, s = secondary
Flgs Name                             Flgs Name                             Flgs Name
     ASLENTSID                             ISSID
PL6.E3A0      #004=FMQ$CTG File=FMQ$DIR.:E05TSI                                  TUE 07/29/97 17:01 Page:107


      473        1        /*T***********************************************************/
      474        2        /*T*                                                         */
      475        3        /*T* Copyright (c) Bull HN Information Systems Inc., 1997    */
      476        4        /*T*                                                         */
      477        5        /*T***********************************************************/
      478        6        /*F*   NAME:  FMQ$CTG
      479        7        *      PURPOSE:  Catalog a file in a directory, either by adding
      480        8        *                a new entry or by changing the pointers in an
      481        9        *                existing one.                                               */
      482       10                                                                                  /*
      483       11                                                                                   *
      484       12                                                                                     */
      485       13        /*D*     NAME:   FMQ$CTG
      486       14        *      CALL:   CALL FMQ$CTG(JDCB$,NAME$,OLDFITDA) ALTRET(LOC);
      487       15        *      INPUT:  JDCB$ - Pointer to DCB
      488       16        *              NAME$ - Pointer to name to add
      489       17        *              CFU contains DA of FIT, and ACCTX points to the
      490       18        *                account block of the FD
      491       19        *      OUTPUT: OLDFITDA - Disk address of old FIT if cataloging
      492       20        *                         over an existing file, else zero
      493       21        *      DESCRIPTION:                                                          */
      494       22                                                /*                                    */
      495       23        FMQ$CTG: PROC(NAME$,OLDFITDA) ALTRET;

     23  0 000000   000000 700200 xent  FMQ$CTG      TSX0  ! X66_AUTO_2
         0 000001   000022 000002                    ZERO    18,2

      496       24        /* PARAMETERS */
      497       25    1   DCL NAME$ PTR;
      498       26    1   DCL OLDFITDA SBIN WORD;
      499       27        /* LOCAL AUTOMATIC STORAGE */
      500       28    1   DCL JDCB$ PTR;
      501       29    1   DCL ACCTX SBIN WORD;
      502       30    1   DCL ACCT$ PTR;
      503       31    1   DCL BUF$ PTR;
      504       32    1   DCL KEY$ PTR;
PL6.E3A0      #004=FMQ$CTG File=FMQ$DIR.:E05TSI                                  TUE 07/29/97 17:01 Page:108
      505       33    1   DCL SEG$ PTR;
      506       34    1   DCL CFU$ PTR;
      507       35        /* EXTERNAL ROUTINES */
      508       36    1   DCL FAG$RFILE ENTRY(1) ALTRET;
      509       37    1   DCL FMP$RELCFUS ENTRY(1);
      510       38    1   DCL FMR$FN ENTRY(1);
      511       39    1   DCL FMR$L8 ENTRY;
      512       40    1   DCL FMR$U8 ENTRY;
      513       41    1   DCL FMQ$BLDFD ENTRY(1) ALTRET;
      514       42    1   DCL FMD$FLSHBUF ENTRY(1);
      515       43    1   DCL FMR$UPDGAC ENTRY(2);
      516       44    1   DCL FMQ$SRCHFD ENTRY(5) ALTRET;
      517       45    1   DCL FMG$ADDKEY ENTRY(4) ALTRET;
      518       46    1   DCL FMD$WRTBUF ENTRY(1);
      519       47    1   DCL FMO$LOCCODP ENTRY(2)ALTRET;
      520       48    1   DCL UQB$MENQX ENTRY(1)ALTRET;
      521       49    1   DCL UQB$MDEQ ENTRY(1)ALTRET;
      522       50    1   DCL UQB$WAIT ENTRY(8) ALTRET;
      523       51    1   DCL SC_FMQ94 ENTRY CONV(2,0);
      524       52        /* INCLUDE FILES */
      525       53        %INCLUDE F$JIT_C;
      526      483        %MACRO F$DCB(BASED=BASED);
      527      484        %INCLUDE F$DCB;
      528      533        %MEND;
      529      534        %F$DCB(BASED="BASED(JDCB$)");
      530      584        %INCLUDE FM$MACROS;
      531      959        %INCLUDE F_ERRORS_C;
      532     1199        %INCLUDE FM_DATA_R;
      533     1213        %INCLUDE CP_6_SUBS;
      534     1753        /* EXTERNAL DATA */
      535     1754    1   DCL B$JIT$ PTR SYMREF;
      536     1755    1   DCL FM$BUF$(0:0) PTR SYMREF;
      537     1756        /* BASED STRUCTURES */
      538     1757        %FM$CFU(BASED="BASED(CFU$)");
      539     1763        %FM$CFUA(BASED="BASED(ACCT$)");
      540     1769        %FM$KEYENT(BASED="BASED(KEY$)");
      541     1772        %FM$FDSEG(BASED="BASED(SEG$)");
PL6.E3A0      #004=FMQ$CTG File=FMQ$DIR.:E05TSI                                  TUE 07/29/97 17:01 Page:109
      542     1776        %FM$CFUF(BASED="BASED(CFU$)");
      543     1779        %CODE14(BASED="BASED(SEG$)");
      544     1789        %FM$GRAN;
      545     1793        /**/
      546     1794    1           JDCB$=B$JIT.DCB$;

   1794  0 000002   000000 470400 xsym               LDP0    B$JIT$
         0 000003   000232 236100                    LDQ     154,,PR0
         0 000004   200005 756100                    STQ     JDCB$,,AUTO

      547     1795    1           CFU$=F$DCB.CFU$;

   1795  0 000005   200005 471500                    LDP1    JDCB$,,AUTO
         0 000006   100066 236100                    LDQ     54,,PR1
         0 000007   200013 756100                    STQ     CFU$,,AUTO

      548     1796    2           IF NOT F$DCB.STARF THEN DO;     /* NOT STAR FILE                      */

   1796  0 000010   100064 236100                    LDQ     52,,PR1
         0 000011   200000 316003                    CANQ    65536,DU
         0 000012   000043 601000 0                  TNZ     s:1809

      549     1797    2              ACCTX=FM$CFU.ACCTX;

   1797  0 000013   200013 473500                    LDP3    CFU$,,AUTO
         0 000014   300002 236100                    LDQ     2,,PR3
         0 000015   000022 772000                    QRL     18
         0 000016   200006 756100                    STQ     ACCTX,,AUTO

      550     1798    2              IF ACCTX=0 THEN              /* TWO CFUS, OTHER HAS REAL ACCTX     */

   1798  0 000017   000025 601000 0                  TNZ     s:1800

      551     1799    2                 ACCTX=PINCRW(F$CFU$,FM$CFU.NAMEX)->FM$CFU.ACCTX;

   1799  0 000020   300002 720100                    LXL0    2,,PR3
         0 000021   000000 474400 xsym               LDP4    F$CFU$
PL6.E3A0      #004=FMQ$CTG File=FMQ$DIR.:E05TSI                                  TUE 07/29/97 17:01 Page:110
         0 000022   400002 236110                    LDQ     2,X0,PR4
         0 000023   000022 772000                    QRL     18
         0 000024   200006 756100                    STQ     ACCTX,,AUTO

      552     1800    2              ACCT$=PINCRW(F$CFU$,ACCTX);  /* ACCT BLOCK POINTER                 */

   1800  0 000025   000022 736000                    QLS     18
         0 000026   000000 036000 xsym               ADLQ    F$CFU$
         0 000027   200007 756100                    STQ     ACCT$,,AUTO

      553     1801        /* RESERVE FILE DIRECTORY FOR WRITE */
      554     1802    2              CALL UQB$MENQX(ACCT$)ALTRET(ENQERR);

   1802  0 000030   200007 634500                    EPPR4   ACCT$,,AUTO
         0 000031   200014 454500                    STP4    CFU$+1,,AUTO
         0 000032   200014 630500                    EPPR0   CFU$+1,,AUTO
         0 000033   000017 631400 xsym               EPPR1   B_VECTNIL+15
         0 000034   000000 701000 xent               TSX1    UQB$MENQX
         0 000035   000474 702000 0                  TSX2    ENQERR

      555     1803    2              IF NOT FM$CFUA.FLAGS.NEW THEN /* DIRECTORY EXISTS                  */

   1803  0 000036   200007 470500                    LDP0    ACCT$,,AUTO
         0 000037   000005 236100                    LDQ     5,,PR0
         0 000040   200000 316003                    CANQ    65536,DU
         0 000041   000054 600000 0                  TZE     OLDDIR

      556     1804    2                 GOTO OLDDIR;
      557     1805    2              ELSE                         /* NEW DIRECTORY                      */
      558     1806    2                 GOTO NEWDIR;

   1806  0 000042   000050 710000 0                  TRA     NEWDIR

      559     1807    2              END;
      560     1808        /**/
      561     1809    2           IF B$JIT.STAR.DA(0)+F$DCB.STARX=0 THEN DO; /* MUST BUILD DRCTRY       */

PL6.E3A0      #004=FMQ$CTG File=FMQ$DIR.:E05TSI                                  TUE 07/29/97 17:01 Page:111
   1809  0 000043   100064 236100                    LDQ     52,,PR1
         0 000044   000011 772000                    QRL     9
         0 000045   000007 376007                    ANQ     7,DL
         0 000046   000222 036100                    ADLQ    146,,PR0
         0 000047   000054 601000 0                  TNZ     OLDDIR

      562     1810    2   NEWDIR:    CALL FMQ$BLDFD(FM$CFUA) ALTRET(ERR);

   1810  0 000050   200007 630500       NEWDIR       EPPR0   ACCT$,,AUTO
         0 000051   000017 631400 xsym               EPPR1   B_VECTNIL+15
         0 000052   000000 701000 xent               TSX1    FMQ$BLDFD
         0 000053   000461 702000 0                  TSX2    ERR

      563     1811    2              END;

      564     1812        /**/
      565     1813    1   OLDDIR: OLDFITDA=0;                     /* ASSUME NO OLD FIT                  */

   1813  0 000054   200004 470500       OLDDIR       LDP0    @OLDFITDA,,AUTO
         0 000055   000000 450100                    STZ     0,,PR0

      566     1814    2           IF F$DCB.STARF AND F$DCB.STARX~=0 THEN DO; /* JIT CATALOGED           */

   1814  0 000056   200005 471500                    LDP1    JDCB$,,AUTO
         0 000057   100064 236100                    LDQ     52,,PR1
         0 000060   200000 316003                    CANQ    65536,DU
         0 000061   000104 600000 0                  TZE     s:1820
         0 000062   007000 316007                    CANQ    3584,DL
         0 000063   000104 600000 0                  TZE     s:1820

      567     1815    2              OLDFITDA=B$JIT.STAR.DA(F$DCB.STARX);

   1815  0 000064   100064 236100                    LDQ     52,,PR1
         0 000065   000011 772000                    QRL     9
         0 000066   000007 376007                    ANQ     7,DL
         0 000067   000000 473400 xsym               LDP3    B$JIT$
         0 000070   300222 235106                    LDA     146,QL,PR3
PL6.E3A0      #004=FMQ$CTG File=FMQ$DIR.:E05TSI                                  TUE 07/29/97 17:01 Page:112
         0 000071   000000 755100                    STA     0,,PR0

      568     1816    2              B$JIT.STAR.DA(F$DCB.STARX)=FM$CFU.FITSDA;

   1816  0 000072   100064 236100                    LDQ     52,,PR1
         0 000073   000011 772000                    QRL     9
         0 000074   000007 376007                    ANQ     7,DL
         0 000075   200013 473500                    LDP3    CFU$,,AUTO
         0 000076   000000 474400 xsym               LDP4    B$JIT$
         0 000077   000000 620006                    EAX0    0,QL
         0 000100   300000 236100                    LDQ     0,,PR3
         0 000101   000032 376000 xsym               ANQ     B_VECTNIL+26
         0 000102   400222 756110                    STQ     146,X0,PR4

      569     1817    2              GOTO FIXCFU;

   1817  0 000103   000227 710000 0                  TRA     FIXCFU

      570     1818    2              END;
      571     1819        /**/
      572     1820    1           CALL FMQ$SRCHFD(NAME$,KEY$,SEG$,ACCT$,ADDR(NIL)) ALTRET(NOKEY);

   1820  0 000104   000001 236000 xsym               LDQ     B_VECTNIL+1
         0 000105   200014 756100                    STQ     CFU$+1,,AUTO
         0 000106   200014 633500                    EPPR3   CFU$+1,,AUTO
         0 000107   200021 453500                    STP3    CFU$+6,,AUTO
         0 000110   200007 634500                    EPPR4   ACCT$,,AUTO
         0 000111   200020 454500                    STP4    CFU$+5,,AUTO
         0 000112   200012 635500                    EPPR5   SEG$,,AUTO
         0 000113   200017 455500                    STP5    CFU$+4,,AUTO
         0 000114   200011 636500                    EPPR6   KEY$,,AUTO
         0 000115   200016 456500                    STP6    CFU$+3,,AUTO
         0 000116   200003 236100                    LDQ     @NAME$,,AUTO
         0 000117   200015 756100                    STQ     CFU$+2,,AUTO
         0 000120   200015 630500                    EPPR0   CFU$+2,,AUTO
         0 000121   000023 631400 xsym               EPPR1   B_VECTNIL+19
         0 000122   000000 701000 xent               TSX1    FMQ$SRCHFD
PL6.E3A0      #004=FMQ$CTG File=FMQ$DIR.:E05TSI                                  TUE 07/29/97 17:01 Page:113
         0 000123   000433 702000 0                  TSX2    NOKEY

      573     1821    1   GOTENT: IF FM$KEYENT.D THEN             /* OLD DELETED ENTRY                  */

   1821  0 000124   200011 470500       GOTENT       LDP0    KEY$,,AUTO
         0 000125   000000 234100                    SZN     0,,PR0
         0 000126   000132 605000 0                  TPL     s:1824

      574     1822    1              FM$KEYENT.D='0'B;

   1822  0 000127   000031 236000 xsym               LDQ     B_VECTNIL+25
         0 000130   000000 356100                    ANSQ    0,,PR0
         0 000131   000141 710000 0                  TRA     SETPTR

      575     1823    1           ELSE
      576     1824    1              IF NOT FM$FDSEG.DESC.DELF THEN

   1824  0 000132   200012 471500                    LDP1    SEG$,,AUTO
         0 000133   100000 234100                    SZN     0,,PR1
         0 000134   000141 604000 0                  TMI     SETPTR

      577     1825    1                 OLDFITDA=FM$FDSEG.FITSDA; /* GET OLD FIT ADDR                   */

   1825  0 000135   100000 236100                    LDQ     0,,PR1
         0 000136   000032 376000 xsym               ANQ     B_VECTNIL+26
         0 000137   200004 473500                    LDP3    @OLDFITDA,,AUTO
         0 000140   300000 756100                    STQ     0,,PR3

      578     1826        /**/
      579     1827    1   SETPTR: FM$FDSEG.FITSDA=FM$CFU.FITSDA;

   1827  0 000141   200013 470500       SETPTR       LDP0    CFU$,,AUTO
         0 000142   200012 471500                    LDP1    SEG$,,AUTO
         0 000143   000000 236100                    LDQ     0,,PR0
         0 000144   100000 552134                    STBQ    0,'34'O,PR1

      580     1828    1           FM$FDSEG.DESC=F$DCB.DESC;
PL6.E3A0      #004=FMQ$CTG File=FMQ$DIR.:E05TSI                                  TUE 07/29/97 17:01 Page:114

   1828  0 000145   200012 471500                    LDP1    SEG$,,AUTO
         0 000146   200005 473500                    LDP3    JDCB$,,AUTO
         0 000147   300005 236100                    LDQ     5,,PR3
         0 000150   000022 736000                    QLS     18
         0 000151   100000 552140                    STBQ    0,'40'O,PR1

      581     1829    1           IF NOT F$DCB.STARF THEN

   1829  0 000152   300064 236100                    LDQ     52,,PR3
         0 000153   200000 316003                    CANQ    65536,DU
         0 000154   000223 601000 0                  TNZ     s:1839

      582     1830    2              IF F$DCB.BFR.DA(1)=FM$CFUA.FDFITSDA AND FM$CFUA.GMOD~=0 THEN DO;

   1830  0 000155   200007 471500                    LDP1    ACCT$,,AUTO
         0 000156   300116 236100                    LDQ     78,,PR3
         0 000157   000032 376000 xsym               ANQ     B_VECTNIL+26
         0 000160   100004 116100                    CMPQ    4,,PR1
         0 000161   000223 601000 0                  TNZ     s:1839
         0 000162   100005 236100                    LDQ     5,,PR1
         0 000163   100000 316003                    CANQ    32768,DU
         0 000164   000223 600000 0                  TZE     s:1839

      583     1831    2                 CALL FMR$L8;

   1831  0 000165   000002 631400 xsym               EPPR1   B_VECTNIL+2
         0 000166   000000 701000 xent               TSX1    FMR$L8
         0 000167   000000 011000                    NOP     0

      584     1832    2                 SEG$=PINCRW(FM$BUF$(F$DCB.BFR.BUFX(1)),SIZEW(FM$GRAN));

   1832  0 000170   200005 470500                    LDP0    JDCB$,,AUTO
         0 000171   000116 236100                    LDQ     78,,PR0
         0 000172   000033 772000                    QRL     27
         0 000173   000037 376007                    ANQ     31,DL
         0 000174   000000 236006 xsym               LDQ     FM$BUF$,QL
PL6.E3A0      #004=FMQ$CTG File=FMQ$DIR.:E05TSI                                  TUE 07/29/97 17:01 Page:115
         0 000175   000005 036003                    ADLQ    5,DU
         0 000176   200012 756100                    STQ     SEG$,,AUTO

      585     1833    2                 CALL FMO$LOCCODP(SEG$,14);

   1833  0 000177   000001 236000 1                  LDQ     1
         0 000200   200015 756100                    STQ     CFU$+2,,AUTO
         0 000201   200012 631500                    EPPR1   SEG$,,AUTO
         0 000202   200014 451500                    STP1    CFU$+1,,AUTO
         0 000203   200014 630500                    EPPR0   CFU$+1,,AUTO
         0 000204   000020 631400 xsym               EPPR1   B_VECTNIL+16
         0 000205   000000 701000 xent               TSX1    FMO$LOCCODP
         0 000206   000000 011000                    NOP     0

      586     1834    2                 CODE14.CGRANS=CODE14.MGRANS-FM$CFUA.GRANS;

   1834  0 000207   200007 470500                    LDP0    ACCT$,,AUTO
         0 000210   200012 471500                    LDP1    SEG$,,AUTO
         0 000211   100001 236100                    LDQ     1,,PR1
         0 000212   000032 376000 xsym               ANQ     B_VECTNIL+26
         0 000213   000007 136100                    SBLQ    7,,PR0
         0 000214   100002 756100                    STQ     2,,PR1

      587     1835    2                 FM$CFUA.GMOD=0;

   1835  0 000215   200007 470500                    LDP0    ACCT$,,AUTO
         0 000216   000002 236000 1                  LDQ     2
         0 000217   000005 356100                    ANSQ    5,,PR0

      588     1836    2                 CALL FMR$U8;

   1836  0 000220   000002 631400 xsym               EPPR1   B_VECTNIL+2
         0 000221   000000 701000 xent               TSX1    FMR$U8
         0 000222   000000 011000                    NOP     0

      589     1837    2                 END;

PL6.E3A0      #004=FMQ$CTG File=FMQ$DIR.:E05TSI                                  TUE 07/29/97 17:01 Page:116
      590     1838                                                /*                                    */
      591     1839    1              CALL FMD$WRTBUF(1);

   1839  0 000223   000003 630400 1                  EPPR0   3
         0 000224   000017 631400 xsym               EPPR1   B_VECTNIL+15
         0 000225   000000 701000 xent               TSX1    FMD$WRTBUF
         0 000226   000000 011000                    NOP     0

      592     1840        /**/
      593     1841    2   FIXCFU: IF MOD(FM$CFU.FUN,4)=%CREATE# THEN DO;

   1841  0 000227   200013 470500       FIXCFU       LDP0    CFU$,,AUTO
         0 000230   000000 236100                    LDQ     0,,PR0
         0 000231   000041 772000                    QRL     33
         0 000232   000003 376007                    ANQ     3,DL
         0 000233   000003 116007                    CMPQ    3,DL
         0 000234   000416 601000 0                  TNZ     s:1877

      594     1842    2              CALL FMR$L8;

   1842  0 000235   000002 631400 xsym               EPPR1   B_VECTNIL+2
         0 000236   000000 701000 xent               TSX1    FMR$L8
         0 000237   000000 011000                    NOP     0

      595     1843    2              IF F$DCB.ACS~=%JRNL# THEN FM$CFU.FUN=%UPDATE#;

   1843  0 000240   200005 470500                    LDP0    JDCB$,,AUTO
         0 000241   000036 236100                    LDQ     30,,PR0
         0 000242   000777 376007                    ANQ     511,DL
         0 000243   000004 116007                    CMPQ    4,DL
         0 000244   000253 600000 0                  TZE     s:1844

   1843  0 000245   200013 471500                    LDP1    CFU$,,AUTO
         0 000246   100000 236100                    LDQ     0,,PR1
         0 000247   000004 376000 1                  ANQ     4
         0 000250   100000 276003                    ORQ     32768,DU
         0 000251   100000 756100                    STQ     0,,PR1
PL6.E3A0      #004=FMQ$CTG File=FMQ$DIR.:E05TSI                                  TUE 07/29/97 17:01 Page:117
         0 000252   000260 710000 0                  TRA     s:1846

      596     1844    2              ELSE FM$CFU.FUN=%JRNL#;

   1844  0 000253   200013 471500                    LDP1    CFU$,,AUTO
         0 000254   100000 236100                    LDQ     0,,PR1
         0 000255   000004 376000 1                  ANQ     4
         0 000256   400000 276003                    ORQ     -131072,DU
         0 000257   100000 756100                    STQ     0,,PR1

      597     1845                            /* IF A FILE ALREADY EXISTED, CAUSE IT TO BE RELEASED     */
      598     1846    3              IF FM$CFU.ACCTX=0 THEN DO;

   1846  0 000260   100002 220100                    LDX0    2,,PR1
         0 000261   000325 601000 0                  TNZ     s:1856

      599     1847    3                 SEG$=PINCRW(F$CFU$,FM$CFU.NAMEX);

   1847  0 000262   100002 721100                    LXL1    2,,PR1
         0 000263   000000 636011                    EAQ     0,X1
         0 000264   000000 036000 xsym               ADLQ    F$CFU$
         0 000265   200012 756100                    STQ     SEG$,,AUTO

      600     1848    3                 FM$CFUF.ACCNAM=SEG$->FM$CFUF.ACCNAM;

   1848  0 000266   200012 473500                    LDP3    SEG$,,AUTO
         0 000267   300002 235100                    LDA     2,,PR3
         0 000270   100002 755100                    STA     2,,PR1

      601     1849    3                 SEG$->FM$CFU.NAMEX=POFFW(CFU$,F$CFU$); /* POINT IT AT US        */

   1849  0 000271   000000 236000 xsym               LDQ     F$CFU$
         0 000272   000022 772000                    QRL     18
         0 000273   200014 756100                    STQ     CFU$+1,,AUTO
         0 000274   200013 236100                    LDQ     CFU$,,AUTO
         0 000275   000022 772000                    QRL     18
         0 000276   200014 136100                    SBLQ    CFU$+1,,AUTO
PL6.E3A0      #004=FMQ$CTG File=FMQ$DIR.:E05TSI                                  TUE 07/29/97 17:01 Page:118
         0 000277   000000 620006                    EAX0    0,QL
         0 000300   200012 473500                    LDP3    SEG$,,AUTO
         0 000301   300002 440100                    SXL0    2,,PR3

      602     1850    3                 CALL FMR$FN(SEG$);        /* UNLINK IT                          */

   1850  0 000302   200012 633500                    EPPR3   SEG$,,AUTO
         0 000303   200014 453500                    STP3    CFU$+1,,AUTO
         0 000304   200014 630500                    EPPR0   CFU$+1,,AUTO
         0 000305   000017 631400 xsym               EPPR1   B_VECTNIL+15
         0 000306   000000 701000 xent               TSX1    FMR$FN
         0 000307   000000 011000                    NOP     0

      603     1851    3                 SEG$->FM$CFU.ACFU=0;

   1851  0 000310   200012 470500                    LDP0    SEG$,,AUTO
         0 000311   000005 236000 1                  LDQ     5
         0 000312   000000 356100                    ANSQ    0,,PR0

      604     1852    3                 CALL FMR$U8;

   1852  0 000313   000002 631400 xsym               EPPR1   B_VECTNIL+2
         0 000314   000000 701000 xent               TSX1    FMR$U8
         0 000315   000000 011000                    NOP     0

      605     1853    3                 CALL FMP$RELCFUS(SEG$);   /* UNCOUNT US..MEBBE RFILE            */

   1853  0 000316   200012 630500                    EPPR0   SEG$,,AUTO
         0 000317   200014 450500                    STP0    CFU$+1,,AUTO
         0 000320   200014 630500                    EPPR0   CFU$+1,,AUTO
         0 000321   000017 631400 xsym               EPPR1   B_VECTNIL+15
         0 000322   000000 701000 xent               TSX1    FMP$RELCFUS
         0 000323   000000 011000                    NOP     0

      606     1854    3                 END;

   1854  0 000324   000343 710000 0                  TRA     s:1862
PL6.E3A0      #004=FMQ$CTG File=FMQ$DIR.:E05TSI                                  TUE 07/29/97 17:01 Page:119

      607     1855    3              ELSE DO;

      608     1856    3                 CALL FMR$U8;              /* NO INPUT OPENS                     */

   1856  0 000325   000002 631400 xsym               EPPR1   B_VECTNIL+2
         0 000326   000000 701000 xent               TSX1    FMR$U8
         0 000327   000000 011000                    NOP     0

      609     1857    4                 IF OLDFITDA~=0 THEN DO;

   1857  0 000330   200004 470500                    LDP0    @OLDFITDA,,AUTO
         0 000331   000000 235100                    LDA     0,,PR0
         0 000332   000343 600000 0                  TZE     s:1862

      610     1858    4                    CALL FAG$RFILE(OLDFITDA);

   1858  0 000333   200004 630500                    EPPR0   @OLDFITDA,,AUTO
         0 000334   000017 631400 xsym               EPPR1   B_VECTNIL+15
         0 000335   000000 701000 xent               TSX1    FAG$RFILE
         0 000336   000000 011000                    NOP     0

      611     1859    4                    CALL FMD$FLSHBUF(1);

   1859  0 000337   000003 630400 1                  EPPR0   3
         0 000340   000017 631400 xsym               EPPR1   B_VECTNIL+15
         0 000341   000000 701000 xent               TSX1    FMD$FLSHBUF
         0 000342   000000 011000                    NOP     0

      612     1860    4                    END;

      613     1861    3                 END;

      614     1862    2              IF F$DCB.BORROW>0 THEN

   1862  0 000343   200005 470500                    LDP0    JDCB$,,AUTO
         0 000344   000065 235100                    LDA     53,,PR0
PL6.E3A0      #004=FMQ$CTG File=FMQ$DIR.:E05TSI                                  TUE 07/29/97 17:01 Page:120
         0 000345   000414 604400 0                  TMOZ    s:1874

      615     1863    3                 IF NOT F$DCB.STARF THEN DO;

   1863  0 000346   000064 236100                    LDQ     52,,PR0
         0 000347   200000 316003                    CANQ    65536,DU
         0 000350   000375 601000 0                  TNZ     s:1871

      616     1864    3                    CALL FMR$L8;

   1864  0 000351   000002 631400 xsym               EPPR1   B_VECTNIL+2
         0 000352   000000 701000 xent               TSX1    FMR$L8
         0 000353   000000 011000                    NOP     0

      617     1865    3                    FM$CFUA.GRANS=FM$CFUA.GRANS+F$DCB.BORROW;

   1865  0 000354   200007 470500                    LDP0    ACCT$,,AUTO
         0 000355   200005 471500                    LDP1    JDCB$,,AUTO
         0 000356   000007 236100                    LDQ     7,,PR0
         0 000357   100065 036100                    ADLQ    53,,PR1
         0 000360   000007 756100                    STQ     7,,PR0

      618     1866    3                    FM$CFUA.GMOD=1;

   1866  0 000361   200007 470500                    LDP0    ACCT$,,AUTO
         0 000362   100000 236003                    LDQ     32768,DU
         0 000363   000005 256100                    ORSQ    5,,PR0

      619     1867    3                    CALL FMR$U8;

   1867  0 000364   000002 631400 xsym               EPPR1   B_VECTNIL+2
         0 000365   000000 701000 xent               TSX1    FMR$U8
         0 000366   000000 011000                    NOP     0

      620     1868    3                    B$JIT.PRDPRM=B$JIT.PRDPRM+F$DCB.BORROW;

   1868  0 000367   000000 470400 xsym               LDP0    B$JIT$
PL6.E3A0      #004=FMQ$CTG File=FMQ$DIR.:E05TSI                                  TUE 07/29/97 17:01 Page:121
         0 000370   200005 471500                    LDP1    JDCB$,,AUTO
         0 000371   000242 236100                    LDQ     162,,PR0
         0 000372   100065 036100                    ADLQ    53,,PR1
         0 000373   000242 756100                    STQ     162,,PR0

      621     1869    3                    END;

   1869  0 000374   000414 710000 0                  TRA     s:1874

      622     1870    3                 ELSE DO;

      623     1871    3                    CALL FMR$UPDGAC(B$JIT.TMPGAC,B$JIT.CURTMPDP);

   1871  0 000375   000000 236000 xsym               LDQ     B$JIT$
         0 000376   000240 036003                    ADLQ    160,DU
         0 000377   200015 756100                    STQ     CFU$+2,,AUTO
         0 000400   000000 236000 xsym               LDQ     B$JIT$
         0 000401   000246 036003                    ADLQ    166,DU
         0 000402   200014 756100                    STQ     CFU$+1,,AUTO
         0 000403   200014 630500                    EPPR0   CFU$+1,,AUTO
         0 000404   000020 631400 xsym               EPPR1   B_VECTNIL+16
         0 000405   000000 701000 xent               TSX1    FMR$UPDGAC
         0 000406   000000 011000                    NOP     0

      624     1872    3                    B$JIT.CURTMPDP=B$JIT.CURTMPDP-F$DCB.BORROW;

   1872  0 000407   200005 470500                    LDP0    JDCB$,,AUTO
         0 000410   000000 471400 xsym               LDP1    B$JIT$
         0 000411   100240 236100                    LDQ     160,,PR1
         0 000412   000065 136100                    SBLQ    53,,PR0
         0 000413   100240 756100                    STQ     160,,PR1

      625     1873    3                    END;

      626     1874    2              F$DCB.BORROW=0;

   1874  0 000414   200005 470500                    LDP0    JDCB$,,AUTO
PL6.E3A0      #004=FMQ$CTG File=FMQ$DIR.:E05TSI                                  TUE 07/29/97 17:01 Page:122
         0 000415   000065 450100                    STZ     53,,PR0

      627     1875    2              END;

      628     1876                                                /*                                    */
      629     1877    1           IF NOT F$DCB.STARF THEN         /* RELEASE FD RESERVATION             */

   1877  0 000416   200005 470500                    LDP0    JDCB$,,AUTO
         0 000417   000064 236100                    LDQ     52,,PR0
         0 000420   200000 316003                    CANQ    65536,DU
         0 000421   000430 601000 0                  TNZ     s:1880

      630     1878    1           CALL UQB$MDEQ(ACCT$);

   1878  0 000422   200007 631500                    EPPR1   ACCT$,,AUTO
         0 000423   200014 451500                    STP1    CFU$+1,,AUTO
         0 000424   200014 630500                    EPPR0   CFU$+1,,AUTO
         0 000425   000017 631400 xsym               EPPR1   B_VECTNIL+15
         0 000426   000000 701000 xent               TSX1    UQB$MDEQ
         0 000427   000000 011000                    NOP     0

      631     1879                                                /*                                    */
      632     1880    1           B$JIT.ERR='0'B;                 /* CLEAR ANY ERROR                    */

   1880  0 000430   000000 470400 xsym               LDP0    B$JIT$
         0 000431   000012 450100                    STZ     10,,PR0

      633     1881                                                /*                                    */
      634     1882    1           RETURN;

   1882  0 000432   000000 702200 xent               TSX2  ! X66_ARET

      635     1883        /**/
      636     1884        /**/
      637     1885    1   NOKEY:  IF B$JIT.ERR.CODE~=%E$NOKEY THEN

   1885  0 000433   000000 470400 xsym  NOKEY        LDP0    B$JIT$
PL6.E3A0      #004=FMQ$CTG File=FMQ$DIR.:E05TSI                                  TUE 07/29/97 17:01 Page:123
         0 000434   000012 236100                    LDQ     10,,PR0
         0 000435   377770 376007                    ANQ     131064,DL
         0 000436   001020 116007                    CMPQ    528,DL
         0 000437   000461 601000 0                  TNZ     ERR

      638     1886    1              GOTO ERR;
      639     1887    1           IF B$JIT.ERR.MID='21'O THEN     /* SRCHFD FOUND DELETED ENTRY         */

   1887  0 000440   000012 236100                    LDQ     10,,PR0
         0 000441   000077 376003                    ANQ     63,DU
         0 000442   000021 116003                    CMPQ    17,DU
         0 000443   000124 600000 0                  TZE     GOTENT

      640     1888    1              GOTO GOTENT;
      641     1889    1           CALL FMG$ADDKEY(SEG$,SIZEW(FM$FDSEG),KEY$,NAME$) ALTRET(ERR);

   1889  0 000444   200003 236100                    LDQ     @NAME$,,AUTO
         0 000445   200017 756100                    STQ     CFU$+4,,AUTO
         0 000446   200011 631500                    EPPR1   KEY$,,AUTO
         0 000447   200016 451500                    STP1    CFU$+3,,AUTO
         0 000450   000003 236000 1                  LDQ     3
         0 000451   200015 756100                    STQ     CFU$+2,,AUTO
         0 000452   200012 633500                    EPPR3   SEG$,,AUTO
         0 000453   200014 453500                    STP3    CFU$+1,,AUTO
         0 000454   200014 630500                    EPPR0   CFU$+1,,AUTO
         0 000455   000022 631400 xsym               EPPR1   B_VECTNIL+18
         0 000456   000000 701000 xent               TSX1    FMG$ADDKEY
         0 000457   000461 702000 0                  TSX2    ERR

      642     1890    1           GOTO SETPTR;

   1890  0 000460   000141 710000 0                  TRA     SETPTR

      643     1891        /**/
      644     1892        /**/
      645     1893    1   ERR:    IF NOT F$DCB.STARF THEN         /* RELEASE FD RESERVATION             */

PL6.E3A0      #004=FMQ$CTG File=FMQ$DIR.:E05TSI                                  TUE 07/29/97 17:01 Page:124
   1893  0 000461   200005 470500       ERR          LDP0    JDCB$,,AUTO
         0 000462   000064 236100                    LDQ     52,,PR0
         0 000463   200000 316003                    CANQ    65536,DU
         0 000464   000473 601000 0                  TNZ     s:1895

      646     1894    1           CALL UQB$MDEQ(ACCT$);

   1894  0 000465   200007 631500                    EPPR1   ACCT$,,AUTO
         0 000466   200014 451500                    STP1    CFU$+1,,AUTO
         0 000467   200014 630500                    EPPR0   CFU$+1,,AUTO
         0 000470   000017 631400 xsym               EPPR1   B_VECTNIL+15
         0 000471   000000 701000 xent               TSX1    UQB$MDEQ
         0 000472   000000 011000                    NOP     0

      647     1895    1           ALTRETURN;

   1895  0 000473   000000 702200 xent               TSX2  ! X66_AALT

   1893  0 000474                       ENQERR       null
      648     1896                                                /*                                    */
      649     1897    1   ENQERR: ;
      650     1898    1           CALL SC_FMQ94;

   1898  0 000474   000000 713400 xsym               CLIMB   SC_FMQ94
         0 000475   000000 600000 xsid               climb   nvectors=         0

      651     1899        /*S*    SCREECH_CODE:   FMQ-S$FM94
      652     1900        *       TYPE:  SUA
      653     1901        */
      654     1902    1   END FMQ$CTG;

   1902  0 000476   000000 702200 xent               TSX2  ! X66_ARET

(unnamed)
 Sect OctLoc
   1     000   000000 000016   000000 006000   677777 777777   000003 006000    ................
   1     004   077777 777777   767777 777777                                    ?.......
PL6.E3A0      #004=FMQ$CTG File=FMQ$DIR.:E05TSI                                  TUE 07/29/97 17:01 Page:125
      655     1903        %EOD;

PL6.E3A0      #004=FMQ$CTG File=FMQ$DIR.:E05TSI                                  TUE 07/29/97 17:01 Page:126
--  Include file information  --

   CP_6_SUBS.:E05TOU  is referenced.
   FM_DATA_R.:E05TOU  cannot be made into a system file and is referenced.
   F_ERRORS_C.:E05TOU  is referenced.
   FM$MACROS.:E05TOU  is referenced.
   F$DCB.:E05TOU  is referenced.
   B$JIT_C.:E05TOU  is referenced.
   F$JIT_C.:E05TOU  cannot be made into a system file and is referenced.
      No diagnostics issued in procedure FMQ$CTG.
PL6.E3A0      #004=FMQ$CTG File=FMQ$DIR.:E05TSI                                  TUE 07/29/97 17:01 Page:127

 **** Variables and constants ****

  ****  Auto variables  ****

  ****  Scalars and arrays  ****
OctLoc.c.b A Datatyp(siz) R M Lvl/name                 OctLoc.c.b A Datatyp(siz) R M Lvl/name

     3-0-0/w PTR         r     1 @NAME$                     4-0-0/w PTR         r     1 @OLDFITDA
     7-0-0/w PTR         r     1 ACCT$                      6-0-0/w SBIN        r     1 ACCTX
    13-0-0/w PTR         r     1 CFU$                       5-0-0/w PTR         r     1 JDCB$
    11-0-0/w PTR         r     1 KEY$                      *0-0-0/w PTR         r     1 NAME$
    *0-0-0/w SBIN        r     1 OLDFITDA                  12-0-0/w PTR         r     1 SEG$

  ****  SYMREF variables  ****

  ****  Scalars and arrays  ****
OctLoc.c.b A Datatyp(siz) R M Lvl/name                 OctLoc.c.b A Datatyp(siz) R M Lvl/name

     0-0-0/w PTR         r     1 B$JIT$                     0-0-0/w PTR         r     1 F$CFU$
     0-0-0/w PTR         r     1 FM$BUF$(0:0)

  ****  BASED and DCB variables  ****

  ****  Scalars and arrays  ****
OctLoc.c.b A Datatyp(siz) R M Lvl/name                 OctLoc.c.b A Datatyp(siz) R M Lvl/name

     0-0-0/d STRC(8856)  r     1 B$JIT                      0-0-0/w STRC(288)   r     1 CODE14
     0-0-0/d ASTR(3528)  r     1 F$DCB                      0-0-0/w STRC(288)   r     1 FM$CFU
     0-0-0/w STRC(288)   r     1 FM$CFUA                    0-0-0/w STRC(288)   r     1 FM$CFUF
     0-0-0/w STRC        r     1 FM$FDSEG                   0-0-0/w STRC(180)   r     1 FM$GRAN
     0-0-0/w ASTR(9)     r     1 FM$KEYENT


   Procedure FMQ$CTG requires 319 words for executable code.
   Procedure FMQ$CTG requires 18 words of local(AUTO) storage.
PL6.E3A0      #004=FMQ$CTG File=FMQ$DIR.:E05TSI                                  TUE 07/29/97 17:01 Page:128
          *** CROSS REFERENCE LISTING ***
**     DENOTES     IDENTIFIER DEFINITION
<<                 IDENTIFIER'S VALUE SET
>>                 IDENTIFIER'S VALUE USED
<>                 IDENTIFIER SET AND/OR USED
--                 IDENTIFIER REFERENCED
PL6.E3A0      #004=FMQ$CTG File=FMQ$DIR.:E05TSI                                  TUE 07/29/97 17:01 Page:129
          MINI XREF LISTING

ACCT$
        30**DCL      1764--IMP-PTR  1800<<ASSIGN   1802<>CALL     1803>>IF       1810>>CALL     1820<>CALL
      1830>>IF       1830>>IF       1834>>ASSIGN   1835>>ASSIGN   1865>>ASSIGN   1865>>ASSIGN   1866>>ASSIGN
      1878<>CALL     1894<>CALL
ACCTX
        29**DCL      1797<<ASSIGN   1798>>IF       1799<<ASSIGN   1800>>ASSIGN
B$JIT.CURTMPDP
       471**DCL      1871<>CALL     1872<<ASSIGN   1872>>ASSIGN
B$JIT.DCB$
       470**DCL      1794>>ASSIGN
B$JIT.ERR
       380**DCL      1880<<ASSIGN
B$JIT.ERR.CODE
       381**DCL      1885>>IF
B$JIT.ERR.MID
       381**DCL       381--REDEF    1887>>IF
B$JIT.PRDPRM
       471**DCL      1868<<ASSIGN   1868>>ASSIGN
B$JIT.STAR.DA
       470**DCL      1809>>IF       1815>>ASSIGN   1816<<ASSIGN
B$JIT.TMPGAC
       471**DCL      1871<>CALL
B$JIT$
      1754**DCL       375--IMP-PTR  1794>>ASSIGN   1809>>IF       1815>>ASSIGN   1816>>ASSIGN   1868>>ASSIGN
      1868>>ASSIGN   1871>>CALL     1871>>CALL     1872>>ASSIGN   1872>>ASSIGN   1880>>ASSIGN   1885>>IF
      1887>>IF
CFU$
        34**DCL      1758--IMP-PTR  1777--IMP-PTR  1795<<ASSIGN   1797>>ASSIGN   1799>>ASSIGN   1816>>ASSIGN
      1827>>ASSIGN   1841>>IF       1843>>ASSIGN   1844>>ASSIGN   1846>>IF       1847>>ASSIGN   1848>>ASSIGN
      1849>>ASSIGN
CODE14.CGRANS
      1787**DCL      1834<<ASSIGN
PL6.E3A0      #004=FMQ$CTG File=FMQ$DIR.:E05TSI                                  TUE 07/29/97 17:01 Page:130
CODE14.MGRANS
      1787**DCL      1834>>ASSIGN
ENQERR
      1893**LABEL    1802--CALLALT
ERR
      1893**LABEL    1810--CALLALT  1886--GOTO     1889--CALLALT
F$CFU$
      1210**DCL      1799>>ASSIGN   1800>>ASSIGN   1847>>ASSIGN   1849>>ASSIGN
F$DCB.ACS
       552**DCL      1843>>IF
F$DCB.ACTPOS
       560**DCL       560--REDEF
F$DCB.ARS
       535**DCL       535--REDEF
F$DCB.ATTR
       553**DCL       554--REDEF
F$DCB.BFR.BUFX
       580**DCL      1832>>ASSIGN
F$DCB.BFR.DA
       580**DCL      1830>>IF
F$DCB.BORROW
       568**DCL       568--REDEF     568--REDEF     568--REDEF    1862>>IF       1865>>ASSIGN   1868>>ASSIGN
      1872>>ASSIGN   1874<<ASSIGN
F$DCB.CFU$
       569**DCL      1795>>ASSIGN
F$DCB.DCBNAME.L
       582**DCL       582--IMP-SIZ
F$DCB.DESC
       542**DCL      1828>>ASSIGN
F$DCB.EOMCHAR
       539**DCL       539--REDEF
F$DCB.FLDID
       563**DCL       563--REDEF
F$DCB.FORM$
       557**DCL       557--REDEF
F$DCB.FSECT
PL6.E3A0      #004=FMQ$CTG File=FMQ$DIR.:E05TSI                                  TUE 07/29/97 17:01 Page:131
       573**DCL       573--REDEF
F$DCB.FSN
       550**DCL       550--REDEF     550--REDEF     551--REDEF
F$DCB.HEADER$
       556**DCL       556--REDEF
F$DCB.IXTNSIZE
       554**DCL       554--REDEF
F$DCB.LASTSTA$
       544**DCL       544--REDEF
F$DCB.LVL
       569**DCL       569--REDEF
F$DCB.NAME.C
       544**DCL       544--REDEF
F$DCB.NOEOF
       565**DCL       565--REDEF
F$DCB.NRECS
       555**DCL       555--REDEF
F$DCB.NRECX
       574**DCL       574--REDEF
F$DCB.OHDR
       566**DCL       566--REDEF
F$DCB.ORG
       549**DCL       549--REDEF
F$DCB.PRECNO
       572**DCL       572--REDEF
F$DCB.RCSZ
       577**DCL       577--REDEF
F$DCB.RES
       545**DCL       545--REDEF
F$DCB.SETX
       557**DCL       557--REDEF
F$DCB.STARF
       564**DCL      1796>>IF       1814>>IF       1829>>IF       1863>>IF       1877>>IF       1893>>IF
F$DCB.STARX
       566**DCL      1809>>IF       1814>>IF       1815>>ASSIGN   1816>>ASSIGN
F$DCB.TAB$
PL6.E3A0      #004=FMQ$CTG File=FMQ$DIR.:E05TSI                                  TUE 07/29/97 17:01 Page:132
       556**DCL       557--REDEF
F$DCB.TDA
       571**DCL       571--REDEF
F$DCB.WSN
       546**DCL       546--REDEF
FAG$RFILE
        36**DCL-ENT  1858--CALL
FIXCFU
      1841**LABEL    1817--GOTO
FM$BUF$
      1755**DCL      1832>>ASSIGN
FM$CFU.ACCTX
      1759**DCL      1759--REDEF    1797>>ASSIGN   1799>>ASSIGN   1846>>IF
FM$CFU.ACFU
      1758**DCL      1851<<ASSIGN
FM$CFU.FITSDA
      1759**DCL      1816>>ASSIGN   1827>>ASSIGN
FM$CFU.FUN
      1758**DCL      1841>>IF       1843<<ASSIGN   1844<<ASSIGN
FM$CFU.NAMEX
      1759**DCL      1799>>ASSIGN   1847>>ASSIGN   1849<<ASSIGN
FM$CFUA
      1764**DCL      1810<>CALL
FM$CFUA.FDFITSDA
      1764**DCL      1830>>IF
FM$CFUA.FLAGS.NEW
      1765**DCL      1803>>IF
FM$CFUA.GMOD
      1765**DCL      1830>>IF       1835<<ASSIGN   1866<<ASSIGN
FM$CFUA.GRANS
      1767**DCL      1834>>ASSIGN   1865<<ASSIGN   1865>>ASSIGN
FM$CFUF.ACCNAM
      1777**DCL      1848<<ASSIGN   1848>>ASSIGN
FM$FDSEG
      1773**DCL      1889--CALL
FM$FDSEG.DESC
PL6.E3A0      #004=FMQ$CTG File=FMQ$DIR.:E05TSI                                  TUE 07/29/97 17:01 Page:133
      1773**DCL      1828<<ASSIGN
FM$FDSEG.DESC.DELF
      1773**DCL      1824>>IF
FM$FDSEG.FITSDA
      1774**DCL      1825>>ASSIGN   1827<<ASSIGN
FM$GRAN
      1790**DCL      1832--ASSIGN
FM$KEYENT.D
      1770**DCL      1821>>IF       1822<<ASSIGN
FM$KEYENT.KLB
      1770**DCL      1770--IMP-SIZ
FMD$FLSHBUF
        42**DCL-ENT  1859--CALL
FMD$WRTBUF
        46**DCL-ENT  1839--CALL
FMG$ADDKEY
        45**DCL-ENT  1889--CALL
FMO$LOCCODP
        47**DCL-ENT  1833--CALL
FMP$RELCFUS
        37**DCL-ENT  1853--CALL
FMQ$BLDFD
        41**DCL-ENT  1810--CALL
FMQ$SRCHFD
        44**DCL-ENT  1820--CALL
FMR$FN
        38**DCL-ENT  1850--CALL
FMR$L8
        39**DCL-ENT  1831--CALL     1842--CALL     1864--CALL
FMR$U8
        40**DCL-ENT  1836--CALL     1852--CALL     1856--CALL     1867--CALL
FMR$UPDGAC
        43**DCL-ENT  1871--CALL
GOTENT
      1821**LABEL    1888--GOTO
JDCB$
PL6.E3A0      #004=FMQ$CTG File=FMQ$DIR.:E05TSI                                  TUE 07/29/97 17:01 Page:134
        28**DCL       535--IMP-PTR  1794<<ASSIGN   1795>>ASSIGN   1796>>IF       1809>>IF       1814>>IF
      1814>>IF       1815>>ASSIGN   1816>>ASSIGN   1828>>ASSIGN   1829>>IF       1830>>IF       1832>>ASSIGN
      1843>>IF       1862>>IF       1863>>IF       1865>>ASSIGN   1868>>ASSIGN   1872>>ASSIGN   1874>>ASSIGN
      1877>>IF       1893>>IF
KEY$
        32**DCL      1770--IMP-PTR  1820<>CALL     1821>>IF       1822>>ASSIGN   1889<>CALL
NAME$
        25**DCL        23--PROC     1820<>CALL     1889<>CALL
NEWDIR
      1810**LABEL    1806--GOTO
NOKEY
      1885**LABEL    1820--CALLALT
OLDDIR
      1813**LABEL    1804--GOTO
OLDFITDA
        26**DCL        23--PROC     1813<<ASSIGN   1815<<ASSIGN   1825<<ASSIGN   1857>>IF       1858<>CALL
SC_FMQ94
        51**DCL-ENT  1898--CALL
SEG$
        33**DCL      1773--IMP-PTR  1782--IMP-PTR  1820<>CALL     1824>>IF       1825>>ASSIGN   1827>>ASSIGN
      1828>>ASSIGN   1832<<ASSIGN   1833<>CALL     1834>>ASSIGN   1834>>ASSIGN   1847<<ASSIGN   1848>>ASSIGN
      1849>>ASSIGN   1850<>CALL     1851>>ASSIGN   1853<>CALL     1889<>CALL
SETPTR
      1827**LABEL    1890--GOTO
UQB$MDEQ
        49**DCL-ENT  1878--CALL     1894--CALL
UQB$MENQX
        48**DCL-ENT  1802--CALL
PL6.E3A0      #004=FMQ$CTG File=FMQ$DIR.:E05TSI                                  TUE 07/29/97 17:01 Page:135
              *** CROSS REFERENCE LISTING ***
    **     DENOTES     IDENTIFIER DEFINITION
    <<                 IDENTIFIER'S VALUE SET
    >>                 IDENTIFIER'S VALUE USED
    <>                 IDENTIFIER SET AND/OR USED
    --                 IDENTIFIER REFERENCED
PL6.E3A0      #004=FMQ$CTG File=FMQ$DIR.:E05TSI                                  TUE 07/29/97 17:01 Page:136
              MINI UREF LISTING

BUF$      31**DCL
FM$SET$    1211**DCL
FMQ$CTG      23**PROC
FM_CFUWAIT    1210**DCL
FM_CFUWGRB    1210**DCL
FM_EOP    1208**DCL
FM_FRMAX    1207**DCL
FM_FRZERO    1207**DCL
FM_GCT    1211**DCL
FM_GIP    1211**DCL
FM_GPSDA    1208**DCL
FM_HASH    1209**DCL
FM_MADSDA    1208**DCL
FM_PADSDA    1208**DCL
FM_SRMAX    1207**DCL
FM_SRZERO    1207**DCL
FM_SYSACCTX    1211**DCL
FM_SYSSETX    1211**DCL
FM_TRUNC    1209**DCL
FM_WSQ    1209**DCL
F_CWLK    1210**DCL
F_CWUSER    1210**DCL
F_DCBLOCK    1209**DCL
UQB$WAIT      50**DCL-ENT

PL6.E3A0      #005=FMQ$BLDMAD File=FMQ$DIR.:E05TSI                               TUE 07/29/97 17:01 Page:137
      656        1        /*T***********************************************************/
      657        2        /*T*                                                         */
      658        3        /*T* Copyright (c) Bull HN Information Systems Inc., 1997    */
      659        4        /*T*                                                         */
      660        5        /*T***********************************************************/
      661        6        /*F*   NAME:   FMQ$BLDMAD
      662        7        *      PURPOSE:  Build the MAD from a PAD */
      663        8        /**/
      664        9        /**/
      665       10        /*D*   NAME:   FMQ$BLDMAD
      666       11        *      CALL:   CALL FMQ$BLDMAD ALTRET(ERR);
      667       12        *      INPUT:  B$JIT.DCB$ - Pointer to a DCB which points to
      668       13        *                the pack set containing the PAD.
      669       14        *              M$* - Must be closed
      670       15        *      OUTPUT: The MAD is constructed.
      671       16        *      DESCRIPTION:  Any accounts that are in the PAD buf not in
      672       17        *        the MAD are added to the MAD.  Entries already in the MAD
      673       18        *        for accounts that exist in the PAD are not changed even if
      674       19        *        they point to a different pack set. */
      675       20        /**/
      676       21        /**/
      677       22        FMQ$BLDMAD: PROC ALTRET;
      678       23        /* INCLUDE FILES */
      679       24        %INCLUDE F$JIT_C;
      680      454        %INCLUDE FM$MACROS;
      681      829        %INCLUDE F_ERRORS_C;
      682     1069        %MACRO F$DCB(BASED=BASED);
      683     1070        %INCLUDE F$DCB;
      684     1119        %MEND;
      685     1120        %INCLUDE CP_6_SUBS;
      686     1660        /* LOCAL AUTOMATIC STORAGE */
      687     1661    1   DCL JDCB$ PTR;
      688     1662    1   DCL M$STAR$ PTR;
      689     1663    1   DCL I SBIN;
      690     1664    1   DCL PKEY$ PTR;
      691     1665    1   DCL MKEY$ PTR;
      692     1666        /* EXTERNAL DATA */
PL6.E3A0      #005=FMQ$BLDMAD File=FMQ$DIR.:E05TSI                               TUE 07/29/97 17:01 Page:138
      693     1667    1   DCL FM_MADSDA UBIN SYMREF;
      694     1668    1   DCL FM_PADSDA UBIN SYMREF;
      695     1669    1   DCL B$JIT$ PTR SYMREF;
      696     1670    1   DCL F$CFU$ PTR SYMREF;
      697     1671    1   DCL FM$SET$ PTR SYMREF;
      698     1672    1   DCL FM_SYSSETX UBIN SYMREF;
      699     1673        /* EXTERNAL ROUTINES */
      700     1674    1   DCL FMD$FLSHBUF ENTRY(1);
      701     1675    1   DCL FMD$REDBUF ENTRY(6) ALTRET;
      702     1676    1   DCL FMG$ADDKEY ENTRY(4) ALTRET;
      703     1677    1   DCL FMG$FINDKEY ENTRY(4) ALTRET;
      704     1678    1   DCL FMG$NXTKEY ENTRY(3) ALTRET;
      705     1679    1   DCL FMM$SCRUB ENTRY(1);
      706     1680    1   DCL FMP$CLSJ ENTRY;
      707     1681    1   DCL SC_FMQ94 ENTRY CONV(2,0);
      708     1682    1   DCL UQB$MDEQ ENTRY(1)ALTRET;
      709     1683    1   DCL UQB$MENQX ENTRY(1)ALTRET;
      710     1684        /* BASED STRUCTURES */
      711     1685        %F$DCB (BASED="BASED(JDCB$)");
      712     1735        %FM$MADKEY (BASED="BASED(MKEY$)");
      713     1738        %FM$ADKEY(BASED="BASED(PKEY$)");
      714     1741        %FM$SET (BASED="BASED(FM$SET$)");
      715     1746        /**/
      716     1747    1           JDCB$=B$JIT.DCB$;               /* PTR TO PAD DCB                     */
      717     1748    1           JDCB$->F$DCB.GTYP=FMGTPAD;
      718     1749    1           M$STAR$=DCBADDR(1);             /* PTR TO MAD DCB (M$*)               */
      719     1750        /**/
      720     1751    1           CALL SETMAD;
      721     1752    1           IF M$STAR$->F$DCB.FCD THEN
      722     1753    1           CALL FMP$CLSJ;                  /* CLOSE M$*                          */
      723     1754        /**/
      724     1755    1           CALL FMM$SCRUB(M$STAR$);
      725     1756    1           CALL SETMAD;                    /* PUT M$* ADDR IN JIT                */
      726     1757    1           M$STAR$->F$DCB.SETX=FM_SYSSETX; /* SYS PACK SET INDEX                 */
      727     1758    1           M$STAR$->F$DCB.GTYP=FMGTMAD;
      728     1759        /**/
      729     1760    1           CALL UQB$MENQX(F$CFU$)
PL6.E3A0      #005=FMQ$BLDMAD File=FMQ$DIR.:E05TSI                               TUE 07/29/97 17:01 Page:139
      730     1761    1             ALTRET(QERR);                 /* LOCK MAD FOR WRITE                 */
      731     1762        /**/
      732     1763    1           CALL SETPAD;
      733     1764    1           CALL FMD$REDBUF(I,1,FM_PADSDA,,0) ALTRET(ERR);
      734     1765        /**/
      735     1766    1           CALL SETMAD;
      736     1767    1           CALL FMD$REDBUF(I,1,FM_MADSDA,,0) ALTRET(ERR);
      737     1768        /**/
      738     1769        /* GET NEXT ENTRY FROM PAD */
      739     1770        /**/
      740     1771    1   NXTPAD: CALL SETPAD;
      741     1772    1           CALL FMG$NXTKEY(I,I,PKEY$) ALTRET(PADERR);
      742     1773    1           IF FM$ADKEY.D THEN GOTO NXTPAD;
      743     1774        /**/
      744     1775        /*  See if an entry for this account is in MAD */
      745     1776        /**/
      746     1777    1           CALL SETMAD;
      747     1778    1           CALL FMG$FINDKEY(I,I,MKEY$,PKEY$) ALTRET(NOMAD);
      748     1779    1           GOTO NXTPAD;                    /* YES - NOTHING TO DO                */
      749     1780        /**/
      750     1781        /**/
      751     1782    1   NOMAD:  IF B$JIT.ERR.CODE~=%E$NOKEY THEN
      752     1783    1              GOTO ERR;
      753     1784    1           CALL FMG$ADDKEY(I,2,MKEY$,PKEY$) ALTRET(ERR);
      754     1785    1           FM$MADKEY.PSN=FM$SET.PSN(F$DCB.SETX);
      755     1786    1           GOTO NXTPAD;
      756     1787        /**/
      757     1788        /**/
      758     1789    1   PADERR: IF B$JIT.ERR.CODE~=%E$EOF THEN
      759     1790    1              GOTO ERR;
      760     1791        /**/
      761     1792        /**/
      762     1793    1   DONE:   B$JIT.ERR='0'B;
      763     1794    1   ERR:    CALL SETMAD;
      764     1795    1           CALL FMD$FLSHBUF(1);
      765     1796    1           CALL SETPAD;
      766     1797    1           CALL FMD$FLSHBUF(1);
PL6.E3A0      #005=FMQ$BLDMAD File=FMQ$DIR.:E05TSI                               TUE 07/29/97 17:01 Page:140
      767     1798    1           CALL UQB$MDEQ(F$CFU$);
      768     1799    1           IF B$JIT.ERR.CODE=0 THEN RETURN;
      769     1800    1           ALTRETURN;
      770     1801        /**/
      771     1802    1   QERR:   ;
      772     1803    1           CALL SC_FMQ94;
      773     1804        /**/
      774     1805        /*S*    SCREECH_CODE:   FMQ-S$FM94
      775     1806        *      TYPE:  SUA
      776     1807        */
      777     1808        /**/
      778     1809        /**/
      779     1810    1   SETMAD: PROC;
      780     1811    2           B$JIT.DCB$=M$STAR$;
      781     1812    2           RETURN;
      782     1813    2   SETPAD: ENTRY;
      783     1814    2           B$JIT.DCB$=JDCB$;
      784     1815    2           RETURN;
      785     1816    2   END SETMAD;
      786     1817        /**/
      787     1818    1   END FMQ$BLDMAD;
      788     1819        %EOD;

PL6.E3A0      #005=FMQ$BLDMAD File=FMQ$DIR.:E05TSI                               TUE 07/29/97 17:01 Page:141
--  Include file information  --

   CP_6_SUBS.:E05TOU  is referenced.
   F$DCB.:E05TOU  is referenced.
   F_ERRORS_C.:E05TOU  is referenced.
   FM$MACROS.:E05TOU  is referenced.
   B$JIT_C.:E05TOU  is referenced.
   F$JIT_C.:E05TOU  cannot be made into a system file and is referenced.
      No diagnostics issued in procedure FMQ$BLDMAD.

   Procedure FMQ$BLDMAD requires 172 words for executable code.
   Procedure FMQ$BLDMAD requires 16 words of local(AUTO) storage.

PL6.E3A0      #005=FMQ$BLDMAD File=FMQ$DIR.:E05TSI                               TUE 07/29/97 17:01 Page:142

 Object Unit name= FMQ$BLDMAD                                 File name= FMQ$DIR.:E05TOU
 UTS= JUL 29 '97 17:01:42.84 TUE                              Compiler= PL-6/E31         Sev=      00
 SharedLib= :SHARED_SYSTEM                                    Alt SharedLib=


    ****  Control sections  ****

 Sect   Type Bound  Init  Size OctSiz  Section name(segment info)
    0   Proc  even  none   172    254  FMQ$BLDMAD
    1  RoData even  none     9     11  FMQ$BLDMAD

    ****  Entry defs  ****

                              Check   Calling
                             calling  sequence
  Sect OctLoc Primary Altret sequence   type   Parms  Name
     0      0   yes    yes     yes      Std        0  FMQ$BLDMAD

  ****  Entry refs  ****

         Check        Calling
        calling       sequence
Altret sequence SRef   type   Args  Name
         yes           Std       0 FMP$CLSJ
         yes           Std       1 FMM$SCRUB
 yes     yes           Std       3 FMG$NXTKEY
 yes     yes           Std       4 FMG$ADDKEY
         yes           Std       1 FMD$FLSHBUF
 yes     yes           Std       1 UQB$MDEQ
 yes     yes           Std       1 UQB$MENQX
 yes     yes           Std       4 FMG$FINDKEY
 yes     yes           Std       6 FMD$REDBUF
                       nStd      0 X66_AUTO_0
                       Std       0 B_CONSPOOL_D
                       nStd      0 X66_ARET
                       nStd      0 X66_AALT
PL6.E3A0      #005=FMQ$BLDMAD File=FMQ$DIR.:E05TSI                               TUE 07/29/97 17:01 Page:143

  ****  Data refs  ****

  Flags:  r = read only, s = secondary
Flgs Name                             Flgs Name                             Flgs Name
     SC_FMQ94                              FM_MADSDA                             FM_PADSDA
     B$JIT$                                F$CFU$                                FM$SET$
     FM_SYSSETX                            B_VECTNIL

  ****  Segment refs  ****

  Flags:  r = read only, s = secondary
Flgs Name                             Flgs Name                             Flgs Name
     ROSID                                 ASLENTSID                             ISSID
PL6.E3A0      #005=FMQ$BLDMAD File=FMQ$DIR.:E05TSI                               TUE 07/29/97 17:01 Page:144


      656        1        /*T***********************************************************/
      657        2        /*T*                                                         */
      658        3        /*T* Copyright (c) Bull HN Information Systems Inc., 1997    */
      659        4        /*T*                                                         */
      660        5        /*T***********************************************************/
      661        6        /*F*   NAME:   FMQ$BLDMAD
      662        7        *      PURPOSE:  Build the MAD from a PAD */
      663        8        /**/
      664        9        /**/
      665       10        /*D*   NAME:   FMQ$BLDMAD
      666       11        *      CALL:   CALL FMQ$BLDMAD ALTRET(ERR);
      667       12        *      INPUT:  B$JIT.DCB$ - Pointer to a DCB which points to
      668       13        *                the pack set containing the PAD.
      669       14        *              M$* - Must be closed
      670       15        *      OUTPUT: The MAD is constructed.
      671       16        *      DESCRIPTION:  Any accounts that are in the PAD buf not in
      672       17        *        the MAD are added to the MAD.  Entries already in the MAD
      673       18        *        for accounts that exist in the PAD are not changed even if
      674       19        *        they point to a different pack set. */
      675       20        /**/
      676       21        /**/
      677       22        FMQ$BLDMAD: PROC ALTRET;

     22  0 000000   000000 700200 xent  FMQ$BLDMAD   TSX0  ! X66_AUTO_0
         0 000001   000020 000000                    ZERO    16,0

      678       23        /* INCLUDE FILES */
      679       24        %INCLUDE F$JIT_C;
      680      454        %INCLUDE FM$MACROS;
      681      829        %INCLUDE F_ERRORS_C;
      682     1069        %MACRO F$DCB(BASED=BASED);
      683     1070        %INCLUDE F$DCB;
      684     1119        %MEND;
      685     1120        %INCLUDE CP_6_SUBS;
      686     1660        /* LOCAL AUTOMATIC STORAGE */
      687     1661    1   DCL JDCB$ PTR;
PL6.E3A0      #005=FMQ$BLDMAD File=FMQ$DIR.:E05TSI                               TUE 07/29/97 17:01 Page:145
      688     1662    1   DCL M$STAR$ PTR;
      689     1663    1   DCL I SBIN;
      690     1664    1   DCL PKEY$ PTR;
      691     1665    1   DCL MKEY$ PTR;
      692     1666        /* EXTERNAL DATA */
      693     1667    1   DCL FM_MADSDA UBIN SYMREF;
      694     1668    1   DCL FM_PADSDA UBIN SYMREF;
      695     1669    1   DCL B$JIT$ PTR SYMREF;
      696     1670    1   DCL F$CFU$ PTR SYMREF;
      697     1671    1   DCL FM$SET$ PTR SYMREF;
      698     1672    1   DCL FM_SYSSETX UBIN SYMREF;
      699     1673        /* EXTERNAL ROUTINES */
      700     1674    1   DCL FMD$FLSHBUF ENTRY(1);
      701     1675    1   DCL FMD$REDBUF ENTRY(6) ALTRET;
      702     1676    1   DCL FMG$ADDKEY ENTRY(4) ALTRET;
      703     1677    1   DCL FMG$FINDKEY ENTRY(4) ALTRET;
      704     1678    1   DCL FMG$NXTKEY ENTRY(3) ALTRET;
      705     1679    1   DCL FMM$SCRUB ENTRY(1);
      706     1680    1   DCL FMP$CLSJ ENTRY;
      707     1681    1   DCL SC_FMQ94 ENTRY CONV(2,0);
      708     1682    1   DCL UQB$MDEQ ENTRY(1)ALTRET;
      709     1683    1   DCL UQB$MENQX ENTRY(1)ALTRET;
      710     1684        /* BASED STRUCTURES */
      711     1685        %F$DCB (BASED="BASED(JDCB$)");
      712     1735        %FM$MADKEY (BASED="BASED(MKEY$)");
      713     1738        %FM$ADKEY(BASED="BASED(PKEY$)");
      714     1741        %FM$SET (BASED="BASED(FM$SET$)");
      715     1746        /**/
      716     1747    1           JDCB$=B$JIT.DCB$;               /* PTR TO PAD DCB                     */

   1747  0 000002   000000 470400 xsym               LDP0    B$JIT$
         0 000003   000232 236100                    LDQ     154,,PR0
         0 000004   200003 756100                    STQ     JDCB$,,AUTO

      717     1748    1           JDCB$->F$DCB.GTYP=FMGTPAD;

   1748  0 000005   200003 471500                    LDP1    JDCB$,,AUTO
PL6.E3A0      #005=FMQ$BLDMAD File=FMQ$DIR.:E05TSI                               TUE 07/29/97 17:01 Page:146
         0 000006   100064 236100                    LDQ     52,,PR1
         0 000007   000000 376000 1                  ANQ     0
         0 000010   014000 276003                    ORQ     6144,DU
         0 000011   100064 756100                    STQ     52,,PR1

      718     1749    1           M$STAR$=DCBADDR(1);             /* PTR TO MAD DCB (M$*)               */

   1749  0 000012   000001 473400 1                  LDP3    1
         0 000013   300000 474500                    LDP4    0,,PR3
         0 000014   400001 236100                    LDQ     1,,PR4
         0 000015   200004 756100                    STQ     M$STAR$,,AUTO

      719     1750        /**/
      720     1751    1           CALL SETMAD;

   1751  0 000016   000241 701000 0                  TSX1    SETMAD
         0 000017   000000 011000                    NOP     0

      721     1752    1           IF M$STAR$->F$DCB.FCD THEN

   1752  0 000020   200004 470500                    LDP0    M$STAR$,,AUTO
         0 000021   000031 236100                    LDQ     25,,PR0
         0 000022   020000 316007                    CANQ    8192,DL
         0 000023   000027 600000 0                  TZE     s:1755

      722     1753    1           CALL FMP$CLSJ;                  /* CLOSE M$*                          */

   1753  0 000024   000002 631400 xsym               EPPR1   B_VECTNIL+2
         0 000025   000000 701000 xent               TSX1    FMP$CLSJ
         0 000026   000000 011000                    NOP     0

      723     1754        /**/
      724     1755    1           CALL FMM$SCRUB(M$STAR$);

   1755  0 000027   200004 630500                    EPPR0   M$STAR$,,AUTO
         0 000030   200012 450500                    STP0    MKEY$+3,,AUTO
         0 000031   200012 630500                    EPPR0   MKEY$+3,,AUTO
PL6.E3A0      #005=FMQ$BLDMAD File=FMQ$DIR.:E05TSI                               TUE 07/29/97 17:01 Page:147
         0 000032   000017 631400 xsym               EPPR1   B_VECTNIL+15
         0 000033   000000 701000 xent               TSX1    FMM$SCRUB
         0 000034   000000 011000                    NOP     0

      725     1756    1           CALL SETMAD;                    /* PUT M$* ADDR IN JIT                */

   1756  0 000035   000241 701000 0                  TSX1    SETMAD
         0 000036   000000 011000                    NOP     0

      726     1757    1           M$STAR$->F$DCB.SETX=FM_SYSSETX; /* SYS PACK SET INDEX                 */

   1757  0 000037   000000 720000 xsym               LXL0    FM_SYSSETX
         0 000040   200004 470500                    LDP0    M$STAR$,,AUTO
         0 000041   000051 440100                    SXL0    41,,PR0

      727     1758    1           M$STAR$->F$DCB.GTYP=FMGTMAD;

   1758  0 000042   000064 236100                    LDQ     52,,PR0
         0 000043   000000 376000 1                  ANQ     0
         0 000044   010000 276003                    ORQ     4096,DU
         0 000045   000064 756100                    STQ     52,,PR0

      728     1759        /**/
      729     1760    1           CALL UQB$MENQX(F$CFU$)

   1760  0 000046   000002 630400 1                  EPPR0   2
         0 000047   000017 631400 xsym               EPPR1   B_VECTNIL+15
         0 000050   000000 701000 xent               TSX1    UQB$MENQX
         0 000051   000236 702000 0                  TSX2    QERR

      730     1761    1             ALTRET(QERR);                 /* LOCK MAD FOR WRITE                 */
      731     1762        /**/
      732     1763    1           CALL SETPAD;

   1763  0 000052   000246 701000 0                  TSX1    SETPAD
         0 000053   000000 011000                    NOP     0

PL6.E3A0      #005=FMQ$BLDMAD File=FMQ$DIR.:E05TSI                               TUE 07/29/97 17:01 Page:148
      733     1764    1           CALL FMD$REDBUF(I,1,FM_PADSDA,,0) ALTRET(ERR);

   1764  0 000054   000003 236000 1                  LDQ     3
         0 000055   200016 756100                    STQ     MKEY$+7,,AUTO
         0 000056   000001 236000 xsym               LDQ     B_VECTNIL+1
         0 000057   000004 235000 1                  LDA     4
         0 000060   200014 757100                    STAQ    MKEY$+5,,AUTO
         0 000061   000005 236000 1                  LDQ     5
         0 000062   200013 756100                    STQ     MKEY$+4,,AUTO
         0 000063   200005 630500                    EPPR0   I,,AUTO
         0 000064   200012 450500                    STP0    MKEY$+3,,AUTO
         0 000065   200012 630500                    EPPR0   MKEY$+3,,AUTO
         0 000066   000023 631400 xsym               EPPR1   B_VECTNIL+19
         0 000067   000000 701000 xent               TSX1    FMD$REDBUF
         0 000070   000210 702000 0                  TSX2    ERR

      734     1765        /**/
      735     1766    1           CALL SETMAD;

   1766  0 000071   000241 701000 0                  TSX1    SETMAD
         0 000072   000000 011000                    NOP     0

      736     1767    1           CALL FMD$REDBUF(I,1,FM_MADSDA,,0) ALTRET(ERR);

   1767  0 000073   000003 236000 1                  LDQ     3
         0 000074   200016 756100                    STQ     MKEY$+7,,AUTO
         0 000075   000001 236000 xsym               LDQ     B_VECTNIL+1
         0 000076   000006 235000 1                  LDA     6
         0 000077   200014 757100                    STAQ    MKEY$+5,,AUTO
         0 000100   000005 236000 1                  LDQ     5
         0 000101   200013 756100                    STQ     MKEY$+4,,AUTO
         0 000102   200005 630500                    EPPR0   I,,AUTO
         0 000103   200012 450500                    STP0    MKEY$+3,,AUTO
         0 000104   200012 630500                    EPPR0   MKEY$+3,,AUTO
         0 000105   000023 631400 xsym               EPPR1   B_VECTNIL+19
         0 000106   000000 701000 xent               TSX1    FMD$REDBUF
         0 000107   000210 702000 0                  TSX2    ERR
PL6.E3A0      #005=FMQ$BLDMAD File=FMQ$DIR.:E05TSI                               TUE 07/29/97 17:01 Page:149

      737     1768        /**/
      738     1769        /* GET NEXT ENTRY FROM PAD */
      739     1770        /**/
      740     1771    1   NXTPAD: CALL SETPAD;

   1771  0 000110   000246 701000 0     NXTPAD       TSX1    SETPAD
         0 000111   000000 011000                    NOP     0

      741     1772    1           CALL FMG$NXTKEY(I,I,PKEY$) ALTRET(PADERR);

   1772  0 000112   200006 630500                    EPPR0   PKEY$,,AUTO
         0 000113   200014 450500                    STP0    MKEY$+5,,AUTO
         0 000114   200005 631500                    EPPR1   I,,AUTO
         0 000115   200013 451500                    STP1    MKEY$+4,,AUTO
         0 000116   200005 633500                    EPPR3   I,,AUTO
         0 000117   200012 453500                    STP3    MKEY$+3,,AUTO
         0 000120   200012 630500                    EPPR0   MKEY$+3,,AUTO
         0 000121   000021 631400 xsym               EPPR1   B_VECTNIL+17
         0 000122   000000 701000 xent               TSX1    FMG$NXTKEY
         0 000123   000202 702000 0                  TSX2    PADERR

      742     1773    1           IF FM$ADKEY.D THEN GOTO NXTPAD;

   1773  0 000124   200006 470500                    LDP0    PKEY$,,AUTO
         0 000125   000000 234100                    SZN     0,,PR0
         0 000126   000110 604000 0                  TMI     NXTPAD

      743     1774        /**/
      744     1775        /*  See if an entry for this account is in MAD */
      745     1776        /**/
      746     1777    1           CALL SETMAD;

   1777  0 000127   000241 701000 0                  TSX1    SETMAD
         0 000130   000000 011000                    NOP     0

      747     1778    1           CALL FMG$FINDKEY(I,I,MKEY$,PKEY$) ALTRET(NOMAD);
PL6.E3A0      #005=FMQ$BLDMAD File=FMQ$DIR.:E05TSI                               TUE 07/29/97 17:01 Page:150

   1778  0 000131   200006 630500                    EPPR0   PKEY$,,AUTO
         0 000132   200015 450500                    STP0    MKEY$+6,,AUTO
         0 000133   200007 631500                    EPPR1   MKEY$,,AUTO
         0 000134   200014 451500                    STP1    MKEY$+5,,AUTO
         0 000135   200005 633500                    EPPR3   I,,AUTO
         0 000136   200013 453500                    STP3    MKEY$+4,,AUTO
         0 000137   200005 634500                    EPPR4   I,,AUTO
         0 000140   200012 454500                    STP4    MKEY$+3,,AUTO
         0 000141   200012 630500                    EPPR0   MKEY$+3,,AUTO
         0 000142   000022 631400 xsym               EPPR1   B_VECTNIL+18
         0 000143   000000 701000 xent               TSX1    FMG$FINDKEY
         0 000144   000146 702000 0                  TSX2    NOMAD

      748     1779    1           GOTO NXTPAD;                    /* YES - NOTHING TO DO                */

   1779  0 000145   000110 710000 0                  TRA     NXTPAD

      749     1780        /**/
      750     1781        /**/
      751     1782    1   NOMAD:  IF B$JIT.ERR.CODE~=%E$NOKEY THEN

   1782  0 000146   000000 470400 xsym  NOMAD        LDP0    B$JIT$
         0 000147   000012 236100                    LDQ     10,,PR0
         0 000150   377770 376007                    ANQ     131064,DL
         0 000151   001020 116007                    CMPQ    528,DL
         0 000152   000210 601000 0                  TNZ     ERR

      752     1783    1              GOTO ERR;
      753     1784    1           CALL FMG$ADDKEY(I,2,MKEY$,PKEY$) ALTRET(ERR);

   1784  0 000153   200006 631500                    EPPR1   PKEY$,,AUTO
         0 000154   200015 451500                    STP1    MKEY$+6,,AUTO
         0 000155   200007 633500                    EPPR3   MKEY$,,AUTO
         0 000156   200014 453500                    STP3    MKEY$+5,,AUTO
         0 000157   000007 236000 1                  LDQ     7
         0 000160   200013 756100                    STQ     MKEY$+4,,AUTO
PL6.E3A0      #005=FMQ$BLDMAD File=FMQ$DIR.:E05TSI                               TUE 07/29/97 17:01 Page:151
         0 000161   200005 634500                    EPPR4   I,,AUTO
         0 000162   200012 454500                    STP4    MKEY$+3,,AUTO
         0 000163   200012 630500                    EPPR0   MKEY$+3,,AUTO
         0 000164   000022 631400 xsym               EPPR1   B_VECTNIL+18
         0 000165   000000 701000 xent               TSX1    FMG$ADDKEY
         0 000166   000210 702000 0                  TSX2    ERR

      754     1785    1           FM$MADKEY.PSN=FM$SET.PSN(F$DCB.SETX);

   1785  0 000167   200003 470500                    LDP0    JDCB$,,AUTO
         0 000170   000051 236100                    LDQ     41,,PR0
         0 000171   000003 736000                    QLS     3
         0 000172   000010 376000 1                  ANQ     8
         0 000173   000002 736000                    QLS     2
         0 000174   000000 471400 xsym               LDP1    FM$SET$
         0 000175   200007 473500                    LDP3    MKEY$,,AUTO
         0 000176   040100 100506                    MLR     fill='040'O
         0 000177   100000 400006                    ADSC9   0,Q,PR1                  cn=2,n=6
         0 000200   300002 400006                    ADSC9   2,,PR3                   cn=2,n=6

      755     1786    1           GOTO NXTPAD;

   1786  0 000201   000110 710000 0                  TRA     NXTPAD

      756     1787        /**/
      757     1788        /**/
      758     1789    1   PADERR: IF B$JIT.ERR.CODE~=%E$EOF THEN

   1789  0 000202   000000 470400 xsym  PADERR       LDP0    B$JIT$
         0 000203   000012 236100                    LDQ     10,,PR0
         0 000204   377770 376007                    ANQ     131064,DL
         0 000205   000060 116007                    CMPQ    48,DL
         0 000206   000210 601000 0                  TNZ     ERR

      759     1790    1              GOTO ERR;
      760     1791        /**/
      761     1792        /**/
PL6.E3A0      #005=FMQ$BLDMAD File=FMQ$DIR.:E05TSI                               TUE 07/29/97 17:01 Page:152
      762     1793    1   DONE:   B$JIT.ERR='0'B;

   1793  0 000207   000012 450100       DONE         STZ     10,,PR0

      763     1794    1   ERR:    CALL SETMAD;

   1794  0 000210   000241 701000 0     ERR          TSX1    SETMAD
         0 000211   000000 011000                    NOP     0

      764     1795    1           CALL FMD$FLSHBUF(1);

   1795  0 000212   000005 630400 1                  EPPR0   5
         0 000213   000017 631400 xsym               EPPR1   B_VECTNIL+15
         0 000214   000000 701000 xent               TSX1    FMD$FLSHBUF
         0 000215   000000 011000                    NOP     0

      765     1796    1           CALL SETPAD;

   1796  0 000216   000246 701000 0                  TSX1    SETPAD
         0 000217   000000 011000                    NOP     0

      766     1797    1           CALL FMD$FLSHBUF(1);

   1797  0 000220   000005 630400 1                  EPPR0   5
         0 000221   000017 631400 xsym               EPPR1   B_VECTNIL+15
         0 000222   000000 701000 xent               TSX1    FMD$FLSHBUF
         0 000223   000000 011000                    NOP     0

      767     1798    1           CALL UQB$MDEQ(F$CFU$);

   1798  0 000224   000002 630400 1                  EPPR0   2
         0 000225   000017 631400 xsym               EPPR1   B_VECTNIL+15
         0 000226   000000 701000 xent               TSX1    UQB$MDEQ
         0 000227   000000 011000                    NOP     0

      768     1799    1           IF B$JIT.ERR.CODE=0 THEN RETURN;

PL6.E3A0      #005=FMQ$BLDMAD File=FMQ$DIR.:E05TSI                               TUE 07/29/97 17:01 Page:153
   1799  0 000230   000000 470400 xsym               LDP0    B$JIT$
         0 000231   000012 236100                    LDQ     10,,PR0
         0 000232   377770 316007                    CANQ    131064,DL
         0 000233   000235 601000 0                  TNZ     s:1800

   1799  0 000234   000000 702200 xent               TSX2  ! X66_ARET

      769     1800    1           ALTRETURN;

   1800  0 000235   000000 702200 xent               TSX2  ! X66_AALT

   1799  0 000236                       QERR         null
      770     1801        /**/
      771     1802    1   QERR:   ;
      772     1803    1           CALL SC_FMQ94;

   1803  0 000236   000000 713400 xsym               CLIMB   SC_FMQ94
         0 000237   000000 600000 xsid               climb   nvectors=         0
         0 000240   000253 710000 0                  TRA     s:1818

      773     1804        /**/
      774     1805        /*S*    SCREECH_CODE:   FMQ-S$FM94
      775     1806        *      TYPE:  SUA
      776     1807        */
      777     1808        /**/
      778     1809        /**/
      779     1810    1   SETMAD: PROC;

   1810  0 000241   200010 741300       SETMAD       STX1  ! MKEY$+1,,AUTO

      780     1811    2           B$JIT.DCB$=M$STAR$;

   1811  0 000242   200004 236100                    LDQ     M$STAR$,,AUTO
         0 000243   000000 470400 xsym               LDP0    B$JIT$
         0 000244   000232 756100                    STQ     154,,PR0

      781     1812    2           RETURN;
PL6.E3A0      #005=FMQ$BLDMAD File=FMQ$DIR.:E05TSI                               TUE 07/29/97 17:01 Page:154

   1812  0 000245   000001 702211                    TSX2  ! 1,X1

      782     1813    2   SETPAD: ENTRY;

   1813  0 000246   200010 741300       SETPAD       STX1  ! MKEY$+1,,AUTO

      783     1814    2           B$JIT.DCB$=JDCB$;

   1814  0 000247   200003 236100                    LDQ     JDCB$,,AUTO
         0 000250   000000 470400 xsym               LDP0    B$JIT$
         0 000251   000232 756100                    STQ     154,,PR0

      784     1815    2           RETURN;

   1815  0 000252   000001 702211                    TSX2  ! 1,X1

      785     1816    2   END SETMAD;
      786     1817        /**/
      787     1818    1   END FMQ$BLDMAD;

   1818  0 000253   000000 702200 xent               TSX2  ! X66_ARET

(unnamed)
 Sect OctLoc
   1     000   743777 777777   000000 006003   000000 006000   000002 006000    ................
   1     004   000000 006000   000003 006000   000000 006000   000004 006000    ................
   1     010   000007 777770                                                    ....
      788     1819        %EOD;

PL6.E3A0      #005=FMQ$BLDMAD File=FMQ$DIR.:E05TSI                               TUE 07/29/97 17:01 Page:155
--  Include file information  --

   CP_6_SUBS.:E05TOU  is referenced.
   F$DCB.:E05TOU  is referenced.
   F_ERRORS_C.:E05TOU  is referenced.
   FM$MACROS.:E05TOU  is referenced.
   B$JIT_C.:E05TOU  is referenced.
   F$JIT_C.:E05TOU  cannot be made into a system file and is referenced.
      No diagnostics issued in procedure FMQ$BLDMAD.
PL6.E3A0      #005=FMQ$BLDMAD File=FMQ$DIR.:E05TSI                               TUE 07/29/97 17:01 Page:156

 **** Variables and constants ****

  ****  Auto variables  ****

  ****  Scalars and arrays  ****
OctLoc.c.b A Datatyp(siz) R M Lvl/name                 OctLoc.c.b A Datatyp(siz) R M Lvl/name

     5-0-0/w SBIN        r     1 I                          3-0-0/w PTR         r     1 JDCB$
     4-0-0/w PTR         r     1 M$STAR$                    7-0-0/w PTR         r     1 MKEY$
     6-0-0/w PTR         r     1 PKEY$

  ****  SYMREF variables  ****

  ****  Scalars and arrays  ****
OctLoc.c.b A Datatyp(siz) R M Lvl/name                 OctLoc.c.b A Datatyp(siz) R M Lvl/name

     0-0-0/w PTR         r     1 B$JIT$                     0-0-0/w PTR         r     1 F$CFU$
     0-0-0/w PTR         r     1 FM$SET$                    0-0-0/w UBIN        r     1 FM_MADSDA
     0-0-0/w UBIN        r     1 FM_PADSDA                  0-0-0/w UBIN        r     1 FM_SYSSETX

  ****  BASED and DCB variables  ****

  ****  Scalars and arrays  ****
OctLoc.c.b A Datatyp(siz) R M Lvl/name                 OctLoc.c.b A Datatyp(siz) R M Lvl/name

     0-0-0/d STRC(8856)  r     1 B$JIT                      0-0-0/d ASTR(3528)  r     1 F$DCB
     0-0-0/w STRC(108)   r     1 FM$ADKEY                   0-0-0/w STRC(144)   r     1 FM$MADKEY
     0-0-0/w STRC(288)   r     1 FM$SET(0:0)


   Procedure FMQ$BLDMAD requires 172 words for executable code.
   Procedure FMQ$BLDMAD requires 16 words of local(AUTO) storage.
PL6.E3A0      #005=FMQ$BLDMAD File=FMQ$DIR.:E05TSI                               TUE 07/29/97 17:01 Page:157
          *** CROSS REFERENCE LISTING ***
**     DENOTES     IDENTIFIER DEFINITION
<<                 IDENTIFIER'S VALUE SET
>>                 IDENTIFIER'S VALUE USED
<>                 IDENTIFIER SET AND/OR USED
--                 IDENTIFIER REFERENCED
PL6.E3A0      #005=FMQ$BLDMAD File=FMQ$DIR.:E05TSI                               TUE 07/29/97 17:01 Page:158
          MINI XREF LISTING

B$JIT.DCB$
       441**DCL      1747>>ASSIGN   1811<<ASSIGN   1814<<ASSIGN
B$JIT.ERR
       351**DCL      1793<<ASSIGN
B$JIT.ERR.CODE
       352**DCL      1782>>IF       1789>>IF       1799>>IF
B$JIT.ERR.MID
       352**DCL       352--REDEF
B$JIT$
      1669**DCL       346--IMP-PTR  1747>>ASSIGN   1782>>IF       1789>>IF       1793>>ASSIGN   1799>>IF
      1811>>ASSIGN   1814>>ASSIGN
ERR
      1794**LABEL    1764--CALLALT  1767--CALLALT  1783--GOTO     1784--CALLALT  1790--GOTO
F$CFU$
      1670**DCL      1760<>CALL     1798<>CALL
F$DCB.ACTPOS
      1711**DCL      1711--REDEF
F$DCB.ARS
      1686**DCL      1686--REDEF
F$DCB.ATTR
      1704**DCL      1705--REDEF
F$DCB.BORROW
      1719**DCL      1719--REDEF    1719--REDEF    1719--REDEF
F$DCB.DCBNAME.L
      1733**DCL      1733--IMP-SIZ
F$DCB.EOMCHAR
      1690**DCL      1690--REDEF
F$DCB.FCD
      1699**DCL      1752>>IF
F$DCB.FLDID
      1714**DCL      1714--REDEF
F$DCB.FORM$
PL6.E3A0      #005=FMQ$BLDMAD File=FMQ$DIR.:E05TSI                               TUE 07/29/97 17:01 Page:159
      1708**DCL      1708--REDEF
F$DCB.FSECT
      1724**DCL      1724--REDEF
F$DCB.FSN
      1701**DCL      1701--REDEF    1701--REDEF    1702--REDEF
F$DCB.GTYP
      1715**DCL      1748<<ASSIGN   1758<<ASSIGN
F$DCB.HEADER$
      1707**DCL      1707--REDEF
F$DCB.IXTNSIZE
      1705**DCL      1705--REDEF
F$DCB.LASTSTA$
      1695**DCL      1695--REDEF
F$DCB.LVL
      1720**DCL      1720--REDEF
F$DCB.NAME.C
      1695**DCL      1695--REDEF
F$DCB.NOEOF
      1716**DCL      1716--REDEF
F$DCB.NRECS
      1706**DCL      1706--REDEF
F$DCB.NRECX
      1725**DCL      1725--REDEF
F$DCB.OHDR
      1717**DCL      1717--REDEF
F$DCB.ORG
      1700**DCL      1700--REDEF
F$DCB.PRECNO
      1723**DCL      1723--REDEF
F$DCB.RCSZ
      1728**DCL      1728--REDEF
F$DCB.RES
      1696**DCL      1696--REDEF
F$DCB.SETX
      1708**DCL      1708--REDEF    1757<<ASSIGN   1785>>ASSIGN
F$DCB.TAB$
PL6.E3A0      #005=FMQ$BLDMAD File=FMQ$DIR.:E05TSI                               TUE 07/29/97 17:01 Page:160
      1707**DCL      1708--REDEF
F$DCB.TDA
      1722**DCL      1722--REDEF
F$DCB.WSN
      1697**DCL      1697--REDEF
FM$ADKEY.D
      1739**DCL      1773>>IF
FM$MADKEY.PSN
      1736**DCL      1785<<ASSIGN
FM$SET.PSN
      1742**DCL      1785>>ASSIGN
FM$SET.USERLIST
      1743**DCL      1743--REDEF
FM$SET$
      1671**DCL      1742--IMP-PTR  1785>>ASSIGN
FMD$FLSHBUF
      1674**DCL-ENT  1795--CALL     1797--CALL
FMD$REDBUF
      1675**DCL-ENT  1764--CALL     1767--CALL
FMG$ADDKEY
      1676**DCL-ENT  1784--CALL
FMG$FINDKEY
      1677**DCL-ENT  1778--CALL
FMG$NXTKEY
      1678**DCL-ENT  1772--CALL
FMM$SCRUB
      1679**DCL-ENT  1755--CALL
FMP$CLSJ
      1680**DCL-ENT  1753--CALL
FM_MADSDA
      1667**DCL      1767<>CALL
FM_PADSDA
      1668**DCL      1764<>CALL
FM_SYSSETX
      1672**DCL      1757>>ASSIGN
I
PL6.E3A0      #005=FMQ$BLDMAD File=FMQ$DIR.:E05TSI                               TUE 07/29/97 17:01 Page:161
      1663**DCL      1764<>CALL     1767<>CALL     1772<>CALL     1772<>CALL     1778<>CALL     1778<>CALL
      1784<>CALL
JDCB$
      1661**DCL      1686--IMP-PTR  1747<<ASSIGN   1748>>ASSIGN   1785>>ASSIGN   1814>>ASSIGN
M$STAR$
      1662**DCL      1749<<ASSIGN   1752>>IF       1755<>CALL     1757>>ASSIGN   1758>>ASSIGN   1811>>ASSIGN
MKEY$
      1665**DCL      1736--IMP-PTR  1778<>CALL     1784<>CALL     1785>>ASSIGN
NOMAD
      1782**LABEL    1778--CALLALT
NXTPAD
      1771**LABEL    1773--GOTO     1779--GOTO     1786--GOTO
PADERR
      1789**LABEL    1772--CALLALT
PKEY$
      1664**DCL      1739--IMP-PTR  1772<>CALL     1773>>IF       1778<>CALL     1784<>CALL
QERR
      1799**LABEL    1760--CALLALT
SC_FMQ94
      1681**DCL-ENT  1803--CALL
SETMAD
      1810**PROC     1751--CALL     1756--CALL     1766--CALL     1777--CALL     1794--CALL
SETPAD IN PROCEDURE SETMAD
      1813**ENTRY    1763--CALL     1771--CALL     1796--CALL
UQB$MDEQ
      1682**DCL-ENT  1798--CALL
UQB$MENQX
      1683**DCL-ENT  1760--CALL
PL6.E3A0      #005=FMQ$BLDMAD File=FMQ$DIR.:E05TSI                               TUE 07/29/97 17:01 Page:162
              *** CROSS REFERENCE LISTING ***
    **     DENOTES     IDENTIFIER DEFINITION
    <<                 IDENTIFIER'S VALUE SET
    >>                 IDENTIFIER'S VALUE USED
    <>                 IDENTIFIER SET AND/OR USED
    --                 IDENTIFIER REFERENCED
PL6.E3A0      #005=FMQ$BLDMAD File=FMQ$DIR.:E05TSI                               TUE 07/29/97 17:01 Page:163
              MINI UREF LISTING

DONE    1793**LABEL
FMQ$BLDMAD      22**PROC

