VERSION E05

PL6.E3A0      #001=FM_BUF_D File=FM_BUF_D.:E05TSI                                TUE 07/29/97 17:04 Page:1
        1        1        /*M*   FM_BUF_D - Array of pointers to pool buffers                          */
        2        2        /*T***********************************************************/
        3        3        /*T*                                                         */
        4        4        /*T* Copyright (c) Bull HN Information Systems Inc., 1997    */
        5        5        /*T*                                                         */
        6        6        /*T***********************************************************/
        7        7        /**/
        8        8        /*X* */
        9        9        /**/
       10       10        /* ! R ! DCL FM$BUF$(0:31) PTR SYMREF; */
       11       11        /* !   ! */
       12       12        /**/
       13       13        FM_BUF_D: PROC;
       14       14        /* INCLUDE FILES */
       15       15        %INCLUDE B_SEGIDS_C;
       16      554                                                /*                                    */
       17      555        /* TABLE OF POINTERS TO POOL BUFFERS */
       18      556    1   DCL 1 FM$BUF$(0:31) CONSTANT SYMDEF,
       19      557    1         2 * UBIN(8) UNAL INIT(0,0,1,2,3,4,5,6,7,8,9,10,11,12,13,14,
       20      558    1           15,16,17,18,19,20,21,22,23,24,25,26,27,
       21      559    1           28,29,30),
       22      560    1         2 * UBIN(16) UNAL INIT(0*0),
       23      561    1         2 * BIT(12) INIT(%NULLSID,%BUFSID*0);
       24      562        /**/
       25      563    1   END FM_BUF_D;

PL6.E3A0      #001=FM_BUF_D File=FM_BUF_D.:E05TSI                                TUE 07/29/97 17:04 Page:2
--  Include file information  --

   B_SEGIDS_C.:E05TOU  is referenced.
      No diagnostics issued in procedure FM_BUF_D.

   No code generated for procedure FM_BUF_D .
   Procedure FM_BUF_D requires 4 words of local(AUTO) storage.

    No errors detected in file FM_BUF_D.:E05TSI    .

PL6.E3A0      #001=FM_BUF_D File=FM_BUF_D.:E05TSI                                TUE 07/29/97 17:04 Page:3

 Object Unit name= FM_BUF_D                                   File name= FM_BUF_D.:E05TOU
 UTS= JUL 29 '97 17:04:06.56 TUE                              Compiler= PL-6/E31         Sev=      00
 SharedLib= :SHARED_SYSTEM                                    Alt SharedLib=


    ****  Control sections  ****

 Sect   Type Bound  Init  Size OctSiz  Section name(segment info)
    0  RoData even  UTS     32     40  FM_BUF_D
    1   Proc  even  none     0      0  FM_BUF_D

    ****  Entry defs  ****

                              Check   Calling
                             calling  sequence
  Sect OctLoc Primary Altret sequence   type   Parms  Name
     1      0   yes            yes     ~proc       0  FM_BUF_D

  ****  Data defs  ****

 Sect OctLoc  Name                           Sect OctLoc  Name
    0      0  FM$BUF$
PL6.E3A0      #001=FM_BUF_D File=FM_BUF_D.:E05TSI                                TUE 07/29/97 17:04 Page:4


(unnamed)
 Sect OctLoc
   0     000   000000 006014   000000 006002   002000 006002   004000 006002    ................
   0     004   006000 006002   010000 006002   012000 006002   014000 006002    ................
   0     010   016000 006002   020000 006002   022000 006002   024000 006002    ................
   0     014   026000 006002   030000 006002   032000 006002   034000 006002    ................
   0     020   036000 006002   040000 006002   042000 006002   044000 006002    .... ..."...$...
   0     024   046000 006002   050000 006002   052000 006002   054000 006002    &...(...*...,...
   0     030   056000 006002   060000 006002   062000 006002   064000 006002    ....0...2...4...
   0     034   066000 006002   070000 006002   072000 006002   074000 006002    6...8...:...<...
        1        1        /*M*   FM_BUF_D - Array of pointers to pool buffers                          */
        2        2        /*T***********************************************************/
        3        3        /*T*                                                         */
        4        4        /*T* Copyright (c) Bull HN Information Systems Inc., 1997    */
        5        5        /*T*                                                         */
        6        6        /*T***********************************************************/
        7        7        /**/
        8        8        /*X* */
        9        9        /**/
       10       10        /* ! R ! DCL FM$BUF$(0:31) PTR SYMREF; */
       11       11        /* !   ! */
       12       12        /**/
       13       13        FM_BUF_D: PROC;
       14       14        /* INCLUDE FILES */
       15       15        %INCLUDE B_SEGIDS_C;
       16      554                                                /*                                    */
       17      555        /* TABLE OF POINTERS TO POOL BUFFERS */
       18      556    1   DCL 1 FM$BUF$(0:31) CONSTANT SYMDEF,
       19      557    1         2 * UBIN(8) UNAL INIT(0,0,1,2,3,4,5,6,7,8,9,10,11,12,13,14,
       20      558    1           15,16,17,18,19,20,21,22,23,24,25,26,27,
       21      559    1           28,29,30),
       22      560    1         2 * UBIN(16) UNAL INIT(0*0),
       23      561    1         2 * BIT(12) INIT(%NULLSID,%BUFSID*0);
       24      562        /**/
       25      563    1   END FM_BUF_D;

PL6.E3A0      #001=FM_BUF_D File=FM_BUF_D.:E05TSI                                TUE 07/29/97 17:04 Page:5
--  Include file information  --

   B_SEGIDS_C.:E05TOU  is referenced.
      No diagnostics issued in procedure FM_BUF_D.
PL6.E3A0      #001=FM_BUF_D File=FM_BUF_D.:E05TSI                                TUE 07/29/97 17:04 Page:6

 **** Variables and constants ****


   No code generated for procedure FM_BUF_D .
   Procedure FM_BUF_D requires 4 words of local(AUTO) storage.

    No errors detected in file FM_BUF_D.:E05TSI    .
PL6.E3A0      #001=FM_BUF_D File=FM_BUF_D.:E05TSI                                TUE 07/29/97 17:04 Page:7
          *** CROSS REFERENCE LISTING ***
**     DENOTES     IDENTIFIER DEFINITION
<<                 IDENTIFIER'S VALUE SET
>>                 IDENTIFIER'S VALUE USED
<>                 IDENTIFIER SET AND/OR USED
--                 IDENTIFIER REFERENCED
PL6.E3A0      #001=FM_BUF_D File=FM_BUF_D.:E05TSI                                TUE 07/29/97 17:04 Page:8
          MINI XREF LISTING

PL6.E3A0      #001=FM_BUF_D File=FM_BUF_D.:E05TSI                                TUE 07/29/97 17:04 Page:9
          *** CROSS REFERENCE LISTING ***
**     DENOTES     IDENTIFIER DEFINITION
<<                 IDENTIFIER'S VALUE SET
>>                 IDENTIFIER'S VALUE USED
<>                 IDENTIFIER SET AND/OR USED
--                 IDENTIFIER REFERENCED
PL6.E3A0      #001=FM_BUF_D File=FM_BUF_D.:E05TSI                                TUE 07/29/97 17:04 Page:10
          MINI UREF LISTING

FM$BUF$     556**DCL
FM_BUF_D      13**PROC
