VERSION E05

PL6.E3A0      #001=FM_CACHE_D File=FM_CACHE_D.:E05TSI                            TUE 07/29/97 17:04 Page:1
        1        1        /*M*  FM_CACHE_D - Data for the I/O cache */
        2        2        /*T***********************************************************/
        3        3        /*T*                                                         */
        4        4        /*T* Copyright (c) Bull HN Information Systems Inc., 1997    */
        5        5        /*T*                                                         */
        6        6        /*T***********************************************************/
        7        7        FM_CACHE_D: PROC;
        8        8    1          DCL FMC_CACHE$ PTR STATIC SYMDEF INIT(ADDR(NIL));
        9        9
       10       10
       11       11    1          DCL FMC_TYPTBL$ PTR STATIC SYMDEF INIT(ADDR(NIL));
       12       12
       13       13
       14       14    1          DCL FMC_STATS$ PTR STATIC SYMDEF INIT(ADDR(NIL));
       15       15
       16       16    1          DCL FMC_CACHESIZ SBIN STATIC SYMDEF;  /* SIZE OF CACHE                  */
       17       17    1          DCL FMC_CACHESIZN SBIN STATIC SYMDEF;  /* POWER OF 2 OF SIZE            */
       18       18    1          DCL FMC_CACHEPGCNT SBIN STATIC SYMDEF INIT(0);  /* NUMBER OF
       19       19                    FREE PAGES */
       20       20    1          DCL FMC$CACHEPGCNT SBIN BASED(FMC_CACHEPGCNT$);  /* ALL OF       */
       21       21    1          DCL FMC_CACHEPGCNT$ PTR STATIC SYMDEF INIT(ADDR(FMC_CACHEPGCNT));
       22       22    1          DCL 1 FMC_CACHEPGCNT$R REDEF FMC_CACHEPGCNT$,  /* SET UP A SEGID         */
       23       23    1               2 * BIT(24) UNAL,           /* TO BYPASS THE MM CACHE */
       24       24    1               2 SID BIT(12) UNAL;
       25       25    1          DCL FMC_LOCK BIT(72) STATIC SYMDEF INIT('1'B);   /* CACHE LOCK         */
       26       26    1          DCL FMC_MASK BIT(36) STATIC SYMDEF;   /* MASK FOR HASHING              */
       27       27    1          DCL FMC_MASKTBL(0:17) BIT(36) CONSTANT SYMDEF INIT(
       28       28    1             '000000000000'O,
       29       29    1             '000000000001'O,
       30       30    1             '000000000003'O,
       31       31    1             '000000000007'O,
       32       32    1             '000000000017'O,
       33       33    1             '000000000037'O,
       34       34    1             '000000000077'O,
       35       35    1             '000000000177'O,
       36       36    1             '000000000377'O,
       37       37    1             '000000000777'O,
PL6.E3A0      #001=FM_CACHE_D File=FM_CACHE_D.:E05TSI                            TUE 07/29/97 17:04 Page:2
       38       38    1             '000000001777'O,
       39       39    1             '000000003777'O,
       40       40    1             '000000007777'O,
       41       41    1             '000000017777'O,
       42       42    1             '000000037777'O,
       43       43    1             '000000077777'O,
       44       44    1             '000000177777'O,
       45       45    1             '000000377777'O);
       46       46
       47       47    1          END FM_CACHE_D;

PL6.E3A0      #001=FM_CACHE_D File=FM_CACHE_D.:E05TSI                            TUE 07/29/97 17:04 Page:3
      No diagnostics issued in procedure FM_CACHE_D.

   No code generated for procedure FM_CACHE_D .
   Procedure FM_CACHE_D requires 4 words of local(AUTO) storage.

    No errors detected in file FM_CACHE_D.:E05TSI    .

PL6.E3A0      #001=FM_CACHE_D File=FM_CACHE_D.:E05TSI                            TUE 07/29/97 17:04 Page:4

 Object Unit name= FM_CACHE_D                                 File name= FM_CACHE_D.:E05TOU
 UTS= JUL 29 '97 17:04:18.04 TUE                              Compiler= PL-6/E31         Sev=      00
 SharedLib= :SHARED_SYSTEM                                    Alt SharedLib=


    ****  Control sections  ****

 Sect   Type Bound  Init  Size OctSiz  Section name(segment info)
    0   Data  even  none    10     12  FM_CACHE_D
    1  RoData even  UTS     18     22  FM_CACHE_D
    2   Proc  even  none     0      0  FM_CACHE_D

    ****  Entry defs  ****

                              Check   Calling
                             calling  sequence
  Sect OctLoc Primary Altret sequence   type   Parms  Name
     2      0   yes            yes     ~proc       0  FM_CACHE_D

  ****  Data defs  ****

 Sect OctLoc  Name                           Sect OctLoc  Name
    0      0  FMC_CACHE$                         0      1  FMC_TYPTBL$
    0      2  FMC_STATS$                         0      3  FMC_CACHESIZ
    0      4  FMC_CACHESIZN                      0      5  FMC_CACHEPGCNT
    0      6  FMC_CACHEPGCNT$                    0      7  FMC_LOCK
    0     11  FMC_MASK                           1      0  FMC_MASKTBL

  ****  Segment refs  ****

  Flags:  r = read only, s = secondary
Flgs Name                             Flgs Name                             Flgs Name
     NULLSID                               ISSID
PL6.E3A0      #001=FM_CACHE_D File=FM_CACHE_D.:E05TSI                            TUE 07/29/97 17:04 Page:5


(unnamed)
 Sect OctLoc
   0     000   000000 006014   000000 006014   000000 006014   ****** ******    ................
   0     004   ****** ******                                                    ....

FMC_CACHEPGCNT
 Sect OctLoc
   0     005   000000 000000                                                    ....

FMC_CACHEPGCNT$
 Sect OctLoc
   0     006   000005 006000                                                    ....

(unnamed)
 Sect OctLoc
   0     007   400000 000000   000000 000000   ****** ******                    ............

(unnamed)
 Sect OctLoc
   1     000   000000 000000   000000 000001   000000 000003   000000 000007    ................
   1     004   000000 000017   000000 000037   000000 000077   000000 000177    ...........?....
   1     010   000000 000377   000000 000777   000000 001777   000000 003777    ................
   1     014   000000 007777   000000 017777   000000 037777   000000 077777    ..............?.
   1     020   000000 177777   000000 377777                                    ........
        1        1        /*M*  FM_CACHE_D - Data for the I/O cache */
        2        2        /*T***********************************************************/
        3        3        /*T*                                                         */
        4        4        /*T* Copyright (c) Bull HN Information Systems Inc., 1997    */
        5        5        /*T*                                                         */
        6        6        /*T***********************************************************/
        7        7        FM_CACHE_D: PROC;
        8        8    1          DCL FMC_CACHE$ PTR STATIC SYMDEF INIT(ADDR(NIL));
        9        9
       10       10
       11       11    1          DCL FMC_TYPTBL$ PTR STATIC SYMDEF INIT(ADDR(NIL));
       12       12
PL6.E3A0      #001=FM_CACHE_D File=FM_CACHE_D.:E05TSI                            TUE 07/29/97 17:04 Page:6
       13       13
       14       14    1          DCL FMC_STATS$ PTR STATIC SYMDEF INIT(ADDR(NIL));
       15       15
       16       16    1          DCL FMC_CACHESIZ SBIN STATIC SYMDEF;  /* SIZE OF CACHE                  */
       17       17    1          DCL FMC_CACHESIZN SBIN STATIC SYMDEF;  /* POWER OF 2 OF SIZE            */
       18       18    1          DCL FMC_CACHEPGCNT SBIN STATIC SYMDEF INIT(0);  /* NUMBER OF
       19       19                    FREE PAGES */
       20       20    1          DCL FMC$CACHEPGCNT SBIN BASED(FMC_CACHEPGCNT$);  /* ALL OF       */
       21       21    1          DCL FMC_CACHEPGCNT$ PTR STATIC SYMDEF INIT(ADDR(FMC_CACHEPGCNT));
       22       22    1          DCL 1 FMC_CACHEPGCNT$R REDEF FMC_CACHEPGCNT$,  /* SET UP A SEGID         */
       23       23    1               2 * BIT(24) UNAL,           /* TO BYPASS THE MM CACHE */
       24       24    1               2 SID BIT(12) UNAL;
       25       25    1          DCL FMC_LOCK BIT(72) STATIC SYMDEF INIT('1'B);   /* CACHE LOCK         */
       26       26    1          DCL FMC_MASK BIT(36) STATIC SYMDEF;   /* MASK FOR HASHING              */
       27       27    1          DCL FMC_MASKTBL(0:17) BIT(36) CONSTANT SYMDEF INIT(
       28       28    1             '000000000000'O,
       29       29    1             '000000000001'O,
       30       30    1             '000000000003'O,
       31       31    1             '000000000007'O,
       32       32    1             '000000000017'O,
       33       33    1             '000000000037'O,
       34       34    1             '000000000077'O,
       35       35    1             '000000000177'O,
       36       36    1             '000000000377'O,
       37       37    1             '000000000777'O,
       38       38    1             '000000001777'O,
       39       39    1             '000000003777'O,
       40       40    1             '000000007777'O,
       41       41    1             '000000017777'O,
       42       42    1             '000000037777'O,
       43       43    1             '000000077777'O,
       44       44    1             '000000177777'O,
       45       45    1             '000000377777'O);
       46       46
       47       47    1          END FM_CACHE_D;

PL6.E3A0      #001=FM_CACHE_D File=FM_CACHE_D.:E05TSI                            TUE 07/29/97 17:04 Page:7
      No diagnostics issued in procedure FM_CACHE_D.
PL6.E3A0      #001=FM_CACHE_D File=FM_CACHE_D.:E05TSI                            TUE 07/29/97 17:04 Page:8

 **** Variables and constants ****

  ****  Section 000  Data  FM_CACHE_D

  ****  Scalars and arrays  ****
OctLoc.c.b A Datatyp(siz) R M Lvl/name                 OctLoc.c.b A Datatyp(siz) R M Lvl/name

     5-0-0/w SBIN        r     1 FMC_CACHEPGCNT             6-0-0/w PTR         r     1 FMC_CACHEPGCNT$


   No code generated for procedure FM_CACHE_D .
   Procedure FM_CACHE_D requires 4 words of local(AUTO) storage.

    No errors detected in file FM_CACHE_D.:E05TSI    .
PL6.E3A0      #001=FM_CACHE_D File=FM_CACHE_D.:E05TSI                            TUE 07/29/97 17:04 Page:9
          *** CROSS REFERENCE LISTING ***
**     DENOTES     IDENTIFIER DEFINITION
<<                 IDENTIFIER'S VALUE SET
>>                 IDENTIFIER'S VALUE USED
<>                 IDENTIFIER SET AND/OR USED
--                 IDENTIFIER REFERENCED
PL6.E3A0      #001=FM_CACHE_D File=FM_CACHE_D.:E05TSI                            TUE 07/29/97 17:04 Page:10
          MINI XREF LISTING

FMC_CACHEPGCNT
        18**DCL        21--DCLINIT
FMC_CACHEPGCNT$
        21**DCL        20--IMP-PTR    22--REDEF
PL6.E3A0      #001=FM_CACHE_D File=FM_CACHE_D.:E05TSI                            TUE 07/29/97 17:04 Page:11
              *** CROSS REFERENCE LISTING ***
    **     DENOTES     IDENTIFIER DEFINITION
    <<                 IDENTIFIER'S VALUE SET
    >>                 IDENTIFIER'S VALUE USED
    <>                 IDENTIFIER SET AND/OR USED
    --                 IDENTIFIER REFERENCED
PL6.E3A0      #001=FM_CACHE_D File=FM_CACHE_D.:E05TSI                            TUE 07/29/97 17:04 Page:12
              MINI UREF LISTING

FMC$CACHEPGCNT      20**DCL
FMC_CACHE$       8**DCL
FMC_CACHEPGCNT$R      22**DCL
FMC_CACHESIZ      16**DCL
FMC_CACHESIZN      17**DCL
FMC_LOCK      25**DCL
FMC_MASK      26**DCL
FMC_MASKTBL      27**DCL
FMC_STATS$      14**DCL
FMC_TYPTBL$      11**DCL
FM_CACHE_D       7**PROC
