VERSION E05

PL6.E3A0      #001=FM_DATA_D File=FM_DATA_D.:E05TSI                              TUE 07/29/97 17:04 Page:1
        1        1        /*M*  FM_DATA_D - Various file-management data cells */
        2        2        /*T***********************************************************/
        3        3        /*T*                                                         */
        4        4        /*T* Copyright (c) Bull HN Information Systems Inc., 1997    */
        5        5        /*T*                                                         */
        6        6        /*T***********************************************************/
        7        7        /*X* */
        8        8        /**/
        9        9        FM_DATA_D: PROC;
       10       10        /**/
       11       11        /* ! ! */
       12       12        %INCLUDE B_STRINGS_C;
       13      141        %INCLUDE B_SEGIDS_C;
       14      680        /* ! R ! */
       15      681        /**/
       16      682        /* SET AND FILE RELATIVE DISK ADDRESS LIMITS */
       17      683    1   DCL FM_FRZERO CONSTANT SYMDEF UBIN INIT(262144); /* '1_000000'O               */
       18      684    1   DCL FM_FRMAX CONSTANT SYMDEF UBIN INIT(67141631); /* '400077777'O             */
       19      685    1   DCL FM_SRZERO CONSTANT SYMDEF UBIN INIT(67174400); /* '400200000'O            */
       20      686    1   DCL FM_SRMAX CONSTANT SYMDEF UBIN INIT(134217727); /* '777777777'O            */
       21      687        /**/
       22      688        /* KNOWN GRANULE LOCATIONS */
       23      689    1   DCL FM_MADSDA CONSTANT SYMDEF UBIN INIT(67174403); /* MAD FDA                 */
       24      690    1   DCL FM_PADSDA CONSTANT SYMDEF UBIN INIT(67174402); /* PAD FDA                 */
       25      691    1   DCL FM_GPSDA CONSTANT SYMDEF UBIN INIT(67174401); /* GP FDA                   */
       26      692        /**/
       27      693        /* EOP VALUES */
       28      694    1   DCL FM_EOP(0:8) CONSTANT SYMDEF UBIN
       29      695    1         INIT(1,3,4,2,0*0);
       30      696        /**/
       31      697        /* KNOWN HASH VALUES */
       32      698    1   DCL FM_HASH(0:3) CONSTANT SYMDEF UBIN INIT(0,
       33      699    1            89478485,                      /* '000525252525'O,      GRANULE POOL */
       34      700    1            25740386,                      /* '000142142142'O,      MAD          */
       35      701    1            49379516);                     /* '000274274274'O);     PAD          */
       36      702        /**/
       37      703        /* USER WSQ FOR CALLS TO MM ROUTINES */
PL6.E3A0      #001=FM_DATA_D File=FM_DATA_D.:E05TSI                              TUE 07/29/97 17:04 Page:2
       38      704    1   DCL FM_WSQ SBIN CONSTANT SYMDEF INIT(%USERWSQ);
       39      705        /**/
       40      706        /* LOCK FOR UPDATING DCB FIELDS:  TYC, ARS, FCN, FCNF */
       41      707    1   DCL F_DCBLOCK BIT(72) STATIC SYMDEF INIT('1'B);
       42      708        /**/
       43      709        /* Count of number of buffer truncs */
       44      710    1   DCL FM_TRUNC SBIN STATIC SYMDEF INIT(0);
       45      711        /**/
       46      712        /* COUNT LOOPS WAITING FOR CFU LOPCK */
       47      713    1   DCL FM_CFUWAIT SBIN STATIC SYMDEF INIT(0);
       48      714    1   DCL FM_CFUWGRB SBIN STATIC SYMDEF INIT(0);
       49      715        /**/
       50      716        /**/
       51      717        /* CFU DATA AREA CHAIN HEADERS AND POINTERS */
       52      718    1   DCL F$CFU$
       53      719        /* ! ! */
       54      720    1              UBIN
       55      721        /* ! R ! PTR */
       56      722    1    CONSTANT SYMDEF INIT(%BITBIN(DS1SID)); /* CFU area pointer                   */
       57      723    1   DCL F_CWLK SBIN STATIC SYMDEF INIT(1);
       58      724    1   DCL F_CWUSER SBIN STATIC SYMDEF INIT(0);
       59      725    1   DCL FM_GIP SBIN STATIC SYMDEF INIT(1);  /* GARBAGE COLL. IN PROG.*/
       60      726    1   DCL FM_GCT SBIN STATIC SYMDEF INIT(0);  /* GARBAGE COLL. CNT.*/
       61      727        /**/
       62      728        /* SET TABLE INFO */
       63      729    1   DCL FM$SET$
       64      730        /* ! ! */
       65      731    1              UBIN
       66      732        /* ! R ! PTR */
       67      733    1    CONSTANT SYMDEF INIT(%BITBIN(DS1SID)); /* SET array pointer                  */
       68      734    1   DCL FM_SYSSETX UBIN STATIC SYMDEF INIT(1); /* SETX OF SYSTEM SET              */
       69      735    1   DCL FM_SYSACCTX UBIN STATIC SYMDEF INIT(0); /* ACCTX OF SYSTEM ACCT           */
       70      736        /**/
       71      737    1   END FM_DATA_D;

PL6.E3A0      #001=FM_DATA_D File=FM_DATA_D.:E05TSI                              TUE 07/29/97 17:04 Page:3
--  Include file information  --

   B_SEGIDS_C.:E05TOU  is referenced.
   B_STRINGS_C.:E05TOU  is referenced.
      No diagnostics issued in procedure FM_DATA_D.

   No code generated for procedure FM_DATA_D .
   Procedure FM_DATA_D requires 4 words of local(AUTO) storage.

    No errors detected in file FM_DATA_D.:E05TSI    .

PL6.E3A0      #001=FM_DATA_D File=FM_DATA_D.:E05TSI                              TUE 07/29/97 17:04 Page:4

 Object Unit name= FM_DATA_D                                  File name= FM_DATA_D.:E05TOU
 UTS= JUL 29 '97 17:04:29.56 TUE                              Compiler= PL-6/E31         Sev=      00
 SharedLib= :SHARED_SYSTEM                                    Alt SharedLib=


    ****  Control sections  ****

 Sect   Type Bound  Init  Size OctSiz  Section name(segment info)
    0  RoData even  UTS     23     27  FM_DATA_D
    1   Data  even  none    11     13  FM_DATA_D
    2   Proc  even  none     0      0  FM_DATA_D

    ****  Entry defs  ****

                              Check   Calling
                             calling  sequence
  Sect OctLoc Primary Altret sequence   type   Parms  Name
     2      0   yes            yes     ~proc       0  FM_DATA_D
PL6.E3A0      #001=FM_DATA_D File=FM_DATA_D.:E05TSI                              TUE 07/29/97 17:04 Page:5

  ****  Data defs  ****

 Sect OctLoc  Name                           Sect OctLoc  Name
    0      0  FM_FRZERO                          0      1  FM_FRMAX
    0      2  FM_SRZERO                          0      3  FM_SRMAX
    0      4  FM_MADSDA                          0      5  FM_PADSDA
    0      6  FM_GPSDA                           0      7  FM_EOP
    0     20  FM_HASH                            0     24  FM_WSQ
    1      0  F_DCBLOCK                          1      2  FM_TRUNC
    1      3  FM_CFUWAIT                         1      4  FM_CFUWGRB
    0     25  F$CFU$                             1      5  F_CWLK
    1      6  F_CWUSER                           1      7  FM_GIP
    1     10  FM_GCT                             0     26  FM$SET$
    1     11  FM_SYSSETX                         1     12  FM_SYSACCTX
PL6.E3A0      #001=FM_DATA_D File=FM_DATA_D.:E05TSI                              TUE 07/29/97 17:04 Page:6


(unnamed)
 Sect OctLoc
   0     000   000001 000000   000400 077777   000400 200000   000777 777777    ......?.........
   0     004   000400 200003   000400 200002   000400 200001   000000 000001    ................
   0     010   000000 000003   000000 000004   000000 000002   000000 000000    ................
   0     014   000000 000000   000000 000000   000000 000000   000000 000000    ................
   0     020   000000 000000   000525 252525   000142 142142   000274 274274    .........bbb....
   0     024   000000 000010   000000 006004   000000 006004                    ............

(unnamed)
 Sect OctLoc
   1     000   400000 000000   000000 000000   000000 000000   000000 000000    ................
   1     004   000000 000000   000000 000001   000000 000000   000000 000001    ................
   1     010   000000 000000   000000 000001   000000 000000                    ............
        1        1        /*M*  FM_DATA_D - Various file-management data cells */
        2        2        /*T***********************************************************/
        3        3        /*T*                                                         */
        4        4        /*T* Copyright (c) Bull HN Information Systems Inc., 1997    */
        5        5        /*T*                                                         */
        6        6        /*T***********************************************************/
        7        7        /*X* */
        8        8        /**/
        9        9        FM_DATA_D: PROC;
       10       10        /**/
       11       11        /* ! ! */
       12       12        %INCLUDE B_STRINGS_C;
       13      141        %INCLUDE B_SEGIDS_C;
       14      680        /* ! R ! */
       15      681        /**/
       16      682        /* SET AND FILE RELATIVE DISK ADDRESS LIMITS */
       17      683    1   DCL FM_FRZERO CONSTANT SYMDEF UBIN INIT(262144); /* '1_000000'O               */
       18      684    1   DCL FM_FRMAX CONSTANT SYMDEF UBIN INIT(67141631); /* '400077777'O             */
       19      685    1   DCL FM_SRZERO CONSTANT SYMDEF UBIN INIT(67174400); /* '400200000'O            */
       20      686    1   DCL FM_SRMAX CONSTANT SYMDEF UBIN INIT(134217727); /* '777777777'O            */
       21      687        /**/
       22      688        /* KNOWN GRANULE LOCATIONS */
PL6.E3A0      #001=FM_DATA_D File=FM_DATA_D.:E05TSI                              TUE 07/29/97 17:04 Page:7
       23      689    1   DCL FM_MADSDA CONSTANT SYMDEF UBIN INIT(67174403); /* MAD FDA                 */
       24      690    1   DCL FM_PADSDA CONSTANT SYMDEF UBIN INIT(67174402); /* PAD FDA                 */
       25      691    1   DCL FM_GPSDA CONSTANT SYMDEF UBIN INIT(67174401); /* GP FDA                   */
       26      692        /**/
       27      693        /* EOP VALUES */
       28      694    1   DCL FM_EOP(0:8) CONSTANT SYMDEF UBIN
       29      695    1         INIT(1,3,4,2,0*0);
       30      696        /**/
       31      697        /* KNOWN HASH VALUES */
       32      698    1   DCL FM_HASH(0:3) CONSTANT SYMDEF UBIN INIT(0,
       33      699    1            89478485,                      /* '000525252525'O,      GRANULE POOL */
       34      700    1            25740386,                      /* '000142142142'O,      MAD          */
       35      701    1            49379516);                     /* '000274274274'O);     PAD          */
       36      702        /**/
       37      703        /* USER WSQ FOR CALLS TO MM ROUTINES */
       38      704    1   DCL FM_WSQ SBIN CONSTANT SYMDEF INIT(%USERWSQ);
       39      705        /**/
       40      706        /* LOCK FOR UPDATING DCB FIELDS:  TYC, ARS, FCN, FCNF */
       41      707    1   DCL F_DCBLOCK BIT(72) STATIC SYMDEF INIT('1'B);
       42      708        /**/
       43      709        /* Count of number of buffer truncs */
       44      710    1   DCL FM_TRUNC SBIN STATIC SYMDEF INIT(0);
       45      711        /**/
       46      712        /* COUNT LOOPS WAITING FOR CFU LOPCK */
       47      713    1   DCL FM_CFUWAIT SBIN STATIC SYMDEF INIT(0);
       48      714    1   DCL FM_CFUWGRB SBIN STATIC SYMDEF INIT(0);
       49      715        /**/
       50      716        /**/
       51      717        /* CFU DATA AREA CHAIN HEADERS AND POINTERS */
       52      718    1   DCL F$CFU$
       53      719        /* ! ! */
       54      720    1              UBIN
       55      721        /* ! R ! PTR */
       56      722    1    CONSTANT SYMDEF INIT(%BITBIN(DS1SID)); /* CFU area pointer                   */
       57      723    1   DCL F_CWLK SBIN STATIC SYMDEF INIT(1);
       58      724    1   DCL F_CWUSER SBIN STATIC SYMDEF INIT(0);
       59      725    1   DCL FM_GIP SBIN STATIC SYMDEF INIT(1);  /* GARBAGE COLL. IN PROG.*/
PL6.E3A0      #001=FM_DATA_D File=FM_DATA_D.:E05TSI                              TUE 07/29/97 17:04 Page:8
       60      726    1   DCL FM_GCT SBIN STATIC SYMDEF INIT(0);  /* GARBAGE COLL. CNT.*/
       61      727        /**/
       62      728        /* SET TABLE INFO */
       63      729    1   DCL FM$SET$
       64      730        /* ! ! */
       65      731    1              UBIN
       66      732        /* ! R ! PTR */
       67      733    1    CONSTANT SYMDEF INIT(%BITBIN(DS1SID)); /* SET array pointer                  */
       68      734    1   DCL FM_SYSSETX UBIN STATIC SYMDEF INIT(1); /* SETX OF SYSTEM SET              */
       69      735    1   DCL FM_SYSACCTX UBIN STATIC SYMDEF INIT(0); /* ACCTX OF SYSTEM ACCT           */
       70      736        /**/
       71      737    1   END FM_DATA_D;

PL6.E3A0      #001=FM_DATA_D File=FM_DATA_D.:E05TSI                              TUE 07/29/97 17:04 Page:9
--  Include file information  --

   B_SEGIDS_C.:E05TOU  is referenced.
   B_STRINGS_C.:E05TOU  is referenced.
      No diagnostics issued in procedure FM_DATA_D.
PL6.E3A0      #001=FM_DATA_D File=FM_DATA_D.:E05TSI                              TUE 07/29/97 17:04 Page:10

 **** Variables and constants ****


   No code generated for procedure FM_DATA_D .
   Procedure FM_DATA_D requires 4 words of local(AUTO) storage.

    No errors detected in file FM_DATA_D.:E05TSI    .
PL6.E3A0      #001=FM_DATA_D File=FM_DATA_D.:E05TSI                              TUE 07/29/97 17:04 Page:11
          *** CROSS REFERENCE LISTING ***
**     DENOTES     IDENTIFIER DEFINITION
<<                 IDENTIFIER'S VALUE SET
>>                 IDENTIFIER'S VALUE USED
<>                 IDENTIFIER SET AND/OR USED
--                 IDENTIFIER REFERENCED
PL6.E3A0      #001=FM_DATA_D File=FM_DATA_D.:E05TSI                              TUE 07/29/97 17:04 Page:12
          MINI XREF LISTING

PL6.E3A0      #001=FM_DATA_D File=FM_DATA_D.:E05TSI                              TUE 07/29/97 17:04 Page:13
          *** CROSS REFERENCE LISTING ***
**     DENOTES     IDENTIFIER DEFINITION
<<                 IDENTIFIER'S VALUE SET
>>                 IDENTIFIER'S VALUE USED
<>                 IDENTIFIER SET AND/OR USED
--                 IDENTIFIER REFERENCED
PL6.E3A0      #001=FM_DATA_D File=FM_DATA_D.:E05TSI                              TUE 07/29/97 17:04 Page:14
          MINI UREF LISTING

F$CFU$     718**DCL
FM$SET$     729**DCL
FM_CFUWAIT     713**DCL
FM_CFUWGRB     714**DCL
FM_DATA_D       9**PROC
FM_EOP     694**DCL
FM_FRMAX     684**DCL
FM_FRZERO     683**DCL
FM_GCT     726**DCL
FM_GIP     725**DCL
FM_GPSDA     691**DCL
FM_HASH     698**DCL
FM_MADSDA     689**DCL
FM_PADSDA     690**DCL
FM_SRMAX     686**DCL
FM_SRZERO     685**DCL
FM_SYSACCTX     735**DCL
FM_SYSSETX     734**DCL
FM_TRUNC     710**DCL
FM_WSQ     704**DCL
F_CWLK     723**DCL
F_CWUSER     724**DCL
F_DCBLOCK     707**DCL
