VERSION E05

PL6.E3A0      #001=FM_OPLBL_D File=FM_OPLBL_D.:E05TSI                            TUE 07/29/97 17:04 Page:1
        1        1        /*M*  FM_OPLBL_D        THE OPLBL TABLES */
        2        2        /*T***********************************************************/
        3        3        /*T*                                                         */
        4        4        /*T* Copyright (c) Bull HN Information Systems Inc., 1997    */
        5        5        /*T*                                                         */
        6        6        /*T***********************************************************/
        7        7                                                /**/
        8        8        FM_OPLBL_D: PROC;
        9        9                                                /**/
       10       10        %SUB F_NUMOPS=16;
       11       11                                                /* NUMBER OF 'M$' OP LABELS DEFINED   */
       12       12                                                /**/
       13       13    1   DCL F_OPLBL (0:F_NUMOPS) CHAR(2) UNAL CONSTANT SYMDEF
       14       14    1   INIT(' '*5,'LO','LL','DO',
       15       15    1      'PO','SI','SO','UI',
       16       16    1      'OU','EI','EO','ME',
       17       17    1      'DR');
       18       18                                                /* DEFINE THE SYSTEM OP LABELS        */
       19       19                                                /**/
       20       20    1   DCL F_OPLFUN(0:F_NUMOPS) UBIN BYTE UNAL CONSTANT SYMDEF
       21       21    1   INIT(0,2,2,3,3,3,3,3,3,2,3,2,3,2,3,1,3);
       22       22                                           /* DEFAULT FUNCTIONS FOR OP LABEL DCBS     */
       23       23                                                /**/
       24       24    1   DCL F_OPLRX(0:F_NUMOPS) UBIN CONSTANT SYMDEF
       25       25    1   INIT(6,1,1,0,3,3,3,3,5,1,5,1,0,1,5,6,0);
       26       26                                      /* INDEX INTO DEFAULT RES FOR OP LABEL DCBS     */
       27       27                                                /**/
       28       28    1   DCL F_OPLRES (0:6) CHAR(2) UNAL CONSTANT SYMDEF
       29       29    1            INIT(' ','CR','UC','LO','CP','NO','ME');
       30       30                                           /* DEFAULT RESOURCES FOR OP LABEL DCBS     */
       31       31                                                /**/
       32       32        /* DEFINE THE ADDITIONAL 'F$' DCBS THAT */
       33       33        /* OPEN SCRUB NEEDS TO KNOW ABOUT       */
       34       34        %SUB F_NUMSPS=11;
       35       35                                                /**/
       36       36    1   DCL F_OPSPS (0:F_NUMSPS) CHAR(3) UNAL CONSTANT SYMDEF
       37       37    1             INIT(' ','101','102','103','104','105',
PL6.E3A0      #001=FM_OPLBL_D File=FM_OPLBL_D.:E05TSI                            TUE 07/29/97 17:04 Page:2
       38       38    1               '106','107','108','5','6','7');
       39       39                                                /* DEFINE THE SPECIAL DCB NAMES       */
       40       40                                                /**/
       41       41    1   DCL F_OPSPFUN(0:F_NUMSPS) UBIN BYTE UNAL CONSTANT SYMDEF
       42       42    1   INIT(0,2,3,2,3,2,3,1,3,2,3,3);
       43       43                                                /* DEFAULT FUNCTIONS FOR SPECIAL DCBS */
       44       44                                                /**/
       45       45    1   DCL F_OPSPRX(0:F_NUMSPS) UBIN CONSTANT SYMDEF
       46       46    1   INIT(6,6,6,5,5,1,4,6,3,1,3,4);
       47       47                                           /* INDEX INTO DEFAULT RES FOR SPECIAL DCBS */
       48       48                                                /**/
       49       49    1   END FM_OPLBL_D;

PL6.E3A0      #001=FM_OPLBL_D File=FM_OPLBL_D.:E05TSI                            TUE 07/29/97 17:04 Page:3
      No diagnostics issued in procedure FM_OPLBL_D.

   No code generated for procedure FM_OPLBL_D .
   Procedure FM_OPLBL_D requires 4 words of local(AUTO) storage.

    No errors detected in file FM_OPLBL_D.:E05TSI    .

PL6.E3A0      #001=FM_OPLBL_D File=FM_OPLBL_D.:E05TSI                            TUE 07/29/97 17:04 Page:4

 Object Unit name= FM_OPLBL_D                                 File name= FM_OPLBL_D.:E05TOU
 UTS= JUL 29 '97 17:04:42.28 TUE                              Compiler= PL-6/E31         Sev=      00
 SharedLib= :SHARED_SYSTEM                                    Alt SharedLib=


    ****  Control sections  ****

 Sect   Type Bound  Init  Size OctSiz  Section name(segment info)
    0  RoData even  UTS     59     73  FM_OPLBL_D
    1   Proc  even  none     0      0  FM_OPLBL_D

    ****  Entry defs  ****

                              Check   Calling
                             calling  sequence
  Sect OctLoc Primary Altret sequence   type   Parms  Name
     1      0   yes            yes     ~proc       0  FM_OPLBL_D

  ****  Data defs  ****

 Sect OctLoc  Name                           Sect OctLoc  Name
    0      0  F_OPLBL                            0     11  F_OPLFUN
    0     16  F_OPLRX                            0     37  F_OPLRES
    0     43  F_OPSPS                            0     54  F_OPSPFUN
    0     57  F_OPSPRX
PL6.E3A0      #001=FM_OPLBL_D File=FM_OPLBL_D.:E05TSI                            TUE 07/29/97 17:04 Page:5


(unnamed)
 Sect OctLoc
   0     000   040040 040040   040040 040040   040040 114117   114114 104117              LOLLDO
   0     004   120117 123111   123117 125111   117125 105111   105117 115105    POSISOUIOUEIEOME
   0     010   104122 ******   000002 002003   003003 003003   003002 003002    DR..............
   0     014   003002 003001   003*** ******   000000 000006   000000 000001    ................
   0     020   000000 000001   000000 000000   000000 000003   000000 000003    ................
   0     024   000000 000003   000000 000003   000000 000005   000000 000001    ................
   0     030   000000 000005   000000 000001   000000 000000   000000 000001    ................
   0     034   000000 000005   000000 000006   000000 000000   040040 103122    ............  CR
   0     040   125103 114117   103120 116117   115105 ******   040040 040061    UCLOCPNOME..   1
   0     044   060061 061060   062061 060063   061060 064061   060065 061060    0110210310410510
   0     050   066061 060067   061060 070065   040040 066040   040067 040040    61071085  6  7
   0     054   000002 003002   003002 003001   003002 003003   000000 000006    ................
   0     060   000000 000006   000000 000006   000000 000005   000000 000005    ................
   0     064   000000 000001   000000 000004   000000 000006   000000 000003    ................
   0     070   000000 000001   000000 000003   000000 000004                    ............
        1        1        /*M*  FM_OPLBL_D        THE OPLBL TABLES */
        2        2        /*T***********************************************************/
        3        3        /*T*                                                         */
        4        4        /*T* Copyright (c) Bull HN Information Systems Inc., 1997    */
        5        5        /*T*                                                         */
        6        6        /*T***********************************************************/
        7        7                                                /**/
        8        8        FM_OPLBL_D: PROC;
        9        9                                                /**/
       10       10        %SUB F_NUMOPS=16;
       11       11                                                /* NUMBER OF 'M$' OP LABELS DEFINED   */
       12       12                                                /**/
       13       13    1   DCL F_OPLBL (0:F_NUMOPS) CHAR(2) UNAL CONSTANT SYMDEF
       14       14    1   INIT(' '*5,'LO','LL','DO',
       15       15    1      'PO','SI','SO','UI',
       16       16    1      'OU','EI','EO','ME',
       17       17    1      'DR');
       18       18                                                /* DEFINE THE SYSTEM OP LABELS        */
       19       19                                                /**/
PL6.E3A0      #001=FM_OPLBL_D File=FM_OPLBL_D.:E05TSI                            TUE 07/29/97 17:04 Page:6
       20       20    1   DCL F_OPLFUN(0:F_NUMOPS) UBIN BYTE UNAL CONSTANT SYMDEF
       21       21    1   INIT(0,2,2,3,3,3,3,3,3,2,3,2,3,2,3,1,3);
       22       22                                           /* DEFAULT FUNCTIONS FOR OP LABEL DCBS     */
       23       23                                                /**/
       24       24    1   DCL F_OPLRX(0:F_NUMOPS) UBIN CONSTANT SYMDEF
       25       25    1   INIT(6,1,1,0,3,3,3,3,5,1,5,1,0,1,5,6,0);
       26       26                                      /* INDEX INTO DEFAULT RES FOR OP LABEL DCBS     */
       27       27                                                /**/
       28       28    1   DCL F_OPLRES (0:6) CHAR(2) UNAL CONSTANT SYMDEF
       29       29    1            INIT(' ','CR','UC','LO','CP','NO','ME');
       30       30                                           /* DEFAULT RESOURCES FOR OP LABEL DCBS     */
       31       31                                                /**/
       32       32        /* DEFINE THE ADDITIONAL 'F$' DCBS THAT */
       33       33        /* OPEN SCRUB NEEDS TO KNOW ABOUT       */
       34       34        %SUB F_NUMSPS=11;
       35       35                                                /**/
       36       36    1   DCL F_OPSPS (0:F_NUMSPS) CHAR(3) UNAL CONSTANT SYMDEF
       37       37    1             INIT(' ','101','102','103','104','105',
       38       38    1               '106','107','108','5','6','7');
       39       39                                                /* DEFINE THE SPECIAL DCB NAMES       */
       40       40                                                /**/
       41       41    1   DCL F_OPSPFUN(0:F_NUMSPS) UBIN BYTE UNAL CONSTANT SYMDEF
       42       42    1   INIT(0,2,3,2,3,2,3,1,3,2,3,3);
       43       43                                                /* DEFAULT FUNCTIONS FOR SPECIAL DCBS */
       44       44                                                /**/
       45       45    1   DCL F_OPSPRX(0:F_NUMSPS) UBIN CONSTANT SYMDEF
       46       46    1   INIT(6,6,6,5,5,1,4,6,3,1,3,4);
       47       47                                           /* INDEX INTO DEFAULT RES FOR SPECIAL DCBS */
       48       48                                                /**/
       49       49    1   END FM_OPLBL_D;

PL6.E3A0      #001=FM_OPLBL_D File=FM_OPLBL_D.:E05TSI                            TUE 07/29/97 17:04 Page:7
      No diagnostics issued in procedure FM_OPLBL_D.
PL6.E3A0      #001=FM_OPLBL_D File=FM_OPLBL_D.:E05TSI                            TUE 07/29/97 17:04 Page:8

 **** Variables and constants ****


   No code generated for procedure FM_OPLBL_D .
   Procedure FM_OPLBL_D requires 4 words of local(AUTO) storage.

    No errors detected in file FM_OPLBL_D.:E05TSI    .
PL6.E3A0      #001=FM_OPLBL_D File=FM_OPLBL_D.:E05TSI                            TUE 07/29/97 17:04 Page:9
          *** CROSS REFERENCE LISTING ***
**     DENOTES     IDENTIFIER DEFINITION
<<                 IDENTIFIER'S VALUE SET
>>                 IDENTIFIER'S VALUE USED
<>                 IDENTIFIER SET AND/OR USED
--                 IDENTIFIER REFERENCED
PL6.E3A0      #001=FM_OPLBL_D File=FM_OPLBL_D.:E05TSI                            TUE 07/29/97 17:04 Page:10
          MINI XREF LISTING

