VERSION E05

PL6.E3A0      #001=FOG$GRAN File=FOG$GRAN.:E05TSI                                TUE 07/29/97 17:08 Page:1
        1        1        /*M* FOG$GRAN Symbiont file granule builder for MOOS and OUTSYM */
        2        2        /*T***********************************************************/
        3        3        /*T*                                                         */
        4        4        /*T* Copyright (c) Bull HN Information Systems Inc., 1997    */
        5        5        /*T*                                                         */
        6        6        /*T***********************************************************/
        7        7        /*X* DMC,PLM=6,IND=0,IDT=2,SDI=2,CTI=0,ENU=0,AND,DCI=4,CSU=2,ECU=4,THI=0,DTI=0,STI=1
                 7        ,IAD=0,PRB */
        8        8        /**/
        9        9        /*P* NAME:         FOG$GRAN
       10       10             PURPOSE:      To build symbiont file granules for MOOS and
       11       11                           OUTSYM
       12       12             DESCRIPTION:  MOOS and OUTSYM occasionally need to build
       13       13                           symbiont file granules for themselves.  These
       14       14                           granules are built in memory and then shipped
       15       15                           off to device handlers in order to get certain
       16       16                           records printed.  Examples of things printed
       17       17                           in this manner are:
       18       18
       19       19                           o After a space operation, MOOS emits the
       20       20                             correct tabs to the device in one of these
       21       21                             hand-built granules.
       22       22
       23       23                           o OUTSYM builds the device alignment image
       24       24                             using FOG$GRAN
       25       25
       26       26                           o The M$SYMBIO WRITE order (which passes a
       27       27                             record) causes MOOS to build a granule
       28       28                             using FOG$GRAN. */
       29       29        /**/
       30       30        FOG$GRAN: PROC (FO$GPARM) ALTRET;
       31       31        /**/
       32       32
       33       33
       34       34
       35       35        /**/
       36       36        /* INCLUDES */
PL6.E3A0      #001=FOG$GRAN File=FOG$GRAN.:E05TSI                                TUE 07/29/97 17:08 Page:2
       37       37        /**/
       38       38        %INCLUDE FM$GRAN;
       39      107        %INCLUDE FOO_MAC_C;
       40      855        %INCLUDE B$TABLES_C;
       41      963
       42      964
       43      965
       44      966        /**/
       45      967        /* PARAMETERS */
       46      968        /**/
       47      969        %FO_GPARM (FPTN=FO$GPARM,STCLASS="");
       48      991
       49      992
       50      993
       51      994        /**/
       52      995        /* BASED STRUCTURES */
       53      996        /**/
       54      997        %B$XL_UR;
       55     1001        %B$XL_UPPER_UR;
       56     1005        %FM$GRAN;
       57     1009        %FM$CON;
       58     1013    1   DCL 1 B$PAGE BASED ALIGNED,
       59     1014    1         2 * (0:1023) UBIN WORD UNAL;
       60     1015    1   DCL B$CHARS CHAR(RECL) BASED ALIGNED;
       61     1016    1   DCL B$BYTE CHAR(1) BASED UNAL;
       62     1017
       63     1018
       64     1019
       65     1020        /**/
       66     1021        /* AUTO */
       67     1022        /**/
       68     1023    1   DCL GRAN$ PTR;
       69     1024    1   DCL RECL UBIN WORD;
       70     1025    1   DCL NAVX UBIN WORD;
       71     1026    1   DCL AVAIL UBIN WORD;
       72     1027    1   DCL REQD UBIN WORD;
       73     1028    1   DCL CTL$ PTR;
PL6.E3A0      #001=FOG$GRAN File=FOG$GRAN.:E05TSI                                TUE 07/29/97 17:08 Page:3
       74     1029    1   DCL REC$ PTR;
       75     1030    1   DCL REPEATS UBIN WORD;
       76     1031    1   DCL WRECL UBIN WORD;
       77     1032    1   DCL I UBIN WORD;
       78     1033    1   DCL IR REDEF I SBIN;
       79     1034    1   DCL URXLATE UBIN WORD;
       80     1035        %EJECT;
PL6.E3A0      #001=FOG$GRAN File=FOG$GRAN.:E05TSI                                TUE 07/29/97 17:08 Page:4
       81     1036        /**/
       82     1037        /*F* NAME:         FOG$GRAN
       83     1038             PURPOSE:      To initialize a granule page for insertion of
       84     1039                           records.
       85     1040             DESCRIPTION:  FO$GPARM.BUF$ points to a 1024-word buffer,
       86     1041                           which is initialized for use by FOG$ADD.*/
       87     1042        /**/
       88     1043
       89     1044    1         CALL SETUP;
       90     1045    1         RETURN;
       91     1046
       92     1047        /**/
       93     1048        /*F* NAME:         FOG$BLD
       94     1049             PURPOSE:      To enter the first record into a granule.
       95     1050             DESCRIPTION:  The granule is initialized as by FOG$GRAN,
       96     1051                           and then the first record is added, as by
       97     1052                           FOG$ADD. */
       98     1053        /**/
       99     1054    1   FOG$BLD: ENTRY (FO$GPARM) ALTRET;
      100     1055        /**/
      101     1056
      102     1057    1         CALL SETUP;
      103     1058    1         GOTO ADD0;
      104     1059
      105     1060    1   SETUP: PROC;
      106     1061    2         GRAN$=FO$GPARM.BUF$;
      107     1062    2         GRAN$->B$PAGE='0'B;
      108     1063    2         GRAN$->FM$GRAN.NAVX=LENGTHW(FM$GRAN);
      109     1064    2         GRAN$->FM$GRAN.AVAIL=1024-LENGTHW(FM$GRAN);
      110     1065    2         GRAN$->FM$GRAN.KEYCNT = 0;
      111     1066    2         RETURN;
      112     1067    2   END SETUP;
      113     1068
      114     1069        /**/
      115     1070        /*F* NAME:         FOG$BLDUR
      116     1071             PURPOSE:      To add enter the first record of a granule, with
      117     1072                           UR translation.
PL6.E3A0      #001=FOG$GRAN File=FOG$GRAN.:E05TSI                                TUE 07/29/97 17:08 Page:5
      118     1073             DESCRIPTION:  Like FOG$BLD, but UR-xlates the record. */
      119     1074        /**/
      120     1075    1   FOG$BLDUR: ENTRY (FO$GPARM) ALTRET;
      121     1076        /**/
      122     1077
      123     1078    1         CALL SETUP;
      124     1079    1         GOTO ADD01;
      125     1080
      126     1081        /**/
      127     1082        /*F* NAME:         FOG$BLDURUC
      128     1083             PURPOSE:      To enter the first record of a granule, with
      129     1084                           UR upper case translation.
      130     1085             DESCRIPTION:  Like FOG$BLD, but UR-xlates (upper case only) the
      131     1086                           record. */
      132     1087        /**/
      133     1088    1   FOG$BLDURUC: ENTRY (FO$GPARM) ALTRET;
      134     1089    1         CALL SETUP;
      135     1090    1         GOTO ADD02;
      136     1091
      137     1092        /**/
      138     1093        /**/
      139     1094        /*F* NAME:         FOG$ADD
      140     1095             PURPOSE:      To add a record to a granule
      141     1096             DESCRIPTION:  FO$GPARM.BUF$ points to the granule buffer.
      142     1097                           FO$GPARM.REC$ points to the record to be added,
      143     1098                                         which must be word aligned.
      144     1099                           FO$GPARM.RECL is the character length of the
      145     1100                                         buffer pointed to by REC$
      146     1101                           FO$GPARM.VFC  is the vfc character to use; if
      147     1102                                         zero, the vfc is already in the
      148     1103                                         record, or perhaps not present.
      149     1104                           FO$GPARM.DVBYTE is the DVBYTE to stick in the
      150     1105                                           record control word.
      151     1106                           FO$GPARM.REPEATS is the number of times the record
      152     1107                                            is to be repeated (implemented
      153     1108                                            by repeating the control word).
      154     1109
PL6.E3A0      #001=FOG$GRAN File=FOG$GRAN.:E05TSI                                TUE 07/29/97 17:08 Page:6
      155     1110                           FO$GPARM is defined in FOO_MAC_C.
      156     1111
      157     1112                           The routine ALTRETs if the granule being built
      158     1113                           has insufficient space to accommodate the
      159     1114                           record. */
      160     1115        /**/
      161     1116    1   FOG$ADD: ENTRY (FO$GPARM) ALTRET;
      162     1117
      163     1118    1         GRAN$=FO$GPARM.BUF$;
      164     1119    1   ADD0: ;
      165     1120    1         URXLATE=0;
      166     1121    1         GOTO ADD03;
      167     1122    1   ADD01:;
      168     1123    1         URXLATE=1;
      169     1124    1         GOTO ADD03;
      170     1125    1   ADD02:;
      171     1126    1         URXLATE=2;
      172     1127    1   ADD03:;
      173     1128    1         RECL=FO$GPARM.RECL;
      174     1129    1         IF FO$GPARM.VFCR ~= '0'B THEN RECL=RECL+1;
      175     1130    1         REPEATS=FO$GPARM.REPEATS;
      176     1131    1         IF REPEATS = 0 THEN REPEATS=1;
      177     1132    1         WRECL=(RECL+3)/4;
      178     1133    1         NAVX=GRAN$->FM$GRAN.NAVX;
      179     1134    1         AVAIL=GRAN$->FM$GRAN.AVAIL;
      180     1135    1         IF WRECL+REPEATS > AVAIL THEN ALTRETURN;
      181     1136    1         CTL$=PINCRW(GRAN$,NAVX+AVAIL-1);
      182     1137    1         AVAIL=AVAIL-WRECL-REPEATS;
      183     1138    1         GRAN$->FM$GRAN.AVAIL=AVAIL;
      184     1139    1         CTL$->FM$CON='0'B;
      185     1140    1         CTL$->FM$CON.FAK=1;
      186     1141    1         CTL$->FM$CON.GACTB=RECL;
      187     1142    1         CTL$->FM$CON.GX=NAVX;
      188     1143    1         CTL$->FM$CON.CTL=FO$GPARM.DVBYTE;
      189     1144    2           DO IR /* I */ = 1 TO REPEATS-1;
      190     1145    2           PINCRW(CTL$,-I)->FM$CON=CTL$->FM$CON;
      191     1146    2           END;
PL6.E3A0      #001=FOG$GRAN File=FOG$GRAN.:E05TSI                                TUE 07/29/97 17:08 Page:7
      192     1147    1         IF FO$GPARM.VFCR = '0'B THEN
      193     1148    2           DO CASE (URXLATE);
      194     1149                                                     /**/
      195     1150    2             CASE (0);                /* FOG$BLD */
      196     1151    2               PINCRW (GRAN$,NAVX) -> B$CHARS
      197     1152    2               = FO$GPARM.REC$ -> B$CHARS;
      198     1153                                                     /**/
      199     1154    2             CASE (1);                /* FOG$BLDUR */
      200     1155    2               CALL XLATE (PINCRW(GRAN$,NAVX) -> B$CHARS,
      201     1156    2               B$XL_UR,
      202     1157    2               FO$GPARM.REC$ -> B$CHARS);
      203     1158                                                     /**/
      204     1159    2             CASE (2);                /* FOG$BLDURUC */
      205     1160    2               CALL XLATE (PINCRW(GRAN$,NAVX) -> B$CHARS,
      206     1161    2               B$XL_UPPER_UR,
      207     1162    2               FO$GPARM.REC$ -> B$CHARS);
      208     1163    2           END;
      209     1164    1         ELSE
      210     1165    2           DO;
      211     1166    2           REC$=PINCRW(GRAN$,NAVX);
      212     1167    2           REC$->B$BYTE=FO$GPARM.VFC;
      213     1168    2           RECL=RECL-1;
      214     1169    3             DO CASE (URXLATE);
      215     1170                                                     /**/
      216     1171    3               CASE (0);                /* FOG$BLD */
      217     1172    3                 PINCRC (REC$,1) -> B$CHARS
      218     1173    3                 = FO$GPARM.REC$ -> B$CHARS;
      219     1174                                                     /**/
      220     1175    3               CASE (1);                /* FOG$BLDUR */
      221     1176    3                 CALL XLATE (PINCRC (REC$,1) -> B$CHARS,
      222     1177    3                 B$XL_UR,
      223     1178    3                 FO$GPARM.REC$ -> B$CHARS);
      224     1179                                                     /**/
      225     1180    3               CASE (2);                /* FOG$BLDURUC */
      226     1181    3                 CALL XLATE (PINCRC (REC$,1) -> B$CHARS,
      227     1182    3                 B$XL_UPPER_UR,
      228     1183    3                 FO$GPARM.REC$ -> B$CHARS);
PL6.E3A0      #001=FOG$GRAN File=FOG$GRAN.:E05TSI                                TUE 07/29/97 17:08 Page:8
      229     1184    3             END;
      230     1185    2           END;
      231     1186    1         NAVX=NAVX+WRECL;
      232     1187    1         GRAN$->FM$GRAN.NAVX=NAVX;
      233     1188    1         RETURN;
      234     1189    1   END FOG$GRAN;

PL6.E3A0      #001=FOG$GRAN File=FOG$GRAN.:E05TSI                                TUE 07/29/97 17:08 Page:9
--  Include file information  --

   B$TABLES_C.:E05TOU  cannot be made into a system file and is referenced.
   FOO_MAC_C.:E05TOU  is referenced.
   FM$GRAN.:E05TOU  is referenced.
      No diagnostics issued in procedure FOG$GRAN.

   Procedure FOG$GRAN requires 216 words for executable code.
   Procedure FOG$GRAN requires 18 words of local(AUTO) storage.

    No errors detected in file FOG$GRAN.:E05TSI    .

PL6.E3A0      #001=FOG$GRAN File=FOG$GRAN.:E05TSI                                TUE 07/29/97 17:08 Page:10

 Object Unit name= FOG$GRAN                                   File name= FOG$GRAN.:E05TOU
 UTS= JUL 29 '97 17:08:25.04 TUE                              Compiler= PL-6/E31         Sev=      00
 SharedLib= :SHARED_SYSTEM                                    Alt SharedLib=


    ****  Control sections  ****

 Sect   Type Bound  Init  Size OctSiz  Section name(segment info)
    0   Proc  even  none   216    330  FOG$GRAN
    1  RoData even  none     2      2  FOG$GRAN

    ****  Entry defs  ****

                              Check   Calling
                             calling  sequence
  Sect OctLoc Primary Altret sequence   type   Parms  Name
     0      0   yes    yes     yes      Std        1  FOG$GRAN
     0      5          yes     yes      Std        1  FOG$BLD
     0     35          yes     yes      Std        1  FOG$BLDUR
     0     42          yes     yes      Std        1  FOG$BLDURUC
     0     47          yes     yes      Std        1  FOG$ADD

  ****  Entry refs  ****

         Check        Calling
        calling       sequence
Altret sequence SRef   type   Args  Name
         yes          ~proc      0 B_POINTER
                       nStd      0 X66_AUTO_1
                       nStd      0 X66_ARET
                       Std       0 B_CONSPOOL_D
                       nStd      0 X66_AALT
PL6.E3A0      #001=FOG$GRAN File=FOG$GRAN.:E05TSI                                TUE 07/29/97 17:08 Page:11

  ****  Data refs  ****

  Flags:  r = read only, s = secondary
Flgs Name                             Flgs Name                             Flgs Name
r    B$XL_UR$                         r    B$XL_UPPER_UR$                        B_VECTNIL
PL6.E3A0      #001=FOG$GRAN File=FOG$GRAN.:E05TSI                                TUE 07/29/97 17:08 Page:12


        1        1        /*M* FOG$GRAN Symbiont file granule builder for MOOS and OUTSYM */
        2        2        /*T***********************************************************/
        3        3        /*T*                                                         */
        4        4        /*T* Copyright (c) Bull HN Information Systems Inc., 1997    */
        5        5        /*T*                                                         */
        6        6        /*T***********************************************************/
        7        7       /*X* DMC,PLM=6,IND=0,IDT=2,SDI=2,CTI=0,ENU=0,AND,DCI=4,CSU=2,ECU=4,THI=0,DTI=0,STI=1
                 7        ,IAD=0,PRB */
        8        8        /**/
        9        9        /*P* NAME:         FOG$GRAN
       10       10             PURPOSE:      To build symbiont file granules for MOOS and
       11       11                           OUTSYM
       12       12             DESCRIPTION:  MOOS and OUTSYM occasionally need to build
       13       13                           symbiont file granules for themselves.  These
       14       14                           granules are built in memory and then shipped
       15       15                           off to device handlers in order to get certain
       16       16                           records printed.  Examples of things printed
       17       17                           in this manner are:
       18       18
       19       19                           o After a space operation, MOOS emits the
       20       20                             correct tabs to the device in one of these
       21       21                             hand-built granules.
       22       22
       23       23                           o OUTSYM builds the device alignment image
       24       24                             using FOG$GRAN
       25       25
       26       26                           o The M$SYMBIO WRITE order (which passes a
       27       27                             record) causes MOOS to build a granule
       28       28                             using FOG$GRAN. */
       29       29        /**/
       30       30        FOG$GRAN: PROC (FO$GPARM) ALTRET;

     30  0 000000   000000 700200 xent  FOG$GRAN     TSX0  ! X66_AUTO_1
         0 000001   000022 000001                    ZERO    18,1

       31       31        /**/
PL6.E3A0      #001=FOG$GRAN File=FOG$GRAN.:E05TSI                                TUE 07/29/97 17:08 Page:13
       32       32
       33       33
       34       34
       35       35        /**/
       36       36        /* INCLUDES */
       37       37        /**/
       38       38        %INCLUDE FM$GRAN;
       39      107        %INCLUDE FOO_MAC_C;
       40      855        %INCLUDE B$TABLES_C;
       41      963
       42      964
       43      965
       44      966        /**/
       45      967        /* PARAMETERS */
       46      968        /**/
       47      969        %FO_GPARM (FPTN=FO$GPARM,STCLASS="");
       48      991
       49      992
       50      993
       51      994        /**/
       52      995        /* BASED STRUCTURES */
       53      996        /**/
       54      997        %B$XL_UR;
       55     1001        %B$XL_UPPER_UR;
       56     1005        %FM$GRAN;
       57     1009        %FM$CON;
       58     1013    1   DCL 1 B$PAGE BASED ALIGNED,
       59     1014    1         2 * (0:1023) UBIN WORD UNAL;
       60     1015    1   DCL B$CHARS CHAR(RECL) BASED ALIGNED;
       61     1016    1   DCL B$BYTE CHAR(1) BASED UNAL;
       62     1017
       63     1018
       64     1019
       65     1020        /**/
       66     1021        /* AUTO */
       67     1022        /**/
       68     1023    1   DCL GRAN$ PTR;
PL6.E3A0      #001=FOG$GRAN File=FOG$GRAN.:E05TSI                                TUE 07/29/97 17:08 Page:14
       69     1024    1   DCL RECL UBIN WORD;
       70     1025    1   DCL NAVX UBIN WORD;
       71     1026    1   DCL AVAIL UBIN WORD;
       72     1027    1   DCL REQD UBIN WORD;
       73     1028    1   DCL CTL$ PTR;
       74     1029    1   DCL REC$ PTR;
       75     1030    1   DCL REPEATS UBIN WORD;
       76     1031    1   DCL WRECL UBIN WORD;
       77     1032    1   DCL I UBIN WORD;
       78     1033    1   DCL IR REDEF I SBIN;
       79     1034    1   DCL URXLATE UBIN WORD;
       80     1035        %EJECT;
PL6.E3A0      #001=FOG$GRAN File=FOG$GRAN.:E05TSI                                TUE 07/29/97 17:08 Page:15
       81     1036        /**/
       82     1037        /*F* NAME:         FOG$GRAN
       83     1038             PURPOSE:      To initialize a granule page for insertion of
       84     1039                           records.
       85     1040             DESCRIPTION:  FO$GPARM.BUF$ points to a 1024-word buffer,
       86     1041                           which is initialized for use by FOG$ADD.*/
       87     1042        /**/
       88     1043
       89     1044    1         CALL SETUP;

   1044  0 000002   000012 701000 0                  TSX1    SETUP
         0 000003   000000 011000                    NOP     0

       90     1045    1         RETURN;

   1045  0 000004   000000 702200 xent               TSX2  ! X66_ARET

       91     1046
       92     1047        /**/
       93     1048        /*F* NAME:         FOG$BLD
       94     1049             PURPOSE:      To enter the first record into a granule.
       95     1050             DESCRIPTION:  The granule is initialized as by FOG$GRAN,
       96     1051                           and then the first record is added, as by
       97     1052                           FOG$ADD. */
       98     1053        /**/
       99     1054    1   FOG$BLD: ENTRY (FO$GPARM) ALTRET;

   1054  0 000005   000000 700200 xent  FOG$BLD      TSX0  ! X66_AUTO_1
         0 000006   000022 000001                    ZERO    18,1

      100     1055        /**/
      101     1056
      102     1057    1         CALL SETUP;

   1057  0 000007   000012 701000 0                  TSX1    SETUP
         0 000010   000000 011000                    NOP     0

PL6.E3A0      #001=FOG$GRAN File=FOG$GRAN.:E05TSI                                TUE 07/29/97 17:08 Page:16
      103     1058    1         GOTO ADD0;

   1058  0 000011   000054 710000 0                  TRA     ADD0

      104     1059
      105     1060    1   SETUP: PROC;

   1060  0 000012   200020 741300       SETUP        STX1  ! URXLATE+2,,AUTO

      106     1061    2         GRAN$=FO$GPARM.BUF$;

   1061  0 000013   200003 470500                    LDP0    @FO$GPARM,,AUTO
         0 000014   000000 236100                    LDQ     0,,PR0
         0 000015   200004 756100                    STQ     GRAN$,,AUTO

      107     1062    2         GRAN$->B$PAGE='0'B;

   1062  0 000016   200004 471500                    LDP1    GRAN$,,AUTO
         0 000017   010000 220003                    LDX0    4096,DU
         0 000020   000140 100400                    MLR     fill='000'O
         0 000021   000002 000001 xsym               ADSC9   B_VECTNIL+2              cn=0,n=1
         0 000022   100000 000010                    ADSC9   0,,PR1                   cn=0,n=*X0

      108     1063    2         GRAN$->FM$GRAN.NAVX=LENGTHW(FM$GRAN);

   1063  0 000023   000005 221003                    LDX1    5,DU
         0 000024   100001 741100                    STX1    1,,PR1

      109     1064    2         GRAN$->FM$GRAN.AVAIL=1024-LENGTHW(FM$GRAN);

   1064  0 000025   100001 236100                    LDQ     1,,PR1
         0 000026   000000 376000 1                  ANQ     0
         0 000027   001773 276007                    ORQ     1019,DL
         0 000030   100001 756100                    STQ     1,,PR1

      110     1065    2         GRAN$->FM$GRAN.KEYCNT = 0;

PL6.E3A0      #001=FOG$GRAN File=FOG$GRAN.:E05TSI                                TUE 07/29/97 17:08 Page:17
   1065  0 000031   000000 236003                    LDQ     0,DU
         0 000032   100002 552104                    STBQ    2,'04'O,PR1

      111     1066    2         RETURN;

   1066  0 000033   200020 221300                    LDX1  ! URXLATE+2,,AUTO
         0 000034   000001 702211                    TSX2  ! 1,X1

      112     1067    2   END SETUP;
      113     1068
      114     1069        /**/
      115     1070        /*F* NAME:         FOG$BLDUR
      116     1071             PURPOSE:      To add enter the first record of a granule, with
      117     1072                           UR translation.
      118     1073             DESCRIPTION:  Like FOG$BLD, but UR-xlates the record. */
      119     1074        /**/
      120     1075    1   FOG$BLDUR: ENTRY (FO$GPARM) ALTRET;

   1075  0 000035   000000 700200 xent  FOG$BLDUR    TSX0  ! X66_AUTO_1
         0 000036   000022 000001                    ZERO    18,1

      121     1076        /**/
      122     1077
      123     1078    1         CALL SETUP;

   1078  0 000037   000012 701000 0                  TSX1    SETUP
         0 000040   000000 011000                    NOP     0

      124     1079    1         GOTO ADD01;

   1079  0 000041   000056 710000 0                  TRA     ADD01

      125     1080
      126     1081        /**/
      127     1082        /*F* NAME:         FOG$BLDURUC
      128     1083             PURPOSE:      To enter the first record of a granule, with
      129     1084                           UR upper case translation.
PL6.E3A0      #001=FOG$GRAN File=FOG$GRAN.:E05TSI                                TUE 07/29/97 17:08 Page:18
      130     1085             DESCRIPTION:  Like FOG$BLD, but UR-xlates (upper case only) the
      131     1086                           record. */
      132     1087        /**/
      133     1088    1   FOG$BLDURUC: ENTRY (FO$GPARM) ALTRET;

   1088  0 000042   000000 700200 xent  FOG$BLDURUC  TSX0  ! X66_AUTO_1
         0 000043   000022 000001                    ZERO    18,1

      134     1089    1         CALL SETUP;

   1089  0 000044   000012 701000 0                  TSX1    SETUP
         0 000045   000000 011000                    NOP     0

      135     1090    1         GOTO ADD02;

   1090  0 000046   000061 710000 0                  TRA     ADD02

      136     1091
      137     1092        /**/
      138     1093        /**/
      139     1094        /*F* NAME:         FOG$ADD
      140     1095             PURPOSE:      To add a record to a granule
      141     1096             DESCRIPTION:  FO$GPARM.BUF$ points to the granule buffer.
      142     1097                           FO$GPARM.REC$ points to the record to be added,
      143     1098                                         which must be word aligned.
      144     1099                           FO$GPARM.RECL is the character length of the
      145     1100                                         buffer pointed to by REC$
      146     1101                           FO$GPARM.VFC  is the vfc character to use; if
      147     1102                                         zero, the vfc is already in the
      148     1103                                         record, or perhaps not present.
      149     1104                           FO$GPARM.DVBYTE is the DVBYTE to stick in the
      150     1105                                           record control word.
      151     1106                           FO$GPARM.REPEATS is the number of times the record
      152     1107                                            is to be repeated (implemented
      153     1108                                            by repeating the control word).
      154     1109
      155     1110                           FO$GPARM is defined in FOO_MAC_C.
PL6.E3A0      #001=FOG$GRAN File=FOG$GRAN.:E05TSI                                TUE 07/29/97 17:08 Page:19
      156     1111
      157     1112                           The routine ALTRETs if the granule being built
      158     1113                           has insufficient space to accommodate the
      159     1114                           record. */
      160     1115        /**/
      161     1116    1   FOG$ADD: ENTRY (FO$GPARM) ALTRET;

   1116  0 000047   000000 700200 xent  FOG$ADD      TSX0  ! X66_AUTO_1
         0 000050   000022 000001                    ZERO    18,1

      162     1117
      163     1118    1         GRAN$=FO$GPARM.BUF$;

   1118  0 000051   200003 470500                    LDP0    @FO$GPARM,,AUTO
         0 000052   000000 236100                    LDQ     0,,PR0
         0 000053   200004 756100                    STQ     GRAN$,,AUTO

   1118  0 000054                       ADD0         null
      164     1119    1   ADD0: ;
      165     1120    1         URXLATE=0;

   1120  0 000054   200016 450100                    STZ     URXLATE,,AUTO

      166     1121    1         GOTO ADD03;

   1121  0 000055   000063 710000 0                  TRA     ADD03

   1120  0 000056                       ADD01        null
      167     1122    1   ADD01:;
      168     1123    1         URXLATE=1;

   1123  0 000056   000001 235007                    LDA     1,DL
         0 000057   200016 755100                    STA     URXLATE,,AUTO

      169     1124    1         GOTO ADD03;

   1124  0 000060   000063 710000 0                  TRA     ADD03
PL6.E3A0      #001=FOG$GRAN File=FOG$GRAN.:E05TSI                                TUE 07/29/97 17:08 Page:20

   1123  0 000061                       ADD02        null
      170     1125    1   ADD02:;
      171     1126    1         URXLATE=2;

   1126  0 000061   000002 235007                    LDA     2,DL
         0 000062   200016 755100                    STA     URXLATE,,AUTO

   1126  0 000063                       ADD03        null
      172     1127    1   ADD03:;
      173     1128    1         RECL=FO$GPARM.RECL;

   1128  0 000063   200003 470500                    LDP0    @FO$GPARM,,AUTO
         0 000064   000002 236100                    LDQ     2,,PR0
         0 000065   000011 772000                    QRL     9
         0 000066   000777 376007                    ANQ     511,DL
         0 000067   200005 756100                    STQ     RECL,,AUTO

      174     1129    1         IF FO$GPARM.VFCR ~= '0'B THEN RECL=RECL+1;

   1129  0 000070   000002 236100                    LDQ     2,,PR0
         0 000071   777000 316003                    CANQ    -512,DU
         0 000072   000076 600000 0                  TZE     s:1130

   1129  0 000073   200005 235100                    LDA     RECL,,AUTO
         0 000074   000001 035007                    ADLA    1,DL
         0 000075   200005 755100                    STA     RECL,,AUTO

      175     1130    1         REPEATS=FO$GPARM.REPEATS;

   1130  0 000076   000002 236100                    LDQ     2,,PR0
         0 000077   000777 376007                    ANQ     511,DL
         0 000100   200013 756100                    STQ     REPEATS,,AUTO

      176     1131    1         IF REPEATS = 0 THEN REPEATS=1;

   1131  0 000101   000104 601000 0                  TNZ     s:1132
PL6.E3A0      #001=FOG$GRAN File=FOG$GRAN.:E05TSI                                TUE 07/29/97 17:08 Page:21

   1131  0 000102   000001 235007                    LDA     1,DL
         0 000103   200013 755100                    STA     REPEATS,,AUTO

      177     1132    1         WRECL=(RECL+3)/4;

   1132  0 000104   200005 236100                    LDQ     RECL,,AUTO
         0 000105   000003 036007                    ADLQ    3,DL
         0 000106   000002 772000                    QRL     2
         0 000107   200014 756100                    STQ     WRECL,,AUTO

      178     1133    1         NAVX=GRAN$->FM$GRAN.NAVX;

   1133  0 000110   200004 471500                    LDP1    GRAN$,,AUTO
         0 000111   100001 236100                    LDQ     1,,PR1
         0 000112   000022 772000                    QRL     18
         0 000113   200006 756100                    STQ     NAVX,,AUTO

      179     1134    1         AVAIL=GRAN$->FM$GRAN.AVAIL;

   1134  0 000114   100001 236100                    LDQ     1,,PR1
         0 000115   001777 376007                    ANQ     1023,DL
         0 000116   200007 756100                    STQ     AVAIL,,AUTO

      180     1135    1         IF WRECL+REPEATS > AVAIL THEN ALTRETURN;

   1135  0 000117   200014 236100                    LDQ     WRECL,,AUTO
         0 000120   200013 036100                    ADLQ    REPEATS,,AUTO
         0 000121   200007 116100                    CMPQ    AVAIL,,AUTO
         0 000122   000125 602000 0                  TNC     s:1136
         0 000123   000125 600000 0                  TZE     s:1136

   1135  0 000124   000000 702200 xent               TSX2  ! X66_AALT

      181     1136    1         CTL$=PINCRW(GRAN$,NAVX+AVAIL-1);

   1136  0 000125   200006 236100                    LDQ     NAVX,,AUTO
PL6.E3A0      #001=FOG$GRAN File=FOG$GRAN.:E05TSI                                TUE 07/29/97 17:08 Page:22
         0 000126   200007 036100                    ADLQ    AVAIL,,AUTO
         0 000127   000022 736000                    QLS     18
         0 000130   000001 136003                    SBLQ    1,DU
         0 000131   200004 036100                    ADLQ    GRAN$,,AUTO
         0 000132   200011 756100                    STQ     CTL$,,AUTO

      182     1137    1         AVAIL=AVAIL-WRECL-REPEATS;

   1137  0 000133   200007 236100                    LDQ     AVAIL,,AUTO
         0 000134   200014 136100                    SBLQ    WRECL,,AUTO
         0 000135   200013 136100                    SBLQ    REPEATS,,AUTO
         0 000136   200007 756100                    STQ     AVAIL,,AUTO

      183     1138    1         GRAN$->FM$GRAN.AVAIL=AVAIL;

   1138  0 000137   100001 676100                    ERQ     1,,PR1
         0 000140   001777 376007                    ANQ     1023,DL
         0 000141   100001 656100                    ERSQ    1,,PR1

      184     1139    1         CTL$->FM$CON='0'B;

   1139  0 000142   200011 473500                    LDP3    CTL$,,AUTO
         0 000143   300000 450100                    STZ     0,,PR3

      185     1140    1         CTL$->FM$CON.FAK=1;

   1140  0 000144   400000 236003                    LDQ     -131072,DU
         0 000145   300000 256100                    ORSQ    0,,PR3

      186     1141    1         CTL$->FM$CON.GACTB=RECL;

   1141  0 000146   200005 236100                    LDQ     RECL,,AUTO
         0 000147   300000 752103                    STCQ    0,'03'O,PR3

      187     1142    1         CTL$->FM$CON.GX=NAVX;

   1142  0 000150   200006 236100                    LDQ     NAVX,,AUTO
PL6.E3A0      #001=FOG$GRAN File=FOG$GRAN.:E05TSI                                TUE 07/29/97 17:08 Page:23
         0 000151   000014 736000                    QLS     12
         0 000152   300000 676100                    ERQ     0,,PR3
         0 000153   000001 376000 1                  ANQ     1
         0 000154   300000 656100                    ERSQ    0,,PR3

      188     1143    1         CTL$->FM$CON.CTL=FO$GPARM.DVBYTE;

   1143  0 000155   000002 236100                    LDQ     2,,PR0
         0 000156   000005 736000                    QLS     5
         0 000157   300000 676100                    ERQ     0,,PR3
         0 000160   037700 376003                    ANQ     16320,DU
         0 000161   300000 656100                    ERSQ    0,,PR3

      189     1144    2           DO IR /* I */ = 1 TO REPEATS-1;

   1144  0 000162   000001 235007                    LDA     1,DL
         0 000163   200015 755100                    STA     I,,AUTO
         0 000164   000174 710000 0                  TRA     s:1146+1

      190     1145    2           PINCRW(CTL$,-I)->FM$CON=CTL$->FM$CON;

   1145  0 000165   200015 720100                    LXL0    I,,AUTO
         0 000166   777777 620010                    EAX0    -1,X0
         0 000167   777777 660003                    ERX0    -1,DU
         0 000170   200011 470500                    LDP0    CTL$,,AUTO
         0 000171   000000 236100                    LDQ     0,,PR0
         0 000172   000000 756110                    STQ     0,X0,PR0

      191     1146    2           END;

   1146  0 000173   200015 054100                    AOS     I,,AUTO
         0 000174   200015 236100                    LDQ     I,,AUTO
         0 000175   000165 604000 0                  TMI     s:1145
         0 000176   200013 116100                    CMPQ    REPEATS,,AUTO
         0 000177   000165 602000 0                  TNC     s:1145

      192     1147    1         IF FO$GPARM.VFCR = '0'B THEN
PL6.E3A0      #001=FOG$GRAN File=FOG$GRAN.:E05TSI                                TUE 07/29/97 17:08 Page:24

   1147  0 000200   200003 470500                    LDP0    @FO$GPARM,,AUTO
         0 000201   000002 236100                    LDQ     2,,PR0
         0 000202   777000 316003                    CANQ    -512,DU
         0 000203   000252 601000 0                  TNZ     s:1166

      193     1148    2           DO CASE (URXLATE);

   1148  0 000204   200016 235100                    LDA     URXLATE,,AUTO
         0 000205   000003 115007                    CMPA    3,DL
         0 000206   000210 602005 0                  TNC     s:1148+4,AL
         0 000207   000321 710000 0                  TRA     s:1186
         0 000210   000213 710000 0                  TRA     s:1151
         0 000211   000224 710000 0                  TRA     s:1155
         0 000212   000237 710000 0                  TRA     s:1160

      194     1149                                                     /**/
      195     1150    2             CASE (0);                /* FOG$BLD */

      196     1151    2               PINCRW (GRAN$,NAVX) -> B$CHARS

   1151  0 000213   000001 471500                    LDP1    1,,PR0
         0 000214   200006 235100                    LDA     NAVX,,AUTO
         0 000215   000002 735000                    ALS     2
         0 000216   200005 720100                    LXL0    RECL,,AUTO
         0 000217   200004 473500                    LDP3    GRAN$,,AUTO
         0 000220   040145 100540                    MLR     fill='040'O
         0 000221   100000 000010                    ADSC9   0,,PR1                   cn=0,n=*X0
         0 000222   300000 000010                    ADSC9   0,A,PR3                  cn=0,n=*X0
         0 000223   000321 710000 0                  TRA     s:1186

      197     1152    2               = FO$GPARM.REC$ -> B$CHARS;
      198     1153                                                     /**/
      199     1154    2             CASE (1);                /* FOG$BLDUR */

      200     1155    2               CALL XLATE (PINCRW(GRAN$,NAVX) -> B$CHARS,

PL6.E3A0      #001=FOG$GRAN File=FOG$GRAN.:E05TSI                                TUE 07/29/97 17:08 Page:25
   1155  0 000224   000001 471500                    LDP1    1,,PR0
         0 000225   200006 235100                    LDA     NAVX,,AUTO
         0 000226   000002 735000                    ALS     2
         0 000227   200005 720100                    LXL0    RECL,,AUTO
         0 000230   000000 473400 xsym               LDP3    B$XL_UR$
         0 000231   200004 474500                    LDP4    GRAN$,,AUTO
         0 000232   040145 160540                    MVT     fill='040'O
         0 000233   100000 000010                    ADSC9   0,,PR1                   cn=0,n=*X0
         0 000234   400000 000010                    ADSC9   0,A,PR4                  cn=0,n=*X0
         0 000235   300000 000100                    ARG     0,,PR3
         0 000236   000321 710000 0                  TRA     s:1186

      201     1156    2               B$XL_UR,
      202     1157    2               FO$GPARM.REC$ -> B$CHARS);
      203     1158                                                     /**/
      204     1159    2             CASE (2);                /* FOG$BLDURUC */

      205     1160    2               CALL XLATE (PINCRW(GRAN$,NAVX) -> B$CHARS,

   1160  0 000237   000001 471500                    LDP1    1,,PR0
         0 000240   200006 235100                    LDA     NAVX,,AUTO
         0 000241   000002 735000                    ALS     2
         0 000242   200005 720100                    LXL0    RECL,,AUTO
         0 000243   000000 473400 xsym               LDP3    B$XL_UPPER_UR$
         0 000244   200004 474500                    LDP4    GRAN$,,AUTO
         0 000245   040145 160540                    MVT     fill='040'O
         0 000246   100000 000010                    ADSC9   0,,PR1                   cn=0,n=*X0
         0 000247   400000 000010                    ADSC9   0,A,PR4                  cn=0,n=*X0
         0 000250   300000 000100                    ARG     0,,PR3

      206     1161    2               B$XL_UPPER_UR,
      207     1162    2               FO$GPARM.REC$ -> B$CHARS);
      208     1163    2           END;

   1163  0 000251   000321 710000 0                  TRA     s:1186

      209     1164    1         ELSE
PL6.E3A0      #001=FOG$GRAN File=FOG$GRAN.:E05TSI                                TUE 07/29/97 17:08 Page:26
      210     1165    2           DO;

      211     1166    2           REC$=PINCRW(GRAN$,NAVX);

   1166  0 000252   200006 236100                    LDQ     NAVX,,AUTO
         0 000253   000022 736000                    QLS     18
         0 000254   200004 036100                    ADLQ    GRAN$,,AUTO
         0 000255   200012 756100                    STQ     REC$,,AUTO

      212     1167    2           REC$->B$BYTE=FO$GPARM.VFC;

   1167  0 000256   200012 471500                    LDP1    REC$,,AUTO
         0 000257   040100 100500                    MLR     fill='040'O
         0 000260   000002 000001                    ADSC9   2,,PR0                   cn=0,n=1
         0 000261   100000 000001                    ADSC9   0,,PR1                   cn=0,n=1

      213     1168    2           RECL=RECL-1;

   1168  0 000262   200005 235100                    LDA     RECL,,AUTO
         0 000263   000001 135007                    SBLA    1,DL
         0 000264   200005 755100                    STA     RECL,,AUTO

      214     1169    3             DO CASE (URXLATE);

   1169  0 000265   200016 235100                    LDA     URXLATE,,AUTO
         0 000266   000003 115007                    CMPA    3,DL
         0 000267   000271 602005 0                  TNC     s:1169+4,AL
         0 000270   000321 710000 0                  TRA     s:1186
         0 000271   000274 710000 0                  TRA     s:1172
         0 000272   000302 710000 0                  TRA     s:1176
         0 000273   000312 710000 0                  TRA     s:1181

      215     1170                                                     /**/
      216     1171    3               CASE (0);                /* FOG$BLD */

      217     1172    3                 PINCRC (REC$,1) -> B$CHARS

PL6.E3A0      #001=FOG$GRAN File=FOG$GRAN.:E05TSI                                TUE 07/29/97 17:08 Page:27
   1172  0 000274   000001 473500                    LDP3    1,,PR0
         0 000275   200005 720100                    LXL0    RECL,,AUTO
         0 000276   040140 100540                    MLR     fill='040'O
         0 000277   300000 000010                    ADSC9   0,,PR3                   cn=0,n=*X0
         0 000300   100000 200010                    ADSC9   0,,PR1                   cn=1,n=*X0
         0 000301   000321 710000 0                  TRA     s:1186

      218     1173    3                 = FO$GPARM.REC$ -> B$CHARS;
      219     1174                                                     /**/
      220     1175    3               CASE (1);                /* FOG$BLDUR */

      221     1176    3                 CALL XLATE (PINCRC (REC$,1) -> B$CHARS,

   1176  0 000302   000001 473500                    LDP3    1,,PR0
         0 000303   200005 720100                    LXL0    RECL,,AUTO
         0 000304   000000 474400 xsym               LDP4    B$XL_UR$
         0 000305   040140 160540                    MVT     fill='040'O
         0 000306   300000 000010                    ADSC9   0,,PR3                   cn=0,n=*X0
         0 000307   100000 200010                    ADSC9   0,,PR1                   cn=1,n=*X0
         0 000310   400000 000100                    ARG     0,,PR4
         0 000311   000321 710000 0                  TRA     s:1186

      222     1177    3                 B$XL_UR,
      223     1178    3                 FO$GPARM.REC$ -> B$CHARS);
      224     1179                                                     /**/
      225     1180    3               CASE (2);                /* FOG$BLDURUC */

      226     1181    3                 CALL XLATE (PINCRC (REC$,1) -> B$CHARS,

   1181  0 000312   000001 473500                    LDP3    1,,PR0
         0 000313   200005 720100                    LXL0    RECL,,AUTO
         0 000314   000000 474400 xsym               LDP4    B$XL_UPPER_UR$
         0 000315   040140 160540                    MVT     fill='040'O
         0 000316   300000 000010                    ADSC9   0,,PR3                   cn=0,n=*X0
         0 000317   100000 200010                    ADSC9   0,,PR1                   cn=1,n=*X0
         0 000320   400000 000100                    ARG     0,,PR4

PL6.E3A0      #001=FOG$GRAN File=FOG$GRAN.:E05TSI                                TUE 07/29/97 17:08 Page:28
      227     1182    3                 B$XL_UPPER_UR,
      228     1183    3                 FO$GPARM.REC$ -> B$CHARS);
      229     1184    3             END;

      230     1185    2           END;

      231     1186    1         NAVX=NAVX+WRECL;

   1186  0 000321   200006 236100                    LDQ     NAVX,,AUTO
         0 000322   200014 036100                    ADLQ    WRECL,,AUTO
         0 000323   200006 756100                    STQ     NAVX,,AUTO

      232     1187    1         GRAN$->FM$GRAN.NAVX=NAVX;

   1187  0 000324   000000 620006                    EAX0    0,QL
         0 000325   200004 471500                    LDP1    GRAN$,,AUTO
         0 000326   100001 740100                    STX0    1,,PR1

      233     1188    1         RETURN;

   1188  0 000327   000000 702200 xent               TSX2  ! X66_ARET

(unnamed)
 Sect OctLoc
   1     000   777777 776000   000017 770000                                    ........
      234     1189    1   END FOG$GRAN;

PL6.E3A0      #001=FOG$GRAN File=FOG$GRAN.:E05TSI                                TUE 07/29/97 17:08 Page:29
--  Include file information  --

   B$TABLES_C.:E05TOU  cannot be made into a system file and is referenced.
   FOO_MAC_C.:E05TOU  is referenced.
   FM$GRAN.:E05TOU  is referenced.
      No diagnostics issued in procedure FOG$GRAN.
PL6.E3A0      #001=FOG$GRAN File=FOG$GRAN.:E05TSI                                TUE 07/29/97 17:08 Page:30

 **** Variables and constants ****

  ****  Auto variables  ****

  ****  Scalars and arrays  ****
OctLoc.c.b A Datatyp(siz) R M Lvl/name                 OctLoc.c.b A Datatyp(siz) R M Lvl/name

     3-0-0/w PTR         r     1 @FO$GPARM                  7-0-0/w UBIN        r     1 AVAIL
    11-0-0/w PTR         r     1 CTL$                      *0-0-0/w STRC(108)   r     1 FO$GPARM
     4-0-0/w PTR         r     1 GRAN$                     15-0-0/w UBIN        r     1 I
    15-0-0/w SBIN        r     1 IR                         6-0-0/w UBIN        r     1 NAVX
    12-0-0/w PTR         r     1 REC$                       5-0-0/w UBIN        r     1 RECL
    13-0-0/w UBIN        r     1 REPEATS                   16-0-0/w UBIN        r     1 URXLATE
    14-0-0/w UBIN        r     1 WRECL

  ****  SYMREF variables  ****

  ****  Scalars and arrays  ****
OctLoc.c.b A Datatyp(siz) R M Lvl/name                 OctLoc.c.b A Datatyp(siz) R M Lvl/name

     0-0-0/w PTR         r     1 B$XL_UPPER_UR$             0-0-0/w PTR         r     1 B$XL_UR$

  ****  BASED and DCB variables  ****

  ****  Scalars and arrays  ****
OctLoc.c.b A Datatyp(siz) R M Lvl/name                 OctLoc.c.b A Datatyp(siz) R M Lvl/name

     0-0-0/c CHAR        r     1 B$BYTE                     0-0-0/w ACHR        r     1 B$CHARS
     0-0-0/w STRC(36864) r     1 B$PAGE                     0-0-0/d STRC(4608)  r     1 B$XL_UPPER_UR
     0-0-0/d STRC(4608)  r     1 B$XL_UR                    0-0-0/w STRC        r     1 FM$CON
     0-0-0/w STRC(180)   r     1 FM$GRAN


   Procedure FOG$GRAN requires 216 words for executable code.
   Procedure FOG$GRAN requires 18 words of local(AUTO) storage.
PL6.E3A0      #001=FOG$GRAN File=FOG$GRAN.:E05TSI                                TUE 07/29/97 17:08 Page:31

    No errors detected in file FOG$GRAN.:E05TSI    .
PL6.E3A0      #001=FOG$GRAN File=FOG$GRAN.:E05TSI                                TUE 07/29/97 17:08 Page:32
          *** CROSS REFERENCE LISTING ***
**     DENOTES     IDENTIFIER DEFINITION
<<                 IDENTIFIER'S VALUE SET
>>                 IDENTIFIER'S VALUE USED
<>                 IDENTIFIER SET AND/OR USED
--                 IDENTIFIER REFERENCED
PL6.E3A0      #001=FOG$GRAN File=FOG$GRAN.:E05TSI                                TUE 07/29/97 17:08 Page:33
          MINI XREF LISTING

ADD0
      1118**LABEL    1058--GOTO
ADD01
      1120**LABEL    1079--GOTO
ADD02
      1123**LABEL    1090--GOTO
ADD03
      1126**LABEL    1121--GOTO     1124--GOTO
AVAIL
      1026**DCL      1134<<ASSIGN   1135>>IF       1136>>ASSIGN   1137<<ASSIGN   1137>>ASSIGN   1138>>ASSIGN
B$BYTE
      1016**DCL      1167<<ASSIGN
B$CHARS
      1015**DCL      1151<<ASSIGN   1151>>ASSIGN   1155<<CALLBLT  1155>>CALLBLT  1160<<CALLBLT  1160>>CALLBLT
      1172<<ASSIGN   1172>>ASSIGN   1176<<CALLBLT  1176>>CALLBLT  1181<<CALLBLT  1181>>CALLBLT
B$PAGE
      1013**DCL      1062<<ASSIGN
B$XL_UPPER_UR
      1003**DCL      1160>>CALLBLT  1181>>CALLBLT
B$XL_UPPER_UR$
      1002**DCL      1003--IMP-PTR  1160>>CALLBLT  1181>>CALLBLT
B$XL_UR
       999**DCL      1155>>CALLBLT  1176>>CALLBLT
B$XL_UR$
       998**DCL       999--IMP-PTR  1155>>CALLBLT  1176>>CALLBLT
CTL$
      1028**DCL      1136<<ASSIGN   1139>>ASSIGN   1140>>ASSIGN   1141>>ASSIGN   1142>>ASSIGN   1143>>ASSIGN
      1145>>ASSIGN   1145>>ASSIGN
FM$CON
      1010**DCL      1139<<ASSIGN   1145<<ASSIGN   1145>>ASSIGN
FM$CON.CTL
      1010**DCL      1143<<ASSIGN
PL6.E3A0      #001=FOG$GRAN File=FOG$GRAN.:E05TSI                                TUE 07/29/97 17:08 Page:34
FM$CON.FAK
      1010**DCL      1140<<ASSIGN
FM$CON.GACTB
      1010**DCL      1141<<ASSIGN
FM$CON.GX
      1010**DCL      1142<<ASSIGN
FM$GRAN
      1006**DCL      1063--ASSIGN   1064--ASSIGN
FM$GRAN.AVAIL
      1007**DCL      1064<<ASSIGN   1134>>ASSIGN   1138<<ASSIGN
FM$GRAN.KEYCNT
      1007**DCL      1065<<ASSIGN
FM$GRAN.NAVX
      1006**DCL      1063<<ASSIGN   1133>>ASSIGN   1187<<ASSIGN
FO$GPARM
       982**DCL        30--PROC     1054--ENTRY    1075--ENTRY    1088--ENTRY    1116--ENTRY
FO$GPARM.BUF$
       983**DCL      1061>>ASSIGN   1118>>ASSIGN
FO$GPARM.DVBYTE
       987**DCL      1143>>ASSIGN
FO$GPARM.REC$
       984**DCL      1151>>ASSIGN   1155>>CALLBLT  1160>>CALLBLT  1172>>ASSIGN   1176>>CALLBLT  1181>>CALLBLT
FO$GPARM.RECL
       988**DCL      1128>>ASSIGN
FO$GPARM.REPEATS
       989**DCL      1130>>ASSIGN
FO$GPARM.VFC
       985**DCL       986--REDEF    1167>>ASSIGN
FO$GPARM.VFCR
       986**DCL      1129>>IF       1147>>IF
GRAN$
      1023**DCL      1061<<ASSIGN   1062>>ASSIGN   1063>>ASSIGN   1064>>ASSIGN   1065>>ASSIGN   1118<<ASSIGN
      1133>>ASSIGN   1134>>ASSIGN   1136>>ASSIGN   1138>>ASSIGN   1151>>ASSIGN   1155>>CALLBLT  1160>>CALLBLT
      1166>>ASSIGN   1187>>ASSIGN
I
      1032**DCL      1033--REDEF    1145>>ASSIGN
PL6.E3A0      #001=FOG$GRAN File=FOG$GRAN.:E05TSI                                TUE 07/29/97 17:08 Page:35
IR
      1033**DCL      1144<<DOINDEX
NAVX
      1025**DCL      1133<<ASSIGN   1136>>ASSIGN   1142>>ASSIGN   1151>>ASSIGN   1155>>CALLBLT  1160>>CALLBLT
      1166>>ASSIGN   1186<<ASSIGN   1186>>ASSIGN   1187>>ASSIGN
REC$
      1029**DCL      1166<<ASSIGN   1167>>ASSIGN   1172>>ASSIGN   1176>>CALLBLT  1181>>CALLBLT
RECL
      1024**DCL      1015--IMP-SIZ  1128<<ASSIGN   1129<<ASSIGN   1129>>ASSIGN   1132>>ASSIGN   1141>>ASSIGN
      1151>>ASSIGN   1151>>ASSIGN   1155>>CALLBLT  1155>>CALLBLT  1160>>CALLBLT  1160>>CALLBLT  1168<<ASSIGN
      1168>>ASSIGN   1172>>ASSIGN   1172>>ASSIGN   1176>>CALLBLT  1176>>CALLBLT  1181>>CALLBLT  1181>>CALLBLT
REPEATS
      1030**DCL      1130<<ASSIGN   1131>>IF       1131<<ASSIGN   1135>>IF       1137>>ASSIGN   1144>>DOINDEX
SETUP
      1060**PROC     1044--CALL     1057--CALL     1078--CALL     1089--CALL
URXLATE
      1034**DCL      1120<<ASSIGN   1123<<ASSIGN   1126<<ASSIGN   1148>>DOCASE   1169>>DOCASE
WRECL
      1031**DCL      1132<<ASSIGN   1135>>IF       1137>>ASSIGN   1186>>ASSIGN
