PL6.E3A0      #004=FOM$DISKEA File=FOM$MOOS.:E05TSI                              TUE 07/29/97 17:09 Page:159
     1197        1        /*T***********************************************************/
     1198        2        /*T*                                                         */
     1199        3        /*T* Copyright (c) Bull HN Information Systems Inc., 1997    */
     1200        4        /*T*                                                         */
     1201        5        /*T***********************************************************/
     1202        6        /**/
     1203        7        /**/
     1204        8        FOM$DISKEA: PROC (N$REQ);
     1205        9        /**/
     1206       10        /**/
     1207       11        /*F* NAME:         FOM$DISKEA
     1208       12             PURPOSE:      To propagate MOOS after a disk read
     1209       13             DESCRIPTION:
     1210       14                           First, if the disk read did not succeed, the
     1211       15                           symbiont's state is set to HELD and OUTSYM
     1212       16                           is told, and we exit.
     1213       17                           Otherwise, the pointers for the current disk
     1214       18                           extent are adjusted, and OUTSYM is asked
     1215       19                           for another extent if we need one.
     1216       20                           Finally, the granule just read is dispatched
     1217       21                           to its destination.                     */
     1218       22        /**/
     1219       23        /*  INCLUDES */
     1220       24        /**/
     1221       25        %INCLUDE FOM$STRUCT;
     1222       86        %INCLUDE FS_SUPER_C;
     1223      849        %INCLUDE KV$VDO;
     1224     1864        %INCLUDE N$REQ;
     1225     1938        %INCLUDE NK$LDCT;
     1226     2040        %INCLUDE NI_DATA_C ;
     1227     2153        %INCLUDE N_FC_C;
     1228     2190        %INCLUDE FOM_SUBS_C;
     1229     2253        %INCLUDE KC_SUBS_C;
     1230     2269        %INCLUDE FOM_DATA_R;
     1231     2518        %INCLUDE FM$GRAN;
     1232     2587        %INCLUDE NK_LDCT_R;
     1233     2596        %INCLUDE NK_VFC_C;
PL6.E3A0      #004=FOM$DISKEA File=FOM$MOOS.:E05TSI                              TUE 07/29/97 17:09 Page:160
     1234     2670        %INCLUDE CP_6_SUBS;
     1235     3210        %INCLUDE FOO_MAC_C;
     1236     3958        %INCLUDE UM$CP6V_C;
     1237     4145        %INCLUDE KC_CP6;
     1238     4705        %INCLUDE K_DATA_R;
     1239     5416
     1240     5417
     1241     5418        /**/
     1242     5419        /* PARAMETERS */
     1243     5420        /**/
     1244     5421        %N$REQ (STCLASS="");
     1245     5479
     1246     5480
     1247     5481        /**/
     1248     5482        /* BASED STRUCTURES */
     1249     5483        /**/
     1250     5484        %FOM$SYMB (NAME=FO$SYMB);
     1251     5516        %FS$SVFU (NAME=FS$SOFT_VFU,STCLASS=BASED);
     1252     5536        %NK$LDCT;
     1253     5582        %FOM$TABS;
     1254     5585        %FM$GRAN;
     1255     5589        %NK$VFC;
     1256     5607        %FM$CON;
     1257     5611    1   DCL B$TABS CHAR(RECL) BASED CALIGNED;
     1258     5612    1   DCL B$BYTE UBIN BYTE BASED CALIGNED;
     1259     5613    1   DCL B$REC CHAR(RECL) BASED CALIGNED;
     1260     5614        %VLP$SYMBWRITE_V (FPTN=VLP$WRITE);
     1261     5617        %FOM$SBUF;
     1262     5621
     1263     5622
     1264     5623        /**/
     1265     5624        /* AUTO */
     1266     5625        /**/
     1267     5626    1   DCL SYMB$ PTR;
     1268     5627    1   DCL RECL UBIN WORD;
     1269     5628    1   DCL DOIOQ UBIN WORD;
     1270     5629    1   DCL VFCFCN UBIN WORD ;
PL6.E3A0      #004=FOM$DISKEA File=FOM$MOOS.:E05TSI                              TUE 07/29/97 17:09 Page:161
     1271     5630    1   DCL RECLEN UBIN WORD ;
     1272     5631    1   DCL REC$ PTR;
     1273     5632    1   DCL TAB$ PTR;
     1274     5633    1   DCL LDCT$ PTR;
     1275     5634    1   DCL OP$ PTR;
     1276     5635    1   DCL GRAN$ PTR;
     1277     5636    1   DCL REC# SBIN WORD;
     1278     5637    1   DCL RECX SBIN WORD;
     1279     5638    1   DCL NAVX SBIN WORD;
     1280     5639    1   DCL AVAIL SBIN WORD;
     1281     5640    1   DCL RCT UBIN WORD;
     1282     5641    1   DCL 1 RCTR REDEF RCT,
     1283     5642    1         2 TOP UBIN(28) UNAL,
     1284     5643    1         2 BOTTOM UBIN(8) UNAL;
     1285     5644    1   DCL J UBIN WORD;
     1286     5645    1   DCL RCTZERO BIT (1);
     1287     5646    1   DCL I UBIN WORD;
     1288     5647    1   DCL CTL$ PTR;
     1289     5648        %FO_GPARM (FPTN=FO_GPARM,STCLASS=AUTO);
     1290     5670
     1291     5671
     1292     5672        /**/
     1293     5673        /* CONSTANT */
     1294     5674        /**/
     1295     5675        %NK$VFC (NAME=TABVFC,STCLASS=CONSTANT,IFCN=%VFCF_SPC,ICOUNT=%VFCS_OTAB);
     1296     5693        %NK$VFC (NAME=TOFVFC,STCLASS=CONSTANT,IFCN=%VFCF_HDR,ICOUNT=1);
     1297     5711    1   DCL BLANKS CHAR(3) CONSTANT ALIGNED INIT(' ');
     1298     5712
     1299     5713
     1300     5714        /**/
     1301     5715        /*  REFS */
     1302     5716        /**/
     1303     5717    1   DCL B$PS4$ PTR SYMREF;
     1304     5718    1   DCL FOG$ADD            ENTRY(1) ALTRET;
     1305     5719    1   DCL FOG$BLD            ENTRY(1) ALTRET;
     1306     5720    1   DCL FOG$GRAN           ENTRY(1) ALTRET;
     1307     5721    1   DCL FOM$DEVEA          ENTRY(1);
PL6.E3A0      #004=FOM$DISKEA File=FOM$MOOS.:E05TSI                              TUE 07/29/97 17:09 Page:162
     1308     5722    1   DCL FOM$EVENT          ENTRY(3) ALTRET;
     1309     5723    1   DCL FOM$SNXDISK        ENTRY(1) ALTRET;
     1310     5724    1   DCL FOM$TELLAU         ENTRY(3) ALTRET;
     1311     5725    1   DCL FOM$TIMR           ENTRY(1);
     1312     5726    1   DCL HFF$NILERASE       ENTRY(1) ALTRET;
     1313     5727    1   DCL FOM$DEBLOCK        ENTRY(1);
     1314     5728    1   DCL NIO$QUE            ENTRY(1) ALTRET;
     1315     5729    1   DCL SSC$MONTIMR        ENTRY(3);
     1316     5730
     1317     5731
     1318     5732        /**/
     1319     5733        /* SUBS */
     1320     5734        /**/
     1321     5735        %EQU_CG;
     1322     5783        %SUB FOREVER="WHILE ('1'B)";
     1323     5784        /**/
     1324     5785        /**/
     1325     5786
     1326     5787                                /* EA INFO IS SYMB CONTEXT BLK POINTER */
     1327     5788    1         SYMB$=N$REQ.EAINFOP$;
     1328     5789    1         GRAN$=N$REQ.BUF$;
     1329     5790    1         NAVX=GRAN$->FM$GRAN.NAVX;
     1330     5791    1         AVAIL=GRAN$->FM$GRAN.AVAIL;
     1331     5792    1         DOIOQ=0;
     1332     5793    1         TAB$=SYMB$->FO$SYMB.TAB$;
     1333     5794    1         LDCT$=NK$LDCT$(SYMB$->FO$SYMB.DEVLDCTX);
     1334     5795
     1335     5796                                /* CHECK THE TYC */
     1336     5797
     1337     5798                                      /* Did disk read succeed? */
     1338     5799    1         IF N$REQ.TYC&'377777777777'O THEN
     1339     5800                                /* BAD TYC */
     1340     5801    2           DO;
     1341     5802    2           GRAN$->FO$SBUF.FERR.CODE=FOME_DSKERR#;
     1342     5803    2   DKERR:  ;
     1343     5804    2           GRAN$->FO$SBUF.FERR.BLK#=SYMB$->FO$SYMB.BR.BLK#;
     1344     5805    2           GRAN$->FO$SBUF.FERR.STAMP=GRAN$->FM$GRAN.STAMP;
PL6.E3A0      #004=FOM$DISKEA File=FOM$MOOS.:E05TSI                              TUE 07/29/97 17:09 Page:163
     1345     5806    2           CALL FOM$EVENT (SYMB$->FO$SYMB,FOSE_HLTR,FOHR_FERR#);
     1346     5807    2           RETURN;
     1347     5808    2           END;
     1348     5809
     1349     5810                                /* TYC IS AOK */
     1350     5811
     1351     5812    1         IF SYMB$->FO$SYMB.CUREXT.STAMP~=GRAN$->FM$GRAN.STAMP THEN
     1352     5813    2           DO;
     1353     5814    2           GRAN$->FO$SBUF.FERR.CODE=FOME_STAMP#;
     1354     5815    2           GRAN$->FO$SBUF.FERR.EXPSTAMP=SYMB$->FO$SYMB.CUREXT.STAMP;
     1355     5816    2           GOTO DKERR;
     1356     5817    2           END;
     1357     5818                                      /* Is record index into granule + remaining
     1358     5819                                         space in granule > 1024 (page)? */
     1359     5820    1         IF NAVX+AVAIL > 1024 THEN
     1360     5821    2           DO;
     1361     5822    2           GRAN$->FO$SBUF.FERR.CODE=FOME_GRNFMT#;
     1362     5823    2           GRAN$->FO$SBUF.FERR.NAVX=NAVX;
     1363     5824    2           GRAN$->FO$SBUF.FERR.AVAIL=AVAIL;
     1364     5825    2           GOTO DKERR;
     1365     5826    2           END;
     1366     5827        %EJECT;
PL6.E3A0      #004=FOM$DISKEA File=FOM$MOOS.:E05TSI                              TUE 07/29/97 17:09 Page:164
     1367     5828                                                     /**/
     1368     5829    1         IF SYMB$->FO$SYMB.XMVFU = '1'B
     1369     5830    1         THEN
     1370     5831    2           DO;
     1371     5832    2           REC$ = PINCRW (GRAN$, PINCRW (GRAN$,1023) -> FM$CON.GX);
     1372     5833    2           FO_GPARM.BUF$ = GRAN$;
     1373     5834    2           FO_GPARM.REC$ = PINCRC (REC$, 1);
     1374     5835    2           FO_GPARM.VFC = %VFC_VFU;
     1375     5836    2           FO_GPARM.REPEATS = 1;
     1376     5837    2           FO_GPARM.RECL = LENGTHC (FS$SOFT_VFU);
     1377     5838    2           FO_GPARM.DVBYTE = %DVBYTE_VFC# | %DVBYTE_TRANS#;
     1378     5839    2           CALL FOG$BLD (FO_GPARM);
     1379     5840                                                     /**/
     1380     5841    2           SYMB$ -> FO$SYMB.RCTZERO = '1'B;
     1381     5842    2           GOTO DISPATCH;
     1382     5843    2           END;
     1383     5844                                                     /**/
     1384     5845                                /* IF XMITTING TABS AFTER A SPACING OPERATION,
     1385     5846                                   THEN BUILD A GRANULE WITH THE TABS ONLY,
     1386     5847                                   AND SEND IT OFF.  THE XMTABS FLAG WILL
     1387     5848                                   CAUSE FOM$NXDISK TO NOT UPDATE BLKREC. */
     1388     5849    1         IF (NOT SYMB$->FO$SYMB.SPACING) AND SYMB$->FO$SYMB.XMTABS THEN
     1389     5850    2           DO;
     1390     5851                                      /* GRAN$ = N$REC.BUF */
     1391     5852    2           FO_GPARM.BUF$=GRAN$;
     1392     5853    2           FO_GPARM.REC$=ADDR(TAB$->FO$TABS.TABS);
     1393     5854    2           FO_GPARM.VFCR=TABVFC;
     1394     5855    2           FO_GPARM.REPEATS=1;
     1395     5856    2           FO_GPARM.RECL=LENGTHC(FO$TABS.TABS);
     1396     5857    2           FO_GPARM.DVBYTE=%DVBYTE_VFC#|%DVBYTE_TRANS#;
     1397     5858    2           CALL FOG$BLD (FO_GPARM);
     1398     5859                                /* DISPATCH WITHOUT UPDATING EXTENT INFO.
     1399     5860                                   THUS WE'LL READ THE CURRENT GRAN AGAIN
     1400     5861                                   AFTER SENDING THIS ONE. */
     1401     5862    2           SYMB$->FO$SYMB.RCTZERO='1'B;
     1402     5863    2           GOTO DISPATCH;
     1403     5864    2           END;
PL6.E3A0      #004=FOM$DISKEA File=FOM$MOOS.:E05TSI                              TUE 07/29/97 17:09 Page:165
     1404     5865                                /* IF NOT XMITTING TABS, SET THE RECORD
     1405     5866                                   NUMBER OF THE FIRST REC TO BE PRINTED
     1406     5867                                   IN THIS GRAN, FROM FO$SYMB.BR.REC# */
     1407     5868    1         ELSE RCT=SYMB$->FO$SYMB.BR.REC#;
     1408     5869                                /* ADJUST EXTENT POINTERS */
     1409     5870
     1410     5871    1         SYMB$->FO$SYMB.CUREXT.NGRAN=SYMB$->FO$SYMB.CUREXT.NGRAN-1;
     1411     5872    1         IF SYMB$->FO$SYMB.CUREXT.NGRAN~=0 THEN
     1412     5873    2           DO;
     1413     5874    2           IF SYMB$->FO$SYMB.SPACING AND SYMB$->FO$SYMB.SPACEPAGES<0 THEN
     1414     5875    2            SYMB$->FO$SYMB.CUREXT.DAD=SYMB$->FO$SYMB.CUREXT.DAD-1;
     1415     5876    2           ELSE
     1416     5877                                      /* Advance disk address */
     1417     5878    2            SYMB$->FO$SYMB.CUREXT.DAD=SYMB$->FO$SYMB.CUREXT.DAD+1;
     1418     5879    2           END;
     1419     5880    1         ELSE
     1420     5881    2           DO;
     1421     5882                                /* PICK UP NEXT EXTENT & ASK FOR MORE */
     1422     5883    2           SYMB$->FO$SYMB.CUREXT=SYMB$->FO$SYMB.NXTEXT;
     1423     5884    2           SYMB$->FO$SYMB.NXTEXT='0'B;
     1424     5885    2           IF SYMB$->FO$SYMB.CUREXT.NGRAN~=0 OR SYMB$->FO$SYMB.CUREXT.DAD=0 THEN
     1425     5886    2            CALL FOM$TELLAU (SYMB$->FO$SYMB,%CG_SFEXT#,0);
     1426     5887    2           END;
     1427     5888    1         IF NAVX+AVAIL = 1024 THEN GOTO NXTGRAN;
     1428     5889
     1429     5890        %EJECT;
PL6.E3A0      #004=FOM$DISKEA File=FOM$MOOS.:E05TSI                              TUE 07/29/97 17:09 Page:166
     1430     5891        /*
     1431     5892           A note about spacing:
     1432     5893             Get an extent and read the first granule into the scratch granule
     1433     5894             (i.e. the one OUTSYM gives to MOOS on the open of each file).
     1434     5895             When the read completes, enter FOM$DISKEA.  Here, if we are
     1435     5896             spacing from BOF, send the VFU image (always the first record in
     1436     5897             in a symbiont file) to the device and await device endaction.
     1437     5898             Upon device endaction, we requeue the granule and end up in
     1438     5899             FOM$DISKEA.  Now we begin spacing until we locate the page/record
     1439     5900             for which we are searching.  If the current granule is exausted
     1440     5901             and we have not yet reached our goal, we issue a call to
     1441     5902             FOM$SNXDISK.  This routine changes the symbiont context block
     1442     5903             state to "disk granule done", updates the file relative disk
     1443     5904             address pointers to the next granule in the current extent, sets
     1444     5905             the state to "DKIO", and gives control to the I/O system in order
     1445     5906             to read the next granule.  On disk endaction we again end up in
     1446     5907             FOM$DISKEA and continue spacing.  Upon being called, FOM$SNXDISK
     1447     5908             determines whether or not we are out of granules in the current
     1448     5909             extent, and if we are it replaces the current extent with the
     1449     5910             queued next extent, requests a new extent from OUTSYM, sets the
     1450     5911             state to "DKIO", and gives control to the I/O system in order
     1451     5912             to read the first granule of the new current extent.
     1452     5913
     1453     5914             When we get disk endaction in order to continue printing a
     1454     5915             spaced/suspended file, we check if tabs were encountered during
     1455     5916             the spacing operation.  If they were, write the tabs and await
     1456     5917             device endaction.  Upon device endaction we enter FOM$DEVEA,
     1457     5918             change the state to "symbiont write done", make sure that we
     1458     5919             don't update the BLK#=REC#, and call FOM$NXDISK which in this
     1459     5920             case requeues this granule for actual printing.
     1460     5921
     1461     5922             It is important to note that devices are never aware that there
     1462     5923             is a spacing operation in progress.  Only MOOS and OUTSYM are
     1463     5924             aware of it.
     1464     5925        */
     1465     5926        %EJECT;
PL6.E3A0      #004=FOM$DISKEA File=FOM$MOOS.:E05TSI                              TUE 07/29/97 17:09 Page:167
     1466     5927        /**
     1467     5928         **
     1468     5929         **      SPACING (REMOTE OR LOCAL)
     1469     5930         **
     1470     5931         **/
     1471     5932    1         IF SYMB$->FO$SYMB.SPACING THEN
     1472     5933    2           DO;
     1473     5934    2           REC#=SYMB$->FO$SYMB.BR.REC#;
     1474     5935    2           IF SYMB$->FO$SYMB.SPACEPAGES>0 THEN
     1475     5936    3   SFWD:     DO FOREVER;
     1476     5937                                      /* Set record number at beginning of page */
     1477     5938    3             IF REC#=0 THEN REC#=1;
     1478     5939    3             RECX=1024-REC#;
     1479     5940                                      /* Is record index in the current extent? */
     1480     5941    3             IF RECX < NAVX+AVAIL THEN
     1481     5942    4               DO;
     1482     5943                                      /* SPACETYPE = 1 means block spacing */
     1483     5944    4               IF SYMB$->FO$SYMB.SPACETYPE = 1 THEN
     1484     5945    5                 DO;
     1485     5946    5                 SYMB$->FO$SYMB.SPACEBLKS=SYMB$->FO$SYMB.SPACEBLKS-1;
     1486     5947    5                 IF SYMB$->FO$SYMB.SPACEBLKS = 0 THEN GOTO GOTPAGE;
     1487     5948    5                 END;
     1488     5949    4               GOTO NXTGRAN;
     1489     5950    4               END;
     1490     5951                                      /* Here - record index is not in the current
     1491     5952                                         extent */
     1492     5953    3             REC$=PINCRW(GRAN$,PINCRW(GRAN$,RECX)->FM$CON.GX);
     1493     5954    3             VFCFCN=REC$->NK$VFC.FCN;
     1494     5955                                /* SAVE TABS AS WE FIND 'EM */
     1495     5956    3             IF VFCFCN=%VFCF_SPC AND REC$->NK$VFC.COUNT=%VFCS_OTAB THEN
     1496     5957    4               DO;
     1497     5958    4               TAB$->FO$TABS.TABSR='0'B;
     1498     5959    4               RECL=PINCRW(GRAN$,RECX)->FM$CON.GACTB;
     1499     5960    4               IF RECL > 1 THEN
     1500     5961    5                 DO;
     1501     5962                                      /* Remove tab character from length,
     1502     5963                                         and save tab character */
PL6.E3A0      #004=FOM$DISKEA File=FOM$MOOS.:E05TSI                              TUE 07/29/97 17:09 Page:168
     1503     5964    5                 RECL=RECL-1;
     1504     5965    5                 TAB$->FO$TABS.TABS=PINCRC(REC$,1)->B$TABS;
     1505     5966    5                 END;
     1506     5967    4               SYMB$->FO$SYMB.XMTABS='1'B;
     1507     5968    4               END;
     1508     5969                                      /* SPACETYPE = 0 means record spacing */
     1509     5970    3             IF SYMB$->FO$SYMB.SPACETYPE = 0 THEN
     1510     5971    4               DO;
     1511     5972    4               IF (NOT SYMB$->FO$SYMB.PAGES       /* Not paged output            */
     1512     5973    4               AND (SYMB$->FO$SYMB.CPVFC      /* Card Punch VFC              */
     1513     5974    4               OR VFCFCN >= %VFCF_SPB))  /* TOF VFC or SBP VFC          */
     1514     5975    4               OR (SYMB$->FO$SYMB.PAGES           /* Paged output                */
     1515     5976    4               AND NOT SYMB$->FO$SYMB.FIRSTSPACE /* Not 1st time thru code   */
     1516     5977    4               AND VFCFCN = %VFCF_HDR)        /* TOF VFC                     */
     1517     5978    4               THEN                               /* We're at new logical "PAGE" */
     1518     5979    5                 DO;
     1519     5980    5                 SYMB$->FO$SYMB.SPACEPAGES=SYMB$->FO$SYMB.SPACEPAGES-1;
     1520     5981    5                 IF SYMB$->FO$SYMB.SPACEPAGES=0 THEN GOTO GOTPAGE;
     1521     5982    5                 END;
     1522     5983    4               SYMB$->FO$SYMB.FIRSTSPACE='0'B;
     1523     5984    4               END;
     1524     5985    3             ELSE
     1525     5986    4               DO;
     1526     5987                                      /* Else, block spacing */
     1527     5988    4               IF  SYMB$->FO$SYMB.SPACEBLKS = 1
     1528     5989    4               AND SYMB$->FO$SYMB.SPACEREC# <= REC# THEN GOTO GOTPAGE;
     1529     5990    4               END;
     1530     5991    3             REC#=REC#+1;
     1531     5992                                      /* END space forward forever */
     1532     5993    3             END SFWD;
     1533     5994                                      /* Begin space backward forever */
     1534     5995    3   SBKWD:    DO FOREVER;
     1535     5996    3             RECX=1024-REC#;
     1536     5997    3             IF RECX < NAVX+AVAIL THEN
     1537     5998    4               DO;
     1538     5999    4               RECX=NAVX+AVAIL;
     1539     6000                                      /* Set record number to beginning of page */
PL6.E3A0      #004=FOM$DISKEA File=FOM$MOOS.:E05TSI                              TUE 07/29/97 17:09 Page:169
     1540     6001    4               REC#=1024-RECX;
     1541     6002    4               END;
     1542     6003    3             ELSE IF REC# = 0 THEN
     1543     6004    4                DO;
     1544     6005                                      /* SPACETYPE means block spacing */
     1545     6006    4                IF SYMB$->FO$SYMB.SPACETYPE = 1 THEN
     1546     6007    5                  DO;
     1547     6008                                      /* Add 1 to the number of blocks we
     1548     6009                                         must space backwards */
     1549     6010    5                  SYMB$->FO$SYMB.SPACEBLKS=SYMB$->FO$SYMB.SPACEBLKS+1;
     1550     6011    5                  IF SYMB$->FO$SYMB.SPACEBLKS = 0 THEN GOTO GOTPAGE;
     1551     6012    5                  END;
     1552     6013                                      /* We have spaced beyond the limits of
     1553     6014                                         this granule, get a new one */
     1554     6015    4                GOTO NXTGRAN;
     1555     6016    4                END;
     1556     6017    3             REC$=PINCRW(GRAN$,PINCRW(GRAN$,RECX)->FM$CON.GX);
     1557     6018                                      /* Get VFC character of this record */
     1558     6019    3             VFCFCN=REC$->NK$VFC.FCN;
     1559     6020                                /* SAVE PREVIOUS TABS IF WE FIND A SET
     1560     6021                                   TABS RECORD WHILE GOING BACKWARD */
     1561     6022    3             IF VFCFCN=%VFCF_SPC AND REC$->NK$VFC.COUNT=%VFCS_OTAB THEN
     1562     6023    4               DO;
     1563     6024    4               TAB$->FO$TABS.TABSR='0'B;
     1564     6025    4               RECL=PINCRW(GRAN$,RECX)->FM$CON.GACTB;
     1565     6026                                      /* TAB records are at least 33 bytes */
     1566     6027    4               IF RECL > 33 THEN
     1567     6028    5                 DO;
     1568     6029    5                 RECL=RECL-33;
     1569     6030    5                 TAB$->FO$TABS.TABS=PINCRC(REC$,33)->B$TABS;
     1570     6031    5                 END;
     1571     6032    4               SYMB$->FO$SYMB.XMTABS='1'B;
     1572     6033    4               END;
     1573     6034                                      /* SPACETYPE = 0 means record spacing */
     1574     6035    3             IF SYMB$->FO$SYMB.SPACETYPE = 0 THEN
     1575     6036    4               DO;
     1576     6037    4               IF (NOT SYMB$->FO$SYMB.PAGES       /* Not paged output            */
PL6.E3A0      #004=FOM$DISKEA File=FOM$MOOS.:E05TSI                              TUE 07/29/97 17:09 Page:170
     1577     6038    4               AND (SYMB$->FO$SYMB.CPVFC      /* Card Punch VFC              */
     1578     6039    4               OR VFCFCN >= %VFCF_SPB))  /* TOF VFC or SBP VFC          */
     1579     6040    4               OR (SYMB$->FO$SYMB.PAGES           /* Paged output                */
     1580     6041    4               AND NOT SYMB$->FO$SYMB.FIRSTSPACE /* Not 1st time thru code   */
     1581     6042    4               AND VFCFCN = %VFCF_HDR)        /* TOF VFC                     */
     1582     6043    4               THEN                               /* We're at new logical "PAGE" */
     1583     6044    5                 DO;
     1584     6045                                      /* ADD 1 to the number of pages we must
     1585     6046                                         space back */
     1586     6047    5                 SYMB$->FO$SYMB.SPACEPAGES=SYMB$->FO$SYMB.SPACEPAGES+1;
     1587     6048    5                 IF SYMB$->FO$SYMB.SPACEPAGES=0 THEN GOTO GOTPAGE;
     1588     6049    5                 END;
     1589     6050    4               SYMB$->FO$SYMB.FIRSTSPACE='0'B;
     1590     6051    4               END;
     1591     6052    3             ELSE
     1592     6053    4               DO;
     1593     6054    4               IF  SYMB$->FO$SYMB.SPACEBLKS = -1
     1594     6055    4               AND SYMB$->FO$SYMB.SPACEREC# >= REC# THEN GOTO GOTPAGE;
     1595     6056    4               END;
     1596     6057    3             REC#=REC#-1;
     1597     6058    3             END SBKWD;
     1598     6059    2   NXTGRAN:
     1599     6060    2           CALL FOM$SNXDISK (SYMB$->FO$SYMB);
     1600     6061    2           RETURN;
     1601     6062    2   GOTPAGE:
     1602     6063    2           SYMB$->FO$SYMB.BR.REC#=REC#;
     1603     6064    2           CALL FOM$EVENT (SYMB$->FO$SYMB,FOSE_FSPA);
     1604     6065    2           RETURN;
     1605     6066    2           END;
     1606     6067        %EJECT;
PL6.E3A0      #004=FOM$DISKEA File=FOM$MOOS.:E05TSI                              TUE 07/29/97 17:09 Page:171
     1607     6068    1   DISPATCH:;
     1608     6069        /**
     1609     6070         **
     1610     6071         **      REMOTE DEVICE
     1611     6072         **
     1612     6073         **/
     1613     6074    1         RCTZERO=SYMB$->FO$SYMB.RCTZERO;
     1614     6075    1         SYMB$->FO$SYMB.RCTZERO='0'B;
     1615     6076                                      /* FEX ~= 0 means remote */
     1616     6077    1         IF ~LDCT$->NK$LDCT.DFLG.LOCAL THEN
     1617     6078    2           DO;
     1618     6079                                      /* Do state check */
     1619     6080    2           CALL FOM$EVENT (SYMB$->FO$SYMB,FOSE_RDII) ALTRET(RTN);
     1620     6081
     1621     6082    2           CALL FOM$DEBLOCK (LDCT$->NK$LDCT);
     1622     6083                                      /* Do a state check */
     1623     6084    2   RTN:    RETURN;
     1624     6085    2           END;
     1625     6086        /**
     1626     6087         **
     1627     6088         **      LOCAL DEVICE
     1628     6089         **
     1629     6090         **/
     1630     6091    1         N$REQ.DLA.DCTX=LDCT$->NK$LDCT.RLCID.LDCTX; /* DEV DCTX */
     1631     6092    1         N$REQ.FC=%N_SYMB;
     1632     6093    1         N$REQ.COMP = %COMP_REG ;
     1633     6094    1         N$REQ.EAENTRY=ENTADDR(FOM$DEVEA);
     1634     6095    1         N$REQ.OPFLG=OP_EA|OP_HOLD|OP_BPF;
     1635     6096    1         CALL FOM$EVENT (SYMB$->FO$SYMB,FOSE_LDIO) ALTRET(RTN);
     1636     6097                                      /* Tab granule? */
     1637     6098    1         IF RCTZERO THEN N$REQ.RCT=0;
     1638     6099                                      /* Not a tab granule */
     1639     6100    1         ELSE N$REQ.RCT=RCT;
     1640     6101    1         N$REQ.EAINFOX=0;
     1641     6102    1         IF DOIOQ = 1 THEN CALL NIO$QUE (N$REQ);
     1642     6103    1         ELSE N$REQ.OPFLG.REQ='1'B;
     1643     6104    1         RETURN;
PL6.E3A0      #004=FOM$DISKEA File=FOM$MOOS.:E05TSI                              TUE 07/29/97 17:09 Page:172
     1644     6105        /**/
     1645     6106        /**/
     1646     6107
     1647     6108        /* CODE REMOVED IN M:MON PURGE CYCLE
     1648     6109        !FOM$DISKEAR: ENTRY (N$REQ);
     1649     6110        !:*F* NAME:         FOM$DISKEAR
     1650     6111        !     PURPOSE:      To retry queueing the next fep output request
     1651     6112        !                   after deferral.
     1652     6113        !     DESCRIPTION:
     1653     6114        !                   FOM$TIMR calls here if we had to defer sending
     1654     6115        !                   the just-read granule to FEP because the output
     1655     6116        !                   queue was full.  We simply re-enter the
     1656     6117        !                   appropriate part of FOM$DISKEA        *:
     1657     6118        !
     1658     6119        !      SYMB$=N$REQ.EAINFOP$;
     1659     6120        !      LDCT$=NK$LDCT$(SYMB$->FO$SYMB.DEVLDCTX);
     1660     6121        !      RCT=SYMB$->FO$SYMB.BR.REC#;
     1661     6122        !      GOTO DISPATCH;
     1662     6123        !
     1663     6124              END OF CODE REMOVED IN M:MON PURGE CYCLE */
     1664     6125        /**/
     1665     6126        /**/
     1666     6127    1   FOM$WRITE: ENTRY (N$REQ);
     1667     6128        /**/
     1668     6129        /*F* NAME:         FOM$WRITE
     1669     6130             PURPOSE:      To write a single record or granule to a
     1670     6131                           symbiont device.
     1671     6132             DESCRIPTION:  If RECORD_ in the FPT is NILERASE, then an
     1672     6133                           entire granule is being supplied, framed by
     1673     6134                           BUF_.  Otherwise, a record is to be built into
     1674     6135                           the symbiont buffer, and sent.  The description
     1675     6136                           of the record is a VLP_SYMBWRITE framed by
     1676     6137                           RECORD_.  After the write completes, OUTSYM
     1677     6138                           may receive a symbiont ack if he requested it,
     1678     6139                           or, if requested and the device is local, a
     1679     6140                           symbiont token (for remote devices, an ack
     1680     6141                           is generated when the FEP acks the write,
PL6.E3A0      #004=FOM$DISKEA File=FOM$MOOS.:E05TSI                              TUE 07/29/97 17:09 Page:173
     1681     6142                           whereas a token is generated after the data
     1682     6143                           is printed).  */
     1683     6144
     1684     6145    1         SYMB$=N$REQ.EAINFOP$;
     1685     6146    1         LDCT$=NK$LDCT$(SYMB$->FO$SYMB.DEVLDCTX);
     1686     6147    1         GRAN$=N$REQ.BUF$;
     1687     6148                                      /* Was there a single record passed?
     1688     6149                                         If not, write an entire granule */
     1689     6150    1         CALL HFF$NILERASE (4) ALTRET(GOWRITE);
     1690     6151    1         FO_GPARM.BUF$=GRAN$;
     1691     6152    1         CALL FOG$GRAN (FO_GPARM);
     1692     6153    1         FO_GPARM.DVBYTE=%DVBYTE_VFC#|%DVBYTE_BP#;
     1693     6154    1         IF B$PS4$->VLP$WRITE.TOF THEN
     1694     6155    2           DO;
     1695     6156    2           FO_GPARM.REPEATS=1;
     1696     6157    2           FO_GPARM.REC$=ADDR(BLANKS);
     1697     6158    2           FO_GPARM.VFCR=TOFVFC;
     1698     6159    2           FO_GPARM.RECL=3;
     1699     6160    2           CALL FOG$ADD (FO_GPARM);
     1700     6161    2           END;
     1701     6162    1         FO_GPARM.REPEATS=B$PS4$->VLP$WRITE.REPEATS;
     1702     6163    1         FO_GPARM.RECL   =B$PS4$->VLP$WRITE.RECL;
     1703     6164    1         FO_GPARM.REC$   =ADDR(B$PS4$->VLP$WRITE.REC);
     1704     6165    1         FO_GPARM.VFCR   ='0'B;
     1705     6166    1         CALL FOG$ADD (FO_GPARM);
     1706     6167    1   GOWRITE:;
     1707     6168    1         SYMB$->FO$SYMB.RCTZERO='1'B;
     1708     6169    1         DOIOQ=1;
     1709     6170    1         GOTO DISPATCH;
     1710     6171        /**/
     1711     6172        /**/
     1712     6173    1   END FOM$DISKEA;
     1713     6174        /**/
     1714     6175        /**/
     1715     6176        %EOD;

PL6.E3A0      #004=FOM$DISKEA File=FOM$MOOS.:E05TSI                              TUE 07/29/97 17:09 Page:174
--  Include file information  --

   K$RWPARM.:E05TOU  is referenced.
   K_DATA_R.:E05TOU  cannot be made into a system file and is referenced.
   KC_CP6.:E05TOU  is referenced.
   UM$CP6V_C.:E05TOU  is referenced.
   FOO_MAC_C.:E05TOU  is referenced.
   CP_6_SUBS.:E05TOU  is referenced.
   NK_VFC_C.:E05TOU  is referenced.
   NK_LDCT_R.:E05TOU  cannot be made into a system file and is referenced.
   FM$GRAN.:E05TOU  is referenced.
   FOM_DATA_R.:E05TOU  cannot be made into a system file and is referenced.
   KC_SUBS_C.:E05TOU  is referenced.
   FOM_SUBS_C.:E05TOU  is referenced.
   N_FC_C.:E05TOU  is referenced.
   NI_DATA_C.:E05TOU  is referenced.
   NK$LDCT.:E05TOU  is referenced.
   N$REQ.:E05TOU  is referenced.
   KV$VDO.:E05TOU  is referenced.
   FS_SUPER_C.:E05TOU  is referenced.
   FOM$STRUCT.:E05TOU  is referenced.
      No diagnostics issued in procedure FOM$DISKEA.

   Procedure FOM$DISKEA requires 517 words for executable code.
   Procedure FOM$DISKEA requires 30 words of local(AUTO) storage.

PL6.E3A0      #004=FOM$DISKEA File=FOM$MOOS.:E05TSI                              TUE 07/29/97 17:09 Page:175

 Object Unit name= FOM$DISKEA                                 File name= FOM$MOOS.:E05TOU
 UTS= JUL 29 '97 17:09:56.80 TUE                              Compiler= PL-6/E31         Sev=      00
 SharedLib= :SHARED_SYSTEM                                    Alt SharedLib=


    ****  Control sections  ****

 Sect   Type Bound  Init  Size OctSiz  Section name(segment info)
    0  RoData even  UTS      3      3  FOM$DISKEA
    1   Proc  even  none   517   1005  FOM$DISKEA
    2  RoData even  none    13     15  FOM$DISKEA

    ****  Entry defs  ****

                              Check   Calling
                             calling  sequence
  Sect OctLoc Primary Altret sequence   type   Parms  Name
     1      0   yes            yes      Std        1  FOM$DISKEA
     1    702                  yes      Std        1  FOM$WRITE
PL6.E3A0      #004=FOM$DISKEA File=FOM$MOOS.:E05TSI                              TUE 07/29/97 17:09 Page:176

  ****  Entry refs  ****

         Check        Calling
        calling       sequence
Altret sequence SRef   type   Args  Name
 yes     yes           Std       3 FOM$EVENT
 yes     yes           Std       1 NIO$QUE
 yes     yes           Std       1 FOG$BLD
 yes     yes           Std       3 FOM$TELLAU
 yes     yes           Std       1 FOM$SNXDISK
 yes     yes           Std       1 HFF$NILERASE
 yes     yes           Std       1 FOG$ADD
         yes           Std       1 FOM$DEBLOCK
 yes     yes           Std       1 FOG$GRAN
         yes           Std       1 FOM$DEVEA
                       Std       0 B_CONSPOOL_D
                       nStd      0 X66_AUTO_1
                       nStd      0 X66_ARET

  ****  Data refs  ****

  Flags:  r = read only, s = secondary
Flgs Name                             Flgs Name                             Flgs Name
r    FOSE_LDIO                        r    FOSE_RDII                        r    FOSE_HLTR
r    FOSE_FSPA                             N$DCT$$                               B$PS4$
     B_VECTNIL

  ****  Segment refs  ****

  Flags:  r = read only, s = secondary
Flgs Name                             Flgs Name                             Flgs Name
     ISSID
PL6.E3A0      #004=FOM$DISKEA File=FOM$MOOS.:E05TSI                              TUE 07/29/97 17:09 Page:177


     1197        1        /*T***********************************************************/
     1198        2        /*T*                                                         */
     1199        3        /*T* Copyright (c) Bull HN Information Systems Inc., 1997    */
     1200        4        /*T*                                                         */
     1201        5        /*T***********************************************************/
     1202        6        /**/
     1203        7        /**/
     1204        8        FOM$DISKEA: PROC (N$REQ);

      8  1 000000   000000 700200 xent  FOM$DISKEA   TSX0  ! X66_AUTO_1
         1 000001   000036 000001                    ZERO    30,1

     1205        9        /**/
     1206       10        /**/
     1207       11        /*F* NAME:         FOM$DISKEA
     1208       12             PURPOSE:      To propagate MOOS after a disk read
     1209       13             DESCRIPTION:
     1210       14                           First, if the disk read did not succeed, the
     1211       15                           symbiont's state is set to HELD and OUTSYM
     1212       16                           is told, and we exit.
     1213       17                           Otherwise, the pointers for the current disk
     1214       18                           extent are adjusted, and OUTSYM is asked
     1215       19                           for another extent if we need one.
     1216       20                           Finally, the granule just read is dispatched
     1217       21                           to its destination.                     */
     1218       22        /**/
     1219       23        /*  INCLUDES */
     1220       24        /**/
     1221       25        %INCLUDE FOM$STRUCT;
     1222       86        %INCLUDE FS_SUPER_C;
     1223      849        %INCLUDE KV$VDO;
     1224     1864        %INCLUDE N$REQ;
     1225     1938        %INCLUDE NK$LDCT;
     1226     2040        %INCLUDE NI_DATA_C ;
     1227     2153        %INCLUDE N_FC_C;
     1228     2190        %INCLUDE FOM_SUBS_C;
PL6.E3A0      #004=FOM$DISKEA File=FOM$MOOS.:E05TSI                              TUE 07/29/97 17:09 Page:178
     1229     2253        %INCLUDE KC_SUBS_C;
     1230     2269        %INCLUDE FOM_DATA_R;
     1231     2518        %INCLUDE FM$GRAN;
     1232     2587        %INCLUDE NK_LDCT_R;
     1233     2596        %INCLUDE NK_VFC_C;
     1234     2670        %INCLUDE CP_6_SUBS;
     1235     3210        %INCLUDE FOO_MAC_C;
     1236     3958        %INCLUDE UM$CP6V_C;
     1237     4145        %INCLUDE KC_CP6;
     1238     4705        %INCLUDE K_DATA_R;
     1239     5416
     1240     5417
     1241     5418        /**/
     1242     5419        /* PARAMETERS */
     1243     5420        /**/
     1244     5421        %N$REQ (STCLASS="");
     1245     5479
     1246     5480
     1247     5481        /**/
     1248     5482        /* BASED STRUCTURES */
     1249     5483        /**/
     1250     5484        %FOM$SYMB (NAME=FO$SYMB);
     1251     5516        %FS$SVFU (NAME=FS$SOFT_VFU,STCLASS=BASED);
     1252     5536        %NK$LDCT;
     1253     5582        %FOM$TABS;
     1254     5585        %FM$GRAN;
     1255     5589        %NK$VFC;
     1256     5607        %FM$CON;
     1257     5611    1   DCL B$TABS CHAR(RECL) BASED CALIGNED;
     1258     5612    1   DCL B$BYTE UBIN BYTE BASED CALIGNED;
     1259     5613    1   DCL B$REC CHAR(RECL) BASED CALIGNED;
     1260     5614        %VLP$SYMBWRITE_V (FPTN=VLP$WRITE);
     1261     5617        %FOM$SBUF;
     1262     5621
     1263     5622
     1264     5623        /**/
     1265     5624        /* AUTO */
PL6.E3A0      #004=FOM$DISKEA File=FOM$MOOS.:E05TSI                              TUE 07/29/97 17:09 Page:179
     1266     5625        /**/
     1267     5626    1   DCL SYMB$ PTR;
     1268     5627    1   DCL RECL UBIN WORD;
     1269     5628    1   DCL DOIOQ UBIN WORD;
     1270     5629    1   DCL VFCFCN UBIN WORD ;
     1271     5630    1   DCL RECLEN UBIN WORD ;
     1272     5631    1   DCL REC$ PTR;
     1273     5632    1   DCL TAB$ PTR;
     1274     5633    1   DCL LDCT$ PTR;
     1275     5634    1   DCL OP$ PTR;
     1276     5635    1   DCL GRAN$ PTR;
     1277     5636    1   DCL REC# SBIN WORD;
     1278     5637    1   DCL RECX SBIN WORD;
     1279     5638    1   DCL NAVX SBIN WORD;
     1280     5639    1   DCL AVAIL SBIN WORD;
     1281     5640    1   DCL RCT UBIN WORD;
     1282     5641    1   DCL 1 RCTR REDEF RCT,
     1283     5642    1         2 TOP UBIN(28) UNAL,
     1284     5643    1         2 BOTTOM UBIN(8) UNAL;
     1285     5644    1   DCL J UBIN WORD;
     1286     5645    1   DCL RCTZERO BIT (1);
     1287     5646    1   DCL I UBIN WORD;
     1288     5647    1   DCL CTL$ PTR;
     1289     5648        %FO_GPARM (FPTN=FO_GPARM,STCLASS=AUTO);
     1290     5670
     1291     5671
     1292     5672        /**/
     1293     5673        /* CONSTANT */
     1294     5674        /**/
     1295     5675        %NK$VFC (NAME=TABVFC,STCLASS=CONSTANT,IFCN=%VFCF_SPC,ICOUNT=%VFCS_OTAB);
     1296     5693        %NK$VFC (NAME=TOFVFC,STCLASS=CONSTANT,IFCN=%VFCF_HDR,ICOUNT=1);
     1297     5711    1   DCL BLANKS CHAR(3) CONSTANT ALIGNED INIT(' ');
     1298     5712
     1299     5713
     1300     5714        /**/
     1301     5715        /*  REFS */
     1302     5716        /**/
PL6.E3A0      #004=FOM$DISKEA File=FOM$MOOS.:E05TSI                              TUE 07/29/97 17:09 Page:180
     1303     5717    1   DCL B$PS4$ PTR SYMREF;
     1304     5718    1   DCL FOG$ADD            ENTRY(1) ALTRET;
     1305     5719    1   DCL FOG$BLD            ENTRY(1) ALTRET;
     1306     5720    1   DCL FOG$GRAN           ENTRY(1) ALTRET;
     1307     5721    1   DCL FOM$DEVEA          ENTRY(1);
     1308     5722    1   DCL FOM$EVENT          ENTRY(3) ALTRET;
     1309     5723    1   DCL FOM$SNXDISK        ENTRY(1) ALTRET;
     1310     5724    1   DCL FOM$TELLAU         ENTRY(3) ALTRET;
     1311     5725    1   DCL FOM$TIMR           ENTRY(1);
     1312     5726    1   DCL HFF$NILERASE       ENTRY(1) ALTRET;
     1313     5727    1   DCL FOM$DEBLOCK        ENTRY(1);
     1314     5728    1   DCL NIO$QUE            ENTRY(1) ALTRET;
     1315     5729    1   DCL SSC$MONTIMR        ENTRY(3);
     1316     5730
     1317     5731
     1318     5732        /**/
     1319     5733        /* SUBS */
     1320     5734        /**/
     1321     5735        %EQU_CG;
     1322     5783        %SUB FOREVER="WHILE ('1'B)";
     1323     5784        /**/
     1324     5785        /**/
     1325     5786
     1326     5787                                /* EA INFO IS SYMB CONTEXT BLK POINTER */
     1327     5788    1         SYMB$=N$REQ.EAINFOP$;

   5788  1 000002   200003 470500                    LDP0    @N$REQ,,AUTO
         1 000003   000024 236100                    LDQ     20,,PR0
         1 000004   200004 756100                    STQ     SYMB$,,AUTO

     1328     5789    1         GRAN$=N$REQ.BUF$;

   5789  1 000005   000005 236100                    LDQ     5,,PR0
         1 000006   200015 756100                    STQ     GRAN$,,AUTO

     1329     5790    1         NAVX=GRAN$->FM$GRAN.NAVX;

PL6.E3A0      #004=FOM$DISKEA File=FOM$MOOS.:E05TSI                              TUE 07/29/97 17:09 Page:181
   5790  1 000007   200015 471500                    LDP1    GRAN$,,AUTO
         1 000010   100001 236100                    LDQ     1,,PR1
         1 000011   000022 772000                    QRL     18
         1 000012   200020 756100                    STQ     NAVX,,AUTO

     1330     5791    1         AVAIL=GRAN$->FM$GRAN.AVAIL;

   5791  1 000013   100001 236100                    LDQ     1,,PR1
         1 000014   001777 376007                    ANQ     1023,DL
         1 000015   200021 756100                    STQ     AVAIL,,AUTO

     1331     5792    1         DOIOQ=0;

   5792  1 000016   200006 450100                    STZ     DOIOQ,,AUTO

     1332     5793    1         TAB$=SYMB$->FO$SYMB.TAB$;

   5793  1 000017   200004 473500                    LDP3    SYMB$,,AUTO
         1 000020   300000 236100                    LDQ     0,,PR3
         1 000021   200012 756100                    STQ     TAB$,,AUTO

     1333     5794    1         LDCT$=NK$LDCT$(SYMB$->FO$SYMB.DEVLDCTX);

   5794  1 000022   300010 720100                    LXL0    8,,PR3
         1 000023   000000 474400 xsym               LDP4    N$DCT$$
         1 000024   400000 236110                    LDQ     0,X0,PR4
         1 000025   200013 756100                    STQ     LDCT$,,AUTO

     1334     5795
     1335     5796                                /* CHECK THE TYC */
     1336     5797
     1337     5798                                      /* Did disk read succeed? */
     1338     5799    1         IF N$REQ.TYC&'377777777777'O THEN

   5799  1 000026   000021 236100                    LDQ     17,,PR0
         1 000027   000031 376000 xsym               ANQ     B_VECTNIL+25
         1 000030   000054 600000 1                  TZE     s:5812
PL6.E3A0      #004=FOM$DISKEA File=FOM$MOOS.:E05TSI                              TUE 07/29/97 17:09 Page:182

     1339     5800                                /* BAD TYC */
     1340     5801    2           DO;

     1341     5802    2           GRAN$->FO$SBUF.FERR.CODE=FOME_DSKERR#;

   5802  1 000031   000002 235007                    LDA     2,DL
         1 000032   100010 755100                    STA     8,,PR1

   5802  1 000033                       DKERR        null
     1342     5803    2   DKERR:  ;
     1343     5804    2           GRAN$->FO$SBUF.FERR.BLK#=SYMB$->FO$SYMB.BR.BLK#;

   5804  1 000033   200004 470500                    LDP0    SYMB$,,AUTO
         1 000034   000003 236100                    LDQ     3,,PR0
         1 000035   000022 772000                    QRL     18
         1 000036   200015 471500                    LDP1    GRAN$,,AUTO
         1 000037   100012 756100                    STQ     10,,PR1

     1344     5805    2           GRAN$->FO$SBUF.FERR.STAMP=GRAN$->FM$GRAN.STAMP;

   5805  1 000040   100000 236100                    LDQ     0,,PR1
         1 000041   100014 756100                    STQ     12,,PR1

     1345     5806    2           CALL FOM$EVENT (SYMB$->FO$SYMB,FOSE_HLTR,FOHR_FERR#);

   5806  1 000042   000000 236000 2                  LDQ     0
         1 000043   200034 756100                    STQ     FO_GPARM+5,,AUTO
         1 000044   000001 236000 2                  LDQ     1
         1 000045   200004 235100                    LDA     SYMB$,,AUTO
         1 000046   200032 757100                    STAQ    FO_GPARM+3,,AUTO
         1 000047   200032 630500                    EPPR0   FO_GPARM+3,,AUTO
         1 000050   000021 631400 xsym               EPPR1   B_VECTNIL+17
         1 000051   000000 701000 xent               TSX1    FOM$EVENT
         1 000052   000000 011000                    NOP     0

     1346     5807    2           RETURN;
PL6.E3A0      #004=FOM$DISKEA File=FOM$MOOS.:E05TSI                              TUE 07/29/97 17:09 Page:183

   5807  1 000053   000000 702200 xent               TSX2  ! X66_ARET

     1347     5808    2           END;
     1348     5809
     1349     5810                                /* TYC IS AOK */
     1350     5811
     1351     5812    1         IF SYMB$->FO$SYMB.CUREXT.STAMP~=GRAN$->FM$GRAN.STAMP THEN

   5812  1 000054   300005 236100                    LDQ     5,,PR3
         1 000055   100000 116100                    CMPQ    0,,PR1
         1 000056   000063 600000 1                  TZE     s:5820

     1352     5813    2           DO;

     1353     5814    2           GRAN$->FO$SBUF.FERR.CODE=FOME_STAMP#;

   5814  1 000057   100010 450100                    STZ     8,,PR1

     1354     5815    2           GRAN$->FO$SBUF.FERR.EXPSTAMP=SYMB$->FO$SYMB.CUREXT.STAMP;

   5815  1 000060   300005 236100                    LDQ     5,,PR3
         1 000061   100011 756100                    STQ     9,,PR1

     1355     5816    2           GOTO DKERR;

   5816  1 000062   000033 710000 1                  TRA     DKERR

     1356     5817    2           END;
     1357     5818                                      /* Is record index into granule + remaining
     1358     5819                                         space in granule > 1024 (page)? */
     1359     5820    1         IF NAVX+AVAIL > 1024 THEN

   5820  1 000063   200020 236100                    LDQ     NAVX,,AUTO
         1 000064   200021 036100                    ADLQ    AVAIL,,AUTO
         1 000065   002000 116007                    CMPQ    1024,DL
         1 000066   000076 604400 1                  TMOZ    s:5829
PL6.E3A0      #004=FOM$DISKEA File=FOM$MOOS.:E05TSI                              TUE 07/29/97 17:09 Page:184

     1360     5821    2           DO;

     1361     5822    2           GRAN$->FO$SBUF.FERR.CODE=FOME_GRNFMT#;

   5822  1 000067   000003 235007                    LDA     3,DL
         1 000070   100010 755100                    STA     8,,PR1

     1362     5823    2           GRAN$->FO$SBUF.FERR.NAVX=NAVX;

   5823  1 000071   200020 720100                    LXL0    NAVX,,AUTO
         1 000072   100013 740100                    STX0    11,,PR1

     1363     5824    2           GRAN$->FO$SBUF.FERR.AVAIL=AVAIL;

   5824  1 000073   200021 721100                    LXL1    AVAIL,,AUTO
         1 000074   100013 441100                    SXL1    11,,PR1

     1364     5825    2           GOTO DKERR;

   5825  1 000075   000033 710000 1                  TRA     DKERR

     1365     5826    2           END;
     1366     5827        %EJECT;
PL6.E3A0      #004=FOM$DISKEA File=FOM$MOOS.:E05TSI                              TUE 07/29/97 17:09 Page:185
     1367     5828                                                     /**/
     1368     5829    1         IF SYMB$->FO$SYMB.XMVFU = '1'B

   5829  1 000076   300012 236100                    LDQ     10,,PR3
         1 000077   000020 316007                    CANQ    16,DL
         1 000100   000136 600000 1                  TZE     s:5849

     1369     5830    1         THEN
     1370     5831    2           DO;

     1371     5832    2           REC$ = PINCRW (GRAN$, PINCRW (GRAN$,1023) -> FM$CON.GX);

   5832  1 000101   101777 236100                    LDQ     1023,,PR1
         1 000102   000014 772000                    QRL     12
         1 000103   001777 376007                    ANQ     1023,DL
         1 000104   000022 736000                    QLS     18
         1 000105   200015 036100                    ADLQ    GRAN$,,AUTO
         1 000106   200011 756100                    STQ     REC$,,AUTO

     1372     5833    2           FO_GPARM.BUF$ = GRAN$;

   5833  1 000107   200015 236100                    LDQ     GRAN$,,AUTO
         1 000110   200027 756100                    STQ     FO_GPARM,,AUTO

     1373     5834    2           FO_GPARM.REC$ = PINCRC (REC$, 1);

   5834  1 000111   200011 236100                    LDQ     REC$,,AUTO
         1 000112   200000 036007                    ADLQ    65536,DL
         1 000113   200030 756100                    STQ     FO_GPARM+1,,AUTO

     1374     5835    2           FO_GPARM.VFC = %VFC_VFU;

   5835  1 000114   033000 236003                    LDQ     13824,DU
         1 000115   200031 552140                    STBQ    FO_GPARM+2,'40'O,AUTO

     1375     5836    2           FO_GPARM.REPEATS = 1;

PL6.E3A0      #004=FOM$DISKEA File=FOM$MOOS.:E05TSI                              TUE 07/29/97 17:09 Page:186
   5836  1 000116   000001 236007                    LDQ     1,DL
         1 000117   200031 552104                    STBQ    FO_GPARM+2,'04'O,AUTO

     1376     5837    2           FO_GPARM.RECL = LENGTHC (FS$SOFT_VFU);

   5837  1 000120   124000 236007                    LDQ     43008,DL
         1 000121   200031 552110                    STBQ    FO_GPARM+2,'10'O,AUTO

     1377     5838    2           FO_GPARM.DVBYTE = %DVBYTE_VFC# | %DVBYTE_TRANS#;

   5838  1 000122   000120 236003                    LDQ     80,DU
         1 000123   200031 552120                    STBQ    FO_GPARM+2,'20'O,AUTO

     1378     5839    2           CALL FOG$BLD (FO_GPARM);

   5839  1 000124   200027 635500                    EPPR5   FO_GPARM,,AUTO
         1 000125   200032 455500                    STP5    FO_GPARM+3,,AUTO
         1 000126   200032 630500                    EPPR0   FO_GPARM+3,,AUTO
         1 000127   000017 631400 xsym               EPPR1   B_VECTNIL+15
         1 000130   000000 701000 xent               TSX1    FOG$BLD
         1 000131   000000 011000                    NOP     0

     1379     5840                                                     /**/
     1380     5841    2           SYMB$ -> FO$SYMB.RCTZERO = '1'B;

   5841  1 000132   200004 470500                    LDP0    SYMB$,,AUTO
         1 000133   100000 236007                    LDQ     32768,DL
         1 000134   000012 256100                    ORSQ    10,,PR0

     1381     5842    2           GOTO DISPATCH;

   5842  1 000135   000577 710000 1                  TRA     DISPATCH

     1382     5843    2           END;
     1383     5844                                                     /**/
     1384     5845                                /* IF XMITTING TABS AFTER A SPACING OPERATION,
     1385     5846                                   THEN BUILD A GRANULE WITH THE TABS ONLY,
PL6.E3A0      #004=FOM$DISKEA File=FOM$MOOS.:E05TSI                              TUE 07/29/97 17:09 Page:187
     1386     5847                                   AND SEND IT OFF.  THE XMTABS FLAG WILL
     1387     5848                                   CAUSE FOM$NXDISK TO NOT UPDATE BLKREC. */
     1388     5849    1         IF (NOT SYMB$->FO$SYMB.SPACING) AND SYMB$->FO$SYMB.XMTABS THEN

   5849  1 000136   040000 316007                    CANQ    16384,DL
         1 000137   000171 601000 1                  TNZ     s:5868
         1 000140   000100 316007                    CANQ    64,DL
         1 000141   000171 600000 1                  TZE     s:5868

     1389     5850    2           DO;

     1390     5851                                      /* GRAN$ = N$REC.BUF */
     1391     5852    2           FO_GPARM.BUF$=GRAN$;

   5852  1 000142   200015 236100                    LDQ     GRAN$,,AUTO
         1 000143   200027 756100                    STQ     FO_GPARM,,AUTO

     1392     5853    2           FO_GPARM.REC$=ADDR(TAB$->FO$TABS.TABS);

   5853  1 000144   200012 236100                    LDQ     TAB$,,AUTO
         1 000145   000001 036003                    ADLQ    1,DU
         1 000146   200030 756100                    STQ     FO_GPARM+1,,AUTO

     1393     5854    2           FO_GPARM.VFCR=TABVFC;

   5854  1 000147   000000 236000 0                  LDQ     TABVFC
         1 000150   200031 552140                    STBQ    FO_GPARM+2,'40'O,AUTO

     1394     5855    2           FO_GPARM.REPEATS=1;

   5855  1 000151   000001 236007                    LDQ     1,DL
         1 000152   200031 552104                    STBQ    FO_GPARM+2,'04'O,AUTO

     1395     5856    2           FO_GPARM.RECL=LENGTHC(FO$TABS.TABS);

   5856  1 000153   040000 236007                    LDQ     16384,DL
         1 000154   200031 552110                    STBQ    FO_GPARM+2,'10'O,AUTO
PL6.E3A0      #004=FOM$DISKEA File=FOM$MOOS.:E05TSI                              TUE 07/29/97 17:09 Page:188

     1396     5857    2           FO_GPARM.DVBYTE=%DVBYTE_VFC#|%DVBYTE_TRANS#;

   5857  1 000155   000120 236003                    LDQ     80,DU
         1 000156   200031 552120                    STBQ    FO_GPARM+2,'20'O,AUTO

     1397     5858    2           CALL FOG$BLD (FO_GPARM);

   5858  1 000157   200027 635500                    EPPR5   FO_GPARM,,AUTO
         1 000160   200032 455500                    STP5    FO_GPARM+3,,AUTO
         1 000161   200032 630500                    EPPR0   FO_GPARM+3,,AUTO
         1 000162   000017 631400 xsym               EPPR1   B_VECTNIL+15
         1 000163   000000 701000 xent               TSX1    FOG$BLD
         1 000164   000000 011000                    NOP     0

     1398     5859                                /* DISPATCH WITHOUT UPDATING EXTENT INFO.
     1399     5860                                   THUS WE'LL READ THE CURRENT GRAN AGAIN
     1400     5861                                   AFTER SENDING THIS ONE. */
     1401     5862    2           SYMB$->FO$SYMB.RCTZERO='1'B;

   5862  1 000165   200004 470500                    LDP0    SYMB$,,AUTO
         1 000166   100000 236007                    LDQ     32768,DL
         1 000167   000012 256100                    ORSQ    10,,PR0

     1402     5863    2           GOTO DISPATCH;

   5863  1 000170   000577 710000 1                  TRA     DISPATCH

     1403     5864    2           END;
     1404     5865                                /* IF NOT XMITTING TABS, SET THE RECORD
     1405     5866                                   NUMBER OF THE FIRST REC TO BE PRINTED
     1406     5867                                   IN THIS GRAN, FROM FO$SYMB.BR.REC# */
     1407     5868    1         ELSE RCT=SYMB$->FO$SYMB.BR.REC#;

   5868  1 000171   300003 236100                    LDQ     3,,PR3
         1 000172   777777 376007                    ANQ     -1,DL
         1 000173   200022 756100                    STQ     RCT,,AUTO
PL6.E3A0      #004=FOM$DISKEA File=FOM$MOOS.:E05TSI                              TUE 07/29/97 17:09 Page:189

     1408     5869                                /* ADJUST EXTENT POINTERS */
     1409     5870
     1410     5871    1         SYMB$->FO$SYMB.CUREXT.NGRAN=SYMB$->FO$SYMB.CUREXT.NGRAN-1;

   5871  1 000174   300004 236100                    LDQ     4,,PR3
         1 000175   777000 036003                    ADLQ    -512,DU
         1 000176   300004 552140                    STBQ    4,'40'O,PR3

     1411     5872    1         IF SYMB$->FO$SYMB.CUREXT.NGRAN~=0 THEN

   5872  1 000177   300004 236100                    LDQ     4,,PR3
         1 000200   777000 316003                    CANQ    -512,DU
         1 000201   000217 600000 1                  TZE     s:5883

     1412     5873    2           DO;

     1413     5874    2           IF SYMB$->FO$SYMB.SPACING AND SYMB$->FO$SYMB.SPACEPAGES<0 THEN

   5874  1 000202   300012 236100                    LDQ     10,,PR3
         1 000203   040000 316007                    CANQ    16384,DL
         1 000204   000213 600000 1                  TZE     s:5878
         1 000205   300011 221100                    LDX1    9,,PR3
         1 000206   000213 605000 1                  TPL     s:5878

     1414     5875    2            SYMB$->FO$SYMB.CUREXT.DAD=SYMB$->FO$SYMB.CUREXT.DAD-1;

   5875  1 000207   300004 236100                    LDQ     4,,PR3
         1 000210   000032 036000 xsym               ADLQ    B_VECTNIL+26
         1 000211   300004 552134                    STBQ    4,'34'O,PR3
         1 000212   000242 710000 1                  TRA     s:5888

     1415     5876    2           ELSE
     1416     5877                                      /* Advance disk address */
     1417     5878    2            SYMB$->FO$SYMB.CUREXT.DAD=SYMB$->FO$SYMB.CUREXT.DAD+1;

   5878  1 000213   300004 236100                    LDQ     4,,PR3
PL6.E3A0      #004=FOM$DISKEA File=FOM$MOOS.:E05TSI                              TUE 07/29/97 17:09 Page:190
         1 000214   000001 036007                    ADLQ    1,DL
         1 000215   300004 552134                    STBQ    4,'34'O,PR3

     1418     5879    2           END;

   5879  1 000216   000242 710000 1                  TRA     s:5888

     1419     5880    1         ELSE
     1420     5881    2           DO;

     1421     5882                                /* PICK UP NEXT EXTENT & ASK FOR MORE */
     1422     5883    2           SYMB$->FO$SYMB.CUREXT=SYMB$->FO$SYMB.NXTEXT;

   5883  1 000217   000100 100500                    MLR     fill='000'O
         1 000220   300006 000010                    ADSC9   6,,PR3                   cn=0,n=8
         1 000221   300004 000010                    ADSC9   4,,PR3                   cn=0,n=8

     1423     5884    2           SYMB$->FO$SYMB.NXTEXT='0'B;

   5884  1 000222   300006 450100                    STZ     6,,PR3
         1 000223   300007 450100                    STZ     7,,PR3

     1424     5885    2           IF SYMB$->FO$SYMB.CUREXT.NGRAN~=0 OR SYMB$->FO$SYMB.CUREXT.DAD=0 THEN

   5885  1 000224   300004 236100                    LDQ     4,,PR3
         1 000225   777000 316003                    CANQ    -512,DU
         1 000226   000231 601000 1                  TNZ     s:5886
         1 000227   000032 316000 xsym               CANQ    B_VECTNIL+26
         1 000230   000242 601000 1                  TNZ     s:5888

     1425     5886    2            CALL FOM$TELLAU (SYMB$->FO$SYMB,%CG_SFEXT#,0);

   5886  1 000231   000003 236000 2                  LDQ     3
         1 000232   200034 756100                    STQ     FO_GPARM+5,,AUTO
         1 000233   000004 236000 2                  LDQ     4
         1 000234   200004 235100                    LDA     SYMB$,,AUTO
         1 000235   200032 757100                    STAQ    FO_GPARM+3,,AUTO
PL6.E3A0      #004=FOM$DISKEA File=FOM$MOOS.:E05TSI                              TUE 07/29/97 17:09 Page:191
         1 000236   200032 630500                    EPPR0   FO_GPARM+3,,AUTO
         1 000237   000021 631400 xsym               EPPR1   B_VECTNIL+17
         1 000240   000000 701000 xent               TSX1    FOM$TELLAU
         1 000241   000000 011000                    NOP     0

     1426     5887    2           END;

     1427     5888    1         IF NAVX+AVAIL = 1024 THEN GOTO NXTGRAN;

   5888  1 000242   200020 236100                    LDQ     NAVX,,AUTO
         1 000243   200021 036100                    ADLQ    AVAIL,,AUTO
         1 000244   002000 116007                    CMPQ    1024,DL
         1 000245   000557 600000 1                  TZE     NXTGRAN

     1428     5889
     1429     5890        %EJECT;
PL6.E3A0      #004=FOM$DISKEA File=FOM$MOOS.:E05TSI                              TUE 07/29/97 17:09 Page:192
     1430     5891        /*
     1431     5892           A note about spacing:
     1432     5893             Get an extent and read the first granule into the scratch granule
     1433     5894             (i.e. the one OUTSYM gives to MOOS on the open of each file).
     1434     5895             When the read completes, enter FOM$DISKEA.  Here, if we are
     1435     5896             spacing from BOF, send the VFU image (always the first record in
     1436     5897             in a symbiont file) to the device and await device endaction.
     1437     5898             Upon device endaction, we requeue the granule and end up in
     1438     5899             FOM$DISKEA.  Now we begin spacing until we locate the page/record
     1439     5900             for which we are searching.  If the current granule is exausted
     1440     5901             and we have not yet reached our goal, we issue a call to
     1441     5902             FOM$SNXDISK.  This routine changes the symbiont context block
     1442     5903             state to "disk granule done", updates the file relative disk
     1443     5904             address pointers to the next granule in the current extent, sets
     1444     5905             the state to "DKIO", and gives control to the I/O system in order
     1445     5906             to read the next granule.  On disk endaction we again end up in
     1446     5907             FOM$DISKEA and continue spacing.  Upon being called, FOM$SNXDISK
     1447     5908             determines whether or not we are out of granules in the current
     1448     5909             extent, and if we are it replaces the current extent with the
     1449     5910             queued next extent, requests a new extent from OUTSYM, sets the
     1450     5911             state to "DKIO", and gives control to the I/O system in order
     1451     5912             to read the first granule of the new current extent.
     1452     5913
     1453     5914             When we get disk endaction in order to continue printing a
     1454     5915             spaced/suspended file, we check if tabs were encountered during
     1455     5916             the spacing operation.  If they were, write the tabs and await
     1456     5917             device endaction.  Upon device endaction we enter FOM$DEVEA,
     1457     5918             change the state to "symbiont write done", make sure that we
     1458     5919             don't update the BLK#=REC#, and call FOM$NXDISK which in this
     1459     5920             case requeues this granule for actual printing.
     1460     5921
     1461     5922             It is important to note that devices are never aware that there
     1462     5923             is a spacing operation in progress.  Only MOOS and OUTSYM are
     1463     5924             aware of it.
     1464     5925        */
     1465     5926        %EJECT;
PL6.E3A0      #004=FOM$DISKEA File=FOM$MOOS.:E05TSI                              TUE 07/29/97 17:09 Page:193
     1466     5927        /**
     1467     5928         **
     1468     5929         **      SPACING (REMOTE OR LOCAL)
     1469     5930         **
     1470     5931         **/
     1471     5932    1         IF SYMB$->FO$SYMB.SPACING THEN

   5932  1 000246   200004 470500                    LDP0    SYMB$,,AUTO
         1 000247   000012 236100                    LDQ     10,,PR0
         1 000250   040000 316007                    CANQ    16384,DL
         1 000251   000577 600000 1                  TZE     DISPATCH

     1472     5933    2           DO;

     1473     5934    2           REC#=SYMB$->FO$SYMB.BR.REC#;

   5934  1 000252   000003 236100                    LDQ     3,,PR0
         1 000253   777777 376007                    ANQ     -1,DL
         1 000254   200016 756100                    STQ     REC#,,AUTO

     1474     5935    2           IF SYMB$->FO$SYMB.SPACEPAGES>0 THEN

   5935  1 000255   000011 220100                    LDX0    9,,PR0
         1 000256   000414 604400 1                  TMOZ    SBKWD

     1475     5936    3   SFWD:     DO FOREVER;

   5936  1 000257                       SFWD         null
     1476     5937                                      /* Set record number at beginning of page */
     1477     5938    3             IF REC#=0 THEN REC#=1;

   5938  1 000257   200016 235100                    LDA     REC#,,AUTO
         1 000260   000263 601000 1                  TNZ     s:5939

   5938  1 000261   000001 236007                    LDQ     1,DL
         1 000262   200016 756100                    STQ     REC#,,AUTO

PL6.E3A0      #004=FOM$DISKEA File=FOM$MOOS.:E05TSI                              TUE 07/29/97 17:09 Page:194
     1478     5939    3             RECX=1024-REC#;

   5939  1 000263   002000 235007                    LDA     1024,DL
         1 000264   200016 135100                    SBLA    REC#,,AUTO
         1 000265   200017 755100                    STA     RECX,,AUTO

     1479     5940                                      /* Is record index in the current extent? */
     1480     5941    3             IF RECX < NAVX+AVAIL THEN

   5941  1 000266   200020 236100                    LDQ     NAVX,,AUTO
         1 000267   200021 036100                    ADLQ    AVAIL,,AUTO
         1 000270   200017 116100                    CMPQ    RECX,,AUTO
         1 000271   000304 604400 1                  TMOZ    s:5953

     1481     5942    4               DO;

     1482     5943                                      /* SPACETYPE = 1 means block spacing */
     1483     5944    4               IF SYMB$->FO$SYMB.SPACETYPE = 1 THEN

   5944  1 000272   200004 470500                    LDP0    SYMB$,,AUTO
         1 000273   000012 236100                    LDQ     10,,PR0
         1 000274   020000 376007                    ANQ     8192,DL
         1 000275   020000 116007                    CMPQ    8192,DL
         1 000276   000303 601000 1                  TNZ     s:5949

     1484     5945    5                 DO;

     1485     5946    5                 SYMB$->FO$SYMB.SPACEBLKS=SYMB$->FO$SYMB.SPACEBLKS-1;

   5946  1 000277   000011 220100                    LDX0    9,,PR0
         1 000300   777777 621010                    EAX1    -1,X0
         1 000301   000011 741100                    STX1    9,,PR0

     1486     5947    5                 IF SYMB$->FO$SYMB.SPACEBLKS = 0 THEN GOTO GOTPAGE;

   5947  1 000302   000564 600000 1                  TZE     GOTPAGE

PL6.E3A0      #004=FOM$DISKEA File=FOM$MOOS.:E05TSI                              TUE 07/29/97 17:09 Page:195
     1487     5948    5                 END;

     1488     5949    4               GOTO NXTGRAN;

   5949  1 000303   000557 710000 1                  TRA     NXTGRAN

     1489     5950    4               END;
     1490     5951                                      /* Here - record index is not in the current
     1491     5952                                         extent */
     1492     5953    3             REC$=PINCRW(GRAN$,PINCRW(GRAN$,RECX)->FM$CON.GX);

   5953  1 000304   200015 470500                    LDP0    GRAN$,,AUTO
         1 000305   000000 236105                    LDQ     0,AL,PR0
         1 000306   000014 772000                    QRL     12
         1 000307   001777 376007                    ANQ     1023,DL
         1 000310   000022 736000                    QLS     18
         1 000311   200015 036100                    ADLQ    GRAN$,,AUTO
         1 000312   200011 756100                    STQ     REC$,,AUTO

     1493     5954    3             VFCFCN=REC$->NK$VFC.FCN;

   5954  1 000313   200011 471500                    LDP1    REC$,,AUTO
         1 000314   003100 061500                    CSR     bolr='003'O
         1 000315   100000 020003                    BDSC    0,,PR1                   by=0,bit=2,n=3
         1 000316   200007 000044                    BDSC    VFCFCN,,AUTO             by=0,bit=0,n=36

     1494     5955                                /* SAVE TABS AS WE FIND 'EM */
     1495     5956    3             IF VFCFCN=%VFCF_SPC AND REC$->NK$VFC.COUNT=%VFCS_OTAB THEN

   5956  1 000317   200007 235100                    LDA     VFCFCN,,AUTO
         1 000320   000001 115007                    CMPA    1,DL
         1 000321   000353 601000 1                  TNZ     s:5970
         1 000322   003100 061500                    CSR     bolr='003'O
         1 000323   100000 050004                    BDSC    0,,PR1                   by=0,bit=5,n=4
         1 000324   200032 000044                    BDSC    FO_GPARM+3,,AUTO         by=0,bit=0,n=36
         1 000325   200032 236100                    LDQ     FO_GPARM+3,,AUTO
         1 000326   000001 116007                    CMPQ    1,DL
PL6.E3A0      #004=FOM$DISKEA File=FOM$MOOS.:E05TSI                              TUE 07/29/97 17:09 Page:196
         1 000327   000353 601000 1                  TNZ     s:5970

     1496     5957    4               DO;

     1497     5958    4               TAB$->FO$TABS.TABSR='0'B;

   5958  1 000330   200012 473500                    LDP3    TAB$,,AUTO
         1 000331   000100 100400                    MLR     fill='000'O
         1 000332   000002 000001 xsym               ADSC9   B_VECTNIL+2              cn=0,n=1
         1 000333   300001 000040                    ADSC9   1,,PR3                   cn=0,n=32

     1498     5959    4               RECL=PINCRW(GRAN$,RECX)->FM$CON.GACTB;

   5959  1 000334   200017 720100                    LXL0    RECX,,AUTO
         1 000335   000000 236110                    LDQ     0,X0,PR0
         1 000336   007777 376007                    ANQ     4095,DL
         1 000337   200005 756100                    STQ     RECL,,AUTO

     1499     5960    4               IF RECL > 1 THEN

   5960  1 000340   000002 116007                    CMPQ    2,DL
         1 000341   000350 602000 1                  TNC     s:5967

     1500     5961    5                 DO;

     1501     5962                                      /* Remove tab character from length,
     1502     5963                                         and save tab character */
     1503     5964    5                 RECL=RECL-1;

   5964  1 000342   000001 136007                    SBLQ    1,DL
         1 000343   200005 756100                    STQ     RECL,,AUTO

     1504     5965    5                 TAB$->FO$TABS.TABS=PINCRC(REC$,1)->B$TABS;

   5965  1 000344   000000 621006                    EAX1    0,QL
         1 000345   040100 100540                    MLR     fill='040'O
         1 000346   100000 200011                    ADSC9   0,,PR1                   cn=1,n=*X1
PL6.E3A0      #004=FOM$DISKEA File=FOM$MOOS.:E05TSI                              TUE 07/29/97 17:09 Page:197
         1 000347   300001 000040                    ADSC9   1,,PR3                   cn=0,n=32

     1505     5966    5                 END;

     1506     5967    4               SYMB$->FO$SYMB.XMTABS='1'B;

   5967  1 000350   200004 474500                    LDP4    SYMB$,,AUTO
         1 000351   000100 236007                    LDQ     64,DL
         1 000352   400012 256100                    ORSQ    10,,PR4

     1507     5968    4               END;

     1508     5969                                      /* SPACETYPE = 0 means record spacing */
     1509     5970    3             IF SYMB$->FO$SYMB.SPACETYPE = 0 THEN

   5970  1 000353   200004 473500                    LDP3    SYMB$,,AUTO
         1 000354   300012 236100                    LDQ     10,,PR3
         1 000355   020000 316007                    CANQ    8192,DL
         1 000356   000402 601000 1                  TNZ     s:5988

     1510     5971    4               DO;

     1511     5972    4               IF (NOT SYMB$->FO$SYMB.PAGES       /* Not paged output            */

   5972  1 000357   010000 316007                    CANQ    4096,DL
         1 000360   000365 601000 1                  TNZ     s:5972+6
         1 000361   000040 316007                    CANQ    32,DL
         1 000362   000373 601000 1                  TNZ     s:5980
         1 000363   000006 115007                    CMPA    6,DL
         1 000364   000373 603000 1                  TRC     s:5980
         1 000365   010000 316007                    CANQ    4096,DL
         1 000366   000377 600000 1                  TZE     s:5983
         1 000367   000200 316007                    CANQ    128,DL
         1 000370   000377 601000 1                  TNZ     s:5983
         1 000371   000007 115007                    CMPA    7,DL
         1 000372   000377 601000 1                  TNZ     s:5983

PL6.E3A0      #004=FOM$DISKEA File=FOM$MOOS.:E05TSI                              TUE 07/29/97 17:09 Page:198
     1512     5973    4               AND (SYMB$->FO$SYMB.CPVFC      /* Card Punch VFC              */
     1513     5974    4               OR VFCFCN >= %VFCF_SPB))  /* TOF VFC or SBP VFC          */
     1514     5975    4               OR (SYMB$->FO$SYMB.PAGES           /* Paged output                */
     1515     5976    4               AND NOT SYMB$->FO$SYMB.FIRSTSPACE /* Not 1st time thru code   */
     1516     5977    4               AND VFCFCN = %VFCF_HDR)        /* TOF VFC                     */
     1517     5978    4               THEN                               /* We're at new logical "PAGE" */
     1518     5979    5                 DO;

     1519     5980    5                 SYMB$->FO$SYMB.SPACEPAGES=SYMB$->FO$SYMB.SPACEPAGES-1;

   5980  1 000373   300011 220100                    LDX0    9,,PR3
         1 000374   777777 621010                    EAX1    -1,X0
         1 000375   300011 741100                    STX1    9,,PR3

     1520     5981    5                 IF SYMB$->FO$SYMB.SPACEPAGES=0 THEN GOTO GOTPAGE;

   5981  1 000376   000564 600000 1                  TZE     GOTPAGE

     1521     5982    5                 END;

     1522     5983    4               SYMB$->FO$SYMB.FIRSTSPACE='0'B;

   5983  1 000377   000005 236000 2                  LDQ     5
         1 000400   300012 356100                    ANSQ    10,,PR3

     1523     5984    4               END;

   5984  1 000401   000412 710000 1                  TRA     s:5991

     1524     5985    3             ELSE
     1525     5986    4               DO;

     1526     5987                                      /* Else, block spacing */
     1527     5988    4               IF  SYMB$->FO$SYMB.SPACEBLKS = 1

   5988  1 000402   300011 220100                    LDX0    9,,PR3
         1 000403   000001 100003                    CMPX0   1,DU
PL6.E3A0      #004=FOM$DISKEA File=FOM$MOOS.:E05TSI                              TUE 07/29/97 17:09 Page:199
         1 000404   000412 601000 1                  TNZ     s:5991
         1 000405   300011 236100                    LDQ     9,,PR3
         1 000406   000011 772000                    QRL     9
         1 000407   000777 376007                    ANQ     511,DL
         1 000410   200016 116100                    CMPQ    REC#,,AUTO
         1 000411   000564 604400 1                  TMOZ    GOTPAGE

     1528     5989    4               AND SYMB$->FO$SYMB.SPACEREC# <= REC# THEN GOTO GOTPAGE;
     1529     5990    4               END;

     1530     5991    3             REC#=REC#+1;

   5991  1 000412   200016 054100                    AOS     REC#,,AUTO

     1531     5992                                      /* END space forward forever */
     1532     5993    3             END SFWD;

   5993  1 000413   000257 710000 1                  TRA     SFWD

     1533     5994                                      /* Begin space backward forever */
     1534     5995    3   SBKWD:    DO FOREVER;

   5995  1 000414                       SBKWD        null
     1535     5996    3             RECX=1024-REC#;

   5996  1 000414   002000 235007                    LDA     1024,DL
         1 000415   200016 135100                    SBLA    REC#,,AUTO
         1 000416   200017 755100                    STA     RECX,,AUTO

     1536     5997    3             IF RECX < NAVX+AVAIL THEN

   5997  1 000417   200020 236100                    LDQ     NAVX,,AUTO
         1 000420   200021 036100                    ADLQ    AVAIL,,AUTO
         1 000421   200017 116100                    CMPQ    RECX,,AUTO
         1 000422   000432 604400 1                  TMOZ    s:6003

     1537     5998    4               DO;
PL6.E3A0      #004=FOM$DISKEA File=FOM$MOOS.:E05TSI                              TUE 07/29/97 17:09 Page:200

     1538     5999    4               RECX=NAVX+AVAIL;

   5999  1 000423   200020 236100                    LDQ     NAVX,,AUTO
         1 000424   200021 036100                    ADLQ    AVAIL,,AUTO
         1 000425   200017 756100                    STQ     RECX,,AUTO

     1539     6000                                      /* Set record number to beginning of page */
     1540     6001    4               REC#=1024-RECX;

   6001  1 000426   002000 235007                    LDA     1024,DL
         1 000427   200017 135100                    SBLA    RECX,,AUTO
         1 000430   200016 755100                    STA     REC#,,AUTO

     1541     6002    4               END;

   6002  1 000431   000446 710000 1                  TRA     s:6017

     1542     6003    3             ELSE IF REC# = 0 THEN

   6003  1 000432   200016 236100                    LDQ     REC#,,AUTO
         1 000433   000446 601000 1                  TNZ     s:6017

     1543     6004    4                DO;

     1544     6005                                      /* SPACETYPE means block spacing */
     1545     6006    4                IF SYMB$->FO$SYMB.SPACETYPE = 1 THEN

   6006  1 000434   200004 470500                    LDP0    SYMB$,,AUTO
         1 000435   000012 236100                    LDQ     10,,PR0
         1 000436   020000 376007                    ANQ     8192,DL
         1 000437   020000 116007                    CMPQ    8192,DL
         1 000440   000445 601000 1                  TNZ     s:6015

     1546     6007    5                  DO;

     1547     6008                                      /* Add 1 to the number of blocks we
PL6.E3A0      #004=FOM$DISKEA File=FOM$MOOS.:E05TSI                              TUE 07/29/97 17:09 Page:201
     1548     6009                                         must space backwards */
     1549     6010    5                  SYMB$->FO$SYMB.SPACEBLKS=SYMB$->FO$SYMB.SPACEBLKS+1;

   6010  1 000441   000011 220100                    LDX0    9,,PR0
         1 000442   000001 621010                    EAX1    1,X0
         1 000443   000011 741100                    STX1    9,,PR0

     1550     6011    5                  IF SYMB$->FO$SYMB.SPACEBLKS = 0 THEN GOTO GOTPAGE;

   6011  1 000444   000564 600000 1                  TZE     GOTPAGE

     1551     6012    5                  END;

     1552     6013                                      /* We have spaced beyond the limits of
     1553     6014                                         this granule, get a new one */
     1554     6015    4                GOTO NXTGRAN;

   6015  1 000445   000557 710000 1                  TRA     NXTGRAN

     1555     6016    4                END;
     1556     6017    3             REC$=PINCRW(GRAN$,PINCRW(GRAN$,RECX)->FM$CON.GX);

   6017  1 000446   200015 470500                    LDP0    GRAN$,,AUTO
         1 000447   200017 720100                    LXL0    RECX,,AUTO
         1 000450   000000 236110                    LDQ     0,X0,PR0
         1 000451   000014 772000                    QRL     12
         1 000452   001777 376007                    ANQ     1023,DL
         1 000453   000022 736000                    QLS     18
         1 000454   200015 036100                    ADLQ    GRAN$,,AUTO
         1 000455   200011 756100                    STQ     REC$,,AUTO

     1557     6018                                      /* Get VFC character of this record */
     1558     6019    3             VFCFCN=REC$->NK$VFC.FCN;

   6019  1 000456   200011 471500                    LDP1    REC$,,AUTO
         1 000457   003100 061500                    CSR     bolr='003'O
         1 000460   100000 020003                    BDSC    0,,PR1                   by=0,bit=2,n=3
PL6.E3A0      #004=FOM$DISKEA File=FOM$MOOS.:E05TSI                              TUE 07/29/97 17:09 Page:202
         1 000461   200007 000044                    BDSC    VFCFCN,,AUTO             by=0,bit=0,n=36

     1559     6020                                /* SAVE PREVIOUS TABS IF WE FIND A SET
     1560     6021                                   TABS RECORD WHILE GOING BACKWARD */
     1561     6022    3             IF VFCFCN=%VFCF_SPC AND REC$->NK$VFC.COUNT=%VFCS_OTAB THEN

   6022  1 000462   200007 235100                    LDA     VFCFCN,,AUTO
         1 000463   000001 115007                    CMPA    1,DL
         1 000464   000515 601000 1                  TNZ     s:6035
         1 000465   003100 061500                    CSR     bolr='003'O
         1 000466   100000 050004                    BDSC    0,,PR1                   by=0,bit=5,n=4
         1 000467   200032 000044                    BDSC    FO_GPARM+3,,AUTO         by=0,bit=0,n=36
         1 000470   200032 236100                    LDQ     FO_GPARM+3,,AUTO
         1 000471   000001 116007                    CMPQ    1,DL
         1 000472   000515 601000 1                  TNZ     s:6035

     1562     6023    4               DO;

     1563     6024    4               TAB$->FO$TABS.TABSR='0'B;

   6024  1 000473   200012 473500                    LDP3    TAB$,,AUTO
         1 000474   000100 100400                    MLR     fill='000'O
         1 000475   000002 000001 xsym               ADSC9   B_VECTNIL+2              cn=0,n=1
         1 000476   300001 000040                    ADSC9   1,,PR3                   cn=0,n=32

     1564     6025    4               RECL=PINCRW(GRAN$,RECX)->FM$CON.GACTB;

   6025  1 000477   000000 236110                    LDQ     0,X0,PR0
         1 000500   007777 376007                    ANQ     4095,DL
         1 000501   200005 756100                    STQ     RECL,,AUTO

     1565     6026                                      /* TAB records are at least 33 bytes */
     1566     6027    4               IF RECL > 33 THEN

   6027  1 000502   000042 116007                    CMPQ    34,DL
         1 000503   000512 602000 1                  TNC     s:6032

PL6.E3A0      #004=FOM$DISKEA File=FOM$MOOS.:E05TSI                              TUE 07/29/97 17:09 Page:203
     1567     6028    5                 DO;

     1568     6029    5                 RECL=RECL-33;

   6029  1 000504   000041 136007                    SBLQ    33,DL
         1 000505   200005 756100                    STQ     RECL,,AUTO

     1569     6030    5                 TAB$->FO$TABS.TABS=PINCRC(REC$,33)->B$TABS;

   6030  1 000506   000000 621006                    EAX1    0,QL
         1 000507   040100 100540                    MLR     fill='040'O
         1 000510   100010 200011                    ADSC9   8,,PR1                   cn=1,n=*X1
         1 000511   300001 000040                    ADSC9   1,,PR3                   cn=0,n=32

     1570     6031    5                 END;

     1571     6032    4               SYMB$->FO$SYMB.XMTABS='1'B;

   6032  1 000512   200004 474500                    LDP4    SYMB$,,AUTO
         1 000513   000100 236007                    LDQ     64,DL
         1 000514   400012 256100                    ORSQ    10,,PR4

     1572     6033    4               END;

     1573     6034                                      /* SPACETYPE = 0 means record spacing */
     1574     6035    3             IF SYMB$->FO$SYMB.SPACETYPE = 0 THEN

   6035  1 000515   200004 473500                    LDP3    SYMB$,,AUTO
         1 000516   300012 236100                    LDQ     10,,PR3
         1 000517   020000 316007                    CANQ    8192,DL
         1 000520   000544 601000 1                  TNZ     s:6054

     1575     6036    4               DO;

     1576     6037    4               IF (NOT SYMB$->FO$SYMB.PAGES       /* Not paged output            */

   6037  1 000521   010000 316007                    CANQ    4096,DL
PL6.E3A0      #004=FOM$DISKEA File=FOM$MOOS.:E05TSI                              TUE 07/29/97 17:09 Page:204
         1 000522   000527 601000 1                  TNZ     s:6037+6
         1 000523   000040 316007                    CANQ    32,DL
         1 000524   000535 601000 1                  TNZ     s:6047
         1 000525   000006 115007                    CMPA    6,DL
         1 000526   000535 603000 1                  TRC     s:6047
         1 000527   010000 316007                    CANQ    4096,DL
         1 000530   000541 600000 1                  TZE     s:6050
         1 000531   000200 316007                    CANQ    128,DL
         1 000532   000541 601000 1                  TNZ     s:6050
         1 000533   000007 115007                    CMPA    7,DL
         1 000534   000541 601000 1                  TNZ     s:6050

     1577     6038    4               AND (SYMB$->FO$SYMB.CPVFC      /* Card Punch VFC              */
     1578     6039    4               OR VFCFCN >= %VFCF_SPB))  /* TOF VFC or SBP VFC          */
     1579     6040    4               OR (SYMB$->FO$SYMB.PAGES           /* Paged output                */
     1580     6041    4               AND NOT SYMB$->FO$SYMB.FIRSTSPACE /* Not 1st time thru code   */
     1581     6042    4               AND VFCFCN = %VFCF_HDR)        /* TOF VFC                     */
     1582     6043    4               THEN                               /* We're at new logical "PAGE" */
     1583     6044    5                 DO;

     1584     6045                                      /* ADD 1 to the number of pages we must
     1585     6046                                         space back */
     1586     6047    5                 SYMB$->FO$SYMB.SPACEPAGES=SYMB$->FO$SYMB.SPACEPAGES+1;

   6047  1 000535   300011 221100                    LDX1    9,,PR3
         1 000536   000001 622011                    EAX2    1,X1
         1 000537   300011 742100                    STX2    9,,PR3

     1587     6048    5                 IF SYMB$->FO$SYMB.SPACEPAGES=0 THEN GOTO GOTPAGE;

   6048  1 000540   000564 600000 1                  TZE     GOTPAGE

     1588     6049    5                 END;

     1589     6050    4               SYMB$->FO$SYMB.FIRSTSPACE='0'B;

   6050  1 000541   000005 236000 2                  LDQ     5
PL6.E3A0      #004=FOM$DISKEA File=FOM$MOOS.:E05TSI                              TUE 07/29/97 17:09 Page:205
         1 000542   300012 356100                    ANSQ    10,,PR3

     1590     6051    4               END;

   6051  1 000543   000554 710000 1                  TRA     s:6057

     1591     6052    3             ELSE
     1592     6053    4               DO;

     1593     6054    4               IF  SYMB$->FO$SYMB.SPACEBLKS = -1

   6054  1 000544   300011 221100                    LDX1    9,,PR3
         1 000545   777777 101003                    CMPX1   -1,DU
         1 000546   000554 601000 1                  TNZ     s:6057
         1 000547   300011 236100                    LDQ     9,,PR3
         1 000550   000011 772000                    QRL     9
         1 000551   000777 376007                    ANQ     511,DL
         1 000552   200016 116100                    CMPQ    REC#,,AUTO
         1 000553   000564 605000 1                  TPL     GOTPAGE

     1594     6055    4               AND SYMB$->FO$SYMB.SPACEREC# >= REC# THEN GOTO GOTPAGE;
     1595     6056    4               END;

     1596     6057    3             REC#=REC#-1;

   6057  1 000554   000001 336007                    LCQ     1,DL
         1 000555   200016 056100                    ASQ     REC#,,AUTO

     1597     6058    3             END SBKWD;

   6058  1 000556   000414 710000 1                  TRA     SBKWD

     1598     6059    2   NXTGRAN:
     1599     6060    2           CALL FOM$SNXDISK (SYMB$->FO$SYMB);

   6060  1 000557   200004 630500       NXTGRAN      EPPR0   SYMB$,,AUTO
         1 000560   000017 631400 xsym               EPPR1   B_VECTNIL+15
PL6.E3A0      #004=FOM$DISKEA File=FOM$MOOS.:E05TSI                              TUE 07/29/97 17:09 Page:206
         1 000561   000000 701000 xent               TSX1    FOM$SNXDISK
         1 000562   000000 011000                    NOP     0

     1600     6061    2           RETURN;

   6061  1 000563   000000 702200 xent               TSX2  ! X66_ARET

     1601     6062    2   GOTPAGE:
     1602     6063    2           SYMB$->FO$SYMB.BR.REC#=REC#;

   6063  1 000564   200016 720100       GOTPAGE      LXL0    REC#,,AUTO
         1 000565   200004 470500                    LDP0    SYMB$,,AUTO
         1 000566   000003 440100                    SXL0    3,,PR0

     1603     6064    2           CALL FOM$EVENT (SYMB$->FO$SYMB,FOSE_FSPA);

   6064  1 000567   000006 236000 2                  LDQ     6
         1 000570   200004 235100                    LDA     SYMB$,,AUTO
         1 000571   200032 757100                    STAQ    FO_GPARM+3,,AUTO
         1 000572   200032 630500                    EPPR0   FO_GPARM+3,,AUTO
         1 000573   000020 631400 xsym               EPPR1   B_VECTNIL+16
         1 000574   000000 701000 xent               TSX1    FOM$EVENT
         1 000575   000000 011000                    NOP     0

     1604     6065    2           RETURN;

   6065  1 000576   000000 702200 xent               TSX2  ! X66_ARET

   6063  1 000577                       DISPATCH     null
     1605     6066    2           END;
     1606     6067        %EJECT;
PL6.E3A0      #004=FOM$DISKEA File=FOM$MOOS.:E05TSI                              TUE 07/29/97 17:09 Page:207
     1607     6068    1   DISPATCH:;
     1608     6069        /**
     1609     6070         **
     1610     6071         **      REMOTE DEVICE
     1611     6072         **
     1612     6073         **/
     1613     6074    1         RCTZERO=SYMB$->FO$SYMB.RCTZERO;

   6074  1 000577   200004 470500                    LDP0    SYMB$,,AUTO
         1 000600   000012 236100                    LDQ     10,,PR0
         1 000601   000024 736000                    QLS     20
         1 000602   400000 376003                    ANQ     -131072,DU
         1 000603   200024 756100                    STQ     RCTZERO,,AUTO

     1614     6075    1         SYMB$->FO$SYMB.RCTZERO='0'B;

   6075  1 000604   000007 236000 2                  LDQ     7
         1 000605   000012 356100                    ANSQ    10,,PR0

     1615     6076                                      /* FEX ~= 0 means remote */
     1616     6077    1         IF ~LDCT$->NK$LDCT.DFLG.LOCAL THEN

   6077  1 000606   200013 471500                    LDP1    LDCT$,,AUTO
         1 000607   100006 236100                    LDQ     6,,PR1
         1 000610   000031 736000                    QLS     25
         1 000611   400000 376003                    ANQ     -131072,DU
         1 000612   400000 676003                    ERQ     -131072,DU
         1 000613   000630 600000 1                  TZE     s:6091

     1617     6078    2           DO;

     1618     6079                                      /* Do state check */
     1619     6080    2           CALL FOM$EVENT (SYMB$->FO$SYMB,FOSE_RDII) ALTRET(RTN);

   6080  1 000614   000010 236000 2                  LDQ     8
         1 000615   200004 235100                    LDA     SYMB$,,AUTO
         1 000616   200032 757100                    STAQ    FO_GPARM+3,,AUTO
PL6.E3A0      #004=FOM$DISKEA File=FOM$MOOS.:E05TSI                              TUE 07/29/97 17:09 Page:208
         1 000617   200032 630500                    EPPR0   FO_GPARM+3,,AUTO
         1 000620   000020 631400 xsym               EPPR1   B_VECTNIL+16
         1 000621   000000 701000 xent               TSX1    FOM$EVENT
         1 000622   000627 702000 1                  TSX2    RTN

     1620     6081
     1621     6082    2           CALL FOM$DEBLOCK (LDCT$->NK$LDCT);

   6082  1 000623   200013 630500                    EPPR0   LDCT$,,AUTO
         1 000624   000017 631400 xsym               EPPR1   B_VECTNIL+15
         1 000625   000000 701000 xent               TSX1    FOM$DEBLOCK
         1 000626   000000 011000                    NOP     0

     1622     6083                                      /* Do a state check */
     1623     6084    2   RTN:    RETURN;

   6084  1 000627   000000 702200 xent  RTN          TSX2  ! X66_ARET

     1624     6085    2           END;
     1625     6086        /**
     1626     6087         **
     1627     6088         **      LOCAL DEVICE
     1628     6089         **
     1629     6090         **/
     1630     6091    1         N$REQ.DLA.DCTX=LDCT$->NK$LDCT.RLCID.LDCTX; /* DEV DCTX */

   6091  1 000630   200003 473500                    LDP3    @N$REQ,,AUTO
         1 000631   100015 236100                    LDQ     13,,PR1
         1 000632   000025 736000                    QLS     21
         1 000633   300001 676100                    ERQ     1,,PR3
         1 000634   777770 376003                    ANQ     -8,DU
         1 000635   300001 656100                    ERSQ    1,,PR3

     1631     6092    1         N$REQ.FC=%N_SYMB;

   6092  1 000636   000032 236007                    LDQ     26,DL
         1 000637   300003 552104                    STBQ    3,'04'O,PR3
PL6.E3A0      #004=FOM$DISKEA File=FOM$MOOS.:E05TSI                              TUE 07/29/97 17:09 Page:209

     1632     6093    1         N$REQ.COMP = %COMP_REG ;

   6093  1 000640   000011 236000 2                  LDQ     9
         1 000641   300027 356100                    ANSQ    23,,PR3

     1633     6094    1         N$REQ.EAENTRY=ENTADDR(FOM$DEVEA);

   6094  1 000642   000000 636000 xent               EAQ     FOM$DEVEA
         1 000643   300023 756100                    STQ     19,,PR3

     1634     6095    1         N$REQ.OPFLG=OP_EA|OP_HOLD|OP_BPF;

   6095  1 000644   000054 236007                    LDQ     44,DL
         1 000645   300004 552104                    STBQ    4,'04'O,PR3

     1635     6096    1         CALL FOM$EVENT (SYMB$->FO$SYMB,FOSE_LDIO) ALTRET(RTN);

   6096  1 000646   000012 236000 2                  LDQ     10
         1 000647   200004 235100                    LDA     SYMB$,,AUTO
         1 000650   200032 757100                    STAQ    FO_GPARM+3,,AUTO
         1 000651   200032 630500                    EPPR0   FO_GPARM+3,,AUTO
         1 000652   000020 631400 xsym               EPPR1   B_VECTNIL+16
         1 000653   000000 701000 xent               TSX1    FOM$EVENT
         1 000654   000627 702000 1                  TSX2    RTN

     1636     6097                                      /* Tab granule? */
     1637     6098    1         IF RCTZERO THEN N$REQ.RCT=0;

   6098  1 000655   200024 234100                    SZN     RCTZERO,,AUTO
         1 000656   000663 605000 1                  TPL     s:6100

   6098  1 000657   000000 220003                    LDX0    0,DU
         1 000660   200003 470500                    LDP0    @N$REQ,,AUTO
         1 000661   000030 440100                    SXL0    24,,PR0
         1 000662   000666 710000 1                  TRA     s:6101

PL6.E3A0      #004=FOM$DISKEA File=FOM$MOOS.:E05TSI                              TUE 07/29/97 17:09 Page:210
     1638     6099                                      /* Not a tab granule */
     1639     6100    1         ELSE N$REQ.RCT=RCT;

   6100  1 000663   200022 720100                    LXL0    RCT,,AUTO
         1 000664   200003 470500                    LDP0    @N$REQ,,AUTO
         1 000665   000030 440100                    SXL0    24,,PR0

     1640     6101    1         N$REQ.EAINFOX=0;

   6101  1 000666   000025 450100                    STZ     21,,PR0

     1641     6102    1         IF DOIOQ = 1 THEN CALL NIO$QUE (N$REQ);

   6102  1 000667   200006 235100                    LDA     DOIOQ,,AUTO
         1 000670   000001 115007                    CMPA    1,DL
         1 000671   000677 601000 1                  TNZ     s:6103

   6102  1 000672   200003 630500                    EPPR0   @N$REQ,,AUTO
         1 000673   000017 631400 xsym               EPPR1   B_VECTNIL+15
         1 000674   000000 701000 xent               TSX1    NIO$QUE
         1 000675   000000 011000                    NOP     0
         1 000676   000701 710000 1                  TRA     s:6104

     1642     6103    1         ELSE N$REQ.OPFLG.REQ='1'B;

   6103  1 000677   000002 236007                    LDQ     2,DL
         1 000700   000004 256100                    ORSQ    4,,PR0

     1643     6104    1         RETURN;

   6104  1 000701   000000 702200 xent               TSX2  ! X66_ARET

     1644     6105        /**/
     1645     6106        /**/
     1646     6107
     1647     6108        /* CODE REMOVED IN M:MON PURGE CYCLE
     1648     6109        !FOM$DISKEAR: ENTRY (N$REQ);
PL6.E3A0      #004=FOM$DISKEA File=FOM$MOOS.:E05TSI                              TUE 07/29/97 17:09 Page:211
     1649     6110        !:*F* NAME:         FOM$DISKEAR
     1650     6111        !     PURPOSE:      To retry queueing the next fep output request
     1651     6112        !                   after deferral.
     1652     6113        !     DESCRIPTION:
     1653     6114        !                   FOM$TIMR calls here if we had to defer sending
     1654     6115        !                   the just-read granule to FEP because the output
     1655     6116        !                   queue was full.  We simply re-enter the
     1656     6117        !                   appropriate part of FOM$DISKEA        *:
     1657     6118        !
     1658     6119        !      SYMB$=N$REQ.EAINFOP$;
     1659     6120        !      LDCT$=NK$LDCT$(SYMB$->FO$SYMB.DEVLDCTX);
     1660     6121        !      RCT=SYMB$->FO$SYMB.BR.REC#;
     1661     6122        !      GOTO DISPATCH;
     1662     6123        !
     1663     6124              END OF CODE REMOVED IN M:MON PURGE CYCLE */
     1664     6125        /**/
     1665     6126        /**/
     1666     6127    1   FOM$WRITE: ENTRY (N$REQ);

   6127  1 000702   000000 700200 xent  FOM$WRITE    TSX0  ! X66_AUTO_1
         1 000703   000036 000001                    ZERO    30,1

     1667     6128        /**/
     1668     6129        /*F* NAME:         FOM$WRITE
     1669     6130             PURPOSE:      To write a single record or granule to a
     1670     6131                           symbiont device.
     1671     6132             DESCRIPTION:  If RECORD_ in the FPT is NILERASE, then an
     1672     6133                           entire granule is being supplied, framed by
     1673     6134                           BUF_.  Otherwise, a record is to be built into
     1674     6135                           the symbiont buffer, and sent.  The description
     1675     6136                           of the record is a VLP_SYMBWRITE framed by
     1676     6137                           RECORD_.  After the write completes, OUTSYM
     1677     6138                           may receive a symbiont ack if he requested it,
     1678     6139                           or, if requested and the device is local, a
     1679     6140                           symbiont token (for remote devices, an ack
     1680     6141                           is generated when the FEP acks the write,
     1681     6142                           whereas a token is generated after the data
PL6.E3A0      #004=FOM$DISKEA File=FOM$MOOS.:E05TSI                              TUE 07/29/97 17:09 Page:212
     1682     6143                           is printed).  */
     1683     6144
     1684     6145    1         SYMB$=N$REQ.EAINFOP$;

   6145  1 000704   200003 470500                    LDP0    @N$REQ,,AUTO
         1 000705   000024 236100                    LDQ     20,,PR0
         1 000706   200004 756100                    STQ     SYMB$,,AUTO

     1685     6146    1         LDCT$=NK$LDCT$(SYMB$->FO$SYMB.DEVLDCTX);

   6146  1 000707   200004 471500                    LDP1    SYMB$,,AUTO
         1 000710   100010 720100                    LXL0    8,,PR1
         1 000711   000000 473400 xsym               LDP3    N$DCT$$
         1 000712   300000 236110                    LDQ     0,X0,PR3
         1 000713   200013 756100                    STQ     LDCT$,,AUTO

     1686     6147    1         GRAN$=N$REQ.BUF$;

   6147  1 000714   000005 236100                    LDQ     5,,PR0
         1 000715   200015 756100                    STQ     GRAN$,,AUTO

     1687     6148                                      /* Was there a single record passed?
     1688     6149                                         If not, write an entire granule */
     1689     6150    1         CALL HFF$NILERASE (4) ALTRET(GOWRITE);

   6150  1 000716   000013 630400 2                  EPPR0   11
         1 000717   000017 631400 xsym               EPPR1   B_VECTNIL+15
         1 000720   000000 701000 xent               TSX1    HFF$NILERASE
         1 000721   000777 702000 1                  TSX2    GOWRITE

     1690     6151    1         FO_GPARM.BUF$=GRAN$;

   6151  1 000722   200015 236100                    LDQ     GRAN$,,AUTO
         1 000723   200027 756100                    STQ     FO_GPARM,,AUTO

     1691     6152    1         CALL FOG$GRAN (FO_GPARM);

PL6.E3A0      #004=FOM$DISKEA File=FOM$MOOS.:E05TSI                              TUE 07/29/97 17:09 Page:213
   6152  1 000724   200027 630500                    EPPR0   FO_GPARM,,AUTO
         1 000725   200032 450500                    STP0    FO_GPARM+3,,AUTO
         1 000726   200032 630500                    EPPR0   FO_GPARM+3,,AUTO
         1 000727   000017 631400 xsym               EPPR1   B_VECTNIL+15
         1 000730   000000 701000 xent               TSX1    FOG$GRAN
         1 000731   000000 011000                    NOP     0

     1692     6153    1         FO_GPARM.DVBYTE=%DVBYTE_VFC#|%DVBYTE_BP#;

   6153  1 000732   000300 236003                    LDQ     192,DU
         1 000733   200031 552120                    STBQ    FO_GPARM+2,'20'O,AUTO

     1693     6154    1         IF B$PS4$->VLP$WRITE.TOF THEN

   6154  1 000734   000000 470400 xsym               LDP0    B$PS4$
         1 000735   000000 234100                    SZN     0,,PR0
         1 000736   000755 605000 1                  TPL     s:6162

     1694     6155    2           DO;

     1695     6156    2           FO_GPARM.REPEATS=1;

   6156  1 000737   000001 236007                    LDQ     1,DL
         1 000740   200031 552104                    STBQ    FO_GPARM+2,'04'O,AUTO

     1696     6157    2           FO_GPARM.REC$=ADDR(BLANKS);

   6157  1 000741   000014 236000 2                  LDQ     12
         1 000742   200030 756100                    STQ     FO_GPARM+1,,AUTO

     1697     6158    2           FO_GPARM.VFCR=TOFVFC;

   6158  1 000743   000001 236000 0                  LDQ     TOFVFC
         1 000744   200031 552140                    STBQ    FO_GPARM+2,'40'O,AUTO

     1698     6159    2           FO_GPARM.RECL=3;

PL6.E3A0      #004=FOM$DISKEA File=FOM$MOOS.:E05TSI                              TUE 07/29/97 17:09 Page:214
   6159  1 000745   003000 236007                    LDQ     1536,DL
         1 000746   200031 552110                    STBQ    FO_GPARM+2,'10'O,AUTO

     1699     6160    2           CALL FOG$ADD (FO_GPARM);

   6160  1 000747   200027 631500                    EPPR1   FO_GPARM,,AUTO
         1 000750   200032 451500                    STP1    FO_GPARM+3,,AUTO
         1 000751   200032 630500                    EPPR0   FO_GPARM+3,,AUTO
         1 000752   000017 631400 xsym               EPPR1   B_VECTNIL+15
         1 000753   000000 701000 xent               TSX1    FOG$ADD
         1 000754   000000 011000                    NOP     0

     1700     6161    2           END;

     1701     6162    1         FO_GPARM.REPEATS=B$PS4$->VLP$WRITE.REPEATS;

   6162  1 000755   000000 470400 xsym               LDP0    B$PS4$
         1 000756   000000 236100                    LDQ     0,,PR0
         1 000757   000011 772000                    QRL     9
         1 000760   200031 552104                    STBQ    FO_GPARM+2,'04'O,AUTO

     1702     6163    1         FO_GPARM.RECL   =B$PS4$->VLP$WRITE.RECL;

   6163  1 000761   000000 236100                    LDQ     0,,PR0
         1 000762   000011 736000                    QLS     9
         1 000763   200031 552110                    STBQ    FO_GPARM+2,'10'O,AUTO

     1703     6164    1         FO_GPARM.REC$   =ADDR(B$PS4$->VLP$WRITE.REC);

   6164  1 000764   000000 236000 xsym               LDQ     B$PS4$
         1 000765   000001 036003                    ADLQ    1,DU
         1 000766   200030 756100                    STQ     FO_GPARM+1,,AUTO

     1704     6165    1         FO_GPARM.VFCR   ='0'B;

   6165  1 000767   000000 236003                    LDQ     0,DU
         1 000770   200031 552140                    STBQ    FO_GPARM+2,'40'O,AUTO
PL6.E3A0      #004=FOM$DISKEA File=FOM$MOOS.:E05TSI                              TUE 07/29/97 17:09 Page:215

     1705     6166    1         CALL FOG$ADD (FO_GPARM);

   6166  1 000771   200027 631500                    EPPR1   FO_GPARM,,AUTO
         1 000772   200032 451500                    STP1    FO_GPARM+3,,AUTO
         1 000773   200032 630500                    EPPR0   FO_GPARM+3,,AUTO
         1 000774   000017 631400 xsym               EPPR1   B_VECTNIL+15
         1 000775   000000 701000 xent               TSX1    FOG$ADD
         1 000776   000000 011000                    NOP     0

   6165  1 000777                       GOWRITE      null
     1706     6167    1   GOWRITE:;
     1707     6168    1         SYMB$->FO$SYMB.RCTZERO='1'B;

   6168  1 000777   200004 470500                    LDP0    SYMB$,,AUTO
         1 001000   100000 236007                    LDQ     32768,DL
         1 001001   000012 256100                    ORSQ    10,,PR0

     1708     6169    1         DOIOQ=1;

   6169  1 001002   000001 235007                    LDA     1,DL
         1 001003   200006 755100                    STA     DOIOQ,,AUTO

     1709     6170    1         GOTO DISPATCH;

   6170  1 001004   000577 710000 1                  TRA     DISPATCH

TABVFC
 Sect OctLoc
   0     000   0210** ******                                                    ....

TOFVFC
 Sect OctLoc
   0     001   1610** ******                                                    q...

BLANKS
 Sect OctLoc
PL6.E3A0      #004=FOM$DISKEA File=FOM$MOOS.:E05TSI                              TUE 07/29/97 17:09 Page:216
   0     002   040040 040***                                                       .

(unnamed)
 Sect OctLoc
   2     000   000005 006000   000000 006000   000000 000016   000002 006000    ................
   2     004   000002 006000   777777 777577   000000 006000   777777 677777    ................
   2     010   000000 006000   777777 600777   000000 006000   000006 006000    ................
   2     014   000002 006000                                                    ....
     1710     6171        /**/
     1711     6172        /**/
     1712     6173    1   END FOM$DISKEA;
     1713     6174        /**/
     1714     6175        /**/
     1715     6176        %EOD;

PL6.E3A0      #004=FOM$DISKEA File=FOM$MOOS.:E05TSI                              TUE 07/29/97 17:09 Page:217
--  Include file information  --

   K$RWPARM.:E05TOU  is referenced.
   K_DATA_R.:E05TOU  cannot be made into a system file and is referenced.
   KC_CP6.:E05TOU  is referenced.
   UM$CP6V_C.:E05TOU  is referenced.
   FOO_MAC_C.:E05TOU  is referenced.
   CP_6_SUBS.:E05TOU  is referenced.
   NK_VFC_C.:E05TOU  is referenced.
   NK_LDCT_R.:E05TOU  cannot be made into a system file and is referenced.
   FM$GRAN.:E05TOU  is referenced.
   FOM_DATA_R.:E05TOU  cannot be made into a system file and is referenced.
   KC_SUBS_C.:E05TOU  is referenced.
   FOM_SUBS_C.:E05TOU  is referenced.
   N_FC_C.:E05TOU  is referenced.
   NI_DATA_C.:E05TOU  is referenced.
   NK$LDCT.:E05TOU  is referenced.
   N$REQ.:E05TOU  is referenced.
   KV$VDO.:E05TOU  is referenced.
   FS_SUPER_C.:E05TOU  is referenced.
   FOM$STRUCT.:E05TOU  is referenced.
      No diagnostics issued in procedure FOM$DISKEA.
PL6.E3A0      #004=FOM$DISKEA File=FOM$MOOS.:E05TSI                              TUE 07/29/97 17:09 Page:218

 **** Variables and constants ****

  ****  Section 000 RoData FOM$DISKEA

  ****  Scalars and arrays  ****
OctLoc.c.b A Datatyp(siz) R M Lvl/name                 OctLoc.c.b A Datatyp(siz) R M Lvl/name

     2-0-0/w CHAR(3)     r     1 BLANKS                     0-0-0/c STRC(9)     r     1 TABVFC
     1-0-0/c STRC(9)     r     1 TOFVFC

  ****  Auto variables  ****

  ****  Scalars and arrays  ****
OctLoc.c.b A Datatyp(siz) R M Lvl/name                 OctLoc.c.b A Datatyp(siz) R M Lvl/name

     3-0-0/w PTR         r     1 @N$REQ                    21-0-0/w SBIN        r     1 AVAIL
     6-0-0/w UBIN        r     1 DOIOQ                     27-0-0/w STRC(108)   r     1 FO_GPARM
    15-0-0/w PTR         r     1 GRAN$                     13-0-0/w PTR         r     1 LDCT$
    *0-0-0/d STRC(1080)  r     1 N$REQ                     20-0-0/w SBIN        r     1 NAVX
    22-0-0/w UBIN        r     1 RCT                       24-0-0/b BIT         r     1 RCTZERO
    16-0-0/w SBIN        r     1 REC#                      11-0-0/w PTR         r     1 REC$
     5-0-0/w UBIN        r     1 RECL                      17-0-0/w SBIN        r     1 RECX
     4-0-0/w PTR         r     1 SYMB$                     12-0-0/w PTR         r     1 TAB$
     7-0-0/w UBIN        r     1 VFCFCN

  ****  SYMREF variables  ****

  ****  Scalars and arrays  ****
OctLoc.c.b A Datatyp(siz) R M Lvl/name                 OctLoc.c.b A Datatyp(siz) R M Lvl/name

     0-0-0/w PTR         r     1 B$PS4$                     0-0-0/w STRC        r     1 FOSE_FSPA
     0-0-0/w STRC        r     1 FOSE_HLTR                  0-0-0/w STRC        r     1 FOSE_LDIO
     0-0-0/w STRC        r     1 FOSE_RDII                  0-0-0/w PTR         r     1 N$DCT$$

  ****  BASED and DCB variables  ****

  ****  Scalars and arrays  ****
PL6.E3A0      #004=FOM$DISKEA File=FOM$MOOS.:E05TSI                              TUE 07/29/97 17:09 Page:219
OctLoc.c.b A Datatyp(siz) R M Lvl/name                 OctLoc.c.b A Datatyp(siz) R M Lvl/name

     0-0-0/c ACHR        r     1 B$TABS                     0-0-0/w STRC        r     1 FM$CON
     0-0-0/w STRC(180)   r     1 FM$GRAN                    0-0-0/w STRC(468)   r     1 FO$SBUF
     0-0-0/w STRC(720)   r     1 FO$SYMB                    0-0-0/w STRC(360)   r     1 FO$TABS
     0-0-0/b STRC(756)   r     1 FS$SOFT_VFU                0-0-0/d STRC(864)   r     1 NK$LDCT
     0-0-0/w PTR         r     1 NK$LDCT$(0:0)
     0-0-0/c STRC(9)     r     1 NK$VFC                     0-0-0/d STRC(1296)  r     1 VLP$WRITE


   Procedure FOM$DISKEA requires 517 words for executable code.
   Procedure FOM$DISKEA requires 30 words of local(AUTO) storage.
PL6.E3A0      #004=FOM$DISKEA File=FOM$MOOS.:E05TSI                              TUE 07/29/97 17:09 Page:220
          *** CROSS REFERENCE LISTING ***
**     DENOTES     IDENTIFIER DEFINITION
<<                 IDENTIFIER'S VALUE SET
>>                 IDENTIFIER'S VALUE USED
<>                 IDENTIFIER SET AND/OR USED
--                 IDENTIFIER REFERENCED
PL6.E3A0      #004=FOM$DISKEA File=FOM$MOOS.:E05TSI                              TUE 07/29/97 17:09 Page:221
          MINI XREF LISTING

AVAIL
      5639**DCL      5791<<ASSIGN   5820>>IF       5824>>ASSIGN   5888>>IF       5941>>IF       5997>>IF
      5999>>ASSIGN
B$PS4$
      5717**DCL      6154>>IF       6162>>ASSIGN   6163>>ASSIGN   6164>>ASSIGN
B$TABS
      5611**DCL      5965>>ASSIGN   6030>>ASSIGN
BLANKS
      5711**DCL      6157--ASSIGN
DISPATCH
      6063**LABEL    5842--GOTO     5863--GOTO     6170--GOTO
DKERR
      5802**LABEL    5816--GOTO     5825--GOTO
DOIOQ
      5628**DCL      5792<<ASSIGN   6102>>IF       6169<<ASSIGN
FM$CON.GACTB
      5608**DCL      5959>>ASSIGN   6025>>ASSIGN
FM$CON.GX
      5608**DCL      5832>>ASSIGN   5953>>ASSIGN   6017>>ASSIGN
FM$GRAN.AVAIL
      5587**DCL      5791>>ASSIGN
FM$GRAN.NAVX
      5586**DCL      5790>>ASSIGN
FM$GRAN.STAMP
      5586**DCL      5805>>ASSIGN   5812>>IF
FO$SBUF.FERR.AVAIL
      5619**DCL      5824<<ASSIGN
FO$SBUF.FERR.BLK#
      5618**DCL      5804<<ASSIGN
FO$SBUF.FERR.CODE
      5618**DCL      5802<<ASSIGN   5814<<ASSIGN   5822<<ASSIGN
FO$SBUF.FERR.EXPSTAMP
PL6.E3A0      #004=FOM$DISKEA File=FOM$MOOS.:E05TSI                              TUE 07/29/97 17:09 Page:222
      5618**DCL      5815<<ASSIGN
FO$SBUF.FERR.NAVX
      5618**DCL      5823<<ASSIGN
FO$SBUF.FERR.STAMP
      5619**DCL      5805<<ASSIGN
FO$SYMB
      5495**DCL      5806<>CALL     5886<>CALL     6060<>CALL     6064<>CALL     6080<>CALL     6096<>CALL
FO$SYMB.BR.BLK#
      5496**DCL      5497--REDEF    5804>>ASSIGN
FO$SYMB.BR.REC#
      5497**DCL      5498--REDEF    5868>>ASSIGN   5934>>ASSIGN   6063<<ASSIGN
FO$SYMB.BUF$
      5495**DCL      5496--REDEF
FO$SYMB.CPVFC
      5510**DCL      5972>>IF       6037>>IF
FO$SYMB.CUREXT
      5498**DCL      5883<<ASSIGN
FO$SYMB.CUREXT.DAD
      5499**DCL      5875<<ASSIGN   5875>>ASSIGN   5878<<ASSIGN   5878>>ASSIGN   5885>>IF
FO$SYMB.CUREXT.NGRAN
      5498**DCL      5871<<ASSIGN   5871>>ASSIGN   5872>>IF       5885>>IF
FO$SYMB.CUREXT.STAMP
      5499**DCL      5500--REDEF    5812>>IF       5815>>ASSIGN
FO$SYMB.DEVLDCTX
      5503**DCL      5794>>ASSIGN   6146>>ASSIGN
FO$SYMB.FIRSTSPACE
      5509**DCL      5972>>IF       5983<<ASSIGN   6037>>IF       6050<<ASSIGN
FO$SYMB.NXTEXT
      5500**DCL      5883>>ASSIGN   5884<<ASSIGN
FO$SYMB.PAGES
      5507**DCL      5972>>IF       5972>>IF       6037>>IF       6037>>IF
FO$SYMB.RCTZERO
      5506**DCL      5841<<ASSIGN   5862<<ASSIGN   6074>>ASSIGN   6075<<ASSIGN   6168<<ASSIGN
FO$SYMB.SPACEBLKS
      5504**DCL      5946<<ASSIGN   5946>>ASSIGN   5947>>IF       5988>>IF       6010<<ASSIGN   6010>>ASSIGN
      6011>>IF       6054>>IF
PL6.E3A0      #004=FOM$DISKEA File=FOM$MOOS.:E05TSI                              TUE 07/29/97 17:09 Page:223
FO$SYMB.SPACEPAGES
      5503**DCL      5504--REDEF    5874>>IF       5935>>IF       5980<<ASSIGN   5980>>ASSIGN   5981>>IF
      6047<<ASSIGN   6047>>ASSIGN   6048>>IF
FO$SYMB.SPACEREC#
      5504**DCL      5988>>IF       6054>>IF
FO$SYMB.SPACETYPE
      5507**DCL      5944>>IF       5970>>IF       6006>>IF       6035>>IF
FO$SYMB.SPACING
      5506**DCL      5849>>IF       5874>>IF       5932>>IF
FO$SYMB.TAB$
      5495**DCL      5793>>ASSIGN
FO$SYMB.XMTABS
      5509**DCL      5849>>IF       5967<<ASSIGN   6032<<ASSIGN
FO$SYMB.XMVFU
      5510**DCL      5829>>IF
FO$TABS.TABS
      5583**DCL      5583--REDEF    5853--ASSIGN   5856--ASSIGN   5965<<ASSIGN   6030<<ASSIGN
FO$TABS.TABSR
      5583**DCL      5958<<ASSIGN   6024<<ASSIGN
FOG$ADD
      5718**DCL-ENT  6160--CALL     6166--CALL
FOG$BLD
      5719**DCL-ENT  5839--CALL     5858--CALL
FOG$GRAN
      5720**DCL-ENT  6152--CALL
FOM$DEBLOCK
      5727**DCL-ENT  6082--CALL
FOM$DEVEA
      5721**DCL-ENT  6094--ASSIGN
FOM$EVENT
      5722**DCL-ENT  5806--CALL     6064--CALL     6080--CALL     6096--CALL
FOM$SNXDISK
      5723**DCL-ENT  6060--CALL
FOM$TELLAU
      5724**DCL-ENT  5886--CALL
FOSE_FSPA
PL6.E3A0      #004=FOM$DISKEA File=FOM$MOOS.:E05TSI                              TUE 07/29/97 17:09 Page:224
      2499**DCL      6064<>CALL
FOSE_HLTR
      2454**DCL      5806<>CALL
FOSE_LDIO
      2349**DCL      6096<>CALL
FOSE_RDII
      2364**DCL      6080<>CALL
FO_GPARM
      5661**DCL      5839<>CALL     5858<>CALL     6152<>CALL     6160<>CALL     6166<>CALL
FO_GPARM.BUF$
      5662**DCL      5833<<ASSIGN   5852<<ASSIGN   6151<<ASSIGN
FO_GPARM.DVBYTE
      5666**DCL      5838<<ASSIGN   5857<<ASSIGN   6153<<ASSIGN
FO_GPARM.REC$
      5663**DCL      5834<<ASSIGN   5853<<ASSIGN   6157<<ASSIGN   6164<<ASSIGN
FO_GPARM.RECL
      5667**DCL      5837<<ASSIGN   5856<<ASSIGN   6159<<ASSIGN   6163<<ASSIGN
FO_GPARM.REPEATS
      5668**DCL      5836<<ASSIGN   5855<<ASSIGN   6156<<ASSIGN   6162<<ASSIGN
FO_GPARM.VFC
      5664**DCL      5665--REDEF    5835<<ASSIGN
FO_GPARM.VFCR
      5665**DCL      5854<<ASSIGN   6158<<ASSIGN   6165<<ASSIGN
FS$SOFT_VFU
      5517**DCL      5837--ASSIGN
GOTPAGE
      6063**LABEL    5947--GOTO     5981--GOTO     5989--GOTO     6011--GOTO     6048--GOTO     6055--GOTO
GOWRITE
      6165**LABEL    6150--CALLALT
GRAN$
      5635**DCL      5789<<ASSIGN   5790>>ASSIGN   5791>>ASSIGN   5802>>ASSIGN   5804>>ASSIGN   5805>>ASSIGN
      5805>>ASSIGN   5812>>IF       5814>>ASSIGN   5815>>ASSIGN   5822>>ASSIGN   5823>>ASSIGN   5824>>ASSIGN
      5832>>ASSIGN   5832>>ASSIGN   5833>>ASSIGN   5852>>ASSIGN   5953>>ASSIGN   5953>>ASSIGN   5959>>ASSIGN
      6017>>ASSIGN   6017>>ASSIGN   6025>>ASSIGN   6147<<ASSIGN   6151>>ASSIGN
HFF$NILERASE
      5726**DCL-ENT  6150--CALL
PL6.E3A0      #004=FOM$DISKEA File=FOM$MOOS.:E05TSI                              TUE 07/29/97 17:09 Page:225
K_RWPARM_CON.BLKREC
      5146**DCL      5171--REDEF
K_RWPARM_CON.BLKREC.BLKU#
      5147**DCL      5149--REDEF
K_RWPARM_CON.BLKREC.RECU#
      5159**DCL      5161--REDEF
K_RWPARM_CON.DVE.DVBYTE.VFC
      5186**DCL      5187--REDEF
K_RWPARM_CON.DVE.EOMCHAR
      5194**DCL      5198--REDEF
K_RWPARM_CON.ERR
      5258**DCL      5263--REDEF
K_RWPARM_CON.FC
      5222**DCL      5223--REDEF
K_RWPARM_CON.FLDID
      5404**DCL      5405--REDEF
K_RWPARM_CON.FPT$
      5285**DCL      5292--REDEF
K_RWPARM_CON.KEYTYPE
      5411**DCL      5412--REDEF
K_RWPARM_CON.MSG$
      5121**DCL      5127--REDEF
K_RWPARM_CON.MSGID
      5233**DCL      5238--REDEF
K_RWPARM_CON.MSGIDXT
      5246**DCL      5250--REDEF
K_RWPARM_CON.ORG
      5382**DCL      5383--REDEF
K_RWPARM_CON.THDRSZ
      5326**DCL      5330--REDEF
K_RWPARM_CON.VDOFLGS
      5384**DCL      5395--REDEF
LDCT$
      5633**DCL      5794<<ASSIGN   6077>>IF       6082>>CALL     6091>>ASSIGN   6146<<ASSIGN
N$DCT$$
      2594**DCL      2594--IMP-PTR  5794>>ASSIGN   6146>>ASSIGN
PL6.E3A0      #004=FOM$DISKEA File=FOM$MOOS.:E05TSI                              TUE 07/29/97 17:09 Page:226
N$REQ
      5430**DCL         8--PROC     6102<>CALL     6127--ENTRY
N$REQ.BUF$
      5439**DCL      5789>>ASSIGN   6147>>ASSIGN
N$REQ.BUFADDR
      5439**DCL      5440--REDEF    5440--REDEF
N$REQ.COMP
      5464**DCL      6093<<ASSIGN
N$REQ.DLA.DCTX
      5430**DCL      6091<<ASSIGN
N$REQ.DLA.DRELADDR
      5431**DCL      5431--REDEF
N$REQ.DVE.EOMCHAR
      5468**DCL      5469--REDEF
N$REQ.EAENTRY
      5461**DCL      6094<<ASSIGN
N$REQ.EAINFO
      5462**DCL      5462--REDEF
N$REQ.EAINFOP$
      5462**DCL      5788>>ASSIGN   6145>>ASSIGN
N$REQ.EAINFOX
      5462**DCL      5463--REDEF    6101<<ASSIGN
N$REQ.EVNTINFO
      5463**DCL      5463--REDEF
N$REQ.FC
      5433**DCL      6092<<ASSIGN
N$REQ.OPFLG
      5436**DCL      6095<<ASSIGN
N$REQ.OPFLG.REQ
      5438**DCL      6103<<ASSIGN
N$REQ.RCT
      5465**DCL      6098<<ASSIGN   6100<<ASSIGN
N$REQ.STATUS
      5444**DCL      5450--REDEF
N$REQ.TYC
      5452**DCL      5799>>IF
PL6.E3A0      #004=FOM$DISKEA File=FOM$MOOS.:E05TSI                              TUE 07/29/97 17:09 Page:227
NAVX
      5638**DCL      5790<<ASSIGN   5820>>IF       5823>>ASSIGN   5888>>IF       5941>>IF       5997>>IF
      5999>>ASSIGN
NIO$QUE
      5728**DCL-ENT  6102--CALL
NK$LDCT
      5549**DCL      6082<>CALL
NK$LDCT.DDT$
      5551**DCL      5551--REDEF
NK$LDCT.DFLG.LOCAL
      5555**DCL      6077>>IF
NK$LDCT.IOQ$
      5550**DCL      5551--REDEF
NK$LDCT.LDCTX
      5552**DCL      5552--REDEF
NK$LDCT.LKFLG.ABORTED
      5564**DCL      5565--REDEF
NK$LDCT.RLCID.LDCTX
      5574**DCL      5574--REDEF    6091>>ASSIGN
NK$LDCT.STA$
      5570**DCL      5571--REDEF
NK$LDCT.SYMB$
      5549**DCL      5549--REDEF    5549--REDEF    5550--REDEF
NK$LDCT$
      2594**DCL      5794>>ASSIGN   6146>>ASSIGN
NK$VFC.COUNT
      5604**DCL      5956>>IF       6022>>IF
NK$VFC.FCN
      5604**DCL      5954>>ASSIGN   6019>>ASSIGN
NXTGRAN
      6060**LABEL    5888--GOTO     5949--GOTO     6015--GOTO
RCT
      5640**DCL      5641--REDEF    5868<<ASSIGN   6100>>ASSIGN
RCTZERO
      5645**DCL      6074<<ASSIGN   6098>>IF
REC#
PL6.E3A0      #004=FOM$DISKEA File=FOM$MOOS.:E05TSI                              TUE 07/29/97 17:09 Page:228
      5636**DCL      5934<<ASSIGN   5938>>IF       5938<<ASSIGN   5939>>ASSIGN   5988>>IF       5991<<ASSIGN
      5991>>ASSIGN   5996>>ASSIGN   6001<<ASSIGN   6003>>IF       6054>>IF       6057<<ASSIGN   6057>>ASSIGN
      6063>>ASSIGN
REC$
      5631**DCL      5832<<ASSIGN   5834>>ASSIGN   5953<<ASSIGN   5954>>ASSIGN   5956>>IF       5965>>ASSIGN
      6017<<ASSIGN   6019>>ASSIGN   6022>>IF       6030>>ASSIGN
RECL
      5627**DCL      5611--IMP-SIZ  5613--IMP-SIZ  5959<<ASSIGN   5960>>IF       5964<<ASSIGN   5964>>ASSIGN
      5965>>ASSIGN   6025<<ASSIGN   6027>>IF       6029<<ASSIGN   6029>>ASSIGN   6030>>ASSIGN
RECX
      5637**DCL      5939<<ASSIGN   5941>>IF       5953>>ASSIGN   5959>>ASSIGN   5996<<ASSIGN   5997>>IF
      5999<<ASSIGN   6001>>ASSIGN   6017>>ASSIGN   6025>>ASSIGN
RTN
      6084**LABEL    6080--CALLALT  6096--CALLALT
SYMB$
      5626**DCL      5788<<ASSIGN   5793>>ASSIGN   5794>>ASSIGN   5804>>ASSIGN   5806>>CALL     5812>>IF
      5815>>ASSIGN   5829>>IF       5841>>ASSIGN   5849>>IF       5849>>IF       5862>>ASSIGN   5868>>ASSIGN
      5871>>ASSIGN   5871>>ASSIGN   5872>>IF       5874>>IF       5874>>IF       5875>>ASSIGN   5875>>ASSIGN
      5878>>ASSIGN   5878>>ASSIGN   5883>>ASSIGN   5883>>ASSIGN   5884>>ASSIGN   5885>>IF       5885>>IF
      5886>>CALL     5932>>IF       5934>>ASSIGN   5935>>IF       5944>>IF       5946>>ASSIGN   5946>>ASSIGN
      5947>>IF       5967>>ASSIGN   5970>>IF       5972>>IF       5972>>IF       5972>>IF       5972>>IF
      5980>>ASSIGN   5980>>ASSIGN   5981>>IF       5983>>ASSIGN   5988>>IF       5988>>IF       6006>>IF
      6010>>ASSIGN   6010>>ASSIGN   6011>>IF       6032>>ASSIGN   6035>>IF       6037>>IF       6037>>IF
      6037>>IF       6037>>IF       6047>>ASSIGN   6047>>ASSIGN   6048>>IF       6050>>ASSIGN   6054>>IF
      6054>>IF       6060>>CALL     6063>>ASSIGN   6064>>CALL     6074>>ASSIGN   6075>>ASSIGN   6080>>CALL
      6096>>CALL     6145<<ASSIGN   6146>>ASSIGN   6168>>ASSIGN
TAB$
      5632**DCL      5793<<ASSIGN   5853>>ASSIGN   5958>>ASSIGN   5965>>ASSIGN   6024>>ASSIGN   6030>>ASSIGN
TABVFC
      5686**DCL      5854>>ASSIGN
TOFVFC
      5704**DCL      6158>>ASSIGN
VFCFCN
      5629**DCL      5954<<ASSIGN   5956>>IF       5972>>IF       5972>>IF       6019<<ASSIGN   6022>>IF
      6037>>IF       6037>>IF
VLP$WRITE.REC
PL6.E3A0      #004=FOM$DISKEA File=FOM$MOOS.:E05TSI                              TUE 07/29/97 17:09 Page:229
      5615**DCL      6164--ASSIGN
VLP$WRITE.RECL
      5615**DCL      6163>>ASSIGN
VLP$WRITE.REPEATS
      5615**DCL      6162>>ASSIGN
VLP$WRITE.TOF
      5615**DCL      6154>>IF

PL6.E3A0      #005=FOM$DEVEA File=FOM$MOOS.:E05TSI                               TUE 07/29/97 17:10 Page:230
     1716        1        /*T***********************************************************/
     1717        2        /*T*                                                         */
     1718        3        /*T* Copyright (c) Bull HN Information Systems Inc., 1997    */
     1719        4        /*T*                                                         */
     1720        5        /*T***********************************************************/
     1721        6        /**/
     1722        7        /**/
     1723        8        FOM$DEVEA: PROC (N$REQ);
     1724        9        /**/
     1725       10        /**/
     1726       11        /*F* NAME:         FOM$DEVEA
     1727       12             PURPOSE:      Device I/O end action for MOOS
     1728       13             DESCRIPTION:  Come here as end action for local device I/O,
     1729       14                           to propagate MOOS.
     1730       15
     1731       16
     1732       17                           Note that this routine is entered as end-action
     1733       18                           (either from disk or device I/O) and thus can
     1734       19                           queue more I/O just by setting the re-queue bit
     1735       20                           in the request packet.  Thus all disk and local
     1736       21                           device I/O (until we have to stop for some
     1737       22                           reason) is done from a single external call to
     1738       23                           IOQ.                                    */
     1739       24        /**/
     1740       25        /*  INCLUDES */
     1741       26        /**/
     1742       27        %INCLUDE FOM$STRUCT;
     1743       88        %INCLUDE N$REQ;
     1744      162        %INCLUDE FOM_SUBS_C;
     1745      225        %INCLUDE FOM_DATA_R;
     1746      474        %INCLUDE KC_SUBS_C;
     1747      490        %INCLUDE KC_CP6;
     1748     1050
     1749     1051
     1750     1052        /**/
     1751     1053        /* PARAMETERS */
     1752     1054        /**/
PL6.E3A0      #005=FOM$DEVEA File=FOM$MOOS.:E05TSI                               TUE 07/29/97 17:10 Page:231
     1753     1055        %N$REQ (STCLASS="");
     1754     1113
     1755     1114
     1756     1115        /**/
     1757     1116        /* BASED STRUCTURES */
     1758     1117        /**/
     1759     1118        %FOM$SYMB;
     1760     1150
     1761     1151
     1762     1152        /**/
     1763     1153        /* AUTO */
     1764     1154        /**/
     1765     1155    1   DCL SYMB$ PTR;
     1766     1156
     1767     1157
     1768     1158        /**/
     1769     1159        /*  REFS */
     1770     1160        /**/
     1771     1161    1   DCL FOM$EVENT          ENTRY(3) ALTRET;
     1772     1162    1   DCL FOM$NXDISK         ENTRY(1) ALTRET;
     1773     1163    1   DCL FOM$TELLAU         ENTRY(3) ALTRET;
     1774     1164
     1775     1165
     1776     1166        /**/
     1777     1167        /* SUBS */
     1778     1168        /**/
     1779     1169        %EQU_CG;
     1780     1217        /**/
     1781     1218        /**/
     1782     1219    1         SYMB$=N$REQ.EAINFOP$;
     1783     1220                                                     /**/
     1784     1221                                      /* If we just wrote a tab granule or
     1785     1222                                         VFU granule, don't update REC# */
     1786     1223                                                     /**/
     1787     1224    1         IF NOT SYMB$ -> FO$SYMB.XMTABS
     1788     1225    1         AND NOT SYMB$ -> FO$SYMB.XMVFU
     1789     1226    1         THEN
PL6.E3A0      #005=FOM$DEVEA File=FOM$MOOS.:E05TSI                               TUE 07/29/97 17:10 Page:232
     1790     1227    2           DO;
     1791     1228    2           SYMB$ -> FO$SYMB.BR.REC# = N$REQ.ARCT;
     1792     1229    2           END;
     1793     1230                                                     /**/
     1794     1231    1         IF (N$REQ.TYC&'377777777777'O) THEN
     1795     1232    2           DO;
     1796     1233    2           SYMB$->FO$SYMB.TOKEN='0'B;
     1797     1234    2           SYMB$->FO$SYMB.ACK='0'B;
     1798     1235    2           CALL FOM$EVENT (SYMB$->FO$SYMB,FOSE_HLTR,FOHR_TERR#);
     1799     1236    2           RETURN;
     1800     1237    2           END;
     1801     1238    1         IF SYMB$->FO$SYMB.TOKEN THEN
     1802     1239    2           DO;
     1803     1240                                /* ON COMPLETION OF SPECIAL WRITE FUNCTION,
     1804     1241                                   SEND TOKEN TO OUTSYM */
     1805     1242    2           SYMB$->FO$SYMB.TOKEN='0'B;
     1806     1243    2           CALL FOM$TELLAU (SYMB$->FO$SYMB,%CG_STOKN#,0);
     1807     1244    2           END;
     1808     1245    1         IF SYMB$->FO$SYMB.ACK THEN
     1809     1246    2           DO;
     1810     1247                                /* ON COMPLETION OF SPECIAL WRITE FUNCTION,
     1811     1248                                   SEND ACK TO OUTSYM */
     1812     1249    2           SYMB$->FO$SYMB.ACK='0'B;
     1813     1250    2           CALL FOM$TELLAU (SYMB$->FO$SYMB,%CG_STACK#,0);
     1814     1251    2           END;
     1815     1252    1         CALL FOM$NXDISK (SYMB$->FO$SYMB);
     1816     1253    1         RETURN;
     1817     1254        /**/
     1818     1255        /**/
     1819     1256    1   END FOM$DEVEA;
     1820     1257        /**/
     1821     1258        /**/
     1822     1259        %EOD;

PL6.E3A0      #005=FOM$DEVEA File=FOM$MOOS.:E05TSI                               TUE 07/29/97 17:10 Page:233
--  Include file information  --

   KC_CP6.:E05TOU  is referenced.
   KC_SUBS_C.:E05TOU  is referenced.
   FOM_DATA_R.:E05TOU  cannot be made into a system file and is referenced.
   FOM_SUBS_C.:E05TOU  is referenced.
   N$REQ.:E05TOU  is referenced.
   FOM$STRUCT.:E05TOU  is referenced.
      No diagnostics issued in procedure FOM$DEVEA.

   Procedure FOM$DEVEA requires 64 words for executable code.
   Procedure FOM$DEVEA requires 10 words of local(AUTO) storage.

PL6.E3A0      #005=FOM$DEVEA File=FOM$MOOS.:E05TSI                               TUE 07/29/97 17:10 Page:234

 Object Unit name= FOM$DEVEA                                  File name= FOM$MOOS.:E05TOU
 UTS= JUL 29 '97 17:10:20.56 TUE                              Compiler= PL-6/E31         Sev=      00
 SharedLib= :SHARED_SYSTEM                                    Alt SharedLib=


    ****  Control sections  ****

 Sect   Type Bound  Init  Size OctSiz  Section name(segment info)
    0   Proc  even  none    64    100  FOM$DEVEA
    1  RoData even  none     9     11  FOM$DEVEA

    ****  Entry defs  ****

                              Check   Calling
                             calling  sequence
  Sect OctLoc Primary Altret sequence   type   Parms  Name
     0      0   yes            yes      Std        1  FOM$DEVEA

  ****  Entry refs  ****

         Check        Calling
        calling       sequence
Altret sequence SRef   type   Args  Name
 yes     yes           Std       3 FOM$EVENT
 yes     yes           Std       3 FOM$TELLAU
 yes     yes           Std       1 FOM$NXDISK
                       Std       0 B_CONSPOOL_D
                       nStd      0 X66_AUTO_1
                       nStd      0 X66_ARET

  ****  Data refs  ****

  Flags:  r = read only, s = secondary
Flgs Name                             Flgs Name                             Flgs Name
r    FOSE_HLTR                             B_VECTNIL
PL6.E3A0      #005=FOM$DEVEA File=FOM$MOOS.:E05TSI                               TUE 07/29/97 17:10 Page:235

  ****  Segment refs  ****

  Flags:  r = read only, s = secondary
Flgs Name                             Flgs Name                             Flgs Name
     ISSID
PL6.E3A0      #005=FOM$DEVEA File=FOM$MOOS.:E05TSI                               TUE 07/29/97 17:10 Page:236


     1716        1        /*T***********************************************************/
     1717        2        /*T*                                                         */
     1718        3        /*T* Copyright (c) Bull HN Information Systems Inc., 1997    */
     1719        4        /*T*                                                         */
     1720        5        /*T***********************************************************/
     1721        6        /**/
     1722        7        /**/
     1723        8        FOM$DEVEA: PROC (N$REQ);

      8  0 000000   000000 700200 xent  FOM$DEVEA    TSX0  ! X66_AUTO_1
         0 000001   000012 000001                    ZERO    10,1

     1724        9        /**/
     1725       10        /**/
     1726       11        /*F* NAME:         FOM$DEVEA
     1727       12             PURPOSE:      Device I/O end action for MOOS
     1728       13             DESCRIPTION:  Come here as end action for local device I/O,
     1729       14                           to propagate MOOS.
     1730       15
     1731       16
     1732       17                           Note that this routine is entered as end-action
     1733       18                           (either from disk or device I/O) and thus can
     1734       19                           queue more I/O just by setting the re-queue bit
     1735       20                           in the request packet.  Thus all disk and local
     1736       21                           device I/O (until we have to stop for some
     1737       22                           reason) is done from a single external call to
     1738       23                           IOQ.                                    */
     1739       24        /**/
     1740       25        /*  INCLUDES */
     1741       26        /**/
     1742       27        %INCLUDE FOM$STRUCT;
     1743       88        %INCLUDE N$REQ;
     1744      162        %INCLUDE FOM_SUBS_C;
     1745      225        %INCLUDE FOM_DATA_R;
     1746      474        %INCLUDE KC_SUBS_C;
     1747      490        %INCLUDE KC_CP6;
PL6.E3A0      #005=FOM$DEVEA File=FOM$MOOS.:E05TSI                               TUE 07/29/97 17:10 Page:237
     1748     1050
     1749     1051
     1750     1052        /**/
     1751     1053        /* PARAMETERS */
     1752     1054        /**/
     1753     1055        %N$REQ (STCLASS="");
     1754     1113
     1755     1114
     1756     1115        /**/
     1757     1116        /* BASED STRUCTURES */
     1758     1117        /**/
     1759     1118        %FOM$SYMB;
     1760     1150
     1761     1151
     1762     1152        /**/
     1763     1153        /* AUTO */
     1764     1154        /**/
     1765     1155    1   DCL SYMB$ PTR;
     1766     1156
     1767     1157
     1768     1158        /**/
     1769     1159        /*  REFS */
     1770     1160        /**/
     1771     1161    1   DCL FOM$EVENT          ENTRY(3) ALTRET;
     1772     1162    1   DCL FOM$NXDISK         ENTRY(1) ALTRET;
     1773     1163    1   DCL FOM$TELLAU         ENTRY(3) ALTRET;
     1774     1164
     1775     1165
     1776     1166        /**/
     1777     1167        /* SUBS */
     1778     1168        /**/
     1779     1169        %EQU_CG;
     1780     1217        /**/
     1781     1218        /**/
     1782     1219    1         SYMB$=N$REQ.EAINFOP$;

   1219  0 000002   200003 470500                    LDP0    @N$REQ,,AUTO
PL6.E3A0      #005=FOM$DEVEA File=FOM$MOOS.:E05TSI                               TUE 07/29/97 17:10 Page:238
         0 000003   000024 236100                    LDQ     20,,PR0
         0 000004   200004 756100                    STQ     SYMB$,,AUTO

     1783     1220                                                     /**/
     1784     1221                                      /* If we just wrote a tab granule or
     1785     1222                                         VFU granule, don't update REC# */
     1786     1223                                                     /**/
     1787     1224    1         IF NOT SYMB$ -> FO$SYMB.XMTABS

   1224  0 000005   200004 471500                    LDP1    SYMB$,,AUTO
         0 000006   100012 236100                    LDQ     10,,PR1
         0 000007   000100 316007                    CANQ    64,DL
         0 000010   000015 601000 0                  TNZ     s:1231
         0 000011   000020 316007                    CANQ    16,DL
         0 000012   000015 601000 0                  TNZ     s:1231

     1788     1225    1         AND NOT SYMB$ -> FO$SYMB.XMVFU
     1789     1226    1         THEN
     1790     1227    2           DO;

     1791     1228    2           SYMB$ -> FO$SYMB.BR.REC# = N$REQ.ARCT;

   1228  0 000013   000030 220100                    LDX0    24,,PR0
         0 000014   100003 440100                    SXL0    3,,PR1

     1792     1229    2           END;

     1793     1230                                                     /**/
     1794     1231    1         IF (N$REQ.TYC&'377777777777'O) THEN

   1231  0 000015   000021 236100                    LDQ     17,,PR0
         0 000016   000031 376000 xsym               ANQ     B_VECTNIL+25
         0 000017   000036 600000 0                  TZE     s:1238

     1795     1232    2           DO;

     1796     1233    2           SYMB$->FO$SYMB.TOKEN='0'B;
PL6.E3A0      #005=FOM$DEVEA File=FOM$MOOS.:E05TSI                               TUE 07/29/97 17:10 Page:239

   1233  0 000020   000000 236000 1                  LDQ     0
         0 000021   100010 356100                    ANSQ    8,,PR1

     1797     1234    2           SYMB$->FO$SYMB.ACK='0'B;

   1234  0 000022   000001 236000 1                  LDQ     1
         0 000023   100010 356100                    ANSQ    8,,PR1

     1798     1235    2           CALL FOM$EVENT (SYMB$->FO$SYMB,FOSE_HLTR,FOHR_TERR#);

   1235  0 000024   000002 236000 1                  LDQ     2
         0 000025   200010 756100                    STQ     SYMB$+4,,AUTO
         0 000026   000003 236000 1                  LDQ     3
         0 000027   200004 235100                    LDA     SYMB$,,AUTO
         0 000030   200006 757100                    STAQ    SYMB$+2,,AUTO
         0 000031   200006 630500                    EPPR0   SYMB$+2,,AUTO
         0 000032   000021 631400 xsym               EPPR1   B_VECTNIL+17
         0 000033   000000 701000 xent               TSX1    FOM$EVENT
         0 000034   000000 011000                    NOP     0

     1799     1236    2           RETURN;

   1236  0 000035   000000 702200 xent               TSX2  ! X66_ARET

     1800     1237    2           END;
     1801     1238    1         IF SYMB$->FO$SYMB.TOKEN THEN

   1238  0 000036   100010 236100                    LDQ     8,,PR1
         0 000037   200000 316003                    CANQ    65536,DU
         0 000040   000054 600000 0                  TZE     s:1245

     1802     1239    2           DO;

     1803     1240                                /* ON COMPLETION OF SPECIAL WRITE FUNCTION,
     1804     1241                                   SEND TOKEN TO OUTSYM */
     1805     1242    2           SYMB$->FO$SYMB.TOKEN='0'B;
PL6.E3A0      #005=FOM$DEVEA File=FOM$MOOS.:E05TSI                               TUE 07/29/97 17:10 Page:240

   1242  0 000041   000000 236000 1                  LDQ     0
         0 000042   100010 356100                    ANSQ    8,,PR1

     1806     1243    2           CALL FOM$TELLAU (SYMB$->FO$SYMB,%CG_STOKN#,0);

   1243  0 000043   000005 236000 1                  LDQ     5
         0 000044   200010 756100                    STQ     SYMB$+4,,AUTO
         0 000045   000006 236000 1                  LDQ     6
         0 000046   200004 235100                    LDA     SYMB$,,AUTO
         0 000047   200006 757100                    STAQ    SYMB$+2,,AUTO
         0 000050   200006 630500                    EPPR0   SYMB$+2,,AUTO
         0 000051   000021 631400 xsym               EPPR1   B_VECTNIL+17
         0 000052   000000 701000 xent               TSX1    FOM$TELLAU
         0 000053   000000 011000                    NOP     0

     1807     1244    2           END;

     1808     1245    1         IF SYMB$->FO$SYMB.ACK THEN

   1245  0 000054   200004 470500                    LDP0    SYMB$,,AUTO
         0 000055   000010 236100                    LDQ     8,,PR0
         0 000056   100000 316003                    CANQ    32768,DU
         0 000057   000073 600000 0                  TZE     s:1252

     1809     1246    2           DO;

     1810     1247                                /* ON COMPLETION OF SPECIAL WRITE FUNCTION,
     1811     1248                                   SEND ACK TO OUTSYM */
     1812     1249    2           SYMB$->FO$SYMB.ACK='0'B;

   1249  0 000060   000001 236000 1                  LDQ     1
         0 000061   000010 356100                    ANSQ    8,,PR0

     1813     1250    2           CALL FOM$TELLAU (SYMB$->FO$SYMB,%CG_STACK#,0);

   1250  0 000062   000005 236000 1                  LDQ     5
PL6.E3A0      #005=FOM$DEVEA File=FOM$MOOS.:E05TSI                               TUE 07/29/97 17:10 Page:241
         0 000063   200010 756100                    STQ     SYMB$+4,,AUTO
         0 000064   000010 236000 1                  LDQ     8
         0 000065   200004 235100                    LDA     SYMB$,,AUTO
         0 000066   200006 757100                    STAQ    SYMB$+2,,AUTO
         0 000067   200006 630500                    EPPR0   SYMB$+2,,AUTO
         0 000070   000021 631400 xsym               EPPR1   B_VECTNIL+17
         0 000071   000000 701000 xent               TSX1    FOM$TELLAU
         0 000072   000000 011000                    NOP     0

     1814     1251    2           END;

     1815     1252    1         CALL FOM$NXDISK (SYMB$->FO$SYMB);

   1252  0 000073   200004 630500                    EPPR0   SYMB$,,AUTO
         0 000074   000017 631400 xsym               EPPR1   B_VECTNIL+15
         0 000075   000000 701000 xent               TSX1    FOM$NXDISK
         0 000076   000000 011000                    NOP     0

     1816     1253    1         RETURN;

   1253  0 000077   000000 702200 xent               TSX2  ! X66_ARET

(unnamed)
 Sect OctLoc
   1     000   577777 777777   677777 777777   000006 006000   000000 006000    ................
   1     004   000000 000020   000002 006000   000004 006000   000000 000021    ................
   1     010   000007 006000                                                    ....
     1817     1254        /**/
     1818     1255        /**/
     1819     1256    1   END FOM$DEVEA;
     1820     1257        /**/
     1821     1258        /**/
     1822     1259        %EOD;

PL6.E3A0      #005=FOM$DEVEA File=FOM$MOOS.:E05TSI                               TUE 07/29/97 17:10 Page:242
--  Include file information  --

   KC_CP6.:E05TOU  is referenced.
   KC_SUBS_C.:E05TOU  is referenced.
   FOM_DATA_R.:E05TOU  cannot be made into a system file and is referenced.
   FOM_SUBS_C.:E05TOU  is referenced.
   N$REQ.:E05TOU  is referenced.
   FOM$STRUCT.:E05TOU  is referenced.
      No diagnostics issued in procedure FOM$DEVEA.
PL6.E3A0      #005=FOM$DEVEA File=FOM$MOOS.:E05TSI                               TUE 07/29/97 17:10 Page:243

 **** Variables and constants ****

  ****  Auto variables  ****

  ****  Scalars and arrays  ****
OctLoc.c.b A Datatyp(siz) R M Lvl/name                 OctLoc.c.b A Datatyp(siz) R M Lvl/name

     3-0-0/w PTR         r     1 @N$REQ                    *0-0-0/d STRC(1080)  r     1 N$REQ
     4-0-0/w PTR         r     1 SYMB$

  ****  SYMREF variables  ****

  ****  Scalars and arrays  ****
OctLoc.c.b A Datatyp(siz) R M Lvl/name                 OctLoc.c.b A Datatyp(siz) R M Lvl/name

     0-0-0/w STRC        r     1 FOSE_HLTR

  ****  BASED and DCB variables  ****

  ****  Scalars and arrays  ****
OctLoc.c.b A Datatyp(siz) R M Lvl/name                 OctLoc.c.b A Datatyp(siz) R M Lvl/name

     0-0-0/w STRC(720)   r     1 FO$SYMB


   Procedure FOM$DEVEA requires 64 words for executable code.
   Procedure FOM$DEVEA requires 10 words of local(AUTO) storage.
PL6.E3A0      #005=FOM$DEVEA File=FOM$MOOS.:E05TSI                               TUE 07/29/97 17:10 Page:244
          *** CROSS REFERENCE LISTING ***
**     DENOTES     IDENTIFIER DEFINITION
<<                 IDENTIFIER'S VALUE SET
>>                 IDENTIFIER'S VALUE USED
<>                 IDENTIFIER SET AND/OR USED
--                 IDENTIFIER REFERENCED
PL6.E3A0      #005=FOM$DEVEA File=FOM$MOOS.:E05TSI                               TUE 07/29/97 17:10 Page:245
          MINI XREF LISTING

FO$SYMB
      1129**DCL      1235<>CALL     1243<>CALL     1250<>CALL     1252<>CALL
FO$SYMB.ACK
      1136**DCL      1234<<ASSIGN   1245>>IF       1249<<ASSIGN
FO$SYMB.BR.BLK#
      1130**DCL      1131--REDEF
FO$SYMB.BR.REC#
      1131**DCL      1132--REDEF    1228<<ASSIGN
FO$SYMB.BUF$
      1129**DCL      1130--REDEF
FO$SYMB.CUREXT.STAMP
      1133**DCL      1134--REDEF
FO$SYMB.SPACEPAGES
      1137**DCL      1138--REDEF
FO$SYMB.TOKEN
      1136**DCL      1233<<ASSIGN   1238>>IF       1242<<ASSIGN
FO$SYMB.XMTABS
      1143**DCL      1224>>IF
FO$SYMB.XMVFU
      1144**DCL      1224>>IF
FOM$EVENT
      1161**DCL-ENT  1235--CALL
FOM$NXDISK
      1162**DCL-ENT  1252--CALL
FOM$TELLAU
      1163**DCL-ENT  1243--CALL     1250--CALL
FOSE_HLTR
       410**DCL      1235<>CALL
N$REQ
      1064**DCL         8--PROC
N$REQ.ARCT
      1099**DCL      1228>>ASSIGN
PL6.E3A0      #005=FOM$DEVEA File=FOM$MOOS.:E05TSI                               TUE 07/29/97 17:10 Page:246
N$REQ.BUFADDR
      1073**DCL      1074--REDEF    1074--REDEF
N$REQ.DLA.DRELADDR
      1065**DCL      1065--REDEF
N$REQ.DVE.EOMCHAR
      1102**DCL      1103--REDEF
N$REQ.EAINFO
      1096**DCL      1096--REDEF
N$REQ.EAINFOP$
      1096**DCL      1219>>ASSIGN
N$REQ.EAINFOX
      1096**DCL      1097--REDEF
N$REQ.EVNTINFO
      1097**DCL      1097--REDEF
N$REQ.STATUS
      1078**DCL      1084--REDEF
N$REQ.TYC
      1086**DCL      1231>>IF
SYMB$
      1155**DCL      1219<<ASSIGN   1224>>IF       1224>>IF       1228>>ASSIGN   1233>>ASSIGN   1234>>ASSIGN
      1235>>CALL     1238>>IF       1242>>ASSIGN   1243>>CALL     1245>>IF       1249>>ASSIGN   1250>>CALL
      1252>>CALL

PL6.E3A0      #006=FOM$SYMBIN File=FOM$MOOS.:E05TSI                              TUE 07/29/97 17:10 Page:247
     1823        1        /*T***********************************************************/
     1824        2        /*T*                                                         */
     1825        3        /*T* Copyright (c) Bull HN Information Systems Inc., 1997    */
     1826        4        /*T*                                                         */
     1827        5        /*T***********************************************************/
     1828        6        /**/
     1829        7        /**/
     1830        8        FOM$SYMBIN: PROC (NK$LDCT,K$RWPARM,FCN) ALTRET;
     1831        9        /**/
     1832       10        /**/
     1833       11        /*F* NAME:         FOM$SYMBIN
     1834       12             PURPOSE:      To provide an entry to MOOS from the monitor for
     1835       13                           notifying him of external events.
     1836       14
     1837       15            DESCRIPTION:   FOM$SYMBIN   is called for the following reasons:
     1838       16
     1839       17                           1) An LDCT is marked symbiont and its associated
     1840       18                              FEP went down
     1841       19
     1842       20                           2) A message for an output symbiont LDCT was found
     1843       21                              in an FEP input queue.
     1844       22
     1845       23                           */
     1846       24        /**/
     1847       25        /*  INCLUDES */
     1848       26        /**/
     1849       27        /**/
     1850       28        %INCLUDE FOM$STRUCT;
     1851       89        %INCLUDE NK$LDCT;
     1852      191        %INCLUDE KV$VDO;
     1853     1206        %INCLUDE K_DATA_R;
     1854     1917        %INCLUDE JG_GHOSTS_C;
     1855     2007        %INCLUDE FOM_SUBS_C;
     1856     2070        %INCLUDE KC_SUBS_C;
     1857     2086        %INCLUDE FOM_DATA_R;
     1858     2335        %INCLUDE KC_CP6;
     1859     2895
PL6.E3A0      #006=FOM$SYMBIN File=FOM$MOOS.:E05TSI                              TUE 07/29/97 17:10 Page:248
     1860     2896
     1861     2897        /**/
     1862     2898        /* PARAMETERS */
     1863     2899        /**/
     1864     2900        %NK$LDCT (STCLASS="");
     1865     2946        %K$RWPARM (NAME=K$RWPARM);
     1866     3262    1   DCL FCN UBIN;
     1867     3263
     1868     3264
     1869     3265        /* Equates */
     1870     3266        %KV_VDO_ALL_E;
     1871     3345
     1872     3346
     1873     3347        /**/
     1874     3348        /* BASED STRUCTURES */
     1875     3349        /**/
     1876     3350        %FOM$SYMB (NAME=FO$SYMB);
     1877     3382
     1878     3383        /* Constant */
     1879     3384    1   DCL OUTSYM_USR UBIN BYTE CONSTANT INIT(JG_OUTSYM#);
     1880     3385
     1881     3386
     1882     3387        /**/
     1883     3388        /* AUTO */
     1884     3389        /**/
     1885     3390    1   DCL SYMB$ PTR;
     1886     3391    1   DCL TSTATE UBIN WORD;
     1887     3392    1   DCL 1 BR ALIGNED,
     1888     3393    1         2 BT UBIN(10) UNAL,
     1889     3394    1         2 BB UBIN(8) UNAL,
     1890     3395    1         2 RT UBIN(10) UNAL,
     1891     3396    1         2 RB UBIN(8) UNAL;
     1892     3397
     1893     3398
     1894     3399        /**/
     1895     3400        /*  REFS */
     1896     3401        /**/
PL6.E3A0      #006=FOM$SYMBIN File=FOM$MOOS.:E05TSI                              TUE 07/29/97 17:10 Page:249
     1897     3402    1   DCL SC_BADSYMBINFCN ENTRY CONV(2,0);
     1898     3403    1   DCL FOM$EVENT          ENTRY(3) ALTRET;
     1899     3404    1   DCL FOM$RNXDISK        ENTRY(1) ALTRET;
     1900     3405    1   DCL FOM$TELLAU         ENTRY(3) ALTRET;
     1901     3406    1   DCL FOM$DEBEV ENTRY(1) ALTRET;
     1902     3407    1   DCL SSV$EVENT ENTRY(7);
     1903     3408
     1904     3409
     1905     3410        /**/
     1906     3411        /* SUBS */
     1907     3412        /**/
     1908     3413        %EQU_CG;
     1909     3461        /**/
     1910     3462        /**/
     1911     3463                                /* IF WE DON'T LIKE THE MESSAGE, ALTRET.
     1912     3464                                   THIS WILL RE-BOOT THE FEP */
     1913     3465
     1914     3466    1         IF NK$LDCT.DFLG.SYMBIONT='0'B THEN
     1915     3467    2           DO CASE (FCN);
     1916     3468    2             CASE (FOMI_FNC_MRK#,FOMI_FNC_RQSDAT#);
     1917     3469    2               RETURN;
     1918     3470    2             CASE (ELSE);
     1919     3471    2               CALL SC_BADSYMBINFCN;
     1920     3472    2           END;
     1921     3473    1         SYMB$=NK$LDCT.SYMB$;
     1922     3474                                /* NO MESSAGE MEANS FEP DOWN */
     1923     3475                                /* GOT MESSAGE */
     1924     3476
     1925     3477    2           DO CASE (FCN);
     1926     3478        /**
     1927     3479         **
     1928     3480         **
     1929     3481         **      SYMBIONT TERMINAL HELD (RESPONSE FROM HOLD REQUEST,
     1930     3482         **                              OR UNILATERAL HOLD FROM HANDLER )
     1931     3483         **
     1932     3484         **
     1933     3485         **/
PL6.E3A0      #006=FOM$SYMBIN File=FOM$MOOS.:E05TSI                              TUE 07/29/97 17:10 Page:250
     1934     3486        /*
     1935     3487           KV_VDO_FNC_MRK = Virtual Device Operation Function Mark
     1936     3488           KV_VDOMRKTYP_LSTRCRID = Last Rec ID (BLK#-REC# of the last rec sent)
     1937     3489        */
     1938     3490
     1939     3491    2             CASE (FOMI_FNC_MRK#);
     1940     3492    2               IF SYMB$->FO$SYMB.EFLGB.IDSC THEN RETURN;
     1941     3493    2               IF K$RWPARM.MRKTYP = %KV_VDOMRKTYP_LSTRCRID
     1942     3494    3               THEN DO;
     1943     3495
     1944     3496
     1945     3497    3                 IF SYMB$->FO$SYMB.SPACING
     1946     3498    3                 OR SYMB$->FO$SYMB.EFLGB.SHTD
     1947     3499    3                 OR SYMB$->FO$SYMB.STATE=FOMS_HELD#
     1948     3500    3                 THEN ALTRETURN;
     1949     3501    3                 BR = K$RWPARM.BLKREC; /* PICK UP BLKREC FROM IP MESSAGE */
     1950     3502    3                 CALL FOM$EVENT (SYMB$->FO$SYMB,FOSE_SHTD,BR);
     1951     3503    3                 END;
     1952     3504    2               ELSE
     1953     3505    2                CALL FOM$TELLAU (SYMB$->FO$SYMB,%CG_STOKN#,0);
     1954     3506        /**
     1955     3507         **
     1956     3508        **
     1957     3509         **  RQSDAT
     1958     3510         **
     1959     3511         **
     1960     3512         **/
     1961     3513        /*
     1962     3514          This is the means by which the network nodes request more data from
     1963     3515        MOOS (throddling).  Here we are running on behalf of the monitor, so
     1964     3516        we'll wait until the user OUTSYM is scheduled to run and event MOOS
     1965     3517        at FOM$DEBEV.  Since we saved the last BLK#-REC# when we altreturned
     1966     3518        from KIA$WRITE in FOM$DEBLOCK (this altreturn means the network node
     1967     3519        cannot currently handle any more symbiont data), we can easily
     1968     3520        continue where we left off in the current block.
     1969     3521        */
     1970     3522
PL6.E3A0      #006=FOM$SYMBIN File=FOM$MOOS.:E05TSI                              TUE 07/29/97 17:10 Page:251
     1971     3523    2             CASE (FOMI_FNC_RQSDAT#);
     1972     3524    2               IF SYMB$ -> FO$SYMB.STATE ~= FOMS_DVIO#
     1973     3525    2               OR SYMB$ -> FO$SYMB.THROTTLING = '0'B
     1974     3526    2               THEN
     1975     3527    2                RETURN;
     1976     3528    2               SYMB$ -> FO$SYMB.THROTTLING = '0'B;
     1977     3529    2               CALL SSV$EVENT(OUTSYM_USR,7,0,ADDR(NK$LDCT),0,,ENTADDR(FOM$DEBEV));
     1978     3530    2               SYMB$->FO$SYMB.STATE = %FOMS_ACTV#;
     1979     3531        /**
     1980     3532         **
     1981     3533         **
     1982     3534         **      SYMBIONT TERMINAL DISCONNECT
     1983     3535         **
     1984     3536         **
     1985     3537         **/
     1986     3538
     1987     3539    2             CASE (FOMI_FNC_DSC_RQS#);
     1988     3540
     1989     3541
     1990     3542    2               BR = K$RWPARM.BLKREC;  /* PICK UP BLKREC FROM FEP IP MESSAGE */
     1991     3543    2   DISCONNECT: ;
     1992     3544    2               CALL FOM$EVENT (SYMB$->FO$SYMB,FOSE_IDSC,BR);
     1993     3545        /**
     1994     3546         **
     1995     3547         **
     1996     3548         **      FORMS PROGRAM ABORT
     1997     3549         **
     1998     3550         **
     1999     3551         **/
     2000     3552    2             CASE (FOMI_FNC_FPRG_ABORT#);
     2001     3553
     2002     3554    3                 DO INHIBIT;
     2003     3555    3                 IF SYMB$ -> FO$SYMB.FPABRT = '1'B
     2004     3556    3                 OR SYMB$ -> FO$SYMB.EFLGB.IDSC = '1'B
     2005     3557    3                 OR SYMB$ -> FO$SYMB.EFLGB.FDSC = '1'B
     2006     3558    3                 OR SYMB$ -> FO$SYMB.STATE = FOMS_DCMP#
     2007     3559    3                 THEN
PL6.E3A0      #006=FOM$SYMBIN File=FOM$MOOS.:E05TSI                              TUE 07/29/97 17:10 Page:252
     2008     3560    3                  RETURN;
     2009     3561
     2010     3562    3                 SYMB$ -> FO$SYMB.FPABRT = '1'B;
     2011     3563    3                 CALL FOM$TELLAU (SYMB$ -> FO$SYMB,%CG_FPABORT#,0);
     2012     3564    3                 END;
     2013     3565        /**
     2014     3566         **
     2015     3567         **
     2016     3568         **      OTHER CASES
     2017     3569         **
     2018     3570         **
     2019     3571         **/
     2020     3572
     2021     3573    2             CASE (ELSE);
     2022     3574    2               CALL SC_BADSYMBINFCN;
     2023     3575
     2024     3576        /*S* SCREECH_CODE:      FOM-S$BADSYMBINFCN
     2025     3577             TYPE:         SNAP
     2026     3578             MESSAGE:           Bad FCN passed to FOM$SYMBIN
     2027     3579             REMARKS:           Input circular FEP queue management has
     2028     3580                                decided that this message belongs to
     2029     3581                                FOM$SYMBIN,   who does not know the function
     2030     3582                           code. */
     2031     3583
     2032     3584    2           END; /*CASE FCN*/
     2033     3585    1         RETURN;
     2034     3586        /**/
     2035     3587        /**/
     2036     3588    1   END FOM$SYMBIN;
     2037     3589        /**/
     2038     3590        /**/
     2039     3591        %EOD;

PL6.E3A0      #006=FOM$SYMBIN File=FOM$MOOS.:E05TSI                              TUE 07/29/97 17:10 Page:253
--  Include file information  --

   KC_CP6.:E05TOU  is referenced.
   FOM_DATA_R.:E05TOU  cannot be made into a system file and is referenced.
   KC_SUBS_C.:E05TOU  is referenced.
   FOM_SUBS_C.:E05TOU  is referenced.
   JG_GHOSTS_C.:E05TOU  is referenced.
   K$RWPARM.:E05TOU  is referenced.
   K_DATA_R.:E05TOU  cannot be made into a system file and is referenced.
   KV$VDO.:E05TOU  is referenced.
   NK$LDCT.:E05TOU  is referenced.
   FOM$STRUCT.:E05TOU  is referenced.
      No diagnostics issued in procedure FOM$SYMBIN.

   Procedure FOM$SYMBIN requires 151 words for executable code.
   Procedure FOM$SYMBIN requires 20 words of local(AUTO) storage.

PL6.E3A0      #006=FOM$SYMBIN File=FOM$MOOS.:E05TSI                              TUE 07/29/97 17:10 Page:254

 Object Unit name= FOM$SYMBIN                                 File name= FOM$MOOS.:E05TOU
 UTS= JUL 29 '97 17:10:27.80 TUE                              Compiler= PL-6/E31         Sev=      00
 SharedLib= :SHARED_SYSTEM                                    Alt SharedLib=


    ****  Control sections  ****

 Sect   Type Bound  Init  Size OctSiz  Section name(segment info)
    0  RoData even  UTS      1      1  FOM$SYMBIN
    1   Proc  even  none   151    227  FOM$SYMBIN
    2  RoData even  none    11     13  FOM$SYMBIN

    ****  Entry defs  ****

                              Check   Calling
                             calling  sequence
  Sect OctLoc Primary Altret sequence   type   Parms  Name
     1      0   yes    yes     yes      Std        3  FOM$SYMBIN

  ****  Entry refs  ****

         Check        Calling
        calling       sequence
Altret sequence SRef   type   Args  Name
 yes     yes           Std       3 FOM$EVENT
 yes     yes           Std       3 FOM$TELLAU
 yes     yes           Std       1 FOM$DEBEV
         yes           Std       7 SSV$EVENT
                       nStd      0 X66_AUTO_3
                       nStd      0 X66_ARET
                       nStd      0 X66_AALT
                       Std       0 B_CONSPOOL_D
PL6.E3A0      #006=FOM$SYMBIN File=FOM$MOOS.:E05TSI                              TUE 07/29/97 17:10 Page:255

  ****  Data refs  ****

  Flags:  r = read only, s = secondary
Flgs Name                             Flgs Name                             Flgs Name
     SC_BADSYMBINFCN                  r    FOSE_SHTD                        r    FOSE_IDSC
     B_VECTNIL

  ****  Segment refs  ****

  Flags:  r = read only, s = secondary
Flgs Name                             Flgs Name                             Flgs Name
     ASLENTSID                             ISSID
PL6.E3A0      #006=FOM$SYMBIN File=FOM$MOOS.:E05TSI                              TUE 07/29/97 17:10 Page:256


     1823        1        /*T***********************************************************/
     1824        2        /*T*                                                         */
     1825        3        /*T* Copyright (c) Bull HN Information Systems Inc., 1997    */
     1826        4        /*T*                                                         */
     1827        5        /*T***********************************************************/
     1828        6        /**/
     1829        7        /**/
     1830        8        FOM$SYMBIN: PROC (NK$LDCT,K$RWPARM,FCN) ALTRET;

      8  1 000000   000000 700200 xent  FOM$SYMBIN   TSX0  ! X66_AUTO_3
         1 000001   000024 000003                    ZERO    20,3

     1831        9        /**/
     1832       10        /**/
     1833       11        /*F* NAME:         FOM$SYMBIN
     1834       12             PURPOSE:      To provide an entry to MOOS from the monitor for
     1835       13                           notifying him of external events.
     1836       14
     1837       15            DESCRIPTION:   FOM$SYMBIN   is called for the following reasons:
     1838       16
     1839       17                           1) An LDCT is marked symbiont and its associated
     1840       18                              FEP went down
     1841       19
     1842       20                           2) A message for an output symbiont LDCT was found
     1843       21                              in an FEP input queue.
     1844       22
     1845       23                           */
     1846       24        /**/
     1847       25        /*  INCLUDES */
     1848       26        /**/
     1849       27        /**/
     1850       28        %INCLUDE FOM$STRUCT;
     1851       89        %INCLUDE NK$LDCT;
     1852      191        %INCLUDE KV$VDO;
     1853     1206        %INCLUDE K_DATA_R;
     1854     1917        %INCLUDE JG_GHOSTS_C;
PL6.E3A0      #006=FOM$SYMBIN File=FOM$MOOS.:E05TSI                              TUE 07/29/97 17:10 Page:257
     1855     2007        %INCLUDE FOM_SUBS_C;
     1856     2070        %INCLUDE KC_SUBS_C;
     1857     2086        %INCLUDE FOM_DATA_R;
     1858     2335        %INCLUDE KC_CP6;
     1859     2895
     1860     2896
     1861     2897        /**/
     1862     2898        /* PARAMETERS */
     1863     2899        /**/
     1864     2900        %NK$LDCT (STCLASS="");
     1865     2946        %K$RWPARM (NAME=K$RWPARM);
     1866     3262    1   DCL FCN UBIN;
     1867     3263
     1868     3264
     1869     3265        /* Equates */
     1870     3266        %KV_VDO_ALL_E;
     1871     3345
     1872     3346
     1873     3347        /**/
     1874     3348        /* BASED STRUCTURES */
     1875     3349        /**/
     1876     3350        %FOM$SYMB (NAME=FO$SYMB);
     1877     3382
     1878     3383        /* Constant */
     1879     3384    1   DCL OUTSYM_USR UBIN BYTE CONSTANT INIT(JG_OUTSYM#);
     1880     3385
     1881     3386
     1882     3387        /**/
     1883     3388        /* AUTO */
     1884     3389        /**/
     1885     3390    1   DCL SYMB$ PTR;
     1886     3391    1   DCL TSTATE UBIN WORD;
     1887     3392    1   DCL 1 BR ALIGNED,
     1888     3393    1         2 BT UBIN(10) UNAL,
     1889     3394    1         2 BB UBIN(8) UNAL,
     1890     3395    1         2 RT UBIN(10) UNAL,
     1891     3396    1         2 RB UBIN(8) UNAL;
PL6.E3A0      #006=FOM$SYMBIN File=FOM$MOOS.:E05TSI                              TUE 07/29/97 17:10 Page:258
     1892     3397
     1893     3398
     1894     3399        /**/
     1895     3400        /*  REFS */
     1896     3401        /**/
     1897     3402    1   DCL SC_BADSYMBINFCN ENTRY CONV(2,0);
     1898     3403    1   DCL FOM$EVENT          ENTRY(3) ALTRET;
     1899     3404    1   DCL FOM$RNXDISK        ENTRY(1) ALTRET;
     1900     3405    1   DCL FOM$TELLAU         ENTRY(3) ALTRET;
     1901     3406    1   DCL FOM$DEBEV ENTRY(1) ALTRET;
     1902     3407    1   DCL SSV$EVENT ENTRY(7);
     1903     3408
     1904     3409
     1905     3410        /**/
     1906     3411        /* SUBS */
     1907     3412        /**/
     1908     3413        %EQU_CG;
     1909     3461        /**/
     1910     3462        /**/
     1911     3463                                /* IF WE DON'T LIKE THE MESSAGE, ALTRET.
     1912     3464                                   THIS WILL RE-BOOT THE FEP */
     1913     3465
     1914     3466    1         IF NK$LDCT.DFLG.SYMBIONT='0'B THEN

   3466  1 000002   200003 470500                    LDP0    @NK$LDCT,,AUTO
         1 000003   000006 236100                    LDQ     6,,PR0
         1 000004   020000 316007                    CANQ    8192,DL
         1 000005   000021 601000 1                  TNZ     s:3473

     1915     3467    2           DO CASE (FCN);

   3467  1 000006   200005 471500                    LDP1    @FCN,,AUTO
         1 000007   100000 235100                    LDA     0,,PR1
         1 000010   000003 115007                    CMPA    3,DL
         1 000011   000013 602005 1                  TNC     s:3467+5,AL
         1 000012   000017 710000 1                  TRA     s:3471
         1 000013   000017 710000 1                  TRA     s:3471
PL6.E3A0      #006=FOM$SYMBIN File=FOM$MOOS.:E05TSI                              TUE 07/29/97 17:10 Page:259
         1 000014   000016 710000 1                  TRA     s:3469
         1 000015   000016 710000 1                  TRA     s:3469

     1916     3468    2             CASE (FOMI_FNC_MRK#,FOMI_FNC_RQSDAT#);

     1917     3469    2               RETURN;

   3469  1 000016   000000 702200 xent               TSX2  ! X66_ARET

     1918     3470    2             CASE (ELSE);

     1919     3471    2               CALL SC_BADSYMBINFCN;

   3471  1 000017   000000 713400 xsym               CLIMB   SC_BADSYMBINFCN
         1 000020   000000 600000 xsid               climb   nvectors=         0

     1920     3472    2           END;

     1921     3473    1         SYMB$=NK$LDCT.SYMB$;

   3473  1 000021   200003 470500                    LDP0    @NK$LDCT,,AUTO
         1 000022   000000 236100                    LDQ     0,,PR0
         1 000023   200006 756100                    STQ     SYMB$,,AUTO

     1922     3474                                /* NO MESSAGE MEANS FEP DOWN */
     1923     3475                                /* GOT MESSAGE */
     1924     3476
     1925     3477    2           DO CASE (FCN);

   3477  1 000024   200005 471500                    LDP1    @FCN,,AUTO
         1 000025   100000 235100                    LDA     0,,PR1
         1 000026   000005 115007                    CMPA    5,DL
         1 000027   000031 602005 1                  TNC     s:3477+5,AL
         1 000030   000224 710000 1                  TRA     s:3574
         1 000031   000224 710000 1                  TRA     s:3574
         1 000032   000036 710000 1                  TRA     s:3492
         1 000033   000110 710000 1                  TRA     s:3524
PL6.E3A0      #006=FOM$SYMBIN File=FOM$MOOS.:E05TSI                              TUE 07/29/97 17:10 Page:260
         1 000034   000156 710000 1                  TRA     s:3542
         1 000035   000173 710000 1                  TRA     s:3555

     1926     3478        /**
     1927     3479         **
     1928     3480         **
     1929     3481         **      SYMBIONT TERMINAL HELD (RESPONSE FROM HOLD REQUEST,
     1930     3482         **                              OR UNILATERAL HOLD FROM HANDLER )
     1931     3483         **
     1932     3484         **
     1933     3485         **/
     1934     3486        /*
     1935     3487           KV_VDO_FNC_MRK = Virtual Device Operation Function Mark
     1936     3488           KV_VDOMRKTYP_LSTRCRID = Last Rec ID (BLK#-REC# of the last rec sent)
     1937     3489        */
     1938     3490
     1939     3491    2             CASE (FOMI_FNC_MRK#);

     1940     3492    2               IF SYMB$->FO$SYMB.EFLGB.IDSC THEN RETURN;

   3492  1 000036   200006 473500                    LDP3    SYMB$,,AUTO
         1 000037   300012 236100                    LDQ     10,,PR3
         1 000040   000400 316007                    CANQ    256,DL
         1 000041   000043 600000 1                  TZE     s:3493

   3492  1 000042   000000 702200 xent               TSX2  ! X66_ARET

     1941     3493    2               IF K$RWPARM.MRKTYP = %KV_VDOMRKTYP_LSTRCRID

   3493  1 000043   200004 474500                    LDP4    @K$RWPARM,,AUTO
         1 000044   400040 236100                    LDQ     32,,PR4
         1 000045   777000 376007                    ANQ     -512,DL
         1 000046   002000 116007                    CMPQ    1024,DL
         1 000047   000076 601000 1                  TNZ     s:3505

     1942     3494    3               THEN DO;

PL6.E3A0      #006=FOM$SYMBIN File=FOM$MOOS.:E05TSI                              TUE 07/29/97 17:10 Page:261
     1943     3495
     1944     3496
     1945     3497    3                 IF SYMB$->FO$SYMB.SPACING

   3497  1 000050   300012 236100                    LDQ     10,,PR3
         1 000051   040000 316007                    CANQ    16384,DL
         1 000052   000061 601000 1                  TNZ     s:3500
         1 000053   002000 316007                    CANQ    1024,DL
         1 000054   000061 601000 1                  TNZ     s:3500
         1 000055   300012 236100                    LDQ     10,,PR3
         1 000056   000017 376007                    ANQ     15,DL
         1 000057   000005 116007                    CMPQ    5,DL
         1 000060   000062 601000 1                  TNZ     s:3501

     1946     3498    3                 OR SYMB$->FO$SYMB.EFLGB.SHTD
     1947     3499    3                 OR SYMB$->FO$SYMB.STATE=FOMS_HELD#
     1948     3500    3                 THEN ALTRETURN;

   3500  1 000061   000000 702200 xent               TSX2  ! X66_AALT

     1949     3501    3                 BR = K$RWPARM.BLKREC; /* PICK UP BLKREC FROM IP MESSAGE */

   3501  1 000062   400007 236100                    LDQ     7,,PR4
         1 000063   200010 756100                    STQ     BR,,AUTO

     1950     3502    3                 CALL FOM$EVENT (SYMB$->FO$SYMB,FOSE_SHTD,BR);

   3502  1 000064   200010 635500                    EPPR5   BR,,AUTO
         1 000065   200014 455500                    STP5    BR+4,,AUTO
         1 000066   000000 236000 2                  LDQ     0
         1 000067   200006 235100                    LDA     SYMB$,,AUTO
         1 000070   200012 757100                    STAQ    BR+2,,AUTO
         1 000071   200012 630500                    EPPR0   BR+2,,AUTO
         1 000072   000021 631400 xsym               EPPR1   B_VECTNIL+17
         1 000073   000000 701000 xent               TSX1    FOM$EVENT
         1 000074   000000 011000                    NOP     0

PL6.E3A0      #006=FOM$SYMBIN File=FOM$MOOS.:E05TSI                              TUE 07/29/97 17:10 Page:262
     1951     3503    3                 END;

   3503  1 000075   000226 710000 1                  TRA     s:3585

     1952     3504    2               ELSE
     1953     3505    2                CALL FOM$TELLAU (SYMB$->FO$SYMB,%CG_STOKN#,0);

   3505  1 000076   000002 236000 2                  LDQ     2
         1 000077   200014 756100                    STQ     BR+4,,AUTO
         1 000100   000003 236000 2                  LDQ     3
         1 000101   200006 235100                    LDA     SYMB$,,AUTO
         1 000102   200012 757100                    STAQ    BR+2,,AUTO
         1 000103   200012 630500                    EPPR0   BR+2,,AUTO
         1 000104   000021 631400 xsym               EPPR1   B_VECTNIL+17
         1 000105   000000 701000 xent               TSX1    FOM$TELLAU
         1 000106   000000 011000                    NOP     0
         1 000107   000226 710000 1                  TRA     s:3585

     1954     3506        /**
     1955     3507         **
     1956     3508        **
     1957     3509         **  RQSDAT
     1958     3510         **
     1959     3511         **
     1960     3512         **/
     1961     3513        /*
     1962     3514          This is the means by which the network nodes request more data from
     1963     3515        MOOS (throddling).  Here we are running on behalf of the monitor, so
     1964     3516        we'll wait until the user OUTSYM is scheduled to run and event MOOS
     1965     3517        at FOM$DEBEV.  Since we saved the last BLK#-REC# when we altreturned
     1966     3518        from KIA$WRITE in FOM$DEBLOCK (this altreturn means the network node
     1967     3519        cannot currently handle any more symbiont data), we can easily
     1968     3520        continue where we left off in the current block.
     1969     3521        */
     1970     3522
     1971     3523    2             CASE (FOMI_FNC_RQSDAT#);

PL6.E3A0      #006=FOM$SYMBIN File=FOM$MOOS.:E05TSI                              TUE 07/29/97 17:10 Page:263
     1972     3524    2               IF SYMB$ -> FO$SYMB.STATE ~= FOMS_DVIO#

   3524  1 000110   200006 473500                    LDP3    SYMB$,,AUTO
         1 000111   300012 236100                    LDQ     10,,PR3
         1 000112   000017 376007                    ANQ     15,DL
         1 000113   000003 116007                    CMPQ    3,DL
         1 000114   000117 601000 1                  TNZ     s:3527
         1 000115   300010 234100                    SZN     8,,PR3
         1 000116   000120 604000 1                  TMI     s:3528

     1973     3525    2               OR SYMB$ -> FO$SYMB.THROTTLING = '0'B
     1974     3526    2               THEN
     1975     3527    2                RETURN;

   3527  1 000117   000000 702200 xent               TSX2  ! X66_ARET

     1976     3528    2               SYMB$ -> FO$SYMB.THROTTLING = '0'B;

   3528  1 000120   000031 236000 xsym               LDQ     B_VECTNIL+25
         1 000121   300010 356100                    ANSQ    8,,PR3

     1977     3529    2               CALL SSV$EVENT(OUTSYM_USR,7,0,ADDR(NK$LDCT),0,,ENTADDR(FOM$DEBEV));

   3529  1 000122   000000 636000 xent               EAQ     FOM$DEBEV
         1 000123   200013 756100                    STQ     BR+3,,AUTO
         1 000124   200003 236100                    LDQ     @NK$LDCT,,AUTO
         1 000125   200012 756100                    STQ     BR+2,,AUTO
         1 000126   200013 236100                    LDQ     BR+3,,AUTO
         1 000127   200014 756100                    STQ     BR+4,,AUTO
         1 000130   200014 634500                    EPPR4   BR+4,,AUTO
         1 000131   200023 454500                    STP4    BR+11,,AUTO
         1 000132   000001 236000 xsym               LDQ     B_VECTNIL+1
         1 000133   200022 756100                    STQ     BR+10,,AUTO
         1 000134   000002 236000 2                  LDQ     2
         1 000135   200021 756100                    STQ     BR+9,,AUTO
         1 000136   200012 635500                    EPPR5   BR+2,,AUTO
         1 000137   200020 455500                    STP5    BR+8,,AUTO
PL6.E3A0      #006=FOM$SYMBIN File=FOM$MOOS.:E05TSI                              TUE 07/29/97 17:10 Page:264
         1 000140   000004 237000 2                  LDAQ    4
         1 000141   200016 757100                    STAQ    BR+6,,AUTO
         1 000142   000006 236000 2                  LDQ     6
         1 000143   200015 756100                    STQ     BR+5,,AUTO
         1 000144   200015 630500                    EPPR0   BR+5,,AUTO
         1 000145   000025 631400 xsym               EPPR1   B_VECTNIL+21
         1 000146   000000 701000 xent               TSX1    SSV$EVENT
         1 000147   000000 011000                    NOP     0

     1978     3530    2               SYMB$->FO$SYMB.STATE = %FOMS_ACTV#;

   3530  1 000150   200006 470500                    LDP0    SYMB$,,AUTO
         1 000151   000012 236100                    LDQ     10,,PR0
         1 000152   000007 376000 2                  ANQ     7
         1 000153   000006 276007                    ORQ     6,DL
         1 000154   000012 756100                    STQ     10,,PR0
         1 000155   000226 710000 1                  TRA     s:3585

     1979     3531        /**
     1980     3532         **
     1981     3533         **
     1982     3534         **      SYMBIONT TERMINAL DISCONNECT
     1983     3535         **
     1984     3536         **
     1985     3537         **/
     1986     3538
     1987     3539    2             CASE (FOMI_FNC_DSC_RQS#);

     1988     3540
     1989     3541
     1990     3542    2               BR = K$RWPARM.BLKREC;  /* PICK UP BLKREC FROM FEP IP MESSAGE */

   3542  1 000156   200004 473500                    LDP3    @K$RWPARM,,AUTO
         1 000157   300007 236100                    LDQ     7,,PR3
         1 000160   200010 756100                    STQ     BR,,AUTO

   3542  1 000161                       DISCONNECT   null
PL6.E3A0      #006=FOM$SYMBIN File=FOM$MOOS.:E05TSI                              TUE 07/29/97 17:10 Page:265
     1991     3543    2   DISCONNECT: ;
     1992     3544    2               CALL FOM$EVENT (SYMB$->FO$SYMB,FOSE_IDSC,BR);

   3544  1 000161   200010 634500                    EPPR4   BR,,AUTO
         1 000162   200014 454500                    STP4    BR+4,,AUTO
         1 000163   000010 236000 2                  LDQ     8
         1 000164   200006 235100                    LDA     SYMB$,,AUTO
         1 000165   200012 757100                    STAQ    BR+2,,AUTO
         1 000166   200012 630500                    EPPR0   BR+2,,AUTO
         1 000167   000021 631400 xsym               EPPR1   B_VECTNIL+17
         1 000170   000000 701000 xent               TSX1    FOM$EVENT
         1 000171   000000 011000                    NOP     0
         1 000172   000226 710000 1                  TRA     s:3585

     1993     3545        /**
     1994     3546         **
     1995     3547         **
     1996     3548         **      FORMS PROGRAM ABORT
     1997     3549         **
     1998     3550         **
     1999     3551         **/
     2000     3552    2             CASE (FOMI_FNC_FPRG_ABORT#);

     2001     3553
     2002     3554    3                 DO INHIBIT;

     2003     3555    3                 IF SYMB$ -> FO$SYMB.FPABRT = '1'B

   3555  1 000173   200006 473700                    LDP3  ! SYMB$,,AUTO
         1 000174   300021 430300                    FSZN  ! 17,,PR3
         1 000175   000207 604200 1                  TMI   ! s:3560
         1 000176   300012 236300                    LDQ   ! 10,,PR3
         1 000177   000400 316207                    CANQ  ! 256,DL
         1 000200   000207 601200 1                  TNZ   ! s:3560
         1 000201   001000 316207                    CANQ  ! 512,DL
         1 000202   000207 601200 1                  TNZ   ! s:3560
         1 000203   300012 236300                    LDQ   ! 10,,PR3
PL6.E3A0      #006=FOM$SYMBIN File=FOM$MOOS.:E05TSI                              TUE 07/29/97 17:10 Page:266
         1 000204   000017 376207                    ANQ   ! 15,DL
         1 000205   000004 116207                    CMPQ  ! 4,DL
         1 000206   000210 601200 1                  TNZ   ! s:3562

     2004     3556    3                 OR SYMB$ -> FO$SYMB.EFLGB.IDSC = '1'B
     2005     3557    3                 OR SYMB$ -> FO$SYMB.EFLGB.FDSC = '1'B
     2006     3558    3                 OR SYMB$ -> FO$SYMB.STATE = FOMS_DCMP#
     2007     3559    3                 THEN
     2008     3560    3                  RETURN;

   3560  1 000207   000000 702200 xent               TSX2  ! X66_ARET

     2009     3561
     2010     3562    3                 SYMB$ -> FO$SYMB.FPABRT = '1'B;

   3562  1 000210   001000 236203                    LDQ   ! 512,DU
         1 000211   300021 256300                    ORSQ  ! 17,,PR3

     2011     3563    3                 CALL FOM$TELLAU (SYMB$ -> FO$SYMB,%CG_FPABORT#,0);

   3563  1 000212   000002 236200 2                  LDQ   ! 2
         1 000213   200014 756300                    STQ   ! BR+4,,AUTO
         1 000214   000012 236200 2                  LDQ   ! 10
         1 000215   200006 235300                    LDA   ! SYMB$,,AUTO
         1 000216   200012 757300                    STAQ  ! BR+2,,AUTO
         1 000217   200012 630700                    EPPR0 ! BR+2,,AUTO
         1 000220   000021 631600 xsym               EPPR1 ! B_VECTNIL+17
         1 000221   000000 701200 xent               TSX1  ! FOM$TELLAU
         1 000222   000000 011200                    NOP   ! 0

     2012     3564    3                 END;

   3564  1 000223   000226 710000 1                  TRA     s:3585

     2013     3565        /**
     2014     3566         **
     2015     3567         **
PL6.E3A0      #006=FOM$SYMBIN File=FOM$MOOS.:E05TSI                              TUE 07/29/97 17:10 Page:267
     2016     3568         **      OTHER CASES
     2017     3569         **
     2018     3570         **
     2019     3571         **/
     2020     3572
     2021     3573    2             CASE (ELSE);

     2022     3574    2               CALL SC_BADSYMBINFCN;

   3574  1 000224   000000 713400 xsym               CLIMB   SC_BADSYMBINFCN
         1 000225   000000 600000 xsid               climb   nvectors=         0

     2023     3575
     2024     3576        /*S* SCREECH_CODE:      FOM-S$BADSYMBINFCN
     2025     3577             TYPE:         SNAP
     2026     3578             MESSAGE:           Bad FCN passed to FOM$SYMBIN
     2027     3579             REMARKS:           Input circular FEP queue management has
     2028     3580                                decided that this message belongs to
     2029     3581                                FOM$SYMBIN,   who does not know the function
     2030     3582                           code. */
     2031     3583
     2032     3584    2           END; /*CASE FCN*/

     2033     3585    1         RETURN;

   3585  1 000226   000000 702200 xent               TSX2  ! X66_ARET

OUTSYM_USR
 Sect OctLoc
   0     000   003*** ******                                                    ....

(unnamed)
 Sect OctLoc
   2     000   000000 006000   000000 000020   000002 006000   000001 006000    ................
   2     004   000011 006000   000002 006000   000000 006000   777777 777760    ................
   2     010   000000 006000   000000 000031   000011 006000                    ............
     2034     3586        /**/
PL6.E3A0      #006=FOM$SYMBIN File=FOM$MOOS.:E05TSI                              TUE 07/29/97 17:10 Page:268
     2035     3587        /**/
     2036     3588    1   END FOM$SYMBIN;
     2037     3589        /**/
     2038     3590        /**/
     2039     3591        %EOD;

PL6.E3A0      #006=FOM$SYMBIN File=FOM$MOOS.:E05TSI                              TUE 07/29/97 17:10 Page:269
--  Include file information  --

   KC_CP6.:E05TOU  is referenced.
   FOM_DATA_R.:E05TOU  cannot be made into a system file and is referenced.
   KC_SUBS_C.:E05TOU  is referenced.
   FOM_SUBS_C.:E05TOU  is referenced.
   JG_GHOSTS_C.:E05TOU  is referenced.
   K$RWPARM.:E05TOU  is referenced.
   K_DATA_R.:E05TOU  cannot be made into a system file and is referenced.
   KV$VDO.:E05TOU  is referenced.
   NK$LDCT.:E05TOU  is referenced.
   FOM$STRUCT.:E05TOU  is referenced.
      No diagnostics issued in procedure FOM$SYMBIN.
PL6.E3A0      #006=FOM$SYMBIN File=FOM$MOOS.:E05TSI                              TUE 07/29/97 17:10 Page:270

 **** Variables and constants ****

  ****  Section 000 RoData FOM$SYMBIN

  ****  Scalars and arrays  ****
OctLoc.c.b A Datatyp(siz) R M Lvl/name                 OctLoc.c.b A Datatyp(siz) R M Lvl/name

     0-0-0/w UBIN(9)     r     1 OUTSYM_USR

  ****  Auto variables  ****

  ****  Scalars and arrays  ****
OctLoc.c.b A Datatyp(siz) R M Lvl/name                 OctLoc.c.b A Datatyp(siz) R M Lvl/name

     5-0-0/w PTR         r     1 @FCN                       4-0-0/w PTR         r     1 @K$RWPARM
     3-0-0/w PTR         r     1 @NK$LDCT                  10-0-0/w STRC        r     1 BR
    *0-0-0/w UBIN        r     1 FCN                       *0-0-0/d STRC(1404)  r     1 K$RWPARM
    *0-0-0/d STRC(864)   r     1 NK$LDCT                    6-0-0/w PTR         r     1 SYMB$

  ****  SYMREF variables  ****

  ****  Scalars and arrays  ****
OctLoc.c.b A Datatyp(siz) R M Lvl/name                 OctLoc.c.b A Datatyp(siz) R M Lvl/name

     0-0-0/w STRC        r     1 FOSE_IDSC                  0-0-0/w STRC        r     1 FOSE_SHTD

  ****  BASED and DCB variables  ****

  ****  Scalars and arrays  ****
OctLoc.c.b A Datatyp(siz) R M Lvl/name                 OctLoc.c.b A Datatyp(siz) R M Lvl/name

     0-0-0/w STRC(720)   r     1 FO$SYMB


   Procedure FOM$SYMBIN requires 151 words for executable code.
   Procedure FOM$SYMBIN requires 20 words of local(AUTO) storage.
PL6.E3A0      #006=FOM$SYMBIN File=FOM$MOOS.:E05TSI                              TUE 07/29/97 17:10 Page:271
          *** CROSS REFERENCE LISTING ***
**     DENOTES     IDENTIFIER DEFINITION
<<                 IDENTIFIER'S VALUE SET
>>                 IDENTIFIER'S VALUE USED
<>                 IDENTIFIER SET AND/OR USED
--                 IDENTIFIER REFERENCED
PL6.E3A0      #006=FOM$SYMBIN File=FOM$MOOS.:E05TSI                              TUE 07/29/97 17:10 Page:272
          MINI XREF LISTING

BR
      3392**DCL      3501<<ASSIGN   3502<>CALL     3542<<ASSIGN   3544<>CALL
FCN
      3262**DCL         8--PROC     3467>>DOCASE   3477>>DOCASE
FO$SYMB
      3361**DCL      3502<>CALL     3505<>CALL     3544<>CALL     3563<>CALL
FO$SYMB.BR.BLK#
      3362**DCL      3363--REDEF
FO$SYMB.BR.REC#
      3363**DCL      3364--REDEF
FO$SYMB.BUF$
      3361**DCL      3362--REDEF
FO$SYMB.CUREXT.STAMP
      3365**DCL      3366--REDEF
FO$SYMB.EFLGB.FDSC
      3374**DCL      3555>>IF
FO$SYMB.EFLGB.IDSC
      3375**DCL      3492>>IF       3555>>IF
FO$SYMB.EFLGB.SHTD
      3374**DCL      3497>>IF
FO$SYMB.FPABRT
      3379**DCL      3555>>IF       3562<<ASSIGN
FO$SYMB.SPACEPAGES
      3369**DCL      3370--REDEF
FO$SYMB.SPACING
      3372**DCL      3497>>IF
FO$SYMB.STATE
      3376**DCL      3497>>IF       3524>>IF       3530<<ASSIGN   3555>>IF
FO$SYMB.THROTTLING
      3368**DCL      3524>>IF       3528<<ASSIGN
FOM$DEBEV
      3406**DCL-ENT  3529--CALL
PL6.E3A0      #006=FOM$SYMBIN File=FOM$MOOS.:E05TSI                              TUE 07/29/97 17:10 Page:273
FOM$EVENT
      3403**DCL-ENT  3502--CALL     3544--CALL
FOM$TELLAU
      3405**DCL-ENT  3505--CALL     3563--CALL
FOSE_IDSC
      2241**DCL      3544<>CALL
FOSE_SHTD
      2226**DCL      3502<>CALL
K$RWPARM
      2967**DCL         8--PROC
K$RWPARM.BLKREC
      2993**DCL      3018--REDEF    3501>>ASSIGN   3542>>ASSIGN
K$RWPARM.BLKREC.BLKU#
      2994**DCL      2996--REDEF
K$RWPARM.BLKREC.RECU#
      3006**DCL      3008--REDEF
K$RWPARM.DVE.DVBYTE.VFC
      3033**DCL      3034--REDEF
K$RWPARM.DVE.EOMCHAR
      3041**DCL      3045--REDEF
K$RWPARM.ERR
      3105**DCL      3110--REDEF
K$RWPARM.FC
      3069**DCL      3070--REDEF
K$RWPARM.FLDID
      3251**DCL      3252--REDEF
K$RWPARM.FPT$
      3132**DCL      3139--REDEF
K$RWPARM.KEYTYPE
      3258**DCL      3259--REDEF
K$RWPARM.MRKTYP
      3243**DCL      3493>>IF
K$RWPARM.MSG$
      2968**DCL      2974--REDEF
K$RWPARM.MSGID
      3080**DCL      3085--REDEF
PL6.E3A0      #006=FOM$SYMBIN File=FOM$MOOS.:E05TSI                              TUE 07/29/97 17:10 Page:274
K$RWPARM.MSGIDXT
      3093**DCL      3097--REDEF
K$RWPARM.ORG
      3229**DCL      3230--REDEF
K$RWPARM.THDRSZ
      3173**DCL      3177--REDEF
K$RWPARM.VDOFLGS
      3231**DCL      3242--REDEF
K_RWPARM_CON.BLKREC
      1647**DCL      1672--REDEF
K_RWPARM_CON.BLKREC.BLKU#
      1648**DCL      1650--REDEF
K_RWPARM_CON.BLKREC.RECU#
      1660**DCL      1662--REDEF
K_RWPARM_CON.DVE.DVBYTE.VFC
      1687**DCL      1688--REDEF
K_RWPARM_CON.DVE.EOMCHAR
      1695**DCL      1699--REDEF
K_RWPARM_CON.ERR
      1759**DCL      1764--REDEF
K_RWPARM_CON.FC
      1723**DCL      1724--REDEF
K_RWPARM_CON.FLDID
      1905**DCL      1906--REDEF
K_RWPARM_CON.FPT$
      1786**DCL      1793--REDEF
K_RWPARM_CON.KEYTYPE
      1912**DCL      1913--REDEF
K_RWPARM_CON.MSG$
      1622**DCL      1628--REDEF
K_RWPARM_CON.MSGID
      1734**DCL      1739--REDEF
K_RWPARM_CON.MSGIDXT
      1747**DCL      1751--REDEF
K_RWPARM_CON.ORG
      1883**DCL      1884--REDEF
PL6.E3A0      #006=FOM$SYMBIN File=FOM$MOOS.:E05TSI                              TUE 07/29/97 17:10 Page:275
K_RWPARM_CON.THDRSZ
      1827**DCL      1831--REDEF
K_RWPARM_CON.VDOFLGS
      1885**DCL      1896--REDEF
NK$LDCT
      2913**DCL         8--PROC     3529--CALL
NK$LDCT.DDT$
      2915**DCL      2915--REDEF
NK$LDCT.DFLG.SYMBIONT
      2918**DCL      3466>>IF
NK$LDCT.IOQ$
      2914**DCL      2915--REDEF
NK$LDCT.LDCTX
      2916**DCL      2916--REDEF
NK$LDCT.LKFLG.ABORTED
      2928**DCL      2929--REDEF
NK$LDCT.RLCID.LDCTX
      2938**DCL      2938--REDEF
NK$LDCT.STA$
      2934**DCL      2935--REDEF
NK$LDCT.SYMB$
      2913**DCL      2913--REDEF    2913--REDEF    2914--REDEF    3473>>ASSIGN
OUTSYM_USR
      3384**DCL      3529<>CALL
SC_BADSYMBINFCN
      3402**DCL-ENT  3471--CALL     3574--CALL
SSV$EVENT
      3407**DCL-ENT  3529--CALL
SYMB$
      3390**DCL      3473<<ASSIGN   3492>>IF       3497>>IF       3497>>IF       3497>>IF       3502>>CALL
      3505>>CALL     3524>>IF       3524>>IF       3528>>ASSIGN   3530>>ASSIGN   3544>>CALL     3555>>IF
      3555>>IF       3555>>IF       3555>>IF       3562>>ASSIGN   3563>>CALL

PL6.E3A0      #007=FOM$REL File=FOM$MOOS.:E05TSI                                 TUE 07/29/97 17:10 Page:276
     2040        1        /*T***********************************************************/
     2041        2        /*T*                                                         */
     2042        3        /*T* Copyright (c) Bull HN Information Systems Inc., 1997    */
     2043        4        /*T*                                                         */
     2044        5        /*T***********************************************************/
     2045        6        /**/
     2046        7        /**/
     2047        8        FOM$REL: PROC (FO$SYMB) ALTRET; /* !!Doesn't ALTRET!! */
     2048        9        /**/
     2049       10        /**/
     2050       11        /*F* NAME:         FOM$REL
     2051       12             PURPOSE:      To release certain symbiont context
     2052       13             DESCRIPTION:
     2053       14                           The items released here are:
     2054       15
     2055       16                           - The IOQ packet
     2056       17                           - The virtual page mapping entry for the disk
     2057       18                              buffer
     2058       19                           - The TABS buffer used for storing tabs during
     2059       20                              spacing (unless we just finished spacing, in
     2060       21                              which case we want to save them.)
     2061       22
     2062       23                           This routine is called from within MOOS when it
     2063       24                           is determined that the context needed for symbiont
     2064       25                           I/O is no longer required.  This happens when
     2065       26                           the symbiont close function is executed, or
     2066       27                           when the terminal disconnects, or when symbiont
     2067       28                           I/O is to be temporarily discontinued (e.g. when
     2068       29                           a symbiont file error occurs, or when a suspend
     2069       30                           is executed).  */
     2070       31        /**/
     2071       32        /*  INCLUDES */
     2072       33        /**/
     2073       34        %INCLUDE B$USER;
     2074      250        %B$USERREFS;
     2075      254        %INCLUDE FOM$STRUCT;
     2076      315        %INCLUDE FOM_DATA_R;
PL6.E3A0      #007=FOM$REL File=FOM$MOOS.:E05TSI                                 TUE 07/29/97 17:10 Page:277
     2077      564        %INCLUDE NK$LDCT;
     2078      666        %INCLUDE KC_SUBS_C;
     2079      682        %INCLUDE JG_GHOSTS_C;
     2080      772        %INCLUDE NK_LDCT_R;
     2081      781        %INCLUDE KC_CP6;
     2082     1341
     2083     1342
     2084     1343        /**/
     2085     1344        /* PARAMETERS */
     2086     1345        /**/
     2087     1346        %FOM$SYMB (NAME=FO$SYMB,STCLASS="");
     2088     1378
     2089     1379
     2090     1380        /**/
     2091     1381        /* BASED STRUCTURES */
     2092     1382        /**/
     2093     1383        %NK$LDCT;
     2094     1429        %FOM$TABS;
     2095     1432    1   DCL B$$PTR PTR BASED ALIGNED;
     2096     1433
     2097     1434
     2098     1435        /**/
     2099     1436        /* AUTO */
     2100     1437        /**/
     2101     1438    1   DCL FEX UBIN WORD;
     2102     1439    1   DCL GORGO UBIN WORD;
     2103     1440    1   DCL IOQ$ REDEF GORGO PTR;
     2104     1441    1   DCL LDCT$ PTR;
     2105     1442    1   DCL TAB$ PTR;
     2106     1443    1   DCL BUF$ PTR;
     2107     1444
     2108     1445
     2109     1446        /**/
     2110     1447        /* CONSTANT */
     2111     1448        /**/
     2112     1449    1   DCL OUTSYM_USER UBIN(9) CONSTANT INIT(JG_OUTSYM#);
     2113     1450
PL6.E3A0      #007=FOM$REL File=FOM$MOOS.:E05TSI                                 TUE 07/29/97 17:10 Page:278
     2114     1451
     2115     1452        /**/
     2116     1453        /*  REFS */
     2117     1454        /**/
     2118     1455    1   DCL MMS$VREL           ENTRY(2) ALTRET;
     2119     1456    1   DCL NIQ$REL            ENTRY(1) ALTRET;
     2120     1457    1   DCL NKL$RELDCT         ENTRY(1) ALTRET;
     2121     1458    1   DCL SSV$EVENT          ENTRY(7);
     2122     1459
     2123     1460
     2124     1461        /**/
     2125     1462        /* SUBS */
     2126     1463        /**/
     2127     1464        %EQU_CG;
     2128     1512        /**/
     2129     1513        /**/
     2130     1514    1         LDCT$=NK$LDCT$(FO$SYMB.DEVLDCTX);
     2131     1515    1         FEX=LDCT$->NK$LDCT.RLCID.NODE;
     2132     1516    1         GOTO REL;
     2133     1517        /**/
     2134     1518        /**/
     2135     1519    1   FOM$IOQREL: ENTRY (FO$SYMB) ALTRET;
     2136     1520        /**/
     2137     1521        /**/
     2138     1522        /*F* NAME:         FOM$IOQREL
     2139     1523             PURPOSE:      To release a symbiont IOQ packet
     2140     1524             DESCRIPTION:  In order to ensure that the IOQ packet for a
     2141     1525                           symbiont does not get released during end-
     2142     1526                           action (which might cause interesting problems),
     2143     1527                           FOM$REL does not actually release the packet.
     2144     1528                           Instead, it passes a garbage event to OUTSYM,
     2145     1529                           with one of the parameters being the address of
     2146     1530                           the packet.  FOM$IOQREL is thus called just
     2147     1531                           before going to the user, and is thus guaranteed
     2148     1532                           that endac has completed.  FOM$IOQREL simply
     2149     1533                           releases the IOQ packet and then ALTRETs to pre-
     2150     1534                           vent the event from actually getting to the user */
PL6.E3A0      #007=FOM$REL File=FOM$MOOS.:E05TSI                                 TUE 07/29/97 17:10 Page:279
     2151     1535        /**/
     2152     1536    1         GORGO=ADDR(FO$SYMB)->B$$PTR->B$DO.EVID;
     2153     1537    1         CALL NIQ$REL (IOQ$);
     2154     1538    1         ALTRETURN;
     2155     1539        /**/
     2156     1540    1   REL:
     2157     1541    2           DO INHIBIT;
     2158     1542    2           IOQ$=FO$SYMB.IOQ$;
     2159     1543    2           BUF$=FO$SYMB.BUF$;
     2160     1544    2           FO$SYMB.IOQ$=ADDR(NIL);
     2161     1545    2           FO$SYMB.BUF$=ADDR(NIL);
     2162     1546    2           IF FO$SYMB.XMTABS = '0'B THEN
     2163     1547    3             DO;
     2164     1548    3             TAB$=FO$SYMB.TAB$;
     2165     1549    3             FO$SYMB.TAB$=ADDR(NIL);
     2166     1550    3             END;
     2167     1551    2           ELSE TAB$=ADDR(NIL);
     2168     1552    2           END;
     2169     1553    1         IF IOQ$~=ADDR(NIL) THEN
     2170     1554                                      /* SSV$EVENT passes async event to user */
     2171     1555    1          CALL SSV$EVENT (OUTSYM_USER,7,0,IOQ$,0,,ENTADDR(FOM$IOQREL));
     2172     1556    1         IF BUF$~=ADDR(NIL) THEN CALL MMS$VREL(FOM_WSQ,BUF$);
     2173     1557    1         IF TAB$ ~= ADDR(NIL) THEN
     2174     1558    2           DO;
     2175     1559    2           TAB$->NK$LDCT.LDCTX=TAB$->FO$TABS.LDCTX;
     2176     1560    2           CALL NKL$RELDCT(TAB$);
     2177     1561    2           END;
     2178     1562    1         RETURN;
     2179     1563    1   END FOM$REL;
     2180     1564        /**/
     2181     1565        /**/
     2182     1566        %EOD;

PL6.E3A0      #007=FOM$REL File=FOM$MOOS.:E05TSI                                 TUE 07/29/97 17:10 Page:280
--  Include file information  --

   KC_CP6.:E05TOU  is referenced.
   NK_LDCT_R.:E05TOU  cannot be made into a system file and is referenced.
   JG_GHOSTS_C.:E05TOU  is referenced.
   KC_SUBS_C.:E05TOU  is referenced.
   NK$LDCT.:E05TOU  is referenced.
   FOM_DATA_R.:E05TOU  cannot be made into a system file and is referenced.
   FOM$STRUCT.:E05TOU  is referenced.
   B$USER.:E05TOU  cannot be made into a system file and is referenced.
      No diagnostics issued in procedure FOM$REL.

   Procedure FOM$REL requires 88 words for executable code.
   Procedure FOM$REL requires 18 words of local(AUTO) storage.

PL6.E3A0      #007=FOM$REL File=FOM$MOOS.:E05TSI                                 TUE 07/29/97 17:10 Page:281

 Object Unit name= FOM$REL                                    File name= FOM$MOOS.:E05TOU
 UTS= JUL 29 '97 17:10:37.76 TUE                              Compiler= PL-6/E31         Sev=      00
 SharedLib= :SHARED_SYSTEM                                    Alt SharedLib=


    ****  Control sections  ****

 Sect   Type Bound  Init  Size OctSiz  Section name(segment info)
    0  RoData even  UTS      1      1  FOM$REL
    1   Proc  even  none    88    130  FOM$REL
    2  RoData even  none     6      6  FOM$REL

    ****  Entry defs  ****

                              Check   Calling
                             calling  sequence
  Sect OctLoc Primary Altret sequence   type   Parms  Name
     1      0   yes    yes     yes      Std        1  FOM$REL
     1     14          yes     yes      Std        1  FOM$IOQREL

  ****  Entry refs  ****

         Check        Calling
        calling       sequence
Altret sequence SRef   type   Args  Name
 yes     yes           Std       1 NIQ$REL
         yes           Std       7 SSV$EVENT
 yes     yes           Std       2 MMS$VREL
 yes     yes           Std       1 NKL$RELDCT
 yes     yes           Std       1 FOM$IOQREL
                       nStd      0 X66_AUTO_1
                       Std       0 B_CONSPOOL_D
                       nStd      0 X66_AALT
                       nStd      0 X66_ARET
PL6.E3A0      #007=FOM$REL File=FOM$MOOS.:E05TSI                                 TUE 07/29/97 17:10 Page:282

  ****  Data refs  ****

  Flags:  r = read only, s = secondary
Flgs Name                             Flgs Name                             Flgs Name
     FOM_WSQ                               N$DCT$$                               B_VECTNIL

  ****  Segment refs  ****

  Flags:  r = read only, s = secondary
Flgs Name                             Flgs Name                             Flgs Name
     ISSID
PL6.E3A0      #007=FOM$REL File=FOM$MOOS.:E05TSI                                 TUE 07/29/97 17:10 Page:283


     2040        1        /*T***********************************************************/
     2041        2        /*T*                                                         */
     2042        3        /*T* Copyright (c) Bull HN Information Systems Inc., 1997    */
     2043        4        /*T*                                                         */
     2044        5        /*T***********************************************************/
     2045        6        /**/
     2046        7        /**/
     2047        8        FOM$REL: PROC (FO$SYMB) ALTRET; /* !!Doesn't ALTRET!! */

      8  1 000000   000000 700200 xent  FOM$REL      TSX0  ! X66_AUTO_1
         1 000001   000022 000001                    ZERO    18,1

     2048        9        /**/
     2049       10        /**/
     2050       11        /*F* NAME:         FOM$REL
     2051       12             PURPOSE:      To release certain symbiont context
     2052       13             DESCRIPTION:
     2053       14                           The items released here are:
     2054       15
     2055       16                           - The IOQ packet
     2056       17                           - The virtual page mapping entry for the disk
     2057       18                              buffer
     2058       19                           - The TABS buffer used for storing tabs during
     2059       20                              spacing (unless we just finished spacing, in
     2060       21                              which case we want to save them.)
     2061       22
     2062       23                           This routine is called from within MOOS when it
     2063       24                           is determined that the context needed for symbiont
     2064       25                           I/O is no longer required.  This happens when
     2065       26                           the symbiont close function is executed, or
     2066       27                           when the terminal disconnects, or when symbiont
     2067       28                           I/O is to be temporarily discontinued (e.g. when
     2068       29                           a symbiont file error occurs, or when a suspend
     2069       30                           is executed).  */
     2070       31        /**/
     2071       32        /*  INCLUDES */
PL6.E3A0      #007=FOM$REL File=FOM$MOOS.:E05TSI                                 TUE 07/29/97 17:10 Page:284
     2072       33        /**/
     2073       34        %INCLUDE B$USER;
     2074      250        %B$USERREFS;
     2075      254        %INCLUDE FOM$STRUCT;
     2076      315        %INCLUDE FOM_DATA_R;
     2077      564        %INCLUDE NK$LDCT;
     2078      666        %INCLUDE KC_SUBS_C;
     2079      682        %INCLUDE JG_GHOSTS_C;
     2080      772        %INCLUDE NK_LDCT_R;
     2081      781        %INCLUDE KC_CP6;
     2082     1341
     2083     1342
     2084     1343        /**/
     2085     1344        /* PARAMETERS */
     2086     1345        /**/
     2087     1346        %FOM$SYMB (NAME=FO$SYMB,STCLASS="");
     2088     1378
     2089     1379
     2090     1380        /**/
     2091     1381        /* BASED STRUCTURES */
     2092     1382        /**/
     2093     1383        %NK$LDCT;
     2094     1429        %FOM$TABS;
     2095     1432    1   DCL B$$PTR PTR BASED ALIGNED;
     2096     1433
     2097     1434
     2098     1435        /**/
     2099     1436        /* AUTO */
     2100     1437        /**/
     2101     1438    1   DCL FEX UBIN WORD;
     2102     1439    1   DCL GORGO UBIN WORD;
     2103     1440    1   DCL IOQ$ REDEF GORGO PTR;
     2104     1441    1   DCL LDCT$ PTR;
     2105     1442    1   DCL TAB$ PTR;
     2106     1443    1   DCL BUF$ PTR;
     2107     1444
     2108     1445
PL6.E3A0      #007=FOM$REL File=FOM$MOOS.:E05TSI                                 TUE 07/29/97 17:10 Page:285
     2109     1446        /**/
     2110     1447        /* CONSTANT */
     2111     1448        /**/
     2112     1449    1   DCL OUTSYM_USER UBIN(9) CONSTANT INIT(JG_OUTSYM#);
     2113     1450
     2114     1451
     2115     1452        /**/
     2116     1453        /*  REFS */
     2117     1454        /**/
     2118     1455    1   DCL MMS$VREL           ENTRY(2) ALTRET;
     2119     1456    1   DCL NIQ$REL            ENTRY(1) ALTRET;
     2120     1457    1   DCL NKL$RELDCT         ENTRY(1) ALTRET;
     2121     1458    1   DCL SSV$EVENT          ENTRY(7);
     2122     1459
     2123     1460
     2124     1461        /**/
     2125     1462        /* SUBS */
     2126     1463        /**/
     2127     1464        %EQU_CG;
     2128     1512        /**/
     2129     1513        /**/
     2130     1514    1         LDCT$=NK$LDCT$(FO$SYMB.DEVLDCTX);

   1514  1 000002   200003 470500                    LDP0    @FO$SYMB,,AUTO
         1 000003   000010 720100                    LXL0    8,,PR0
         1 000004   000000 471400 xsym               LDP1    N$DCT$$
         1 000005   100000 236110                    LDQ     0,X0,PR1
         1 000006   200006 756100                    STQ     LDCT$,,AUTO

     2131     1515    1         FEX=LDCT$->NK$LDCT.RLCID.NODE;

   1515  1 000007   200006 473500                    LDP3    LDCT$,,AUTO
         1 000010   300015 236100                    LDQ     13,,PR3
         1 000011   000033 772000                    QRL     27
         1 000012   200004 756100                    STQ     FEX,,AUTO

     2132     1516    1         GOTO REL;
PL6.E3A0      #007=FOM$REL File=FOM$MOOS.:E05TSI                                 TUE 07/29/97 17:10 Page:286

   1516  1 000013   000031 710000 1                  TRA     REL

     2133     1517        /**/
     2134     1518        /**/
     2135     1519    1   FOM$IOQREL: ENTRY (FO$SYMB) ALTRET;

   1519  1 000014   000000 700200 xent  FOM$IOQREL   TSX0  ! X66_AUTO_1
         1 000015   000022 000001                    ZERO    18,1

     2136     1520        /**/
     2137     1521        /**/
     2138     1522        /*F* NAME:         FOM$IOQREL
     2139     1523             PURPOSE:      To release a symbiont IOQ packet
     2140     1524             DESCRIPTION:  In order to ensure that the IOQ packet for a
     2141     1525                           symbiont does not get released during end-
     2142     1526                           action (which might cause interesting problems),
     2143     1527                           FOM$REL does not actually release the packet.
     2144     1528                           Instead, it passes a garbage event to OUTSYM,
     2145     1529                           with one of the parameters being the address of
     2146     1530                           the packet.  FOM$IOQREL is thus called just
     2147     1531                           before going to the user, and is thus guaranteed
     2148     1532                           that endac has completed.  FOM$IOQREL simply
     2149     1533                           releases the IOQ packet and then ALTRETs to pre-
     2150     1534                           vent the event from actually getting to the user */
     2151     1535        /**/
     2152     1536    1         GORGO=ADDR(FO$SYMB)->B$$PTR->B$DO.EVID;

   1536  1 000016   200003 470500                    LDP0    @FO$SYMB,,AUTO
         1 000017   000000 471500                    LDP1    0,,PR0
         1 000020   100003 235100                    LDA     3,,PR1
         1 000021   200005 755100                    STA     GORGO,,AUTO

     2153     1537    1         CALL NIQ$REL (IOQ$);

   1537  1 000022   200005 631500                    EPPR1   GORGO,,AUTO
         1 000023   200012 451500                    STP1    BUF$+2,,AUTO
PL6.E3A0      #007=FOM$REL File=FOM$MOOS.:E05TSI                                 TUE 07/29/97 17:10 Page:287
         1 000024   200012 630500                    EPPR0   BUF$+2,,AUTO
         1 000025   000017 631400 xsym               EPPR1   B_VECTNIL+15
         1 000026   000000 701000 xent               TSX1    NIQ$REL
         1 000027   000000 011000                    NOP     0

     2154     1538    1         ALTRETURN;

   1538  1 000030   000000 702200 xent               TSX2  ! X66_AALT

     2155     1539        /**/
     2156     1540    1   REL:
     2157     1541    2           DO INHIBIT;

   1541  1 000031                       REL          null
     2158     1542    2           IOQ$=FO$SYMB.IOQ$;

   1542  1 000031   000001 236300                    LDQ   ! 1,,PR0
         1 000032   200005 756300                    STQ   ! GORGO,,AUTO

     2159     1543    2           BUF$=FO$SYMB.BUF$;

   1543  1 000033   000002 236300                    LDQ   ! 2,,PR0
         1 000034   200010 756300                    STQ   ! BUF$,,AUTO

     2160     1544    2           FO$SYMB.IOQ$=ADDR(NIL);

   1544  1 000035   000001 236200 xsym               LDQ   ! B_VECTNIL+1
         1 000036   000001 756300                    STQ   ! 1,,PR0

     2161     1545    2           FO$SYMB.BUF$=ADDR(NIL);

   1545  1 000037   000001 236200 xsym               LDQ   ! B_VECTNIL+1
         1 000040   000002 756300                    STQ   ! 2,,PR0

     2162     1546    2           IF FO$SYMB.XMTABS = '0'B THEN

   1546  1 000041   000012 236300                    LDQ   ! 10,,PR0
PL6.E3A0      #007=FOM$REL File=FOM$MOOS.:E05TSI                                 TUE 07/29/97 17:10 Page:288
         1 000042   000100 316207                    CANQ  ! 64,DL
         1 000043   000051 601200 1                  TNZ   ! s:1551

     2163     1547    3             DO;

     2164     1548    3             TAB$=FO$SYMB.TAB$;

   1548  1 000044   000000 236300                    LDQ   ! 0,,PR0
         1 000045   200007 756300                    STQ   ! TAB$,,AUTO

     2165     1549    3             FO$SYMB.TAB$=ADDR(NIL);

   1549  1 000046   000001 236200 xsym               LDQ   ! B_VECTNIL+1
         1 000047   000000 756300                    STQ   ! 0,,PR0

     2166     1550    3             END;

   1550  1 000050   000053 710200 1                  TRA   ! s:1553

     2167     1551    2           ELSE TAB$=ADDR(NIL);

   1551  1 000051   000001 236200 xsym               LDQ   ! B_VECTNIL+1
         1 000052   200007 756300                    STQ   ! TAB$,,AUTO

     2168     1552    2           END;

     2169     1553    1         IF IOQ$~=ADDR(NIL) THEN

   1553  1 000053   200005 236100                    LDQ     GORGO,,AUTO
         1 000054   000001 116000 xsym               CMPQ    B_VECTNIL+1
         1 000055   000100 600000 1                  TZE     s:1556

     2170     1554                                      /* SSV$EVENT passes async event to user */
     2171     1555    1          CALL SSV$EVENT (OUTSYM_USER,7,0,IOQ$,0,,ENTADDR(FOM$IOQREL));

   1555  1 000056   000014 636000 1                  EAQ     s:1519
         1 000057   200012 756100                    STQ     BUF$+2,,AUTO
PL6.E3A0      #007=FOM$REL File=FOM$MOOS.:E05TSI                                 TUE 07/29/97 17:10 Page:289
         1 000060   200012 631500                    EPPR1   BUF$+2,,AUTO
         1 000061   200021 451500                    STP1    BUF$+9,,AUTO
         1 000062   000001 236000 xsym               LDQ     B_VECTNIL+1
         1 000063   200020 756100                    STQ     BUF$+8,,AUTO
         1 000064   000000 236000 2                  LDQ     0
         1 000065   200017 756100                    STQ     BUF$+7,,AUTO
         1 000066   200005 634500                    EPPR4   GORGO,,AUTO
         1 000067   200016 454500                    STP4    BUF$+6,,AUTO
         1 000070   000002 237000 2                  LDAQ    2
         1 000071   200014 757100                    STAQ    BUF$+4,,AUTO
         1 000072   000004 236000 2                  LDQ     4
         1 000073   200013 756100                    STQ     BUF$+3,,AUTO
         1 000074   200013 630500                    EPPR0   BUF$+3,,AUTO
         1 000075   000025 631400 xsym               EPPR1   B_VECTNIL+21
         1 000076   000000 701000 xent               TSX1    SSV$EVENT
         1 000077   000000 011000                    NOP     0

     2172     1556    1         IF BUF$~=ADDR(NIL) THEN CALL MMS$VREL(FOM_WSQ,BUF$);

   1556  1 000100   200010 236100                    LDQ     BUF$,,AUTO
         1 000101   000001 116000 xsym               CMPQ    B_VECTNIL+1
         1 000102   000113 600000 1                  TZE     s:1557

   1556  1 000103   200010 630500                    EPPR0   BUF$,,AUTO
         1 000104   200013 450500                    STP0    BUF$+3,,AUTO
         1 000105   000005 236000 2                  LDQ     5
         1 000106   200012 756100                    STQ     BUF$+2,,AUTO
         1 000107   200012 630500                    EPPR0   BUF$+2,,AUTO
         1 000110   000020 631400 xsym               EPPR1   B_VECTNIL+16
         1 000111   000000 701000 xent               TSX1    MMS$VREL
         1 000112   000000 011000                    NOP     0

     2173     1557    1         IF TAB$ ~= ADDR(NIL) THEN

   1557  1 000113   200007 236100                    LDQ     TAB$,,AUTO
         1 000114   000001 116000 xsym               CMPQ    B_VECTNIL+1
         1 000115   000127 600000 1                  TZE     s:1562
PL6.E3A0      #007=FOM$REL File=FOM$MOOS.:E05TSI                                 TUE 07/29/97 17:10 Page:290

     2174     1558    2           DO;

     2175     1559    2           TAB$->NK$LDCT.LDCTX=TAB$->FO$TABS.LDCTX;

   1559  1 000116   200007 470500                    LDP0    TAB$,,AUTO
         1 000117   000000 220100                    LDX0    0,,PR0
         1 000120   000006 740100                    STX0    6,,PR0

     2176     1560    2           CALL NKL$RELDCT(TAB$);

   1560  1 000121   200007 630500                    EPPR0   TAB$,,AUTO
         1 000122   200012 450500                    STP0    BUF$+2,,AUTO
         1 000123   200012 630500                    EPPR0   BUF$+2,,AUTO
         1 000124   000017 631400 xsym               EPPR1   B_VECTNIL+15
         1 000125   000000 701000 xent               TSX1    NKL$RELDCT
         1 000126   000000 011000                    NOP     0

     2177     1561    2           END;

     2178     1562    1         RETURN;

   1562  1 000127   000000 702200 xent               TSX2  ! X66_ARET

OUTSYM_USER
 Sect OctLoc
   0     000   003*** ******                                                    ....

(unnamed)
 Sect OctLoc
   2     000   000002 006000   000000 000000   000011 006000   000002 006000    ................
   2     004   000000 006000   000000 006000                                    ........
     2179     1563    1   END FOM$REL;
     2180     1564        /**/
     2181     1565        /**/
     2182     1566        %EOD;

PL6.E3A0      #007=FOM$REL File=FOM$MOOS.:E05TSI                                 TUE 07/29/97 17:10 Page:291
--  Include file information  --

   KC_CP6.:E05TOU  is referenced.
   NK_LDCT_R.:E05TOU  cannot be made into a system file and is referenced.
   JG_GHOSTS_C.:E05TOU  is referenced.
   KC_SUBS_C.:E05TOU  is referenced.
   NK$LDCT.:E05TOU  is referenced.
   FOM_DATA_R.:E05TOU  cannot be made into a system file and is referenced.
   FOM$STRUCT.:E05TOU  is referenced.
   B$USER.:E05TOU  cannot be made into a system file and is referenced.
      No diagnostics issued in procedure FOM$REL.
PL6.E3A0      #007=FOM$REL File=FOM$MOOS.:E05TSI                                 TUE 07/29/97 17:10 Page:292

 **** Variables and constants ****

  ****  Section 000 RoData FOM$REL

  ****  Scalars and arrays  ****
OctLoc.c.b A Datatyp(siz) R M Lvl/name                 OctLoc.c.b A Datatyp(siz) R M Lvl/name

     0-0-0/w UBIN(9)     r     1 OUTSYM_USER

  ****  Auto variables  ****

  ****  Scalars and arrays  ****
OctLoc.c.b A Datatyp(siz) R M Lvl/name                 OctLoc.c.b A Datatyp(siz) R M Lvl/name

     3-0-0/w PTR         r     1 @FO$SYMB                  10-0-0/w PTR         r     1 BUF$
     4-0-0/w UBIN        r     1 FEX                       *0-0-0/w STRC(720)   r     1 FO$SYMB
     5-0-0/w UBIN        r     1 GORGO                      5-0-0/w PTR         r     1 IOQ$
     6-0-0/w PTR         r     1 LDCT$                      7-0-0/w PTR         r     1 TAB$

  ****  SYMREF variables  ****

  ****  Scalars and arrays  ****
OctLoc.c.b A Datatyp(siz) R M Lvl/name                 OctLoc.c.b A Datatyp(siz) R M Lvl/name

     0-0-0/w UBIN        r     1 FOM_WSQ                    0-0-0/w PTR         r     1 N$DCT$$

  ****  BASED and DCB variables  ****

  ****  Scalars and arrays  ****
OctLoc.c.b A Datatyp(siz) R M Lvl/name                 OctLoc.c.b A Datatyp(siz) R M Lvl/name

     0-0-0/w PTR         r     1 B$$PTR                     0-0-0/d STRC(396)   r     1 B$DO
     0-0-0/w STRC(360)   r     1 FO$TABS                    0-0-0/d STRC(864)   r     1 NK$LDCT
     0-0-0/w PTR         r     1 NK$LDCT$(0:0)

PL6.E3A0      #007=FOM$REL File=FOM$MOOS.:E05TSI                                 TUE 07/29/97 17:10 Page:293

   Procedure FOM$REL requires 88 words for executable code.
   Procedure FOM$REL requires 18 words of local(AUTO) storage.
PL6.E3A0      #007=FOM$REL File=FOM$MOOS.:E05TSI                                 TUE 07/29/97 17:10 Page:294
          *** CROSS REFERENCE LISTING ***
**     DENOTES     IDENTIFIER DEFINITION
<<                 IDENTIFIER'S VALUE SET
>>                 IDENTIFIER'S VALUE USED
<>                 IDENTIFIER SET AND/OR USED
--                 IDENTIFIER REFERENCED
PL6.E3A0      #007=FOM$REL File=FOM$MOOS.:E05TSI                                 TUE 07/29/97 17:10 Page:295
          MINI XREF LISTING

B$$PTR
      1432**DCL      1536>>ASSIGN
B$DO.ECCINFO
       185**DCL       186--REDEF
B$DO.EVID
       179**DCL      1536>>ASSIGN
B$U.MISC
       164**DCL       165--REDEF
B$USER.MISC
       240**DCL       241--REDEF
BUF$
      1443**DCL      1543<<ASSIGN   1556>>IF       1556<>CALL
FEX
      1438**DCL      1515<<ASSIGN
FO$SYMB
      1357**DCL         8--PROC     1519--ENTRY    1536--ASSIGN
FO$SYMB.BR.BLK#
      1358**DCL      1359--REDEF
FO$SYMB.BR.REC#
      1359**DCL      1360--REDEF
FO$SYMB.BUF$
      1357**DCL      1358--REDEF    1543>>ASSIGN   1545<<ASSIGN
FO$SYMB.CUREXT.STAMP
      1361**DCL      1362--REDEF
FO$SYMB.DEVLDCTX
      1365**DCL      1514>>ASSIGN
FO$SYMB.IOQ$
      1357**DCL      1542>>ASSIGN   1544<<ASSIGN
FO$SYMB.SPACEPAGES
      1365**DCL      1366--REDEF
FO$SYMB.TAB$
      1357**DCL      1548>>ASSIGN   1549<<ASSIGN
PL6.E3A0      #007=FOM$REL File=FOM$MOOS.:E05TSI                                 TUE 07/29/97 17:10 Page:296
FO$SYMB.XMTABS
      1371**DCL      1546>>IF
FO$TABS.LDCTX
      1430**DCL      1559>>ASSIGN
FO$TABS.TABS
      1430**DCL      1430--REDEF
FOM$IOQREL
      1519**ENTRY    1555--CALL
FOM_WSQ
       323**DCL      1556<>CALL
GORGO
      1439**DCL      1440--REDEF    1536<<ASSIGN
IOQ$
      1440**DCL      1537<>CALL     1542<<ASSIGN   1553>>IF       1555<>CALL
LDCT$
      1441**DCL      1514<<ASSIGN   1515>>ASSIGN
MMS$VREL
      1455**DCL-ENT  1556--CALL
N$DCT$$
       779**DCL       779--IMP-PTR  1514>>ASSIGN
NIQ$REL
      1456**DCL-ENT  1537--CALL
NK$LDCT.DDT$
      1398**DCL      1398--REDEF
NK$LDCT.IOQ$
      1397**DCL      1398--REDEF
NK$LDCT.LDCTX
      1399**DCL      1399--REDEF    1559<<ASSIGN
NK$LDCT.LKFLG.ABORTED
      1411**DCL      1412--REDEF
NK$LDCT.RLCID.LDCTX
      1421**DCL      1421--REDEF
NK$LDCT.RLCID.NODE
      1420**DCL      1515>>ASSIGN
NK$LDCT.STA$
      1417**DCL      1418--REDEF
PL6.E3A0      #007=FOM$REL File=FOM$MOOS.:E05TSI                                 TUE 07/29/97 17:10 Page:297
NK$LDCT.SYMB$
      1396**DCL      1396--REDEF    1396--REDEF    1397--REDEF
NK$LDCT$
       779**DCL      1514>>ASSIGN
NKL$RELDCT
      1457**DCL-ENT  1560--CALL
OUTSYM_USER
      1449**DCL      1555<>CALL
REL
      1541**LABEL    1516--GOTO
SSV$EVENT
      1458**DCL-ENT  1555--CALL
TAB$
      1442**DCL      1548<<ASSIGN   1551<<ASSIGN   1557>>IF       1559>>ASSIGN   1559>>ASSIGN   1560<>CALL

PL6.E3A0      #008=FOM$SBREL File=FOM$MOOS.:E05TSI                               TUE 07/29/97 17:10 Page:298
     2183        1        /*T***********************************************************/
     2184        2        /*T*                                                         */
     2185        3        /*T* Copyright (c) Bull HN Information Systems Inc., 1997    */
     2186        4        /*T*                                                         */
     2187        5        /*T***********************************************************/
     2188        6        /**/
     2189        7        /**/
     2190        8        FOM$SBREL: PROC (NK$LDCT);
     2191        9        /**/
     2192       10        /**/
     2193       11        /*F* NAME:         FOM$SBREL
     2194       12             PURPOSE:      To release context for a symbiont comgroup terminal
     2195       13             DESCRIPTION:  Called from KDC$PREL when the path is finally
     2196       14                           being released.  KCD$PREL is called from KCO$DSCTRM
     2197       15                           (which is called from KQP$DISC),
     2198       16                           as part of final disconnect.  Note that KQP$DISC
     2199       17                           is called at MOOS's discretion (from FOM$EVENT),
     2200       18                           and thus we only get here after KQP$DISC has been
     2201       19                           called.
     2202       20        */
     2203       21        /**/
     2204       22        /**/
     2205       23        /**/
     2206       24        /*  INCLUDES */
     2207       25        /**/
     2208       26        %INCLUDE NK$LDCT;
     2209      128        %INCLUDE FOM$STRUCT;
     2210      189        %INCLUDE FOM_DATA_R;
     2211      438
     2212      439
     2213      440        /**/
     2214      441        /* PARAMETERS */
     2215      442        /**/
     2216      443        %NK$LDCT (STCLASS="");
     2217      489
     2218      490
     2219      491        /**/
PL6.E3A0      #008=FOM$SBREL File=FOM$MOOS.:E05TSI                               TUE 07/29/97 17:10 Page:299
     2220      492        /* BASED STRUCTURES */
     2221      493        /**/
     2222      494        %FOM$SYMB (NAME=FO$SYMB);
     2223      526        %NK$LDCT (NAME=LDCT,STCLASS=BASED);
     2224      572
     2225      573
     2226      574        /**/
     2227      575        /* AUTO */
     2228      576        /**/
     2229      577    1   DCL SYMB$ PTR;
     2230      578
     2231      579
     2232      580        /**/
     2233      581        /*  REFS */
     2234      582        /**/
     2235      583    1   DCL FOM$EVENT          ENTRY(3) ALTRET;
     2236      584    1   DCL NKL$RELDCT         ENTRY(1) ALTRET;
     2237      585    1   DCL NKL$RELDCTL        ENTRY(1) ALTRET;
     2238      586        /**/
     2239      587        /**/
     2240      588    1         SYMB$=NK$LDCT.SYMB$;
     2241      589    2           DO INHIBIT;
     2242      590    2           NK$LDCT.DFLG.SYMBIONT='0'B;
     2243      591    2           CALL FOM$EVENT (SYMB$->FO$SYMB,FOSE_FDSC);
     2244      592    2           END;
     2245      593    1         CALL NKL$RELDCTL (ADDR(NK$LDCT));
     2246      594    1         SYMB$->LDCT.LDCTX=SYMB$->FO$SYMB.LDCTX; /* MAKE SURE LDCTX IS IN RIGHT SPOT */
     2247      595    1         CALL NKL$RELDCT (SYMB$);
     2248      596    1         RETURN;
     2249      597        /**/
     2250      598        /**/
     2251      599    1   END FOM$SBREL;
     2252      600        /**/
     2253      601        %EOD;

PL6.E3A0      #008=FOM$SBREL File=FOM$MOOS.:E05TSI                               TUE 07/29/97 17:10 Page:300
--  Include file information  --

   FOM_DATA_R.:E05TOU  cannot be made into a system file and is referenced.
   FOM$STRUCT.:E05TOU  is referenced.
   NK$LDCT.:E05TOU  is referenced.
      No diagnostics issued in procedure FOM$SBREL.

   Procedure FOM$SBREL requires 33 words for executable code.
   Procedure FOM$SBREL requires 8 words of local(AUTO) storage.

PL6.E3A0      #008=FOM$SBREL File=FOM$MOOS.:E05TSI                               TUE 07/29/97 17:10 Page:301

 Object Unit name= FOM$SBREL                                  File name= FOM$MOOS.:E05TOU
 UTS= JUL 29 '97 17:10:44.68 TUE                              Compiler= PL-6/E31         Sev=      00
 SharedLib= :SHARED_SYSTEM                                    Alt SharedLib=


    ****  Control sections  ****

 Sect   Type Bound  Init  Size OctSiz  Section name(segment info)
    0   Proc  even  none    33     41  FOM$SBREL
    1  RoData even  none     2      2  FOM$SBREL

    ****  Entry defs  ****

                              Check   Calling
                             calling  sequence
  Sect OctLoc Primary Altret sequence   type   Parms  Name
     0      0   yes            yes      Std        1  FOM$SBREL

  ****  Entry refs  ****

         Check        Calling
        calling       sequence
Altret sequence SRef   type   Args  Name
 yes     yes           Std       3 FOM$EVENT
 yes     yes           Std       1 NKL$RELDCTL
 yes     yes           Std       1 NKL$RELDCT
                       nStd      0 X66_AUTO_1
                       Std       0 B_CONSPOOL_D
                       nStd      0 X66_ARET

  ****  Data refs  ****

  Flags:  r = read only, s = secondary
Flgs Name                             Flgs Name                             Flgs Name
r    FOSE_FDSC                             B_VECTNIL
PL6.E3A0      #008=FOM$SBREL File=FOM$MOOS.:E05TSI                               TUE 07/29/97 17:10 Page:302

  ****  Segment refs  ****

  Flags:  r = read only, s = secondary
Flgs Name                             Flgs Name                             Flgs Name
     ISSID
PL6.E3A0      #008=FOM$SBREL File=FOM$MOOS.:E05TSI                               TUE 07/29/97 17:10 Page:303


     2183        1        /*T***********************************************************/
     2184        2        /*T*                                                         */
     2185        3        /*T* Copyright (c) Bull HN Information Systems Inc., 1997    */
     2186        4        /*T*                                                         */
     2187        5        /*T***********************************************************/
     2188        6        /**/
     2189        7        /**/
     2190        8        FOM$SBREL: PROC (NK$LDCT);

      8  0 000000   000000 700200 xent  FOM$SBREL    TSX0  ! X66_AUTO_1
         0 000001   000010 000001                    ZERO    8,1

     2191        9        /**/
     2192       10        /**/
     2193       11        /*F* NAME:         FOM$SBREL
     2194       12             PURPOSE:      To release context for a symbiont comgroup terminal
     2195       13             DESCRIPTION:  Called from KDC$PREL when the path is finally
     2196       14                           being released.  KCD$PREL is called from KCO$DSCTRM
     2197       15                           (which is called from KQP$DISC),
     2198       16                           as part of final disconnect.  Note that KQP$DISC
     2199       17                           is called at MOOS's discretion (from FOM$EVENT),
     2200       18                           and thus we only get here after KQP$DISC has been
     2201       19                           called.
     2202       20        */
     2203       21        /**/
     2204       22        /**/
     2205       23        /**/
     2206       24        /*  INCLUDES */
     2207       25        /**/
     2208       26        %INCLUDE NK$LDCT;
     2209      128        %INCLUDE FOM$STRUCT;
     2210      189        %INCLUDE FOM_DATA_R;
     2211      438
     2212      439
     2213      440        /**/
     2214      441        /* PARAMETERS */
PL6.E3A0      #008=FOM$SBREL File=FOM$MOOS.:E05TSI                               TUE 07/29/97 17:10 Page:304
     2215      442        /**/
     2216      443        %NK$LDCT (STCLASS="");
     2217      489
     2218      490
     2219      491        /**/
     2220      492        /* BASED STRUCTURES */
     2221      493        /**/
     2222      494        %FOM$SYMB (NAME=FO$SYMB);
     2223      526        %NK$LDCT (NAME=LDCT,STCLASS=BASED);
     2224      572
     2225      573
     2226      574        /**/
     2227      575        /* AUTO */
     2228      576        /**/
     2229      577    1   DCL SYMB$ PTR;
     2230      578
     2231      579
     2232      580        /**/
     2233      581        /*  REFS */
     2234      582        /**/
     2235      583    1   DCL FOM$EVENT          ENTRY(3) ALTRET;
     2236      584    1   DCL NKL$RELDCT         ENTRY(1) ALTRET;
     2237      585    1   DCL NKL$RELDCTL        ENTRY(1) ALTRET;
     2238      586        /**/
     2239      587        /**/
     2240      588    1         SYMB$=NK$LDCT.SYMB$;

    588  0 000002   200003 470500                    LDP0    @NK$LDCT,,AUTO
         0 000003   000000 236100                    LDQ     0,,PR0
         0 000004   200004 756100                    STQ     SYMB$,,AUTO

     2241      589    2           DO INHIBIT;

     2242      590    2           NK$LDCT.DFLG.SYMBIONT='0'B;

    590  0 000005   000000 236200 1                  LDQ   ! 0
         0 000006   000006 356300                    ANSQ  ! 6,,PR0
PL6.E3A0      #008=FOM$SBREL File=FOM$MOOS.:E05TSI                               TUE 07/29/97 17:10 Page:305

     2243      591    2           CALL FOM$EVENT (SYMB$->FO$SYMB,FOSE_FDSC);

    591  0 000007   000001 236200 1                  LDQ   ! 1
         0 000010   200004 235300                    LDA   ! SYMB$,,AUTO
         0 000011   200006 757300                    STAQ  ! SYMB$+2,,AUTO
         0 000012   200006 630700                    EPPR0 ! SYMB$+2,,AUTO
         0 000013   000020 631600 xsym               EPPR1 ! B_VECTNIL+16
         0 000014   000000 701200 xent               TSX1  ! FOM$EVENT
         0 000015   000000 011200                    NOP   ! 0

     2244      592    2           END;

     2245      593    1         CALL NKL$RELDCTL (ADDR(NK$LDCT));

    593  0 000016   200003 236100                    LDQ     @NK$LDCT,,AUTO
         0 000017   200006 756100                    STQ     SYMB$+2,,AUTO
         0 000020   200006 630500                    EPPR0   SYMB$+2,,AUTO
         0 000021   200007 450500                    STP0    SYMB$+3,,AUTO
         0 000022   200007 630500                    EPPR0   SYMB$+3,,AUTO
         0 000023   000017 631400 xsym               EPPR1   B_VECTNIL+15
         0 000024   000000 701000 xent               TSX1    NKL$RELDCTL
         0 000025   000000 011000                    NOP     0

     2246      594    1        SYMB$->LDCT.LDCTX=SYMB$->FO$SYMB.LDCTX; /* MAKE SURE LDCTX IS IN RIGHT SPOT */

    594  0 000026   200004 470500                    LDP0    SYMB$,,AUTO
         0 000027   000010 220100                    LDX0    8,,PR0
         0 000030   077777 360003                    ANX0    32767,DU
         0 000031   000006 740100                    STX0    6,,PR0

     2247      595    1         CALL NKL$RELDCT (SYMB$);

    595  0 000032   200004 631500                    EPPR1   SYMB$,,AUTO
         0 000033   200006 451500                    STP1    SYMB$+2,,AUTO
         0 000034   200006 630500                    EPPR0   SYMB$+2,,AUTO
         0 000035   000017 631400 xsym               EPPR1   B_VECTNIL+15
PL6.E3A0      #008=FOM$SBREL File=FOM$MOOS.:E05TSI                               TUE 07/29/97 17:10 Page:306
         0 000036   000000 701000 xent               TSX1    NKL$RELDCT
         0 000037   000000 011000                    NOP     0

     2248      596    1         RETURN;

    596  0 000040   000000 702200 xent               TSX2  ! X66_ARET

(unnamed)
 Sect OctLoc
   1     000   777777 757777   000000 006000                                    ........
     2249      597        /**/
     2250      598        /**/
     2251      599    1   END FOM$SBREL;
     2252      600        /**/
     2253      601        %EOD;

PL6.E3A0      #008=FOM$SBREL File=FOM$MOOS.:E05TSI                               TUE 07/29/97 17:10 Page:307
--  Include file information  --

   FOM_DATA_R.:E05TOU  cannot be made into a system file and is referenced.
   FOM$STRUCT.:E05TOU  is referenced.
   NK$LDCT.:E05TOU  is referenced.
      No diagnostics issued in procedure FOM$SBREL.
PL6.E3A0      #008=FOM$SBREL File=FOM$MOOS.:E05TSI                               TUE 07/29/97 17:10 Page:308

 **** Variables and constants ****

  ****  Auto variables  ****

  ****  Scalars and arrays  ****
OctLoc.c.b A Datatyp(siz) R M Lvl/name                 OctLoc.c.b A Datatyp(siz) R M Lvl/name

     3-0-0/w PTR         r     1 @NK$LDCT                  *0-0-0/d STRC(864)   r     1 NK$LDCT
     4-0-0/w PTR         r     1 SYMB$

  ****  SYMREF variables  ****

  ****  Scalars and arrays  ****
OctLoc.c.b A Datatyp(siz) R M Lvl/name                 OctLoc.c.b A Datatyp(siz) R M Lvl/name

     0-0-0/w STRC        r     1 FOSE_FDSC

  ****  BASED and DCB variables  ****

  ****  Scalars and arrays  ****
OctLoc.c.b A Datatyp(siz) R M Lvl/name                 OctLoc.c.b A Datatyp(siz) R M Lvl/name

     0-0-0/w STRC(720)   r     1 FO$SYMB                    0-0-0/d STRC(864)   r     1 LDCT


   Procedure FOM$SBREL requires 33 words for executable code.
   Procedure FOM$SBREL requires 8 words of local(AUTO) storage.
PL6.E3A0      #008=FOM$SBREL File=FOM$MOOS.:E05TSI                               TUE 07/29/97 17:10 Page:309
          *** CROSS REFERENCE LISTING ***
**     DENOTES     IDENTIFIER DEFINITION
<<                 IDENTIFIER'S VALUE SET
>>                 IDENTIFIER'S VALUE USED
<>                 IDENTIFIER SET AND/OR USED
--                 IDENTIFIER REFERENCED
PL6.E3A0      #008=FOM$SBREL File=FOM$MOOS.:E05TSI                               TUE 07/29/97 17:10 Page:310
          MINI XREF LISTING

FO$SYMB
       505**DCL       591<>CALL
FO$SYMB.BR.BLK#
       506**DCL       507--REDEF
FO$SYMB.BR.REC#
       507**DCL       508--REDEF
FO$SYMB.BUF$
       505**DCL       506--REDEF
FO$SYMB.CUREXT.STAMP
       509**DCL       510--REDEF
FO$SYMB.LDCTX
       513**DCL       594>>ASSIGN
FO$SYMB.SPACEPAGES
       513**DCL       514--REDEF
FOM$EVENT
       583**DCL-ENT   591--CALL
FOSE_FDSC
       359**DCL       591<>CALL
LDCT.DDT$
       541**DCL       541--REDEF
LDCT.IOQ$
       540**DCL       541--REDEF
LDCT.LDCTX
       542**DCL       542--REDEF     594<<ASSIGN
LDCT.LKFLG.ABORTED
       554**DCL       555--REDEF
LDCT.RLCID.LDCTX
       564**DCL       564--REDEF
LDCT.STA$
       560**DCL       561--REDEF
LDCT.SYMB$
       539**DCL       539--REDEF     539--REDEF     540--REDEF
PL6.E3A0      #008=FOM$SBREL File=FOM$MOOS.:E05TSI                               TUE 07/29/97 17:10 Page:311
NK$LDCT
       456**DCL         8--PROC      593--CALL
NK$LDCT.DDT$
       458**DCL       458--REDEF
NK$LDCT.DFLG.SYMBIONT
       461**DCL       590<<ASSIGN
NK$LDCT.IOQ$
       457**DCL       458--REDEF
NK$LDCT.LDCTX
       459**DCL       459--REDEF
NK$LDCT.LKFLG.ABORTED
       471**DCL       472--REDEF
NK$LDCT.RLCID.LDCTX
       481**DCL       481--REDEF
NK$LDCT.STA$
       477**DCL       478--REDEF
NK$LDCT.SYMB$
       456**DCL       456--REDEF     456--REDEF     457--REDEF     588>>ASSIGN
NKL$RELDCT
       584**DCL-ENT   595--CALL
NKL$RELDCTL
       585**DCL-ENT   593--CALL
SYMB$
       577**DCL       588<<ASSIGN    591>>CALL      594>>ASSIGN    594>>ASSIGN    595<>CALL

