PL6.E3A0      #009=FOM$EVENT File=FOM$MOOS.:E05TSI                               TUE 07/29/97 17:10 Page:312
     2254        1        /*T***********************************************************/
     2255        2        /*T*                                                         */
     2256        3        /*T* Copyright (c) Bull HN Information Systems Inc., 1997    */
     2257        4        /*T*                                                         */
     2258        5        /*T***********************************************************/
     2259        6        /**/
     2260        7        /**/
     2261        8        FOM$EVENT: PROC (FO$SYMB,FO$SEVNT,INFO) ALTRET;
     2262        9        /**/
     2263       10        /*F* NAME:         FOM$EVENT
     2264       11             PURPOSE:      To co-ordinate MOOS symbiont events
     2265       12             DESCRIPTION:  MOOS can receive events such has disconnect
     2266       13                           or symbiont-terminal-held asynchronously with
     2267       14                           respect to his normal activities of reading
     2268       15                           disk and writing to device.  These events
     2269       16                           are reported to FOM$EVENT, who, if MOOS is
     2270       17                           busy with something else, just records them.
     2271       18
     2272       19                           The main parts of MOOS (disk reader, and device
     2273       20                           writer) report in to FOM$EVENT whenever something
     2274       21                           significant like disk I/O complete or device I/O
     2275       22                           complete happens.  If nothing has occurred to
     2276       23                           prevent normal continuation of the sequence,
     2277       24                           FOM$EVENT just returns to these callers.  Otherwise
     2278       25                           he takes appropriate action, and then ALTRETs to
     2279       26                           tell the caller to just get out.
     2280       27        */
     2281       28        /**/
     2282       29        /**/
     2283       30        /*  INCLUDES */
     2284       31        /**/
     2285       32        %INCLUDE FOM$STRUCT;
     2286       93        %INCLUDE NK$LDCT;
     2287      195        %INCLUDE FOM_SUBS_C;
     2288      258        %INCLUDE KC_SUBS_C;
     2289      274        %INCLUDE KV$VDO;
     2290     1289        %INCLUDE K_DATA_R;
PL6.E3A0      #009=FOM$EVENT File=FOM$MOOS.:E05TSI                               TUE 07/29/97 17:10 Page:313
     2291     2000        %INCLUDE NK_LDCT_R;
     2292     2009        %INCLUDE KQ_MAC_C;
     2293     4559        %INCLUDE KC_CP6;
     2294     5119        %INCLUDE KC$CP6V_C;
     2295     5239        %INCLUDE KQ_SUBS_C;
     2296     5539
     2297     5540
     2298     5541        /**/
     2299     5542        /* PARAMETERS */
     2300     5543        /**/
     2301     5544        %FOM$SYMB (NAME=FO$SYMB,STCLASS="");
     2302     5576        %FOM$SEVNT (STCLASS="");
     2303     5591    1   DCL INFO UBIN WORD;
     2304     5592    1   DCL HLTRSN REDEF INFO UBIN WORD;
     2305     5593    1   DCL BLKREC REDEF INFO BIT(36);
     2306     5594
     2307     5595
     2308     5596        /**/
     2309     5597        /* BASED STRUCTURES */
     2310     5598        /**/
     2311     5599    1   DCL B$$WORD UBIN WORD BASED ALIGNED;
     2312     5600        %KQ_STA (FPTN=KQ$STA,STCLASS=BASED);
     2313     5939        %KQ_CG  (FPTN=KQ$CG ,STCLASS=BASED);
     2314     6678        %NK$LDCT;
     2315     6724
     2316     6725
     2317     6726        /**/
     2318     6727        /* AUTO */
     2319     6728        /**/
     2320     6729        %K$RWPARM (NAME=K$RWPARM);
     2321     7045    1   DCL STA$ PTR;
     2322     7046    1   DCL CG$ PTR;
     2323     7047    1   DCL STATE UBIN WORD;
     2324     7048    1   DCL ECCSC UBIN WORD;
     2325     7049    1   DCL LDCT$ PTR;
     2326     7050    1   DCL OP$ PTR;
     2327     7051
PL6.E3A0      #009=FOM$EVENT File=FOM$MOOS.:E05TSI                               TUE 07/29/97 17:10 Page:314
     2328     7052
     2329     7053        /**/
     2330     7054        /*  REFS */
     2331     7055        /**/
     2332     7056        %KV_VDO_ALL_E;
     2333     7135    1   DCL SC_BADSYMBEVST ENTRY CONV(2,0);
     2334     7136    1   DCL SC_BADSYMBEVENT ENTRY CONV(2,0);
     2335     7137    1   DCL SC_BADSYMBSTATE ENTRY CONV(2,0);
     2336     7138    1   DCL FOM$REL            ENTRY(1) ALTRET;
     2337     7139    1   DCL FOM$TIMR           ENTRY(1);
     2338     7140    1   DCL KCA$TELLAU         ENTRY(3) ALTRET;
     2339     7141    1   DCL KIA$FCNO ENTRY (3) ALTRET;
     2340     7142    1   DCL KQP$DISC           ENTRY(1) ALTRET;
     2341     7143    1   DCL KQX$LDASR          ENTRY(1);
     2342     7144    1   DCL SSC$MONTIMR        ENTRY(3);
     2343     7145
     2344     7146
     2345     7147        /**/
     2346     7148        /* SUBS */
     2347     7149        /**/
     2348     7150        %EQU_CG;
     2349     7198        /**/
     2350     7199        /**/
     2351     7200                                /* RUN THE WHOLE THING INHIBITED */
     2352     7201    2           DO INHIBIT;
     2353     7202                                /* GET THE CURRENT STATE */
     2354     7203    2           STATE=FO$SYMB.STATE;
     2355     7204    2           LDCT$=NK$LDCT$(FO$SYMB.DEVLDCTX);
     2356     7205                                /* IF EVENT DEMANDS A SPECIFIC OLD STATE,
     2357     7206                                   THEN VERIFY IT */
     2358     7207    2           IF FO$SEVNT.OLDSTATE~=0
     2359     7208    2           AND FO$SEVNT.OLDSTATE~=STATE THEN CALL BADEVST;
     2360     7209                                /* CHECK FOR BAD FLAGS */
     2361     7210    2           IF (FO$SEVNT.BADFLG&FO$SYMB.EFLGB) THEN CALL BADEVST;
     2362     7211                                /* DECIDE WHAT SORT OF EVENT IT IS */
     2363     7212    2           IF FO$SEVNT.SPECIAL='0'B THEN
     2364     7213    3   NOSPC:    DO;
PL6.E3A0      #009=FOM$EVENT File=FOM$MOOS.:E05TSI                               TUE 07/29/97 17:10 Page:315
     2365     7214                                /* SIMPLE STATE-CHANGE EVENT.  IF ALL
     2366     7215                                   ASYNC EVENT FLAGS ARE CLEAR, THEN JUST
     2367     7216                                   CHANGE STATE AND RETURN */
     2368     7217    3             IF FO$SYMB.EFLGB='0'B THEN
     2369     7218    4               DO;
     2370     7219    4               FO$SYMB.STATE=FO$SEVNT.NEWSTATE;
     2371     7220    4               RETURN;
     2372     7221    4               END;
     2373     7222                                /* ASYNC EVENT FLAGS NOT CLEAR.  EXAMINE
     2374     7223                                   THEM AND DO THAT WHICH IS INDICATED.
     2375     7224                                   IN ANY CASE, ALTRET SO THE CALLER KNOWS
     2376     7225                                   HE'S BEEN INTERRUPTED.  HE WILL TYPICALLY
     2377     7226                                   JUST EXIT, KNOWING THAT WE'VE DONE
     2378     7227                                   WHAT'S REQUIRED */
     2379     7228    3             ELSE GOTO REPORT_IN;
     2380     7229    3             END;
     2381     7230                                /* SPECIAL EVENT */
     2382     7231    2           ELSE
     2383     7232    3             DO;
     2384     7233        /**
     2385     7234         **
     2386     7235         **
     2387     7236         **      VECTOR ON SPECIAL EVENT CODE
     2388     7237         **
     2389     7238         **
     2390     7239         **/
     2391     7240    4               DO CASE (FO$SEVNT.EVENT);
     2392     7241        /**
     2393     7242         **
     2394     7243         **      SYMBIONT GRANULE WRITTEN
     2395     7244         **
     2396     7245         **/
     2397     7246                                      /* Symbiont write done event */
     2398     7247    4                 CASE (FOSE_SWDN#);
     2399     7248    4                   IF LDCT$->NK$LDCT.DFLG.LOCAL THEN
     2400     7249    4                    IF STATE = FOMS_DVIO# THEN
     2401     7250    4                     GOTO NOSPC;
PL6.E3A0      #009=FOM$EVENT File=FOM$MOOS.:E05TSI                               TUE 07/29/97 17:10 Page:316
     2402     7251    4                    ELSE
     2403     7252    4                     CALL BADEVST;
     2404     7253    4                   IF NOT FO$SYMB.EFLGB.HLTR THEN GOTO NOSPC;
     2405     7254    4                   ALTRETURN;
     2406     7255        /**
     2407     7256         **
     2408     7257         **      FINISHED SPACING
     2409     7258         **
     2410     7259         **/
     2411     7260    4                 CASE (FOSE_FSPA#,FOSE_SPEF#);
     2412     7261    4                   IF FO$SYMB.EFLGB THEN GOTO REPORT_IN;
     2413     7262    4                   FO$SYMB.STATE=FOMS_ACTV#;
     2414     7263    4                   CALL FOM$REL (FO$SYMB);
     2415     7264    4                   IF FO$SYMB.EFLGB THEN GOTO REPORT_IN;
     2416     7265    4                   FO$SYMB.SPACING='0'B;
     2417     7266    4                   FO$SYMB.STATE=FOMS_HELD#;
     2418     7267    4                   CALL TELLAU (%CG_SFSPA#,FO$SYMB.BR);
     2419     7268    4                   RETURN;
     2420     7269        /**
     2421     7270         **
     2422     7271         **      HALT SYMBIONT REQUEST
     2423     7272         **
     2424     7273         **/
     2425     7274    4                 CASE (FOSE_HLTR#);
     2426     7275    5                     DO CASE (HLTRSN);
     2427     7276    5                       CASE (FOHR_OUTS#);
     2428     7277    5                         IF (FO$SYMB.EFLGB) THEN ALTRETURN;
     2429     7278    5                         IF FO$SYMB.STATE=FOMS_HELD# THEN RETURN;
     2430     7279    5                         FO$SYMB.EFLGB.HLTR='1'B;
     2431     7280    5                         FO$SYMB.HLTRSN=FOHR_OUTS#;
     2432     7281    5                         IF FO$SYMB.STATE=FOMS_IDLE# THEN GOTO START_HALT;
     2433     7282    5                         IF  FO$SYMB.STATE = FOMS_DVIO#
     2434     7283    5                         AND ~LDCT$->NK$LDCT.DFLG.LOCAL THEN
     2435     7284    5                          GOTO START_HALT;
     2436     7285    5                         RETURN;
     2437     7286    5                       CASE (FOHR_NMEM#);
     2438     7287    5                         IF FO$SYMB.EFLGB='0'B THEN
PL6.E3A0      #009=FOM$EVENT File=FOM$MOOS.:E05TSI                               TUE 07/29/97 17:10 Page:317
     2439     7288    6                           DO;
     2440     7289    6                           FO$SYMB.STATE=FOMS_HELD#;
     2441     7290    6                           RETURN;
     2442     7291    6                           END;
     2443     7292    5                         ELSE GOTO REPORT_IN;
     2444     7293    5                       CASE (FOHR_FERR#,FOHR_TERR#);
     2445     7294    5                         IF FO$SYMB.EFLGB.IDSC THEN GOTO REPORT_IN;
     2446     7295    5                         FO$SYMB.EFLGB.HLTR='1'B;
     2447     7296    5                         FO$SYMB.HLTRSN=HLTRSN;
     2448     7297    5                         IF FO$SYMB.EFLGB.SHTD THEN
     2449     7298    6                           DO;
     2450     7299    6   TELL_HALT:              ;
     2451     7300    6                           CALL DO_TELLHLT ALTRET(REPORT_IN);
     2452     7301    6                           RETURN;
     2453     7302    6                           END;
     2454     7303    5   START_HALT:           ;
     2455     7304    5                         CALL DO_STARTHLT ALTRET(REPORT_IN);
     2456     7305    5                         RETURN;
     2457     7306    5                       CASE (ELSE);
     2458     7307    5                         CALL BADEVENT;
     2459     7308
     2460     7309                  /* END OF HLTRSN DOCASE */
     2461     7310    5                     END;
     2462     7311        /**
     2463     7312         **
     2464     7313         **      SYMBIONT HALTED MESSAGE FROM FEP
     2465     7314         **
     2466     7315         **/
     2467     7316    4                 CASE (FOSE_SHTD#);
     2468     7317    4                   FO$SYMB.BR=BLKREC;
     2469     7318    4                   FO$SYMB.EFLGB.SHTD='1'B;
     2470     7319    5                     DO CASE (STATE);
     2471     7320    5                       CASE (FOMS_HOLD#);
     2472     7321    5                         GOTO TELL_HALT;
     2473     7322    5                       CASE (FOMS_IDLE#,FOMS_DVIO#);
     2474     7323    5                         FO$SYMB.HLTRSN=FOHR_HAND#;
     2475     7324    5                         GOTO TELL_HALT;
PL6.E3A0      #009=FOM$EVENT File=FOM$MOOS.:E05TSI                               TUE 07/29/97 17:10 Page:318
     2476     7325    5                       CASE (FOMS_DKIO#,FOMS_ACTV#);
     2477     7326    5                         IF FO$SYMB.EFLGB.HLTR = '0'B THEN
     2478     7327    5                          FO$SYMB.HLTRSN=FOHR_HAND#;
     2479     7328    5                         RETURN;
     2480     7329    5                       CASE (FOMS_HRQW#);
     2481     7330    5                         RETURN;
     2482     7331    5                       CASE (ELSE);
     2483     7332    5                         CALL BADSTATE;
     2484     7333                    /* END OF STATE DOCASE */
     2485     7334    5                     END;
     2486     7335        /**
     2487     7336         **
     2488     7337         **      INITIAL DISCONNECT EVENT
     2489     7338         **
     2490     7339         **/
     2491     7340    4                 CASE (FOSE_IDSC#);
     2492     7341    4                   FO$SYMB.BR=BLKREC;
     2493     7342    4                   FO$SYMB.EFLGB.IDSC='1'B;
     2494     7343    5                     DO CASE (STATE);
     2495     7344    5                       CASE (FOMS_IDLE#,FOMS_HOLD#,FOMS_HELD#,FOMS_DVIO#);
     2496     7345    5                         CALL DO_IDSC;
     2497     7346    5                         RETURN;
     2498     7347    5                       CASE (FOMS_DKIO#,FOMS_ACTV#,FOMS_HRQW#);
     2499     7348    5                         RETURN;
     2500     7349    5                       CASE (ELSE);
     2501     7350    5                         CALL BADSTATE;
     2502     7351                    /* END OF STATE DOCASE */
     2503     7352    5                     END;
     2504     7353        /**
     2505     7354         **
     2506     7355         **      FINAL DISCONNECT EVENT
     2507     7356         **
     2508     7357         **/
     2509     7358    4                 CASE (FOSE_FDSC#);
     2510     7359
     2511     7360    4                   FO$SYMB.EFLGB.FDSC='1'B;
     2512     7361    4                   RETURN;
PL6.E3A0      #009=FOM$EVENT File=FOM$MOOS.:E05TSI                               TUE 07/29/97 17:10 Page:319
     2513     7362        /**
     2514     7363         **
     2515     7364         **      HALT REQUEST RETRY EVENT
     2516     7365         **
     2517     7366         **/
     2518     7367    4                 CASE (FOSE_HRQR#);
     2519     7368    4                   GOTO REPORT_IN;
     2520     7369        /**
     2521     7370         **
     2522     7371         **      UNKNOWN EVENT
     2523     7372         **
     2524     7373         **/
     2525     7374    4                 CASE (ELSE);
     2526     7375    4                   CALL BADEVENT;
     2527     7376        /**
     2528     7377         **      END OF SPECIAL EVENT DOCASE AND DO
     2529     7378         **/
     2530     7379    4               END;
     2531     7380    3             END;
     2532     7381        /***
     2533     7382         ***
     2534     7383         ***
     2535     7384         ***          WRAP UP PREVIOUS EVENTS
     2536     7385         ***
     2537     7386         ***
     2538     7387         ***/
     2539     7388    2   REPORT_IN:;
     2540     7389    2           IF FO$SYMB.EFLGB.IDSC THEN
     2541     7390    3             DO;
     2542     7391    3             CALL DO_IDSC;
     2543     7392    3   ALTRT:    ;
     2544     7393    3             ALTRETURN;
     2545     7394    3             END;
     2546     7395    2           IF FO$SYMB.EFLGB.SHTD THEN
     2547     7396    3             DO;
     2548     7397    3             CALL DO_TELLHLT ALTRET(REPORT_IN);
     2549     7398    3             ALTRETURN;
PL6.E3A0      #009=FOM$EVENT File=FOM$MOOS.:E05TSI                               TUE 07/29/97 17:10 Page:320
     2550     7399    3             END;
     2551     7400    2           IF FO$SYMB.EFLGB.HLTR THEN
     2552     7401    3             DO;
     2553     7402    3             CALL DO_STARTHLT ALTRET(REPORT_IN);
     2554     7403    3             ALTRETURN;
     2555     7404    3             END;
     2556     7405    2           END; /*DO INHIBIT*/
     2557     7406        /**/
     2558     7407        /**/
     2559     7408    1   DO_STARTHLT: PROC ALTRET;
     2560     7409    3           DO INHIBIT;
     2561     7410        /* RLCID = Remote Logical Connection ID */
     2562     7411    3           IF LDCT$->NK$LDCT.DFLG.LOCAL
     2563     7412    3           OR FO$SYMB.SPACING THEN
     2564     7413    4             DO;
     2565     7414    4             CALL DO_TELLHLT ALTRET(ALTRT);
     2566     7415    4             RETURN;
     2567     7416    4   ALTRT:    ALTRETURN;
     2568     7417    4             END;
     2569     7418    3           FO$SYMB.STATE=FOMS_ACTV#;
     2570     7419    3           K$RWPARM = K_RWPARM_CON;
     2571     7420        /* LSTRCRID = (request) Last Record ID */
     2572     7421    3           K$RWPARM.MRKTYP = %KV_VDOMRKTYP_SNDLSTRCRID;
     2573     7422    3           CALL KIA$FCNO (LDCT$->NK$LDCT,%KV_VDO_FNC_RQSMRK,K$RWPARM) ALTRET (WAIT);
     2574     7423    3           IF FO$SYMB.EFLGB.IDSC OR FO$SYMB.EFLGB.SHTD THEN ALTRETURN;
     2575     7424    3           ELSE FO$SYMB.STATE=FOMS_HOLD#;
     2576     7425    3           RETURN;
     2577     7426    3   WAIT:   ;
     2578     7427    3           FO$SYMB.STATE=FOMS_HRQW#;
     2579     7428    3           FO$SYMB.HRQWAIT='1'B;
     2580     7429    3           CALL SSC$MONTIMR (FOM_DLY#,ENTADDR(FOM$TIMR),ADDR(FO$SYMB));
     2581     7430    3           RETURN;
     2582     7431    3           END; /*DO INHIBIT*/
     2583     7432    2   END DO_STARTHLT;
     2584     7433        /**/
     2585     7434    1   DO_TELLHLT: PROC ALTRET;
     2586     7435    3           DO INHIBIT;
PL6.E3A0      #009=FOM$EVENT File=FOM$MOOS.:E05TSI                               TUE 07/29/97 17:10 Page:321
     2587     7436    3           ECCSC=%CG_STHLD#;
     2588     7437    3           IF FO$SYMB.HLTRSN = FOHR_FERR# THEN
     2589     7438    3            ECCSC = %CG_SFERR#;
     2590     7439    3           ELSE
     2591     7440    3            IF FO$SYMB.HLTRSN = FOHR_TERR# THEN
     2592     7441    3             ECCSC = %CG_STERR#;
     2593     7442    3           FO$SYMB.STATE=FOMS_ACTV#;
     2594     7443    3           CALL FOM$REL (FO$SYMB);
     2595     7444    3           IF FO$SYMB.EFLGB.IDSC THEN ALTRETURN;
     2596     7445    3           FO$SYMB.STATE=FOMS_HELD#;
     2597     7446    3           FO$SYMB.EFLGB.SHTD='0'B;
     2598     7447    3           FO$SYMB.EFLGB.HLTR='0'B;
     2599     7448    3           FO$SYMB.SPACING='0'B;
     2600     7449    3           CALL TELLAU (ECCSC,FO$SYMB.BR);
     2601     7450    3           RETURN;
     2602     7451    3           END; /*DO INHIBIT*/
     2603     7452    2   END DO_TELLHLT;
     2604     7453        /**/
     2605     7454    1   DO_IDSC: PROC;
     2606     7455    3           DO INHIBIT;
     2607     7456    3           FO$SYMB.STATE=FOMS_ACTV#;
     2608     7457    3           CALL FOM$REL (FO$SYMB);
     2609     7458    3           FO$SYMB.STATE=FOMS_DCMP#;
     2610     7459    3           CALL KQP$DISC (LDCT$->NK$LDCT);
     2611     7460    3           RETURN;
     2612     7461    3           END; /*DO INHIBIT*/
     2613     7462    2   END DO_IDSC;
     2614     7463        /**/
     2615     7464    1   BADEVENT: PROC;
     2616     7465    2         CALL SC_BADSYMBEVENT;
     2617     7466        /*S* SCREECH_CODE: FOM-S$BADSYMBEVENT
     2618     7467             TYPE:         SCREECH
     2619     7468             MESSAGE:      Bad event passed to FOM$EVENT
     2620     7469             REMARKS:      Either the event code passed to FOM$EVENT,
     2621     7470                           or the qualifier (e.g. HLTRSN) thereof,
     2622     7471                           was unknown.  Monitor auto being clobbered
     2623     7472                           is a possible culprit, but essentially this
PL6.E3A0      #009=FOM$EVENT File=FOM$MOOS.:E05TSI                               TUE 07/29/97 17:10 Page:322
     2624     7473                           screech should never occur. */
     2625     7474    2   END BADEVENT;
     2626     7475        /**/
     2627     7476    1   BADSTATE: PROC;
     2628     7477    2         CALL SC_BADSYMBSTATE;
     2629     7478        /*S* SCREECH_CODE: FOM-S$BADSYMBSTATE
     2630     7479             TYPE:         SCREECH
     2631     7480             MESSAGE:      FOM$EVENT found a symbiont in an unknown state
     2632     7481             REMARKS:      This screech occurs when FOM$EVENT finds a
     2633     7482                           symbiont in an unknown state.  This probably
     2634     7483                           is due to the LDCT containing the symbiont's
     2635     7484                           context having been clobbered.  */
     2636     7485    2   END BADSTATE;
     2637     7486        /**/
     2638     7487    1   BADEVST: PROC;
     2639     7488    2         CALL SC_BADSYMBEVST;
     2640     7489        /*S* SCREECH_CODE: FOM-S$BADSYMBEVST
     2641     7490             TYPE:         SCREECH
     2642     7491             MESSAGE:      Bad event-state combination in FOM$EVENT
     2643     7492             REMARKS:      The event being reported to FOM$EVENT, and
     2644     7493                           the current state/flag-settings of the
     2645     7494                           symbiont involved, should never occur sim-
     2646     7495                           ultaneously.  The cause can be elicited by
     2647     7496                           determining the recent history of the symbiont
     2648     7497                           involved.                     */
     2649     7498    2   END BADEVST;
     2650     7499        /**/
     2651     7500        /**/
     2652     7501        /*F* NAME:         FOM$TELLAU
     2653     7502             PURPOSE:      To pass a special event to the OSCG AU
     2654     7503             DESCRIPTION:  Passes the symb context block, the event code,
     2655     7504                           and one word of info.  OUTSYM is passed the
     2656     7505                           appropriate special event message.
     2657     7506        */
     2658     7507    1   FOM$TELLAU: ENTRY (FO$SYMB,FO$SEVNT,INFO) ALTRET; /* !!Doesn't ALTRET!! */
     2659     7508        /**/
     2660     7509    1         CALL TELLAU (ADDR(FO$SEVNT)->B$$WORD,INFO);
PL6.E3A0      #009=FOM$EVENT File=FOM$MOOS.:E05TSI                               TUE 07/29/97 17:10 Page:323
     2661     7510    1         RETURN;
     2662     7511        /**/
     2663     7512        /*D* NAME:         TELLAU
     2664     7513             PURPOSE:      To event OUTSYM */
     2665     7514    1   TELLAU: PROC (EVENT,INFOWORD);
     2666     7515        /**/
     2667     7516    2   DCL EVENT UBIN WORD;
     2668     7517    2   DCL INFOWORD UBIN WORD;
     2669     7518        /**/
     2670     7519    3           DO INHIBIT;
     2671     7520    3           LDCT$=NK$LDCT$(FO$SYMB.DEVLDCTX);
     2672     7521    3           CG$=LDCT$->NK$LDCT.CG$;
     2673     7522    3           CALL KQX$LDASR (CG$->KQ$CG);
     2674     7523    3           STA$=LDCT$->NK$LDCT.STA$;
     2675     7524    3           CALL KCA$TELLAU (STA$->KQ$STA,EVENT,INFOWORD);
     2676     7525    3           RETURN;
     2677     7526    3           END;
     2678     7527    2   END TELLAU;
     2679     7528        /**/
     2680     7529        /**/
     2681     7530    1   END FOM$EVENT;
     2682     7531        /**/
     2683     7532        %EOD;

PL6.E3A0      #009=FOM$EVENT File=FOM$MOOS.:E05TSI                               TUE 07/29/97 17:10 Page:324
--  Include file information  --

   KQ_SUBS_C.:E05TOU  is referenced.
   KC$CP6V_C.:E05TOU  is referenced.
   KC_CP6.:E05TOU  is referenced.
   KQ_MAC_C.:E05TOU  is referenced.
   NK_LDCT_R.:E05TOU  cannot be made into a system file and is referenced.
   K$RWPARM.:E05TOU  is referenced.
   K_DATA_R.:E05TOU  cannot be made into a system file and is referenced.
   KV$VDO.:E05TOU  is referenced.
   KC_SUBS_C.:E05TOU  is referenced.
   FOM_SUBS_C.:E05TOU  is referenced.
   NK$LDCT.:E05TOU  is referenced.
   FOM$STRUCT.:E05TOU  is referenced.
      No diagnostics issued in procedure FOM$EVENT.

   Procedure FOM$EVENT requires 449 words for executable code.
   Procedure FOM$EVENT requires 66 words of local(AUTO) storage.

PL6.E3A0      #009=FOM$EVENT File=FOM$MOOS.:E05TSI                               TUE 07/29/97 17:10 Page:325

 Object Unit name= FOM$EVENT                                  File name= FOM$MOOS.:E05TOU
 UTS= JUL 29 '97 17:10:49.36 TUE                              Compiler= PL-6/E31         Sev=      00
 SharedLib= :SHARED_SYSTEM                                    Alt SharedLib=


    ****  Control sections  ****

 Sect   Type Bound  Init  Size OctSiz  Section name(segment info)
    0   Proc  even  none   449    701  FOM$EVENT
    1  RoData even  none    10     12  FOM$EVENT

    ****  Entry defs  ****

                              Check   Calling
                             calling  sequence
  Sect OctLoc Primary Altret sequence   type   Parms  Name
     0      0   yes    yes     yes      Std        3  FOM$EVENT
     0    634          yes     yes      Std        3  FOM$TELLAU

  ****  Entry refs  ****

         Check        Calling
        calling       sequence
Altret sequence SRef   type   Args  Name
 yes     yes           Std       1 FOM$REL
         yes           Std       1 FOM$TIMR
         yes           Std       3 SSC$MONTIMR
 yes     yes           Std       3 KIA$FCNO
 yes     yes           Std       1 KQP$DISC
         yes           Std       1 KQX$LDASR
 yes     yes           Std       3 KCA$TELLAU
                       nStd      0 X66_AUTO_3
                       nStd      0 X66_ARET
                       nStd      0 X66_AALT
                       Std       0 B_CONSPOOL_D
PL6.E3A0      #009=FOM$EVENT File=FOM$MOOS.:E05TSI                               TUE 07/29/97 17:10 Page:326

  ****  Data refs  ****

  Flags:  r = read only, s = secondary
Flgs Name                             Flgs Name                             Flgs Name
     SC_BADSYMBEVENT                       SC_BADSYMBSTATE                       SC_BADSYMBEVST
r    K_RWPARM_CON                          N$DCT$$                               B_VECTNIL

  ****  Segment refs  ****

  Flags:  r = read only, s = secondary
Flgs Name                             Flgs Name                             Flgs Name
     ASLENTSID                             ISSID
PL6.E3A0      #009=FOM$EVENT File=FOM$MOOS.:E05TSI                               TUE 07/29/97 17:10 Page:327


     2254        1        /*T***********************************************************/
     2255        2        /*T*                                                         */
     2256        3        /*T* Copyright (c) Bull HN Information Systems Inc., 1997    */
     2257        4        /*T*                                                         */
     2258        5        /*T***********************************************************/
     2259        6        /**/
     2260        7        /**/
     2261        8        FOM$EVENT: PROC (FO$SYMB,FO$SEVNT,INFO) ALTRET;

      8  0 000000   000000 700200 xent  FOM$EVENT    TSX0  ! X66_AUTO_3
         0 000001   000102 000003                    ZERO    66,3

     2262        9        /**/
     2263       10        /*F* NAME:         FOM$EVENT
     2264       11             PURPOSE:      To co-ordinate MOOS symbiont events
     2265       12             DESCRIPTION:  MOOS can receive events such has disconnect
     2266       13                           or symbiont-terminal-held asynchronously with
     2267       14                           respect to his normal activities of reading
     2268       15                           disk and writing to device.  These events
     2269       16                           are reported to FOM$EVENT, who, if MOOS is
     2270       17                           busy with something else, just records them.
     2271       18
     2272       19                           The main parts of MOOS (disk reader, and device
     2273       20                           writer) report in to FOM$EVENT whenever something
     2274       21                           significant like disk I/O complete or device I/O
     2275       22                           complete happens.  If nothing has occurred to
     2276       23                           prevent normal continuation of the sequence,
     2277       24                           FOM$EVENT just returns to these callers.  Otherwise
     2278       25                           he takes appropriate action, and then ALTRETs to
     2279       26                           tell the caller to just get out.
     2280       27        */
     2281       28        /**/
     2282       29        /**/
     2283       30        /*  INCLUDES */
     2284       31        /**/
     2285       32        %INCLUDE FOM$STRUCT;
PL6.E3A0      #009=FOM$EVENT File=FOM$MOOS.:E05TSI                               TUE 07/29/97 17:10 Page:328
     2286       93        %INCLUDE NK$LDCT;
     2287      195        %INCLUDE FOM_SUBS_C;
     2288      258        %INCLUDE KC_SUBS_C;
     2289      274        %INCLUDE KV$VDO;
     2290     1289        %INCLUDE K_DATA_R;
     2291     2000        %INCLUDE NK_LDCT_R;
     2292     2009        %INCLUDE KQ_MAC_C;
     2293     4559        %INCLUDE KC_CP6;
     2294     5119        %INCLUDE KC$CP6V_C;
     2295     5239        %INCLUDE KQ_SUBS_C;
     2296     5539
     2297     5540
     2298     5541        /**/
     2299     5542        /* PARAMETERS */
     2300     5543        /**/
     2301     5544        %FOM$SYMB (NAME=FO$SYMB,STCLASS="");
     2302     5576        %FOM$SEVNT (STCLASS="");
     2303     5591    1   DCL INFO UBIN WORD;
     2304     5592    1   DCL HLTRSN REDEF INFO UBIN WORD;
     2305     5593    1   DCL BLKREC REDEF INFO BIT(36);
     2306     5594
     2307     5595
     2308     5596        /**/
     2309     5597        /* BASED STRUCTURES */
     2310     5598        /**/
     2311     5599    1   DCL B$$WORD UBIN WORD BASED ALIGNED;
     2312     5600        %KQ_STA (FPTN=KQ$STA,STCLASS=BASED);
     2313     5939        %KQ_CG  (FPTN=KQ$CG ,STCLASS=BASED);
     2314     6678        %NK$LDCT;
     2315     6724
     2316     6725
     2317     6726        /**/
     2318     6727        /* AUTO */
     2319     6728        /**/
     2320     6729        %K$RWPARM (NAME=K$RWPARM);
     2321     7045    1   DCL STA$ PTR;
     2322     7046    1   DCL CG$ PTR;
PL6.E3A0      #009=FOM$EVENT File=FOM$MOOS.:E05TSI                               TUE 07/29/97 17:10 Page:329
     2323     7047    1   DCL STATE UBIN WORD;
     2324     7048    1   DCL ECCSC UBIN WORD;
     2325     7049    1   DCL LDCT$ PTR;
     2326     7050    1   DCL OP$ PTR;
     2327     7051
     2328     7052
     2329     7053        /**/
     2330     7054        /*  REFS */
     2331     7055        /**/
     2332     7056        %KV_VDO_ALL_E;
     2333     7135    1   DCL SC_BADSYMBEVST ENTRY CONV(2,0);
     2334     7136    1   DCL SC_BADSYMBEVENT ENTRY CONV(2,0);
     2335     7137    1   DCL SC_BADSYMBSTATE ENTRY CONV(2,0);
     2336     7138    1   DCL FOM$REL            ENTRY(1) ALTRET;
     2337     7139    1   DCL FOM$TIMR           ENTRY(1);
     2338     7140    1   DCL KCA$TELLAU         ENTRY(3) ALTRET;
     2339     7141    1   DCL KIA$FCNO ENTRY (3) ALTRET;
     2340     7142    1   DCL KQP$DISC           ENTRY(1) ALTRET;
     2341     7143    1   DCL KQX$LDASR          ENTRY(1);
     2342     7144    1   DCL SSC$MONTIMR        ENTRY(3);
     2343     7145
     2344     7146
     2345     7147        /**/
     2346     7148        /* SUBS */
     2347     7149        /**/
     2348     7150        %EQU_CG;
     2349     7198        /**/
     2350     7199        /**/
     2351     7200                                /* RUN THE WHOLE THING INHIBITED */
     2352     7201    2           DO INHIBIT;

     2353     7202                                /* GET THE CURRENT STATE */
     2354     7203    2           STATE=FO$SYMB.STATE;

   7203  0 000002   200003 470700                    LDP0  ! @FO$SYMB,,AUTO
         0 000003   000012 236300                    LDQ   ! 10,,PR0
         0 000004   000017 376207                    ANQ   ! 15,DL
PL6.E3A0      #009=FOM$EVENT File=FOM$MOOS.:E05TSI                               TUE 07/29/97 17:10 Page:330
         0 000005   200060 756300                    STQ   ! STATE,,AUTO

     2355     7204    2           LDCT$=NK$LDCT$(FO$SYMB.DEVLDCTX);

   7204  0 000006   000010 720300                    LXL0  ! 8,,PR0
         0 000007   000000 471600 xsym               LDP1  ! N$DCT$$
         0 000010   100000 236310                    LDQ   ! 0,X0,PR1
         0 000011   200062 756300                    STQ   ! LDCT$,,AUTO

     2356     7205                                /* IF EVENT DEMANDS A SPECIFIC OLD STATE,
     2357     7206                                   THEN VERIFY IT */
     2358     7207    2           IF FO$SEVNT.OLDSTATE~=0

   7207  0 000012   200004 473700                    LDP3  ! @FO$SEVNT,,AUTO
         0 000013   300000 236300                    LDQ   ! 0,,PR3
         0 000014   000777 316203                    CANQ  ! 511,DU
         0 000015   000025 600200 0                  TZE   ! s:7210
         0 000016   300000 236300                    LDQ   ! 0,,PR3
         0 000017   000022 772200                    QRL   ! 18
         0 000020   000777 376207                    ANQ   ! 511,DL
         0 000021   200060 116300                    CMPQ  ! STATE,,AUTO
         0 000022   000025 600200 0                  TZE   ! s:7210

     2359     7208    2           AND FO$SEVNT.OLDSTATE~=STATE THEN CALL BADEVST;

   7208  0 000023   000626 701200 0                  TSX1  ! BADEVST
         0 000024   000000 011200                    NOP   ! 0

     2360     7209                                /* CHECK FOR BAD FLAGS */
     2361     7210    2           IF (FO$SEVNT.BADFLG&FO$SYMB.EFLGB) THEN CALL BADEVST;

   7210  0 000025   200003 470700                    LDP0  ! @FO$SYMB,,AUTO
         0 000026   000012 236300                    LDQ   ! 10,,PR0
         0 000027   000030 736200                    QLS   ! 24
         0 000030   740000 376203                    ANQ   ! -16384,DU
         0 000031   200074 756300                    STQ   ! @INFOWORD+2,,AUTO
         0 000032   200004 471700                    LDP1  ! @FO$SEVNT,,AUTO
PL6.E3A0      #009=FOM$EVENT File=FOM$MOOS.:E05TSI                               TUE 07/29/97 17:10 Page:331
         0 000033   100000 236300                    LDQ   ! 0,,PR1
         0 000034   000027 736200                    QLS   ! 23
         0 000035   740000 376203                    ANQ   ! -16384,DU
         0 000036   200074 376300                    ANQ   ! @INFOWORD+2,,AUTO
         0 000037   000042 600200 0                  TZE   ! s:7212

   7210  0 000040   000626 701200 0                  TSX1  ! BADEVST
         0 000041   000000 011200                    NOP   ! 0

     2362     7211                                /* DECIDE WHAT SORT OF EVENT IT IS */
     2363     7212    2           IF FO$SEVNT.SPECIAL='0'B THEN

   7212  0 000042   200004 470700                    LDP0  ! @FO$SEVNT,,AUTO
         0 000043   000000 236300                    LDQ   ! 0,,PR0
         0 000044   400000 316207                    CANQ  ! -131072,DL
         0 000045   000060 601200 0                  TNZ   ! s:7240

     2364     7213    3   NOSPC:    DO;

   7213  0 000046                       NOSPC        null
     2365     7214                                /* SIMPLE STATE-CHANGE EVENT.  IF ALL
     2366     7215                                   ASYNC EVENT FLAGS ARE CLEAR, THEN JUST
     2367     7216                                   CHANGE STATE AND RETURN */
     2368     7217    3             IF FO$SYMB.EFLGB='0'B THEN

   7217  0 000046   200003 470700                    LDP0  ! @FO$SYMB,,AUTO
         0 000047   000012 236300                    LDQ   ! 10,,PR0
         0 000050   007400 316207                    CANQ  ! 3840,DL
         0 000051   000357 601200 0                  TNZ   ! REPORT_IN

     2369     7218    4               DO;

     2370     7219    4               FO$SYMB.STATE=FO$SEVNT.NEWSTATE;

   7219  0 000052   200004 471700                    LDP1  ! @FO$SEVNT,,AUTO
         0 000053   100000 236300                    LDQ   ! 0,,PR1
         0 000054   000012 676300                    ERQ   ! 10,,PR0
PL6.E3A0      #009=FOM$EVENT File=FOM$MOOS.:E05TSI                               TUE 07/29/97 17:10 Page:332
         0 000055   000017 376207                    ANQ   ! 15,DL
         0 000056   000012 656300                    ERSQ  ! 10,,PR0

     2371     7220    4               RETURN;

   7220  0 000057   000000 702200 xent               TSX2  ! X66_ARET

     2372     7221    4               END;
     2373     7222                                /* ASYNC EVENT FLAGS NOT CLEAR.  EXAMINE
     2374     7223                                   THEM AND DO THAT WHICH IS INDICATED.
     2375     7224                                   IN ANY CASE, ALTRET SO THE CALLER KNOWS
     2376     7225                                   HE'S BEEN INTERRUPTED.  HE WILL TYPICALLY
     2377     7226                                   JUST EXIT, KNOWING THAT WE'VE DONE
     2378     7227                                   WHAT'S REQUIRED */
     2379     7228    3             ELSE GOTO REPORT_IN;
     2380     7229    3             END;
     2381     7230                                /* SPECIAL EVENT */
     2382     7231    2           ELSE
     2383     7232    3             DO;

     2384     7233        /**
     2385     7234         **
     2386     7235         **
     2387     7236         **      VECTOR ON SPECIAL EVENT CODE
     2388     7237         **
     2389     7238         **
     2390     7239         **/
     2391     7240    4               DO CASE (FO$SEVNT.EVENT);

   7240  0 000060   000000 236300                    LDQ   ! 0,,PR0
         0 000061   000033 772200                    QRL   ! 27
         0 000062   000015 116207                    CMPQ  ! 13,DL
         0 000063   000065 602206 0                  TNC   ! s:7240+5,QL
         0 000064   000355 710200 0                  TRA   ! s:7375
         0 000065   000355 710200 0                  TRA   ! s:7375
         0 000066   000102 710200 0                  TRA   ! s:7248
         0 000067   000355 710200 0                  TRA   ! s:7375
PL6.E3A0      #009=FOM$EVENT File=FOM$MOOS.:E05TSI                               TUE 07/29/97 17:10 Page:333
         0 000070   000355 710200 0                  TRA   ! s:7375
         0 000071   000355 710200 0                  TRA   ! s:7375
         0 000072   000257 710200 0                  TRA   ! s:7317
         0 000073   000317 710200 0                  TRA   ! s:7341
         0 000074   000350 710200 0                  TRA   ! s:7360
         0 000075   000155 710200 0                  TRA   ! s:7275
         0 000076   000354 710200 0                  TRA   ! s:7368
         0 000077   000355 710200 0                  TRA   ! s:7375
         0 000100   000120 710200 0                  TRA   ! s:7261
         0 000101   000120 710200 0                  TRA   ! s:7261

     2392     7241        /**
     2393     7242         **
     2394     7243         **      SYMBIONT GRANULE WRITTEN
     2395     7244         **
     2396     7245         **/
     2397     7246                                      /* Symbiont write done event */
     2398     7247    4                 CASE (FOSE_SWDN#);

     2399     7248    4                   IF LDCT$->NK$LDCT.DFLG.LOCAL THEN

   7248  0 000102   200062 471700                    LDP1  ! LDCT$,,AUTO
         0 000103   100006 236300                    LDQ   ! 6,,PR1
         0 000104   002000 316207                    CANQ  ! 1024,DL
         0 000105   000113 600200 0                  TZE   ! s:7253

     2400     7249    4                    IF STATE = FOMS_DVIO# THEN

   7249  0 000106   200060 235300                    LDA   ! STATE,,AUTO
         0 000107   000003 115207                    CMPA  ! 3,DL
         0 000110   000046 600200 0                  TZE   ! NOSPC

     2401     7250    4                     GOTO NOSPC;
     2402     7251    4                    ELSE
     2403     7252    4                     CALL BADEVST;

   7252  0 000111   000626 701200 0                  TSX1  ! BADEVST
PL6.E3A0      #009=FOM$EVENT File=FOM$MOOS.:E05TSI                               TUE 07/29/97 17:10 Page:334
         0 000112   000000 011200                    NOP   ! 0

     2404     7253    4                   IF NOT FO$SYMB.EFLGB.HLTR THEN GOTO NOSPC;

   7253  0 000113   200003 470700                    LDP0  ! @FO$SYMB,,AUTO
         0 000114   000012 236300                    LDQ   ! 10,,PR0
         0 000115   004000 316207                    CANQ  ! 2048,DL
         0 000116   000046 600200 0                  TZE   ! NOSPC

     2405     7254    4                   ALTRETURN;

   7254  0 000117   000000 702200 xent               TSX2  ! X66_AALT

     2406     7255        /**
     2407     7256         **
     2408     7257         **      FINISHED SPACING
     2409     7258         **
     2410     7259         **/
     2411     7260    4                 CASE (FOSE_FSPA#,FOSE_SPEF#);

     2412     7261    4                   IF FO$SYMB.EFLGB THEN GOTO REPORT_IN;

   7261  0 000120   200003 471700                    LDP1  ! @FO$SYMB,,AUTO
         0 000121   100012 236300                    LDQ   ! 10,,PR1
         0 000122   007400 316207                    CANQ  ! 3840,DL
         0 000123   000357 601200 0                  TNZ   ! REPORT_IN

     2413     7262    4                   FO$SYMB.STATE=FOMS_ACTV#;

   7262  0 000124   000000 376200 1                  ANQ   ! 0
         0 000125   000006 276207                    ORQ   ! 6,DL
         0 000126   100012 756300                    STQ   ! 10,,PR1

     2414     7263    4                   CALL FOM$REL (FO$SYMB);

   7263  0 000127   200003 630700                    EPPR0 ! @FO$SYMB,,AUTO
         0 000130   000017 631600 xsym               EPPR1 ! B_VECTNIL+15
PL6.E3A0      #009=FOM$EVENT File=FOM$MOOS.:E05TSI                               TUE 07/29/97 17:10 Page:335
         0 000131   000000 701200 xent               TSX1  ! FOM$REL
         0 000132   000000 011200                    NOP   ! 0

     2415     7264    4                   IF FO$SYMB.EFLGB THEN GOTO REPORT_IN;

   7264  0 000133   200003 470700                    LDP0  ! @FO$SYMB,,AUTO
         0 000134   000012 236300                    LDQ   ! 10,,PR0
         0 000135   007400 316207                    CANQ  ! 3840,DL
         0 000136   000357 601200 0                  TNZ   ! REPORT_IN

     2416     7265    4                   FO$SYMB.SPACING='0'B;

   7265  0 000137   000001 236200 1                  LDQ   ! 1
         0 000140   000012 356300                    ANSQ  ! 10,,PR0

     2417     7266    4                   FO$SYMB.STATE=FOMS_HELD#;

   7266  0 000141   000012 236300                    LDQ   ! 10,,PR0
         0 000142   000000 376200 1                  ANQ   ! 0
         0 000143   000005 276207                    ORQ   ! 5,DL
         0 000144   000012 756300                    STQ   ! 10,,PR0

     2418     7267    4                   CALL TELLAU (%CG_SFSPA#,FO$SYMB.BR);

   7267  0 000145   200003 236300                    LDQ   ! @FO$SYMB,,AUTO
         0 000146   000003 036203                    ADLQ  ! 3,DU
         0 000147   200072 756300                    STQ   ! @EVENT+1,,AUTO
         0 000150   000003 236200 1                  LDQ   ! 3
         0 000151   200071 756300                    STQ   ! LDCT$+7,,AUTO
         0 000152   000645 701200 0                  TSX1  ! TELLAU
         0 000153   000000 011200                    NOP   ! 0

     2419     7268    4                   RETURN;

   7268  0 000154   000000 702200 xent               TSX2  ! X66_ARET

     2420     7269        /**
PL6.E3A0      #009=FOM$EVENT File=FOM$MOOS.:E05TSI                               TUE 07/29/97 17:10 Page:336
     2421     7270         **
     2422     7271         **      HALT SYMBIONT REQUEST
     2423     7272         **
     2424     7273         **/
     2425     7274    4                 CASE (FOSE_HLTR#);

     2426     7275    5                     DO CASE (HLTRSN);

   7275  0 000155   200005 471700                    LDP1  ! @INFO,,AUTO
         0 000156   100000 235300                    LDA   ! 0,,PR1
         0 000157   000005 115207                    CMPA  ! 5,DL
         0 000160   000162 602205 0                  TNC   ! s:7275+5,AL
         0 000161   000254 710200 0                  TRA   ! s:7307
         0 000162   000254 710200 0                  TRA   ! s:7307
         0 000163   000167 710200 0                  TRA   ! s:7277
         0 000164   000223 710200 0                  TRA   ! s:7287
         0 000165   000233 710200 0                  TRA   ! s:7294
         0 000166   000233 710200 0                  TRA   ! s:7294

     2427     7276    5                       CASE (FOHR_OUTS#);

     2428     7277    5                         IF (FO$SYMB.EFLGB) THEN ALTRETURN;

   7277  0 000167   200003 473700                    LDP3  ! @FO$SYMB,,AUTO
         0 000170   300012 236300                    LDQ   ! 10,,PR3
         0 000171   007400 316207                    CANQ  ! 3840,DL
         0 000172   000174 600200 0                  TZE   ! s:7278

   7277  0 000173   000000 702200 xent               TSX2  ! X66_AALT

     2429     7278    5                         IF FO$SYMB.STATE=FOMS_HELD# THEN RETURN;

   7278  0 000174   300012 236300                    LDQ   ! 10,,PR3
         0 000175   000017 376207                    ANQ   ! 15,DL
         0 000176   000005 116207                    CMPQ  ! 5,DL
         0 000177   000201 601200 0                  TNZ   ! s:7279

PL6.E3A0      #009=FOM$EVENT File=FOM$MOOS.:E05TSI                               TUE 07/29/97 17:10 Page:337
   7278  0 000200   000000 702200 xent               TSX2  ! X66_ARET

     2430     7279    5                         FO$SYMB.EFLGB.HLTR='1'B;

   7279  0 000201   004000 236207                    LDQ   ! 2048,DL
         0 000202   300012 256300                    ORSQ  ! 10,,PR3

     2431     7280    5                         FO$SYMB.HLTRSN=FOHR_OUTS#;

   7280  0 000203   000001 236207                    LDQ   ! 1,DL
         0 000204   300011 552304                    STBQ  ! 9,'04'O,PR3

     2432     7281    5                         IF FO$SYMB.STATE=FOMS_IDLE# THEN GOTO START_HALT;

   7281  0 000205   300012 236300                    LDQ   ! 10,,PR3
         0 000206   000017 316207                    CANQ  ! 15,DL
         0 000207   000251 600200 0                  TZE   ! START_HALT

     2433     7282    5                         IF  FO$SYMB.STATE = FOMS_DVIO#

   7282  0 000210   300012 236300                    LDQ   ! 10,,PR3
         0 000211   000017 376207                    ANQ   ! 15,DL
         0 000212   000003 116207                    CMPQ  ! 3,DL
         0 000213   000222 601200 0                  TNZ   ! s:7285
         0 000214   200062 474700                    LDP4  ! LDCT$,,AUTO
         0 000215   400006 236300                    LDQ   ! 6,,PR4
         0 000216   000031 736200                    QLS   ! 25
         0 000217   400000 376203                    ANQ   ! -131072,DU
         0 000220   400000 676203                    ERQ   ! -131072,DU
         0 000221   000251 601200 0                  TNZ   ! START_HALT

     2434     7283    5                         AND ~LDCT$->NK$LDCT.DFLG.LOCAL THEN
     2435     7284    5                          GOTO START_HALT;
     2436     7285    5                         RETURN;

   7285  0 000222   000000 702200 xent               TSX2  ! X66_ARET

PL6.E3A0      #009=FOM$EVENT File=FOM$MOOS.:E05TSI                               TUE 07/29/97 17:10 Page:338
     2437     7286    5                       CASE (FOHR_NMEM#);

     2438     7287    5                         IF FO$SYMB.EFLGB='0'B THEN

   7287  0 000223   200003 473700                    LDP3  ! @FO$SYMB,,AUTO
         0 000224   300012 236300                    LDQ   ! 10,,PR3
         0 000225   007400 316207                    CANQ  ! 3840,DL
         0 000226   000357 601200 0                  TNZ   ! REPORT_IN

     2439     7288    6                           DO;

     2440     7289    6                           FO$SYMB.STATE=FOMS_HELD#;

   7289  0 000227   000000 376200 1                  ANQ   ! 0
         0 000230   000005 276207                    ORQ   ! 5,DL
         0 000231   300012 756300                    STQ   ! 10,,PR3

     2441     7290    6                           RETURN;

   7290  0 000232   000000 702200 xent               TSX2  ! X66_ARET

     2442     7291    6                           END;
     2443     7292    5                         ELSE GOTO REPORT_IN;
     2444     7293    5                       CASE (FOHR_FERR#,FOHR_TERR#);

     2445     7294    5                         IF FO$SYMB.EFLGB.IDSC THEN GOTO REPORT_IN;

   7294  0 000233   200003 473700                    LDP3  ! @FO$SYMB,,AUTO
         0 000234   300012 236300                    LDQ   ! 10,,PR3
         0 000235   000400 316207                    CANQ  ! 256,DL
         0 000236   000357 601200 0                  TNZ   ! REPORT_IN

     2446     7295    5                         FO$SYMB.EFLGB.HLTR='1'B;

   7295  0 000237   004000 236207                    LDQ   ! 2048,DL
         0 000240   300012 256300                    ORSQ  ! 10,,PR3

PL6.E3A0      #009=FOM$EVENT File=FOM$MOOS.:E05TSI                               TUE 07/29/97 17:10 Page:339
     2447     7296    5                         FO$SYMB.HLTRSN=HLTRSN;

   7296  0 000241   100000 236300                    LDQ   ! 0,,PR1
         0 000242   300011 552304                    STBQ  ! 9,'04'O,PR3

     2448     7297    5                         IF FO$SYMB.EFLGB.SHTD THEN

   7297  0 000243   300012 236300                    LDQ   ! 10,,PR3
         0 000244   002000 316207                    CANQ  ! 1024,DL
         0 000245   000251 600200 0                  TZE   ! START_HALT

     2449     7298    6                           DO;

     2450     7299    6   TELL_HALT:              ;

   7299  0 000246                       TELL_HALT    null
     2451     7300    6                           CALL DO_TELLHLT ALTRET(REPORT_IN);

   7300  0 000246   000506 701200 0                  TSX1  ! DO_TELLHLT
         0 000247   000357 702200 0                  TSX2  ! REPORT_IN

     2452     7301    6                           RETURN;

   7301  0 000250   000000 702200 xent               TSX2  ! X66_ARET

   7297  0 000251                       START_HALT   null
     2453     7302    6                           END;
     2454     7303    5   START_HALT:           ;
     2455     7304    5                         CALL DO_STARTHLT ALTRET(REPORT_IN);

   7304  0 000251   000401 701200 0                  TSX1  ! DO_STARTHLT
         0 000252   000357 702200 0                  TSX2  ! REPORT_IN

     2456     7305    5                         RETURN;

   7305  0 000253   000000 702200 xent               TSX2  ! X66_ARET

PL6.E3A0      #009=FOM$EVENT File=FOM$MOOS.:E05TSI                               TUE 07/29/97 17:10 Page:340
     2457     7306    5                       CASE (ELSE);

     2458     7307    5                         CALL BADEVENT;

   7307  0 000254   000614 701200 0                  TSX1  ! BADEVENT
         0 000255   000000 011200                    NOP   ! 0

     2459     7308
     2460     7309                  /* END OF HLTRSN DOCASE */
     2461     7310    5                     END;

   7310  0 000256   000357 710200 0                  TRA   ! REPORT_IN

     2462     7311        /**
     2463     7312         **
     2464     7313         **      SYMBIONT HALTED MESSAGE FROM FEP
     2465     7314         **
     2466     7315         **/
     2467     7316    4                 CASE (FOSE_SHTD#);

     2468     7317    4                   FO$SYMB.BR=BLKREC;

   7317  0 000257   200005 471700                    LDP1  ! @INFO,,AUTO
         0 000260   100000 236300                    LDQ   ! 0,,PR1
         0 000261   200003 473700                    LDP3  ! @FO$SYMB,,AUTO
         0 000262   300003 756300                    STQ   ! 3,,PR3

     2469     7318    4                   FO$SYMB.EFLGB.SHTD='1'B;

   7318  0 000263   002000 236207                    LDQ   ! 1024,DL
         0 000264   300012 256300                    ORSQ  ! 10,,PR3

     2470     7319    5                     DO CASE (STATE);

   7319  0 000265   200060 235300                    LDA   ! STATE,,AUTO
         0 000266   000010 115207                    CMPA  ! 8,DL
         0 000267   000271 602205 0                  TNC   ! s:7319+4,AL
PL6.E3A0      #009=FOM$EVENT File=FOM$MOOS.:E05TSI                               TUE 07/29/97 17:10 Page:341
         0 000270   000314 710200 0                  TRA   ! s:7332
         0 000271   000302 710200 0                  TRA   ! s:7323
         0 000272   000301 710200 0                  TRA   ! s:7321
         0 000273   000305 710200 0                  TRA   ! s:7326
         0 000274   000302 710200 0                  TRA   ! s:7323
         0 000275   000314 710200 0                  TRA   ! s:7332
         0 000276   000314 710200 0                  TRA   ! s:7332
         0 000277   000305 710200 0                  TRA   ! s:7326
         0 000300   000313 710200 0                  TRA   ! s:7330

     2471     7320    5                       CASE (FOMS_HOLD#);

     2472     7321    5                         GOTO TELL_HALT;

   7321  0 000301   000246 710200 0                  TRA   ! TELL_HALT

     2473     7322    5                       CASE (FOMS_IDLE#,FOMS_DVIO#);

     2474     7323    5                         FO$SYMB.HLTRSN=FOHR_HAND#;

   7323  0 000302   000005 236207                    LDQ   ! 5,DL
         0 000303   300011 552304                    STBQ  ! 9,'04'O,PR3

     2475     7324    5                         GOTO TELL_HALT;

   7324  0 000304   000246 710200 0                  TRA   ! TELL_HALT

     2476     7325    5                       CASE (FOMS_DKIO#,FOMS_ACTV#);

     2477     7326    5                         IF FO$SYMB.EFLGB.HLTR = '0'B THEN

   7326  0 000305   300012 236300                    LDQ   ! 10,,PR3
         0 000306   004000 316207                    CANQ  ! 2048,DL
         0 000307   000312 601200 0                  TNZ   ! s:7328

     2478     7327    5                          FO$SYMB.HLTRSN=FOHR_HAND#;

PL6.E3A0      #009=FOM$EVENT File=FOM$MOOS.:E05TSI                               TUE 07/29/97 17:10 Page:342
   7327  0 000310   000005 236207                    LDQ   ! 5,DL
         0 000311   300011 552304                    STBQ  ! 9,'04'O,PR3

     2479     7328    5                         RETURN;

   7328  0 000312   000000 702200 xent               TSX2  ! X66_ARET

     2480     7329    5                       CASE (FOMS_HRQW#);

     2481     7330    5                         RETURN;

   7330  0 000313   000000 702200 xent               TSX2  ! X66_ARET

     2482     7331    5                       CASE (ELSE);

     2483     7332    5                         CALL BADSTATE;

   7332  0 000314   000621 701200 0                  TSX1  ! BADSTATE
         0 000315   000000 011200                    NOP   ! 0

     2484     7333                    /* END OF STATE DOCASE */
     2485     7334    5                     END;

   7334  0 000316   000357 710200 0                  TRA   ! REPORT_IN

     2486     7335        /**
     2487     7336         **
     2488     7337         **      INITIAL DISCONNECT EVENT
     2489     7338         **
     2490     7339         **/
     2491     7340    4                 CASE (FOSE_IDSC#);

     2492     7341    4                   FO$SYMB.BR=BLKREC;

   7341  0 000317   200005 471700                    LDP1  ! @INFO,,AUTO
         0 000320   100000 236300                    LDQ   ! 0,,PR1
         0 000321   200003 473700                    LDP3  ! @FO$SYMB,,AUTO
PL6.E3A0      #009=FOM$EVENT File=FOM$MOOS.:E05TSI                               TUE 07/29/97 17:10 Page:343
         0 000322   300003 756300                    STQ   ! 3,,PR3

     2493     7342    4                   FO$SYMB.EFLGB.IDSC='1'B;

   7342  0 000323   000400 236207                    LDQ   ! 256,DL
         0 000324   300012 256300                    ORSQ  ! 10,,PR3

     2494     7343    5                     DO CASE (STATE);

   7343  0 000325   200060 235300                    LDA   ! STATE,,AUTO
         0 000326   000010 115207                    CMPA  ! 8,DL
         0 000327   000331 602205 0                  TNC   ! s:7343+4,AL
         0 000330   000345 710200 0                  TRA   ! s:7350
         0 000331   000341 710200 0                  TRA   ! s:7345
         0 000332   000341 710200 0                  TRA   ! s:7345
         0 000333   000344 710200 0                  TRA   ! s:7348
         0 000334   000341 710200 0                  TRA   ! s:7345
         0 000335   000345 710200 0                  TRA   ! s:7350
         0 000336   000341 710200 0                  TRA   ! s:7345
         0 000337   000344 710200 0                  TRA   ! s:7348
         0 000340   000344 710200 0                  TRA   ! s:7348

     2495     7344    5                       CASE (FOMS_IDLE#,FOMS_HOLD#,FOMS_HELD#,FOMS_DVIO#);

     2496     7345    5                         CALL DO_IDSC;

   7345  0 000341   000566 701200 0                  TSX1  ! DO_IDSC
         0 000342   000000 011200                    NOP   ! 0

     2497     7346    5                         RETURN;

   7346  0 000343   000000 702200 xent               TSX2  ! X66_ARET

     2498     7347    5                       CASE (FOMS_DKIO#,FOMS_ACTV#,FOMS_HRQW#);

     2499     7348    5                         RETURN;

PL6.E3A0      #009=FOM$EVENT File=FOM$MOOS.:E05TSI                               TUE 07/29/97 17:10 Page:344
   7348  0 000344   000000 702200 xent               TSX2  ! X66_ARET

     2500     7349    5                       CASE (ELSE);

     2501     7350    5                         CALL BADSTATE;

   7350  0 000345   000621 701200 0                  TSX1  ! BADSTATE
         0 000346   000000 011200                    NOP   ! 0

     2502     7351                    /* END OF STATE DOCASE */
     2503     7352    5                     END;

   7352  0 000347   000357 710200 0                  TRA   ! REPORT_IN

     2504     7353        /**
     2505     7354         **
     2506     7355         **      FINAL DISCONNECT EVENT
     2507     7356         **
     2508     7357         **/
     2509     7358    4                 CASE (FOSE_FDSC#);

     2510     7359
     2511     7360    4                   FO$SYMB.EFLGB.FDSC='1'B;

   7360  0 000350   200003 471700                    LDP1  ! @FO$SYMB,,AUTO
         0 000351   001000 236207                    LDQ   ! 512,DL
         0 000352   100012 256300                    ORSQ  ! 10,,PR1

     2512     7361    4                   RETURN;

   7361  0 000353   000000 702200 xent               TSX2  ! X66_ARET

     2513     7362        /**
     2514     7363         **
     2515     7364         **      HALT REQUEST RETRY EVENT
     2516     7365         **
     2517     7366         **/
PL6.E3A0      #009=FOM$EVENT File=FOM$MOOS.:E05TSI                               TUE 07/29/97 17:10 Page:345
     2518     7367    4                 CASE (FOSE_HRQR#);

     2519     7368    4                   GOTO REPORT_IN;

   7368  0 000354   000357 710200 0                  TRA   ! REPORT_IN

     2520     7369        /**
     2521     7370         **
     2522     7371         **      UNKNOWN EVENT
     2523     7372         **
     2524     7373         **/
     2525     7374    4                 CASE (ELSE);

     2526     7375    4                   CALL BADEVENT;

   7375  0 000355   000614 701200 0                  TSX1  ! BADEVENT
         0 000356   000000 011200                    NOP   ! 0

     2527     7376        /**
     2528     7377         **      END OF SPECIAL EVENT DOCASE AND DO
     2529     7378         **/
     2530     7379    4               END;

     2531     7380    3             END;

   7375  0 000357                       REPORT_IN    null
     2532     7381        /***
     2533     7382         ***
     2534     7383         ***
     2535     7384         ***          WRAP UP PREVIOUS EVENTS
     2536     7385         ***
     2537     7386         ***
     2538     7387         ***/
     2539     7388    2   REPORT_IN:;
     2540     7389    2           IF FO$SYMB.EFLGB.IDSC THEN

   7389  0 000357   200003 470700                    LDP0  ! @FO$SYMB,,AUTO
PL6.E3A0      #009=FOM$EVENT File=FOM$MOOS.:E05TSI                               TUE 07/29/97 17:10 Page:346
         0 000360   000012 236300                    LDQ   ! 10,,PR0
         0 000361   000400 316207                    CANQ  ! 256,DL
         0 000362   000366 600200 0                  TZE   ! s:7395

     2541     7390    3             DO;

     2542     7391    3             CALL DO_IDSC;

   7391  0 000363   000566 701200 0                  TSX1  ! DO_IDSC
         0 000364   000000 011200                    NOP   ! 0

   7391  0 000365                       ALTRT        null
     2543     7392    3   ALTRT:    ;
     2544     7393    3             ALTRETURN;

   7393  0 000365   000000 702200 xent               TSX2  ! X66_AALT

     2545     7394    3             END;
     2546     7395    2           IF FO$SYMB.EFLGB.SHTD THEN

   7395  0 000366   002000 316207                    CANQ  ! 1024,DL
         0 000367   000373 600200 0                  TZE   ! s:7400

     2547     7396    3             DO;

     2548     7397    3             CALL DO_TELLHLT ALTRET(REPORT_IN);

   7397  0 000370   000506 701200 0                  TSX1  ! DO_TELLHLT
         0 000371   000357 702200 0                  TSX2  ! REPORT_IN

     2549     7398    3             ALTRETURN;

   7398  0 000372   000000 702200 xent               TSX2  ! X66_AALT

     2550     7399    3             END;
     2551     7400    2           IF FO$SYMB.EFLGB.HLTR THEN

PL6.E3A0      #009=FOM$EVENT File=FOM$MOOS.:E05TSI                               TUE 07/29/97 17:10 Page:347
   7400  0 000373   004000 316207                    CANQ  ! 2048,DL
         0 000374   000400 600200 0                  TZE   ! s:7405

     2552     7401    3             DO;

     2553     7402    3             CALL DO_STARTHLT ALTRET(REPORT_IN);

   7402  0 000375   000401 701200 0                  TSX1  ! DO_STARTHLT
         0 000376   000357 702200 0                  TSX2  ! REPORT_IN

     2554     7403    3             ALTRETURN;

   7403  0 000377   000000 702200 xent               TSX2  ! X66_AALT

     2555     7404    3             END;
     2556     7405    2           END; /*DO INHIBIT*/

   7405  0 000400   000633 710000 0                  TRA     s:7498+2

     2557     7406        /**/
     2558     7407        /**/
     2559     7408    1   DO_STARTHLT: PROC ALTRET;

   7408  0 000401   200064 741300       DO_STARTHLT  STX1  ! LDCT$+2,,AUTO

     2560     7409    3           DO INHIBIT;

     2561     7410        /* RLCID = Remote Logical Connection ID */
     2562     7411    3           IF LDCT$->NK$LDCT.DFLG.LOCAL

   7411  0 000402   200062 470700                    LDP0  ! LDCT$,,AUTO
         0 000403   000006 236300                    LDQ   ! 6,,PR0
         0 000404   002000 316207                    CANQ  ! 1024,DL
         0 000405   000412 601200 0                  TNZ   ! s:7414
         0 000406   200003 471700                    LDP1  ! @FO$SYMB,,AUTO
         0 000407   100012 236300                    LDQ   ! 10,,PR1
         0 000410   040000 316207                    CANQ  ! 16384,DL
PL6.E3A0      #009=FOM$EVENT File=FOM$MOOS.:E05TSI                               TUE 07/29/97 17:10 Page:348
         0 000411   000420 600200 0                  TZE   ! s:7418

     2563     7412    3           OR FO$SYMB.SPACING THEN
     2564     7413    4             DO;

     2565     7414    4             CALL DO_TELLHLT ALTRET(ALTRT);

   7414  0 000412   000506 701200 0                  TSX1  ! DO_TELLHLT
         0 000413   000416 702200 0                  TSX2  ! ALTRT

     2566     7415    4             RETURN;

   7415  0 000414   200064 221300                    LDX1  ! LDCT$+2,,AUTO
         0 000415   000001 702211                    TSX2  ! 1,X1

     2567     7416    4   ALTRT:    ALTRETURN;

   7416  0 000416   200064 221300       ALTRT        LDX1  ! LDCT$+2,,AUTO
         0 000417   000000 702211                    TSX2  ! 0,X1

     2568     7417    4             END;
     2569     7418    3           FO$SYMB.STATE=FOMS_ACTV#;

   7418  0 000420   000000 376200 1                  ANQ   ! 0
         0 000421   000006 276207                    ORQ   ! 6,DL
         0 000422   100012 756300                    STQ   ! 10,,PR1

     2570     7419    3           K$RWPARM = K_RWPARM_CON;

   7419  0 000423   000100 100600                    MLR   ! fill='000'O
         0 000424   000000 000234 xsym               ADSC9   K_RWPARM_CON             cn=0,n=156
         0 000425   200006 000234                    ADSC9   K$RWPARM,,AUTO           cn=0,n=156

     2571     7420        /* LSTRCRID = (request) Last Record ID */
     2572     7421    3           K$RWPARM.MRKTYP = %KV_VDOMRKTYP_SNDLSTRCRID;

   7421  0 000426   004000 236207                    LDQ   ! 2048,DL
PL6.E3A0      #009=FOM$EVENT File=FOM$MOOS.:E05TSI                               TUE 07/29/97 17:10 Page:349
         0 000427   200046 552310                    STBQ  ! K$RWPARM+32,'10'O,AUTO

     2573     7422    3           CALL KIA$FCNO (LDCT$->NK$LDCT,%KV_VDO_FNC_RQSMRK,K$RWPARM) ALTRET (WAIT);

   7422  0 000430   200006 633700                    EPPR3 ! K$RWPARM,,AUTO
         0 000431   200076 453700                    STP3  ! @INFOWORD+4,,AUTO
         0 000432   000005 236200 1                  LDQ   ! 5
         0 000433   200062 235300                    LDA   ! LDCT$,,AUTO
         0 000434   200074 757300                    STAQ  ! @INFOWORD+2,,AUTO
         0 000435   200074 630700                    EPPR0 ! @INFOWORD+2,,AUTO
         0 000436   000021 631600 xsym               EPPR1 ! B_VECTNIL+17
         0 000437   000000 701200 xent               TSX1  ! KIA$FCNO
         0 000440   000456 702200 0                  TSX2  ! WAIT

     2574     7423    3           IF FO$SYMB.EFLGB.IDSC OR FO$SYMB.EFLGB.SHTD THEN ALTRETURN;

   7423  0 000441   200003 470700                    LDP0  ! @FO$SYMB,,AUTO
         0 000442   000012 236300                    LDQ   ! 10,,PR0
         0 000443   000400 316207                    CANQ  ! 256,DL
         0 000444   000447 601200 0                  TNZ   ! s:7423+6
         0 000445   002000 316207                    CANQ  ! 1024,DL
         0 000446   000451 600200 0                  TZE   ! s:7424

   7423  0 000447   200064 221300                    LDX1  ! LDCT$+2,,AUTO
         0 000450   000000 702211                    TSX2  ! 0,X1

     2575     7424    3           ELSE FO$SYMB.STATE=FOMS_HOLD#;

   7424  0 000451   000000 376200 1                  ANQ   ! 0
         0 000452   000001 276207                    ORQ   ! 1,DL
         0 000453   000012 756300                    STQ   ! 10,,PR0

     2576     7425    3           RETURN;

   7425  0 000454   200064 221300                    LDX1  ! LDCT$+2,,AUTO
         0 000455   000001 702211                    TSX2  ! 1,X1

PL6.E3A0      #009=FOM$EVENT File=FOM$MOOS.:E05TSI                               TUE 07/29/97 17:10 Page:350
   7423  0 000456                       WAIT         null
     2577     7426    3   WAIT:   ;
     2578     7427    3           FO$SYMB.STATE=FOMS_HRQW#;

   7427  0 000456   200003 470700                    LDP0  ! @FO$SYMB,,AUTO
         0 000457   000012 236300                    LDQ   ! 10,,PR0
         0 000460   000000 376200 1                  ANQ   ! 0
         0 000461   000007 276207                    ORQ   ! 7,DL
         0 000462   000012 756300                    STQ   ! 10,,PR0

     2579     7428    3           FO$SYMB.HRQWAIT='1'B;

   7428  0 000463   200000 236207                    LDQ   ! 65536,DL
         0 000464   000012 256300                    ORSQ  ! 10,,PR0

     2580     7429    3           CALL SSC$MONTIMR (FOM_DLY#,ENTADDR(FOM$TIMR),ADDR(FO$SYMB));

   7429  0 000465   000000 636200 xent               EAQ   ! FOM$TIMR
         0 000466   200074 756300                    STQ   ! @INFOWORD+2,,AUTO
         0 000467   200003 236300                    LDQ   ! @FO$SYMB,,AUTO
         0 000470   200075 756300                    STQ   ! @INFOWORD+3,,AUTO
         0 000471   200075 631700                    EPPR1 ! @INFOWORD+3,,AUTO
         0 000472   200100 451700                    STP1  ! @INFOWORD+6,,AUTO
         0 000473   200074 633700                    EPPR3 ! @INFOWORD+2,,AUTO
         0 000474   200077 453700                    STP3  ! @INFOWORD+5,,AUTO
         0 000475   000007 236200 1                  LDQ   ! 7
         0 000476   200076 756300                    STQ   ! @INFOWORD+4,,AUTO
         0 000477   200076 630700                    EPPR0 ! @INFOWORD+4,,AUTO
         0 000500   000021 631600 xsym               EPPR1 ! B_VECTNIL+17
         0 000501   000000 701200 xent               TSX1  ! SSC$MONTIMR
         0 000502   000000 011200                    NOP   ! 0

     2581     7430    3           RETURN;

   7430  0 000503   200064 221300                    LDX1  ! LDCT$+2,,AUTO
         0 000504   000001 702211                    TSX2  ! 1,X1

PL6.E3A0      #009=FOM$EVENT File=FOM$MOOS.:E05TSI                               TUE 07/29/97 17:10 Page:351
     2582     7431    3           END; /*DO INHIBIT*/

     2583     7432    2   END DO_STARTHLT;

   7432  0 000505   000001 702211                    TSX2  ! 1,X1

     2584     7433        /**/
     2585     7434    1   DO_TELLHLT: PROC ALTRET;

   7434  0 000506   200066 741300       DO_TELLHLT   STX1  ! LDCT$+4,,AUTO

     2586     7435    3           DO INHIBIT;

     2587     7436    3           ECCSC=%CG_STHLD#;

   7436  0 000507   000013 235207                    LDA   ! 11,DL
         0 000510   200061 755300                    STA   ! ECCSC,,AUTO

     2588     7437    3           IF FO$SYMB.HLTRSN = FOHR_FERR# THEN

   7437  0 000511   200003 470700                    LDP0  ! @FO$SYMB,,AUTO
         0 000512   000011 236300                    LDQ   ! 9,,PR0
         0 000513   000777 376207                    ANQ   ! 511,DL
         0 000514   000003 116207                    CMPQ  ! 3,DL
         0 000515   000521 601200 0                  TNZ   ! s:7440

     2589     7438    3            ECCSC = %CG_SFERR#;

   7438  0 000516   000014 235207                    LDA   ! 12,DL
         0 000517   200061 755300                    STA   ! ECCSC,,AUTO
         0 000520   000525 710200 0                  TRA   ! s:7442

     2590     7439    3           ELSE
     2591     7440    3            IF FO$SYMB.HLTRSN = FOHR_TERR# THEN

   7440  0 000521   000004 116207                    CMPQ  ! 4,DL
         0 000522   000525 601200 0                  TNZ   ! s:7442
PL6.E3A0      #009=FOM$EVENT File=FOM$MOOS.:E05TSI                               TUE 07/29/97 17:10 Page:352

     2592     7441    3             ECCSC = %CG_STERR#;

   7441  0 000523   000015 235207                    LDA   ! 13,DL
         0 000524   200061 755300                    STA   ! ECCSC,,AUTO

     2593     7442    3           FO$SYMB.STATE=FOMS_ACTV#;

   7442  0 000525   000012 236300                    LDQ   ! 10,,PR0
         0 000526   000000 376200 1                  ANQ   ! 0
         0 000527   000006 276207                    ORQ   ! 6,DL
         0 000530   000012 756300                    STQ   ! 10,,PR0

     2594     7443    3           CALL FOM$REL (FO$SYMB);

   7443  0 000531   200003 630700                    EPPR0 ! @FO$SYMB,,AUTO
         0 000532   000017 631600 xsym               EPPR1 ! B_VECTNIL+15
         0 000533   000000 701200 xent               TSX1  ! FOM$REL
         0 000534   000000 011200                    NOP   ! 0

     2595     7444    3           IF FO$SYMB.EFLGB.IDSC THEN ALTRETURN;

   7444  0 000535   200003 470700                    LDP0  ! @FO$SYMB,,AUTO
         0 000536   000012 236300                    LDQ   ! 10,,PR0
         0 000537   000400 316207                    CANQ  ! 256,DL
         0 000540   000543 600200 0                  TZE   ! s:7445

   7444  0 000541   200066 221300                    LDX1  ! LDCT$+4,,AUTO
         0 000542   000000 702211                    TSX2  ! 0,X1

     2596     7445    3           FO$SYMB.STATE=FOMS_HELD#;

   7445  0 000543   000000 376200 1                  ANQ   ! 0
         0 000544   000005 276207                    ORQ   ! 5,DL
         0 000545   000012 756300                    STQ   ! 10,,PR0

     2597     7446    3           FO$SYMB.EFLGB.SHTD='0'B;
PL6.E3A0      #009=FOM$EVENT File=FOM$MOOS.:E05TSI                               TUE 07/29/97 17:10 Page:353

   7446  0 000546   000010 236200 1                  LDQ   ! 8
         0 000547   000012 356300                    ANSQ  ! 10,,PR0

     2598     7447    3           FO$SYMB.EFLGB.HLTR='0'B;

   7447  0 000550   000011 236200 1                  LDQ   ! 9
         0 000551   000012 356300                    ANSQ  ! 10,,PR0

     2599     7448    3           FO$SYMB.SPACING='0'B;

   7448  0 000552   000001 236200 1                  LDQ   ! 1
         0 000553   000012 356300                    ANSQ  ! 10,,PR0

     2600     7449    3           CALL TELLAU (ECCSC,FO$SYMB.BR);

   7449  0 000554   200003 236300                    LDQ   ! @FO$SYMB,,AUTO
         0 000555   000003 036203                    ADLQ  ! 3,DU
         0 000556   200072 756300                    STQ   ! @EVENT+1,,AUTO
         0 000557   200061 631700                    EPPR1 ! ECCSC,,AUTO
         0 000560   200071 451700                    STP1  ! LDCT$+7,,AUTO
         0 000561   000645 701200 0                  TSX1  ! TELLAU
         0 000562   000000 011200                    NOP   ! 0

     2601     7450    3           RETURN;

   7450  0 000563   200066 221300                    LDX1  ! LDCT$+4,,AUTO
         0 000564   000001 702211                    TSX2  ! 1,X1

     2602     7451    3           END; /*DO INHIBIT*/

     2603     7452    2   END DO_TELLHLT;

   7452  0 000565   000001 702211                    TSX2  ! 1,X1

     2604     7453        /**/
     2605     7454    1   DO_IDSC: PROC;
PL6.E3A0      #009=FOM$EVENT File=FOM$MOOS.:E05TSI                               TUE 07/29/97 17:10 Page:354

   7454  0 000566   200064 741300       DO_IDSC      STX1  ! LDCT$+2,,AUTO

     2606     7455    3           DO INHIBIT;

     2607     7456    3           FO$SYMB.STATE=FOMS_ACTV#;

   7456  0 000567   200003 470700                    LDP0  ! @FO$SYMB,,AUTO
         0 000570   000012 236300                    LDQ   ! 10,,PR0
         0 000571   000000 376200 1                  ANQ   ! 0
         0 000572   000006 276207                    ORQ   ! 6,DL
         0 000573   000012 756300                    STQ   ! 10,,PR0

     2608     7457    3           CALL FOM$REL (FO$SYMB);

   7457  0 000574   200003 630700                    EPPR0 ! @FO$SYMB,,AUTO
         0 000575   000017 631600 xsym               EPPR1 ! B_VECTNIL+15
         0 000576   000000 701200 xent               TSX1  ! FOM$REL
         0 000577   000000 011200                    NOP   ! 0

     2609     7458    3           FO$SYMB.STATE=FOMS_DCMP#;

   7458  0 000600   200003 470700                    LDP0  ! @FO$SYMB,,AUTO
         0 000601   000012 236300                    LDQ   ! 10,,PR0
         0 000602   000000 376200 1                  ANQ   ! 0
         0 000603   000004 276207                    ORQ   ! 4,DL
         0 000604   000012 756300                    STQ   ! 10,,PR0

     2610     7459    3           CALL KQP$DISC (LDCT$->NK$LDCT);

   7459  0 000605   200062 630700                    EPPR0 ! LDCT$,,AUTO
         0 000606   000017 631600 xsym               EPPR1 ! B_VECTNIL+15
         0 000607   000000 701200 xent               TSX1  ! KQP$DISC
         0 000610   000000 011200                    NOP   ! 0

     2611     7460    3           RETURN;

PL6.E3A0      #009=FOM$EVENT File=FOM$MOOS.:E05TSI                               TUE 07/29/97 17:10 Page:355
   7460  0 000611   200064 221300                    LDX1  ! LDCT$+2,,AUTO
         0 000612   000001 702211                    TSX2  ! 1,X1

     2612     7461    3           END; /*DO INHIBIT*/

     2613     7462    2   END DO_IDSC;

   7462  0 000613   000001 702211                    TSX2  ! 1,X1

     2614     7463        /**/
     2615     7464    1   BADEVENT: PROC;

   7464  0 000614   200064 741300       BADEVENT     STX1  ! LDCT$+2,,AUTO

     2616     7465    2         CALL SC_BADSYMBEVENT;

   7465  0 000615   000000 713400 xsym               CLIMB   SC_BADSYMBEVENT
         0 000616   000000 600000 xsid               climb   nvectors=         0

     2617     7466        /*S* SCREECH_CODE: FOM-S$BADSYMBEVENT
     2618     7467             TYPE:         SCREECH
     2619     7468             MESSAGE:      Bad event passed to FOM$EVENT
     2620     7469             REMARKS:      Either the event code passed to FOM$EVENT,
     2621     7470                           or the qualifier (e.g. HLTRSN) thereof,
     2622     7471                           was unknown.  Monitor auto being clobbered
     2623     7472                           is a possible culprit, but essentially this
     2624     7473                           screech should never occur. */
     2625     7474    2   END BADEVENT;

   7474  0 000617   200064 221300                    LDX1  ! LDCT$+2,,AUTO
         0 000620   000001 702211                    TSX2  ! 1,X1

     2626     7475        /**/
     2627     7476    1   BADSTATE: PROC;

   7476  0 000621   200064 741300       BADSTATE     STX1  ! LDCT$+2,,AUTO

PL6.E3A0      #009=FOM$EVENT File=FOM$MOOS.:E05TSI                               TUE 07/29/97 17:10 Page:356
     2628     7477    2         CALL SC_BADSYMBSTATE;

   7477  0 000622   000000 713400 xsym               CLIMB   SC_BADSYMBSTATE
         0 000623   000000 600000 xsid               climb   nvectors=         0

     2629     7478        /*S* SCREECH_CODE: FOM-S$BADSYMBSTATE
     2630     7479             TYPE:         SCREECH
     2631     7480             MESSAGE:      FOM$EVENT found a symbiont in an unknown state
     2632     7481             REMARKS:      This screech occurs when FOM$EVENT finds a
     2633     7482                           symbiont in an unknown state.  This probably
     2634     7483                           is due to the LDCT containing the symbiont's
     2635     7484                           context having been clobbered.  */
     2636     7485    2   END BADSTATE;

   7485  0 000624   200064 221300                    LDX1  ! LDCT$+2,,AUTO
         0 000625   000001 702211                    TSX2  ! 1,X1

     2637     7486        /**/
     2638     7487    1   BADEVST: PROC;

   7487  0 000626   200064 741300       BADEVST      STX1  ! LDCT$+2,,AUTO

     2639     7488    2         CALL SC_BADSYMBEVST;

   7488  0 000627   000000 713400 xsym               CLIMB   SC_BADSYMBEVST
         0 000630   000000 600000 xsid               climb   nvectors=         0

     2640     7489        /*S* SCREECH_CODE: FOM-S$BADSYMBEVST
     2641     7490             TYPE:         SCREECH
     2642     7491             MESSAGE:      Bad event-state combination in FOM$EVENT
     2643     7492             REMARKS:      The event being reported to FOM$EVENT, and
     2644     7493                           the current state/flag-settings of the
     2645     7494                           symbiont involved, should never occur sim-
     2646     7495                           ultaneously.  The cause can be elicited by
     2647     7496                           determining the recent history of the symbiont
     2648     7497                           involved.                     */
     2649     7498    2   END BADEVST;
PL6.E3A0      #009=FOM$EVENT File=FOM$MOOS.:E05TSI                               TUE 07/29/97 17:10 Page:357

   7498  0 000631   200064 221300                    LDX1  ! LDCT$+2,,AUTO
         0 000632   000001 702211                    TSX2  ! 1,X1
         0 000633   000636 710000 0                  TRA     s:7509

     2650     7499        /**/
     2651     7500        /**/
     2652     7501        /*F* NAME:         FOM$TELLAU
     2653     7502             PURPOSE:      To pass a special event to the OSCG AU
     2654     7503             DESCRIPTION:  Passes the symb context block, the event code,
     2655     7504                           and one word of info.  OUTSYM is passed the
     2656     7505                           appropriate special event message.
     2657     7506        */
     2658     7507    1   FOM$TELLAU: ENTRY (FO$SYMB,FO$SEVNT,INFO) ALTRET; /* !!Doesn't ALTRET!! */

   7507  0 000634   000000 700200 xent  FOM$TELLAU   TSX0  ! X66_AUTO_3
         0 000635   000102 000003                    ZERO    66,3

     2659     7508        /**/
     2660     7509    1         CALL TELLAU (ADDR(FO$SEVNT)->B$$WORD,INFO);

   7509  0 000636   200005 236100                    LDQ     @INFO,,AUTO
         0 000637   200072 756100                    STQ     @EVENT+1,,AUTO
         0 000640   200004 236100                    LDQ     @FO$SEVNT,,AUTO
         0 000641   200071 756100                    STQ     LDCT$+7,,AUTO
         0 000642   000645 701000 0                  TSX1    TELLAU
         0 000643   000000 011000                    NOP     0

     2661     7510    1         RETURN;

   7510  0 000644   000000 702200 xent               TSX2  ! X66_ARET

     2662     7511        /**/
     2663     7512        /*D* NAME:         TELLAU
     2664     7513             PURPOSE:      To event OUTSYM */
     2665     7514    1   TELLAU: PROC (EVENT,INFOWORD);

PL6.E3A0      #009=FOM$EVENT File=FOM$MOOS.:E05TSI                               TUE 07/29/97 17:10 Page:358
   7514  0 000645   200070 741300       TELLAU       STX1  ! LDCT$+6,,AUTO

     2666     7515        /**/
     2667     7516    2   DCL EVENT UBIN WORD;
     2668     7517    2   DCL INFOWORD UBIN WORD;
     2669     7518        /**/
     2670     7519    3           DO INHIBIT;

     2671     7520    3           LDCT$=NK$LDCT$(FO$SYMB.DEVLDCTX);

   7520  0 000646   200003 470700                    LDP0  ! @FO$SYMB,,AUTO
         0 000647   000010 720300                    LXL0  ! 8,,PR0
         0 000650   000000 471600 xsym               LDP1  ! N$DCT$$
         0 000651   100000 236310                    LDQ   ! 0,X0,PR1
         0 000652   200062 756300                    STQ   ! LDCT$,,AUTO

     2672     7521    3           CG$=LDCT$->NK$LDCT.CG$;

   7521  0 000653   200062 473700                    LDP3  ! LDCT$,,AUTO
         0 000654   300027 236300                    LDQ   ! 23,,PR3
         0 000655   200057 756300                    STQ   ! CG$,,AUTO

     2673     7522    3           CALL KQX$LDASR (CG$->KQ$CG);

   7522  0 000656   200057 630700                    EPPR0 ! CG$,,AUTO
         0 000657   000017 631600 xsym               EPPR1 ! B_VECTNIL+15
         0 000660   000000 701200 xent               TSX1  ! KQX$LDASR
         0 000661   000000 011200                    NOP   ! 0

     2674     7523    3           STA$=LDCT$->NK$LDCT.STA$;

   7523  0 000662   200062 470700                    LDP0  ! LDCT$,,AUTO
         0 000663   000012 236300                    LDQ   ! 10,,PR0
         0 000664   200056 756300                    STQ   ! STA$,,AUTO

     2675     7524    3           CALL KCA$TELLAU (STA$->KQ$STA,EVENT,INFOWORD);

PL6.E3A0      #009=FOM$EVENT File=FOM$MOOS.:E05TSI                               TUE 07/29/97 17:10 Page:359
   7524  0 000665   200072 236300                    LDQ   ! @INFOWORD,,AUTO
         0 000666   200076 756300                    STQ   ! @INFOWORD+4,,AUTO
         0 000667   200071 236300                    LDQ   ! @EVENT,,AUTO
         0 000670   200056 235300                    LDA   ! STA$,,AUTO
         0 000671   200074 757300                    STAQ  ! @INFOWORD+2,,AUTO
         0 000672   200074 630700                    EPPR0 ! @INFOWORD+2,,AUTO
         0 000673   000021 631600 xsym               EPPR1 ! B_VECTNIL+17
         0 000674   000000 701200 xent               TSX1  ! KCA$TELLAU
         0 000675   000000 011200                    NOP   ! 0

     2676     7525    3           RETURN;

   7525  0 000676   200070 221300                    LDX1  ! LDCT$+6,,AUTO
         0 000677   000001 702211                    TSX2  ! 1,X1

     2677     7526    3           END;

     2678     7527    2   END TELLAU;

   7527  0 000700   000001 702211                    TSX2  ! 1,X1

(unnamed)
 Sect OctLoc
   1     000   777777 777760   777777 737777   000000 000017   000002 006000    ................
   1     004   000000 000040   000004 006000   000000 000062   000006 006000    ... .......2....
   1     010   777777 775777   777777 773777                                    ........
     2679     7528        /**/
     2680     7529        /**/
     2681     7530    1   END FOM$EVENT;
     2682     7531        /**/
     2683     7532        %EOD;

PL6.E3A0      #009=FOM$EVENT File=FOM$MOOS.:E05TSI                               TUE 07/29/97 17:10 Page:360
--  Include file information  --

   KQ_SUBS_C.:E05TOU  is referenced.
   KC$CP6V_C.:E05TOU  is referenced.
   KC_CP6.:E05TOU  is referenced.
   KQ_MAC_C.:E05TOU  is referenced.
   NK_LDCT_R.:E05TOU  cannot be made into a system file and is referenced.
   K$RWPARM.:E05TOU  is referenced.
   K_DATA_R.:E05TOU  cannot be made into a system file and is referenced.
   KV$VDO.:E05TOU  is referenced.
   KC_SUBS_C.:E05TOU  is referenced.
   FOM_SUBS_C.:E05TOU  is referenced.
   NK$LDCT.:E05TOU  is referenced.
   FOM$STRUCT.:E05TOU  is referenced.
      No diagnostics issued in procedure FOM$EVENT.
PL6.E3A0      #009=FOM$EVENT File=FOM$MOOS.:E05TSI                               TUE 07/29/97 17:10 Page:361

 **** Variables and constants ****

  ****  Auto variables  ****

  ****  Scalars and arrays  ****
OctLoc.c.b A Datatyp(siz) R M Lvl/name                 OctLoc.c.b A Datatyp(siz) R M Lvl/name

    71-0-0/w PTR         r     1 @EVENT                     4-0-0/w PTR         r     1 @FO$SEVNT
     3-0-0/w PTR         r     1 @FO$SYMB                   5-0-0/w PTR         r     1 @INFO
    72-0-0/w PTR         r     1 @INFOWORD                 *0-0-0/w BIT         r     1 BLKREC
    57-0-0/w PTR         r     1 CG$                       61-0-0/w UBIN        r     1 ECCSC
    *0-0-0/w UBIN        r     1 EVENT                     *0-0-0/w STRC        r     1 FO$SEVNT
    *0-0-0/w STRC(720)   r     1 FO$SYMB                   *0-0-0/w UBIN        r     1 HLTRSN
    *0-0-0/w UBIN        r     1 INFO                      *0-0-0/w UBIN        r     1 INFOWORD
     6-0-0/d STRC(1404)  r     1 K$RWPARM                  62-0-0/w PTR         r     1 LDCT$
    56-0-0/w PTR         r     1 STA$                      60-0-0/w UBIN        r     1 STATE

  ****  SYMREF variables  ****

  ****  Scalars and arrays  ****
OctLoc.c.b A Datatyp(siz) R M Lvl/name                 OctLoc.c.b A Datatyp(siz) R M Lvl/name

     0-0-0/d STRC(1404)  r     1 K_RWPARM_CON               0-0-0/w PTR         r     1 N$DCT$$

  ****  BASED and DCB variables  ****

  ****  Scalars and arrays  ****
OctLoc.c.b A Datatyp(siz) R M Lvl/name                 OctLoc.c.b A Datatyp(siz) R M Lvl/name

     0-0-0/w UBIN        r     1 B$$WORD                    0-0-0/d STRC(6516)  r     1 KQ$CG
     0-0-0/d STRC(1296)  r     1 KQ$STA                     0-0-0/d STRC(864)   r     1 NK$LDCT
     0-0-0/w PTR         r     1 NK$LDCT$(0:0)


   Procedure FOM$EVENT requires 449 words for executable code.
   Procedure FOM$EVENT requires 66 words of local(AUTO) storage.
PL6.E3A0      #009=FOM$EVENT File=FOM$MOOS.:E05TSI                               TUE 07/29/97 17:10 Page:362
          *** CROSS REFERENCE LISTING ***
**     DENOTES     IDENTIFIER DEFINITION
<<                 IDENTIFIER'S VALUE SET
>>                 IDENTIFIER'S VALUE USED
<>                 IDENTIFIER SET AND/OR USED
--                 IDENTIFIER REFERENCED
PL6.E3A0      #009=FOM$EVENT File=FOM$MOOS.:E05TSI                               TUE 07/29/97 17:10 Page:363
          MINI XREF LISTING

ALTRT IN PROCEDURE DO_STARTHLT
      7416**LABEL    7414--CALLALT
B$$WORD
      5599**DCL      7509<>CALL
BADEVENT
      7464**PROC     7307--CALL     7375--CALL
BADEVST
      7487**PROC     7208--CALL     7210--CALL     7252--CALL
BADSTATE
      7476**PROC     7332--CALL     7350--CALL
BLKREC
      5593**DCL      7317>>ASSIGN   7341>>ASSIGN
CG$
      7046**DCL      7521<<ASSIGN   7522>>CALL
DO_IDSC
      7454**PROC     7345--CALL     7391--CALL
DO_STARTHLT
      7408**PROC     7304--CALL     7402--CALL
DO_TELLHLT
      7434**PROC     7300--CALL     7397--CALL     7414--CALL
ECCSC
      7048**DCL      7436<<ASSIGN   7438<<ASSIGN   7441<<ASSIGN   7449<>CALL
EVENT IN PROCEDURE TELLAU
      7516**DCL      7514--PROC     7524<>CALL
FO$SEVNT
      5587**DCL         8--PROC     7507--ENTRY    7509--CALL
FO$SEVNT.BADFLG
      5588**DCL      7210>>IF
FO$SEVNT.EVENT
      5587**DCL      7240>>DOCASE
FO$SEVNT.NEWSTATE
      5589**DCL      7219>>ASSIGN
PL6.E3A0      #009=FOM$EVENT File=FOM$MOOS.:E05TSI                               TUE 07/29/97 17:10 Page:364
FO$SEVNT.OLDSTATE
      5587**DCL      7207>>IF       7207>>IF
FO$SEVNT.SPECIAL
      5588**DCL      7212>>IF
FO$SYMB
      5555**DCL         8--PROC     7263<>CALL     7429--CALL     7443<>CALL     7457<>CALL     7507--ENTRY
FO$SYMB.BR
      5556**DCL      7267<>CALL     7317<<ASSIGN   7341<<ASSIGN   7449<>CALL
FO$SYMB.BR.BLK#
      5556**DCL      5557--REDEF
FO$SYMB.BR.REC#
      5557**DCL      5558--REDEF
FO$SYMB.BUF$
      5555**DCL      5556--REDEF
FO$SYMB.CUREXT.STAMP
      5559**DCL      5560--REDEF
FO$SYMB.DEVLDCTX
      5563**DCL      7204>>ASSIGN   7520>>ASSIGN
FO$SYMB.EFLGB
      5567**DCL      7210>>IF       7217>>IF       7261>>IF       7264>>IF       7277>>IF       7287>>IF
FO$SYMB.EFLGB.FDSC
      5568**DCL      7360<<ASSIGN
FO$SYMB.EFLGB.HLTR
      5568**DCL      7253>>IF       7279<<ASSIGN   7295<<ASSIGN   7326>>IF       7400>>IF       7447<<ASSIGN
FO$SYMB.EFLGB.IDSC
      5569**DCL      7294>>IF       7342<<ASSIGN   7389>>IF       7423>>IF       7444>>IF
FO$SYMB.EFLGB.SHTD
      5568**DCL      7297>>IF       7318<<ASSIGN   7395>>IF       7423>>IF       7446<<ASSIGN
FO$SYMB.HLTRSN
      5565**DCL      7280<<ASSIGN   7296<<ASSIGN   7323<<ASSIGN   7327<<ASSIGN   7437>>IF       7440>>IF
FO$SYMB.HRQWAIT
      5566**DCL      7428<<ASSIGN
FO$SYMB.SPACEPAGES
      5563**DCL      5564--REDEF
FO$SYMB.SPACING
      5566**DCL      7265<<ASSIGN   7411>>IF       7448<<ASSIGN
PL6.E3A0      #009=FOM$EVENT File=FOM$MOOS.:E05TSI                               TUE 07/29/97 17:10 Page:365
FO$SYMB.STATE
      5570**DCL      7203>>ASSIGN   7219<<ASSIGN   7262<<ASSIGN   7266<<ASSIGN   7278>>IF       7281>>IF
      7282>>IF       7289<<ASSIGN   7418<<ASSIGN   7424<<ASSIGN   7427<<ASSIGN   7442<<ASSIGN   7445<<ASSIGN
      7456<<ASSIGN   7458<<ASSIGN
FOM$REL
      7138**DCL-ENT  7263--CALL     7443--CALL     7457--CALL
FOM$TIMR
      7139**DCL-ENT  7429--CALL
HLTRSN
      5592**DCL      7275>>DOCASE   7296>>ASSIGN
INFO
      5591**DCL         8--PROC     5592--REDEF    5593--REDEF    7507--ENTRY    7509<>CALL
INFOWORD IN PROCEDURE TELLAU
      7517**DCL      7514--PROC     7524<>CALL
K$RWPARM
      6750**DCL      7419<<ASSIGN   7422<>CALL
K$RWPARM.BLKREC
      6776**DCL      6801--REDEF
K$RWPARM.BLKREC.BLKU#
      6777**DCL      6779--REDEF
K$RWPARM.BLKREC.RECU#
      6789**DCL      6791--REDEF
K$RWPARM.DVE.DVBYTE.VFC
      6816**DCL      6817--REDEF
K$RWPARM.DVE.EOMCHAR
      6824**DCL      6828--REDEF
K$RWPARM.ERR
      6888**DCL      6893--REDEF
K$RWPARM.FC
      6852**DCL      6853--REDEF
K$RWPARM.FLDID
      7034**DCL      7035--REDEF
K$RWPARM.FPT$
      6915**DCL      6922--REDEF
K$RWPARM.KEYTYPE
      7041**DCL      7042--REDEF
PL6.E3A0      #009=FOM$EVENT File=FOM$MOOS.:E05TSI                               TUE 07/29/97 17:10 Page:366
K$RWPARM.MRKTYP
      7026**DCL      7421<<ASSIGN
K$RWPARM.MSG$
      6751**DCL      6757--REDEF
K$RWPARM.MSGID
      6863**DCL      6868--REDEF
K$RWPARM.MSGIDXT
      6876**DCL      6880--REDEF
K$RWPARM.ORG
      7012**DCL      7013--REDEF
K$RWPARM.THDRSZ
      6956**DCL      6960--REDEF
K$RWPARM.VDOFLGS
      7014**DCL      7025--REDEF
KCA$TELLAU
      7140**DCL-ENT  7524--CALL
KIA$FCNO
      7141**DCL-ENT  7422--CALL
KQ$CG
      5954**DCL      7522<>CALL
KQ$CG.AUCTL.DVBYTE.REREAD
      6397**DCL      6398--REDEF
KQ$STA
      5614**DCL      7524<>CALL
KQ$STA.ACTTYC
      5666**DCL      5670--REDEF
KQ$STA.DCBLNK$
      5673**DCL      5676--REDEF    5680--REDEF
KQ$STA.EVCNT
      5759**DCL      5762--REDEF
KQ$STA.EVNT
      5725**DCL      5729--REDEF    5732--REDEF
KQ$STA.OPNBLKED
      5786**DCL      5789--REDEF
KQ$STA.OPNREJ
      5792**DCL      5794--REDEF
PL6.E3A0      #009=FOM$EVENT File=FOM$MOOS.:E05TSI                               TUE 07/29/97 17:10 Page:367
KQ$STA.SUCCREAD
      5715**DCL      5719--REDEF
KQ$STA.TCOUNT
      5844**DCL      5850--REDEF
KQ$STA.VGOT$
      5829**DCL      5833--REDEF    5837--REDEF
KQP$DISC
      7142**DCL-ENT  7459--CALL
KQX$LDASR
      7143**DCL-ENT  7522--CALL
K_RWPARM_CON
      1704**DCL      7419>>ASSIGN
K_RWPARM_CON.BLKREC
      1730**DCL      1755--REDEF
K_RWPARM_CON.BLKREC.BLKU#
      1731**DCL      1733--REDEF
K_RWPARM_CON.BLKREC.RECU#
      1743**DCL      1745--REDEF
K_RWPARM_CON.DVE.DVBYTE.VFC
      1770**DCL      1771--REDEF
K_RWPARM_CON.DVE.EOMCHAR
      1778**DCL      1782--REDEF
K_RWPARM_CON.ERR
      1842**DCL      1847--REDEF
K_RWPARM_CON.FC
      1806**DCL      1807--REDEF
K_RWPARM_CON.FLDID
      1988**DCL      1989--REDEF
K_RWPARM_CON.FPT$
      1869**DCL      1876--REDEF
K_RWPARM_CON.KEYTYPE
      1995**DCL      1996--REDEF
K_RWPARM_CON.MSG$
      1705**DCL      1711--REDEF
K_RWPARM_CON.MSGID
      1817**DCL      1822--REDEF
PL6.E3A0      #009=FOM$EVENT File=FOM$MOOS.:E05TSI                               TUE 07/29/97 17:10 Page:368
K_RWPARM_CON.MSGIDXT
      1830**DCL      1834--REDEF
K_RWPARM_CON.ORG
      1966**DCL      1967--REDEF
K_RWPARM_CON.THDRSZ
      1910**DCL      1914--REDEF
K_RWPARM_CON.VDOFLGS
      1968**DCL      1979--REDEF
LDCT$
      7049**DCL      7204<<ASSIGN   7248>>IF       7282>>IF       7411>>IF       7422>>CALL     7459>>CALL
      7520<<ASSIGN   7521>>ASSIGN   7523>>ASSIGN
N$DCT$$
      2007**DCL      2007--IMP-PTR  7204>>ASSIGN   7520>>ASSIGN
NK$LDCT
      6691**DCL      7422<>CALL     7459<>CALL
NK$LDCT.CG$
      6722**DCL      7521>>ASSIGN
NK$LDCT.DDT$
      6693**DCL      6693--REDEF
NK$LDCT.DFLG.LOCAL
      6697**DCL      7248>>IF       7282>>IF       7411>>IF
NK$LDCT.IOQ$
      6692**DCL      6693--REDEF
NK$LDCT.LDCTX
      6694**DCL      6694--REDEF
NK$LDCT.LKFLG.ABORTED
      6706**DCL      6707--REDEF
NK$LDCT.RLCID.LDCTX
      6716**DCL      6716--REDEF
NK$LDCT.STA$
      6712**DCL      6713--REDEF    7523>>ASSIGN
NK$LDCT.SYMB$
      6691**DCL      6691--REDEF    6691--REDEF    6692--REDEF
NK$LDCT$
      2007**DCL      7204>>ASSIGN   7520>>ASSIGN
NOSPC
PL6.E3A0      #009=FOM$EVENT File=FOM$MOOS.:E05TSI                               TUE 07/29/97 17:10 Page:369
      7213**LABEL    7250--GOTO     7253--GOTO
REPORT_IN
      7375**LABEL    7228--GOTO     7261--GOTO     7264--GOTO     7292--GOTO     7294--GOTO     7300--CALLALT
      7304--CALLALT  7368--GOTO     7397--CALLALT  7402--CALLALT
SC_BADSYMBEVENT
      7136**DCL-ENT  7465--CALL
SC_BADSYMBEVST
      7135**DCL-ENT  7488--CALL
SC_BADSYMBSTATE
      7137**DCL-ENT  7477--CALL
SSC$MONTIMR
      7144**DCL-ENT  7429--CALL
STA$
      7045**DCL      7523<<ASSIGN   7524>>CALL
START_HALT
      7297**LABEL    7281--GOTO     7284--GOTO
STATE
      7047**DCL      7203<<ASSIGN   7207>>IF       7249>>IF       7319>>DOCASE   7343>>DOCASE
TELLAU
      7514**PROC     7267--CALL     7449--CALL     7509--CALL
TELL_HALT
      7299**LABEL    7321--GOTO     7324--GOTO
WAIT IN PROCEDURE DO_STARTHLT
      7423**LABEL    7422--CALLALT

PL6.E3A0      #010=FOM$DEBLOCK File=FOM$MOOS.:E05TSI                             TUE 07/29/97 17:11 Page:370
     2684        1        /*T***********************************************************/
     2685        2        /*T*                                                         */
     2686        3        /*T* Copyright (c) Bull HN Information Systems Inc., 1997    */
     2687        4        /*T*                                                         */
     2688        5        /*T***********************************************************/
     2689        6
     2690        7
     2691        8        FOM$DEBLOCK: PROC (NK$LDCT);
     2692        9
     2693       10        /*F* NAME:     FOM$DEBLOCK
     2694       11             PURPOSE:  Deblocking for remote devices
     2695       12             DESCRIPTION: This routine deblocks the current symb granule for
     2696       13                          a FEP connect device.  It will get enter either by
     2697       14                          a PMME from OUTSYM or from an SSV$EVENT when throtlling
     2698       15                          is available.  It sends as much as it can and then
     2699       16                           waits for more throttling.
     2700       17         */
     2701       18
     2702       19        /* Includes */
     2703       20        %INCLUDE HF_LOCK_C;
     2704       34        %INCLUDE K_DATA_R;
     2705      745        %INCLUDE NK$LDCT;
     2706      847        %INCLUDE K_SUBS_C;
     2707      880        %INCLUDE KV$VDO;
     2708     1895        %INCLUDE FOM$STRUCT;
     2709     1956        %INCLUDE FOM_DATA_R;
     2710     2205        %INCLUDE FOM_SUBS_C;
     2711     2268        %INCLUDE FM$GRAN;
     2712     2337        %INCLUDE CP_6;
     2713     7896
     2714     7897
     2715     7898        /* Parameters */
     2716     7899              %NK$LDCT (STCLASS="");
     2717     7945
     2718     7946        /* Based */
     2719     7947              %FOM$SYMB (NAME=FO$SYMB);
     2720     7979              %FM$GRAN;
PL6.E3A0      #010=FOM$DEBLOCK File=FOM$MOOS.:E05TSI                             TUE 07/29/97 17:11 Page:371
     2721     7983              %FM$CON;
     2722     7987    1   DCL VFC CHAR(1) BASED;
     2723     7988
     2724     7989        /* Auto */
     2725     7990    1   DCL RECX UBIN;
     2726     7991    1   DCL RECX$ PTR;
     2727     7992    1   DCL REC# UBIN;
     2728     7993    1   DCL LAST UBIN;
     2729     7994    1   DCL AVAIL UBIN;
     2730     7995    1   DCL GRAN$ PTR;
     2731     7996    1   DCL SYMB$ PTR;
     2732     7997        %K$RWPARM (NAME=K$RWPARM);
     2733     8313
     2734     8314        /* Equates */
     2735     8315        %EQU_CG;
     2736     8363        %KV_VDO_ALL_E;
     2737     8442
     2738     8443        /* Refs */
     2739     8444    1   DCL KIA$WRITE ENTRY(2) ALTRET;
     2740     8445    1   DCL FOM$RNXDISK ENTRY(1) ALTRET;
     2741     8446    1   DCL FOM$TELLAU ENTRY(3) ALTRET;
     2742     8447    1   DCL FOM$EVENT ENTRY(3) ALTRET;
     2743     8448    1   DCL SSS$SYSTIME ENTRY(1);
     2744     8449
     2745     8450        %EJECT;
PL6.E3A0      #010=FOM$DEBLOCK File=FOM$MOOS.:E05TSI                             TUE 07/29/97 17:11 Page:372
     2746     8451              %LOCK (G=NK$LDCT.LOCK);
     2747     8454    1         SYMB$ = NK$LDCT.SYMB$;
     2748     8455    1         GRAN$ = SYMB$->FO$SYMB.BUF$;
     2749     8456    1         IF GRAN$ = ADDR(NIL)     /* No more */
     2750     8457    1         THEN
     2751     8458    1          GOTO UNLOCK;
     2752     8459    1         LAST = GRAN$->FM$GRAN.NAVX + GRAN$->FM$GRAN.AVAIL;
     2753     8460    1         REC# = SYMB$->FO$SYMB.BR.REC#;
     2754     8461    1         IF REC# = 0
     2755     8462    1         THEN
     2756     8463    1          REC# = 1;
     2757     8464    1         RECX = 1024 - REC#;
     2758     8465    1         RECX$ = PINCRW(GRAN$,RECX);
     2759     8466    1         K$RWPARM = K_RWPARM_CON;
     2760     8467              %UNLOCK (G=NK$LDCT.LOCK);
     2761     8470
     2762     8471    2           DO WHILE (RECX >= LAST);
     2763     8472
     2764     8473                %LOCK (G=NK$LDCT.LOCK);
     2765     8476    2           IF SYMB$ -> FO$SYMB.EFLGB.IDSC
     2766     8477    2           OR SYMB$ -> FO$SYMB.STATE = FOMS_DCMP#
     2767     8478    2           OR SYMB$ -> FO$SYMB.FPABRT
     2768     8479    3           THEN DO;
     2769     8480    3             CALL FOM$EVENT (SYMB$ -> FO$SYMB, FOSE_RDIC);
     2770     8481    3             GOTO UNLOCK;
     2771     8482    3             END;
     2772     8483
     2773     8484    2           K$RWPARM.MSG$ = PINCRW (GRAN$,RECX$->FM$CON.GX);
     2774     8485    2           K$RWPARM.MSGSZ = RECX$->FM$CON.GACTB;
     2775     8486    2           K$RWPARM.MRKTYP = %KV_VDOMRKTYP_LSTRCRID;
     2776     8487    2           K$RWPARM.BLKREC = SYMB$->FO$SYMB.BR;
     2777     8488    2           K$RWPARM.DVE.DVBYTE = RECX$->FM$CON.CTL;
     2778     8489    2           IF K$RWPARM.DVE.DVBYTE.VFC
     2779     8490    3           THEN DO;
     2780     8491    3             K$RWPARM.DVE.VFC = K$RWPARM.MSG$->VFC;
     2781     8492    3             K$RWPARM.MSG$ = PINCRC(K$RWPARM.MSG$,1);
     2782     8493    3             K$RWPARM.MSGSZ = K$RWPARM.MSGSZ - 1;
PL6.E3A0      #010=FOM$DEBLOCK File=FOM$MOOS.:E05TSI                             TUE 07/29/97 17:11 Page:373
     2783     8494    3             END;
     2784     8495
     2785     8496        /* KIA$WRITE places messages in the output circular queue.  It can
     2786     8497        altreturn for two reasons.  The first is the queue full condition
     2787     8498        which means nothing else can be placed in the OCQ at this time.
     2788     8499        The second condition is throddling.  Here we return and await an
     2789     8500        RQSDAT marker from the FEP. */
     2790     8501    2           CALL KIA$WRITE (NK$LDCT,K$RWPARM)
     2791     8502    3           WHENALTRETURN DO;
     2792     8503    3             CALL SSS$SYSTIME (SYMB$ -> FO$SYMB.THROTTLE_ON_UTS);
     2793     8504    3             SYMB$ -> FO$SYMB.BR.REC# = REC#;
     2794     8505    3             SYMB$ -> FO$SYMB.THROTTLING = '1'B;
     2795     8506    3             IF K$RWPARM.ERR = %K$QFULL
     2796     8507    4             THEN DO;
     2797     8508    4               NK$LDCT.LKFLG.QFL = '1'B;
     2798     8509    4               NK$LDCT.QFL.WRT = '1'B;
     2799     8510    4               END;
     2800     8511    3             IF SYMB$ -> FO$SYMB.STATE ~= FOMS_DVIO#
     2801     8512    3             THEN
     2802     8513    3              CALL FOM$EVENT (SYMB$ -> FO$SYMB, FOSE_RDIC);
     2803     8514    3             GOTO UNLOCK;
     2804     8515    3             END;
     2805     8516    2           SYMB$->FO$SYMB.BR.REC# = REC#;
     2806     8517                %UNLOCK (G=NK$LDCT.LOCK);
     2807     8520
     2808     8521    2           RECX = RECX - 1;
     2809     8522    2           RECX$ = PINCRW(RECX$,-1);
     2810     8523    2           REC# = REC# + 1;
     2811     8524    2           END;
     2812     8525
     2813     8526        /* Done with the block */
     2814     8527              %LOCK (G=NK$LDCT.LOCK);
     2815     8530    1         IF NOT SYMB$->FO$SYMB.EFLGB.IDSC
     2816     8531    1         AND NOT SYMB$->FO$SYMB.EFLGB.HLTR
     2817     8532    1         AND NOT SYMB$->FO$SYMB.FPABRT
     2818     8533    2         THEN DO;
     2819     8534                                /* THIS GRANULE DONE.  READ THE NEXT */
PL6.E3A0      #010=FOM$DEBLOCK File=FOM$MOOS.:E05TSI                             TUE 07/29/97 17:11 Page:374
     2820     8535    2           IF SYMB$->FO$SYMB.ACK THEN
     2821     8536    3             DO;
     2822     8537                                /* ON COMPLETION OF SPECIAL WRITE FUNCTION,
     2823     8538                                   SEND ACK TO OUTSYM */
     2824     8539    3             SYMB$->FO$SYMB.ACK='0'B;
     2825     8540    3             CALL FOM$TELLAU (SYMB$->FO$SYMB,%CG_STACK#,0);
     2826     8541    3             END;
     2827     8542    2           IF SYMB$ -> FO$SYMB.STATE ~= FOMS_DVIO#
     2828     8543    2           THEN
     2829     8544    2            CALL FOM$EVENT (SYMB$ -> FO$SYMB, FOSE_RDIC) ALTRET (UNLOCK);
     2830     8545                %UNLOCK (G=NK$LDCT.LOCK);
     2831     8548    2           CALL FOM$RNXDISK (SYMB$->FO$SYMB);
     2832     8549    2           GOTO RTN;
     2833     8550    2           END;
     2834     8551
     2835     8552    1   UNLOCK:;
     2836     8553              %UNLOCK (G=NK$LDCT.LOCK);
     2837     8556    1   RTN:  ;
     2838     8557    1         RETURN;
     2839     8558
     2840     8559    1   END FOM$DEBLOCK;
     2841     8560        %EOD;

PL6.E3A0      #010=FOM$DEBLOCK File=FOM$MOOS.:E05TSI                             TUE 07/29/97 17:11 Page:375
--  Include file information  --

   CP_6_C.:E05TOU  is referenced.
   CP_6.:E05TOU  cannot be made into a system file and is referenced.
   FM$GRAN.:E05TOU  is referenced.
   FOM_SUBS_C.:E05TOU  is referenced.
   FOM_DATA_R.:E05TOU  cannot be made into a system file and is referenced.
   FOM$STRUCT.:E05TOU  is referenced.
   KV$VDO.:E05TOU  is referenced.
   K_SUBS_C.:E05TOU  is referenced.
   NK$LDCT.:E05TOU  is referenced.
   K$RWPARM.:E05TOU  is referenced.
   K_DATA_R.:E05TOU  cannot be made into a system file and is referenced.
   HF_LOCK_C.:E05TOU  cannot be made into a system file and is referenced.
      No diagnostics issued in procedure FOM$DEBLOCK.

   Procedure FOM$DEBLOCK requires 230 words for executable code.
   Procedure FOM$DEBLOCK requires 56 words of local(AUTO) storage.

PL6.E3A0      #010=FOM$DEBLOCK File=FOM$MOOS.:E05TSI                             TUE 07/29/97 17:11 Page:376

 Object Unit name= FOM$DEBLOCK                                File name= FOM$MOOS.:E05TOU
 UTS= JUL 29 '97 17:11:07.88 TUE                              Compiler= PL-6/E31         Sev=      00
 SharedLib= :SHARED_SYSTEM                                    Alt SharedLib=


    ****  Control sections  ****

 Sect   Type Bound  Init  Size OctSiz  Section name(segment info)
    0   DCB   even  none     0      0  M$UC
    1   Proc  even  none   230    346  FOM$DEBLOCK
    2  RoData even  none     5      5  FOM$DEBLOCK

    ****  Entry defs  ****

                              Check   Calling
                             calling  sequence
  Sect OctLoc Primary Altret sequence   type   Parms  Name
     1      0   yes            yes      Std        1  FOM$DEBLOCK

  ****  Entry refs  ****

         Check        Calling
        calling       sequence
Altret sequence SRef   type   Args  Name
         yes           Std       1 HFC$LOCK
         yes           Std       1 HFC$UNLOCK
 yes     yes           Std       3 FOM$EVENT
 yes     yes           Std       2 KIA$WRITE
         yes           Std       1 SSS$SYSTIME
 yes     yes           Std       3 FOM$TELLAU
 yes     yes           Std       1 FOM$RNXDISK
                       nStd      0 X66_AUTO_1
                       Std       0 B_CONSPOOL_D
                       nStd      0 X66_ARET
PL6.E3A0      #010=FOM$DEBLOCK File=FOM$MOOS.:E05TSI                             TUE 07/29/97 17:11 Page:377

  ****  Data refs  ****

  Flags:  r = read only, s = secondary
Flgs Name                             Flgs Name                             Flgs Name
r    K_RWPARM_CON                     r    FOSE_RDIC                             M$UC
     B_VECTNIL

  ****  Segment refs  ****

  Flags:  r = read only, s = secondary
Flgs Name                             Flgs Name                             Flgs Name
     ISSID
PL6.E3A0      #010=FOM$DEBLOCK File=FOM$MOOS.:E05TSI                             TUE 07/29/97 17:11 Page:378


     2684        1        /*T***********************************************************/
     2685        2        /*T*                                                         */
     2686        3        /*T* Copyright (c) Bull HN Information Systems Inc., 1997    */
     2687        4        /*T*                                                         */
     2688        5        /*T***********************************************************/
     2689        6
     2690        7
     2691        8        FOM$DEBLOCK: PROC (NK$LDCT);

      8  1 000000   000000 700200 xent  FOM$DEBLOCK  TSX0  ! X66_AUTO_1
         1 000001   000070 000001                    ZERO    56,1

     2692        9
     2693       10        /*F* NAME:     FOM$DEBLOCK
     2694       11             PURPOSE:  Deblocking for remote devices
     2695       12             DESCRIPTION: This routine deblocks the current symb granule for
     2696       13                          a FEP connect device.  It will get enter either by
     2697       14                          a PMME from OUTSYM or from an SSV$EVENT when throtlling
     2698       15                          is available.  It sends as much as it can and then
     2699       16                           waits for more throttling.
     2700       17         */
     2701       18
     2702       19        /* Includes */
     2703       20        %INCLUDE HF_LOCK_C;
     2704       34        %INCLUDE K_DATA_R;
     2705      745        %INCLUDE NK$LDCT;
     2706      847        %INCLUDE K_SUBS_C;
     2707      880        %INCLUDE KV$VDO;
     2708     1895        %INCLUDE FOM$STRUCT;
     2709     1956        %INCLUDE FOM_DATA_R;
     2710     2205        %INCLUDE FOM_SUBS_C;
     2711     2268        %INCLUDE FM$GRAN;
     2712     2337        %INCLUDE CP_6;
     2713     7896
     2714     7897
     2715     7898        /* Parameters */
PL6.E3A0      #010=FOM$DEBLOCK File=FOM$MOOS.:E05TSI                             TUE 07/29/97 17:11 Page:379
     2716     7899              %NK$LDCT (STCLASS="");
     2717     7945
     2718     7946        /* Based */
     2719     7947              %FOM$SYMB (NAME=FO$SYMB);
     2720     7979              %FM$GRAN;
     2721     7983              %FM$CON;
     2722     7987    1   DCL VFC CHAR(1) BASED;
     2723     7988
     2724     7989        /* Auto */
     2725     7990    1   DCL RECX UBIN;
     2726     7991    1   DCL RECX$ PTR;
     2727     7992    1   DCL REC# UBIN;
     2728     7993    1   DCL LAST UBIN;
     2729     7994    1   DCL AVAIL UBIN;
     2730     7995    1   DCL GRAN$ PTR;
     2731     7996    1   DCL SYMB$ PTR;
     2732     7997        %K$RWPARM (NAME=K$RWPARM);
     2733     8313
     2734     8314        /* Equates */
     2735     8315        %EQU_CG;
     2736     8363        %KV_VDO_ALL_E;
     2737     8442
     2738     8443        /* Refs */
     2739     8444    1   DCL KIA$WRITE ENTRY(2) ALTRET;
     2740     8445    1   DCL FOM$RNXDISK ENTRY(1) ALTRET;
     2741     8446    1   DCL FOM$TELLAU ENTRY(3) ALTRET;
     2742     8447    1   DCL FOM$EVENT ENTRY(3) ALTRET;
     2743     8448    1   DCL SSS$SYSTIME ENTRY(1);
     2744     8449
     2745     8450        %EJECT;
PL6.E3A0      #010=FOM$DEBLOCK File=FOM$MOOS.:E05TSI                             TUE 07/29/97 17:11 Page:380
     2746     8451              %LOCK (G=NK$LDCT.LOCK);

   8452  1 000002   200003 236100                    LDQ     @NK$LDCT,,AUTO
         1 000003   000020 036003                    ADLQ    16,DU
         1 000004   200064 756100                    STQ     K$RWPARM+40,,AUTO
         1 000005   200064 630500                    EPPR0   K$RWPARM+40,,AUTO
         1 000006   000017 631400 xsym               EPPR1   B_VECTNIL+15
         1 000007   000000 701000 xent               TSX1    HFC$LOCK
         1 000010   000000 011000                    NOP     0

     2747     8454    1         SYMB$ = NK$LDCT.SYMB$;

   8454  1 000011   200003 470500                    LDP0    @NK$LDCT,,AUTO
         1 000012   000000 236100                    LDQ     0,,PR0
         1 000013   200012 756100                    STQ     SYMB$,,AUTO

     2748     8455    1         GRAN$ = SYMB$->FO$SYMB.BUF$;

   8455  1 000014   200012 471500                    LDP1    SYMB$,,AUTO
         1 000015   100002 236100                    LDQ     2,,PR1
         1 000016   200011 756100                    STQ     GRAN$,,AUTO

     2749     8456    1         IF GRAN$ = ADDR(NIL)     /* No more */

   8456  1 000017   000001 116000 xsym               CMPQ    B_VECTNIL+1
         1 000020   000336 600000 1                  TZE     UNLOCK

     2750     8457    1         THEN
     2751     8458    1          GOTO UNLOCK;
     2752     8459    1         LAST = GRAN$->FM$GRAN.NAVX + GRAN$->FM$GRAN.AVAIL;

   8459  1 000021   200011 473500                    LDP3    GRAN$,,AUTO
         1 000022   300001 236100                    LDQ     1,,PR3
         1 000023   001777 376007                    ANQ     1023,DL
         1 000024   200064 756100                    STQ     K$RWPARM+40,,AUTO
         1 000025   300001 236100                    LDQ     1,,PR3
         1 000026   000022 772000                    QRL     18
PL6.E3A0      #010=FOM$DEBLOCK File=FOM$MOOS.:E05TSI                             TUE 07/29/97 17:11 Page:381
         1 000027   200064 036100                    ADLQ    K$RWPARM+40,,AUTO
         1 000030   200007 756100                    STQ     LAST,,AUTO

     2753     8460    1         REC# = SYMB$->FO$SYMB.BR.REC#;

   8460  1 000031   100003 236100                    LDQ     3,,PR1
         1 000032   777777 376007                    ANQ     -1,DL
         1 000033   200006 756100                    STQ     REC#,,AUTO

     2754     8461    1         IF REC# = 0

   8461  1 000034   000037 601000 1                  TNZ     s:8464

     2755     8462    1         THEN
     2756     8463    1          REC# = 1;

   8463  1 000035   000001 235007                    LDA     1,DL
         1 000036   200006 755100                    STA     REC#,,AUTO

     2757     8464    1         RECX = 1024 - REC#;

   8464  1 000037   002000 235007                    LDA     1024,DL
         1 000040   200006 135100                    SBLA    REC#,,AUTO
         1 000041   200004 755100                    STA     RECX,,AUTO

     2758     8465    1         RECX$ = PINCRW(GRAN$,RECX);

   8465  1 000042   200004 236100                    LDQ     RECX,,AUTO
         1 000043   000022 736000                    QLS     18
         1 000044   200011 036100                    ADLQ    GRAN$,,AUTO
         1 000045   200005 756100                    STQ     RECX$,,AUTO

     2759     8466    1         K$RWPARM = K_RWPARM_CON;

   8466  1 000046   000100 100400                    MLR     fill='000'O
         1 000047   000000 000234 xsym               ADSC9   K_RWPARM_CON             cn=0,n=156
         1 000050   200014 000234                    ADSC9   K$RWPARM,,AUTO           cn=0,n=156
PL6.E3A0      #010=FOM$DEBLOCK File=FOM$MOOS.:E05TSI                             TUE 07/29/97 17:11 Page:382

     2760     8467              %UNLOCK (G=NK$LDCT.LOCK);

   8468  1 000051   200003 236100                    LDQ     @NK$LDCT,,AUTO
         1 000052   000020 036003                    ADLQ    16,DU
         1 000053   200064 756100                    STQ     K$RWPARM+40,,AUTO
         1 000054   200064 630500                    EPPR0   K$RWPARM+40,,AUTO
         1 000055   000017 631400 xsym               EPPR1   B_VECTNIL+15
         1 000056   000000 701000 xent               TSX1    HFC$UNLOCK
         1 000057   000000 011000                    NOP     0

     2761     8470
     2762     8471    2           DO WHILE (RECX >= LAST);

   8471  1 000060   200004 236100                    LDQ     RECX,,AUTO
         1 000061   200007 116100                    CMPQ    LAST,,AUTO
         1 000062   000251 602000 1                  TNC     s:8528

     2763     8472
     2764     8473                %LOCK (G=NK$LDCT.LOCK);

   8474  1 000063   200003 236100                    LDQ     @NK$LDCT,,AUTO
         1 000064   000020 036003                    ADLQ    16,DU
         1 000065   200064 756100                    STQ     K$RWPARM+40,,AUTO
         1 000066   200064 630500                    EPPR0   K$RWPARM+40,,AUTO
         1 000067   000017 631400 xsym               EPPR1   B_VECTNIL+15
         1 000070   000000 701000 xent               TSX1    HFC$LOCK
         1 000071   000000 011000                    NOP     0

     2765     8476    2           IF SYMB$ -> FO$SYMB.EFLGB.IDSC

   8476  1 000072   200012 470500                    LDP0    SYMB$,,AUTO
         1 000073   000012 236100                    LDQ     10,,PR0
         1 000074   000400 316007                    CANQ    256,DL
         1 000075   000104 601000 1                  TNZ     s:8480
         1 000076   000012 236100                    LDQ     10,,PR0
         1 000077   000017 376007                    ANQ     15,DL
PL6.E3A0      #010=FOM$DEBLOCK File=FOM$MOOS.:E05TSI                             TUE 07/29/97 17:11 Page:383
         1 000100   000004 116007                    CMPQ    4,DL
         1 000101   000104 600000 1                  TZE     s:8480
         1 000102   000021 430100                    FSZN    17,,PR0
         1 000103   000114 605000 1                  TPL     s:8484

     2766     8477    2           OR SYMB$ -> FO$SYMB.STATE = FOMS_DCMP#
     2767     8478    2           OR SYMB$ -> FO$SYMB.FPABRT
     2768     8479    3           THEN DO;

     2769     8480    3             CALL FOM$EVENT (SYMB$ -> FO$SYMB, FOSE_RDIC);

   8480  1 000104   000000 236000 2                  LDQ     0
         1 000105   200012 235100                    LDA     SYMB$,,AUTO
         1 000106   200064 757100                    STAQ    K$RWPARM+40,,AUTO
         1 000107   200064 630500                    EPPR0   K$RWPARM+40,,AUTO
         1 000110   000020 631400 xsym               EPPR1   B_VECTNIL+16
         1 000111   000000 701000 xent               TSX1    FOM$EVENT
         1 000112   000000 011000                    NOP     0

     2770     8481    3             GOTO UNLOCK;

   8481  1 000113   000336 710000 1                  TRA     UNLOCK

     2771     8482    3             END;
     2772     8483
     2773     8484    2           K$RWPARM.MSG$ = PINCRW (GRAN$,RECX$->FM$CON.GX);

   8484  1 000114   200005 471500                    LDP1    RECX$,,AUTO
         1 000115   100000 236100                    LDQ     0,,PR1
         1 000116   000014 772000                    QRL     12
         1 000117   001777 376007                    ANQ     1023,DL
         1 000120   000022 736000                    QLS     18
         1 000121   200011 036100                    ADLQ    GRAN$,,AUTO
         1 000122   200014 756100                    STQ     K$RWPARM,,AUTO

     2774     8485    2           K$RWPARM.MSGSZ = RECX$->FM$CON.GACTB;

PL6.E3A0      #010=FOM$DEBLOCK File=FOM$MOOS.:E05TSI                             TUE 07/29/97 17:11 Page:384
   8485  1 000123   100000 236100                    LDQ     0,,PR1
         1 000124   007777 376007                    ANQ     4095,DL
         1 000125   200015 756100                    STQ     K$RWPARM+1,,AUTO

     2775     8486    2           K$RWPARM.MRKTYP = %KV_VDOMRKTYP_LSTRCRID;

   8486  1 000126   002000 236007                    LDQ     1024,DL
         1 000127   200054 552110                    STBQ    K$RWPARM+32,'10'O,AUTO

     2776     8487    2           K$RWPARM.BLKREC = SYMB$->FO$SYMB.BR;

   8487  1 000130   000003 236100                    LDQ     3,,PR0
         1 000131   200023 756100                    STQ     K$RWPARM+7,,AUTO

     2777     8488    2           K$RWPARM.DVE.DVBYTE = RECX$->FM$CON.CTL;

   8488  1 000132   100000 236100                    LDQ     0,,PR1
         1 000133   037700 376003                    ANQ     16320,DU
         1 000134   000004 736000                    QLS     4
         1 000135   200024 552140                    STBQ    K$RWPARM+8,'40'O,AUTO

     2778     8489    2           IF K$RWPARM.DVE.DVBYTE.VFC

   8489  1 000136   200024 236100                    LDQ     K$RWPARM+8,,AUTO
         1 000137   100000 316003                    CANQ    32768,DU
         1 000140   000152 600000 1                  TZE     s:8501

     2779     8490    3           THEN DO;

     2780     8491    3             K$RWPARM.DVE.VFC = K$RWPARM.MSG$->VFC;

   8491  1 000141   200014 473500                    LDP3    K$RWPARM,,AUTO
         1 000142   040100 100500                    MLR     fill='040'O
         1 000143   300000 000001                    ADSC9   0,,PR3                   cn=0,n=1
         1 000144   200024 200001                    ADSC9   K$RWPARM+8,,AUTO         cn=1,n=1

     2781     8492    3             K$RWPARM.MSG$ = PINCRC(K$RWPARM.MSG$,1);
PL6.E3A0      #010=FOM$DEBLOCK File=FOM$MOOS.:E05TSI                             TUE 07/29/97 17:11 Page:385

   8492  1 000145   200014 236100                    LDQ     K$RWPARM,,AUTO
         1 000146   200000 036007                    ADLQ    65536,DL
         1 000147   200014 756100                    STQ     K$RWPARM,,AUTO

     2782     8493    3             K$RWPARM.MSGSZ = K$RWPARM.MSGSZ - 1;

   8493  1 000150   000001 336007                    LCQ     1,DL
         1 000151   200015 056100                    ASQ     K$RWPARM+1,,AUTO

     2783     8494    3             END;

     2784     8495
     2785     8496        /* KIA$WRITE places messages in the output circular queue.  It can
     2786     8497        altreturn for two reasons.  The first is the queue full condition
     2787     8498        which means nothing else can be placed in the OCQ at this time.
     2788     8499        The second condition is throddling.  Here we return and await an
     2789     8500        RQSDAT marker from the FEP. */
     2790     8501    2           CALL KIA$WRITE (NK$LDCT,K$RWPARM)

   8501  1 000152   200014 633500                    EPPR3   K$RWPARM,,AUTO
         1 000153   200065 453500                    STP3    K$RWPARM+41,,AUTO
         1 000154   200003 236100                    LDQ     @NK$LDCT,,AUTO
         1 000155   200064 756100                    STQ     K$RWPARM+40,,AUTO
         1 000156   200064 630500                    EPPR0   K$RWPARM+40,,AUTO
         1 000157   000020 631400 xsym               EPPR1   B_VECTNIL+16
         1 000160   000000 701000 xent               TSX1    KIA$WRITE
         1 000161   000163 702000 1                  TSX2    s:8503
         1 000162   000223 710000 1                  TRA     s:8516

     2791     8502    3           WHENALTRETURN DO;

     2792     8503    3             CALL SSS$SYSTIME (SYMB$ -> FO$SYMB.THROTTLE_ON_UTS);

   8503  1 000163   200012 236100                    LDQ     SYMB$,,AUTO
         1 000164   000014 036003                    ADLQ    12,DU
         1 000165   200064 756100                    STQ     K$RWPARM+40,,AUTO
PL6.E3A0      #010=FOM$DEBLOCK File=FOM$MOOS.:E05TSI                             TUE 07/29/97 17:11 Page:386
         1 000166   200064 630500                    EPPR0   K$RWPARM+40,,AUTO
         1 000167   000017 631400 xsym               EPPR1   B_VECTNIL+15
         1 000170   000000 701000 xent               TSX1    SSS$SYSTIME
         1 000171   000000 011000                    NOP     0

     2793     8504    3             SYMB$ -> FO$SYMB.BR.REC# = REC#;

   8504  1 000172   200006 720100                    LXL0    REC#,,AUTO
         1 000173   200012 470500                    LDP0    SYMB$,,AUTO
         1 000174   000003 440100                    SXL0    3,,PR0

     2794     8505    3             SYMB$ -> FO$SYMB.THROTTLING = '1'B;

   8505  1 000175   400000 236003                    LDQ     -131072,DU
         1 000176   000010 256100                    ORSQ    8,,PR0

     2795     8506    3             IF K$RWPARM.ERR = %K$QFULL

   8506  1 000177   200027 235100                    LDA     K$RWPARM+11,,AUTO
         1 000200   000001 115007                    CMPA    1,DL
         1 000201   000207 601000 1                  TNZ     s:8511

     2796     8507    4             THEN DO;

     2797     8508    4               NK$LDCT.LKFLG.QFL = '1'B;

   8508  1 000202   200003 471500                    LDP1    @NK$LDCT,,AUTO
         1 000203   000100 236003                    LDQ     64,DU
         1 000204   100011 256100                    ORSQ    9,,PR1

     2798     8509    4               NK$LDCT.QFL.WRT = '1'B;

   8509  1 000205   000400 236007                    LDQ     256,DL
         1 000206   100010 256100                    ORSQ    8,,PR1

     2799     8510    4               END;

PL6.E3A0      #010=FOM$DEBLOCK File=FOM$MOOS.:E05TSI                             TUE 07/29/97 17:11 Page:387
     2800     8511    3             IF SYMB$ -> FO$SYMB.STATE ~= FOMS_DVIO#

   8511  1 000207   000012 236100                    LDQ     10,,PR0
         1 000210   000017 376007                    ANQ     15,DL
         1 000211   000003 116007                    CMPQ    3,DL
         1 000212   000222 600000 1                  TZE     s:8514

     2801     8512    3             THEN
     2802     8513    3              CALL FOM$EVENT (SYMB$ -> FO$SYMB, FOSE_RDIC);

   8513  1 000213   000000 236000 2                  LDQ     0
         1 000214   200012 235100                    LDA     SYMB$,,AUTO
         1 000215   200064 757100                    STAQ    K$RWPARM+40,,AUTO
         1 000216   200064 630500                    EPPR0   K$RWPARM+40,,AUTO
         1 000217   000020 631400 xsym               EPPR1   B_VECTNIL+16
         1 000220   000000 701000 xent               TSX1    FOM$EVENT
         1 000221   000000 011000                    NOP     0

     2803     8514    3             GOTO UNLOCK;

   8514  1 000222   000336 710000 1                  TRA     UNLOCK

     2804     8515    3             END;
     2805     8516    2           SYMB$->FO$SYMB.BR.REC# = REC#;

   8516  1 000223   200006 720100                    LXL0    REC#,,AUTO
         1 000224   200012 470500                    LDP0    SYMB$,,AUTO
         1 000225   000003 440100                    SXL0    3,,PR0

     2806     8517                %UNLOCK (G=NK$LDCT.LOCK);

   8518  1 000226   200003 236100                    LDQ     @NK$LDCT,,AUTO
         1 000227   000020 036003                    ADLQ    16,DU
         1 000230   200064 756100                    STQ     K$RWPARM+40,,AUTO
         1 000231   200064 630500                    EPPR0   K$RWPARM+40,,AUTO
         1 000232   000017 631400 xsym               EPPR1   B_VECTNIL+15
         1 000233   000000 701000 xent               TSX1    HFC$UNLOCK
PL6.E3A0      #010=FOM$DEBLOCK File=FOM$MOOS.:E05TSI                             TUE 07/29/97 17:11 Page:388
         1 000234   000000 011000                    NOP     0

     2807     8520
     2808     8521    2           RECX = RECX - 1;

   8521  1 000235   200004 235100                    LDA     RECX,,AUTO
         1 000236   000001 135007                    SBLA    1,DL
         1 000237   200004 755100                    STA     RECX,,AUTO

     2809     8522    2           RECX$ = PINCRW(RECX$,-1);

   8522  1 000240   200005 236100                    LDQ     RECX$,,AUTO
         1 000241   777777 036003                    ADLQ    -1,DU
         1 000242   200005 756100                    STQ     RECX$,,AUTO

     2810     8523    2           REC# = REC# + 1;

   8523  1 000243   200006 235100                    LDA     REC#,,AUTO
         1 000244   000001 035007                    ADLA    1,DL
         1 000245   200006 755100                    STA     REC#,,AUTO

     2811     8524    2           END;

   8524  1 000246   200004 236100                    LDQ     RECX,,AUTO
         1 000247   200007 116100                    CMPQ    LAST,,AUTO
         1 000250   000063 603000 1                  TRC     s:8474

     2812     8525
     2813     8526        /* Done with the block */
     2814     8527              %LOCK (G=NK$LDCT.LOCK);

   8528  1 000251   200003 236100                    LDQ     @NK$LDCT,,AUTO
         1 000252   000020 036003                    ADLQ    16,DU
         1 000253   200064 756100                    STQ     K$RWPARM+40,,AUTO
         1 000254   200064 630500                    EPPR0   K$RWPARM+40,,AUTO
         1 000255   000017 631400 xsym               EPPR1   B_VECTNIL+15
         1 000256   000000 701000 xent               TSX1    HFC$LOCK
PL6.E3A0      #010=FOM$DEBLOCK File=FOM$MOOS.:E05TSI                             TUE 07/29/97 17:11 Page:389
         1 000257   000000 011000                    NOP     0

     2815     8530    1         IF NOT SYMB$->FO$SYMB.EFLGB.IDSC

   8530  1 000260   200012 470500                    LDP0    SYMB$,,AUTO
         1 000261   000012 236100                    LDQ     10,,PR0
         1 000262   000400 316007                    CANQ    256,DL
         1 000263   000336 601000 1                  TNZ     UNLOCK
         1 000264   004000 316007                    CANQ    2048,DL
         1 000265   000336 601000 1                  TNZ     UNLOCK
         1 000266   000021 430100                    FSZN    17,,PR0
         1 000267   000336 604000 1                  TMI     UNLOCK

     2816     8531    1         AND NOT SYMB$->FO$SYMB.EFLGB.HLTR
     2817     8532    1         AND NOT SYMB$->FO$SYMB.FPABRT
     2818     8533    2         THEN DO;

     2819     8534                                /* THIS GRANULE DONE.  READ THE NEXT */
     2820     8535    2           IF SYMB$->FO$SYMB.ACK THEN

   8535  1 000270   000010 236100                    LDQ     8,,PR0
         1 000271   100000 316003                    CANQ    32768,DU
         1 000272   000306 600000 1                  TZE     s:8542

     2821     8536    3             DO;

     2822     8537                                /* ON COMPLETION OF SPECIAL WRITE FUNCTION,
     2823     8538                                   SEND ACK TO OUTSYM */
     2824     8539    3             SYMB$->FO$SYMB.ACK='0'B;

   8539  1 000273   000001 236000 2                  LDQ     1
         1 000274   000010 356100                    ANSQ    8,,PR0

     2825     8540    3             CALL FOM$TELLAU (SYMB$->FO$SYMB,%CG_STACK#,0);

   8540  1 000275   000003 236000 2                  LDQ     3
         1 000276   200066 756100                    STQ     K$RWPARM+42,,AUTO
PL6.E3A0      #010=FOM$DEBLOCK File=FOM$MOOS.:E05TSI                             TUE 07/29/97 17:11 Page:390
         1 000277   000004 236000 2                  LDQ     4
         1 000300   200012 235100                    LDA     SYMB$,,AUTO
         1 000301   200064 757100                    STAQ    K$RWPARM+40,,AUTO
         1 000302   200064 630500                    EPPR0   K$RWPARM+40,,AUTO
         1 000303   000021 631400 xsym               EPPR1   B_VECTNIL+17
         1 000304   000000 701000 xent               TSX1    FOM$TELLAU
         1 000305   000000 011000                    NOP     0

     2826     8541    3             END;

     2827     8542    2           IF SYMB$ -> FO$SYMB.STATE ~= FOMS_DVIO#

   8542  1 000306   200012 470500                    LDP0    SYMB$,,AUTO
         1 000307   000012 236100                    LDQ     10,,PR0
         1 000310   000017 376007                    ANQ     15,DL
         1 000311   000003 116007                    CMPQ    3,DL
         1 000312   000322 600000 1                  TZE     s:8546

     2828     8543    2           THEN
     2829     8544    2            CALL FOM$EVENT (SYMB$ -> FO$SYMB, FOSE_RDIC) ALTRET (UNLOCK);

   8544  1 000313   000000 236000 2                  LDQ     0
         1 000314   200012 235100                    LDA     SYMB$,,AUTO
         1 000315   200064 757100                    STAQ    K$RWPARM+40,,AUTO
         1 000316   200064 630500                    EPPR0   K$RWPARM+40,,AUTO
         1 000317   000020 631400 xsym               EPPR1   B_VECTNIL+16
         1 000320   000000 701000 xent               TSX1    FOM$EVENT
         1 000321   000336 702000 1                  TSX2    UNLOCK

     2830     8545                %UNLOCK (G=NK$LDCT.LOCK);

   8546  1 000322   200003 236100                    LDQ     @NK$LDCT,,AUTO
         1 000323   000020 036003                    ADLQ    16,DU
         1 000324   200064 756100                    STQ     K$RWPARM+40,,AUTO
         1 000325   200064 630500                    EPPR0   K$RWPARM+40,,AUTO
         1 000326   000017 631400 xsym               EPPR1   B_VECTNIL+15
         1 000327   000000 701000 xent               TSX1    HFC$UNLOCK
PL6.E3A0      #010=FOM$DEBLOCK File=FOM$MOOS.:E05TSI                             TUE 07/29/97 17:11 Page:391
         1 000330   000000 011000                    NOP     0

     2831     8548    2           CALL FOM$RNXDISK (SYMB$->FO$SYMB);

   8548  1 000331   200012 630500                    EPPR0   SYMB$,,AUTO
         1 000332   000017 631400 xsym               EPPR1   B_VECTNIL+15
         1 000333   000000 701000 xent               TSX1    FOM$RNXDISK
         1 000334   000000 011000                    NOP     0

     2832     8549    2           GOTO RTN;

   8549  1 000335   000345 710000 1                  TRA     RTN

     2833     8550    2           END;
     2834     8551
     2835     8552    1   UNLOCK:;

   8552  1 000336                       UNLOCK       null
     2836     8553              %UNLOCK (G=NK$LDCT.LOCK);

   8554  1 000336   200003 236100                    LDQ     @NK$LDCT,,AUTO
         1 000337   000020 036003                    ADLQ    16,DU
         1 000340   200064 756100                    STQ     K$RWPARM+40,,AUTO
         1 000341   200064 630500                    EPPR0   K$RWPARM+40,,AUTO
         1 000342   000017 631400 xsym               EPPR1   B_VECTNIL+15
         1 000343   000000 701000 xent               TSX1    HFC$UNLOCK
         1 000344   000000 011000                    NOP     0

   8552  1 000345                       RTN          null
     2837     8556    1   RTN:  ;
     2838     8557    1         RETURN;

   8557  1 000345   000000 702200 xent               TSX2  ! X66_ARET

(unnamed)
 Sect OctLoc
   2     000   000000 006000   677777 777777   000000 000021   000002 006000    ................
PL6.E3A0      #010=FOM$DEBLOCK File=FOM$MOOS.:E05TSI                             TUE 07/29/97 17:11 Page:392
   2     004   000002 006000                                                    ....
     2839     8558
     2840     8559    1   END FOM$DEBLOCK;
     2841     8560        %EOD;

PL6.E3A0      #010=FOM$DEBLOCK File=FOM$MOOS.:E05TSI                             TUE 07/29/97 17:11 Page:393
--  Include file information  --

   CP_6_C.:E05TOU  is referenced.
   CP_6.:E05TOU  cannot be made into a system file and is referenced.
   FM$GRAN.:E05TOU  is referenced.
   FOM_SUBS_C.:E05TOU  is referenced.
   FOM_DATA_R.:E05TOU  cannot be made into a system file and is referenced.
   FOM$STRUCT.:E05TOU  is referenced.
   KV$VDO.:E05TOU  is referenced.
   K_SUBS_C.:E05TOU  is referenced.
   NK$LDCT.:E05TOU  is referenced.
   K$RWPARM.:E05TOU  is referenced.
   K_DATA_R.:E05TOU  cannot be made into a system file and is referenced.
   HF_LOCK_C.:E05TOU  cannot be made into a system file and is referenced.
      No diagnostics issued in procedure FOM$DEBLOCK.
PL6.E3A0      #010=FOM$DEBLOCK File=FOM$MOOS.:E05TSI                             TUE 07/29/97 17:11 Page:394

 **** Variables and constants ****

  ****  Auto variables  ****

  ****  Scalars and arrays  ****
OctLoc.c.b A Datatyp(siz) R M Lvl/name                 OctLoc.c.b A Datatyp(siz) R M Lvl/name

     3-0-0/w PTR         r     1 @NK$LDCT                  11-0-0/w PTR         r     1 GRAN$
    14-0-0/d STRC(1404)  r     1 K$RWPARM                   7-0-0/w UBIN        r     1 LAST
    *0-0-0/d STRC(864)   r     1 NK$LDCT                    6-0-0/w UBIN        r     1 REC#
     4-0-0/w UBIN        r     1 RECX                       5-0-0/w PTR         r     1 RECX$
    12-0-0/w PTR         r     1 SYMB$

  ****  SYMREF variables  ****

  ****  Scalars and arrays  ****
OctLoc.c.b A Datatyp(siz) R M Lvl/name                 OctLoc.c.b A Datatyp(siz) R M Lvl/name

     0-0-0/w STRC        r     1 FOSE_RDIC                  0-0-0/d STRC(1404)  r     1 K_RWPARM_CON

  ****  BASED and DCB variables  ****

  ****  Scalars and arrays  ****
OctLoc.c.b A Datatyp(siz) R M Lvl/name                 OctLoc.c.b A Datatyp(siz) R M Lvl/name

     0-0-0/w STRC        r     1 FM$CON                     0-0-0/w STRC(180)   r     1 FM$GRAN
     0-0-0/w STRC(720)   r     1 FO$SYMB                    0-0-0/c CHAR        r     1 VFC


   Procedure FOM$DEBLOCK requires 230 words for executable code.
   Procedure FOM$DEBLOCK requires 56 words of local(AUTO) storage.
PL6.E3A0      #010=FOM$DEBLOCK File=FOM$MOOS.:E05TSI                             TUE 07/29/97 17:11 Page:395
          *** CROSS REFERENCE LISTING ***
**     DENOTES     IDENTIFIER DEFINITION
<<                 IDENTIFIER'S VALUE SET
>>                 IDENTIFIER'S VALUE USED
<>                 IDENTIFIER SET AND/OR USED
--                 IDENTIFIER REFERENCED
PL6.E3A0      #010=FOM$DEBLOCK File=FOM$MOOS.:E05TSI                             TUE 07/29/97 17:11 Page:396
          MINI XREF LISTING

FM$CON.CTL
      7984**DCL      8488>>ASSIGN
FM$CON.GACTB
      7984**DCL      8485>>ASSIGN
FM$CON.GX
      7984**DCL      8484>>ASSIGN
FM$GRAN.AVAIL
      7981**DCL      8459>>ASSIGN
FM$GRAN.NAVX
      7980**DCL      8459>>ASSIGN
FO$SYMB
      7958**DCL      8480<>CALL     8513<>CALL     8540<>CALL     8544<>CALL     8548<>CALL
FO$SYMB.ACK
      7965**DCL      8535>>IF       8539<<ASSIGN
FO$SYMB.BR
      7959**DCL      8487>>ASSIGN
FO$SYMB.BR.BLK#
      7959**DCL      7960--REDEF
FO$SYMB.BR.REC#
      7960**DCL      7961--REDEF    8460>>ASSIGN   8504<<ASSIGN   8516<<ASSIGN
FO$SYMB.BUF$
      7958**DCL      7959--REDEF    8455>>ASSIGN
FO$SYMB.CUREXT.STAMP
      7962**DCL      7963--REDEF
FO$SYMB.EFLGB.HLTR
      7971**DCL      8530>>IF
FO$SYMB.EFLGB.IDSC
      7972**DCL      8476>>IF       8530>>IF
FO$SYMB.FPABRT
      7976**DCL      8476>>IF       8530>>IF
FO$SYMB.SPACEPAGES
      7966**DCL      7967--REDEF
PL6.E3A0      #010=FOM$DEBLOCK File=FOM$MOOS.:E05TSI                             TUE 07/29/97 17:11 Page:397
FO$SYMB.STATE
      7973**DCL      8476>>IF       8511>>IF       8542>>IF
FO$SYMB.THROTTLE_ON_UTS
      7974**DCL      8503<>CALL
FO$SYMB.THROTTLING
      7965**DCL      8505<<ASSIGN
FOM$EVENT
      8447**DCL-ENT  8480--CALL     8513--CALL     8544--CALL
FOM$RNXDISK
      8445**DCL-ENT  8548--CALL
FOM$TELLAU
      8446**DCL-ENT  8540--CALL
FOSE_RDIC
      2066**DCL      8480<>CALL     8513<>CALL     8544<>CALL
GRAN$
      7995**DCL      8455<<ASSIGN   8456>>IF       8459>>ASSIGN   8459>>ASSIGN   8465>>ASSIGN   8484>>ASSIGN
HFC$LOCK
        33**DCL-ENT  8452--CALL     8474--CALL     8528--CALL
HFC$UNLOCK
        33**DCL-ENT  8468--CALL     8518--CALL     8546--CALL     8554--CALL
K$RWPARM
      8018**DCL      8466<<ASSIGN   8501<>CALL
K$RWPARM.BLKREC
      8044**DCL      8069--REDEF    8487<<ASSIGN
K$RWPARM.BLKREC.BLKU#
      8045**DCL      8047--REDEF
K$RWPARM.BLKREC.RECU#
      8057**DCL      8059--REDEF
K$RWPARM.DVE.DVBYTE
      8076**DCL      8488<<ASSIGN
K$RWPARM.DVE.DVBYTE.VFC
      8084**DCL      8085--REDEF    8489>>IF
K$RWPARM.DVE.EOMCHAR
      8092**DCL      8096--REDEF
K$RWPARM.DVE.VFC
      8096**DCL      8491<<ASSIGN
PL6.E3A0      #010=FOM$DEBLOCK File=FOM$MOOS.:E05TSI                             TUE 07/29/97 17:11 Page:398
K$RWPARM.ERR
      8156**DCL      8161--REDEF    8506>>IF
K$RWPARM.FC
      8120**DCL      8121--REDEF
K$RWPARM.FLDID
      8302**DCL      8303--REDEF
K$RWPARM.FPT$
      8183**DCL      8190--REDEF
K$RWPARM.KEYTYPE
      8309**DCL      8310--REDEF
K$RWPARM.MRKTYP
      8294**DCL      8486<<ASSIGN
K$RWPARM.MSG$
      8019**DCL      8025--REDEF    8484<<ASSIGN   8491>>ASSIGN   8492<<ASSIGN   8492>>ASSIGN
K$RWPARM.MSGID
      8131**DCL      8136--REDEF
K$RWPARM.MSGIDXT
      8144**DCL      8148--REDEF
K$RWPARM.MSGSZ
      8026**DCL      8485<<ASSIGN   8493<<ASSIGN   8493>>ASSIGN
K$RWPARM.ORG
      8280**DCL      8281--REDEF
K$RWPARM.THDRSZ
      8224**DCL      8228--REDEF
K$RWPARM.VDOFLGS
      8282**DCL      8293--REDEF
KIA$WRITE
      8444**DCL-ENT  8501--CALL
K_RWPARM_CON
       449**DCL      8466>>ASSIGN
K_RWPARM_CON.BLKREC
       475**DCL       500--REDEF
K_RWPARM_CON.BLKREC.BLKU#
       476**DCL       478--REDEF
K_RWPARM_CON.BLKREC.RECU#
       488**DCL       490--REDEF
PL6.E3A0      #010=FOM$DEBLOCK File=FOM$MOOS.:E05TSI                             TUE 07/29/97 17:11 Page:399
K_RWPARM_CON.DVE.DVBYTE.VFC
       515**DCL       516--REDEF
K_RWPARM_CON.DVE.EOMCHAR
       523**DCL       527--REDEF
K_RWPARM_CON.ERR
       587**DCL       592--REDEF
K_RWPARM_CON.FC
       551**DCL       552--REDEF
K_RWPARM_CON.FLDID
       733**DCL       734--REDEF
K_RWPARM_CON.FPT$
       614**DCL       621--REDEF
K_RWPARM_CON.KEYTYPE
       740**DCL       741--REDEF
K_RWPARM_CON.MSG$
       450**DCL       456--REDEF
K_RWPARM_CON.MSGID
       562**DCL       567--REDEF
K_RWPARM_CON.MSGIDXT
       575**DCL       579--REDEF
K_RWPARM_CON.ORG
       711**DCL       712--REDEF
K_RWPARM_CON.THDRSZ
       655**DCL       659--REDEF
K_RWPARM_CON.VDOFLGS
       713**DCL       724--REDEF
LAST
      7993**DCL      8459<<ASSIGN   8471>>DOWHILE
NK$LDCT
      7912**DCL         8--PROC     8501<>CALL
NK$LDCT.DDT$
      7914**DCL      7914--REDEF
NK$LDCT.IOQ$
      7913**DCL      7914--REDEF
NK$LDCT.LDCTX
      7915**DCL      7915--REDEF
PL6.E3A0      #010=FOM$DEBLOCK File=FOM$MOOS.:E05TSI                             TUE 07/29/97 17:11 Page:400
NK$LDCT.LKFLG.ABORTED
      7927**DCL      7928--REDEF
NK$LDCT.LKFLG.QFL
      7931**DCL      8508<<ASSIGN
NK$LDCT.LOCK
      7940**DCL      8452<>CALL     8468<>CALL     8474<>CALL     8518<>CALL     8528<>CALL     8546<>CALL
      8554<>CALL
NK$LDCT.QFL.WRT
      7924**DCL      8509<<ASSIGN
NK$LDCT.RLCID.LDCTX
      7937**DCL      7937--REDEF
NK$LDCT.STA$
      7933**DCL      7934--REDEF
NK$LDCT.SYMB$
      7912**DCL      7912--REDEF    7912--REDEF    7913--REDEF    8454>>ASSIGN
REC#
      7992**DCL      8460<<ASSIGN   8461>>IF       8463<<ASSIGN   8464>>ASSIGN   8504>>ASSIGN   8516>>ASSIGN
      8523<<ASSIGN   8523>>ASSIGN
RECX
      7990**DCL      8464<<ASSIGN   8465>>ASSIGN   8471>>DOWHILE  8521<<ASSIGN   8521>>ASSIGN
RECX$
      7991**DCL      8465<<ASSIGN   8484>>ASSIGN   8485>>ASSIGN   8488>>ASSIGN   8522<<ASSIGN   8522>>ASSIGN
RTN
      8552**LABEL    8549--GOTO
SSS$SYSTIME
      8448**DCL-ENT  8503--CALL
SYMB$
      7996**DCL      8454<<ASSIGN   8455>>ASSIGN   8460>>ASSIGN   8476>>IF       8476>>IF       8476>>IF
      8480>>CALL     8487>>ASSIGN   8503>>CALL     8504>>ASSIGN   8505>>ASSIGN   8511>>IF       8513>>CALL
      8516>>ASSIGN   8530>>IF       8530>>IF       8530>>IF       8535>>IF       8539>>ASSIGN   8540>>CALL
      8542>>IF       8544>>CALL     8548>>CALL
UNLOCK
      8552**LABEL    8458--GOTO     8481--GOTO     8514--GOTO     8544--CALLALT
VFC
      7987**DCL      8491>>ASSIGN

PL6.E3A0      #011=FOM$DEBEV File=FOM$MOOS.:E05TSI                               TUE 07/29/97 17:11 Page:401
     2842        1        /*T***********************************************************/
     2843        2        /*T*                                                         */
     2844        3        /*T* Copyright (c) Bull HN Information Systems Inc., 1997    */
     2845        4        /*T*                                                         */
     2846        5        /*T***********************************************************/
     2847        6        FOM$DEBEV: PROC (DOLIST$) ALTRET;
     2848        7
     2849        8        /* Includes */
     2850        9        %INCLUDE B$USER;
     2851      225        %INCLUDE NK$LDCT;
     2852      327        %INCLUDE FOM$STRUCT;
     2853      388        %INCLUDE FOM_DATA_R;
     2854      637        %INCLUDE XUD_UTS_M;
     2855      719
     2856      720        %XUD$UTS_ENTRIES;                       /* expand routine dcls */
     2857      752        %XUD_UTS_EQU;                           /* expand constant EQUates */
     2858      763
     2859      764
     2860      765        /* Parameters */
     2861      766    1   DCL DOLIST$ PTR;
     2862      767    1   DCL SYMB$ PTR;
     2863      768
     2864      769        /* Entry refs */
     2865      770    1   DCL FOM$DEBLOCK ENTRY(1);
     2866      771    1   DCL SSS$SYSTIME ENTRY(1);
     2867      772
     2868      773        /* Auto */
     2869      774    1   DCL LDCT$ PTR;
     2870      775    1   DCL LDCT$U REDEF LDCT$ UBIN;
     2871      776    1   DCL CSEC SBIN AUTO;
     2872      777
     2873      778        /* Based */
     2874      779        %NK$LDCT;
     2875      825
     2876      826        %FOM$SYMB (NAME=FO$SYMB);
     2877      858
     2878      859    1         LDCT$U = DOLIST$->B$DO.EVID;
PL6.E3A0      #011=FOM$DEBEV File=FOM$MOOS.:E05TSI                               TUE 07/29/97 17:11 Page:402
     2879      860    1         SYMB$ = LDCT$ -> NK$LDCT.SYMB$;
     2880      861    1         SYMB$ -> FO$SYMB.THROTTLE_CNT = SYMB$ -> FO$SYMB.THROTTLE_CNT + 1;
     2881      862    1         CALL SSS$SYSTIME (SYMB$ -> FO$SYMB.THROTTLE_OFF_UTS);
     2882      863    1         CALL XUD$UTS_DIFF (cSEC, SYMB$->FO$SYMB.THROTTLE_OFF_UTS, SYMB$->FO$SYMB.
               863                  THROTTLE_ON_UTS);
     2883      864    1         SYMB$ -> FO$SYMB.THROTTLE_TIME = SYMB$ -> FO$SYMB.THROTTLE_TIME + CSEC;
     2884      865    1         CALL FOM$DEBLOCK (LDCT$->NK$LDCT);
     2885      866    1         ALTRETURN;
     2886      867
     2887      868    1   END FOM$DEBEV;

PL6.E3A0      #011=FOM$DEBEV File=FOM$MOOS.:E05TSI                               TUE 07/29/97 17:11 Page:403
--  Include file information  --

   XUD_UTS_M.:E05TOU  is referenced.
   FOM_DATA_R.:E05TOU  cannot be made into a system file and is referenced.
   FOM$STRUCT.:E05TOU  is referenced.
   NK$LDCT.:E05TOU  is referenced.
   B$USER.:E05TOU  cannot be made into a system file and is referenced.
      No diagnostics issued in procedure FOM$DEBEV.

   Procedure FOM$DEBEV requires 40 words for executable code.
   Procedure FOM$DEBEV requires 12 words of local(AUTO) storage.

    No errors detected in file FOM$MOOS.:E05TSI    .

PL6.E3A0      #011=FOM$DEBEV File=FOM$MOOS.:E05TSI                               TUE 07/29/97 17:11 Page:404

 Object Unit name= FOM$DEBEV                                  File name= FOM$MOOS.:E05TOU
 UTS= JUL 29 '97 17:11:24.68 TUE                              Compiler= PL-6/E31         Sev=      00
 SharedLib= :SHARED_SYSTEM                                    Alt SharedLib=


    ****  Control sections  ****

 Sect   Type Bound  Init  Size OctSiz  Section name(segment info)
    0   Proc  even  none    40     50  FOM$DEBEV

    ****  Entry defs  ****

                              Check   Calling
                             calling  sequence
  Sect OctLoc Primary Altret sequence   type   Parms  Name
     0      0   yes    yes     yes      Std        1  FOM$DEBEV

  ****  Entry refs  ****

         Check        Calling
        calling       sequence
Altret sequence SRef   type   Args  Name
         yes           Std       1 SSS$SYSTIME
 yes     yes           Std       3 XUD$UTS_DIFF
         yes           Std       1 FOM$DEBLOCK
                       nStd      0 X66_AUTO_1
                       Std       0 B_CONSPOOL_D
                       nStd      0 X66_AALT

  ****  Data refs  ****

  Flags:  r = read only, s = secondary
Flgs Name                             Flgs Name                             Flgs Name
     B_VECTNIL
PL6.E3A0      #011=FOM$DEBEV File=FOM$MOOS.:E05TSI                               TUE 07/29/97 17:11 Page:405


     2842        1        /*T***********************************************************/
     2843        2        /*T*                                                         */
     2844        3        /*T* Copyright (c) Bull HN Information Systems Inc., 1997    */
     2845        4        /*T*                                                         */
     2846        5        /*T***********************************************************/
     2847        6        FOM$DEBEV: PROC (DOLIST$) ALTRET;

      6  0 000000   000000 700200 xent  FOM$DEBEV    TSX0  ! X66_AUTO_1
         0 000001   000014 000001                    ZERO    12,1

     2848        7
     2849        8        /* Includes */
     2850        9        %INCLUDE B$USER;
     2851      225        %INCLUDE NK$LDCT;
     2852      327        %INCLUDE FOM$STRUCT;
     2853      388        %INCLUDE FOM_DATA_R;
     2854      637        %INCLUDE XUD_UTS_M;
     2855      719
     2856      720        %XUD$UTS_ENTRIES;                       /* expand routine dcls */
     2857      752        %XUD_UTS_EQU;                           /* expand constant EQUates */
     2858      763
     2859      764
     2860      765        /* Parameters */
     2861      766    1   DCL DOLIST$ PTR;
     2862      767    1   DCL SYMB$ PTR;
     2863      768
     2864      769        /* Entry refs */
     2865      770    1   DCL FOM$DEBLOCK ENTRY(1);
     2866      771    1   DCL SSS$SYSTIME ENTRY(1);
     2867      772
     2868      773        /* Auto */
     2869      774    1   DCL LDCT$ PTR;
     2870      775    1   DCL LDCT$U REDEF LDCT$ UBIN;
     2871      776    1   DCL CSEC SBIN AUTO;
     2872      777
     2873      778        /* Based */
PL6.E3A0      #011=FOM$DEBEV File=FOM$MOOS.:E05TSI                               TUE 07/29/97 17:11 Page:406
     2874      779        %NK$LDCT;
     2875      825
     2876      826        %FOM$SYMB (NAME=FO$SYMB);
     2877      858
     2878      859    1         LDCT$U = DOLIST$->B$DO.EVID;

    859  0 000002   200003 470500                    LDP0    @DOLIST$,,AUTO
         0 000003   000000 471500                    LDP1    0,,PR0
         0 000004   100003 235100                    LDA     3,,PR1
         0 000005   200005 755100                    STA     LDCT$,,AUTO

     2879      860    1         SYMB$ = LDCT$ -> NK$LDCT.SYMB$;

    860  0 000006   200005 473500                    LDP3    LDCT$,,AUTO
         0 000007   300000 236100                    LDQ     0,,PR3
         0 000010   200004 756100                    STQ     SYMB$,,AUTO

     2880      861    1         SYMB$ -> FO$SYMB.THROTTLE_CNT = SYMB$ -> FO$SYMB.THROTTLE_CNT + 1;

    861  0 000011   200004 474500                    LDP4    SYMB$,,AUTO
         0 000012   400017 235100                    LDA     15,,PR4
         0 000013   000001 035007                    ADLA    1,DL
         0 000014   400017 755100                    STA     15,,PR4

     2881      862    1         CALL SSS$SYSTIME (SYMB$ -> FO$SYMB.THROTTLE_OFF_UTS);

    862  0 000015   000015 036003                    ADLQ    13,DU
         0 000016   200010 756100                    STQ     CSEC+2,,AUTO
         0 000017   200010 630500                    EPPR0   CSEC+2,,AUTO
         0 000020   000017 631400 xsym               EPPR1   B_VECTNIL+15
         0 000021   000000 701000 xent               TSX1    SSS$SYSTIME
         0 000022   000000 011000                    NOP     0

     2882      863    1         CALL XUD$UTS_DIFF (cSEC, SYMB$->FO$SYMB.THROTTLE_OFF_UTS, SYMB$->FO$SYMB.
               863                  THROTTLE_ON_UTS);

    863  0 000023   200004 236100                    LDQ     SYMB$,,AUTO
PL6.E3A0      #011=FOM$DEBEV File=FOM$MOOS.:E05TSI                               TUE 07/29/97 17:11 Page:407
         0 000024   000014 036003                    ADLQ    12,DU
         0 000025   200012 756100                    STQ     CSEC+4,,AUTO
         0 000026   200004 236100                    LDQ     SYMB$,,AUTO
         0 000027   000015 036003                    ADLQ    13,DU
         0 000030   200011 756100                    STQ     CSEC+3,,AUTO
         0 000031   200006 630500                    EPPR0   CSEC,,AUTO
         0 000032   200010 450500                    STP0    CSEC+2,,AUTO
         0 000033   200010 630500                    EPPR0   CSEC+2,,AUTO
         0 000034   000021 631400 xsym               EPPR1   B_VECTNIL+17
         0 000035   000000 701000 xent               TSX1    XUD$UTS_DIFF
         0 000036   000000 011000                    NOP     0

     2883      864    1         SYMB$ -> FO$SYMB.THROTTLE_TIME = SYMB$ -> FO$SYMB.THROTTLE_TIME + CSEC;

    864  0 000037   200004 470500                    LDP0    SYMB$,,AUTO
         0 000040   000016 236100                    LDQ     14,,PR0
         0 000041   200006 036100                    ADLQ    CSEC,,AUTO
         0 000042   000016 756100                    STQ     14,,PR0

     2884      865    1         CALL FOM$DEBLOCK (LDCT$->NK$LDCT);

    865  0 000043   200005 630500                    EPPR0   LDCT$,,AUTO
         0 000044   000017 631400 xsym               EPPR1   B_VECTNIL+15
         0 000045   000000 701000 xent               TSX1    FOM$DEBLOCK
         0 000046   000000 011000                    NOP     0

     2885      866    1         ALTRETURN;

    866  0 000047   000000 702200 xent               TSX2  ! X66_AALT
     2886      867
     2887      868    1   END FOM$DEBEV;

PL6.E3A0      #011=FOM$DEBEV File=FOM$MOOS.:E05TSI                               TUE 07/29/97 17:11 Page:408
--  Include file information  --

   XUD_UTS_M.:E05TOU  is referenced.
   FOM_DATA_R.:E05TOU  cannot be made into a system file and is referenced.
   FOM$STRUCT.:E05TOU  is referenced.
   NK$LDCT.:E05TOU  is referenced.
   B$USER.:E05TOU  cannot be made into a system file and is referenced.
      No diagnostics issued in procedure FOM$DEBEV.
PL6.E3A0      #011=FOM$DEBEV File=FOM$MOOS.:E05TSI                               TUE 07/29/97 17:11 Page:409

 **** Variables and constants ****

  ****  Auto variables  ****

  ****  Scalars and arrays  ****
OctLoc.c.b A Datatyp(siz) R M Lvl/name                 OctLoc.c.b A Datatyp(siz) R M Lvl/name

     3-0-0/w PTR         r     1 @DOLIST$                   6-0-0/w SBIN        r     1 CSEC
    *0-0-0/w PTR         r     1 DOLIST$                    5-0-0/w PTR         r     1 LDCT$
     5-0-0/w UBIN        r     1 LDCT$U                     4-0-0/w PTR         r     1 SYMB$

  ****  BASED and DCB variables  ****

  ****  Scalars and arrays  ****
OctLoc.c.b A Datatyp(siz) R M Lvl/name                 OctLoc.c.b A Datatyp(siz) R M Lvl/name

     0-0-0/d STRC(396)   r     1 B$DO                       0-0-0/w STRC(720)   r     1 FO$SYMB
     0-0-0/d STRC(864)   r     1 NK$LDCT


   Procedure FOM$DEBEV requires 40 words for executable code.
   Procedure FOM$DEBEV requires 12 words of local(AUTO) storage.

    No errors detected in file FOM$MOOS.:E05TSI    .
PL6.E3A0      #011=FOM$DEBEV File=FOM$MOOS.:E05TSI                               TUE 07/29/97 17:11 Page:410
          *** CROSS REFERENCE LISTING ***
**     DENOTES     IDENTIFIER DEFINITION
<<                 IDENTIFIER'S VALUE SET
>>                 IDENTIFIER'S VALUE USED
<>                 IDENTIFIER SET AND/OR USED
--                 IDENTIFIER REFERENCED
PL6.E3A0      #011=FOM$DEBEV File=FOM$MOOS.:E05TSI                               TUE 07/29/97 17:11 Page:411
          MINI XREF LISTING

B$DO.ECCINFO
       160**DCL       161--REDEF
B$DO.EVID
       154**DCL       859>>ASSIGN
B$U.MISC
       139**DCL       140--REDEF
B$USER.MISC
       215**DCL       216--REDEF
CSEC
       776**DCL       863<>CALL      864>>ASSIGN
DOLIST$
       766**DCL         6--PROC      859>>ASSIGN
FO$SYMB.BR.BLK#
       838**DCL       839--REDEF
FO$SYMB.BR.REC#
       839**DCL       840--REDEF
FO$SYMB.BUF$
       837**DCL       838--REDEF
FO$SYMB.CUREXT.STAMP
       841**DCL       842--REDEF
FO$SYMB.SPACEPAGES
       845**DCL       846--REDEF
FO$SYMB.THROTTLE_CNT
       854**DCL       861<<ASSIGN    861>>ASSIGN
FO$SYMB.THROTTLE_OFF_UTS
       853**DCL       862<>CALL      863<>CALL
FO$SYMB.THROTTLE_ON_UTS
       853**DCL       863<>CALL
FO$SYMB.THROTTLE_TIME
       854**DCL       864<<ASSIGN    864>>ASSIGN
FOM$DEBLOCK
       770**DCL-ENT   865--CALL
PL6.E3A0      #011=FOM$DEBEV File=FOM$MOOS.:E05TSI                               TUE 07/29/97 17:11 Page:412
LDCT$
       774**DCL       775--REDEF     860>>ASSIGN    865>>CALL
LDCT$U
       775**DCL       859<<ASSIGN
NK$LDCT
       792**DCL       865<>CALL
NK$LDCT.DDT$
       794**DCL       794--REDEF
NK$LDCT.IOQ$
       793**DCL       794--REDEF
NK$LDCT.LDCTX
       795**DCL       795--REDEF
NK$LDCT.LKFLG.ABORTED
       807**DCL       808--REDEF
NK$LDCT.RLCID.LDCTX
       817**DCL       817--REDEF
NK$LDCT.STA$
       813**DCL       814--REDEF
NK$LDCT.SYMB$
       792**DCL       792--REDEF     792--REDEF     793--REDEF     860>>ASSIGN
SSS$SYSTIME
       771**DCL-ENT   862--CALL
SYMB$
       767**DCL       860<<ASSIGN    861>>ASSIGN    861>>ASSIGN    862>>CALL      863>>CALL      863>>CALL
       864>>ASSIGN    864>>ASSIGN
XUD$UTS_DIFF
       721**DCL-ENT   863--CALL
