VERSION E05

PL6.E3A0      #001=FOM$PMME File=FOM$MOOS.:E05TSI                                TUE 07/29/97 17:09 Page:1
        1        1        /*M* FOM$MOOS Monitor part of the output symbiont */
        2        2        /*T***********************************************************/
        3        3        /*T*                                                         */
        4        4        /*T* Copyright (c) Bull HN Information Systems Inc., 1997    */
        5        5        /*T*                                                         */
        6        6        /*T***********************************************************/
        7        7        /*X* DMC,PLM=6,IND=0,IDT=2,SDI=2,CTI=0,ENU=0,AND,DCI=4,CSU=2,ECU=4,THI=0,DTI=0,STI=1
                 7        ,IAD=0,PRB */
        8        8        /**/
        9        9        /*P* NAME: FOM$MOOS
       10       10             PURPOSE: To provide those output symbiont functions which,
       11       11                      for reasons of efficiency and/or nescessity,
       12       12                      must reside in the monitor
       13       13             DESCRIPTION:
       14       14                      MOOS is activated as the receiver of the M$SYMBIO
       15       15                      PMME, which currently may only be issued by the
       16       16                      OUTSYM ghost, but may be expanded in future to
       17       17                      other tasks.  MOOS bears essentially the same
       18       18                      relationship to the OUTSYM ghost as CP-V OUTSYM
       19       19                      did to RBBAT, that is, it reads symbiont files
       20       20                      passed to it by the ghost and prints them on
       21       21                      the appropriate device.
       22       22
       23       23                      In particular, when OUTSYM wants to print a file,
       24       24                      it issues an M$SYMBIO OPEN PMME, passing the
       25       25                      device name, a page for MOOS to use as disk buffer,
       26       26                      and the disk address & len of the file's first
       27       27                      extent.  MOOS then ACTIVATEs the device, obtains
       28       28                      an LDCT entry for symbiont context (linking it
       29       29                      to the device LDCT), maps OUTSYM's page into
       30       30                      its own FE page table, and commences reading
       31       31                      disk and writing granules to the appropriate place.
       32       32                      Note that granules, not records, are written, for
       33       33                      IOQ handles whole granules (on local devices), and
       34       34                      FEP handles them if the device is remote.
       35       35
       36       36                      When MOOS exhausts an extent, it events OUTSYM for
PL6.E3A0      #001=FOM$PMME File=FOM$MOOS.:E05TSI                                TUE 07/29/97 17:09 Page:2
       37       37                      another extent (actually MOOS maintains
       38       38                      a 1-deep stack of extents to eliminate latency),
       39       39                      and OUTSYM responds with a here's-the-next-extent
       40       40                      flavour of M$SYMBIO.
       41       41
       42       42        */
       43       43        /**/
       44       44        /*F* NAME:         FOM$PMME
       45       45             PURPOSE:      To service the M$SYMBIO PMME
       46       46             DESCRIPTION:  FOM$PMME is the service routine for the M$SYMBIO
       47       47                           PMME, issued by the OUTSYM ghost.
       48       48
       49       49                           The various flavours of M$SYMBIO are:
       50       50
       51       51                 OPEN      Begin printing a file on a given device.
       52       52
       53       53                 CONTINUE  Restart a halted device
       54       54
       55       55                 NXEXTENT  Provide next disk extent
       56       56
       57       57                 HALT      Suspend a device
       58       58
       59       59                 CLOSE     Shut down a halted or completed device
       60       60
       61       61                 SPACE     Start spacing operation
       62       62
       63       63                 TOKEN     Send token to remote device
       64       64
       65       65                 CHEXT     Check a disk extent
       66       66
       67       67                 WRITE     Write one record
       68       68
       69       69                 FMNT      Do forms mount
       70       70
       71       71                 INFO      Get blk#-rec# info
       72       72
       73       73                 CHORG     Check origin (local or remote)
PL6.E3A0      #001=FOM$PMME File=FOM$MOOS.:E05TSI                                TUE 07/29/97 17:09 Page:3
       74       74
       75       75
       76       76        */
       77       77        /**/
       78       78        FOM$PMME: PROC (FPTCODE);
       79       79
       80       80
       81       81
       82       82
       83       83
       84       84        /**/
       85       85        /* INCLUDES */
       86       86        /**/
       87       87        %INCLUDE NK$LDCT;
       88      189        %INCLUDE FOM$STRUCT;
       89      250        %INCLUDE UM$CP6V_C;
       90      437        %INCLUDE B$JIT_C;
       91      751        %INCLUDE NK_LDCT_R;
       92      760        %INCLUDE KC_DATA_R;
       93      773        %INCLUDE JG_GHOSTS_C;
       94      863        %INCLUDE KC_SUBS_C;
       95      879        %INCLUDE NK_SUBS;
       96      904        %INCLUDE FOM_SUBS_C;
       97      967        %INCLUDE UD_ERRORS_C;
       98     1009        %INCLUDE KC_ERRORS_C;
       99     1056        %INCLUDE FO_ERRORS_C;
      100     1088        %INCLUDE FOM_DATA_R;
      101     1337        %INCLUDE UD_SEV_C;
      102     1351        %INCLUDE HF_LOCK_C;
      103     1365        %INCLUDE KQ_MAC_C;
      104     3915        %INCLUDE KQ_SUBS_C;
      105     4215        %INCLUDE KC_CP6;
      106     4775        %INCLUDE KC$CP6V_C;
      107     4895        %INCLUDE N$REQ;
      108     4969        %INCLUDE F$DCB;
      109     5018        %INCLUDE K_DATA_R;
      110     5729        %INCLUDE KV$VDO;
PL6.E3A0      #001=FOM$PMME File=FOM$MOOS.:E05TSI                                TUE 07/29/97 17:09 Page:4
      111     6744        %INCLUDE NI$TABLES;
      112     6960        %INCLUDE FR$RAT;
      113     7013        %INCLUDE TD_CP6;
      114     7191        %INCLUDE CP_6_SUBS;
      115     7731
      116     7732
      117     7733        /**/
      118     7734        /* MACROS */
      119     7735        /**/
      120     7736        %MACRO $ERROR (NAME=GORGO,CODE=0,SEV=SEV_ERROR#);
      121     7737        DCL 1 NAME CONSTANT ALIGNED,
      122     7738              2 * BIT(18) UNAL INIT('061715'O),
      123     7739              2 * UBIN(15) UNAL INIT(CODE),
      124     7740              2 * UBIN(3) UNAL INIT(SEV);
      125     7741        %MEND;
      126     7742
      127     7743
      128     7744        /**/
      129     7745        /* PARAMETERS */
      130     7746        /**/
      131     7747    1   DCL FPTCODE UBIN WORD;
      132     7748
      133     7749
      134     7750        /**/
      135     7751        /* BASED STRUCTURES */
      136     7752        /**/
      137     7753        %KV_VDO_ALL_E;
      138     7832        %NK$LDCT;
      139     7878        %KQ_CG (FPTN=KQ$CG,STCLASS=BASED);
      140     8617        %KQ_STA (FPTN=KQ$STA,STCLASS=BASED);
      141     8956        %FOM$SYMB (NAME=FO$SYMB);
      142     8988        %FPT$SYMBIO_V (FPTN=FPT$SYMBIO_V,BASED="BASED(B$PS0$)");
      143     8993        %VLP$SYMBEXTENT_V (FPTN=VLP$EXTENT,BASED="BASED(B$PS1$)");
      144     8996        %B$JIT0;
      145     9085        %U$JIT1X;
      146     9088        %M$JIT2X;
      147     9091        %F$JIT3;
PL6.E3A0      #001=FOM$PMME File=FOM$MOOS.:E05TSI                                TUE 07/29/97 17:09 Page:5
      148     9096        %A$JIT6X;
      149     9099        %N$REQ;
      150     9157        %FOM$TABS;
      151     9160    1   DCL VLP$STATION CHAR(8) BASED(B$PS3$);
      152     9161    1   DCL VLP$FORM CHAR(6) BASED(B$PS5$);
      153     9162        /**/
      154     9163        %FR$RAT;
      155     9203        %NI$DCT (NAME=DCT,STCLASS="BASED(DCT$)");
      156     9251    1   DCL N$DCT$(0:0) PTR BASED;
      157     9252
      158     9253
      159     9254        /**/
      160     9255        /* AUTO */
      161     9256        /**/
      162     9257    1   DCL ORDER UBIN WORD;
      163     9258    1   DCL LDCT$ PTR;
      164     9259    1   DCL SYMB$ PTR;
      165     9260    1   DCL DAD UBIN WORD;
      166     9261    1   DCL SETX UBIN HALF;
      167     9262    1   DCL TEMP UBIN WORD;
      168     9263    1   DCL CG$ PTR;
      169     9264    1   DCL STA$ PTR;
      170     9265    1   DCL STALOCK UBIN;
      171     9266        %K$RWPARM (NAME=K$RWPARM,STCLASS="");
      172     9582        %FPT_SYSCON (FPTN=FPT_SYSCON,STCLASS=AUTO);
      173     9599    1   DCL RESULT SBIN;
      174     9600    1   DCL ERR SBIN;
      175     9601    1   DCL SAVEPRIV BIT(36);
      176     9602    1   DCL DCTX UBIN(36);
      177     9603    1   DCL DCT$ PTR;
      178     9604
      179     9605
      180     9606        /**/
      181     9607        /* CONSTANT */
      182     9608        /**/
      183     9609        %$ERROR (NAME=E_NAUTH,CODE=%E$NOTAUTH);
      184     9615        %$ERROR (NAME=E_NOSTA,CODE=%E$NOSTA);
PL6.E3A0      #001=FOM$PMME File=FOM$MOOS.:E05TSI                                TUE 07/29/97 17:09 Page:6
      185     9621        %$ERROR (NAME=E_BSYSY,CODE=%E$BSYSY);
      186     9627        %$ERROR (NAME=E_NHLTD,CODE=%E$NHLTD);
      187     9633        %$ERROR (NAME=E_XTEXT,CODE=%E$XTEXT);
      188     9639        %$ERROR (NAME=E_NSBLK,CODE=%E$NSBLK);
      189     9645        %$ERROR (NAME=E_NVMEM,CODE=%E$NVMEM);
      190     9651        %$ERROR (NAME=E_NSCLS,CODE=%E$NSCLS);
      191     9657        %$ERROR (NAME=E_NOHLT,CODE=%E$NOHLT);
      192     9663        %$ERROR (NAME=E_BADFC,CODE=%E$BADFC);
      193     9669        %$ERROR (NAME=E_LOCAL,CODE=%E$LOCAL);
      194     9675        %$ERROR (NAME=E_BADEXT,CODE=%E$BADEXT);
      195     9681        %$ERROR (NAME=E_ALGNDSC,CODE=%E$ALGNDSC);
      196     9687        %$ERROR (NAME=E_FPABRT,CODE=%E$FPABRT);
      197     9693        %FOM$SYMB (NAME=INITSBLK,STCLASS=CONSTANT);
      198     9725
      199     9726
      200     9727        /**/
      201     9728        /* REFS */
      202     9729        /**/
      203     9730    1   DCL B$JIT$ PTR SYMREF;
      204     9731    1   DCL B$PS0$ PTR SYMREF;
      205     9732    1   DCL B$PS1$ PTR SYMREF;
      206     9733    1   DCL B$PS2$ PTR SYMREF;
      207     9734    1   DCL B$PS3$ PTR SYMREF;
      208     9735    1   DCL B$PS4$ PTR SYMREF;
      209     9736    1   DCL B$PS5$ PTR SYMREF;
      210     9737    1   DCL S_CUN UBIN WORD SYMREF;
      211     9738    1   DCL FAF$SRTODR         ENTRY(2) ALTRET;
      212     9739    1   DCL FOM$DISKQ          ENTRY(1) ALTRET;
      213     9740    1   DCL FOM$EVENT          ENTRY(3) ALTRET;
      214     9741    1   DCL FOM$REL            ENTRY(1) ALTRET;
      215     9742    1   DCL FOM$TELLAU         ENTRY(3) ALTRET;
      216     9743    1   DCL FOM$WRITE          ENTRY(1);
      217     9744    1   DCL KCD$ACTRM          ENTRY(1);
      218     9745    1   DCL KCD$DACTRM         ENTRY(1);
      219     9746    1   DCL KIA$FCNOU          ENTRY(3) ALTRET;
      220     9747    1   DCL KQB$SRCH           ENTRY(3) ALTRET;
      221     9748    1   DCL KQP$UNLOCK         ENTRY(1) ALTRET;
PL6.E3A0      #001=FOM$PMME File=FOM$MOOS.:E05TSI                                TUE 07/29/97 17:09 Page:7
      222     9749    1   DCL KQX$LDASR          ENTRY(1);
      223     9750    1   DCL MMS$VGET           ENTRY(4) ALTRET;
      224     9751    1   DCL MMS$VREL           ENTRY(2) ALTRET;
      225     9752    1   DCL NIQ$GET            ENTRY(1) ALTRET;
      226     9753    1   DCL NKF$FORM           ENTRY(2) ALTRET;
      227     9754    1   DCL NKL$GETDCT         ENTRY(1) ALTRET;
      228     9755    1   DCL NKL$RELDCT         ENTRY(1) ALTRET;
      229     9756    1   DCL SSS$BLOCK          ENTRY;
      230     9757    1   DCL TDP$SYSCON         ENTRY(3) ALTRET;
      231     9758
      232     9759
      233     9760        /**/
      234     9761        /* SUBS */
      235     9762        /**/
      236     9763        %EQU_CG;
      237     9811        %SUB KQ$STREE="CG$->KQ$CG.STREE";
      238     9812        %EJECT;
PL6.E3A0      #001=FOM$PMME File=FOM$MOOS.:E05TSI                                TUE 07/29/97 17:09 Page:8
      239     9813    2         IF S_CUN~=JG_OUTSYM# THEN DO;
      240     9814    2           B$JIT.ERR=E_NAUTH;
      241     9815        /*E* ERROR:        FOM-E$NOTAUTH-E
      242     9816             MESSAGE:      You are not permitted to use this service
      243     9817             MESSAGE1:     Only the system ghost OUTSYM may use M$SYMBIO. */
      244     9818    2           RETURN;
      245     9819    2           END;
      246     9820        /**/
      247     9821        /*       CHKEXT order here */
      248     9822        /**/
      249     9823                                      /* Validate beginning and ending
      250     9824                                         addresses of extent */
      251     9825    1         ORDER=FPT$SYMBIO_V.ORDER;
      252     9826    1         IF ORDER = FOMO_CHEXT# THEN
      253     9827    2           DO;
      254     9828    2           SETX=FPT$SYMBIO_V.SETX;
      255     9829    2           DAD=VLP$EXTENT.DAD;
      256     9830    2           CALL FAF$SRTODR (DAD,SETX) ALTRET(BAD_EXT);
      257     9831    2           DAD=VLP$EXTENT.DAD+VLP$EXTENT.GRANS-1;
      258     9832    2           CALL FAF$SRTODR (DAD,SETX) ALTRET(BAD_EXT);
      259     9833    2           RETURN;
      260     9834    2           END;
      261     9835        /**/
      262     9836        /*       FMNT order here */
      263     9837        /**/
      264     9838
      265     9839                                /* Now block to master */
      266     9840    1         CALL SSS$BLOCK;
      267     9841    1         IF ORDER = FOMO_FMNT# THEN
      268     9842    2           DO;
      269     9843    2           CALL NKF$FORM (VLP$STATION,VLP$FORM);
      270     9844    2           RETURN;
      271     9845    2           END;
      272     9846        /**/
      273     9847
      274     9848        /**/
      275     9849        /**/     /* Normal orders here */
PL6.E3A0      #001=FOM$PMME File=FOM$MOOS.:E05TSI                                TUE 07/29/97 17:09 Page:9
      276     9850    1         STALOCK=0;
      277     9851                                      /* Get pointer to device table entry
      278     9852                                         where write is destined */
      279     9853    1         LDCT$=NK$LDCT$(B$JIT$->B$JIT.DCB$->F$DCB.LDCTX);
      280     9854    1         CG$=LDCT$->NK$LDCT.CG$;
      281     9855    1         CALL KQX$LDASR (CG$->KQ$CG);
      282     9856              %LOCK (G=KQ$STREE.GATE);
      283     9859                                      /* Locate station and make sure it's
      284     9860                                         active */
      285     9861    1         CALL KQB$SRCH (KQ$STREE,VLP$STATION,STA$) ALTRET(NOSTA);
      286     9862                                      /* Lock station, thus preventing it
      287     9863                                         from disconnecting from COMGROUP */
      288     9864              %LOCK (G=STA$->KQ$STA.GATE);
      289     9867                                      /* Get device table entry pointer from
      290     9868                                         COMGROUP station (STA$ was aquired
      291     9869                                         from call to KQB$SRCH) */
      292     9870    1         LDCT$=STA$->KQ$STA.LDCT$;
      293     9871                                      /* Is destination a valid logical device? */
      294     9872    1         IF LDCT$ = ADDR(NIL) THEN
      295     9873    2           DO;
      296     9874    2   NOSTA1: ;
      297     9875                %UNLOCK (G=STA$->KQ$STA.GATE);
      298     9878    2   NOSTA:  ;
      299     9879                %UNLOCK (G=KQ$STREE.GATE);
      300     9882    2           GOTO BAD_NAME;
      301     9883    2           END;
      302     9884    1         ELSE
      303     9885    1          IF (LDCT$->NK$LDCT.RESCOD ~= NK_CGTRM   AND
      304     9886    1          LDCT$->NK$LDCT.RESCOD ~= NK_CGFPRG) THEN
      305     9887    1           GOTO NOSTA1;
      306     9888                                      /* COMGROUP stations were locked (above)
      307     9889                                         so they cannot be disconnected until
      308     9890                                         we allow it.  LOCKCNT tells if we
      309     9891                                         will allow disconnect. */
      310     9892    1         STA$->KQ$STA.LOCKCNT=STA$->KQ$STA.LOCKCNT+1;
      311     9893                                      /* STALOCK=1 means stations are unlocked */
      312     9894    1         STALOCK=1;
PL6.E3A0      #001=FOM$PMME File=FOM$MOOS.:E05TSI                                TUE 07/29/97 17:09 Page:10
      313     9895              %UNLOCK (G=STA$->KQ$STA.GATE);
      314     9898              %UNLOCK (G=KQ$STREE.GATE);
      315     9901        /**/
      316     9902        /*       CHORG order here */
      317     9903        /**/
      318     9904    1         IF ORDER = FOMO_CHORG# THEN
      319     9905    2           DO;
      320     9906    2           IF LDCT$->NK$LDCT.DFLG.LOCAL THEN GOTO NOTREMOTE;
      321     9907                                      /* Unlock if necessary (shouldn't be
      322     9908                                         at this point) and return */
      323     9909    2           GOTO GETOUT;
      324     9910    2           END;
      325     9911                                /* IF WE FIND IT AND IT'S MARKED SYMBIONT
      326     9912                                   (I.E. HE'S ALREADY OPENED IT VIA M$SYMBIO),
      327     9913                                   THEN PICK UP THE POINTER TO THE SYMBIONT
      328     9914                                   CONTEXT BLK. */
      329     9915    1         IF LDCT$->NK$LDCT.DFLG.SYMBIONT THEN
      330     9916    1          SYMB$=LDCT$->NK$LDCT.SYMB$;
      331     9917    1         ELSE              /* ELSE THIS BETTER BE AN OPEN PMME */
      332     9918    1          IF (ORDER ~= FOMO_SOPEN# AND ORDER ~= FOMO_LOAD#) THEN
      333     9919    2            DO;
      334     9920    2   BAD_NAME:;
      335     9921    2            B$JIT.ERR=E_NOSTA;
      336     9922        /*E* ERROR:        FOM-E$NOSTA-E
      337     9923             MESSAGE:      M$SYMBIO can't find that device
      338     9924             DESCRIPTION:  The STATION specified on M$SYMBIO was either not
      339     9925                           found on the OSCG, or was found but was not
      340     9926                           symbiont. */
      341     9927    2   GETOUT:  ;
      342     9928    2            IF STALOCK ~= 0 THEN CALL KQP$UNLOCK (STA$->KQ$STA);
      343     9929    2            RETURN;
      344     9930    2            END;
      345     9931        /* NOW WE'RE STATISFIED THAT ALL IS COOL.  WE HAVE THE POINTER TO
      346     9932           THE DEVICE'S LDCT, AND THE POINTER TO THE SYMB CONTEXT BLK IF
      347     9933           THERE IS ONE (I.E. IF THE THING IS ALREADY OPEN AS SYMBIONT). */
      348     9934    1         CALL PROCIT ALTRET(BAD_NAME);
      349     9935    1         GOTO GETOUT;
PL6.E3A0      #001=FOM$PMME File=FOM$MOOS.:E05TSI                                TUE 07/29/97 17:09 Page:11
      350     9936    1   PROCIT: PROC ALTRET;
      351     9937        /***
      352     9938         ***
      353     9939         ***
      354     9940         ***     DO CASE FOR M$SYMBIO FUNCTION CODE
      355     9941         ***
      356     9942         ***
      357     9943         ***/
      358     9944
      359     9945    3           DO CASE (ORDER);
      360     9946        /**
      361     9947         **
      362     9948         **
      363     9949         **      SYMBIONT OPEN
      364     9950         **
      365     9951         **
      366     9952         **/
      367     9953    3             CASE (FOMO_SOPEN#,FOMO_LOAD#);
      368     9954
      369     9955                                     /* LDCT$ is device table entry pointer
      370     9956                                        (for COMGROUP station) */
      371     9957    3               IF LDCT$->NK$LDCT.DFLG.SYMBIONT
      372     9958    3               OR (LDCT$->NK$LDCT.LKFLG.ACTIVE AND (ORDER = FOMO_SOPEN#))
      373     9959    3               THEN
      374     9960    4                 DO;      /* ALREADY ACTIVE ON THIS DEVICE */
      375     9961    4                 B$JIT.ERR=E_BSYSY;
      376     9962        /*E* ERROR:        FOM-E$BSYSY-E
      377     9963             MESSAGE:      M$SYMBIO can't open a busy symbiont
      378     9964             DESCRIPTION:  The symbiont that the user is trying to open
      379     9965                           is already open.  */
      380     9966    4                 RETURN;
      381     9967    4                 END;
      382     9968                           /* ELSE GET A SYMB CONTEXT BLK */
      383     9969    3               CALL NKL$GETDCT (SYMB$) ALTRET(NODCTS);
      384     9970                                /* PICK UP LDCTX OF NEW ENTRY */
      385     9971    3               TEMP=SYMB$->NK$LDCT.LDCTX;
      386     9972                                /* BLAST OUT THE TABLE POINTER TO IT */
PL6.E3A0      #001=FOM$PMME File=FOM$MOOS.:E05TSI                                TUE 07/29/97 17:09 Page:12
      387     9973    3               NK$LDCT$(TEMP)=ADDR(NIL);
      388     9974                                /* INITIALIZE IT W/ SYMB CONTEXT INIT */
      389     9975    3               SYMB$->FO$SYMB=INITSBLK;
      390     9976                                /* REMEMBER ITS OWN LDCTX */
      391     9977                                      /* Save LDCTX for restoration (later) */
      392     9978    3               SYMB$->FO$SYMB.LDCTX=TEMP;
      393     9979                                /* REMEMBER DEVICE LDCT INDEX */
      394     9980    3               SYMB$->FO$SYMB.DEVLDCTX=LDCT$->NK$LDCT.LDCTX;
      395     9981                                      /* B$PS2$ is the 2nd parameter and contains
      396     9982                                         the pointer to OUTSYMs granule. I think
      397     9983                                         this call maps the OUTSYM granule into
      398     9984                                         the FEP page table.  This table refer-
      399     9985                                         ences areas of the FEP Working Storage
      400     9986                                         Quarter, which gets accessed by the
      401     9987                                         FEP deblocker */
      402     9988    3               CALL MMS$VGET (FOM_WSQ,B$PS2$,4096,
      403     9989    3               SYMB$->FO$SYMB.BUF$) ALTRET(NOMEM1);
      404     9990                                /* IF THE TERMINAL DISCONNECTED, REL THE
      405     9991                                   SYMB CNTXT BLK AND ERROR THE USER */
      406     9992                    %LOCK (G=STA$->KQ$STA.GATE);
      407     9995                                      /* IDSC means initiate disconnect */
      408     9996    3               IF STA$->KQ$STA.IDSC THEN
      409     9997    4                 DO;
      410     9998    4                 CALL MMS$VREL(FOM_WSQ,SYMB$->FO$SYMB.BUF$);
      411     9999    4                 CALL RELSYMB;
      412    10000                      %UNLOCK (G=STA$->KQ$STA.GATE);
      413    10003    4   ALTRT:        ;
      414    10004    4                 ALTRETURN;
      415    10005    4                 END;
      416    10006                                /* OTHERWISE, POINT THE TERMINAL LDCT AT
      417    10007                                  THE SYMB CNTXT BLK, AND MARK IT AS
      418    10008                                  OPENED-SYMBIONT */
      419    10009    3               ELSE
      420    10010    4                 DO;
      421    10011                                      /* At this stage, LDCT$ points to the
      422    10012                                         COMGROUP station's LDCT.  Assign the
      423    10013                                         the symbiont context block pointer
PL6.E3A0      #001=FOM$PMME File=FOM$MOOS.:E05TSI                                TUE 07/29/97 17:09 Page:13
      424    10014                                         to SYMB$ in the output device's LDCT,
      425    10015                                         make the device a symbiont device, and
      426    10016                                         allow this symbiont device to discon-
      427    10017                                         nect from the COMGROUP.
      428    10018                                         NOTE: MOOS participates in COMGROUP
      429    10019                                         disconnects of symbiont devices. The
      430    10020                                         reason for the gate lock (above) is
      431    10021                                         so the device cannot disconnect until
      432    10022                                         all of the proper flags are set (these
      433    10023                                         flags inform the   COMGROUP that MOOS
      434    10024                                         must be called upon disconnect). */
      435    10025    4                 LDCT$->NK$LDCT.SYMB$=SYMB$;
      436    10026    4                 LDCT$->NK$LDCT.DFLG.SYMBIONT='1'B;
      437    10027                      %UNLOCK (G=STA$->KQ$STA.GATE);
      438    10030    4                 END;
      439    10031                                /* ACTIVATE THE DEVICE */
      440    10032    3               IF ORDER = FOMO_SOPEN#
      441    10033    3               THEN
      442    10034    3                CALL KCD$ACTRM (LDCT$->NK$LDCT);
      443    10035                                /* MERGE IN DISK SETX */
      444    10036                                      /* Assign packset where symbiont granule
      445    10037                                         resides */
      446    10038    3               SYMB$->FO$SYMB.SETX=FPT$SYMBIO_V.SETX;
      447    10039                                /* FROM NOW ON, IT'S JUST LIKE A CONTINUE
      448    10040                                   OF A HALTED SYMBIONT */
      449    10041    3               GOTO CONTINUE;
      450    10042    3   NOMEM1:     ;
      451    10043    3               SYMB$->NK$LDCT.LDCTX=SYMB$->FO$SYMB.LDCTX;
      452    10044    3               CALL NKL$RELDCT (SYMB$);
      453    10045    3               GOTO NOMEM2;
      454    10046        /**
      455    10047         **
      456    10048         **
      457    10049         **      START SPACING SYMBIONT (FROM HALT)
      458    10050         **
      459    10051         **
      460    10052         **/
PL6.E3A0      #001=FOM$PMME File=FOM$MOOS.:E05TSI                                TUE 07/29/97 17:09 Page:14
      461    10053    3             CASE (FOMO_SSPAC#);
      462    10054
      463    10055    3               SYMB$->FO$SYMB.SPACETYPE=0;
      464    10056    3   DOSPACE:    ;
      465    10057    3               IF SYMB$->FO$SYMB.TAB$ = ADDR(NIL) THEN
      466    10058    4                 DO;
      467    10059    4                 CALL NKL$GETDCT(SYMB$->FO$SYMB.TAB$) ALTRET(NODCTS);
      468    10060    4                 TEMP=SYMB$->FO$SYMB.TAB$->NK$LDCT.LDCTX;
      469    10061    4                 NK$LDCT$(TEMP)=ADDR(NIL);
      470    10062    4                 SYMB$->FO$SYMB.TAB$->FO$TABS.LDCTX=TEMP;
      471    10063    4                 END;
      472    10064                                      /* Go reactivate the device and map the
      473    10065                                         OUTSYM granule in the FEP WSQ.  If
      474    10066                                         ORDER = write, then start writing */
      475    10067    3               GOTO DOCONT;
      476    10068
      477    10069    3             CASE (FOMO_SSBLK#);
      478    10070
      479    10071    3               SYMB$->FO$SYMB.SPACETYPE=1;
      480    10072    3               GOTO DOSPACE;
      481    10073        /**
      482    10074         **
      483    10075         **
      484    10076         **      SYMBIONT CONTINUE (FROM HALT)
      485    10077         **
      486    10078         **
      487    10079         **/
      488    10080
      489    10081                                /* THE SYMBIONT CONTEXT BLOCK IS STILL
      490    10082                                   THERE BUT ALL OTHER STUFF WAS RELEASED
      491    10083                                   WHEN WE HALTED, SO IT MUST BE
      492    10084                                   RE-ACQUIRED. */
      493    10085
      494    10086    3             CASE (FOMO_SCONT#);
      495    10087
      496    10088    3   DOCONT:     ;
      497    10089                                /* MAKE SURE IT'S HALTED, AND IF SO, SET IT
PL6.E3A0      #001=FOM$PMME File=FOM$MOOS.:E05TSI                                TUE 07/29/97 17:09 Page:15
      498    10090                                   BUSY */
      499    10091                                      /* Reactivate the device and map the
      500    10092                                         OUTSYM granule into the FEP WSQ.  If
      501    10093                                         ORDER = write, then commence writing */
      502    10094    4                 DO INHIBIT;
      503    10095    4                 IF SYMB$->FO$SYMB.STATE~=FOMS_HELD# THEN GOTO BADCNT;
      504    10096    4                 SYMB$->FO$SYMB.STATE=FOMS_ACTV#;
      505    10097    4                 END;
      506    10098    3               CALL MMS$VGET (FOM_WSQ,B$PS2$,4096,
      507    10099    3               SYMB$->FO$SYMB.BUF$) ALTRET(NOMEM);
      508    10100
      509    10101        /* COME HERE TO CONTINUE */
      510    10102    3   CONTINUE:   ;
      511    10103
      512    10104                                      /* A number of IOQ packets are assigned
      513    10105                                         in TIGR. This call pulls the 1st one
      514    10106                                         off the free list and returns a pointer
      515    10107                                         to it. */
      516    10108    3               CALL NIQ$GET (SYMB$->FO$SYMB.IOQ$);
      517    10109
      518    10110    3               SYMB$->FO$SYMB.IOQ$->N$REQ.NOALT='1'B;
      519    10111                                      /* Assign pointer to symbiont context blk */
      520    10112    3               SYMB$->FO$SYMB.IOQ$->N$REQ.EAINFOP$=SYMB$;
      521    10113                                      /* Assign pointer to OUTSYMs granule,
      522    10114                                         which was mapped into the FEP WSQ
      523    10115                                         (above). */
      524    10116    3               SYMB$->FO$SYMB.IOQ$->N$REQ.BUF$=SYMB$->FO$SYMB.BUF$;
      525    10117                                /* PICK UP USER-PASSED BLK-REC */
      526    10118                                      /* Assign the block-rec where we are
      527    10119                                         to commence printing */
      528    10120    3               SYMB$->FO$SYMB.BR=FPT$SYMBIO_V.BLKREC;
      529    10121    3               IF FPT$SYMBIO_V.BLKREC.BLK = 0 AND
      530    10122    3               FPT$SYMBIO_V.BLKREC.REC = 1 THEN
      531    10123    3                SYMB$ -> FO$SYMB.PGDONE = 0;
      532    10124                                      /* Allow for "Q"ing of next extent */
      533    10125    3               SYMB$->FO$SYMB.NXTEXT='0'B;
      534    10126                                /* BREAK OUT IF WRITE ORDER */
PL6.E3A0      #001=FOM$PMME File=FOM$MOOS.:E05TSI                                TUE 07/29/97 17:09 Page:16
      535    10127    3               IF ORDER = FOMO_WRITE# THEN GOTO DOWRITE;
      536    10128    3               SYMB$->FO$SYMB.CUREXT=VLP$EXTENT;
      537    10129                                /* ASK FOR NEXT EXTENT */
      538    10130    3               IF SYMB$->FO$SYMB.CUREXT THEN
      539    10131                                      /* Ask OUTSYM for next extent */
      540    10132    3                CALL FOM$TELLAU (SYMB$->FO$SYMB,%CG_SFEXT#,0);
      541    10133                                /* QUEUE THE NEXT DISK READ */
      542    10134    3               IF  ORDER = FOMO_SSPAC#
      543    10135    3               OR ORDER = FOMO_SSBLK# THEN
      544    10136    4                 DO;
      545    10137    4                 IF SYMB$->FO$SYMB.BR='0'B
      546    10138    4                 THEN
      547    10139    5                   DO;
      548    10140    5                   SYMB$->FO$SYMB.XMVFU='1'B;
      549    10141    5                   END;
      550    10142    4                 SYMB$->FO$SYMB.SPACING='1'B;
      551    10143    4                 SYMB$->FO$SYMB.SPACEPAGES=FPT$SYMBIO_V.SPACEPAGES;
      552    10144    4                 SYMB$->FO$SYMB.SPACEREC#=FPT$SYMBIO_V.SPACEREC;
      553    10145    4                 SYMB$->FO$SYMB.PAGES=FPT$SYMBIO_V.PAGES;
      554    10146    4                 SYMB$->FO$SYMB.CPVFC=FPT$SYMBIO_V.CPVFC;
      555    10147    4                 SYMB$->FO$SYMB.FIRSTSPACE='1'B;
      556    10148    4                 END;
      557    10149                                      /* Put next extent on disk queue */
      558    10150    3               CALL FOM$DISKQ (SYMB$->FO$SYMB);
      559    10151    3               RETURN;
      560    10152                                /* NO VIRTUAL MEMORY TO MAP BUFFER */
      561    10153    3   NOMEM:      ;
      562    10154                                /* CHANGE STATE TO HELD, AND OUTSYM WILL
      563    10155                                   TRY LATER */
      564    10156    3               CALL FOM$EVENT(SYMB$->FO$SYMB,FOSE_HLTR,FOHR_NMEM#)
      565    10157    3               ALTRET (BADCNT);
      566    10158    3   NOMEM2:     ;
      567    10159    3               B$JIT.ERR=E_NVMEM;
      568    10160        /*E* ERROR:        FOM-E$NVMEM-E
      569    10161             MESSAGE:      No virtual map space for output symbiont
      570    10162             DESCRIPTION:  Each OPEN or CONTINUE M$SYMBIO requires a page
      571    10163                           in the appropriate FEWSQ map, for the symbiont
PL6.E3A0      #001=FOM$PMME File=FOM$MOOS.:E05TSI                                TUE 07/29/97 17:09 Page:17
      572    10164                           disc buffer.  This error occurs when the space
      573    10165                           is not available.  On an OPEN, the error results
      574    10166                           in a failed open; on a CONTINUE (or SPACE) the
      575    10167                           error results in the symbiont being left in state
      576    10168                           HELD.   */
      577    10169        /**
      578    10170         **
      579    10171         **
      580    10172         **      PASSING NEXT EXTENT
      581    10173         **
      582    10174         **
      583    10175         **/
      584    10176
      585    10177    3             CASE (FOMO_NXEXT#);
      586    10178
      587    10179                                      /* Get the output devices pointer to
      588    10180                                         the symbiont context block */
      589    10181    3               SYMB$=LDCT$->NK$LDCT.SYMB$;
      590    10182    3               IF SYMB$->FO$SYMB.NXTEXT~='0'B THEN GOTO BADNXTEXT;
      591    10183
      592    10184    4                 DO INHIBIT;
      593    10185                                      /* Are we currently processing an extent? */
      594    10186    4                 IF SYMB$->FO$SYMB.CUREXT THEN
      595    10187    5                   DO;
      596    10188    5                   SYMB$->FO$SYMB.NXTEXT=VLP$EXTENT;
      597    10189                                /* PRE-ADJUST FOR INCR/DECR IN FOM$NXDISK */
      598    10190                                      /* Adjust the file relative disk address */
      599    10191    5                   IF SYMB$->FO$SYMB.SPACING AND SYMB$->FO$SYMB.SPACEPAGES < 0
      600    10192    5                   THEN SYMB$->FO$SYMB.NXTEXT.STAMP.FRDAD=SYMB$->FO$SYMB.NXTEXT.STAMP.
             10192                            FRDAD+1;
      601    10193    5                   ELSE SYMB$->FO$SYMB.NXTEXT.STAMP.FRDAD=SYMB$->FO$SYMB.NXTEXT.STAMP.
             10193                            FRDAD-1;
      602    10194    5                   END;
      603    10195    4                 ELSE
      604    10196                                      /* Otherwise we don't have an extent, grab
      605    10197                                         this one and put it in CUREXT */
      606    10198    5                   DO;
PL6.E3A0      #001=FOM$PMME File=FOM$MOOS.:E05TSI                                TUE 07/29/97 17:09 Page:18
      607    10199    5                   SYMB$->FO$SYMB.CUREXT=VLP$EXTENT;
      608    10200                                /* IF WE'RE IDLE WAITING FOR GRANULES,
      609    10201                                   CRANK UP THE NEXT READ */
      610    10202    5                   IF SYMB$->FO$SYMB.STATE=FOMS_IDLE# THEN
      611    10203    6                     DO;
      612    10204    6                     SYMB$->FO$SYMB.STATE=FOMS_ACTV#;
      613    10205    6                     CALL FOM$DISKQ (SYMB$->FO$SYMB);
      614    10206    6                     END;
      615    10207    5                   ELSE
      616    10208    6                     DO;
      617    10209                                /* PRE-ADJUST FOR INCR/DECR IN FOM$NXDISK */
      618    10210    6                     IF SYMB$->FO$SYMB.SPACING AND SYMB$->FO$SYMB.SPACEPAGES < 0
      619    10211    6                     THEN SYMB$->FO$SYMB.CUREXT.STAMP.FRDAD=SYMB$->FO$SYMB.CUREXT.STAMP
             10211                              .FRDAD+1;
      620    10212    6                     ELSE SYMB$->FO$SYMB.CUREXT.STAMP.FRDAD=SYMB$->FO$SYMB.CUREXT.STAMP
             10212                              .FRDAD-1;
      621    10213    6                     END;
      622    10214    5                   END;
      623    10215    4                 END;
      624    10216        /**
      625    10217         **
      626    10218         **
      627    10219         **      SEND SYMBIONT TOKEN
      628    10220         **
      629    10221         **
      630    10222         **/
      631    10223    3             CASE (FOMO_STOKN#);
      632    10224
      633    10225                                      /* FEX = 0 means not remote */
      634    10226    4                 DO INHIBIT;
      635    10227    4                 IF SYMB$ -> FO$SYMB.EFLGB.IDSC
      636    10228    4                 OR SYMB$ -> FO$SYMB.STATE = FOMS_DCMP#
      637    10229    4                 THEN
      638    10230    4                  GOTO BAD_ALDSC;
      639    10231
      640    10232    4                 IF SYMB$ -> FO$SYMB.FPABRT = '1'B
      641    10233    4                 THEN
PL6.E3A0      #001=FOM$PMME File=FOM$MOOS.:E05TSI                                TUE 07/29/97 17:09 Page:19
      642    10234    4                  GOTO BAD_ALFPRG;
      643    10235    4                 IF LDCT$->NK$LDCT.DFLG.LOCAL THEN
      644    10236    4                  CALL FOM$TELLAU (SYMB$->FO$SYMB,%CG_STOKN#,0);
      645    10237    5                 ELSE DO;
      646    10238    5                   K$RWPARM = K_RWPARM_CON;
      647    10239    5                   K$RWPARM.MRKTYP = %KV_VDOMRKTYP_MRK;
      648    10240                        %LOCK(G=LDCT$->NK$LDCT.LOCK);
      649    10243    5                   CALL KIA$FCNOU (LDCT$->NK$LDCT,%KV_VDO_FNC_RQSMRK,K$RWPARM)
      650    10244    6                   WHENALTRETURN DO;
      651    10245                          %UNLOCK (G=LDCT$->NK$LDCT.LOCK);
      652    10248    6                     ALTRETURN;
      653    10249    6                     END;
      654    10250                        %UNLOCK(G=LDCT$->NK$LDCT.LOCK);
      655    10253    5                   END;
      656    10254    4                 IF SYMB$ -> FO$SYMB.EFLGB.IDSC
      657    10255    4                 OR SYMB$ -> FO$SYMB.STATE = FOMS_DCMP#
      658    10256    4                 THEN
      659    10257    4                  GOTO BAD_ALDSC;
      660    10258
      661    10259    4                 IF SYMB$ -> FO$SYMB.FPABRT = '1'B
      662    10260    4                 THEN
      663    10261    4                  GOTO BAD_ALFPRG;
      664    10262    4                 END;
      665    10263        /**
      666    10264         **
      667    10265         **
      668    10266         **      SYMBIONT HALT
      669    10267         **
      670    10268         **
      671    10269         **/
      672    10270
      673    10271    3             CASE (FOMO_SHALT#);
      674    10272
      675    10273    3               CALL FOM$EVENT (SYMB$->FO$SYMB,FOSE_HLTR,FOHR_OUTS#) ALTRET(BADHLT);
      676    10274        /**
      677    10275         **
      678    10276         **
PL6.E3A0      #001=FOM$PMME File=FOM$MOOS.:E05TSI                                TUE 07/29/97 17:09 Page:20
      679    10277         **      WRITE ONE RECORD OR GRANULE
      680    10278         **
      681    10279         **
      682    10280         **/
      683    10281
      684    10282                      /* THE INFORMATION TO BE WRITTEN IS EITHER A RECORD
      685    10283                         DESCRIBED BY THE RECORD_ VECTOR WHICH FRAMES
      686    10284                         A VLP_SYMBWRITE VLP, OR, IF RECORD_ IS NILERASE,
      687    10285                         A WHOLE GRANULE, LIVING IN THE SYMBIONT BUFFER. */
      688    10286    3             CASE (FOMO_WRITE#);
      689    10287
      690    10288    4                 DO INHIBIT;
      691    10289    4                 IF SYMB$->FO$SYMB.STATE = FOMS_IDLE# THEN
      692    10290    5                   DO;
      693    10291    5   DOWRITE:        ;
      694    10292                                      /* Set device state in symbiont cntxt blk */
      695    10293    5                   SYMB$->FO$SYMB.STATE=FOMS_DKIO#;
      696    10294                                      /* Acknowledgement requested? */
      697    10295    5                   IF FPT$SYMBIO_V.ACK THEN SYMB$->FO$SYMB.ACK='1'B;
      698    10296    5                   ELSE IF FPT$SYMBIO_V.TOKEN THEN
      699    10297    6                      DO;
      700    10298                                      /* If it's not a remote write, let token
      701    10299                                         be assigned */
      702    10300    6                      IF LDCT$->NK$LDCT.DFLG.LOCAL THEN SYMB$->FO$SYMB.TOKEN='1'B;
      703    10301    6                      END;
      704    10302                                /* ZAP CUREXT */
      705    10303                                      /* MOOS no longer has a current extent */
      706    10304    5                   SYMB$->FO$SYMB.CUREXT='0'B;
      707    10305    5                   CALL FOM$WRITE (SYMB$->FO$SYMB.IOQ$->N$REQ);
      708    10306    5                   RETURN;
      709    10307    5                   END;
      710    10308    4                 IF SYMB$->FO$SYMB.STATE = FOMS_HELD# THEN GOTO DOCONT;
      711    10309                                                     /**/
      712    10310                                      /* If device disconnected it could
      713    10311                                         mess up an alignment sequence,
      714    10312                                         don't let it. */
      715    10313                                                     /**/
PL6.E3A0      #001=FOM$PMME File=FOM$MOOS.:E05TSI                                TUE 07/29/97 17:09 Page:21
      716    10314    4                 IF SYMB$ -> FO$SYMB.EFLGB.IDSC
      717    10315    4                 OR SYMB$ -> FO$SYMB.STATE = FOMS_DCMP#
      718    10316    4                 THEN
      719    10317    4                  GOTO BAD_ALDSC;
      720    10318
      721    10319    4                 IF SYMB$ -> FO$SYMB.FPABRT = '1'B
      722    10320    4                 THEN
      723    10321    4                  GOTO BAD_ALFPRG;
      724    10322                                                     /**/
      725    10323    4                 END;
      726    10324    3               GOTO BADCLS;
      727    10325        /**
      728    10326         **
      729    10327         **
      730    10328         **      GET SYMBIONT BLKREC INFO
      731    10329         **
      732    10330         **
      733    10331         **/
      734    10332    3             CASE (FOMO_INFO#);
      735    10333
      736    10334    3               FPT$SYMBIO_V.BLKREC=SYMB$->FO$SYMB.BR;
      737    10335    3               FPT$SYMBIO_V.PGDONE=SYMB$ -> FO$SYMB.PGDONE;
      738    10336    3               FPT$SYMBIO_V.THROTTLE_TIME=SYMB$ -> FO$SYMB.THROTTLE_TIME;
      739    10337    3               FPT$SYMBIO_V.THROTTLE_CNT=SYMB$ -> FO$SYMB.THROTTLE_CNT;
      740    10338        /**
      741    10339         **
      742    10340         **
      743    10341         **      SYMBIONT CLOSE
      744    10342         **
      745    10343         **
      746    10344         **/
      747    10345
      748    10346    3             CASE (FOMO_SCLOS#);
      749    10347
      750    10348    4                 DO INHIBIT;
      751    10349    4                 IF SYMB$ -> FO$SYMB.EFLGB.IDSC
      752    10350    4                 OR SYMB$ -> FO$SYMB.STATE = FOMS_DCMP#
PL6.E3A0      #001=FOM$PMME File=FOM$MOOS.:E05TSI                                TUE 07/29/97 17:09 Page:22
      753    10351    4                 THEN
      754    10352    4                  GOTO BAD_ALDSC;
      755    10353    4                 IF  SYMB$->FO$SYMB.STATE~=FOMS_IDLE#
      756    10354    4                 AND SYMB$->FO$SYMB.STATE~=FOMS_HELD# THEN GOTO BADCLS;
      757    10355    4                 LDCT$->NK$LDCT.DFLG.SYMBIONT='0'B;
      758    10356    4                 END;
      759    10357    3               CALL FOM$REL (SYMB$->FO$SYMB);
      760    10358    3               CALL RELSYMB;
      761    10359    3               CALL KCD$DACTRM (LDCT$->NK$LDCT);
      762    10360        /**
      763    10361           Lets see if the device needs some delayed partitioning done for it.
      764    10362           We assume that the LDCT was changed, and that there is a valid RAT$
      765    10363           pointer in it now.  This will get us back to the DCT so we can see
      766    10364           if this particular device should be delayed partitioned.
      767    10365        **/
      768    10366    3               IF LDCT$->NK$LDCT.RAT$ ~= ADDR(NIL) THEN
      769    10367    4                 DO;
      770    10368    4                 DCTX = LDCT$->NK$LDCT.RAT$->FR$RAT.DCTX;
      771    10369    4                 DCT$ = N$DCT$$->N$DCT$(DCTX);
      772    10370    4                 IF DCT$ ~= ADDR(NIL) THEN
      773    10371    4                  IF DCT.STATUS.SYSCON_PART OR DCT.STATUS.MSOS_PART THEN
      774    10372    5                    DO;
      775    10373    5                    FPT_SYSCON.V.FUNCTION# = %PARTITION#;
      776    10374    5                    FPT_SYSCON.V.COMPONENT# = %DVC#;
      777    10375    5                    FPT_SYSCON.V.DEVNM# = DCT.DEVNM;
      778    10376    5                    SAVEPRIV = B$JIT.PRIV.ACTIVE;
      779    10377    5                    B$JIT.PRIV.ACTIVE = %PR_SYSCON#;
      780    10378    5                    CALL TDP$SYSCON (FPT_SYSCON.V,RESULT,ERR);
      781    10379    5                    B$JIT.PRIV.ACTIVE = SAVEPRIV;
      782    10380    5                    END;
      783    10381    4                 END;
      784    10382        /**
      785    10383         **
      786    10384         **
      787    10385         **      UNKNOWN FUNCTION CODE
      788    10386         **
      789    10387         **
PL6.E3A0      #001=FOM$PMME File=FOM$MOOS.:E05TSI                                TUE 07/29/97 17:09 Page:23
      790    10388         **/
      791    10389    3             CASE (ELSE);
      792    10390    3               B$JIT.ERR=E_BADFC;
      793    10391        /*E* ERROR:        FOM-E$BADFC-E
      794    10392             MESSAGE:      Unknown M$SYMBIO function code
      795    10393             DESCRIPTION:  The function code (order) passed with M$SYMBIO
      796    10394                           was unknown. */
      797    10395
      798    10396    3           END; /*CASE ORDER*/
      799    10397    2         RETURN;
      800    10398        /**/
      801    10399    2   RELSYMB: PROC;
      802    10400                                /* MAKE SURE LDCTX IS IN RIGHT PLACE */
      803    10401    3         SYMB$->NK$LDCT.LDCTX=SYMB$->FO$SYMB.LDCTX;
      804    10402    3         CALL NKL$RELDCT (SYMB$);
      805    10403    3         RETURN;
      806    10404    3   END RELSYMB;
      807    10405        /**/
      808    10406        /* VARIOUS ERRORS */
      809    10407        /**/
      810    10408    2   NODCTS:
      811    10409    2         B$JIT.ERR=E_NSBLK;
      812    10410        /*E* ERROR:        FOM-E$NSBLK-E
      813    10411             MESSAGE:      No LDCTs available for M$SYMBIO OPEN or SPACE
      814    10412             DESCRIPTION:  Opening a symbiont output device requires an LDCT
      815    10413                           for the symbiont context block.  This error occurs
      816    10414                           when there are none.  It also occurs if no LDCT
      817    10415                           (used as a tabs buffer) is available when commencing
      818    10416                           a spacing operation.   */
      819    10417    2         RETURN;
      820    10418    2   BADCNT:
      821    10419    2         B$JIT.ERR=E_NHLTD;
      822    10420        /*E* ERROR:        FOM-E$NHLTD-E
      823    10421             MESSAGE:      M$SYMBIO can't continue or space a busy symbiont
      824    10422             DESCRIPTION:  A CONTINUE or SPACE M$SYMBIO PMME was issued
      825    10423                           against a symbiont which was not halted.  */
      826    10424    2         RETURN;
PL6.E3A0      #001=FOM$PMME File=FOM$MOOS.:E05TSI                                TUE 07/29/97 17:09 Page:24
      827    10425    2   BADNXTEXT:;
      828    10426    2         B$JIT.ERR=E_XTEXT;
      829    10427        /*E* ERROR:        FOM-E$XTEXT-E
      830    10428             MESSAGE:      M$SYMBIO - symbiont doesn't need another extent
      831    10429             DESCRIPTION:  Another extent was passed to a symbiont which did
      832    10430                           not need one yet. */
      833    10431    2         RETURN;
      834    10432    2   BADHLT:;
      835    10433    2         B$JIT.ERR=E_NOHLT;
      836    10434        /*E* ERROR:        FOM-E$NOHLT-E
      837    10435             MESSAGE:      M$SYMBIO can't halt a non-busy symbiont
      838    10436             DESCRIPTION:  The symbiont that the user is trying to halt is
      839    10437                           in the process of being halted (for some other
      840    10438                           reason) or disconnected.  */
      841    10439    2         RETURN;
      842    10440    2   BADCLS:;
      843    10441    2         B$JIT.ERR=E_NSCLS;
      844    10442        /*E* ERROR:        FOM-E$NSCLS-E
      845    10443             MESSAGE:      M$SYMBIO can't close or write a busy symbiont
      846    10444             DESCRIPTION:  The symbiont that the user is closing or writing
      847    10445                           is neither idle nor halted.  */
      848    10446    2         RETURN;
      849    10447    2   BAD_ALDSC:;
      850    10448    2         B$JIT.ERR = E_ALGNDSC;
      851    10449        /*E* ERROR:          FOM-E$ALGNDSC-E
      852    10450             MESSAGE:        M$SYMBIO - inopportune disconnect
      853    10451             DESCRIPTION:    The device started disconnecting.  OUTSYM won't
      854    10452                             find out about this if we are in the middle of
      855    10453                             an alignment sequence until it's too late.  This
      856    10454                             is a way to let OUTSYM know immediately. */
      857    10455    2         RETURN;
      858    10456    2   BAD_ALFPRG:;
      859    10457    2         B$JIT.ERR = E_FPABRT;
      860    10458        /*E* ERROR:          FOM-E$FPABRT-E
      861    10459             MESSAGE:        M$SYMBIO - Alignment FPRG abort
      862    10460             DESCRIPTION:    The graphics FPRG aborted.  OUTSYM won't find
      863    10461                             out about this if we are in the middle of an
PL6.E3A0      #001=FOM$PMME File=FOM$MOOS.:E05TSI                                TUE 07/29/97 17:09 Page:25
      864    10462                             alignment sequence until it's too late.  This
      865    10463                             is a way to let OUTSYM know immediately. */
      866    10464    2   END PROCIT;
      867    10465    1   BAD_EXT:;
      868    10466    1         B$JIT.ERR=E_BADEXT;
      869    10467        /*E* ERROR:        FOM-E$BADEXT-E
      870    10468             MESSAGE:      M$SYMBIO - Bad extent passed
      871    10469             DESCRIPTION:  Either the first or last granule in the passed
      872    10470                           extent did not pass FAF$SRTODR check.  */
      873    10471    1         RETURN;
      874    10472    1   NOTREMOTE:;
      875    10473    1         B$JIT.ERR=E_LOCAL;
      876    10474        /*E* ERROR:        FOM-E$LOCAL-E
      877    10475             MESSAGE:      M$SYMBIO - illegal function on local device
      878    10476             DESCRIPTION:  The function code issued with M$SYMBIO is
      879    10477                           not appropriate for a local device. */
      880    10478    1         GOTO GETOUT;
      881    10479        /**/
      882    10480    1   END FOM$PMME;
      883    10481        /**/
      884    10482        /**/
      885    10483        %EOD;

PL6.E3A0      #001=FOM$PMME File=FOM$MOOS.:E05TSI                                TUE 07/29/97 17:09 Page:26
--  Include file information  --

   CP_6_SUBS.:E05TOU  is referenced.
   TD_CP6.:E05TOU  is referenced.
   FR$RAT.:E05TOU  is referenced.
   NI$TABLES.:E05TOU  is referenced.
   KV$VDO.:E05TOU  is referenced.
   K$RWPARM.:E05TOU  is referenced.
   K_DATA_R.:E05TOU  cannot be made into a system file and is referenced.
   F$DCB.:E05TOU  cannot be made into a system file and is referenced.
   N$REQ.:E05TOU  is referenced.
   KC$CP6V_C.:E05TOU  is referenced.
   KC_CP6.:E05TOU  is referenced.
   KQ_SUBS_C.:E05TOU  is referenced.
   KQ_MAC_C.:E05TOU  is referenced.
   HF_LOCK_C.:E05TOU  cannot be made into a system file and is referenced.
   UD_SEV_C.:E05TOU  is referenced.
   FOM_DATA_R.:E05TOU  cannot be made into a system file and is referenced.
   FO_ERRORS_C.:E05TOU  is referenced.
   KC_ERRORS_C.:E05TOU  is referenced.
   UD_ERRORS_C.:E05TOU  is referenced.
   FOM_SUBS_C.:E05TOU  is referenced.
   NK_SUBS.:E05TOU  is referenced.
   KC_SUBS_C.:E05TOU  is referenced.
   JG_GHOSTS_C.:E05TOU  is referenced.
   KC_DATA_R.:E05TOU  cannot be made into a system file and is referenced.
   NK_LDCT_R.:E05TOU  cannot be made into a system file and is referenced.
   B$JIT_C.:E05TOU  is referenced.
   UM$CP6V_C.:E05TOU  is referenced.
   FOM$STRUCT.:E05TOU  is referenced.
   NK$LDCT.:E05TOU  is referenced.
      No diagnostics issued in procedure FOM$PMME.

   Procedure FOM$PMME requires 797 words for executable code.
   Procedure FOM$PMME requires 76 words of local(AUTO) storage.
PL6.E3A0      #001=FOM$PMME File=FOM$MOOS.:E05TSI                                TUE 07/29/97 17:09 Page:27

PL6.E3A0      #001=FOM$PMME File=FOM$MOOS.:E05TSI                                TUE 07/29/97 17:09 Page:28

 Object Unit name= FOM$PMME                                   File name= FOM$MOOS.:E05TOU
 UTS= JUL 29 '97 17:09:07.96 TUE                              Compiler= PL-6/E31         Sev=      00
 SharedLib= :SHARED_SYSTEM                                    Alt SharedLib=


    ****  Control sections  ****

 Sect   Type Bound  Init  Size OctSiz  Section name(segment info)
    0  RoData even  UTS     34     42  FOM$PMME
    1   Proc  even  none   797   1435  FOM$PMME
    2  RoData even  none    16     20  FOM$PMME

    ****  Entry defs  ****

                              Check   Calling
                             calling  sequence
  Sect OctLoc Primary Altret sequence   type   Parms  Name
     1      0   yes            yes      Std        1  FOM$PMME
PL6.E3A0      #001=FOM$PMME File=FOM$MOOS.:E05TSI                                TUE 07/29/97 17:09 Page:29

  ****  Entry refs  ****

         Check        Calling
        calling       sequence
Altret sequence SRef   type   Args  Name
 yes     yes           Std       2 FAF$SRTODR
         yes           Std       1 KQX$LDASR
         yes           Std       1 HFC$UNLOCK
 yes     yes           Std       1 KQP$UNLOCK
 yes     yes           Std       3 KQB$SRCH
         yes           Std       0 SSS$BLOCK
         yes           Std       1 HFC$LOCK
 yes     yes           Std       2 NKF$FORM
 yes     yes           Std       1 NKL$GETDCT
 yes     yes           Std       4 MMS$VGET
 yes     yes           Std       1 FOM$DISKQ
 yes     yes           Std       3 FOM$EVENT
 yes     yes           Std       2 MMS$VREL
 yes     yes           Std       1 NIQ$GET
 yes     yes           Std       3 FOM$TELLAU
         yes           Std       1 KCD$DACTRM
 yes     yes           Std       3 KIA$FCNOU
         yes           Std       1 FOM$WRITE
         yes           Std       1 KCD$ACTRM
 yes     yes           Std       1 NKL$RELDCT
 yes     yes           Std       1 FOM$REL
 yes     yes           Std       3 TDP$SYSCON
                       Std       0 B_CONSPOOL_D
                       nStd      0 X66_AUTO_1
                       nStd      0 X66_ARET
PL6.E3A0      #001=FOM$PMME File=FOM$MOOS.:E05TSI                                TUE 07/29/97 17:09 Page:30

  ****  Data refs  ****

  Flags:  r = read only, s = secondary
Flgs Name                             Flgs Name                             Flgs Name
     N$DCT$$                               FOM_WSQ                          r    FOSE_HLTR
r    K_RWPARM_CON                          B$JIT$                                B$PS0$
     B$PS1$                                B$PS2$                                B$PS3$
     B$PS5$                                S_CUN                                 B_VECTNIL

  ****  Segment refs  ****

  Flags:  r = read only, s = secondary
Flgs Name                             Flgs Name                             Flgs Name
     NULLSID                               ISSID
PL6.E3A0      #001=FOM$PMME File=FOM$MOOS.:E05TSI                                TUE 07/29/97 17:09 Page:31


        1        1        /*M* FOM$MOOS Monitor part of the output symbiont */
        2        2        /*T***********************************************************/
        3        3        /*T*                                                         */
        4        4        /*T* Copyright (c) Bull HN Information Systems Inc., 1997    */
        5        5        /*T*                                                         */
        6        6        /*T***********************************************************/
        7        7       /*X* DMC,PLM=6,IND=0,IDT=2,SDI=2,CTI=0,ENU=0,AND,DCI=4,CSU=2,ECU=4,THI=0,DTI=0,STI=1
                 7        ,IAD=0,PRB */
        8        8        /**/
        9        9        /*P* NAME: FOM$MOOS
       10       10             PURPOSE: To provide those output symbiont functions which,
       11       11                      for reasons of efficiency and/or nescessity,
       12       12                      must reside in the monitor
       13       13             DESCRIPTION:
       14       14                      MOOS is activated as the receiver of the M$SYMBIO
       15       15                      PMME, which currently may only be issued by the
       16       16                      OUTSYM ghost, but may be expanded in future to
       17       17                      other tasks.  MOOS bears essentially the same
       18       18                      relationship to the OUTSYM ghost as CP-V OUTSYM
       19       19                      did to RBBAT, that is, it reads symbiont files
       20       20                      passed to it by the ghost and prints them on
       21       21                      the appropriate device.
       22       22
       23       23                      In particular, when OUTSYM wants to print a file,
       24       24                      it issues an M$SYMBIO OPEN PMME, passing the
       25       25                      device name, a page for MOOS to use as disk buffer,
       26       26                      and the disk address & len of the file's first
       27       27                      extent.  MOOS then ACTIVATEs the device, obtains
       28       28                      an LDCT entry for symbiont context (linking it
       29       29                      to the device LDCT), maps OUTSYM's page into
       30       30                      its own FE page table, and commences reading
       31       31                      disk and writing granules to the appropriate place.
       32       32                      Note that granules, not records, are written, for
       33       33                      IOQ handles whole granules (on local devices), and
       34       34                      FEP handles them if the device is remote.
       35       35
PL6.E3A0      #001=FOM$PMME File=FOM$MOOS.:E05TSI                                TUE 07/29/97 17:09 Page:32
       36       36                      When MOOS exhausts an extent, it events OUTSYM for
       37       37                      another extent (actually MOOS maintains
       38       38                      a 1-deep stack of extents to eliminate latency),
       39       39                      and OUTSYM responds with a here's-the-next-extent
       40       40                      flavour of M$SYMBIO.
       41       41
       42       42        */
       43       43        /**/
       44       44        /*F* NAME:         FOM$PMME
       45       45             PURPOSE:      To service the M$SYMBIO PMME
       46       46             DESCRIPTION:  FOM$PMME is the service routine for the M$SYMBIO
       47       47                           PMME, issued by the OUTSYM ghost.
       48       48
       49       49                           The various flavours of M$SYMBIO are:
       50       50
       51       51                 OPEN      Begin printing a file on a given device.
       52       52
       53       53                 CONTINUE  Restart a halted device
       54       54
       55       55                 NXEXTENT  Provide next disk extent
       56       56
       57       57                 HALT      Suspend a device
       58       58
       59       59                 CLOSE     Shut down a halted or completed device
       60       60
       61       61                 SPACE     Start spacing operation
       62       62
       63       63                 TOKEN     Send token to remote device
       64       64
       65       65                 CHEXT     Check a disk extent
       66       66
       67       67                 WRITE     Write one record
       68       68
       69       69                 FMNT      Do forms mount
       70       70
       71       71                 INFO      Get blk#-rec# info
       72       72
PL6.E3A0      #001=FOM$PMME File=FOM$MOOS.:E05TSI                                TUE 07/29/97 17:09 Page:33
       73       73                 CHORG     Check origin (local or remote)
       74       74
       75       75
       76       76        */
       77       77        /**/
       78       78        FOM$PMME: PROC (FPTCODE);

     78  1 000000   000000 700200 xent  FOM$PMME     TSX0  ! X66_AUTO_1
         1 000001   000114 000001                    ZERO    76,1

       79       79
       80       80
       81       81
       82       82
       83       83
       84       84        /**/
       85       85        /* INCLUDES */
       86       86        /**/
       87       87        %INCLUDE NK$LDCT;
       88      189        %INCLUDE FOM$STRUCT;
       89      250        %INCLUDE UM$CP6V_C;
       90      437        %INCLUDE B$JIT_C;
       91      751        %INCLUDE NK_LDCT_R;
       92      760        %INCLUDE KC_DATA_R;
       93      773        %INCLUDE JG_GHOSTS_C;
       94      863        %INCLUDE KC_SUBS_C;
       95      879        %INCLUDE NK_SUBS;
       96      904        %INCLUDE FOM_SUBS_C;
       97      967        %INCLUDE UD_ERRORS_C;
       98     1009        %INCLUDE KC_ERRORS_C;
       99     1056        %INCLUDE FO_ERRORS_C;
      100     1088        %INCLUDE FOM_DATA_R;
      101     1337        %INCLUDE UD_SEV_C;
      102     1351        %INCLUDE HF_LOCK_C;
      103     1365        %INCLUDE KQ_MAC_C;
      104     3915        %INCLUDE KQ_SUBS_C;
      105     4215        %INCLUDE KC_CP6;
PL6.E3A0      #001=FOM$PMME File=FOM$MOOS.:E05TSI                                TUE 07/29/97 17:09 Page:34
      106     4775        %INCLUDE KC$CP6V_C;
      107     4895        %INCLUDE N$REQ;
      108     4969        %INCLUDE F$DCB;
      109     5018        %INCLUDE K_DATA_R;
      110     5729        %INCLUDE KV$VDO;
      111     6744        %INCLUDE NI$TABLES;
      112     6960        %INCLUDE FR$RAT;
      113     7013        %INCLUDE TD_CP6;
      114     7191        %INCLUDE CP_6_SUBS;
      115     7731
      116     7732
      117     7733        /**/
      118     7734        /* MACROS */
      119     7735        /**/
      120     7736        %MACRO $ERROR (NAME=GORGO,CODE=0,SEV=SEV_ERROR#);
      121     7737        DCL 1 NAME CONSTANT ALIGNED,
      122     7738              2 * BIT(18) UNAL INIT('061715'O),
      123     7739              2 * UBIN(15) UNAL INIT(CODE),
      124     7740              2 * UBIN(3) UNAL INIT(SEV);
      125     7741        %MEND;
      126     7742
      127     7743
      128     7744        /**/
      129     7745        /* PARAMETERS */
      130     7746        /**/
      131     7747    1   DCL FPTCODE UBIN WORD;
      132     7748
      133     7749
      134     7750        /**/
      135     7751        /* BASED STRUCTURES */
      136     7752        /**/
      137     7753        %KV_VDO_ALL_E;
      138     7832        %NK$LDCT;
      139     7878        %KQ_CG (FPTN=KQ$CG,STCLASS=BASED);
      140     8617        %KQ_STA (FPTN=KQ$STA,STCLASS=BASED);
      141     8956        %FOM$SYMB (NAME=FO$SYMB);
      142     8988        %FPT$SYMBIO_V (FPTN=FPT$SYMBIO_V,BASED="BASED(B$PS0$)");
PL6.E3A0      #001=FOM$PMME File=FOM$MOOS.:E05TSI                                TUE 07/29/97 17:09 Page:35
      143     8993        %VLP$SYMBEXTENT_V (FPTN=VLP$EXTENT,BASED="BASED(B$PS1$)");
      144     8996        %B$JIT0;
      145     9085        %U$JIT1X;
      146     9088        %M$JIT2X;
      147     9091        %F$JIT3;
      148     9096        %A$JIT6X;
      149     9099        %N$REQ;
      150     9157        %FOM$TABS;
      151     9160    1   DCL VLP$STATION CHAR(8) BASED(B$PS3$);
      152     9161    1   DCL VLP$FORM CHAR(6) BASED(B$PS5$);
      153     9162        /**/
      154     9163        %FR$RAT;
      155     9203        %NI$DCT (NAME=DCT,STCLASS="BASED(DCT$)");
      156     9251    1   DCL N$DCT$(0:0) PTR BASED;
      157     9252
      158     9253
      159     9254        /**/
      160     9255        /* AUTO */
      161     9256        /**/
      162     9257    1   DCL ORDER UBIN WORD;
      163     9258    1   DCL LDCT$ PTR;
      164     9259    1   DCL SYMB$ PTR;
      165     9260    1   DCL DAD UBIN WORD;
      166     9261    1   DCL SETX UBIN HALF;
      167     9262    1   DCL TEMP UBIN WORD;
      168     9263    1   DCL CG$ PTR;
      169     9264    1   DCL STA$ PTR;
      170     9265    1   DCL STALOCK UBIN;
      171     9266        %K$RWPARM (NAME=K$RWPARM,STCLASS="");
      172     9582        %FPT_SYSCON (FPTN=FPT_SYSCON,STCLASS=AUTO);
      173     9599    1   DCL RESULT SBIN;
      174     9600    1   DCL ERR SBIN;
      175     9601    1   DCL SAVEPRIV BIT(36);
      176     9602    1   DCL DCTX UBIN(36);
      177     9603    1   DCL DCT$ PTR;
      178     9604
      179     9605
PL6.E3A0      #001=FOM$PMME File=FOM$MOOS.:E05TSI                                TUE 07/29/97 17:09 Page:36
      180     9606        /**/
      181     9607        /* CONSTANT */
      182     9608        /**/
      183     9609        %$ERROR (NAME=E_NAUTH,CODE=%E$NOTAUTH);
      184     9615        %$ERROR (NAME=E_NOSTA,CODE=%E$NOSTA);
      185     9621        %$ERROR (NAME=E_BSYSY,CODE=%E$BSYSY);
      186     9627        %$ERROR (NAME=E_NHLTD,CODE=%E$NHLTD);
      187     9633        %$ERROR (NAME=E_XTEXT,CODE=%E$XTEXT);
      188     9639        %$ERROR (NAME=E_NSBLK,CODE=%E$NSBLK);
      189     9645        %$ERROR (NAME=E_NVMEM,CODE=%E$NVMEM);
      190     9651        %$ERROR (NAME=E_NSCLS,CODE=%E$NSCLS);
      191     9657        %$ERROR (NAME=E_NOHLT,CODE=%E$NOHLT);
      192     9663        %$ERROR (NAME=E_BADFC,CODE=%E$BADFC);
      193     9669        %$ERROR (NAME=E_LOCAL,CODE=%E$LOCAL);
      194     9675        %$ERROR (NAME=E_BADEXT,CODE=%E$BADEXT);
      195     9681        %$ERROR (NAME=E_ALGNDSC,CODE=%E$ALGNDSC);
      196     9687        %$ERROR (NAME=E_FPABRT,CODE=%E$FPABRT);
      197     9693        %FOM$SYMB (NAME=INITSBLK,STCLASS=CONSTANT);
      198     9725
      199     9726
      200     9727        /**/
      201     9728        /* REFS */
      202     9729        /**/
      203     9730    1   DCL B$JIT$ PTR SYMREF;
      204     9731    1   DCL B$PS0$ PTR SYMREF;
      205     9732    1   DCL B$PS1$ PTR SYMREF;
      206     9733    1   DCL B$PS2$ PTR SYMREF;
      207     9734    1   DCL B$PS3$ PTR SYMREF;
      208     9735    1   DCL B$PS4$ PTR SYMREF;
      209     9736    1   DCL B$PS5$ PTR SYMREF;
      210     9737    1   DCL S_CUN UBIN WORD SYMREF;
      211     9738    1   DCL FAF$SRTODR         ENTRY(2) ALTRET;
      212     9739    1   DCL FOM$DISKQ          ENTRY(1) ALTRET;
      213     9740    1   DCL FOM$EVENT          ENTRY(3) ALTRET;
      214     9741    1   DCL FOM$REL            ENTRY(1) ALTRET;
      215     9742    1   DCL FOM$TELLAU         ENTRY(3) ALTRET;
      216     9743    1   DCL FOM$WRITE          ENTRY(1);
PL6.E3A0      #001=FOM$PMME File=FOM$MOOS.:E05TSI                                TUE 07/29/97 17:09 Page:37
      217     9744    1   DCL KCD$ACTRM          ENTRY(1);
      218     9745    1   DCL KCD$DACTRM         ENTRY(1);
      219     9746    1   DCL KIA$FCNOU          ENTRY(3) ALTRET;
      220     9747    1   DCL KQB$SRCH           ENTRY(3) ALTRET;
      221     9748    1   DCL KQP$UNLOCK         ENTRY(1) ALTRET;
      222     9749    1   DCL KQX$LDASR          ENTRY(1);
      223     9750    1   DCL MMS$VGET           ENTRY(4) ALTRET;
      224     9751    1   DCL MMS$VREL           ENTRY(2) ALTRET;
      225     9752    1   DCL NIQ$GET            ENTRY(1) ALTRET;
      226     9753    1   DCL NKF$FORM           ENTRY(2) ALTRET;
      227     9754    1   DCL NKL$GETDCT         ENTRY(1) ALTRET;
      228     9755    1   DCL NKL$RELDCT         ENTRY(1) ALTRET;
      229     9756    1   DCL SSS$BLOCK          ENTRY;
      230     9757    1   DCL TDP$SYSCON         ENTRY(3) ALTRET;
      231     9758
      232     9759
      233     9760        /**/
      234     9761        /* SUBS */
      235     9762        /**/
      236     9763        %EQU_CG;
      237     9811        %SUB KQ$STREE="CG$->KQ$CG.STREE";
      238     9812        %EJECT;
PL6.E3A0      #001=FOM$PMME File=FOM$MOOS.:E05TSI                                TUE 07/29/97 17:09 Page:38
      239     9813    2         IF S_CUN~=JG_OUTSYM# THEN DO;

   9813  1 000002   000000 235000 xsym               LDA     S_CUN
         1 000003   000003 115007                    CMPA    3,DL
         1 000004   000011 600000 1                  TZE     s:9825

      240     9814    2           B$JIT.ERR=E_NAUTH;

   9814  1 000005   000000 236000 0                  LDQ     E_NAUTH
         1 000006   000000 470400 xsym               LDP0    B$JIT$
         1 000007   000012 756100                    STQ     10,,PR0

      241     9815        /*E* ERROR:        FOM-E$NOTAUTH-E
      242     9816             MESSAGE:      You are not permitted to use this service
      243     9817             MESSAGE1:     Only the system ghost OUTSYM may use M$SYMBIO. */
      244     9818    2           RETURN;

   9818  1 000010   000000 702200 xent               TSX2  ! X66_ARET

      245     9819    2           END;
      246     9820        /**/
      247     9821        /*       CHKEXT order here */
      248     9822        /**/
      249     9823                                      /* Validate beginning and ending
      250     9824                                         addresses of extent */
      251     9825    1         ORDER=FPT$SYMBIO_V.ORDER;

   9825  1 000011   000000 470400 xsym               LDP0    B$PS0$
         1 000012   000003 236100                    LDQ     3,,PR0
         1 000013   000022 772000                    QRL     18
         1 000014   200004 756100                    STQ     ORDER,,AUTO

      252     9826    1         IF ORDER = FOMO_CHEXT# THEN

   9826  1 000015   000007 116007                    CMPQ    7,DL
         1 000016   000057 601000 1                  TNZ     s:9840

PL6.E3A0      #001=FOM$PMME File=FOM$MOOS.:E05TSI                                TUE 07/29/97 17:09 Page:39
      253     9827    2           DO;

      254     9828    2           SETX=FPT$SYMBIO_V.SETX;

   9828  1 000017   000003 720100                    LXL0    3,,PR0
         1 000020   200010 740100                    STX0    SETX,,AUTO

      255     9829    2           DAD=VLP$EXTENT.DAD;

   9829  1 000021   000000 471400 xsym               LDP1    B$PS1$
         1 000022   100000 236100                    LDQ     0,,PR1
         1 000023   000032 376000 xsym               ANQ     B_VECTNIL+26
         1 000024   200007 756100                    STQ     DAD,,AUTO

      256     9830    2           CALL FAF$SRTODR (DAD,SETX) ALTRET(BAD_EXT);

   9830  1 000025   200010 633500                    EPPR3   SETX,,AUTO
         1 000026   200111 453500                    STP3    DCT$+7,,AUTO
         1 000027   200007 634500                    EPPR4   DAD,,AUTO
         1 000030   200110 454500                    STP4    DCT$+6,,AUTO
         1 000031   200110 630500                    EPPR0   DCT$+6,,AUTO
         1 000032   000020 631400 xsym               EPPR1   B_VECTNIL+16
         1 000033   000000 701000 xent               TSX1    FAF$SRTODR
         1 000034   001425 702000 1                  TSX2    BAD_EXT

      257     9831    2           DAD=VLP$EXTENT.DAD+VLP$EXTENT.GRANS-1;

   9831  1 000035   000000 470400 xsym               LDP0    B$PS1$
         1 000036   000000 236100                    LDQ     0,,PR0
         1 000037   000033 772000                    QRL     27
         1 000040   200110 756100                    STQ     DCT$+6,,AUTO
         1 000041   000000 236100                    LDQ     0,,PR0
         1 000042   000032 376000 xsym               ANQ     B_VECTNIL+26
         1 000043   200110 036100                    ADLQ    DCT$+6,,AUTO
         1 000044   000001 136007                    SBLQ    1,DL
         1 000045   200007 756100                    STQ     DAD,,AUTO

PL6.E3A0      #001=FOM$PMME File=FOM$MOOS.:E05TSI                                TUE 07/29/97 17:09 Page:40
      258     9832    2           CALL FAF$SRTODR (DAD,SETX) ALTRET(BAD_EXT);

   9832  1 000046   200010 631500                    EPPR1   SETX,,AUTO
         1 000047   200111 451500                    STP1    DCT$+7,,AUTO
         1 000050   200007 633500                    EPPR3   DAD,,AUTO
         1 000051   200110 453500                    STP3    DCT$+6,,AUTO
         1 000052   200110 630500                    EPPR0   DCT$+6,,AUTO
         1 000053   000020 631400 xsym               EPPR1   B_VECTNIL+16
         1 000054   000000 701000 xent               TSX1    FAF$SRTODR
         1 000055   001425 702000 1                  TSX2    BAD_EXT

      259     9833    2           RETURN;

   9833  1 000056   000000 702200 xent               TSX2  ! X66_ARET

      260     9834    2           END;
      261     9835        /**/
      262     9836        /*       FMNT order here */
      263     9837        /**/
      264     9838
      265     9839                                /* Now block to master */
      266     9840    1         CALL SSS$BLOCK;

   9840  1 000057   000002 631400 xsym               EPPR1   B_VECTNIL+2
         1 000060   000000 701000 xent               TSX1    SSS$BLOCK
         1 000061   000000 011000                    NOP     0

      267     9841    1         IF ORDER = FOMO_FMNT# THEN

   9841  1 000062   200004 235100                    LDA     ORDER,,AUTO
         1 000063   000012 115007                    CMPA    10,DL
         1 000064   000075 601000 1                  TNZ     s:9850

      268     9842    2           DO;

      269     9843    2           CALL NKF$FORM (VLP$STATION,VLP$FORM);

PL6.E3A0      #001=FOM$PMME File=FOM$MOOS.:E05TSI                                TUE 07/29/97 17:09 Page:41
   9843  1 000065   000000 236000 xsym               LDQ     B$PS5$
         1 000066   000000 235000 xsym               LDA     B$PS3$
         1 000067   200110 757100                    STAQ    DCT$+6,,AUTO
         1 000070   200110 630500                    EPPR0   DCT$+6,,AUTO
         1 000071   000020 631400 xsym               EPPR1   B_VECTNIL+16
         1 000072   000000 701000 xent               TSX1    NKF$FORM
         1 000073   000000 011000                    NOP     0

      270     9844    2           RETURN;

   9844  1 000074   000000 702200 xent               TSX2  ! X66_ARET

      271     9845    2           END;
      272     9846        /**/
      273     9847
      274     9848        /**/
      275     9849        /**/     /* Normal orders here */
      276     9850    1         STALOCK=0;

   9850  1 000075   200014 450100                    STZ     STALOCK,,AUTO

      277     9851                                      /* Get pointer to device table entry
      278     9852                                         where write is destined */
      279     9853    1         LDCT$=NK$LDCT$(B$JIT$->B$JIT.DCB$->F$DCB.LDCTX);

   9853  1 000076   000000 470400 xsym               LDP0    B$JIT$
         1 000077   000232 471500                    LDP1    154,,PR0
         1 000100   100051 220100                    LDX0    41,,PR1
         1 000101   000000 473400 xsym               LDP3    N$DCT$$
         1 000102   300000 236110                    LDQ     0,X0,PR3
         1 000103   200005 756100                    STQ     LDCT$,,AUTO

      280     9854    1         CG$=LDCT$->NK$LDCT.CG$;

   9854  1 000104   200005 474500                    LDP4    LDCT$,,AUTO
         1 000105   400027 236100                    LDQ     23,,PR4
         1 000106   200012 756100                    STQ     CG$,,AUTO
PL6.E3A0      #001=FOM$PMME File=FOM$MOOS.:E05TSI                                TUE 07/29/97 17:09 Page:42

      281     9855    1         CALL KQX$LDASR (CG$->KQ$CG);

   9855  1 000107   200012 630500                    EPPR0   CG$,,AUTO
         1 000110   000017 631400 xsym               EPPR1   B_VECTNIL+15
         1 000111   000000 701000 xent               TSX1    KQX$LDASR
         1 000112   000000 011000                    NOP     0

      282     9856              %LOCK (G=KQ$STREE.GATE);

   9857  1 000113   200012 236100                    LDQ     CG$,,AUTO
         1 000114   000075 036003                    ADLQ    61,DU
         1 000115   200110 756100                    STQ     DCT$+6,,AUTO
         1 000116   200110 630500                    EPPR0   DCT$+6,,AUTO
         1 000117   000017 631400 xsym               EPPR1   B_VECTNIL+15
         1 000120   000000 701000 xent               TSX1    HFC$LOCK
         1 000121   000000 011000                    NOP     0

      283     9859                                      /* Locate station and make sure it's
      284     9860                                         active */
      285     9861    1         CALL KQB$SRCH (KQ$STREE,VLP$STATION,STA$) ALTRET(NOSTA);

   9861  1 000122   200013 630500                    EPPR0   STA$,,AUTO
         1 000123   200112 450500                    STP0    DCT$+8,,AUTO
         1 000124   000000 236000 xsym               LDQ     B$PS3$
         1 000125   200111 756100                    STQ     DCT$+7,,AUTO
         1 000126   200012 236100                    LDQ     CG$,,AUTO
         1 000127   000075 036003                    ADLQ    61,DU
         1 000130   200110 756100                    STQ     DCT$+6,,AUTO
         1 000131   200110 630500                    EPPR0   DCT$+6,,AUTO
         1 000132   000021 631400 xsym               EPPR1   B_VECTNIL+17
         1 000133   000000 701000 xent               TSX1    KQB$SRCH
         1 000134   000160 702000 1                  TSX2    NOSTA

      286     9862                                      /* Lock station, thus preventing it
      287     9863                                         from disconnecting from COMGROUP */
      288     9864              %LOCK (G=STA$->KQ$STA.GATE);
PL6.E3A0      #001=FOM$PMME File=FOM$MOOS.:E05TSI                                TUE 07/29/97 17:09 Page:43

   9865  1 000135   200013 236100                    LDQ     STA$,,AUTO
         1 000136   000016 036003                    ADLQ    14,DU
         1 000137   200110 756100                    STQ     DCT$+6,,AUTO
         1 000140   200110 630500                    EPPR0   DCT$+6,,AUTO
         1 000141   000017 631400 xsym               EPPR1   B_VECTNIL+15
         1 000142   000000 701000 xent               TSX1    HFC$LOCK
         1 000143   000000 011000                    NOP     0

      289     9867                                      /* Get device table entry pointer from
      290     9868                                         COMGROUP station (STA$ was aquired
      291     9869                                         from call to KQB$SRCH) */
      292     9870    1         LDCT$=STA$->KQ$STA.LDCT$;

   9870  1 000144   200013 470500                    LDP0    STA$,,AUTO
         1 000145   000010 236100                    LDQ     8,,PR0
         1 000146   200005 756100                    STQ     LDCT$,,AUTO

      293     9871                                      /* Is destination a valid logical device? */
      294     9872    1         IF LDCT$ = ADDR(NIL) THEN

   9872  1 000147   000001 116000 xsym               CMPQ    B_VECTNIL+1
         1 000150   000170 601000 1                  TNZ     s:9885

      295     9873    2           DO;

   9861  1 000151                       NOSTA1       null
      296     9874    2   NOSTA1: ;
      297     9875                %UNLOCK (G=STA$->KQ$STA.GATE);

   9876  1 000151   200013 236100                    LDQ     STA$,,AUTO
         1 000152   000016 036003                    ADLQ    14,DU
         1 000153   200110 756100                    STQ     DCT$+6,,AUTO
         1 000154   200110 630500                    EPPR0   DCT$+6,,AUTO
         1 000155   000017 631400 xsym               EPPR1   B_VECTNIL+15
         1 000156   000000 701000 xent               TSX1    HFC$UNLOCK
         1 000157   000000 011000                    NOP     0
PL6.E3A0      #001=FOM$PMME File=FOM$MOOS.:E05TSI                                TUE 07/29/97 17:09 Page:44

   9876  1 000160                       NOSTA        null
      298     9878    2   NOSTA:  ;
      299     9879                %UNLOCK (G=KQ$STREE.GATE);

   9880  1 000160   200012 236100                    LDQ     CG$,,AUTO
         1 000161   000075 036003                    ADLQ    61,DU
         1 000162   200110 756100                    STQ     DCT$+6,,AUTO
         1 000163   200110 630500                    EPPR0   DCT$+6,,AUTO
         1 000164   000017 631400 xsym               EPPR1   B_VECTNIL+15
         1 000165   000000 701000 xent               TSX1    HFC$UNLOCK
         1 000166   000000 011000                    NOP     0

      300     9882    2           GOTO BAD_NAME;

   9882  1 000167   000245 710000 1                  TRA     BAD_NAME

      301     9883    2           END;
      302     9884    1         ELSE
      303     9885    1          IF (LDCT$->NK$LDCT.RESCOD ~= NK_CGTRM   AND

   9885  1 000170   200005 471500                    LDP1    LDCT$,,AUTO
         1 000171   100006 236100                    LDQ     6,,PR1
         1 000172   000017 376007                    ANQ     15,DL
         1 000173   000002 116007                    CMPQ    2,DL
         1 000174   000177 600000 1                  TZE     s:9892
         1 000175   000011 116007                    CMPQ    9,DL
         1 000176   000151 601000 1                  TNZ     NOSTA1

      304     9886    1          LDCT$->NK$LDCT.RESCOD ~= NK_CGFPRG) THEN
      305     9887    1           GOTO NOSTA1;
      306     9888                                      /* COMGROUP stations were locked (above)
      307     9889                                         so they cannot be disconnected until
      308     9890                                         we allow it.  LOCKCNT tells if we
      309     9891                                         will allow disconnect. */
      310     9892    1         STA$->KQ$STA.LOCKCNT=STA$->KQ$STA.LOCKCNT+1;

PL6.E3A0      #001=FOM$PMME File=FOM$MOOS.:E05TSI                                TUE 07/29/97 17:09 Page:45
   9892  1 000177   000020 236100                    LDQ     16,,PR0
         1 000200   000001 036007                    ADLQ    1,DL
         1 000201   000020 552104                    STBQ    16,'04'O,PR0

      311     9893                                      /* STALOCK=1 means stations are unlocked */
      312     9894    1         STALOCK=1;

   9894  1 000202   000001 235007                    LDA     1,DL
         1 000203   200014 755100                    STA     STALOCK,,AUTO

      313     9895              %UNLOCK (G=STA$->KQ$STA.GATE);

   9896  1 000204   200013 236100                    LDQ     STA$,,AUTO
         1 000205   000016 036003                    ADLQ    14,DU
         1 000206   200110 756100                    STQ     DCT$+6,,AUTO
         1 000207   200110 630500                    EPPR0   DCT$+6,,AUTO
         1 000210   000017 631400 xsym               EPPR1   B_VECTNIL+15
         1 000211   000000 701000 xent               TSX1    HFC$UNLOCK
         1 000212   000000 011000                    NOP     0

      314     9898              %UNLOCK (G=KQ$STREE.GATE);

   9899  1 000213   200012 236100                    LDQ     CG$,,AUTO
         1 000214   000075 036003                    ADLQ    61,DU
         1 000215   200110 756100                    STQ     DCT$+6,,AUTO
         1 000216   200110 630500                    EPPR0   DCT$+6,,AUTO
         1 000217   000017 631400 xsym               EPPR1   B_VECTNIL+15
         1 000220   000000 701000 xent               TSX1    HFC$UNLOCK
         1 000221   000000 011000                    NOP     0

      315     9901        /**/
      316     9902        /*       CHORG order here */
      317     9903        /**/
      318     9904    1         IF ORDER = FOMO_CHORG# THEN

   9904  1 000222   200004 235100                    LDA     ORDER,,AUTO
         1 000223   000014 115007                    CMPA    12,DL
PL6.E3A0      #001=FOM$PMME File=FOM$MOOS.:E05TSI                                TUE 07/29/97 17:09 Page:46
         1 000224   000232 601000 1                  TNZ     s:9915

      319     9905    2           DO;

      320     9906    2           IF LDCT$->NK$LDCT.DFLG.LOCAL THEN GOTO NOTREMOTE;

   9906  1 000225   200005 470500                    LDP0    LDCT$,,AUTO
         1 000226   000006 236100                    LDQ     6,,PR0
         1 000227   002000 316007                    CANQ    1024,DL
         1 000230   001431 601000 1                  TNZ     NOTREMOTE

      321     9907                                      /* Unlock if necessary (shouldn't be
      322     9908                                         at this point) and return */
      323     9909    2           GOTO GETOUT;

   9909  1 000231   000250 710000 1                  TRA     GETOUT

      324     9910    2           END;
      325     9911                                /* IF WE FIND IT AND IT'S MARKED SYMBIONT
      326     9912                                   (I.E. HE'S ALREADY OPENED IT VIA M$SYMBIO),
      327     9913                                   THEN PICK UP THE POINTER TO THE SYMBIONT
      328     9914                                   CONTEXT BLK. */
      329     9915    1         IF LDCT$->NK$LDCT.DFLG.SYMBIONT THEN

   9915  1 000232   200005 470500                    LDP0    LDCT$,,AUTO
         1 000233   000006 236100                    LDQ     6,,PR0
         1 000234   020000 316007                    CANQ    8192,DL
         1 000235   000241 600000 1                  TZE     s:9918

      330     9916    1          SYMB$=LDCT$->NK$LDCT.SYMB$;

   9916  1 000236   000000 236100                    LDQ     0,,PR0
         1 000237   200006 756100                    STQ     SYMB$,,AUTO
         1 000240   000257 710000 1                  TRA     s:9934

      331     9917    1         ELSE              /* ELSE THIS BETTER BE AN OPEN PMME */
      332     9918    1          IF (ORDER ~= FOMO_SOPEN# AND ORDER ~= FOMO_LOAD#) THEN
PL6.E3A0      #001=FOM$PMME File=FOM$MOOS.:E05TSI                                TUE 07/29/97 17:09 Page:47

   9918  1 000241   000000 115003                    CMPA    0,DU
         1 000242   000257 600000 1                  TZE     s:9934
         1 000243   000015 115007                    CMPA    13,DL
         1 000244   000257 600000 1                  TZE     s:9934

      333     9919    2            DO;

      334     9920    2   BAD_NAME:;

   9920  1 000245                       BAD_NAME     null
      335     9921    2            B$JIT.ERR=E_NOSTA;

   9921  1 000245   000001 236000 0                  LDQ     E_NOSTA
         1 000246   000000 470400 xsym               LDP0    B$JIT$
         1 000247   000012 756100                    STQ     10,,PR0

   9921  1 000250                       GETOUT       null
      336     9922        /*E* ERROR:        FOM-E$NOSTA-E
      337     9923             MESSAGE:      M$SYMBIO can't find that device
      338     9924             DESCRIPTION:  The STATION specified on M$SYMBIO was either not
      339     9925                           found on the OSCG, or was found but was not
      340     9926                           symbiont. */
      341     9927    2   GETOUT:  ;
      342     9928    2            IF STALOCK ~= 0 THEN CALL KQP$UNLOCK (STA$->KQ$STA);

   9928  1 000250   200014 235100                    LDA     STALOCK,,AUTO
         1 000251   000256 600000 1                  TZE     s:9929

   9928  1 000252   200013 630500                    EPPR0   STA$,,AUTO
         1 000253   000017 631400 xsym               EPPR1   B_VECTNIL+15
         1 000254   000000 701000 xent               TSX1    KQP$UNLOCK
         1 000255   000000 011000                    NOP     0

      343     9929    2            RETURN;

   9929  1 000256   000000 702200 xent               TSX2  ! X66_ARET
PL6.E3A0      #001=FOM$PMME File=FOM$MOOS.:E05TSI                                TUE 07/29/97 17:09 Page:48

      344     9930    2            END;
      345     9931        /* NOW WE'RE STATISFIED THAT ALL IS COOL.  WE HAVE THE POINTER TO
      346     9932           THE DEVICE'S LDCT, AND THE POINTER TO THE SYMB CONTEXT BLK IF
      347     9933           THERE IS ONE (I.E. IF THE THING IS ALREADY OPEN AS SYMBIONT). */
      348     9934    1         CALL PROCIT ALTRET(BAD_NAME);

   9934  1 000257   000262 701000 1                  TSX1    PROCIT
         1 000260   000245 702000 1                  TSX2    BAD_NAME

      349     9935    1         GOTO GETOUT;

   9935  1 000261   000250 710000 1                  TRA     GETOUT

      350     9936    1   PROCIT: PROC ALTRET;

   9936  1 000262   200104 741300       PROCIT       STX1  ! DCT$+2,,AUTO

      351     9937        /***
      352     9938         ***
      353     9939         ***
      354     9940         ***     DO CASE FOR M$SYMBIO FUNCTION CODE
      355     9941         ***
      356     9942         ***
      357     9943         ***/
      358     9944
      359     9945    3           DO CASE (ORDER);

   9945  1 000263   200004 235100                    LDA     ORDER,,AUTO
         1 000264   000016 115007                    CMPA    14,DL
         1 000265   000267 602005 1                  TNC     s:9945+4,AL
         1 000266   001340 710000 1                  TRA     s:10390
         1 000267   000305 710000 1                  TRA     s:9957
         1 000270   000715 710000 1                  TRA     s:10181
         1 000271   000523 710000 1                  TRA     DOCONT
         1 000272   001120 710000 1                  TRA     s:10273
         1 000273   001227 710000 1                  TRA     s:10349
PL6.E3A0      #001=FOM$PMME File=FOM$MOOS.:E05TSI                                TUE 07/29/97 17:09 Page:49
         1 000274   000467 710000 1                  TRA     s:10055
         1 000275   001007 710000 1                  TRA     s:10227
         1 000276   001340 710000 1                  TRA     s:10390
         1 000277   000517 710000 1                  TRA     s:10071
         1 000300   001132 710000 1                  TRA     s:10289
         1 000301   001340 710000 1                  TRA     s:10390
         1 000302   001213 710000 1                  TRA     s:10334
         1 000303   001340 710000 1                  TRA     s:10390
         1 000304   000305 710000 1                  TRA     s:9957

      360     9946        /**
      361     9947         **
      362     9948         **
      363     9949         **      SYMBIONT OPEN
      364     9950         **
      365     9951         **
      366     9952         **/
      367     9953    3             CASE (FOMO_SOPEN#,FOMO_LOAD#);

      368     9954
      369     9955                                     /* LDCT$ is device table entry pointer
      370     9956                                        (for COMGROUP station) */
      371     9957    3               IF LDCT$->NK$LDCT.DFLG.SYMBIONT

   9957  1 000305   200005 470500                    LDP0    LDCT$,,AUTO
         1 000306   000006 236100                    LDQ     6,,PR0
         1 000307   020000 316007                    CANQ    8192,DL
         1 000310   000316 601000 1                  TNZ     s:9961
         1 000311   000011 236100                    LDQ     9,,PR0
         1 000312   000040 316003                    CANQ    32,DU
         1 000313   000323 600000 1                  TZE     s:9969
         1 000314   000000 115003                    CMPA    0,DU
         1 000315   000323 601000 1                  TNZ     s:9969

      372     9958    3               OR (LDCT$->NK$LDCT.LKFLG.ACTIVE AND (ORDER = FOMO_SOPEN#))
      373     9959    3               THEN
      374     9960    4                 DO;      /* ALREADY ACTIVE ON THIS DEVICE */
PL6.E3A0      #001=FOM$PMME File=FOM$MOOS.:E05TSI                                TUE 07/29/97 17:09 Page:50

      375     9961    4                 B$JIT.ERR=E_BSYSY;

   9961  1 000316   000002 236000 0                  LDQ     E_BSYSY
         1 000317   000000 471400 xsym               LDP1    B$JIT$
         1 000320   100012 756100                    STQ     10,,PR1

      376     9962        /*E* ERROR:        FOM-E$BSYSY-E
      377     9963             MESSAGE:      M$SYMBIO can't open a busy symbiont
      378     9964             DESCRIPTION:  The symbiont that the user is trying to open
      379     9965                           is already open.  */
      380     9966    4                 RETURN;

   9966  1 000321   200104 221300                    LDX1  ! DCT$+2,,AUTO
         1 000322   000001 702211                    TSX2  ! 1,X1

      381     9967    4                 END;
      382     9968                           /* ELSE GET A SYMB CONTEXT BLK */
      383     9969    3               CALL NKL$GETDCT (SYMB$) ALTRET(NODCTS);

   9969  1 000323   200006 631500                    EPPR1   SYMB$,,AUTO
         1 000324   200110 451500                    STP1    DCT$+6,,AUTO
         1 000325   200110 630500                    EPPR0   DCT$+6,,AUTO
         1 000326   000017 631400 xsym               EPPR1   B_VECTNIL+15
         1 000327   000000 701000 xent               TSX1    NKL$GETDCT
         1 000330   001362 702000 1                  TSX2    NODCTS

      384     9970                                /* PICK UP LDCTX OF NEW ENTRY */
      385     9971    3               TEMP=SYMB$->NK$LDCT.LDCTX;

   9971  1 000331   200006 470500                    LDP0    SYMB$,,AUTO
         1 000332   000006 236100                    LDQ     6,,PR0
         1 000333   000022 772000                    QRL     18
         1 000334   200011 756100                    STQ     TEMP,,AUTO

      386     9972                                /* BLAST OUT THE TABLE POINTER TO IT */
      387     9973    3               NK$LDCT$(TEMP)=ADDR(NIL);
PL6.E3A0      #001=FOM$PMME File=FOM$MOOS.:E05TSI                                TUE 07/29/97 17:09 Page:51

   9973  1 000335   000001 236000 xsym               LDQ     B_VECTNIL+1
         1 000336   000000 471400 xsym               LDP1    N$DCT$$
         1 000337   200011 720100                    LXL0    TEMP,,AUTO
         1 000340   100000 756110                    STQ     0,X0,PR1

      388     9974                                /* INITIALIZE IT W/ SYMB CONTEXT INIT */
      389     9975    3               SYMB$->FO$SYMB=INITSBLK;

   9975  1 000341   200006 470500                    LDP0    SYMB$,,AUTO
         1 000342   000100 100400                    MLR     fill='000'O
         1 000343   000016 000120 0                  ADSC9   INITSBLK                 cn=0,n=80
         1 000344   000000 000120                    ADSC9   0,,PR0                   cn=0,n=80

      390     9976                                /* REMEMBER ITS OWN LDCTX */
      391     9977                                      /* Save LDCTX for restoration (later) */
      392     9978    3               SYMB$->FO$SYMB.LDCTX=TEMP;

   9978  1 000345   200006 470500                    LDP0    SYMB$,,AUTO
         1 000346   200011 236100                    LDQ     TEMP,,AUTO
         1 000347   000022 736000                    QLS     18
         1 000350   000010 676100                    ERQ     8,,PR0
         1 000351   077777 376003                    ANQ     32767,DU
         1 000352   000010 656100                    ERSQ    8,,PR0

      393     9979                                /* REMEMBER DEVICE LDCT INDEX */
      394     9980    3               SYMB$->FO$SYMB.DEVLDCTX=LDCT$->NK$LDCT.LDCTX;

   9980  1 000353   200005 471500                    LDP1    LDCT$,,AUTO
         1 000354   100006 221100                    LDX1    6,,PR1
         1 000355   000010 441100                    SXL1    8,,PR0

      395     9981                                      /* B$PS2$ is the 2nd parameter and contains
      396     9982                                         the pointer to OUTSYMs granule. I think
      397     9983                                         this call maps the OUTSYM granule into
      398     9984                                         the FEP page table.  This table refer-
      399     9985                                         ences areas of the FEP Working Storage
PL6.E3A0      #001=FOM$PMME File=FOM$MOOS.:E05TSI                                TUE 07/29/97 17:09 Page:52
      400     9986                                         Quarter, which gets accessed by the
      401     9987                                         FEP deblocker */
      402     9988    3               CALL MMS$VGET (FOM_WSQ,B$PS2$,4096,

   9988  1 000356   200006 236100                    LDQ     SYMB$,,AUTO
         1 000357   000002 036003                    ADLQ    2,DU
         1 000360   000001 235000 2                  LDA     1
         1 000361   200112 757100                    STAQ    DCT$+8,,AUTO
         1 000362   000002 237000 2                  LDAQ    2
         1 000363   200110 757100                    STAQ    DCT$+6,,AUTO
         1 000364   200110 630500                    EPPR0   DCT$+6,,AUTO
         1 000365   000022 631400 xsym               EPPR1   B_VECTNIL+18
         1 000366   000000 701000 xent               TSX1    MMS$VGET
         1 000367   000454 702000 1                  TSX2    NOMEM1

      403     9989    3               SYMB$->FO$SYMB.BUF$) ALTRET(NOMEM1);
      404     9990                                /* IF THE TERMINAL DISCONNECTED, REL THE
      405     9991                                   SYMB CNTXT BLK AND ERROR THE USER */
      406     9992                    %LOCK (G=STA$->KQ$STA.GATE);

   9993  1 000370   200013 236100                    LDQ     STA$,,AUTO
         1 000371   000016 036003                    ADLQ    14,DU
         1 000372   200110 756100                    STQ     DCT$+6,,AUTO
         1 000373   200110 630500                    EPPR0   DCT$+6,,AUTO
         1 000374   000017 631400 xsym               EPPR1   B_VECTNIL+15
         1 000375   000000 701000 xent               TSX1    HFC$LOCK
         1 000376   000000 011000                    NOP     0

      407     9995                                      /* IDSC means initiate disconnect */
      408     9996    3               IF STA$->KQ$STA.IDSC THEN

   9996  1 000377   200013 470500                    LDP0    STA$,,AUTO
         1 000400   000020 234100                    SZN     16,,PR0
         1 000401   000425 605000 1                  TPL     s:10025

      409     9997    4                 DO;

PL6.E3A0      #001=FOM$PMME File=FOM$MOOS.:E05TSI                                TUE 07/29/97 17:09 Page:53
      410     9998    4                 CALL MMS$VREL(FOM_WSQ,SYMB$->FO$SYMB.BUF$);

   9998  1 000402   200006 236100                    LDQ     SYMB$,,AUTO
         1 000403   000002 036003                    ADLQ    2,DU
         1 000404   000002 235000 2                  LDA     2
         1 000405   200110 757100                    STAQ    DCT$+6,,AUTO
         1 000406   200110 630500                    EPPR0   DCT$+6,,AUTO
         1 000407   000020 631400 xsym               EPPR1   B_VECTNIL+16
         1 000410   000000 701000 xent               TSX1    MMS$VREL
         1 000411   000000 011000                    NOP     0

      411     9999    4                 CALL RELSYMB;

   9999  1 000412   001345 701000 1                  TSX1    RELSYMB
         1 000413   000000 011000                    NOP     0

      412    10000                      %UNLOCK (G=STA$->KQ$STA.GATE);

  10001  1 000414   200013 236100                    LDQ     STA$,,AUTO
         1 000415   000016 036003                    ADLQ    14,DU
         1 000416   200110 756100                    STQ     DCT$+6,,AUTO
         1 000417   200110 630500                    EPPR0   DCT$+6,,AUTO
         1 000420   000017 631400 xsym               EPPR1   B_VECTNIL+15
         1 000421   000000 701000 xent               TSX1    HFC$UNLOCK
         1 000422   000000 011000                    NOP     0

   9998  1 000423                       ALTRT        null
      413    10003    4   ALTRT:        ;
      414    10004    4                 ALTRETURN;

  10004  1 000423   200104 221300                    LDX1  ! DCT$+2,,AUTO
         1 000424   000000 702211                    TSX2  ! 0,X1

      415    10005    4                 END;
      416    10006                                /* OTHERWISE, POINT THE TERMINAL LDCT AT
      417    10007                                  THE SYMB CNTXT BLK, AND MARK IT AS
      418    10008                                  OPENED-SYMBIONT */
PL6.E3A0      #001=FOM$PMME File=FOM$MOOS.:E05TSI                                TUE 07/29/97 17:09 Page:54
      419    10009    3               ELSE
      420    10010    4                 DO;

      421    10011                                      /* At this stage, LDCT$ points to the
      422    10012                                         COMGROUP station's LDCT.  Assign the
      423    10013                                         the symbiont context block pointer
      424    10014                                         to SYMB$ in the output device's LDCT,
      425    10015                                         make the device a symbiont device, and
      426    10016                                         allow this symbiont device to discon-
      427    10017                                         nect from the COMGROUP.
      428    10018                                         NOTE: MOOS participates in COMGROUP
      429    10019                                         disconnects of symbiont devices. The
      430    10020                                         reason for the gate lock (above) is
      431    10021                                         so the device cannot disconnect until
      432    10022                                         all of the proper flags are set (these
      433    10023                                         flags inform the   COMGROUP that MOOS
      434    10024                                         must be called upon disconnect). */
      435    10025    4                 LDCT$->NK$LDCT.SYMB$=SYMB$;

  10025  1 000425   200006 236100                    LDQ     SYMB$,,AUTO
         1 000426   200005 471500                    LDP1    LDCT$,,AUTO
         1 000427   100000 756100                    STQ     0,,PR1

      436    10026    4                 LDCT$->NK$LDCT.DFLG.SYMBIONT='1'B;

  10026  1 000430   020000 236007                    LDQ     8192,DL
         1 000431   100006 256100                    ORSQ    6,,PR1

      437    10027                      %UNLOCK (G=STA$->KQ$STA.GATE);

  10028  1 000432   200013 236100                    LDQ     STA$,,AUTO
         1 000433   000016 036003                    ADLQ    14,DU
         1 000434   200110 756100                    STQ     DCT$+6,,AUTO
         1 000435   200110 630500                    EPPR0   DCT$+6,,AUTO
         1 000436   000017 631400 xsym               EPPR1   B_VECTNIL+15
         1 000437   000000 701000 xent               TSX1    HFC$UNLOCK
         1 000440   000000 011000                    NOP     0
PL6.E3A0      #001=FOM$PMME File=FOM$MOOS.:E05TSI                                TUE 07/29/97 17:09 Page:55

      438    10030    4                 END;

      439    10031                                /* ACTIVATE THE DEVICE */
      440    10032    3               IF ORDER = FOMO_SOPEN#

  10032  1 000441   200004 235100                    LDA     ORDER,,AUTO
         1 000442   000447 601000 1                  TNZ     s:10038

      441    10033    3               THEN
      442    10034    3                CALL KCD$ACTRM (LDCT$->NK$LDCT);

  10034  1 000443   200005 630500                    EPPR0   LDCT$,,AUTO
         1 000444   000017 631400 xsym               EPPR1   B_VECTNIL+15
         1 000445   000000 701000 xent               TSX1    KCD$ACTRM
         1 000446   000000 011000                    NOP     0

      443    10035                                /* MERGE IN DISK SETX */
      444    10036                                      /* Assign packset where symbiont granule
      445    10037                                         resides */
      446    10038    3               SYMB$->FO$SYMB.SETX=FPT$SYMBIO_V.SETX;

  10038  1 000447   000000 470400 xsym               LDP0    B$PS0$
         1 000450   000003 720100                    LXL0    3,,PR0
         1 000451   200006 471500                    LDP1    SYMB$,,AUTO
         1 000452   100012 740100                    STX0    10,,PR1

      447    10039                                /* FROM NOW ON, IT'S JUST LIKE A CONTINUE
      448    10040                                   OF A HALTED SYMBIONT */
      449    10041    3               GOTO CONTINUE;

  10041  1 000453   000546 710000 1                  TRA     CONTINUE

  10038  1 000454                       NOMEM1       null
      450    10042    3   NOMEM1:     ;
      451    10043    3               SYMB$->NK$LDCT.LDCTX=SYMB$->FO$SYMB.LDCTX;

PL6.E3A0      #001=FOM$PMME File=FOM$MOOS.:E05TSI                                TUE 07/29/97 17:09 Page:56
  10043  1 000454   200006 470500                    LDP0    SYMB$,,AUTO
         1 000455   000010 220100                    LDX0    8,,PR0
         1 000456   077777 360003                    ANX0    32767,DU
         1 000457   000006 740100                    STX0    6,,PR0

      452    10044    3               CALL NKL$RELDCT (SYMB$);

  10044  1 000460   200006 630500                    EPPR0   SYMB$,,AUTO
         1 000461   200110 450500                    STP0    DCT$+6,,AUTO
         1 000462   200110 630500                    EPPR0   DCT$+6,,AUTO
         1 000463   000017 631400 xsym               EPPR1   B_VECTNIL+15
         1 000464   000000 701000 xent               TSX1    NKL$RELDCT
         1 000465   000000 011000                    NOP     0

      453    10045    3               GOTO NOMEM2;

  10045  1 000466   000711 710000 1                  TRA     NOMEM2

      454    10046        /**
      455    10047         **
      456    10048         **
      457    10049         **      START SPACING SYMBIONT (FROM HALT)
      458    10050         **
      459    10051         **
      460    10052         **/
      461    10053    3             CASE (FOMO_SSPAC#);

      462    10054
      463    10055    3               SYMB$->FO$SYMB.SPACETYPE=0;

  10055  1 000467   200006 470500                    LDP0    SYMB$,,AUTO
         1 000470   000004 236000 2                  LDQ     4
         1 000471   000012 356100                    ANSQ    10,,PR0

  10055  1 000472                       DOSPACE      null
      464    10056    3   DOSPACE:    ;
      465    10057    3               IF SYMB$->FO$SYMB.TAB$ = ADDR(NIL) THEN
PL6.E3A0      #001=FOM$PMME File=FOM$MOOS.:E05TSI                                TUE 07/29/97 17:09 Page:57

  10057  1 000472   200006 470500                    LDP0    SYMB$,,AUTO
         1 000473   000000 236100                    LDQ     0,,PR0
         1 000474   000001 116000 xsym               CMPQ    B_VECTNIL+1
         1 000475   000516 601000 1                  TNZ     s:10067

      466    10058    4                 DO;

      467    10059    4                 CALL NKL$GETDCT(SYMB$->FO$SYMB.TAB$) ALTRET(NODCTS);

  10059  1 000476   200006 630500                    EPPR0   SYMB$,,AUTO
         1 000477   000017 631400 xsym               EPPR1   B_VECTNIL+15
         1 000500   000000 701000 xent               TSX1    NKL$GETDCT
         1 000501   001362 702000 1                  TSX2    NODCTS

      468    10060    4                 TEMP=SYMB$->FO$SYMB.TAB$->NK$LDCT.LDCTX;

  10060  1 000502   200006 470500                    LDP0    SYMB$,,AUTO
         1 000503   000000 471500                    LDP1    0,,PR0
         1 000504   100006 236100                    LDQ     6,,PR1
         1 000505   000022 772000                    QRL     18
         1 000506   200011 756100                    STQ     TEMP,,AUTO

      469    10061    4                 NK$LDCT$(TEMP)=ADDR(NIL);

  10061  1 000507   000001 236000 xsym               LDQ     B_VECTNIL+1
         1 000510   000000 473400 xsym               LDP3    N$DCT$$
         1 000511   200011 720100                    LXL0    TEMP,,AUTO
         1 000512   300000 756110                    STQ     0,X0,PR3

      470    10062    4                 SYMB$->FO$SYMB.TAB$->FO$TABS.LDCTX=TEMP;

  10062  1 000513   200006 470500                    LDP0    SYMB$,,AUTO
         1 000514   000000 471500                    LDP1    0,,PR0
         1 000515   100000 740100                    STX0    0,,PR1

      471    10063    4                 END;
PL6.E3A0      #001=FOM$PMME File=FOM$MOOS.:E05TSI                                TUE 07/29/97 17:09 Page:58

      472    10064                                      /* Go reactivate the device and map the
      473    10065                                         OUTSYM granule in the FEP WSQ.  If
      474    10066                                         ORDER = write, then start writing */
      475    10067    3               GOTO DOCONT;

  10067  1 000516   000523 710000 1                  TRA     DOCONT

      476    10068
      477    10069    3             CASE (FOMO_SSBLK#);

      478    10070
      479    10071    3               SYMB$->FO$SYMB.SPACETYPE=1;

  10071  1 000517   200006 470500                    LDP0    SYMB$,,AUTO
         1 000520   020000 236007                    LDQ     8192,DL
         1 000521   000012 256100                    ORSQ    10,,PR0

      480    10072    3               GOTO DOSPACE;

  10072  1 000522   000472 710000 1                  TRA     DOSPACE

      481    10073        /**
      482    10074         **
      483    10075         **
      484    10076         **      SYMBIONT CONTINUE (FROM HALT)
      485    10077         **
      486    10078         **
      487    10079         **/
      488    10080
      489    10081                                /* THE SYMBIONT CONTEXT BLOCK IS STILL
      490    10082                                   THERE BUT ALL OTHER STUFF WAS RELEASED
      491    10083                                   WHEN WE HALTED, SO IT MUST BE
      492    10084                                   RE-ACQUIRED. */
      493    10085
      494    10086    3             CASE (FOMO_SCONT#);

PL6.E3A0      #001=FOM$PMME File=FOM$MOOS.:E05TSI                                TUE 07/29/97 17:09 Page:59
  10072  1 000523                       DOCONT       null
      495    10087
      496    10088    3   DOCONT:     ;
      497    10089                                /* MAKE SURE IT'S HALTED, AND IF SO, SET IT
      498    10090                                   BUSY */
      499    10091                                      /* Reactivate the device and map the
      500    10092                                         OUTSYM granule into the FEP WSQ.  If
      501    10093                                         ORDER = write, then commence writing */
      502    10094    4                 DO INHIBIT;

      503    10095    4                 IF SYMB$->FO$SYMB.STATE~=FOMS_HELD# THEN GOTO BADCNT;

  10095  1 000523   200006 470700                    LDP0  ! SYMB$,,AUTO
         1 000524   000012 236300                    LDQ   ! 10,,PR0
         1 000525   000017 376207                    ANQ   ! 15,DL
         1 000526   000005 116207                    CMPQ  ! 5,DL
         1 000527   001367 601200 1                  TNZ   ! BADCNT

      504    10096    4                 SYMB$->FO$SYMB.STATE=FOMS_ACTV#;

  10096  1 000530   000012 236300                    LDQ   ! 10,,PR0
         1 000531   000005 376200 2                  ANQ   ! 5
         1 000532   000006 276207                    ORQ   ! 6,DL
         1 000533   000012 756300                    STQ   ! 10,,PR0

      505    10097    4                 END;

      506    10098    3               CALL MMS$VGET (FOM_WSQ,B$PS2$,4096,

  10098  1 000534   200006 236100                    LDQ     SYMB$,,AUTO
         1 000535   000002 036003                    ADLQ    2,DU
         1 000536   000001 235000 2                  LDA     1
         1 000537   200112 757100                    STAQ    DCT$+8,,AUTO
         1 000540   000002 237000 2                  LDAQ    2
         1 000541   200110 757100                    STAQ    DCT$+6,,AUTO
         1 000542   200110 630500                    EPPR0   DCT$+6,,AUTO
         1 000543   000022 631400 xsym               EPPR1   B_VECTNIL+18
PL6.E3A0      #001=FOM$PMME File=FOM$MOOS.:E05TSI                                TUE 07/29/97 17:09 Page:60
         1 000544   000000 701000 xent               TSX1    MMS$VGET
         1 000545   000700 702000 1                  TSX2    NOMEM

      507    10099    3               SYMB$->FO$SYMB.BUF$) ALTRET(NOMEM);

  10099  1 000546                       CONTINUE     null
      508    10100
      509    10101        /* COME HERE TO CONTINUE */
      510    10102    3   CONTINUE:   ;
      511    10103
      512    10104                                      /* A number of IOQ packets are assigned
      513    10105                                         in TIGR. This call pulls the 1st one
      514    10106                                         off the free list and returns a pointer
      515    10107                                         to it. */
      516    10108    3               CALL NIQ$GET (SYMB$->FO$SYMB.IOQ$);

  10108  1 000546   200006 236100                    LDQ     SYMB$,,AUTO
         1 000547   000001 036003                    ADLQ    1,DU
         1 000550   200110 756100                    STQ     DCT$+6,,AUTO
         1 000551   200110 630500                    EPPR0   DCT$+6,,AUTO
         1 000552   000017 631400 xsym               EPPR1   B_VECTNIL+15
         1 000553   000000 701000 xent               TSX1    NIQ$GET
         1 000554   000000 011000                    NOP     0

      517    10109
      518    10110    3               SYMB$->FO$SYMB.IOQ$->N$REQ.NOALT='1'B;

  10110  1 000555   200006 470500                    LDP0    SYMB$,,AUTO
         1 000556   000001 471500                    LDP1    1,,PR0
         1 000557   100000 236007                    LDQ     32768,DL
         1 000560   100004 256100                    ORSQ    4,,PR1

      519    10111                                      /* Assign pointer to symbiont context blk */
      520    10112    3               SYMB$->FO$SYMB.IOQ$->N$REQ.EAINFOP$=SYMB$;

  10112  1 000561   200006 470500                    LDP0    SYMB$,,AUTO
         1 000562   000001 471500                    LDP1    1,,PR0
PL6.E3A0      #001=FOM$PMME File=FOM$MOOS.:E05TSI                                TUE 07/29/97 17:09 Page:61
         1 000563   200006 236100                    LDQ     SYMB$,,AUTO
         1 000564   100024 756100                    STQ     20,,PR1

      521    10113                                      /* Assign pointer to OUTSYMs granule,
      522    10114                                         which was mapped into the FEP WSQ
      523    10115                                         (above). */
      524    10116    3               SYMB$->FO$SYMB.IOQ$->N$REQ.BUF$=SYMB$->FO$SYMB.BUF$;

  10116  1 000565   000001 471500                    LDP1    1,,PR0
         1 000566   000002 236100                    LDQ     2,,PR0
         1 000567   100005 756100                    STQ     5,,PR1

      525    10117                                /* PICK UP USER-PASSED BLK-REC */
      526    10118                                      /* Assign the block-rec where we are
      527    10119                                         to commence printing */
      528    10120    3               SYMB$->FO$SYMB.BR=FPT$SYMBIO_V.BLKREC;

  10120  1 000570   000000 470400 xsym               LDP0    B$PS0$
         1 000571   000006 236100                    LDQ     6,,PR0
         1 000572   200006 471500                    LDP1    SYMB$,,AUTO
         1 000573   100003 756100                    STQ     3,,PR1

      529    10121    3               IF FPT$SYMBIO_V.BLKREC.BLK = 0 AND

  10121  1 000574   000006 220100                    LDX0    6,,PR0
         1 000575   000603 601000 1                  TNZ     s:10125
         1 000576   000006 721100                    LXL1    6,,PR0
         1 000577   000001 101003                    CMPX1   1,DU
         1 000600   000603 601000 1                  TNZ     s:10125

      530    10122    3               FPT$SYMBIO_V.BLKREC.REC = 1 THEN
      531    10123    3                SYMB$ -> FO$SYMB.PGDONE = 0;

  10123  1 000601   200006 471500                    LDP1    SYMB$,,AUTO
         1 000602   100013 450100                    STZ     11,,PR1

      532    10124                                      /* Allow for "Q"ing of next extent */
PL6.E3A0      #001=FOM$PMME File=FOM$MOOS.:E05TSI                                TUE 07/29/97 17:09 Page:62
      533    10125    3               SYMB$->FO$SYMB.NXTEXT='0'B;

  10125  1 000603   200006 471500                    LDP1    SYMB$,,AUTO
         1 000604   100006 450100                    STZ     6,,PR1
         1 000605   100007 450100                    STZ     7,,PR1

      534    10126                                /* BREAK OUT IF WRITE ORDER */
      535    10127    3               IF ORDER = FOMO_WRITE# THEN GOTO DOWRITE;

  10127  1 000606   200004 235100                    LDA     ORDER,,AUTO
         1 000607   000011 115007                    CMPA    9,DL
         1 000610   001136 600000 1                  TZE     DOWRITE

      536    10128    3               SYMB$->FO$SYMB.CUREXT=VLP$EXTENT;

  10128  1 000611   200006 471500                    LDP1    SYMB$,,AUTO
         1 000612   000000 473400 xsym               LDP3    B$PS1$
         1 000613   300000 237100                    LDAQ    0,,PR3
         1 000614   100004 755100                    STA     4,,PR1
         1 000615   100005 756100                    STQ     5,,PR1

      537    10129                                /* ASK FOR NEXT EXTENT */
      538    10130    3               IF SYMB$->FO$SYMB.CUREXT THEN

  10130  1 000616   200006 471500                    LDP1    SYMB$,,AUTO
         1 000617   000000 106500                    CMPC    fill='000'O
         1 000620   100004 000010                    ADSC9   4,,PR1                   cn=0,n=8
         1 000621   000002 000002 xsym               ADSC9   B_VECTNIL+2              cn=0,n=2
         1 000622   000634 600000 1                  TZE     s:10134

      539    10131                                      /* Ask OUTSYM for next extent */
      540    10132    3                CALL FOM$TELLAU (SYMB$->FO$SYMB,%CG_SFEXT#,0);

  10132  1 000623   000007 236000 2                  LDQ     7
         1 000624   200112 756100                    STQ     DCT$+8,,AUTO
         1 000625   000010 236000 2                  LDQ     8
         1 000626   200006 235100                    LDA     SYMB$,,AUTO
PL6.E3A0      #001=FOM$PMME File=FOM$MOOS.:E05TSI                                TUE 07/29/97 17:09 Page:63
         1 000627   200110 757100                    STAQ    DCT$+6,,AUTO
         1 000630   200110 630500                    EPPR0   DCT$+6,,AUTO
         1 000631   000021 631400 xsym               EPPR1   B_VECTNIL+17
         1 000632   000000 701000 xent               TSX1    FOM$TELLAU
         1 000633   000000 011000                    NOP     0

      541    10133                                /* QUEUE THE NEXT DISK READ */
      542    10134    3               IF  ORDER = FOMO_SSPAC#

  10134  1 000634   200004 235100                    LDA     ORDER,,AUTO
         1 000635   000005 115007                    CMPA    5,DL
         1 000636   000641 600000 1                  TZE     s:10137
         1 000637   000010 115007                    CMPA    8,DL
         1 000640   000672 601000 1                  TNZ     s:10150

      543    10135    3               OR ORDER = FOMO_SSBLK# THEN
      544    10136    4                 DO;

      545    10137    4                 IF SYMB$->FO$SYMB.BR='0'B

  10137  1 000641   200006 470500                    LDP0    SYMB$,,AUTO
         1 000642   000003 235100                    LDA     3,,PR0
         1 000643   000646 601000 1                  TNZ     s:10142

      546    10138    4                 THEN
      547    10139    5                   DO;

      548    10140    5                   SYMB$->FO$SYMB.XMVFU='1'B;

  10140  1 000644   000020 236007                    LDQ     16,DL
         1 000645   000012 256100                    ORSQ    10,,PR0

      549    10141    5                   END;

      550    10142    4                 SYMB$->FO$SYMB.SPACING='1'B;

  10142  1 000646   040000 236007                    LDQ     16384,DL
PL6.E3A0      #001=FOM$PMME File=FOM$MOOS.:E05TSI                                TUE 07/29/97 17:09 Page:64
         1 000647   000012 256100                    ORSQ    10,,PR0

      551    10143    4                 SYMB$->FO$SYMB.SPACEPAGES=FPT$SYMBIO_V.SPACEPAGES;

  10143  1 000650   000000 471400 xsym               LDP1    B$PS0$
         1 000651   100005 720100                    LXL0    5,,PR1
         1 000652   000011 740100                    STX0    9,,PR0

      552    10144    4                 SYMB$->FO$SYMB.SPACEREC#=FPT$SYMBIO_V.SPACEREC;

  10144  1 000653   100012 236100                    LDQ     10,,PR1
         1 000654   000011 736000                    QLS     9
         1 000655   000011 552110                    STBQ    9,'10'O,PR0

      553    10145    4                 SYMB$->FO$SYMB.PAGES=FPT$SYMBIO_V.PAGES;

  10145  1 000656   100004 236100                    LDQ     4,,PR1
         1 000657   000014 736000                    QLS     12
         1 000660   000012 676100                    ERQ     10,,PR0
         1 000661   010000 376007                    ANQ     4096,DL
         1 000662   000012 656100                    ERSQ    10,,PR0

      554    10146    4                 SYMB$->FO$SYMB.CPVFC=FPT$SYMBIO_V.CPVFC;

  10146  1 000663   100004 236100                    LDQ     4,,PR1
         1 000664   000004 736000                    QLS     4
         1 000665   000012 676100                    ERQ     10,,PR0
         1 000666   000040 376007                    ANQ     32,DL
         1 000667   000012 656100                    ERSQ    10,,PR0

      555    10147    4                 SYMB$->FO$SYMB.FIRSTSPACE='1'B;

  10147  1 000670   000200 236007                    LDQ     128,DL
         1 000671   000012 256100                    ORSQ    10,,PR0

      556    10148    4                 END;

PL6.E3A0      #001=FOM$PMME File=FOM$MOOS.:E05TSI                                TUE 07/29/97 17:09 Page:65
      557    10149                                      /* Put next extent on disk queue */
      558    10150    3               CALL FOM$DISKQ (SYMB$->FO$SYMB);

  10150  1 000672   200006 630500                    EPPR0   SYMB$,,AUTO
         1 000673   000017 631400 xsym               EPPR1   B_VECTNIL+15
         1 000674   000000 701000 xent               TSX1    FOM$DISKQ
         1 000675   000000 011000                    NOP     0

      559    10151    3               RETURN;

  10151  1 000676   200104 221300                    LDX1  ! DCT$+2,,AUTO
         1 000677   000001 702211                    TSX2  ! 1,X1

  10144  1 000700                       NOMEM        null
      560    10152                                /* NO VIRTUAL MEMORY TO MAP BUFFER */
      561    10153    3   NOMEM:      ;
      562    10154                                /* CHANGE STATE TO HELD, AND OUTSYM WILL
      563    10155                                   TRY LATER */
      564    10156    3               CALL FOM$EVENT(SYMB$->FO$SYMB,FOSE_HLTR,FOHR_NMEM#)

  10156  1 000700   000011 236000 2                  LDQ     9
         1 000701   200112 756100                    STQ     DCT$+8,,AUTO
         1 000702   000012 236000 2                  LDQ     10
         1 000703   200006 235100                    LDA     SYMB$,,AUTO
         1 000704   200110 757100                    STAQ    DCT$+6,,AUTO
         1 000705   200110 630500                    EPPR0   DCT$+6,,AUTO
         1 000706   000021 631400 xsym               EPPR1   B_VECTNIL+17
         1 000707   000000 701000 xent               TSX1    FOM$EVENT
         1 000710   001367 702000 1                  TSX2    BADCNT

  10156  1 000711                       NOMEM2       null
      565    10157    3               ALTRET (BADCNT);
      566    10158    3   NOMEM2:     ;
      567    10159    3               B$JIT.ERR=E_NVMEM;

  10159  1 000711   000006 236000 0                  LDQ     E_NVMEM
         1 000712   000000 470400 xsym               LDP0    B$JIT$
PL6.E3A0      #001=FOM$PMME File=FOM$MOOS.:E05TSI                                TUE 07/29/97 17:09 Page:66
         1 000713   000012 756100                    STQ     10,,PR0
         1 000714   001343 710000 1                  TRA     s:10397

      568    10160        /*E* ERROR:        FOM-E$NVMEM-E
      569    10161             MESSAGE:      No virtual map space for output symbiont
      570    10162             DESCRIPTION:  Each OPEN or CONTINUE M$SYMBIO requires a page
      571    10163                           in the appropriate FEWSQ map, for the symbiont
      572    10164                           disc buffer.  This error occurs when the space
      573    10165                           is not available.  On an OPEN, the error results
      574    10166                           in a failed open; on a CONTINUE (or SPACE) the
      575    10167                           error results in the symbiont being left in state
      576    10168                           HELD.   */
      577    10169        /**
      578    10170         **
      579    10171         **
      580    10172         **      PASSING NEXT EXTENT
      581    10173         **
      582    10174         **
      583    10175         **/
      584    10176
      585    10177    3             CASE (FOMO_NXEXT#);

      586    10178
      587    10179                                      /* Get the output devices pointer to
      588    10180                                         the symbiont context block */
      589    10181    3               SYMB$=LDCT$->NK$LDCT.SYMB$;

  10181  1 000715   200005 470500                    LDP0    LDCT$,,AUTO
         1 000716   000000 236100                    LDQ     0,,PR0
         1 000717   200006 756100                    STQ     SYMB$,,AUTO

      590    10182    3               IF SYMB$->FO$SYMB.NXTEXT~='0'B THEN GOTO BADNXTEXT;

  10182  1 000720   200006 471500                    LDP1    SYMB$,,AUTO
         1 000721   000000 106500                    CMPC    fill='000'O
         1 000722   100006 000010                    ADSC9   6,,PR1                   cn=0,n=8
         1 000723   000002 000002 xsym               ADSC9   B_VECTNIL+2              cn=0,n=2
PL6.E3A0      #001=FOM$PMME File=FOM$MOOS.:E05TSI                                TUE 07/29/97 17:09 Page:67
         1 000724   001374 601000 1                  TNZ     BADNXTEXT

      591    10183
      592    10184    4                 DO INHIBIT;

      593    10185                                      /* Are we currently processing an extent? */
      594    10186    4                 IF SYMB$->FO$SYMB.CUREXT THEN

  10186  1 000725   000000 106700                    CMPC  ! fill='000'O
         1 000726   100004 000010                    ADSC9   4,,PR1                   cn=0,n=8
         1 000727   000002 000002 xsym               ADSC9   B_VECTNIL+2              cn=0,n=2
         1 000730   000753 600200 1                  TZE   ! s:10199

      595    10187    5                   DO;

      596    10188    5                   SYMB$->FO$SYMB.NXTEXT=VLP$EXTENT;

  10188  1 000731   000000 473600 xsym               LDP3  ! B$PS1$
         1 000732   300000 237300                    LDAQ  ! 0,,PR3
         1 000733   100006 755300                    STA   ! 6,,PR1
         1 000734   100007 756300                    STQ   ! 7,,PR1

      597    10189                                /* PRE-ADJUST FOR INCR/DECR IN FOM$NXDISK */
      598    10190                                      /* Adjust the file relative disk address */
      599    10191    5                   IF SYMB$->FO$SYMB.SPACING AND SYMB$->FO$SYMB.SPACEPAGES < 0

  10191  1 000735   200006 471700                    LDP1  ! SYMB$,,AUTO
         1 000736   100012 236300                    LDQ   ! 10,,PR1
         1 000737   040000 316207                    CANQ  ! 16384,DL
         1 000740   000747 600200 1                  TZE   ! s:10193
         1 000741   100011 220300                    LDX0  ! 9,,PR1
         1 000742   000747 605200 1                  TPL   ! s:10193

      600    10192    5                   THEN SYMB$->FO$SYMB.NXTEXT.STAMP.FRDAD=SYMB$->FO$SYMB.NXTEXT.STAMP.
             10192                            FRDAD+1;

  10192  1 000743   100007 236300                    LDQ   ! 7,,PR1
PL6.E3A0      #001=FOM$PMME File=FOM$MOOS.:E05TSI                                TUE 07/29/97 17:09 Page:68
         1 000744   000001 036207                    ADLQ  ! 1,DL
         1 000745   100007 552304                    STBQ  ! 7,'04'O,PR1
         1 000746   001006 710200 1                  TRA   ! s:10215

      601    10193    5                   ELSE SYMB$->FO$SYMB.NXTEXT.STAMP.FRDAD=SYMB$->FO$SYMB.NXTEXT.STAMP.
             10193                            FRDAD-1;

  10193  1 000747   100007 236300                    LDQ   ! 7,,PR1
         1 000750   000777 036207                    ADLQ  ! 511,DL
         1 000751   100007 552304                    STBQ  ! 7,'04'O,PR1

      602    10194    5                   END;

  10194  1 000752   001006 710200 1                  TRA   ! s:10215

      603    10195    4                 ELSE
      604    10196                                      /* Otherwise we don't have an extent, grab
      605    10197                                         this one and put it in CUREXT */
      606    10198    5                   DO;

      607    10199    5                   SYMB$->FO$SYMB.CUREXT=VLP$EXTENT;

  10199  1 000753   000000 473600 xsym               LDP3  ! B$PS1$
         1 000754   300000 237300                    LDAQ  ! 0,,PR3
         1 000755   100004 755300                    STA   ! 4,,PR1
         1 000756   100005 756300                    STQ   ! 5,,PR1

      608    10200                                /* IF WE'RE IDLE WAITING FOR GRANULES,
      609    10201                                   CRANK UP THE NEXT READ */
      610    10202    5                   IF SYMB$->FO$SYMB.STATE=FOMS_IDLE# THEN

  10202  1 000757   200006 471700                    LDP1  ! SYMB$,,AUTO
         1 000760   100012 236300                    LDQ   ! 10,,PR1
         1 000761   000017 316207                    CANQ  ! 15,DL
         1 000762   000773 601200 1                  TNZ   ! s:10210

      611    10203    6                     DO;
PL6.E3A0      #001=FOM$PMME File=FOM$MOOS.:E05TSI                                TUE 07/29/97 17:09 Page:69

      612    10204    6                     SYMB$->FO$SYMB.STATE=FOMS_ACTV#;

  10204  1 000763   000005 376200 2                  ANQ   ! 5
         1 000764   000006 276207                    ORQ   ! 6,DL
         1 000765   100012 756300                    STQ   ! 10,,PR1

      613    10205    6                     CALL FOM$DISKQ (SYMB$->FO$SYMB);

  10205  1 000766   200006 630700                    EPPR0 ! SYMB$,,AUTO
         1 000767   000017 631600 xsym               EPPR1 ! B_VECTNIL+15
         1 000770   000000 701200 xent               TSX1  ! FOM$DISKQ
         1 000771   000000 011200                    NOP   ! 0

      614    10206    6                     END;

  10206  1 000772   001006 710200 1                  TRA   ! s:10215

      615    10207    5                   ELSE
      616    10208    6                     DO;

      617    10209                                /* PRE-ADJUST FOR INCR/DECR IN FOM$NXDISK */
      618    10210    6                     IF SYMB$->FO$SYMB.SPACING AND SYMB$->FO$SYMB.SPACEPAGES < 0

  10210  1 000773   040000 316207                    CANQ  ! 16384,DL
         1 000774   001003 600200 1                  TZE   ! s:10212
         1 000775   100011 220300                    LDX0  ! 9,,PR1
         1 000776   001003 605200 1                  TPL   ! s:10212

      619    10211    6                    THEN SYMB$->FO$SYMB.CUREXT.STAMP.FRDAD=SYMB$->FO$SYMB.CUREXT.STAMP
             10211                              .FRDAD+1;

  10211  1 000777   100005 236300                    LDQ   ! 5,,PR1
         1 001000   000001 036207                    ADLQ  ! 1,DL
         1 001001   100005 552304                    STBQ  ! 5,'04'O,PR1
         1 001002   001006 710200 1                  TRA   ! s:10215

PL6.E3A0      #001=FOM$PMME File=FOM$MOOS.:E05TSI                                TUE 07/29/97 17:09 Page:70
      620    10212    6                    ELSE SYMB$->FO$SYMB.CUREXT.STAMP.FRDAD=SYMB$->FO$SYMB.CUREXT.STAMP
             10212                              .FRDAD-1;

  10212  1 001003   100005 236300                    LDQ   ! 5,,PR1
         1 001004   000777 036207                    ADLQ  ! 511,DL
         1 001005   100005 552304                    STBQ  ! 5,'04'O,PR1

      621    10213    6                     END;

      622    10214    5                   END;

      623    10215    4                 END;

  10215  1 001006   001343 710000 1                  TRA     s:10397

      624    10216        /**
      625    10217         **
      626    10218         **
      627    10219         **      SEND SYMBIONT TOKEN
      628    10220         **
      629    10221         **
      630    10222         **/
      631    10223    3             CASE (FOMO_STOKN#);

      632    10224
      633    10225                                      /* FEX = 0 means not remote */
      634    10226    4                 DO INHIBIT;

      635    10227    4                 IF SYMB$ -> FO$SYMB.EFLGB.IDSC

  10227  1 001007   200006 470700                    LDP0  ! SYMB$,,AUTO
         1 001010   000012 236300                    LDQ   ! 10,,PR0
         1 001011   000400 316207                    CANQ  ! 256,DL
         1 001012   001413 601200 1                  TNZ   ! BAD_ALDSC
         1 001013   000012 236300                    LDQ   ! 10,,PR0
         1 001014   000017 376207                    ANQ   ! 15,DL
         1 001015   000004 116207                    CMPQ  ! 4,DL
PL6.E3A0      #001=FOM$PMME File=FOM$MOOS.:E05TSI                                TUE 07/29/97 17:09 Page:71
         1 001016   001413 600200 1                  TZE   ! BAD_ALDSC

      636    10228    4                 OR SYMB$ -> FO$SYMB.STATE = FOMS_DCMP#
      637    10229    4                 THEN
      638    10230    4                  GOTO BAD_ALDSC;
      639    10231
      640    10232    4                 IF SYMB$ -> FO$SYMB.FPABRT = '1'B

  10232  1 001017   000021 430300                    FSZN  ! 17,,PR0
         1 001020   001420 604200 1                  TMI   ! BAD_ALFPRG

      641    10233    4                 THEN
      642    10234    4                  GOTO BAD_ALFPRG;
      643    10235    4                 IF LDCT$->NK$LDCT.DFLG.LOCAL THEN

  10235  1 001021   200005 471700                    LDP1  ! LDCT$,,AUTO
         1 001022   100006 236300                    LDQ   ! 6,,PR1
         1 001023   002000 316207                    CANQ  ! 1024,DL
         1 001024   001037 600200 1                  TZE   ! s:10238

      644    10236    4                  CALL FOM$TELLAU (SYMB$->FO$SYMB,%CG_STOKN#,0);

  10236  1 001025   000007 236200 2                  LDQ   ! 7
         1 001026   200112 756300                    STQ   ! DCT$+8,,AUTO
         1 001027   000014 236200 2                  LDQ   ! 12
         1 001030   200006 235300                    LDA   ! SYMB$,,AUTO
         1 001031   200110 757300                    STAQ  ! DCT$+6,,AUTO
         1 001032   200110 630700                    EPPR0 ! DCT$+6,,AUTO
         1 001033   000021 631600 xsym               EPPR1 ! B_VECTNIL+17
         1 001034   000000 701200 xent               TSX1  ! FOM$TELLAU
         1 001035   000000 011200                    NOP   ! 0
         1 001036   001105 710200 1                  TRA   ! s:10254

      645    10237    5                 ELSE DO;

      646    10238    5                   K$RWPARM = K_RWPARM_CON;

PL6.E3A0      #001=FOM$PMME File=FOM$MOOS.:E05TSI                                TUE 07/29/97 17:09 Page:72
  10238  1 001037   000100 100600                    MLR   ! fill='000'O
         1 001040   000000 000234 xsym               ADSC9   K_RWPARM_CON             cn=0,n=156
         1 001041   200016 000234                    ADSC9   K$RWPARM,,AUTO           cn=0,n=156

      647    10239    5                   K$RWPARM.MRKTYP = %KV_VDOMRKTYP_MRK;

  10239  1 001042   003000 236207                    LDQ   ! 1536,DL
         1 001043   200056 552310                    STBQ  ! K$RWPARM+32,'10'O,AUTO

      648    10240                        %LOCK(G=LDCT$->NK$LDCT.LOCK);

  10241  1 001044   200005 236300                    LDQ   ! LDCT$,,AUTO
         1 001045   000020 036203                    ADLQ  ! 16,DU
         1 001046   200110 756300                    STQ   ! DCT$+6,,AUTO
         1 001047   200110 630700                    EPPR0 ! DCT$+6,,AUTO
         1 001050   000017 631600 xsym               EPPR1 ! B_VECTNIL+15
         1 001051   000000 701200 xent               TSX1  ! HFC$LOCK
         1 001052   000000 011200                    NOP   ! 0

      649    10243    5                   CALL KIA$FCNOU (LDCT$->NK$LDCT,%KV_VDO_FNC_RQSMRK,K$RWPARM)

  10243  1 001053   200016 630700                    EPPR0 ! K$RWPARM,,AUTO
         1 001054   200112 450700                    STP0  ! DCT$+8,,AUTO
         1 001055   000016 236200 2                  LDQ   ! 14
         1 001056   200005 235300                    LDA   ! LDCT$,,AUTO
         1 001057   200110 757300                    STAQ  ! DCT$+6,,AUTO
         1 001060   200110 630700                    EPPR0 ! DCT$+6,,AUTO
         1 001061   000021 631600 xsym               EPPR1 ! B_VECTNIL+17
         1 001062   000000 701200 xent               TSX1  ! KIA$FCNOU
         1 001063   001065 702200 1                  TSX2  ! s:10246
         1 001064   001076 710200 1                  TRA   ! s:10251

      650    10244    6                   WHENALTRETURN DO;

      651    10245                          %UNLOCK (G=LDCT$->NK$LDCT.LOCK);

  10246  1 001065   200005 236300                    LDQ   ! LDCT$,,AUTO
PL6.E3A0      #001=FOM$PMME File=FOM$MOOS.:E05TSI                                TUE 07/29/97 17:09 Page:73
         1 001066   000020 036203                    ADLQ  ! 16,DU
         1 001067   200110 756300                    STQ   ! DCT$+6,,AUTO
         1 001070   200110 630700                    EPPR0 ! DCT$+6,,AUTO
         1 001071   000017 631600 xsym               EPPR1 ! B_VECTNIL+15
         1 001072   000000 701200 xent               TSX1  ! HFC$UNLOCK
         1 001073   000000 011200                    NOP   ! 0

      652    10248    6                     ALTRETURN;

  10248  1 001074   200104 221300                    LDX1  ! DCT$+2,,AUTO
         1 001075   000000 702211                    TSX2  ! 0,X1

      653    10249    6                     END;
      654    10250                        %UNLOCK(G=LDCT$->NK$LDCT.LOCK);

  10251  1 001076   200005 236300                    LDQ   ! LDCT$,,AUTO
         1 001077   000020 036203                    ADLQ  ! 16,DU
         1 001100   200110 756300                    STQ   ! DCT$+6,,AUTO
         1 001101   200110 630700                    EPPR0 ! DCT$+6,,AUTO
         1 001102   000017 631600 xsym               EPPR1 ! B_VECTNIL+15
         1 001103   000000 701200 xent               TSX1  ! HFC$UNLOCK
         1 001104   000000 011200                    NOP   ! 0

      655    10253    5                   END;

      656    10254    4                 IF SYMB$ -> FO$SYMB.EFLGB.IDSC

  10254  1 001105   200006 470700                    LDP0  ! SYMB$,,AUTO
         1 001106   000012 236300                    LDQ   ! 10,,PR0
         1 001107   000400 316207                    CANQ  ! 256,DL
         1 001110   001413 601200 1                  TNZ   ! BAD_ALDSC
         1 001111   000012 236300                    LDQ   ! 10,,PR0
         1 001112   000017 376207                    ANQ   ! 15,DL
         1 001113   000004 116207                    CMPQ  ! 4,DL
         1 001114   001413 600200 1                  TZE   ! BAD_ALDSC

      657    10255    4                 OR SYMB$ -> FO$SYMB.STATE = FOMS_DCMP#
PL6.E3A0      #001=FOM$PMME File=FOM$MOOS.:E05TSI                                TUE 07/29/97 17:09 Page:74
      658    10256    4                 THEN
      659    10257    4                  GOTO BAD_ALDSC;
      660    10258
      661    10259    4                 IF SYMB$ -> FO$SYMB.FPABRT = '1'B

  10259  1 001115   000021 430300                    FSZN  ! 17,,PR0
         1 001116   001420 604200 1                  TMI   ! BAD_ALFPRG

      662    10260    4                 THEN
      663    10261    4                  GOTO BAD_ALFPRG;
      664    10262    4                 END;

  10262  1 001117   001343 710000 1                  TRA     s:10397

      665    10263        /**
      666    10264         **
      667    10265         **
      668    10266         **      SYMBIONT HALT
      669    10267         **
      670    10268         **
      671    10269         **/
      672    10270
      673    10271    3             CASE (FOMO_SHALT#);

      674    10272
      675    10273    3               CALL FOM$EVENT (SYMB$->FO$SYMB,FOSE_HLTR,FOHR_OUTS#) ALTRET(BADHLT);

  10273  1 001120   000017 236000 2                  LDQ     15
         1 001121   200112 756100                    STQ     DCT$+8,,AUTO
         1 001122   000012 236000 2                  LDQ     10
         1 001123   200006 235100                    LDA     SYMB$,,AUTO
         1 001124   200110 757100                    STAQ    DCT$+6,,AUTO
         1 001125   200110 630500                    EPPR0   DCT$+6,,AUTO
         1 001126   000021 631400 xsym               EPPR1   B_VECTNIL+17
         1 001127   000000 701000 xent               TSX1    FOM$EVENT
         1 001130   001401 702000 1                  TSX2    BADHLT
         1 001131   001343 710000 1                  TRA     s:10397
PL6.E3A0      #001=FOM$PMME File=FOM$MOOS.:E05TSI                                TUE 07/29/97 17:09 Page:75

      676    10274        /**
      677    10275         **
      678    10276         **
      679    10277         **      WRITE ONE RECORD OR GRANULE
      680    10278         **
      681    10279         **
      682    10280         **/
      683    10281
      684    10282                      /* THE INFORMATION TO BE WRITTEN IS EITHER A RECORD
      685    10283                         DESCRIBED BY THE RECORD_ VECTOR WHICH FRAMES
      686    10284                         A VLP_SYMBWRITE VLP, OR, IF RECORD_ IS NILERASE,
      687    10285                         A WHOLE GRANULE, LIVING IN THE SYMBIONT BUFFER. */
      688    10286    3             CASE (FOMO_WRITE#);

      689    10287
      690    10288    4                 DO INHIBIT;

      691    10289    4                 IF SYMB$->FO$SYMB.STATE = FOMS_IDLE# THEN

  10289  1 001132   200006 470700                    LDP0  ! SYMB$,,AUTO
         1 001133   000012 236300                    LDQ   ! 10,,PR0
         1 001134   000017 316207                    CANQ  ! 15,DL
         1 001135   001175 601200 1                  TNZ   ! s:10308

      692    10290    5                   DO;

  10261  1 001136                       DOWRITE      null
      693    10291    5   DOWRITE:        ;
      694    10292                                      /* Set device state in symbiont cntxt blk */
      695    10293    5                   SYMB$->FO$SYMB.STATE=FOMS_DKIO#;

  10293  1 001136   200006 470700                    LDP0  ! SYMB$,,AUTO
         1 001137   000012 236300                    LDQ   ! 10,,PR0
         1 001140   000005 376200 2                  ANQ   ! 5
         1 001141   000002 276207                    ORQ   ! 2,DL
         1 001142   000012 756300                    STQ   ! 10,,PR0
PL6.E3A0      #001=FOM$PMME File=FOM$MOOS.:E05TSI                                TUE 07/29/97 17:09 Page:76

      696    10294                                      /* Acknowledgement requested? */
      697    10295    5                   IF FPT$SYMBIO_V.ACK THEN SYMB$->FO$SYMB.ACK='1'B;

  10295  1 001143   000000 471600 xsym               LDP1  ! B$PS0$
         1 001144   100004 236300                    LDQ   ! 4,,PR1
         1 001145   000004 316207                    CANQ  ! 4,DL
         1 001146   001152 600200 1                  TZE   ! s:10296

  10295  1 001147   100000 236203                    LDQ   ! 32768,DU
         1 001150   000010 256300                    ORSQ  ! 8,,PR0
         1 001151   001162 710200 1                  TRA   ! s:10304

      698    10296    5                   ELSE IF FPT$SYMBIO_V.TOKEN THEN

  10296  1 001152   000010 316207                    CANQ  ! 8,DL
         1 001153   001162 600200 1                  TZE   ! s:10304

      699    10297    6                      DO;

      700    10298                                      /* If it's not a remote write, let token
      701    10299                                         be assigned */
      702    10300    6                      IF LDCT$->NK$LDCT.DFLG.LOCAL THEN SYMB$->FO$SYMB.TOKEN='1'B;

  10300  1 001154   200005 473700                    LDP3  ! LDCT$,,AUTO
         1 001155   300006 236300                    LDQ   ! 6,,PR3
         1 001156   002000 316207                    CANQ  ! 1024,DL
         1 001157   001162 600200 1                  TZE   ! s:10304

  10300  1 001160   200000 236203                    LDQ   ! 65536,DU
         1 001161   000010 256300                    ORSQ  ! 8,,PR0

      703    10301    6                      END;

      704    10302                                /* ZAP CUREXT */
      705    10303                                      /* MOOS no longer has a current extent */
      706    10304    5                   SYMB$->FO$SYMB.CUREXT='0'B;
PL6.E3A0      #001=FOM$PMME File=FOM$MOOS.:E05TSI                                TUE 07/29/97 17:09 Page:77

  10304  1 001162   000004 450300                    STZ   ! 4,,PR0
         1 001163   000005 450300                    STZ   ! 5,,PR0

      707    10305    5                   CALL FOM$WRITE (SYMB$->FO$SYMB.IOQ$->N$REQ);

  10305  1 001164   200006 470700                    LDP0  ! SYMB$,,AUTO
         1 001165   000001 473700                    LDP3  ! 1,,PR0
         1 001166   200110 453700                    STP3  ! DCT$+6,,AUTO
         1 001167   200110 630700                    EPPR0 ! DCT$+6,,AUTO
         1 001170   000017 631600 xsym               EPPR1 ! B_VECTNIL+15
         1 001171   000000 701200 xent               TSX1  ! FOM$WRITE
         1 001172   000000 011200                    NOP   ! 0

      708    10306    5                   RETURN;

  10306  1 001173   200104 221300                    LDX1  ! DCT$+2,,AUTO
         1 001174   000001 702211                    TSX2  ! 1,X1

      709    10307    5                   END;
      710    10308    4                 IF SYMB$->FO$SYMB.STATE = FOMS_HELD# THEN GOTO DOCONT;

  10308  1 001175   000012 236300                    LDQ   ! 10,,PR0
         1 001176   000017 376207                    ANQ   ! 15,DL
         1 001177   000005 116207                    CMPQ  ! 5,DL
         1 001200   000523 600200 1                  TZE   ! DOCONT

      711    10309                                                     /**/
      712    10310                                      /* If device disconnected it could
      713    10311                                         mess up an alignment sequence,
      714    10312                                         don't let it. */
      715    10313                                                     /**/
      716    10314    4                 IF SYMB$ -> FO$SYMB.EFLGB.IDSC

  10314  1 001201   000012 236300                    LDQ   ! 10,,PR0
         1 001202   000400 316207                    CANQ  ! 256,DL
         1 001203   001413 601200 1                  TNZ   ! BAD_ALDSC
PL6.E3A0      #001=FOM$PMME File=FOM$MOOS.:E05TSI                                TUE 07/29/97 17:09 Page:78
         1 001204   000012 236300                    LDQ   ! 10,,PR0
         1 001205   000017 376207                    ANQ   ! 15,DL
         1 001206   000004 116207                    CMPQ  ! 4,DL
         1 001207   001413 600200 1                  TZE   ! BAD_ALDSC

      717    10315    4                 OR SYMB$ -> FO$SYMB.STATE = FOMS_DCMP#
      718    10316    4                 THEN
      719    10317    4                  GOTO BAD_ALDSC;
      720    10318
      721    10319    4                 IF SYMB$ -> FO$SYMB.FPABRT = '1'B

  10319  1 001210   000021 430300                    FSZN  ! 17,,PR0
         1 001211   001420 604200 1                  TMI   ! BAD_ALFPRG

      722    10320    4                 THEN
      723    10321    4                  GOTO BAD_ALFPRG;
      724    10322                                                     /**/
      725    10323    4                 END;

      726    10324    3               GOTO BADCLS;

  10324  1 001212   001406 710000 1                  TRA     BADCLS

      727    10325        /**
      728    10326         **
      729    10327         **
      730    10328         **      GET SYMBIONT BLKREC INFO
      731    10329         **
      732    10330         **
      733    10331         **/
      734    10332    3             CASE (FOMO_INFO#);

      735    10333
      736    10334    3               FPT$SYMBIO_V.BLKREC=SYMB$->FO$SYMB.BR;

  10334  1 001213   200006 470500                    LDP0    SYMB$,,AUTO
         1 001214   000003 236100                    LDQ     3,,PR0
PL6.E3A0      #001=FOM$PMME File=FOM$MOOS.:E05TSI                                TUE 07/29/97 17:09 Page:79
         1 001215   000000 471400 xsym               LDP1    B$PS0$
         1 001216   100006 756100                    STQ     6,,PR1

      737    10335    3               FPT$SYMBIO_V.PGDONE=SYMB$ -> FO$SYMB.PGDONE;

  10335  1 001217   200006 470500                    LDP0    SYMB$,,AUTO
         1 001220   000013 235100                    LDA     11,,PR0
         1 001221   100007 755100                    STA     7,,PR1

      738    10336    3               FPT$SYMBIO_V.THROTTLE_TIME=SYMB$ -> FO$SYMB.THROTTLE_TIME;

  10336  1 001222   000016 235100                    LDA     14,,PR0
         1 001223   100010 755100                    STA     8,,PR1

      739    10337    3               FPT$SYMBIO_V.THROTTLE_CNT=SYMB$ -> FO$SYMB.THROTTLE_CNT;

  10337  1 001224   000017 235100                    LDA     15,,PR0
         1 001225   100011 755100                    STA     9,,PR1
         1 001226   001343 710000 1                  TRA     s:10397

      740    10338        /**
      741    10339         **
      742    10340         **
      743    10341         **      SYMBIONT CLOSE
      744    10342         **
      745    10343         **
      746    10344         **/
      747    10345
      748    10346    3             CASE (FOMO_SCLOS#);

      749    10347
      750    10348    4                 DO INHIBIT;

      751    10349    4                 IF SYMB$ -> FO$SYMB.EFLGB.IDSC

  10349  1 001227   200006 470700                    LDP0  ! SYMB$,,AUTO
         1 001230   000012 236300                    LDQ   ! 10,,PR0
PL6.E3A0      #001=FOM$PMME File=FOM$MOOS.:E05TSI                                TUE 07/29/97 17:09 Page:80
         1 001231   000400 316207                    CANQ  ! 256,DL
         1 001232   001413 601200 1                  TNZ   ! BAD_ALDSC
         1 001233   000012 236300                    LDQ   ! 10,,PR0
         1 001234   000017 376207                    ANQ   ! 15,DL
         1 001235   000004 116207                    CMPQ  ! 4,DL
         1 001236   001413 600200 1                  TZE   ! BAD_ALDSC

      752    10350    4                 OR SYMB$ -> FO$SYMB.STATE = FOMS_DCMP#
      753    10351    4                 THEN
      754    10352    4                  GOTO BAD_ALDSC;
      755    10353    4                 IF  SYMB$->FO$SYMB.STATE~=FOMS_IDLE#

  10353  1 001237   000012 236300                    LDQ   ! 10,,PR0
         1 001240   000017 316207                    CANQ  ! 15,DL
         1 001241   001246 600200 1                  TZE   ! s:10355
         1 001242   000012 236300                    LDQ   ! 10,,PR0
         1 001243   000017 376207                    ANQ   ! 15,DL
         1 001244   000005 116207                    CMPQ  ! 5,DL
         1 001245   001406 601200 1                  TNZ   ! BADCLS

      756    10354    4                 AND SYMB$->FO$SYMB.STATE~=FOMS_HELD# THEN GOTO BADCLS;
      757    10355    4                 LDCT$->NK$LDCT.DFLG.SYMBIONT='0'B;

  10355  1 001246   200005 471700                    LDP1  ! LDCT$,,AUTO
         1 001247   000004 236200 2                  LDQ   ! 4
         1 001250   100006 356300                    ANSQ  ! 6,,PR1

      758    10356    4                 END;

      759    10357    3               CALL FOM$REL (SYMB$->FO$SYMB);

  10357  1 001251   200006 630500                    EPPR0   SYMB$,,AUTO
         1 001252   000017 631400 xsym               EPPR1   B_VECTNIL+15
         1 001253   000000 701000 xent               TSX1    FOM$REL
         1 001254   000000 011000                    NOP     0

      760    10358    3               CALL RELSYMB;
PL6.E3A0      #001=FOM$PMME File=FOM$MOOS.:E05TSI                                TUE 07/29/97 17:09 Page:81

  10358  1 001255   001345 701000 1                  TSX1    RELSYMB
         1 001256   000000 011000                    NOP     0

      761    10359    3               CALL KCD$DACTRM (LDCT$->NK$LDCT);

  10359  1 001257   200005 630500                    EPPR0   LDCT$,,AUTO
         1 001260   000017 631400 xsym               EPPR1   B_VECTNIL+15
         1 001261   000000 701000 xent               TSX1    KCD$DACTRM
         1 001262   000000 011000                    NOP     0

      762    10360        /**
      763    10361           Lets see if the device needs some delayed partitioning done for it.
      764    10362           We assume that the LDCT was changed, and that there is a valid RAT$
      765    10363           pointer in it now.  This will get us back to the DCT so we can see
      766    10364           if this particular device should be delayed partitioned.
      767    10365        **/
      768    10366    3               IF LDCT$->NK$LDCT.RAT$ ~= ADDR(NIL) THEN

  10366  1 001263   200005 470500                    LDP0    LDCT$,,AUTO
         1 001264   000005 236100                    LDQ     5,,PR0
         1 001265   000001 116000 xsym               CMPQ    B_VECTNIL+1
         1 001266   001343 600000 1                  TZE     s:10397

      769    10367    4                 DO;

      770    10368    4                 DCTX = LDCT$->NK$LDCT.RAT$->FR$RAT.DCTX;

  10368  1 001267   000005 471500                    LDP1    5,,PR0
         1 001270   100003 236100                    LDQ     3,,PR1
         1 001271   777777 376007                    ANQ     -1,DL
         1 001272   200101 756100                    STQ     DCTX,,AUTO

      771    10369    4                 DCT$ = N$DCT$$->N$DCT$(DCTX);

  10369  1 001273   000000 473400 xsym               LDP3    N$DCT$$
         1 001274   300000 236106                    LDQ     0,QL,PR3
PL6.E3A0      #001=FOM$PMME File=FOM$MOOS.:E05TSI                                TUE 07/29/97 17:09 Page:82
         1 001275   200102 756100                    STQ     DCT$,,AUTO

      772    10370    4                 IF DCT$ ~= ADDR(NIL) THEN

  10370  1 001276   000001 116000 xsym               CMPQ    B_VECTNIL+1
         1 001277   001343 600000 1                  TZE     s:10397

      773    10371    4                  IF DCT.STATUS.SYSCON_PART OR DCT.STATUS.MSOS_PART THEN

  10371  1 001300   200102 474500                    LDP4    DCT$,,AUTO
         1 001301   400027 236100                    LDQ     23,,PR4
         1 001302   004000 316003                    CANQ    2048,DU
         1 001303   001306 601000 1                  TNZ     s:10373
         1 001304   002000 316003                    CANQ    1024,DU
         1 001305   001343 600000 1                  TZE     s:10397

      774    10372    5                    DO;

      775    10373    5                    FPT_SYSCON.V.FUNCTION# = %PARTITION#;

  10373  1 001306   001000 236003                    LDQ     512,DU
         1 001307   200072 552140                    STBQ    FPT_SYSCON+4,'40'O,AUTO

      776    10374    5                    FPT_SYSCON.V.COMPONENT# = %DVC#;

  10374  1 001310   000002 236003                    LDQ     2,DU
         1 001311   200072 552120                    STBQ    FPT_SYSCON+4,'20'O,AUTO

      777    10375    5                    FPT_SYSCON.V.DEVNM# = DCT.DEVNM;

  10375  1 001312   040100 100500                    MLR     fill='040'O
         1 001313   400002 000010                    ADSC9   2,,PR4                   cn=0,n=8
         1 001314   200073 000010                    ADSC9   FPT_SYSCON+5,,AUTO       cn=0,n=8

      778    10376    5                    SAVEPRIV = B$JIT.PRIV.ACTIVE;

  10376  1 001315   000000 471400 xsym               LDP1    B$JIT$
PL6.E3A0      #001=FOM$PMME File=FOM$MOOS.:E05TSI                                TUE 07/29/97 17:09 Page:83
         1 001316   100013 236100                    LDQ     11,,PR1
         1 001317   200100 756100                    STQ     SAVEPRIV,,AUTO

      779    10377    5                    B$JIT.PRIV.ACTIVE = %PR_SYSCON#;

  10377  1 001320   000020 236000 xsym               LDQ     B_VECTNIL+16
         1 001321   100013 756100                    STQ     11,,PR1

      780    10378    5                    CALL TDP$SYSCON (FPT_SYSCON.V,RESULT,ERR);

  10378  1 001322   200077 635500                    EPPR5   ERR,,AUTO
         1 001323   200112 455500                    STP5    DCT$+8,,AUTO
         1 001324   200076 636500                    EPPR6   RESULT,,AUTO
         1 001325   200111 456500                    STP6    DCT$+7,,AUTO
         1 001326   200072 637500                    EPPR7   FPT_SYSCON+4,,AUTO
         1 001327   200110 457500                    STP7    DCT$+6,,AUTO
         1 001330   200110 630500                    EPPR0   DCT$+6,,AUTO
         1 001331   000021 631400 xsym               EPPR1   B_VECTNIL+17
         1 001332   000000 701000 xent               TSX1    TDP$SYSCON
         1 001333   000000 011000                    NOP     0

      781    10379    5                    B$JIT.PRIV.ACTIVE = SAVEPRIV;

  10379  1 001334   200100 236100                    LDQ     SAVEPRIV,,AUTO
         1 001335   000000 470400 xsym               LDP0    B$JIT$
         1 001336   000013 756100                    STQ     11,,PR0

      782    10380    5                    END;

      783    10381    4                 END;

  10381  1 001337   001343 710000 1                  TRA     s:10397

      784    10382        /**
      785    10383         **
      786    10384         **
      787    10385         **      UNKNOWN FUNCTION CODE
PL6.E3A0      #001=FOM$PMME File=FOM$MOOS.:E05TSI                                TUE 07/29/97 17:09 Page:84
      788    10386         **
      789    10387         **
      790    10388         **/
      791    10389    3             CASE (ELSE);

      792    10390    3               B$JIT.ERR=E_BADFC;

  10390  1 001340   000011 236000 0                  LDQ     E_BADFC
         1 001341   000000 470400 xsym               LDP0    B$JIT$
         1 001342   000012 756100                    STQ     10,,PR0

      793    10391        /*E* ERROR:        FOM-E$BADFC-E
      794    10392             MESSAGE:      Unknown M$SYMBIO function code
      795    10393             DESCRIPTION:  The function code (order) passed with M$SYMBIO
      796    10394                           was unknown. */
      797    10395
      798    10396    3           END; /*CASE ORDER*/

      799    10397    2         RETURN;

  10397  1 001343   200104 221300                    LDX1  ! DCT$+2,,AUTO
         1 001344   000001 702211                    TSX2  ! 1,X1

      800    10398        /**/
      801    10399    2   RELSYMB: PROC;

  10399  1 001345   200106 741300       RELSYMB      STX1  ! DCT$+4,,AUTO

      802    10400                                /* MAKE SURE LDCTX IS IN RIGHT PLACE */
      803    10401    3         SYMB$->NK$LDCT.LDCTX=SYMB$->FO$SYMB.LDCTX;

  10401  1 001346   200006 470500                    LDP0    SYMB$,,AUTO
         1 001347   000010 220100                    LDX0    8,,PR0
         1 001350   077777 360003                    ANX0    32767,DU
         1 001351   000006 740100                    STX0    6,,PR0

      804    10402    3         CALL NKL$RELDCT (SYMB$);
PL6.E3A0      #001=FOM$PMME File=FOM$MOOS.:E05TSI                                TUE 07/29/97 17:09 Page:85

  10402  1 001352   200006 630500                    EPPR0   SYMB$,,AUTO
         1 001353   200110 450500                    STP0    DCT$+6,,AUTO
         1 001354   200110 630500                    EPPR0   DCT$+6,,AUTO
         1 001355   000017 631400 xsym               EPPR1   B_VECTNIL+15
         1 001356   000000 701000 xent               TSX1    NKL$RELDCT
         1 001357   000000 011000                    NOP     0

      805    10403    3         RETURN;

  10403  1 001360   200106 221300                    LDX1  ! DCT$+4,,AUTO
         1 001361   000001 702211                    TSX2  ! 1,X1

      806    10404    3   END RELSYMB;
      807    10405        /**/
      808    10406        /* VARIOUS ERRORS */
      809    10407        /**/
      810    10408    2   NODCTS:
      811    10409    2         B$JIT.ERR=E_NSBLK;

  10409  1 001362   000005 236000 0     NODCTS       LDQ     E_NSBLK
         1 001363   000000 470400 xsym               LDP0    B$JIT$
         1 001364   000012 756100                    STQ     10,,PR0

      812    10410        /*E* ERROR:        FOM-E$NSBLK-E
      813    10411             MESSAGE:      No LDCTs available for M$SYMBIO OPEN or SPACE
      814    10412             DESCRIPTION:  Opening a symbiont output device requires an LDCT
      815    10413                           for the symbiont context block.  This error occurs
      816    10414                           when there are none.  It also occurs if no LDCT
      817    10415                           (used as a tabs buffer) is available when commencing
      818    10416                           a spacing operation.   */
      819    10417    2         RETURN;

  10417  1 001365   200104 221300                    LDX1  ! DCT$+2,,AUTO
         1 001366   000001 702211                    TSX2  ! 1,X1

      820    10418    2   BADCNT:
PL6.E3A0      #001=FOM$PMME File=FOM$MOOS.:E05TSI                                TUE 07/29/97 17:09 Page:86
      821    10419    2         B$JIT.ERR=E_NHLTD;

  10419  1 001367   000003 236000 0     BADCNT       LDQ     E_NHLTD
         1 001370   000000 470400 xsym               LDP0    B$JIT$
         1 001371   000012 756100                    STQ     10,,PR0

      822    10420        /*E* ERROR:        FOM-E$NHLTD-E
      823    10421             MESSAGE:      M$SYMBIO can't continue or space a busy symbiont
      824    10422             DESCRIPTION:  A CONTINUE or SPACE M$SYMBIO PMME was issued
      825    10423                           against a symbiont which was not halted.  */
      826    10424    2         RETURN;

  10424  1 001372   200104 221300                    LDX1  ! DCT$+2,,AUTO
         1 001373   000001 702211                    TSX2  ! 1,X1

  10403  1 001374                       BADNXTEXT    null
      827    10425    2   BADNXTEXT:;
      828    10426    2         B$JIT.ERR=E_XTEXT;

  10426  1 001374   000004 236000 0                  LDQ     E_XTEXT
         1 001375   000000 473400 xsym               LDP3    B$JIT$
         1 001376   300012 756100                    STQ     10,,PR3

      829    10427        /*E* ERROR:        FOM-E$XTEXT-E
      830    10428             MESSAGE:      M$SYMBIO - symbiont doesn't need another extent
      831    10429             DESCRIPTION:  Another extent was passed to a symbiont which did
      832    10430                           not need one yet. */
      833    10431    2         RETURN;

  10431  1 001377   200104 221300                    LDX1  ! DCT$+2,,AUTO
         1 001400   000001 702211                    TSX2  ! 1,X1

  10426  1 001401                       BADHLT       null
      834    10432    2   BADHLT:;
      835    10433    2         B$JIT.ERR=E_NOHLT;

  10433  1 001401   000010 236000 0                  LDQ     E_NOHLT
PL6.E3A0      #001=FOM$PMME File=FOM$MOOS.:E05TSI                                TUE 07/29/97 17:09 Page:87
         1 001402   000000 470400 xsym               LDP0    B$JIT$
         1 001403   000012 756100                    STQ     10,,PR0

      836    10434        /*E* ERROR:        FOM-E$NOHLT-E
      837    10435             MESSAGE:      M$SYMBIO can't halt a non-busy symbiont
      838    10436             DESCRIPTION:  The symbiont that the user is trying to halt is
      839    10437                           in the process of being halted (for some other
      840    10438                           reason) or disconnected.  */
      841    10439    2         RETURN;

  10439  1 001404   200104 221300                    LDX1  ! DCT$+2,,AUTO
         1 001405   000001 702211                    TSX2  ! 1,X1

  10433  1 001406                       BADCLS       null
      842    10440    2   BADCLS:;
      843    10441    2         B$JIT.ERR=E_NSCLS;

  10441  1 001406   000007 236000 0                  LDQ     E_NSCLS
         1 001407   000000 471400 xsym               LDP1    B$JIT$
         1 001410   100012 756100                    STQ     10,,PR1

      844    10442        /*E* ERROR:        FOM-E$NSCLS-E
      845    10443             MESSAGE:      M$SYMBIO can't close or write a busy symbiont
      846    10444             DESCRIPTION:  The symbiont that the user is closing or writing
      847    10445                           is neither idle nor halted.  */
      848    10446    2         RETURN;

  10446  1 001411   200104 221300                    LDX1  ! DCT$+2,,AUTO
         1 001412   000001 702211                    TSX2  ! 1,X1

  10441  1 001413                       BAD_ALDSC    null
      849    10447    2   BAD_ALDSC:;
      850    10448    2         B$JIT.ERR = E_ALGNDSC;

  10448  1 001413   000014 236000 0                  LDQ     E_ALGNDSC
         1 001414   000000 471400 xsym               LDP1    B$JIT$
         1 001415   100012 756100                    STQ     10,,PR1
PL6.E3A0      #001=FOM$PMME File=FOM$MOOS.:E05TSI                                TUE 07/29/97 17:09 Page:88

      851    10449        /*E* ERROR:          FOM-E$ALGNDSC-E
      852    10450             MESSAGE:        M$SYMBIO - inopportune disconnect
      853    10451             DESCRIPTION:    The device started disconnecting.  OUTSYM won't
      854    10452                             find out about this if we are in the middle of
      855    10453                             an alignment sequence until it's too late.  This
      856    10454                             is a way to let OUTSYM know immediately. */
      857    10455    2         RETURN;

  10455  1 001416   200104 221300                    LDX1  ! DCT$+2,,AUTO
         1 001417   000001 702211                    TSX2  ! 1,X1

  10448  1 001420                       BAD_ALFPRG   null
      858    10456    2   BAD_ALFPRG:;
      859    10457    2         B$JIT.ERR = E_FPABRT;

  10457  1 001420   000015 236000 0                  LDQ     E_FPABRT
         1 001421   000000 471400 xsym               LDP1    B$JIT$
         1 001422   100012 756100                    STQ     10,,PR1

      860    10458        /*E* ERROR:          FOM-E$FPABRT-E
      861    10459             MESSAGE:        M$SYMBIO - Alignment FPRG abort
      862    10460             DESCRIPTION:    The graphics FPRG aborted.  OUTSYM won't find
      863    10461                             out about this if we are in the middle of an
      864    10462                             alignment sequence until it's too late.  This
      865    10463                             is a way to let OUTSYM know immediately. */
      866    10464    2   END PROCIT;

  10464  1 001423   200104 221300                    LDX1  ! DCT$+2,,AUTO
         1 001424   000001 702211                    TSX2  ! 1,X1

  10457  1 001425                       BAD_EXT      null
      867    10465    1   BAD_EXT:;
      868    10466    1         B$JIT.ERR=E_BADEXT;

  10466  1 001425   000013 236000 0                  LDQ     E_BADEXT
         1 001426   000000 470400 xsym               LDP0    B$JIT$
PL6.E3A0      #001=FOM$PMME File=FOM$MOOS.:E05TSI                                TUE 07/29/97 17:09 Page:89
         1 001427   000012 756100                    STQ     10,,PR0

      869    10467        /*E* ERROR:        FOM-E$BADEXT-E
      870    10468             MESSAGE:      M$SYMBIO - Bad extent passed
      871    10469             DESCRIPTION:  Either the first or last granule in the passed
      872    10470                           extent did not pass FAF$SRTODR check.  */
      873    10471    1         RETURN;

  10471  1 001430   000000 702200 xent               TSX2  ! X66_ARET

  10466  1 001431                       NOTREMOTE    null
      874    10472    1   NOTREMOTE:;
      875    10473    1         B$JIT.ERR=E_LOCAL;

  10473  1 001431   000012 236000 0                  LDQ     E_LOCAL
         1 001432   000000 471400 xsym               LDP1    B$JIT$
         1 001433   100012 756100                    STQ     10,,PR1

      876    10474        /*E* ERROR:        FOM-E$LOCAL-E
      877    10475             MESSAGE:      M$SYMBIO - illegal function on local device
      878    10476             DESCRIPTION:  The function code issued with M$SYMBIO is
      879    10477                           not appropriate for a local device. */
      880    10478    1         GOTO GETOUT;

  10478  1 001434   000250 710000 1                  TRA     GETOUT

E_NAUTH
 Sect OctLoc
   0     000   061715 006254                                                    1...

E_NOSTA
 Sect OctLoc
   0     001   061715 015344                                                    1...

E_BSYSY
 Sect OctLoc
   0     002   061715 021144                                                    1..d
PL6.E3A0      #001=FOM$PMME File=FOM$MOOS.:E05TSI                                TUE 07/29/97 17:09 Page:90

E_NHLTD
 Sect OctLoc
   0     003   061715 021154                                                    1..l

E_XTEXT
 Sect OctLoc
   0     004   061715 021164                                                    1..t

E_NSBLK
 Sect OctLoc
   0     005   061715 021174                                                    1..|

E_NVMEM
 Sect OctLoc
   0     006   061715 021204                                                    1...

E_NSCLS
 Sect OctLoc
   0     007   061715 021214                                                    1...

E_NOHLT
 Sect OctLoc
   0     010   061715 021224                                                    1...

E_BADFC
 Sect OctLoc
   0     011   061715 021234                                                    1...

E_LOCAL
 Sect OctLoc
   0     012   061715 021244                                                    1...

E_BADEXT
 Sect OctLoc
   0     013   061715 021304                                                    1...

PL6.E3A0      #001=FOM$PMME File=FOM$MOOS.:E05TSI                                TUE 07/29/97 17:09 Page:91
E_ALGNDSC
 Sect OctLoc
   0     014   061715 021414                                                    1...

E_FPABRT
 Sect OctLoc
   0     015   061715 021444                                                    1...

INITSBLK
 Sect OctLoc
   0     016   000000 006014   000000 006014   000000 006014   000000 000000    ................
   0     022   000000 000000   000000 000000   000000 000000   000000 000000    ................
   0     026   000000 000000   000000 000000   000000 000006   000000 000000    ................
   0     032   000000 000000   000000 000000   000000 000000   000000 000000    ................
   0     036   000000 000000   000040 040040   040040 040040   040040 040040    .....

(unnamed)
 Sect OctLoc
   2     000   000000 010000   000000 006000   000000 006000   000000 006000    ................
   2     004   777777 757777   777777 777760   000000 000016   000002 006000    ................
   2     010   000006 006000   000004 006000   000000 006000   000000 000020    ................
   2     014   000013 006000   000000 000040   000015 006000   000003 006000    ....... ........
      881    10479        /**/
      882    10480    1   END FOM$PMME;
      883    10481        /**/
      884    10482        /**/
      885    10483        %EOD;

PL6.E3A0      #001=FOM$PMME File=FOM$MOOS.:E05TSI                                TUE 07/29/97 17:09 Page:92
--  Include file information  --

   CP_6_SUBS.:E05TOU  is referenced.
   TD_CP6.:E05TOU  is referenced.
   FR$RAT.:E05TOU  is referenced.
   NI$TABLES.:E05TOU  is referenced.
   KV$VDO.:E05TOU  is referenced.
   K$RWPARM.:E05TOU  is referenced.
   K_DATA_R.:E05TOU  cannot be made into a system file and is referenced.
   F$DCB.:E05TOU  cannot be made into a system file and is referenced.
   N$REQ.:E05TOU  is referenced.
   KC$CP6V_C.:E05TOU  is referenced.
   KC_CP6.:E05TOU  is referenced.
   KQ_SUBS_C.:E05TOU  is referenced.
   KQ_MAC_C.:E05TOU  is referenced.
   HF_LOCK_C.:E05TOU  cannot be made into a system file and is referenced.
   UD_SEV_C.:E05TOU  is referenced.
   FOM_DATA_R.:E05TOU  cannot be made into a system file and is referenced.
   FO_ERRORS_C.:E05TOU  is referenced.
   KC_ERRORS_C.:E05TOU  is referenced.
   UD_ERRORS_C.:E05TOU  is referenced.
   FOM_SUBS_C.:E05TOU  is referenced.
   NK_SUBS.:E05TOU  is referenced.
   KC_SUBS_C.:E05TOU  is referenced.
   JG_GHOSTS_C.:E05TOU  is referenced.
   KC_DATA_R.:E05TOU  cannot be made into a system file and is referenced.
   NK_LDCT_R.:E05TOU  cannot be made into a system file and is referenced.
   B$JIT_C.:E05TOU  is referenced.
   UM$CP6V_C.:E05TOU  is referenced.
   FOM$STRUCT.:E05TOU  is referenced.
   NK$LDCT.:E05TOU  is referenced.
      No diagnostics issued in procedure FOM$PMME.
PL6.E3A0      #001=FOM$PMME File=FOM$MOOS.:E05TSI                                TUE 07/29/97 17:09 Page:93

 **** Variables and constants ****

  ****  Section 000 RoData FOM$PMME

  ****  Scalars and arrays  ****
OctLoc.c.b A Datatyp(siz) R M Lvl/name                 OctLoc.c.b A Datatyp(siz) R M Lvl/name

    14-0-0/w STRC        r     1 E_ALGNDSC                 13-0-0/w STRC        r     1 E_BADEXT
    11-0-0/w STRC        r     1 E_BADFC                    2-0-0/w STRC        r     1 E_BSYSY
    15-0-0/w STRC        r     1 E_FPABRT                  12-0-0/w STRC        r     1 E_LOCAL
     0-0-0/w STRC        r     1 E_NAUTH                    3-0-0/w STRC        r     1 E_NHLTD
    10-0-0/w STRC        r     1 E_NOHLT                    1-0-0/w STRC        r     1 E_NOSTA
     5-0-0/w STRC        r     1 E_NSBLK                    7-0-0/w STRC        r     1 E_NSCLS
     6-0-0/w STRC        r     1 E_NVMEM                    4-0-0/w STRC        r     1 E_XTEXT
    16-0-0/w STRC(720)   r     1 INITSBLK

  ****  Auto variables  ****

  ****  Scalars and arrays  ****
OctLoc.c.b A Datatyp(siz) R M Lvl/name                 OctLoc.c.b A Datatyp(siz) R M Lvl/name

     3-0-0/w PTR         r     1 @FPTCODE                  12-0-0/w PTR         r     1 CG$
     7-0-0/w UBIN        r     1 DAD                      102-0-0/w PTR         r     1 DCT$
   101-0-0/w UBIN        r     1 DCTX                      77-0-0/w SBIN        r     1 ERR
    *0-0-0/w UBIN        r     1 FPTCODE                   66-0-0/d STRC(288)   r     1 FPT_SYSCON
    16-0-0/d STRC(1404)  r     1 K$RWPARM                   5-0-0/w PTR         r     1 LDCT$
     4-0-0/w UBIN        r     1 ORDER                     76-0-0/w SBIN        r     1 RESULT
   100-0-0/b BIT         r     1 SAVEPRIV                  10-0-0/w UBIN(18)    r     1 SETX
    13-0-0/w PTR         r     1 STA$                      14-0-0/w UBIN        r     1 STALOCK
     6-0-0/w PTR         r     1 SYMB$                     11-0-0/w UBIN        r     1 TEMP

  ****  SYMREF variables  ****

  ****  Scalars and arrays  ****
OctLoc.c.b A Datatyp(siz) R M Lvl/name                 OctLoc.c.b A Datatyp(siz) R M Lvl/name

     0-0-0/w PTR         r     1 B$JIT$                     0-0-0/w PTR         r     1 B$PS0$
PL6.E3A0      #001=FOM$PMME File=FOM$MOOS.:E05TSI                                TUE 07/29/97 17:09 Page:94
     0-0-0/w PTR         r     1 B$PS1$                     0-0-0/w PTR         r     1 B$PS2$
     0-0-0/w PTR         r     1 B$PS3$                     0-0-0/w PTR         r     1 B$PS5$
     0-0-0/w UBIN        r     1 FOM_WSQ                    0-0-0/w STRC        r     1 FOSE_HLTR
     0-0-0/d STRC(1404)  r     1 K_RWPARM_CON               0-0-0/w PTR         r     1 N$DCT$$
     0-0-0/w UBIN        r     1 S_CUN

  ****  BASED and DCB variables  ****

  ****  Scalars and arrays  ****
OctLoc.c.b A Datatyp(siz) R M Lvl/name                 OctLoc.c.b A Datatyp(siz) R M Lvl/name

     0-0-0/d STRC(7560)  r     1 B$JIT                      0-0-0/w STRC(1332)  r     1 DCT
     0-0-0/d ASTR(3528)  r     1 F$DCB                      0-0-0/w STRC(720)   r     1 FO$SYMB
     0-0-0/w STRC(360)   r     1 FO$TABS                    0-0-0/d STRC(396)   r     1 FPT$SYMBIO_V
     0-0-0/w STRC(324)   r     1 FR$RAT                     0-0-0/d STRC(6516)  r     1 KQ$CG
     0-0-0/d STRC(1296)  r     1 KQ$STA                     0-0-0/w PTR         r     1 N$DCT$(0:0)
     0-0-0/d STRC(1080)  r     1 N$REQ                      0-0-0/d STRC(864)   r     1 NK$LDCT
     0-0-0/w PTR         r     1 NK$LDCT$(0:0)
     0-0-0/d STRC(72)    r     1 VLP$EXTENT                 0-0-0/c CHAR(6)     r     1 VLP$FORM
     0-0-0/c CHAR(8)     r     1 VLP$STATION


   Procedure FOM$PMME requires 797 words for executable code.
   Procedure FOM$PMME requires 76 words of local(AUTO) storage.
PL6.E3A0      #001=FOM$PMME File=FOM$MOOS.:E05TSI                                TUE 07/29/97 17:09 Page:95
          *** CROSS REFERENCE LISTING ***
**     DENOTES     IDENTIFIER DEFINITION
<<                 IDENTIFIER'S VALUE SET
>>                 IDENTIFIER'S VALUE USED
<>                 IDENTIFIER SET AND/OR USED
--                 IDENTIFIER REFERENCED
PL6.E3A0      #001=FOM$PMME File=FOM$MOOS.:E05TSI                                TUE 07/29/97 17:09 Page:96
          MINI XREF LISTING

B$JIT.DCB$
      9092**DCL      9853>>ASSIGN
B$JIT.ERR
      9002**DCL      9814<<ASSIGN   9921<<ASSIGN   9961<<ASSIGN  10159<<ASSIGN  10390<<ASSIGN  10409<<ASSIGN
     10419<<ASSIGN  10426<<ASSIGN  10433<<ASSIGN  10441<<ASSIGN  10448<<ASSIGN  10457<<ASSIGN  10466<<ASSIGN
     10473<<ASSIGN
B$JIT.ERR.MID
      9003**DCL      9003--REDEF
B$JIT.PRIV.ACTIVE
      9003**DCL     10376>>ASSIGN  10377<<ASSIGN  10379<<ASSIGN
B$JIT$
      9730**DCL      8997--IMP-PTR  9814>>ASSIGN   9853>>ASSIGN   9921>>ASSIGN   9961>>ASSIGN  10159>>ASSIGN
     10376>>ASSIGN  10377>>ASSIGN  10379>>ASSIGN  10390>>ASSIGN  10409>>ASSIGN  10419>>ASSIGN  10426>>ASSIGN
     10433>>ASSIGN  10441>>ASSIGN  10448>>ASSIGN  10457>>ASSIGN  10466>>ASSIGN  10473>>ASSIGN
B$PS0$
      9731**DCL      8989--IMP-PTR  9825>>ASSIGN   9828>>ASSIGN  10038>>ASSIGN  10120>>ASSIGN  10121>>IF
     10121>>IF      10143>>ASSIGN  10144>>ASSIGN  10145>>ASSIGN  10146>>ASSIGN  10295>>IF      10296>>IF
     10334>>ASSIGN  10335>>ASSIGN  10336>>ASSIGN  10337>>ASSIGN
B$PS1$
      9732**DCL      8994--IMP-PTR  9829>>ASSIGN   9831>>ASSIGN   9831>>ASSIGN  10128>>ASSIGN  10188>>ASSIGN
     10199>>ASSIGN
B$PS2$
      9733**DCL      9988<>CALL    10098<>CALL
B$PS3$
      9734**DCL      9160--IMP-PTR  9843>>CALL     9861>>CALL
B$PS5$
      9736**DCL      9161--IMP-PTR  9843>>CALL
BADCLS IN PROCEDURE PROCIT
     10433**LABEL   10324--GOTO    10354--GOTO
BADCNT IN PROCEDURE PROCIT
     10419**LABEL   10095--GOTO    10156--CALLALT
BADHLT IN PROCEDURE PROCIT
PL6.E3A0      #001=FOM$PMME File=FOM$MOOS.:E05TSI                                TUE 07/29/97 17:09 Page:97
     10426**LABEL   10273--CALLALT
BADNXTEXT IN PROCEDURE PROCIT
     10403**LABEL   10182--GOTO
BAD_ALDSC IN PROCEDURE PROCIT
     10441**LABEL   10230--GOTO    10257--GOTO    10317--GOTO    10352--GOTO
BAD_ALFPRG IN PROCEDURE PROCIT
     10448**LABEL   10234--GOTO    10261--GOTO    10321--GOTO
BAD_EXT
     10457**LABEL    9830--CALLALT  9832--CALLALT
BAD_NAME
      9920**LABEL    9882--GOTO     9934--CALLALT
CG$
      9263**DCL      9854<<ASSIGN   9855>>CALL     9857>>CALL     9861>>CALL     9880>>CALL     9899>>CALL
CONTINUE IN PROCEDURE PROCIT
     10099**LABEL   10041--GOTO
DAD
      9260**DCL      9829<<ASSIGN   9830<>CALL     9831<<ASSIGN   9832<>CALL
DCT.DEVNM
      9212**DCL     10375>>ASSIGN
DCT.DP
      9232**DCL      9239--REDEF    9242--REDEF    9243--REDEF    9245--REDEF    9245--REDEF    9246--REDEF
      9247--REDEF    9247--REDEF
DCT.MPC.IOCHANX
      9240**DCL      9240--REDEF
DCT.STATUS.MSOS_PART
      9231**DCL     10371>>IF
DCT.STATUS.SYSCON_PART
      9230**DCL     10371>>IF
DCT$
      9603**DCL      9212--IMP-PTR 10369<<ASSIGN  10370>>IF      10371>>IF      10371>>IF      10375>>ASSIGN
DCTX
      9602**DCL     10368<<ASSIGN  10369>>ASSIGN
DOCONT IN PROCEDURE PROCIT
     10072**LABEL   10067--GOTO    10308--GOTO
DOSPACE IN PROCEDURE PROCIT
     10055**LABEL   10072--GOTO
PL6.E3A0      #001=FOM$PMME File=FOM$MOOS.:E05TSI                                TUE 07/29/97 17:09 Page:98
DOWRITE IN PROCEDURE PROCIT
     10261**LABEL   10127--GOTO
ERR
      9600**DCL     10378<>CALL
E_ALGNDSC
      9682**DCL     10448>>ASSIGN
E_BADEXT
      9676**DCL     10466>>ASSIGN
E_BADFC
      9664**DCL     10390>>ASSIGN
E_BSYSY
      9622**DCL      9961>>ASSIGN
E_FPABRT
      9688**DCL     10457>>ASSIGN
E_LOCAL
      9670**DCL     10473>>ASSIGN
E_NAUTH
      9610**DCL      9814>>ASSIGN
E_NHLTD
      9628**DCL     10419>>ASSIGN
E_NOHLT
      9658**DCL     10433>>ASSIGN
E_NOSTA
      9616**DCL      9921>>ASSIGN
E_NSBLK
      9640**DCL     10409>>ASSIGN
E_NSCLS
      9652**DCL     10441>>ASSIGN
E_NVMEM
      9646**DCL     10159>>ASSIGN
E_XTEXT
      9634**DCL     10426>>ASSIGN
F$DCB.ACTPOS
      4995**DCL      4995--REDEF
F$DCB.ARS
      4970**DCL      4970--REDEF
PL6.E3A0      #001=FOM$PMME File=FOM$MOOS.:E05TSI                                TUE 07/29/97 17:09 Page:99
F$DCB.ATTR
      4988**DCL      4989--REDEF
F$DCB.BORROW
      5003**DCL      5003--REDEF    5003--REDEF    5003--REDEF
F$DCB.DCBNAME.L
      5017**DCL      5017--IMP-SIZ
F$DCB.EOMCHAR
      4974**DCL      4974--REDEF
F$DCB.FLDID
      4998**DCL      4998--REDEF
F$DCB.FORM$
      4992**DCL      4992--REDEF
F$DCB.FSECT
      5008**DCL      5008--REDEF
F$DCB.FSN
      4985**DCL      4985--REDEF    4985--REDEF    4986--REDEF
F$DCB.HEADER$
      4991**DCL      4991--REDEF
F$DCB.IXTNSIZE
      4989**DCL      4989--REDEF
F$DCB.LASTSTA$
      4979**DCL      4979--REDEF
F$DCB.LDCTX
      4992**DCL      9853>>ASSIGN
F$DCB.LVL
      5004**DCL      5004--REDEF
F$DCB.NAME.C
      4979**DCL      4979--REDEF
F$DCB.NOEOF
      5000**DCL      5000--REDEF
F$DCB.NRECS
      4990**DCL      4990--REDEF
F$DCB.NRECX
      5009**DCL      5009--REDEF
F$DCB.OHDR
      5001**DCL      5001--REDEF
PL6.E3A0      #001=FOM$PMME File=FOM$MOOS.:E05TSI                                TUE 07/29/97 17:09 Page:100
F$DCB.ORG
      4984**DCL      4984--REDEF
F$DCB.PRECNO
      5007**DCL      5007--REDEF
F$DCB.RCSZ
      5012**DCL      5012--REDEF
F$DCB.RES
      4980**DCL      4980--REDEF
F$DCB.SETX
      4992**DCL      4992--REDEF
F$DCB.TAB$
      4991**DCL      4992--REDEF
F$DCB.TDA
      5006**DCL      5006--REDEF
F$DCB.WSN
      4981**DCL      4981--REDEF
FAF$SRTODR
      9738**DCL-ENT  9830--CALL     9832--CALL
FO$SYMB
      8967**DCL      9975<<ASSIGN  10132<>CALL    10150<>CALL    10156<>CALL    10205<>CALL    10236<>CALL
     10273<>CALL    10357<>CALL
FO$SYMB.ACK
      8974**DCL     10295<<ASSIGN
FO$SYMB.BR
      8968**DCL     10120<<ASSIGN  10137>>IF      10334>>ASSIGN
FO$SYMB.BR.BLK#
      8968**DCL      8969--REDEF
FO$SYMB.BR.REC#
      8969**DCL      8970--REDEF
FO$SYMB.BUF$
      8967**DCL      8968--REDEF    9988<>CALL     9998<>CALL    10098<>CALL    10116>>ASSIGN
FO$SYMB.CPVFC
      8982**DCL     10146<<ASSIGN
FO$SYMB.CUREXT
      8970**DCL     10128<<ASSIGN  10130>>IF      10186>>IF      10199<<ASSIGN  10304<<ASSIGN
FO$SYMB.CUREXT.STAMP
PL6.E3A0      #001=FOM$PMME File=FOM$MOOS.:E05TSI                                TUE 07/29/97 17:09 Page:101
      8971**DCL      8972--REDEF
FO$SYMB.CUREXT.STAMP.FRDAD
      8971**DCL     10211<<ASSIGN  10211>>ASSIGN  10212<<ASSIGN  10212>>ASSIGN
FO$SYMB.DEVLDCTX
      8975**DCL      9980<<ASSIGN
FO$SYMB.EFLGB.IDSC
      8981**DCL     10227>>IF      10254>>IF      10314>>IF      10349>>IF
FO$SYMB.FIRSTSPACE
      8981**DCL     10147<<ASSIGN
FO$SYMB.FPABRT
      8985**DCL     10232>>IF      10259>>IF      10319>>IF
FO$SYMB.IOQ$
      8967**DCL     10108<>CALL    10110>>ASSIGN  10112>>ASSIGN  10116>>ASSIGN  10305>>CALL
FO$SYMB.LDCTX
      8975**DCL      9978<<ASSIGN  10043>>ASSIGN  10401>>ASSIGN
FO$SYMB.NXTEXT
      8972**DCL     10125<<ASSIGN  10182>>IF      10188<<ASSIGN
FO$SYMB.NXTEXT.STAMP.FRDAD
      8973**DCL     10192<<ASSIGN  10192>>ASSIGN  10193<<ASSIGN  10193>>ASSIGN
FO$SYMB.PAGES
      8979**DCL     10145<<ASSIGN
FO$SYMB.PGDONE
      8983**DCL     10123<<ASSIGN  10335>>ASSIGN
FO$SYMB.SETX
      8977**DCL     10038<<ASSIGN
FO$SYMB.SPACEPAGES
      8975**DCL      8976--REDEF   10143<<ASSIGN  10191>>IF      10210>>IF
FO$SYMB.SPACEREC#
      8976**DCL     10144<<ASSIGN
FO$SYMB.SPACETYPE
      8979**DCL     10055<<ASSIGN  10071<<ASSIGN
FO$SYMB.SPACING
      8978**DCL     10142<<ASSIGN  10191>>IF      10210>>IF
FO$SYMB.STATE
      8982**DCL     10095>>IF      10096<<ASSIGN  10202>>IF      10204<<ASSIGN  10227>>IF      10254>>IF
     10289>>IF      10293<<ASSIGN  10308>>IF      10314>>IF      10349>>IF      10353>>IF      10353>>IF
PL6.E3A0      #001=FOM$PMME File=FOM$MOOS.:E05TSI                                TUE 07/29/97 17:09 Page:102
FO$SYMB.TAB$
      8967**DCL     10057>>IF      10059<>CALL    10060>>ASSIGN  10062>>ASSIGN
FO$SYMB.THROTTLE_CNT
      8984**DCL     10337>>ASSIGN
FO$SYMB.THROTTLE_TIME
      8984**DCL     10336>>ASSIGN
FO$SYMB.TOKEN
      8974**DCL     10300<<ASSIGN
FO$SYMB.XMVFU
      8982**DCL     10140<<ASSIGN
FO$TABS.LDCTX
      9158**DCL     10062<<ASSIGN
FO$TABS.TABS
      9158**DCL      9158--REDEF
FOM$DISKQ
      9739**DCL-ENT 10150--CALL    10205--CALL
FOM$EVENT
      9740**DCL-ENT 10156--CALL    10273--CALL
FOM$REL
      9741**DCL-ENT 10357--CALL
FOM$TELLAU
      9742**DCL-ENT 10132--CALL    10236--CALL
FOM$WRITE
      9743**DCL-ENT 10305--CALL
FOM_WSQ
      1096**DCL      9988<>CALL     9998<>CALL    10098<>CALL
FOSE_HLTR
      1273**DCL     10156<>CALL    10273<>CALL
FPT$SYMBIO_V.ACK
      8990**DCL     10295>>IF
FPT$SYMBIO_V.BLKREC
      8990**DCL     10120>>ASSIGN  10334<<ASSIGN
FPT$SYMBIO_V.BLKREC.BLK
      8990**DCL     10121>>IF
FPT$SYMBIO_V.BLKREC.REC
      8991**DCL     10121>>IF
PL6.E3A0      #001=FOM$PMME File=FOM$MOOS.:E05TSI                                TUE 07/29/97 17:09 Page:103
FPT$SYMBIO_V.CPVFC
      8990**DCL     10146>>ASSIGN
FPT$SYMBIO_V.ORDER
      8989**DCL      9825>>ASSIGN
FPT$SYMBIO_V.PAGES
      8990**DCL     10145>>ASSIGN
FPT$SYMBIO_V.PGDONE
      8991**DCL     10335<<ASSIGN
FPT$SYMBIO_V.SETX
      8989**DCL      9828>>ASSIGN  10038>>ASSIGN
FPT$SYMBIO_V.SPACEPAGES
      8990**DCL     10143>>ASSIGN
FPT$SYMBIO_V.SPACEREC
      8991**DCL     10144>>ASSIGN
FPT$SYMBIO_V.THROTTLE_CNT
      8991**DCL     10337<<ASSIGN
FPT$SYMBIO_V.THROTTLE_TIME
      8991**DCL     10336<<ASSIGN
FPT$SYMBIO_V.TOKEN
      8990**DCL     10296>>IF
FPTCODE
      7747**DCL        78--PROC
FPT_SYSCON.V
      9593**DCL     10378<>CALL
FPT_SYSCON.V.COMPONENT#
      9594**DCL     10374<<ASSIGN
FPT_SYSCON.V.DEVNM#
      9596**DCL     10375<<ASSIGN
FPT_SYSCON.V.FUNCTION#
      9594**DCL     10373<<ASSIGN
FPT_SYSCON.V.IOM#
      9594**DCL      9595--REDEF    9595--REDEF
FR$RAT.DCTX
      9183**DCL     10368>>ASSIGN
GETOUT
      9921**LABEL    9909--GOTO     9935--GOTO    10478--GOTO
PL6.E3A0      #001=FOM$PMME File=FOM$MOOS.:E05TSI                                TUE 07/29/97 17:09 Page:104
HFC$LOCK
      1364**DCL-ENT  9857--CALL     9865--CALL     9993--CALL    10241--CALL
HFC$UNLOCK
      1364**DCL-ENT  9876--CALL     9880--CALL     9896--CALL     9899--CALL    10001--CALL    10028--CALL
     10246--CALL    10251--CALL
INITSBLK
      9704**DCL      9975>>ASSIGN
INITSBLK.BR.BLK#
      9705**DCL      9706--REDEF
INITSBLK.BR.REC#
      9706**DCL      9707--REDEF
INITSBLK.BUF$
      9704**DCL      9705--REDEF
INITSBLK.CUREXT.STAMP
      9708**DCL      9709--REDEF
INITSBLK.SPACEPAGES
      9712**DCL      9713--REDEF
K$RWPARM
      9287**DCL     10238<<ASSIGN  10243<>CALL
K$RWPARM.BLKREC
      9313**DCL      9338--REDEF
K$RWPARM.BLKREC.BLKU#
      9314**DCL      9316--REDEF
K$RWPARM.BLKREC.RECU#
      9326**DCL      9328--REDEF
K$RWPARM.DVE.DVBYTE.VFC
      9353**DCL      9354--REDEF
K$RWPARM.DVE.EOMCHAR
      9361**DCL      9365--REDEF
K$RWPARM.ERR
      9425**DCL      9430--REDEF
K$RWPARM.FC
      9389**DCL      9390--REDEF
K$RWPARM.FLDID
      9571**DCL      9572--REDEF
K$RWPARM.FPT$
PL6.E3A0      #001=FOM$PMME File=FOM$MOOS.:E05TSI                                TUE 07/29/97 17:09 Page:105
      9452**DCL      9459--REDEF
K$RWPARM.KEYTYPE
      9578**DCL      9579--REDEF
K$RWPARM.MRKTYP
      9563**DCL     10239<<ASSIGN
K$RWPARM.MSG$
      9288**DCL      9294--REDEF
K$RWPARM.MSGID
      9400**DCL      9405--REDEF
K$RWPARM.MSGIDXT
      9413**DCL      9417--REDEF
K$RWPARM.ORG
      9549**DCL      9550--REDEF
K$RWPARM.THDRSZ
      9493**DCL      9497--REDEF
K$RWPARM.VDOFLGS
      9551**DCL      9562--REDEF
KCD$ACTRM
      9744**DCL-ENT 10034--CALL
KCD$DACTRM
      9745**DCL-ENT 10359--CALL
KIA$FCNOU
      9746**DCL-ENT 10243--CALL
KQ$CG
      7893**DCL      9855<>CALL
KQ$CG.AUCTL.DVBYTE.REREAD
      8336**DCL      8337--REDEF
KQ$CG.STREE
      8225**DCL      9861<>CALL
KQ$CG.STREE.GATE
      8227**DCL      9857<>CALL     9880<>CALL     9899<>CALL
KQ$STA
      8631**DCL      9928<>CALL
KQ$STA.ACTTYC
      8683**DCL      8687--REDEF
KQ$STA.DCBLNK$
PL6.E3A0      #001=FOM$PMME File=FOM$MOOS.:E05TSI                                TUE 07/29/97 17:09 Page:106
      8690**DCL      8693--REDEF    8697--REDEF
KQ$STA.EVCNT
      8776**DCL      8779--REDEF
KQ$STA.EVNT
      8742**DCL      8746--REDEF    8749--REDEF
KQ$STA.GATE
      8709**DCL      9865<>CALL     9876<>CALL     9896<>CALL     9993<>CALL    10001<>CALL    10028<>CALL
KQ$STA.IDSC
      8711**DCL      9996>>IF
KQ$STA.LDCT$
      8672**DCL      9870>>ASSIGN
KQ$STA.LOCKCNT
      8765**DCL      9892<<ASSIGN   9892>>ASSIGN
KQ$STA.OPNBLKED
      8803**DCL      8806--REDEF
KQ$STA.OPNREJ
      8809**DCL      8811--REDEF
KQ$STA.SUCCREAD
      8732**DCL      8736--REDEF
KQ$STA.TCOUNT
      8861**DCL      8867--REDEF
KQ$STA.VGOT$
      8846**DCL      8850--REDEF    8854--REDEF
KQB$SRCH
      9747**DCL-ENT  9861--CALL
KQP$UNLOCK
      9748**DCL-ENT  9928--CALL
KQX$LDASR
      9749**DCL-ENT  9855--CALL
K_RWPARM_CON
      5433**DCL     10238>>ASSIGN
K_RWPARM_CON.BLKREC
      5459**DCL      5484--REDEF
K_RWPARM_CON.BLKREC.BLKU#
      5460**DCL      5462--REDEF
K_RWPARM_CON.BLKREC.RECU#
PL6.E3A0      #001=FOM$PMME File=FOM$MOOS.:E05TSI                                TUE 07/29/97 17:09 Page:107
      5472**DCL      5474--REDEF
K_RWPARM_CON.DVE.DVBYTE.VFC
      5499**DCL      5500--REDEF
K_RWPARM_CON.DVE.EOMCHAR
      5507**DCL      5511--REDEF
K_RWPARM_CON.ERR
      5571**DCL      5576--REDEF
K_RWPARM_CON.FC
      5535**DCL      5536--REDEF
K_RWPARM_CON.FLDID
      5717**DCL      5718--REDEF
K_RWPARM_CON.FPT$
      5598**DCL      5605--REDEF
K_RWPARM_CON.KEYTYPE
      5724**DCL      5725--REDEF
K_RWPARM_CON.MSG$
      5434**DCL      5440--REDEF
K_RWPARM_CON.MSGID
      5546**DCL      5551--REDEF
K_RWPARM_CON.MSGIDXT
      5559**DCL      5563--REDEF
K_RWPARM_CON.ORG
      5695**DCL      5696--REDEF
K_RWPARM_CON.THDRSZ
      5639**DCL      5643--REDEF
K_RWPARM_CON.VDOFLGS
      5697**DCL      5708--REDEF
LDCT$
      9258**DCL      9853<<ASSIGN   9854>>ASSIGN   9870<<ASSIGN   9872>>IF       9885>>IF       9885>>IF
      9906>>IF       9915>>IF       9916>>ASSIGN   9957>>IF       9957>>IF       9980>>ASSIGN  10025>>ASSIGN
     10026>>ASSIGN  10034>>CALL    10181>>ASSIGN  10235>>IF      10241>>CALL    10243>>CALL    10246>>CALL
     10251>>CALL    10300>>IF      10355>>ASSIGN  10359>>CALL    10366>>IF      10368>>ASSIGN
MMS$VGET
      9750**DCL-ENT  9988--CALL    10098--CALL
MMS$VREL
      9751**DCL-ENT  9998--CALL
PL6.E3A0      #001=FOM$PMME File=FOM$MOOS.:E05TSI                                TUE 07/29/97 17:09 Page:108
N$DCT$
      9251**DCL     10369>>ASSIGN
N$DCT$$
       758**DCL       758--IMP-PTR  9853>>ASSIGN   9973>>ASSIGN  10061>>ASSIGN  10369>>ASSIGN
N$REQ
      9108**DCL     10305<>CALL
N$REQ.BUF$
      9117**DCL     10116<<ASSIGN
N$REQ.BUFADDR
      9117**DCL      9118--REDEF    9118--REDEF
N$REQ.DLA.DRELADDR
      9109**DCL      9109--REDEF
N$REQ.DVE.EOMCHAR
      9146**DCL      9147--REDEF
N$REQ.EAINFO
      9140**DCL      9140--REDEF
N$REQ.EAINFOP$
      9140**DCL     10112<<ASSIGN
N$REQ.EAINFOX
      9140**DCL      9141--REDEF
N$REQ.EVNTINFO
      9141**DCL      9141--REDEF
N$REQ.NOALT
      9111**DCL     10110<<ASSIGN
N$REQ.STATUS
      9122**DCL      9128--REDEF
NIQ$GET
      9752**DCL-ENT 10108--CALL
NK$LDCT
      7845**DCL     10034<>CALL    10243<>CALL    10359<>CALL
NK$LDCT.CG$
      7876**DCL      9854>>ASSIGN
NK$LDCT.DDT$
      7847**DCL      7847--REDEF
NK$LDCT.DFLG.LOCAL
      7851**DCL      9906>>IF      10235>>IF      10300>>IF
PL6.E3A0      #001=FOM$PMME File=FOM$MOOS.:E05TSI                                TUE 07/29/97 17:09 Page:109
NK$LDCT.DFLG.SYMBIONT
      7850**DCL      9915>>IF       9957>>IF      10026<<ASSIGN  10355<<ASSIGN
NK$LDCT.IOQ$
      7846**DCL      7847--REDEF
NK$LDCT.LDCTX
      7848**DCL      7848--REDEF    9971>>ASSIGN   9980>>ASSIGN  10043<<ASSIGN  10060>>ASSIGN  10401<<ASSIGN
NK$LDCT.LKFLG.ABORTED
      7860**DCL      7861--REDEF
NK$LDCT.LKFLG.ACTIVE
      7864**DCL      9957>>IF
NK$LDCT.LOCK
      7873**DCL     10241<>CALL    10246<>CALL    10251<>CALL
NK$LDCT.RAT$
      7848**DCL     10366>>IF      10368>>ASSIGN
NK$LDCT.RESCOD
      7853**DCL      9885>>IF       9885>>IF
NK$LDCT.RLCID.LDCTX
      7870**DCL      7870--REDEF
NK$LDCT.STA$
      7866**DCL      7867--REDEF
NK$LDCT.SYMB$
      7845**DCL      7845--REDEF    7845--REDEF    7846--REDEF    9916>>ASSIGN  10025<<ASSIGN  10181>>ASSIGN
NK$LDCT$
       758**DCL      9853>>ASSIGN   9973<<ASSIGN  10061<<ASSIGN
NKF$FORM
      9753**DCL-ENT  9843--CALL
NKL$GETDCT
      9754**DCL-ENT  9969--CALL    10059--CALL
NKL$RELDCT
      9755**DCL-ENT 10044--CALL    10402--CALL
NODCTS IN PROCEDURE PROCIT
     10409**LABEL    9969--CALLALT 10059--CALLALT
NOMEM IN PROCEDURE PROCIT
     10144**LABEL   10098--CALLALT
NOMEM1 IN PROCEDURE PROCIT
     10038**LABEL    9988--CALLALT
PL6.E3A0      #001=FOM$PMME File=FOM$MOOS.:E05TSI                                TUE 07/29/97 17:09 Page:110
NOMEM2 IN PROCEDURE PROCIT
     10156**LABEL   10045--GOTO
NOSTA
      9876**LABEL    9861--CALLALT
NOSTA1
      9861**LABEL    9887--GOTO
NOTREMOTE
     10466**LABEL    9906--GOTO
ORDER
      9257**DCL      9825<<ASSIGN   9826>>IF       9841>>IF       9904>>IF       9918>>IF       9918>>IF
      9945>>DOCASE   9957>>IF      10032>>IF      10127>>IF      10134>>IF      10134>>IF
PROCIT
      9936**PROC     9934--CALL
RELSYMB IN PROCEDURE PROCIT
     10399**PROC     9999--CALL    10358--CALL
RESULT
      9599**DCL     10378<>CALL
SAVEPRIV
      9601**DCL     10376<<ASSIGN  10379>>ASSIGN
SETX
      9261**DCL      9828<<ASSIGN   9830<>CALL     9832<>CALL
SSS$BLOCK
      9756**DCL-ENT  9840--CALL
STA$
      9264**DCL      9861<>CALL     9865>>CALL     9870>>ASSIGN   9876>>CALL     9892>>ASSIGN   9892>>ASSIGN
      9896>>CALL     9928>>CALL     9993>>CALL     9996>>IF      10001>>CALL    10028>>CALL
STALOCK
      9265**DCL      9850<<ASSIGN   9894<<ASSIGN   9928>>IF
SYMB$
      9259**DCL      9916<<ASSIGN   9969<>CALL     9971>>ASSIGN   9975>>ASSIGN   9978>>ASSIGN   9980>>ASSIGN
      9988>>CALL     9998>>CALL    10025>>ASSIGN  10038>>ASSIGN  10043>>ASSIGN  10043>>ASSIGN  10044<>CALL
     10055>>ASSIGN  10057>>IF      10059>>CALL    10060>>ASSIGN  10062>>ASSIGN  10071>>ASSIGN  10095>>IF
     10096>>ASSIGN  10098>>CALL    10108>>CALL    10110>>ASSIGN  10112>>ASSIGN  10112>>ASSIGN  10116>>ASSIGN
     10116>>ASSIGN  10120>>ASSIGN  10123>>ASSIGN  10125>>ASSIGN  10128>>ASSIGN  10130>>IF      10132>>CALL
     10137>>IF      10140>>ASSIGN  10142>>ASSIGN  10143>>ASSIGN  10144>>ASSIGN  10145>>ASSIGN  10146>>ASSIGN
     10147>>ASSIGN  10150>>CALL    10156>>CALL    10181<<ASSIGN  10182>>IF      10186>>IF      10188>>ASSIGN
PL6.E3A0      #001=FOM$PMME File=FOM$MOOS.:E05TSI                                TUE 07/29/97 17:09 Page:111
     10191>>IF      10191>>IF      10192>>ASSIGN  10192>>ASSIGN  10193>>ASSIGN  10193>>ASSIGN  10199>>ASSIGN
     10202>>IF      10204>>ASSIGN  10205>>CALL    10210>>IF      10210>>IF      10211>>ASSIGN  10211>>ASSIGN
     10212>>ASSIGN  10212>>ASSIGN  10227>>IF      10227>>IF      10232>>IF      10236>>CALL    10254>>IF
     10254>>IF      10259>>IF      10273>>CALL    10289>>IF      10293>>ASSIGN  10295>>ASSIGN  10300>>ASSIGN
     10304>>ASSIGN  10305>>CALL    10308>>IF      10314>>IF      10314>>IF      10319>>IF      10334>>ASSIGN
     10335>>ASSIGN  10336>>ASSIGN  10337>>ASSIGN  10349>>IF      10349>>IF      10353>>IF      10353>>IF
     10357>>CALL    10401>>ASSIGN  10401>>ASSIGN  10402<>CALL
S_CUN
      9737**DCL      9813>>IF
TDP$SYSCON
      9757**DCL-ENT 10378--CALL
TEMP
      9262**DCL      9971<<ASSIGN   9973>>ASSIGN   9978>>ASSIGN  10060<<ASSIGN  10061>>ASSIGN  10062>>ASSIGN
VLP$EXTENT
      8994**DCL     10128>>ASSIGN  10188>>ASSIGN  10199>>ASSIGN
VLP$EXTENT.DAD
      8994**DCL      9829>>ASSIGN   9831>>ASSIGN
VLP$EXTENT.GRANS
      8994**DCL      9831>>ASSIGN
VLP$FORM
      9161**DCL      9843<>CALL
VLP$STATION
      9160**DCL      9843<>CALL     9861<>CALL

PL6.E3A0      #002=FOM$NXDISK File=FOM$MOOS.:E05TSI                              TUE 07/29/97 17:09 Page:112
      886        1        /*T***********************************************************/
      887        2        /*T*                                                         */
      888        3        /*T* Copyright (c) Bull HN Information Systems Inc., 1997    */
      889        4        /*T*                                                         */
      890        5        /*T***********************************************************/
      891        6        /**/
      892        7        /**/
      893        8        FOM$NXDISK: PROC (FO$SYMB) ALTRET;
      894        9        /**/
      895       10        /**/
      896       11        /*F* NAME:         FOM$NXDISK
      897       12             PURPOSE:      To queue the next disk read for MOOS
      898       13             DESCRIPTION:  The blk-rec pointers in the symb cntxt blk
      899       14                           are updated, and we fall thru to FOM$DISKQ.
      900       15
      901       16                           Called after the last-read disk gran has been
      902       17                           successfully sent to its destination,
      903       18                           i.e. from FOM$DEVEA for local devices */
      904       19        /**/
      905       20
      906       21
      907       22        /**/
      908       23        /*  INCLUDES */
      909       24        /**/
      910       25        %INCLUDE FOM$STRUCT;
      911       86        %INCLUDE N$REQ;
      912      160        %INCLUDE NK$LDCT;
      913      262        %INCLUDE KC_SUBS_C;
      914      278        %INCLUDE N_FC_C;
      915      315        %INCLUDE FOM_SUBS_C;
      916      378        %INCLUDE FOM_DATA_R;
      917      627        %INCLUDE NK_LDCT_R;
      918      636        %INCLUDE FM$GRAN;
      919      705        %INCLUDE KC_CP6;
      920     1265
      921     1266
      922     1267        /**/
PL6.E3A0      #002=FOM$NXDISK File=FOM$MOOS.:E05TSI                              TUE 07/29/97 17:09 Page:113
      923     1268        /* PARAMETERS */
      924     1269        /**/
      925     1270        %FOM$SYMB (STCLASS="",NAME=FO$SYMB);
      926     1302
      927     1303
      928     1304        /**/
      929     1305        /* BASED STRUCTURES */
      930     1306        /**/
      931     1307        %N$REQ;
      932     1365        %NK$LDCT;
      933     1411        %FM$GRAN;
      934     1415        %FOM$SBUF;
      935     1419
      936     1420
      937     1421        /**/
      938     1422        /* AUTO */
      939     1423        /**/
      940     1424    1   DCL IOQ$ PTR;
      941     1425    1   DCL LDCT$ PTR;
      942     1426    1   DCL ON_ENDAC UBIN WORD;
      943     1427
      944     1428
      945     1429        /**/
      946     1430        /*  REFS */
      947     1431        /**/
      948     1432    1   DCL FAF$SRTODR         ENTRY(2) ALTRET;
      949     1433    1   DCL FOM$DISKEA         ENTRY(1);
      950     1434    1   DCL FOM$EVENT          ENTRY(3) ALTRET;
      951     1435    1   DCL FOM$TELLAU         ENTRY(3) ALTRET;
      952     1436    1   DCL NIO$QUE            ENTRY(1) ALTRET;
      953     1437    1   DCL SC_BADSYMBDA ENTRY CONV(2,0);
      954     1438
      955     1439
      956     1440        /**/
      957     1441        /* SUBS */
      958     1442        /**/
      959     1443        %EQU_CG;
PL6.E3A0      #002=FOM$NXDISK File=FOM$MOOS.:E05TSI                              TUE 07/29/97 17:09 Page:114
      960     1491        /**/
      961     1492        /**/
      962     1493        /* START HERE */
      963     1494        /**/
      964     1495    1         ON_ENDAC=1;
      965     1496    1         GOTO NXDISK0;
      966     1497
      967     1498        /**/
      968     1499        /**/
      969     1500    1   FOM$RNXDISK: ENTRY(FO$SYMB) ALTRET;
      970     1501        /**/
      971     1502        /*F* NAME:         FOM$RNXDISK
      972     1503             PURPOSE:      To queue the next disk read for MOOS
      973     1504             DESCRIPTION:  Same as FOM$NXDISK but for remote devices.
      974     1505                           Called from FOM$SYMBIN. */
      975     1506        /**/
      976     1507    1         ON_ENDAC=0;
      977     1508    1   NXDISK0:;
      978     1509                                /* MAKE SURE STATE IS OK FIRST */
      979     1510                                      /* Device ENDAC */
      980     1511    1         CALL FOM$EVENT (FO$SYMB,FOSE_SWDN) ALTRET(ALTRT);
      981     1512    2           DO INHIBIT;
      982     1513    2           IF FO$SYMB.XMTABS THEN
      983     1514    3             DO;
      984     1515    3             FO$SYMB.XMTABS='0'B;
      985     1516    3             GOTO DISKQ;
      986     1517    3             END;
      987     1518                                                     /**/
      988     1519    2           IF FO$SYMB.XMVFU
      989     1520    2           THEN
      990     1521    3             DO;
      991     1522    3             FO$SYMB.XMVFU='0'B;
      992     1523    3             GOTO DISKQ;
      993     1524    3             END;
      994     1525                                                     /**/
      995     1526    2           GOTO NXDISK;
      996     1527    2           END;
PL6.E3A0      #002=FOM$NXDISK File=FOM$MOOS.:E05TSI                              TUE 07/29/97 17:09 Page:115
      997     1528        /**/
      998     1529        /**/
      999     1530    1   FOM$SNXDISK: ENTRY (FO$SYMB) ALTRET;
     1000     1531        /**/
     1001     1532        /*F* NAME:         FOM$SNXDISK
     1002     1533             PURPOSE:      To queue the next disk read for MOOS during spacing
     1003     1534                           or when a granule has no records.
     1004     1535             DESCRIPTION:  Same as FOM$NXDISK but a different event must
     1005     1536                           be reported to FOM$EVENT because we're coming
     1006     1537                           off disk endaction instead of device endac. */
     1007     1538        /**/
     1008     1539                                      /* Disk ENDAC */
     1009     1540    1         CALL FOM$EVENT (FO$SYMB,FOSE_DGDN) ALTRET(ALTRT);
     1010     1541    1         ON_ENDAC=1;
     1011     1542                                /* UPDATE BLKREC */
     1012     1543    2           DO INHIBIT;
     1013     1544    2   NXDISK:
     1014     1545                                      /* Position ourselves in extent to next
     1015     1546                                         (or previous) block */
     1016     1547    2           IF FO$SYMB.SPACING AND FO$SYMB.SPACEPAGES<0 THEN
     1017     1548    3             DO;
     1018     1549    3             FO$SYMB.PGDONE = FO$SYMB.PGDONE - FO$SYMB.BUF$->FM$GRAN.KEYCNT;
     1019     1550    3             IF FO$SYMB.BR.BLK# = 0 THEN FO$SYMB.BR.REC#=0;
     1020     1551    3             ELSE
     1021     1552    4               DO;
     1022     1553    4               FO$SYMB.BR.BLK#=FO$SYMB.BR.BLK#-1;
     1023     1554    4               FO$SYMB.BR.REC#=9999;
     1024     1555    4               IF FO$SYMB.CUREXT THEN
     1025     1556    4                FO$SYMB.CUREXT.STAMP.FRDAD=FO$SYMB.CUREXT.STAMP.FRDAD-1;
     1026     1557    4               END;
     1027     1558    3             END;
     1028     1559    2           ELSE
     1029     1560    3             DO;
     1030     1561    3             FO$SYMB.PGDONE = FO$SYMB.PGDONE + FO$SYMB.BUF$->FM$GRAN.KEYCNT;
     1031     1562    3             FO$SYMB.BR.BLK#=FO$SYMB.BR.BLK#+1;
     1032     1563    3             FO$SYMB.BR.REC#=0;
     1033     1564    3             IF FO$SYMB.CUREXT THEN
PL6.E3A0      #002=FOM$NXDISK File=FOM$MOOS.:E05TSI                              TUE 07/29/97 17:09 Page:116
     1034     1565    3              FO$SYMB.CUREXT.STAMP.FRDAD=FO$SYMB.CUREXT.STAMP.FRDAD+1;
     1035     1566    3             END;
     1036     1567    2           END; /* DO INHIBIT */
     1037     1568    1         GOTO DISKQ;
     1038     1569        /**/
     1039     1570        /**/
     1040     1571    1   FOM$DISKQ: ENTRY (FO$SYMB) ALTRET;
     1041     1572        /**/
     1042     1573        /**/
     1043     1574        /*F* NAME:         FOM$DISKQ
     1044     1575             PURPOSE:      To queue a disk read for MOOS
     1045     1576             DESCRIPTION:
     1046     1577                           This routine is called from FOM$PMME, to start
     1047     1578                           MOOS on a halted or just-opened symbiont.
     1048     1579
     1049     1580                           For all of the entry points to this routine,
     1050     1581                           the disk read parameters are set into the request
     1051     1582                           packet; in particular, the endaction routine
     1052     1583                           is FOM$DISKEA.  Then, if running on endaction
     1053     1584                           (i.e. entered at FOM$NXDISK from FOM$DEVEA, or
     1054     1585                           FOM$SNXDISK from FOM$DISKEA), the re-queue bit
     1055     1586                           in the request packet is set and we return.
     1056     1587                           Otherwise (i.e. entered at FOM$DISKQ from FOM$PMME
     1057     1588                           or FOM$RNXDISK from FOM$SYMBIN), NIO$QUE is
     1058     1589                           called and we return. */
     1059     1590        /**/
     1060     1591        /**/
     1061     1592    1         ON_ENDAC=0;
     1062     1593    1   DISKQ:;
     1063     1594                                      /* DEVLDCTX is the LDCTX if the device
     1064     1595                                         LDCT */
     1065     1596    1         LDCT$=NK$LDCT$(FO$SYMB.DEVLDCTX);
     1066     1597                                /* IF THERE ARE NO GRANS LEFT, GO IDLE */
     1067     1598    1         IF FO$SYMB.CUREXT.NGRAN=0 THEN
     1068     1599    2           DO;
     1069     1600    2           IF FO$SYMB.CUREXT.DAD~=0 THEN
     1070     1601    2            IF FO$SYMB.SPACING THEN
PL6.E3A0      #002=FOM$NXDISK File=FOM$MOOS.:E05TSI                              TUE 07/29/97 17:09 Page:117
     1071     1602    3              DO;
     1072     1603    3              CALL FOM$EVENT (FO$SYMB,FOSE_SPEF)   ALTRET(ALTRT);
     1073     1604    3              RETURN;
     1074     1605    3              END;
     1075     1606    2            ELSE
     1076     1607    2             CALL FOM$TELLAU (FO$SYMB,%CG_SFEXT#,1);
     1077     1608    2           IF FO$SYMB.SETX = 0
     1078     1609    2           THEN
     1079     1610    2            CALL FOM$EVENT (FO$SYMB,FOSE_IALN) ALTRET(ALTRT);
     1080     1611    2           ELSE
     1081     1612    2            CALL FOM$EVENT (FO$SYMB,FOSE_NDSK) ALTRET(ALTRT);
     1082     1613    2           RETURN;
     1083     1614    2           END;
     1084     1615    1         IOQ$=FO$SYMB.IOQ$;
     1085     1616    1         IOQ$->N$REQ.BUFSIZE=4096;
     1086     1617    1         IOQ$->N$REQ.FC=%N_RDBIN;
     1087     1618    1         IOQ$->N$REQ.OPFLG=OP_EA|OP_BPF|OP_HOLD;
     1088     1619                                /* NOTE THAT WE ALWAYS USE THE SAME REQ PACKET */
     1089     1620    1         IOQ$->N$REQ.EAENTRY=ENTADDR(FOM$DISKEA);
     1090     1621    1         IOQ$->N$REQ.DLA=BINBIT(FO$SYMB.CUREXT.DAD,36);
     1091     1622    1         CALL FAF$SRTODR (IOQ$->N$REQ.DLA,FO$SYMB.SETX) ALTRET(BAD_DA);
     1092     1623                                /* CHANGE STATE TO DKIO */
     1093     1624    1         CALL FOM$EVENT (FO$SYMB,FOSE_DKIO) ALTRET(ALTRT);
     1094     1625
     1095     1626                                      /* Set request flag, else send granule */
     1096     1627    1         IF ON_ENDAC = 1 THEN
     1097     1628    1          IOQ$->N$REQ.OPFLG.REQ='1'B;
     1098     1629    1         ELSE CALL NIO$QUE (IOQ$->N$REQ);
     1099     1630    1         RETURN;
     1100     1631    1   ALTRT:;
     1101     1632    1         ALTRETURN;
     1102     1633    1   BAD_DA:;
     1103     1634    1         CALL SC_BADSYMBDA;
     1104     1635        /*S* SCREECH_CODE: FOM-S$BADSYMBDA
     1105     1636             TYPE:         SNAP
     1106     1637             MESSAGE:      Bad disk address in MOOS
     1107     1638             DESCRIPTION:  The disk address of the disk granule about to
PL6.E3A0      #002=FOM$NXDISK File=FOM$MOOS.:E05TSI                              TUE 07/29/97 17:09 Page:118
     1108     1639                           be read does not pass FAF$SRTODR check.  This
     1109     1640                           may be because the SETX in the context block is
     1110     1641                           clobbered, or because the disk address itself is
     1111     1642                           illegal, or because the data bases used by
     1112     1643                           FAF$SRTODR are smashed.  Note that all disk ext-
     1113     1644                           ents are checked (via FAF$SRTODR) when OUTSYM
     1114     1645                           gets them, hence something has definitely been
     1115     1646                           smashed since OUTSYM constructed this extent.
     1116     1647                           A SNAP dump is taken and the file jerked off
     1117     1648                           the device & removed from OUTSYM's tables,
     1118     1649                           to be printed next time the system is booted. */
     1119     1650    1         FO$SYMB.BUF$->FO$SBUF.FERR.CODE=FOME_DSKADD#;
     1120     1651    1         FO$SYMB.BUF$->FO$SBUF.FERR.BLK#=FO$SYMB.BR.BLK#;
     1121     1652    1         CALL FOM$EVENT (FO$SYMB,FOSE_HLTR,FOHR_FERR#);
     1122     1653    1         RETURN;
     1123     1654
     1124     1655        /**/
     1125     1656    1   END FOM$NXDISK;
     1126     1657        /**/
     1127     1658        /**/
     1128     1659        %EOD;

PL6.E3A0      #002=FOM$NXDISK File=FOM$MOOS.:E05TSI                              TUE 07/29/97 17:09 Page:119
--  Include file information  --

   KC_CP6.:E05TOU  is referenced.
   FM$GRAN.:E05TOU  is referenced.
   NK_LDCT_R.:E05TOU  cannot be made into a system file and is referenced.
   FOM_DATA_R.:E05TOU  cannot be made into a system file and is referenced.
   FOM_SUBS_C.:E05TOU  is referenced.
   N_FC_C.:E05TOU  is referenced.
   KC_SUBS_C.:E05TOU  is referenced.
   NK$LDCT.:E05TOU  is referenced.
   N$REQ.:E05TOU  is referenced.
   FOM$STRUCT.:E05TOU  is referenced.
      No diagnostics issued in procedure FOM$NXDISK.

   Procedure FOM$NXDISK requires 206 words for executable code.
   Procedure FOM$NXDISK requires 12 words of local(AUTO) storage.

PL6.E3A0      #002=FOM$NXDISK File=FOM$MOOS.:E05TSI                              TUE 07/29/97 17:09 Page:120

 Object Unit name= FOM$NXDISK                                 File name= FOM$MOOS.:E05TOU
 UTS= JUL 29 '97 17:09:43.12 TUE                              Compiler= PL-6/E31         Sev=      00
 SharedLib= :SHARED_SYSTEM                                    Alt SharedLib=


    ****  Control sections  ****

 Sect   Type Bound  Init  Size OctSiz  Section name(segment info)
    0   Proc  even  none   206    316  FOM$NXDISK
    1  RoData even  none    13     15  FOM$NXDISK

    ****  Entry defs  ****

                              Check   Calling
                             calling  sequence
  Sect OctLoc Primary Altret sequence   type   Parms  Name
     0      0   yes    yes     yes      Std        1  FOM$NXDISK
     0      5          yes     yes      Std        1  FOM$RNXDISK
     0     35          yes     yes      Std        1  FOM$SNXDISK
     0    130          yes     yes      Std        1  FOM$DISKQ

  ****  Entry refs  ****

         Check        Calling
        calling       sequence
Altret sequence SRef   type   Args  Name
 yes     yes           Std       3 FOM$EVENT
 yes     yes           Std       1 NIO$QUE
 yes     yes           Std       3 FOM$TELLAU
         yes           Std       1 FOM$DISKEA
 yes     yes           Std       2 FAF$SRTODR
                       nStd      0 X66_AUTO_1
                       Std       0 B_CONSPOOL_D
                       nStd      0 X66_ARET
                       nStd      0 X66_AALT
PL6.E3A0      #002=FOM$NXDISK File=FOM$MOOS.:E05TSI                              TUE 07/29/97 17:09 Page:121

  ****  Data refs  ****

  Flags:  r = read only, s = secondary
Flgs Name                             Flgs Name                             Flgs Name
     SC_BADSYMBDA                     r    FOSE_SWDN                        r    FOSE_NDSK
r    FOSE_IALN                        r    FOSE_DKIO                        r    FOSE_HLTR
r    FOSE_DGDN                        r    FOSE_SPEF                             N$DCT$$
     B_VECTNIL

  ****  Segment refs  ****

  Flags:  r = read only, s = secondary
Flgs Name                             Flgs Name                             Flgs Name
     ASLENTSID                             ISSID
PL6.E3A0      #002=FOM$NXDISK File=FOM$MOOS.:E05TSI                              TUE 07/29/97 17:09 Page:122


      886        1        /*T***********************************************************/
      887        2        /*T*                                                         */
      888        3        /*T* Copyright (c) Bull HN Information Systems Inc., 1997    */
      889        4        /*T*                                                         */
      890        5        /*T***********************************************************/
      891        6        /**/
      892        7        /**/
      893        8        FOM$NXDISK: PROC (FO$SYMB) ALTRET;

      8  0 000000   000000 700200 xent  FOM$NXDISK   TSX0  ! X66_AUTO_1
         0 000001   000014 000001                    ZERO    12,1

      894        9        /**/
      895       10        /**/
      896       11        /*F* NAME:         FOM$NXDISK
      897       12             PURPOSE:      To queue the next disk read for MOOS
      898       13             DESCRIPTION:  The blk-rec pointers in the symb cntxt blk
      899       14                           are updated, and we fall thru to FOM$DISKQ.
      900       15
      901       16                           Called after the last-read disk gran has been
      902       17                           successfully sent to its destination,
      903       18                           i.e. from FOM$DEVEA for local devices */
      904       19        /**/
      905       20
      906       21
      907       22        /**/
      908       23        /*  INCLUDES */
      909       24        /**/
      910       25        %INCLUDE FOM$STRUCT;
      911       86        %INCLUDE N$REQ;
      912      160        %INCLUDE NK$LDCT;
      913      262        %INCLUDE KC_SUBS_C;
      914      278        %INCLUDE N_FC_C;
      915      315        %INCLUDE FOM_SUBS_C;
      916      378        %INCLUDE FOM_DATA_R;
      917      627        %INCLUDE NK_LDCT_R;
PL6.E3A0      #002=FOM$NXDISK File=FOM$MOOS.:E05TSI                              TUE 07/29/97 17:09 Page:123
      918      636        %INCLUDE FM$GRAN;
      919      705        %INCLUDE KC_CP6;
      920     1265
      921     1266
      922     1267        /**/
      923     1268        /* PARAMETERS */
      924     1269        /**/
      925     1270        %FOM$SYMB (STCLASS="",NAME=FO$SYMB);
      926     1302
      927     1303
      928     1304        /**/
      929     1305        /* BASED STRUCTURES */
      930     1306        /**/
      931     1307        %N$REQ;
      932     1365        %NK$LDCT;
      933     1411        %FM$GRAN;
      934     1415        %FOM$SBUF;
      935     1419
      936     1420
      937     1421        /**/
      938     1422        /* AUTO */
      939     1423        /**/
      940     1424    1   DCL IOQ$ PTR;
      941     1425    1   DCL LDCT$ PTR;
      942     1426    1   DCL ON_ENDAC UBIN WORD;
      943     1427
      944     1428
      945     1429        /**/
      946     1430        /*  REFS */
      947     1431        /**/
      948     1432    1   DCL FAF$SRTODR         ENTRY(2) ALTRET;
      949     1433    1   DCL FOM$DISKEA         ENTRY(1);
      950     1434    1   DCL FOM$EVENT          ENTRY(3) ALTRET;
      951     1435    1   DCL FOM$TELLAU         ENTRY(3) ALTRET;
      952     1436    1   DCL NIO$QUE            ENTRY(1) ALTRET;
      953     1437    1   DCL SC_BADSYMBDA ENTRY CONV(2,0);
      954     1438
PL6.E3A0      #002=FOM$NXDISK File=FOM$MOOS.:E05TSI                              TUE 07/29/97 17:09 Page:124
      955     1439
      956     1440        /**/
      957     1441        /* SUBS */
      958     1442        /**/
      959     1443        %EQU_CG;
      960     1491        /**/
      961     1492        /**/
      962     1493        /* START HERE */
      963     1494        /**/
      964     1495    1         ON_ENDAC=1;

   1495  0 000002   000001 235007                    LDA     1,DL
         0 000003   200006 755100                    STA     ON_ENDAC,,AUTO

      965     1496    1         GOTO NXDISK0;

   1496  0 000004   000010 710000 0                  TRA     NXDISK0

      966     1497
      967     1498        /**/
      968     1499        /**/
      969     1500    1   FOM$RNXDISK: ENTRY(FO$SYMB) ALTRET;

   1500  0 000005   000000 700200 xent  FOM$RNXDISK  TSX0  ! X66_AUTO_1
         0 000006   000014 000001                    ZERO    12,1

      970     1501        /**/
      971     1502        /*F* NAME:         FOM$RNXDISK
      972     1503             PURPOSE:      To queue the next disk read for MOOS
      973     1504             DESCRIPTION:  Same as FOM$NXDISK but for remote devices.
      974     1505                           Called from FOM$SYMBIN. */
      975     1506        /**/
      976     1507    1         ON_ENDAC=0;

   1507  0 000007   200006 450100                    STZ     ON_ENDAC,,AUTO

   1507  0 000010                       NXDISK0      null
PL6.E3A0      #002=FOM$NXDISK File=FOM$MOOS.:E05TSI                              TUE 07/29/97 17:09 Page:125
      977     1508    1   NXDISK0:;
      978     1509                                /* MAKE SURE STATE IS OK FIRST */
      979     1510                                      /* Device ENDAC */
      980     1511    1         CALL FOM$EVENT (FO$SYMB,FOSE_SWDN) ALTRET(ALTRT);

   1511  0 000010   000000 236000 1                  LDQ     0
         0 000011   200003 235100                    LDA     @FO$SYMB,,AUTO
         0 000012   200010 757100                    STAQ    ON_ENDAC+2,,AUTO
         0 000013   200010 630500                    EPPR0   ON_ENDAC+2,,AUTO
         0 000014   000020 631400 xsym               EPPR1   B_VECTNIL+16
         0 000015   000000 701000 xent               TSX1    FOM$EVENT
         0 000016   000271 702000 0                  TSX2    ALTRT

      981     1512    2           DO INHIBIT;

      982     1513    2           IF FO$SYMB.XMTABS THEN

   1513  0 000017   200003 470700                    LDP0  ! @FO$SYMB,,AUTO
         0 000020   000012 236300                    LDQ   ! 10,,PR0
         0 000021   000100 316207                    CANQ  ! 64,DL
         0 000022   000026 600200 0                  TZE   ! s:1519

      983     1514    3             DO;

      984     1515    3             FO$SYMB.XMTABS='0'B;

   1515  0 000023   000001 236200 1                  LDQ   ! 1
         0 000024   000012 356300                    ANSQ  ! 10,,PR0

      985     1516    3             GOTO DISKQ;

   1516  0 000025   000133 710200 0                  TRA   ! DISKQ

      986     1517    3             END;
      987     1518                                                     /**/
      988     1519    2           IF FO$SYMB.XMVFU

PL6.E3A0      #002=FOM$NXDISK File=FOM$MOOS.:E05TSI                              TUE 07/29/97 17:09 Page:126
   1519  0 000026   000020 316207                    CANQ  ! 16,DL
         0 000027   000033 600200 0                  TZE   ! s:1526

      989     1520    2           THEN
      990     1521    3             DO;

      991     1522    3             FO$SYMB.XMVFU='0'B;

   1522  0 000030   000002 236200 1                  LDQ   ! 2
         0 000031   000012 356300                    ANSQ  ! 10,,PR0

      992     1523    3             GOTO DISKQ;

   1523  0 000032   000133 710200 0                  TRA   ! DISKQ

      993     1524    3             END;
      994     1525                                                     /**/
      995     1526    2           GOTO NXDISK;

   1526  0 000033   000050 710200 0                  TRA   ! NXDISK

      996     1527    2           END;

   1527  0 000034   000037 710000 0                  TRA     s:1540

      997     1528        /**/
      998     1529        /**/
      999     1530    1   FOM$SNXDISK: ENTRY (FO$SYMB) ALTRET;

   1530  0 000035   000000 700200 xent  FOM$SNXDISK  TSX0  ! X66_AUTO_1
         0 000036   000014 000001                    ZERO    12,1

     1000     1531        /**/
     1001     1532        /*F* NAME:         FOM$SNXDISK
     1002     1533             PURPOSE:      To queue the next disk read for MOOS during spacing
     1003     1534                           or when a granule has no records.
     1004     1535             DESCRIPTION:  Same as FOM$NXDISK but a different event must
PL6.E3A0      #002=FOM$NXDISK File=FOM$MOOS.:E05TSI                              TUE 07/29/97 17:09 Page:127
     1005     1536                           be reported to FOM$EVENT because we're coming
     1006     1537                           off disk endaction instead of device endac. */
     1007     1538        /**/
     1008     1539                                      /* Disk ENDAC */
     1009     1540    1         CALL FOM$EVENT (FO$SYMB,FOSE_DGDN) ALTRET(ALTRT);

   1540  0 000037   000003 236000 1                  LDQ     3
         0 000040   200003 235100                    LDA     @FO$SYMB,,AUTO
         0 000041   200010 757100                    STAQ    ON_ENDAC+2,,AUTO
         0 000042   200010 630500                    EPPR0   ON_ENDAC+2,,AUTO
         0 000043   000020 631400 xsym               EPPR1   B_VECTNIL+16
         0 000044   000000 701000 xent               TSX1    FOM$EVENT
         0 000045   000271 702000 0                  TSX2    ALTRT

     1010     1541    1         ON_ENDAC=1;

   1541  0 000046   000001 235007                    LDA     1,DL
         0 000047   200006 755100                    STA     ON_ENDAC,,AUTO

     1011     1542                                /* UPDATE BLKREC */
     1012     1543    2           DO INHIBIT;

     1013     1544    2   NXDISK:
     1014     1545                                      /* Position ourselves in extent to next
     1015     1546                                         (or previous) block */
     1016     1547    2           IF FO$SYMB.SPACING AND FO$SYMB.SPACEPAGES<0 THEN

   1547  0 000050   200003 470700       NXDISK       LDP0  ! @FO$SYMB,,AUTO
         0 000051   000012 236300                    LDQ   ! 10,,PR0
         0 000052   040000 316207                    CANQ  ! 16384,DL
         0 000053   000106 600200 0                  TZE   ! s:1561
         0 000054   000011 220300                    LDX0  ! 9,,PR0
         0 000055   000106 605200 0                  TPL   ! s:1561

     1017     1548    3             DO;

     1018     1549    3             FO$SYMB.PGDONE = FO$SYMB.PGDONE - FO$SYMB.BUF$->FM$GRAN.KEYCNT;
PL6.E3A0      #002=FOM$NXDISK File=FOM$MOOS.:E05TSI                              TUE 07/29/97 17:09 Page:128

   1549  0 000056   000002 471700                    LDP1  ! 2,,PR0
         0 000057   100002 236300                    LDQ   ! 2,,PR1
         0 000060   000777 376207                    ANQ   ! 511,DL
         0 000061   200010 756300                    STQ   ! ON_ENDAC+2,,AUTO
         0 000062   000013 236300                    LDQ   ! 11,,PR0
         0 000063   200010 136300                    SBLQ  ! ON_ENDAC+2,,AUTO
         0 000064   000013 756300                    STQ   ! 11,,PR0

     1019     1550    3             IF FO$SYMB.BR.BLK# = 0 THEN FO$SYMB.BR.REC#=0;

   1550  0 000065   000003 221300                    LDX1  ! 3,,PR0
         0 000066   000072 601200 0                  TNZ   ! s:1553

   1550  0 000067   000000 222203                    LDX2  ! 0,DU
         0 000070   000003 442300                    SXL2  ! 3,,PR0
         0 000071   000127 710200 0                  TRA   ! s:1568

     1020     1551    3             ELSE
     1021     1552    4               DO;

     1022     1553    4               FO$SYMB.BR.BLK#=FO$SYMB.BR.BLK#-1;

   1553  0 000072   777777 622211                    EAX2  ! -1,X1
         0 000073   000003 742300                    STX2  ! 3,,PR0

     1023     1554    4               FO$SYMB.BR.REC#=9999;

   1554  0 000074   023417 221203                    LDX1  ! 9999,DU
         0 000075   000003 441300                    SXL1  ! 3,,PR0

     1024     1555    4               IF FO$SYMB.CUREXT THEN

   1555  0 000076   000000 106700                    CMPC  ! fill='000'O
         0 000077   000004 000010                    ADSC9   4,,PR0                   cn=0,n=8
         0 000100   000002 000002 xsym               ADSC9   B_VECTNIL+2              cn=0,n=2
         0 000101   000127 600200 0                  TZE   ! s:1568
PL6.E3A0      #002=FOM$NXDISK File=FOM$MOOS.:E05TSI                              TUE 07/29/97 17:09 Page:129

     1025     1556    4                FO$SYMB.CUREXT.STAMP.FRDAD=FO$SYMB.CUREXT.STAMP.FRDAD-1;

   1556  0 000102   000005 236300                    LDQ   ! 5,,PR0
         0 000103   000777 036207                    ADLQ  ! 511,DL
         0 000104   000005 552304                    STBQ  ! 5,'04'O,PR0

     1026     1557    4               END;

     1027     1558    3             END;

   1558  0 000105   000127 710200 0                  TRA   ! s:1568

     1028     1559    2           ELSE
     1029     1560    3             DO;

     1030     1561    3             FO$SYMB.PGDONE = FO$SYMB.PGDONE + FO$SYMB.BUF$->FM$GRAN.KEYCNT;

   1561  0 000106   000002 471700                    LDP1  ! 2,,PR0
         0 000107   100002 236300                    LDQ   ! 2,,PR1
         0 000110   000777 376207                    ANQ   ! 511,DL
         0 000111   000013 036300                    ADLQ  ! 11,,PR0
         0 000112   000013 756300                    STQ   ! 11,,PR0

     1031     1562    3             FO$SYMB.BR.BLK#=FO$SYMB.BR.BLK#+1;

   1562  0 000113   000003 220300                    LDX0  ! 3,,PR0
         0 000114   000001 621210                    EAX1  ! 1,X0
         0 000115   000003 741300                    STX1  ! 3,,PR0

     1032     1563    3             FO$SYMB.BR.REC#=0;

   1563  0 000116   000000 220203                    LDX0  ! 0,DU
         0 000117   000003 440300                    SXL0  ! 3,,PR0

     1033     1564    3             IF FO$SYMB.CUREXT THEN

PL6.E3A0      #002=FOM$NXDISK File=FOM$MOOS.:E05TSI                              TUE 07/29/97 17:09 Page:130
   1564  0 000120   000000 106700                    CMPC  ! fill='000'O
         0 000121   000004 000010                    ADSC9   4,,PR0                   cn=0,n=8
         0 000122   000002 000002 xsym               ADSC9   B_VECTNIL+2              cn=0,n=2
         0 000123   000127 600200 0                  TZE   ! s:1568

     1034     1565    3              FO$SYMB.CUREXT.STAMP.FRDAD=FO$SYMB.CUREXT.STAMP.FRDAD+1;

   1565  0 000124   000005 236300                    LDQ   ! 5,,PR0
         0 000125   000001 036207                    ADLQ  ! 1,DL
         0 000126   000005 552304                    STBQ  ! 5,'04'O,PR0

     1035     1566    3             END;

     1036     1567    2           END; /* DO INHIBIT */

     1037     1568    1         GOTO DISKQ;

   1568  0 000127   000133 710000 0                  TRA     DISKQ

     1038     1569        /**/
     1039     1570        /**/
     1040     1571    1   FOM$DISKQ: ENTRY (FO$SYMB) ALTRET;

   1571  0 000130   000000 700200 xent  FOM$DISKQ    TSX0  ! X66_AUTO_1
         0 000131   000014 000001                    ZERO    12,1

     1041     1572        /**/
     1042     1573        /**/
     1043     1574        /*F* NAME:         FOM$DISKQ
     1044     1575             PURPOSE:      To queue a disk read for MOOS
     1045     1576             DESCRIPTION:
     1046     1577                           This routine is called from FOM$PMME, to start
     1047     1578                           MOOS on a halted or just-opened symbiont.
     1048     1579
     1049     1580                           For all of the entry points to this routine,
     1050     1581                           the disk read parameters are set into the request
     1051     1582                           packet; in particular, the endaction routine
PL6.E3A0      #002=FOM$NXDISK File=FOM$MOOS.:E05TSI                              TUE 07/29/97 17:09 Page:131
     1052     1583                           is FOM$DISKEA.  Then, if running on endaction
     1053     1584                           (i.e. entered at FOM$NXDISK from FOM$DEVEA, or
     1054     1585                           FOM$SNXDISK from FOM$DISKEA), the re-queue bit
     1055     1586                           in the request packet is set and we return.
     1056     1587                           Otherwise (i.e. entered at FOM$DISKQ from FOM$PMME
     1057     1588                           or FOM$RNXDISK from FOM$SYMBIN), NIO$QUE is
     1058     1589                           called and we return. */
     1059     1590        /**/
     1060     1591        /**/
     1061     1592    1         ON_ENDAC=0;

   1592  0 000132   200006 450100                    STZ     ON_ENDAC,,AUTO

   1592  0 000133                       DISKQ        null
     1062     1593    1   DISKQ:;
     1063     1594                                      /* DEVLDCTX is the LDCTX if the device
     1064     1595                                         LDCT */
     1065     1596    1         LDCT$=NK$LDCT$(FO$SYMB.DEVLDCTX);

   1596  0 000133   200003 470500                    LDP0    @FO$SYMB,,AUTO
         0 000134   000010 720100                    LXL0    8,,PR0
         0 000135   000000 471400 xsym               LDP1    N$DCT$$
         0 000136   100000 236110                    LDQ     0,X0,PR1
         0 000137   200005 756100                    STQ     LDCT$,,AUTO

     1066     1597                                /* IF THERE ARE NO GRANS LEFT, GO IDLE */
     1067     1598    1         IF FO$SYMB.CUREXT.NGRAN=0 THEN

   1598  0 000140   000004 236100                    LDQ     4,,PR0
         0 000141   777000 316003                    CANQ    -512,DU
         0 000142   000214 601000 0                  TNZ     s:1615

     1068     1599    2           DO;

     1069     1600    2           IF FO$SYMB.CUREXT.DAD~=0 THEN

   1600  0 000143   000032 316000 xsym               CANQ    B_VECTNIL+26
PL6.E3A0      #002=FOM$NXDISK File=FOM$MOOS.:E05TSI                              TUE 07/29/97 17:09 Page:132
         0 000144   000171 600000 0                  TZE     s:1608

     1070     1601    2            IF FO$SYMB.SPACING THEN

   1601  0 000145   000012 236100                    LDQ     10,,PR0
         0 000146   040000 316007                    CANQ    16384,DL
         0 000147   000160 600000 0                  TZE     s:1607

     1071     1602    3              DO;

     1072     1603    3              CALL FOM$EVENT (FO$SYMB,FOSE_SPEF)   ALTRET(ALTRT);

   1603  0 000150   000004 236000 1                  LDQ     4
         0 000151   200003 235100                    LDA     @FO$SYMB,,AUTO
         0 000152   200010 757100                    STAQ    ON_ENDAC+2,,AUTO
         0 000153   200010 630500                    EPPR0   ON_ENDAC+2,,AUTO
         0 000154   000020 631400 xsym               EPPR1   B_VECTNIL+16
         0 000155   000000 701000 xent               TSX1    FOM$EVENT
         0 000156   000271 702000 0                  TSX2    ALTRT

     1073     1604    3              RETURN;

   1604  0 000157   000000 702200 xent               TSX2  ! X66_ARET

     1074     1605    3              END;
     1075     1606    2            ELSE
     1076     1607    2             CALL FOM$TELLAU (FO$SYMB,%CG_SFEXT#,1);

   1607  0 000160   000006 236000 1                  LDQ     6
         0 000161   200012 756100                    STQ     ON_ENDAC+4,,AUTO
         0 000162   000007 236000 1                  LDQ     7
         0 000163   200003 235100                    LDA     @FO$SYMB,,AUTO
         0 000164   200010 757100                    STAQ    ON_ENDAC+2,,AUTO
         0 000165   200010 630500                    EPPR0   ON_ENDAC+2,,AUTO
         0 000166   000021 631400 xsym               EPPR1   B_VECTNIL+17
         0 000167   000000 701000 xent               TSX1    FOM$TELLAU
         0 000170   000000 011000                    NOP     0
PL6.E3A0      #002=FOM$NXDISK File=FOM$MOOS.:E05TSI                              TUE 07/29/97 17:09 Page:133

     1077     1608    2           IF FO$SYMB.SETX = 0

   1608  0 000171   200003 470500                    LDP0    @FO$SYMB,,AUTO
         0 000172   000012 220100                    LDX0    10,,PR0
         0 000173   000204 601000 0                  TNZ     s:1612

     1078     1609    2           THEN
     1079     1610    2            CALL FOM$EVENT (FO$SYMB,FOSE_IALN) ALTRET(ALTRT);

   1610  0 000174   000010 236000 1                  LDQ     8
         0 000175   200003 235100                    LDA     @FO$SYMB,,AUTO
         0 000176   200010 757100                    STAQ    ON_ENDAC+2,,AUTO
         0 000177   200010 630500                    EPPR0   ON_ENDAC+2,,AUTO
         0 000200   000020 631400 xsym               EPPR1   B_VECTNIL+16
         0 000201   000000 701000 xent               TSX1    FOM$EVENT
         0 000202   000271 702000 0                  TSX2    ALTRT
         0 000203   000213 710000 0                  TRA     s:1613

     1080     1611    2           ELSE
     1081     1612    2            CALL FOM$EVENT (FO$SYMB,FOSE_NDSK) ALTRET(ALTRT);

   1612  0 000204   000011 236000 1                  LDQ     9
         0 000205   200003 235100                    LDA     @FO$SYMB,,AUTO
         0 000206   200010 757100                    STAQ    ON_ENDAC+2,,AUTO
         0 000207   200010 630500                    EPPR0   ON_ENDAC+2,,AUTO
         0 000210   000020 631400 xsym               EPPR1   B_VECTNIL+16
         0 000211   000000 701000 xent               TSX1    FOM$EVENT
         0 000212   000271 702000 0                  TSX2    ALTRT

     1082     1613    2           RETURN;

   1613  0 000213   000000 702200 xent               TSX2  ! X66_ARET

     1083     1614    2           END;
     1084     1615    1         IOQ$=FO$SYMB.IOQ$;

PL6.E3A0      #002=FOM$NXDISK File=FOM$MOOS.:E05TSI                              TUE 07/29/97 17:09 Page:134
   1615  0 000214   000001 236100                    LDQ     1,,PR0
         0 000215   200004 756100                    STQ     IOQ$,,AUTO

     1085     1616    1         IOQ$->N$REQ.BUFSIZE=4096;

   1616  0 000216   200004 473500                    LDP3    IOQ$,,AUTO
         0 000217   300004 236100                    LDQ     4,,PR3
         0 000220   177777 376007                    ANQ     65535,DL
         0 000221   002000 276003                    ORQ     1024,DU
         0 000222   300004 756100                    STQ     4,,PR3

     1086     1617    1         IOQ$->N$REQ.FC=%N_RDBIN;

   1617  0 000223   000002 236007                    LDQ     2,DL
         0 000224   300003 552104                    STBQ    3,'04'O,PR3

     1087     1618    1         IOQ$->N$REQ.OPFLG=OP_EA|OP_BPF|OP_HOLD;

   1618  0 000225   000054 236007                    LDQ     44,DL
         0 000226   300004 552104                    STBQ    4,'04'O,PR3

     1088     1619                                /* NOTE THAT WE ALWAYS USE THE SAME REQ PACKET */
     1089     1620    1         IOQ$->N$REQ.EAENTRY=ENTADDR(FOM$DISKEA);

   1620  0 000227   000000 636000 xent               EAQ     FOM$DISKEA
         0 000230   300023 756100                    STQ     19,,PR3

     1090     1621    1         IOQ$->N$REQ.DLA=BINBIT(FO$SYMB.CUREXT.DAD,36);

   1621  0 000231   000004 236100                    LDQ     4,,PR0
         0 000232   000032 376000 xsym               ANQ     B_VECTNIL+26
         0 000233   300001 756100                    STQ     1,,PR3

     1091     1622    1         CALL FAF$SRTODR (IOQ$->N$REQ.DLA,FO$SYMB.SETX) ALTRET(BAD_DA);

   1622  0 000234   200003 236100                    LDQ     @FO$SYMB,,AUTO
         0 000235   000012 036003                    ADLQ    10,DU
PL6.E3A0      #002=FOM$NXDISK File=FOM$MOOS.:E05TSI                              TUE 07/29/97 17:09 Page:135
         0 000236   200011 756100                    STQ     ON_ENDAC+3,,AUTO
         0 000237   200004 236100                    LDQ     IOQ$,,AUTO
         0 000240   000001 036003                    ADLQ    1,DU
         0 000241   200010 756100                    STQ     ON_ENDAC+2,,AUTO
         0 000242   200010 630500                    EPPR0   ON_ENDAC+2,,AUTO
         0 000243   000020 631400 xsym               EPPR1   B_VECTNIL+16
         0 000244   000000 701000 xent               TSX1    FAF$SRTODR
         0 000245   000272 702000 0                  TSX2    BAD_DA

     1092     1623                                /* CHANGE STATE TO DKIO */
     1093     1624    1         CALL FOM$EVENT (FO$SYMB,FOSE_DKIO) ALTRET(ALTRT);

   1624  0 000246   000012 236000 1                  LDQ     10
         0 000247   200003 235100                    LDA     @FO$SYMB,,AUTO
         0 000250   200010 757100                    STAQ    ON_ENDAC+2,,AUTO
         0 000251   200010 630500                    EPPR0   ON_ENDAC+2,,AUTO
         0 000252   000020 631400 xsym               EPPR1   B_VECTNIL+16
         0 000253   000000 701000 xent               TSX1    FOM$EVENT
         0 000254   000271 702000 0                  TSX2    ALTRT

     1094     1625
     1095     1626                                      /* Set request flag, else send granule */
     1096     1627    1         IF ON_ENDAC = 1 THEN

   1627  0 000255   200006 235100                    LDA     ON_ENDAC,,AUTO
         0 000256   000001 115007                    CMPA    1,DL
         0 000257   000264 601000 0                  TNZ     s:1629

     1097     1628    1          IOQ$->N$REQ.OPFLG.REQ='1'B;

   1628  0 000260   200004 470500                    LDP0    IOQ$,,AUTO
         0 000261   000002 236007                    LDQ     2,DL
         0 000262   000004 256100                    ORSQ    4,,PR0
         0 000263   000270 710000 0                  TRA     s:1630

     1098     1629    1         ELSE CALL NIO$QUE (IOQ$->N$REQ);

PL6.E3A0      #002=FOM$NXDISK File=FOM$MOOS.:E05TSI                              TUE 07/29/97 17:09 Page:136
   1629  0 000264   200004 630500                    EPPR0   IOQ$,,AUTO
         0 000265   000017 631400 xsym               EPPR1   B_VECTNIL+15
         0 000266   000000 701000 xent               TSX1    NIO$QUE
         0 000267   000000 011000                    NOP     0

     1099     1630    1         RETURN;

   1630  0 000270   000000 702200 xent               TSX2  ! X66_ARET

   1627  0 000271                       ALTRT        null
     1100     1631    1   ALTRT:;
     1101     1632    1         ALTRETURN;

   1632  0 000271   000000 702200 xent               TSX2  ! X66_AALT

   1627  0 000272                       BAD_DA       null
     1102     1633    1   BAD_DA:;
     1103     1634    1         CALL SC_BADSYMBDA;

   1634  0 000272   000000 713400 xsym               CLIMB   SC_BADSYMBDA
         0 000273   000000 600000 xsid               climb   nvectors=         0

     1104     1635        /*S* SCREECH_CODE: FOM-S$BADSYMBDA
     1105     1636             TYPE:         SNAP
     1106     1637             MESSAGE:      Bad disk address in MOOS
     1107     1638             DESCRIPTION:  The disk address of the disk granule about to
     1108     1639                           be read does not pass FAF$SRTODR check.  This
     1109     1640                           may be because the SETX in the context block is
     1110     1641                           clobbered, or because the disk address itself is
     1111     1642                           illegal, or because the data bases used by
     1112     1643                           FAF$SRTODR are smashed.  Note that all disk ext-
     1113     1644                           ents are checked (via FAF$SRTODR) when OUTSYM
     1114     1645                           gets them, hence something has definitely been
     1115     1646                           smashed since OUTSYM constructed this extent.
     1116     1647                           A SNAP dump is taken and the file jerked off
     1117     1648                           the device & removed from OUTSYM's tables,
     1118     1649                           to be printed next time the system is booted. */
PL6.E3A0      #002=FOM$NXDISK File=FOM$MOOS.:E05TSI                              TUE 07/29/97 17:09 Page:137
     1119     1650    1         FO$SYMB.BUF$->FO$SBUF.FERR.CODE=FOME_DSKADD#;

   1650  0 000274   200003 470500                    LDP0    @FO$SYMB,,AUTO
         0 000275   000002 471500                    LDP1    2,,PR0
         0 000276   000001 235007                    LDA     1,DL
         0 000277   100010 755100                    STA     8,,PR1

     1120     1651    1         FO$SYMB.BUF$->FO$SBUF.FERR.BLK#=FO$SYMB.BR.BLK#;

   1651  0 000300   000002 471500                    LDP1    2,,PR0
         0 000301   000003 236100                    LDQ     3,,PR0
         0 000302   000022 772000                    QRL     18
         0 000303   100012 756100                    STQ     10,,PR1

     1121     1652    1         CALL FOM$EVENT (FO$SYMB,FOSE_HLTR,FOHR_FERR#);

   1652  0 000304   000013 236000 1                  LDQ     11
         0 000305   200012 756100                    STQ     ON_ENDAC+4,,AUTO
         0 000306   000014 236000 1                  LDQ     12
         0 000307   200003 235100                    LDA     @FO$SYMB,,AUTO
         0 000310   200010 757100                    STAQ    ON_ENDAC+2,,AUTO
         0 000311   200010 630500                    EPPR0   ON_ENDAC+2,,AUTO
         0 000312   000021 631400 xsym               EPPR1   B_VECTNIL+17
         0 000313   000000 701000 xent               TSX1    FOM$EVENT
         0 000314   000000 011000                    NOP     0

     1122     1653    1         RETURN;

   1653  0 000315   000000 702200 xent               TSX2  ! X66_ARET

(unnamed)
 Sect OctLoc
   1     000   000000 006000   777777 777677   777777 777757   000000 006000    ................
   1     004   000000 006000   000000 000016   000003 006000   000005 006000    ................
   1     010   000000 006000   000000 006000   000000 006000   000005 006000    ................
   1     014   000000 006000                                                    ....
     1123     1654
PL6.E3A0      #002=FOM$NXDISK File=FOM$MOOS.:E05TSI                              TUE 07/29/97 17:09 Page:138
     1124     1655        /**/
     1125     1656    1   END FOM$NXDISK;
     1126     1657        /**/
     1127     1658        /**/
     1128     1659        %EOD;

PL6.E3A0      #002=FOM$NXDISK File=FOM$MOOS.:E05TSI                              TUE 07/29/97 17:09 Page:139
--  Include file information  --

   KC_CP6.:E05TOU  is referenced.
   FM$GRAN.:E05TOU  is referenced.
   NK_LDCT_R.:E05TOU  cannot be made into a system file and is referenced.
   FOM_DATA_R.:E05TOU  cannot be made into a system file and is referenced.
   FOM_SUBS_C.:E05TOU  is referenced.
   N_FC_C.:E05TOU  is referenced.
   KC_SUBS_C.:E05TOU  is referenced.
   NK$LDCT.:E05TOU  is referenced.
   N$REQ.:E05TOU  is referenced.
   FOM$STRUCT.:E05TOU  is referenced.
      No diagnostics issued in procedure FOM$NXDISK.
PL6.E3A0      #002=FOM$NXDISK File=FOM$MOOS.:E05TSI                              TUE 07/29/97 17:09 Page:140

 **** Variables and constants ****

  ****  Auto variables  ****

  ****  Scalars and arrays  ****
OctLoc.c.b A Datatyp(siz) R M Lvl/name                 OctLoc.c.b A Datatyp(siz) R M Lvl/name

     3-0-0/w PTR         r     1 @FO$SYMB                  *0-0-0/w STRC(720)   r     1 FO$SYMB
     4-0-0/w PTR         r     1 IOQ$                       5-0-0/w PTR         r     1 LDCT$
     6-0-0/w UBIN        r     1 ON_ENDAC

  ****  SYMREF variables  ****

  ****  Scalars and arrays  ****
OctLoc.c.b A Datatyp(siz) R M Lvl/name                 OctLoc.c.b A Datatyp(siz) R M Lvl/name

     0-0-0/w STRC        r     1 FOSE_DGDN                  0-0-0/w STRC        r     1 FOSE_DKIO
     0-0-0/w STRC        r     1 FOSE_HLTR                  0-0-0/w STRC        r     1 FOSE_IALN
     0-0-0/w STRC        r     1 FOSE_NDSK                  0-0-0/w STRC        r     1 FOSE_SPEF
     0-0-0/w STRC        r     1 FOSE_SWDN                  0-0-0/w PTR         r     1 N$DCT$$

  ****  BASED and DCB variables  ****

  ****  Scalars and arrays  ****
OctLoc.c.b A Datatyp(siz) R M Lvl/name                 OctLoc.c.b A Datatyp(siz) R M Lvl/name

     0-0-0/w STRC(180)   r     1 FM$GRAN                    0-0-0/w STRC(468)   r     1 FO$SBUF
     0-0-0/d STRC(1080)  r     1 N$REQ
     0-0-0/w PTR         r     1 NK$LDCT$(0:0)


   Procedure FOM$NXDISK requires 206 words for executable code.
   Procedure FOM$NXDISK requires 12 words of local(AUTO) storage.
PL6.E3A0      #002=FOM$NXDISK File=FOM$MOOS.:E05TSI                              TUE 07/29/97 17:09 Page:141
          *** CROSS REFERENCE LISTING ***
**     DENOTES     IDENTIFIER DEFINITION
<<                 IDENTIFIER'S VALUE SET
>>                 IDENTIFIER'S VALUE USED
<>                 IDENTIFIER SET AND/OR USED
--                 IDENTIFIER REFERENCED
PL6.E3A0      #002=FOM$NXDISK File=FOM$MOOS.:E05TSI                              TUE 07/29/97 17:09 Page:142
          MINI XREF LISTING

ALTRT
      1627**LABEL    1511--CALLALT  1540--CALLALT  1603--CALLALT  1610--CALLALT  1612--CALLALT  1624--CALLALT
BAD_DA
      1627**LABEL    1622--CALLALT
DISKQ
      1592**LABEL    1516--GOTO     1523--GOTO     1568--GOTO
FAF$SRTODR
      1432**DCL-ENT  1622--CALL
FM$GRAN.KEYCNT
      1413**DCL      1549>>ASSIGN   1561>>ASSIGN
FO$SBUF.FERR.BLK#
      1416**DCL      1651<<ASSIGN
FO$SBUF.FERR.CODE
      1416**DCL      1650<<ASSIGN
FO$SYMB
      1281**DCL         8--PROC     1500--ENTRY    1511<>CALL     1530--ENTRY    1540<>CALL     1571--ENTRY
      1603<>CALL     1607<>CALL     1610<>CALL     1612<>CALL     1624<>CALL     1652<>CALL
FO$SYMB.BR.BLK#
      1282**DCL      1283--REDEF    1550>>IF       1553<<ASSIGN   1553>>ASSIGN   1562<<ASSIGN   1562>>ASSIGN
      1651>>ASSIGN
FO$SYMB.BR.REC#
      1283**DCL      1284--REDEF    1550<<ASSIGN   1554<<ASSIGN   1563<<ASSIGN
FO$SYMB.BUF$
      1281**DCL      1282--REDEF    1549>>ASSIGN   1561>>ASSIGN   1650>>ASSIGN   1651>>ASSIGN
FO$SYMB.CUREXT
      1284**DCL      1555>>IF       1564>>IF
FO$SYMB.CUREXT.DAD
      1285**DCL      1600>>IF       1621>>ASSIGN
FO$SYMB.CUREXT.NGRAN
      1284**DCL      1598>>IF
FO$SYMB.CUREXT.STAMP
      1285**DCL      1286--REDEF
PL6.E3A0      #002=FOM$NXDISK File=FOM$MOOS.:E05TSI                              TUE 07/29/97 17:09 Page:143
FO$SYMB.CUREXT.STAMP.FRDAD
      1285**DCL      1556<<ASSIGN   1556>>ASSIGN   1565<<ASSIGN   1565>>ASSIGN
FO$SYMB.DEVLDCTX
      1289**DCL      1596>>ASSIGN
FO$SYMB.IOQ$
      1281**DCL      1615>>ASSIGN
FO$SYMB.PGDONE
      1297**DCL      1549<<ASSIGN   1549>>ASSIGN   1561<<ASSIGN   1561>>ASSIGN
FO$SYMB.SETX
      1291**DCL      1608>>IF       1622<>CALL
FO$SYMB.SPACEPAGES
      1289**DCL      1290--REDEF    1547>>IF
FO$SYMB.SPACING
      1292**DCL      1547>>IF       1601>>IF
FO$SYMB.XMTABS
      1295**DCL      1513>>IF       1515<<ASSIGN
FO$SYMB.XMVFU
      1296**DCL      1519>>IF       1522<<ASSIGN
FOM$DISKEA
      1433**DCL-ENT  1620--ASSIGN
FOM$EVENT
      1434**DCL-ENT  1511--CALL     1540--CALL     1603--CALL     1610--CALL     1612--CALL     1624--CALL
      1652--CALL
FOM$TELLAU
      1435**DCL-ENT  1607--CALL
FOSE_DGDN
       593**DCL      1540<>CALL
FOSE_DKIO
       443**DCL      1624<>CALL
FOSE_HLTR
       563**DCL      1652<>CALL
FOSE_IALN
       428**DCL      1610<>CALL
FOSE_NDSK
       413**DCL      1612<>CALL
FOSE_SPEF
PL6.E3A0      #002=FOM$NXDISK File=FOM$MOOS.:E05TSI                              TUE 07/29/97 17:09 Page:144
       623**DCL      1603<>CALL
FOSE_SWDN
       398**DCL      1511<>CALL
IOQ$
      1424**DCL      1615<<ASSIGN   1616>>ASSIGN   1617>>ASSIGN   1618>>ASSIGN   1620>>ASSIGN   1621>>ASSIGN
      1622>>CALL     1628>>ASSIGN   1629>>CALL
LDCT$
      1425**DCL      1596<<ASSIGN
N$DCT$$
       634**DCL       634--IMP-PTR  1596>>ASSIGN
N$REQ
      1316**DCL      1629<>CALL
N$REQ.BUFADDR
      1325**DCL      1326--REDEF    1326--REDEF
N$REQ.BUFSIZE
      1319**DCL      1616<<ASSIGN
N$REQ.DLA
      1316**DCL      1621<<ASSIGN   1622<>CALL
N$REQ.DLA.DRELADDR
      1317**DCL      1317--REDEF
N$REQ.DVE.EOMCHAR
      1354**DCL      1355--REDEF
N$REQ.EAENTRY
      1347**DCL      1620<<ASSIGN
N$REQ.EAINFO
      1348**DCL      1348--REDEF
N$REQ.EAINFOX
      1348**DCL      1349--REDEF
N$REQ.EVNTINFO
      1349**DCL      1349--REDEF
N$REQ.FC
      1319**DCL      1617<<ASSIGN
N$REQ.OPFLG
      1322**DCL      1618<<ASSIGN
N$REQ.OPFLG.REQ
      1324**DCL      1628<<ASSIGN
PL6.E3A0      #002=FOM$NXDISK File=FOM$MOOS.:E05TSI                              TUE 07/29/97 17:09 Page:145
N$REQ.STATUS
      1330**DCL      1336--REDEF
NIO$QUE
      1436**DCL-ENT  1629--CALL
NK$LDCT.DDT$
      1380**DCL      1380--REDEF
NK$LDCT.IOQ$
      1379**DCL      1380--REDEF
NK$LDCT.LDCTX
      1381**DCL      1381--REDEF
NK$LDCT.LKFLG.ABORTED
      1393**DCL      1394--REDEF
NK$LDCT.RLCID.LDCTX
      1403**DCL      1403--REDEF
NK$LDCT.STA$
      1399**DCL      1400--REDEF
NK$LDCT.SYMB$
      1378**DCL      1378--REDEF    1378--REDEF    1379--REDEF
NK$LDCT$
       634**DCL      1596>>ASSIGN
NXDISK
      1547**LABEL    1526--GOTO
NXDISK0
      1507**LABEL    1496--GOTO
ON_ENDAC
      1426**DCL      1495<<ASSIGN   1507<<ASSIGN   1541<<ASSIGN   1592<<ASSIGN   1627>>IF
SC_BADSYMBDA
      1437**DCL-ENT  1634--CALL

PL6.E3A0      #003=FOM$TIMR File=FOM$MOOS.:E05TSI                                TUE 07/29/97 17:09 Page:146
     1129        1        /*T***********************************************************/
     1130        2        /*T*                                                         */
     1131        3        /*T* Copyright (c) Bull HN Information Systems Inc., 1997    */
     1132        4        /*T*                                                         */
     1133        5        /*T***********************************************************/
     1134        6        /**/
     1135        7        /**/
     1136        8        FOM$TIMR: PROC (SYMB$);
     1137        9        /**/
     1138       10        /**/
     1139       11        /*F* NAME:         FOM$TIMR
     1140       12             PURPOSE:      To re-awaken MOOS for some reason.
     1141       13             DESCRIPTION:  This routine is called as a result of a
     1142       14                           previous call to SSC$MONTIMR, when MOOS
     1143       15                           must temporarily defer itself.  This
     1144       16                           need arises when:
     1145       17
     1146       18                           1) An FEP output queue request (for symb gran
     1147       19                              or symb halt req) was refused.
     1148       20
     1149       21                           Various flags in the symb context blk
     1150       22                           tell FOM$TIMR what was deferred and hence
     1151       23                           what must be done next.       */
     1152       24
     1153       25        /**/
     1154       26        /*  INCLUDES */
     1155       27        /**/
     1156       28        %INCLUDE FOM$STRUCT;
     1157       89        %INCLUDE N$REQ;
     1158      163        %INCLUDE FOM_DATA_R;
     1159      412
     1160      413
     1161      414        /**/
     1162      415        /* PARAMETERS */
     1163      416        /**/
     1164      417    1   DCL SYMB$ PTR;
     1165      418
PL6.E3A0      #003=FOM$TIMR File=FOM$MOOS.:E05TSI                                TUE 07/29/97 17:09 Page:147
     1166      419
     1167      420        /**/
     1168      421        /* BASED STRUCTURES */
     1169      422        /**/
     1170      423        %FOM$SYMB (NAME=FO$SYMB);
     1171      455        %N$REQ;
     1172      513
     1173      514
     1174      515        /**/
     1175      516        /*  REFS */
     1176      517        /**/
     1177      518    1   DCL FOM$DISKEAR        ENTRY(1);
     1178      519    1   DCL FOM$EVENT          ENTRY(3) ALTRET;
     1179      520        /**/
     1180      521        /**/
     1181      522    2           DO INHIBIT;
     1182      523                                /* REQ FEP SYMB HALT REQ IF DEFERRED */
     1183      524    2           IF SYMB$->FO$SYMB.HRQWAIT THEN
     1184      525    3             DO;
     1185      526                                /* ZAP DEFERRED FLAG */
     1186      527    3             SYMB$->FO$SYMB.HRQWAIT='0'B;
     1187      528                                      /* Halt request */
     1188      529    3             CALL FOM$EVENT (SYMB$->FO$SYMB,FOSE_HRQR);
     1189      530    3             RETURN;
     1190      531    3             END;
     1191      532    2           END;
     1192      533        /**/
     1193      534    1   END FOM$TIMR;
     1194      535        /**/
     1195      536        /**/
     1196      537        %EOD;

PL6.E3A0      #003=FOM$TIMR File=FOM$MOOS.:E05TSI                                TUE 07/29/97 17:09 Page:148
--  Include file information  --

   FOM_DATA_R.:E05TOU  cannot be made into a system file and is referenced.
   N$REQ.:E05TOU  is referenced.
   FOM$STRUCT.:E05TOU  is referenced.
      No diagnostics issued in procedure FOM$TIMR.

   Procedure FOM$TIMR requires 19 words for executable code.
   Procedure FOM$TIMR requires 6 words of local(AUTO) storage.

PL6.E3A0      #003=FOM$TIMR File=FOM$MOOS.:E05TSI                                TUE 07/29/97 17:09 Page:149

 Object Unit name= FOM$TIMR                                   File name= FOM$MOOS.:E05TOU
 UTS= JUL 29 '97 17:09:52.56 TUE                              Compiler= PL-6/E31         Sev=      00
 SharedLib= :SHARED_SYSTEM                                    Alt SharedLib=


    ****  Control sections  ****

 Sect   Type Bound  Init  Size OctSiz  Section name(segment info)
    0   Proc  even  none    19     23  FOM$TIMR
    1  RoData even  none     2      2  FOM$TIMR

    ****  Entry defs  ****

                              Check   Calling
                             calling  sequence
  Sect OctLoc Primary Altret sequence   type   Parms  Name
     0      0   yes            yes      Std        1  FOM$TIMR

  ****  Entry refs  ****

         Check        Calling
        calling       sequence
Altret sequence SRef   type   Args  Name
 yes     yes           Std       3 FOM$EVENT
                       nStd      0 X66_AUTO_1
                       Std       0 B_CONSPOOL_D
                       nStd      0 X66_ARET

  ****  Data refs  ****

  Flags:  r = read only, s = secondary
Flgs Name                             Flgs Name                             Flgs Name
r    FOSE_HRQR                             B_VECTNIL
PL6.E3A0      #003=FOM$TIMR File=FOM$MOOS.:E05TSI                                TUE 07/29/97 17:09 Page:150

  ****  Segment refs  ****

  Flags:  r = read only, s = secondary
Flgs Name                             Flgs Name                             Flgs Name
     ISSID
PL6.E3A0      #003=FOM$TIMR File=FOM$MOOS.:E05TSI                                TUE 07/29/97 17:09 Page:151


     1129        1        /*T***********************************************************/
     1130        2        /*T*                                                         */
     1131        3        /*T* Copyright (c) Bull HN Information Systems Inc., 1997    */
     1132        4        /*T*                                                         */
     1133        5        /*T***********************************************************/
     1134        6        /**/
     1135        7        /**/
     1136        8        FOM$TIMR: PROC (SYMB$);

      8  0 000000   000000 700200 xent  FOM$TIMR     TSX0  ! X66_AUTO_1
         0 000001   000006 000001                    ZERO    6,1

     1137        9        /**/
     1138       10        /**/
     1139       11        /*F* NAME:         FOM$TIMR
     1140       12             PURPOSE:      To re-awaken MOOS for some reason.
     1141       13             DESCRIPTION:  This routine is called as a result of a
     1142       14                           previous call to SSC$MONTIMR, when MOOS
     1143       15                           must temporarily defer itself.  This
     1144       16                           need arises when:
     1145       17
     1146       18                           1) An FEP output queue request (for symb gran
     1147       19                              or symb halt req) was refused.
     1148       20
     1149       21                           Various flags in the symb context blk
     1150       22                           tell FOM$TIMR what was deferred and hence
     1151       23                           what must be done next.       */
     1152       24
     1153       25        /**/
     1154       26        /*  INCLUDES */
     1155       27        /**/
     1156       28        %INCLUDE FOM$STRUCT;
     1157       89        %INCLUDE N$REQ;
     1158      163        %INCLUDE FOM_DATA_R;
     1159      412
     1160      413
PL6.E3A0      #003=FOM$TIMR File=FOM$MOOS.:E05TSI                                TUE 07/29/97 17:09 Page:152
     1161      414        /**/
     1162      415        /* PARAMETERS */
     1163      416        /**/
     1164      417    1   DCL SYMB$ PTR;
     1165      418
     1166      419
     1167      420        /**/
     1168      421        /* BASED STRUCTURES */
     1169      422        /**/
     1170      423        %FOM$SYMB (NAME=FO$SYMB);
     1171      455        %N$REQ;
     1172      513
     1173      514
     1174      515        /**/
     1175      516        /*  REFS */
     1176      517        /**/
     1177      518    1   DCL FOM$DISKEAR        ENTRY(1);
     1178      519    1   DCL FOM$EVENT          ENTRY(3) ALTRET;
     1179      520        /**/
     1180      521        /**/
     1181      522    2           DO INHIBIT;

     1182      523                                /* REQ FEP SYMB HALT REQ IF DEFERRED */
     1183      524    2           IF SYMB$->FO$SYMB.HRQWAIT THEN

    524  0 000002   200003 470700                    LDP0  ! @SYMB$,,AUTO
         0 000003   000000 471700                    LDP1  ! 0,,PR0
         0 000004   100012 236300                    LDQ   ! 10,,PR1
         0 000005   200000 316207                    CANQ  ! 65536,DL
         0 000006   000022 600200 0                  TZE   ! s:534

     1184      525    3             DO;

     1185      526                                /* ZAP DEFERRED FLAG */
     1186      527    3             SYMB$->FO$SYMB.HRQWAIT='0'B;

    527  0 000007   000000 236200 1                  LDQ   ! 0
PL6.E3A0      #003=FOM$TIMR File=FOM$MOOS.:E05TSI                                TUE 07/29/97 17:09 Page:153
         0 000010   100012 356300                    ANSQ  ! 10,,PR1

     1187      528                                      /* Halt request */
     1188      529    3             CALL FOM$EVENT (SYMB$->FO$SYMB,FOSE_HRQR);

    529  0 000011   000000 471700                    LDP1  ! 0,,PR0
         0 000012   000001 236200 1                  LDQ   ! 1
         0 000013   200005 756300                    STQ   ! @SYMB$+2,,AUTO
         0 000014   200004 451700                    STP1  ! @SYMB$+1,,AUTO
         0 000015   200004 630700                    EPPR0 ! @SYMB$+1,,AUTO
         0 000016   000020 631600 xsym               EPPR1 ! B_VECTNIL+16
         0 000017   000000 701200 xent               TSX1  ! FOM$EVENT
         0 000020   000000 011200                    NOP   ! 0

     1189      530    3             RETURN;

    530  0 000021   000000 702200 xent               TSX2  ! X66_ARET

     1190      531    3             END;
     1191      532    2           END;

     1192      533        /**/
     1193      534    1   END FOM$TIMR;

    534  0 000022   000000 702200 xent               TSX2  ! X66_ARET

(unnamed)
 Sect OctLoc
   1     000   777777 577777   000000 006000                                    ........
     1194      535        /**/
     1195      536        /**/
     1196      537        %EOD;

PL6.E3A0      #003=FOM$TIMR File=FOM$MOOS.:E05TSI                                TUE 07/29/97 17:09 Page:154
--  Include file information  --

   FOM_DATA_R.:E05TOU  cannot be made into a system file and is referenced.
   N$REQ.:E05TOU  is referenced.
   FOM$STRUCT.:E05TOU  is referenced.
      No diagnostics issued in procedure FOM$TIMR.
PL6.E3A0      #003=FOM$TIMR File=FOM$MOOS.:E05TSI                                TUE 07/29/97 17:09 Page:155

 **** Variables and constants ****

  ****  Auto variables  ****

  ****  Scalars and arrays  ****
OctLoc.c.b A Datatyp(siz) R M Lvl/name                 OctLoc.c.b A Datatyp(siz) R M Lvl/name

     3-0-0/w PTR         r     1 @SYMB$                    *0-0-0/w PTR         r     1 SYMB$

  ****  SYMREF variables  ****

  ****  Scalars and arrays  ****
OctLoc.c.b A Datatyp(siz) R M Lvl/name                 OctLoc.c.b A Datatyp(siz) R M Lvl/name

     0-0-0/w STRC        r     1 FOSE_HRQR

  ****  BASED and DCB variables  ****

  ****  Scalars and arrays  ****
OctLoc.c.b A Datatyp(siz) R M Lvl/name                 OctLoc.c.b A Datatyp(siz) R M Lvl/name

     0-0-0/w STRC(720)   r     1 FO$SYMB


   Procedure FOM$TIMR requires 19 words for executable code.
   Procedure FOM$TIMR requires 6 words of local(AUTO) storage.
PL6.E3A0      #003=FOM$TIMR File=FOM$MOOS.:E05TSI                                TUE 07/29/97 17:09 Page:156
          *** CROSS REFERENCE LISTING ***
**     DENOTES     IDENTIFIER DEFINITION
<<                 IDENTIFIER'S VALUE SET
>>                 IDENTIFIER'S VALUE USED
<>                 IDENTIFIER SET AND/OR USED
--                 IDENTIFIER REFERENCED
PL6.E3A0      #003=FOM$TIMR File=FOM$MOOS.:E05TSI                                TUE 07/29/97 17:09 Page:157
          MINI XREF LISTING

FO$SYMB
       434**DCL       529<>CALL
FO$SYMB.BR.BLK#
       435**DCL       436--REDEF
FO$SYMB.BR.REC#
       436**DCL       437--REDEF
FO$SYMB.BUF$
       434**DCL       435--REDEF
FO$SYMB.CUREXT.STAMP
       438**DCL       439--REDEF
FO$SYMB.HRQWAIT
       445**DCL       524>>IF        527<<ASSIGN
FO$SYMB.SPACEPAGES
       442**DCL       443--REDEF
FOM$EVENT
       519**DCL-ENT   529--CALL
FOSE_HRQR
       363**DCL       529<>CALL
N$REQ.BUFADDR
       473**DCL       474--REDEF     474--REDEF
N$REQ.DLA.DRELADDR
       465**DCL       465--REDEF
N$REQ.DVE.EOMCHAR
       502**DCL       503--REDEF
N$REQ.EAINFO
       496**DCL       496--REDEF
N$REQ.EAINFOX
       496**DCL       497--REDEF
N$REQ.EVNTINFO
       497**DCL       497--REDEF
N$REQ.STATUS
       478**DCL       484--REDEF
PL6.E3A0      #003=FOM$TIMR File=FOM$MOOS.:E05TSI                                TUE 07/29/97 17:09 Page:158
SYMB$
       417**DCL         8--PROC      524>>IF        527>>ASSIGN    529>>CALL

