VERSION E05

PL6.E3A0      #001=FOM_DATA_D File=FOM_DATA_D.:E05TSI                            TUE 07/29/97 17:11 Page:1
        1        1        /*M* FOM_DATA_D Data for monitor part of OUTSYM */
        2        2        /*T***********************************************************/
        3        3        /*T*                                                         */
        4        4        /*T* Copyright (c) Bull HN Information Systems Inc., 1997    */
        5        5        /*T*                                                         */
        6        6        /*T***********************************************************/
        7        7        /*X* DMC,PLM=4,IND=0,SDI=2,CTI=0,ENU=0,AND,DCI=4,CSU=2,ECU=4,THI=0,DTI=2 */
        8        8        /**/
        9        9        /**/
       10       10        FOM_DATA_D: PROC NOAUTO;
       11       11        /**/
       12       12        /* !   ! *//* Don't include this in the FOM_DATA_R file */
       13       13        %INCLUDE FOM_SUBS_C;
       14       76        %INCLUDE FOM$STRUCT;
       15      137        /* ! R ! *//* Do include this in the FOM_DATA_R file */
       16      138        /**/
       17      139    1   DCL FOM_WSQ UBIN STATIC SYMDEF;
       18      140        /**/
       19      141        /**/
       20      142        /*  SYMBIONT EVENTS AND POINTERS THERETO */
       21      143        /**/
       22      144        %FOM$SEVNT (NAME=FOSE_SWDN,STCLASS="CONSTANT SYMDEF",
       23      145              EVNT=FOSE_SWDN#,
       24      146              SPC=YES,
       25      147              BADF='0100'B, /* SHTD                             */
       26      148              NEWST=FOMS_ACTV#);
       27      163        %FOM$SEVNT (NAME=FOSE_NDSK,STCLASS="CONSTANT SYMDEF",
       28      164              EVNT=FOSE_NDSK#,
       29      165              OLDST=FOMS_ACTV#,
       30      166              NEWST=FOMS_IDLE#);
       31      181        %FOM$SEVNT (NAME=FOSE_IALN,STCLASS="CONSTANT SYMDEF",
       32      182              EVNT=FOSE_IALN#,
       33      183              OLDST=FOMS_ACTV#,
       34      184              NEWST=FOMS_IDLE#);
       35      199        %FOM$SEVNT (NAME=FOSE_DKIO,STCLASS="CONSTANT SYMDEF",
       36      200              EVNT=FOSE_DKIO#,
       37      201              OLDST=FOMS_ACTV#,
PL6.E3A0      #001=FOM_DATA_D File=FOM_DATA_D.:E05TSI                            TUE 07/29/97 17:11 Page:2
       38      202              NEWST=FOMS_DKIO#);
       39      217        %FOM$SEVNT (NAME=FOSE_LDIO,STCLASS="CONSTANT SYMDEF",
       40      218              EVNT=FOSE_LDIO#,
       41      219              OLDST=FOMS_DKIO#,
       42      220              NEWST=FOMS_DVIO#);
       43      235        %FOM$SEVNT (NAME=FOSE_RDII,STCLASS="CONSTANT SYMDEF",
       44      236              EVNT=FOSE_RDII#,
       45      237              OLDST=FOMS_DKIO#,
       46      238              NEWST=FOMS_ACTV#);
       47      253        %FOM$SEVNT (NAME=FOSE_RDIC,STCLASS="CONSTANT SYMDEF",
       48      254              EVNT=FOSE_RDIC#,
       49      255              OLDST=FOMS_ACTV#,
       50      256              NEWST=FOMS_DVIO#);
       51      271        %FOM$SEVNT (NAME=FOSE_RDID,STCLASS="CONSTANT SYMDEF",
       52      272              EVNT=FOSE_RDID#,
       53      273              OLDST=FOMS_ACTV#,
       54      274              NEWST=FOMS_DKIO#);
       55      289        %FOM$SEVNT (NAME=FOSE_SHTD,STCLASS="CONSTANT SYMDEF",
       56      290              EVNT=FOSE_SHTD#,
       57      291              OLDST=0,
       58      292              SPC=YES,
       59      293              BADF='0111'B, /* SHTD|IDSC|FDSC                   */
       60      294              NEWST=0);
       61      309        %FOM$SEVNT (NAME=FOSE_IDSC,STCLASS="CONSTANT SYMDEF",
       62      310              EVNT=FOSE_IDSC#,
       63      311              OLDST=0,
       64      312              SPC=YES,
       65      313              BADF='0011'B, /* IDSC|FDSC                        */
       66      314              NEWST=0);
       67      329        %FOM$SEVNT (NAME=FOSE_FDSC,STCLASS="CONSTANT SYMDEF",
       68      330              EVNT=FOSE_FDSC#,
       69      331              OLDST=FOMS_DCMP#,
       70      332              SPC=YES,
       71      333              BADF='0010'B, /* FDSC                             */
       72      334              NEWST=0);
       73      349        %FOM$SEVNT (NAME=FOSE_HLTR,STCLASS="CONSTANT SYMDEF",
       74      350              EVNT=FOSE_HLTR#,
PL6.E3A0      #001=FOM_DATA_D File=FOM_DATA_D.:E05TSI                            TUE 07/29/97 17:11 Page:3
       75      351              OLDST=0,
       76      352              SPC=YES,
       77      353              BADF='0'B,
       78      354              NEWST=0);
       79      369        %FOM$SEVNT (NAME=FOSE_HRQR,STCLASS="CONSTANT SYMDEF",
       80      370              EVNT=FOSE_HRQR#,
       81      371              OLDST=FOMS_HRQW#,
       82      372              SPC=YES,
       83      373              BADF='0'B,
       84      374              NEWST=0);
       85      389        %FOM$SEVNT (NAME=FOSE_DGDN,STCLASS="CONSTANT SYMDEF",
       86      390              EVNT=FOSE_DGDN#,
       87      391              OLDST=FOMS_DKIO#,
       88      392              BADF='0100'B, /* SHTD                             */
       89      393              NEWST=FOMS_ACTV#);
       90      408        %FOM$SEVNT (NAME=FOSE_FSPA,STCLASS="CONSTANT SYMDEF",
       91      409              EVNT=FOSE_FSPA#,
       92      410              OLDST=FOMS_DKIO#,
       93      411              SPC=YES,
       94      412              BADF='0100'B, /* SHTD                             */
       95      413              NEWST=0);
       96      428        %FOM$SEVNT (NAME=FOSE_SPEF,STCLASS="CONSTANT SYMDEF",
       97      429              EVNT=FOSE_SPEF#,
       98      430              OLDST=FOMS_ACTV#,
       99      431              SPC=YES,
      100      432              BADF='0100'B, /* SHTD                             */
      101      433              NEWST=0);
      102      448        /**/
      103      449        /**/
      104      450    1   END FOM_DATA_D;
      105      451        /**/

PL6.E3A0      #001=FOM_DATA_D File=FOM_DATA_D.:E05TSI                            TUE 07/29/97 17:11 Page:4
--  Include file information  --

   FOM$STRUCT.:E05TOU  is referenced.
   FOM_SUBS_C.:E05TOU  is referenced.
      No diagnostics issued in procedure FOM_DATA_D.

   No code generated for procedure FOM_DATA_D .
   Procedure FOM_DATA_D is declared NOAUTO and requires 2 words of local(STATIC) storage.

    No errors detected in file FOM_DATA_D.:E05TSI    .

PL6.E3A0      #001=FOM_DATA_D File=FOM_DATA_D.:E05TSI                            TUE 07/29/97 17:11 Page:5

 Object Unit name= FOM_DATA_D                                 File name= FOM_DATA_D.:E05TOU
 UTS= JUL 29 '97 17:11:37.92 TUE                              Compiler= PL-6/E31         Sev=      00
 SharedLib= :SHARED_SYSTEM                                    Alt SharedLib=


    ****  Control sections  ****

 Sect   Type Bound  Init  Size OctSiz  Section name(segment info)
    0   Data  even  none     2      2  FOM_DATA_D
    1  RoData even  UTS     16     20  FOM_DATA_D
    2   Proc  even  none     0      0  FOM_DATA_D

    ****  Entry defs  ****

                              Check   Calling
                             calling  sequence
  Sect OctLoc Primary Altret sequence   type   Parms  Name
     2      0   yes            yes     ~proc       0  FOM_DATA_D
PL6.E3A0      #001=FOM_DATA_D File=FOM_DATA_D.:E05TSI                            TUE 07/29/97 17:11 Page:6

  ****  Data defs  ****

 Sect OctLoc  Name                           Sect OctLoc  Name
    0      1  FOM_WSQ                            1      0  FOSE_SWDN
    1      1  FOSE_NDSK                          1      2  FOSE_IALN
    1      3  FOSE_DKIO                          1      4  FOSE_LDIO
    1      5  FOSE_RDII                          1      6  FOSE_RDIC
    1      7  FOSE_RDID                          1     10  FOSE_SHTD
    1     11  FOSE_IDSC                          1     12  FOSE_FDSC
    1     13  FOSE_HLTR                          1     14  FOSE_HRQR
    1     15  FOSE_DGDN                          1     16  FOSE_FSPA
    1     17  FOSE_SPEF
PL6.E3A0      #001=FOM_DATA_D File=FOM_DATA_D.:E05TSI                            TUE 07/29/97 17:11 Page:7


(unnamed)
 Sect OctLoc
   1     000   001000 404006   002006 000000   020006 000000   003006 000002    ................
   1     004   004002 000003   015002 000006   016006 000003   017006 000002    ................
   1     010   005000 407000   006000 403000   007004 402000   010000 400000    ................
   1     014   011007 400000   012002 004006   013002 404000   014006 404000    ................
        1        1        /*M* FOM_DATA_D Data for monitor part of OUTSYM */
        2        2        /*T***********************************************************/
        3        3        /*T*                                                         */
        4        4        /*T* Copyright (c) Bull HN Information Systems Inc., 1997    */
        5        5        /*T*                                                         */
        6        6        /*T***********************************************************/
        7        7        /*X* DMC,PLM=4,IND=0,SDI=2,CTI=0,ENU=0,AND,DCI=4,CSU=2,ECU=4,THI=0,DTI=2 */
        8        8        /**/
        9        9        /**/
       10       10        FOM_DATA_D: PROC NOAUTO;
       11       11        /**/
       12       12        /* !   ! *//* Don't include this in the FOM_DATA_R file */
       13       13        %INCLUDE FOM_SUBS_C;
       14       76        %INCLUDE FOM$STRUCT;
       15      137        /* ! R ! *//* Do include this in the FOM_DATA_R file */
       16      138        /**/
       17      139    1   DCL FOM_WSQ UBIN STATIC SYMDEF;
       18      140        /**/
       19      141        /**/
       20      142        /*  SYMBIONT EVENTS AND POINTERS THERETO */
       21      143        /**/
       22      144        %FOM$SEVNT (NAME=FOSE_SWDN,STCLASS="CONSTANT SYMDEF",
       23      145              EVNT=FOSE_SWDN#,
       24      146              SPC=YES,
       25      147              BADF='0100'B, /* SHTD                             */
       26      148              NEWST=FOMS_ACTV#);
       27      163        %FOM$SEVNT (NAME=FOSE_NDSK,STCLASS="CONSTANT SYMDEF",
       28      164              EVNT=FOSE_NDSK#,
       29      165              OLDST=FOMS_ACTV#,
       30      166              NEWST=FOMS_IDLE#);
PL6.E3A0      #001=FOM_DATA_D File=FOM_DATA_D.:E05TSI                            TUE 07/29/97 17:11 Page:8
       31      181        %FOM$SEVNT (NAME=FOSE_IALN,STCLASS="CONSTANT SYMDEF",
       32      182              EVNT=FOSE_IALN#,
       33      183              OLDST=FOMS_ACTV#,
       34      184              NEWST=FOMS_IDLE#);
       35      199        %FOM$SEVNT (NAME=FOSE_DKIO,STCLASS="CONSTANT SYMDEF",
       36      200              EVNT=FOSE_DKIO#,
       37      201              OLDST=FOMS_ACTV#,
       38      202              NEWST=FOMS_DKIO#);
       39      217        %FOM$SEVNT (NAME=FOSE_LDIO,STCLASS="CONSTANT SYMDEF",
       40      218              EVNT=FOSE_LDIO#,
       41      219              OLDST=FOMS_DKIO#,
       42      220              NEWST=FOMS_DVIO#);
       43      235        %FOM$SEVNT (NAME=FOSE_RDII,STCLASS="CONSTANT SYMDEF",
       44      236              EVNT=FOSE_RDII#,
       45      237              OLDST=FOMS_DKIO#,
       46      238              NEWST=FOMS_ACTV#);
       47      253        %FOM$SEVNT (NAME=FOSE_RDIC,STCLASS="CONSTANT SYMDEF",
       48      254              EVNT=FOSE_RDIC#,
       49      255              OLDST=FOMS_ACTV#,
       50      256              NEWST=FOMS_DVIO#);
       51      271        %FOM$SEVNT (NAME=FOSE_RDID,STCLASS="CONSTANT SYMDEF",
       52      272              EVNT=FOSE_RDID#,
       53      273              OLDST=FOMS_ACTV#,
       54      274              NEWST=FOMS_DKIO#);
       55      289        %FOM$SEVNT (NAME=FOSE_SHTD,STCLASS="CONSTANT SYMDEF",
       56      290              EVNT=FOSE_SHTD#,
       57      291              OLDST=0,
       58      292              SPC=YES,
       59      293              BADF='0111'B, /* SHTD|IDSC|FDSC                   */
       60      294              NEWST=0);
       61      309        %FOM$SEVNT (NAME=FOSE_IDSC,STCLASS="CONSTANT SYMDEF",
       62      310              EVNT=FOSE_IDSC#,
       63      311              OLDST=0,
       64      312              SPC=YES,
       65      313              BADF='0011'B, /* IDSC|FDSC                        */
       66      314              NEWST=0);
       67      329        %FOM$SEVNT (NAME=FOSE_FDSC,STCLASS="CONSTANT SYMDEF",
PL6.E3A0      #001=FOM_DATA_D File=FOM_DATA_D.:E05TSI                            TUE 07/29/97 17:11 Page:9
       68      330              EVNT=FOSE_FDSC#,
       69      331              OLDST=FOMS_DCMP#,
       70      332              SPC=YES,
       71      333              BADF='0010'B, /* FDSC                             */
       72      334              NEWST=0);
       73      349        %FOM$SEVNT (NAME=FOSE_HLTR,STCLASS="CONSTANT SYMDEF",
       74      350              EVNT=FOSE_HLTR#,
       75      351              OLDST=0,
       76      352              SPC=YES,
       77      353              BADF='0'B,
       78      354              NEWST=0);
       79      369        %FOM$SEVNT (NAME=FOSE_HRQR,STCLASS="CONSTANT SYMDEF",
       80      370              EVNT=FOSE_HRQR#,
       81      371              OLDST=FOMS_HRQW#,
       82      372              SPC=YES,
       83      373              BADF='0'B,
       84      374              NEWST=0);
       85      389        %FOM$SEVNT (NAME=FOSE_DGDN,STCLASS="CONSTANT SYMDEF",
       86      390              EVNT=FOSE_DGDN#,
       87      391              OLDST=FOMS_DKIO#,
       88      392              BADF='0100'B, /* SHTD                             */
       89      393              NEWST=FOMS_ACTV#);
       90      408        %FOM$SEVNT (NAME=FOSE_FSPA,STCLASS="CONSTANT SYMDEF",
       91      409              EVNT=FOSE_FSPA#,
       92      410              OLDST=FOMS_DKIO#,
       93      411              SPC=YES,
       94      412              BADF='0100'B, /* SHTD                             */
       95      413              NEWST=0);
       96      428        %FOM$SEVNT (NAME=FOSE_SPEF,STCLASS="CONSTANT SYMDEF",
       97      429              EVNT=FOSE_SPEF#,
       98      430              OLDST=FOMS_ACTV#,
       99      431              SPC=YES,
      100      432              BADF='0100'B, /* SHTD                             */
      101      433              NEWST=0);
      102      448        /**/
      103      449        /**/
      104      450    1   END FOM_DATA_D;
PL6.E3A0      #001=FOM_DATA_D File=FOM_DATA_D.:E05TSI                            TUE 07/29/97 17:11 Page:10
      105      451        /**/

PL6.E3A0      #001=FOM_DATA_D File=FOM_DATA_D.:E05TSI                            TUE 07/29/97 17:11 Page:11
--  Include file information  --

   FOM$STRUCT.:E05TOU  is referenced.
   FOM_SUBS_C.:E05TOU  is referenced.
      No diagnostics issued in procedure FOM_DATA_D.
PL6.E3A0      #001=FOM_DATA_D File=FOM_DATA_D.:E05TSI                            TUE 07/29/97 17:11 Page:12

 **** Variables and constants ****


   No code generated for procedure FOM_DATA_D .
   Procedure FOM_DATA_D is declared NOAUTO and requires 2 words of local(STATIC) storage.

    No errors detected in file FOM_DATA_D.:E05TSI    .
PL6.E3A0      #001=FOM_DATA_D File=FOM_DATA_D.:E05TSI                            TUE 07/29/97 17:11 Page:13
          *** CROSS REFERENCE LISTING ***
**     DENOTES     IDENTIFIER DEFINITION
<<                 IDENTIFIER'S VALUE SET
>>                 IDENTIFIER'S VALUE USED
<>                 IDENTIFIER SET AND/OR USED
--                 IDENTIFIER REFERENCED
PL6.E3A0      #001=FOM_DATA_D File=FOM_DATA_D.:E05TSI                            TUE 07/29/97 17:11 Page:14
          MINI XREF LISTING

