VERSION E05

PL6.E3A0      #001=FOO_DATA_D File=FOO_DATA_D.:E05TSI                            TUE 07/29/97 17:13 Page:1
        1        1        /*M* FOO_DATA_D Data SYMDEFs for ghost part of OUTSYM */
        2        2        /*T***********************************************************/
        3        3        /*T*                                                         */
        4        4        /*T* Copyright (c) Bull HN Information Systems Inc., 1997    */
        5        5        /*T*                                                         */
        6        6        /*T***********************************************************/
        7        7        /*X* DMC,DFC */
        8        8        /**/
        9        9        /**/
       10       10        FOO_DATA_D: PROC NOAUTO;
       11       11        /**/
       12       12        /**/
       13       13        /* !   ! *//* Don't include this in the FOO_DATA_R file */
       14       14        %INCLUDE CP_6;
       15       95        %INCLUDE FOO_SUBS_C;
       16      331        %INCLUDE FOS_SUBS_C;
       17      348        %INCLUDE FS$FIT;
       18      391        %INCLUDE FOO_MAC_C;
       19     1139        /* ! R ! *//* Do include this in the FOO_DATA_R file */
       20     1140        %FO_DKEYIN (FPTN=FO$DKEYIN, STCLASS=BASED);
       21     1172        %FO_FKEYIN (FPTN=FO$FKEYIN, STCLASS=BASED);
       22     1202        %FO_RKEYIN (FPTN=FO$RKEYIN, STCLASS=BASED);
       23     1228        %FO_DEV    (FPTN=FO$DEV,    STCLASS=BASED);
       24     1327        %FO_EVNT   (FPTN=FO$EVNT,   STCLASS=BASED);
       25     1346        %FO_EXT    (FPTN=FO$EXT,    STCLASS=BASED);
       26     1367        %FO_FIL    (FPTN=FO$FIL,    STCLASS=BASED);
       27     1467        %FO_JOB    (FPTN=FO$JOB,    STCLASS=BASED);
       28     1514        %FO_WSN    (FPTN=FO$WSN,    STCLASS=BASED);
       29     1552        %FO_Q      (FPTN=FO$Q,      STCLASS=BASED);
       30     1573        /**/
       31     1574    1   DCL FO_CSCGBUF CHAR(140) STATIC SYMDEF DALIGNED INIT(' ');
       32     1575    1   DCL FO_OSCGBUF CHAR(100) STATIC SYMDEF DALIGNED INIT(' ');
       33     1576    1   DCL FO_FITBUF1 (0:2047) UBIN WORD STATIC SYMDEF ALIGNED INIT(0*0);
       34     1577    1   DCL FO_EVHD$  PTR STATIC SYMDEF ALIGNED INIT(ADDR(NIL));
       35     1578    1   DCL FO_EVTL$  PTR STATIC SYMDEF ALIGNED INIT(ADDR(NIL));
       36     1579    1   DCL FO_FEVHD$  PTR STATIC SYMDEF ALIGNED INIT(ADDR(FO_EVQ(0)));
       37     1580    1   DCL FO_FEVTL$ PTR STATIC SYMDEF ALIGNED INIT(ADDR(FO_EVQ(FOMI_EVMX#)));
PL6.E3A0      #001=FOO_DATA_D File=FOO_DATA_D.:E05TSI                            TUE 07/29/97 17:13 Page:2
       38     1581    1   DCL FO_FIL$ PTR STATIC SYMDEF ALIGNED INIT(ADDR(NIL));
       39     1582    1   DCL FO_DEV$ PTR STATIC SYMDEF ALIGNED INIT(ADDR(NIL));
       40     1583    1   DCL FO_JOB$ PTR STATIC SYMDEF ALIGNED INIT(ADDR(NIL));
       41     1584    1   DCL FO_BOOTID CHAR(3) STATIC SYMDEF ALIGNED;
       42     1585        /**/
       43     1586        %FPT_MONINFO                           (FPTN=GET_SYMBINFO,
       44     1587                 SYMBINFO  = FO_SYMBINFO,
       45     1588                 STCLASS   ="CONSTANT SYMDEF");
       46     1603        %VLR_SYMBINFO                          (FPTN=FO_SYMBINFO,
       47     1604                 STCLASS   ="STATIC SYMDEF");
       48     1620        /**/
       49     1621        %FS_OSFN                               (FPTN=FO_FILENAME,
       50     1622                 TXBOOTID  = 'zzz',
       51     1623                 TXSYSID   = '000000',
       52     1624                 TXNUM     = '000000',
       53     1625                 TXCNUM    = '000',
       54     1626                 STCLASS   ="STATIC SYMDEF");
       55     1640        /**/
       56     1641    1   DCL 1 FO_OSYMBKEY STATIC SYMDEF ALIGNED,
       57     1642    1         2 LEN UBIN BYTE UNAL INIT(8),
       58     1643    1         2 NAME CHAR(8) UNAL;
       59     1644    1   DCL 1 FO_OSYMBKEYROUTE STATIC SYMDEF ALIGNED,
       60     1645    1         2 KEY UBIN WORD UNAL INIT(0);
       61     1646        %FO_RKEYIN (FPTN=FO_OSYMBKEYIN,STCLASS="STATIC SYMDEF");
       62     1672        %FO_OSYMBREC (FPTN=FO_OSYMBUF,STCLASS="STATIC SYMDEF");
       63     1816        /**/
       64     1817    1   DCL FO_DET UBIN WORD STATIC SYMDEF ALIGNED INIT(1);
       65     1818    1   DCL FO_DETX UBIN WORD STATIC SYMDEF ALIGNED INIT(0);
       66     1819    1   DCL 1 FO_DETL (0:FOMI_DTMX#) STATIC SYMDEF ALIGNED,
       67     1820    1         2 CODE UBIN HALF UNAL INIT(0*0),
       68     1821    1         2 INFO UBIN HALF UNAL INIT(0*0),
       69     1822    1         2 DEVF,
       70     1823    1           3 * CHAR(76) UNAL INIT(' '*0);
       71     1824        /**/
       72     1825        %FO_FIL                                (FPTN=FO_FIL_INIT,
       73     1826                 STCLASS   ="CONSTANT SYMDEF");
       74     1926        %FO_DEV                                (FPTN=FO_DEV_INIT,
PL6.E3A0      #001=FOO_DATA_D File=FOO_DATA_D.:E05TSI                            TUE 07/29/97 17:13 Page:3
       75     1927                 STCLASS   ="CONSTANT SYMDEF");
       76     2026        %FO_WSN                                (FPTN=FO_WSN_INIT,
       77     2027                 STCLASS   ="CONSTANT SYMDEF");
       78     2065        %FO_JOB                                (FPTN=FO_JOB_INIT,
       79     2066                 STCLASS   ="CONSTANT SYMDEF");
       80     2113        %FO_EVNT                               (FPTN="FO_EVQ(0:FOMI_EVMX#)",
       81     2114                 STCLASS   ="STATIC SYMDEF");
       82     2133        %FO_Q                                  (FPTN=FO_Q,
       83     2134                 STCLASS   ="STATIC SYMDEF");
       84     2155        /**/
       85     2156        /* SEGMENT CONTROL BLOCKS */
       86     2157        /**/
       87     2158        %FO_SCB                               (FPTN=FO_FFRSCB,
       88     2159                 SEG       = FOSN_FFR#,
       89     2160                 FSIZ      = 3072,
       90     2161                 MAP       = NO,
       91     2162                 NPG       = 3,
       92     2163                 STCLASS   = "STATIC SYMDEF");
       93     2193        %FO_SCB                                (FPTN=FO_DEVSCB,
       94     2194                 SEG       = FOSN_DEV#,
       95     2195                 FSIZ      ="SIZEW(FO$DEV)",
       96     2196                 MAP       = YES,
       97     2197                 MAPSEG    = FOSS_SYMDEV#,
       98     2198                 NPG       = 1,
       99     2199                 STCLASS   ="STATIC SYMDEF");
      100     2229        %FO_SCB                                (FPTN=FO_FILSCB,
      101     2230                 SEG       = FOSN_FIL#,
      102     2231                 FSIZ      ="SIZEW(FO$FIL)",
      103     2232                 MAP       = YES,
      104     2233                 MAPSEG    = FOSS_SYMFIL#,
      105     2234                 NPG       = 1,
      106     2235                 STCLASS   ="STATIC SYMDEF");
      107     2265        %FO_SCB                                (FPTN=FO_EXTSCB,
      108     2266                 SEG       = FOSN_EXT#,
      109     2267                 FSIZ      ="SIZEW(FO$EXT)",
      110     2268                 MAP       = NO,
      111     2269                 NPG       = 1,
PL6.E3A0      #001=FOO_DATA_D File=FOO_DATA_D.:E05TSI                            TUE 07/29/97 17:13 Page:4
      112     2270                 STCLASS   ="STATIC SYMDEF");
      113     2300        %FO_SCB                                (FPTN=FO_SPGSCB,
      114     2301                 SEG       = FOSN_SPG#,
      115     2302                 FSIZ      = 1024,
      116     2303                 MAP       = NO,
      117     2304                 NPG       = 1,
      118     2305                 STCLASS   ="STATIC SYMDEF");
      119     2335        %FO_SCB                                (FPTN=FO_JOBSCB,
      120     2336                 SEG       = FOSN_JOB#,
      121     2337                 FSIZ      ="SIZEW(FO_JOB_INIT)",
      122     2338                 MAP       = YES,
      123     2339                 MAPSEG    = FOSS_SYMJOB#,
      124     2340                 NPG       = 1,
      125     2341                 STCLASS   ="STATIC SYMDEF");
      126     2371        /**/
      127     2372    1   END;
      128     2373        /**/
      129     2374        /**/

PL6.E3A0      #001=FOO_DATA_D File=FOO_DATA_D.:E05TSI                            TUE 07/29/97 17:13 Page:5
--  Include file information  --

   FOO_MAC_C.:E05TOU  is referenced.
   FS$FIT.:E05TOU  is referenced.
   FOS_SUBS_C.:E05TOU  is referenced.
   FOO_SUBS_C.:E05TOU  is referenced.
   CP_6.:E05TOU  cannot be made into a system file and is referenced.
   B$JIT_C.:E05TOU  was found in the system file and is never referenced.
   CP_6_C.:E05TOU  was found in the system file and is referenced.
      No diagnostics issued in procedure FOO_DATA_D.

   No code generated for procedure FOO_DATA_D .
   Procedure FOO_DATA_D is declared NOAUTO and requires 3216 words of local(STATIC) storage.

    No errors detected in file FOO_DATA_D.:E05TSI    .

PL6.E3A0      #001=FOO_DATA_D File=FOO_DATA_D.:E05TSI                            TUE 07/29/97 17:13 Page:6

 Object Unit name= FOO_DATA_D                                 File name= FOO_DATA_D.:E05TOU
 UTS= JUL 29 '97 17:13:19.88 TUE                              Compiler= PL-6/E31         Sev=      00
 SharedLib= :SHARED_SYSTEM                                    Alt SharedLib=


    ****  Control sections  ****

 Sect   Type Bound  Init  Size OctSiz  Section name(segment info)
    0   Data  even  none  3216   6220  FOO_DATA_D
    1   DCB   even  none     0      0  M$UC
    2  RoData even  UTS     90    132  FOO_DATA_D
    3   Proc  even  none     0      0  FOO_DATA_D

    ****  Entry defs  ****

                              Check   Calling
                             calling  sequence
  Sect OctLoc Primary Altret sequence   type   Parms  Name
     3      0   yes            yes     ~proc       0  FOO_DATA_D
PL6.E3A0      #001=FOO_DATA_D File=FOO_DATA_D.:E05TSI                            TUE 07/29/97 17:13 Page:7

  ****  Data defs  ****

 Sect OctLoc  Name                           Sect OctLoc  Name
    0      2  FO_CSCGBUF                         0     46  FO_OSCGBUF
    0    100  FO_FITBUF1                         0   4100  FO_EVHD$
    0   4101  FO_EVTL$                           0   4102  FO_FEVHD$
    0   4103  FO_FEVTL$                          0   4104  FO_FIL$
    0   4105  FO_DEV$                            0   4106  FO_JOB$
    0   4107  FO_BOOTID                          2      0  GET_SYMBINFO
    0   4110  FO_SYMBINFO                        0   4150  FO_FILENAME
    0   4155  FO_OSYMBKEY                        0   4160  FO_OSYMBKEYROUTE
    0   4161  FO_OSYMBKEYIN                      0   4173  FO_OSYMBUF
    0   5323  FO_DET                             0   5324  FO_DETX
    0   5325  FO_DETL                            2     14  FO_FIL_INIT
    2     61  FO_DEV_INIT                        2    104  FO_WSN_INIT
    2    117  FO_JOB_INIT                        0   6025  FO_EVQ
    0   6066  FO_Q                               0   6140  FO_FFRSCB
    0   6150  FO_DEVSCB                          0   6160  FO_FILSCB
    0   6170  FO_EXTSCB                          0   6200  FO_SPGSCB
    0   6210  FO_JOBSCB

  ****  Data refs  ****

  Flags:  r = read only, s = secondary
Flgs Name                             Flgs Name                             Flgs Name
     M$UC

  ****  Segment refs  ****

  Flags:  r = read only, s = secondary
Flgs Name                             Flgs Name                             Flgs Name
     NULLSID                               ISSID
PL6.E3A0      #001=FOO_DATA_D File=FOO_DATA_D.:E05TSI                            TUE 07/29/97 17:13 Page:8

        1        1        /*M* FOO_DATA_D Data SYMDEFs for ghost part of OUTSYM */
        2        2        /*T***********************************************************/
        3        3        /*T*                                                         */
        4        4        /*T* Copyright (c) Bull HN Information Systems Inc., 1997    */
        5        5        /*T*                                                         */
        6        6        /*T***********************************************************/
        7        7        /*X* DMC,DFC */
        8        8        /**/
        9        9        /**/
       10       10        FOO_DATA_D: PROC NOAUTO;
       11       11        /**/
       12       12        /**/
       13       13        /* !   ! *//* Don't include this in the FOO_DATA_R file */
       14       14        %INCLUDE CP_6;
       15       95        %INCLUDE FOO_SUBS_C;
       16      331        %INCLUDE FOS_SUBS_C;
       17      348        %INCLUDE FS$FIT;
       18      391        %INCLUDE FOO_MAC_C;
       19     1139        /* ! R ! *//* Do include this in the FOO_DATA_R file */
       20     1140        %FO_DKEYIN (FPTN=FO$DKEYIN, STCLASS=BASED);
       21     1172        %FO_FKEYIN (FPTN=FO$FKEYIN, STCLASS=BASED);
       22     1202        %FO_RKEYIN (FPTN=FO$RKEYIN, STCLASS=BASED);
       23     1228        %FO_DEV    (FPTN=FO$DEV,    STCLASS=BASED);
       24     1327        %FO_EVNT   (FPTN=FO$EVNT,   STCLASS=BASED);
       25     1346        %FO_EXT    (FPTN=FO$EXT,    STCLASS=BASED);
       26     1367        %FO_FIL    (FPTN=FO$FIL,    STCLASS=BASED);
       27     1467        %FO_JOB    (FPTN=FO$JOB,    STCLASS=BASED);
       28     1514        %FO_WSN    (FPTN=FO$WSN,    STCLASS=BASED);
       29     1552        %FO_Q      (FPTN=FO$Q,      STCLASS=BASED);
       30     1573        /**/
       31     1574    1   DCL FO_CSCGBUF CHAR(140) STATIC SYMDEF DALIGNED INIT(' ');
       32     1575    1   DCL FO_OSCGBUF CHAR(100) STATIC SYMDEF DALIGNED INIT(' ');
       33     1576    1   DCL FO_FITBUF1 (0:2047) UBIN WORD STATIC SYMDEF ALIGNED INIT(0*0);
       34     1577    1   DCL FO_EVHD$  PTR STATIC SYMDEF ALIGNED INIT(ADDR(NIL));
       35     1578    1   DCL FO_EVTL$  PTR STATIC SYMDEF ALIGNED INIT(ADDR(NIL));
       36     1579    1   DCL FO_FEVHD$  PTR STATIC SYMDEF ALIGNED INIT(ADDR(FO_EVQ(0)));
       37     1580    1   DCL FO_FEVTL$ PTR STATIC SYMDEF ALIGNED INIT(ADDR(FO_EVQ(FOMI_EVMX#)));
PL6.E3A0      #001=FOO_DATA_D File=FOO_DATA_D.:E05TSI                            TUE 07/29/97 17:13 Page:9
       38     1581    1   DCL FO_FIL$ PTR STATIC SYMDEF ALIGNED INIT(ADDR(NIL));
       39     1582    1   DCL FO_DEV$ PTR STATIC SYMDEF ALIGNED INIT(ADDR(NIL));
       40     1583    1   DCL FO_JOB$ PTR STATIC SYMDEF ALIGNED INIT(ADDR(NIL));
       41     1584    1   DCL FO_BOOTID CHAR(3) STATIC SYMDEF ALIGNED;
       42     1585        /**/
       43     1586        %FPT_MONINFO                           (FPTN=GET_SYMBINFO,
       44     1587                 SYMBINFO  = FO_SYMBINFO,
       45     1588                 STCLASS   ="CONSTANT SYMDEF");
       46     1603        %VLR_SYMBINFO                          (FPTN=FO_SYMBINFO,
       47     1604                 STCLASS   ="STATIC SYMDEF");
       48     1620        /**/
       49     1621        %FS_OSFN                               (FPTN=FO_FILENAME,
       50     1622                 TXBOOTID  = 'zzz',
       51     1623                 TXSYSID   = '000000',
       52     1624                 TXNUM     = '000000',
       53     1625                 TXCNUM    = '000',
       54     1626                 STCLASS   ="STATIC SYMDEF");
       55     1640        /**/
       56     1641    1   DCL 1 FO_OSYMBKEY STATIC SYMDEF ALIGNED,
       57     1642    1         2 LEN UBIN BYTE UNAL INIT(8),
       58     1643    1         2 NAME CHAR(8) UNAL;
       59     1644    1   DCL 1 FO_OSYMBKEYROUTE STATIC SYMDEF ALIGNED,
       60     1645    1         2 KEY UBIN WORD UNAL INIT(0);
       61     1646        %FO_RKEYIN (FPTN=FO_OSYMBKEYIN,STCLASS="STATIC SYMDEF");
       62     1672        %FO_OSYMBREC (FPTN=FO_OSYMBUF,STCLASS="STATIC SYMDEF");
       63     1816        /**/
       64     1817    1   DCL FO_DET UBIN WORD STATIC SYMDEF ALIGNED INIT(1);
       65     1818    1   DCL FO_DETX UBIN WORD STATIC SYMDEF ALIGNED INIT(0);
       66     1819    1   DCL 1 FO_DETL (0:FOMI_DTMX#) STATIC SYMDEF ALIGNED,
       67     1820    1         2 CODE UBIN HALF UNAL INIT(0*0),
       68     1821    1         2 INFO UBIN HALF UNAL INIT(0*0),
       69     1822    1         2 DEVF,
       70     1823    1           3 * CHAR(76) UNAL INIT(' '*0);
       71     1824        /**/
       72     1825        %FO_FIL                                (FPTN=FO_FIL_INIT,
       73     1826                 STCLASS   ="CONSTANT SYMDEF");
       74     1926        %FO_DEV                                (FPTN=FO_DEV_INIT,
PL6.E3A0      #001=FOO_DATA_D File=FOO_DATA_D.:E05TSI                            TUE 07/29/97 17:13 Page:10
       75     1927                 STCLASS   ="CONSTANT SYMDEF");
       76     2026        %FO_WSN                                (FPTN=FO_WSN_INIT,
       77     2027                 STCLASS   ="CONSTANT SYMDEF");
       78     2065        %FO_JOB                                (FPTN=FO_JOB_INIT,
       79     2066                 STCLASS   ="CONSTANT SYMDEF");
       80     2113        %FO_EVNT                               (FPTN="FO_EVQ(0:FOMI_EVMX#)",
       81     2114                 STCLASS   ="STATIC SYMDEF");
       82     2133        %FO_Q                                  (FPTN=FO_Q,
       83     2134                 STCLASS   ="STATIC SYMDEF");
       84     2155        /**/
       85     2156        /* SEGMENT CONTROL BLOCKS */
       86     2157        /**/
       87     2158        %FO_SCB                               (FPTN=FO_FFRSCB,
       88     2159                 SEG       = FOSN_FFR#,
       89     2160                 FSIZ      = 3072,
       90     2161                 MAP       = NO,
       91     2162                 NPG       = 3,
       92     2163                 STCLASS   = "STATIC SYMDEF");
       93     2193        %FO_SCB                                (FPTN=FO_DEVSCB,
       94     2194                 SEG       = FOSN_DEV#,
       95     2195                 FSIZ      ="SIZEW(FO$DEV)",
       96     2196                 MAP       = YES,
       97     2197                 MAPSEG    = FOSS_SYMDEV#,
       98     2198                 NPG       = 1,
       99     2199                 STCLASS   ="STATIC SYMDEF");
      100     2229        %FO_SCB                                (FPTN=FO_FILSCB,
      101     2230                 SEG       = FOSN_FIL#,
      102     2231                 FSIZ      ="SIZEW(FO$FIL)",
      103     2232                 MAP       = YES,
      104     2233                 MAPSEG    = FOSS_SYMFIL#,
      105     2234                 NPG       = 1,
      106     2235                 STCLASS   ="STATIC SYMDEF");
      107     2265        %FO_SCB                                (FPTN=FO_EXTSCB,
      108     2266                 SEG       = FOSN_EXT#,
      109     2267                 FSIZ      ="SIZEW(FO$EXT)",
      110     2268                 MAP       = NO,
      111     2269                 NPG       = 1,
PL6.E3A0      #001=FOO_DATA_D File=FOO_DATA_D.:E05TSI                            TUE 07/29/97 17:13 Page:11
      112     2270                 STCLASS   ="STATIC SYMDEF");
      113     2300        %FO_SCB                                (FPTN=FO_SPGSCB,
      114     2301                 SEG       = FOSN_SPG#,
      115     2302                 FSIZ      = 1024,
      116     2303                 MAP       = NO,
      117     2304                 NPG       = 1,
      118     2305                 STCLASS   ="STATIC SYMDEF");
      119     2335        %FO_SCB                                (FPTN=FO_JOBSCB,
      120     2336                 SEG       = FOSN_JOB#,
      121     2337                 FSIZ      ="SIZEW(FO_JOB_INIT)",
      122     2338                 MAP       = YES,
      123     2339                 MAPSEG    = FOSS_SYMJOB#,
      124     2340                 NPG       = 1,
      125     2341                 STCLASS   ="STATIC SYMDEF");
      126     2371        /**/
      127     2372    1   END;
      128     2373        /**/
      129     2374        /**/

PL6.E3A0      #001=FOO_DATA_D File=FOO_DATA_D.:E05TSI                            TUE 07/29/97 17:13 Page:12
--  Include file information  --

   FOO_MAC_C.:E05TOU  is referenced.
   FS$FIT.:E05TOU  is referenced.
   FOS_SUBS_C.:E05TOU  is referenced.
   FOO_SUBS_C.:E05TOU  is referenced.
   CP_6.:E05TOU  cannot be made into a system file and is referenced.
   B$JIT_C.:E05TOU  was found in the system file and is never referenced.
   CP_6_C.:E05TOU  was found in the system file and is referenced.
      No diagnostics issued in procedure FOO_DATA_D.
PL6.E3A0      #001=FOO_DATA_D File=FOO_DATA_D.:E05TSI                            TUE 07/29/97 17:13 Page:13

 **** Variables and constants ****

  ****  Section 000  Data  FOO_DATA_D

  ****  Scalars and arrays  ****
OctLoc.c.b A Datatyp(siz) R M Lvl/name                 OctLoc.c.b A Datatyp(siz) R M Lvl/name

  6025-0-0/w STRC(108)   r     1 FO_EVQ(0:10)            4110-0-0/w STRC(1152)  r     1 FO_SYMBINFO

  ****  Section 002 RoData FOO_DATA_D

  ****  Scalars and arrays  ****
OctLoc.c.b A Datatyp(siz) R M Lvl/name                 OctLoc.c.b A Datatyp(siz) R M Lvl/name

   117-0-0/w STRC(369)   r     1 FO_JOB_INIT

  ****  BASED and DCB variables  ****

  ****  Scalars and arrays  ****
OctLoc.c.b A Datatyp(siz) R M Lvl/name                 OctLoc.c.b A Datatyp(siz) R M Lvl/name

     0-0-0/w STRC(657)   r     1 FO$DEV                     0-0-0/w STRC(108)   r     1 FO$EXT
     0-0-0/w STRC(1332)  r     1 FO$FIL                     0-0-0/w ASTR(351)   r     1 FO$JOB


   No code generated for procedure FOO_DATA_D .
   Procedure FOO_DATA_D is declared NOAUTO and requires 3216 words of local(STATIC) storage.

    No errors detected in file FOO_DATA_D.:E05TSI    .
PL6.E3A0      #001=FOO_DATA_D File=FOO_DATA_D.:E05TSI                            TUE 07/29/97 17:13 Page:14
          *** CROSS REFERENCE LISTING ***
**     DENOTES     IDENTIFIER DEFINITION
<<                 IDENTIFIER'S VALUE SET
>>                 IDENTIFIER'S VALUE USED
<>                 IDENTIFIER SET AND/OR USED
--                 IDENTIFIER REFERENCED
PL6.E3A0      #001=FOO_DATA_D File=FOO_DATA_D.:E05TSI                            TUE 07/29/97 17:13 Page:15
          MINI XREF LISTING

FO$DEV
      1242**DCL      2213--DCLINIT
FO$DEV.NAME
      1256**DCL      1257--REDEF
FO$DEV.RACCT
      1324**DCL      1325--REDEF
FO$DKEYIN.CHKP
      1163**DCL      1164--REDEF
FO$DKEYIN.DEVNM
      1156**DCL      1157--REDEF
FO$DKEYIN.TNAME
      1168**DCL      1169--REDEF    1170--REDEF
FO$EXT
      1359**DCL      2284--DCLINIT
FO$FIL
      1380**DCL      2249--DCLINIT
FO$FIL.DEST
      1392**DCL      1393--REDEF
FO$FKEYIN.ACCT
      1197**DCL      1198--REDEF
FO$FKEYIN.NOTFORM
      1193**DCL      1194--REDEF
FO$JOB.JNL
      1504**DCL      1511--IMP-SIZ
FO$RKEYIN.DEVNM
      1220**DCL      1221--REDEF
FO_DEV_INIT.NAME
      1955**DCL      1956--REDEF
FO_DEV_INIT.RACCT
      2023**DCL      2024--REDEF
FO_EVQ
      2127**DCL      1579--DCLINIT  1580--DCLINIT
PL6.E3A0      #001=FOO_DATA_D File=FOO_DATA_D.:E05TSI                            TUE 07/29/97 17:13 Page:16
FO_FIL_INIT.DEST
      1851**DCL      1852--REDEF
FO_JOB_INIT
      2079**DCL      2355--DCLINIT
FO_OSYMBKEYIN.DEVNM
      1664**DCL      1665--REDEF
FO_OSYMBUF.FO_OSYMBDEV.NAME
      1706**DCL      1707--REDEF
FO_OSYMBUF.FO_OSYMBDEV.RACCT
      1774**DCL      1775--REDEF
FO_SYMBINFO
      1615**DCL      1600--DCLINIT
