VERSION E05

PL6.E3A0      #001=FOS_DATA_D File=FOS_DATA_D.:E05TSI                            TUE 07/29/97 17:15 Page:1
        1        1        /*M* FOS_DATA_D Data for FOS$STATUS */
        2        2        /*T***********************************************************/
        3        3        /*T*                                                         */
        4        4        /*T* Copyright (c) Bull HN Information Systems Inc., 1997    */
        5        5        /*T*                                                         */
        6        6        /*T***********************************************************/
        7        7        /*X* DMC,PLM=4,IND=0,SDI=2,CTI=0,ENU=0,AND,DCI=4,CSU=2,ECU=4,THI=0,DTI=2 */
        8        8        /**/
        9        9        FOS_DATA_D: PROC NOAUTO;
       10       10        /**/
       11       11        /**/
       12       12        /* INCLUDES */
       13       13        /**/
       14       14        /* !   ! *//* Don't include this in the FOS_DATA_R file */
       15       15        %INCLUDE FOS_SUBS_C;
       16       32        %INCLUDE FOO_MAC_C;
       17      780        %INCLUDE JM$STRUCT;
       18     1525        %INCLUDE JG_EVID_C;
       19     1750        /* ! R ! *//* Do include this in the FOS_DATA_R file */
       20     1751
       21     1752
       22     1753
       23     1754        /**/
       24     1755        /* DATA */
       25     1756        /**/
       26     1757
       27     1758                                /* WSQ USED TO MAP IN-CORE STATUS.
       28     1759                                   SET UP BY KIS$FEINIT */
       29     1760    1   DCL FOS_WSQ UBIN WORD STATIC SYMDEF;
       30     1761
       31     1762                                /* POINTERS THRU FOS_WSQ PAGE TABLE, TO
       32     1763                                   STATUS SEGMENTS */
       33     1764                                /* Used in the following routines:                    */
       34     1765                                /*      FOS$STATUS                                    */
       35     1766                                /*      JSD$DEL                                       */
       36     1767                                /*      MMS$WSQ                                       */
       37     1768                                /* Used in the following routines:                    */
PL6.E3A0      #001=FOS_DATA_D File=FOS_DATA_D.:E05TSI                            TUE 07/29/97 17:15 Page:2
       38     1769                                /*      FOS$STATUS                                    */
       39     1770                                /*      JSD$DEL                                       */
       40     1771                                /*      MMS$WSQ                                       */
       41     1772    1   DCL FOS_SEG$(0:                         /* !R! 0 */  /* !! */
       42     1773    1                  FOSS_MAX#                /* !R! %CHARTEXT('/')* */
       43     1774    1                           ) PTR STATIC SYMDEF ALIGNED INIT(ADDR(NIL)*0);
       44     1775    1   DCL 1 FOS_SEGPTR (0:                    /* !R! 0 */  /* !! */
       45     1776    1                       FOSS_MAX#           /* !R! %CHARTEXT('/')* */
       46     1777    1                                ) REDEF FOS_SEG$ ALIGNED,
       47     1778    1         2 PG UBIN(8) UNAL,
       48     1779    1         2 * UBIN(28) UNAL;
       49     1780                               /* STATIC DATA FOR FOS$STATUS */
       50     1781        /* !! */  /* stop moving to data_r file */
       51     1782        %JM_CITE (FPTN=FOS_JM_CITE,COD=JMEV_CNCL#,STCLASS="STATIC SYMDEF");
       52     1832        %FO_CITE (FPTN=FOS_FO_CITE,STCLASS="STATIC SYMDEF");
       53     1891        /* !R! */ /* start moving again */
       54     1892        /**/
       55     1893        /**/
       56     1894    1   END FOS_DATA_D;
       57     1895        /**/

PL6.E3A0      #001=FOS_DATA_D File=FOS_DATA_D.:E05TSI                            TUE 07/29/97 17:15 Page:3
--  Include file information  --

   JG_EVID_C.:E05TOU  is referenced.
   JM$STRUCT.:E05TOU  is referenced.
   FOO_MAC_C.:E05TOU  is referenced.
   FOS_SUBS_C.:E05TOU  is referenced.
      No diagnostics issued in procedure FOS_DATA_D.

   No code generated for procedure FOS_DATA_D .
   Procedure FOS_DATA_D is declared NOAUTO and requires 20 words of local(STATIC) storage.

    No errors detected in file FOS_DATA_D.:E05TSI    .

PL6.E3A0      #001=FOS_DATA_D File=FOS_DATA_D.:E05TSI                            TUE 07/29/97 17:15 Page:4

 Object Unit name= FOS_DATA_D                                 File name= FOS_DATA_D.:E05TOU
 UTS= JUL 29 '97 17:15:24.52 TUE                              Compiler= PL-6/E31         Sev=      00
 SharedLib= :SHARED_SYSTEM                                    Alt SharedLib=


    ****  Control sections  ****

 Sect   Type Bound  Init  Size OctSiz  Section name(segment info)
    0   Data  even  none    20     24  FOS_DATA_D
    1   Proc  even  none     0      0  FOS_DATA_D

    ****  Entry defs  ****

                              Check   Calling
                             calling  sequence
  Sect OctLoc Primary Altret sequence   type   Parms  Name
     1      0   yes            yes     ~proc       0  FOS_DATA_D

  ****  Data defs  ****

 Sect OctLoc  Name                           Sect OctLoc  Name
    0      1  FOS_WSQ                            0      2  FOS_SEG$
    0     14  FOS_JM_CITE                        0     21  FOS_FO_CITE

  ****  Segment refs  ****

  Flags:  r = read only, s = secondary
Flgs Name                             Flgs Name                             Flgs Name
     NULLSID
PL6.E3A0      #001=FOS_DATA_D File=FOS_DATA_D.:E05TSI                            TUE 07/29/97 17:15 Page:5


(unnamed)
 Sect OctLoc
   0     000   ****** ******   ****** ******   000000 006014   000000 006014    ................
   0     004   000000 006014   000000 006014   000000 006014   000000 006014    ................
   0     014*  000011 000000   000000 000000   000000 0000**   040040 040040    ............
   0     020   040040 040040   000000 000000   000000 000000   000000 ******        ............
        1        1        /*M* FOS_DATA_D Data for FOS$STATUS */
        2        2        /*T***********************************************************/
        3        3        /*T*                                                         */
        4        4        /*T* Copyright (c) Bull HN Information Systems Inc., 1997    */
        5        5        /*T*                                                         */
        6        6        /*T***********************************************************/
        7        7        /*X* DMC,PLM=4,IND=0,SDI=2,CTI=0,ENU=0,AND,DCI=4,CSU=2,ECU=4,THI=0,DTI=2 */
        8        8        /**/
        9        9        FOS_DATA_D: PROC NOAUTO;
       10       10        /**/
       11       11        /**/
       12       12        /* INCLUDES */
       13       13        /**/
       14       14        /* !   ! *//* Don't include this in the FOS_DATA_R file */
       15       15        %INCLUDE FOS_SUBS_C;
       16       32        %INCLUDE FOO_MAC_C;
       17      780        %INCLUDE JM$STRUCT;
       18     1525        %INCLUDE JG_EVID_C;
       19     1750        /* ! R ! *//* Do include this in the FOS_DATA_R file */
       20     1751
       21     1752
       22     1753
       23     1754        /**/
       24     1755        /* DATA */
       25     1756        /**/
       26     1757
       27     1758                                /* WSQ USED TO MAP IN-CORE STATUS.
       28     1759                                   SET UP BY KIS$FEINIT */
       29     1760    1   DCL FOS_WSQ UBIN WORD STATIC SYMDEF;
       30     1761
PL6.E3A0      #001=FOS_DATA_D File=FOS_DATA_D.:E05TSI                            TUE 07/29/97 17:15 Page:6
       31     1762                                /* POINTERS THRU FOS_WSQ PAGE TABLE, TO
       32     1763                                   STATUS SEGMENTS */
       33     1764                                /* Used in the following routines:                    */
       34     1765                                /*      FOS$STATUS                                    */
       35     1766                                /*      JSD$DEL                                       */
       36     1767                                /*      MMS$WSQ                                       */
       37     1768                                /* Used in the following routines:                    */
       38     1769                                /*      FOS$STATUS                                    */
       39     1770                                /*      JSD$DEL                                       */
       40     1771                                /*      MMS$WSQ                                       */
       41     1772    1   DCL FOS_SEG$(0:                         /* !R! 0 */  /* !! */
       42     1773    1                  FOSS_MAX#                /* !R! %CHARTEXT('/')* */
       43     1774    1                           ) PTR STATIC SYMDEF ALIGNED INIT(ADDR(NIL)*0);
       44     1775    1   DCL 1 FOS_SEGPTR (0:                    /* !R! 0 */  /* !! */
       45     1776    1                       FOSS_MAX#           /* !R! %CHARTEXT('/')* */
       46     1777    1                                ) REDEF FOS_SEG$ ALIGNED,
       47     1778    1         2 PG UBIN(8) UNAL,
       48     1779    1         2 * UBIN(28) UNAL;
       49     1780                               /* STATIC DATA FOR FOS$STATUS */
       50     1781        /* !! */  /* stop moving to data_r file */
       51     1782        %JM_CITE (FPTN=FOS_JM_CITE,COD=JMEV_CNCL#,STCLASS="STATIC SYMDEF");
       52     1832        %FO_CITE (FPTN=FOS_FO_CITE,STCLASS="STATIC SYMDEF");
       53     1891        /* !R! */ /* start moving again */
       54     1892        /**/
       55     1893        /**/
       56     1894    1   END FOS_DATA_D;
       57     1895        /**/

PL6.E3A0      #001=FOS_DATA_D File=FOS_DATA_D.:E05TSI                            TUE 07/29/97 17:15 Page:7
--  Include file information  --

   JG_EVID_C.:E05TOU  is referenced.
   JM$STRUCT.:E05TOU  is referenced.
   FOO_MAC_C.:E05TOU  is referenced.
   FOS_SUBS_C.:E05TOU  is referenced.
      No diagnostics issued in procedure FOS_DATA_D.
PL6.E3A0      #001=FOS_DATA_D File=FOS_DATA_D.:E05TSI                            TUE 07/29/97 17:15 Page:8

 **** Variables and constants ****


   No code generated for procedure FOS_DATA_D .
   Procedure FOS_DATA_D is declared NOAUTO and requires 20 words of local(STATIC) storage.

    No errors detected in file FOS_DATA_D.:E05TSI    .
PL6.E3A0      #001=FOS_DATA_D File=FOS_DATA_D.:E05TSI                            TUE 07/29/97 17:15 Page:9
          *** CROSS REFERENCE LISTING ***
**     DENOTES     IDENTIFIER DEFINITION
<<                 IDENTIFIER'S VALUE SET
>>                 IDENTIFIER'S VALUE USED
<>                 IDENTIFIER SET AND/OR USED
--                 IDENTIFIER REFERENCED
PL6.E3A0      #001=FOS_DATA_D File=FOS_DATA_D.:E05TSI                            TUE 07/29/97 17:15 Page:10
          MINI XREF LISTING

FOS_FO_CITE.BATCH
      1856**DCL      1859--REDEF    1863--REDEF
FOS_FO_CITE.NUM
      1865**DCL      1868--REDEF
FOS_JM_CITE.ACCT
      1814**DCL      1817--REDEF
FOS_SEG$
      1772**DCL      1775--REDEF
