VERSION E05

PL6.E3A0      #001=FO_SCR_D File=FO_SCR_D.:E05TSI                                TUE 07/29/97 17:16 Page:1
        1        1        /*M* FO_SCR_D SCREECHes for OUTSYM     */
        2        2        /*T***********************************************************/
        3        3        /*T*                                                         */
        4        4        /*T* Copyright (c) Bull HN Information Systems Inc., 1997    */
        5        5        /*T*                                                         */
        6        6        /*T***********************************************************/
        7        7        /*X* DMC,PLM=4,IND=0,SDI=2,CTI=0,ENU=0,AND,DCI=4,CSU=2,ECU=4,THI=0,DTI=2 */
        8        8        /**/
        9        9        /**/
       10       10        FO_SCR_D: PROC NOAUTO;
       11       11        /**/
       12       12        /**/
       13       13        /* THE %SNAP_USER MACRO
       14       14           IS USED BECAUSE THE ONLY USER TO BE DUMPED IS OUTSYM, AND
       15       15           THIS REQUIRES A 4-WORD SCREECH CODE INSTEAD OF 2 */
       16       16        /**/
       17       17        /**/
       18       18        %INCLUDE JS_CP6;
       19      436        %INCLUDE FO_SCODE_C;
       20      464        %INCLUDE JG_GHOSTS_C;
       21      554        /**/
       22      555        /**/
       23      556        %VLP_SCODE (FPTN=SC_BADSYMBINFCN,FCG=FO,MID=M,MON=YES,
       24      557                  CODE=%S$BADSYMBINFCN,SEV=SEV_SNAP,USER=JG_OUTSYM#,
       25      558                 STCLASS   = CONSTANT SYMDEF,
       26      559                 AUSER     = YES,
       27      560                 CFUS      = YES,
       28      561                 CUSR      = YES,
       29      562                 SPBUF     = YES,
       30      563                 FMBUF     = YES,
       31      564                 ROSEG     = YES,
       32      565                 ISEG      = YES,
       33      566                 DDSEG     = YES,
       34      567                 DBSEG     = YES,
       35      568                 ASLSEG    = YES,
       36      569                 CPSEG     = YES,
       37      570                 LDCTS     = YES,
PL6.E3A0      #001=FO_SCR_D File=FO_SCR_D.:E05TSI                                TUE 07/29/97 17:16 Page:2
       38      571                 CWSPT     = YES,
       39      572                 LRM       = NO,
       40      573                 ASAVE     = NO,
       41      574                 ENQ       = NO,
       42      575                 DS5       = NO,
       43      576                 DS6       = NO,
       44      577                 DS7       = NO,
       45      578                 PPUT      = NO,
       46      579                 PMDATA    = NO,
       47      580                 MPROC     = NO,
       48      581                 ALLUSR    = NO);
       49      642        /**/
       50      643        %VLP_SCODE (FPTN=SC_BADSYMBEVST,FCG=FO,MID=M,MON=YES,
       51      644                  CODE=%S$BADSYMBEVST,SEV=SEV_SCREECH,USER=JG_OUTSYM#,
       52      645                 STCLASS   = CONSTANT SYMDEF,
       53      646                 AUSER     = YES,
       54      647                 CFUS      = YES,
       55      648                 CUSR      = YES,
       56      649                 SPBUF     = YES,
       57      650                 FMBUF     = YES,
       58      651                 ROSEG     = YES,
       59      652                 ISEG      = YES,
       60      653                 DDSEG     = YES,
       61      654                 DBSEG     = YES,
       62      655                 ASLSEG    = YES,
       63      656                 CPSEG     = YES,
       64      657                 LDCTS     = YES,
       65      658                 CWSPT     = YES,
       66      659                 LRM       = NO,
       67      660                 ASAVE     = NO,
       68      661                 ENQ       = NO,
       69      662                 DS5       = NO,
       70      663                 DS6       = NO,
       71      664                 DS7       = NO,
       72      665                 PPUT      = NO,
       73      666                 PMDATA    = NO,
       74      667                 MPROC     = NO,
PL6.E3A0      #001=FO_SCR_D File=FO_SCR_D.:E05TSI                                TUE 07/29/97 17:16 Page:3
       75      668                 ALLUSR    = NO);
       76      729        /**/
       77      730        %VLP_SCODE (FPTN=SC_BADSYMBEVENT,FCG=FO,MID=M,MON=YES,
       78      731                  CODE=%S$BADSYMBEVENT,SEV=SEV_SCREECH,USER=JG_OUTSYM#,
       79      732                 STCLASS   = CONSTANT SYMDEF,
       80      733                 AUSER     = YES,
       81      734                 CFUS      = YES,
       82      735                 CUSR      = YES,
       83      736                 SPBUF     = YES,
       84      737                 FMBUF     = YES,
       85      738                 ROSEG     = YES,
       86      739                 ISEG      = YES,
       87      740                 DDSEG     = YES,
       88      741                 DBSEG     = YES,
       89      742                 ASLSEG    = YES,
       90      743                 CPSEG     = YES,
       91      744                 LDCTS     = YES,
       92      745                 CWSPT     = YES,
       93      746                 LRM       = NO,
       94      747                 ASAVE     = NO,
       95      748                 ENQ       = NO,
       96      749                 DS5       = NO,
       97      750                 DS6       = NO,
       98      751                 DS7       = NO,
       99      752                 PPUT      = NO,
      100      753                 PMDATA    = NO,
      101      754                 MPROC     = NO,
      102      755                 ALLUSR    = NO);
      103      816        /**/
      104      817        %VLP_SCODE (FPTN=SC_BADSYMBSTATE,FCG=FO,MID=M,MON=YES,
      105      818                  CODE=%S$BADSYMBSTATE,SEV=SEV_SCREECH,USER=JG_OUTSYM#,
      106      819                 STCLASS   = CONSTANT SYMDEF,
      107      820                 AUSER     = YES,
      108      821                 CFUS      = YES,
      109      822                 CUSR      = YES,
      110      823                 SPBUF     = YES,
      111      824                 FMBUF     = YES,
PL6.E3A0      #001=FO_SCR_D File=FO_SCR_D.:E05TSI                                TUE 07/29/97 17:16 Page:4
      112      825                 ROSEG     = YES,
      113      826                 ISEG      = YES,
      114      827                 DDSEG     = YES,
      115      828                 DBSEG     = YES,
      116      829                 ASLSEG    = YES,
      117      830                 CPSEG     = YES,
      118      831                 LDCTS     = YES,
      119      832                 CWSPT     = YES,
      120      833                 LRM       = NO,
      121      834                 ASAVE     = NO,
      122      835                 ENQ       = NO,
      123      836                 DS5       = NO,
      124      837                 DS6       = NO,
      125      838                 DS7       = NO,
      126      839                 PPUT      = NO,
      127      840                 PMDATA    = NO,
      128      841                 MPROC     = NO,
      129      842                 ALLUSR    = NO);
      130      903        /**/
      131      904        %VLP_SCODE (FPTN=SC_BADSYMBDA,FCG=FO,MID=M,MON=YES,
      132      905                  CODE=%S$BADSYMBDA,SEV=SEV_SNAP,USER=JG_OUTSYM#,
      133      906                 STCLASS   = CONSTANT SYMDEF,
      134      907                 AUSER     = YES,
      135      908                 CFUS      = YES,
      136      909                 CUSR      = YES,
      137      910                 SPBUF     = YES,
      138      911                 FMBUF     = YES,
      139      912                 ROSEG     = YES,
      140      913                 ISEG      = YES,
      141      914                 DDSEG     = YES,
      142      915                 DBSEG     = YES,
      143      916                 ASLSEG    = YES,
      144      917                 CPSEG     = YES,
      145      918                 LDCTS     = YES,
      146      919                 CWSPT     = YES,
      147      920                 LRM       = NO,
      148      921                 ASAVE     = NO,
PL6.E3A0      #001=FO_SCR_D File=FO_SCR_D.:E05TSI                                TUE 07/29/97 17:16 Page:5
      149      922                 ENQ       = NO,
      150      923                 DS5       = NO,
      151      924                 DS6       = NO,
      152      925                 DS7       = NO,
      153      926                 PPUT      = NO,
      154      927                 PMDATA    = NO,
      155      928                 MPROC     = NO,
      156      929                 ALLUSR    = NO);
      157      990        /**/
      158      991    1   END FO_SCR_D;

PL6.E3A0      #001=FO_SCR_D File=FO_SCR_D.:E05TSI                                TUE 07/29/97 17:16 Page:6
--  Include file information  --

   JG_GHOSTS_C.:E05TOU  is referenced.
   FO_SCODE_C.:E05TOU  is referenced.
   JS_CP6.:E05TOU  is referenced.
      No diagnostics issued in procedure FO_SCR_D.

   No code generated for procedure FO_SCR_D .
   Procedure FO_SCR_D is declared NOAUTO and requires 2 words of local(STATIC) storage.

    No errors detected in file FO_SCR_D.:E05TSI    .

PL6.E3A0      #001=FO_SCR_D File=FO_SCR_D.:E05TSI                                TUE 07/29/97 17:16 Page:7

 Object Unit name= FO_SCR_D                                   File name= FO_SCR_D.:E05TOU
 UTS= JUL 29 '97 17:16:51.40 TUE                              Compiler= PL-6/E31         Sev=      00
 SharedLib= :SHARED_SYSTEM                                    Alt SharedLib=


    ****  Control sections  ****

 Sect   Type Bound  Init  Size OctSiz  Section name(segment info)
    0   Data  even  none     2      2  FO_SCR_D
    1  RoData even  UTS     20     24  FO_SCR_D
    2   Proc  even  none     0      0  FO_SCR_D

    ****  Entry defs  ****

                              Check   Calling
                             calling  sequence
  Sect OctLoc Primary Altret sequence   type   Parms  Name
     2      0   yes            yes     ~proc       0  FO_SCR_D

  ****  Data defs  ****

 Sect OctLoc  Name                           Sect OctLoc  Name
    1      0  SC_BADSYMBINFCN                    1      4  SC_BADSYMBEVST
    1     10  SC_BADSYMBEVENT                    1     14  SC_BADSYMBSTATE
    1     20  SC_BADSYMBDA
PL6.E3A0      #001=FO_SCR_D File=FO_SCR_D.:E05TSI                                TUE 07/29/97 17:16 Page:8


(unnamed)
 Sect OctLoc
   1     000   061715 404415   201100 107761   003000 000000   000000 000000    1....@G.........
   1     004   061715 404427   201100 107761   003000 000000   000000 000000    1....@G.........
   1     010   061715 404447   201100 107761   003000 000000   000000 000000    1....@G.........
   1     014   061715 404457   201100 107761   003000 000000   000000 000000    1....@G.........
   1     020   061715 404335   201100 107761   003000 000000   000000 000000    1....@G.........
        1        1        /*M* FO_SCR_D SCREECHes for OUTSYM     */
        2        2        /*T***********************************************************/
        3        3        /*T*                                                         */
        4        4        /*T* Copyright (c) Bull HN Information Systems Inc., 1997    */
        5        5        /*T*                                                         */
        6        6        /*T***********************************************************/
        7        7        /*X* DMC,PLM=4,IND=0,SDI=2,CTI=0,ENU=0,AND,DCI=4,CSU=2,ECU=4,THI=0,DTI=2 */
        8        8        /**/
        9        9        /**/
       10       10        FO_SCR_D: PROC NOAUTO;
       11       11        /**/
       12       12        /**/
       13       13        /* THE %SNAP_USER MACRO
       14       14           IS USED BECAUSE THE ONLY USER TO BE DUMPED IS OUTSYM, AND
       15       15           THIS REQUIRES A 4-WORD SCREECH CODE INSTEAD OF 2 */
       16       16        /**/
       17       17        /**/
       18       18        %INCLUDE JS_CP6;
       19      436        %INCLUDE FO_SCODE_C;
       20      464        %INCLUDE JG_GHOSTS_C;
       21      554        /**/
       22      555        /**/
       23      556        %VLP_SCODE (FPTN=SC_BADSYMBINFCN,FCG=FO,MID=M,MON=YES,
       24      557                  CODE=%S$BADSYMBINFCN,SEV=SEV_SNAP,USER=JG_OUTSYM#,
       25      558                 STCLASS   = CONSTANT SYMDEF,
       26      559                 AUSER     = YES,
       27      560                 CFUS      = YES,
       28      561                 CUSR      = YES,
       29      562                 SPBUF     = YES,
PL6.E3A0      #001=FO_SCR_D File=FO_SCR_D.:E05TSI                                TUE 07/29/97 17:16 Page:9
       30      563                 FMBUF     = YES,
       31      564                 ROSEG     = YES,
       32      565                 ISEG      = YES,
       33      566                 DDSEG     = YES,
       34      567                 DBSEG     = YES,
       35      568                 ASLSEG    = YES,
       36      569                 CPSEG     = YES,
       37      570                 LDCTS     = YES,
       38      571                 CWSPT     = YES,
       39      572                 LRM       = NO,
       40      573                 ASAVE     = NO,
       41      574                 ENQ       = NO,
       42      575                 DS5       = NO,
       43      576                 DS6       = NO,
       44      577                 DS7       = NO,
       45      578                 PPUT      = NO,
       46      579                 PMDATA    = NO,
       47      580                 MPROC     = NO,
       48      581                 ALLUSR    = NO);
       49      642        /**/
       50      643        %VLP_SCODE (FPTN=SC_BADSYMBEVST,FCG=FO,MID=M,MON=YES,
       51      644                  CODE=%S$BADSYMBEVST,SEV=SEV_SCREECH,USER=JG_OUTSYM#,
       52      645                 STCLASS   = CONSTANT SYMDEF,
       53      646                 AUSER     = YES,
       54      647                 CFUS      = YES,
       55      648                 CUSR      = YES,
       56      649                 SPBUF     = YES,
       57      650                 FMBUF     = YES,
       58      651                 ROSEG     = YES,
       59      652                 ISEG      = YES,
       60      653                 DDSEG     = YES,
       61      654                 DBSEG     = YES,
       62      655                 ASLSEG    = YES,
       63      656                 CPSEG     = YES,
       64      657                 LDCTS     = YES,
       65      658                 CWSPT     = YES,
       66      659                 LRM       = NO,
PL6.E3A0      #001=FO_SCR_D File=FO_SCR_D.:E05TSI                                TUE 07/29/97 17:16 Page:10
       67      660                 ASAVE     = NO,
       68      661                 ENQ       = NO,
       69      662                 DS5       = NO,
       70      663                 DS6       = NO,
       71      664                 DS7       = NO,
       72      665                 PPUT      = NO,
       73      666                 PMDATA    = NO,
       74      667                 MPROC     = NO,
       75      668                 ALLUSR    = NO);
       76      729        /**/
       77      730        %VLP_SCODE (FPTN=SC_BADSYMBEVENT,FCG=FO,MID=M,MON=YES,
       78      731                  CODE=%S$BADSYMBEVENT,SEV=SEV_SCREECH,USER=JG_OUTSYM#,
       79      732                 STCLASS   = CONSTANT SYMDEF,
       80      733                 AUSER     = YES,
       81      734                 CFUS      = YES,
       82      735                 CUSR      = YES,
       83      736                 SPBUF     = YES,
       84      737                 FMBUF     = YES,
       85      738                 ROSEG     = YES,
       86      739                 ISEG      = YES,
       87      740                 DDSEG     = YES,
       88      741                 DBSEG     = YES,
       89      742                 ASLSEG    = YES,
       90      743                 CPSEG     = YES,
       91      744                 LDCTS     = YES,
       92      745                 CWSPT     = YES,
       93      746                 LRM       = NO,
       94      747                 ASAVE     = NO,
       95      748                 ENQ       = NO,
       96      749                 DS5       = NO,
       97      750                 DS6       = NO,
       98      751                 DS7       = NO,
       99      752                 PPUT      = NO,
      100      753                 PMDATA    = NO,
      101      754                 MPROC     = NO,
      102      755                 ALLUSR    = NO);
      103      816        /**/
PL6.E3A0      #001=FO_SCR_D File=FO_SCR_D.:E05TSI                                TUE 07/29/97 17:16 Page:11
      104      817        %VLP_SCODE (FPTN=SC_BADSYMBSTATE,FCG=FO,MID=M,MON=YES,
      105      818                  CODE=%S$BADSYMBSTATE,SEV=SEV_SCREECH,USER=JG_OUTSYM#,
      106      819                 STCLASS   = CONSTANT SYMDEF,
      107      820                 AUSER     = YES,
      108      821                 CFUS      = YES,
      109      822                 CUSR      = YES,
      110      823                 SPBUF     = YES,
      111      824                 FMBUF     = YES,
      112      825                 ROSEG     = YES,
      113      826                 ISEG      = YES,
      114      827                 DDSEG     = YES,
      115      828                 DBSEG     = YES,
      116      829                 ASLSEG    = YES,
      117      830                 CPSEG     = YES,
      118      831                 LDCTS     = YES,
      119      832                 CWSPT     = YES,
      120      833                 LRM       = NO,
      121      834                 ASAVE     = NO,
      122      835                 ENQ       = NO,
      123      836                 DS5       = NO,
      124      837                 DS6       = NO,
      125      838                 DS7       = NO,
      126      839                 PPUT      = NO,
      127      840                 PMDATA    = NO,
      128      841                 MPROC     = NO,
      129      842                 ALLUSR    = NO);
      130      903        /**/
      131      904        %VLP_SCODE (FPTN=SC_BADSYMBDA,FCG=FO,MID=M,MON=YES,
      132      905                  CODE=%S$BADSYMBDA,SEV=SEV_SNAP,USER=JG_OUTSYM#,
      133      906                 STCLASS   = CONSTANT SYMDEF,
      134      907                 AUSER     = YES,
      135      908                 CFUS      = YES,
      136      909                 CUSR      = YES,
      137      910                 SPBUF     = YES,
      138      911                 FMBUF     = YES,
      139      912                 ROSEG     = YES,
      140      913                 ISEG      = YES,
PL6.E3A0      #001=FO_SCR_D File=FO_SCR_D.:E05TSI                                TUE 07/29/97 17:16 Page:12
      141      914                 DDSEG     = YES,
      142      915                 DBSEG     = YES,
      143      916                 ASLSEG    = YES,
      144      917                 CPSEG     = YES,
      145      918                 LDCTS     = YES,
      146      919                 CWSPT     = YES,
      147      920                 LRM       = NO,
      148      921                 ASAVE     = NO,
      149      922                 ENQ       = NO,
      150      923                 DS5       = NO,
      151      924                 DS6       = NO,
      152      925                 DS7       = NO,
      153      926                 PPUT      = NO,
      154      927                 PMDATA    = NO,
      155      928                 MPROC     = NO,
      156      929                 ALLUSR    = NO);
      157      990        /**/
      158      991    1   END FO_SCR_D;

PL6.E3A0      #001=FO_SCR_D File=FO_SCR_D.:E05TSI                                TUE 07/29/97 17:16 Page:13
--  Include file information  --

   JG_GHOSTS_C.:E05TOU  is referenced.
   FO_SCODE_C.:E05TOU  is referenced.
   JS_CP6.:E05TOU  is referenced.
      No diagnostics issued in procedure FO_SCR_D.
PL6.E3A0      #001=FO_SCR_D File=FO_SCR_D.:E05TSI                                TUE 07/29/97 17:16 Page:14

 **** Variables and constants ****


   No code generated for procedure FO_SCR_D .
   Procedure FO_SCR_D is declared NOAUTO and requires 2 words of local(STATIC) storage.

    No errors detected in file FO_SCR_D.:E05TSI    .
PL6.E3A0      #001=FO_SCR_D File=FO_SCR_D.:E05TSI                                TUE 07/29/97 17:16 Page:15
          *** CROSS REFERENCE LISTING ***
**     DENOTES     IDENTIFIER DEFINITION
<<                 IDENTIFIER'S VALUE SET
>>                 IDENTIFIER'S VALUE USED
<>                 IDENTIFIER SET AND/OR USED
--                 IDENTIFIER REFERENCED
PL6.E3A0      #001=FO_SCR_D File=FO_SCR_D.:E05TSI                                TUE 07/29/97 17:16 Page:16
          MINI XREF LISTING

