PL6.E3A0      #002=FPO$WRITELBL File=FPO$OPNOD.:E05TSI                           TUE 07/29/97 17:20 Page:200
     1294        1        /*T***********************************************************/
     1295        2        /*T*                                                         */
     1296        3        /*T* Copyright (c) Bull HN Information Systems Inc., 1997    */
     1297        4        /*T*                                                         */
     1298        5        /*T***********************************************************/
     1299        6        /*F*  NAME: FPO$WRITELBL
     1300        7              PURPOSE: Write labels to optical disk volumes.
     1301        8              DESCRIPTION:  Send a write-label message containing the label
     1302        9              data to the optical disc device handler.
     1303       10
     1304       11              CALLING SEQUENCE:
     1305       12                 CALL FPO$WRITELBL (LBL1$,LBL2$) ALTRET(cvol_proc);
     1306       13
     1307       14        */
     1308       15
     1309       16        FPO$WRITELBL: PROC  (DCTX,SER$) ALTRET;
     1310       17
     1311       18        %INCLUDE CP_6;
     1312     5577        %INCLUDE CP_6_SUBS;
     1313     6117        %INCLUDE F_SCODE_C;
     1314     6153        %INCLUDE B$JIT_C;
     1315     6467           %B$JIT0;
     1316     6556           %U$JIT1X;
     1317     6559           %M$JIT2X;
     1318     6562           %F$JIT3;
     1319     6567           %S$JIT4X;
     1320     6570           %J$JIT5X;
     1321     6573           %A$JIT6;
     1322     6583        %MACRO F$DCBBJ(BASED=BASED);
     1323     6584        %INCLUDE F$DCB;
     1324     6633        %MEND;
     1325     6634           %F$DCBBJ(BASED="BASED(JDCB$)");
     1326     6684        %INCLUDE K_SUBS_C;
     1327     6717        %INCLUDE K$RWPARM;
     1328     7103        %INCLUDE KI_MACROS_C;
     1329     7711        %INCLUDE KI$MHDR;
     1330     7852        %INCLUDE NI$TABLES;
PL6.E3A0      #002=FPO$WRITELBL File=FPO$OPNOD.:E05TSI                           TUE 07/29/97 17:20 Page:201
     1331     8068        %INCLUDE NK$LDCT;
     1332     8170        %INCLUDE NK_LDCT_R;
     1333     8179        %INCLUDE B$USER;
     1334     8395        %B$USERREFS;
     1335     8399        %INCLUDE SS_SCHED_C;
     1336     8632        %INCLUDE FR$RAT;
     1337     8685        %INCLUDE FT$DDT;
     1338     8746        %INCLUDE F_ERRORS_C;
     1339     8986        %INCLUDE FT_SUBS;
     1340     9066        %INCLUDE FP_MACRO_C;
     1341     9338        %INCLUDE HF_LOCK_C;
     1342     9352
     1343     9353
     1344     9354        /*    Parameters    */
     1345     9355    1   DCL DCTX UBIN;                     /* Soliciting device DCT index */
     1346     9356    1   DCL LBL1$ REDEF DCTX PTR;          /* HDR1 label record ptr       */
     1347     9357    1   DCL BFR$ REDEF DCTX PTR;           /* I/O buffer pointer             */
     1348     9358    1   DCL DIR REDEF DCTX SBIN;           /* search direction           */
     1349     9359    1   DCL SER$ PTR;                      /* Serial number ptr          */
     1350     9360    1   DCL LBL2$ REDEF SER$ PTR;          /* HDR2 label record ptr       */
     1351     9361    1   DCL FSN REDEF SER$ UBIN;           /* file sequence number        */
     1352     9362    1   DCL CONFNC REDEF SER$ UBIN;        /*  1 = partition, 0 = return  */
     1353     9363
     1354     9364        /*    Auto           */
     1355     9365
     1356     9366        %K$RWPARM (NAME=K$RWPARM, STCLASS="");
     1357     9682
     1358     9683    1   DCL O$ PTR;
     1359     9684    1   DCL D$ PTR;
     1360     9685    1   DCL M$ PTR;
     1361     9686    1   DCL LDCT$ PTR;
     1362     9687    1   DCL RAT$ PTR;
     1363     9688    1   DCL JDCB$ PTR;
     1364     9689    1   DCL ERRSAV BIT(36);
     1365     9690    1   DCL I UBIN;
     1366     9691    1   DCL F UBIN;
     1367     9692    1   DCL WSQ UBIN;
PL6.E3A0      #002=FPO$WRITELBL File=FPO$OPNOD.:E05TSI                           TUE 07/29/97 17:20 Page:202
     1368     9693    1   DCL STT UBIN;                      /* message write status         */
     1369     9694    1   DCL DEV UBIN;
     1370     9695    1   DCL DCTN UBIN;
     1371     9696    1   DCL 1 CDCT REDEF DCTN,
     1372     9697    1         2 * BIT(20),
     1373     9698    1         2 HI UBIN(8) UNAL,
     1374     9699    1         2 LO UBIN(8) UNAL;
     1375     9700    1   DCL MSG CHAR(180);
     1376     9701    1   DCL QSZ UBIN WORD;
     1377     9702    1   DCL 1 SZ REDEF QSZ,
     1378     9703    1         2 * UBIN(12) UNAL,
     1379     9704    1         2 B2 UBIN(8) UNAL,
     1380     9705    1         2 B3 UBIN(8) UNAL,
     1381     9706    1         2 B4 UBIN(8) UNAL;
     1382     9707    1   DCL QMP$ PTR;                      /* CWSQ buffer pointer, converts to */
     1383     9708    1   DCL 1 MP REDEF QMP$,               /* word offset for DIB xfer      */
     1384     9709    1         2 B2 UBIN(2) UNAL,
     1385     9710    1         2 B3 UBIN(8) UNAL,
     1386     9711    1         2 B4 UBIN(8) UNAL,
     1387     9712    1         2 * UBIN(18) UNAL;
     1388     9713    1   DCL CNVTLNGWD UBIN WORD;
     1389     9714    1   DCL 1 CNVTLNG REDEF CNVTLNGWD,
     1390     9715    1         2 * UBIN(4) UNAL,
     1391     9716    1         2 B1 UBIN(8) UNAL,
     1392     9717    1         2 B2 UBIN(8) UNAL,
     1393     9718    1         2 B3 UBIN(8) UNAL,
     1394     9719    1         2 B4 UBIN(8) UNAL;
     1395     9720
     1396     9721        /*    Based          */
     1397     9722
     1398     9723        %NI$DCT;
     1399     9771        %NI$DQH;
     1400     9794        %FR$RAT;
     1401     9834        %K$RWPARM (NAME=KI$RWPARM,STCLASS=BASED);
     1402    10150        %NK$LDCT;
     1403    10196        %KI$QMHDR;
     1404    10245        %KI$FEI;
PL6.E3A0      #002=FPO$WRITELBL File=FPO$OPNOD.:E05TSI                           TUE 07/29/97 17:20 Page:203
     1405    10329        %FPP$WRITELBLREQ (NAME=WRITELBLREQ,STCLASS="BASED(M$)");
     1406    10347        %FPP$PEOVREQ (NAME=PEOVREQ,STCLASS="BASED(M$)");
     1407    10364        %FPP$RDEOFREQ (NAME=RDEOFREQ,STCLASS="BASED(M$)");
     1408    10380        %FPP$FNDSQREQ (NAME=FNDSQREQ,STCLASS="BASED(M$)");
     1409    10397        %FPP$FNDFLREQ (NAME=FNDFLREQ,STCLASS="BASED(M$)");
     1410    10416        %FPP$XFERREQ (NAME=XFERREQ,STCLASS="BASED(M$)");
     1411    10445        %FPP$COPYREQ (NAME=COPYREQ,STCLASS="BASED(M$)");
     1412    10462        %FPP$LABELREQ (NAME=LABELREQ,STCLASS="BASED(M$)");
     1413    10479        %FPP$WRITELBLACK (NAME=WRITELBLACK,STCLASS="BASED(K$RWPARM.MSG$)");
     1414    10495        %FPP$PEOVACK (NAME=PEOVACK,STCLASS="BASED(K$RWPARM.MSG$)");
     1415    10513        %FPP$RDEOFACK (NAME=RDEOFACK,STCLASS="BASED(K$RWPARM.MSG$)");
     1416    10530        %FPP$FNDACK (NAME=FNDACK,STCLASS="BASED(K$RWPARM.MSG$)");
     1417    10547        %FPP$LABELACK (NAME=LABELACK,STCLASS="BASED(K$RWPARM.MSG$)");
     1418    10563        %FPP$XFERACK (NAME=XFERACK,STCLASS="BASED(K$RWPARM.MSG$)");
     1419    10593        %FP$OPCI (STCLASS=BASED);
     1420    10603    1   DCL 1 CNVT BASED,
     1421    10604    1         2 * BIT(20) UNAL,
     1422    10605    1         2 HI BIT(8) UNAL,
     1423    10606    1         2 LO BIT(8) UNAL;
     1424    10607    1   DCL SER CHAR(6) BASED(SER$);
     1425    10608    1   DCL LBL CHAR(80) BASED;
     1426    10609    1   DCL HDRS CHAR(160) BASED;
     1427    10610
     1428    10611
     1429    10612        /*    Constant                       */
     1430    10613
     1431    10614
     1432    10615        /*    External                      */
     1433    10616
     1434    10617        %K$RWPARM (NAME=K_RWPARM_CON,STCLASS=SYMREF);
     1435    10933
     1436    10934    1   DCL FP_OPCI$$ PTR SYMREF;
     1437    10935    1   DCL N$DCT$(0:0) PTR BASED(N$DCT$$);
     1438    10936    1   DCL B$JIT$ PTR SYMREF;
     1439    10937    1   DCL S_CUN UBIN SYMREF;
     1440    10938
     1441    10939    1   DCL KIA$WRITE_USER ENTRY(2) ALTRET;
PL6.E3A0      #002=FPO$WRITELBL File=FPO$OPNOD.:E05TSI                           TUE 07/29/97 17:20 Page:204
     1442    10940    1   DCL KIA$MSG ENTRY(1) ALTRET;
     1443    10941    1   DCL KIA$OQFL ENTRY(1) ALTRET;
     1444    10942    1   DCL KIS$SEND ENTRY(1) ALTRET;
     1445    10943    1   DCL KIQ$MAPFEP ENTRY(1);
     1446    10944    1   DCL SSR$REG ENTRY(3) ALTRET;
     1447    10945    1   DCL MMS$VGET ENTRY(4) ALTRET;
     1448    10946    1   DCL MMS$VREL ENTRY(2) ALTRET;
     1449    10947    1   DCL SC_FPOBADSEND ENTRY CONV(2,0);
     1450    10948
     1451    10949
     1452    10950
     1453    10951        %FT$ERR( ERRNAME=E_CANTLABELOD, FCG='0620'O, MID='17'O, CODE=%E$CANTLABELOD, SEV=2 )
             10951            ;
     1454    10959        /*E*     ERROR: FPO-E$CANTLABELOD-2
     1455    10960                 MESSAGE: Can't relabel optical disk platter% %SN%.
     1456    10961                 MESSAGE1: A labeling operation was attempted on an optical disk
     1457    10962                    platter% (%SN)% that had already been labelled.
     1458    10963         ***/
     1459    10964
     1460    10965        %FT$ERR( ERRNAME=E_IOERR, FCG='0620'O, MID='17'O, CODE=%E$IOERR, SEV=2 );
     1461    10973
     1462    10974        %FT$ERR( ERRNAME=E_NOODSPACE, FCG='0620'O, MID='17'O, CODE=%E$NOODSPACE, SEV=2 );
     1463    10982        /*E*     ERROR: FPO-E$NOODSPACE-2
     1464    10983                 MESSAGE: Not enough space on optical disk volume% %SN% for file header.
     1465    10984                 MESSAGE1: There was not enough space left on an optical disk volume
     1466    10985                    for the file header information of the file being closed.  The
     1467    10986                    data in that file% (%TA)% is now inaccessible.
     1468    10987         ***/
     1469    10988
     1470    10989
     1471    10990
     1472    10991
     1473    10992    1         CALL SETUP (B$JIT.DCB$->F$DCB.SETX) ALTRET(BRKOUT);
     1474    10993    1         WRITELBLREQ.HDR1 = LBL1$->LBL;
     1475    10994    1         WRITELBLREQ.HDR2 = LBL2$->LBL;
     1476    10995    1         CALL WR_OSAR_MSG (%FP_FNC_WRITELBL,SIZEC(WRITELBLREQ)) ALTRET(BRKOUT);
     1477    10996    1         CALL CHKPOSLST ALTRET(BRKOUT);
PL6.E3A0      #002=FPO$WRITELBL File=FPO$OPNOD.:E05TSI                           TUE 07/29/97 17:20 Page:205
     1478    10997    1         ERRSAV = '0'B;
     1479    10998    2         DO CASE(WRITELBLACK.STT);
     1480    10999    2          CASE(0);                      /* Success. */
     1481    11000                                               /* Nothing to do. */
     1482    11001    2          CASE(1);                      /* No space to write EOV/EOF label. */
     1483    11002    2            ERRSAV = E_NOODSPACE;
     1484    11003    2            F$DCB.TYC.IOERR(1) = '1'B;
     1485    11004    2          CASE(2,3);                    /* Bad media or other error. */
     1486    11005    2            ERRSAV = E_IOERR;
     1487    11006    2            F$DCB.TYC.IOERR(1) = '1'B;
     1488    11007    2          END;
     1489    11008    1         K$RWPARM.LDCT$ = LDCT$;
     1490    11009    1         K$RWPARM.FUNCTION = %K_READDONE;
     1491    11010    1         CALL KIS$SEND (K$RWPARM);
     1492    11011              %UNLOCK (G=LDCT$->NK$LDCT.LOCK);
     1493    11014    2         IF ERRSAV THEN DO;
     1494    11015    2            B$JIT.ERR = ERRSAV;
     1495    11016    2            ALTRETURN;
     1496    11017    2            END;
     1497    11018    1         RETURN;
     1498    11019
     1499    11020        /*F*  NAME: FPO$PEOV
     1500    11021              PURPOSE: Obtain end of volume information from current
     1501    11022                  volume.
     1502    11023              DESCRIPTION:  Send an PEOV message to the controller and
     1503    11024              and put the results into the DDT entry.
     1504    11025
     1505    11026              CALLING SEQUENCE:
     1506    11027                 CALL FPO$PEOV(direction) ALTRET(err_proc);
     1507    11028
     1508    11029        */
     1509    11030
     1510    11031    1   FPO$PEOV: ENTRY(DCTX) ALTRET;
     1511    11032
     1512    11033    1         CALL SETUP (B$JIT.DCB$->F$DCB.SETX) ALTRET (BRKOUT);
     1513    11034    1         IF DIR < 0 THEN
     1514    11035    1            PEOVREQ.DIR = '0';           /* Position to beginning */
PL6.E3A0      #002=FPO$WRITELBL File=FPO$OPNOD.:E05TSI                           TUE 07/29/97 17:20 Page:206
     1515    11036    1         ELSE
     1516    11037    1            PEOVREQ.DIR = '1';           /* Position to end */
     1517    11038    1         CALL WR_OSAR_MSG (%FP_FNC_POSEOV,SIZEC(PEOVREQ)) ALTRET(BRKOUT);
     1518    11039    1         CALL CHKPOSLST ALTRET(BRKOUT);
     1519    11040    1         CALL CHARBIN (I,PEOVACK.FSEQU_NUM);
     1520    11041    2         IF I > 0 THEN DO;
     1521    11042    2            IF PEOVACK.TYPE = 'EOV1' THEN
     1522    11043    2               D$->FT$DDT.POS = FTP_EOV#;
     1523    11044    2            ELSE IF PEOVACK.TYPE = 'EOF1' THEN
     1524    11045    2                  D$->FT$DDT.POS = FTP_HDR#;
     1525    11046    2               ELSE
     1526    11047    2                  D$->FT$DDT.POS = FTP_BOV#;
     1527    11048    2            D$->FT$DDT.FSN = I - 1;
     1528    11049    2            END;
     1529    11050    2         ELSE DO;
     1530    11051    2            D$->FT$DDT.POS = FTP_BOV#;
     1531    11052    2            D$->FT$DDT.FSN = 0;
     1532    11053    2            END;
     1533    11054    1         K$RWPARM.LDCT$ = LDCT$;
     1534    11055    1         K$RWPARM.FUNCTION = %K_READDONE;
     1535    11056    1         CALL KIS$SEND (K$RWPARM);
     1536    11057              %UNLOCK (G=LDCT$->NK$LDCT.LOCK);
     1537    11060    1         RETURN;
     1538    11061
     1539    11062
     1540    11063        /*F*  NAME: FPO$REWIND
     1541    11064              PURPOSE: Perform DCB-less rewind for the M$REW pmme.
     1542    11065              DESCRIPTION:  Send a PEOV message to the controller and
     1543    11066                            put the results into the DDT entry.
     1544    11067
     1545    11068              CALLING SEQUENCE:
     1546    11069                 CALL FPO$REWIND(dctx) ALTRET(err_proc);
     1547    11070
     1548    11071        */
     1549    11072
     1550    11073    1   FPO$REWIND: ENTRY(DCTX) ALTRET;
     1551    11074
PL6.E3A0      #002=FPO$WRITELBL File=FPO$OPNOD.:E05TSI                           TUE 07/29/97 17:20 Page:207
     1552    11075    1         CALL SETUP (DCTX) ALTRET(BRKOUT);
     1553    11076    1         PEOVREQ.DIR = '0';           /* Position to beginning */
     1554    11077    1         CALL WR_OSAR_MSG (%FP_FNC_POSEOV,SIZEC(PEOVREQ)) ALTRET(BRKOUT);
     1555    11078    1         CALL CHKPOSLST ALTRET(BRKOUT);
     1556    11079    1         D$->FT$DDT.POS = FTP_BOV#;
     1557    11080    1         K$RWPARM.LDCT$ = LDCT$;
     1558    11081    1         K$RWPARM.FUNCTION = %K_READDONE;
     1559    11082    1         CALL KIS$SEND (K$RWPARM);
     1560    11083              %UNLOCK (G=LDCT$->NK$LDCT.LOCK);
     1561    11086    1         RETURN;
     1562    11087
     1563    11088
     1564    11089        /*F*  NAME: FPO$OPENIN
     1565    11090              PURPOSE: Inform ADSS controller that the file positioned to
     1566    11091                  with a FINDSEQ or FINDFILE is being opened.
     1567    11092              DESCRIPTION:  Send a OPENIN message to the controller.  No
     1568    11093              results are returned.
     1569    11094
     1570    11095              CALLING SEQUENCE:
     1571    11096                 CALL FPO$OPENIN ALTRET(err_proc);
     1572    11097
     1573    11098        */
     1574    11099
     1575    11100    1   FPO$OPENIN: ENTRY ALTRET;
     1576    11101
     1577    11102    1         CALL SETUP (B$JIT.DCB$->F$DCB.SETX) ALTRET(BRKOUT);
     1578    11103    1         CALL WR_OSAR_MSG (%FP_FNC_OPENIN,SIZEC(RDEOFREQ)) ALTRET(BRKOUT);
     1579    11104    1         CALL CHKPOSLST ALTRET(BRKOUT);
     1580    11105    1         K$RWPARM.LDCT$ = LDCT$;
     1581    11106    1         K$RWPARM.FUNCTION = %K_READDONE;
     1582    11107    1         CALL KIS$SEND (K$RWPARM);
     1583    11108              %UNLOCK (G=LDCT$->NK$LDCT.LOCK);
     1584    11111    1         RETURN;
     1585    11112
     1586    11113
     1587    11114        /*F*  NAME: FPO$CLOSEIN
     1588    11115              PURPOSE: Inform ADSS controller that the current file is
PL6.E3A0      #002=FPO$WRITELBL File=FPO$OPNOD.:E05TSI                           TUE 07/29/97 17:20 Page:208
     1589    11116                  being closed.
     1590    11117              DESCRIPTION:  Send a CLOSEIN message to the controller.  No
     1591    11118              results are returned.
     1592    11119
     1593    11120              CALLING SEQUENCE:
     1594    11121                 CALL FPO$CLOSEIN ALTRET(err_proc);
     1595    11122
     1596    11123        */
     1597    11124
     1598    11125    1   FPO$CLOSEIN: ENTRY ALTRET;
     1599    11126
     1600    11127
     1601    11128    1         CALL SETUP (B$JIT.DCB$->F$DCB.SETX) ALTRET (BRKOUT);
     1602    11129    1         CALL WR_OSAR_MSG (%FP_FNC_CLOSEIN,SIZEC(RDEOFREQ)) ALTRET(BRKOUT);
     1603    11130    1         CALL CHKPOSLST ALTRET(BRKOUT);
     1604    11131    1         K$RWPARM.LDCT$ = LDCT$;
     1605    11132    1         K$RWPARM.FUNCTION = %K_READDONE;
     1606    11133    1         CALL KIS$SEND (K$RWPARM);
     1607    11134              %UNLOCK (G=LDCT$->NK$LDCT.LOCK);
     1608    11137    1         RETURN;
     1609    11138
     1610    11139        /*F*  NAME: FPO$RDEOFLBL
     1611    11140              PURPOSE: Obtain end of file information from current
     1612    11141                  file.
     1613    11142              DESCRIPTION:  Send an RDEOF message to the controller and
     1614    11143              and put the results into the caller's buffer.
     1615    11144
     1616    11145              CALLING SEQUENCE:
     1617    11146                 CALL FPO$RDEOFLBL (LBL1$) ALTRET(err_proc);
     1618    11147
     1619    11148        */
     1620    11149
     1621    11150    1   FPO$RDEOFLBL: ENTRY(DCTX) ALTRET;
     1622    11151
     1623    11152    1         CALL SETUP (B$JIT.DCB$->F$DCB.SETX) ALTRET(BRKOUT);
     1624    11153    1         CALL WR_OSAR_MSG (%FP_FNC_RDEOF,SIZEC(RDEOFREQ)) ALTRET(BRKOUT);
     1625    11154    1         CALL CHKPOSLST ALTRET(BRKOUT);
PL6.E3A0      #002=FPO$WRITELBL File=FPO$OPNOD.:E05TSI                           TUE 07/29/97 17:20 Page:209
     1626    11155    1         LBL1$->LBL = RDEOFACK.LBL;
     1627    11156    1         K$RWPARM.LDCT$ = LDCT$;
     1628    11157    1         K$RWPARM.FUNCTION = %K_READDONE;
     1629    11158    1         CALL KIS$SEND (K$RWPARM);
     1630    11159              %UNLOCK (G=LDCT$->NK$LDCT.LOCK);
     1631    11162    1         RETURN;
     1632    11163
     1633    11164        /*F*  NAME: FPO$COPYDEV
     1634    11165              PURPOSE: tell the controller to copy optical disc specified
     1635    11166              by DCB.UB$->VLP$SN to the unlabeled optical disc to which
     1636    11167              this DCB is open.  The labeled disc had to have been previously
     1637    11168              mounted by a FILE type open.
     1638    11169        */
     1639    11170    1   FPO$COPYDEV: ENTRY ALTRET;
     1640    11171    1         CALL SETUP (B$JIT.DCB$->F$DCB.SETX) ALTRET(BRKOUT);
     1641    11172    1         COPYREQ.SER = F$DCB.UB$->SER;
     1642    11173    1         CALL WR_OSAR_MSG (%FP_FNC_COPY,SIZEC(COPYREQ)) ALTRET(BRKOUT);
     1643    11174    1         GOTO LABEL1;
     1644    11175
     1645    11176
     1646    11177        /*F*  NAME: FPO$LABELOD
     1647    11178              PURPOSE: Tell the controller to label a platter.
     1648    11179
     1649    11180              CALLING SEQUENCE:
     1650    11181                 CALL FPO$LABELOD(LBL1$) ALTRET(err_proc);
     1651    11182
     1652    11183        */
     1653    11184
     1654    11185    1   FPO$LABELOD: ENTRY(DCTX) ALTRET;
     1655    11186
     1656    11187    1         CALL SETUP (B$JIT.DCB$->F$DCB.SETX) ALTRET(BRKOUT);
     1657    11188    1         LABELREQ.VOL1 = LBL1$->LBL;  /* Fill in VOL1 info from user's buffer. */
     1658    11189    1         CALL WR_OSAR_MSG(%FP_FNC_LABEL,SIZEC(LABELREQ)) ALTRET(BRKOUT);
     1659    11190    1   LABEL1: ;   /* completion code for COPY is same as for LABEL */
     1660    11191    1         CALL CHKPOSLST ALTRET(BRKOUT);
     1661    11192    1         ERRSAV = '0'B;
     1662    11193    2         DO CASE(LABELACK.STT);
PL6.E3A0      #002=FPO$WRITELBL File=FPO$OPNOD.:E05TSI                           TUE 07/29/97 17:20 Page:210
     1663    11194    2          CASE(0);                       /* Success. */
     1664    11195                                                /* Do nothing. */
     1665    11196    2          CASE(1);                       /* Platter already labelled. */
     1666    11197    2            ERRSAV = E_CANTLABELOD;
     1667    11198    2          CASE(2);                       /* I/O error. */
     1668    11199    2            ERRSAV = E_IOERR;
     1669    11200    2            F$DCB.TYC.IOERR(1) = '1'B;
     1670    11201    2          END;
     1671    11202    1         F$DCB.TYC(0) = F$DCB.TYC(1);
     1672    11203    1         K$RWPARM.LDCT$ = LDCT$;
     1673    11204    1         K$RWPARM.FUNCTION = %K_READDONE;
     1674    11205    1         CALL KIS$SEND (K$RWPARM);
     1675    11206              %UNLOCK (G=LDCT$->NK$LDCT.LOCK);
     1676    11209    1         IF ERRSAV THEN
     1677    11210    1            B$JIT.ERR = ERRSAV;
     1678    11211    1         RETURN;
     1679    11212
     1680    11213    1   FPO$FINDFSN: ENTRY(DCTX) ALTRET;
     1681    11214
     1682    11215    1         CALL SETUP (B$JIT.DCB$->F$DCB.SETX) ALTRET(BRKOUT);
     1683    11216    1         F$DCB.TYC = '0'B;
     1684    11217    1         CALL BINCHAR (FNDSQREQ.FSN,F$DCB.FSN);
     1685    11218    1         CALL WR_OSAR_MSG (%FP_FNC_FNDSEQ,SIZEC(FNDSQREQ)) ALTRET(BRKOUT);
     1686    11219    1         CALL CHKPOSLST ALTRET(BRKOUT);
     1687    11220    2         DO CASE(FNDACK.STT);             /* Check status. */
     1688    11221    2          CASE(0);                      /* Success.      */
     1689    11222    2            LBL1$->HDRS = FNDACK.HDRS; /* Return HDR1 and HDR2 labels */
     1690    11223    2          CASE(1);                      /* File was before BOV. */
     1691    11224    2            F$DCB.TYC.BOT(1) = '1'B;
     1692    11225    2          CASE(2);                      /* File was after EOV, no next vol. */
     1693    11226    2            F$DCB.TYC.EOF(1) = '1'B;
     1694    11227    2          CASE(3);                      /* File was after EOV, have next vol. */
     1695    11228    2            F$DCB.TYC.EOT(1) = '1'B;
     1696    11229    2          CASE(4);                      /* Empty entry for this FSN. */
     1697    11230    2            F$DCB.TYC.EOD(1) = '1'B;
     1698    11231    2          CASE(5);                      /* Can't read header sector. */
     1699    11232    2            F$DCB.TYC.IOERR(1) = '1'B;
PL6.E3A0      #002=FPO$WRITELBL File=FPO$OPNOD.:E05TSI                           TUE 07/29/97 17:20 Page:211
     1700    11233    2          END;
     1701    11234    1         K$RWPARM.LDCT$ = LDCT$;
     1702    11235    1         K$RWPARM.FUNCTION = %K_READDONE;
     1703    11236    1         CALL KIS$SEND (K$RWPARM);
     1704    11237              %UNLOCK (G=LDCT$->NK$LDCT.LOCK);
     1705    11240    1         RETURN;
     1706    11241
     1707    11242    1   FPO$FINDFILE: ENTRY(DCTX ) ALTRET;
     1708    11243
     1709    11244    1         CALL SETUP (B$JIT.DCB$->F$DCB.SETX) ALTRET(BRKOUT);
     1710    11245    1         FNDFLREQ.NM = F$DCB.NAME;
     1711    11246    1         F$DCB.TYC = '0'B;
     1712    11247    1         CALL WR_OSAR_MSG (%FP_FNC_FNDFIL,SIZEC(FNDFLREQ)) ALTRET(BRKOUT);
     1713    11248    1         CALL CHKPOSLST ALTRET(BRKOUT);
     1714    11249    2         DO CASE(FNDACK.STT);             /* Check status. */
     1715    11250    2          CASE(0);                      /* Success.      */
     1716    11251    2            LBL1$->HDRS = FNDACK.HDRS; /* Return HDR1 and HDR2 labels */
     1717    11252    2          CASE(2);                      /* File not found, no next vol. */
     1718    11253    2            F$DCB.TYC.EOF(1) = '1'B;
     1719    11254    2          CASE(3);                      /* File not found, have next vol. */
     1720    11255    2            F$DCB.TYC.EOT(1) = '1'B;
     1721    11256    2          CASE(5);                      /* Can't read header sector. */
     1722    11257    2            F$DCB.TYC.IOERR(1) = '1'B;
     1723    11258    2          CASE(6);                      /* Volume was empty. */
     1724    11259    2            F$DCB.TYC.EOD(1) = '1'B;
     1725    11260    2          END;
     1726    11261    1         K$RWPARM.LDCT$ = LDCT$;
     1727    11262    1         K$RWPARM.FUNCTION  = %K_READDONE;
     1728    11263    1         CALL KIS$SEND (K$RWPARM);
     1729    11264              %UNLOCK (G=LDCT$->NK$LDCT.LOCK);
     1730    11267    1         RETURN;
     1731    11268
     1732    11269        /*    Read Library Map from OD Controller                         */
     1733    11270
     1734    11271    1   FPO$RDODMAP: ENTRY(DCTX) ALTRET;
     1735    11272    1         F = %FP_FNC_MAP;
     1736    11273    1         M$ = ADDR(MSG);
PL6.E3A0      #002=FPO$WRITELBL File=FPO$OPNOD.:E05TSI                           TUE 07/29/97 17:20 Page:212
     1737    11274    1         XFERREQ.USRNO.B1 = S_CUN / 256;
     1738    11275    1         XFERREQ.USRNO.B2 = MOD(S_CUN,256);
     1739    11276    1         GOTO RDWROD;
     1740    11277    1   FPO$RDODBLK: ENTRY(DCTX) ALTRET;
     1741    11278    1         F = %FP_FNC_RD;
     1742    11279    1         GOTO RDWROD;
     1743    11280    1   FPO$WRODBLK: ENTRY(DCTX) ALTRET;
     1744    11281    1         F = %FP_FNC_WR;
     1745    11282    1         GOTO RDWROD;
     1746    11283    1   FPO$TRUNC: ENTRY(DCTX) ALTRET;
     1747    11284    1         F = %FP_FNC_TRUNC;
     1748    11285    1         GOTO RDWROD;
     1749    11286    1   FPO$UNTRUNC: ENTRY(DCTX) ALTRET;
     1750    11287    1         F = %FP_FNC_UNTRUNC;
     1751    11288    1   RDWROD: ;
     1752    11289    1         CALL SETUP (B$JIT.DCB$->F$DCB.SETX) ALTRET(BRKOUT);
     1753    11290    1         F$DCB.TYC = '0'B;
     1754    11291    1         QSZ = F$DCB.ARS;
     1755    11292    1         WSQ = N$DCT$(DCTN)->NI$DCT.OD.FEI$->KI$FEI.FEWSQ;
     1756    11293    1         CALL MMS$VGET (WSQ,BFR$,SZ,QMP$) ALTRET(NOBFR);
     1757    11294    1         XFERREQ.ADR.B4 = MP.B4;
     1758    11295    1         XFERREQ.ADR.B3 = MP.B3;
     1759    11296    1         XFERREQ.ADR.B2 = MP.B2;
     1760    11297    1         XFERREQ.ADR.B1 = 0;
     1761    11298    1         XFERREQ.SIZE.B4 = SZ.B4;
     1762    11299    1         XFERREQ.SIZE.B3 = SZ.B3;
     1763    11300    1         XFERREQ.SIZE.B2 = SZ.B2;
     1764    11301    1         XFERREQ.SIZE.B1 = 0;
     1765    11302    1         CALL WR_OSAR_MSG (F,SIZEC(XFERREQ)) ALTRET(WRERR);
     1766    11303    1         CALL CHKPOSLST ALTRET(BRKOUT);
     1767    11304    2         DO CASE(XFERACK.STT);
     1768    11305    2          CASE(0);                      /* Success. */
     1769    11306                                               /* Nothing to do. */
     1770    11307    2          CASE(1);                      /* End of file hit (read). */
     1771    11308    2            F$DCB.TYC.EOF(1) = '1'B;
     1772    11309    2          CASE(2);                      /* I/O error hit. */
     1773    11310    2            F$DCB.TYC.IOERR(1) = '1'B;
PL6.E3A0      #002=FPO$WRITELBL File=FPO$OPNOD.:E05TSI                           TUE 07/29/97 17:20 Page:213
     1774    11311    2          CASE(3);                      /* Lost data (on reads only). */
     1775    11312    2            F$DCB.TYC.LD(1) = '1'B;
     1776    11313    2          CASE(4);                      /* End of platter hit (write). */
     1777    11314    2            F$DCB.TYC.EOT(1) = '1'B;
     1778    11315    2          END;
     1779    11316    1         CNVTLNG.B1 = XFERACK.SIZE.B1;
     1780    11317    1         CNVTLNG.B2 = XFERACK.SIZE.B2;
     1781    11318    1         CNVTLNG.B3 = XFERACK.SIZE.B3;
     1782    11319    1         CNVTLNG.B4 = XFERACK.SIZE.B4;
     1783    11320    1         F$DCB.ARS = CNVTLNGWD;
     1784    11321    1         K$RWPARM.LDCT$ = LDCT$;
     1785    11322    1         K$RWPARM.FUNCTION  = %K_READDONE;
     1786    11323    1         CALL KIS$SEND (K$RWPARM);
     1787    11324              %UNLOCK (G=LDCT$->NK$LDCT.LOCK);
     1788    11327    1         CALL MMS$VREL (WSQ,QMP$);
     1789    11328    2         IF F$DCB.TYC.IOERR(1) THEN DO;   /* I/O error happened, need to altret. */
     1790    11329    2            B$JIT.ERR = E_IOERR;
     1791    11330    2            ALTRETURN;
     1792    11331    2            END;
     1793    11332    1         RETURN;
     1794    11333    1   WRERR: CALL MMS$VREL (WSQ,QMP$);
     1795    11334    1   BRKOUT:
     1796    11335    2         IF LDCT$->NK$LDCT.DFLG.FEDN THEN DO;
     1797    11336    2            B$JIT.DCB$->F$DCB.TYC.IOERR(1) = '1'B;
     1798    11337    2            B$JIT.ERR = E_IOERR;
     1799    11338    2            END;
     1800    11339
     1801    11340    1   NOBFR: ;
     1802    11341    1         CALL SC_FPOBADSEND;          /* No buffers - cant send */
     1803    11342
     1804    11343        /*S*  SCREECH_CODE: FPO-S$BADSEND-8
     1805    11344              TYPE: SCREECH
     1806    11345              MESSAGE: No buffer space in CWSQ for OD data transfer.
     1807    11346              DESCRIPTION:  MMS$VGET was unable to find space for the output
     1808    11347              buffer in the Comm WSQ for the current read write operation.
     1809    11348              There should always be enough space since there are only four
     1810    11349              devices at a max of 8k words each.
PL6.E3A0      #002=FPO$WRITELBL File=FPO$OPNOD.:E05TSI                           TUE 07/29/97 17:20 Page:214
     1811    11350        */
     1812    11351
     1813    11352    1   WR_OSAR_MSG: PROC (FNC,MSZ) ALTRET;
     1814    11353
     1815    11354    2   DCL FNC UBIN;                      /* function code to send */
     1816    11355    2   DCL MSZ UBIN;                      /* message size             */
     1817    11356
     1818    11357        %FPP$MHDR (NAME=MSG,STCLASS="BASED(M$)",LAST=";");
     1819    11371
     1820    11372
     1821    11373    2         MSG.FNC = FNC;
     1822    11374    2         MSG.DCTX.HI = CDCT.HI;       /* soliciting resource dct index */
     1823    11375    2         MSG.DCTX.LO = CDCT.LO;
     1824    11376    2         IF FNC = %FP_FNC_MAP THEN
     1825    11377    2            MSG.DEV# = 0;             /* send message to admin */
     1826    11378    2         ELSE
     1827    11379    2            MSG.DEV# = N$DCT$(DCTN)->NI$DCT.DVN;/* destination device */
     1828    11380    2         K$RWPARM = K_RWPARM_CON;
     1829    11381    2         K$RWPARM.MSG$ = M$;
     1830    11382    2         K$RWPARM.MSGSZ = MSZ;
     1831    11383              %LOCK (G=LDCT$->NK$LDCT.LOCK);
     1832    11386    2   WRT:  CALL KIA$WRITE_USER (LDCT$->NK$LDCT,K$RWPARM) ALTRET(QFULL);
     1833    11387    2         CALL SSR$REG (%SS_CW,LDCT$) ALTRET(BRKOUT);
     1834    11388              %LOCK (G=LDCT$->NK$LDCT.LOCK);
     1835    11391    2   RD:   ;
     1836    11392    2         K$RWPARM.IP$ = LDCT$->NK$LDCT.IP$;
     1837    11393    2         LDCT$->NK$LDCT.IP$ = ADDR(NIL);
     1838    11394    3         IF K$RWPARM.IP$ ~= ADDR(NIL) THEN DO;
     1839    11395    3            CALL KIQ$MAPFEP(LDCT$->NK$LDCT.IPFEI#);
     1840    11396    3            K$RWPARM.UHDR$ = PINCRC(K$RWPARM.IP$,K$RWPARM.IP$->KI$QMHDR.OFFSET);
     1841    11397    3            K$RWPARM.UHDRSZ = K$RWPARM.IP$->KI$QMHDR.SIZE;
     1842    11398    3            CALL KIA$MSG (K$RWPARM);
     1843    11399    3            END;
     1844    11400    2         RETURN;
     1845    11401
     1846    11402    2   QFULL: IF (S$CU$->B$U.ASYNCH & ~%U_RESET) OR LDCT$->NK$LDCT.DFLG.FEDN THEN
     1847    11403    2            GOTO BRKOUT1;
PL6.E3A0      #002=FPO$WRITELBL File=FPO$OPNOD.:E05TSI                           TUE 07/29/97 17:20 Page:215
     1848    11404    3         IF K$RWPARM.ERR = %K$NO_THROT THEN DO;
     1849    11405    3            N$DCT$(DCTN)->NI$DCT.OD.THRTLD = 1;
     1850    11406    3            CALL SSR$REG (%SS_CBL,LDCT$);
     1851    11407                %LOCK (G=LDCT$->NK$LDCT.LOCK);
     1852    11410    3            GOTO WRT;
     1853    11411    3            END;
     1854    11412    3         IF K$RWPARM.ERR = %K$QFULL THEN DO;
     1855    11413    3            CALL KIA$OQFL (LDCT$->NK$LDCT) ALTRET(BRKOUT) ;
     1856    11414    3            GOTO WRT;
     1857    11415    3            END;
     1858    11416    2   BRKOUT1:
     1859    11417              %UNLOCK (G=LDCT$->NK$LDCT.LOCK);
     1860    11420    2         ALTRETURN;                   /* Error                        */
     1861    11421
     1862    11422    2   BRKOUT: ;
     1863    11423              %LOCK (G=LDCT$->NK$LDCT.LOCK);
     1864    11426    2         IF LDCT$->NK$LDCT.IP$ ~= ADDR(NIL) THEN
     1865    11427    2            GOTO RD;
     1866    11428              %UNLOCK (G=LDCT$->NK$LDCT.LOCK);
     1867    11431    2         ALTRETURN;
     1868    11432    2   END;
     1869    11433    1   SETUP: PROC(DCTX) ALTRET;
     1870    11434
     1871    11435    2   DCL DCTX UBIN;
     1872    11436
     1873    11437    2         M$ = ADDR(MSG);             /* Message pointer for write */
     1874    11438    2         DCTN = DCTX;                 /* DCT index                   */
     1875    11439    2         JDCB$ = B$JIT.DCB$;          /* DCB pointer               */
     1876    11440    2         LDCT$ = N$DCT$(DCTX)->NI$DCT.OD.LDCT$;
     1877    11441    2         D$ = N$DCT$(DCTX)->NI$DCT.DDT$; /* DDT pointer            */
     1878    11442    3         IF D$->FT$DDT.POSLOST THEN DO;
     1879    11443    3            B$JIT.ERR = E_IOERR;
     1880    11444    3            ALTRETURN;
     1881    11445    3            END;
     1882    11446    2         RETURN;
     1883    11447    2   END;
     1884    11448
PL6.E3A0      #002=FPO$WRITELBL File=FPO$OPNOD.:E05TSI                           TUE 07/29/97 17:20 Page:216
     1885    11449    1   CHKPOSLST: PROC ALTRET;
     1886    11450
     1887    11451    3         IF XFERACK.STT = 6 THEN DO;
     1888    11452    3            B$JIT.ERR = E_IOERR;
     1889    11453    3            B$JIT.DCB$->F$DCB.TYC.IOERR(1) = '1'B;
     1890    11454    3            D$->FT$DDT.POSLOST = '1'B;
     1891    11455    3            ALTRETURN;
     1892    11456    3            END;
     1893    11457    2         RETURN;
     1894    11458    2   END;
     1895    11459    1         ALTRETURN;
     1896    11460    1   END;

PL6.E3A0      #002=FPO$WRITELBL File=FPO$OPNOD.:E05TSI                           TUE 07/29/97 17:20 Page:217
--  Include file information  --

   HF_LOCK_C.:E05TOU  cannot be made into a system file and is referenced.
   FP_MACRO_C.:E05TOU  is referenced.
   FT_SUBS.:E05TOU  is referenced.
   F_ERRORS_C.:E05TOU  is referenced.
   FT$DDT.:E05TOU  cannot be made into a system file and is referenced.
   FR$RAT.:E05TOU  is referenced.
   SS_SCHED_C.:E05TOU  is referenced.
   B$USER.:E05TOU  cannot be made into a system file and is referenced.
   NK_LDCT_R.:E05TOU  cannot be made into a system file and is referenced.
   NK$LDCT.:E05TOU  is referenced.
   NI$TABLES.:E05TOU  is referenced.
   KI$MHDR.:E05TOU  is referenced.
   KI_MACROS_C.:E05TOU  is referenced.
   K$RWPARM.:E05TOU  is referenced.
   K_SUBS_C.:E05TOU  is referenced.
   F$DCB.:E05TOU  is referenced.
   B$JIT_C.:E05TOU  is referenced.
   F_SCODE_C.:E05TOU  is referenced.
   CP_6_SUBS.:E05TOU  is referenced.
   CP_6_C.:E05TOU  is referenced.
   CP_6.:E05TOU  cannot be made into a system file and is referenced.
      No diagnostics issued in procedure FPO$WRITELBL.

   Procedure FPO$WRITELBL requires 992 words for executable code.
   Procedure FPO$WRITELBL requires 116 words of local(AUTO) storage.

    No errors detected in file FPO$OPNOD.:E05TSI    .

PL6.E3A0      #002=FPO$WRITELBL File=FPO$OPNOD.:E05TSI                           TUE 07/29/97 17:20 Page:218

 Object Unit name= FPO$WRITELBL                               File name= FPO$OPNOD.:E05TOU
 UTS= JUL 29 '97 17:20:03.76 TUE                              Compiler= PL-6/E31         Sev=      00
 SharedLib= :SHARED_SYSTEM                                    Alt SharedLib=


    ****  Control sections  ****

 Sect   Type Bound  Init  Size OctSiz  Section name(segment info)
    0   DCB   even  none     0      0  M$UC
    1  RoData even  UTS      5      5  FPO$WRITELBL
    2   Proc  even  none   992   1740  FPO$WRITELBL
    3  RoData even  none    33     41  FPO$WRITELBL

    ****  Entry defs  ****

                              Check   Calling
                             calling  sequence
  Sect OctLoc Primary Altret sequence   type   Parms  Name
     2      0   yes    yes     yes      Std        2  FPO$WRITELBL
     2    115          yes     yes      Std        1  FPO$PEOV
     2    247          yes     yes      Std        1  FPO$REWIND
     2    320          yes     yes      Std        0  FPO$OPENIN
     2    364          yes     yes      Std        0  FPO$CLOSEIN
     2    430          yes     yes      Std        1  FPO$RDEOFLBL
     2    502          yes     yes      Std        0  FPO$COPYDEV
     2    531          yes     yes      Std        1  FPO$LABELOD
     2    637          yes     yes      Std        1  FPO$FINDFSN
     2    765          yes     yes      Std        1  FPO$FINDFILE
     2   1104          yes     yes      Std        1  FPO$RDODMAP
     2   1127          yes     yes      Std        1  FPO$RDODBLK
     2   1134          yes     yes      Std        1  FPO$WRODBLK
     2   1141          yes     yes      Std        1  FPO$TRUNC
     2   1146          yes     yes      Std        1  FPO$UNTRUNC
PL6.E3A0      #002=FPO$WRITELBL File=FPO$OPNOD.:E05TSI                           TUE 07/29/97 17:20 Page:219

  ****  Entry refs  ****

         Check        Calling
        calling       sequence
Altret sequence SRef   type   Args  Name
 yes     yes           Std       1 KIS$SEND
         yes           Std       1 HFC$UNLOCK
 yes     yes           Std       4 MMS$VGET
 yes     yes           Std       2 MMS$VREL
         yes           Std       1 HFC$LOCK
 yes     yes           Std       2 KIA$WRITE_USER
 yes     yes           Std       3 SSR$REG
         yes           Std       1 KIQ$MAPFEP
 yes     yes           Std       1 KIA$OQFL
 yes     yes           Std       1 KIA$MSG
                       Std       0 B_CONSPOOL_D
                       nStd      0 X66_AUTO_2
                       nStd      0 X66_AALT
                       nStd      0 X66_ARET

  ****  Data refs  ****

  Flags:  r = read only, s = secondary
Flgs Name                             Flgs Name                             Flgs Name
     SC_FPOBADSEND                         M$UC                                  N$DCT$$
     S$CU$                                 K_RWPARM_CON                          B$JIT$
     S_CUN                                 B_VECTNIL

  ****  Segment refs  ****

  Flags:  r = read only, s = secondary
Flgs Name                             Flgs Name                             Flgs Name
     ASLENTSID                             ISSID
PL6.E3A0      #002=FPO$WRITELBL File=FPO$OPNOD.:E05TSI                           TUE 07/29/97 17:20 Page:220


     1294        1        /*T***********************************************************/
     1295        2        /*T*                                                         */
     1296        3        /*T* Copyright (c) Bull HN Information Systems Inc., 1997    */
     1297        4        /*T*                                                         */
     1298        5        /*T***********************************************************/
     1299        6        /*F*  NAME: FPO$WRITELBL
     1300        7              PURPOSE: Write labels to optical disk volumes.
     1301        8              DESCRIPTION:  Send a write-label message containing the label
     1302        9              data to the optical disc device handler.
     1303       10
     1304       11              CALLING SEQUENCE:
     1305       12                 CALL FPO$WRITELBL (LBL1$,LBL2$) ALTRET(cvol_proc);
     1306       13
     1307       14        */
     1308       15
     1309       16        FPO$WRITELBL: PROC  (DCTX,SER$) ALTRET;

     16  2 000000   000000 700200 xent  FPO$WRITELBL TSX0  ! X66_AUTO_2
         2 000001   000164 000002                    ZERO    116,2

     1310       17
     1311       18        %INCLUDE CP_6;
     1312     5577        %INCLUDE CP_6_SUBS;
     1313     6117        %INCLUDE F_SCODE_C;
     1314     6153        %INCLUDE B$JIT_C;
     1315     6467           %B$JIT0;
     1316     6556           %U$JIT1X;
     1317     6559           %M$JIT2X;
     1318     6562           %F$JIT3;
     1319     6567           %S$JIT4X;
     1320     6570           %J$JIT5X;
     1321     6573           %A$JIT6;
     1322     6583        %MACRO F$DCBBJ(BASED=BASED);
     1323     6584        %INCLUDE F$DCB;
     1324     6633        %MEND;
     1325     6634           %F$DCBBJ(BASED="BASED(JDCB$)");
PL6.E3A0      #002=FPO$WRITELBL File=FPO$OPNOD.:E05TSI                           TUE 07/29/97 17:20 Page:221
     1326     6684        %INCLUDE K_SUBS_C;
     1327     6717        %INCLUDE K$RWPARM;
     1328     7103        %INCLUDE KI_MACROS_C;
     1329     7711        %INCLUDE KI$MHDR;
     1330     7852        %INCLUDE NI$TABLES;
     1331     8068        %INCLUDE NK$LDCT;
     1332     8170        %INCLUDE NK_LDCT_R;
     1333     8179        %INCLUDE B$USER;
     1334     8395        %B$USERREFS;
     1335     8399        %INCLUDE SS_SCHED_C;
     1336     8632        %INCLUDE FR$RAT;
     1337     8685        %INCLUDE FT$DDT;
     1338     8746        %INCLUDE F_ERRORS_C;
     1339     8986        %INCLUDE FT_SUBS;
     1340     9066        %INCLUDE FP_MACRO_C;
     1341     9338        %INCLUDE HF_LOCK_C;
     1342     9352
     1343     9353
     1344     9354        /*    Parameters    */
     1345     9355    1   DCL DCTX UBIN;                     /* Soliciting device DCT index */
     1346     9356    1   DCL LBL1$ REDEF DCTX PTR;          /* HDR1 label record ptr       */
     1347     9357    1   DCL BFR$ REDEF DCTX PTR;           /* I/O buffer pointer             */
     1348     9358    1   DCL DIR REDEF DCTX SBIN;           /* search direction           */
     1349     9359    1   DCL SER$ PTR;                      /* Serial number ptr          */
     1350     9360    1   DCL LBL2$ REDEF SER$ PTR;          /* HDR2 label record ptr       */
     1351     9361    1   DCL FSN REDEF SER$ UBIN;           /* file sequence number        */
     1352     9362    1   DCL CONFNC REDEF SER$ UBIN;        /*  1 = partition, 0 = return  */
     1353     9363
     1354     9364        /*    Auto           */
     1355     9365
     1356     9366        %K$RWPARM (NAME=K$RWPARM, STCLASS="");
     1357     9682
     1358     9683    1   DCL O$ PTR;
     1359     9684    1   DCL D$ PTR;
     1360     9685    1   DCL M$ PTR;
     1361     9686    1   DCL LDCT$ PTR;
     1362     9687    1   DCL RAT$ PTR;
PL6.E3A0      #002=FPO$WRITELBL File=FPO$OPNOD.:E05TSI                           TUE 07/29/97 17:20 Page:222
     1363     9688    1   DCL JDCB$ PTR;
     1364     9689    1   DCL ERRSAV BIT(36);
     1365     9690    1   DCL I UBIN;
     1366     9691    1   DCL F UBIN;
     1367     9692    1   DCL WSQ UBIN;
     1368     9693    1   DCL STT UBIN;                      /* message write status         */
     1369     9694    1   DCL DEV UBIN;
     1370     9695    1   DCL DCTN UBIN;
     1371     9696    1   DCL 1 CDCT REDEF DCTN,
     1372     9697    1         2 * BIT(20),
     1373     9698    1         2 HI UBIN(8) UNAL,
     1374     9699    1         2 LO UBIN(8) UNAL;
     1375     9700    1   DCL MSG CHAR(180);
     1376     9701    1   DCL QSZ UBIN WORD;
     1377     9702    1   DCL 1 SZ REDEF QSZ,
     1378     9703    1         2 * UBIN(12) UNAL,
     1379     9704    1         2 B2 UBIN(8) UNAL,
     1380     9705    1         2 B3 UBIN(8) UNAL,
     1381     9706    1         2 B4 UBIN(8) UNAL;
     1382     9707    1   DCL QMP$ PTR;                      /* CWSQ buffer pointer, converts to */
     1383     9708    1   DCL 1 MP REDEF QMP$,               /* word offset for DIB xfer      */
     1384     9709    1         2 B2 UBIN(2) UNAL,
     1385     9710    1         2 B3 UBIN(8) UNAL,
     1386     9711    1         2 B4 UBIN(8) UNAL,
     1387     9712    1         2 * UBIN(18) UNAL;
     1388     9713    1   DCL CNVTLNGWD UBIN WORD;
     1389     9714    1   DCL 1 CNVTLNG REDEF CNVTLNGWD,
     1390     9715    1         2 * UBIN(4) UNAL,
     1391     9716    1         2 B1 UBIN(8) UNAL,
     1392     9717    1         2 B2 UBIN(8) UNAL,
     1393     9718    1         2 B3 UBIN(8) UNAL,
     1394     9719    1         2 B4 UBIN(8) UNAL;
     1395     9720
     1396     9721        /*    Based          */
     1397     9722
     1398     9723        %NI$DCT;
     1399     9771        %NI$DQH;
PL6.E3A0      #002=FPO$WRITELBL File=FPO$OPNOD.:E05TSI                           TUE 07/29/97 17:20 Page:223
     1400     9794        %FR$RAT;
     1401     9834        %K$RWPARM (NAME=KI$RWPARM,STCLASS=BASED);
     1402    10150        %NK$LDCT;
     1403    10196        %KI$QMHDR;
     1404    10245        %KI$FEI;
     1405    10329        %FPP$WRITELBLREQ (NAME=WRITELBLREQ,STCLASS="BASED(M$)");
     1406    10347        %FPP$PEOVREQ (NAME=PEOVREQ,STCLASS="BASED(M$)");
     1407    10364        %FPP$RDEOFREQ (NAME=RDEOFREQ,STCLASS="BASED(M$)");
     1408    10380        %FPP$FNDSQREQ (NAME=FNDSQREQ,STCLASS="BASED(M$)");
     1409    10397        %FPP$FNDFLREQ (NAME=FNDFLREQ,STCLASS="BASED(M$)");
     1410    10416        %FPP$XFERREQ (NAME=XFERREQ,STCLASS="BASED(M$)");
     1411    10445        %FPP$COPYREQ (NAME=COPYREQ,STCLASS="BASED(M$)");
     1412    10462        %FPP$LABELREQ (NAME=LABELREQ,STCLASS="BASED(M$)");
     1413    10479        %FPP$WRITELBLACK (NAME=WRITELBLACK,STCLASS="BASED(K$RWPARM.MSG$)");
     1414    10495        %FPP$PEOVACK (NAME=PEOVACK,STCLASS="BASED(K$RWPARM.MSG$)");
     1415    10513        %FPP$RDEOFACK (NAME=RDEOFACK,STCLASS="BASED(K$RWPARM.MSG$)");
     1416    10530        %FPP$FNDACK (NAME=FNDACK,STCLASS="BASED(K$RWPARM.MSG$)");
     1417    10547        %FPP$LABELACK (NAME=LABELACK,STCLASS="BASED(K$RWPARM.MSG$)");
     1418    10563        %FPP$XFERACK (NAME=XFERACK,STCLASS="BASED(K$RWPARM.MSG$)");
     1419    10593        %FP$OPCI (STCLASS=BASED);
     1420    10603    1   DCL 1 CNVT BASED,
     1421    10604    1         2 * BIT(20) UNAL,
     1422    10605    1         2 HI BIT(8) UNAL,
     1423    10606    1         2 LO BIT(8) UNAL;
     1424    10607    1   DCL SER CHAR(6) BASED(SER$);
     1425    10608    1   DCL LBL CHAR(80) BASED;
     1426    10609    1   DCL HDRS CHAR(160) BASED;
     1427    10610
     1428    10611
     1429    10612        /*    Constant                       */
     1430    10613
     1431    10614
     1432    10615        /*    External                      */
     1433    10616
     1434    10617        %K$RWPARM (NAME=K_RWPARM_CON,STCLASS=SYMREF);
     1435    10933
     1436    10934    1   DCL FP_OPCI$$ PTR SYMREF;
PL6.E3A0      #002=FPO$WRITELBL File=FPO$OPNOD.:E05TSI                           TUE 07/29/97 17:20 Page:224
     1437    10935    1   DCL N$DCT$(0:0) PTR BASED(N$DCT$$);
     1438    10936    1   DCL B$JIT$ PTR SYMREF;
     1439    10937    1   DCL S_CUN UBIN SYMREF;
     1440    10938
     1441    10939    1   DCL KIA$WRITE_USER ENTRY(2) ALTRET;
     1442    10940    1   DCL KIA$MSG ENTRY(1) ALTRET;
     1443    10941    1   DCL KIA$OQFL ENTRY(1) ALTRET;
     1444    10942    1   DCL KIS$SEND ENTRY(1) ALTRET;
     1445    10943    1   DCL KIQ$MAPFEP ENTRY(1);
     1446    10944    1   DCL SSR$REG ENTRY(3) ALTRET;
     1447    10945    1   DCL MMS$VGET ENTRY(4) ALTRET;
     1448    10946    1   DCL MMS$VREL ENTRY(2) ALTRET;
     1449    10947    1   DCL SC_FPOBADSEND ENTRY CONV(2,0);
     1450    10948
     1451    10949
     1452    10950
     1453    10951       %FT$ERR( ERRNAME=E_CANTLABELOD, FCG='0620'O, MID='17'O, CODE=%E$CANTLABELOD, SEV=2 )
             10951            ;
     1454    10959        /*E*     ERROR: FPO-E$CANTLABELOD-2
     1455    10960                 MESSAGE: Can't relabel optical disk platter% %SN%.
     1456    10961                 MESSAGE1: A labeling operation was attempted on an optical disk
     1457    10962                    platter% (%SN)% that had already been labelled.
     1458    10963         ***/
     1459    10964
     1460    10965        %FT$ERR( ERRNAME=E_IOERR, FCG='0620'O, MID='17'O, CODE=%E$IOERR, SEV=2 );
     1461    10973
     1462    10974        %FT$ERR( ERRNAME=E_NOODSPACE, FCG='0620'O, MID='17'O, CODE=%E$NOODSPACE, SEV=2 );
     1463    10982        /*E*     ERROR: FPO-E$NOODSPACE-2
     1464    10983                 MESSAGE: Not enough space on optical disk volume% %SN% for file header.
     1465    10984                 MESSAGE1: There was not enough space left on an optical disk volume
     1466    10985                    for the file header information of the file being closed.  The
     1467    10986                    data in that file% (%TA)% is now inaccessible.
     1468    10987         ***/
     1469    10988
     1470    10989
     1471    10990
     1472    10991
PL6.E3A0      #002=FPO$WRITELBL File=FPO$OPNOD.:E05TSI                           TUE 07/29/97 17:20 Page:225
     1473    10992    1         CALL SETUP (B$JIT.DCB$->F$DCB.SETX) ALTRET(BRKOUT);

  10992  2 000002   000000 470400 xsym               LDP0    B$JIT$
         2 000003   000232 471500                    LDP1    154,,PR0
         2 000004   200160 451500                    STP1    @MSZ+2,,AUTO
         2 000005   200160 236100                    LDQ     @MSZ+2,,AUTO
         2 000006   000000 036000 3                  ADLQ    0
         2 000007   200155 756100                    STQ     CNVTLNGWD+3,,AUTO
         2 000010   001660 701000 2                  TSX1    SETUP
         2 000011   001377 702000 2                  TSX2    BRKOUT

     1474    10993    1         WRITELBLREQ.HDR1 = LBL1$->LBL;

  10993  2 000012   200003 470500                    LDP0    @DCTX,,AUTO
         2 000013   000000 471500                    LDP1    0,,PR0
         2 000014   200060 473500                    LDP3    M$,,AUTO
         2 000015   040100 100500                    MLR     fill='040'O
         2 000016   100000 000120                    ADSC9   0,,PR1                   cn=0,n=80
         2 000017   300001 400120                    ADSC9   1,,PR3                   cn=2,n=80

     1475    10994    1         WRITELBLREQ.HDR2 = LBL2$->LBL;

  10994  2 000020   200004 471500                    LDP1    @SER$,,AUTO
         2 000021   100000 474500                    LDP4    0,,PR1
         2 000022   040100 100500                    MLR     fill='040'O
         2 000023   400000 000120                    ADSC9   0,,PR4                   cn=0,n=80
         2 000024   300025 400120                    ADSC9   21,,PR3                  cn=2,n=80

     1476    10995    1         CALL WR_OSAR_MSG (%FP_FNC_WRITELBL,SIZEC(WRITELBLREQ)) ALTRET(BRKOUT);

  10995  2 000025   000002 236000 3                  LDQ     2
         2 000026   200156 756100                    STQ     @DCTX+1,,AUTO
         2 000027   000003 236000 3                  LDQ     3
         2 000030   200155 756100                    STQ     CNVTLNGWD+3,,AUTO
         2 000031   001414 701000 2                  TSX1    WR_OSAR_MSG
         2 000032   001377 702000 2                  TSX2    BRKOUT

PL6.E3A0      #002=FPO$WRITELBL File=FPO$OPNOD.:E05TSI                           TUE 07/29/97 17:20 Page:226
     1477    10996    1         CALL CHKPOSLST ALTRET(BRKOUT);

  10996  2 000033   001713 701000 2                  TSX1    CHKPOSLST
         2 000034   001377 702000 2                  TSX2    BRKOUT

     1478    10997    1         ERRSAV = '0'B;

  10997  2 000035   200064 450100                    STZ     ERRSAV,,AUTO

     1479    10998    2         DO CASE(WRITELBLACK.STT);

  10998  2 000036   200006 470500                    LDP0    K$RWPARM,,AUTO
         2 000037   003100 061500                    CSR     bolr='003'O
         2 000040   000000 200011                    BDSC    0,,PR0                   by=1,bit=0,n=9
         2 000041   200160 000022                    BDSC    @MSZ+2,,AUTO             by=0,bit=0,n=18
         2 000042   200160 220100                    LDX0    @MSZ+2,,AUTO
         2 000043   000004 100003                    CMPX0   4,DU
         2 000044   000046 602010 2                  TNC     s:10998+8,X0
         2 000045   000065 710000 2                  TRA     s:11008
         2 000046   000065 710000 2                  TRA     s:11008
         2 000047   000052 710000 2                  TRA     s:11002
         2 000050   000060 710000 2                  TRA     s:11005
         2 000051   000060 710000 2                  TRA     s:11005

     1480    10999    2          CASE(0);                      /* Success. */

     1481    11000                                               /* Nothing to do. */
     1482    11001    2          CASE(1);                      /* No space to write EOV/EOF label. */

     1483    11002    2            ERRSAV = E_NOODSPACE;

  11002  2 000052   000002 236000 1                  LDQ     E_NOODSPACE
         2 000053   200064 756100                    STQ     ERRSAV,,AUTO

     1484    11003    2            F$DCB.TYC.IOERR(1) = '1'B;

  11003  2 000054   200063 471500                    LDP1    JDCB$,,AUTO
PL6.E3A0      #002=FPO$WRITELBL File=FPO$OPNOD.:E05TSI                           TUE 07/29/97 17:20 Page:227
         2 000055   001000 236003                    LDQ     512,DU
         2 000056   100002 256100                    ORSQ    2,,PR1
         2 000057   000065 710000 2                  TRA     s:11008

     1485    11004    2          CASE(2,3);                    /* Bad media or other error. */

     1486    11005    2            ERRSAV = E_IOERR;

  11005  2 000060   000001 236000 1                  LDQ     E_IOERR
         2 000061   200064 756100                    STQ     ERRSAV,,AUTO

     1487    11006    2            F$DCB.TYC.IOERR(1) = '1'B;

  11006  2 000062   200063 471500                    LDP1    JDCB$,,AUTO
         2 000063   001000 236003                    LDQ     512,DU
         2 000064   100002 256100                    ORSQ    2,,PR1

     1488    11007    2          END;

     1489    11008    1         K$RWPARM.LDCT$ = LDCT$;

  11008  2 000065   200061 236100                    LDQ     LDCT$,,AUTO
         2 000066   200024 756100                    STQ     K$RWPARM+14,,AUTO

     1490    11009    1         K$RWPARM.FUNCTION = %K_READDONE;

  11009  2 000067   000011 235007                    LDA     9,DL
         2 000070   200026 755100                    STA     K$RWPARM+16,,AUTO

     1491    11010    1         CALL KIS$SEND (K$RWPARM);

  11010  2 000071   200006 630500                    EPPR0   K$RWPARM,,AUTO
         2 000072   200160 450500                    STP0    @MSZ+2,,AUTO
         2 000073   200160 630500                    EPPR0   @MSZ+2,,AUTO
         2 000074   000017 631400 xsym               EPPR1   B_VECTNIL+15
         2 000075   000000 701000 xent               TSX1    KIS$SEND
         2 000076   000000 011000                    NOP     0
PL6.E3A0      #002=FPO$WRITELBL File=FPO$OPNOD.:E05TSI                           TUE 07/29/97 17:20 Page:228

     1492    11011              %UNLOCK (G=LDCT$->NK$LDCT.LOCK);

  11012  2 000077   200061 236100                    LDQ     LDCT$,,AUTO
         2 000100   000020 036003                    ADLQ    16,DU
         2 000101   200160 756100                    STQ     @MSZ+2,,AUTO
         2 000102   200160 630500                    EPPR0   @MSZ+2,,AUTO
         2 000103   000017 631400 xsym               EPPR1   B_VECTNIL+15
         2 000104   000000 701000 xent               TSX1    HFC$UNLOCK
         2 000105   000000 011000                    NOP     0

     1493    11014    2         IF ERRSAV THEN DO;

  11014  2 000106   200064 235100                    LDA     ERRSAV,,AUTO
         2 000107   000114 600000 2                  TZE     s:11018

     1494    11015    2            B$JIT.ERR = ERRSAV;

  11015  2 000110   200064 236100                    LDQ     ERRSAV,,AUTO
         2 000111   000000 470400 xsym               LDP0    B$JIT$
         2 000112   000012 756100                    STQ     10,,PR0

     1495    11016    2            ALTRETURN;

  11016  2 000113   000000 702200 xent               TSX2  ! X66_AALT

     1496    11017    2            END;
     1497    11018    1         RETURN;

  11018  2 000114   000000 702200 xent               TSX2  ! X66_ARET

     1498    11019
     1499    11020        /*F*  NAME: FPO$PEOV
     1500    11021              PURPOSE: Obtain end of volume information from current
     1501    11022                  volume.
     1502    11023              DESCRIPTION:  Send an PEOV message to the controller and
     1503    11024              and put the results into the DDT entry.
PL6.E3A0      #002=FPO$WRITELBL File=FPO$OPNOD.:E05TSI                           TUE 07/29/97 17:20 Page:229
     1504    11025
     1505    11026              CALLING SEQUENCE:
     1506    11027                 CALL FPO$PEOV(direction) ALTRET(err_proc);
     1507    11028
     1508    11029        */
     1509    11030
     1510    11031    1   FPO$PEOV: ENTRY(DCTX) ALTRET;

  11031  2 000115   000000 700200 xent  FPO$PEOV     TSX0  ! X66_AUTO_2
         2 000116   000164 000002                    ZERO    116,2

     1511    11032
     1512    11033    1         CALL SETUP (B$JIT.DCB$->F$DCB.SETX) ALTRET (BRKOUT);

  11033  2 000117   000000 470400 xsym               LDP0    B$JIT$
         2 000120   000232 471500                    LDP1    154,,PR0
         2 000121   200160 451500                    STP1    @MSZ+2,,AUTO
         2 000122   200160 236100                    LDQ     @MSZ+2,,AUTO
         2 000123   000000 036000 3                  ADLQ    0
         2 000124   200155 756100                    STQ     CNVTLNGWD+3,,AUTO
         2 000125   001660 701000 2                  TSX1    SETUP
         2 000126   001377 702000 2                  TSX2    BRKOUT

     1513    11034    1         IF DIR < 0 THEN

  11034  2 000127   200003 470500                    LDP0    @DCTX,,AUTO
         2 000130   000000 235100                    LDA     0,,PR0
         2 000131   000137 605000 2                  TPL     s:11037

     1514    11035    1            PEOVREQ.DIR = '0';           /* Position to beginning */

  11035  2 000132   200060 471500                    LDP1    M$,,AUTO
         2 000133   040100 100400                    MLR     fill='040'O
         2 000134   000004 000001 3                  ADSC9   4                        cn=0,n=1
         2 000135   100001 400001                    ADSC9   1,,PR1                   cn=2,n=1
         2 000136   000143 710000 2                  TRA     s:11038

PL6.E3A0      #002=FPO$WRITELBL File=FPO$OPNOD.:E05TSI                           TUE 07/29/97 17:20 Page:230
     1515    11036    1         ELSE
     1516    11037    1            PEOVREQ.DIR = '1';           /* Position to end */

  11037  2 000137   200060 471500                    LDP1    M$,,AUTO
         2 000140   040100 100400                    MLR     fill='040'O
         2 000141   000005 000001 3                  ADSC9   5                        cn=0,n=1
         2 000142   100001 400001                    ADSC9   1,,PR1                   cn=2,n=1

     1517    11038    1         CALL WR_OSAR_MSG (%FP_FNC_POSEOV,SIZEC(PEOVREQ)) ALTRET(BRKOUT);

  11038  2 000143   000003 236000 3                  LDQ     3
         2 000144   200156 756100                    STQ     @DCTX+1,,AUTO
         2 000145   000006 236000 3                  LDQ     6
         2 000146   200155 756100                    STQ     CNVTLNGWD+3,,AUTO
         2 000147   001414 701000 2                  TSX1    WR_OSAR_MSG
         2 000150   001377 702000 2                  TSX2    BRKOUT

     1518    11039    1         CALL CHKPOSLST ALTRET(BRKOUT);

  11039  2 000151   001713 701000 2                  TSX1    CHKPOSLST
         2 000152   001377 702000 2                  TSX2    BRKOUT

     1519    11040    1         CALL CHARBIN (I,PEOVACK.FSEQU_NUM);

  11040  2 000153   200006 470500                    LDP0    K$RWPARM,,AUTO
         2 000154   000100 305500                    DTB
         2 000155   000002 430006                    NDSC9   2,,PR0                   cn=2,s=nosgn,sf=0,n=6
         2 000156   200160 000010                    NDSC9   @MSZ+2,,AUTO             cn=0,s=lsgnf,sf=0,n=8
         2 000157   200161 235100                    LDA     @MSZ+3,,AUTO
         2 000160   200065 755100                    STA     I,,AUTO

     1520    11041    2         IF I > 0 THEN DO;

  11041  2 000161   000216 600000 2                  TZE     s:11051

     1521    11042    2            IF PEOVACK.TYPE = 'EOV1' THEN

PL6.E3A0      #002=FPO$WRITELBL File=FPO$OPNOD.:E05TSI                           TUE 07/29/97 17:20 Page:231
  11042  2 000162   040000 106500                    CMPC    fill='040'O
         2 000163   000001 400004                    ADSC9   1,,PR0                   cn=2,n=4
         2 000164   000003 000004 1                  ADSC9   E_NOODSPACE+1            cn=0,n=4
         2 000165   000174 601000 2                  TNZ     s:11044

     1522    11043    2               D$->FT$DDT.POS = FTP_EOV#;

  11043  2 000166   200057 471500                    LDP1    D$,,AUTO
         2 000167   100006 236100                    LDQ     6,,PR1
         2 000170   000007 376000 3                  ANQ     7
         2 000171   000100 276007                    ORQ     64,DL
         2 000172   100006 756100                    STQ     6,,PR1
         2 000173   000213 710000 2                  TRA     s:11048

     1523    11044    2            ELSE IF PEOVACK.TYPE = 'EOF1' THEN

  11044  2 000174   040000 106500                    CMPC    fill='040'O
         2 000175   000001 400004                    ADSC9   1,,PR0                   cn=2,n=4
         2 000176   000004 000004 1                  ADSC9   E_NOODSPACE+2            cn=0,n=4
         2 000177   000206 601000 2                  TNZ     s:11047

     1524    11045    2                  D$->FT$DDT.POS = FTP_HDR#;

  11045  2 000200   200057 471500                    LDP1    D$,,AUTO
         2 000201   100006 236100                    LDQ     6,,PR1
         2 000202   000007 376000 3                  ANQ     7
         2 000203   000040 276007                    ORQ     32,DL
         2 000204   100006 756100                    STQ     6,,PR1
         2 000205   000213 710000 2                  TRA     s:11048

     1525    11046    2               ELSE
     1526    11047    2                  D$->FT$DDT.POS = FTP_BOV#;

  11047  2 000206   200057 471500                    LDP1    D$,,AUTO
         2 000207   100006 236100                    LDQ     6,,PR1
         2 000210   000007 376000 3                  ANQ     7
         2 000211   000020 276007                    ORQ     16,DL
PL6.E3A0      #002=FPO$WRITELBL File=FPO$OPNOD.:E05TSI                           TUE 07/29/97 17:20 Page:232
         2 000212   100006 756100                    STQ     6,,PR1

     1527    11048    2            D$->FT$DDT.FSN = I - 1;

  11048  2 000213   777777 620005                    EAX0    -1,AL
         2 000214   100005 740100                    STX0    5,,PR1

     1528    11049    2            END;

  11049  2 000215   000225 710000 2                  TRA     s:11054

     1529    11050    2         ELSE DO;

     1530    11051    2            D$->FT$DDT.POS = FTP_BOV#;

  11051  2 000216   200057 471500                    LDP1    D$,,AUTO
         2 000217   100006 236100                    LDQ     6,,PR1
         2 000220   000007 376000 3                  ANQ     7
         2 000221   000020 276007                    ORQ     16,DL
         2 000222   100006 756100                    STQ     6,,PR1

     1531    11052    2            D$->FT$DDT.FSN = 0;

  11052  2 000223   000000 220003                    LDX0    0,DU
         2 000224   100005 740100                    STX0    5,,PR1

     1532    11053    2            END;

     1533    11054    1         K$RWPARM.LDCT$ = LDCT$;

  11054  2 000225   200061 236100                    LDQ     LDCT$,,AUTO
         2 000226   200024 756100                    STQ     K$RWPARM+14,,AUTO

     1534    11055    1         K$RWPARM.FUNCTION = %K_READDONE;

  11055  2 000227   000011 235007                    LDA     9,DL
         2 000230   200026 755100                    STA     K$RWPARM+16,,AUTO
PL6.E3A0      #002=FPO$WRITELBL File=FPO$OPNOD.:E05TSI                           TUE 07/29/97 17:20 Page:233

     1535    11056    1         CALL KIS$SEND (K$RWPARM);

  11056  2 000231   200006 630500                    EPPR0   K$RWPARM,,AUTO
         2 000232   200160 450500                    STP0    @MSZ+2,,AUTO
         2 000233   200160 630500                    EPPR0   @MSZ+2,,AUTO
         2 000234   000017 631400 xsym               EPPR1   B_VECTNIL+15
         2 000235   000000 701000 xent               TSX1    KIS$SEND
         2 000236   000000 011000                    NOP     0

     1536    11057              %UNLOCK (G=LDCT$->NK$LDCT.LOCK);

  11058  2 000237   200061 236100                    LDQ     LDCT$,,AUTO
         2 000240   000020 036003                    ADLQ    16,DU
         2 000241   200160 756100                    STQ     @MSZ+2,,AUTO
         2 000242   200160 630500                    EPPR0   @MSZ+2,,AUTO
         2 000243   000017 631400 xsym               EPPR1   B_VECTNIL+15
         2 000244   000000 701000 xent               TSX1    HFC$UNLOCK
         2 000245   000000 011000                    NOP     0

     1537    11060    1         RETURN;

  11060  2 000246   000000 702200 xent               TSX2  ! X66_ARET

     1538    11061
     1539    11062
     1540    11063        /*F*  NAME: FPO$REWIND
     1541    11064              PURPOSE: Perform DCB-less rewind for the M$REW pmme.
     1542    11065              DESCRIPTION:  Send a PEOV message to the controller and
     1543    11066                            put the results into the DDT entry.
     1544    11067
     1545    11068              CALLING SEQUENCE:
     1546    11069                 CALL FPO$REWIND(dctx) ALTRET(err_proc);
     1547    11070
     1548    11071        */
     1549    11072
     1550    11073    1   FPO$REWIND: ENTRY(DCTX) ALTRET;
PL6.E3A0      #002=FPO$WRITELBL File=FPO$OPNOD.:E05TSI                           TUE 07/29/97 17:20 Page:234

  11073  2 000247   000000 700200 xent  FPO$REWIND   TSX0  ! X66_AUTO_2
         2 000250   000164 000002                    ZERO    116,2

     1551    11074
     1552    11075    1         CALL SETUP (DCTX) ALTRET(BRKOUT);

  11075  2 000251   200003 236100                    LDQ     @DCTX,,AUTO
         2 000252   200155 756100                    STQ     CNVTLNGWD+3,,AUTO
         2 000253   001660 701000 2                  TSX1    SETUP
         2 000254   001377 702000 2                  TSX2    BRKOUT

     1553    11076    1         PEOVREQ.DIR = '0';           /* Position to beginning */

  11076  2 000255   200060 470500                    LDP0    M$,,AUTO
         2 000256   040100 100400                    MLR     fill='040'O
         2 000257   000004 000001 3                  ADSC9   4                        cn=0,n=1
         2 000260   000001 400001                    ADSC9   1,,PR0                   cn=2,n=1

     1554    11077    1         CALL WR_OSAR_MSG (%FP_FNC_POSEOV,SIZEC(PEOVREQ)) ALTRET(BRKOUT);

  11077  2 000261   000003 236000 3                  LDQ     3
         2 000262   200156 756100                    STQ     @DCTX+1,,AUTO
         2 000263   000006 236000 3                  LDQ     6
         2 000264   200155 756100                    STQ     CNVTLNGWD+3,,AUTO
         2 000265   001414 701000 2                  TSX1    WR_OSAR_MSG
         2 000266   001377 702000 2                  TSX2    BRKOUT

     1555    11078    1         CALL CHKPOSLST ALTRET(BRKOUT);

  11078  2 000267   001713 701000 2                  TSX1    CHKPOSLST
         2 000270   001377 702000 2                  TSX2    BRKOUT

     1556    11079    1         D$->FT$DDT.POS = FTP_BOV#;

  11079  2 000271   200057 470500                    LDP0    D$,,AUTO
         2 000272   000006 236100                    LDQ     6,,PR0
PL6.E3A0      #002=FPO$WRITELBL File=FPO$OPNOD.:E05TSI                           TUE 07/29/97 17:20 Page:235
         2 000273   000007 376000 3                  ANQ     7
         2 000274   000020 276007                    ORQ     16,DL
         2 000275   000006 756100                    STQ     6,,PR0

     1557    11080    1         K$RWPARM.LDCT$ = LDCT$;

  11080  2 000276   200061 236100                    LDQ     LDCT$,,AUTO
         2 000277   200024 756100                    STQ     K$RWPARM+14,,AUTO

     1558    11081    1         K$RWPARM.FUNCTION = %K_READDONE;

  11081  2 000300   000011 235007                    LDA     9,DL
         2 000301   200026 755100                    STA     K$RWPARM+16,,AUTO

     1559    11082    1         CALL KIS$SEND (K$RWPARM);

  11082  2 000302   200006 631500                    EPPR1   K$RWPARM,,AUTO
         2 000303   200160 451500                    STP1    @MSZ+2,,AUTO
         2 000304   200160 630500                    EPPR0   @MSZ+2,,AUTO
         2 000305   000017 631400 xsym               EPPR1   B_VECTNIL+15
         2 000306   000000 701000 xent               TSX1    KIS$SEND
         2 000307   000000 011000                    NOP     0

     1560    11083              %UNLOCK (G=LDCT$->NK$LDCT.LOCK);

  11084  2 000310   200061 236100                    LDQ     LDCT$,,AUTO
         2 000311   000020 036003                    ADLQ    16,DU
         2 000312   200160 756100                    STQ     @MSZ+2,,AUTO
         2 000313   200160 630500                    EPPR0   @MSZ+2,,AUTO
         2 000314   000017 631400 xsym               EPPR1   B_VECTNIL+15
         2 000315   000000 701000 xent               TSX1    HFC$UNLOCK
         2 000316   000000 011000                    NOP     0

     1561    11086    1         RETURN;

  11086  2 000317   000000 702200 xent               TSX2  ! X66_ARET

PL6.E3A0      #002=FPO$WRITELBL File=FPO$OPNOD.:E05TSI                           TUE 07/29/97 17:20 Page:236
     1562    11087
     1563    11088
     1564    11089        /*F*  NAME: FPO$OPENIN
     1565    11090              PURPOSE: Inform ADSS controller that the file positioned to
     1566    11091                  with a FINDSEQ or FINDFILE is being opened.
     1567    11092              DESCRIPTION:  Send a OPENIN message to the controller.  No
     1568    11093              results are returned.
     1569    11094
     1570    11095              CALLING SEQUENCE:
     1571    11096                 CALL FPO$OPENIN ALTRET(err_proc);
     1572    11097
     1573    11098        */
     1574    11099
     1575    11100    1   FPO$OPENIN: ENTRY ALTRET;

  11100  2 000320   000000 700200 xent  FPO$OPENIN   TSX0  ! X66_AUTO_2
         2 000321   000164 000002                    ZERO    116,2

     1576    11101
     1577    11102    1         CALL SETUP (B$JIT.DCB$->F$DCB.SETX) ALTRET(BRKOUT);

  11102  2 000322   000000 470400 xsym               LDP0    B$JIT$
         2 000323   000232 471500                    LDP1    154,,PR0
         2 000324   200160 451500                    STP1    @MSZ+2,,AUTO
         2 000325   200160 236100                    LDQ     @MSZ+2,,AUTO
         2 000326   000000 036000 3                  ADLQ    0
         2 000327   200155 756100                    STQ     CNVTLNGWD+3,,AUTO
         2 000330   001660 701000 2                  TSX1    SETUP
         2 000331   001377 702000 2                  TSX2    BRKOUT

     1578    11103    1         CALL WR_OSAR_MSG (%FP_FNC_OPENIN,SIZEC(RDEOFREQ)) ALTRET(BRKOUT);

  11103  2 000332   000011 236000 3                  LDQ     9
         2 000333   200156 756100                    STQ     @DCTX+1,,AUTO
         2 000334   000012 236000 3                  LDQ     10
         2 000335   200155 756100                    STQ     CNVTLNGWD+3,,AUTO
         2 000336   001414 701000 2                  TSX1    WR_OSAR_MSG
PL6.E3A0      #002=FPO$WRITELBL File=FPO$OPNOD.:E05TSI                           TUE 07/29/97 17:20 Page:237
         2 000337   001377 702000 2                  TSX2    BRKOUT

     1579    11104    1         CALL CHKPOSLST ALTRET(BRKOUT);

  11104  2 000340   001713 701000 2                  TSX1    CHKPOSLST
         2 000341   001377 702000 2                  TSX2    BRKOUT

     1580    11105    1         K$RWPARM.LDCT$ = LDCT$;

  11105  2 000342   200061 236100                    LDQ     LDCT$,,AUTO
         2 000343   200024 756100                    STQ     K$RWPARM+14,,AUTO

     1581    11106    1         K$RWPARM.FUNCTION = %K_READDONE;

  11106  2 000344   000011 235007                    LDA     9,DL
         2 000345   200026 755100                    STA     K$RWPARM+16,,AUTO

     1582    11107    1         CALL KIS$SEND (K$RWPARM);

  11107  2 000346   200006 630500                    EPPR0   K$RWPARM,,AUTO
         2 000347   200160 450500                    STP0    @MSZ+2,,AUTO
         2 000350   200160 630500                    EPPR0   @MSZ+2,,AUTO
         2 000351   000017 631400 xsym               EPPR1   B_VECTNIL+15
         2 000352   000000 701000 xent               TSX1    KIS$SEND
         2 000353   000000 011000                    NOP     0

     1583    11108              %UNLOCK (G=LDCT$->NK$LDCT.LOCK);

  11109  2 000354   200061 236100                    LDQ     LDCT$,,AUTO
         2 000355   000020 036003                    ADLQ    16,DU
         2 000356   200160 756100                    STQ     @MSZ+2,,AUTO
         2 000357   200160 630500                    EPPR0   @MSZ+2,,AUTO
         2 000360   000017 631400 xsym               EPPR1   B_VECTNIL+15
         2 000361   000000 701000 xent               TSX1    HFC$UNLOCK
         2 000362   000000 011000                    NOP     0

     1584    11111    1         RETURN;
PL6.E3A0      #002=FPO$WRITELBL File=FPO$OPNOD.:E05TSI                           TUE 07/29/97 17:20 Page:238

  11111  2 000363   000000 702200 xent               TSX2  ! X66_ARET

     1585    11112
     1586    11113
     1587    11114        /*F*  NAME: FPO$CLOSEIN
     1588    11115              PURPOSE: Inform ADSS controller that the current file is
     1589    11116                  being closed.
     1590    11117              DESCRIPTION:  Send a CLOSEIN message to the controller.  No
     1591    11118              results are returned.
     1592    11119
     1593    11120              CALLING SEQUENCE:
     1594    11121                 CALL FPO$CLOSEIN ALTRET(err_proc);
     1595    11122
     1596    11123        */
     1597    11124
     1598    11125    1   FPO$CLOSEIN: ENTRY ALTRET;

  11125  2 000364   000000 700200 xent  FPO$CLOSEIN  TSX0  ! X66_AUTO_2
         2 000365   000164 000002                    ZERO    116,2

     1599    11126
     1600    11127
     1601    11128    1         CALL SETUP (B$JIT.DCB$->F$DCB.SETX) ALTRET (BRKOUT);

  11128  2 000366   000000 470400 xsym               LDP0    B$JIT$
         2 000367   000232 471500                    LDP1    154,,PR0
         2 000370   200160 451500                    STP1    @MSZ+2,,AUTO
         2 000371   200160 236100                    LDQ     @MSZ+2,,AUTO
         2 000372   000000 036000 3                  ADLQ    0
         2 000373   200155 756100                    STQ     CNVTLNGWD+3,,AUTO
         2 000374   001660 701000 2                  TSX1    SETUP
         2 000375   001377 702000 2                  TSX2    BRKOUT

     1602    11129    1         CALL WR_OSAR_MSG (%FP_FNC_CLOSEIN,SIZEC(RDEOFREQ)) ALTRET(BRKOUT);

  11129  2 000376   000011 236000 3                  LDQ     9
PL6.E3A0      #002=FPO$WRITELBL File=FPO$OPNOD.:E05TSI                           TUE 07/29/97 17:20 Page:239
         2 000377   200156 756100                    STQ     @DCTX+1,,AUTO
         2 000400   000014 236000 3                  LDQ     12
         2 000401   200155 756100                    STQ     CNVTLNGWD+3,,AUTO
         2 000402   001414 701000 2                  TSX1    WR_OSAR_MSG
         2 000403   001377 702000 2                  TSX2    BRKOUT

     1603    11130    1         CALL CHKPOSLST ALTRET(BRKOUT);

  11130  2 000404   001713 701000 2                  TSX1    CHKPOSLST
         2 000405   001377 702000 2                  TSX2    BRKOUT

     1604    11131    1         K$RWPARM.LDCT$ = LDCT$;

  11131  2 000406   200061 236100                    LDQ     LDCT$,,AUTO
         2 000407   200024 756100                    STQ     K$RWPARM+14,,AUTO

     1605    11132    1         K$RWPARM.FUNCTION = %K_READDONE;

  11132  2 000410   000011 235007                    LDA     9,DL
         2 000411   200026 755100                    STA     K$RWPARM+16,,AUTO

     1606    11133    1         CALL KIS$SEND (K$RWPARM);

  11133  2 000412   200006 630500                    EPPR0   K$RWPARM,,AUTO
         2 000413   200160 450500                    STP0    @MSZ+2,,AUTO
         2 000414   200160 630500                    EPPR0   @MSZ+2,,AUTO
         2 000415   000017 631400 xsym               EPPR1   B_VECTNIL+15
         2 000416   000000 701000 xent               TSX1    KIS$SEND
         2 000417   000000 011000                    NOP     0

     1607    11134              %UNLOCK (G=LDCT$->NK$LDCT.LOCK);

  11135  2 000420   200061 236100                    LDQ     LDCT$,,AUTO
         2 000421   000020 036003                    ADLQ    16,DU
         2 000422   200160 756100                    STQ     @MSZ+2,,AUTO
         2 000423   200160 630500                    EPPR0   @MSZ+2,,AUTO
         2 000424   000017 631400 xsym               EPPR1   B_VECTNIL+15
PL6.E3A0      #002=FPO$WRITELBL File=FPO$OPNOD.:E05TSI                           TUE 07/29/97 17:20 Page:240
         2 000425   000000 701000 xent               TSX1    HFC$UNLOCK
         2 000426   000000 011000                    NOP     0

     1608    11137    1         RETURN;

  11137  2 000427   000000 702200 xent               TSX2  ! X66_ARET

     1609    11138
     1610    11139        /*F*  NAME: FPO$RDEOFLBL
     1611    11140              PURPOSE: Obtain end of file information from current
     1612    11141                  file.
     1613    11142              DESCRIPTION:  Send an RDEOF message to the controller and
     1614    11143              and put the results into the caller's buffer.
     1615    11144
     1616    11145              CALLING SEQUENCE:
     1617    11146                 CALL FPO$RDEOFLBL (LBL1$) ALTRET(err_proc);
     1618    11147
     1619    11148        */
     1620    11149
     1621    11150    1   FPO$RDEOFLBL: ENTRY(DCTX) ALTRET;

  11150  2 000430   000000 700200 xent  FPO$RDEOFLBL TSX0  ! X66_AUTO_2
         2 000431   000164 000002                    ZERO    116,2

     1622    11151
     1623    11152    1         CALL SETUP (B$JIT.DCB$->F$DCB.SETX) ALTRET(BRKOUT);

  11152  2 000432   000000 470400 xsym               LDP0    B$JIT$
         2 000433   000232 471500                    LDP1    154,,PR0
         2 000434   200160 451500                    STP1    @MSZ+2,,AUTO
         2 000435   200160 236100                    LDQ     @MSZ+2,,AUTO
         2 000436   000000 036000 3                  ADLQ    0
         2 000437   200155 756100                    STQ     CNVTLNGWD+3,,AUTO
         2 000440   001660 701000 2                  TSX1    SETUP
         2 000441   001377 702000 2                  TSX2    BRKOUT

     1624    11153    1         CALL WR_OSAR_MSG (%FP_FNC_RDEOF,SIZEC(RDEOFREQ)) ALTRET(BRKOUT);
PL6.E3A0      #002=FPO$WRITELBL File=FPO$OPNOD.:E05TSI                           TUE 07/29/97 17:20 Page:241

  11153  2 000442   000011 236000 3                  LDQ     9
         2 000443   200156 756100                    STQ     @DCTX+1,,AUTO
         2 000444   000015 236000 3                  LDQ     13
         2 000445   200155 756100                    STQ     CNVTLNGWD+3,,AUTO
         2 000446   001414 701000 2                  TSX1    WR_OSAR_MSG
         2 000447   001377 702000 2                  TSX2    BRKOUT

     1625    11154    1         CALL CHKPOSLST ALTRET(BRKOUT);

  11154  2 000450   001713 701000 2                  TSX1    CHKPOSLST
         2 000451   001377 702000 2                  TSX2    BRKOUT

     1626    11155    1         LBL1$->LBL = RDEOFACK.LBL;

  11155  2 000452   200003 470500                    LDP0    @DCTX,,AUTO
         2 000453   000000 471500                    LDP1    0,,PR0
         2 000454   200006 473500                    LDP3    K$RWPARM,,AUTO
         2 000455   040100 100500                    MLR     fill='040'O
         2 000456   300001 400120                    ADSC9   1,,PR3                   cn=2,n=80
         2 000457   100000 000120                    ADSC9   0,,PR1                   cn=0,n=80

     1627    11156    1         K$RWPARM.LDCT$ = LDCT$;

  11156  2 000460   200061 236100                    LDQ     LDCT$,,AUTO
         2 000461   200024 756100                    STQ     K$RWPARM+14,,AUTO

     1628    11157    1         K$RWPARM.FUNCTION = %K_READDONE;

  11157  2 000462   000011 235007                    LDA     9,DL
         2 000463   200026 755100                    STA     K$RWPARM+16,,AUTO

     1629    11158    1         CALL KIS$SEND (K$RWPARM);

  11158  2 000464   200006 631500                    EPPR1   K$RWPARM,,AUTO
         2 000465   200160 451500                    STP1    @MSZ+2,,AUTO
         2 000466   200160 630500                    EPPR0   @MSZ+2,,AUTO
PL6.E3A0      #002=FPO$WRITELBL File=FPO$OPNOD.:E05TSI                           TUE 07/29/97 17:20 Page:242
         2 000467   000017 631400 xsym               EPPR1   B_VECTNIL+15
         2 000470   000000 701000 xent               TSX1    KIS$SEND
         2 000471   000000 011000                    NOP     0

     1630    11159              %UNLOCK (G=LDCT$->NK$LDCT.LOCK);

  11160  2 000472   200061 236100                    LDQ     LDCT$,,AUTO
         2 000473   000020 036003                    ADLQ    16,DU
         2 000474   200160 756100                    STQ     @MSZ+2,,AUTO
         2 000475   200160 630500                    EPPR0   @MSZ+2,,AUTO
         2 000476   000017 631400 xsym               EPPR1   B_VECTNIL+15
         2 000477   000000 701000 xent               TSX1    HFC$UNLOCK
         2 000500   000000 011000                    NOP     0

     1631    11162    1         RETURN;

  11162  2 000501   000000 702200 xent               TSX2  ! X66_ARET

     1632    11163
     1633    11164        /*F*  NAME: FPO$COPYDEV
     1634    11165              PURPOSE: tell the controller to copy optical disc specified
     1635    11166              by DCB.UB$->VLP$SN to the unlabeled optical disc to which
     1636    11167              this DCB is open.  The labeled disc had to have been previously
     1637    11168              mounted by a FILE type open.
     1638    11169        */
     1639    11170    1   FPO$COPYDEV: ENTRY ALTRET;

  11170  2 000502   000000 700200 xent  FPO$COPYDEV  TSX0  ! X66_AUTO_2
         2 000503   000164 000002                    ZERO    116,2

     1640    11171    1         CALL SETUP (B$JIT.DCB$->F$DCB.SETX) ALTRET(BRKOUT);

  11171  2 000504   000000 470400 xsym               LDP0    B$JIT$
         2 000505   000232 471500                    LDP1    154,,PR0
         2 000506   200160 451500                    STP1    @MSZ+2,,AUTO
         2 000507   200160 236100                    LDQ     @MSZ+2,,AUTO
         2 000510   000000 036000 3                  ADLQ    0
PL6.E3A0      #002=FPO$WRITELBL File=FPO$OPNOD.:E05TSI                           TUE 07/29/97 17:20 Page:243
         2 000511   200155 756100                    STQ     CNVTLNGWD+3,,AUTO
         2 000512   001660 701000 2                  TSX1    SETUP
         2 000513   001377 702000 2                  TSX2    BRKOUT

     1641    11172    1         COPYREQ.SER = F$DCB.UB$->SER;

  11172  2 000514   200063 470500                    LDP0    JDCB$,,AUTO
         2 000515   000075 471500                    LDP1    61,,PR0
         2 000516   200060 473500                    LDP3    M$,,AUTO
         2 000517   040100 100500                    MLR     fill='040'O
         2 000520   100000 000006                    ADSC9   0,,PR1                   cn=0,n=6
         2 000521   300001 400006                    ADSC9   1,,PR3                   cn=2,n=6

     1642    11173    1         CALL WR_OSAR_MSG (%FP_FNC_COPY,SIZEC(COPYREQ)) ALTRET(BRKOUT);

  11173  2 000522   000020 236000 3                  LDQ     16
         2 000523   200156 756100                    STQ     @DCTX+1,,AUTO
         2 000524   000021 236000 3                  LDQ     17
         2 000525   200155 756100                    STQ     CNVTLNGWD+3,,AUTO
         2 000526   001414 701000 2                  TSX1    WR_OSAR_MSG
         2 000527   001377 702000 2                  TSX2    BRKOUT

     1643    11174    1         GOTO LABEL1;

  11174  2 000530   000557 710000 2                  TRA     LABEL1

     1644    11175
     1645    11176
     1646    11177        /*F*  NAME: FPO$LABELOD
     1647    11178              PURPOSE: Tell the controller to label a platter.
     1648    11179
     1649    11180              CALLING SEQUENCE:
     1650    11181                 CALL FPO$LABELOD(LBL1$) ALTRET(err_proc);
     1651    11182
     1652    11183        */
     1653    11184
     1654    11185    1   FPO$LABELOD: ENTRY(DCTX) ALTRET;
PL6.E3A0      #002=FPO$WRITELBL File=FPO$OPNOD.:E05TSI                           TUE 07/29/97 17:20 Page:244

  11185  2 000531   000000 700200 xent  FPO$LABELOD  TSX0  ! X66_AUTO_2
         2 000532   000164 000002                    ZERO    116,2

     1655    11186
     1656    11187    1         CALL SETUP (B$JIT.DCB$->F$DCB.SETX) ALTRET(BRKOUT);

  11187  2 000533   000000 470400 xsym               LDP0    B$JIT$
         2 000534   000232 471500                    LDP1    154,,PR0
         2 000535   200160 451500                    STP1    @MSZ+2,,AUTO
         2 000536   200160 236100                    LDQ     @MSZ+2,,AUTO
         2 000537   000000 036000 3                  ADLQ    0
         2 000540   200155 756100                    STQ     CNVTLNGWD+3,,AUTO
         2 000541   001660 701000 2                  TSX1    SETUP
         2 000542   001377 702000 2                  TSX2    BRKOUT

     1657    11188    1         LABELREQ.VOL1 = LBL1$->LBL;  /* Fill in VOL1 info from user's buffer. */

  11188  2 000543   200003 470500                    LDP0    @DCTX,,AUTO
         2 000544   000000 471500                    LDP1    0,,PR0
         2 000545   200060 473500                    LDP3    M$,,AUTO
         2 000546   040100 100500                    MLR     fill='040'O
         2 000547   100000 000120                    ADSC9   0,,PR1                   cn=0,n=80
         2 000550   300001 400120                    ADSC9   1,,PR3                   cn=2,n=80

     1658    11189    1         CALL WR_OSAR_MSG(%FP_FNC_LABEL,SIZEC(LABELREQ)) ALTRET(BRKOUT);

  11189  2 000551   000024 236000 3                  LDQ     20
         2 000552   200156 756100                    STQ     @DCTX+1,,AUTO
         2 000553   000025 236000 3                  LDQ     21
         2 000554   200155 756100                    STQ     CNVTLNGWD+3,,AUTO
         2 000555   001414 701000 2                  TSX1    WR_OSAR_MSG
         2 000556   001377 702000 2                  TSX2    BRKOUT

  11188  2 000557                       LABEL1       null
     1659    11190    1   LABEL1: ;   /* completion code for COPY is same as for LABEL */
     1660    11191    1         CALL CHKPOSLST ALTRET(BRKOUT);
PL6.E3A0      #002=FPO$WRITELBL File=FPO$OPNOD.:E05TSI                           TUE 07/29/97 17:20 Page:245

  11191  2 000557   001713 701000 2                  TSX1    CHKPOSLST
         2 000560   001377 702000 2                  TSX2    BRKOUT

     1661    11192    1         ERRSAV = '0'B;

  11192  2 000561   200064 450100                    STZ     ERRSAV,,AUTO

     1662    11193    2         DO CASE(LABELACK.STT);

  11193  2 000562   200006 470500                    LDP0    K$RWPARM,,AUTO
         2 000563   003100 061500                    CSR     bolr='003'O
         2 000564   000000 200011                    BDSC    0,,PR0                   by=1,bit=0,n=9
         2 000565   200160 000022                    BDSC    @MSZ+2,,AUTO             by=0,bit=0,n=18
         2 000566   200160 220100                    LDX0    @MSZ+2,,AUTO
         2 000567   000003 100003                    CMPX0   3,DU
         2 000570   000572 602010 2                  TNC     s:11193+8,X0
         2 000571   000605 710000 2                  TRA     s:11202
         2 000572   000605 710000 2                  TRA     s:11202
         2 000573   000575 710000 2                  TRA     s:11197
         2 000574   000600 710000 2                  TRA     s:11199

     1663    11194    2          CASE(0);                       /* Success. */

     1664    11195                                                /* Do nothing. */
     1665    11196    2          CASE(1);                       /* Platter already labelled. */

     1666    11197    2            ERRSAV = E_CANTLABELOD;

  11197  2 000575   000000 236000 1                  LDQ     E_CANTLABELOD
         2 000576   200064 756100                    STQ     ERRSAV,,AUTO
         2 000577   000605 710000 2                  TRA     s:11202

     1667    11198    2          CASE(2);                       /* I/O error. */

     1668    11199    2            ERRSAV = E_IOERR;

PL6.E3A0      #002=FPO$WRITELBL File=FPO$OPNOD.:E05TSI                           TUE 07/29/97 17:20 Page:246
  11199  2 000600   000001 236000 1                  LDQ     E_IOERR
         2 000601   200064 756100                    STQ     ERRSAV,,AUTO

     1669    11200    2            F$DCB.TYC.IOERR(1) = '1'B;

  11200  2 000602   200063 471500                    LDP1    JDCB$,,AUTO
         2 000603   001000 236003                    LDQ     512,DU
         2 000604   100002 256100                    ORSQ    2,,PR1

     1670    11201    2          END;

     1671    11202    1         F$DCB.TYC(0) = F$DCB.TYC(1);

  11202  2 000605   200063 470500                    LDP0    JDCB$,,AUTO
         2 000606   000002 236100                    LDQ     2,,PR0
         2 000607   000001 756100                    STQ     1,,PR0

     1672    11203    1         K$RWPARM.LDCT$ = LDCT$;

  11203  2 000610   200061 236100                    LDQ     LDCT$,,AUTO
         2 000611   200024 756100                    STQ     K$RWPARM+14,,AUTO

     1673    11204    1         K$RWPARM.FUNCTION = %K_READDONE;

  11204  2 000612   000011 235007                    LDA     9,DL
         2 000613   200026 755100                    STA     K$RWPARM+16,,AUTO

     1674    11205    1         CALL KIS$SEND (K$RWPARM);

  11205  2 000614   200006 631500                    EPPR1   K$RWPARM,,AUTO
         2 000615   200160 451500                    STP1    @MSZ+2,,AUTO
         2 000616   200160 630500                    EPPR0   @MSZ+2,,AUTO
         2 000617   000017 631400 xsym               EPPR1   B_VECTNIL+15
         2 000620   000000 701000 xent               TSX1    KIS$SEND
         2 000621   000000 011000                    NOP     0

     1675    11206              %UNLOCK (G=LDCT$->NK$LDCT.LOCK);
PL6.E3A0      #002=FPO$WRITELBL File=FPO$OPNOD.:E05TSI                           TUE 07/29/97 17:20 Page:247

  11207  2 000622   200061 236100                    LDQ     LDCT$,,AUTO
         2 000623   000020 036003                    ADLQ    16,DU
         2 000624   200160 756100                    STQ     @MSZ+2,,AUTO
         2 000625   200160 630500                    EPPR0   @MSZ+2,,AUTO
         2 000626   000017 631400 xsym               EPPR1   B_VECTNIL+15
         2 000627   000000 701000 xent               TSX1    HFC$UNLOCK
         2 000630   000000 011000                    NOP     0

     1676    11209    1         IF ERRSAV THEN

  11209  2 000631   200064 235100                    LDA     ERRSAV,,AUTO
         2 000632   000636 600000 2                  TZE     s:11211

     1677    11210    1            B$JIT.ERR = ERRSAV;

  11210  2 000633   200064 236100                    LDQ     ERRSAV,,AUTO
         2 000634   000000 470400 xsym               LDP0    B$JIT$
         2 000635   000012 756100                    STQ     10,,PR0

     1678    11211    1         RETURN;

  11211  2 000636   000000 702200 xent               TSX2  ! X66_ARET

     1679    11212
     1680    11213    1   FPO$FINDFSN: ENTRY(DCTX) ALTRET;

  11213  2 000637   000000 700200 xent  FPO$FINDFSN  TSX0  ! X66_AUTO_2
         2 000640   000164 000002                    ZERO    116,2

     1681    11214
     1682    11215    1         CALL SETUP (B$JIT.DCB$->F$DCB.SETX) ALTRET(BRKOUT);

  11215  2 000641   000000 470400 xsym               LDP0    B$JIT$
         2 000642   000232 471500                    LDP1    154,,PR0
         2 000643   200160 451500                    STP1    @MSZ+2,,AUTO
         2 000644   200160 236100                    LDQ     @MSZ+2,,AUTO
PL6.E3A0      #002=FPO$WRITELBL File=FPO$OPNOD.:E05TSI                           TUE 07/29/97 17:20 Page:248
         2 000645   000000 036000 3                  ADLQ    0
         2 000646   200155 756100                    STQ     CNVTLNGWD+3,,AUTO
         2 000647   001660 701000 2                  TSX1    SETUP
         2 000650   001377 702000 2                  TSX2    BRKOUT

     1683    11216    1         F$DCB.TYC = '0'B;

  11216  2 000651   200063 470500                    LDP0    JDCB$,,AUTO
         2 000652   000001 450100                    STZ     1,,PR0
         2 000653   000002 450100                    STZ     2,,PR0

     1684    11217    1         CALL BINCHAR (FNDSQREQ.FSN,F$DCB.FSN);

  11217  2 000654   000034 236100                    LDQ     28,,PR0
         2 000655   000022 772000                    QRL     18
         2 000656   000000 235003                    LDA     0,DU
         2 000657   200160 757100                    STAQ    @MSZ+2,,AUTO
         2 000660   200060 471500                    LDP1    M$,,AUTO
         2 000661   000100 301500                    BTD
         2 000662   200160 000010                    NDSC9   @MSZ+2,,AUTO             cn=0,s=lsgnf,sf=0,n=8
         2 000663   100001 430006                    NDSC9   1,,PR1                   cn=2,s=nosgn,sf=0,n=6

     1685    11218    1         CALL WR_OSAR_MSG (%FP_FNC_FNDSEQ,SIZEC(FNDSQREQ)) ALTRET(BRKOUT);

  11218  2 000664   000020 236000 3                  LDQ     16
         2 000665   200156 756100                    STQ     @DCTX+1,,AUTO
         2 000666   000027 236000 3                  LDQ     23
         2 000667   200155 756100                    STQ     CNVTLNGWD+3,,AUTO
         2 000670   001414 701000 2                  TSX1    WR_OSAR_MSG
         2 000671   001377 702000 2                  TSX2    BRKOUT

     1686    11219    1         CALL CHKPOSLST ALTRET(BRKOUT);

  11219  2 000672   001713 701000 2                  TSX1    CHKPOSLST
         2 000673   001377 702000 2                  TSX2    BRKOUT

     1687    11220    2         DO CASE(FNDACK.STT);             /* Check status. */
PL6.E3A0      #002=FPO$WRITELBL File=FPO$OPNOD.:E05TSI                           TUE 07/29/97 17:20 Page:249

  11220  2 000674   200006 470500                    LDP0    K$RWPARM,,AUTO
         2 000675   000100 101500                    MRL     fill='000'O
         2 000676   000000 200001                    ADSC9   0,,PR0                   cn=1,n=1
         2 000677   200160 000002                    ADSC9   @MSZ+2,,AUTO             cn=0,n=2
         2 000700   200160 220100                    LDX0    @MSZ+2,,AUTO
         2 000701   000006 100003                    CMPX0   6,DU
         2 000702   000704 602010 2                  TNC     s:11220+8,X0
         2 000703   000743 710000 2                  TRA     s:11234
         2 000704   000712 710000 2                  TRA     s:11222
         2 000705   000720 710000 2                  TRA     s:11224
         2 000706   000724 710000 2                  TRA     s:11226
         2 000707   000730 710000 2                  TRA     s:11228
         2 000710   000734 710000 2                  TRA     s:11230
         2 000711   000740 710000 2                  TRA     s:11232

     1688    11221    2          CASE(0);                      /* Success.      */

     1689    11222    2            LBL1$->HDRS = FNDACK.HDRS; /* Return HDR1 and HDR2 labels */

  11222  2 000712   200003 471500                    LDP1    @DCTX,,AUTO
         2 000713   100000 473500                    LDP3    0,,PR1
         2 000714   040100 100500                    MLR     fill='040'O
         2 000715   000001 400240                    ADSC9   1,,PR0                   cn=2,n=160
         2 000716   300000 000240                    ADSC9   0,,PR3                   cn=0,n=160
         2 000717   000743 710000 2                  TRA     s:11234

     1690    11223    2          CASE(1);                      /* File was before BOV. */

     1691    11224    2            F$DCB.TYC.BOT(1) = '1'B;

  11224  2 000720   200063 471500                    LDP1    JDCB$,,AUTO
         2 000721   040000 236003                    LDQ     16384,DU
         2 000722   100002 256100                    ORSQ    2,,PR1
         2 000723   000743 710000 2                  TRA     s:11234

     1692    11225    2          CASE(2);                      /* File was after EOV, no next vol. */
PL6.E3A0      #002=FPO$WRITELBL File=FPO$OPNOD.:E05TSI                           TUE 07/29/97 17:20 Page:250

     1693    11226    2            F$DCB.TYC.EOF(1) = '1'B;

  11226  2 000724   200063 471500                    LDP1    JDCB$,,AUTO
         2 000725   004000 236003                    LDQ     2048,DU
         2 000726   100002 256100                    ORSQ    2,,PR1
         2 000727   000743 710000 2                  TRA     s:11234

     1694    11227    2          CASE(3);                      /* File was after EOV, have next vol. */

     1695    11228    2            F$DCB.TYC.EOT(1) = '1'B;

  11228  2 000730   200063 471500                    LDP1    JDCB$,,AUTO
         2 000731   100000 236003                    LDQ     32768,DU
         2 000732   100002 256100                    ORSQ    2,,PR1
         2 000733   000743 710000 2                  TRA     s:11234

     1696    11229    2          CASE(4);                      /* Empty entry for this FSN. */

     1697    11230    2            F$DCB.TYC.EOD(1) = '1'B;

  11230  2 000734   200063 471500                    LDP1    JDCB$,,AUTO
         2 000735   000200 236003                    LDQ     128,DU
         2 000736   100002 256100                    ORSQ    2,,PR1
         2 000737   000743 710000 2                  TRA     s:11234

     1698    11231    2          CASE(5);                      /* Can't read header sector. */

     1699    11232    2            F$DCB.TYC.IOERR(1) = '1'B;

  11232  2 000740   200063 471500                    LDP1    JDCB$,,AUTO
         2 000741   001000 236003                    LDQ     512,DU
         2 000742   100002 256100                    ORSQ    2,,PR1

     1700    11233    2          END;

     1701    11234    1         K$RWPARM.LDCT$ = LDCT$;
PL6.E3A0      #002=FPO$WRITELBL File=FPO$OPNOD.:E05TSI                           TUE 07/29/97 17:20 Page:251

  11234  2 000743   200061 236100                    LDQ     LDCT$,,AUTO
         2 000744   200024 756100                    STQ     K$RWPARM+14,,AUTO

     1702    11235    1         K$RWPARM.FUNCTION = %K_READDONE;

  11235  2 000745   000011 235007                    LDA     9,DL
         2 000746   200026 755100                    STA     K$RWPARM+16,,AUTO

     1703    11236    1         CALL KIS$SEND (K$RWPARM);

  11236  2 000747   200006 630500                    EPPR0   K$RWPARM,,AUTO
         2 000750   200160 450500                    STP0    @MSZ+2,,AUTO
         2 000751   200160 630500                    EPPR0   @MSZ+2,,AUTO
         2 000752   000017 631400 xsym               EPPR1   B_VECTNIL+15
         2 000753   000000 701000 xent               TSX1    KIS$SEND
         2 000754   000000 011000                    NOP     0

     1704    11237              %UNLOCK (G=LDCT$->NK$LDCT.LOCK);

  11238  2 000755   200061 236100                    LDQ     LDCT$,,AUTO
         2 000756   000020 036003                    ADLQ    16,DU
         2 000757   200160 756100                    STQ     @MSZ+2,,AUTO
         2 000760   200160 630500                    EPPR0   @MSZ+2,,AUTO
         2 000761   000017 631400 xsym               EPPR1   B_VECTNIL+15
         2 000762   000000 701000 xent               TSX1    HFC$UNLOCK
         2 000763   000000 011000                    NOP     0

     1705    11240    1         RETURN;

  11240  2 000764   000000 702200 xent               TSX2  ! X66_ARET

     1706    11241
     1707    11242    1   FPO$FINDFILE: ENTRY(DCTX ) ALTRET;

  11242  2 000765   000000 700200 xent  FPO$FINDFILE TSX0  ! X66_AUTO_2
         2 000766   000164 000002                    ZERO    116,2
PL6.E3A0      #002=FPO$WRITELBL File=FPO$OPNOD.:E05TSI                           TUE 07/29/97 17:20 Page:252

     1708    11243
     1709    11244    1         CALL SETUP (B$JIT.DCB$->F$DCB.SETX) ALTRET(BRKOUT);

  11244  2 000767   000000 470400 xsym               LDP0    B$JIT$
         2 000770   000232 471500                    LDP1    154,,PR0
         2 000771   200160 451500                    STP1    @MSZ+2,,AUTO
         2 000772   200160 236100                    LDQ     @MSZ+2,,AUTO
         2 000773   000000 036000 3                  ADLQ    0
         2 000774   200155 756100                    STQ     CNVTLNGWD+3,,AUTO
         2 000775   001660 701000 2                  TSX1    SETUP
         2 000776   001377 702000 2                  TSX2    BRKOUT

     1710    11245    1         FNDFLREQ.NM = F$DCB.NAME;

  11245  2 000777   200063 470500                    LDP0    JDCB$,,AUTO
         2 001000   200060 471500                    LDP1    M$,,AUTO
         2 001001   000100 100500                    MLR     fill='000'O
         2 001002   000010 000040                    ADSC9   8,,PR0                   cn=0,n=32
         2 001003   100001 400040                    ADSC9   1,,PR1                   cn=2,n=32

     1711    11246    1         F$DCB.TYC = '0'B;

  11246  2 001004   000001 450100                    STZ     1,,PR0
         2 001005   000002 450100                    STZ     2,,PR0

     1712    11247    1         CALL WR_OSAR_MSG (%FP_FNC_FNDFIL,SIZEC(FNDFLREQ)) ALTRET(BRKOUT);

  11247  2 001006   000032 236000 3                  LDQ     26
         2 001007   200156 756100                    STQ     @DCTX+1,,AUTO
         2 001010   000033 236000 3                  LDQ     27
         2 001011   200155 756100                    STQ     CNVTLNGWD+3,,AUTO
         2 001012   001414 701000 2                  TSX1    WR_OSAR_MSG
         2 001013   001377 702000 2                  TSX2    BRKOUT

     1713    11248    1         CALL CHKPOSLST ALTRET(BRKOUT);

PL6.E3A0      #002=FPO$WRITELBL File=FPO$OPNOD.:E05TSI                           TUE 07/29/97 17:20 Page:253
  11248  2 001014   001713 701000 2                  TSX1    CHKPOSLST
         2 001015   001377 702000 2                  TSX2    BRKOUT

     1714    11249    2         DO CASE(FNDACK.STT);             /* Check status. */

  11249  2 001016   200006 470500                    LDP0    K$RWPARM,,AUTO
         2 001017   000100 101500                    MRL     fill='000'O
         2 001020   000000 200001                    ADSC9   0,,PR0                   cn=1,n=1
         2 001021   200160 000002                    ADSC9   @MSZ+2,,AUTO             cn=0,n=2
         2 001022   200160 220100                    LDX0    @MSZ+2,,AUTO
         2 001023   000007 100003                    CMPX0   7,DU
         2 001024   001026 602010 2                  TNC     s:11249+8,X0
         2 001025   001062 710000 2                  TRA     s:11261
         2 001026   001035 710000 2                  TRA     s:11251
         2 001027   001062 710000 2                  TRA     s:11261
         2 001030   001043 710000 2                  TRA     s:11253
         2 001031   001047 710000 2                  TRA     s:11255
         2 001032   001062 710000 2                  TRA     s:11261
         2 001033   001053 710000 2                  TRA     s:11257
         2 001034   001057 710000 2                  TRA     s:11259

     1715    11250    2          CASE(0);                      /* Success.      */

     1716    11251    2            LBL1$->HDRS = FNDACK.HDRS; /* Return HDR1 and HDR2 labels */

  11251  2 001035   200003 471500                    LDP1    @DCTX,,AUTO
         2 001036   100000 473500                    LDP3    0,,PR1
         2 001037   040100 100500                    MLR     fill='040'O
         2 001040   000001 400240                    ADSC9   1,,PR0                   cn=2,n=160
         2 001041   300000 000240                    ADSC9   0,,PR3                   cn=0,n=160
         2 001042   001062 710000 2                  TRA     s:11261

     1717    11252    2          CASE(2);                      /* File not found, no next vol. */

     1718    11253    2            F$DCB.TYC.EOF(1) = '1'B;

  11253  2 001043   200063 471500                    LDP1    JDCB$,,AUTO
PL6.E3A0      #002=FPO$WRITELBL File=FPO$OPNOD.:E05TSI                           TUE 07/29/97 17:20 Page:254
         2 001044   004000 236003                    LDQ     2048,DU
         2 001045   100002 256100                    ORSQ    2,,PR1
         2 001046   001062 710000 2                  TRA     s:11261

     1719    11254    2          CASE(3);                      /* File not found, have next vol. */

     1720    11255    2            F$DCB.TYC.EOT(1) = '1'B;

  11255  2 001047   200063 471500                    LDP1    JDCB$,,AUTO
         2 001050   100000 236003                    LDQ     32768,DU
         2 001051   100002 256100                    ORSQ    2,,PR1
         2 001052   001062 710000 2                  TRA     s:11261

     1721    11256    2          CASE(5);                      /* Can't read header sector. */

     1722    11257    2            F$DCB.TYC.IOERR(1) = '1'B;

  11257  2 001053   200063 471500                    LDP1    JDCB$,,AUTO
         2 001054   001000 236003                    LDQ     512,DU
         2 001055   100002 256100                    ORSQ    2,,PR1
         2 001056   001062 710000 2                  TRA     s:11261

     1723    11258    2          CASE(6);                      /* Volume was empty. */

     1724    11259    2            F$DCB.TYC.EOD(1) = '1'B;

  11259  2 001057   200063 471500                    LDP1    JDCB$,,AUTO
         2 001060   000200 236003                    LDQ     128,DU
         2 001061   100002 256100                    ORSQ    2,,PR1

     1725    11260    2          END;

     1726    11261    1         K$RWPARM.LDCT$ = LDCT$;

  11261  2 001062   200061 236100                    LDQ     LDCT$,,AUTO
         2 001063   200024 756100                    STQ     K$RWPARM+14,,AUTO

PL6.E3A0      #002=FPO$WRITELBL File=FPO$OPNOD.:E05TSI                           TUE 07/29/97 17:20 Page:255
     1727    11262    1         K$RWPARM.FUNCTION  = %K_READDONE;

  11262  2 001064   000011 235007                    LDA     9,DL
         2 001065   200026 755100                    STA     K$RWPARM+16,,AUTO

     1728    11263    1         CALL KIS$SEND (K$RWPARM);

  11263  2 001066   200006 630500                    EPPR0   K$RWPARM,,AUTO
         2 001067   200160 450500                    STP0    @MSZ+2,,AUTO
         2 001070   200160 630500                    EPPR0   @MSZ+2,,AUTO
         2 001071   000017 631400 xsym               EPPR1   B_VECTNIL+15
         2 001072   000000 701000 xent               TSX1    KIS$SEND
         2 001073   000000 011000                    NOP     0

     1729    11264              %UNLOCK (G=LDCT$->NK$LDCT.LOCK);

  11265  2 001074   200061 236100                    LDQ     LDCT$,,AUTO
         2 001075   000020 036003                    ADLQ    16,DU
         2 001076   200160 756100                    STQ     @MSZ+2,,AUTO
         2 001077   200160 630500                    EPPR0   @MSZ+2,,AUTO
         2 001100   000017 631400 xsym               EPPR1   B_VECTNIL+15
         2 001101   000000 701000 xent               TSX1    HFC$UNLOCK
         2 001102   000000 011000                    NOP     0

     1730    11267    1         RETURN;

  11267  2 001103   000000 702200 xent               TSX2  ! X66_ARET

     1731    11268
     1732    11269        /*    Read Library Map from OD Controller                         */
     1733    11270
     1734    11271    1   FPO$RDODMAP: ENTRY(DCTX) ALTRET;

  11271  2 001104   000000 700200 xent  FPO$RDODMAP  TSX0  ! X66_AUTO_2
         2 001105   000164 000002                    ZERO    116,2

     1735    11272    1         F = %FP_FNC_MAP;
PL6.E3A0      #002=FPO$WRITELBL File=FPO$OPNOD.:E05TSI                           TUE 07/29/97 17:20 Page:256

  11272  2 001106   000027 235007                    LDA     23,DL
         2 001107   200066 755100                    STA     F,,AUTO

     1736    11273    1         M$ = ADDR(MSG);

  11273  2 001110   200073 630500                    EPPR0   MSG,,AUTO
         2 001111   200060 450500                    STP0    M$,,AUTO

     1737    11274    1         XFERREQ.USRNO.B1 = S_CUN / 256;

  11274  2 001112   000000 236000 xsym               LDQ     S_CUN
         2 001113   000010 772000                    QRL     8
         2 001114   200160 756100                    STQ     @MSZ+2,,AUTO
         2 001115   003100 061500                    CSR     bolr='003'O
         2 001116   200160 000044                    BDSC    @MSZ+2,,AUTO             by=0,bit=0,n=36
         2 001117   000003 400011                    BDSC    3,,PR0                   by=2,bit=0,n=9

     1738    11275    1         XFERREQ.USRNO.B2 = MOD(S_CUN,256);

  11275  2 001120   000000 236000 xsym               LDQ     S_CUN
         2 001121   000377 376007                    ANQ     255,DL
         2 001122   200160 756100                    STQ     @MSZ+2,,AUTO
         2 001123   003100 061500                    CSR     bolr='003'O
         2 001124   200160 000044                    BDSC    @MSZ+2,,AUTO             by=0,bit=0,n=36
         2 001125   000003 600011                    BDSC    3,,PR0                   by=3,bit=0,n=9

     1739    11276    1         GOTO RDWROD;

  11276  2 001126   001152 710000 2                  TRA     RDWROD

     1740    11277    1   FPO$RDODBLK: ENTRY(DCTX) ALTRET;

  11277  2 001127   000000 700200 xent  FPO$RDODBLK  TSX0  ! X66_AUTO_2
         2 001130   000164 000002                    ZERO    116,2

     1741    11278    1         F = %FP_FNC_RD;
PL6.E3A0      #002=FPO$WRITELBL File=FPO$OPNOD.:E05TSI                           TUE 07/29/97 17:20 Page:257

  11278  2 001131   000021 235007                    LDA     17,DL
         2 001132   200066 755100                    STA     F,,AUTO

     1742    11279    1         GOTO RDWROD;

  11279  2 001133   001152 710000 2                  TRA     RDWROD

     1743    11280    1   FPO$WRODBLK: ENTRY(DCTX) ALTRET;

  11280  2 001134   000000 700200 xent  FPO$WRODBLK  TSX0  ! X66_AUTO_2
         2 001135   000164 000002                    ZERO    116,2

     1744    11281    1         F = %FP_FNC_WR;

  11281  2 001136   000020 235007                    LDA     16,DL
         2 001137   200066 755100                    STA     F,,AUTO

     1745    11282    1         GOTO RDWROD;

  11282  2 001140   001152 710000 2                  TRA     RDWROD

     1746    11283    1   FPO$TRUNC: ENTRY(DCTX) ALTRET;

  11283  2 001141   000000 700200 xent  FPO$TRUNC    TSX0  ! X66_AUTO_2
         2 001142   000164 000002                    ZERO    116,2

     1747    11284    1         F = %FP_FNC_TRUNC;

  11284  2 001143   000011 235007                    LDA     9,DL
         2 001144   200066 755100                    STA     F,,AUTO

     1748    11285    1         GOTO RDWROD;

  11285  2 001145   001152 710000 2                  TRA     RDWROD

     1749    11286    1   FPO$UNTRUNC: ENTRY(DCTX) ALTRET;
PL6.E3A0      #002=FPO$WRITELBL File=FPO$OPNOD.:E05TSI                           TUE 07/29/97 17:20 Page:258

  11286  2 001146   000000 700200 xent  FPO$UNTRUNC  TSX0  ! X66_AUTO_2
         2 001147   000164 000002                    ZERO    116,2

     1750    11287    1         F = %FP_FNC_UNTRUNC;

  11287  2 001150   000033 235007                    LDA     27,DL
         2 001151   200066 755100                    STA     F,,AUTO

  11287  2 001152                       RDWROD       null
     1751    11288    1   RDWROD: ;
     1752    11289    1         CALL SETUP (B$JIT.DCB$->F$DCB.SETX) ALTRET(BRKOUT);

  11289  2 001152   000000 470400 xsym               LDP0    B$JIT$
         2 001153   000232 471500                    LDP1    154,,PR0
         2 001154   200160 451500                    STP1    @MSZ+2,,AUTO
         2 001155   200160 236100                    LDQ     @MSZ+2,,AUTO
         2 001156   000000 036000 3                  ADLQ    0
         2 001157   200155 756100                    STQ     CNVTLNGWD+3,,AUTO
         2 001160   001660 701000 2                  TSX1    SETUP
         2 001161   001377 702000 2                  TSX2    BRKOUT

     1753    11290    1         F$DCB.TYC = '0'B;

  11290  2 001162   200063 470500                    LDP0    JDCB$,,AUTO
         2 001163   000001 450100                    STZ     1,,PR0
         2 001164   000002 450100                    STZ     2,,PR0

     1754    11291    1         QSZ = F$DCB.ARS;

  11291  2 001165   000000 235100                    LDA     0,,PR0
         2 001166   200150 755100                    STA     QSZ,,AUTO

     1755    11292    1         WSQ = N$DCT$(DCTN)->NI$DCT.OD.FEI$->KI$FEI.FEWSQ;

  11292  2 001167   000000 471400 xsym               LDP1    N$DCT$$
         2 001170   200072 720100                    LXL0    DCTN,,AUTO
PL6.E3A0      #002=FPO$WRITELBL File=FPO$OPNOD.:E05TSI                           TUE 07/29/97 17:20 Page:259
         2 001171   100000 473510                    LDP3    0,X0,PR1
         2 001172   300032 474500                    LDP4    26,,PR3
         2 001173   400005 235100                    LDA     5,,PR4
         2 001174   200067 755100                    STA     WSQ,,AUTO

     1756    11293    1         CALL MMS$VGET (WSQ,BFR$,SZ,QMP$) ALTRET(NOBFR);

  11293  2 001175   200151 633500                    EPPR3   QMP$,,AUTO
         2 001176   200163 453500                    STP3    @MSZ+5,,AUTO
         2 001177   200150 634500                    EPPR4   QSZ,,AUTO
         2 001200   200162 454500                    STP4    @MSZ+4,,AUTO
         2 001201   200003 236100                    LDQ     @DCTX,,AUTO
         2 001202   200161 756100                    STQ     @MSZ+3,,AUTO
         2 001203   200067 635500                    EPPR5   WSQ,,AUTO
         2 001204   200160 455500                    STP5    @MSZ+2,,AUTO
         2 001205   200160 630500                    EPPR0   @MSZ+2,,AUTO
         2 001206   000022 631400 xsym               EPPR1   B_VECTNIL+18
         2 001207   000000 701000 xent               TSX1    MMS$VGET
         2 001210   001411 702000 2                  TSX2    NOBFR

     1757    11294    1         XFERREQ.ADR.B4 = MP.B4;

  11294  2 001211   200060 470500                    LDP0    M$,,AUTO
         2 001212   003100 061500                    CSR     bolr='003'O
         2 001213   200151 210010                    BDSC    QMP$,,AUTO               by=1,bit=1,n=8
         2 001214   000002 200011                    BDSC    2,,PR0                   by=1,bit=0,n=9

     1758    11295    1         XFERREQ.ADR.B3 = MP.B3;

  11295  2 001215   003100 061500                    CSR     bolr='003'O
         2 001216   200151 020010                    BDSC    QMP$,,AUTO               by=0,bit=2,n=8
         2 001217   000002 000011                    BDSC    2,,PR0                   by=0,bit=0,n=9

     1759    11296    1         XFERREQ.ADR.B2 = MP.B2;

  11296  2 001220   003100 061500                    CSR     bolr='003'O
         2 001221   200151 000002                    BDSC    QMP$,,AUTO               by=0,bit=0,n=2
PL6.E3A0      #002=FPO$WRITELBL File=FPO$OPNOD.:E05TSI                           TUE 07/29/97 17:20 Page:260
         2 001222   000001 600011                    BDSC    1,,PR0                   by=3,bit=0,n=9

     1760    11297    1         XFERREQ.ADR.B1 = 0;

  11297  2 001223   003100 061400                    CSR     bolr='003'O
         2 001224   000002 000044 xsym               BDSC    B_VECTNIL+2              by=0,bit=0,n=36
         2 001225   000001 400011                    BDSC    1,,PR0                   by=2,bit=0,n=9

     1761    11298    1         XFERREQ.SIZE.B4 = SZ.B4;

  11298  2 001226   003100 061500                    CSR     bolr='003'O
         2 001227   200150 610010                    BDSC    QSZ,,AUTO                by=3,bit=1,n=8
         2 001230   000003 200011                    BDSC    3,,PR0                   by=1,bit=0,n=9

     1762    11299    1         XFERREQ.SIZE.B3 = SZ.B3;

  11299  2 001231   003100 061500                    CSR     bolr='003'O
         2 001232   200150 420010                    BDSC    QSZ,,AUTO                by=2,bit=2,n=8
         2 001233   000003 000011                    BDSC    3,,PR0                   by=0,bit=0,n=9

     1763    11300    1         XFERREQ.SIZE.B2 = SZ.B2;

  11300  2 001234   003100 061500                    CSR     bolr='003'O
         2 001235   200150 230010                    BDSC    QSZ,,AUTO                by=1,bit=3,n=8
         2 001236   000002 600011                    BDSC    2,,PR0                   by=3,bit=0,n=9

     1764    11301    1         XFERREQ.SIZE.B1 = 0;

  11301  2 001237   003100 061400                    CSR     bolr='003'O
         2 001240   000002 000044 xsym               BDSC    B_VECTNIL+2              by=0,bit=0,n=36
         2 001241   000002 400011                    BDSC    2,,PR0                   by=2,bit=0,n=9

     1765    11302    1         CALL WR_OSAR_MSG (F,SIZEC(XFERREQ)) ALTRET(WRERR);

  11302  2 001242   000035 236000 3                  LDQ     29
         2 001243   200156 756100                    STQ     @DCTX+1,,AUTO
         2 001244   200066 631500                    EPPR1   F,,AUTO
PL6.E3A0      #002=FPO$WRITELBL File=FPO$OPNOD.:E05TSI                           TUE 07/29/97 17:20 Page:261
         2 001245   200155 451500                    STP1    CNVTLNGWD+3,,AUTO
         2 001246   001414 701000 2                  TSX1    WR_OSAR_MSG
         2 001247   001367 702000 2                  TSX2    WRERR

     1766    11303    1         CALL CHKPOSLST ALTRET(BRKOUT);

  11303  2 001250   001713 701000 2                  TSX1    CHKPOSLST
         2 001251   001377 702000 2                  TSX2    BRKOUT

     1767    11304    2         DO CASE(XFERACK.STT);

  11304  2 001252   200006 470500                    LDP0    K$RWPARM,,AUTO
         2 001253   003100 061500                    CSR     bolr='003'O
         2 001254   000000 200011                    BDSC    0,,PR0                   by=1,bit=0,n=9
         2 001255   200160 000022                    BDSC    @MSZ+2,,AUTO             by=0,bit=0,n=18
         2 001256   200160 220100                    LDX0    @MSZ+2,,AUTO
         2 001257   000005 100003                    CMPX0   5,DU
         2 001260   001262 602010 2                  TNC     s:11304+8,X0
         2 001261   001306 710000 2                  TRA     s:11316
         2 001262   001306 710000 2                  TRA     s:11316
         2 001263   001267 710000 2                  TRA     s:11308
         2 001264   001273 710000 2                  TRA     s:11310
         2 001265   001277 710000 2                  TRA     s:11312
         2 001266   001303 710000 2                  TRA     s:11314

     1768    11305    2          CASE(0);                      /* Success. */

     1769    11306                                               /* Nothing to do. */
     1770    11307    2          CASE(1);                      /* End of file hit (read). */

     1771    11308    2            F$DCB.TYC.EOF(1) = '1'B;

  11308  2 001267   200063 471500                    LDP1    JDCB$,,AUTO
         2 001270   004000 236003                    LDQ     2048,DU
         2 001271   100002 256100                    ORSQ    2,,PR1
         2 001272   001306 710000 2                  TRA     s:11316

PL6.E3A0      #002=FPO$WRITELBL File=FPO$OPNOD.:E05TSI                           TUE 07/29/97 17:20 Page:262
     1772    11309    2          CASE(2);                      /* I/O error hit. */

     1773    11310    2            F$DCB.TYC.IOERR(1) = '1'B;

  11310  2 001273   200063 471500                    LDP1    JDCB$,,AUTO
         2 001274   001000 236003                    LDQ     512,DU
         2 001275   100002 256100                    ORSQ    2,,PR1
         2 001276   001306 710000 2                  TRA     s:11316

     1774    11311    2          CASE(3);                      /* Lost data (on reads only). */

     1775    11312    2            F$DCB.TYC.LD(1) = '1'B;

  11312  2 001277   200063 471500                    LDP1    JDCB$,,AUTO
         2 001300   002000 236003                    LDQ     1024,DU
         2 001301   100002 256100                    ORSQ    2,,PR1
         2 001302   001306 710000 2                  TRA     s:11316

     1776    11313    2          CASE(4);                      /* End of platter hit (write). */

     1777    11314    2            F$DCB.TYC.EOT(1) = '1'B;

  11314  2 001303   200063 471500                    LDP1    JDCB$,,AUTO
         2 001304   100000 236003                    LDQ     32768,DU
         2 001305   100002 256100                    ORSQ    2,,PR1

     1778    11315    2          END;

     1779    11316    1         CNVTLNG.B1 = XFERACK.SIZE.B1;

  11316  2 001306   200006 470500                    LDP0    K$RWPARM,,AUTO
         2 001307   003100 060500                    CSL     bolr='003'O
         2 001310   000001 410010                    BDSC    1,,PR0                   by=2,bit=1,n=8
         2 001311   200152 040010                    BDSC    CNVTLNGWD,,AUTO          by=0,bit=4,n=8

     1780    11317    1         CNVTLNG.B2 = XFERACK.SIZE.B2;

PL6.E3A0      #002=FPO$WRITELBL File=FPO$OPNOD.:E05TSI                           TUE 07/29/97 17:20 Page:263
  11317  2 001312   003100 060500                    CSL     bolr='003'O
         2 001313   000001 610010                    BDSC    1,,PR0                   by=3,bit=1,n=8
         2 001314   200152 230010                    BDSC    CNVTLNGWD,,AUTO          by=1,bit=3,n=8

     1781    11318    1         CNVTLNG.B3 = XFERACK.SIZE.B3;

  11318  2 001315   003100 060500                    CSL     bolr='003'O
         2 001316   000002 010010                    BDSC    2,,PR0                   by=0,bit=1,n=8
         2 001317   200152 420010                    BDSC    CNVTLNGWD,,AUTO          by=2,bit=2,n=8

     1782    11319    1         CNVTLNG.B4 = XFERACK.SIZE.B4;

  11319  2 001320   003100 060500                    CSL     bolr='003'O
         2 001321   000002 210010                    BDSC    2,,PR0                   by=1,bit=1,n=8
         2 001322   200152 610010                    BDSC    CNVTLNGWD,,AUTO          by=3,bit=1,n=8

     1783    11320    1         F$DCB.ARS = CNVTLNGWD;

  11320  2 001323   200152 235100                    LDA     CNVTLNGWD,,AUTO
         2 001324   200063 471500                    LDP1    JDCB$,,AUTO
         2 001325   100000 755100                    STA     0,,PR1

     1784    11321    1         K$RWPARM.LDCT$ = LDCT$;

  11321  2 001326   200061 236100                    LDQ     LDCT$,,AUTO
         2 001327   200024 756100                    STQ     K$RWPARM+14,,AUTO

     1785    11322    1         K$RWPARM.FUNCTION  = %K_READDONE;

  11322  2 001330   000011 235007                    LDA     9,DL
         2 001331   200026 755100                    STA     K$RWPARM+16,,AUTO

     1786    11323    1         CALL KIS$SEND (K$RWPARM);

  11323  2 001332   200006 630500                    EPPR0   K$RWPARM,,AUTO
         2 001333   200160 450500                    STP0    @MSZ+2,,AUTO
         2 001334   200160 630500                    EPPR0   @MSZ+2,,AUTO
PL6.E3A0      #002=FPO$WRITELBL File=FPO$OPNOD.:E05TSI                           TUE 07/29/97 17:20 Page:264
         2 001335   000017 631400 xsym               EPPR1   B_VECTNIL+15
         2 001336   000000 701000 xent               TSX1    KIS$SEND
         2 001337   000000 011000                    NOP     0

     1787    11324              %UNLOCK (G=LDCT$->NK$LDCT.LOCK);

  11325  2 001340   200061 236100                    LDQ     LDCT$,,AUTO
         2 001341   000020 036003                    ADLQ    16,DU
         2 001342   200160 756100                    STQ     @MSZ+2,,AUTO
         2 001343   200160 630500                    EPPR0   @MSZ+2,,AUTO
         2 001344   000017 631400 xsym               EPPR1   B_VECTNIL+15
         2 001345   000000 701000 xent               TSX1    HFC$UNLOCK
         2 001346   000000 011000                    NOP     0

     1788    11327    1         CALL MMS$VREL (WSQ,QMP$);

  11327  2 001347   200151 630500                    EPPR0   QMP$,,AUTO
         2 001350   200161 450500                    STP0    @MSZ+3,,AUTO
         2 001351   200067 631500                    EPPR1   WSQ,,AUTO
         2 001352   200160 451500                    STP1    @MSZ+2,,AUTO
         2 001353   200160 630500                    EPPR0   @MSZ+2,,AUTO
         2 001354   000020 631400 xsym               EPPR1   B_VECTNIL+16
         2 001355   000000 701000 xent               TSX1    MMS$VREL
         2 001356   000000 011000                    NOP     0

     1789    11328    2         IF F$DCB.TYC.IOERR(1) THEN DO;   /* I/O error happened, need to altret. */

  11328  2 001357   200063 470500                    LDP0    JDCB$,,AUTO
         2 001360   000002 430100                    FSZN    2,,PR0
         2 001361   001366 605000 2                  TPL     s:11332

     1790    11329    2            B$JIT.ERR = E_IOERR;

  11329  2 001362   000001 236000 1                  LDQ     E_IOERR
         2 001363   000000 471400 xsym               LDP1    B$JIT$
         2 001364   100012 756100                    STQ     10,,PR1

PL6.E3A0      #002=FPO$WRITELBL File=FPO$OPNOD.:E05TSI                           TUE 07/29/97 17:20 Page:265
     1791    11330    2            ALTRETURN;

  11330  2 001365   000000 702200 xent               TSX2  ! X66_AALT

     1792    11331    2            END;
     1793    11332    1         RETURN;

  11332  2 001366   000000 702200 xent               TSX2  ! X66_ARET

     1794    11333    1   WRERR: CALL MMS$VREL (WSQ,QMP$);

  11333  2 001367   200151 630500       WRERR        EPPR0   QMP$,,AUTO
         2 001370   200161 450500                    STP0    @MSZ+3,,AUTO
         2 001371   200067 631500                    EPPR1   WSQ,,AUTO
         2 001372   200160 451500                    STP1    @MSZ+2,,AUTO
         2 001373   200160 630500                    EPPR0   @MSZ+2,,AUTO
         2 001374   000020 631400 xsym               EPPR1   B_VECTNIL+16
         2 001375   000000 701000 xent               TSX1    MMS$VREL
         2 001376   000000 011000                    NOP     0

     1795    11334    1   BRKOUT:
     1796    11335    2         IF LDCT$->NK$LDCT.DFLG.FEDN THEN DO;

  11335  2 001377   200061 470500       BRKOUT       LDP0    LDCT$,,AUTO
         2 001400   000006 236100                    LDQ     6,,PR0
         2 001401   000020 316007                    CANQ    16,DL
         2 001402   001411 600000 2                  TZE     NOBFR

     1797    11336    2            B$JIT.DCB$->F$DCB.TYC.IOERR(1) = '1'B;

  11336  2 001403   000000 471400 xsym               LDP1    B$JIT$
         2 001404   100232 473500                    LDP3    154,,PR1
         2 001405   001000 236003                    LDQ     512,DU
         2 001406   300002 256100                    ORSQ    2,,PR3

     1798    11337    2            B$JIT.ERR = E_IOERR;

PL6.E3A0      #002=FPO$WRITELBL File=FPO$OPNOD.:E05TSI                           TUE 07/29/97 17:20 Page:266
  11337  2 001407   000001 236000 1                  LDQ     E_IOERR
         2 001410   100012 756100                    STQ     10,,PR1

     1799    11338    2            END;

  11335  2 001411                       NOBFR        null
     1800    11339
     1801    11340    1   NOBFR: ;
     1802    11341    1         CALL SC_FPOBADSEND;          /* No buffers - cant send */

  11341  2 001411   000000 713400 xsym               CLIMB   SC_FPOBADSEND
         2 001412   000000 600000 xsid               climb   nvectors=         0
         2 001413   001737 710000 2                  TRA     s:11459

     1803    11342
     1804    11343        /*S*  SCREECH_CODE: FPO-S$BADSEND-8
     1805    11344              TYPE: SCREECH
     1806    11345              MESSAGE: No buffer space in CWSQ for OD data transfer.
     1807    11346              DESCRIPTION:  MMS$VGET was unable to find space for the output
     1808    11347              buffer in the Comm WSQ for the current read write operation.
     1809    11348              There should always be enough space since there are only four
     1810    11349              devices at a max of 8k words each.
     1811    11350        */
     1812    11351
     1813    11352    1   WR_OSAR_MSG: PROC (FNC,MSZ) ALTRET;

  11352  2 001414   200154 741300       WR_OSAR_MSG  STX1  ! CNVTLNGWD+2,,AUTO

     1814    11353
     1815    11354    2   DCL FNC UBIN;                      /* function code to send */
     1816    11355    2   DCL MSZ UBIN;                      /* message size             */
     1817    11356
     1818    11357        %FPP$MHDR (NAME=MSG,STCLASS="BASED(M$)",LAST=";");
     1819    11371
     1820    11372
     1821    11373    2         MSG.FNC = FNC;

PL6.E3A0      #002=FPO$WRITELBL File=FPO$OPNOD.:E05TSI                           TUE 07/29/97 17:20 Page:267
  11373  2 001415   200155 470500                    LDP0    @FNC,,AUTO
         2 001416   200060 471500                    LDP1    M$,,AUTO
         2 001417   003100 061500                    CSR     bolr='003'O
         2 001420   000000 000044                    BDSC    0,,PR0                   by=0,bit=0,n=36
         2 001421   100000 000011                    BDSC    0,,PR1                   by=0,bit=0,n=9

     1822    11374    2         MSG.DCTX.HI = CDCT.HI;       /* soliciting resource dct index */

  11374  2 001422   003100 061500                    CSR     bolr='003'O
         2 001423   200072 420010                    BDSC    DCTN,,AUTO               by=2,bit=2,n=8
         2 001424   100001 000011                    BDSC    1,,PR1                   by=0,bit=0,n=9

     1823    11375    2         MSG.DCTX.LO = CDCT.LO;

  11375  2 001425   003100 061500                    CSR     bolr='003'O
         2 001426   200072 610010                    BDSC    DCTN,,AUTO               by=3,bit=1,n=8
         2 001427   100001 200011                    BDSC    1,,PR1                   by=1,bit=0,n=9

     1824    11376    2         IF FNC = %FP_FNC_MAP THEN

  11376  2 001430   000000 235100                    LDA     0,,PR0
         2 001431   000027 115007                    CMPA    23,DL
         2 001432   001437 601000 2                  TNZ     s:11379

     1825    11377    2            MSG.DEV# = 0;             /* send message to admin */

  11377  2 001433   003100 061400                    CSR     bolr='003'O
         2 001434   000002 000044 xsym               BDSC    B_VECTNIL+2              by=0,bit=0,n=36
         2 001435   100000 400011                    BDSC    0,,PR1                   by=2,bit=0,n=9
         2 001436   001445 710000 2                  TRA     s:11380

     1826    11378    2         ELSE
     1827    11379    2            MSG.DEV# = N$DCT$(DCTN)->NI$DCT.DVN;/* destination device */

  11379  2 001437   000000 473400 xsym               LDP3    N$DCT$$
         2 001440   200072 720100                    LXL0    DCTN,,AUTO
         2 001441   300000 474510                    LDP4    0,X0,PR3
PL6.E3A0      #002=FPO$WRITELBL File=FPO$OPNOD.:E05TSI                           TUE 07/29/97 17:20 Page:268
         2 001442   003100 061500                    CSR     bolr='003'O
         2 001443   400007 060006                    BDSC    7,,PR4                   by=0,bit=6,n=6
         2 001444   100000 400011                    BDSC    0,,PR1                   by=2,bit=0,n=9

     1828    11380    2         K$RWPARM = K_RWPARM_CON;

  11380  2 001445   000100 100400                    MLR     fill='000'O
         2 001446   000000 000234 xsym               ADSC9   K_RWPARM_CON             cn=0,n=156
         2 001447   200006 000234                    ADSC9   K$RWPARM,,AUTO           cn=0,n=156

     1829    11381    2         K$RWPARM.MSG$ = M$;

  11381  2 001450   200060 236100                    LDQ     M$,,AUTO
         2 001451   200006 756100                    STQ     K$RWPARM,,AUTO

     1830    11382    2         K$RWPARM.MSGSZ = MSZ;

  11382  2 001452   200156 473500                    LDP3    @MSZ,,AUTO
         2 001453   300000 235100                    LDA     0,,PR3
         2 001454   200007 755100                    STA     K$RWPARM+1,,AUTO

     1831    11383              %LOCK (G=LDCT$->NK$LDCT.LOCK);

  11384  2 001455   200061 236100                    LDQ     LDCT$,,AUTO
         2 001456   000020 036003                    ADLQ    16,DU
         2 001457   200160 756100                    STQ     @MSZ+2,,AUTO
         2 001460   200160 630500                    EPPR0   @MSZ+2,,AUTO
         2 001461   000017 631400 xsym               EPPR1   B_VECTNIL+15
         2 001462   000000 701000 xent               TSX1    HFC$LOCK
         2 001463   000000 011000                    NOP     0

     1832    11386    2   WRT:  CALL KIA$WRITE_USER (LDCT$->NK$LDCT,K$RWPARM) ALTRET(QFULL);

  11386  2 001464   200006 630500       WRT          EPPR0   K$RWPARM,,AUTO
         2 001465   200161 450500                    STP0    @MSZ+3,,AUTO
         2 001466   200061 236100                    LDQ     LDCT$,,AUTO
         2 001467   200160 756100                    STQ     @MSZ+2,,AUTO
PL6.E3A0      #002=FPO$WRITELBL File=FPO$OPNOD.:E05TSI                           TUE 07/29/97 17:20 Page:269
         2 001470   200160 630500                    EPPR0   @MSZ+2,,AUTO
         2 001471   000020 631400 xsym               EPPR1   B_VECTNIL+16
         2 001472   000000 701000 xent               TSX1    KIA$WRITE_USER
         2 001473   001553 702000 2                  TSX2    QFULL

     1833    11387    2         CALL SSR$REG (%SS_CW,LDCT$) ALTRET(BRKOUT);

  11387  2 001474   200061 630500                    EPPR0   LDCT$,,AUTO
         2 001475   200161 450500                    STP0    @MSZ+3,,AUTO
         2 001476   000037 236000 3                  LDQ     31
         2 001477   200160 756100                    STQ     @MSZ+2,,AUTO
         2 001500   200160 630500                    EPPR0   @MSZ+2,,AUTO
         2 001501   000020 631400 xsym               EPPR1   B_VECTNIL+16
         2 001502   000000 701000 xent               TSX1    SSR$REG
         2 001503   001634 702000 2                  TSX2    BRKOUT

     1834    11388              %LOCK (G=LDCT$->NK$LDCT.LOCK);

  11389  2 001504   200061 236100                    LDQ     LDCT$,,AUTO
         2 001505   000020 036003                    ADLQ    16,DU
         2 001506   200160 756100                    STQ     @MSZ+2,,AUTO
         2 001507   200160 630500                    EPPR0   @MSZ+2,,AUTO
         2 001510   000017 631400 xsym               EPPR1   B_VECTNIL+15
         2 001511   000000 701000 xent               TSX1    HFC$LOCK
         2 001512   000000 011000                    NOP     0

     1835    11391    2   RD:   ;

  11391  2 001513                       RD           null
     1836    11392    2         K$RWPARM.IP$ = LDCT$->NK$LDCT.IP$;

  11392  2 001513   200061 470500                    LDP0    LDCT$,,AUTO
         2 001514   000013 236100                    LDQ     11,,PR0
         2 001515   200020 756100                    STQ     K$RWPARM+10,,AUTO

     1837    11393    2         LDCT$->NK$LDCT.IP$ = ADDR(NIL);

PL6.E3A0      #002=FPO$WRITELBL File=FPO$OPNOD.:E05TSI                           TUE 07/29/97 17:20 Page:270
  11393  2 001516   000001 236000 xsym               LDQ     B_VECTNIL+1
         2 001517   000013 756100                    STQ     11,,PR0

     1838    11394    3         IF K$RWPARM.IP$ ~= ADDR(NIL) THEN DO;

  11394  2 001520   200020 236100                    LDQ     K$RWPARM+10,,AUTO
         2 001521   000001 116000 xsym               CMPQ    B_VECTNIL+1
         2 001522   001551 600000 2                  TZE     s:11400

     1839    11395    3            CALL KIQ$MAPFEP(LDCT$->NK$LDCT.IPFEI#);

  11395  2 001523   200061 236100                    LDQ     LDCT$,,AUTO
         2 001524   000040 036000 3                  ADLQ    32
         2 001525   200160 756100                    STQ     @MSZ+2,,AUTO
         2 001526   200160 630500                    EPPR0   @MSZ+2,,AUTO
         2 001527   000017 631400 xsym               EPPR1   B_VECTNIL+15
         2 001530   000000 701000 xent               TSX1    KIQ$MAPFEP
         2 001531   000000 011000                    NOP     0

     1840    11396    3            K$RWPARM.UHDR$ = PINCRC(K$RWPARM.IP$,K$RWPARM.IP$->KI$QMHDR.OFFSET);

  11396  2 001532   200020 470500                    LDP0    K$RWPARM+10,,AUTO
         2 001533   000001 236100                    LDQ     1,,PR0
         2 001534   000022 772000                    QRL     18
         2 001535   000020 736000                    QLS     16
         2 001536   200020 036100                    ADLQ    K$RWPARM+10,,AUTO
         2 001537   200022 756100                    STQ     K$RWPARM+12,,AUTO

     1841    11397    3            K$RWPARM.UHDRSZ = K$RWPARM.IP$->KI$QMHDR.SIZE;

  11397  2 001540   000001 236100                    LDQ     1,,PR0
         2 001541   777777 376007                    ANQ     -1,DL
         2 001542   200023 756100                    STQ     K$RWPARM+13,,AUTO

     1842    11398    3            CALL KIA$MSG (K$RWPARM);

  11398  2 001543   200006 631500                    EPPR1   K$RWPARM,,AUTO
PL6.E3A0      #002=FPO$WRITELBL File=FPO$OPNOD.:E05TSI                           TUE 07/29/97 17:20 Page:271
         2 001544   200160 451500                    STP1    @MSZ+2,,AUTO
         2 001545   200160 630500                    EPPR0   @MSZ+2,,AUTO
         2 001546   000017 631400 xsym               EPPR1   B_VECTNIL+15
         2 001547   000000 701000 xent               TSX1    KIA$MSG
         2 001550   000000 011000                    NOP     0

     1843    11399    3            END;

     1844    11400    2         RETURN;

  11400  2 001551   200154 221300                    LDX1  ! CNVTLNGWD+2,,AUTO
         2 001552   000001 702211                    TSX2  ! 1,X1

     1845    11401
     1846    11402    2   QFULL: IF (S$CU$->B$U.ASYNCH & ~%U_RESET) OR LDCT$->NK$LDCT.DFLG.FEDN THEN

  11402  2 001553   000003 236000 xsym  QFULL        LDQ     B_VECTNIL+3
         2 001554   000027 676000 xsym               ERQ     B_VECTNIL+23
         2 001555   000000 470400 xsym               LDP0    S$CU$
         2 001556   000001 376100                    ANQ     1,,PR0
         2 001557   001623 601000 2                  TNZ     BRKOUT1
         2 001560   200061 471500                    LDP1    LDCT$,,AUTO
         2 001561   100006 236100                    LDQ     6,,PR1
         2 001562   000020 316007                    CANQ    16,DL
         2 001563   001623 601000 2                  TNZ     BRKOUT1

     1847    11403    2            GOTO BRKOUT1;
     1848    11404    3         IF K$RWPARM.ERR = %K$NO_THROT THEN DO;

  11404  2 001564   200021 235100                    LDA     K$RWPARM+11,,AUTO
         2 001565   000004 115007                    CMPA    4,DL
         2 001566   001614 601000 2                  TNZ     s:11412

     1849    11405    3            N$DCT$(DCTN)->NI$DCT.OD.THRTLD = 1;

  11405  2 001567   000000 473400 xsym               LDP3    N$DCT$$
         2 001570   200072 720100                    LXL0    DCTN,,AUTO
PL6.E3A0      #002=FPO$WRITELBL File=FPO$OPNOD.:E05TSI                           TUE 07/29/97 17:20 Page:272
         2 001571   300000 474510                    LDP4    0,X0,PR3
         2 001572   000001 236003                    LDQ     1,DU
         2 001573   400033 552120                    STBQ    27,'20'O,PR4

     1850    11406    3            CALL SSR$REG (%SS_CBL,LDCT$);

  11406  2 001574   200061 631500                    EPPR1   LDCT$,,AUTO
         2 001575   200161 451500                    STP1    @MSZ+3,,AUTO
         2 001576   000003 236000 3                  LDQ     3
         2 001577   200160 756100                    STQ     @MSZ+2,,AUTO
         2 001600   200160 630500                    EPPR0   @MSZ+2,,AUTO
         2 001601   000020 631400 xsym               EPPR1   B_VECTNIL+16
         2 001602   000000 701000 xent               TSX1    SSR$REG
         2 001603   000000 011000                    NOP     0

     1851    11407                %LOCK (G=LDCT$->NK$LDCT.LOCK);

  11408  2 001604   200061 236100                    LDQ     LDCT$,,AUTO
         2 001605   000020 036003                    ADLQ    16,DU
         2 001606   200160 756100                    STQ     @MSZ+2,,AUTO
         2 001607   200160 630500                    EPPR0   @MSZ+2,,AUTO
         2 001610   000017 631400 xsym               EPPR1   B_VECTNIL+15
         2 001611   000000 701000 xent               TSX1    HFC$LOCK
         2 001612   000000 011000                    NOP     0

     1852    11410    3            GOTO WRT;

  11410  2 001613   001464 710000 2                  TRA     WRT

     1853    11411    3            END;
     1854    11412    3         IF K$RWPARM.ERR = %K$QFULL THEN DO;

  11412  2 001614   000001 115007                    CMPA    1,DL
         2 001615   001623 601000 2                  TNZ     BRKOUT1

     1855    11413    3            CALL KIA$OQFL (LDCT$->NK$LDCT) ALTRET(BRKOUT) ;

PL6.E3A0      #002=FPO$WRITELBL File=FPO$OPNOD.:E05TSI                           TUE 07/29/97 17:20 Page:273
  11413  2 001616   200061 630500                    EPPR0   LDCT$,,AUTO
         2 001617   000017 631400 xsym               EPPR1   B_VECTNIL+15
         2 001620   000000 701000 xent               TSX1    KIA$OQFL
         2 001621   001634 702000 2                  TSX2    BRKOUT

     1856    11414    3            GOTO WRT;

  11414  2 001622   001464 710000 2                  TRA     WRT

     1857    11415    3            END;
     1858    11416    2   BRKOUT1:
     1859    11417              %UNLOCK (G=LDCT$->NK$LDCT.LOCK);

  11418  2 001623   200061 236100       BRKOUT1      LDQ     LDCT$,,AUTO
         2 001624   000020 036003                    ADLQ    16,DU
         2 001625   200160 756100                    STQ     @MSZ+2,,AUTO
         2 001626   200160 630500                    EPPR0   @MSZ+2,,AUTO
         2 001627   000017 631400 xsym               EPPR1   B_VECTNIL+15
         2 001630   000000 701000 xent               TSX1    HFC$UNLOCK
         2 001631   000000 011000                    NOP     0

     1860    11420    2         ALTRETURN;                   /* Error                        */

  11420  2 001632   200154 221300                    LDX1  ! CNVTLNGWD+2,,AUTO
         2 001633   000000 702211                    TSX2  ! 0,X1

  11412  2 001634                       BRKOUT       null
     1861    11421
     1862    11422    2   BRKOUT: ;
     1863    11423              %LOCK (G=LDCT$->NK$LDCT.LOCK);

  11424  2 001634   200061 236100                    LDQ     LDCT$,,AUTO
         2 001635   000020 036003                    ADLQ    16,DU
         2 001636   200160 756100                    STQ     @MSZ+2,,AUTO
         2 001637   200160 630500                    EPPR0   @MSZ+2,,AUTO
         2 001640   000017 631400 xsym               EPPR1   B_VECTNIL+15
         2 001641   000000 701000 xent               TSX1    HFC$LOCK
PL6.E3A0      #002=FPO$WRITELBL File=FPO$OPNOD.:E05TSI                           TUE 07/29/97 17:20 Page:274
         2 001642   000000 011000                    NOP     0

     1864    11426    2         IF LDCT$->NK$LDCT.IP$ ~= ADDR(NIL) THEN

  11426  2 001643   200061 470500                    LDP0    LDCT$,,AUTO
         2 001644   000013 236100                    LDQ     11,,PR0
         2 001645   000001 116000 xsym               CMPQ    B_VECTNIL+1
         2 001646   001513 601000 2                  TNZ     RD

     1865    11427    2            GOTO RD;
     1866    11428              %UNLOCK (G=LDCT$->NK$LDCT.LOCK);

  11429  2 001647   200061 236100                    LDQ     LDCT$,,AUTO
         2 001650   000020 036003                    ADLQ    16,DU
         2 001651   200160 756100                    STQ     @MSZ+2,,AUTO
         2 001652   200160 630500                    EPPR0   @MSZ+2,,AUTO
         2 001653   000017 631400 xsym               EPPR1   B_VECTNIL+15
         2 001654   000000 701000 xent               TSX1    HFC$UNLOCK
         2 001655   000000 011000                    NOP     0

     1867    11431    2         ALTRETURN;

  11431  2 001656   200154 221300                    LDX1  ! CNVTLNGWD+2,,AUTO
         2 001657   000000 702211                    TSX2  ! 0,X1

     1868    11432    2   END;
     1869    11433    1   SETUP: PROC(DCTX) ALTRET;

  11433  2 001660   200154 741300       SETUP        STX1  ! CNVTLNGWD+2,,AUTO

     1870    11434
     1871    11435    2   DCL DCTX UBIN;
     1872    11436
     1873    11437    2         M$ = ADDR(MSG);             /* Message pointer for write */

  11437  2 001661   200073 630500                    EPPR0   MSG,,AUTO
         2 001662   200060 450500                    STP0    M$,,AUTO
PL6.E3A0      #002=FPO$WRITELBL File=FPO$OPNOD.:E05TSI                           TUE 07/29/97 17:20 Page:275

     1874    11438    2         DCTN = DCTX;                 /* DCT index                   */

  11438  2 001663   200155 471500                    LDP1    @DCTX,,AUTO
         2 001664   100000 235100                    LDA     0,,PR1
         2 001665   200072 755100                    STA     DCTN,,AUTO

     1875    11439    2         JDCB$ = B$JIT.DCB$;          /* DCB pointer               */

  11439  2 001666   000000 473400 xsym               LDP3    B$JIT$
         2 001667   300232 236100                    LDQ     154,,PR3
         2 001670   200063 756100                    STQ     JDCB$,,AUTO

     1876    11440    2         LDCT$ = N$DCT$(DCTX)->NI$DCT.OD.LDCT$;

  11440  2 001671   100000 720100                    LXL0    0,,PR1
         2 001672   000000 474400 xsym               LDP4    N$DCT$$
         2 001673   400000 475510                    LDP5    0,X0,PR4
         2 001674   500030 236100                    LDQ     24,,PR5
         2 001675   200061 756100                    STQ     LDCT$,,AUTO

     1877    11441    2         D$ = N$DCT$(DCTX)->NI$DCT.DDT$; /* DDT pointer            */

  11441  2 001676   100000 720100                    LXL0    0,,PR1
         2 001677   400000 475510                    LDP5    0,X0,PR4
         2 001700   500004 236100                    LDQ     4,,PR5
         2 001701   200057 756100                    STQ     D$,,AUTO

     1878    11442    3         IF D$->FT$DDT.POSLOST THEN DO;

  11442  2 001702   200057 476500                    LDP6    D$,,AUTO
         2 001703   600006 236100                    LDQ     6,,PR6
         2 001704   004000 316007                    CANQ    2048,DL
         2 001705   001712 600000 2                  TZE     s:11446

     1879    11443    3            B$JIT.ERR = E_IOERR;

PL6.E3A0      #002=FPO$WRITELBL File=FPO$OPNOD.:E05TSI                           TUE 07/29/97 17:20 Page:276
  11443  2 001706   000001 236000 1                  LDQ     E_IOERR
         2 001707   300012 756100                    STQ     10,,PR3

     1880    11444    3            ALTRETURN;

  11444  2 001710   200154 221300                    LDX1  ! CNVTLNGWD+2,,AUTO
         2 001711   000000 702211                    TSX2  ! 0,X1

     1881    11445    3            END;
     1882    11446    2         RETURN;

  11446  2 001712   000001 702211                    TSX2  ! 1,X1

     1883    11447    2   END;
     1884    11448
     1885    11449    1   CHKPOSLST: PROC ALTRET;

  11449  2 001713   200154 741300       CHKPOSLST    STX1  ! CNVTLNGWD+2,,AUTO

     1886    11450
     1887    11451    3         IF XFERACK.STT = 6 THEN DO;

  11451  2 001714   200006 470500                    LDP0    K$RWPARM,,AUTO
         2 001715   003100 061500                    CSR     bolr='003'O
         2 001716   000000 200011                    BDSC    0,,PR0                   by=1,bit=0,n=9
         2 001717   200160 000044                    BDSC    @MSZ+2,,AUTO             by=0,bit=0,n=36
         2 001720   200160 236100                    LDQ     @MSZ+2,,AUTO
         2 001721   000006 116007                    CMPQ    6,DL
         2 001722   001736 601000 2                  TNZ     s:11457

     1888    11452    3            B$JIT.ERR = E_IOERR;

  11452  2 001723   000001 236000 1                  LDQ     E_IOERR
         2 001724   000000 471400 xsym               LDP1    B$JIT$
         2 001725   100012 756100                    STQ     10,,PR1

     1889    11453    3            B$JIT.DCB$->F$DCB.TYC.IOERR(1) = '1'B;
PL6.E3A0      #002=FPO$WRITELBL File=FPO$OPNOD.:E05TSI                           TUE 07/29/97 17:20 Page:277

  11453  2 001726   100232 473500                    LDP3    154,,PR1
         2 001727   001000 236003                    LDQ     512,DU
         2 001730   300002 256100                    ORSQ    2,,PR3

     1890    11454    3            D$->FT$DDT.POSLOST = '1'B;

  11454  2 001731   200057 470500                    LDP0    D$,,AUTO
         2 001732   004000 236007                    LDQ     2048,DL
         2 001733   000006 256100                    ORSQ    6,,PR0

     1891    11455    3            ALTRETURN;

  11455  2 001734   200154 221300                    LDX1  ! CNVTLNGWD+2,,AUTO
         2 001735   000000 702211                    TSX2  ! 0,X1

     1892    11456    3            END;
     1893    11457    2         RETURN;

  11457  2 001736   000001 702211                    TSX2  ! 1,X1

     1894    11458    2   END;
     1895    11459    1         ALTRETURN;

  11459  2 001737   000000 702200 xent               TSX2  ! X66_AALT

E_CANTLABELOD
 Sect OctLoc
   1     000   062017 432132                                                    2..Z

E_IOERR
 Sect OctLoc
   1     001   062017 400102                                                    2..B

E_NOODSPACE
 Sect OctLoc
   1     002   062017 432142                                                    2..b
PL6.E3A0      #002=FPO$WRITELBL File=FPO$OPNOD.:E05TSI                           TUE 07/29/97 17:20 Page:278

(unnamed)
 Sect OctLoc
   1     003   105117 126061   105117 106061                                    EOV1EOF1

(unnamed)
 Sect OctLoc
   3     000   000051 400000   000000 000246   000001 006000   000011 006000    .)..............
   3     004   060040 040040   061040 040040   000007 006000   777777 777617    0   1   ........
   3     010   000000 000036   000010 006000   000010 006000   000000 000040    ...............
   3     014   000013 006000   000015 006000   000000 000044   000000 000014    ...........$....
   3     020   000017 006000   000016 006000   000000 000025   000000 000126    ...............V
   3     024   000023 006000   000022 006000   000000 000015   000026 006000    ................
   3     030   000000 000017   000000 000046   000031 006000   000030 006000    .......&........
   3     034   000000 000020   000034 006000   000000 000047   000036 006000    ...........'....
   3     040   000014 400000                                                    ....
     1896    11460    1   END;

PL6.E3A0      #002=FPO$WRITELBL File=FPO$OPNOD.:E05TSI                           TUE 07/29/97 17:20 Page:279
--  Include file information  --

   HF_LOCK_C.:E05TOU  cannot be made into a system file and is referenced.
   FP_MACRO_C.:E05TOU  is referenced.
   FT_SUBS.:E05TOU  is referenced.
   F_ERRORS_C.:E05TOU  is referenced.
   FT$DDT.:E05TOU  cannot be made into a system file and is referenced.
   FR$RAT.:E05TOU  is referenced.
   SS_SCHED_C.:E05TOU  is referenced.
   B$USER.:E05TOU  cannot be made into a system file and is referenced.
   NK_LDCT_R.:E05TOU  cannot be made into a system file and is referenced.
   NK$LDCT.:E05TOU  is referenced.
   NI$TABLES.:E05TOU  is referenced.
   KI$MHDR.:E05TOU  is referenced.
   KI_MACROS_C.:E05TOU  is referenced.
   K$RWPARM.:E05TOU  is referenced.
   K_SUBS_C.:E05TOU  is referenced.
   F$DCB.:E05TOU  is referenced.
   B$JIT_C.:E05TOU  is referenced.
   F_SCODE_C.:E05TOU  is referenced.
   CP_6_SUBS.:E05TOU  is referenced.
   CP_6_C.:E05TOU  is referenced.
   CP_6.:E05TOU  cannot be made into a system file and is referenced.
      No diagnostics issued in procedure FPO$WRITELBL.
PL6.E3A0      #002=FPO$WRITELBL File=FPO$OPNOD.:E05TSI                           TUE 07/29/97 17:20 Page:280

 **** Variables and constants ****

  ****  Section 001 RoData FPO$WRITELBL

  ****  Scalars and arrays  ****
OctLoc.c.b A Datatyp(siz) R M Lvl/name                 OctLoc.c.b A Datatyp(siz) R M Lvl/name

     0-0-0/b STRC        r     1 E_CANTLABELOD              1-0-0/b STRC        r     1 E_IOERR
     2-0-0/b STRC        r     1 E_NOODSPACE

  ****  Auto variables  ****

  ****  Scalars and arrays  ****
OctLoc.c.b A Datatyp(siz) R M Lvl/name                 OctLoc.c.b A Datatyp(siz) R M Lvl/name

     3-0-0/w PTR         r     1 @DCTX                    155-0-0/w PTR         r     1 @DCTX
   155-0-0/w PTR         r     1 @FNC                     156-0-0/w PTR         r     1 @MSZ
     4-0-0/w PTR         r     1 @SER$                     *0-0-0/w PTR         r     1 BFR$
    72-0-0/w STRC        r     1 CDCT                     152-0-0/w STRC        r     1 CNVTLNG
   152-0-0/w UBIN        r     1 CNVTLNGWD                 57-0-0/w PTR         r     1 D$
    72-0-0/w UBIN        r     1 DCTN                      *0-0-0/w UBIN        r     1 DCTX
    *0-0-0/w UBIN        r     1 DCTX                      *0-0-0/w SBIN        r     1 DIR
    64-0-0/b BIT         r     1 ERRSAV                    66-0-0/w UBIN        r     1 F
    *0-0-0/w UBIN        r     1 FNC                       65-0-0/w UBIN        r     1 I
    63-0-0/w PTR         r     1 JDCB$                      6-0-0/d STRC(1404)  r     1 K$RWPARM
    *0-0-0/w PTR         r     1 LBL1$                     *0-0-0/w PTR         r     1 LBL2$
    61-0-0/w PTR         r     1 LDCT$                     60-0-0/w PTR         r     1 M$
   151-0-0/w STRC        r     1 MP                        73-0-0/c CHAR(180)   r     1 MSG
    *0-0-0/w UBIN        r     1 MSZ                      151-0-0/w PTR         r     1 QMP$
   150-0-0/w UBIN        r     1 QSZ                       *0-0-0/w PTR         r     1 SER$
   150-0-0/w STRC        r     1 SZ                        67-0-0/w UBIN        r     1 WSQ

  ****  SYMREF variables  ****

  ****  Scalars and arrays  ****
OctLoc.c.b A Datatyp(siz) R M Lvl/name                 OctLoc.c.b A Datatyp(siz) R M Lvl/name

PL6.E3A0      #002=FPO$WRITELBL File=FPO$OPNOD.:E05TSI                           TUE 07/29/97 17:20 Page:281
     0-0-0/w PTR         r     1 B$JIT$                     0-0-0/d STRC(1404)  r     1 K_RWPARM_CON
     0-0-0/w PTR         r     1 N$DCT$$                    0-0-0/w PTR         r     1 S$CU$
     0-0-0/w UBIN        r     1 S_CUN

  ****  BASED and DCB variables  ****

  ****  Scalars and arrays  ****
OctLoc.c.b A Datatyp(siz) R M Lvl/name                 OctLoc.c.b A Datatyp(siz) R M Lvl/name

     0-0-0/d STRC(8856)  r     1 B$JIT                      0-0-0/d STRC(576)   r     1 B$U
     0-0-0/c STRC(108)   r     1 COPYREQ                    0-0-0/d ASTR(3528)  r     1 F$DCB
     0-0-0/c STRC(1494)  r     1 FNDACK                     0-0-0/c STRC(342)   r     1 FNDFLREQ
     0-0-0/c STRC(108)   r     1 FNDSQREQ                   0-0-0/w STRC(288)   r     1 FT$DDT
     0-0-0/c CHAR(160)   r     1 HDRS                       0-0-0/w STRC(612)   r     1 KI$FEI
     0-0-0/w STRC(144)   r     1 KI$QMHDR                   0-0-0/b STRC(54)    r     1 LABELACK
     0-0-0/c STRC(774)   r     1 LABELREQ                   0-0-0/c CHAR(80)    r     1 LBL
     0-0-0/b STRC(54)    r     1 MSG                        0-0-0/w PTR         r     1 N$DCT$(0:0)
     0-0-0/w STRC(1332)  r     1 NI$DCT                     0-0-0/d STRC(864)   r     1 NK$LDCT
     0-0-0/c STRC(144)   r     1 PEOVACK                    0-0-0/c STRC(63)    r     1 PEOVREQ
     0-0-0/c STRC(774)   r     1 RDEOFACK                   0-0-0/b STRC(54)    r     1 RDEOFREQ
     0-0-0/c CHAR(6)     r     1 SER                        0-0-0/b STRC(54)    r     1 WRITELBLACK
     0-0-0/c STRC(1494)  r     1 WRITELBLREQ                0-0-0/b STRC(108)   r     1 XFERACK
     0-0-0/b STRC(144)   r     1 XFERREQ


   Procedure FPO$WRITELBL requires 992 words for executable code.
   Procedure FPO$WRITELBL requires 116 words of local(AUTO) storage.

    No errors detected in file FPO$OPNOD.:E05TSI    .
PL6.E3A0      #002=FPO$WRITELBL File=FPO$OPNOD.:E05TSI                           TUE 07/29/97 17:20 Page:282
          *** CROSS REFERENCE LISTING ***
**     DENOTES     IDENTIFIER DEFINITION
<<                 IDENTIFIER'S VALUE SET
>>                 IDENTIFIER'S VALUE USED
<>                 IDENTIFIER SET AND/OR USED
--                 IDENTIFIER REFERENCED
PL6.E3A0      #002=FPO$WRITELBL File=FPO$OPNOD.:E05TSI                           TUE 07/29/97 17:20 Page:283
          MINI XREF LISTING

B$DO.ECCINFO
      8330**DCL      8331--REDEF
B$JIT.DCB$
      6563**DCL     10992>>CALL    11033>>CALL    11102>>CALL    11128>>CALL    11152>>CALL    11171>>CALL
     11187>>CALL    11215>>CALL    11244>>CALL    11289>>CALL    11336>>ASSIGN  11439>>ASSIGN  11453>>ASSIGN
B$JIT.ERR
      6473**DCL     11015<<ASSIGN  11210<<ASSIGN  11329<<ASSIGN  11337<<ASSIGN  11443<<ASSIGN  11452<<ASSIGN
B$JIT.ERR.MID
      6474**DCL      6474--REDEF
B$JIT.ORIGINATOR_PORT.FROM_CR
      6578**DCL      6578--REDEF    6579--REDEF
B$JIT.TSLINE
      6576**DCL      6577--REDEF
B$JIT$
     10936**DCL      6468--IMP-PTR 10992>>CALL    11015>>ASSIGN  11033>>CALL    11102>>CALL    11128>>CALL
     11152>>CALL    11171>>CALL    11187>>CALL    11210>>ASSIGN  11215>>CALL    11244>>CALL    11289>>CALL
     11329>>ASSIGN  11336>>ASSIGN  11337>>ASSIGN  11439>>ASSIGN  11443>>ASSIGN  11452>>ASSIGN  11453>>ASSIGN
B$U.ASYNCH
      8267**DCL     11402>>IF
B$U.MISC
      8309**DCL      8310--REDEF
B$USER.MISC
      8385**DCL      8386--REDEF
BFR$
      9357**DCL     11293<>CALL
BRKOUT
     11335**LABEL   10992--CALLALT 10995--CALLALT 10996--CALLALT 11033--CALLALT 11038--CALLALT 11039--CALLALT
     11075--CALLALT 11077--CALLALT 11078--CALLALT 11102--CALLALT 11103--CALLALT 11104--CALLALT 11128--CALLALT
     11129--CALLALT 11130--CALLALT 11152--CALLALT 11153--CALLALT 11154--CALLALT 11171--CALLALT 11173--CALLALT
     11187--CALLALT 11189--CALLALT 11191--CALLALT 11215--CALLALT 11218--CALLALT 11219--CALLALT 11244--CALLALT
     11247--CALLALT 11248--CALLALT 11289--CALLALT 11303--CALLALT
BRKOUT IN PROCEDURE WR_OSAR_MSG
PL6.E3A0      #002=FPO$WRITELBL File=FPO$OPNOD.:E05TSI                           TUE 07/29/97 17:20 Page:284
     11412**LABEL   11387--CALLALT 11413--CALLALT
BRKOUT1 IN PROCEDURE WR_OSAR_MSG
     11418**LABEL   11403--GOTO
CDCT.HI
      9698**DCL     11374>>ASSIGN
CDCT.LO
      9699**DCL     11375>>ASSIGN
CHKPOSLST
     11449**PROC    10996--CALL    11039--CALL    11078--CALL    11104--CALL    11130--CALL    11154--CALL
     11191--CALL    11219--CALL    11248--CALL    11303--CALL
CNVTLNG.B1
      9716**DCL     11316<<ASSIGN
CNVTLNG.B2
      9717**DCL     11317<<ASSIGN
CNVTLNG.B3
      9718**DCL     11318<<ASSIGN
CNVTLNG.B4
      9719**DCL     11319<<ASSIGN
CNVTLNGWD
      9713**DCL      9714--REDEF   11320>>ASSIGN
COPYREQ
     10451**DCL     11173--CALL
COPYREQ.SER
     10460**DCL     11172<<ASSIGN
D$
      9684**DCL     11043>>ASSIGN  11045>>ASSIGN  11047>>ASSIGN  11048>>ASSIGN  11051>>ASSIGN  11052>>ASSIGN
     11079>>ASSIGN  11441<<ASSIGN  11442>>IF      11454>>ASSIGN
DCTN
      9695**DCL      9696--REDEF   11292>>ASSIGN  11379>>ASSIGN  11405>>ASSIGN  11438<<ASSIGN
DCTX
      9355**DCL        16--PROC     9356--REDEF    9357--REDEF    9358--REDEF   11031--ENTRY   11073--ENTRY
     11075<>CALL    11150--ENTRY   11185--ENTRY   11213--ENTRY   11242--ENTRY   11271--ENTRY   11277--ENTRY
     11280--ENTRY   11283--ENTRY   11286--ENTRY
DCTX IN PROCEDURE SETUP
     11435**DCL     11433--PROC    11438>>ASSIGN  11440>>ASSIGN  11441>>ASSIGN
DIR
PL6.E3A0      #002=FPO$WRITELBL File=FPO$OPNOD.:E05TSI                           TUE 07/29/97 17:20 Page:285
      9358**DCL     11034>>IF
ERRSAV
      9689**DCL     10997<<ASSIGN  11002<<ASSIGN  11005<<ASSIGN  11014>>IF      11015>>ASSIGN  11192<<ASSIGN
     11197<<ASSIGN  11199<<ASSIGN  11209>>IF      11210>>ASSIGN
E_CANTLABELOD
     10952**DCL     11197>>ASSIGN
E_IOERR
     10966**DCL     11005>>ASSIGN  11199>>ASSIGN  11329>>ASSIGN  11337>>ASSIGN  11443>>ASSIGN  11452>>ASSIGN
E_NOODSPACE
     10975**DCL     11002>>ASSIGN
F
      9691**DCL     11272<<ASSIGN  11278<<ASSIGN  11281<<ASSIGN  11284<<ASSIGN  11287<<ASSIGN  11302<>CALL
F$DCB.ACTPOS
      6660**DCL      6660--REDEF
F$DCB.ARS
      6635**DCL      6635--REDEF   11291>>ASSIGN  11320<<ASSIGN
F$DCB.ATTR
      6653**DCL      6654--REDEF
F$DCB.BORROW
      6668**DCL      6668--REDEF    6668--REDEF    6668--REDEF
F$DCB.DCBNAME.L
      6682**DCL      6682--IMP-SIZ
F$DCB.EOMCHAR
      6639**DCL      6639--REDEF
F$DCB.FLDID
      6663**DCL      6663--REDEF
F$DCB.FORM$
      6657**DCL      6657--REDEF
F$DCB.FSECT
      6673**DCL      6673--REDEF
F$DCB.FSN
      6650**DCL      6650--REDEF    6650--REDEF    6651--REDEF   11217>>CALLBLT
F$DCB.HEADER$
      6656**DCL      6656--REDEF
F$DCB.IXTNSIZE
      6654**DCL      6654--REDEF
PL6.E3A0      #002=FPO$WRITELBL File=FPO$OPNOD.:E05TSI                           TUE 07/29/97 17:20 Page:286
F$DCB.LASTSTA$
      6644**DCL      6644--REDEF
F$DCB.LVL
      6669**DCL      6669--REDEF
F$DCB.NAME
      6644**DCL     11245>>ASSIGN
F$DCB.NAME.C
      6644**DCL      6644--REDEF
F$DCB.NOEOF
      6665**DCL      6665--REDEF
F$DCB.NRECS
      6655**DCL      6655--REDEF
F$DCB.NRECX
      6674**DCL      6674--REDEF
F$DCB.OHDR
      6666**DCL      6666--REDEF
F$DCB.ORG
      6649**DCL      6649--REDEF
F$DCB.PRECNO
      6672**DCL      6672--REDEF
F$DCB.RCSZ
      6677**DCL      6677--REDEF
F$DCB.RES
      6645**DCL      6645--REDEF
F$DCB.SETX
      6657**DCL      6657--REDEF   10992<>CALL    11033<>CALL    11102<>CALL    11128<>CALL    11152<>CALL
     11171<>CALL    11187<>CALL    11215<>CALL    11244<>CALL    11289<>CALL
F$DCB.TAB$
      6656**DCL      6657--REDEF
F$DCB.TDA
      6671**DCL      6671--REDEF
F$DCB.TYC
      6635**DCL     11202<<ASSIGN  11202>>ASSIGN  11216<<ASSIGN  11246<<ASSIGN  11290<<ASSIGN
F$DCB.TYC.BOT
      6635**DCL     11224<<ASSIGN
F$DCB.TYC.EOD
PL6.E3A0      #002=FPO$WRITELBL File=FPO$OPNOD.:E05TSI                           TUE 07/29/97 17:20 Page:287
      6636**DCL     11230<<ASSIGN  11259<<ASSIGN
F$DCB.TYC.EOF
      6636**DCL     11226<<ASSIGN  11253<<ASSIGN  11308<<ASSIGN
F$DCB.TYC.EOT
      6635**DCL     11228<<ASSIGN  11255<<ASSIGN  11314<<ASSIGN
F$DCB.TYC.IOERR
      6636**DCL     11003<<ASSIGN  11006<<ASSIGN  11200<<ASSIGN  11232<<ASSIGN  11257<<ASSIGN  11310<<ASSIGN
     11328>>IF      11336<<ASSIGN  11453<<ASSIGN
F$DCB.TYC.LD
      6636**DCL     11312<<ASSIGN
F$DCB.UB$
      6673**DCL     11172>>ASSIGN
F$DCB.WSN
      6646**DCL      6646--REDEF
FNC IN PROCEDURE WR_OSAR_MSG
     11354**DCL     11352--PROC    11373>>ASSIGN  11376>>IF
FNDACK.HDRS
     10545**DCL     11222>>ASSIGN  11251>>ASSIGN
FNDACK.STT
     10538**DCL     11220>>DOCASE  11249>>DOCASE
FNDFLREQ
     10403**DCL     11247--CALL
FNDFLREQ.NM
     10412**DCL     11245<<ASSIGN
FNDSQREQ
     10386**DCL     11218--CALL
FNDSQREQ.FSN
     10395**DCL     11217<<CALLBLT
FT$DDT.FSN
      8703**DCL     11048<<ASSIGN  11052<<ASSIGN
FT$DDT.POS
      8727**DCL     11043<<ASSIGN  11045<<ASSIGN  11047<<ASSIGN  11051<<ASSIGN  11079<<ASSIGN
FT$DDT.POSLOST
      8720**DCL     11442>>IF      11454<<ASSIGN
HDRS
     10609**DCL     11222<<ASSIGN  11251<<ASSIGN
PL6.E3A0      #002=FPO$WRITELBL File=FPO$OPNOD.:E05TSI                           TUE 07/29/97 17:20 Page:288
HFC$LOCK
      9351**DCL-ENT 11384--CALL    11389--CALL    11408--CALL    11424--CALL
HFC$UNLOCK
      9351**DCL-ENT 11012--CALL    11058--CALL    11084--CALL    11109--CALL    11135--CALL    11160--CALL
     11207--CALL    11238--CALL    11265--CALL    11325--CALL    11418--CALL    11429--CALL
I
      9690**DCL     11040<<CALLBLT 11041>>IF      11048>>ASSIGN
JDCB$
      9688**DCL      6635--IMP-PTR 11003>>ASSIGN  11006>>ASSIGN  11172>>ASSIGN  11200>>ASSIGN  11202>>ASSIGN
     11202>>ASSIGN  11216>>ASSIGN  11217>>CALLBLT 11224>>ASSIGN  11226>>ASSIGN  11228>>ASSIGN  11230>>ASSIGN
     11232>>ASSIGN  11245>>ASSIGN  11246>>ASSIGN  11253>>ASSIGN  11255>>ASSIGN  11257>>ASSIGN  11259>>ASSIGN
     11290>>ASSIGN  11291>>ASSIGN  11308>>ASSIGN  11310>>ASSIGN  11312>>ASSIGN  11314>>ASSIGN  11320>>ASSIGN
     11328>>IF      11439<<ASSIGN
K$RWPARM
      9387**DCL     11010<>CALL    11056<>CALL    11082<>CALL    11107<>CALL    11133<>CALL    11158<>CALL
     11205<>CALL    11236<>CALL    11263<>CALL    11323<>CALL    11380<<ASSIGN  11386<>CALL    11398<>CALL
K$RWPARM.BLKREC
      9413**DCL      9438--REDEF
K$RWPARM.BLKREC.BLKU#
      9414**DCL      9416--REDEF
K$RWPARM.BLKREC.RECU#
      9426**DCL      9428--REDEF
K$RWPARM.DVE.DVBYTE.VFC
      9453**DCL      9454--REDEF
K$RWPARM.DVE.EOMCHAR
      9461**DCL      9465--REDEF
K$RWPARM.ERR
      9525**DCL      9530--REDEF   11404>>IF      11412>>IF
K$RWPARM.FC
      9489**DCL      9490--REDEF
K$RWPARM.FLDID
      9671**DCL      9672--REDEF
K$RWPARM.FPT$
      9552**DCL      9559--REDEF
K$RWPARM.FUNCTION
      9566**DCL     11009<<ASSIGN  11055<<ASSIGN  11081<<ASSIGN  11106<<ASSIGN  11132<<ASSIGN  11157<<ASSIGN
PL6.E3A0      #002=FPO$WRITELBL File=FPO$OPNOD.:E05TSI                           TUE 07/29/97 17:20 Page:289
     11204<<ASSIGN  11235<<ASSIGN  11262<<ASSIGN  11322<<ASSIGN
K$RWPARM.IP$
      9517**DCL     11392<<ASSIGN  11394>>IF      11396>>ASSIGN  11396>>ASSIGN  11397>>ASSIGN
K$RWPARM.KEYTYPE
      9678**DCL      9679--REDEF
K$RWPARM.LDCT$
      9548**DCL     11008<<ASSIGN  11054<<ASSIGN  11080<<ASSIGN  11105<<ASSIGN  11131<<ASSIGN  11156<<ASSIGN
     11203<<ASSIGN  11234<<ASSIGN  11261<<ASSIGN  11321<<ASSIGN
K$RWPARM.MSG$
      9388**DCL      9394--REDEF   10485--IMP-PTR 10501--IMP-PTR 10519--IMP-PTR 10536--IMP-PTR 10553--IMP-PTR
     10569--IMP-PTR 10998>>DOCASE  11040>>CALLBLT 11042>>IF      11044>>IF      11155>>ASSIGN  11193>>DOCASE
     11220>>DOCASE  11222>>ASSIGN  11249>>DOCASE  11251>>ASSIGN  11304>>DOCASE  11316>>ASSIGN  11317>>ASSIGN
     11318>>ASSIGN  11319>>ASSIGN  11381<<ASSIGN  11451>>IF
K$RWPARM.MSGID
      9500**DCL      9505--REDEF
K$RWPARM.MSGIDXT
      9513**DCL      9517--REDEF
K$RWPARM.MSGSZ
      9395**DCL     11382<<ASSIGN
K$RWPARM.ORG
      9649**DCL      9650--REDEF
K$RWPARM.THDRSZ
      9593**DCL      9597--REDEF
K$RWPARM.UHDR$
      9538**DCL     11396<<ASSIGN
K$RWPARM.UHDRSZ
      9543**DCL     11397<<ASSIGN
K$RWPARM.VDOFLGS
      9651**DCL      9662--REDEF
KI$FEI.BD$
     10293**DCL     10294--REDEF
KI$FEI.BDAD.WADDR
     10295**DCL     10296--REDEF
KI$FEI.FEWSQ
     10286**DCL     11292>>ASSIGN
KI$FEI.RCVPB
PL6.E3A0      #002=FPO$WRITELBL File=FPO$OPNOD.:E05TSI                           TUE 07/29/97 17:20 Page:290
     10309**DCL     10310--REDEF
KI$QMHDR.FPTSZ
     10232**DCL     10233--REDEF
KI$QMHDR.MSGSZ
     10238**DCL     10239--REDEF
KI$QMHDR.OFFSET
     10226**DCL     11396>>ASSIGN
KI$QMHDR.SIZE
     10227**DCL     11397>>ASSIGN
KI$QMHDR.UID
     10228**DCL     10229--REDEF
KI$RWPARM.BLKREC
      9881**DCL      9906--REDEF
KI$RWPARM.BLKREC.BLKU#
      9882**DCL      9884--REDEF
KI$RWPARM.BLKREC.RECU#
      9894**DCL      9896--REDEF
KI$RWPARM.DVE.DVBYTE.VFC
      9921**DCL      9922--REDEF
KI$RWPARM.DVE.EOMCHAR
      9929**DCL      9933--REDEF
KI$RWPARM.ERR
      9993**DCL      9998--REDEF
KI$RWPARM.FC
      9957**DCL      9958--REDEF
KI$RWPARM.FLDID
     10139**DCL     10140--REDEF
KI$RWPARM.FPT$
     10020**DCL     10027--REDEF
KI$RWPARM.KEYTYPE
     10146**DCL     10147--REDEF
KI$RWPARM.MSG$
      9856**DCL      9862--REDEF
KI$RWPARM.MSGID
      9968**DCL      9973--REDEF
KI$RWPARM.MSGIDXT
PL6.E3A0      #002=FPO$WRITELBL File=FPO$OPNOD.:E05TSI                           TUE 07/29/97 17:20 Page:291
      9981**DCL      9985--REDEF
KI$RWPARM.ORG
     10117**DCL     10118--REDEF
KI$RWPARM.THDRSZ
     10061**DCL     10065--REDEF
KI$RWPARM.VDOFLGS
     10119**DCL     10130--REDEF
KIA$MSG
     10940**DCL-ENT 11398--CALL
KIA$OQFL
     10941**DCL-ENT 11413--CALL
KIA$WRITE_USER
     10939**DCL-ENT 11386--CALL
KIQ$MAPFEP
     10943**DCL-ENT 11395--CALL
KIS$SEND
     10942**DCL-ENT 11010--CALL    11056--CALL    11082--CALL    11107--CALL    11133--CALL    11158--CALL
     11205--CALL    11236--CALL    11263--CALL    11323--CALL
K_RWPARM_CON
     10638**DCL     11380>>ASSIGN
K_RWPARM_CON.BLKREC
     10664**DCL     10689--REDEF
K_RWPARM_CON.BLKREC.BLKU#
     10665**DCL     10667--REDEF
K_RWPARM_CON.BLKREC.RECU#
     10677**DCL     10679--REDEF
K_RWPARM_CON.DVE.DVBYTE.VFC
     10704**DCL     10705--REDEF
K_RWPARM_CON.DVE.EOMCHAR
     10712**DCL     10716--REDEF
K_RWPARM_CON.ERR
     10776**DCL     10781--REDEF
K_RWPARM_CON.FC
     10740**DCL     10741--REDEF
K_RWPARM_CON.FLDID
     10922**DCL     10923--REDEF
PL6.E3A0      #002=FPO$WRITELBL File=FPO$OPNOD.:E05TSI                           TUE 07/29/97 17:20 Page:292
K_RWPARM_CON.FPT$
     10803**DCL     10810--REDEF
K_RWPARM_CON.KEYTYPE
     10929**DCL     10930--REDEF
K_RWPARM_CON.MSG$
     10639**DCL     10645--REDEF
K_RWPARM_CON.MSGID
     10751**DCL     10756--REDEF
K_RWPARM_CON.MSGIDXT
     10764**DCL     10768--REDEF
K_RWPARM_CON.ORG
     10900**DCL     10901--REDEF
K_RWPARM_CON.THDRSZ
     10844**DCL     10848--REDEF
K_RWPARM_CON.VDOFLGS
     10902**DCL     10913--REDEF
LABEL1
     11188**LABEL   11174--GOTO
LABELACK.STT
     10555**DCL     11193>>DOCASE
LABELREQ
     10468**DCL     11189--CALL
LABELREQ.VOL1
     10477**DCL     11188<<ASSIGN
LBL
     10608**DCL     10993>>ASSIGN  10994>>ASSIGN  11155<<ASSIGN  11188>>ASSIGN
LBL1$
      9356**DCL     10993>>ASSIGN  11155>>ASSIGN  11188>>ASSIGN  11222>>ASSIGN  11251>>ASSIGN
LBL2$
      9360**DCL     10994>>ASSIGN
LDCT$
      9686**DCL     11008>>ASSIGN  11012>>CALL    11054>>ASSIGN  11058>>CALL    11080>>ASSIGN  11084>>CALL
     11105>>ASSIGN  11109>>CALL    11131>>ASSIGN  11135>>CALL    11156>>ASSIGN  11160>>CALL    11203>>ASSIGN
     11207>>CALL    11234>>ASSIGN  11238>>CALL    11261>>ASSIGN  11265>>CALL    11321>>ASSIGN  11325>>CALL
     11335>>IF      11384>>CALL    11386>>CALL    11387<>CALL    11389>>CALL    11392>>ASSIGN  11393>>ASSIGN
     11395>>CALL    11402>>IF      11406<>CALL    11408>>CALL    11413>>CALL    11418>>CALL    11424>>CALL
PL6.E3A0      #002=FPO$WRITELBL File=FPO$OPNOD.:E05TSI                           TUE 07/29/97 17:20 Page:293
     11426>>IF      11429>>CALL    11440<<ASSIGN
M$
      9685**DCL     10335--IMP-PTR 10353--IMP-PTR 10370--IMP-PTR 10386--IMP-PTR 10403--IMP-PTR 10422--IMP-PTR
     10451--IMP-PTR 10468--IMP-PTR 10993>>ASSIGN  10994>>ASSIGN  11035>>ASSIGN  11037>>ASSIGN  11076>>ASSIGN
     11172>>ASSIGN  11188>>ASSIGN  11217>>CALLBLT 11245>>ASSIGN  11273<<ASSIGN  11274>>ASSIGN  11275>>ASSIGN
     11294>>ASSIGN  11295>>ASSIGN  11296>>ASSIGN  11297>>ASSIGN  11298>>ASSIGN  11299>>ASSIGN  11300>>ASSIGN
     11301>>ASSIGN  11362--IMP-PTR 11373>>ASSIGN  11374>>ASSIGN  11375>>ASSIGN  11377>>ASSIGN  11379>>ASSIGN
     11381>>ASSIGN  11437<<ASSIGN
MMS$VGET
     10945**DCL-ENT 11293--CALL
MMS$VREL
     10946**DCL-ENT 11327--CALL    11333--CALL
MP.B2
      9709**DCL     11296>>ASSIGN
MP.B3
      9710**DCL     11295>>ASSIGN
MP.B4
      9711**DCL     11294>>ASSIGN
MSG
      9700**DCL     11273--ASSIGN  11437--ASSIGN
MSG.DCTX.HI IN PROCEDURE WR_OSAR_MSG
     11368**DCL     11374<<ASSIGN
MSG.DCTX.LO IN PROCEDURE WR_OSAR_MSG
     11369**DCL     11375<<ASSIGN
MSG.DEV# IN PROCEDURE WR_OSAR_MSG
     11365**DCL     11377<<ASSIGN  11379<<ASSIGN
MSG.FNC IN PROCEDURE WR_OSAR_MSG
     11363**DCL     11373<<ASSIGN
MSZ IN PROCEDURE WR_OSAR_MSG
     11355**DCL     11352--PROC    11382>>ASSIGN
N$DCT$
     10935**DCL     11292>>ASSIGN  11379>>ASSIGN  11405>>ASSIGN  11440>>ASSIGN  11441>>ASSIGN
N$DCT$$
      8177**DCL      8177--IMP-PTR 10935--IMP-PTR 11292>>ASSIGN  11379>>ASSIGN  11405>>ASSIGN  11440>>ASSIGN
     11441>>ASSIGN
NI$DCT.DDT$
PL6.E3A0      #002=FPO$WRITELBL File=FPO$OPNOD.:E05TSI                           TUE 07/29/97 17:20 Page:294
      9733**DCL     11441>>ASSIGN
NI$DCT.DP
      9752**DCL      9759--REDEF    9762--REDEF    9763--REDEF    9765--REDEF    9765--REDEF    9766--REDEF
      9767--REDEF    9767--REDEF
NI$DCT.DVN
      9741**DCL     11379>>ASSIGN
NI$DCT.MPC.IOCHANX
      9760**DCL      9760--REDEF
NI$DCT.OD.FEI$
      9768**DCL     11292>>ASSIGN
NI$DCT.OD.LDCT$
      9767**DCL     11440>>ASSIGN
NI$DCT.OD.THRTLD
      9768**DCL     11405<<ASSIGN
NI$DQH.IOCHANX
      9782**DCL      9783--REDEF
NI$DQH.MBX$
      9791**DCL      9792--REDEF
NK$LDCT
     10163**DCL     11386<>CALL    11413<>CALL
NK$LDCT.DDT$
     10165**DCL     10165--REDEF
NK$LDCT.DFLG.FEDN
     10171**DCL     11335>>IF      11402>>IF
NK$LDCT.IOQ$
     10164**DCL     10165--REDEF
NK$LDCT.IP$
     10185**DCL     11392>>ASSIGN  11393<<ASSIGN  11426>>IF
NK$LDCT.IPFEI#
     10186**DCL     11395<>CALL
NK$LDCT.LDCTX
     10166**DCL     10166--REDEF
NK$LDCT.LKFLG.ABORTED
     10178**DCL     10179--REDEF
NK$LDCT.LOCK
     10191**DCL     11012<>CALL    11058<>CALL    11084<>CALL    11109<>CALL    11135<>CALL    11160<>CALL
PL6.E3A0      #002=FPO$WRITELBL File=FPO$OPNOD.:E05TSI                           TUE 07/29/97 17:20 Page:295
     11207<>CALL    11238<>CALL    11265<>CALL    11325<>CALL    11384<>CALL    11389<>CALL    11408<>CALL
     11418<>CALL    11424<>CALL    11429<>CALL
NK$LDCT.RLCID.LDCTX
     10188**DCL     10188--REDEF
NK$LDCT.STA$
     10184**DCL     10185--REDEF
NK$LDCT.SYMB$
     10163**DCL     10163--REDEF   10163--REDEF   10164--REDEF
NOBFR
     11335**LABEL   11293--CALLALT
PEOVACK.FSEQU_NUM
     10511**DCL     11040>>CALLBLT
PEOVACK.TYPE
     10510**DCL     11042>>IF      11044>>IF
PEOVREQ
     10353**DCL     11038--CALL    11077--CALL
PEOVREQ.DIR
     10362**DCL     11035<<ASSIGN  11037<<ASSIGN  11076<<ASSIGN
QFULL IN PROCEDURE WR_OSAR_MSG
     11402**LABEL   11386--CALLALT
QMP$
      9707**DCL      9708--REDEF   11293<>CALL    11327<>CALL    11333<>CALL
QSZ
      9701**DCL      9702--REDEF   11291<<ASSIGN
RD IN PROCEDURE WR_OSAR_MSG
     11391**LABEL   11427--GOTO
RDEOFACK.LBL
     10528**DCL     11155>>ASSIGN
RDEOFREQ
     10370**DCL     11103--CALL    11129--CALL    11153--CALL
RDWROD
     11287**LABEL   11276--GOTO    11279--GOTO    11282--GOTO    11285--GOTO
S$CU$
      8396**DCL     11402>>IF
SC_FPOBADSEND
     10947**DCL-ENT 11341--CALL
PL6.E3A0      #002=FPO$WRITELBL File=FPO$OPNOD.:E05TSI                           TUE 07/29/97 17:20 Page:296
SER
     10607**DCL     11172>>ASSIGN
SER$
      9359**DCL        16--PROC     9360--REDEF    9361--REDEF    9362--REDEF   10607--IMP-PTR
SETUP
     11433**PROC    10992--CALL    11033--CALL    11075--CALL    11102--CALL    11128--CALL    11152--CALL
     11171--CALL    11187--CALL    11215--CALL    11244--CALL    11289--CALL
SSR$REG
     10944**DCL-ENT 11387--CALL    11406--CALL
SZ
      9702**DCL     11293<>CALL
SZ.B2
      9704**DCL     11300>>ASSIGN
SZ.B3
      9705**DCL     11299>>ASSIGN
SZ.B4
      9706**DCL     11298>>ASSIGN
S_CUN
     10937**DCL     11274>>ASSIGN  11275>>ASSIGN
WRERR
     11333**LABEL   11302--CALLALT
WRITELBLACK.STT
     10487**DCL     10998>>DOCASE
WRITELBLREQ
     10335**DCL     10995--CALL
WRITELBLREQ.HDR1
     10344**DCL     10993<<ASSIGN
WRITELBLREQ.HDR2
     10345**DCL     10994<<ASSIGN
WRT IN PROCEDURE WR_OSAR_MSG
     11386**LABEL   11410--GOTO    11414--GOTO
WR_OSAR_MSG
     11352**PROC    10995--CALL    11038--CALL    11077--CALL    11103--CALL    11129--CALL    11153--CALL
     11173--CALL    11189--CALL    11218--CALL    11247--CALL    11302--CALL
WSQ
      9692**DCL     11292<<ASSIGN  11293<>CALL    11327<>CALL    11333<>CALL
PL6.E3A0      #002=FPO$WRITELBL File=FPO$OPNOD.:E05TSI                           TUE 07/29/97 17:20 Page:297
XFERACK.SIZE.B1
     10580**DCL     11316>>ASSIGN
XFERACK.SIZE.B2
     10582**DCL     11317>>ASSIGN
XFERACK.SIZE.B3
     10584**DCL     11318>>ASSIGN
XFERACK.SIZE.B4
     10586**DCL     11319>>ASSIGN
XFERACK.STT
     10571**DCL     11304>>DOCASE  11451>>IF
XFERREQ
     10422**DCL     11302--CALL
XFERREQ.ADR.B1
     10432**DCL     11297<<ASSIGN
XFERREQ.ADR.B2
     10433**DCL     11296<<ASSIGN
XFERREQ.ADR.B3
     10434**DCL     11295<<ASSIGN
XFERREQ.ADR.B4
     10435**DCL     11294<<ASSIGN
XFERREQ.SIZE.B1
     10437**DCL     11301<<ASSIGN
XFERREQ.SIZE.B2
     10438**DCL     11300<<ASSIGN
XFERREQ.SIZE.B3
     10439**DCL     11299<<ASSIGN
XFERREQ.SIZE.B4
     10440**DCL     11298<<ASSIGN
XFERREQ.USRNO.B1
     10442**DCL     11274<<ASSIGN
XFERREQ.USRNO.B2
     10443**DCL     11275<<ASSIGN
