VERSION E05

PL6.E3A0      #001=FP_DATA_D File=FP_DATA_D.:E05TSI                              TUE 07/29/97 17:20 Page:1
        1        1        /*M*  Data for Optical Disc Controller            */
        2        2        /*T***********************************************************/
        3        3        /*T*                                                         */
        4        4        /*T* Copyright (c) Bull HN Information Systems Inc., 1997    */
        5        5        /*T*                                                         */
        6        6        /*T***********************************************************/
        7        7
        8        8        FP_DATA_D: PROC;
        9        9        %INCLUDE CP_6;
       10     5568        %INCLUDE CP_6_SUBS;
       11     6108        %INCLUDE F_SCODE_C;
       12     6144        %INCLUDE FR_SCODE_C;
       13     6161    1   DCL FP$OPCI$ PTR STATIC SYMDEF INIT(ADDR(NIL));
       14     6162        %VLP_SCREECH (FPTN=SC_FPOBADSEND,STCLASS = SYMDEF CONSTANT,FCG=FP,MID=O,
       15     6163                      CODE=%S$BADSEND);
       16     6233        %VLP_SCREECH (FPTN=SC_FPABADDEV,STCLASS = SYMDEF CONSTANT,FCG=FP,MID=A,
       17     6234                      CODE=%S$AVRDCT);
       18     6304    1   END;

PL6.E3A0      #001=FP_DATA_D File=FP_DATA_D.:E05TSI                              TUE 07/29/97 17:20 Page:2
--  Include file information  --

   FR_SCODE_C.:E05TOU  is referenced.
   F_SCODE_C.:E05TOU  is referenced.
   CP_6_SUBS.:E05TOU  is referenced.
   CP_6_C.:E05TOU  is referenced.
   CP_6.:E05TOU  cannot be made into a system file and is referenced.
      No diagnostics issued in procedure FP_DATA_D.

   No code generated for procedure FP_DATA_D .
   Procedure FP_DATA_D requires 4 words of local(AUTO) storage.

    No errors detected in file FP_DATA_D.:E05TSI    .

PL6.E3A0      #001=FP_DATA_D File=FP_DATA_D.:E05TSI                              TUE 07/29/97 17:20 Page:3

 Object Unit name= FP_DATA_D                                  File name= FP_DATA_D.:E05TOU
 UTS= JUL 29 '97 17:20:48.04 TUE                              Compiler= PL-6/E31         Sev=      00
 SharedLib= :SHARED_SYSTEM                                    Alt SharedLib=


    ****  Control sections  ****

 Sect   Type Bound  Init  Size OctSiz  Section name(segment info)
    0   DCB   even  none     0      0  M$UC
    1   Data  even  none     1      1  FP_DATA_D
    2  RoData even  UTS      4      4  FP_DATA_D
    3   Proc  even  none     0      0  FP_DATA_D

    ****  Entry defs  ****

                              Check   Calling
                             calling  sequence
  Sect OctLoc Primary Altret sequence   type   Parms  Name
     3      0   yes            yes     ~proc       0  FP_DATA_D

  ****  Data defs  ****

 Sect OctLoc  Name                           Sect OctLoc  Name
    1      0  FP$OPCI$                           2      0  SC_FPOBADSEND
    2      2  SC_FPABADDEV

  ****  Data refs  ****

  Flags:  r = read only, s = secondary
Flgs Name                             Flgs Name                             Flgs Name
     M$UC
PL6.E3A0      #001=FP_DATA_D File=FP_DATA_D.:E05TSI                              TUE 07/29/97 17:20 Page:4

  ****  Segment refs  ****

  Flags:  r = read only, s = secondary
Flgs Name                             Flgs Name                             Flgs Name
     NULLSID
PL6.E3A0      #001=FP_DATA_D File=FP_DATA_D.:E05TSI                              TUE 07/29/97 17:20 Page:5


(unnamed)
 Sect OctLoc
   1     000   000000 006014                                                    ....
        1        1        /*M*  Data for Optical Disc Controller            */
        2        2        /*T***********************************************************/
        3        3        /*T*                                                         */
        4        4        /*T* Copyright (c) Bull HN Information Systems Inc., 1997    */
        5        5        /*T*                                                         */
        6        6        /*T***********************************************************/
        7        7
        8        8        FP_DATA_D: PROC;
        9        9        %INCLUDE CP_6;
       10     5568        %INCLUDE CP_6_SUBS;
       11     6108        %INCLUDE F_SCODE_C;
       12     6144        %INCLUDE FR_SCODE_C;
       13     6161    1   DCL FP$OPCI$ PTR STATIC SYMDEF INIT(ADDR(NIL));
       14     6162        %VLP_SCREECH (FPTN=SC_FPOBADSEND,STCLASS = SYMDEF CONSTANT,FCG=FP,MID=O,
       15     6163                      CODE=%S$BADSEND);
       16     6233        %VLP_SCREECH (FPTN=SC_FPABADDEV,STCLASS = SYMDEF CONSTANT,FCG=FP,MID=A,
       17     6234                      CODE=%S$AVRDCT);
       18     6304    1   END;

PL6.E3A0      #001=FP_DATA_D File=FP_DATA_D.:E05TSI                              TUE 07/29/97 17:20 Page:6
--  Include file information  --

   FR_SCODE_C.:E05TOU  is referenced.
   F_SCODE_C.:E05TOU  is referenced.
   CP_6_SUBS.:E05TOU  is referenced.
   CP_6_C.:E05TOU  is referenced.
   CP_6.:E05TOU  cannot be made into a system file and is referenced.
      No diagnostics issued in procedure FP_DATA_D.
PL6.E3A0      #001=FP_DATA_D File=FP_DATA_D.:E05TSI                              TUE 07/29/97 17:20 Page:7

 **** Variables and constants ****


   No code generated for procedure FP_DATA_D .
   Procedure FP_DATA_D requires 4 words of local(AUTO) storage.

    No errors detected in file FP_DATA_D.:E05TSI    .
PL6.E3A0      #001=FP_DATA_D File=FP_DATA_D.:E05TSI                              TUE 07/29/97 17:20 Page:8
          *** CROSS REFERENCE LISTING ***
**     DENOTES     IDENTIFIER DEFINITION
<<                 IDENTIFIER'S VALUE SET
>>                 IDENTIFIER'S VALUE USED
<>                 IDENTIFIER SET AND/OR USED
--                 IDENTIFIER REFERENCED
PL6.E3A0      #001=FP_DATA_D File=FP_DATA_D.:E05TSI                              TUE 07/29/97 17:20 Page:9
          MINI XREF LISTING

