VERSION E05

PL6.E3A0      #001=FRA$CGCON File=FRA$OPR.:E05TSI                                TUE 07/29/97 17:21 Page:1
        1        1        /*M* FRA$OPR - Attach DCB to appropriate resource during open */
        2        2        /*T***********************************************************/
        3        3        /*T*                                                         */
        4        4        /*T* Copyright (c) Bull HN Information Systems Inc., 1997    */
        5        5        /*T*                                                         */
        6        6        /*T***********************************************************/
        7        7        /*X* NSO,MCL=0,MOC,MEC,CLM=3,EXM=3,CRT=6,DMR,PLM=3,IND=3,ENU=0,DCI=3,
        8        8        CSU=3,ECU=3,THI=0,DTI=0,CRM=86 */
        9        9           /*D* Name:  FRA$OPR
       10       10                Description:  This is a dummy module to move the former FRA$OPR
       11       11                code into an overlay.  The real code is in FRX$OPR.  This module
       12       12                just lives in the root and calls the appropriate FRX routine
       13       13                so that the FRX routines can be called from other overlays.
       14       14           */
       15       15        FRA$CGCON: PROC(CGTYPE,CGATTR,CG) ALTRET;
       16       16
       17       17    1   DCL CGTYPE UBIN;
       18       18    1   DCL CGATTR UBIN;
       19       19    1   DCL CG UBIN;
       20       20
       21       21    1   DCL FRX$CGCON ENTRY(3) ALTRET;
       22       22    1   DCL FRX$COPN ENTRY ALTRET;
       23       23    1   DCL FRX$OPN ENTRY ALTRET;
       24       24
       25       25    1      CALL FRX$CGCON(CGTYPE,CGATTR,CG) ALTRET(RETALT);
       26       26    1      RETURN;
       27       27
       28       28    1   FRA$COPN: ENTRY ALTRET;
       29       29
       30       30    1      CALL FRX$COPN ALTRET(RETALT);
       31       31    1      RETURN;
       32       32
       33       33    1   FRA$OPR: ENTRY ALTRET;
       34       34
       35       35    1      CALL FRX$OPN ALTRET(RETALT);
       36       36    1      RETURN;
       37       37
PL6.E3A0      #001=FRA$CGCON File=FRA$OPR.:E05TSI                                TUE 07/29/97 17:21 Page:2
       38       38    1   RETALT: ALTRETURN;
       39       39    1   END FRA$CGCON;

PL6.E3A0      #001=FRA$CGCON File=FRA$OPR.:E05TSI                                TUE 07/29/97 17:21 Page:3
      No diagnostics issued in procedure FRA$CGCON.

   Procedure FRA$CGCON requires 20 words for executable code.
   Procedure FRA$CGCON requires 6 words of local(AUTO) storage.

    No errors detected in file FRA$OPR.:E05TSI    .

PL6.E3A0      #001=FRA$CGCON File=FRA$OPR.:E05TSI                                TUE 07/29/97 17:21 Page:4

 Object Unit name= FRA$CGCON                                  File name= FRA$OPR.:E05TOU
 UTS= JUL 29 '97 17:21:10.00 TUE                              Compiler= PL-6/E31         Sev=      00
 SharedLib= :SHARED_SYSTEM                                    Alt SharedLib=


    ****  Control sections  ****

 Sect   Type Bound  Init  Size OctSiz  Section name(segment info)
    0   Proc  even  none    20     24  FRA$CGCON

    ****  Entry defs  ****

                              Check   Calling
                             calling  sequence
  Sect OctLoc Primary Altret sequence   type   Parms  Name
     0      0   yes    yes     yes      Std        3  FRA$CGCON
     0      7          yes     yes      Std        0  FRA$COPN
     0     15          yes     yes      Std        0  FRA$OPR

  ****  Entry refs  ****

         Check        Calling
        calling       sequence
Altret sequence SRef   type   Args  Name
 yes     yes           Std       3 FRX$CGCON
 yes     yes           Std       0 FRX$COPN
 yes     yes           Std       0 FRX$OPN
                       nStd      0 X66_AUTO_3
                       Std       0 B_CONSPOOL_D
                       nStd      0 X66_ARET
                       nStd      0 X66_AALT
PL6.E3A0      #001=FRA$CGCON File=FRA$OPR.:E05TSI                                TUE 07/29/97 17:21 Page:5

  ****  Data refs  ****

  Flags:  r = read only, s = secondary
Flgs Name                             Flgs Name                             Flgs Name
     B_VECTNIL
PL6.E3A0      #001=FRA$CGCON File=FRA$OPR.:E05TSI                                TUE 07/29/97 17:21 Page:6


        1        1        /*M* FRA$OPR - Attach DCB to appropriate resource during open */
        2        2        /*T***********************************************************/
        3        3        /*T*                                                         */
        4        4        /*T* Copyright (c) Bull HN Information Systems Inc., 1997    */
        5        5        /*T*                                                         */
        6        6        /*T***********************************************************/
        7        7        /*X* NSO,MCL=0,MOC,MEC,CLM=3,EXM=3,CRT=6,DMR,PLM=3,IND=3,ENU=0,DCI=3,
        8        8        CSU=3,ECU=3,THI=0,DTI=0,CRM=86 */
        9        9           /*D* Name:  FRA$OPR
       10       10                Description:  This is a dummy module to move the former FRA$OPR
       11       11                code into an overlay.  The real code is in FRX$OPR.  This module
       12       12                just lives in the root and calls the appropriate FRX routine
       13       13                so that the FRX routines can be called from other overlays.
       14       14           */
       15       15        FRA$CGCON: PROC(CGTYPE,CGATTR,CG) ALTRET;

     15  0 000000   000000 700200 xent  FRA$CGCON    TSX0  ! X66_AUTO_3
         0 000001   000006 000003                    ZERO    6,3

       16       16
       17       17    1   DCL CGTYPE UBIN;
       18       18    1   DCL CGATTR UBIN;
       19       19    1   DCL CG UBIN;
       20       20
       21       21    1   DCL FRX$CGCON ENTRY(3) ALTRET;
       22       22    1   DCL FRX$COPN ENTRY ALTRET;
       23       23    1   DCL FRX$OPN ENTRY ALTRET;
       24       24
       25       25    1      CALL FRX$CGCON(CGTYPE,CGATTR,CG) ALTRET(RETALT);

     25  0 000002   200003 630500                    EPPR0   @CGTYPE,,AUTO
         0 000003   000021 631400 xsym               EPPR1   B_VECTNIL+17
         0 000004   000000 701000 xent               TSX1    FRX$CGCON
         0 000005   000023 702000 0                  TSX2    RETALT

       26       26    1      RETURN;
PL6.E3A0      #001=FRA$CGCON File=FRA$OPR.:E05TSI                                TUE 07/29/97 17:21 Page:7

     26  0 000006   000000 702200 xent               TSX2  ! X66_ARET

       27       27
       28       28    1   FRA$COPN: ENTRY ALTRET;

     28  0 000007   000000 700200 xent  FRA$COPN     TSX0  ! X66_AUTO_3
         0 000010   000006 000003                    ZERO    6,3

       29       29
       30       30    1      CALL FRX$COPN ALTRET(RETALT);

     30  0 000011   000002 631400 xsym               EPPR1   B_VECTNIL+2
         0 000012   000000 701000 xent               TSX1    FRX$COPN
         0 000013   000023 702000 0                  TSX2    RETALT

       31       31    1      RETURN;

     31  0 000014   000000 702200 xent               TSX2  ! X66_ARET

       32       32
       33       33    1   FRA$OPR: ENTRY ALTRET;

     33  0 000015   000000 700200 xent  FRA$OPR      TSX0  ! X66_AUTO_3
         0 000016   000006 000003                    ZERO    6,3

       34       34
       35       35    1      CALL FRX$OPN ALTRET(RETALT);

     35  0 000017   000002 631400 xsym               EPPR1   B_VECTNIL+2
         0 000020   000000 701000 xent               TSX1    FRX$OPN
         0 000021   000023 702000 0                  TSX2    RETALT

       36       36    1      RETURN;

     36  0 000022   000000 702200 xent               TSX2  ! X66_ARET

PL6.E3A0      #001=FRA$CGCON File=FRA$OPR.:E05TSI                                TUE 07/29/97 17:21 Page:8
       37       37
       38       38    1   RETALT: ALTRETURN;

     38  0 000023   000000 702200 xent  RETALT       TSX2  ! X66_AALT
       39       39    1   END FRA$CGCON;

PL6.E3A0      #001=FRA$CGCON File=FRA$OPR.:E05TSI                                TUE 07/29/97 17:21 Page:9
      No diagnostics issued in procedure FRA$CGCON.
PL6.E3A0      #001=FRA$CGCON File=FRA$OPR.:E05TSI                                TUE 07/29/97 17:21 Page:10

 **** Variables and constants ****

  ****  Auto variables  ****

  ****  Scalars and arrays  ****
OctLoc.c.b A Datatyp(siz) R M Lvl/name                 OctLoc.c.b A Datatyp(siz) R M Lvl/name

     5-0-0/w PTR         r     1 @CG                        4-0-0/w PTR         r     1 @CGATTR
     3-0-0/w PTR         r     1 @CGTYPE                   *0-0-0/w UBIN        r     1 CG
    *0-0-0/w UBIN        r     1 CGATTR                    *0-0-0/w UBIN        r     1 CGTYPE


   Procedure FRA$CGCON requires 20 words for executable code.
   Procedure FRA$CGCON requires 6 words of local(AUTO) storage.

    No errors detected in file FRA$OPR.:E05TSI    .
PL6.E3A0      #001=FRA$CGCON File=FRA$OPR.:E05TSI                                TUE 07/29/97 17:21 Page:11
          *** CROSS REFERENCE LISTING ***
**     DENOTES     IDENTIFIER DEFINITION
<<                 IDENTIFIER'S VALUE SET
>>                 IDENTIFIER'S VALUE USED
<>                 IDENTIFIER SET AND/OR USED
--                 IDENTIFIER REFERENCED
PL6.E3A0      #001=FRA$CGCON File=FRA$OPR.:E05TSI                                TUE 07/29/97 17:21 Page:12
          MINI XREF LISTING

CG
        19**DCL        15--PROC       25<>CALL
CGATTR
        18**DCL        15--PROC       25<>CALL
CGTYPE
        17**DCL        15--PROC       25<>CALL
FRX$CGCON
        21**DCL-ENT    25--CALL
FRX$COPN
        22**DCL-ENT    30--CALL
FRX$OPN
        23**DCL-ENT    35--CALL
RETALT
        38**LABEL      25--CALLALT    30--CALLALT    35--CALLALT
