VERSION E05

PL6.E3A0      #001=FRS$OPSTRS File=FRS$ACCTNG.:E05TSI                            TUE 07/29/97 17:24 Page:1
        1        1        /*M* FRS$ACCTNG Resource management accounting  */
        2        2        /*T***********************************************************/
        3        3        /*T*                                                         */
        4        4        /*T* Copyright (c) Bull HN Information Systems Inc., 1997    */
        5        5        /*T*                                                         */
        6        6        /*T***********************************************************/
        7        7        /*X*DMC,PLM=6,IND=2,ENU=2,DCI=4,CSU=2,ECU=2,THI=2,DTI=0*/
        8        8        /**/
        9        9        /**/
       10       10        FRS$OPSTRS: PROC;
       11       11        /**/
       12       12        /**/
       13       13        %INCLUDE F$JIT_C;
       14      443        %INCLUDE F$DCB;
       15      492        %INCLUDE CP_6_SUBS;
       16     1032        /**/
       17     1033        /**/
       18     1034    1   DCL TDCB$ PTR;
       19     1035    1   DCL B$M$STAR$ PTR SYMREF READONLY;
       20     1036    1   DCL STRDCB$ REDEF B$M$STAR$ PTR;
       21     1037    1   DCL SVERR BIT(36) ALIGNED;
       22     1038    1   DCL 1 STARS CONSTANT ALIGNED,
       23     1039    1         2 CNT UBIN BYTE UNAL INIT(2),
       24     1040    1         2 NAME CHAR(3) INIT('*S');
       25     1041    1   DCL B$JIT$ PTR SYMREF;
       26     1042    1   DCL FMP$CLSJ ENTRY;
       27     1043    1   DCL FMM$SCRUB ENTRY(1);
       28     1044    1   DCL FMM$DFLOPNP ENTRY;
       29     1045    1   DCL FRS$STRABT ENTRY ALTRET;
       30     1046        /**/
       31     1047        /**/
       32     1048    1         CALL SETUP;
       33     1049    1         CALL FMM$SCRUB (STRDCB$);
       34     1050    1         STRDCB$->F$DCB.NAME=STARS;
       35     1051    1         STRDCB$->F$DCB.ASN=%FILE#;
       36     1052    1         STRDCB$->F$DCB.FUN=%CREATE#;
       37     1053    1         STRDCB$->F$DCB.ACS=%DIRECT#;
PL6.E3A0      #001=FRS$OPSTRS File=FRS$ACCTNG.:E05TSI                            TUE 07/29/97 17:24 Page:2
       38     1054        /*    STRDCB$->F$DCB.SHARE=%ALL#;  its the default for *S */
       39     1055    1         STRDCB$->F$DCB.EXIST=%OLDFILE#;
       40     1056    1   REOPN:;
       41     1057    1         B$JIT.ERR='0'B;
       42     1058    1         CALL FMM$DFLOPNP;
       43     1059    1         IF B$JIT.ERR.CODE~=0 THEN CALL FRS$STRABT ALTRET (REOPN);
       44     1060    1   OCOUT:;
       45     1061    1         B$JIT.ERR=SVERR;
       46     1062    1         B$JIT.DCB$=TDCB$;
       47     1063    1         RETURN;
       48     1064        /**/
       49     1065    1   FRS$CLSTRS: ENTRY;
       50     1066        /**/
       51     1067    1         CALL SETUP;
       52     1068    1         GOTO OCOUT;
       53     1069        /**/
       54     1070        /**/
       55     1071    1   SETUP: PROC;
       56     1072        /**/
       57     1073    2         SVERR=B$JIT.ERR;
       58     1074    2         TDCB$=B$JIT.DCB$;
       59     1075    2         B$JIT.DCB$=STRDCB$;
       60     1076    2         CALL FMP$CLSJ;
       61     1077    2         RETURN;
       62     1078    2   END;
       63     1079        /**/
       64     1080    1   END;
       65     1081        /**/
       66     1082        /**/
       67     1083        %EOD;

PL6.E3A0      #001=FRS$OPSTRS File=FRS$ACCTNG.:E05TSI                            TUE 07/29/97 17:24 Page:3
--  Include file information  --

   CP_6_SUBS.:E05TOU  is referenced.
   F$DCB.:E05TOU  cannot be made into a system file and is referenced.
   B$JIT_C.:E05TOU  is referenced.
   F$JIT_C.:E05TOU  cannot be made into a system file and is referenced.
      No diagnostics issued in procedure FRS$OPSTRS.

   Procedure FRS$OPSTRS requires 58 words for executable code.
   Procedure FRS$OPSTRS requires 8 words of local(AUTO) storage.

PL6.E3A0      #001=FRS$OPSTRS File=FRS$ACCTNG.:E05TSI                            TUE 07/29/97 17:24 Page:4

 Object Unit name= FRS$OPSTRS                                 File name= FRS$ACCTNG.:E05TOU
 UTS= JUL 29 '97 17:24:13.36 TUE                              Compiler= PL-6/E31         Sev=      00
 SharedLib= :SHARED_SYSTEM                                    Alt SharedLib=


    ****  Control sections  ****

 Sect   Type Bound  Init  Size OctSiz  Section name(segment info)
    0  RoData even  UTS      1      1  FRS$OPSTRS
    1   Proc  even  none    58     72  FRS$OPSTRS
    2  RoData even  none     2      2  FRS$OPSTRS

    ****  Entry defs  ****

                              Check   Calling
                             calling  sequence
  Sect OctLoc Primary Altret sequence   type   Parms  Name
     1      0   yes            yes      Std        0  FRS$OPSTRS
     1     50                  yes      Std        0  FRS$CLSTRS

  ****  Entry refs  ****

         Check        Calling
        calling       sequence
Altret sequence SRef   type   Args  Name
         yes           Std       1 FMM$SCRUB
         yes           Std       0 FMM$DFLOPNP
 yes     yes           Std       0 FRS$STRABT
         yes           Std       0 FMP$CLSJ
                       nStd      0 X66_AUTO_0
                       Std       0 B_CONSPOOL_D
                       nStd      0 X66_ARET
PL6.E3A0      #001=FRS$OPSTRS File=FRS$ACCTNG.:E05TSI                            TUE 07/29/97 17:24 Page:5

  ****  Data refs  ****

  Flags:  r = read only, s = secondary
Flgs Name                             Flgs Name                             Flgs Name
r    B$M$STAR$                             B$JIT$                                B_VECTNIL

  ****  Segment refs  ****

  Flags:  r = read only, s = secondary
Flgs Name                             Flgs Name                             Flgs Name
     ISSID
PL6.E3A0      #001=FRS$OPSTRS File=FRS$ACCTNG.:E05TSI                            TUE 07/29/97 17:24 Page:6


        1        1        /*M* FRS$ACCTNG Resource management accounting  */
        2        2        /*T***********************************************************/
        3        3        /*T*                                                         */
        4        4        /*T* Copyright (c) Bull HN Information Systems Inc., 1997    */
        5        5        /*T*                                                         */
        6        6        /*T***********************************************************/
        7        7        /*X*DMC,PLM=6,IND=2,ENU=2,DCI=4,CSU=2,ECU=2,THI=2,DTI=0*/
        8        8        /**/
        9        9        /**/
       10       10        FRS$OPSTRS: PROC;

     10  1 000000   000000 700200 xent  FRS$OPSTRS   TSX0  ! X66_AUTO_0
         1 000001   000010 000000                    ZERO    8,0

       11       11        /**/
       12       12        /**/
       13       13        %INCLUDE F$JIT_C;
       14      443        %INCLUDE F$DCB;
       15      492        %INCLUDE CP_6_SUBS;
       16     1032        /**/
       17     1033        /**/
       18     1034    1   DCL TDCB$ PTR;
       19     1035    1   DCL B$M$STAR$ PTR SYMREF READONLY;
       20     1036    1   DCL STRDCB$ REDEF B$M$STAR$ PTR;
       21     1037    1   DCL SVERR BIT(36) ALIGNED;
       22     1038    1   DCL 1 STARS CONSTANT ALIGNED,
       23     1039    1         2 CNT UBIN BYTE UNAL INIT(2),
       24     1040    1         2 NAME CHAR(3) INIT('*S');
       25     1041    1   DCL B$JIT$ PTR SYMREF;
       26     1042    1   DCL FMP$CLSJ ENTRY;
       27     1043    1   DCL FMM$SCRUB ENTRY(1);
       28     1044    1   DCL FMM$DFLOPNP ENTRY;
       29     1045    1   DCL FRS$STRABT ENTRY ALTRET;
       30     1046        /**/
       31     1047        /**/
       32     1048    1         CALL SETUP;
PL6.E3A0      #001=FRS$OPSTRS File=FRS$ACCTNG.:E05TSI                            TUE 07/29/97 17:24 Page:7

   1048  1 000002   000055 701000 1                  TSX1    SETUP
         1 000003   000000 011000                    NOP     0

       33     1049    1         CALL FMM$SCRUB (STRDCB$);

   1049  1 000004   000000 630400 2                  EPPR0   0
         1 000005   000017 631400 xsym               EPPR1   B_VECTNIL+15
         1 000006   000000 701000 xent               TSX1    FMM$SCRUB
         1 000007   000000 011000                    NOP     0

       34     1050    1         STRDCB$->F$DCB.NAME=STARS;

   1050  1 000010   000000 470400 xsym               LDP0    B$M$STAR$
         1 000011   000100 100400                    MLR     fill='000'O
         1 000012   000000 000004 0                  ADSC9   STARS                    cn=0,n=4
         1 000013   000010 000040                    ADSC9   8,,PR0                   cn=0,n=32

       35     1051    1         STRDCB$->F$DCB.ASN=%FILE#;

   1051  1 000014   001000 236007                    LDQ     512,DL
         1 000015   000032 552110                    STBQ    26,'10'O,PR0

       36     1052    1         STRDCB$->F$DCB.FUN=%CREATE#;

   1052  1 000016   000003 236003                    LDQ     3,DU
         1 000017   000032 552120                    STBQ    26,'20'O,PR0

       37     1053    1         STRDCB$->F$DCB.ACS=%DIRECT#;

   1053  1 000020   000002 236007                    LDQ     2,DL
         1 000021   000036 552104                    STBQ    30,'04'O,PR0

       38     1054        /*    STRDCB$->F$DCB.SHARE=%ALL#;  its the default for *S */
       39     1055    1         STRDCB$->F$DCB.EXIST=%OLDFILE#;

   1055  1 000022   000031 236100                    LDQ     25,,PR0
PL6.E3A0      #001=FRS$OPSTRS File=FRS$ACCTNG.:E05TSI                            TUE 07/29/97 17:24 Page:8
         1 000023   000001 376000 2                  ANQ     1
         1 000024   002000 276007                    ORQ     1024,DL
         1 000025   000031 756100                    STQ     25,,PR0

   1055  1 000026                       REOPN        null
       40     1056    1   REOPN:;
       41     1057    1         B$JIT.ERR='0'B;

   1057  1 000026   000000 470400 xsym               LDP0    B$JIT$
         1 000027   000012 450100                    STZ     10,,PR0

       42     1058    1         CALL FMM$DFLOPNP;

   1058  1 000030   000002 631400 xsym               EPPR1   B_VECTNIL+2
         1 000031   000000 701000 xent               TSX1    FMM$DFLOPNP
         1 000032   000000 011000                    NOP     0

       43     1059    1         IF B$JIT.ERR.CODE~=0 THEN CALL FRS$STRABT ALTRET (REOPN);

   1059  1 000033   000000 470400 xsym               LDP0    B$JIT$
         1 000034   000012 236100                    LDQ     10,,PR0
         1 000035   377770 316007                    CANQ    131064,DL
         1 000036   000042 600000 1                  TZE     OCOUT

   1059  1 000037   000002 631400 xsym               EPPR1   B_VECTNIL+2
         1 000040   000000 701000 xent               TSX1    FRS$STRABT
         1 000041   000026 702000 1                  TSX2    REOPN

   1059  1 000042                       OCOUT        null
       44     1060    1   OCOUT:;
       45     1061    1         B$JIT.ERR=SVERR;

   1061  1 000042   200004 236100                    LDQ     SVERR,,AUTO
         1 000043   000000 470400 xsym               LDP0    B$JIT$
         1 000044   000012 756100                    STQ     10,,PR0

       46     1062    1         B$JIT.DCB$=TDCB$;
PL6.E3A0      #001=FRS$OPSTRS File=FRS$ACCTNG.:E05TSI                            TUE 07/29/97 17:24 Page:9

   1062  1 000045   200003 236100                    LDQ     TDCB$,,AUTO
         1 000046   000232 756100                    STQ     154,,PR0

       47     1063    1         RETURN;

   1063  1 000047   000000 702200 xent               TSX2  ! X66_ARET

       48     1064        /**/
       49     1065    1   FRS$CLSTRS: ENTRY;

   1065  1 000050   000000 700200 xent  FRS$CLSTRS   TSX0  ! X66_AUTO_0
         1 000051   000010 000000                    ZERO    8,0

       50     1066        /**/
       51     1067    1         CALL SETUP;

   1067  1 000052   000055 701000 1                  TSX1    SETUP
         1 000053   000000 011000                    NOP     0

       52     1068    1         GOTO OCOUT;

   1068  1 000054   000042 710000 1                  TRA     OCOUT

       53     1069        /**/
       54     1070        /**/
       55     1071    1   SETUP: PROC;

   1071  1 000055   200006 741300       SETUP        STX1  ! SVERR+2,,AUTO

       56     1072        /**/
       57     1073    2         SVERR=B$JIT.ERR;

   1073  1 000056   000000 470400 xsym               LDP0    B$JIT$
         1 000057   000012 236100                    LDQ     10,,PR0
         1 000060   200004 756100                    STQ     SVERR,,AUTO

PL6.E3A0      #001=FRS$OPSTRS File=FRS$ACCTNG.:E05TSI                            TUE 07/29/97 17:24 Page:10
       58     1074    2         TDCB$=B$JIT.DCB$;

   1074  1 000061   000232 236100                    LDQ     154,,PR0
         1 000062   200003 756100                    STQ     TDCB$,,AUTO

       59     1075    2         B$JIT.DCB$=STRDCB$;

   1075  1 000063   000000 236000 xsym               LDQ     B$M$STAR$
         1 000064   000232 756100                    STQ     154,,PR0

       60     1076    2         CALL FMP$CLSJ;

   1076  1 000065   000002 631400 xsym               EPPR1   B_VECTNIL+2
         1 000066   000000 701000 xent               TSX1    FMP$CLSJ
         1 000067   000000 011000                    NOP     0

       61     1077    2         RETURN;

   1077  1 000070   200006 221300                    LDX1  ! SVERR+2,,AUTO
         1 000071   000001 702211                    TSX2  ! 1,X1

STARS
 Sect OctLoc
   0     000   002052 123040                                                    .*S

(unnamed)
 Sect OctLoc
   2     000   000000 006000   777777 774777                                    ........
       62     1078    2   END;
       63     1079        /**/
       64     1080    1   END;
       65     1081        /**/
       66     1082        /**/
       67     1083        %EOD;

PL6.E3A0      #001=FRS$OPSTRS File=FRS$ACCTNG.:E05TSI                            TUE 07/29/97 17:24 Page:11
--  Include file information  --

   CP_6_SUBS.:E05TOU  is referenced.
   F$DCB.:E05TOU  cannot be made into a system file and is referenced.
   B$JIT_C.:E05TOU  is referenced.
   F$JIT_C.:E05TOU  cannot be made into a system file and is referenced.
      No diagnostics issued in procedure FRS$OPSTRS.
PL6.E3A0      #001=FRS$OPSTRS File=FRS$ACCTNG.:E05TSI                            TUE 07/29/97 17:24 Page:12

 **** Variables and constants ****

  ****  Section 000 RoData FRS$OPSTRS

  ****  Scalars and arrays  ****
OctLoc.c.b A Datatyp(siz) R M Lvl/name                 OctLoc.c.b A Datatyp(siz) R M Lvl/name

     0-0-0/w STRC        r     1 STARS

  ****  Auto variables  ****

  ****  Scalars and arrays  ****
OctLoc.c.b A Datatyp(siz) R M Lvl/name                 OctLoc.c.b A Datatyp(siz) R M Lvl/name

     4-0-0/w BIT         r     1 SVERR                      3-0-0/w PTR         r     1 TDCB$

  ****  SYMREF variables  ****

  ****  Scalars and arrays  ****
OctLoc.c.b A Datatyp(siz) R M Lvl/name                 OctLoc.c.b A Datatyp(siz) R M Lvl/name

     0-0-0/w PTR         r     1 B$JIT$                     0-0-0/w PTR         r     1 B$M$STAR$
     0-0-0/w PTR         r     1 STRDCB$

  ****  BASED and DCB variables  ****

  ****  Scalars and arrays  ****
OctLoc.c.b A Datatyp(siz) R M Lvl/name                 OctLoc.c.b A Datatyp(siz) R M Lvl/name

     0-0-0/d STRC(8856)  r     1 B$JIT                      0-0-0/d ASTR(3528)  r     1 F$DCB


   Procedure FRS$OPSTRS requires 58 words for executable code.
   Procedure FRS$OPSTRS requires 8 words of local(AUTO) storage.
PL6.E3A0      #001=FRS$OPSTRS File=FRS$ACCTNG.:E05TSI                            TUE 07/29/97 17:24 Page:13
          *** CROSS REFERENCE LISTING ***
**     DENOTES     IDENTIFIER DEFINITION
<<                 IDENTIFIER'S VALUE SET
>>                 IDENTIFIER'S VALUE USED
<>                 IDENTIFIER SET AND/OR USED
--                 IDENTIFIER REFERENCED
PL6.E3A0      #001=FRS$OPSTRS File=FRS$ACCTNG.:E05TSI                            TUE 07/29/97 17:24 Page:14
          MINI XREF LISTING

B$JIT.DCB$
       430**DCL      1062<<ASSIGN   1074>>ASSIGN   1075<<ASSIGN
B$JIT.ERR
       340**DCL      1057<<ASSIGN   1061<<ASSIGN   1073>>ASSIGN
B$JIT.ERR.CODE
       341**DCL      1059>>IF
B$JIT.ERR.MID
       341**DCL       341--REDEF
B$JIT$
      1041**DCL       335--IMP-PTR  1057>>ASSIGN   1059>>IF       1061>>ASSIGN   1062>>ASSIGN   1073>>ASSIGN
      1074>>ASSIGN   1075>>ASSIGN
B$M$STAR$
      1035**DCL      1036--REDEF
F$DCB.ACS
       461**DCL      1053<<ASSIGN
F$DCB.ACTPOS
       469**DCL       469--REDEF
F$DCB.ARS
       444**DCL       444--REDEF
F$DCB.ASN
       459**DCL      1051<<ASSIGN
F$DCB.ATTR
       462**DCL       463--REDEF
F$DCB.BORROW
       477**DCL       477--REDEF     477--REDEF     477--REDEF
F$DCB.DCBNAME.L
       491**DCL       491--IMP-SIZ
F$DCB.EOMCHAR
       448**DCL       448--REDEF
F$DCB.EXIST
       457**DCL      1055<<ASSIGN
F$DCB.FLDID
PL6.E3A0      #001=FRS$OPSTRS File=FRS$ACCTNG.:E05TSI                            TUE 07/29/97 17:24 Page:15
       472**DCL       472--REDEF
F$DCB.FORM$
       466**DCL       466--REDEF
F$DCB.FSECT
       482**DCL       482--REDEF
F$DCB.FSN
       459**DCL       459--REDEF     459--REDEF     460--REDEF
F$DCB.FUN
       458**DCL      1052<<ASSIGN
F$DCB.HEADER$
       465**DCL       465--REDEF
F$DCB.IXTNSIZE
       463**DCL       463--REDEF
F$DCB.LASTSTA$
       453**DCL       453--REDEF
F$DCB.LVL
       478**DCL       478--REDEF
F$DCB.NAME
       453**DCL      1050<<ASSIGN
F$DCB.NAME.C
       453**DCL       453--REDEF
F$DCB.NOEOF
       474**DCL       474--REDEF
F$DCB.NRECS
       464**DCL       464--REDEF
F$DCB.NRECX
       483**DCL       483--REDEF
F$DCB.OHDR
       475**DCL       475--REDEF
F$DCB.ORG
       458**DCL       458--REDEF
F$DCB.PRECNO
       481**DCL       481--REDEF
F$DCB.RCSZ
       486**DCL       486--REDEF
F$DCB.RES
PL6.E3A0      #001=FRS$OPSTRS File=FRS$ACCTNG.:E05TSI                            TUE 07/29/97 17:24 Page:16
       454**DCL       454--REDEF
F$DCB.SETX
       466**DCL       466--REDEF
F$DCB.TAB$
       465**DCL       466--REDEF
F$DCB.TDA
       480**DCL       480--REDEF
F$DCB.WSN
       455**DCL       455--REDEF
FMM$DFLOPNP
      1044**DCL-ENT  1058--CALL
FMM$SCRUB
      1043**DCL-ENT  1049--CALL
FMP$CLSJ
      1042**DCL-ENT  1076--CALL
FRS$STRABT
      1045**DCL-ENT  1059--CALL
OCOUT
      1059**LABEL    1068--GOTO
REOPN
      1055**LABEL    1059--CALLALT
SETUP
      1071**PROC     1048--CALL     1067--CALL
STARS
      1038**DCL      1050>>ASSIGN
STRDCB$
      1036**DCL      1049<>CALL     1050>>ASSIGN   1051>>ASSIGN   1052>>ASSIGN   1053>>ASSIGN   1055>>ASSIGN
      1075>>ASSIGN
SVERR
      1037**DCL      1061>>ASSIGN   1073<<ASSIGN
TDCB$
      1034**DCL      1062>>ASSIGN   1074<<ASSIGN

PL6.E3A0      #002=FRS$SUSTRT File=FRS$ACCTNG.:E05TSI                            TUE 07/29/97 17:24 Page:17
       68        1        /*T***********************************************************/
       69        2        /*T*                                                         */
       70        3        /*T* Copyright (c) Bull HN Information Systems Inc., 1997    */
       71        4        /*T*                                                         */
       72        5        /*T***********************************************************/
       73        6        /**/
       74        7        /**/
       75        8        FRS$SUSTRT: PROC (SUARRAY);
       76        9        /**/
       77       10        /**/
       78       11        %INCLUDE F_CP6;
       79     1036        %INCLUDE B$JIT_C;
       80     1350        %B$JIT0;
       81     1439        %U$JIT1X;
       82     1442        %M$JIT2X;
       83     1445        %F$JIT3X;
       84     1448        %S$JIT4;
       85     1454        %A$JIT6X;
       86     1457        %INCLUDE AZ_MACRO_C;
       87     4044        %INCLUDE FR_DATA_R;
       88     4076        %INCLUDE CP_6_SUBS;
       89     4616        %INCLUDE XUD_UTS_M;
       90     4698        %XUD$UTS_ENTRIES;
       91     4730        /**/
       92     4731        %SUDO$TIME (NAME=SUREC,STCLASS="");
       93     4777        %SUDO$TIME (NAME=CSUDO,STCLASS=CONSTANT);
       94     4823        %SUDO_KEY (NAME=SUDOKEY,STCLASS=CONSTANT);
       95     4837        /**/
       96     4838        /**/
       97     4839    1   DCL SUARRAY (0:7) UBIN(9) CALIGNED;
       98     4840    1   DCL I SBIN WORD;
       99     4841    1   DCL LSTCPU SBIN WORD;
      100     4842    1   DCL LSTUTS UBIN WORD;
      101     4843    1   DCL ADD UBIN WORD;
      102     4844    1   DCL SVERR BIT(36) ALIGNED;
      103     4845    1   DCL TEMP SBIN;
      104     4846    1   DCL B$JIT$ PTR SYMREF;
PL6.E3A0      #002=FRS$SUSTRT File=FRS$ACCTNG.:E05TSI                            TUE 07/29/97 17:24 Page:18
      105     4847    1   DCL SSS$SYSTIME ENTRY(1);
      106     4848    1   DCL M$MREAD ENTRY(1) ALTRET;
      107     4849    1   DCL M$MWRITE ENTRY(1) ALTRET;
      108     4850    1   DCL FRS$STRABT ENTRY ALTRET;
      109     4851        /**/
      110     4852        /**/
      111     4853    1   DCL 1 VEC BASED ALIGNED,2 * PTR,2 P$ PTR;
      112     4854        %FPT_READ (FPTN=CREAD,STCLASS=CONSTANT,KEYS=YES,KEY=SUDOKEY,BUF=CSUDO);
      113     4893        %FPT_READ (FPTN=AREAD,STCLASS="");
      114     4932        %FPT_WRITE (FPTN=CWRITE,STCLASS=CONSTANT,KEY=SUDOKEY,ONEWKEY=YES,BUF=CSUDO);
      115     4963        %FPT_WRITE (FPTN=AWRITE,STCLASS="");
      116     4994        /**/
      117     4995        /**/
      118     4996    1         SVERR=B$JIT.ERR;
      119     4997    1         IF SUARRAY~='0'B THEN CALL GETIMES;
      120     4998    1         SUREC='0'B;
      121     4999    2         DO I=0 TO FR_SUMX;
      122     5000    2           SUREC.NAM(I)=FR_SUNM(I);
      123     5001    3           IF SUARRAY(I)~=0 THEN DO;
      124     5002    3             SUREC.ACTIVE(I)=SUARRAY(I);
      125     5003    3             SUREC.JMAX(I)=SUARRAY(I);
      126     5004    3             SUREC.CPU.LAST(I)=LSTCPU;
      127     5005    3             SUREC.CLOCK.LAST(I)=LSTUTS;
      128     5006    3           END;
      129     5007    2         END;
      130     5008    1   WRTOUT:;
      131     5009    1         AWRITE=CWRITE;
      132     5010    1         AWRITE.BUF_.BUF$=ADDR(SUREC);
      133     5011    1         AWRITE.V.DCB#=%M$STAR#;
      134     5012    1         ADDR(AWRITE.V_)->VEC.P$=ADDR(AWRITE.V);
      135     5013    1   WRTIT:;
      136     5014    1         CALL M$MWRITE (AWRITE) ALTRET (BADIO);
      137     5015    1         B$JIT.ERR=SVERR;
      138     5016    1         RETURN;
      139     5017        /**/
      140     5018    1   FRS$SUADD: ENTRY (SUARRAY);
      141     5019        /**/
PL6.E3A0      #002=FRS$SUSTRT File=FRS$ACCTNG.:E05TSI                            TUE 07/29/97 17:24 Page:19
      142     5020    1         ADD=1;
      143     5021    1   ADDSUB:;
      144     5022    1         SVERR=B$JIT.ERR;
      145     5023    1         AREAD=CREAD;
      146     5024    1         AREAD.BUF_.BUF$=ADDR(SUREC);
      147     5025    1         AREAD.V.DCB#=%M$STAR#;
      148     5026    1         ADDR(AREAD.V_)->VEC.P$=ADDR(AREAD.V);
      149     5027    1         CALL M$MREAD (AREAD) ALTRET (BADIO);
      150     5028    1         CALL GETIMES;
      151     5029    2         DO I=0 TO FR_SUMX;
      152     5030    3           IF SUARRAY(I)~=0 THEN DO;
      153     5031    3             SUREC.CPU.INTEGRAL(I)=SUREC.CPU.INTEGRAL(I)+(SUREC.ACTIVE(I)*(LSTCPU-SUREC
              5031                      .CPU.LAST(I)));
      154     5032    3             SUREC.CPU.LAST(I)=LSTCPU;
      155     5033    3             CALL XUD$UTS_DIFF(TEMP,LSTUTS,SUREC.CLOCK.LAST(I));
      156     5034    3             SUREC.CLOCK.INTEGRAL(I) = SUREC.CLOCK.INTEGRAL(I) + (SUREC.ACTIVE(I)*TEMP)
              5034                      ;
      157     5035    3             SUREC.CLOCK.LAST(I)=LSTUTS;
      158     5036    4             IF ADD~=0 THEN DO;
      159     5037    4               SUREC.ACTIVE(I)=SUREC.ACTIVE(I)+SUARRAY(I);
      160     5038    4               IF SUREC.ACTIVE(I)>SUREC.JMAX(I) THEN SUREC.JMAX(I)=SUREC.ACTIVE(I);
      161     5039    4             END;
      162     5040    3               ELSE SUREC.ACTIVE(I)=SUREC.ACTIVE(I)-SUARRAY(I);
      163     5041    3           END;
      164     5042    2         END;
      165     5043    1         GOTO WRTOUT;
      166     5044        /**/
      167     5045    1   FRS$SUSUB: ENTRY (SUARRAY);
      168     5046        /**/
      169     5047    1         ADD=0;
      170     5048    1         GOTO ADDSUB;
      171     5049        /**/
      172     5050    1   BADIO:;
      173     5051    1         CALL FRS$STRABT ALTRET (WRTIT);
      174     5052        /**/
      175     5053        /**/
      176     5054    1   GETIMES: PROC;
PL6.E3A0      #002=FRS$SUSTRT File=FRS$ACCTNG.:E05TSI                            TUE 07/29/97 17:24 Page:20
      177     5055        /**/
      178     5056    2         CALL SSS$SYSTIME (LSTUTS);
      179     5057    2         LSTCPU=B$JIT.TPEXT+B$JIT.TPSVT+B$JIT.TUEXT+B$JIT.TUSVT;
      180     5058    2         RETURN;
      181     5059    2   END;
      182     5060        /**/
      183     5061    1   END;
      184     5062        /**/
      185     5063        /**/
      186     5064        %EOD;

PL6.E3A0      #002=FRS$SUSTRT File=FRS$ACCTNG.:E05TSI                            TUE 07/29/97 17:24 Page:21
--  Include file information  --

   XUD_UTS_M.:E05TOU  is referenced.
   CP_6_SUBS.:E05TOU  is referenced.
   FR_DATA_R.:E05TOU  cannot be made into a system file and is referenced.
   G_JIT_M.:E05TOU  is referenced.
   AZ_MACRO_C.:E05TOU  is referenced.
   B$JIT_C.:E05TOU  is referenced.
   F_CP6.:E05TOU  is referenced.
      No diagnostics issued in procedure FRS$SUSTRT.

   Procedure FRS$SUSTRT requires 195 words for executable code.
   Procedure FRS$SUSTRT requires 106 words of local(AUTO) storage.

PL6.E3A0      #002=FRS$SUSTRT File=FRS$ACCTNG.:E05TSI                            TUE 07/29/97 17:24 Page:22

 Object Unit name= FRS$SUSTRT                                 File name= FRS$ACCTNG.:E05TOU
 UTS= JUL 29 '97 17:24:19.04 TUE                              Compiler= PL-6/E31         Sev=      00
 SharedLib= :SHARED_SYSTEM                                    Alt SharedLib=


    ****  Control sections  ****

 Sect   Type Bound  Init  Size OctSiz  Section name(segment info)
    0  RoData even  UTS     92    134  FRS$SUSTRT
    1   Proc  even  none   195    303  FRS$SUSTRT

    ****  Entry defs  ****

                              Check   Calling
                             calling  sequence
  Sect OctLoc Primary Altret sequence   type   Parms  Name
     1      0   yes            yes      Std        1  FRS$SUSTRT
     1    107                  yes      Std        1  FRS$SUADD
     1    253                  yes      Std        1  FRS$SUSUB

  ****  Entry refs  ****

         Check        Calling
        calling       sequence
Altret sequence SRef   type   Args  Name
 yes     yes           Std       1 M$MWRITE
 yes     yes           Std       1 M$MREAD
 yes     yes           Std       3 XUD$UTS_DIFF
 yes     yes           Std       0 FRS$STRABT
         yes           Std       1 SSS$SYSTIME
                       nStd      0 X66_AUTO_1
                       Std       0 B_CONSPOOL_D
                       nStd      0 X66_ARET
PL6.E3A0      #002=FRS$SUSTRT File=FRS$ACCTNG.:E05TSI                            TUE 07/29/97 17:24 Page:23

  ****  Data refs  ****

  Flags:  r = read only, s = secondary
Flgs Name                             Flgs Name                             Flgs Name
     FR_SUMX                               FR_SUNM                               B$JIT$
     B_VECTNIL

  ****  Segment refs  ****

  Flags:  r = read only, s = secondary
Flgs Name                             Flgs Name                             Flgs Name
     ISSID                                 NULLSID
PL6.E3A0      #002=FRS$SUSTRT File=FRS$ACCTNG.:E05TSI                            TUE 07/29/97 17:24 Page:24


       68        1        /*T***********************************************************/
       69        2        /*T*                                                         */
       70        3        /*T* Copyright (c) Bull HN Information Systems Inc., 1997    */
       71        4        /*T*                                                         */
       72        5        /*T***********************************************************/
       73        6        /**/
       74        7        /**/
       75        8        FRS$SUSTRT: PROC (SUARRAY);

      8  1 000000   000000 700200 xent  FRS$SUSTRT   TSX0  ! X66_AUTO_1
         1 000001   000152 000001                    ZERO    106,1

       76        9        /**/
       77       10        /**/
       78       11        %INCLUDE F_CP6;
       79     1036        %INCLUDE B$JIT_C;
       80     1350        %B$JIT0;
       81     1439        %U$JIT1X;
       82     1442        %M$JIT2X;
       83     1445        %F$JIT3X;
       84     1448        %S$JIT4;
       85     1454        %A$JIT6X;
       86     1457        %INCLUDE AZ_MACRO_C;
       87     4044        %INCLUDE FR_DATA_R;
       88     4076        %INCLUDE CP_6_SUBS;
       89     4616        %INCLUDE XUD_UTS_M;
       90     4698        %XUD$UTS_ENTRIES;
       91     4730        /**/
       92     4731        %SUDO$TIME (NAME=SUREC,STCLASS="");
       93     4777        %SUDO$TIME (NAME=CSUDO,STCLASS=CONSTANT);
       94     4823        %SUDO_KEY (NAME=SUDOKEY,STCLASS=CONSTANT);
       95     4837        /**/
       96     4838        /**/
       97     4839    1   DCL SUARRAY (0:7) UBIN(9) CALIGNED;
       98     4840    1   DCL I SBIN WORD;
       99     4841    1   DCL LSTCPU SBIN WORD;
PL6.E3A0      #002=FRS$SUSTRT File=FRS$ACCTNG.:E05TSI                            TUE 07/29/97 17:24 Page:25
      100     4842    1   DCL LSTUTS UBIN WORD;
      101     4843    1   DCL ADD UBIN WORD;
      102     4844    1   DCL SVERR BIT(36) ALIGNED;
      103     4845    1   DCL TEMP SBIN;
      104     4846    1   DCL B$JIT$ PTR SYMREF;
      105     4847    1   DCL SSS$SYSTIME ENTRY(1);
      106     4848    1   DCL M$MREAD ENTRY(1) ALTRET;
      107     4849    1   DCL M$MWRITE ENTRY(1) ALTRET;
      108     4850    1   DCL FRS$STRABT ENTRY ALTRET;
      109     4851        /**/
      110     4852        /**/
      111     4853    1   DCL 1 VEC BASED ALIGNED,2 * PTR,2 P$ PTR;
      112     4854        %FPT_READ (FPTN=CREAD,STCLASS=CONSTANT,KEYS=YES,KEY=SUDOKEY,BUF=CSUDO);
      113     4893        %FPT_READ (FPTN=AREAD,STCLASS="");
      114     4932        %FPT_WRITE (FPTN=CWRITE,STCLASS=CONSTANT,KEY=SUDOKEY,ONEWKEY=YES,BUF=CSUDO);
      115     4963        %FPT_WRITE (FPTN=AWRITE,STCLASS="");
      116     4994        /**/
      117     4995        /**/
      118     4996    1         SVERR=B$JIT.ERR;

   4996  1 000002   000000 470400 xsym               LDP0    B$JIT$
         1 000003   000012 236100                    LDQ     10,,PR0
         1 000004   200110 756100                    STQ     SVERR,,AUTO

      119     4997    1         IF SUARRAY~='0'B THEN CALL GETIMES;

   4997  1 000005   200003 471500                    LDP1    @SUARRAY,,AUTO
         1 000006   000000 106500                    CMPC    fill='000'O
         1 000007   100000 000010                    ADSC9   0,,PR1                   cn=0,n=8
         1 000010   000002 000002 xsym               ADSC9   B_VECTNIL+2              cn=0,n=2
         1 000011   000014 600000 1                  TZE     s:4998

   4997  1 000012   000263 701000 1                  TSX1    GETIMES
         1 000013   000000 011000                    NOP     0

      120     4998    1         SUREC='0'B;

PL6.E3A0      #002=FRS$SUSTRT File=FRS$ACCTNG.:E05TSI                            TUE 07/29/97 17:24 Page:26
   4998  1 000014   000100 100400                    MLR     fill='000'O
         1 000015   000002 000001 xsym               ADSC9   B_VECTNIL+2              cn=0,n=1
         1 000016   200004 000400                    ADSC9   SUREC,,AUTO              cn=0,n=256

      121     4999    2         DO I=0 TO FR_SUMX;

   4999  1 000017   200104 450100                    STZ     I,,AUTO
         1 000020   000061 710000 1                  TRA     s:5007+1

      122     5000    2           SUREC.NAM(I)=FR_SUNM(I);

   5000  1 000021   200104 235100                    LDA     I,,AUTO
         1 000022   000003 735000                    ALS     3
         1 000023   000000 620005                    EAX0    0,AL
         1 000024   000002 735000                    ALS     2
         1 000025   000000 636010                    EAQ     0,X0
         1 000026   000022 732000                    QRS     18
         1 000027   040105 100406                    MLR     fill='040'O
         1 000030   000000 000010 xsym               ADSC9   FR_SUNM,Q                cn=0,n=8
         1 000031   200004 000010                    ADSC9   SUREC,A,AUTO             cn=0,n=8

      123     5001    3           IF SUARRAY(I)~=0 THEN DO;

   5001  1 000032   200003 470500                    LDP0    @SUARRAY,,AUTO
         1 000033   200104 235100                    LDA     I,,AUTO
         1 000034   000100 101505                    MRL     fill='000'O
         1 000035   000000 000001                    ADSC9   0,A,PR0                  cn=0,n=1
         1 000036   200146 000004                    ADSC9   AWRITE+14,,AUTO          cn=0,n=4
         1 000037   200146 236100                    LDQ     AWRITE+14,,AUTO
         1 000040   000000 116003                    CMPQ    0,DU
         1 000041   000060 600000 1                  TZE     s:5007

      124     5002    3             SUREC.ACTIVE(I)=SUARRAY(I);

   5002  1 000042   000000 636010                    EAQ     0,X0
         1 000043   000020 732000                    QRS     16
         1 000044   000106 101505                    MRL     fill='000'O
PL6.E3A0      #002=FRS$SUSTRT File=FRS$ACCTNG.:E05TSI                            TUE 07/29/97 17:24 Page:27
         1 000045   000000 000001                    ADSC9   0,A,PR0                  cn=0,n=1
         1 000046   200006 000004                    ADSC9   SUREC+2,Q,AUTO           cn=0,n=4

      125     5003    3             SUREC.JMAX(I)=SUARRAY(I);

   5003  1 000047   000000 636010                    EAQ     0,X0
         1 000050   000020 732000                    QRS     16
         1 000051   000106 101505                    MRL     fill='000'O
         1 000052   000000 000001                    ADSC9   0,A,PR0                  cn=0,n=1
         1 000053   200007 000004                    ADSC9   SUREC+3,Q,AUTO           cn=0,n=4

      126     5004    3             SUREC.CPU.LAST(I)=LSTCPU;

   5004  1 000054   200105 236100                    LDQ     LSTCPU,,AUTO
         1 000055   200011 756110                    STQ     SUREC+5,X0,AUTO

      127     5005    3             SUREC.CLOCK.LAST(I)=LSTUTS;

   5005  1 000056   200106 235100                    LDA     LSTUTS,,AUTO
         1 000057   200013 755110                    STA     SUREC+7,X0,AUTO

      128     5006    3           END;

      129     5007    2         END;

   5007  1 000060   200104 054100                    AOS     I,,AUTO
         1 000061   200104 236100                    LDQ     I,,AUTO
         1 000062   000000 116000 xsym               CMPQ    FR_SUMX
         1 000063   000021 604400 1                  TMOZ    s:5000

   5004  1 000064                       WRTOUT       null
      130     5008    1   WRTOUT:;
      131     5009    1         AWRITE=CWRITE;

   5009  1 000064   000100 100400                    MLR     fill='000'O
         1 000065   000120 000060 0                  ADSC9   CWRITE                   cn=0,n=48
         1 000066   200130 000060                    ADSC9   AWRITE,,AUTO             cn=0,n=48
PL6.E3A0      #002=FRS$SUSTRT File=FRS$ACCTNG.:E05TSI                            TUE 07/29/97 17:24 Page:28

      132     5010    1         AWRITE.BUF_.BUF$=ADDR(SUREC);

   5010  1 000067   200004 630500                    EPPR0   SUREC,,AUTO
         1 000070   200135 450500                    STP0    AWRITE+5,,AUTO

      133     5011    1         AWRITE.V.DCB#=%M$STAR#;

   5011  1 000071   000001 220003                    LDX0    1,DU
         1 000072   200140 740100                    STX0    AWRITE+8,,AUTO

      134     5012    1         ADDR(AWRITE.V_)->VEC.P$=ADDR(AWRITE.V);

   5012  1 000073   200140 631500                    EPPR1   AWRITE+8,,AUTO
         1 000074   200131 451500                    STP1    AWRITE+1,,AUTO

   5012  1 000075                       WRTIT        null
      135     5013    1   WRTIT:;
      136     5014    1         CALL M$MWRITE (AWRITE) ALTRET (BADIO);

   5014  1 000075   200130 630500                    EPPR0   AWRITE,,AUTO
         1 000076   200146 450500                    STP0    AWRITE+14,,AUTO
         1 000077   200146 630500                    EPPR0   AWRITE+14,,AUTO
         1 000100   000017 631400 xsym               EPPR1   B_VECTNIL+15
         1 000101   000000 701000 xent               TSX1    M$MWRITE
         1 000102   000257 702000 1                  TSX2    BADIO

      137     5015    1         B$JIT.ERR=SVERR;

   5015  1 000103   200110 236100                    LDQ     SVERR,,AUTO
         1 000104   000000 470400 xsym               LDP0    B$JIT$
         1 000105   000012 756100                    STQ     10,,PR0

      138     5016    1         RETURN;

   5016  1 000106   000000 702200 xent               TSX2  ! X66_ARET

PL6.E3A0      #002=FRS$SUSTRT File=FRS$ACCTNG.:E05TSI                            TUE 07/29/97 17:24 Page:29
      139     5017        /**/
      140     5018    1   FRS$SUADD: ENTRY (SUARRAY);

   5018  1 000107   000000 700200 xent  FRS$SUADD    TSX0  ! X66_AUTO_1
         1 000110   000152 000001                    ZERO    106,1

      141     5019        /**/
      142     5020    1         ADD=1;

   5020  1 000111   000001 235007                    LDA     1,DL
         1 000112   200107 755100                    STA     ADD,,AUTO

   5020  1 000113                       ADDSUB       null
      143     5021    1   ADDSUB:;
      144     5022    1         SVERR=B$JIT.ERR;

   5022  1 000113   000000 470400 xsym               LDP0    B$JIT$
         1 000114   000012 236100                    LDQ     10,,PR0
         1 000115   200110 756100                    STQ     SVERR,,AUTO

      145     5023    1         AREAD=CREAD;

   5023  1 000116   000100 100400                    MLR     fill='000'O
         1 000117   000102 000070 0                  ADSC9   CREAD                    cn=0,n=56
         1 000120   200112 000070                    ADSC9   AREAD,,AUTO              cn=0,n=56

      146     5024    1         AREAD.BUF_.BUF$=ADDR(SUREC);

   5024  1 000121   200004 631500                    EPPR1   SUREC,,AUTO
         1 000122   200117 451500                    STP1    AREAD+5,,AUTO

      147     5025    1         AREAD.V.DCB#=%M$STAR#;

   5025  1 000123   000001 220003                    LDX0    1,DU
         1 000124   200122 740100                    STX0    AREAD+8,,AUTO

      148     5026    1         ADDR(AREAD.V_)->VEC.P$=ADDR(AREAD.V);
PL6.E3A0      #002=FRS$SUSTRT File=FRS$ACCTNG.:E05TSI                            TUE 07/29/97 17:24 Page:30

   5026  1 000125   200122 633500                    EPPR3   AREAD+8,,AUTO
         1 000126   200113 453500                    STP3    AREAD+1,,AUTO

      149     5027    1         CALL M$MREAD (AREAD) ALTRET (BADIO);

   5027  1 000127   200112 634500                    EPPR4   AREAD,,AUTO
         1 000130   200146 454500                    STP4    AWRITE+14,,AUTO
         1 000131   200146 630500                    EPPR0   AWRITE+14,,AUTO
         1 000132   000017 631400 xsym               EPPR1   B_VECTNIL+15
         1 000133   000000 701000 xent               TSX1    M$MREAD
         1 000134   000257 702000 1                  TSX2    BADIO

      150     5028    1         CALL GETIMES;

   5028  1 000135   000263 701000 1                  TSX1    GETIMES
         1 000136   000000 011000                    NOP     0

      151     5029    2         DO I=0 TO FR_SUMX;

   5029  1 000137   200104 450100                    STZ     I,,AUTO
         1 000140   000247 710000 1                  TRA     s:5042+1

      152     5030    3           IF SUARRAY(I)~=0 THEN DO;

   5030  1 000141   200003 470500                    LDP0    @SUARRAY,,AUTO
         1 000142   200104 235100                    LDA     I,,AUTO
         1 000143   000100 101505                    MRL     fill='000'O
         1 000144   000000 000001                    ADSC9   0,A,PR0                  cn=0,n=1
         1 000145   200146 000004                    ADSC9   AWRITE+14,,AUTO          cn=0,n=4
         1 000146   200146 236100                    LDQ     AWRITE+14,,AUTO
         1 000147   000000 116003                    CMPQ    0,DU
         1 000150   000246 600000 1                  TZE     s:5042

      153     5031    3            SUREC.CPU.INTEGRAL(I)=SUREC.CPU.INTEGRAL(I)+(SUREC.ACTIVE(I)*(LSTCPU-SUREC
              5031                      .CPU.LAST(I)));

PL6.E3A0      #002=FRS$SUSTRT File=FRS$ACCTNG.:E05TSI                            TUE 07/29/97 17:24 Page:31
   5031  1 000151   000003 735000                    ALS     3
         1 000152   200105 236100                    LDQ     LSTCPU,,AUTO
         1 000153   200011 136105                    SBLQ    SUREC+5,AL,AUTO
         1 000154   000000 620005                    EAX0    0,AL
         1 000155   200006 402105                    MPY     SUREC+2,AL,AUTO
         1 000156   200010 036110                    ADLQ    SUREC+4,X0,AUTO
         1 000157   200010 756110                    STQ     SUREC+4,X0,AUTO

      154     5032    3             SUREC.CPU.LAST(I)=LSTCPU;

   5032  1 000160   200105 235100                    LDA     LSTCPU,,AUTO
         1 000161   200011 755110                    STA     SUREC+5,X0,AUTO

      155     5033    3             CALL XUD$UTS_DIFF(TEMP,LSTUTS,SUREC.CLOCK.LAST(I));

   5033  1 000162   200013 631510                    EPPR1   SUREC+7,X0,AUTO
         1 000163   200150 451500                    STP1    AWRITE+16,,AUTO
         1 000164   200106 633500                    EPPR3   LSTUTS,,AUTO
         1 000165   200147 453500                    STP3    AWRITE+15,,AUTO
         1 000166   200111 634500                    EPPR4   TEMP,,AUTO
         1 000167   200146 454500                    STP4    AWRITE+14,,AUTO
         1 000170   200146 630500                    EPPR0   AWRITE+14,,AUTO
         1 000171   000021 631400 xsym               EPPR1   B_VECTNIL+17
         1 000172   000000 701000 xent               TSX1    XUD$UTS_DIFF
         1 000173   000000 011000                    NOP     0

      156     5034    3            SUREC.CLOCK.INTEGRAL(I) = SUREC.CLOCK.INTEGRAL(I) + (SUREC.ACTIVE(I)*TEMP)
              5034                      ;

   5034  1 000174   200104 235100                    LDA     I,,AUTO
         1 000175   000003 735000                    ALS     3
         1 000176   200006 236105                    LDQ     SUREC+2,AL,AUTO
         1 000177   000000 620005                    EAX0    0,AL
         1 000200   200111 402100                    MPY     TEMP,,AUTO
         1 000201   200104 235100                    LDA     I,,AUTO
         1 000202   000003 735000                    ALS     3
         1 000203   200012 036105                    ADLQ    SUREC+6,AL,AUTO
PL6.E3A0      #002=FRS$SUSTRT File=FRS$ACCTNG.:E05TSI                            TUE 07/29/97 17:24 Page:32
         1 000204   200012 756110                    STQ     SUREC+6,X0,AUTO

      157     5035    3             SUREC.CLOCK.LAST(I)=LSTUTS;

   5035  1 000205   200106 236100                    LDQ     LSTUTS,,AUTO
         1 000206   200013 756105                    STQ     SUREC+7,AL,AUTO

      158     5036    4             IF ADD~=0 THEN DO;

   5036  1 000207   200107 235100                    LDA     ADD,,AUTO
         1 000210   000233 600000 1                  TZE     s:5040

      159     5037    4               SUREC.ACTIVE(I)=SUREC.ACTIVE(I)+SUARRAY(I);

   5037  1 000211   200104 236100                    LDQ     I,,AUTO
         1 000212   000003 736000                    QLS     3
         1 000213   000000 620006                    EAX0    0,QL
         1 000214   200003 470500                    LDP0    @SUARRAY,,AUTO
         1 000215   200104 235100                    LDA     I,,AUTO
         1 000216   000100 101505                    MRL     fill='000'O
         1 000217   000000 000001                    ADSC9   0,A,PR0                  cn=0,n=1
         1 000220   200146 000004                    ADSC9   AWRITE+14,,AUTO          cn=0,n=4
         1 000221   000000 621006                    EAX1    0,QL
         1 000222   200146 236100                    LDQ     AWRITE+14,,AUTO
         1 000223   200006 036110                    ADLQ    SUREC+2,X0,AUTO
         1 000224   200006 756111                    STQ     SUREC+2,X1,AUTO

      160     5038    4               IF SUREC.ACTIVE(I)>SUREC.JMAX(I) THEN SUREC.JMAX(I)=SUREC.ACTIVE(I);

   5038  1 000225   200007 236110                    LDQ     SUREC+3,X0,AUTO
         1 000226   200006 116110                    CMPQ    SUREC+2,X0,AUTO
         1 000227   000246 603000 1                  TRC     s:5042

   5038  1 000230   200006 235110                    LDA     SUREC+2,X0,AUTO
         1 000231   200007 755110                    STA     SUREC+3,X0,AUTO

      161     5039    4             END;
PL6.E3A0      #002=FRS$SUSTRT File=FRS$ACCTNG.:E05TSI                            TUE 07/29/97 17:24 Page:33

   5039  1 000232   000246 710000 1                  TRA     s:5042

      162     5040    3               ELSE SUREC.ACTIVE(I)=SUREC.ACTIVE(I)-SUARRAY(I);

   5040  1 000233   200104 236100                    LDQ     I,,AUTO
         1 000234   000003 736000                    QLS     3
         1 000235   200003 470500                    LDP0    @SUARRAY,,AUTO
         1 000236   200104 235100                    LDA     I,,AUTO
         1 000237   000100 101505                    MRL     fill='000'O
         1 000240   000000 000001                    ADSC9   0,A,PR0                  cn=0,n=1
         1 000241   200146 000004                    ADSC9   AWRITE+14,,AUTO          cn=0,n=4
         1 000242   000000 620006                    EAX0    0,QL
         1 000243   200006 236106                    LDQ     SUREC+2,QL,AUTO
         1 000244   200146 136100                    SBLQ    AWRITE+14,,AUTO
         1 000245   200006 756110                    STQ     SUREC+2,X0,AUTO

      163     5041    3           END;

      164     5042    2         END;

   5042  1 000246   200104 054100                    AOS     I,,AUTO
         1 000247   200104 236100                    LDQ     I,,AUTO
         1 000250   000000 116000 xsym               CMPQ    FR_SUMX
         1 000251   000141 604400 1                  TMOZ    s:5030

      165     5043    1         GOTO WRTOUT;

   5043  1 000252   000064 710000 1                  TRA     WRTOUT

      166     5044        /**/
      167     5045    1   FRS$SUSUB: ENTRY (SUARRAY);

   5045  1 000253   000000 700200 xent  FRS$SUSUB    TSX0  ! X66_AUTO_1
         1 000254   000152 000001                    ZERO    106,1

      168     5046        /**/
PL6.E3A0      #002=FRS$SUSTRT File=FRS$ACCTNG.:E05TSI                            TUE 07/29/97 17:24 Page:34
      169     5047    1         ADD=0;

   5047  1 000255   200107 450100                    STZ     ADD,,AUTO

      170     5048    1         GOTO ADDSUB;

   5048  1 000256   000113 710000 1                  TRA     ADDSUB

   5047  1 000257                       BADIO        null
      171     5049        /**/
      172     5050    1   BADIO:;
      173     5051    1         CALL FRS$STRABT ALTRET (WRTIT);

   5051  1 000257   000002 631400 xsym               EPPR1   B_VECTNIL+2
         1 000260   000000 701000 xent               TSX1    FRS$STRABT
         1 000261   000075 702000 1                  TSX2    WRTIT
         1 000262   000302 710000 1                  TRA     s:5061

      174     5052        /**/
      175     5053        /**/
      176     5054    1   GETIMES: PROC;

   5054  1 000263   200144 741300       GETIMES      STX1  ! AWRITE+12,,AUTO

      177     5055        /**/
      178     5056    2         CALL SSS$SYSTIME (LSTUTS);

   5056  1 000264   200106 630500                    EPPR0   LSTUTS,,AUTO
         1 000265   200146 450500                    STP0    AWRITE+14,,AUTO
         1 000266   200146 630500                    EPPR0   AWRITE+14,,AUTO
         1 000267   000017 631400 xsym               EPPR1   B_VECTNIL+15
         1 000270   000000 701000 xent               TSX1    SSS$SYSTIME
         1 000271   000000 011000                    NOP     0

      179     5057    2         LSTCPU=B$JIT.TPEXT+B$JIT.TPSVT+B$JIT.TUEXT+B$JIT.TUSVT;

   5057  1 000272   000000 470400 xsym               LDP0    B$JIT$
PL6.E3A0      #002=FRS$SUSTRT File=FRS$ACCTNG.:E05TSI                            TUE 07/29/97 17:24 Page:35
         1 000273   000270 236100                    LDQ     184,,PR0
         1 000274   000271 036100                    ADLQ    185,,PR0
         1 000275   000273 036100                    ADLQ    187,,PR0
         1 000276   000274 036100                    ADLQ    188,,PR0
         1 000277   200105 756100                    STQ     LSTCPU,,AUTO

      180     5058    2         RETURN;

   5058  1 000300   200144 221300                    LDX1  ! AWRITE+12,,AUTO
         1 000301   000001 702211                    TSX2  ! 1,X1

      181     5059    2   END;
      182     5060        /**/
      183     5061    1   END;

   5061  1 000302   000000 702200 xent               TSX2  ! X66_ARET

CSUDO
 Sect OctLoc
   0     000   ****** ******   ****** ******   ****** ******   ****** ******    ................

SUDOKEY
 Sect OctLoc
   0     100   003162 777777                                                    .r..

CREAD
 Sect OctLoc
   0     102   000005 777640   000112 006000   000000 777640   000100 006000    .....J.......@..
   0     106   000077 777640   000000 006000   000000 177640   000000 006014    .?..............
   0     112   000000 600000   000000 000000   000000 000000   000000 000000    ................
   0     116   000000 000000   000000 000000                                    ........

CWRITE
 Sect OctLoc
   0     120   000003 777640   000130 006000   000000 777640   000100 006000    .....X.......@..
   0     124   000077 777640   000000 006000   000000 177640   000000 006014    .?..............
   0     130   000000 400400   000000 000000   000000 000000   000000 000000    ................
PL6.E3A0      #002=FRS$SUSTRT File=FRS$ACCTNG.:E05TSI                            TUE 07/29/97 17:24 Page:36
      184     5062        /**/
      185     5063        /**/
      186     5064        %EOD;

PL6.E3A0      #002=FRS$SUSTRT File=FRS$ACCTNG.:E05TSI                            TUE 07/29/97 17:24 Page:37
--  Include file information  --

   XUD_UTS_M.:E05TOU  is referenced.
   CP_6_SUBS.:E05TOU  is referenced.
   FR_DATA_R.:E05TOU  cannot be made into a system file and is referenced.
   G_JIT_M.:E05TOU  is referenced.
   AZ_MACRO_C.:E05TOU  is referenced.
   B$JIT_C.:E05TOU  is referenced.
   F_CP6.:E05TOU  is referenced.
      No diagnostics issued in procedure FRS$SUSTRT.
PL6.E3A0      #002=FRS$SUSTRT File=FRS$ACCTNG.:E05TSI                            TUE 07/29/97 17:24 Page:38

 **** Variables and constants ****

  ****  Section 000 RoData FRS$SUSTRT

  ****  Scalars and arrays  ****
OctLoc.c.b A Datatyp(siz) R M Lvl/name                 OctLoc.c.b A Datatyp(siz) R M Lvl/name

   102-0-0/d STRC(504)   r     1 CREAD                      0-0-0/w STRC(288)   r     1 CSUDO(0:7)
   120-0-0/d STRC(432)   r     1 CWRITE                   100-0-0/c STRC        r     1 SUDOKEY

  ****  Auto variables  ****

  ****  Scalars and arrays  ****
OctLoc.c.b A Datatyp(siz) R M Lvl/name                 OctLoc.c.b A Datatyp(siz) R M Lvl/name

     3-0-0/w PTR         r     1 @SUARRAY                 107-0-0/w UBIN        r     1 ADD
   112-0-0/d STRC(504)   r     1 AREAD                    130-0-0/d STRC(432)   r     1 AWRITE
   104-0-0/w SBIN        r     1 I                        105-0-0/w SBIN        r     1 LSTCPU
   106-0-0/w UBIN        r     1 LSTUTS
    *0-0-0/c UBIN(9)     r     1 SUARRAY(0:7)
     4-0-0/w STRC(288)   r     1 SUREC(0:7)               110-0-0/w BIT         r     1 SVERR
   111-0-0/w SBIN        r     1 TEMP

  ****  SYMREF variables  ****

  ****  Scalars and arrays  ****
OctLoc.c.b A Datatyp(siz) R M Lvl/name                 OctLoc.c.b A Datatyp(siz) R M Lvl/name

     0-0-0/w PTR         r     1 B$JIT$                     0-0-0/w SBIN        r     1 FR_SUMX
     0-0-0/c CHAR(8)     r     1 FR_SUNM(0:0)

  ****  BASED and DCB variables  ****

  ****  Scalars and arrays  ****
OctLoc.c.b A Datatyp(siz) R M Lvl/name                 OctLoc.c.b A Datatyp(siz) R M Lvl/name

     0-0-0/d STRC(8568)  r     1 B$JIT                      0-0-0/w STRC(72)    r     1 VEC
PL6.E3A0      #002=FRS$SUSTRT File=FRS$ACCTNG.:E05TSI                            TUE 07/29/97 17:24 Page:39


   Procedure FRS$SUSTRT requires 195 words for executable code.
   Procedure FRS$SUSTRT requires 106 words of local(AUTO) storage.
PL6.E3A0      #002=FRS$SUSTRT File=FRS$ACCTNG.:E05TSI                            TUE 07/29/97 17:24 Page:40
          *** CROSS REFERENCE LISTING ***
**     DENOTES     IDENTIFIER DEFINITION
<<                 IDENTIFIER'S VALUE SET
>>                 IDENTIFIER'S VALUE USED
<>                 IDENTIFIER SET AND/OR USED
--                 IDENTIFIER REFERENCED
PL6.E3A0      #002=FRS$SUSTRT File=FRS$ACCTNG.:E05TSI                            TUE 07/29/97 17:24 Page:41
          MINI XREF LISTING

ADD
      4843**DCL      5020<<ASSIGN   5036>>IF       5047<<ASSIGN
ADDSUB
      5020**LABEL    5048--GOTO
AREAD
      4910**DCL      5023<<ASSIGN   5027<>CALL
AREAD.BUF_.BUF$
      4913**DCL      5024<<ASSIGN
AREAD.STATION_
      4913**DCL      4914--REDEF
AREAD.V
      4914**DCL      5026--ASSIGN
AREAD.V.DCB#
      4914**DCL      5025<<ASSIGN
AREAD.V.DVBYTE.REREAD#
      4925**DCL      4925--REDEF
AREAD.V.INDX#
      4923**DCL      4923--REDEF
AREAD.V_
      4910**DCL      5026--ASSIGN
AWRITE
      4980**DCL      5009<<ASSIGN   5014<>CALL
AWRITE.BUF_.BUF$
      4982**DCL      5010<<ASSIGN
AWRITE.STATION_
      4982**DCL      4982--REDEF
AWRITE.V
      4983**DCL      5012--ASSIGN
AWRITE.V.DCB#
      4983**DCL      5011<<ASSIGN
AWRITE.V.DVBYTE.VFC#
      4989**DCL      4989--REDEF
PL6.E3A0      #002=FRS$SUSTRT File=FRS$ACCTNG.:E05TSI                            TUE 07/29/97 17:24 Page:42
AWRITE.V_
      4980**DCL      5012--ASSIGN
B$JIT.ERR
      1356**DCL      4996>>ASSIGN   5015<<ASSIGN   5022>>ASSIGN
B$JIT.ERR.MID
      1357**DCL      1357--REDEF
B$JIT.PNR
      1451**DCL      1451--REDEF
B$JIT.TPEXT
      1450**DCL      5057>>ASSIGN
B$JIT.TPSVT
      1450**DCL      5057>>ASSIGN
B$JIT.TUEXT
      1450**DCL      5057>>ASSIGN
B$JIT.TUSVT
      1450**DCL      5057>>ASSIGN
B$JIT$
      4846**DCL      1351--IMP-PTR  4996>>ASSIGN   5015>>ASSIGN   5022>>ASSIGN   5057>>ASSIGN   5057>>ASSIGN
      5057>>ASSIGN   5057>>ASSIGN
BADIO
      5047**LABEL    5014--CALLALT  5027--CALLALT
CREAD
      4871**DCL      5023>>ASSIGN
CREAD.STATION_
      4874**DCL      4875--REDEF
CREAD.V
      4875**DCL      4871--DCLINIT
CREAD.V.DVBYTE.REREAD#
      4886**DCL      4886--REDEF
CREAD.V.INDX#
      4884**DCL      4884--REDEF
CSUDO
      4783**DCL      4873--DCLINIT  4874--DCLINIT  4950--DCLINIT  4951--DCLINIT
CWRITE
      4949**DCL      5009>>ASSIGN
CWRITE.STATION_
PL6.E3A0      #002=FRS$SUSTRT File=FRS$ACCTNG.:E05TSI                            TUE 07/29/97 17:24 Page:43
      4951**DCL      4951--REDEF
CWRITE.V
      4952**DCL      4949--DCLINIT
CWRITE.V.DVBYTE.VFC#
      4958**DCL      4958--REDEF
FRS$STRABT
      4850**DCL-ENT  5051--CALL
FR_SUMX
      4068**DCL      4999>>DOINDEX  5029>>DOINDEX
FR_SUNM
      4069**DCL      5000>>ASSIGN
GETIMES
      5054**PROC     4997--CALL     5028--CALL
I
      4840**DCL      4999<<DOINDEX  5000>>ASSIGN   5000>>ASSIGN   5001>>IF       5002>>ASSIGN   5002>>ASSIGN
      5003>>ASSIGN   5003>>ASSIGN   5004>>ASSIGN   5005>>ASSIGN   5029<<DOINDEX  5030>>IF       5031>>ASSIGN
      5031>>ASSIGN   5031>>ASSIGN   5031>>ASSIGN   5032>>ASSIGN   5033>>CALL     5034>>ASSIGN   5034>>ASSIGN
      5034>>ASSIGN   5035>>ASSIGN   5037>>ASSIGN   5037>>ASSIGN   5037>>ASSIGN   5038>>IF       5038>>IF
      5038>>ASSIGN   5038>>ASSIGN   5040>>ASSIGN   5040>>ASSIGN   5040>>ASSIGN
LSTCPU
      4841**DCL      5004>>ASSIGN   5031>>ASSIGN   5032>>ASSIGN   5057<<ASSIGN
LSTUTS
      4842**DCL      5005>>ASSIGN   5033<>CALL     5035>>ASSIGN   5056<>CALL
M$MREAD
      4848**DCL-ENT  5027--CALL
M$MWRITE
      4849**DCL-ENT  5014--CALL
SSS$SYSTIME
      4847**DCL-ENT  5056--CALL
SUARRAY
      4839**DCL         8--PROC     4997>>IF       5001>>IF       5002>>ASSIGN   5003>>ASSIGN   5018--ENTRY
      5030>>IF       5037>>ASSIGN   5040>>ASSIGN   5045--ENTRY
SUDOKEY
      4824**DCL      4871--DCLINIT  4872--DCLINIT  4949--DCLINIT
SUREC
      4737**DCL      4998<<ASSIGN   5010--ASSIGN   5024--ASSIGN
PL6.E3A0      #002=FRS$SUSTRT File=FRS$ACCTNG.:E05TSI                            TUE 07/29/97 17:24 Page:44
SUREC.ACTIVE
      4742**DCL      5002<<ASSIGN   5031>>ASSIGN   5034>>ASSIGN   5037<<ASSIGN   5037>>ASSIGN   5038>>IF
      5038>>ASSIGN   5040<<ASSIGN   5040>>ASSIGN
SUREC.CLOCK.INTEGRAL
      4765**DCL      5034<<ASSIGN   5034>>ASSIGN
SUREC.CLOCK.LAST
      4770**DCL      5005<<ASSIGN   5033<>CALL     5035<<ASSIGN
SUREC.CPU.INTEGRAL
      4753**DCL      5031<<ASSIGN   5031>>ASSIGN
SUREC.CPU.LAST
      4759**DCL      5004<<ASSIGN   5031>>ASSIGN   5032<<ASSIGN
SUREC.JMAX
      4747**DCL      5003<<ASSIGN   5038>>IF       5038<<ASSIGN
SUREC.NAM
      4738**DCL      5000<<ASSIGN
SVERR
      4844**DCL      4996<<ASSIGN   5015>>ASSIGN   5022<<ASSIGN
TEMP
      4845**DCL      5033<>CALL     5034>>ASSIGN
VEC.P$
      4853**DCL      5012<<ASSIGN   5026<<ASSIGN
WRTIT
      5012**LABEL    5051--CALLALT
WRTOUT
      5004**LABEL    5043--GOTO
XUD$UTS_DIFF
      4699**DCL-ENT  5033--CALL

PL6.E3A0      #003=FRS$RESADD File=FRS$ACCTNG.:E05TSI                            TUE 07/29/97 17:24 Page:45
      187        1        /*T***********************************************************/
      188        2        /*T*                                                         */
      189        3        /*T* Copyright (c) Bull HN Information Systems Inc., 1997    */
      190        4        /*T*                                                         */
      191        5        /*T***********************************************************/
      192        6        /**/
      193        7        /**/
      194        8        FRS$RESADD: PROC (RAT);
      195        9        /**/
      196       10        /**/
      197       11        %INCLUDE F_CP6;
      198     1036        %INCLUDE NK$LDCT;
      199     1138        %INCLUDE FR$RAT;
      200     1191        %FR$RAT (NAME=RAT,STCLASS="");
      201     1231        %INCLUDE B$JIT_C;
      202     1545        %B$JIT0;
      203     1634        %U$JIT1X;
      204     1637        %M$JIT2X;
      205     1640        %F$JIT3;
      206     1645        %S$JIT4;
      207     1651        %A$JIT6X;
      208     1654        %INCLUDE AZ_MACRO_C;
      209     4241        %INCLUDE CP_6_SUBS;
      210     4781        %INCLUDE NK_LDCT_R;
      211     4790        %INCLUDE NK_SUBS;
      212     4815        %INCLUDE FR_SUBS;
      213     4883        /**/
      214     4884        %NK$LDCT;
      215     4930        %RES$TIME (NAME=RREC,STCLASS="");
      216     4990        %RES$TIME (NAME=CREC,STCLASS=CONSTANT);
      217     5050        %RES$KEY (NAME=RKEY,STCLASS="");
      218     5081        %RES_KEY (NAME=CKEY,STCLASS=CONSTANT);
      219     5112        /**/
      220     5113        /**/
      221     5114    1   DCL TDCB$ PTR;
      222     5115    1   DCL SVERR BIT(36) ALIGNED;
      223     5116    1   DCL B$JIT$ PTR SYMREF;
PL6.E3A0      #003=FRS$RESADD File=FRS$ACCTNG.:E05TSI                            TUE 07/29/97 17:24 Page:46
      224     5117    1   DCL SSS$SYSTIME ENTRY(1);
      225     5118    1   DCL M$MREAD ENTRY(1) ALTRET;
      226     5119    1   DCL M$MWRITE ENTRY(1) ALTRET;
      227     5120    1   DCL FRS$STRABT ENTRY ALTRET;
      228     5121        /**/
      229     5122        /**/
      230     5123    1   DCL 1 VEC BASED ALIGNED,2 * PTR,2 P$ PTR;
      231     5124        %FPT_READ (FPTN=CREAD,STCLASS=CONSTANT,KEYS=YES,BUF=CREC);
      232     5163        %FPT_READ (FPTN=AREAD,STCLASS="");
      233     5202        %FPT_WRITE (FPTN=CWRITE,STCLASS=CONSTANT,ONEWKEY=YES,BUF=CREC);
      234     5233        %FPT_WRITE (FPTN=AWRITE,STCLASS="");
      235     5264        /**/
      236     5265        /**/
      237     5266    1         CALL SETUP;
      238     5267    1         RREC='0'B;
      239     5268    1         RREC.TYPE=RAT.RCOD;
      240     5269    1         RREC.START.CPU=B$JIT.TPEXT+B$JIT.TPSVT+B$JIT.TUEXT+B$JIT.TUSVT;
      241     5270    1         CALL SSS$SYSTIME (RREC.START.CLOCK);
      242     5271    1         RREC.WSN=B$JIT.WOO;
      243     5272    1         RREC.LGNM.TYPE=RAT.TYP;
      244     5273    1         RREC.LGNM.NUM=RAT.RES.NUMB;
      245     5274    1         RREC.ATTR.MTWO=RAT.RES.M2;
      246     5275    1   WRTOUT:;
      247     5276    1         RREC.ATTR.M1=RAT.M1;
      248     5277    1         RREC.PHYSNAME=NK$LDCT$(RAT.DCTX)->LDCT.DEVNM;
      249     5278    1         AWRITE=CWRITE;
      250     5279    1         AWRITE.BUF_.BUF$=ADDR(RREC);
      251     5280    1         AWRITE.KEY_=VECTOR(RKEY);
      252     5281    1         AWRITE.V.DCB#=%M$STAR#;
      253     5282    1         ADDR(AWRITE.V_)->VEC.P$=ADDR(AWRITE.V);
      254     5283    1   WRTIT:;
      255     5284    1         CALL M$MWRITE (AWRITE) ALTRET (BADIO);
      256     5285    1         B$JIT.ERR=SVERR;
      257     5286    1         B$JIT.DCB$=TDCB$;
      258     5287    1         RETURN;
      259     5288        /**/
      260     5289    1   FRS$RESSUB: ENTRY (RAT);
PL6.E3A0      #003=FRS$RESADD File=FRS$ACCTNG.:E05TSI                            TUE 07/29/97 17:24 Page:47
      261     5290        /**/
      262     5291    1         IF RAT.RES.ACTX=0 THEN RETURN;
      263     5292    1         RAT.RES.RFLG.NOSLD='1'B;
      264     5293    1         CALL SETUP;
      265     5294    1         AREAD=CREAD;
      266     5295    1         AREAD.BUF_.BUF$=ADDR(RREC);
      267     5296    1         AREAD.KEY_=VECTOR(RKEY);
      268     5297    1         AREAD.V.DCB#=%M$STAR#;
      269     5298    1         ADDR(AREAD.V_)->VEC.P$=ADDR(AREAD.V);
      270     5299    1         CALL M$MREAD (AREAD) ALTRET (BADIO);
      271     5300    1         RREC.REL.CPU=B$JIT.TPEXT+B$JIT.TPSVT+B$JIT.TUEXT+B$JIT.TUSVT;
      272     5301    1         CALL SSS$SYSTIME (RREC.REL.CLOCK);
      273     5302    1         GOTO WRTOUT;
      274     5303        /**/
      275     5304    1   BADIO:;
      276     5305    1         CALL FRS$STRABT ALTRET (WRTIT);
      277     5306        /**/
      278     5307        /**/
      279     5308    1   SETUP: PROC;
      280     5309        /**/
      281     5310    2         SVERR=B$JIT.ERR;
      282     5311    2         TDCB$=B$JIT.DCB$;
      283     5312    2         RKEY=CKEY;
      284     5313    2         RKEY.UNIQUE=RAT.RES.ACTX;
      285     5314    2         RETURN;
      286     5315    2   END;
      287     5316        /**/
      288     5317    1   END;
      289     5318        /**/
      290     5319        /**/
      291     5320        %EOD;

PL6.E3A0      #003=FRS$RESADD File=FRS$ACCTNG.:E05TSI                            TUE 07/29/97 17:24 Page:48
--  Include file information  --

   FR_SUBS.:E05TOU  is referenced.
   NK_SUBS.:E05TOU  is referenced.
   NK_LDCT_R.:E05TOU  cannot be made into a system file and is referenced.
   CP_6_SUBS.:E05TOU  is referenced.
   G_JIT_M.:E05TOU  is referenced.
   AZ_MACRO_C.:E05TOU  is referenced.
   B$JIT_C.:E05TOU  is referenced.
   FR$RAT.:E05TOU  is referenced.
   NK$LDCT.:E05TOU  is referenced.
   F_CP6.:E05TOU  is referenced.
      No diagnostics issued in procedure FRS$RESADD.

   Procedure FRS$RESADD requires 129 words for executable code.
   Procedure FRS$RESADD requires 48 words of local(AUTO) storage.

PL6.E3A0      #003=FRS$RESADD File=FRS$ACCTNG.:E05TSI                            TUE 07/29/97 17:24 Page:49

 Object Unit name= FRS$RESADD                                 File name= FRS$ACCTNG.:E05TOU
 UTS= JUL 29 '97 17:24:30.16 TUE                              Compiler= PL-6/E31         Sev=      00
 SharedLib= :SHARED_SYSTEM                                    Alt SharedLib=


    ****  Control sections  ****

 Sect   Type Bound  Init  Size OctSiz  Section name(segment info)
    0  RoData even  UTS     38     46  FRS$RESADD
    1   Proc  even  none   129    201  FRS$RESADD

    ****  Entry defs  ****

                              Check   Calling
                             calling  sequence
  Sect OctLoc Primary Altret sequence   type   Parms  Name
     1      0   yes            yes      Std        1  FRS$RESADD
     1    105                  yes      Std        1  FRS$RESSUB

  ****  Entry refs  ****

         Check        Calling
        calling       sequence
Altret sequence SRef   type   Args  Name
         yes           Std       1 SSS$SYSTIME
 yes     yes           Std       1 M$MWRITE
 yes     yes           Std       1 M$MREAD
 yes     yes           Std       0 FRS$STRABT
                       nStd      0 X66_AUTO_1
                       Std       0 B_CONSPOOL_D
                       nStd      0 X66_ARET
PL6.E3A0      #003=FRS$RESADD File=FRS$ACCTNG.:E05TSI                            TUE 07/29/97 17:24 Page:50

  ****  Data refs  ****

  Flags:  r = read only, s = secondary
Flgs Name                             Flgs Name                             Flgs Name
     N$DCT$$                               B$JIT$                                B_VECTNIL

  ****  Segment refs  ****

  Flags:  r = read only, s = secondary
Flgs Name                             Flgs Name                             Flgs Name
     ISSID                                 NULLSID
PL6.E3A0      #003=FRS$RESADD File=FRS$ACCTNG.:E05TSI                            TUE 07/29/97 17:24 Page:51


      187        1        /*T***********************************************************/
      188        2        /*T*                                                         */
      189        3        /*T* Copyright (c) Bull HN Information Systems Inc., 1997    */
      190        4        /*T*                                                         */
      191        5        /*T***********************************************************/
      192        6        /**/
      193        7        /**/
      194        8        FRS$RESADD: PROC (RAT);

      8  1 000000   000000 700200 xent  FRS$RESADD   TSX0  ! X66_AUTO_1
         1 000001   000060 000001                    ZERO    48,1

      195        9        /**/
      196       10        /**/
      197       11        %INCLUDE F_CP6;
      198     1036        %INCLUDE NK$LDCT;
      199     1138        %INCLUDE FR$RAT;
      200     1191        %FR$RAT (NAME=RAT,STCLASS="");
      201     1231        %INCLUDE B$JIT_C;
      202     1545        %B$JIT0;
      203     1634        %U$JIT1X;
      204     1637        %M$JIT2X;
      205     1640        %F$JIT3;
      206     1645        %S$JIT4;
      207     1651        %A$JIT6X;
      208     1654        %INCLUDE AZ_MACRO_C;
      209     4241        %INCLUDE CP_6_SUBS;
      210     4781        %INCLUDE NK_LDCT_R;
      211     4790        %INCLUDE NK_SUBS;
      212     4815        %INCLUDE FR_SUBS;
      213     4883        /**/
      214     4884        %NK$LDCT;
      215     4930        %RES$TIME (NAME=RREC,STCLASS="");
      216     4990        %RES$TIME (NAME=CREC,STCLASS=CONSTANT);
      217     5050        %RES$KEY (NAME=RKEY,STCLASS="");
      218     5081        %RES_KEY (NAME=CKEY,STCLASS=CONSTANT);
PL6.E3A0      #003=FRS$RESADD File=FRS$ACCTNG.:E05TSI                            TUE 07/29/97 17:24 Page:52
      219     5112        /**/
      220     5113        /**/
      221     5114    1   DCL TDCB$ PTR;
      222     5115    1   DCL SVERR BIT(36) ALIGNED;
      223     5116    1   DCL B$JIT$ PTR SYMREF;
      224     5117    1   DCL SSS$SYSTIME ENTRY(1);
      225     5118    1   DCL M$MREAD ENTRY(1) ALTRET;
      226     5119    1   DCL M$MWRITE ENTRY(1) ALTRET;
      227     5120    1   DCL FRS$STRABT ENTRY ALTRET;
      228     5121        /**/
      229     5122        /**/
      230     5123    1   DCL 1 VEC BASED ALIGNED,2 * PTR,2 P$ PTR;
      231     5124        %FPT_READ (FPTN=CREAD,STCLASS=CONSTANT,KEYS=YES,BUF=CREC);
      232     5163        %FPT_READ (FPTN=AREAD,STCLASS="");
      233     5202        %FPT_WRITE (FPTN=CWRITE,STCLASS=CONSTANT,ONEWKEY=YES,BUF=CREC);
      234     5233        %FPT_WRITE (FPTN=AWRITE,STCLASS="");
      235     5264        /**/
      236     5265        /**/
      237     5266    1         CALL SETUP;

   5266  1 000002   000164 701000 1                  TSX1    SETUP
         1 000003   000000 011000                    NOP     0

      238     5267    1         RREC='0'B;

   5267  1 000004   000100 100400                    MLR     fill='000'O
         1 000005   000002 000001 xsym               ADSC9   B_VECTNIL+2              cn=0,n=1
         1 000006   200004 000054                    ADSC9   RREC,,AUTO               cn=0,n=44

      239     5268    1         RREC.TYPE=RAT.RCOD;

   5268  1 000007   200003 470500                    LDP0    @RAT,,AUTO
         1 000010   000003 236100                    LDQ     3,,PR0
         1 000011   000027 772000                    QRL     23
         1 000012   000017 376007                    ANQ     15,DL
         1 000013   200004 756100                    STQ     RREC,,AUTO

PL6.E3A0      #003=FRS$RESADD File=FRS$ACCTNG.:E05TSI                            TUE 07/29/97 17:24 Page:53
      240     5269    1         RREC.START.CPU=B$JIT.TPEXT+B$JIT.TPSVT+B$JIT.TUEXT+B$JIT.TUSVT;

   5269  1 000014   000000 471400 xsym               LDP1    B$JIT$
         1 000015   100270 236100                    LDQ     184,,PR1
         1 000016   100271 036100                    ADLQ    185,,PR1
         1 000017   100273 036100                    ADLQ    187,,PR1
         1 000020   100274 036100                    ADLQ    188,,PR1
         1 000021   200006 756100                    STQ     RREC+2,,AUTO

      241     5270    1         CALL SSS$SYSTIME (RREC.START.CLOCK);

   5270  1 000022   200005 633500                    EPPR3   RREC+1,,AUTO
         1 000023   200056 453500                    STP3    AWRITE+14,,AUTO
         1 000024   200056 630500                    EPPR0   AWRITE+14,,AUTO
         1 000025   000017 631400 xsym               EPPR1   B_VECTNIL+15
         1 000026   000000 701000 xent               TSX1    SSS$SYSTIME
         1 000027   000000 011000                    NOP     0

      242     5271    1         RREC.WSN=B$JIT.WOO;

   5271  1 000030   000000 470400 xsym               LDP0    B$JIT$
         1 000031   000010 237100                    LDAQ    8,,PR0
         1 000032   200011 755100                    STA     RREC+5,,AUTO
         1 000033   200012 756100                    STQ     RREC+6,,AUTO

      243     5272    1         RREC.LGNM.TYPE=RAT.TYP;

   5272  1 000034   200003 471500                    LDP1    @RAT,,AUTO
         1 000035   100010 220100                    LDX0    8,,PR1
         1 000036   200013 740100                    STX0    RREC+7,,AUTO

      244     5273    1         RREC.LGNM.NUM=RAT.RES.NUMB;

   5273  1 000037   100001 721100                    LXL1    1,,PR1
         1 000040   200013 441100                    SXL1    RREC+7,,AUTO

      245     5274    1         RREC.ATTR.MTWO=RAT.RES.M2;
PL6.E3A0      #003=FRS$RESADD File=FRS$ACCTNG.:E05TSI                            TUE 07/29/97 17:24 Page:54

   5274  1 000041   100002 222100                    LDX2    2,,PR1
         1 000042   200016 442100                    SXL2    RREC+10,,AUTO

   5274  1 000043                       WRTOUT       null
      246     5275    1   WRTOUT:;
      247     5276    1         RREC.ATTR.M1=RAT.M1;

   5276  1 000043   200003 470500                    LDP0    @RAT,,AUTO
         1 000044   000006 220100                    LDX0    6,,PR0
         1 000045   200016 740100                    STX0    RREC+10,,AUTO

      248     5277    1         RREC.PHYSNAME=NK$LDCT$(RAT.DCTX)->LDCT.DEVNM;

   5277  1 000046   000003 721100                    LXL1    3,,PR0
         1 000047   000000 471400 xsym               LDP1    N$DCT$$
         1 000050   100000 473511                    LDP3    0,X1,PR1
         1 000051   300002 237100                    LDAQ    2,,PR3
         1 000052   200014 757100                    STAQ    RREC+8,,AUTO

      249     5278    1         AWRITE=CWRITE;

   5278  1 000053   000100 100400                    MLR     fill='000'O
         1 000054   000032 000060 0                  ADSC9   CWRITE                   cn=0,n=48
         1 000055   200040 000060                    ADSC9   AWRITE,,AUTO             cn=0,n=48

      250     5279    1         AWRITE.BUF_.BUF$=ADDR(RREC);

   5279  1 000056   200004 633500                    EPPR3   RREC,,AUTO
         1 000057   200045 453500                    STP3    AWRITE+5,,AUTO

      251     5280    1         AWRITE.KEY_=VECTOR(RKEY);

   5280  1 000060   777640 235007                    LDA     -96,DL
         1 000061   200056 452500                    STP2    AWRITE+14,,AUTO
         1 000062   200056 236100                    LDQ     AWRITE+14,,AUTO
         1 000063   000017 036003                    ADLQ    15,DU
PL6.E3A0      #003=FRS$RESADD File=FRS$ACCTNG.:E05TSI                            TUE 07/29/97 17:24 Page:55
         1 000064   200042 757100                    STAQ    AWRITE+2,,AUTO

      252     5281    1         AWRITE.V.DCB#=%M$STAR#;

   5281  1 000065   000001 221003                    LDX1    1,DU
         1 000066   200050 741100                    STX1    AWRITE+8,,AUTO

      253     5282    1         ADDR(AWRITE.V_)->VEC.P$=ADDR(AWRITE.V);

   5282  1 000067   200050 634500                    EPPR4   AWRITE+8,,AUTO
         1 000070   200041 454500                    STP4    AWRITE+1,,AUTO

   5282  1 000071                       WRTIT        null
      254     5283    1   WRTIT:;
      255     5284    1         CALL M$MWRITE (AWRITE) ALTRET (BADIO);

   5284  1 000071   200040 630500                    EPPR0   AWRITE,,AUTO
         1 000072   200056 450500                    STP0    AWRITE+14,,AUTO
         1 000073   200056 630500                    EPPR0   AWRITE+14,,AUTO
         1 000074   000017 631400 xsym               EPPR1   B_VECTNIL+15
         1 000075   000000 701000 xent               TSX1    M$MWRITE
         1 000076   000160 702000 1                  TSX2    BADIO

      256     5285    1         B$JIT.ERR=SVERR;

   5285  1 000077   200021 236100                    LDQ     SVERR,,AUTO
         1 000100   000000 470400 xsym               LDP0    B$JIT$
         1 000101   000012 756100                    STQ     10,,PR0

      257     5286    1         B$JIT.DCB$=TDCB$;

   5286  1 000102   200020 236100                    LDQ     TDCB$,,AUTO
         1 000103   000232 756100                    STQ     154,,PR0

      258     5287    1         RETURN;

   5287  1 000104   000000 702200 xent               TSX2  ! X66_ARET
PL6.E3A0      #003=FRS$RESADD File=FRS$ACCTNG.:E05TSI                            TUE 07/29/97 17:24 Page:56

      259     5288        /**/
      260     5289    1   FRS$RESSUB: ENTRY (RAT);

   5289  1 000105   000000 700200 xent  FRS$RESSUB   TSX0  ! X66_AUTO_1
         1 000106   000060 000001                    ZERO    48,1

      261     5290        /**/
      262     5291    1         IF RAT.RES.ACTX=0 THEN RETURN;

   5291  1 000107   200003 470500                    LDP0    @RAT,,AUTO
         1 000110   000002 720100                    LXL0    2,,PR0
         1 000111   000113 601000 1                  TNZ     s:5292

   5291  1 000112   000000 702200 xent               TSX2  ! X66_ARET

      263     5292    1         RAT.RES.RFLG.NOSLD='1'B;

   5292  1 000113   010000 236003                    LDQ     4096,DU
         1 000114   000003 256100                    ORSQ    3,,PR0

      264     5293    1         CALL SETUP;

   5293  1 000115   000164 701000 1                  TSX1    SETUP
         1 000116   000000 011000                    NOP     0

      265     5294    1         AREAD=CREAD;

   5294  1 000117   000100 100400                    MLR     fill='000'O
         1 000120   000014 000070 0                  ADSC9   CREAD                    cn=0,n=56
         1 000121   200022 000070                    ADSC9   AREAD,,AUTO              cn=0,n=56

      266     5295    1         AREAD.BUF_.BUF$=ADDR(RREC);

   5295  1 000122   200004 630500                    EPPR0   RREC,,AUTO
         1 000123   200027 450500                    STP0    AREAD+5,,AUTO

PL6.E3A0      #003=FRS$RESADD File=FRS$ACCTNG.:E05TSI                            TUE 07/29/97 17:24 Page:57
      267     5296    1         AREAD.KEY_=VECTOR(RKEY);

   5296  1 000124   777640 235007                    LDA     -96,DL
         1 000125   200056 452500                    STP2    AWRITE+14,,AUTO
         1 000126   200056 236100                    LDQ     AWRITE+14,,AUTO
         1 000127   000017 036003                    ADLQ    15,DU
         1 000130   200024 757100                    STAQ    AREAD+2,,AUTO

      268     5297    1         AREAD.V.DCB#=%M$STAR#;

   5297  1 000131   000001 220003                    LDX0    1,DU
         1 000132   200032 740100                    STX0    AREAD+8,,AUTO

      269     5298    1         ADDR(AREAD.V_)->VEC.P$=ADDR(AREAD.V);

   5298  1 000133   200032 631500                    EPPR1   AREAD+8,,AUTO
         1 000134   200023 451500                    STP1    AREAD+1,,AUTO

      270     5299    1         CALL M$MREAD (AREAD) ALTRET (BADIO);

   5299  1 000135   200022 633500                    EPPR3   AREAD,,AUTO
         1 000136   200056 453500                    STP3    AWRITE+14,,AUTO
         1 000137   200056 630500                    EPPR0   AWRITE+14,,AUTO
         1 000140   000017 631400 xsym               EPPR1   B_VECTNIL+15
         1 000141   000000 701000 xent               TSX1    M$MREAD
         1 000142   000160 702000 1                  TSX2    BADIO

      271     5300    1         RREC.REL.CPU=B$JIT.TPEXT+B$JIT.TPSVT+B$JIT.TUEXT+B$JIT.TUSVT;

   5300  1 000143   000000 470400 xsym               LDP0    B$JIT$
         1 000144   000270 236100                    LDQ     184,,PR0
         1 000145   000271 036100                    ADLQ    185,,PR0
         1 000146   000273 036100                    ADLQ    187,,PR0
         1 000147   000274 036100                    ADLQ    188,,PR0
         1 000150   200010 756100                    STQ     RREC+4,,AUTO

      272     5301    1         CALL SSS$SYSTIME (RREC.REL.CLOCK);
PL6.E3A0      #003=FRS$RESADD File=FRS$ACCTNG.:E05TSI                            TUE 07/29/97 17:24 Page:58

   5301  1 000151   200007 631500                    EPPR1   RREC+3,,AUTO
         1 000152   200056 451500                    STP1    AWRITE+14,,AUTO
         1 000153   200056 630500                    EPPR0   AWRITE+14,,AUTO
         1 000154   000017 631400 xsym               EPPR1   B_VECTNIL+15
         1 000155   000000 701000 xent               TSX1    SSS$SYSTIME
         1 000156   000000 011000                    NOP     0

      273     5302    1         GOTO WRTOUT;

   5302  1 000157   000043 710000 1                  TRA     WRTOUT

   5300  1 000160                       BADIO        null
      274     5303        /**/
      275     5304    1   BADIO:;
      276     5305    1         CALL FRS$STRABT ALTRET (WRTIT);

   5305  1 000160   000002 631400 xsym               EPPR1   B_VECTNIL+2
         1 000161   000000 701000 xent               TSX1    FRS$STRABT
         1 000162   000071 702000 1                  TSX2    WRTIT
         1 000163   000200 710000 1                  TRA     s:5317

      277     5306        /**/
      278     5307        /**/
      279     5308    1   SETUP: PROC;

   5308  1 000164   200054 741300       SETUP        STX1  ! AWRITE+12,,AUTO

      280     5309        /**/
      281     5310    2         SVERR=B$JIT.ERR;

   5310  1 000165   000000 470400 xsym               LDP0    B$JIT$
         1 000166   000012 236100                    LDQ     10,,PR0
         1 000167   200021 756100                    STQ     SVERR,,AUTO

      282     5311    2         TDCB$=B$JIT.DCB$;

PL6.E3A0      #003=FRS$RESADD File=FRS$ACCTNG.:E05TSI                            TUE 07/29/97 17:24 Page:59
   5311  1 000170   000232 236100                    LDQ     154,,PR0
         1 000171   200020 756100                    STQ     TDCB$,,AUTO

      283     5312    2         RKEY=CKEY;

   5312  1 000172   000013 236000 0                  LDQ     CKEY
         1 000173   200017 756100                    STQ     RKEY,,AUTO

      284     5313    2         RKEY.UNIQUE=RAT.RES.ACTX;

   5313  1 000174   200003 471500                    LDP1    @RAT,,AUTO
         1 000175   100002 720100                    LXL0    2,,PR1
         1 000176   200017 440100                    SXL0    RKEY,,AUTO

      285     5314    2         RETURN;

   5314  1 000177   000001 702211                    TSX2  ! 1,X1

      286     5315    2   END;
      287     5316        /**/
      288     5317    1   END;

   5317  1 000200   000000 702200 xent               TSX2  ! X66_ARET

CREC
 Sect OctLoc
   0     000   ****** ******   ****** ******   ****** ******   ****** ******    ................

CKEY
 Sect OctLoc
   0     013   003162 000000                                                    .r..

CREAD
 Sect OctLoc
   0     014   000005 777640   000024 006000   000000 177640   000000 006014    ................
   0     020   000012 777640   000000 006000   000000 177640   000000 006014    ................
   0     024   000000 600000   000000 000000   000000 000000   000000 000000    ................
PL6.E3A0      #003=FRS$RESADD File=FRS$ACCTNG.:E05TSI                            TUE 07/29/97 17:24 Page:60
   0     030   000000 000000   000000 000000                                    ........

CWRITE
 Sect OctLoc
   0     032   000003 777640   000042 006000   000000 177640   000000 006014    ....."..........
   0     036   000012 777640   000000 006000   000000 177640   000000 006014    ................
   0     042   000000 400400   000000 000000   000000 000000   000000 000000    ................
      289     5318        /**/
      290     5319        /**/
      291     5320        %EOD;

PL6.E3A0      #003=FRS$RESADD File=FRS$ACCTNG.:E05TSI                            TUE 07/29/97 17:24 Page:61
--  Include file information  --

   FR_SUBS.:E05TOU  is referenced.
   NK_SUBS.:E05TOU  is referenced.
   NK_LDCT_R.:E05TOU  cannot be made into a system file and is referenced.
   CP_6_SUBS.:E05TOU  is referenced.
   G_JIT_M.:E05TOU  is referenced.
   AZ_MACRO_C.:E05TOU  is referenced.
   B$JIT_C.:E05TOU  is referenced.
   FR$RAT.:E05TOU  is referenced.
   NK$LDCT.:E05TOU  is referenced.
   F_CP6.:E05TOU  is referenced.
      No diagnostics issued in procedure FRS$RESADD.
PL6.E3A0      #003=FRS$RESADD File=FRS$ACCTNG.:E05TSI                            TUE 07/29/97 17:24 Page:62

 **** Variables and constants ****

  ****  Section 000 RoData FRS$RESADD

  ****  Scalars and arrays  ****
OctLoc.c.b A Datatyp(siz) R M Lvl/name                 OctLoc.c.b A Datatyp(siz) R M Lvl/name

    13-0-0/c STRC        r     1 CKEY                      14-0-0/d STRC(504)   r     1 CREAD
     0-0-0/w STRC(396)   r     1 CREC                      32-0-0/d STRC(432)   r     1 CWRITE

  ****  Auto variables  ****

  ****  Scalars and arrays  ****
OctLoc.c.b A Datatyp(siz) R M Lvl/name                 OctLoc.c.b A Datatyp(siz) R M Lvl/name

     3-0-0/w PTR         r     1 @RAT                      22-0-0/d STRC(504)   r     1 AREAD
    40-0-0/d STRC(432)   r     1 AWRITE                    *0-0-0/w STRC(324)   r     1 RAT
    17-0-0/c STRC        r     1 RKEY                       4-0-0/w STRC(396)   r     1 RREC
    21-0-0/w BIT         r     1 SVERR                     20-0-0/w PTR         r     1 TDCB$

  ****  SYMREF variables  ****

  ****  Scalars and arrays  ****
OctLoc.c.b A Datatyp(siz) R M Lvl/name                 OctLoc.c.b A Datatyp(siz) R M Lvl/name

     0-0-0/w PTR         r     1 B$JIT$                     0-0-0/w PTR         r     1 N$DCT$$

  ****  BASED and DCB variables  ****

  ****  Scalars and arrays  ****
OctLoc.c.b A Datatyp(siz) R M Lvl/name                 OctLoc.c.b A Datatyp(siz) R M Lvl/name

     0-0-0/d STRC(8568)  r     1 B$JIT                      0-0-0/d STRC(864)   r     1 NK$LDCT
     0-0-0/w PTR         r     1 NK$LDCT$(0:0)
     0-0-0/w STRC(72)    r     1 VEC

PL6.E3A0      #003=FRS$RESADD File=FRS$ACCTNG.:E05TSI                            TUE 07/29/97 17:24 Page:63

   Procedure FRS$RESADD requires 129 words for executable code.
   Procedure FRS$RESADD requires 48 words of local(AUTO) storage.
PL6.E3A0      #003=FRS$RESADD File=FRS$ACCTNG.:E05TSI                            TUE 07/29/97 17:24 Page:64
          *** CROSS REFERENCE LISTING ***
**     DENOTES     IDENTIFIER DEFINITION
<<                 IDENTIFIER'S VALUE SET
>>                 IDENTIFIER'S VALUE USED
<>                 IDENTIFIER SET AND/OR USED
--                 IDENTIFIER REFERENCED
PL6.E3A0      #003=FRS$RESADD File=FRS$ACCTNG.:E05TSI                            TUE 07/29/97 17:24 Page:65
          MINI XREF LISTING

AREAD
      5180**DCL      5294<<ASSIGN   5299<>CALL
AREAD.BUF_.BUF$
      5183**DCL      5295<<ASSIGN
AREAD.KEY_
      5180**DCL      5296<<ASSIGN
AREAD.STATION_
      5183**DCL      5184--REDEF
AREAD.V
      5184**DCL      5298--ASSIGN
AREAD.V.DCB#
      5184**DCL      5297<<ASSIGN
AREAD.V.DVBYTE.REREAD#
      5195**DCL      5195--REDEF
AREAD.V.INDX#
      5193**DCL      5193--REDEF
AREAD.V_
      5180**DCL      5298--ASSIGN
AWRITE
      5250**DCL      5278<<ASSIGN   5284<>CALL
AWRITE.BUF_.BUF$
      5252**DCL      5279<<ASSIGN
AWRITE.KEY_
      5250**DCL      5280<<ASSIGN
AWRITE.STATION_
      5252**DCL      5252--REDEF
AWRITE.V
      5253**DCL      5282--ASSIGN
AWRITE.V.DCB#
      5253**DCL      5281<<ASSIGN
AWRITE.V.DVBYTE.VFC#
      5259**DCL      5259--REDEF
PL6.E3A0      #003=FRS$RESADD File=FRS$ACCTNG.:E05TSI                            TUE 07/29/97 17:24 Page:66
AWRITE.V_
      5250**DCL      5282--ASSIGN
B$JIT.DCB$
      1641**DCL      5286<<ASSIGN   5311>>ASSIGN
B$JIT.ERR
      1551**DCL      5285<<ASSIGN   5310>>ASSIGN
B$JIT.ERR.MID
      1552**DCL      1552--REDEF
B$JIT.PNR
      1648**DCL      1648--REDEF
B$JIT.TPEXT
      1647**DCL      5269>>ASSIGN   5300>>ASSIGN
B$JIT.TPSVT
      1647**DCL      5269>>ASSIGN   5300>>ASSIGN
B$JIT.TUEXT
      1647**DCL      5269>>ASSIGN   5300>>ASSIGN
B$JIT.TUSVT
      1647**DCL      5269>>ASSIGN   5300>>ASSIGN
B$JIT.WOO
      1551**DCL      5271>>ASSIGN
B$JIT$
      5116**DCL      1546--IMP-PTR  5269>>ASSIGN   5269>>ASSIGN   5269>>ASSIGN   5269>>ASSIGN   5271>>ASSIGN
      5285>>ASSIGN   5286>>ASSIGN   5300>>ASSIGN   5300>>ASSIGN   5300>>ASSIGN   5300>>ASSIGN   5310>>ASSIGN
      5311>>ASSIGN
BADIO
      5300**LABEL    5284--CALLALT  5299--CALLALT
CKEY
      5095**DCL      5312>>ASSIGN
CKEY.AREC_TYPE
      5097**DCL      5098--REDEF
CREAD
      5141**DCL      5294>>ASSIGN
CREAD.STATION_
      5144**DCL      5145--REDEF
CREAD.V
      5145**DCL      5141--DCLINIT
PL6.E3A0      #003=FRS$RESADD File=FRS$ACCTNG.:E05TSI                            TUE 07/29/97 17:24 Page:67
CREAD.V.DVBYTE.REREAD#
      5156**DCL      5156--REDEF
CREAD.V.INDX#
      5154**DCL      5154--REDEF
CREC
      4996**DCL      5143--DCLINIT  5144--DCLINIT  5220--DCLINIT  5221--DCLINIT
CREC.LOGNAME
      5026**DCL      5030--REDEF
CWRITE
      5219**DCL      5278>>ASSIGN
CWRITE.STATION_
      5221**DCL      5221--REDEF
CWRITE.V
      5222**DCL      5219--DCLINIT
CWRITE.V.DVBYTE.VFC#
      5228**DCL      5228--REDEF
FRS$STRABT
      5120**DCL-ENT  5305--CALL
M$MREAD
      5118**DCL-ENT  5299--CALL
M$MWRITE
      5119**DCL-ENT  5284--CALL
N$DCT$$
      4788**DCL      4788--IMP-PTR  5277>>ASSIGN
NK$LDCT.DDT$
      4899**DCL      4899--REDEF
NK$LDCT.DEVNM
      4899**DCL      5277>>ASSIGN
NK$LDCT.IOQ$
      4898**DCL      4899--REDEF
NK$LDCT.LDCTX
      4900**DCL      4900--REDEF
NK$LDCT.LKFLG.ABORTED
      4912**DCL      4913--REDEF
NK$LDCT.RLCID.LDCTX
      4922**DCL      4922--REDEF
PL6.E3A0      #003=FRS$RESADD File=FRS$ACCTNG.:E05TSI                            TUE 07/29/97 17:24 Page:68
NK$LDCT.STA$
      4918**DCL      4919--REDEF
NK$LDCT.SYMB$
      4897**DCL      4897--REDEF    4897--REDEF    4898--REDEF
NK$LDCT$
      4788**DCL      5277>>ASSIGN
RAT
      1193**DCL         8--PROC     5289--ENTRY
RAT.DCTX
      1211**DCL      5277>>ASSIGN
RAT.M1
      1215**DCL      5276>>ASSIGN
RAT.RCOD
      1206**DCL      5268>>ASSIGN
RAT.RES.ACTX
      1199**DCL      5291>>IF       5313>>ASSIGN
RAT.RES.M2
      1198**DCL      5274>>ASSIGN
RAT.RES.NUMB
      1197**DCL      5273>>ASSIGN
RAT.RES.RFLG.NOSLD
      1203**DCL      5292<<ASSIGN
RAT.TYP
      1217**DCL      5272>>ASSIGN
RKEY
      5064**DCL      5280--ASSIGN   5296--ASSIGN   5312<<ASSIGN
RKEY.AREC_TYPE
      5066**DCL      5067--REDEF
RKEY.UNIQUE
      5072**DCL      5313<<ASSIGN
RREC
      4936**DCL      5267<<ASSIGN   5279--ASSIGN   5295--ASSIGN
RREC.ATTR.M1
      4979**DCL      5276<<ASSIGN
RREC.ATTR.MTWO
      4984**DCL      5274<<ASSIGN
PL6.E3A0      #003=FRS$RESADD File=FRS$ACCTNG.:E05TSI                            TUE 07/29/97 17:24 Page:69
RREC.LGNM.NUM
      4972**DCL      5273<<ASSIGN
RREC.LGNM.TYPE
      4971**DCL      5272<<ASSIGN
RREC.LOGNAME
      4966**DCL      4970--REDEF
RREC.PHYSNAME
      4973**DCL      5277<<ASSIGN
RREC.REL.CLOCK
      4951**DCL      5301<>CALL
RREC.REL.CPU
      4956**DCL      5300<<ASSIGN
RREC.START.CLOCK
      4942**DCL      5270<>CALL
RREC.START.CPU
      4946**DCL      5269<<ASSIGN
RREC.TYPE
      4937**DCL      5268<<ASSIGN
RREC.WSN
      4961**DCL      5271<<ASSIGN
SETUP
      5308**PROC     5266--CALL     5293--CALL
SSS$SYSTIME
      5117**DCL-ENT  5270--CALL     5301--CALL
SVERR
      5115**DCL      5285>>ASSIGN   5310<<ASSIGN
TDCB$
      5114**DCL      5286>>ASSIGN   5311<<ASSIGN
VEC.P$
      5123**DCL      5282<<ASSIGN   5298<<ASSIGN
WRTIT
      5282**LABEL    5305--CALLALT
WRTOUT
      5274**LABEL    5302--GOTO

PL6.E3A0      #004=FRS$STRABT File=FRS$ACCTNG.:E05TSI                            TUE 07/29/97 17:24 Page:70
      292        1        /*T***********************************************************/
      293        2        /*T*                                                         */
      294        3        /*T* Copyright (c) Bull HN Information Systems Inc., 1997    */
      295        4        /*T*                                                         */
      296        5        /*T***********************************************************/
      297        6        /**/
      298        7        /**/
      299        8        FRS$STRABT: PROC ALTRET;
      300        9        /**/
      301       10        /**/
      302       11        %INCLUDE B$JIT_C;
      303      325        %B$JIT0;
      304      414        %U$JIT1X;
      305      417        %M$JIT2X;
      306      420        %F$JIT3;
      307      425        %S$JIT4X;
      308      428        %J$JIT5;
      309      516        %A$JIT6X;
      310      519        %INCLUDE F_ERRORS_C;
      311      759        /**/
      312      760        /**/
      313      761    1   DCL B$JIT$ PTR SYMREF;
      314      762    1   DCL SC_STRSERR ENTRY CONV(2,0);
      315      763    1   DCL IRM_SYSID UBIN SYMREF;
      316      764        /**/
      317      765        /**/
      318      766    2         IF B$JIT.ERR.CODE=%E$USGRANS THEN DO;
      319      767    2           B$JIT.MAXTMPDP=B$JIT.MAXTMPDP+2;
      320      768    2           ALTRETURN;
      321      769    2         END;
      322      770    1         IF IRM_SYSID=B$JIT.SYSID THEN RETURN;
      323      771    1         IF B$JIT.SYSID>1 THEN CALL SC_STRSERR; /* SUA */
      324      772        /*S*  SCREECH_CODE:  FRS-S$STRSERR
      325      773              TYPE:          SUA
      326      774              MESSAGE:       Error in *S accounting resources. */
      327      775        /**/
      328      776    1   END;
PL6.E3A0      #004=FRS$STRABT File=FRS$ACCTNG.:E05TSI                            TUE 07/29/97 17:24 Page:71
      329      777        /**/
      330      778        /**/

PL6.E3A0      #004=FRS$STRABT File=FRS$ACCTNG.:E05TSI                            TUE 07/29/97 17:24 Page:72
--  Include file information  --

   F_ERRORS_C.:E05TOU  is referenced.
   B$JIT_C.:E05TOU  is referenced.
      No diagnostics issued in procedure FRS$STRABT.

   Procedure FRS$STRABT requires 21 words for executable code.
   Procedure FRS$STRABT requires 4 words of local(AUTO) storage.

    No errors detected in file FRS$ACCTNG.:E05TSI    .

PL6.E3A0      #004=FRS$STRABT File=FRS$ACCTNG.:E05TSI                            TUE 07/29/97 17:24 Page:73

 Object Unit name= FRS$STRABT                                 File name= FRS$ACCTNG.:E05TOU
 UTS= JUL 29 '97 17:24:40.88 TUE                              Compiler= PL-6/E31         Sev=      00
 SharedLib= :SHARED_SYSTEM                                    Alt SharedLib=


    ****  Control sections  ****

 Sect   Type Bound  Init  Size OctSiz  Section name(segment info)
    0   Proc  even  none    21     25  FRS$STRABT

    ****  Entry defs  ****

                              Check   Calling
                             calling  sequence
  Sect OctLoc Primary Altret sequence   type   Parms  Name
     0      0   yes    yes     yes      Std        0  FRS$STRABT

  ****  Entry refs  ****

         Check        Calling
        calling       sequence
Altret sequence SRef   type   Args  Name
                       nStd      0 X66_AUTO_0
                       nStd      0 X66_AALT
                       nStd      0 X66_ARET

  ****  Data refs  ****

  Flags:  r = read only, s = secondary
Flgs Name                             Flgs Name                             Flgs Name
     SC_STRSERR                            B$JIT$                                IRM_SYSID
PL6.E3A0      #004=FRS$STRABT File=FRS$ACCTNG.:E05TSI                            TUE 07/29/97 17:24 Page:74

  ****  Segment refs  ****

  Flags:  r = read only, s = secondary
Flgs Name                             Flgs Name                             Flgs Name
     ASLENTSID
PL6.E3A0      #004=FRS$STRABT File=FRS$ACCTNG.:E05TSI                            TUE 07/29/97 17:24 Page:75


      292        1        /*T***********************************************************/
      293        2        /*T*                                                         */
      294        3        /*T* Copyright (c) Bull HN Information Systems Inc., 1997    */
      295        4        /*T*                                                         */
      296        5        /*T***********************************************************/
      297        6        /**/
      298        7        /**/
      299        8        FRS$STRABT: PROC ALTRET;

      8  0 000000   000000 700200 xent  FRS$STRABT   TSX0  ! X66_AUTO_0
         0 000001   000004 000000                    ZERO    4,0

      300        9        /**/
      301       10        /**/
      302       11        %INCLUDE B$JIT_C;
      303      325        %B$JIT0;
      304      414        %U$JIT1X;
      305      417        %M$JIT2X;
      306      420        %F$JIT3;
      307      425        %S$JIT4X;
      308      428        %J$JIT5;
      309      516        %A$JIT6X;
      310      519        %INCLUDE F_ERRORS_C;
      311      759        /**/
      312      760        /**/
      313      761    1   DCL B$JIT$ PTR SYMREF;
      314      762    1   DCL SC_STRSERR ENTRY CONV(2,0);
      315      763    1   DCL IRM_SYSID UBIN SYMREF;
      316      764        /**/
      317      765        /**/
      318      766    2         IF B$JIT.ERR.CODE=%E$USGRANS THEN DO;

    766  0 000002   000000 470400 xsym               LDP0    B$JIT$
         0 000003   000012 236100                    LDQ     10,,PR0
         0 000004   377770 376007                    ANQ     131064,DL
         0 000005   002150 116007                    CMPQ    1128,DL
PL6.E3A0      #004=FRS$STRABT File=FRS$ACCTNG.:E05TSI                            TUE 07/29/97 17:24 Page:76
         0 000006   000012 601000 0                  TNZ     s:770

      319      767    2           B$JIT.MAXTMPDP=B$JIT.MAXTMPDP+2;

    767  0 000007   000002 236007                    LDQ     2,DL
         0 000010   000241 056100                    ASQ     161,,PR0

      320      768    2           ALTRETURN;

    768  0 000011   000000 702200 xent               TSX2  ! X66_AALT

      321      769    2         END;
      322      770    1         IF IRM_SYSID=B$JIT.SYSID THEN RETURN;

    770  0 000012   000000 236100                    LDQ     0,,PR0
         0 000013   777777 376007                    ANQ     -1,DL
         0 000014   000000 116000 xsym               CMPQ    IRM_SYSID
         0 000015   000017 601000 0                  TNZ     s:771

    770  0 000016   000000 702200 xent               TSX2  ! X66_ARET

      323      771    1         IF B$JIT.SYSID>1 THEN CALL SC_STRSERR; /* SUA */

    771  0 000017   000000 720100                    LXL0    0,,PR0
         0 000020   000002 100003                    CMPX0   2,DU
         0 000021   000024 602000 0                  TNC     s:776

    771  0 000022   000000 713400 xsym               CLIMB   SC_STRSERR
         0 000023   000000 600000 xsid               climb   nvectors=         0

      324      772        /*S*  SCREECH_CODE:  FRS-S$STRSERR
      325      773              TYPE:          SUA
      326      774              MESSAGE:       Error in *S accounting resources. */
      327      775        /**/
      328      776    1   END;

    776  0 000024   000000 702200 xent               TSX2  ! X66_ARET
PL6.E3A0      #004=FRS$STRABT File=FRS$ACCTNG.:E05TSI                            TUE 07/29/97 17:24 Page:77
      329      777        /**/
      330      778        /**/

PL6.E3A0      #004=FRS$STRABT File=FRS$ACCTNG.:E05TSI                            TUE 07/29/97 17:24 Page:78
--  Include file information  --

   F_ERRORS_C.:E05TOU  is referenced.
   B$JIT_C.:E05TOU  is referenced.
      No diagnostics issued in procedure FRS$STRABT.
PL6.E3A0      #004=FRS$STRABT File=FRS$ACCTNG.:E05TSI                            TUE 07/29/97 17:24 Page:79

 **** Variables and constants ****

  ****  SYMREF variables  ****

  ****  Scalars and arrays  ****
OctLoc.c.b A Datatyp(siz) R M Lvl/name                 OctLoc.c.b A Datatyp(siz) R M Lvl/name

     0-0-0/w PTR         r     1 B$JIT$                     0-0-0/w UBIN        r     1 IRM_SYSID

  ****  BASED and DCB variables  ****

  ****  Scalars and arrays  ****
OctLoc.c.b A Datatyp(siz) R M Lvl/name                 OctLoc.c.b A Datatyp(siz) R M Lvl/name

     0-0-0/d STRC(8856)  r     1 B$JIT


   Procedure FRS$STRABT requires 21 words for executable code.
   Procedure FRS$STRABT requires 4 words of local(AUTO) storage.

    No errors detected in file FRS$ACCTNG.:E05TSI    .
PL6.E3A0      #004=FRS$STRABT File=FRS$ACCTNG.:E05TSI                            TUE 07/29/97 17:24 Page:80
          *** CROSS REFERENCE LISTING ***
**     DENOTES     IDENTIFIER DEFINITION
<<                 IDENTIFIER'S VALUE SET
>>                 IDENTIFIER'S VALUE USED
<>                 IDENTIFIER SET AND/OR USED
--                 IDENTIFIER REFERENCED
PL6.E3A0      #004=FRS$STRABT File=FRS$ACCTNG.:E05TSI                            TUE 07/29/97 17:24 Page:81
          MINI XREF LISTING

B$JIT.ERR.CODE
       332**DCL       766>>IF
B$JIT.ERR.MID
       332**DCL       332--REDEF
B$JIT.MAXTMPDP
       422**DCL       767<<ASSIGN    767>>ASSIGN
B$JIT.SYSID
       331**DCL       770>>IF        771>>IF
B$JIT$
       761**DCL       326--IMP-PTR   766>>IF        767>>ASSIGN    767>>ASSIGN    770>>IF        771>>IF
IRM_SYSID
       763**DCL       770>>IF
SC_STRSERR
       762**DCL-ENT   771--CALL
