VERSION E05

PL6.E3A0      #001=FR_DATA_D File=FR_DATA_D.:E05TSI                              TUE 07/29/97 17:26 Page:1
        1        1        /*M* FR_DATA_D Static and constant data for resource management*/
        2        2        /*T***********************************************************/
        3        3        /*T*                                                         */
        4        4        /*T* Copyright (c) Bull HN Information Systems Inc., 1997    */
        5        5        /*T*                                                         */
        6        6        /*T***********************************************************/
        7        7        /**/
        8        8        /**/
        9        9        FR_DATA_D: PROC;
       10       10        /**/
       11       11        /**/
       12       12    1   DCL FR_MMSGL(0:5)UBIN(9)UNAL CONSTANT SYMDEF INIT(6,8,1,1,4,1);
       13       13    1   DCL FR_DMSGL UBIN(9) ALIGNED CONSTANT SYMDEF INIT(6);
       14       14    1   DCL FR_AMSGL (0:1) UBIN BYTE UNAL CONSTANT SYMDEF INIT(2,6);
       15       15    1   DCL FR_NXTMT$ PTR STATIC SYMDEF INIT(ADDR(NIL));
       16       16    1   DCL FR$HD$ (0:3) PTR STATIC SYMDEF INIT(ADDR(NIL)*0);
       17       17    1   DCL FR_AVRCNT UBIN WORD STATIC SYMDEF;
       18       18    1   DCL FR_MTDFLT BIT(36) STATIC SYMDEF INIT('0'B);
       19       19    1   DCL FR_DPDFLT BIT(36) STATIC SYMDEF INIT('0'B);
       20       20    1   DCL FR_FEPRES# UBIN STATIC SYMDEF INIT(0);
       21       21    1   DCL FR_FEPRES_CURRENT UBIN STATIC SYMDEF INIT(0);
       22       22        /**/
       23       23        /**/
       24       24    1   END;

PL6.E3A0      #001=FR_DATA_D File=FR_DATA_D.:E05TSI                              TUE 07/29/97 17:26 Page:2
      No diagnostics issued in procedure FR_DATA_D.

   No code generated for procedure FR_DATA_D .
   Procedure FR_DATA_D requires 4 words of local(AUTO) storage.

    No errors detected in file FR_DATA_D.:E05TSI    .

PL6.E3A0      #001=FR_DATA_D File=FR_DATA_D.:E05TSI                              TUE 07/29/97 17:26 Page:3

 Object Unit name= FR_DATA_D                                  File name= FR_DATA_D.:E05TOU
 UTS= JUL 29 '97 17:26:22.08 TUE                              Compiler= PL-6/E31         Sev=      00
 SharedLib= :SHARED_SYSTEM                                    Alt SharedLib=


    ****  Control sections  ****

 Sect   Type Bound  Init  Size OctSiz  Section name(segment info)
    0  RoData even  UTS      4      4  FR_DATA_D
    1   Data  even  none    10     12  FR_DATA_D
    2   Proc  even  none     0      0  FR_DATA_D

    ****  Entry defs  ****

                              Check   Calling
                             calling  sequence
  Sect OctLoc Primary Altret sequence   type   Parms  Name
     2      0   yes            yes     ~proc       0  FR_DATA_D

  ****  Data defs  ****

 Sect OctLoc  Name                           Sect OctLoc  Name
    0      0  FR_MMSGL                           0      2  FR_DMSGL
    0      3  FR_AMSGL                           1      0  FR_NXTMT$
    1      1  FR$HD$                             1      5  FR_AVRCNT
    1      6  FR_MTDFLT                          1      7  FR_DPDFLT
    1     10  FR_FEPRES#                         1     11  FR_FEPRES_CURRENT

  ****  Segment refs  ****

  Flags:  r = read only, s = secondary
Flgs Name                             Flgs Name                             Flgs Name
     NULLSID
PL6.E3A0      #001=FR_DATA_D File=FR_DATA_D.:E05TSI                              TUE 07/29/97 17:26 Page:4


(unnamed)
 Sect OctLoc
   0     000   006010 001001   004001 ******   006*** ******   002006 ******    ................

(unnamed)
 Sect OctLoc
   1     000   000000 006014   000000 006014   000000 006014   000000 006014    ................
   1     004   000000 006014   ****** ******   000000 000000   000000 000000    ................
   1     010   000000 000000   000000 000000                                    ........
        1        1        /*M* FR_DATA_D Static and constant data for resource management*/
        2        2        /*T***********************************************************/
        3        3        /*T*                                                         */
        4        4        /*T* Copyright (c) Bull HN Information Systems Inc., 1997    */
        5        5        /*T*                                                         */
        6        6        /*T***********************************************************/
        7        7        /**/
        8        8        /**/
        9        9        FR_DATA_D: PROC;
       10       10        /**/
       11       11        /**/
       12       12    1   DCL FR_MMSGL(0:5)UBIN(9)UNAL CONSTANT SYMDEF INIT(6,8,1,1,4,1);
       13       13    1   DCL FR_DMSGL UBIN(9) ALIGNED CONSTANT SYMDEF INIT(6);
       14       14    1   DCL FR_AMSGL (0:1) UBIN BYTE UNAL CONSTANT SYMDEF INIT(2,6);
       15       15    1   DCL FR_NXTMT$ PTR STATIC SYMDEF INIT(ADDR(NIL));
       16       16    1   DCL FR$HD$ (0:3) PTR STATIC SYMDEF INIT(ADDR(NIL)*0);
       17       17    1   DCL FR_AVRCNT UBIN WORD STATIC SYMDEF;
       18       18    1   DCL FR_MTDFLT BIT(36) STATIC SYMDEF INIT('0'B);
       19       19    1   DCL FR_DPDFLT BIT(36) STATIC SYMDEF INIT('0'B);
       20       20    1   DCL FR_FEPRES# UBIN STATIC SYMDEF INIT(0);
       21       21    1   DCL FR_FEPRES_CURRENT UBIN STATIC SYMDEF INIT(0);
       22       22        /**/
       23       23        /**/
       24       24    1   END;

PL6.E3A0      #001=FR_DATA_D File=FR_DATA_D.:E05TSI                              TUE 07/29/97 17:26 Page:5
      No diagnostics issued in procedure FR_DATA_D.
PL6.E3A0      #001=FR_DATA_D File=FR_DATA_D.:E05TSI                              TUE 07/29/97 17:26 Page:6

 **** Variables and constants ****


   No code generated for procedure FR_DATA_D .
   Procedure FR_DATA_D requires 4 words of local(AUTO) storage.

    No errors detected in file FR_DATA_D.:E05TSI    .
PL6.E3A0      #001=FR_DATA_D File=FR_DATA_D.:E05TSI                              TUE 07/29/97 17:26 Page:7
          *** CROSS REFERENCE LISTING ***
**     DENOTES     IDENTIFIER DEFINITION
<<                 IDENTIFIER'S VALUE SET
>>                 IDENTIFIER'S VALUE USED
<>                 IDENTIFIER SET AND/OR USED
--                 IDENTIFIER REFERENCED
PL6.E3A0      #001=FR_DATA_D File=FR_DATA_D.:E05TSI                              TUE 07/29/97 17:26 Page:8
          MINI XREF LISTING

