VERSION E05

PL6.E3A0      #001=FR_SCREECH_D File=FR_SCRECH_D.:E05TSI                         TUE 07/29/97 17:26 Page:1
        1        1        /*M* FR_SCRECH_D Screeches for resource management */
        2        2        /*T***********************************************************/
        3        3        /*T*                                                         */
        4        4        /*T* Copyright (c) Bull HN Information Systems Inc., 1997    */
        5        5        /*T*                                                         */
        6        6        /*T***********************************************************/
        7        7        /*X*DMC,PLM=6,IND=2,ENU=2,DCI=4,CSU=2,ECU=2,THI=2,DTI=0*/
        8        8        /**/
        9        9        /**/
       10       10        FR_SCREECH_D: PROC;
       11       11        /**/
       12       12        /**/
       13       13        %INCLUDE FR_SCODE_C;
       14       30        %INCLUDE JS_CP6;
       15      448        /**/
       16      449        /**/
       17      450        %VLP_SCREECH (STCLASS=CONSTANT SYMDEF,FPTN=SC_BDREM,FCG=FR,MID=Z,MON=YES,CODE=
               450            %S$BDREM,
       18      451                  SEV=SEV_SCREECH,LRM=YES,
       19      452                  CFUS=YES,ASAVE=NO,ENQ=NO,DS4=NO,DS5=NO,DS6=NO,DS7=NO,
       20      453                  LDCTS=YES,PPUT=NO,SHJIT=NO,CWSPT=NO,PMST=NO,
       21      454                  PMDATA=NO,MPROC=NO,CUSR=YES,CUSRS=NO,IOUSRS=NO,ALLUSR=NO,
       22      455                  SPBUF=NO,FMBUF=NO,ROSEG=YES,ISEG=NO,DDSEG=NO,DBSEG=NO,
       23      456                  ASLSEG=NO,CPSEG=NO);
       24      526        /**/
       25      527        %VLP_SCREECH (STCLASS=CONSTANT SYMDEF,FPTN=SC_BCLRES,FCG=FR,MID=B,MON=YES,CODE=
               527            %S$BCLRES,
       26      528                  SEV=SEV_SUA,LRM=YES,
       27      529                  CFUS=YES,ASAVE=NO,ENQ=NO,DS4=NO,DS5=NO,DS6=NO,DS7=NO,
       28      530                  LDCTS=YES,PPUT=NO,SHJIT=NO,CWSPT=NO,PMST=NO,
       29      531                  PMDATA=NO,MPROC=NO,CUSR=YES,CUSRS=NO,IOUSRS=NO,ALLUSR=NO,
       30      532                  SPBUF=NO,FMBUF=NO,ROSEG=YES,ISEG=NO,DDSEG=NO,DBSEG=NO,
       31      533                  ASLSEG=NO,CPSEG=NO);
       32      603        /**/
       33      604        %VLP_SCREECH (STCLASS=CONSTANT SYMDEF,FPTN=SC_RSOWNR,FCG=FR,MID=B,MON=YES,CODE=
               604            %S$RSOWNR,
       34      605                  SEV=SEV_SCREECH,LRM=YES,
PL6.E3A0      #001=FR_SCREECH_D File=FR_SCRECH_D.:E05TSI                         TUE 07/29/97 17:26 Page:2
       35      606                  CFUS=YES,ASAVE=NO,ENQ=NO,DS4=NO,DS5=NO,DS6=NO,DS7=NO,
       36      607                  LDCTS=YES,PPUT=NO,SHJIT=NO,CWSPT=NO,PMST=NO,
       37      608                  PMDATA=NO,MPROC=NO,CUSR=YES,CUSRS=NO,IOUSRS=NO,ALLUSR=NO,
       38      609                  SPBUF=NO,FMBUF=NO,ROSEG=YES,ISEG=NO,DDSEG=NO,DBSEG=NO,
       39      610                  ASLSEG=NO,CPSEG=NO);
       40      680        /**/
       41      681        %VLP_SCREECH (STCLASS=CONSTANT SYMDEF,FPTN=SC_RSNOPN,FCG=FR,MID=B,MON=YES,CODE=
               681            %S$RSNOPN,
       42      682                  SEV=SEV_SUA,LRM=YES,
       43      683                  CFUS=YES,ASAVE=NO,ENQ=NO,DS4=NO,DS5=NO,DS6=NO,DS7=NO,
       44      684                  LDCTS=YES,PPUT=NO,SHJIT=NO,CWSPT=NO,PMST=NO,
       45      685                  PMDATA=NO,MPROC=NO,CUSR=YES,CUSRS=NO,IOUSRS=NO,ALLUSR=NO,
       46      686                  SPBUF=NO,FMBUF=NO,ROSEG=YES,ISEG=NO,DDSEG=NO,DBSEG=NO,
       47      687                  ASLSEG=NO,CPSEG=NO);
       48      757        /**/
       49      758        %VLP_SCREECH (STCLASS=CONSTANT SYMDEF,FPTN=SC_R2MANY,FCG=FR,MID=P,MON=YES,CODE=
               758            %S$R2MANY,
       50      759                  SEV=SEV_SCREECH,LRM=YES,
       51      760                  CFUS=YES,ASAVE=NO,ENQ=NO,DS4=NO,DS5=NO,DS6=NO,DS7=NO,
       52      761                  LDCTS=YES,PPUT=NO,SHJIT=NO,CWSPT=NO,PMST=NO,
       53      762                  PMDATA=NO,MPROC=NO,CUSR=YES,CUSRS=NO,IOUSRS=NO,ALLUSR=NO,
       54      763                  SPBUF=NO,FMBUF=NO,ROSEG=YES,ISEG=NO,DDSEG=NO,DBSEG=NO,
       55      764                  ASLSEG=NO,CPSEG=NO);
       56      834        /**/
       57      835        %VLP_SCREECH (STCLASS=CONSTANT SYMDEF,FPTN=SC_R2MNYP,FCG=FR,MID=Z,MON=YES,CODE=
               835            %S$R2MANY,
       58      836                  SEV=SEV_SCREECH,LRM=YES,
       59      837                  CFUS=YES,ASAVE=NO,ENQ=NO,DS4=NO,DS5=NO,DS6=NO,DS7=NO,
       60      838                  LDCTS=YES,PPUT=NO,SHJIT=NO,CWSPT=NO,PMST=NO,
       61      839                  PMDATA=NO,MPROC=NO,CUSR=YES,CUSRS=NO,IOUSRS=NO,ALLUSR=NO,
       62      840                  SPBUF=NO,FMBUF=NO,ROSEG=YES,ISEG=NO,DDSEG=NO,DBSEG=NO,
       63      841                  ASLSEG=NO,CPSEG=NO);
       64      911        /**/
       65      912        %VLP_SCODE    (STCLASS=CONSTANT SYMDEF,FPTN=SC_NRNDWN,FCG=FR,MID=P,MON=YES,CODE=
               912            %S$NRNDWN,
       66      913                  SEV=SEV_SNAP,LRM=YES,
       67      914                  CFUS=YES,ASAVE=NO,ENQ=NO,DS4=NO,DS5=NO,DS6=NO,DS7=NO,
PL6.E3A0      #001=FR_SCREECH_D File=FR_SCRECH_D.:E05TSI                         TUE 07/29/97 17:26 Page:3
       68      915                  LDCTS=YES,PPUT=YES,SHJIT=NO,CWSPT=NO,PMST=NO,
       69      916                  PMDATA=NO,MPROC=NO,CUSR=YES,CUSRS=NO,IOUSRS=NO,ALLUSR=NO,
       70      917                  SPBUF=YES,FMBUF=YES,ROSEG=YES,ISEG=NO,DDSEG=NO,DBSEG=NO,
       71      918                  ASLSEG=NO,CPSEG=NO);
       72      979        /**/
       73      980        %VLP_SCREECH (STCLASS=CONSTANT SYMDEF,FPTN=SC_AVRDCT,FCG=FR,MID=C,MON=YES,CODE=
               980            %S$AVRDCT,
       74      981                  SEV=SEV_SCREECH,LRM=YES,
       75      982                  CFUS=YES,ASAVE=NO,ENQ=NO,DS4=NO,DS5=NO,DS6=NO,DS7=NO,
       76      983                  LDCTS=YES,PPUT=NO,SHJIT=NO,CWSPT=NO,PMST=NO,
       77      984                  PMDATA=NO,MPROC=NO,CUSR=NO,CUSRS=NO,IOUSRS=NO,ALLUSR=NO,
       78      985                  SPBUF=NO,FMBUF=NO,ROSEG=NO,ISEG=NO,DDSEG=NO,DBSEG=NO,
       79      986                  ASLSEG=NO,CPSEG=NO);
       80     1056        /**/
       81     1057        %VLP_SCREECH (STCLASS=CONSTANT SYMDEF,FPTN=SC_AVRTYP,FCG=FR,MID=C,MON=YES,CODE=
              1057            %S$AVRTYP,
       82     1058                  SEV=SEV_SCREECH,LRM=YES,
       83     1059                  CFUS=YES,ASAVE=NO,ENQ=NO,DS4=NO,DS5=NO,DS6=NO,DS7=NO,
       84     1060                  LDCTS=YES,PPUT=NO,SHJIT=NO,CWSPT=NO,PMST=NO,
       85     1061                  PMDATA=NO,MPROC=NO,CUSR=NO,CUSRS=NO,IOUSRS=NO,ALLUSR=NO,
       86     1062                  SPBUF=NO,FMBUF=NO,ROSEG=NO,ISEG=NO,DDSEG=NO,DBSEG=NO,
       87     1063                  ASLSEG=NO,CPSEG=NO);
       88     1133        /**/
       89     1134        %VLP_SUA     (STCLASS=CONSTANT SYMDEF,FPTN=SC_STRSERR,FCG=FR,MID=P,CODE=%S$STRSERR);
       90     1204        /**/
       91     1205        /**/
       92     1206    1   END;
       93     1207        /**/
       94     1208        /**/

PL6.E3A0      #001=FR_SCREECH_D File=FR_SCRECH_D.:E05TSI                         TUE 07/29/97 17:26 Page:4
--  Include file information  --

   JS_CP6.:E05TOU  is referenced.
   FR_SCODE_C.:E05TOU  is referenced.
      No diagnostics issued in procedure FR_SCREECH_D.

   No code generated for procedure FR_SCREECH_D .
   Procedure FR_SCREECH_D requires 4 words of local(AUTO) storage.

    No errors detected in file FR_SCRECH_D.:E05TSI    .

PL6.E3A0      #001=FR_SCREECH_D File=FR_SCRECH_D.:E05TSI                         TUE 07/29/97 17:26 Page:5

 Object Unit name= FR_SCREECH_D                               File name= FR_SCRECH_D.:E05TOU
 UTS= JUL 29 '97 17:26:50.12 TUE                              Compiler= PL-6/E31         Sev=      00
 SharedLib= :SHARED_SYSTEM                                    Alt SharedLib=


    ****  Control sections  ****

 Sect   Type Bound  Init  Size OctSiz  Section name(segment info)
    0  RoData even  UTS     20     24  FR_SCREECH_D
    1   Proc  even  none     0      0  FR_SCREECH_D

    ****  Entry defs  ****

                              Check   Calling
                             calling  sequence
  Sect OctLoc Primary Altret sequence   type   Parms  Name
     1      0   yes            yes     ~proc       0  FR_SCREECH_D

  ****  Data defs  ****

 Sect OctLoc  Name                           Sect OctLoc  Name
    0      0  SC_BDREM                           0      2  SC_BCLRES
    0      4  SC_RSOWNR                          0      6  SC_RSNOPN
    0     10  SC_R2MANY                          0     12  SC_R2MNYP
    0     14  SC_NRNDWN                          0     16  SC_AVRDCT
    0     20  SC_AVRTYP                          0     22  SC_STRSERR
PL6.E3A0      #001=FR_SCREECH_D File=FR_SCRECH_D.:E05TSI                         TUE 07/29/97 17:26 Page:6


(unnamed)
 Sect OctLoc
   0     000   062232 400637   601060 101000   062202 400646   601060 101000    2....0A.2....0A.
   0     004   062202 400657   601060 101000   062202 400666   601060 101000    2....0A.2....0A.
   0     010   062220 400727   601060 101000   062232 400727   601060 101000    2....0A.2....0A.
   0     014   062220 400675   601400 107000   062203 400707   601060 000000    2.....G.2....0..
   0     020   062203 400717   601060 000000   062220 400626   000060 107760    2....0..2....0G.
        1        1        /*M* FR_SCRECH_D Screeches for resource management */
        2        2        /*T***********************************************************/
        3        3        /*T*                                                         */
        4        4        /*T* Copyright (c) Bull HN Information Systems Inc., 1997    */
        5        5        /*T*                                                         */
        6        6        /*T***********************************************************/
        7        7        /*X*DMC,PLM=6,IND=2,ENU=2,DCI=4,CSU=2,ECU=2,THI=2,DTI=0*/
        8        8        /**/
        9        9        /**/
       10       10        FR_SCREECH_D: PROC;
       11       11        /**/
       12       12        /**/
       13       13        %INCLUDE FR_SCODE_C;
       14       30        %INCLUDE JS_CP6;
       15      448        /**/
       16      449        /**/
       17      450        %VLP_SCREECH (STCLASS=CONSTANT SYMDEF,FPTN=SC_BDREM,FCG=FR,MID=Z,MON=YES,CODE=
               450            %S$BDREM,
       18      451                  SEV=SEV_SCREECH,LRM=YES,
       19      452                  CFUS=YES,ASAVE=NO,ENQ=NO,DS4=NO,DS5=NO,DS6=NO,DS7=NO,
       20      453                  LDCTS=YES,PPUT=NO,SHJIT=NO,CWSPT=NO,PMST=NO,
       21      454                  PMDATA=NO,MPROC=NO,CUSR=YES,CUSRS=NO,IOUSRS=NO,ALLUSR=NO,
       22      455                  SPBUF=NO,FMBUF=NO,ROSEG=YES,ISEG=NO,DDSEG=NO,DBSEG=NO,
       23      456                  ASLSEG=NO,CPSEG=NO);
       24      526        /**/
       25      527        %VLP_SCREECH (STCLASS=CONSTANT SYMDEF,FPTN=SC_BCLRES,FCG=FR,MID=B,MON=YES,CODE=
               527            %S$BCLRES,
       26      528                  SEV=SEV_SUA,LRM=YES,
       27      529                  CFUS=YES,ASAVE=NO,ENQ=NO,DS4=NO,DS5=NO,DS6=NO,DS7=NO,
PL6.E3A0      #001=FR_SCREECH_D File=FR_SCRECH_D.:E05TSI                         TUE 07/29/97 17:26 Page:7
       28      530                  LDCTS=YES,PPUT=NO,SHJIT=NO,CWSPT=NO,PMST=NO,
       29      531                  PMDATA=NO,MPROC=NO,CUSR=YES,CUSRS=NO,IOUSRS=NO,ALLUSR=NO,
       30      532                  SPBUF=NO,FMBUF=NO,ROSEG=YES,ISEG=NO,DDSEG=NO,DBSEG=NO,
       31      533                  ASLSEG=NO,CPSEG=NO);
       32      603        /**/
       33      604        %VLP_SCREECH (STCLASS=CONSTANT SYMDEF,FPTN=SC_RSOWNR,FCG=FR,MID=B,MON=YES,CODE=
               604            %S$RSOWNR,
       34      605                  SEV=SEV_SCREECH,LRM=YES,
       35      606                  CFUS=YES,ASAVE=NO,ENQ=NO,DS4=NO,DS5=NO,DS6=NO,DS7=NO,
       36      607                  LDCTS=YES,PPUT=NO,SHJIT=NO,CWSPT=NO,PMST=NO,
       37      608                  PMDATA=NO,MPROC=NO,CUSR=YES,CUSRS=NO,IOUSRS=NO,ALLUSR=NO,
       38      609                  SPBUF=NO,FMBUF=NO,ROSEG=YES,ISEG=NO,DDSEG=NO,DBSEG=NO,
       39      610                  ASLSEG=NO,CPSEG=NO);
       40      680        /**/
       41      681        %VLP_SCREECH (STCLASS=CONSTANT SYMDEF,FPTN=SC_RSNOPN,FCG=FR,MID=B,MON=YES,CODE=
               681            %S$RSNOPN,
       42      682                  SEV=SEV_SUA,LRM=YES,
       43      683                  CFUS=YES,ASAVE=NO,ENQ=NO,DS4=NO,DS5=NO,DS6=NO,DS7=NO,
       44      684                  LDCTS=YES,PPUT=NO,SHJIT=NO,CWSPT=NO,PMST=NO,
       45      685                  PMDATA=NO,MPROC=NO,CUSR=YES,CUSRS=NO,IOUSRS=NO,ALLUSR=NO,
       46      686                  SPBUF=NO,FMBUF=NO,ROSEG=YES,ISEG=NO,DDSEG=NO,DBSEG=NO,
       47      687                  ASLSEG=NO,CPSEG=NO);
       48      757        /**/
       49      758        %VLP_SCREECH (STCLASS=CONSTANT SYMDEF,FPTN=SC_R2MANY,FCG=FR,MID=P,MON=YES,CODE=
               758            %S$R2MANY,
       50      759                  SEV=SEV_SCREECH,LRM=YES,
       51      760                  CFUS=YES,ASAVE=NO,ENQ=NO,DS4=NO,DS5=NO,DS6=NO,DS7=NO,
       52      761                  LDCTS=YES,PPUT=NO,SHJIT=NO,CWSPT=NO,PMST=NO,
       53      762                  PMDATA=NO,MPROC=NO,CUSR=YES,CUSRS=NO,IOUSRS=NO,ALLUSR=NO,
       54      763                  SPBUF=NO,FMBUF=NO,ROSEG=YES,ISEG=NO,DDSEG=NO,DBSEG=NO,
       55      764                  ASLSEG=NO,CPSEG=NO);
       56      834        /**/
       57      835        %VLP_SCREECH (STCLASS=CONSTANT SYMDEF,FPTN=SC_R2MNYP,FCG=FR,MID=Z,MON=YES,CODE=
               835            %S$R2MANY,
       58      836                  SEV=SEV_SCREECH,LRM=YES,
       59      837                  CFUS=YES,ASAVE=NO,ENQ=NO,DS4=NO,DS5=NO,DS6=NO,DS7=NO,
       60      838                  LDCTS=YES,PPUT=NO,SHJIT=NO,CWSPT=NO,PMST=NO,
PL6.E3A0      #001=FR_SCREECH_D File=FR_SCRECH_D.:E05TSI                         TUE 07/29/97 17:26 Page:8
       61      839                  PMDATA=NO,MPROC=NO,CUSR=YES,CUSRS=NO,IOUSRS=NO,ALLUSR=NO,
       62      840                  SPBUF=NO,FMBUF=NO,ROSEG=YES,ISEG=NO,DDSEG=NO,DBSEG=NO,
       63      841                  ASLSEG=NO,CPSEG=NO);
       64      911        /**/
       65      912        %VLP_SCODE    (STCLASS=CONSTANT SYMDEF,FPTN=SC_NRNDWN,FCG=FR,MID=P,MON=YES,CODE=
               912            %S$NRNDWN,
       66      913                  SEV=SEV_SNAP,LRM=YES,
       67      914                  CFUS=YES,ASAVE=NO,ENQ=NO,DS4=NO,DS5=NO,DS6=NO,DS7=NO,
       68      915                  LDCTS=YES,PPUT=YES,SHJIT=NO,CWSPT=NO,PMST=NO,
       69      916                  PMDATA=NO,MPROC=NO,CUSR=YES,CUSRS=NO,IOUSRS=NO,ALLUSR=NO,
       70      917                  SPBUF=YES,FMBUF=YES,ROSEG=YES,ISEG=NO,DDSEG=NO,DBSEG=NO,
       71      918                  ASLSEG=NO,CPSEG=NO);
       72      979        /**/
       73      980        %VLP_SCREECH (STCLASS=CONSTANT SYMDEF,FPTN=SC_AVRDCT,FCG=FR,MID=C,MON=YES,CODE=
               980            %S$AVRDCT,
       74      981                  SEV=SEV_SCREECH,LRM=YES,
       75      982                  CFUS=YES,ASAVE=NO,ENQ=NO,DS4=NO,DS5=NO,DS6=NO,DS7=NO,
       76      983                  LDCTS=YES,PPUT=NO,SHJIT=NO,CWSPT=NO,PMST=NO,
       77      984                  PMDATA=NO,MPROC=NO,CUSR=NO,CUSRS=NO,IOUSRS=NO,ALLUSR=NO,
       78      985                  SPBUF=NO,FMBUF=NO,ROSEG=NO,ISEG=NO,DDSEG=NO,DBSEG=NO,
       79      986                  ASLSEG=NO,CPSEG=NO);
       80     1056        /**/
       81     1057        %VLP_SCREECH (STCLASS=CONSTANT SYMDEF,FPTN=SC_AVRTYP,FCG=FR,MID=C,MON=YES,CODE=
              1057            %S$AVRTYP,
       82     1058                  SEV=SEV_SCREECH,LRM=YES,
       83     1059                  CFUS=YES,ASAVE=NO,ENQ=NO,DS4=NO,DS5=NO,DS6=NO,DS7=NO,
       84     1060                  LDCTS=YES,PPUT=NO,SHJIT=NO,CWSPT=NO,PMST=NO,
       85     1061                  PMDATA=NO,MPROC=NO,CUSR=NO,CUSRS=NO,IOUSRS=NO,ALLUSR=NO,
       86     1062                  SPBUF=NO,FMBUF=NO,ROSEG=NO,ISEG=NO,DDSEG=NO,DBSEG=NO,
       87     1063                  ASLSEG=NO,CPSEG=NO);
       88     1133        /**/
       89     1134        %VLP_SUA    (STCLASS=CONSTANT SYMDEF,FPTN=SC_STRSERR,FCG=FR,MID=P,CODE=%S$STRSERR);
       90     1204        /**/
       91     1205        /**/
       92     1206    1   END;
       93     1207        /**/
       94     1208        /**/
PL6.E3A0      #001=FR_SCREECH_D File=FR_SCRECH_D.:E05TSI                         TUE 07/29/97 17:26 Page:9

PL6.E3A0      #001=FR_SCREECH_D File=FR_SCRECH_D.:E05TSI                         TUE 07/29/97 17:26 Page:10
--  Include file information  --

   JS_CP6.:E05TOU  is referenced.
   FR_SCODE_C.:E05TOU  is referenced.
      No diagnostics issued in procedure FR_SCREECH_D.
PL6.E3A0      #001=FR_SCREECH_D File=FR_SCRECH_D.:E05TSI                         TUE 07/29/97 17:26 Page:11

 **** Variables and constants ****


   No code generated for procedure FR_SCREECH_D .
   Procedure FR_SCREECH_D requires 4 words of local(AUTO) storage.

    No errors detected in file FR_SCRECH_D.:E05TSI    .
PL6.E3A0      #001=FR_SCREECH_D File=FR_SCRECH_D.:E05TSI                         TUE 07/29/97 17:26 Page:12
          *** CROSS REFERENCE LISTING ***
**     DENOTES     IDENTIFIER DEFINITION
<<                 IDENTIFIER'S VALUE SET
>>                 IDENTIFIER'S VALUE USED
<>                 IDENTIFIER SET AND/OR USED
--                 IDENTIFIER REFERENCED
PL6.E3A0      #001=FR_SCREECH_D File=FR_SCRECH_D.:E05TSI                         TUE 07/29/97 17:26 Page:13
          MINI XREF LISTING

