PL6.E3A0      #002=FSE$GETGRAN File=FSE$FORMAT.:E05TSI                           TUE 07/29/97 17:31 Page:263
     1474        1        /*T***********************************************************/
     1475        2        /*T*                                                         */
     1476        3        /*T* Copyright (c) Bull HN Information Systems Inc., 1997    */
     1477        4        /*T*                                                         */
     1478        5        /*T***********************************************************/
     1479        6        /*F*    NAME: FSE$GETGRAN
     1480        7                PURPOSE: FSE$GETGRAN is the granule getter for SYMBIONT files.
     1481        8                DESCRIPTION:  FSE$GETGRAN is just like FAF$GETGRAN (which it
     1482        9                   calls), except that it ALTRETs with JIT.ERR zero when it
     1483       10                   is time to break the symbiont output into another file.
     1484       11        */
     1485       12        /*D*    NAME: FSE$GETGRAN
     1486       13                CALL: CALL  FSE$GETGRAN(DA)ALTRET;
     1487       14                INTERFACE: FAF$GETGRAN
     1488       15                INPUT: DCB pointed to by B$JIT.DCB$.
     1489       16                OUTPUT: DA contains the disk address of another granule.
     1490       17        */
     1491       18        FSE$GETGRAN: PROC(DA)ALTRET;
     1492       19    1   DCL DA SBIN;
     1493       20        /***   DATA REFERENCES   ***/
     1494       21    1   DCL B$JIT$ PTR SYMREF;
     1495       22    1   DCL F$CFU$ PTR SYMREF;
     1496       23        /***   ENTRY REFERENCES   ***/
     1497       24    1   DCL FAF$GETGRAN ENTRY(1)ALTRET;
     1498       25        /***   INCLUDES, ETC.   ***/
     1499       26        %INCLUDE F$JIT_C;
     1500      456        %INCLUDE F$DCB;
     1501      505        %INCLUDE FM$MACROS;
     1502      880        %INCLUDE CP_6_SUBS;
     1503     1420        %FM$CFU(BASED="BASED(CFU$)");
     1504     1426        %FM$CFUEXT;
     1505     1430    1   DCL FSE_CHUNK UBIN STATIC SYMDEF INIT(1);
     1506     1431    1   DCL FSE_CHUNKSIZ UBIN STATIC SYMDEF INIT(70);
     1507     1432        /***   AUTOMATIC   ***/
     1508     1433    1   DCL CFU$ PTR;
     1509     1434        /**/
     1510     1435    1           CFU$=B$JIT.DCB$->F$DCB.CFU$;
PL6.E3A0      #002=FSE$GETGRAN File=FSE$FORMAT.:E05TSI                           TUE 07/29/97 17:31 Page:264
     1511     1436    1           IF FM$CFU.NGAVAL=0 THEN
     1512     1437    2              IF FM$CFU.UGRANS>=FSE_CHUNKSIZ THEN DO;
     1513     1438    2                 IF B$JIT.DCB$->F$DCB.ASN~=%FILE# AND
     1514     1439    3                   FSE_CHUNK~=0 THEN DO;
     1515     1440    3                    B$JIT.ERR='000000000005'O;
     1516     1441    3                    ALTRETURN;
     1517     1442    3                    END;
     1518     1443    2                 END;
     1519     1444    1           CALL FAF$GETGRAN(DA)ALTRET(ALTR);
     1520     1445    1           RETURN;
     1521     1446    1   ALTR:   ALTRETURN;
     1522     1447    1   END FSE$GETGRAN;

PL6.E3A0      #002=FSE$GETGRAN File=FSE$FORMAT.:E05TSI                           TUE 07/29/97 17:31 Page:265
--  Include file information  --

   CP_6_SUBS.:E05TOU  is referenced.
   FM$MACROS.:E05TOU  is referenced.
   F$DCB.:E05TOU  cannot be made into a system file and is referenced.
   B$JIT_C.:E05TOU  is referenced.
   F$JIT_C.:E05TOU  cannot be made into a system file and is referenced.
      No diagnostics issued in procedure FSE$GETGRAN.

   Procedure FSE$GETGRAN requires 29 words for executable code.
   Procedure FSE$GETGRAN requires 6 words of local(AUTO) storage.

    No errors detected in file FSE$FORMAT.:E05TSI    .

PL6.E3A0      #002=FSE$GETGRAN File=FSE$FORMAT.:E05TSI                           TUE 07/29/97 17:31 Page:266

 Object Unit name= FSE$GETGRAN                                File name= FSE$FORMAT.:E05TOU
 UTS= JUL 29 '97 17:31:38.88 TUE                              Compiler= PL-6/E31         Sev=      00
 SharedLib= :SHARED_SYSTEM                                    Alt SharedLib=


    ****  Control sections  ****

 Sect   Type Bound  Init  Size OctSiz  Section name(segment info)
    0   Data  even  none     2      2  FSE$GETGRAN
    1   Proc  even  none    29     35  FSE$GETGRAN

    ****  Entry defs  ****

                              Check   Calling
                             calling  sequence
  Sect OctLoc Primary Altret sequence   type   Parms  Name
     1      0   yes    yes     yes      Std        1  FSE$GETGRAN

  ****  Data defs  ****

 Sect OctLoc  Name                           Sect OctLoc  Name
    0      0  FSE_CHUNK                          0      1  FSE_CHUNKSIZ

  ****  Entry refs  ****

         Check        Calling
        calling       sequence
Altret sequence SRef   type   Args  Name
 yes     yes           Std       1 FAF$GETGRAN
                       Std       0 B_CONSPOOL_D
                       nStd      0 X66_AUTO_1
                       nStd      0 X66_AALT
                       nStd      0 X66_ARET
PL6.E3A0      #002=FSE$GETGRAN File=FSE$FORMAT.:E05TSI                           TUE 07/29/97 17:31 Page:267

  ****  Data refs  ****

  Flags:  r = read only, s = secondary
Flgs Name                             Flgs Name                             Flgs Name
     B$JIT$                                B_VECTNIL
PL6.E3A0      #002=FSE$GETGRAN File=FSE$FORMAT.:E05TSI                           TUE 07/29/97 17:31 Page:268


     1474        1        /*T***********************************************************/
     1475        2        /*T*                                                         */
     1476        3        /*T* Copyright (c) Bull HN Information Systems Inc., 1997    */
     1477        4        /*T*                                                         */
     1478        5        /*T***********************************************************/
     1479        6        /*F*    NAME: FSE$GETGRAN
     1480        7                PURPOSE: FSE$GETGRAN is the granule getter for SYMBIONT files.
     1481        8                DESCRIPTION:  FSE$GETGRAN is just like FAF$GETGRAN (which it
     1482        9                   calls), except that it ALTRETs with JIT.ERR zero when it
     1483       10                   is time to break the symbiont output into another file.
     1484       11        */
     1485       12        /*D*    NAME: FSE$GETGRAN
     1486       13                CALL: CALL  FSE$GETGRAN(DA)ALTRET;
     1487       14                INTERFACE: FAF$GETGRAN
     1488       15                INPUT: DCB pointed to by B$JIT.DCB$.
     1489       16                OUTPUT: DA contains the disk address of another granule.
     1490       17        */
     1491       18        FSE$GETGRAN: PROC(DA)ALTRET;

     18  1 000000   000000 700200 xent  FSE$GETGRAN  TSX0  ! X66_AUTO_1
         1 000001   000006 000001                    ZERO    6,1

     1492       19    1   DCL DA SBIN;
     1493       20        /***   DATA REFERENCES   ***/
     1494       21    1   DCL B$JIT$ PTR SYMREF;
     1495       22    1   DCL F$CFU$ PTR SYMREF;
     1496       23        /***   ENTRY REFERENCES   ***/
     1497       24    1   DCL FAF$GETGRAN ENTRY(1)ALTRET;
     1498       25        /***   INCLUDES, ETC.   ***/
     1499       26        %INCLUDE F$JIT_C;
     1500      456        %INCLUDE F$DCB;
     1501      505        %INCLUDE FM$MACROS;
     1502      880        %INCLUDE CP_6_SUBS;
     1503     1420        %FM$CFU(BASED="BASED(CFU$)");
     1504     1426        %FM$CFUEXT;
     1505     1430    1   DCL FSE_CHUNK UBIN STATIC SYMDEF INIT(1);
PL6.E3A0      #002=FSE$GETGRAN File=FSE$FORMAT.:E05TSI                           TUE 07/29/97 17:31 Page:269
     1506     1431    1   DCL FSE_CHUNKSIZ UBIN STATIC SYMDEF INIT(70);
     1507     1432        /***   AUTOMATIC   ***/
     1508     1433    1   DCL CFU$ PTR;
     1509     1434        /**/
     1510     1435    1           CFU$=B$JIT.DCB$->F$DCB.CFU$;

   1435  1 000002   000000 470400 xsym               LDP0    B$JIT$
         1 000003   000232 471500                    LDP1    154,,PR0
         1 000004   100066 236100                    LDQ     54,,PR1
         1 000005   200004 756100                    STQ     CFU$,,AUTO

     1511     1436    1           IF FM$CFU.NGAVAL=0 THEN

   1436  1 000006   200004 473500                    LDP3    CFU$,,AUTO
         1 000007   300007 236100                    LDQ     7,,PR3
         1 000010   000032 316000 xsym               CANQ    B_VECTNIL+26
         1 000011   000027 601000 1                  TNZ     s:1444

     1512     1437    2              IF FM$CFU.UGRANS>=FSE_CHUNKSIZ THEN DO;

   1437  1 000012   300004 236100                    LDQ     4,,PR3
         1 000013   000032 376000 xsym               ANQ     B_VECTNIL+26
         1 000014   000001 116000 0                  CMPQ    FSE_CHUNKSIZ
         1 000015   000027 602000 1                  TNC     s:1444

     1513     1438    2                 IF B$JIT.DCB$->F$DCB.ASN~=%FILE# AND

   1438  1 000016   100032 236100                    LDQ     26,,PR1
         1 000017   777000 376007                    ANQ     -512,DL
         1 000020   001000 116007                    CMPQ    512,DL
         1 000021   000027 600000 1                  TZE     s:1444
         1 000022   000000 235000 0                  LDA     FSE_CHUNK
         1 000023   000027 600000 1                  TZE     s:1444

     1514     1439    3                   FSE_CHUNK~=0 THEN DO;

     1515     1440    3                    B$JIT.ERR='000000000005'O;
PL6.E3A0      #002=FSE$GETGRAN File=FSE$FORMAT.:E05TSI                           TUE 07/29/97 17:31 Page:270

   1440  1 000024   000007 236000 xsym               LDQ     B_VECTNIL+7
         1 000025   000012 756100                    STQ     10,,PR0

     1516     1441    3                    ALTRETURN;

   1441  1 000026   000000 702200 xent               TSX2  ! X66_AALT

     1517     1442    3                    END;
     1518     1443    2                 END;
     1519     1444    1           CALL FAF$GETGRAN(DA)ALTRET(ALTR);

   1444  1 000027   200003 630500                    EPPR0   @DA,,AUTO
         1 000030   000017 631400 xsym               EPPR1   B_VECTNIL+15
         1 000031   000000 701000 xent               TSX1    FAF$GETGRAN
         1 000032   000034 702000 1                  TSX2    ALTR

     1520     1445    1           RETURN;

   1445  1 000033   000000 702200 xent               TSX2  ! X66_ARET

     1521     1446    1   ALTR:   ALTRETURN;

   1446  1 000034   000000 702200 xent  ALTR         TSX2  ! X66_AALT

FSE_CHUNK
 Sect OctLoc
   0     000   000000 000001                                                    ....

FSE_CHUNKSIZ
 Sect OctLoc
   0     001   000000 000106                                                    ...F
     1522     1447    1   END FSE$GETGRAN;

PL6.E3A0      #002=FSE$GETGRAN File=FSE$FORMAT.:E05TSI                           TUE 07/29/97 17:31 Page:271
--  Include file information  --

   CP_6_SUBS.:E05TOU  is referenced.
   FM$MACROS.:E05TOU  is referenced.
   F$DCB.:E05TOU  cannot be made into a system file and is referenced.
   B$JIT_C.:E05TOU  is referenced.
   F$JIT_C.:E05TOU  cannot be made into a system file and is referenced.
      No diagnostics issued in procedure FSE$GETGRAN.
PL6.E3A0      #002=FSE$GETGRAN File=FSE$FORMAT.:E05TSI                           TUE 07/29/97 17:31 Page:272

 **** Variables and constants ****

  ****  Section 000  Data  FSE$GETGRAN

  ****  Scalars and arrays  ****
OctLoc.c.b A Datatyp(siz) R M Lvl/name                 OctLoc.c.b A Datatyp(siz) R M Lvl/name

     0-0-0/w UBIN        r     1 FSE_CHUNK                  1-0-0/w UBIN        r     1 FSE_CHUNKSIZ

  ****  Auto variables  ****

  ****  Scalars and arrays  ****
OctLoc.c.b A Datatyp(siz) R M Lvl/name                 OctLoc.c.b A Datatyp(siz) R M Lvl/name

     3-0-0/w PTR         r     1 @DA                        4-0-0/w PTR         r     1 CFU$
    *0-0-0/w SBIN        r     1 DA

  ****  SYMREF variables  ****

  ****  Scalars and arrays  ****
OctLoc.c.b A Datatyp(siz) R M Lvl/name                 OctLoc.c.b A Datatyp(siz) R M Lvl/name

     0-0-0/w PTR         r     1 B$JIT$

  ****  BASED and DCB variables  ****

  ****  Scalars and arrays  ****
OctLoc.c.b A Datatyp(siz) R M Lvl/name                 OctLoc.c.b A Datatyp(siz) R M Lvl/name

     0-0-0/d STRC(8856)  r     1 B$JIT                      0-0-0/d ASTR(3528)  r     1 F$DCB
     0-0-0/w STRC(288)   r     1 FM$CFU


   Procedure FSE$GETGRAN requires 29 words for executable code.
   Procedure FSE$GETGRAN requires 6 words of local(AUTO) storage.
PL6.E3A0      #002=FSE$GETGRAN File=FSE$FORMAT.:E05TSI                           TUE 07/29/97 17:31 Page:273

    No errors detected in file FSE$FORMAT.:E05TSI    .
PL6.E3A0      #002=FSE$GETGRAN File=FSE$FORMAT.:E05TSI                           TUE 07/29/97 17:31 Page:274
          *** CROSS REFERENCE LISTING ***
**     DENOTES     IDENTIFIER DEFINITION
<<                 IDENTIFIER'S VALUE SET
>>                 IDENTIFIER'S VALUE USED
<>                 IDENTIFIER SET AND/OR USED
--                 IDENTIFIER REFERENCED
PL6.E3A0      #002=FSE$GETGRAN File=FSE$FORMAT.:E05TSI                           TUE 07/29/97 17:31 Page:275
          MINI XREF LISTING

ALTR
      1446**LABEL    1444--CALLALT
B$JIT.DCB$
       443**DCL      1435>>ASSIGN   1438>>IF
B$JIT.ERR
       353**DCL      1440<<ASSIGN
B$JIT.ERR.MID
       354**DCL       354--REDEF
B$JIT$
        21**DCL       348--IMP-PTR  1435>>ASSIGN   1438>>IF       1440>>ASSIGN
CFU$
      1433**DCL      1421--IMP-PTR  1435<<ASSIGN   1436>>IF       1437>>IF
DA
        19**DCL        18--PROC     1444<>CALL
F$DCB.ACTPOS
       482**DCL       482--REDEF
F$DCB.ARS
       457**DCL       457--REDEF
F$DCB.ASN
       472**DCL      1438>>IF
F$DCB.ATTR
       475**DCL       476--REDEF
F$DCB.BORROW
       490**DCL       490--REDEF     490--REDEF     490--REDEF
F$DCB.CFU$
       491**DCL      1435>>ASSIGN
F$DCB.DCBNAME.L
       504**DCL       504--IMP-SIZ
F$DCB.EOMCHAR
       461**DCL       461--REDEF
F$DCB.FLDID
       485**DCL       485--REDEF
PL6.E3A0      #002=FSE$GETGRAN File=FSE$FORMAT.:E05TSI                           TUE 07/29/97 17:31 Page:276
F$DCB.FORM$
       479**DCL       479--REDEF
F$DCB.FSECT
       495**DCL       495--REDEF
F$DCB.FSN
       472**DCL       472--REDEF     472--REDEF     473--REDEF
F$DCB.HEADER$
       478**DCL       478--REDEF
F$DCB.IXTNSIZE
       476**DCL       476--REDEF
F$DCB.LASTSTA$
       466**DCL       466--REDEF
F$DCB.LVL
       491**DCL       491--REDEF
F$DCB.NAME.C
       466**DCL       466--REDEF
F$DCB.NOEOF
       487**DCL       487--REDEF
F$DCB.NRECS
       477**DCL       477--REDEF
F$DCB.NRECX
       496**DCL       496--REDEF
F$DCB.OHDR
       488**DCL       488--REDEF
F$DCB.ORG
       471**DCL       471--REDEF
F$DCB.PRECNO
       494**DCL       494--REDEF
F$DCB.RCSZ
       499**DCL       499--REDEF
F$DCB.RES
       467**DCL       467--REDEF
F$DCB.SETX
       479**DCL       479--REDEF
F$DCB.TAB$
       478**DCL       479--REDEF
PL6.E3A0      #002=FSE$GETGRAN File=FSE$FORMAT.:E05TSI                           TUE 07/29/97 17:31 Page:277
F$DCB.TDA
       493**DCL       493--REDEF
F$DCB.WSN
       468**DCL       468--REDEF
FAF$GETGRAN
        24**DCL-ENT  1444--CALL
FM$CFU.ACCTX
      1422**DCL      1422--REDEF
FM$CFU.NGAVAL
      1424**DCL      1436>>IF
FM$CFU.UGRANS
      1423**DCL      1437>>IF
FM$CFUEXT.XTNT
      1427**DCL      1428--REDEF
FSE_CHUNK
      1430**DCL      1438>>IF
FSE_CHUNKSIZ
      1431**DCL      1437>>IF
