VERSION E05

PL6.E3A0      #001=FSK$BANNER File=FSK$BANNER.:E05TSI                            TUE 07/29/97 17:32 Page:1
        1        1        /*M*     FSK$BANNER     - Create batch banners   */
        2        2        /*T***********************************************************/
        3        3        /*T*                                                         */
        4        4        /*T* Copyright (c) Bull HN Information Systems Inc., 1997    */
        5        5        /*T*                                                         */
        6        6        /*T***********************************************************/
        7        7        /*X*DMR,THI=0,PLM=5,IND=5,CTI=5,SDI=5,MCL=10,DCI=5,CSU=5,ECU=5,DTI=2*/
        8        8        FSK$BANNER: PROC(FS$FINST,FS$WRSP,BUFFA,WORKA) ALTRET;
        9        9        /*
       10       10                     FFFFF  SSS  K   K   $   BBBB   AAA  N   N N   N EEEEE RRRR
       11       11                     F     S   S K  K   $$$  B   B A   A N   N N   N E     R   R
       12       12                     F     S     K K   $ $   B   B A   A NN  N NN  N E     R   R
       13       13                     FFFF   SSS  KK     $$$  BBBB  AAAAA N N N N N N EEEE  RRRR
       14       14                     F         S K K     $ $ B   B A   A N  NN N  NN E     R R
       15       15                     F     S   S K  K   $$$  B   B A   A N   N N   N E     R  R
       16       16                     F      SSS  K   K   $   BBBB  A   A N   N N   N EEEEE R   R
       17       17        */
       18       18            %INCLUDE FS_SUPER_C;
       19      781            %FS$BAN_INIT(NAME=FS$FINST,STCLASS="");
       20      838            %FS$WRSP(STCLASS="");
       21      856            %FS$WORKAUTO (NAME=WORKA, STCLASS="");
       22      875            %INCLUDE B$JIT_C;
       23     1189            %B$JIT0;
       24     1278            %U$JIT1;
       25     1352            %A$JIT6X;
       26     1355    1   DCL B$JIT$ PTR SYMREF;
       27     1356            %INCLUDE UM_CP6;
       28     2208            %VLR_SITEINFO(FPTN=SITEINFO,STCLASS=BASED);
       29     2227            %INCLUDE FS$FIT;
       30     2270            %FS_OSFN(STCLASS=BASED);
       31     2284            %INCLUDE F$DCB;
       32     2333            %INCLUDE FM$FIT;
       33     2554            %CODE16;
       34     2562    1   DCL FSK$GETBANNERTEXT ENTRY (4) ALTRET;
       35     2563    1   DCL BUFFA CHAR(256);
       36     2564    1   DCL 1 BUFFER REDEF BUFFA,
       37     2565    1            2 BUFF,
PL6.E3A0      #001=FSK$BANNER File=FSK$BANNER.:E05TSI                            TUE 07/29/97 17:32 Page:2
       38     2566    1                 3 VFC CHAR(1),
       39     2567    1                 3 VFCB REDEF VFC UBIN BYTE UNAL,
       40     2568    1                 3 AREST CHAR(255) UNAL,
       41     2569    1            2 NBUFF(0:255) REDEF BUFF CHAR (1),
       42     2570    1            2 ABUFF REDEF BUFF CHAR (256);
       43     2571    1   DCL FONT_ZERO(0:95) BIT(1) CONSTANT INIT(
       44     2572    1         '1'B*0);
       45     2573            %EJECT;
PL6.E3A0      #001=FSK$BANNER File=FSK$BANNER.:E05TSI                            TUE 07/29/97 17:32 Page:3
       46     2574    1   DCL FONT_ONE(0:83) BIT(72) CONSTANT INIT(
       47     2575    1         '000000000000000000000060'O,
       48     2576    1         '301406030000600000737566'O,
       49     2577    1         '363000000000000120517712'O,
       50     2578    1         '376241200000061771437033'O,
       51     2579    1         '760600000316555414155454'O,
       52     2580    1         '140000302206044213023640'O,
       53     2581    1         '000160701414000000000000'O,
       54     2582    1         '030303014060140300000601'O,
       55     2583    1         '403014060606000000001243'O,
       56     2584    1         '477470520000000000301437'O,
       57     2585    1         '576140600000000000000000'O,
       58     2586    1         '170740606000000077400000'O,
       59     2587    1         '000000000000000000703400'O,
       60     2588    1         '000014141414141406000000'O,
       61     2589    1         '373074361707433700000141'O,
       62     2590    1         '603014060307700000373060'O,
       63     2591    1         '303070607740000373060317'O,
       64     2592    1         '007433700000030342633376'O,
       65     2593    1         '060300000777014077007433'O,
       66     2594    1         '700000373074077307433700'O,
       67     2595    1         '000774060606060606000000'O,
       68     2596    1         '373074337307433700000373'O,
       69     2597    1         '074337407433700000000001'O,
       70     2598    1         '607000160700000000001607'O,
       71     2599    1         '000160701414030303030060'O,
       72     2600    1         '140300000000017700376000'O,
       73     2601    1         '000000300601403030303000'O,
       74     2602    1         '000373064303030000600000'O,
       75     2603    1         '372031152653250700000373'O,
       76     2604    1         '074377707436140000773074'O,
       77     2605    1         '377307437700000373074060'O,
       78     2606    1         '301433700000773074361707'O,
       79     2607    1         '437700000777014076301407'O,
       80     2608    1         '740000777014076301406000'O,
       81     2609    1         '000373074060337433740000'O,
       82     2610    1         '617074377707436140000170'O,
PL6.E3A0      #001=FSK$BANNER File=FSK$BANNER.:E05TSI                            TUE 07/29/97 17:32 Page:4
       83     2611    1         '301406030141700000014060'O,
       84     2612    1         '301407433700000617155474'O,
       85     2613    1         '331466140000603014060301'O,
       86     2614    1         '407740000407076765707436'O,
       87     2615    1         '140000417076365717436040'O,
       88     2616    1         '000373274761707433700000'O,
       89     2617    1         '773074377301406000000373'O,
       90     2618    1         '074361707533700600773074'O,
       91     2619    1            '377371466140000377014037'O,
       92     2620    1         '006037700000774301406030'O,
       93     2621    1         '140600000617074361707433'O,
       94     2622    1         '700000617074361554340400'O,
       95     2623    1         '000617074365727533300000'O,
       96     2624    1         '617066616155436140000615'O,
       97     2625    1         '543406030140600000774060'O,
       98     2626    1         '606060607740000170603014'O,
       99     2627    1         '060301700000601403006014'O,
      100     2628    1         '030140000170140603014061'O,
      101     2629    1         '700000040705244420100400'O,
      102     2630    1         '000000000000000000000177'O,
      103     2631    1         '601403000000000000000000'O,
      104     2632    1         '007363717473540000603015'O,
      105     2633    1         '671747636700000000007760'O,
      106     2634    1         '301403740000014067363717'O,
      107     2635    1         '473540000000007661777403'O,
      108     2636    1         '700000070603077060301400'O,
      109     2637    1         '000000007363717473540676'O,
      110     2638    1         '603015671707436140000060'O,
      111     2639    1         '003406030143740000030001'O,
      112     2640    1         '603014060331474603014666'O,
      113     2641    1         '361546300000160301406030'O,
      114     2642    1         '143740000000016665727536'O,
      115     2643    1         '540000000015671707436140'O,
      116     2644    1         '000000007661707433700000'O,
      117     2645    1         '000015671747636730140000'O,
      118     2646    1         '007363717473540603000015'O,
      119     2647    1         '774341406000000000007760'O,
PL6.E3A0      #001=FSK$BANNER File=FSK$BANNER.:E05TSI                            TUE 07/29/97 17:32 Page:5
      120     2648    1         '174037700000000617614060'O,
      121     2649    1         '300700000000014361707473'O,
      122     2650    1         '540000000014361554340400'O,
      123     2651    1         '000000011156673676140000'O,
      124     2652    1         '000014333070666140000000'O,
      125     2653    1         '014361707473540776000017'O,
      126     2654    1         '703030307740000070603030'O,
      127     2655    1         '060300700000140603014060'O,
      128     2656    1         '301400000340301403030143'O,
      129     2657    1         '400000000017777406030000'O,
      130     2658    1         '000777777777000000006014'O);
      131     2659            %EJECT;
PL6.E3A0      #001=FSK$BANNER File=FSK$BANNER.:E05TSI                            TUE 07/29/97 17:32 Page:6
      132     2660    1   DCL FONT_THREE(0:210) BIT(72) CONSTANT INIT(
      133     2661    1       '777777770000000000000000'O,
      134     2662    1       '000000000000000000000000'O,
      135     2663    1       '000000000000004000700076'O,
      136     2664    1       '003700174003400160002000'O,
      137     2665    1       '000016000700034006300314'O,
      138     2666    1       '014600630000000000000000'O,
      139     2667    1       '000000000000000000000303'O,
      140     2668    1       '014147777377743030141414'O,
      141     2669    1       '140606177767777141406060'O,
      142     2670    1       '014007760631461431461437'O,
      143     2671    1       '400374306314306314607760'O,
      144     2672    1       '030034017701554147614161'O,
      145     2673    1       '400140014001434143714155'O,
      146     2674    1       '407740163700306014300330'O,
      147     2675    1       '007400360015401431540746'O,
      148     2676    1       '016143143703014000600030'O,
      149     2677    1       '001400000000000000000000'O,
      150     2678    1       '000000000000000000300030'O,
      151     2679    1       '003000140006000300014000'O,
      152     2680    1       '600030001400030000600300'O,
      153     2681    1       '006000140006000300014000'O,
      154     2682    1       '600030001400060006000600'O,
      155     2683    1       '000000600231005500170177'O,
      156     2684    1       '767777017001320114400600'O,
      157     2685    1       '000000000060003000140006'O,
      158     2686    1       '017776777700600030001400'O,
      159     2687    1       '060000000000000000000000'O,
      160     2688    1       '000000000000000070003400'O,
      161     2689    1       '060003000300000000000000'O,
      162     2690    1       '000000000177777777400000'O,
      163     2691    1       '000000000000000000000000'O,
      164     2692    1       '000000000000000000000000'O,
      165     2693    1       '000000001600070003400001'O,
      166     2694    1       '400140014001400140014001'O,
      167     2695    1       '400140014001400140014000'O,
      168     2696    1       '077407770600660017000740'O,
PL6.E3A0      #001=FSK$BANNER File=FSK$BANNER.:E05TSI                            TUE 07/29/97 17:32 Page:7
      169     2697    1       '036001700074003300307770'O,
      170     2698    1       '177001400160017000140006'O,
      171     2699    1       '000300014000600030001400'O,
      172     2700    1       '060003003777377774003000'O,
      173     2701    1       '140006000600140030006001'O,
      174     2702    1       '400377777777377737777400'O,
      175     2703    1       '300014000600360017000060'O,
      176     2704    1       '003600177776777600300034'O,
      177     2705    1       '003600330031403060303037'O,
      178     2706    1       '777777700300014000607777'O,
      179     2707    1       '777774000600030001777677'O,
      180     2708    1       '774000600036001777767776'O,
      181     2709    1       '377777777400060003000177'O,
      182     2710    1       '767777700074003600177776'O,
      183     2711    1       '777677777777540140014001'O,
      184     2712    1       '400140006000600030003000'O,
      185     2713    1       '140006003777377774003600'O,
      186     2714    1       '170006777637773000740036'O,
      187     2715    1       '001777767776377737777400'O,
      188     2716    1       '360017000777773777400060'O,
      189     2717    1       '003000177776777600000070'O,
      190     2718    1       '003400160000000000000000'O,
      191     2719    1       '000034001600070000000000'O,
      192     2720    1       '000000340016000700000000'O,
      193     2721    1       '000070003400060003000300'O,
      194     2722    1       '001400140014001400140014'O,
      195     2723    1       '000600014000300006000140'O,
      196     2724    1       '003000000000000007777777'O,
      197     2725    1       '760000000037777777700000'O,
      198     2726    1       '000000000600014000300006'O,
      199     2727    1       '000140003000140014001400'O,
      200     2728    1       '140014001400177617775400'O,
      201     2729    1       '360015401400140034007000'O,
      202     2730    1       '300000000600030037773777'O,
      203     2731    1       '740036001717475763663173'O,
      204     2732    1       '147546366317377647763777'O,
      205     2733    1       '377774003600170007777777'O,
PL6.E3A0      #001=FSK$BANNER File=FSK$BANNER.:E05TSI                            TUE 07/29/97 17:32 Page:8
      206     2734    1       '777000740036001700074003'O,
      207     2735    1       '777737777400360017000777'O,
      208     2736    1       '767777300074003600177777'O,
      209     2737    1       '777637773777740036000300'O,
      210     2738    1       '014000600030001400060017'O,
      211     2739    1       '777677767776377754003600'O,
      212     2740    1       '170007400360017000740036'O,
      213     2741    1       '001777757774777777777400'O,
      214     2742    1       '060003000177407760300014'O,
      215     2743    1       '000600037777777777777777'O,
      216     2744    1       '740006000300017740776030'O,
      217     2745    1       '001400060003000140003777'O,
      218     2746    1       '377774003600170001400060'O,
      219     2747    1       '173007740036003777767773'O,
      220     2748    1       '600170007400360017000777'O,
      221     2749    1       '777777700074003600170007'O,
      222     2750    1       '400317740776003000140006'O,
      223     2751    1       '000300014000600030001400'O,
      224     2752    1       '776037700001400060003000'O,
      225     2753    1       '140006000300014000600036'O,
      226     2754    1       '001777767776600170031406'O,
      227     2755    1       '061403300160007000330014'O,
      228     2756    1       '300603030031400360003000'O,
      229     2757    1       '140006000300014000600030'O,
      230     2758    1       '001400060017777777776001'O,
      231     2759    1       '740177017661570707410360'O,
      232     2760    1       '017000740036001700074003'O,
      233     2761    1       '600174007700366017140743'O,
      234     2762    1       '036061701474033600770017'O,
      235     2763    1       '400337773777741436037700'O,
      236     2764    1       '074003600170007400360017'O,
      237     2765    1       '777677767777377774003600'O,
      238     2766    1       '170007777777773000140006'O,
      239     2767    1       '000300014000377437771401'O,
      240     2768    1       '460063003140146006300314'O,
      241     2769    1       '354607637776776777773777'O,
      242     2770    1       '740036001700077777777730'O,
PL6.E3A0      #001=FSK$BANNER File=FSK$BANNER.:E05TSI                            TUE 07/29/97 17:32 Page:9
      243     2771    1       '061401460033001540063777'O,
      244     2772    1       '377774003600030001777637'O,
      245     2773    1       '774000600036001777767776'O,
      246     2774    1       '777737774030001400060003'O,
      247     2775    1       '000140006000300014000600'O,
      248     2776    1       '030060017000740036001700'O,
      249     2777    1       '074003600170007400360017'O,
      250     2778    1       '777677766001700066006300'O,
      251     2779    1       '306030301406140306006600'O,
      252     2780    1       '330007000340600170007400'O,
      253     2781    1       '360017000740036001707075'O,
      254     2782    1       '433740774017400370037401'O,
      255     2783    1       '630140614015400340016001'O,
      256     2784    1       '540143014063401760076003'O,
      257     2785    1       '140303030063001700030001'O,
      258     2786    1       '400060003000140006000300'O,
      259     2787    1       '777737774003400340034003'O,
      260     2788    1       '400340034003400340037775'O,
      261     2789    1       '777677777777777777777777'O,
      262     2790    1       '777777777777777777777777'O*0);
      263     2791            %EJECT;
PL6.E3A0      #001=FSK$BANNER File=FSK$BANNER.:E05TSI                            TUE 07/29/97 17:32 Page:10
      264     2792    1   DCL FONT_FOUR(0:54) BIT(72) CONSTANT INIT(
      265     2793    1       '777777777777777777600000'O,
      266     2794    1       '000000001020410200100052'O,
      267     2795    1       '400000000005127653724500'O,
      268     2796    1       '107243425610030621042114'O,
      269     2797    1       '300622504254464004200000'O,
      270     2798    1       '000000210204102020040410'O,
      271     2799    1       '204104000125676725000001'O,
      272     2800    1       '023710200000000000010400'O,
      273     2801    1       '000007600000000000000143'O,
      274     2802    1       '000001042104000035061430'O,
      275     2803    1       '613400430204102160072102'O,
      276     2804    1       '104217407604214061340214'O,
      277     2805    1       '307702041017604170142700'O,
      278     2806    1       '350607506134037021042102'O,
      279     2807    1       '000721427214270035061360'O,
      280     2808    1       '613400000004002000000000'O,
      281     2809    1       '200104000210420202020000'O,
      282     2810    1       '003776000010101010421000'O,
      283     2811    1       '105021020010016436755501'O,
      284     2812    1       '700721437614304075061750'O,
      285     2813    1       '617401643020410560172143'O,
      286     2814    1       '061437007702075020760374'O,
      287     2815    1       '103641020007214102342700'O,
      288     2816    1       '430617706142016102041021'O,
      289     2817    1       '600041020614270043124612'O,
      290     2818    1       '224202041020410370107353'O,
      291     2819    1       '061430404307153161420165'O,
      292     2820    1       '326343056017214372041000'O,
      293     2821    1       '350614326334036430765112'O,
      294     2822    1       '100721407014270076204102'O,
      295     2823    1       '041002143061430560106143'O,
      296     2824    1       '061242004306153265240214'O,
      297     2825    1       '250425061010612420410200'O,
      298     2826    1       '760421042076006102041020'O,
      299     2827    1       '600020202020200030204102'O,
      300     2828    1       '043000000004250610000000'O,
PL6.E3A0      #001=FSK$BANNER File=FSK$BANNER.:E05TSI                            TUE 07/29/97 17:32 Page:11
      301     2829    1       '000000373030300000000000'O,        /*ELEMENT 36 */
      302     2830    1       '001747157000306173163700'O,
      303     2831    1       '000003743036000061574715'O,
      304     2832    1       '700000350776070000354766'O,
      305     2833    1       '143000000723467433403061'O,
      306     2834    1       '731634400060034614300001'O,
      307     2835    1       '400614306700306353465440'O,
      308     2836    1       '007061430614000000165326'O,
      309     2837    1       '500000017316344000000350'O,
      310     2838    1       '613400001731637306000037'O,
      311     2839    1       '163361430000067630600000'O,
      312     2840    1       '077034176000143175430340'O,
      313     2841    1       '000004716336000000216670'O,
      314     2842    1       '400000012655270000000427'O,
      315     2843    1       '124200000023467437400076'O,
      316     2844    1       '056417401661460614160143'O,
      317     2845    1       '061430614316061414615600'O,
      318     2846    1       '006660000000007777777777'O,
      319     2847    1       '777777777777777777777777'O);
      320     2848            %EJECT;
PL6.E3A0      #001=FSK$BANNER File=FSK$BANNER.:E05TSI                            TUE 07/29/97 17:32 Page:12
      321     2849    1   DCL 1 FONT_ADDRS(0:FS_FONT#) PTR CONSTANT INIT(
      322     2850    1         ADDR(FONT_ZERO),
      323     2851    1         ADDR(FONT_ONE),
      324     2852    1         ADDR(FONT_THREE),
      325     2853    1         ADDR(FONT_FOUR)
      326     2854    1         );
      327     2855    1   DCL 1 FONT_HEIGHT(0:FS_FONT#) SBIN CONSTANT INIT(
      328     2856    1         1,
      329     2857    1         9,
      330     2858    1         12,
      331     2859    1         8
      332     2860    1         );
      333     2861    1   DCL 1 FONT_WIDTH(0:FS_FONT#) UBIN CONSTANT INIT(
      334     2862    1         1,
      335     2863    1         7,
      336     2864    1         13,
      337     2865    1         5
      338     2866    1         );
      339     2867    1   DCL FONT_OFF(0:FS_FONT#) UBIN BYTE UNAL CONSTANT INIT(
      340     2868    1       0,
      341     2869    1       0,
      342     2870    1       24,
      343     2871    1       56
      344     2872    1       );
      345     2873            %EJECT;
PL6.E3A0      #001=FSK$BANNER File=FSK$BANNER.:E05TSI                            TUE 07/29/97 17:32 Page:13
      346     2874    1   DCL CSET(0:9) CHAR(1) CONSTANT INIT(
      347     2875    1            'H',
      348     2876    1            'Z',
      349     2877    1            '#',
      350     2878    1            '$',
      351     2879    1            '*',
      352     2880    1            '%',
      353     2881    1            '&',
      354     2882    1            '@',
      355     2883    1            '?',
      356     2884    1            '0');
      357     2885    1   DCL LOGOMAT(0:19) BIT(36) CONSTANT INIT(
      358     2886    1            '377777776000'O,
      359     2887    1            '777777777000'O,
      360     2888    1            '700000007000'O,
      361     2889    1            '707777707000'O,
      362     2890    1            '717777747000'O,
      363     2891    1            '716000340000'O,
      364     2892    1            '716176340000'O,
      365     2893    1            '716343340000'O,
      366     2894    1            '716340340000'O,
      367     2895    1            '716340340000'O,
      368     2896    1            '716343700000'O,
      369     2897    1            '716340000000'O,
      370     2898    1            '716377700000'O,
      371     2899    1            '716340340000'O,
      372     2900    1            '716340340000'O,
      373     2901    1            '716340347000'O,
      374     2902    1            '716177707000'O,
      375     2903    1            '700000007000'O,
      376     2904    1            '777777777000'O,
      377     2905    1            '377777776000'O
      378     2906    1                 );
      379     2907            %EJECT;
PL6.E3A0      #001=FSK$BANNER File=FSK$BANNER.:E05TSI                            TUE 07/29/97 17:32 Page:14
      380     2908    1   DCL CURR_ENTRY SBIN WORD;
      381     2909    1   DCL LOGOLEN SBIN CONSTANT INIT(20);
      382     2910    1   DCL I SBIN WORD;
      383     2911    1   DCL CREP SBIN;
      384     2912    1   DCL SCOL UBIN;
      385     2913    1   DCL FONTINDX SBIN;
      386     2914    1   DCL PRT_POS UBIN;
      387     2915    1   DCL DROW SBIN;
      388     2916    1   DCL THEIGHT SBIN;
      389     2917    1   DCL TEXT CHAR(256) BASED;
      390     2918    1   DCL TEXT2(0:0) CHAR(1) BASED;
      391     2919    1   DCL TEXT$ PTR ALIGNED;
      392     2920    1   DCL LETTER CHAR(1) UNAL;
      393     2921    1   DCL INDX SBIN ALIGNED;
      394     2922    1   DCL POS UBIN ALIGNED;
      395     2923    1   DCL L SBIN ALIGNED;
      396     2924    1   DCL LET$ PTR ALIGNED;
      397     2925    1   DCL BANREC$ PTR ALIGNED;
      398     2926    1   DCL MAT$LET(0:0) BIT(1) BASED UNAL;
      399     2927    1   DCL LLEN SBIN ALIGNED;
      400     2928    1   DCL ENT_FONT SBIN WORD;
      401     2929    1   DCL RDFLAG BIT (1) ALIGNED;
      402     2930    1   DCL 1 ENTRIES,
      403     2931    1            2 ROW UBIN BYTE UNAL,
      404     2932    1            2 COL UBIN BYTE UNAL,
      405     2933    1            2 FONT UBIN BYTE UNAL,
      406     2934    1            2 STRIKES UBIN BYTE UNAL,
      407     2935    1            2 ICSH UBIN BYTE UNAL,
      408     2936    1            2 REPS UBIN BYTE UNAL,
      409     2937    1            2 RINC UBIN BYTE UNAL,
      410     2938    1            2 CINC UBIN BYTE UNAL,
      411     2939    1            2 TYPE UBIN BYTE UNAL,
      412     2940    1            2 DISP UBIN HALF UNAL,
      413     2941    1            2 B REDEF DISP,
      414     2942    1                 3 START UBIN BYTE UNAL,
      415     2943    1                 3 LEN UBIN BYTE UNAL,
      416     2944    1            2 COUNT UBIN BYTE UNAL,
PL6.E3A0      #001=FSK$BANNER File=FSK$BANNER.:E05TSI                            TUE 07/29/97 17:32 Page:15
      417     2945    1            2 CHR REDEF COUNT CHAR(1),
      418     2946    1            2 TOTLEN UBIN(27) UNAL,
      419     2947    1            2 MARK UBIN BYTE UNAL;
      420     2948            %EJECT;
PL6.E3A0      #001=FSK$BANNER File=FSK$BANNER.:E05TSI                            TUE 07/29/97 17:32 Page:16
      421     2949    1        RDFLAG = '0'B;
      422     2950    1        BANREC$ = PINCRC (ADDR(WORKA),SIZEC(WORKA));
      423     2951    1        IF FS$WRSP.START=0
      424     2952    1        THEN                               /* FIRST TIME.  SET UP ENTRIES. */
      425     2953    2          DO;
      426     2954    2               FS$WRSP.MAXROW=0;
      427     2955    3               DO CURR_ENTRY=0 TO FS$FINST.NUM_ENTRIES-1;
      428     2956    3                    ENTRIES=FS$FINST.ENTRIES(CURR_ENTRY);
      429     2957    4                    DO CASE(ENTRIES.TYPE);
      430     2958    4                    CASE(FS_LOGO_INT);
      431     2959    4                         IF ENTRIES.REPS=0
      432     2960    4                         THEN
      433     2961    4                              ENTRIES.TOTLEN=0; /* BAD */
      434     2962    4                         ELSE
      435     2963    4                              ENTRIES.TOTLEN=(LOGOLEN+ENTRIES.RINC)
      436     2964    4                                   *ENTRIES.REPS-ENTRIES.RINC;
      437     2965    4                    CASE(FS_PLAIN_TEXT, FS_X_INT);
      438     2966    4                         IF ENTRIES.REPS=0
      439     2967    4                         THEN
      440     2968    4                              ENTRIES.TOTLEN=0; /* BAD */
      441     2969    4                         ELSE
      442     2970    4                              ENTRIES.TOTLEN=(FONT_HEIGHT(ENTRIES.FONT)+
      443     2971    4                                   ENTRIES.RINC)*ENTRIES.REPS-ENTRIES.RINC;
      444     2972    4                    CASE(FS_SYSID_INT, FS_ACCN_INT, FS_UNAME_INT, FS_WOO_INT,
      445     2973    4                                   FS_JOBNAME_INT, FS_SUBFILE_INT, FS_VERSION_INT,
      446     2974    4                                   FS_SITENAME_INT, FS_SALUTE_INT, FS_WOD_INT,
      447     2975    4                                   FS_BANNERTEXT0_INT, FS_BANNERTEXT1_INT,
      448     2976    4                                   FS_BANNERTEXT2_INT, FS_BANNERTEXT3_INT,
      449     2977    4                                   FS_BANNERTEXT4_INT, FS_BANNERTEXT5_INT,
      450     2978    4                                   FS_BANNERTEXT6_INT, FS_BANNERTEXT7_INT,
      451     2979    4                                   FS_BANNERTEXT8_INT, FS_BANNERTEXT9_INT,
      452     2980    4                                   FS_REGISTEREDNAME_INT,
      453     2981    4                                   FS_FORM_INT,FS_MINI_ID_INT );
      454     2982    4                         IF ENTRIES.REPS=0 OR FS$FINST.INTR=0
      455     2983    4                         THEN
      456     2984    4                              ENTRIES.TOTLEN=0; /* BAD */
      457     2985    4                         ELSE
PL6.E3A0      #001=FSK$BANNER File=FSK$BANNER.:E05TSI                            TUE 07/29/97 17:32 Page:17
      458     2986    4                              ENTRIES.TOTLEN=(FONT_HEIGHT(ENTRIES.FONT)+
      459     2987    4                                   ENTRIES.RINC)*ENTRIES.REPS-ENTRIES.RINC;
      460     2988    4                    CASE(FS_TIME_INT, FS_DATE_INT);
      461     2989    4                         IF ENTRIES.REPS=0 OR FS$FINST.INTR=0
      462     2990    4                         THEN
      463     2991    4                              ENTRIES.TOTLEN=0; /* BAD */
      464     2992    4                         ELSE
      465     2993    5                           DO;
      466     2994    5                                ENTRIES.TOTLEN=(FONT_HEIGHT(ENTRIES.FONT)+
      467     2995    5                                     ENTRIES.RINC)*ENTRIES.REPS-ENTRIES.RINC;
      468     2996    5                                IF FS$WRSP.FIL~='YES'
      469     2997    5                                THEN
      470     2998    6                                  DO;
      471     2999    6                                       CALL FS$WRSP.DATE_TIME(FS$WRSP.DATE,
      472     3000    6                                            FS$WRSP.TIME);
      473     3001    6                                       FS$WRSP.FIL='YES';
      474     3002    6                                     END;
      475     3003    5                              END;
      476     3004    4                    CASE(ELSE);
      477     3005    4                         ENTRIES.TOTLEN=0; /* BAD */
      478     3006    4                    END;
      479     3007    3                    IF ENTRIES.TOTLEN=0
      480     3008    3                    THEN
      481     3009    3                         ENTRIES.MARK=511; /* BAD */
      482     3010    3                    ELSE
      483     3011    4                      DO;
      484     3012    4                           ENTRIES.MARK=0; /* GOOD */
      485     3013    4                           IF FS$WRSP.MAXROW<ENTRIES.ROW+ENTRIES.TOTLEN
      486     3014    4                           THEN
      487     3015    4                                FS$WRSP.MAXROW=ENTRIES.ROW+ENTRIES.TOTLEN;
      488     3016    4                         END;
      489     3017    3                    FS$FINST.ENTRIES(CURR_ENTRY)=ENTRIES;
      490     3018    3                  END;
      491     3019    2               IF FS$FINST.REPEATS>510
      492     3020    2               THEN
      493     3021    2                    FS$FINST.REPEATS=510;
      494     3022    2               IF FS$FINST.NUM_ENTRIES=0
PL6.E3A0      #001=FSK$BANNER File=FSK$BANNER.:E05TSI                            TUE 07/29/97 17:32 Page:18
      495     3023    2               THEN
      496     3024    2                    FS$WRSP.START=-1;
      497     3025    2               ELSE
      498     3026    2                    FS$WRSP.START=1;
      499     3027    2               FS$WRSP.ROW=1;
      500     3028    2               FS$WRSP.STRIKES=0;
      501     3029    2               FS$WRSP.REPEAT=1;
      502     3030    2               FS$WRSP.WIDTH=FS$WRSP.WIDTH+1;
      503     3031    2               BUFFA='p';                  /* TOP OF FORM */
      504     3032    2               FS$WRSP.MAXBYTES=1;         /* AND ONLY TOP OF FORM */
      505     3033    2               RETURN;
      506     3034    2             END;
      507     3035            %EJECT;
PL6.E3A0      #001=FSK$BANNER File=FSK$BANNER.:E05TSI                            TUE 07/29/97 17:32 Page:19
      508     3036    1        BUFFER.ABUFF='`';             /* START WITH BLANK BUFFER & OVERSTRIKE */
      509     3037    1        FS$WRSP.MAXBYTES=1;
      510     3038    2        DO WHILE(FS$WRSP.ROW<=FS$WRSP.MAXROW);
      511     3039    2             IF FS$WRSP.STRIKES<10
      512     3040    2             THEN
      513     3041    3               DO;
      514     3042    3                    FS$WRSP.STRIKES=FS$WRSP.STRIKES+1;
      515     3043    3                    CALL LOOK ALTRET(ROW_END);
      516     3044    3                    BUFFA = BUFFER.ABUFF;
      517     3045    3                    RETURN;
      518     3046    3                  END;
      519     3047    2   ROW_END:  FS$WRSP.STRIKES=0;
      520     3048    2             FS$WRSP.ROW=FS$WRSP.ROW+1;
      521     3049    2             IF BUFFER.BUFF.VFC='o'        /* HAVE WE INC THE VFC MAX TIMES */
      522     3050    2             THEN
      523     3051    3               DO;
      524     3052    3                    BUFFA='o';
      525     3053    3                    FS$WRSP.ROW=FS$WRSP.ROW-1;
      526     3054    3                    RETURN;
      527     3055    3                  END;
      528     3056    2             BUFFER.BUFF.VFCB = BUFFER.BUFF.VFCB + 1;
      529     3057    2           END;
      530     3058    1        IF FS$WRSP.REPEAT<FS$FINST.REPEATS
      531     3059    1        THEN
      532     3060    2          DO;
      533     3061    2               FS$WRSP.ROW=1;
      534     3062    2               FS$WRSP.REPEAT=FS$WRSP.REPEAT+1;
      535     3063    2               BUFFA='p';
      536     3064    2               RETURN;
      537     3065    2             END;
      538     3066    1        FS$WRSP.START=-1;
      539     3067    1        RETURN;
      540     3068        %EJECT;
PL6.E3A0      #001=FSK$BANNER File=FSK$BANNER.:E05TSI                            TUE 07/29/97 17:32 Page:20
      541     3069    1   LOOK: PROC  ALTRET;                     /* FIND A TEXT ENTRY */
      542     3070    3        DO CURR_ENTRY=0 TO FS$FINST.NUM_ENTRIES-1;
      543     3071    3             ENTRIES=FS$FINST.ENTRIES(CURR_ENTRY);
      544     3072    3             IF ENTRIES.MARK<FS$WRSP.REPEAT
      545     3073    3             THEN
      546     3074    4               DO;
      547     3075    4                    DROW=FS$WRSP.ROW-ENTRIES.ROW;
      548     3076    4                    IF DROW>=0
      549     3077    4                    THEN
      550     3078    4                         IF DROW<ENTRIES.TOTLEN
      551     3079    4                         THEN
      552     3080    5                           DO;
      553     3081    5                                IF ENTRIES.STRIKES>=FS$WRSP.STRIKES
      554     3082    5                                THEN
      555     3083    6                                  DO;
      556     3084    6                                       ENT_FONT=ENTRIES.FONT;
      557     3085    6                                       CALL ADD_TO_REC;
      558     3086    6                                       IF PRT_POS>FS$WRSP.MAXBYTES
      559     3087    6                                       THEN
      560     3088    6                                            FS$WRSP.MAXBYTES=PRT_POS;
      561     3089    6                                     END;
      562     3090    5                              END;
      563     3091    4                         ELSE
      564     3092    4                              FS$FINST.ENTRIES.MARK(CURR_ENTRY)=FS$WRSP.REPEAT;
      565     3093    4                  END;
      566     3094    3           END;
      567     3095    2        IF BUFFER.BUFF.AREST~=' '
      568     3096    2        THEN
      569     3097    2             RETURN;
      570     3098    2        ELSE
      571     3099    2             ALTRETURN;
      572     3100            %EJECT;
PL6.E3A0      #001=FSK$BANNER File=FSK$BANNER.:E05TSI                            TUE 07/29/97 17:32 Page:21
      573     3101    2   ADD_TO_REC: PROC ;                      /* ADD THIS ENTRY TO THE OUTPUT REC */
      574     3102    3        IF ENTRIES.TYPE=FS_LOGO_INT
      575     3103    3        THEN
      576     3104    4          DO;
      577     3105    4               THEIGHT=LOGOLEN+ENTRIES.RINC;
      578     3106    4               CREP=DROW/THEIGHT;
      579     3107    4               SCOL=(CREP*ENTRIES.CINC+ENTRIES.COL);
      580     3108    4               FONTINDX=MOD(DROW,THEIGHT);
      581     3109    4               IF FONTINDX>=LOGOLEN
      582     3110    4               THEN
      583     3111    4                    RETURN;
      584     3112    4               LETTER=CSET(FS$WRSP.STRIKES-1);
      585     3113    4               LET$=ADDR(LOGOMAT(FONTINDX));
      586     3114    4               PRT_POS=SCOL;
      587     3115    4               POS=0;
      588     3116    5               DO WHILE(PRT_POS<=FS$WRSP.WIDTH);
      589     3117    5                    IF LET$->MAT$LET(POS)='1'B
      590     3118    5                    THEN
      591     3119    5                         BUFFER.NBUFF(PRT_POS)=LETTER;
      592     3120    5                    POS=POS+1;
      593     3121    5                    IF POS>27
      594     3122    5                    THEN
      595     3123    5                         RETURN;
      596     3124    5                    PRT_POS=PRT_POS+1;
      597     3125    5                  END;
      598     3126    4               RETURN;
      599     3127    4             END;
      600     3128    3        THEIGHT=FONT_HEIGHT(ENT_FONT)+ENTRIES.RINC;
      601     3129    3        CREP=DROW/THEIGHT;
      602     3130    3        SCOL=(CREP*ENTRIES.CINC+ENTRIES.COL);
      603     3131    3        FONTINDX=MOD(DROW,THEIGHT);
      604     3132    3        IF FONTINDX>=FONT_HEIGHT(ENT_FONT)
      605     3133    3        THEN
      606     3134    3             RETURN;
      607     3135            %EJECT;
PL6.E3A0      #001=FSK$BANNER File=FSK$BANNER.:E05TSI                            TUE 07/29/97 17:32 Page:22
      608     3136    4        DO CASE(ENTRIES.TYPE);
      609     3137    4        CASE(FS_PLAIN_TEXT);
      610     3138    4             TEXT$=PINCRW(ADDR(FS$FINST),ENTRIES.DISP);
      611     3139    4             WORKA.TWORK.COUNT=ENTRIES.COUNT;
      612     3140    4             WORKA.TWORK.TEXT= SUBSTR (TEXT$->TEXT,0,WORKA.TWORK.COUNT);
      613     3141    4        CASE(FS_X_INT);
      614     3142    4             TEXT$=ADDR(WORKA.TWORK.TEXT);
      615     3143    4             IF FS$WRSP.WIDTH > SCOL THEN
      616     3144    4                  WORKA.TWORK.COUNT = FS$WRSP.WIDTH-SCOL;
      617     3145    4             ELSE
      618     3146    4                  WORKA.TWORK.COUNT=1;
      619     3147    5             DO I=0 TO WORKA.TWORK.COUNT-1;
      620     3148    5                  TEXT$->TEXT2(I)=ENTRIES.CHR;
      621     3149    5                END;
      622     3150    4        CASE(FS_SYSID_INT);
      623     3151    4             WORKA.TWORK.COUNT=6;
      624     3152    4             I=FS$WRSP.JIT$->B$JIT.SYSID;
      625     3153    4             CALL BINCHAR(SUBSTR(WORKA.TWORK.TEXT,0,6),I);
      626     3154    4        CASE(FS_ACCN_INT);
      627     3155    4             WORKA.TWORK.COUNT=SIZEC(B$JIT.ACCN);
      628     3156    4             CALL INSERT(WORKA.TWORK.TEXT,0,SIZEC(B$JIT.ACCN),FS$WRSP.JIT$->B$JIT.ACCN)
              3156                      ;
      629     3157    4        CASE(FS_UNAME_INT);
      630     3158    4             WORKA.TWORK.COUNT=SIZEC(B$JIT.UNAME);
      631     3159    4             CALL INSERT(WORKA.TWORK.TEXT,0,SIZEC(B$JIT.UNAME),FS$WRSP.JIT$->B$JIT.
              3159                      UNAME);
      632     3160    4        CASE(FS_WOO_INT);
      633     3161    4             WORKA.TWORK.COUNT=1+SIZEC(B$JIT.WOO);
      634     3162    4             CALL INSERT(WORKA.TWORK.TEXT,0,1+SIZEC(B$JIT.WOO),FS$WRSP.JIT$->B$JIT.WOO)
              3162                      ;
      635     3163    4        CASE(FS_JOBNAME_INT);
      636     3164    4             WORKA.TWORK.COUNT=SIZEC(B$JIT.JOBNAME);
      637     3165    4             CALL INSERT(WORKA.TWORK.TEXT,0,SIZEC(B$JIT.JOBNAME),B$JIT.JOBNAME);
      638     3166    4        CASE(FS_TIME_INT);
      639     3167    4             WORKA.TWORK.COUNT=5;
      640     3168    4             CALL INSERT(WORKA.TWORK.TEXT,0,5,FS$WRSP.TIME);
      641     3169    4        CASE(FS_DATE_INT);
PL6.E3A0      #001=FSK$BANNER File=FSK$BANNER.:E05TSI                            TUE 07/29/97 17:32 Page:23
      642     3170    4             WORKA.TWORK.COUNT=8;
      643     3171    4             CALL INSERT(WORKA.TWORK.TEXT,0,8,FS$WRSP.DATE);
      644     3172    4        CASE(FS_SUBFILE_INT);
      645     3173    4             WORKA.TWORK.COUNT=6;
      646     3174    4             CALL INSERT(WORKA.TWORK.TEXT,0,6,ADDR(FS$WRSP.SUBFILE$->F$DCB.NAME)->
              3174                      FS_OSFN.NUM);
      647     3175    4        CASE(FS_VERSION_INT);
      648     3176    4             WORKA.TWORK.COUNT=SIZEC(SITEINFO.VERSION#);
      649     3177    4             CALL INSERT(WORKA.TWORK.TEXT,0,SIZEC(SITEINFO.VERSION#),FS$WRSP.SITEINFO->
              3177                      SITEINFO.VERSION#);
      650     3178    4        CASE(FS_SITENAME_INT);
      651     3179    4             WORKA.TWORK.COUNT=FS$WRSP.SITEINFO->SITEINFO.
      652     3180    4                  SITE_NAME#.L;
      653     3181    4             CALL INSERT(WORKA.TWORK.TEXT,0,WORKA.TWORK.COUNT,FS$WRSP.SITEINFO->
              3181                      SITEINFO.SITE_NAME#.C);
      654     3182    4        CASE(FS_SALUTE_INT);
      655     3183    4             WORKA.TWORK.COUNT=FS$WRSP.SITEINFO->SITEINFO.
      656     3184    4                  SALUTATION#.L;
      657     3185    4             CALL INSERT(WORKA.TWORK.TEXT,0,WORKA.TWORK.COUNT,FS$WRSP.SITEINFO->
              3185                      SITEINFO.SALUTATION#.C);
      658     3186    4        CASE(FS_WOD_INT);
      659     3187    4             WORKA.TWORK.COUNT=SIZEC(F$DCB.WSN);
      660     3188    4             CALL INSERT(WORKA.TWORK.TEXT,0,SIZEC(F$DCB.WSN),FS$WRSP.SUBFILE$->F$DCB.
              3188                      WSN);
      661     3189    4        CASE(FS_FORM_INT);
      662     3190    4             WORKA.TWORK.COUNT=SIZEC(CODE16.FORM);
      663     3191    4             CALL INSERT(WORKA.TWORK.TEXT,0,SIZEC(CODE16.FORM),FS$WRSP.SUBFILE$->F$DCB.
              3191                      FORM$->CODE16.FORM);
      664     3192    4        CASE(FS_MINI_ID_INT);
      665     3193    4             WORKA.TWORK.COUNT=SIZEC(SITEINFO.MINI_ID#);
      666     3194    4             CALL INSERT(WORKA.TWORK.TEXT,0,SIZEC(SITEINFO.MINI_ID#),FS$WRSP.SITEINFO->
              3194                      SITEINFO.MINI_ID#);
      667     3195    4        CASE( FS_REGISTEREDNAME_INT );
      668     3196    4             I = 0;
      669     3197    4   RDBANTXT:
      670     3198    4             CALL FSK$GETBANNERTEXT (BANREC$,WORKA.TWORK,RDFLAG, I)
      671     3199    5             WHENALTRETURN DO;
PL6.E3A0      #001=FSK$BANNER File=FSK$BANNER.:E05TSI                            TUE 07/29/97 17:32 Page:24
      672     3200    5                    WORKA.TWORK.TEXT=' ';
      673     3201    5                    WORKA.TWORK.COUNT=1;
      674     3202    5                  END;
      675     3203    4        CASE( FS_BANNERTEXT0_INT ,
      676     3204    4                       FS_BANNERTEXT1_INT ,
      677     3205    4                       FS_BANNERTEXT2_INT ,
      678     3206    4                       FS_BANNERTEXT3_INT ,
      679     3207    4                       FS_BANNERTEXT4_INT ,
      680     3208    4                       FS_BANNERTEXT5_INT ,
      681     3209    4                       FS_BANNERTEXT6_INT ,
      682     3210    4                       FS_BANNERTEXT7_INT ,
      683     3211    4                       FS_BANNERTEXT8_INT ,
      684     3212    4                       FS_BANNERTEXT9_INT );
      685     3213    4             I = ENTRIES.TYPE - FS_BANNERTEXT0_INT;
      686     3214    4             GOTO RDBANTXT;
      687     3215    4        END;
      688     3216    3        IF ENTRIES.COUNT=511
      689     3217    3        THEN
      690     3218    4          DO;
      691     3219    4               IF WORKA.TWORK.COUNT-ENTRIES.B.START<ENTRIES.B.LEN
      692     3220    4               THEN
      693     3221    4                    WORKA.TWORK.COUNT=WORKA.TWORK.COUNT-ENTRIES.B.START;
      694     3222    4               ELSE
      695     3223    4                    WORKA.TWORK.COUNT=ENTRIES.B.LEN;
      696     3224    4               CALL INSERT(WORKA.TWORK.TEXT,0,WORKA.TWORK.COUNT,
      697     3225    4                    SUBSTR(WORKA.TWORK.TEXT,ENTRIES.B.START,WORKA.TWORK.COUNT));
      698     3226    4             END;
      699     3227        %EJECT;
PL6.E3A0      #001=FSK$BANNER File=FSK$BANNER.:E05TSI                            TUE 07/29/97 17:32 Page:25
      700     3228                 /*   THIS STARTS THE CODE */
      701     3229    3        LLEN=FONT_HEIGHT(ENT_FONT)*FONT_WIDTH(ENT_FONT);
      702     3230    3        PRT_POS=SCOL;
      703     3231    3        I=0;
      704     3232    4        DO WHILE (PRT_POS+FONT_WIDTH(ENT_FONT)<=FS$WRSP.WIDTH);
      705     3233    4             LETTER=SUBSTR(WORKA.TWORK.TEXT,I,1);
      706     3234    4             INDX=ASCBIN(LETTER)-32;
      707     3235    4             IF ENT_FONT~=FS_PLAIN_TEXT
      708     3236    4             THEN
      709     3237    5               DO;
      710     3238    5                    IF ENTRIES.STRIKES>1
      711     3239    5                    THEN
      712     3240    5                         LETTER=CSET(FS$WRSP.STRIKES-1);
      713     3241    5                  END;
      714     3242            %EJECT;
PL6.E3A0      #001=FSK$BANNER File=FSK$BANNER.:E05TSI                            TUE 07/29/97 17:32 Page:26
      715     3243    4             IF INDX=-24
      716     3244    4             THEN
      717     3245    5               DO;
      718     3246    5                    IF PRT_POS~=SCOL THEN
      719     3247    5                         PRT_POS=PRT_POS-(FONT_WIDTH(ENT_FONT)+ENTRIES.ICSH);
      720     3248    5                    GOTO BACKSPACE;
      721     3249    5                  END;
      722     3250    4             IF INDX<0 OR INDX>96
      723     3251    4             THEN
      724     3252    5               DO;
      725     3253    5   UNPRINT:         INDX=0;
      726     3254    5                    IF ENT_FONT ~=0
      727     3255    5                    THEN
      728     3256    5                         LETTER=' ';
      729     3257    5                  END;
      730     3258    4             LET$=FONT_ADDRS(ENT_FONT);
      731     3259    4             POS=FONT_OFF(ENT_FONT)+INDX*LLEN+FONTINDX*FONT_WIDTH(ENT_FONT);
      732     3260    5             DO L=0 TO FONT_WIDTH(ENT_FONT)-1;
      733     3261    5                  IF LET$->MAT$LET(POS)='1'B
      734     3262    5                  THEN
      735     3263    5                       BUFFER.NBUFF(PRT_POS)=LETTER;
      736     3264    5                  POS=POS+1;
      737     3265    5                  PRT_POS=PRT_POS+1;
      738     3266    5                END;
      739     3267    4             PRT_POS=PRT_POS+ENTRIES.ICSH;
      740     3268    4   BACKSPACE: I=I+1;
      741     3269    4             IF I>=WORKA.TWORK.COUNT
      742     3270    4             THEN
      743     3271    4                  GOTO BYE;
      744     3272    4           END;
      745     3273    3   BYE: RETURN;
      746     3274    3   END ADD_TO_REC;
      747     3275    2   END LOOK;
      748     3276            %EJECT;
PL6.E3A0      #001=FSK$BANNER File=FSK$BANNER.:E05TSI                            TUE 07/29/97 17:32 Page:27
      749     3277    1   END FSK$BANNER;
      750     3278        %EOD;

PL6.E3A0      #001=FSK$BANNER File=FSK$BANNER.:E05TSI                            TUE 07/29/97 17:32 Page:28
--  Include file information  --

   FM$FIT.:E05TOU  is referenced.
   F$DCB.:E05TOU  cannot be made into a system file and is referenced.
   FS$FIT.:E05TOU  is referenced.
   UM_CP6.:E05TOU  is referenced.
   B$JIT_C.:E05TOU  is referenced.
   FS_SUPER_C.:E05TOU  is referenced.
      No diagnostics issued in procedure FSK$BANNER.

   Procedure FSK$BANNER requires 908 words for executable code.
   Procedure FSK$BANNER requires 38 words of local(AUTO) storage.

PL6.E3A0      #001=FSK$BANNER File=FSK$BANNER.:E05TSI                            TUE 07/29/97 17:32 Page:29

 Object Unit name= FSK$BANNER                                 File name= FSK$BANNER.:E05TOU
 UTS= JUL 29 '97 17:32:45.88 TUE                              Compiler= PL-6/E31         Sev=      00
 SharedLib= :SHARED_SYSTEM                                    Alt SharedLib=


    ****  Control sections  ****

 Sect   Type Bound  Init  Size OctSiz  Section name(segment info)
    0  RoData even  UTS    741   1345  FSK$BANNER
    1   Proc  even  none   908   1614  FSK$BANNER
    2  RoData even  none     6      6  FSK$BANNER

    ****  Entry defs  ****

                              Check   Calling
                             calling  sequence
  Sect OctLoc Primary Altret sequence   type   Parms  Name
     1      0   yes    yes     yes      Std        4  FSK$BANNER

  ****  Entry refs  ****

         Check        Calling
        calling       sequence
Altret sequence SRef   type   Args  Name
 yes     yes           Std       4 FSK$GETBANNERTEXT
                       nStd      0 X66_AUTO_4
                       Std       0 B_CONSPOOL_D
                       nStd      0 X66_ARET

  ****  Data refs  ****

  Flags:  r = read only, s = secondary
Flgs Name                             Flgs Name                             Flgs Name
     B$JIT$                                B_VECTNIL
PL6.E3A0      #001=FSK$BANNER File=FSK$BANNER.:E05TSI                            TUE 07/29/97 17:32 Page:30

  ****  Segment refs  ****

  Flags:  r = read only, s = secondary
Flgs Name                             Flgs Name                             Flgs Name
     ISSID
PL6.E3A0      #001=FSK$BANNER File=FSK$BANNER.:E05TSI                            TUE 07/29/97 17:32 Page:31


        1        1        /*M*     FSK$BANNER     - Create batch banners   */
        2        2        /*T***********************************************************/
        3        3        /*T*                                                         */
        4        4        /*T* Copyright (c) Bull HN Information Systems Inc., 1997    */
        5        5        /*T*                                                         */
        6        6        /*T***********************************************************/
        7        7        /*X*DMR,THI=0,PLM=5,IND=5,CTI=5,SDI=5,MCL=10,DCI=5,CSU=5,ECU=5,DTI=2*/
        8        8        FSK$BANNER: PROC(FS$FINST,FS$WRSP,BUFFA,WORKA) ALTRET;

      8  1 000000   000000 700200 xent  FSK$BANNER   TSX0  ! X66_AUTO_4
         1 000001   000046 000004                    ZERO    38,4

        9        9        /*
       10       10                     FFFFF  SSS  K   K   $   BBBB   AAA  N   N N   N EEEEE RRRR
       11       11                     F     S   S K  K   $$$  B   B A   A N   N N   N E     R   R
       12       12                     F     S     K K   $ $   B   B A   A NN  N NN  N E     R   R
       13       13                     FFFF   SSS  KK     $$$  BBBB  AAAAA N N N N N N EEEE  RRRR
       14       14                     F         S K K     $ $ B   B A   A N  NN N  NN E     R R
       15       15                     F     S   S K  K   $$$  B   B A   A N   N N   N E     R  R
       16       16                     F      SSS  K   K   $   BBBB  A   A N   N N   N EEEEE R   R
       17       17        */
       18       18            %INCLUDE FS_SUPER_C;
       19      781            %FS$BAN_INIT(NAME=FS$FINST,STCLASS="");
       20      838            %FS$WRSP(STCLASS="");
       21      856            %FS$WORKAUTO (NAME=WORKA, STCLASS="");
       22      875            %INCLUDE B$JIT_C;
       23     1189            %B$JIT0;
       24     1278            %U$JIT1;
       25     1352            %A$JIT6X;
       26     1355    1   DCL B$JIT$ PTR SYMREF;
       27     1356            %INCLUDE UM_CP6;
       28     2208            %VLR_SITEINFO(FPTN=SITEINFO,STCLASS=BASED);
       29     2227            %INCLUDE FS$FIT;
       30     2270            %FS_OSFN(STCLASS=BASED);
       31     2284            %INCLUDE F$DCB;
       32     2333            %INCLUDE FM$FIT;
PL6.E3A0      #001=FSK$BANNER File=FSK$BANNER.:E05TSI                            TUE 07/29/97 17:32 Page:32
       33     2554            %CODE16;
       34     2562    1   DCL FSK$GETBANNERTEXT ENTRY (4) ALTRET;
       35     2563    1   DCL BUFFA CHAR(256);
       36     2564    1   DCL 1 BUFFER REDEF BUFFA,
       37     2565    1            2 BUFF,
       38     2566    1                 3 VFC CHAR(1),
       39     2567    1                 3 VFCB REDEF VFC UBIN BYTE UNAL,
       40     2568    1                 3 AREST CHAR(255) UNAL,
       41     2569    1            2 NBUFF(0:255) REDEF BUFF CHAR (1),
       42     2570    1            2 ABUFF REDEF BUFF CHAR (256);
       43     2571    1   DCL FONT_ZERO(0:95) BIT(1) CONSTANT INIT(
       44     2572    1         '1'B*0);
       45     2573            %EJECT;
PL6.E3A0      #001=FSK$BANNER File=FSK$BANNER.:E05TSI                            TUE 07/29/97 17:32 Page:33
       46     2574    1   DCL FONT_ONE(0:83) BIT(72) CONSTANT INIT(
       47     2575    1         '000000000000000000000060'O,
       48     2576    1         '301406030000600000737566'O,
       49     2577    1         '363000000000000120517712'O,
       50     2578    1         '376241200000061771437033'O,
       51     2579    1         '760600000316555414155454'O,
       52     2580    1         '140000302206044213023640'O,
       53     2581    1         '000160701414000000000000'O,
       54     2582    1         '030303014060140300000601'O,
       55     2583    1         '403014060606000000001243'O,
       56     2584    1         '477470520000000000301437'O,
       57     2585    1         '576140600000000000000000'O,
       58     2586    1         '170740606000000077400000'O,
       59     2587    1         '000000000000000000703400'O,
       60     2588    1         '000014141414141406000000'O,
       61     2589    1         '373074361707433700000141'O,
       62     2590    1         '603014060307700000373060'O,
       63     2591    1         '303070607740000373060317'O,
       64     2592    1         '007433700000030342633376'O,
       65     2593    1         '060300000777014077007433'O,
       66     2594    1         '700000373074077307433700'O,
       67     2595    1         '000774060606060606000000'O,
       68     2596    1         '373074337307433700000373'O,
       69     2597    1         '074337407433700000000001'O,
       70     2598    1         '607000160700000000001607'O,
       71     2599    1         '000160701414030303030060'O,
       72     2600    1         '140300000000017700376000'O,
       73     2601    1         '000000300601403030303000'O,
       74     2602    1         '000373064303030000600000'O,
       75     2603    1         '372031152653250700000373'O,
       76     2604    1         '074377707436140000773074'O,
       77     2605    1         '377307437700000373074060'O,
       78     2606    1         '301433700000773074361707'O,
       79     2607    1         '437700000777014076301407'O,
       80     2608    1         '740000777014076301406000'O,
       81     2609    1         '000373074060337433740000'O,
       82     2610    1         '617074377707436140000170'O,
PL6.E3A0      #001=FSK$BANNER File=FSK$BANNER.:E05TSI                            TUE 07/29/97 17:32 Page:34
       83     2611    1         '301406030141700000014060'O,
       84     2612    1         '301407433700000617155474'O,
       85     2613    1         '331466140000603014060301'O,
       86     2614    1         '407740000407076765707436'O,
       87     2615    1         '140000417076365717436040'O,
       88     2616    1         '000373274761707433700000'O,
       89     2617    1         '773074377301406000000373'O,
       90     2618    1         '074361707533700600773074'O,
       91     2619    1            '377371466140000377014037'O,
       92     2620    1         '006037700000774301406030'O,
       93     2621    1         '140600000617074361707433'O,
       94     2622    1         '700000617074361554340400'O,
       95     2623    1         '000617074365727533300000'O,
       96     2624    1         '617066616155436140000615'O,
       97     2625    1         '543406030140600000774060'O,
       98     2626    1         '606060607740000170603014'O,
       99     2627    1         '060301700000601403006014'O,
      100     2628    1         '030140000170140603014061'O,
      101     2629    1         '700000040705244420100400'O,
      102     2630    1         '000000000000000000000177'O,
      103     2631    1         '601403000000000000000000'O,
      104     2632    1         '007363717473540000603015'O,
      105     2633    1         '671747636700000000007760'O,
      106     2634    1         '301403740000014067363717'O,
      107     2635    1         '473540000000007661777403'O,
      108     2636    1         '700000070603077060301400'O,
      109     2637    1         '000000007363717473540676'O,
      110     2638    1         '603015671707436140000060'O,
      111     2639    1         '003406030143740000030001'O,
      112     2640    1         '603014060331474603014666'O,
      113     2641    1         '361546300000160301406030'O,
      114     2642    1         '143740000000016665727536'O,
      115     2643    1         '540000000015671707436140'O,
      116     2644    1         '000000007661707433700000'O,
      117     2645    1         '000015671747636730140000'O,
      118     2646    1         '007363717473540603000015'O,
      119     2647    1         '774341406000000000007760'O,
PL6.E3A0      #001=FSK$BANNER File=FSK$BANNER.:E05TSI                            TUE 07/29/97 17:32 Page:35
      120     2648    1         '174037700000000617614060'O,
      121     2649    1         '300700000000014361707473'O,
      122     2650    1         '540000000014361554340400'O,
      123     2651    1         '000000011156673676140000'O,
      124     2652    1         '000014333070666140000000'O,
      125     2653    1         '014361707473540776000017'O,
      126     2654    1         '703030307740000070603030'O,
      127     2655    1         '060300700000140603014060'O,
      128     2656    1         '301400000340301403030143'O,
      129     2657    1         '400000000017777406030000'O,
      130     2658    1         '000777777777000000006014'O);
      131     2659            %EJECT;
PL6.E3A0      #001=FSK$BANNER File=FSK$BANNER.:E05TSI                            TUE 07/29/97 17:32 Page:36
      132     2660    1   DCL FONT_THREE(0:210) BIT(72) CONSTANT INIT(
      133     2661    1       '777777770000000000000000'O,
      134     2662    1       '000000000000000000000000'O,
      135     2663    1       '000000000000004000700076'O,
      136     2664    1       '003700174003400160002000'O,
      137     2665    1       '000016000700034006300314'O,
      138     2666    1       '014600630000000000000000'O,
      139     2667    1       '000000000000000000000303'O,
      140     2668    1       '014147777377743030141414'O,
      141     2669    1       '140606177767777141406060'O,
      142     2670    1       '014007760631461431461437'O,
      143     2671    1       '400374306314306314607760'O,
      144     2672    1       '030034017701554147614161'O,
      145     2673    1       '400140014001434143714155'O,
      146     2674    1       '407740163700306014300330'O,
      147     2675    1       '007400360015401431540746'O,
      148     2676    1       '016143143703014000600030'O,
      149     2677    1       '001400000000000000000000'O,
      150     2678    1       '000000000000000000300030'O,
      151     2679    1       '003000140006000300014000'O,
      152     2680    1       '600030001400030000600300'O,
      153     2681    1       '006000140006000300014000'O,
      154     2682    1       '600030001400060006000600'O,
      155     2683    1       '000000600231005500170177'O,
      156     2684    1       '767777017001320114400600'O,
      157     2685    1       '000000000060003000140006'O,
      158     2686    1       '017776777700600030001400'O,
      159     2687    1       '060000000000000000000000'O,
      160     2688    1       '000000000000000070003400'O,
      161     2689    1       '060003000300000000000000'O,
      162     2690    1       '000000000177777777400000'O,
      163     2691    1       '000000000000000000000000'O,
      164     2692    1       '000000000000000000000000'O,
      165     2693    1       '000000001600070003400001'O,
      166     2694    1       '400140014001400140014001'O,
      167     2695    1       '400140014001400140014000'O,
      168     2696    1       '077407770600660017000740'O,
PL6.E3A0      #001=FSK$BANNER File=FSK$BANNER.:E05TSI                            TUE 07/29/97 17:32 Page:37
      169     2697    1       '036001700074003300307770'O,
      170     2698    1       '177001400160017000140006'O,
      171     2699    1       '000300014000600030001400'O,
      172     2700    1       '060003003777377774003000'O,
      173     2701    1       '140006000600140030006001'O,
      174     2702    1       '400377777777377737777400'O,
      175     2703    1       '300014000600360017000060'O,
      176     2704    1       '003600177776777600300034'O,
      177     2705    1       '003600330031403060303037'O,
      178     2706    1       '777777700300014000607777'O,
      179     2707    1       '777774000600030001777677'O,
      180     2708    1       '774000600036001777767776'O,
      181     2709    1       '377777777400060003000177'O,
      182     2710    1       '767777700074003600177776'O,
      183     2711    1       '777677777777540140014001'O,
      184     2712    1       '400140006000600030003000'O,
      185     2713    1       '140006003777377774003600'O,
      186     2714    1       '170006777637773000740036'O,
      187     2715    1       '001777767776377737777400'O,
      188     2716    1       '360017000777773777400060'O,
      189     2717    1       '003000177776777600000070'O,
      190     2718    1       '003400160000000000000000'O,
      191     2719    1       '000034001600070000000000'O,
      192     2720    1       '000000340016000700000000'O,
      193     2721    1       '000070003400060003000300'O,
      194     2722    1       '001400140014001400140014'O,
      195     2723    1       '000600014000300006000140'O,
      196     2724    1       '003000000000000007777777'O,
      197     2725    1       '760000000037777777700000'O,
      198     2726    1       '000000000600014000300006'O,
      199     2727    1       '000140003000140014001400'O,
      200     2728    1       '140014001400177617775400'O,
      201     2729    1       '360015401400140034007000'O,
      202     2730    1       '300000000600030037773777'O,
      203     2731    1       '740036001717475763663173'O,
      204     2732    1       '147546366317377647763777'O,
      205     2733    1       '377774003600170007777777'O,
PL6.E3A0      #001=FSK$BANNER File=FSK$BANNER.:E05TSI                            TUE 07/29/97 17:32 Page:38
      206     2734    1       '777000740036001700074003'O,
      207     2735    1       '777737777400360017000777'O,
      208     2736    1       '767777300074003600177777'O,
      209     2737    1       '777637773777740036000300'O,
      210     2738    1       '014000600030001400060017'O,
      211     2739    1       '777677767776377754003600'O,
      212     2740    1       '170007400360017000740036'O,
      213     2741    1       '001777757774777777777400'O,
      214     2742    1       '060003000177407760300014'O,
      215     2743    1       '000600037777777777777777'O,
      216     2744    1       '740006000300017740776030'O,
      217     2745    1       '001400060003000140003777'O,
      218     2746    1       '377774003600170001400060'O,
      219     2747    1       '173007740036003777767773'O,
      220     2748    1       '600170007400360017000777'O,
      221     2749    1       '777777700074003600170007'O,
      222     2750    1       '400317740776003000140006'O,
      223     2751    1       '000300014000600030001400'O,
      224     2752    1       '776037700001400060003000'O,
      225     2753    1       '140006000300014000600036'O,
      226     2754    1       '001777767776600170031406'O,
      227     2755    1       '061403300160007000330014'O,
      228     2756    1       '300603030031400360003000'O,
      229     2757    1       '140006000300014000600030'O,
      230     2758    1       '001400060017777777776001'O,
      231     2759    1       '740177017661570707410360'O,
      232     2760    1       '017000740036001700074003'O,
      233     2761    1       '600174007700366017140743'O,
      234     2762    1       '036061701474033600770017'O,
      235     2763    1       '400337773777741436037700'O,
      236     2764    1       '074003600170007400360017'O,
      237     2765    1       '777677767777377774003600'O,
      238     2766    1       '170007777777773000140006'O,
      239     2767    1       '000300014000377437771401'O,
      240     2768    1       '460063003140146006300314'O,
      241     2769    1       '354607637776776777773777'O,
      242     2770    1       '740036001700077777777730'O,
PL6.E3A0      #001=FSK$BANNER File=FSK$BANNER.:E05TSI                            TUE 07/29/97 17:32 Page:39
      243     2771    1       '061401460033001540063777'O,
      244     2772    1       '377774003600030001777637'O,
      245     2773    1       '774000600036001777767776'O,
      246     2774    1       '777737774030001400060003'O,
      247     2775    1       '000140006000300014000600'O,
      248     2776    1       '030060017000740036001700'O,
      249     2777    1       '074003600170007400360017'O,
      250     2778    1       '777677766001700066006300'O,
      251     2779    1       '306030301406140306006600'O,
      252     2780    1       '330007000340600170007400'O,
      253     2781    1       '360017000740036001707075'O,
      254     2782    1       '433740774017400370037401'O,
      255     2783    1       '630140614015400340016001'O,
      256     2784    1       '540143014063401760076003'O,
      257     2785    1       '140303030063001700030001'O,
      258     2786    1       '400060003000140006000300'O,
      259     2787    1       '777737774003400340034003'O,
      260     2788    1       '400340034003400340037775'O,
      261     2789    1       '777677777777777777777777'O,
      262     2790    1       '777777777777777777777777'O*0);
      263     2791            %EJECT;
PL6.E3A0      #001=FSK$BANNER File=FSK$BANNER.:E05TSI                            TUE 07/29/97 17:32 Page:40
      264     2792    1   DCL FONT_FOUR(0:54) BIT(72) CONSTANT INIT(
      265     2793    1       '777777777777777777600000'O,
      266     2794    1       '000000001020410200100052'O,
      267     2795    1       '400000000005127653724500'O,
      268     2796    1       '107243425610030621042114'O,
      269     2797    1       '300622504254464004200000'O,
      270     2798    1       '000000210204102020040410'O,
      271     2799    1       '204104000125676725000001'O,
      272     2800    1       '023710200000000000010400'O,
      273     2801    1       '000007600000000000000143'O,
      274     2802    1       '000001042104000035061430'O,
      275     2803    1       '613400430204102160072102'O,
      276     2804    1       '104217407604214061340214'O,
      277     2805    1       '307702041017604170142700'O,
      278     2806    1       '350607506134037021042102'O,
      279     2807    1       '000721427214270035061360'O,
      280     2808    1       '613400000004002000000000'O,
      281     2809    1       '200104000210420202020000'O,
      282     2810    1       '003776000010101010421000'O,
      283     2811    1       '105021020010016436755501'O,
      284     2812    1       '700721437614304075061750'O,
      285     2813    1       '617401643020410560172143'O,
      286     2814    1       '061437007702075020760374'O,
      287     2815    1       '103641020007214102342700'O,
      288     2816    1       '430617706142016102041021'O,
      289     2817    1       '600041020614270043124612'O,
      290     2818    1       '224202041020410370107353'O,
      291     2819    1       '061430404307153161420165'O,
      292     2820    1       '326343056017214372041000'O,
      293     2821    1       '350614326334036430765112'O,
      294     2822    1       '100721407014270076204102'O,
      295     2823    1       '041002143061430560106143'O,
      296     2824    1       '061242004306153265240214'O,
      297     2825    1       '250425061010612420410200'O,
      298     2826    1       '760421042076006102041020'O,
      299     2827    1       '600020202020200030204102'O,
      300     2828    1       '043000000004250610000000'O,
PL6.E3A0      #001=FSK$BANNER File=FSK$BANNER.:E05TSI                            TUE 07/29/97 17:32 Page:41
      301     2829    1       '000000373030300000000000'O,        /*ELEMENT 36 */
      302     2830    1       '001747157000306173163700'O,
      303     2831    1       '000003743036000061574715'O,
      304     2832    1       '700000350776070000354766'O,
      305     2833    1       '143000000723467433403061'O,
      306     2834    1       '731634400060034614300001'O,
      307     2835    1       '400614306700306353465440'O,
      308     2836    1       '007061430614000000165326'O,
      309     2837    1       '500000017316344000000350'O,
      310     2838    1       '613400001731637306000037'O,
      311     2839    1       '163361430000067630600000'O,
      312     2840    1       '077034176000143175430340'O,
      313     2841    1       '000004716336000000216670'O,
      314     2842    1       '400000012655270000000427'O,
      315     2843    1       '124200000023467437400076'O,
      316     2844    1       '056417401661460614160143'O,
      317     2845    1       '061430614316061414615600'O,
      318     2846    1       '006660000000007777777777'O,
      319     2847    1       '777777777777777777777777'O);
      320     2848            %EJECT;
PL6.E3A0      #001=FSK$BANNER File=FSK$BANNER.:E05TSI                            TUE 07/29/97 17:32 Page:42
      321     2849    1   DCL 1 FONT_ADDRS(0:FS_FONT#) PTR CONSTANT INIT(
      322     2850    1         ADDR(FONT_ZERO),
      323     2851    1         ADDR(FONT_ONE),
      324     2852    1         ADDR(FONT_THREE),
      325     2853    1         ADDR(FONT_FOUR)
      326     2854    1         );
      327     2855    1   DCL 1 FONT_HEIGHT(0:FS_FONT#) SBIN CONSTANT INIT(
      328     2856    1         1,
      329     2857    1         9,
      330     2858    1         12,
      331     2859    1         8
      332     2860    1         );
      333     2861    1   DCL 1 FONT_WIDTH(0:FS_FONT#) UBIN CONSTANT INIT(
      334     2862    1         1,
      335     2863    1         7,
      336     2864    1         13,
      337     2865    1         5
      338     2866    1         );
      339     2867    1   DCL FONT_OFF(0:FS_FONT#) UBIN BYTE UNAL CONSTANT INIT(
      340     2868    1       0,
      341     2869    1       0,
      342     2870    1       24,
      343     2871    1       56
      344     2872    1       );
      345     2873            %EJECT;
PL6.E3A0      #001=FSK$BANNER File=FSK$BANNER.:E05TSI                            TUE 07/29/97 17:32 Page:43
      346     2874    1   DCL CSET(0:9) CHAR(1) CONSTANT INIT(
      347     2875    1            'H',
      348     2876    1            'Z',
      349     2877    1            '#',
      350     2878    1            '$',
      351     2879    1            '*',
      352     2880    1            '%',
      353     2881    1            '&',
      354     2882    1            '@',
      355     2883    1            '?',
      356     2884    1            '0');
      357     2885    1   DCL LOGOMAT(0:19) BIT(36) CONSTANT INIT(
      358     2886    1            '377777776000'O,
      359     2887    1            '777777777000'O,
      360     2888    1            '700000007000'O,
      361     2889    1            '707777707000'O,
      362     2890    1            '717777747000'O,
      363     2891    1            '716000340000'O,
      364     2892    1            '716176340000'O,
      365     2893    1            '716343340000'O,
      366     2894    1            '716340340000'O,
      367     2895    1            '716340340000'O,
      368     2896    1            '716343700000'O,
      369     2897    1            '716340000000'O,
      370     2898    1            '716377700000'O,
      371     2899    1            '716340340000'O,
      372     2900    1            '716340340000'O,
      373     2901    1            '716340347000'O,
      374     2902    1            '716177707000'O,
      375     2903    1            '700000007000'O,
      376     2904    1            '777777777000'O,
      377     2905    1            '377777776000'O
      378     2906    1                 );
      379     2907            %EJECT;
PL6.E3A0      #001=FSK$BANNER File=FSK$BANNER.:E05TSI                            TUE 07/29/97 17:32 Page:44
      380     2908    1   DCL CURR_ENTRY SBIN WORD;
      381     2909    1   DCL LOGOLEN SBIN CONSTANT INIT(20);
      382     2910    1   DCL I SBIN WORD;
      383     2911    1   DCL CREP SBIN;
      384     2912    1   DCL SCOL UBIN;
      385     2913    1   DCL FONTINDX SBIN;
      386     2914    1   DCL PRT_POS UBIN;
      387     2915    1   DCL DROW SBIN;
      388     2916    1   DCL THEIGHT SBIN;
      389     2917    1   DCL TEXT CHAR(256) BASED;
      390     2918    1   DCL TEXT2(0:0) CHAR(1) BASED;
      391     2919    1   DCL TEXT$ PTR ALIGNED;
      392     2920    1   DCL LETTER CHAR(1) UNAL;
      393     2921    1   DCL INDX SBIN ALIGNED;
      394     2922    1   DCL POS UBIN ALIGNED;
      395     2923    1   DCL L SBIN ALIGNED;
      396     2924    1   DCL LET$ PTR ALIGNED;
      397     2925    1   DCL BANREC$ PTR ALIGNED;
      398     2926    1   DCL MAT$LET(0:0) BIT(1) BASED UNAL;
      399     2927    1   DCL LLEN SBIN ALIGNED;
      400     2928    1   DCL ENT_FONT SBIN WORD;
      401     2929    1   DCL RDFLAG BIT (1) ALIGNED;
      402     2930    1   DCL 1 ENTRIES,
      403     2931    1            2 ROW UBIN BYTE UNAL,
      404     2932    1            2 COL UBIN BYTE UNAL,
      405     2933    1            2 FONT UBIN BYTE UNAL,
      406     2934    1            2 STRIKES UBIN BYTE UNAL,
      407     2935    1            2 ICSH UBIN BYTE UNAL,
      408     2936    1            2 REPS UBIN BYTE UNAL,
      409     2937    1            2 RINC UBIN BYTE UNAL,
      410     2938    1            2 CINC UBIN BYTE UNAL,
      411     2939    1            2 TYPE UBIN BYTE UNAL,
      412     2940    1            2 DISP UBIN HALF UNAL,
      413     2941    1            2 B REDEF DISP,
      414     2942    1                 3 START UBIN BYTE UNAL,
      415     2943    1                 3 LEN UBIN BYTE UNAL,
      416     2944    1            2 COUNT UBIN BYTE UNAL,
PL6.E3A0      #001=FSK$BANNER File=FSK$BANNER.:E05TSI                            TUE 07/29/97 17:32 Page:45
      417     2945    1            2 CHR REDEF COUNT CHAR(1),
      418     2946    1            2 TOTLEN UBIN(27) UNAL,
      419     2947    1            2 MARK UBIN BYTE UNAL;
      420     2948            %EJECT;
PL6.E3A0      #001=FSK$BANNER File=FSK$BANNER.:E05TSI                            TUE 07/29/97 17:32 Page:46
      421     2949    1        RDFLAG = '0'B;

   2949  1 000002   200030 450100                    STZ     RDFLAG,,AUTO

      422     2950    1        BANREC$ = PINCRC (ADDR(WORKA),SIZEC(WORKA));

   2950  1 000003   200006 236100                    LDQ     @WORKA,,AUTO
         1 000004   000101 036003                    ADLQ    65,DU
         1 000005   200025 756100                    STQ     BANREC$,,AUTO

      423     2951    1        IF FS$WRSP.START=0

   2951  1 000006   200004 470500                    LDP0    @FS$WRSP,,AUTO
         1 000007   000000 235100                    LDA     0,,PR0
         1 000010   000430 601000 1                  TNZ     s:3036

      424     2952    1        THEN                               /* FIRST TIME.  SET UP ENTRIES. */
      425     2953    2          DO;

      426     2954    2               FS$WRSP.MAXROW=0;

   2954  1 000011   000004 450100                    STZ     4,,PR0

      427     2955    3               DO CURR_ENTRY=0 TO FS$FINST.NUM_ENTRIES-1;

   2955  1 000012   200007 450100                    STZ     CURR_ENTRY,,AUTO
         1 000013   000356 710000 1                  TRA     s:3018+1

      428     2956    3                    ENTRIES=FS$FINST.ENTRIES(CURR_ENTRY);

   2956  1 000014   200007 235100                    LDA     CURR_ENTRY,,AUTO
         1 000015   000004 735000                    ALS     4
         1 000016   200003 470500                    LDP0    @FS$FINST,,AUTO
         1 000017   000100 100505                    MLR     fill='000'O
         1 000020   000001 000020                    ADSC9   1,A,PR0                  cn=0,n=16
         1 000021   200031 000020                    ADSC9   ENTRIES,,AUTO            cn=0,n=16

PL6.E3A0      #001=FSK$BANNER File=FSK$BANNER.:E05TSI                            TUE 07/29/97 17:32 Page:47
      429     2957    4                    DO CASE(ENTRIES.TYPE);

   2957  1 000022   200033 236100                    LDQ     ENTRIES+2,,AUTO
         1 000023   000033 772000                    QRL     27
         1 000024   000035 116007                    CMPQ    29,DL
         1 000025   000027 602006 1                  TNC     s:2957+5,QL
         1 000026   000314 710000 1                  TRA     s:3005
         1 000027   000117 710000 1                  TRA     s:2966
         1 000030   000156 710000 1                  TRA     s:2982
         1 000031   000156 710000 1                  TRA     s:2982
         1 000032   000156 710000 1                  TRA     s:2982
         1 000033   000156 710000 1                  TRA     s:2982
         1 000034   000156 710000 1                  TRA     s:2982
         1 000035   000223 710000 1                  TRA     s:2989
         1 000036   000223 710000 1                  TRA     s:2989
         1 000037   000156 710000 1                  TRA     s:2982
         1 000040   000156 710000 1                  TRA     s:2982
         1 000041   000064 710000 1                  TRA     s:2959
         1 000042   000117 710000 1                  TRA     s:2966
         1 000043   000156 710000 1                  TRA     s:2982
         1 000044   000314 710000 1                  TRA     s:3005
         1 000045   000156 710000 1                  TRA     s:2982
         1 000046   000156 710000 1                  TRA     s:2982
         1 000047   000156 710000 1                  TRA     s:2982
         1 000050   000156 710000 1                  TRA     s:2982
         1 000051   000156 710000 1                  TRA     s:2982
         1 000052   000156 710000 1                  TRA     s:2982
         1 000053   000156 710000 1                  TRA     s:2982
         1 000054   000156 710000 1                  TRA     s:2982
         1 000055   000156 710000 1                  TRA     s:2982
         1 000056   000156 710000 1                  TRA     s:2982
         1 000057   000156 710000 1                  TRA     s:2982
         1 000060   000156 710000 1                  TRA     s:2982
         1 000061   000156 710000 1                  TRA     s:2982
         1 000062   000156 710000 1                  TRA     s:2982
         1 000063   000156 710000 1                  TRA     s:2982

PL6.E3A0      #001=FSK$BANNER File=FSK$BANNER.:E05TSI                            TUE 07/29/97 17:32 Page:48
      430     2958    4                    CASE(FS_LOGO_INT);

      431     2959    4                         IF ENTRIES.REPS=0

   2959  1 000064   200032 236100                    LDQ     ENTRIES+1,,AUTO
         1 000065   000777 316003                    CANQ    511,DU
         1 000066   000072 601000 1                  TNZ     s:2963

      432     2960    4                         THEN
      433     2961    4                              ENTRIES.TOTLEN=0; /* BAD */

   2961  1 000067   000000 236003                    LDQ     0,DU
         1 000070   200034 552170                    STBQ    ENTRIES+3,'70'O,AUTO
         1 000071   000316 710000 1                  TRA     s:3007

      434     2962    4                         ELSE
      435     2963    4                              ENTRIES.TOTLEN=(LOGOLEN+ENTRIES.RINC)

   2963  1 000072   200032 236100                    LDQ     ENTRIES+1,,AUTO
         1 000073   000011 772000                    QRL     9
         1 000074   000777 376007                    ANQ     511,DL
         1 000075   001343 036000 0                  ADLQ    LOGOLEN
         1 000076   200042 756100                    STQ     ENTRIES+9,,AUTO
         1 000077   200032 236100                    LDQ     ENTRIES+1,,AUTO
         1 000100   000022 772000                    QRL     18
         1 000101   000777 376007                    ANQ     511,DL
         1 000102   200043 756100                    STQ     ENTRIES+10,,AUTO
         1 000103   200042 236100                    LDQ     ENTRIES+9,,AUTO
         1 000104   200043 402100                    MPY     ENTRIES+10,,AUTO
         1 000105   200044 756100                    STQ     ENTRIES+11,,AUTO
         1 000106   200032 236100                    LDQ     ENTRIES+1,,AUTO
         1 000107   000011 772000                    QRL     9
         1 000110   000777 376007                    ANQ     511,DL
         1 000111   200045 756100                    STQ     ENTRIES+12,,AUTO
         1 000112   200044 236100                    LDQ     ENTRIES+11,,AUTO
         1 000113   200045 136100                    SBLQ    ENTRIES+12,,AUTO
         1 000114   000011 736000                    QLS     9
PL6.E3A0      #001=FSK$BANNER File=FSK$BANNER.:E05TSI                            TUE 07/29/97 17:32 Page:49
         1 000115   200034 552170                    STBQ    ENTRIES+3,'70'O,AUTO
         1 000116   000316 710000 1                  TRA     s:3007

      436     2964    4                                   *ENTRIES.REPS-ENTRIES.RINC;
      437     2965    4                    CASE(FS_PLAIN_TEXT, FS_X_INT);

      438     2966    4                         IF ENTRIES.REPS=0

   2966  1 000117   200032 236100                    LDQ     ENTRIES+1,,AUTO
         1 000120   000777 316003                    CANQ    511,DU
         1 000121   000125 601000 1                  TNZ     s:2970

      439     2967    4                         THEN
      440     2968    4                              ENTRIES.TOTLEN=0; /* BAD */

   2968  1 000122   000000 236003                    LDQ     0,DU
         1 000123   200034 552170                    STBQ    ENTRIES+3,'70'O,AUTO
         1 000124   000316 710000 1                  TRA     s:3007

      441     2969    4                         ELSE
      442     2970    4                              ENTRIES.TOTLEN=(FONT_HEIGHT(ENTRIES.FONT)+

   2970  1 000125   200031 236100                    LDQ     ENTRIES,,AUTO
         1 000126   000011 772000                    QRL     9
         1 000127   000777 376007                    ANQ     511,DL
         1 000130   000000 620006                    EAX0    0,QL
         1 000131   200032 236100                    LDQ     ENTRIES+1,,AUTO
         1 000132   000011 772000                    QRL     9
         1 000133   000777 376007                    ANQ     511,DL
         1 000134   001303 036010 0                  ADLQ    FONT_HEIGHT,X0
         1 000135   200042 756100                    STQ     ENTRIES+9,,AUTO
         1 000136   200032 236100                    LDQ     ENTRIES+1,,AUTO
         1 000137   000022 772000                    QRL     18
         1 000140   000777 376007                    ANQ     511,DL
         1 000141   200043 756100                    STQ     ENTRIES+10,,AUTO
         1 000142   200042 236100                    LDQ     ENTRIES+9,,AUTO
         1 000143   200043 402100                    MPY     ENTRIES+10,,AUTO
PL6.E3A0      #001=FSK$BANNER File=FSK$BANNER.:E05TSI                            TUE 07/29/97 17:32 Page:50
         1 000144   200044 756100                    STQ     ENTRIES+11,,AUTO
         1 000145   200032 236100                    LDQ     ENTRIES+1,,AUTO
         1 000146   000011 772000                    QRL     9
         1 000147   000777 376007                    ANQ     511,DL
         1 000150   200045 756100                    STQ     ENTRIES+12,,AUTO
         1 000151   200044 236100                    LDQ     ENTRIES+11,,AUTO
         1 000152   200045 136100                    SBLQ    ENTRIES+12,,AUTO
         1 000153   000011 736000                    QLS     9
         1 000154   200034 552170                    STBQ    ENTRIES+3,'70'O,AUTO
         1 000155   000316 710000 1                  TRA     s:3007

      443     2971    4                                   ENTRIES.RINC)*ENTRIES.REPS-ENTRIES.RINC;
      444     2972    4                    CASE(FS_SYSID_INT, FS_ACCN_INT, FS_UNAME_INT, FS_WOO_INT,

      445     2973    4                                   FS_JOBNAME_INT, FS_SUBFILE_INT, FS_VERSION_INT,
      446     2974    4                                   FS_SITENAME_INT, FS_SALUTE_INT, FS_WOD_INT,
      447     2975    4                                   FS_BANNERTEXT0_INT, FS_BANNERTEXT1_INT,
      448     2976    4                                   FS_BANNERTEXT2_INT, FS_BANNERTEXT3_INT,
      449     2977    4                                   FS_BANNERTEXT4_INT, FS_BANNERTEXT5_INT,
      450     2978    4                                   FS_BANNERTEXT6_INT, FS_BANNERTEXT7_INT,
      451     2979    4                                   FS_BANNERTEXT8_INT, FS_BANNERTEXT9_INT,
      452     2980    4                                   FS_REGISTEREDNAME_INT,
      453     2981    4                                   FS_FORM_INT,FS_MINI_ID_INT );
      454     2982    4                         IF ENTRIES.REPS=0 OR FS$FINST.INTR=0

   2982  1 000156   200032 236100                    LDQ     ENTRIES+1,,AUTO
         1 000157   000777 316003                    CANQ    511,DU
         1 000160   000167 600000 1                  TZE     s:2984
         1 000161   000100 101500                    MRL     fill='000'O
         1 000162   000000 400001                    ADSC9   0,,PR0                   cn=2,n=1
         1 000163   200042 000004                    ADSC9   ENTRIES+9,,AUTO          cn=0,n=4
         1 000164   200042 236100                    LDQ     ENTRIES+9,,AUTO
         1 000165   000000 116003                    CMPQ    0,DU
         1 000166   000172 601000 1                  TNZ     s:2986

      455     2983    4                         THEN
      456     2984    4                              ENTRIES.TOTLEN=0; /* BAD */
PL6.E3A0      #001=FSK$BANNER File=FSK$BANNER.:E05TSI                            TUE 07/29/97 17:32 Page:51

   2984  1 000167   000000 236003                    LDQ     0,DU
         1 000170   200034 552170                    STBQ    ENTRIES+3,'70'O,AUTO
         1 000171   000316 710000 1                  TRA     s:3007

      457     2985    4                         ELSE
      458     2986    4                              ENTRIES.TOTLEN=(FONT_HEIGHT(ENTRIES.FONT)+

   2986  1 000172   200031 236100                    LDQ     ENTRIES,,AUTO
         1 000173   000011 772000                    QRL     9
         1 000174   000777 376007                    ANQ     511,DL
         1 000175   000000 620006                    EAX0    0,QL
         1 000176   200032 236100                    LDQ     ENTRIES+1,,AUTO
         1 000177   000011 772000                    QRL     9
         1 000200   000777 376007                    ANQ     511,DL
         1 000201   001303 036010 0                  ADLQ    FONT_HEIGHT,X0
         1 000202   200042 756100                    STQ     ENTRIES+9,,AUTO
         1 000203   200032 236100                    LDQ     ENTRIES+1,,AUTO
         1 000204   000022 772000                    QRL     18
         1 000205   000777 376007                    ANQ     511,DL
         1 000206   200043 756100                    STQ     ENTRIES+10,,AUTO
         1 000207   200042 236100                    LDQ     ENTRIES+9,,AUTO
         1 000210   200043 402100                    MPY     ENTRIES+10,,AUTO
         1 000211   200044 756100                    STQ     ENTRIES+11,,AUTO
         1 000212   200032 236100                    LDQ     ENTRIES+1,,AUTO
         1 000213   000011 772000                    QRL     9
         1 000214   000777 376007                    ANQ     511,DL
         1 000215   200045 756100                    STQ     ENTRIES+12,,AUTO
         1 000216   200044 236100                    LDQ     ENTRIES+11,,AUTO
         1 000217   200045 136100                    SBLQ    ENTRIES+12,,AUTO
         1 000220   000011 736000                    QLS     9
         1 000221   200034 552170                    STBQ    ENTRIES+3,'70'O,AUTO
         1 000222   000316 710000 1                  TRA     s:3007

      459     2987    4                                   ENTRIES.RINC)*ENTRIES.REPS-ENTRIES.RINC;
      460     2988    4                    CASE(FS_TIME_INT, FS_DATE_INT);

PL6.E3A0      #001=FSK$BANNER File=FSK$BANNER.:E05TSI                            TUE 07/29/97 17:32 Page:52
      461     2989    4                         IF ENTRIES.REPS=0 OR FS$FINST.INTR=0

   2989  1 000223   200032 236100                    LDQ     ENTRIES+1,,AUTO
         1 000224   000777 316003                    CANQ    511,DU
         1 000225   000234 600000 1                  TZE     s:2991
         1 000226   000100 101500                    MRL     fill='000'O
         1 000227   000000 400001                    ADSC9   0,,PR0                   cn=2,n=1
         1 000230   200042 000004                    ADSC9   ENTRIES+9,,AUTO          cn=0,n=4
         1 000231   200042 236100                    LDQ     ENTRIES+9,,AUTO
         1 000232   000000 116003                    CMPQ    0,DU
         1 000233   000237 601000 1                  TNZ     s:2994

      462     2990    4                         THEN
      463     2991    4                              ENTRIES.TOTLEN=0; /* BAD */

   2991  1 000234   000000 236003                    LDQ     0,DU
         1 000235   200034 552170                    STBQ    ENTRIES+3,'70'O,AUTO
         1 000236   000316 710000 1                  TRA     s:3007

      464     2992    4                         ELSE
      465     2993    5                           DO;

      466     2994    5                                ENTRIES.TOTLEN=(FONT_HEIGHT(ENTRIES.FONT)+

   2994  1 000237   200031 236100                    LDQ     ENTRIES,,AUTO
         1 000240   000011 772000                    QRL     9
         1 000241   000777 376007                    ANQ     511,DL
         1 000242   000000 620006                    EAX0    0,QL
         1 000243   200032 236100                    LDQ     ENTRIES+1,,AUTO
         1 000244   000011 772000                    QRL     9
         1 000245   000777 376007                    ANQ     511,DL
         1 000246   001303 036010 0                  ADLQ    FONT_HEIGHT,X0
         1 000247   200042 756100                    STQ     ENTRIES+9,,AUTO
         1 000250   200032 236100                    LDQ     ENTRIES+1,,AUTO
         1 000251   000022 772000                    QRL     18
         1 000252   000777 376007                    ANQ     511,DL
         1 000253   200043 756100                    STQ     ENTRIES+10,,AUTO
PL6.E3A0      #001=FSK$BANNER File=FSK$BANNER.:E05TSI                            TUE 07/29/97 17:32 Page:53
         1 000254   200042 236100                    LDQ     ENTRIES+9,,AUTO
         1 000255   200043 402100                    MPY     ENTRIES+10,,AUTO
         1 000256   200044 756100                    STQ     ENTRIES+11,,AUTO
         1 000257   200032 236100                    LDQ     ENTRIES+1,,AUTO
         1 000260   000011 772000                    QRL     9
         1 000261   000777 376007                    ANQ     511,DL
         1 000262   200045 756100                    STQ     ENTRIES+12,,AUTO
         1 000263   200044 236100                    LDQ     ENTRIES+11,,AUTO
         1 000264   200045 136100                    SBLQ    ENTRIES+12,,AUTO
         1 000265   000011 736000                    QLS     9
         1 000266   200034 552170                    STBQ    ENTRIES+3,'70'O,AUTO

      467     2995    5                                     ENTRIES.RINC)*ENTRIES.REPS-ENTRIES.RINC;
      468     2996    5                                IF FS$WRSP.FIL~='YES'

   2996  1 000267   200004 471500                    LDP1    @FS$WRSP,,AUTO
         1 000270   040000 106500                    CMPC    fill='040'O
         1 000271   100006 200003                    ADSC9   6,,PR1                   cn=1,n=3
         1 000272   001344 000003 0                  ADSC9   LOGOLEN+1                cn=0,n=3
         1 000273   000316 600000 1                  TZE     s:3007

      469     2997    5                                THEN
      470     2998    6                                  DO;

      471     2999    6                                       CALL FS$WRSP.DATE_TIME(FS$WRSP.DATE,

   2999  1 000274   200004 236100                    LDQ     @FS$WRSP,,AUTO
         1 000275   000005 036003                    ADLQ    5,DU
         1 000276   200043 756100                    STQ     ENTRIES+10,,AUTO
         1 000277   200004 236100                    LDQ     @FS$WRSP,,AUTO
         1 000300   000007 036003                    ADLQ    7,DU
         1 000301   200042 756100                    STQ     ENTRIES+9,,AUTO
         1 000302   200042 630500                    EPPR0   ENTRIES+9,,AUTO
         1 000303   100023 221100                    LDX1    19,,PR1
         1 000304   000020 631400 xsym               EPPR1   B_VECTNIL+16
         1 000305   000000 701011                    TSX1    0,X1
         1 000306   000000 011000                    NOP     0
PL6.E3A0      #001=FSK$BANNER File=FSK$BANNER.:E05TSI                            TUE 07/29/97 17:32 Page:54

      472     3000    6                                            FS$WRSP.TIME);
      473     3001    6                                       FS$WRSP.FIL='YES';

   3001  1 000307   200004 470500                    LDP0    @FS$WRSP,,AUTO
         1 000310   001344 236000 0                  LDQ     LOGOLEN+1
         1 000311   000011 772000                    QRL     9
         1 000312   000006 552134                    STBQ    6,'34'O,PR0

      474     3002    6                                     END;

      475     3003    5                              END;

   3003  1 000313   000316 710000 1                  TRA     s:3007

      476     3004    4                    CASE(ELSE);

      477     3005    4                         ENTRIES.TOTLEN=0; /* BAD */

   3005  1 000314   000000 236003                    LDQ     0,DU
         1 000315   200034 552170                    STBQ    ENTRIES+3,'70'O,AUTO

      478     3006    4                    END;

      479     3007    3                    IF ENTRIES.TOTLEN=0

   3007  1 000316   200034 236100                    LDQ     ENTRIES+3,,AUTO
         1 000317   000000 316000 2                  CANQ    0
         1 000320   000324 601000 1                  TNZ     s:3012

      480     3008    3                    THEN
      481     3009    3                         ENTRIES.MARK=511; /* BAD */

   3009  1 000321   000777 236007                    LDQ     511,DL
         1 000322   200034 552104                    STBQ    ENTRIES+3,'04'O,AUTO
         1 000323   000347 710000 1                  TRA     s:3017

PL6.E3A0      #001=FSK$BANNER File=FSK$BANNER.:E05TSI                            TUE 07/29/97 17:32 Page:55
      482     3010    3                    ELSE
      483     3011    4                      DO;

      484     3012    4                           ENTRIES.MARK=0; /* GOOD */

   3012  1 000324   000000 236003                    LDQ     0,DU
         1 000325   200034 552104                    STBQ    ENTRIES+3,'04'O,AUTO

      485     3013    4                           IF FS$WRSP.MAXROW<ENTRIES.ROW+ENTRIES.TOTLEN

   3013  1 000326   200034 236100                    LDQ     ENTRIES+3,,AUTO
         1 000327   000011 772000                    QRL     9
         1 000330   200042 756100                    STQ     ENTRIES+9,,AUTO
         1 000331   200031 236100                    LDQ     ENTRIES,,AUTO
         1 000332   000033 772000                    QRL     27
         1 000333   200042 036100                    ADLQ    ENTRIES+9,,AUTO
         1 000334   200004 470500                    LDP0    @FS$WRSP,,AUTO
         1 000335   000004 116100                    CMPQ    4,,PR0
         1 000336   000347 602000 1                  TNC     s:3017
         1 000337   000347 600000 1                  TZE     s:3017

      486     3014    4                           THEN
      487     3015    4                                FS$WRSP.MAXROW=ENTRIES.ROW+ENTRIES.TOTLEN;

   3015  1 000340   200034 236100                    LDQ     ENTRIES+3,,AUTO
         1 000341   000011 772000                    QRL     9
         1 000342   200042 756100                    STQ     ENTRIES+9,,AUTO
         1 000343   200031 236100                    LDQ     ENTRIES,,AUTO
         1 000344   000033 772000                    QRL     27
         1 000345   200042 036100                    ADLQ    ENTRIES+9,,AUTO
         1 000346   000004 756100                    STQ     4,,PR0

      488     3016    4                         END;

      489     3017    3                    FS$FINST.ENTRIES(CURR_ENTRY)=ENTRIES;

   3017  1 000347   200007 235100                    LDA     CURR_ENTRY,,AUTO
PL6.E3A0      #001=FSK$BANNER File=FSK$BANNER.:E05TSI                            TUE 07/29/97 17:32 Page:56
         1 000350   000004 735000                    ALS     4
         1 000351   200003 470500                    LDP0    @FS$FINST,,AUTO
         1 000352   000105 100500                    MLR     fill='000'O
         1 000353   200031 000020                    ADSC9   ENTRIES,,AUTO            cn=0,n=16
         1 000354   000001 000020                    ADSC9   1,A,PR0                  cn=0,n=16

      490     3018    3                  END;

   3018  1 000355   200007 054100                    AOS     CURR_ENTRY,,AUTO
         1 000356   200003 470500                    LDP0    @FS$FINST,,AUTO
         1 000357   000100 101500                    MRL     fill='000'O
         1 000360   000000 600001                    ADSC9   0,,PR0                   cn=3,n=1
         1 000361   200042 000004                    ADSC9   ENTRIES+9,,AUTO          cn=0,n=4
         1 000362   200042 236100                    LDQ     ENTRIES+9,,AUTO
         1 000363   200007 116100                    CMPQ    CURR_ENTRY,,AUTO
         1 000364   000014 605400 1                  TPNZ    s:2956

      491     3019    2               IF FS$FINST.REPEATS>510

   3019  1 000365   000100 101500                    MRL     fill='000'O
         1 000366   000000 200001                    ADSC9   0,,PR0                   cn=1,n=1
         1 000367   200042 000004                    ADSC9   ENTRIES+9,,AUTO          cn=0,n=4
         1 000370   200042 236100                    LDQ     ENTRIES+9,,AUTO
         1 000371   000777 116007                    CMPQ    511,DL
         1 000372   000376 604000 1                  TMI     s:3022

      492     3020    2               THEN
      493     3021    2                    FS$FINST.REPEATS=510;

   3021  1 000373   000100 101400                    MRL     fill='000'O
         1 000374   000001 000004 2                  ADSC9   1                        cn=0,n=4
         1 000375   000000 200001                    ADSC9   0,,PR0                   cn=1,n=1

      494     3022    2               IF FS$FINST.NUM_ENTRIES=0

   3022  1 000376   000100 101500                    MRL     fill='000'O
         1 000377   000000 600001                    ADSC9   0,,PR0                   cn=3,n=1
PL6.E3A0      #001=FSK$BANNER File=FSK$BANNER.:E05TSI                            TUE 07/29/97 17:32 Page:57
         1 000400   200042 000004                    ADSC9   ENTRIES+9,,AUTO          cn=0,n=4
         1 000401   200042 236100                    LDQ     ENTRIES+9,,AUTO
         1 000402   000000 116003                    CMPQ    0,DU
         1 000403   000410 601000 1                  TNZ     s:3026

      495     3023    2               THEN
      496     3024    2                    FS$WRSP.START=-1;

   3024  1 000404   000001 335007                    LCA     1,DL
         1 000405   200004 471500                    LDP1    @FS$WRSP,,AUTO
         1 000406   100000 755100                    STA     0,,PR1
         1 000407   000413 710000 1                  TRA     s:3027

      497     3025    2               ELSE
      498     3026    2                    FS$WRSP.START=1;

   3026  1 000410   000001 235007                    LDA     1,DL
         1 000411   200004 471500                    LDP1    @FS$WRSP,,AUTO
         1 000412   100000 755100                    STA     0,,PR1

      499     3027    2               FS$WRSP.ROW=1;

   3027  1 000413   000001 236007                    LDQ     1,DL
         1 000414   100001 756100                    STQ     1,,PR1

      500     3028    2               FS$WRSP.STRIKES=0;

   3028  1 000415   100002 450100                    STZ     2,,PR1

      501     3029    2               FS$WRSP.REPEAT=1;

   3029  1 000416   100003 756100                    STQ     3,,PR1

      502     3030    2               FS$WRSP.WIDTH=FS$WRSP.WIDTH+1;

   3030  1 000417   100022 235100                    LDA     18,,PR1
         1 000420   000001 035007                    ADLA    1,DL
PL6.E3A0      #001=FSK$BANNER File=FSK$BANNER.:E05TSI                            TUE 07/29/97 17:32 Page:58
         1 000421   100022 755100                    STA     18,,PR1

      503     3031    2               BUFFA='p';                  /* TOP OF FORM */

   3031  1 000422   200005 473500                    LDP3    @BUFFA,,AUTO
         1 000423   040100 100400                    MLR     fill='040'O
         1 000424   000002 000001 2                  ADSC9   2                        cn=0,n=1
         1 000425   300000 000400                    ADSC9   0,,PR3                   cn=0,n=256

      504     3032    2               FS$WRSP.MAXBYTES=1;         /* AND ONLY TOP OF FORM */

   3032  1 000426   100011 756100                    STQ     9,,PR1

      505     3033    2               RETURN;

   3033  1 000427   000000 702200 xent               TSX2  ! X66_ARET

      506     3034    2             END;
      507     3035            %EJECT;
PL6.E3A0      #001=FSK$BANNER File=FSK$BANNER.:E05TSI                            TUE 07/29/97 17:32 Page:59
      508     3036    1        BUFFER.ABUFF='`';             /* START WITH BLANK BUFFER & OVERSTRIKE */

   3036  1 000430   200005 471500                    LDP1    @BUFFA,,AUTO
         1 000431   040100 100400                    MLR     fill='040'O
         1 000432   000003 000001 2                  ADSC9   3                        cn=0,n=1
         1 000433   100000 000400                    ADSC9   0,,PR1                   cn=0,n=256

      509     3037    1        FS$WRSP.MAXBYTES=1;

   3037  1 000434   000001 235007                    LDA     1,DL
         1 000435   000011 755100                    STA     9,,PR0

      510     3038    2        DO WHILE(FS$WRSP.ROW<=FS$WRSP.MAXROW);

   3038  1 000436   000004 236100                    LDQ     4,,PR0
         1 000437   000001 116100                    CMPQ    1,,PR0
         1 000440   000513 602000 1                  TNC     s:3058

      511     3039    2             IF FS$WRSP.STRIKES<10

   3039  1 000441   200004 470500                    LDP0    @FS$WRSP,,AUTO
         1 000442   000002 235100                    LDA     2,,PR0
         1 000443   000012 115007                    CMPA    10,DL
         1 000444   000456 603000 1                  TRC     ROW_END

      512     3040    2             THEN
      513     3041    3               DO;

      514     3042    3                    FS$WRSP.STRIKES=FS$WRSP.STRIKES+1;

   3042  1 000445   000001 035007                    ADLA    1,DL
         1 000446   000002 755100                    STA     2,,PR0

      515     3043    3                    CALL LOOK ALTRET(ROW_END);

   3043  1 000447   000537 701000 1                  TSX1    LOOK
         1 000450   000456 702000 1                  TSX2    ROW_END
PL6.E3A0      #001=FSK$BANNER File=FSK$BANNER.:E05TSI                            TUE 07/29/97 17:32 Page:60

      516     3044    3                    BUFFA = BUFFER.ABUFF;

   3044  1 000451   200005 470500                    LDP0    @BUFFA,,AUTO
         1 000452   040100 100500                    MLR     fill='040'O
         1 000453   000000 000400                    ADSC9   0,,PR0                   cn=0,n=256
         1 000454   000000 000400                    ADSC9   0,,PR0                   cn=0,n=256

      517     3045    3                    RETURN;

   3045  1 000455   000000 702200 xent               TSX2  ! X66_ARET

      518     3046    3                  END;
      519     3047    2   ROW_END:  FS$WRSP.STRIKES=0;

   3047  1 000456   200004 470500       ROW_END      LDP0    @FS$WRSP,,AUTO
         1 000457   000002 450100                    STZ     2,,PR0

      520     3048    2             FS$WRSP.ROW=FS$WRSP.ROW+1;

   3048  1 000460   000001 235100                    LDA     1,,PR0
         1 000461   000001 035007                    ADLA    1,DL
         1 000462   000001 755100                    STA     1,,PR0

      521     3049    2             IF BUFFER.BUFF.VFC='o'        /* HAVE WE INC THE VFC MAX TIMES */

   3049  1 000463   200005 471500                    LDP1    @BUFFA,,AUTO
         1 000464   040000 106500                    CMPC    fill='040'O
         1 000465   100000 000001                    ADSC9   0,,PR1                   cn=0,n=1
         1 000466   000004 000001 2                  ADSC9   4                        cn=0,n=1
         1 000467   000477 601000 1                  TNZ     s:3056

      522     3050    2             THEN
      523     3051    3               DO;

      524     3052    3                    BUFFA='o';

PL6.E3A0      #001=FSK$BANNER File=FSK$BANNER.:E05TSI                            TUE 07/29/97 17:32 Page:61
   3052  1 000470   040100 100400                    MLR     fill='040'O
         1 000471   000004 000001 2                  ADSC9   4                        cn=0,n=1
         1 000472   100000 000400                    ADSC9   0,,PR1                   cn=0,n=256

      525     3053    3                    FS$WRSP.ROW=FS$WRSP.ROW-1;

   3053  1 000473   000001 235100                    LDA     1,,PR0
         1 000474   000001 135007                    SBLA    1,DL
         1 000475   000001 755100                    STA     1,,PR0

      526     3054    3                    RETURN;

   3054  1 000476   000000 702200 xent               TSX2  ! X66_ARET

      527     3055    3                  END;
      528     3056    2             BUFFER.BUFF.VFCB = BUFFER.BUFF.VFCB + 1;

   3056  1 000477   000100 101500                    MRL     fill='000'O
         1 000500   100000 000001                    ADSC9   0,,PR1                   cn=0,n=1
         1 000501   200043 000004                    ADSC9   ENTRIES+10,,AUTO         cn=0,n=4
         1 000502   200043 236100                    LDQ     ENTRIES+10,,AUTO
         1 000503   000001 036007                    ADLQ    1,DL
         1 000504   200042 756100                    STQ     ENTRIES+9,,AUTO
         1 000505   000100 101500                    MRL     fill='000'O
         1 000506   200042 000004                    ADSC9   ENTRIES+9,,AUTO          cn=0,n=4
         1 000507   100000 000001                    ADSC9   0,,PR1                   cn=0,n=1

      529     3057    2           END;

   3057  1 000510   000004 236100                    LDQ     4,,PR0
         1 000511   000001 116100                    CMPQ    1,,PR0
         1 000512   000441 603000 1                  TRC     s:3039

      530     3058    1        IF FS$WRSP.REPEAT<FS$FINST.REPEATS

   3058  1 000513   200003 473500                    LDP3    @FS$FINST,,AUTO
         1 000514   000100 101500                    MRL     fill='000'O
PL6.E3A0      #001=FSK$BANNER File=FSK$BANNER.:E05TSI                            TUE 07/29/97 17:32 Page:62
         1 000515   300000 200001                    ADSC9   0,,PR3                   cn=1,n=1
         1 000516   200042 000004                    ADSC9   ENTRIES+9,,AUTO          cn=0,n=4
         1 000517   200042 236100                    LDQ     ENTRIES+9,,AUTO
         1 000520   000003 116100                    CMPQ    3,,PR0
         1 000521   000534 602000 1                  TNC     s:3066
         1 000522   000534 600000 1                  TZE     s:3066

      531     3059    1        THEN
      532     3060    2          DO;

      533     3061    2               FS$WRSP.ROW=1;

   3061  1 000523   000001 235007                    LDA     1,DL
         1 000524   000001 755100                    STA     1,,PR0

      534     3062    2               FS$WRSP.REPEAT=FS$WRSP.REPEAT+1;

   3062  1 000525   000003 235100                    LDA     3,,PR0
         1 000526   000001 035007                    ADLA    1,DL
         1 000527   000003 755100                    STA     3,,PR0

      535     3063    2               BUFFA='p';

   3063  1 000530   040100 100400                    MLR     fill='040'O
         1 000531   000002 000001 2                  ADSC9   2                        cn=0,n=1
         1 000532   100000 000400                    ADSC9   0,,PR1                   cn=0,n=256

      536     3064    2               RETURN;

   3064  1 000533   000000 702200 xent               TSX2  ! X66_ARET

      537     3065    2             END;
      538     3066    1        FS$WRSP.START=-1;

   3066  1 000534   000001 335007                    LCA     1,DL
         1 000535   000000 755100                    STA     0,,PR0

PL6.E3A0      #001=FSK$BANNER File=FSK$BANNER.:E05TSI                            TUE 07/29/97 17:32 Page:63
      539     3067    1        RETURN;

   3067  1 000536   000000 702200 xent               TSX2  ! X66_ARET

      540     3068        %EJECT;
PL6.E3A0      #001=FSK$BANNER File=FSK$BANNER.:E05TSI                            TUE 07/29/97 17:32 Page:64
      541     3069    1   LOOK: PROC  ALTRET;                     /* FIND A TEXT ENTRY */

   3069  1 000537   200036 741300       LOOK         STX1  ! ENTRIES+5,,AUTO

      542     3070    3        DO CURR_ENTRY=0 TO FS$FINST.NUM_ENTRIES-1;

   3070  1 000540   200007 450100                    STZ     CURR_ENTRY,,AUTO
         1 000541   000615 710000 1                  TRA     s:3094+1

      543     3071    3             ENTRIES=FS$FINST.ENTRIES(CURR_ENTRY);

   3071  1 000542   200007 235100                    LDA     CURR_ENTRY,,AUTO
         1 000543   000004 735000                    ALS     4
         1 000544   200003 470500                    LDP0    @FS$FINST,,AUTO
         1 000545   000100 100505                    MLR     fill='000'O
         1 000546   000001 000020                    ADSC9   1,A,PR0                  cn=0,n=16
         1 000547   200031 000020                    ADSC9   ENTRIES,,AUTO            cn=0,n=16

      544     3072    3             IF ENTRIES.MARK<FS$WRSP.REPEAT

   3072  1 000550   200004 471500                    LDP1    @FS$WRSP,,AUTO
         1 000551   200034 236100                    LDQ     ENTRIES+3,,AUTO
         1 000552   000777 376007                    ANQ     511,DL
         1 000553   100003 116100                    CMPQ    3,,PR1
         1 000554   000614 603000 1                  TRC     s:3094

      545     3073    3             THEN
      546     3074    4               DO;

      547     3075    4                    DROW=FS$WRSP.ROW-ENTRIES.ROW;

   3075  1 000555   200031 236100                    LDQ     ENTRIES,,AUTO
         1 000556   000033 772000                    QRL     27
         1 000557   200042 756100                    STQ     ENTRIES+9,,AUTO
         1 000560   100001 236100                    LDQ     1,,PR1
         1 000561   200042 136100                    SBLQ    ENTRIES+9,,AUTO
         1 000562   200015 756100                    STQ     DROW,,AUTO
PL6.E3A0      #001=FSK$BANNER File=FSK$BANNER.:E05TSI                            TUE 07/29/97 17:32 Page:65

      548     3076    4                    IF DROW>=0

   3076  1 000563   000614 604000 1                  TMI     s:3094

      549     3077    4                    THEN
      550     3078    4                         IF DROW<ENTRIES.TOTLEN

   3078  1 000564   200034 236100                    LDQ     ENTRIES+3,,AUTO
         1 000565   000011 772000                    QRL     9
         1 000566   200015 116100                    CMPQ    DROW,,AUTO
         1 000567   000611 604400 1                  TMOZ    s:3092

      551     3079    4                         THEN
      552     3080    5                           DO;

      553     3081    5                                IF ENTRIES.STRIKES>=FS$WRSP.STRIKES

   3081  1 000570   200031 236100                    LDQ     ENTRIES,,AUTO
         1 000571   000777 376007                    ANQ     511,DL
         1 000572   100002 116100                    CMPQ    2,,PR1
         1 000573   000614 602000 1                  TNC     s:3094

      554     3082    5                                THEN
      555     3083    6                                  DO;

      556     3084    6                                       ENT_FONT=ENTRIES.FONT;

   3084  1 000574   200031 236100                    LDQ     ENTRIES,,AUTO
         1 000575   000011 772000                    QRL     9
         1 000576   000777 376007                    ANQ     511,DL
         1 000577   200027 756100                    STQ     ENT_FONT,,AUTO

      557     3085    6                                       CALL ADD_TO_REC;

   3085  1 000600   000635 701000 1                  TSX1    ADD_TO_REC
         1 000601   000000 011000                    NOP     0
PL6.E3A0      #001=FSK$BANNER File=FSK$BANNER.:E05TSI                            TUE 07/29/97 17:32 Page:66

      558     3086    6                                       IF PRT_POS>FS$WRSP.MAXBYTES

   3086  1 000602   200004 470500                    LDP0    @FS$WRSP,,AUTO
         1 000603   000011 236100                    LDQ     9,,PR0
         1 000604   200014 116100                    CMPQ    PRT_POS,,AUTO
         1 000605   000614 603000 1                  TRC     s:3094

      559     3087    6                                       THEN
      560     3088    6                                            FS$WRSP.MAXBYTES=PRT_POS;

   3088  1 000606   200014 235100                    LDA     PRT_POS,,AUTO
         1 000607   000011 755100                    STA     9,,PR0

      561     3089    6                                     END;

      562     3090    5                              END;

   3090  1 000610   000614 710000 1                  TRA     s:3094

      563     3091    4                         ELSE
      564     3092    4                              FS$FINST.ENTRIES.MARK(CURR_ENTRY)=FS$WRSP.REPEAT;

   3092  1 000611   000105 101500                    MRL     fill='000'O
         1 000612   100003 000004                    ADSC9   3,,PR1                   cn=0,n=4
         1 000613   000004 600001                    ADSC9   4,A,PR0                  cn=3,n=1

      565     3093    4                  END;

      566     3094    3           END;

   3094  1 000614   200007 054100                    AOS     CURR_ENTRY,,AUTO
         1 000615   200003 470500                    LDP0    @FS$FINST,,AUTO
         1 000616   000100 101500                    MRL     fill='000'O
         1 000617   000000 600001                    ADSC9   0,,PR0                   cn=3,n=1
         1 000620   200042 000004                    ADSC9   ENTRIES+9,,AUTO          cn=0,n=4
         1 000621   200042 236100                    LDQ     ENTRIES+9,,AUTO
PL6.E3A0      #001=FSK$BANNER File=FSK$BANNER.:E05TSI                            TUE 07/29/97 17:32 Page:67
         1 000622   200007 116100                    CMPQ    CURR_ENTRY,,AUTO
         1 000623   000542 605400 1                  TPNZ    s:3071

      567     3095    2        IF BUFFER.BUFF.AREST~=' '

   3095  1 000624   200005 471500                    LDP1    @BUFFA,,AUTO
         1 000625   040000 106500                    CMPC    fill='040'O
         1 000626   100000 200377                    ADSC9   0,,PR1                   cn=1,n=255
         1 000627   000035 000001 xsym               ADSC9   B_VECTNIL+29             cn=0,n=1
         1 000630   000633 600000 1                  TZE     s:3099

      568     3096    2        THEN
      569     3097    2             RETURN;

   3097  1 000631   200036 221300                    LDX1  ! ENTRIES+5,,AUTO
         1 000632   000001 702211                    TSX2  ! 1,X1

      570     3098    2        ELSE
      571     3099    2             ALTRETURN;

   3099  1 000633   200036 221300                    LDX1  ! ENTRIES+5,,AUTO
         1 000634   000000 702211                    TSX2  ! 0,X1

      572     3100            %EJECT;
PL6.E3A0      #001=FSK$BANNER File=FSK$BANNER.:E05TSI                            TUE 07/29/97 17:32 Page:68
      573     3101    2   ADD_TO_REC: PROC ;                      /* ADD THIS ENTRY TO THE OUTPUT REC */

   3101  1 000635   200040 741300       ADD_TO_REC   STX1  ! ENTRIES+7,,AUTO

      574     3102    3        IF ENTRIES.TYPE=FS_LOGO_INT

   3102  1 000636   200033 236100                    LDQ     ENTRIES+2,,AUTO
         1 000637   777000 376003                    ANQ     -512,DU
         1 000640   012000 116003                    CMPQ    5120,DU
         1 000641   000743 601000 1                  TNZ     s:3128

      575     3103    3        THEN
      576     3104    4          DO;

      577     3105    4               THEIGHT=LOGOLEN+ENTRIES.RINC;

   3105  1 000642   200032 236100                    LDQ     ENTRIES+1,,AUTO
         1 000643   000011 772000                    QRL     9
         1 000644   000777 376007                    ANQ     511,DL
         1 000645   001343 036000 0                  ADLQ    LOGOLEN
         1 000646   200016 756100                    STQ     THEIGHT,,AUTO

      578     3106    4               CREP=DROW/THEIGHT;

   3106  1 000647   200015 236100                    LDQ     DROW,,AUTO
         1 000650   200016 506100                    DIV     THEIGHT,,AUTO
         1 000651   200011 756100                    STQ     CREP,,AUTO

      579     3107    4               SCOL=(CREP*ENTRIES.CINC+ENTRIES.COL);

   3107  1 000652   200032 236100                    LDQ     ENTRIES+1,,AUTO
         1 000653   000777 376007                    ANQ     511,DL
         1 000654   200011 402100                    MPY     CREP,,AUTO
         1 000655   200042 756100                    STQ     ENTRIES+9,,AUTO
         1 000656   200031 236100                    LDQ     ENTRIES,,AUTO
         1 000657   000022 772000                    QRL     18
         1 000660   000777 376007                    ANQ     511,DL
PL6.E3A0      #001=FSK$BANNER File=FSK$BANNER.:E05TSI                            TUE 07/29/97 17:32 Page:69
         1 000661   200043 756100                    STQ     ENTRIES+10,,AUTO
         1 000662   200042 236100                    LDQ     ENTRIES+9,,AUTO
         1 000663   200043 036100                    ADLQ    ENTRIES+10,,AUTO
         1 000664   200012 756100                    STQ     SCOL,,AUTO

      580     3108    4               FONTINDX=MOD(DROW,THEIGHT);

   3108  1 000665   200015 236100                    LDQ     DROW,,AUTO
         1 000666   200016 506100                    DIV     THEIGHT,,AUTO
         1 000667   200013 755100                    STA     FONTINDX,,AUTO

      581     3109    4               IF FONTINDX>=LOGOLEN

   3109  1 000670   200013 236100                    LDQ     FONTINDX,,AUTO
         1 000671   001343 116000 0                  CMPQ    LOGOLEN
         1 000672   000674 604000 1                  TMI     s:3112

      582     3110    4               THEN
      583     3111    4                    RETURN;

   3111  1 000673   000001 702211                    TSX2  ! 1,X1

      584     3112    4               LETTER=CSET(FS$WRSP.STRIKES-1);

   3112  1 000674   200004 470500                    LDP0    @FS$WRSP,,AUTO
         1 000675   000002 235100                    LDA     2,,PR0
         1 000676   040100 100405                    MLR     fill='040'O
         1 000677   001313 600001 0                  ADSC9   FONT_OFF,A               cn=3,n=1
         1 000700   200020 000001                    ADSC9   LETTER,,AUTO             cn=0,n=1

      585     3113    4               LET$=ADDR(LOGOMAT(FONTINDX));

   3113  1 000701   001317 631406 0                  EPPR1   LOGOMAT,QL
         1 000702   200024 451500                    STP1    LET$,,AUTO

      586     3114    4               PRT_POS=SCOL;

PL6.E3A0      #001=FSK$BANNER File=FSK$BANNER.:E05TSI                            TUE 07/29/97 17:32 Page:70
   3114  1 000703   200012 236100                    LDQ     SCOL,,AUTO
         1 000704   200014 756100                    STQ     PRT_POS,,AUTO

      587     3115    4               POS=0;

   3115  1 000705   200022 450100                    STZ     POS,,AUTO

      588     3116    5               DO WHILE(PRT_POS<=FS$WRSP.WIDTH);

   3116  1 000706   000022 116100                    CMPQ    18,,PR0
         1 000707   000711 600000 1                  TZE     s:3117
         1 000710   000741 603000 1                  TRC     s:3126

      589     3117    5                    IF LET$->MAT$LET(POS)='1'B

   3117  1 000711   200024 470500                    LDP0    LET$,,AUTO
         1 000712   200022 235100                    LDA     POS,,AUTO
         1 000713   000000 066505                    CMPB    filb='0'B
         1 000714   000000 000001                    BDSC    0,A,PR0                  by=0,bit=0,n=1
         1 000715   000002 000022 xsym               BDSC    B_VECTNIL+2              by=0,bit=0,n=18
         1 000716   000724 600000 1                  TZE     s:3120

      590     3118    5                    THEN
      591     3119    5                         BUFFER.NBUFF(PRT_POS)=LETTER;

   3119  1 000717   200005 471500                    LDP1    @BUFFA,,AUTO
         1 000720   200014 236100                    LDQ     PRT_POS,,AUTO
         1 000721   040106 100500                    MLR     fill='040'O
         1 000722   200020 000001                    ADSC9   LETTER,,AUTO             cn=0,n=1
         1 000723   100000 000001                    ADSC9   0,Q,PR1                  cn=0,n=1

      592     3120    5                    POS=POS+1;

   3120  1 000724   000001 035007                    ADLA    1,DL
         1 000725   200022 755100                    STA     POS,,AUTO

      593     3121    5                    IF POS>27
PL6.E3A0      #001=FSK$BANNER File=FSK$BANNER.:E05TSI                            TUE 07/29/97 17:32 Page:71

   3121  1 000726   000034 115007                    CMPA    28,DL
         1 000727   000732 602000 1                  TNC     s:3124

      594     3122    5                    THEN
      595     3123    5                         RETURN;

   3123  1 000730   200040 221300                    LDX1  ! ENTRIES+7,,AUTO
         1 000731   000001 702211                    TSX2  ! 1,X1

      596     3124    5                    PRT_POS=PRT_POS+1;

   3124  1 000732   200014 236100                    LDQ     PRT_POS,,AUTO
         1 000733   000001 036007                    ADLQ    1,DL
         1 000734   200014 756100                    STQ     PRT_POS,,AUTO

      597     3125    5                  END;

   3125  1 000735   200004 471500                    LDP1    @FS$WRSP,,AUTO
         1 000736   100022 116100                    CMPQ    18,,PR1
         1 000737   000711 602000 1                  TNC     s:3117
         1 000740   000711 600000 1                  TZE     s:3117

      598     3126    4               RETURN;

   3126  1 000741   200040 221300                    LDX1  ! ENTRIES+7,,AUTO
         1 000742   000001 702211                    TSX2  ! 1,X1

      599     3127    4             END;
      600     3128    3        THEIGHT=FONT_HEIGHT(ENT_FONT)+ENTRIES.RINC;

   3128  1 000743   200027 720100                    LXL0    ENT_FONT,,AUTO
         1 000744   200032 236100                    LDQ     ENTRIES+1,,AUTO
         1 000745   000011 772000                    QRL     9
         1 000746   000777 376007                    ANQ     511,DL
         1 000747   001303 036010 0                  ADLQ    FONT_HEIGHT,X0
         1 000750   200016 756100                    STQ     THEIGHT,,AUTO
PL6.E3A0      #001=FSK$BANNER File=FSK$BANNER.:E05TSI                            TUE 07/29/97 17:32 Page:72

      601     3129    3        CREP=DROW/THEIGHT;

   3129  1 000751   200015 236100                    LDQ     DROW,,AUTO
         1 000752   200016 506100                    DIV     THEIGHT,,AUTO
         1 000753   200011 756100                    STQ     CREP,,AUTO

      602     3130    3        SCOL=(CREP*ENTRIES.CINC+ENTRIES.COL);

   3130  1 000754   200032 236100                    LDQ     ENTRIES+1,,AUTO
         1 000755   000777 376007                    ANQ     511,DL
         1 000756   200011 402100                    MPY     CREP,,AUTO
         1 000757   200042 756100                    STQ     ENTRIES+9,,AUTO
         1 000760   200031 236100                    LDQ     ENTRIES,,AUTO
         1 000761   000022 772000                    QRL     18
         1 000762   000777 376007                    ANQ     511,DL
         1 000763   200043 756100                    STQ     ENTRIES+10,,AUTO
         1 000764   200042 236100                    LDQ     ENTRIES+9,,AUTO
         1 000765   200043 036100                    ADLQ    ENTRIES+10,,AUTO
         1 000766   200012 756100                    STQ     SCOL,,AUTO

      603     3131    3        FONTINDX=MOD(DROW,THEIGHT);

   3131  1 000767   200015 236100                    LDQ     DROW,,AUTO
         1 000770   200016 506100                    DIV     THEIGHT,,AUTO
         1 000771   200013 755100                    STA     FONTINDX,,AUTO

      604     3132    3        IF FONTINDX>=FONT_HEIGHT(ENT_FONT)

   3132  1 000772   200013 236100                    LDQ     FONTINDX,,AUTO
         1 000773   001303 116010 0                  CMPQ    FONT_HEIGHT,X0
         1 000774   000776 604000 1                  TMI     s:3136

      605     3133    3        THEN
      606     3134    3             RETURN;

   3134  1 000775   000001 702211                    TSX2  ! 1,X1
PL6.E3A0      #001=FSK$BANNER File=FSK$BANNER.:E05TSI                            TUE 07/29/97 17:32 Page:73

      607     3135            %EJECT;
PL6.E3A0      #001=FSK$BANNER File=FSK$BANNER.:E05TSI                            TUE 07/29/97 17:32 Page:74
      608     3136    4        DO CASE(ENTRIES.TYPE);

   3136  1 000776   200033 236100                    LDQ     ENTRIES+2,,AUTO
         1 000777   000033 772000                    QRL     27
         1 001000   000035 116007                    CMPQ    29,DL
         1 001001   001003 602006 1                  TNC     s:3136+5,QL
         1 001002   001357 710000 1                  TRA     s:3216
         1 001003   001040 710000 1                  TRA     s:3138
         1 001004   001120 710000 1                  TRA     s:3151
         1 001005   001134 710000 1                  TRA     s:3155
         1 001006   001145 710000 1                  TRA     s:3158
         1 001007   001156 710000 1                  TRA     s:3161
         1 001010   001167 710000 1                  TRA     s:3164
         1 001011   001177 710000 1                  TRA     s:3167
         1 001012   001207 710000 1                  TRA     s:3170
         1 001013   001230 710000 1                  TRA     s:3176
         1 001014   001217 710000 1                  TRA     s:3173
         1 001015   001357 710000 1                  TRA     s:3216
         1 001016   001062 710000 1                  TRA     s:3142
         1 001017   001273 710000 1                  TRA     s:3187
         1 001020   001357 710000 1                  TRA     s:3216
         1 001021   001241 710000 1                  TRA     s:3179
         1 001022   001256 710000 1                  TRA     s:3183
         1 001023   001304 710000 1                  TRA     s:3190
         1 001024   001316 710000 1                  TRA     s:3193
         1 001025   001354 710000 1                  TRA     s:3213
         1 001026   001354 710000 1                  TRA     s:3213
         1 001027   001354 710000 1                  TRA     s:3213
         1 001030   001354 710000 1                  TRA     s:3213
         1 001031   001354 710000 1                  TRA     s:3213
         1 001032   001354 710000 1                  TRA     s:3213
         1 001033   001354 710000 1                  TRA     s:3213
         1 001034   001354 710000 1                  TRA     s:3213
         1 001035   001354 710000 1                  TRA     s:3213
         1 001036   001354 710000 1                  TRA     s:3213
         1 001037   001327 710000 1                  TRA     s:3196

PL6.E3A0      #001=FSK$BANNER File=FSK$BANNER.:E05TSI                            TUE 07/29/97 17:32 Page:75
      609     3137    4        CASE(FS_PLAIN_TEXT);

      610     3138    4             TEXT$=PINCRW(ADDR(FS$FINST),ENTRIES.DISP);

   3138  1 001040   200033 236100                    LDQ     ENTRIES+2,,AUTO
         1 001041   000011 772000                    QRL     9
         1 001042   777777 376007                    ANQ     -1,DL
         1 001043   000022 736000                    QLS     18
         1 001044   200003 036100                    ADLQ    @FS$FINST,,AUTO
         1 001045   200017 756100                    STQ     TEXT$,,AUTO

      611     3139    4             WORKA.TWORK.COUNT=ENTRIES.COUNT;

   3139  1 001046   200006 470500                    LDP0    @WORKA,,AUTO
         1 001047   200033 236100                    LDQ     ENTRIES+2,,AUTO
         1 001050   000033 736000                    QLS     27
         1 001051   000000 552140                    STBQ    0,'40'O,PR0

      612     3140    4             WORKA.TWORK.TEXT= SUBSTR (TEXT$->TEXT,0,WORKA.TWORK.COUNT);

   3140  1 001052   000000 236100                    LDQ     0,,PR0
         1 001053   000033 772000                    QRL     27
         1 001054   200017 471500                    LDP1    TEXT$,,AUTO
         1 001055   000000 621006                    EAX1    0,QL
         1 001056   040100 100540                    MLR     fill='040'O
         1 001057   100000 000011                    ADSC9   0,,PR1                   cn=0,n=*X1
         1 001060   000000 200400                    ADSC9   0,,PR0                   cn=1,n=256
         1 001061   001357 710000 1                  TRA     s:3216

      613     3141    4        CASE(FS_X_INT);

      614     3142    4             TEXT$=ADDR(WORKA.TWORK.TEXT);

   3142  1 001062   200006 236100                    LDQ     @WORKA,,AUTO
         1 001063   200000 036007                    ADLQ    65536,DL
         1 001064   200017 756100                    STQ     TEXT$,,AUTO

PL6.E3A0      #001=FSK$BANNER File=FSK$BANNER.:E05TSI                            TUE 07/29/97 17:32 Page:76
      615     3143    4             IF FS$WRSP.WIDTH > SCOL THEN

   3143  1 001065   200004 470500                    LDP0    @FS$WRSP,,AUTO
         1 001066   200012 236100                    LDQ     SCOL,,AUTO
         1 001067   000022 116100                    CMPQ    18,,PR0
         1 001070   001077 603000 1                  TRC     s:3146

      616     3144    4                  WORKA.TWORK.COUNT = FS$WRSP.WIDTH-SCOL;

   3144  1 001071   000022 236100                    LDQ     18,,PR0
         1 001072   200012 136100                    SBLQ    SCOL,,AUTO
         1 001073   200006 471500                    LDP1    @WORKA,,AUTO
         1 001074   000033 736000                    QLS     27
         1 001075   100000 552140                    STBQ    0,'40'O,PR1
         1 001076   001102 710000 1                  TRA     s:3147

      617     3145    4             ELSE
      618     3146    4                  WORKA.TWORK.COUNT=1;

   3146  1 001077   200006 471500                    LDP1    @WORKA,,AUTO
         1 001100   001000 236003                    LDQ     512,DU
         1 001101   100000 552140                    STBQ    0,'40'O,PR1

      619     3147    5             DO I=0 TO WORKA.TWORK.COUNT-1;

   3147  1 001102   200010 450100                    STZ     I,,AUTO
         1 001103   001112 710000 1                  TRA     s:3149+1

      620     3148    5                  TEXT$->TEXT2(I)=ENTRIES.CHR;

   3148  1 001104   200017 470500                    LDP0    TEXT$,,AUTO
         1 001105   200010 235100                    LDA     I,,AUTO
         1 001106   040105 100500                    MLR     fill='040'O
         1 001107   200033 600001                    ADSC9   ENTRIES+2,,AUTO          cn=3,n=1
         1 001110   000000 000001                    ADSC9   0,A,PR0                  cn=0,n=1

      621     3149    5                END;
PL6.E3A0      #001=FSK$BANNER File=FSK$BANNER.:E05TSI                            TUE 07/29/97 17:32 Page:77

   3149  1 001111   200010 054100                    AOS     I,,AUTO
         1 001112   200006 470500                    LDP0    @WORKA,,AUTO
         1 001113   000000 236100                    LDQ     0,,PR0
         1 001114   000033 772000                    QRL     27
         1 001115   200010 116100                    CMPQ    I,,AUTO
         1 001116   001104 605400 1                  TPNZ    s:3148
         1 001117   001357 710000 1                  TRA     s:3216

      622     3150    4        CASE(FS_SYSID_INT);

      623     3151    4             WORKA.TWORK.COUNT=6;

   3151  1 001120   200006 470500                    LDP0    @WORKA,,AUTO
         1 001121   006000 236003                    LDQ     3072,DU
         1 001122   000000 552140                    STBQ    0,'40'O,PR0

      624     3152    4             I=FS$WRSP.JIT$->B$JIT.SYSID;

   3152  1 001123   200004 471500                    LDP1    @FS$WRSP,,AUTO
         1 001124   100020 473500                    LDP3    16,,PR1
         1 001125   300000 236100                    LDQ     0,,PR3
         1 001126   777777 376007                    ANQ     -1,DL
         1 001127   200010 756100                    STQ     I,,AUTO

      625     3153    4             CALL BINCHAR(SUBSTR(WORKA.TWORK.TEXT,0,6),I);

   3153  1 001130   000100 301500                    BTD
         1 001131   200010 000004                    NDSC9   I,,AUTO                  cn=0,s=lsgnf,sf=0,n=4
         1 001132   000000 230006                    NDSC9   0,,PR0                   cn=1,s=nosgn,sf=0,n=6
         1 001133   001357 710000 1                  TRA     s:3216

      626     3154    4        CASE(FS_ACCN_INT);

      627     3155    4             WORKA.TWORK.COUNT=SIZEC(B$JIT.ACCN);

   3155  1 001134   200006 470500                    LDP0    @WORKA,,AUTO
PL6.E3A0      #001=FSK$BANNER File=FSK$BANNER.:E05TSI                            TUE 07/29/97 17:32 Page:78
         1 001135   010000 236003                    LDQ     4096,DU
         1 001136   000000 552140                    STBQ    0,'40'O,PR0

      628     3156    4            CALL INSERT(WORKA.TWORK.TEXT,0,SIZEC(B$JIT.ACCN),FS$WRSP.JIT$->B$JIT.ACCN)
              3156                      ;

   3156  1 001137   200004 471500                    LDP1    @FS$WRSP,,AUTO
         1 001140   100020 473500                    LDP3    16,,PR1
         1 001141   040100 100500                    MLR     fill='040'O
         1 001142   300001 000010                    ADSC9   1,,PR3                   cn=0,n=8
         1 001143   000000 200010                    ADSC9   0,,PR0                   cn=1,n=8
         1 001144   001357 710000 1                  TRA     s:3216

      629     3157    4        CASE(FS_UNAME_INT);

      630     3158    4             WORKA.TWORK.COUNT=SIZEC(B$JIT.UNAME);

   3158  1 001145   200006 470500                    LDP0    @WORKA,,AUTO
         1 001146   014000 236003                    LDQ     6144,DU
         1 001147   000000 552140                    STBQ    0,'40'O,PR0

      631     3159    4             CALL INSERT(WORKA.TWORK.TEXT,0,SIZEC(B$JIT.UNAME),FS$WRSP.JIT$->B$JIT.
              3159                      UNAME);

   3159  1 001150   200004 471500                    LDP1    @FS$WRSP,,AUTO
         1 001151   100020 473500                    LDP3    16,,PR1
         1 001152   040100 100500                    MLR     fill='040'O
         1 001153   300003 000014                    ADSC9   3,,PR3                   cn=0,n=12
         1 001154   000000 200014                    ADSC9   0,,PR0                   cn=1,n=12
         1 001155   001357 710000 1                  TRA     s:3216

      632     3160    4        CASE(FS_WOO_INT);

      633     3161    4             WORKA.TWORK.COUNT=1+SIZEC(B$JIT.WOO);

   3161  1 001156   200006 470500                    LDP0    @WORKA,,AUTO
         1 001157   011000 236003                    LDQ     4608,DU
PL6.E3A0      #001=FSK$BANNER File=FSK$BANNER.:E05TSI                            TUE 07/29/97 17:32 Page:79
         1 001160   000000 552140                    STBQ    0,'40'O,PR0

      634     3162    4            CALL INSERT(WORKA.TWORK.TEXT,0,1+SIZEC(B$JIT.WOO),FS$WRSP.JIT$->B$JIT.WOO)
              3162                      ;

   3162  1 001161   200004 471500                    LDP1    @FS$WRSP,,AUTO
         1 001162   100020 473500                    LDP3    16,,PR1
         1 001163   040100 100500                    MLR     fill='040'O
         1 001164   300010 000010                    ADSC9   8,,PR3                   cn=0,n=8
         1 001165   000000 200011                    ADSC9   0,,PR0                   cn=1,n=9
         1 001166   001357 710000 1                  TRA     s:3216

      635     3163    4        CASE(FS_JOBNAME_INT);

      636     3164    4             WORKA.TWORK.COUNT=SIZEC(B$JIT.JOBNAME);

   3164  1 001167   200006 470500                    LDP0    @WORKA,,AUTO
         1 001170   037000 236003                    LDQ     15872,DU
         1 001171   000000 552140                    STBQ    0,'40'O,PR0

      637     3165    4             CALL INSERT(WORKA.TWORK.TEXT,0,SIZEC(B$JIT.JOBNAME),B$JIT.JOBNAME);

   3165  1 001172   000000 471400 xsym               LDP1    B$JIT$
         1 001173   040100 100500                    MLR     fill='040'O
         1 001174   100156 200037                    ADSC9   110,,PR1                 cn=1,n=31
         1 001175   000000 200037                    ADSC9   0,,PR0                   cn=1,n=31
         1 001176   001357 710000 1                  TRA     s:3216

      638     3166    4        CASE(FS_TIME_INT);

      639     3167    4             WORKA.TWORK.COUNT=5;

   3167  1 001177   200006 470500                    LDP0    @WORKA,,AUTO
         1 001200   005000 236003                    LDQ     2560,DU
         1 001201   000000 552140                    STBQ    0,'40'O,PR0

      640     3168    4             CALL INSERT(WORKA.TWORK.TEXT,0,5,FS$WRSP.TIME);
PL6.E3A0      #001=FSK$BANNER File=FSK$BANNER.:E05TSI                            TUE 07/29/97 17:32 Page:80

   3168  1 001202   200004 471500                    LDP1    @FS$WRSP,,AUTO
         1 001203   040100 100500                    MLR     fill='040'O
         1 001204   100005 000005                    ADSC9   5,,PR1                   cn=0,n=5
         1 001205   000000 200005                    ADSC9   0,,PR0                   cn=1,n=5
         1 001206   001357 710000 1                  TRA     s:3216

      641     3169    4        CASE(FS_DATE_INT);

      642     3170    4             WORKA.TWORK.COUNT=8;

   3170  1 001207   200006 470500                    LDP0    @WORKA,,AUTO
         1 001210   010000 236003                    LDQ     4096,DU
         1 001211   000000 552140                    STBQ    0,'40'O,PR0

      643     3171    4             CALL INSERT(WORKA.TWORK.TEXT,0,8,FS$WRSP.DATE);

   3171  1 001212   200004 471500                    LDP1    @FS$WRSP,,AUTO
         1 001213   040100 100500                    MLR     fill='040'O
         1 001214   100007 000010                    ADSC9   7,,PR1                   cn=0,n=8
         1 001215   000000 200010                    ADSC9   0,,PR0                   cn=1,n=8
         1 001216   001357 710000 1                  TRA     s:3216

      644     3172    4        CASE(FS_SUBFILE_INT);

      645     3173    4             WORKA.TWORK.COUNT=6;

   3173  1 001217   200006 470500                    LDP0    @WORKA,,AUTO
         1 001220   006000 236003                    LDQ     3072,DU
         1 001221   000000 552140                    STBQ    0,'40'O,PR0

      646     3174    4             CALL INSERT(WORKA.TWORK.TEXT,0,6,ADDR(FS$WRSP.SUBFILE$->F$DCB.NAME)->
              3174                      FS_OSFN.NUM);

   3174  1 001222   200004 471500                    LDP1    @FS$WRSP,,AUTO
         1 001223   100017 473500                    LDP3    15,,PR1
         1 001224   040100 100500                    MLR     fill='040'O
PL6.E3A0      #001=FSK$BANNER File=FSK$BANNER.:E05TSI                            TUE 07/29/97 17:32 Page:81
         1 001225   300012 400006                    ADSC9   10,,PR3                  cn=2,n=6
         1 001226   000000 200006                    ADSC9   0,,PR0                   cn=1,n=6
         1 001227   001357 710000 1                  TRA     s:3216

      647     3175    4        CASE(FS_VERSION_INT);

      648     3176    4             WORKA.TWORK.COUNT=SIZEC(SITEINFO.VERSION#);

   3176  1 001230   200006 470500                    LDP0    @WORKA,,AUTO
         1 001231   004000 236003                    LDQ     2048,DU
         1 001232   000000 552140                    STBQ    0,'40'O,PR0

      649     3177    4            CALL INSERT(WORKA.TWORK.TEXT,0,SIZEC(SITEINFO.VERSION#),FS$WRSP.SITEINFO->
              3177                      SITEINFO.VERSION#);

   3177  1 001233   200004 471500                    LDP1    @FS$WRSP,,AUTO
         1 001234   100021 473500                    LDP3    17,,PR1
         1 001235   040100 100500                    MLR     fill='040'O
         1 001236   300064 000004                    ADSC9   52,,PR3                  cn=0,n=4
         1 001237   000000 200004                    ADSC9   0,,PR0                   cn=1,n=4
         1 001240   001357 710000 1                  TRA     s:3216

      650     3178    4        CASE(FS_SITENAME_INT);

      651     3179    4             WORKA.TWORK.COUNT=FS$WRSP.SITEINFO->SITEINFO.

   3179  1 001241   200004 470500                    LDP0    @FS$WRSP,,AUTO
         1 001242   000021 471500                    LDP1    17,,PR0
         1 001243   200006 473500                    LDP3    @WORKA,,AUTO
         1 001244   100001 236100                    LDQ     1,,PR1
         1 001245   300000 552140                    STBQ    0,'40'O,PR3

      652     3180    4                  SITE_NAME#.L;
      653     3181    4             CALL INSERT(WORKA.TWORK.TEXT,0,WORKA.TWORK.COUNT,FS$WRSP.SITEINFO->
              3181                      SITEINFO.SITE_NAME#.C);

   3181  1 001246   000021 471500                    LDP1    17,,PR0
PL6.E3A0      #001=FSK$BANNER File=FSK$BANNER.:E05TSI                            TUE 07/29/97 17:32 Page:82
         1 001247   300000 236100                    LDQ     0,,PR3
         1 001250   000033 772000                    QRL     27
         1 001251   000000 621006                    EAX1    0,QL
         1 001252   040140 100500                    MLR     fill='040'O
         1 001253   100001 200167                    ADSC9   1,,PR1                   cn=1,n=119
         1 001254   300000 200011                    ADSC9   0,,PR3                   cn=1,n=*X1
         1 001255   001357 710000 1                  TRA     s:3216

      654     3182    4        CASE(FS_SALUTE_INT);

      655     3183    4             WORKA.TWORK.COUNT=FS$WRSP.SITEINFO->SITEINFO.

   3183  1 001256   200004 470500                    LDP0    @FS$WRSP,,AUTO
         1 001257   000021 471500                    LDP1    17,,PR0
         1 001260   200006 473500                    LDP3    @WORKA,,AUTO
         1 001261   100037 236100                    LDQ     31,,PR1
         1 001262   300000 552140                    STBQ    0,'40'O,PR3

      656     3184    4                  SALUTATION#.L;
      657     3185    4             CALL INSERT(WORKA.TWORK.TEXT,0,WORKA.TWORK.COUNT,FS$WRSP.SITEINFO->
              3185                      SITEINFO.SALUTATION#.C);

   3185  1 001263   000021 471500                    LDP1    17,,PR0
         1 001264   300000 236100                    LDQ     0,,PR3
         1 001265   000033 772000                    QRL     27
         1 001266   000000 621006                    EAX1    0,QL
         1 001267   040140 100500                    MLR     fill='040'O
         1 001270   100037 200117                    ADSC9   31,,PR1                  cn=1,n=79
         1 001271   300000 200011                    ADSC9   0,,PR3                   cn=1,n=*X1
         1 001272   001357 710000 1                  TRA     s:3216

      658     3186    4        CASE(FS_WOD_INT);

      659     3187    4             WORKA.TWORK.COUNT=SIZEC(F$DCB.WSN);

   3187  1 001273   200006 470500                    LDP0    @WORKA,,AUTO
         1 001274   010000 236003                    LDQ     4096,DU
PL6.E3A0      #001=FSK$BANNER File=FSK$BANNER.:E05TSI                            TUE 07/29/97 17:32 Page:83
         1 001275   000000 552140                    STBQ    0,'40'O,PR0

      660     3188    4             CALL INSERT(WORKA.TWORK.TEXT,0,SIZEC(F$DCB.WSN),FS$WRSP.SUBFILE$->F$DCB.
              3188                      WSN);

   3188  1 001276   200004 471500                    LDP1    @FS$WRSP,,AUTO
         1 001277   100017 473500                    LDP3    15,,PR1
         1 001300   040100 100500                    MLR     fill='040'O
         1 001301   300027 000010                    ADSC9   23,,PR3                  cn=0,n=8
         1 001302   000000 200010                    ADSC9   0,,PR0                   cn=1,n=8
         1 001303   001357 710000 1                  TRA     s:3216

      661     3189    4        CASE(FS_FORM_INT);

      662     3190    4             WORKA.TWORK.COUNT=SIZEC(CODE16.FORM);

   3190  1 001304   200006 470500                    LDP0    @WORKA,,AUTO
         1 001305   006000 236003                    LDQ     3072,DU
         1 001306   000000 552140                    STBQ    0,'40'O,PR0

      663     3191    4            CALL INSERT(WORKA.TWORK.TEXT,0,SIZEC(CODE16.FORM),FS$WRSP.SUBFILE$->F$DCB.
              3191                      FORM$->CODE16.FORM);

   3191  1 001307   200004 471500                    LDP1    @FS$WRSP,,AUTO
         1 001310   100017 473500                    LDP3    15,,PR1
         1 001311   300050 474500                    LDP4    40,,PR3
         1 001312   040100 100500                    MLR     fill='040'O
         1 001313   400000 000006                    ADSC9   0,,PR4                   cn=0,n=6
         1 001314   000000 200006                    ADSC9   0,,PR0                   cn=1,n=6
         1 001315   001357 710000 1                  TRA     s:3216

      664     3192    4        CASE(FS_MINI_ID_INT);

      665     3193    4             WORKA.TWORK.COUNT=SIZEC(SITEINFO.MINI_ID#);

   3193  1 001316   200006 470500                    LDP0    @WORKA,,AUTO
         1 001317   003000 236003                    LDQ     1536,DU
PL6.E3A0      #001=FSK$BANNER File=FSK$BANNER.:E05TSI                            TUE 07/29/97 17:32 Page:84
         1 001320   000000 552140                    STBQ    0,'40'O,PR0

      666     3194    4            CALL INSERT(WORKA.TWORK.TEXT,0,SIZEC(SITEINFO.MINI_ID#),FS$WRSP.SITEINFO->
              3194                      SITEINFO.MINI_ID#);

   3194  1 001321   200004 471500                    LDP1    @FS$WRSP,,AUTO
         1 001322   100021 473500                    LDP3    17,,PR1
         1 001323   300000 236100                    LDQ     0,,PR3
         1 001324   000011 772000                    QRL     9
         1 001325   000000 552134                    STBQ    0,'34'O,PR0
         1 001326   001357 710000 1                  TRA     s:3216

      667     3195    4        CASE( FS_REGISTEREDNAME_INT );

      668     3196    4             I = 0;

   3196  1 001327   200010 450100                    STZ     I,,AUTO

      669     3197    4   RDBANTXT:
      670     3198    4             CALL FSK$GETBANNERTEXT (BANREC$,WORKA.TWORK,RDFLAG, I)

   3198  1 001330   200010 630500       RDBANTXT     EPPR0   I,,AUTO
         1 001331   200045 450500                    STP0    ENTRIES+12,,AUTO
         1 001332   200030 631500                    EPPR1   RDFLAG,,AUTO
         1 001333   200044 451500                    STP1    ENTRIES+11,,AUTO
         1 001334   200006 236100                    LDQ     @WORKA,,AUTO
         1 001335   200043 756100                    STQ     ENTRIES+10,,AUTO
         1 001336   200025 633500                    EPPR3   BANREC$,,AUTO
         1 001337   200042 453500                    STP3    ENTRIES+9,,AUTO
         1 001340   200042 630500                    EPPR0   ENTRIES+9,,AUTO
         1 001341   000022 631400 xsym               EPPR1   B_VECTNIL+18
         1 001342   000000 701000 xent               TSX1    FSK$GETBANNERTEXT
         1 001343   001345 702000 1                  TSX2    s:3200
         1 001344   001353 710000 1                  TRA     s:3202

      671     3199    5             WHENALTRETURN DO;

PL6.E3A0      #001=FSK$BANNER File=FSK$BANNER.:E05TSI                            TUE 07/29/97 17:32 Page:85
      672     3200    5                    WORKA.TWORK.TEXT=' ';

   3200  1 001345   200006 470500                    LDP0    @WORKA,,AUTO
         1 001346   040100 100400                    MLR     fill='040'O
         1 001347   000035 000001 xsym               ADSC9   B_VECTNIL+29             cn=0,n=1
         1 001350   000000 200400                    ADSC9   0,,PR0                   cn=1,n=256

      673     3201    5                    WORKA.TWORK.COUNT=1;

   3201  1 001351   001000 236003                    LDQ     512,DU
         1 001352   000000 552140                    STBQ    0,'40'O,PR0

      674     3202    5                  END;

   3202  1 001353   001357 710000 1                  TRA     s:3216

      675     3203    4        CASE( FS_BANNERTEXT0_INT ,

      676     3204    4                       FS_BANNERTEXT1_INT ,
      677     3205    4                       FS_BANNERTEXT2_INT ,
      678     3206    4                       FS_BANNERTEXT3_INT ,
      679     3207    4                       FS_BANNERTEXT4_INT ,
      680     3208    4                       FS_BANNERTEXT5_INT ,
      681     3209    4                       FS_BANNERTEXT6_INT ,
      682     3210    4                       FS_BANNERTEXT7_INT ,
      683     3211    4                       FS_BANNERTEXT8_INT ,
      684     3212    4                       FS_BANNERTEXT9_INT );
      685     3213    4             I = ENTRIES.TYPE - FS_BANNERTEXT0_INT;

   3213  1 001354   000022 136007                    SBLQ    18,DL
         1 001355   200010 756100                    STQ     I,,AUTO

      686     3214    4             GOTO RDBANTXT;

   3214  1 001356   001330 710000 1                  TRA     RDBANTXT

      687     3215    4        END;
PL6.E3A0      #001=FSK$BANNER File=FSK$BANNER.:E05TSI                            TUE 07/29/97 17:32 Page:86

      688     3216    3        IF ENTRIES.COUNT=511

   3216  1 001357   200033 236100                    LDQ     ENTRIES+2,,AUTO
         1 001360   000777 376007                    ANQ     511,DL
         1 001361   000777 116007                    CMPQ    511,DL
         1 001362   001436 601000 1                  TNZ     s:3229

      689     3217    3        THEN
      690     3218    4          DO;

      691     3219    4               IF WORKA.TWORK.COUNT-ENTRIES.B.START<ENTRIES.B.LEN

   3219  1 001363   200033 236100                    LDQ     ENTRIES+2,,AUTO
         1 001364   000022 772000                    QRL     18
         1 001365   000777 376007                    ANQ     511,DL
         1 001366   200042 756100                    STQ     ENTRIES+9,,AUTO
         1 001367   200006 470500                    LDP0    @WORKA,,AUTO
         1 001370   000000 236100                    LDQ     0,,PR0
         1 001371   000033 772000                    QRL     27
         1 001372   200042 136100                    SBLQ    ENTRIES+9,,AUTO
         1 001373   200043 756100                    STQ     ENTRIES+10,,AUTO
         1 001374   200033 236100                    LDQ     ENTRIES+2,,AUTO
         1 001375   000011 772000                    QRL     9
         1 001376   000777 376007                    ANQ     511,DL
         1 001377   200044 756100                    STQ     ENTRIES+11,,AUTO
         1 001400   200043 236100                    LDQ     ENTRIES+10,,AUTO
         1 001401   200044 116100                    CMPQ    ENTRIES+11,,AUTO
         1 001402   001415 605000 1                  TPL     s:3223

      692     3220    4               THEN
      693     3221    4                    WORKA.TWORK.COUNT=WORKA.TWORK.COUNT-ENTRIES.B.START;

   3221  1 001403   200033 236100                    LDQ     ENTRIES+2,,AUTO
         1 001404   000022 772000                    QRL     18
         1 001405   000777 376007                    ANQ     511,DL
         1 001406   200042 756100                    STQ     ENTRIES+9,,AUTO
PL6.E3A0      #001=FSK$BANNER File=FSK$BANNER.:E05TSI                            TUE 07/29/97 17:32 Page:87
         1 001407   000000 236100                    LDQ     0,,PR0
         1 001410   000033 772000                    QRL     27
         1 001411   200042 136100                    SBLQ    ENTRIES+9,,AUTO
         1 001412   000033 736000                    QLS     27
         1 001413   000000 552140                    STBQ    0,'40'O,PR0
         1 001414   001420 710000 1                  TRA     s:3224

      694     3222    4               ELSE
      695     3223    4                    WORKA.TWORK.COUNT=ENTRIES.B.LEN;

   3223  1 001415   200033 236100                    LDQ     ENTRIES+2,,AUTO
         1 001416   000022 736000                    QLS     18
         1 001417   000000 552140                    STBQ    0,'40'O,PR0

      696     3224    4               CALL INSERT(WORKA.TWORK.TEXT,0,WORKA.TWORK.COUNT,

   3224  1 001420   200033 236100                    LDQ     ENTRIES+2,,AUTO
         1 001421   000022 772000                    QRL     18
         1 001422   000777 376007                    ANQ     511,DL
         1 001423   200042 756100                    STQ     ENTRIES+9,,AUTO
         1 001424   000000 236100                    LDQ     0,,PR0
         1 001425   000033 772000                    QRL     27
         1 001426   000000 620006                    EAX0    0,QL
         1 001427   000000 236100                    LDQ     0,,PR0
         1 001430   000033 772000                    QRL     27
         1 001431   200042 235100                    LDA     ENTRIES+9,,AUTO
         1 001432   000000 621006                    EAX1    0,QL
         1 001433   040140 100545                    MLR     fill='040'O
         1 001434   000000 200010                    ADSC9   0,A,PR0                  cn=1,n=*X0
         1 001435   000000 200011                    ADSC9   0,,PR0                   cn=1,n=*X1

      697     3225    4                    SUBSTR(WORKA.TWORK.TEXT,ENTRIES.B.START,WORKA.TWORK.COUNT));
      698     3226    4             END;

      699     3227        %EJECT;
PL6.E3A0      #001=FSK$BANNER File=FSK$BANNER.:E05TSI                            TUE 07/29/97 17:32 Page:88
      700     3228                 /*   THIS STARTS THE CODE */
      701     3229    3        LLEN=FONT_HEIGHT(ENT_FONT)*FONT_WIDTH(ENT_FONT);

   3229  1 001436   200027 720100                    LXL0    ENT_FONT,,AUTO
         1 001437   001303 236010 0                  LDQ     FONT_HEIGHT,X0
         1 001440   001307 402010 0                  MPY     FONT_WIDTH,X0
         1 001441   200026 756100                    STQ     LLEN,,AUTO

      702     3230    3        PRT_POS=SCOL;

   3230  1 001442   200012 235100                    LDA     SCOL,,AUTO
         1 001443   200014 755100                    STA     PRT_POS,,AUTO

      703     3231    3        I=0;

   3231  1 001444   200010 450100                    STZ     I,,AUTO

      704     3232    4        DO WHILE (PRT_POS+FONT_WIDTH(ENT_FONT)<=FS$WRSP.WIDTH);

   3232  1 001445   001603 710000 1                  TRA     s:3272

      705     3233    4             LETTER=SUBSTR(WORKA.TWORK.TEXT,I,1);

   3233  1 001446   200006 470500                    LDP0    @WORKA,,AUTO
         1 001447   200010 235100                    LDA     I,,AUTO
         1 001450   040100 100505                    MLR     fill='040'O
         1 001451   000000 200001                    ADSC9   0,A,PR0                  cn=1,n=1
         1 001452   200020 000001                    ADSC9   LETTER,,AUTO             cn=0,n=1

      706     3234    4             INDX=ASCBIN(LETTER)-32;

   3234  1 001453   200020 236100                    LDQ     LETTER,,AUTO
         1 001454   000033 772000                    QRL     27
         1 001455   000040 136007                    SBLQ    32,DL
         1 001456   200021 756100                    STQ     INDX,,AUTO

      707     3235    4             IF ENT_FONT~=FS_PLAIN_TEXT
PL6.E3A0      #001=FSK$BANNER File=FSK$BANNER.:E05TSI                            TUE 07/29/97 17:32 Page:89

   3235  1 001457   200027 235100                    LDA     ENT_FONT,,AUTO
         1 001460   001472 600000 1                  TZE     s:3243

      708     3236    4             THEN
      709     3237    5               DO;

      710     3238    5                    IF ENTRIES.STRIKES>1

   3238  1 001461   200031 236100                    LDQ     ENTRIES,,AUTO
         1 001462   000777 376007                    ANQ     511,DL
         1 001463   000002 116007                    CMPQ    2,DL
         1 001464   001472 602000 1                  TNC     s:3243

      711     3239    5                    THEN
      712     3240    5                         LETTER=CSET(FS$WRSP.STRIKES-1);

   3240  1 001465   200004 471500                    LDP1    @FS$WRSP,,AUTO
         1 001466   100002 235100                    LDA     2,,PR1
         1 001467   040100 100405                    MLR     fill='040'O
         1 001470   001313 600001 0                  ADSC9   FONT_OFF,A               cn=3,n=1
         1 001471   200020 000001                    ADSC9   LETTER,,AUTO             cn=0,n=1

      713     3241    5                  END;

      714     3242            %EJECT;
PL6.E3A0      #001=FSK$BANNER File=FSK$BANNER.:E05TSI                            TUE 07/29/97 17:32 Page:90
      715     3243    4             IF INDX=-24

   3243  1 001472   200021 235100                    LDA     INDX,,AUTO
         1 001473   000005 115000 2                  CMPA    5
         1 001474   001511 601000 1                  TNZ     s:3250

      716     3244    4             THEN
      717     3245    5               DO;

      718     3246    5                    IF PRT_POS~=SCOL THEN

   3246  1 001475   200014 236100                    LDQ     PRT_POS,,AUTO
         1 001476   200012 116100                    CMPQ    SCOL,,AUTO
         1 001477   001510 600000 1                  TZE     s:3248

      719     3247    5                         PRT_POS=PRT_POS-(FONT_WIDTH(ENT_FONT)+ENTRIES.ICSH);

   3247  1 001500   200027 720100                    LXL0    ENT_FONT,,AUTO
         1 001501   200032 236100                    LDQ     ENTRIES+1,,AUTO
         1 001502   000033 772000                    QRL     27
         1 001503   001307 036010 0                  ADLQ    FONT_WIDTH,X0
         1 001504   200042 756100                    STQ     ENTRIES+9,,AUTO
         1 001505   200014 236100                    LDQ     PRT_POS,,AUTO
         1 001506   200042 136100                    SBLQ    ENTRIES+9,,AUTO
         1 001507   200014 756100                    STQ     PRT_POS,,AUTO

      720     3248    5                    GOTO BACKSPACE;

   3248  1 001510   001575 710000 1                  TRA     BACKSPACE

      721     3249    5                  END;
      722     3250    4             IF INDX<0 OR INDX>96

   3250  1 001511   000000 115003                    CMPA    0,DU
         1 001512   001515 604000 1                  TMI     UNPRINT
         1 001513   000140 115007                    CMPA    96,DL
         1 001514   001522 604400 1                  TMOZ    s:3258
PL6.E3A0      #001=FSK$BANNER File=FSK$BANNER.:E05TSI                            TUE 07/29/97 17:32 Page:91

      723     3251    4             THEN
      724     3252    5               DO;

      725     3253    5   UNPRINT:         INDX=0;

   3253  1 001515   200021 450100       UNPRINT      STZ     INDX,,AUTO

      726     3254    5                    IF ENT_FONT ~=0

   3254  1 001516   200027 235100                    LDA     ENT_FONT,,AUTO
         1 001517   001522 600000 1                  TZE     s:3258

      727     3255    5                    THEN
      728     3256    5                         LETTER=' ';

   3256  1 001520   040000 236003                    LDQ     16384,DU
         1 001521   200020 756100                    STQ     LETTER,,AUTO

      729     3257    5                  END;

      730     3258    4             LET$=FONT_ADDRS(ENT_FONT);

   3258  1 001522   200027 720100                    LXL0    ENT_FONT,,AUTO
         1 001523   001277 236010 0                  LDQ     FONT_ADDRS,X0
         1 001524   200024 756100                    STQ     LET$,,AUTO

      731     3259    4             POS=FONT_OFF(ENT_FONT)+INDX*LLEN+FONTINDX*FONT_WIDTH(ENT_FONT);

   3259  1 001525   200021 236100                    LDQ     INDX,,AUTO
         1 001526   200026 402100                    MPY     LLEN,,AUTO
         1 001527   200027 235100                    LDA     ENT_FONT,,AUTO
         1 001530   000100 101405                    MRL     fill='000'O
         1 001531   001313 000001 0                  ADSC9   FONT_OFF,A               cn=0,n=1
         1 001532   200042 000004                    ADSC9   ENTRIES+9,,AUTO          cn=0,n=4
         1 001533   200042 036100                    ADLQ    ENTRIES+9,,AUTO
         1 001534   200043 756100                    STQ     ENTRIES+10,,AUTO
PL6.E3A0      #001=FSK$BANNER File=FSK$BANNER.:E05TSI                            TUE 07/29/97 17:32 Page:92
         1 001535   200013 236100                    LDQ     FONTINDX,,AUTO
         1 001536   001307 402010 0                  MPY     FONT_WIDTH,X0
         1 001537   200043 036100                    ADLQ    ENTRIES+10,,AUTO
         1 001540   200022 756100                    STQ     POS,,AUTO

      732     3260    5             DO L=0 TO FONT_WIDTH(ENT_FONT)-1;

   3260  1 001541   200023 450100                    STZ     L,,AUTO
         1 001542   001564 710000 1                  TRA     s:3266+1

      733     3261    5                  IF LET$->MAT$LET(POS)='1'B

   3261  1 001543   200024 470500                    LDP0    LET$,,AUTO
         1 001544   200022 235100                    LDA     POS,,AUTO
         1 001545   000000 066505                    CMPB    filb='0'B
         1 001546   000000 000001                    BDSC    0,A,PR0                  by=0,bit=0,n=1
         1 001547   000002 000022 xsym               BDSC    B_VECTNIL+2              by=0,bit=0,n=18
         1 001550   001556 600000 1                  TZE     s:3264

      734     3262    5                  THEN
      735     3263    5                       BUFFER.NBUFF(PRT_POS)=LETTER;

   3263  1 001551   200005 471500                    LDP1    @BUFFA,,AUTO
         1 001552   200014 236100                    LDQ     PRT_POS,,AUTO
         1 001553   040106 100500                    MLR     fill='040'O
         1 001554   200020 000001                    ADSC9   LETTER,,AUTO             cn=0,n=1
         1 001555   100000 000001                    ADSC9   0,Q,PR1                  cn=0,n=1

      736     3264    5                  POS=POS+1;

   3264  1 001556   000001 035007                    ADLA    1,DL
         1 001557   200022 755100                    STA     POS,,AUTO

      737     3265    5                  PRT_POS=PRT_POS+1;

   3265  1 001560   200014 236100                    LDQ     PRT_POS,,AUTO
         1 001561   000001 036007                    ADLQ    1,DL
PL6.E3A0      #001=FSK$BANNER File=FSK$BANNER.:E05TSI                            TUE 07/29/97 17:32 Page:93
         1 001562   200014 756100                    STQ     PRT_POS,,AUTO

      738     3266    5                END;

   3266  1 001563   200023 054100                    AOS     L,,AUTO
         1 001564   200027 720100                    LXL0    ENT_FONT,,AUTO
         1 001565   200023 236100                    LDQ     L,,AUTO
         1 001566   001543 604000 1                  TMI     s:3261
         1 001567   001307 116010 0                  CMPQ    FONT_WIDTH,X0
         1 001570   001543 602000 1                  TNC     s:3261

      739     3267    4             PRT_POS=PRT_POS+ENTRIES.ICSH;

   3267  1 001571   200032 236100                    LDQ     ENTRIES+1,,AUTO
         1 001572   000033 772000                    QRL     27
         1 001573   200014 036100                    ADLQ    PRT_POS,,AUTO
         1 001574   200014 756100                    STQ     PRT_POS,,AUTO

      740     3268    4   BACKSPACE: I=I+1;

   3268  1 001575   200010 054100       BACKSPACE    AOS     I,,AUTO

      741     3269    4             IF I>=WORKA.TWORK.COUNT

   3269  1 001576   200006 470500                    LDP0    @WORKA,,AUTO
         1 001577   000000 236100                    LDQ     0,,PR0
         1 001600   000033 772000                    QRL     27
         1 001601   200010 116100                    CMPQ    I,,AUTO
         1 001602   001612 604400 1                  TMOZ    BYE

      742     3270    4             THEN
      743     3271    4                  GOTO BYE;
      744     3272    4           END;

   3272  1 001603   200027 720100                    LXL0    ENT_FONT,,AUTO
         1 001604   200014 236100                    LDQ     PRT_POS,,AUTO
         1 001605   001307 036010 0                  ADLQ    FONT_WIDTH,X0
PL6.E3A0      #001=FSK$BANNER File=FSK$BANNER.:E05TSI                            TUE 07/29/97 17:32 Page:94
         1 001606   200004 470500                    LDP0    @FS$WRSP,,AUTO
         1 001607   000022 116100                    CMPQ    18,,PR0
         1 001610   001446 602000 1                  TNC     s:3233
         1 001611   001446 600000 1                  TZE     s:3233

      745     3273    3   BYE: RETURN;

   3273  1 001612   200040 221300       BYE          LDX1  ! ENTRIES+7,,AUTO
         1 001613   000001 702211                    TSX2  ! 1,X1

FONT_ZERO
 Sect OctLoc
   0     000   777777 777777   777777 777777   777777 770***                    ............

FONT_ONE
 Sect OctLoc
   0     003   000000 000000   000000 000060   301406 030000   600000 737566    .......0........
   0     007   363000 000000   000120 517712   376241 200000   061771 437033    .....P......1...
   0     013   760600 000316   555414 155454   140000 302206   044213 023640    ......m.`...$...
   0     017   000160 701414   000000 000000   030303 014060   140300 000601    .p.........0`...
   0     023   403014 060606   000000 001243   477470 520000   000000 301437    ..0.............
   0     027   576140 600000   000000 000000   170740 606000   000077 400000    .`......x....?..
   0     033   000000 000000   000000 703400   000014 141414   141406 000000    ..........a.a...
   0     037   373074 361707   433700 000141   603014 060307   700000 373060    .<.....a..0....0
   0     043   303070 607740   000373 060317   007433 700000   030342 633376    .8....0.........
   0     047   060300 000777   014077 007433   700000 373074   077307 433700    0....?.....<?...
   0     053   000774 060606   060606 000000   373074 337307   433700 000373    ..0.0....<......
   0     057   074337 407433   700000 000001   607000 160700   000000 001607    <.........p.....
   0     063   000160 701414   030303 030060   140300 000000   017700 376000    .p.....0`.......
   0     067   000000 300601   403030 303000   000373 064303   030000 600000    ..........4.....
   0     073   372031 152653   250700 000373   074377 707436   140000 773074    ..j.....<...`..<
   0     077   377307 437700   000373 074060   301433 700000   773074 361707    ......<0.....<..
   0     103   437700 000777   014076 301407   740000 777014   076301 406000    .....>......>...
   0     107   000373 074060   337433 740000   617074 377707   436140 000170    ..<0.....<...`.x
   0     113   301406 030141   700000 014060   301407 433700   000617 155474    ...a...0......m.
   0     117   331466 140000   603014 060301   407740 000407   076765 707436    ..`...0.....>...
   0     123   140000 417076   365717 436040   000373 274761   707433 700000    `..>... ........
PL6.E3A0      #001=FSK$BANNER File=FSK$BANNER.:E05TSI                            TUE 07/29/97 17:32 Page:95
   0     127   773074 377301   406000 000373   074361 707533   700600 773074    .<......<......<
   0     133   377371 466140   000377 014037   006037 700000   774301 406030    ...`............
   0     137   140600 000617   074361 707433   700000 617074   361554 340400    `...<......<....
   0     143   000617 074365   727533 300000   617066 616155   436140 000615    ..<......6.m.`..
   0     147   543406 030140   600000 774060   606060 607740   000170 603014    ...`...0.0...x..
   0     153   060301 700000   601403 006014   030140 000170   140603 014061    0........`.x`..1
   0     157   700000 040705   244420 100400   000000 000000   000000 000177    .. ...@.........
   0     163   601403 000000   000000 000000   007363 717473   540000 603015    ................
   0     167   671747 636700   000000 007760   301403 740000   014067 363717    .............7..
   0     173   473540 000000   007661 777403   700000 070603   077060 301400    ..........8.?0..
   0     177   000000 007363   717473 540676   603015 671707   436140 000060    .............`.0
   0     203   003406 030143   740000 030001   603014 060331   474603 014666    ...c......0.....
   0     207   361546 300000   160301 406030   143740 000000   016665 727536    ....p...c.......
   0     213   540000 000015   671707 436140   000000 007661   707433 700000    .......`........
   0     217   000015 671747   636730 140000   007363 717473   540603 000015    ......`.........
   0     223   774341 406000   000000 007760   174037 700000   000617 614060    ........|......0
   0     227   300700 000000   014361 707473   540000 000014   361554 340400    ................
   0     233   000000 011156   673676 140000   000014 333070   666140 000000    ...n..`....8.`..
   0     237   014361 707473   540776 000017   703030 307740   000070 603030    .............8..
   0     243   060300 700000   140603 014060   301400 000340   301403 030143    0...`..0.......c
   0     247   400000 000017   777406 030000   000777 777777   000000 006014    ................

FONT_THREE
 Sect OctLoc
   0     253   777777 770000   000000 000000   000000 000000   000000 000000    ................
   0     257   000000 000000   004000 700076   003700 174003   400160 002000    .......>..|..p..
   0     263   000016 000700   034006 300314   014600 630000   000000 000000    ................
   0     267   000000 000000   000000 000303   014147 777377   743030 141414    .........g....a.
   0     273   140606 177767   777141 406060   014007 760631   461431 461437    `....a.0........
   0     277   400374 306314   306314 607760   030034 017701   554147 614161    .............g.q
   0     303   400140 014001   434143 714155   407740 163700   306014 300330    .`...c.m..s.....
   0     307   007400 360015   401431 540746   016143 143703   014000 600030    .........cc.....
   0     313   001400 000000   000000 000000   000000 000000   000000 300030    ................
   0     317   003000 140006   000300 014000   600030 001400   030000 600300    ..`.............
   0     323   006000 140006   000300 014000   600030 001400   060006 000600    ..`.........0...
   0     327   000000 600231   005500 170177   767777 017001   320114 400600    ......x......L..
   0     333   000000 000060   003000 140006   017776 777700   600030 001400    ...0..`.........
PL6.E3A0      #001=FSK$BANNER File=FSK$BANNER.:E05TSI                            TUE 07/29/97 17:32 Page:96
   0     337   060000 000000   000000 000000   000000 000000   000070 003400    0............8..
   0     343   060003 000300   000000 000000   000000 000177   777777 400000    0...............
   0     347   000000 000000   000000 000000   000000 000000   000000 000000    ................
   0     353   000000 001600   070003 400001   400140 014001   400140 014001    ....8....`...`..
   0     357   400140 014001   400140 014000   077407 770600   660017 000740    .`...`..?.......
   0     363   036001 700074   003300 307770   177001 400160   017000 140006    ...<.......p..`.
   0     367   000300 014000   600030 001400   060003 003777   377774 003000    ........0.......
   0     373   140006 000600   140030 006001   400377 777777   377737 777400    `...`...........
   0     377   300014 000600   360017 000060   003600 177776   777600 300034    .......0........
   0     403   003600 330031   403060 303037   777777 700300   014000 607777    .....0..........
   0     407   777774 000600   030001 777677   774000 600036   001777 767776    ................
   0     413   377777 777400   060003 000177   767777 700074   003600 177776    ....0......<....
   0     417   777677 777777   540140 014001   400140 006000   600030 003000    .....`...`......
   0     423   140006 003777   377774 003600   170006 777637   773000 740036    `.......x.......
   0     427   001777 767776   377737 777400   360017 000777   773777 400060    ...............0
   0     433   003000 177776   777600 000070   003400 160000   000000 000000    .......8..p.....
   0     437   000034 001600   070000 000000   000000 340016   000700 000000    ....8...........
   0     443   000070 003400   060003 000300   001400 140014   001400 140014    .8..0.....`...`.
   0     447   000600 014000   300006 000140   003000 000000   000007 777777    .......`........
   0     453   760000 000037   777777 700000   000000 000600   014000 300006    ................
   0     457   000140 003000   140014 001400   140014 001400   177617 775400    .`..`...`.......
   0     463   360015 401400   140034 007000   300000 000600   030037 773777    ....`...........
   0     467   740036 001717   475763 663173   147546 366317   377647 763777    .......{g.......
   0     473   377774 003600   170007 777777   777000 740036   001700 074003    ....x.........<.
   0     477   777737 777400   360017 000777   767777 300074   003600 177777    ...........<....
   0     503   777637 773777   740036 000300   014000 600030   001400 060017    ..............0.
   0     507   777677 767776   377754 003600   170007 400360   017000 740036    ........x.......
   0     513   001777 757774   777777 777400   060003 000177   407760 300014    ........0.......
   0     517   000600 037777   777777 777777   740006 000300   017740 776030    ................
   0     523   001400 060003   000140 003777   377774 003600   170001 400060    ..0..`......x..0
   0     527   173007 740036   003777 767773   600170 007400   360017 000777    {........x......
   0     533   777777 700074   003600 170007   400317 740776   003000 140006    ...<..x.......`.
   0     537   000300 014000   600030 001400   776037 700001   400060 003000    .............0..
   0     543   140006 000300   014000 600036   001777 767776   600170 031406    `............x..
   0     547   061403 300160   007000 330014   300603 030031   400360 003000    1..p............
   0     553   140006 000300   014000 600030   001400 060017   777777 776001    `.........0.....
   0     557   740177 017661   570707 410360   017000 740036   001700 074003    ..............<.
PL6.E3A0      #001=FSK$BANNER File=FSK$BANNER.:E05TSI                            TUE 07/29/97 17:32 Page:97
   0     563   600174 007700   366017 140743   036061 701474   033600 770017    .|....`..1......
   0     567   400337 773777   741436 037700   074003 600170   007400 360017    ........<..x....
   0     573   777677 767777   377774 003600   170007 777777   773000 140006    ........x.....`.
   0     577   000300 014000   377437 771401   460063 003140   146006 300314    .........3.`f...
   0     603   354607 637776   776777 773777   740036 001700   077777 777730    ............?...
   0     607   061401 460033   001540 063777   377774 003600   030001 777637    1.....3.........
   0     613   774000 600036   001777 767776   777737 774030   001400 060003    ..............0.
   0     617   000140 006000   300014 000600   030060 017000   740036 001700    .`.......0......
   0     623   074003 600170   007400 360017   777677 766001   700066 006300    <..x.........6..
   0     627   306030 301406   140306 006600   330007 000340   600170 007400    ....`........x..
   0     633   360017 000740   036001 707075   433740 774017   400370 037401    .......=........
   0     637   630140 614015   400340 016001   540143 014063   401760 076003    .`.......c.3..>.
   0     643   140303 030063   001700 030001   400060 003000   140006 000300    `..3.....0..`...
   0     647   777737 774003   400340 034003   400340 034003   400340 037775    ................
   0     653   777677 777777   777777 777777   777777 777777   777777 777777    ................
   0     657   777777 777777   777777 777777   777777 777777   777777 777777    ................
   0    1117*  777777 777777   777777 777777                                    ........

FONT_FOUR
 Sect OctLoc
   0    1121   777777 777777   777777 600000   000000 001020   410200 100052    ..............@*
   0    1125   400000 000005   127653 724500   107243 425610   030621 042114    ....W...G....."L
   0    1131   300622 504254   464004 200000   000000 210204   102020 040410    ............B. .
   0    1135   204104 000125   676725 000001   023710 200000   000000 010400    .D.U............
   0    1141   000007 600000   000000 000143   000001 042104   000035 061430    .......c.."D..1.
   0    1145   613400 430204   102160 072102   104217 407604   214061 340214    ....Bp:BD....1..
   0    1151   307702 041017   604170 142700   350607 506134   037021 042102    ..!..xb....\.."B
   0    1155   000721 427214   270035 061360   613400 000004   002000 000000    ......1.........
   0    1161   200104 000210   420202 020000   003776 000010   101010 421000    .D..........A...
   0    1165   105021 020010   016436 755501   700721 437614   304075 061750    E............=1.
   0    1171   617401 643020   410560 172143   061437 007702   075020 760374    ......zc1...=...
   0    1175   103641 020007   214102 342700   430617 706142   016102 041021    C....B.....b.B!.
   0    1201   600041 020614   270043 124612   224202 041020   410370 107353    .!...#T...!...G.
   0    1205   061430 404307   153161 420165   326343 056017   214372 041000    1...kq.u......!.
   0    1211   350614 326334   036430 765112   100721 407014   270076 204102    .......J@....>.B
   0    1215   041002 143061   430560 106143   061242 004306   153265 240214    !.c1..Fc1...k...
   0    1221   250425 061010   612420 410200   760421 042076   006102 041020    ..1.......">.B!.
PL6.E3A0      #001=FSK$BANNER File=FSK$BANNER.:E05TSI                            TUE 07/29/97 17:32 Page:98
   0    1225   600020 202020   200030 204102   043000 000004   250610 000000    .......B#.......
   0    1231   000000 373030   300000 000000   001747 157000   306173 163700    ..........o..{s.
   0    1235   000003 743036   000061 574715   700000 350776   070000 354766    .....1......8...
   0    1241   143000 000723   467433 403061   731634 400060   034614 300001    c......1...0....
   0    1245   400614 306700   306353 465440   007061 430614   000000 165326    .........1....u.
   0    1251   500000 017316   344000 000350   613400 001731   637306 000037    ................
   0    1255   163361 430000   067630 600000   077034 176000   143175 430340    s...7...?.~.c}..
   0    1261   000004 716336   000000 216670   400000 012655   270000 000427    ................
   0    1265   124200 000023   467437 400076   056417 401661   460614 160143    T......>......pc
   0    1271   061430 614316   061414 615600   006660 000000   007777 777777    1...1...........
   0    1275   777777 777777   777777 777777                                    ........

FONT_ADDRS
 Sect OctLoc
   0    1277   000000 006000   000003 006000   000253 006000   001121 006000    .............Q..

FONT_HEIGHT
 Sect OctLoc
   0    1303   000000 000001   000000 000011   000000 000014   000000 000010    ................

FONT_WIDTH
 Sect OctLoc
   0    1307   000000 000001   000000 000007   000000 000015   000000 000005    ................

FONT_OFF
 Sect OctLoc
   0    1313   000000 030070                                                    ...8

CSET
 Sect OctLoc
   0    1314   110132 043044   052045 046100   077060 ******                    HZ#$*%&@?0..

LOGOMAT
 Sect OctLoc
   0    1317   377777 776000   777777 777000   700000 007000   707777 707000    ................
   0    1323   717777 747000   716000 340000   716176 340000   716343 340000    .........~......
   0    1327   716340 340000   716340 340000   716343 700000   716340 000000    ................
PL6.E3A0      #001=FSK$BANNER File=FSK$BANNER.:E05TSI                            TUE 07/29/97 17:32 Page:99
   0    1333   716377 700000   716340 340000   716340 340000   716340 347000    ................
   0    1337   716177 707000   700000 007000   777777 777000   377777 776000    ................

LOGOLEN
 Sect OctLoc
   0    1343   000000 000024                                                    ....

(unnamed)
 Sect OctLoc
   0    1344   131105 123040                                                    YES

(unnamed)
 Sect OctLoc
   2     000   777777 777000   000000 000776   160040 040040   140040 040040    ........p   `
   2     004   157040 040040   777777 777750                                    o   ....
      746     3274    3   END ADD_TO_REC;
      747     3275    2   END LOOK;
      748     3276            %EJECT;
PL6.E3A0      #001=FSK$BANNER File=FSK$BANNER.:E05TSI                            TUE 07/29/97 17:32 Page:100
      749     3277    1   END FSK$BANNER;
      750     3278        %EOD;

PL6.E3A0      #001=FSK$BANNER File=FSK$BANNER.:E05TSI                            TUE 07/29/97 17:32 Page:101
--  Include file information  --

   FM$FIT.:E05TOU  is referenced.
   F$DCB.:E05TOU  cannot be made into a system file and is referenced.
   FS$FIT.:E05TOU  is referenced.
   UM_CP6.:E05TOU  is referenced.
   B$JIT_C.:E05TOU  is referenced.
   FS_SUPER_C.:E05TOU  is referenced.
      No diagnostics issued in procedure FSK$BANNER.
PL6.E3A0      #001=FSK$BANNER File=FSK$BANNER.:E05TSI                            TUE 07/29/97 17:32 Page:102

 **** Variables and constants ****

  ****  Section 000 RoData FSK$BANNER

  ****  Scalars and arrays  ****
OctLoc.c.b A Datatyp(siz) R M Lvl/name                 OctLoc.c.b A Datatyp(siz) R M Lvl/name

  1314-0-0/c CHAR        r     1 CSET(0:9)
  1277-0-0/w PTR         r     1 FONT_ADDRS(0:3)
  1121-0-0/b BIT (72)    r     1 FONT_FOUR(0:54)
  1303-0-0/w SBIN        r     1 FONT_HEIGHT(0:3)
  1313-0-0/b UBIN(9)     r     1 FONT_OFF(0:3)
     3-0-0/b BIT (72)    r     1 FONT_ONE(0:83)
   253-0-0/b BIT (72)    r     1 FONT_THREE(0:210)
  1307-0-0/w UBIN        r     1 FONT_WIDTH(0:3)
     0-0-0/b BIT         r     1 FONT_ZERO(0:95)
  1343-0-0/w SBIN        r     1 LOGOLEN                 1317-0-0/b BIT         r     1 LOGOMAT(0:19)

  ****  Auto variables  ****

  ****  Scalars and arrays  ****
OctLoc.c.b A Datatyp(siz) R M Lvl/name                 OctLoc.c.b A Datatyp(siz) R M Lvl/name

     5-0-0/w PTR         r     1 @BUFFA                     3-0-0/w PTR         r     1 @FS$FINST
     4-0-0/w PTR         r     1 @FS$WRSP                   6-0-0/w PTR         r     1 @WORKA
    25-0-0/w PTR         r     1 BANREC$                   *0-0-0/c CHAR(256)   r     1 BUFFA
    *0-0-0/c STRC(2304)  r     1 BUFFER                    11-0-0/w SBIN        r     1 CREP
     7-0-0/w SBIN        r     1 CURR_ENTRY                15-0-0/w SBIN        r     1 DROW
    31-0-0/c STRC(144)   r     1 ENTRIES                   27-0-0/w SBIN        r     1 ENT_FONT
    13-0-0/w SBIN        r     1 FONTINDX                  *0-0-0/c STRC(180)   r     1 FS$FINST
    *0-0-0/w STRC(720)   r     1 FS$WRSP                   10-0-0/w SBIN        r     1 I
    21-0-0/w SBIN        r     1 INDX                      23-0-0/w SBIN        r     1 L
    24-0-0/w PTR         r     1 LET$                      20-0-0/c CHAR        r     1 LETTER
    26-0-0/w SBIN        r     1 LLEN                      22-0-0/w UBIN        r     1 POS
    14-0-0/w UBIN        r     1 PRT_POS                   30-0-0/w BIT         r     1 RDFLAG
    12-0-0/w UBIN        r     1 SCOL                      17-0-0/w PTR         r     1 TEXT$
    16-0-0/w SBIN        r     1 THEIGHT                   *0-0-0/w STRC(2313)  r     1 WORKA
PL6.E3A0      #001=FSK$BANNER File=FSK$BANNER.:E05TSI                            TUE 07/29/97 17:32 Page:103

  ****  SYMREF variables  ****

  ****  Scalars and arrays  ****
OctLoc.c.b A Datatyp(siz) R M Lvl/name                 OctLoc.c.b A Datatyp(siz) R M Lvl/name

     0-0-0/w PTR         r     1 B$JIT$

  ****  BASED and DCB variables  ****

  ****  Scalars and arrays  ****
OctLoc.c.b A Datatyp(siz) R M Lvl/name                 OctLoc.c.b A Datatyp(siz) R M Lvl/name

     0-0-0/d STRC(5760)  r     1 B$JIT                      0-0-0/w STRC(1404)  r     1 CODE16
     0-0-0/d ASTR(3528)  r     1 F$DCB                      0-0-0/w STRC(171)   r     1 FS_OSFN
     0-0-0/b BIT         r     1 MAT$LET(0:0)
     0-0-0/d STRC(2232)  r     1 SITEINFO                   0-0-0/c CHAR(256)   r     1 TEXT
     0-0-0/c CHAR        r     1 TEXT2(0:0)


   Procedure FSK$BANNER requires 908 words for executable code.
   Procedure FSK$BANNER requires 38 words of local(AUTO) storage.
PL6.E3A0      #001=FSK$BANNER File=FSK$BANNER.:E05TSI                            TUE 07/29/97 17:32 Page:104
          *** CROSS REFERENCE LISTING ***
**     DENOTES     IDENTIFIER DEFINITION
<<                 IDENTIFIER'S VALUE SET
>>                 IDENTIFIER'S VALUE USED
<>                 IDENTIFIER SET AND/OR USED
--                 IDENTIFIER REFERENCED
PL6.E3A0      #001=FSK$BANNER File=FSK$BANNER.:E05TSI                            TUE 07/29/97 17:32 Page:105
          MINI XREF LISTING

ADD_TO_REC IN PROCEDURE LOOK
      3101**PROC     3085--CALL
B$JIT.ACCN
      1195**DCL      3155--ASSIGN   3156--CALLBLT  3156>>CALLBLT
B$JIT.CPFLAGS1.SLEAZE
      1289**DCL      1289--REDEF
B$JIT.ERR.MID
      1196**DCL      1196--REDEF
B$JIT.JOBNAME
      1344**DCL      3164--ASSIGN   3165--CALLBLT  3165>>CALLBLT
B$JIT.SYSID
      1195**DCL      3152>>ASSIGN
B$JIT.UNAME
      1195**DCL      3158--ASSIGN   3159--CALLBLT  3159>>CALLBLT
B$JIT.WOO
      1195**DCL      3161--ASSIGN   3162--CALLBLT  3162>>CALLBLT
B$JIT$
      1355**DCL      1190--IMP-PTR  3165>>CALLBLT
BACKSPACE IN PROCEDURE ADD_TO_REC
      3268**LABEL    3248--GOTO
BANREC$
      2925**DCL      2950<<ASSIGN   3198<>CALL
BUFFA
      2563**DCL         8--PROC     2564--REDEF    3031<<ASSIGN   3044<<ASSIGN   3052<<ASSIGN   3063<<ASSIGN
BUFFER.ABUFF
      2570**DCL      3036<<ASSIGN   3044>>ASSIGN
BUFFER.BUFF
      2565**DCL      2569--REDEF    2570--REDEF
BUFFER.BUFF.AREST
      2568**DCL      3095>>IF
BUFFER.BUFF.VFC
      2566**DCL      2567--REDEF    3049>>IF
PL6.E3A0      #001=FSK$BANNER File=FSK$BANNER.:E05TSI                            TUE 07/29/97 17:32 Page:106
BUFFER.BUFF.VFCB
      2567**DCL      3056<<ASSIGN   3056>>ASSIGN
BUFFER.NBUFF
      2569**DCL      3119<<ASSIGN   3263<<ASSIGN
BYE IN PROCEDURE ADD_TO_REC
      3273**LABEL    3271--GOTO
CODE16.FORM
      2555**DCL      3190--ASSIGN   3191--CALLBLT  3191>>CALLBLT
CREP
      2911**DCL      3106<<ASSIGN   3107>>ASSIGN   3129<<ASSIGN   3130>>ASSIGN
CSET
      2874**DCL      3112>>ASSIGN   3240>>ASSIGN
CURR_ENTRY
      2908**DCL      2955<<DOINDEX  2956>>ASSIGN   3017>>ASSIGN   3070<<DOINDEX  3071>>ASSIGN   3092>>ASSIGN
DROW
      2915**DCL      3075<<ASSIGN   3076>>IF       3078>>IF       3106>>ASSIGN   3108>>ASSIGN   3129>>ASSIGN
      3131>>ASSIGN
ENTRIES
      2930**DCL      2956<<ASSIGN   3017>>ASSIGN   3071<<ASSIGN
ENTRIES.B.LEN
      2943**DCL      3219>>IF       3223>>ASSIGN
ENTRIES.B.START
      2942**DCL      3219>>IF       3221>>ASSIGN   3224>>CALLBLT
ENTRIES.CHR
      2945**DCL      3148>>ASSIGN
ENTRIES.CINC
      2938**DCL      3107>>ASSIGN   3130>>ASSIGN
ENTRIES.COL
      2932**DCL      3107>>ASSIGN   3130>>ASSIGN
ENTRIES.COUNT
      2944**DCL      2945--REDEF    3139>>ASSIGN   3216>>IF
ENTRIES.DISP
      2940**DCL      2941--REDEF    3138>>ASSIGN
ENTRIES.FONT
      2933**DCL      2970>>ASSIGN   2986>>ASSIGN   2994>>ASSIGN   3084>>ASSIGN
ENTRIES.ICSH
PL6.E3A0      #001=FSK$BANNER File=FSK$BANNER.:E05TSI                            TUE 07/29/97 17:32 Page:107
      2935**DCL      3247>>ASSIGN   3267>>ASSIGN
ENTRIES.MARK
      2947**DCL      3009<<ASSIGN   3012<<ASSIGN   3072>>IF
ENTRIES.REPS
      2936**DCL      2959>>IF       2963>>ASSIGN   2966>>IF       2970>>ASSIGN   2982>>IF       2986>>ASSIGN
      2989>>IF       2994>>ASSIGN
ENTRIES.RINC
      2937**DCL      2963>>ASSIGN   2963>>ASSIGN   2970>>ASSIGN   2970>>ASSIGN   2986>>ASSIGN   2986>>ASSIGN
      2994>>ASSIGN   2994>>ASSIGN   3105>>ASSIGN   3128>>ASSIGN
ENTRIES.ROW
      2931**DCL      3013>>IF       3015>>ASSIGN   3075>>ASSIGN
ENTRIES.STRIKES
      2934**DCL      3081>>IF       3238>>IF
ENTRIES.TOTLEN
      2946**DCL      2961<<ASSIGN   2963<<ASSIGN   2968<<ASSIGN   2970<<ASSIGN   2984<<ASSIGN   2986<<ASSIGN
      2991<<ASSIGN   2994<<ASSIGN   3005<<ASSIGN   3007>>IF       3013>>IF       3015>>ASSIGN   3078>>IF
ENTRIES.TYPE
      2939**DCL      2957>>DOCASE   3102>>IF       3136>>DOCASE   3213>>ASSIGN
ENT_FONT
      2928**DCL      3084<<ASSIGN   3128>>ASSIGN   3132>>IF       3229>>ASSIGN   3229>>ASSIGN   3232>>DOWHILE
      3235>>IF       3247>>ASSIGN   3254>>IF       3258>>ASSIGN   3259>>ASSIGN   3259>>ASSIGN   3260>>DOINDEX
F$DCB.ACTPOS
      2310**DCL      2310--REDEF
F$DCB.ARS
      2285**DCL      2285--REDEF
F$DCB.ATTR
      2303**DCL      2304--REDEF
F$DCB.BORROW
      2318**DCL      2318--REDEF    2318--REDEF    2318--REDEF
F$DCB.DCBNAME.L
      2332**DCL      2332--IMP-SIZ
F$DCB.EOMCHAR
      2289**DCL      2289--REDEF
F$DCB.FLDID
      2313**DCL      2313--REDEF
F$DCB.FORM$
PL6.E3A0      #001=FSK$BANNER File=FSK$BANNER.:E05TSI                            TUE 07/29/97 17:32 Page:108
      2307**DCL      2307--REDEF    3191>>CALLBLT
F$DCB.FSECT
      2323**DCL      2323--REDEF
F$DCB.FSN
      2300**DCL      2300--REDEF    2300--REDEF    2301--REDEF
F$DCB.HEADER$
      2306**DCL      2306--REDEF
F$DCB.IXTNSIZE
      2304**DCL      2304--REDEF
F$DCB.LASTSTA$
      2294**DCL      2294--REDEF
F$DCB.LVL
      2319**DCL      2319--REDEF
F$DCB.NAME
      2294**DCL      3174--CALLBLT
F$DCB.NAME.C
      2294**DCL      2294--REDEF
F$DCB.NOEOF
      2315**DCL      2315--REDEF
F$DCB.NRECS
      2305**DCL      2305--REDEF
F$DCB.NRECX
      2324**DCL      2324--REDEF
F$DCB.OHDR
      2316**DCL      2316--REDEF
F$DCB.ORG
      2299**DCL      2299--REDEF
F$DCB.PRECNO
      2322**DCL      2322--REDEF
F$DCB.RCSZ
      2327**DCL      2327--REDEF
F$DCB.RES
      2295**DCL      2295--REDEF
F$DCB.SETX
      2307**DCL      2307--REDEF
F$DCB.TAB$
PL6.E3A0      #001=FSK$BANNER File=FSK$BANNER.:E05TSI                            TUE 07/29/97 17:32 Page:109
      2306**DCL      2307--REDEF
F$DCB.TDA
      2321**DCL      2321--REDEF
F$DCB.WSN
      2296**DCL      2296--REDEF    3187--ASSIGN   3188--CALLBLT  3188>>CALLBLT
FONTINDX
      2913**DCL      3108<<ASSIGN   3109>>IF       3113>>ASSIGN   3131<<ASSIGN   3132>>IF       3259>>ASSIGN
FONT_ADDRS
      2849**DCL      3258>>ASSIGN
FONT_FOUR
      2792**DCL      2853--DCLINIT
FONT_HEIGHT
      2855**DCL      2970>>ASSIGN   2986>>ASSIGN   2994>>ASSIGN   3128>>ASSIGN   3132>>IF       3229>>ASSIGN
FONT_OFF
      2867**DCL      3259>>ASSIGN
FONT_ONE
      2574**DCL      2851--DCLINIT
FONT_THREE
      2660**DCL      2852--DCLINIT
FONT_WIDTH
      2861**DCL      3229>>ASSIGN   3232>>DOWHILE  3247>>ASSIGN   3259>>ASSIGN   3260>>DOINDEX
FONT_ZERO
      2571**DCL      2850--DCLINIT
FS$FINST
       785**DCL         8--PROC     3138--ASSIGN
FS$FINST.CHARGE
       786**DCL       787--REDEF
FS$FINST.ENTRIES
       793**DCL      2956>>ASSIGN   3017<<ASSIGN   3071>>ASSIGN
FS$FINST.ENTRIES.COUNT
       807**DCL       808--REDEF
FS$FINST.ENTRIES.DISP
       803**DCL       804--REDEF
FS$FINST.ENTRIES.MARK
       810**DCL      3092<<ASSIGN
FS$FINST.INTR
PL6.E3A0      #001=FSK$BANNER File=FSK$BANNER.:E05TSI                            TUE 07/29/97 17:32 Page:110
       791**DCL      2982>>IF       2989>>IF
FS$FINST.NUM_ENTRIES
       792**DCL      2955>>DOINDEX  3022>>IF       3070>>DOINDEX
FS$FINST.REPEATS
       790**DCL      3019>>IF       3021<<ASSIGN   3058>>IF
FS$WRSP
       839**DCL         8--PROC
FS$WRSP.DATE
       847**DCL      2999<>CALL     3171>>CALLBLT
FS$WRSP.DATE_TIME
       854**DCL      2999>>CALL
FS$WRSP.FIL
       846**DCL      2996>>IF       3001<<ASSIGN
FS$WRSP.JIT$
       851**DCL      3152>>ASSIGN   3156>>CALLBLT  3159>>CALLBLT  3162>>CALLBLT
FS$WRSP.MAXBYTES
       848**DCL      3032<<ASSIGN   3037<<ASSIGN   3086>>IF       3088<<ASSIGN
FS$WRSP.MAXROW
       844**DCL      2954<<ASSIGN   3013>>IF       3015<<ASSIGN   3038>>DOWHILE
FS$WRSP.REPEAT
       843**DCL      3029<<ASSIGN   3058>>IF       3062<<ASSIGN   3062>>ASSIGN   3072>>IF       3092>>ASSIGN
FS$WRSP.ROW
       841**DCL      3027<<ASSIGN   3038>>DOWHILE  3048<<ASSIGN   3048>>ASSIGN   3053<<ASSIGN   3053>>ASSIGN
      3061<<ASSIGN   3075>>ASSIGN
FS$WRSP.SITEINFO
       852**DCL      3177>>CALLBLT  3179>>ASSIGN   3181>>CALLBLT  3183>>ASSIGN   3185>>CALLBLT  3194>>CALLBLT
FS$WRSP.START
       840**DCL      2951>>IF       3024<<ASSIGN   3026<<ASSIGN   3066<<ASSIGN
FS$WRSP.STRIKES
       842**DCL      3028<<ASSIGN   3039>>IF       3042<<ASSIGN   3042>>ASSIGN   3047<<ASSIGN   3081>>IF
      3112>>ASSIGN   3240>>ASSIGN
FS$WRSP.SUBFILE$
       850**DCL      3174>>CALLBLT  3188>>CALLBLT  3191>>CALLBLT
FS$WRSP.TIME
       845**DCL      2999<>CALL     3168>>CALLBLT
FS$WRSP.WIDTH
PL6.E3A0      #001=FSK$BANNER File=FSK$BANNER.:E05TSI                            TUE 07/29/97 17:32 Page:111
       853**DCL      3030<<ASSIGN   3030>>ASSIGN   3116>>DOWHILE  3143>>IF       3144>>ASSIGN   3232>>DOWHILE
FSK$GETBANNERTEXT
      2562**DCL-ENT  3198--CALL
FS_OSFN.NUM
      2282**DCL      3174>>CALLBLT
I
      2910**DCL      3147<<DOINDEX  3148>>ASSIGN   3152<<ASSIGN   3153>>CALLBLT  3196<<ASSIGN   3198<>CALL
      3213<<ASSIGN   3231<<ASSIGN   3233>>ASSIGN   3268<<ASSIGN   3268>>ASSIGN   3269>>IF
INDX
      2921**DCL      3234<<ASSIGN   3243>>IF       3250>>IF       3250>>IF       3253<<ASSIGN   3259>>ASSIGN
L
      2923**DCL      3260<<DOINDEX
LET$
      2924**DCL      3113<<ASSIGN   3117>>IF       3258<<ASSIGN   3261>>IF
LETTER
      2920**DCL      3112<<ASSIGN   3119>>ASSIGN   3233<<ASSIGN   3234>>ASSIGN   3240<<ASSIGN   3256<<ASSIGN
      3263>>ASSIGN
LLEN
      2927**DCL      3229<<ASSIGN   3259>>ASSIGN
LOGOLEN
      2909**DCL      2963>>ASSIGN   3105>>ASSIGN   3109>>IF
LOGOMAT
      2885**DCL      3113--ASSIGN
LOOK
      3069**PROC     3043--CALL
MAT$LET
      2926**DCL      3117>>IF       3261>>IF
POS
      2922**DCL      3115<<ASSIGN   3117>>IF       3120<<ASSIGN   3120>>ASSIGN   3121>>IF       3259<<ASSIGN
      3261>>IF       3264<<ASSIGN   3264>>ASSIGN
PRT_POS
      2914**DCL      3086>>IF       3088>>ASSIGN   3114<<ASSIGN   3116>>DOWHILE  3119>>ASSIGN   3124<<ASSIGN
      3124>>ASSIGN   3230<<ASSIGN   3232>>DOWHILE  3246>>IF       3247<<ASSIGN   3247>>ASSIGN   3263>>ASSIGN
      3265<<ASSIGN   3265>>ASSIGN   3267<<ASSIGN   3267>>ASSIGN
RDBANTXT IN PROCEDURE ADD_TO_REC
      3198**LABEL    3214--GOTO
PL6.E3A0      #001=FSK$BANNER File=FSK$BANNER.:E05TSI                            TUE 07/29/97 17:32 Page:112
RDFLAG
      2929**DCL      2949<<ASSIGN   3198<>CALL
ROW_END
      3047**LABEL    3043--CALLALT
SCOL
      2912**DCL      3107<<ASSIGN   3114>>ASSIGN   3130<<ASSIGN   3143>>IF       3144>>ASSIGN   3230>>ASSIGN
      3246>>IF
SITEINFO.MINI_ID#
      2219**DCL      3193--ASSIGN   3194--CALLBLT  3194>>CALLBLT
SITEINFO.SALUTATION#.C
      2221**DCL      3185>>CALLBLT
SITEINFO.SALUTATION#.L
      2221**DCL      3183>>ASSIGN
SITEINFO.SITE_NAME#.C
      2220**DCL      3181>>CALLBLT
SITEINFO.SITE_NAME#.L
      2220**DCL      3179>>ASSIGN
SITEINFO.VERSION#
      2222**DCL      3176--ASSIGN   3177--CALLBLT  3177>>CALLBLT
TEXT
      2917**DCL      3140>>ASSIGN
TEXT$
      2919**DCL      3138<<ASSIGN   3140>>ASSIGN   3142<<ASSIGN   3148>>ASSIGN
TEXT2
      2918**DCL      3148<<ASSIGN
THEIGHT
      2916**DCL      3105<<ASSIGN   3106>>ASSIGN   3108>>ASSIGN   3128<<ASSIGN   3129>>ASSIGN   3131>>ASSIGN
WORKA
       870**DCL         8--PROC     2950--ASSIGN   2950--ASSIGN
WORKA.TWORK
       871**DCL      3198<>CALL
WORKA.TWORK.COUNT
       872**DCL      3139<<ASSIGN   3140>>ASSIGN   3144<<ASSIGN   3146<<ASSIGN   3147>>DOINDEX  3151<<ASSIGN
      3155<<ASSIGN   3158<<ASSIGN   3161<<ASSIGN   3164<<ASSIGN   3167<<ASSIGN   3170<<ASSIGN   3173<<ASSIGN
      3176<<ASSIGN   3179<<ASSIGN   3181>>CALLBLT  3183<<ASSIGN   3185>>CALLBLT  3187<<ASSIGN   3190<<ASSIGN
      3193<<ASSIGN   3201<<ASSIGN   3219>>IF       3221<<ASSIGN   3221>>ASSIGN   3223<<ASSIGN   3224>>CALLBLT
PL6.E3A0      #001=FSK$BANNER File=FSK$BANNER.:E05TSI                            TUE 07/29/97 17:32 Page:113
      3224>>CALLBLT  3269>>IF
WORKA.TWORK.TEXT
       873**DCL      3140<<ASSIGN   3142--ASSIGN   3153<<CALLBLT  3156<<CALLBLT  3159<<CALLBLT  3162<<CALLBLT
      3165<<CALLBLT  3168<<CALLBLT  3171<<CALLBLT  3174<<CALLBLT  3177<<CALLBLT  3181<<CALLBLT  3185<<CALLBLT
      3188<<CALLBLT  3191<<CALLBLT  3194<<CALLBLT  3200<<ASSIGN   3224<<CALLBLT  3224>>CALLBLT  3233>>ASSIGN

PL6.E3A0      #002=FSK$GETBANNERTEXT File=FSK$BANNER.:E05TSI                     TUE 07/29/97 17:33 Page:114
      751        1        /*T***********************************************************/
      752        2        /*T*                                                         */
      753        3        /*T* Copyright (c) Bull HN Information Systems Inc., 1997    */
      754        4        /*T*                                                         */
      755        5        /*T***********************************************************/
      756        6        FSK$GETBANNERTEXT: PROC (RD$,TEXTWORK,READ_ALREADY, ITEM#) ALTRET;
      757        7    1   DCL RD$ PTR;
      758        8    1   DCL 1 TEXTWORK,
      759        9    1            2 COUNT UBIN BYTE UNAL,
      760       10    1            2 TEXT CHAR (256);
      761       11    1   DCL READ_ALREADY BIT (1) ALIGNED;
      762       12    1   DCL ITEM# UBIN;
      763       13
      764       14        %INCLUDE CP_6;
      765     5573
      766     5574        %INCLUDE FS_BANNER_C;
      767     5615        %FS$BANNER;
      768     5637        %INCLUDE AS_SUPER_C;
      769     6072        %AS_USERS;
      770     6250        %INCLUDE FS_SUPER_C;
      771     7013        %FS$WORKAUTO;
      772     7032    1   DCL FMP$CLSJ ENTRY OPTIONAL;
      773     7033    1   DCL FMM$DFLOPNP ENTRY OPTIONAL;         /* Default open, Privileged. */
      774     7034    1   DCL FMM$SCRUB ENTRY(1) OPTIONAL;
      775     7035    1   DCL FRS$STRABT ENTRY ALTRET OPTIONAL;
      776     7036    1   DCL M$MREAD ENTRY(1)ALTRET OPTIONAL;
      777     7037
      778     7038    1   DCL RDBUF CHAR (%BTEXT_REC_SIZE) BASED (RD$);
      779     7039    1   DCL PTR2RD$ PTR;
      780     7040    1   DCL PTR2$ PTR;
      781     7041
      782     7042    1   DCL WOFF SBIN;
      783     7043
      784     7044    1        PTR2RD$ = ADDR (RDBUF);
      785     7045    1        IF NOT READ_ALREADY
      786     7046    2        THEN DO;
      787     7047    2               CALL FSK$READ_STAR_S (PTR2RD$) ALTRET (READ_ERR);
PL6.E3A0      #002=FSK$GETBANNERTEXT File=FSK$BANNER.:E05TSI                     TUE 07/29/97 17:33 Page:115
      788     7048    2               READ_ALREADY = '1'B;
      789     7049    2             END;
      790     7050
      791     7051    1        WOFF = PTR2RD$->FS$BANNER.TEXT_OFF (ITEM#);
      792     7052    1        IF WOFF ~= -1
      793     7053    2        THEN DO;
      794     7054    2               PTR2$ = PINCRC (PTR2RD$,WOFF);
      795     7055    2               TEXTWORK.COUNT = PTR2$->TEXT.LENGTH_ ;
      796     7056    2               TEXTWORK.TEXT = PTR2$->TEXT.VAL ;
      797     7057    2             END;
      798     7058    2        ELSE DO;
      799     7059    2               TEXTWORK.COUNT = 0;
      800     7060    2               TEXTWORK.TEXT = ' ';
      801     7061    2             END;
      802     7062
      803     7063    1        RETURN;
      804     7064    1   READ_ERR: ;
      805     7065    1        ALTRETURN;
      806     7066    1   FSK$READ_STAR_S: PROC(BUF$) ALTRET;
      807     7067        /* PARAMETERS */
      808     7068    2   DCL BUF$ PTR;
      809     7069        /* INCLUDE FILES */
      810     7070        %INCLUDE B$JIT;
      811     7673        %INCLUDE F$DCB;
      812     7722        %INCLUDE CP_6_SUBS;
      813     8262        /* EXTERNAL STORAGE */
      814     8263    2   DCL B$JIT$ PTR SYMREF;
      815     8264        /* LOCAL AUTOMATIC STORAGE */
      816     8265    2   DCL STAR$ PTR;
      817     8266    2   DCL JDCB$ PTR;
      818     8267    2   DCL SVERR BIT (36) ALIGNED;
      819     8268    2   DCL 1 BANKEY CONSTANT,
      820     8269    2            2 L UBIN BYTE UNAL INIT (10),
      821     8270    2            2 C CHAR(10) INIT ('BANNERTEXT');
      822     8271        /* CONSTANT STORAGE */
      823     8272        %FPT_READ(FPTN=CONSTREAD,STCLASS=STATIC,KEYS=YES,KEY=BANKEY);
      824     8311        %FPT_READ(FPTN=AUTOREAD,STCLASS=);
PL6.E3A0      #002=FSK$GETBANNERTEXT File=FSK$BANNER.:E05TSI                     TUE 07/29/97 17:33 Page:116
      825     8350        /**/
      826     8351    2        SVERR = B$JIT.ERR;
      827     8352    2        JDCB$ = B$JIT.DCB$;
      828     8353    2        STAR$ = DCBADDR(%M$STAR#);
      829     8354    2        B$JIT.DCB$ = STAR$;
      830     8355    2        IF STAR$->F$DCB.FCD THEN CALL FMP$CLSJ;
      831     8356    2        CONSTREAD.V.DCB# = %M$STAR#;
      832     8357    2        AUTOREAD = CONSTREAD;
      833     8358        /*         *   AUTOREAD.KEY_ = VECTOR(BANKEY);      */
      834     8359    2        AUTOREAD.BUF_.BUF$ = BUF$;
      835     8360    2        AUTOREAD.BUF_.BOUND = %BAN_REC_SZ;
      836     8361          /* PREPARE THE DCB FO AN OPEN  */
      837     8362    2        CALL FMM$SCRUB(STAR$);
      838     8363    2        STAR$->F$DCB.ASN = %FILE#;
      839     8364    2        STAR$->F$DCB.FUN = %IN#;
      840     8365    2        STAR$->F$DCB.SHARE = %ALL#;
      841     8366    2        STAR$->F$DCB.ACCT = B$JIT$->B$JIT.ACCN;
      842     8367    2        STAR$->F$DCB.ACS = %DIRECT#;
      843     8368    2        STAR$->F$DCB.ORG = %KEYED#;
      844     8369    2        STAR$->F$DCB.NAME.L = 2;
      845     8370    2        STAR$->F$DCB.NAME.C = '*S';
      846     8371    2   REOPN: ;
      847     8372    2        B$JIT.ERR = '0'B;
      848     8373    2        CALL FMM$DFLOPNP;
      849     8374    2        IF B$JIT.ERR THEN GOTO ERR;
      850     8375    2        CALL M$MREAD (AUTOREAD) ALTRET (ERR);
      851     8376           /* CLOSE FILE IF OPEN, RESTORE DCB & ERR CODE */
      852     8377    2        IF STAR$->F$DCB.FCD THEN CALL FMP$CLSJ;
      853     8378    2        B$JIT.ERR = SVERR;
      854     8379    2        B$JIT.DCB$ = JDCB$;
      855     8380    2        RETURN;
      856     8381    2   ERR: ;
      857     8382    2        B$JIT.DCB$ = JDCB$;
      858     8383    2        ALTRETURN;
      859     8384    2   END FSK$READ_STAR_S;
      860     8385    1   END FSK$GETBANNERTEXT;

PL6.E3A0      #002=FSK$GETBANNERTEXT File=FSK$BANNER.:E05TSI                     TUE 07/29/97 17:33 Page:117
--  Include file information  --

   CP_6_SUBS.:E05TOU  is referenced.
   F$DCB.:E05TOU  cannot be made into a system file and is referenced.
   B$JIT_C.:E05TOU  is referenced.
   B$JIT.:E05TOU  cannot be made into a system file and is referenced.
   FS_SUPER_C.:E05TOU  is referenced.
   AS_SUPER_C.:E05TOU  is referenced.
   FS_BANNER_C.:E05TOU  is referenced.
   CP_6_C.:E05TOU  is referenced.
   CP_6.:E05TOU  cannot be made into a system file and is referenced.
      No diagnostics issued in procedure FSK$GETBANNERTEXT.

   Procedure FSK$GETBANNERTEXT requires 143 words for executable code.
   Procedure FSK$GETBANNERTEXT requires 32 words of local(AUTO) storage.

    No errors detected in file FSK$BANNER.:E05TSI    .

PL6.E3A0      #002=FSK$GETBANNERTEXT File=FSK$BANNER.:E05TSI                     TUE 07/29/97 17:33 Page:118

 Object Unit name= FSK$GETBANNERTEXT                          File name= FSK$BANNER.:E05TOU
 UTS= JUL 29 '97 17:33:08.64 TUE                              Compiler= PL-6/E31         Sev=      00
 SharedLib= :SHARED_SYSTEM                                    Alt SharedLib=


    ****  Control sections  ****

 Sect   Type Bound  Init  Size OctSiz  Section name(segment info)
    0   DCB   even  none     0      0  M$UC
    1  RoData even  UTS      4      4  FSK$GETBANNERTEXT
    2   Data  even  none    14     16  FSK$GETBANNERTEXT
    3   Proc  even  none   143    217  FSK$GETBANNERTEXT
    4  RoData even  none     2      2  FSK$GETBANNERTEXT

    ****  Entry defs  ****

                              Check   Calling
                             calling  sequence
  Sect OctLoc Primary Altret sequence   type   Parms  Name
     3      0   yes    yes     yes      Std        4  FSK$GETBANNERTEXT

  ****  Entry refs  ****

         Check        Calling
        calling       sequence
Altret sequence SRef   type   Args  Name
         yes    yes    Std       0 FMP$CLSJ
         yes    yes    Std       1 FMM$SCRUB
         yes    yes    Std       0 FMM$DFLOPNP
 yes     yes    yes    Std       1 M$MREAD
                       nStd      0 X66_AUTO_4
                       Std       0 B_CONSPOOL_D
                       nStd      0 X66_ARET
                       nStd      0 X66_AALT
PL6.E3A0      #002=FSK$GETBANNERTEXT File=FSK$BANNER.:E05TSI                     TUE 07/29/97 17:33 Page:119

  ****  Data refs  ****

  Flags:  r = read only, s = secondary
Flgs Name                             Flgs Name                             Flgs Name
     M$UC                                  B$JIT$                                B_VECTNIL

  ****  Segment refs  ****

  Flags:  r = read only, s = secondary
Flgs Name                             Flgs Name                             Flgs Name
     ISSID                                 NULLSID                               ROSID
PL6.E3A0      #002=FSK$GETBANNERTEXT File=FSK$BANNER.:E05TSI                     TUE 07/29/97 17:33 Page:120


      751        1        /*T***********************************************************/
      752        2        /*T*                                                         */
      753        3        /*T* Copyright (c) Bull HN Information Systems Inc., 1997    */
      754        4        /*T*                                                         */
      755        5        /*T***********************************************************/
      756        6        FSK$GETBANNERTEXT: PROC (RD$,TEXTWORK,READ_ALREADY, ITEM#) ALTRET;

      6  3 000000   000000 700200 xent  FSK$GETBANN* TSX0  ! X66_AUTO_4
         3 000001   000040 000004                    ZERO    32,4

      757        7    1   DCL RD$ PTR;
      758        8    1   DCL 1 TEXTWORK,
      759        9    1            2 COUNT UBIN BYTE UNAL,
      760       10    1            2 TEXT CHAR (256);
      761       11    1   DCL READ_ALREADY BIT (1) ALIGNED;
      762       12    1   DCL ITEM# UBIN;
      763       13
      764       14        %INCLUDE CP_6;
      765     5573
      766     5574        %INCLUDE FS_BANNER_C;
      767     5615        %FS$BANNER;
      768     5637        %INCLUDE AS_SUPER_C;
      769     6072        %AS_USERS;
      770     6250        %INCLUDE FS_SUPER_C;
      771     7013        %FS$WORKAUTO;
      772     7032    1   DCL FMP$CLSJ ENTRY OPTIONAL;
      773     7033    1   DCL FMM$DFLOPNP ENTRY OPTIONAL;         /* Default open, Privileged. */
      774     7034    1   DCL FMM$SCRUB ENTRY(1) OPTIONAL;
      775     7035    1   DCL FRS$STRABT ENTRY ALTRET OPTIONAL;
      776     7036    1   DCL M$MREAD ENTRY(1)ALTRET OPTIONAL;
      777     7037
      778     7038    1   DCL RDBUF CHAR (%BTEXT_REC_SIZE) BASED (RD$);
      779     7039    1   DCL PTR2RD$ PTR;
      780     7040    1   DCL PTR2$ PTR;
      781     7041
      782     7042    1   DCL WOFF SBIN;
PL6.E3A0      #002=FSK$GETBANNERTEXT File=FSK$BANNER.:E05TSI                     TUE 07/29/97 17:33 Page:121
      783     7043
      784     7044    1        PTR2RD$ = ADDR (RDBUF);

   7044  3 000002   200003 470500                    LDP0    @RD$,,AUTO
         3 000003   000000 471500                    LDP1    0,,PR0
         3 000004   200007 451500                    STP1    PTR2RD$,,AUTO

      785     7045    1        IF NOT READ_ALREADY

   7045  3 000005   200005 473500                    LDP3    @READ_ALREADY,,AUTO
         3 000006   300000 234100                    SZN     0,,PR3
         3 000007   000017 604000 3                  TMI     s:7051

      786     7046    2        THEN DO;

      787     7047    2               CALL FSK$READ_STAR_S (PTR2RD$) ALTRET (READ_ERR);

   7047  3 000010   200007 634500                    EPPR4   PTR2RD$,,AUTO
         3 000011   200013 454500                    STP4    WOFF+2,,AUTO
         3 000012   000065 701000 3                  TSX1    FSK$READ_STAR_S
         3 000013   000064 702000 3                  TSX2    READ_ERR

      788     7048    2               READ_ALREADY = '1'B;

   7048  3 000014   400000 236003                    LDQ     -131072,DU
         3 000015   200005 470500                    LDP0    @READ_ALREADY,,AUTO
         3 000016   000000 756100                    STQ     0,,PR0

      789     7049    2             END;

      790     7050
      791     7051    1        WOFF = PTR2RD$->FS$BANNER.TEXT_OFF (ITEM#);

   7051  3 000017   200006 470500                    LDP0    @ITEM#,,AUTO
         3 000020   000000 235100                    LDA     0,,PR0
         3 000021   000044 733000                    LRS     36
         3 000022   000022 402007                    MPY     18,DL
PL6.E3A0      #002=FSK$GETBANNERTEXT File=FSK$BANNER.:E05TSI                     TUE 07/29/97 17:33 Page:122
         3 000023   200007 471500                    LDP1    PTR2RD$,,AUTO
         3 000024   003100 060506                    CSL     bolr='003'O
         3 000025   100000 400022                    BDSC    0,Q,PR1                  by=2,bit=0,n=18
         3 000026   200036 000044                    BDSC    AUTOREAD+14,,AUTO        by=0,bit=0,n=36
         3 000027   200036 236100                    LDQ     AUTOREAD+14,,AUTO
         3 000030   000022 732000                    QRS     18
         3 000031   200011 756100                    STQ     WOFF,,AUTO

      792     7052    1        IF WOFF ~= -1

   7052  3 000032   000027 116000 xsym               CMPQ    B_VECTNIL+23
         3 000033   000054 600000 3                  TZE     s:7059

      793     7053    2        THEN DO;

      794     7054    2               PTR2$ = PINCRC (PTR2RD$,WOFF);

   7054  3 000034   000020 736000                    QLS     16
         3 000035   200007 036100                    ADLQ    PTR2RD$,,AUTO
         3 000036   200010 756100                    STQ     PTR2$,,AUTO

      795     7055    2               TEXTWORK.COUNT = PTR2$->TEXT.LENGTH_ ;

   7055  3 000037   200010 473500                    LDP3    PTR2$,,AUTO
         3 000040   200004 474500                    LDP4    @TEXTWORK,,AUTO
         3 000041   000100 100500                    MLR     fill='000'O
         3 000042   300000 000001                    ADSC9   0,,PR3                   cn=0,n=1
         3 000043   400000 000001                    ADSC9   0,,PR4                   cn=0,n=1

      796     7056    2               TEXTWORK.TEXT = PTR2$->TEXT.VAL ;

   7056  3 000044   000100 101500                    MRL     fill='000'O
         3 000045   300000 000001                    ADSC9   0,,PR3                   cn=0,n=1
         3 000046   200036 000002                    ADSC9   AUTOREAD+14,,AUTO        cn=0,n=2
         3 000047   200036 220100                    LDX0    AUTOREAD+14,,AUTO
         3 000050   040100 100540                    MLR     fill='040'O
         3 000051   300000 200010                    ADSC9   0,,PR3                   cn=1,n=*X0
PL6.E3A0      #002=FSK$GETBANNERTEXT File=FSK$BANNER.:E05TSI                     TUE 07/29/97 17:33 Page:123
         3 000052   400000 200400                    ADSC9   0,,PR4                   cn=1,n=256

      797     7057    2             END;

   7057  3 000053   000063 710000 3                  TRA     s:7063

      798     7058    2        ELSE DO;

      799     7059    2               TEXTWORK.COUNT = 0;

   7059  3 000054   200004 473500                    LDP3    @TEXTWORK,,AUTO
         3 000055   000100 101400                    MRL     fill='000'O
         3 000056   000002 000004 xsym               ADSC9   B_VECTNIL+2              cn=0,n=4
         3 000057   300000 000001                    ADSC9   0,,PR3                   cn=0,n=1

      800     7060    2               TEXTWORK.TEXT = ' ';

   7060  3 000060   040100 100400                    MLR     fill='040'O
         3 000061   000035 000001 xsym               ADSC9   B_VECTNIL+29             cn=0,n=1
         3 000062   300000 200400                    ADSC9   0,,PR3                   cn=1,n=256

      801     7061    2             END;

      802     7062
      803     7063    1        RETURN;

   7063  3 000063   000000 702200 xent               TSX2  ! X66_ARET

   7060  3 000064                       READ_ERR     null
      804     7064    1   READ_ERR: ;
      805     7065    1        ALTRETURN;

   7065  3 000064   000000 702200 xent               TSX2  ! X66_AALT

      806     7066    1   FSK$READ_STAR_S: PROC(BUF$) ALTRET;

   7066  3 000065   200012 741300       FSK$READ_ST* STX1  ! WOFF+1,,AUTO
PL6.E3A0      #002=FSK$GETBANNERTEXT File=FSK$BANNER.:E05TSI                     TUE 07/29/97 17:33 Page:124

      807     7067        /* PARAMETERS */
      808     7068    2   DCL BUF$ PTR;
      809     7069        /* INCLUDE FILES */
      810     7070        %INCLUDE B$JIT;
      811     7673        %INCLUDE F$DCB;
      812     7722        %INCLUDE CP_6_SUBS;
      813     8262        /* EXTERNAL STORAGE */
      814     8263    2   DCL B$JIT$ PTR SYMREF;
      815     8264        /* LOCAL AUTOMATIC STORAGE */
      816     8265    2   DCL STAR$ PTR;
      817     8266    2   DCL JDCB$ PTR;
      818     8267    2   DCL SVERR BIT (36) ALIGNED;
      819     8268    2   DCL 1 BANKEY CONSTANT,
      820     8269    2            2 L UBIN BYTE UNAL INIT (10),
      821     8270    2            2 C CHAR(10) INIT ('BANNERTEXT');
      822     8271        /* CONSTANT STORAGE */
      823     8272        %FPT_READ(FPTN=CONSTREAD,STCLASS=STATIC,KEYS=YES,KEY=BANKEY);
      824     8311        %FPT_READ(FPTN=AUTOREAD,STCLASS=);
      825     8350        /**/
      826     8351    2        SVERR = B$JIT.ERR;

   8351  3 000066   000000 470400 xsym               LDP0    B$JIT$
         3 000067   000012 236100                    LDQ     10,,PR0
         3 000070   200016 756100                    STQ     SVERR,,AUTO

      827     8352    2        JDCB$ = B$JIT.DCB$;

   8352  3 000071   000232 236100                    LDQ     154,,PR0
         3 000072   200015 756100                    STQ     JDCB$,,AUTO

      828     8353    2        STAR$ = DCBADDR(%M$STAR#);

   8353  3 000073   000000 471400 4                  LDP1    0
         3 000074   100000 473500                    LDP3    0,,PR1
         3 000075   300001 236100                    LDQ     1,,PR3
         3 000076   200014 756100                    STQ     STAR$,,AUTO
PL6.E3A0      #002=FSK$GETBANNERTEXT File=FSK$BANNER.:E05TSI                     TUE 07/29/97 17:33 Page:125

      829     8354    2        B$JIT.DCB$ = STAR$;

   8354  3 000077   000232 756100                    STQ     154,,PR0

      830     8355    2        IF STAR$->F$DCB.FCD THEN CALL FMP$CLSJ;

   8355  3 000100   200014 474500                    LDP4    STAR$,,AUTO
         3 000101   400031 236100                    LDQ     25,,PR4
         3 000102   020000 316007                    CANQ    8192,DL
         3 000103   000107 600000 3                  TZE     s:8356

   8355  3 000104   000002 631400 xsym               EPPR1   B_VECTNIL+2
         3 000105   000000 701000 xent               TSX1    FMP$CLSJ
         3 000106   000000 011000                    NOP     0

      831     8356    2        CONSTREAD.V.DCB# = %M$STAR#;

   8356  3 000107   000001 220003                    LDX0    1,DU
         3 000110   000010 740000 2                  STX0    CONSTREAD+8

      832     8357    2        AUTOREAD = CONSTREAD;

   8357  3 000111   000100 100400                    MLR     fill='000'O
         3 000112   000000 000070 2                  ADSC9   CONSTREAD                cn=0,n=56
         3 000113   200020 000070                    ADSC9   AUTOREAD,,AUTO           cn=0,n=56

      833     8358        /*         *   AUTOREAD.KEY_ = VECTOR(BANKEY);      */
      834     8359    2        AUTOREAD.BUF_.BUF$ = BUF$;

   8359  3 000114   200013 470500                    LDP0    @BUF$,,AUTO
         3 000115   000000 236100                    LDQ     0,,PR0
         3 000116   200025 756100                    STQ     AUTOREAD+5,,AUTO

      835     8360    2        AUTOREAD.BUF_.BOUND = %BAN_REC_SZ;

   8360  3 000117   200024 236100                    LDQ     AUTOREAD+4,,AUTO
PL6.E3A0      #002=FSK$GETBANNERTEXT File=FSK$BANNER.:E05TSI                     TUE 07/29/97 17:33 Page:126
         3 000120   177777 376007                    ANQ     65535,DL
         3 000121   000403 276003                    ORQ     259,DU
         3 000122   200024 756100                    STQ     AUTOREAD+4,,AUTO

      836     8361          /* PREPARE THE DCB FO AN OPEN  */
      837     8362    2        CALL FMM$SCRUB(STAR$);

   8362  3 000123   200014 631500                    EPPR1   STAR$,,AUTO
         3 000124   200036 451500                    STP1    AUTOREAD+14,,AUTO
         3 000125   200036 630500                    EPPR0   AUTOREAD+14,,AUTO
         3 000126   000017 631400 xsym               EPPR1   B_VECTNIL+15
         3 000127   000000 701000 xent               TSX1    FMM$SCRUB
         3 000130   000000 011000                    NOP     0

      838     8363    2        STAR$->F$DCB.ASN = %FILE#;

   8363  3 000131   200014 470500                    LDP0    STAR$,,AUTO
         3 000132   001000 236007                    LDQ     512,DL
         3 000133   000032 552110                    STBQ    26,'10'O,PR0

      839     8364    2        STAR$->F$DCB.FUN = %IN#;

   8364  3 000134   000002 236003                    LDQ     2,DU
         3 000135   000032 552120                    STBQ    26,'20'O,PR0

      840     8365    2        STAR$->F$DCB.SHARE = %ALL#;

   8365  3 000136   000031 236100                    LDQ     25,,PR0
         3 000137   000001 376000 4                  ANQ     1
         3 000140   000200 276007                    ORQ     128,DL
         3 000141   000031 756100                    STQ     25,,PR0

      841     8366    2        STAR$->F$DCB.ACCT = B$JIT$->B$JIT.ACCN;

   8366  3 000142   000000 471400 xsym               LDP1    B$JIT$
         3 000143   040100 100500                    MLR     fill='040'O
         3 000144   100001 000010                    ADSC9   1,,PR1                   cn=0,n=8
PL6.E3A0      #002=FSK$GETBANNERTEXT File=FSK$BANNER.:E05TSI                     TUE 07/29/97 17:33 Page:127
         3 000145   000020 000010                    ADSC9   16,,PR0                  cn=0,n=8

      842     8367    2        STAR$->F$DCB.ACS = %DIRECT#;

   8367  3 000146   000002 236007                    LDQ     2,DL
         3 000147   000036 552104                    STBQ    30,'04'O,PR0

      843     8368    2        STAR$->F$DCB.ORG = %KEYED#;

   8368  3 000150   002000 236003                    LDQ     1024,DU
         3 000151   000032 552140                    STBQ    26,'40'O,PR0

      844     8369    2        STAR$->F$DCB.NAME.L = 2;

   8369  3 000152   000010 552140                    STBQ    8,'40'O,PR0

      845     8370    2        STAR$->F$DCB.NAME.C = '*S';

   8370  3 000153   200014 470500                    LDP0    STAR$,,AUTO
         3 000154   040100 100400                    MLR     fill='040'O
         3 000155   000003 000002 1                  ADSC9   BANKEY+3                 cn=0,n=2
         3 000156   000010 200037                    ADSC9   8,,PR0                   cn=1,n=31

   8370  3 000157                       REOPN        null
      846     8371    2   REOPN: ;
      847     8372    2        B$JIT.ERR = '0'B;

   8372  3 000157   100012 450100                    STZ     10,,PR1

      848     8373    2        CALL FMM$DFLOPNP;

   8373  3 000160   000002 631400 xsym               EPPR1   B_VECTNIL+2
         3 000161   000000 701000 xent               TSX1    FMM$DFLOPNP
         3 000162   000000 011000                    NOP     0

      849     8374    2        IF B$JIT.ERR THEN GOTO ERR;

PL6.E3A0      #002=FSK$GETBANNERTEXT File=FSK$BANNER.:E05TSI                     TUE 07/29/97 17:33 Page:128
   8374  3 000163   000000 470400 xsym               LDP0    B$JIT$
         3 000164   000012 235100                    LDA     10,,PR0
         3 000165   000212 601000 3                  TNZ     ERR

      850     8375    2        CALL M$MREAD (AUTOREAD) ALTRET (ERR);

   8375  3 000166   200020 631500                    EPPR1   AUTOREAD,,AUTO
         3 000167   200036 451500                    STP1    AUTOREAD+14,,AUTO
         3 000170   200036 630500                    EPPR0   AUTOREAD+14,,AUTO
         3 000171   000017 631400 xsym               EPPR1   B_VECTNIL+15
         3 000172   000000 701000 xent               TSX1    M$MREAD
         3 000173   000212 702000 3                  TSX2    ERR

      851     8376           /* CLOSE FILE IF OPEN, RESTORE DCB & ERR CODE */
      852     8377    2        IF STAR$->F$DCB.FCD THEN CALL FMP$CLSJ;

   8377  3 000174   200014 470500                    LDP0    STAR$,,AUTO
         3 000175   000031 236100                    LDQ     25,,PR0
         3 000176   020000 316007                    CANQ    8192,DL
         3 000177   000203 600000 3                  TZE     s:8378

   8377  3 000200   000002 631400 xsym               EPPR1   B_VECTNIL+2
         3 000201   000000 701000 xent               TSX1    FMP$CLSJ
         3 000202   000000 011000                    NOP     0

      853     8378    2        B$JIT.ERR = SVERR;

   8378  3 000203   200016 236100                    LDQ     SVERR,,AUTO
         3 000204   000000 470400 xsym               LDP0    B$JIT$
         3 000205   000012 756100                    STQ     10,,PR0

      854     8379    2        B$JIT.DCB$ = JDCB$;

   8379  3 000206   200015 236100                    LDQ     JDCB$,,AUTO
         3 000207   000232 756100                    STQ     154,,PR0

      855     8380    2        RETURN;
PL6.E3A0      #002=FSK$GETBANNERTEXT File=FSK$BANNER.:E05TSI                     TUE 07/29/97 17:33 Page:129

   8380  3 000210   200012 221300                    LDX1  ! WOFF+1,,AUTO
         3 000211   000001 702211                    TSX2  ! 1,X1

   8379  3 000212                       ERR          null
      856     8381    2   ERR: ;
      857     8382    2        B$JIT.DCB$ = JDCB$;

   8382  3 000212   200015 236100                    LDQ     JDCB$,,AUTO
         3 000213   000000 470400 xsym               LDP0    B$JIT$
         3 000214   000232 756100                    STQ     154,,PR0

      858     8383    2        ALTRETURN;

   8383  3 000215   200012 221300                    LDX1  ! WOFF+1,,AUTO
         3 000216   000000 702211                    TSX2  ! 0,X1

BANKEY
 Sect OctLoc
   1     000   012102 101116   116105 122124   105130 124***                    .BANNERTEXT.

(unnamed)
 Sect OctLoc
   1     003   052123 040040                                                    *S

CONSTREAD
 Sect OctLoc
   2     000   000005 777640   000010 006000   000002 577640   000000 006000    ................
   2     004   000000 177640   000000 006014   000000 177640   000000 006014    ................
   2     010   000000 600000   000000 000000   000000 000000   000000 000000    ................
   2     014   000000 000000   000000 000000                                    ........

(unnamed)
 Sect OctLoc
   4     000   000000 006003   777777 777177                                    ........
      859     8384    2   END FSK$READ_STAR_S;
      860     8385    1   END FSK$GETBANNERTEXT;
PL6.E3A0      #002=FSK$GETBANNERTEXT File=FSK$BANNER.:E05TSI                     TUE 07/29/97 17:33 Page:130

PL6.E3A0      #002=FSK$GETBANNERTEXT File=FSK$BANNER.:E05TSI                     TUE 07/29/97 17:33 Page:131
--  Include file information  --

   CP_6_SUBS.:E05TOU  is referenced.
   F$DCB.:E05TOU  cannot be made into a system file and is referenced.
   B$JIT_C.:E05TOU  is referenced.
   B$JIT.:E05TOU  cannot be made into a system file and is referenced.
   FS_SUPER_C.:E05TOU  is referenced.
   AS_SUPER_C.:E05TOU  is referenced.
   FS_BANNER_C.:E05TOU  is referenced.
   CP_6_C.:E05TOU  is referenced.
   CP_6.:E05TOU  cannot be made into a system file and is referenced.
      No diagnostics issued in procedure FSK$GETBANNERTEXT.
PL6.E3A0      #002=FSK$GETBANNERTEXT File=FSK$BANNER.:E05TSI                     TUE 07/29/97 17:33 Page:132

 **** Variables and constants ****

  ****  Section 001 RoData FSK$GETBANNERTEXT

  ****  Scalars and arrays  ****
OctLoc.c.b A Datatyp(siz) R M Lvl/name                 OctLoc.c.b A Datatyp(siz) R M Lvl/name

     0-0-0/c STRC(99)    r     1 BANKEY

  ****  Section 002  Data  FSK$GETBANNERTEXT

  ****  Scalars and arrays  ****
OctLoc.c.b A Datatyp(siz) R M Lvl/name                 OctLoc.c.b A Datatyp(siz) R M Lvl/name

     0-0-0/d STRC(504)   r     1 CONSTREAD

  ****  Auto variables  ****

  ****  Scalars and arrays  ****
OctLoc.c.b A Datatyp(siz) R M Lvl/name                 OctLoc.c.b A Datatyp(siz) R M Lvl/name

    13-0-0/w PTR         r     1 @BUF$                      6-0-0/w PTR         r     1 @ITEM#
     3-0-0/w PTR         r     1 @RD$                       5-0-0/w PTR         r     1 @READ_ALREADY
     4-0-0/w PTR         r     1 @TEXTWORK                 20-0-0/d STRC(504)   r     1 AUTOREAD
    *0-0-0/w PTR         r     1 BUF$                      *0-0-0/w UBIN        r     1 ITEM#
    15-0-0/w PTR         r     1 JDCB$                     10-0-0/w PTR         r     1 PTR2$
     7-0-0/w PTR         r     1 PTR2RD$                   *0-0-0/w PTR         r     1 RD$
    *0-0-0/w BIT         r     1 READ_ALREADY              14-0-0/w PTR         r     1 STAR$
    16-0-0/w BIT         r     1 SVERR                     *0-0-0/c STRC(2313)  r     1 TEXTWORK
    11-0-0/w SBIN        r     1 WOFF

  ****  SYMREF variables  ****

  ****  Scalars and arrays  ****
OctLoc.c.b A Datatyp(siz) R M Lvl/name                 OctLoc.c.b A Datatyp(siz) R M Lvl/name

     0-0-0/w PTR         r     1 B$JIT$
PL6.E3A0      #002=FSK$GETBANNERTEXT File=FSK$BANNER.:E05TSI                     TUE 07/29/97 17:33 Page:133

  ****  BASED and DCB variables  ****

  ****  Scalars and arrays  ****
OctLoc.c.b A Datatyp(siz) R M Lvl/name                 OctLoc.c.b A Datatyp(siz) R M Lvl/name

     0-0-0/d STRC(8856)  r     1 B$JIT                      0-0-0/d ASTR(3528)  r     1 F$DCB
     0-0-0/b STRC(198)   r     1 FS$BANNER                  0-0-0/c CHAR(824)   r     1 RDBUF
     0-0-0/c ASTR(9)     r     1 TEXT


   Procedure FSK$GETBANNERTEXT requires 143 words for executable code.
   Procedure FSK$GETBANNERTEXT requires 32 words of local(AUTO) storage.

    No errors detected in file FSK$BANNER.:E05TSI    .
PL6.E3A0      #002=FSK$GETBANNERTEXT File=FSK$BANNER.:E05TSI                     TUE 07/29/97 17:33 Page:134
          *** CROSS REFERENCE LISTING ***
**     DENOTES     IDENTIFIER DEFINITION
<<                 IDENTIFIER'S VALUE SET
>>                 IDENTIFIER'S VALUE USED
<>                 IDENTIFIER SET AND/OR USED
--                 IDENTIFIER REFERENCED
PL6.E3A0      #002=FSK$GETBANNERTEXT File=FSK$BANNER.:E05TSI                     TUE 07/29/97 17:33 Page:135
          MINI XREF LISTING

AS_USERS.BANNER_PERM
      6200**DCL      6201--REDEF
AS_USERS.BUDGET.MACCT
      6105**DCL      6109--REDEF
AS_USERS.BUDGET.MAX_PROJECTS
      6118**DCL      6121--REDEF
AS_USERS.BUDGET.PACCUM
      6101**DCL      6103--REDEF
AS_USERS.BUDGET.PMAXC
      6096**DCL      6098--REDEF
AS_USERS.SETUP_CHRA.TXT
      6216**DCL      6217--REDEF    6218--REDEF
AUTOREAD IN PROCEDURE FSK$READ_STAR_S
      8328**DCL      8357<<ASSIGN   8375<>CALL
AUTOREAD.BUF_.BOUND IN PROCEDURE FSK$READ_STAR_S
      8330**DCL      8360<<ASSIGN
AUTOREAD.BUF_.BUF$ IN PROCEDURE FSK$READ_STAR_S
      8331**DCL      8359<<ASSIGN
AUTOREAD.STATION_ IN PROCEDURE FSK$READ_STAR_S
      8331**DCL      8332--REDEF
AUTOREAD.V.DVBYTE.REREAD# IN PROCEDURE FSK$READ_STAR_S
      8343**DCL      8343--REDEF
AUTOREAD.V.INDX# IN PROCEDURE FSK$READ_STAR_S
      8341**DCL      8341--REDEF
B$JIT.ACCN IN PROCEDURE FSK$READ_STAR_S
      7397**DCL      8366>>ASSIGN
B$JIT.CPFLAGS1.SLEAZE IN PROCEDURE FSK$READ_STAR_S
      7491**DCL      7491--REDEF
B$JIT.DCB$ IN PROCEDURE FSK$READ_STAR_S
      7565**DCL      8352>>ASSIGN   8354<<ASSIGN   8379<<ASSIGN   8382<<ASSIGN
B$JIT.ERR IN PROCEDURE FSK$READ_STAR_S
      7397**DCL      8351>>ASSIGN   8372<<ASSIGN   8374>>IF       8378<<ASSIGN
PL6.E3A0      #002=FSK$GETBANNERTEXT File=FSK$BANNER.:E05TSI                     TUE 07/29/97 17:33 Page:136
B$JIT.ERR.MID IN PROCEDURE FSK$READ_STAR_S
      7398**DCL      7398--REDEF
B$JIT.JRESPEAK IN PROCEDURE FSK$READ_STAR_S
      7559**DCL      7560--REDEF
B$JIT.ORIGINATOR_PORT.FROM_CR IN PROCEDURE FSK$READ_STAR_S
      7668**DCL      7668--REDEF    7669--REDEF
B$JIT.PNR IN PROCEDURE FSK$READ_STAR_S
      7572**DCL      7572--REDEF
B$JIT.TSLINE IN PROCEDURE FSK$READ_STAR_S
      7666**DCL      7667--REDEF
B$JIT$ IN PROCEDURE FSK$READ_STAR_S
      8263**DCL      7392--IMP-PTR  8351>>ASSIGN   8352>>ASSIGN   8354>>ASSIGN   8366>>ASSIGN   8372>>ASSIGN
      8374>>IF       8378>>ASSIGN   8379>>ASSIGN   8382>>ASSIGN
BANKEY IN PROCEDURE FSK$READ_STAR_S
      8268**DCL      8289--DCLINIT  8290--DCLINIT
BUF$ IN PROCEDURE FSK$READ_STAR_S
      7068**DCL      7066--PROC     8359>>ASSIGN
CONSTREAD IN PROCEDURE FSK$READ_STAR_S
      8289**DCL      8357>>ASSIGN
CONSTREAD.STATION_ IN PROCEDURE FSK$READ_STAR_S
      8292**DCL      8293--REDEF
CONSTREAD.V IN PROCEDURE FSK$READ_STAR_S
      8293**DCL      8289--DCLINIT
CONSTREAD.V.DCB# IN PROCEDURE FSK$READ_STAR_S
      8293**DCL      8356<<ASSIGN
CONSTREAD.V.DVBYTE.REREAD# IN PROCEDURE FSK$READ_STAR_S
      8304**DCL      8304--REDEF
CONSTREAD.V.INDX# IN PROCEDURE FSK$READ_STAR_S
      8302**DCL      8302--REDEF
ERR IN PROCEDURE FSK$READ_STAR_S
      8379**LABEL    8374--GOTO     8375--CALLALT
F$DCB.ACCT IN PROCEDURE FSK$READ_STAR_S
      7684**DCL      8366<<ASSIGN
F$DCB.ACS IN PROCEDURE FSK$READ_STAR_S
      7691**DCL      8367<<ASSIGN
F$DCB.ACTPOS IN PROCEDURE FSK$READ_STAR_S
PL6.E3A0      #002=FSK$GETBANNERTEXT File=FSK$BANNER.:E05TSI                     TUE 07/29/97 17:33 Page:137
      7699**DCL      7699--REDEF
F$DCB.ARS IN PROCEDURE FSK$READ_STAR_S
      7674**DCL      7674--REDEF
F$DCB.ASN IN PROCEDURE FSK$READ_STAR_S
      7689**DCL      8363<<ASSIGN
F$DCB.ATTR IN PROCEDURE FSK$READ_STAR_S
      7692**DCL      7693--REDEF
F$DCB.BORROW IN PROCEDURE FSK$READ_STAR_S
      7707**DCL      7707--REDEF    7707--REDEF    7707--REDEF
F$DCB.DCBNAME.L IN PROCEDURE FSK$READ_STAR_S
      7721**DCL      7721--IMP-SIZ
F$DCB.EOMCHAR IN PROCEDURE FSK$READ_STAR_S
      7678**DCL      7678--REDEF
F$DCB.FCD IN PROCEDURE FSK$READ_STAR_S
      7687**DCL      8355>>IF       8377>>IF
F$DCB.FLDID IN PROCEDURE FSK$READ_STAR_S
      7702**DCL      7702--REDEF
F$DCB.FORM$ IN PROCEDURE FSK$READ_STAR_S
      7696**DCL      7696--REDEF
F$DCB.FSECT IN PROCEDURE FSK$READ_STAR_S
      7712**DCL      7712--REDEF
F$DCB.FSN IN PROCEDURE FSK$READ_STAR_S
      7689**DCL      7689--REDEF    7689--REDEF    7690--REDEF
F$DCB.FUN IN PROCEDURE FSK$READ_STAR_S
      7688**DCL      8364<<ASSIGN
F$DCB.HEADER$ IN PROCEDURE FSK$READ_STAR_S
      7695**DCL      7695--REDEF
F$DCB.IXTNSIZE IN PROCEDURE FSK$READ_STAR_S
      7693**DCL      7693--REDEF
F$DCB.LASTSTA$ IN PROCEDURE FSK$READ_STAR_S
      7683**DCL      7683--REDEF
F$DCB.LVL IN PROCEDURE FSK$READ_STAR_S
      7708**DCL      7708--REDEF
F$DCB.NAME.C IN PROCEDURE FSK$READ_STAR_S
      7683**DCL      7683--REDEF    8370<<ASSIGN
F$DCB.NAME.L IN PROCEDURE FSK$READ_STAR_S
PL6.E3A0      #002=FSK$GETBANNERTEXT File=FSK$BANNER.:E05TSI                     TUE 07/29/97 17:33 Page:138
      7683**DCL      8369<<ASSIGN
F$DCB.NOEOF IN PROCEDURE FSK$READ_STAR_S
      7704**DCL      7704--REDEF
F$DCB.NRECS IN PROCEDURE FSK$READ_STAR_S
      7694**DCL      7694--REDEF
F$DCB.NRECX IN PROCEDURE FSK$READ_STAR_S
      7713**DCL      7713--REDEF
F$DCB.OHDR IN PROCEDURE FSK$READ_STAR_S
      7705**DCL      7705--REDEF
F$DCB.ORG IN PROCEDURE FSK$READ_STAR_S
      7688**DCL      7688--REDEF    8368<<ASSIGN
F$DCB.PRECNO IN PROCEDURE FSK$READ_STAR_S
      7711**DCL      7711--REDEF
F$DCB.RCSZ IN PROCEDURE FSK$READ_STAR_S
      7716**DCL      7716--REDEF
F$DCB.RES IN PROCEDURE FSK$READ_STAR_S
      7684**DCL      7684--REDEF
F$DCB.SETX IN PROCEDURE FSK$READ_STAR_S
      7696**DCL      7696--REDEF
F$DCB.SHARE IN PROCEDURE FSK$READ_STAR_S
      7687**DCL      8365<<ASSIGN
F$DCB.TAB$ IN PROCEDURE FSK$READ_STAR_S
      7695**DCL      7696--REDEF
F$DCB.TDA IN PROCEDURE FSK$READ_STAR_S
      7710**DCL      7710--REDEF
F$DCB.WSN IN PROCEDURE FSK$READ_STAR_S
      7685**DCL      7685--REDEF
FMM$DFLOPNP
      7033**DCL-ENT  8373--CALL
FMM$SCRUB
      7034**DCL-ENT  8362--CALL
FMP$CLSJ
      7032**DCL-ENT  8355--CALL     8377--CALL
FS$BANNER.PERM
      5627**DCL      5628--REDEF
FS$BANNER.TEXT_OFF
PL6.E3A0      #002=FSK$GETBANNERTEXT File=FSK$BANNER.:E05TSI                     TUE 07/29/97 17:33 Page:139
      5630**DCL      7051>>ASSIGN
FSK$READ_STAR_S
      7066**PROC     7047--CALL
ITEM#
        12**DCL         6--PROC     7051>>ASSIGN
JDCB$ IN PROCEDURE FSK$READ_STAR_S
      8266**DCL      8352<<ASSIGN   8379>>ASSIGN   8382>>ASSIGN
M$MREAD
      7036**DCL-ENT  8375--CALL
PTR2$
      7040**DCL      7054<<ASSIGN   7055>>ASSIGN   7056>>ASSIGN   7056>>ASSIGN
PTR2RD$
      7039**DCL      7044<<ASSIGN   7047<>CALL     7051>>ASSIGN   7054>>ASSIGN
RD$
         7**DCL         6--PROC     7038--IMP-PTR  7044>>ASSIGN
RDBUF
      7038**DCL      7044--ASSIGN
READ_ALREADY
        11**DCL         6--PROC     7045>>IF       7048<<ASSIGN
READ_ERR
      7060**LABEL    7047--CALLALT
STAR$ IN PROCEDURE FSK$READ_STAR_S
      8265**DCL      8353<<ASSIGN   8354>>ASSIGN   8355>>IF       8362<>CALL     8363>>ASSIGN   8364>>ASSIGN
      8365>>ASSIGN   8366>>ASSIGN   8367>>ASSIGN   8368>>ASSIGN   8369>>ASSIGN   8370>>ASSIGN   8377>>IF
SVERR IN PROCEDURE FSK$READ_STAR_S
      8267**DCL      8351<<ASSIGN   8378>>ASSIGN
TEXT.LENGTH_
      5634**DCL      5635--IMP-SIZ  7055>>ASSIGN   7056>>ASSIGN
TEXT.VAL
      5635**DCL      7056>>ASSIGN
TEXTWORK
         8**DCL         6--PROC
TEXTWORK.COUNT
         9**DCL      7055<<ASSIGN   7059<<ASSIGN
TEXTWORK.TEXT
        10**DCL      7056<<ASSIGN   7060<<ASSIGN
PL6.E3A0      #002=FSK$GETBANNERTEXT File=FSK$BANNER.:E05TSI                     TUE 07/29/97 17:33 Page:140
WOFF
      7042**DCL      7051<<ASSIGN   7052>>IF       7054>>ASSIGN
