PL6.E3A0      #003=FSL$UC File=FSL$LDEV.:E05TSI                                  TUE 07/29/97 17:34 Page:168
      886        1        /*T***********************************************************/
      887        2        /*T*                                                         */
      888        3        /*T* Copyright (c) Bull HN Information Systems Inc., 1997    */
      889        4        /*T*                                                         */
      890        5        /*T***********************************************************/
      891        6        /*F*      NAME: FSL$UC
      892        7                  PURPOSE: FSL$UC creates a new LDEV stream for a UC
      893        8                            stream.
      894        9                  DESCRIPTION:  When a stream begins with 'UC' it is a
      895       10                                Logical Commiuication devices.  Instead of
      896       11                                the description being in the FIT of the file
      897       12                                it will exists as records in the *A file.
      898       13                   */
      899       14
      900       15        FSL$UC: PROC (INDX);
      901       16
      902       17        /* Include files */
      903       18        %INCLUDE FS$FIT;
      904       61        %INCLUDE CP_6;
      905     5620        %INCLUDE F$JIT_C;
      906     6050        %MACRO B$ROSEG(BASED=BASED);
      907     6051        %INCLUDE B$ROSEG;
      908     6114        %MEND;
      909     6115        %B$ROSEG(BASED="BASED(B$ROSEG$)");
      910     6175        %INCLUDE F$DCB;
      911     6224        %INCLUDE F$CP6V_C;
      912     6450        %INCLUDE CP_6_SUBS;
      913     6990        %INCLUDE F_FMTCODE_C;
      914     7024        %INCLUDE KI_SUBS_C;
      915     7160    1   DCL KIA$DCLSTR ENTRY(2) ALTRET;
      916     7161    1   DCL FSN$CONV_STR ENTRY(2) ALTRET;
      917     7162    1   DCL KIA$REDSTR ENTRY(2) ALTRET;
      918     7163    1   DCL KIA$CLSSTR ENTRY(3) ALTRET;
      919     7164    1   DCL KIA$WINDOW ENTRY(2) ALTRET;
      920     7165
      921     7166        /* Parameters */
      922     7167    1   DCL INDX UBIN;                          /* Index of stream in roseg */
PL6.E3A0      #003=FSL$UC File=FSL$LDEV.:E05TSI                                  TUE 07/29/97 17:34 Page:169
      923     7168
      924     7169        /* Structures */
      925     7170        %VLP_TAB (FPTN=VLP$TAB,STCLASS=BASED);
      926     7184        %VLP_HDR (FPTN=VLP$HDRF,STCLASS=BASED,LEN=160);
      927     7200    1   DCL 1 VLP$HDRU BASED CALIGNED, 2 * CHAR(J);
      928     7201        %FS$LDEVDDF (NAME=FS$DDF,STCLASS=BASED);
      929     7205        %FS$LDEVDDF (NAME=FS$DDFSZ,STCLASS=BASED,SIZ=FIT);
      930     7209        %FPT$LDEV_V (BASED="BASED(B$PS0$)");
      931     7215        /* Default window for FS */
      932     7216        %VLP_WINDOW (FPTN=FS_WINDOW,FWINDOW='UC01',STCLASS="CONSTANT SYMDEF");
      933     7260        %VLP_WINDOW(FPTN=VLP$WINDOW,STCLASS="BASED(B$PS5$)");
      934     7304        %VLP_WINDOW (FPTN=WINDOW,STCLASS=AUTO);
      935     7348
      936     7349        /* Auto */
      937     7350    1   DCL BUFFER CHAR(4096) BASED(BUF$);
      938     7351    1   DCL BUF$ PTR;
      939     7352    1   DCL 1 LDEV_KEY,
      940     7353    1            2 SZ UBIN BYTE UNAL,
      941     7354    1            2 BLK CHAR(1) UNAL,
      942     7355    1            2 NAME CHAR(4) UNAL;
      943     7356    1   DCL J SBIN;
      944     7357    1   DCL DCB$ PTR;
      945     7358    1   DCL ONLINE BIT(1);
      946     7359    1   DCL FRMSTRM UBIN;
      947     7360    1   DCL 1 FRMSTRM_BYTE REDEF FRMSTRM,
      948     7361    1            2 * BIT(27),
      949     7362    1            2 STR UBIN BYTE UNAL;
      950     7363    1   DCL FRMSTRM_TEXT CHAR(4);
      951     7364
      952     7365        /* References */
      953     7366    1   DCL B$JIT$ PTR SYMREF;
      954     7367    1   DCL B$M$STAR$ PTR SYMREF READONLY;
      955     7368    1   DCL B$M$UC$ PTR SYMREF READONLY;
      956     7369    1   DCL B$PS0$ PTR SYMREF;                  /* V area of FPT_LDEV */
      957     7370    1   DCL B$PS1$ PTR SYMREF;                  /* TAB area of FPT_LDEV */
      958     7371    1   DCL B$PS2$ PTR SYMREF;                  /* HDR area of FPT_LDEV */
      959     7372    1   DCL B$PS5$ PTR SYMREF;                  /*->WINDOW area of LDEV FPT*/
PL6.E3A0      #003=FSL$UC File=FSL$LDEV.:E05TSI                                  TUE 07/29/97 17:34 Page:170
      960     7373    1   DCL B$ROSEG$ PTR SYMREF;
      961     7374
      962     7375        /* Entry references */
      963     7376    1   DCL FSB$GETDDF ENTRY(1) ALTRET;
      964     7377    1   DCL FMD$GBUF ENTRY (1);
      965     7378    1   DCL FMD$RBUF ENTRY (1);
      966     7379    1   DCL HFF$NIL ENTRY(1) ALTRET;
      967     7380    1   DCL HFF$ERASE ENTRY(1) ALTRET;
      968     7381    1   DCL HFF$DSIZ ENTRY(2);
      969     7382    1   DCL HFF$TRAPALT ENTRY ALTRET;
      970     7383    1   DCL HFF$NILERASE ENTRY(1) ALTRET;
      971     7384    1   DCL FMM$DFLOPNP ENTRY;
      972     7385    1   DCL FMP$CLSJ ENTRY;
      973     7386    1   DCL M$MREAD ENTRY(1) ALTRET;
      974     7387    1   DCL M$MWRITE ENTRY(1) ALTRET;
      975     7388    1   DCL FSA$FDCB ENTRY(1);
      976     7389
      977     7390        /* FPT's */
      978     7391        %FPT_READ (FPTN=FPT_READ_CONS,STCLASS=CONSTANT,KEYS=YES);
      979     7430        %FPT_READ (STCLASS=AUTO);
      980     7469        %FPT_WRITE (FPTN=FPT_WRITE_CONS,STCLASS=CONSTANT);
      981     7500        %FPT_WRITE (STCLASS=AUTO);
      982     7531
      983     7532        %EJECT;
PL6.E3A0      #003=FSL$UC File=FSL$LDEV.:E05TSI                                  TUE 07/29/97 17:34 Page:171
      984     7533
      985     7534    1        CALL FMD$GBUF (BUF$);
      986     7535    1        BUF$->FS$DDFSZ = '0'B;
      987     7536    1        IF B$M$UC$->F$DCB.MEDIA = FMTUC#
      988     7537    1        THEN
      989     7538    1             ONLINE = '1'B;
      990     7539    1        ELSE
      991     7540    1             ONLINE = '0'B;
      992     7541
      993     7542    1        IF B$ROSEG$->B$ROSEG.STREAMID.FLG(INDX) = 2 /* Stream open */
      994     7543    2        THEN DO;
      995     7544    2             J = B$ROSEG$->B$ROSEG.NUMDCBS;
      996     7545    3             DO WHILE (J>=%M$MAXNEG#);
      997     7546    3                  IF B$ROSEG.DCBPTR$->B$RODCB$(J)~=ADDR(NIL)
      998     7547    3                       AND B$ROSEG.DCBPTR$->B$RODCB$(J)~=B$M$UC$ THEN
      999     7548    3                       IF B$ROSEG.DCBPTR$->B$RODCB$(J)->F$DCB.IASN=%STREAM#
     1000     7549    3                            AND B$ROSEG.DCBPTR$->B$RODCB$(J)->F$DCB.CFU$=B$M$UC$
     1001     7550    3                            AND B$ROSEG.DCBPTR$->B$RODCB$(J)->F$DCB.STR=INDX THEN
     1002     7551    3                            B$ROSEG.DCBPTR$->B$RODCB$(J)->F$DCB.FCD=%NO#;
     1003     7552    3                  J=J-1;
     1004     7553    3                END;
     1005     7554
     1006     7555    2             IF ONLINE
     1007     7556    2             THEN
     1008     7557    2                  CALL KIA$CLSSTR (INDX,'0'B,'0'B);
     1009     7558    2             B$ROSEG$->B$ROSEG.STREAMID.FLG(INDX) = 1;
     1010     7559    2           END;
     1011     7560
     1012     7561    1        CALL OPEN_STAR ALTRET(CLEAN_UP);
     1013     7562    1        CALL HFF$TRAPALT ALTRET(TRAPALT);
     1014     7563
     1015     7564    1        IF B$ROSEG$->B$ROSEG.STREAMID.FLG(INDX) ~= 0
     1016     7565    1        THEN
     1017     7566    1             CALL READ_CLDEV(BUF$)
     1018     7567    2             WHENALTRETURN DO;
     1019     7568    2                  B$JIT.ERR = '0'B;
     1020     7569    2                END;
PL6.E3A0      #003=FSL$UC File=FSL$LDEV.:E05TSI                                  TUE 07/29/97 17:34 Page:172
     1021     7570
     1022     7571    1        IF (FPT$LDEV_V.REMOVE OR FPT$LDEV_V.LOGON) AND
     1023     7572    1             INDX > KIDM_DB
     1024     7573    2        THEN DO;
     1025     7574    2             IF ONLINE AND B$ROSEG$->B$ROSEG.STREAMID.FLG(INDX) ~= 0
     1026     7575    2             THEN
     1027     7576    2                  CALL KIA$CLSSTR(INDX,FPT$LDEV_V.REMOVE,FPT$LDEV_V.LOGON);
     1028     7577    2             B$ROSEG$->B$ROSEG.STREAMID(INDX) = '0'B;
     1029     7578    2             B$ROSEG$->B$ROSEG.LDEVNAME(INDX) = '    ';
     1030     7579    2   TRAPALT:  ;
     1031     7580    2             B$JIT.DCB$ = B$M$STAR$;
     1032     7581    2             CALL FMP$CLSJ;
     1033     7582    2             GOTO CLEAN_UP;
     1034     7583    2           END;
     1035     7584
     1036     7585    1        FRMSTRM = 0;
     1037     7586    1        IF FPT$LDEV_V.FRMSTRM ~= ' '
     1038     7587    2        THEN DO;
     1039     7588    2             CALL CONCAT (FRMSTRM_TEXT,'UC',FPT$LDEV_V.FRMSTRM);
     1040     7589    2             CALL FSN$CONV_STR(FRMSTRM_TEXT,FRMSTRM_BYTE.STR);
     1041     7590    2           END;
     1042     7591    1        IF FPT$LDEV_V.LINES~=0 THEN
     1043     7592    1             BUF$->FS$DDFSZ.LINES=FPT$LDEV_V.LINES;
     1044     7593    1        IF FPT$LDEV_V.DVFC~=BINASC(0) THEN
     1045     7594    1             BUF$->FS$DDFSZ.DVFC=FPT$LDEV_V.DVFC;
     1046     7595    1        IF FPT$LDEV_V.WIDTH~=0 THEN
     1047     7596    1             BUF$->FS$DDFSZ.WIDTH=FPT$LDEV_V.WIDTH;
     1048     7597    1        IF FPT$LDEV_V.ATTR THEN
     1049     7598    1             BUF$->FS$DDFSZ.ATTR=FPT$LDEV_V.ATTR;
     1050     7599    1        CALL HFF$NIL(B$PS1$)
     1051     7600    2        WHENRETURN DO;
     1052     7601    2             CALL HFF$ERASE(B$PS1$)
     1053     7602    3             WHENRETURN DO;
     1054     7603    3                  BUF$->FS$DDFSZ.F.TAB = '1'B;
     1055     7604    3                  PINCRW(BUF$,SIZEW(FS$DDFSZ))->VLP$TAB = B$PS1$->VLP$TAB;
     1056     7605    3                END;
     1057     7606    3             WHENALTRETURN DO;
PL6.E3A0      #003=FSL$UC File=FSL$LDEV.:E05TSI                                  TUE 07/29/97 17:34 Page:173
     1058     7607    3                  BUF$->FS$DDFSZ.F.TAB = '0'B;
     1059     7608    3                END;
     1060     7609    2           END;
     1061     7610    1        CALL HFF$NIL(B$PS2$)
     1062     7611    2        WHENRETURN DO;
     1063     7612    2             CALL HFF$ERASE(B$PS2$)
     1064     7613    3             WHENRETURN DO;
     1065     7614    3                  BUF$->FS$DDFSZ.F.HDR = '1'B;
     1066     7615    3                  CALL HFF$DSIZ(B$PS2$,J);
     1067     7616    3                  PINCRW(BUF$,SIZEW(FS$DDFSZ)+SIZEW(VLP$TAB))->VLP$HDRF
     1068     7617    3                       = B$PS2$->VLP$HDRU;
     1069     7618    3                END;
     1070     7619    3             WHENALTRETURN DO;
     1071     7620    3                  BUF$->FS$DDFSZ.F.HDR = '0'B;
     1072     7621    3                END;
     1073     7622    2           END;
     1074     7623    1        BUF$->FS$DDFSZ.SIZ = SIZEW(FS$DDF)+SIZEW(VLP$TAB)+SIZEW(VLP$HDRF);
     1075     7624
     1076     7625    1        FPT_WRITE = FPT_WRITE_CONS;
     1077     7626    1        FPT_WRITE.V_ = VECTOR(FPT_WRITE.V);
     1078     7627    1        FPT_WRITE.KEY_ = VECTOR(LDEV_KEY);
     1079     7628    1        FPT_WRITE.V.DCB# = %M$STAR#;
     1080     7629    1        FPT_WRITE.BUF_ = VECTOR(BUFFER);
     1081     7630    1        FPT_WRITE.BUF_.BOUND = BUF$->FS$DDFSZ.SIZ * 4 + 3;
     1082     7631    1        CALL M$MWRITE (FPT_WRITE)
     1083     7632    2        WHENALTRETURN DO;
     1084     7633    2           END;
     1085     7634    1        B$JIT.DCB$ = B$M$STAR$;
     1086     7635    1        CALL FMP$CLSJ;
     1087     7636
     1088     7637        /* Finish setting up ROSEG */
     1089     7638    1        B$ROSEG$->B$ROSEG.STREAMID.UC_STR(INDX) = '1'B;
     1090     7639    1        IF ONLINE
     1091     7640    2        THEN DO;
     1092     7641    2             IF B$ROSEG$->B$ROSEG.STREAMID.FLG(INDX) = 0
     1093     7642    3             THEN DO;
     1094     7643    3                  IF FRMSTRM = 0
PL6.E3A0      #003=FSL$UC File=FSL$LDEV.:E05TSI                                  TUE 07/29/97 17:34 Page:174
     1095     7644    3                  THEN
     1096     7645    3                       FRMSTRM = KIDM_USER;
     1097     7646    3                  CALL KIA$DCLSTR (FRMSTRM, INDX) ALTRET (CLEAN_UP);
     1098     7647    3                END;
     1099     7648    2             ELSE
     1100     7649    2                  IF FRMSTRM ~= 0
     1101     7650    2                  THEN
     1102     7651    2                       CALL KIA$REDSTR(INDX,FRMSTRM) ALTRET (CLEAN_UP);
     1103     7652    2             CALL HFF$NILERASE(5)
     1104     7653    3             WHENRETURN DO;
     1105     7654    3                  WINDOW = VLP$WINDOW;
     1106     7655    3                  CALL KIA$WINDOW(INDX,WINDOW) ALTRET (CLEAN_UP);
     1107     7656    3                  B$ROSEG$->B$ROSEG.STREAMID.WINDOW(INDX) = '1'B;
     1108     7657    3                END;
     1109     7658    2           END;
     1110     7659
     1111     7660    1        B$ROSEG$->B$ROSEG.STREAMID.FLG(INDX) = 1;
     1112     7661
     1113     7662    1   CLEAN_UP:
     1114     7663    1        CALL FMD$RBUF(BUF$);
     1115     7664
     1116     7665    1        RETURN;
     1117     7666        %EJECT;
PL6.E3A0      #003=FSL$UC File=FSL$LDEV.:E05TSI                                  TUE 07/29/97 17:34 Page:175
     1118     7667    1   FSL$GET_CLDEV: ENTRY (INDX);
     1119     7668
     1120     7669
     1121     7670    1        DCB$ = B$JIT.DCB$;
     1122     7671    1        CALL OPEN_STAR
     1123     7672    2        WHENALTRETURN DO;
     1124     7673    2             B$JIT.DCB$ = DCB$;
     1125     7674    2             RETURN;
     1126     7675    2           END;
     1127     7676    1        CALL FMD$GBUF(BUF$);
     1128     7677    1        BUF$->FS$DDFSZ = '0'B;
     1129     7678    1        CALL READ_CLDEV;
     1130     7679    1        IF DCB$~=B$M$UC$
     1131     7680    2        THEN DO;
     1132     7681                  /*N* SET UP REST OF THE STREAM DCB ATTRIBUTES */
     1133     7682    2             B$JIT.DCB$ = DCB$;
     1134     7683    2             B$JIT.DCB$->F$DCB.MEDIA = FMTUC#;
     1135     7684    2             CALL FSB$GETDDF(PINCRW(BUF$,1));
     1136     7685    2           END;
     1137     7686    1        B$JIT.DCB$ = B$M$STAR$;
     1138     7687    1        CALL FMP$CLSJ;
     1139     7688    1        B$JIT.DCB$ = DCB$;
     1140     7689    1        GOTO CLEAN_UP;
     1141     7690
     1142     7691        %EJECT;
PL6.E3A0      #003=FSL$UC File=FSL$LDEV.:E05TSI                                  TUE 07/29/97 17:34 Page:176
     1143     7692    1   OPEN_STAR: PROC ALTRET;
     1144     7693
     1145     7694    2        B$JIT.DCB$ = B$M$STAR$;
     1146     7695    2        B$M$STAR$->F$DCB.NAME.L = 2;
     1147     7696    2        B$M$STAR$->F$DCB.NAME.C = '*A';
     1148     7697    2        B$M$STAR$->F$DCB.ASN = %FILE#;
     1149     7698    2        B$M$STAR$->F$DCB.FUN = %UPDATE#;
     1150     7699    2        CALL FMM$DFLOPNP;
     1151     7700    2        IF B$JIT.ERR ~= '0'B               /* Cant open *A */
     1152     7701    3        THEN DO;
     1153     7702    3             ALTRETURN;
     1154     7703    3           END;
     1155     7704    2        LDEV_KEY.SZ = 5;
     1156     7705    2        LDEV_KEY.BLK = ' ';
     1157     7706    2        LDEV_KEY.NAME = B$ROSEG$->B$ROSEG.LDEVNAME(INDX);
     1158     7707
     1159     7708    2        RETURN;
     1160     7709
     1161     7710    2   END OPEN_STAR;
     1162     7711
     1163     7712        %EJECT;
PL6.E3A0      #003=FSL$UC File=FSL$LDEV.:E05TSI                                  TUE 07/29/97 17:34 Page:177
     1164     7713    1   READ_CLDEV: PROC (BUF$) ALTRET;
     1165     7714
     1166     7715    2   DCL BUF$ PTR;
     1167     7716
     1168     7717    2        FPT_READ = FPT_READ_CONS;
     1169     7718    2        FPT_READ.V.DCB# = %M$STAR#;
     1170     7719    2        FPT_READ.V_ = VECTOR (FPT_READ.V);
     1171     7720    2        FPT_READ.KEY_ = VECTOR (LDEV_KEY);
     1172     7721    2        FPT_READ.BUF_ = VECTOR(BUFFER);
     1173     7722    2        CALL M$MREAD (FPT_READ)
     1174     7723    3        WHENALTRETURN DO;
     1175     7724    3             ALTRETURN;
     1176     7725    3           END;
     1177     7726
     1178     7727    2        RETURN;
     1179     7728
     1180     7729    2   END READ_CLDEV;
     1181     7730
     1182     7731    1   END FSL$UC;
     1183     7732        /*      ME  is the all-purpose most reasonable place for input and
     1184     7733                   output.  Its name is intended to be derived from the
     1185     7734                   word "me"; i.e., the place that "I" am.
     1186     7735                   When you are a timesharing user, ME input comes from your
     1187     7736                   terminal unless you are XEQ'ing, in which case it comes
     1188     7737                   from the XEQ.  Timesharing user ME output is written to
     1189     7738                   your terminal.
     1190     7739                   Batch ME input comes from the command file that was
     1191     7740                   BATCHed to create the batch job, unless the job is doing
     1192     7741                   an XEQ, in which case it comes from the XEQ.  Batch ME
     1193     7742                   output is written to the line printer LP.
     1194     7743
     1195     7744                CR  is the input side of ME.  The name CR stands for
     1196     7745                   "Command Read".  It is just like ME, except you can't
     1197     7746                   output to it.
     1198     7747
     1199     7748                LO  is the output side of ME.  The name LO stands for
     1200     7749                   "Listing Output".  It is just like ME, except you
PL6.E3A0      #003=FSL$UC File=FSL$LDEV.:E05TSI                                  TUE 07/29/97 17:34 Page:178
     1201     7750                   can't read from it.
     1202     7751
     1203     7752                UC  is the interactive place.  The name UC stands for
     1204     7753                   "User Console".  When you are a timesharing user, UC
     1205     7754                   input always comes from your terminal and UC output
     1206     7755                   always is written to your terminal.  In batch there is
     1207     7756                   no place to interact, so UC input is an end-of-file and
     1208     7757                   UC output is thrown away.
     1209     7758
     1210     7759                LP  is the line printer.  The name LP stands for "Line
     1211     7760                   Printer".  Output to LP goes to the line printer; you
     1212     7761                   can't read from LP.
     1213     7762
     1214     7763                NO  is no place at all.  The name NO means the word "no".
     1215     7764                   NO input is an end-of-file; NO output is thrown away.
     1216     7765
     1217     7766                CP  is the card punch.  The name CP stands for "Card Punch".
     1218     7767                   Output to CP goes to the card punch; you can't read from
     1219     7768                   CP.
     1220     7769
     1221     7770                GR  is the graphics place.  The name GR stands for "GRaphics".
     1222     7771                   Output to GR goes to the graphics device; you can't read
     1223     7772                   from GR.
     1224     7773        */

PL6.E3A0      #003=FSL$UC File=FSL$LDEV.:E05TSI                                  TUE 07/29/97 17:34 Page:179
--  Include file information  --

   KI_SUBS_C.:E05TOU  is referenced.
   F_FMTCODE_C.:E05TOU  is referenced.
   CP_6_SUBS.:E05TOU  is referenced.
   F$CP6V_C.:E05TOU  is referenced.
   F$DCB.:E05TOU  cannot be made into a system file and is referenced.
   B$ROSEG.:E05TOU  is referenced.
   B$JIT_C.:E05TOU  is referenced.
   F$JIT_C.:E05TOU  cannot be made into a system file and is referenced.
   CP_6_C.:E05TOU  is referenced.
   CP_6.:E05TOU  cannot be made into a system file and is referenced.
   FS$FIT.:E05TOU  is referenced.
      No diagnostics issued in procedure FSL$UC.

   Procedure FSL$UC requires 463 words for executable code.
   Procedure FSL$UC requires 52 words of local(AUTO) storage.

    No errors detected in file FSL$LDEV.:E05TSI    .

PL6.E3A0      #003=FSL$UC File=FSL$LDEV.:E05TSI                                  TUE 07/29/97 17:34 Page:180

 Object Unit name= FSL$UC                                     File name= FSL$LDEV.:E05TOU
 UTS= JUL 29 '97 17:34:56.56 TUE                              Compiler= PL-6/E31         Sev=      00
 SharedLib= :SHARED_SYSTEM                                    Alt SharedLib=


    ****  Control sections  ****

 Sect   Type Bound  Init  Size OctSiz  Section name(segment info)
    0   DCB   even  none     0      0  M$UC
    1  RoData even  UTS     37     45  FSL$UC
    2   Proc  even  none   463    717  FSL$UC
    3  RoData even  none    17     21  FSL$UC

    ****  Entry defs  ****

                              Check   Calling
                             calling  sequence
  Sect OctLoc Primary Altret sequence   type   Parms  Name
     2      0   yes            yes      Std        1  FSL$UC
     2    530                  yes      Std        1  FSL$GET_CLDEV

  ****  Data defs  ****

 Sect OctLoc  Name                           Sect OctLoc  Name
    1      0  FS_WINDOW
PL6.E3A0      #003=FSL$UC File=FSL$LDEV.:E05TSI                                  TUE 07/29/97 17:34 Page:181

  ****  Entry refs  ****

         Check        Calling
        calling       sequence
Altret sequence SRef   type   Args  Name
         yes           Std       1 FMD$GBUF
 yes     yes           Std       3 KIA$CLSSTR
 yes     yes           Std       0 HFF$TRAPALT
 yes     yes           Std       2 FSN$CONV_STR
 yes     yes           Std       1 M$MWRITE
 yes     yes           Std       1 HFF$NIL
         yes           Std       2 HFF$DSIZ
 yes     yes           Std       1 HFF$NILERASE
 yes     yes           Std       1 FSB$GETDDF
         yes           Std       0 FMP$CLSJ
 yes     yes           Std       1 HFF$ERASE
 yes     yes           Std       2 KIA$REDSTR
         yes           Std       1 FMD$RBUF
 yes     yes           Std       2 KIA$DCLSTR
 yes     yes           Std       2 KIA$WINDOW
         yes           Std       0 FMM$DFLOPNP
 yes     yes           Std       1 M$MREAD
                       nStd      0 X66_AUTO_1
                       Std       0 B_CONSPOOL_D
                       nStd      0 X66_ARET

  ****  Data refs  ****

  Flags:  r = read only, s = secondary
Flgs Name                             Flgs Name                             Flgs Name
     M$UC                                  B$JIT$                           r    B$M$STAR$
r    B$M$UC$                               B$PS0$                                B$PS1$
     B$PS2$                                B$PS5$                                B$ROSEG$
     B_VECTNIL
PL6.E3A0      #003=FSL$UC File=FSL$LDEV.:E05TSI                                  TUE 07/29/97 17:34 Page:182

  ****  Segment refs  ****

  Flags:  r = read only, s = secondary
Flgs Name                             Flgs Name                             Flgs Name
     ISSID                                 NULLSID
PL6.E3A0      #003=FSL$UC File=FSL$LDEV.:E05TSI                                  TUE 07/29/97 17:34 Page:183


      886        1        /*T***********************************************************/
      887        2        /*T*                                                         */
      888        3        /*T* Copyright (c) Bull HN Information Systems Inc., 1997    */
      889        4        /*T*                                                         */
      890        5        /*T***********************************************************/
      891        6        /*F*      NAME: FSL$UC
      892        7                  PURPOSE: FSL$UC creates a new LDEV stream for a UC
      893        8                            stream.
      894        9                  DESCRIPTION:  When a stream begins with 'UC' it is a
      895       10                                Logical Commiuication devices.  Instead of
      896       11                                the description being in the FIT of the file
      897       12                                it will exists as records in the *A file.
      898       13                   */
      899       14
      900       15        FSL$UC: PROC (INDX);

     15  2 000000   000000 700200 xent  FSL$UC       TSX0  ! X66_AUTO_1
         2 000001   000064 000001                    ZERO    52,1

      901       16
      902       17        /* Include files */
      903       18        %INCLUDE FS$FIT;
      904       61        %INCLUDE CP_6;
      905     5620        %INCLUDE F$JIT_C;
      906     6050        %MACRO B$ROSEG(BASED=BASED);
      907     6051        %INCLUDE B$ROSEG;
      908     6114        %MEND;
      909     6115        %B$ROSEG(BASED="BASED(B$ROSEG$)");
      910     6175        %INCLUDE F$DCB;
      911     6224        %INCLUDE F$CP6V_C;
      912     6450        %INCLUDE CP_6_SUBS;
      913     6990        %INCLUDE F_FMTCODE_C;
      914     7024        %INCLUDE KI_SUBS_C;
      915     7160    1   DCL KIA$DCLSTR ENTRY(2) ALTRET;
      916     7161    1   DCL FSN$CONV_STR ENTRY(2) ALTRET;
      917     7162    1   DCL KIA$REDSTR ENTRY(2) ALTRET;
PL6.E3A0      #003=FSL$UC File=FSL$LDEV.:E05TSI                                  TUE 07/29/97 17:34 Page:184
      918     7163    1   DCL KIA$CLSSTR ENTRY(3) ALTRET;
      919     7164    1   DCL KIA$WINDOW ENTRY(2) ALTRET;
      920     7165
      921     7166        /* Parameters */
      922     7167    1   DCL INDX UBIN;                          /* Index of stream in roseg */
      923     7168
      924     7169        /* Structures */
      925     7170        %VLP_TAB (FPTN=VLP$TAB,STCLASS=BASED);
      926     7184        %VLP_HDR (FPTN=VLP$HDRF,STCLASS=BASED,LEN=160);
      927     7200    1   DCL 1 VLP$HDRU BASED CALIGNED, 2 * CHAR(J);
      928     7201        %FS$LDEVDDF (NAME=FS$DDF,STCLASS=BASED);
      929     7205        %FS$LDEVDDF (NAME=FS$DDFSZ,STCLASS=BASED,SIZ=FIT);
      930     7209        %FPT$LDEV_V (BASED="BASED(B$PS0$)");
      931     7215        /* Default window for FS */
      932     7216        %VLP_WINDOW (FPTN=FS_WINDOW,FWINDOW='UC01',STCLASS="CONSTANT SYMDEF");
      933     7260        %VLP_WINDOW(FPTN=VLP$WINDOW,STCLASS="BASED(B$PS5$)");
      934     7304        %VLP_WINDOW (FPTN=WINDOW,STCLASS=AUTO);
      935     7348
      936     7349        /* Auto */
      937     7350    1   DCL BUFFER CHAR(4096) BASED(BUF$);
      938     7351    1   DCL BUF$ PTR;
      939     7352    1   DCL 1 LDEV_KEY,
      940     7353    1            2 SZ UBIN BYTE UNAL,
      941     7354    1            2 BLK CHAR(1) UNAL,
      942     7355    1            2 NAME CHAR(4) UNAL;
      943     7356    1   DCL J SBIN;
      944     7357    1   DCL DCB$ PTR;
      945     7358    1   DCL ONLINE BIT(1);
      946     7359    1   DCL FRMSTRM UBIN;
      947     7360    1   DCL 1 FRMSTRM_BYTE REDEF FRMSTRM,
      948     7361    1            2 * BIT(27),
      949     7362    1            2 STR UBIN BYTE UNAL;
      950     7363    1   DCL FRMSTRM_TEXT CHAR(4);
      951     7364
      952     7365        /* References */
      953     7366    1   DCL B$JIT$ PTR SYMREF;
      954     7367    1   DCL B$M$STAR$ PTR SYMREF READONLY;
PL6.E3A0      #003=FSL$UC File=FSL$LDEV.:E05TSI                                  TUE 07/29/97 17:34 Page:185
      955     7368    1   DCL B$M$UC$ PTR SYMREF READONLY;
      956     7369    1   DCL B$PS0$ PTR SYMREF;                  /* V area of FPT_LDEV */
      957     7370    1   DCL B$PS1$ PTR SYMREF;                  /* TAB area of FPT_LDEV */
      958     7371    1   DCL B$PS2$ PTR SYMREF;                  /* HDR area of FPT_LDEV */
      959     7372    1   DCL B$PS5$ PTR SYMREF;                  /*->WINDOW area of LDEV FPT*/
      960     7373    1   DCL B$ROSEG$ PTR SYMREF;
      961     7374
      962     7375        /* Entry references */
      963     7376    1   DCL FSB$GETDDF ENTRY(1) ALTRET;
      964     7377    1   DCL FMD$GBUF ENTRY (1);
      965     7378    1   DCL FMD$RBUF ENTRY (1);
      966     7379    1   DCL HFF$NIL ENTRY(1) ALTRET;
      967     7380    1   DCL HFF$ERASE ENTRY(1) ALTRET;
      968     7381    1   DCL HFF$DSIZ ENTRY(2);
      969     7382    1   DCL HFF$TRAPALT ENTRY ALTRET;
      970     7383    1   DCL HFF$NILERASE ENTRY(1) ALTRET;
      971     7384    1   DCL FMM$DFLOPNP ENTRY;
      972     7385    1   DCL FMP$CLSJ ENTRY;
      973     7386    1   DCL M$MREAD ENTRY(1) ALTRET;
      974     7387    1   DCL M$MWRITE ENTRY(1) ALTRET;
      975     7388    1   DCL FSA$FDCB ENTRY(1);
      976     7389
      977     7390        /* FPT's */
      978     7391        %FPT_READ (FPTN=FPT_READ_CONS,STCLASS=CONSTANT,KEYS=YES);
      979     7430        %FPT_READ (STCLASS=AUTO);
      980     7469        %FPT_WRITE (FPTN=FPT_WRITE_CONS,STCLASS=CONSTANT);
      981     7500        %FPT_WRITE (STCLASS=AUTO);
      982     7531
      983     7532        %EJECT;
PL6.E3A0      #003=FSL$UC File=FSL$LDEV.:E05TSI                                  TUE 07/29/97 17:34 Page:186
      984     7533
      985     7534    1        CALL FMD$GBUF (BUF$);

   7534  2 000002   200014 630500                    EPPR0   BUF$,,AUTO
         2 000003   200060 450500                    STP0    @BUF$+1,,AUTO
         2 000004   200060 630500                    EPPR0   @BUF$+1,,AUTO
         2 000005   000017 631400 xsym               EPPR1   B_VECTNIL+15
         2 000006   000000 701000 xent               TSX1    FMD$GBUF
         2 000007   000000 011000                    NOP     0

      986     7535    1        BUF$->FS$DDFSZ = '0'B;

   7535  2 000010   200014 470500                    LDP0    BUF$,,AUTO
         2 000011   000100 100400                    MLR     fill='000'O
         2 000012   000002 000001 xsym               ADSC9   B_VECTNIL+2              cn=0,n=1
         2 000013   000000 000024                    ADSC9   0,,PR0                   cn=0,n=20

      987     7536    1        IF B$M$UC$->F$DCB.MEDIA = FMTUC#

   7536  2 000014   000000 470400 xsym               LDP0    B$M$UC$
         2 000015   000103 236100                    LDQ     67,,PR0
         2 000016   000777 376003                    ANQ     511,DU
         2 000017   000014 116003                    CMPQ    12,DU
         2 000020   000024 601000 2                  TNZ     s:7540

      988     7537    1        THEN
      989     7538    1             ONLINE = '1'B;

   7538  2 000021   400000 236003                    LDQ     -131072,DU
         2 000022   200021 756100                    STQ     ONLINE,,AUTO
         2 000023   000025 710000 2                  TRA     s:7542

      990     7539    1        ELSE
      991     7540    1             ONLINE = '0'B;

   7540  2 000024   200021 450100                    STZ     ONLINE,,AUTO

PL6.E3A0      #003=FSL$UC File=FSL$LDEV.:E05TSI                                  TUE 07/29/97 17:34 Page:187
      992     7541
      993     7542    1        IF B$ROSEG$->B$ROSEG.STREAMID.FLG(INDX) = 2 /* Stream open */

   7542  2 000025   200003 471500                    LDP1    @INDX,,AUTO
         2 000026   100000 720100                    LXL0    0,,PR1
         2 000027   000000 473400 xsym               LDP3    B$ROSEG$
         2 000030   300074 236110                    LDQ     60,X0,PR3
         2 000031   600000 376003                    ANQ     -65536,DU
         2 000032   400000 116003                    CMPQ    -131072,DU
         2 000033   000115 601000 2                  TNZ     s:7561

      994     7543    2        THEN DO;

      995     7544    2             J = B$ROSEG$->B$ROSEG.NUMDCBS;

   7544  2 000034   300002 236100                    LDQ     2,,PR3
         2 000035   000022 772000                    QRL     18
         2 000036   200017 756100                    STQ     J,,AUTO

      996     7545    3             DO WHILE (J>=%M$MAXNEG#);

   7545  2 000037   000071 710000 2                  TRA     s:7553

      997     7546    3                  IF B$ROSEG.DCBPTR$->B$RODCB$(J)~=ADDR(NIL)

   7546  2 000040   000000 470400 xsym               LDP0    B$ROSEG$
         2 000041   000000 471500                    LDP1    0,,PR0
         2 000042   200017 720100                    LXL0    J,,AUTO
         2 000043   100000 236110                    LDQ     0,X0,PR1
         2 000044   000001 116000 xsym               CMPQ    B_VECTNIL+1
         2 000045   000067 600000 2                  TZE     s:7552
         2 000046   000000 116000 xsym               CMPQ    B$M$UC$
         2 000047   000067 600000 2                  TZE     s:7552

      998     7547    3                       AND B$ROSEG.DCBPTR$->B$RODCB$(J)~=B$M$UC$ THEN
      999     7548    3                       IF B$ROSEG.DCBPTR$->B$RODCB$(J)->F$DCB.IASN=%STREAM#

PL6.E3A0      #003=FSL$UC File=FSL$LDEV.:E05TSI                                  TUE 07/29/97 17:34 Page:188
   7548  2 000050   100000 473510                    LDP3    0,X0,PR1
         2 000051   300103 236100                    LDQ     67,,PR3
         2 000052   000777 376007                    ANQ     511,DL
         2 000053   000005 116007                    CMPQ    5,DL
         2 000054   000067 601000 2                  TNZ     s:7552
         2 000055   300066 236100                    LDQ     54,,PR3
         2 000056   000000 116000 xsym               CMPQ    B$M$UC$
         2 000057   000067 601000 2                  TNZ     s:7552
         2 000060   200003 474500                    LDP4    @INDX,,AUTO
         2 000061   300077 236100                    LDQ     63,,PR3
         2 000062   000777 376007                    ANQ     511,DL
         2 000063   400000 116100                    CMPQ    0,,PR4
         2 000064   000067 601000 2                  TNZ     s:7552

     1000     7549    3                            AND B$ROSEG.DCBPTR$->B$RODCB$(J)->F$DCB.CFU$=B$M$UC$
     1001     7550    3                            AND B$ROSEG.DCBPTR$->B$RODCB$(J)->F$DCB.STR=INDX THEN
     1002     7551    3                            B$ROSEG.DCBPTR$->B$RODCB$(J)->F$DCB.FCD=%NO#;

   7551  2 000065   000000 236000 3                  LDQ     0
         2 000066   300031 356100                    ANSQ    25,,PR3

     1003     7552    3                  J=J-1;

   7552  2 000067   000001 336007                    LCQ     1,DL
         2 000070   200017 056100                    ASQ     J,,AUTO

     1004     7553    3                END;

   7553  2 000071   200017 235100                    LDA     J,,AUTO
         2 000072   000001 115000 3                  CMPA    1
         2 000073   000040 605000 2                  TPL     s:7546

     1005     7554
     1006     7555    2             IF ONLINE

   7555  2 000074   200021 234100                    SZN     ONLINE,,AUTO
         2 000075   000106 605000 2                  TPL     s:7558
PL6.E3A0      #003=FSL$UC File=FSL$LDEV.:E05TSI                                  TUE 07/29/97 17:34 Page:189

     1007     7556    2             THEN
     1008     7557    2                  CALL KIA$CLSSTR (INDX,'0'B,'0'B);

   7557  2 000076   000002 236000 3                  LDQ     2
         2 000077   200062 756100                    STQ     @BUF$+3,,AUTO
         2 000100   200003 235100                    LDA     @INDX,,AUTO
         2 000101   200060 757100                    STAQ    @BUF$+1,,AUTO
         2 000102   200060 630500                    EPPR0   @BUF$+1,,AUTO
         2 000103   000021 631400 xsym               EPPR1   B_VECTNIL+17
         2 000104   000000 701000 xent               TSX1    KIA$CLSSTR
         2 000105   000000 011000                    NOP     0

     1009     7558    2             B$ROSEG$->B$ROSEG.STREAMID.FLG(INDX) = 1;

   7558  2 000106   200003 470500                    LDP0    @INDX,,AUTO
         2 000107   000000 720100                    LXL0    0,,PR0
         2 000110   000000 471400 xsym               LDP1    B$ROSEG$
         2 000111   100074 236110                    LDQ     60,X0,PR1
         2 000112   000003 376000 3                  ANQ     3
         2 000113   200000 276003                    ORQ     65536,DU
         2 000114   100074 756110                    STQ     60,X0,PR1

     1010     7559    2           END;

     1011     7560
     1012     7561    1        CALL OPEN_STAR ALTRET(CLEAN_UP);

   7561  2 000115   000615 701000 2                  TSX1    OPEN_STAR
         2 000116   000521 702000 2                  TSX2    CLEAN_UP

     1013     7562    1        CALL HFF$TRAPALT ALTRET(TRAPALT);

   7562  2 000117   000002 631400 xsym               EPPR1   B_VECTNIL+2
         2 000120   000000 701000 xent               TSX1    HFF$TRAPALT
         2 000121   000203 702000 2                  TSX2    TRAPALT

PL6.E3A0      #003=FSL$UC File=FSL$LDEV.:E05TSI                                  TUE 07/29/97 17:34 Page:190
     1014     7563
     1015     7564    1        IF B$ROSEG$->B$ROSEG.STREAMID.FLG(INDX) ~= 0

   7564  2 000122   200003 470500                    LDP0    @INDX,,AUTO
         2 000123   000000 720100                    LXL0    0,,PR0
         2 000124   000000 471400 xsym               LDP1    B$ROSEG$
         2 000125   100074 236110                    LDQ     60,X0,PR1
         2 000126   600000 316003                    CANQ    -65536,DU
         2 000127   000137 600000 2                  TZE     s:7571

     1016     7565    1        THEN
     1017     7566    1             CALL READ_CLDEV(BUF$)

   7566  2 000130   200014 633500                    EPPR3   BUF$,,AUTO
         2 000131   200057 453500                    STP3    FPT_WRITE+13,,AUTO
         2 000132   000661 701000 2                  TSX1    READ_CLDEV
         2 000133   000135 702000 2                  TSX2    s:7568
         2 000134   000137 710000 2                  TRA     s:7571

     1018     7567    2             WHENALTRETURN DO;

     1019     7568    2                  B$JIT.ERR = '0'B;

   7568  2 000135   000000 470400 xsym               LDP0    B$JIT$
         2 000136   000012 450100                    STZ     10,,PR0

     1020     7569    2                END;

     1021     7570
     1022     7571    1        IF (FPT$LDEV_V.REMOVE OR FPT$LDEV_V.LOGON) AND

   7571  2 000137   000000 470400 xsym               LDP0    B$PS0$
         2 000140   000001 236100                    LDQ     1,,PR0
         2 000141   100000 316003                    CANQ    32768,DU
         2 000142   000145 601000 2                  TNZ     s:7571+6
         2 000143   020000 316003                    CANQ    8192,DU
         2 000144   000212 600000 2                  TZE     s:7585
PL6.E3A0      #003=FSL$UC File=FSL$LDEV.:E05TSI                                  TUE 07/29/97 17:34 Page:191
         2 000145   200003 471500                    LDP1    @INDX,,AUTO
         2 000146   100000 235100                    LDA     0,,PR1
         2 000147   000004 115007                    CMPA    4,DL
         2 000150   000212 602000 2                  TNC     s:7585

     1023     7572    1             INDX > KIDM_DB
     1024     7573    2        THEN DO;

     1025     7574    2             IF ONLINE AND B$ROSEG$->B$ROSEG.STREAMID.FLG(INDX) ~= 0

   7574  2 000151   200021 234100                    SZN     ONLINE,,AUTO
         2 000152   000173 605000 2                  TPL     s:7577
         2 000153   100000 720100                    LXL0    0,,PR1
         2 000154   000000 473400 xsym               LDP3    B$ROSEG$
         2 000155   300074 236110                    LDQ     60,X0,PR3
         2 000156   600000 316003                    CANQ    -65536,DU
         2 000157   000173 600000 2                  TZE     s:7577

     1026     7575    2             THEN
     1027     7576    2                  CALL KIA$CLSSTR(INDX,FPT$LDEV_V.REMOVE,FPT$LDEV_V.LOGON);

   7576  2 000160   000000 236000 xsym               LDQ     B$PS0$
         2 000161   000004 036000 3                  ADLQ    4
         2 000162   200062 756100                    STQ     @BUF$+3,,AUTO
         2 000163   000000 236000 xsym               LDQ     B$PS0$
         2 000164   000005 036000 3                  ADLQ    5
         2 000165   200003 235100                    LDA     @INDX,,AUTO
         2 000166   200060 757100                    STAQ    @BUF$+1,,AUTO
         2 000167   200060 630500                    EPPR0   @BUF$+1,,AUTO
         2 000170   000021 631400 xsym               EPPR1   B_VECTNIL+17
         2 000171   000000 701000 xent               TSX1    KIA$CLSSTR
         2 000172   000000 011000                    NOP     0

     1028     7577    2             B$ROSEG$->B$ROSEG.STREAMID(INDX) = '0'B;

   7577  2 000173   200003 470500                    LDP0    @INDX,,AUTO
         2 000174   000000 720100                    LXL0    0,,PR0
PL6.E3A0      #003=FSL$UC File=FSL$LDEV.:E05TSI                                  TUE 07/29/97 17:34 Page:192
         2 000175   000000 471400 xsym               LDP1    B$ROSEG$
         2 000176   100074 450110                    STZ     60,X0,PR1

     1029     7578    2             B$ROSEG$->B$ROSEG.LDEVNAME(INDX) = '    ';

   7578  2 000177   000000 720100                    LXL0    0,,PR0
         2 000200   000042 236000 1                  LDQ     FPT_WRITE_CONS+12
         2 000201   000000 471400 xsym               LDP1    B$ROSEG$
         2 000202   100054 756110                    STQ     44,X0,PR1

   7578  2 000203                       TRAPALT      null
     1030     7579    2   TRAPALT:  ;
     1031     7580    2             B$JIT.DCB$ = B$M$STAR$;

   7580  2 000203   000000 236000 xsym               LDQ     B$M$STAR$
         2 000204   000000 470400 xsym               LDP0    B$JIT$
         2 000205   000232 756100                    STQ     154,,PR0

     1032     7581    2             CALL FMP$CLSJ;

   7581  2 000206   000002 631400 xsym               EPPR1   B_VECTNIL+2
         2 000207   000000 701000 xent               TSX1    FMP$CLSJ
         2 000210   000000 011000                    NOP     0

     1033     7582    2             GOTO CLEAN_UP;

   7582  2 000211   000521 710000 2                  TRA     CLEAN_UP

     1034     7583    2           END;
     1035     7584
     1036     7585    1        FRMSTRM = 0;

   7585  2 000212   200022 450100                    STZ     FRMSTRM,,AUTO

     1037     7586    1        IF FPT$LDEV_V.FRMSTRM ~= ' '

   7586  2 000213   000005 236100                    LDQ     5,,PR0
PL6.E3A0      #003=FSL$UC File=FSL$LDEV.:E05TSI                                  TUE 07/29/97 17:34 Page:193
         2 000214   000006 376000 3                  ANQ     6
         2 000215   000007 116000 3                  CMPQ    7
         2 000216   000240 600000 2                  TZE     s:7591

     1038     7587    2        THEN DO;

     1039     7588    2             CALL CONCAT (FRMSTRM_TEXT,'UC',FPT$LDEV_V.FRMSTRM);

   7588  2 000217   000043 220000 1                  LDX0    FPT_WRITE_CONS+13
         2 000220   200023 740100                    STX0    FRMSTRM_TEXT,,AUTO
         2 000221   040100 100500                    MLR     fill='040'O
         2 000222   000005 200002                    ADSC9   5,,PR0                   cn=1,n=2
         2 000223   200060 000004                    ADSC9   @BUF$+1,,AUTO            cn=0,n=4
         2 000224   200060 221100                    LDX1    @BUF$+1,,AUTO
         2 000225   200023 441100                    SXL1    FRMSTRM_TEXT,,AUTO

     1040     7589    2             CALL FSN$CONV_STR(FRMSTRM_TEXT,FRMSTRM_BYTE.STR);

   7589  2 000226   200062 452500                    STP2    @BUF$+3,,AUTO
         2 000227   200062 236100                    LDQ     @BUF$+3,,AUTO
         2 000230   000010 036000 3                  ADLQ    8
         2 000231   200061 756100                    STQ     @BUF$+2,,AUTO
         2 000232   200023 630500                    EPPR0   FRMSTRM_TEXT,,AUTO
         2 000233   200060 450500                    STP0    @BUF$+1,,AUTO
         2 000234   200060 630500                    EPPR0   @BUF$+1,,AUTO
         2 000235   000020 631400 xsym               EPPR1   B_VECTNIL+16
         2 000236   000000 701000 xent               TSX1    FSN$CONV_STR
         2 000237   000000 011000                    NOP     0

     1041     7590    2           END;

     1042     7591    1        IF FPT$LDEV_V.LINES~=0 THEN

   7591  2 000240   000000 470400 xsym               LDP0    B$PS0$
         2 000241   000002 720100                    LXL0    2,,PR0
         2 000242   000245 600000 2                  TZE     s:7593

PL6.E3A0      #003=FSL$UC File=FSL$LDEV.:E05TSI                                  TUE 07/29/97 17:34 Page:194
     1043     7592    1             BUF$->FS$DDFSZ.LINES=FPT$LDEV_V.LINES;

   7592  2 000243   200014 471500                    LDP1    BUF$,,AUTO
         2 000244   100002 740100                    STX0    2,,PR1

     1044     7593    1        IF FPT$LDEV_V.DVFC~=BINASC(0) THEN

   7593  2 000245   000002 236100                    LDQ     2,,PR0
         2 000246   777000 376003                    ANQ     -512,DU
         2 000247   000000 116003                    CMPQ    0,DU
         2 000250   000255 600000 2                  TZE     s:7595

     1045     7594    1             BUF$->FS$DDFSZ.DVFC=FPT$LDEV_V.DVFC;

   7594  2 000251   200014 471500                    LDP1    BUF$,,AUTO
         2 000252   000002 236100                    LDQ     2,,PR0
         2 000253   000022 772000                    QRL     18
         2 000254   100002 552110                    STBQ    2,'10'O,PR1

     1046     7595    1        IF FPT$LDEV_V.WIDTH~=0 THEN

   7595  2 000255   000005 236100                    LDQ     5,,PR0
         2 000256   777000 316003                    CANQ    -512,DU
         2 000257   000263 600000 2                  TZE     s:7597

     1047     7596    1             BUF$->FS$DDFSZ.WIDTH=FPT$LDEV_V.WIDTH;

   7596  2 000260   200014 471500                    LDP1    BUF$,,AUTO
         2 000261   000011 772000                    QRL     9
         2 000262   100001 552120                    STBQ    1,'20'O,PR1

     1048     7597    1        IF FPT$LDEV_V.ATTR THEN

   7597  2 000263   000003 220100                    LDX0    3,,PR0
         2 000264   000267 600000 2                  TZE     s:7599

     1049     7598    1             BUF$->FS$DDFSZ.ATTR=FPT$LDEV_V.ATTR;
PL6.E3A0      #003=FSL$UC File=FSL$LDEV.:E05TSI                                  TUE 07/29/97 17:34 Page:195

   7598  2 000265   200014 471500                    LDP1    BUF$,,AUTO
         2 000266   100001 440100                    SXL0    1,,PR1

     1050     7599    1        CALL HFF$NIL(B$PS1$)

   7599  2 000267   000011 630400 3                  EPPR0   9
         2 000270   000017 631400 xsym               EPPR1   B_VECTNIL+15
         2 000271   000000 701000 xent               TSX1    HFF$NIL
         2 000272   000313 702000 2                  TSX2    s:7610

     1051     7600    2        WHENRETURN DO;

     1052     7601    2             CALL HFF$ERASE(B$PS1$)

   7601  2 000273   000011 630400 3                  EPPR0   9
         2 000274   000017 631400 xsym               EPPR1   B_VECTNIL+15
         2 000275   000000 701000 xent               TSX1    HFF$ERASE
         2 000276   000310 702000 2                  TSX2    s:7607

     1053     7602    3             WHENRETURN DO;

     1054     7603    3                  BUF$->FS$DDFSZ.F.TAB = '1'B;

   7603  2 000277   200014 470500                    LDP0    BUF$,,AUTO
         2 000300   400000 236003                    LDQ     -131072,DU
         2 000301   000001 256100                    ORSQ    1,,PR0

     1055     7604    3                  PINCRW(BUF$,SIZEW(FS$DDFSZ))->VLP$TAB = B$PS1$->VLP$TAB;

   7604  2 000302   000000 470400 xsym               LDP0    B$PS1$
         2 000303   200014 471500                    LDP1    BUF$,,AUTO
         2 000304   000100 100500                    MLR     fill='000'O
         2 000305   000000 000040                    ADSC9   0,,PR0                   cn=0,n=32
         2 000306   100005 000040                    ADSC9   5,,PR1                   cn=0,n=32

     1056     7605    3                END;
PL6.E3A0      #003=FSL$UC File=FSL$LDEV.:E05TSI                                  TUE 07/29/97 17:34 Page:196

   7605  2 000307   000313 710000 2                  TRA     s:7610

     1057     7606    3             WHENALTRETURN DO;

     1058     7607    3                  BUF$->FS$DDFSZ.F.TAB = '0'B;

   7607  2 000310   200014 470500                    LDP0    BUF$,,AUTO
         2 000311   000031 236000 xsym               LDQ     B_VECTNIL+25
         2 000312   000001 356100                    ANSQ    1,,PR0

     1059     7608    3                END;

     1060     7609    2           END;

     1061     7610    1        CALL HFF$NIL(B$PS2$)

   7610  2 000313   000012 630400 3                  EPPR0   10
         2 000314   000017 631400 xsym               EPPR1   B_VECTNIL+15
         2 000315   000000 701000 xent               TSX1    HFF$NIL
         2 000316   000350 702000 2                  TSX2    s:7623

     1062     7611    2        WHENRETURN DO;

     1063     7612    2             CALL HFF$ERASE(B$PS2$)

   7612  2 000317   000012 630400 3                  EPPR0   10
         2 000320   000017 631400 xsym               EPPR1   B_VECTNIL+15
         2 000321   000000 701000 xent               TSX1    HFF$ERASE
         2 000322   000345 702000 2                  TSX2    s:7620

     1064     7613    3             WHENRETURN DO;

     1065     7614    3                  BUF$->FS$DDFSZ.F.HDR = '1'B;

   7614  2 000323   200014 470500                    LDP0    BUF$,,AUTO
         2 000324   200000 236003                    LDQ     65536,DU
PL6.E3A0      #003=FSL$UC File=FSL$LDEV.:E05TSI                                  TUE 07/29/97 17:34 Page:197
         2 000325   000001 256100                    ORSQ    1,,PR0

     1066     7615    3                  CALL HFF$DSIZ(B$PS2$,J);

   7615  2 000326   200017 630500                    EPPR0   J,,AUTO
         2 000327   200061 450500                    STP0    @BUF$+2,,AUTO
         2 000330   000012 236000 3                  LDQ     10
         2 000331   200060 756100                    STQ     @BUF$+1,,AUTO
         2 000332   200060 630500                    EPPR0   @BUF$+1,,AUTO
         2 000333   000020 631400 xsym               EPPR1   B_VECTNIL+16
         2 000334   000000 701000 xent               TSX1    HFF$DSIZ
         2 000335   000000 011000                    NOP     0

     1067     7616    3                  PINCRW(BUF$,SIZEW(FS$DDFSZ)+SIZEW(VLP$TAB))->VLP$HDRF

   7616  2 000336   000000 470400 xsym               LDP0    B$PS2$
         2 000337   200017 720100                    LXL0    J,,AUTO
         2 000340   200014 471500                    LDP1    BUF$,,AUTO
         2 000341   000100 100540                    MLR     fill='000'O
         2 000342   000000 000010                    ADSC9   0,,PR0                   cn=0,n=*X0
         2 000343   100015 000245                    ADSC9   13,,PR1                  cn=0,n=165

     1068     7617    3                       = B$PS2$->VLP$HDRU;
     1069     7618    3                END;

   7618  2 000344   000350 710000 2                  TRA     s:7623

     1070     7619    3             WHENALTRETURN DO;

     1071     7620    3                  BUF$->FS$DDFSZ.F.HDR = '0'B;

   7620  2 000345   200014 470500                    LDP0    BUF$,,AUTO
         2 000346   000013 236000 3                  LDQ     11
         2 000347   000001 356100                    ANSQ    1,,PR0

     1072     7621    3                END;

PL6.E3A0      #003=FSL$UC File=FSL$LDEV.:E05TSI                                  TUE 07/29/97 17:34 Page:198
     1073     7622    2           END;

     1074     7623    1        BUF$->FS$DDFSZ.SIZ = SIZEW(FS$DDF)+SIZEW(VLP$TAB)+SIZEW(VLP$HDRF);

   7623  2 000350   000066 235007                    LDA     54,DL
         2 000351   200014 470500                    LDP0    BUF$,,AUTO
         2 000352   000000 755100                    STA     0,,PR0

     1075     7624
     1076     7625    1        FPT_WRITE = FPT_WRITE_CONS;

   7625  2 000353   000100 100400                    MLR     fill='000'O
         2 000354   000026 000060 1                  ADSC9   FPT_WRITE_CONS           cn=0,n=48
         2 000355   200042 000060                    ADSC9   FPT_WRITE,,AUTO          cn=0,n=48

     1077     7626    1        FPT_WRITE.V_ = VECTOR(FPT_WRITE.V);

   7626  2 000356   000014 235000 3                  LDA     12
         2 000357   200060 452500                    STP2    @BUF$+1,,AUTO
         2 000360   200060 236100                    LDQ     @BUF$+1,,AUTO
         2 000361   000052 036003                    ADLQ    42,DU
         2 000362   200042 757100                    STAQ    FPT_WRITE,,AUTO

     1078     7627    1        FPT_WRITE.KEY_ = VECTOR(LDEV_KEY);

   7627  2 000363   000015 235000 3                  LDA     13
         2 000364   200060 452500                    STP2    @BUF$+1,,AUTO
         2 000365   200060 236100                    LDQ     @BUF$+1,,AUTO
         2 000366   000015 036003                    ADLQ    13,DU
         2 000367   200044 757100                    STAQ    FPT_WRITE+2,,AUTO

     1079     7628    1        FPT_WRITE.V.DCB# = %M$STAR#;

   7628  2 000370   000001 220003                    LDX0    1,DU
         2 000371   200052 740100                    STX0    FPT_WRITE+8,,AUTO

     1080     7629    1        FPT_WRITE.BUF_ = VECTOR(BUFFER);
PL6.E3A0      #003=FSL$UC File=FSL$LDEV.:E05TSI                                  TUE 07/29/97 17:34 Page:199

   7629  2 000372   000016 235000 3                  LDA     14
         2 000373   200014 236100                    LDQ     BUF$,,AUTO
         2 000374   200046 757100                    STAQ    FPT_WRITE+4,,AUTO

     1081     7630    1        FPT_WRITE.BUF_.BOUND = BUF$->FS$DDFSZ.SIZ * 4 + 3;

   7630  2 000375   200014 470500                    LDP0    BUF$,,AUTO
         2 000376   000000 236100                    LDQ     0,,PR0
         2 000377   000002 736000                    QLS     2
         2 000400   000003 036007                    ADLQ    3,DL
         2 000401   000020 736000                    QLS     16
         2 000402   200046 676100                    ERQ     FPT_WRITE+4,,AUTO
         2 000403   000034 376000 xsym               ANQ     B_VECTNIL+28
         2 000404   200046 656100                    ERSQ    FPT_WRITE+4,,AUTO

     1082     7631    1        CALL M$MWRITE (FPT_WRITE)

   7631  2 000405   200042 631500                    EPPR1   FPT_WRITE,,AUTO
         2 000406   200060 451500                    STP1    @BUF$+1,,AUTO
         2 000407   200060 630500                    EPPR0   @BUF$+1,,AUTO
         2 000410   000017 631400 xsym               EPPR1   B_VECTNIL+15
         2 000411   000000 701000 xent               TSX1    M$MWRITE
         2 000412   000414 702000 2                  TSX2    s:7634
         2 000413   000414 710000 2                  TRA     s:7634

     1083     7632    2        WHENALTRETURN DO;

     1084     7633    2           END;

     1085     7634    1        B$JIT.DCB$ = B$M$STAR$;

   7634  2 000414   000000 236000 xsym               LDQ     B$M$STAR$
         2 000415   000000 470400 xsym               LDP0    B$JIT$
         2 000416   000232 756100                    STQ     154,,PR0

     1086     7635    1        CALL FMP$CLSJ;
PL6.E3A0      #003=FSL$UC File=FSL$LDEV.:E05TSI                                  TUE 07/29/97 17:34 Page:200

   7635  2 000417   000002 631400 xsym               EPPR1   B_VECTNIL+2
         2 000420   000000 701000 xent               TSX1    FMP$CLSJ
         2 000421   000000 011000                    NOP     0

     1087     7636
     1088     7637        /* Finish setting up ROSEG */
     1089     7638    1        B$ROSEG$->B$ROSEG.STREAMID.UC_STR(INDX) = '1'B;

   7638  2 000422   200003 470500                    LDP0    @INDX,,AUTO
         2 000423   000000 720100                    LXL0    0,,PR0
         2 000424   000000 471400 xsym               LDP1    B$ROSEG$
         2 000425   000001 236003                    LDQ     1,DU
         2 000426   100074 256110                    ORSQ    60,X0,PR1

     1090     7639    1        IF ONLINE

   7639  2 000427   200021 234100                    SZN     ONLINE,,AUTO
         2 000430   000512 605000 2                  TPL     s:7660

     1091     7640    2        THEN DO;

     1092     7641    2             IF B$ROSEG$->B$ROSEG.STREAMID.FLG(INDX) = 0

   7641  2 000431   000000 720100                    LXL0    0,,PR0
         2 000432   000000 471400 xsym               LDP1    B$ROSEG$
         2 000433   100074 236110                    LDQ     60,X0,PR1
         2 000434   600000 316003                    CANQ    -65536,DU
         2 000435   000453 601000 2                  TNZ     s:7649

     1093     7642    3             THEN DO;

     1094     7643    3                  IF FRMSTRM = 0

   7643  2 000436   200022 235100                    LDA     FRMSTRM,,AUTO
         2 000437   000442 601000 2                  TNZ     s:7646

PL6.E3A0      #003=FSL$UC File=FSL$LDEV.:E05TSI                                  TUE 07/29/97 17:34 Page:201
     1095     7644    3                  THEN
     1096     7645    3                       FRMSTRM = KIDM_USER;

   7645  2 000440   000002 235007                    LDA     2,DL
         2 000441   200022 755100                    STA     FRMSTRM,,AUTO

     1097     7646    3                  CALL KIA$DCLSTR (FRMSTRM, INDX) ALTRET (CLEAN_UP);

   7646  2 000442   200003 236100                    LDQ     @INDX,,AUTO
         2 000443   200061 756100                    STQ     @BUF$+2,,AUTO
         2 000444   200022 633500                    EPPR3   FRMSTRM,,AUTO
         2 000445   200060 453500                    STP3    @BUF$+1,,AUTO
         2 000446   200060 630500                    EPPR0   @BUF$+1,,AUTO
         2 000447   000020 631400 xsym               EPPR1   B_VECTNIL+16
         2 000450   000000 701000 xent               TSX1    KIA$DCLSTR
         2 000451   000521 702000 2                  TSX2    CLEAN_UP

     1098     7647    3                END;

   7647  2 000452   000465 710000 2                  TRA     s:7652

     1099     7648    2             ELSE
     1100     7649    2                  IF FRMSTRM ~= 0

   7649  2 000453   200022 235100                    LDA     FRMSTRM,,AUTO
         2 000454   000465 600000 2                  TZE     s:7652

     1101     7650    2                  THEN
     1102     7651    2                       CALL KIA$REDSTR(INDX,FRMSTRM) ALTRET (CLEAN_UP);

   7651  2 000455   200022 633500                    EPPR3   FRMSTRM,,AUTO
         2 000456   200061 453500                    STP3    @BUF$+2,,AUTO
         2 000457   200003 236100                    LDQ     @INDX,,AUTO
         2 000460   200060 756100                    STQ     @BUF$+1,,AUTO
         2 000461   200060 630500                    EPPR0   @BUF$+1,,AUTO
         2 000462   000020 631400 xsym               EPPR1   B_VECTNIL+16
         2 000463   000000 701000 xent               TSX1    KIA$REDSTR
PL6.E3A0      #003=FSL$UC File=FSL$LDEV.:E05TSI                                  TUE 07/29/97 17:34 Page:202
         2 000464   000521 702000 2                  TSX2    CLEAN_UP

     1103     7652    2             CALL HFF$NILERASE(5)

   7652  2 000465   000017 630400 3                  EPPR0   15
         2 000466   000017 631400 xsym               EPPR1   B_VECTNIL+15
         2 000467   000000 701000 xent               TSX1    HFF$NILERASE
         2 000470   000512 702000 2                  TSX2    s:7660

     1104     7653    3             WHENRETURN DO;

     1105     7654    3                  WINDOW = VLP$WINDOW;

   7654  2 000471   000000 470400 xsym               LDP0    B$PS5$
         2 000472   000100 100500                    MLR     fill='000'O
         2 000473   000000 000040                    ADSC9   0,,PR0                   cn=0,n=32
         2 000474   200004 000040                    ADSC9   WINDOW,,AUTO             cn=0,n=32

     1106     7655    3                  CALL KIA$WINDOW(INDX,WINDOW) ALTRET (CLEAN_UP);

   7655  2 000475   200004 631500                    EPPR1   WINDOW,,AUTO
         2 000476   200061 451500                    STP1    @BUF$+2,,AUTO
         2 000477   200003 236100                    LDQ     @INDX,,AUTO
         2 000500   200060 756100                    STQ     @BUF$+1,,AUTO
         2 000501   200060 630500                    EPPR0   @BUF$+1,,AUTO
         2 000502   000020 631400 xsym               EPPR1   B_VECTNIL+16
         2 000503   000000 701000 xent               TSX1    KIA$WINDOW
         2 000504   000521 702000 2                  TSX2    CLEAN_UP

     1107     7656    3                  B$ROSEG$->B$ROSEG.STREAMID.WINDOW(INDX) = '1'B;

   7656  2 000505   200003 470500                    LDP0    @INDX,,AUTO
         2 000506   000000 720100                    LXL0    0,,PR0
         2 000507   000000 471400 xsym               LDP1    B$ROSEG$
         2 000510   000002 236003                    LDQ     2,DU
         2 000511   100074 256110                    ORSQ    60,X0,PR1

PL6.E3A0      #003=FSL$UC File=FSL$LDEV.:E05TSI                                  TUE 07/29/97 17:34 Page:203
     1108     7657    3                END;

     1109     7658    2           END;

     1110     7659
     1111     7660    1        B$ROSEG$->B$ROSEG.STREAMID.FLG(INDX) = 1;

   7660  2 000512   200003 470500                    LDP0    @INDX,,AUTO
         2 000513   000000 720100                    LXL0    0,,PR0
         2 000514   000000 471400 xsym               LDP1    B$ROSEG$
         2 000515   100074 236110                    LDQ     60,X0,PR1
         2 000516   000003 376000 3                  ANQ     3
         2 000517   200000 276003                    ORQ     65536,DU
         2 000520   100074 756110                    STQ     60,X0,PR1

     1112     7661
     1113     7662    1   CLEAN_UP:
     1114     7663    1        CALL FMD$RBUF(BUF$);

   7663  2 000521   200014 630500       CLEAN_UP     EPPR0   BUF$,,AUTO
         2 000522   200060 450500                    STP0    @BUF$+1,,AUTO
         2 000523   200060 630500                    EPPR0   @BUF$+1,,AUTO
         2 000524   000017 631400 xsym               EPPR1   B_VECTNIL+15
         2 000525   000000 701000 xent               TSX1    FMD$RBUF
         2 000526   000000 011000                    NOP     0

     1115     7664
     1116     7665    1        RETURN;

   7665  2 000527   000000 702200 xent               TSX2  ! X66_ARET

     1117     7666        %EJECT;
PL6.E3A0      #003=FSL$UC File=FSL$LDEV.:E05TSI                                  TUE 07/29/97 17:34 Page:204
     1118     7667    1   FSL$GET_CLDEV: ENTRY (INDX);

   7667  2 000530   000000 700200 xent  FSL$GET_CLD* TSX0  ! X66_AUTO_1
         2 000531   000064 000001                    ZERO    52,1

     1119     7668
     1120     7669
     1121     7670    1        DCB$ = B$JIT.DCB$;

   7670  2 000532   000000 470400 xsym               LDP0    B$JIT$
         2 000533   000232 236100                    LDQ     154,,PR0
         2 000534   200020 756100                    STQ     DCB$,,AUTO

     1122     7671    1        CALL OPEN_STAR

   7671  2 000535   000615 701000 2                  TSX1    OPEN_STAR
         2 000536   000540 702000 2                  TSX2    s:7673
         2 000537   000544 710000 2                  TRA     s:7676

     1123     7672    2        WHENALTRETURN DO;

     1124     7673    2             B$JIT.DCB$ = DCB$;

   7673  2 000540   200020 236100                    LDQ     DCB$,,AUTO
         2 000541   000000 470400 xsym               LDP0    B$JIT$
         2 000542   000232 756100                    STQ     154,,PR0

     1125     7674    2             RETURN;

   7674  2 000543   000000 702200 xent               TSX2  ! X66_ARET

     1126     7675    2           END;
     1127     7676    1        CALL FMD$GBUF(BUF$);

   7676  2 000544   200014 630500                    EPPR0   BUF$,,AUTO
         2 000545   200060 450500                    STP0    @BUF$+1,,AUTO
         2 000546   200060 630500                    EPPR0   @BUF$+1,,AUTO
PL6.E3A0      #003=FSL$UC File=FSL$LDEV.:E05TSI                                  TUE 07/29/97 17:34 Page:205
         2 000547   000017 631400 xsym               EPPR1   B_VECTNIL+15
         2 000550   000000 701000 xent               TSX1    FMD$GBUF
         2 000551   000000 011000                    NOP     0

     1128     7677    1        BUF$->FS$DDFSZ = '0'B;

   7677  2 000552   200014 470500                    LDP0    BUF$,,AUTO
         2 000553   000100 100400                    MLR     fill='000'O
         2 000554   000002 000001 xsym               ADSC9   B_VECTNIL+2              cn=0,n=1
         2 000555   000000 000024                    ADSC9   0,,PR0                   cn=0,n=20

     1129     7678    1        CALL READ_CLDEV;

   7678  2 000556   000001 236000 xsym               LDQ     B_VECTNIL+1
         2 000557   200057 756100                    STQ     FPT_WRITE+13,,AUTO
         2 000560   000661 701000 2                  TSX1    READ_CLDEV
         2 000561   000000 011000                    NOP     0

     1130     7679    1        IF DCB$~=B$M$UC$

   7679  2 000562   200020 236100                    LDQ     DCB$,,AUTO
         2 000563   000000 116000 xsym               CMPQ    B$M$UC$
         2 000564   000603 600000 2                  TZE     s:7686

     1131     7680    2        THEN DO;

     1132     7681                  /*N* SET UP REST OF THE STREAM DCB ATTRIBUTES */
     1133     7682    2             B$JIT.DCB$ = DCB$;

   7682  2 000565   000000 470400 xsym               LDP0    B$JIT$
         2 000566   000232 756100                    STQ     154,,PR0

     1134     7683    2             B$JIT.DCB$->F$DCB.MEDIA = FMTUC#;

   7683  2 000567   000232 471500                    LDP1    154,,PR0
         2 000570   000014 236003                    LDQ     12,DU
         2 000571   100103 552120                    STBQ    67,'20'O,PR1
PL6.E3A0      #003=FSL$UC File=FSL$LDEV.:E05TSI                                  TUE 07/29/97 17:34 Page:206

     1135     7684    2             CALL FSB$GETDDF(PINCRW(BUF$,1));

   7684  2 000572   200014 236100                    LDQ     BUF$,,AUTO
         2 000573   000001 036003                    ADLQ    1,DU
         2 000574   200060 756100                    STQ     @BUF$+1,,AUTO
         2 000575   200060 631500                    EPPR1   @BUF$+1,,AUTO
         2 000576   200061 451500                    STP1    @BUF$+2,,AUTO
         2 000577   200061 630500                    EPPR0   @BUF$+2,,AUTO
         2 000600   000017 631400 xsym               EPPR1   B_VECTNIL+15
         2 000601   000000 701000 xent               TSX1    FSB$GETDDF
         2 000602   000000 011000                    NOP     0

     1136     7685    2           END;

     1137     7686    1        B$JIT.DCB$ = B$M$STAR$;

   7686  2 000603   000000 236000 xsym               LDQ     B$M$STAR$
         2 000604   000000 470400 xsym               LDP0    B$JIT$
         2 000605   000232 756100                    STQ     154,,PR0

     1138     7687    1        CALL FMP$CLSJ;

   7687  2 000606   000002 631400 xsym               EPPR1   B_VECTNIL+2
         2 000607   000000 701000 xent               TSX1    FMP$CLSJ
         2 000610   000000 011000                    NOP     0

     1139     7688    1        B$JIT.DCB$ = DCB$;

   7688  2 000611   200020 236100                    LDQ     DCB$,,AUTO
         2 000612   000000 470400 xsym               LDP0    B$JIT$
         2 000613   000232 756100                    STQ     154,,PR0

     1140     7689    1        GOTO CLEAN_UP;

   7689  2 000614   000521 710000 2                  TRA     CLEAN_UP

PL6.E3A0      #003=FSL$UC File=FSL$LDEV.:E05TSI                                  TUE 07/29/97 17:34 Page:207
     1141     7690
     1142     7691        %EJECT;
PL6.E3A0      #003=FSL$UC File=FSL$LDEV.:E05TSI                                  TUE 07/29/97 17:34 Page:208
     1143     7692    1   OPEN_STAR: PROC ALTRET;

   7692  2 000615   200056 741300       OPEN_STAR    STX1  ! FPT_WRITE+12,,AUTO

     1144     7693
     1145     7694    2        B$JIT.DCB$ = B$M$STAR$;

   7694  2 000616   000000 236000 xsym               LDQ     B$M$STAR$
         2 000617   000000 470400 xsym               LDP0    B$JIT$
         2 000620   000232 756100                    STQ     154,,PR0

     1146     7695    2        B$M$STAR$->F$DCB.NAME.L = 2;

   7695  2 000621   000000 471400 xsym               LDP1    B$M$STAR$
         2 000622   002000 236003                    LDQ     1024,DU
         2 000623   100010 552140                    STBQ    8,'40'O,PR1

     1147     7696    2        B$M$STAR$->F$DCB.NAME.C = '*A';

   7696  2 000624   040100 100400                    MLR     fill='040'O
         2 000625   000044 000002 1                  ADSC9   FPT_WRITE_CONS+14        cn=0,n=2
         2 000626   100010 200037                    ADSC9   8,,PR1                   cn=1,n=31

     1148     7697    2        B$M$STAR$->F$DCB.ASN = %FILE#;

   7697  2 000627   001000 236007                    LDQ     512,DL
         2 000630   100032 552110                    STBQ    26,'10'O,PR1

     1149     7698    2        B$M$STAR$->F$DCB.FUN = %UPDATE#;

   7698  2 000631   000001 236003                    LDQ     1,DU
         2 000632   100032 552120                    STBQ    26,'20'O,PR1

     1150     7699    2        CALL FMM$DFLOPNP;

   7699  2 000633   000002 631400 xsym               EPPR1   B_VECTNIL+2
         2 000634   000000 701000 xent               TSX1    FMM$DFLOPNP
PL6.E3A0      #003=FSL$UC File=FSL$LDEV.:E05TSI                                  TUE 07/29/97 17:34 Page:209
         2 000635   000000 011000                    NOP     0

     1151     7700    2        IF B$JIT.ERR ~= '0'B               /* Cant open *A */

   7700  2 000636   000000 470400 xsym               LDP0    B$JIT$
         2 000637   000012 235100                    LDA     10,,PR0
         2 000640   000643 600000 2                  TZE     s:7704

     1152     7701    3        THEN DO;

     1153     7702    3             ALTRETURN;

   7702  2 000641   200056 221300                    LDX1  ! FPT_WRITE+12,,AUTO
         2 000642   000000 702211                    TSX2  ! 0,X1

     1154     7703    3           END;
     1155     7704    2        LDEV_KEY.SZ = 5;

   7704  2 000643   005000 236003                    LDQ     2560,DU
         2 000644   200015 552140                    STBQ    LDEV_KEY,'40'O,AUTO

     1156     7705    2        LDEV_KEY.BLK = ' ';

   7705  2 000645   000040 236003                    LDQ     32,DU
         2 000646   200015 552120                    STBQ    LDEV_KEY,'20'O,AUTO

     1157     7706    2        LDEV_KEY.NAME = B$ROSEG$->B$ROSEG.LDEVNAME(INDX);

   7706  2 000647   200003 471500                    LDP1    @INDX,,AUTO
         2 000650   100000 720100                    LXL0    0,,PR1
         2 000651   000000 635010                    EAA     0,X0
         2 000652   000020 771000                    ARL     16
         2 000653   000000 473400 xsym               LDP3    B$ROSEG$
         2 000654   040100 100505                    MLR     fill='040'O
         2 000655   300054 000004                    ADSC9   44,A,PR3                 cn=0,n=4
         2 000656   200015 400004                    ADSC9   LDEV_KEY,,AUTO           cn=2,n=4

PL6.E3A0      #003=FSL$UC File=FSL$LDEV.:E05TSI                                  TUE 07/29/97 17:34 Page:210
     1158     7707
     1159     7708    2        RETURN;

   7708  2 000657   200056 221300                    LDX1  ! FPT_WRITE+12,,AUTO
         2 000660   000001 702211                    TSX2  ! 1,X1

     1160     7709
     1161     7710    2   END OPEN_STAR;
     1162     7711
     1163     7712        %EJECT;
PL6.E3A0      #003=FSL$UC File=FSL$LDEV.:E05TSI                                  TUE 07/29/97 17:34 Page:211
     1164     7713    1   READ_CLDEV: PROC (BUF$) ALTRET;

   7713  2 000661   200056 741300       READ_CLDEV   STX1  ! FPT_WRITE+12,,AUTO

     1165     7714
     1166     7715    2   DCL BUF$ PTR;
     1167     7716
     1168     7717    2        FPT_READ = FPT_READ_CONS;

   7717  2 000662   000100 100400                    MLR     fill='000'O
         2 000663   000010 000070 1                  ADSC9   FPT_READ_CONS            cn=0,n=56
         2 000664   200024 000070                    ADSC9   FPT_READ,,AUTO           cn=0,n=56

     1169     7718    2        FPT_READ.V.DCB# = %M$STAR#;

   7718  2 000665   000001 220003                    LDX0    1,DU
         2 000666   200034 740100                    STX0    FPT_READ+8,,AUTO

     1170     7719    2        FPT_READ.V_ = VECTOR (FPT_READ.V);

   7719  2 000667   000020 235000 3                  LDA     16
         2 000670   200060 452500                    STP2    @BUF$+1,,AUTO
         2 000671   200060 236100                    LDQ     @BUF$+1,,AUTO
         2 000672   000034 036003                    ADLQ    28,DU
         2 000673   200024 757100                    STAQ    FPT_READ,,AUTO

     1171     7720    2        FPT_READ.KEY_ = VECTOR (LDEV_KEY);

   7720  2 000674   000015 235000 3                  LDA     13
         2 000675   200060 452500                    STP2    @BUF$+1,,AUTO
         2 000676   200060 236100                    LDQ     @BUF$+1,,AUTO
         2 000677   000015 036003                    ADLQ    13,DU
         2 000700   200026 757100                    STAQ    FPT_READ+2,,AUTO

     1172     7721    2        FPT_READ.BUF_ = VECTOR(BUFFER);

   7721  2 000701   000016 235000 3                  LDA     14
PL6.E3A0      #003=FSL$UC File=FSL$LDEV.:E05TSI                                  TUE 07/29/97 17:34 Page:212
         2 000702   200014 236100                    LDQ     BUF$,,AUTO
         2 000703   200030 757100                    STAQ    FPT_READ+4,,AUTO

     1173     7722    2        CALL M$MREAD (FPT_READ)

   7722  2 000704   200024 630500                    EPPR0   FPT_READ,,AUTO
         2 000705   200060 450500                    STP0    @BUF$+1,,AUTO
         2 000706   200060 630500                    EPPR0   @BUF$+1,,AUTO
         2 000707   000017 631400 xsym               EPPR1   B_VECTNIL+15
         2 000710   000000 701000 xent               TSX1    M$MREAD
         2 000711   000713 702000 2                  TSX2    s:7724
         2 000712   000715 710000 2                  TRA     s:7727

     1174     7723    3        WHENALTRETURN DO;

     1175     7724    3             ALTRETURN;

   7724  2 000713   200056 221300                    LDX1  ! FPT_WRITE+12,,AUTO
         2 000714   000000 702211                    TSX2  ! 0,X1

     1176     7725    3           END;
     1177     7726
     1178     7727    2        RETURN;

   7727  2 000715   200056 221300                    LDX1  ! FPT_WRITE+12,,AUTO
         2 000716   000001 702211                    TSX2  ! 1,X1

(unnamed)
 Sect OctLoc
   1     000   125103 060061   000000 000000   001000 000000   120000 120000    UC01........P.P.
   1     004   377377 125377   377377 377377   377377 377377   377377 377377    ..U.............

FPT_READ_CONS
 Sect OctLoc
   1     010   000005 777640   000020 006000   000000 177640   000000 006014    ................
   1     014   000000 177640   000000 006014   000000 177640   000000 006014    ................
   1     020   000000 600000   000000 000000   000000 000000   000000 000000    ................
PL6.E3A0      #003=FSL$UC File=FSL$LDEV.:E05TSI                                  TUE 07/29/97 17:34 Page:213
   1     024   000000 000000   000000 000000                                    ........

FPT_WRITE_CONS
 Sect OctLoc
   1     026   000003 777640   000036 006000   000000 177640   000000 006014    ................
   1     032   000000 177640   000000 006014   000000 177640   000000 006014    ................
   1     036   000000 400400   000000 000000   000000 000000   000000 000000    ................

(unnamed)
 Sect OctLoc
   1     042   040040 040040   125103 040040   052101 040040                        UC  *A

(unnamed)
 Sect OctLoc
   3     000   777777 757777   777777 777740   000002 006000   177777 777777    ................
   3     004   000001 040000   000001 020000   000777 777000   000040 040000    .. ..........  .
   3     010   000022 600000   000000 006000   000000 006000   577777 777777    ................
   3     014   000003 777640   000001 377640   001777 777640   000007 006000    ................
   3     020   000005 777640                                                    ....
     1179     7728
     1180     7729    2   END READ_CLDEV;
     1181     7730
     1182     7731    1   END FSL$UC;
     1183     7732        /*      ME  is the all-purpose most reasonable place for input and
     1184     7733                   output.  Its name is intended to be derived from the
     1185     7734                   word "me"; i.e., the place that "I" am.
     1186     7735                   When you are a timesharing user, ME input comes from your
     1187     7736                   terminal unless you are XEQ'ing, in which case it comes
     1188     7737                   from the XEQ.  Timesharing user ME output is written to
     1189     7738                   your terminal.
     1190     7739                   Batch ME input comes from the command file that was
     1191     7740                   BATCHed to create the batch job, unless the job is doing
     1192     7741                   an XEQ, in which case it comes from the XEQ.  Batch ME
     1193     7742                   output is written to the line printer LP.
     1194     7743
     1195     7744                CR  is the input side of ME.  The name CR stands for
     1196     7745                   "Command Read".  It is just like ME, except you can't
PL6.E3A0      #003=FSL$UC File=FSL$LDEV.:E05TSI                                  TUE 07/29/97 17:34 Page:214
     1197     7746                   output to it.
     1198     7747
     1199     7748                LO  is the output side of ME.  The name LO stands for
     1200     7749                   "Listing Output".  It is just like ME, except you
     1201     7750                   can't read from it.
     1202     7751
     1203     7752                UC  is the interactive place.  The name UC stands for
     1204     7753                   "User Console".  When you are a timesharing user, UC
     1205     7754                   input always comes from your terminal and UC output
     1206     7755                   always is written to your terminal.  In batch there is
     1207     7756                   no place to interact, so UC input is an end-of-file and
     1208     7757                   UC output is thrown away.
     1209     7758
     1210     7759                LP  is the line printer.  The name LP stands for "Line
     1211     7760                   Printer".  Output to LP goes to the line printer; you
     1212     7761                   can't read from LP.
     1213     7762
     1214     7763                NO  is no place at all.  The name NO means the word "no".
     1215     7764                   NO input is an end-of-file; NO output is thrown away.
     1216     7765
     1217     7766                CP  is the card punch.  The name CP stands for "Card Punch".
     1218     7767                   Output to CP goes to the card punch; you can't read from
     1219     7768                   CP.
     1220     7769
     1221     7770                GR  is the graphics place.  The name GR stands for "GRaphics".
     1222     7771                   Output to GR goes to the graphics device; you can't read
     1223     7772                   from GR.
     1224     7773        */

PL6.E3A0      #003=FSL$UC File=FSL$LDEV.:E05TSI                                  TUE 07/29/97 17:34 Page:215
--  Include file information  --

   KI_SUBS_C.:E05TOU  is referenced.
   F_FMTCODE_C.:E05TOU  is referenced.
   CP_6_SUBS.:E05TOU  is referenced.
   F$CP6V_C.:E05TOU  is referenced.
   F$DCB.:E05TOU  cannot be made into a system file and is referenced.
   B$ROSEG.:E05TOU  is referenced.
   B$JIT_C.:E05TOU  is referenced.
   F$JIT_C.:E05TOU  cannot be made into a system file and is referenced.
   CP_6_C.:E05TOU  is referenced.
   CP_6.:E05TOU  cannot be made into a system file and is referenced.
   FS$FIT.:E05TOU  is referenced.
      No diagnostics issued in procedure FSL$UC.
PL6.E3A0      #003=FSL$UC File=FSL$LDEV.:E05TSI                                  TUE 07/29/97 17:34 Page:216

 **** Variables and constants ****

  ****  Section 001 RoData FSL$UC

  ****  Scalars and arrays  ****
OctLoc.c.b A Datatyp(siz) R M Lvl/name                 OctLoc.c.b A Datatyp(siz) R M Lvl/name

    10-0-0/d STRC(504)   r     1 FPT_READ_CONS             26-0-0/d STRC(432)   r     1 FPT_WRITE_CONS

  ****  Auto variables  ****

  ****  Scalars and arrays  ****
OctLoc.c.b A Datatyp(siz) R M Lvl/name                 OctLoc.c.b A Datatyp(siz) R M Lvl/name

    57-0-0/w PTR         r     1 @BUF$                      3-0-0/w PTR         r     1 @INDX
    14-0-0/w PTR         r     1 BUF$                      *0-0-0/w PTR         r     1 BUF$
    20-0-0/w PTR         r     1 DCB$                      24-0-0/d STRC(504)   r     1 FPT_READ
    42-0-0/d STRC(432)   r     1 FPT_WRITE                 22-0-0/w UBIN        r     1 FRMSTRM
    22-0-0/w STRC        r     1 FRMSTRM_BYTE              23-0-0/c CHAR(4)     r     1 FRMSTRM_TEXT
    *0-0-0/w UBIN        r     1 INDX                      17-0-0/w SBIN        r     1 J
    15-0-0/c STRC(54)    r     1 LDEV_KEY                  21-0-0/b BIT         r     1 ONLINE
     4-0-0/d STRC(288)   r     1 WINDOW

  ****  SYMREF variables  ****

  ****  Scalars and arrays  ****
OctLoc.c.b A Datatyp(siz) R M Lvl/name                 OctLoc.c.b A Datatyp(siz) R M Lvl/name

     0-0-0/w PTR         r     1 B$JIT$                     0-0-0/w PTR         r     1 B$M$STAR$
     0-0-0/w PTR         r     1 B$M$UC$                    0-0-0/w PTR         r     1 B$PS0$
     0-0-0/w PTR         r     1 B$PS1$                     0-0-0/w PTR         r     1 B$PS2$
     0-0-0/w PTR         r     1 B$PS5$                     0-0-0/w PTR         r     1 B$ROSEG$

  ****  BASED and DCB variables  ****

  ****  Scalars and arrays  ****
OctLoc.c.b A Datatyp(siz) R M Lvl/name                 OctLoc.c.b A Datatyp(siz) R M Lvl/name
PL6.E3A0      #003=FSL$UC File=FSL$LDEV.:E05TSI                                  TUE 07/29/97 17:34 Page:217

     0-0-0/d STRC(8856)  r     1 B$JIT
     0-0-0/w PTR         r     1 B$RODCB$(0:0)
     0-0-0/d STRC(3024)  r     1 B$ROSEG                    0-0-0/c CHAR(4096)  r     1 BUFFER
     0-0-0/d ASTR(3528)  r     1 F$DCB                      0-0-0/d STRC(216)   r     1 FPT$LDEV_V
     0-0-0/w STRC(144)   r     1 FS$DDF                     0-0-0/w STRC(180)   r     1 FS$DDFSZ
     0-0-0/w STRC(1485)  r     1 VLP$HDRF                   0-0-0/c ASTR(0)     r     1 VLP$HDRU
     0-0-0/w STRC(288)   r     1 VLP$TAB                    0-0-0/d STRC(288)   r     1 VLP$WINDOW


   Procedure FSL$UC requires 463 words for executable code.
   Procedure FSL$UC requires 52 words of local(AUTO) storage.

    No errors detected in file FSL$LDEV.:E05TSI    .
PL6.E3A0      #003=FSL$UC File=FSL$LDEV.:E05TSI                                  TUE 07/29/97 17:34 Page:218
          *** CROSS REFERENCE LISTING ***
**     DENOTES     IDENTIFIER DEFINITION
<<                 IDENTIFIER'S VALUE SET
>>                 IDENTIFIER'S VALUE USED
<>                 IDENTIFIER SET AND/OR USED
--                 IDENTIFIER REFERENCED
PL6.E3A0      #003=FSL$UC File=FSL$LDEV.:E05TSI                                  TUE 07/29/97 17:34 Page:219
          MINI XREF LISTING

B$JIT.DCB$
      6037**DCL      7580<<ASSIGN   7634<<ASSIGN   7670>>ASSIGN   7673<<ASSIGN   7682<<ASSIGN   7683>>ASSIGN
      7686<<ASSIGN   7688<<ASSIGN   7694<<ASSIGN
B$JIT.ERR
      5947**DCL      7568<<ASSIGN   7700>>IF
B$JIT.ERR.MID
      5948**DCL      5948--REDEF
B$JIT$
      7366**DCL      5942--IMP-PTR  7568>>ASSIGN   7580>>ASSIGN   7634>>ASSIGN   7670>>ASSIGN   7673>>ASSIGN
      7682>>ASSIGN   7683>>ASSIGN   7686>>ASSIGN   7688>>ASSIGN   7694>>ASSIGN   7700>>IF
B$M$STAR$
      7367**DCL      7580>>ASSIGN   7634>>ASSIGN   7686>>ASSIGN   7694>>ASSIGN   7695>>ASSIGN   7696>>ASSIGN
      7697>>ASSIGN   7698>>ASSIGN
B$M$UC$
      7368**DCL      7536>>IF       7546>>IF       7548>>IF       7679>>IF
B$PS0$
      7369**DCL      7210--IMP-PTR  7571>>IF       7571>>IF       7576>>CALL     7576>>CALL     7586>>IF
      7588>>CALLBLT  7591>>IF       7592>>ASSIGN   7593>>IF       7594>>ASSIGN   7595>>IF       7596>>ASSIGN
      7597>>IF       7598>>ASSIGN
B$PS1$
      7370**DCL      7599<>CALL     7601<>CALL     7604>>ASSIGN
B$PS2$
      7371**DCL      7610<>CALL     7612<>CALL     7615<>CALL     7616>>ASSIGN
B$PS5$
      7372**DCL      7278--IMP-PTR  7654>>ASSIGN
B$RODCB$
      6160**DCL      7546>>IF       7546>>IF       7548>>IF       7548>>IF       7548>>IF       7551>>ASSIGN
B$ROSEG.DCBPTR$
      6125**DCL      7546>>IF       7546>>IF       7548>>IF       7548>>IF       7548>>IF       7551>>ASSIGN
B$ROSEG.LDEVNAME
      6135**DCL      7578<<ASSIGN   7706>>ASSIGN
B$ROSEG.NUMDCBS
PL6.E3A0      #003=FSL$UC File=FSL$LDEV.:E05TSI                                  TUE 07/29/97 17:34 Page:220
      6127**DCL      7544>>ASSIGN
B$ROSEG.STREAMID
      6136**DCL      7577<<ASSIGN
B$ROSEG.STREAMID.FLG
      6137**DCL      7542>>IF       7558<<ASSIGN   7564>>IF       7574>>IF       7641>>IF       7660<<ASSIGN
B$ROSEG.STREAMID.UC_STR
      6143**DCL      7638<<ASSIGN
B$ROSEG.STREAMID.WINDOW
      6142**DCL      7656<<ASSIGN
B$ROSEG$
      7373**DCL      6124--IMP-PTR  6160--IMP-PTR  6162--IMP-PTR  7542>>IF       7544>>ASSIGN   7546>>IF
      7546>>IF       7548>>IF       7548>>IF       7548>>IF       7551>>ASSIGN   7558>>ASSIGN   7564>>IF
      7574>>IF       7577>>ASSIGN   7578>>ASSIGN   7638>>ASSIGN   7641>>IF       7656>>ASSIGN   7660>>ASSIGN
      7706>>ASSIGN
BUF$
      7351**DCL      7350--IMP-PTR  7534<>CALL     7535>>ASSIGN   7566<>CALL     7592>>ASSIGN   7594>>ASSIGN
      7596>>ASSIGN   7598>>ASSIGN   7603>>ASSIGN   7604>>ASSIGN   7607>>ASSIGN   7614>>ASSIGN   7616>>ASSIGN
      7620>>ASSIGN   7623>>ASSIGN   7629>>ASSIGN   7630>>ASSIGN   7663<>CALL     7676<>CALL     7677>>ASSIGN
      7684>>CALL     7721>>ASSIGN
BUF$ IN PROCEDURE READ_CLDEV
      7715**DCL      7713--PROC
BUFFER
      7350**DCL      7629--ASSIGN   7721--ASSIGN
CLEAN_UP
      7663**LABEL    7561--CALLALT  7582--GOTO     7646--CALLALT  7651--CALLALT  7655--CALLALT  7689--GOTO
DCB$
      7357**DCL      7670<<ASSIGN   7673>>ASSIGN   7679>>IF       7682>>ASSIGN   7688>>ASSIGN
F$DCB.ACTPOS
      6201**DCL      6201--REDEF
F$DCB.ARS
      6176**DCL      6176--REDEF
F$DCB.ASN
      6191**DCL      7697<<ASSIGN
F$DCB.ATTR
      6194**DCL      6195--REDEF
F$DCB.BORROW
PL6.E3A0      #003=FSL$UC File=FSL$LDEV.:E05TSI                                  TUE 07/29/97 17:34 Page:221
      6209**DCL      6209--REDEF    6209--REDEF    6209--REDEF
F$DCB.CFU$
      6210**DCL      7548>>IF
F$DCB.DCBNAME.L
      6223**DCL      6223--IMP-SIZ
F$DCB.EOMCHAR
      6180**DCL      6180--REDEF
F$DCB.FCD
      6189**DCL      7551<<ASSIGN
F$DCB.FLDID
      6204**DCL      6204--REDEF
F$DCB.FORM$
      6198**DCL      6198--REDEF
F$DCB.FSECT
      6214**DCL      6214--REDEF
F$DCB.FSN
      6191**DCL      6191--REDEF    6191--REDEF    6192--REDEF
F$DCB.FUN
      6190**DCL      7698<<ASSIGN
F$DCB.HEADER$
      6197**DCL      6197--REDEF
F$DCB.IASN
      6217**DCL      7548>>IF
F$DCB.IXTNSIZE
      6195**DCL      6195--REDEF
F$DCB.LASTSTA$
      6185**DCL      6185--REDEF
F$DCB.LVL
      6210**DCL      6210--REDEF
F$DCB.MEDIA
      6216**DCL      7536>>IF       7683<<ASSIGN
F$DCB.NAME.C
      6185**DCL      6185--REDEF    7696<<ASSIGN
F$DCB.NAME.L
      6185**DCL      7695<<ASSIGN
F$DCB.NOEOF
PL6.E3A0      #003=FSL$UC File=FSL$LDEV.:E05TSI                                  TUE 07/29/97 17:34 Page:222
      6206**DCL      6206--REDEF
F$DCB.NRECS
      6196**DCL      6196--REDEF
F$DCB.NRECX
      6215**DCL      6215--REDEF
F$DCB.OHDR
      6207**DCL      6207--REDEF
F$DCB.ORG
      6190**DCL      6190--REDEF
F$DCB.PRECNO
      6213**DCL      6213--REDEF
F$DCB.RCSZ
      6218**DCL      6218--REDEF
F$DCB.RES
      6186**DCL      6186--REDEF
F$DCB.SETX
      6198**DCL      6198--REDEF
F$DCB.STR
      6214**DCL      7548>>IF
F$DCB.TAB$
      6197**DCL      6198--REDEF
F$DCB.TDA
      6212**DCL      6212--REDEF
F$DCB.WSN
      6187**DCL      6187--REDEF
FMD$GBUF
      7377**DCL-ENT  7534--CALL     7676--CALL
FMD$RBUF
      7378**DCL-ENT  7663--CALL
FMM$DFLOPNP
      7384**DCL-ENT  7699--CALL
FMP$CLSJ
      7385**DCL-ENT  7581--CALL     7635--CALL     7687--CALL
FPT$LDEV_V.ATTR
      7212**DCL      7597>>IF       7598>>ASSIGN
FPT$LDEV_V.DVFC
PL6.E3A0      #003=FSL$UC File=FSL$LDEV.:E05TSI                                  TUE 07/29/97 17:34 Page:223
      7211**DCL      7593>>IF       7594>>ASSIGN
FPT$LDEV_V.FRMSTRM
      7212**DCL      7586>>IF       7588>>CALLBLT
FPT$LDEV_V.LINES
      7211**DCL      7591>>IF       7592>>ASSIGN
FPT$LDEV_V.LOGON
      7210**DCL      7571>>IF       7576<>CALL
FPT$LDEV_V.REMOVE
      7210**DCL      7571>>IF       7576<>CALL
FPT$LDEV_V.WIDTH
      7212**DCL      7595>>IF       7596>>ASSIGN
FPT_READ
      7447**DCL      7717<<ASSIGN   7722<>CALL
FPT_READ.BUF_
      7449**DCL      7721<<ASSIGN
FPT_READ.KEY_
      7447**DCL      7720<<ASSIGN
FPT_READ.STATION_
      7450**DCL      7451--REDEF
FPT_READ.V
      7451**DCL      7719--ASSIGN
FPT_READ.V.DCB#
      7451**DCL      7718<<ASSIGN
FPT_READ.V.DVBYTE.REREAD#
      7462**DCL      7462--REDEF
FPT_READ.V.INDX#
      7460**DCL      7460--REDEF
FPT_READ.V_
      7447**DCL      7719<<ASSIGN
FPT_READ_CONS
      7408**DCL      7717>>ASSIGN
FPT_READ_CONS.STATION_
      7411**DCL      7412--REDEF
FPT_READ_CONS.V
      7412**DCL      7408--DCLINIT
FPT_READ_CONS.V.DVBYTE.REREAD#
PL6.E3A0      #003=FSL$UC File=FSL$LDEV.:E05TSI                                  TUE 07/29/97 17:34 Page:224
      7423**DCL      7423--REDEF
FPT_READ_CONS.V.INDX#
      7421**DCL      7421--REDEF
FPT_WRITE
      7517**DCL      7625<<ASSIGN   7631<>CALL
FPT_WRITE.BUF_
      7517**DCL      7629<<ASSIGN
FPT_WRITE.BUF_.BOUND
      7517**DCL      7630<<ASSIGN
FPT_WRITE.KEY_
      7517**DCL      7627<<ASSIGN
FPT_WRITE.STATION_
      7519**DCL      7519--REDEF
FPT_WRITE.V
      7520**DCL      7626--ASSIGN
FPT_WRITE.V.DCB#
      7520**DCL      7628<<ASSIGN
FPT_WRITE.V.DVBYTE.VFC#
      7526**DCL      7526--REDEF
FPT_WRITE.V_
      7517**DCL      7626<<ASSIGN
FPT_WRITE_CONS
      7486**DCL      7625>>ASSIGN
FPT_WRITE_CONS.STATION_
      7488**DCL      7488--REDEF
FPT_WRITE_CONS.V
      7489**DCL      7486--DCLINIT
FPT_WRITE_CONS.V.DVBYTE.VFC#
      7495**DCL      7495--REDEF
FRMSTRM
      7359**DCL      7360--REDEF    7585<<ASSIGN   7643>>IF       7645<<ASSIGN   7646<>CALL     7649>>IF
      7651<>CALL
FRMSTRM_BYTE.STR
      7362**DCL      7589<>CALL
FRMSTRM_TEXT
      7363**DCL      7588<<CALLBLT  7589<>CALL
PL6.E3A0      #003=FSL$UC File=FSL$LDEV.:E05TSI                                  TUE 07/29/97 17:34 Page:225
FS$DDF
      7202**DCL      7623--ASSIGN
FS$DDFSZ
      7206**DCL      7535<<ASSIGN   7604--ASSIGN   7616--ASSIGN   7677<<ASSIGN
FS$DDFSZ.ATTR
      7207**DCL      7598<<ASSIGN
FS$DDFSZ.DVFC
      7207**DCL      7594<<ASSIGN
FS$DDFSZ.F.HDR
      7206**DCL      7614<<ASSIGN   7620<<ASSIGN
FS$DDFSZ.F.TAB
      7206**DCL      7603<<ASSIGN   7607<<ASSIGN
FS$DDFSZ.LINES
      7207**DCL      7592<<ASSIGN
FS$DDFSZ.SIZ
      7206**DCL      7623<<ASSIGN   7630>>ASSIGN
FS$DDFSZ.WIDTH
      7206**DCL      7596<<ASSIGN
FSB$GETDDF
      7376**DCL-ENT  7684--CALL
FSN$CONV_STR
      7161**DCL-ENT  7589--CALL
FS_WINDOW.FWINDOW#
      7234**DCL      7234--REDEF    7235--REDEF
HFF$DSIZ
      7381**DCL-ENT  7615--CALL
HFF$ERASE
      7380**DCL-ENT  7601--CALL     7612--CALL
HFF$NIL
      7379**DCL-ENT  7599--CALL     7610--CALL
HFF$NILERASE
      7383**DCL-ENT  7652--CALL
HFF$TRAPALT
      7382**DCL-ENT  7562--CALL
INDX
      7167**DCL        15--PROC     7542>>IF       7548>>IF       7557<>CALL     7558>>ASSIGN   7564>>IF
PL6.E3A0      #003=FSL$UC File=FSL$LDEV.:E05TSI                                  TUE 07/29/97 17:34 Page:226
      7571>>IF       7574>>IF       7576<>CALL     7577>>ASSIGN   7578>>ASSIGN   7638>>ASSIGN   7641>>IF
      7646<>CALL     7651<>CALL     7655<>CALL     7656>>ASSIGN   7660>>ASSIGN   7667--ENTRY    7706>>ASSIGN
J
      7356**DCL      7200--IMP-SIZ  7544<<ASSIGN   7545>>DOWHILE  7546>>IF       7546>>IF       7548>>IF
      7548>>IF       7548>>IF       7551>>ASSIGN   7552<<ASSIGN   7552>>ASSIGN   7615<>CALL     7616>>ASSIGN
KIA$CLSSTR
      7163**DCL-ENT  7557--CALL     7576--CALL
KIA$DCLSTR
      7160**DCL-ENT  7646--CALL
KIA$REDSTR
      7162**DCL-ENT  7651--CALL
KIA$WINDOW
      7164**DCL-ENT  7655--CALL
LDEV_KEY
      7352**DCL      7627--ASSIGN   7720--ASSIGN
LDEV_KEY.BLK
      7354**DCL      7705<<ASSIGN
LDEV_KEY.NAME
      7355**DCL      7706<<ASSIGN
LDEV_KEY.SZ
      7353**DCL      7704<<ASSIGN
M$MREAD
      7386**DCL-ENT  7722--CALL
M$MWRITE
      7387**DCL-ENT  7631--CALL
ONLINE
      7358**DCL      7538<<ASSIGN   7540<<ASSIGN   7555>>IF       7574>>IF       7639>>IF
OPEN_STAR
      7692**PROC     7561--CALL     7671--CALL
READ_CLDEV
      7713**PROC     7566--CALL     7678--CALL
TRAPALT
      7578**LABEL    7562--CALLALT
VLP$HDRF
      7195**DCL      7616<<ASSIGN   7623--ASSIGN
VLP$HDRU
PL6.E3A0      #003=FSL$UC File=FSL$LDEV.:E05TSI                                  TUE 07/29/97 17:34 Page:227
      7200**DCL      7616>>ASSIGN
VLP$TAB
      7181**DCL      7604<<ASSIGN   7604>>ASSIGN   7616--ASSIGN   7623--ASSIGN
VLP$WINDOW
      7278**DCL      7654>>ASSIGN
VLP$WINDOW.FWINDOW#
      7278**DCL      7278--REDEF    7279--REDEF
WINDOW
      7322**DCL      7654<<ASSIGN   7655<>CALL
WINDOW.FWINDOW#
      7322**DCL      7322--REDEF    7323--REDEF
