PL6.E3A0      #002=FSN$CONV_STR File=FSN$OPNDEV.:E05TSI                          TUE 07/29/97 17:37 Page:234
     1401        1        /*T***********************************************************/
     1402        2        /*T*                                                         */
     1403        3        /*T* Copyright (c) Bull HN Information Systems Inc., 1997    */
     1404        4        /*T*                                                         */
     1405        5        /*T***********************************************************/
     1406        6        FSN$CONV_STR: PROC (STREAMPARM,STREAM) ALTRET;
     1407        7
     1408        8        /*F* NAME: FSN$CONV_STR
     1409        9             PURPOSE: To convert a stream name to a stream number
     1410       10             DESCRIPTION: This module validates the passed stream name and
     1411       11                          then converts the name to a number.  It does this
     1412       12                          by searching the ROSEG for a match or converting
     1413       13                          the name to a number.
     1414       14         */
     1415       15
     1416       16        /* Include files */
     1417       17        %INCLUDE F$JIT_C;
     1418      447        %INCLUDE B$ROSEG;
     1419      510        %INCLUDE F_ERRORS_C;
     1420      750        %INCLUDE F_MACROS_C;
     1421      761
     1422      762        /* Symrefs */
     1423      763    1   DCL B$ROSEG$ PTR SYMREF;
     1424      764    1   DCL B$JIT$ PTR SYMREF;
     1425      765
     1426      766        /* Subs */
     1427      767        %SUB FCG#='0623'O;
     1428      768        %SUB MID#='16'O;
     1429      769
     1430      770        /* Parameters */
     1431      771    1   DCL STREAMPARM CHAR(4) CALIGNED;
     1432      772    1   DCL STREAM UBIN BYTE CALIGNED;
     1433      773
     1434      774        /* Auto */
     1435      775    1   DCL I SBIN;
     1436      776    1   DCL 1 STREAMNAME,
     1437      777    1            2 NN CHAR(2),
PL6.E3A0      #002=FSN$CONV_STR File=FSN$OPNDEV.:E05TSI                          TUE 07/29/97 17:37 Page:235
     1438      778    1            2 NNB REDEF NN BIT(18),
     1439      779    1            2 DD CHAR(2);
     1440      780    1   DCL STREAMNAME_C REDEF STREAMNAME CHAR(4);
     1441      781        %EJECT;
PL6.E3A0      #002=FSN$CONV_STR File=FSN$OPNDEV.:E05TSI                          TUE 07/29/97 17:37 Page:236
     1442      782
     1443      783        /* Error codes */
     1444      784        %ERRCODE (NAME=INVRES,COD#=%E$INVRES);
     1445      788        %ERRCODE (NAME=UNDEFSTREAM,COD#=%E$UNDEFSTREAM);
     1446      792
     1447      793        %EJECT;
PL6.E3A0      #002=FSN$CONV_STR File=FSN$OPNDEV.:E05TSI                          TUE 07/29/97 17:37 Page:237
     1448      794    1        STREAMNAME_C = STREAMPARM;
     1449      795    1        IF STREAMNAME_C = '    '
     1450      796    2        THEN DO;
     1451      797    2             STREAM = 0;
     1452      798    2             RETURN;
     1453      799    2           END;
     1454      800    1        STREAMNAME.NNB = STREAMNAME.NNB&'767767'O;
     1455      801    1        IF STREAMNAME.NN ~= 'UC'
     1456      802    2        THEN DO;
     1457      803    2   INVRESERR:;
     1458      804    2             B$JIT.ERR = INVRES;
     1459      805    2             ALTRETURN;
     1460      806    2           END;
     1461      807    2        DO I = 0 TO 15;
     1462      808    2             IF B$ROSEG$->B$ROSEG.LDEVNAME(I) = STREAMNAME_C
     1463      809    2             THEN EXIT;
     1464      810    2           END;
     1465      811    1        IF I = 16
     1466      812    2        THEN DO;
     1467      813    2             IF ASCBIN(SUBSTR(STREAMNAME.DD,0,1)) < ASCBIN('0')
     1468      814    2                  OR ASCBIN(SUBSTR(STREAMNAME.DD,0,1)) > ASCBIN('9')
     1469      815    2                  OR ASCBIN(SUBSTR(STREAMNAME.DD,1,1)) < ASCBIN('0')
     1470      816    2                  OR ASCBIN(SUBSTR(STREAMNAME.DD,1,1)) > ASCBIN('9')
     1471      817    2             THEN GOTO INVRESERR;
     1472      818    2             I = ASCBIN(SUBSTR(STREAMNAME.DD,1,1)) +
     1473      819    2                  10*ASCBIN(SUBSTR(STREAMNAME.DD,0,1)) +
     1474      820    2                  20 - 10*ASCBIN('0') - ASCBIN('0');
     1475      821    2             IF B$ROSEG$->B$ROSEG.STREAM_VALID(I)
     1476      822    2             THEN EXIT;
     1477      823    2             B$JIT.ERR = UNDEFSTREAM;
     1478      824                  /*E* ERROR: FSN-E$UNDEFSTREAM
     1479      825                       MESSAGE: The specified stream has not been defined.
     1480      826                        */
     1481      827    2             ALTRETURN;
     1482      828    2           END;
     1483      829    1        STREAM = I;
     1484      830    1        RETURN;
PL6.E3A0      #002=FSN$CONV_STR File=FSN$OPNDEV.:E05TSI                          TUE 07/29/97 17:37 Page:238
     1485      831
     1486      832    1   END FSN$CONV_STR;

PL6.E3A0      #002=FSN$CONV_STR File=FSN$OPNDEV.:E05TSI                          TUE 07/29/97 17:37 Page:239
--  Include file information  --

   F_MACROS_C.:E05TOU  is referenced.
   F_ERRORS_C.:E05TOU  is referenced.
   B$ROSEG.:E05TOU  cannot be made into a system file and is referenced.
   B$JIT_C.:E05TOU  is referenced.
   F$JIT_C.:E05TOU  cannot be made into a system file and is referenced.
      No diagnostics issued in procedure FSN$CONV_STR.

   Procedure FSN$CONV_STR requires 73 words for executable code.
   Procedure FSN$CONV_STR requires 10 words of local(AUTO) storage.

    No errors detected in file FSN$OPNDEV.:E05TSI    .

PL6.E3A0      #002=FSN$CONV_STR File=FSN$OPNDEV.:E05TSI                          TUE 07/29/97 17:37 Page:240

 Object Unit name= FSN$CONV_STR                               File name= FSN$OPNDEV.:E05TOU
 UTS= JUL 29 '97 17:37:26.40 TUE                              Compiler= PL-6/E31         Sev=      00
 SharedLib= :SHARED_SYSTEM                                    Alt SharedLib=


    ****  Control sections  ****

 Sect   Type Bound  Init  Size OctSiz  Section name(segment info)
    0  RoData even  UTS      4      4  FSN$CONV_STR
    1   Proc  even  none    73    111  FSN$CONV_STR

    ****  Entry defs  ****

                              Check   Calling
                             calling  sequence
  Sect OctLoc Primary Altret sequence   type   Parms  Name
     1      0   yes    yes     yes      Std        2  FSN$CONV_STR

  ****  Entry refs  ****

         Check        Calling
        calling       sequence
Altret sequence SRef   type   Args  Name
                       nStd      0 X66_AUTO_2
                       Std       0 B_CONSPOOL_D
                       nStd      0 X66_ARET
                       nStd      0 X66_AALT

  ****  Data refs  ****

  Flags:  r = read only, s = secondary
Flgs Name                             Flgs Name                             Flgs Name
     B$ROSEG$                              B$JIT$                                B_VECTNIL
PL6.E3A0      #002=FSN$CONV_STR File=FSN$OPNDEV.:E05TSI                          TUE 07/29/97 17:37 Page:241


     1401        1        /*T***********************************************************/
     1402        2        /*T*                                                         */
     1403        3        /*T* Copyright (c) Bull HN Information Systems Inc., 1997    */
     1404        4        /*T*                                                         */
     1405        5        /*T***********************************************************/
     1406        6        FSN$CONV_STR: PROC (STREAMPARM,STREAM) ALTRET;

      6  1 000000   000000 700200 xent  FSN$CONV_STR TSX0  ! X66_AUTO_2
         1 000001   000012 000002                    ZERO    10,2

     1407        7
     1408        8        /*F* NAME: FSN$CONV_STR
     1409        9             PURPOSE: To convert a stream name to a stream number
     1410       10             DESCRIPTION: This module validates the passed stream name and
     1411       11                          then converts the name to a number.  It does this
     1412       12                          by searching the ROSEG for a match or converting
     1413       13                          the name to a number.
     1414       14         */
     1415       15
     1416       16        /* Include files */
     1417       17        %INCLUDE F$JIT_C;
     1418      447        %INCLUDE B$ROSEG;
     1419      510        %INCLUDE F_ERRORS_C;
     1420      750        %INCLUDE F_MACROS_C;
     1421      761
     1422      762        /* Symrefs */
     1423      763    1   DCL B$ROSEG$ PTR SYMREF;
     1424      764    1   DCL B$JIT$ PTR SYMREF;
     1425      765
     1426      766        /* Subs */
     1427      767        %SUB FCG#='0623'O;
     1428      768        %SUB MID#='16'O;
     1429      769
     1430      770        /* Parameters */
     1431      771    1   DCL STREAMPARM CHAR(4) CALIGNED;
     1432      772    1   DCL STREAM UBIN BYTE CALIGNED;
PL6.E3A0      #002=FSN$CONV_STR File=FSN$OPNDEV.:E05TSI                          TUE 07/29/97 17:37 Page:242
     1433      773
     1434      774        /* Auto */
     1435      775    1   DCL I SBIN;
     1436      776    1   DCL 1 STREAMNAME,
     1437      777    1            2 NN CHAR(2),
     1438      778    1            2 NNB REDEF NN BIT(18),
     1439      779    1            2 DD CHAR(2);
     1440      780    1   DCL STREAMNAME_C REDEF STREAMNAME CHAR(4);
     1441      781        %EJECT;
PL6.E3A0      #002=FSN$CONV_STR File=FSN$OPNDEV.:E05TSI                          TUE 07/29/97 17:37 Page:243
     1442      782
     1443      783        /* Error codes */
     1444      784        %ERRCODE (NAME=INVRES,COD#=%E$INVRES);
     1445      788        %ERRCODE (NAME=UNDEFSTREAM,COD#=%E$UNDEFSTREAM);
     1446      792
     1447      793        %EJECT;
PL6.E3A0      #002=FSN$CONV_STR File=FSN$OPNDEV.:E05TSI                          TUE 07/29/97 17:37 Page:244
     1448      794    1        STREAMNAME_C = STREAMPARM;

    794  1 000002   200003 470500                    LDP0    @STREAMPARM,,AUTO
         1 000003   040100 100500                    MLR     fill='040'O
         1 000004   000000 000004                    ADSC9   0,,PR0                   cn=0,n=4
         1 000005   200006 000004                    ADSC9   STREAMNAME,,AUTO         cn=0,n=4

     1449      795    1        IF STREAMNAME_C = '    '

    795  1 000006   200006 236100                    LDQ     STREAMNAME,,AUTO
         1 000007   000002 116000 0                  CMPQ    UNDEFSTREAM+1
         1 000010   000016 601000 1                  TNZ     s:800

     1450      796    2        THEN DO;

     1451      797    2             STREAM = 0;

    797  1 000011   200004 471500                    LDP1    @STREAM,,AUTO
         1 000012   000100 101400                    MRL     fill='000'O
         1 000013   000002 000004 xsym               ADSC9   B_VECTNIL+2              cn=0,n=4
         1 000014   100000 000001                    ADSC9   0,,PR1                   cn=0,n=1

     1452      798    2             RETURN;

    798  1 000015   000000 702200 xent               TSX2  ! X66_ARET

     1453      799    2           END;
     1454      800    1        STREAMNAME.NNB = STREAMNAME.NNB&'767767'O;

    800  1 000016   200006 220100                    LDX0    STREAMNAME,,AUTO
         1 000017   767767 360003                    ANX0    -4105,DU
         1 000020   200006 740100                    STX0    STREAMNAME,,AUTO

     1455      801    1        IF STREAMNAME.NN ~= 'UC'

    801  1 000021   200006 221100                    LDX1    STREAMNAME,,AUTO
         1 000022   000003 101000 0                  CMPX1   UNDEFSTREAM+2
PL6.E3A0      #002=FSN$CONV_STR File=FSN$OPNDEV.:E05TSI                          TUE 07/29/97 17:37 Page:245
         1 000023   000030 600000 1                  TZE     s:807

     1456      802    2        THEN DO;

    798  1 000024                       INVRESERR    null
     1457      803    2   INVRESERR:;
     1458      804    2             B$JIT.ERR = INVRES;

    804  1 000024   000000 236000 0                  LDQ     INVRES
         1 000025   000000 470400 xsym               LDP0    B$JIT$
         1 000026   000012 756100                    STQ     10,,PR0

     1459      805    2             ALTRETURN;

    805  1 000027   000000 702200 xent               TSX2  ! X66_AALT

     1460      806    2           END;
     1461      807    2        DO I = 0 TO 15;

    807  1 000030   200005 450100                    STZ     I,,AUTO

     1462      808    2             IF B$ROSEG$->B$ROSEG.LDEVNAME(I) = STREAMNAME_C

    808  1 000031   000000 470400 xsym               LDP0    B$ROSEG$
         1 000032   200005 720100                    LXL0    I,,AUTO
         1 000033   000054 236110                    LDQ     44,X0,PR0
         1 000034   200006 116100                    CMPQ    STREAMNAME,,AUTO
         1 000035   000042 600000 1                  TZE     s:811

     1463      809    2             THEN EXIT;
     1464      810    2           END;

    810  1 000036   200005 054100                    AOS     I,,AUTO
         1 000037   200005 235100                    LDA     I,,AUTO
         1 000040   000017 115007                    CMPA    15,DL
         1 000041   000031 604400 1                  TMOZ    s:808

PL6.E3A0      #002=FSN$CONV_STR File=FSN$OPNDEV.:E05TSI                          TUE 07/29/97 17:37 Page:246
     1465      811    1        IF I = 16

    811  1 000042   200005 235100                    LDA     I,,AUTO
         1 000043   000020 115007                    CMPA    16,DL
         1 000044   000104 601000 1                  TNZ     s:829

     1466      812    2        THEN DO;

     1467      813    2             IF ASCBIN(SUBSTR(STREAMNAME.DD,0,1)) < ASCBIN('0')

    813  1 000045   200006 236100                    LDQ     STREAMNAME,,AUTO
         1 000046   000011 772000                    QRL     9
         1 000047   000777 376007                    ANQ     511,DL
         1 000050   000060 116007                    CMPQ    48,DL
         1 000051   000024 602000 1                  TNC     INVRESERR
         1 000052   000072 116007                    CMPQ    58,DL
         1 000053   000024 603000 1                  TRC     INVRESERR
         1 000054   200006 236100                    LDQ     STREAMNAME,,AUTO
         1 000055   000777 376007                    ANQ     511,DL
         1 000056   000060 116007                    CMPQ    48,DL
         1 000057   000024 602000 1                  TNC     INVRESERR
         1 000060   000072 116007                    CMPQ    58,DL
         1 000061   000024 603000 1                  TRC     INVRESERR

     1468      814    2                  OR ASCBIN(SUBSTR(STREAMNAME.DD,0,1)) > ASCBIN('9')
     1469      815    2                  OR ASCBIN(SUBSTR(STREAMNAME.DD,1,1)) < ASCBIN('0')
     1470      816    2                  OR ASCBIN(SUBSTR(STREAMNAME.DD,1,1)) > ASCBIN('9')
     1471      817    2             THEN GOTO INVRESERR;
     1472      818    2             I = ASCBIN(SUBSTR(STREAMNAME.DD,1,1)) +

    818  1 000062   200010 756100                    STQ     STREAMNAME+2,,AUTO
         1 000063   200006 236100                    LDQ     STREAMNAME,,AUTO
         1 000064   000011 772000                    QRL     9
         1 000065   000777 376007                    ANQ     511,DL
         1 000066   000012 402007                    MPY     10,DL
         1 000067   200010 036100                    ADLQ    STREAMNAME+2,,AUTO
         1 000070   000774 136007                    SBLQ    508,DL
PL6.E3A0      #002=FSN$CONV_STR File=FSN$OPNDEV.:E05TSI                          TUE 07/29/97 17:37 Page:247
         1 000071   200005 756100                    STQ     I,,AUTO

     1473      819    2                  10*ASCBIN(SUBSTR(STREAMNAME.DD,0,1)) +
     1474      820    2                  20 - 10*ASCBIN('0') - ASCBIN('0');
     1475      821    2             IF B$ROSEG$->B$ROSEG.STREAM_VALID(I)

    821  1 000072   000074 605000 1                  TPL     s:821+2
         1 000073   000044 036003                    ADLQ    36,DU
         1 000074   000000 066506                    CMPB    filb='0'B
         1 000075   000117 000001                    BDSC    79,Q,PR0                 by=0,bit=0,n=1
         1 000076   000002 000022 xsym               BDSC    B_VECTNIL+2              by=0,bit=0,n=18
         1 000077   000104 601000 1                  TNZ     s:829

     1476      822    2             THEN EXIT;
     1477      823    2             B$JIT.ERR = UNDEFSTREAM;

    823  1 000100   000001 236000 0                  LDQ     UNDEFSTREAM
         1 000101   000000 471400 xsym               LDP1    B$JIT$
         1 000102   100012 756100                    STQ     10,,PR1

     1478      824                  /*E* ERROR: FSN-E$UNDEFSTREAM
     1479      825                       MESSAGE: The specified stream has not been defined.
     1480      826                        */
     1481      827    2             ALTRETURN;

    827  1 000103   000000 702200 xent               TSX2  ! X66_AALT

     1482      828    2           END;
     1483      829    1        STREAM = I;

    829  1 000104   200004 471500                    LDP1    @STREAM,,AUTO
         1 000105   000100 101500                    MRL     fill='000'O
         1 000106   200005 000004                    ADSC9   I,,AUTO                  cn=0,n=4
         1 000107   100000 000001                    ADSC9   0,,PR1                   cn=0,n=1

     1484      830    1        RETURN;

PL6.E3A0      #002=FSN$CONV_STR File=FSN$OPNDEV.:E05TSI                          TUE 07/29/97 17:37 Page:248
    830  1 000110   000000 702200 xent               TSX2  ! X66_ARET

INVRES
 Sect OctLoc
   0     000   062316 001702                                                    2...

UNDEFSTREAM
 Sect OctLoc
   0     001   062316 014052                                                    2..*

(unnamed)
 Sect OctLoc
   0     002   040040 040040   125103 040040                                        UC
     1485      831
     1486      832    1   END FSN$CONV_STR;

PL6.E3A0      #002=FSN$CONV_STR File=FSN$OPNDEV.:E05TSI                          TUE 07/29/97 17:37 Page:249
--  Include file information  --

   F_MACROS_C.:E05TOU  is referenced.
   F_ERRORS_C.:E05TOU  is referenced.
   B$ROSEG.:E05TOU  cannot be made into a system file and is referenced.
   B$JIT_C.:E05TOU  is referenced.
   F$JIT_C.:E05TOU  cannot be made into a system file and is referenced.
      No diagnostics issued in procedure FSN$CONV_STR.
PL6.E3A0      #002=FSN$CONV_STR File=FSN$OPNDEV.:E05TSI                          TUE 07/29/97 17:37 Page:250

 **** Variables and constants ****

  ****  Section 000 RoData FSN$CONV_STR

  ****  Scalars and arrays  ****
OctLoc.c.b A Datatyp(siz) R M Lvl/name                 OctLoc.c.b A Datatyp(siz) R M Lvl/name

     0-0-0/b STRC        r     1 INVRES                     1-0-0/b STRC        r     1 UNDEFSTREAM

  ****  Auto variables  ****

  ****  Scalars and arrays  ****
OctLoc.c.b A Datatyp(siz) R M Lvl/name                 OctLoc.c.b A Datatyp(siz) R M Lvl/name

     4-0-0/w PTR         r     1 @STREAM                    3-0-0/w PTR         r     1 @STREAMPARM
     5-0-0/w SBIN        r     1 I                         *0-0-0/c UBIN(9)     r     1 STREAM
     6-0-0/c STRC        r     1 STREAMNAME                 6-0-0/c CHAR(4)     r     1 STREAMNAME_C
    *0-0-0/c CHAR(4)     r     1 STREAMPARM

  ****  SYMREF variables  ****

  ****  Scalars and arrays  ****
OctLoc.c.b A Datatyp(siz) R M Lvl/name                 OctLoc.c.b A Datatyp(siz) R M Lvl/name

     0-0-0/w PTR         r     1 B$JIT$                     0-0-0/w PTR         r     1 B$ROSEG$

  ****  BASED and DCB variables  ****

  ****  Scalars and arrays  ****
OctLoc.c.b A Datatyp(siz) R M Lvl/name                 OctLoc.c.b A Datatyp(siz) R M Lvl/name

     0-0-0/d STRC(8856)  r     1 B$JIT                      0-0-0/d STRC(3024)  r     1 B$ROSEG


   Procedure FSN$CONV_STR requires 73 words for executable code.
   Procedure FSN$CONV_STR requires 10 words of local(AUTO) storage.
PL6.E3A0      #002=FSN$CONV_STR File=FSN$OPNDEV.:E05TSI                          TUE 07/29/97 17:37 Page:251

    No errors detected in file FSN$OPNDEV.:E05TSI    .
PL6.E3A0      #002=FSN$CONV_STR File=FSN$OPNDEV.:E05TSI                          TUE 07/29/97 17:37 Page:252
          *** CROSS REFERENCE LISTING ***
**     DENOTES     IDENTIFIER DEFINITION
<<                 IDENTIFIER'S VALUE SET
>>                 IDENTIFIER'S VALUE USED
<>                 IDENTIFIER SET AND/OR USED
--                 IDENTIFIER REFERENCED
PL6.E3A0      #002=FSN$CONV_STR File=FSN$OPNDEV.:E05TSI                          TUE 07/29/97 17:37 Page:253
          MINI XREF LISTING

B$JIT.ERR
       344**DCL       804<<ASSIGN    823<<ASSIGN
B$JIT.ERR.MID
       345**DCL       345--REDEF
B$JIT$
       764**DCL       339--IMP-PTR   804>>ASSIGN    823>>ASSIGN
B$ROSEG.LDEVNAME
       468**DCL       808>>IF
B$ROSEG.STREAM_VALID
       490**DCL       821>>IF
B$ROSEG$
       763**DCL       808>>IF        821>>IF
I
       775**DCL       807<<DOINDEX   808>>IF        811>>IF        818<<ASSIGN    821>>IF        829>>ASSIGN
INVRES
       785**DCL       804>>ASSIGN
INVRESERR
       798**LABEL     817--GOTO
STREAM
       772**DCL         6--PROC      797<<ASSIGN    829<<ASSIGN
STREAMNAME
       776**DCL       780--REDEF
STREAMNAME.DD
       779**DCL       813>>IF        813>>IF        813>>IF        813>>IF        818>>ASSIGN    818>>ASSIGN
STREAMNAME.NN
       777**DCL       778--REDEF     801>>IF
STREAMNAME.NNB
       778**DCL       800<<ASSIGN    800>>ASSIGN
STREAMNAME_C
       780**DCL       794<<ASSIGN    795>>IF        808>>IF
STREAMPARM
       771**DCL         6--PROC      794>>ASSIGN
PL6.E3A0      #002=FSN$CONV_STR File=FSN$OPNDEV.:E05TSI                          TUE 07/29/97 17:37 Page:254
UNDEFSTREAM
       789**DCL       823>>ASSIGN
