VERSION E05

PL6.E3A0      #001=FSX$ENDJOB File=FSX$ENDJOB.:E05TSI                            TUE 07/29/97 17:39 Page:1
        1        1        /*M* FSX$ENDJOB  Ships output symbiont files to OUTSYM. */
        2        2        /*T***********************************************************/
        3        3        /*T*                                                         */
        4        4        /*T* Copyright (c) Bull HN Information Systems Inc., 1997    */
        5        5        /*T*                                                         */
        6        6        /*T***********************************************************/
        7        7        /*X* CLM=8,ICP,MOC,DMR */
        8        8        /*P*     NAME:    FSX$ENDJOB
        9        9         *       PURPOSE: Clean up open streams when a user logs off.
       10       10         *                Output symbiont files are sent to OUTSYM; any
       11       11         *                leftover input symbiont is released.
       12       12         */
       13       13        FSX$ENDJOB:PROC;
       14       14        /*** ENTRY REFERENCES ***/
       15       15    1   DCL FSX$TELLOUTSYM ENTRY(3);
       16       16    1   DCL FMN$OPNF ENTRY(1); /*Open a file                         */
       17       17    1   DCL FSA$GSP ENTRY(2)ALTRET; /*Get ROSEG space*/
       18       18    1   DCL FSA$FDCB ENTRY(1); /* Free a DCB's ROSEG space */
       19       19        /*** DATA REFERENCES ***/
       20       20    1   DCL B$ROSEG$ PTR SYMREF;
       21       21    1   DCL B$JIT$ PTR SYMREF; /*Note: B$JIT is BASED(B$JIT$).*/
       22       22    1   DCL S_STREAMFILEID CHAR(3)ALIGNED SYMREF;
       23       23        /*** INCLUDES, MACROS, BASED, ETC. ***/
       24       24        %MACRO B$ROSEG(BASED=BASED);
       25       25        %INCLUDE B$ROSEG;
       26       88        %MEND;
       27       89        %B$ROSEG(BASED="BASED(B$ROSEG$)");
       28      149        %INCLUDE F$JIT_C;
       29      579        %INCLUDE CP_6;
       30     6138        %MACRO F$DCBI(BASED=BASED);
       31     6139        %INCLUDE F$DCB;
       32     6188        %MEND;
       33     6189        %F$DCBI(BASED="BASED(SDCB$)");
       34     6239        %INCLUDE F_DCB_D;
       35     6327        %M$MDCB(DCBN=DDNNDCB,STCLASS=CONSTANT,ASN=FILE,
       36     6328                NAME='XXXXXXYYYYYY000',ACCT=':SYMO',FUN=UPDATE);
       37     6402        %FPT_OPEN(FPTN=OPENDELETE,PFMT=PTR,VECTOR=ADDR,DELETE=YES,STCLASS=CONSTANT);
PL6.E3A0      #001=FSX$ENDJOB File=FSX$ENDJOB.:E05TSI                            TUE 07/29/97 17:39 Page:2
       38     6511        %INCLUDE FS$FIT;
       39     6554        %FS_OSFN(FPTN=OSFN,STCLASS=BASED);
       40     6568        %INCLUDE CP_6_SUBS;
       41     7108        /*** AUTOMATIC STORAGE ***/
       42     7109    1   DCL I SBIN;
       43     7110    1   DCL J SBIN;
       44     7111    1   DCL SDCB$ PTR;
       45     7112    2           DO I=0 TO 15;
       46     7113    3              IF B$ROSEG.STREAMID.FLG(I)=1 THEN DO;
       47     7114    4                 IF B$ROSEG.STREAMID.F01(I) THEN DO;
       48     7115    4   SHIPIT:          ;
       49     7116    4                    J=B$ROSEG.STREAMID.IDENT(I)*1000+
       50     7117    4                      B$ROSEG.STREAMID.SUBNAME(I);
       51     7118    4                    CALL FSX$TELLOUTSYM(,J);
       52     7119    4                    END;
       53     7120    4                 ELSE DO;
       54     7121    4                    CALL FSA$GSP(SIZEW(DDNNDCB)+2,SDCB$)ALTRET(SHIPIT);
       55     7122    4                    F$DCB.DCBNAME.L=0;
       56     7123    4                    F$DCB=DDNNDCB;
       57     7124    4                    F$DCB.DCBNAME.L=4;
       58     7125    4                    F$DCB.DCBNAME.N=B$ROSEG.LDEVNAME(I);
       59     7126    4                    F$DCB.IASN=%FILE#;
       60     7127    4                    F$DCB.NAME.L=LENGTHC(OSFN)-1;
       61     7128    4                    ADDR(F$DCB.NAME)->OSFN.BOOTID=S_STREAMFILEID;
       62     7129    4                    J=B$JIT.SYSID;
       63     7130    4                    CALL BINCHAR(ADDR(F$DCB.NAME)->OSFN.SYSID,J);
       64     7131    4                    J=B$ROSEG.STREAMID.IDENT(I);
       65     7132    4                    CALL BINCHAR(ADDR(F$DCB.NAME)->OSFN.NUM,J);
       66     7133    4                    J=B$ROSEG.STREAMID.SUBNAME(I);
       67     7134    4                    CALL BINCHAR(ADDR(F$DCB.NAME)->OSFN.CNUM,J);
       68     7135    4                    B$JIT.DCB$=SDCB$;
       69     7136    4                    F$DCB.WSR=1;
       70     7137    4                    CALL FMN$OPNF(OPENDELETE);
       71     7138    4                    CALL FSA$FDCB(B$JIT.DCB$);
       72     7139    4                    END;
       73     7140    3                 B$ROSEG.STREAMID(I)='0'B;
       74     7141    3                 END;
PL6.E3A0      #001=FSX$ENDJOB File=FSX$ENDJOB.:E05TSI                            TUE 07/29/97 17:39 Page:3
       75     7142    2              END;
       76     7143    1           RETURN;
       77     7144    1   END FSX$ENDJOB;
       78     7145        %EOD;

PL6.E3A0      #001=FSX$ENDJOB File=FSX$ENDJOB.:E05TSI                            TUE 07/29/97 17:39 Page:4
--  Include file information  --

   CP_6_SUBS.:E05TOU  is referenced.
   FS$FIT.:E05TOU  is referenced.
   F_DCB_D.:E05TOU  is referenced.
   F$DCB.:E05TOU  is referenced.
   CP_6_C.:E05TOU  is referenced.
   CP_6.:E05TOU  cannot be made into a system file and is referenced.
   B$JIT_C.:E05TOU  is referenced.
   F$JIT_C.:E05TOU  cannot be made into a system file and is referenced.
   B$ROSEG.:E05TOU  is referenced.
      No diagnostics issued in procedure FSX$ENDJOB.

   Procedure FSX$ENDJOB requires 116 words for executable code.
   Procedure FSX$ENDJOB requires 8 words of local(AUTO) storage.

PL6.E3A0      #001=FSX$ENDJOB File=FSX$ENDJOB.:E05TSI                            TUE 07/29/97 17:39 Page:5

 Object Unit name= FSX$ENDJOB                                 File name= FSX$ENDJOB.:E05TOU
 UTS= JUL 29 '97 17:39:18.12 TUE                              Compiler= PL-6/E31         Sev=      00
 SharedLib= :SHARED_SYSTEM                                    Alt SharedLib=


    ****  Control sections  ****

 Sect   Type Bound  Init  Size OctSiz  Section name(segment info)
    0   DCB   even  none     0      0  M$UC
    1  RoData even  UTS    136    210  FSX$ENDJOB
    2   Proc  even  none   116    164  FSX$ENDJOB
    3  RoData even  none     4      4  FSX$ENDJOB

    ****  Entry defs  ****

                              Check   Calling
                             calling  sequence
  Sect OctLoc Primary Altret sequence   type   Parms  Name
     2      0   yes            yes      Std        0  FSX$ENDJOB

  ****  Entry refs  ****

         Check        Calling
        calling       sequence
Altret sequence SRef   type   Args  Name
         yes           Std       3 FSX$TELLOUTSYM
 yes     yes           Std       2 FSA$GSP
         yes           Std       1 FMN$OPNF
         yes           Std       1 FSA$FDCB
                       nStd      0 X66_AUTO_0
                       Std       0 B_CONSPOOL_D
                       nStd      0 X66_ARET
PL6.E3A0      #001=FSX$ENDJOB File=FSX$ENDJOB.:E05TSI                            TUE 07/29/97 17:39 Page:6

  ****  Data refs  ****

  Flags:  r = read only, s = secondary
Flgs Name                             Flgs Name                             Flgs Name
     B$ROSEG$                              B$JIT$                                S_STREAMFILEID
     M$UC                                  B_VECTNIL

  ****  Segment refs  ****

  Flags:  r = read only, s = secondary
Flgs Name                             Flgs Name                             Flgs Name
     NULLSID                               ISSID
PL6.E3A0      #001=FSX$ENDJOB File=FSX$ENDJOB.:E05TSI                            TUE 07/29/97 17:39 Page:7


        1        1        /*M* FSX$ENDJOB  Ships output symbiont files to OUTSYM. */
        2        2        /*T***********************************************************/
        3        3        /*T*                                                         */
        4        4        /*T* Copyright (c) Bull HN Information Systems Inc., 1997    */
        5        5        /*T*                                                         */
        6        6        /*T***********************************************************/
        7        7        /*X* CLM=8,ICP,MOC,DMR */
        8        8        /*P*     NAME:    FSX$ENDJOB
        9        9         *       PURPOSE: Clean up open streams when a user logs off.
       10       10         *                Output symbiont files are sent to OUTSYM; any
       11       11         *                leftover input symbiont is released.
       12       12         */
       13       13        FSX$ENDJOB:PROC;

     13  2 000000   000000 700200 xent  FSX$ENDJOB   TSX0  ! X66_AUTO_0
         2 000001   000010 000000                    ZERO    8,0

       14       14        /*** ENTRY REFERENCES ***/
       15       15    1   DCL FSX$TELLOUTSYM ENTRY(3);
       16       16    1   DCL FMN$OPNF ENTRY(1); /*Open a file                         */
       17       17    1   DCL FSA$GSP ENTRY(2)ALTRET; /*Get ROSEG space*/
       18       18    1   DCL FSA$FDCB ENTRY(1); /* Free a DCB's ROSEG space */
       19       19        /*** DATA REFERENCES ***/
       20       20    1   DCL B$ROSEG$ PTR SYMREF;
       21       21    1   DCL B$JIT$ PTR SYMREF; /*Note: B$JIT is BASED(B$JIT$).*/
       22       22    1   DCL S_STREAMFILEID CHAR(3)ALIGNED SYMREF;
       23       23        /*** INCLUDES, MACROS, BASED, ETC. ***/
       24       24        %MACRO B$ROSEG(BASED=BASED);
       25       25        %INCLUDE B$ROSEG;
       26       88        %MEND;
       27       89        %B$ROSEG(BASED="BASED(B$ROSEG$)");
       28      149        %INCLUDE F$JIT_C;
       29      579        %INCLUDE CP_6;
       30     6138        %MACRO F$DCBI(BASED=BASED);
       31     6139        %INCLUDE F$DCB;
       32     6188        %MEND;
PL6.E3A0      #001=FSX$ENDJOB File=FSX$ENDJOB.:E05TSI                            TUE 07/29/97 17:39 Page:8
       33     6189        %F$DCBI(BASED="BASED(SDCB$)");
       34     6239        %INCLUDE F_DCB_D;
       35     6327        %M$MDCB(DCBN=DDNNDCB,STCLASS=CONSTANT,ASN=FILE,
       36     6328                NAME='XXXXXXYYYYYY000',ACCT=':SYMO',FUN=UPDATE);
       37     6402        %FPT_OPEN(FPTN=OPENDELETE,PFMT=PTR,VECTOR=ADDR,DELETE=YES,STCLASS=CONSTANT);
       38     6511        %INCLUDE FS$FIT;
       39     6554        %FS_OSFN(FPTN=OSFN,STCLASS=BASED);
       40     6568        %INCLUDE CP_6_SUBS;
       41     7108        /*** AUTOMATIC STORAGE ***/
       42     7109    1   DCL I SBIN;
       43     7110    1   DCL J SBIN;
       44     7111    1   DCL SDCB$ PTR;
       45     7112    2           DO I=0 TO 15;

   7112  2 000002   200003 450100                    STZ     I,,AUTO

       46     7113    3              IF B$ROSEG.STREAMID.FLG(I)=1 THEN DO;

   7113  2 000003   000000 470400 xsym               LDP0    B$ROSEG$
         2 000004   200003 720100                    LXL0    I,,AUTO
         2 000005   000074 236110                    LDQ     60,X0,PR0
         2 000006   600000 376003                    ANQ     -65536,DU
         2 000007   200000 116003                    CMPQ    65536,DU
         2 000010   000157 601000 2                  TNZ     s:7142

       47     7114    4                 IF B$ROSEG.STREAMID.F01(I) THEN DO;

   7114  2 000011   000074 236110                    LDQ     60,X0,PR0
         2 000012   100000 316003                    CANQ    32768,DU
         2 000013   000040 600000 2                  TZE     s:7121

       48     7115    4   SHIPIT:          ;

   7115  2 000014                       SHIPIT       null
       49     7116    4                    J=B$ROSEG.STREAMID.IDENT(I)*1000+

   7116  2 000014   000000 470400 xsym               LDP0    B$ROSEG$
PL6.E3A0      #001=FSX$ENDJOB File=FSX$ENDJOB.:E05TSI                            TUE 07/29/97 17:39 Page:9
         2 000015   200003 720100                    LXL0    I,,AUTO
         2 000016   000074 236110                    LDQ     60,X0,PR0
         2 000017   000030 772000                    QRL     24
         2 000020   000777 376007                    ANQ     511,DL
         2 000021   200006 756100                    STQ     SDCB$+1,,AUTO
         2 000022   000074 236110                    LDQ     60,X0,PR0
         2 000023   777777 376007                    ANQ     -1,DL
         2 000024   001750 402007                    MPY     1000,DL
         2 000025   200006 036100                    ADLQ    SDCB$+1,,AUTO
         2 000026   200004 756100                    STQ     J,,AUTO

       50     7117    4                      B$ROSEG.STREAMID.SUBNAME(I);
       51     7118    4                    CALL FSX$TELLOUTSYM(,J);

   7118  2 000027   200004 631500                    EPPR1   J,,AUTO
         2 000030   200007 451500                    STP1    SDCB$+2,,AUTO
         2 000031   000001 236000 xsym               LDQ     B_VECTNIL+1
         2 000032   200006 756100                    STQ     SDCB$+1,,AUTO
         2 000033   200006 630500                    EPPR0   SDCB$+1,,AUTO
         2 000034   000020 631400 xsym               EPPR1   B_VECTNIL+16
         2 000035   000000 701000 xent               TSX1    FSX$TELLOUTSYM
         2 000036   000000 011000                    NOP     0

       52     7119    4                    END;

   7119  2 000037   000154 710000 2                  TRA     s:7140

       53     7120    4                 ELSE DO;

       54     7121    4                    CALL FSA$GSP(SIZEW(DDNNDCB)+2,SDCB$)ALTRET(SHIPIT);

   7121  2 000040   200005 631500                    EPPR1   SDCB$,,AUTO
         2 000041   200007 451500                    STP1    SDCB$+2,,AUTO
         2 000042   000001 236000 3                  LDQ     1
         2 000043   200006 756100                    STQ     SDCB$+1,,AUTO
         2 000044   200006 630500                    EPPR0   SDCB$+1,,AUTO
         2 000045   000020 631400 xsym               EPPR1   B_VECTNIL+16
PL6.E3A0      #001=FSX$ENDJOB File=FSX$ENDJOB.:E05TSI                            TUE 07/29/97 17:39 Page:10
         2 000046   000000 701000 xent               TSX1    FSA$GSP
         2 000047   000014 702000 2                  TSX2    SHIPIT

       55     7122    4                    F$DCB.DCBNAME.L=0;

   7122  2 000050   200005 470500                    LDP0    SDCB$,,AUTO
         2 000051   000002 236000 3                  LDQ     2
         2 000052   000140 356100                    ANSQ    96,,PR0

       56     7123    4                    F$DCB=DDNNDCB;

   7123  2 000053   000140 236100                    LDQ     96,,PR0
         2 000054   000033 772000                    QRL     27
         2 000055   000037 376007                    ANQ     31,DL
         2 000056   000601 620006                    EAX0    385,QL
         2 000057   000140 100400                    MLR     fill='000'O
         2 000060   000000 000600 1                  ADSC9   DDNNDCB                  cn=0,n=384
         2 000061   000000 000010                    ADSC9   0,,PR0                   cn=0,n=*X0

       57     7124    4                    F$DCB.DCBNAME.L=4;

   7124  2 000062   200005 470500                    LDP0    SDCB$,,AUTO
         2 000063   000140 236100                    LDQ     96,,PR0
         2 000064   000002 376000 3                  ANQ     2
         2 000065   004000 276003                    ORQ     2048,DU
         2 000066   000140 756100                    STQ     96,,PR0

       58     7125    4                    F$DCB.DCBNAME.N=B$ROSEG.LDEVNAME(I);

   7125  2 000067   000140 236100                    LDQ     96,,PR0
         2 000070   000033 772000                    QRL     27
         2 000071   000037 376007                    ANQ     31,DL
         2 000072   200003 235100                    LDA     I,,AUTO
         2 000073   000002 735000                    ALS     2
         2 000074   000000 471400 xsym               LDP1    B$ROSEG$
         2 000075   000000 620006                    EAX0    0,QL
         2 000076   040140 100505                    MLR     fill='040'O
PL6.E3A0      #001=FSX$ENDJOB File=FSX$ENDJOB.:E05TSI                            TUE 07/29/97 17:39 Page:11
         2 000077   100054 000004                    ADSC9   44,A,PR1                 cn=0,n=4
         2 000100   000140 200010                    ADSC9   96,,PR0                  cn=1,n=*X0

       59     7126    4                    F$DCB.IASN=%FILE#;

   7126  2 000101   000001 236007                    LDQ     1,DL
         2 000102   000103 552104                    STBQ    67,'04'O,PR0

       60     7127    4                    F$DCB.NAME.L=LENGTHC(OSFN)-1;

   7127  2 000103   022000 236003                    LDQ     9216,DU
         2 000104   000010 552140                    STBQ    8,'40'O,PR0

       61     7128    4                    ADDR(F$DCB.NAME)->OSFN.BOOTID=S_STREAMFILEID;

   7128  2 000105   000000 236000 xsym               LDQ     S_STREAMFILEID
         2 000106   000011 772000                    QRL     9
         2 000107   000010 552134                    STBQ    8,'34'O,PR0

       62     7129    4                    J=B$JIT.SYSID;

   7129  2 000110   000000 473400 xsym               LDP3    B$JIT$
         2 000111   300000 236100                    LDQ     0,,PR3
         2 000112   777777 376007                    ANQ     -1,DL
         2 000113   200004 756100                    STQ     J,,AUTO

       63     7130    4                    CALL BINCHAR(ADDR(F$DCB.NAME)->OSFN.SYSID,J);

   7130  2 000114   000100 301500                    BTD
         2 000115   200004 000004                    NDSC9   J,,AUTO                  cn=0,s=lsgnf,sf=0,n=4
         2 000116   000011 030006                    NDSC9   9,,PR0                   cn=0,s=nosgn,sf=0,n=6

       64     7131    4                    J=B$ROSEG.STREAMID.IDENT(I);

   7131  2 000117   200003 721100                    LXL1    I,,AUTO
         2 000120   100074 236111                    LDQ     60,X1,PR1
         2 000121   777777 376007                    ANQ     -1,DL
PL6.E3A0      #001=FSX$ENDJOB File=FSX$ENDJOB.:E05TSI                            TUE 07/29/97 17:39 Page:12
         2 000122   200004 756100                    STQ     J,,AUTO

       65     7132    4                    CALL BINCHAR(ADDR(F$DCB.NAME)->OSFN.NUM,J);

   7132  2 000123   000100 301500                    BTD
         2 000124   200004 000004                    NDSC9   J,,AUTO                  cn=0,s=lsgnf,sf=0,n=4
         2 000125   000012 430006                    NDSC9   10,,PR0                  cn=2,s=nosgn,sf=0,n=6

       66     7133    4                    J=B$ROSEG.STREAMID.SUBNAME(I);

   7133  2 000126   100074 236111                    LDQ     60,X1,PR1
         2 000127   000030 772000                    QRL     24
         2 000130   000777 376007                    ANQ     511,DL
         2 000131   200004 756100                    STQ     J,,AUTO

       67     7134    4                    CALL BINCHAR(ADDR(F$DCB.NAME)->OSFN.CNUM,J);

   7134  2 000132   000100 301500                    BTD
         2 000133   200004 000004                    NDSC9   J,,AUTO                  cn=0,s=lsgnf,sf=0,n=4
         2 000134   000014 030003                    NDSC9   12,,PR0                  cn=0,s=nosgn,sf=0,n=3

       68     7135    4                    B$JIT.DCB$=SDCB$;

   7135  2 000135   200005 236100                    LDQ     SDCB$,,AUTO
         2 000136   300232 756100                    STQ     154,,PR3

       69     7136    4                    F$DCB.WSR=1;

   7136  2 000137   000001 236003                    LDQ     1,DU
         2 000140   000040 552120                    STBQ    32,'20'O,PR0

       70     7137    4                    CALL FMN$OPNF(OPENDELETE);

   7137  2 000141   000003 630400 3                  EPPR0   3
         2 000142   000017 631400 xsym               EPPR1   B_VECTNIL+15
         2 000143   000000 701000 xent               TSX1    FMN$OPNF
         2 000144   000000 011000                    NOP     0
PL6.E3A0      #001=FSX$ENDJOB File=FSX$ENDJOB.:E05TSI                            TUE 07/29/97 17:39 Page:13

       71     7138    4                    CALL FSA$FDCB(B$JIT.DCB$);

   7138  2 000145   000000 236000 xsym               LDQ     B$JIT$
         2 000146   000232 036003                    ADLQ    154,DU
         2 000147   200006 756100                    STQ     SDCB$+1,,AUTO
         2 000150   200006 630500                    EPPR0   SDCB$+1,,AUTO
         2 000151   000017 631400 xsym               EPPR1   B_VECTNIL+15
         2 000152   000000 701000 xent               TSX1    FSA$FDCB
         2 000153   000000 011000                    NOP     0

       72     7139    4                    END;

       73     7140    3                 B$ROSEG.STREAMID(I)='0'B;

   7140  2 000154   000000 470400 xsym               LDP0    B$ROSEG$
         2 000155   200003 720100                    LXL0    I,,AUTO
         2 000156   000074 450110                    STZ     60,X0,PR0

       74     7141    3                 END;

       75     7142    2              END;

   7142  2 000157   200003 054100                    AOS     I,,AUTO
         2 000160   200003 235100                    LDA     I,,AUTO
         2 000161   000017 115007                    CMPA    15,DL
         2 000162   000003 604400 2                  TMOZ    s:7113

       76     7143    1           RETURN;

   7143  2 000163   000000 702200 xent               TSX2  ! X66_ARET

DDNNDCB
 Sect OctLoc
   1     000   000000 000000   000000 000000   000000 000000   000000 000501    ................
   1     004   000000 000000   000000 000000   000000 006014   000000 006014    ................
   1     010   017130 130130   130130 130131   131131 131131   131060 060060    .XXXXXXYYYYYY000
PL6.E3A0      #001=FSX$ENDJOB File=FSX$ENDJOB.:E05TSI                            TUE 07/29/97 17:39 Page:14
   1     014   040040 040040   040040 040040   040040 040040   040040 040040
   1     020   072123 131115   117040 040040   040040 040040   040040 040040    :SYMO
   1     024   040040 040040   040040 040040   115105 040040   040040 040040            ME
   1     030   040040 040040   000000 203015   000001 001000   000000 000000        ............
   1     034   000000 000000   000000 000000   000000 000000   000002 776003    ................
   1     040   001000 000000   000000 000002   000000 000000   000000 000000    ................
   1     044   000000 000111   040040 040040   000000 006014   000000 006014    ...I    ........
   1     050   000000 006014   000000 000000   000000 000000   000000 006014    ................
   1     054   000000 000000   000000 000000   000000 000000   000000 000000    ................
   1     060   000000 010000   000000 000000   000000 000000   000000 000000    ................
   1     064   000000 000020   000000 000000   000000 006014   000000 000000    ................
   1     070   000000 000000   000000 000000   000000 000000   000000 000000    ................
   1     074   000000 000000   000000 006014   000000 000000   000000 000000    ................
   1     100   000000 000000   000000 000000   000000 000000   000000 000000    ................
   1     104   ****** ******   ****** ******   000000 000000   ****** ******    ................
   1     110   000000 000000   000000 000000   000000 000000   000000 000000    ................
   1     124*  000000 000000   000000 000000   000000 000000   ****** ******    ................
   1     134*  ****** ******   ****** ******   ****** ******   000000 070707    ..............8.

OPENDELETE
 Sect OctLoc
   1     140   000162 006000   000000 006014   000000 006014   000000 006014    .r..............
   1     144   000000 006014   000000 006014   000000 006014   000000 006014    ................
   1     160*  000000 006014   000000 006014   000000 040042   000000 000000    .......... "....
   1     164   252525 000000   000040 252520   000040 040040   000000 000000    ..... ...   ....
   1     170   000000 777777   000000 000000   000000 000000   000000 000000    ................
   1     174   000000 000000   000000 000000   251000 622000   000000 000000    ................
   1     200   000000 000000   111250 000000   040040 040040   000000 000000    ....I...    ....
   1     204   000000 000000   000000 000000   000000 000000   ****** ******    ................

(unnamed)
 Sect OctLoc
   3     000   000000 000142   000000 006000   740777 777777   000140 006000    ...b.........`..
       77     7144    1   END FSX$ENDJOB;
       78     7145        %EOD;

PL6.E3A0      #001=FSX$ENDJOB File=FSX$ENDJOB.:E05TSI                            TUE 07/29/97 17:39 Page:15
--  Include file information  --

   CP_6_SUBS.:E05TOU  is referenced.
   FS$FIT.:E05TOU  is referenced.
   F_DCB_D.:E05TOU  is referenced.
   F$DCB.:E05TOU  is referenced.
   CP_6_C.:E05TOU  is referenced.
   CP_6.:E05TOU  cannot be made into a system file and is referenced.
   B$JIT_C.:E05TOU  is referenced.
   F$JIT_C.:E05TOU  cannot be made into a system file and is referenced.
   B$ROSEG.:E05TOU  is referenced.
      No diagnostics issued in procedure FSX$ENDJOB.
PL6.E3A0      #001=FSX$ENDJOB File=FSX$ENDJOB.:E05TSI                            TUE 07/29/97 17:39 Page:16

 **** Variables and constants ****

  ****  Section 001 RoData FSX$ENDJOB

  ****  Scalars and arrays  ****
OctLoc.c.b A Datatyp(siz) R M Lvl/name                 OctLoc.c.b A Datatyp(siz) R M Lvl/name

     0-0-0/w STRC(3456)  r     1 DDNNDCB                  140-0-0/d STRC(1440)  r     1 OPENDELETE

  ****  Auto variables  ****

  ****  Scalars and arrays  ****
OctLoc.c.b A Datatyp(siz) R M Lvl/name                 OctLoc.c.b A Datatyp(siz) R M Lvl/name

     3-0-0/w SBIN        r     1 I                          4-0-0/w SBIN        r     1 J
     5-0-0/w PTR         r     1 SDCB$

  ****  SYMREF variables  ****

  ****  Scalars and arrays  ****
OctLoc.c.b A Datatyp(siz) R M Lvl/name                 OctLoc.c.b A Datatyp(siz) R M Lvl/name

     0-0-0/w PTR         r     1 B$JIT$                     0-0-0/w PTR         r     1 B$ROSEG$
     0-0-0/w CHAR(3)     r     1 S_STREAMFILEID

  ****  BASED and DCB variables  ****

  ****  Scalars and arrays  ****
OctLoc.c.b A Datatyp(siz) R M Lvl/name                 OctLoc.c.b A Datatyp(siz) R M Lvl/name

     0-0-0/d STRC(8856)  r     1 B$JIT                      0-0-0/d STRC(3024)  r     1 B$ROSEG
     0-0-0/d ASTR(3528)  r     1 F$DCB                      0-0-0/w STRC(171)   r     1 OSFN


   Procedure FSX$ENDJOB requires 116 words for executable code.
   Procedure FSX$ENDJOB requires 8 words of local(AUTO) storage.
PL6.E3A0      #001=FSX$ENDJOB File=FSX$ENDJOB.:E05TSI                            TUE 07/29/97 17:39 Page:17
          *** CROSS REFERENCE LISTING ***
**     DENOTES     IDENTIFIER DEFINITION
<<                 IDENTIFIER'S VALUE SET
>>                 IDENTIFIER'S VALUE USED
<>                 IDENTIFIER SET AND/OR USED
--                 IDENTIFIER REFERENCED
PL6.E3A0      #001=FSX$ENDJOB File=FSX$ENDJOB.:E05TSI                            TUE 07/29/97 17:39 Page:18
          MINI XREF LISTING

B$JIT.DCB$
       566**DCL      7135<<ASSIGN   7138<>CALL
B$JIT.ERR.MID
       477**DCL       477--REDEF
B$JIT.SYSID
       476**DCL      7129>>ASSIGN
B$JIT$
        21**DCL       471--IMP-PTR  7129>>ASSIGN   7135>>ASSIGN   7138>>CALL
B$ROSEG.LDEVNAME
       109**DCL      7125>>ASSIGN
B$ROSEG.STREAMID
       110**DCL      7140<<ASSIGN
B$ROSEG.STREAMID.F01
       113**DCL      7114>>IF
B$ROSEG.STREAMID.FLG
       111**DCL      7113>>IF
B$ROSEG.STREAMID.IDENT
       118**DCL      7116>>ASSIGN   7131>>ASSIGN
B$ROSEG.STREAMID.SUBNAME
       114**DCL      7116>>ASSIGN   7133>>ASSIGN
B$ROSEG$
        20**DCL        98--IMP-PTR   134--IMP-PTR   136--IMP-PTR  7113>>IF       7114>>IF       7116>>ASSIGN
      7116>>ASSIGN   7125>>ASSIGN   7131>>ASSIGN   7133>>ASSIGN   7140>>ASSIGN
DDNNDCB
      6329**DCL      7121--CALL     7123>>ASSIGN
DDNNDCB.ACTPOS
      6370**DCL      6370--REDEF
DDNNDCB.ARS#
      6329**DCL      6329--REDEF
DDNNDCB.ATTR#
      6359**DCL      6359--REDEF    6361--REDEF
DDNNDCB.BORROW
PL6.E3A0      #001=FSX$ENDJOB File=FSX$ENDJOB.:E05TSI                            TUE 07/29/97 17:39 Page:19
      6381**DCL      6381--REDEF    6381--REDEF    6381--REDEF
DDNNDCB.EOMCHAR#
      6336**DCL      6337--REDEF
DDNNDCB.FLDID
      6373**DCL      6374--REDEF
DDNNDCB.FORM$
      6365**DCL      6365--REDEF
DDNNDCB.FSECT
      6388**DCL      6388--REDEF
DDNNDCB.FSN#
      6355**DCL      6355--REDEF    6355--REDEF    6356--REDEF
DDNNDCB.HEADER$
      6364**DCL      6365--REDEF
DDNNDCB.IXTNSIZE#
      6361**DCL      6362--REDEF
DDNNDCB.LASTSTA$
      6345**DCL      6345--REDEF
DDNNDCB.LVL
      6382**DCL      6382--REDEF
DDNNDCB.NAME#.C
      6345**DCL      6346--REDEF
DDNNDCB.NOEOF
      6377**DCL      6377--REDEF
DDNNDCB.NRECS#
      6362**DCL      6362--REDEF
DDNNDCB.NRECX
      6389**DCL      6389--REDEF
DDNNDCB.OHDR
      6378**DCL      6378--REDEF
DDNNDCB.ORG#
      6353**DCL      6354--REDEF
DDNNDCB.PRECNO
      6386**DCL      6386--REDEF
DDNNDCB.RCSZ
      6394**DCL      6394--REDEF
DDNNDCB.RES#
PL6.E3A0      #001=FSX$ENDJOB File=FSX$ENDJOB.:E05TSI                            TUE 07/29/97 17:39 Page:20
      6347**DCL      6347--REDEF
DDNNDCB.SETX
      6366**DCL      6366--REDEF
DDNNDCB.TAB$
      6365**DCL      6365--REDEF
DDNNDCB.TDA
      6385**DCL      6386--REDEF
DDNNDCB.WSN#
      6347**DCL      6348--REDEF
F$DCB
      6190**DCL      7123<<ASSIGN
F$DCB.ACTPOS
      6215**DCL      6215--REDEF
F$DCB.ARS
      6190**DCL      6190--REDEF
F$DCB.ATTR
      6208**DCL      6209--REDEF
F$DCB.BORROW
      6223**DCL      6223--REDEF    6223--REDEF    6223--REDEF
F$DCB.DCBNAME.L
      6237**DCL      6237--IMP-SIZ  7122<<ASSIGN   7123>>ASSIGN   7124<<ASSIGN   7125>>ASSIGN
F$DCB.DCBNAME.N
      6237**DCL      7125<<ASSIGN
F$DCB.EOMCHAR
      6194**DCL      6194--REDEF
F$DCB.FLDID
      6218**DCL      6218--REDEF
F$DCB.FORM$
      6212**DCL      6212--REDEF
F$DCB.FSECT
      6228**DCL      6228--REDEF
F$DCB.FSN
      6205**DCL      6205--REDEF    6205--REDEF    6206--REDEF
F$DCB.HEADER$
      6211**DCL      6211--REDEF
F$DCB.IASN
PL6.E3A0      #001=FSX$ENDJOB File=FSX$ENDJOB.:E05TSI                            TUE 07/29/97 17:39 Page:21
      6231**DCL      7126<<ASSIGN
F$DCB.IXTNSIZE
      6209**DCL      6209--REDEF
F$DCB.LASTSTA$
      6199**DCL      6199--REDEF
F$DCB.LVL
      6224**DCL      6224--REDEF
F$DCB.NAME
      6199**DCL      7128--ASSIGN   7130--CALLBLT  7132--CALLBLT  7134--CALLBLT
F$DCB.NAME.C
      6199**DCL      6199--REDEF
F$DCB.NAME.L
      6199**DCL      7127<<ASSIGN
F$DCB.NOEOF
      6220**DCL      6220--REDEF
F$DCB.NRECS
      6210**DCL      6210--REDEF
F$DCB.NRECX
      6229**DCL      6229--REDEF
F$DCB.OHDR
      6221**DCL      6221--REDEF
F$DCB.ORG
      6204**DCL      6204--REDEF
F$DCB.PRECNO
      6227**DCL      6227--REDEF
F$DCB.RCSZ
      6232**DCL      6232--REDEF
F$DCB.RES
      6200**DCL      6200--REDEF
F$DCB.SETX
      6212**DCL      6212--REDEF
F$DCB.TAB$
      6211**DCL      6212--REDEF
F$DCB.TDA
      6226**DCL      6226--REDEF
F$DCB.WSN
PL6.E3A0      #001=FSX$ENDJOB File=FSX$ENDJOB.:E05TSI                            TUE 07/29/97 17:39 Page:22
      6201**DCL      6201--REDEF
F$DCB.WSR
      6207**DCL      7136<<ASSIGN
FMN$OPNF
        16**DCL-ENT  7137--CALL
FSA$FDCB
        18**DCL-ENT  7138--CALL
FSA$GSP
        17**DCL-ENT  7121--CALL
FSX$TELLOUTSYM
        15**DCL-ENT  7118--CALL
I
      7109**DCL      7112<<DOINDEX  7113>>IF       7114>>IF       7116>>ASSIGN   7116>>ASSIGN   7125>>ASSIGN
      7131>>ASSIGN   7133>>ASSIGN   7140>>ASSIGN
J
      7110**DCL      7116<<ASSIGN   7118<>CALL     7129<<ASSIGN   7130>>CALLBLT  7131<<ASSIGN   7132>>CALLBLT
      7133<<ASSIGN   7134>>CALLBLT
OPENDELETE
      6467**DCL      7137<>CALL
OPENDELETE.ACSVEH_
      6469**DCL      6470--REDEF
OPENDELETE.ALTKEYS_
      6475**DCL      6476--REDEF    6476--REDEF
OPENDELETE.HDR_
      6474**DCL      6475--REDEF
OPENDELETE.TAB_
      6473**DCL      6474--REDEF
OPENDELETE.UHL_
      6467**DCL      6468--REDEF    6468--REDEF
OPENDELETE.V
      6476**DCL      6467--DCLINIT
OPENDELETE.V.FSN#
      6507**DCL      6507--REDEF    6507--REDEF
OPENDELETE.WSN_
      6473**DCL      6473--REDEF
OSFN
PL6.E3A0      #001=FSX$ENDJOB File=FSX$ENDJOB.:E05TSI                            TUE 07/29/97 17:39 Page:23
      6565**DCL      7127--ASSIGN
OSFN.BOOTID
      6565**DCL      7128<<ASSIGN
OSFN.CNUM
      6566**DCL      7134<<CALLBLT
OSFN.NUM
      6566**DCL      7132<<CALLBLT
OSFN.SYSID
      6565**DCL      7130<<CALLBLT
SDCB$
      7111**DCL      6190--IMP-PTR  7121<>CALL     7122>>ASSIGN   7123>>ASSIGN   7123>>ASSIGN   7124>>ASSIGN
      7125>>ASSIGN   7125>>ASSIGN   7126>>ASSIGN   7127>>ASSIGN   7128>>ASSIGN   7130>>CALLBLT  7132>>CALLBLT
      7134>>CALLBLT  7135>>ASSIGN   7136>>ASSIGN
SHIPIT
      7115**LABEL    7121--CALLALT
S_STREAMFILEID
        22**DCL      7128>>ASSIGN

PL6.E3A0      #002=FSX$TELLOUTSYM File=FSX$ENDJOB.:E05TSI                        TUE 07/29/97 17:39 Page:24
       79        1        /*T***********************************************************/
       80        2        /*T*                                                         */
       81        3        /*T* Copyright (c) Bull HN Information Systems Inc., 1997    */
       82        4        /*T*                                                         */
       83        5        /*T***********************************************************/
       84        6        /*F*    NAME: FSX$TELLOUTSYM
       85        7                PURPOSE: Tell OUTSYM, the output symbiont ghost, about a
       86        8                   symbiont file that needs to be sent to an output device.
       87        9                DESCRIPTION: FSX$TELLOUTSYM is passed the user-local unique
       88       10                   symbiont file identifier; it passes this with the user's
       89       11                   Sysid to OUTSYM.
       90       12                      The symbiont file thus denoted has an 11-character
       91       13                   name.  First 6 characters are Sysid; last 5 are unique
       92       14                   identifier.  The file is in the output symbiont account
       93       15                   :SYMO. */
       94       16        FSX$TELLOUTSYM: PROC(F$DCB,J,DELFLG);
       95       17        %MACRO F$DCBI(BASED=BASED);
       96       18        %INCLUDE F$DCB;
       97       67        %MEND;
       98       68        %F$DCBI(BASED=);
       99      118    1   DCL J SBIN;
      100      119    1   DCL DELFLG SBIN;
      101      120        /*** ENTRY REFERENCES ***/
      102      121    1   DCL KUW$WRITE ENTRY(3) ALTRET; /* Report event to Outsym. */
      103      122        /*** DATA REFERENCES ***/
      104      123    1   DCL B$JIT$ PTR SYMREF; /* Note B$JIT is BASED(B$JIT$).*/
      105      124    1   DCL J_OUTSYM CHAR(8) SYMREF READONLY;
      106      125        /*** INCLUDES, BASED, ETC. ***/
      107      126        %INCLUDE F$JIT_C;
      108      556        %INCLUDE FOO_MAC_C;
      109     1304        %INCLUDE JG_EVID_C;
      110     1529        %INCLUDE B_STRINGS_C;
      111     1658        %INCLUDE FS$FIT;
      112     1701        %FS_OSFN(FPTN=OSFN,STCLASS=BASED);
      113     1715        /*** AUTOMATIC STORAGE ***/
      114     1716    1   DCL I UBIN;
      115     1717        %FO_CITE (FPTN=FO$CITE,TYP=JOB,STCLASS=AUTO);
PL6.E3A0      #002=FSX$TELLOUTSYM File=FSX$ENDJOB.:E05TSI                        TUE 07/29/97 17:39 Page:25
      116     1776        %EJECT;
PL6.E3A0      #002=FSX$TELLOUTSYM File=FSX$ENDJOB.:E05TSI                        TUE 07/29/97 17:39 Page:26
      117     1777    1           FO$CITE='0'B;
      118     1778    1           IF ADDR(DELFLG)=ADDR(NIL) THEN
      119     1779    1              FO$CITE.CODE=FOEV_NEWF#;
      120     1780    1           ELSE
      121     1781    1              FO$CITE.CODE=FOEV_CDEL#;
      122     1782    2           IF ADDR(J)=ADDR(NIL) THEN DO;
      123     1783    2              CALL CHARBIN(I,ADDR(F$DCB.NAME)->OSFN.SYSID);
      124     1784    2              FO$CITE.SYSID=I;
      125     1785    2              CALL CHARBIN(I,ADDR(F$DCB.NAME)->OSFN.NUM);
      126     1786    2              FO$CITE.NUM=I;
      127     1787    2              CALL CHARBIN(I,ADDR(F$DCB.NAME)->OSFN.CNUM);
      128     1788    2              FO$CITE.CNUM=I;
      129     1789    2              END;
      130     1790    2           ELSE DO;
      131     1791    2              FO$CITE.SYSID=B$JIT.SYSID;
      132     1792    2              FO$CITE.NUM=J/1000;
      133     1793    2              FO$CITE.CNUM=MOD(J,1000);
      134     1794    2              END;
      135     1795    1           CALL KUW$WRITE (FO$CITE,LENGTHC(FO$CITE),J_OUTSYM);
      136     1796    1           RETURN;
      137     1797    1   END FSX$TELLOUTSYM;

PL6.E3A0      #002=FSX$TELLOUTSYM File=FSX$ENDJOB.:E05TSI                        TUE 07/29/97 17:39 Page:27
--  Include file information  --

   FS$FIT.:E05TOU  is referenced.
   B_STRINGS_C.:E05TOU  is referenced.
   JG_EVID_C.:E05TOU  is referenced.
   FOO_MAC_C.:E05TOU  is referenced.
   B$JIT_C.:E05TOU  is referenced.
   F$JIT_C.:E05TOU  cannot be made into a system file and is referenced.
   F$DCB.:E05TOU  is referenced.
      No diagnostics issued in procedure FSX$TELLOUTSYM.

   Procedure FSX$TELLOUTSYM requires 62 words for executable code.
   Procedure FSX$TELLOUTSYM requires 14 words of local(AUTO) storage.

    No errors detected in file FSX$ENDJOB.:E05TSI    .

PL6.E3A0      #002=FSX$TELLOUTSYM File=FSX$ENDJOB.:E05TSI                        TUE 07/29/97 17:39 Page:28

 Object Unit name= FSX$TELLOUTSYM                             File name= FSX$ENDJOB.:E05TOU
 UTS= JUL 29 '97 17:39:37.28 TUE                              Compiler= PL-6/E31         Sev=      00
 SharedLib= :SHARED_SYSTEM                                    Alt SharedLib=


    ****  Control sections  ****

 Sect   Type Bound  Init  Size OctSiz  Section name(segment info)
    0   Proc  even  none    62     76  FSX$TELLOUTSYM
    1  RoData even  none     2      2  FSX$TELLOUTSYM

    ****  Entry defs  ****

                              Check   Calling
                             calling  sequence
  Sect OctLoc Primary Altret sequence   type   Parms  Name
     0      0   yes            yes      Std        3  FSX$TELLOUTSYM

  ****  Entry refs  ****

         Check        Calling
        calling       sequence
Altret sequence SRef   type   Args  Name
 yes     yes           Std       3 KUW$WRITE
                       nStd      0 X66_AUTO_3
                       Std       0 B_CONSPOOL_D
                       nStd      0 X66_ARET

  ****  Data refs  ****

  Flags:  r = read only, s = secondary
Flgs Name                             Flgs Name                             Flgs Name
     B$JIT$                           r    J_OUTSYM                              B_VECTNIL
PL6.E3A0      #002=FSX$TELLOUTSYM File=FSX$ENDJOB.:E05TSI                        TUE 07/29/97 17:39 Page:29

  ****  Segment refs  ****

  Flags:  r = read only, s = secondary
Flgs Name                             Flgs Name                             Flgs Name
     ISSID
PL6.E3A0      #002=FSX$TELLOUTSYM File=FSX$ENDJOB.:E05TSI                        TUE 07/29/97 17:39 Page:30


       79        1        /*T***********************************************************/
       80        2        /*T*                                                         */
       81        3        /*T* Copyright (c) Bull HN Information Systems Inc., 1997    */
       82        4        /*T*                                                         */
       83        5        /*T***********************************************************/
       84        6        /*F*    NAME: FSX$TELLOUTSYM
       85        7                PURPOSE: Tell OUTSYM, the output symbiont ghost, about a
       86        8                   symbiont file that needs to be sent to an output device.
       87        9                DESCRIPTION: FSX$TELLOUTSYM is passed the user-local unique
       88       10                   symbiont file identifier; it passes this with the user's
       89       11                   Sysid to OUTSYM.
       90       12                      The symbiont file thus denoted has an 11-character
       91       13                   name.  First 6 characters are Sysid; last 5 are unique
       92       14                   identifier.  The file is in the output symbiont account
       93       15                   :SYMO. */
       94       16        FSX$TELLOUTSYM: PROC(F$DCB,J,DELFLG);

     16  0 000000   000000 700200 xent  FSX$TELLOUT* TSX0  ! X66_AUTO_3
         0 000001   000016 000003                    ZERO    14,3

       95       17        %MACRO F$DCBI(BASED=BASED);
       96       18        %INCLUDE F$DCB;
       97       67        %MEND;
       98       68        %F$DCBI(BASED=);
       99      118    1   DCL J SBIN;
      100      119    1   DCL DELFLG SBIN;
      101      120        /*** ENTRY REFERENCES ***/
      102      121    1   DCL KUW$WRITE ENTRY(3) ALTRET; /* Report event to Outsym. */
      103      122        /*** DATA REFERENCES ***/
      104      123    1   DCL B$JIT$ PTR SYMREF; /* Note B$JIT is BASED(B$JIT$).*/
      105      124    1   DCL J_OUTSYM CHAR(8) SYMREF READONLY;
      106      125        /*** INCLUDES, BASED, ETC. ***/
      107      126        %INCLUDE F$JIT_C;
      108      556        %INCLUDE FOO_MAC_C;
      109     1304        %INCLUDE JG_EVID_C;
      110     1529        %INCLUDE B_STRINGS_C;
PL6.E3A0      #002=FSX$TELLOUTSYM File=FSX$ENDJOB.:E05TSI                        TUE 07/29/97 17:39 Page:31
      111     1658        %INCLUDE FS$FIT;
      112     1701        %FS_OSFN(FPTN=OSFN,STCLASS=BASED);
      113     1715        /*** AUTOMATIC STORAGE ***/
      114     1716    1   DCL I UBIN;
      115     1717        %FO_CITE (FPTN=FO$CITE,TYP=JOB,STCLASS=AUTO);
      116     1776        %EJECT;
PL6.E3A0      #002=FSX$TELLOUTSYM File=FSX$ENDJOB.:E05TSI                        TUE 07/29/97 17:39 Page:32
      117     1777    1           FO$CITE='0'B;

   1777  0 000002   000100 100400                    MLR     fill='000'O
         0 000003   000002 000001 xsym               ADSC9   B_VECTNIL+2              cn=0,n=1
         0 000004   200007 000012                    ADSC9   FO$CITE,,AUTO            cn=0,n=10

      118     1778    1           IF ADDR(DELFLG)=ADDR(NIL) THEN

   1778  0 000005   200005 236100                    LDQ     @DELFLG,,AUTO
         0 000006   000001 116000 xsym               CMPQ    B_VECTNIL+1
         0 000007   000013 601000 0                  TNZ     s:1781

      119     1779    1              FO$CITE.CODE=FOEV_NEWF#;

   1779  0 000010   000002 220003                    LDX0    2,DU
         0 000011   200007 740100                    STX0    FO$CITE,,AUTO
         0 000012   000015 710000 0                  TRA     s:1782

      120     1780    1           ELSE
      121     1781    1              FO$CITE.CODE=FOEV_CDEL#;

   1781  0 000013   000014 220003                    LDX0    12,DU
         0 000014   200007 740100                    STX0    FO$CITE,,AUTO

      122     1782    2           IF ADDR(J)=ADDR(NIL) THEN DO;

   1782  0 000015   200004 236100                    LDQ     @J,,AUTO
         0 000016   000001 116000 xsym               CMPQ    B_VECTNIL+1
         0 000017   000047 601000 0                  TNZ     s:1791

      123     1783    2              CALL CHARBIN(I,ADDR(F$DCB.NAME)->OSFN.SYSID);

   1783  0 000020   200003 470500                    LDP0    @F$DCB,,AUTO
         0 000021   000100 305500                    DTB
         0 000022   000011 030006                    NDSC9   9,,PR0                   cn=0,s=nosgn,sf=0,n=6
         0 000023   200012 000010                    NDSC9   FO$CITE+3,,AUTO          cn=0,s=lsgnf,sf=0,n=8
         0 000024   200013 235100                    LDA     FO$CITE+4,,AUTO
PL6.E3A0      #002=FSX$TELLOUTSYM File=FSX$ENDJOB.:E05TSI                        TUE 07/29/97 17:39 Page:33
         0 000025   200006 755100                    STA     I,,AUTO

      124     1784    2              FO$CITE.SYSID=I;

   1784  0 000026   000000 621005                    EAX1    0,AL
         0 000027   200007 441100                    SXL1    FO$CITE,,AUTO

      125     1785    2              CALL CHARBIN(I,ADDR(F$DCB.NAME)->OSFN.NUM);

   1785  0 000030   000100 305500                    DTB
         0 000031   000012 430006                    NDSC9   10,,PR0                  cn=2,s=nosgn,sf=0,n=6
         0 000032   200012 000010                    NDSC9   FO$CITE+3,,AUTO          cn=0,s=lsgnf,sf=0,n=8
         0 000033   200013 235100                    LDA     FO$CITE+4,,AUTO
         0 000034   200006 755100                    STA     I,,AUTO

      126     1786    2              FO$CITE.NUM=I;

   1786  0 000035   000000 622005                    EAX2    0,AL
         0 000036   200010 442100                    SXL2    FO$CITE+1,,AUTO

      127     1787    2              CALL CHARBIN(I,ADDR(F$DCB.NAME)->OSFN.CNUM);

   1787  0 000037   000100 305500                    DTB
         0 000040   000014 030003                    NDSC9   12,,PR0                  cn=0,s=nosgn,sf=0,n=3
         0 000041   200012 000010                    NDSC9   FO$CITE+3,,AUTO          cn=0,s=lsgnf,sf=0,n=8
         0 000042   200013 235100                    LDA     FO$CITE+4,,AUTO
         0 000043   200006 755100                    STA     I,,AUTO

      128     1788    2              FO$CITE.CNUM=I;

   1788  0 000044   000000 623005                    EAX3    0,AL
         0 000045   200011 743100                    STX3    FO$CITE+2,,AUTO

      129     1789    2              END;

   1789  0 000046   000063 710000 0                  TRA     s:1795

PL6.E3A0      #002=FSX$TELLOUTSYM File=FSX$ENDJOB.:E05TSI                        TUE 07/29/97 17:39 Page:34
      130     1790    2           ELSE DO;

      131     1791    2              FO$CITE.SYSID=B$JIT.SYSID;

   1791  0 000047   000000 470400 xsym               LDP0    B$JIT$
         0 000050   000000 721100                    LXL1    0,,PR0
         0 000051   200007 441100                    SXL1    FO$CITE,,AUTO

      132     1792    2              FO$CITE.NUM=J/1000;

   1792  0 000052   200004 471500                    LDP1    @J,,AUTO
         0 000053   100000 236100                    LDQ     0,,PR1
         0 000054   001750 506007                    DIV     1000,DL
         0 000055   000000 622006                    EAX2    0,QL
         0 000056   200010 442100                    SXL2    FO$CITE+1,,AUTO

      133     1793    2              FO$CITE.CNUM=MOD(J,1000);

   1793  0 000057   100000 236100                    LDQ     0,,PR1
         0 000060   001750 506007                    DIV     1000,DL
         0 000061   000000 623005                    EAX3    0,AL
         0 000062   200011 743100                    STX3    FO$CITE+2,,AUTO

      134     1794    2              END;

      135     1795    1           CALL KUW$WRITE (FO$CITE,LENGTHC(FO$CITE),J_OUTSYM);

   1795  0 000063   000000 236000 1                  LDQ     0
         0 000064   200014 756100                    STQ     FO$CITE+5,,AUTO
         0 000065   000001 236000 1                  LDQ     1
         0 000066   200013 756100                    STQ     FO$CITE+4,,AUTO
         0 000067   200007 630500                    EPPR0   FO$CITE,,AUTO
         0 000070   200012 450500                    STP0    FO$CITE+3,,AUTO
         0 000071   200012 630500                    EPPR0   FO$CITE+3,,AUTO
         0 000072   000021 631400 xsym               EPPR1   B_VECTNIL+17
         0 000073   000000 701000 xent               TSX1    KUW$WRITE
         0 000074   000000 011000                    NOP     0
PL6.E3A0      #002=FSX$TELLOUTSYM File=FSX$ENDJOB.:E05TSI                        TUE 07/29/97 17:39 Page:35

      136     1796    1           RETURN;

   1796  0 000075   000000 702200 xent               TSX2  ! X66_ARET

(unnamed)
 Sect OctLoc
   1     000   000000 006000   000014 006000                                    ........
      137     1797    1   END FSX$TELLOUTSYM;

PL6.E3A0      #002=FSX$TELLOUTSYM File=FSX$ENDJOB.:E05TSI                        TUE 07/29/97 17:39 Page:36
--  Include file information  --

   FS$FIT.:E05TOU  is referenced.
   B_STRINGS_C.:E05TOU  is referenced.
   JG_EVID_C.:E05TOU  is referenced.
   FOO_MAC_C.:E05TOU  is referenced.
   B$JIT_C.:E05TOU  is referenced.
   F$JIT_C.:E05TOU  cannot be made into a system file and is referenced.
   F$DCB.:E05TOU  is referenced.
      No diagnostics issued in procedure FSX$TELLOUTSYM.
PL6.E3A0      #002=FSX$TELLOUTSYM File=FSX$ENDJOB.:E05TSI                        TUE 07/29/97 17:39 Page:37

 **** Variables and constants ****

  ****  Auto variables  ****

  ****  Scalars and arrays  ****
OctLoc.c.b A Datatyp(siz) R M Lvl/name                 OctLoc.c.b A Datatyp(siz) R M Lvl/name

     5-0-0/w PTR         r     1 @DELFLG                    3-0-0/w PTR         r     1 @F$DCB
     4-0-0/w PTR         r     1 @J                        *0-0-0/w SBIN        r     1 DELFLG
    *0-0-0/d ASTR(3528)  r     1 F$DCB                      7-0-0/w STRC(90)    r     1 FO$CITE
     6-0-0/w UBIN        r     1 I                         *0-0-0/w SBIN        r     1 J

  ****  SYMREF variables  ****

  ****  Scalars and arrays  ****
OctLoc.c.b A Datatyp(siz) R M Lvl/name                 OctLoc.c.b A Datatyp(siz) R M Lvl/name

     0-0-0/w PTR         r     1 B$JIT$                     0-0-0/c CHAR(8)     r     1 J_OUTSYM

  ****  BASED and DCB variables  ****

  ****  Scalars and arrays  ****
OctLoc.c.b A Datatyp(siz) R M Lvl/name                 OctLoc.c.b A Datatyp(siz) R M Lvl/name

     0-0-0/d STRC(8856)  r     1 B$JIT                      0-0-0/w STRC(171)   r     1 OSFN


   Procedure FSX$TELLOUTSYM requires 62 words for executable code.
   Procedure FSX$TELLOUTSYM requires 14 words of local(AUTO) storage.

    No errors detected in file FSX$ENDJOB.:E05TSI    .
PL6.E3A0      #002=FSX$TELLOUTSYM File=FSX$ENDJOB.:E05TSI                        TUE 07/29/97 17:39 Page:38
          *** CROSS REFERENCE LISTING ***
**     DENOTES     IDENTIFIER DEFINITION
<<                 IDENTIFIER'S VALUE SET
>>                 IDENTIFIER'S VALUE USED
<>                 IDENTIFIER SET AND/OR USED
--                 IDENTIFIER REFERENCED
PL6.E3A0      #002=FSX$TELLOUTSYM File=FSX$ENDJOB.:E05TSI                        TUE 07/29/97 17:39 Page:39
          MINI XREF LISTING

B$JIT.ERR.MID
       454**DCL       454--REDEF
B$JIT.SYSID
       453**DCL      1791>>ASSIGN
B$JIT$
       123**DCL       448--IMP-PTR  1791>>ASSIGN
DELFLG
       119**DCL        16--PROC     1778--IF
F$DCB
        69**DCL        16--PROC
F$DCB.ACTPOS
        94**DCL        94--REDEF
F$DCB.ARS
        69**DCL        69--REDEF
F$DCB.ATTR
        87**DCL        88--REDEF
F$DCB.BORROW
       102**DCL       102--REDEF     102--REDEF     102--REDEF
F$DCB.DCBNAME.L
       116**DCL       116--IMP-SIZ
F$DCB.EOMCHAR
        73**DCL        73--REDEF
F$DCB.FLDID
        97**DCL        97--REDEF
F$DCB.FORM$
        91**DCL        91--REDEF
F$DCB.FSECT
       107**DCL       107--REDEF
F$DCB.FSN
        84**DCL        84--REDEF      84--REDEF      85--REDEF
F$DCB.HEADER$
        90**DCL        90--REDEF
PL6.E3A0      #002=FSX$TELLOUTSYM File=FSX$ENDJOB.:E05TSI                        TUE 07/29/97 17:39 Page:40
F$DCB.IXTNSIZE
        88**DCL        88--REDEF
F$DCB.LASTSTA$
        78**DCL        78--REDEF
F$DCB.LVL
       103**DCL       103--REDEF
F$DCB.NAME
        78**DCL      1783--CALLBLT  1785--CALLBLT  1787--CALLBLT
F$DCB.NAME.C
        78**DCL        78--REDEF
F$DCB.NOEOF
        99**DCL        99--REDEF
F$DCB.NRECS
        89**DCL        89--REDEF
F$DCB.NRECX
       108**DCL       108--REDEF
F$DCB.OHDR
       100**DCL       100--REDEF
F$DCB.ORG
        83**DCL        83--REDEF
F$DCB.PRECNO
       106**DCL       106--REDEF
F$DCB.RCSZ
       111**DCL       111--REDEF
F$DCB.RES
        79**DCL        79--REDEF
F$DCB.SETX
        91**DCL        91--REDEF
F$DCB.TAB$
        90**DCL        91--REDEF
F$DCB.TDA
       105**DCL       105--REDEF
F$DCB.WSN
        80**DCL        80--REDEF
FO$CITE
      1731**DCL      1777<<ASSIGN   1795<>CALL     1795--CALL
PL6.E3A0      #002=FSX$TELLOUTSYM File=FSX$ENDJOB.:E05TSI                        TUE 07/29/97 17:39 Page:41
FO$CITE.BATCH
      1741**DCL      1744--REDEF    1748--REDEF
FO$CITE.CNUM
      1756**DCL      1788<<ASSIGN   1793<<ASSIGN
FO$CITE.CODE
      1735**DCL      1779<<ASSIGN   1781<<ASSIGN
FO$CITE.NUM
      1750**DCL      1753--REDEF    1786<<ASSIGN   1792<<ASSIGN
FO$CITE.SYSID
      1739**DCL      1784<<ASSIGN   1791<<ASSIGN
I
      1716**DCL      1783<<CALLBLT  1784>>ASSIGN   1785<<CALLBLT  1786>>ASSIGN   1787<<CALLBLT  1788>>ASSIGN
J
       118**DCL        16--PROC     1782--IF       1792>>ASSIGN   1793>>ASSIGN
J_OUTSYM
       124**DCL      1795<>CALL
KUW$WRITE
       121**DCL-ENT  1795--CALL
OSFN.CNUM
      1713**DCL      1787>>CALLBLT
OSFN.NUM
      1713**DCL      1785>>CALLBLT
OSFN.SYSID
      1712**DCL      1783>>CALLBLT
