PL6.E3A0      #001=FTW$WRAT File=FTW$WRAT.:E05TSI                                TUE 07/29/97 18:02 Page:518
     3687     7488        /*********************************************************************/
     3688     7489    1   FTW_SETSIZE: PROC;

   7489  1 012315   200064 741300       FTW_SETSIZE  STX1  ! DATA_INCON,,AUTO

     3689     7490        /*F*    NAME: FTW_SETSIZE
     3690     7491                PURPOSE: Set RCW of current FPOOL buffer record with specified values.
     3691     7492         ***/
     3692     7493
     3693     7494        /********************/
     3694     7495
     3695     7496         /***
     3696     7497          *** Determine which type of RCW (decimal or binary) is required
     3697     7498          *** and set it.
     3698     7499          ***/
     3699     7500
     3700     7501    3              DO CASE(RCWTYPE);

   7501  1 012316   200037 235100                    LDA     RCWTYPE,,AUTO
         1 012317   000003 115007                    CMPA    3,DL
         1 012320   012322 602005 1                  TNC     s:7501+4,AL
         1 012321   012413 710000 1                  TRA     s:7520
         1 012322   012326 710000 1                  TRA     s:7505
         1 012323   012363 710000 1                  TRA     s:7512
         1 012324   012325 710000 1                  TRA     s:7503

     3701     7502    3                 CASE(RCWNONE#);

     3702     7503    3                    RETURN;

   7503  1 012325   000001 702211                    TSX2  ! 1,X1

     3703     7504    3                 CASE(RCWBIN#);

     3704     7505    3                    TEMP$ = PINCRC( AFPOOL$, F$DCB.CRECX ); /* Point to RCW      */

   7505  1 012326   200030 470500                    LDP0    JDCB$,,AUTO
PL6.E3A0      #001=FTW$WRAT File=FTW$WRAT.:E05TSI                                TUE 07/29/97 18:02 Page:519
         1 012327   000067 236100                    LDQ     55,,PR0
         1 012330   777777 376007                    ANQ     -1,DL
         1 012331   000020 736000                    QLS     16
         1 012332   200007 036100                    ADLQ    AFPOOL$,,AUTO
         1 012333   200050 756100                    STQ     TEMP$,,AUTO

     3705     7506    3                    TEMP$->FT$HDRE.LS = SEGSIZE + (SEGSIZE / 256) * 256;

   7506  1 012334   200041 236100                    LDQ     SEGSIZE,,AUTO
         1 012335   000400 506007                    DIV     256,DL
         1 012336   000010 736000                    QLS     8
         1 012337   200041 036100                    ADLQ    SEGSIZE,,AUTO
         1 012340   200112 756100                    STQ     @FIELD_LENGTH+2,,AUTO
         1 012341   200050 471500                    LDP1    TEMP$,,AUTO
         1 012342   000100 101500                    MRL     fill='000'O
         1 012343   200112 000004                    ADSC9   @FIELD_LENGTH+2,,AUTO    cn=0,n=4
         1 012344   100000 000002                    ADSC9   0,,PR1                   cn=0,n=2

     3706     7507    3                    TEMP$->FT$HDR.S1 = SPANINFO; /* Set spanning info            */

   7507  1 012345   000100 101500                    MRL     fill='000'O
         1 012346   200044 000004                    ADSC9   SPANINFO,,AUTO           cn=0,n=4
         1 012347   100000 400001                    ADSC9   0,,PR1                   cn=2,n=1

     3707     7508    3                    IF F$DCB.TAPTYP.CP6F

   7508  1 012350   000067 236100                    LDQ     55,,PR0
         1 012351   000200 316003                    CANQ    128,DU
         1 012352   012357 600000 1                  TZE     s:7510

     3708     7509    3                    THEN TEMP$->FT$HDR.S2 = DVBYTE;

   7509  1 012353   000100 100500                    MLR     fill='000'O
         1 012354   200021 000001                    ADSC9   DVBYTE,,AUTO             cn=0,n=1
         1 012355   100000 600001                    ADSC9   0,,PR1                   cn=3,n=1
         1 012356   012413 710000 1                  TRA     s:7520

PL6.E3A0      #001=FTW$WRAT File=FTW$WRAT.:E05TSI                                TUE 07/29/97 18:02 Page:520
     3709     7510    3                    ELSE TEMP$->FT$HDR.S2 = 0;

   7510  1 012357   000100 101400                    MRL     fill='000'O
         1 012360   000002 000004 xsym               ADSC9   B_VECTNIL+2              cn=0,n=4
         1 012361   100000 600001                    ADSC9   0,,PR1                   cn=3,n=1
         1 012362   012413 710000 1                  TRA     s:7520

     3710     7511    3                 CASE(RCWDEC#);

     3711     7512    3                    TEMP$ = PINCRC( AFPOOL$, F$DCB.CRECX ); /* Point to RCW      */

   7512  1 012363   200030 470500                    LDP0    JDCB$,,AUTO
         1 012364   000067 236100                    LDQ     55,,PR0
         1 012365   777777 376007                    ANQ     -1,DL
         1 012366   000020 736000                    QLS     16
         1 012367   200007 036100                    ADLQ    AFPOOL$,,AUTO
         1 012370   200050 756100                    STQ     TEMP$,,AUTO

     3712     7513    3                    IF F$DCB.SPANNED

   7513  1 012371   000031 236100                    LDQ     25,,PR0
         1 012372   000004 316007                    CANQ    4,DL
         1 012373   012407 600000 1                  TZE     s:7518

     3713     7514    4                    THEN DO;               /* Use S format RCW                   */

     3714     7515    4                       CALL BINCHAR( TEMP$->FT$ORGS.SIZE, SEGSIZE );

   7515  1 012374   200050 471500                    LDP1    TEMP$,,AUTO
         1 012375   000100 301500                    BTD
         1 012376   200041 000004                    NDSC9   SEGSIZE,,AUTO            cn=0,s=lsgnf,sf=0,n=4
         1 012377   100000 230004                    NDSC9   0,,PR1                   cn=1,s=nosgn,sf=0,n=4

     3715     7516    4                       TEMP$->FT$ORGS.SPAN = SPANINFO + ASCBIN('0');

   7516  1 012400   200044 236100                    LDQ     SPANINFO,,AUTO
         1 012401   000060 036007                    ADLQ    48,DL
PL6.E3A0      #001=FTW$WRAT File=FTW$WRAT.:E05TSI                                TUE 07/29/97 18:02 Page:521
         1 012402   200112 756100                    STQ     @FIELD_LENGTH+2,,AUTO
         1 012403   000100 101500                    MRL     fill='000'O
         1 012404   200112 000004                    ADSC9   @FIELD_LENGTH+2,,AUTO    cn=0,n=4
         1 012405   100000 000001                    ADSC9   0,,PR1                   cn=0,n=1

     3716     7517    4                       END;

   7517  1 012406   012413 710000 1                  TRA     s:7520

     3717     7518    3                    ELSE CALL BINCHAR( TEMP$->FT$ORGD.SIZE, SEGSIZE );

   7518  1 012407   200050 471500                    LDP1    TEMP$,,AUTO
         1 012410   000100 301500                    BTD
         1 012411   200041 000004                    NDSC9   SEGSIZE,,AUTO            cn=0,s=lsgnf,sf=0,n=4
         1 012412   100000 030004                    NDSC9   0,,PR1                   cn=0,s=nosgn,sf=0,n=4

     3718     7519    3                 END;

     3719     7520    2              RETURN;

   7520  1 012413   200064 221300                    LDX1  ! DATA_INCON,,AUTO
         1 012414   000001 702211                    TSX2  ! 1,X1

     3720     7521
     3721     7522    2      END FTW_SETSIZE;
     3722     7523        /*********************************************************************/
     3723     7524        %EJECT;
PL6.E3A0      #001=FTW$WRAT File=FTW$WRAT.:E05TSI                                TUE 07/29/97 18:02 Page:522
     3724     7525        /*********************************************************************/
     3725     7526    1   FTW_GETSIZE: PROC ALTRET;

   7526  1 012415   200104 741300       FTW_GETSIZE  STX1  ! @SIZE+9,,AUTO

     3726     7527        /*F*    NAME: FTW_GETSIZE
     3727     7528                PURPOSE: Get RCW of current FPOOL buffer record
     3728     7529                  and check it against block length.
     3729     7530         ***/
     3730     7531
     3731     7532        /********************/
     3732     7533
     3733     7534         /***
     3734     7535          *** Determine which type of RCW (decimal or binary) is required
     3735     7536          *** and get it.
     3736     7537          ***/
     3737     7538
     3738     7539    3              DO CASE(RCWTYPE);

   7539  1 012416   200037 235100                    LDA     RCWTYPE,,AUTO
         1 012417   000003 115007                    CMPA    3,DL
         1 012420   012422 602005 1                  TNC     s:7539+4,AL
         1 012421   012610 710000 1                  TRA     s:7578
         1 012422   012433 710000 1                  TRA     s:7544
         1 012423   012534 710000 1                  TRA     s:7561
         1 012424   012425 710000 1                  TRA     s:7541

     3739     7540    3                 CASE(RCWNONE#);

     3740     7541    3                    SEGSIZE = F$DCB.RECL;  /* Record length predetermined        */

   7541  1 012425   200030 470500                    LDP0    JDCB$,,AUTO
         1 012426   000033 236100                    LDQ     27,,PR0
         1 012427   777777 376007                    ANQ     -1,DL
         1 012430   200041 756100                    STQ     SEGSIZE,,AUTO

     3741     7542    3                    SPANINFO = 0;
PL6.E3A0      #001=FTW$WRAT File=FTW$WRAT.:E05TSI                                TUE 07/29/97 18:02 Page:523

   7542  1 012431   200044 450100                    STZ     SPANINFO,,AUTO
         1 012432   012610 710000 1                  TRA     s:7578

     3742     7543    3                 CASE(RCWBIN#);

     3743     7544    3                    TEMP$ = PINCRC( AFPOOL$, F$DCB.CRECX ); /* Point to RCW      */

   7544  1 012433   200030 470500                    LDP0    JDCB$,,AUTO
         1 012434   000067 236100                    LDQ     55,,PR0
         1 012435   777777 376007                    ANQ     -1,DL
         1 012436   000020 736000                    QLS     16
         1 012437   200007 036100                    ADLQ    AFPOOL$,,AUTO
         1 012440   200050 756100                    STQ     TEMP$,,AUTO

     3744     7545    3                    SEGSIZE = TEMP$->FT$HDRE.LS;

   7545  1 012441   200050 471500                    LDP1    TEMP$,,AUTO
         1 012442   000100 101500                    MRL     fill='000'O
         1 012443   100000 000002                    ADSC9   0,,PR1                   cn=0,n=2
         1 012444   200041 000004                    ADSC9   SEGSIZE,,AUTO            cn=0,n=4

     3745     7546    3                    SEGSIZE = SEGSIZE - (SEGSIZE / 511) * 256;
              7546                             /* Make 8 bit pieces into 16 bit value */

   7546  1 012445   200041 236100                    LDQ     SEGSIZE,,AUTO
         1 012446   000777 506007                    DIV     511,DL
         1 012447   000010 736000                    QLS     8
         1 012450   000027 676000 xsym               ERQ     B_VECTNIL+23
         1 012451   000001 036007                    ADLQ    1,DL
         1 012452   200041 036100                    ADLQ    SEGSIZE,,AUTO
         1 012453   200041 756100                    STQ     SEGSIZE,,AUTO

     3746     7547    3                    SPANINFO = TEMP$->FT$HDR.S1;

   7547  1 012454   000100 101500                    MRL     fill='000'O
         1 012455   100000 400001                    ADSC9   0,,PR1                   cn=2,n=1
PL6.E3A0      #001=FTW$WRAT File=FTW$WRAT.:E05TSI                                TUE 07/29/97 18:02 Page:524
         1 012456   200044 000004                    ADSC9   SPANINFO,,AUTO           cn=0,n=4

     3747     7548    4                    IF F$DCB.OLDIOERR = 1 THEN DO;
              7548                             /* Segment must fit in truncated block */

   7548  1 012457   000102 236100                    LDQ     66,,PR0
         1 012460   140000 376003                    ANQ     49152,DU
         1 012461   040000 116003                    CMPQ    16384,DU
         1 012462   012520 601000 1                  TNZ     s:7558

     3748     7549    5                       IF F$DCB.CRECX + RCWSIZE + SEGSIZE > F$DCB.BLKLEN THEN DO;

   7549  1 012463   000067 236100                    LDQ     55,,PR0
         1 012464   777777 376007                    ANQ     -1,DL
         1 012465   200036 036100                    ADLQ    RCWSIZE,,AUTO
         1 012466   200041 036100                    ADLQ    SEGSIZE,,AUTO
         1 012467   200112 756100                    STQ     @FIELD_LENGTH+2,,AUTO
         1 012470   000074 236100                    LDQ     60,,PR0
         1 012471   777777 376007                    ANQ     -1,DL
         1 012472   200112 116100                    CMPQ    @FIELD_LENGTH+2,,AUTO
         1 012473   012520 605000 1                  TPL     s:7558

     3749     7550    5                          F$DCB.TYC.DI(1) = '1'B; /* Tell user we lost data.     */

   7550  1 012474   000400 236003                    LDQ     256,DU
         1 012475   000002 256100                    ORSQ    2,,PR0

     3750     7551    5                          SEGSIZE = (F$DCB.BLKLEN - F$DCB.CRECX) - RCWSIZE;
              7551                                   /* Force it. */

   7551  1 012476   000067 236100                    LDQ     55,,PR0
         1 012477   777777 376007                    ANQ     -1,DL
         1 012500   200112 756100                    STQ     @FIELD_LENGTH+2,,AUTO
         1 012501   000074 236100                    LDQ     60,,PR0
         1 012502   777777 376007                    ANQ     -1,DL
         1 012503   200112 136100                    SBLQ    @FIELD_LENGTH+2,,AUTO
         1 012504   200036 136100                    SBLQ    RCWSIZE,,AUTO
PL6.E3A0      #001=FTW$WRAT File=FTW$WRAT.:E05TSI                                TUE 07/29/97 18:02 Page:525
         1 012505   200041 756100                    STQ     SEGSIZE,,AUTO

     3751     7552    5                          IF SPANINFO = 1 THEN /* Also force spanning to stop here. */

   7552  1 012506   200044 235100                    LDA     SPANINFO,,AUTO
         1 012507   000001 115007                    CMPA    1,DL
         1 012510   012513 601000 1                  TNZ     s:7554

     3752     7553    5                             SPANINFO = 0;

   7553  1 012511   200044 450100                    STZ     SPANINFO,,AUTO
         1 012512   012520 710000 1                  TRA     s:7558

     3753     7554    5                          ELSE IF SPANINFO = SPAN_MID THEN

   7554  1 012513   200044 236100                    LDQ     SPANINFO,,AUTO
         1 012514   200045 116100                    CMPQ    SPAN_MID,,AUTO
         1 012515   012520 601000 1                  TNZ     s:7558

     3754     7555    5                                SPANINFO = SPAN_LAST;

   7555  1 012516   200046 235100                    LDA     SPAN_LAST,,AUTO
         1 012517   200044 755100                    STA     SPANINFO,,AUTO

     3755     7556    5                          END;

     3756     7557    4                       END;

     3757     7558    3                    IF F$DCB.TAPTYP.CP6F THEN

   7558  1 012520   000067 236100                    LDQ     55,,PR0
         1 012521   000200 316003                    CANQ    128,DU
         1 012522   012610 600000 1                  TZE     s:7578

     3758     7559    3                       F$DCB.DVBYTE = BINBIT(TEMP$->FT$HDR.S2,9);

   7559  1 012523   000100 101500                    MRL     fill='000'O
PL6.E3A0      #001=FTW$WRAT File=FTW$WRAT.:E05TSI                                TUE 07/29/97 18:02 Page:526
         1 012524   100000 600001                    ADSC9   0,,PR1                   cn=3,n=1
         1 012525   200112 000004                    ADSC9   @FIELD_LENGTH+2,,AUTO    cn=0,n=4
         1 012526   200112 236100                    LDQ     @FIELD_LENGTH+2,,AUTO
         1 012527   000033 736000                    QLS     27
         1 012530   000003 676100                    ERQ     3,,PR0
         1 012531   776000 376003                    ANQ     -1024,DU
         1 012532   000003 656100                    ERSQ    3,,PR0
         1 012533   012610 710000 1                  TRA     s:7578

     3759     7560    3                 CASE(RCWDEC#);

     3760     7561    3                    TEMP$ = PINCRC( AFPOOL$, F$DCB.CRECX ); /* Point to RCW      */

   7561  1 012534   200030 470500                    LDP0    JDCB$,,AUTO
         1 012535   000067 236100                    LDQ     55,,PR0
         1 012536   777777 376007                    ANQ     -1,DL
         1 012537   000020 736000                    QLS     16
         1 012540   200007 036100                    ADLQ    AFPOOL$,,AUTO
         1 012541   200050 756100                    STQ     TEMP$,,AUTO

     3761     7562    3                    IF F$DCB.SPANNED

   7562  1 012542   000031 236100                    LDQ     25,,PR0
         1 012543   000004 316007                    CANQ    4,DL
         1 012544   012575 600000 1                  TZE     s:7572

     3762     7563    4                    THEN DO;

     3763     7564    4                       CALL FTW_CHKDEC( TEMP$->FT$ORGS.SIZE,

   7564  1 012545   000040 236000 2                  LDQ     32
         1 012546   200110 756100                    STQ     @FIELD_CHAR+1,,AUTO
         1 012547   200050 236100                    LDQ     TEMP$,,AUTO
         1 012550   200000 036007                    ADLQ    65536,DL
         1 012551   200107 756100                    STQ     @SIZE+12,,AUTO
         1 012552   012726 701000 1                  TSX1    FTW_CHKDEC
         1 012553   012612 702000 1                  TSX2    JUSTALT
PL6.E3A0      #001=FTW$WRAT File=FTW$WRAT.:E05TSI                                TUE 07/29/97 18:02 Page:527

     3764     7565    4                           LENGTHC(TEMP$->FT$ORGS.SIZE) ) ALTRET(JUSTALT);
     3765     7566    4                       CALL FTW_CHKDEC( TEMP$->FT$ORGS.SPAN,

   7566  1 012554   000007 236000 2                  LDQ     7
         1 012555   200110 756100                    STQ     @FIELD_CHAR+1,,AUTO
         1 012556   200050 236100                    LDQ     TEMP$,,AUTO
         1 012557   200107 756100                    STQ     @SIZE+12,,AUTO
         1 012560   012726 701000 1                  TSX1    FTW_CHKDEC
         1 012561   012612 702000 1                  TSX2    JUSTALT

     3766     7567    4                           LENGTHC(TEMP$->FT$ORGS.SPAN) ) ALTRET(JUSTALT);
     3767     7568    4                       CALL CHARBIN( SEGSIZE, TEMP$->FT$ORGS.SIZE );

   7568  1 012562   200050 470500                    LDP0    TEMP$,,AUTO
         1 012563   000100 305500                    DTB
         1 012564   000000 230004                    NDSC9   0,,PR0                   cn=1,s=nosgn,sf=0,n=4
         1 012565   200041 000004                    NDSC9   SEGSIZE,,AUTO            cn=0,s=lsgnf,sf=0,n=4

     3768     7569    4                       SPANINFO = TEMP$->FT$ORGS.SPAN - ASCBIN('0');

   7569  1 012566   000100 101500                    MRL     fill='000'O
         1 012567   000000 000001                    ADSC9   0,,PR0                   cn=0,n=1
         1 012570   200112 000004                    ADSC9   @FIELD_LENGTH+2,,AUTO    cn=0,n=4
         1 012571   200112 236100                    LDQ     @FIELD_LENGTH+2,,AUTO
         1 012572   000060 136007                    SBLQ    48,DL
         1 012573   200044 756100                    STQ     SPANINFO,,AUTO

     3769     7570    4                       END;

   7570  1 012574   012610 710000 1                  TRA     s:7578

     3770     7571    4                    ELSE DO;               /* All records whole                  */

     3771     7572    4                       CALL FTW_CHKDEC( TEMP$->FT$ORGD.SIZE,

   7572  1 012575   000040 236000 2                  LDQ     32
PL6.E3A0      #001=FTW$WRAT File=FTW$WRAT.:E05TSI                                TUE 07/29/97 18:02 Page:528
         1 012576   200110 756100                    STQ     @FIELD_CHAR+1,,AUTO
         1 012577   200050 236100                    LDQ     TEMP$,,AUTO
         1 012600   200107 756100                    STQ     @SIZE+12,,AUTO
         1 012601   012726 701000 1                  TSX1    FTW_CHKDEC
         1 012602   012612 702000 1                  TSX2    JUSTALT

     3772     7573    4                           LENGTHC(TEMP$->FT$ORGD.SIZE) ) ALTRET(JUSTALT);
     3773     7574    4                       CALL CHARBIN( SEGSIZE, TEMP$->FT$ORGD.SIZE );

   7574  1 012603   200050 470500                    LDP0    TEMP$,,AUTO
         1 012604   000100 305500                    DTB
         1 012605   000000 030004                    NDSC9   0,,PR0                   cn=0,s=nosgn,sf=0,n=4
         1 012606   200041 000004                    NDSC9   SEGSIZE,,AUTO            cn=0,s=lsgnf,sf=0,n=4

     3774     7575    4                       SPANINFO = 0;

   7575  1 012607   200044 450100                    STZ     SPANINFO,,AUTO

     3775     7576    4                       END;

     3776     7577    3                 END;

     3777     7578    2              RETURN;

   7578  1 012610   200104 221300                    LDX1  ! @SIZE+9,,AUTO
         1 012611   000001 702211                    TSX2  ! 1,X1

   7571  1 012612                       JUSTALT      null
     3778     7579
     3779     7580    2   JUSTALT:   ;
     3780     7581    2              ALTRETURN;

   7581  1 012612   200104 221300                    LDX1  ! @SIZE+9,,AUTO
         1 012613   000000 702211                    TSX2  ! 0,X1

     3781     7582
     3782     7583    2      END FTW_GETSIZE;
PL6.E3A0      #001=FTW$WRAT File=FTW$WRAT.:E05TSI                                TUE 07/29/97 18:02 Page:529
     3783     7584        /*********************************************************************/
     3784     7585        %EJECT;
PL6.E3A0      #001=FTW$WRAT File=FTW$WRAT.:E05TSI                                TUE 07/29/97 18:02 Page:530
     3785     7586        /*********************************************************************/
     3786     7587    1   FTW_SPANCHK: PROC;

   7587  1 012614   200104 741300       FTW_SPANCHK  STX1  ! @SIZE+9,,AUTO

     3787     7588        /*F*     NAME: FTW_SPANCHK
     3788     7589                 PURPOSE: Check consistency of span information.
     3789     7590         ***/
     3790     7591
     3791     7592        /********************/
     3792     7593
     3793     7594         /***
     3794     7595          *** If previous segment indicated continuation, this segment should
     3795     7596          *** continue it.  If previous segment indicated no continuation, this
     3796     7597          *** segment should not continue it.  If we just spaced past a block that
     3797     7598          *** had an I/O error in it, just indicate a data inconsistency (TYC.DI).
     3798     7599          ***/
     3799     7600
     3800     7601    2              IF (F$DCB.SPAN AND SPANINFO <= 1) OR (NOT F$DCB.SPAN AND SPANINFO > 1)
              7601                       THEN

   7601  1 012615   200030 470500                    LDP0    JDCB$,,AUTO
         1 012616   000064 236100                    LDQ     52,,PR0
         1 012617   100000 316007                    CANQ    32768,DL
         1 012620   012624 600000 1                  TZE     s:7601+7
         1 012621   200044 235100                    LDA     SPANINFO,,AUTO
         1 012622   000001 115007                    CMPA    1,DL
         1 012623   012631 604400 1                  TMOZ    s:7603
         1 012624   100000 316007                    CANQ    32768,DL
         1 012625   012654 601000 1                  TNZ     s:7617
         1 012626   200044 235100                    LDA     SPANINFO,,AUTO
         1 012627   000001 115007                    CMPA    1,DL
         1 012630   012654 604400 1                  TMOZ    s:7617

     3801     7602                                        /* New segment begins without previous ending */
     3802     7603    3                 IF (F$DCB.IOERROK OR F$DCB.IGNOREFSN) AND F$DCB.OLDIOERR = 2 THEN DO;

PL6.E3A0      #001=FTW$WRAT File=FTW$WRAT.:E05TSI                                TUE 07/29/97 18:02 Page:531
   7603  1 012631   000031 236100                    LDQ     25,,PR0
         1 012632   020000 316003                    CANQ    8192,DU
         1 012633   012636 601000 1                  TNZ     s:7603+5
         1 012634   000031 234100                    SZN     25,,PR0
         1 012635   012651 605000 1                  TPL     s:7611
         1 012636   000102 236100                    LDQ     66,,PR0
         1 012637   140000 376003                    ANQ     49152,DU
         1 012640   100000 116003                    CMPQ    32768,DU
         1 012641   012651 601000 1                  TNZ     s:7611

     3803     7604                                                /* Had an I/O error, or this is the   */
     3804     7605                                                /* first FSECT we could find.         */
     3805     7606    3                    F$DCB.TYC.DI(1) = '1'B; /* Just indicate data inconsistency. */

   7606  1 012642   000400 236003                    LDQ     256,DU
         1 012643   000002 256100                    ORSQ    2,,PR0

     3806     7607    3                    IF F$DCB.IGNOREFSN THEN /* If first FSECT, forget this.      */

   7607  1 012644   000031 234100                    SZN     25,,PR0
         1 012645   012654 605000 1                  TPL     s:7617

     3807     7608    3                       F$DCB.OLDIOERR = 0;

   7608  1 012646   000027 236000 2                  LDQ     23
         1 012647   000102 356100                    ANSQ    66,,PR0

     3808     7609    3                    END;

   7609  1 012650   012654 710000 1                  TRA     s:7617

     3809     7610    2                 ELSE
     3810     7611    2                    B$JIT.ERR = E_BADSPAN; /*E* ERROR: FTW-E$BADSPAN */

   7611  1 012651   000015 236000 0                  LDQ     E_BADSPAN
         1 012652   000000 471400 xsym               LDP1    B$JIT$
         1 012653   100012 756100                    STQ     10,,PR1
PL6.E3A0      #001=FTW$WRAT File=FTW$WRAT.:E05TSI                                TUE 07/29/97 18:02 Page:532

     3811     7612
     3812     7613         /***
     3813     7614          *** Remeber whether this segment should be continued or not.
     3814     7615          ***/
     3815     7616
     3816     7617    2              IF SPANINFO = 0 OR SPANINFO = SPAN_LAST THEN

   7617  1 012654   200044 235100                    LDA     SPANINFO,,AUTO
         1 012655   012661 600000 1                  TZE     s:7618
         1 012656   200044 236100                    LDQ     SPANINFO,,AUTO
         1 012657   200046 116100                    CMPQ    SPAN_LAST,,AUTO
         1 012660   012664 601000 1                  TNZ     s:7620

     3817     7618    2                 F$DCB.SPAN = %NO#;        /* Next should begin span             */

   7618  1 012661   000005 236000 2                  LDQ     5
         1 012662   000064 356100                    ANSQ    52,,PR0
         1 012663   012666 710000 1                  TRA     s:7621

     3818     7619    2              ELSE
     3819     7620    2                 F$DCB.SPAN = %YES#;       /* Next should continue               */

   7620  1 012664   100000 236007                    LDQ     32768,DL
         1 012665   000064 256100                    ORSQ    52,,PR0

     3820     7621    2              RETURN;

   7621  1 012666   200104 221300                    LDX1  ! @SIZE+9,,AUTO
         1 012667   000001 702211                    TSX2  ! 1,X1

     3821     7622
     3822     7623    2      END FTW_SPANCHK;
     3823     7624        /*********************************************************************/
     3824     7625        %EJECT;
PL6.E3A0      #001=FTW$WRAT File=FTW$WRAT.:E05TSI                                TUE 07/29/97 18:02 Page:533
     3825     7626        /*********************************************************************/
     3826     7627    1   FTW_SIZECHK: PROC;

   7627  1 012670   200104 741300       FTW_SIZECHK  STX1  ! @SIZE+9,,AUTO

     3827     7628        /*F*     NAME: FTW_SIZECHK
     3828     7629                 PURPOSE: Check segment size information for consistency.
     3829     7630         ***/
     3830     7631
     3831     7632        /********************/
     3832     7633
     3833     7634         /***
     3834     7635          *** Segment must fit within block.
     3835     7636          ***/
     3836     7637
     3837     7638    2              IF F$DCB.CRECX + SEGSIZE > F$DCB.BLKLEN

   7638  1 012671   200030 470500                    LDP0    JDCB$,,AUTO
         1 012672   000067 236100                    LDQ     55,,PR0
         1 012673   777777 376007                    ANQ     -1,DL
         1 012674   200041 036100                    ADLQ    SEGSIZE,,AUTO
         1 012675   200112 756100                    STQ     @FIELD_LENGTH+2,,AUTO
         1 012676   000074 236100                    LDQ     60,,PR0
         1 012677   777777 376007                    ANQ     -1,DL
         1 012700   200112 116100                    CMPQ    @FIELD_LENGTH+2,,AUTO
         1 012701   012714 605000 1                  TPL     s:7649

     3838     7639    3              THEN DO;                 /* Segment couldn't possible fit in block */

     3839     7640    3                 SEGSIZE = F$DCB.BLKLEN - F$DCB.CRECX;

   7640  1 012702   000067 236100                    LDQ     55,,PR0
         1 012703   777777 376007                    ANQ     -1,DL
         1 012704   200112 756100                    STQ     @FIELD_LENGTH+2,,AUTO
         1 012705   000074 236100                    LDQ     60,,PR0
         1 012706   777777 376007                    ANQ     -1,DL
         1 012707   200112 136100                    SBLQ    @FIELD_LENGTH+2,,AUTO
PL6.E3A0      #001=FTW$WRAT File=FTW$WRAT.:E05TSI                                TUE 07/29/97 18:02 Page:534
         1 012710   200041 756100                    STQ     SEGSIZE,,AUTO

     3840     7641                                                /* Set segment size to max possible   */
     3841     7642    3                 B$JIT.ERR = E_BADRECL; /*E* ERROR: FTW-E$BADRECL */

   7642  1 012711   000014 236000 0                  LDQ     E_BADRECL
         1 012712   000000 471400 xsym               LDP1    B$JIT$
         1 012713   100012 756100                    STQ     10,,PR1

     3842     7643    3                 END;

     3843     7644
     3844     7645         /***
     3845     7646          *** Segment should be no larger than DCB.RECL specifies.
     3846     7647          ***/
     3847     7648
     3848     7649    2              IF SEGSIZE < RCWSIZE

   7649  1 012714   200041 236100                    LDQ     SEGSIZE,,AUTO
         1 012715   200036 116100                    CMPQ    RCWSIZE,,AUTO
         1 012716   012724 605000 1                  TPL     s:7655

     3849     7650    3              THEN DO;                     /* Illegal segment length             */

     3850     7651    3                 B$JIT.ERR = E_BADRECL; /*E* ERROR: FTW-E$BADRECL */

   7651  1 012717   000014 236000 0                  LDQ     E_BADRECL
         1 012720   000000 471400 xsym               LDP1    B$JIT$
         1 012721   100012 756100                    STQ     10,,PR1

     3851     7652    3                 F$DCB.GDISP = SEGSIZE;    /* Don't permit negative data length  */

   7652  1 012722   200041 235100                    LDA     SEGSIZE,,AUTO
         1 012723   000101 755100                    STA     65,,PR0

     3852     7653                                                /* Don't permit negative data length  */
     3853     7654    3                 END;
PL6.E3A0      #001=FTW$WRAT File=FTW$WRAT.:E05TSI                                TUE 07/29/97 18:02 Page:535

     3854     7655    2              RETURN;

   7655  1 012724   200104 221300                    LDX1  ! @SIZE+9,,AUTO
         1 012725   000001 702211                    TSX2  ! 1,X1

     3855     7656
     3856     7657    2      END FTW_SIZECHK;
     3857     7658        /*********************************************************************/
     3858     7659        %EJECT;
PL6.E3A0      #001=FTW$WRAT File=FTW$WRAT.:E05TSI                                TUE 07/29/97 18:02 Page:536
     3859     7660        /*********************************************************************/
     3860     7661    1   FTW_CHKDEC: PROC( FIELD_CHAR, FIELD_LENGTH ) ALTRET;

   7661  1 012726   200106 741300       FTW_CHKDEC   STX1  ! @SIZE+11,,AUTO

     3861     7662        /*F*     NAME: FTW_CHKDEC
     3862     7663                 PURPOSE: Check field for numeric characters.
     3863     7664         ***/
     3864     7665
     3865     7666    2     DCL FIELD_CHAR CHAR(FIELD_LENGTH) CALIGNED;
     3866     7667    2     DCL FIELD_LENGTH SBIN;
     3867     7668
     3868     7669        /********************/
     3869     7670
     3870     7671    2              CALL SEARCH( TEMP, TEMP, FT_NONDECIMAL_TABLE, FIELD_CHAR ) ALTRET(
              7671                       ALLDECIMAL );

   7671  1 012727   200110 470500                    LDP0    @FIELD_LENGTH,,AUTO
         1 012730   000000 720100                    LXL0    0,,PR0
         1 012731   000000 471400 xsym               LDP1    B$SR_NON_DEC$
         1 012732   200107 473500                    LDP3    @FIELD_CHAR,,AUTO
         1 012733   000000 164540                    TCT
         1 012734   300000 000010                    ADSC9   0,,PR3                   cn=0,n=*X0
         1 012735   100000 000100                    ARG     0,,PR1
         1 012736   200047 000100                    ARG     TEMP,,AUTO
         1 012737   200047 235100                    LDA     TEMP,,AUTO
         1 012740   000033 771000                    ARL     27
         1 012741   200047 755100                    STA     TEMP,,AUTO
         1 012742   200047 551140                    STBA    TEMP,'40'O,AUTO
         1 012743   012751 606400 1                  TTN     ALLDECIMAL

     3871     7672    2              B$JIT.ERR = E_NONDECRCW; /*E* ERROR: FTW-E$NONDECRCW */

   7672  1 012744   000040 236000 0                  LDQ     E_NONDECRCW
         1 012745   000000 474400 xsym               LDP4    B$JIT$
         1 012746   400012 756100                    STQ     10,,PR4

PL6.E3A0      #001=FTW$WRAT File=FTW$WRAT.:E05TSI                                TUE 07/29/97 18:02 Page:537
     3872     7673    2              ALTRETURN;

   7673  1 012747   200106 221300                    LDX1  ! @SIZE+11,,AUTO
         1 012750   000000 702211                    TSX2  ! 0,X1

   7672  1 012751                       ALLDECIMAL   null
     3873     7674
     3874     7675    2   ALLDECIMAL: ;
     3875     7676    2              RETURN;

   7676  1 012751   200106 221300                    LDX1  ! @SIZE+11,,AUTO
         1 012752   000001 702211                    TSX2  ! 1,X1

     3876     7677
     3877     7678    2      END FTW_CHKDEC;
     3878     7679        /*********************************************************************/
     3879     7680        %EJECT;
PL6.E3A0      #001=FTW$WRAT File=FTW$WRAT.:E05TSI                                TUE 07/29/97 18:02 Page:538
     3880     7681        /*********************************************************************/
     3881     7682    1   FTW_BOF:   PROC ALTRET;

   7682  1 012753   200072 741300       FTW_BOF      STX1  ! @FP$+1,,AUTO

     3882     7683        /*F*     NAME: FTW_BOF
     3883     7684                 PURPOSE: Position to beginning of file regardless of format.
     3884     7685         ***/
     3885     7686
     3886     7687        /********************/
     3887     7688
     3888     7689         /***
     3889     7690          *** If not in section 1, change to volume with proper section.
     3890     7691          *** Either backspace over blocks or backspace over file...whichever
     3891     7692          *** seems faster.
     3892     7693          ***/
     3893     7694
     3894     7695    2              F$DCB.MUST_CVOL = %NO#;

   7695  1 012754   200030 470500                    LDP0    JDCB$,,AUTO
         1 012755   000011 236000 2                  LDQ     9
         1 012756   000064 356100                    ANSQ    52,,PR0

     3895     7696    2              IF F$DCB.FSECT > 1

   7696  1 012757   000077 220100                    LDX0    63,,PR0
         1 012760   000002 100003                    CMPX0   2,DU
         1 012761   013015 602000 1                  TNC     s:7708

     3896     7697    3              THEN DO;                     /* Must get to section 1              */

     3897     7698    3                 CALL FTW_TRNCWEOF ALTRET(JUSTALT); /* Close current section     */

   7698  1 012762   014760 701000 1                  TSX1    FTW_TRNCWEOF
         1 012763   013111 702000 1                  TSX2    JUSTALT

     3898     7699    3                 CALL FTL$PBSN( 0, ADDR(NIL), 1 ) ALTRET(JUSTALT);
PL6.E3A0      #001=FTW$WRAT File=FTW$WRAT.:E05TSI                                TUE 07/29/97 18:02 Page:539

   7699  1 012764   000001 236000 xsym               LDQ     B_VECTNIL+1
         1 012765   200112 756100                    STQ     @FIELD_LENGTH+2,,AUTO
         1 012766   000007 236000 2                  LDQ     7
         1 012767   200115 756100                    STQ     @FIELD_LENGTH+5,,AUTO
         1 012770   200112 630500                    EPPR0   @FIELD_LENGTH+2,,AUTO
         1 012771   200114 450500                    STP0    @FIELD_LENGTH+4,,AUTO
         1 012772   000031 236000 2                  LDQ     25
         1 012773   200113 756100                    STQ     @FIELD_LENGTH+3,,AUTO
         1 012774   200113 630500                    EPPR0   @FIELD_LENGTH+3,,AUTO
         1 012775   000021 631400 xsym               EPPR1   B_VECTNIL+17
         1 012776   000000 701000 xent               TSX1    FTL$PBSN
         1 012777   013111 702000 1                  TSX2    JUSTALT

     3899     7700    3                 IF F$DCB.TAPTYP.CP6F

   7700  1 013000   200030 470500                    LDP0    JDCB$,,AUTO
         1 013001   000067 236100                    LDQ     55,,PR0
         1 013002   000200 316003                    CANQ    128,DU
         1 013003   013011 600000 1                  TZE     s:7705

     3900     7701    4                 THEN DO;                  /* Skip FIT                           */

     3901     7702    4                    F$DCB.ARS = 1;

   7702  1 013004   000001 235007                    LDA     1,DL
         1 013005   000000 755100                    STA     0,,PR0

     3902     7703    4                    CALL FTI$SPREC ALTRET(JUSTALT);

   7703  1 013006   000002 631400 xsym               EPPR1   B_VECTNIL+2
         1 013007   000000 701000 xent               TSX1    FTI$SPREC
         1 013010   013111 702000 1                  TSX2    JUSTALT

     3903     7704    4                    END;

     3904     7705    3                 F$DCB.LSTBLK = %NO#;      /* Not known if last block            */
PL6.E3A0      #001=FTW$WRAT File=FTW$WRAT.:E05TSI                                TUE 07/29/97 18:02 Page:540

   7705  1 013011   200030 470500                    LDP0    JDCB$,,AUTO
         1 013012   000033 236000 2                  LDQ     27
         1 013013   000064 356100                    ANSQ    52,,PR0

     3905     7706    3                 END;

   7706  1 013014   013105 710000 1                  TRA     s:7740

     3906     7707    3              ELSE DO;                     /* Already in section 1               */

     3907     7708    3                 CALL FTW_TRNCWEOF ALTRET(JUSTALT); /* Trunc file; write EOF labels */

   7708  1 013015   014760 701000 1                  TSX1    FTW_TRNCWEOF
         1 013016   013111 702000 1                  TSX2    JUSTALT

     3908     7709    3                 IF NOT F$DCB.AFTRBLK

   7709  1 013017   200030 470500                    LDP0    JDCB$,,AUTO
         1 013020   000064 236100                    LDQ     52,,PR0
         1 013021   000002 316007                    CANQ    2,DL
         1 013022   013025 601000 1                  TNZ     s:7712

     3909     7710    3                 THEN F$DCB.PRECNO = F$DCB.PRECNO - 1;

   7710  1 013023   000001 336007                    LCQ     1,DL
         1 013024   000072 056100                    ASQ     58,,PR0

     3910     7711                         /** DCB.PRECNO is now the number of blocks to skip backward **/
     3911     7712    3                 IF F$DCB.PRECNO > 0

   7712  1 013025   000072 235100                    LDA     58,,PR0
         1 013026   013105 604400 1                  TMOZ    s:7740

     3912     7713    4                 THEN DO;                  /* Not already at first block         */

     3913     7714    4                    IF F$DCB.TAPTYP.CP6F
PL6.E3A0      #001=FTW$WRAT File=FTW$WRAT.:E05TSI                                TUE 07/29/97 18:02 Page:541

   7714  1 013027   000067 236100                    LDQ     55,,PR0
         1 013030   000200 316003                    CANQ    128,DU
         1 013031   013035 600000 1                  TZE     s:7716

     3914     7715    4                    THEN TEMP = 3;         /* SPFILE limit for FIT format files  */

   7715  1 013032   000003 235007                    LDA     3,DL
         1 013033   200047 755100                    STA     TEMP,,AUTO
         1 013034   013037 710000 1                  TRA     s:7717

     3915     7716    4                    ELSE TEMP = 2;         /* Non-FIT format files               */

   7716  1 013035   000002 235007                    LDA     2,DL
         1 013036   200047 755100                    STA     TEMP,,AUTO

     3916     7717    4                    IF F$DCB.PRECNO <= TEMP

   7717  1 013037   000072 236100                    LDQ     58,,PR0
         1 013040   200047 116100                    CMPQ    TEMP,,AUTO
         1 013041   013051 605400 1                  TPNZ    s:7723

     3917     7718    5                    THEN DO;               /* Just backspace                     */

     3918     7719    5                       F$DCB.ARS = - F$DCB.PRECNO;

   7719  1 013042   000072 235100                    LDA     58,,PR0
         1 013043   000000 531000                    NEG     0
         1 013044   000000 755100                    STA     0,,PR0

     3919     7720    5                       CALL FTI$SPREC ALTRET(JUSTALT);

   7720  1 013045   000002 631400 xsym               EPPR1   B_VECTNIL+2
         1 013046   000000 701000 xent               TSX1    FTI$SPREC
         1 013047   013111 702000 1                  TSX2    JUSTALT

     3920     7721    5                       END;
PL6.E3A0      #001=FTW$WRAT File=FTW$WRAT.:E05TSI                                TUE 07/29/97 18:02 Page:542

   7721  1 013050   013100 710000 1                  TRA     s:7736

     3921     7722    5                    ELSE DO;               /* Use SPFILE                         */

     3922     7723    5                       F$DCB.ARS = -1;     /* Find BOF file mark                 */

   7723  1 013051   000001 335007                    LCA     1,DL
         1 013052   000000 755100                    STA     0,,PR0

     3923     7724    5                       CALL FTI$SPFILE ALTRET(JUSTALT);

   7724  1 013053   000002 631400 xsym               EPPR1   B_VECTNIL+2
         1 013054   000000 701000 xent               TSX1    FTI$SPFILE
         1 013055   013111 702000 1                  TSX2    JUSTALT

     3924     7725    5                       IF NOT F$DCB.TYC.BOT(0)

   7725  1 013056   200030 470500                    LDP0    JDCB$,,AUTO
         1 013057   000001 236100                    LDQ     1,,PR0
         1 013060   040000 316003                    CANQ    16384,DU
         1 013061   013067 601000 1                  TNZ     s:7730

     3925     7726    6                       THEN DO;            /* Must have hit file mark            */

     3926     7727    6                          F$DCB.ARS = 1;   /* Skip over BOF mark                 */

   7727  1 013062   000001 235007                    LDA     1,DL
         1 013063   000000 755100                    STA     0,,PR0

     3927     7728    6                          CALL FTI$SPFILE ALTRET(JUSTALT);

   7728  1 013064   000002 631400 xsym               EPPR1   B_VECTNIL+2
         1 013065   000000 701000 xent               TSX1    FTI$SPFILE
         1 013066   013111 702000 1                  TSX2    JUSTALT

     3928     7729    6                          END;
PL6.E3A0      #001=FTW$WRAT File=FTW$WRAT.:E05TSI                                TUE 07/29/97 18:02 Page:543

     3929     7730    5                       IF F$DCB.TAPTYP.CP6F

   7730  1 013067   200030 470500                    LDP0    JDCB$,,AUTO
         1 013070   000067 236100                    LDQ     55,,PR0
         1 013071   000200 316003                    CANQ    128,DU
         1 013072   013100 600000 1                  TZE     s:7736

     3930     7731    6                       THEN DO;            /* Must skip over FIT also            */

     3931     7732    6                          F$DCB.ARS = 1;

   7732  1 013073   000001 235007                    LDA     1,DL
         1 013074   000000 755100                    STA     0,,PR0

     3932     7733    6                          CALL FTI$SPREC ALTRET(JUSTALT);

   7733  1 013075   000002 631400 xsym               EPPR1   B_VECTNIL+2
         1 013076   000000 701000 xent               TSX1    FTI$SPREC
         1 013077   013111 702000 1                  TSX2    JUSTALT

     3933     7734    6                          END;

     3934     7735    5                       END;

     3935     7736    4                    F$DCB.NEW_FSECT = %YES#; /* Need to read first block         */

   7736  1 013100   200030 470500                    LDP0    JDCB$,,AUTO
         1 013101   000001 236003                    LDQ     1,DU
         1 013102   000064 256100                    ORSQ    52,,PR0

     3936     7737    4                    F$DCB.LSTBLK = %NO#;   /* Not known if last block            */

   7737  1 013103   000033 236000 2                  LDQ     27
         1 013104   000064 356100                    ANSQ    52,,PR0

     3937     7738    4                    END;
PL6.E3A0      #001=FTW$WRAT File=FTW$WRAT.:E05TSI                                TUE 07/29/97 18:02 Page:544

     3938     7739    3                 END;

     3939     7740    2              CALL FTW_SET_BOF_INDICATORS;

   7740  1 013105   013113 701000 1                  TSX1    FTW_SET_BOF_INDICATORS
         1 013106   000000 011000                    NOP     0

     3940     7741    2              RETURN;

   7741  1 013107   200072 221300                    LDX1  ! @FP$+1,,AUTO
         1 013110   000001 702211                    TSX2  ! 1,X1

   7733  1 013111                       JUSTALT      null
     3941     7742
     3942     7743    2   JUSTALT:   ;
     3943     7744    2              ALTRETURN;

   7744  1 013111   200072 221300                    LDX1  ! @FP$+1,,AUTO
         1 013112   000000 702211                    TSX2  ! 0,X1

     3944     7745
     3945     7746    2      END FTW_BOF;
     3946     7747        /*********************************************************************/
     3947     7748        %EJECT;
PL6.E3A0      #001=FTW$WRAT File=FTW$WRAT.:E05TSI                                TUE 07/29/97 18:02 Page:545
     3948     7749        /*********************************************************************/
     3949     7750    1   FTW_SET_BOF_INDICATORS: PROC;

   7750  1 013113   200074 741300       FTW_SET_BOF* STX1  ! @SIZE+1,,AUTO

     3950     7751        /*F*     NAME: FTW_SET_BOF_INDICATORS
     3951     7752                 PURPOSE: Reset DCB fields to indicate current BOF position.
     3952     7753         ***/
     3953     7754
     3954     7755        /********************/
     3955     7756
     3956     7757    2              F$DCB.CRECNO = 1;            /* At first record of file            */

   7757  1 013114   000001 235007                    LDA     1,DL
         1 013115   200030 470500                    LDP0    JDCB$,,AUTO
         1 013116   000071 755100                    STA     57,,PR0

     3957     7758    2              F$DCB.CRECX = F$DCB.BOL;

   7758  1 013117   000034 720100                    LXL0    28,,PR0
         1 013120   000777 360003                    ANX0    511,DU
         1 013121   000067 440100                    SXL0    55,,PR0

     3958     7759    2              F$DCB.GDISP = RCWSIZE;

   7759  1 013122   200036 236100                    LDQ     RCWSIZE,,AUTO
         1 013123   000101 756100                    STQ     65,,PR0

     3959     7760    2              F$DCB.NRECX = 1;

   7760  1 013124   000001 221003                    LDX1    1,DU
         1 013125   000100 741100                    STX1    64,,PR0

     3960     7761    2              F$DCB.RPOS = %YES#;          /* Positioned to next record to read  */

   7761  1 013126   010000 236007                    LDQ     4096,DL
         1 013127   000064 256100                    ORSQ    52,,PR0
PL6.E3A0      #001=FTW$WRAT File=FTW$WRAT.:E05TSI                                TUE 07/29/97 18:02 Page:546

     3961     7762    2              F$DCB.SPAN = %NO#;

   7762  1 013130   000005 236000 2                  LDQ     5
         1 013131   000064 356100                    ANSQ    52,,PR0

     3962     7763    2              F$DCB.TAPTYP.HAVLASTKEY = %NO#;

   7763  1 013132   000032 236000 2                  LDQ     26
         1 013133   000067 356100                    ANSQ    55,,PR0

     3963     7764    3              DO CASE(F$DCB.ORG);          /* Reset DCB.LASTKEY if necessary     */

   7764  1 013134   000032 236100                    LDQ     26,,PR0
         1 013135   000033 772000                    QRL     27
         1 013136   000023 116007                    CMPQ    19,DL
         1 013137   013141 602006 1                  TNC     s:7764+5,QL
         1 013140   013171 710000 1                  TRA     s:7772
         1 013141   013171 710000 1                  TRA     s:7772
         1 013142   013171 710000 1                  TRA     s:7772
         1 013143   013171 710000 1                  TRA     s:7772
         1 013144   013164 710000 1                  TRA     s:7766
         1 013145   013171 710000 1                  TRA     s:7772
         1 013146   013167 710000 1                  TRA     s:7768
         1 013147   013171 710000 1                  TRA     s:7772
         1 013150   013164 710000 1                  TRA     s:7766
         1 013151   013171 710000 1                  TRA     s:7772
         1 013152   013171 710000 1                  TRA     s:7772
         1 013153   013171 710000 1                  TRA     s:7772
         1 013154   013171 710000 1                  TRA     s:7772
         1 013155   013171 710000 1                  TRA     s:7772
         1 013156   013171 710000 1                  TRA     s:7772
         1 013157   013171 710000 1                  TRA     s:7772
         1 013160   013171 710000 1                  TRA     s:7772
         1 013161   013171 710000 1                  TRA     s:7772
         1 013162   013171 710000 1                  TRA     s:7772
         1 013163   013164 710000 1                  TRA     s:7766
PL6.E3A0      #001=FTW$WRAT File=FTW$WRAT.:E05TSI                                TUE 07/29/97 18:02 Page:547

     3964     7765    3                 CASE(%RANDOM#,%IDS#,%RESTRICT#);

     3965     7766    3                    F$DCB.LASTKEY = -1;

   7766  1 013164   000001 335007                    LCA     1,DL
         1 013165   000065 755100                    STA     53,,PR0
         1 013166   013171 710000 1                  TRA     s:7772

     3966     7767    3                 CASE(%RELATIVE#);

     3967     7768    3                    F$DCB.LASTKEY = 0;

   7768  1 013167   000065 450100                    STZ     53,,PR0
         1 013170   013171 710000 1                  TRA     s:7772

     3968     7769    3                 CASE(ELSE);

     3969     7770    4                    DO; END;

     3970     7771    3                 END;

     3971     7772    2              F$DCB.AFTRBLK = %NO#;        /* Before                             */

   7772  1 013171   000035 236000 2                  LDQ     29
         1 013172   000064 356100                    ANSQ    52,,PR0

     3972     7773    2              F$DCB.PRECNO = 1;            /* first data block of file           */

   7773  1 013173   000001 235007                    LDA     1,DL
         1 013174   000072 755100                    STA     58,,PR0

     3973     7774    2              RETURN;

   7774  1 013175   200074 221300                    LDX1  ! @SIZE+1,,AUTO
         1 013176   000001 702211                    TSX2  ! 1,X1

PL6.E3A0      #001=FTW$WRAT File=FTW$WRAT.:E05TSI                                TUE 07/29/97 18:02 Page:548
     3974     7775
     3975     7776    2      END FTW_SET_BOF_INDICATORS;
     3976     7777        /*********************************************************************/
     3977     7778        %EJECT;
PL6.E3A0      #001=FTW$WRAT File=FTW$WRAT.:E05TSI                                TUE 07/29/97 18:02 Page:549
     3978     7779        /*********************************************************************/
     3979     7780    1   FTW_P1RB:  PROC ALTRET;

   7780  1 013177   200074 741300       FTW_P1RB     STX1  ! @SIZE+1,,AUTO

     3980     7781        /*F*     NAME: FTW_P1RB
     3981     7782                 PURPOSE: Fixed and variable position to first record of block.
     3982     7783         ***/
     3983     7784
     3984     7785        /********************/
     3985     7786
     3986     7787         /***
     3987     7788          *** Reset CRECX to beginning of block and find the first segment
     3988     7789          *** that begins a record.
     3989     7790          ***/
     3990     7791
     3991     7792    2              F$DCB.CRECX = F$DCB.BOL;

   7792  1 013200   200030 470500                    LDP0    JDCB$,,AUTO
         1 013201   000034 720100                    LXL0    28,,PR0
         1 013202   000777 360003                    ANX0    511,DU
         1 013203   000067 440100                    SXL0    55,,PR0

     3992     7793    2              CALL FTW_CHKSEG ALTRET(NONEBEGIN); /* Check if 1st segment fits    */

   7793  1 013204   014373 701000 1                  TSX1    FTW_CHKSEG
         1 013205   013225 702000 1                  TSX2    NONEBEGIN

     3993     7794    2              CALL FTW_CHKSEGINFO ALTRET(NONEBEGIN);

   7794  1 013206   013410 701000 1                  TSX1    FTW_CHKSEGINFO
         1 013207   013225 702000 1                  TSX2    NONEBEGIN

     3994     7795    2              B$JIT.ERR = '0'B; /*N* Ignore span errors               */

   7795  1 013210   000000 470400 xsym               LDP0    B$JIT$
         1 013211   000012 450100                    STZ     10,,PR0
PL6.E3A0      #001=FTW$WRAT File=FTW$WRAT.:E05TSI                                TUE 07/29/97 18:02 Page:550

     3995     7796    2              CALL FTW_NXTRB ALTRET(NONEBEGIN); /* Find beginning of next record */

   7796  1 013212   013332 701000 1                  TSX1    FTW_NXTRB
         1 013213   013225 702000 1                  TSX2    NONEBEGIN

     3996     7797    2              F$DCB.GDISP = RCWSIZE;

   7797  1 013214   200036 235100                    LDA     RCWSIZE,,AUTO
         1 013215   200030 470500                    LDP0    JDCB$,,AUTO
         1 013216   000101 755100                    STA     65,,PR0

     3997     7798    2              F$DCB.NRECX = 1;             /* At first record of block           */

   7798  1 013217   000001 220003                    LDX0    1,DU
         1 013220   000100 740100                    STX0    64,,PR0

     3998     7799    2              F$DCB.RPOS = %YES#;          /* Positioned to record               */

   7799  1 013221   010000 236007                    LDQ     4096,DL
         1 013222   000064 256100                    ORSQ    52,,PR0

     3999     7800    2              RETURN;

   7800  1 013223   200074 221300                    LDX1  ! @SIZE+1,,AUTO
         1 013224   000001 702211                    TSX2  ! 1,X1

   7799  1 013225                       NONEBEGIN    null
     4000     7801
     4001     7802    2   NONEBEGIN: ;
     4002     7803    2              IF B$JIT.ERR THEN

   7803  1 013225   000000 470400 xsym               LDP0    B$JIT$
         1 013226   000012 235100                    LDA     10,,PR0
         1 013227   013254 600000 1                  TZE     s:7813

     4003     7804    3                 IF F$DCB.OLDIOERR = 1 OR F$DCB.OLDIOERR = 2 THEN DO;
PL6.E3A0      #001=FTW$WRAT File=FTW$WRAT.:E05TSI                                TUE 07/29/97 18:02 Page:551

   7804  1 013230   200030 471500                    LDP1    JDCB$,,AUTO
         1 013231   100102 236100                    LDQ     66,,PR1
         1 013232   140000 376003                    ANQ     49152,DU
         1 013233   040000 116003                    CMPQ    16384,DU
         1 013234   013237 600000 1                  TZE     s:7805
         1 013235   100000 116003                    CMPQ    32768,DU
         1 013236   013252 601000 1                  TNZ     s:7812

     4004     7805    3                    IF B$JIT.ERR.CODE = %E$LD THEN

   7805  1 013237   000012 236100                    LDQ     10,,PR0
         1 013240   377770 376007                    ANQ     131064,DL
         1 013241   000070 116007                    CMPQ    56,DL
         1 013242   013246 601000 1                  TNZ     s:7808

     4005     7806    3                       F$DCB.TYC.LD(1) = '1'B;

   7806  1 013243   002000 236003                    LDQ     1024,DU
         1 013244   100002 256100                    ORSQ    2,,PR1
         1 013245   013250 710000 1                  TRA     s:7809

     4006     7807    3                    ELSE
     4007     7808    3                       F$DCB.TYC.DI(1) = '1'B;

   7808  1 013246   000400 236003                    LDQ     256,DU
         1 013247   100002 256100                    ORSQ    2,,PR1

     4008     7809    3                    B$JIT.ERR = '0'B;

   7809  1 013250   000012 450100                    STZ     10,,PR0

     4009     7810    3                    END;

   7810  1 013251   013254 710000 1                  TRA     s:7813

     4010     7811    2                 ELSE
PL6.E3A0      #001=FTW$WRAT File=FTW$WRAT.:E05TSI                                TUE 07/29/97 18:02 Page:552
     4011     7812    2                    ALTRETURN;

   7812  1 013252   200074 221300                    LDX1  ! @SIZE+1,,AUTO
         1 013253   000000 702211                    TSX2  ! 0,X1

     4012     7813    2              F$DCB.GDISP = RCWSIZE;

   7813  1 013254   200036 235100                    LDA     RCWSIZE,,AUTO
         1 013255   200030 471500                    LDP1    JDCB$,,AUTO
         1 013256   100101 755100                    STA     65,,PR1

     4013     7814    2              F$DCB.NRECX = 0;             /* No record begins in this block     */

   7814  1 013257   000000 220003                    LDX0    0,DU
         1 013260   100100 740100                    STX0    64,,PR1

     4014     7815    2              ALTRETURN;

   7815  1 013261   200074 221300                    LDX1  ! @SIZE+1,,AUTO
         1 013262   000000 702211                    TSX2  ! 0,X1

     4015     7816
     4016     7817    2      END FTW_P1RB;
     4017     7818        /*********************************************************************/
     4018     7819        %EJECT;
PL6.E3A0      #001=FTW$WRAT File=FTW$WRAT.:E05TSI                                TUE 07/29/97 18:02 Page:553
     4019     7820        /*********************************************************************/
     4020     7821    1   FTW_PNRB:  PROC ALTRET;

   7821  1 013263   200074 741300       FTW_PNRB     STX1  ! @SIZE+1,,AUTO

     4021     7822        /*F*    NAME: FTW_PNRB
     4022     7823                PURPOSE: Fixed and variable format position to next record of block.
     4023     7824                DESCRIPTION: Will position to the next record to read by
     4024     7825                   incrementing current record descriptors CRECX, CRECNO,
     4025     7826                   and NRECX while the next record is fully contained within
     4026     7827                   the current block.  Will ALTRET if the next record is not
     4027     7828                   fully contained within the current block.
     4028     7829         ***/
     4029     7830
     4030     7831        /********************/
     4031     7832
     4032     7833         /***
     4033     7834          *** If already past block end--ALTRETURN.
     4034     7835          ***/
     4035     7836
     4036     7837    2              CALL FTW_PNSB ALTRET(SEGBLKEND);

   7837  1 013264   013366 701000 1                  TSX1    FTW_PNSB
         1 013265   013276 702000 1                  TSX2    SEGBLKEND

     4037     7838
     4038     7839    2              CALL FTW_NXTRB ALTRET(SEGBLKEND); /* Find beginning of next record */

   7839  1 013266   013332 701000 1                  TSX1    FTW_NXTRB
         1 013267   013276 702000 1                  TSX2    SEGBLKEND

     4039     7840    2              F$DCB.NRECX = F$DCB.NRECX + 1; /* Deblocked 1 more                 */

   7840  1 013270   200030 470500                    LDP0    JDCB$,,AUTO
         1 013271   000100 220100                    LDX0    64,,PR0
         1 013272   000001 621010                    EAX1    1,X0
         1 013273   000100 741100                    STX1    64,,PR0
PL6.E3A0      #001=FTW$WRAT File=FTW$WRAT.:E05TSI                                TUE 07/29/97 18:02 Page:554

     4040     7841    2              RETURN;

   7841  1 013274   200074 221300                    LDX1  ! @SIZE+1,,AUTO
         1 013275   000001 702211                    TSX2  ! 1,X1

   7840  1 013276                       SEGBLKEND    null
     4041     7842
     4042     7843    2   SEGBLKEND: ;
     4043     7844    2              IF B$JIT.ERR THEN

   7844  1 013276   000000 470400 xsym               LDP0    B$JIT$
         1 013277   000012 235100                    LDA     10,,PR0
         1 013300   013325 600000 1                  TZE     s:7854

     4044     7845    3                 IF F$DCB.OLDIOERR = 1 OR F$DCB.OLDIOERR = 2 THEN DO;

   7845  1 013301   200030 471500                    LDP1    JDCB$,,AUTO
         1 013302   100102 236100                    LDQ     66,,PR1
         1 013303   140000 376003                    ANQ     49152,DU
         1 013304   040000 116003                    CMPQ    16384,DU
         1 013305   013310 600000 1                  TZE     s:7846
         1 013306   100000 116003                    CMPQ    32768,DU
         1 013307   013323 601000 1                  TNZ     s:7853

     4045     7846    3                    IF B$JIT.ERR.CODE = %E$LD THEN

   7846  1 013310   000012 236100                    LDQ     10,,PR0
         1 013311   377770 376007                    ANQ     131064,DL
         1 013312   000070 116007                    CMPQ    56,DL
         1 013313   013317 601000 1                  TNZ     s:7849

     4046     7847    3                       F$DCB.TYC.LD(1) = '1'B;

   7847  1 013314   002000 236003                    LDQ     1024,DU
         1 013315   100002 256100                    ORSQ    2,,PR1
         1 013316   013321 710000 1                  TRA     s:7850
PL6.E3A0      #001=FTW$WRAT File=FTW$WRAT.:E05TSI                                TUE 07/29/97 18:02 Page:555

     4047     7848    3                    ELSE
     4048     7849    3                       F$DCB.TYC.DI(1) = '1'B;

   7849  1 013317   000400 236003                    LDQ     256,DU
         1 013320   100002 256100                    ORSQ    2,,PR1

     4049     7850    3                    B$JIT.ERR = '0'B;

   7850  1 013321   000012 450100                    STZ     10,,PR0

     4050     7851    3                    END;

   7851  1 013322   013325 710000 1                  TRA     s:7854

     4051     7852    2                 ELSE
     4052     7853    2                    ALTRETURN;

   7853  1 013323   200074 221300                    LDX1  ! @SIZE+1,,AUTO
         1 013324   000000 702211                    TSX2  ! 0,X1

     4053     7854    2              F$DCB.BLKLEN = F$DCB.CRECX;

   7854  1 013325   200030 471500                    LDP1    JDCB$,,AUTO
         1 013326   100067 720100                    LXL0    55,,PR1
         1 013327   100074 440100                    SXL0    60,,PR1

     4054     7855    2              ALTRETURN;

   7855  1 013330   200074 221300                    LDX1  ! @SIZE+1,,AUTO
         1 013331   000000 702211                    TSX2  ! 0,X1

     4055     7856
     4056     7857    2      END FTW_PNRB;
     4057     7858        /*********************************************************************/
     4058     7859        %EJECT;
PL6.E3A0      #001=FTW$WRAT File=FTW$WRAT.:E05TSI                                TUE 07/29/97 18:02 Page:556
     4059     7860        /*********************************************************************/
     4060     7861    1   FTW_NXTRB: PROC ALTRET;

   7861  1 013332   200076 741300       FTW_NXTRB    STX1  ! @SIZE+3,,AUTO

     4061     7862        /*F*     NAME: FTW_NXTRB
     4062     7863                 PURPOSE: Find next record beginning.
     4063     7864         ***/
     4064     7865
     4065     7866        /********************/
     4066     7867
     4067     7868         /***
     4068     7869          *** Next record begins when span information indicates beginning
     4069     7870          *** or when previous segment indicates ending.
     4070     7871          ***/
     4071     7872
     4072     7873    3              DO WHILE( SPANINFO > 1 );    /* While not record beginning         */

   7873  1 013333   200044 235100                    LDA     SPANINFO,,AUTO
         1 013334   000001 115007                    CMPA    1,DL
         1 013335   013362 604400 1                  TMOZ    s:7884

     4073     7874    3                 IF SPANINFO = SPAN_LAST

   7874  1 013336   200044 236100                    LDQ     SPANINFO,,AUTO
         1 013337   200046 116100                    CMPQ    SPAN_LAST,,AUTO
         1 013340   013355 601000 1                  TNZ     s:7882

     4074     7875    4                 THEN DO;                  /* Next segment must begin record     */

     4075     7876    4                    CALL FTW_PNSB ALTRET(JUSTALT);

   7876  1 013341   013366 701000 1                  TSX1    FTW_PNSB
         1 013342   013364 702000 1                  TSX2    JUSTALT

     4076     7877    4                    IF SPANINFO = SPAN_MID

PL6.E3A0      #001=FTW$WRAT File=FTW$WRAT.:E05TSI                                TUE 07/29/97 18:02 Page:557
   7877  1 013343   200044 236100                    LDQ     SPANINFO,,AUTO
         1 013344   200045 116100                    CMPQ    SPAN_MID,,AUTO
         1 013345   013351 601000 1                  TNZ     s:7879

     4077     7878    4                    THEN SPANINFO = 1;

   7878  1 013346   000001 235007                    LDA     1,DL
         1 013347   200044 755100                    STA     SPANINFO,,AUTO
         1 013350   013357 710000 1                  TRA     s:7883

     4078     7879    4                    ELSE IF SPANINFO = SPAN_LAST

   7879  1 013351   200046 116100                    CMPQ    SPAN_LAST,,AUTO
         1 013352   013357 601000 1                  TNZ     s:7883

     4079     7880    4                       THEN SPANINFO = 0;

   7880  1 013353   200044 450100                    STZ     SPANINFO,,AUTO

     4080     7881    4                    END;

   7881  1 013354   013357 710000 1                  TRA     s:7883

     4081     7882    3                 ELSE CALL FTW_PNSB ALTRET(JUSTALT);

   7882  1 013355   013366 701000 1                  TSX1    FTW_PNSB
         1 013356   013364 702000 1                  TSX2    JUSTALT

     4082     7883    3                 END;

   7883  1 013357   200044 235100                    LDA     SPANINFO,,AUTO
         1 013360   000001 115007                    CMPA    1,DL
         1 013361   013336 605400 1                  TPNZ    s:7874

     4083     7884    2              RETURN;

   7884  1 013362   200076 221300                    LDX1  ! @SIZE+3,,AUTO
PL6.E3A0      #001=FTW$WRAT File=FTW$WRAT.:E05TSI                                TUE 07/29/97 18:02 Page:558
         1 013363   000001 702211                    TSX2  ! 1,X1

   7874  1 013364                       JUSTALT      null
     4084     7885
     4085     7886    2   JUSTALT:   ;
     4086     7887    2              ALTRETURN;

   7887  1 013364   200076 221300                    LDX1  ! @SIZE+3,,AUTO
         1 013365   000000 702211                    TSX2  ! 0,X1

     4087     7888
     4088     7889    2      END FTW_NXTRB;
     4089     7890        /*********************************************************************/
     4090     7891        %EJECT;
PL6.E3A0      #001=FTW$WRAT File=FTW$WRAT.:E05TSI                                TUE 07/29/97 18:02 Page:559
     4091     7892        /*********************************************************************/
     4092     7893    1   FTW_PNSB:  PROC ALTRET;

   7893  1 013366   200100 741300       FTW_PNSB     STX1  ! @SIZE+5,,AUTO

     4093     7894        /*F*     NAME: FTW_PNSB
     4094     7895                 PURPOSE: Position to next segment within block.
     4095     7896         ***/
     4096     7897
     4097     7898        /********************/
     4098     7899
     4099     7900    2              F$DCB.CRECX = F$DCB.CRECX + SEGSIZE;

   7900  1 013367   200030 470500                    LDP0    JDCB$,,AUTO
         1 013370   000067 236100                    LDQ     55,,PR0
         1 013371   777777 376007                    ANQ     -1,DL
         1 013372   200041 036100                    ADLQ    SEGSIZE,,AUTO
         1 013373   000000 620006                    EAX0    0,QL
         1 013374   000067 440100                    SXL0    55,,PR0

     4100     7901    2              CALL FTW_CHKSEG ALTRET(JUSTALT);

   7901  1 013375   014373 701000 1                  TSX1    FTW_CHKSEG
         1 013376   013406 702000 1                  TSX2    JUSTALT

     4101     7902    2              CALL FTW_CHKSEGINFO ALTRET(JUSTALT);

   7902  1 013377   013410 701000 1                  TSX1    FTW_CHKSEGINFO
         1 013400   013406 702000 1                  TSX2    JUSTALT

     4102     7903    2              F$DCB.GDISP = RCWSIZE;

   7903  1 013401   200036 235100                    LDA     RCWSIZE,,AUTO
         1 013402   200030 470500                    LDP0    JDCB$,,AUTO
         1 013403   000101 755100                    STA     65,,PR0

     4103     7904    2              RETURN;
PL6.E3A0      #001=FTW$WRAT File=FTW$WRAT.:E05TSI                                TUE 07/29/97 18:02 Page:560

   7904  1 013404   200100 221300                    LDX1  ! @SIZE+5,,AUTO
         1 013405   000001 702211                    TSX2  ! 1,X1

   7903  1 013406                       JUSTALT      null
     4104     7905
     4105     7906    2   JUSTALT:   ;
     4106     7907    2              ALTRETURN;

   7907  1 013406   200100 221300                    LDX1  ! @SIZE+5,,AUTO
         1 013407   000000 702211                    TSX2  ! 0,X1

     4107     7908
     4108     7909    2      END FTW_PNSB;
     4109     7910        /*********************************************************************/
     4110     7911        %EJECT;
PL6.E3A0      #001=FTW$WRAT File=FTW$WRAT.:E05TSI                                TUE 07/29/97 18:02 Page:561
     4111     7912        /*********************************************************************/
     4112     7913    1   FTW_CHKSEGINFO: PROC ALTRET;

   7913  1 013410   200102 741300       FTW_CHKSEGI* STX1  ! @SIZE+7,,AUTO

     4113     7914        /*F*     NAME: FTW_CHKSEGINFO
     4114     7915                 PURPOSE: Check segment size and spanning information.
     4115     7916         ***/
     4116     7917
     4117     7918        /********************/
     4118     7919
     4119     7920    2              CALL FTW_GETSIZE ALTRET(JUSTALT);

   7920  1 013411   012415 701000 1                  TSX1    FTW_GETSIZE
         1 013412   013421 702000 1                  TSX2    JUSTALT

     4120     7921    2              CALL FTW_SPANCHK;

   7921  1 013413   012614 701000 1                  TSX1    FTW_SPANCHK
         1 013414   000000 011000                    NOP     0

     4121     7922    2              CALL FTW_SIZECHK;

   7922  1 013415   012670 701000 1                  TSX1    FTW_SIZECHK
         1 013416   000000 011000                    NOP     0

     4122     7923    2              RETURN;

   7923  1 013417   200102 221300                    LDX1  ! @SIZE+7,,AUTO
         1 013420   000001 702211                    TSX2  ! 1,X1

   7920  1 013421                       JUSTALT      null
     4123     7924
     4124     7925    2   JUSTALT:   ;
     4125     7926    2              ALTRETURN;

   7926  1 013421   200102 221300                    LDX1  ! @SIZE+7,,AUTO
PL6.E3A0      #001=FTW$WRAT File=FTW$WRAT.:E05TSI                                TUE 07/29/97 18:02 Page:562
         1 013422   000000 702211                    TSX2  ! 0,X1

     4126     7927
     4127     7928    2      END FTW_CHKSEGINFO;
     4128     7929        /*********************************************************************/
     4129     7930        %EJECT;
PL6.E3A0      #001=FTW$WRAT File=FTW$WRAT.:E05TSI                                TUE 07/29/97 18:02 Page:563
     4130     7931        /*********************************************************************/
     4131     7932    1   FTW_PNRS:  PROC(SEG) ALTRET;

   7932  1 013423   200072 741300       FTW_PNRS     STX1  ! @FP$+1,,AUTO

     4132     7933        /*F*    NAME: FTW_PNRS
     4133     7934                PURPOSE: Fixed and variable format position to next record or segment.
     4134     7935         ***/
     4135     7936
     4136     7937         /***
     4137     7938          *** Parameter:
     4138     7939          ***/
     4139     7940
     4140     7941    2     DCL SEG SBIN;                   /* 0 - next seg, 1 - next rec, 2 - crnt seg */
     4141     7942
     4142     7943        /********************/
     4143     7944
     4144     7945         /***
     4145     7946          *** Position to next segment or record of block. If end of block, get next.
     4146     7947          ***/
     4147     7948
     4148     7949    3              DO CASE(SEG);

   7949  1 013424   200073 470500                    LDP0    @SEG,,AUTO
         1 013425   000000 235100                    LDA     0,,PR0
         1 013426   000003 115007                    CMPA    3,DL
         1 013427   013431 602005 1                  TNC     s:7949+5,AL
         1 013430   013553 710000 1                  TRA     CHKNEWBLK
         1 013431   013434 710000 1                  TRA     s:7951
         1 013432   013454 710000 1                  TRA     s:7962
         1 013433   013511 710000 1                  TRA     s:7972

     4149     7950    3                 CASE(0);                  /* Next segment                       */

     4150     7951    4                    CALL FTW_PNSB WHENALTRETURN DO;

   7951  1 013434   013366 701000 1                  TSX1    FTW_PNSB
PL6.E3A0      #001=FTW$WRAT File=FTW$WRAT.:E05TSI                                TUE 07/29/97 18:02 Page:564
         1 013435   013437 702000 1                  TSX2    s:7952
         1 013436   013452 710000 1                  TRA     s:7960

     4151     7952    5                       IF F$DCB.OLDIOERR = 1 THEN DO; /* Working on an I/O error? */

   7952  1 013437   200030 470500                    LDP0    JDCB$,,AUTO
         1 013440   000102 236100                    LDQ     66,,PR0
         1 013441   140000 376003                    ANQ     49152,DU
         1 013442   040000 116003                    CMPQ    16384,DU
         1 013443   013553 601000 1                  TNZ     CHKNEWBLK

     4152     7953    5                          F$DCB.TYC.IOERR(1) = '1'B;
              7953                                   /* Yes, tell user we're at end of blk. */

   7953  1 013444   001000 236003                    LDQ     512,DU
         1 013445   000002 256100                    ORSQ    2,,PR0

     4153     7954    5                          B$JIT.ERR = '0'B; /* Clear error.                      */

   7954  1 013446   000000 471400 xsym               LDP1    B$JIT$
         1 013447   100012 450100                    STZ     10,,PR1

     4154     7955    5                          ALTRETURN;

   7955  1 013450   200072 221300                    LDX1  ! @FP$+1,,AUTO
         1 013451   000000 702211                    TSX2  ! 0,X1

     4155     7956    5                          END;
     4156     7957    4                       ELSE
     4157     7958    4                          GOTO CHKNEWBLK;
     4158     7959    4                       END;
     4159     7960    3                    RETURN;

   7960  1 013452   200072 221300                    LDX1  ! @FP$+1,,AUTO
         1 013453   000001 702211                    TSX2  ! 1,X1

     4160     7961    3                 CASE(1);                  /* Next record                        */
PL6.E3A0      #001=FTW$WRAT File=FTW$WRAT.:E05TSI                                TUE 07/29/97 18:02 Page:565

     4161     7962    3                    CALL FTW_PNRB ALTRET(CHKNEWBLK);

   7962  1 013454   013263 701000 1                  TSX1    FTW_PNRB
         1 013455   013553 702000 1                  TSX2    CHKNEWBLK

     4162     7963    3                    F$DCB.CRECNO = F$DCB.CRECNO + 1;

   7963  1 013456   200030 470500                    LDP0    JDCB$,,AUTO
         1 013457   000071 054100                    AOS     57,,PR0

     4163     7964    3                    IF F$DCB.ORG = %KEYED# OR F$DCB.ORG = %INDEXED# OR F$DCB.ORG = %
              7964                             RELATIVE#

   7964  1 013460   000032 236100                    LDQ     26,,PR0
         1 013461   777000 376003                    ANQ     -512,DU
         1 013462   002000 116003                    CMPQ    1024,DU
         1 013463   013470 600000 1                  TZE     s:7966
         1 013464   006000 116003                    CMPQ    3072,DU
         1 013465   013470 600000 1                  TZE     s:7966
         1 013466   005000 116003                    CMPQ    2560,DU
         1 013467   013504 601000 1                  TNZ     s:7969

     4164     7965    4                    THEN DO;

     4165     7966    4                      IF F$DCB.ACS = %SEQUEN# AND (F$DCB.FUN = %CREATE# OR F$DCB.FUN =
              7966                                %UPDATE#)

   7966  1 013470   000036 236100                    LDQ     30,,PR0
         1 013471   000777 376007                    ANQ     511,DL
         1 013472   000001 116007                    CMPQ    1,DL
         1 013473   013504 601000 1                  TNZ     s:7969
         1 013474   000032 236100                    LDQ     26,,PR0
         1 013475   000777 376003                    ANQ     511,DU
         1 013476   000003 116003                    CMPQ    3,DU
         1 013477   013502 600000 1                  TZE     s:7967
         1 013500   000001 116003                    CMPQ    1,DU
PL6.E3A0      #001=FTW$WRAT File=FTW$WRAT.:E05TSI                                TUE 07/29/97 18:02 Page:566
         1 013501   013504 601000 1                  TNZ     s:7969

     4166     7967    4                       THEN CALL FTW_SAVE_LAST_KEY;

   7967  1 013502   011716 701000 1                  TSX1    FTW_SAVE_LAST_KEY
         1 013503   000000 011000                    NOP     0

     4167     7968    4                       END;

     4168     7969    3                    F$DCB.RPOS = %YES#;

   7969  1 013504   200030 470500                    LDP0    JDCB$,,AUTO
         1 013505   010000 236007                    LDQ     4096,DL
         1 013506   000064 256100                    ORSQ    52,,PR0

     4169     7970    3                    RETURN;

   7970  1 013507   200072 221300                    LDX1  ! @FP$+1,,AUTO
         1 013510   000001 702211                    TSX2  ! 1,X1

     4170     7971    3                 CASE(2);                  /* Current segment                    */

     4171     7972    3                   IF F$DCB.TRNC ~= FT_NOTRUNC# THEN CALL FTW_UNDOTRUNC ALTRET(JUSTALT
              7972                             );

   7972  1 013511   200030 471500                    LDP1    JDCB$,,AUTO
         1 013512   100064 236100                    LDQ     52,,PR1
         1 013513   000014 316007                    CANQ    12,DL
         1 013514   013517 600000 1                  TZE     s:7973

   7972  1 013515   012043 701000 1                  TSX1    FTW_UNDOTRUNC
         1 013516   014130 702000 1                  TSX2    JUSTALT

     4172     7973    3                    IF F$DCB.NEW_FSECT

   7973  1 013517   200030 470500                    LDP0    JDCB$,,AUTO
         1 013520   000064 236100                    LDQ     52,,PR0
PL6.E3A0      #001=FTW$WRAT File=FTW$WRAT.:E05TSI                                TUE 07/29/97 18:02 Page:567
         1 013521   000001 316003                    CANQ    1,DU
         1 013522   013534 600000 1                  TZE     s:7979

     4173     7974    4                    THEN DO; /* At beginning of file section...might not have FPOOL */

     4174     7975    4                       CALL FTW_GETAFPOOL$; /* Get FPOOL buffer (pointer)        */

   7975  1 013523   014132 701000 1                  TSX1    FTW_GETAFPOOL$
         1 013524   000000 011000                    NOP     0

     4175     7976    4                       IF F$DCB.FSECT = 1 THEN F$DCB.SPAN = %NO#; /* First seg   */

   7976  1 013525   200030 470500                    LDP0    JDCB$,,AUTO
         1 013526   000077 220100                    LDX0    63,,PR0
         1 013527   000001 100003                    CMPX0   1,DU
         1 013530   013553 601000 1                  TNZ     CHKNEWBLK

   7976  1 013531   000005 236000 2                  LDQ     5
         1 013532   000064 356100                    ANSQ    52,,PR0

     4176     7977    4                       END;

   7977  1 013533   013553 710000 1                  TRA     CHKNEWBLK

     4177     7978    4                    ELSE DO;               /* Not at beginning of file section   */

     4178     7979    4                       AFPOOL$ = FM$BUF$(F$DCB.BFR.BUFX(F$DCB.CBUFNUM));

   7979  1 013534   000070 236100                    LDQ     56,,PR0
         1 013535   000041 772000                    QRL     33
         1 013536   000115 236106                    LDQ     77,QL,PR0
         1 013537   000033 772000                    QRL     27
         1 013540   000037 376007                    ANQ     31,DL
         1 013541   000000 236006 xsym               LDQ     FM$BUF$,QL
         1 013542   200007 756100                    STQ     AFPOOL$,,AUTO

     4179     7980    4                       CALL FTW_CHKSEG ALTRET(CHKNEWBLK);
PL6.E3A0      #001=FTW$WRAT File=FTW$WRAT.:E05TSI                                TUE 07/29/97 18:02 Page:568

   7980  1 013543   014373 701000 1                  TSX1    FTW_CHKSEG
         1 013544   013553 702000 1                  TSX2    CHKNEWBLK

     4180     7981    4                       CALL FTW_CHKSEGINFO ALTRET(JUSTALT);

   7981  1 013545   013410 701000 1                  TSX1    FTW_CHKSEGINFO
         1 013546   014130 702000 1                  TSX2    JUSTALT

     4181     7982    4                       B$JIT.ERR = '0'B;   /* No span errors on first segment    */

   7982  1 013547   000000 470400 xsym               LDP0    B$JIT$
         1 013550   000012 450100                    STZ     10,,PR0

     4182     7983    4                       RETURN;

   7983  1 013551   200072 221300                    LDX1  ! @FP$+1,,AUTO
         1 013552   000001 702211                    TSX2  ! 1,X1

     4183     7984    4                       END;
     4184     7985    3                 END;

   7981  1 013553                       CHKNEWBLK    null
     4185     7986
     4186     7987
     4187     7988         /***
     4188     7989          *** If this is the last block of the file we're at file end.
     4189     7990          ***/
     4190     7991
     4191     7992    2   CHKNEWBLK: ;
     4192     7993    2              IF B$JIT.ERR THEN ALTRETURN;

   7993  1 013553   000000 470400 xsym               LDP0    B$JIT$
         1 013554   000012 235100                    LDA     10,,PR0
         1 013555   013560 600000 1                  TZE     s:7994

   7993  1 013556   200072 221300                    LDX1  ! @FP$+1,,AUTO
PL6.E3A0      #001=FTW$WRAT File=FTW$WRAT.:E05TSI                                TUE 07/29/97 18:02 Page:569
         1 013557   000000 702211                    TSX2  ! 0,X1

     4193     7994    2              IF F$DCB.LSTBLK

   7994  1 013560   200030 471500                    LDP1    JDCB$,,AUTO
         1 013561   100064 236100                    LDQ     52,,PR1
         1 013562   000001 316007                    CANQ    1,DL
         1 013563   013604 600000 1                  TZE     NEEDNXTBLK

     4194     7995    3              THEN DO;                     /* Last block of file                 */

     4195     7996    3                 IF SEG = 1 AND NOT F$DCB.RPOS

   7996  1 013564   200073 473500                    LDP3    @SEG,,AUTO
         1 013565   300000 235100                    LDA     0,,PR3
         1 013566   000001 115007                    CMPA    1,DL
         1 013567   013600 601000 1                  TNZ     s:8002
         1 013570   010000 316007                    CANQ    4096,DL
         1 013571   013600 601000 1                  TNZ     s:8002

     4196     7997    4                 THEN DO;                 /* Encountered EOF...not already there */

     4197     7998    4                    F$DCB.CRECNO = F$DCB.CRECNO + 1;

   7998  1 013572   100071 054100                    AOS     57,,PR1

     4198     7999    4                    F$DCB.NRECX = F$DCB.NRECX + 1;

   7999  1 013573   100100 220100                    LDX0    64,,PR1
         1 013574   000001 621010                    EAX1    1,X0
         1 013575   100100 741100                    STX1    64,,PR1

     4199     8000    4                    F$DCB.RPOS = %YES#;

   8000  1 013576   010000 236007                    LDQ     4096,DL
         1 013577   100064 256100                    ORSQ    52,,PR1

PL6.E3A0      #001=FTW$WRAT File=FTW$WRAT.:E05TSI                                TUE 07/29/97 18:02 Page:570
     4200     8001    4                    END;

     4201     8002    3                 B$JIT.ERR = E_EOF; /*E* ERROR: FTW-E$EOF */

   8002  1 013600   000025 236000 0                  LDQ     E_EOF
         1 013601   000012 756100                    STQ     10,,PR0

     4202     8003    3                 ALTRETURN;

   8003  1 013602   200072 221300                    LDX1  ! @FP$+1,,AUTO
         1 013603   000000 702211                    TSX2  ! 0,X1

     4203     8004    3                 END;
     4204     8005
     4205     8006         /***
     4206     8007          *** Not last block of file.  Read the next block.
     4207     8008          ***/
     4208     8009
     4209     8010    3              DO WHILE('1'B);             /* Until next record is found or error */

   8004  1 013604                       NEEDNXTBLK   null
     4210     8011    3   NEEDNXTBLK:   ;
     4211     8012    3                 IF B$JIT.ERR THEN

   8012  1 013604   000000 470400 xsym               LDP0    B$JIT$
         1 013605   000012 235100                    LDA     10,,PR0
         1 013606   013633 600000 1                  TZE     s:8022

     4212     8013    4                    IF F$DCB.OLDIOERR = 1 OR F$DCB.OLDIOERR = 2 THEN DO;

   8013  1 013607   200030 471500                    LDP1    JDCB$,,AUTO
         1 013610   100102 236100                    LDQ     66,,PR1
         1 013611   140000 376003                    ANQ     49152,DU
         1 013612   040000 116003                    CMPQ    16384,DU
         1 013613   013616 600000 1                  TZE     s:8014
         1 013614   100000 116003                    CMPQ    32768,DU
         1 013615   013631 601000 1                  TNZ     s:8021
PL6.E3A0      #001=FTW$WRAT File=FTW$WRAT.:E05TSI                                TUE 07/29/97 18:02 Page:571

     4213     8014    4                       IF B$JIT.ERR.CODE = %E$LD THEN

   8014  1 013616   000012 236100                    LDQ     10,,PR0
         1 013617   377770 376007                    ANQ     131064,DL
         1 013620   000070 116007                    CMPQ    56,DL
         1 013621   013625 601000 1                  TNZ     s:8017

     4214     8015    4                          F$DCB.TYC.LD(1) = '1'B;

   8015  1 013622   002000 236003                    LDQ     1024,DU
         1 013623   100002 256100                    ORSQ    2,,PR1
         1 013624   013627 710000 1                  TRA     s:8018

     4215     8016    4                       ELSE
     4216     8017    4                          F$DCB.TYC.DI(1) = '1'B;

   8017  1 013625   000400 236003                    LDQ     256,DU
         1 013626   100002 256100                    ORSQ    2,,PR1

     4217     8018    4                       B$JIT.ERR = '0'B;

   8018  1 013627   000012 450100                    STZ     10,,PR0

     4218     8019    4                       END;

   8019  1 013630   013633 710000 1                  TRA     s:8022

     4219     8020    3                    ELSE
     4220     8021    3                       ALTRETURN;

   8021  1 013631   200072 221300                    LDX1  ! @FP$+1,,AUTO
         1 013632   000000 702211                    TSX2  ! 0,X1

     4221     8022    4                 DO CASE(F$DCB.OLDIOERR);

   8022  1 013633   200030 471500                    LDP1    JDCB$,,AUTO
PL6.E3A0      #001=FTW$WRAT File=FTW$WRAT.:E05TSI                                TUE 07/29/97 18:02 Page:572
         1 013634   100102 236100                    LDQ     66,,PR1
         1 013635   000040 772000                    QRL     32
         1 013636   000003 376007                    ANQ     3,DL
         1 013637   000003 116007                    CMPQ    3,DL
         1 013640   013642 602006 1                  TNC     s:8022+7,QL
         1 013641   013662 710000 1                  TRA     s:8030
         1 013642   013662 710000 1                  TRA     s:8030
         1 013643   013645 710000 1                  TRA     s:8024
         1 013644   013660 710000 1                  TRA     s:8028

     4222     8023    4                    CASE(1);               /* Last block got an I/O error.       */

     4223     8024    4                       F$DCB.ARS = 1;

   8024  1 013645   000001 235007                    LDA     1,DL
         1 013646   100000 755100                    STA     0,,PR1

     4224     8025    4                       CALL FTI$SPREC ALTRET(JUSTALT); /* Space past bad block.  */

   8025  1 013647   000002 631400 xsym               EPPR1   B_VECTNIL+2
         1 013650   000000 701000 xent               TSX1    FTI$SPREC
         1 013651   014130 702000 1                  TSX2    JUSTALT

     4225     8026    4                       F$DCB.OLDIOERR = 2;

   8026  1 013652   200030 470500                    LDP0    JDCB$,,AUTO
         1 013653   000102 236100                    LDQ     66,,PR0
         1 013654   000027 376000 2                  ANQ     23
         1 013655   100000 276003                    ORQ     32768,DU
         1 013656   000102 756100                    STQ     66,,PR0
         1 013657   013662 710000 1                  TRA     s:8030

     4226     8027    4                    CASE(2);               /* We're way past the error.          */

     4227     8028    4                       F$DCB.OLDIOERR = 3;

   8028  1 013660   140000 236003                    LDQ     49152,DU
PL6.E3A0      #001=FTW$WRAT File=FTW$WRAT.:E05TSI                                TUE 07/29/97 18:02 Page:573
         1 013661   100102 256100                    ORSQ    66,,PR1

     4228     8029    4                    END;

     4229     8030    3                 F$DCB.ARS = F$DCB.BLKL;

   8030  1 013662   200030 470500                    LDP0    JDCB$,,AUTO
         1 013663   000033 236100                    LDQ     27,,PR0
         1 013664   000022 772000                    QRL     18
         1 013665   000000 756100                    STQ     0,,PR0

     4230     8031    4                 CALL FTW_RDFPOOL WHENALTRETURN DO;

   8031  1 013666   015135 701000 1                  TSX1    FTW_RDFPOOL
         1 013667   013671 702000 1                  TSX2    s:8032
         1 013670   013750 710000 1                  TRA     s:8050

     4231     8032    4                    IF B$JIT.ERR.CODE ~= %E$IOERR THEN

   8032  1 013671   000000 470400 xsym               LDP0    B$JIT$
         1 013672   000012 236100                    LDQ     10,,PR0
         1 013673   377770 376007                    ANQ     131064,DL
         1 013674   000100 116007                    CMPQ    64,DL
         1 013675   013700 600000 1                  TZE     s:8034

     4232     8033    4                       ALTRETURN;

   8033  1 013676   200072 221300                    LDX1  ! @FP$+1,,AUTO
         1 013677   000000 702211                    TSX2  ! 0,X1

     4233     8034    4                    FT$DDT.POSLOST = %NO#; /* Clear POSLOST.                     */

   8034  1 013700   200016 471500                    LDP1    DDDT$,,AUTO
         1 013701   000030 236000 2                  LDQ     24
         1 013702   100006 356100                    ANSQ    6,,PR1

     4234     8035    5                    IF NOT F$DCB.IOERROK AND NOT IOERROK THEN DO;
PL6.E3A0      #001=FTW$WRAT File=FTW$WRAT.:E05TSI                                TUE 07/29/97 18:02 Page:574

   8035  1 013703   200030 473500                    LDP3    JDCB$,,AUTO
         1 013704   300031 236100                    LDQ     25,,PR3
         1 013705   020000 316003                    CANQ    8192,DU
         1 013706   013733 601000 1                  TNZ     s:8044
         1 013707   200027 234100                    SZN     IOERROK,,AUTO
         1 013710   013733 604000 1                  TMI     s:8044

     4235     8036    5                       ERRSAV = B$JIT.ERR; /* Save the error.                    */

   8036  1 013711   000012 236100                    LDQ     10,,PR0
         1 013712   200023 756100                    STQ     ERRSAV,,AUTO

     4236     8037    5                       F$DCB.ARS = -1;     /* Back up to the previous block.     */

   8037  1 013713   000001 335007                    LCA     1,DL
         1 013714   300000 755100                    STA     0,,PR3

     4237     8038    5                       CALL FTI$SPREC ALTRET(JUSTALT);

   8038  1 013715   000002 631400 xsym               EPPR1   B_VECTNIL+2
         1 013716   000000 701000 xent               TSX1    FTI$SPREC
         1 013717   014130 702000 1                  TSX2    JUSTALT

     4238     8039    5                       F$DCB.ARS = F$DCB.BLKL; /* Reread it.                     */

   8039  1 013720   200030 470500                    LDP0    JDCB$,,AUTO
         1 013721   000033 236100                    LDQ     27,,PR0
         1 013722   000022 772000                    QRL     18
         1 013723   000000 756100                    STQ     0,,PR0

     4239     8040    5                       CALL FTW_RDFPOOL ALTRET(JUSTALT);

   8040  1 013724   015135 701000 1                  TSX1    FTW_RDFPOOL
         1 013725   014130 702000 1                  TSX2    JUSTALT

     4240     8041    5                       B$JIT.ERR = ERRSAV; /* Restore the error.                 */
PL6.E3A0      #001=FTW$WRAT File=FTW$WRAT.:E05TSI                                TUE 07/29/97 18:02 Page:575

   8041  1 013726   200023 236100                    LDQ     ERRSAV,,AUTO
         1 013727   000000 470400 xsym               LDP0    B$JIT$
         1 013730   000012 756100                    STQ     10,,PR0

     4241     8042    5                       ALTRETURN;

   8042  1 013731   200072 221300                    LDX1  ! @FP$+1,,AUTO
         1 013732   000000 702211                    TSX2  ! 0,X1

     4242     8043    5                       END;
     4243     8044    4                    CALL FTW_GETBLKLEN;    /* Get and check real block length.   */

   8044  1 013733   012171 701000 1                  TSX1    FTW_GETBLKLEN
         1 013734   000000 011000                    NOP     0

     4244     8045    4                    F$DCB.OLDIOERR = 1;    /* Remember we hit an I/O error.      */

   8045  1 013735   200030 470500                    LDP0    JDCB$,,AUTO
         1 013736   000102 236100                    LDQ     66,,PR0
         1 013737   000027 376000 2                  ANQ     23
         1 013740   040000 276003                    ORQ     16384,DU
         1 013741   000102 756100                    STQ     66,,PR0

     4245     8046    4                    F$DCB.BLKLEN = F$DCB.ARS; /* Save the size of the block.     */

   8046  1 013742   000000 720100                    LXL0    0,,PR0
         1 013743   000074 440100                    SXL0    60,,PR0

     4246     8047    4                    F$DCB.TYC.IOERR(1) = '1'B; /* Set IOERR in TYC.              */

   8047  1 013744   001000 236003                    LDQ     512,DU
         1 013745   000002 256100                    ORSQ    2,,PR0

     4247     8048    4                    B$JIT.ERR = '0'B;      /* Clear error.                       */

   8048  1 013746   000000 471400 xsym               LDP1    B$JIT$
PL6.E3A0      #001=FTW$WRAT File=FTW$WRAT.:E05TSI                                TUE 07/29/97 18:02 Page:576
         1 013747   100012 450100                    STZ     10,,PR1

     4248     8049    4                    END;

     4249     8050    4                 IF NOT F$DCB.TYC.EOF(1) THEN DO; /* File mark not encountered   */

   8050  1 013750   200030 470500                    LDP0    JDCB$,,AUTO
         1 013751   000002 236100                    LDQ     2,,PR0
         1 013752   004000 316003                    CANQ    2048,DU
         1 013753   014060 601000 1                  TNZ     s:8083

     4250     8051    4                    F$DCB.NEW_FSECT = %NO#; /* Have block from section           */

   8051  1 013754   000034 236000 2                  LDQ     28
         1 013755   000064 356100                    ANSQ    52,,PR0

     4251     8052    4                    IF F$DCB.AFTRBLK THEN

   8052  1 013756   000064 236100                    LDQ     52,,PR0
         1 013757   000002 316007                    CANQ    2,DL
         1 013760   013763 600000 1                  TZE     s:8055

     4252     8053    4                       F$DCB.PRECNO = F$DCB.PRECNO + 1; /* Now after block       */

   8053  1 013761   000072 054100                    AOS     58,,PR0
         1 013762   013765 710000 1                  TRA     s:8056

     4253     8054    4                    ELSE
     4254     8055    4                       F$DCB.AFTRBLK = %YES#;

   8055  1 013763   000002 236007                    LDQ     2,DL
         1 013764   000064 256100                    ORSQ    52,,PR0

     4255     8056    5                    IF SEG ~= 1 THEN DO;   /* Position to first segment          */

   8056  1 013765   200073 471500                    LDP1    @SEG,,AUTO
         1 013766   100000 235100                    LDA     0,,PR1
PL6.E3A0      #001=FTW$WRAT File=FTW$WRAT.:E05TSI                                TUE 07/29/97 18:02 Page:577
         1 013767   000001 115007                    CMPA    1,DL
         1 013770   014026 600000 1                  TZE     s:8069

     4256     8057    5                       F$DCB.CRECX = F$DCB.BOL;

   8057  1 013771   000034 720100                    LXL0    28,,PR0
         1 013772   000777 360003                    ANX0    511,DU
         1 013773   000067 440100                    SXL0    55,,PR0

     4257     8058    5                       CALL FTW_CHKSEG ALTRET(NEEDNXTBLK);

   8058  1 013774   014373 701000 1                  TSX1    FTW_CHKSEG
         1 013775   013604 702000 1                  TSX2    NEEDNXTBLK

     4258     8059    5                       CALL FTW_CHKSEGINFO ALTRET(JUSTALT);

   8059  1 013776   013410 701000 1                  TSX1    FTW_CHKSEGINFO
         1 013777   014130 702000 1                  TSX2    JUSTALT

     4259     8060    6                      IF B$JIT.ERR AND (F$DCB.OLDIOERR = 1 OR F$DCB.OLDIOERR = 2) THEN
              8060                                DO;

   8060  1 014000   000000 470400 xsym               LDP0    B$JIT$
         1 014001   000012 235100                    LDA     10,,PR0
         1 014002   014015 600000 1                  TZE     s:8064
         1 014003   200030 471500                    LDP1    JDCB$,,AUTO
         1 014004   100102 236100                    LDQ     66,,PR1
         1 014005   140000 376003                    ANQ     49152,DU
         1 014006   040000 116003                    CMPQ    16384,DU
         1 014007   014012 600000 1                  TZE     s:8061
         1 014010   100000 116003                    CMPQ    32768,DU
         1 014011   014015 601000 1                  TNZ     s:8064

     4260     8061    6                          F$DCB.TYC.DI(1) = '1'B;

   8061  1 014012   000400 236003                    LDQ     256,DU
         1 014013   100002 256100                    ORSQ    2,,PR1
PL6.E3A0      #001=FTW$WRAT File=FTW$WRAT.:E05TSI                                TUE 07/29/97 18:02 Page:578

     4261     8062    6                          B$JIT.ERR = '0'B;

   8062  1 014014   000012 450100                    STZ     10,,PR0

     4262     8063    6                          END;

     4263     8064    5                       F$DCB.GDISP = RCWSIZE;

   8064  1 014015   200036 235100                    LDA     RCWSIZE,,AUTO
         1 014016   200030 471500                    LDP1    JDCB$,,AUTO
         1 014017   100101 755100                    STA     65,,PR1

     4264     8065    5                       IF SEG = 0 THEN

   8065  1 014020   200073 473500                    LDP3    @SEG,,AUTO
         1 014021   300000 235100                    LDA     0,,PR3
         1 014022   014056 601000 1                  TNZ     s:8075

     4265     8066    5                          F$DCB.NRECX = 0;

   8066  1 014023   000000 220003                    LDX0    0,DU
         1 014024   100100 740100                    STX0    64,,PR1

     4266     8067    5                       END;

   8067  1 014025   014056 710000 1                  TRA     s:8075

     4267     8068    5                    ELSE DO;

     4268     8069    5                       CALL FTW_P1RB ALTRET(NEEDNXTBLK);
              8069                                /* Position to 1st record of block */

   8069  1 014026   013177 701000 1                  TSX1    FTW_P1RB
         1 014027   013604 702000 1                  TSX2    NEEDNXTBLK

     4269     8070    5                       F$DCB.CRECNO = F$DCB.CRECNO + 1;
PL6.E3A0      #001=FTW$WRAT File=FTW$WRAT.:E05TSI                                TUE 07/29/97 18:02 Page:579

   8070  1 014030   200030 470500                    LDP0    JDCB$,,AUTO
         1 014031   000071 054100                    AOS     57,,PR0

     4270     8071    5                      IF F$DCB.ORG = %KEYED# OR F$DCB.ORG = %INDEXED# OR F$DCB.ORG = %
              8071                                RELATIVE# THEN

   8071  1 014032   000032 236100                    LDQ     26,,PR0
         1 014033   777000 376003                    ANQ     -512,DU
         1 014034   002000 116003                    CMPQ    1024,DU
         1 014035   014042 600000 1                  TZE     s:8072
         1 014036   006000 116003                    CMPQ    3072,DU
         1 014037   014042 600000 1                  TZE     s:8072
         1 014040   005000 116003                    CMPQ    2560,DU
         1 014041   014056 601000 1                  TNZ     s:8075

     4271     8072    5                          IF F$DCB.ACS = %SEQUEN# AND (F$DCB.FUN = %CREATE# OR F$DCB.
              8072                                   FUN = %UPDATE#) THEN

   8072  1 014042   000036 236100                    LDQ     30,,PR0
         1 014043   000777 376007                    ANQ     511,DL
         1 014044   000001 116007                    CMPQ    1,DL
         1 014045   014056 601000 1                  TNZ     s:8075
         1 014046   000032 236100                    LDQ     26,,PR0
         1 014047   000777 376003                    ANQ     511,DU
         1 014050   000003 116003                    CMPQ    3,DU
         1 014051   014054 600000 1                  TZE     s:8073
         1 014052   000001 116003                    CMPQ    1,DU
         1 014053   014056 601000 1                  TNZ     s:8075

     4272     8073    5                             CALL FTW_SAVE_LAST_KEY;

   8073  1 014054   011716 701000 1                  TSX1    FTW_SAVE_LAST_KEY
         1 014055   000000 011000                    NOP     0

     4273     8074    5                       END;

PL6.E3A0      #001=FTW$WRAT File=FTW$WRAT.:E05TSI                                TUE 07/29/97 18:02 Page:580
     4274     8075    4                    RETURN;

   8075  1 014056   200072 221300                    LDX1  ! @FP$+1,,AUTO
         1 014057   000001 702211                    TSX2  ! 1,X1

     4275     8076    4                    END;
     4276     8077
     4277     8078         /***
     4278     8079             *** A tape mark was encountered while trying to read the next
     4279     8080             *** block (tape record)--do end of file section processing.
     4280     8081             ***/
     4281     8082
     4282     8083    3                 CALL FTL$EOF(EOXL) ALTRET(CHKCVOLE); /* Handle following labels */

   8083  1 014060   200022 631500                    EPPR1   EOXL,,AUTO
         1 014061   200112 451500                    STP1    @FIELD_LENGTH+2,,AUTO
         1 014062   200112 630500                    EPPR0   @FIELD_LENGTH+2,,AUTO
         1 014063   000017 631400 xsym               EPPR1   B_VECTNIL+15
         1 014064   000000 701000 xent               TSX1    FTL$EOF
         1 014065   014073 702000 1                  TSX2    CHKCVOLE

     4283     8084    3                 F$DCB.PRECNO = 0;         /* Before first block                 */

   8084  1 014066   200030 470500                    LDP0    JDCB$,,AUTO
         1 014067   000072 450100                    STZ     58,,PR0

     4284     8085    3                 F$DCB.AFTRBLK = %YES#;

   8085  1 014070   000002 236007                    LDQ     2,DL
         1 014071   000064 256100                    ORSQ    52,,PR0

     4285     8086    3                 END;

   8086  1 014072   013604 710000 1                  TRA     NEEDNXTBLK

   8072  1 014073                       CHKCVOLE     null
     4286     8087
PL6.E3A0      #001=FTW$WRAT File=FTW$WRAT.:E05TSI                                TUE 07/29/97 18:02 Page:581
     4287     8088         /***
     4288     8089          *** If end of file, "position" to next (nonexistent) record.
     4289     8090          *** If nothing in this section, fake a block.
     4290     8091          ***/
     4291     8092
     4292     8093    2   CHKCVOLE:  ;
     4293     8094    2              IF B$JIT.ERR.CODE = %E$EOF

   8094  1 014073   000000 470400 xsym               LDP0    B$JIT$
         1 014074   000012 236100                    LDQ     10,,PR0
         1 014075   377770 376007                    ANQ     131064,DL
         1 014076   000060 116007                    CMPQ    48,DL
         1 014077   014107 601000 1                  TNZ     s:8101

     4294     8095    3              THEN DO;                  /* First eof encounter...position to eof */

     4295     8096    3                 F$DCB.CRECNO = F$DCB.CRECNO + 1;

   8096  1 014100   200030 471500                    LDP1    JDCB$,,AUTO
         1 014101   100071 054100                    AOS     57,,PR1

     4296     8097    3                 F$DCB.NRECX = F$DCB.NRECX + 1;

   8097  1 014102   100100 220100                    LDX0    64,,PR1
         1 014103   000001 621010                    EAX1    1,X0
         1 014104   100100 741100                    STX1    64,,PR1

     4297     8098    3                 F$DCB.RPOS = %YES#;

   8098  1 014105   010000 236007                    LDQ     4096,DL
         1 014106   100064 256100                    ORSQ    52,,PR1

     4298     8099    3                 END;

     4299     8100
     4300     8101    2              IF F$DCB.PRECNO <= 0

PL6.E3A0      #001=FTW$WRAT File=FTW$WRAT.:E05TSI                                TUE 07/29/97 18:02 Page:582
   8101  1 014107   200030 471500                    LDP1    JDCB$,,AUTO
         1 014110   100072 235100                    LDA     58,,PR1
         1 014111   014130 605400 1                  TPNZ    JUSTALT

     4301     8102    3              THEN DO;    /* No data blocks in this section...get ready to write */

     4302     8103    3                 F$DCB.PRECNO = 1;

   8103  1 014112   000001 236007                    LDQ     1,DL
         1 014113   100072 756100                    STQ     58,,PR1

     4303     8104    3                 F$DCB.AFTRBLK = %NO#;

   8104  1 014114   000035 236000 2                  LDQ     29
         1 014115   100064 356100                    ANSQ    52,,PR1

     4304     8105    3                 F$DCB.BLKLEN = F$DCB.BOL;

   8105  1 014116   100034 720100                    LXL0    28,,PR1
         1 014117   000777 360003                    ANX0    511,DU
         1 014120   100074 440100                    SXL0    60,,PR1

     4305     8106    3                 F$DCB.CRECX = F$DCB.BOL;

   8106  1 014121   100067 440100                    SXL0    55,,PR1

     4306     8107    3                 F$DCB.NRECX = 0;

   8107  1 014122   000000 221003                    LDX1    0,DU
         1 014123   100100 741100                    STX1    64,,PR1

     4307     8108    3                 F$DCB.GDISP = RCWSIZE;

   8108  1 014124   200036 235100                    LDA     RCWSIZE,,AUTO
         1 014125   100101 755100                    STA     65,,PR1

     4308     8109    3                 CALL FTW_SETBLKLEN;       /* Get ready to add records           */
PL6.E3A0      #001=FTW$WRAT File=FTW$WRAT.:E05TSI                                TUE 07/29/97 18:02 Page:583

   8109  1 014126   012232 701000 1                  TSX1    FTW_SETBLKLEN
         1 014127   000000 011000                    NOP     0

     4309     8110    3                 END;

   8110  1 014130                       JUSTALT      null
     4310     8111
     4311     8112    2   JUSTALT:   ;
     4312     8113    2              ALTRETURN;

   8113  1 014130   200072 221300                    LDX1  ! @FP$+1,,AUTO
         1 014131   000000 702211                    TSX2  ! 0,X1

     4313     8114    2      END FTW_PNRS;
     4314     8115        /*********************************************************************/
     4315     8116        %EJECT;
PL6.E3A0      #001=FTW$WRAT File=FTW$WRAT.:E05TSI                                TUE 07/29/97 18:02 Page:584
     4316     8117        /********************************************************************/
     4317     8118    1   FTW_GETAFPOOL$: PROC;

   8118  1 014132   200074 741300       FTW_GETAFPO* STX1  ! @SIZE+1,,AUTO

     4318     8119        /*F*     NAME: FTW_GETAFPOOL$
     4319     8120                 PURPOSE: Get (FPOOL and) pointer to current FPOOL buffer.
     4320     8121         ***/
     4321     8122
     4322     8123        /********************/
     4323     8124
     4324     8125    2              IF F$DCB.BFR.BUFX(F$DCB.CBUFNUM) = 0

   8125  1 014133   200030 470500                    LDP0    JDCB$,,AUTO
         1 014134   000070 236100                    LDQ     56,,PR0
         1 014135   000041 772000                    QRL     33
         1 014136   000115 236106                    LDQ     77,QL,PR0
         1 014137   037000 316003                    CANQ    15872,DU
         1 014140   014166 601000 1                  TNZ     s:8130

     4325     8126    3              THEN DO;                     /* Get FPOOL                          */

     4326     8127    3                 CALL FMD$GETBUF(FT_RBUF1,(F$DCB.BLKL+4095)/4096,AFPOOL$);

   8127  1 014141   000033 236100                    LDQ     27,,PR0
         1 014142   000022 772000                    QRL     18
         1 014143   007777 036007                    ADLQ    4095,DL
         1 014144   000014 772000                    QRL     12
         1 014145   200112 756100                    STQ     @FIELD_LENGTH+2,,AUTO
         1 014146   200007 631500                    EPPR1   AFPOOL$,,AUTO
         1 014147   200115 451500                    STP1    @FIELD_LENGTH+5,,AUTO
         1 014150   200112 633500                    EPPR3   @FIELD_LENGTH+2,,AUTO
         1 014151   200114 453500                    STP3    @FIELD_LENGTH+4,,AUTO
         1 014152   000020 236000 2                  LDQ     16
         1 014153   200113 756100                    STQ     @FIELD_LENGTH+3,,AUTO
         1 014154   200113 630500                    EPPR0   @FIELD_LENGTH+3,,AUTO
         1 014155   000021 631400 xsym               EPPR1   B_VECTNIL+17
PL6.E3A0      #001=FTW$WRAT File=FTW$WRAT.:E05TSI                                TUE 07/29/97 18:02 Page:585
         1 014156   000000 701000 xent               TSX1    FMD$GETBUF
         1 014157   000000 011000                    NOP     0

     4327     8128    3                 F$DCB.CBUFNUM = FT_RBUF1;

   8128  1 014160   200030 470500                    LDP0    JDCB$,,AUTO
         1 014161   000070 236100                    LDQ     56,,PR0
         1 014162   000022 376000 2                  ANQ     18
         1 014163   300000 276003                    ORQ     98304,DU
         1 014164   000070 756100                    STQ     56,,PR0

     4328     8129    3                 END;

   8129  1 014165   014175 710000 1                  TRA     s:8131

     4329     8130    2              ELSE AFPOOL$ = FM$BUF$(F$DCB.BFR.BUFX(F$DCB.CBUFNUM));

   8130  1 014166   000070 236100                    LDQ     56,,PR0
         1 014167   000041 772000                    QRL     33
         1 014170   000115 236106                    LDQ     77,QL,PR0
         1 014171   000033 772000                    QRL     27
         1 014172   000037 376007                    ANQ     31,DL
         1 014173   000000 236006 xsym               LDQ     FM$BUF$,QL
         1 014174   200007 756100                    STQ     AFPOOL$,,AUTO

     4330     8131    2              RETURN;

   8131  1 014175   200074 221300                    LDX1  ! @SIZE+1,,AUTO
         1 014176   000001 702211                    TSX2  ! 1,X1

     4331     8132
     4332     8133    2      END FTW_GETAFPOOL$;
     4333     8134        /********************************************************************/
     4334     8135        %EJECT;
PL6.E3A0      #001=FTW$WRAT File=FTW$WRAT.:E05TSI                                TUE 07/29/97 18:02 Page:586
     4335     8136        /********************************************************************/
     4336     8137    1   FTW_TMPFPOOL: PROC(FP$,FPNUM,SIZE) ALTRET;

   8137  1 014177   200070 741300       FTW_TMPFPOOL STX1  ! TEMP+1,,AUTO

     4337     8138        /*F*     NAME: FTW_TMPFPOOL
     4338     8139                 PURPOSE: Get an unused FPOOL to use as a temporary buffer.
     4339     8140         ***/
     4340     8141
     4341     8142    2     DCL FP$ PTR;
     4342     8143    2     DCL FPNUM UBIN;
     4343     8144    2     DCL SIZE UBIN;
     4344     8145
     4345     8146        /********************/
     4346     8147
     4347     8148    2              FP$ = ADDR(NIL);

   8148  1 014200   000001 236000 xsym               LDQ     B_VECTNIL+1
         1 014201   200071 470500                    LDP0    @FP$,,AUTO
         1 014202   000000 756100                    STQ     0,,PR0

     4348     8149    2   GETFP:
     4349     8150    3              DO I = 0 TO 4;

   8150  1 014203   200026 450100       GETFP        STZ     I,,AUTO

     4350     8151    4                 IF F$DCB.BFR.BUFX(I) = 0 THEN DO; /* Find an unused FPOOL.      */

   8151  1 014204   200030 470500                    LDP0    JDCB$,,AUTO
         1 014205   200026 720100                    LXL0    I,,AUTO
         1 014206   000115 236110                    LDQ     77,X0,PR0
         1 014207   037000 316003                    CANQ    15872,DU
         1 014210   014231 601000 1                  TNZ     s:8155

     4351     8152    4                    CALL FMD$GETBUF(I,(SIZE+4095)/4096,FP$);

   8152  1 014211   200073 471500                    LDP1    @SIZE,,AUTO
PL6.E3A0      #001=FTW$WRAT File=FTW$WRAT.:E05TSI                                TUE 07/29/97 18:02 Page:587
         1 014212   100000 236100                    LDQ     0,,PR1
         1 014213   007777 036007                    ADLQ    4095,DL
         1 014214   000014 772000                    QRL     12
         1 014215   200112 756100                    STQ     @FIELD_LENGTH+2,,AUTO
         1 014216   200071 236100                    LDQ     @FP$,,AUTO
         1 014217   200115 756100                    STQ     @FIELD_LENGTH+5,,AUTO
         1 014220   200112 633500                    EPPR3   @FIELD_LENGTH+2,,AUTO
         1 014221   200114 453500                    STP3    @FIELD_LENGTH+4,,AUTO
         1 014222   200026 634500                    EPPR4   I,,AUTO
         1 014223   200113 454500                    STP4    @FIELD_LENGTH+3,,AUTO
         1 014224   200113 630500                    EPPR0   @FIELD_LENGTH+3,,AUTO
         1 014225   000021 631400 xsym               EPPR1   B_VECTNIL+17
         1 014226   000000 701000 xent               TSX1    FMD$GETBUF
         1 014227   000000 011000                    NOP     0

     4352     8153    4                    EXIT GETFP;

   8153  1 014230   014236 710000 1                  TRA     s:8156

     4353     8154    4                    END;
     4354     8155    3                 END GETFP;

   8155  1 014231   200026 235100                    LDA     I,,AUTO
         1 014232   000001 035007                    ADLA    1,DL
         1 014233   200026 755100                    STA     I,,AUTO
         1 014234   000005 115007                    CMPA    5,DL
         1 014235   014204 602000 1                  TNC     s:8151

     4355     8156    3              IF FP$ = ADDR(NIL) THEN DO;

   8156  1 014236   200071 470500                    LDP0    @FP$,,AUTO
         1 014237   000000 236100                    LDQ     0,,PR0
         1 014240   000001 116000 xsym               CMPQ    B_VECTNIL+1
         1 014241   014247 601000 1                  TNZ     s:8160

     4356     8157    3                 B$JIT.ERR = E_NOFPOOL; /*E* ERROR:  FTW-E$NOFPOOL */

PL6.E3A0      #001=FTW$WRAT File=FTW$WRAT.:E05TSI                                TUE 07/29/97 18:02 Page:588
   8157  1 014242   000036 236000 0                  LDQ     E_NOFPOOL
         1 014243   000000 471400 xsym               LDP1    B$JIT$
         1 014244   100012 756100                    STQ     10,,PR1

     4357     8158    3                 ALTRETURN;

   8158  1 014245   200070 221300                    LDX1  ! TEMP+1,,AUTO
         1 014246   000000 702211                    TSX2  ! 0,X1

     4358     8159    3                 END;
     4359     8160    2              FPNUM = I;

   8160  1 014247   200072 471500                    LDP1    @FPNUM,,AUTO
         1 014250   200026 235100                    LDA     I,,AUTO
         1 014251   100000 755100                    STA     0,,PR1

     4360     8161    2              RETURN;

   8161  1 014252   200070 221300                    LDX1  ! TEMP+1,,AUTO
         1 014253   000001 702211                    TSX2  ! 1,X1

     4361     8162
     4362     8163    2      END FTW_TMPFPOOL;
     4363     8164        /********************************************************************/
     4364     8165        %EJECT;
PL6.E3A0      #001=FTW$WRAT File=FTW$WRAT.:E05TSI                                TUE 07/29/97 18:02 Page:589
     4365     8166        /*********************************************************************/
     4366     8167    1   FTW_PNUR:  PROC ALTRET;

   8167  1 014254   200072 741300       FTW_PNUR     STX1  ! @FPNUM,,AUTO

     4367     8168        /*F*     NAME: FTW_PNUR
     4368     8169                 PURPOSE: Position (read) next record of user buffer format file.
     4369     8170         ***/
     4370     8171
     4371     8172        /********************/
     4372     8173
     4373     8174    2              AFPOOL$ = ADDR(TEMP);        /* Pointer to input buffer            */

   8174  1 014255   200047 630500                    EPPR0   TEMP,,AUTO
         1 014256   200007 450500                    STP0    AFPOOL$,,AUTO

     4374     8175    3              IF F$DCB.LSTBLK THEN DO;     /* At end of file                     */

   8175  1 014257   200030 471500                    LDP1    JDCB$,,AUTO
         1 014260   100064 236100                    LDQ     52,,PR1
         1 014261   000001 316007                    CANQ    1,DL
         1 014262   014270 600000 1                  TZE     s:8180

     4375     8176    3                 B$JIT.ERR = E_EOF; /*E* ERROR: FTW-E$EOF       */

   8176  1 014263   000025 236000 0                  LDQ     E_EOF
         1 014264   000000 473400 xsym               LDP3    B$JIT$
         1 014265   300012 756100                    STQ     10,,PR3

     4376     8177    3                 ALTRETURN;

   8177  1 014266   200072 221300                    LDX1  ! @FPNUM,,AUTO
         1 014267   000000 702211                    TSX2  ! 0,X1

     4377     8178    3                 END;
     4378     8179    3              DO WHILE('1'B);

PL6.E3A0      #001=FTW$WRAT File=FTW$WRAT.:E05TSI                                TUE 07/29/97 18:02 Page:590
     4379     8180    4                 IF F$DCB.OLDIOERR = 1 THEN DO;
              8180                          /* Had an I/O error on the last block. */

   8180  1 014270   200030 470500                    LDP0    JDCB$,,AUTO
         1 014271   000102 236100                    LDQ     66,,PR0
         1 014272   140000 376003                    ANQ     49152,DU
         1 014273   040000 116003                    CMPQ    16384,DU
         1 014274   014305 601000 1                  TNZ     s:8185

     4380     8181    4                    F$DCB.ARS = 1;

   8181  1 014275   000001 235007                    LDA     1,DL
         1 014276   000000 755100                    STA     0,,PR0

     4381     8182    4                    CALL FTI$SPREC ALTRET(JUSTALT); /* Space past bad block.     */

   8182  1 014277   000002 631400 xsym               EPPR1   B_VECTNIL+2
         1 014300   000000 701000 xent               TSX1    FTI$SPREC
         1 014301   014371 702000 1                  TSX2    JUSTALT

     4382     8183    4                    F$DCB.OLDIOERR = 3;

   8183  1 014302   200030 470500                    LDP0    JDCB$,,AUTO
         1 014303   140000 236003                    LDQ     49152,DU
         1 014304   000102 256100                    ORSQ    66,,PR0

     4383     8184    4                    END;

     4384     8185    3                 F$DCB.ARS = 4;

   8185  1 014305   000004 235007                    LDA     4,DL
         1 014306   000000 755100                    STA     0,,PR0

     4385     8186    4                 CALL FTW_RDFPOOL WHENALTRETURN DO;

   8186  1 014307   015135 701000 1                  TSX1    FTW_RDFPOOL
         1 014310   014312 702000 1                  TSX2    s:8187
PL6.E3A0      #001=FTW$WRAT File=FTW$WRAT.:E05TSI                                TUE 07/29/97 18:02 Page:591
         1 014311   014343 710000 1                  TRA     s:8196

     4386     8187    4                    IF B$JIT.ERR.CODE ~= %E$IOERR THEN

   8187  1 014312   000000 470400 xsym               LDP0    B$JIT$
         1 014313   000012 236100                    LDQ     10,,PR0
         1 014314   377770 376007                    ANQ     131064,DL
         1 014315   000100 116007                    CMPQ    64,DL
         1 014316   014321 600000 1                  TZE     s:8189

     4387     8188    4                       ALTRETURN;

   8188  1 014317   200072 221300                    LDX1  ! @FPNUM,,AUTO
         1 014320   000000 702211                    TSX2  ! 0,X1

     4388     8189    4                    FT$DDT.POSLOST = %NO#; /* Clear POSLOST.                     */

   8189  1 014321   200016 471500                    LDP1    DDDT$,,AUTO
         1 014322   000030 236000 2                  LDQ     24
         1 014323   100006 356100                    ANSQ    6,,PR1

     4389     8190    4                    IF NOT F$DCB.IOERROK AND NOT IOERROK THEN

   8190  1 014324   200030 473500                    LDP3    JDCB$,,AUTO
         1 014325   300031 236100                    LDQ     25,,PR3
         1 014326   020000 316003                    CANQ    8192,DU
         1 014327   014334 601000 1                  TNZ     s:8192
         1 014330   200027 234100                    SZN     IOERROK,,AUTO
         1 014331   014334 604000 1                  TMI     s:8192

     4390     8191    4                       ALTRETURN;

   8191  1 014332   200072 221300                    LDX1  ! @FPNUM,,AUTO
         1 014333   000000 702211                    TSX2  ! 0,X1

     4391     8192    4                    F$DCB.OLDIOERR = 1;

PL6.E3A0      #001=FTW$WRAT File=FTW$WRAT.:E05TSI                                TUE 07/29/97 18:02 Page:592
   8192  1 014334   300102 236100                    LDQ     66,,PR3
         1 014335   000027 376000 2                  ANQ     23
         1 014336   040000 276003                    ORQ     16384,DU
         1 014337   300102 756100                    STQ     66,,PR3

     4392     8193    4                    F$DCB.TYC.IOERR(1) = '1'B;

   8193  1 014340   001000 236003                    LDQ     512,DU
         1 014341   300002 256100                    ORSQ    2,,PR3

     4393     8194    4                    B$JIT.ERR = '0'B;

   8194  1 014342   000012 450100                    STZ     10,,PR0

     4394     8195    4                    END;

     4395     8196    3                 CALL HFC$CACHECLR;        /* Clear cache to access real buffer  */

   8196  1 014343   000002 631400 xsym               EPPR1   B_VECTNIL+2
         1 014344   000000 701000 xent               TSX1    HFC$CACHECLR
         1 014345   000000 011000                    NOP     0

     4396     8197    3                 IF F$DCB.TYC.EOF(1) THEN

   8197  1 014346   200030 470500                    LDP0    JDCB$,,AUTO
         1 014347   000002 236100                    LDQ     2,,PR0
         1 014350   004000 316003                    CANQ    2048,DU
         1 014351   014361 600000 1                  TZE     s:8200

     4397     8198    3                    CALL FTL$EOF(EOXL) ALTRET(JUSTALT);
              8198                             /* Handle labels following file mark */

   8198  1 014352   200022 631500                    EPPR1   EOXL,,AUTO
         1 014353   200112 451500                    STP1    @FIELD_LENGTH+2,,AUTO
         1 014354   200112 630500                    EPPR0   @FIELD_LENGTH+2,,AUTO
         1 014355   000017 631400 xsym               EPPR1   B_VECTNIL+15
         1 014356   000000 701000 xent               TSX1    FTL$EOF
PL6.E3A0      #001=FTW$WRAT File=FTW$WRAT.:E05TSI                                TUE 07/29/97 18:02 Page:593
         1 014357   014371 702000 1                  TSX2    JUSTALT
         1 014360   014270 710000 1                  TRA     s:8180

     4398     8199    4                 ELSE DO;                  /* Read next record                   */

     4399     8200    4                    F$DCB.PRECNO = F$DCB.PRECNO + 1;

   8200  1 014361   000072 054100                    AOS     58,,PR0

     4400     8201    4                    F$DCB.CRECNO = F$DCB.CRECNO + 1;

   8201  1 014362   000071 054100                    AOS     57,,PR0

     4401     8202    4                    F$DCB.LASTKEY = TEMP;

   8202  1 014363   200047 235100                    LDA     TEMP,,AUTO
         1 014364   000065 755100                    STA     53,,PR0

     4402     8203    4                    F$DCB.TAPTYP.HAVLASTKEY = %YES#;

   8203  1 014365   000040 236003                    LDQ     32,DU
         1 014366   000067 256100                    ORSQ    55,,PR0

     4403     8204    4                    RETURN;

   8204  1 014367   200072 221300                    LDX1  ! @FPNUM,,AUTO
         1 014370   000001 702211                    TSX2  ! 1,X1

     4404     8205    4                    END;
     4405     8206    3                 END;

   8203  1 014371                       JUSTALT      null
     4406     8207
     4407     8208    2   JUSTALT:   ;
     4408     8209    2              ALTRETURN;

   8209  1 014371   200072 221300                    LDX1  ! @FPNUM,,AUTO
PL6.E3A0      #001=FTW$WRAT File=FTW$WRAT.:E05TSI                                TUE 07/29/97 18:02 Page:594
         1 014372   000000 702211                    TSX2  ! 0,X1

     4409     8210
     4410     8211    2      END FTW_PNUR;
     4411     8212        /*********************************************************************/
     4412     8213        %EJECT;
PL6.E3A0      #001=FTW$WRAT File=FTW$WRAT.:E05TSI                                TUE 07/29/97 18:02 Page:595
     4413     8214        /*********************************************************************/
     4414     8215    1   FTW_CHKSEG: PROC ALTRET;

   8215  1 014373   200102 741300       FTW_CHKSEG   STX1  ! @SIZE+7,,AUTO

     4415     8216        /*F*     NAME: FTW_CHKSEG
     4416     8217                 PURPOSE: Check if current input segment can reside within block.
     4417     8218         ***/
     4418     8219
     4419     8220        /********************/
     4420     8221
     4421     8222         /***
     4422     8223          *** If no RCW can exist in the remaining block portion,
     4423     8224          *** altreturn.
     4424     8225          ***/
     4425     8226
     4426     8227    3              DO CASE(RCWTYPE);

   8227  1 014374   200037 235100                    LDA     RCWTYPE,,AUTO
         1 014375   000003 115007                    CMPA    3,DL
         1 014376   014400 602005 1                  TNC     s:8227+4,AL
         1 014377   014510 710000 1                  TRA     s:8250
         1 014400   014420 710000 1                  TRA     s:8232
         1 014401   014454 710000 1                  TRA     s:8238
         1 014402   014403 710000 1                  TRA     s:8229

     4427     8228    3                 CASE(RCWNONE#);

     4428     8229    3                    IF F$DCB.CRECX + F$DCB.RECL > F$DCB.BLKLEN THEN GOTO SETBLKLEN;

   8229  1 014403   200030 470500                    LDP0    JDCB$,,AUTO
         1 014404   000033 236100                    LDQ     27,,PR0
         1 014405   777777 376007                    ANQ     -1,DL
         1 014406   200112 756100                    STQ     @FIELD_LENGTH+2,,AUTO
         1 014407   000067 236100                    LDQ     55,,PR0
         1 014410   777777 376007                    ANQ     -1,DL
         1 014411   200112 036100                    ADLQ    @FIELD_LENGTH+2,,AUTO
PL6.E3A0      #001=FTW$WRAT File=FTW$WRAT.:E05TSI                                TUE 07/29/97 18:02 Page:596
         1 014412   200113 756100                    STQ     @FIELD_LENGTH+3,,AUTO
         1 014413   000074 236100                    LDQ     60,,PR0
         1 014414   777777 376007                    ANQ     -1,DL
         1 014415   200113 116100                    CMPQ    @FIELD_LENGTH+3,,AUTO
         1 014416   014511 602000 1                  TNC     SETBLKLEN
         1 014417   014510 710000 1                  TRA     s:8250

     4429     8230                                                /* Must have room for record          */
     4430     8231    3                 CASE(RCWBIN#);

     4431     8232    3                    IF F$DCB.CRECX + RCWSIZE > F$DCB.BLKLEN THEN

   8232  1 014420   200030 470500                    LDP0    JDCB$,,AUTO
         1 014421   000067 236100                    LDQ     55,,PR0
         1 014422   777777 376007                    ANQ     -1,DL
         1 014423   200036 036100                    ADLQ    RCWSIZE,,AUTO
         1 014424   200112 756100                    STQ     @FIELD_LENGTH+2,,AUTO
         1 014425   000074 236100                    LDQ     60,,PR0
         1 014426   777777 376007                    ANQ     -1,DL
         1 014427   200112 116100                    CMPQ    @FIELD_LENGTH+2,,AUTO
         1 014430   014511 604000 1                  TMI     SETBLKLEN

     4432     8233    3                       GOTO SETBLKLEN;     /* Must have room for RCW             */
     4433     8234    3                    TEMP$ = PINCRC( AFPOOL$, F$DCB.CRECX ); /* Point to next seg */

   8234  1 014431   000067 236100                    LDQ     55,,PR0
         1 014432   777777 376007                    ANQ     -1,DL
         1 014433   000020 736000                    QLS     16
         1 014434   200007 036100                    ADLQ    AFPOOL$,,AUTO
         1 014435   200050 756100                    STQ     TEMP$,,AUTO

     4434     8235    3                    IF TEMP$->FT$HDR.L1 = 0 AND TEMP$->FT$HDR.L2 < RCWSIZE THEN

   8235  1 014436   200050 471500                    LDP1    TEMP$,,AUTO
         1 014437   000100 101500                    MRL     fill='000'O
         1 014440   100000 000001                    ADSC9   0,,PR1                   cn=0,n=1
         1 014441   200112 000004                    ADSC9   @FIELD_LENGTH+2,,AUTO    cn=0,n=4
PL6.E3A0      #001=FTW$WRAT File=FTW$WRAT.:E05TSI                                TUE 07/29/97 18:02 Page:597
         1 014442   200112 236100                    LDQ     @FIELD_LENGTH+2,,AUTO
         1 014443   000000 116003                    CMPQ    0,DU
         1 014444   014453 601000 1                  TNZ     s:8235+13
         1 014445   000100 101500                    MRL     fill='000'O
         1 014446   100000 200001                    ADSC9   0,,PR1                   cn=1,n=1
         1 014447   200113 000004                    ADSC9   @FIELD_LENGTH+3,,AUTO    cn=0,n=4
         1 014450   200113 236100                    LDQ     @FIELD_LENGTH+3,,AUTO
         1 014451   200036 116100                    CMPQ    RCWSIZE,,AUTO
         1 014452   014511 604000 1                  TMI     SETBLKLEN
         1 014453   014510 710000 1                  TRA     s:8250

     4435     8236    3                       GOTO SETBLKLEN;
              8236                                /* For binary RCW, must specify at least RCW size */
     4436     8237    3                 CASE(RCWDEC#);

     4437     8238    3                    IF F$DCB.CRECX + RCWSIZE > F$DCB.BLKLEN THEN GOTO SETBLKLEN;

   8238  1 014454   200030 470500                    LDP0    JDCB$,,AUTO
         1 014455   000067 236100                    LDQ     55,,PR0
         1 014456   777777 376007                    ANQ     -1,DL
         1 014457   200036 036100                    ADLQ    RCWSIZE,,AUTO
         1 014460   200112 756100                    STQ     @FIELD_LENGTH+2,,AUTO
         1 014461   000074 236100                    LDQ     60,,PR0
         1 014462   777777 376007                    ANQ     -1,DL
         1 014463   200112 116100                    CMPQ    @FIELD_LENGTH+2,,AUTO
         1 014464   014511 604000 1                  TMI     SETBLKLEN

     4438     8239                                                /* Must have room for RCW             */
     4439     8240    3                    TEMP$ = PINCRC( AFPOOL$, F$DCB.CRECX ); /* Point to next seg */

   8240  1 014465   000067 236100                    LDQ     55,,PR0
         1 014466   777777 376007                    ANQ     -1,DL
         1 014467   000020 736000                    QLS     16
         1 014470   200007 036100                    ADLQ    AFPOOL$,,AUTO
         1 014471   200050 756100                    STQ     TEMP$,,AUTO

     4440     8241    3                    IF F$DCB.SPANNED
PL6.E3A0      #001=FTW$WRAT File=FTW$WRAT.:E05TSI                                TUE 07/29/97 18:02 Page:598

   8241  1 014472   000031 236100                    LDQ     25,,PR0
         1 014473   000004 316007                    CANQ    4,DL
         1 014474   014503 600000 1                  TZE     s:8245

     4441     8242    3                    THEN IF TEMP$->FT$ORGS.SIZE = '^^^^'

   8242  1 014475   200050 471500                    LDP1    TEMP$,,AUTO
         1 014476   040000 106500                    CMPC    fill='040'O
         1 014477   100000 200004                    ADSC9   0,,PR1                   cn=1,n=4
         1 014500   000057 000004 0                  ADSC9   E_VOLOUT+7               cn=0,n=4
         1 014501   014511 600000 1                  TZE     SETBLKLEN
         1 014502   014510 710000 1                  TRA     s:8250

     4442     8243    3                       THEN GOTO SETBLKLEN;
     4443     8244    3                       ELSE ;
     4444     8245    3                    ELSE IF TEMP$->FT$ORGD.SIZE = '^^^^'

   8245  1 014503   200050 471500                    LDP1    TEMP$,,AUTO
         1 014504   040000 106500                    CMPC    fill='040'O
         1 014505   100000 000004                    ADSC9   0,,PR1                   cn=0,n=4
         1 014506   000057 000004 0                  ADSC9   E_VOLOUT+7               cn=0,n=4
         1 014507   014511 600000 1                  TZE     SETBLKLEN

     4445     8246    3                       THEN GOTO SETBLKLEN;
     4446     8247    3                       ELSE ;
     4447     8248                                             /* For decimal RCW, circumflex means end */
     4448     8249    3                 END;

     4449     8250    2              RETURN;

   8250  1 014510   000001 702211                    TSX2  ! 1,X1

   8240  1 014511                       SETBLKLEN    null
     4450     8251
     4451     8252    2   SETBLKLEN: ;
     4452     8253    2              F$DCB.BLKLEN = F$DCB.CRECX;  /* Set to actual size                 */
PL6.E3A0      #001=FTW$WRAT File=FTW$WRAT.:E05TSI                                TUE 07/29/97 18:02 Page:599

   8253  1 014511   000067 720100                    LXL0    55,,PR0
         1 014512   000074 440100                    SXL0    60,,PR0

     4453     8254    2              ALTRETURN;

   8254  1 014513   200102 221300                    LDX1  ! @SIZE+7,,AUTO
         1 014514   000000 702211                    TSX2  ! 0,X1

     4454     8255
     4455     8256    2      END FTW_CHKSEG;
     4456     8257        /*********************************************************************/
     4457     8258        %EJECT;
PL6.E3A0      #001=FTW$WRAT File=FTW$WRAT.:E05TSI                                TUE 07/29/97 18:02 Page:600
     4458     8259        /*********************************************************************/
     4459     8260    1   FTW$TRNCHLD: ENTRY ALTRET;

   8260  1 014515   000000 700200 xent  FTW$TRNCHLD  TSX0  ! X66_AUTO_3
         1 014516   000122 000003                    ZERO    82,3

     4460     8261        /*F*    NAME: FTW$TRNCHLD
     4461     8262                PURPOSE: Tape file trunc and hold buffer.
     4462     8263         ***/
     4463     8264
     4464     8265        /********************/
     4465     8266
     4466     8267    1              TRNCHLD = %YES#;

   8267  1 014517   400000 236003                    LDQ     -131072,DU
         1 014520   200025 756100                    STQ     TRNCHLD,,AUTO

     4467     8268    1              GOTO TRNC_COMMON;

   8268  1 014521   014525 710000 1                  TRA     TRNC_COMMON

     4468     8269
     4469     8270        /*********************************************************************/
     4470     8271    1   FTW$TRNCOD: ENTRY ALTRET;

   8271  1 014522   000000 700200 xent  FTW$TRNCOD   TSX0  ! X66_AUTO_3
         1 014523   000122 000003                    ZERO    82,3

     4471     8272        /*F*    NAME: FTW$TRNCOD
     4472     8273                PURPOSE: Does a local trunc for optical disk files.
     4473     8274         ***/
     4474     8275
     4475     8276        /********************/
     4476     8277
     4477     8278    1              TRNCHLD = %NO#;

   8278  1 014524   200025 450100                    STZ     TRNCHLD,,AUTO
PL6.E3A0      #001=FTW$WRAT File=FTW$WRAT.:E05TSI                                TUE 07/29/97 18:02 Page:601

   8278  1 014525                       TRNC_COMMON  null
     4478     8279    1   TRNC_COMMON:;
     4479     8280
     4480     8281         /***
     4481     8282          *** Get truncing information from the DCB.
     4482     8283          ***/
     4483     8284
     4484     8285    1              JDCB$ = B$JIT.DCB$;

   8285  1 014525   000000 470400 xsym               LDP0    B$JIT$
         1 014526   000232 236100                    LDQ     154,,PR0
         1 014527   200030 756100                    STQ     JDCB$,,AUTO

     4485     8286    1              TEMP = F$DCB.BFR.BUFX(F$DCB.CBUFNUM); /* Buffer pointer index      */

   8286  1 014530   200030 471500                    LDP1    JDCB$,,AUTO
         1 014531   100070 236100                    LDQ     56,,PR1
         1 014532   000041 772000                    QRL     33
         1 014533   100115 236106                    LDQ     77,QL,PR1
         1 014534   000033 772000                    QRL     27
         1 014535   000037 376007                    ANQ     31,DL
         1 014536   200047 756100                    STQ     TEMP,,AUTO

     4486     8287    1              IF TEMP <= 0 THEN RETURN;    /* Nothing to trunc                   */

   8287  1 014537   014541 605400 1                  TPNZ    s:8293

   8287  1 014540   000000 702200 xent               TSX2  ! X66_ARET

     4487     8288
     4488     8289         /***
     4489     8290          *** If the buffer has been modified, write it.
     4490     8291          ***/
     4491     8292
     4492     8293    1              IF F$DCB.BFR.BUFUP(F$DCB.CBUFNUM)

PL6.E3A0      #001=FTW$WRAT File=FTW$WRAT.:E05TSI                                TUE 07/29/97 18:02 Page:602
   8293  1 014541   100070 236100                    LDQ     56,,PR1
         1 014542   000041 772000                    QRL     33
         1 014543   100115 234106                    SZN     77,QL,PR1
         1 014544   014757 605000 1                  TPL     s:8328

     4493     8294    2              THEN DO;                     /* Buffer has been updated            */

     4494     8295    2                 DDDT$ = NK$LDCT$(F$DCB.SETX)->NK$LDCT.DDT$;

   8295  1 014545   100051 720100                    LXL0    41,,PR1
         1 014546   000000 473400 xsym               LDP3    N$DCT$$
         1 014547   300000 474510                    LDP4    0,X0,PR3
         1 014550   400004 236100                    LDQ     4,,PR4
         1 014551   200016 756100                    STQ     DDDT$,,AUTO

     4495     8296    2                 AFPOOL$ = FM$BUF$(TEMP);

   8296  1 014552   200047 721100                    LXL1    TEMP,,AUTO
         1 014553   000000 236011 xsym               LDQ     FM$BUF$,X1
         1 014554   200007 756100                    STQ     AFPOOL$,,AUTO

     4496     8297                                                /* Calc number of filler bytes needed */
     4497     8298    2                 IF (F$DCB.TAPTYP.MANAGED AND F$DCB.ORG = %FIXED#)

   8298  1 014555   100067 236100                    LDQ     55,,PR1
         1 014556   000010 316003                    CANQ    8,DU
         1 014557   014564 600000 1                  TZE     s:8298+7
         1 014560   100032 236100                    LDQ     26,,PR1
         1 014561   777000 376003                    ANQ     -512,DU
         1 014562   017000 116003                    CMPQ    7680,DU
         1 014563   014567 600000 1                  TZE     s:8300
         1 014564   100031 236100                    LDQ     25,,PR1
         1 014565   100000 316007                    CANQ    32768,DL
         1 014566   014571 600000 1                  TZE     s:8301

     4498     8299    2                     OR F$DCB.EBCDIC
     4499     8300    2                 THEN CHARZLEN = 0;        /* No filler chars for managed or IBM */
PL6.E3A0      #001=FTW$WRAT File=FTW$WRAT.:E05TSI                                TUE 07/29/97 18:02 Page:603

   8300  1 014567   200013 450100                    STZ     CHARZLEN,,AUTO
         1 014570   014644 710000 1                  TRA     s:8308

     4500     8301    2                 ELSE IF F$DCB.BLKLEN < 20

   8301  1 014571   100074 722100                    LXL2    60,,PR1
         1 014572   000024 102003                    CMPX2   20,DU
         1 014573   014602 603000 1                  TRC     s:8303

     4501     8302    2                    THEN CHARZLEN = 20-F$DCB.BLKLEN; /* Pad out to 5 words       */

   8302  1 014574   100074 236100                    LDQ     60,,PR1
         1 014575   777777 376007                    ANQ     -1,DL
         1 014576   000027 676000 xsym               ERQ     B_VECTNIL+23
         1 014577   000025 036007                    ADLQ    21,DL
         1 014600   200013 756100                    STQ     CHARZLEN,,AUTO
         1 014601   014644 710000 1                  TRA     s:8308

     4502     8303    2                    ELSE IF F$DCB.TAPTYP.CP6F

   8303  1 014602   100067 236100                    LDQ     55,,PR1
         1 014603   000200 316003                    CANQ    128,DU
         1 014604   014625 600000 1                  TZE     s:8306

     4503     8304    2                       THEN CHARZLEN = ((F$DCB.BLKLEN + 7) / 8) * 8 - F$DCB.BLKLEN;

   8304  1 014605   100074 236100                    LDQ     60,,PR1
         1 014606   777777 376007                    ANQ     -1,DL
         1 014607   000007 036007                    ADLQ    7,DL
         1 014610   000003 772000                    QRL     3
         1 014611   200112 756100                    STQ     @FIELD_LENGTH+2,,AUTO
         1 014612   100074 236100                    LDQ     60,,PR1
         1 014613   777777 376007                    ANQ     -1,DL
         1 014614   200113 756100                    STQ     @FIELD_LENGTH+3,,AUTO
         1 014615   000000 236003                    LDQ     0,DU
         1 014616   200112 136100                    SBLQ    @FIELD_LENGTH+2,,AUTO
PL6.E3A0      #001=FTW$WRAT File=FTW$WRAT.:E05TSI                                TUE 07/29/97 18:02 Page:604
         1 014617   000003 736000                    QLS     3
         1 014620   200113 036100                    ADLQ    @FIELD_LENGTH+3,,AUTO
         1 014621   000027 676000 xsym               ERQ     B_VECTNIL+23
         1 014622   000001 036007                    ADLQ    1,DL
         1 014623   200013 756100                    STQ     CHARZLEN,,AUTO
         1 014624   014644 710000 1                  TRA     s:8308

     4504     8305                                                /* Write binary...pad to doubleword   */
     4505     8306    2                       ELSE CHARZLEN = ((F$DCB.BLKLEN + 3) / 4) * 4 - F$DCB.BLKLEN;

   8306  1 014625   100074 236100                    LDQ     60,,PR1
         1 014626   777777 376007                    ANQ     -1,DL
         1 014627   000003 036007                    ADLQ    3,DL
         1 014630   000002 772000                    QRL     2
         1 014631   200112 756100                    STQ     @FIELD_LENGTH+2,,AUTO
         1 014632   100074 236100                    LDQ     60,,PR1
         1 014633   777777 376007                    ANQ     -1,DL
         1 014634   200113 756100                    STQ     @FIELD_LENGTH+3,,AUTO
         1 014635   000000 236003                    LDQ     0,DU
         1 014636   200112 136100                    SBLQ    @FIELD_LENGTH+2,,AUTO
         1 014637   000002 736000                    QLS     2
         1 014640   200113 036100                    ADLQ    @FIELD_LENGTH+3,,AUTO
         1 014641   000027 676000 xsym               ERQ     B_VECTNIL+23
         1 014642   000001 036007                    ADLQ    1,DL
         1 014643   200013 756100                    STQ     CHARZLEN,,AUTO

     4506     8307                                                /* Write ASCII...pad to word          */
     4507     8308    2                 ASEG$ = PINCRC( AFPOOL$, F$DCB.BLKLEN ); /* Point to filler     */

   8308  1 014644   100074 236100                    LDQ     60,,PR1
         1 014645   777777 376007                    ANQ     -1,DL
         1 014646   000020 736000                    QLS     16
         1 014647   200007 036100                    ADLQ    AFPOOL$,,AUTO
         1 014650   200011 756100                    STQ     ASEG$,,AUTO

     4508     8309    2                 IF F$DCB.TAPTYP.CP6F OR (F$DCB.ORG = %VARIABLE# AND F$DCB.EBCDIC)

PL6.E3A0      #001=FTW$WRAT File=FTW$WRAT.:E05TSI                                TUE 07/29/97 18:02 Page:605
   8309  1 014651   100067 236100                    LDQ     55,,PR1
         1 014652   000200 316003                    CANQ    128,DU
         1 014653   014663 601000 1                  TNZ     s:8310
         1 014654   100032 236100                    LDQ     26,,PR1
         1 014655   777000 376003                    ANQ     -512,DU
         1 014656   020000 116003                    CMPQ    8192,DU
         1 014657   014671 601000 1                  TNZ     s:8311
         1 014660   100031 236100                    LDQ     25,,PR1
         1 014661   100000 316007                    CANQ    32768,DL
         1 014662   014671 600000 1                  TZE     s:8311

     4509     8310    2                 THEN ASEG$->CHARZ = NULPAD; /* Pad with zeros                   */

   8310  1 014663   200011 474500                    LDP4    ASEG$,,AUTO
         1 014664   200013 720100                    LXL0    CHARZLEN,,AUTO
         1 014665   040140 100400                    MLR     fill='040'O
         1 014666   000005 000024 0                  ADSC9   ZEROBITS                 cn=0,n=20
         1 014667   400000 000010                    ADSC9   0,,PR4                   cn=0,n=*X0
         1 014670   014676 710000 1                  TRA     s:8312

     4510     8311    2                 ELSE ASEG$->CHARZ = ANSPAD; /* Pad with circumflex              */

   8311  1 014671   200011 474500                    LDP4    ASEG$,,AUTO
         1 014672   200013 720100                    LXL0    CHARZLEN,,AUTO
         1 014673   040140 100400                    MLR     fill='040'O
         1 014674   000000 000022 0                  ADSC9   ANSPAD                   cn=0,n=18
         1 014675   400000 000010                    ADSC9   0,,PR4                   cn=0,n=*X0

     4511     8312    2                 F$DCB.BLKLEN = F$DCB.BLKLEN + CHARZLEN; /* Set # bytes to write */

   8312  1 014676   100074 236100                    LDQ     60,,PR1
         1 014677   777777 376007                    ANQ     -1,DL
         1 014700   200013 036100                    ADLQ    CHARZLEN,,AUTO
         1 014701   000000 621006                    EAX1    0,QL
         1 014702   100074 441100                    SXL1    60,,PR1

     4512     8313    2                 F$DCB.BFR.BUFUP(F$DCB.CBUFNUM) = %NO#; /* Reset block modified  */
PL6.E3A0      #001=FTW$WRAT File=FTW$WRAT.:E05TSI                                TUE 07/29/97 18:02 Page:606

   8313  1 014703   100070 236100                    LDQ     56,,PR1
         1 014704   000041 772000                    QRL     33
         1 014705   000000 622006                    EAX2    0,QL
         1 014706   000031 236000 xsym               LDQ     B_VECTNIL+25
         1 014707   100115 356112                    ANSQ    77,X2,PR1

     4513     8314    2                 IF TRNCHLD AND F$DCB.AFTRBLK AND F$DCB.IASN ~= %OD#

   8314  1 014710   200025 234100                    SZN     TRNCHLD,,AUTO
         1 014711   014726 605000 1                  TPL     s:8319
         1 014712   100064 236100                    LDQ     52,,PR1
         1 014713   000002 316007                    CANQ    2,DL
         1 014714   014726 600000 1                  TZE     s:8319
         1 014715   100103 236100                    LDQ     67,,PR1
         1 014716   000777 376007                    ANQ     511,DL
         1 014717   000012 116007                    CMPQ    10,DL
         1 014720   014726 600000 1                  TZE     s:8319

     4514     8315    3                 THEN DO;                  /* Position before to write over      */

     4515     8316    3                    F$DCB.ARS = -1;

   8316  1 014721   000001 335007                    LCA     1,DL
         1 014722   100000 755100                    STA     0,,PR1

     4516     8317    3                    CALL FTI$SPREC ALTRET(JUSTALT);

   8317  1 014723   000002 631400 xsym               EPPR1   B_VECTNIL+2
         1 014724   000000 701000 xent               TSX1    FTI$SPREC
         1 014725   000203 702000 1                  TSX2    JUSTALT

     4517     8318    3                    END;

     4518     8319    2                 F$DCB.ARS = F$DCB.BLKLEN; /* Pass # bytes to write              */

   8319  1 014726   200030 470500                    LDP0    JDCB$,,AUTO
PL6.E3A0      #001=FTW$WRAT File=FTW$WRAT.:E05TSI                                TUE 07/29/97 18:02 Page:607
         1 014727   000074 236100                    LDQ     60,,PR0
         1 014730   777777 376007                    ANQ     -1,DL
         1 014731   000000 756100                    STQ     0,,PR0

     4519     8320    3                 IF TRNCHLD AND F$DCB.IASN = %OD# THEN DO;

   8320  1 014732   200025 234100                    SZN     TRNCHLD,,AUTO
         1 014733   014752 605000 1                  TPL     s:8325
         1 014734   000103 236100                    LDQ     67,,PR0
         1 014735   000777 376007                    ANQ     511,DL
         1 014736   000012 116007                    CMPQ    10,DL
         1 014737   014752 601000 1                  TNZ     s:8325

     4520     8321    3                    CALL FPO$TRUNC(AFPOOL$) ALTRET(JUSTALT);

   8321  1 014740   200007 631500                    EPPR1   AFPOOL$,,AUTO
         1 014741   200112 451500                    STP1    @FIELD_LENGTH+2,,AUTO
         1 014742   200112 630500                    EPPR0   @FIELD_LENGTH+2,,AUTO
         1 014743   000017 631400 xsym               EPPR1   B_VECTNIL+15
         1 014744   000000 701000 xent               TSX1    FPO$TRUNC
         1 014745   000203 702000 1                  TSX2    JUSTALT

     4521     8322    3                    FT$DDT.FMNEEDED = %YES#;

   8322  1 014746   200016 470500                    LDP0    DDDT$,,AUTO
         1 014747   000200 236007                    LDQ     128,DL
         1 014750   000006 256100                    ORSQ    6,,PR0

     4522     8323    3                    END;

   8323  1 014751   014754 710000 1                  TRA     s:8326

     4523     8324    2                 ELSE
     4524     8325    2                    CALL FTW_WRFPOOL ALTRET(JUSTALT);

   8325  1 014752   015071 701000 1                  TSX1    FTW_WRFPOOL
         1 014753   000203 702000 1                  TSX2    JUSTALT
PL6.E3A0      #001=FTW$WRAT File=FTW$WRAT.:E05TSI                                TUE 07/29/97 18:02 Page:608

     4525     8326    2                 F$DCB.AFTRBLK = %YES#;

   8326  1 014754   200030 470500                    LDP0    JDCB$,,AUTO
         1 014755   000002 236007                    LDQ     2,DL
         1 014756   000064 256100                    ORSQ    52,,PR0

     4526     8327    2                 END;

     4527     8328    1              RETURN;

   8328  1 014757   000000 702200 xent               TSX2  ! X66_ARET

     4528     8329
     4529     8330        /*********************************************************************/
     4530     8331        %EJECT;
PL6.E3A0      #001=FTW$WRAT File=FTW$WRAT.:E05TSI                                TUE 07/29/97 18:02 Page:609
     4531     8332        /*********************************************************************/
     4532     8333    1   FTW_TRNCWEOF: PROC ALTRET;

   8333  1 014760   200074 741300       FTW_TRNCWEOF STX1  ! @SIZE+1,,AUTO

     4533     8334        /*F*    NAME: FTW_TRNCWEOF
     4534     8335                PURPOSE: Truncate file and write EOF labels if necessary.
     4535     8336         ***/
     4536     8337
     4537     8338        /********************/
     4538     8339
     4539     8340         /***
     4540     8341          *** Trunc file and hold buffer.
     4541     8342          ***/
     4542     8343
     4543     8344    2              IF NOT F$DCB.TAPTYP.USRBUF

   8344  1 014761   200030 470500                    LDP0    JDCB$,,AUTO
         1 014762   000067 236100                    LDQ     55,,PR0
         1 014763   000100 316003                    CANQ    64,DU
         1 014764   014770 601000 1                  TNZ     s:8346

     4544     8345    2              THEN CALL FTW$TRNCHLD ALTRET(JUSTALT); /* Trunc file, hold buffer  */

   8345  1 014765   000002 631400 xsym               EPPR1   B_VECTNIL+2
         1 014766   014515 701000 1                  TSX1    s:8260
         1 014767   015067 702000 1                  TSX2    JUSTALT

     4545     8346    2              IF F$DCB.NOEOF

   8346  1 014770   200030 470500                    LDP0    JDCB$,,AUTO
         1 014771   000064 236100                    LDQ     52,,PR0
         1 014772   400000 316007                    CANQ    -131072,DL
         1 014773   015065 600000 1                  TZE     s:8369

     4546     8347    3              THEN DO;                   /* File was modified...write EOF labels */

PL6.E3A0      #001=FTW$WRAT File=FTW$WRAT.:E05TSI                                TUE 07/29/97 18:02 Page:610
     4547     8348    3                 IF F$DCB.ASN = %TAPE#

   8348  1 014774   000032 236100                    LDQ     26,,PR0
         1 014775   777000 376007                    ANQ     -512,DL
         1 014776   002000 116007                    CMPQ    1024,DL
         1 014777   015051 601000 1                  TNZ     s:8363

     4548     8349    4                 THEN DO;                  /* Labelled tape                      */

     4549     8350    4                    CALL FTI$WRFM ALTRET(JUSTALT);

   8350  1 015000   000002 631400 xsym               EPPR1   B_VECTNIL+2
         1 015001   000000 701000 xent               TSX1    FTI$WRFM
         1 015002   015067 702000 1                  TSX2    JUSTALT

     4550     8351    4                    CALL FTL$LBLS( 'EOF' ) ALTRET(JUSTALT);

   8351  1 015003   000041 630400 2                  EPPR0   33
         1 015004   000017 631400 xsym               EPPR1   B_VECTNIL+15
         1 015005   000000 701000 xent               TSX1    FTL$LBLS
         1 015006   015067 702000 1                  TSX2    JUSTALT

     4551     8352    4                    CALL FMD$RELBUF(F$DCB.LPOOL - 1); /* Get rid of label FPOOL  */

   8352  1 015007   200030 470500                    LDP0    JDCB$,,AUTO
         1 015010   000067 236100                    LDQ     55,,PR0
         1 015011   000036 772000                    QRL     30
         1 015012   000007 376007                    ANQ     7,DL
         1 015013   000001 136007                    SBLQ    1,DL
         1 015014   200112 756100                    STQ     @FIELD_LENGTH+2,,AUTO
         1 015015   200112 631500                    EPPR1   @FIELD_LENGTH+2,,AUTO
         1 015016   200113 451500                    STP1    @FIELD_LENGTH+3,,AUTO
         1 015017   200113 630500                    EPPR0   @FIELD_LENGTH+3,,AUTO
         1 015020   000017 631400 xsym               EPPR1   B_VECTNIL+15
         1 015021   000000 701000 xent               TSX1    FMD$RELBUF
         1 015022   000000 011000                    NOP     0

PL6.E3A0      #001=FTW$WRAT File=FTW$WRAT.:E05TSI                                TUE 07/29/97 18:02 Page:611
     4552     8353    4                    F$DCB.LPOOL = 0;

   8353  1 015023   200030 470500                    LDP0    JDCB$,,AUTO
         1 015024   000001 236000 2                  LDQ     1
         1 015025   000067 356100                    ANSQ    55,,PR0

     4553     8354    4                    CALL FTI$WRFM ALTRET(JUSTALT);

   8354  1 015026   000002 631400 xsym               EPPR1   B_VECTNIL+2
         1 015027   000000 701000 xent               TSX1    FTI$WRFM
         1 015030   015067 702000 1                  TSX2    JUSTALT

     4554     8355    4                    CALL FTI$WRFM ALTRET(JUSTALT);

   8355  1 015031   000002 631400 xsym               EPPR1   B_VECTNIL+2
         1 015032   000000 701000 xent               TSX1    FTI$WRFM
         1 015033   015067 702000 1                  TSX2    JUSTALT

     4555     8356    4                    FT$DDT.FMNEEDED = %NO#; /* Don't need file marks             */

   8356  1 015034   200016 470500                    LDP0    DDDT$,,AUTO
         1 015035   000014 236000 2                  LDQ     12
         1 015036   000006 356100                    ANSQ    6,,PR0

     4556     8357    4                    F$DCB.ARS = -3;      /* Space before first file mark written */

   8357  1 015037   000003 335007                    LCA     3,DL
         1 015040   200030 471500                    LDP1    JDCB$,,AUTO
         1 015041   100000 755100                    STA     0,,PR1

     4557     8358    4                    CALL FTI$SPFILE ALTRET(JUSTALT);

   8358  1 015042   000002 631400 xsym               EPPR1   B_VECTNIL+2
         1 015043   000000 701000 xent               TSX1    FTI$SPFILE
         1 015044   015067 702000 1                  TSX2    JUSTALT

     4558     8359    4                    F$DCB.NOEOF = %NO#; /* No need for labels later if only reading */
PL6.E3A0      #001=FTW$WRAT File=FTW$WRAT.:E05TSI                                TUE 07/29/97 18:02 Page:612

   8359  1 015045   200030 470500                    LDP0    JDCB$,,AUTO
         1 015046   000015 236000 2                  LDQ     13
         1 015047   000064 356100                    ANSQ    52,,PR0

     4559     8360                                                /*PS* (^ * EOF1 EOF2 * *)             */
     4560     8361    4                    END;

   8361  1 015050   015065 710000 1                  TRA     s:8369

     4561     8362    4                 ELSE DO;                  /* Managed free tape                  */

     4562     8363    4                    CALL FTI$WRFM ALTRET(JUSTALT);

   8363  1 015051   000002 631400 xsym               EPPR1   B_VECTNIL+2
         1 015052   000000 701000 xent               TSX1    FTI$WRFM
         1 015053   015067 702000 1                  TSX2    JUSTALT

     4563     8364    4                    CALL FTI$WRFM ALTRET(JUSTALT);

   8364  1 015054   000002 631400 xsym               EPPR1   B_VECTNIL+2
         1 015055   000000 701000 xent               TSX1    FTI$WRFM
         1 015056   015067 702000 1                  TSX2    JUSTALT

     4564     8365    4                    F$DCB.ARS = -2;

   8365  1 015057   000002 335007                    LCA     2,DL
         1 015060   200030 470500                    LDP0    JDCB$,,AUTO
         1 015061   000000 755100                    STA     0,,PR0

     4565     8366    4                    CALL FTI$SPFILE ALTRET(JUSTALT);

   8366  1 015062   000002 631400 xsym               EPPR1   B_VECTNIL+2
         1 015063   000000 701000 xent               TSX1    FTI$SPFILE
         1 015064   015067 702000 1                  TSX2    JUSTALT

     4566     8367    4                    END;
PL6.E3A0      #001=FTW$WRAT File=FTW$WRAT.:E05TSI                                TUE 07/29/97 18:02 Page:613

     4567     8368    3                 END;

     4568     8369    2              RETURN;

   8369  1 015065   200074 221300                    LDX1  ! @SIZE+1,,AUTO
         1 015066   000001 702211                    TSX2  ! 1,X1

     4569     8370
     4570     8371    2   JUSTALT:
     4571     8372    2              ALTRETURN;

   8372  1 015067   200074 221300       JUSTALT      LDX1  ! @SIZE+1,,AUTO
         1 015070   000000 702211                    TSX2  ! 0,X1

     4572     8373
     4573     8374    2      END FTW_TRNCWEOF;
     4574     8375        /*********************************************************************/
     4575     8376        %EJECT;
PL6.E3A0      #001=FTW$WRAT File=FTW$WRAT.:E05TSI                                TUE 07/29/97 18:02 Page:614
     4576     8377        /*********************************************************************/
     4577     8378    1   FTW_WRFPOOL: PROC ALTRET;

   8378  1 015071   200070 741300       FTW_WRFPOOL  STX1  ! TEMP+1,,AUTO

     4578     8379        /*F*     NAME: FTW_WRFPOOL
     4579     8380                 PURPOSE: Write FPOOL buffer.
     4580     8381         ***/
     4581     8382
     4582     8383        /********************/
     4583     8384
     4584     8385    2              IF F$DCB.IASN = %OD# THEN

   8385  1 015072   200030 470500                    LDP0    JDCB$,,AUTO
         1 015073   000103 236100                    LDQ     67,,PR0
         1 015074   000777 376007                    ANQ     511,DL
         1 015075   000012 116007                    CMPQ    10,DL
         1 015076   015106 601000 1                  TNZ     s:8388

     4585     8386    2                 CALL FPO$WRODBLK (AFPOOL$) ALTRET (JUSTALT);

   8386  1 015077   200007 631500                    EPPR1   AFPOOL$,,AUTO
         1 015100   200112 451500                    STP1    @FIELD_LENGTH+2,,AUTO
         1 015101   200112 630500                    EPPR0   @FIELD_LENGTH+2,,AUTO
         1 015102   000017 631400 xsym               EPPR1   B_VECTNIL+15
         1 015103   000000 701000 xent               TSX1    FPO$WRODBLK
         1 015104   015133 702000 1                  TSX2    JUSTALT
         1 015105   015131 710000 1                  TRA     s:8394

     4586     8387    3              ELSE DO;

     4587     8388    3                 IF F$DCB.TAPTYP.RWASC THEN

   8388  1 015106   000067 236100                    LDQ     55,,PR0
         1 015107   000400 316003                    CANQ    256,DU
         1 015110   015120 600000 1                  TZE     s:8391

PL6.E3A0      #001=FTW$WRAT File=FTW$WRAT.:E05TSI                                TUE 07/29/97 18:02 Page:615
     4588     8389    3                    CALL FTI$WRASC (AFPOOL$) ALTRET (JUSTALT);

   8389  1 015111   200007 631500                    EPPR1   AFPOOL$,,AUTO
         1 015112   200112 451500                    STP1    @FIELD_LENGTH+2,,AUTO
         1 015113   200112 630500                    EPPR0   @FIELD_LENGTH+2,,AUTO
         1 015114   000017 631400 xsym               EPPR1   B_VECTNIL+15
         1 015115   000000 701000 xent               TSX1    FTI$WRASC
         1 015116   015133 702000 1                  TSX2    JUSTALT
         1 015117   015126 710000 1                  TRA     s:8392

     4589     8390    3                 ELSE
     4590     8391    3                    CALL FTI$WRBIN (AFPOOL$) ALTRET (JUSTALT);

   8391  1 015120   200007 631500                    EPPR1   AFPOOL$,,AUTO
         1 015121   200112 451500                    STP1    @FIELD_LENGTH+2,,AUTO
         1 015122   200112 630500                    EPPR0   @FIELD_LENGTH+2,,AUTO
         1 015123   000017 631400 xsym               EPPR1   B_VECTNIL+15
         1 015124   000000 701000 xent               TSX1    FTI$WRBIN
         1 015125   015133 702000 1                  TSX2    JUSTALT

     4591     8392    3                 FT$DDT.FMNEEDED = %YES#;  /* Needs file mark                    */

   8392  1 015126   200016 470500                    LDP0    DDDT$,,AUTO
         1 015127   000200 236007                    LDQ     128,DL
         1 015130   000006 256100                    ORSQ    6,,PR0

     4592     8393    3                 END;

     4593     8394    2              RETURN;

   8394  1 015131   200070 221300                    LDX1  ! TEMP+1,,AUTO
         1 015132   000001 702211                    TSX2  ! 1,X1

   8394  1 015133                       JUSTALT      null
     4594     8395
     4595     8396    2   JUSTALT:   ;
     4596     8397    2              ALTRETURN;
PL6.E3A0      #001=FTW$WRAT File=FTW$WRAT.:E05TSI                                TUE 07/29/97 18:02 Page:616

   8397  1 015133   200070 221300                    LDX1  ! TEMP+1,,AUTO
         1 015134   000000 702211                    TSX2  ! 0,X1

     4597     8398
     4598     8399    2      END FTW_WRFPOOL;
     4599     8400        /*********************************************************************/
     4600     8401        %EJECT;
PL6.E3A0      #001=FTW$WRAT File=FTW$WRAT.:E05TSI                                TUE 07/29/97 18:02 Page:617
     4601     8402        /*********************************************************************/
     4602     8403    1   FTW_RDFPOOL: PROC ALTRET;

   8403  1 015135   200076 741300       FTW_RDFPOOL  STX1  ! @SIZE+3,,AUTO

     4603     8404        /*F*     NAME: FTW_RDFPOOL
     4604     8405                 PURPOSE: Read FPOOL buffer.
     4605     8406         ***/
     4606     8407
     4607     8408        /********************/
     4608     8409
     4609     8410    2              IF F$DCB.IASN = %OD# THEN

   8410  1 015136   200030 470500                    LDP0    JDCB$,,AUTO
         1 015137   000103 236100                    LDQ     67,,PR0
         1 015140   000777 376007                    ANQ     511,DL
         1 015141   000012 116007                    CMPQ    10,DL
         1 015142   015152 601000 1                  TNZ     s:8413

     4610     8411    2                 CALL FPO$RDODBLK (AFPOOL$) ALTRET (JUSTALT);

   8411  1 015143   200007 631500                    EPPR1   AFPOOL$,,AUTO
         1 015144   200112 451500                    STP1    @FIELD_LENGTH+2,,AUTO
         1 015145   200112 630500                    EPPR0   @FIELD_LENGTH+2,,AUTO
         1 015146   000017 631400 xsym               EPPR1   B_VECTNIL+15
         1 015147   000000 701000 xent               TSX1    FPO$RDODBLK
         1 015150   015207 702000 1                  TSX2    JUSTALT
         1 015151   015172 710000 1                  TRA     s:8418

     4611     8412    3              ELSE DO;

     4612     8413    3                 IF F$DCB.TAPTYP.RWASC THEN

   8413  1 015152   000067 236100                    LDQ     55,,PR0
         1 015153   000400 316003                    CANQ    256,DU
         1 015154   015164 600000 1                  TZE     s:8416

PL6.E3A0      #001=FTW$WRAT File=FTW$WRAT.:E05TSI                                TUE 07/29/97 18:02 Page:618
     4613     8414    3                    CALL FTI$RDASC (AFPOOL$) ALTRET (JUSTALT);

   8414  1 015155   200007 631500                    EPPR1   AFPOOL$,,AUTO
         1 015156   200112 451500                    STP1    @FIELD_LENGTH+2,,AUTO
         1 015157   200112 630500                    EPPR0   @FIELD_LENGTH+2,,AUTO
         1 015160   000017 631400 xsym               EPPR1   B_VECTNIL+15
         1 015161   000000 701000 xent               TSX1    FTI$RDASC
         1 015162   015207 702000 1                  TSX2    JUSTALT
         1 015163   015172 710000 1                  TRA     s:8418

     4614     8415    3                 ELSE
     4615     8416    3                    CALL FTI$RDBIN (AFPOOL$) ALTRET (JUSTALT);

   8416  1 015164   200007 631500                    EPPR1   AFPOOL$,,AUTO
         1 015165   200112 451500                    STP1    @FIELD_LENGTH+2,,AUTO
         1 015166   200112 630500                    EPPR0   @FIELD_LENGTH+2,,AUTO
         1 015167   000017 631400 xsym               EPPR1   B_VECTNIL+15
         1 015170   000000 701000 xent               TSX1    FTI$RDBIN
         1 015171   015207 702000 1                  TSX2    JUSTALT

     4616     8417    3                 END;

     4617     8418    2              IF NOT F$DCB.TAPTYP.USRBUF AND NOT F$DCB.TYC.EOF(1)

   8418  1 015172   200030 470500                    LDP0    JDCB$,,AUTO
         1 015173   000067 236100                    LDQ     55,,PR0
         1 015174   000100 316003                    CANQ    64,DU
         1 015175   015205 601000 1                  TNZ     s:8423
         1 015176   000002 236100                    LDQ     2,,PR0
         1 015177   004000 316003                    CANQ    2048,DU
         1 015200   015205 601000 1                  TNZ     s:8423

     4618     8419    3              THEN DO;

     4619     8420    3                 F$DCB.BLKLEN = F$DCB.ARS;

   8420  1 015201   000000 720100                    LXL0    0,,PR0
PL6.E3A0      #001=FTW$WRAT File=FTW$WRAT.:E05TSI                                TUE 07/29/97 18:02 Page:619
         1 015202   000074 440100                    SXL0    60,,PR0

     4620     8421    3                 CALL FTW_GETBLKLEN;

   8421  1 015203   012171 701000 1                  TSX1    FTW_GETBLKLEN
         1 015204   000000 011000                    NOP     0

     4621     8422    3                 END;

     4622     8423    2              RETURN;

   8423  1 015205   200076 221300                    LDX1  ! @SIZE+3,,AUTO
         1 015206   000001 702211                    TSX2  ! 1,X1

   8418  1 015207                       JUSTALT      null
     4623     8424
     4624     8425    2   JUSTALT:   ;
     4625     8426    2              ALTRETURN;

   8426  1 015207   200076 221300                    LDX1  ! @SIZE+3,,AUTO
         1 015210   000000 702211                    TSX2  ! 0,X1
     4626     8427
     4627     8428    2      END FTW_RDFPOOL;
     4628     8429        /*********************************************************************/
     4629     8430    1   END FTW$WRAT;
     4630     8431        /*********************************************************************/

PL6.E3A0      #001=FTW$WRAT File=FTW$WRAT.:E05TSI                                TUE 07/29/97 18:02 Page:620
--  Include file information  --

   B$TABLES_C.:E05TOU  cannot be made into a system file and is referenced.
   UE_CP6.:E05TOU  is referenced.
   UD_ERRORS_C.:E05TOU  is referenced.
   SS_SCHED_C.:E05TOU  is referenced.
   NK_LDCT_R.:E05TOU  cannot be made into a system file and is referenced.
   NK$LDCT.:E05TOU  is referenced.
   FT_SUBS.:E05TOU  is referenced.
   FT$RECS.:E05TOU  cannot be made into a system file and is referenced.
   FT$LBLS.:E05TOU  cannot be made into a system file and is referenced.
   FT$DDT.:E05TOU  is referenced.
   FM_BUF_R.:E05TOU  cannot be made into a system file and is referenced.
   F_FPTCODE_C.:E05TOU  is referenced.
   F_FMTCODE_C.:E05TOU  is referenced.
   F_ERRORS_C.:E05TOU  is referenced.
   FM$CFU.:E05TOU  is referenced.
   F$DCB.:E05TOU  is referenced.
   F$CP6V_C.:E05TOU  is referenced.
   CP_6_SUBS.:E05TOU  is referenced.
   B_PTRS_R.:E05TOU  cannot be made into a system file and is referenced.
   B$JIT_C.:E05TOU  is referenced.
      No diagnostics issued in procedure FTW$WRAT.
PL6.E3A0      #001=FTW$WRAT File=FTW$WRAT.:E05TSI                                TUE 07/29/97 18:02 Page:621

 **** Variables and constants ****

  ****  Section 000 RoData FTW$WRAT

  ****  Scalars and arrays  ****
OctLoc.c.b A Datatyp(siz) R M Lvl/name                 OctLoc.c.b A Datatyp(siz) R M Lvl/name

     0-0-0/c CHAR(18)    r     1 ANSPAD                    12-0-0/b STRC        r     1 E_BADBLKL
    13-0-0/b STRC        r     1 E_BADKEY                  14-0-0/b STRC        r     1 E_BADRECL
    15-0-0/b STRC        r     1 E_BADSPAN                 16-0-0/b STRC        r     1 E_BOF
    17-0-0/b STRC        r     1 E_BOT                     20-0-0/b STRC        r     1 E_CANTIO
    21-0-0/b STRC        r     1 E_CANTTRANSLATE           22-0-0/b STRC        r     1 E_CVBOT
    23-0-0/b STRC        r     1 E_DI                      24-0-0/b STRC        r     1 E_DOMAIN
    25-0-0/b STRC        r     1 E_EOF                     26-0-0/b STRC        r     1 E_EOT
    27-0-0/b STRC        r     1 E_EOVOL                   30-0-0/b STRC        r     1 E_EOVOLS
    31-0-0/b STRC        r     1 E_FILLIM                  32-0-0/b STRC        r     1 E_INDBC
    33-0-0/b STRC        r     1 E_KEYORDER                34-0-0/b STRC        r     1 E_LD
    35-0-0/b STRC        r     1 E_NOCONT                  36-0-0/b STRC        r     1 E_NOFPOOL
    37-0-0/b STRC        r     1 E_NOKEY                   40-0-0/b STRC        r     1 E_NONDECRCW
    41-0-0/b STRC        r     1 E_NOTAUTH                 43-0-0/b STRC        r     1 E_NOTIMPLEMENTED
    44-0-0/b STRC        r     1 E_NOTJRNLOWNER            45-0-0/b STRC        r     1 E_PARTIALKEY
    46-0-0/b STRC        r     1 E_RANBADBLK               47-0-0/b STRC        r     1 E_SMALLRECL
    50-0-0/b STRC        r     1 E_VOLOUT                   5-0-0/w CHAR(20)    r     1 NULPAD
     5-0-0/w UBIN        r     1 ZEROBITS(0:4)

  ****  Auto variables  ****

  ****  Scalars and arrays  ****
OctLoc.c.b A Datatyp(siz) R M Lvl/name                 OctLoc.c.b A Datatyp(siz) R M Lvl/name

   107-0-0/w PTR         r     1 @FIELD_CHAR              110-0-0/w PTR         r     1 @FIELD_LENGTH
    71-0-0/w PTR         r     1 @FP$                      72-0-0/w PTR         r     1 @FPNUM
     4-0-0/w PTR         r     1 @FPT                       3-0-0/w PTR         r     1 @FPTCODE
    71-0-0/w PTR         r     1 @KEY                      73-0-0/w PTR         r     1 @SEG
    73-0-0/w PTR         r     1 @SIZE                      5-0-0/w PTR         r     1 @VFC
     7-0-0/w PTR         r     1 AFPOOL$                   10-0-0/w UBIN        r     1 ARECL
    11-0-0/w PTR         r     1 ASEG$                     56-0-0/w BIT         r     1 BOF
PL6.E3A0      #001=FTW$WRAT File=FTW$WRAT.:E05TSI                                TUE 07/29/97 18:02 Page:622
    12-0-0/w SBIN        r     1 BYTES_TO_GO               13-0-0/w SBIN        r     1 CHARZLEN
    63-0-0/w SBIN        r     1 CRNTKEY                    6-0-0/b BIT         r     1 CVOLFT
    64-0-0/b BIT         r     1 DATA_INCON                14-0-0/w SBIN        r     1 DCRECNO
    15-0-0/w BIT         r     1 DCVOL                     16-0-0/w PTR         r     1 DDDT$
    17-0-0/w PTR         r     1 DUB$                      20-0-0/w SBIN        r     1 DUBYTES
    21-0-0/w UBIN(9)     r     1 DVBYTE                    63-0-0/w SBIN        r     1 EOFCNT
    22-0-0/c CHAR(3)     r     1 EOXL                      23-0-0/b BIT         r     1 ERRSAV
    *0-0-0/c ACHR        r     1 FIELD_CHAR                *0-0-0/w SBIN        r     1 FIELD_LENGTH
    *0-0-0/w PTR         r     1 FP$                       *0-0-0/w UBIN        r     1 FPNUM
    *0-0-0/w UBIN        r     1 FPT                       24-0-0/w PTR         r     1 FPT$
    *0-0-0/w SBIN        r     1 FPTCODE                   65-0-0/w SBIN        r     1 FRSTKEY
    26-0-0/w UBIN        r     1 I                         27-0-0/b BIT         r     1 IOERROK
    30-0-0/w PTR         r     1 JDCB$                     *0-0-0/c ASTR(9)     r     1 KEY
    61-0-0/w BIT         r     1 KEYS                      33-0-0/w SBIN        r     1 KEYSIZE
    66-0-0/w SBIN        r     1 MAXMKEY                   34-0-0/w SBIN        r     1 MAXRECL
    35-0-0/w SBIN        r     1 N                         35-0-0/w CHAR(4)     r     1 NC
    67-0-0/w SBIN        r     1 NEXTKEY                   36-0-0/w SBIN        r     1 RCWSIZE
    37-0-0/w SBIN        r     1 RCWTYPE                   40-0-0/w SBIN        r     1 RECSIZE
    *0-0-0/w SBIN        r     1 SEG                       41-0-0/w SBIN        r     1 SEGSIZE
    42-0-0/c CHAR(6)     r     1 SIX_CHARS                 *0-0-0/w UBIN        r     1 SIZE
    44-0-0/w SBIN        r     1 SPANINFO                  46-0-0/w SBIN        r     1 SPAN_LAST
    45-0-0/w SBIN        r     1 SPAN_MID                  47-0-0/w SBIN        r     1 TEMP
    67-0-0/w UBIN        r     1 TEMP                      50-0-0/w PTR         r     1 TEMP$
    47-0-0/w CHAR(4)     r     1 TEMPC                     51-0-0/w PTR         r     1 TEMPFP$
    52-0-0/w UBIN        r     1 TEMPFPOOL                 25-0-0/b BIT         r     1 TRNCHLD
    53-0-0/w PTR         r     1 UKEY$                     54-0-0/w SBIN        r     1 UKEYLEN
    *0-0-0/b UBIN(9)     r     1 VFC                       55-0-0/w BIT         r     1 VFC_MOVED

  ****  SYMREF variables  ****

  ****  Scalars and arrays  ****
OctLoc.c.b A Datatyp(siz) R M Lvl/name                 OctLoc.c.b A Datatyp(siz) R M Lvl/name

     0-0-0/w PTR         r     1 B$JIT$                     0-0-0/w PTR         r     1 B$PS$(0:19)
     0-0-0/w PTR         r     1 B$SR_NON_DEC$              0-0-0/w PTR         r     1 B$XL_ASC_EBC$
     0-0-0/w PTR         r     1 B$XL_EBC_ASC$              0-0-0/w PTR         r     1 B$XL_MOD_256$
     0-0-0/w PTR         r     1 B$XL_UPPER_UR$             0-0-0/w PTR         r     1 B$XL_UR$
PL6.E3A0      #001=FTW$WRAT File=FTW$WRAT.:E05TSI                                TUE 07/29/97 18:02 Page:623
     0-0-0/w PTR         r     1 FM$BUF$(0:31)              0-0-0/w PTR         r     1 N$DCT$$

  ****  BASED and DCB variables  ****

  ****  Scalars and arrays  ****
OctLoc.c.b A Datatyp(siz) R M Lvl/name                 OctLoc.c.b A Datatyp(siz) R M Lvl/name

     0-0-0/w SBIN        r     1 ALIGNED_BASED_WORD         0-0-0/d STRC(8856)  r     1 B$JIT
     0-0-0/c UBIN        r     1 BASED_WORD                 0-0-0/c ACHR        r     1 CHARS
     0-0-0/c ACHR        r     1 CHARZ                      0-0-0/d ASTR(3528)  r     1 F$DCB
     0-0-0/w STRC(288)   r     1 FM$CFUJ                    0-0-0/c CHAR(4)     r     1 FOUR_BASED_CHARS
     0-0-0/d STRC(72)    r     1 FPT$PFIL_V                 0-0-0/d STRC(108)   r     1 FPT$PRECORD_V
     0-0-0/d STRC(216)   r     1 FPT$READ_V                 0-0-0/d STRC(144)   r     1 FPT$WRITE_V
     0-0-0/w STRC        r     1 FT$BLKHDRE                 0-0-0/w STRC(288)   r     1 FT$DDT
     0-0-0/c STRC        r     1 FT$HDR                     0-0-0/c STRC        r     1 FT$HDRE
     0-0-0/c ASTR(9)     r     1 FT$KEY                     0-0-0/c STRC(720)   r     1 FT$LBL1
     0-0-0/c STRC(720)   r     1 FT$LBL2                    0-0-0/c STRC        r     1 FT$ORGD
     0-0-0/c STRC(45)    r     1 FT$ORGS                    0-0-0/d STRC(4608)  r     1 FT_NONDECIMAL_TABLE
     0-0-0/d STRC(4608)  r     1 F_ASC_ASC                  0-0-0/d STRC(4608)  r     1 F_ASC_EBC
     0-0-0/d STRC(4608)  r     1 F_EBC_ASC                  0-0-0/c ACHR        r     1 KEYCHARS
     0-0-0/c ACHR        r     1 NCHARS                     0-0-0/d STRC(864)   r     1 NK$LDCT
     0-0-0/w PTR         r     1 NK$LDCT$(0:0)
     0-0-0/d STRC(4608)  r     1 NK_URTBL                   0-0-0/d STRC(4608)  r     1 NK_URTBLUC


   Procedure FTW$WRAT requires 6793 words for executable code.
   Procedure FTW$WRAT requires 82 words of local(AUTO) storage.

    No errors detected in file FTW$WRAT.:E05TSI    .
PL6.E3A0      #001=FTW$WRAT File=FTW$WRAT.:E05TSI                                TUE 07/29/97 18:02 Page:624
          *** CROSS REFERENCE LISTING ***
**     DENOTES     IDENTIFIER DEFINITION
<<                 IDENTIFIER'S VALUE SET
>>                 IDENTIFIER'S VALUE USED
<>                 IDENTIFIER SET AND/OR USED
--                 IDENTIFIER REFERENCED
PL6.E3A0      #001=FTW$WRAT File=FTW$WRAT.:E05TSI                                TUE 07/29/97 18:02 Page:625
          MINI XREF LISTING

AFPOOL$
      3696**DCL      4856<<ASSIGN   5055<<ASSIGN   5523<<ASSIGN   5572>>CALLBLT  5572>>CALLBLT  5583>>ASSIGN
      5587>>ASSIGN   5609>>ASSIGN   5613>>ASSIGN   5618<<ASSIGN   5618>>ASSIGN   5619>>ASSIGN   5648>>ASSIGN
      5663<<ASSIGN   5663>>ASSIGN   5790<<ASSIGN   5809>>ASSIGN   5814>>ASSIGN   5844<<ASSIGN   5844>>ASSIGN
      6110>>ASSIGN   6116>>ASSIGN   6152>>ASSIGN   6210<<ASSIGN   6319>>ASSIGN   6328>>ASSIGN   6407>>ASSIGN
      6413>>ASSIGN   6491>>ASSIGN   6707<<ASSIGN   6709>>ASSIGN   6718>>ASSIGN   6722>>ASSIGN   6723>>ASSIGN
      6731>>ASSIGN   6738>>ASSIGN   6739<>CALL     6747<<ASSIGN   6747>>ASSIGN   6749<<ASSIGN   6749>>ASSIGN
      6753<<ASSIGN   6753>>ASSIGN   6755<<ASSIGN   6755>>ASSIGN   6756>>ASSIGN   6759>>CALLBLT  6763>>CALLBLT
      6765<<ASSIGN   6765>>ASSIGN   6766>>ASSIGN   6775<<ASSIGN   6775>>ASSIGN   6780>>CALLBLT  6781>>ASSIGN
      6782>>ASSIGN   6783>>ASSIGN   6786>>ASSIGN   6787>>ASSIGN   6788<<ASSIGN   6788>>ASSIGN   6789>>ASSIGN
      6792>>ASSIGN   6795<<ASSIGN   6795>>ASSIGN   6798<<ASSIGN   6798>>ASSIGN   6802<<ASSIGN   6802>>ASSIGN
      6805<<ASSIGN   6805>>ASSIGN   6810<<ASSIGN   6811>>ASSIGN   7155>>ASSIGN   7156>>ASSIGN   7262>>ASSIGN
      7266>>ASSIGN   7270>>ASSIGN   7337>>ASSIGN   7341>>ASSIGN   7345>>ASSIGN   7348>>ASSIGN   7392<>CALL
      7398<>CALL     7438>>ASSIGN   7471>>ASSIGN   7474>>ASSIGN   7478>>ASSIGN   7480>>CALLBLT  7505>>ASSIGN
      7512>>ASSIGN   7544>>ASSIGN   7561>>ASSIGN   7979<<ASSIGN   8127<>CALL     8130<<ASSIGN   8174<<ASSIGN
      8234>>ASSIGN   8240>>ASSIGN   8296<<ASSIGN   8308>>ASSIGN   8321<>CALL     8386<>CALL     8389<>CALL
      8391<>CALL     8411<>CALL     8414<>CALL     8416<>CALL
ALIGNED_BASED_WORD
      3697**DCL      5583>>ASSIGN   5587>>ASSIGN   5626<<ASSIGN   5809<<ASSIGN
ALLDECIMAL IN PROCEDURE FTW_CHKDEC
      7672**LABEL    7671--CALLALT
ANSPAD
      3763**DCL      8311>>ASSIGN
ARECL
      3698**DCL      6143<<ASSIGN   6144>>IF       6146>>ASSIGN   6447<<ASSIGN   6448>>IF       6450<<ASSIGN
      6453>>ASSIGN
ASEG$
      3699**DCL      5525<<ASSIGN   5610>>ASSIGN   5611>>ASSIGN   5619<<ASSIGN   5621<<ASSIGN   5621>>ASSIGN
      5623>>ASSIGN   5649>>ASSIGN   5664<<ASSIGN   5664>>ASSIGN   5792<<ASSIGN   5815>>ASSIGN   5846<<ASSIGN
      5846>>ASSIGN   6110<<ASSIGN   6112>>ASSIGN   6116<<ASSIGN   6117>>ASSIGN   6152<<ASSIGN   6156>>CALLBLT
      6157>>ASSIGN   6159>>ASSIGN   6245<<ASSIGN   6252<<ASSIGN   6265<<ASSIGN   6319<<ASSIGN   6321>>ASSIGN
      6323>>ASSIGN   6328<<ASSIGN   6330>>ASSIGN   6333>>ASSIGN   6335>>ASSIGN   6407<<ASSIGN   6409>>ASSIGN
PL6.E3A0      #001=FTW$WRAT File=FTW$WRAT.:E05TSI                                TUE 07/29/97 18:02 Page:626
      6413<<ASSIGN   6415>>ASSIGN   6491<<ASSIGN   6499>>CALLBLT  6500>>CALLBLT  6501>>ASSIGN   6503>>ASSIGN
      6507>>CALLBLT  6507>>CALLBLT  6508>>CALLBLT  6508>>CALLBLT  7155<<ASSIGN   7156<<ASSIGN   7215>>ASSIGN
      7225>>ASSIGN   7226<<ASSIGN   7226>>ASSIGN   7241>>IF       7243>>IF       7262<<ASSIGN   7263>>ASSIGN
      7264>>ASSIGN   7266<<ASSIGN   7268>>ASSIGN   7270<<ASSIGN   7271>>ASSIGN   7337<<ASSIGN   7338>>ASSIGN
      7339>>ASSIGN   7341<<ASSIGN   7343>>ASSIGN   7345<<ASSIGN   7346>>ASSIGN   8308<<ASSIGN   8310>>ASSIGN
      8311>>ASSIGN
B$JIT.DCB$
       433**DCL      4316>>ASSIGN   4390>>ASSIGN   4737>>IF       4755>>ASSIGN   5091>>ASSIGN   8285>>ASSIGN
B$JIT.ERR
       336**DCL      4357<<ASSIGN   4360>>IF       4370<<ASSIGN   4393<<ASSIGN   4399<<ASSIGN   4479<<ASSIGN
      4554<<ASSIGN   4634>>IF       4653<<ASSIGN   4720<<ASSIGN   4738<<ASSIGN   4769<<ASSIGN   4779<<ASSIGN
      4928<<ASSIGN   4949<<ASSIGN   4971<<ASSIGN   5010<<ASSIGN   5041<<ASSIGN   5064<<ASSIGN   5170<<ASSIGN
      5195<<ASSIGN   5224<<ASSIGN   5251<<ASSIGN   5259<<ASSIGN   5311<<ASSIGN   5315<<ASSIGN   5321<<ASSIGN
      5374<<ASSIGN   5428<<ASSIGN   5447<<ASSIGN   5452<<ASSIGN   5492<<ASSIGN   5542<<ASSIGN   5556<<ASSIGN
      5576<<ASSIGN   5603<<ASSIGN   5639<<ASSIGN   5670<<ASSIGN   5681<<ASSIGN   5682<<ASSIGN   5728<<ASSIGN
      5768<<ASSIGN   5775<<ASSIGN   5796<<ASSIGN   5834<<ASSIGN   5839<<ASSIGN   5860<<ASSIGN   5886<<ASSIGN
      5932<<ASSIGN   5971>>ASSIGN   5982<<ASSIGN   6123<<ASSIGN   6145<<ASSIGN   6176<<ASSIGN   6187<<ASSIGN
      6230<<ASSIGN   6262<<ASSIGN   6272<<ASSIGN   6457<<ASSIGN   6478<<ASSIGN   6647<<ASSIGN   6683<<ASSIGN
      6735<<ASSIGN   6743<<ASSIGN   6864<<ASSIGN   6880>>IF       6896>>IF       6930>>ASSIGN   6935<<ASSIGN
      6942<<ASSIGN   6971<<ASSIGN   7052<<ASSIGN   7091<<ASSIGN   7127>>IF       7132<<ASSIGN   7135<<ASSIGN
      7144<<ASSIGN   7173<<ASSIGN   7188<<ASSIGN   7304<<ASSIGN   7311<<ASSIGN   7388<<ASSIGN   7446<<ASSIGN
      7611<<ASSIGN   7642<<ASSIGN   7651<<ASSIGN   7672<<ASSIGN   7795<<ASSIGN   7803>>IF       7809<<ASSIGN
      7844>>IF       7850<<ASSIGN   7954<<ASSIGN   7982<<ASSIGN   7993>>IF       8002<<ASSIGN   8012>>IF
      8018<<ASSIGN   8036>>ASSIGN   8041<<ASSIGN   8048<<ASSIGN   8060>>IF       8062<<ASSIGN   8157<<ASSIGN
      8176<<ASSIGN   8194<<ASSIGN
B$JIT.ERR.CODE
       337**DCL      4719>>IF       4947>>IF       4947>>IF       4952>>IF       5062>>IF       5194>>IF
      5548>>IF       5674>>ASSIGN   5818>>IF       5911>>IF       5980>>IF       6010>>DOWHILE  6026>>IF
      6065>>IF       6065>>IF       6092>>IF       6175>>IF       6228>>IF       6585>>ASSIGN   6611>>IF
      6926>>IF       7050>>IF       7129>>IF       7132>>IF       7805>>IF       7846>>IF       8014>>IF
      8032>>IF       8094>>IF       8187>>IF
B$JIT.ERR.MID
       337**DCL       337--REDEF
B$JIT.FBUL
       425**DCL      7387>>IF
B$JIT.JRESPEAK
PL6.E3A0      #001=FTW$WRAT File=FTW$WRAT.:E05TSI                                TUE 07/29/97 18:02 Page:627
       427**DCL       428--REDEF
B$JIT.PRIV.ACTIVE
       337**DCL      5451>>IF
B$JIT$
      3757**DCL       331--IMP-PTR  4316>>ASSIGN   4357>>ASSIGN   4360>>IF       4370>>ASSIGN   4390>>ASSIGN
      4393>>ASSIGN   4399>>ASSIGN   4479>>ASSIGN   4554>>ASSIGN   4634>>IF       4653>>ASSIGN   4719>>IF
      4720>>ASSIGN   4737>>IF       4738>>ASSIGN   4755>>ASSIGN   4769>>ASSIGN   4779>>ASSIGN   4928>>ASSIGN
      4947>>IF       4947>>IF       4949>>ASSIGN   4952>>IF       4971>>ASSIGN   5010>>ASSIGN   5041>>ASSIGN
      5062>>IF       5064>>ASSIGN   5091>>ASSIGN   5170>>ASSIGN   5194>>IF       5195>>ASSIGN   5224>>ASSIGN
      5251>>ASSIGN   5259>>ASSIGN   5311>>ASSIGN   5315>>ASSIGN   5321>>ASSIGN   5374>>ASSIGN   5428>>ASSIGN
      5447>>ASSIGN   5451>>IF       5452>>ASSIGN   5492>>ASSIGN   5542>>ASSIGN   5548>>IF       5556>>ASSIGN
      5576>>ASSIGN   5603>>ASSIGN   5639>>ASSIGN   5670>>ASSIGN   5674>>ASSIGN   5681>>ASSIGN   5682>>ASSIGN
      5728>>ASSIGN   5768>>ASSIGN   5775>>ASSIGN   5796>>ASSIGN   5818>>IF       5834>>ASSIGN   5839>>ASSIGN
      5860>>ASSIGN   5886>>ASSIGN   5911>>IF       5932>>ASSIGN   5971>>ASSIGN   5980>>IF       5982>>ASSIGN
      6010>>DOWHILE  6026>>IF       6065>>IF       6065>>IF       6092>>IF       6123>>ASSIGN   6145>>ASSIGN
      6175>>IF       6176>>ASSIGN   6187>>ASSIGN   6228>>IF       6230>>ASSIGN   6262>>ASSIGN   6272>>ASSIGN
      6457>>ASSIGN   6478>>ASSIGN   6585>>ASSIGN   6611>>IF       6647>>ASSIGN   6683>>ASSIGN   6735>>ASSIGN
      6743>>ASSIGN   6864>>ASSIGN   6880>>IF       6896>>IF       6926>>IF       6930>>ASSIGN   6935>>ASSIGN
      6942>>ASSIGN   6971>>ASSIGN   7050>>IF       7052>>ASSIGN   7091>>ASSIGN   7127>>IF       7129>>IF
      7132>>IF       7132>>ASSIGN   7135>>ASSIGN   7144>>ASSIGN   7173>>ASSIGN   7188>>ASSIGN   7304>>ASSIGN
      7311>>ASSIGN   7387>>IF       7388>>ASSIGN   7446>>ASSIGN   7611>>ASSIGN   7642>>ASSIGN   7651>>ASSIGN
      7672>>ASSIGN   7795>>ASSIGN   7803>>IF       7805>>IF       7809>>ASSIGN   7844>>IF       7846>>IF
      7850>>ASSIGN   7954>>ASSIGN   7982>>ASSIGN   7993>>IF       8002>>ASSIGN   8012>>IF       8014>>IF
      8018>>ASSIGN   8032>>IF       8036>>ASSIGN   8041>>ASSIGN   8048>>ASSIGN   8060>>IF       8062>>ASSIGN
      8094>>IF       8157>>ASSIGN   8176>>ASSIGN   8187>>IF       8194>>ASSIGN   8285>>ASSIGN
B$PS$
       538**DCL      4605>>CALL     4605>>CALL     4824>>ASSIGN   4832>>ASSIGN   4860>>CALL     4860>>CALL
      5502>>CALL     5765>>ASSIGN   6101>>CALL     6101>>CALL     6243>>ASSIGN   6244>>ASSIGN   6259>>ASSIGN
      6321>>ASSIGN   6330>>ASSIGN   7264>>ASSIGN   7268>>ASSIGN   7271>>ASSIGN   7274>>ASSIGN   7277>>ASSIGN
      7301>>ASSIGN
B$SR_NON_DEC$
      3616**DCL      3617--IMP-PTR  7671>>CALLBLT
B$XL_ASC_EBC$
      3624**DCL      3625--IMP-PTR  5238>>CALLBLT  5740>>CALLBLT  6507>>CALLBLT
B$XL_EBC_ASC$
      3628**DCL      3629--IMP-PTR  5186>>CALLBLT  5572>>CALLBLT  6156>>CALLBLT
PL6.E3A0      #001=FTW$WRAT File=FTW$WRAT.:E05TSI                                TUE 07/29/97 18:02 Page:628
B$XL_MOD_256$
      3620**DCL      3621--IMP-PTR  5239>>CALLBLT  5741>>CALLBLT  6508>>CALLBLT
B$XL_UPPER_UR$
      3632**DCL      3633--IMP-PTR  6500>>CALLBLT
B$XL_UR$
      3636**DCL      3637--IMP-PTR  6499>>CALLBLT
BASED_WORD
      3700**DCL      4824<<ASSIGN   4832<<ASSIGN   6117>>ASSIGN   6260>>IF       6333<<ASSIGN   6335>>ASSIGN
      7215>>ASSIGN   7346>>ASSIGN   7348>>ASSIGN
BLKEND IN PROCEDURE FTW_PR
      6950**LABEL    6948--CALLALT
BOF
      3751**DCL      4560<<ASSIGN   4561<<ASSIGN   4656<<ASSIGN   4690>>IF       5340>>IF
BYTES_TO_GO
      3701**DCL      6134<<ASSIGN   6137>>DOWHILE  6138>>ASSIGN   6161<<ASSIGN   6161>>ASSIGN   6165>>IF
      6181<<ASSIGN   6368<<ASSIGN   6372<<ASSIGN   6375<<ASSIGN   6377>>DOWHILE  6401>>IF       6423<<ASSIGN
      6447>>ASSIGN   6454<<ASSIGN   6454>>ASSIGN   6459<<ASSIGN   6463>>ASSIGN   6464<<ASSIGN   6480<<ASSIGN
      6517>>IF       6523>>IF       6556<<ASSIGN
CANTCONT IN PROCEDURE FTW_RNR
      6171**LABEL    6167--CALLALT
CHARS
      3702**DCL      5238<<CALLBLT  5238>>CALLBLT  5239<<CALLBLT  5239>>CALLBLT  5572<<CALLBLT  5572>>CALLBLT
      5740<<CALLBLT  5740>>CALLBLT  5741<<CALLBLT  5741>>CALLBLT  6156<<CALLBLT  6156>>CALLBLT  6157<<ASSIGN
      6157>>ASSIGN   6159<<ASSIGN   6159>>ASSIGN   6499>>CALLBLT  6500>>CALLBLT  6501>>ASSIGN   6503>>ASSIGN
      6709<<ASSIGN   6709>>ASSIGN   6722<<ASSIGN   6722>>ASSIGN   6731<<ASSIGN   6731>>ASSIGN
CHARZ
      3703**DCL      5186<<CALLBLT  5186>>CALLBLT  5815<<ASSIGN   5815>>ASSIGN   6409<<ASSIGN   6409>>ASSIGN
      6415<<ASSIGN   6415>>ASSIGN   6499<<CALLBLT  6500<<CALLBLT  6501<<ASSIGN   6503<<ASSIGN   6507<<CALLBLT
      6507>>CALLBLT  6508<<CALLBLT  6508>>CALLBLT  7241>>IF       7241>>IF       7243>>IF       7243>>IF
      7471<<ASSIGN   7478<<ASSIGN   8310<<ASSIGN   8311<<ASSIGN
CHARZLEN
      3704**DCL      3703--IMP-SIZ  5183<<ASSIGN   5184>>IF       5185<<ASSIGN   5186>>CALLBLT  5186>>CALLBLT
      5813<<ASSIGN   5815>>ASSIGN   5815>>ASSIGN   6408<<ASSIGN   6409>>ASSIGN   6409>>ASSIGN   6414<<ASSIGN
      6415>>ASSIGN   6415>>ASSIGN   6493<<ASSIGN   6494<<ASSIGN   6499>>CALLBLT  6500>>CALLBLT  6501>>ASSIGN
      6503>>ASSIGN   6507>>CALLBLT  6507>>CALLBLT  6508>>CALLBLT  6508>>CALLBLT  6530>>ASSIGN   6708<<ASSIGN
      6721<<ASSIGN   7225<<ASSIGN   7227>>IF       7229>>IF       7232<<ASSIGN   7237<<ASSIGN   7241>>IF
PL6.E3A0      #001=FTW$WRAT File=FTW$WRAT.:E05TSI                                TUE 07/29/97 18:02 Page:629
      7241>>IF       7243>>IF       7243>>IF       7467<<ASSIGN   7468>>IF       7471>>ASSIGN   7472>>IF
      7478>>ASSIGN   7479>>IF       8300<<ASSIGN   8302<<ASSIGN   8304<<ASSIGN   8306<<ASSIGN   8310>>ASSIGN
      8311>>ASSIGN   8312>>ASSIGN
CHKCVOLE IN PROCEDURE FTW_PNRS
      8072**LABEL    8083--CALLALT
CHKEOF IN PROCEDURE FTW_FNDKEY
      7108**LABEL    7109--CALLALT  7111--CALLALT
CHKEOF IN PROCEDURE FTW_PNRSNE
      7047**LABEL    7047--CALLALT
CHKEOF IN PROCEDURE FTW_WEOF
      5059**LABEL    5059--CALLALT
CHKEOF IN PROCEDURE FTW_WNR
      6225**LABEL    6225--CALLALT
CHKEOF2 IN PROCEDURE FTW_FNDKEY
      7182**LABEL    7183--CALLALT  7184--CALLALT
CHKEOFV IN PROCEDURE FTW_PFUSRBUF
      6019**LABEL    6017--CALLALT  6021--CALLALT
CHKEOFV IN PROCEDURE FTW_PRUSRBUF
      5905**LABEL    5903--CALLALT  5908--CALLALT
CHKEOFV IN PROCEDURE FTW_RUSRBUF
      5670**LABEL    5559--CALLALT
CHKEOFV2 IN PROCEDURE FTW_PRUSRBUF
      5974**LABEL    5972--CALLALT
CHKKEYE IN PROCEDURE FTW_RNR
      6063**LABEL    6062--CALLALT
CHKKEYE2 IN PROCEDURE FTW_RNR
      6088**LABEL    6089--CALLALT
CHKNEWBLK IN PROCEDURE FTW_PNRS
      7981**LABEL    7958--GOTO     7962--CALLALT  7980--CALLALT
CHKVOLOUT IN PROCEDURE FTW_RDEV
      5182**LABEL    5152--CALLALT
CRNTKEY IN PROCEDURE FTW_RUSRBUF
      5477**DCL      5583<<ASSIGN   5585>>ASSIGN   5597>>IF       5598>>IF       5614>>IF       5618>>ASSIGN
      5621>>ASSIGN   5625>>DOWHILE  5633>>IF       5652>>ASSIGN
CVOLALT
      4867**LABEL    4792--CALLALT  4826--CALLALT  4845--CALLALT  4850--CALLALT  4860--CALLALT
PL6.E3A0      #001=FTW$WRAT File=FTW$WRAT.:E05TSI                                TUE 07/29/97 18:02 Page:630
CVOLFT
      3683**DCL      4741<<ASSIGN   4746<<ASSIGN   4819>>IF       4827>>IF
DATA_INCON IN PROCEDURE FTW_RUSRBUF
      5478**DCL      5528<<ASSIGN   5642<<ASSIGN   5670>>IF       5680>>IF
DCRECNO
      3705**DCL      5876<<ASSIGN   5916>>ASSIGN   5929>>IF       5932>>IF       5965>>ASSIGN   6846<<ASSIGN
      6849<<ASSIGN   6861>>IF       6866>>ASSIGN   6969>>ASSIGN   7124<<ASSIGN   7142>>IF       7186>>IF
DCVOL
      3706**DCL      4902<<ASSIGN   4945>>ASSIGN
DDDT$
      3707**DCL      1867--IMP-PTR  4397<<ASSIGN   4398>>IF       4398>>IF       4408>>IF       4428>>IF
      4437>>ASSIGN   5036>>ASSIGN   5168>>ASSIGN   5171>>ASSIGN   5171>>ASSIGN   5177>>ASSIGN   5243>>ASSIGN
      5298>>ASSIGN   5310>>ASSIGN   5312>>ASSIGN   5312>>ASSIGN   5316>>ASSIGN   5316>>ASSIGN   5322>>ASSIGN
      5352>>ASSIGN   5362>>ASSIGN   5364>>ASSIGN   5364>>ASSIGN   5368>>ASSIGN   5368>>ASSIGN   5375>>ASSIGN
      5551>>ASSIGN   5820>>ASSIGN   6615>>ASSIGN   6773<<ASSIGN   6928>>ASSIGN   8034>>ASSIGN   8189>>ASSIGN
      8295<<ASSIGN   8322>>ASSIGN   8356>>ASSIGN   8392>>ASSIGN
DUB$
      3708**DCL      5138<>CALL     5139<>CALL     5186>>CALLBLT  5186>>CALLBLT  5232<>CALL     5236<>CALL
      5238>>CALLBLT  5238>>CALLBLT  5239>>CALLBLT  5239>>CALLBLT  5241<>CALL     5432<>CALL     5456<>CALL
      5523>>ASSIGN   5525>>ASSIGN   5738<>CALL     5740>>CALLBLT  5740>>CALLBLT  5741>>CALLBLT  5741>>CALLBLT
      5790>>ASSIGN   5792>>ASSIGN   6156>>CALLBLT  6157>>ASSIGN   6159>>ASSIGN   6168<<ASSIGN   6168>>ASSIGN
      6250>>ASSIGN   6323>>ASSIGN   6367<<ASSIGN   6499>>CALLBLT  6500>>CALLBLT  6501>>ASSIGN   6503>>ASSIGN
      6544<<ASSIGN   6544>>ASSIGN   6557<<ASSIGN   7011<<ASSIGN
DUBYTES
      3709**DCL      3702--IMP-SIZ  5136>>ASSIGN   5184>>IF       5185>>ASSIGN   5222>>IF       5227>>ASSIGN
      5238>>CALLBLT  5238>>CALLBLT  5239>>CALLBLT  5239>>CALLBLT  5431>>ASSIGN   5530>>DOWHILE  5538>>ASSIGN
      5545>>IF       5546>>ASSIGN   5571<<ASSIGN   5572>>CALLBLT  5572>>CALLBLT  5590>>ASSIGN   5631<<ASSIGN
      5631>>ASSIGN   5658<<ASSIGN   5658>>ASSIGN   5659>>IF       5725>>IF       5729<<ASSIGN   5740>>CALLBLT
      5740>>CALLBLT  5741>>CALLBLT  5741>>CALLBLT  5794>>DOWHILE  5795>>IF       5804>>ASSIGN   5805<<ASSIGN
      5805>>ASSIGN   5833>>IF       5840<<ASSIGN   6134>>ASSIGN   6138<<ASSIGN   6144>>IF       6146<<ASSIGN
      6156>>CALLBLT  6156>>CALLBLT  6157>>ASSIGN   6157>>ASSIGN   6159>>ASSIGN   6159>>ASSIGN   6160>>ASSIGN
      6161>>ASSIGN   6168>>ASSIGN   6184>>ASSIGN   6301>>IF       6372>>ASSIGN   6375>>ASSIGN   6383>>IF
      6453<<ASSIGN   6454>>ASSIGN   6458<<ASSIGN   6463<<ASSIGN   6476>>IF       6479<<ASSIGN   6482>>ASSIGN
      6494>>ASSIGN   6499>>CALLBLT  6500>>CALLBLT  6501>>ASSIGN   6503>>ASSIGN   6534>>ASSIGN   6544>>ASSIGN
      6709>>ASSIGN   6709>>ASSIGN   6722>>ASSIGN   6722>>ASSIGN   6731>>ASSIGN   6731>>ASSIGN   7012<<ASSIGN
      7309>>IF
PL6.E3A0      #001=FTW$WRAT File=FTW$WRAT.:E05TSI                                TUE 07/29/97 18:02 Page:631
DVBYTE
      3710**DCL      4338<<ASSIGN   4506<<ASSIGN   7509>>ASSIGN
ENDCVOL IN PROCEDURE FTW_POSEOSECT
      4944**LABEL    4916--CALLALT  4919--CALLALT  4923--CALLALT  4933--CALLALT  4935--CALLALT
ENDENQUEUE
      4878**LABEL    4784--CALLALT
ENDFNDKEYX IN PROCEDURE FTW_FNDKEY
      7129**LABEL    7138--CALLALT  7140--CALLALT  7141--CALLALT
ENDPFIL IN PROCEDURE FTW_PFIL2
      4707**LABEL    4707--CALLALT  4710--CALLALT
ENDPRECORD IN PROCEDURE FTW_PRECORD
      4625**LABEL    4575--CALLALT  4588--CALLALT  4620--CALLALT  4621--CALLALT
EOFCNT IN PROCEDURE FTW_RDEV
      5121**DCL      5125<<ASSIGN   5143<<ASSIGN   5143>>ASSIGN   5144>>IF
EOXL
      3711**DCL      4860<>CALL     4919<>CALL     5559<>CALL     5801<>CALL     5908<>CALL     6017<>CALL
      6286<>CALL     6663<>CALL     6717<>CALL     8083<>CALL     8198<>CALL
ERRSAV
      3712**DCL      5971<<ASSIGN   5982>>ASSIGN   6930<<ASSIGN   6935>>ASSIGN   8036<<ASSIGN   8041>>ASSIGN
E_BADBLKL
      3781**DCL      7446>>ASSIGN
E_BADKEY
      3797**DCL      7091>>ASSIGN   7304>>ASSIGN
E_BADRECL
      3810**DCL      7642>>ASSIGN   7651>>ASSIGN
E_BADSPAN
      3825**DCL      6176>>ASSIGN   7611>>ASSIGN
E_BOF
      3843**DCL      5315>>ASSIGN   5932>>ASSIGN   6864>>ASSIGN
E_BOT
      3859**DCL      5321>>ASSIGN   5374>>ASSIGN
E_CANTIO
      3874**DCL      4393>>ASSIGN   4399>>ASSIGN
E_CANTTRANSLATE
      3888**DCL      5259>>ASSIGN   5860>>ASSIGN
E_CVBOT
PL6.E3A0      #001=FTW$WRAT File=FTW$WRAT.:E05TSI                                TUE 07/29/97 18:02 Page:632
      3903**DCL      6743>>ASSIGN
E_DI
      3918**DCL      5603>>ASSIGN   5639>>ASSIGN   5670>>ASSIGN   5681>>ASSIGN
E_DOMAIN
      3931**DCL      4769>>ASSIGN
E_EOF
      3946**DCL      4928>>ASSIGN   5170>>ASSIGN   5195>>ASSIGN   5311>>ASSIGN   5492>>ASSIGN   5886>>ASSIGN
      8002>>ASSIGN   8176>>ASSIGN
E_EOT
      3959**DCL      5041>>ASSIGN   5251>>ASSIGN
E_EOVOL
      3973**DCL      5834>>ASSIGN   6647>>ASSIGN   6683>>ASSIGN
E_EOVOLS
      3987**DCL      5839>>ASSIGN
E_FILLIM
      4003**DCL      6262>>ASSIGN
E_INDBC
      4015**DCL      7311>>ASSIGN
E_KEYORDER
      4029**DCL      5775>>ASSIGN   6272>>ASSIGN
E_LD
      4043**DCL      5576>>ASSIGN   5728>>ASSIGN   6145>>ASSIGN   6187>>ASSIGN   6457>>ASSIGN   6478>>ASSIGN
E_NOCONT
      4060**DCL      4479>>ASSIGN
E_NOFPOOL
      4076**DCL      7388>>ASSIGN   8157>>ASSIGN
E_NOKEY
      4105**DCL      7132>>ASSIGN   7144>>ASSIGN   7173>>ASSIGN   7188>>ASSIGN
E_NONDECRCW
      4117**DCL      7672>>ASSIGN
E_NOTAUTH
      4132**DCL      5452>>ASSIGN
E_NOTIMPLEMENTED
      4158**DCL      4554>>ASSIGN   4653>>ASSIGN   4738>>ASSIGN   4971>>ASSIGN   5010>>ASSIGN   5428>>ASSIGN
      5447>>ASSIGN
E_NOTJRNLOWNER
PL6.E3A0      #001=FTW$WRAT File=FTW$WRAT.:E05TSI                                TUE 07/29/97 18:02 Page:633
      4174**DCL      4779>>ASSIGN
E_PARTIALKEY
      4186**DCL      6123>>ASSIGN
E_RANBADBLK
      4201**DCL      5768>>ASSIGN
E_SMALLRECL
      4215**DCL      5224>>ASSIGN   5542>>ASSIGN   5796>>ASSIGN
E_VOLOUT
      4230**DCL      6735>>ASSIGN
F$DCB.ACS
      1395**DCL      4326>>IF       4354>>IF       4367>>IF       4776>>IF       4861>>IF       4874>>IF
      5771>>IF       6239>>IF       6326>>IF       6336>>IF       6640>>IF       7129>>IF       7171>>IF
      7966>>IF       8072>>IF
F$DCB.ACTPOS
      1403**DCL      1403--REDEF
F$DCB.AFTRBLK
      1410**DCL      6631<<ASSIGN   6728<<ASSIGN   6815<<ASSIGN   6914<<ASSIGN   6917>>IF       6945<<ASSIGN
      7709>>IF       7772<<ASSIGN   8052>>IF       8055<<ASSIGN   8085<<ASSIGN   8104<<ASSIGN   8314>>IF
      8326<<ASSIGN
F$DCB.ARS
      1378**DCL      1378--REDEF    4430<<ASSIGN   4803<<ASSIGN   4811<<ASSIGN   4915<<ASSIGN   4917>>ASSIGN
      4918>>ASSIGN   5136<<ASSIGN   5146<<ASSIGN   5150<<ASSIGN   5156<<ASSIGN   5169<<ASSIGN   5183>>ASSIGN
      5227<<ASSIGN   5279<<ASSIGN   5283<<ASSIGN   5290>>IF       5291<<ASSIGN   5295<<ASSIGN   5343<<ASSIGN
      5343>>ASSIGN   5349<<ASSIGN   5402<<ASSIGN   5406<<ASSIGN   5411<<ASSIGN   5431<<ASSIGN   5532<<ASSIGN
      5538<<ASSIGN   5540<<ASSIGN   5541>>IF       5545>>IF       5546<<ASSIGN   5571>>ASSIGN   5600<<ASSIGN
      5608>>ASSIGN   5622>>ASSIGN   5636<<ASSIGN   5647>>ASSIGN   5657>>ASSIGN   5669<<ASSIGN   5676<<ASSIGN
      5699<<ASSIGN   5804<<ASSIGN   5805>>ASSIGN   5813>>ASSIGN   5837<<ASSIGN   5887<<ASSIGN   5894<<ASSIGN
      5896<<ASSIGN   5898>>ASSIGN   5899>>ASSIGN   5900>>ASSIGN   5916<<ASSIGN   5948<<ASSIGN   5951>>ASSIGN
      5952>>ASSIGN   5958<<ASSIGN   5965<<ASSIGN   5973<<ASSIGN   6013<<ASSIGN   6015>>ASSIGN   6016>>ASSIGN
      6082<<ASSIGN   6173<<ASSIGN   6183<<ASSIGN   6710<<ASSIGN   6714<<ASSIGN   6719<<ASSIGN   6724<<ASSIGN
      6740<<ASSIGN   6750<<ASSIGN   6757<<ASSIGN   6767<<ASSIGN   6784<<ASSIGN   6790<<ASSIGN   6796<<ASSIGN
      6799<<ASSIGN   6803<<ASSIGN   6806<<ASSIGN   6812<<ASSIGN   6866<<ASSIGN   6906<<ASSIGN   6909>>ASSIGN
      6911>>ASSIGN   6912<<ASSIGN   6918<<ASSIGN   6920<<ASSIGN   6924<<ASSIGN   6931<<ASSIGN   6933<<ASSIGN
      6940>>ASSIGN   6969<<ASSIGN   6970>>IF       6970<<ASSIGN   6970>>ASSIGN   7163<<ASSIGN   7397<<ASSIGN
      7400>>ASSIGN   7405<<ASSIGN   7407<<ASSIGN   7702<<ASSIGN   7719<<ASSIGN   7723<<ASSIGN   7727<<ASSIGN
      7732<<ASSIGN   8024<<ASSIGN   8030<<ASSIGN   8037<<ASSIGN   8039<<ASSIGN   8046>>ASSIGN   8181<<ASSIGN
PL6.E3A0      #001=FTW$WRAT File=FTW$WRAT.:E05TSI                                TUE 07/29/97 18:02 Page:634
      8185<<ASSIGN   8316<<ASSIGN   8319<<ASSIGN   8357<<ASSIGN   8365<<ASSIGN   8420>>ASSIGN
F$DCB.ASN
      1393**DCL      4362>>IF       4373>>IF       4428>>IF       4462>>IF       4513>>IF       4572>>IF
      4680>>IF       4798>>IF       4974>>IF       5024>>IF       8348>>IF
F$DCB.ATTR
      1396**DCL      1397--REDEF
F$DCB.BFR.BUFUP
      1422**DCL      5068<<ASSIGN   6291<<ASSIGN   6632<<ASSIGN   6668<<ASSIGN   6680<<ASSIGN   8293>>IF
      8313<<ASSIGN
F$DCB.BFR.BUFX
      1423**DCL      4854>>ASSIGN   5055>>ASSIGN   5093>>IF       5102<<ASSIGN   6210>>ASSIGN   6707>>ASSIGN
      7979>>ASSIGN   8125>>IF       8130>>ASSIGN   8151>>IF       8286>>ASSIGN
F$DCB.BLKL
      1393**DCL      5589>>ASSIGN   5618>>ASSIGN   5621>>ASSIGN   5628>>ASSIGN   5630>>ASSIGN   5631>>ASSIGN
      5658>>ASSIGN   5661>>ASSIGN   5663>>ASSIGN   5664>>ASSIGN   5725>>IF       5729>>ASSIGN   5804>>ASSIGN
      5844>>ASSIGN   5846>>ASSIGN   6186>>IF       6301>>IF       6301>>IF       6301>>IF       6382>>ASSIGN
      6390>>ASSIGN   6401>>IF       6420>>ASSIGN   6705>>ASSIGN   6708>>ASSIGN   6721>>ASSIGN   6924>>ASSIGN
      6933>>ASSIGN   7387>>IF       7392>>CALL     7397>>ASSIGN   7407>>ASSIGN   8030>>ASSIGN   8039>>ASSIGN
      8127>>CALL
F$DCB.BLKLEN
      1416**DCL      4853<<ASSIGN   5067<<ASSIGN   6120>>IF       6290<<ASSIGN   6301>>IF       6301>>IF
      6301>>IF       6410<<ASSIGN   6418<<ASSIGN   6533<<ASSIGN   6570>>ASSIGN   6628<<ASSIGN   6645<<ASSIGN
      6666<<ASSIGN   6681<<ASSIGN   6940<<ASSIGN   7400<<ASSIGN   7444>>IF       7448<<ASSIGN   7473>>ASSIGN
      7480>>CALLBLT  7481<<ASSIGN   7549>>IF       7551>>ASSIGN   7638>>IF       7640>>ASSIGN   7854<<ASSIGN
      8046<<ASSIGN   8105<<ASSIGN   8229>>IF       8232>>IF       8238>>IF       8253<<ASSIGN   8301>>IF
      8302>>ASSIGN   8304>>ASSIGN   8304>>ASSIGN   8306>>ASSIGN   8306>>ASSIGN   8308>>ASSIGN   8312<<ASSIGN
      8312>>ASSIGN   8319>>ASSIGN   8420<<ASSIGN
F$DCB.BLOCKED
      1392**DCL      6301>>IF       6545>>IF
F$DCB.BOL
      1394**DCL      4851>>ASSIGN   4853>>ASSIGN   6287>>ASSIGN   6299>>IF       6401>>IF       6626>>ASSIGN
      6628>>ASSIGN   6664>>ASSIGN   6666>>ASSIGN   7435>>IF       7467>>ASSIGN   7758>>ASSIGN   7792>>ASSIGN
      8057>>ASSIGN   8105>>ASSIGN   8106>>ASSIGN
F$DCB.BORROW
      1411**DCL      1411--REDEF    1411--REDEF    1411--REDEF
F$DCB.BYTESLEFT
PL6.E3A0      #001=FTW$WRAT File=FTW$WRAT.:E05TSI                                TUE 07/29/97 18:02 Page:635
      1414**DCL      6343<<ASSIGN   6476>>IF       6479>>ASSIGN   6482<<ASSIGN   6482>>ASSIGN
F$DCB.CBUFNUM
      1414**DCL      4854>>ASSIGN   5055>>ASSIGN   5068>>ASSIGN   5101<<ASSIGN   6210>>ASSIGN   6291>>ASSIGN
      6632>>ASSIGN   6668>>ASSIGN   6680>>ASSIGN   6707>>ASSIGN   7394<<ASSIGN   7979>>ASSIGN   8125>>IF
      8128<<ASSIGN   8130>>ASSIGN   8286>>ASSIGN   8293>>IF       8313>>ASSIGN
F$DCB.CFU$
      1412**DCL      4784<>CALL     4862>>ASSIGN   4868<>CALL     4880<>CALL     6651>>ASSIGN
F$DCB.CNVRT
      1390**DCL      5180>>IF       5234>>IF       5569>>IF       5736>>IF       6155>>IF       6504>>IF
F$DCB.CONT
      1410**DCL      4527<<ASSIGN   4849<<ASSIGN   5050<<ASSIGN   6216>>IF       6401>>IF       6575<<ASSIGN
      6577<<ASSIGN
F$DCB.CRECNO
      1415**DCL      4918<<ASSIGN   4918>>ASSIGN   5563<<ASSIGN   5563>>ASSIGN   5702<<ASSIGN   5702>>ASSIGN
      5829<<ASSIGN   5829>>ASSIGN   5876>>ASSIGN   5899<<ASSIGN   5899>>ASSIGN   5916>>ASSIGN   5943<<ASSIGN
      5943>>ASSIGN   5961<<ASSIGN   5961>>ASSIGN   5965>>ASSIGN   5976<<ASSIGN   5976>>ASSIGN   6016<<ASSIGN
      6016>>ASSIGN   6172<<ASSIGN   6172>>ASSIGN   6571<<ASSIGN   6571>>ASSIGN   6846>>ASSIGN   6849>>ASSIGN
      6876<<ASSIGN   6876>>ASSIGN   6950<<ASSIGN   6950>>ASSIGN   6969>>ASSIGN   7124>>ASSIGN   7142>>IF
      7166<<ASSIGN   7166>>ASSIGN   7186>>IF       7276>>ASSIGN   7757<<ASSIGN   7963<<ASSIGN   7963>>ASSIGN
      7998<<ASSIGN   7998>>ASSIGN   8070<<ASSIGN   8070>>ASSIGN   8096<<ASSIGN   8096>>ASSIGN   8201<<ASSIGN
      8201>>ASSIGN
F$DCB.CRECX
      1414**DCL      4851<<ASSIGN   5067>>ASSIGN   6110>>ASSIGN   6116>>ASSIGN   6120>>IF       6152>>ASSIGN
      6287<<ASSIGN   6290>>ASSIGN   6299>>IF       6319>>ASSIGN   6328>>ASSIGN   6382>>ASSIGN   6390>>ASSIGN
      6401>>IF       6401>>IF       6407>>ASSIGN   6410>>ASSIGN   6413>>ASSIGN   6418>>ASSIGN   6420>>ASSIGN
      6491>>ASSIGN   6533>>ASSIGN   6548<<ASSIGN   6548>>ASSIGN   6570<<ASSIGN   6626<<ASSIGN   6645>>ASSIGN
      6664<<ASSIGN   6681>>ASSIGN   7156>>ASSIGN   7262>>ASSIGN   7266>>ASSIGN   7270>>ASSIGN   7337>>ASSIGN
      7341>>ASSIGN   7345>>ASSIGN   7505>>ASSIGN   7512>>ASSIGN   7544>>ASSIGN   7549>>IF       7551>>ASSIGN
      7561>>ASSIGN   7638>>IF       7640>>ASSIGN   7758<<ASSIGN   7792<<ASSIGN   7854>>ASSIGN   7900<<ASSIGN
      7900>>ASSIGN   8057<<ASSIGN   8106<<ASSIGN   8229>>IF       8232>>IF       8234>>ASSIGN   8238>>IF
      8240>>ASSIGN   8253>>ASSIGN
F$DCB.CVOL
      1392**DCL      4902>>ASSIGN   4903<<ASSIGN   4945<<ASSIGN   5040>>IF       5140>>IF       5250>>IF
      5821>>IF       5832>>IF       6613>>IF       6660>>IF
F$DCB.DCBNAME.L
      1425**DCL      1425--IMP-SIZ
PL6.E3A0      #001=FTW$WRAT File=FTW$WRAT.:E05TSI                                TUE 07/29/97 18:02 Page:636
F$DCB.DVBYTE
      1381**DCL      7559<<ASSIGN
F$DCB.EBCDIC
      1390**DCL      5180>>IF       5237>>IF       5569>>IF       5739>>IF       6153>>IF       6506>>IF
      6761>>IF       6776>>IF       7018>>IF       8298>>IF       8309>>IF
F$DCB.ENQF
      1410**DCL      4785<<ASSIGN   4867>>IF       4869<<ASSIGN   4878>>IF       4881<<ASSIGN
F$DCB.EOMCHAR
      1382**DCL      1382--REDEF
F$DCB.EOP
      1407**DCL      4469<<ASSIGN   4477>>IF       4491<<ASSIGN   4526>>IF       4537<<ASSIGN   4576<<ASSIGN
      4627<<ASSIGN   4631<<ASSIGN   4698<<ASSIGN   4713<<ASSIGN   4717<<ASSIGN   4843>>IF       4946<<ASSIGN
      5032<<ASSIGN   5072<<ASSIGN   5685<<ASSIGN   5856<<ASSIGN   6136<<ASSIGN   6581<<ASSIGN   6591<<ASSIGN
      6684<<ASSIGN   6968<<ASSIGN
F$DCB.FCD
      1391**DCL      4756>>IF       4761>>IF
F$DCB.FFLG.EXEC
      1383**DCL      4764>>IF
F$DCB.FLDID
      1406**DCL      1406--REDEF
F$DCB.FMOD
      1407**DCL      5030<<ASSIGN   5069<<ASSIGN   5228<<ASSIGN   5853<<ASSIGN   6293<<ASSIGN   6578<<ASSIGN
      6588<<ASSIGN
F$DCB.FORM$
      1400**DCL      1400--REDEF
F$DCB.FSECT
      1416**DCL      1416--REDEF    5946>>CALL     5950>>IF       6760<<ASSIGN   6762<<ASSIGN   6762>>ASSIGN
      6777<<ASSIGN   6779<<ASSIGN   6779>>ASSIGN   6780>>CALLBLT  6905>>CALL     6908>>IF       7696>>IF
      7976>>IF
F$DCB.FSN
      1393**DCL      1393--REDEF    1393--REDEF    1394--REDEF    6764<<ASSIGN
F$DCB.FUN
      1392**DCL      7966>>IF       7966>>IF       8072>>IF       8072>>IF
F$DCB.GDISP
      1417**DCL      6112<<ASSIGN   6115<<ASSIGN   6119<<ASSIGN   6120>>IF       6122<<ASSIGN   6143>>ASSIGN
      6152>>ASSIGN   6174<<ASSIGN   6184<<ASSIGN   6184>>ASSIGN   6186>>IF       6325<<ASSIGN   6337<<ASSIGN
PL6.E3A0      #001=FTW$WRAT File=FTW$WRAT.:E05TSI                                TUE 07/29/97 18:02 Page:637
      6339<<ASSIGN   6383>>IF       6401>>IF       6406<>CALL     6408>>ASSIGN   6414>>ASSIGN   6418>>ASSIGN
      6423>>ASSIGN   6447>>ASSIGN   6453>>ASSIGN   6458>>ASSIGN   6491>>ASSIGN   6493>>ASSIGN   6530>>ASSIGN
      6534<<ASSIGN   6534>>ASSIGN   6548>>ASSIGN   6549<<ASSIGN   7652<<ASSIGN   7759<<ASSIGN   7797<<ASSIGN
      7813<<ASSIGN   7903<<ASSIGN   8064<<ASSIGN   8108<<ASSIGN
F$DCB.HEADER$
      1399**DCL      1399--REDEF
F$DCB.IASN
      1419**DCL      4463>>IF       4514>>IF       4553>>IF       4652>>IF       4737>>IF       4970>>IF
      5009>>IF       5548>>IF       5574>>IF       5818>>IF       6100>>IF       6607>>IF       7396>>IF
      8314>>IF       8320>>IF       8385>>IF       8410>>IF
F$DCB.IFMT
      1418**DCL      4775>>IF
F$DCB.IGNOREFSN
      1389**DCL      7603>>IF       7607>>IF
F$DCB.IOERROK
      1390**DCL      4356>>IF       4369>>IF       5552>>IF       5821>>IF       6616>>IF       6929>>IF
      7603>>IF       8035>>IF       8190>>IF
F$DCB.IXTNSIZE
      1397**DCL      1397--REDEF
F$DCB.KEYL
      1395**DCL      6119>>ASSIGN   6251>>ASSIGN   7095>>ASSIGN   7237>>ASSIGN   7267>>ASSIGN   7308>>ASSIGN
      7342>>ASSIGN
F$DCB.KEYX
      1394**DCL      6250>>ASSIGN   6323>>ASSIGN   7309>>IF
F$DCB.LASTKEY
      1411**DCL      5585<<ASSIGN   5773>>IF       5779<<ASSIGN   5808<<ASSIGN   5808>>ASSIGN   5809>>ASSIGN
      6117<<ASSIGN   6265--ASSIGN   6333>>ASSIGN   6335<<ASSIGN   7273>>ASSIGN   7346<<ASSIGN   7348<<ASSIGN
      7766<<ASSIGN   7768<<ASSIGN   8202<<ASSIGN
F$DCB.LASTKEY$
      1411**DCL      6245>>ASSIGN   6252>>ASSIGN   7339>>ASSIGN   7343>>ASSIGN
F$DCB.LASTSTA$
      1387**DCL      1387--REDEF
F$DCB.LPOOL
      1412**DCL      4432>>IF       4434>>CALL     4435<<ASSIGN   5104>>IF       5105>>CALL     5106<<ASSIGN
      8352>>CALL     8353<<ASSIGN
F$DCB.LSTBLK
PL6.E3A0      #001=FTW$WRAT File=FTW$WRAT.:E05TSI                                TUE 07/29/97 18:02 Page:638
      1410**DCL      4911>>IF       4952<<ASSIGN   5031<<ASSIGN   5071<<ASSIGN   5488>>IF       5855<<ASSIGN
      5884>>IF       5928<<ASSIGN   6004>>IF       6034<<ASSIGN   6580<<ASSIGN   6590<<ASSIGN   6887<<ASSIGN
      7705<<ASSIGN   7737<<ASSIGN   7994>>IF       8175>>IF
F$DCB.LVL
      1412**DCL      1412--REDEF
F$DCB.MAXVOL
      1398**DCL      6733>>IF
F$DCB.MUST_CVOL
      1408**DCL      4834<<ASSIGN   4844>>IF       4985<<ASSIGN   5017>>IF       5043<<ASSIGN   5215>>IF
      5253<<ASSIGN   5679<<ASSIGN   5799>>IF       5831<<ASSIGN   5935<<ASSIGN   6283>>IF       6659<<ASSIGN
      6704<<ASSIGN   6873<<ASSIGN   7695<<ASSIGN
F$DCB.NAME.C
      1387**DCL      1387--REDEF
F$DCB.NEW_FSECT
      1408**DCL      5098>>IF       6294<<ASSIGN   6944<<ASSIGN   7736<<ASSIGN   7973>>IF       8051<<ASSIGN
F$DCB.NOEOF
      1408**DCL      1408--REDEF    4799>>IF       4976>>IF       4980<<ASSIGN   5029<<ASSIGN   5037<<ASSIGN
      5070<<ASSIGN   5132>>IF       5229<<ASSIGN   5277>>IF       5346>>IF       5397>>IF       5408<<ASSIGN
      5800<<ASSIGN   5854<<ASSIGN   6285<<ASSIGN   6292<<ASSIGN   6579<<ASSIGN   6589<<ASSIGN   6662<<ASSIGN
      6716<<ASSIGN   8346>>IF       8359<<ASSIGN
F$DCB.NRECS
      1398**DCL      1398--REDEF
F$DCB.NRECX
      1417**DCL      1417--REDEF    4852<<ASSIGN   6171<<ASSIGN   6171>>ASSIGN   6288<<ASSIGN   6311<<ASSIGN
      6417<<ASSIGN   6572<<ASSIGN   6572>>ASSIGN   6627<<ASSIGN   6665<<ASSIGN   6875>>ASSIGN   6876>>ASSIGN
      6950>>ASSIGN   6951>>ASSIGN   7760<<ASSIGN   7798<<ASSIGN   7814<<ASSIGN   7840<<ASSIGN   7840>>ASSIGN
      7999<<ASSIGN   7999>>ASSIGN   8066<<ASSIGN   8097<<ASSIGN   8097>>ASSIGN   8107<<ASSIGN
F$DCB.OHDR
      1409**DCL      1409--REDEF
F$DCB.OLDIOERR
      1418**DCL      4356>>IF       4356>>IF       4369>>IF       4369>>IF       5531>>IF       5533<<ASSIGN
      5535<<ASSIGN   5554<<ASSIGN   5601>>IF       5637>>IF       6922>>IF       6923<<ASSIGN   6939<<ASSIGN
      7548>>IF       7603>>IF       7608<<ASSIGN   7804>>IF       7804>>IF       7845>>IF       7845>>IF
      7952>>IF       8013>>IF       8013>>IF       8022>>DOCASE   8026<<ASSIGN   8028<<ASSIGN   8045<<ASSIGN
      8060>>IF       8060>>IF       8180>>IF       8183<<ASSIGN   8192<<ASSIGN
F$DCB.ORG
PL6.E3A0      #001=FTW$WRAT File=FTW$WRAT.:E05TSI                                TUE 07/29/97 18:02 Page:639
      1392**DCL      1392--REDEF    4614>>IF       4614>>IF       4614>>IF       4614>>IF       4614>>IF
      4614>>IF       4614>>IF       4614>>IF       4913>>IF       5488>>IF       5488>>IF       5500>>IF
      5500>>IF       5509>>IF       5509>>IF       5567>>IF       5567>>IF       5726>>IF       5726>>IF
      5748>>IF       5748>>IF       5759>>IF       5759>>IF       5806>>IF       5806>>IF       5892>>IF
      5969>>IF       6011>>IF       6108>>IF       6108>>IF       6108>>IF       6111>>IF       6113>>IF
      6236>>DOCASE   6241>>IF       6248>>IF       6301>>IF       6301>>IF       6317>>DOCASE   6320>>IF
      6364>>IF       6383>>IF       6383>>IF       6401>>IF       6492>>IF       6552>>IF       7013>>DOCASE
      7084>>DOCASE   7121>>IF       7213>>DOCASE   7223>>IF       7260>>DOCASE   7297>>DOCASE   7335>>DOCASE
      7764>>DOCASE   7964>>IF       7964>>IF       7964>>IF       8071>>IF       8071>>IF       8071>>IF
      8298>>IF       8309>>IF
F$DCB.OWNER
      1409**DCL      4777>>IF       6641>>IF
F$DCB.PRECNO
      1415**DCL      1415--REDEF    4917<<ASSIGN   4917>>ASSIGN   5562<<ASSIGN   5562>>ASSIGN   5701<<ASSIGN
      5701>>ASSIGN   5824<<ASSIGN   5824>>ASSIGN   5825>>ASSIGN   5828<<ASSIGN   5828>>ASSIGN   5898<<ASSIGN
      5898>>ASSIGN   5936<<ASSIGN   5936>>ASSIGN   5942>>DOWHILE  5943>>ASSIGN   5944>>ASSIGN   5951<<ASSIGN
      5952<<ASSIGN   5960<<ASSIGN   5960>>ASSIGN   5975<<ASSIGN   5975>>ASSIGN   6015<<ASSIGN   6015>>ASSIGN
      6630<<ASSIGN   6630>>ASSIGN   6727<<ASSIGN   6814<<ASSIGN   6902<<ASSIGN   6902>>ASSIGN   6903>>IF
      6904>>DOWHILE  6909<<ASSIGN   6911<<ASSIGN   7165<<ASSIGN   7165>>ASSIGN   7710<<ASSIGN   7710>>ASSIGN
      7712>>IF       7717>>IF       7719>>ASSIGN   7773<<ASSIGN   8053<<ASSIGN   8053>>ASSIGN   8084<<ASSIGN
      8101>>IF       8103<<ASSIGN   8200<<ASSIGN   8200>>ASSIGN
F$DCB.RCSZ
      1420**DCL      1420--REDEF
F$DCB.REALSPAN
      1418**DCL      4317>>IF
F$DCB.RECL
      1393**DCL      6301>>IF       6343>>ASSIGN   6383>>IF       6436>>IF       6437>>ASSIGN   6474>>IF
      6493>>ASSIGN   7541>>ASSIGN   8229>>IF
F$DCB.RES
      1388**DCL      1388--REDEF
F$DCB.RPOS
      1409**DCL      4864<<ASSIGN   4866<<ASSIGN   4936<<ASSIGN   5056>>IF       6080>>IF       6087>>IF
      6126<<ASSIGN   6170<<ASSIGN   6222>>IF       6342<<ASSIGN   6573<<ASSIGN   6844>>IF       6859>>IF
      6965<<ASSIGN   6973<<ASSIGN   6995<<ASSIGN   7110>>IF       7761<<ASSIGN   7799<<ASSIGN   7969<<ASSIGN
      7996>>IF       8000<<ASSIGN   8098<<ASSIGN
F$DCB.SETX
PL6.E3A0      #001=FTW$WRAT File=FTW$WRAT.:E05TSI                                TUE 07/29/97 18:02 Page:640
      1400**DCL      1400--REDEF    4391>>ASSIGN   6773>>ASSIGN   8295>>ASSIGN
F$DCB.SEZ_OK
      1408**DCL      4814<<ASSIGN   4818<<ASSIGN   6771<<ASSIGN
F$DCB.SPAN
      1409**DCL      4813<<ASSIGN   4863>>IF       6219<<ASSIGN   6341<<ASSIGN   6516>>IF       6520<<ASSIGN
      6525<<ASSIGN   6542>>IF       6574<<ASSIGN   6642>>IF       6676>>IF       7601>>IF       7601>>IF
      7618<<ASSIGN   7620<<ASSIGN   7762<<ASSIGN   7976<<ASSIGN
F$DCB.SPANNED
      1392**DCL      6301>>IF       6383>>IF       6401>>IF       6431>>IF       6451>>IF       6472>>IF
      6515>>IF       7025>>IF       7513>>IF       7562>>IF       8241>>IF
F$DCB.STR
      1416**DCL      6762>>ASSIGN
F$DCB.TAB$
      1399**DCL      1400--REDEF
F$DCB.TAPTYP.CP6F
      1413**DCL      5950>>IF       6908>>IF       7508>>IF       7558>>IF       7700>>IF       7714>>IF
      7730>>IF       8303>>IF       8309>>IF
F$DCB.TAPTYP.HAVLASTKEY
      1413**DCL      5584<<ASSIGN   5771>>IF       5810<<ASSIGN   5836<<ASSIGN   5977<<ASSIGN   6239>>IF
      7167<<ASSIGN   7350<<ASSIGN   7763<<ASSIGN   8203<<ASSIGN
F$DCB.TAPTYP.MANAGED
      1413**DCL      4362>>IF       4373>>IF       4462>>IF       4513>>IF       4572>>IF       4680>>IF
      4800>>IF       4974>>IF       5026>>IF       8298>>IF
F$DCB.TAPTYP.NOCVOL
      1413**DCL      4329<<ASSIGN   4566<<ASSIGN   4674<<ASSIGN   5058<<ASSIGN   6224<<ASSIGN   7102<<ASSIGN
F$DCB.TAPTYP.PASTFM
      1413**DCL      4807>>IF       4978>>IF       4981<<ASSIGN   5038<<ASSIGN   5230<<ASSIGN   5400>>IF
      5409<<ASSIGN
F$DCB.TAPTYP.RWASC
      1413**DCL      8388>>IF       8413>>IF
F$DCB.TAPTYP.USRBUF
      1413**DCL      4461>>IF       4512>>IF       4585>>IF       4619>>IF       4692>>IF       4706>>IF
      4909>>IF       4989>>IF       5051>>IF       7108>>IF       7139>>IF       7154>>IF       7161>>IF
      7182>>IF       7399>>IF       8344>>IF       8418>>IF
F$DCB.TDA
      1414**DCL      1414--REDEF
PL6.E3A0      #001=FTW$WRAT File=FTW$WRAT.:E05TSI                                TUE 07/29/97 18:02 Page:641
F$DCB.TRNC
      1410**DCL      5053>>IF       5099<<ASSIGN   5100<<ASSIGN   6208>>IF       7395>>IF       7414<<ASSIGN
      7972>>IF
F$DCB.TYC
      1378**DCL      4363<<ASSIGN   4374<<ASSIGN   5174<<ASSIGN   5174>>ASSIGN   5296<<ASSIGN   5307<<ASSIGN
      5307>>ASSIGN   5370<<ASSIGN   5370>>ASSIGN   5891>>DOWHILE
F$DCB.TYC.BOF
      1378**DCL      5304>>IF       5358>>IF       5367<<ASSIGN   6712>>IF
F$DCB.TYC.BOT
      1378**DCL      4984<<ASSIGN   5319>>IF       5372>>IF       6742>>IF       7725>>IF
F$DCB.TYC.DI
      1379**DCL      5602<<ASSIGN   5638<<ASSIGN   7550<<ASSIGN   7606<<ASSIGN   7808<<ASSIGN   7849<<ASSIGN
      8017<<ASSIGN   8061<<ASSIGN
F$DCB.TYC.EOD
      1379**DCL      5173<<ASSIGN   5306<<ASSIGN
F$DCB.TYC.EOF
      1379**DCL      5133<<ASSIGN   5140>>IF       5142>>DOWHILE  5158<<ASSIGN   5166>>IF       5280<<ASSIGN
      5304>>IF       5308>>IF       5347<<ASSIGN   5358>>IF       5360>>IF       5363<<ASSIGN   5558>>IF
      5907>>IF       7399>>IF       8050>>IF       8197>>IF       8418>>IF
F$DCB.TYC.EOT
      1378**DCL      5039>>IF       5044<<ASSIGN   5249>>IF       5254<<ASSIGN   5830>>IF       6625>>IF
F$DCB.TYC.IOERR
      1379**DCL      5555<<ASSIGN   6941<<ASSIGN   7953<<ASSIGN   8047<<ASSIGN   8193<<ASSIGN
F$DCB.TYC.LD
      1379**DCL      5574>>IF       7806<<ASSIGN   7847<<ASSIGN   8015<<ASSIGN
F$DCB.UB$
      1416**DCL      6557>>ASSIGN   7011>>ASSIGN
F$DCB.UBYTES
      1416**DCL      6556>>ASSIGN   7012>>ASSIGN
F$DCB.VOL
      1398**DCL      4826>>CALL     6734>>CALL     6772>>CALL     6777>>ASSIGN
F$DCB.WSN
      1389**DCL      1389--REDEF
F$DCB.WSR
      1395**DCL      4759<<ASSIGN   4767>>IF
FIELD_CHAR IN PROCEDURE FTW_CHKDEC
PL6.E3A0      #001=FTW$WRAT File=FTW$WRAT.:E05TSI                                TUE 07/29/97 18:02 Page:642
      7666**DCL      7661--PROC     7671>>CALLBLT
FIELD_LENGTH IN PROCEDURE FTW_CHKDEC
      7667**DCL      7661--PROC     7666--IMP-SIZ  7671>>CALLBLT
FM$BUF$
      1795**DCL      4856>>ASSIGN   5055>>ASSIGN   6210>>ASSIGN   6707>>ASSIGN   7979>>ASSIGN   8130>>ASSIGN
      8296>>ASSIGN
FM$CFUJ.ERR_WAIT
      1474**DCL      4862<<ASSIGN   6651<<ASSIGN
FMD$GETBUF
      3645**DCL-ENT  7392--CALL     8127--CALL     8152--CALL
FMD$RELBUF
      3646**DCL-ENT  4434--CALL     5097--CALL     5105--CALL     6416--CALL     6726--CALL     6732--CALL
      6809--CALL     6820--CALL     8352--CALL
FMM$DFLOPN
      3647**DCL-ENT  4760--CALL
FMO$GETDOMAIN
      3648**DCL-ENT  4758--CALL     4766--CALL
FOUR_BASED_CHARS
      3713**DCL      4860--CALL     4860--CALL     5502<>CALL     5765>>ASSIGN   6259--ASSIGN   6330<<ASSIGN
      6330>>ASSIGN   7216>>ASSIGN   7271<<ASSIGN   7271>>ASSIGN   7274<<ASSIGN   7277<<ASSIGN
FP$ IN PROCEDURE FTW_TMPFPOOL
      8142**DCL      8137--PROC     8148<<ASSIGN   8152<>CALL     8156>>IF
FPNUM IN PROCEDURE FTW_TMPFPOOL
      8143**DCL      8137--PROC     8160<<ASSIGN
FPO$COPYOD
      3651**DCL-ENT  5458--CALL
FPO$LABELOD
      3649**DCL-ENT  5456--CALL
FPO$RDODBLK
      3653**DCL-ENT  8411--CALL
FPO$RDODMAP
      3650**DCL-ENT  5432--CALL
FPO$TRUNC
      3654**DCL-ENT  8321--CALL
FPO$UNTRUNC
      3655**DCL-ENT  7398--CALL
PL6.E3A0      #001=FTW$WRAT File=FTW$WRAT.:E05TSI                                TUE 07/29/97 18:02 Page:643
FPO$WRODBLK
      3652**DCL-ENT  8386--CALL
FPT
      3689**DCL        10--PROC     4331--ASSIGN
FPT$
      3714**DCL      1306--IMP-PTR  1312--IMP-PTR  1319--IMP-PTR  1322--IMP-PTR  4331<<ASSIGN   4335>>ASSIGN
      4338>>ASSIGN   4339>>ASSIGN   4346>>ASSIGN   4477>>IF       4506>>ASSIGN   4557>>IF       4557>>IF
      4559>>IF       4574>>ASSIGN   4596>>ASSIGN   4597>>IF       4597>>IF       4613>>ASSIGN   4624>>IF
      4656>>ASSIGN   5137>>IF       5178>>IF       5180>>IF       5231>>IF       5234>>IF       5427>>IF
      5445>>IF       5445>>IF       5455>>IF       5488>>IF       5500>>IF       5509>>IF       5569>>IF
      5594>>IF       5736>>IF       5748>>IF       5926>>IF       6065>>IF       6078>>IF       6092>>IF
      6100>>IF       6103>>IF       6155>>IF       6504>>IF       6568>>IF       6616>>IF       6885>>IF
FPT$PFIL_V.BOF
      1319**DCL      4656>>ASSIGN
FPT$PRECORD_V.BOF
      1322**DCL      4557>>IF       4559>>IF       4597>>IF
FPT$PRECORD_V.EOF
      1322**DCL      4557>>IF       4597>>IF
FPT$PRECORD_V.IOERROK
      1323**DCL      4346>>ASSIGN
FPT$PRECORD_V.KEYR
      1322**DCL      4624>>IF
FPT$PRECORD_V.KEYS
      1322**DCL      4596>>ASSIGN
FPT$PRECORD_V.N
      1323**DCL      4574>>ASSIGN   4613>>ASSIGN
FPT$PRECORD_V.NOMARKS
      1323**DCL      5926>>IF       6885>>IF
FPT$READ_V.DVBYTE.BIN
      1315**DCL      5137>>IF       5178>>IF
FPT$READ_V.DVBYTE.CONT
      1315**DCL      4477>>IF       6078>>IF
FPT$READ_V.DVBYTE.REREAD
      1314**DCL      1315--REDEF
FPT$READ_V.DVBYTE.TRANS
      1315**DCL      5180>>IF       5569>>IF       5736>>IF       6155>>IF
PL6.E3A0      #001=FTW$WRAT File=FTW$WRAT.:E05TSI                                TUE 07/29/97 18:02 Page:644
FPT$READ_V.FULL
      1312**DCL      5509>>IF
FPT$READ_V.INDX
      1314**DCL      1314--REDEF
FPT$READ_V.IOERROK
      1313**DCL      4335>>ASSIGN
FPT$READ_V.KEYR
      1312**DCL      5594>>IF       6103>>IF
FPT$READ_V.KEYS
      1312**DCL      5488>>IF       5500>>IF       6065>>IF       6092>>IF       6100>>IF
FPT$WRITE_V.DVBYTE
      1307**DCL      4338>>ASSIGN   4506>>ASSIGN
FPT$WRITE_V.DVBYTE.BIN
      1308**DCL      5231>>IF
FPT$WRITE_V.DVBYTE.CONT
      1308**DCL      6568>>IF
FPT$WRITE_V.DVBYTE.TRANS
      1308**DCL      5234>>IF       6504>>IF
FPT$WRITE_V.DVBYTE.VFC
      1308**DCL      1308--REDEF
FPT$WRITE_V.FULL
      1306**DCL      5748>>IF
FPT$WRITE_V.IOERROK
      1307**DCL      4339>>ASSIGN   6616>>IF
FPT$WRITE_V.ODFNC
      1309**DCL      5427>>IF       5445>>IF       5445>>IF       5455>>IF
FPTCODE
      3688**DCL        10--PROC     4333>>DOCASE   6495>>IF       6495>>IF       6498>>IF
FRSTKEY IN PROCEDURE FTW_RUSRBUF
      5479**DCL      5529<<ASSIGN   5586>>IF       5587<<ASSIGN   5588>>ASSIGN   5590>>ASSIGN
FT$BLKHDRE.LS
      2223**DCL      6718>>ASSIGN   6723>>ASSIGN   6811>>ASSIGN   7438>>ASSIGN   7474<<ASSIGN
FT$DDT.FMCNT
      1881**DCL      5171<<ASSIGN   5171>>ASSIGN   5312<<ASSIGN   5312>>ASSIGN   5316<<ASSIGN   5316>>ASSIGN
      5364<<ASSIGN   5364>>ASSIGN   5368<<ASSIGN   5368>>ASSIGN
FT$DDT.FMNEEDED
PL6.E3A0      #001=FTW$WRAT File=FTW$WRAT.:E05TSI                                TUE 07/29/97 18:02 Page:645
      1899**DCL      8322<<ASSIGN   8356<<ASSIGN   8392<<ASSIGN
FT$DDT.FUNNYPOS
      1906**DCL      4398>>IF
FT$DDT.POS
      1901**DCL      4408>>IF       4428>>IF       4437<<ASSIGN   5036<<ASSIGN   5168<<ASSIGN   5177<<ASSIGN
      5243<<ASSIGN   5298<<ASSIGN   5310<<ASSIGN   5322<<ASSIGN   5352<<ASSIGN   5362<<ASSIGN   5375<<ASSIGN
FT$DDT.POSLOST
      1894**DCL      4398>>IF       5551<<ASSIGN   5820<<ASSIGN   6615<<ASSIGN   6928<<ASSIGN   8034<<ASSIGN
      8189<<ASSIGN
FT$HDR.L1
      2213**DCL      8235>>IF
FT$HDR.L2
      2214**DCL      8235>>IF
FT$HDR.S1
      2215**DCL      7507<<ASSIGN   7547>>ASSIGN
FT$HDR.S2
      2216**DCL      7509<<ASSIGN   7510<<ASSIGN   7559>>ASSIGN
FT$HDRE.LS
      2231**DCL      7506<<ASSIGN   7545>>ASSIGN
FT$KEY
      2254**DCL      4605<>CALL     6101<>CALL     6244--ASSIGN
FT$KEY.KL
      2255**DCL      2256--IMP-SIZ  4605>>CALL     6101>>CALL     6112>>ASSIGN   6243>>ASSIGN   7225>>ASSIGN
      7263>>ASSIGN   7301>>ASSIGN   7338>>ASSIGN
FT$LBL1.BLK_CNT
      2009**DCL      6782>>ASSIGN   6783<<ASSIGN   6786<<ASSIGN
FT$LBL1.FSECT
      1998**DCL      6759>>CALLBLT  6780<<CALLBLT
FT$LBL1.FSEQU_NUM
      2000**DCL      6763>>CALLBLT
FT$LBL1.LABEL_ID
      1993**DCL      6756<<ASSIGN   6781<<ASSIGN   6787<<ASSIGN
FT$LBL1.SYSTEM_ID
      2011**DCL      2012--REDEF
FT$LBL2.CP6
      2084**DCL      2102--REDEF
PL6.E3A0      #001=FTW$WRAT File=FTW$WRAT.:E05TSI                                TUE 07/29/97 18:02 Page:646
FT$LBL2.LABEL_ID
      2075**DCL      6766<<ASSIGN   6789<<ASSIGN   6792<<ASSIGN
FT$ORGD.SIZE
      2248**DCL      7480<<CALLBLT  7518<<CALLBLT  7572<>CALL     7572--CALL     7574>>CALLBLT  8245>>IF
FT$ORGS.SIZE
      2240**DCL      7515<<CALLBLT  7564<>CALL     7564--CALL     7568>>CALLBLT  8242>>IF
FT$ORGS.SPAN
      2239**DCL      7516<<ASSIGN   7566<>CALL     7566--CALL     7569>>ASSIGN
FT$ULBL.LABEL_NBIN
      2178**DCL      2179--REDEF
FTI$RDASC
      3656**DCL-ENT  5139--CALL     5147--CALL     8414--CALL
FTI$RDBIN
      3657**DCL-ENT  5138--CALL     8416--CALL
FTI$REWIND
      3658**DCL-ENT  4983--CALL
FTI$SPFILE
      3659**DCL-ENT  4431--CALL     4804--CALL     4812--CALL     5151--CALL     5290--CALL     5344--CALL
      5350--CALL     6741--CALL     6751--CALL     6913--CALL     7724--CALL     7728--CALL     8358--CALL
      8366--CALL
FTI$SPREC
      3660**DCL-ENT  4916--CALL     5157--CALL     5284--CALL     5292--CALL     5534--CALL     5700--CALL
      5838--CALL     5897--CALL     5949--CALL     5959--CALL     5974--CALL     6014--CALL     6711--CALL
      6715--CALL     6907--CALL     6921--CALL     6932--CALL     7164--CALL     7406--CALL     7703--CALL
      7720--CALL     7733--CALL     8025--CALL     8038--CALL     8182--CALL     8317--CALL
FTI$WRASC
      3661**DCL-ENT  5241--CALL     8389--CALL
FTI$WRBIN
      3662**DCL-ENT  5232--CALL     8391--CALL
FTI$WRFM
      3663**DCL-ENT  4802--CALL     4808--CALL     4810--CALL     4978--CALL     4979--CALL     5035--CALL
      5399--CALL     5405--CALL     6769--CALL     6770--CALL     6793--CALL     6794--CALL     6801--CALL
      6808--CALL     7365--CALL     8350--CALL     8354--CALL     8355--CALL     8363--CALL     8364--CALL
FTL$CVOL
      3664**DCL-ENT  4860--CALL     5801--CALL     6286--CALL     6663--CALL     6717--CALL
FTL$EOF
PL6.E3A0      #001=FTW$WRAT File=FTW$WRAT.:E05TSI                                TUE 07/29/97 18:02 Page:647
      3665**DCL-ENT  4919--CALL     5559--CALL     5908--CALL     6017--CALL     8083--CALL     8198--CALL
FTL$LBLS
      3667**DCL-ENT  8351--CALL
FTL$PBSN
      3668**DCL-ENT  5946--CALL     6905--CALL     7699--CALL
FTL$VOL1
      3669**DCL-ENT  6774--CALL
FTR$CHNGVOL
      3670**DCL-ENT  4826--CALL     6772--CALL
FTR$GETSN
      3671**DCL-ENT  6734--CALL
FTR$JRNLDCB
      3672**DCL-ENT  4327--CALL     4783--CALL
FTR$UNJRNLDCB
      3673**DCL-ENT  4355--CALL     4368--CALL     4876--CALL
FTT$TRUNC
      5084**ENTRY    4351--CALL
FTW$CVOL
      4730**ENTRY    5018--CALL
FTW$CVOLFT
      4744**ENTRY    5152--CALL     5216--CALL
FTW$TRNCHLD
      8260**ENTRY    4850--CALL     5095--CALL     6610--CALL     7364--CALL     8345--CALL
FTW$TRNCOD
      8271**ENTRY    6608--CALL
FTWCVOLCONT
      4746**LABEL    4742--GOTO
FTW_BACKUSRBUF IN PROCEDURE FTW_RUSRBUF
      5692**PROC     5599--CALL     5635--CALL
FTW_BOF
      7682**PROC     4697--CALL     4991--CALL     5931--CALL     6863--CALL     7138--CALL
FTW_CHKDEC
      7661**PROC     7564--CALL     7566--CALL     7572--CALL
FTW_CHKIO
      4379**PROC     4328--CALL     4565--CALL     4673--CALL     4792--CALL
FTW_CHKSEG
PL6.E3A0      #001=FTW$WRAT File=FTW$WRAT.:E05TSI                                TUE 07/29/97 18:02 Page:648
      8215**PROC     7793--CALL     7901--CALL     7980--CALL     8058--CALL
FTW_CHKSEGINFO
      7913**PROC     7794--CALL     7902--CALL     7981--CALL     8059--CALL
FTW_CHK_KEY_PS1
      7288**PROC     6238--CALL
FTW_COMPARE_KEYS
      7200**PROC     6246--CALL     6253--CALL     6266--CALL     7157--CALL
FTW_DEVBACK
      5386**PROC     5289--CALL     5342--CALL
FTW_END_MANAGED_FREE_SECT
      7357**PROC     4801--CALL     5028--CALL
FTW_FNDKEY
      7063**PROC     4605--CALL     5502--CALL     6101--CALL
FTW_GETAFPOOL$
      8118**PROC     5511--CALL     5750--CALL     7975--CALL
FTW_GETBLKLEN
      7423**PROC     6938--CALL     7401--CALL     8044--CALL     8421--CALL
FTW_GETSIZE
      7526**PROC     6218--CALL     7920--CALL
FTW_INIT
      7004**PROC     4455--CALL     4505--CALL     4587--CALL     4694--CALL     4709--CALL     4848--CALL
      4932--CALL     4988--CALL     5049--CALL
FTW_IOERRCVOL
      6693**PROC     5823--CALL     6618--CALL
FTW_NXTRB
      7861**PROC     7796--CALL     7839--CALL
FTW_ODRDEV
      5422**PROC     4466--CALL
FTW_ODWDEV
      5440**PROC     4517--CALL
FTW_P1RB
      7780**PROC     6877--CALL     6946--CALL     6953--CALL     8069--CALL
FTW_PFDEV
      5333**PROC     4682--CALL
FTW_PFIL
      4644**PROC     4349--CALL
PL6.E3A0      #001=FTW$WRAT File=FTW$WRAT.:E05TSI                                TUE 07/29/97 18:02 Page:649
FTW_PFIL2
      4666**PROC     4562--CALL     4657--CALL
FTW_PFL
      6983**PROC     4710--CALL
FTW_PFUSRBUF
      5993**PROC     4707--CALL
FTW_PNRB
      7821**PROC     6948--CALL     7962--CALL
FTW_PNRS
      7932**PROC     4933--CALL     4935--CALL     5059--CALL     6062--CALL     6089--CALL     6167--CALL
      6225--CALL     6963--CALL     6991--CALL     6994--CALL     7047--CALL     7111--CALL     7141--CALL
      7184--CALL
FTW_PNRSNE
      7039**PROC     4588--CALL     4695--CALL     4990--CALL     6837--CALL
FTW_PNSB
      7893**PROC     7837--CALL     7876--CALL     7882--CALL     7951--CALL
FTW_PNUR
      8167**PROC     4923--CALL     5903--CALL     5972--CALL     6021--CALL     7109--CALL     7140--CALL
      7183--CALL
FTW_POSEOSECT
      4891**PROC     4845--CALL
FTW_PR
      6828**PROC     4621--CALL     6644--CALL     6679--CALL
FTW_PRDEV
      5268**PROC     4575--CALL
FTW_PRECORD
      4544**PROC     4347--CALL
FTW_PRUSRBUF
      5869**PROC     4620--CALL
FTW_RDEV
      5112**PROC     4464--CALL
FTW_RDFPOOL
      8403**PROC     5547--CALL     6713--CALL     6746--CALL     6748--CALL     6752--CALL     6754--CALL
      6925--CALL     6934--CALL     7408--CALL     8031--CALL     8040--CALL     8186--CALL
FTW_READ
      4448**PROC     4336--CALL
PL6.E3A0      #001=FTW$WRAT File=FTW$WRAT.:E05TSI                                TUE 07/29/97 18:02 Page:650
FTW_RESTORE_POS
      4416**PROC     4409--CALL     5063--CALL     6068--CALL     6094--CALL     6229--CALL     7051--CALL
      7137--CALL
FTW_RETURN_KEY_PS1
      7253**PROC     4625--CALL     5595--CALL     6104--CALL
FTW_REW
      4959**PROC     4342--CALL
FTW_RNR
      6043**PROC     4487--CALL
FTW_RUSRBUF
      5468**PROC     4468--CALL
FTW_SAVE_LAST_KEY
      7323**PROC     6326--CALL     6336--CALL     7967--CALL     8073--CALL
FTW_SETBLKLEN
      7455**PROC     4857--CALL     6411--CALL     6419--CALL     6535--CALL     6629--CALL     6667--CALL
      7412--CALL     8109--CALL
FTW_SETSIZE
      7489**PROC     6532--CALL
FTW_SET_BOF_INDICATORS
      7750**PROC     7366--CALL     7740--CALL
FTW_SIZECHK
      7627**PROC     7922--CALL
FTW_SPANCHK
      7587**PROC     7921--CALL
FTW_TMPFPOOL
      8137**PROC     6406--CALL     6706--CALL     6739--CALL
FTW_TRNCWEOF
      8333**PROC     5927--CALL     6886--CALL     7136--CALL     7698--CALL     7708--CALL
FTW_TRUNCIT
      6600**PROC     6310--CALL     6389--CALL     6412--CALL     6546--CALL
FTW_UNDOTRUNC
      7376**PROC     5054--CALL     6209--CALL     7972--CALL
FTW_WDEV
      5204**PROC     4515--CALL
FTW_WEOF
      5002**PROC     4344--CALL
PL6.E3A0      #001=FTW$WRAT File=FTW$WRAT.:E05TSI                                TUE 07/29/97 18:02 Page:651
FTW_WNR
      6197**PROC     4533--CALL
FTW_WRFPOOL
      8378**PROC     5817--CALL     6720--CALL     6725--CALL     6758--CALL     6768--CALL     6785--CALL
      6791--CALL     6797--CALL     6800--CALL     6804--CALL     6807--CALL     6813--CALL     8325--CALL
FTW_WRITE
      4498**PROC     4340--CALL
FTW_WUSRBUF
      5714**PROC     4519--CALL
FT_NONDECIMAL_TABLE
      3617**DCL      7671>>CALLBLT
F_ASC_ASC
      3621**DCL      5239>>CALLBLT  5741>>CALLBLT  6508>>CALLBLT
F_ASC_EBC
      3625**DCL      5238>>CALLBLT  5740>>CALLBLT  6507>>CALLBLT
F_EBC_ASC
      3629**DCL      5186>>CALLBLT  5572>>CALLBLT  6156>>CALLBLT
GETFP IN PROCEDURE FTW_TMPFPOOL
      8150**LABEL    8153--EXIT
HFC$CACHECLR
      3674**DCL-ENT  5582--CALL     8196--CALL
HFF$DSIZ
      3675**DCL-ENT  4821--CALL     4829--CALL     5761--CALL     6256--CALL     7299--CALL
HFF$NILERASE
      3676**DCL-ENT  6329--CALL
HFF$WRITE1
      3677**DCL-ENT  5236--CALL     5738--CALL
HOPEKEYSIZE0 IN PROCEDURE FTW_CHK_KEY_PS1
      7299**LABEL    7299--CALLALT
HOPETEMP0 IN PROCEDURE FTW_WUSRBUF
      5761**LABEL    5761--CALLALT
HOPETEMP00 IN PROCEDURE FTW_WNR
      6257**LABEL    6256--CALLALT
I
      3716**DCL      6416<>CALL     8150<<DOINDEX  8151>>IF       8152<>CALL     8160>>ASSIGN
IOERROK
PL6.E3A0      #001=FTW$WRAT File=FTW$WRAT.:E05TSI                                TUE 07/29/97 18:02 Page:652
      3717**DCL      4330<<ASSIGN   4335<<ASSIGN   4339<<ASSIGN   4346<<ASSIGN   4356>>IF       4369>>IF
      5552>>IF       5821>>IF       6929>>IF       8035>>IF       8190>>IF
JDCB$
      3718**DCL      1378--IMP-PTR  4316<<ASSIGN   4317>>IF       4326>>IF       4329>>ASSIGN   4354>>IF
      4356>>IF       4356>>IF       4356>>IF       4362>>IF       4362>>IF       4363>>ASSIGN   4367>>IF
      4369>>IF       4369>>IF       4369>>IF       4373>>IF       4373>>IF       4374>>ASSIGN   4390<<ASSIGN
      4391>>ASSIGN   4428>>IF       4430>>ASSIGN   4432>>IF       4434>>CALL     4435>>ASSIGN   4461>>IF
      4462>>IF       4462>>IF       4463>>IF       4469>>ASSIGN   4477>>IF       4491>>ASSIGN   4512>>IF
      4513>>IF       4513>>IF       4514>>IF       4526>>IF       4527>>ASSIGN   4537>>ASSIGN   4553>>IF
      4566>>ASSIGN   4572>>IF       4572>>IF       4576>>ASSIGN   4585>>IF       4614>>IF       4614>>IF
      4614>>IF       4614>>IF       4614>>IF       4614>>IF       4614>>IF       4614>>IF       4619>>IF
      4627>>ASSIGN   4631>>ASSIGN   4652>>IF       4674>>ASSIGN   4680>>IF       4680>>IF       4692>>IF
      4698>>ASSIGN   4706>>IF       4713>>ASSIGN   4717>>ASSIGN   4755<<ASSIGN   4756>>IF       4759>>ASSIGN
      4761>>IF       4764>>IF       4767>>IF       4775>>IF       4776>>IF       4777>>IF       4784>>CALL
      4785>>ASSIGN   4798>>IF       4799>>IF       4800>>IF       4803>>ASSIGN   4807>>IF       4811>>ASSIGN
      4813>>ASSIGN   4814>>ASSIGN   4818>>ASSIGN   4826>>CALL     4834>>ASSIGN   4843>>IF       4844>>IF
      4849>>ASSIGN   4851>>ASSIGN   4851>>ASSIGN   4852>>ASSIGN   4853>>ASSIGN   4853>>ASSIGN   4854>>ASSIGN
      4854>>ASSIGN   4861>>IF       4862>>ASSIGN   4863>>IF       4864>>ASSIGN   4866>>ASSIGN   4867>>IF
      4868>>CALL     4869>>ASSIGN   4874>>IF       4878>>IF       4880>>CALL     4881>>ASSIGN   4902>>ASSIGN
      4903>>ASSIGN   4909>>IF       4911>>IF       4913>>IF       4915>>ASSIGN   4917>>ASSIGN   4917>>ASSIGN
      4917>>ASSIGN   4918>>ASSIGN   4918>>ASSIGN   4918>>ASSIGN   4936>>ASSIGN   4945>>ASSIGN   4946>>ASSIGN
      4952>>ASSIGN   4970>>IF       4974>>IF       4974>>IF       4976>>IF       4978>>IF       4980>>ASSIGN
      4981>>ASSIGN   4984>>ASSIGN   4985>>ASSIGN   4989>>IF       5009>>IF       5017>>IF       5024>>IF
      5026>>IF       5029>>ASSIGN   5030>>ASSIGN   5031>>ASSIGN   5032>>ASSIGN   5037>>ASSIGN   5038>>ASSIGN
      5039>>IF       5040>>IF       5043>>ASSIGN   5044>>ASSIGN   5050>>ASSIGN   5051>>IF       5053>>IF
      5055>>ASSIGN   5055>>ASSIGN   5056>>IF       5058>>ASSIGN   5067>>ASSIGN   5067>>ASSIGN   5068>>ASSIGN
      5068>>ASSIGN   5069>>ASSIGN   5070>>ASSIGN   5071>>ASSIGN   5072>>ASSIGN   5091<<ASSIGN   5093>>IF
      5098>>IF       5099>>ASSIGN   5100>>ASSIGN   5101>>ASSIGN   5102>>ASSIGN   5104>>IF       5105>>CALL
      5106>>ASSIGN   5132>>IF       5133>>ASSIGN   5136>>ASSIGN   5140>>IF       5140>>IF       5142>>DOWHILE
      5146>>ASSIGN   5150>>ASSIGN   5156>>ASSIGN   5158>>ASSIGN   5166>>IF       5169>>ASSIGN   5173>>ASSIGN
      5174>>ASSIGN   5174>>ASSIGN   5180>>IF       5180>>IF       5183>>ASSIGN   5215>>IF       5227>>ASSIGN
      5228>>ASSIGN   5229>>ASSIGN   5230>>ASSIGN   5234>>IF       5237>>IF       5249>>IF       5250>>IF
      5253>>ASSIGN   5254>>ASSIGN   5277>>IF       5279>>ASSIGN   5280>>ASSIGN   5283>>ASSIGN   5290>>IF
      5291>>ASSIGN   5295>>ASSIGN   5296>>ASSIGN   5304>>IF       5304>>IF       5306>>ASSIGN   5307>>ASSIGN
      5307>>ASSIGN   5308>>IF       5319>>IF       5343>>ASSIGN   5343>>ASSIGN   5346>>IF       5347>>ASSIGN
      5349>>ASSIGN   5358>>IF       5358>>IF       5360>>IF       5363>>ASSIGN   5367>>ASSIGN   5370>>ASSIGN
PL6.E3A0      #001=FTW$WRAT File=FTW$WRAT.:E05TSI                                TUE 07/29/97 18:02 Page:653
      5370>>ASSIGN   5372>>IF       5397>>IF       5400>>IF       5402>>ASSIGN   5406>>ASSIGN   5408>>ASSIGN
      5409>>ASSIGN   5411>>ASSIGN   5431>>ASSIGN   5488>>IF       5488>>IF       5488>>IF       5500>>IF
      5500>>IF       5509>>IF       5509>>IF       5531>>IF       5532>>ASSIGN   5533>>ASSIGN   5535>>ASSIGN
      5538>>ASSIGN   5540>>ASSIGN   5541>>IF       5545>>IF       5546>>ASSIGN   5548>>IF       5552>>IF
      5554>>ASSIGN   5555>>ASSIGN   5558>>IF       5562>>ASSIGN   5562>>ASSIGN   5563>>ASSIGN   5563>>ASSIGN
      5567>>IF       5567>>IF       5569>>IF       5569>>IF       5571>>ASSIGN   5574>>IF       5574>>IF
      5584>>ASSIGN   5585>>ASSIGN   5589>>ASSIGN   5600>>ASSIGN   5601>>IF       5602>>ASSIGN   5608>>ASSIGN
      5618>>ASSIGN   5621>>ASSIGN   5622>>ASSIGN   5628>>ASSIGN   5630>>ASSIGN   5631>>ASSIGN   5636>>ASSIGN
      5637>>IF       5638>>ASSIGN   5647>>ASSIGN   5657>>ASSIGN   5658>>ASSIGN   5661>>ASSIGN   5663>>ASSIGN
      5664>>ASSIGN   5669>>ASSIGN   5676>>ASSIGN   5679>>ASSIGN   5685>>ASSIGN   5699>>ASSIGN   5701>>ASSIGN
      5701>>ASSIGN   5702>>ASSIGN   5702>>ASSIGN   5725>>IF       5726>>IF       5726>>IF       5729>>ASSIGN
      5736>>IF       5739>>IF       5748>>IF       5748>>IF       5759>>IF       5759>>IF       5771>>IF
      5771>>IF       5773>>IF       5779>>ASSIGN   5799>>IF       5800>>ASSIGN   5804>>ASSIGN   5804>>ASSIGN
      5805>>ASSIGN   5806>>IF       5806>>IF       5808>>ASSIGN   5808>>ASSIGN   5809>>ASSIGN   5810>>ASSIGN
      5813>>ASSIGN   5818>>IF       5821>>IF       5821>>IF       5824>>ASSIGN   5824>>ASSIGN   5825>>ASSIGN
      5828>>ASSIGN   5828>>ASSIGN   5829>>ASSIGN   5829>>ASSIGN   5830>>IF       5831>>ASSIGN   5832>>IF
      5836>>ASSIGN   5837>>ASSIGN   5844>>ASSIGN   5846>>ASSIGN   5853>>ASSIGN   5854>>ASSIGN   5855>>ASSIGN
      5856>>ASSIGN   5876>>ASSIGN   5884>>IF       5887>>ASSIGN   5891>>DOWHILE  5892>>IF       5894>>ASSIGN
      5896>>ASSIGN   5898>>ASSIGN   5898>>ASSIGN   5898>>ASSIGN   5899>>ASSIGN   5899>>ASSIGN   5899>>ASSIGN
      5900>>ASSIGN   5907>>IF       5916>>ASSIGN   5916>>ASSIGN   5928>>ASSIGN   5935>>ASSIGN   5936>>ASSIGN
      5936>>ASSIGN   5942>>DOWHILE  5943>>ASSIGN   5943>>ASSIGN   5943>>ASSIGN   5944>>ASSIGN   5946>>CALL
      5948>>ASSIGN   5950>>IF       5950>>IF       5951>>ASSIGN   5951>>ASSIGN   5952>>ASSIGN   5952>>ASSIGN
      5958>>ASSIGN   5960>>ASSIGN   5960>>ASSIGN   5961>>ASSIGN   5961>>ASSIGN   5965>>ASSIGN   5965>>ASSIGN
      5969>>IF       5973>>ASSIGN   5975>>ASSIGN   5975>>ASSIGN   5976>>ASSIGN   5976>>ASSIGN   5977>>ASSIGN
      6004>>IF       6011>>IF       6013>>ASSIGN   6015>>ASSIGN   6015>>ASSIGN   6015>>ASSIGN   6016>>ASSIGN
      6016>>ASSIGN   6016>>ASSIGN   6034>>ASSIGN   6080>>IF       6082>>ASSIGN   6087>>IF       6100>>IF
      6108>>IF       6108>>IF       6108>>IF       6110>>ASSIGN   6111>>IF       6112>>ASSIGN   6113>>IF
      6115>>ASSIGN   6116>>ASSIGN   6117>>ASSIGN   6119>>ASSIGN   6119>>ASSIGN   6120>>IF       6120>>IF
      6120>>IF       6122>>ASSIGN   6126>>ASSIGN   6136>>ASSIGN   6143>>ASSIGN   6152>>ASSIGN   6152>>ASSIGN
      6153>>IF       6155>>IF       6170>>ASSIGN   6171>>ASSIGN   6171>>ASSIGN   6172>>ASSIGN   6172>>ASSIGN
      6173>>ASSIGN   6174>>ASSIGN   6183>>ASSIGN   6184>>ASSIGN   6184>>ASSIGN   6186>>IF       6186>>IF
      6208>>IF       6210>>ASSIGN   6210>>ASSIGN   6216>>IF       6219>>ASSIGN   6222>>IF       6224>>ASSIGN
      6236>>DOCASE   6239>>IF       6239>>IF       6241>>IF       6245>>ASSIGN   6248>>IF       6250>>ASSIGN
      6251>>ASSIGN   6252>>ASSIGN   6265>>ASSIGN   6283>>IF       6285>>ASSIGN   6287>>ASSIGN   6287>>ASSIGN
      6288>>ASSIGN   6290>>ASSIGN   6290>>ASSIGN   6291>>ASSIGN   6291>>ASSIGN   6292>>ASSIGN   6293>>ASSIGN
      6294>>ASSIGN   6299>>IF       6299>>IF       6301>>IF       6301>>IF       6301>>IF       6301>>IF
PL6.E3A0      #001=FTW$WRAT File=FTW$WRAT.:E05TSI                                TUE 07/29/97 18:02 Page:654
      6301>>IF       6301>>IF       6301>>IF       6301>>IF       6301>>IF       6301>>IF       6301>>IF
      6311>>ASSIGN   6317>>DOCASE   6319>>ASSIGN   6320>>IF       6323>>ASSIGN   6325>>ASSIGN   6326>>IF
      6328>>ASSIGN   6333>>ASSIGN   6335>>ASSIGN   6336>>IF       6337>>ASSIGN   6339>>ASSIGN   6341>>ASSIGN
      6342>>ASSIGN   6343>>ASSIGN   6343>>ASSIGN   6364>>IF       6382>>ASSIGN   6382>>ASSIGN   6383>>IF
      6383>>IF       6383>>IF       6383>>IF       6383>>IF       6390>>ASSIGN   6390>>ASSIGN   6401>>IF
      6401>>IF       6401>>IF       6401>>IF       6401>>IF       6401>>IF       6401>>IF       6401>>IF
      6406>>CALL     6407>>ASSIGN   6408>>ASSIGN   6410>>ASSIGN   6410>>ASSIGN   6413>>ASSIGN   6414>>ASSIGN
      6417>>ASSIGN   6418>>ASSIGN   6418>>ASSIGN   6418>>ASSIGN   6420>>ASSIGN   6420>>ASSIGN   6423>>ASSIGN
      6431>>IF       6436>>IF       6437>>ASSIGN   6447>>ASSIGN   6451>>IF       6453>>ASSIGN   6458>>ASSIGN
      6472>>IF       6474>>IF       6476>>IF       6479>>ASSIGN   6482>>ASSIGN   6482>>ASSIGN   6491>>ASSIGN
      6491>>ASSIGN   6492>>IF       6493>>ASSIGN   6493>>ASSIGN   6504>>IF       6506>>IF       6515>>IF
      6516>>IF       6520>>ASSIGN   6525>>ASSIGN   6530>>ASSIGN   6533>>ASSIGN   6533>>ASSIGN   6534>>ASSIGN
      6534>>ASSIGN   6542>>IF       6545>>IF       6548>>ASSIGN   6548>>ASSIGN   6548>>ASSIGN   6549>>ASSIGN
      6552>>IF       6556>>ASSIGN   6557>>ASSIGN   6570>>ASSIGN   6570>>ASSIGN   6571>>ASSIGN   6571>>ASSIGN
      6572>>ASSIGN   6572>>ASSIGN   6573>>ASSIGN   6574>>ASSIGN   6575>>ASSIGN   6577>>ASSIGN   6578>>ASSIGN
      6579>>ASSIGN   6580>>ASSIGN   6581>>ASSIGN   6588>>ASSIGN   6589>>ASSIGN   6590>>ASSIGN   6591>>ASSIGN
      6607>>IF       6613>>IF       6616>>IF       6625>>IF       6626>>ASSIGN   6626>>ASSIGN   6627>>ASSIGN
      6628>>ASSIGN   6628>>ASSIGN   6630>>ASSIGN   6630>>ASSIGN   6631>>ASSIGN   6632>>ASSIGN   6632>>ASSIGN
      6640>>IF       6641>>IF       6642>>IF       6645>>ASSIGN   6645>>ASSIGN   6651>>ASSIGN   6659>>ASSIGN
      6660>>IF       6662>>ASSIGN   6664>>ASSIGN   6664>>ASSIGN   6665>>ASSIGN   6666>>ASSIGN   6666>>ASSIGN
      6668>>ASSIGN   6668>>ASSIGN   6676>>IF       6680>>ASSIGN   6680>>ASSIGN   6681>>ASSIGN   6681>>ASSIGN
      6684>>ASSIGN   6704>>ASSIGN   6705>>ASSIGN   6707>>ASSIGN   6707>>ASSIGN   6708>>ASSIGN   6710>>ASSIGN
      6712>>IF       6714>>ASSIGN   6716>>ASSIGN   6719>>ASSIGN   6721>>ASSIGN   6724>>ASSIGN   6727>>ASSIGN
      6728>>ASSIGN   6733>>IF       6734>>CALL     6740>>ASSIGN   6742>>IF       6750>>ASSIGN   6757>>ASSIGN
      6760>>ASSIGN   6761>>IF       6762>>ASSIGN   6762>>ASSIGN   6762>>ASSIGN   6764>>ASSIGN   6767>>ASSIGN
      6771>>ASSIGN   6772>>CALL     6773>>ASSIGN   6776>>IF       6777>>ASSIGN   6777>>ASSIGN   6779>>ASSIGN
      6779>>ASSIGN   6780>>CALLBLT  6784>>ASSIGN   6790>>ASSIGN   6796>>ASSIGN   6799>>ASSIGN   6803>>ASSIGN
      6806>>ASSIGN   6812>>ASSIGN   6814>>ASSIGN   6815>>ASSIGN   6844>>IF       6846>>ASSIGN   6849>>ASSIGN
      6859>>IF       6866>>ASSIGN   6873>>ASSIGN   6875>>ASSIGN   6876>>ASSIGN   6876>>ASSIGN   6876>>ASSIGN
      6887>>ASSIGN   6902>>ASSIGN   6902>>ASSIGN   6903>>IF       6904>>DOWHILE  6905>>CALL     6906>>ASSIGN
      6908>>IF       6908>>IF       6909>>ASSIGN   6909>>ASSIGN   6911>>ASSIGN   6911>>ASSIGN   6912>>ASSIGN
      6914>>ASSIGN   6917>>IF       6918>>ASSIGN   6920>>ASSIGN   6922>>IF       6923>>ASSIGN   6924>>ASSIGN
      6924>>ASSIGN   6929>>IF       6931>>ASSIGN   6933>>ASSIGN   6933>>ASSIGN   6939>>ASSIGN   6940>>ASSIGN
      6940>>ASSIGN   6941>>ASSIGN   6944>>ASSIGN   6945>>ASSIGN   6950>>ASSIGN   6950>>ASSIGN   6950>>ASSIGN
      6951>>ASSIGN   6965>>ASSIGN   6968>>ASSIGN   6969>>ASSIGN   6969>>ASSIGN   6970>>IF       6970>>ASSIGN
      6970>>ASSIGN   6973>>ASSIGN   6995>>ASSIGN   7011>>ASSIGN   7012>>ASSIGN   7013>>DOCASE   7018>>IF
PL6.E3A0      #001=FTW$WRAT File=FTW$WRAT.:E05TSI                                TUE 07/29/97 18:02 Page:655
      7025>>IF       7084>>DOCASE   7095>>ASSIGN   7102>>ASSIGN   7108>>IF       7110>>IF       7121>>IF
      7124>>ASSIGN   7129>>IF       7139>>IF       7142>>IF       7154>>IF       7156>>ASSIGN   7161>>IF
      7163>>ASSIGN   7165>>ASSIGN   7165>>ASSIGN   7166>>ASSIGN   7166>>ASSIGN   7167>>ASSIGN   7171>>IF
      7182>>IF       7186>>IF       7213>>DOCASE   7223>>IF       7237>>ASSIGN   7260>>DOCASE   7262>>ASSIGN
      7266>>ASSIGN   7267>>ASSIGN   7270>>ASSIGN   7273>>ASSIGN   7276>>ASSIGN   7297>>DOCASE   7308>>ASSIGN
      7309>>IF       7335>>DOCASE   7337>>ASSIGN   7339>>ASSIGN   7341>>ASSIGN   7342>>ASSIGN   7343>>ASSIGN
      7345>>ASSIGN   7346>>ASSIGN   7348>>ASSIGN   7350>>ASSIGN   7387>>IF       7392>>CALL     7394>>ASSIGN
      7395>>IF       7396>>IF       7397>>ASSIGN   7397>>ASSIGN   7399>>IF       7399>>IF       7400>>ASSIGN
      7400>>ASSIGN   7405>>ASSIGN   7407>>ASSIGN   7407>>ASSIGN   7414>>ASSIGN   7435>>IF       7444>>IF
      7448>>ASSIGN   7467>>ASSIGN   7473>>ASSIGN   7480>>CALLBLT  7481>>ASSIGN   7505>>ASSIGN   7508>>IF
      7512>>ASSIGN   7513>>IF       7541>>ASSIGN   7544>>ASSIGN   7548>>IF       7549>>IF       7549>>IF
      7550>>ASSIGN   7551>>ASSIGN   7551>>ASSIGN   7558>>IF       7559>>ASSIGN   7561>>ASSIGN   7562>>IF
      7601>>IF       7601>>IF       7603>>IF       7603>>IF       7603>>IF       7606>>ASSIGN   7607>>IF
      7608>>ASSIGN   7618>>ASSIGN   7620>>ASSIGN   7638>>IF       7638>>IF       7640>>ASSIGN   7640>>ASSIGN
      7652>>ASSIGN   7695>>ASSIGN   7696>>IF       7700>>IF       7702>>ASSIGN   7705>>ASSIGN   7709>>IF
      7710>>ASSIGN   7710>>ASSIGN   7712>>IF       7714>>IF       7717>>IF       7719>>ASSIGN   7719>>ASSIGN
      7723>>ASSIGN   7725>>IF       7727>>ASSIGN   7730>>IF       7732>>ASSIGN   7736>>ASSIGN   7737>>ASSIGN
      7757>>ASSIGN   7758>>ASSIGN   7758>>ASSIGN   7759>>ASSIGN   7760>>ASSIGN   7761>>ASSIGN   7762>>ASSIGN
      7763>>ASSIGN   7764>>DOCASE   7766>>ASSIGN   7768>>ASSIGN   7772>>ASSIGN   7773>>ASSIGN   7792>>ASSIGN
      7792>>ASSIGN   7797>>ASSIGN   7798>>ASSIGN   7799>>ASSIGN   7804>>IF       7804>>IF       7806>>ASSIGN
      7808>>ASSIGN   7813>>ASSIGN   7814>>ASSIGN   7840>>ASSIGN   7840>>ASSIGN   7845>>IF       7845>>IF
      7847>>ASSIGN   7849>>ASSIGN   7854>>ASSIGN   7854>>ASSIGN   7900>>ASSIGN   7900>>ASSIGN   7903>>ASSIGN
      7952>>IF       7953>>ASSIGN   7963>>ASSIGN   7963>>ASSIGN   7964>>IF       7964>>IF       7964>>IF
      7966>>IF       7966>>IF       7966>>IF       7969>>ASSIGN   7972>>IF       7973>>IF       7976>>IF
      7976>>ASSIGN   7979>>ASSIGN   7979>>ASSIGN   7994>>IF       7996>>IF       7998>>ASSIGN   7998>>ASSIGN
      7999>>ASSIGN   7999>>ASSIGN   8000>>ASSIGN   8013>>IF       8013>>IF       8015>>ASSIGN   8017>>ASSIGN
      8022>>DOCASE   8024>>ASSIGN   8026>>ASSIGN   8028>>ASSIGN   8030>>ASSIGN   8030>>ASSIGN   8035>>IF
      8037>>ASSIGN   8039>>ASSIGN   8039>>ASSIGN   8045>>ASSIGN   8046>>ASSIGN   8046>>ASSIGN   8047>>ASSIGN
      8050>>IF       8051>>ASSIGN   8052>>IF       8053>>ASSIGN   8053>>ASSIGN   8055>>ASSIGN   8057>>ASSIGN
      8057>>ASSIGN   8060>>IF       8060>>IF       8061>>ASSIGN   8064>>ASSIGN   8066>>ASSIGN   8070>>ASSIGN
      8070>>ASSIGN   8071>>IF       8071>>IF       8071>>IF       8072>>IF       8072>>IF       8072>>IF
      8084>>ASSIGN   8085>>ASSIGN   8096>>ASSIGN   8096>>ASSIGN   8097>>ASSIGN   8097>>ASSIGN   8098>>ASSIGN
      8101>>IF       8103>>ASSIGN   8104>>ASSIGN   8105>>ASSIGN   8105>>ASSIGN   8106>>ASSIGN   8106>>ASSIGN
      8107>>ASSIGN   8108>>ASSIGN   8125>>IF       8125>>IF       8127>>CALL     8128>>ASSIGN   8130>>ASSIGN
      8130>>ASSIGN   8151>>IF       8175>>IF       8180>>IF       8181>>ASSIGN   8183>>ASSIGN   8185>>ASSIGN
      8190>>IF       8192>>ASSIGN   8193>>ASSIGN   8197>>IF       8200>>ASSIGN   8200>>ASSIGN   8201>>ASSIGN
PL6.E3A0      #001=FTW$WRAT File=FTW$WRAT.:E05TSI                                TUE 07/29/97 18:02 Page:656
      8201>>ASSIGN   8202>>ASSIGN   8203>>ASSIGN   8229>>IF       8229>>IF       8229>>IF       8232>>IF
      8232>>IF       8234>>ASSIGN   8238>>IF       8238>>IF       8240>>ASSIGN   8241>>IF       8253>>ASSIGN
      8253>>ASSIGN   8285<<ASSIGN   8286>>ASSIGN   8286>>ASSIGN   8293>>IF       8293>>IF       8295>>ASSIGN
      8298>>IF       8298>>IF       8298>>IF       8301>>IF       8302>>ASSIGN   8303>>IF       8304>>ASSIGN
      8304>>ASSIGN   8306>>ASSIGN   8306>>ASSIGN   8308>>ASSIGN   8309>>IF       8309>>IF       8309>>IF
      8312>>ASSIGN   8312>>ASSIGN   8313>>ASSIGN   8313>>ASSIGN   8314>>IF       8314>>IF       8316>>ASSIGN
      8319>>ASSIGN   8319>>ASSIGN   8320>>IF       8326>>ASSIGN   8344>>IF       8346>>IF       8348>>IF
      8352>>CALL     8353>>ASSIGN   8357>>ASSIGN   8359>>ASSIGN   8365>>ASSIGN   8385>>IF       8388>>IF
      8410>>IF       8413>>IF       8418>>IF       8418>>IF       8420>>ASSIGN   8420>>ASSIGN
JUSTALT
      4367**LABEL    4328--CALLALT  4336--CALLALT  4340--CALLALT  4342--CALLALT  4344--CALLALT  4347--CALLALT
      4349--CALLALT  4351--CALLALT  4801--CALLALT  4802--CALLALT  4804--CALLALT  4808--CALLALT  4810--CALLALT
      4812--CALLALT  8317--CALLALT  8321--CALLALT  8325--CALLALT
JUSTALT IN PROCEDURE FTW_BACKUSRBUF
      5702**LABEL    5700--CALLALT
JUSTALT IN PROCEDURE FTW_BOF
      7733**LABEL    7698--CALLALT  7699--CALLALT  7703--CALLALT  7708--CALLALT  7720--CALLALT  7724--CALLALT
      7728--CALLALT  7733--CALLALT
JUSTALT IN PROCEDURE FTW_CHKIO
      4399**LABEL    4409--CALLALT
JUSTALT IN PROCEDURE FTW_CHKSEGINFO
      7920**LABEL    7920--CALLALT
JUSTALT IN PROCEDURE FTW_DEVBACK
      5408**LABEL    5399--CALLALT  5405--CALLALT
JUSTALT IN PROCEDURE FTW_END_MANAGED_FREE_SECT
      7364**LABEL    7364--CALLALT  7365--CALLALT
JUSTALT IN PROCEDURE FTW_FNDKEY
      7183**LABEL    7136--CALLALT  7137--CALLALT  7164--CALLALT
JUSTALT IN PROCEDURE FTW_GETSIZE
      7571**LABEL    7564--CALLALT  7566--CALLALT  7572--CALLALT
JUSTALT IN PROCEDURE FTW_IOERRCVOL
      6812**LABEL    6706--CALLALT  6739--CALLALT  6813--CALLALT
JUSTALT IN PROCEDURE FTW_NXTRB
      7874**LABEL    7876--CALLALT  7882--CALLALT
JUSTALT IN PROCEDURE FTW_ODRDEV
      5434**LABEL    5432--CALLALT
PL6.E3A0      #001=FTW$WRAT File=FTW$WRAT.:E05TSI                                TUE 07/29/97 18:02 Page:657
JUSTALT IN PROCEDURE FTW_ODWDEV
      5455**LABEL    5456--CALLALT  5458--CALLALT
JUSTALT IN PROCEDURE FTW_PFDEV
      5371**LABEL    5342--CALLALT  5344--CALLALT  5350--CALLALT
JUSTALT IN PROCEDURE FTW_PFIL
      4656**LABEL    4657--CALLALT
JUSTALT IN PROCEDURE FTW_PFIL2
      4720**LABEL    4673--CALLALT  4682--CALLALT  4695--CALLALT  4697--CALLALT
JUSTALT IN PROCEDURE FTW_PFL
      6994**LABEL    6991--CALLALT  6994--CALLALT
JUSTALT IN PROCEDURE FTW_PFUSRBUF
      6034**LABEL    6014--CALLALT
JUSTALT IN PROCEDURE FTW_PNRS
      8110**LABEL    7972--CALLALT  7981--CALLALT  8025--CALLALT  8038--CALLALT  8040--CALLALT  8059--CALLALT
JUSTALT IN PROCEDURE FTW_PNRSNE
      7049**LABEL    7051--CALLALT
JUSTALT IN PROCEDURE FTW_PNSB
      7903**LABEL    7901--CALLALT  7902--CALLALT
JUSTALT IN PROCEDURE FTW_PNUR
      8203**LABEL    8182--CALLALT  8198--CALLALT
JUSTALT IN PROCEDURE FTW_PR
      6977**LABEL    6837--CALLALT  6863--CALLALT  6886--CALLALT  6905--CALLALT  6907--CALLALT  6913--CALLALT
      6921--CALLALT  6932--CALLALT  6934--CALLALT
JUSTALT IN PROCEDURE FTW_PRDEV
      5318**LABEL    5284--CALLALT  5289--CALLALT  5290--CALLALT  5292--CALLALT
JUSTALT IN PROCEDURE FTW_PRECORD
      4634**LABEL    4562--CALLALT  4565--CALLALT  4605--CALLALT
JUSTALT IN PROCEDURE FTW_PRUSRBUF
      5976**LABEL    5897--CALLALT  5927--CALLALT  5931--CALLALT  5946--CALLALT  5949--CALLALT  5959--CALLALT
      5974--CALLALT
JUSTALT IN PROCEDURE FTW_RDEV
      5194**LABEL    5138--CALLALT  5139--CALLALT  5147--CALLALT  5151--CALLALT  5157--CALLALT
JUSTALT IN PROCEDURE FTW_RDFPOOL
      8418**LABEL    8411--CALLALT  8414--CALLALT  8416--CALLALT
JUSTALT IN PROCEDURE FTW_READ
      4477**LABEL    4464--CALLALT  4466--CALLALT  4468--CALLALT  4487--CALLALT
PL6.E3A0      #001=FTW$WRAT File=FTW$WRAT.:E05TSI                                TUE 07/29/97 18:02 Page:658
JUSTALT IN PROCEDURE FTW_RESTORE_POS
      4438**LABEL    4431--CALLALT
JUSTALT IN PROCEDURE FTW_REW
      4990**LABEL    4978--CALLALT  4979--CALLALT  4983--CALLALT  4990--CALLALT  4991--CALLALT
JUSTALT IN PROCEDURE FTW_RNR
      6186**LABEL    6068--CALLALT  6094--CALLALT  6101--CALLALT
JUSTALT IN PROCEDURE FTW_RUSRBUF
      5685**LABEL    5502--CALLALT  5534--CALLALT  5599--CALLALT  5635--CALLALT
JUSTALT IN PROCEDURE FTW_TRNCWEOF
      8372**LABEL    8345--CALLALT  8350--CALLALT  8351--CALLALT  8354--CALLALT  8355--CALLALT  8358--CALLALT
      8363--CALLALT  8364--CALLALT  8366--CALLALT
JUSTALT IN PROCEDURE FTW_TRUNCIT
      6684**LABEL    6608--CALLALT  6618--CALLALT  6644--CALLALT  6663--CALLALT  6679--CALLALT
JUSTALT IN PROCEDURE FTW_UNDOTRUNC
      7414**LABEL    7398--CALLALT  7406--CALLALT  7408--CALLALT
JUSTALT IN PROCEDURE FTW_WDEV
      5259**LABEL    5216--CALLALT  5232--CALLALT  5241--CALLALT
JUSTALT IN PROCEDURE FTW_WEOF
      5068**LABEL    5018--CALLALT  5028--CALLALT  5035--CALLALT  5054--CALLALT  5063--CALLALT
JUSTALT IN PROCEDURE FTW_WNR
      6581**LABEL    6209--CALLALT  6218--CALLALT  6229--CALLALT  6238--CALLALT  6286--CALLALT  6310--CALLALT
      6389--CALLALT  6412--CALLALT  6546--CALLALT
JUSTALT IN PROCEDURE FTW_WRFPOOL
      8394**LABEL    8386--CALLALT  8389--CALLALT  8391--CALLALT
JUSTALT IN PROCEDURE FTW_WRITE
      4537**LABEL    4515--CALLALT  4517--CALLALT  4519--CALLALT  4533--CALLALT
JUSTALT IN PROCEDURE FTW_WUSRBUF
      5860**LABEL    5801--CALLALT  5823--CALLALT  5838--CALLALT
KEY IN PROCEDURE FTW_FNDKEY
      7072**DCL      7063--PROC     7123--ASSIGN
KEY.C IN PROCEDURE FTW_FNDKEY
      7074**DCL      7122--ASSIGN
KEY.KL IN PROCEDURE FTW_FNDKEY
      7073**DCL      7074--IMP-SIZ  7088>>ASSIGN
KEYCHARS
      3729**DCL      6321<<ASSIGN   6321>>ASSIGN   6323<<ASSIGN   6323>>ASSIGN   7264<<ASSIGN   7264>>ASSIGN
PL6.E3A0      #001=FTW$WRAT File=FTW$WRAT.:E05TSI                                TUE 07/29/97 18:02 Page:659
      7268<<ASSIGN   7268>>ASSIGN   7339<<ASSIGN   7339>>ASSIGN   7343<<ASSIGN   7343>>ASSIGN
KEYS IN PROCEDURE FTW_PRECORD
      4549**DCL      4596<<ASSIGN   4598<<ASSIGN   4603>>IF       4614>>IF
KEYSIZE
      3730**DCL      3729--IMP-SIZ  6277<<ASSIGN   6301>>IF       6321>>ASSIGN   6321>>ASSIGN   6323>>ASSIGN
      6323>>ASSIGN   6325>>ASSIGN   6337>>ASSIGN   7263<<ASSIGN   7264>>ASSIGN   7264>>ASSIGN   7267<<ASSIGN
      7268>>ASSIGN   7268>>ASSIGN   7299<>CALL     7301>>IF       7301<<ASSIGN   7302>>IF       7302>>IF
      7308<<ASSIGN   7309>>IF       7315<<ASSIGN   7338<<ASSIGN   7339>>ASSIGN   7339>>ASSIGN   7342<<ASSIGN
      7343>>ASSIGN   7343>>ASSIGN
MAXMKEY IN PROCEDURE FTW_RUSRBUF
      5480**DCL      5590<<ASSIGN   5614>>IF       5625>>DOWHILE  5633>>IF
MAXRECL
      3731**DCL      6382<<ASSIGN   6383>>IF       6383>>IF       6383>>IF       6390<<ASSIGN   6420<<ASSIGN
      6423>>ASSIGN   6432>>IF       6433<<ASSIGN   6436>>IF       6437<<ASSIGN   6438>>IF       6439<<ASSIGN
      6448>>IF       6450>>ASSIGN   6458>>ASSIGN
N
      3732**DCL      3733--REDEF    3734--IMP-SIZ  4391<<ASSIGN   4392>>IF       4397>>ASSIGN   4574<<ASSIGN
      4613<<ASSIGN   4614>>IF       4758<>CALL     4759>>ASSIGN   4766<>CALL     4767>>IF       4820<<ASSIGN
      4821<>CALL     4823>>IF       4828<<ASSIGN   4829<>CALL     4831>>IF       5275>>IF       5283>>ASSIGN
      5287>>IF       5291>>ASSIGN   5589<<ASSIGN   5590>>ASSIGN   5608<<ASSIGN   5610>>ASSIGN   5610>>ASSIGN
      5622<<ASSIGN   5623>>ASSIGN   5623>>ASSIGN   5647<<ASSIGN   5649>>ASSIGN   5649>>ASSIGN   5674<<ASSIGN
      5675>>IF       5675>>IF       5793<<ASSIGN   5802<<ASSIGN   5825<<ASSIGN   5827<<ASSIGN   5827>>ASSIGN
      5837>>ASSIGN   5882>>IF       5890>>DOWHILE  5891>>DOWHILE  5893>>IF       5896>>ASSIGN   5900<<ASSIGN
      5900>>ASSIGN   5904<<ASSIGN   5904>>ASSIGN   5912<<ASSIGN   5924>>IF       5929>>IF       5932>>IF
      5942>>DOWHILE  5944<<ASSIGN   5944>>ASSIGN   5958>>ASSIGN   5960>>ASSIGN   5961>>ASSIGN   6585<<ASSIGN
      6586>>IF       6586>>IF       6643<<ASSIGN   6678<<ASSIGN   6759<<CALLBLT  6760>>ASSIGN   6763<<CALLBLT
      6764>>ASSIGN   6847<<ASSIGN   6847>>ASSIGN   6859>>IF       6859>>IF       6861>>IF       6875<<ASSIGN
      6875>>ASSIGN   6883>>IF       6893>>DOWHILE  6951<<ASSIGN   6951>>ASSIGN   6962>>DOWHILE  6964<<ASSIGN
      6964>>ASSIGN   6971>>IF       7217>>IF       7219>>IF
N$DCT$$
      2492**DCL      2492--IMP-PTR  4397>>ASSIGN   6773>>ASSIGN   8295>>ASSIGN
NC
      3733**DCL      7216<<ASSIGN
NCHARS
      3734**DCL      5610<<ASSIGN   5610>>ASSIGN   5623<<ASSIGN   5623>>ASSIGN   5649<<ASSIGN   5649>>ASSIGN
NEEDNXTBLK IN PROCEDURE FTW_PNRS
PL6.E3A0      #001=FTW$WRAT File=FTW$WRAT.:E05TSI                                TUE 07/29/97 18:02 Page:660
      8004**LABEL    8058--CALLALT  8069--CALLALT
NEXTKEY IN PROCEDURE FTW_RUSRBUF
      5481**DCL      5588<<ASSIGN   5597>>IF       5598>>IF       5618>>ASSIGN   5621>>ASSIGN   5625>>DOWHILE
      5625>>DOWHILE  5627<<ASSIGN   5627>>ASSIGN   5652<<ASSIGN
NK$LDCT.DDT$
      2454**DCL      2454--REDEF    4397>>ASSIGN   6773>>ASSIGN   8295>>ASSIGN
NK$LDCT.IOQ$
      2453**DCL      2454--REDEF
NK$LDCT.LDCTX
      2455**DCL      2455--REDEF
NK$LDCT.LKFLG.ABORTED
      2467**DCL      2468--REDEF
NK$LDCT.RLCID.LDCTX
      2477**DCL      2477--REDEF
NK$LDCT.STA$
      2473**DCL      2474--REDEF
NK$LDCT.SYMB$
      2452**DCL      2452--REDEF    2452--REDEF    2453--REDEF
NK$LDCT$
      2492**DCL      4397>>ASSIGN   6773>>ASSIGN   8295>>ASSIGN
NK_URTBL
      3637**DCL      6499>>CALLBLT
NK_URTBLUC
      3633**DCL      6500>>CALLBLT
NO1ST IN PROCEDURE FTW_PR
      6893**LABEL    6946--CALLALT  6953--CALLALT
NO1STREC IN PROCEDURE FTW_PR
      6877**LABEL    6877--CALLALT
NOKEYS IN PROCEDURE FTW_WNR
      6330**LABEL    6329--CALLALT
NONEBEGIN IN PROCEDURE FTW_P1RB
      7799**LABEL    7793--CALLALT  7794--CALLALT  7796--CALLALT
NOTRANSLATE IN PROCEDURE FTW_WDEV
      5249**LABEL    5236--CALLALT
NOTRANSLATE IN PROCEDURE FTW_WUSRBUF
      5856**LABEL    5738--CALLALT
PL6.E3A0      #001=FTW$WRAT File=FTW$WRAT.:E05TSI                                TUE 07/29/97 18:02 Page:661
NOUHL
      4820**LABEL    4821--CALLALT
NOUTL
      4828**LABEL    4829--CALLALT
NULPAD
      3765**DCL      7471>>ASSIGN   8310>>ASSIGN
PPREDONE IN PROCEDURE FTW_PR
      6963**LABEL    6936--GOTO     6963--CALLALT
RCWSIZE
      3735**DCL      5512<<ASSIGN   5515<<ASSIGN   5522>>IF       5537>>IF       5545>>IF       5546>>ASSIGN
      5590>>ASSIGN   5606>>IF       5608>>ASSIGN   5609>>ASSIGN   5616>>IF       5621>>ASSIGN   5622>>ASSIGN
      5628>>ASSIGN   5630>>ASSIGN   5631>>ASSIGN   5645>>IF       5647>>ASSIGN   5648>>ASSIGN   5657>>ASSIGN
      5658>>ASSIGN   5661>>ASSIGN   5662>>IF       5664>>ASSIGN   5751<<ASSIGN   5753<<ASSIGN   5789>>IF
      5795>>IF       5804>>ASSIGN   5805>>ASSIGN   5812>>IF       5813>>ASSIGN   5814>>ASSIGN   5843>>IF
      5846>>ASSIGN   6110>>ASSIGN   6112>>ASSIGN   6115>>ASSIGN   6116>>ASSIGN   6119>>ASSIGN   6174>>ASSIGN
      6301>>IF       6301>>IF       6319>>ASSIGN   6325>>ASSIGN   6328>>ASSIGN   6337>>ASSIGN   6339>>ASSIGN
      6383>>IF       6383>>IF       6549>>ASSIGN   7015<<ASSIGN   7020<<ASSIGN   7026<<ASSIGN   7027<<ASSIGN
      7030<<ASSIGN   7156>>ASSIGN   7262>>ASSIGN   7266>>ASSIGN   7270>>ASSIGN   7337>>ASSIGN   7341>>ASSIGN
      7345>>ASSIGN   7549>>IF       7551>>ASSIGN   7649>>IF       7759>>ASSIGN   7797>>ASSIGN   7813>>ASSIGN
      7903>>ASSIGN   8064>>ASSIGN   8108>>ASSIGN   8232>>IF       8235>>IF       8238>>IF
RCWTYPE
      3736**DCL      6350>>DOCASE   7016<<ASSIGN   7021<<ASSIGN   7024<<ASSIGN   7031<<ASSIGN   7436>>IF
      7469>>IF       7501>>DOCASE   7539>>DOCASE   8227>>DOCASE
RECSIZE
      3737**DCL      5526<<ASSIGN   5600>>ASSIGN   5628<<ASSIGN   5628>>ASSIGN   5629>>ASSIGN   5636>>ASSIGN
      5657>>ASSIGN   5660<<ASSIGN   5661<<ASSIGN   5661>>ASSIGN   5669>>ASSIGN   5677>>IF       6135<<ASSIGN
      6160<<ASSIGN   6160>>ASSIGN   6173>>ASSIGN   6175>>IF       6183>>ASSIGN   6352<<ASSIGN   6354<<ASSIGN
      6383>>IF       6432>>IF       6433>>ASSIGN   6438>>IF       6439>>ASSIGN
RELBUF
      5095**LABEL    5095--CALLALT
RELFP IN PROCEDURE FTW_IOERRCVOL
      6812**LABEL    6711--CALLALT  6713--CALLALT  6715--CALLALT  6717--CALLALT  6720--CALLALT  6725--CALLALT
      6741--CALLALT  6744--GOTO     6746--CALLALT  6748--CALLALT  6751--CALLALT  6752--CALLALT  6754--CALLALT
      6758--CALLALT  6768--CALLALT  6769--CALLALT  6770--CALLALT  6772--CALLALT  6774--CALLALT  6785--CALLALT
      6791--CALLALT  6793--CALLALT  6794--CALLALT  6797--CALLALT  6800--CALLALT  6801--CALLALT  6804--CALLALT
      6807--CALLALT  6808--CALLALT
PL6.E3A0      #001=FTW$WRAT File=FTW$WRAT.:E05TSI                                TUE 07/29/97 18:02 Page:662
SEG IN PROCEDURE FTW_PNRS
      7941**DCL      7932--PROC     7949>>DOCASE   7996>>IF       8056>>IF       8065>>IF
SEGBLKEND IN PROCEDURE FTW_PNRB
      7840**LABEL    7837--CALLALT  7839--CALLALT
SEGSIZE
      3738**DCL      5527<<ASSIGN   5629<<ASSIGN   5657<<ASSIGN   5660>>ASSIGN   5676>>ASSIGN   6122>>ASSIGN
      6143>>ASSIGN   6376<<ASSIGN   6377>>DOWHILE  6530<<ASSIGN   6533>>ASSIGN   7506>>ASSIGN   7506>>ASSIGN
      7515>>CALLBLT  7518>>CALLBLT  7541<<ASSIGN   7545<<ASSIGN   7546<<ASSIGN   7546>>ASSIGN   7546>>ASSIGN
      7549>>IF       7551<<ASSIGN   7568<<CALLBLT  7574<<CALLBLT  7638>>IF       7640<<ASSIGN   7649>>IF
      7652>>ASSIGN   7900>>ASSIGN
SETARSRET IN PROCEDURE FTW_RUSRBUF
      5664**LABEL    5543--GOTO
SETBLKLEN IN PROCEDURE FTW_CHKSEG
      8240**LABEL    8229--GOTO     8233--GOTO     8236--GOTO     8238--GOTO     8243--GOTO     8246--GOTO
SIX_CHARS
      3739**DCL      6734--CALL     6782<<ASSIGN   6786>>ASSIGN
SIZE IN PROCEDURE FTW_TMPFPOOL
      8144**DCL      8137--PROC     8152>>CALL
SPANINFO
      3740**DCL      6165>>IF       6165>>IF       6169>>IF       6186>>IF       6186>>IF       6219>>IF
      6518<<ASSIGN   6521<<ASSIGN   6526<<ASSIGN   6528<<ASSIGN   6529<<ASSIGN   6881<<ASSIGN   6883>>IF
      6893>>DOWHILE  7507>>ASSIGN   7516>>ASSIGN   7542<<ASSIGN   7547<<ASSIGN   7552>>IF       7553<<ASSIGN
      7554>>IF       7555<<ASSIGN   7569<<ASSIGN   7575<<ASSIGN   7601>>IF       7601>>IF       7617>>IF
      7617>>IF       7873>>DOWHILE  7874>>IF       7877>>IF       7878<<ASSIGN   7879>>IF       7880<<ASSIGN
SPAN_LAST
      3742**DCL      4320<<ASSIGN   4324<<ASSIGN   6521>>ASSIGN   7555>>ASSIGN   7617>>IF       7874>>IF
      7879>>IF
SPAN_MID
      3741**DCL      4319<<ASSIGN   4323<<ASSIGN   6165>>IF       6186>>IF       6518>>ASSIGN   7554>>IF
      7877>>IF
TEMP
      3743**DCL      3744--REDEF    4854<<ASSIGN   4855>>IF       4856>>ASSIGN   5147--CALL     5761<>CALL
      5763>>IF       5766>>IF       5773>>IF       5779>>ASSIGN   6256<>CALL     6257>>IF       6268<<ASSIGN
      6270>>IF       7159>>DOCASE   7215<<ASSIGN   7217>>IF       7218<<ASSIGN   7219>>IF       7220<<ASSIGN
      7221<<ASSIGN   7228<<ASSIGN   7230<<ASSIGN   7233<<ASSIGN   7238<<ASSIGN   7242<<ASSIGN   7244<<ASSIGN
      7273<<ASSIGN   7276<<ASSIGN   7438<<ASSIGN   7439<<ASSIGN   7439>>ASSIGN   7439>>ASSIGN   7444>>IF
PL6.E3A0      #001=FTW$WRAT File=FTW$WRAT.:E05TSI                                TUE 07/29/97 18:02 Page:663
      7448>>ASSIGN   7473<<ASSIGN   7474>>ASSIGN   7474>>ASSIGN   7481>>ASSIGN   7671<<CALLBLT  7671<<CALLBLT
      7715<<ASSIGN   7716<<ASSIGN   7717>>IF       8174--ASSIGN   8202>>ASSIGN   8286<<ASSIGN   8287>>IF
      8296>>ASSIGN
TEMP IN PROCEDURE FTW_IOERRCVOL
      6700**DCL      6705<<ASSIGN   6706<>CALL     6718<<ASSIGN   6719>>ASSIGN   6719>>ASSIGN   6723<<ASSIGN
      6724>>ASSIGN   6724>>ASSIGN   6811<<ASSIGN   6812>>ASSIGN   6812>>ASSIGN
TEMP$
      3745**DCL      5609<<ASSIGN   5610>>ASSIGN   5611<<ASSIGN   5613<<ASSIGN   5623>>ASSIGN   5626>>ASSIGN
      5630<<ASSIGN   5630>>ASSIGN   5648<<ASSIGN   5649>>ASSIGN   5814<<ASSIGN   5815>>ASSIGN   6409>>ASSIGN
      6415>>ASSIGN   7505<<ASSIGN   7506>>ASSIGN   7507>>ASSIGN   7509>>ASSIGN   7510>>ASSIGN   7512<<ASSIGN
      7515>>CALLBLT  7516>>ASSIGN   7518>>CALLBLT  7544<<ASSIGN   7545>>ASSIGN   7547>>ASSIGN   7559>>ASSIGN
      7561<<ASSIGN   7564>>CALL     7564>>CALL     7566>>CALL     7566>>CALL     7568>>CALLBLT  7569>>ASSIGN
      7572>>CALL     7572>>CALL     7574>>CALLBLT  8234<<ASSIGN   8235>>IF       8235>>IF       8240<<ASSIGN
      8242>>IF       8245>>IF
TEMPC
      3744**DCL      5765<<ASSIGN   7274>>ASSIGN   7277>>ASSIGN
TEMPFP$
      3746**DCL      6406<>CALL     6706<>CALL     6709>>ASSIGN   6722>>ASSIGN   6731>>ASSIGN   6738<<ASSIGN
      6810>>ASSIGN
TEMPFPOOL
      3747**DCL      6406<>CALL     6706<>CALL     6726<>CALL     6732<>CALL     6739<>CALL     6809<>CALL
      6820<>CALL
TRNCHLD
      3715**DCL      8267<<ASSIGN   8278<<ASSIGN   8314>>IF       8320>>IF
TRNC_COMMON
      8278**LABEL    8268--GOTO
TRYAGAIN IN PROCEDURE FTW_RDEV
      5106**LABEL    5153--GOTO
UKEY$
      3748**DCL      6244<<ASSIGN   6250<<ASSIGN   6259<<ASSIGN   6260>>IF       7122<<ASSIGN   7123<<ASSIGN
      7216>>ASSIGN   7241>>IF       7243>>IF
UKEYLEN
      3749**DCL      6243<<ASSIGN   6251<<ASSIGN   7088<<ASSIGN   7089>>IF       7089>>IF       7095<<ASSIGN
      7097<<ASSIGN   7099<<ASSIGN   7227>>IF       7229>>IF       7232>>ASSIGN
UQB$MDEQ
      3680**DCL-ENT  4868--CALL     4880--CALL
PL6.E3A0      #001=FTW$WRAT File=FTW$WRAT.:E05TSI                                TUE 07/29/97 18:02 Page:664
UQB$MENQXB
      3681**DCL-ENT  4784--CALL
VFC
      3690**DCL        10--PROC     6365--IF       6367--ASSIGN
VFC_MOVED
      3750**DCL      6369<<ASSIGN   6373<<ASSIGN   6497>>IF       6554>>IF       6558<<ASSIGN
ZEROBITS
      3764**DCL      3765--REDEF
