VERSION E05

PL6.E3A0      #001=FXF$FIX File=FXF$FIX.:E05TSI                                  TUE 07/29/97 18:01 Page:1
        1        1        /*M*     FXF$FIX - FIX COMMAND CODE FOR PIG    */
        2        2        /*T***********************************************************/
        3        3        /*T*                                                         */
        4        4        /*T* Copyright (c) Bull HN Information Systems Inc., 1997    */
        5        5        /*T*                                                         */
        6        6        /*T***********************************************************/
        7        7        /*X* NSO,MCL=0,MOC,MEC,CLM=12,EXM=12,CRT=6,DMR,PLM=3,IND=3,ENU=0,DCI=3,
        8        8        CSU=3,ECU=3,THI=0,DTI=0,CRM=86 */
        9        9        FXF$FIX: PROC(FDA);
       10       10    1   DCL FDA UBIN;
       11       11        %INCLUDE CP_6;
       12       92 S      %INCLUDE B$JIT_C;
       13       93        %INCLUDE FM$MACROS;
       14      468        %INCLUDE B$OBJECT_C;
       15     3898        %MACRO RUDAT(BUF=NIL,KEYO=,KEYC=,LAST=",");
       16     3899        %SET RUD#=RUD#+1;
       17     3900              2 * BIT(72)INIT(VECTOR(BUF)),
       18     3901        %IF LENGTHC(TEXTCHAR(KEYC))=0;
       19     3902        %LSET IN=CONCAT(TEXTCHAR(KEYO),'00000000000000000000');
       20     3903              2 * UBIN(9)UNAL INIT(%(LENGTHC(TEXTCHAR(KEYO))/3)),
       21     3904              2 * BIT(27)INIT(%SUBSTR(IN,0,9)O),
       22     3905              2 * BIT(36)INIT(%SUBSTR(IN,9,12)O)LAST
       23     3906        %ELSE;
       24     3907              2 * UBIN(9)UNAL INIT(%LENGTHC(TEXTCHAR(KEYC))),
       25     3908              2 * CHAR(7)INIT(%TEXTCHAR(KEYC))LAST
       26     3909        %ENDIF;
       27     3910        %MEND;
       28     3911        %RU_FLAVORS;
       29     3917    1   DCL FXD$PMME ENTRY(1) ALTRET OPTIONAL;
       30     3918    1   DCL BREAK UBIN SYMREF;
       31     3919    1   DCL ERRCODE BIT(36)SYMREF;
       32     3920        %FPT_ALIB(FPTN=ALIBDLTA,STCLASS=CONSTANT,RETRN=NO,CMD=RUMCMD,LIBNAME=DLTA);
       33     3937        %VLP_NAME(FPTN=DLTA,NAME='DELTA',STCLASS=CONSTANT);
       34     3964    1   DCL RUMCMD CONSTANT CHAR(0)INIT('RUM *L,NUTS');
       35     3965    1   DCL XCONWIND BIT(72)SYMREF;
       36     3966        %FPT_READ(DCB=M$EO,FPTN=RDRU,KEY=RUKEY,KEYS=YES,BUF=VIDBUF,STCLASS=CONSTANT);
       37     4005        %FPT_WRITE(DCB=M$EO,FPTN=WRRU,KEY=RUKEY);
PL6.E3A0      #001=FXF$FIX File=FXF$FIX.:E05TSI                                  TUE 07/29/97 18:01 Page:2
       38     4036    1   DCL 1 B$DNAM CONSTANT,2 * UBIN(18)UNAL INIT(4),2 * CHAR(6)INIT('GRAN'),
       39     4037    1         2 * UBIN(18)INIT(3)UNAL,2 * CHAR(6)INIT('BUF');
       40     4038        %B$DBGKEY(NAME=RUKEY,STCLASS=STATIC);
       41     4065    1   DCL 1 ZEROS CONSTANT,
       42     4066    1         2 ONE,3 BUF UBIN INIT(0),3 *(0:3)INIT(0*0)UBIN,
       43     4067    1         2 TWO REDEF ONE,3 BUF(0:1)UBIN,3 *(0:2)UBIN,
       44     4068    1         2 THREE REDEF ONE,3 BUF(0:2)UBIN,3 *(0:1)UBIN,
       45     4069    1         2 FOUR REDEF ONE,3 BUF(0:3)UBIN,3 *(0:0)UBIN,
       46     4070    1         2 FIVE REDEF ONE,3 BUF(0:4)UBIN;
       47     4071    1   DCL 1 RUDAT CONSTANT,
       48     4072        %SET RUD#=-1;
       49     4073        %RUDAT(KEYC=HEAD,BUF=B$HEAD);
       50     4086        %RUDAT(KEYC=BIRTH,BUF=ZEROS.THREE.BUF);
       51     4099        %RUDAT(KEYO=001000000000000,BUF=B$DNAM);
       52     4112        %RUDAT(KEYO=006000000000000,BUF=ZEROS.TWO.BUF);
       53     4125        %RUDAT(KEYO=004000000000000,BUF=B$EDEF);
       54     4138        %RUDAT(KEYO=777000000000002013000,BUF=LOGBLK);
       55     4151        %RUDAT(KEYO=777000000000002017000,BUF=B$DNAM);
       56     4164        %RUDAT(KEYO=777000000000002016000,BUF=VREBL,LAST=";");
       57     4177    1   DCL 1 RUARY(0:%RUD#) REDEF RUDAT,
       58     4178    1         2 BUF_ BIT(72),
       59     4179    1         2 KEY BIT(72);
       60     4180    1   DCL 1 B$EDEF(0:1)BIT(36)CONSTANT INIT('0'B,'000002474'O);
       61     4181    1   DCL VREBL(0:4)CONSTANT BIT(36)
       62     4182    1    INIT('000000000504'O,'110000013021'O,'1'B,'0011'O,'1'O);
       63     4183    1   DCL LOGBLK(0:11)CONSTANT UBIN INIT(
       64     4184    1   0*4,BITBIN('4000004'O),0,BITBIN('5000005'O),0*2,BITBIN('2000001'O),0,1);
       65     4185        %FPT_OPEN(FPTN=OPNRU,DCB=M$EO,ASN=FILE,NAME=STRL,FUN=CREATE,CTG=YES,ORG=KEYED,
       66     4186         STCLASS=CONSTANT,ACS=DIRECT,TYPE='RU',EXIST=NEWFILE);
       67     4295    1   DCL M$EO DCB;
       68     4296        %VLP_NAME(FPTN=STRL,NAME='*L',STCLASS=CONSTANT);
       69     4323    1   DCL B$JIT$ PTR SYMREF;
       70     4324        %B$JIT0;
       71     4413        %A$JIT6X;
       72     4416        %FPT_CLOSE(DCB=M$EO,FPTN=CLSRU,STCLASS=CONSTANT);
       73     4458    1   DCL VIDBUF(0:1023)UBIN SYMREF;
       74     4459    1   DCL M$DP DCB;
PL6.E3A0      #001=FXF$FIX File=FXF$FIX.:E05TSI                                  TUE 07/29/97 18:01 Page:3
       75     4460        %FPT_READ(DCB=M$DP,BUF=VIDBUF,FPTN=RDDP,STCLASS=CONSTANT,KEY=I,KEYS=YES);
       76     4499        %F$DCB;
       77     4556    1   DCL M$DP$ PTR SYMREF;
       78     4557    1   DCL I STATIC UBIN;
       79     4558        %SUB ISADDR=NPOINTER;
       80     4559        %SUB UBIN="INIT(0*0)UBIN";
       81     4560        %SUB BIT="INIT('0'B*0)BIT";
       82     4561        %B$HEAD(STCLASS=STATIC);
       83     4761        %EJECT;
PL6.E3A0      #001=FXF$FIX File=FXF$FIX.:E05TSI                                  TUE 07/29/97 18:01 Page:4
       84     4762    1      CALL M$OPEN(OPNRU)ALTRET(RETALT);
       85     4763    1      RUKEY='005012'O;
       86     4764    1      WRRU.BUF_=RDDP.BUF_;
       87     4765    1      I=FDA;
       88     4766    2      DO WHILE(I~=M$DP$->F$DCB.IXTNSIZE#);
       89     4767    3         CALL M$READ(RDDP) WHENALTRETURN DO;
       90     4768    3            IF ENTADDR(FXD$PMME)~=ENTADDR(NIL) THEN CALL FXD$PMME;
       91     4769    3            VIDBUF='1'B;
       92     4770    3            END;
       93     4771    3         DO WHILE RUKEY.ISADDR=0 AND FDA>3 AND VIDBUF(3)~=0;
       94     4772    3            I=VIDBUF(3);
       95     4773    4            CALL M$READ(RDDP) WHENALTRETURN DO;
       96     4774    4               IF ENTADDR(FXD$PMME)~=ENTADDR(NIL) THEN CALL FXD$PMME;
       97     4775    4               I=FDA;
       98     4776    4               CALL M$RETRY;
       99     4777    4               END;
      100     4778    3            IF I=FDA THEN EXIT;
      101     4779    3            FDA=I;
      102     4780    3            END;
      103     4781    3         IF M$DP$->F$DCB.ASN#=1 OR VIDBUF~='1'B THEN DO;
      104     4782    3            CALL M$WRITE(WRRU);
      105     4783    3            RUKEY.ISADDR=RUKEY.ISADDR+1024;
      106     4784    3            END;
      107     4785    2         IF M$DP$->F$DCB.ASN#=1 THEN I=I+1;
      108     4786    2         ELSE I=VIDBUF(4);
      109     4787    2         IF I=0 THEN I=M$DP$->F$DCB.IXTNSIZE#;
      110     4788    2         END;
      111     4789    1      B$HEAD.FLAVOR=%HOST_RU;
      112     4790    1      B$HEAD.VDPGS=RUKEY.ISADDR/1024;
      113     4791    1      B$HEAD.RDATA=RUKEY.ISADDR;
      114     4792    1      B$HEAD.START=RUKEY.ISADDR;
      115     4793    1      B$HEAD.PRECSIZE=1024;
      116     4794    1      B$HEAD.NRECSIZE=1024;
      117     4795    1      B$HEAD.EPRECSIZE=1024;
      118     4796    1      B$HEAD.EDRECSIZE=1024;
      119     4797    2      DO I=0 TO %RUD#;
      120     4798    2         WRRU.BUF_=RUARY.BUF_(I);
PL6.E3A0      #001=FXF$FIX File=FXF$FIX.:E05TSI                                  TUE 07/29/97 18:01 Page:5
      121     4799    2         RUKEY=RUARY.KEY(I);
      122     4800    2         CALL M$WRITE(WRRU);
      123     4801    2         END;
      124     4802    1      CALL M$CLOSE(CLSRU);
      125     4803    1      REMEMBER DLTADONE IN XCONWIND;
      126     4804    1      CALL M$ALIB(ALIBDLTA)ALTRET(DLTADONE);
      127     4805    1   DLTADONE:;
      128     4806    1      XCONWIND='0'B;
      129     4807    1      IF BREAK~=0 OR NOT B$JIT.PRIV.JOB&%PR_FMDIAG# THEN RETURN;
      130     4808    1      RUKEY='005012'O;
      131     4809    2      CALL M$TRUNC(RDDP) WHENALTRETURN DO; END;
      132     4810    1      I=FDA;
      133     4811    2      DO WHILE('1'B);
      134     4812    2         CALL M$READ(RDRU)ALTRET(ALLDONE);
      135     4813    3         IF VIDBUF~='1'B THEN CALL M$WRITE(RDDP) WHENALTRETURN DO;
      136     4814    3               IF ENTADDR(FXD$PMME)~=ENTADDR(NIL) THEN CALL FXD$PMME;
      137     4815    3               GOTO ALLDONE;
      138     4816    3               END;
      139     4817    2         RUKEY.ISADDR=RUKEY.ISADDR+1024;
      140     4818    2         IF M$DP$->F$DCB.ASN#=1 THEN I=I+1;
      141     4819    2         ELSE I=VIDBUF(4);
      142     4820    2         END;
      143     4821    1   ALLDONE: CALL M$CLOSE(CLSRU);
      144     4822    1      RETURN;
      145     4823    1   RETALT: ERRCODE='1'B;
      146     4824    1      RETURN;
      147     4825    1   END;

PL6.E3A0      #001=FXF$FIX File=FXF$FIX.:E05TSI                                  TUE 07/29/97 18:01 Page:6
--  Include file information  --

   B$OBJECT_C.:E05TOU  is referenced.
   FM$MACROS.:E05TOU  is referenced.
   CP_6.:E05TOU  cannot be made into a system file and is referenced.
   B$JIT_C.:E05TOU  was found in the system file and is referenced.
   CP_6_C.:E05TOU  was found in the system file and is referenced.
      No diagnostics issued in procedure FXF$FIX.

   Procedure FXF$FIX requires 216 words for executable code.
   Procedure FXF$FIX requires 4 words of local(AUTO) storage.

    No errors detected in file FXF$FIX.:E05TSI    .

PL6.E3A0      #001=FXF$FIX File=FXF$FIX.:E05TSI                                  TUE 07/29/97 18:01 Page:7

 Object Unit name= FXF$FIX                                    File name= FXF$FIX.:E05TOU
 UTS= JUL 29 '97 18:01:33.24 TUE                              Compiler= PL-6/E31         Sev=      00
 SharedLib= :SHARED_SYSTEM                                    Alt SharedLib=


    ****  Control sections  ****

 Sect   Type Bound  Init  Size OctSiz  Section name(segment info)
    0   DCB   even  none     0      0  M$UC
    1  RoData even  UTS    195    303  FXF$FIX
    2   Data  even  none    55     67  FXF$FIX
    3   DCB   even  none     0      0  M$EO
    4   DCB   even  none     0      0  M$DP
    5   Proc  even  none   216    330  FXF$FIX
    6  RoData even  none     1      1  FXF$FIX

    ****  Entry defs  ****

                              Check   Calling
                             calling  sequence
  Sect OctLoc Primary Altret sequence   type   Parms  Name
     5      0   yes            yes      Std        1  FXF$FIX

  ****  Entry refs  ****

         Check        Calling
        calling       sequence
Altret sequence SRef   type   Args  Name
 yes     yes    yes    Std       1 FXD$PMME
                       nStd      0 X66_AUTO_1
                       Std       0 B_CONSPOOL_D
                       nStd      0 X66_ARET
PL6.E3A0      #001=FXF$FIX File=FXF$FIX.:E05TSI                                  TUE 07/29/97 18:01 Page:8

  ****  Data refs  ****

  Flags:  r = read only, s = secondary
Flgs Name                             Flgs Name                             Flgs Name
     M$UC                                  BREAK                                 ERRCODE
     XCONWIND                              M$EO                                  B$JIT$
     VIDBUF                                M$DP                                  M$DP$
     B_VECTNIL

  ****  Segment refs  ****

  Flags:  r = read only, s = secondary
Flgs Name                             Flgs Name                             Flgs Name
     ISSID                                 NULLSID
PL6.E3A0      #001=FXF$FIX File=FXF$FIX.:E05TSI                                  TUE 07/29/97 18:01 Page:9


        1        1        /*M*     FXF$FIX - FIX COMMAND CODE FOR PIG    */
        2        2        /*T***********************************************************/
        3        3        /*T*                                                         */
        4        4        /*T* Copyright (c) Bull HN Information Systems Inc., 1997    */
        5        5        /*T*                                                         */
        6        6        /*T***********************************************************/
        7        7        /*X* NSO,MCL=0,MOC,MEC,CLM=12,EXM=12,CRT=6,DMR,PLM=3,IND=3,ENU=0,DCI=3,
        8        8        CSU=3,ECU=3,THI=0,DTI=0,CRM=86 */
        9        9        FXF$FIX: PROC(FDA);

      9  5 000000   000000 700200 xent  FXF$FIX      TSX0  ! X66_AUTO_1
         5 000001   000004 000001                    ZERO    4,1

       10       10    1   DCL FDA UBIN;
       11       11        %INCLUDE CP_6;
       12       92 S      %INCLUDE B$JIT_C;
       13       93        %INCLUDE FM$MACROS;
       14      468        %INCLUDE B$OBJECT_C;
       15     3898        %MACRO RUDAT(BUF=NIL,KEYO=,KEYC=,LAST=",");
       16     3899        %SET RUD#=RUD#+1;
       17     3900              2 * BIT(72)INIT(VECTOR(BUF)),
       18     3901        %IF LENGTHC(TEXTCHAR(KEYC))=0;
       19     3902        %LSET IN=CONCAT(TEXTCHAR(KEYO),'00000000000000000000');
       20     3903              2 * UBIN(9)UNAL INIT(%(LENGTHC(TEXTCHAR(KEYO))/3)),
       21     3904              2 * BIT(27)INIT(%SUBSTR(IN,0,9)O),
       22     3905              2 * BIT(36)INIT(%SUBSTR(IN,9,12)O)LAST
       23     3906        %ELSE;
       24     3907              2 * UBIN(9)UNAL INIT(%LENGTHC(TEXTCHAR(KEYC))),
       25     3908              2 * CHAR(7)INIT(%TEXTCHAR(KEYC))LAST
       26     3909        %ENDIF;
       27     3910        %MEND;
       28     3911        %RU_FLAVORS;
       29     3917    1   DCL FXD$PMME ENTRY(1) ALTRET OPTIONAL;
       30     3918    1   DCL BREAK UBIN SYMREF;
       31     3919    1   DCL ERRCODE BIT(36)SYMREF;
       32     3920        %FPT_ALIB(FPTN=ALIBDLTA,STCLASS=CONSTANT,RETRN=NO,CMD=RUMCMD,LIBNAME=DLTA);
PL6.E3A0      #001=FXF$FIX File=FXF$FIX.:E05TSI                                  TUE 07/29/97 18:01 Page:10
       33     3937        %VLP_NAME(FPTN=DLTA,NAME='DELTA',STCLASS=CONSTANT);
       34     3964    1   DCL RUMCMD CONSTANT CHAR(0)INIT('RUM *L,NUTS');
       35     3965    1   DCL XCONWIND BIT(72)SYMREF;
       36     3966        %FPT_READ(DCB=M$EO,FPTN=RDRU,KEY=RUKEY,KEYS=YES,BUF=VIDBUF,STCLASS=CONSTANT);
       37     4005        %FPT_WRITE(DCB=M$EO,FPTN=WRRU,KEY=RUKEY);
       38     4036    1   DCL 1 B$DNAM CONSTANT,2 * UBIN(18)UNAL INIT(4),2 * CHAR(6)INIT('GRAN'),
       39     4037    1         2 * UBIN(18)INIT(3)UNAL,2 * CHAR(6)INIT('BUF');
       40     4038        %B$DBGKEY(NAME=RUKEY,STCLASS=STATIC);
       41     4065    1   DCL 1 ZEROS CONSTANT,
       42     4066    1         2 ONE,3 BUF UBIN INIT(0),3 *(0:3)INIT(0*0)UBIN,
       43     4067    1         2 TWO REDEF ONE,3 BUF(0:1)UBIN,3 *(0:2)UBIN,
       44     4068    1         2 THREE REDEF ONE,3 BUF(0:2)UBIN,3 *(0:1)UBIN,
       45     4069    1         2 FOUR REDEF ONE,3 BUF(0:3)UBIN,3 *(0:0)UBIN,
       46     4070    1         2 FIVE REDEF ONE,3 BUF(0:4)UBIN;
       47     4071    1   DCL 1 RUDAT CONSTANT,
       48     4072        %SET RUD#=-1;
       49     4073        %RUDAT(KEYC=HEAD,BUF=B$HEAD);
       50     4086        %RUDAT(KEYC=BIRTH,BUF=ZEROS.THREE.BUF);
       51     4099        %RUDAT(KEYO=001000000000000,BUF=B$DNAM);
       52     4112        %RUDAT(KEYO=006000000000000,BUF=ZEROS.TWO.BUF);
       53     4125        %RUDAT(KEYO=004000000000000,BUF=B$EDEF);
       54     4138        %RUDAT(KEYO=777000000000002013000,BUF=LOGBLK);
       55     4151        %RUDAT(KEYO=777000000000002017000,BUF=B$DNAM);
       56     4164        %RUDAT(KEYO=777000000000002016000,BUF=VREBL,LAST=";");
       57     4177    1   DCL 1 RUARY(0:%RUD#) REDEF RUDAT,
       58     4178    1         2 BUF_ BIT(72),
       59     4179    1         2 KEY BIT(72);
       60     4180    1   DCL 1 B$EDEF(0:1)BIT(36)CONSTANT INIT('0'B,'000002474'O);
       61     4181    1   DCL VREBL(0:4)CONSTANT BIT(36)
       62     4182    1    INIT('000000000504'O,'110000013021'O,'1'B,'0011'O,'1'O);
       63     4183    1   DCL LOGBLK(0:11)CONSTANT UBIN INIT(
       64     4184    1   0*4,BITBIN('4000004'O),0,BITBIN('5000005'O),0*2,BITBIN('2000001'O),0,1);
       65     4185        %FPT_OPEN(FPTN=OPNRU,DCB=M$EO,ASN=FILE,NAME=STRL,FUN=CREATE,CTG=YES,ORG=KEYED,
       66     4186         STCLASS=CONSTANT,ACS=DIRECT,TYPE='RU',EXIST=NEWFILE);
       67     4295    1   DCL M$EO DCB;
       68     4296        %VLP_NAME(FPTN=STRL,NAME='*L',STCLASS=CONSTANT);
       69     4323    1   DCL B$JIT$ PTR SYMREF;
PL6.E3A0      #001=FXF$FIX File=FXF$FIX.:E05TSI                                  TUE 07/29/97 18:01 Page:11
       70     4324        %B$JIT0;
       71     4413        %A$JIT6X;
       72     4416        %FPT_CLOSE(DCB=M$EO,FPTN=CLSRU,STCLASS=CONSTANT);
       73     4458    1   DCL VIDBUF(0:1023)UBIN SYMREF;
       74     4459    1   DCL M$DP DCB;
       75     4460        %FPT_READ(DCB=M$DP,BUF=VIDBUF,FPTN=RDDP,STCLASS=CONSTANT,KEY=I,KEYS=YES);
       76     4499        %F$DCB;
       77     4556    1   DCL M$DP$ PTR SYMREF;
       78     4557    1   DCL I STATIC UBIN;
       79     4558        %SUB ISADDR=NPOINTER;
       80     4559        %SUB UBIN="INIT(0*0)UBIN";
       81     4560        %SUB BIT="INIT('0'B*0)BIT";
       82     4561        %B$HEAD(STCLASS=STATIC);
       83     4761        %EJECT;
PL6.E3A0      #001=FXF$FIX File=FXF$FIX.:E05TSI                                  TUE 07/29/97 18:01 Page:12
       84     4762    1      CALL M$OPEN(OPNRU)ALTRET(RETALT);

   4762  5 000002   000132 630400 1                  EPPR0   OPNRU
         5 000003   450000 713400                    CLIMB   alt,open
         5 000004   410400 401760                    pmme    nvectors=18
         5 000005   000325 702000 5                  TSX2    RETALT

       85     4763    1      RUKEY='005012'O;

   4763  5 000006   005012 235003                    LDA     2570,DU
         5 000007   000000 236003                    LDQ     0,DU
         5 000010   000014 757000 2                  STAQ    RUKEY

       86     4764    1      WRRU.BUF_=RDDP.BUF_;

   4764  5 000011   000270 237000 1                  LDAQ    RDDP+4
         5 000012   000004 757000 2                  STAQ    WRRU+4

       87     4765    1      I=FDA;

   4765  5 000013   200003 470500                    LDP0    @FDA,,AUTO
         5 000014   000000 235100                    LDA     0,,PR0
         5 000015   000016 755000 2                  STA     I

       88     4766    2      DO WHILE(I~=M$DP$->F$DCB.IXTNSIZE#);

   4766  5 000016   000000 471400 xsym               LDP1    M$DP$
         5 000017   000016 236000 2                  LDQ     I
         5 000020   000023 604000 5                  TMI     s:4767
         5 000021   100041 116100                    CMPQ    33,,PR1
         5 000022   000144 600000 5                  TZE     s:4789

       89     4767    3         CALL M$READ(RDDP) WHENALTRETURN DO;

   4767  5 000023   000264 630400 1                  EPPR0   RDDP
         5 000024   440000 713400                    CLIMB   alt,read
         5 000025   401400 401760                    pmme    nvectors=4
PL6.E3A0      #001=FXF$FIX File=FXF$FIX.:E05TSI                                  TUE 07/29/97 18:01 Page:13
         5 000026   000030 702000 5                  TSX2    s:4768
         5 000027   000042 710000 5                  TRA     s:4771

       90     4768    3            IF ENTADDR(FXD$PMME)~=ENTADDR(NIL) THEN CALL FXD$PMME;

   4768  5 000030   000000 636000 xent               EAQ     FXD$PMME
         5 000031   000002 116000 xsym               CMPQ    B_VECTNIL+2
         5 000032   000036 600000 5                  TZE     s:4769

   4768  5 000033   000002 631400 xsym               EPPR1   B_VECTNIL+2
         5 000034   000000 701000 xent               TSX1    FXD$PMME
         5 000035   000000 011000                    NOP     0

       91     4769    3            VIDBUF='1'B;

   4769  5 000036   010000 220003                    LDX0    4096,DU
         5 000037   000040 100400                    MLR     fill='000'O
         5 000040   000030 000001 xsym               ADSC9   B_VECTNIL+24             cn=0,n=1
         5 000041   000000 000010 xsym               ADSC9   VIDBUF                   cn=0,n=*X0

       92     4770    3            END;

       93     4771    3         DO WHILE RUKEY.ISADDR=0 AND FDA>3 AND VIDBUF(3)~=0;

   4771  5 000042   000072 710000 5                  TRA     s:4780

       94     4772    3            I=VIDBUF(3);

   4772  5 000043   000003 235000 xsym               LDA     VIDBUF+3
         5 000044   000016 755000 2                  STA     I

       95     4773    4            CALL M$READ(RDDP) WHENALTRETURN DO;

   4773  5 000045   000264 630400 1                  EPPR0   RDDP
         5 000046   440000 713400                    CLIMB   alt,read
         5 000047   401400 401760                    pmme    nvectors=4
         5 000050   000052 702000 5                  TSX2    s:4774
PL6.E3A0      #001=FXF$FIX File=FXF$FIX.:E05TSI                                  TUE 07/29/97 18:01 Page:14
         5 000051   000065 710000 5                  TRA     s:4778

       96     4774    4               IF ENTADDR(FXD$PMME)~=ENTADDR(NIL) THEN CALL FXD$PMME;

   4774  5 000052   000000 636000 xent               EAQ     FXD$PMME
         5 000053   000002 116000 xsym               CMPQ    B_VECTNIL+2
         5 000054   000060 600000 5                  TZE     s:4775

   4774  5 000055   000002 631400 xsym               EPPR1   B_VECTNIL+2
         5 000056   000000 701000 xent               TSX1    FXD$PMME
         5 000057   000000 011000                    NOP     0

       97     4775    4               I=FDA;

   4775  5 000060   200003 470500                    LDP0    @FDA,,AUTO
         5 000061   000000 235100                    LDA     0,,PR0
         5 000062   000016 755000 2                  STA     I

       98     4776    4               CALL M$RETRY;

   4776  5 000063   010010 713400                    CLIMB   4104
         5 000064   000000 401760                    pmme    nvectors=0

       99     4777    4               END;

      100     4778    3            IF I=FDA THEN EXIT;

   4778  5 000065   200003 470500                    LDP0    @FDA,,AUTO
         5 000066   000016 236000 2                  LDQ     I
         5 000067   000000 116100                    CMPQ    0,,PR0
         5 000070   000102 600000 5                  TZE     s:4781

      101     4779    3            FDA=I;

   4779  5 000071   000000 756100                    STQ     0,,PR0

      102     4780    3            END;
PL6.E3A0      #001=FXF$FIX File=FXF$FIX.:E05TSI                                  TUE 07/29/97 18:01 Page:15

   4780  5 000072   000015 220000 2                  LDX0    RUKEY+1
         5 000073   000102 601000 5                  TNZ     s:4781
         5 000074   200003 470500                    LDP0    @FDA,,AUTO
         5 000075   000000 235100                    LDA     0,,PR0
         5 000076   000004 115007                    CMPA    4,DL
         5 000077   000102 602000 5                  TNC     s:4781
         5 000100   000003 236000 xsym               LDQ     VIDBUF+3
         5 000101   000043 601000 5                  TNZ     s:4772

      103     4781    3         IF M$DP$->F$DCB.ASN#=1 OR VIDBUF~='1'B THEN DO;

   4781  5 000102   000000 470400 xsym               LDP0    M$DP$
         5 000103   000032 236100                    LDQ     26,,PR0
         5 000104   777000 376007                    ANQ     -512,DL
         5 000105   001000 116007                    CMPQ    512,DL
         5 000106   000114 600000 5                  TZE     s:4782
         5 000107   010000 220003                    LDX0    4096,DU
         5 000110   000000 106440                    CMPC    fill='000'O
         5 000111   000000 000010 xsym               ADSC9   VIDBUF                   cn=0,n=*X0
         5 000112   000030 000002 xsym               ADSC9   B_VECTNIL+24             cn=0,n=2
         5 000113   000122 600000 5                  TZE     s:4785

      104     4782    3            CALL M$WRITE(WRRU);

   4782  5 000114   000000 630400 2                  EPPR0   WRRU
         5 000115   040001 713400                    CLIMB   write
         5 000116   401400 401760                    pmme    nvectors=4

      105     4783    3            RUKEY.ISADDR=RUKEY.ISADDR+1024;

   4783  5 000117   000015 220000 2                  LDX0    RUKEY+1
         5 000120   002000 621010                    EAX1    1024,X0
         5 000121   000015 741000 2                  STX1    RUKEY+1

      106     4784    3            END;

PL6.E3A0      #001=FXF$FIX File=FXF$FIX.:E05TSI                                  TUE 07/29/97 18:01 Page:16
      107     4785    2         IF M$DP$->F$DCB.ASN#=1 THEN I=I+1;

   4785  5 000122   000000 470400 xsym               LDP0    M$DP$
         5 000123   000032 236100                    LDQ     26,,PR0
         5 000124   777000 376007                    ANQ     -512,DL
         5 000125   001000 116007                    CMPQ    512,DL
         5 000126   000133 601000 5                  TNZ     s:4786

   4785  5 000127   000016 235000 2                  LDA     I
         5 000130   000001 035007                    ADLA    1,DL
         5 000131   000016 755000 2                  STA     I
         5 000132   000135 710000 5                  TRA     s:4787

      108     4786    2         ELSE I=VIDBUF(4);

   4786  5 000133   000004 235000 xsym               LDA     VIDBUF+4
         5 000134   000016 755000 2                  STA     I

      109     4787    2         IF I=0 THEN I=M$DP$->F$DCB.IXTNSIZE#;

   4787  5 000135   000140 601000 5                  TNZ     s:4788

   4787  5 000136   000041 235100                    LDA     33,,PR0
         5 000137   000016 755000 2                  STA     I

      110     4788    2         END;

   4788  5 000140   000016 236000 2                  LDQ     I
         5 000141   000023 604000 5                  TMI     s:4767
         5 000142   000041 116100                    CMPQ    33,,PR0
         5 000143   000023 601000 5                  TNZ     s:4767

      111     4789    1      B$HEAD.FLAVOR=%HOST_RU;

   4789  5 000144   001000 236003                    LDQ     512,DU
         5 000145   000041 552040 2                  STBQ    B$HEAD+18,'40'O

PL6.E3A0      #001=FXF$FIX File=FXF$FIX.:E05TSI                                  TUE 07/29/97 18:01 Page:17
      112     4790    1      B$HEAD.VDPGS=RUKEY.ISADDR/1024;

   4790  5 000146   000015 236000 2                  LDQ     RUKEY+1
         5 000147   000022 772000                    QRL     18
         5 000150   000012 772000                    QRL     10
         5 000151   000026 736000                    QLS     22
         5 000152   000021 676000 2                  ERQ     B$HEAD+2
         5 000153   777760 376003                    ANQ     -16,DU
         5 000154   000021 656000 2                  ERSQ    B$HEAD+2

      113     4791    1      B$HEAD.RDATA=RUKEY.ISADDR;

   4791  5 000155   000015 236000 2                  LDQ     RUKEY+1
         5 000156   777777 376003                    ANQ     -1,DU
         5 000157   000022 772000                    QRL     18
         5 000160   000021 676000 2                  ERQ     B$HEAD+2
         5 000161   000000 376000 6                  ANQ     0
         5 000162   000021 656000 2                  ERSQ    B$HEAD+2

      114     4792    1      B$HEAD.START=RUKEY.ISADDR;

   4792  5 000163   000015 236000 2                  LDQ     RUKEY+1
         5 000164   777777 376003                    ANQ     -1,DU
         5 000165   000022 772000                    QRL     18
         5 000166   000022 676000 2                  ERQ     B$HEAD+3
         5 000167   000000 376000 6                  ANQ     0
         5 000170   000022 656000 2                  ERSQ    B$HEAD+3

      115     4793    1      B$HEAD.PRECSIZE=1024;

   4793  5 000171   002000 220003                    LDX0    1024,DU
         5 000172   000025 740000 2                  STX0    B$HEAD+6

      116     4794    1      B$HEAD.NRECSIZE=1024;

   4794  5 000173   000025 440000 2                  SXL0    B$HEAD+6

PL6.E3A0      #001=FXF$FIX File=FXF$FIX.:E05TSI                                  TUE 07/29/97 18:01 Page:18
      117     4795    1      B$HEAD.EPRECSIZE=1024;

   4795  5 000174   000026 740000 2                  STX0    B$HEAD+7

      118     4796    1      B$HEAD.EDRECSIZE=1024;

   4796  5 000175   000026 440000 2                  SXL0    B$HEAD+7

      119     4797    2      DO I=0 TO %RUD#;

   4797  5 000176   000016 450000 2                  STZ     I

      120     4798    2         WRRU.BUF_=RUARY.BUF_(I);

   4798  5 000177   000016 235000 2                  LDA     I
         5 000200   000004 735000                    ALS     4
         5 000201   000000 100405                    MLR     fill='000'O
         5 000202   000047 000010 1                  ADSC9   RUDAT,A                  cn=0,n=8
         5 000203   000004 000010 2                  ADSC9   WRRU+4                   cn=0,n=8

      121     4799    2         RUKEY=RUARY.KEY(I);

   4799  5 000204   000000 100405                    MLR     fill='000'O
         5 000205   000051 000010 1                  ADSC9   RUDAT+2,A                cn=0,n=8
         5 000206   000014 000010 2                  ADSC9   RUKEY                    cn=0,n=8

      122     4800    2         CALL M$WRITE(WRRU);

   4800  5 000207   000000 630400 2                  EPPR0   WRRU
         5 000210   040001 713400                    CLIMB   write
         5 000211   401400 401760                    pmme    nvectors=4

      123     4801    2         END;

   4801  5 000212   000016 235000 2                  LDA     I
         5 000213   000001 035007                    ADLA    1,DL
         5 000214   000016 755000 2                  STA     I
PL6.E3A0      #001=FXF$FIX File=FXF$FIX.:E05TSI                                  TUE 07/29/97 18:01 Page:19
         5 000215   000010 115007                    CMPA    8,DL
         5 000216   000177 602000 5                  TNC     s:4798

      124     4802    1      CALL M$CLOSE(CLSRU);

   4802  5 000217   000226 630400 1                  EPPR0   CLSRU
         5 000220   050001 713400                    CLIMB   close
         5 000221   406000 401760                    pmme    nvectors=13

      125     4803    1      REMEMBER DLTADONE IN XCONWIND;

   4803  5 000222   000231 635000 5                  EAA     DLTADONE
         5 000223   000000 452400 xsym               STP2    XCONWIND
         5 000224   000001 755000 xsym               STA     XCONWIND+1

      126     4804    1      CALL M$ALIB(ALIBDLTA)ALTRET(DLTADONE);

   4804  5 000225   000000 630400 1                  EPPR0   ALIBDLTA
         5 000226   400007 713400                    CLIMB   alt,+7
         5 000227   401400 401760                    pmme    nvectors=4
         5 000230   000231 702000 5                  TSX2    DLTADONE

      127     4805    1   DLTADONE:;

   4805  5 000231                       DLTADONE     null
      128     4806    1      XCONWIND='0'B;

   4806  5 000231   000000 450000 xsym               STZ     XCONWIND
         5 000232   000001 450000 xsym               STZ     XCONWIND+1

      129     4807    1      IF BREAK~=0 OR NOT B$JIT.PRIV.JOB&%PR_FMDIAG# THEN RETURN;

   4807  5 000233   000000 235000 xsym               LDA     BREAK
         5 000234   000241 601000 5                  TNZ     s:4807+6
         5 000235   000000 470400 xsym               LDP0    B$JIT$
         5 000236   000015 236100                    LDQ     13,,PR0
         5 000237   000302 376000 1                  ANQ     RDDP+14
PL6.E3A0      #001=FXF$FIX File=FXF$FIX.:E05TSI                                  TUE 07/29/97 18:01 Page:20
         5 000240   000242 601000 5                  TNZ     s:4808

   4807  5 000241   000000 702200 xent               TSX2  ! X66_ARET

      130     4808    1      RUKEY='005012'O;

   4808  5 000242   005012 235003                    LDA     2570,DU
         5 000243   000000 236003                    LDQ     0,DU
         5 000244   000014 757000 2                  STAQ    RUKEY

      131     4809    2      CALL M$TRUNC(RDDP) WHENALTRETURN DO; END;

   4809  5 000245   000264 630400 1                  EPPR0   RDDP
         5 000246   450003 713400                    CLIMB   alt,+20483
         5 000247   400000 401760                    pmme    nvectors=1
         5 000250   000252 702000 5                  TSX2    s:4810
         5 000251   000252 710000 5                  TRA     s:4810

      132     4810    1      I=FDA;

   4810  5 000252   200003 470500                    LDP0    @FDA,,AUTO
         5 000253   000000 235100                    LDA     0,,PR0
         5 000254   000016 755000 2                  STA     I

      133     4811    2      DO WHILE('1'B);

      134     4812    2         CALL M$READ(RDRU)ALTRET(ALLDONE);

   4812  5 000255   000020 630400 1                  EPPR0   RDRU
         5 000256   440000 713400                    CLIMB   alt,read
         5 000257   401400 401760                    pmme    nvectors=4
         5 000260   000321 702000 5                  TSX2    ALLDONE

      135     4813    3         IF VIDBUF~='1'B THEN CALL M$WRITE(RDDP) WHENALTRETURN DO;

   4813  5 000261   010000 220003                    LDX0    4096,DU
         5 000262   000000 106440                    CMPC    fill='000'O
PL6.E3A0      #001=FXF$FIX File=FXF$FIX.:E05TSI                                  TUE 07/29/97 18:01 Page:21
         5 000263   000000 000010 xsym               ADSC9   VIDBUF                   cn=0,n=*X0
         5 000264   000030 000002 xsym               ADSC9   B_VECTNIL+24             cn=0,n=2
         5 000265   000302 600000 5                  TZE     s:4817

   4813  5 000266   000264 630400 1                  EPPR0   RDDP
         5 000267   440001 713400                    CLIMB   alt,write
         5 000270   401400 401760                    pmme    nvectors=4
         5 000271   000273 702000 5                  TSX2    s:4814
         5 000272   000302 710000 5                  TRA     s:4817

      136     4814    3               IF ENTADDR(FXD$PMME)~=ENTADDR(NIL) THEN CALL FXD$PMME;

   4814  5 000273   000000 636000 xent               EAQ     FXD$PMME
         5 000274   000002 116000 xsym               CMPQ    B_VECTNIL+2
         5 000275   000301 600000 5                  TZE     s:4815

   4814  5 000276   000002 631400 xsym               EPPR1   B_VECTNIL+2
         5 000277   000000 701000 xent               TSX1    FXD$PMME
         5 000300   000000 011000                    NOP     0

      137     4815    3               GOTO ALLDONE;

   4815  5 000301   000321 710000 5                  TRA     ALLDONE

      138     4816    3               END;
      139     4817    2         RUKEY.ISADDR=RUKEY.ISADDR+1024;

   4817  5 000302   000015 220000 2                  LDX0    RUKEY+1
         5 000303   002000 621010                    EAX1    1024,X0
         5 000304   000015 741000 2                  STX1    RUKEY+1

      140     4818    2         IF M$DP$->F$DCB.ASN#=1 THEN I=I+1;

   4818  5 000305   000000 470400 xsym               LDP0    M$DP$
         5 000306   000032 236100                    LDQ     26,,PR0
         5 000307   777000 376007                    ANQ     -512,DL
         5 000310   001000 116007                    CMPQ    512,DL
PL6.E3A0      #001=FXF$FIX File=FXF$FIX.:E05TSI                                  TUE 07/29/97 18:01 Page:22
         5 000311   000316 601000 5                  TNZ     s:4819

   4818  5 000312   000016 235000 2                  LDA     I
         5 000313   000001 035007                    ADLA    1,DL
         5 000314   000016 755000 2                  STA     I
         5 000315   000255 710000 5                  TRA     s:4812

      141     4819    2         ELSE I=VIDBUF(4);

   4819  5 000316   000004 235000 xsym               LDA     VIDBUF+4
         5 000317   000016 755000 2                  STA     I

      142     4820    2         END;

   4820  5 000320   000255 710000 5                  TRA     s:4812

      143     4821    1   ALLDONE: CALL M$CLOSE(CLSRU);

   4821  5 000321   000226 630400 1     ALLDONE      EPPR0   CLSRU
         5 000322   050001 713400                    CLIMB   close
         5 000323   406000 401760                    pmme    nvectors=13

      144     4822    1      RETURN;

   4822  5 000324   000000 702200 xent               TSX2  ! X66_ARET

      145     4823    1   RETALT: ERRCODE='1'B;

   4823  5 000325   400000 236003       RETALT       LDQ     -131072,DU
         5 000326   000000 756000 xsym               STQ     ERRCODE

      146     4824    1      RETURN;

   4824  5 000327   000000 702200 xent               TSX2  ! X66_ARET
      147     4825    1   END;

PL6.E3A0      #001=FXF$FIX File=FXF$FIX.:E05TSI                                  TUE 07/29/97 18:01 Page:23
--  Include file information  --

   B$OBJECT_C.:E05TOU  is referenced.
   FM$MACROS.:E05TOU  is referenced.
   CP_6.:E05TOU  cannot be made into a system file and is referenced.
   B$JIT_C.:E05TOU  was found in the system file and is referenced.
   CP_6_C.:E05TOU  was found in the system file and is referenced.
      No diagnostics issued in procedure FXF$FIX.
PL6.E3A0      #001=FXF$FIX File=FXF$FIX.:E05TSI                                  TUE 07/29/97 18:01 Page:24

 **** Variables and constants ****

  ****  Section 001 RoData FXF$FIX

  ****  Scalars and arrays  ****
OctLoc.c.b A Datatyp(siz) R M Lvl/name                 OctLoc.c.b A Datatyp(siz) R M Lvl/name

     0-0-0/d STRC(360)   r     1 ALIBDLTA                  36-0-0/c STRC(144)   r     1 B$DNAM
   107-0-0/b BIT         r     1 B$EDEF(0:1)              226-0-0/d STRC(1080)  r     1 CLSRU
    12-0-0/c STRC(54)    r     1 DLTA                     116-0-0/w UBIN        r     1 LOGBLK(0:11)
   132-0-0/d STRC(2088)  r     1 OPNRU                    264-0-0/d STRC(504)   r     1 RDDP
    20-0-0/d STRC(504)   r     1 RDRU                      47-0-0/c STRC(144)   r     1 RUARY(0:7)
    47-0-0/c STRC(1152)  r     1 RUDAT                     14-0-0/c CHAR(11)    r     1 RUMCMD
   224-0-0/c STRC(27)    r     1 STRL                     111-0-0/b BIT         r     1 VREBL(0:4)
    42-0-0/w STRC(180)   r     1 ZEROS

  ****  Section 002  Data  FXF$FIX

  ****  Scalars and arrays  ****
OctLoc.c.b A Datatyp(siz) R M Lvl/name                 OctLoc.c.b A Datatyp(siz) R M Lvl/name

    17-0-0/w STRC(1440)  r     1 B$HEAD                    16-0-0/w UBIN        r     1 I
    14-0-0/w STRC(72)    r     1 RUKEY                      0-0-0/d STRC(432)   r     1 WRRU

  ****  Auto variables  ****

  ****  Scalars and arrays  ****
OctLoc.c.b A Datatyp(siz) R M Lvl/name                 OctLoc.c.b A Datatyp(siz) R M Lvl/name

     3-0-0/w PTR         r     1 @FDA                      *0-0-0/w UBIN        r     1 FDA

  ****  SYMREF variables  ****

  ****  Scalars and arrays  ****
OctLoc.c.b A Datatyp(siz) R M Lvl/name                 OctLoc.c.b A Datatyp(siz) R M Lvl/name

     0-0-0/w PTR         r     1 B$JIT$                     0-0-0/w UBIN        r     1 BREAK
PL6.E3A0      #001=FXF$FIX File=FXF$FIX.:E05TSI                                  TUE 07/29/97 18:01 Page:25
     0-0-0/b BIT         r     1 ERRCODE                    0-0-0/w PTR         r     1 M$DP$
     0-0-0/w UBIN        r     1 VIDBUF(0:1023)             0-0-0/b BIT (72)    r     1 XCONWIND

  ****  BASED and DCB variables  ****

  ****  Scalars and arrays  ****
OctLoc.c.b A Datatyp(siz) R M Lvl/name                 OctLoc.c.b A Datatyp(siz) R M Lvl/name

     0-0-0/d STRC(2088)  r     1 B$JIT                      0-0-0/d ASTR(3528)  r     1 F$DCB
     0-0-0N  NULL        r     1 M$DP                       0-0-0N  NULL        r     1 M$EO


   Procedure FXF$FIX requires 216 words for executable code.
   Procedure FXF$FIX requires 4 words of local(AUTO) storage.

    No errors detected in file FXF$FIX.:E05TSI    .
PL6.E3A0      #001=FXF$FIX File=FXF$FIX.:E05TSI                                  TUE 07/29/97 18:01 Page:26
          *** CROSS REFERENCE LISTING ***
**     DENOTES     IDENTIFIER DEFINITION
<<                 IDENTIFIER'S VALUE SET
>>                 IDENTIFIER'S VALUE USED
<>                 IDENTIFIER SET AND/OR USED
--                 IDENTIFIER REFERENCED
PL6.E3A0      #001=FXF$FIX File=FXF$FIX.:E05TSI                                  TUE 07/29/97 18:01 Page:27
          MINI XREF LISTING

ALIBDLTA
      3931**DCL      4804<>CALL
ALIBDLTA.V
      3932**DCL      3932--DCLINIT
ALLDONE
      4821**LABEL    4812--CALLALT  4815--GOTO
B$DNAM
      4036**DCL      4101--DCLINIT  4153--DCLINIT
B$EDEF
      4180**DCL      4127--DCLINIT
B$HEAD
      4562**DCL      4075--DCLINIT
B$HEAD.EDRECSIZE
      4634**DCL      4796<<ASSIGN
B$HEAD.EPRECSIZE
      4631**DCL      4795<<ASSIGN
B$HEAD.FLAVOR
      4687**DCL      4789<<ASSIGN
B$HEAD.NRECSIZE
      4628**DCL      4794<<ASSIGN
B$HEAD.PRECSIZE
      4624**DCL      4793<<ASSIGN
B$HEAD.RDATA
      4581**DCL      4791<<ASSIGN
B$HEAD.START
      4607**DCL      4792<<ASSIGN
B$HEAD.VDPGS
      4573**DCL      4790<<ASSIGN
B$JIT.ERR.MID
      4331**DCL      4331--REDEF
B$JIT.PRIV.JOB
      4374**DCL      4807>>IF
PL6.E3A0      #001=FXF$FIX File=FXF$FIX.:E05TSI                                  TUE 07/29/97 18:01 Page:28
B$JIT$
      4323**DCL      4325--IMP-PTR  4807>>IF
BREAK
      3918**DCL      4807>>IF
CLSRU
      4439**DCL      4802<>CALL     4821<>CALL
CLSRU.SN_
      4439**DCL      4439--REDEF
CLSRU.UTL_
      4440**DCL      4440--REDEF
CLSRU.V
      4444**DCL      4439--DCLINIT
CLSRU.V.EXPIRE#
      4454**DCL      4454--REDEF
CLSRU.V.TYPE#
      4452**DCL      4452--REDEF
CLSRU.V.XTNSIZE#
      4449**DCL      4449--REDEF    4451--REDEF
DLTA
      3962**DCL      3931--DCLINIT
DLTADONE
      4805**LABEL    4803--REMEMBR  4804--CALLALT
ERRCODE
      3919**DCL      4823<<ASSIGN
F$DCB.ACTPOS
      4532**DCL      4532--REDEF
F$DCB.ARS#
      4506**DCL      4506--REDEF
F$DCB.ASN#
      4521**DCL      4781>>IF       4785>>IF       4818>>IF
F$DCB.ATTR
      4525**DCL      4526--REDEF
F$DCB.BORROW
      4540**DCL      4540--REDEF    4540--REDEF    4540--REDEF
F$DCB.DCBNAME.L
      4554**DCL      4554--IMP-SIZ
PL6.E3A0      #001=FXF$FIX File=FXF$FIX.:E05TSI                                  TUE 07/29/97 18:01 Page:29
F$DCB.EOMCHAR#
      4510**DCL      4510--REDEF
F$DCB.FLDID
      4535**DCL      4535--REDEF
F$DCB.FORM$
      4529**DCL      4529--REDEF
F$DCB.FSECT
      4545**DCL      4545--REDEF
F$DCB.FSN#
      4522**DCL      4522--REDEF    4522--REDEF    4523--REDEF
F$DCB.HEADER$
      4528**DCL      4528--REDEF
F$DCB.IXTNSIZE#
      4526**DCL      4526--REDEF    4766>>DOWHILE  4787>>ASSIGN
F$DCB.LASTSTA$
      4515**DCL      4515--REDEF
F$DCB.LVL
      4541**DCL      4541--REDEF
F$DCB.NAME#.C
      4516**DCL      4516--REDEF
F$DCB.NOEOF
      4538**DCL      4538--REDEF
F$DCB.NRECS#
      4527**DCL      4527--REDEF
F$DCB.NRECX
      4546**DCL      4546--REDEF
F$DCB.OHDR
      4538**DCL      4538--REDEF
F$DCB.ORG#
      4521**DCL      4521--REDEF
F$DCB.PRECNO
      4544**DCL      4544--REDEF
F$DCB.RCSZ
      4550**DCL      4550--REDEF
F$DCB.RES#
      4517**DCL      4517--REDEF
PL6.E3A0      #001=FXF$FIX File=FXF$FIX.:E05TSI                                  TUE 07/29/97 18:01 Page:30
F$DCB.SETX
      4529**DCL      4529--REDEF
F$DCB.TAB$
      4529**DCL      4529--REDEF
F$DCB.TDA
      4543**DCL      4544--REDEF
F$DCB.WSN#
      4517**DCL      4517--REDEF
FDA
        10**DCL         9--PROC     4765>>ASSIGN   4771>>DOWHILE  4775>>ASSIGN   4778>>IF       4779<<ASSIGN
      4810>>ASSIGN
FXD$PMME
      3917**DCL-ENT  4768--IF       4768--CALL     4774--IF       4774--CALL     4814--IF       4814--CALL
I
      4557**DCL      4477--DCLINIT  4478--DCLINIT  4765<<ASSIGN   4766>>DOWHILE  4772<<ASSIGN   4775<<ASSIGN
      4778>>IF       4779>>ASSIGN   4785<<ASSIGN   4785>>ASSIGN   4786<<ASSIGN   4787>>IF       4787<<ASSIGN
      4797<<DOINDEX  4798>>ASSIGN   4799>>ASSIGN   4810<<ASSIGN   4818<<ASSIGN   4818>>ASSIGN   4819<<ASSIGN
LOGBLK
      4183**DCL      4140--DCLINIT
M$ALIB
        33**DCL-ENT  4804--CALL
M$CLOSE
        20**DCL-ENT  4802--CALL     4821--CALL
M$DP$
      4556**DCL      4766>>DOWHILE  4781>>IF       4785>>IF       4787>>ASSIGN   4818>>IF
M$OPEN
        20**DCL-ENT  4762--CALL
M$READ
        21**DCL-ENT  4767--CALL     4773--CALL     4812--CALL
M$RETRY
        77**DCL-ENT  4776--CALL
M$TRUNC
        21**DCL-ENT  4809--CALL
M$WRITE
        21**DCL-ENT  4782--CALL     4800--CALL     4813--CALL
OPNRU
PL6.E3A0      #001=FXF$FIX File=FXF$FIX.:E05TSI                                  TUE 07/29/97 18:01 Page:31
      4251**DCL      4762<>CALL
OPNRU.ACSVEH_
      4253**DCL      4254--REDEF
OPNRU.ALTKEYS_
      4259**DCL      4260--REDEF    4260--REDEF
OPNRU.HDR_
      4258**DCL      4259--REDEF
OPNRU.TAB_
      4257**DCL      4258--REDEF
OPNRU.UHL_
      4251**DCL      4252--REDEF    4252--REDEF
OPNRU.V
      4260**DCL      4251--DCLINIT
OPNRU.V.FSN#
      4291**DCL      4291--REDEF    4291--REDEF
OPNRU.WSN_
      4257**DCL      4257--REDEF
RDDP
      4477**DCL      4767<>CALL     4773<>CALL     4809<>CALL     4813<>CALL
RDDP.BUF_
      4479**DCL      4764>>ASSIGN
RDDP.STATION_
      4480**DCL      4481--REDEF
RDDP.V
      4481**DCL      4477--DCLINIT
RDDP.V.DVBYTE.REREAD#
      4492**DCL      4492--REDEF
RDDP.V.INDX#
      4490**DCL      4490--REDEF
RDRU
      3983**DCL      4812<>CALL
RDRU.STATION_
      3986**DCL      3987--REDEF
RDRU.V
      3987**DCL      3983--DCLINIT
RDRU.V.DVBYTE.REREAD#
PL6.E3A0      #001=FXF$FIX File=FXF$FIX.:E05TSI                                  TUE 07/29/97 18:01 Page:32
      3998**DCL      3998--REDEF
RDRU.V.INDX#
      3996**DCL      3996--REDEF
RETALT
      4823**LABEL    4762--CALLALT
RUARY.BUF_
      4178**DCL      4798>>ASSIGN
RUARY.KEY
      4179**DCL      4799>>ASSIGN
RUDAT
      4071**DCL      4177--REDEF
RUKEY
      4039**DCL      3983--DCLINIT  3984--DCLINIT  4022--DCLINIT  4763<<ASSIGN   4799<<ASSIGN   4808<<ASSIGN
RUKEY.NPOINTER
      4046**DCL      4771>>DOWHILE  4783<<ASSIGN   4783>>ASSIGN   4790>>ASSIGN   4791>>ASSIGN   4792>>ASSIGN
      4817<<ASSIGN   4817>>ASSIGN
RUMCMD
      3964**DCL      3931--DCLINIT
STRL
      4321**DCL      4252--DCLINIT
VIDBUF
      4458**DCL      3985--DCLINIT  3986--DCLINIT  4479--DCLINIT  4480--DCLINIT  4769<<ASSIGN   4771>>DOWHILE
      4772>>ASSIGN   4781>>IF       4786>>ASSIGN   4813>>IF       4819>>ASSIGN
VREBL
      4181**DCL      4166--DCLINIT
WRRU
      4022**DCL      4782<>CALL     4800<>CALL
WRRU.BUF_
      4022**DCL      4764<<ASSIGN   4798<<ASSIGN
WRRU.STATION_
      4024**DCL      4024--REDEF
WRRU.V
      4025**DCL      4022--DCLINIT
WRRU.V.DVBYTE.VFC#
      4031**DCL      4031--REDEF
XCONWIND
PL6.E3A0      #001=FXF$FIX File=FXF$FIX.:E05TSI                                  TUE 07/29/97 18:01 Page:33
      3965**DCL      4803<<REMEMBR  4806<<ASSIGN
ZEROS.ONE
      4066**DCL      4067--REDEF    4068--REDEF    4069--REDEF    4070--REDEF
ZEROS.THREE.BUF
      4068**DCL      4088--DCLINIT
ZEROS.TWO.BUF
      4067**DCL      4114--DCLINIT
