PL6.E3A0      #003=FXP$POPTS File=FXP$PIG.:E05TSI                                THU 09/04/97 08:44 Page:565
     2700        1        /*T***********************************************************/
     2701        2        /*T*                                                         */
     2702        3        /*T* Copyright (c) Bull HN Information Systems Inc., 1997    */
     2703        4        /*T*                                                         */
     2704        5        /*T***********************************************************/
     2705        6        FXP$POPTS: PROC(PARM);
     2706        7        %INCLUDE XU_MACRO_C;
     2707     3113        %INCLUDE XU_SUBS_C;
     2708     3205        %INCLUDE FX_SUBS_C;
     2709     3241        %INCLUDE FX_PERR_C;
     2710     3300        %INCLUDE F_MACROS_C;
     2711     3311        %P$NODE(NAME=NODE,STCLASS=BASED);
     2712     3405        %ERRCODE(NAME=FXP$E$HELP,COD#=%E$PIGH,FCG#='0630'O,MID#='20'O,SEV#=7);
     2713     3409    1   DCL 1 FLAG SYMREF,
     2714     3410    1         2 * BIT(18),
     2715     3411    1         2 CODE UBIN(15)UNAL,
     2716     3412    1         2 * BIT(3);
     2717     3413        %PARSE$PARAM(NAME=PARM,STCLASS=);
     2718     3494        %G$D(STCLASS="BASED(PARM.GLOBAL$)");
     2719     3590    1   DCL B BASED PTR;
     2720     3591    1   DCL CODE UBIN;
     2721     3592    1   DCL USW BIT(1)SYMREF;
     2722     3593    1   DCL 1 PROJAD SYMREF,
     2723     3594    1         2 L UBIN(9)UNAL,
     2724     3595    1         2 ACCT CHAR(8),
     2725     3596    1         2 NAME CHAR(12),
     2726     3597    1         2 PSN CHAR(6);
     2727     3598    1   DCL X$GETSPACE ENTRY(3);
     2728     3599    1   DCL FXU$PROJAD ENTRY(1) ALTRET;
     2729     3600    1   DCL DPERX BIT(72) SYMREF;
     2730     3601        %P$PCB(NAME=PCB,STCLASS="BASED(PARM.PCB$)");
     2731     3802        %PARSE$OUT(NAME=OUT,STCLASS=BASED);
     2732     3847        %PARSE$SYM(NAME=SYM,STCLASS="BASED(PARM.OUT$)");
     2733     3885    1      CODE=PINCRW(PCB.WORK$,PCB.WKSZ-1)->B->OUT.CODE;
     2734     3886    2      IF PARM.CODE=0 THEN DO CASE(G$D.STACKTOP$->B->OUT.CODE);
     2735     3887                    /* REJECT SET-ONLY OPTIONS FOR ACCOUNTS */
     2736     3888    2      CASE(2,12); /* NEWFDS, SHELFTIME */
PL6.E3A0      #003=FXP$POPTS File=FXP$PIG.:E05TSI                                THU 09/04/97 08:44 Page:566
     2737     3889    2         IF CODE=%E$DEFAULT
     2738     3890    2         THEN CODE=PINCRW(PCB.WORK$,PCB.WKSZ-2)->B->OUT.CODE;
     2739     3891    3         IF CODE=%E$CREATE OR CODE=%E$MODIFY THEN DO;
     2740     3892    3            PARM.REJECT='1'B;
     2741     3893    3            PCB.HI_CHAR=G$D.STACKTOP$->B->OUT.CPOS;
     2742     3894    3            END;
     2743     3895    2      END;
     2744     3896    1      ELSE IF PARM.CODE~=%E$MAKEME THEN USW='1'B;
     2745     3897    2      ELSE IF PARM.TYPE=%FAIL# THEN DO;
     2746     3898    2         IF CODE=%E$MADLIST OR PROJAD.L=0
     2747     3899    2           OR CODE~=%E$DELETE AND PROJAD.PSN=' ' OR G$D.CCHAR~='.' THEN RETURN;
     2748     3900    2         CALL X$GETSPACE(7,PARM.OUT$,G$D);
     2749     3901    2         SYM.COUNT=6;
     2750     3902    2         SYM.CODE=%E$PSN;
     2751     3903    2         SYM.TEXT=PROJAD.PSN;
     2752     3904    2         PARM.ACCEPT='1'B;
     2753     3905    2         RETURN;
     2754     3906    2         END;
     2755     3907    2      ELSE DO;
     2756     3908    2         IF PROJAD.L=0 OR PARM.OUT$~=ADDR(NIL)
     2757     3909    2           OR PROJAD.PSN=G$D.STACKTOP$->B->SYM.TEXT THEN RETURN;
     2758     3910    2         CALL FXU$PROJAD(G$D.STACKTOP$->B->SYM.COUNT);
     2759     3911    2         IF FLAG THEN UNWIND TO DPERX;
     2760     3912    2         RETURN;
     2761     3913    2         END;
     2762     3914    1      IF PARM.NODE$->NODE.F_F
     2763     3915    2      THEN IF PCB.HINODE$->NODE.CODE>=%E$PIGH THEN DO;
     2764     3916    2         FLAG=FXP$E$HELP;
     2765     3917    2         IF PARM.CHARPOS~=PCB.HI_CHAR THEN FLAG.CODE=PCB.HINODE$->NODE.CODE;
     2766     3918    2         PARM.CHARPOS=PCB.HI_CHAR;
     2767     3919    2         PARM.ACCEPT='1'B;
     2768     3920    2         END;
     2769     3921    1      ELSE PCB.HI_CHAR=PARM.CHARPOS;
     2770     3922    1      RETURN;
     2771     3923    1   END;
     2772     3924        %EOD;

PL6.E3A0      #003=FXP$POPTS File=FXP$PIG.:E05TSI                                THU 09/04/97 08:44 Page:567
--  Include file information  --

   F_MACROS_C.:E05TOU  is referenced.
   FX_PERR_C.:E05TOU  is referenced.
   FX_SUBS_C.:E05TOU  is referenced.
   XU_SUBS_C.:E05TOU  is referenced.
   XU_MACRO_C.:E05TOU  is referenced.
   B$JIT_C.:E05TOU  was found in the system file and is never referenced.
   CP_6_C.:E05TOU  was found in the system file and is never referenced.
      No diagnostics issued in procedure FXP$POPTS.

   Procedure FXP$POPTS requires 166 words for executable code.
   Procedure FXP$POPTS requires 10 words of local(AUTO) storage.

PL6.E3A0      #003=FXP$POPTS File=FXP$PIG.:E05TSI                                THU 09/04/97 08:44 Page:568

 Object Unit name= FXP$POPTS                                  File name= FXP$PIG.:E05TOU
 UTS= SEP 04 '97 08:44:20.76 THU                              Compiler= PL-6/E31         Sev=      00
 SharedLib= :SHARED_SYSTEM                                    Alt SharedLib=


    ****  Control sections  ****

 Sect   Type Bound  Init  Size OctSiz  Section name(segment info)
    0  RoData even  UTS      1      1  FXP$POPTS
    1   Proc  even  none   166    246  FXP$POPTS
    2  RoData even  none     1      1  FXP$POPTS

    ****  Entry defs  ****

                              Check   Calling
                             calling  sequence
  Sect OctLoc Primary Altret sequence   type   Parms  Name
     1      0   yes            yes      Std        1  FXP$POPTS

  ****  Entry refs  ****

         Check        Calling
        calling       sequence
Altret sequence SRef   type   Args  Name
         yes           Std       3 X$GETSPACE
 yes     yes           Std       1 FXU$PROJAD
                       nStd      0 X66_AUTO_1
                       Std       0 B_CONSPOOL_D
                       nStd      0 X66_ARET
                       nStd      0 X66_AUNWIND
PL6.E3A0      #003=FXP$POPTS File=FXP$PIG.:E05TSI                                THU 09/04/97 08:44 Page:569

  ****  Data refs  ****

  Flags:  r = read only, s = secondary
Flgs Name                             Flgs Name                             Flgs Name
     FLAG                                  USW                                   PROJAD
     DPERX                                 B_VECTNIL

  ****  Segment refs  ****

  Flags:  r = read only, s = secondary
Flgs Name                             Flgs Name                             Flgs Name
     ISSID
PL6.E3A0      #003=FXP$POPTS File=FXP$PIG.:E05TSI                                THU 09/04/97 08:44 Page:570


     2700        1        /*T***********************************************************/
     2701        2        /*T*                                                         */
     2702        3        /*T* Copyright (c) Bull HN Information Systems Inc., 1997    */
     2703        4        /*T*                                                         */
     2704        5        /*T***********************************************************/
     2705        6        FXP$POPTS: PROC(PARM);

      6  1 000000   000000 700200 xent  FXP$POPTS    TSX0  ! X66_AUTO_1
         1 000001   000012 000001                    ZERO    10,1

     2706        7        %INCLUDE XU_MACRO_C;
     2707     3113        %INCLUDE XU_SUBS_C;
     2708     3205        %INCLUDE FX_SUBS_C;
     2709     3241        %INCLUDE FX_PERR_C;
     2710     3300        %INCLUDE F_MACROS_C;
     2711     3311        %P$NODE(NAME=NODE,STCLASS=BASED);
     2712     3405        %ERRCODE(NAME=FXP$E$HELP,COD#=%E$PIGH,FCG#='0630'O,MID#='20'O,SEV#=7);
     2713     3409    1   DCL 1 FLAG SYMREF,
     2714     3410    1         2 * BIT(18),
     2715     3411    1         2 CODE UBIN(15)UNAL,
     2716     3412    1         2 * BIT(3);
     2717     3413        %PARSE$PARAM(NAME=PARM,STCLASS=);
     2718     3494        %G$D(STCLASS="BASED(PARM.GLOBAL$)");
     2719     3590    1   DCL B BASED PTR;
     2720     3591    1   DCL CODE UBIN;
     2721     3592    1   DCL USW BIT(1)SYMREF;
     2722     3593    1   DCL 1 PROJAD SYMREF,
     2723     3594    1         2 L UBIN(9)UNAL,
     2724     3595    1         2 ACCT CHAR(8),
     2725     3596    1         2 NAME CHAR(12),
     2726     3597    1         2 PSN CHAR(6);
     2727     3598    1   DCL X$GETSPACE ENTRY(3);
     2728     3599    1   DCL FXU$PROJAD ENTRY(1) ALTRET;
     2729     3600    1   DCL DPERX BIT(72) SYMREF;
     2730     3601        %P$PCB(NAME=PCB,STCLASS="BASED(PARM.PCB$)");
     2731     3802        %PARSE$OUT(NAME=OUT,STCLASS=BASED);
PL6.E3A0      #003=FXP$POPTS File=FXP$PIG.:E05TSI                                THU 09/04/97 08:44 Page:571
     2732     3847        %PARSE$SYM(NAME=SYM,STCLASS="BASED(PARM.OUT$)");
     2733     3885    1      CODE=PINCRW(PCB.WORK$,PCB.WKSZ-1)->B->OUT.CODE;

   3885  1 000002   200003 470500                    LDP0    @PARM,,AUTO
         1 000003   000005 471500                    LDP1    5,,PR0
         1 000004   100005 220100                    LDX0    5,,PR1
         1 000005   100002 473500                    LDP3    2,,PR1
         1 000006   377777 474510                    LDP4    -1,X0,PR3
         1 000007   400000 236100                    LDQ     0,,PR4
         1 000010   777777 376007                    ANQ     -1,DL
         1 000011   200004 756100                    STQ     CODE,,AUTO

     2734     3886    2      IF PARM.CODE=0 THEN DO CASE(G$D.STACKTOP$->B->OUT.CODE);

   3886  1 000012   000000 721100                    LXL1    0,,PR0
         1 000013   000064 601000 1                  TNZ     s:3896

   3886  1 000014   000003 475500                    LDP5    3,,PR0
         1 000015   500010 476500                    LDP6    8,,PR5
         1 000016   600000 477500                    LDP7    0,,PR6
         1 000017   700000 722100                    LXL2    0,,PR7
         1 000020   000015 102003                    CMPX2   13,DU
         1 000021   000023 602012 1                  TNC     s:3886+9,X2
         1 000022   000211 710000 1                  TRA     s:3914
         1 000023   000063 710000 1                  TRA     s:3895
         1 000024   000063 710000 1                  TRA     s:3895
         1 000025   000040 710000 1                  TRA     s:3889
         1 000026   000063 710000 1                  TRA     s:3895
         1 000027   000063 710000 1                  TRA     s:3895
         1 000030   000063 710000 1                  TRA     s:3895
         1 000031   000063 710000 1                  TRA     s:3895
         1 000032   000063 710000 1                  TRA     s:3895
         1 000033   000063 710000 1                  TRA     s:3895
         1 000034   000063 710000 1                  TRA     s:3895
         1 000035   000063 710000 1                  TRA     s:3895
         1 000036   000063 710000 1                  TRA     s:3895
         1 000037   000040 710000 1                  TRA     s:3889
PL6.E3A0      #003=FXP$POPTS File=FXP$PIG.:E05TSI                                THU 09/04/97 08:44 Page:572

     2735     3887                    /* REJECT SET-ONLY OPTIONS FOR ACCOUNTS */
     2736     3888    2      CASE(2,12); /* NEWFDS, SHELFTIME */

     2737     3889    2         IF CODE=%E$DEFAULT

   3889  1 000040   000157 116007                    CMPQ    111,DL
         1 000041   000046 601000 1                  TNZ     s:3891

     2738     3890    2         THEN CODE=PINCRW(PCB.WORK$,PCB.WKSZ-2)->B->OUT.CODE;

   3890  1 000042   377776 470510                    LDP0    -2,X0,PR3
         1 000043   000000 236100                    LDQ     0,,PR0
         1 000044   777777 376007                    ANQ     -1,DL
         1 000045   200004 756100                    STQ     CODE,,AUTO

     2739     3891    3         IF CODE=%E$CREATE OR CODE=%E$MODIFY THEN DO;

   3891  1 000046   000153 116007                    CMPQ    107,DL
         1 000047   000052 600000 1                  TZE     s:3892
         1 000050   000154 116007                    CMPQ    108,DL
         1 000051   000211 601000 1                  TNZ     s:3914

     2740     3892    3            PARM.REJECT='1'B;

   3892  1 000052   200003 470500                    LDP0    @PARM,,AUTO
         1 000053   000200 236003                    LDQ     128,DU
         1 000054   000000 256100                    ORSQ    0,,PR0

     2741     3893    3            PCB.HI_CHAR=G$D.STACKTOP$->B->OUT.CPOS;

   3893  1 000055   000005 471500                    LDP1    5,,PR0
         1 000056   000003 473500                    LDP3    3,,PR0
         1 000057   300010 474500                    LDP4    8,,PR3
         1 000060   400000 475500                    LDP5    0,,PR4
         1 000061   500002 235100                    LDA     2,,PR5
         1 000062   100012 755100                    STA     10,,PR1
PL6.E3A0      #003=FXP$POPTS File=FXP$PIG.:E05TSI                                THU 09/04/97 08:44 Page:573

     2742     3894    3            END;

     2743     3895    2      END;

   3895  1 000063   000211 710000 1                  TRA     s:3914

     2744     3896    1      ELSE IF PARM.CODE~=%E$MAKEME THEN USW='1'B;

   3896  1 000064   000177 101003                    CMPX1   127,DU
         1 000065   000071 600000 1                  TZE     s:3897

   3896  1 000066   400000 236003                    LDQ     -131072,DU
         1 000067   000000 756000 xsym               STQ     USW
         1 000070   000211 710000 1                  TRA     s:3914

     2745     3897    2      ELSE IF PARM.TYPE=%FAIL# THEN DO;

   3897  1 000071   000000 236100                    LDQ     0,,PR0
         1 000072   777000 376003                    ANQ     -512,DU
         1 000073   003000 116003                    CMPQ    1536,DU
         1 000074   000151 601000 1                  TNZ     s:3908

     2746     3898    2         IF CODE=%E$MADLIST OR PROJAD.L=0

   3898  1 000075   200004 235100                    LDA     CODE,,AUTO
         1 000076   000165 115007                    CMPA    117,DL
         1 000077   000116 600000 1                  TZE     s:3899
         1 000100   000000 236000 xsym               LDQ     PROJAD
         1 000101   777000 316003                    CANQ    -512,DU
         1 000102   000116 600000 1                  TZE     s:3899
         1 000103   000160 115007                    CMPA    112,DL
         1 000104   000111 600000 1                  TZE     s:3898+12
         1 000105   040000 106400                    CMPC    fill='040'O
         1 000106   000005 200006 xsym               ADSC9   PROJAD+5                 cn=1,n=6
         1 000107   000035 000001 xsym               ADSC9   B_VECTNIL+29             cn=0,n=1
         1 000110   000116 600000 1                  TZE     s:3899
PL6.E3A0      #003=FXP$POPTS File=FXP$PIG.:E05TSI                                THU 09/04/97 08:44 Page:574
         1 000111   000003 475500                    LDP5    3,,PR0
         1 000112   500015 236100                    LDQ     13,,PR5
         1 000113   777000 376003                    ANQ     -512,DU
         1 000114   056000 116003                    CMPQ    23552,DU
         1 000115   000117 600000 1                  TZE     s:3900

     2747     3899    2           OR CODE~=%E$DELETE AND PROJAD.PSN=' ' OR G$D.CCHAR~='.' THEN RETURN;

   3899  1 000116   000000 702200 xent               TSX2  ! X66_ARET

     2748     3900    2         CALL X$GETSPACE(7,PARM.OUT$,G$D);

   3900  1 000117   200010 455500                    STP5    CODE+4,,AUTO
         1 000120   200003 236100                    LDQ     @PARM,,AUTO
         1 000121   000002 036003                    ADLQ    2,DU
         1 000122   000000 235000 2                  LDA     0
         1 000123   200006 757100                    STAQ    CODE+2,,AUTO
         1 000124   200006 630500                    EPPR0   CODE+2,,AUTO
         1 000125   000021 631400 xsym               EPPR1   B_VECTNIL+17
         1 000126   000000 701000 xent               TSX1    X$GETSPACE
         1 000127   000000 011000                    NOP     0

     2749     3901    2         SYM.COUNT=6;

   3901  1 000130   200003 470500                    LDP0    @PARM,,AUTO
         1 000131   000002 471500                    LDP1    2,,PR0
         1 000132   006000 236003                    LDQ     3072,DU
         1 000133   100004 552140                    STBQ    4,'40'O,PR1

     2750     3902    2         SYM.CODE=%E$PSN;

   3902  1 000134   000002 471500                    LDP1    2,,PR0
         1 000135   000106 220003                    LDX0    70,DU
         1 000136   100000 440100                    SXL0    0,,PR1

     2751     3903    2         SYM.TEXT=PROJAD.PSN;

PL6.E3A0      #003=FXP$POPTS File=FXP$PIG.:E05TSI                                THU 09/04/97 08:44 Page:575
   3903  1 000137   000002 471500                    LDP1    2,,PR0
         1 000140   100004 236100                    LDQ     4,,PR1
         1 000141   000033 772000                    QRL     27
         1 000142   000000 621006                    EAX1    0,QL
         1 000143   040140 100400                    MLR     fill='040'O
         1 000144   000005 200006 xsym               ADSC9   PROJAD+5                 cn=1,n=6
         1 000145   100004 200011                    ADSC9   4,,PR1                   cn=1,n=*X1

     2752     3904    2         PARM.ACCEPT='1'B;

   3904  1 000146   000400 236003                    LDQ     256,DU
         1 000147   000000 256100                    ORSQ    0,,PR0

     2753     3905    2         RETURN;

   3905  1 000150   000000 702200 xent               TSX2  ! X66_ARET

     2754     3906    2         END;
     2755     3907    2      ELSE DO;

     2756     3908    2         IF PROJAD.L=0 OR PARM.OUT$~=ADDR(NIL)

   3908  1 000151   000000 236000 xsym               LDQ     PROJAD
         1 000152   777000 316003                    CANQ    -512,DU
         1 000153   000171 600000 1                  TZE     s:3909
         1 000154   000002 236100                    LDQ     2,,PR0
         1 000155   000001 116000 xsym               CMPQ    B_VECTNIL+1
         1 000156   000171 601000 1                  TNZ     s:3909
         1 000157   000003 475500                    LDP5    3,,PR0
         1 000160   500010 476500                    LDP6    8,,PR5
         1 000161   600000 477500                    LDP7    0,,PR6
         1 000162   700004 236100                    LDQ     4,,PR7
         1 000163   000033 772000                    QRL     27
         1 000164   000000 622006                    EAX2    0,QL
         1 000165   040140 106400                    CMPC    fill='040'O
         1 000166   000005 200006 xsym               ADSC9   PROJAD+5                 cn=1,n=6
         1 000167   700004 200012                    ADSC9   4,,PR7                   cn=1,n=*X2
PL6.E3A0      #003=FXP$POPTS File=FXP$PIG.:E05TSI                                THU 09/04/97 08:44 Page:576
         1 000170   000172 601000 1                  TNZ     s:3910

     2757     3909    2           OR PROJAD.PSN=G$D.STACKTOP$->B->SYM.TEXT THEN RETURN;

   3909  1 000171   000000 702200 xent               TSX2  ! X66_ARET

     2758     3910    2         CALL FXU$PROJAD(G$D.STACKTOP$->B->SYM.COUNT);

   3910  1 000172   700004 630500                    EPPR0   4,,PR7
         1 000173   200006 450500                    STP0    CODE+2,,AUTO
         1 000174   200006 630500                    EPPR0   CODE+2,,AUTO
         1 000175   000017 631400 xsym               EPPR1   B_VECTNIL+15
         1 000176   000000 701000 xent               TSX1    FXU$PROJAD
         1 000177   000000 011000                    NOP     0

     2759     3911    2         IF FLAG THEN UNWIND TO DPERX;

   3911  1 000200   000000 235000 xsym               LDA     FLAG
         1 000201   000210 600000 1                  TZE     s:3912

   3911  1 000202   000100 100600                    MLR   ! fill='000'O
         1 000203   000000 000010 xsym               ADSC9   DPERX                    cn=0,n=8
         1 000204   200006 000010                    ADSC9   CODE+2,,AUTO             cn=0,n=8
         1 000205   200006 237300                    LDAQ  ! CODE+2,,AUTO
         1 000206   000000 700200 xent               TSX0  ! X66_AUNWIND
         1 000207   000000 000200                    ZERO    0,128

     2760     3912    2         RETURN;

   3912  1 000210   000000 702200 xent               TSX2  ! X66_ARET

     2761     3913    2         END;
     2762     3914    1      IF PARM.NODE$->NODE.F_F

   3914  1 000211   200003 470500                    LDP0    @PARM,,AUTO
         1 000212   000001 471500                    LDP1    1,,PR0
         1 000213   100000 236100                    LDQ     0,,PR1
PL6.E3A0      #003=FXP$POPTS File=FXP$PIG.:E05TSI                                THU 09/04/97 08:44 Page:577
         1 000214   010000 316003                    CANQ    4096,DU
         1 000215   000245 600000 1                  TZE     s:3922

     2763     3915    2      THEN IF PCB.HINODE$->NODE.CODE>=%E$PIGH THEN DO;

   3915  1 000216   000005 473500                    LDP3    5,,PR0
         1 000217   300013 474500                    LDP4    11,,PR3
         1 000220   400000 236100                    LDQ     0,,PR4
         1 000221   177777 376007                    ANQ     65535,DL
         1 000222   000144 116007                    CMPQ    100,DL
         1 000223   000243 602000 1                  TNC     s:3921

     2764     3916    2         FLAG=FXP$E$HELP;

   3916  1 000224   000000 236000 0                  LDQ     FXP$E$HELP
         1 000225   000000 756000 xsym               STQ     FLAG

     2765     3917    2         IF PARM.CHARPOS~=PCB.HI_CHAR THEN FLAG.CODE=PCB.HINODE$->NODE.CODE;

   3917  1 000226   000004 236100                    LDQ     4,,PR0
         1 000227   300012 116100                    CMPQ    10,,PR3
         1 000230   000236 600000 1                  TZE     s:3918

   3917  1 000231   400000 236100                    LDQ     0,,PR4
         1 000232   000003 736000                    QLS     3
         1 000233   000000 676000 xsym               ERQ     FLAG
         1 000234   777770 376007                    ANQ     -8,DL
         1 000235   000000 656000 xsym               ERSQ    FLAG

     2766     3918    2         PARM.CHARPOS=PCB.HI_CHAR;

   3918  1 000236   300012 235100                    LDA     10,,PR3
         1 000237   000004 755100                    STA     4,,PR0

     2767     3919    2         PARM.ACCEPT='1'B;

   3919  1 000240   000400 236003                    LDQ     256,DU
PL6.E3A0      #003=FXP$POPTS File=FXP$PIG.:E05TSI                                THU 09/04/97 08:44 Page:578
         1 000241   000000 256100                    ORSQ    0,,PR0

     2768     3920    2         END;

   3920  1 000242   000245 710000 1                  TRA     s:3922

     2769     3921    1      ELSE PCB.HI_CHAR=PARM.CHARPOS;

   3921  1 000243   000004 235100                    LDA     4,,PR0
         1 000244   300012 755100                    STA     10,,PR3

     2770     3922    1      RETURN;

   3922  1 000245   000000 702200 xent               TSX2  ! X66_ARET
     2771     3923    1   END;
     2772     3924        %EOD;

PL6.E3A0      #003=FXP$POPTS File=FXP$PIG.:E05TSI                                THU 09/04/97 08:44 Page:579
--  Include file information  --

   F_MACROS_C.:E05TOU  is referenced.
   FX_PERR_C.:E05TOU  is referenced.
   FX_SUBS_C.:E05TOU  is referenced.
   XU_SUBS_C.:E05TOU  is referenced.
   XU_MACRO_C.:E05TOU  is referenced.
   B$JIT_C.:E05TOU  was found in the system file and is never referenced.
   CP_6_C.:E05TOU  was found in the system file and is never referenced.
      No diagnostics issued in procedure FXP$POPTS.
PL6.E3A0      #003=FXP$POPTS File=FXP$PIG.:E05TSI                                THU 09/04/97 08:44 Page:580

 **** Variables and constants ****

  ****  Section 000 RoData FXP$POPTS

  ****  Scalars and arrays  ****
OctLoc.c.b A Datatyp(siz) R M Lvl/name                 OctLoc.c.b A Datatyp(siz) R M Lvl/name

     0-0-0/b STRC        r     1 FXP$E$HELP

  ****  Auto variables  ****

  ****  Scalars and arrays  ****
OctLoc.c.b A Datatyp(siz) R M Lvl/name                 OctLoc.c.b A Datatyp(siz) R M Lvl/name

     3-0-0/w PTR         r     1 @PARM                      4-0-0/w UBIN        r     1 CODE
    *0-0-0/w STRC(270)   r     1 PARM

  ****  SYMREF variables  ****

  ****  Scalars and arrays  ****
OctLoc.c.b A Datatyp(siz) R M Lvl/name                 OctLoc.c.b A Datatyp(siz) R M Lvl/name

     0-0-0/b BIT (72)    r     1 DPERX                      0-0-0/b STRC        r     1 FLAG
     0-0-0/c STRC(243)   r     1 PROJAD                     0-0-0/b BIT         r     1 USW

  ****  BASED and DCB variables  ****

  ****  Scalars and arrays  ****
OctLoc.c.b A Datatyp(siz) R M Lvl/name                 OctLoc.c.b A Datatyp(siz) R M Lvl/name

     0-0-0/w PTR         r     1 B                          0-0-0/d STRC(5175)  r     1 G$D
     0-0-0/w STRC(72)    r     1 NODE                       0-0-0/w STRC(144)   r     1 OUT
     0-0-0/w STRC(504)   r     1 PCB                        0-0-0/w ASTR(153)   r     1 SYM


   Procedure FXP$POPTS requires 166 words for executable code.
PL6.E3A0      #003=FXP$POPTS File=FXP$PIG.:E05TSI                                THU 09/04/97 08:44 Page:581
   Procedure FXP$POPTS requires 10 words of local(AUTO) storage.
PL6.E3A0      #003=FXP$POPTS File=FXP$PIG.:E05TSI                                THU 09/04/97 08:44 Page:582
          *** CROSS REFERENCE LISTING ***
**     DENOTES     IDENTIFIER DEFINITION
<<                 IDENTIFIER'S VALUE SET
>>                 IDENTIFIER'S VALUE USED
<>                 IDENTIFIER SET AND/OR USED
--                 IDENTIFIER REFERENCED
PL6.E3A0      #003=FXP$POPTS File=FXP$PIG.:E05TSI                                THU 09/04/97 08:44 Page:583
          MINI XREF LISTING

B
      3590**DCL      3885>>ASSIGN   3886>>DOCASE   3890>>ASSIGN   3893>>ASSIGN   3908>>IF       3908>>IF
      3910>>CALL
CODE
      3591**DCL      3885<<ASSIGN   3889>>IF       3890<<ASSIGN   3891>>IF       3891>>IF       3898>>IF
      3898>>IF
DPERX
      3600**DCL      3911>>UNWIND
FLAG
      3409**DCL      3911>>IF       3916<<ASSIGN
FLAG.CODE
      3411**DCL      3917<<ASSIGN
FXP$E$HELP
      3406**DCL      3916>>ASSIGN
FXU$PROJAD
      3599**DCL-ENT  3910--CALL
G$D
      3503**DCL      3900<>CALL
G$D.CCHAR
      3559**DCL      3898>>IF
G$D.LDCMNT.TX
      3573**DCL      3574--REDEF
G$D.SCRATCH
      3540**DCL      3543--REDEF
G$D.STACKTOP$
      3532**DCL      3886>>DOCASE   3893>>ASSIGN   3908>>IF       3908>>IF       3910>>CALL
G$D.TRCMNT.TX
      3581**DCL      3582--REDEF
NODE.CODE
      3390**DCL      3915>>IF       3917>>ASSIGN
NODE.F_F
      3349**DCL      3914>>IF
PL6.E3A0      #003=FXP$POPTS File=FXP$PIG.:E05TSI                                THU 09/04/97 08:44 Page:584
OUT.CODE
      3816**DCL      3885>>ASSIGN   3886>>DOCASE   3890>>ASSIGN
OUT.CPOS
      3834**DCL      3893>>ASSIGN
PARM
      3432**DCL         6--PROC
PARM.ACCEPT
      3439**DCL      3904<<ASSIGN   3919<<ASSIGN
PARM.CHARPOS
      3470**DCL      3917>>IF       3918<<ASSIGN   3921>>ASSIGN
PARM.CODE
      3453**DCL      3886>>IF       3896>>IF
PARM.GLOBAL$
      3466**DCL      3503--IMP-PTR  3886>>DOCASE   3893>>ASSIGN   3898>>IF       3900>>CALL     3908>>IF
      3908>>IF       3910>>CALL
PARM.NODE$
      3458**DCL      3914>>IF
PARM.OUT$
      3462**DCL      3854--IMP-PTR  3900<>CALL     3901>>ASSIGN   3902>>ASSIGN   3903>>ASSIGN   3903>>ASSIGN
      3908>>IF
PARM.PCB$
      3476**DCL      3620--IMP-PTR  3885>>ASSIGN   3885>>ASSIGN   3890>>ASSIGN   3890>>ASSIGN   3893>>ASSIGN
      3915>>IF       3917>>IF       3917>>ASSIGN   3918>>ASSIGN   3921>>ASSIGN
PARM.REJECT
      3444**DCL      3892<<ASSIGN
PARM.TYPE
      3433**DCL      3897>>IF
PCB.HINODE$
      3778**DCL      3915>>IF       3917>>ASSIGN
PCB.HI_CHAR
      3771**DCL      3893<<ASSIGN   3917>>IF       3918>>ASSIGN   3921<<ASSIGN
PCB.WKSZ
      3650**DCL      3885>>ASSIGN   3890>>ASSIGN
PCB.WORK$
      3629**DCL      3885>>ASSIGN   3890>>ASSIGN
PROJAD.L
PL6.E3A0      #003=FXP$POPTS File=FXP$PIG.:E05TSI                                THU 09/04/97 08:44 Page:585
      3594**DCL      3898>>IF       3908>>IF
PROJAD.PSN
      3597**DCL      3898>>IF       3903>>ASSIGN   3908>>IF
SYM.CODE
      3860**DCL      3902<<ASSIGN
SYM.COUNT
      3877**DCL      3880--IMP-SIZ  3901<<ASSIGN   3903>>ASSIGN   3908>>IF       3910<>CALL
SYM.TEXT
      3880**DCL      3903<<ASSIGN   3908>>IF
USW
      3592**DCL      3896<<ASSIGN
X$GETSPACE
      3598**DCL-ENT  3900--CALL

PL6.E3A0      #004=FXP$INT File=FXP$PIG.:E05TSI                                  THU 09/04/97 08:44 Page:586
     2773        1        /*T***********************************************************/
     2774        2        /*T*                                                         */
     2775        3        /*T* Copyright (c) Bull HN Information Systems Inc., 1997    */
     2776        4        /*T*                                                         */
     2777        5        /*T***********************************************************/
     2778        6        FXP$INT: PROC ASYNC;
     2779        7    1   DCL TRAPCNT SBIN SYMREF;
     2780        8    1   DCL TRAPX BIT(72)SYMREF;
     2781        9        %INCLUDE CP_6;
     2782       90        %INCLUDE JG_GHOSTS_C;
     2783      180        %INCLUDE F_SCODE_C;
     2784      216        %INCLUDE J$JIT_C;
     2785      416    1   DCL B$JIT$ PTR SYMREF;
     2786      417        %FPT_XCON(FPTN=NOXCON,STCLASS=CONSTANT);
     2787      431        %VLP_SCODE (FPTN=PIGTRAP, CODE=%S$PIGERR, FCG=FX, MID=P, CFUS=YES, CUSR=YES,
     2788      432              FMBUF=YES,ROSEG=YES,DDSEG=YES,ISEG=YES);
     2789      493        %FPT_SCREECH(FPTN=PIGSCR,STCLASS=CONSTANT,SCODE=PIGTRAP);
     2790      507    1   DCL B$TCB$ PTR SYMREF;
     2791      508        %B$TCB(STCLASS="BASED(B$TCB$)");
     2792      511        %B$XCON;
     2793      521    1   DCL FLAG BIT(36) SYMREF;
     2794      522    1   DCL XCONWIND BIT(72)STATIC SYMDEF INIT('0'B);
     2795      523    1   DCL SETSAD BIT(72)SYMREF DALIGNED;
     2796      524    1   DCL BREAK UBIN SYMREF;
     2797      525        %FPT_TRMPRG (STCLASS=CONSTANT, RESETBREAK=YES);
     2798      554    1      CALL M$TRMPRG (FPT_TRMPRG);
     2799      555    1      BREAK=1;
     2800      556    1      RETURN;
     2801      557    1   FXP$TRAP: ENTRY ASYNC;
     2802      558    1      IF TRAPCNT~=0 THEN GOTO XCON;
     2803      559    1      TRAPCNT=TRAPCNT+1;
     2804      560    1      CALL M$CLRSTK;
     2805      561    1      CALL M$SAD(SETSAD)ALTRET(NOALT);
     2806      562    1   NOALT:;
     2807      563    1      UNWIND TO TRAPX;
     2808      564    1   FXP$XCON: ENTRY ASYNC;
     2809      565    1   XCON:;
PL6.E3A0      #004=FXP$INT File=FXP$PIG.:E05TSI                                  THU 09/04/97 08:44 Page:587
     2810      566    2      IF XCONWIND AND TRAPCNT<4 THEN DO;
     2811      567    2         TRAPCNT=TRAPCNT+1;
     2812      568    3         IF B$JIT.SYSID=JG_PIG# THEN DO;
     2813      569    3            FLAG=B$TCB.STK$->B$XCON.ERR;
     2814      570    3            CALL M$SCREECH(PIGSCR);
     2815      571    3            END;
     2816      572                    /*S*      SCREECH_CODE: FXP-S$PIGERR
     2817      573                    *         TYPE: SNAP
     2818      574                    *         MESSAGE: PIG exit, error, or abort.
     2819      575                    *         DESCRIPTION: PIG's exit control was entered while running as
     2820      576                    *         a ghost not becaouse of a ZAP. PIG unwinds (after this snap)
     2821      577                    *         to the general error return (DPERR1).
     2822      578                    */
     2823      579    2         CALL M$CLRSTK;
     2824      580    2         UNWIND TO XCONWIND;
     2825      581    2         END;
     2826      582    1      IF B$JIT.XCONF THEN CALL M$MERCS;
     2827      583    1      ELSE CALL M$XCON(NOXCON);
     2828      584    1   END FXP$INT;

PL6.E3A0      #004=FXP$INT File=FXP$PIG.:E05TSI                                  THU 09/04/97 08:44 Page:588
--  Include file information  --

   J$JIT_C.:E05TOU  cannot be made into a system file and is referenced.
   F_SCODE_C.:E05TOU  is referenced.
   JG_GHOSTS_C.:E05TOU  is referenced.
   CP_6.:E05TOU  cannot be made into a system file and is referenced.
   B$JIT_C.:E05TOU  was found in the system file and is referenced.
   CP_6_C.:E05TOU  was found in the system file and is referenced.
      No diagnostics issued in procedure FXP$INT.

   Procedure FXP$INT requires 61 words for executable code.
   Procedure FXP$INT requires 6 words of local(AUTO) storage.

    No errors detected in file FXP$PIG.:E05TSI    .

PL6.E3A0      #004=FXP$INT File=FXP$PIG.:E05TSI                                  THU 09/04/97 08:44 Page:589

 Object Unit name= FXP$INT                                    File name= FXP$PIG.:E05TOU
 UTS= SEP 04 '97 08:44:27.32 THU                              Compiler= PL-6/E31         Sev=      00
 SharedLib= :SHARED_SYSTEM                                    Alt SharedLib=


    ****  Control sections  ****

 Sect   Type Bound  Init  Size OctSiz  Section name(segment info)
    0   DCB   even  none     0      0  M$UC
    1  RoData even  UTS     20     24  FXP$INT
    2   Data  even  none     4      4  FXP$INT
    3   Proc  even  none    61     75  FXP$INT
    4  RoData even  none     2      2  FXP$INT

    ****  Entry defs  ****

                              Check   Calling
                             calling  sequence
  Sect OctLoc Primary Altret sequence   type   Parms  Name
     3      0   yes            yes     Async       0  FXP$INT
     3     10                  yes     Async       0  FXP$TRAP
     3     31                  yes     Async       0  FXP$XCON

  ****  Data defs  ****

 Sect OctLoc  Name                           Sect OctLoc  Name
    2      2  XCONWIND

  ****  Entry refs  ****

         Check        Calling
        calling       sequence
Altret sequence SRef   type   Args  Name
                       nStd      0 X66_AAUTO
                       nStd      0 X66_AARET
                       nStd      0 X66_AAUNWIND
PL6.E3A0      #004=FXP$INT File=FXP$PIG.:E05TSI                                  THU 09/04/97 08:44 Page:590

  ****  Data refs  ****

  Flags:  r = read only, s = secondary
Flgs Name                             Flgs Name                             Flgs Name
     TRAPCNT                               TRAPX                                 M$UC
     B$JIT$                                B$TCB$                                FLAG
     SETSAD                                BREAK

  ****  Segment refs  ****

  Flags:  r = read only, s = secondary
Flgs Name                             Flgs Name                             Flgs Name
     ISSID                                 NULLSID
PL6.E3A0      #004=FXP$INT File=FXP$PIG.:E05TSI                                  THU 09/04/97 08:44 Page:591


     2773        1        /*T***********************************************************/
     2774        2        /*T*                                                         */
     2775        3        /*T* Copyright (c) Bull HN Information Systems Inc., 1997    */
     2776        4        /*T*                                                         */
     2777        5        /*T***********************************************************/
     2778        6        FXP$INT: PROC ASYNC;

      6  3 000000   000000 700200 xent  FXP$INT      TSX0  ! X66_AAUTO
         3 000001   000006 000000                    ZERO    6,0

     2779        7    1   DCL TRAPCNT SBIN SYMREF;
     2780        8    1   DCL TRAPX BIT(72)SYMREF;
     2781        9        %INCLUDE CP_6;
     2782       90        %INCLUDE JG_GHOSTS_C;
     2783      180        %INCLUDE F_SCODE_C;
     2784      216        %INCLUDE J$JIT_C;
     2785      416    1   DCL B$JIT$ PTR SYMREF;
     2786      417        %FPT_XCON(FPTN=NOXCON,STCLASS=CONSTANT);
     2787      431        %VLP_SCODE (FPTN=PIGTRAP, CODE=%S$PIGERR, FCG=FX, MID=P, CFUS=YES, CUSR=YES,
     2788      432              FMBUF=YES,ROSEG=YES,DDSEG=YES,ISEG=YES);
     2789      493        %FPT_SCREECH(FPTN=PIGSCR,STCLASS=CONSTANT,SCODE=PIGTRAP);
     2790      507    1   DCL B$TCB$ PTR SYMREF;
     2791      508        %B$TCB(STCLASS="BASED(B$TCB$)");
     2792      511        %B$XCON;
     2793      521    1   DCL FLAG BIT(36) SYMREF;
     2794      522    1   DCL XCONWIND BIT(72)STATIC SYMDEF INIT('0'B);
     2795      523    1   DCL SETSAD BIT(72)SYMREF DALIGNED;
     2796      524    1   DCL BREAK UBIN SYMREF;
     2797      525        %FPT_TRMPRG (STCLASS=CONSTANT, RESETBREAK=YES);
     2798      554    1      CALL M$TRMPRG (FPT_TRMPRG);

    554  3 000002   000014 630400 1                  EPPR0   FPT_TRMPRG
         3 000003   160004 713400                    CLIMB   57348
         3 000004   400400 401760                    pmme    nvectors=2

     2799      555    1      BREAK=1;
PL6.E3A0      #004=FXP$INT File=FXP$PIG.:E05TSI                                  THU 09/04/97 08:44 Page:592

    555  3 000005   000001 235007                    LDA     1,DL
         3 000006   000000 755000 xsym               STA     BREAK

     2800      556    1      RETURN;

    556  3 000007   000000 702200 xent               TSX2  ! X66_AARET

     2801      557    1   FXP$TRAP: ENTRY ASYNC;

    557  3 000010   000000 700200 xent  FXP$TRAP     TSX0  ! X66_AAUTO
         3 000011   000006 000000                    ZERO    6,0

     2802      558    1      IF TRAPCNT~=0 THEN GOTO XCON;

    558  3 000012   000000 235000 xsym               LDA     TRAPCNT
         3 000013   000033 601000 3                  TNZ     XCON

     2803      559    1      TRAPCNT=TRAPCNT+1;

    559  3 000014   000000 054000 xsym               AOS     TRAPCNT

     2804      560    1      CALL M$CLRSTK;

    560  3 000015   010013 713400                    CLIMB   4107
         3 000016   000000 401760                    pmme    nvectors=0

     2805      561    1      CALL M$SAD(SETSAD)ALTRET(NOALT);

    561  3 000017   000000 630400 xsym               EPPR0   SETSAD
         3 000020   430015 713400                    CLIMB   alt,+12301
         3 000021   400000 401760                    pmme    nvectors=1
         3 000022   000023 702000 3                  TSX2    NOALT

    559  3 000023                       NOALT        null
     2806      562    1   NOALT:;
     2807      563    1      UNWIND TO TRAPX;
PL6.E3A0      #004=FXP$INT File=FXP$PIG.:E05TSI                                  THU 09/04/97 08:44 Page:593

    563  3 000023   000100 100600                    MLR   ! fill='000'O
         3 000024   000000 000010 xsym               ADSC9   TRAPX                    cn=0,n=8
         3 000025   200004 000010                    ADSC9   4,,AUTO                  cn=0,n=8
         3 000026   200004 237300                    LDAQ  ! 4,,AUTO
         3 000027   000000 700200 xent               TSX0  ! X66_AAUNWIND
         3 000030   000000 000200                    ZERO    0,128

     2808      564    1   FXP$XCON: ENTRY ASYNC;

    564  3 000031   000000 700200 xent  FXP$XCON     TSX0  ! X66_AAUTO
         3 000032   000006 000000                    ZERO    6,0

    563  3 000033                       XCON         null
     2809      565    1   XCON:;
     2810      566    2      IF XCONWIND AND TRAPCNT<4 THEN DO;

    566  3 000033   000002 237000 2                  LDAQ    XCONWIND
         3 000034   000000 117000 4                  CMPAQ   0
         3 000035   000062 600000 3                  TZE     s:582
         3 000036   000000 235000 xsym               LDA     TRAPCNT
         3 000037   000004 115007                    CMPA    4,DL
         3 000040   000062 605000 3                  TPL     s:582

     2811      567    2         TRAPCNT=TRAPCNT+1;

    567  3 000041   000000 054000 xsym               AOS     TRAPCNT

     2812      568    3         IF B$JIT.SYSID=JG_PIG# THEN DO;

    568  3 000042   000000 470400 xsym               LDP0    B$JIT$
         3 000043   000000 720100                    LXL0    0,,PR0
         3 000044   000007 100003                    CMPX0   7,DU
         3 000045   000055 601000 3                  TNZ     s:579

     2813      569    3            FLAG=B$TCB.STK$->B$XCON.ERR;

PL6.E3A0      #004=FXP$INT File=FXP$PIG.:E05TSI                                  THU 09/04/97 08:44 Page:594
    569  3 000046   000000 471400 xsym               LDP1    B$TCB$
         3 000047   100001 473500                    LDP3    1,,PR1
         3 000050   300102 236100                    LDQ     66,,PR3
         3 000051   000000 756000 xsym               STQ     FLAG

     2814      570    3            CALL M$SCREECH(PIGSCR);

    570  3 000052   000006 630400 1                  EPPR0   PIGSCR
         3 000053   000013 713400                    CLIMB   11
         3 000054   401000 401760                    pmme    nvectors=3

     2815      571    3            END;

     2816      572                    /*S*      SCREECH_CODE: FXP-S$PIGERR
     2817      573                    *         TYPE: SNAP
     2818      574                    *         MESSAGE: PIG exit, error, or abort.
     2819      575                    *         DESCRIPTION: PIG's exit control was entered while running as
     2820      576                    *         a ghost not becaouse of a ZAP. PIG unwinds (after this snap)
     2821      577                    *         to the general error return (DPERR1).
     2822      578                    */
     2823      579    2         CALL M$CLRSTK;

    579  3 000055   010013 713400                    CLIMB   4107
         3 000056   000000 401760                    pmme    nvectors=0

     2824      580    2         UNWIND TO XCONWIND;

    580  3 000057   000002 237200 2                  LDAQ  ! XCONWIND
         3 000060   000000 700200 xent               TSX0  ! X66_AAUNWIND
         3 000061   000000 000200                    ZERO    0,128

     2825      581    2         END;
     2826      582    1      IF B$JIT.XCONF THEN CALL M$MERCS;

    582  3 000062   000000 470400 xsym               LDP0    B$JIT$
         3 000063   000316 236100                    LDQ     206,,PR0
         3 000064   777000 316003                    CANQ    -512,DU
PL6.E3A0      #004=FXP$INT File=FXP$PIG.:E05TSI                                  THU 09/04/97 08:44 Page:595
         3 000065   000071 600000 3                  TZE     s:583

    582  3 000066   010014 713400                    CLIMB   4108
         3 000067   000000 401760                    pmme    nvectors=0
         3 000070   000074 710000 3                  TRA     s:584

     2827      583    1      ELSE CALL M$XCON(NOXCON);

    583  3 000071   000000 630400 1                  EPPR0   NOXCON
         3 000072   010003 713400                    CLIMB   4099
         3 000073   400400 401760                    pmme    nvectors=2

     2828      584    1   END FXP$INT;

    584  3 000074   000000 702200 xent               TSX2  ! X66_AARET

PL6.E3A0      #004=FXP$INT File=FXP$PIG.:E05TSI                                  THU 09/04/97 08:44 Page:596
--  Include file information  --

   J$JIT_C.:E05TOU  cannot be made into a system file and is referenced.
   F_SCODE_C.:E05TOU  is referenced.
   JG_GHOSTS_C.:E05TOU  is referenced.
   CP_6.:E05TOU  cannot be made into a system file and is referenced.
   B$JIT_C.:E05TOU  was found in the system file and is referenced.
   CP_6_C.:E05TOU  was found in the system file and is referenced.
      No diagnostics issued in procedure FXP$INT.
PL6.E3A0      #004=FXP$INT File=FXP$PIG.:E05TSI                                  THU 09/04/97 08:44 Page:597

 **** Variables and constants ****

  ****  Section 001 RoData FXP$INT

  ****  Scalars and arrays  ****
OctLoc.c.b A Datatyp(siz) R M Lvl/name                 OctLoc.c.b A Datatyp(siz) R M Lvl/name

    14-0-0/d STRC(288)   r     1 FPT_TRMPRG                 0-0-0/d STRC(216)   r     1 NOXCON
     6-0-0/d STRC(216)   r     1 PIGSCR

  ****  Section 002  Data  FXP$INT

  ****  Scalars and arrays  ****
OctLoc.c.b A Datatyp(siz) R M Lvl/name                 OctLoc.c.b A Datatyp(siz) R M Lvl/name

     0-0-0/d STRC(72)    r     1 PIGTRAP                    2-0-0/b BIT (72)    r     1 XCONWIND

  ****  SYMREF variables  ****

  ****  Scalars and arrays  ****
OctLoc.c.b A Datatyp(siz) R M Lvl/name                 OctLoc.c.b A Datatyp(siz) R M Lvl/name

     0-0-0/w PTR         r     1 B$JIT$                     0-0-0/w PTR         r     1 B$TCB$
     0-0-0/w UBIN        r     1 BREAK                      0-0-0/b BIT         r     1 FLAG
     0-0-0/d BIT (72)    r     1 SETSAD                     0-0-0/w SBIN        r     1 TRAPCNT
     0-0-0/b BIT (72)    r     1 TRAPX

  ****  BASED and DCB variables  ****

  ****  Scalars and arrays  ****
OctLoc.c.b A Datatyp(siz) R M Lvl/name                 OctLoc.c.b A Datatyp(siz) R M Lvl/name

     0-0-0/d STRC(8856)  r     1 B$JIT                      0-0-0/w STRC(144)   r     1 B$TCB
     0-0-0/w STRC(2448)  r     1 B$XCON                     0-0-0N  NULL        r     1 M$UC

PL6.E3A0      #004=FXP$INT File=FXP$PIG.:E05TSI                                  THU 09/04/97 08:44 Page:598

   Procedure FXP$INT requires 61 words for executable code.
   Procedure FXP$INT requires 6 words of local(AUTO) storage.

    No errors detected in file FXP$PIG.:E05TSI    .
PL6.E3A0      #004=FXP$INT File=FXP$PIG.:E05TSI                                  THU 09/04/97 08:44 Page:599
          *** CROSS REFERENCE LISTING ***
**     DENOTES     IDENTIFIER DEFINITION
<<                 IDENTIFIER'S VALUE SET
>>                 IDENTIFIER'S VALUE USED
<>                 IDENTIFIER SET AND/OR USED
--                 IDENTIFIER REFERENCED
PL6.E3A0      #004=FXP$INT File=FXP$PIG.:E05TSI                                  THU 09/04/97 08:44 Page:600
          MINI XREF LISTING

B$JIT.ERR.MID
       231**DCL       231--REDEF
B$JIT.SYSID
       230**DCL       568>>IF
B$JIT.XCONF
       368**DCL       582>>IF
B$JIT$
       416**DCL       225--IMP-PTR   568>>IF        582>>IF
B$TCB.STK$
       509**DCL       569>>ASSIGN
B$TCB$
       507**DCL       509--IMP-PTR   569>>ASSIGN
B$XCON.ERR
       518**DCL       569>>ASSIGN
B$XCON.ERR.ERR#
       518**DCL       518--REDEF
B$XCON.LIMIT.MEM
       516**DCL       516--REDEF
BREAK
       524**DCL       555<<ASSIGN
FLAG
       521**DCL       569<<ASSIGN
FPT_TRMPRG
       541**DCL       554<>CALL
FPT_TRMPRG.V
       548**DCL       543--DCLINIT
FPT_TRMPRG.V.CTLFLG.RSTBRK#
       549**DCL       550--REDEF
M$CLRSTK
        76**DCL-ENT   560--CALL      579--CALL
M$MERCS
        75**DCL-ENT   582--CALL
PL6.E3A0      #004=FXP$INT File=FXP$PIG.:E05TSI                                  THU 09/04/97 08:44 Page:601
M$SAD
        57**DCL-ENT   561--CALL
M$SCREECH
        32**DCL-ENT   570--CALL
M$TRMPRG
        43**DCL-ENT   554--CALL
M$XCON
        73**DCL-ENT   583--CALL
NOALT
       559**LABEL     561--CALLALT
NOXCON
       428**DCL       583<>CALL
NOXCON.V
       429**DCL       428--DCLINIT
PIGSCR
       504**DCL       570<>CALL
PIGTRAP
       447**DCL       504--DCLINIT
SETSAD
       523**DCL       561<>CALL
TRAPCNT
         7**DCL       558>>IF        559<<ASSIGN    559>>ASSIGN    566>>IF        567<<ASSIGN    567>>ASSIGN
TRAPX
         8**DCL       563>>UNWIND
XCON
       563**LABEL     558--GOTO
XCONWIND
       522**DCL       566>>IF        580>>UNWIND
