PL6.E3A0      #004=FXU$PROJAD File=FXU$UTIL.:E05TSI                              TUE 07/29/97 20:35 Page:146
      630        1        /*T***********************************************************/
      631        2        /*T*                                                         */
      632        3        /*T* Copyright (c) Bull HN Information Systems Inc., 1997    */
      633        4        /*T*                                                         */
      634        5        /*T***********************************************************/
      635        6                    /*F*      NAME: FXU$PROJAD
      636        7                    *         PURPOSE: Mess with the :PROJ file..check MAKEME command,
      637        8                    *         packset specification, account name, next account, etc.
      638        9                    */
      639       10        FXU$PROJAD: PROC(ACCT)ALTRET;
      640       11    1   DCL ACCT CHAR(8); /* PARAMETER FOR NEXT ACCOUNT */
      641       12    1   DCL 1 CODE REDEF ACCT,
      642       13    1         2 N UBIN, /* PARAMETER FOR CHECK ACCOUNT NAME */
      643       14    1         2 * UBIN;
      644       15        %INCLUDE CP_6;
      645       96        %INCLUDE F$JIT_C;
      646      213    1   DCL B$JIT$ PTR SYMREF;
      647      214        %INCLUDE FX_PERR_C;
      648      273        %INCLUDE AS_SUPER_C;
      649      708        %INCLUDE XU_MACRO_C;
      650     3814        %INCLUDE FM$MACROS;
      651     4189    1   DCL 1 PROJAD SYMREF,
      652     4190    1         2 L UBIN(9)UNAL,
      653     4191    1         2 USER CHAR(20),
      654     4192    1         2 PSN CHAR(6);
      655     4193    1   DCL 1 PROJKY STATIC,
      656     4194    1         2 L UBIN(9)UNAL,
      657     4195    1         2 USER CHAR(20),
      658     4196    1         2 PSN CHAR(6);
      659     4197    1   DCL CHAR20 CHAR(20) BASED;
      660     4198    1   DCL M$PROJ DCB;
      661     4199        %FPT_OPEN(STCLASS=CONSTANT,DCB=M$PROJ,ASN=FILE,SCRUB=YES,NAME=PROJN,
      662     4200                  ACCT=SYS_ACCT,FUN=UPDATE,SHARE=ALL);
      663     4309        %VLP_NAME(FPTN=PROJN,NAME=':PROJ',STCLASS=CONSTANT);
      664     4336        %VLP_ACCT(FPTN=SYS_ACCT,ACCT=':SYS',STCLASS=CONSTANT SYMDEF);
      665     4349        %FPT_READ(FPTN=RDPROJ,KEYS=YES,KEY=PROJKY,DCB=M$PROJ);
      666     4388        %FPT_PRECORD(FPTN=PREC,DCB=M$PROJ,KEYS=YES,KEYR=YES,KEY=PROJKY);
PL6.E3A0      #004=FXU$PROJAD File=FXU$UTIL.:E05TSI                              TUE 07/29/97 20:35 Page:147
      667     4409        %FPT_WRITE(FPTN=WRPROJ,DCB=M$PROJ,KEY=PROJKY);
      668     4440        %FPT_ENQ(FPTN=ENQUEUE,STCLASS=CONSTANT,DCB=M$PROJ,RNAME=PROJKY,SHARE=NONE);
      669     4458        %FPT_DEQ(FPTN=DEQUEUE,STCLASS=CONSTANT,DCB=M$PROJ);
      670     4475        %FPT_GDS(RESULTS=RDPROJ.BUF_,SEGSIZE=1024,STCLASS=CONSTANT);
      671     4491        %AS$PROJ(NAME=PROJREC,STCLASS="BASED(RDPROJ.BUF_.BUF$)");
      672     4525    1   DCL 1 ACCTS(0:0)BASED(ACCT$),
      673     4526    1         2 C CHAR(8),
      674     4527    1         2 GRANS UBIN;
      675     4528        %F$DCB;
      676     4585    1   DCL M$DP$ PTR SYMREF;
      677     4586        %P_PCB(W=CSTAT,WSZ=1024,R=FXN$CMD,STCLASS=STATIC,U$=FXP$POPTS);
      678     4785    1   DCL X$PARSE ENTRY(1) ALTRET;
      679     4786    1   DCL FXP$POPTS ENTRY(1);
      680     4787    1   DCL CSTAT UBIN SYMREF;
      681     4788    1   DCL FXN$CMD UBIN SYMREF;
      682     4789    1   DCL FXP$PROJAT ENTRY(1) ALTRET;
      683     4790        %SUB FCG#='0630'O;
      684     4791        %SUB MID#='25'O;
      685     4792        %ERRCODE(NAME=FXU$E$NOPROJ,COD#=%E$NOPROJ,SEV#=7);
      686     4796        %ERRCODE(NAME=FXU$E$PROJNA,COD#=%E$PROJNA,SEV#=7);
      687     4800        %ERRCODE(NAME=FXU$E$PROJOVER,COD#=%E$PROJOVER,SEV#=7);
      688     4804        %ERRCODE(NAME=FXU$E$PROJEX,COD#=%E$PROJEX,SEV#=7);
      689     4808        %ERRCODE(NAME=FXU$E$PROJSK,COD#=%E$PROJSK,SEV#=7);
      690     4812    1   DCL FLAG BIT(36) SYMREF;
      691     4813                    /* AUTO FRAME */
      692     4814    1   DCL ACCT$ PTR;
      693     4815    1   DCL I UBIN;
      694     4816    1   DCL J UBIN;
      695     4817    1   DCL WILD_XC REDEF J CHAR(4);
      696     4818    1   DCL K UBIN;
      697     4819    1   DCL L UBIN;
      698     4820    1   DCL M UBIN;
      699     4821    1   DCL 1 AC,
      700     4822    1         2 C CHAR(8),
      701     4823    1         2 GRANS UBIN;
      702     4824        %EJECT;
PL6.E3A0      #004=FXU$PROJAD File=FXU$UTIL.:E05TSI                              TUE 07/29/97 20:35 Page:148
      703     4825    1      FLAG='0'B;
      704     4826    1      IF NOT DCBADDR(DCBNUM(M$PROJ))->F$DCB.FCD#
      705     4827    1      THEN CALL M$OPEN(FPT_OPEN)ALTRET(NOPROJ);
      706     4828    1      CALL INDEX1(I,' ',SUBSTR(PROJAD.USER,8));
      707     4829    2      IF ADDR(ACCT)=ADDR(NIL) THEN DO;
      708     4830    2         PROJAD.PSN=' ';
      709     4831    2         PROJKY=PROJAD;
      710     4832    2         PROJKY.L=I+8;
      711     4833    2         PROJAD.L=0;
      712     4834    2         PREC.V.N#=0;
      713     4835    2         CALL M$PRECORD(PREC)ALTRET(DGAS1);
      714     4836    2   DGAS1:IF PROJAD.USER~=PROJKY.USER OR PROJKY.L=0 THEN GOTO NOPROJ;
      715     4837    2         PREC.V.N#=1;
      716     4838    2         CALL M$PRECORD(PREC)ALTRET(DGAS2);
      717     4839    3         IF PROJKY.L~=0 AND PROJKY.USER=PROJAD.USER THEN DO;
      718     4840    3            PROJAD.L=I+8;
      719     4841    3            RETURN;
      720     4842    3            END;
      721     4843    2   DGAS2:PREC.V.N#=0;
      722     4844    2         PROJKY=PROJAD;
      723     4845    2         PROJKY.L=I+8;
      724     4846    2         CALL M$PRECORD(PREC)ALTRET(DGAS3);
      725     4847    2         END;
      726     4848    2      ELSE DO;
      727     4849    2         IF PROJAD.L>20 THEN GOTO NOPROJ;
      728     4850    2         PROJKY.PSN=SUBSTR(ACCT,1,ASCBIN(SUBSTR(ACCT,0,1)));
      729     4851    2         PROJKY.L=ASCBIN(SUBSTR(ACCT,0,1))+20;
      730     4852    2         END;
      731     4853    1   DGAS3: IF RDPROJ.BUF_.BUF$=ADDR(NIL) THEN CALL M$GDS(FPT_GDS);
      732     4854    2      DO WHILE(PROJKY.USER~=' ' AND PROJKY.USER~=ADDR(B$JIT.ACCN)->CHAR20);
      733     4855    2         CALL M$READ(RDPROJ) ALTRET(CHKLD);
      734     4856    2         PROJKY.USER=PROJREC.CREATOR;
      735     4857    2         END;
      736     4858    1      IF PROJKY.USER=' ' AND NOT B$JIT.PPRIV&%(PPR_PIGC#|PPR_SUPER#)
      737     4859    1        AND NOT B$JIT.PRIV.AUTH&%(PR_FMSEC#|PR_FMDIAG#) THEN GOTO NOPROJ;
      738     4860    1      PROJKY.USER=PROJAD.USER;
      739     4861    1      CALL M$READ(RDPROJ)ALTRET(CHKLD);
PL6.E3A0      #004=FXU$PROJAD File=FXU$UTIL.:E05TSI                              TUE 07/29/97 20:35 Page:149
      740     4862    1      P_PCB.NCHARS=PROJREC.ATTRIBUTES.COUNT+12;
      741     4863    1      P_PCB.TEXT$=PINCRC(ADDR(PROJREC.ATTRIBUTES.TEXT),-12);
      742     4864    1      CALL INSERT(P_PCB.TEXT$->CHAR20,0,12,'M #',PROJKY.PSN,'.? ');
      743     4865    1      I=PROJAD.L;
      744     4866    1      PROJAD.L=0;
      745     4867    1      CALL X$PARSE(P_PCB);
      746     4868    1      PROJAD.L=I;
      747     4869    1      CALL FXP$PROJAT(P_PCB)ALTRET(NOPROJ);
      748     4870    1      CALL M$READ(RDPROJ)ALTRET(NOPROJ);
      749     4871    1      IF PROJAD.L=0 THEN PROJAD.L=PROJKY.L;
      750     4872    1      PROJAD.PSN=PROJKY.PSN;
      751     4873    1      RETURN;
      752     4874                    /**/
      753     4875    2   CHKLD: IF DCBADDR(DCBNUM(M$PROJ))->F$DCB.TYC.LD# THEN DO;
      754     4876    2         CALL M$GDS(FPT_GDS) ALTRET(NOPROJ);
      755     4877    2         CALL M$RETRY;
      756     4878    2         END;
      757     4879                    /**/
      758     4880    1   NOPROJ: IF PROJAD.L<=20 THEN PROJAD.PSN=' ';
      759     4881    1      IF NOT FLAG THEN FLAG=FXU$E$NOPROJ;
      760     4882                    /*E*      ERROR: FXU-E$NOPROJ
      761     4883                    *         MESSAGE:You may not administer that project.
      762     4884                    */
      763     4885    1      ALTRETURN;
      764     4886        %EJECT;
PL6.E3A0      #004=FXU$PROJAD File=FXU$UTIL.:E05TSI                              TUE 07/29/97 20:35 Page:150
      765     4887                    /*F*      NAME: FXU$PROJNA
      766     4888                    *         PURPOSE: Find next account in the project on the set.
      767     4889                    */
      768     4890    1   FXU$PROJNA: ENTRY(ACCT) ALTRET;
      769     4891    1      AC.C=ACCT;
      770     4892    1      CALL FINDACCT;
      771     4893    1      CALL M$DEQ(DEQUEUE);
      772     4894    1      IF AC.C=ACCTS.C(I) THEN I=I+1;
      773     4895    1      IF I=PROJREC.NUM_ACCTS THEN ALTRETURN;
      774     4896    1      ACCT=ACCTS.C(I);
      775     4897    1      RETURN;
      776     4898                    /**/
      777     4899                    /*F*      NAME: FXU$PROJAC
      778     4900                    *         PURPOSE: Check the account name in M$DP to be in the project
      779     4901                    *         or, if COMMAND is CREATE, that it conforms to the skeleton.
      780     4902                    */
      781     4903    1   FXU$PROJAC: ENTRY(ACCT) ALTRET;
      782     4904    1      AC.C=M$DP$->F$DCB.ACCT#;
      783     4905    1      CALL FINDACCT ALTRET(NOTHERE);
      784     4906    2      IF CODE.N=%E$CREATE THEN DO;
      785     4907    2         FLAG=FXU$E$PROJEX;
      786     4908    2         GOTO DEQALTRET;
      787     4909                    /*E*      ERROR:FXU-E$PROJEX
      788     4910                    *         MESSAGE:Cannot create, account %%AC %exists.
      789     4911                    */
      790     4912    2         END;
      791     4913    1   DEQRET:;
      792     4914    1      CALL M$DEQ(DEQUEUE);
      793     4915    1      RETURN;
      794     4916    1   NOTHERE:;
      795     4917    2      IF CODE.N~=%E$CREATE THEN DO;
      796     4918    2   ERRNA:FLAG=FXU$E$PROJNA;
      797     4919                    /*E*      ERROR:FXU-E$PROJNA
      798     4920                    *         MESSAGE:Account %%AC %is not in the project.
      799     4921                    */
      800     4922    2   DEQALTRET: CALL M$DEQ(DEQUEUE);
      801     4923    2         ALTRETURN;
PL6.E3A0      #004=FXU$PROJAD File=FXU$UTIL.:E05TSI                              TUE 07/29/97 20:35 Page:151
      802     4924    2         END;
      803     4925           %WILD_COMPARE(WILD_CHARS=PROJREC.SKELETON,
      804     4926           COMPARE_CHARS=AC.C,
      805     4927           WILD_X=J,WILD_XP=K,COMPARE_X=L,COMPARE_XP=M,
      806     4928           NO_MATCH=GOTO NOMATCH);
      807     4999    1      IF PROJREC.MAX_NUM_GRANS-PROJREC.GRANS_ACCUM<=0
      808     5000    2        OR PROJREC.NUM_ACCTS>=PROJREC.MAX_NUM_ACCTS THEN DO;
      809     5001    2   ERROVER: FLAG=FXU$E$PROJOVER;
      810     5002    2         GOTO DEQALTRET;
      811     5003    2         END;
      812     5004                    /*E*      ERROR:FXU-E$PROJOVER
      813     5005                    *         MESSAGE:Project has too few granules or accounts left.
      814     5006                    */
      815     5007    1      RETURN;  /* WAIT UNTIL PROJGR AND PROJWR TO WRITE AND DEQ */
      816     5008    1   NOMATCH:;
      817     5009    1      FLAG=FXU$E$PROJSK;
      818     5010    1      GOTO DEQALTRET;
      819     5011                    /*E*      ERROR:FXU-E$PROJSK
      820     5012                    *         MESSAGE:Account% %AC% doesn't match the skeleton.
      821     5013                    */
      822     5014        %EJECT;
PL6.E3A0      #004=FXU$PROJAD File=FXU$UTIL.:E05TSI                              TUE 07/29/97 20:35 Page:152
      823     5015                    /*F*      NAME: FXU$PROJWR
      824     5016                    *         PURPOSE: Write the record.
      825     5017                    */
      826     5018    1   FXU$PROJWR: ENTRY ALTRET;
      827     5019    1      CALL M$WRITE(WRPROJ)ALTRET(NOPROJ);
      828     5020    1      GOTO DEQRET;
      829     5021        %EJECT;
PL6.E3A0      #004=FXU$PROJAD File=FXU$UTIL.:E05TSI                              TUE 07/29/97 20:35 Page:153
      830     5022                    /*F*      NAME: FXU$PROJGR
      831     5023                    *         PURPOSE: Check that the account in M$DP.ACCT# can have
      832     5024                    *         a number of granules passed as a parameter.
      833     5025                    */
      834     5026    1   FXU$PROJGR: ENTRY(ACCT)ALTRET;
      835     5027    1      AC.C=M$DP$->F$DCB.ACCT#;
      836     5028    1      CALL FINDACCT ALTRET(NEWACCT);
      837     5029    1   GRCHK:;
      838     5030    1      J=CODE.N-ACCTS.GRANS(I);
      839     5031    1      PROJREC.GRANS_ACCUM=PROJREC.GRANS_ACCUM+J;
      840     5032    1      IF PROJREC.GRANS_ACCUM>PROJREC.MAX_NUM_GRANS THEN GOTO ERROVER;
      841     5033    1      ACCTS.GRANS(I)=CODE.N;
      842     5034    1      RETURN;  /* WAIT UNTIL PROJWR TO WRITE AND DEQ */
      843     5035                    /**/
      844     5036    1   NEWACCT: M=I;
      845     5037    1      AC.GRANS=0;
      846     5038    1      PROJREC.NUM_ACCTS=PROJREC.NUM_ACCTS+1;
      847     5039    2      DO WHILE(M<PROJREC.NUM_ACCTS);
      848     5040    2         ADDR(J)->ACCTS(0)=ACCTS(M);
      849     5041    2         ACCTS(M)=AC;
      850     5042    2         AC=ADDR(J)->ACCTS(0);
      851     5043    2         M=M+1;
      852     5044    2         END;
      853     5045    1      GOTO GRCHK;
      854     5046        %EJECT;
PL6.E3A0      #004=FXU$PROJAD File=FXU$UTIL.:E05TSI                              TUE 07/29/97 20:35 Page:154
      855     5047                    /*F*      NAME: FXU$PROJDA
      856     5048                    *         PURPOSE: Delete an account from a :PROJ record.
      857     5049                    */
      858     5050    1   FXU$PROJDA: ENTRY(ACCT)ALTRET;
      859     5051    1      AC.C=ACCT;
      860     5052    1      CALL FINDACCT ALTRET(ERRNA);
      861     5053    1      PROJREC.GRANS_ACCUM=PROJREC.GRANS_ACCUM-ACCTS.GRANS(I);
      862     5054    1      PROJREC.NUM_ACCTS=PROJREC.NUM_ACCTS-1;
      863     5055    2      DO WHILE(I<PROJREC.NUM_ACCTS);
      864     5056    2         ACCTS(I)=ACCTS(I+1);
      865     5057    2         I=I+1;
      866     5058    2         END;
      867     5059    1      RETURN;
      868     5060        %EJECT;
PL6.E3A0      #004=FXU$PROJAD File=FXU$UTIL.:E05TSI                              TUE 07/29/97 20:35 Page:155
      869     5061    1   FINDACCT: PROC ALTRET;
      870     5062    2      CALL M$ENQ(ENQUEUE)ALTRET(ENQERR);
      871     5063    2      PROJREC='0'B;
      872     5064    2      I=0;
      873     5065    2      IF PROJAD.PSN~=' ' THEN CALL M$READ(RDPROJ) ALTRET(CHKLD);
      874     5066    2   DGAS4: ACCT$=PINCRW(ADDR(PROJREC),SIZEW(PROJREC));
      875     5067    2      WRPROJ.BUF_=RDPROJ.BUF_;
      876     5068    2      IF PROJREC.MAX_NUM_ACCTS>50000 THEN PROJREC.MAX_NUM_ACCTS=50000;
      877     5069    2      IF PROJREC.NUM_ACCTS>(RDPROJ.BUF_.BOUND-SIZEV(PROJREC))/SIZEC(ACCTS(0))
      878     5070    2      THEN PROJREC.NUM_ACCTS=(RDPROJ.BUF_.BOUND-SIZEV(PROJREC))/SIZEC(ACCTS(0));
      879     5071    2      WRPROJ.BUF_.BOUND=POFFC(ADDR(ACCTS(PROJREC.MAX_NUM_ACCTS)),ADDR(PROJREC))-1;
      880     5072    3      IF PROJREC.MAX_NUM_ACCTS-PROJREC.NUM_ACCTS>2048/SIZEW(ACCTS(0)) THEN DO;
      881     5073    3         WRPROJ.BUF_.BOUND=SIZEV(PROJREC)+SIZEC(ACCTS(0))*(PROJREC.NUM_ACCTS+5);
      882     5074    3         IF WRPROJ.BUF_.BOUND<8191 THEN WRPROJ.BUF_.BOUND=8191;
      883     5075    3         ELSE IF WRPROJ.BUF_.BOUND>RDPROJ.BUF_.BOUND
      884     5076    3         THEN WRPROJ.BUF_.BOUND=RDPROJ.BUF_.BOUND+8192;
      885     5077    3         END;
      886     5078    3      DO WHILE(RDPROJ.BUF_<WRPROJ.BUF_);
      887     5079    3         CALL M$GDS(FPT_GDS) ALTRET(ENQERR);
      888     5080    3         END;
      889     5081    3      DO WHILE(I<PROJREC.NUM_ACCTS AND AC.C>=ACCTS.C(I));
      890     5082    3         IF AC.C=ACCTS.C(I) THEN RETURN;
      891     5083    3         I=I+1;
      892     5084    3         END;
      893     5085    2   ENQERR:;
      894     5086    2      ALTRETURN;
      895     5087    3   CHKLD: IF DCBADDR(DCBNUM(M$PROJ))->F$DCB.TYC.LD# THEN DO;
      896     5088    3         CALL M$GDS(FPT_GDS) ALTRET(DGAS4);
      897     5089    3         CALL M$RETRY;
      898     5090    3         END;
      899     5091    2      GOTO DGAS4;
      900     5092    2   END FINDACCT;
      901     5093    1   END;

PL6.E3A0      #004=FXU$PROJAD File=FXU$UTIL.:E05TSI                              TUE 07/29/97 20:35 Page:156
--  Include file information  --

   FM$MACROS.:E05TOU  is referenced.
   XU_MACRO_C.:E05TOU  is referenced.
   AS_SUPER_C.:E05TOU  is referenced.
   FX_PERR_C.:E05TOU  is referenced.
   F$JIT_C.:E05TOU  cannot be made into a system file and is referenced.
   CP_6.:E05TOU  cannot be made into a system file and is referenced.
   B$JIT_C.:E05TOU  was found in the system file and is referenced.
   CP_6_C.:E05TOU  was found in the system file and is referenced.
      No diagnostics issued in procedure FXU$PROJAD.

   Procedure FXU$PROJAD requires 647 words for executable code.
   Procedure FXU$PROJAD requires 18 words of local(AUTO) storage.

    No errors detected in file FXU$UTIL.:E05TSI    .

PL6.E3A0      #004=FXU$PROJAD File=FXU$UTIL.:E05TSI                              TUE 07/29/97 20:35 Page:157

 Object Unit name= FXU$PROJAD                                 File name= FXU$UTIL.:E05TOU
 UTS= JUL 29 '97 20:35:32.40 TUE                              Compiler= PL-6/E31         Sev=      00
 SharedLib= :SHARED_SYSTEM                                    Alt SharedLib=


    ****  Control sections  ****

 Sect   Type Bound  Init  Size OctSiz  Section name(segment info)
    0   DCB   even  none     0      0  M$UC
    1   Data  even  none    58     72  FXU$PROJAD
    2   DCB   even  none     0      0  M$PROJ
    3  RoData even  UTS     97    141  FXU$PROJAD
    4   Proc  even  none   647   1207  FXU$PROJAD
    5  RoData even  none     5      5  FXU$PROJAD

    ****  Entry defs  ****

                              Check   Calling
                             calling  sequence
  Sect OctLoc Primary Altret sequence   type   Parms  Name
     4      0   yes    yes     yes      Std        1  FXU$PROJAD
     4    320          yes     yes      Std        1  FXU$PROJNA
     4    361          yes     yes      Std        1  FXU$PROJAC
     4    550          yes     yes      Std        0  FXU$PROJWR
     4    557          yes     yes      Std        1  FXU$PROJGR
     4    650          yes     yes      Std        1  FXU$PROJDA

  ****  Data defs  ****

 Sect OctLoc  Name                           Sect OctLoc  Name
    3     74  SYS_ACCT
PL6.E3A0      #004=FXU$PROJAD File=FXU$UTIL.:E05TSI                              TUE 07/29/97 20:35 Page:158

  ****  Entry refs  ****

         Check        Calling
        calling       sequence
Altret sequence SRef   type   Args  Name
         yes           Std       1 FXP$POPTS
 yes     yes           Std       1 X$PARSE
 yes     yes           Std       1 FXP$PROJAT
                       nStd      0 X66_AUTO_1
                       Std       0 B_CONSPOOL_D
                       nStd      0 X66_ARET
                       nStd      0 X66_AALT

  ****  Data refs  ****

  Flags:  r = read only, s = secondary
Flgs Name                             Flgs Name                             Flgs Name
     M$UC                                  B$JIT$                                PROJAD
     M$PROJ                                M$DP$                                 CSTAT
     FXN$CMD                               FLAG                                  B_VECTNIL

  ****  Segment refs  ****

  Flags:  r = read only, s = secondary
Flgs Name                             Flgs Name                             Flgs Name
     ISSID                                 NULLSID                               ROSID
PL6.E3A0      #004=FXU$PROJAD File=FXU$UTIL.:E05TSI                              TUE 07/29/97 20:35 Page:159


      630        1        /*T***********************************************************/
      631        2        /*T*                                                         */
      632        3        /*T* Copyright (c) Bull HN Information Systems Inc., 1997    */
      633        4        /*T*                                                         */
      634        5        /*T***********************************************************/
      635        6                    /*F*      NAME: FXU$PROJAD
      636        7                    *         PURPOSE: Mess with the :PROJ file..check MAKEME command,
      637        8                    *         packset specification, account name, next account, etc.
      638        9                    */
      639       10        FXU$PROJAD: PROC(ACCT)ALTRET;

     10  4 000000   000000 700200 xent  FXU$PROJAD   TSX0  ! X66_AUTO_1
         4 000001   000022 000001                    ZERO    18,1

      640       11    1   DCL ACCT CHAR(8); /* PARAMETER FOR NEXT ACCOUNT */
      641       12    1   DCL 1 CODE REDEF ACCT,
      642       13    1         2 N UBIN, /* PARAMETER FOR CHECK ACCOUNT NAME */
      643       14    1         2 * UBIN;
      644       15        %INCLUDE CP_6;
      645       96        %INCLUDE F$JIT_C;
      646      213    1   DCL B$JIT$ PTR SYMREF;
      647      214        %INCLUDE FX_PERR_C;
      648      273        %INCLUDE AS_SUPER_C;
      649      708        %INCLUDE XU_MACRO_C;
      650     3814        %INCLUDE FM$MACROS;
      651     4189    1   DCL 1 PROJAD SYMREF,
      652     4190    1         2 L UBIN(9)UNAL,
      653     4191    1         2 USER CHAR(20),
      654     4192    1         2 PSN CHAR(6);
      655     4193    1   DCL 1 PROJKY STATIC,
      656     4194    1         2 L UBIN(9)UNAL,
      657     4195    1         2 USER CHAR(20),
      658     4196    1         2 PSN CHAR(6);
      659     4197    1   DCL CHAR20 CHAR(20) BASED;
      660     4198    1   DCL M$PROJ DCB;
      661     4199        %FPT_OPEN(STCLASS=CONSTANT,DCB=M$PROJ,ASN=FILE,SCRUB=YES,NAME=PROJN,
PL6.E3A0      #004=FXU$PROJAD File=FXU$UTIL.:E05TSI                              TUE 07/29/97 20:35 Page:160
      662     4200                  ACCT=SYS_ACCT,FUN=UPDATE,SHARE=ALL);
      663     4309        %VLP_NAME(FPTN=PROJN,NAME=':PROJ',STCLASS=CONSTANT);
      664     4336        %VLP_ACCT(FPTN=SYS_ACCT,ACCT=':SYS',STCLASS=CONSTANT SYMDEF);
      665     4349        %FPT_READ(FPTN=RDPROJ,KEYS=YES,KEY=PROJKY,DCB=M$PROJ);
      666     4388        %FPT_PRECORD(FPTN=PREC,DCB=M$PROJ,KEYS=YES,KEYR=YES,KEY=PROJKY);
      667     4409        %FPT_WRITE(FPTN=WRPROJ,DCB=M$PROJ,KEY=PROJKY);
      668     4440        %FPT_ENQ(FPTN=ENQUEUE,STCLASS=CONSTANT,DCB=M$PROJ,RNAME=PROJKY,SHARE=NONE);
      669     4458        %FPT_DEQ(FPTN=DEQUEUE,STCLASS=CONSTANT,DCB=M$PROJ);
      670     4475        %FPT_GDS(RESULTS=RDPROJ.BUF_,SEGSIZE=1024,STCLASS=CONSTANT);
      671     4491        %AS$PROJ(NAME=PROJREC,STCLASS="BASED(RDPROJ.BUF_.BUF$)");
      672     4525    1   DCL 1 ACCTS(0:0)BASED(ACCT$),
      673     4526    1         2 C CHAR(8),
      674     4527    1         2 GRANS UBIN;
      675     4528        %F$DCB;
      676     4585    1   DCL M$DP$ PTR SYMREF;
      677     4586        %P_PCB(W=CSTAT,WSZ=1024,R=FXN$CMD,STCLASS=STATIC,U$=FXP$POPTS);
      678     4785    1   DCL X$PARSE ENTRY(1) ALTRET;
      679     4786    1   DCL FXP$POPTS ENTRY(1);
      680     4787    1   DCL CSTAT UBIN SYMREF;
      681     4788    1   DCL FXN$CMD UBIN SYMREF;
      682     4789    1   DCL FXP$PROJAT ENTRY(1) ALTRET;
      683     4790        %SUB FCG#='0630'O;
      684     4791        %SUB MID#='25'O;
      685     4792        %ERRCODE(NAME=FXU$E$NOPROJ,COD#=%E$NOPROJ,SEV#=7);
      686     4796        %ERRCODE(NAME=FXU$E$PROJNA,COD#=%E$PROJNA,SEV#=7);
      687     4800        %ERRCODE(NAME=FXU$E$PROJOVER,COD#=%E$PROJOVER,SEV#=7);
      688     4804        %ERRCODE(NAME=FXU$E$PROJEX,COD#=%E$PROJEX,SEV#=7);
      689     4808        %ERRCODE(NAME=FXU$E$PROJSK,COD#=%E$PROJSK,SEV#=7);
      690     4812    1   DCL FLAG BIT(36) SYMREF;
      691     4813                    /* AUTO FRAME */
      692     4814    1   DCL ACCT$ PTR;
      693     4815    1   DCL I UBIN;
      694     4816    1   DCL J UBIN;
      695     4817    1   DCL WILD_XC REDEF J CHAR(4);
      696     4818    1   DCL K UBIN;
      697     4819    1   DCL L UBIN;
      698     4820    1   DCL M UBIN;
PL6.E3A0      #004=FXU$PROJAD File=FXU$UTIL.:E05TSI                              TUE 07/29/97 20:35 Page:161
      699     4821    1   DCL 1 AC,
      700     4822    1         2 C CHAR(8),
      701     4823    1         2 GRANS UBIN;
      702     4824        %EJECT;
PL6.E3A0      #004=FXU$PROJAD File=FXU$UTIL.:E05TSI                              TUE 07/29/97 20:35 Page:162
      703     4825    1      FLAG='0'B;

   4825  4 000002   000000 450000 xsym               STZ     FLAG

      704     4826    1      IF NOT DCBADDR(DCBNUM(M$PROJ))->F$DCB.FCD#

   4826  4 000003   000000 236007 xsym               LDQ     M$PROJ,DL
         4 000004   000000 470400 5                  LDP0    0
         4 000005   000000 471500                    LDP1    0,,PR0
         4 000006   100000 473506                    LDP3    0,QL,PR1
         4 000007   300031 236100                    LDQ     25,,PR3
         4 000010   020000 316007                    CANQ    8192,DL
         4 000011   000016 601000 4                  TNZ     s:4828

      705     4827    1      THEN CALL M$OPEN(FPT_OPEN)ALTRET(NOPROJ);

   4827  4 000012   000000 630400 3                  EPPR0   FPT_OPEN
         4 000013   450000 713400                    CLIMB   alt,open
         4 000014   410400 401760                    pmme    nvectors=18
         4 000015   000304 702000 4                  TSX2    NOPROJ

      706     4828    1      CALL INDEX1(I,' ',SUBSTR(PROJAD.USER,8));

   4828  4 000016   000000 124400                    SCM     mask='000'O
         4 000017   000002 200014 xsym               ADSC9   PROJAD+2                 cn=1,n=12
         4 000020   000035 000001 xsym               ADSC9   B_VECTNIL+29             cn=0,n=1
         4 000021   200005 000100                    ARG     I,,AUTO

      707     4829    2      IF ADDR(ACCT)=ADDR(NIL) THEN DO;

   4829  4 000022   200003 236100                    LDQ     @ACCT,,AUTO
         4 000023   000001 116000 xsym               CMPQ    B_VECTNIL+1
         4 000024   000114 601000 4                  TNZ     s:4849

      708     4830    2         PROJAD.PSN=' ';

   4830  4 000025   040000 100400                    MLR     fill='040'O
PL6.E3A0      #004=FXU$PROJAD File=FXU$UTIL.:E05TSI                              TUE 07/29/97 20:35 Page:163
         4 000026   000035 000001 xsym               ADSC9   B_VECTNIL+29             cn=0,n=1
         4 000027   000005 200006 xsym               ADSC9   PROJAD+5                 cn=1,n=6

      709     4831    2         PROJKY=PROJAD;

   4831  4 000030   000000 100400                    MLR     fill='000'O
         4 000031   000000 000033 xsym               ADSC9   PROJAD                   cn=0,n=27
         4 000032   000000 000033 1                  ADSC9   PROJKY                   cn=0,n=27

      710     4832    2         PROJKY.L=I+8;

   4832  4 000033   200005 236100                    LDQ     I,,AUTO
         4 000034   000010 036007                    ADLQ    8,DL
         4 000035   000033 736000                    QLS     27
         4 000036   000000 552040 1                  STBQ    PROJKY,'40'O

      711     4833    2         PROJAD.L=0;

   4833  4 000037   000000 236003                    LDQ     0,DU
         4 000040   000000 552040 xsym               STBQ    PROJAD,'40'O

      712     4834    2         PREC.V.N#=0;

   4834  4 000041   000035 450000 1                  STZ     PREC+7

      713     4835    2         CALL M$PRECORD(PREC)ALTRET(DGAS1);

   4835  4 000042   000026 630400 1                  EPPR0   PREC
         4 000043   440003 713400                    CLIMB   alt,+16387
         4 000044   401000 401760                    pmme    nvectors=3
         4 000045   000046 702000 4                  TSX2    DGAS1

      714     4836    2   DGAS1:IF PROJAD.USER~=PROJKY.USER OR PROJKY.L=0 THEN GOTO NOPROJ;

   4836  4 000046   040000 106400       DGAS1        CMPC    fill='040'O
         4 000047   000000 200024 xsym               ADSC9   PROJAD                   cn=1,n=20
         4 000050   000000 200024 1                  ADSC9   PROJKY                   cn=1,n=20
PL6.E3A0      #004=FXU$PROJAD File=FXU$UTIL.:E05TSI                              TUE 07/29/97 20:35 Page:164
         4 000051   000304 601000 4                  TNZ     NOPROJ
         4 000052   000000 236000 1                  LDQ     PROJKY
         4 000053   777000 316003                    CANQ    -512,DU
         4 000054   000304 600000 4                  TZE     NOPROJ

      715     4837    2         PREC.V.N#=1;

   4837  4 000055   000001 235007                    LDA     1,DL
         4 000056   000035 755000 1                  STA     PREC+7

      716     4838    2         CALL M$PRECORD(PREC)ALTRET(DGAS2);

   4838  4 000057   000026 630400 1                  EPPR0   PREC
         4 000060   440003 713400                    CLIMB   alt,+16387
         4 000061   401000 401760                    pmme    nvectors=3
         4 000062   000077 702000 4                  TSX2    DGAS2

      717     4839    3         IF PROJKY.L~=0 AND PROJKY.USER=PROJAD.USER THEN DO;

   4839  4 000063   000000 236000 1                  LDQ     PROJKY
         4 000064   777000 316003                    CANQ    -512,DU
         4 000065   000077 600000 4                  TZE     DGAS2
         4 000066   040000 106400                    CMPC    fill='040'O
         4 000067   000000 200024 1                  ADSC9   PROJKY                   cn=1,n=20
         4 000070   000000 200024 xsym               ADSC9   PROJAD                   cn=1,n=20
         4 000071   000077 601000 4                  TNZ     DGAS2

      718     4840    3            PROJAD.L=I+8;

   4840  4 000072   200005 236100                    LDQ     I,,AUTO
         4 000073   000010 036007                    ADLQ    8,DL
         4 000074   000033 736000                    QLS     27
         4 000075   000000 552040 xsym               STBQ    PROJAD,'40'O

      719     4841    3            RETURN;

   4841  4 000076   000000 702200 xent               TSX2  ! X66_ARET
PL6.E3A0      #004=FXU$PROJAD File=FXU$UTIL.:E05TSI                              TUE 07/29/97 20:35 Page:165

      720     4842    3            END;
      721     4843    2   DGAS2:PREC.V.N#=0;

   4843  4 000077   000035 450000 1     DGAS2        STZ     PREC+7

      722     4844    2         PROJKY=PROJAD;

   4844  4 000100   000000 100400                    MLR     fill='000'O
         4 000101   000000 000033 xsym               ADSC9   PROJAD                   cn=0,n=27
         4 000102   000000 000033 1                  ADSC9   PROJKY                   cn=0,n=27

      723     4845    2         PROJKY.L=I+8;

   4845  4 000103   200005 236100                    LDQ     I,,AUTO
         4 000104   000010 036007                    ADLQ    8,DL
         4 000105   000033 736000                    QLS     27
         4 000106   000000 552040 1                  STBQ    PROJKY,'40'O

      724     4846    2         CALL M$PRECORD(PREC)ALTRET(DGAS3);

   4846  4 000107   000026 630400 1                  EPPR0   PREC
         4 000110   440003 713400                    CLIMB   alt,+16387
         4 000111   401000 401760                    pmme    nvectors=3
         4 000112   000134 702000 4                  TSX2    DGAS3

      725     4847    2         END;

   4847  4 000113   000134 710000 4                  TRA     DGAS3

      726     4848    2      ELSE DO;

      727     4849    2         IF PROJAD.L>20 THEN GOTO NOPROJ;

   4849  4 000114   000000 236000 xsym               LDQ     PROJAD
         4 000115   777000 376003                    ANQ     -512,DU
         4 000116   025000 116003                    CMPQ    10752,DU
PL6.E3A0      #004=FXU$PROJAD File=FXU$UTIL.:E05TSI                              TUE 07/29/97 20:35 Page:166
         4 000117   000304 603000 4                  TRC     NOPROJ

      728     4850    2         PROJKY.PSN=SUBSTR(ACCT,1,ASCBIN(SUBSTR(ACCT,0,1)));

   4850  4 000120   200003 470500                    LDP0    @ACCT,,AUTO
         4 000121   000000 236100                    LDQ     0,,PR0
         4 000122   000033 772000                    QRL     27
         4 000123   000000 620006                    EAX0    0,QL
         4 000124   040000 100540                    MLR     fill='040'O
         4 000125   000000 200010                    ADSC9   0,,PR0                   cn=1,n=*X0
         4 000126   000005 200006 1                  ADSC9   PROJKY+5                 cn=1,n=6

      729     4851    2         PROJKY.L=ASCBIN(SUBSTR(ACCT,0,1))+20;

   4851  4 000127   000000 236100                    LDQ     0,,PR0
         4 000130   000033 772000                    QRL     27
         4 000131   000024 036007                    ADLQ    20,DL
         4 000132   000033 736000                    QLS     27
         4 000133   000000 552040 1                  STBQ    PROJKY,'40'O

      730     4852    2         END;

      731     4853    1   DGAS3: IF RDPROJ.BUF_.BUF$=ADDR(NIL) THEN CALL M$GDS(FPT_GDS);

   4853  4 000134   000015 236000 1     DGAS3        LDQ     RDPROJ+5
         4 000135   000001 116000 xsym               CMPQ    B_VECTNIL+1
         4 000136   000142 601000 4                  TNZ     s:4854

   4853  4 000137   000120 630400 3                  EPPR0   FPT_GDS
         4 000140   030001 713400                    CLIMB   gds
         4 000141   400400 401760                    pmme    nvectors=2

      732     4854    2      DO WHILE(PROJKY.USER~=' ' AND PROJKY.USER~=ADDR(B$JIT.ACCN)->CHAR20);

   4854  4 000142   000153 710000 4                  TRA     s:4857

      733     4855    2         CALL M$READ(RDPROJ) ALTRET(CHKLD);
PL6.E3A0      #004=FXU$PROJAD File=FXU$UTIL.:E05TSI                              TUE 07/29/97 20:35 Page:167

   4855  4 000143   000010 630400 1                  EPPR0   RDPROJ
         4 000144   440000 713400                    CLIMB   alt,read
         4 000145   401400 401760                    pmme    nvectors=4
         4 000146   000267 702000 4                  TSX2    CHKLD

      734     4856    2         PROJKY.USER=PROJREC.CREATOR;

   4856  4 000147   000015 470400 1                  LDP0    RDPROJ+5
         4 000150   040000 100500                    MLR     fill='040'O
         4 000151   000000 000024                    ADSC9   0,,PR0                   cn=0,n=20
         4 000152   000000 200024 1                  ADSC9   PROJKY                   cn=1,n=20

      735     4857    2         END;

   4857  4 000153   040000 106400                    CMPC    fill='040'O
         4 000154   000000 200024 1                  ADSC9   PROJKY                   cn=1,n=20
         4 000155   000035 000001 xsym               ADSC9   B_VECTNIL+29             cn=0,n=1
         4 000156   000164 600000 4                  TZE     s:4858
         4 000157   000000 470400 xsym               LDP0    B$JIT$
         4 000160   040100 106400                    CMPC    fill='040'O
         4 000161   000000 200024 1                  ADSC9   PROJKY                   cn=1,n=20
         4 000162   000001 000024                    ADSC9   1,,PR0                   cn=0,n=20
         4 000163   000143 601000 4                  TNZ     s:4855

      736     4858    1      IF PROJKY.USER=' ' AND NOT B$JIT.PPRIV&%(PPR_PIGC#|PPR_SUPER#)

   4858  4 000164   040000 106400                    CMPC    fill='040'O
         4 000165   000000 200024 1                  ADSC9   PROJKY                   cn=1,n=20
         4 000166   000035 000001 xsym               ADSC9   B_VECTNIL+29             cn=0,n=1
         4 000167   000177 601000 4                  TNZ     s:4860
         4 000170   000000 470400 xsym               LDP0    B$JIT$
         4 000171   000020 236100                    LDQ     16,,PR0
         4 000172   000133 376000 3                  ANQ     FXU$E$PROJSK+1
         4 000173   000177 601000 4                  TNZ     s:4860
         4 000174   000014 236100                    LDQ     12,,PR0
         4 000175   000134 376000 3                  ANQ     FXU$E$PROJSK+2
PL6.E3A0      #004=FXU$PROJAD File=FXU$UTIL.:E05TSI                              TUE 07/29/97 20:35 Page:168
         4 000176   000304 600000 4                  TZE     NOPROJ

      737     4859    1        AND NOT B$JIT.PRIV.AUTH&%(PR_FMSEC#|PR_FMDIAG#) THEN GOTO NOPROJ;
      738     4860    1      PROJKY.USER=PROJAD.USER;

   4860  4 000177   040000 100400                    MLR     fill='040'O
         4 000200   000000 200024 xsym               ADSC9   PROJAD                   cn=1,n=20
         4 000201   000000 200024 1                  ADSC9   PROJKY                   cn=1,n=20

      739     4861    1      CALL M$READ(RDPROJ)ALTRET(CHKLD);

   4861  4 000202   000010 630400 1                  EPPR0   RDPROJ
         4 000203   440000 713400                    CLIMB   alt,read
         4 000204   401400 401760                    pmme    nvectors=4
         4 000205   000267 702000 4                  TSX2    CHKLD

      740     4862    1      P_PCB.NCHARS=PROJREC.ATTRIBUTES.COUNT+12;

   4862  4 000206   000015 470400 1                  LDP0    RDPROJ+5
         4 000207   000014 236100                    LDQ     12,,PR0
         4 000210   000022 772000                    QRL     18
         4 000211   000014 036007                    ADLQ    12,DL
         4 000212   000065 756000 1                  STQ     P_PCB+9

      741     4863    1      P_PCB.TEXT$=PINCRC(ADDR(PROJREC.ATTRIBUTES.TEXT),-12);

   4863  4 000213   000015 236000 1                  LDQ     RDPROJ+5
         4 000214   000001 036000 5                  ADLQ    1
         4 000215   000054 756000 1                  STQ     P_PCB

      742     4864    1      CALL INSERT(P_PCB.TEXT$->CHAR20,0,12,'M #',PROJKY.PSN,'.? ');

   4864  4 000216   000054 471400 1                  LDP1    P_PCB
         4 000217   040100 100400                    MLR     fill='040'O
         4 000220   000135 000003 3                  ADSC9   FXU$E$PROJSK+3           cn=0,n=3
         4 000221   100000 000003                    ADSC9   0,,PR1                   cn=0,n=3
         4 000222   000054 470400 1                  LDP0    P_PCB
PL6.E3A0      #004=FXU$PROJAD File=FXU$UTIL.:E05TSI                              TUE 07/29/97 20:35 Page:169
         4 000223   040100 100400                    MLR     fill='040'O
         4 000224   000005 200006 1                  ADSC9   PROJKY+5                 cn=1,n=6
         4 000225   000000 600006                    ADSC9   0,,PR0                   cn=3,n=6
         4 000226   000054 470400 1                  LDP0    P_PCB
         4 000227   040100 100400                    MLR     fill='040'O
         4 000230   000136 000003 3                  ADSC9   FXU$E$PROJSK+4           cn=0,n=3
         4 000231   000002 200003                    ADSC9   2,,PR0                   cn=1,n=3

      743     4865    1      I=PROJAD.L;

   4865  4 000232   000000 236000 xsym               LDQ     PROJAD
         4 000233   000033 772000                    QRL     27
         4 000234   200005 756100                    STQ     I,,AUTO

      744     4866    1      PROJAD.L=0;

   4866  4 000235   000000 236003                    LDQ     0,DU
         4 000236   000000 552040 xsym               STBQ    PROJAD,'40'O

      745     4867    1      CALL X$PARSE(P_PCB);

   4867  4 000237   000002 630400 5                  EPPR0   2
         4 000240   000017 631400 xsym               EPPR1   B_VECTNIL+15
         4 000241   000000 701000 xent               TSX1    X$PARSE
         4 000242   000000 011000                    NOP     0

      746     4868    1      PROJAD.L=I;

   4868  4 000243   200005 236100                    LDQ     I,,AUTO
         4 000244   000033 736000                    QLS     27
         4 000245   000000 552040 xsym               STBQ    PROJAD,'40'O

      747     4869    1      CALL FXP$PROJAT(P_PCB)ALTRET(NOPROJ);

   4869  4 000246   000002 630400 5                  EPPR0   2
         4 000247   000017 631400 xsym               EPPR1   B_VECTNIL+15
         4 000250   000000 701000 xent               TSX1    FXP$PROJAT
PL6.E3A0      #004=FXU$PROJAD File=FXU$UTIL.:E05TSI                              TUE 07/29/97 20:35 Page:170
         4 000251   000304 702000 4                  TSX2    NOPROJ

      748     4870    1      CALL M$READ(RDPROJ)ALTRET(NOPROJ);

   4870  4 000252   000010 630400 1                  EPPR0   RDPROJ
         4 000253   440000 713400                    CLIMB   alt,read
         4 000254   401400 401760                    pmme    nvectors=4
         4 000255   000304 702000 4                  TSX2    NOPROJ

      749     4871    1      IF PROJAD.L=0 THEN PROJAD.L=PROJKY.L;

   4871  4 000256   000000 236000 xsym               LDQ     PROJAD
         4 000257   777000 316003                    CANQ    -512,DU
         4 000260   000263 601000 4                  TNZ     s:4872

   4871  4 000261   000000 236000 1                  LDQ     PROJKY
         4 000262   000000 552040 xsym               STBQ    PROJAD,'40'O

      750     4872    1      PROJAD.PSN=PROJKY.PSN;

   4872  4 000263   040000 100400                    MLR     fill='040'O
         4 000264   000005 200006 1                  ADSC9   PROJKY+5                 cn=1,n=6
         4 000265   000005 200006 xsym               ADSC9   PROJAD+5                 cn=1,n=6

      751     4873    1      RETURN;

   4873  4 000266   000000 702200 xent               TSX2  ! X66_ARET

      752     4874                    /**/
      753     4875    2   CHKLD: IF DCBADDR(DCBNUM(M$PROJ))->F$DCB.TYC.LD# THEN DO;

   4875  4 000267   000000 236007 xsym  CHKLD        LDQ     M$PROJ,DL
         4 000270   000000 470400 5                  LDP0    0
         4 000271   000000 471500                    LDP1    0,,PR0
         4 000272   100000 473506                    LDP3    0,QL,PR1
         4 000273   300002 236100                    LDQ     2,,PR3
         4 000274   002000 316003                    CANQ    1024,DU
PL6.E3A0      #004=FXU$PROJAD File=FXU$UTIL.:E05TSI                              TUE 07/29/97 20:35 Page:171
         4 000275   000304 600000 4                  TZE     NOPROJ

      754     4876    2         CALL M$GDS(FPT_GDS) ALTRET(NOPROJ);

   4876  4 000276   000120 630400 3                  EPPR0   FPT_GDS
         4 000277   430001 713400                    CLIMB   alt,gds
         4 000300   400400 401760                    pmme    nvectors=2
         4 000301   000304 702000 4                  TSX2    NOPROJ

      755     4877    2         CALL M$RETRY;

   4877  4 000302   010010 713400                    CLIMB   4104
         4 000303   000000 401760                    pmme    nvectors=0

      756     4878    2         END;

      757     4879                    /**/
      758     4880    1   NOPROJ: IF PROJAD.L<=20 THEN PROJAD.PSN=' ';

   4880  4 000304   000000 236000 xsym  NOPROJ       LDQ     PROJAD
         4 000305   777000 376003                    ANQ     -512,DU
         4 000306   025000 116003                    CMPQ    10752,DU
         4 000307   000313 603000 4                  TRC     s:4881

   4880  4 000310   040000 100400                    MLR     fill='040'O
         4 000311   000035 000001 xsym               ADSC9   B_VECTNIL+29             cn=0,n=1
         4 000312   000005 200006 xsym               ADSC9   PROJAD+5                 cn=1,n=6

      759     4881    1      IF NOT FLAG THEN FLAG=FXU$E$NOPROJ;

   4881  4 000313   000000 235000 xsym               LDA     FLAG
         4 000314   000317 601000 4                  TNZ     s:4885

   4881  4 000315   000126 236000 3                  LDQ     FXU$E$NOPROJ
         4 000316   000000 756000 xsym               STQ     FLAG

      760     4882                    /*E*      ERROR: FXU-E$NOPROJ
PL6.E3A0      #004=FXU$PROJAD File=FXU$UTIL.:E05TSI                              TUE 07/29/97 20:35 Page:172
      761     4883                    *         MESSAGE:You may not administer that project.
      762     4884                    */
      763     4885    1      ALTRETURN;

   4885  4 000317   000000 702200 xent               TSX2  ! X66_AALT

      764     4886        %EJECT;
PL6.E3A0      #004=FXU$PROJAD File=FXU$UTIL.:E05TSI                              TUE 07/29/97 20:35 Page:173
      765     4887                    /*F*      NAME: FXU$PROJNA
      766     4888                    *         PURPOSE: Find next account in the project on the set.
      767     4889                    */
      768     4890    1   FXU$PROJNA: ENTRY(ACCT) ALTRET;

   4890  4 000320   000000 700200 xent  FXU$PROJNA   TSX0  ! X66_AUTO_1
         4 000321   000022 000001                    ZERO    18,1

      769     4891    1      AC.C=ACCT;

   4891  4 000322   200003 470500                    LDP0    @ACCT,,AUTO
         4 000323   040100 100500                    MLR     fill='040'O
         4 000324   000000 000010                    ADSC9   0,,PR0                   cn=0,n=8
         4 000325   200012 000010                    ADSC9   AC,,AUTO                 cn=0,n=8

      770     4892    1      CALL FINDACCT;

   4892  4 000326   000717 701000 4                  TSX1    FINDACCT
         4 000327   000000 011000                    NOP     0

      771     4893    1      CALL M$DEQ(DEQUEUE);

   4893  4 000330   000110 630400 3                  EPPR0   DEQUEUE
         4 000331   020003 713400                    CLIMB   8195
         4 000332   401000 401760                    pmme    nvectors=3

      772     4894    1      IF AC.C=ACCTS.C(I) THEN I=I+1;

   4894  4 000333   200005 236100                    LDQ     I,,AUTO
         4 000334   000014 402007                    MPY     12,DL
         4 000335   200004 470500                    LDP0    ACCT$,,AUTO
         4 000336   040106 106500                    CMPC    fill='040'O
         4 000337   200012 000010                    ADSC9   AC,,AUTO                 cn=0,n=8
         4 000340   000000 000010                    ADSC9   0,Q,PR0                  cn=0,n=8
         4 000341   000345 601000 4                  TNZ     s:4895

   4894  4 000342   200005 235100                    LDA     I,,AUTO
PL6.E3A0      #004=FXU$PROJAD File=FXU$UTIL.:E05TSI                              TUE 07/29/97 20:35 Page:174
         4 000343   000001 035007                    ADLA    1,DL
         4 000344   200005 755100                    STA     I,,AUTO

      773     4895    1      IF I=PROJREC.NUM_ACCTS THEN ALTRETURN;

   4895  4 000345   000015 471400 1                  LDP1    RDPROJ+5
         4 000346   200005 236100                    LDQ     I,,AUTO
         4 000347   000353 604000 4                  TMI     s:4896
         4 000350   100013 116100                    CMPQ    11,,PR1
         4 000351   000353 601000 4                  TNZ     s:4896

   4895  4 000352   000000 702200 xent               TSX2  ! X66_AALT

      774     4896    1      ACCT=ACCTS.C(I);

   4896  4 000353   000014 402007                    MPY     12,DL
         4 000354   200003 473500                    LDP3    @ACCT,,AUTO
         4 000355   040100 100506                    MLR     fill='040'O
         4 000356   000000 000010                    ADSC9   0,Q,PR0                  cn=0,n=8
         4 000357   300000 000010                    ADSC9   0,,PR3                   cn=0,n=8

      775     4897    1      RETURN;

   4897  4 000360   000000 702200 xent               TSX2  ! X66_ARET

      776     4898                    /**/
      777     4899                    /*F*      NAME: FXU$PROJAC
      778     4900                    *         PURPOSE: Check the account name in M$DP to be in the project
      779     4901                    *         or, if COMMAND is CREATE, that it conforms to the skeleton.
      780     4902                    */
      781     4903    1   FXU$PROJAC: ENTRY(ACCT) ALTRET;

   4903  4 000361   000000 700200 xent  FXU$PROJAC   TSX0  ! X66_AUTO_1
         4 000362   000022 000001                    ZERO    18,1

      782     4904    1      AC.C=M$DP$->F$DCB.ACCT#;

PL6.E3A0      #004=FXU$PROJAD File=FXU$UTIL.:E05TSI                              TUE 07/29/97 20:35 Page:175
   4904  4 000363   000000 470400 xsym               LDP0    M$DP$
         4 000364   000020 237100                    LDAQ    16,,PR0
         4 000365   200012 757100                    STAQ    AC,,AUTO

      783     4905    1      CALL FINDACCT ALTRET(NOTHERE);

   4905  4 000366   000717 701000 4                  TSX1    FINDACCT
         4 000367   000403 702000 4                  TSX2    NOTHERE

      784     4906    2      IF CODE.N=%E$CREATE THEN DO;

   4906  4 000370   200003 470500                    LDP0    @ACCT,,AUTO
         4 000371   000000 235100                    LDA     0,,PR0
         4 000372   000153 115007                    CMPA    107,DL
         4 000373   000377 601000 4                  TNZ     DEQRET

      785     4907    2         FLAG=FXU$E$PROJEX;

   4907  4 000374   000131 236000 3                  LDQ     FXU$E$PROJEX
         4 000375   000000 756000 xsym               STQ     FLAG

      786     4908    2         GOTO DEQALTRET;

   4908  4 000376   000411 710000 4                  TRA     DEQALTRET

   4906  4 000377                       DEQRET       null
      787     4909                    /*E*      ERROR:FXU-E$PROJEX
      788     4910                    *         MESSAGE:Cannot create, account %%AC %exists.
      789     4911                    */
      790     4912    2         END;
      791     4913    1   DEQRET:;
      792     4914    1      CALL M$DEQ(DEQUEUE);

   4914  4 000377   000110 630400 3                  EPPR0   DEQUEUE
         4 000400   020003 713400                    CLIMB   8195
         4 000401   401000 401760                    pmme    nvectors=3

PL6.E3A0      #004=FXU$PROJAD File=FXU$UTIL.:E05TSI                              TUE 07/29/97 20:35 Page:176
      793     4915    1      RETURN;

   4915  4 000402   000000 702200 xent               TSX2  ! X66_ARET

   4906  4 000403                       NOTHERE      null
      794     4916    1   NOTHERE:;
      795     4917    2      IF CODE.N~=%E$CREATE THEN DO;

   4917  4 000403   200003 470500                    LDP0    @ACCT,,AUTO
         4 000404   000000 235100                    LDA     0,,PR0
         4 000405   000153 115007                    CMPA    107,DL
         4 000406   000415 600000 4                  TZE     s:4946

      796     4918    2   ERRNA:FLAG=FXU$E$PROJNA;

   4918  4 000407   000127 236000 3     ERRNA        LDQ     FXU$E$PROJNA
         4 000410   000000 756000 xsym               STQ     FLAG

      797     4919                    /*E*      ERROR:FXU-E$PROJNA
      798     4920                    *         MESSAGE:Account %%AC %is not in the project.
      799     4921                    */
      800     4922    2   DEQALTRET: CALL M$DEQ(DEQUEUE);

   4922  4 000411   000110 630400 3     DEQALTRET    EPPR0   DEQUEUE
         4 000412   020003 713400                    CLIMB   8195
         4 000413   401000 401760                    pmme    nvectors=3

      801     4923    2         ALTRETURN;

   4923  4 000414   000000 702200 xent               TSX2  ! X66_AALT

      802     4924    2         END;
      803     4925           %WILD_COMPARE(WILD_CHARS=PROJREC.SKELETON,
      804     4926           COMPARE_CHARS=AC.C,
      805     4927           WILD_X=J,WILD_XP=K,COMPARE_X=L,COMPARE_XP=M,
      806     4928           NO_MATCH=GOTO NOMATCH);

PL6.E3A0      #004=FXU$PROJAD File=FXU$UTIL.:E05TSI                              TUE 07/29/97 20:35 Page:177
   4946  4 000415   000015 471400 1                  LDP1    RDPROJ+5
         4 000416   100010 236100                    LDQ     8,,PR1
         4 000417   200006 756100                    STQ     J,,AUTO

   4947  4 000420   200006 236100                    LDQ     J,,AUTO
         4 000421   000137 376000 3                  ANQ     FXU$E$PROJSK+5
         4 000422   000140 116000 3                  CMPQ    FXU$E$PROJSK+6
         4 000423   000431 601000 4                  TNZ     s:4961

   4948  4 000424   000003 235007                    LDA     3,DL
         4 000425   200006 755100                    STA     J,,AUTO

   4949  4 000426   000002 236007                    LDQ     2,DL
         4 000427   200007 756100                    STQ     K,,AUTO

   4950  4 000430   000434 710000 4                  TRA     s:4964

   4961  4 000431   200006 450100                    STZ     J,,AUTO

   4962  4 000432   000010 235007                    LDA     8,DL
         4 000433   200007 755100                    STA     K,,AUTO

   4964  4 000434   200010 450100                    STZ     L,,AUTO

   4965  4 000435   200011 450100                    STZ     M,,AUTO

   4969  4 000436   000512 710000 4                  TRA     s:4994

   4971  4 000437   200006 235100                    LDA     J,,AUTO
         4 000440   000010 115007                    CMPA    8,DL
         4 000441   000451 603000 4                  TRC     s:4975
         4 000442   000015 470400 1                  LDP0    RDPROJ+5
         4 000443   040000 106505                    CMPC    fill='040'O
         4 000444   000010 000001                    ADSC9   8,A,PR0                  cn=0,n=1
         4 000445   000003 000001 5                  ADSC9   3                        cn=0,n=1
         4 000446   000451 601000 4                  TNZ     s:4975

PL6.E3A0      #004=FXU$PROJAD File=FXU$UTIL.:E05TSI                              TUE 07/29/97 20:35 Page:178
   4972  4 000447   200007 755100                    STA     K,,AUTO

   4973  4 000450   000506 710000 4                  TRA     s:4993

   4975  4 000451   200007 236100                    LDQ     K,,AUTO
         4 000452   000001 036007                    ADLQ    1,DL
         4 000453   200006 116100                    CMPQ    J,,AUTO
         4 000454   000457 601000 4                  TNZ     s:4976

   4975  4 000455   200010 235100                    LDA     L,,AUTO
         4 000456   200011 755100                    STA     M,,AUTO

   4976  4 000457   200006 235100                    LDA     J,,AUTO
         4 000460   000010 115007                    CMPA    8,DL
         4 000461   000474 603000 4                  TRC     s:4980
         4 000462   200010 235100                    LDA     L,,AUTO
         4 000463   000010 115007                    CMPA    8,DL
         4 000464   000474 603000 4                  TRC     s:4980
         4 000465   000015 470400 1                  LDP0    RDPROJ+5
         4 000466   200006 235100                    LDA     J,,AUTO
         4 000467   200010 236100                    LDQ     L,,AUTO
         4 000470   040106 106505                    CMPC    fill='040'O
         4 000471   000010 000001                    ADSC9   8,A,PR0                  cn=0,n=1
         4 000472   200012 000001                    ADSC9   AC,Q,AUTO                cn=0,n=1
         4 000473   000504 600000 4                  TZE     s:4991

   4980  4 000474   200007 235100                    LDA     K,,AUTO
         4 000475   000010 115007                    CMPA    8,DL
         4 000476   000545 600000 4                  TZE     NOMATCH
         4 000477   200011 236100                    LDQ     M,,AUTO
         4 000500   000010 116007                    CMPQ    8,DL
         4 000501   000545 600000 4                  TZE     NOMATCH

   4982  4 000502   200006 755100                    STA     J,,AUTO

   4986  4 000503   200010 756100                    STQ     L,,AUTO

PL6.E3A0      #004=FXU$PROJAD File=FXU$UTIL.:E05TSI                              TUE 07/29/97 20:35 Page:179
   4991  4 000504   000001 036007                    ADLQ    1,DL
         4 000505   200010 756100                    STQ     L,,AUTO

   4993  4 000506   000010 115007                    CMPA    8,DL
         4 000507   000512 603000 4                  TRC     s:4994

   4993  4 000510   000001 035007                    ADLA    1,DL
         4 000511   200006 755100                    STA     J,,AUTO

   4994  4 000512   200006 235100                    LDA     J,,AUTO
         4 000513   000010 115007                    CMPA    8,DL
         4 000514   000522 603000 4                  TRC     s:4994+8
         4 000515   000015 470400 1                  LDP0    RDPROJ+5
         4 000516   040000 106505                    CMPC    fill='040'O
         4 000517   000010 000001                    ADSC9   8,A,PR0                  cn=0,n=1
         4 000520   000035 000001 xsym               ADSC9   B_VECTNIL+29             cn=0,n=1
         4 000521   000437 601000 4                  TNZ     s:4971
         4 000522   200010 236100                    LDQ     L,,AUTO
         4 000523   000010 116007                    CMPQ    8,DL
         4 000524   000531 603000 4                  TRC     s:4999
         4 000525   040000 106506                    CMPC    fill='040'O
         4 000526   200012 000001                    ADSC9   AC,Q,AUTO                cn=0,n=1
         4 000527   000035 000001 xsym               ADSC9   B_VECTNIL+29             cn=0,n=1
         4 000530   000437 601000 4                  TNZ     s:4971

      807     4999    1      IF PROJREC.MAX_NUM_GRANS-PROJREC.GRANS_ACCUM<=0

   4999  4 000531   000015 470400 1                  LDP0    RDPROJ+5
         4 000532   000006 236100                    LDQ     6,,PR0
         4 000533   000007 136100                    SBLQ    7,,PR0
         4 000534   000541 604400 4                  TMOZ    ERROVER
         4 000535   000013 236100                    LDQ     11,,PR0
         4 000536   000544 604000 4                  TMI     s:5007
         4 000537   000012 116100                    CMPQ    10,,PR0
         4 000540   000544 602000 4                  TNC     s:5007

      808     5000    2        OR PROJREC.NUM_ACCTS>=PROJREC.MAX_NUM_ACCTS THEN DO;
PL6.E3A0      #004=FXU$PROJAD File=FXU$UTIL.:E05TSI                              TUE 07/29/97 20:35 Page:180

      809     5001    2   ERROVER: FLAG=FXU$E$PROJOVER;

   5001  4 000541   000130 236000 3     ERROVER      LDQ     FXU$E$PROJOVER
         4 000542   000000 756000 xsym               STQ     FLAG

      810     5002    2         GOTO DEQALTRET;

   5002  4 000543   000411 710000 4                  TRA     DEQALTRET

      811     5003    2         END;
      812     5004                    /*E*      ERROR:FXU-E$PROJOVER
      813     5005                    *         MESSAGE:Project has too few granules or accounts left.
      814     5006                    */
      815     5007    1      RETURN;  /* WAIT UNTIL PROJGR AND PROJWR TO WRITE AND DEQ */

   5007  4 000544   000000 702200 xent               TSX2  ! X66_ARET

   4999  4 000545                       NOMATCH      null
      816     5008    1   NOMATCH:;
      817     5009    1      FLAG=FXU$E$PROJSK;

   5009  4 000545   000132 236000 3                  LDQ     FXU$E$PROJSK
         4 000546   000000 756000 xsym               STQ     FLAG

      818     5010    1      GOTO DEQALTRET;

   5010  4 000547   000411 710000 4                  TRA     DEQALTRET

      819     5011                    /*E*      ERROR:FXU-E$PROJSK
      820     5012                    *         MESSAGE:Account% %AC% doesn't match the skeleton.
      821     5013                    */
      822     5014        %EJECT;
PL6.E3A0      #004=FXU$PROJAD File=FXU$UTIL.:E05TSI                              TUE 07/29/97 20:35 Page:181
      823     5015                    /*F*      NAME: FXU$PROJWR
      824     5016                    *         PURPOSE: Write the record.
      825     5017                    */
      826     5018    1   FXU$PROJWR: ENTRY ALTRET;

   5018  4 000550   000000 700200 xent  FXU$PROJWR   TSX0  ! X66_AUTO_1
         4 000551   000022 000001                    ZERO    18,1

      827     5019    1      CALL M$WRITE(WRPROJ)ALTRET(NOPROJ);

   5019  4 000552   000040 630400 1                  EPPR0   WRPROJ
         4 000553   440001 713400                    CLIMB   alt,write
         4 000554   401400 401760                    pmme    nvectors=4
         4 000555   000304 702000 4                  TSX2    NOPROJ

      828     5020    1      GOTO DEQRET;

   5020  4 000556   000377 710000 4                  TRA     DEQRET

      829     5021        %EJECT;
PL6.E3A0      #004=FXU$PROJAD File=FXU$UTIL.:E05TSI                              TUE 07/29/97 20:35 Page:182
      830     5022                    /*F*      NAME: FXU$PROJGR
      831     5023                    *         PURPOSE: Check that the account in M$DP.ACCT# can have
      832     5024                    *         a number of granules passed as a parameter.
      833     5025                    */
      834     5026    1   FXU$PROJGR: ENTRY(ACCT)ALTRET;

   5026  4 000557   000000 700200 xent  FXU$PROJGR   TSX0  ! X66_AUTO_1
         4 000560   000022 000001                    ZERO    18,1

      835     5027    1      AC.C=M$DP$->F$DCB.ACCT#;

   5027  4 000561   000000 470400 xsym               LDP0    M$DP$
         4 000562   000020 237100                    LDAQ    16,,PR0
         4 000563   200012 757100                    STAQ    AC,,AUTO

      836     5028    1      CALL FINDACCT ALTRET(NEWACCT);

   5028  4 000564   000717 701000 4                  TSX1    FINDACCT
         4 000565   000611 702000 4                  TSX2    NEWACCT

   5027  4 000566                       GRCHK        null
      837     5029    1   GRCHK:;
      838     5030    1      J=CODE.N-ACCTS.GRANS(I);

   5030  4 000566   200005 236100                    LDQ     I,,AUTO
         4 000567   000003 402007                    MPY     3,DL
         4 000570   200004 470500                    LDP0    ACCT$,,AUTO
         4 000571   000000 620006                    EAX0    0,QL
         4 000572   200003 471500                    LDP1    @ACCT,,AUTO
         4 000573   100000 236100                    LDQ     0,,PR1
         4 000574   000002 136110                    SBLQ    2,X0,PR0
         4 000575   200006 756100                    STQ     J,,AUTO

      839     5031    1      PROJREC.GRANS_ACCUM=PROJREC.GRANS_ACCUM+J;

   5031  4 000576   000015 473400 1                  LDP3    RDPROJ+5
         4 000577   300007 036100                    ADLQ    7,,PR3
PL6.E3A0      #004=FXU$PROJAD File=FXU$UTIL.:E05TSI                              TUE 07/29/97 20:35 Page:183
         4 000600   300007 756100                    STQ     7,,PR3

      840     5032    1      IF PROJREC.GRANS_ACCUM>PROJREC.MAX_NUM_GRANS THEN GOTO ERROVER;

   5032  4 000601   000015 473400 1                  LDP3    RDPROJ+5
         4 000602   300006 236100                    LDQ     6,,PR3
         4 000603   000606 604000 4                  TMI     s:5033
         4 000604   300007 116100                    CMPQ    7,,PR3
         4 000605   000541 604000 4                  TMI     ERROVER

      841     5033    1      ACCTS.GRANS(I)=CODE.N;

   5033  4 000606   100000 235100                    LDA     0,,PR1
         4 000607   000002 755110                    STA     2,X0,PR0

      842     5034    1      RETURN;  /* WAIT UNTIL PROJWR TO WRITE AND DEQ */

   5034  4 000610   000000 702200 xent               TSX2  ! X66_ARET

      843     5035                    /**/
      844     5036    1   NEWACCT: M=I;

   5036  4 000611   200005 235100       NEWACCT      LDA     I,,AUTO
         4 000612   200011 755100                    STA     M,,AUTO

      845     5037    1      AC.GRANS=0;

   5037  4 000613   200014 450100                    STZ     AC+2,,AUTO

      846     5038    1      PROJREC.NUM_ACCTS=PROJREC.NUM_ACCTS+1;

   5038  4 000614   000015 470400 1                  LDP0    RDPROJ+5
         4 000615   000013 054100                    AOS     11,,PR0

      847     5039    2      DO WHILE(M<PROJREC.NUM_ACCTS);

   5039  4 000616   000015 470400 1                  LDP0    RDPROJ+5
PL6.E3A0      #004=FXU$PROJAD File=FXU$UTIL.:E05TSI                              TUE 07/29/97 20:35 Page:184
         4 000617   200011 236100                    LDQ     M,,AUTO
         4 000620   000647 604000 4                  TMI     s:5045
         4 000621   000013 116100                    CMPQ    11,,PR0
         4 000622   000647 605000 4                  TPL     s:5045

      848     5040    2         ADDR(J)->ACCTS(0)=ACCTS(M);

   5040  4 000623   200011 236100                    LDQ     M,,AUTO
         4 000624   000014 402007                    MPY     12,DL
         4 000625   200004 470500                    LDP0    ACCT$,,AUTO
         4 000626   000100 100506                    MLR     fill='000'O
         4 000627   000000 000014                    ADSC9   0,Q,PR0                  cn=0,n=12
         4 000630   200006 000014                    ADSC9   J,,AUTO                  cn=0,n=12

      849     5041    2         ACCTS(M)=AC;

   5041  4 000631   000106 100500                    MLR     fill='000'O
         4 000632   200012 000014                    ADSC9   AC,,AUTO                 cn=0,n=12
         4 000633   000000 000014                    ADSC9   0,Q,PR0                  cn=0,n=12

      850     5042    2         AC=ADDR(J)->ACCTS(0);

   5042  4 000634   000100 100500                    MLR     fill='000'O
         4 000635   200006 000014                    ADSC9   J,,AUTO                  cn=0,n=12
         4 000636   200012 000014                    ADSC9   AC,,AUTO                 cn=0,n=12

      851     5043    2         M=M+1;

   5043  4 000637   200011 235100                    LDA     M,,AUTO
         4 000640   000001 035007                    ADLA    1,DL
         4 000641   200011 755100                    STA     M,,AUTO

      852     5044    2         END;

   5044  4 000642   000015 471400 1                  LDP1    RDPROJ+5
         4 000643   200011 236100                    LDQ     M,,AUTO
         4 000644   000647 604000 4                  TMI     s:5045
PL6.E3A0      #004=FXU$PROJAD File=FXU$UTIL.:E05TSI                              TUE 07/29/97 20:35 Page:185
         4 000645   100013 116100                    CMPQ    11,,PR1
         4 000646   000623 604000 4                  TMI     s:5040

      853     5045    1      GOTO GRCHK;

   5045  4 000647   000566 710000 4                  TRA     GRCHK

      854     5046        %EJECT;
PL6.E3A0      #004=FXU$PROJAD File=FXU$UTIL.:E05TSI                              TUE 07/29/97 20:35 Page:186
      855     5047                    /*F*      NAME: FXU$PROJDA
      856     5048                    *         PURPOSE: Delete an account from a :PROJ record.
      857     5049                    */
      858     5050    1   FXU$PROJDA: ENTRY(ACCT)ALTRET;

   5050  4 000650   000000 700200 xent  FXU$PROJDA   TSX0  ! X66_AUTO_1
         4 000651   000022 000001                    ZERO    18,1

      859     5051    1      AC.C=ACCT;

   5051  4 000652   200003 470500                    LDP0    @ACCT,,AUTO
         4 000653   040100 100500                    MLR     fill='040'O
         4 000654   000000 000010                    ADSC9   0,,PR0                   cn=0,n=8
         4 000655   200012 000010                    ADSC9   AC,,AUTO                 cn=0,n=8

      860     5052    1      CALL FINDACCT ALTRET(ERRNA);

   5052  4 000656   000717 701000 4                  TSX1    FINDACCT
         4 000657   000407 702000 4                  TSX2    ERRNA

      861     5053    1      PROJREC.GRANS_ACCUM=PROJREC.GRANS_ACCUM-ACCTS.GRANS(I);

   5053  4 000660   200005 236100                    LDQ     I,,AUTO
         4 000661   000003 402007                    MPY     3,DL
         4 000662   200004 470500                    LDP0    ACCT$,,AUTO
         4 000663   000000 620006                    EAX0    0,QL
         4 000664   000015 471400 1                  LDP1    RDPROJ+5
         4 000665   100007 236100                    LDQ     7,,PR1
         4 000666   000002 136110                    SBLQ    2,X0,PR0
         4 000667   100007 756100                    STQ     7,,PR1

      862     5054    1      PROJREC.NUM_ACCTS=PROJREC.NUM_ACCTS-1;

   5054  4 000670   000015 471400 1                  LDP1    RDPROJ+5
         4 000671   000001 336007                    LCQ     1,DL
         4 000672   100013 056100                    ASQ     11,,PR1

PL6.E3A0      #004=FXU$PROJAD File=FXU$UTIL.:E05TSI                              TUE 07/29/97 20:35 Page:187
      863     5055    2      DO WHILE(I<PROJREC.NUM_ACCTS);

   5055  4 000673   000015 471400 1                  LDP1    RDPROJ+5
         4 000674   200005 236100                    LDQ     I,,AUTO
         4 000675   000716 604000 4                  TMI     s:5059
         4 000676   100013 116100                    CMPQ    11,,PR1
         4 000677   000716 605000 4                  TPL     s:5059

      864     5056    2         ACCTS(I)=ACCTS(I+1);

   5056  4 000700   200005 236100                    LDQ     I,,AUTO
         4 000701   000014 402007                    MPY     12,DL
         4 000702   200004 470500                    LDP0    ACCT$,,AUTO
         4 000703   000106 100506                    MLR     fill='000'O
         4 000704   000003 000014                    ADSC9   3,Q,PR0                  cn=0,n=12
         4 000705   000000 000014                    ADSC9   0,Q,PR0                  cn=0,n=12

      865     5057    2         I=I+1;

   5057  4 000706   200005 235100                    LDA     I,,AUTO
         4 000707   000001 035007                    ADLA    1,DL
         4 000710   200005 755100                    STA     I,,AUTO

      866     5058    2         END;

   5058  4 000711   000015 471400 1                  LDP1    RDPROJ+5
         4 000712   200005 236100                    LDQ     I,,AUTO
         4 000713   000716 604000 4                  TMI     s:5059
         4 000714   100013 116100                    CMPQ    11,,PR1
         4 000715   000700 604000 4                  TMI     s:5056

      867     5059    1      RETURN;

   5059  4 000716   000000 702200 xent               TSX2  ! X66_ARET

      868     5060        %EJECT;
PL6.E3A0      #004=FXU$PROJAD File=FXU$UTIL.:E05TSI                              TUE 07/29/97 20:35 Page:188
      869     5061    1   FINDACCT: PROC ALTRET;

   5061  4 000717   200016 741300       FINDACCT     STX1  ! AC+4,,AUTO

      870     5062    2      CALL M$ENQ(ENQUEUE)ALTRET(ENQERR);

   5062  4 000720   000076 630400 3                  EPPR0   ENQUEUE
         4 000721   420002 713400                    CLIMB   alt,+8194
         4 000722   401000 401760                    pmme    nvectors=3
         4 000723   001167 702000 4                  TSX2    ENQERR

      871     5063    2      PROJREC='0'B;

   5063  4 000724   000015 470400 1                  LDP0    RDPROJ+5
         4 000725   000014 220100                    LDX0    12,,PR0
         4 000726   000062 621010                    EAX1    50,X0
         4 000727   000140 100400                    MLR     fill='000'O
         4 000730   000002 000001 xsym               ADSC9   B_VECTNIL+2              cn=0,n=1
         4 000731   000000 000011                    ADSC9   0,,PR0                   cn=0,n=*X1

      872     5064    2      I=0;

   5064  4 000732   200005 450100                    STZ     I,,AUTO

      873     5065    2      IF PROJAD.PSN~=' ' THEN CALL M$READ(RDPROJ) ALTRET(CHKLD);

   5065  4 000733   040000 106400                    CMPC    fill='040'O
         4 000734   000005 200006 xsym               ADSC9   PROJAD+5                 cn=1,n=6
         4 000735   000035 000001 xsym               ADSC9   B_VECTNIL+29             cn=0,n=1
         4 000736   000743 600000 4                  TZE     DGAS4

   5065  4 000737   000010 630400 1                  EPPR0   RDPROJ
         4 000740   440000 713400                    CLIMB   alt,read
         4 000741   401400 401760                    pmme    nvectors=4
         4 000742   001171 702000 4                  TSX2    CHKLD

      874     5066    2   DGAS4: ACCT$=PINCRW(ADDR(PROJREC),SIZEW(PROJREC));
PL6.E3A0      #004=FXU$PROJAD File=FXU$UTIL.:E05TSI                              TUE 07/29/97 20:35 Page:189

   5066  4 000743   000015 470400 1     DGAS4        LDP0    RDPROJ+5
         4 000744   000014 220100                    LDX0    12,,PR0
         4 000745   000062 621010                    EAX1    50,X0
         4 000746   000000 636011                    EAQ     0,X1
         4 000747   000022 772000                    QRL     18
         4 000750   000011 402007                    MPY     9,DL
         4 000751   000043 036007                    ADLQ    35,DL
         4 000752   000044 506007                    DIV     36,DL
         4 000753   000022 736000                    QLS     18
         4 000754   000015 036000 1                  ADLQ    RDPROJ+5
         4 000755   200004 756100                    STQ     ACCT$,,AUTO

      875     5067    2      WRPROJ.BUF_=RDPROJ.BUF_;

   5067  4 000756   000014 237000 1                  LDAQ    RDPROJ+4
         4 000757   000044 757000 1                  STAQ    WRPROJ+4

      876     5068    2      IF PROJREC.MAX_NUM_ACCTS>50000 THEN PROJREC.MAX_NUM_ACCTS=50000;

   5068  4 000760   000012 235100                    LDA     10,,PR0
         4 000761   141521 115007                    CMPA    50001,DL
         4 000762   000765 602000 4                  TNC     s:5069

   5068  4 000763   141520 235007                    LDA     50000,DL
         4 000764   000012 755100                    STA     10,,PR0

      877     5069    2      IF PROJREC.NUM_ACCTS>(RDPROJ.BUF_.BOUND-SIZEV(PROJREC))/SIZEC(ACCTS(0))

   5069  4 000765   000015 470400 1                  LDP0    RDPROJ+5
         4 000766   000014 220100                    LDX0    12,,PR0
         4 000767   000062 621010                    EAX1    50,X0
         4 000770   000000 636011                    EAQ     0,X1
         4 000771   000022 772000                    QRL     18
         4 000772   000011 402007                    MPY     9,DL
         4 000773   000043 036007                    ADLQ    35,DL
         4 000774   000044 506007                    DIV     36,DL
PL6.E3A0      #004=FXU$PROJAD File=FXU$UTIL.:E05TSI                              TUE 07/29/97 20:35 Page:190
         4 000775   200020 756100                    STQ     AC+6,,AUTO
         4 000776   000014 236000 1                  LDQ     RDPROJ+4
         4 000777   000020 772000                    QRL     16
         4 001000   200021 756100                    STQ     AC+7,,AUTO
         4 001001   000000 236003                    LDQ     0,DU
         4 001002   200020 136100                    SBLQ    AC+6,,AUTO
         4 001003   000002 736000                    QLS     2
         4 001004   200021 036100                    ADLQ    AC+7,,AUTO
         4 001005   000001 036007                    ADLQ    1,DL
         4 001006   000014 506007                    DIV     12,DL
         4 001007   000013 116100                    CMPQ    11,,PR0
         4 001010   001033 605000 4                  TPL     s:5071

      878     5070    2      THEN PROJREC.NUM_ACCTS=(RDPROJ.BUF_.BOUND-SIZEV(PROJREC))/SIZEC(ACCTS(0));

   5070  4 001011   000014 220100                    LDX0    12,,PR0
         4 001012   000062 621010                    EAX1    50,X0
         4 001013   000000 636011                    EAQ     0,X1
         4 001014   000022 772000                    QRL     18
         4 001015   000011 402007                    MPY     9,DL
         4 001016   000043 036007                    ADLQ    35,DL
         4 001017   000044 506007                    DIV     36,DL
         4 001020   200020 756100                    STQ     AC+6,,AUTO
         4 001021   000014 236000 1                  LDQ     RDPROJ+4
         4 001022   000020 772000                    QRL     16
         4 001023   200021 756100                    STQ     AC+7,,AUTO
         4 001024   000000 236003                    LDQ     0,DU
         4 001025   200020 136100                    SBLQ    AC+6,,AUTO
         4 001026   000002 736000                    QLS     2
         4 001027   200021 036100                    ADLQ    AC+7,,AUTO
         4 001030   000001 036007                    ADLQ    1,DL
         4 001031   000014 506007                    DIV     12,DL
         4 001032   000013 756100                    STQ     11,,PR0

      879     5071    2      WRPROJ.BUF_.BOUND=POFFC(ADDR(ACCTS(PROJREC.MAX_NUM_ACCTS)),ADDR(PROJREC))-1;

   5071  4 001033   000015 470400 1                  LDP0    RDPROJ+5
PL6.E3A0      #004=FXU$PROJAD File=FXU$UTIL.:E05TSI                              TUE 07/29/97 20:35 Page:191
         4 001034   000012 236100                    LDQ     10,,PR0
         4 001035   000003 402007                    MPY     3,DL
         4 001036   000000 620006                    EAX0    0,QL
         4 001037   000015 236000 1                  LDQ     RDPROJ+5
         4 001040   000020 772000                    QRL     16
         4 001041   200020 756100                    STQ     AC+6,,AUTO
         4 001042   000000 636010                    EAQ     0,X0
         4 001043   200004 036100                    ADLQ    ACCT$,,AUTO
         4 001044   000020 772000                    QRL     16
         4 001045   200020 136100                    SBLQ    AC+6,,AUTO
         4 001046   000001 136007                    SBLQ    1,DL
         4 001047   000020 736000                    QLS     16
         4 001050   000044 676000 1                  ERQ     WRPROJ+4
         4 001051   000034 376000 xsym               ANQ     B_VECTNIL+28
         4 001052   000044 656000 1                  ERSQ    WRPROJ+4

      880     5072    3      IF PROJREC.MAX_NUM_ACCTS-PROJREC.NUM_ACCTS>2048/SIZEW(ACCTS(0)) THEN DO;

   5072  4 001053   000012 236100                    LDQ     10,,PR0
         4 001054   000013 136100                    SBLQ    11,,PR0
         4 001055   001252 116007                    CMPQ    682,DL
         4 001056   001125 604400 4                  TMOZ    s:5078

      881     5073    3         WRPROJ.BUF_.BOUND=SIZEV(PROJREC)+SIZEC(ACCTS(0))*(PROJREC.NUM_ACCTS+5);

   5073  4 001057   000014 220100                    LDX0    12,,PR0
         4 001060   000062 621010                    EAX1    50,X0
         4 001061   000000 636011                    EAQ     0,X1
         4 001062   000022 772000                    QRL     18
         4 001063   000011 402007                    MPY     9,DL
         4 001064   000043 036007                    ADLQ    35,DL
         4 001065   000044 506007                    DIV     36,DL
         4 001066   200020 756100                    STQ     AC+6,,AUTO
         4 001067   000013 236100                    LDQ     11,,PR0
         4 001070   000003 402007                    MPY     3,DL
         4 001071   200020 036100                    ADLQ    AC+6,,AUTO
         4 001072   000002 736000                    QLS     2
PL6.E3A0      #004=FXU$PROJAD File=FXU$UTIL.:E05TSI                              TUE 07/29/97 20:35 Page:192
         4 001073   000073 036007                    ADLQ    59,DL
         4 001074   000020 736000                    QLS     16
         4 001075   000044 676000 1                  ERQ     WRPROJ+4
         4 001076   000034 376000 xsym               ANQ     B_VECTNIL+28
         4 001077   000044 656000 1                  ERSQ    WRPROJ+4

      882     5074    3         IF WRPROJ.BUF_.BOUND<8191 THEN WRPROJ.BUF_.BOUND=8191;

   5074  4 001100   000044 236000 1                  LDQ     WRPROJ+4
         4 001101   000034 376000 xsym               ANQ     B_VECTNIL+28
         4 001102   000004 116000 5                  CMPQ    4
         4 001103   001111 603000 4                  TRC     s:5075

   5074  4 001104   000044 236000 1                  LDQ     WRPROJ+4
         4 001105   177777 376007                    ANQ     65535,DL
         4 001106   000004 276000 5                  ORQ     4
         4 001107   000044 756000 1                  STQ     WRPROJ+4
         4 001110   001125 710000 4                  TRA     s:5078

      883     5075    3         ELSE IF WRPROJ.BUF_.BOUND>RDPROJ.BUF_.BOUND

   5075  4 001111   000044 236000 1                  LDQ     WRPROJ+4
         4 001112   000020 772000                    QRL     16
         4 001113   200020 756100                    STQ     AC+6,,AUTO
         4 001114   000014 236000 1                  LDQ     RDPROJ+4
         4 001115   000020 772000                    QRL     16
         4 001116   200020 116100                    CMPQ    AC+6,,AUTO
         4 001117   001125 605000 4                  TPL     s:5078

      884     5076    3         THEN WRPROJ.BUF_.BOUND=RDPROJ.BUF_.BOUND+8192;

   5076  4 001120   020000 036007                    ADLQ    8192,DL
         4 001121   000020 736000                    QLS     16
         4 001122   000044 676000 1                  ERQ     WRPROJ+4
         4 001123   000034 376000 xsym               ANQ     B_VECTNIL+28
         4 001124   000044 656000 1                  ERSQ    WRPROJ+4

PL6.E3A0      #004=FXU$PROJAD File=FXU$UTIL.:E05TSI                              TUE 07/29/97 20:35 Page:193
      885     5077    3         END;

      886     5078    3      DO WHILE(RDPROJ.BUF_<WRPROJ.BUF_);

   5078  4 001125   000014 237000 1                  LDAQ    RDPROJ+4
         4 001126   000044 117000 1                  CMPAQ   WRPROJ+4
         4 001127   001137 603000 4                  TRC     s:5081

      887     5079    3         CALL M$GDS(FPT_GDS) ALTRET(ENQERR);

   5079  4 001130   000120 630400 3                  EPPR0   FPT_GDS
         4 001131   430001 713400                    CLIMB   alt,gds
         4 001132   400400 401760                    pmme    nvectors=2
         4 001133   001167 702000 4                  TSX2    ENQERR

      888     5080    3         END;

   5080  4 001134   000014 237000 1                  LDAQ    RDPROJ+4
         4 001135   000044 117000 1                  CMPAQ   WRPROJ+4
         4 001136   001130 602000 4                  TNC     s:5079

      889     5081    3      DO WHILE(I<PROJREC.NUM_ACCTS AND AC.C>=ACCTS.C(I));

   5081  4 001137   001154 710000 4                  TRA     s:5084

      890     5082    3         IF AC.C=ACCTS.C(I) THEN RETURN;

   5082  4 001140   200005 236100                    LDQ     I,,AUTO
         4 001141   000014 402007                    MPY     12,DL
         4 001142   200004 470500                    LDP0    ACCT$,,AUTO
         4 001143   040106 106500                    CMPC    fill='040'O
         4 001144   200012 000010                    ADSC9   AC,,AUTO                 cn=0,n=8
         4 001145   000000 000010                    ADSC9   0,Q,PR0                  cn=0,n=8
         4 001146   001151 601000 4                  TNZ     s:5083

   5082  4 001147   200016 221300                    LDX1  ! AC+4,,AUTO
         4 001150   000001 702211                    TSX2  ! 1,X1
PL6.E3A0      #004=FXU$PROJAD File=FXU$UTIL.:E05TSI                              TUE 07/29/97 20:35 Page:194

      891     5083    3         I=I+1;

   5083  4 001151   200005 235100                    LDA     I,,AUTO
         4 001152   000001 035007                    ADLA    1,DL
         4 001153   200005 755100                    STA     I,,AUTO

      892     5084    3         END;

   5084  4 001154   000015 470400 1                  LDP0    RDPROJ+5
         4 001155   200005 236100                    LDQ     I,,AUTO
         4 001156   001167 604000 4                  TMI     ENQERR
         4 001157   000013 116100                    CMPQ    11,,PR0
         4 001160   001167 605000 4                  TPL     ENQERR
         4 001161   000014 402007                    MPY     12,DL
         4 001162   200004 471500                    LDP1    ACCT$,,AUTO
         4 001163   040106 106500                    CMPC    fill='040'O
         4 001164   200012 000010                    ADSC9   AC,,AUTO                 cn=0,n=8
         4 001165   100000 000010                    ADSC9   0,Q,PR1                  cn=0,n=8
         4 001166   001140 603000 4                  TRC     s:5082

   5081  4 001167                       ENQERR       null
      893     5085    2   ENQERR:;
      894     5086    2      ALTRETURN;

   5086  4 001167   200016 221300                    LDX1  ! AC+4,,AUTO
         4 001170   000000 702211                    TSX2  ! 0,X1

      895     5087    3   CHKLD: IF DCBADDR(DCBNUM(M$PROJ))->F$DCB.TYC.LD# THEN DO;

   5087  4 001171   000000 236007 xsym  CHKLD        LDQ     M$PROJ,DL
         4 001172   000000 470400 5                  LDP0    0
         4 001173   000000 471500                    LDP1    0,,PR0
         4 001174   100000 473506                    LDP3    0,QL,PR1
         4 001175   300002 236100                    LDQ     2,,PR3
         4 001176   002000 316003                    CANQ    1024,DU
         4 001177   001206 600000 4                  TZE     s:5091
PL6.E3A0      #004=FXU$PROJAD File=FXU$UTIL.:E05TSI                              TUE 07/29/97 20:35 Page:195

      896     5088    3         CALL M$GDS(FPT_GDS) ALTRET(DGAS4);

   5088  4 001200   000120 630400 3                  EPPR0   FPT_GDS
         4 001201   430001 713400                    CLIMB   alt,gds
         4 001202   400400 401760                    pmme    nvectors=2
         4 001203   000743 702000 4                  TSX2    DGAS4

      897     5089    3         CALL M$RETRY;

   5089  4 001204   010010 713400                    CLIMB   4104
         4 001205   000000 401760                    pmme    nvectors=0

      898     5090    3         END;

      899     5091    2      GOTO DGAS4;

   5091  4 001206   000743 710000 4                  TRA     DGAS4
      900     5092    2   END FINDACCT;
      901     5093    1   END;

PL6.E3A0      #004=FXU$PROJAD File=FXU$UTIL.:E05TSI                              TUE 07/29/97 20:35 Page:196
--  Include file information  --

   FM$MACROS.:E05TOU  is referenced.
   XU_MACRO_C.:E05TOU  is referenced.
   AS_SUPER_C.:E05TOU  is referenced.
   FX_PERR_C.:E05TOU  is referenced.
   F$JIT_C.:E05TOU  cannot be made into a system file and is referenced.
   CP_6.:E05TOU  cannot be made into a system file and is referenced.
   B$JIT_C.:E05TOU  was found in the system file and is referenced.
   CP_6_C.:E05TOU  was found in the system file and is referenced.
      No diagnostics issued in procedure FXU$PROJAD.
PL6.E3A0      #004=FXU$PROJAD File=FXU$UTIL.:E05TSI                              TUE 07/29/97 20:35 Page:197

 **** Variables and constants ****

  ****  Section 001  Data  FXU$PROJAD

  ****  Scalars and arrays  ****
OctLoc.c.b A Datatyp(siz) R M Lvl/name                 OctLoc.c.b A Datatyp(siz) R M Lvl/name

    26-0-0/d STRC(360)   r     1 PREC                       0-0-0/c STRC(243)   r     1 PROJKY
    54-0-0/w STRC(504)   r     1 P_PCB                     10-0-0/d STRC(504)   r     1 RDPROJ
    40-0-0/d STRC(432)   r     1 WRPROJ

  ****  Section 003 RoData FXU$PROJAD

  ****  Scalars and arrays  ****
OctLoc.c.b A Datatyp(siz) R M Lvl/name                 OctLoc.c.b A Datatyp(siz) R M Lvl/name

   110-0-0/d STRC(288)   r     1 DEQUEUE                   76-0-0/d STRC(360)   r     1 ENQUEUE
   120-0-0/d STRC(216)   r     1 FPT_GDS                    0-0-0/d STRC(2088)  r     1 FPT_OPEN
   126-0-0/b STRC        r     1 FXU$E$NOPROJ             131-0-0/b STRC        r     1 FXU$E$PROJEX
   127-0-0/b STRC        r     1 FXU$E$PROJNA             130-0-0/b STRC        r     1 FXU$E$PROJOVER
   132-0-0/b STRC        r     1 FXU$E$PROJSK              72-0-0/c STRC(54)    r     1 PROJN
    74-0-0/c STRC(72)    r     1 SYS_ACCT

  ****  Auto variables  ****

  ****  Scalars and arrays  ****
OctLoc.c.b A Datatyp(siz) R M Lvl/name                 OctLoc.c.b A Datatyp(siz) R M Lvl/name

     3-0-0/w PTR         r     1 @ACCT                     12-0-0/w STRC(108)   r     1 AC
    *0-0-0/w CHAR(8)     r     1 ACCT                       4-0-0/w PTR         r     1 ACCT$
    *0-0-0/w STRC(72)    r     1 CODE                       5-0-0/w UBIN        r     1 I
     6-0-0/w UBIN        r     1 J                          7-0-0/w UBIN        r     1 K
    10-0-0/w UBIN        r     1 L                         11-0-0/w UBIN        r     1 M
     6-0-0/w CHAR(4)     r     1 WILD_XC

  ****  SYMREF variables  ****

PL6.E3A0      #004=FXU$PROJAD File=FXU$UTIL.:E05TSI                              TUE 07/29/97 20:35 Page:198
  ****  Scalars and arrays  ****
OctLoc.c.b A Datatyp(siz) R M Lvl/name                 OctLoc.c.b A Datatyp(siz) R M Lvl/name

     0-0-0/w PTR         r     1 B$JIT$                     0-0-0/w UBIN        r     1 CSTAT
     0-0-0/b BIT         r     1 FLAG                       0-0-0/w UBIN        r     1 FXN$CMD
     0-0-0/w PTR         r     1 M$DP$                      0-0-0/c STRC(243)   r     1 PROJAD

  ****  BASED and DCB variables  ****

  ****  Scalars and arrays  ****
OctLoc.c.b A Datatyp(siz) R M Lvl/name                 OctLoc.c.b A Datatyp(siz) R M Lvl/name

     0-0-0/w STRC(108)   r     1 ACCTS(0:0)                 0-0-0/d STRC(8856)  r     1 B$JIT
     0-0-0/c CHAR(20)    r     1 CHAR20                     0-0-0/d ASTR(3528)  r     1 F$DCB
     0-0-0N  NULL        r     1 M$PROJ                     0-0-0/w ASTR(468)   r     1 PROJREC


   Procedure FXU$PROJAD requires 647 words for executable code.
   Procedure FXU$PROJAD requires 18 words of local(AUTO) storage.

    No errors detected in file FXU$UTIL.:E05TSI    .
PL6.E3A0      #004=FXU$PROJAD File=FXU$UTIL.:E05TSI                              TUE 07/29/97 20:35 Page:199
          *** CROSS REFERENCE LISTING ***
**     DENOTES     IDENTIFIER DEFINITION
<<                 IDENTIFIER'S VALUE SET
>>                 IDENTIFIER'S VALUE USED
<>                 IDENTIFIER SET AND/OR USED
--                 IDENTIFIER REFERENCED
PL6.E3A0      #004=FXU$PROJAD File=FXU$UTIL.:E05TSI                              TUE 07/29/97 20:35 Page:200
          MINI XREF LISTING

AC
      4821**DCL      5041>>ASSIGN   5042<<ASSIGN
AC.C
      4822**DCL      4891<<ASSIGN   4894>>IF       4904<<ASSIGN   4969--DOWHILE  4969>>DOWHILE  4976--IF
      4976>>IF       4980--IF       5027<<ASSIGN   5051<<ASSIGN   5081>>DOWHILE  5082>>IF
AC.GRANS
      4823**DCL      5037<<ASSIGN
ACCT
        11**DCL        10--PROC       12--REDEF    4829--IF       4850>>ASSIGN   4850>>ASSIGN   4851>>ASSIGN
      4890--ENTRY    4891>>ASSIGN   4896<<ASSIGN   4903--ENTRY    5026--ENTRY    5050--ENTRY    5051>>ASSIGN
ACCT$
      4814**DCL      4525--IMP-PTR  4894>>IF       4896>>ASSIGN   5030>>ASSIGN   5033>>ASSIGN   5040>>ASSIGN
      5041>>ASSIGN   5053>>ASSIGN   5056>>ASSIGN   5056>>ASSIGN   5066<<ASSIGN   5071>>ASSIGN   5081>>DOWHILE
      5082>>IF
ACCTS
      4525**DCL      5040<<ASSIGN   5040>>ASSIGN   5041<<ASSIGN   5042>>ASSIGN   5056<<ASSIGN   5056>>ASSIGN
      5069--IF       5070--ASSIGN   5071--ASSIGN   5072--IF       5073--ASSIGN
ACCTS.C
      4526**DCL      4894>>IF       4896>>ASSIGN   5081>>DOWHILE  5082>>IF
ACCTS.GRANS
      4527**DCL      5030>>ASSIGN   5033<<ASSIGN   5053>>ASSIGN
B$JIT.ACCN
       110**DCL      4854--DOWHILE
B$JIT.ERR.MID
       111**DCL       111--REDEF
B$JIT.PPRIV
       166**DCL      4858>>IF
B$JIT.PRIV.AUTH
       151**DCL      4858>>IF
B$JIT$
       213**DCL       105--IMP-PTR  4854>>DOWHILE  4858>>IF       4858>>IF
CHAR20
PL6.E3A0      #004=FXU$PROJAD File=FXU$UTIL.:E05TSI                              TUE 07/29/97 20:35 Page:201
      4197**DCL      4854>>DOWHILE  4864<<CALLBLT
CHKLD
      4875**LABEL    4855--CALLALT  4861--CALLALT
CHKLD IN PROCEDURE FINDACCT
      5087**LABEL    5065--CALLALT
CODE.N
        13**DCL      4906>>IF       4917>>IF       5030>>ASSIGN   5033>>ASSIGN
CSTAT
      4787**DCL      4613--DCLINIT
DEQALTRET
      4922**LABEL    4908--GOTO     5002--GOTO     5010--GOTO
DEQRET
      4906**LABEL    5020--GOTO
DEQUEUE
      4469**DCL      4893<>CALL     4914<>CALL     4922<>CALL
DEQUEUE.V
      4470**DCL      4469--DCLINIT
DGAS1
      4836**LABEL    4835--CALLALT
DGAS2
      4843**LABEL    4838--CALLALT
DGAS3
      4853**LABEL    4846--CALLALT
DGAS4 IN PROCEDURE FINDACCT
      5066**LABEL    5088--CALLALT  5091--GOTO
ENQERR IN PROCEDURE FINDACCT
      5081**LABEL    5062--CALLALT  5079--CALLALT
ENQUEUE
      4451**DCL      5062<>CALL
ENQUEUE.V
      4452**DCL      4451--DCLINIT
ERRNA
      4918**LABEL    5052--CALLALT
ERROVER
      5001**LABEL    5032--GOTO
F$DCB.ACCT#
PL6.E3A0      #004=FXU$PROJAD File=FXU$UTIL.:E05TSI                              TUE 07/29/97 20:35 Page:202
      4545**DCL      4904>>ASSIGN   5027>>ASSIGN
F$DCB.ACTPOS
      4561**DCL      4561--REDEF
F$DCB.ARS#
      4535**DCL      4535--REDEF
F$DCB.ATTR
      4554**DCL      4555--REDEF
F$DCB.BORROW
      4569**DCL      4569--REDEF    4569--REDEF    4569--REDEF
F$DCB.DCBNAME.L
      4583**DCL      4583--IMP-SIZ
F$DCB.EOMCHAR#
      4539**DCL      4539--REDEF
F$DCB.FCD#
      4548**DCL      4826>>IF
F$DCB.FLDID
      4564**DCL      4564--REDEF
F$DCB.FORM$
      4558**DCL      4558--REDEF
F$DCB.FSECT
      4574**DCL      4574--REDEF
F$DCB.FSN#
      4551**DCL      4551--REDEF    4551--REDEF    4552--REDEF
F$DCB.HEADER$
      4557**DCL      4557--REDEF
F$DCB.IXTNSIZE#
      4555**DCL      4555--REDEF
F$DCB.LASTSTA$
      4544**DCL      4544--REDEF
F$DCB.LVL
      4570**DCL      4570--REDEF
F$DCB.NAME#.C
      4545**DCL      4545--REDEF
F$DCB.NOEOF
      4567**DCL      4567--REDEF
F$DCB.NRECS#
PL6.E3A0      #004=FXU$PROJAD File=FXU$UTIL.:E05TSI                              TUE 07/29/97 20:35 Page:203
      4556**DCL      4556--REDEF
F$DCB.NRECX
      4575**DCL      4575--REDEF
F$DCB.OHDR
      4567**DCL      4567--REDEF
F$DCB.ORG#
      4550**DCL      4550--REDEF
F$DCB.PRECNO
      4573**DCL      4573--REDEF
F$DCB.RCSZ
      4579**DCL      4579--REDEF
F$DCB.RES#
      4546**DCL      4546--REDEF
F$DCB.SETX
      4558**DCL      4558--REDEF
F$DCB.TAB$
      4558**DCL      4558--REDEF
F$DCB.TDA
      4572**DCL      4573--REDEF
F$DCB.TYC.LD#
      4536**DCL      4875>>IF       5087>>IF
F$DCB.WSN#
      4546**DCL      4546--REDEF
FINDACCT
      5061**PROC     4892--CALL     4905--CALL     5028--CALL     5052--CALL
FLAG
      4812**DCL      4825<<ASSIGN   4881>>IF       4881<<ASSIGN   4907<<ASSIGN   4918<<ASSIGN   5001<<ASSIGN
      5009<<ASSIGN
FPT_GDS
      4486**DCL      4853<>CALL     4876<>CALL     5079<>CALL     5088<>CALL
FPT_GDS.V
      4486**DCL      4486--DCLINIT
FPT_OPEN
      4265**DCL      4827<>CALL
FPT_OPEN.ACSVEH_
      4267**DCL      4268--REDEF
PL6.E3A0      #004=FXU$PROJAD File=FXU$UTIL.:E05TSI                              TUE 07/29/97 20:35 Page:204
FPT_OPEN.ALTKEYS_
      4273**DCL      4274--REDEF    4274--REDEF
FPT_OPEN.HDR_
      4272**DCL      4273--REDEF
FPT_OPEN.TAB_
      4271**DCL      4272--REDEF
FPT_OPEN.UHL_
      4265**DCL      4266--REDEF    4266--REDEF
FPT_OPEN.V
      4274**DCL      4265--DCLINIT
FPT_OPEN.V.FSN#
      4305**DCL      4305--REDEF    4305--REDEF
FPT_OPEN.WSN_
      4271**DCL      4271--REDEF
FXN$CMD
      4788**DCL      4609--DCLINIT
FXP$POPTS
      4786**DCL-ENT  4622--DCLINIT
FXP$PROJAT
      4789**DCL-ENT  4869--CALL
FXU$E$NOPROJ
      4793**DCL      4881>>ASSIGN
FXU$E$PROJEX
      4805**DCL      4907>>ASSIGN
FXU$E$PROJNA
      4797**DCL      4918>>ASSIGN
FXU$E$PROJOVER
      4801**DCL      5001>>ASSIGN
FXU$E$PROJSK
      4809**DCL      5009>>ASSIGN
GRCHK
      5027**LABEL    5045--GOTO
I
      4815**DCL      4828<<CALLBLT  4832>>ASSIGN   4840>>ASSIGN   4845>>ASSIGN   4865<<ASSIGN   4868>>ASSIGN
      4894>>IF       4894<<ASSIGN   4894>>ASSIGN   4895>>IF       4896>>ASSIGN   5030>>ASSIGN   5033>>ASSIGN
      5036>>ASSIGN   5053>>ASSIGN   5055>>DOWHILE  5056>>ASSIGN   5056>>ASSIGN   5057<<ASSIGN   5057>>ASSIGN
PL6.E3A0      #004=FXU$PROJAD File=FXU$UTIL.:E05TSI                              TUE 07/29/97 20:35 Page:205
      5064<<ASSIGN   5081>>DOWHILE  5081>>DOWHILE  5082>>IF       5083<<ASSIGN   5083>>ASSIGN
J
      4816**DCL      4817--REDEF    4947>>IF       4948<<ASSIGN   4961<<ASSIGN   4969>>DOWHILE  4969>>DOWHILE
      4971>>IF       4971>>IF       4972>>ASSIGN   4975>>IF       4976>>IF       4976>>IF       4982<<ASSIGN
      4993>>IF       4993<<ASSIGN   4993>>ASSIGN   5030<<ASSIGN   5031>>ASSIGN   5040--ASSIGN   5042--ASSIGN
K
      4818**DCL      4949<<ASSIGN   4962<<ASSIGN   4972<<ASSIGN   4975>>IF       4980>>IF       4982>>ASSIGN
L
      4819**DCL      4964<<ASSIGN   4969>>DOWHILE  4969>>DOWHILE  4975>>ASSIGN   4976>>IF       4976>>IF
      4986<<ASSIGN   4991<<ASSIGN   4991>>ASSIGN
M
      4820**DCL      4965<<ASSIGN   4975<<ASSIGN   4980>>IF       4986>>ASSIGN   5036<<ASSIGN   5039>>DOWHILE
      5040>>ASSIGN   5041>>ASSIGN   5043<<ASSIGN   5043>>ASSIGN
M$DEQ
        91**DCL-ENT  4893--CALL     4914--CALL     4922--CALL
M$DP$
      4585**DCL      4904>>ASSIGN   5027>>ASSIGN
M$ENQ
        90**DCL-ENT  5062--CALL
M$GDS
        59**DCL-ENT  4853--CALL     4876--CALL     5079--CALL     5088--CALL
M$OPEN
        24**DCL-ENT  4827--CALL
M$PRECORD
        28**DCL-ENT  4835--CALL     4838--CALL     4846--CALL
M$PROJ
      4198**DCL      4826--IF       4875--IF       5087--IF
M$READ
        25**DCL-ENT  4855--CALL     4861--CALL     4870--CALL     5065--CALL
M$RETRY
        81**DCL-ENT  4877--CALL     5089--CALL
M$WRITE
        25**DCL-ENT  5019--CALL
NEWACCT
      5036**LABEL    5028--CALLALT
NOMATCH
PL6.E3A0      #004=FXU$PROJAD File=FXU$UTIL.:E05TSI                              TUE 07/29/97 20:35 Page:206
      4999**LABEL    4981--GOTO
NOPROJ
      4880**LABEL    4827--CALLALT  4836--GOTO     4849--GOTO     4859--GOTO     4869--CALLALT  4870--CALLALT
      4876--CALLALT  5019--CALLALT
NOTHERE
      4906**LABEL    4905--CALLALT
PREC
      4399**DCL      4835<>CALL     4838<>CALL     4846<>CALL
PREC.V
      4401**DCL      4399--DCLINIT
PREC.V.N#
      4405**DCL      4834<<ASSIGN   4837<<ASSIGN   4843<<ASSIGN
PROJAD
      4189**DCL      4831>>ASSIGN   4844>>ASSIGN
PROJAD.L
      4190**DCL      4833<<ASSIGN   4840<<ASSIGN   4849>>IF       4865>>ASSIGN   4866<<ASSIGN   4868<<ASSIGN
      4871>>IF       4871<<ASSIGN   4880>>IF
PROJAD.PSN
      4192**DCL      4830<<ASSIGN   4872<<ASSIGN   4880<<ASSIGN   5065>>IF
PROJAD.USER
      4191**DCL      4828>>CALLBLT  4836>>IF       4839>>IF       4860>>ASSIGN
PROJKY
      4193**DCL      4366--DCLINIT  4367--DCLINIT  4399--DCLINIT  4400--DCLINIT  4426--DCLINIT  4451--DCLINIT
      4831<<ASSIGN   4844<<ASSIGN
PROJKY.L
      4194**DCL      4832<<ASSIGN   4836>>IF       4839>>IF       4845<<ASSIGN   4851<<ASSIGN   4871>>ASSIGN
PROJKY.PSN
      4196**DCL      4850<<ASSIGN   4864>>CALLBLT  4872>>ASSIGN
PROJKY.USER
      4195**DCL      4836>>IF       4839>>IF       4854>>DOWHILE  4854>>DOWHILE  4856<<ASSIGN   4858>>IF
      4860<<ASSIGN
PROJN
      4334**DCL      4266--DCLINIT
PROJREC
      4502**DCL      5063<<ASSIGN   5066--ASSIGN   5066--ASSIGN   5069--IF       5070--ASSIGN   5071--ASSIGN
      5073--ASSIGN
PL6.E3A0      #004=FXU$PROJAD File=FXU$UTIL.:E05TSI                              TUE 07/29/97 20:35 Page:207
PROJREC.ATTRIBUTES.COUNT
      4522**DCL      4523--IMP-SIZ  4862>>ASSIGN   5063>>ASSIGN   5066>>ASSIGN   5069>>IF       5070>>ASSIGN
      5073>>ASSIGN
PROJREC.ATTRIBUTES.TEXT
      4523**DCL      4863--ASSIGN
PROJREC.CREATOR
      4504**DCL      4856>>ASSIGN
PROJREC.GRANS_ACCUM
      4513**DCL      4999>>IF       5031<<ASSIGN   5031>>ASSIGN   5032>>IF       5053<<ASSIGN   5053>>ASSIGN
PROJREC.MAX_NUM_ACCTS
      4517**DCL      4999>>IF       5068>>IF       5068<<ASSIGN   5071>>ASSIGN   5072>>IF
PROJREC.MAX_NUM_GRANS
      4511**DCL      4999>>IF       5032>>IF
PROJREC.NUM_ACCTS
      4519**DCL      4895>>IF       4999>>IF       5038<<ASSIGN   5038>>ASSIGN   5039>>DOWHILE  5054<<ASSIGN
      5054>>ASSIGN   5055>>DOWHILE  5069>>IF       5070<<ASSIGN   5072>>IF       5073>>ASSIGN   5081>>DOWHILE
PROJREC.SKELETON
      4515**DCL      4946>>ASSIGN   4962--ASSIGN   4969--DOWHILE  4969>>DOWHILE  4971--IF       4971>>IF
      4976--IF       4976>>IF       4980--IF       4993--IF
P_PCB
      4604**DCL      4867<>CALL     4869<>CALL
P_PCB.NCHARS
      4751**DCL      4862<<ASSIGN
P_PCB.TEXT$
      4605**DCL      4863<<ASSIGN   4864>>CALLBLT
RDPROJ
      4366**DCL      4855<>CALL     4861<>CALL     4870<>CALL     5065<>CALL
RDPROJ.BUF_
      4368**DCL      4486--DCLINIT  5067>>ASSIGN   5078>>DOWHILE
RDPROJ.BUF_.BOUND
      4368**DCL      5069>>IF       5070>>ASSIGN   5075>>IF       5076>>ASSIGN
RDPROJ.BUF_.BUF$
      4369**DCL      4502--IMP-PTR  4853>>IF       4856>>ASSIGN   4862>>ASSIGN   4863>>ASSIGN   4895>>IF
      4946>>ASSIGN   4969>>DOWHILE  4971>>IF       4976>>IF       4999>>IF       4999>>IF       4999>>IF
      4999>>IF       5031>>ASSIGN   5031>>ASSIGN   5032>>IF       5032>>IF       5038>>ASSIGN   5038>>ASSIGN
      5039>>DOWHILE  5053>>ASSIGN   5053>>ASSIGN   5054>>ASSIGN   5054>>ASSIGN   5055>>DOWHILE  5063>>ASSIGN
PL6.E3A0      #004=FXU$PROJAD File=FXU$UTIL.:E05TSI                              TUE 07/29/97 20:35 Page:208
      5063>>ASSIGN   5066>>ASSIGN   5066>>ASSIGN   5066>>ASSIGN   5068>>IF       5068>>ASSIGN   5069>>IF
      5069>>IF       5069>>IF       5070>>ASSIGN   5070>>ASSIGN   5070>>ASSIGN   5071>>ASSIGN   5071>>ASSIGN
      5072>>IF       5072>>IF       5073>>ASSIGN   5073>>ASSIGN   5073>>ASSIGN   5081>>DOWHILE
RDPROJ.STATION_
      4369**DCL      4370--REDEF
RDPROJ.V
      4370**DCL      4366--DCLINIT
RDPROJ.V.DVBYTE.REREAD#
      4381**DCL      4381--REDEF
RDPROJ.V.INDX#
      4379**DCL      4379--REDEF
SYS_ACCT
      4347**DCL      4270--DCLINIT
WILD_XC
      4817**DCL      4946<<ASSIGN
WRPROJ
      4426**DCL      5019<>CALL
WRPROJ.BUF_
      4426**DCL      5067<<ASSIGN   5078>>DOWHILE
WRPROJ.BUF_.BOUND
      4426**DCL      5071<<ASSIGN   5073<<ASSIGN   5074>>IF       5074<<ASSIGN   5075>>IF       5076<<ASSIGN
WRPROJ.STATION_
      4428**DCL      4428--REDEF
WRPROJ.V
      4429**DCL      4426--DCLINIT
WRPROJ.V.DVBYTE.VFC#
      4435**DCL      4435--REDEF
X$PARSE
      4785**DCL-ENT  4867--CALL
