VERSION E05

PL6.E3A0      #001=FX_DATA_D File=FX_DATA_D.:E05TSI                              TUE 07/29/97 20:37 Page:1
        1        1        /*M*     FX_DATA_D - DATA FOR PIG */
        2        2        /*T***********************************************************/
        3        3        /*T*                                                         */
        4        4        /*T* Copyright (c) Bull HN Information Systems Inc., 1997    */
        5        5        /*T*                                                         */
        6        6        /*T***********************************************************/
        7        7        FX_DATA_D: PROC;
        8        8        %MACRO TEXTC(STCLASS=STATIC,FPTN=,NAME=);
        9        9        DCL 1 FPTN STCLASS,
       10       10         2 * UBIN(9)INIT(SIZEC(NAME))UNAL,
       11       11         2 * CHAR(0)INIT(NAME);
       12       12        %MEND;
       13       13        %TEXTC(FPTN=NONEWM,NAME="', NEWFDS'",STCLASS=CONSTANT);
       14       18        %TEXTC(FPTN=WRCMPM,NAME="', CHECKWRITE'",STCLASS=CONSTANT);
       15       23        %TEXTC(FPTN=WCDATAM,NAME="', DATACHECKWRITE'",STCLASS=CONSTANT);
       16       28        %TEXTC(FPTN=PROTM,NAME="', PROTECTED'",STCLASS=CONSTANT);
       17       33        %TEXTC(FPTN=NBUPM,NAME="', NO BACKUP'",STCLASS=CONSTANT);
       18       38        %TEXTC(FPTN=DBUPM,NAME="', DEFAULT BACKUP'",STCLASS=CONSTANT);
       19       43        %TEXTC(FPTN=NPURM,NAME="', NO PURGE'",STCLASS=CONSTANT);
       20       48        %TEXTC(FPTN=MMERGE,NAME="', MERGE'",STCLASS=CONSTANT);
       21       53        %TEXTC(FPTN=MUSERS,NAME=' users',STCLASS=CONSTANT);
       22       58        %TEXTC(FPTN=MNOTSET,NAME=' is not in use',STCLASS=CONSTANT);
       23       63        %TEXTC(FPTN=NOACM,NAME="', NO ACUP'",STCLASS=CONSTANT);
       24       68        %TEXTC(FPTN=MGRM,NAME="', MGRANS= 012345678901'");
       25       73        %TEXTC(FPTN=CGRM,NAME="', CGRANS= 012345678901'");
       26       78        %TEXTC(FPTN=CGMM,NAME="', CGMEM= 012345678901'");
       27       83        %TEXTC(FPTN=M#VSN,NAME=' has #123456789012');
       28       88        %TEXTC(FPTN=M#PSN,NAME=' of set #',STCLASS=CONSTANT);
       29       93        %TEXTC(FPTN=MSHARED,NAME="', shared'",STCLASS=CONSTANT);
       30       98        %TEXTC(FPTN=MAVAIL,NAME="', available'",STCLASS=CONSTANT);
       31      103        %TEXTC(FPTN=MLOCKED,NAME="', dismounting'",STCLASS=CONSTANT);
       32      108        %TEXTC(FPTN=MEMPTY,NAME=' not spinning',STCLASS=CONSTANT);
       33      113        %TEXTC(FPTN=MNUM,NAME="', 012345678901'");
       34      118        %TEXTC(FPTN=MRESERVD,NAME="', reserved for 012345678901'");
       35      123        %TEXTC(FPTN=MUSER,NAME="', sysid= 012345678901'");
       36      128        %TEXTC(FPTN=NSTOW,NAME="', NO STOW'",STCLASS=CONSTANT);
       37      133        %TEXTC(FPTN=MVOL#,NAME="', volume 012345678901'");
PL6.E3A0      #001=FX_DATA_D File=FX_DATA_D.:E05TSI                              TUE 07/29/97 20:37 Page:2
       38      138        %TEXTC(FPTN=MGACSHELF,NAME="', SHELFTIME'",STCLASS=CONSTANT);
       39      143        %TEXTC(FPTN=MMIRROR,NAME="', mirrored on DP'",STCLASS=CONSTANT);
       40      148        %TEXTC(FPTN=MMRRWAIT,NAME="', awaiting mirror device'",STCLASS=CONSTANT);
       41      153        %TEXTC(FPTN=MMRRRSTR,NAME="', restoring from DP'",STCLASS=CONSTANT);
       42      158        %TEXTC(FPTN=NILM,NAME=' UNDEFINED MESSAGE#',STCLASS=CONSTANT);
       43      163    1   DCL FX_MSG$(0:40)CONSTANT SYMDEF PTR INIT(
       44      164    1    ADDR(NONEWM),
       45      165    1    ADDR(WRCMPM),
       46      166    1   ADDR(WCDATAM),
       47      167    1    ADDR(PROTM),
       48      168    1    ADDR(NBUPM),
       49      169    1    ADDR(DBUPM),
       50      170    1    ADDR(NPURM),
       51      171    1    ADDR(MUSERS),
       52      172    1    ADDR(MNOTSET),
       53      173    1    ADDR(NOACM),
       54      174    1    ADDR(MMERGE),
       55      175    1    ADDR(CGMM),
       56      176    1    ADDR(NILM),
       57      177    1    ADDR(NILM),
       58      178    1    ADDR(MGRM),
       59      179    1    ADDR(CGRM),
       60      180    1    ADDR(M#VSN),
       61      181    1    ADDR(M#PSN),
       62      182    1    ADDR(MSHARED),
       63      183    1    ADDR(MAVAIL),
       64      184    1    ADDR(MLOCKED),
       65      185    1    ADDR(MEMPTY),
       66      186    1    ADDR(MNUM),
       67      187    1    ADDR(MRESERVD),
       68      188    1    ADDR(MUSER),
       69      189    1    ADDR(NSTOW),
       70      190    1    ADDR(MVOL#),
       71      191    1    ADDR(MGACSHELF),
       72      192    1    ADDR(MMIRROR),
       73      193    1    ADDR(MMRRWAIT),
       74      194    1    ADDR(MMRRRSTR),
PL6.E3A0      #001=FX_DATA_D File=FX_DATA_D.:E05TSI                              TUE 07/29/97 20:37 Page:3
       75      195    1    ADDR(NILM)*0);
       76      196    1   END FX_DATA_D;

PL6.E3A0      #001=FX_DATA_D File=FX_DATA_D.:E05TSI                              TUE 07/29/97 20:37 Page:4
      No diagnostics issued in procedure FX_DATA_D.

   No code generated for procedure FX_DATA_D .
   Procedure FX_DATA_D requires 4 words of local(AUTO) storage.

    No errors detected in file FX_DATA_D.:E05TSI    .

PL6.E3A0      #001=FX_DATA_D File=FX_DATA_D.:E05TSI                              TUE 07/29/97 20:37 Page:5

 Object Unit name= FX_DATA_D                                  File name= FX_DATA_D.:E05TOU
 UTS= JUL 29 '97 20:37:07.48 TUE                              Compiler= PL-6/E31         Sev=      00
 SharedLib= :SHARED_SYSTEM                                    Alt SharedLib=


    ****  Control sections  ****

 Sect   Type Bound  Init  Size OctSiz  Section name(segment info)
    0  RoData even  UTS    123    173  FX_DATA_D
    1   Data  even  none    46     56  FX_DATA_D
    2   Proc  even  none     0      0  FX_DATA_D

    ****  Entry defs  ****

                              Check   Calling
                             calling  sequence
  Sect OctLoc Primary Altret sequence   type   Parms  Name
     2      0   yes            yes     ~proc       0  FX_DATA_D

  ****  Data defs  ****

 Sect OctLoc  Name                           Sect OctLoc  Name
    0    122  FX_MSG$

  ****  Segment refs  ****

  Flags:  r = read only, s = secondary
Flgs Name                             Flgs Name                             Flgs Name
     ISSID
PL6.E3A0      #001=FX_DATA_D File=FX_DATA_D.:E05TSI                              TUE 07/29/97 20:37 Page:6

        1        1        /*M*     FX_DATA_D - DATA FOR PIG */
        2        2        /*T***********************************************************/
        3        3        /*T*                                                         */
        4        4        /*T* Copyright (c) Bull HN Information Systems Inc., 1997    */
        5        5        /*T*                                                         */
        6        6        /*T***********************************************************/
        7        7        FX_DATA_D: PROC;
        8        8        %MACRO TEXTC(STCLASS=STATIC,FPTN=,NAME=);
        9        9        DCL 1 FPTN STCLASS,
       10       10         2 * UBIN(9)INIT(SIZEC(NAME))UNAL,
       11       11         2 * CHAR(0)INIT(NAME);
       12       12        %MEND;
       13       13        %TEXTC(FPTN=NONEWM,NAME="', NEWFDS'",STCLASS=CONSTANT);
       14       18        %TEXTC(FPTN=WRCMPM,NAME="', CHECKWRITE'",STCLASS=CONSTANT);
       15       23        %TEXTC(FPTN=WCDATAM,NAME="', DATACHECKWRITE'",STCLASS=CONSTANT);
       16       28        %TEXTC(FPTN=PROTM,NAME="', PROTECTED'",STCLASS=CONSTANT);
       17       33        %TEXTC(FPTN=NBUPM,NAME="', NO BACKUP'",STCLASS=CONSTANT);
       18       38        %TEXTC(FPTN=DBUPM,NAME="', DEFAULT BACKUP'",STCLASS=CONSTANT);
       19       43        %TEXTC(FPTN=NPURM,NAME="', NO PURGE'",STCLASS=CONSTANT);
       20       48        %TEXTC(FPTN=MMERGE,NAME="', MERGE'",STCLASS=CONSTANT);
       21       53        %TEXTC(FPTN=MUSERS,NAME=' users',STCLASS=CONSTANT);
       22       58        %TEXTC(FPTN=MNOTSET,NAME=' is not in use',STCLASS=CONSTANT);
       23       63        %TEXTC(FPTN=NOACM,NAME="', NO ACUP'",STCLASS=CONSTANT);
       24       68        %TEXTC(FPTN=MGRM,NAME="', MGRANS= 012345678901'");
       25       73        %TEXTC(FPTN=CGRM,NAME="', CGRANS= 012345678901'");
       26       78        %TEXTC(FPTN=CGMM,NAME="', CGMEM= 012345678901'");
       27       83        %TEXTC(FPTN=M#VSN,NAME=' has #123456789012');
       28       88        %TEXTC(FPTN=M#PSN,NAME=' of set #',STCLASS=CONSTANT);
       29       93        %TEXTC(FPTN=MSHARED,NAME="', shared'",STCLASS=CONSTANT);
       30       98        %TEXTC(FPTN=MAVAIL,NAME="', available'",STCLASS=CONSTANT);
       31      103        %TEXTC(FPTN=MLOCKED,NAME="', dismounting'",STCLASS=CONSTANT);
       32      108        %TEXTC(FPTN=MEMPTY,NAME=' not spinning',STCLASS=CONSTANT);
       33      113        %TEXTC(FPTN=MNUM,NAME="', 012345678901'");
       34      118        %TEXTC(FPTN=MRESERVD,NAME="', reserved for 012345678901'");
       35      123        %TEXTC(FPTN=MUSER,NAME="', sysid= 012345678901'");
       36      128        %TEXTC(FPTN=NSTOW,NAME="', NO STOW'",STCLASS=CONSTANT);
       37      133        %TEXTC(FPTN=MVOL#,NAME="', volume 012345678901'");
PL6.E3A0      #001=FX_DATA_D File=FX_DATA_D.:E05TSI                              TUE 07/29/97 20:37 Page:7
       38      138        %TEXTC(FPTN=MGACSHELF,NAME="', SHELFTIME'",STCLASS=CONSTANT);
       39      143        %TEXTC(FPTN=MMIRROR,NAME="', mirrored on DP'",STCLASS=CONSTANT);
       40      148        %TEXTC(FPTN=MMRRWAIT,NAME="', awaiting mirror device'",STCLASS=CONSTANT);
       41      153        %TEXTC(FPTN=MMRRRSTR,NAME="', restoring from DP'",STCLASS=CONSTANT);
       42      158        %TEXTC(FPTN=NILM,NAME=' UNDEFINED MESSAGE#',STCLASS=CONSTANT);
       43      163    1   DCL FX_MSG$(0:40)CONSTANT SYMDEF PTR INIT(
       44      164    1    ADDR(NONEWM),
       45      165    1    ADDR(WRCMPM),
       46      166    1   ADDR(WCDATAM),
       47      167    1    ADDR(PROTM),
       48      168    1    ADDR(NBUPM),
       49      169    1    ADDR(DBUPM),
       50      170    1    ADDR(NPURM),
       51      171    1    ADDR(MUSERS),
       52      172    1    ADDR(MNOTSET),
       53      173    1    ADDR(NOACM),
       54      174    1    ADDR(MMERGE),
       55      175    1    ADDR(CGMM),
       56      176    1    ADDR(NILM),
       57      177    1    ADDR(NILM),
       58      178    1    ADDR(MGRM),
       59      179    1    ADDR(CGRM),
       60      180    1    ADDR(M#VSN),
       61      181    1    ADDR(M#PSN),
       62      182    1    ADDR(MSHARED),
       63      183    1    ADDR(MAVAIL),
       64      184    1    ADDR(MLOCKED),
       65      185    1    ADDR(MEMPTY),
       66      186    1    ADDR(MNUM),
       67      187    1    ADDR(MRESERVD),
       68      188    1    ADDR(MUSER),
       69      189    1    ADDR(NSTOW),
       70      190    1    ADDR(MVOL#),
       71      191    1    ADDR(MGACSHELF),
       72      192    1    ADDR(MMIRROR),
       73      193    1    ADDR(MMRRWAIT),
       74      194    1    ADDR(MMRRRSTR),
PL6.E3A0      #001=FX_DATA_D File=FX_DATA_D.:E05TSI                              TUE 07/29/97 20:37 Page:8
       75      195    1    ADDR(NILM)*0);
       76      196    1   END FX_DATA_D;

PL6.E3A0      #001=FX_DATA_D File=FX_DATA_D.:E05TSI                              TUE 07/29/97 20:37 Page:9
      No diagnostics issued in procedure FX_DATA_D.
PL6.E3A0      #001=FX_DATA_D File=FX_DATA_D.:E05TSI                              TUE 07/29/97 20:37 Page:10

 **** Variables and constants ****

  ****  Section 000 RoData FX_DATA_D

  ****  Scalars and arrays  ****
OctLoc.c.b A Datatyp(siz) R M Lvl/name                 OctLoc.c.b A Datatyp(siz) R M Lvl/name

    22-0-0/c STRC(153)   r     1 DBUPM                     45-0-0/c STRC(90)    r     1 M#PSN
    53-0-0/c STRC(108)   r     1 MAVAIL                    62-0-0/c STRC(126)   r     1 MEMPTY
    71-0-0/c STRC(108)   r     1 MGACSHELF                 56-0-0/c STRC(126)   r     1 MLOCKED
    32-0-0/c STRC(72)    r     1 MMERGE                    74-0-0/c STRC(153)   r     1 MMIRROR
   110-0-0/c STRC(180)   r     1 MMRRRSTR                 101-0-0/c STRC(225)   r     1 MMRRWAIT
    36-0-0/c STRC(135)   r     1 MNOTSET                   50-0-0/c STRC(81)    r     1 MSHARED
    34-0-0/c STRC(63)    r     1 MUSERS                    17-0-0/c STRC(108)   r     1 NBUPM
   115-0-0/c STRC(180)   r     1 NILM                      42-0-0/c STRC(90)    r     1 NOACM
     0-0-0/c STRC(81)    r     1 NONEWM                    27-0-0/c STRC(99)    r     1 NPURM
    66-0-0/c STRC(90)    r     1 NSTOW                     14-0-0/c STRC(108)   r     1 PROTM
     7-0-0/c STRC(153)   r     1 WCDATAM                    3-0-0/c STRC(117)   r     1 WRCMPM

  ****  Section 001  Data  FX_DATA_D

  ****  Scalars and arrays  ****
OctLoc.c.b A Datatyp(siz) R M Lvl/name                 OctLoc.c.b A Datatyp(siz) R M Lvl/name

    14-0-0/c STRC(198)   r     1 CGMM                       6-0-0/c STRC(207)   r     1 CGRM
    22-0-0/c STRC(171)   r     1 M#VSN                      0-0-0/c STRC(207)   r     1 MGRM
    27-0-0/c STRC(135)   r     1 MNUM                      33-0-0/c STRC(252)   r     1 MRESERVD
    42-0-0/c STRC(198)   r     1 MUSER                     50-0-0/c STRC(198)   r     1 MVOL#


   No code generated for procedure FX_DATA_D .
   Procedure FX_DATA_D requires 4 words of local(AUTO) storage.

    No errors detected in file FX_DATA_D.:E05TSI    .
PL6.E3A0      #001=FX_DATA_D File=FX_DATA_D.:E05TSI                              TUE 07/29/97 20:37 Page:11
          *** CROSS REFERENCE LISTING ***
**     DENOTES     IDENTIFIER DEFINITION
<<                 IDENTIFIER'S VALUE SET
>>                 IDENTIFIER'S VALUE USED
<>                 IDENTIFIER SET AND/OR USED
--                 IDENTIFIER REFERENCED
PL6.E3A0      #001=FX_DATA_D File=FX_DATA_D.:E05TSI                              TUE 07/29/97 20:37 Page:12
          MINI XREF LISTING

CGMM
        79**DCL       175--DCLINIT
CGRM
        74**DCL       179--DCLINIT
DBUPM
        39**DCL       169--DCLINIT
M#PSN
        89**DCL       181--DCLINIT
M#VSN
        84**DCL       180--DCLINIT
MAVAIL
        99**DCL       183--DCLINIT
MEMPTY
       109**DCL       185--DCLINIT
MGACSHELF
       139**DCL       191--DCLINIT
MGRM
        69**DCL       178--DCLINIT
MLOCKED
       104**DCL       184--DCLINIT
MMERGE
        49**DCL       174--DCLINIT
MMIRROR
       144**DCL       192--DCLINIT
MMRRRSTR
       154**DCL       194--DCLINIT
MMRRWAIT
       149**DCL       193--DCLINIT
MNOTSET
        59**DCL       172--DCLINIT
MNUM
       114**DCL       186--DCLINIT
PL6.E3A0      #001=FX_DATA_D File=FX_DATA_D.:E05TSI                              TUE 07/29/97 20:37 Page:13
MRESERVD
       119**DCL       187--DCLINIT
MSHARED
        94**DCL       182--DCLINIT
MUSER
       124**DCL       188--DCLINIT
MUSERS
        54**DCL       171--DCLINIT
MVOL#
       134**DCL       190--DCLINIT
NBUPM
        34**DCL       168--DCLINIT
NILM
       159**DCL       176--DCLINIT   177--DCLINIT   195--DCLINIT
NOACM
        64**DCL       173--DCLINIT
NONEWM
        14**DCL       164--DCLINIT
NPURM
        44**DCL       170--DCLINIT
NSTOW
       129**DCL       189--DCLINIT
PROTM
        29**DCL       167--DCLINIT
WCDATAM
        24**DCL       166--DCLINIT
WRCMPM
        19**DCL       165--DCLINIT
