VERSION E05

PL6.E3A0      #001=F_CODE_D File=F_CODE_D.:E05TSI                                TUE 07/29/97 20:39 Page:1
        1        1        /*M*   F_CODE_D - Table to convert TYC bits to error codes */
        2        2        /*T***********************************************************/
        3        3        /*T*                                                         */
        4        4        /*T* Copyright (c) Bull HN Information Systems Inc., 1997    */
        5        5        /*T*                                                         */
        6        6        /*T***********************************************************/
        7        7        /*X* */
        8        8
        9        9
       10       10
       11       11        F_CODE_D: PROC;
       12       12    1   DCL F_CODE (0:24) UBIN(9) CONSTANT SYMDEF
       13       13    1             UNAL INIT(0,1,2,3,4,5,6,7,8,9,6,11,12,13,14,15,16,17,18,19,20,21,22,23,24)
                13                      ;
       14       14    1   DCL F_SEV (0:24) UBIN(2) CONSTANT SYMDEF
       15       15    1             UNAL INIT(0,2*24);
       16       16    1   DCL F_TYCMAX SBIN WORD CONSTANT SYMDEF INIT(24);
       17       17    1   DCL F_TYCBITS(0:24) BIT(36) CONSTANT SYMDEF INIT('0'B,
       18       18    1             '6'O,'5'O,'44'O,'42'O,'41'O,'404'O,'402'O,'401'O,
       19       19    1             '4004'O,'4042'O,'4001'O,'40004'O,'40002'O,
       20       20    1             '40001'O,'400004'O,'400002'O,'400001'O,
       21       21    1             '4000004'O,'4000002'O,'4000001'O,'40000004'O,'40000002'O,
       22       22    1             '40000001'O,'400000004'O);
       23       23    1   END F_CODE_D;

PL6.E3A0      #001=F_CODE_D File=F_CODE_D.:E05TSI                                TUE 07/29/97 20:39 Page:2
      No diagnostics issued in procedure F_CODE_D.

   No code generated for procedure F_CODE_D .
   Procedure F_CODE_D requires 4 words of local(AUTO) storage.

    No errors detected in file F_CODE_D.:E05TSI    .

PL6.E3A0      #001=F_CODE_D File=F_CODE_D.:E05TSI                                TUE 07/29/97 20:39 Page:3

 Object Unit name= F_CODE_D                                   File name= F_CODE_D.:E05TOU
 UTS= JUL 29 '97 20:39:07.16 TUE                              Compiler= PL-6/E31         Sev=      00
 SharedLib= :SHARED_SYSTEM                                    Alt SharedLib=


    ****  Control sections  ****

 Sect   Type Bound  Init  Size OctSiz  Section name(segment info)
    0  RoData even  UTS     35     43  F_CODE_D
    1   Proc  even  none     0      0  F_CODE_D

    ****  Entry defs  ****

                              Check   Calling
                             calling  sequence
  Sect OctLoc Primary Altret sequence   type   Parms  Name
     1      0   yes            yes     ~proc       0  F_CODE_D

  ****  Data defs  ****

 Sect OctLoc  Name                           Sect OctLoc  Name
    0      0  F_CODE                             0      7  F_SEV
    0     11  F_TYCMAX                           0     12  F_TYCBITS
PL6.E3A0      #001=F_CODE_D File=F_CODE_D.:E05TSI                                TUE 07/29/97 20:39 Page:4


(unnamed)
 Sect OctLoc
   0     000   000001 002003   004005 006007   010011 006013   014015 016017    ................
   0     004   020021 022023   024025 026027   030*** ******   125252 525252    ............U...
   0     010   525240 000000   000000 000030   000000 000000   600000 000000    ................
   0     014   500000 000000   440000 000000   420000 000000   410000 000000    ................
   0     020   404000 000000   402000 000000   401000 000000   400400 000000    ................
   0     024   404200 000000   400100 000000   400040 000000   400020 000000    .....@... ......
   0     030   400010 000000   400004 000000   400002 000000   400001 000000    ................
   0     034   400000 400000   400000 200000   400000 100000   400000 040000    ..........@... .
   0     040   400000 020000   400000 010000   400000 004000                    ............
        1        1        /*M*   F_CODE_D - Table to convert TYC bits to error codes */
        2        2        /*T***********************************************************/
        3        3        /*T*                                                         */
        4        4        /*T* Copyright (c) Bull HN Information Systems Inc., 1997    */
        5        5        /*T*                                                         */
        6        6        /*T***********************************************************/
        7        7        /*X* */
        8        8
        9        9
       10       10
       11       11        F_CODE_D: PROC;
       12       12    1   DCL F_CODE (0:24) UBIN(9) CONSTANT SYMDEF
       13       13    1            UNAL INIT(0,1,2,3,4,5,6,7,8,9,6,11,12,13,14,15,16,17,18,19,20,21,22,23,24)
                13                      ;
       14       14    1   DCL F_SEV (0:24) UBIN(2) CONSTANT SYMDEF
       15       15    1             UNAL INIT(0,2*24);
       16       16    1   DCL F_TYCMAX SBIN WORD CONSTANT SYMDEF INIT(24);
       17       17    1   DCL F_TYCBITS(0:24) BIT(36) CONSTANT SYMDEF INIT('0'B,
       18       18    1             '6'O,'5'O,'44'O,'42'O,'41'O,'404'O,'402'O,'401'O,
       19       19    1             '4004'O,'4042'O,'4001'O,'40004'O,'40002'O,
       20       20    1             '40001'O,'400004'O,'400002'O,'400001'O,
       21       21    1             '4000004'O,'4000002'O,'4000001'O,'40000004'O,'40000002'O,
       22       22    1             '40000001'O,'400000004'O);
       23       23    1   END F_CODE_D;

PL6.E3A0      #001=F_CODE_D File=F_CODE_D.:E05TSI                                TUE 07/29/97 20:39 Page:5
      No diagnostics issued in procedure F_CODE_D.
PL6.E3A0      #001=F_CODE_D File=F_CODE_D.:E05TSI                                TUE 07/29/97 20:39 Page:6

 **** Variables and constants ****


   No code generated for procedure F_CODE_D .
   Procedure F_CODE_D requires 4 words of local(AUTO) storage.

    No errors detected in file F_CODE_D.:E05TSI    .
PL6.E3A0      #001=F_CODE_D File=F_CODE_D.:E05TSI                                TUE 07/29/97 20:39 Page:7
          *** CROSS REFERENCE LISTING ***
**     DENOTES     IDENTIFIER DEFINITION
<<                 IDENTIFIER'S VALUE SET
>>                 IDENTIFIER'S VALUE USED
<>                 IDENTIFIER SET AND/OR USED
--                 IDENTIFIER REFERENCED
PL6.E3A0      #001=F_CODE_D File=F_CODE_D.:E05TSI                                TUE 07/29/97 20:39 Page:8
          MINI XREF LISTING

PL6.E3A0      #001=F_CODE_D File=F_CODE_D.:E05TSI                                TUE 07/29/97 20:39 Page:9
          *** CROSS REFERENCE LISTING ***
**     DENOTES     IDENTIFIER DEFINITION
<<                 IDENTIFIER'S VALUE SET
>>                 IDENTIFIER'S VALUE USED
<>                 IDENTIFIER SET AND/OR USED
--                 IDENTIFIER REFERENCED
PL6.E3A0      #001=F_CODE_D File=F_CODE_D.:E05TSI                                TUE 07/29/97 20:39 Page:10
          MINI UREF LISTING

F_CODE      12**DCL
F_CODE_D      11**PROC
F_SEV      14**DCL
F_TYCBITS      17**DCL
F_TYCMAX      16**DCL
