PL6.E3A0      #006=GDB$KILL_BRKPNT File=GDB$BRKPNTS.:E05TSI                      TUE 07/29/97 21:27 Page:288
     1661        1        /*T***********************************************************/
     1662        2        /*T*                                                         */
     1663        3        /*T* Copyright (c) Bull HN Information Systems Inc., 1997    */
     1664        4        /*T*                                                         */
     1665        5        /*T***********************************************************/
     1666        6              %EJECT;
PL6.E3A0      #006=GDB$KILL_BRKPNT File=GDB$BRKPNTS.:E05TSI                      TUE 07/29/97 21:27 Page:289
     1667        7        /*F*    NAME:     GDB$KILL_BRKPNT
     1668        8                PURPOSE:  This routine is called to remove a single breakpoint
     1669        9                          from the breakpoint table.
     1670       10                CALL:     CALL GDB$KILL_BRKPNT
     1671       11                DESCRIPTION:  This routine is called with a message buffer of
     1672       12                              the kill breakpoint format.  It removes the
     1673       13                              breakpoint from the BRK$->BRKPNT and restores the
     1674       14                              contents of memory.
     1675       15                                                                                     */
     1676       16        GDB$KILL_BRKPNT: PROC(SIZE,BUFFER);
     1677       17                                               /* INCLUDES                           */
     1678       18        %INCLUDE LCP_6;                     /* Various LCP6 EQUs                  */
     1679      209        %INCLUDE GD_STATIC_DATA;
     1680      682        %INCLUDE GD$MACS_M;                    /* Various debugger macros            */
     1681      720        %INCLUDE KH$CHN;
     1682      842        %INCLUDE GD_BRKPNT_M;
     1683      897                                               /* SYMREFS                            */
     1684      898                                               /* ENTRYS                             */
     1685      899    1   DCL GDI$SEND_ERROR_RESPONSE ENTRY(3);
     1686      900                                               /* ARGS                               */
     1687      901    1   DCL BUFFER CHAR(SIZE) ALIGNED;         /* Message buffer                     */
     1688      902        %GD$MSG(STCLASS=REDEF BUFFER);         /* Message template                   */
     1689     1058    1   DCL SIZE UBIN;                         /* Size of buffer                     */
     1690     1059                                               /* BASED                              */
     1691     1060    1   DCL MEMORY UBIN BASED;
     1692     1061    1   DCL BITMEM BIT(16) BASED ALIGNED;
     1693     1062        %GD_BRKPNT(FPTN=BRKPNT,STCLASS=BASED,LAST=";");
     1694     1079        %GD_BRKPNT(FPTN=IFBRKPNT,STCLASS=BASED,LAST=",");
     1695     1096        %GD_IFCOND(FPTN=IFCOND,LVL=2);
     1696     1120        %GD_DATA_DESC(FPTN=DD,STCLASS=BASED);
     1697     1127        /**/
     1698     1128        /* LOCAL VARS */
     1699     1129        /**/
     1700     1130    1   DCL BRK$ PTR;
     1701     1131    1   DCL FREESIZE SBIN;
     1702     1132    1   DCL MOVETO$ PTR;
     1703     1133    1   DCL MOVEFROM$ PTR;
PL6.E3A0      #006=GDB$KILL_BRKPNT File=GDB$BRKPNTS.:E05TSI                      TUE 07/29/97 21:27 Page:290
     1704     1134    1   DCL PREV$ PTR;
     1705     1135    1   DCL I UBIN;
     1706     1136        %EJECT;
PL6.E3A0      #006=GDB$KILL_BRKPNT File=GDB$BRKPNTS.:E05TSI                      TUE 07/29/97 21:27 Page:291
     1707     1137        /* Make sure that the number is valid */
     1708     1138
     1709     1139    1           SIZE = %GD#RSPACKSIZE;
     1710     1140    1           BRK$ = ADDR(GD_DATA.MYSPACE(0));
     1711     1141    1              PREV$ = ADDR(NIL);
     1712     1142    2              IF GD$MSG.KILLRQS.BRK# = GD_DATA.GD.OC_BRKNUM THEN DO;
     1713     1143    2                 GD_DATA.GD.OC_BRKNUM = 0;
     1714     1144    2                 GD_DATA.GD.ONCALLS = '0'B;
     1715     1145    2                 GD_DATA.GD.ONCALLS_BRK$ = ADDR(NIL);
     1716     1146    2                 GOTO SEND_ACK;
     1717     1147    2                 END;
     1718     1148    1              IF BRK$ = GD_DATA.GD.DYNSP$ OR GD$MSG.KILLRQS.BRK# = 0 THEN
     1719     1149    1                 CALL GDI$SEND_ERROR_RESPONSE(SIZE,BUFFER,%GD#RSPNAK);
     1720     1150    1              ELSE
     1721     1151    2                 DO WHILE BRK$ ~= ADDR(NIL);
     1722     1152    3                    IF BRK$->BRKPNT.BRKNUM = GD$MSG.KILLRQS.BRK# THEN DO;
     1723     1153    4                       IF BRK$ = GD_DATA.GD.BRK$ THEN DO;
     1724     1154    4                          GD_DATA.GD.BRK$ = ADDR(NIL);
     1725     1155    4                          GD_DATA.GD.BRKNUM = 0;
     1726     1156    5                          IF BRK$->BRKPNT.FLAGS.ONCALL THEN DO;
     1727     1157    5                             GD_DATA.GD.ONCALL$ = ADDR(NIL);
     1728     1158    5                             GD_DATA.GD.ONCALL = '0'B;
     1729     1159    5                             END;
     1730     1160    4                          END;
     1731     1161    3                       IF PREV$ = ADDR(NIL) AND
     1732     1162    4                          BRK$->BRKPNT.FLINK$ = ADDR(NIL) THEN DO;
     1733     1163    4                          IF BRK$->BRKPNT.FLAGS.IFCOND THEN
     1734     1164    4                             BRK$->IFBRKPNT = '0'B;
     1735     1165    4                          ELSE
     1736     1166    4                             BRK$->BRKPNT = '0'B;
     1737     1167    4                          GD_DATA.GD.DYNSP$ = ADDR(GD_DATA.MYSPACE(0));
     1738     1168    4                          GOTO SEND_ACK;
     1739     1169    4                          END;
     1740     1170    4                       ELSE IF BRK$->BRKPNT.FLINK$ = ADDR(NIL) THEN DO;
     1741     1171    4                                 PREV$->BRKPNT.FLINK$ = ADDR(NIL);
     1742     1172    4                                 GOTO SEND_ACK;
     1743     1173    4                               END;
PL6.E3A0      #006=GDB$KILL_BRKPNT File=GDB$BRKPNTS.:E05TSI                      TUE 07/29/97 21:27 Page:292
     1744     1174    4                            ELSE DO;
     1745     1175    4                          IF BRK$->BRKPNT.FLAGS.IFCOND THEN
     1746     1176    4                             FREESIZE = SIZEW(IFBRKPNT) +
     1747     1177    4                                BRK$->IFBRKPNT.IFCOND.DD_SIZE;
     1748     1178    4                          ELSE FREESIZE = SIZEW(BRKPNT);
     1749     1179    4                          MOVETO$ = BRK$;
     1750     1180    4                          MOVEFROM$ = BRK$->BRKPNT.FLINK$;
     1751     1181    4                          IF GD_DATA.GD.BRK$ = MOVEFROM$
     1752     1182    4                          THEN GD_DATA.GD.BRK$ = MOVETO$;
     1753     1183    4                          IF GD_DATA.GD.ONCALLS_BRK$ = MOVEFROM$
     1754     1184    4                          THEN GD_DATA.GD.ONCALLS_BRK$ = MOVETO$;
     1755     1185    5                          DO WHILE POFFW(GD_DATA.GD.DYNSP$,MOVEFROM$) > 0;
     1756     1186    5                             MOVETO$->BITMEM = MOVEFROM$->BITMEM;
     1757     1187    5                             MOVETO$ = PINCRW(MOVETO$,1);
     1758     1188    5                             MOVEFROM$ = PINCRW(MOVEFROM$,1);
     1759     1189    5                             END;
     1760     1190    5                          DO WHILE (BRK$ ~= ADDR(NIL) AND
     1761     1191    5                                   BRK$->BRKPNT.FLINK$ ~= ADDR(NIL));
     1762     1192    5                             BRK$->BRKPNT.FLINK$ =
     1763     1193    5                                PINCRW(BRK$->BRKPNT.FLINK$,-FREESIZE);
     1764     1194    5                             BRK$ = BRK$->BRKPNT.FLINK$;
     1765     1195    5                             END;
     1766     1196    4                          GD_DATA.GD.DYNSP$ = PINCRW(GD_DATA.GD.DYNSP$,-FREESIZE);
     1767     1197    4   SEND_ACK:
     1768     1198    4                          CALL GDI$SEND_ERROR_RESPONSE(SIZE,BUFFER,%GD#RSPACK);
     1769     1199    4                          RETURN;
     1770     1200    4                          END;
     1771     1201    3                       END;
     1772     1202    3                    ELSE DO;
     1773     1203    3                       PREV$ = BRK$;
     1774     1204    3                       BRK$ = BRK$->BRKPNT.FLINK$;
     1775     1205    3                       END;
     1776     1206    2                    END;
     1777     1207
     1778     1208    1                 CALL GDI$SEND_ERROR_RESPONSE(SIZE,BUFFER,%GD#RSPNAK);
     1779     1209
     1780     1210    1           RETURN;
PL6.E3A0      #006=GDB$KILL_BRKPNT File=GDB$BRKPNTS.:E05TSI                      TUE 07/29/97 21:27 Page:293
     1781     1211
     1782     1212    1   END GDB$KILL_BRKPNT;
     1783     1213        %EOD;

PL6.E3A0      #006=GDB$KILL_BRKPNT File=GDB$BRKPNTS.:E05TSI                      TUE 07/29/97 21:27 Page:294
--  Include file information  --

   GD_BRKPNT_M.:E05TOU  is referenced.
   KH$CHN.:E05TOU  is referenced.
   GD$MACS_M.:E05TOU  is referenced.
   GD$MSG_M.:E05TOU  is referenced.
   GDA_EQUS_E.:E05TOU  is referenced.
   GD_EQUS_E.:E05TOU  is referenced.
   GD_DATA_M.:E05TOU  is referenced.
   GD_STATIC_DATA.:E05TOU  cannot be made into a system file and is referenced.
   LCP_6.:E05TOU  cannot be made into a system file and is referenced.
   G_LCP6_E.:E05TOU  was found in the system file and is referenced.
   GT_LCP6_M.:E05TOU  was found in the system file and is referenced.
   KI_CP6.:E05TOU  was found in the system file and is referenced.
   GF_LCP6_M.:E05TOU  was found in the system file and is referenced.
   GM_LCP6_M.:E05TOU  was found in the system file and is referenced.
   GU_LCP6_M.:E05TOU  was found in the system file and is referenced.
   GJ_LCP6_M.:E05TOU  was found in the system file and is referenced.
   GH_LCP6_M.:E05TOU  was found in the system file and is referenced.
      No diagnostics issued in procedure GDB$KILL_BRKPNT.

   Procedure GDB$KILL_BRKPNT requires 321 words for executable code.
   Procedure GDB$KILL_BRKPNT requires 24 words of local(AUTO) storage.

PL6.E3A0      #006=GDB$KILL_BRKPNT File=GDB$BRKPNTS.:E05TSI                      TUE 07/29/97 21:27 Page:295

 Object Unit name= GDB$KILL_BRKPNT                            File name= GDB$BRKPNTS.:E05TOU
 UTS= JUL 29 '97 21:27:45.12 TUE                              Compiler= PL-6/E31         Sev=      00
 SharedLib= :SHARED_LCP6_SYSTEM                               Alt SharedLib=


    ****  Control sections  ****

 Sect   Type Bound  Init  Size HexSiz  Section name
    0   Proc  even  none   321    141  GDB$KILL_BRKPNT

    ****  Entry defs  ****

                              Check   Calling
                             calling  sequence
  Sect HexLoc Primary Altret sequence   type   Parms  Name
     0      0   yes            yes      Std        2  GDB$KILL_BRKPNT

  ****  Entry refs  ****

         Check        Calling
        calling       sequence
Altret sequence SRef   type   Args  Name
         yes           Std       3 GDI$SEND_ERROR_RESPONSE
                       nStd      0 X6A_AUTO_2
                       nStd      0 X6A_ARET

  ****  Data refs  ****

  Flags:  r = read only, s = secondary
Flgs Name                             Flgs Name                             Flgs Name
     GD$DELTA_DATA$                   r    G$ROS$
PL6.E3A0      #006=GDB$KILL_BRKPNT File=GDB$BRKPNTS.:E05TSI                      TUE 07/29/97 21:27 Page:296


     1661        1        /*T***********************************************************/
     1662        2        /*T*                                                         */
     1663        3        /*T* Copyright (c) Bull HN Information Systems Inc., 1997    */
     1664        4        /*T*                                                         */
     1665        5        /*T***********************************************************/
     1666        6              %EJECT;
PL6.E3A0      #006=GDB$KILL_BRKPNT File=GDB$BRKPNTS.:E05TSI                      TUE 07/29/97 21:27 Page:297
     1667        7        /*F*    NAME:     GDB$KILL_BRKPNT
     1668        8                PURPOSE:  This routine is called to remove a single breakpoint
     1669        9                          from the breakpoint table.
     1670       10                CALL:     CALL GDB$KILL_BRKPNT
     1671       11                DESCRIPTION:  This routine is called with a message buffer of
     1672       12                              the kill breakpoint format.  It removes the
     1673       13                              breakpoint from the BRK$->BRKPNT and restores the
     1674       14                              contents of memory.
     1675       15                                                                                     */
     1676       16        GDB$KILL_BRKPNT: PROC(SIZE,BUFFER);

     16   0 000000  D380 0000 0000  xent GDB$KILL_BRKPNT LNJ,B5   X6A_AUTO_2
          0 000003       0018 0002                       DC       24,2

     1677       17                                               /* INCLUDES                           */
     1678       18        %INCLUDE LCP_6;                     /* Various LCP6 EQUs                  */
     1679      209        %INCLUDE GD_STATIC_DATA;
     1680      682        %INCLUDE GD$MACS_M;                    /* Various debugger macros            */
     1681      720        %INCLUDE KH$CHN;
     1682      842        %INCLUDE GD_BRKPNT_M;
     1683      897                                               /* SYMREFS                            */
     1684      898                                               /* ENTRYS                             */
     1685      899    1   DCL GDI$SEND_ERROR_RESPONSE ENTRY(3);
     1686      900                                               /* ARGS                               */
     1687      901    1   DCL BUFFER CHAR(SIZE) ALIGNED;         /* Message buffer                     */
     1688      902        %GD$MSG(STCLASS=REDEF BUFFER);         /* Message template                   */
     1689     1058    1   DCL SIZE UBIN;                         /* Size of buffer                     */
     1690     1059                                               /* BASED                              */
     1691     1060    1   DCL MEMORY UBIN BASED;
     1692     1061    1   DCL BITMEM BIT(16) BASED ALIGNED;
     1693     1062        %GD_BRKPNT(FPTN=BRKPNT,STCLASS=BASED,LAST=";");
     1694     1079        %GD_BRKPNT(FPTN=IFBRKPNT,STCLASS=BASED,LAST=",");
     1695     1096        %GD_IFCOND(FPTN=IFCOND,LVL=2);
     1696     1120        %GD_DATA_DESC(FPTN=DD,STCLASS=BASED);
     1697     1127        /**/
     1698     1128        /* LOCAL VARS */
     1699     1129        /**/
PL6.E3A0      #006=GDB$KILL_BRKPNT File=GDB$BRKPNTS.:E05TSI                      TUE 07/29/97 21:27 Page:298
     1700     1130    1   DCL BRK$ PTR;
     1701     1131    1   DCL FREESIZE SBIN;
     1702     1132    1   DCL MOVETO$ PTR;
     1703     1133    1   DCL MOVEFROM$ PTR;
     1704     1134    1   DCL PREV$ PTR;
     1705     1135    1   DCL I UBIN;
     1706     1136        %EJECT;
PL6.E3A0      #006=GDB$KILL_BRKPNT File=GDB$BRKPNTS.:E05TSI                      TUE 07/29/97 21:27 Page:299
     1707     1137        /* Make sure that the number is valid */
     1708     1138
     1709     1139    1           SIZE = %GD#RSPACKSIZE;

   1139   0 000005  ECC7 0004                            LDB,B6   @SIZE,AUTO
          0 000007  6C40                                 LDV,R6   64
          0 000008  EF06                                 STR,R6   ,B6

     1710     1140    1           BRK$ = ADDR(GD_DATA.MYSPACE(0));

   1140   0 000009  DC80 0000 0000  xsym                 LDB,B5   GD$DELTA_DATA$
          0 00000C  CBC5 01AE                            LAB,B4   430,B5
          0 00000E  CFC7 0008                            STB,B4   BRK$,AUTO

     1711     1141    1              PREV$ = ADDR(NIL);

   1141   0 000010  BB80 0000 0000                       LAB,B3   0
          0 000013  BFC7 000F                            STB,B3   PREV$,AUTO

     1712     1142    2              IF GD$MSG.KILLRQS.BRK# = GD_DATA.GD.OC_BRKNUM THEN DO;

   1142   0 000015  ACC7 0006                            LDB,B2   @BUFFER,AUTO
          0 000017  D2C2 0001                            LLH,R5   1,B2
          0 000019  D945 0131                            CMR,R5   305,B5
          0 00001B  0981 000D                            BNE      s:1148,PREL

     1713     1143    2                 GD_DATA.GD.OC_BRKNUM = 0;

   1143   0 00001D  8745 0131                            CL       305,B5

     1714     1144    2                 GD_DATA.GD.ONCALLS = '0'B;

   1144   0 00001F  8845 014C                            LBF,'1000'X       332,B5
   1144   0 000021       1000

     1715     1145    2                 GD_DATA.GD.ONCALLS_BRK$ = ADDR(NIL);

PL6.E3A0      #006=GDB$KILL_BRKPNT File=GDB$BRKPNTS.:E05TSI                      TUE 07/29/97 21:27 Page:300
   1145   0 000022  9B80 0000 0000                       LAB,B1   0
          0 000025  9FC5 0135                            STB,B1   309,B5

     1716     1146    2                 GOTO SEND_ACK;

   1146   0 000027  0F81 00E2                            B        s:1198,PREL

     1717     1147    2                 END;
     1718     1148    1              IF BRK$ = GD_DATA.GD.DYNSP$ OR GD$MSG.KILLRQS.BRK# = 0 THEN

   1148   0 000029  CDC5 0156                            CMB,B4   342,B5
          0 00002B  0901 0003                            BE       s:1149,PREL
          0 00002D  5981 0013                            BNEZ,R5  s:1151,PREL

     1719     1149    1                 CALL GDI$SEND_ERROR_RESPONSE(SIZE,BUFFER,%GD#RSPNAK);

   1149   0 00002F  9BF0 0034                            LAB,B1   52,IMO
          0 000031  9FC7 0016                            STB,B1   PREV$+7,AUTO
          0 000033  AFC7 0014                            STB,B2   PREV$+5,AUTO
          0 000035  EFC7 0012                            STB,B6   PREV$+3,AUTO
          0 000037  BBC7 0012                            LAB,B3   PREV$+3,AUTO
          0 000039  CBF0 0300                            LAB,B4   768,IMO
          0 00003B  E380 0000 0000  xent                 LNJ,B6   GDI$SEND_ERROR_RESPONSE
          0 00003E       0001                            DC       s:1149+16,PREL
          0 00003F  0F81 00EA                            B        s:1208,PREL

     1720     1150    1              ELSE
     1721     1151    2                 DO WHILE BRK$ ~= ADDR(NIL);

   1151   0 000041  0F81 00E4                            B        s:1206,PREL

     1722     1152    3                    IF BRK$->BRKPNT.BRKNUM = GD$MSG.KILLRQS.BRK# THEN DO;

   1152   0 000043  ECC7 0008                            LDB,B6   BRK$,AUTO
          0 000045  DCC7 0006                            LDB,B5   @BUFFER,AUTO
          0 000047  E2C5 0001                            LLH,R6   1,B5
          0 000049  E946 0002                            CMR,R6   2,B6
PL6.E3A0      #006=GDB$KILL_BRKPNT File=GDB$BRKPNTS.:E05TSI                      TUE 07/29/97 21:27 Page:301
          0 00004B  0981 00D5                            BNE      s:1203,PREL

     1723     1153    4                       IF BRK$ = GD_DATA.GD.BRK$ THEN DO;

   1153   0 00004D  CC80 0000 0000  xsym                 LDB,B4   GD$DELTA_DATA$
          0 000050  EDC4 0159                            CMB,B6   345,B4
          0 000052  0981 0015                            BNE      s:1161,PREL

     1724     1154    4                          GD_DATA.GD.BRK$ = ADDR(NIL);

   1154   0 000054  BB80 0000 0000                       LAB,B3   0
          0 000057  BFC4 0159                            STB,B3   345,B4

     1725     1155    4                          GD_DATA.GD.BRKNUM = 0;

   1155   0 000059  8744 0158                            CL       344,B4

     1726     1156    5                          IF BRK$->BRKPNT.FLAGS.ONCALL THEN DO;

   1156   0 00005B  82C6 000A                            LB,'0800'X        10,B6
   1156   0 00005D       0800
          0 00005E  0581 0009                            BBF      s:1161,PREL

     1727     1157    5                             GD_DATA.GD.ONCALL$ = ADDR(NIL);

   1157   0 000060  AB80 0000 0000                       LAB,B2   0
          0 000063  AFC4 014E                            STB,B2   334,B4

     1728     1158    5                             GD_DATA.GD.ONCALL = '0'B;

   1158   0 000065  8844 014C                            LBF,'0800'X       332,B4
   1158   0 000067       0800

     1729     1159    5                             END;

     1730     1160    4                          END;

PL6.E3A0      #006=GDB$KILL_BRKPNT File=GDB$BRKPNTS.:E05TSI                      TUE 07/29/97 21:27 Page:302
     1731     1161    3                       IF PREV$ = ADDR(NIL) AND

   1161   0 000068  8DC7 000F                            CMN      PREV$,AUTO
          0 00006A  0981 0022                            BNE      s:1170,PREL
          0 00006C  8D86                                 CMN      ,B6
          0 00006D  0981 001F                            BNE      s:1170,PREL

     1732     1162    4                          BRK$->BRKPNT.FLINK$ = ADDR(NIL) THEN DO;

     1733     1163    4                          IF BRK$->BRKPNT.FLAGS.IFCOND THEN

   1163   0 00006F  82C6 000A                            LB,'1000'X        10,B6
   1163   0 000071       1000
          0 000072  0581 000A                            BBF      s:1166,PREL

     1734     1164    4                             BRK$->IFBRKPNT = '0'B;

   1164   0 000074  5C60                                 LDV,R5   96
          0 000075  0021                                 ALR      ;
          0 000076       4178 0000                                ALPHANUM('0000'X,IMO,,1),;
          0 000078       4006 0000                                ALPHANUM(0,B6,,R5,FILL)
          0 00007A  437F                                 CSYNC    s:1164+5,SPREL
          0 00007B  0F81 0007                            B        s:1167,PREL

     1735     1165    4                          ELSE
     1736     1166    4                             BRK$->BRKPNT = '0'B;

   1166   0 00007D  5C16                                 LDV,R5   22
          0 00007E  0021                                 ALR      ;
          0 00007F       4178 0000                                ALPHANUM('0000'X,IMO,,1),;
          0 000081       4006 0000                                ALPHANUM(0,B6,,R5,FILL)

     1737     1167    4                          GD_DATA.GD.DYNSP$ = ADDR(GD_DATA.MYSPACE(0));

   1167   0 000083  437F                                 CSYNC    s:1166+5,SPREL
          0 000084  EC80 0000 0000  xsym                 LDB,B6   GD$DELTA_DATA$
          0 000087  CBC6 01AE                            LAB,B4   430,B6
PL6.E3A0      #006=GDB$KILL_BRKPNT File=GDB$BRKPNTS.:E05TSI                      TUE 07/29/97 21:27 Page:303
          0 000089  CFC6 0156                            STB,B4   342,B6

     1738     1168    4                          GOTO SEND_ACK;

   1168   0 00008B  0F81 007E                            B        s:1198,PREL

     1739     1169    4                          END;
     1740     1170    4                       ELSE IF BRK$->BRKPNT.FLINK$ = ADDR(NIL) THEN DO;

   1170   0 00008D  8D86                                 CMN      ,B6
          0 00008E  0981 0009                            BNE      s:1175,PREL

     1741     1171    4                                 PREV$->BRKPNT.FLINK$ = ADDR(NIL);

   1171   0 000090  BB80 0000 0000                       LAB,B3   0
          0 000093  ACC7 000F                            LDB,B2   PREV$,AUTO
          0 000095  BF82                                 STB,B3   ,B2

     1742     1172    4                                 GOTO SEND_ACK;

   1172   0 000096  0F81 0073                            B        s:1198,PREL

     1743     1173    4                               END;
     1744     1174    4                            ELSE DO;

     1745     1175    4                          IF BRK$->BRKPNT.FLAGS.IFCOND THEN

   1175   0 000098  82C6 000A                            LB,'1000'X        10,B6
   1175   0 00009A       1000
          0 00009B  0581 0008                            BBF      s:1178,PREL

     1746     1176    4                             FREESIZE = SIZEW(IFBRKPNT) +

   1176   0 00009D  E846 002D                            LDR,R6   45,B6
          0 00009F  6E30                                 ADV,R6   48
          0 0000A0  EF47 000A                            STR,R6   FREESIZE,AUTO
          0 0000A2  0F81 0004                            B        s:1179,PREL
PL6.E3A0      #006=GDB$KILL_BRKPNT File=GDB$BRKPNTS.:E05TSI                      TUE 07/29/97 21:27 Page:304

     1747     1177    4                                BRK$->IFBRKPNT.IFCOND.DD_SIZE;
     1748     1178    4                          ELSE FREESIZE = SIZEW(BRKPNT);

   1178   0 0000A4  6C0B                                 LDV,R6   11
          0 0000A5  EF47 000A                            STR,R6   FREESIZE,AUTO

     1749     1179    4                          MOVETO$ = BRK$;

   1179   0 0000A7  EFC7 000B                            STB,B6   MOVETO$,AUTO

     1750     1180    4                          MOVEFROM$ = BRK$->BRKPNT.FLINK$;

   1180   0 0000A9  BC86                                 LDB,B3   ,B6
          0 0000AA  BFC7 000D                            STB,B3   MOVEFROM$,AUTO

     1751     1181    4                          IF GD_DATA.GD.BRK$ = MOVEFROM$

   1181   0 0000AC  ACC4 0159                            LDB,B2   345,B4
          0 0000AE  ADC7 000D                            CMB,B2   MOVEFROM$,AUTO
          0 0000B0  0981 0003                            BNE      s:1183,PREL

     1752     1182    4                          THEN GD_DATA.GD.BRK$ = MOVETO$;

   1182   0 0000B2  EFC4 0159                            STB,B6   345,B4

     1753     1183    4                          IF GD_DATA.GD.ONCALLS_BRK$ = MOVEFROM$

   1183   0 0000B4  ACC4 0135                            LDB,B2   309,B4
          0 0000B6  ADC7 000D                            CMB,B2   MOVEFROM$,AUTO
          0 0000B8  0981 0003                            BNE      s:1185,PREL

     1754     1184    4                          THEN GD_DATA.GD.ONCALLS_BRK$ = MOVETO$;

   1184   0 0000BA  EFC4 0135                            STB,B6   309,B4

     1755     1185    5                          DO WHILE POFFW(GD_DATA.GD.DYNSP$,MOVEFROM$) > 0;
PL6.E3A0      #006=GDB$KILL_BRKPNT File=GDB$BRKPNTS.:E05TSI                      TUE 07/29/97 21:27 Page:305

   1185   0 0000BC  0F81 000F                            B        s:1189,PREL

     1756     1186    5                             MOVETO$->BITMEM = MOVEFROM$->BITMEM;

   1186   0 0000BE  ECC7 000B                            LDB,B6   MOVETO$,AUTO
          0 0000C0  DCC7 000D                            LDB,B5   MOVEFROM$,AUTO
          0 0000C2  E805                                 LDR,R6   ,B5
          0 0000C3  EF06                                 STR,R6   ,B6

     1757     1187    5                             MOVETO$ = PINCRW(MOVETO$,1);

   1187   0 0000C4  CBC6 0001                            LAB,B4   1,B6
          0 0000C6  CFC7 000B                            STB,B4   MOVETO$,AUTO

     1758     1188    5                             MOVEFROM$ = PINCRW(MOVEFROM$,1);

   1188   0 0000C8  EBC5 0001                            LAB,B6   1,B5
          0 0000CA  EFC7 000D                            STB,B6   MOVEFROM$,AUTO

     1759     1189    5                             END;

   1189   0 0000CC  EC80 0000 0000  xsym                 LDB,B6   GD$DELTA_DATA$
          0 0000CF  8CC6 0156                            LDI      342,B6
          0 0000D1  84C7 000D                            SID      MOVEFROM$,AUTO
          0 0000D3  84F0 0000 0000                       SID      0,IMO
          0 0000D6  6A68                                 BGZ,R6   s:1186,SPREL
          0 0000D7  6801 0002                            BLZ,R6   s:1190,PREL
          0 0000D9  79E5                                 BNEZ,R7  s:1186,SPREL

     1760     1190    5                          DO WHILE (BRK$ ~= ADDR(NIL) AND

   1190   0 0000DA  0F81 0014                            B        s:1195,PREL

     1761     1191    5                                   BRK$->BRKPNT.FLINK$ ~= ADDR(NIL));
     1762     1192    5                             BRK$->BRKPNT.FLINK$ =

PL6.E3A0      #006=GDB$KILL_BRKPNT File=GDB$BRKPNTS.:E05TSI                      TUE 07/29/97 21:27 Page:306
   1192   0 0000DC  ECC7 0008                            LDB,B6   BRK$,AUTO
          0 0000DE  DC86                                 LDB,B5   ,B6
          0 0000DF  DFC7 0012                            STB,B5   PREV$+3,AUTO
          0 0000E1  E847 000A                            LDR,R6   FREESIZE,AUTO
          0 0000E3  70F0                                 DAR,R7   16
          0 0000E4  84C7 0012                            SID      PREV$+3,AUTO
          0 0000E6  8656                                 CPL      R6
          0 0000E7  8657                                 CPL      R7
          0 0000E8  8470 0000 0001                       AID      1,IMO
          0 0000EB  8D06                                 SDI      ,B6

     1763     1193    5                                PINCRW(BRK$->BRKPNT.FLINK$,-FREESIZE);
     1764     1194    5                             BRK$ = BRK$->BRKPNT.FLINK$;

   1194   0 0000EC  DC86                                 LDB,B5   ,B6
          0 0000ED  DFC7 0008                            STB,B5   BRK$,AUTO

     1765     1195    5                             END;

   1195   0 0000EF  8DC7 0008                            CMN      BRK$,AUTO
          0 0000F1  0901 0005                            BE       s:1196,PREL
          0 0000F3  ECC7 0008                            LDB,B6   BRK$,AUTO
          0 0000F5  8D86                                 CMN      ,B6
          0 0000F6  09E6                                 BNE      s:1192,SPREL

     1766     1196    4                          GD_DATA.GD.DYNSP$ = PINCRW(GD_DATA.GD.DYNSP$,-FREESIZE);

   1196   0 0000F7  EC80 0000 0000  xsym                 LDB,B6   GD$DELTA_DATA$
          0 0000FA  DCC6 0156                            LDB,B5   342,B6
          0 0000FC  DFC7 0012                            STB,B5   PREV$+3,AUTO
          0 0000FE  E847 000A                            LDR,R6   FREESIZE,AUTO
          0 000100  70F0                                 DAR,R7   16
          0 000101  84C7 0012                            SID      PREV$+3,AUTO
          0 000103  8656                                 CPL      R6
          0 000104  8657                                 CPL      R7
          0 000105  8470 0000 0001                       AID      1,IMO
          0 000108  8D46 0156                            SDI      342,B6
PL6.E3A0      #006=GDB$KILL_BRKPNT File=GDB$BRKPNTS.:E05TSI                      TUE 07/29/97 21:27 Page:307

     1767     1197    4   SEND_ACK:
     1768     1198    4                          CALL GDI$SEND_ERROR_RESPONSE(SIZE,BUFFER,%GD#RSPACK);

   1198   0 00010A  EBF0 0023            SEND_ACK        LAB,B6   35,IMO
          0 00010C  EFC7 0016                            STB,B6   PREV$+7,AUTO
          0 00010E  DCC7 0006                            LDB,B5   @BUFFER,AUTO
          0 000110  DFC7 0014                            STB,B5   PREV$+5,AUTO
          0 000112  CCC7 0004                            LDB,B4   @SIZE,AUTO
          0 000114  CFC7 0012                            STB,B4   PREV$+3,AUTO
          0 000116  BBC7 0012                            LAB,B3   PREV$+3,AUTO
          0 000118  CBF0 0300                            LAB,B4   768,IMO
          0 00011A  E380 0000 0000  xent                 LNJ,B6   GDI$SEND_ERROR_RESPONSE
          0 00011D       0001                            DC       s:1199,PREL

     1769     1199    4                          RETURN;

   1199   0 00011E  C380 0000 0000  xent                 LNJ,B4   X6A_ARET

     1770     1200    4                          END;
     1771     1201    3                       END;
     1772     1202    3                    ELSE DO;

     1773     1203    3                       PREV$ = BRK$;

   1203   0 000121  EFC7 000F                            STB,B6   PREV$,AUTO

     1774     1204    3                       BRK$ = BRK$->BRKPNT.FLINK$;

   1204   0 000123  CC86                                 LDB,B4   ,B6
          0 000124  CFC7 0008                            STB,B4   BRK$,AUTO

     1775     1205    3                       END;

     1776     1206    2                    END;

   1206   0 000126  8DC7 0008                            CMN      BRK$,AUTO
PL6.E3A0      #006=GDB$KILL_BRKPNT File=GDB$BRKPNTS.:E05TSI                      TUE 07/29/97 21:27 Page:308
          0 000128  0981 FF1A                            BNE      s:1152,PREL

     1777     1207
     1778     1208    1                 CALL GDI$SEND_ERROR_RESPONSE(SIZE,BUFFER,%GD#RSPNAK);

   1208   0 00012A  EBF0 0034                            LAB,B6   52,IMO
          0 00012C  EFC7 0016                            STB,B6   PREV$+7,AUTO
          0 00012E  DCC7 0006                            LDB,B5   @BUFFER,AUTO
          0 000130  DFC7 0014                            STB,B5   PREV$+5,AUTO
          0 000132  CCC7 0004                            LDB,B4   @SIZE,AUTO
          0 000134  CFC7 0012                            STB,B4   PREV$+3,AUTO
          0 000136  BBC7 0012                            LAB,B3   PREV$+3,AUTO
          0 000138  CBF0 0300                            LAB,B4   768,IMO
          0 00013A  E380 0000 0000  xent                 LNJ,B6   GDI$SEND_ERROR_RESPONSE
          0 00013D       0001                            DC       s:1210,PREL

     1779     1209
     1780     1210    1           RETURN;

   1210   0 00013E  C380 0000 0000  xent                 LNJ,B4   X6A_ARET
     1781     1211
     1782     1212    1   END GDB$KILL_BRKPNT;
     1783     1213        %EOD;

PL6.E3A0      #006=GDB$KILL_BRKPNT File=GDB$BRKPNTS.:E05TSI                      TUE 07/29/97 21:27 Page:309
--  Include file information  --

   GD_BRKPNT_M.:E05TOU  is referenced.
   KH$CHN.:E05TOU  is referenced.
   GD$MACS_M.:E05TOU  is referenced.
   GD$MSG_M.:E05TOU  is referenced.
   GDA_EQUS_E.:E05TOU  is referenced.
   GD_EQUS_E.:E05TOU  is referenced.
   GD_DATA_M.:E05TOU  is referenced.
   GD_STATIC_DATA.:E05TOU  cannot be made into a system file and is referenced.
   LCP_6.:E05TOU  cannot be made into a system file and is referenced.
   G_LCP6_E.:E05TOU  was found in the system file and is referenced.
   GT_LCP6_M.:E05TOU  was found in the system file and is referenced.
   KI_CP6.:E05TOU  was found in the system file and is referenced.
   GF_LCP6_M.:E05TOU  was found in the system file and is referenced.
   GM_LCP6_M.:E05TOU  was found in the system file and is referenced.
   GU_LCP6_M.:E05TOU  was found in the system file and is referenced.
   GJ_LCP6_M.:E05TOU  was found in the system file and is referenced.
   GH_LCP6_M.:E05TOU  was found in the system file and is referenced.
      No diagnostics issued in procedure GDB$KILL_BRKPNT.
PL6.E3A0      #006=GDB$KILL_BRKPNT File=GDB$BRKPNTS.:E05TSI                      TUE 07/29/97 21:27 Page:310

 **** Variables and constants ****

  ****  Auto variables  ****

  ****  Scalars and arrays  ****
HexLoc.c.b A Datatyp(siz) R M Lvl/name                 HexLoc.c.b A Datatyp(siz) R M Lvl/name

     6-0-0/w PTR         r     1 @BUFFER                    4-0-0/w PTR         r     1 @SIZE
     8-0-0/w PTR         r     1 BRK$                      *0-0-0/w ACHR        r     1 BUFFER
     A-0-0/w SBIN(16)    r     1 FREESIZE                  *0-0-0/w STRC(3344)  r     1 GD$MSG
     D-0-0/w PTR         r     1 MOVEFROM$                  B-0-0/w PTR         r     1 MOVETO$
     F-0-0/w PTR         r     1 PREV$                     *0-0-0/w UBIN(16)    r     1 SIZE

  ****  SYMREF variables  ****

  ****  Scalars and arrays  ****
HexLoc.c.b A Datatyp(siz) R M Lvl/name                 HexLoc.c.b A Datatyp(siz) R M Lvl/name

     0-0-0/w PTR         r     1 GD$DELTA_DATA$

  ****  BASED and DCB variables  ****

  ****  Scalars and arrays  ****
HexLoc.c.b A Datatyp(siz) R M Lvl/name                 HexLoc.c.b A Datatyp(siz) R M Lvl/name

     0-0-0/w BIT (16)    r     1 BITMEM                     0-0-0/w STRC(176)   r     1 BRKPNT
     0-0-0/w STRC(16704) r     1 GD_DATA                    0-0-0/w STRC(768)   r     1 IFBRKPNT


   Procedure GDB$KILL_BRKPNT requires 321 words for executable code.
   Procedure GDB$KILL_BRKPNT requires 24 words of local(AUTO) storage.
PL6.E3A0      #006=GDB$KILL_BRKPNT File=GDB$BRKPNTS.:E05TSI                      TUE 07/29/97 21:27 Page:311
          *** CROSS REFERENCE LISTING ***
**     DENOTES     IDENTIFIER DEFINITION
<<                 IDENTIFIER'S VALUE SET
>>                 IDENTIFIER'S VALUE USED
<>                 IDENTIFIER SET AND/OR USED
--                 IDENTIFIER REFERENCED
PL6.E3A0      #006=GDB$KILL_BRKPNT File=GDB$BRKPNTS.:E05TSI                      TUE 07/29/97 21:27 Page:312
          MINI XREF LISTING

BITMEM
      1061**DCL      1186<<ASSIGN   1186>>ASSIGN
BRK$
      1130**DCL      1140<<ASSIGN   1148>>IF       1151>>DOWHILE  1152>>IF       1153>>IF       1156>>IF
      1161>>IF       1163>>IF       1164>>ASSIGN   1166>>ASSIGN   1170>>IF       1175>>IF       1176>>ASSIGN
      1179>>ASSIGN   1180>>ASSIGN   1190>>DOWHILE  1190>>DOWHILE  1192>>ASSIGN   1192>>ASSIGN   1194<<ASSIGN
      1194>>ASSIGN   1203>>ASSIGN   1204<<ASSIGN   1204>>ASSIGN
BRKPNT
      1075**DCL      1166<<ASSIGN   1178--ASSIGN
BRKPNT.ADR$
      1075**DCL      1075--REDEF
BRKPNT.BRKNUM
      1075**DCL      1152>>IF
BRKPNT.FLAGS.IFCOND
      1076**DCL      1163>>IF       1175>>IF
BRKPNT.FLAGS.ONCALL
      1077**DCL      1156>>IF
BRKPNT.FLINK$
      1075**DCL      1161>>IF       1170>>IF       1171<<ASSIGN   1180>>ASSIGN   1190>>DOWHILE  1192<<ASSIGN
      1192>>ASSIGN   1194>>ASSIGN   1204>>ASSIGN
BUFFER
       901**DCL        16--PROC      919--REDEF    1149<>CALL     1198<>CALL     1208<>CALL
FREESIZE
      1131**DCL      1176<<ASSIGN   1178<<ASSIGN   1192>>ASSIGN   1196>>ASSIGN
GD$DELTA_DATA$
       635**DCL       649--IMP-PTR  1140>>ASSIGN   1142>>IF       1143>>ASSIGN   1144>>ASSIGN   1145>>ASSIGN
      1148>>IF       1153>>IF       1154>>ASSIGN   1155>>ASSIGN   1157>>ASSIGN   1158>>ASSIGN   1167>>ASSIGN
      1167>>ASSIGN   1181>>IF       1182>>ASSIGN   1183>>IF       1184>>ASSIGN   1185>>DOWHILE  1196>>ASSIGN
      1196>>ASSIGN
GD$MSG.BRKRQS.IF$CONST.SIZE
       970**DCL       970--REDEF
GD$MSG.BRKRQS.IF$CONST.TEXT
PL6.E3A0      #006=GDB$KILL_BRKPNT File=GDB$BRKPNTS.:E05TSI                      TUE 07/29/97 21:27 Page:313
       970**DCL       971--REDEF     971--REDEF     972--REDEF     973--REDEF
GD$MSG.BRKRSP.BRK#
       984**DCL       984--REDEF
GD$MSG.BRKRSP.USER#
       984**DCL       984--REDEF
GD$MSG.KILLRQS.BRK#
       989**DCL      1142>>IF       1148>>IF       1152>>IF
GD$MSG.LETMEM_D.VALUE.SIZE
       942**DCL       942--REDEF
GD$MSG.LETMEM_D.VALUE.TEXT
       943**DCL       943--REDEF     943--REDEF     944--REDEF     945--REDEF
GD$MSG.MESSAGE
       924**DCL       924--REDEF     925--REDEF     925--REDEF     926--REDEF     937--REDEF     950--REDEF
       955--REDEF     962--REDEF     978--REDEF     983--REDEF     989--REDEF     990--REDEF    1019--REDEF
      1021--REDEF    1032--REDEF    1039--REDEF    1051--REDEF
GD$MSG.SUBFNC
       919**DCL       919--REDEF     923--REDEF
GD$MSG.TSA.I
       991**DCL       991--REDEF
GD$MSG.TSA.S
       993**DCL       993--REDEF
GD$MSG.USERQS.ASDT$
      1019**DCL      1019--REDEF    1020--REDEF
GDI$SEND_ERROR_RESPONSE
       899**DCL-ENT  1149--CALL     1198--CALL     1208--CALL
GD_DATA.GD.BRK$
       663**DCL      1153>>IF       1154<<ASSIGN   1181>>IF       1182<<ASSIGN
GD_DATA.GD.BRKNUM
       663**DCL      1155<<ASSIGN
GD_DATA.GD.DYNSP$
       662**DCL       662--REDEF    1148>>IF       1167<<ASSIGN   1185>>DOWHILE  1196<<ASSIGN   1196>>ASSIGN
GD_DATA.GD.OC_BRKNUM
       653**DCL      1142>>IF       1143<<ASSIGN
GD_DATA.GD.ONCALL
       657**DCL      1158<<ASSIGN
GD_DATA.GD.ONCALL$
PL6.E3A0      #006=GDB$KILL_BRKPNT File=GDB$BRKPNTS.:E05TSI                      TUE 07/29/97 21:27 Page:314
       661**DCL      1157<<ASSIGN
GD_DATA.GD.ONCALLS
       657**DCL      1144<<ASSIGN
GD_DATA.GD.ONCALLS_BRK$
       653**DCL      1145<<ASSIGN   1183>>IF       1184<<ASSIGN
GD_DATA.GD.STEP_BRKPNT.ADR$
       663**DCL       664--REDEF
GD_DATA.GD.STEP_BRKPNT.START$
       664**DCL       664--REDEF
GD_DATA.MYSPACE
       680**DCL      1140--ASSIGN   1167--ASSIGN
IFBRKPNT
      1092**DCL      1164<<ASSIGN   1176--ASSIGN
IFBRKPNT.ADR$
      1092**DCL      1092--REDEF
IFBRKPNT.IFCOND.CONS$TANT.SIZE
      1114**DCL      1114--REDEF
IFBRKPNT.IFCOND.CONS$TANT.TEXT
      1115**DCL      1115--REDEF    1115--REDEF    1116--REDEF    1117--REDEF
IFBRKPNT.IFCOND.DD_SIZE
      1118**DCL      1176>>ASSIGN
MOVEFROM$
      1133**DCL      1180<<ASSIGN   1181>>IF       1183>>IF       1185>>DOWHILE  1186>>ASSIGN   1188<<ASSIGN
      1188>>ASSIGN
MOVETO$
      1132**DCL      1179<<ASSIGN   1182>>ASSIGN   1184>>ASSIGN   1186>>ASSIGN   1187<<ASSIGN   1187>>ASSIGN
PREV$
      1134**DCL      1141<<ASSIGN   1161>>IF       1171>>ASSIGN   1203<<ASSIGN
SEND_ACK
      1198**LABEL    1146--GOTO     1168--GOTO     1172--GOTO
SIZE
      1058**DCL        16--PROC      901--IMP-SIZ  1139<<ASSIGN   1149<>CALL     1149>>CALL     1198<>CALL
      1198>>CALL     1208<>CALL     1208>>CALL

PL6.E3A0      #007=GDB$KILL_ALLBRKPNTS File=GDB$BRKPNTS.:E05TSI                  TUE 07/29/97 21:27 Page:315
     1784        1        /*T***********************************************************/
     1785        2        /*T*                                                         */
     1786        3        /*T* Copyright (c) Bull HN Information Systems Inc., 1997    */
     1787        4        /*T*                                                         */
     1788        5        /*T***********************************************************/
     1789        6        %EJECT;
PL6.E3A0      #007=GDB$KILL_ALLBRKPNTS File=GDB$BRKPNTS.:E05TSI                  TUE 07/29/97 21:27 Page:316
     1790        7        /*F*     NAME:     GDB$KILL_ALLBRKPNTS
     1791        8                 PURPOSE:  To kill all breakpoints in the table
     1792        9                 CALL:     CALL GDB$KILL_ALLBRKPNTS
     1793       10                 DESCRIPTION:  This routine just restores all breakpoints
     1794       11                               in memory to their original contents and zaps
     1795       12                               the table.
     1796       13                                                                                     */
     1797       14        GDB$KILL_ALLBRKPNTS: PROC;
     1798       15
     1799       16        /**/
     1800       17        /* Includes */
     1801       18        /**/
     1802       19
     1803       20        %INCLUDE LCP_6;                        /* Various LCP6 EQUs                  */
     1804      211        %INCLUDE GD_STATIC_DATA;
     1805      684        %INCLUDE GD$MACS_M;                    /* Various debugger macros            */
     1806      722        %INCLUDE KH$CHN;
     1807      844        %INCLUDE GD_BRKPNT_M;
     1808      899
     1809      900        /**/
     1810      901        /* Symrefs */
     1811      902        /**/
     1812      903
     1813      904        /**/
     1814      905        /* Entries */
     1815      906        /**/
     1816      907
     1817      908    1   DCL GDI$SEND_ERROR_RESPONSE ENTRY(3);
     1818      909    1   DCL GDU$SETUP_WINDOW_USER ENTRY(2) ALTRET;
     1819      910
     1820      911        /**/
     1821      912        /* Temps */
     1822      913        /**/
     1823      914
     1824      915    1   DCL BRK$ PTR;
     1825      916    1   DCL ADR$ PTR;
     1826      917    1   DCL BUFFER CHAR(6) ALIGNED;            /* Message buffer                     */
PL6.E3A0      #007=GDB$KILL_ALLBRKPNTS File=GDB$BRKPNTS.:E05TSI                  TUE 07/29/97 21:27 Page:317
     1827      918    1   DCL SIZE UBIN;                         /* Size of buffer                     */
     1828      919
     1829      920        /**/
     1830      921        /* Based */
     1831      922        /**/
     1832      923
     1833      924    1   DCL MEMORY UBIN BASED;
     1834      925    1   DCL BITMEM BIT(16) BASED ALIGNED;
     1835      926        %GD_BRKPNT(FPTN=BRKPNT,STCLASS=BASED);
     1836      943        %EJECT;
PL6.E3A0      #007=GDB$KILL_ALLBRKPNTS File=GDB$BRKPNTS.:E05TSI                  TUE 07/29/97 21:27 Page:318
     1837      944        /* Put all the original instructions back. */
     1838      945
     1839      946    1           GD_DATA.GD.BRK$ = ADDR(NIL);
     1840      947    1           GD_DATA.GD.BRKNUM = 0;
     1841      948    1           BRK$ = ADDR(GD_DATA.MYSPACE(0));
     1842      949    2           DO WHILE BRK$ ~= ADDR(NIL);
     1843      950    3              IF BRK$->BRKPNT.FLAGS.ARMED THEN DO;
     1844      951    3                 ADR$ = BRK$->BRKPNT.ADR$;
     1845      952    3                 CALL GDU$SETUP_WINDOW_USER(ADR$,BRK$->BRKPNT.USER#)
     1846      953    4                    WHENRETURN DO;
     1847      954    4                       ADR$->MEMORY = BRK$->BRKPNT.OLDINST;
     1848      955    4                      END /* WHENRETURN */;
     1849      956    3                END /* PUT BACK THE ORIGINAL INSTRUCTION */;
     1850      957    2              BRK$ = BRK$->BRKPNT.FLINK$;
     1851      958    2             END /* WHILE THERE ARE MORE BREAKPOINTS */;
     1852      959
     1853      960        /* Set DYNSP$ to the beginning of the dynamic space in GD_DATA and zero out
     1854      961           the whole area. */
     1855      962
     1856      963    1           GD_DATA.GD.DYNSP$ = ADDR(GD_DATA.MYSPACE(0));
     1857      964    1           GD_DATA.MYSPACE = '0'B;
     1858      965    1           GD_DATA.GD.ONCALLS_BRK$=ADDR(NIL);
     1859      966    1           GD_DATA.GD.ONCALLS = '0'B;
     1860      967    1           GD_DATA.GD.OC_BRKNUM=0;
     1861      968    1           GD_DATA.GD.BRKNUM = 0;
     1862      969    1           GD_DATA.GD.BRK$ = ADDR(NIL);
     1863      970
     1864      971    1           RETURN;
     1865      972
     1866      973    1   END GDB$KILL_ALLBRKPNTS;

PL6.E3A0      #007=GDB$KILL_ALLBRKPNTS File=GDB$BRKPNTS.:E05TSI                  TUE 07/29/97 21:27 Page:319
--  Include file information  --

   GD_BRKPNT_M.:E05TOU  is referenced.
   KH$CHN.:E05TOU  is referenced.
   GD$MACS_M.:E05TOU  is referenced.
   GD$MSG_M.:E05TOU  is referenced.
   GDA_EQUS_E.:E05TOU  is referenced.
   GD_EQUS_E.:E05TOU  is referenced.
   GD_DATA_M.:E05TOU  is referenced.
   GD_STATIC_DATA.:E05TOU  cannot be made into a system file and is referenced.
   LCP_6.:E05TOU  cannot be made into a system file and is referenced.
   G_LCP6_E.:E05TOU  was found in the system file and is referenced.
   GT_LCP6_M.:E05TOU  was found in the system file and is referenced.
   KI_CP6.:E05TOU  was found in the system file and is referenced.
   GF_LCP6_M.:E05TOU  was found in the system file and is referenced.
   GM_LCP6_M.:E05TOU  was found in the system file and is referenced.
   GU_LCP6_M.:E05TOU  was found in the system file and is referenced.
   GJ_LCP6_M.:E05TOU  was found in the system file and is referenced.
   GH_LCP6_M.:E05TOU  was found in the system file and is referenced.
      No diagnostics issued in procedure GDB$KILL_ALLBRKPNTS.

   Procedure GDB$KILL_ALLBRKPNTS requires 106 words for executable code.
   Procedure GDB$KILL_ALLBRKPNTS requires 16 words of local(AUTO) storage.

    No errors detected in file GDB$BRKPNTS.:E05TSI    .

PL6.E3A0      #007=GDB$KILL_ALLBRKPNTS File=GDB$BRKPNTS.:E05TSI                  TUE 07/29/97 21:27 Page:320

 Object Unit name= GDB$KILL_ALLBRKPNTS                        File name= GDB$BRKPNTS.:E05TOU
 UTS= JUL 29 '97 21:27:57.56 TUE                              Compiler= PL-6/E31         Sev=      00
 SharedLib= :SHARED_LCP6_SYSTEM                               Alt SharedLib=


    ****  Control sections  ****

 Sect   Type Bound  Init  Size HexSiz  Section name
    0   Proc  even  none   106     6A  GDB$KILL_ALLBRKPNTS
    1  RoData even  none     1      1  GDB$KILL_ALLBRKPNTS

    ****  Entry defs  ****

                              Check   Calling
                             calling  sequence
  Sect HexLoc Primary Altret sequence   type   Parms  Name
     0      0   yes            yes      Std        0  GDB$KILL_ALLBRKPNTS

  ****  Entry refs  ****

         Check        Calling
        calling       sequence
Altret sequence SRef   type   Args  Name
 yes     yes           Std       2 GDU$SETUP_WINDOW_USER
                       nStd      0 X6A_AUTO_0
                       nStd      0 X6C_ALRZ
                       nStd      0 X6A_ARET

  ****  Data refs  ****

  Flags:  r = read only, s = secondary
Flgs Name                             Flgs Name                             Flgs Name
     GD$DELTA_DATA$                   r    G$ROS$
PL6.E3A0      #007=GDB$KILL_ALLBRKPNTS File=GDB$BRKPNTS.:E05TSI                  TUE 07/29/97 21:27 Page:321


     1784        1        /*T***********************************************************/
     1785        2        /*T*                                                         */
     1786        3        /*T* Copyright (c) Bull HN Information Systems Inc., 1997    */
     1787        4        /*T*                                                         */
     1788        5        /*T***********************************************************/
     1789        6        %EJECT;
PL6.E3A0      #007=GDB$KILL_ALLBRKPNTS File=GDB$BRKPNTS.:E05TSI                  TUE 07/29/97 21:27 Page:322
     1790        7        /*F*     NAME:     GDB$KILL_ALLBRKPNTS
     1791        8                 PURPOSE:  To kill all breakpoints in the table
     1792        9                 CALL:     CALL GDB$KILL_ALLBRKPNTS
     1793       10                 DESCRIPTION:  This routine just restores all breakpoints
     1794       11                               in memory to their original contents and zaps
     1795       12                               the table.
     1796       13                                                                                     */
     1797       14        GDB$KILL_ALLBRKPNTS: PROC;

     14   0 000000  D380 0000 0000  xent GDB$KILL_ALLBRK*LNJ,B5   X6A_AUTO_0
          0 000003       0010 0000                       DC       16,0

     1798       15
     1799       16        /**/
     1800       17        /* Includes */
     1801       18        /**/
     1802       19
     1803       20        %INCLUDE LCP_6;                        /* Various LCP6 EQUs                  */
     1804      211        %INCLUDE GD_STATIC_DATA;
     1805      684        %INCLUDE GD$MACS_M;                    /* Various debugger macros            */
     1806      722        %INCLUDE KH$CHN;
     1807      844        %INCLUDE GD_BRKPNT_M;
     1808      899
     1809      900        /**/
     1810      901        /* Symrefs */
     1811      902        /**/
     1812      903
     1813      904        /**/
     1814      905        /* Entries */
     1815      906        /**/
     1816      907
     1817      908    1   DCL GDI$SEND_ERROR_RESPONSE ENTRY(3);
     1818      909    1   DCL GDU$SETUP_WINDOW_USER ENTRY(2) ALTRET;
     1819      910
     1820      911        /**/
     1821      912        /* Temps */
     1822      913        /**/
PL6.E3A0      #007=GDB$KILL_ALLBRKPNTS File=GDB$BRKPNTS.:E05TSI                  TUE 07/29/97 21:27 Page:323
     1823      914
     1824      915    1   DCL BRK$ PTR;
     1825      916    1   DCL ADR$ PTR;
     1826      917    1   DCL BUFFER CHAR(6) ALIGNED;            /* Message buffer                     */
     1827      918    1   DCL SIZE UBIN;                         /* Size of buffer                     */
     1828      919
     1829      920        /**/
     1830      921        /* Based */
     1831      922        /**/
     1832      923
     1833      924    1   DCL MEMORY UBIN BASED;
     1834      925    1   DCL BITMEM BIT(16) BASED ALIGNED;
     1835      926        %GD_BRKPNT(FPTN=BRKPNT,STCLASS=BASED);
     1836      943        %EJECT;
PL6.E3A0      #007=GDB$KILL_ALLBRKPNTS File=GDB$BRKPNTS.:E05TSI                  TUE 07/29/97 21:27 Page:324
     1837      944        /* Put all the original instructions back. */
     1838      945
     1839      946    1           GD_DATA.GD.BRK$ = ADDR(NIL);

    946   0 000005  EB80 0000 0000                       LAB,B6   0
          0 000008  DC80 0000 0000  xsym                 LDB,B5   GD$DELTA_DATA$
          0 00000B  EFC5 0159                            STB,B6   345,B5

     1840      947    1           GD_DATA.GD.BRKNUM = 0;

    947   0 00000D  8745 0158                            CL       344,B5

     1841      948    1           BRK$ = ADDR(GD_DATA.MYSPACE(0));

    948   0 00000F  CBC5 01AE                            LAB,B4   430,B5
          0 000011  CFC7 0004                            STB,B4   BRK$,AUTO

     1842      949    2           DO WHILE BRK$ ~= ADDR(NIL);

    949   0 000013  0F81 0028                            B        s:958,PREL

     1843      950    3              IF BRK$->BRKPNT.FLAGS.ARMED THEN DO;

    950   0 000015  ECC7 0004                            LDB,B6   BRK$,AUTO
          0 000017  82C6 000A                            LB,'4000'X        10,B6
          0 000019       4000
          0 00001A  0581 001C                            BBF      s:957,PREL

     1844      951    3                 ADR$ = BRK$->BRKPNT.ADR$;

    951   0 00001C  DCC6 0005                            LDB,B5   5,B6
          0 00001E  DFC7 0006                            STB,B5   ADR$,AUTO

     1845      952    3                 CALL GDU$SETUP_WINDOW_USER(ADR$,BRK$->BRKPNT.USER#)

    952   0 000020  CBC6 0008                            LAB,B4   8,B6
          0 000022  CFC7 000E                            STB,B4   ADR$+8,AUTO
PL6.E3A0      #007=GDB$KILL_ALLBRKPNTS File=GDB$BRKPNTS.:E05TSI                  TUE 07/29/97 21:27 Page:325
          0 000024  BBC7 0006                            LAB,B3   ADR$,AUTO
          0 000026  BFC7 000C                            STB,B3   ADR$+6,AUTO
          0 000028  BBC7 000C                            LAB,B3   ADR$+6,AUTO
          0 00002A  CBF0 0200                            LAB,B4   512,IMO
          0 00002C  E380 0000 0000  xent                 LNJ,B6   GDU$SETUP_WINDOW_USER
          0 00002F       0008                            DC       s:957,PREL

     1846      953    4                    WHENRETURN DO;

     1847      954    4                       ADR$->MEMORY = BRK$->BRKPNT.OLDINST;

    954   0 000030  ECC7 0006                            LDB,B6   ADR$,AUTO
          0 000032  DCC7 0004                            LDB,B5   BRK$,AUTO
          0 000034  E845 0007                            LDR,R6   7,B5
          0 000036  EF06                                 STR,R6   ,B6

     1848      955    4                      END /* WHENRETURN */;

     1849      956    3                END /* PUT BACK THE ORIGINAL INSTRUCTION */;

     1850      957    2              BRK$ = BRK$->BRKPNT.FLINK$;

    957   0 000037  ECC7 0004                            LDB,B6   BRK$,AUTO
          0 000039  DC86                                 LDB,B5   ,B6
          0 00003A  DFC7 0004                            STB,B5   BRK$,AUTO

     1851      958    2             END /* WHILE THERE ARE MORE BREAKPOINTS */;

    958   0 00003C  8DC7 0004                            CMN      BRK$,AUTO
          0 00003E  09D7                                 BNE      s:950,SPREL

     1852      959
     1853      960        /* Set DYNSP$ to the beginning of the dynamic space in GD_DATA and zero out
     1854      961           the whole area. */
     1855      962
     1856      963    1           GD_DATA.GD.DYNSP$ = ADDR(GD_DATA.MYSPACE(0));

PL6.E3A0      #007=GDB$KILL_ALLBRKPNTS File=GDB$BRKPNTS.:E05TSI                  TUE 07/29/97 21:27 Page:326
    963   0 00003F  EC80 0000 0000  xsym                 LDB,B6   GD$DELTA_DATA$
          0 000042  DBC6 01AE                            LAB,B5   430,B6
          0 000044  DFC6 0156                            STB,B5   342,B6

     1857      964    1           GD_DATA.MYSPACE = '0'B;

    964   0 000046  AB80 0000 0000  01                   LAB,B2   0
          0 000049  2C00                                 LDV,R2   0
          0 00004A  6C01                                 LDV,R6   1
          0 00004B  BBC6 01AE                            LAB,B3   430,B6
          0 00004D  3C00                                 LDV,R3   0
          0 00004E  F870 04CC                            LDR,R7   1228,IMO
          0 000050  D380 0000 0000  xent                 LNJ,B5   X6C_ALRZ

     1858      965    1           GD_DATA.GD.ONCALLS_BRK$=ADDR(NIL);

    965   0 000053  EB80 0000 0000                       LAB,B6   0
          0 000056  DC80 0000 0000  xsym                 LDB,B5   GD$DELTA_DATA$
          0 000059  EFC5 0135                            STB,B6   309,B5

     1859      966    1           GD_DATA.GD.ONCALLS = '0'B;

    966   0 00005B  8845 014C                            LBF,'1000'X       332,B5
    966   0 00005D       1000

     1860      967    1           GD_DATA.GD.OC_BRKNUM=0;

    967   0 00005E  8745 0131                            CL       305,B5

     1861      968    1           GD_DATA.GD.BRKNUM = 0;

    968   0 000060  8745 0158                            CL       344,B5

     1862      969    1           GD_DATA.GD.BRK$ = ADDR(NIL);

    969   0 000062  CB80 0000 0000                       LAB,B4   0
          0 000065  CFC5 0159                            STB,B4   345,B5
PL6.E3A0      #007=GDB$KILL_ALLBRKPNTS File=GDB$BRKPNTS.:E05TSI                  TUE 07/29/97 21:27 Page:327

     1863      970
     1864      971    1           RETURN;

    971   0 000067  C380 0000 0000  xent                 LNJ,B4   X6A_ARET
     1865      972
     1866      973    1   END GDB$KILL_ALLBRKPNTS;

PL6.E3A0      #007=GDB$KILL_ALLBRKPNTS File=GDB$BRKPNTS.:E05TSI                  TUE 07/29/97 21:27 Page:328
--  Include file information  --

   GD_BRKPNT_M.:E05TOU  is referenced.
   KH$CHN.:E05TOU  is referenced.
   GD$MACS_M.:E05TOU  is referenced.
   GD$MSG_M.:E05TOU  is referenced.
   GDA_EQUS_E.:E05TOU  is referenced.
   GD_EQUS_E.:E05TOU  is referenced.
   GD_DATA_M.:E05TOU  is referenced.
   GD_STATIC_DATA.:E05TOU  cannot be made into a system file and is referenced.
   LCP_6.:E05TOU  cannot be made into a system file and is referenced.
   G_LCP6_E.:E05TOU  was found in the system file and is referenced.
   GT_LCP6_M.:E05TOU  was found in the system file and is referenced.
   KI_CP6.:E05TOU  was found in the system file and is referenced.
   GF_LCP6_M.:E05TOU  was found in the system file and is referenced.
   GM_LCP6_M.:E05TOU  was found in the system file and is referenced.
   GU_LCP6_M.:E05TOU  was found in the system file and is referenced.
   GJ_LCP6_M.:E05TOU  was found in the system file and is referenced.
   GH_LCP6_M.:E05TOU  was found in the system file and is referenced.
      No diagnostics issued in procedure GDB$KILL_ALLBRKPNTS.
PL6.E3A0      #007=GDB$KILL_ALLBRKPNTS File=GDB$BRKPNTS.:E05TSI                  TUE 07/29/97 21:27 Page:329

 **** Variables and constants ****

  ****  Auto variables  ****

  ****  Scalars and arrays  ****
HexLoc.c.b A Datatyp(siz) R M Lvl/name                 HexLoc.c.b A Datatyp(siz) R M Lvl/name

     6-0-0/w PTR         r     1 ADR$                       4-0-0/w PTR         r     1 BRK$

  ****  SYMREF variables  ****

  ****  Scalars and arrays  ****
HexLoc.c.b A Datatyp(siz) R M Lvl/name                 HexLoc.c.b A Datatyp(siz) R M Lvl/name

     0-0-0/w PTR         r     1 GD$DELTA_DATA$

  ****  BASED and DCB variables  ****

  ****  Scalars and arrays  ****
HexLoc.c.b A Datatyp(siz) R M Lvl/name                 HexLoc.c.b A Datatyp(siz) R M Lvl/name

     0-0-0/w STRC(176)   r     1 BRKPNT                     0-0-0/w STRC(16704) r     1 GD_DATA
     0-0-0/w UBIN(16)    r     1 MEMORY


   Procedure GDB$KILL_ALLBRKPNTS requires 106 words for executable code.
   Procedure GDB$KILL_ALLBRKPNTS requires 16 words of local(AUTO) storage.

    No errors detected in file GDB$BRKPNTS.:E05TSI    .
PL6.E3A0      #007=GDB$KILL_ALLBRKPNTS File=GDB$BRKPNTS.:E05TSI                  TUE 07/29/97 21:27 Page:330
          *** CROSS REFERENCE LISTING ***
**     DENOTES     IDENTIFIER DEFINITION
<<                 IDENTIFIER'S VALUE SET
>>                 IDENTIFIER'S VALUE USED
<>                 IDENTIFIER SET AND/OR USED
--                 IDENTIFIER REFERENCED
PL6.E3A0      #007=GDB$KILL_ALLBRKPNTS File=GDB$BRKPNTS.:E05TSI                  TUE 07/29/97 21:27 Page:331
          MINI XREF LISTING

ADR$
       916**DCL       951<<ASSIGN    952<>CALL      954>>ASSIGN
BRK$
       915**DCL       948<<ASSIGN    949>>DOWHILE   950>>IF        951>>ASSIGN    952>>CALL      954>>ASSIGN
       957<<ASSIGN    957>>ASSIGN
BRKPNT.ADR$
       939**DCL       939--REDEF     951>>ASSIGN
BRKPNT.FLAGS.ARMED
       940**DCL       950>>IF
BRKPNT.FLINK$
       939**DCL       957>>ASSIGN
BRKPNT.OLDINST
       940**DCL       954>>ASSIGN
BRKPNT.USER#
       940**DCL       952<>CALL
GD$DELTA_DATA$
       637**DCL       651--IMP-PTR   946>>ASSIGN    947>>ASSIGN    948>>ASSIGN    963>>ASSIGN    963>>ASSIGN
       964>>ASSIGN    965>>ASSIGN    966>>ASSIGN    967>>ASSIGN    968>>ASSIGN    969>>ASSIGN
GDU$SETUP_WINDOW_USER
       909**DCL-ENT   952--CALL
GD_DATA.GD.BRK$
       665**DCL       946<<ASSIGN    969<<ASSIGN
GD_DATA.GD.BRKNUM
       665**DCL       947<<ASSIGN    968<<ASSIGN
GD_DATA.GD.DYNSP$
       664**DCL       664--REDEF     963<<ASSIGN
GD_DATA.GD.OC_BRKNUM
       655**DCL       967<<ASSIGN
GD_DATA.GD.ONCALLS
       659**DCL       966<<ASSIGN
GD_DATA.GD.ONCALLS_BRK$
       655**DCL       965<<ASSIGN
PL6.E3A0      #007=GDB$KILL_ALLBRKPNTS File=GDB$BRKPNTS.:E05TSI                  TUE 07/29/97 21:27 Page:332
GD_DATA.GD.STEP_BRKPNT.ADR$
       665**DCL       666--REDEF
GD_DATA.GD.STEP_BRKPNT.START$
       666**DCL       666--REDEF
GD_DATA.MYSPACE
       682**DCL       948--ASSIGN    963--ASSIGN    964<<ASSIGN
MEMORY
       924**DCL       954<<ASSIGN
