VERSION E05

PL6.E3A0      #001=GDB$BLD_BRKPNT File=GDB$BRKPNTS.:E05TSI                       TUE 07/29/97 21:22 Page:1
        1        1        /*M* GDB$BRKPNTS - Front-end DELTA routines for program control    */
        2        2        /*T***********************************************************/
        3        3        /*T*                                                         */
        4        4        /*T* Copyright (c) Bull HN Information Systems Inc., 1997    */
        5        5        /*T*                                                         */
        6        6        /*T***********************************************************/
        7        7        /*P*      NAME: GDB$BRKPNTS
        8        8                  PURPOSE: The routines necessary to provide execution
        9        9                           control of programs running in an FEP including
       10       10                           the monitor are found here.  Those routines are:
       11       11                              GDB$BLD_BRKPNT - Builds breakpoints requested
       12       12                                               by the HOST.
       13       13                              GDB$SET_BRKPNT - Arms the breakpoints.
       14       14                              GDB$RESET_BRKPNT - Disarms the breakpoints.
       15       15                              GDB$GET_CONTROL - XDELTA's way of getting
       16       16                                                control of a FEP.
       17       17                              GDB$TRAP_HND - Interface to the monitor trap
       18       18                                             handler.
       19       19                              GDB$KILL_BRKPNT - Deletes breakpoint entries
       20       20                              GDB$KILL_ALLBRKPNTS - Deletes all breakpoint
       21       21                                                    entries.
       22       22        */
       23       23        %EJECT;
PL6.E3A0      #001=GDB$BLD_BRKPNT File=GDB$BRKPNTS.:E05TSI                       TUE 07/29/97 21:22 Page:2
       24       24        GDB$BLD_BRKPNT: PROC(SIZE,BUFFER);
       25       25
       26       26        /**/
       27       27        /* Includes */
       28       28        /**/
       29       29
       30       30        %INCLUDE LCP_6;
       31      221        %INCLUDE GD_STATIC_DATA; /* DELTAs static data */
       32      694        %INCLUDE GD$MACS_M; /* Debugger macros */
       33      732        %INCLUDE DD$DITEM; /* Data Descriptor templates */
       12+     835             %LIST;
       13+     836    1        DCL SDD$ PTR;
       14+     837    1        DCL ZITEM$ PTR;
       15+     838    1        DCL SDD_L6$ PTR;
       16+     839    1        DCL ZITEM_L6$ PTR;
       34     1413        %INCLUDE GH_HARDWARE_M;
       35     1511        %INCLUDE GM_VIRTUAL_E;
       36     1721        %INCLUDE G_HJIT_M;
       37     1866        %INCLUDE KH$CHN;
       38     1988        %INCLUDE GD_BRKPNT_M;
       39     2043
       40     2044        /**/
       41     2045        /* Parameters */
       42     2046        /**/
       43     2047
       44     2048    1   DCL BUFFER CHAR(SIZE) ALIGNED; /* Host <-> FEP message buffer */
       45     2049        %GD$MSG(STCLASS="REDEF BUFFER");
       46     2205    1   DCL SIZE UBIN;
       47     2206
       48     2207        /**/
       49     2208        /* Entries */
       50     2209        /**/
       51     2210
       52     2211    1   DCL GDI$SEND_ERROR_RESPONSE ENTRY(3); /* Sends responses to the host */
       53     2212    1   DCL GDU$SETUP_WINDOW ENTRY(1) ALTRET; /* Validates addresses */
       54     2213
       55     2214        /**/
PL6.E3A0      #001=GDB$BLD_BRKPNT File=GDB$BRKPNTS.:E05TSI                       TUE 07/29/97 21:22 Page:3
       56     2215        /* Local Variables */
       57     2216        /**/
       58     2217
       59     2218    1   DCL BRK$ PTR;
       60     2219    1   DCL TEMPSZ UBIN;
       61     2220    1   DCL TEMP$ PTR;
       62     2221    1   DCL TEMP1$ PTR;
       63     2222    1   DCL I UBIN;
       64     2223    1   DCL P$ PTR;
       65     2224    1   DCL P REDEF P$ UBIN(32);
       66     2225    1   DCL DD_WSZ UBIN;
       67     2226
       68     2227        /**/
       69     2228        /* Based Variables */
       70     2229        /**/
       71     2230
       72     2231        %GD_BRKPNT(FPTN=BRKPNT,STCLASS=BASED,LAST=";");
       73     2248        %GD_BRKPNT(FPTN=IFBRKPNT,STCLASS=BASED,LAST=",");
       74     2265        %GD_IFCOND(FPTN=IFCOND,LVL=2);
       75     2289        %GD_DATA_DESC(FPTN=DD,STCLASS=BASED);
       76     2296        %VLP_XBREAK(STCLASS=BASED);
       77     2315        %GH_VLD(STCLASS=BASED);
       78     2329        %G$MHJIT(STCLASS="BASED(G$MHJIT$)");
       79     9203        %G$SEGDESC(FPTN=G$SEGDESC,STCLASS=BASED);
       80     9225
       81     9226        /**/
       82     9227        /* Symrefs */
       83     9228        /**/
       84     9229
       85     9230    1   DCL G$MHJIT$ PTR SYMREF;
       86     9231
       87     9232        %EJECT;
PL6.E3A0      #001=GDB$BLD_BRKPNT File=GDB$BRKPNTS.:E05TSI                       TUE 07/29/97 21:22 Page:4
       88     9233        /* Check to see if this in an ONCALLS breakpoint, which we handle
       89     9234        a little differently.  It lives after where DYNSP$ points to.  When we
       90     9235        add or subtract a normal breakpoint, the ONCALLS breakpoint is moved
       91     9236        appropriately. */
       92     9237
       93     9238    1         IF GD$MSG.FNC ~= %GD#RQSONCALLS THEN GOTO ONCALLS_DONE;
       94     9239        /* It's an ONCALLS */
       95     9240    2         IF GD$MSG.BRKRQS.IFSPEC THEN DO;
       96     9241    2            TEMPSZ=SIZEW(IFBRKPNT)+GD$MSG.BRKRQS.DATA_DESC_SIZE;
       97     9242    2            END;
       98     9243    2         ELSE DO;
       99     9244    2            TEMPSZ=SIZEW(BRKPNT);
      100     9245    2            END;
      101     9246        /* Find out if there is room */
      102     9247    1         TEMP$ = ADDR(GD_DATA.MYSPACE(%GD#DYNSZ-1));
      103     9248    1         TEMP1$ = PINCRW(GD_DATA.GD.DYNSP$,TEMPSZ);
      104     9249    1         IF POFFW(TEMP1$,TEMP$)>=0 THEN GOTO SENDNOSPACERSP;
      105     9250    1         GD_DATA.GD.ONCALLS_BRK$ = GD_DATA.GD.DYNSP$;
      106     9251    1         P$=GD_DATA.GD.DYNSP$;
      107     9252    1         IF GD$MSG.BRKRQS.IFSPEC THEN
      108     9253    1            P$->IFBRKPNT='0'B;
      109     9254    1         ELSE
      110     9255    1            P$->BRKPNT='0'B;
      111     9256    1         P$->BRKPNT.BRKNUM = GD$MSG.BRKRQS.BRKNUM;
      112     9257    1         P$->BRKPNT.BYPASSCOUNT = GD$MSG.BRKRQS.BYPASSCOUNT;
      113     9258    1         P$->BRKPNT.CUR_BYPASSCOUNT = GD$MSG.BRKRQS.BYPASSCOUNT;
      114     9259    2         IF GD$MSG.BRKRQS.IFSPEC THEN DO;
      115     9260    2            P$->IFBRKPNT='0'B;
      116     9261    2            P$->IFBRKPNT.IFCOND.COND=GD$MSG.BRKRQS.COND;
      117     9262    2            P$->IFBRKPNT.FLAGS.IFCOND='1'B;
      118     9263    2            P$->IFBRKPNT.IFCOND.CTYPE=GD$MSG.BRKRQS.CTYPE;
      119     9264    2            P$->IFBRKPNT.IFCOND.CONS$TANT=GD$MSG.BRKRQS.IF$CONST;
      120     9265    2            P$->IFBRKPNT.IFCOND.DD_SIZE=GD$MSG.BRKRQS.DATA_DESC_SIZE;
      121     9266    2            P$->IFBRKPNT.IFCOND.DD$ = PINCRW(GD_DATA.GD.DYNSP$,SIZEW(IFBRKPNT));
      122     9267    3            DO I=0 TO P$->IFBRKPNT.IFCOND.DD_SIZE-1;
      123     9268    3               P$->IFBRKPNT.IFCOND.DD$->DD(I)=GD$MSG.BRKRQS.IF_DATA_DESC(I);
      124     9269    3               END;
PL6.E3A0      #001=GDB$BLD_BRKPNT File=GDB$BRKPNTS.:E05TSI                       TUE 07/29/97 21:22 Page:5
      125     9270    2            END;
      126     9271        /* We have finished the ONCALLS breakpoint - go tell the host and leave. */
      127     9272    1         CALL GDI$SEND_ERROR_RESPONSE(SIZE,BUFFER,%GD#RSPACK);
      128     9273    1         RETURN;
      129     9274    1   ONCALLS_DONE:;
      130     9275        /* Validate the address of the requested breakpoint */
      131     9276
      132     9277    1           P$ = GD$MSG.BRKRQS.ADR$;
      133     9278    1           CALL GDU$SETUP_WINDOW(P$);
      134     9279    1           IF ADDR(GD_DATA.GD.VLD)->GH_VLD.STATUS ~= %G_VLD_STATUS_ALL# OR
      135     9280    1              GD_DATA.GD.USE_REAL OR
      136     9281    1              (P / 65536 = %GM_WINDOW1# AND
      137     9282    1               GD_DATA.GD.MODE = %GD#MODE_XDELTA AND
      138     9283    2               %ASDT_WINDOW# = G$MHJIT.ASDT_MON.DB_PROC) THEN DO;
      139     9284    2              CALL GDI$SEND_ERROR_RESPONSE(SIZE,BUFFER,%GD#RSPBADADR);
      140     9285    2              RETURN;
      141     9286    2              END;
      142     9287
      143     9288        /* Verify that the breakpoint number is valid */
      144     9289
      145     9290    1           BRK$ = ADDR(GD_DATA.MYSPACE(0));
      146     9291    1           IF GD_DATA.GD.DYNSP$ = ADDR(GD_DATA.MYSPACE(0)) THEN;
      147     9292    2           ELSE DO WHILE BRK$ ~= ADDR(NIL);
      148     9293    2              IF BRK$->BRKPNT.BRKNUM = GD$MSG.BRKRQS.BRKNUM THEN GOTO SENDSMXRSP;
      149     9294    2              ELSE BRK$ = BRK$->BRKPNT.FLINK$;
      150     9295    2              END;
      151     9296
      152     9297    2           IF GD$MSG.BRKRQS.BRKNUM = 0 THEN DO;
      153     9298    2   SENDSMXRSP:
      154     9299    2              CALL GDI$SEND_ERROR_RESPONSE(SIZE,BUFFER,%GD#RSPSMX);
      155     9300    2              RETURN;
      156     9301    2              END;
      157     9302
      158     9303        /* Build an breakpoint entry in GD_DATA */
      159     9304
      160     9305        /* If this breakpoint has an if condition then get some space and set up the
      161     9306           conditional part. */
PL6.E3A0      #001=GDB$BLD_BRKPNT File=GDB$BRKPNTS.:E05TSI                       TUE 07/29/97 21:22 Page:6
      162     9307
      163     9308    2           IF GD$MSG.BRKRQS.IFSPEC THEN DO;
      164     9309
      165     9310        /* Get the size of the data descriptors */
      166     9311
      167     9312    2              DD_WSZ = GD$MSG.BRKRQS.DATA_DESC_SIZE;
      168     9313
      169     9314        /* Set up a pointer to the current start of unallocated space. */
      170     9315
      171     9316    2              IF GD_DATA.GD.DYNSP$ = ADDR(GD_DATA.MYSPACE(0)) THEN;
      172     9317
      173     9318        /* This is the first breakpoint.  We don't need to check to see if there's
      174     9319           enough space. */
      175     9320
      176     9321    3              ELSE DO;
      177     9322
      178     9323        /* Make sure there's enough room for the breakpoint. */
      179     9324
      180     9325    3                 TEMPSZ = SIZEW(IFBRKPNT) + DD_WSZ;
      181     9326        /* If there is an ONCALLS breakpoint at the begining of the 'free'
      182     9327        space, then we have to take it's size into account. */
      183     9328    3                 IF GD_DATA.GD.ONCALLS_BRK$ ~= ADDR(NIL) THEN
      184     9329    3                    IF GD_DATA.GD.ONCALLS_BRK$->BRKPNT.FLAGS.IFCOND THEN
      185     9330    3                       TEMPSZ=TEMPSZ+SIZEW(IFBRKPNT)+GD_DATA.GD.ONCALLS_BRK$->IFBRKPNT.
              9330                                IFCOND.DD_SIZE;
      186     9331    3                    ELSE
      187     9332    3                       TEMPSZ=TEMPSZ+SIZEW(BRKPNT);
      188     9333    3                 TEMP$ = ADDR(GD_DATA.MYSPACE(%GD#DYNSZ-1));
      189     9334    3                 TEMP1$ = PINCRW(GD_DATA.GD.DYNSP$,TEMPSZ);
      190     9335    3                 IF POFFW(TEMP1$,TEMP$) < 0 THEN;
      191     9336
      192     9337        /* Do nothing. There's enough space for this break point */
      193     9338
      194     9339    4                 ELSE DO;
      195     9340
      196     9341        /* There's not enough room.  Give up on this breakpoint. */
      197     9342
PL6.E3A0      #001=GDB$BLD_BRKPNT File=GDB$BRKPNTS.:E05TSI                       TUE 07/29/97 21:22 Page:7
      198     9343    4   SENDNOSPACERSP:
      199     9344    4                    CALL GDI$SEND_ERROR_RESPONSE(SIZE,BUFFER,%GD#RSPNOSPACE);
      200     9345    4                    RETURN;
      201     9346    4                    END;
      202     9347    3                 END /* If there are already some breakpoints around. */;
      203     9348
      204     9349        /* Before we initialize the area, we might have to move the ONCALLS
      205     9350        breakpoint out of the way. */
      206     9351    3               IF GD_DATA.GD.ONCALLS_BRK$ ~= ADDR(NIL) THEN DO;
      207     9352    3                  P$=GD_DATA.GD.ONCALLS_BRK$;
      208     9353    3                  TEMP1$=PINCRW(GD_DATA.GD.DYNSP$,SIZEW(IFBRKPNT)+DD_WSZ);
      209     9354    4                  IF P$->BRKPNT.FLAGS.IFCOND THEN DO;
      210     9355    4                     TEMP1$->IFBRKPNT = P$->IFBRKPNT;
      211     9356    4                     TEMP1$->IFBRKPNT.IFCOND.DD$=PINCRW(TEMP1$,SIZEW(IFBRKPNT));
      212     9357    5                     DO I=0 TO P$->IFBRKPNT.IFCOND.DD_SIZE-1;
      213     9358    5                        TEMP1$->IFBRKPNT.IFCOND.DD$->DD(I)=P$->IFBRKPNT.IFCOND.DD$->DD(
              9358                                 I);
      214     9359    5                        END;
      215     9360    4                     END;
      216     9361    3                  ELSE
      217     9362    3                     TEMP1$->BRKPNT = P$->BRKPNT;
      218     9363    3                  END;
      219     9364        /* Initialize the area */
      220     9365
      221     9366    2              GD_DATA.GD.DYNSP$->IFBRKPNT = '0'B;
      222     9367
      223     9368        /* Put in the conditional stuff. */
      224     9369
      225     9370    2              GD_DATA.GD.DYNSP$->IFBRKPNT.IFCOND.COND = GD$MSG.BRKRQS.COND;
      226     9371    2              GD_DATA.GD.DYNSP$->IFBRKPNT.FLAGS.IFCOND = '1'B;
      227     9372    2              GD_DATA.GD.DYNSP$->IFBRKPNT.IFCOND.CTYPE = GD$MSG.BRKRQS.CTYPE;
      228     9373    2              GD_DATA.GD.DYNSP$->IFBRKPNT.IFCOND.CONS$TANT =
      229     9374    2                 GD$MSG.BRKRQS.IF$CONST;
      230     9375    2              GD_DATA.GD.DYNSP$->IFBRKPNT.IFCOND.DD_SIZE =
      231     9376    2                 GD$MSG.BRKRQS.DATA_DESC_SIZE;
      232     9377    2              GD_DATA.GD.DYNSP$->IFBRKPNT.IFCOND.DD$ =
      233     9378    2                 PINCRW(GD_DATA.GD.DYNSP$,SIZEW(IFBRKPNT));
PL6.E3A0      #001=GDB$BLD_BRKPNT File=GDB$BRKPNTS.:E05TSI                       TUE 07/29/97 21:22 Page:8
      234     9379    3              DO I = 0 TO DD_WSZ - 1;
      235     9380    3                 GD_DATA.GD.DYNSP$->IFBRKPNT.IFCOND.DD$->DD(I) =
      236     9381    3                    GD$MSG.BRKRQS.IF_DATA_DESC(I);
      237     9382    3                 END;
      238     9383    2              BRK$ = ADDR(GD_DATA.MYSPACE(0));
      239     9384    2              IF BRK$ = GD_DATA.GD.DYNSP$ THEN
      240     9385    2                 BRK$->BRKPNT.FLINK$ = ADDR(NIL);
      241     9386    3              ELSE DO;
      242     9387    4                 DO WHILE BRK$->BRKPNT.FLINK$ ~= ADDR(NIL);
      243     9388    4                    BRK$ = BRK$->BRKPNT.FLINK$;
      244     9389    4                    END;
      245     9390    3                 BRK$->BRKPNT.FLINK$ = GD_DATA.GD.DYNSP$;
      246     9391    3                 END;
      247     9392    2              END /* IF GD$MSG.BRKRQS.IFSPEC */;
      248     9393    2           ELSE DO;
      249     9394
      250     9395        /* This is a breakpoint without an attached IF.  Do we have enough room
      251     9396           for it? */
      252     9397
      253     9398    2              IF GD_DATA.GD.DYNSP$ = ADDR(GD_DATA.MYSPACE(0)) THEN;
      254     9399
      255     9400        /* Assume there's enough room. */
      256     9401
      257     9402    2              ELSE
      258     9403
      259     9404        /* Make sure there's enough room. */
      260     9405
      261     9406    2                 IF POFFW(PINCRW(GD_DATA.GD.DYNSP$,SIZEW(BRKPNT)),
      262     9407    2                          ADDR(GD_DATA.MYSPACE(%GD#DYNSZ-1))) <= 0 THEN;
      263     9408    2                 ELSE GOTO SENDNOSPACERSP;
      264     9409
      265     9410        /* Fill in the FLINK in the previous breakpoint. */
      266     9411
      267     9412    2              BRK$ = ADDR(GD_DATA.MYSPACE(0));
      268     9413    2              IF BRK$ = GD_DATA.GD.DYNSP$ THEN
      269     9414    2                 BRK$->BRKPNT.FLINK$ = ADDR(NIL);
      270     9415    3              ELSE DO;
PL6.E3A0      #001=GDB$BLD_BRKPNT File=GDB$BRKPNTS.:E05TSI                       TUE 07/29/97 21:22 Page:9
      271     9416    4                 DO WHILE BRK$->BRKPNT.FLINK$ ~= ADDR(NIL);
      272     9417    4                    BRK$ = BRK$->BRKPNT.FLINK$;
      273     9418    4                    END;
      274     9419    3                 BRK$->BRKPNT.FLINK$ = GD_DATA.GD.DYNSP$;
      275     9420    3                 END;
      276     9421    2              GD_DATA.GD.DYNSP$->BRKPNT = '0'B;
      277     9422    2              END /* It's an unconditional breakpoint */;
      278     9423
      279     9424        /* Update DYNSP$ */
      280     9425
      281     9426    1           BRK$ = GD_DATA.GD.DYNSP$;
      282     9427    1           IF GD$MSG.BRKRQS.IFSPEC THEN
      283     9428    1              GD_DATA.GD.DYNSP$ =
      284     9429    1                 PINCRW(GD_DATA.GD.DYNSP$->IFBRKPNT.IFCOND.DD$,DD_WSZ);
      285     9430    1           ELSE GD_DATA.GD.DYNSP$ = PINCRW(GD_DATA.GD.DYNSP$,SIZEW(BRKPNT));
      286     9431
      287     9432        /* Set up the rest of the stuff in the breakpoint table */
      288     9433
      289     9434    1           BRK$->BRKPNT.BRKNUM = GD$MSG.BRKRQS.BRKNUM;
      290     9435    1           BRK$->BRKPNT.FLAGS.INTERPRETIVE = GD$MSG.SUBFB.INTERPRETIVE;
      291     9436    1           BRK$->BRKPNT.ADR$ = GD$MSG.BRKRQS.ADR$;
      292     9437    1           BRK$->BRKPNT.FLAGS.ACTIVE = %G_ENABLE#;
      293     9438    1           P$ = GD$MSG.BRKRQS.ADR$;
      294     9439    1           IF GD_DATA.GD.MODE = %GD#MODE_XDELTA AND (P < %GM_ISR1_BASE OR
      295     9440    1              GD_DATA.GD.ASDT_OFFSET ~= 0) THEN
      296     9441    1              BRK$->BRKPNT.USER# = 0;
      297     9442    1           ELSE
      298     9443    1              BRK$->BRKPNT.USER# = GD_DATA.GD.USERNO;
      299     9444    2           IF GD$MSG.FNC = %GD#RQSONCALLBRKPNT THEN DO;
      300     9445    2              BRK$->BRKPNT.FLAGS.ONCALL = '1'B;
      301     9446    2              GD_DATA.GD.ONCALL$ = P$;
      302     9447    2              GD_DATA.GD.ONCALL = '1'B;
      303     9448    2              END;
      304     9449    1           BRK$->BRKPNT.BYPASSCOUNT = GD$MSG.BRKRQS.BYPASSCOUNT;
      305     9450    1           BRK$->BRKPNT.CUR_BYPASSCOUNT = GD$MSG.BRKRQS.BYPASSCOUNT;
      306     9451    1           CALL GDI$SEND_ERROR_RESPONSE(SIZE,BUFFER,%GD#RSPACK);
      307     9452        /**/
PL6.E3A0      #001=GDB$BLD_BRKPNT File=GDB$BRKPNTS.:E05TSI                       TUE 07/29/97 21:22 Page:10
      308     9453    1           RETURN;
      309     9454        /**/
      310     9455    1   END GDB$BLD_BRKPNT;
      311     9456        %EOD;

PL6.E3A0      #001=GDB$BLD_BRKPNT File=GDB$BRKPNTS.:E05TSI                       TUE 07/29/97 21:22 Page:11
--  Include file information  --

   GD_BRKPNT_M.:E05TOU  is referenced.
   KH$CHN.:E05TOU  is referenced.
   G_HJIT_M.:E05TOU  is referenced.
   GM_VIRTUAL_E.:E05TOU  is referenced.
   GH_HARDWARE_M.:E05TOU  is referenced.
   DD_SRTN_C.:E05TOU  is referenced.
   DD_ACODE_C.:E05TOU  is referenced.
   DD_ICODE_C.:E05TOU  is referenced.
   DD$DITEM.:E05TOU  cannot be made into a system file and is referenced.
   GD$MACS_M.:E05TOU  is referenced.
   GD$MSG_M.:E05TOU  is referenced.
   GDA_EQUS_E.:E05TOU  is referenced.
   GD_EQUS_E.:E05TOU  is referenced.
   GD_DATA_M.:E05TOU  is referenced.
   GD_STATIC_DATA.:E05TOU  cannot be made into a system file and is referenced.
   LCP_6.:E05TOU  cannot be made into a system file and is referenced.
   G_LCP6_E.:E05TOU  was found in the system file and is referenced.
   GT_LCP6_M.:E05TOU  was found in the system file and is referenced.
   KI_CP6.:E05TOU  was found in the system file and is referenced.
   GF_LCP6_M.:E05TOU  was found in the system file and is referenced.
   GM_LCP6_M.:E05TOU  was found in the system file and is referenced.
   GU_LCP6_M.:E05TOU  was found in the system file and is referenced.
   GJ_LCP6_M.:E05TOU  was found in the system file and is referenced.
   GH_LCP6_M.:E05TOU  was found in the system file and is referenced.
      No diagnostics issued in procedure GDB$BLD_BRKPNT.

   Procedure GDB$BLD_BRKPNT requires 819 words for executable code.
   Procedure GDB$BLD_BRKPNT requires 34 words of local(AUTO) storage.

PL6.E3A0      #001=GDB$BLD_BRKPNT File=GDB$BRKPNTS.:E05TSI                       TUE 07/29/97 21:22 Page:12

 Object Unit name= GDB$BLD_BRKPNT                             File name= GDB$BRKPNTS.:E05TOU
 UTS= JUL 29 '97 21:22:02.88 TUE                              Compiler= PL-6/E31         Sev=      00
 SharedLib= :SHARED_LCP6_SYSTEM                               Alt SharedLib=


    ****  Control sections  ****

 Sect   Type Bound  Init  Size HexSiz  Section name
    0   Proc  even  none   819    333  GDB$BLD_BRKPNT

    ****  Entry defs  ****

                              Check   Calling
                             calling  sequence
  Sect HexLoc Primary Altret sequence   type   Parms  Name
     0      0   yes            yes      Std        2  GDB$BLD_BRKPNT

  ****  Entry refs  ****

         Check        Calling
        calling       sequence
Altret sequence SRef   type   Args  Name
         yes           Std       3 GDI$SEND_ERROR_RESPONSE
 yes     yes           Std       1 GDU$SETUP_WINDOW
                       nStd      0 X6A_AUTO_2
                       nStd      0 X6A_ARET

  ****  Data refs  ****

  Flags:  r = read only, s = secondary
Flgs Name                             Flgs Name                             Flgs Name
     GD$DELTA_DATA$                        G$MHJIT$                         r    G$ROS$
PL6.E3A0      #001=GDB$BLD_BRKPNT File=GDB$BRKPNTS.:E05TSI                       TUE 07/29/97 21:22 Page:13


        1        1        /*M* GDB$BRKPNTS - Front-end DELTA routines for program control    */
        2        2        /*T***********************************************************/
        3        3        /*T*                                                         */
        4        4        /*T* Copyright (c) Bull HN Information Systems Inc., 1997    */
        5        5        /*T*                                                         */
        6        6        /*T***********************************************************/
        7        7        /*P*      NAME: GDB$BRKPNTS
        8        8                  PURPOSE: The routines necessary to provide execution
        9        9                           control of programs running in an FEP including
       10       10                           the monitor are found here.  Those routines are:
       11       11                              GDB$BLD_BRKPNT - Builds breakpoints requested
       12       12                                               by the HOST.
       13       13                              GDB$SET_BRKPNT - Arms the breakpoints.
       14       14                              GDB$RESET_BRKPNT - Disarms the breakpoints.
       15       15                              GDB$GET_CONTROL - XDELTA's way of getting
       16       16                                                control of a FEP.
       17       17                              GDB$TRAP_HND - Interface to the monitor trap
       18       18                                             handler.
       19       19                              GDB$KILL_BRKPNT - Deletes breakpoint entries
       20       20                              GDB$KILL_ALLBRKPNTS - Deletes all breakpoint
       21       21                                                    entries.
       22       22        */
       23       23        %EJECT;
PL6.E3A0      #001=GDB$BLD_BRKPNT File=GDB$BRKPNTS.:E05TSI                       TUE 07/29/97 21:22 Page:14
       24       24        GDB$BLD_BRKPNT: PROC(SIZE,BUFFER);

     24   0 000000  D380 0000 0000  xent GDB$BLD_BRKPNT  LNJ,B5   X6A_AUTO_2
          0 000003       0022 0002                       DC       34,2

       25       25
       26       26        /**/
       27       27        /* Includes */
       28       28        /**/
       29       29
       30       30        %INCLUDE LCP_6;
       31      221        %INCLUDE GD_STATIC_DATA; /* DELTAs static data */
       32      694        %INCLUDE GD$MACS_M; /* Debugger macros */
       33      732        %INCLUDE DD$DITEM; /* Data Descriptor templates */
       12+     835             %LIST;
       13+     836    1        DCL SDD$ PTR;
       14+     837    1        DCL ZITEM$ PTR;
       15+     838    1        DCL SDD_L6$ PTR;
       16+     839    1        DCL ZITEM_L6$ PTR;
       34     1413        %INCLUDE GH_HARDWARE_M;
       35     1511        %INCLUDE GM_VIRTUAL_E;
       36     1721        %INCLUDE G_HJIT_M;
       37     1866        %INCLUDE KH$CHN;
       38     1988        %INCLUDE GD_BRKPNT_M;
       39     2043
       40     2044        /**/
       41     2045        /* Parameters */
       42     2046        /**/
       43     2047
       44     2048    1   DCL BUFFER CHAR(SIZE) ALIGNED; /* Host <-> FEP message buffer */
       45     2049        %GD$MSG(STCLASS="REDEF BUFFER");
       46     2205    1   DCL SIZE UBIN;
       47     2206
       48     2207        /**/
       49     2208        /* Entries */
       50     2209        /**/
       51     2210
PL6.E3A0      #001=GDB$BLD_BRKPNT File=GDB$BRKPNTS.:E05TSI                       TUE 07/29/97 21:22 Page:15
       52     2211    1   DCL GDI$SEND_ERROR_RESPONSE ENTRY(3); /* Sends responses to the host */
       53     2212    1   DCL GDU$SETUP_WINDOW ENTRY(1) ALTRET; /* Validates addresses */
       54     2213
       55     2214        /**/
       56     2215        /* Local Variables */
       57     2216        /**/
       58     2217
       59     2218    1   DCL BRK$ PTR;
       60     2219    1   DCL TEMPSZ UBIN;
       61     2220    1   DCL TEMP$ PTR;
       62     2221    1   DCL TEMP1$ PTR;
       63     2222    1   DCL I UBIN;
       64     2223    1   DCL P$ PTR;
       65     2224    1   DCL P REDEF P$ UBIN(32);
       66     2225    1   DCL DD_WSZ UBIN;
       67     2226
       68     2227        /**/
       69     2228        /* Based Variables */
       70     2229        /**/
       71     2230
       72     2231        %GD_BRKPNT(FPTN=BRKPNT,STCLASS=BASED,LAST=";");
       73     2248        %GD_BRKPNT(FPTN=IFBRKPNT,STCLASS=BASED,LAST=",");
       74     2265        %GD_IFCOND(FPTN=IFCOND,LVL=2);
       75     2289        %GD_DATA_DESC(FPTN=DD,STCLASS=BASED);
       76     2296        %VLP_XBREAK(STCLASS=BASED);
       77     2315        %GH_VLD(STCLASS=BASED);
       78     2329        %G$MHJIT(STCLASS="BASED(G$MHJIT$)");
       79     9203        %G$SEGDESC(FPTN=G$SEGDESC,STCLASS=BASED);
       80     9225
       81     9226        /**/
       82     9227        /* Symrefs */
       83     9228        /**/
       84     9229
       85     9230    1   DCL G$MHJIT$ PTR SYMREF;
       86     9231
       87     9232        %EJECT;
PL6.E3A0      #001=GDB$BLD_BRKPNT File=GDB$BRKPNTS.:E05TSI                       TUE 07/29/97 21:22 Page:16
       88     9233        /* Check to see if this in an ONCALLS breakpoint, which we handle
       89     9234        a little differently.  It lives after where DYNSP$ points to.  When we
       90     9235        add or subtract a normal breakpoint, the ONCALLS breakpoint is moved
       91     9236        appropriately. */
       92     9237
       93     9238    1         IF GD$MSG.FNC ~= %GD#RQSONCALLS THEN GOTO ONCALLS_DONE;

   9238   0 000005  ECC7 0006                            LDB,B6   @BUFFER,AUTO
          0 000007  E286                                 LLH,R6   ,B6
          0 000008  6D1C                                 CMV,R6   28
          0 000009  0981 00BF                            BNE      s:9273,PREL

       94     9239        /* It's an ONCALLS */
       95     9240    2         IF GD$MSG.BRKRQS.IFSPEC THEN DO;

   9240   0 00000B  82C6 0001                            LB,'0080'X        1,B6
   9240   0 00000D       0080
          0 00000E  0581 0008                            BBF      s:9244,PREL

       96     9241    2            TEMPSZ=SIZEW(IFBRKPNT)+GD$MSG.BRKRQS.DATA_DESC_SIZE;

   9241   0 000010  D846 0026                            LDR,R5   38,B6
          0 000012  5E30                                 ADV,R5   48
          0 000013  DF47 0012                            STR,R5   TEMPSZ,AUTO

       97     9242    2            END;

   9242   0 000015  0F81 0004                            B        s:9247,PREL

       98     9243    2         ELSE DO;

       99     9244    2            TEMPSZ=SIZEW(BRKPNT);

   9244   0 000017  5C0B                                 LDV,R5   11
          0 000018  DF47 0012                            STR,R5   TEMPSZ,AUTO

      100     9245    2            END;
PL6.E3A0      #001=GDB$BLD_BRKPNT File=GDB$BRKPNTS.:E05TSI                       TUE 07/29/97 21:22 Page:17

      101     9246        /* Find out if there is room */
      102     9247    1         TEMP$ = ADDR(GD_DATA.MYSPACE(%GD#DYNSZ-1));

   9247   0 00001A  DC80 0000 0000  xsym                 LDB,B5   GD$DELTA_DATA$
          0 00001D  CBC5 0413                            LAB,B4   1043,B5
          0 00001F  CFC7 0013                            STB,B4   TEMP$,AUTO

      103     9248    1         TEMP1$ = PINCRW(GD_DATA.GD.DYNSP$,TEMPSZ);

   9248   0 000021  BCC5 0156                            LDB,B3   342,B5
          0 000023  BFC7 001C                            STB,B3   DD_WSZ+2,AUTO
          0 000025  F855                                 LDR,R7   R5
          0 000026  6C00                                 LDV,R6   0
          0 000027  8447 001C                            AID      DD_WSZ+2,AUTO
          0 000029  8D47 0015                            SDI      TEMP1$,AUTO

      104     9249    1         IF POFFW(TEMP1$,TEMP$)>=0 THEN GOTO SENDNOSPACERSP;

   9249   0 00002B  8CC7 0015                            LDI      TEMP1$,AUTO
          0 00002D  84C7 0013                            SID      TEMP$,AUTO
          0 00002F  84F0 0000 0000                       SID      0,IMO
          0 000032  6881 0166                            BGEZ,R6  s:9339,PREL

      105     9250    1         GD_DATA.GD.ONCALLS_BRK$ = GD_DATA.GD.DYNSP$;

   9250   0 000034  BFC5 0135                            STB,B3   309,B5

      106     9251    1         P$=GD_DATA.GD.DYNSP$;

   9251   0 000036  BFC7 0018                            STB,B3   P$,AUTO

      107     9252    1         IF GD$MSG.BRKRQS.IFSPEC THEN

   9252   0 000038  82C6 0001                            LB,'0080'X        1,B6
   9252   0 00003A       0080
          0 00003B  0581 000A                            BBF      s:9255,PREL
PL6.E3A0      #001=GDB$BLD_BRKPNT File=GDB$BRKPNTS.:E05TSI                       TUE 07/29/97 21:22 Page:18

      108     9253    1            P$->IFBRKPNT='0'B;

   9253   0 00003D  5C60                                 LDV,R5   96
          0 00003E  0021                                 ALR      ;
          0 00003F       4178 0000                                ALPHANUM('0000'X,IMO,,1),;
          0 000041       4003 0000                                ALPHANUM(0,B3,,R5,FILL)
          0 000043  437F                                 CSYNC    s:9253+5,SPREL
          0 000044  0F81 0007                            B        s:9256,PREL

      109     9254    1         ELSE
      110     9255    1            P$->BRKPNT='0'B;

   9255   0 000046  5C16                                 LDV,R5   22
          0 000047  0021                                 ALR      ;
          0 000048       4178 0000                                ALPHANUM('0000'X,IMO,,1),;
          0 00004A       4003 0000                                ALPHANUM(0,B3,,R5,FILL)

      111     9256    1         P$->BRKPNT.BRKNUM = GD$MSG.BRKRQS.BRKNUM;

   9256   0 00004C  437F                                 CSYNC    s:9255+5,SPREL
          0 00004D  DCC7 0018                            LDB,B5   P$,AUTO
          0 00004F  E2C6 0001                            LLH,R6   1,B6
          0 000051  EF45 0002                            STR,R6   2,B5

      112     9257    1         P$->BRKPNT.BYPASSCOUNT = GD$MSG.BRKRQS.BYPASSCOUNT;

   9257   0 000053  DCC7 0018                            LDB,B5   P$,AUTO
          0 000055  E846 0002                            LDR,R6   2,B6
          0 000057  EF45 0003                            STR,R6   3,B5

      113     9258    1         P$->BRKPNT.CUR_BYPASSCOUNT = GD$MSG.BRKRQS.BYPASSCOUNT;

   9258   0 000059  DCC7 0018                            LDB,B5   P$,AUTO
          0 00005B  E846 0002                            LDR,R6   2,B6
          0 00005D  EF45 0004                            STR,R6   4,B5

PL6.E3A0      #001=GDB$BLD_BRKPNT File=GDB$BRKPNTS.:E05TSI                       TUE 07/29/97 21:22 Page:19
      114     9259    2         IF GD$MSG.BRKRQS.IFSPEC THEN DO;

   9259   0 00005F  82C6 0001                            LB,'0080'X        1,B6
   9259   0 000061       0080
          0 000062  0581 004F                            BBF      s:9272,PREL

      115     9260    2            P$->IFBRKPNT='0'B;

   9260   0 000064  DCC7 0018                            LDB,B5   P$,AUTO
          0 000066  5C60                                 LDV,R5   96
          0 000067  0021                                 ALR      ;
          0 000068       4178 0000                                ALPHANUM('0000'X,IMO,,1),;
          0 00006A       4005 0000                                ALPHANUM(0,B5,,R5,FILL)

      116     9261    2            P$->IFBRKPNT.IFCOND.COND=GD$MSG.BRKRQS.COND;

   9261   0 00006C  437F                                 CSYNC    s:9260+7,SPREL
          0 00006D  DCC7 0018                            LDB,B5   P$,AUTO
          0 00006F  E846 0005                            LDR,R6   5,B6
          0 000071  E570 0007                            AND,R6   7,IMO
          0 000073  EF45 000C                            STR,R6   12,B5

      117     9262    2            P$->IFBRKPNT.FLAGS.IFCOND='1'B;

   9262   0 000075  DCC7 0018                            LDB,B5   P$,AUTO
          0 000077  8945 000A                            LBT,'1000'X       10,B5
          0 000079       1000

      118     9263    2            P$->IFBRKPNT.IFCOND.CTYPE=GD$MSG.BRKRQS.CTYPE;

   9263   0 00007A  DCC7 0018                            LDB,B5   P$,AUTO
          0 00007C  E846 0005                            LDR,R6   5,B6
          0 00007E  6043                                 SOR,R6   3
          0 00007F  E570 001F                            AND,R6   31,IMO
          0 000081  EF45 000B                            STR,R6   11,B5

      119     9264    2            P$->IFBRKPNT.IFCOND.CONS$TANT=GD$MSG.BRKRQS.IF$CONST;
PL6.E3A0      #001=GDB$BLD_BRKPNT File=GDB$BRKPNTS.:E05TSI                       TUE 07/29/97 21:22 Page:20

   9264   0 000083  AB86                                 LAB,B2   ,B6
          0 000084  2C0C                                 LDV,R2   12
          0 000085  6C40                                 LDV,R6   64
          0 000086  BCC7 0018                            LDB,B3   P$,AUTO
          0 000088  3C1A                                 LDV,R3   26
          0 000089  0008                                 MMM

      120     9265    2            P$->IFBRKPNT.IFCOND.DD_SIZE=GD$MSG.BRKRQS.DATA_DESC_SIZE;

   9265   0 00008A  DCC7 0018                            LDB,B5   P$,AUTO
          0 00008C  E842 0026                            LDR,R6   38,B2
          0 00008E  EF45 002D                            STR,R6   45,B5

      121     9266    2            P$->IFBRKPNT.IFCOND.DD$ = PINCRW(GD_DATA.GD.DYNSP$,SIZEW(IFBRKPNT));

   9266   0 000090  CC80 0000 0000  xsym                 LDB,B4   GD$DELTA_DATA$
          0 000093  BCC4 0156                            LDB,B3   342,B4
          0 000095  9BC3 0030                            LAB,B1   48,B3
          0 000097  9FC5 002E                            STB,B1   46,B5

      122     9267    3            DO I=0 TO P$->IFBRKPNT.IFCOND.DD_SIZE-1;

   9267   0 000099  8747 0017                            CL       I,AUTO
          0 00009B  0F81 000F                            B        s:9269+2,PREL

      123     9268    3               P$->IFBRKPNT.IFCOND.DD$->DD(I)=GD$MSG.BRKRQS.IF_DATA_DESC(I);

   9268   0 00009D  ECC7 0018                            LDB,B6   P$,AUTO
          0 00009F  DCC6 002E                            LDB,B5   46,B6
          0 0000A1  B847 0017                            LDR,R3   I,AUTO
          0 0000A3  CCC7 0006                            LDB,B4   @BUFFER,AUTO
          0 0000A5  A853                                 LDR,R2   R3
          0 0000A6  2E27                                 ADV,R2   39
          0 0000A7  E824                                 LDR,R6   ,B4,R2
          0 0000A8  EF35                                 STR,R6   ,B5,R3

PL6.E3A0      #001=GDB$BLD_BRKPNT File=GDB$BRKPNTS.:E05TSI                       TUE 07/29/97 21:22 Page:21
      124     9269    3               END;

   9269   0 0000A9  8AC7 0017                            INC      I,AUTO
          0 0000AB  ECC7 0018                            LDB,B6   P$,AUTO
          0 0000AD  E847 0017                            LDR,R6   I,AUTO
          0 0000AF  E946 002D                            CMR,R6   45,B6
          0 0000B1  026C                                 BL       s:9268,SPREL

      125     9270    2            END;

      126     9271        /* We have finished the ONCALLS breakpoint - go tell the host and leave. */
      127     9272    1         CALL GDI$SEND_ERROR_RESPONSE(SIZE,BUFFER,%GD#RSPACK);

   9272   0 0000B2  EBF0 0023                            LAB,B6   35,IMO
          0 0000B4  EFC7 0020                            STB,B6   DD_WSZ+6,AUTO
          0 0000B6  DCC7 0006                            LDB,B5   @BUFFER,AUTO
          0 0000B8  DFC7 001E                            STB,B5   DD_WSZ+4,AUTO
          0 0000BA  CCC7 0004                            LDB,B4   @SIZE,AUTO
          0 0000BC  CFC7 001C                            STB,B4   DD_WSZ+2,AUTO
          0 0000BE  BBC7 001C                            LAB,B3   DD_WSZ+2,AUTO
          0 0000C0  CBF0 0300                            LAB,B4   768,IMO
          0 0000C2  E380 0000 0000  xent                 LNJ,B6   GDI$SEND_ERROR_RESPONSE
          0 0000C5       0001                            DC       s:9273,PREL

      128     9273    1         RETURN;

   9273   0 0000C6  C380 0000 0000  xent                 LNJ,B4   X6A_ARET

   9273   0                              ONCALLS_DONE    null
      129     9274    1   ONCALLS_DONE:;
      130     9275        /* Validate the address of the requested breakpoint */
      131     9276
      132     9277    1           P$ = GD$MSG.BRKRQS.ADR$;

   9277   0 0000C9  DCC6 0003            ONCALLS_DONE    LDB,B5   3,B6
          0 0000CB  DFC7 0018                            STB,B5   P$,AUTO

PL6.E3A0      #001=GDB$BLD_BRKPNT File=GDB$BRKPNTS.:E05TSI                       TUE 07/29/97 21:22 Page:22
      133     9278    1           CALL GDU$SETUP_WINDOW(P$);

   9278   0 0000CD  CBC7 0018                            LAB,B4   P$,AUTO
          0 0000CF  CFC7 001C                            STB,B4   DD_WSZ+2,AUTO
          0 0000D1  BBC7 001C                            LAB,B3   DD_WSZ+2,AUTO
          0 0000D3  CBF0 0100                            LAB,B4   256,IMO
          0 0000D5  E380 0000 0000  xent                 LNJ,B6   GDU$SETUP_WINDOW
          0 0000D8       0001                            DC       s:9279,PREL

      134     9279    1           IF ADDR(GD_DATA.GD.VLD)->GH_VLD.STATUS ~= %G_VLD_STATUS_ALL# OR

   9279   0 0000D9  EC80 0000 0000  xsym                 LDB,B6   GD$DELTA_DATA$
          0 0000DC  E846 0173                            LDR,R6   371,B6
          0 0000DE  6D02                                 CMV,R6   2
          0 0000DF  0981 0022                            BNE      s:9284,PREL
          0 0000E1  82C6 014C                            LB,'0008'X        332,B6
          0 0000E3       0008
          0 0000E4  0501 001D                            BBT      s:9284,PREL
          0 0000E6  8CC7 0018                            LDI      P$,AUTO
          0 0000E8  70D0                                 DOR,R7   16
          0 0000E9  84F0 0000 0018                       SID      24,IMO
          0 0000EC  6981 002C                            BNEZ,R6  s:9290,PREL
          0 0000EE  7981 002A                            BNEZ,R7  s:9290,PREL
          0 0000F0  E846 0130                            LDR,R6   304,B6
          0 0000F2  6D02                                 CMV,R6   2
          0 0000F3  0981 0025                            BNE      s:9290,PREL
          0 0000F5  DCC6 017A                            LDB,B5   378,B6
          0 0000F7  CC80 0000 0000  xsym                 LDB,B4   G$MHJIT$
          0 0000FA  5C04                                 LDV,R5   4
          0 0000FB  0022                                 ACM      ;
          0 0000FC       4405 0000                                ALPHANUM(0,B5,,4,FILL),;
          0 0000FE       4004 002E                                ALPHANUM(46,B4,,R5,FILL)
          0 000100  5301 0018                            CBNE     s:9290,PREL

      135     9280    1              GD_DATA.GD.USE_REAL OR
      136     9281    1              (P / 65536 = %GM_WINDOW1# AND
      137     9282    1               GD_DATA.GD.MODE = %GD#MODE_XDELTA AND
PL6.E3A0      #001=GDB$BLD_BRKPNT File=GDB$BRKPNTS.:E05TSI                       TUE 07/29/97 21:22 Page:23
      138     9283    2               %ASDT_WINDOW# = G$MHJIT.ASDT_MON.DB_PROC) THEN DO;

      139     9284    2              CALL GDI$SEND_ERROR_RESPONSE(SIZE,BUFFER,%GD#RSPBADADR);

   9284   0 000102  DBF0 0037                            LAB,B5   55,IMO
          0 000104  DFC7 0020                            STB,B5   DD_WSZ+6,AUTO
          0 000106  CCC7 0006                            LDB,B4   @BUFFER,AUTO
          0 000108  CFC7 001E                            STB,B4   DD_WSZ+4,AUTO
          0 00010A  BCC7 0004                            LDB,B3   @SIZE,AUTO
          0 00010C  BFC7 001C                            STB,B3   DD_WSZ+2,AUTO
          0 00010E  BBC7 001C                            LAB,B3   DD_WSZ+2,AUTO
          0 000110  CBF0 0300                            LAB,B4   768,IMO
          0 000112  E380 0000 0000  xent                 LNJ,B6   GDI$SEND_ERROR_RESPONSE
          0 000115       0001                            DC       s:9285,PREL

      140     9285    2              RETURN;

   9285   0 000116  C380 0000 0000  xent                 LNJ,B4   X6A_ARET

      141     9286    2              END;
      142     9287
      143     9288        /* Verify that the breakpoint number is valid */
      144     9289
      145     9290    1           BRK$ = ADDR(GD_DATA.MYSPACE(0));

   9290   0 000119  DBC6 01AE                            LAB,B5   430,B6
          0 00011B  DFC7 0010                            STB,B5   BRK$,AUTO

      146     9291    1           IF GD_DATA.GD.DYNSP$ = ADDR(GD_DATA.MYSPACE(0)) THEN;

   9291   0 00011D  CCC6 0156                            LDB,B4   342,B6
          0 00011F  BBC6 01AE                            LAB,B3   430,B6
          0 000121  BFC7 001C                            STB,B3   DD_WSZ+2,AUTO
          0 000123  CDC7 001C                            CMB,B4   DD_WSZ+2,AUTO
          0 000125  0901 0013                            BE       s:9297,PREL

      147     9292    2           ELSE DO WHILE BRK$ ~= ADDR(NIL);
PL6.E3A0      #001=GDB$BLD_BRKPNT File=GDB$BRKPNTS.:E05TSI                       TUE 07/29/97 21:22 Page:24

   9292   0 000127  0F81 000E                            B        s:9295,PREL

      148     9293    2              IF BRK$->BRKPNT.BRKNUM = GD$MSG.BRKRQS.BRKNUM THEN GOTO SENDSMXRSP;

   9293   0 000129  ECC7 0010                            LDB,B6   BRK$,AUTO
          0 00012B  DCC7 0006                            LDB,B5   @BUFFER,AUTO
          0 00012D  E2C5 0001                            LLH,R6   1,B5
          0 00012F  E946 0002                            CMR,R6   2,B6
          0 000131  0901 000D                            BE       s:9299,PREL

      149     9294    2              ELSE BRK$ = BRK$->BRKPNT.FLINK$;

   9294   0 000133  CC86                                 LDB,B4   ,B6
          0 000134  CFC7 0010                            STB,B4   BRK$,AUTO

      150     9295    2              END;

   9295   0 000136  8DC7 0010                            CMN      BRK$,AUTO
          0 000138  09F1                                 BNE      s:9293,SPREL

      151     9296
      152     9297    2           IF GD$MSG.BRKRQS.BRKNUM = 0 THEN DO;

   9297   0 000139  ECC7 0006                            LDB,B6   @BUFFER,AUTO
          0 00013B  E2C6 0001                            LLH,R6   1,B6
          0 00013D  6981 0018                            BNEZ,R6  s:9308,PREL

      153     9298    2   SENDSMXRSP:
      154     9299    2              CALL GDI$SEND_ERROR_RESPONSE(SIZE,BUFFER,%GD#RSPSMX);

   9299   0 00013F  EBF0 0032            SENDSMXRSP      LAB,B6   50,IMO
          0 000141  EFC7 0020                            STB,B6   DD_WSZ+6,AUTO
          0 000143  DCC7 0006                            LDB,B5   @BUFFER,AUTO
          0 000145  DFC7 001E                            STB,B5   DD_WSZ+4,AUTO
          0 000147  CCC7 0004                            LDB,B4   @SIZE,AUTO
          0 000149  CFC7 001C                            STB,B4   DD_WSZ+2,AUTO
PL6.E3A0      #001=GDB$BLD_BRKPNT File=GDB$BRKPNTS.:E05TSI                       TUE 07/29/97 21:22 Page:25
          0 00014B  BBC7 001C                            LAB,B3   DD_WSZ+2,AUTO
          0 00014D  CBF0 0300                            LAB,B4   768,IMO
          0 00014F  E380 0000 0000  xent                 LNJ,B6   GDI$SEND_ERROR_RESPONSE
          0 000152       0001                            DC       s:9300,PREL

      155     9300    2              RETURN;

   9300   0 000153  C380 0000 0000  xent                 LNJ,B4   X6A_ARET

      156     9301    2              END;
      157     9302
      158     9303        /* Build an breakpoint entry in GD_DATA */
      159     9304
      160     9305        /* If this breakpoint has an if condition then get some space and set up the
      161     9306           conditional part. */
      162     9307
      163     9308    2           IF GD$MSG.BRKRQS.IFSPEC THEN DO;

   9308   0 000156  82C6 0001                            LB,'0080'X        1,B6
   9308   0 000158       0080
          0 000159  0581 0118                            BBF      s:9398,PREL

      164     9309
      165     9310        /* Get the size of the data descriptors */
      166     9311
      167     9312    2              DD_WSZ = GD$MSG.BRKRQS.DATA_DESC_SIZE;

   9312   0 00015B  D846 0026                            LDR,R5   38,B6
          0 00015D  DF47 001A                            STR,R5   DD_WSZ,AUTO

      168     9313
      169     9314        /* Set up a pointer to the current start of unallocated space. */
      170     9315
      171     9316    2              IF GD_DATA.GD.DYNSP$ = ADDR(GD_DATA.MYSPACE(0)) THEN;

   9316   0 00015F  DC80 0000 0000  xsym                 LDB,B5   GD$DELTA_DATA$
          0 000162  CCC5 0156                            LDB,B4   342,B5
PL6.E3A0      #001=GDB$BLD_BRKPNT File=GDB$BRKPNTS.:E05TSI                       TUE 07/29/97 21:22 Page:26
          0 000164  BBC5 01AE                            LAB,B3   430,B5
          0 000166  BFC7 001C                            STB,B3   DD_WSZ+2,AUTO
          0 000168  CDC7 001C                            CMB,B4   DD_WSZ+2,AUTO
          0 00016A  0901 0045                            BE       s:9351,PREL

      172     9317
      173     9318        /* This is the first breakpoint.  We don't need to check to see if there's
      174     9319           enough space. */
      175     9320
      176     9321    3              ELSE DO;

      177     9322
      178     9323        /* Make sure there's enough room for the breakpoint. */
      179     9324
      180     9325    3                 TEMPSZ = SIZEW(IFBRKPNT) + DD_WSZ;

   9325   0 00016C  5E30                                 ADV,R5   48
          0 00016D  DF47 0012                            STR,R5   TEMPSZ,AUTO

      181     9326        /* If there is an ONCALLS breakpoint at the begining of the 'free'
      182     9327        space, then we have to take it's size into account. */
      183     9328    3                 IF GD_DATA.GD.ONCALLS_BRK$ ~= ADDR(NIL) THEN

   9328   0 00016F  8DC5 0135                            CMN      309,B5
          0 000171  0901 0012                            BE       s:9333,PREL

      184     9329    3                    IF GD_DATA.GD.ONCALLS_BRK$->BRKPNT.FLAGS.IFCOND THEN

   9329   0 000173  ACC5 0135                            LDB,B2   309,B5
          0 000175  82C2 000A                            LB,'1000'X        10,B2
          0 000177       1000
          0 000178  0581 0008                            BBF      s:9332,PREL

      185     9330    3                      TEMPSZ=TEMPSZ+SIZEW(IFBRKPNT)+GD_DATA.GD.ONCALLS_BRK$->IFBRKPNT.
              9330                                IFCOND.DD_SIZE;

   9330   0 00017A  DA42 002D                            ADD,R5   45,B2
PL6.E3A0      #001=GDB$BLD_BRKPNT File=GDB$BRKPNTS.:E05TSI                       TUE 07/29/97 21:22 Page:27
          0 00017C  5E30                                 ADV,R5   48
          0 00017D  DF47 0012                            STR,R5   TEMPSZ,AUTO
          0 00017F  0F81 0004                            B        s:9333,PREL

      186     9331    3                    ELSE
      187     9332    3                       TEMPSZ=TEMPSZ+SIZEW(BRKPNT);

   9332   0 000181  5E0B                                 ADV,R5   11
          0 000182  DF47 0012                            STR,R5   TEMPSZ,AUTO

      188     9333    3                 TEMP$ = ADDR(GD_DATA.MYSPACE(%GD#DYNSZ-1));

   9333   0 000184  ABC5 0413                            LAB,B2   1043,B5
          0 000186  AFC7 0013                            STB,B2   TEMP$,AUTO

      189     9334    3                 TEMP1$ = PINCRW(GD_DATA.GD.DYNSP$,TEMPSZ);

   9334   0 000188  CFC7 001C                            STB,B4   DD_WSZ+2,AUTO
          0 00018A  F855                                 LDR,R7   R5
          0 00018B  6C00                                 LDV,R6   0
          0 00018C  8447 001C                            AID      DD_WSZ+2,AUTO
          0 00018E  8D47 0015                            SDI      TEMP1$,AUTO

      190     9335    3                 IF POFFW(TEMP1$,TEMP$) < 0 THEN;

   9335   0 000190  8CC7 0015                            LDI      TEMP1$,AUTO
          0 000192  84C7 0013                            SID      TEMP$,AUTO
          0 000194  84F0 0000 0000                       SID      0,IMO
          0 000197  6801 0018                            BLZ,R6   s:9351,PREL

      191     9336
      192     9337        /* Do nothing. There's enough space for this break point */
      193     9338
      194     9339    4                 ELSE DO;

      195     9340
      196     9341        /* There's not enough room.  Give up on this breakpoint. */
PL6.E3A0      #001=GDB$BLD_BRKPNT File=GDB$BRKPNTS.:E05TSI                       TUE 07/29/97 21:22 Page:28
      197     9342
      198     9343    4   SENDNOSPACERSP:
      199     9344    4                    CALL GDI$SEND_ERROR_RESPONSE(SIZE,BUFFER,%GD#RSPNOSPACE);

   9344   0 000199  EBF0 003C            SENDNOSPACERSP  LAB,B6   60,IMO
          0 00019B  EFC7 0020                            STB,B6   DD_WSZ+6,AUTO
          0 00019D  DCC7 0006                            LDB,B5   @BUFFER,AUTO
          0 00019F  DFC7 001E                            STB,B5   DD_WSZ+4,AUTO
          0 0001A1  CCC7 0004                            LDB,B4   @SIZE,AUTO
          0 0001A3  CFC7 001C                            STB,B4   DD_WSZ+2,AUTO
          0 0001A5  BBC7 001C                            LAB,B3   DD_WSZ+2,AUTO
          0 0001A7  CBF0 0300                            LAB,B4   768,IMO
          0 0001A9  E380 0000 0000  xent                 LNJ,B6   GDI$SEND_ERROR_RESPONSE
          0 0001AC       0001                            DC       s:9345,PREL

      200     9345    4                    RETURN;

   9345   0 0001AD  C380 0000 0000  xent                 LNJ,B4   X6A_ARET

      201     9346    4                    END;
      202     9347    3                 END /* If there are already some breakpoints around. */;
      203     9348
      204     9349        /* Before we initialize the area, we might have to move the ONCALLS
      205     9350        breakpoint out of the way. */
      206     9351    3               IF GD_DATA.GD.ONCALLS_BRK$ ~= ADDR(NIL) THEN DO;

   9351   0 0001B0  8DC5 0135                            CMN      309,B5
          0 0001B2  0901 0045                            BE       s:9366,PREL

      207     9352    3                  P$=GD_DATA.GD.ONCALLS_BRK$;

   9352   0 0001B4  BCC5 0135                            LDB,B3   309,B5
          0 0001B6  BFC7 0018                            STB,B3   P$,AUTO

      208     9353    3                  TEMP1$=PINCRW(GD_DATA.GD.DYNSP$,SIZEW(IFBRKPNT)+DD_WSZ);

   9353   0 0001B8  CFC7 001C                            STB,B4   DD_WSZ+2,AUTO
PL6.E3A0      #001=GDB$BLD_BRKPNT File=GDB$BRKPNTS.:E05TSI                       TUE 07/29/97 21:22 Page:29
          0 0001BA  F847 001A                            LDR,R7   DD_WSZ,AUTO
          0 0001BC  6C00                                 LDV,R6   0
          0 0001BD  8447 001C                            AID      DD_WSZ+2,AUTO
          0 0001BF  8470 0000 0030                       AID      48,IMO
          0 0001C2  8D47 0015                            SDI      TEMP1$,AUTO

      209     9354    4                  IF P$->BRKPNT.FLAGS.IFCOND THEN DO;

   9354   0 0001C4  82C3 000A                            LB,'1000'X        10,B3
   9354   0 0001C6       1000
          0 0001C7  0581 0029                            BBF      s:9362,PREL

      210     9355    4                     TEMP1$->IFBRKPNT = P$->IFBRKPNT;

   9355   0 0001C9  AB83                                 LAB,B2   ,B3
          0 0001CA  2C00                                 LDV,R2   0
          0 0001CB  6C60                                 LDV,R6   96
          0 0001CC  BCC7 0015                            LDB,B3   TEMP1$,AUTO
          0 0001CE  3C00                                 LDV,R3   0
          0 0001CF  0008                                 MMM

      211     9356    4                     TEMP1$->IFBRKPNT.IFCOND.DD$=PINCRW(TEMP1$,SIZEW(IFBRKPNT));

   9356   0 0001D0  DCC7 0015                            LDB,B5   TEMP1$,AUTO
          0 0001D2  CBC5 0030                            LAB,B4   48,B5
          0 0001D4  CFC5 002E                            STB,B4   46,B5

      212     9357    5                     DO I=0 TO P$->IFBRKPNT.IFCOND.DD_SIZE-1;

   9357   0 0001D6  8747 0017                            CL       I,AUTO
          0 0001D8  0F81 000F                            B        s:9359+2,PREL

      213     9358    5                       TEMP1$->IFBRKPNT.IFCOND.DD$->DD(I)=P$->IFBRKPNT.IFCOND.DD$->DD(
              9358                                 I);

   9358   0 0001DA  ECC7 0015                            LDB,B6   TEMP1$,AUTO
          0 0001DC  DCC6 002E                            LDB,B5   46,B6
PL6.E3A0      #001=GDB$BLD_BRKPNT File=GDB$BRKPNTS.:E05TSI                       TUE 07/29/97 21:22 Page:30
          0 0001DE  CCC7 0018                            LDB,B4   P$,AUTO
          0 0001E0  BCC4 002E                            LDB,B3   46,B4
          0 0001E2  B847 0017                            LDR,R3   I,AUTO
          0 0001E4  E833                                 LDR,R6   ,B3,R3
          0 0001E5  EF35                                 STR,R6   ,B5,R3

      214     9359    5                        END;

   9359   0 0001E6  8AC7 0017                            INC      I,AUTO
          0 0001E8  ECC7 0018                            LDB,B6   P$,AUTO
          0 0001EA  E847 0017                            LDR,R6   I,AUTO
          0 0001EC  E946 002D                            CMR,R6   45,B6
          0 0001EE  026C                                 BL       s:9358,SPREL

      215     9360    4                     END;

   9360   0 0001EF  0F81 0008                            B        s:9366,PREL

      216     9361    3                  ELSE
      217     9362    3                     TEMP1$->BRKPNT = P$->BRKPNT;

   9362   0 0001F1  AB83                                 LAB,B2   ,B3
          0 0001F2  2C00                                 LDV,R2   0
          0 0001F3  6C16                                 LDV,R6   22
          0 0001F4  BCC7 0015                            LDB,B3   TEMP1$,AUTO
          0 0001F6  3C00                                 LDV,R3   0
          0 0001F7  0008                                 MMM

      218     9363    3                  END;

      219     9364        /* Initialize the area */
      220     9365
      221     9366    2              GD_DATA.GD.DYNSP$->IFBRKPNT = '0'B;

   9366   0 0001F8  EC80 0000 0000  xsym                 LDB,B6   GD$DELTA_DATA$
          0 0001FB  DCC6 0156                            LDB,B5   342,B6
          0 0001FD  5C60                                 LDV,R5   96
PL6.E3A0      #001=GDB$BLD_BRKPNT File=GDB$BRKPNTS.:E05TSI                       TUE 07/29/97 21:22 Page:31
          0 0001FE  0021                                 ALR      ;
          0 0001FF       4178 0000                                ALPHANUM('0000'X,IMO,,1),;
          0 000201       4005 0000                                ALPHANUM(0,B5,,R5,FILL)

      222     9367
      223     9368        /* Put in the conditional stuff. */
      224     9369
      225     9370    2              GD_DATA.GD.DYNSP$->IFBRKPNT.IFCOND.COND = GD$MSG.BRKRQS.COND;

   9370   0 000203  437F                                 CSYNC    s:9366+10,SPREL
          0 000204  EC80 0000 0000  xsym                 LDB,B6   GD$DELTA_DATA$
          0 000207  DCC6 0156                            LDB,B5   342,B6
          0 000209  CCC7 0006                            LDB,B4   @BUFFER,AUTO
          0 00020B  E844 0005                            LDR,R6   5,B4
          0 00020D  E570 0007                            AND,R6   7,IMO
          0 00020F  EF45 000C                            STR,R6   12,B5

      226     9371    2              GD_DATA.GD.DYNSP$->IFBRKPNT.FLAGS.IFCOND = '1'B;

   9371   0 000211  DCC6 0156                            LDB,B5   342,B6
          0 000213  8945 000A                            LBT,'1000'X       10,B5
          0 000215       1000

      227     9372    2              GD_DATA.GD.DYNSP$->IFBRKPNT.IFCOND.CTYPE = GD$MSG.BRKRQS.CTYPE;

   9372   0 000216  DCC6 0156                            LDB,B5   342,B6
          0 000218  E844 0005                            LDR,R6   5,B4
          0 00021A  6043                                 SOR,R6   3
          0 00021B  E570 001F                            AND,R6   31,IMO
          0 00021D  EF45 000B                            STR,R6   11,B5

      228     9373    2              GD_DATA.GD.DYNSP$->IFBRKPNT.IFCOND.CONS$TANT =

   9373   0 00021F  DCC6 0156                            LDB,B5   342,B6
          0 000221  AB84                                 LAB,B2   ,B4
          0 000222  2C0C                                 LDV,R2   12
          0 000223  6C40                                 LDV,R6   64
PL6.E3A0      #001=GDB$BLD_BRKPNT File=GDB$BRKPNTS.:E05TSI                       TUE 07/29/97 21:22 Page:32
          0 000224  BB85                                 LAB,B3   ,B5
          0 000225  3C1A                                 LDV,R3   26
          0 000226  0008                                 MMM

      229     9374    2                 GD$MSG.BRKRQS.IF$CONST;
      230     9375    2              GD_DATA.GD.DYNSP$->IFBRKPNT.IFCOND.DD_SIZE =

   9375   0 000227  EC80 0000 0000  xsym                 LDB,B6   GD$DELTA_DATA$
          0 00022A  9CC6 0156                            LDB,B1   342,B6
          0 00022C  E842 0026                            LDR,R6   38,B2
          0 00022E  EF41 002D                            STR,R6   45,B1

      231     9376    2                 GD$MSG.BRKRQS.DATA_DESC_SIZE;
      232     9377    2              GD_DATA.GD.DYNSP$->IFBRKPNT.IFCOND.DD$ =

   9377   0 000230  9CC6 0156                            LDB,B1   342,B6
          0 000232  EBC1 0030                            LAB,B6   48,B1
          0 000234  EFC1 002E                            STB,B6   46,B1

      233     9378    2                 PINCRW(GD_DATA.GD.DYNSP$,SIZEW(IFBRKPNT));
      234     9379    3              DO I = 0 TO DD_WSZ - 1;

   9379   0 000236  8747 0017                            CL       I,AUTO
          0 000238  0F81 0012                            B        s:9382+2,PREL

      235     9380    3                 GD_DATA.GD.DYNSP$->IFBRKPNT.IFCOND.DD$->DD(I) =

   9380   0 00023A  EC80 0000 0000  xsym                 LDB,B6   GD$DELTA_DATA$
          0 00023D  DCC6 0156                            LDB,B5   342,B6
          0 00023F  CCC5 002E                            LDB,B4   46,B5
          0 000241  B847 0017                            LDR,R3   I,AUTO
          0 000243  BCC7 0006                            LDB,B3   @BUFFER,AUTO
          0 000245  A853                                 LDR,R2   R3
          0 000246  2E27                                 ADV,R2   39
          0 000247  E823                                 LDR,R6   ,B3,R2
          0 000248  EF34                                 STR,R6   ,B4,R3

PL6.E3A0      #001=GDB$BLD_BRKPNT File=GDB$BRKPNTS.:E05TSI                       TUE 07/29/97 21:22 Page:33
      236     9381    3                    GD$MSG.BRKRQS.IF_DATA_DESC(I);
      237     9382    3                 END;

   9382   0 000249  8AC7 0017                            INC      I,AUTO
          0 00024B  E847 0017                            LDR,R6   I,AUTO
          0 00024D  E947 001A                            CMR,R6   DD_WSZ,AUTO
          0 00024F  026B                                 BL       s:9380,SPREL

      238     9383    2              BRK$ = ADDR(GD_DATA.MYSPACE(0));

   9383   0 000250  EC80 0000 0000  xsym                 LDB,B6   GD$DELTA_DATA$
          0 000253  DBC6 01AE                            LAB,B5   430,B6
          0 000255  DFC7 0010                            STB,B5   BRK$,AUTO

      239     9384    2              IF BRK$ = GD_DATA.GD.DYNSP$ THEN

   9384   0 000257  DDC6 0156                            CMB,B5   342,B6
          0 000259  0981 0007                            BNE      s:9387,PREL

      240     9385    2                 BRK$->BRKPNT.FLINK$ = ADDR(NIL);

   9385   0 00025B  CB80 0000 0000                       LAB,B4   0
          0 00025E  CF85                                 STB,B4   ,B5
          0 00025F  0F81 005C                            B        s:9426,PREL

      241     9386    3              ELSE DO;

      242     9387    4                 DO WHILE BRK$->BRKPNT.FLINK$ ~= ADDR(NIL);

   9387   0 000261  0F81 0006                            B        s:9389,PREL

      243     9388    4                    BRK$ = BRK$->BRKPNT.FLINK$;

   9388   0 000263  ECC7 0010                            LDB,B6   BRK$,AUTO
          0 000265  DC86                                 LDB,B5   ,B6
          0 000266  DFC7 0010                            STB,B5   BRK$,AUTO

PL6.E3A0      #001=GDB$BLD_BRKPNT File=GDB$BRKPNTS.:E05TSI                       TUE 07/29/97 21:22 Page:34
      244     9389    4                    END;

   9389   0 000268  8D85                                 CMN      ,B5
          0 000269  09FA                                 BNE      s:9388,SPREL

      245     9390    3                 BRK$->BRKPNT.FLINK$ = GD_DATA.GD.DYNSP$;

   9390   0 00026A  EC80 0000 0000  xsym                 LDB,B6   GD$DELTA_DATA$
          0 00026D  CCC6 0156                            LDB,B4   342,B6
          0 00026F  CF85                                 STB,B4   ,B5

      246     9391    3                 END;

      247     9392    2              END /* IF GD$MSG.BRKRQS.IFSPEC */;

   9392   0 000270  0F81 004B                            B        s:9426,PREL

      248     9393    2           ELSE DO;

      249     9394
      250     9395        /* This is a breakpoint without an attached IF.  Do we have enough room
      251     9396           for it? */
      252     9397
      253     9398    2              IF GD_DATA.GD.DYNSP$ = ADDR(GD_DATA.MYSPACE(0)) THEN;

   9398   0 000272  DC80 0000 0000  xsym                 LDB,B5   GD$DELTA_DATA$
          0 000275  CCC5 0156                            LDB,B4   342,B5
          0 000277  BBC5 01AE                            LAB,B3   430,B5
          0 000279  BFC7 001C                            STB,B3   DD_WSZ+2,AUTO
          0 00027B  CDC7 001C                            CMB,B4   DD_WSZ+2,AUTO
          0 00027D  0901 0014                            BE       s:9412,PREL

      254     9399
      255     9400        /* Assume there's enough room. */
      256     9401
      257     9402    2              ELSE
      258     9403
PL6.E3A0      #001=GDB$BLD_BRKPNT File=GDB$BRKPNTS.:E05TSI                       TUE 07/29/97 21:22 Page:35
      259     9404        /* Make sure there's enough room. */
      260     9405
      261     9406    2                 IF POFFW(PINCRW(GD_DATA.GD.DYNSP$,SIZEW(BRKPNT)),

   9406   0 00027F  8CC5 0156                            LDI      342,B5
          0 000281  8480 0000 0000  xsym                 SID      GD$DELTA_DATA$
          0 000284  8470 FFFF FBF8                       AID      -1032,IMO
          0 000287  84F0 0000 0000                       SID      0,IMO
          0 00028A  6A01 FF0E                            BGZ,R6   s:9339,PREL
          0 00028C  6801 0003                            BLZ,R6   s:9407,PREL
          0 00028E  7981 FF0A                            BNEZ,R7  s:9339,PREL

      262     9407    2                          ADDR(GD_DATA.MYSPACE(%GD#DYNSZ-1))) <= 0 THEN;

   9407   0 000290  0F81 0001                            B        s:9412,PREL

      263     9408    2                 ELSE GOTO SENDNOSPACERSP;
      264     9409
      265     9410        /* Fill in the FLINK in the previous breakpoint. */
      266     9411
      267     9412    2              BRK$ = ADDR(GD_DATA.MYSPACE(0));

   9412   0 000292  ABC5 01AE                            LAB,B2   430,B5
          0 000294  AFC7 0010                            STB,B2   BRK$,AUTO

      268     9413    2              IF BRK$ = GD_DATA.GD.DYNSP$ THEN

   9413   0 000296  ADC5 0156                            CMB,B2   342,B5
          0 000298  0981 0007                            BNE      s:9416,PREL

      269     9414    2                 BRK$->BRKPNT.FLINK$ = ADDR(NIL);

   9414   0 00029A  9B80 0000 0000                       LAB,B1   0
          0 00029D  9F82                                 STB,B1   ,B2
          0 00029E  0F81 0012                            B        s:9421,PREL

      270     9415    3              ELSE DO;
PL6.E3A0      #001=GDB$BLD_BRKPNT File=GDB$BRKPNTS.:E05TSI                       TUE 07/29/97 21:22 Page:36

      271     9416    4                 DO WHILE BRK$->BRKPNT.FLINK$ ~= ADDR(NIL);

   9416   0 0002A0  0F81 0006                            B        s:9418,PREL

      272     9417    4                    BRK$ = BRK$->BRKPNT.FLINK$;

   9417   0 0002A2  ECC7 0010                            LDB,B6   BRK$,AUTO
          0 0002A4  DC86                                 LDB,B5   ,B6
          0 0002A5  DFC7 0010                            STB,B5   BRK$,AUTO

      273     9418    4                    END;

   9418   0 0002A7  ECC7 0010                            LDB,B6   BRK$,AUTO
          0 0002A9  8D86                                 CMN      ,B6
          0 0002AA  09F8                                 BNE      s:9417,SPREL

      274     9419    3                 BRK$->BRKPNT.FLINK$ = GD_DATA.GD.DYNSP$;

   9419   0 0002AB  DC80 0000 0000  xsym                 LDB,B5   GD$DELTA_DATA$
          0 0002AE  CCC5 0156                            LDB,B4   342,B5
          0 0002B0  CF86                                 STB,B4   ,B6

      275     9420    3                 END;

      276     9421    2              GD_DATA.GD.DYNSP$->BRKPNT = '0'B;

   9421   0 0002B1  EC80 0000 0000  xsym                 LDB,B6   GD$DELTA_DATA$
          0 0002B4  DCC6 0156                            LDB,B5   342,B6
          0 0002B6  5C16                                 LDV,R5   22
          0 0002B7  0021                                 ALR      ;
          0 0002B8       4178 0000                                ALPHANUM('0000'X,IMO,,1),;
          0 0002BA       4005 0000                                ALPHANUM(0,B5,,R5,FILL)

      277     9422    2              END /* It's an unconditional breakpoint */;

      278     9423
PL6.E3A0      #001=GDB$BLD_BRKPNT File=GDB$BRKPNTS.:E05TSI                       TUE 07/29/97 21:22 Page:37
      279     9424        /* Update DYNSP$ */
      280     9425
      281     9426    1           BRK$ = GD_DATA.GD.DYNSP$;

   9426   0 0002BC  437F                                 CSYNC    s:9421+10,SPREL
          0 0002BD  EC80 0000 0000  xsym                 LDB,B6   GD$DELTA_DATA$
          0 0002C0  DCC6 0156                            LDB,B5   342,B6
          0 0002C2  DFC7 0010                            STB,B5   BRK$,AUTO

      282     9427    1           IF GD$MSG.BRKRQS.IFSPEC THEN

   9427   0 0002C4  CCC7 0006                            LDB,B4   @BUFFER,AUTO
          0 0002C6  82C4 0001                            LB,'0080'X        1,B4
          0 0002C8       0080
          0 0002C9  0581 000E                            BBF      s:9430,PREL

      283     9428    1              GD_DATA.GD.DYNSP$ =

   9428   0 0002CB  BCC5 002E                            LDB,B3   46,B5
          0 0002CD  BFC7 001C                            STB,B3   DD_WSZ+2,AUTO
          0 0002CF  F847 001A                            LDR,R7   DD_WSZ,AUTO
          0 0002D1  6C00                                 LDV,R6   0
          0 0002D2  8447 001C                            AID      DD_WSZ+2,AUTO
          0 0002D4  8D46 0156                            SDI      342,B6
          0 0002D6  0F81 0005                            B        s:9434,PREL

      284     9429    1                 PINCRW(GD_DATA.GD.DYNSP$->IFBRKPNT.IFCOND.DD$,DD_WSZ);
      285     9430    1           ELSE GD_DATA.GD.DYNSP$ = PINCRW(GD_DATA.GD.DYNSP$,SIZEW(BRKPNT));

   9430   0 0002D8  BBC5 000B                            LAB,B3   11,B5
          0 0002DA  BFC6 0156                            STB,B3   342,B6

      286     9431
      287     9432        /* Set up the rest of the stuff in the breakpoint table */
      288     9433
      289     9434    1           BRK$->BRKPNT.BRKNUM = GD$MSG.BRKRQS.BRKNUM;

PL6.E3A0      #001=GDB$BLD_BRKPNT File=GDB$BRKPNTS.:E05TSI                       TUE 07/29/97 21:22 Page:38
   9434   0 0002DC  E2C4 0001                            LLH,R6   1,B4
          0 0002DE  EF45 0002                            STR,R6   2,B5

      290     9435    1           BRK$->BRKPNT.FLAGS.INTERPRETIVE = GD$MSG.SUBFB.INTERPRETIVE;

   9435   0 0002E0  D804                                 LDR,R5   ,B4
          0 0002E1  500B                                 SOL,R5   11
          0 0002E2  DAC5 000A                            SRM,R5,'2000'X    10,B5
          0 0002E4       2000

      291     9436    1           BRK$->BRKPNT.ADR$ = GD$MSG.BRKRQS.ADR$;

   9436   0 0002E5  BCC4 0003                            LDB,B3   3,B4
          0 0002E7  BFC5 0005                            STB,B3   5,B5

      292     9437    1           BRK$->BRKPNT.FLAGS.ACTIVE = %G_ENABLE#;

   9437   0 0002E9  8945 000A                            LBT,'8000'X       10,B5
   9437   0 0002EB       8000

      293     9438    1           P$ = GD$MSG.BRKRQS.ADR$;

   9438   0 0002EC  ACC4 0003                            LDB,B2   3,B4
          0 0002EE  AFC7 0018                            STB,B2   P$,AUTO

      294     9439    1           IF GD_DATA.GD.MODE = %GD#MODE_XDELTA AND (P < %GM_ISR1_BASE OR

   9439   0 0002F0  E846 0130                            LDR,R6   304,B6
          0 0002F2  6D02                                 CMV,R6   2
          0 0002F3  0981 0010                            BNE      s:9443,PREL
          0 0002F5  8CC7 0018                            LDI      P$,AUTO
          0 0002F7  84F0 0001 0000                       SID      65536,IMO
          0 0002FA  0681 0005                            BCF      s:9441,PREL
          0 0002FC  E846 0148                            LDR,R6   328,B6
          0 0002FE  6901 0005                            BEZ,R6   s:9443,PREL

      295     9440    1              GD_DATA.GD.ASDT_OFFSET ~= 0) THEN
PL6.E3A0      #001=GDB$BLD_BRKPNT File=GDB$BRKPNTS.:E05TSI                       TUE 07/29/97 21:22 Page:39
      296     9441    1              BRK$->BRKPNT.USER# = 0;

   9441   0 000300  8745 0008                            CL       8,B5
          0 000302  0F81 0005                            B        s:9444,PREL

      297     9442    1           ELSE
      298     9443    1              BRK$->BRKPNT.USER# = GD_DATA.GD.USERNO;

   9443   0 000304  E846 016B                            LDR,R6   363,B6
          0 000306  EF45 0008                            STR,R6   8,B5

      299     9444    2           IF GD$MSG.FNC = %GD#RQSONCALLBRKPNT THEN DO;

   9444   0 000308  E284                                 LLH,R6   ,B4
          0 000309  6D1B                                 CMV,R6   27
          0 00030A  0981 000B                            BNE      s:9449,PREL

      300     9445    2              BRK$->BRKPNT.FLAGS.ONCALL = '1'B;

   9445   0 00030C  8945 000A                            LBT,'0800'X       10,B5
   9445   0 00030E       0800

      301     9446    2              GD_DATA.GD.ONCALL$ = P$;

   9446   0 00030F  BCC7 0018                            LDB,B3   P$,AUTO
          0 000311  BFC6 014E                            STB,B3   334,B6

      302     9447    2              GD_DATA.GD.ONCALL = '1'B;

   9447   0 000313  8946 014C                            LBT,'0800'X       332,B6
   9447   0 000315       0800

      303     9448    2              END;

      304     9449    1           BRK$->BRKPNT.BYPASSCOUNT = GD$MSG.BRKRQS.BYPASSCOUNT;

   9449   0 000316  E844 0002                            LDR,R6   2,B4
PL6.E3A0      #001=GDB$BLD_BRKPNT File=GDB$BRKPNTS.:E05TSI                       TUE 07/29/97 21:22 Page:40
          0 000318  EF45 0003                            STR,R6   3,B5

      305     9450    1           BRK$->BRKPNT.CUR_BYPASSCOUNT = GD$MSG.BRKRQS.BYPASSCOUNT;

   9450   0 00031A  D844 0002                            LDR,R5   2,B4
          0 00031C  DF45 0004                            STR,R5   4,B5

      306     9451    1           CALL GDI$SEND_ERROR_RESPONSE(SIZE,BUFFER,%GD#RSPACK);

   9451   0 00031E  BBF0 0023                            LAB,B3   35,IMO
          0 000320  BFC7 0020                            STB,B3   DD_WSZ+6,AUTO
          0 000322  CFC7 001E                            STB,B4   DD_WSZ+4,AUTO
          0 000324  ACC7 0004                            LDB,B2   @SIZE,AUTO
          0 000326  AFC7 001C                            STB,B2   DD_WSZ+2,AUTO
          0 000328  BBC7 001C                            LAB,B3   DD_WSZ+2,AUTO
          0 00032A  CBF0 0300                            LAB,B4   768,IMO
          0 00032C  E380 0000 0000  xent                 LNJ,B6   GDI$SEND_ERROR_RESPONSE
          0 00032F       0001                            DC       s:9453,PREL

      307     9452        /**/
      308     9453    1           RETURN;

   9453   0 000330  C380 0000 0000  xent                 LNJ,B4   X6A_ARET
      309     9454        /**/
      310     9455    1   END GDB$BLD_BRKPNT;
      311     9456        %EOD;

PL6.E3A0      #001=GDB$BLD_BRKPNT File=GDB$BRKPNTS.:E05TSI                       TUE 07/29/97 21:22 Page:41
--  Include file information  --

   GD_BRKPNT_M.:E05TOU  is referenced.
   KH$CHN.:E05TOU  is referenced.
   G_HJIT_M.:E05TOU  is referenced.
   GM_VIRTUAL_E.:E05TOU  is referenced.
   GH_HARDWARE_M.:E05TOU  is referenced.
   DD_SRTN_C.:E05TOU  is referenced.
   DD_ACODE_C.:E05TOU  is referenced.
   DD_ICODE_C.:E05TOU  is referenced.
   DD$DITEM.:E05TOU  cannot be made into a system file and is referenced.
   GD$MACS_M.:E05TOU  is referenced.
   GD$MSG_M.:E05TOU  is referenced.
   GDA_EQUS_E.:E05TOU  is referenced.
   GD_EQUS_E.:E05TOU  is referenced.
   GD_DATA_M.:E05TOU  is referenced.
   GD_STATIC_DATA.:E05TOU  cannot be made into a system file and is referenced.
   LCP_6.:E05TOU  cannot be made into a system file and is referenced.
   G_LCP6_E.:E05TOU  was found in the system file and is referenced.
   GT_LCP6_M.:E05TOU  was found in the system file and is referenced.
   KI_CP6.:E05TOU  was found in the system file and is referenced.
   GF_LCP6_M.:E05TOU  was found in the system file and is referenced.
   GM_LCP6_M.:E05TOU  was found in the system file and is referenced.
   GU_LCP6_M.:E05TOU  was found in the system file and is referenced.
   GJ_LCP6_M.:E05TOU  was found in the system file and is referenced.
   GH_LCP6_M.:E05TOU  was found in the system file and is referenced.
      No diagnostics issued in procedure GDB$BLD_BRKPNT.
PL6.E3A0      #001=GDB$BLD_BRKPNT File=GDB$BRKPNTS.:E05TSI                       TUE 07/29/97 21:22 Page:42

 **** Variables and constants ****

  ****  Auto variables  ****

  ****  Scalars and arrays  ****
HexLoc.c.b A Datatyp(siz) R M Lvl/name                 HexLoc.c.b A Datatyp(siz) R M Lvl/name

     6-0-0/w PTR         r     1 @BUFFER                    4-0-0/w PTR         r     1 @SIZE
    10-0-0/w PTR         r     1 BRK$                      *0-0-0/w ACHR        r     1 BUFFER
    1A-0-0/w UBIN(16)    r     1 DD_WSZ                    *0-0-0/w STRC(3344)  r     1 GD$MSG
    17-0-0/w UBIN(16)    r     1 I                         18-0-0/w UBIN(32)    r     1 P
    18-0-0/w PTR         r     1 P$                        *0-0-0/w UBIN(16)    r     1 SIZE
    13-0-0/w PTR         r     1 TEMP$                     15-0-0/w PTR         r     1 TEMP1$
    12-0-0/w UBIN(16)    r     1 TEMPSZ

  ****  SYMREF variables  ****

  ****  Scalars and arrays  ****
HexLoc.c.b A Datatyp(siz) R M Lvl/name                 HexLoc.c.b A Datatyp(siz) R M Lvl/name

     0-0-0/w PTR         r     1 G$MHJIT$                   0-0-0/w PTR         r     1 GD$DELTA_DATA$

  ****  BASED and DCB variables  ****

  ****  Scalars and arrays  ****
HexLoc.c.b A Datatyp(siz) R M Lvl/name                 HexLoc.c.b A Datatyp(siz) R M Lvl/name

     0-0-0/w STRC(176)   r     1 BRKPNT                     0-0-0/w UBIN(16)    r     1 DD(0:0)
     0-0-0/w STRC(27232) r     1 G$MHJIT                    0-0-0/w STRC(32)    r     1 G$SEGDESC
     0-0-0/w STRC(16704) r     1 GD_DATA                    0-0-0/w STRC(80)    r     1 GH_VLD
     0-0-0/w STRC(768)   r     1 IFBRKPNT


   Procedure GDB$BLD_BRKPNT requires 819 words for executable code.
   Procedure GDB$BLD_BRKPNT requires 34 words of local(AUTO) storage.
PL6.E3A0      #001=GDB$BLD_BRKPNT File=GDB$BRKPNTS.:E05TSI                       TUE 07/29/97 21:22 Page:43
          *** CROSS REFERENCE LISTING ***
**     DENOTES     IDENTIFIER DEFINITION
<<                 IDENTIFIER'S VALUE SET
>>                 IDENTIFIER'S VALUE USED
<>                 IDENTIFIER SET AND/OR USED
--                 IDENTIFIER REFERENCED
PL6.E3A0      #001=GDB$BLD_BRKPNT File=GDB$BRKPNTS.:E05TSI                       TUE 07/29/97 21:22 Page:44
          MINI XREF LISTING

BRK$
      2218**DCL      9290<<ASSIGN   9292>>DOWHILE  9293>>IF       9294<<ASSIGN   9294>>ASSIGN   9383<<ASSIGN
      9384>>IF       9385>>ASSIGN   9387>>DOWHILE  9388<<ASSIGN   9388>>ASSIGN   9390>>ASSIGN   9412<<ASSIGN
      9413>>IF       9414>>ASSIGN   9416>>DOWHILE  9417<<ASSIGN   9417>>ASSIGN   9419>>ASSIGN   9426<<ASSIGN
      9434>>ASSIGN   9435>>ASSIGN   9436>>ASSIGN   9437>>ASSIGN   9441>>ASSIGN   9443>>ASSIGN   9445>>ASSIGN
      9449>>ASSIGN   9450>>ASSIGN
BRKPNT
      2244**DCL      9244--ASSIGN   9255<<ASSIGN   9332--ASSIGN   9362<<ASSIGN   9362>>ASSIGN   9406--IF
      9421<<ASSIGN   9430--ASSIGN
BRKPNT.ADR$
      2244**DCL      2244--REDEF    9436<<ASSIGN
BRKPNT.BRKNUM
      2244**DCL      9256<<ASSIGN   9293>>IF       9434<<ASSIGN
BRKPNT.BYPASSCOUNT
      2244**DCL      9257<<ASSIGN   9449<<ASSIGN
BRKPNT.CUR_BYPASSCOUNT
      2244**DCL      9258<<ASSIGN   9450<<ASSIGN
BRKPNT.FLAGS.ACTIVE
      2245**DCL      9437<<ASSIGN
BRKPNT.FLAGS.IFCOND
      2245**DCL      9329>>IF       9354>>IF
BRKPNT.FLAGS.INTERPRETIVE
      2245**DCL      9435<<ASSIGN
BRKPNT.FLAGS.ONCALL
      2246**DCL      9445<<ASSIGN
BRKPNT.FLINK$
      2244**DCL      9294>>ASSIGN   9385<<ASSIGN   9387>>DOWHILE  9388>>ASSIGN   9390<<ASSIGN   9414<<ASSIGN
      9416>>DOWHILE  9417>>ASSIGN   9419<<ASSIGN
BRKPNT.USER#
      2245**DCL      9441<<ASSIGN   9443<<ASSIGN
BUFFER
      2048**DCL        24--PROC     2066--REDEF    9272<>CALL     9284<>CALL     9299<>CALL     9344<>CALL
PL6.E3A0      #001=GDB$BLD_BRKPNT File=GDB$BRKPNTS.:E05TSI                       TUE 07/29/97 21:22 Page:45
      9451<>CALL
DD
      2294**DCL      9268<<ASSIGN   9358<<ASSIGN   9358>>ASSIGN   9380<<ASSIGN
DD_WSZ
      2225**DCL      9312<<ASSIGN   9325>>ASSIGN   9353>>ASSIGN   9379>>DOINDEX  9428>>ASSIGN
G$MHJIT.ASDT_MON.DB_PROC
      2884**DCL      9279>>IF
G$MHJIT.INTCON.HHJIT
      8808**DCL      8808--REDEF
G$MHJIT.INTCON.P$$
      8781**DCL      8781--REDEF
G$MHJIT.ISA_BIGFOOT.P$$
      5726**DCL      5726--REDEF
G$MHJIT.ISA_DBINH.P$$
      6940**DCL      6940--REDEF
G$MHJIT.ISA_IDLE.P$$
      3821**DCL      3821--REDEF
G$MHJIT.ISA_LVL10.P$$
      7243**DCL      7243--REDEF
G$MHJIT.ISA_LVL11.P$$
      7546**DCL      7546--REDEF
G$MHJIT.ISA_LVL12.P$$
      7849**DCL      7849--REDEF
G$MHJIT.ISA_LVL5.P$$
      6029**DCL      6029--REDEF
G$MHJIT.ISA_OV.P$$
      5423**DCL      5423--REDEF
G$MHJIT.ISA_PFS.P$$
      5094**DCL      5094--REDEF
G$MHJIT.ISA_RT_CLOCK.P$$
      8456**DCL      8456--REDEF
G$MHJIT.ISA_SATYR_RCV.P$$
      6333**DCL      6333--REDEF
G$MHJIT.ISA_SATYR_TRN.P$$
      6637**DCL      6637--REDEF
G$MHJIT.ISA_SCHD.P$$
PL6.E3A0      #001=GDB$BLD_BRKPNT File=GDB$BRKPNTS.:E05TSI                       TUE 07/29/97 21:22 Page:46
      8152**DCL      8152--REDEF
G$MHJIT.ISA_WDOG.P$$
      5202**DCL      5202--REDEF
G$MHJIT.TSA_DB.ISA.P$$
      4424**DCL      4424--REDEF
G$MHJIT.TSA_DB.P$$
      4295**DCL      4295--REDEF    4296--REDEF
G$MHJIT.TSA_HND.ISA.P$$
      9002**DCL      9002--REDEF
G$MHJIT.TSA_HND.P$$
      8873**DCL      8873--REDEF    8874--REDEF
G$MHJIT.TSA_MON.ISA.P$$
      4036**DCL      4036--REDEF
G$MHJIT.TSA_MON.P$$
      3907**DCL      3907--REDEF    3908--REDEF
G$MHJIT.TSA_OV.ISA.P$$
      4812**DCL      4812--REDEF
G$MHJIT.TSA_OV.P$$
      4683**DCL      4683--REDEF    4684--REDEF
G$MHJIT$
      9230**DCL      2346--IMP-PTR  9279>>IF
G$SEGDESC
      9217**DCL      9279>>IF
GD$DELTA_DATA$
       647**DCL       661--IMP-PTR  9247>>ASSIGN   9248>>ASSIGN   9250>>ASSIGN   9250>>ASSIGN   9251>>ASSIGN
      9266>>ASSIGN   9279>>IF       9279>>IF       9279>>IF       9279>>IF       9290>>ASSIGN   9291>>IF
      9291>>IF       9316>>IF       9316>>IF       9328>>IF       9329>>IF       9330>>ASSIGN   9333>>ASSIGN
      9334>>ASSIGN   9351>>IF       9352>>ASSIGN   9353>>ASSIGN   9366>>ASSIGN   9370>>ASSIGN   9371>>ASSIGN
      9372>>ASSIGN   9373>>ASSIGN   9375>>ASSIGN   9377>>ASSIGN   9377>>ASSIGN   9380>>ASSIGN   9383>>ASSIGN
      9384>>IF       9390>>ASSIGN   9398>>IF       9398>>IF       9406>>IF       9406>>IF       9412>>ASSIGN
      9413>>IF       9419>>ASSIGN   9421>>ASSIGN   9426>>ASSIGN   9428>>ASSIGN   9428>>ASSIGN   9430>>ASSIGN
      9430>>ASSIGN   9439>>IF       9439>>IF       9443>>ASSIGN   9446>>ASSIGN   9447>>ASSIGN
GD$MSG.BRKRQS.ADR$
      2113**DCL      9277>>ASSIGN   9436>>ASSIGN   9438>>ASSIGN
GD$MSG.BRKRQS.BRKNUM
      2109**DCL      9256>>ASSIGN   9293>>IF       9297>>IF       9434>>ASSIGN
PL6.E3A0      #001=GDB$BLD_BRKPNT File=GDB$BRKPNTS.:E05TSI                       TUE 07/29/97 21:22 Page:47
GD$MSG.BRKRQS.BYPASSCOUNT
      2113**DCL      9257>>ASSIGN   9258>>ASSIGN   9449>>ASSIGN   9450>>ASSIGN
GD$MSG.BRKRQS.COND
      2117**DCL      9261>>ASSIGN   9370>>ASSIGN
GD$MSG.BRKRQS.CTYPE
      2117**DCL      9263>>ASSIGN   9372>>ASSIGN
GD$MSG.BRKRQS.DATA_DESC_SIZE
      2124**DCL      9241>>ASSIGN   9265>>ASSIGN   9312>>ASSIGN   9375>>ASSIGN
GD$MSG.BRKRQS.IF$CONST
      2117**DCL      9264>>ASSIGN   9373>>ASSIGN
GD$MSG.BRKRQS.IF$CONST.SIZE
      2117**DCL      2117--REDEF
GD$MSG.BRKRQS.IF$CONST.TEXT
      2117**DCL      2118--REDEF    2118--REDEF    2119--REDEF    2120--REDEF
GD$MSG.BRKRQS.IFSPEC
      2113**DCL      9240>>IF       9252>>IF       9259>>IF       9308>>IF       9427>>IF
GD$MSG.BRKRQS.IF_DATA_DESC
      2124**DCL      9268>>ASSIGN   9380>>ASSIGN
GD$MSG.BRKRSP.BRK#
      2131**DCL      2131--REDEF
GD$MSG.BRKRSP.USER#
      2131**DCL      2131--REDEF
GD$MSG.FNC
      2066**DCL      9238>>IF       9444>>IF
GD$MSG.LETMEM_D.VALUE.SIZE
      2089**DCL      2089--REDEF
GD$MSG.LETMEM_D.VALUE.TEXT
      2090**DCL      2090--REDEF    2090--REDEF    2091--REDEF    2092--REDEF
GD$MSG.MESSAGE
      2071**DCL      2071--REDEF    2072--REDEF    2072--REDEF    2073--REDEF    2084--REDEF    2097--REDEF
      2102--REDEF    2109--REDEF    2125--REDEF    2130--REDEF    2136--REDEF    2137--REDEF    2166--REDEF
      2168--REDEF    2179--REDEF    2186--REDEF    2198--REDEF
GD$MSG.SUBFB.INTERPRETIVE
      2070**DCL      9435>>ASSIGN
GD$MSG.SUBFNC
      2066**DCL      2066--REDEF    2070--REDEF
PL6.E3A0      #001=GDB$BLD_BRKPNT File=GDB$BRKPNTS.:E05TSI                       TUE 07/29/97 21:22 Page:48
GD$MSG.TSA.I
      2138**DCL      2138--REDEF
GD$MSG.TSA.S
      2140**DCL      2140--REDEF
GD$MSG.USERQS.ASDT$
      2166**DCL      2166--REDEF    2167--REDEF
GDI$SEND_ERROR_RESPONSE
      2211**DCL-ENT  9272--CALL     9284--CALL     9299--CALL     9344--CALL     9451--CALL
GDU$SETUP_WINDOW
      2212**DCL-ENT  9278--CALL
GD_DATA.GD.ASDT_OFFSET
       667**DCL      9439>>IF
GD_DATA.GD.ASDT_WINDOW$
       683**DCL      9279>>IF
GD_DATA.GD.DYNSP$
       674**DCL       674--REDEF    9248>>ASSIGN   9250>>ASSIGN   9251>>ASSIGN   9266>>ASSIGN   9291>>IF
      9316>>IF       9334>>ASSIGN   9353>>ASSIGN   9366>>ASSIGN   9370>>ASSIGN   9371>>ASSIGN   9372>>ASSIGN
      9373>>ASSIGN   9375>>ASSIGN   9377>>ASSIGN   9377>>ASSIGN   9380>>ASSIGN   9384>>IF       9390>>ASSIGN
      9398>>IF       9406>>IF       9413>>IF       9419>>ASSIGN   9421>>ASSIGN   9426>>ASSIGN   9428<<ASSIGN
      9428>>ASSIGN   9430<<ASSIGN   9430>>ASSIGN
GD_DATA.GD.MODE
       664**DCL      9279>>IF       9439>>IF
GD_DATA.GD.ONCALL
       669**DCL      9447<<ASSIGN
GD_DATA.GD.ONCALL$
       673**DCL      9446<<ASSIGN
GD_DATA.GD.ONCALLS_BRK$
       665**DCL      9250<<ASSIGN   9328>>IF       9329>>IF       9330>>ASSIGN   9351>>IF       9352>>ASSIGN
GD_DATA.GD.STEP_BRKPNT.ADR$
       675**DCL       676--REDEF
GD_DATA.GD.STEP_BRKPNT.START$
       676**DCL       676--REDEF
GD_DATA.GD.USERNO
       681**DCL      9443>>ASSIGN
GD_DATA.GD.USE_REAL
       671**DCL      9279>>IF
PL6.E3A0      #001=GDB$BLD_BRKPNT File=GDB$BRKPNTS.:E05TSI                       TUE 07/29/97 21:22 Page:49
GD_DATA.GD.VLD
       682**DCL      9279--IF
GD_DATA.MYSPACE
       692**DCL      9247--ASSIGN   9290--ASSIGN   9291--IF       9316--IF       9333--ASSIGN   9383--ASSIGN
      9398--IF       9406--IF       9412--ASSIGN
GH_VLD.STATUS
      2327**DCL      9279>>IF
I
      2222**DCL      9267<<DOINDEX  9268>>ASSIGN   9268>>ASSIGN   9357<<DOINDEX  9358>>ASSIGN   9358>>ASSIGN
      9379<<DOINDEX  9380>>ASSIGN   9380>>ASSIGN
IFBRKPNT
      2261**DCL      9241--ASSIGN   9253<<ASSIGN   9260<<ASSIGN   9266--ASSIGN   9325--ASSIGN   9330--ASSIGN
      9353--ASSIGN   9355<<ASSIGN   9355>>ASSIGN   9356--ASSIGN   9366<<ASSIGN   9377--ASSIGN
IFBRKPNT.ADR$
      2261**DCL      2261--REDEF
IFBRKPNT.FLAGS.IFCOND
      2262**DCL      9262<<ASSIGN   9371<<ASSIGN
IFBRKPNT.IFCOND.COND
      2283**DCL      9261<<ASSIGN   9370<<ASSIGN
IFBRKPNT.IFCOND.CONS$TANT
      2283**DCL      9264<<ASSIGN   9373<<ASSIGN
IFBRKPNT.IFCOND.CONS$TANT.SIZE
      2283**DCL      2283--REDEF
IFBRKPNT.IFCOND.CONS$TANT.TEXT
      2284**DCL      2284--REDEF    2284--REDEF    2285--REDEF    2286--REDEF
IFBRKPNT.IFCOND.CTYPE
      2283**DCL      9263<<ASSIGN   9372<<ASSIGN
IFBRKPNT.IFCOND.DD$
      2287**DCL      9266<<ASSIGN   9268>>ASSIGN   9356<<ASSIGN   9358>>ASSIGN   9358>>ASSIGN   9377<<ASSIGN
      9380>>ASSIGN   9428>>ASSIGN
IFBRKPNT.IFCOND.DD_SIZE
      2287**DCL      9265<<ASSIGN   9267>>DOINDEX  9330>>ASSIGN   9357>>DOINDEX  9375<<ASSIGN
ONCALLS_DONE
      9273**LABEL    9238--GOTO
P
      2224**DCL      9279>>IF       9439>>IF
PL6.E3A0      #001=GDB$BLD_BRKPNT File=GDB$BRKPNTS.:E05TSI                       TUE 07/29/97 21:22 Page:50
P$
      2223**DCL      2224--REDEF    9251<<ASSIGN   9253>>ASSIGN   9255>>ASSIGN   9256>>ASSIGN   9257>>ASSIGN
      9258>>ASSIGN   9260>>ASSIGN   9261>>ASSIGN   9262>>ASSIGN   9263>>ASSIGN   9264>>ASSIGN   9265>>ASSIGN
      9266>>ASSIGN   9267>>DOINDEX  9268>>ASSIGN   9277<<ASSIGN   9278<>CALL     9352<<ASSIGN   9354>>IF
      9355>>ASSIGN   9357>>DOINDEX  9358>>ASSIGN   9362>>ASSIGN   9438<<ASSIGN   9446>>ASSIGN
SENDNOSPACERSP
      9344**LABEL    9249--GOTO     9408--GOTO
SENDSMXRSP
      9299**LABEL    9293--GOTO
SIZE
      2205**DCL        24--PROC     2048--IMP-SIZ  9272<>CALL     9272>>CALL     9284<>CALL     9284>>CALL
      9299<>CALL     9299>>CALL     9344<>CALL     9344>>CALL     9451<>CALL     9451>>CALL
TEMP$
      2220**DCL      9247<<ASSIGN   9249>>IF       9333<<ASSIGN   9335>>IF
TEMP1$
      2221**DCL      9248<<ASSIGN   9249>>IF       9334<<ASSIGN   9335>>IF       9353<<ASSIGN   9355>>ASSIGN
      9356>>ASSIGN   9356>>ASSIGN   9358>>ASSIGN   9362>>ASSIGN
TEMPSZ
      2219**DCL      9241<<ASSIGN   9244<<ASSIGN   9248>>ASSIGN   9325<<ASSIGN   9330<<ASSIGN   9330>>ASSIGN
      9332<<ASSIGN   9332>>ASSIGN   9334>>ASSIGN
VLP_XBREAK.IC
      2309**DCL      2309--REDEF
VLP_XBREAK.OLDIC
      2309**DCL      2310--REDEF    2310--REDEF

PL6.E3A0      #002=GDB$SET_BRKPNT File=GDB$BRKPNTS.:E05TSI                       TUE 07/29/97 21:23 Page:51
      312        1        /*T***********************************************************/
      313        2        /*T*                                                         */
      314        3        /*T* Copyright (c) Bull HN Information Systems Inc., 1997    */
      315        4        /*T*                                                         */
      316        5        /*T***********************************************************/
      317        6        %EJECT;
PL6.E3A0      #002=GDB$SET_BRKPNT File=GDB$BRKPNTS.:E05TSI                       TUE 07/29/97 21:23 Page:52
      318        7        /*F*   NAME:     GDB$SET_BRKPNT
      319        8               PURPOSE:  This routine goes through the break table and sets
      320        9                         all the breakpoints.  This routine is entered as a
      321       10                         result of a user in the remote debugger typing GO.
      322       11               CALL:     CALL GDB$SET_BRKPNT;
      323       12               DESCRIPTION:  This routine just goes through the GD_BRKTBL and
      324       13                             places a break instruction in memory for each
      325       14                             active breakpoint.  It also saves the old contents
      326       15                             of memory so it can be restored later.
      327       16                             In addition, this routine will setp the
      328       17                             global flags GD_STEPCNT and GD_ABSADDR to
      329       18                             reflect the contents of the GORQS.
      330       19        */
      331       20        GDB$SET_BRKPNT: PROC(SIZE,BUFFER);
      332       21
      333       22        /* INCLUDES */
      334       23
      335       24        %INCLUDE LCP_6;                        /* Various LCP6 EQUs */
      336      215        %INCLUDE GD_STATIC_DATA;
      337      688        %INCLUDE GD$MACS_M;                    /* Debugger macros */
      338      726        %INCLUDE KH$CHN;
      339      848        %VLP_XBREAK(STCLASS="BASED");
      340      867        %INCLUDE GD_BRKPNT_M;
      341      922
      342      923        /* SYMREFS */
      343      924
      344      925        /* BASED */
      345      926
      346      927    1   DCL BRK$ PTR;
      347      928    1   DCL MEMORY SBIN BASED;
      348      929    1   DCL BITMEM BIT(16) BASED ALIGNED;
      349      930        %GD_BRKPNT(FPTN=BRKPNT,STCLASS=BASED);
      350      947
      351      948        /* ARGS */
      352      949
      353      950    1   DCL BUFFER CHAR(SIZE) ALIGNED;
      354      951        %GD$MSG(STCLASS="REDEF BUFFER");
PL6.E3A0      #002=GDB$SET_BRKPNT File=GDB$BRKPNTS.:E05TSI                       TUE 07/29/97 21:23 Page:53
      355     1107    1   DCL SIZE UBIN;
      356     1108
      357     1109        /* TEMPS */
      358     1110
      359     1111    1   DCL ADR$ PTR;
      360     1112    1   DCL I UBIN;
      361     1113
      362     1114        /* ENTRYS */
      363     1115
      364     1116    1   DCL GDU$SETUP_WINDOW_USER ENTRY(2) ALTRET;
      365     1117        %EJECT;
PL6.E3A0      #002=GDB$SET_BRKPNT File=GDB$BRKPNTS.:E05TSI                       TUE 07/29/97 21:23 Page:54
      366     1118
      367     1119        /* Not using real now. */
      368     1120
      369     1121    1           GD_DATA.GD.USE_REAL=%G_NO#;
      370     1122
      371     1123        /* Loop through the BRK$->BRKPNT, looking for active breakpoints. When
      372     1124           one is found, replace the current contents of memory with a break
      373     1125           instruction and save the old contents of memory. */
      374     1126
      375     1127    1           BRK$ = ADDR(GD_DATA.MYSPACE(0));
      376     1128    2           DO WHILE BRK$ ~= ADDR(NIL);
      377     1129    3              IF BRK$->BRKPNT.FLAGS.ACTIVE AND ~BRK$->BRKPNT.FLAGS.ARMED THEN DO;
      378     1130
      379     1131        /* Before placing the breakpoint in memory, we have to virtualize the
      380     1132           address so that its relative to the user indicated in the table */
      381     1133
      382     1134    3                 ADR$=BRK$->BRKPNT.ADR$;
      383     1135    3                 CALL GDU$SETUP_WINDOW_USER (ADR$,BRK$->BRKPNT.USER#)
      384     1136    4                 WHENRETURN DO;
      385     1137    4                    BRK$->BRKPNT.OLDINST=ADR$->MEMORY;
      386     1138    4                    ADR$->BITMEM=%GD#BREAK_INST;
      387     1139    4                    BRK$->BRKPNT.FLAGS.ARMED='1'B;
      388     1140    4                    END;
      389     1141    3                 END;
      390     1142    2              BRK$ = BRK$->BRKPNT.FLINK$;
      391     1143    2              END;
      392     1144
      393     1145        /* If this call was to set a specific breakpoint then just return */
      394     1146
      395     1147    1           IF GD_DATA.GD.STOPT = %G_NO# THEN RETURN;
      396     1148
      397     1149        /* Indicate we arent stopped. */
      398     1150
      399     1151    1           GD_DATA.GD.STOPT=%G_NO#;
      400     1152
      401     1153        /* When this routine returns, it will cause its caller to
      402     1154           return to the trap handler, since the user has typed GO.  We set
PL6.E3A0      #002=GDB$SET_BRKPNT File=GDB$BRKPNTS.:E05TSI                       TUE 07/29/97 21:23 Page:55
      403     1155           up the following cells so the trap handler can use them to setup
      404     1156           the TSA to continue from */
      405     1157
      406     1158    1           GD_DATA.GD.ABSADDR=ADDR(NIL);
      407     1159    1           GD_DATA.GD.STEPCNT=0;
      408     1160    1           GD_DATA.GD.GOTRAP=%G_NO#;
      409     1161    1           IF GD$MSG.SUBFB.ADR THEN
      410     1162    1              GD_DATA.GD.ABSADDR=GD$MSG.GORQS.ADR$;
      411     1163    1           IF GD$MSG.SUBFB.STEP THEN
      412     1164    1              GD_DATA.GD.STEPCNT=GD$MSG.GORQS.SIZE;
      413     1165    1           GD_DATA.GD.SOC = GD$MSG.SUBFB.SOC;
      414     1166
      415     1167        /* If the user has specified GOTRAP, set a bit to indicate it */
      416     1168
      417     1169    1           IF GD$MSG.SUBFB.GOTRAP THEN
      418     1170    1              GD_DATA.GD.GOTRAP=%G_YES#;
      419     1171        /**/
      420     1172    1           GD_DATA.GD.ASDT_OFFSET=GD_DATA.GD.ASDT_USE_OFFSET;
      421     1173    1           GD_DATA.GD.ASDT_PPNO=GD_DATA.GD.ASDT_USE_PPNO;
      422     1174    1           GD_DATA.GD.USERNO=GD_DATA.GD.USE_USERNO;
      423     1175        /**/
      424     1176    1           RETURN;
      425     1177
      426     1178    1   END GDB$SET_BRKPNT;
      427     1179        %EOD;

PL6.E3A0      #002=GDB$SET_BRKPNT File=GDB$BRKPNTS.:E05TSI                       TUE 07/29/97 21:23 Page:56
--  Include file information  --

   GD_BRKPNT_M.:E05TOU  is referenced.
   KH$CHN.:E05TOU  is referenced.
   GD$MACS_M.:E05TOU  is referenced.
   GD$MSG_M.:E05TOU  is referenced.
   GDA_EQUS_E.:E05TOU  is referenced.
   GD_EQUS_E.:E05TOU  is referenced.
   GD_DATA_M.:E05TOU  is referenced.
   GD_STATIC_DATA.:E05TOU  cannot be made into a system file and is referenced.
   LCP_6.:E05TOU  cannot be made into a system file and is referenced.
   G_LCP6_E.:E05TOU  was found in the system file and is referenced.
   GT_LCP6_M.:E05TOU  was found in the system file and is referenced.
   KI_CP6.:E05TOU  was found in the system file and is referenced.
   GF_LCP6_M.:E05TOU  was found in the system file and is referenced.
   GM_LCP6_M.:E05TOU  was found in the system file and is referenced.
   GU_LCP6_M.:E05TOU  was found in the system file and is referenced.
   GJ_LCP6_M.:E05TOU  was found in the system file and is referenced.
   GH_LCP6_M.:E05TOU  was found in the system file and is referenced.
      No diagnostics issued in procedure GDB$SET_BRKPNT.

   Procedure GDB$SET_BRKPNT requires 143 words for executable code.
   Procedure GDB$SET_BRKPNT requires 18 words of local(AUTO) storage.

PL6.E3A0      #002=GDB$SET_BRKPNT File=GDB$BRKPNTS.:E05TSI                       TUE 07/29/97 21:23 Page:57

 Object Unit name= GDB$SET_BRKPNT                             File name= GDB$BRKPNTS.:E05TOU
 UTS= JUL 29 '97 21:23:07.04 TUE                              Compiler= PL-6/E31         Sev=      00
 SharedLib= :SHARED_LCP6_SYSTEM                               Alt SharedLib=


    ****  Control sections  ****

 Sect   Type Bound  Init  Size HexSiz  Section name
    0   Proc  even  none   143     8F  GDB$SET_BRKPNT

    ****  Entry defs  ****

                              Check   Calling
                             calling  sequence
  Sect HexLoc Primary Altret sequence   type   Parms  Name
     0      0   yes            yes      Std        2  GDB$SET_BRKPNT

  ****  Entry refs  ****

         Check        Calling
        calling       sequence
Altret sequence SRef   type   Args  Name
 yes     yes           Std       2 GDU$SETUP_WINDOW_USER
                       nStd      0 X6A_AUTO_2
                       nStd      0 X6A_ARET

  ****  Data refs  ****

  Flags:  r = read only, s = secondary
Flgs Name                             Flgs Name                             Flgs Name
     GD$DELTA_DATA$                   r    G$ROS$
PL6.E3A0      #002=GDB$SET_BRKPNT File=GDB$BRKPNTS.:E05TSI                       TUE 07/29/97 21:23 Page:58


      312        1        /*T***********************************************************/
      313        2        /*T*                                                         */
      314        3        /*T* Copyright (c) Bull HN Information Systems Inc., 1997    */
      315        4        /*T*                                                         */
      316        5        /*T***********************************************************/
      317        6        %EJECT;
PL6.E3A0      #002=GDB$SET_BRKPNT File=GDB$BRKPNTS.:E05TSI                       TUE 07/29/97 21:23 Page:59
      318        7        /*F*   NAME:     GDB$SET_BRKPNT
      319        8               PURPOSE:  This routine goes through the break table and sets
      320        9                         all the breakpoints.  This routine is entered as a
      321       10                         result of a user in the remote debugger typing GO.
      322       11               CALL:     CALL GDB$SET_BRKPNT;
      323       12               DESCRIPTION:  This routine just goes through the GD_BRKTBL and
      324       13                             places a break instruction in memory for each
      325       14                             active breakpoint.  It also saves the old contents
      326       15                             of memory so it can be restored later.
      327       16                             In addition, this routine will setp the
      328       17                             global flags GD_STEPCNT and GD_ABSADDR to
      329       18                             reflect the contents of the GORQS.
      330       19        */
      331       20        GDB$SET_BRKPNT: PROC(SIZE,BUFFER);

     20   0 000000  D380 0000 0000  xent GDB$SET_BRKPNT  LNJ,B5   X6A_AUTO_2
          0 000003       0012 0002                       DC       18,2

      332       21
      333       22        /* INCLUDES */
      334       23
      335       24        %INCLUDE LCP_6;                        /* Various LCP6 EQUs */
      336      215        %INCLUDE GD_STATIC_DATA;
      337      688        %INCLUDE GD$MACS_M;                    /* Debugger macros */
      338      726        %INCLUDE KH$CHN;
      339      848        %VLP_XBREAK(STCLASS="BASED");
      340      867        %INCLUDE GD_BRKPNT_M;
      341      922
      342      923        /* SYMREFS */
      343      924
      344      925        /* BASED */
      345      926
      346      927    1   DCL BRK$ PTR;
      347      928    1   DCL MEMORY SBIN BASED;
      348      929    1   DCL BITMEM BIT(16) BASED ALIGNED;
      349      930        %GD_BRKPNT(FPTN=BRKPNT,STCLASS=BASED);
      350      947
PL6.E3A0      #002=GDB$SET_BRKPNT File=GDB$BRKPNTS.:E05TSI                       TUE 07/29/97 21:23 Page:60
      351      948        /* ARGS */
      352      949
      353      950    1   DCL BUFFER CHAR(SIZE) ALIGNED;
      354      951        %GD$MSG(STCLASS="REDEF BUFFER");
      355     1107    1   DCL SIZE UBIN;
      356     1108
      357     1109        /* TEMPS */
      358     1110
      359     1111    1   DCL ADR$ PTR;
      360     1112    1   DCL I UBIN;
      361     1113
      362     1114        /* ENTRYS */
      363     1115
      364     1116    1   DCL GDU$SETUP_WINDOW_USER ENTRY(2) ALTRET;
      365     1117        %EJECT;
PL6.E3A0      #002=GDB$SET_BRKPNT File=GDB$BRKPNTS.:E05TSI                       TUE 07/29/97 21:23 Page:61
      366     1118
      367     1119        /* Not using real now. */
      368     1120
      369     1121    1           GD_DATA.GD.USE_REAL=%G_NO#;

   1121   0 000005  EC80 0000 0000  xsym                 LDB,B6   GD$DELTA_DATA$
          0 000008  8846 014C                            LBF,'0008'X       332,B6
          0 00000A       0008

      370     1122
      371     1123        /* Loop through the BRK$->BRKPNT, looking for active breakpoints. When
      372     1124           one is found, replace the current contents of memory with a break
      373     1125           instruction and save the old contents of memory. */
      374     1126
      375     1127    1           BRK$ = ADDR(GD_DATA.MYSPACE(0));

   1127   0 00000B  DBC6 01AE                            LAB,B5   430,B6
          0 00000D  DFC7 0008                            STB,B5   BRK$,AUTO

      376     1128    2           DO WHILE BRK$ ~= ADDR(NIL);

   1128   0 00000F  0F81 0037                            B        s:1143,PREL

      377     1129    3              IF BRK$->BRKPNT.FLAGS.ACTIVE AND ~BRK$->BRKPNT.FLAGS.ARMED THEN DO;

   1129   0 000011  ECC7 0008                            LDB,B6   BRK$,AUTO
          0 000013  89C6 000A                            CMZ      10,B6
          0 000015  0881 002C                            BAGE     s:1142,PREL
          0 000017  E846 000A                            LDR,R6   10,B6
          0 000019  6001                                 SOL,R6   1
          0 00001A  E570 8000                            AND,R6   -32768,IMO
          0 00001C  E670 8000                            XOR,R6   -32768,IMO
          0 00001E  6901 0023                            BEZ,R6   s:1142,PREL

      378     1130
      379     1131        /* Before placing the breakpoint in memory, we have to virtualize the
      380     1132           address so that its relative to the user indicated in the table */
PL6.E3A0      #002=GDB$SET_BRKPNT File=GDB$BRKPNTS.:E05TSI                       TUE 07/29/97 21:23 Page:62
      381     1133
      382     1134    3                 ADR$=BRK$->BRKPNT.ADR$;

   1134   0 000020  DCC6 0005                            LDB,B5   5,B6
          0 000022  DFC7 000A                            STB,B5   ADR$,AUTO

      383     1135    3                 CALL GDU$SETUP_WINDOW_USER (ADR$,BRK$->BRKPNT.USER#)

   1135   0 000024  CBC6 0008                            LAB,B4   8,B6
          0 000026  CFC7 0010                            STB,B4   ADR$+6,AUTO
          0 000028  BBC7 000A                            LAB,B3   ADR$,AUTO
          0 00002A  BFC7 000E                            STB,B3   ADR$+4,AUTO
          0 00002C  BBC7 000E                            LAB,B3   ADR$+4,AUTO
          0 00002E  CBF0 0200                            LAB,B4   512,IMO
          0 000030  E380 0000 0000  xent                 LNJ,B6   GDU$SETUP_WINDOW_USER
          0 000033       000F                            DC       s:1142,PREL

      384     1136    4                 WHENRETURN DO;

      385     1137    4                    BRK$->BRKPNT.OLDINST=ADR$->MEMORY;

   1137   0 000034  ECC7 0008                            LDB,B6   BRK$,AUTO
          0 000036  DCC7 000A                            LDB,B5   ADR$,AUTO
          0 000038  E805                                 LDR,R6   ,B5
          0 000039  EF46 0007                            STR,R6   7,B6

      386     1138    4                    ADR$->BITMEM=%GD#BREAK_INST;

   1138   0 00003B  DCC7 000A                            LDB,B5   ADR$,AUTO
          0 00003D  5C02                                 LDV,R5   2
          0 00003E  DF05                                 STR,R5   ,B5

      387     1139    4                    BRK$->BRKPNT.FLAGS.ARMED='1'B;

   1139   0 00003F  8946 000A                            LBT,'4000'X       10,B6
   1139   0 000041       4000

PL6.E3A0      #002=GDB$SET_BRKPNT File=GDB$BRKPNTS.:E05TSI                       TUE 07/29/97 21:23 Page:63
      388     1140    4                    END;

      389     1141    3                 END;

      390     1142    2              BRK$ = BRK$->BRKPNT.FLINK$;

   1142   0 000042  ECC7 0008                            LDB,B6   BRK$,AUTO
          0 000044  DC86                                 LDB,B5   ,B6
          0 000045  DFC7 0008                            STB,B5   BRK$,AUTO

      391     1143    2              END;

   1143   0 000047  8DC7 0008                            CMN      BRK$,AUTO
          0 000049  09C8                                 BNE      s:1129,SPREL

      392     1144
      393     1145        /* If this call was to set a specific breakpoint then just return */
      394     1146
      395     1147    1           IF GD_DATA.GD.STOPT = %G_NO# THEN RETURN;

   1147   0 00004A  EC80 0000 0000  xsym                 LDB,B6   GD$DELTA_DATA$
          0 00004D  82C6 014C                            LB,'0004'X        332,B6
          0 00004F       0004
          0 000050  0501 0004                            BBT      s:1151,PREL

   1147   0 000052  C380 0000 0000  xent                 LNJ,B4   X6A_ARET

      396     1148
      397     1149        /* Indicate we arent stopped. */
      398     1150
      399     1151    1           GD_DATA.GD.STOPT=%G_NO#;

   1151   0 000055  8846 014C                            LBF,'0004'X       332,B6
   1151   0 000057       0004

      400     1152
      401     1153        /* When this routine returns, it will cause its caller to
PL6.E3A0      #002=GDB$SET_BRKPNT File=GDB$BRKPNTS.:E05TSI                       TUE 07/29/97 21:23 Page:64
      402     1154           return to the trap handler, since the user has typed GO.  We set
      403     1155           up the following cells so the trap handler can use them to setup
      404     1156           the TSA to continue from */
      405     1157
      406     1158    1           GD_DATA.GD.ABSADDR=ADDR(NIL);

   1158   0 000058  CB80 0000 0000                       LAB,B4   0
          0 00005B  CFC6 0145                            STB,B4   325,B6

      407     1159    1           GD_DATA.GD.STEPCNT=0;

   1159   0 00005D  8746 016A                            CL       362,B6

      408     1160    1           GD_DATA.GD.GOTRAP=%G_NO#;

   1160   0 00005F  8846 014C                            LBF,'0020'X       332,B6
   1160   0 000061       0020

      409     1161    1           IF GD$MSG.SUBFB.ADR THEN

   1161   0 000062  BCC7 0006                            LDB,B3   @BUFFER,AUTO
          0 000064  8283                                 LB,'0020'X        ,B3
          0 000065       0020
          0 000066  0581 0005                            BBF      s:1163,PREL

      410     1162    1              GD_DATA.GD.ABSADDR=GD$MSG.GORQS.ADR$;

   1162   0 000068  ACC3 0001                            LDB,B2   1,B3
          0 00006A  AFC6 0145                            STB,B2   325,B6

      411     1163    1           IF GD$MSG.SUBFB.STEP THEN

   1163   0 00006C  8283                                 LB,'0010'X        ,B3
   1163   0 00006D       0010
          0 00006E  0581 0005                            BBF      s:1165,PREL

      412     1164    1              GD_DATA.GD.STEPCNT=GD$MSG.GORQS.SIZE;
PL6.E3A0      #002=GDB$SET_BRKPNT File=GDB$BRKPNTS.:E05TSI                       TUE 07/29/97 21:23 Page:65

   1164   0 000070  E843 0005                            LDR,R6   5,B3
          0 000072  EF46 016A                            STR,R6   362,B6

      413     1165    1           GD_DATA.GD.SOC = GD$MSG.SUBFB.SOC;

   1165   0 000074  E803                                 LDR,R6   ,B3
          0 000075  6007                                 SOL,R6   7
          0 000076  EAC6 014C                            SRM,R6,'0080'X    332,B6
          0 000078       0080

      414     1166
      415     1167        /* If the user has specified GOTRAP, set a bit to indicate it */
      416     1168
      417     1169    1           IF GD$MSG.SUBFB.GOTRAP THEN

   1169   0 000079  8283                                 LB,'0008'X        ,B3
   1169   0 00007A       0008
          0 00007B  0581 0004                            BBF      s:1172,PREL

      418     1170    1              GD_DATA.GD.GOTRAP=%G_YES#;

   1170   0 00007D  8946 014C                            LBT,'0020'X       332,B6
   1170   0 00007F       0020

      419     1171        /**/
      420     1172    1           GD_DATA.GD.ASDT_OFFSET=GD_DATA.GD.ASDT_USE_OFFSET;

   1172   0 000080  E846 014A                            LDR,R6   330,B6
          0 000082  EF46 0148                            STR,R6   328,B6

      421     1173    1           GD_DATA.GD.ASDT_PPNO=GD_DATA.GD.ASDT_USE_PPNO;

   1173   0 000084  D846 0149                            LDR,R5   329,B6
          0 000086  DF46 0147                            STR,R5   327,B6

      422     1174    1           GD_DATA.GD.USERNO=GD_DATA.GD.USE_USERNO;
PL6.E3A0      #002=GDB$SET_BRKPNT File=GDB$BRKPNTS.:E05TSI                       TUE 07/29/97 21:23 Page:66

   1174   0 000088  C846 014B                            LDR,R4   331,B6
          0 00008A  CF46 016B                            STR,R4   363,B6

      423     1175        /**/
      424     1176    1           RETURN;

   1176   0 00008C  C380 0000 0000  xent                 LNJ,B4   X6A_ARET
      425     1177
      426     1178    1   END GDB$SET_BRKPNT;
      427     1179        %EOD;

PL6.E3A0      #002=GDB$SET_BRKPNT File=GDB$BRKPNTS.:E05TSI                       TUE 07/29/97 21:23 Page:67
--  Include file information  --

   GD_BRKPNT_M.:E05TOU  is referenced.
   KH$CHN.:E05TOU  is referenced.
   GD$MACS_M.:E05TOU  is referenced.
   GD$MSG_M.:E05TOU  is referenced.
   GDA_EQUS_E.:E05TOU  is referenced.
   GD_EQUS_E.:E05TOU  is referenced.
   GD_DATA_M.:E05TOU  is referenced.
   GD_STATIC_DATA.:E05TOU  cannot be made into a system file and is referenced.
   LCP_6.:E05TOU  cannot be made into a system file and is referenced.
   G_LCP6_E.:E05TOU  was found in the system file and is referenced.
   GT_LCP6_M.:E05TOU  was found in the system file and is referenced.
   KI_CP6.:E05TOU  was found in the system file and is referenced.
   GF_LCP6_M.:E05TOU  was found in the system file and is referenced.
   GM_LCP6_M.:E05TOU  was found in the system file and is referenced.
   GU_LCP6_M.:E05TOU  was found in the system file and is referenced.
   GJ_LCP6_M.:E05TOU  was found in the system file and is referenced.
   GH_LCP6_M.:E05TOU  was found in the system file and is referenced.
      No diagnostics issued in procedure GDB$SET_BRKPNT.
PL6.E3A0      #002=GDB$SET_BRKPNT File=GDB$BRKPNTS.:E05TSI                       TUE 07/29/97 21:23 Page:68

 **** Variables and constants ****

  ****  Auto variables  ****

  ****  Scalars and arrays  ****
HexLoc.c.b A Datatyp(siz) R M Lvl/name                 HexLoc.c.b A Datatyp(siz) R M Lvl/name

     6-0-0/w PTR         r     1 @BUFFER                    4-0-0/w PTR         r     1 @SIZE
     A-0-0/w PTR         r     1 ADR$                       8-0-0/w PTR         r     1 BRK$
    *0-0-0/w ACHR        r     1 BUFFER                    *0-0-0/w STRC(3344)  r     1 GD$MSG
    *0-0-0/w UBIN(16)    r     1 SIZE

  ****  SYMREF variables  ****

  ****  Scalars and arrays  ****
HexLoc.c.b A Datatyp(siz) R M Lvl/name                 HexLoc.c.b A Datatyp(siz) R M Lvl/name

     0-0-0/w PTR         r     1 GD$DELTA_DATA$

  ****  BASED and DCB variables  ****

  ****  Scalars and arrays  ****
HexLoc.c.b A Datatyp(siz) R M Lvl/name                 HexLoc.c.b A Datatyp(siz) R M Lvl/name

     0-0-0/w BIT (16)    r     1 BITMEM                     0-0-0/w STRC(176)   r     1 BRKPNT
     0-0-0/w STRC(16704) r     1 GD_DATA                    0-0-0/w SBIN(16)    r     1 MEMORY


   Procedure GDB$SET_BRKPNT requires 143 words for executable code.
   Procedure GDB$SET_BRKPNT requires 18 words of local(AUTO) storage.
PL6.E3A0      #002=GDB$SET_BRKPNT File=GDB$BRKPNTS.:E05TSI                       TUE 07/29/97 21:23 Page:69
          *** CROSS REFERENCE LISTING ***
**     DENOTES     IDENTIFIER DEFINITION
<<                 IDENTIFIER'S VALUE SET
>>                 IDENTIFIER'S VALUE USED
<>                 IDENTIFIER SET AND/OR USED
--                 IDENTIFIER REFERENCED
PL6.E3A0      #002=GDB$SET_BRKPNT File=GDB$BRKPNTS.:E05TSI                       TUE 07/29/97 21:23 Page:70
          MINI XREF LISTING

ADR$
      1111**DCL      1134<<ASSIGN   1135<>CALL     1137>>ASSIGN   1138>>ASSIGN
BITMEM
       929**DCL      1138<<ASSIGN
BRK$
       927**DCL      1127<<ASSIGN   1128>>DOWHILE  1129>>IF       1129>>IF       1134>>ASSIGN   1135>>CALL
      1137>>ASSIGN   1139>>ASSIGN   1142<<ASSIGN   1142>>ASSIGN
BRKPNT.ADR$
       943**DCL       943--REDEF    1134>>ASSIGN
BRKPNT.FLAGS.ACTIVE
       944**DCL      1129>>IF
BRKPNT.FLAGS.ARMED
       944**DCL      1129>>IF       1139<<ASSIGN
BRKPNT.FLINK$
       943**DCL      1142>>ASSIGN
BRKPNT.OLDINST
       944**DCL      1137<<ASSIGN
BRKPNT.USER#
       944**DCL      1135<>CALL
BUFFER
       950**DCL        20--PROC      968--REDEF
GD$DELTA_DATA$
       641**DCL       655--IMP-PTR  1121>>ASSIGN   1127>>ASSIGN   1147>>IF       1151>>ASSIGN   1158>>ASSIGN
      1159>>ASSIGN   1160>>ASSIGN   1162>>ASSIGN   1164>>ASSIGN   1165>>ASSIGN   1170>>ASSIGN   1172>>ASSIGN
      1172>>ASSIGN   1173>>ASSIGN   1173>>ASSIGN   1174>>ASSIGN   1174>>ASSIGN
GD$MSG.BRKRQS.IF$CONST.SIZE
      1019**DCL      1019--REDEF
GD$MSG.BRKRQS.IF$CONST.TEXT
      1019**DCL      1020--REDEF    1020--REDEF    1021--REDEF    1022--REDEF
GD$MSG.BRKRSP.BRK#
      1033**DCL      1033--REDEF
GD$MSG.BRKRSP.USER#
PL6.E3A0      #002=GDB$SET_BRKPNT File=GDB$BRKPNTS.:E05TSI                       TUE 07/29/97 21:23 Page:71
      1033**DCL      1033--REDEF
GD$MSG.GORQS.ADR$
      1027**DCL      1162>>ASSIGN
GD$MSG.GORQS.SIZE
      1027**DCL      1164>>ASSIGN
GD$MSG.LETMEM_D.VALUE.SIZE
       991**DCL       991--REDEF
GD$MSG.LETMEM_D.VALUE.TEXT
       992**DCL       992--REDEF     992--REDEF     993--REDEF     994--REDEF
GD$MSG.MESSAGE
       973**DCL       973--REDEF     974--REDEF     974--REDEF     975--REDEF     986--REDEF     999--REDEF
      1004--REDEF    1011--REDEF    1027--REDEF    1032--REDEF    1038--REDEF    1039--REDEF    1068--REDEF
      1070--REDEF    1081--REDEF    1088--REDEF    1100--REDEF
GD$MSG.SUBFB.ADR
       972**DCL      1161>>IF
GD$MSG.SUBFB.GOTRAP
       972**DCL      1169>>IF
GD$MSG.SUBFB.SOC
       972**DCL      1165>>ASSIGN
GD$MSG.SUBFB.STEP
       972**DCL      1163>>IF
GD$MSG.SUBFNC
       968**DCL       968--REDEF     972--REDEF
GD$MSG.TSA.I
      1040**DCL      1040--REDEF
GD$MSG.TSA.S
      1042**DCL      1042--REDEF
GD$MSG.USERQS.ASDT$
      1068**DCL      1068--REDEF    1069--REDEF
GDU$SETUP_WINDOW_USER
      1116**DCL-ENT  1135--CALL
GD_DATA.GD.ABSADDR
       660**DCL      1158<<ASSIGN   1162<<ASSIGN
GD_DATA.GD.ASDT_OFFSET
       661**DCL      1172<<ASSIGN
GD_DATA.GD.ASDT_PPNO
PL6.E3A0      #002=GDB$SET_BRKPNT File=GDB$BRKPNTS.:E05TSI                       TUE 07/29/97 21:23 Page:72
       660**DCL      1173<<ASSIGN
GD_DATA.GD.ASDT_USE_OFFSET
       661**DCL      1172>>ASSIGN
GD_DATA.GD.ASDT_USE_PPNO
       661**DCL      1173>>ASSIGN
GD_DATA.GD.DYNSP$
       668**DCL       668--REDEF
GD_DATA.GD.GOTRAP
       664**DCL      1160<<ASSIGN   1170<<ASSIGN
GD_DATA.GD.SOC
       664**DCL      1165<<ASSIGN
GD_DATA.GD.STEPCNT
       674**DCL      1159<<ASSIGN   1164<<ASSIGN
GD_DATA.GD.STEP_BRKPNT.ADR$
       669**DCL       670--REDEF
GD_DATA.GD.STEP_BRKPNT.START$
       670**DCL       670--REDEF
GD_DATA.GD.STOPT
       665**DCL      1147>>IF       1151<<ASSIGN
GD_DATA.GD.USERNO
       675**DCL      1174<<ASSIGN
GD_DATA.GD.USE_REAL
       665**DCL      1121<<ASSIGN
GD_DATA.GD.USE_USERNO
       661**DCL      1174>>ASSIGN
GD_DATA.MYSPACE
       686**DCL      1127--ASSIGN
MEMORY
       928**DCL      1137>>ASSIGN
SIZE
      1107**DCL        20--PROC      950--IMP-SIZ
VLP_XBREAK.IC
       861**DCL       861--REDEF
VLP_XBREAK.OLDIC
       861**DCL       862--REDEF     862--REDEF

PL6.E3A0      #003=GDB$RESET_BRKPNT File=GDB$BRKPNTS.:E05TSI                     TUE 07/29/97 21:23 Page:73
      428        1        /*T***********************************************************/
      429        2        /*T*                                                         */
      430        3        /*T* Copyright (c) Bull HN Information Systems Inc., 1997    */
      431        4        /*T*                                                         */
      432        5        /*T***********************************************************/
      433        6        %EJECT;
PL6.E3A0      #003=GDB$RESET_BRKPNT File=GDB$BRKPNTS.:E05TSI                     TUE 07/29/97 21:23 Page:74
      434        7        /*F*   NAME:     GDB$RESET_BRKPNT
      435        8               PURPOSE:  This routine goes through the break table and restores
      436        9                         all active breakpoints to their original contents.
      437       10               CALL:     CALL GDB$RESET_BRKPNT
      438       11               DESCRIPTION:  This routine loops through GD_BRKTBL looking
      439       12                             for active, enabled breakpoints.  When one is
      440       13                             found, memory is restored and the GD_BRKTBL is
      441       14                             updated.  If we are currently running, we
      442       15                             acknolege to the host upon completion.
      443       16        */
      444       17        GDB$RESET_BRKPNT: PROC;
      445       18
      446       19        /* INCLUDES */
      447       20
      448       21        %INCLUDE LCP_6;                        /* Various LCP6 EQUs */
      449      212        %INCLUDE GD_STATIC_DATA;
      450      685        %INCLUDE KH$CHN;
      451      807        %INCLUDE GD_BRKPNT_M;
      452      862
      453      863        /* SYMREFS */
      454      864
      455      865        /* BASED */
      456      866
      457      867    1   DCL MEMORY UBIN BASED;                 /* Memory template */
      458      868    1   DCL BITMEM BIT(16) BASED ALIGNED;
      459      869        %GD_BRKPNT(FPTN=BRKPNT,STCLASS=BASED);
      460      886
      461      887        /* LOCAL */
      462      888
      463      889    1   DCL BRK$ PTR;
      464      890    1   DCL ADR$ PTR;
      465      891    1   DCL BUFFER CHAR(2) ALIGNED;            /* To send message to host */
      466      892    1   DCL I UBIN;
      467      893
      468      894        /* ENTRYS */
      469      895
      470      896    1   DCL GDI$SEND_ERROR_RESPONSE ENTRY(3);
PL6.E3A0      #003=GDB$RESET_BRKPNT File=GDB$BRKPNTS.:E05TSI                     TUE 07/29/97 21:23 Page:75
      471      897    1   DCL GDU$SETUP_WINDOW_USER ENTRY(2) ALTRET;
      472      898        %EJECT;
PL6.E3A0      #003=GDB$RESET_BRKPNT File=GDB$BRKPNTS.:E05TSI                     TUE 07/29/97 21:23 Page:76
      473      899        /* Loop through the break table, looking for active, enabled snaps.
      474      900           When one is found, restore the contents of memory and update the
      475      901           breakpoint status in the break table. */
      476      902
      477      903    1           BRK$ = ADDR(GD_DATA.MYSPACE(0));
      478      904    2           DO WHILE BRK$ ~= ADDR(NIL);
      479      905    2              IF BRK$->BRKPNT.FLAGS.ACTIVE
      480      906    3                AND BRK$->BRKPNT.FLAGS.ARMED THEN DO;
      481      907
      482      908        /* Before removing the breakpoint from memory, we have to virtualize the
      483      909           address so that its relative to the user indicated in the table. */
      484      910
      485      911    3                 ADR$=BRK$->BRKPNT.ADR$;
      486      912    3                 CALL GDU$SETUP_WINDOW_USER (ADR$,BRK$->BRKPNT.USER#)
      487      913    4                 WHENRETURN DO;
      488      914    4                    ADR$->MEMORY=BRK$->BRKPNT.OLDINST;
      489      915    4                    BRK$->BRKPNT.FLAGS.ARMED='0'B;
      490      916    4                    END;
      491      917    3                 END;
      492      918    2              BRK$=BRK$->BRKPNT.FLINK$;
      493      919    2              END;
      494      920
      495      921        /* Reset the Step-One-Call breakpoint */
      496      922
      497      923    1           IF GD_DATA.GD.SOC_BRKPNT.FLAGS.ACTIVE AND
      498      924    2             GD_DATA.GD.SOC_BRKPNT.FLAGS.ARMED THEN DO;
      499      925    2              ADR$ = GD_DATA.GD.SOC_BRKPNT.ADR$;
      500      926    2              CALL GDU$SETUP_WINDOW_USER(ADR$,GD_DATA.GD.SOC_BRKPNT.USER#)
      501      927    3              WHENRETURN DO;
      502      928    3                 ADR$->MEMORY = GD_DATA.GD.SOC_BRKPNT.OLDINST;
      503      929    3                 GD_DATA.GD.SOC_BRKPNT = '0'B;
      504      930    3                 END;
      505      931    2              END;
      506      932
      507      933        /* Reset the Step breakpoint */
      508      934
      509      935    1           IF GD_DATA.GD.STEP_BRKPNT.FLAGS.ACTIVE AND
PL6.E3A0      #003=GDB$RESET_BRKPNT File=GDB$BRKPNTS.:E05TSI                     TUE 07/29/97 21:23 Page:77
      510      936    2             GD_DATA.GD.STEP_BRKPNT.FLAGS.ARMED THEN DO;
      511      937    2              ADR$ = GD_DATA.GD.STEP_BRKPNT.ADR$;
      512      938    2              CALL GDU$SETUP_WINDOW_USER(ADR$,GD_DATA.GD.STEP_BRKPNT.USER#)
      513      939    3              WHENRETURN DO;
      514      940    3                 ADR$->MEMORY = GD_DATA.GD.STEP_BRKPNT.OLDINST;
      515      941    3                 GD_DATA.GD.STEP_BRKPNT = '0'B;
      516      942    3                 END;
      517      943    2              END;
      518      944
      519      945        /* If the FEP is not stopped, tell the host we did a good job. */
      520      946
      521      947    1           IF NOT(GD_DATA.GD.STOPT) THEN
      522      948    1              CALL GDI$SEND_ERROR_RESPONSE (I,BUFFER,%GD#RSPACK);
      523      949        /**/
      524      950    1           GD_DATA.GD.USERNO=GD_DATA.GD.USE_USERNO;
      525      951    1           GD_DATA.GD.ASDT_PPNO=GD_DATA.GD.ASDT_USE_PPNO;
      526      952    1           GD_DATA.GD.ASDT_OFFSET=GD_DATA.GD.ASDT_USE_OFFSET;
      527      953        /**/
      528      954    1           RETURN;
      529      955        /**/
      530      956    1   END GDB$RESET_BRKPNT;
      531      957        %EOD;

PL6.E3A0      #003=GDB$RESET_BRKPNT File=GDB$BRKPNTS.:E05TSI                     TUE 07/29/97 21:23 Page:78
--  Include file information  --

   GD_BRKPNT_M.:E05TOU  is referenced.
   KH$CHN.:E05TOU  is referenced.
   GD$MSG_M.:E05TOU  is referenced.
   GDA_EQUS_E.:E05TOU  is referenced.
   GD_EQUS_E.:E05TOU  is referenced.
   GD_DATA_M.:E05TOU  is referenced.
   GD_STATIC_DATA.:E05TOU  cannot be made into a system file and is referenced.
   LCP_6.:E05TOU  cannot be made into a system file and is referenced.
   G_LCP6_E.:E05TOU  was found in the system file and is referenced.
   GT_LCP6_M.:E05TOU  was found in the system file and is referenced.
   KI_CP6.:E05TOU  was found in the system file and is referenced.
   GF_LCP6_M.:E05TOU  was found in the system file and is referenced.
   GM_LCP6_M.:E05TOU  was found in the system file and is referenced.
   GU_LCP6_M.:E05TOU  was found in the system file and is referenced.
   GJ_LCP6_M.:E05TOU  was found in the system file and is referenced.
   GH_LCP6_M.:E05TOU  was found in the system file and is referenced.
      No diagnostics issued in procedure GDB$RESET_BRKPNT.

   Procedure GDB$RESET_BRKPNT requires 209 words for executable code.
   Procedure GDB$RESET_BRKPNT requires 16 words of local(AUTO) storage.

PL6.E3A0      #003=GDB$RESET_BRKPNT File=GDB$BRKPNTS.:E05TSI                     TUE 07/29/97 21:23 Page:79

 Object Unit name= GDB$RESET_BRKPNT                           File name= GDB$BRKPNTS.:E05TOU
 UTS= JUL 29 '97 21:23:20.20 TUE                              Compiler= PL-6/E31         Sev=      00
 SharedLib= :SHARED_LCP6_SYSTEM                               Alt SharedLib=


    ****  Control sections  ****

 Sect   Type Bound  Init  Size HexSiz  Section name
    0   Proc  even  none   209     D1  GDB$RESET_BRKPNT

    ****  Entry defs  ****

                              Check   Calling
                             calling  sequence
  Sect HexLoc Primary Altret sequence   type   Parms  Name
     0      0   yes            yes      Std        0  GDB$RESET_BRKPNT

  ****  Entry refs  ****

         Check        Calling
        calling       sequence
Altret sequence SRef   type   Args  Name
 yes     yes           Std       2 GDU$SETUP_WINDOW_USER
         yes           Std       3 GDI$SEND_ERROR_RESPONSE
                       nStd      0 X6A_AUTO_0
                       nStd      0 X6A_ARET

  ****  Data refs  ****

  Flags:  r = read only, s = secondary
Flgs Name                             Flgs Name                             Flgs Name
     GD$DELTA_DATA$                   r    G$ROS$
PL6.E3A0      #003=GDB$RESET_BRKPNT File=GDB$BRKPNTS.:E05TSI                     TUE 07/29/97 21:23 Page:80


      428        1        /*T***********************************************************/
      429        2        /*T*                                                         */
      430        3        /*T* Copyright (c) Bull HN Information Systems Inc., 1997    */
      431        4        /*T*                                                         */
      432        5        /*T***********************************************************/
      433        6        %EJECT;
PL6.E3A0      #003=GDB$RESET_BRKPNT File=GDB$BRKPNTS.:E05TSI                     TUE 07/29/97 21:23 Page:81
      434        7        /*F*   NAME:     GDB$RESET_BRKPNT
      435        8               PURPOSE:  This routine goes through the break table and restores
      436        9                         all active breakpoints to their original contents.
      437       10               CALL:     CALL GDB$RESET_BRKPNT
      438       11               DESCRIPTION:  This routine loops through GD_BRKTBL looking
      439       12                             for active, enabled breakpoints.  When one is
      440       13                             found, memory is restored and the GD_BRKTBL is
      441       14                             updated.  If we are currently running, we
      442       15                             acknolege to the host upon completion.
      443       16        */
      444       17        GDB$RESET_BRKPNT: PROC;

     17   0 000000  D380 0000 0000  xent GDB$RESET_BRKPNTLNJ,B5   X6A_AUTO_0
          0 000003       0010 0000                       DC       16,0

      445       18
      446       19        /* INCLUDES */
      447       20
      448       21        %INCLUDE LCP_6;                        /* Various LCP6 EQUs */
      449      212        %INCLUDE GD_STATIC_DATA;
      450      685        %INCLUDE KH$CHN;
      451      807        %INCLUDE GD_BRKPNT_M;
      452      862
      453      863        /* SYMREFS */
      454      864
      455      865        /* BASED */
      456      866
      457      867    1   DCL MEMORY UBIN BASED;                 /* Memory template */
      458      868    1   DCL BITMEM BIT(16) BASED ALIGNED;
      459      869        %GD_BRKPNT(FPTN=BRKPNT,STCLASS=BASED);
      460      886
      461      887        /* LOCAL */
      462      888
      463      889    1   DCL BRK$ PTR;
      464      890    1   DCL ADR$ PTR;
      465      891    1   DCL BUFFER CHAR(2) ALIGNED;            /* To send message to host */
      466      892    1   DCL I UBIN;
PL6.E3A0      #003=GDB$RESET_BRKPNT File=GDB$BRKPNTS.:E05TSI                     TUE 07/29/97 21:23 Page:82
      467      893
      468      894        /* ENTRYS */
      469      895
      470      896    1   DCL GDI$SEND_ERROR_RESPONSE ENTRY(3);
      471      897    1   DCL GDU$SETUP_WINDOW_USER ENTRY(2) ALTRET;
      472      898        %EJECT;
PL6.E3A0      #003=GDB$RESET_BRKPNT File=GDB$BRKPNTS.:E05TSI                     TUE 07/29/97 21:23 Page:83
      473      899        /* Loop through the break table, looking for active, enabled snaps.
      474      900           When one is found, restore the contents of memory and update the
      475      901           breakpoint status in the break table. */
      476      902
      477      903    1           BRK$ = ADDR(GD_DATA.MYSPACE(0));

    903   0 000005  EC80 0000 0000  xsym                 LDB,B6   GD$DELTA_DATA$
          0 000008  DBC6 01AE                            LAB,B5   430,B6
          0 00000A  DFC7 0004                            STB,B5   BRK$,AUTO

      478      904    2           DO WHILE BRK$ ~= ADDR(NIL);

    904   0 00000C  0F81 002F                            B        s:919,PREL

      479      905    2              IF BRK$->BRKPNT.FLAGS.ACTIVE

    905   0 00000E  ECC7 0004                            LDB,B6   BRK$,AUTO
          0 000010  89C6 000A                            CMZ      10,B6
          0 000012  0881 0024                            BAGE     s:918,PREL
          0 000014  82C6 000A                            LB,'4000'X        10,B6
          0 000016       4000
          0 000017  0581 001F                            BBF      s:918,PREL

      480      906    3                AND BRK$->BRKPNT.FLAGS.ARMED THEN DO;

      481      907
      482      908        /* Before removing the breakpoint from memory, we have to virtualize the
      483      909           address so that its relative to the user indicated in the table. */
      484      910
      485      911    3                 ADR$=BRK$->BRKPNT.ADR$;

    911   0 000019  DCC6 0005                            LDB,B5   5,B6
          0 00001B  DFC7 0006                            STB,B5   ADR$,AUTO

      486      912    3                 CALL GDU$SETUP_WINDOW_USER (ADR$,BRK$->BRKPNT.USER#)

    912   0 00001D  CBC6 0008                            LAB,B4   8,B6
PL6.E3A0      #003=GDB$RESET_BRKPNT File=GDB$BRKPNTS.:E05TSI                     TUE 07/29/97 21:23 Page:84
          0 00001F  CFC7 000C                            STB,B4   I+3,AUTO
          0 000021  BBC7 0006                            LAB,B3   ADR$,AUTO
          0 000023  BFC7 000A                            STB,B3   I+1,AUTO
          0 000025  BBC7 000A                            LAB,B3   I+1,AUTO
          0 000027  CBF0 0200                            LAB,B4   512,IMO
          0 000029  E380 0000 0000  xent                 LNJ,B6   GDU$SETUP_WINDOW_USER
          0 00002C       000B                            DC       s:918,PREL

      487      913    4                 WHENRETURN DO;

      488      914    4                    ADR$->MEMORY=BRK$->BRKPNT.OLDINST;

    914   0 00002D  ECC7 0006                            LDB,B6   ADR$,AUTO
          0 00002F  DCC7 0004                            LDB,B5   BRK$,AUTO
          0 000031  E845 0007                            LDR,R6   7,B5
          0 000033  EF06                                 STR,R6   ,B6

      489      915    4                    BRK$->BRKPNT.FLAGS.ARMED='0'B;

    915   0 000034  8845 000A                            LBF,'4000'X       10,B5
    915   0 000036       4000

      490      916    4                    END;

      491      917    3                 END;

      492      918    2              BRK$=BRK$->BRKPNT.FLINK$;

    918   0 000037  ECC7 0004                            LDB,B6   BRK$,AUTO
          0 000039  DC86                                 LDB,B5   ,B6
          0 00003A  DFC7 0004                            STB,B5   BRK$,AUTO

      493      919    2              END;

    919   0 00003C  8DC7 0004                            CMN      BRK$,AUTO
          0 00003E  09D0                                 BNE      s:905,SPREL

PL6.E3A0      #003=GDB$RESET_BRKPNT File=GDB$BRKPNTS.:E05TSI                     TUE 07/29/97 21:23 Page:85
      494      920
      495      921        /* Reset the Step-One-Call breakpoint */
      496      922
      497      923    1           IF GD_DATA.GD.SOC_BRKPNT.FLAGS.ACTIVE AND

    923   0 00003F  EC80 0000 0000  xsym                 LDB,B6   GD$DELTA_DATA$
          0 000042  89C6 0167                            CMZ      359,B6
          0 000044  0881 002B                            BAGE     s:935,PREL
          0 000046  82C6 0167                            LB,'4000'X        359,B6
          0 000048       4000
          0 000049  0581 0026                            BBF      s:935,PREL

      498      924    2             GD_DATA.GD.SOC_BRKPNT.FLAGS.ARMED THEN DO;

      499      925    2              ADR$ = GD_DATA.GD.SOC_BRKPNT.ADR$;

    925   0 00004B  CCC6 0163                            LDB,B4   355,B6
          0 00004D  CFC7 0006                            STB,B4   ADR$,AUTO

      500      926    2              CALL GDU$SETUP_WINDOW_USER(ADR$,GD_DATA.GD.SOC_BRKPNT.USER#)

    926   0 00004F  BBC6 0166                            LAB,B3   358,B6
          0 000051  BFC7 000C                            STB,B3   I+3,AUTO
          0 000053  ABC7 0006                            LAB,B2   ADR$,AUTO
          0 000055  AFC7 000A                            STB,B2   I+1,AUTO
          0 000057  BBC7 000A                            LAB,B3   I+1,AUTO
          0 000059  CBF0 0200                            LAB,B4   512,IMO
          0 00005B  E380 0000 0000  xent                 LNJ,B6   GDU$SETUP_WINDOW_USER
          0 00005E       0012                            DC       s:935,PREL

      501      927    3              WHENRETURN DO;

      502      928    3                 ADR$->MEMORY = GD_DATA.GD.SOC_BRKPNT.OLDINST;

    928   0 00005F  ECC7 0006                            LDB,B6   ADR$,AUTO
          0 000061  DC80 0000 0000  xsym                 LDB,B5   GD$DELTA_DATA$
          0 000064  E845 0165                            LDR,R6   357,B5
PL6.E3A0      #003=GDB$RESET_BRKPNT File=GDB$BRKPNTS.:E05TSI                     TUE 07/29/97 21:23 Page:86
          0 000066  EF06                                 STR,R6   ,B6

      503      929    3                 GD_DATA.GD.SOC_BRKPNT = '0'B;

    929   0 000067  EC80 0000 0000  xsym                 LDB,B6   GD$DELTA_DATA$
          0 00006A  5C0A                                 LDV,R5   10
          0 00006B  0021                                 ALR      ;
          0 00006C       4178 0000                                ALPHANUM('0000'X,IMO,,1),;
          0 00006E       4006 0163                                ALPHANUM(355,B6,,R5,FILL)

      504      930    3                 END;

      505      931    2              END;

      506      932
      507      933        /* Reset the Step breakpoint */
      508      934
      509      935    1           IF GD_DATA.GD.STEP_BRKPNT.FLAGS.ACTIVE AND

    935   0 000070  EC80 0000 0000  xsym                 LDB,B6   GD$DELTA_DATA$
          0 000073  89C6 0161                            CMZ      353,B6
          0 000075  437F                                 CSYNC    s:935+4,SPREL
          0 000076  0881 002B                            BAGE     s:947,PREL
          0 000078  82C6 0161                            LB,'4000'X        353,B6
          0 00007A       4000
          0 00007B  0581 0026                            BBF      s:947,PREL

      510      936    2             GD_DATA.GD.STEP_BRKPNT.FLAGS.ARMED THEN DO;

      511      937    2              ADR$ = GD_DATA.GD.STEP_BRKPNT.ADR$;

    937   0 00007D  DCC6 015B                            LDB,B5   347,B6
          0 00007F  DFC7 0006                            STB,B5   ADR$,AUTO

      512      938    2              CALL GDU$SETUP_WINDOW_USER(ADR$,GD_DATA.GD.STEP_BRKPNT.USER#)

    938   0 000081  CBC6 0160                            LAB,B4   352,B6
PL6.E3A0      #003=GDB$RESET_BRKPNT File=GDB$BRKPNTS.:E05TSI                     TUE 07/29/97 21:23 Page:87
          0 000083  CFC7 000C                            STB,B4   I+3,AUTO
          0 000085  BBC7 0006                            LAB,B3   ADR$,AUTO
          0 000087  BFC7 000A                            STB,B3   I+1,AUTO
          0 000089  BBC7 000A                            LAB,B3   I+1,AUTO
          0 00008B  CBF0 0200                            LAB,B4   512,IMO
          0 00008D  E380 0000 0000  xent                 LNJ,B6   GDU$SETUP_WINDOW_USER
          0 000090       0012                            DC       s:947,PREL

      513      939    3              WHENRETURN DO;

      514      940    3                 ADR$->MEMORY = GD_DATA.GD.STEP_BRKPNT.OLDINST;

    940   0 000091  ECC7 0006                            LDB,B6   ADR$,AUTO
          0 000093  DC80 0000 0000  xsym                 LDB,B5   GD$DELTA_DATA$
          0 000096  E845 015F                            LDR,R6   351,B5
          0 000098  EF06                                 STR,R6   ,B6

      515      941    3                 GD_DATA.GD.STEP_BRKPNT = '0'B;

    941   0 000099  EC80 0000 0000  xsym                 LDB,B6   GD$DELTA_DATA$
          0 00009C  5C10                                 LDV,R5   16
          0 00009D  0021                                 ALR      ;
          0 00009E       4178 0000                                ALPHANUM('0000'X,IMO,,1),;
          0 0000A0       4006 015B                                ALPHANUM(347,B6,,R5,FILL)

      516      942    3                 END;

      517      943    2              END;

      518      944
      519      945        /* If the FEP is not stopped, tell the host we did a good job. */
      520      946
      521      947    1           IF NOT(GD_DATA.GD.STOPT) THEN

    947   0 0000A2  EC80 0000 0000  xsym                 LDB,B6   GD$DELTA_DATA$
          0 0000A5  82C6 014C                            LB,'0004'X        332,B6
          0 0000A7       0004
PL6.E3A0      #003=GDB$RESET_BRKPNT File=GDB$BRKPNTS.:E05TSI                     TUE 07/29/97 21:23 Page:88
          0 0000A8  437F                                 CSYNC    s:947+5,SPREL
          0 0000A9  0501 0015                            BBT      s:950,PREL

      522      948    1              CALL GDI$SEND_ERROR_RESPONSE (I,BUFFER,%GD#RSPACK);

    948   0 0000AB  DBF0 0023                            LAB,B5   35,IMO
          0 0000AD  DFC7 000E                            STB,B5   I+5,AUTO
          0 0000AF  CBC7 0008                            LAB,B4   BUFFER,AUTO
          0 0000B1  CFC7 000C                            STB,B4   I+3,AUTO
          0 0000B3  BBC7 0009                            LAB,B3   I,AUTO
          0 0000B5  BFC7 000A                            STB,B3   I+1,AUTO
          0 0000B7  BBC7 000A                            LAB,B3   I+1,AUTO
          0 0000B9  CBF0 0300                            LAB,B4   768,IMO
          0 0000BB  E380 0000 0000  xent                 LNJ,B6   GDI$SEND_ERROR_RESPONSE
          0 0000BE       0001                            DC       s:950,PREL

      523      949        /**/
      524      950    1           GD_DATA.GD.USERNO=GD_DATA.GD.USE_USERNO;

    950   0 0000BF  EC80 0000 0000  xsym                 LDB,B6   GD$DELTA_DATA$
          0 0000C2  E846 014B                            LDR,R6   331,B6
          0 0000C4  EF46 016B                            STR,R6   363,B6

      525      951    1           GD_DATA.GD.ASDT_PPNO=GD_DATA.GD.ASDT_USE_PPNO;

    951   0 0000C6  D846 0149                            LDR,R5   329,B6
          0 0000C8  DF46 0147                            STR,R5   327,B6

      526      952    1           GD_DATA.GD.ASDT_OFFSET=GD_DATA.GD.ASDT_USE_OFFSET;

    952   0 0000CA  C846 014A                            LDR,R4   330,B6
          0 0000CC  CF46 0148                            STR,R4   328,B6

      527      953        /**/
      528      954    1           RETURN;

    954   0 0000CE  C380 0000 0000  xent                 LNJ,B4   X6A_ARET
PL6.E3A0      #003=GDB$RESET_BRKPNT File=GDB$BRKPNTS.:E05TSI                     TUE 07/29/97 21:23 Page:89
      529      955        /**/
      530      956    1   END GDB$RESET_BRKPNT;
      531      957        %EOD;

PL6.E3A0      #003=GDB$RESET_BRKPNT File=GDB$BRKPNTS.:E05TSI                     TUE 07/29/97 21:23 Page:90
--  Include file information  --

   GD_BRKPNT_M.:E05TOU  is referenced.
   KH$CHN.:E05TOU  is referenced.
   GD$MSG_M.:E05TOU  is referenced.
   GDA_EQUS_E.:E05TOU  is referenced.
   GD_EQUS_E.:E05TOU  is referenced.
   GD_DATA_M.:E05TOU  is referenced.
   GD_STATIC_DATA.:E05TOU  cannot be made into a system file and is referenced.
   LCP_6.:E05TOU  cannot be made into a system file and is referenced.
   G_LCP6_E.:E05TOU  was found in the system file and is referenced.
   GT_LCP6_M.:E05TOU  was found in the system file and is referenced.
   KI_CP6.:E05TOU  was found in the system file and is referenced.
   GF_LCP6_M.:E05TOU  was found in the system file and is referenced.
   GM_LCP6_M.:E05TOU  was found in the system file and is referenced.
   GU_LCP6_M.:E05TOU  was found in the system file and is referenced.
   GJ_LCP6_M.:E05TOU  was found in the system file and is referenced.
   GH_LCP6_M.:E05TOU  was found in the system file and is referenced.
      No diagnostics issued in procedure GDB$RESET_BRKPNT.
PL6.E3A0      #003=GDB$RESET_BRKPNT File=GDB$BRKPNTS.:E05TSI                     TUE 07/29/97 21:23 Page:91

 **** Variables and constants ****

  ****  Auto variables  ****

  ****  Scalars and arrays  ****
HexLoc.c.b A Datatyp(siz) R M Lvl/name                 HexLoc.c.b A Datatyp(siz) R M Lvl/name

     6-0-0/w PTR         r     1 ADR$                       4-0-0/w PTR         r     1 BRK$
     8-0-0/w CHAR(2)     r     1 BUFFER                     9-0-0/w UBIN(16)    r     1 I

  ****  SYMREF variables  ****

  ****  Scalars and arrays  ****
HexLoc.c.b A Datatyp(siz) R M Lvl/name                 HexLoc.c.b A Datatyp(siz) R M Lvl/name

     0-0-0/w PTR         r     1 GD$DELTA_DATA$

  ****  BASED and DCB variables  ****

  ****  Scalars and arrays  ****
HexLoc.c.b A Datatyp(siz) R M Lvl/name                 HexLoc.c.b A Datatyp(siz) R M Lvl/name

     0-0-0/w STRC(176)   r     1 BRKPNT                     0-0-0/w STRC(16704) r     1 GD_DATA
     0-0-0/w UBIN(16)    r     1 MEMORY


   Procedure GDB$RESET_BRKPNT requires 209 words for executable code.
   Procedure GDB$RESET_BRKPNT requires 16 words of local(AUTO) storage.
PL6.E3A0      #003=GDB$RESET_BRKPNT File=GDB$BRKPNTS.:E05TSI                     TUE 07/29/97 21:23 Page:92
          *** CROSS REFERENCE LISTING ***
**     DENOTES     IDENTIFIER DEFINITION
<<                 IDENTIFIER'S VALUE SET
>>                 IDENTIFIER'S VALUE USED
<>                 IDENTIFIER SET AND/OR USED
--                 IDENTIFIER REFERENCED
PL6.E3A0      #003=GDB$RESET_BRKPNT File=GDB$BRKPNTS.:E05TSI                     TUE 07/29/97 21:23 Page:93
          MINI XREF LISTING

ADR$
       890**DCL       911<<ASSIGN    912<>CALL      914>>ASSIGN    925<<ASSIGN    926<>CALL      928>>ASSIGN
       937<<ASSIGN    938<>CALL      940>>ASSIGN
BRK$
       889**DCL       903<<ASSIGN    904>>DOWHILE   905>>IF        905>>IF        911>>ASSIGN    912>>CALL
       914>>ASSIGN    915>>ASSIGN    918<<ASSIGN    918>>ASSIGN
BRKPNT.ADR$
       882**DCL       882--REDEF     911>>ASSIGN
BRKPNT.FLAGS.ACTIVE
       883**DCL       905>>IF
BRKPNT.FLAGS.ARMED
       883**DCL       905>>IF        915<<ASSIGN
BRKPNT.FLINK$
       882**DCL       918>>ASSIGN
BRKPNT.OLDINST
       883**DCL       914>>ASSIGN
BRKPNT.USER#
       883**DCL       912<>CALL
BUFFER
       891**DCL       948<>CALL
GD$DELTA_DATA$
       638**DCL       652--IMP-PTR   903>>ASSIGN    923>>IF        923>>IF        925>>ASSIGN    926>>CALL
       928>>ASSIGN    929>>ASSIGN    935>>IF        935>>IF        937>>ASSIGN    938>>CALL      940>>ASSIGN
       941>>ASSIGN    947>>IF        950>>ASSIGN    950>>ASSIGN    951>>ASSIGN    951>>ASSIGN    952>>ASSIGN
       952>>ASSIGN
GDI$SEND_ERROR_RESPONSE
       896**DCL-ENT   948--CALL
GDU$SETUP_WINDOW_USER
       897**DCL-ENT   912--CALL      926--CALL      938--CALL
GD_DATA.GD.ASDT_OFFSET
       658**DCL       952<<ASSIGN
GD_DATA.GD.ASDT_PPNO
PL6.E3A0      #003=GDB$RESET_BRKPNT File=GDB$BRKPNTS.:E05TSI                     TUE 07/29/97 21:23 Page:94
       657**DCL       951<<ASSIGN
GD_DATA.GD.ASDT_USE_OFFSET
       658**DCL       952>>ASSIGN
GD_DATA.GD.ASDT_USE_PPNO
       658**DCL       951>>ASSIGN
GD_DATA.GD.DYNSP$
       665**DCL       665--REDEF
GD_DATA.GD.SOC_BRKPNT
       669**DCL       929<<ASSIGN
GD_DATA.GD.SOC_BRKPNT.ADR$
       670**DCL       925>>ASSIGN
GD_DATA.GD.SOC_BRKPNT.FLAGS.ACTIVE
       670**DCL       923>>IF
GD_DATA.GD.SOC_BRKPNT.FLAGS.ARMED
       671**DCL       923>>IF
GD_DATA.GD.SOC_BRKPNT.OLDINST
       670**DCL       928>>ASSIGN
GD_DATA.GD.SOC_BRKPNT.USER#
       670**DCL       926<>CALL
GD_DATA.GD.STEP_BRKPNT
       666**DCL       941<<ASSIGN
GD_DATA.GD.STEP_BRKPNT.ADR$
       666**DCL       667--REDEF     937>>ASSIGN
GD_DATA.GD.STEP_BRKPNT.FLAGS.ACTIVE
       668**DCL       935>>IF
GD_DATA.GD.STEP_BRKPNT.FLAGS.ARMED
       668**DCL       935>>IF
GD_DATA.GD.STEP_BRKPNT.OLDINST
       667**DCL       940>>ASSIGN
GD_DATA.GD.STEP_BRKPNT.START$
       667**DCL       667--REDEF
GD_DATA.GD.STEP_BRKPNT.USER#
       668**DCL       938<>CALL
GD_DATA.GD.STOPT
       662**DCL       947>>IF
GD_DATA.GD.USERNO
PL6.E3A0      #003=GDB$RESET_BRKPNT File=GDB$BRKPNTS.:E05TSI                     TUE 07/29/97 21:23 Page:95
       672**DCL       950<<ASSIGN
GD_DATA.GD.USE_USERNO
       658**DCL       950>>ASSIGN
GD_DATA.MYSPACE
       683**DCL       903--ASSIGN
I
       892**DCL       948<>CALL
MEMORY
       867**DCL       914<<ASSIGN    928<<ASSIGN    940<<ASSIGN

PL6.E3A0      #004=GDB$GET_CONTROL File=GDB$BRKPNTS.:E05TSI                      TUE 07/29/97 21:23 Page:96
      532        1        /*T***********************************************************/
      533        2        /*T*                                                         */
      534        3        /*T* Copyright (c) Bull HN Information Systems Inc., 1997    */
      535        4        /*T*                                                         */
      536        5        /*T***********************************************************/
      537        6        %EJECT;
PL6.E3A0      #004=GDB$GET_CONTROL File=GDB$BRKPNTS.:E05TSI                      TUE 07/29/97 21:23 Page:97
      538        7        /*F*   NAME:     GDB$GET_CONTROL
      539        8               PURPOSE:  This routine is called by the host to get control
      540        9                         of the FEP.  This may occurr if the user hits break
      541       10                         in the remote debugger or when we first enter the
      542       11                         remote debugger.
      543       12               CALL:     CALL GDB$GETCONTROL
      544       13               DESCRIPTION:  This routine first checks to see if its being
      545       14                             reentered for some reason and if either the FEP
      546       15                             is stopped or the debugger inhibit level is
      547       16                             active, we just return.  Following this we check
      548       17                             to see if there is currently a temporery breakpoint
      549       18                             set and we remove it if there is one.  We then
      550       19                             look for the highest active level and set a
      551       20                             breakpoint trap at the P counter for that level
      552       21                             so that we will get control immediatly upon
      553       22                             exiting the current level.
      554       23        */
      555       24        GDB$GET_CONTROL: PROC;
      556       25
      557       26        /* INCLUDES */
      558       27
      559       28        %INCLUDE LCP_6;                        /* Various LCP6 EQUs */
      560      219        %INCLUDE G_HJIT_M;
      561      364        %INCLUDE G_JIT_M;
      562      629        %INCLUDE GD_STATIC_DATA;
      563     1102        %INCLUDE GD$MACS_M;                    /* Assorted debugger macros */
      564     1140        %INCLUDE KH$CHN;
      565     1262
      566     1263        /* SYMREFS */
      567     1264
      568     1265    1   DCL G$MHJIT$ PTR SYMREF;
      569     1266    1   DCL G$ASDT_USR$ PTR SYMREF;
      570     1267    1   DCL G$JIT$ PTR SYMREF;
      571     1268    1   DCL G$LOW_MEM$ PTR SYMREF;      /* Pointer to base of low memory */
      572     1269        %G$MHJIT(STCLASS="BASED(G$MHJIT$)");
      573     8143        %G$SEGDESC (FPTN=G$SEGDESC, STCLASS=BASED);
      574     8165        %G$JIT(STCLASS="BASED(JIT$)");
PL6.E3A0      #004=GDB$GET_CONTROL File=GDB$BRKPNTS.:E05TSI                      TUE 07/29/97 21:23 Page:98
      575     8579        %G$ISA(STCLASS=BASED);                 /* ISA template */
      576     8882        %G$LOW_MEM(STCLASS="BASED(G$LOW_MEM$)"); /* Low memory template */
      577     8931    1   DCL MEMORY UBIN BASED;                 /* Memory template */
      578     8932    1   DCL BITMEM BIT(16) BASED ALIGNED;
      579     8933
      580     8934        /* TEMPS */
      581     8935
      582     8936    1   DCL BRK$ PTR;
      583     8937    1   DCL ISA$ PTR;                          /* Temp ISA pointer */
      584     8938    1   DCL LEVEL UBIN;                        /* Holds active level */
      585     8939    1   DCL P$ PTR;
      586     8940    1   DCL P REDEF P$ UBIN(32);
      587     8941    1   DCL JIT$ PTR;
      588     8942
      589     8943        /* ENTRYS */
      590     8944
      591     8945    1   DCL GDU$SETUP_WINDOW_USER ENTRY(2) ALTRET;
      592     8946    1   DCL GDU$SETUP_WINDOW ENTRY(1) ALTRET;
      593     8947        %EJECT;
PL6.E3A0      #004=GDB$GET_CONTROL File=GDB$BRKPNTS.:E05TSI                      TUE 07/29/97 21:23 Page:99
      594     8948        /* Prevent re-entry of this routine */
      595     8949
      596     8950    2           IF GD_DATA.GD.STOPT OR G$LOW_MEM.LVL_ACT(%G_IL_DBINH#) THEN DO;
      597     8951    2              GD_DATA.GD.NEWCTL = %G_ON#;
      598     8952    2              RETURN;
      599     8953    2              END;
      600     8954
      601     8955        /*  If there is currently a temporary breakpoint set, ZAP it,
      602     8956            it didnt  work real well. */
      603     8957
      604     8958    2           IF GD_DATA.GD.STEP_BRKPNT.FLAGS.ACTIVE THEN DO;
      605     8959    2              GD_DATA.GD.STEP_BRKPNT.FLAGS=%G_DISABLE#;
      606     8960    2              CALL GDU$SETUP_WINDOW_USER (GD_DATA.GD.STEP_BRKPNT.ADR$,
      607     8961    2                                          GD_DATA.GD.STEP_BRKPNT.USER#)
      608     8962    3              WHENRETURN DO;
      609     8963    3                 GD_DATA.GD.STEP_BRKPNT.ADR$->MEMORY =
      610     8964    3                    GD_DATA.GD.STEP_BRKPNT.OLDINST;
      611     8965    3                 END;
      612     8966    2              END;
      613     8967
      614     8968        /* Find the highest active level that can be stopped and set a breakpoint
      615     8969           at the location indicated by that levels P counter */
      616     8970
      617     8971    2           DO LEVEL=%(G_IL_DBINH#+1) TO 63;
      618     8972    2              IF G$LOW_MEM.LVL_ACT(LEVEL) AND
      619     8973    3                 G$LOW_MEM.IV.IL$(LEVEL) ~= ADDR(NIL) THEN DO;
      620     8974    3                 GD_DATA.GD.STEP_BRKPNT.FLAGS.ACTIVE = '1'B;
      621     8975    3                 GD_DATA.GD.STEP_BRKPNT.FLAGS.ARMED = '1'B;
      622     8976    3                 ISA$=PINCRW(G$LOW_MEM.IV.IL$(LEVEL),-5);
      623     8977    3                 P$=ISA$->G$ISA.P$;
      624     8978    3                 GD_DATA.GD.STEP_BRKPNT.ADR$=P$;
      625     8979    3                 GD_DATA.GD.STEP_BRKPNT.USER#=0;
      626     8980    3                 GD_DATA.GD.WINDOWSEG=%ASDT_WINDOW#;
      627     8981    4                 IF ISA$->G$ISA.ASV$=G$ASDT_USR$ AND P>65535 THEN DO;
      628     8982    4                    GD_DATA.GD.ASDT_PPNO=G$MHJIT.ASDT_MON.UMHJIT.BASE;
      629     8983    4                    GD_DATA.GD.ASDT_OFFSET=0;
      630     8984
PL6.E3A0      #004=GDB$GET_CONTROL File=GDB$BRKPNTS.:E05TSI                      TUE 07/29/97 21:23 Page:100
      631     8985        /* Setup a pointer to the JIT, since we may or may not be mapped
      632     8986           onto it at the time. */
      633     8987
      634     8988    4                    JIT$=G$JIT$;
      635     8989    4                    CALL GDU$SETUP_WINDOW (JIT$)
      636     8990    5                    WHENRETURN DO;
      637     8991    5                       GD_DATA.GD.STEP_BRKPNT.USER#=G$JIT.USR#;
      638     8992    5                       END;
      639     8993    5                    CALL GDU$SETUP_WINDOW (P$) WHENALTRETURN DO;
      640     8994    5                       P$=G$MHJIT$;
      641     8995    5                       END;
      642     8996    4                    IF %ASDT_WINDOW#=G$MHJIT.ASDT_MON.DB_PROC
      643     8997    4                   THEN P$=G$MHJIT$;    /* Don't set brkpnt in delta */
      644     8998    4                    END;
      645     8999    4                 IF P$~=G$MHJIT$ THEN DO;
      646     9000    4                    GD_DATA.GD.STEP_BRKPNT.OLDINST=P$->MEMORY;
      647     9001    4                    P$->BITMEM=%GD#BREAK_INST;
      648     9002    4                    END;
      649     9003    3                 IF ISA$->G$ISA.ISM1='FFFF'X THEN
      650     9004    3                    ISA$->G$ISA.REGS.M1.J=%G_ENABLE#;
      651     9005    3                 %ASDT_WINDOW#=GD_DATA.GD.WINDOWSEG;
      652     9006    3                 LEVEL=63;
      653     9007    3                 END;
      654     9008    2              END;
      655     9009        /**/
      656     9010    1           RETURN;
      657     9011        /**/
      658     9012    1   END GDB$GET_CONTROL;
      659     9013        %EOD;

PL6.E3A0      #004=GDB$GET_CONTROL File=GDB$BRKPNTS.:E05TSI                      TUE 07/29/97 21:23 Page:101
--  Include file information  --

   KH$CHN.:E05TOU  is referenced.
   GD$MACS_M.:E05TOU  is referenced.
   GD$MSG_M.:E05TOU  is referenced.
   GDA_EQUS_E.:E05TOU  is referenced.
   GD_EQUS_E.:E05TOU  is referenced.
   GD_DATA_M.:E05TOU  is referenced.
   GD_STATIC_DATA.:E05TOU  cannot be made into a system file and is referenced.
   G_JIT_M.:E05TOU  is referenced.
   G_HJIT_M.:E05TOU  is referenced.
   LCP_6.:E05TOU  cannot be made into a system file and is referenced.
   G_LCP6_E.:E05TOU  was found in the system file and is referenced.
   GT_LCP6_M.:E05TOU  was found in the system file and is referenced.
   KI_CP6.:E05TOU  was found in the system file and is referenced.
   GF_LCP6_M.:E05TOU  was found in the system file and is referenced.
   GM_LCP6_M.:E05TOU  was found in the system file and is referenced.
   GU_LCP6_M.:E05TOU  was found in the system file and is referenced.
   GJ_LCP6_M.:E05TOU  was found in the system file and is referenced.
   GH_LCP6_M.:E05TOU  was found in the system file and is referenced.
      No diagnostics issued in procedure GDB$GET_CONTROL.

   Procedure GDB$GET_CONTROL requires 241 words for executable code.
   Procedure GDB$GET_CONTROL requires 18 words of local(AUTO) storage.

PL6.E3A0      #004=GDB$GET_CONTROL File=GDB$BRKPNTS.:E05TSI                      TUE 07/29/97 21:23 Page:102

 Object Unit name= GDB$GET_CONTROL                            File name= GDB$BRKPNTS.:E05TOU
 UTS= JUL 29 '97 21:23:30.64 TUE                              Compiler= PL-6/E31         Sev=      00
 SharedLib= :SHARED_LCP6_SYSTEM                               Alt SharedLib=


    ****  Control sections  ****

 Sect   Type Bound  Init  Size HexSiz  Section name
    0   Proc  even  none   241     F1  GDB$GET_CONTROL

    ****  Entry defs  ****

                              Check   Calling
                             calling  sequence
  Sect HexLoc Primary Altret sequence   type   Parms  Name
     0      0   yes            yes      Std        0  GDB$GET_CONTROL

  ****  Entry refs  ****

         Check        Calling
        calling       sequence
Altret sequence SRef   type   Args  Name
 yes     yes           Std       2 GDU$SETUP_WINDOW_USER
 yes     yes           Std       1 GDU$SETUP_WINDOW
                       nStd      0 X6A_AUTO_0
                       nStd      0 X6A_ARET

  ****  Data refs  ****

  Flags:  r = read only, s = secondary
Flgs Name                             Flgs Name                             Flgs Name
     GD$DELTA_DATA$                        G$MHJIT$                              G$ASDT_USR$
     G$JIT$                                G$LOW_MEM$                       r    G$ROS$
PL6.E3A0      #004=GDB$GET_CONTROL File=GDB$BRKPNTS.:E05TSI                      TUE 07/29/97 21:23 Page:103


      532        1        /*T***********************************************************/
      533        2        /*T*                                                         */
      534        3        /*T* Copyright (c) Bull HN Information Systems Inc., 1997    */
      535        4        /*T*                                                         */
      536        5        /*T***********************************************************/
      537        6        %EJECT;
PL6.E3A0      #004=GDB$GET_CONTROL File=GDB$BRKPNTS.:E05TSI                      TUE 07/29/97 21:23 Page:104
      538        7        /*F*   NAME:     GDB$GET_CONTROL
      539        8               PURPOSE:  This routine is called by the host to get control
      540        9                         of the FEP.  This may occurr if the user hits break
      541       10                         in the remote debugger or when we first enter the
      542       11                         remote debugger.
      543       12               CALL:     CALL GDB$GETCONTROL
      544       13               DESCRIPTION:  This routine first checks to see if its being
      545       14                             reentered for some reason and if either the FEP
      546       15                             is stopped or the debugger inhibit level is
      547       16                             active, we just return.  Following this we check
      548       17                             to see if there is currently a temporery breakpoint
      549       18                             set and we remove it if there is one.  We then
      550       19                             look for the highest active level and set a
      551       20                             breakpoint trap at the P counter for that level
      552       21                             so that we will get control immediatly upon
      553       22                             exiting the current level.
      554       23        */
      555       24        GDB$GET_CONTROL: PROC;

     24   0 000000  D380 0000 0000  xent GDB$GET_CONTROL LNJ,B5   X6A_AUTO_0
          0 000003       0012 0000                       DC       18,0

      556       25
      557       26        /* INCLUDES */
      558       27
      559       28        %INCLUDE LCP_6;                        /* Various LCP6 EQUs */
      560      219        %INCLUDE G_HJIT_M;
      561      364        %INCLUDE G_JIT_M;
      562      629        %INCLUDE GD_STATIC_DATA;
      563     1102        %INCLUDE GD$MACS_M;                    /* Assorted debugger macros */
      564     1140        %INCLUDE KH$CHN;
      565     1262
      566     1263        /* SYMREFS */
      567     1264
      568     1265    1   DCL G$MHJIT$ PTR SYMREF;
      569     1266    1   DCL G$ASDT_USR$ PTR SYMREF;
      570     1267    1   DCL G$JIT$ PTR SYMREF;
PL6.E3A0      #004=GDB$GET_CONTROL File=GDB$BRKPNTS.:E05TSI                      TUE 07/29/97 21:23 Page:105
      571     1268    1   DCL G$LOW_MEM$ PTR SYMREF;      /* Pointer to base of low memory */
      572     1269        %G$MHJIT(STCLASS="BASED(G$MHJIT$)");
      573     8143        %G$SEGDESC (FPTN=G$SEGDESC, STCLASS=BASED);
      574     8165        %G$JIT(STCLASS="BASED(JIT$)");
      575     8579        %G$ISA(STCLASS=BASED);                 /* ISA template */
      576     8882        %G$LOW_MEM(STCLASS="BASED(G$LOW_MEM$)"); /* Low memory template */
      577     8931    1   DCL MEMORY UBIN BASED;                 /* Memory template */
      578     8932    1   DCL BITMEM BIT(16) BASED ALIGNED;
      579     8933
      580     8934        /* TEMPS */
      581     8935
      582     8936    1   DCL BRK$ PTR;
      583     8937    1   DCL ISA$ PTR;                          /* Temp ISA pointer */
      584     8938    1   DCL LEVEL UBIN;                        /* Holds active level */
      585     8939    1   DCL P$ PTR;
      586     8940    1   DCL P REDEF P$ UBIN(32);
      587     8941    1   DCL JIT$ PTR;
      588     8942
      589     8943        /* ENTRYS */
      590     8944
      591     8945    1   DCL GDU$SETUP_WINDOW_USER ENTRY(2) ALTRET;
      592     8946    1   DCL GDU$SETUP_WINDOW ENTRY(1) ALTRET;
      593     8947        %EJECT;
PL6.E3A0      #004=GDB$GET_CONTROL File=GDB$BRKPNTS.:E05TSI                      TUE 07/29/97 21:23 Page:106
      594     8948        /* Prevent re-entry of this routine */
      595     8949
      596     8950    2           IF GD_DATA.GD.STOPT OR G$LOW_MEM.LVL_ACT(%G_IL_DBINH#) THEN DO;

   8950   0 000005  EC80 0000 0000  xsym                 LDB,B6   GD$DELTA_DATA$
          0 000008  82C6 014C                            LB,'0004'X        332,B6
          0 00000A       0004
          0 00000B  0501 0009                            BBT      s:8951,PREL
          0 00000D  DC80 0000 0000  xsym                 LDB,B5   G$LOW_MEM$
          0 000010  82C5 0020                            LB,'0020'X        32,B5
          0 000012       0020
          0 000013  0581 0007                            BBF      s:8958,PREL

      597     8951    2              GD_DATA.GD.NEWCTL = %G_ON#;

   8951   0 000015  8946 014D                            LBT,'8000'X       333,B6
   8951   0 000017       8000

      598     8952    2              RETURN;

   8952   0 000018  C380 0000 0000  xent                 LNJ,B4   X6A_ARET

      599     8953    2              END;
      600     8954
      601     8955        /*  If there is currently a temporary breakpoint set, ZAP it,
      602     8956            it didnt  work real well. */
      603     8957
      604     8958    2           IF GD_DATA.GD.STEP_BRKPNT.FLAGS.ACTIVE THEN DO;

   8958   0 00001B  89C6 0161                            CMZ      353,B6
          0 00001D  0881 001B                            BAGE     s:8971,PREL

      605     8959    2              GD_DATA.GD.STEP_BRKPNT.FLAGS=%G_DISABLE#;

   8959   0 00001F  87C6 0161                            CLH      353,B6

      606     8960    2              CALL GDU$SETUP_WINDOW_USER (GD_DATA.GD.STEP_BRKPNT.ADR$,
PL6.E3A0      #004=GDB$GET_CONTROL File=GDB$BRKPNTS.:E05TSI                      TUE 07/29/97 21:23 Page:107

   8960   0 000021  CBC6 0160                            LAB,B4   352,B6
          0 000023  CFC7 0010                            STB,B4   JIT$+5,AUTO
          0 000025  BBC6 015B                            LAB,B3   347,B6
          0 000027  BFC7 000E                            STB,B3   JIT$+3,AUTO
          0 000029  BBC7 000E                            LAB,B3   JIT$+3,AUTO
          0 00002B  CBF0 0200                            LAB,B4   512,IMO
          0 00002D  E380 0000 0000  xent                 LNJ,B6   GDU$SETUP_WINDOW_USER
          0 000030       0009                            DC       s:8971,PREL

      607     8961    2                                          GD_DATA.GD.STEP_BRKPNT.USER#)
      608     8962    3              WHENRETURN DO;

      609     8963    3                 GD_DATA.GD.STEP_BRKPNT.ADR$->MEMORY =

   8963   0 000031  EC80 0000 0000  xsym                 LDB,B6   GD$DELTA_DATA$
          0 000034  DCC6 015B                            LDB,B5   347,B6
          0 000036  E846 015F                            LDR,R6   351,B6
          0 000038  EF05                                 STR,R6   ,B5

      610     8964    3                    GD_DATA.GD.STEP_BRKPNT.OLDINST;
      611     8965    3                 END;

      612     8966    2              END;

      613     8967
      614     8968        /* Find the highest active level that can be stopped and set a breakpoint
      615     8969           at the location indicated by that levels P counter */
      616     8970
      617     8971    2           DO LEVEL=%(G_IL_DBINH#+1) TO 63;

   8971   0 000039  6C0B                                 LDV,R6   11
          0 00003A  EF47 0008                            STR,R6   LEVEL,AUTO

      618     8972    2              IF G$LOW_MEM.LVL_ACT(LEVEL) AND

   8972   0 00003C  EC80 0000 0000  xsym                 LDB,B6   G$LOW_MEM$
PL6.E3A0      #004=GDB$GET_CONTROL File=GDB$BRKPNTS.:E05TSI                      TUE 07/29/97 21:23 Page:108
          0 00003F  DBC6 0020                            LAB,B5   32,B6
          0 000041  B847 0008                            LDR,R3   LEVEL,AUTO
          0 000043  82B5                                 LB       ,B5,R3
          0 000044  0581 00A2                            BBF      s:9008,PREL
          0 000046  3E40                                 ADV,R3   64
          0 000047  8DB6                                 CMN      ,B6,R3
          0 000048  0901 009E                            BE       s:9008,PREL

      619     8973    3                 G$LOW_MEM.IV.IL$(LEVEL) ~= ADDR(NIL) THEN DO;

      620     8974    3                 GD_DATA.GD.STEP_BRKPNT.FLAGS.ACTIVE = '1'B;

   8974   0 00004A  DC80 0000 0000  xsym                 LDB,B5   GD$DELTA_DATA$
          0 00004D  8945 0161                            LBT,'8000'X       353,B5
          0 00004F       8000

      621     8975    3                 GD_DATA.GD.STEP_BRKPNT.FLAGS.ARMED = '1'B;

   8975   0 000050  8945 0161                            LBT,'4000'X       353,B5
   8975   0 000052       4000

      622     8976    3                 ISA$=PINCRW(G$LOW_MEM.IV.IL$(LEVEL),-5);

   8976   0 000053  CCB6                                 LDB,B4   ,B6,R3
          0 000054  BBC4 FFFB                            LAB,B3   -5,B4
          0 000056  BFC7 0006                            STB,B3   ISA$,AUTO

      623     8977    3                 P$=ISA$->G$ISA.P$;

   8977   0 000058  ACC3 0008                            LDB,B2   8,B3
          0 00005A  AFC7 0009                            STB,B2   P$,AUTO

      624     8978    3                 GD_DATA.GD.STEP_BRKPNT.ADR$=P$;

   8978   0 00005C  AFC5 015B                            STB,B2   347,B5

      625     8979    3                 GD_DATA.GD.STEP_BRKPNT.USER#=0;
PL6.E3A0      #004=GDB$GET_CONTROL File=GDB$BRKPNTS.:E05TSI                      TUE 07/29/97 21:23 Page:109

   8979   0 00005E  8745 0160                            CL       352,B5

      626     8980    3                 GD_DATA.GD.WINDOWSEG=%ASDT_WINDOW#;

   8980   0 000060  CCC5 017A                            LDB,B4   378,B5
          0 000062  8C84                                 LDI      ,B4
          0 000063  8D45 0168                            SDI      360,B5

      627     8981    4                 IF ISA$->G$ISA.ASV$=G$ASDT_USR$ AND P>65535 THEN DO;

   8981   0 000065  9C83                                 LDB,B1   ,B3
          0 000066  9D80 0000 0000  xsym                 CMB,B1   G$ASDT_USR$
          0 000069  0981 0058                            BNE      s:8999,PREL
          0 00006B  8CC7 0009                            LDI      P$,AUTO
          0 00006D  84F0 0000 FFFF                       SID      65535,IMO
          0 000070  0681 0051                            BCF      s:8999,PREL
          0 000072  6981 0003                            BNEZ,R6  s:8982,PREL
          0 000074  7901 004D                            BEZ,R7   s:8999,PREL

      628     8982    4                    GD_DATA.GD.ASDT_PPNO=G$MHJIT.ASDT_MON.UMHJIT.BASE;

   8982   0 000076  EC80 0000 0000  xsym                 LDB,B6   G$MHJIT$
          0 000079  E846 000A                            LDR,R6   10,B6
          0 00007B  E570 7FFF                            AND,R6   32767,IMO
          0 00007D  EF45 0147                            STR,R6   327,B5

      629     8983    4                    GD_DATA.GD.ASDT_OFFSET=0;

   8983   0 00007F  8745 0148                            CL       328,B5

      630     8984
      631     8985        /* Setup a pointer to the JIT, since we may or may not be mapped
      632     8986           onto it at the time. */
      633     8987
      634     8988    4                    JIT$=G$JIT$;

PL6.E3A0      #004=GDB$GET_CONTROL File=GDB$BRKPNTS.:E05TSI                      TUE 07/29/97 21:23 Page:110
   8988   0 000081  9C80 0000 0000  xsym                 LDB,B1   G$JIT$
          0 000084  9FC7 000B                            STB,B1   JIT$,AUTO

      635     8989    4                    CALL GDU$SETUP_WINDOW (JIT$)

   8989   0 000086  EBC7 000B                            LAB,B6   JIT$,AUTO
          0 000088  EFC7 000E                            STB,B6   JIT$+3,AUTO
          0 00008A  BBC7 000E                            LAB,B3   JIT$+3,AUTO
          0 00008C  CBF0 0100                            LAB,B4   256,IMO
          0 00008E  E380 0000 0000  xent                 LNJ,B6   GDU$SETUP_WINDOW
          0 000091       000C                            DC       s:8993,PREL

      636     8990    5                    WHENRETURN DO;

      637     8991    5                       GD_DATA.GD.STEP_BRKPNT.USER#=G$JIT.USR#;

   8991   0 000092  EC80 0000 0000  xsym                 LDB,B6   GD$DELTA_DATA$
          0 000095  DCC7 000B                            LDB,B5   JIT$,AUTO
          0 000097  E845 0004                            LDR,R6   4,B5
          0 000099  E570 00FF                            AND,R6   255,IMO
          0 00009B  EF46 0160                            STR,R6   352,B6

      638     8992    5                       END;

      639     8993    5                    CALL GDU$SETUP_WINDOW (P$) WHENALTRETURN DO;

   8993   0 00009D  EBC7 0009                            LAB,B6   P$,AUTO
          0 00009F  EFC7 000E                            STB,B6   JIT$+3,AUTO
          0 0000A1  BBC7 000E                            LAB,B3   JIT$+3,AUTO
          0 0000A3  CBF0 0100                            LAB,B4   256,IMO
          0 0000A5  E380 0000 0000  xent                 LNJ,B6   GDU$SETUP_WINDOW
          0 0000A8       0003                            DC       s:8994,PREL
          0 0000A9  0F81 0006                            B        s:8996,PREL

      640     8994    5                       P$=G$MHJIT$;

   8994   0 0000AB  EC80 0000 0000  xsym                 LDB,B6   G$MHJIT$
PL6.E3A0      #004=GDB$GET_CONTROL File=GDB$BRKPNTS.:E05TSI                      TUE 07/29/97 21:23 Page:111
          0 0000AE  EFC7 0009                            STB,B6   P$,AUTO

      641     8995    5                       END;

      642     8996    4                    IF %ASDT_WINDOW#=G$MHJIT.ASDT_MON.DB_PROC

   8996   0 0000B0  EC80 0000 0000  xsym                 LDB,B6   GD$DELTA_DATA$
          0 0000B3  DCC6 017A                            LDB,B5   378,B6
          0 0000B5  CC80 0000 0000  xsym                 LDB,B4   G$MHJIT$
          0 0000B8  5C04                                 LDV,R5   4
          0 0000B9  0022                                 ACM      ;
          0 0000BA       4405 0000                                ALPHANUM(0,B5,,4,FILL),;
          0 0000BC       4004 002E                                ALPHANUM(46,B4,,R5,FILL)
          0 0000BE  5301 0003                            CBNE     s:8999,PREL

      643     8997    4                   THEN P$=G$MHJIT$;    /* Don't set brkpnt in delta */

   8997   0 0000C0  CFC7 0009                            STB,B4   P$,AUTO

      644     8998    4                    END;

      645     8999    4                 IF P$~=G$MHJIT$ THEN DO;

   8999   0 0000C2  ECC7 0009                            LDB,B6   P$,AUTO
          0 0000C4  ED80 0000 0000  xsym                 CMB,B6   G$MHJIT$
          0 0000C7  0901 0009                            BE       s:9003,PREL

      646     9000    4                    GD_DATA.GD.STEP_BRKPNT.OLDINST=P$->MEMORY;

   9000   0 0000C9  DC80 0000 0000  xsym                 LDB,B5   GD$DELTA_DATA$
          0 0000CC  E806                                 LDR,R6   ,B6
          0 0000CD  EF45 015F                            STR,R6   351,B5

      647     9001    4                    P$->BITMEM=%GD#BREAK_INST;

   9001   0 0000CF  5C02                                 LDV,R5   2
          0 0000D0  DF06                                 STR,R5   ,B6
PL6.E3A0      #004=GDB$GET_CONTROL File=GDB$BRKPNTS.:E05TSI                      TUE 07/29/97 21:23 Page:112

      648     9002    4                    END;

      649     9003    3                 IF ISA$->G$ISA.ISM1='FFFF'X THEN

   9003   0 0000D1  ECC7 0006                            LDB,B6   ISA$,AUTO
          0 0000D3  E846 0006                            LDR,R6   6,B6
          0 0000D5  E970 FFFF                            CMR,R6   -1,IMO
          0 0000D7  0981 0004                            BNE      s:9005,PREL

      650     9004    3                    ISA$->G$ISA.REGS.M1.J=%G_ENABLE#;

   9004   0 0000D9  8946 0021                            LBT,'0080'X       33,B6
   9004   0 0000DB       0080

      651     9005    3                 %ASDT_WINDOW#=GD_DATA.GD.WINDOWSEG;

   9005   0 0000DC  DC80 0000 0000  xsym                 LDB,B5   GD$DELTA_DATA$
          0 0000DF  CCC5 017A                            LDB,B4   378,B5
          0 0000E1  8CC5 0168                            LDI      360,B5
          0 0000E3  8D04                                 SDI      ,B4

      652     9006    3                 LEVEL=63;

   9006   0 0000E4  6C3F                                 LDV,R6   63
          0 0000E5  EF47 0008                            STR,R6   LEVEL,AUTO

      653     9007    3                 END;

      654     9008    2              END;

   9008   0 0000E7  8AC7 0008                            INC      LEVEL,AUTO
          0 0000E9  E847 0008                            LDR,R6   LEVEL,AUTO
          0 0000EB  6D3F                                 CMV,R6   63
          0 0000EC  0381 FF4F                            BLE      s:8972,PREL

      655     9009        /**/
PL6.E3A0      #004=GDB$GET_CONTROL File=GDB$BRKPNTS.:E05TSI                      TUE 07/29/97 21:23 Page:113
      656     9010    1           RETURN;

   9010   0 0000EE  C380 0000 0000  xent                 LNJ,B4   X6A_ARET
      657     9011        /**/
      658     9012    1   END GDB$GET_CONTROL;
      659     9013        %EOD;

PL6.E3A0      #004=GDB$GET_CONTROL File=GDB$BRKPNTS.:E05TSI                      TUE 07/29/97 21:23 Page:114
--  Include file information  --

   KH$CHN.:E05TOU  is referenced.
   GD$MACS_M.:E05TOU  is referenced.
   GD$MSG_M.:E05TOU  is referenced.
   GDA_EQUS_E.:E05TOU  is referenced.
   GD_EQUS_E.:E05TOU  is referenced.
   GD_DATA_M.:E05TOU  is referenced.
   GD_STATIC_DATA.:E05TOU  cannot be made into a system file and is referenced.
   G_JIT_M.:E05TOU  is referenced.
   G_HJIT_M.:E05TOU  is referenced.
   LCP_6.:E05TOU  cannot be made into a system file and is referenced.
   G_LCP6_E.:E05TOU  was found in the system file and is referenced.
   GT_LCP6_M.:E05TOU  was found in the system file and is referenced.
   KI_CP6.:E05TOU  was found in the system file and is referenced.
   GF_LCP6_M.:E05TOU  was found in the system file and is referenced.
   GM_LCP6_M.:E05TOU  was found in the system file and is referenced.
   GU_LCP6_M.:E05TOU  was found in the system file and is referenced.
   GJ_LCP6_M.:E05TOU  was found in the system file and is referenced.
   GH_LCP6_M.:E05TOU  was found in the system file and is referenced.
      No diagnostics issued in procedure GDB$GET_CONTROL.
PL6.E3A0      #004=GDB$GET_CONTROL File=GDB$BRKPNTS.:E05TSI                      TUE 07/29/97 21:23 Page:115

 **** Variables and constants ****

  ****  Auto variables  ****

  ****  Scalars and arrays  ****
HexLoc.c.b A Datatyp(siz) R M Lvl/name                 HexLoc.c.b A Datatyp(siz) R M Lvl/name

     6-0-0/w PTR         r     1 ISA$                       B-0-0/w PTR         r     1 JIT$
     8-0-0/w UBIN(16)    r     1 LEVEL                      9-0-0/w UBIN(32)    r     1 P
     9-0-0/w PTR         r     1 P$

  ****  SYMREF variables  ****

  ****  Scalars and arrays  ****
HexLoc.c.b A Datatyp(siz) R M Lvl/name                 HexLoc.c.b A Datatyp(siz) R M Lvl/name

     0-0-0/w PTR         r     1 G$ASDT_USR$                0-0-0/w PTR         r     1 G$JIT$
     0-0-0/w PTR         r     1 G$LOW_MEM$                 0-0-0/w PTR         r     1 G$MHJIT$
     0-0-0/w PTR         r     1 GD$DELTA_DATA$

  ****  BASED and DCB variables  ****

  ****  Scalars and arrays  ****
HexLoc.c.b A Datatyp(siz) R M Lvl/name                 HexLoc.c.b A Datatyp(siz) R M Lvl/name

     0-0-0/w BIT (16)    r     1 BITMEM                     0-0-0/w STRC(720)   r     1 G$ISA
     0-0-0/w STRC(5616)  r     1 G$JIT                      0-0-0/w STRC(4096)  r     1 G$LOW_MEM
     0-0-0/w STRC(27232) r     1 G$MHJIT                    0-0-0/w STRC(32)    r     1 G$SEGDESC
     0-0-0/w STRC(16704) r     1 GD_DATA                    0-0-0/w UBIN(16)    r     1 MEMORY


   Procedure GDB$GET_CONTROL requires 241 words for executable code.
   Procedure GDB$GET_CONTROL requires 18 words of local(AUTO) storage.
PL6.E3A0      #004=GDB$GET_CONTROL File=GDB$BRKPNTS.:E05TSI                      TUE 07/29/97 21:23 Page:116
          *** CROSS REFERENCE LISTING ***
**     DENOTES     IDENTIFIER DEFINITION
<<                 IDENTIFIER'S VALUE SET
>>                 IDENTIFIER'S VALUE USED
<>                 IDENTIFIER SET AND/OR USED
--                 IDENTIFIER REFERENCED
PL6.E3A0      #004=GDB$GET_CONTROL File=GDB$BRKPNTS.:E05TSI                      TUE 07/29/97 21:23 Page:117
          MINI XREF LISTING

BITMEM
      8932**DCL      9001<<ASSIGN
G$ASDT_USR$
      1266**DCL      8981>>IF
G$ISA.ASV$
      8610**DCL      8981>>IF
G$ISA.ISM1
      8650**DCL      9003>>IF
G$ISA.P$
      8683**DCL      8977>>ASSIGN
G$ISA.P$$
      8683**DCL      8683--REDEF
G$ISA.REGS.M1.J
      8777**DCL      9004<<ASSIGN
G$JIT.ERRLOG
      8509**DCL      8512--REDEF
G$JIT.JSUNIT
      8248**DCL      8249--REDEF
G$JIT.MCLS
      8247**DCL      8247--REDEF
G$JIT.TMRZ
      8516**DCL      8517--REDEF
G$JIT.USER_EXTIME
      8240**DCL      8241--REDEF
G$JIT.USER_MEMTIME
      8243**DCL      8243--REDEF
G$JIT.USER_SVTIME
      8242**DCL      8242--REDEF
G$JIT.USR#
      8237**DCL      8991>>ASSIGN
G$JIT$
      1267**DCL      8988>>ASSIGN
PL6.E3A0      #004=GDB$GET_CONTROL File=GDB$BRKPNTS.:E05TSI                      TUE 07/29/97 21:23 Page:118
G$LOW_MEM.IV.IL$
      8924**DCL      8924--REDEF    8972>>IF       8976>>ASSIGN
G$LOW_MEM.IV.INT.I#00$
      8924**DCL      8924--REDEF
G$LOW_MEM.IV.INT.I#01$
      8924**DCL      8924--REDEF
G$LOW_MEM.IV.INT.I#02$
      8925**DCL      8925--REDEF
G$LOW_MEM.IV.INT.I#03$
      8925**DCL      8925--REDEF
G$LOW_MEM.IV.INT.I#04$
      8925**DCL      8926--REDEF
G$LOW_MEM.IV.INT.I#05$
      8926**DCL      8926--REDEF
G$LOW_MEM.IV.INT.I#61$
      8927**DCL      8927--REDEF
G$LOW_MEM.IV.INT.I#62$
      8927**DCL      8927--REDEF
G$LOW_MEM.IV.INT.I#63$
      8927**DCL      8927--REDEF
G$LOW_MEM.LVL_ACT
      8889**DCL      8950>>IF       8972>>IF
G$LOW_MEM.TV.T#01$
      8912**DCL      8912--REDEF
G$LOW_MEM.TV.T#02$
      8912**DCL      8912--REDEF
G$LOW_MEM.TV.T#03$
      8911**DCL      8911--REDEF
G$LOW_MEM.TV.T#05$
      8911**DCL      8911--REDEF
G$LOW_MEM.TV.T#06$
      8910**DCL      8910--REDEF
G$LOW_MEM.TV.T#07$
      8910**DCL      8910--REDEF
G$LOW_MEM.TV.T#08$
      8909**DCL      8910--REDEF
PL6.E3A0      #004=GDB$GET_CONTROL File=GDB$BRKPNTS.:E05TSI                      TUE 07/29/97 21:23 Page:119
G$LOW_MEM.TV.T#09$
      8909**DCL      8909--REDEF
G$LOW_MEM.TV.T#10$
      8909**DCL      8909--REDEF
G$LOW_MEM.TV.T#12$
      8908**DCL      8908--REDEF
G$LOW_MEM.TV.T#13$
      8908**DCL      8908--REDEF
G$LOW_MEM.TV.T#14$
      8907**DCL      8907--REDEF
G$LOW_MEM.TV.T#15$
      8907**DCL      8907--REDEF
G$LOW_MEM.TV.T#16$
      8906**DCL      8907--REDEF
G$LOW_MEM.TV.T#17$
      8906**DCL      8906--REDEF
G$LOW_MEM.TV.T#19$
      8905**DCL      8906--REDEF
G$LOW_MEM.TV.T#20$
      8905**DCL      8905--REDEF
G$LOW_MEM.TV.T#21$
      8905**DCL      8905--REDEF
G$LOW_MEM.TV.T#22$
      8904**DCL      8904--REDEF
G$LOW_MEM.TV.T#23$
      8904**DCL      8904--REDEF
G$LOW_MEM.TV.T#24$
      8903**DCL      8904--REDEF
G$LOW_MEM.TV.T#25$
      8903**DCL      8903--REDEF
G$LOW_MEM.TV.T#26$
      8903**DCL      8903--REDEF
G$LOW_MEM.TV.T#27$
      8902**DCL      8902--REDEF
G$LOW_MEM.TV.T#28$
      8902**DCL      8902--REDEF
PL6.E3A0      #004=GDB$GET_CONTROL File=GDB$BRKPNTS.:E05TSI                      TUE 07/29/97 21:23 Page:120
G$LOW_MEM.TV.T#29$
      8901**DCL      8902--REDEF
G$LOW_MEM.TV.T#30$
      8901**DCL      8901--REDEF
G$LOW_MEM.TV.T#31$
      8901**DCL      8901--REDEF
G$LOW_MEM.TV.T#32$
      8900**DCL      8900--REDEF
G$LOW_MEM.TV.T#33$
      8900**DCL      8900--REDEF
G$LOW_MEM$
      1268**DCL      8887--IMP-PTR  8950>>IF       8972>>IF       8972>>IF       8976>>ASSIGN
G$MHJIT.ASDT_MON.DB_PROC
      1824**DCL      8996>>IF
G$MHJIT.ASDT_MON.UMHJIT.BASE
      1430**DCL      8982>>ASSIGN
G$MHJIT.INTCON.HHJIT
      7748**DCL      7748--REDEF
G$MHJIT.INTCON.P$$
      7721**DCL      7721--REDEF
G$MHJIT.ISA_BIGFOOT.P$$
      4666**DCL      4666--REDEF
G$MHJIT.ISA_DBINH.P$$
      5880**DCL      5880--REDEF
G$MHJIT.ISA_IDLE.P$$
      2761**DCL      2761--REDEF
G$MHJIT.ISA_LVL10.P$$
      6183**DCL      6183--REDEF
G$MHJIT.ISA_LVL11.P$$
      6486**DCL      6486--REDEF
G$MHJIT.ISA_LVL12.P$$
      6789**DCL      6789--REDEF
G$MHJIT.ISA_LVL5.P$$
      4969**DCL      4969--REDEF
G$MHJIT.ISA_OV.P$$
      4363**DCL      4363--REDEF
PL6.E3A0      #004=GDB$GET_CONTROL File=GDB$BRKPNTS.:E05TSI                      TUE 07/29/97 21:23 Page:121
G$MHJIT.ISA_PFS.P$$
      4034**DCL      4034--REDEF
G$MHJIT.ISA_RT_CLOCK.P$$
      7396**DCL      7396--REDEF
G$MHJIT.ISA_SATYR_RCV.P$$
      5273**DCL      5273--REDEF
G$MHJIT.ISA_SATYR_TRN.P$$
      5577**DCL      5577--REDEF
G$MHJIT.ISA_SCHD.P$$
      7092**DCL      7092--REDEF
G$MHJIT.ISA_WDOG.P$$
      4142**DCL      4142--REDEF
G$MHJIT.TSA_DB.ISA.P$$
      3364**DCL      3364--REDEF
G$MHJIT.TSA_DB.P$$
      3235**DCL      3235--REDEF    3236--REDEF
G$MHJIT.TSA_HND.ISA.P$$
      7942**DCL      7942--REDEF
G$MHJIT.TSA_HND.P$$
      7813**DCL      7813--REDEF    7814--REDEF
G$MHJIT.TSA_MON.ISA.P$$
      2976**DCL      2976--REDEF
G$MHJIT.TSA_MON.P$$
      2847**DCL      2847--REDEF    2848--REDEF
G$MHJIT.TSA_OV.ISA.P$$
      3752**DCL      3752--REDEF
G$MHJIT.TSA_OV.P$$
      3623**DCL      3623--REDEF    3624--REDEF
G$MHJIT$
      1265**DCL      1286--IMP-PTR  8982>>ASSIGN   8994>>ASSIGN   8996>>IF       8997>>ASSIGN   8999>>IF
G$SEGDESC
      8157**DCL      8980>>ASSIGN   8996>>IF       9005<<ASSIGN
GD$DELTA_DATA$
      1055**DCL      1069--IMP-PTR  8950>>IF       8951>>ASSIGN   8958>>IF       8959>>ASSIGN   8960>>CALL
      8960>>CALL     8963>>ASSIGN   8963>>ASSIGN   8974>>ASSIGN   8975>>ASSIGN   8978>>ASSIGN   8979>>ASSIGN
      8980>>ASSIGN   8980>>ASSIGN   8982>>ASSIGN   8983>>ASSIGN   8991>>ASSIGN   8996>>IF       9000>>ASSIGN
PL6.E3A0      #004=GDB$GET_CONTROL File=GDB$BRKPNTS.:E05TSI                      TUE 07/29/97 21:23 Page:122
      9005>>ASSIGN   9005>>ASSIGN
GDU$SETUP_WINDOW
      8946**DCL-ENT  8989--CALL     8993--CALL
GDU$SETUP_WINDOW_USER
      8945**DCL-ENT  8960--CALL
GD_DATA.GD.ASDT_OFFSET
      1075**DCL      8983<<ASSIGN
GD_DATA.GD.ASDT_PPNO
      1074**DCL      8982<<ASSIGN
GD_DATA.GD.ASDT_WINDOW$
      1091**DCL      8980>>ASSIGN   8996>>IF       9005>>ASSIGN
GD_DATA.GD.DYNSP$
      1082**DCL      1082--REDEF
GD_DATA.GD.NEWCTL
      1080**DCL      8951<<ASSIGN
GD_DATA.GD.STEP_BRKPNT.ADR$
      1083**DCL      1084--REDEF    8960<>CALL     8963>>ASSIGN   8978<<ASSIGN
GD_DATA.GD.STEP_BRKPNT.FLAGS
      1085**DCL      8959<<ASSIGN
GD_DATA.GD.STEP_BRKPNT.FLAGS.ACTIVE
      1085**DCL      8958>>IF       8974<<ASSIGN
GD_DATA.GD.STEP_BRKPNT.FLAGS.ARMED
      1085**DCL      8975<<ASSIGN
GD_DATA.GD.STEP_BRKPNT.OLDINST
      1084**DCL      8963>>ASSIGN   9000<<ASSIGN
GD_DATA.GD.STEP_BRKPNT.START$
      1084**DCL      1084--REDEF
GD_DATA.GD.STEP_BRKPNT.USER#
      1085**DCL      8960<>CALL     8979<<ASSIGN   8991<<ASSIGN
GD_DATA.GD.STOPT
      1079**DCL      8950>>IF
GD_DATA.GD.WINDOWSEG
      1088**DCL      8980<<ASSIGN   9005>>ASSIGN
ISA$
      8937**DCL      8976<<ASSIGN   8977>>ASSIGN   8981>>IF       9003>>IF       9004>>ASSIGN
JIT$
PL6.E3A0      #004=GDB$GET_CONTROL File=GDB$BRKPNTS.:E05TSI                      TUE 07/29/97 21:23 Page:123
      8941**DCL      8179--IMP-PTR  8988<<ASSIGN   8989<>CALL     8991>>ASSIGN
LEVEL
      8938**DCL      8971<<DOINDEX  8972>>IF       8972>>IF       8976>>ASSIGN   9006<<ASSIGN
MEMORY
      8931**DCL      8963<<ASSIGN   9000>>ASSIGN
P
      8940**DCL      8981>>IF
P$
      8939**DCL      8940--REDEF    8977<<ASSIGN   8978>>ASSIGN   8993<>CALL     8994<<ASSIGN   8997<<ASSIGN
      8999>>IF       9000>>ASSIGN   9001>>ASSIGN

