PL6.E3A0      #005=GDB$FIRST_USER_TRAP File=GDB$BRKPNTS.:E05TSI                  TUE 07/29/97 21:24 Page:124
      660        1        /*T***********************************************************/
      661        2        /*T*                                                         */
      662        3        /*T* Copyright (c) Bull HN Information Systems Inc., 1997    */
      663        4        /*T*                                                         */
      664        5        /*T***********************************************************/
      665        6        %EJECT;
PL6.E3A0      #005=GDB$FIRST_USER_TRAP File=GDB$BRKPNTS.:E05TSI                  TUE 07/29/97 21:24 Page:125
      666        7        /*F*    NAME:    GDB$TRAP_HND
      667        8                PURPOSE: This routine is the debuggers trap handler.  It is
      668        9                         called by the monitor whenever the debugger is in
      669       10                         control to handle traps of all types.
      670       11                CALL:    CALL GDB$TRAP_HND(TSA$)
      671       12                DESCRIPTION:  This routine is called with a pointer to the
      672       13                              TSA that caused this trap.  We first determine
      673       14                              if this is a trap we will handle.  Following
      674       15                              this we adjust the P counter in the TSA to reflect
      675       16                              the length of the instruction that caused us to
      676       17                              trap.  We then send a break responce message to
      677       18                              the host indicating that we are stopped.  All
      678       19                              breakpoints are removed and we loop waiting for
      679       20                              a GO. When we get the GO, we figure out if we
      680       21                              are to step or go to an absolute address, modify
      681       22                              the TSA accordingly and off we go.
      682       23        */
      683       24        GDB$FIRST_USER_TRAP: PROC(G$TSA) ALTRET;
      684       25
      685       26        /**/
      686       27        /* Includes */
      687       28        /**/
      688       29
      689       30        %INCLUDE G_HJIT_M;
      690      175        %INCLUDE LCP_6;                        /* Various LCP6 EQUs */
      691      366        %INCLUDE GD_STATIC_DATA;
      692      839        %INCLUDE GD$MACS_M;                    /* Debugger macros */
      693      877        %INCLUDE GM_VIRTUAL_E;
      694     1087        %INCLUDE G_JIT_M;
      695     1352        %INCLUDE G_ROS_M;
      696     1434        %INCLUDE KH$CHN;
      697     1556        %INCLUDE HF_ERRORS_C;
      698     1641        %INCLUDE GD_BRKPNT_M;
      699     1696        %INCLUDE GH_HARDWARE_M;
      700     1794
      701     1795        /**/
      702     1796        /* Symrefs */
PL6.E3A0      #005=GDB$FIRST_USER_TRAP File=GDB$BRKPNTS.:E05TSI                  TUE 07/29/97 21:24 Page:126
      703     1797        /**/
      704     1798
      705     1799    1   DCL G$UHJIT$ PTR SYMREF;
      706     1800    1   DCL G$ASDT_USR$ PTR SYMREF;
      707     1801    1   DCL G$ASDT_MCL$ PTR SYMREF;
      708     1802    1   DCL G$MHJIT$ PTR SYMREF;
      709     1803    1   DCL G$JIT$ PTR SYMREF;
      710     1804    1   DCL G$ROS$ PTR SYMREF;
      711     1805    1   DCL G$USRT$ PTR SYMREF;
      712     1806        %VLP_ERRCODE (FPTN=GHB_TRAP_MSG,ERR#=%E$TRAP,SEV=G_SEV_CONT#,
      713     1807                     STCLASS=CONSTANT,FCG=GH,MID=B,MON='1'B);
      714     1853
      715     1854        /**/
      716     1855        /* Based Items */
      717     1856        /**/
      718     1857
      719     1858        %GD_BRKPNT(FPTN=BRKPNT,STCLASS=BASED);
      720     1875        %GD_BRKPNT(FPTN=IFBRKPNT,STCLASS=BASED,LAST=",");
      721     1892        %GD_IFCOND(FPTN=IFCOND,LVL=2);
      722     1916        %VLP_XBREAK(STCLASS=BASED);
      723     1935        %G$MHJIT(STCLASS="BASED(G$MHJIT$)");
      724     8809        %G$UHJIT(STCLASS="BASED(G$UHJIT$)");
      725    11783        %G$JIT (STCLASS="BASED(G$JIT$)");
      726    12197        %G$SEGDESC (FPTN=G$SEGDESC, STCLASS=BASED);
      727    12219        %G$TSA(STCLASS="");                     /* TSA template */
      728    12607        %GD$MSG(STCLASS="BASED(MSG$)");         /* Message template */
      729    12763        %GH_VLD(STCLASS=BASED);
      730    12777        %G$ROS (STCLASS="BASED(G$ROS$)");
      731    12821        %G$ECCB(FPTN=G$ECCB_ARRAYED,ARRAYED=YES);
      732    12897        %G$ECCB;
      733    12973    1   DCL MEMORY UBIN BASED;                 /* Memory template */
      734    12974    1   DCL SMEMORY SBIN BASED;                /* Memory template */
      735    12975    1   DCL BITMEM BIT(16) BASED ALIGNED;      /* Another memory template */
      736    12976    1   DCL 1 BVECT BASED ALIGNED,
      737    12977    1         2 SIZE UBIN WORD ALIGNED,
      738    12978    1         2 PTR$ PTR ALIGNED;
      739    12979
PL6.E3A0      #005=GDB$FIRST_USER_TRAP File=GDB$BRKPNTS.:E05TSI                  TUE 07/29/97 21:24 Page:127
      740    12980        /**/
      741    12981        /* Arguments */
      742    12982        /**/
      743    12983
      744    12984        /**/
      745    12985        /* Entries */
      746    12986        /**/
      747    12987
      748    12988    1   DCL GDB$RESET_BRKPNT ENTRY;            /* Remove all breakpoints */
      749    12989    1   DCL GDB$KILL_ALLBRKPNTS ENTRY;            /* KILL all breakpoints */
      750    12990    1   DCL GDI$DECODE_MSG_WAIT_4_GO ENTRY ALTRET; /* Process msgs til GO */
      751    12991    1   DCL GDI$SEND_RESPONSE ENTRY(2);        /* Send message to host */
      752    12992    1   DCL GDI$SEND_ERROR_RESPONSE ENTRY(3);
      753    12993    1   DCL GDU$SETUP_WINDOW ENTRY(1) ALTRET;
      754    12994    1   DCL GDU$SETUP_WINDOW_USER ENTRY(2) ALTRET;
      755    12995    1   DCL GDB$SET_BRKPNT ENTRY(2) OPTIONAL;
      756    12996    1   DCL GDK$RESADDR ENTRY(10) ALTRET;
      757    12997    1   DCL GDK$MPTR ENTRY(7);
      758    12998    1   DCL X6A_ARET ENTRY;
      759    12999    1   DCL GDA$USER_INIT ENTRY ALTRET OPTIONAL;
      760    13000    1   DCL GDM$GRAB16 ENTRY(3) ALTRET;
      761    13001    1   DCL GDK$PUDECBIN ENTRY(4);
      762    13002    1   DCL GDK$PTDECBIN ENTRY(4);
      763    13003    1   DCL GDK$UUDECBIN ENTRY(4);
      764    13004    1   DCL GDK$UTDECBIN ENTRY(4);
      765    13005    1   DCL GDK$ULDECBIN ENTRY(4);
      766    13006    1   DCL GDK$UODECBIN ENTRY(4);
      767    13007    1   DCL MAP_ADDRESS ENTRY(2) ALTRET;    /* XT
      768    13008        DCL XT SBIN;
      769    13009        DCL XT$ PTR; */
      770    13010
      771    13011        /**/
      772    13012        /* Temps */
      773    13013        /**/
      774    13014
      775    13015    1   DCL BRK$ PTR;
      776    13016    1   DCL BRKNUM SBIN;
PL6.E3A0      #005=GDB$FIRST_USER_TRAP File=GDB$BRKPNTS.:E05TSI                  TUE 07/29/97 21:24 Page:128
      777    13017    1   DCL OFFSET SBIN;
      778    13018    1   DCL MSGBFR CHAR(64) BASED(MSG$) CALIGNED; /* Buffer for msg to host */
      779    13019    1   DCL DSIZE UBIN;
      780    13020    1   DCL MSG$ PTR;                      /* Pointer to message buffer */
      781    13021    1   DCL P$ PTR;
      782    13022    1   DCL P REDEF P$ UBIN(32);
      783    13023    1   DCL SIZE UBIN;                         /* Size of message to host */
      784    13024    1   DCL ADR$ PTR;
      785    13025    1   DCL PTR$ PTR;
      786    13026    1   DCL TRAP_NO UBIN;
      787    13027    1   DCL MON BIT(1) ALIGNED;
      788    13028        %VLP_ERRCODE (FPTN = ERRCODE_SCRATCH,STCLASS = "AUTO");
      789    13074        %EJECT;
PL6.E3A0      #005=GDB$FIRST_USER_TRAP File=GDB$BRKPNTS.:E05TSI                  TUE 07/29/97 21:24 Page:129
      790    13075        /* If we entered here, we need to call the user debugger init routine */
      791    13076
      792    13077    1           CALL GDA$USER_INIT;
      793    13078        /**/
      794    13079    1   GDB$TRAP_HND: ENTRY(G$TSA) ALTRET;
      795    13080        /* */
      796    13081    1           MSG$ = ADDR(GD_DATA.GDA.RCV);
      797    13082    1           IF G$TSA.I.TRAP# = %G_HOST_INT# OR G$TSA.I.TRAP# = %G_FPRG_START# THEN
      798    13083    1              G$TSA.Z.IS=0;
      799    13084    2           IF GD_DATA.GD.IGNARITH THEN DO;
      800    13085    2              IF G$TSA.I.TRAP#=%G_INT_REG_OV# OR
      801    13086    2                 G$TSA.I.TRAP#=%G_S_DBZ# OR
      802    13087    2                 G$TSA.I.TRAP#=%G_S_EXP_OV# OR
      803    13088    2                 G$TSA.I.TRAP#=%G_S_EXP_UF# OR
      804    13089    2                 G$TSA.I.TRAP#=%G_C_DBZ# OR
      805    13090    2                 G$TSA.I.TRAP#=%G_C_CHAR# OR
      806    13091    3                 G$TSA.I.TRAP#=%G_C_OV# THEN DO;
      807    13092    3                   ALTRETURN;
      808    13093    3                   END;
      809    13094    2              END;
      810    13095    1           GD$MSG = '0'B;
      811    13096    2           IF GD_DATA.GD.STOPT THEN DO;
      812    13097    2              IF NOT GD_DATA.GD.ANSWERED THEN
      813    13098    2                 CALL GDI$SEND_ERROR_RESPONSE (SIZE,MSGBFR,%GD#RSPBADADR);
      814    13099    2              G$TSA.P$$=ENTADDR(X6A_ARET);
      815    13100    2              ALTRETURN;
      816    13101    2              END;
      817    13102    1           GD_DATA.DELTAINFO.TSA$=ADDR(G$TSA);
      818    13103        /* */
      819    13104    1   STARTOVER:
      820    13105        /*
      821    13106          If this is XDELTA, we need to perform the entire ASDT stuff
      822    13107                                                                                      */
      823    13108    1           IF GD_DATA.GD.MODE=%GD#MODE_XDELTA THEN
      824    13109    2           DO;
      825    13110        /*
      826    13111          If the debug link is not up, let Linda have it
PL6.E3A0      #005=GDB$FIRST_USER_TRAP File=GDB$BRKPNTS.:E05TSI                  TUE 07/29/97 21:24 Page:130
      827    13112                                                                                      */
      828    13113    2              IF NOT(GD_DATA.GDA.CONNECTFLG) THEN
      829    13114    2                 RETURN;
      830    13115        /*
      831    13116          Stash away the current desciptor in the monitors window segment
      832    13117          so we can use it if we need to look through it and so we can be nice
      833    13118          guys and restore it
      834    13119                                                                                      */
      835    13120    2              GD_DATA.GD.WINDOWSEG=%ASDT_WINDOW#;
      836    13121        /*
      837    13122           Setup GD_DATA.GD.USERNO appropriatly to reflect whether a user was running
      838    13123           or the monitor was running
      839    13124                                                                                      */
      840    13125    2              GD_DATA.GD.USE_REAL = %G_NO#;
      841    13126    2              MON=%G_YES#;
      842    13127    2              IF G$TSA.ISA.ISM2.MMU
      843    13128    2                AND (G$TSA.ISA.ASV$=G$ASDT_USR$ OR G$TSA.ISA.ASV$=G$ASDT_MCL$) THEN
      844    13129    3              DO;
      845    13130    3                 GD_DATA.GD.ASDT_PPNO=G$MHJIT.ASDT_MON.UMHJIT.BASE;
      846    13131    3                 GD_DATA.GD.ASDT_OFFSET=POFFW(G$TSA.ISA.ASV$,G$UHJIT$);
      847    13132        /*
      848    13133          Setup a pointer to the JIT, since we may or may not be mapped
      849    13134          onto it at the time.
      850    13135                                                                                      */
      851    13136    3                 P$=G$JIT$;
      852    13137    4                 CALL GDU$SETUP_WINDOW (P$) WHENRETURN DO;
      853    13138    4                    GD_DATA.GD.USERNO=G$JIT.USR#;
      854    13139    4                    IF G$TSA.ISA.ASV$ ~= G$ASDT_USR$ THEN
      855    13140    4                       GD$MSG.BRKRSP.MBU = '1'B;
      856    13141    4                    ELSE GD$MSG.BRKRSP.MBU = '0'B;
      857    13142    4                    END;
      858    13143    3                 IF G$TSA.ISA.ASV$=G$ASDT_USR$ AND G$TSA.P>=%GM_ISR1_BASE THEN
      859    13144    3                    MON=%G_NO#;
      860    13145    3                 END;
      861    13146    2              ELSE
      862    13147    3              DO;
      863    13148    3                 GD_DATA.GD.USERNO=0;
PL6.E3A0      #005=GDB$FIRST_USER_TRAP File=GDB$BRKPNTS.:E05TSI                  TUE 07/29/97 21:24 Page:131
      864    13149    3                 GD_DATA.GD.ASDT_PPNO=G$MHJIT.ASDT_MON.MHJIT.BASE;
      865    13150    3                 GD_DATA.GD.ASDT_OFFSET=POFFW(ADDR(G$MHJIT.ASDT_MON),ADDR(G$MHJIT));
      866    13151    3                 END;
      867    13152        /*
      868    13153          Stash away the calculated values just in case the guy says USE
      869    13154                                                                                      */
      870    13155    2              GD_DATA.GD.ASDT_USE_PPNO=GD_DATA.GD.ASDT_PPNO;
      871    13156    2              GD_DATA.GD.ASDT_USE_OFFSET=GD_DATA.GD.ASDT_OFFSET;
      872    13157    2              GD_DATA.GD.USE_USERNO=GD_DATA.GD.USERNO;
      873    13158    2              END;
      874    13159        /*
      875    13160          If this is user delta, we just need to properly setup the user
      876    13161          stuff.
      877    13162                                                                                      */
      878    13163    1           ELSE
      879    13164    2           DO;
      880    13165    2              GD_DATA.GD.USERNO=G$JIT$->G$JIT.USR#;
      881    13166    2              GD_DATA.GD.USE_USERNO=G$JIT$->G$JIT.USR#;
      882    13167    2              END;
      883    13168        /*
      884    13169          Init the break number cell to 0 (Temp breakpoint) and disable
      885    13170          the branch trace bit in this TSA's ISA.
      886    13171                                                                                      */
      887    13172    1           BRKNUM=0;
      888    13173    1           GD_DATA.GD.TRACE_ACTIVE = G$TSA.ISA.REGS.M1.J;
      889    13174    1           G$TSA.ISA.REGS.M1.J=%G_DISABLE#;
      890    13175        /*
      891    13176          If there is any breakpoint that needs cleanup (needs to be put back
      892    13177          in memory), do it now, if the user hasn't killed it
      893    13178                                                                                      */
      894    13179    1           IF GD_DATA.GD.BRKNUM > 0 THEN
      895    13180    2           DO;
      896    13181    2              IF GD_DATA.GD.BRK$->BRKPNT.FLAGS.ACTIVE AND
      897    13182    2                 ~GD_DATA.GD.BRK$->BRKPNT.FLAGS.ARMED THEN
      898    13183    3              DO;
      899    13184    3                 ADR$=GD_DATA.GD.BRK$->BRKPNT.ADR$;
      900    13185    3                 CALL GDU$SETUP_WINDOW_USER (ADR$,
PL6.E3A0      #005=GDB$FIRST_USER_TRAP File=GDB$BRKPNTS.:E05TSI                  TUE 07/29/97 21:24 Page:132
      901    13186    4                   GD_DATA.GD.BRK$->BRKPNT.USER#) WHENRETURN DO;
      902    13187    4                    GD_DATA.GD.BRK$->BRKPNT.OLDINST=ADR$->MEMORY;
      903    13188    4                    GD_DATA.GD.BRK$->BRKPNT.FLAGS.ARMED = '1'B;
      904    13189    4                    ADR$->BITMEM=%GD#BREAK_INST;
      905    13190    4                    END;
      906    13191    3                 GD_DATA.GD.USERNO=GD_DATA.GD.USE_USERNO;
      907    13192    3                 GD_DATA.GD.ASDT_PPNO=GD_DATA.GD.ASDT_USE_PPNO;
      908    13193    3                 GD_DATA.GD.ASDT_OFFSET=GD_DATA.GD.ASDT_USE_OFFSET;
      909    13194    3                 END;
      910    13195    2              GD_DATA.GD.BRKNUM=0;
      911    13196    2              GD_DATA.GD.BRK$ = ADDR(NIL);
      912    13197    2              END;
      913    13198        /*
      914    13199          Determine if LDTRC - if yes - call KILL_ALLBRKPNTS
      915    13200          If LDTRC in library - do GOTRAP.
      916    13201        */
      917    13202    1           IF G$TSA.I.TRAP# = %G_FPRG_START2# AND
      918    13203    1              GD_DATA.GD.MODE = %GD#MODE_USER_DELTA
      919    13204    2           THEN DO;
      920    13205    2                CALL GDB$KILL_ALLBRKPNTS;
      921    13206    2                IF G$JIT.SLIB# ~= 0 AND
      922    13207    2                   G$TSA.P > %GM_ISR6_BASE
      923    13208    2                THEN GOTO GOTRAP;
      924    13209    2              END;
      925    13210        /*
      926    13211          Determine if this was a branch trace trap
      927    13212                                                                                      */
      928    13213    2           IF G$TSA.I.TRAP# = %G_FPRG_XBREAK# THEN DO;
      929    13214    2              P$ = G$TSA.B3$;
      930    13215    2              CALL GDU$SETUP_WINDOW_USER(P$,GD_DATA.GD.USERNO) ALTRET(BADXBRK);
      931    13216    2              GD_DATA.GD.XBRKINFO$ = P$->BVECT.PTR$;
      932    13217    2              CALL GDU$SETUP_WINDOW_USER(GD_DATA.GD.XBRKINFO$,GD_DATA.GD.USERNO)
      933    13218    3              WHENALTRETURN DO;
      934    13219    3   BADXBRK:
      935    13220    3                 CALL GDI$SEND_ERROR_RESPONSE(%GD#RSPBRKSIZ,MSGBFR,%GD#RSPBADXBREAK);
      936    13221    3                 GD_DATA.GD.STOPT = %G_YES#;
      937    13222    3                 GOTO CALLGDI;
PL6.E3A0      #005=GDB$FIRST_USER_TRAP File=GDB$BRKPNTS.:E05TSI                  TUE 07/29/97 21:24 Page:133
      938    13223    3                 END;
      939    13224    2              SIZE = %GD#RSPBRKSIZ;
      940    13225    2              GD$MSG.FNC = %GD#RSPBRK;
      941    13226    2              GD$MSG.BRKRSP.ADR$ = GD_DATA.GD.XBRKINFO$->VLP_XBREAK.IC$;
      942    13227    2              P$ = GD$MSG.BRKRSP.ADR$;
      943    13228    2              GD$MSG.BRKRSP.TSA$ = ADDR(G$TSA);
      944    13229    3              IF GD_DATA.GD.XBRKINFO$->VLP_XBREAK.TRAP# = %G_TRACE# THEN DO;
      945    13230    3                 IF GD_DATA.GD.XBRKINFO$->VLP_XBREAK.TC OR
      946    13231    3                    (GD_DATA.GD.XBRKINFO$->VLP_XBREAK.TT AND
      947    13232    4                     GD_DATA.GD.TRACE = %TRACE_XFERS) THEN DO;
      948    13233    4                    GD$MSG.FNC = %GD#RSPTRACE;
      949    13234    4                    GD$MSG.BRKRSP.ADR$ = P$;
      950    13235    4                    GD$MSG.BRKRSP.ADR_FROM$ =
      951    13236    4                       GD_DATA.GD.XBRKINFO$->VLP_XBREAK.OLDIC$;
      952    13237    4                    SIZE = %GD#RSPBRKSIZ;
      953    13238    4                    CALL GDI$SEND_RESPONSE(SIZE,MSGBFR);
      954    13239    4                    ALTRETURN;
      955    13240    4                    END;
      956    13241    3                 ELSE GD_DATA.GD.XBRKINFO$ -> VLP_XBREAK.TT = '0'B;
      957    13242    4                 CALL SRCHFORBRKPNT(BRK$,P$) WHENRETURN DO;
      958    13243    4                    BRKNUM = BRK$->BRKPNT.BRKNUM;
      959    13244    4                    GD$MSG.BRKRSP.TRAP# = BRKNUM;
      960    13245    4                    IF BRK$->BRKPNT.BYPASSCOUNT > 0 THEN
      961    13246    5                       IF BRK$->BRKPNT.CUR_BYPASSCOUNT > 0 THEN DO;
      962    13247    5                          BRK$->BRKPNT.CUR_BYPASSCOUNT = BRK$->BRKPNT.CUR_BYPASSCOUNT -
             13247                                   1;
      963    13248    5   JUSTKIDDING:
      964    13249    5                          GD_DATA.GD.XBRKINFO$->VLP_XBREAK.REPLACED.INSTR = BRK$->
             13249                                   BRKPNT.OLDINST;
      965    13250    5                          GD_DATA.GD.XBRKINFO$->VLP_XBREAK.GOBREAK = '1'B;
      966    13251    5                          G$TSA.P$ = PINCRW(G$TSA.P$,1);
      967    13252    5                          ALTRETURN;
      968    13253    5                          END;
      969    13254    4                       ELSE
      970    13255    4                          BRK$->BRKPNT.CUR_BYPASSCOUNT = BRK$->BRKPNT.BYPASSCOUNT;
      971    13256    4                    IF BRK$->BRKPNT.FLAGS.IFCOND THEN
      972    13257    5                       CALL CMPRIF(BRK$) WHENALTRETURN DO;
PL6.E3A0      #005=GDB$FIRST_USER_TRAP File=GDB$BRKPNTS.:E05TSI                  TUE 07/29/97 21:24 Page:134
      973    13258    5                          GOTO JUSTKIDDING;
      974    13259    5                          END;
      975    13260    4                    END;
      976    13261    4                 WHENALTRETURN DO;
      977    13262    4                    BRKNUM = %GD#MAXBRKNUM + 1;
      978    13263    4                    GD$MSG.BRKRSP.TRAP# = GD_DATA.GD.XBRKINFO$->VLP_XBREAK.TRAP# +
      979    13264    4                       %GD#MAXBRKNUM + 1;
      980    13265    4                    END;
      981    13266    3                 END;
      982    13267    2              ELSE GD$MSG.BRKRSP.TRAP# = BRKNUM;
      983    13268    2              GD$MSG.BRKRSP.DATA_SIZE = 0;
      984    13269    2              CALL GDI$SEND_RESPONSE(SIZE,MSGBFR);
      985    13270    2              GD_DATA.GD.STOPT = '1'B;
      986    13271    2              CALL GDB$RESET_BRKPNT;
      987    13272    2              GOTO CALLGDI;
      988    13273    2              END;
      989    13274    2           IF G$TSA.I.TRAP# = %GD#ENTRY_TRAP# AND G$TSA.INST ~= %GD#BREAK_INST THEN DO;
      990    13275    3              IF GD_DATA.GD.ONCALL THEN DO;
      991    13276    3                 P$ = G$TSA.P$;
      992    13277    3                 CALL SRCHFORBRKPNT(BRK$,P$)
      993    13278    4                   WHENRETURN DO;
      994    13279    4                     GD$MSG.BRKRSP.ADR_FROM$ = PINCRW(G$TSA.A$,-G$TSA.Z.IS);
      995    13280    4                     G$TSA.Z.IS = 0;
      996    13281    4                     BRKNUM = BRK$->BRKPNT.BRKNUM;
      997    13282    4                     GOTO CHECK_BYPASS;
      998    13283    4                     END;
      999    13284    3                 END;
     1000    13285    2              IF GD_DATA.GD.ONCALLS AND (PINCRW(G$TSA.A$,-G$TSA.Z.IS)->BITMEM&'FF80'X)
             13285                       =
     1001    13286    3                 %GD#LNJB6_INST THEN DO;
     1002    13287    3                 P$ = G$TSA.P$;
     1003    13288    3                 GD$MSG.BRKRSP.ADR_FROM$ = PINCRW(G$TSA.A$,-G$TSA.Z.IS);
     1004    13289    3                 BRKNUM = GD_DATA.GD.OC_BRKNUM;
     1005    13290    3                 BRK$=GD_DATA.GD.ONCALLS_BRK$;
     1006    13291    3                 GOTO CHECK_BYPASS;
     1007    13292    3                 END;
     1008    13293    3              IF GD_DATA.GD.TRACE ~= %TRACE_OFF THEN DO;
PL6.E3A0      #005=GDB$FIRST_USER_TRAP File=GDB$BRKPNTS.:E05TSI                  TUE 07/29/97 21:24 Page:135
     1009    13294    4                 DO CASE(GD_DATA.GD.TRACE);
     1010    13295    4                    CASE(%TRACE_CALLS);
     1011    13296    4                       P$ = PINCRW(G$TSA.A$,-G$TSA.Z.IS);
     1012    13297    4                       CALL GDU$SETUP_WINDOW_USER(P$,GD_DATA.GD.USERNO)
     1013    13298    5                       WHENALTRETURN DO;
     1014    13299    5                       IF (P$->BITMEM & 'FF80'X) ~= %GD#LNJB6_INST THEN
     1015    13300    5                          IF ADDR(GD_DATA.GD.VLD)->GH_VLD.STATUS < 0 THEN
     1016    13301    5                             GOTO NOTRACE;
     1017    13302    5                          END;
     1018    13303    4                    CASE(%TRACE_XFERS);
     1019    13304    4                       GOTO SENDTRACERSP;
     1020    13305    4                    CASE(ELSE);
     1021    13306    4                       GOTO NOTRACE;
     1022    13307        /*N* BAD TRACE VALUE */
     1023    13308    4                    END /* CASE */;
     1024    13309    3   SENDTRACERSP:
     1025    13310    3                 GD$MSG.FNC = %GD#RSPTRACE;
     1026    13311    3                 GD$MSG.BRKRSP.ADR$ = G$TSA.P$;
     1027    13312    3                 GD$MSG.BRKRSP.ADR_FROM$ = PINCRW(G$TSA.A$,-G$TSA.Z.IS);
     1028    13313    3                 G$TSA.ISA.REGS.M1.J = %G_ENABLE#;
     1029    13314    3                 SIZE = %GD#RSPBRKSIZ;
     1030    13315    3                 CALL GDI$SEND_RESPONSE(SIZE,MSGBFR);
     1031    13316    3                 ALTRETURN;
     1032    13317    3                 END /* CHECK TRACE */;
     1033    13318    2   NOTRACE:
     1034    13319    3              IF GD_DATA.GD.SOC AND (G$TSA.INST&'FF80'X)= %GD#LNJB6_INST THEN DO;
     1035    13320    3                 P$ = PINCRW(G$TSA.A$,-G$TSA.Z.IS);
     1036    13321    3                 GD_DATA.GD.SOC_BRKPNT.ADR$=PINCRW(G$TSA.A$,G$TSA.A$->MEMORY);
     1037    13322    4                 IF GD_DATA.GD.SOC_BRKPNT.ADR$ = GD_DATA.GD.STEP_BRKPNT.ADR$ AND G$TSA.
             13322                          A$->MEMORY ~= 1 THEN DO;
     1038    13323    4                    PTR$ = GD_DATA.GD.STEP_BRKPNT.ADR$;
     1039    13324    4                    CALL GDU$SETUP_WINDOW_USER(PTR$,GD_DATA.GD.USERNO);
     1040    13325    4                    PTR$->MEMORY = GD_DATA.GD.STEP_BRKPNT.OLDINST;
     1041    13326    4                    GD_DATA.GD.STEP_BRKPNT.ADR$ = PINCRW(G$TSA.A$,1);
     1042    13327    4                    PTR$ = GD_DATA.GD.STEP_BRKPNT.ADR$;
     1043    13328    4                    CALL GDU$SETUP_WINDOW_USER(PTR$,GD_DATA.GD.USERNO);
     1044    13329    4                    GD_DATA.GD.STEP_BRKPNT.OLDINST = PTR$->MEMORY;
PL6.E3A0      #005=GDB$FIRST_USER_TRAP File=GDB$BRKPNTS.:E05TSI                  TUE 07/29/97 21:24 Page:136
     1045    13330    4                    PTR$->BITMEM = %GD#BREAK_INST;
     1046    13331    4                    GD_DATA.GD.GO_AGAIN = '1'B;
     1047    13332    4                    END;
     1048    13333    3                 IF MON THEN
     1049    13334    3                    GD_DATA.GD.SOC_BRKPNT.USER# = 0;
     1050    13335    3                 ELSE
     1051    13336    3                    GD_DATA.GD.SOC_BRKPNT.USER# = GD_DATA.GD.USE_USERNO;
     1052    13337    3                 ADR$ = GD_DATA.GD.SOC_BRKPNT.ADR$;
     1053    13338    3                 PTR$ = ADR$;
     1054    13339    3                 GD_DATA.GD.SOC = '0'B;
     1055    13340    3                 CALL GDU$SETUP_WINDOW_USER(ADR$,GD_DATA.GD.SOC_BRKPNT.USER#)
     1056    13341    4                 WHENRETURN DO;
     1057    13342    4                    CALL SRCHFORBRKPNT (BRK$, PTR$)
     1058    13343    5                    WHENRETURN DO;
     1059    13344    5                        GD_DATA.GD.SOC_BRKPNT.OLDINST = BRK$->BRKPNT.OLDINST;
     1060    13345    5                       END;
     1061    13346    5                    WHENALTRETURN DO;
     1062    13347    5                         GD_DATA.GD.SOC_BRKPNT.OLDINST = ADR$->MEMORY;
     1063    13348    5                         ADR$->BITMEM = %GD#BREAK_INST;
     1064    13349    5                       END;
     1065    13350    4                    GD_DATA.GD.SOC_BRKPNT.FLAGS.ACTIVE = '1'B;
     1066    13351    4                    GD_DATA.GD.SOC_BRKPNT.FLAGS.ARMED = '1'B;
     1067    13352    4                    END;
     1068    13353    3                 ALTRETURN;
     1069    13354    3                 END;
     1070    13355        /* If this is a transfer while stepping and if the destination of */
     1071    13356        /* the transfer is in the range of start and end of the step then */
     1072    13357        /* just return to the trap handler */
     1073    13358    2              IF GD_DATA.GD.STEP_BRKPNT.FLAGS.ACTIVE AND
     1074    13359    2                GD_DATA.GD.STEP_BRKPNT.FLAGS.ARMED AND
     1075    13360    2                G$TSA.P >= GD_DATA.GD.STEP_BRKPNT.START AND
     1076    13361    3                G$TSA.P <= GD_DATA.GD.STEP_BRKPNT.ADR THEN DO;
     1077    13362    3                 G$TSA.ISA.REGS.M1.J = '1'B;
     1078    13363    3                 ALTRETURN;
     1079    13364    3                 END;
     1080    13365        /* If bypass is on and the P-counter points to the library */
     1081    13366        /* then just return to the trap handler */
PL6.E3A0      #005=GDB$FIRST_USER_TRAP File=GDB$BRKPNTS.:E05TSI                  TUE 07/29/97 21:24 Page:137
     1082    13367    2              P$ = G$TSA.P$;
     1083    13368    2              IF GD_DATA.GD.MODE = %GD#MODE_USER_DELTA THEN
     1084    13369    3                 IF G$JIT.SLIB# ~= 0 AND P > %GM_ISR6_BASE THEN DO;
     1085    13370    3                    G$TSA.ISA.REGS.M1.J = %G_ON#;
     1086    13371    3                    ALTRETURN;
     1087    13372    3                    END;
     1088    13373        /*
     1089    13374           If a branch trace trap occurs when there is no temporery breakpoint
     1090    13375           set, this is just cleanup from a past breakpoint (which was done
     1091    13376           above).  Just go back to the monitor trap handler.
     1092    13377                                                                                      */
     1093    13378    2   GETBRKNUM:
     1094    13379    2              IF NOT(GD_DATA.GD.STEP_BRKPNT.FLAGS.ACTIVE) THEN
     1095    13380    3              DO;
     1096    13381    3                 IF GD_DATA.GD.ONCALL OR GD_DATA.GD.ONCALLS THEN
     1097    13382    3                    G$TSA.ISA.REGS.M1.J = %G_ON#;
     1098    13383    3                 ALTRETURN;
     1099    13384    3                 END;
     1100    13385        /*
     1101    13386          We don't modify the P counter on branch trace traps caused by steps
     1102    13387                                                                                      */
     1103    13388    2              P$=G$TSA.P$;
     1104    13389        /*  If we transferred to a breakpoint, we can let it go and
     1105    13390           the breakpoint will cause a trap immediately                            */
     1106    13391    3              CALL SRCHFORBRKPNT(BRK$,P$) WHENRETURN DO;
     1107    13392    3                  ALTRETURN;
     1108    13393    3                  END;
     1109    13394    2              END;
     1110    13395    1           ELSE
     1111    13396    2           DO;
     1112    13397    2              P$=G$TSA.P$;
     1113    13398    2              IF P > G$TSA.Z.IS THEN
     1114    13399    2                 P = P - G$TSA.Z.IS;
     1115    13400        /*
     1116    13401          If this trap was a breakpoint trap, figure out which breakpoint
     1117    13402          caused us to trap
     1118    13403                                                                                      */
PL6.E3A0      #005=GDB$FIRST_USER_TRAP File=GDB$BRKPNTS.:E05TSI                  TUE 07/29/97 21:24 Page:138
     1119    13404    3              IF GD_DATA.GD.ALTRET_ADR$ ~= ADDR(NIL) THEN DO;
     1120    13405    3                    PTR$ = GD_DATA.GD.ALTRET_ADR$;
     1121    13406    3                 CALL GDU$SETUP_WINDOW_USER(PTR$,GD_DATA.GD.USERNO);
     1122    13407    3                 PTR$->MEMORY = GD_DATA.GD.ALTRET_INST;
     1123    13408    3                 IF GD_DATA.GD.ALTRET_ADR$ = GD_DATA.GD.SOC_BRKPNT.ADR$ THEN
     1124    13409    3                    GD_DATA.GD.SOC_BRKPNT = '0'B;
     1125    13410    3                 GD_DATA.GD.ALTRET_ADR$ = ADDR(NIL);
     1126    13411    3                 GD_DATA.GD.ALTRET_INST = 0;
     1127    13412    3                 END;
     1128    13413    2              IF G$TSA.I.TRAP# = %GD#ENTRY_TRAP# THEN
     1129    13414    2                 CALL SRCHFORBRKPNT(BRK$,P$)
     1130    13415    3                 WHENRETURN DO;
     1131    13416    3                    BRKNUM = BRK$->BRKPNT.BRKNUM;
     1132    13417    3   CHECK_BYPASS:    IF BRK$->BRKPNT.BYPASSCOUNT > 0 THEN
     1133    13418    4                       IF BRK$->BRKPNT.CUR_BYPASSCOUNT > 0 THEN DO;
     1134    13419    4                          G$TSA.P$ = P$;
     1135    13420    4                          BRK$->BRKPNT.CUR_BYPASSCOUNT = BRK$->BRKPNT.CUR_BYPASSCOUNT -
             13420                                   1;
     1136    13421    4   KEEPGOING:
     1137    13422    4                          P$ = BRK$->BRKPNT.ADR$;
     1138    13423    5                          IF P$ ~= ADDR(NIL) THEN DO;  /* not an ONCALLS */
     1139    13424    5                             CALL GDU$SETUP_WINDOW_USER(P$,GD_DATA.GD.USERNO)
     1140    13425    6                             WHENALTRETURN DO;
     1141    13426    6                                GOTO BLDBRKRSP;
     1142    13427    6                                END;
     1143    13428    5                             P$->MEMORY = BRK$->BRKPNT.OLDINST;
     1144    13429    5                             BRK$->BRKPNT.FLAGS.ARMED = '0'B;
     1145    13430    5                             G$TSA.P$ = P$;
     1146    13431    5                             END;
     1147    13432    4                          G$TSA.ISA.REGS.M1.J = %G_ON#;
     1148    13433    4                          ALTRETURN;
     1149    13434    4                          END;
     1150    13435    3                       ELSE
     1151    13436    3                          BRK$->BRKPNT.CUR_BYPASSCOUNT = BRK$->BRKPNT.BYPASSCOUNT;
     1152    13437    3                    IF BRK$->BRKPNT.FLAGS.IFCOND THEN
     1153    13438    4                       CALL CMPRIF(BRK$) WHENALTRETURN DO;
     1154    13439    5                          IF GD_DATA.GD.STEP_BRKPNT.FLAGS.ACTIVE THEN DO;
PL6.E3A0      #005=GDB$FIRST_USER_TRAP File=GDB$BRKPNTS.:E05TSI                  TUE 07/29/97 21:24 Page:139
     1155    13440    5                             GD_DATA.GD.STEP_BRKPNT.FLAGS.BRKNUM_SAVED = '1'B;
     1156    13441    5                             GD_DATA.GD.STEP_BRKPNT.OLD_BRKNUM = BRKNUM;
     1157    13442    5                             BRKNUM = 0;
     1158    13443    5                             GOTO BLDBRKRSP;
     1159    13444    5                             END;
     1160    13445    4                          GOTO KEEPGOING;
     1161    13446    4                          END;
     1162    13447    3                    END;
     1163    13448    3                 WHENALTRETURN DO;
     1164    13449    3                    BRKNUM = %GD#MAXBRKNUM + 1;
     1165    13450    3                    END;
     1166    13451    2              END;
     1167    13452        /*
     1168    13453          If we get to this point we'll take the damm trap.  Setup the TSA
     1169    13454          P counter so we can restart
     1170    13455                                                                                      */
     1171    13456    1   BLDBRKRSP:
     1172    13457    2           IF GD_DATA.GD.GO_AGAIN AND P$ = GD_DATA.GD.STEP_BRKPNT.ADR$ THEN DO;
     1173    13458    2              PTR$ = GD_DATA.GD.STEP_BRKPNT.ADR$;
     1174    13459    2              CALL GDU$SETUP_WINDOW_USER(PTR$,GD_DATA.GD.USERNO);
     1175    13460    2              PTR$->MEMORY = GD_DATA.GD.STEP_BRKPNT.OLDINST;
     1176    13461    2              G$TSA.ISA.REGS.M1.J = %G_ON#;
     1177    13462    2              GD_DATA.GD.STEP_BRKPNT.OLDINST = 0;
     1178    13463    2              GD_DATA.GD.STEP_BRKPNT.ADR$ = ADDR(NIL);
     1179    13464    2              GD_DATA.GD.GO_AGAIN = '0'B;
     1180    13465    2              G$TSA.P$ = P$;
     1181    13466    2              ALTRETURN;
     1182    13467    2              END;
     1183    13468    1           G$TSA.P$=P$;
     1184    13469    1           G$TSA.Z.IS=0;
     1185    13470        /*
     1186    13471          Setup a break responce message to send to the host
     1187    13472                                                                                      */
     1188    13473    1           SIZE=%GD#RSPBRKSIZ;
     1189    13474    1           GD$MSG.FNC=%GD#RSPBRK;
     1190    13475        /*
     1191    13476          If we trapped pass back the trap number, otherwise pass back the
PL6.E3A0      #005=GDB$FIRST_USER_TRAP File=GDB$BRKPNTS.:E05TSI                  TUE 07/29/97 21:24 Page:140
     1192    13477          break number
     1193    13478                                                                                      */
     1194    13479    1           IF G$TSA.I.TRAP# ~= %GD#ENTRY_TRAP#
     1195    13480    1           THEN                            /* Genuine trap, add offset to tell   */
     1196    13481    1              GD$MSG.BRKRSP.TRAP# = G$TSA.I.TRAP# + %GD#MAXBRKNUM +1;
     1197    13482    2           ELSE DO;                        /* Some breakpoint                    */
     1198    13483    2              IF BRKNUM>%GD#MAXBRKNUM THEN
     1199    13484    2                 GD$MSG.BRKRSP.BRK#=0;
     1200    13485    2              ELSE
     1201    13486    2                 GD$MSG.BRKRSP.BRK#=BRKNUM;
     1202    13487    2              END;
     1203    13488        /*
     1204    13489          Setup the rest of the responce
     1205    13490                                                                                      */
     1206    13491    1           GD$MSG.BRKRSP.TSA$=ADDR(G$TSA);
     1207    13492    1           IF G$JIT.SPROC#=0 THEN
     1208    13493    1              GD$MSG.BRKRSP.SHARED=%G_NO#;
     1209    13494    1           ELSE
     1210    13495    1              GD$MSG.BRKRSP.SHARED=%G_YES#;
     1211    13496        /*N*    GD$MSG.BRKRSP.FINAL = G$ROS.U_ECCB$->G$ECCB.FLAGS.XCONP; */
     1212    13497    1           GD$MSG.BRKRSP.ADR$=P$;
     1213    13498    1           GD$MSG.BRKRSP.USER#=GD_DATA.GD.USERNO;
     1214    13499    1           IF GD_DATA.GD.STEP_BRKPNT.FLAGS.BRKNUM_SAVED THEN
     1215    13500    1              BRKNUM = GD_DATA.GD.STEP_BRKPNT.OLD_BRKNUM;
     1216    13501    1           ERRCODE_SCRATCH=GHB_TRAP_MSG;
     1217    13502    1           IF G$TSA.I.TRAP# = %G_FPRG_XCON#
     1218    13503    1           THEN ERRCODE_SCRATCH = G$JIT.ERR;
     1219    13504    1           ELSE ERRCODE_SCRATCH.ERR#=ERRCODE_SCRATCH.ERR# + G$TSA.I.TRAP#;
     1220    13505    1           GD$MSG.BRKRSP.ERRCODE=ERRCODE_SCRATCH;
     1221    13506        /*
     1222    13507          Pass back a chunk of memory starting at the current P-counter.
     1223    13508          This will allow DELTA to display the instruction where we stopped
     1224    13509          without making a request for the data there.
     1225    13510        */
     1226    13511    1           GD_DATA.GD.STOPT=%G_YES#;
     1227    13512    1           CALL GDB$RESET_BRKPNT;
     1228    13513    1           DSIZE = 16;
PL6.E3A0      #005=GDB$FIRST_USER_TRAP File=GDB$BRKPNTS.:E05TSI                  TUE 07/29/97 21:24 Page:141
     1229    13514    2           CALL GDM$GRAB16(ADDR(GD$MSG.BRKRSP.DATA),P$,DSIZE) WHENALTRETURN DO;
     1230    13515    2              DSIZE = 0;
     1231    13516    2              END /* WHENALTRETURN */;
     1232    13517    1           GD$MSG.BRKRSP.DATA_SIZE = DSIZE;
     1233    13518        /*
     1234    13519          Indicate we are stopped and send the break responce to the host
     1235    13520                                                                                      */
     1236    13521    1           CALL GDI$SEND_RESPONSE(SIZE,MSGBFR);
     1237    13522        /*
     1238    13523          Yank all the breaks
     1239    13524                                                                                      */
     1240    13525        /*
     1241    13526          At this point, we call the routine that handles the completed
     1242    13527          messages put together by the standalone async handler.  He will
     1243    13528          continue to process commands and not return to us till the user has typed
     1244    13529          GO.  When he does return, GD_DATA.GD.STEPCNT and GD_DATA.GD.ABSADDR will be setup
     1245    13530          to reflect whether or not the user has stepped or specified a
     1246    13531          go address.  Note that P$ is allready setup if nothing is specified.
     1247    13532                                                                                      */
     1248    13533    1   CALLGDI:
     1249    13534    2           CALL GDI$DECODE_MSG_WAIT_4_GO WHENALTRETURN DO;
     1250    13535    2              GD_DATA.GD.TRACE = 0;
     1251    13536    2              GD_DATA.GD.STEP_BRKPNT = '0'B;
     1252    13537    2              GD_DATA.GD.SOC_BRKPNT = '0'B;
     1253    13538    2              GD_DATA.GD.DYNSP$ = ADDR(GD_DATA.MYSPACE(0));
     1254    13539    2              GD_DATA.MYSPACE = '0'B;
     1255    13540    2              GOTO STARTOVER;
     1256    13541    2              END;
     1257    13542        /*
     1258    13543          If we got a temporary breakpoint, disable it here (its only used once).
     1259    13544                                                                                      */
     1260    13545    2           IF GD_DATA.GD.GOTRAP AND BRKNUM>0 AND BRKNUM < %GD#MAXBRKNUM THEN DO;
     1261    13546    2              SIZE = %GD#RSPBRKSIZ;
     1262    13547    2              CALL GDI$SEND_ERROR_RESPONSE(SIZE,GD$MSG,%GD#RSPNOTUSERTRAP);
     1263    13548    2              GD_DATA.GD.STOPT = %G_YES#;
     1264    13549    2              GOTO CALLGDI;
     1265    13550    2              END;
PL6.E3A0      #005=GDB$FIRST_USER_TRAP File=GDB$BRKPNTS.:E05TSI                  TUE 07/29/97 21:24 Page:142
     1266    13551    1           GD_DATA.GD.STEP_BRKPNT.FLAGS='0'B;
     1267    13552    1           GD_DATA.GD.STEP_BRKPNT.OLD_BRKNUM = 0;
     1268    13553    1           GD_DATA.GD.GO_AGAIN = '0'B;
     1269    13554    2           IF G$TSA.I.TRAP# = %G_FPRG_XBREAK# THEN DO;
     1270    13555    2              GD_DATA.GD.XBRKINFO$->VLP_XBREAK.GOIC = '0'B;
     1271    13556    2              GD_DATA.GD.XBRKINFO$->VLP_XBREAK.GOBREAK = '0'B;
     1272    13557    2              END;
     1273    13558        /* */
     1274    13559    1           IF GD_DATA.GD.ABSADDR ~= ADDR(NIL) THEN
     1275    13560    2           DO;
     1276    13561    3              IF G$TSA.I.TRAP# = %G_FPRG_XBREAK# THEN DO;
     1277    13562    3                 GD_DATA.GD.XBRKINFO$->VLP_XBREAK.GOIC = '1'B;
     1278    13563    3                 GD_DATA.GD.XBRKINFO$->VLP_XBREAK.IC$ = GD_DATA.GD.ABSADDR;
     1279    13564    3                 END;
     1280    13565    2              ELSE
     1281    13566    2                  G$TSA.P$=GD_DATA.GD.ABSADDR;
     1282    13567    2              GD_DATA.GD.ABSADDR=ADDR(NIL);
     1283    13568    2              END;
     1284    13569    1           IF GD_DATA.GD.STEPCNT~=0 THEN
     1285    13570    2           DO;
     1286    13571        /*
     1287    13572          Setup a temporary breakpoint for stepping
     1288    13573                                                                                      */
     1289    13574    2              IF MON THEN
     1290    13575    2                 GD_DATA.GD.STEP_BRKPNT.USER# = 0;
     1291    13576    2              ELSE
     1292    13577    2                 GD_DATA.GD.STEP_BRKPNT.USER# = GD_DATA.GD.USE_USERNO;
     1293    13578    3              IF G$TSA.I.TRAP# = %G_FPRG_XBREAK# THEN DO;
     1294    13579    3                  GD_DATA.GD.STEP_BRKPNT.START$ = GD_DATA.GD.XBRKINFO$->VLP_XBREAK.IC$;
     1295    13580    3                  GD_DATA.GD.STEP_BRKPNT.ADR$ = PINCRW(GD_DATA.GD.STEP_BRKPNT.START$,
             13580                           GD_DATA.GD.STEPCNT);
     1296    13581    3                 END;
     1297    13582    3              ELSE DO;
     1298    13583    3                   PTR$ = G$TSA.P$;
     1299    13584    3                   CALL GDU$SETUP_WINDOW_USER(PTR$,GD_DATA.GD.STEP_BRKPNT.USER#);
     1300    13585    3                   IF PTR$->BITMEM = %GD#LNJB5_INST AND GD_DATA.GD.STEPCNT= 3 THEN
     1301    13586    3                      GD_DATA.GD.STEPCNT = GD_DATA.GD.STEPCNT+1;
PL6.E3A0      #005=GDB$FIRST_USER_TRAP File=GDB$BRKPNTS.:E05TSI                  TUE 07/29/97 21:24 Page:143
     1302    13587    4                   IF PTR$->BITMEM = %GD#MCL_INST OR (PTR$->BITMEM = %GD#LNJB6_INST AND
             13587                            GD_DATA.GD.SOC) THEN DO;
     1303    13588    4                     GD_DATA.GD.STEP_BRKPNT.ADR$=PINCRW(G$TSA.P$,GD_DATA.GD.STEPCNT+1);
     1304    13589    4                     OFFSET=PINCRW(G$TSA.P$,GD_DATA.GD.STEPCNT)->SMEMORY;
     1305    13590    4                     IF PTR$->BITMEM = %GD#MCL_INST THEN
     1306    13591    4                        GD_DATA.GD.ALTRET_ADR$ = PINCRW(G$TSA.P$,GD_DATA.GD.STEPCNT+
             13591                                 OFFSET+1);
     1307    13592    4                     ELSE
     1308    13593    4                        GD_DATA.GD.ALTRET_ADR$ = PINCRW(G$TSA.P$,GD_DATA.GD.STEPCNT+
             13593                                 OFFSET);
     1309    13594    4                     PTR$ = GD_DATA.GD.ALTRET_ADR$;
     1310    13595    4                     CALL GDU$SETUP_WINDOW_USER(PTR$,GD_DATA.GD.STEP_BRKPNT.USER#);
     1311    13596    4                     GD_DATA.GD.ALTRET_INST=PTR$->MEMORY;
     1312    13597    4                     PTR$->BITMEM = %GD#BREAK_INST;
     1313    13598    4                     END;
     1314    13599    3                   ELSE
     1315    13600    3                     GD_DATA.GD.STEP_BRKPNT.ADR$=PINCRW(G$TSA.P$,GD_DATA.GD.STEPCNT);
     1316    13601    3                   GD_DATA.GD.STEP_BRKPNT.START$ = G$TSA.P$;
     1317    13602    3                 END;
     1318    13603    2              IF MON THEN
     1319    13604    2                 GD_DATA.GD.STEP_BRKPNT.USER#=0;
     1320    13605    2              ELSE
     1321    13606    2                 GD_DATA.GD.STEP_BRKPNT.USER#=GD_DATA.GD.USE_USERNO;
     1322    13607    2              ADR$=GD_DATA.GD.STEP_BRKPNT.ADR$;
     1323    13608    2              P$=GD_DATA.GD.STEP_BRKPNT.ADR$;
     1324    13609    2              CALL GDU$SETUP_WINDOW_USER (ADR$,GD_DATA.GD.STEP_BRKPNT.USER#)
     1325    13610    3              WHENRETURN DO;
     1326    13611    3                 CALL SRCHFORBRKPNT (BRK$, P$)
     1327    13612    4                 WHENRETURN DO;
     1328    13613    4                     GD_DATA.GD.STEP_BRKPNT.OLDINST = BRK$->BRKPNT.OLDINST;
     1329    13614    4                   END;
     1330    13615    4                 WHENALTRETURN DO;
     1331    13616    4                     GD_DATA.GD.STEP_BRKPNT.OLDINST=ADR$->MEMORY;
     1332    13617    4                     ADR$->BITMEM=%GD#BREAK_INST;
     1333    13618    4                   END;
     1334    13619    3                 GD_DATA.GD.STEP_BRKPNT.FLAGS.ACTIVE='1'B;
     1335    13620    3                 GD_DATA.GD.STEP_BRKPNT.FLAGS.ARMED='1'B;
PL6.E3A0      #005=GDB$FIRST_USER_TRAP File=GDB$BRKPNTS.:E05TSI                  TUE 07/29/97 21:24 Page:144
     1336    13621    3                 END;
     1337    13622    2              GD_DATA.GD.STEPCNT=0;
     1338    13623    2              IF G$TSA.I.TRAP# = %G_FPRG_XBREAK#
     1339    13624    2              THEN GD_DATA.GD.XBRKINFO$->VLP_XBREAK.TT = '1'B;
     1340    13625    2              G$TSA.ISA.REGS.M1.J=%G_ENABLE#;
     1341    13626                 /* Make sure we get the right old inst if other kinds of brkpnts are set */
     1342    13627    2              IF GD_DATA.GD.ALTRET_ADR$ ~= ADDR(NIL) THEN
     1343    13628    2                 IF GD_DATA.GD.ALTRET_ADR$ = GD_DATA.GD.STEP_BRKPNT.ADR$ THEN
     1344    13629    2                    GD_DATA.GD.STEP_BRKPNT.OLDINST = GD_DATA.GD.ALTRET_INST;
     1345    13630    2              END;
     1346    13631        /*
     1347    13632          If we are continuing from a normal breakpoint (not a step), we
     1348    13633          need to execute the instruction that was supposed to be here.
     1349    13634          To do this we will put it back in memory now and replace it either
     1350    13635          at the next breakpoint or when we get the branch trace we are
     1351    13636          going to setup here
     1352    13637                                                                                      */
     1353    13638    2           IF BRKNUM > 0 AND BRKNUM <= %GD#MAXBRKNUM THEN DO;
     1354    13639    2                 IF G$TSA.I.TRAP# = %G_FPRG_XBREAK#
     1355    13640    2               AND GD_DATA.GD.XBRKINFO$->VLP_XBREAK.GOIC = '0'B
     1356    13641    3                 THEN DO;
     1357    13642                          /* Tell the interpreter that it is to execute REPLACED.INSTR
     1358    13643                             and GO                                                */
     1359    13644    3                     GD_DATA.GD.XBRKINFO$->VLP_XBREAK.GOBREAK = '1'B;
     1360    13645    3                     ADR$ = GD_DATA.GD.XBRKINFO$->VLP_XBREAK.IC$;
     1361    13646    3                     END;
     1362    13647    2                 ELSE ADR$ = G$TSA.P$;
     1363    13648    2                 CALL SRCHFORBRKPNT (BRK$, ADR$)
     1364    13649    3                 WHENRETURN DO;
     1365    13650    3                      IF BRK$->BRKPNT.FLAGS.ACTIVE AND
     1366    13651    4                        ADR$=BRK$->BRKPNT.ADR$ THEN DO;
     1367    13652    4                         IF ((GD$MSG.SUBFB.INTERPRETIVE) AND (G$TSA.I.TRAP# = %
             13652                                  G_FPRG_XBREAK#)
     1368    13653    5                           AND (GD_DATA.GD.XBRKINFO$->VLP_XBREAK.GOBREAK)) THEN DO;
     1369    13654    5                            GD_DATA.GD.XBRKINFO$->VLP_XBREAK.REPLACED.INSTR =
     1370    13655    5                             BRK$->BRKPNT.OLDINST;
     1371    13656    5                            END;
PL6.E3A0      #005=GDB$FIRST_USER_TRAP File=GDB$BRKPNTS.:E05TSI                  TUE 07/29/97 21:24 Page:145
     1372    13657    5                         ELSE DO;
     1373    13658    5                            ADR$=BRK$->BRKPNT.ADR$;
     1374    13659    5                            CALL GDU$SETUP_WINDOW_USER (ADR$,BRK$->BRKPNT.USER#)
     1375    13660    6                            WHENRETURN DO;
     1376    13661    6                               ADR$->MEMORY=BRK$->BRKPNT.OLDINST;
     1377    13662    6                               BRK$->BRKPNT.FLAGS.ARMED = '0'B;
     1378    13663    6                               GD_DATA.GD.BRKNUM=BRKNUM;
     1379    13664    6                               G$TSA.ISA.REGS.M1.J=%G_ENABLE#;
     1380    13665    6                               END;
     1381    13666    5                            END;
     1382    13667    4                         END;
     1383    13668    3                   END;
     1384    13669    2                END;
     1385    13670    1           IF G$TSA.I.TRAP# = %G_FPRG_XBREAK#
     1386    13671    2           THEN DO;
     1387    13672    2                G$TSA.P$ = PINCRW(G$TSA.P$,1);
     1388    13673    2                IF BRKNUM = 0
     1389    13674    2                THEN GD_DATA.GD.XBRKINFO$->VLP_XBREAK.GOBREAK = '0'B;
     1390    13675    2              END;
     1391    13676        /*
     1392    13677          Restore the monitors window segment descriptor, since we probably
     1393    13678          trashed it along the way
     1394    13679                                                                                      */
     1395    13680    1           IF GD_DATA.GD.MODE=%GD#MODE_XDELTA THEN
     1396    13681    1              %ASDT_WINDOW#=GD_DATA.GD.WINDOWSEG;
     1397    13682        /*
     1398    13683          If the user specified GOTRAP, setup the S reg to tell the debugger
     1399    13684          this is what the user has specified, and do a normal return to the
     1400    13685          trap handler.
     1401    13686                                                                                      */
     1402    13687    1           IF GD_DATA.GD.TRACE ~= 0 OR GD_DATA.GD.ONCALL OR GD_DATA.GD.ONCALLS
     1403    13688    2           THEN DO;
     1404    13689    2                IF G$TSA.I.TRAP# = %G_FPRG_XBREAK#
     1405    13690    2                THEN GD_DATA.GD.XBRKINFO$ -> VLP_XBREAK.TT = '1'B;
     1406    13691    2                ELSE G$TSA.ISA.REGS.M1.J = '1'B;
     1407    13692    2             END;
     1408    13693        /* If post-associating FPL, set trap to XBREAK to tell the
PL6.E3A0      #005=GDB$FIRST_USER_TRAP File=GDB$BRKPNTS.:E05TSI                  TUE 07/29/97 21:24 Page:146
     1409    13694           interpreter that a debugger is present.
     1410    13695        */
     1411    13696    1           IF GD$MSG.SUBFB.POSTASSOC THEN
     1412    13697    1              G$TSA.I.TRAP# = %G_FPRG_XBREAK#;
     1413    13698    1           IF GD_DATA.GD.GOTRAP THEN
     1414    13699    2           DO;
     1415    13700        /* No need to check for a trap handler if this is XDELTA. */
     1416    13701    2              IF GD_DATA.GD.MODE = %GD#MODE_XDELTA THEN
     1417    13702    2                 GOTO GOTRAP;
     1418    13703    2              TRAP_NO = G$TSA.I.TRAP#;
     1419    13704    2              IF G$TSA.I.TRAP# <=%G_SIP_QLT# THEN
     1420    13705    2                 IF G$ROS.U_ECCB$->G$ECCB.TRAP$=ENTADDR(NIL)
     1421    13706    2                 OR G$ROS.U_ECCB$->G$ECCB.FLTFLGS(G$TSA.I.TRAP#)='0'B THEN
     1422    13707    2                    GOTO NO_HAND;
     1423    13708    2                 ELSE
     1424    13709    2                    GOTO GOTRAP;
     1425    13710    2              IF G$TSA.I.TRAP# >= %G_FPRG_EXIT# AND G$TSA.I.TRAP#<=%G_FPRG_XXX# THEN
     1426    13711    2                 TRAP_NO=%G_FPRG_XCON#;
     1427    13712    2              IF G$TSA.I.TRAP#=%G_HOST_INT# THEN
     1428    13713    2                 TRAP_NO=%G_FPRG_BRK#;
     1429    13714    2              IF TRAP_NO < %G_FPRG_EVENT# OR TRAP_NO > %G_FPRG_MCLTRAP# THEN
     1430    13715    2                 GOTO GOTRAP;
     1431    13716    3              IF G$ROS.U_ECCB$->G$ECCB_ARRAYED.HAND$(TRAP_NO-%G_FPRG_EVENT#)=ENTADDR(
             13716                       NIL) THEN DO;
     1432    13717    3                 SIZE=%GD#RSPBRKSIZ;
     1433    13718    3   NO_HAND:      CALL GDI$SEND_ERROR_RESPONSE(SIZE,GD$MSG,%GD#RSPNOTRAPHAND);
     1434    13719    3                 GD_DATA.GD.STOPT = %G_YES#;
     1435    13720    3                 GOTO CALLGDI;
     1436    13721    3                 END;
     1437    13722    3              ELSE DO;
     1438    13723    3   GOTRAP:       G$TSA.ISA.S='0'B;
     1439    13724    3                 RETURN;
     1440    13725    3                 END;
     1441    13726    2              END;
     1442    13727    1           ALTRETURN;
     1443    13728    1   SRCHFORBRKPNT: PROC(BRK$,ADR$) ALTRET;
     1444    13729
PL6.E3A0      #005=GDB$FIRST_USER_TRAP File=GDB$BRKPNTS.:E05TSI                  TUE 07/29/97 21:24 Page:147
     1445    13730        /**/
     1446    13731        /* Parameters */
     1447    13732        /**/
     1448    13733
     1449    13734    2   DCL BRK$ PTR;
     1450    13735    2   DCL ADR$ PTR;
     1451    13736
     1452    13737    2           BRK$ = ADDR(GD_DATA.MYSPACE(0));
     1453    13738    2           IF BRK$ = GD_DATA.GD.DYNSP$ THEN ALTRETURN;
     1454    13739    3           DO WHILE BRK$ ~= ADDR(NIL);
     1455    13740    4              IF BRK$->BRKPNT.ADR$ = ADR$ THEN DO;
     1456    13741    4                 GD_DATA.GD.BRK$ = BRK$;
     1457    13742    4                 GD_DATA.GD.BRKNUM = BRK$->BRKPNT.BRKNUM;
     1458    13743    4                 BRKNUM = GD_DATA.GD.BRKNUM;
     1459    13744    4                 RETURN;
     1460    13745    4                 END;
     1461    13746    3              ELSE BRK$ = BRK$->BRKPNT.FLINK$;
     1462    13747    3              END;
     1463    13748    2           ALTRETURN;
     1464    13749
     1465    13750    2   END SRCHFORBRKPNT;
     1466    13751        %EJECT;
PL6.E3A0      #005=GDB$FIRST_USER_TRAP File=GDB$BRKPNTS.:E05TSI                  TUE 07/29/97 21:24 Page:148
     1467    13752    1   CMPRIF: PROC(BRK$) ALTRET;
     1468    13753
     1469    13754        /**/
     1470    13755        /* Parameters */
     1471    13756        /**/
     1472    13757
     1473    13758    2   DCL BRK$ PTR;
     1474    13759
     1475    13760        /**/
     1476    13761        /* Arguments */
     1477    13762        /**/
     1478    13763
     1479    13764    2   DCL DESC$ PTR;
     1480    13765    2   DCL ADR$ PTR;
     1481    13766    2   DCL DD_ADDRESS UBIN (32);
     1482    13767    2   DCL DD_IS_PTR BIT(1) ALIGNED;
     1483    13768    2   DCL ARRAY_CUR UBIN;
     1484    13769    2   DCL ARRAY_HIGH UBIN;
     1485    13770    2   DCL ARRAY_FIRST BIT(1) ALIGNED;
     1486    13771    2   DCL DD_BITSIZE UBIN;
     1487    13772    2   DCL BITOFF UBIN;
     1488    13773    2   DCL DSIZE UBIN;
     1489    13774    2   DCL DD_SEG UBIN WORD;
     1490    13775    2   DCL DD_DESC# UBIN WORD;
     1491    13776    2   DCL DD_NOT_IS BIT(1) ALIGNED;
     1492    13777
     1493    13778        /**/
     1494    13779        /* Local Vars */
     1495    13780        /**/
     1496    13781
     1497    13782    2   DCL VALS SBIN(32);
     1498    13783    2   DCL VALS_(0:31) REDEF VALS BIT(1) UNAL;
     1499    13784    2   DCL VALU REDEF VALS UBIN(32);
     1500    13785    2   DCL VALP$ REDEF VALS PTR;
     1501    13786    2   DCL 1 VALP REDEF VALS,
     1502    13787    2         2 C BIT(1) UNAL,
     1503    13788    2         2 * BIT(11) UNAL,
PL6.E3A0      #005=GDB$FIRST_USER_TRAP File=GDB$BRKPNTS.:E05TSI                  TUE 07/29/97 21:24 Page:149
     1504    13789    2         2 W UBIN(20) UNAL;
     1505    13790    2   DCL VALP_(0:31) REDEF VALS BIT(1) UNAL;
     1506    13791    2   DCL VALB(0:1) BIT(32);
     1507    13792    2   DCL VALB_(0:63) REDEF VALB BIT(1) UNAL;
     1508    13793    2   DCL VALC CHAR(63);
     1509    13794    2   DCL VALC_(0:62) REDEF VALC CHAR(1);
     1510    13795    2   DCL I UBIN;
     1511    13796    2   DCL CONSTPTR$ PTR;
     1512    13797    2   DCL 1 CONSTPTR REDEF CONSTPTR$,
     1513    13798    2         2 C BIT(1) UNAL,
     1514    13799    2         2 * BIT(11) UNAL,
     1515    13800    2         2 W BIT(20) UNAL;
     1516    13801
     1517    13802        /**/
     1518    13803        /* Based Vars */
     1519    13804        /**/
     1520    13805
     1521    13806    2   DCL 1 B$BYTES BASED CALIGNED,
     1522    13807    2         2 B(0:0) CHAR(1);
     1523    13808    2   DCL 1 B$BITS BASED ALIGNED,
     1524    13809    2         2 B(0:0) BIT(1) UNAL;
     1525    13810
     1526    13811    2           GD_DATA.MISC.DESC$ = BRK$->IFBRKPNT.IFCOND.DD$;
     1527    13812    2           ARRAY_FIRST = '0'B;
     1528    13813    2           ARRAY_CUR = 0;
     1529    13814    2           ARRAY_HIGH = 0;
     1530    13815    2           SIZE = %GD#RSPBRKSIZ;
     1531    13816    2           CALL GDK$RESADDR (ARRAY_FIRST,ARRAY_CUR,ARRAY_HIGH,
     1532    13817    2              DD_SEG,DD_DESC#,DD_ADDRESS,DD_BITSIZE,
     1533    13818    3              BITOFF,DD_NOT_IS,DD_IS_PTR) WHENALTRETURN DO;
     1534    13819    3              CALL GDI$SEND_ERROR_RESPONSE(SIZE,MSGBFR,%GD#RSPBADADR);
     1535    13820    3              RETURN;
     1536    13821    3              END /* WHENALTRETURN */;
     1537    13822    2           CALL GDK$MPTR (ADR$,DD_ADDRESS,DD_SEG,DD_DESC#,DD_NOT_IS,
     1538    13823    2                          DD_IS_PTR,DSIZE);
     1539    13824    3           CALL GDU$SETUP_WINDOW_USER(ADR$,GD_DATA.GD.USERNO) WHENALTRETURN DO;
     1540    13825    3              IF ADDR(GD_DATA.GD.VLD)->GH_VLD.STATUS < 0 THEN RETURN;
PL6.E3A0      #005=GDB$FIRST_USER_TRAP File=GDB$BRKPNTS.:E05TSI                  TUE 07/29/97 21:24 Page:150
     1541    13826    3              END;
     1542    13827
     1543    13828        /* Put value where it can be easily?? used later */
     1544    13829
     1545    13830    3           DO CASE(BRK$->IFBRKPNT.IFCOND.CTYPE);
     1546    13831    3              CASE(3); /* VALUE */
     1547    13832    3                 IF DD_BITSIZE > 32 THEN RETURN;
     1548    13833    3                 VALS = 0;
     1549    13834    4                 DO I = BITOFF TO BITOFF + DD_BITSIZE - 1;
     1550    13835    4                    VALS_(I-BITOFF+32-DD_BITSIZE) = ADR$->B$BITS.B(I);
     1551    13836    4                    END;
     1552    13837    3              CASE(1); /* CHAR */
     1553    13838    3                 IF DD_BITSIZE/8 > 63 THEN RETURN;
     1554    13839    3                 VALC = ' ';
     1555    13840    4                 DO I = (BITOFF/8) TO (DD_BITSIZE/8 + BITOFF/8 - 1);
     1556    13841    4                    VALC_(I-BITOFF/8) = ADR$->B$BYTES.B(I);
     1557    13842    4                    END;
     1558    13843    3              CASE(5); /* DECVALUE */
     1559    13844    3                 VALB = '0'B;
     1560    13845    3                 RETURN;
     1561    13846    3              CASE(2); /* BIT */
     1562    13847    3                 IF DD_BITSIZE > 64 THEN RETURN;
     1563    13848    4                 ELSE DO I = BITOFF TO DD_BITSIZE + BITOFF - 1;
     1564    13849    4                    VALB_(I-BITOFF) = ADR$->B$BITS.B(I);
     1565    13850    4                    END;
     1566    13851    3              CASE(4); /* PTR */
     1567    13852    3                 CONSTPTR$ = ADDR(NIL);
     1568    13853    3                 CONSTPTR.C = BRK$->IFBRKPNT.IFCOND.CONS$TANT.PNTR.C;
     1569    13854    3                 CONSTPTR.W = BRK$->IFBRKPNT.IFCOND.CONS$TANT.PNTR.W;
     1570    13855    3                 VALP$ = ADDR(NIL);
     1571    13856    4                 DO I = BITOFF TO DD_BITSIZE + BITOFF - 1;
     1572    13857    4                    VALP_(I-BITOFF) = ADR$->B$BITS.B(I);
     1573    13858    4                    END;
     1574    13859    3              CASE(ELSE);
     1575    13860    3                 RETURN;
     1576    13861    3              END /* CASE */;
     1577    13862
PL6.E3A0      #005=GDB$FIRST_USER_TRAP File=GDB$BRKPNTS.:E05TSI                  TUE 07/29/97 21:24 Page:151
     1578    13863        /* Do the comparison */
     1579    13864
     1580    13865    3           DO CASE(BRK$->IFBRKPNT.IFCOND.CTYPE);
     1581    13866    3              CASE(1); /* CHAR */
     1582    13867    4                 IF BRK$->IFBRKPNT.IFCOND.COND = 6 /* EQUALS */ THEN DO;
     1583    13868    5                    DO I = 0 TO BRK$->IFBRKPNT.IFCOND.CONS$TANT.SIZE - 1;
     1584    13869    5                       IF VALC_(I) = BRK$->IFBRKPNT.IFCOND.CONS$TANT.TEXT.CHR(I) THEN;
     1585    13870    5                       ELSE ALTRETURN;
     1586    13871    5                       END;
     1587    13872    4                     RETURN;
     1588    13873    4                     END;
     1589    13874    4                 ELSE IF BRK$->IFBRKPNT.IFCOND.CTYPE = 5 /* ~EQUAL */ THEN DO;
     1590    13875    5                    DO I = 0 TO BRK$->IFBRKPNT.IFCOND.CONS$TANT.SIZE - 1;
     1591    13876    5                       IF VALC_(I) ~= BRK$->IFBRKPNT.IFCOND.CONS$TANT.TEXT.CHR(I) THEN
     1592    13877    5                          RETURN;
     1593    13878    5                       END;
     1594    13879    4                    ALTRETURN;
     1595    13880    4                    END;
     1596    13881    3                 ELSE RETURN;
     1597    13882    3              CASE(2); /* BIT */
     1598    13883    4                 IF BRK$->IFBRKPNT.IFCOND.COND = 6 /* EQUALS */ THEN DO;
     1599    13884    5                    DO I = 0 TO BRK$->IFBRKPNT.IFCOND.CONS$TANT.SIZE - 1;
     1600    13885    5                       IF VALB_(I) = BRK$->IFBRKPNT.IFCOND.CONS$TANT.BITS.TRING(I) THEN
             13885                                ;
     1601    13886    5                       ELSE ALTRETURN;
     1602    13887    5                       END;
     1603    13888    4                     RETURN;
     1604    13889    4                     END;
     1605    13890    4                 ELSE IF BRK$->IFBRKPNT.IFCOND.COND = 5 /* ~EQUAL */ THEN DO;
     1606    13891    5                    DO I = 0 TO BRK$->IFBRKPNT.IFCOND.CONS$TANT.SIZE - 1;
     1607    13892    5                       IF VALB_(I) ~= BRK$->IFBRKPNT.IFCOND.CONS$TANT.BITS.TRING(I)
             13892                                THEN
     1608    13893    5                          RETURN;
     1609    13894    5                       END;
     1610    13895    4                    ALTRETURN;
     1611    13896    4                    END;
     1612    13897    3              CASE(4); /* PTR */
PL6.E3A0      #005=GDB$FIRST_USER_TRAP File=GDB$BRKPNTS.:E05TSI                  TUE 07/29/97 21:24 Page:152
     1613    13898    4                 DO CASE(BRK$->IFBRKPNT.IFCOND.COND);
     1614    13899    4                    CASE(6); /* EQUALS */
     1615    13900    4                       IF POFFC(CONSTPTR$,VALP$) = 0 THEN RETURN;
     1616    13901    4                       ELSE ALTRETURN;
     1617    13902    4                    CASE(5); /* ~EQUAL */
     1618    13903    4                       IF POFFC(CONSTPTR$,VALP$) ~= 0 THEN RETURN;
     1619    13904    4                       ELSE ALTRETURN;
     1620    13905    4                    CASE(1); /* > */
     1621    13906    4                       IF POFFC(VALP$,CONSTPTR$) > 0 THEN RETURN;
     1622    13907    4                       ELSE ALTRETURN;
     1623    13908    4                    CASE(2); /* < */
     1624    13909    4                       IF POFFC(VALP$,CONSTPTR$) < 0 THEN RETURN;
     1625    13910    4                       ELSE ALTRETURN;
     1626    13911    4                    CASE(3); /* >= */
     1627    13912    4                       IF POFFC(VALP$,CONSTPTR$) >= 0 THEN RETURN;
     1628    13913    4                       ELSE ALTRETURN;
     1629    13914    4                    CASE(4); /* <= */
     1630    13915    4                       IF POFFC(VALP$,CONSTPTR$) <= 0 THEN RETURN;
     1631    13916    4                       ELSE ALTRETURN;
     1632    13917    4                    CASE(ELSE);
     1633    13918    4                       RETURN;
     1634    13919    4                    END /* CASE */;
     1635    13920    3              CASE(3); /* VALUE */
     1636    13921    4                 DO CASE(BRK$->IFBRKPNT.IFCOND.COND);
     1637    13922    4                    CASE(1); /* > */
     1638    13923    4                       IF VALS > BRK$->IFBRKPNT.IFCOND.CONS$TANT.CONS.TANT THEN RETURN;
     1639    13924    4                    CASE(2); /* < */
     1640    13925    4                       IF VALS < BRK$->IFBRKPNT.IFCOND.CONS$TANT.CONS.TANT THEN RETURN;
     1641    13926    4                    CASE(3); /* >= */
     1642    13927    4                       IF VALS >= BRK$->IFBRKPNT.IFCOND.CONS$TANT.CONS.TANT THEN RETURN
             13927                                ;
     1643    13928    4                    CASE(4); /* <= */
     1644    13929    4                       IF VALS <= BRK$->IFBRKPNT.IFCOND.CONS$TANT.CONS.TANT THEN RETURN
             13929                                ;
     1645    13930    4                    CASE(5); /* ~= */
     1646    13931    4                       IF VALS ~= BRK$->IFBRKPNT.IFCOND.CONS$TANT.CONS.TANT THEN RETURN
             13931                                ;
PL6.E3A0      #005=GDB$FIRST_USER_TRAP File=GDB$BRKPNTS.:E05TSI                  TUE 07/29/97 21:24 Page:153
     1647    13932    4                    CASE(6); /* = */
     1648    13933    4                       IF VALS = BRK$->IFBRKPNT.IFCOND.CONS$TANT.CONS.TANT THEN RETURN;
     1649    13934    4                    CASE(ELSE);
     1650    13935    4                       ALTRETURN;
     1651    13936    4                    END /* CASE */;
     1652    13937    3              CASE(ELSE);
     1653    13938    3                 RETURN;
     1654    13939    3              END /* CASE */;
     1655    13940
     1656    13941    2           ALTRETURN;
     1657    13942
     1658    13943    2   END CMPRIF;
     1659    13944    1   END GDB$FIRST_USER_TRAP;
     1660    13945        %EOD;

PL6.E3A0      #005=GDB$FIRST_USER_TRAP File=GDB$BRKPNTS.:E05TSI                  TUE 07/29/97 21:24 Page:154
--  Include file information  --

   GH_HARDWARE_M.:E05TOU  is referenced.
   GD_BRKPNT_M.:E05TOU  is referenced.
   HF_ERRORS_C.:E05TOU  is referenced.
   KH$CHN.:E05TOU  is referenced.
   G_ROS_M.:E05TOU  is referenced.
   G_JIT_M.:E05TOU  is referenced.
   GM_VIRTUAL_E.:E05TOU  is referenced.
   GD$MACS_M.:E05TOU  is referenced.
   GD$MSG_M.:E05TOU  is referenced.
   GDA_EQUS_E.:E05TOU  is referenced.
   GD_EQUS_E.:E05TOU  is referenced.
   GD_DATA_M.:E05TOU  is referenced.
   GD_STATIC_DATA.:E05TOU  cannot be made into a system file and is referenced.
   LCP_6.:E05TOU  cannot be made into a system file and is referenced.
   G_HJIT_M.:E05TOU  is referenced.
   G_LCP6_E.:E05TOU  was found in the system file and is referenced.
   GT_LCP6_M.:E05TOU  was found in the system file and is referenced.
   KI_CP6.:E05TOU  was found in the system file and is referenced.
   GF_LCP6_M.:E05TOU  was found in the system file and is referenced.
   GM_LCP6_M.:E05TOU  was found in the system file and is referenced.
   GU_LCP6_M.:E05TOU  was found in the system file and is referenced.
   GJ_LCP6_M.:E05TOU  was found in the system file and is referenced.
   GH_LCP6_M.:E05TOU  was found in the system file and is referenced.
      No diagnostics issued in procedure GDB$FIRST_USER_TRAP.

   Procedure GDB$FIRST_USER_TRAP requires 3448 words for executable code.
   Procedure GDB$FIRST_USER_TRAP requires 106 words of local(AUTO) storage.

PL6.E3A0      #005=GDB$FIRST_USER_TRAP File=GDB$BRKPNTS.:E05TSI                  TUE 07/29/97 21:24 Page:155

 Object Unit name= GDB$FIRST_USER_TRAP                        File name= GDB$BRKPNTS.:E05TOU
 UTS= JUL 29 '97 21:24:57.72 TUE                              Compiler= PL-6/E31         Sev=      00
 SharedLib= :SHARED_LCP6_SYSTEM                               Alt SharedLib=


    ****  Control sections  ****

 Sect   Type Bound  Init  Size HexSiz  Section name
    0  RoData even  UTS      2      2  GDB$FIRST_USER_TRAP
    1   Proc  even  none  3448    D78  GDB$FIRST_USER_TRAP
    2  RoData even  none     3      3  GDB$FIRST_USER_TRAP

    ****  Entry defs  ****

                              Check   Calling
                             calling  sequence
  Sect HexLoc Primary Altret sequence   type   Parms  Name
     1      0   yes    yes     yes      Std        1  GDB$FIRST_USER_TRAP
     1      D          yes     yes      Std        1  GDB$TRAP_HND
PL6.E3A0      #005=GDB$FIRST_USER_TRAP File=GDB$BRKPNTS.:E05TSI                  TUE 07/29/97 21:24 Page:156

  ****  Entry refs  ****

         Check        Calling
        calling       sequence
Altret sequence SRef   type   Args  Name
 yes     yes    yes    Std       0 GDA$USER_INIT
         yes           Std       3 GDI$SEND_ERROR_RESPONSE
 yes     yes           Std       1 GDU$SETUP_WINDOW
 yes     yes           Std       2 GDU$SETUP_WINDOW_USER
         yes           Std       0 GDB$KILL_ALLBRKPNTS
         yes           Std       0 GDB$RESET_BRKPNT
         yes           Std       0 X6A_ARET
 yes     yes           Std       3 GDM$GRAB16
 yes     yes           Std       0 GDI$DECODE_MSG_WAIT_4_GO
         yes           Std       2 GDI$SEND_RESPONSE
 yes     yes           Std      10 GDK$RESADDR
         yes           Std       7 GDK$MPTR
                       nStd      0 X6A_AUTO_1
                       nStd      0 X6A_AALT
                       nStd      0 X6C_ALRZ
                       nStd      0 X6A_ARET
                       nStd      0 X6B_BLR
                       nStd      0 X6B_BCM

  ****  Data refs  ****

  Flags:  r = read only, s = secondary
Flgs Name                             Flgs Name                             Flgs Name
     GD$DELTA_DATA$                        G$UHJIT$                              G$ASDT_USR$
     G$ASDT_MCL$                           G$MHJIT$                              G$JIT$
     G$ROS$                           r    G$ROS$
PL6.E3A0      #005=GDB$FIRST_USER_TRAP File=GDB$BRKPNTS.:E05TSI                  TUE 07/29/97 21:24 Page:157


      660        1        /*T***********************************************************/
      661        2        /*T*                                                         */
      662        3        /*T* Copyright (c) Bull HN Information Systems Inc., 1997    */
      663        4        /*T*                                                         */
      664        5        /*T***********************************************************/
      665        6        %EJECT;
PL6.E3A0      #005=GDB$FIRST_USER_TRAP File=GDB$BRKPNTS.:E05TSI                  TUE 07/29/97 21:24 Page:158
      666        7        /*F*    NAME:    GDB$TRAP_HND
      667        8                PURPOSE: This routine is the debuggers trap handler.  It is
      668        9                         called by the monitor whenever the debugger is in
      669       10                         control to handle traps of all types.
      670       11                CALL:    CALL GDB$TRAP_HND(TSA$)
      671       12                DESCRIPTION:  This routine is called with a pointer to the
      672       13                              TSA that caused this trap.  We first determine
      673       14                              if this is a trap we will handle.  Following
      674       15                              this we adjust the P counter in the TSA to reflect
      675       16                              the length of the instruction that caused us to
      676       17                              trap.  We then send a break responce message to
      677       18                              the host indicating that we are stopped.  All
      678       19                              breakpoints are removed and we loop waiting for
      679       20                              a GO. When we get the GO, we figure out if we
      680       21                              are to step or go to an absolute address, modify
      681       22                              the TSA accordingly and off we go.
      682       23        */
      683       24        GDB$FIRST_USER_TRAP: PROC(G$TSA) ALTRET;

     24   1 000000  D380 0000 0000  xent GDB$FIRST_USER_*LNJ,B5   X6A_AUTO_1
          1 000003       006A 0001                       DC       106,1

      684       25
      685       26        /**/
      686       27        /* Includes */
      687       28        /**/
      688       29
      689       30        %INCLUDE G_HJIT_M;
      690      175        %INCLUDE LCP_6;                        /* Various LCP6 EQUs */
      691      366        %INCLUDE GD_STATIC_DATA;
      692      839        %INCLUDE GD$MACS_M;                    /* Debugger macros */
      693      877        %INCLUDE GM_VIRTUAL_E;
      694     1087        %INCLUDE G_JIT_M;
      695     1352        %INCLUDE G_ROS_M;
      696     1434        %INCLUDE KH$CHN;
      697     1556        %INCLUDE HF_ERRORS_C;
      698     1641        %INCLUDE GD_BRKPNT_M;
PL6.E3A0      #005=GDB$FIRST_USER_TRAP File=GDB$BRKPNTS.:E05TSI                  TUE 07/29/97 21:24 Page:159
      699     1696        %INCLUDE GH_HARDWARE_M;
      700     1794
      701     1795        /**/
      702     1796        /* Symrefs */
      703     1797        /**/
      704     1798
      705     1799    1   DCL G$UHJIT$ PTR SYMREF;
      706     1800    1   DCL G$ASDT_USR$ PTR SYMREF;
      707     1801    1   DCL G$ASDT_MCL$ PTR SYMREF;
      708     1802    1   DCL G$MHJIT$ PTR SYMREF;
      709     1803    1   DCL G$JIT$ PTR SYMREF;
      710     1804    1   DCL G$ROS$ PTR SYMREF;
      711     1805    1   DCL G$USRT$ PTR SYMREF;
      712     1806        %VLP_ERRCODE (FPTN=GHB_TRAP_MSG,ERR#=%E$TRAP,SEV=G_SEV_CONT#,
      713     1807                     STCLASS=CONSTANT,FCG=GH,MID=B,MON='1'B);
      714     1853
      715     1854        /**/
      716     1855        /* Based Items */
      717     1856        /**/
      718     1857
      719     1858        %GD_BRKPNT(FPTN=BRKPNT,STCLASS=BASED);
      720     1875        %GD_BRKPNT(FPTN=IFBRKPNT,STCLASS=BASED,LAST=",");
      721     1892        %GD_IFCOND(FPTN=IFCOND,LVL=2);
      722     1916        %VLP_XBREAK(STCLASS=BASED);
      723     1935        %G$MHJIT(STCLASS="BASED(G$MHJIT$)");
      724     8809        %G$UHJIT(STCLASS="BASED(G$UHJIT$)");
      725    11783        %G$JIT (STCLASS="BASED(G$JIT$)");
      726    12197        %G$SEGDESC (FPTN=G$SEGDESC, STCLASS=BASED);
      727    12219        %G$TSA(STCLASS="");                     /* TSA template */
      728    12607        %GD$MSG(STCLASS="BASED(MSG$)");         /* Message template */
      729    12763        %GH_VLD(STCLASS=BASED);
      730    12777        %G$ROS (STCLASS="BASED(G$ROS$)");
      731    12821        %G$ECCB(FPTN=G$ECCB_ARRAYED,ARRAYED=YES);
      732    12897        %G$ECCB;
      733    12973    1   DCL MEMORY UBIN BASED;                 /* Memory template */
      734    12974    1   DCL SMEMORY SBIN BASED;                /* Memory template */
      735    12975    1   DCL BITMEM BIT(16) BASED ALIGNED;      /* Another memory template */
PL6.E3A0      #005=GDB$FIRST_USER_TRAP File=GDB$BRKPNTS.:E05TSI                  TUE 07/29/97 21:24 Page:160
      736    12976    1   DCL 1 BVECT BASED ALIGNED,
      737    12977    1         2 SIZE UBIN WORD ALIGNED,
      738    12978    1         2 PTR$ PTR ALIGNED;
      739    12979
      740    12980        /**/
      741    12981        /* Arguments */
      742    12982        /**/
      743    12983
      744    12984        /**/
      745    12985        /* Entries */
      746    12986        /**/
      747    12987
      748    12988    1   DCL GDB$RESET_BRKPNT ENTRY;            /* Remove all breakpoints */
      749    12989    1   DCL GDB$KILL_ALLBRKPNTS ENTRY;            /* KILL all breakpoints */
      750    12990    1   DCL GDI$DECODE_MSG_WAIT_4_GO ENTRY ALTRET; /* Process msgs til GO */
      751    12991    1   DCL GDI$SEND_RESPONSE ENTRY(2);        /* Send message to host */
      752    12992    1   DCL GDI$SEND_ERROR_RESPONSE ENTRY(3);
      753    12993    1   DCL GDU$SETUP_WINDOW ENTRY(1) ALTRET;
      754    12994    1   DCL GDU$SETUP_WINDOW_USER ENTRY(2) ALTRET;
      755    12995    1   DCL GDB$SET_BRKPNT ENTRY(2) OPTIONAL;
      756    12996    1   DCL GDK$RESADDR ENTRY(10) ALTRET;
      757    12997    1   DCL GDK$MPTR ENTRY(7);
      758    12998    1   DCL X6A_ARET ENTRY;
      759    12999    1   DCL GDA$USER_INIT ENTRY ALTRET OPTIONAL;
      760    13000    1   DCL GDM$GRAB16 ENTRY(3) ALTRET;
      761    13001    1   DCL GDK$PUDECBIN ENTRY(4);
      762    13002    1   DCL GDK$PTDECBIN ENTRY(4);
      763    13003    1   DCL GDK$UUDECBIN ENTRY(4);
      764    13004    1   DCL GDK$UTDECBIN ENTRY(4);
      765    13005    1   DCL GDK$ULDECBIN ENTRY(4);
      766    13006    1   DCL GDK$UODECBIN ENTRY(4);
      767    13007    1   DCL MAP_ADDRESS ENTRY(2) ALTRET;    /* XT
      768    13008        DCL XT SBIN;
      769    13009        DCL XT$ PTR; */
      770    13010
      771    13011        /**/
      772    13012        /* Temps */
PL6.E3A0      #005=GDB$FIRST_USER_TRAP File=GDB$BRKPNTS.:E05TSI                  TUE 07/29/97 21:24 Page:161
      773    13013        /**/
      774    13014
      775    13015    1   DCL BRK$ PTR;
      776    13016    1   DCL BRKNUM SBIN;
      777    13017    1   DCL OFFSET SBIN;
      778    13018    1   DCL MSGBFR CHAR(64) BASED(MSG$) CALIGNED; /* Buffer for msg to host */
      779    13019    1   DCL DSIZE UBIN;
      780    13020    1   DCL MSG$ PTR;                      /* Pointer to message buffer */
      781    13021    1   DCL P$ PTR;
      782    13022    1   DCL P REDEF P$ UBIN(32);
      783    13023    1   DCL SIZE UBIN;                         /* Size of message to host */
      784    13024    1   DCL ADR$ PTR;
      785    13025    1   DCL PTR$ PTR;
      786    13026    1   DCL TRAP_NO UBIN;
      787    13027    1   DCL MON BIT(1) ALIGNED;
      788    13028        %VLP_ERRCODE (FPTN = ERRCODE_SCRATCH,STCLASS = "AUTO");
      789    13074        %EJECT;
PL6.E3A0      #005=GDB$FIRST_USER_TRAP File=GDB$BRKPNTS.:E05TSI                  TUE 07/29/97 21:24 Page:162
      790    13075        /* If we entered here, we need to call the user debugger init routine */
      791    13076
      792    13077    1           CALL GDA$USER_INIT;

  13077   1 000005  CBF0 0000                            LAB,B4   0,IMO
          1 000007  E380 0000 0000  xent                 LNJ,B6   GDA$USER_INIT
          1 00000A       0001                            DC       s:13077+6,PREL
          1 00000B  0F81 0006                            B        s:13081,PREL

      793    13078        /**/
      794    13079    1   GDB$TRAP_HND: ENTRY(G$TSA) ALTRET;

  13079   1 00000D  D380 0000 0000  xent GDB$TRAP_HND    LNJ,B5   X6A_AUTO_1
          1 000010       006A 0001                       DC       106,1

      795    13080        /* */
      796    13081    1           MSG$ = ADDR(GD_DATA.GDA.RCV);

  13081   1 000012  EC80 0000 0000  xsym                 LDB,B6   GD$DELTA_DATA$
          1 000015  DBC6 000D                            LAB,B5   13,B6
          1 000017  DFC7 000B                            STB,B5   MSG$,AUTO

      797    13082    1           IF G$TSA.I.TRAP# = %G_HOST_INT# OR G$TSA.I.TRAP# = %G_FPRG_START# THEN

  13082   1 000019  CCC7 0004                            LDB,B4   @G$TSA,AUTO
          1 00001B  E2C4 0002                            LLH,R6   2,B4
          1 00001D  6D37                                 CMV,R6   55
          1 00001E  0901 0004                            BE       s:13083,PREL
          1 000020  6D3D                                 CMV,R6   61
          1 000021  0981 0004                            BNE      s:13084,PREL

      798    13083    1              G$TSA.Z.IS=0;

  13083   1 000023  8844 0005                            LBF,'000F'X       5,B4
  13083   1 000025       000F

      799    13084    2           IF GD_DATA.GD.IGNARITH THEN DO;
PL6.E3A0      #005=GDB$FIRST_USER_TRAP File=GDB$BRKPNTS.:E05TSI                  TUE 07/29/97 21:24 Page:163

  13084   1 000026  89C6 014C                            CMZ      332,B6
          1 000028  0881 0019                            BAGE     s:13095,PREL

      800    13085    2              IF G$TSA.I.TRAP#=%G_INT_REG_OV# OR

  13085   1 00002A  6D06                                 CMV,R6   6
          1 00002B  0901 0013                            BE       s:13092,PREL
          1 00002D  6D07                                 CMV,R6   7
          1 00002E  0901 0010                            BE       s:13092,PREL
          1 000030  6D08                                 CMV,R6   8
          1 000031  0901 000D                            BE       s:13092,PREL
          1 000033  6D13                                 CMV,R6   19
          1 000034  0901 000A                            BE       s:13092,PREL
          1 000036  6D19                                 CMV,R6   25
          1 000037  0901 0007                            BE       s:13092,PREL
          1 000039  6D1B                                 CMV,R6   27
          1 00003A  0901 0004                            BE       s:13092,PREL
          1 00003C  6D1D                                 CMV,R6   29
          1 00003D  0981 0004                            BNE      s:13095,PREL

      801    13086    2                 G$TSA.I.TRAP#=%G_S_DBZ# OR
      802    13087    2                 G$TSA.I.TRAP#=%G_S_EXP_OV# OR
      803    13088    2                 G$TSA.I.TRAP#=%G_S_EXP_UF# OR
      804    13089    2                 G$TSA.I.TRAP#=%G_C_DBZ# OR
      805    13090    2                 G$TSA.I.TRAP#=%G_C_CHAR# OR
      806    13091    3                 G$TSA.I.TRAP#=%G_C_OV# THEN DO;

      807    13092    3                   ALTRETURN;

  13092   1 00003F  C380 0000 0000  xent                 LNJ,B4   X6A_AALT

      808    13093    3                   END;
      809    13094    2              END;
      810    13095    1           GD$MSG = '0'B;

  13095   1 000042  AB80 0000 0000  02                   LAB,B2   0
PL6.E3A0      #005=GDB$FIRST_USER_TRAP File=GDB$BRKPNTS.:E05TSI                  TUE 07/29/97 21:24 Page:164
          1 000045  2C00                                 LDV,R2   0
          1 000046  6C01                                 LDV,R6   1
          1 000047  BB85                                 LAB,B3   ,B5
          1 000048  3C00                                 LDV,R3   0
          1 000049  F870 01A2                            LDR,R7   418,IMO
          1 00004B  D380 0000 0000  xent                 LNJ,B5   X6C_ALRZ

      811    13096    2           IF GD_DATA.GD.STOPT THEN DO;

  13096   1 00004E  EC80 0000 0000  xsym                 LDB,B6   GD$DELTA_DATA$
          1 000051  82C6 014C                            LB,'0004'X        332,B6
          1 000053       0004
          1 000054  0581 0024                            BBF      s:13102,PREL

      812    13097    2              IF NOT GD_DATA.GD.ANSWERED THEN

  13097   1 000056  82C6 014C                            LB,'0002'X        332,B6
  13097   1 000058       0002
          1 000059  0501 0015                            BBT      s:13099,PREL

      813    13098    2                 CALL GDI$SEND_ERROR_RESPONSE (SIZE,MSGBFR,%GD#RSPBADADR);

  13098   1 00005B  DBF0 0037                            LAB,B5   55,IMO
          1 00005D  DFC7 005A                            STB,B5   CONSTPTR$+7,AUTO
          1 00005F  CCC7 000B                            LDB,B4   MSG$,AUTO
          1 000061  CFC7 0058                            STB,B4   CONSTPTR$+5,AUTO
          1 000063  BBC7 000F                            LAB,B3   SIZE,AUTO
          1 000065  BFC7 0056                            STB,B3   CONSTPTR$+3,AUTO
          1 000067  BBC7 0056                            LAB,B3   CONSTPTR$+3,AUTO
          1 000069  CBF0 0300                            LAB,B4   768,IMO
          1 00006B  E380 0000 0000  xent                 LNJ,B6   GDI$SEND_ERROR_RESPONSE
          1 00006E       0001                            DC       s:13099,PREL

      814    13099    2              G$TSA.P$$=ENTADDR(X6A_ARET);

  13099   1 00006F  EB80 0000 0000  xent                 LAB,B6   X6A_ARET
          1 000072  DCC7 0004                            LDB,B5   @G$TSA,AUTO
PL6.E3A0      #005=GDB$FIRST_USER_TRAP File=GDB$BRKPNTS.:E05TSI                  TUE 07/29/97 21:24 Page:165
          1 000074  EFC5 0008                            STB,B6   8,B5

      815    13100    2              ALTRETURN;

  13100   1 000076  C380 0000 0000  xent                 LNJ,B4   X6A_AALT

      816    13101    2              END;
      817    13102    1           GD_DATA.DELTAINFO.TSA$=ADDR(G$TSA);

  13102   1 000079  DCC7 0004                            LDB,B5   @G$TSA,AUTO
          1 00007B  DFC6 0006                            STB,B5   6,B6

      818    13103        /* */
      819    13104    1   STARTOVER:
      820    13105        /*
      821    13106          If this is XDELTA, we need to perform the entire ASDT stuff
      822    13107                                                                                      */
      823    13108    1           IF GD_DATA.GD.MODE=%GD#MODE_XDELTA THEN

  13108   1 00007D  EC80 0000 0000  xsym STARTOVER       LDB,B6   GD$DELTA_DATA$
          1 000080  E846 0130                            LDR,R6   304,B6
          1 000082  6D02                                 CMV,R6   2
          1 000083  0981 00A1                            BNE      s:13165,PREL

      824    13109    2           DO;

      825    13110        /*
      826    13111          If the debug link is not up, let Linda have it
      827    13112                                                                                      */
      828    13113    2              IF NOT(GD_DATA.GDA.CONNECTFLG) THEN

  13113   1 000085  89C6 0009                            CMZ      9,B6
          1 000087  0801 0004                            BAL      s:13120,PREL

      829    13114    2                 RETURN;

  13114   1 000089  C380 0000 0000  xent                 LNJ,B4   X6A_ARET
PL6.E3A0      #005=GDB$FIRST_USER_TRAP File=GDB$BRKPNTS.:E05TSI                  TUE 07/29/97 21:24 Page:166

      830    13115        /*
      831    13116          Stash away the current desciptor in the monitors window segment
      832    13117          so we can use it if we need to look through it and so we can be nice
      833    13118          guys and restore it
      834    13119                                                                                      */
      835    13120    2              GD_DATA.GD.WINDOWSEG=%ASDT_WINDOW#;

  13120   1 00008C  DCC6 017A                            LDB,B5   378,B6
          1 00008E  8C85                                 LDI      ,B5
          1 00008F  8D46 0168                            SDI      360,B6

      836    13121        /*
      837    13122           Setup GD_DATA.GD.USERNO appropriatly to reflect whether a user was running
      838    13123           or the monitor was running
      839    13124                                                                                      */
      840    13125    2              GD_DATA.GD.USE_REAL = %G_NO#;

  13125   1 000091  8846 014C                            LBF,'0008'X       332,B6
  13125   1 000093       0008

      841    13126    2              MON=%G_YES#;

  13126   1 000094  8947 0015                            LBT,'8000'X       MON,AUTO
  13126   1 000096       8000

      842    13127    2              IF G$TSA.ISA.ISM2.MMU

  13127   1 000097  CCC7 0004                            LDB,B4   @G$TSA,AUTO
          1 000099  89C4 0014                            CMZ      20,B4
          1 00009B  0881 0064                            BAGE     s:13148,PREL
          1 00009D  BCC4 000D                            LDB,B3   13,B4
          1 00009F  BD80 0000 0000  xsym                 CMB,B3   G$ASDT_USR$
          1 0000A2  0901 0006                            BE       s:13130,PREL
          1 0000A4  BD80 0000 0000  xsym                 CMB,B3   G$ASDT_MCL$
          1 0000A7  0981 0058                            BNE      s:13148,PREL

PL6.E3A0      #005=GDB$FIRST_USER_TRAP File=GDB$BRKPNTS.:E05TSI                  TUE 07/29/97 21:24 Page:167
      843    13128    2                AND (G$TSA.ISA.ASV$=G$ASDT_USR$ OR G$TSA.ISA.ASV$=G$ASDT_MCL$) THEN
      844    13129    3              DO;

      845    13130    3                 GD_DATA.GD.ASDT_PPNO=G$MHJIT.ASDT_MON.UMHJIT.BASE;

  13130   1 0000A9  AC80 0000 0000  xsym                 LDB,B2   G$MHJIT$
          1 0000AC  D842 000A                            LDR,R5   10,B2
          1 0000AE  D570 7FFF                            AND,R5   32767,IMO
          1 0000B0  DF46 0147                            STR,R5   327,B6

      846    13131    3                 GD_DATA.GD.ASDT_OFFSET=POFFW(G$TSA.ISA.ASV$,G$UHJIT$);

  13131   1 0000B2  8CC4 000D                            LDI      13,B4
          1 0000B4  8480 0000 0000  xsym                 SID      G$UHJIT$
          1 0000B7  E857                                 LDR,R6   R7
          1 0000B8  EF46 0148                            STR,R6   328,B6

      847    13132        /*
      848    13133          Setup a pointer to the JIT, since we may or may not be mapped
      849    13134          onto it at the time.
      850    13135                                                                                      */
      851    13136    3                 P$=G$JIT$;

  13136   1 0000BA  BC80 0000 0000  xsym                 LDB,B3   G$JIT$
          1 0000BD  BFC7 000D                            STB,B3   P$,AUTO

      852    13137    4                 CALL GDU$SETUP_WINDOW (P$) WHENRETURN DO;

  13137   1 0000BF  9BC7 000D                            LAB,B1   P$,AUTO
          1 0000C1  9FC7 0056                            STB,B1   CONSTPTR$+3,AUTO
          1 0000C3  BBC7 0056                            LAB,B3   CONSTPTR$+3,AUTO
          1 0000C5  CBF0 0100                            LAB,B4   256,IMO
          1 0000C7  E380 0000 0000  xent                 LNJ,B6   GDU$SETUP_WINDOW
          1 0000CA       0022                            DC       s:13143,PREL

      853    13138    4                    GD_DATA.GD.USERNO=G$JIT.USR#;

PL6.E3A0      #005=GDB$FIRST_USER_TRAP File=GDB$BRKPNTS.:E05TSI                  TUE 07/29/97 21:24 Page:168
  13138   1 0000CB  EC80 0000 0000  xsym                 LDB,B6   GD$DELTA_DATA$
          1 0000CE  DC80 0000 0000  xsym                 LDB,B5   G$JIT$
          1 0000D1  E845 0004                            LDR,R6   4,B5
          1 0000D3  E570 00FF                            AND,R6   255,IMO
          1 0000D5  EF46 016B                            STR,R6   363,B6

      854    13139    4                    IF G$TSA.ISA.ASV$ ~= G$ASDT_USR$ THEN

  13139   1 0000D7  CCC7 0004                            LDB,B4   @G$TSA,AUTO
          1 0000D9  BCC4 000D                            LDB,B3   13,B4
          1 0000DB  BD80 0000 0000  xsym                 CMB,B3   G$ASDT_USR$
          1 0000DE  0901 0008                            BE       s:13141,PREL

      855    13140    4                       GD$MSG.BRKRSP.MBU = '1'B;

  13140   1 0000E0  ACC7 000B                            LDB,B2   MSG$,AUTO
          1 0000E2  8942 0019                            LBT,'0080'X       25,B2
          1 0000E4       0080
          1 0000E5  0F81 0006                            B        s:13143,PREL

      856    13141    4                    ELSE GD$MSG.BRKRSP.MBU = '0'B;

  13141   1 0000E7  ACC7 000B                            LDB,B2   MSG$,AUTO
          1 0000E9  8842 0019                            LBF,'0080'X       25,B2
          1 0000EB       0080

      857    13142    4                    END;

      858    13143    3                 IF G$TSA.ISA.ASV$=G$ASDT_USR$ AND G$TSA.P>=%GM_ISR1_BASE THEN

  13143   1 0000EC  ECC7 0004                            LDB,B6   @G$TSA,AUTO
          1 0000EE  DCC6 000D                            LDB,B5   13,B6
          1 0000F0  DD80 0000 0000  xsym                 CMB,B5   G$ASDT_USR$
          1 0000F3  0981 0020                            BNE      s:13155,PREL
          1 0000F5  8CC6 0008                            LDI      8,B6
          1 0000F7  84F0 0001 0000                       SID      65536,IMO
          1 0000FA  6801 0019                            BLZ,R6   s:13155,PREL
PL6.E3A0      #005=GDB$FIRST_USER_TRAP File=GDB$BRKPNTS.:E05TSI                  TUE 07/29/97 21:24 Page:169

      859    13144    3                    MON=%G_NO#;

  13144   1 0000FC  8747 0015                            CL       MON,AUTO

      860    13145    3                 END;

  13145   1 0000FE  0F81 0015                            B        s:13155,PREL

      861    13146    2              ELSE
      862    13147    3              DO;

      863    13148    3                 GD_DATA.GD.USERNO=0;

  13148   1 000100  8746 016B                            CL       363,B6

      864    13149    3                 GD_DATA.GD.ASDT_PPNO=G$MHJIT.ASDT_MON.MHJIT.BASE;

  13149   1 000102  BC80 0000 0000  xsym                 LDB,B3   G$MHJIT$
          1 000105  D843 000C                            LDR,R5   12,B3
          1 000107  D570 7FFF                            AND,R5   32767,IMO
          1 000109  DF46 0147                            STR,R5   327,B6

      865    13150    3                 GD_DATA.GD.ASDT_OFFSET=POFFW(ADDR(G$MHJIT.ASDT_MON),ADDR(G$MHJIT));

  13150   1 00010B  8C80 0000 0000  xsym                 LDI      G$MHJIT$
          1 00010E  8480 0000 0000  xsym                 SID      G$MHJIT$
          1 000111  E857                                 LDR,R6   R7
          1 000112  EF46 0148                            STR,R6   328,B6

      866    13151    3                 END;

      867    13152        /*
      868    13153          Stash away the calculated values just in case the guy says USE
      869    13154                                                                                      */
      870    13155    2              GD_DATA.GD.ASDT_USE_PPNO=GD_DATA.GD.ASDT_PPNO;

PL6.E3A0      #005=GDB$FIRST_USER_TRAP File=GDB$BRKPNTS.:E05TSI                  TUE 07/29/97 21:24 Page:170
  13155   1 000114  EC80 0000 0000  xsym                 LDB,B6   GD$DELTA_DATA$
          1 000117  E846 0147                            LDR,R6   327,B6
          1 000119  EF46 0149                            STR,R6   329,B6

      871    13156    2              GD_DATA.GD.ASDT_USE_OFFSET=GD_DATA.GD.ASDT_OFFSET;

  13156   1 00011B  D846 0148                            LDR,R5   328,B6
          1 00011D  DF46 014A                            STR,R5   330,B6

      872    13157    2              GD_DATA.GD.USE_USERNO=GD_DATA.GD.USERNO;

  13157   1 00011F  C846 016B                            LDR,R4   363,B6
          1 000121  CF46 014B                            STR,R4   331,B6

      873    13158    2              END;

  13158   1 000123  0F81 0010                            B        s:13172,PREL

      874    13159        /*
      875    13160          If this is user delta, we just need to properly setup the user
      876    13161          stuff.
      877    13162                                                                                      */
      878    13163    1           ELSE
      879    13164    2           DO;

      880    13165    2              GD_DATA.GD.USERNO=G$JIT$->G$JIT.USR#;

  13165   1 000125  DC80 0000 0000  xsym                 LDB,B5   G$JIT$
          1 000128  D845 0004                            LDR,R5   4,B5
          1 00012A  D570 00FF                            AND,R5   255,IMO
          1 00012C  DF46 016B                            STR,R5   363,B6

      881    13166    2              GD_DATA.GD.USE_USERNO=G$JIT$->G$JIT.USR#;

  13166   1 00012E  C845 0004                            LDR,R4   4,B5
          1 000130  C570 00FF                            AND,R4   255,IMO
          1 000132  CF46 014B                            STR,R4   331,B6
PL6.E3A0      #005=GDB$FIRST_USER_TRAP File=GDB$BRKPNTS.:E05TSI                  TUE 07/29/97 21:24 Page:171

      882    13167    2              END;

      883    13168        /*
      884    13169          Init the break number cell to 0 (Temp breakpoint) and disable
      885    13170          the branch trace bit in this TSA's ISA.
      886    13171                                                                                      */
      887    13172    1           BRKNUM=0;

  13172   1 000134  8747 0008                            CL       BRKNUM,AUTO

      888    13173    1           GD_DATA.GD.TRACE_ACTIVE = G$TSA.ISA.REGS.M1.J;

  13173   1 000136  DCC7 0004                            LDB,B5   @G$TSA,AUTO
          1 000138  E845 002E                            LDR,R6   46,B5
          1 00013A  6047                                 SOR,R6   7
          1 00013B  EAC6 014C                            SRM,R6,'0001'X    332,B6
          1 00013D       0001

      889    13174    1           G$TSA.ISA.REGS.M1.J=%G_DISABLE#;

  13174   1 00013E  8845 002E                            LBF,'0080'X       46,B5
  13174   1 000140       0080

      890    13175        /*
      891    13176          If there is any breakpoint that needs cleanup (needs to be put back
      892    13177          in memory), do it now, if the user hasn't killed it
      893    13178                                                                                      */
      894    13179    1           IF GD_DATA.GD.BRKNUM > 0 THEN

  13179   1 000141  E846 0158                            LDR,R6   344,B6
          1 000143  6901 004D                            BEZ,R6   s:13202,PREL

      895    13180    2           DO;

      896    13181    2              IF GD_DATA.GD.BRK$->BRKPNT.FLAGS.ACTIVE AND

PL6.E3A0      #005=GDB$FIRST_USER_TRAP File=GDB$BRKPNTS.:E05TSI                  TUE 07/29/97 21:24 Page:172
  13181   1 000145  CCC6 0159                            LDB,B4   345,B6
          1 000147  89C4 000A                            CMZ      10,B4
          1 000149  0881 0040                            BAGE     s:13195,PREL
          1 00014B  D844 000A                            LDR,R5   10,B4
          1 00014D  5001                                 SOL,R5   1
          1 00014E  D570 8000                            AND,R5   -32768,IMO
          1 000150  D670 8000                            XOR,R5   -32768,IMO
          1 000152  5901 0037                            BEZ,R5   s:13195,PREL

      897    13182    2                 ~GD_DATA.GD.BRK$->BRKPNT.FLAGS.ARMED THEN
      898    13183    3              DO;

      899    13184    3                 ADR$=GD_DATA.GD.BRK$->BRKPNT.ADR$;

  13184   1 000154  BCC4 0005                            LDB,B3   5,B4
          1 000156  BFC7 0010                            STB,B3   ADR$,AUTO

      900    13185    3                 CALL GDU$SETUP_WINDOW_USER (ADR$,

  13185   1 000158  ABC4 0008                            LAB,B2   8,B4
          1 00015A  AFC7 0058                            STB,B2   CONSTPTR$+5,AUTO
          1 00015C  9BC7 0010                            LAB,B1   ADR$,AUTO
          1 00015E  9FC7 0056                            STB,B1   CONSTPTR$+3,AUTO
          1 000160  BBC7 0056                            LAB,B3   CONSTPTR$+3,AUTO
          1 000162  CBF0 0200                            LAB,B4   512,IMO
          1 000164  E380 0000 0000  xent                 LNJ,B6   GDU$SETUP_WINDOW_USER
          1 000167       0014                            DC       s:13191,PREL

      901    13186    4                   GD_DATA.GD.BRK$->BRKPNT.USER#) WHENRETURN DO;

      902    13187    4                    GD_DATA.GD.BRK$->BRKPNT.OLDINST=ADR$->MEMORY;

  13187   1 000168  EC80 0000 0000  xsym                 LDB,B6   GD$DELTA_DATA$
          1 00016B  DCC6 0159                            LDB,B5   345,B6
          1 00016D  CCC7 0010                            LDB,B4   ADR$,AUTO
          1 00016F  E804                                 LDR,R6   ,B4
          1 000170  EF45 0007                            STR,R6   7,B5
PL6.E3A0      #005=GDB$FIRST_USER_TRAP File=GDB$BRKPNTS.:E05TSI                  TUE 07/29/97 21:24 Page:173

      903    13188    4                    GD_DATA.GD.BRK$->BRKPNT.FLAGS.ARMED = '1'B;

  13188   1 000172  DCC6 0159                            LDB,B5   345,B6
          1 000174  8945 000A                            LBT,'4000'X       10,B5
          1 000176       4000

      904    13189    4                    ADR$->BITMEM=%GD#BREAK_INST;

  13189   1 000177  DCC7 0010                            LDB,B5   ADR$,AUTO
          1 000179  6C02                                 LDV,R6   2
          1 00017A  EF05                                 STR,R6   ,B5

      905    13190    4                    END;

      906    13191    3                 GD_DATA.GD.USERNO=GD_DATA.GD.USE_USERNO;

  13191   1 00017B  EC80 0000 0000  xsym                 LDB,B6   GD$DELTA_DATA$
          1 00017E  E846 014B                            LDR,R6   331,B6
          1 000180  EF46 016B                            STR,R6   363,B6

      907    13192    3                 GD_DATA.GD.ASDT_PPNO=GD_DATA.GD.ASDT_USE_PPNO;

  13192   1 000182  D846 0149                            LDR,R5   329,B6
          1 000184  DF46 0147                            STR,R5   327,B6

      908    13193    3                 GD_DATA.GD.ASDT_OFFSET=GD_DATA.GD.ASDT_USE_OFFSET;

  13193   1 000186  C846 014A                            LDR,R4   330,B6
          1 000188  CF46 0148                            STR,R4   328,B6

      909    13194    3                 END;

      910    13195    2              GD_DATA.GD.BRKNUM=0;

  13195   1 00018A  8746 0158                            CL       344,B6

PL6.E3A0      #005=GDB$FIRST_USER_TRAP File=GDB$BRKPNTS.:E05TSI                  TUE 07/29/97 21:24 Page:174
      911    13196    2              GD_DATA.GD.BRK$ = ADDR(NIL);

  13196   1 00018C  DB80 0000 0000                       LAB,B5   0
          1 00018F  DFC6 0159                            STB,B5   345,B6

      912    13197    2              END;

      913    13198        /*
      914    13199          Determine if LDTRC - if yes - call KILL_ALLBRKPNTS
      915    13200          If LDTRC in library - do GOTRAP.
      916    13201        */
      917    13202    1           IF G$TSA.I.TRAP# = %G_FPRG_START2# AND

  13202   1 000191  DCC7 0004                            LDB,B5   @G$TSA,AUTO
          1 000193  E2C5 0002                            LLH,R6   2,B5
          1 000195  6D3E                                 CMV,R6   62
          1 000196  0981 0021                            BNE      s:13213,PREL
          1 000198  D846 0130                            LDR,R5   304,B6
          1 00019A  5D01                                 CMV,R5   1
          1 00019B  0981 001C                            BNE      s:13213,PREL

      918    13203    1              GD_DATA.GD.MODE = %GD#MODE_USER_DELTA
      919    13204    2           THEN DO;

      920    13205    2                CALL GDB$KILL_ALLBRKPNTS;

  13205   1 00019D  CBF0 0000                            LAB,B4   0,IMO
          1 00019F  E380 0000 0000  xent                 LNJ,B6   GDB$KILL_ALLBRKPNTS
          1 0001A2       0001                            DC       s:13206,PREL

      921    13206    2                IF G$JIT.SLIB# ~= 0 AND

  13206   1 0001A3  EC80 0000 0000  xsym                 LDB,B6   G$JIT$
          1 0001A6  82C6 008C                            LB,'00FF'X        140,B6
          1 0001A8       00FF
          1 0001A9  0581 000E                            BBF      s:13213,PREL
          1 0001AB  DCC7 0004                            LDB,B5   @G$TSA,AUTO
PL6.E3A0      #005=GDB$FIRST_USER_TRAP File=GDB$BRKPNTS.:E05TSI                  TUE 07/29/97 21:24 Page:175
          1 0001AD  8CC5 0008                            LDI      8,B5
          1 0001AF  84F0 0006 0000                       SID      393216,IMO
          1 0001B2  6A01 0819                            BGZ,R6   s:13722,PREL
          1 0001B4  6801 0003                            BLZ,R6   s:13213,PREL
          1 0001B6  7981 0815                            BNEZ,R7  s:13722,PREL

      922    13207    2                   G$TSA.P > %GM_ISR6_BASE
      923    13208    2                THEN GOTO GOTRAP;
      924    13209    2              END;

      925    13210        /*
      926    13211          Determine if this was a branch trace trap
      927    13212                                                                                      */
      928    13213    2           IF G$TSA.I.TRAP# = %G_FPRG_XBREAK# THEN DO;

  13213   1 0001B8  ECC7 0004                            LDB,B6   @G$TSA,AUTO
          1 0001BA  E2C6 0002                            LLH,R6   2,B6
          1 0001BC  6D33                                 CMV,R6   51
          1 0001BD  0981 0129                            BNE      s:13274,PREL

      929    13214    2              P$ = G$TSA.B3$;

  13214   1 0001BF  DCC6 000A                            LDB,B5   10,B6
          1 0001C1  DFC7 000D                            STB,B5   P$,AUTO

      930    13215    2              CALL GDU$SETUP_WINDOW_USER(P$,GD_DATA.GD.USERNO) ALTRET(BADXBRK);

  13215   1 0001C3  CC80 0000 0000  xsym                 LDB,B4   GD$DELTA_DATA$
          1 0001C6  BBC4 016B                            LAB,B3   363,B4
          1 0001C8  BFC7 0058                            STB,B3   CONSTPTR$+5,AUTO
          1 0001CA  ABC7 000D                            LAB,B2   P$,AUTO
          1 0001CC  AFC7 0056                            STB,B2   CONSTPTR$+3,AUTO
          1 0001CE  BBC7 0056                            LAB,B3   CONSTPTR$+3,AUTO
          1 0001D0  CBF0 0200                            LAB,B4   512,IMO
          1 0001D2  E380 0000 0000  xent                 LNJ,B6   GDU$SETUP_WINDOW_USER
          1 0001D5       001C                            DC       s:13218,PREL

PL6.E3A0      #005=GDB$FIRST_USER_TRAP File=GDB$BRKPNTS.:E05TSI                  TUE 07/29/97 21:24 Page:176
      931    13216    2              GD_DATA.GD.XBRKINFO$ = P$->BVECT.PTR$;

  13216   1 0001D6  ECC7 000D                            LDB,B6   P$,AUTO
          1 0001D8  DCC6 0001                            LDB,B5   1,B6
          1 0001DA  CC80 0000 0000  xsym                 LDB,B4   GD$DELTA_DATA$
          1 0001DD  DFC4 0154                            STB,B5   340,B4

      932    13217    2              CALL GDU$SETUP_WINDOW_USER(GD_DATA.GD.XBRKINFO$,GD_DATA.GD.USERNO)

  13217   1 0001DF  BBC4 016B                            LAB,B3   363,B4
          1 0001E1  BFC7 0058                            STB,B3   CONSTPTR$+5,AUTO
          1 0001E3  ABC4 0154                            LAB,B2   340,B4
          1 0001E5  AFC7 0056                            STB,B2   CONSTPTR$+3,AUTO
          1 0001E7  BBC7 0056                            LAB,B3   CONSTPTR$+3,AUTO
          1 0001E9  CBF0 0200                            LAB,B4   512,IMO
          1 0001EB  E380 0000 0000  xent                 LNJ,B6   GDU$SETUP_WINDOW_USER
          1 0001EE       0003                            DC       s:13218,PREL
          1 0001EF  0F81 001D                            B        s:13224,PREL

      933    13218    3              WHENALTRETURN DO;

      934    13219    3   BADXBRK:
      935    13220    3                 CALL GDI$SEND_ERROR_RESPONSE(%GD#RSPBRKSIZ,MSGBFR,%GD#RSPBADXBREAK);

  13220   1 0001F1  EBF0 0040            BADXBRK         LAB,B6   64,IMO
          1 0001F3  DBF0 003B                            LAB,B5   59,IMO
          1 0001F5  DFC7 005A                            STB,B5   CONSTPTR$+7,AUTO
          1 0001F7  CCC7 000B                            LDB,B4   MSG$,AUTO
          1 0001F9  CFC7 0058                            STB,B4   CONSTPTR$+5,AUTO
          1 0001FB  EFC7 0056                            STB,B6   CONSTPTR$+3,AUTO
          1 0001FD  BBC7 0056                            LAB,B3   CONSTPTR$+3,AUTO
          1 0001FF  CBF0 0300                            LAB,B4   768,IMO
          1 000201  E380 0000 0000  xent                 LNJ,B6   GDI$SEND_ERROR_RESPONSE
          1 000204       0001                            DC       s:13221,PREL

      936    13221    3                 GD_DATA.GD.STOPT = %G_YES#;

PL6.E3A0      #005=GDB$FIRST_USER_TRAP File=GDB$BRKPNTS.:E05TSI                  TUE 07/29/97 21:24 Page:177
  13221   1 000205  EC80 0000 0000  xsym                 LDB,B6   GD$DELTA_DATA$
          1 000208  8946 014C                            LBT,'0004'X       332,B6
          1 00020A       0004

      937    13222    3                 GOTO CALLGDI;

  13222   1 00020B  0F81 04C5                            B        s:13534,PREL

      938    13223    3                 END;
      939    13224    2              SIZE = %GD#RSPBRKSIZ;

  13224   1 00020D  6C40                                 LDV,R6   64
          1 00020E  EF47 000F                            STR,R6   SIZE,AUTO

      940    13225    2              GD$MSG.FNC = %GD#RSPBRK;

  13225   1 000210  5C2D                                 LDV,R5   45
          1 000211  ECC7 000B                            LDB,B6   MSG$,AUTO
          1 000213  D786                                 STH,R5   ,B6

      941    13226    2              GD$MSG.BRKRSP.ADR$ = GD_DATA.GD.XBRKINFO$->VLP_XBREAK.IC$;

  13226   1 000214  DC80 0000 0000  xsym                 LDB,B5   GD$DELTA_DATA$
          1 000217  CCC5 0154                            LDB,B4   340,B5
          1 000219  BC84                                 LDB,B3   ,B4
          1 00021A  BFC6 0001                            STB,B3   1,B6

      942    13227    2              P$ = GD$MSG.BRKRSP.ADR$;

  13227   1 00021C  BFC7 000D                            STB,B3   P$,AUTO

      943    13228    2              GD$MSG.BRKRSP.TSA$ = ADDR(G$TSA);

  13228   1 00021E  DCC7 0004                            LDB,B5   @G$TSA,AUTO
          1 000220  DFC6 0003                            STB,B5   3,B6

      944    13229    3              IF GD_DATA.GD.XBRKINFO$->VLP_XBREAK.TRAP# = %G_TRACE# THEN DO;
PL6.E3A0      #005=GDB$FIRST_USER_TRAP File=GDB$BRKPNTS.:E05TSI                  TUE 07/29/97 21:24 Page:178

  13229   1 000222  CC80 0000 0000  xsym                 LDB,B4   GD$DELTA_DATA$
          1 000225  BCC4 0154                            LDB,B3   340,B4
          1 000227  C2C3 0006                            LLH,R4   6,B3
          1 000229  4D02                                 CMV,R4   2
          1 00022A  0981 0098                            BNE      s:13267,PREL

      945    13230    3                 IF GD_DATA.GD.XBRKINFO$->VLP_XBREAK.TC OR

  13230   1 00022C  82C3 0006                            LB,'0010'X        6,B3
  13230   1 00022E       0010
          1 00022F  0501 000B                            BBT      s:13233,PREL
          1 000231  82C3 0006                            LB,'0080'X        6,B3
          1 000233       0080
          1 000234  0581 0028                            BBF      s:13241,PREL
          1 000236  B844 0153                            LDR,R3   339,B4
          1 000238  3D01                                 CMV,R3   1
          1 000239  0981 0023                            BNE      s:13241,PREL

      946    13231    3                    (GD_DATA.GD.XBRKINFO$->VLP_XBREAK.TT AND
      947    13232    4                     GD_DATA.GD.TRACE = %TRACE_XFERS) THEN DO;

      948    13233    4                    GD$MSG.FNC = %GD#RSPTRACE;

  13233   1 00023B  3C24                                 LDV,R3   36
          1 00023C  B786                                 STH,R3   ,B6

      949    13234    4                    GD$MSG.BRKRSP.ADR$ = P$;

  13234   1 00023D  CCC7 000D                            LDB,B4   P$,AUTO
          1 00023F  CFC6 0001                            STB,B4   1,B6

      950    13235    4                    GD$MSG.BRKRSP.ADR_FROM$ =

  13235   1 000241  BC80 0000 0000  xsym                 LDB,B3   GD$DELTA_DATA$
          1 000244  ACC3 0154                            LDB,B2   340,B3
          1 000246  9CC2 0002                            LDB,B1   2,B2
PL6.E3A0      #005=GDB$FIRST_USER_TRAP File=GDB$BRKPNTS.:E05TSI                  TUE 07/29/97 21:24 Page:179
          1 000248  9FC6 001A                            STB,B1   26,B6

      951    13236    4                       GD_DATA.GD.XBRKINFO$->VLP_XBREAK.OLDIC$;
      952    13237    4                    SIZE = %GD#RSPBRKSIZ;

  13237   1 00024A  EF47 000F                            STR,R6   SIZE,AUTO

      953    13238    4                    CALL GDI$SEND_RESPONSE(SIZE,MSGBFR);

  13238   1 00024C  EFC7 0058                            STB,B6   CONSTPTR$+5,AUTO
          1 00024E  CBC7 000F                            LAB,B4   SIZE,AUTO
          1 000250  CFC7 0056                            STB,B4   CONSTPTR$+3,AUTO
          1 000252  BBC7 0056                            LAB,B3   CONSTPTR$+3,AUTO
          1 000254  CBF0 0200                            LAB,B4   512,IMO
          1 000256  E380 0000 0000  xent                 LNJ,B6   GDI$SEND_RESPONSE
          1 000259       0001                            DC       s:13239,PREL

      954    13239    4                    ALTRETURN;

  13239   1 00025A  C380 0000 0000  xent                 LNJ,B4   X6A_AALT

      955    13240    4                    END;
      956    13241    3                 ELSE GD_DATA.GD.XBRKINFO$ -> VLP_XBREAK.TT = '0'B;

  13241   1 00025D  8843 0006                            LBF,'0080'X       6,B3
  13241   1 00025F       0080

      957    13242    4                 CALL SRCHFORBRKPNT(BRK$,P$) WHENRETURN DO;

  13242   1 000260  BBC7 000D                            LAB,B3   P$,AUTO
          1 000262  BFC7 001C                            STB,B3   @BRK$+2,AUTO
          1 000264  ABC7 0006                            LAB,B2   BRK$,AUTO
          1 000266  AFC7 001A                            STB,B2   ERRCODE_SCRATCH+4,AUTO
          1 000268  E3C0 076D                            LNJ,B6   s:0,PREL
          1 00026A       0048                            DC       s:13262,PREL

      958    13243    4                    BRKNUM = BRK$->BRKPNT.BRKNUM;
PL6.E3A0      #005=GDB$FIRST_USER_TRAP File=GDB$BRKPNTS.:E05TSI                  TUE 07/29/97 21:24 Page:180

  13243   1 00026B  ECC7 0006                            LDB,B6   BRK$,AUTO
          1 00026D  E846 0002                            LDR,R6   2,B6
          1 00026F  EF47 0008                            STR,R6   BRKNUM,AUTO

      959    13244    4                    GD$MSG.BRKRSP.TRAP# = BRKNUM;

  13244   1 000271  DCC7 000B                            LDB,B5   MSG$,AUTO
          1 000273  EF45 0005                            STR,R6   5,B5

      960    13245    4                    IF BRK$->BRKPNT.BYPASSCOUNT > 0 THEN

  13245   1 000275  ECC7 0006                            LDB,B6   BRK$,AUTO
          1 000277  D846 0003                            LDR,R5   3,B6
          1 000279  5901 0025                            BEZ,R5   s:13256,PREL

      961    13246    5                       IF BRK$->BRKPNT.CUR_BYPASSCOUNT > 0 THEN DO;

  13246   1 00027B  C846 0004                            LDR,R4   4,B6
          1 00027D  4901 001E                            BEZ,R4   s:13255,PREL

      962    13247    5                         BRK$->BRKPNT.CUR_BYPASSCOUNT = BRK$->BRKPNT.CUR_BYPASSCOUNT -
             13247                                   1;

  13247   1 00027F  88C6 0004                            DEC      4,B6

      963    13248    5   JUSTKIDDING:
      964    13249    5                          GD_DATA.GD.XBRKINFO$->VLP_XBREAK.REPLACED.INSTR = BRK$->
             13249                                   BRKPNT.OLDINST;

  13249   1 000281  EC80 0000 0000  xsym JUSTKIDDING     LDB,B6   GD$DELTA_DATA$
          1 000284  DCC6 0154                            LDB,B5   340,B6
          1 000286  CCC7 0006                            LDB,B4   BRK$,AUTO
          1 000288  E844 0007                            LDR,R6   7,B4
          1 00028A  EF45 0003                            STR,R6   3,B5

      965    13250    5                          GD_DATA.GD.XBRKINFO$->VLP_XBREAK.GOBREAK = '1'B;
PL6.E3A0      #005=GDB$FIRST_USER_TRAP File=GDB$BRKPNTS.:E05TSI                  TUE 07/29/97 21:24 Page:181

  13250   1 00028C  DCC6 0154                            LDB,B5   340,B6
          1 00028E  8945 0006                            LBT,'0020'X       6,B5
          1 000290       0020

      966    13251    5                          G$TSA.P$ = PINCRW(G$TSA.P$,1);

  13251   1 000291  DCC7 0004                            LDB,B5   @G$TSA,AUTO
          1 000293  CCC5 0008                            LDB,B4   8,B5
          1 000295  BBC4 0001                            LAB,B3   1,B4
          1 000297  BFC5 0008                            STB,B3   8,B5

      967    13252    5                          ALTRETURN;

  13252   1 000299  C380 0000 0000  xent                 LNJ,B4   X6A_AALT

      968    13253    5                          END;
      969    13254    4                       ELSE
      970    13255    4                          BRK$->BRKPNT.CUR_BYPASSCOUNT = BRK$->BRKPNT.BYPASSCOUNT;

  13255   1 00029C  C855                                 LDR,R4   R5
          1 00029D  CF46 0004                            STR,R4   4,B6

      971    13256    4                    IF BRK$->BRKPNT.FLAGS.IFCOND THEN

  13256   1 00029F  ECC7 0006                            LDB,B6   BRK$,AUTO
          1 0002A1  82C6 000A                            LB,'1000'X        10,B6
          1 0002A3       1000
          1 0002A4  0581 000B                            BBF      s:13260,PREL

      972    13257    5                       CALL CMPRIF(BRK$) WHENALTRETURN DO;

  13257   1 0002A6  CBC7 0006                            LAB,B4   BRK$,AUTO
          1 0002A8  CFC7 001A                            STB,B4   ERRCODE_SCRATCH+4,AUTO
          1 0002AA  E3C0 0766                            LNJ,B6   s:0,PREL
          1 0002AC       0003                            DC       s:13258,PREL
          1 0002AD  0F81 0002                            B        s:13260,PREL
PL6.E3A0      #005=GDB$FIRST_USER_TRAP File=GDB$BRKPNTS.:E05TSI                  TUE 07/29/97 21:24 Page:182

      973    13258    5                          GOTO JUSTKIDDING;

  13258   1 0002AF  0FD2                                 B        s:13249,SPREL

      974    13259    5                          END;
      975    13260    4                    END;

  13260   1 0002B0  0F81 0010                            B        s:13266,PREL

      976    13261    4                 WHENALTRETURN DO;

      977    13262    4                    BRKNUM = %GD#MAXBRKNUM + 1;

  13262   1 0002B2  6C15                                 LDV,R6   21
          1 0002B3  EF47 0008                            STR,R6   BRKNUM,AUTO

      978    13263    4                    GD$MSG.BRKRSP.TRAP# = GD_DATA.GD.XBRKINFO$->VLP_XBREAK.TRAP# +

  13263   1 0002B5  EC80 0000 0000  xsym                 LDB,B6   GD$DELTA_DATA$
          1 0002B8  DCC6 0154                            LDB,B5   340,B6
          1 0002BA  CCC7 000B                            LDB,B4   MSG$,AUTO
          1 0002BC  D2C5 0006                            LLH,R5   6,B5
          1 0002BE  5E15                                 ADV,R5   21
          1 0002BF  DF44 0005                            STR,R5   5,B4

      979    13264    4                       %GD#MAXBRKNUM + 1;
      980    13265    4                    END;

      981    13266    3                 END;

  13266   1 0002C1  0F81 0005                            B        s:13268,PREL

      982    13267    2              ELSE GD$MSG.BRKRSP.TRAP# = BRKNUM;

  13267   1 0002C3  B847 0008                            LDR,R3   BRKNUM,AUTO
          1 0002C5  BF46 0005                            STR,R3   5,B6
PL6.E3A0      #005=GDB$FIRST_USER_TRAP File=GDB$BRKPNTS.:E05TSI                  TUE 07/29/97 21:24 Page:183

      983    13268    2              GD$MSG.BRKRSP.DATA_SIZE = 0;

  13268   1 0002C7  ECC7 000B                            LDB,B6   MSG$,AUTO
          1 0002C9  87C6 0019                            CLH      25,B6

      984    13269    2              CALL GDI$SEND_RESPONSE(SIZE,MSGBFR);

  13269   1 0002CB  EFC7 0058                            STB,B6   CONSTPTR$+5,AUTO
          1 0002CD  DBC7 000F                            LAB,B5   SIZE,AUTO
          1 0002CF  DFC7 0056                            STB,B5   CONSTPTR$+3,AUTO
          1 0002D1  BBC7 0056                            LAB,B3   CONSTPTR$+3,AUTO
          1 0002D3  CBF0 0200                            LAB,B4   512,IMO
          1 0002D5  E380 0000 0000  xent                 LNJ,B6   GDI$SEND_RESPONSE
          1 0002D8       0001                            DC       s:13270,PREL

      985    13270    2              GD_DATA.GD.STOPT = '1'B;

  13270   1 0002D9  EC80 0000 0000  xsym                 LDB,B6   GD$DELTA_DATA$
          1 0002DC  8946 014C                            LBT,'0004'X       332,B6
          1 0002DE       0004

      986    13271    2              CALL GDB$RESET_BRKPNT;

  13271   1 0002DF  CBF0 0000                            LAB,B4   0,IMO
          1 0002E1  E380 0000 0000  xent                 LNJ,B6   GDB$RESET_BRKPNT
          1 0002E4       0001                            DC       s:13272,PREL

      987    13272    2              GOTO CALLGDI;

  13272   1 0002E5  0F81 03EB                            B        s:13534,PREL

      988    13273    2              END;
      989    13274    2          IF G$TSA.I.TRAP# = %GD#ENTRY_TRAP# AND G$TSA.INST ~= %GD#BREAK_INST THEN DO;

  13274   1 0002E7  6D02                                 CMV,R6   2
          1 0002E8  0981 0218                            BNE      s:13397,PREL
PL6.E3A0      #005=GDB$FIRST_USER_TRAP File=GDB$BRKPNTS.:E05TSI                  TUE 07/29/97 21:24 Page:184
          1 0002EA  D846 0004                            LDR,R5   4,B6
          1 0002EC  D970 0002                            CMR,R5   2,IMO
          1 0002EE  0901 0212                            BE       s:13397,PREL

      990    13275    3              IF GD_DATA.GD.ONCALL THEN DO;

  13275   1 0002F0  DC80 0000 0000  xsym                 LDB,B5   GD$DELTA_DATA$
          1 0002F3  82C5 014C                            LB,'0800'X        332,B5
          1 0002F5       0800
          1 0002F6  0581 0029                            BBF      s:13285,PREL

      991    13276    3                 P$ = G$TSA.P$;

  13276   1 0002F8  CCC6 0008                            LDB,B4   8,B6
          1 0002FA  CFC7 000D                            STB,B4   P$,AUTO

      992    13277    3                 CALL SRCHFORBRKPNT(BRK$,P$)

  13277   1 0002FC  BBC7 000D                            LAB,B3   P$,AUTO
          1 0002FE  BFC7 001C                            STB,B3   @BRK$+2,AUTO
          1 000300  ABC7 0006                            LAB,B2   BRK$,AUTO
          1 000302  AFC7 001A                            STB,B2   ERRCODE_SCRATCH+4,AUTO
          1 000304  E3C0 06D1                            LNJ,B6   s:0,PREL
          1 000306       001A                            DC       s:13285,PREL

      993    13278    4                   WHENRETURN DO;

      994    13279    4                     GD$MSG.BRKRSP.ADR_FROM$ = PINCRW(G$TSA.A$,-G$TSA.Z.IS);

  13279   1 000307  ECC7 0004                            LDB,B6   @G$TSA,AUTO
          1 000309  B846 0005                            LDR,R3   5,B6
          1 00030B  B570 000F                            AND,R3   15,IMO
          1 00030D  DCC6 0006                            LDB,B5   6,B6
          1 00030F  8253                                 NEG      R3
          1 000310  CBB5                                 LAB,B4   ,B5,R3
          1 000311  BCC7 000B                            LDB,B3   MSG$,AUTO
          1 000313  CFC3 001A                            STB,B4   26,B3
PL6.E3A0      #005=GDB$FIRST_USER_TRAP File=GDB$BRKPNTS.:E05TSI                  TUE 07/29/97 21:24 Page:185

      995    13280    4                     G$TSA.Z.IS = 0;

  13280   1 000315  8846 0005                            LBF,'000F'X       5,B6
  13280   1 000317       000F

      996    13281    4                     BRKNUM = BRK$->BRKPNT.BRKNUM;

  13281   1 000318  DCC7 0006                            LDB,B5   BRK$,AUTO
          1 00031A  E845 0002                            LDR,R6   2,B5
          1 00031C  EF47 0008                            STR,R6   BRKNUM,AUTO

      997    13282    4                     GOTO CHECK_BYPASS;

  13282   1 00031E  0F81 024F                            B        s:13417,PREL

      998    13283    4                     END;
      999    13284    3                 END;

     1000    13285    2              IF GD_DATA.GD.ONCALLS AND (PINCRW(G$TSA.A$,-G$TSA.Z.IS)->BITMEM&'FF80'X)
             13285                       =

  13285   1 000320  EC80 0000 0000  xsym                 LDB,B6   GD$DELTA_DATA$
          1 000323  82C6 014C                            LB,'1000'X        332,B6
          1 000325       1000
          1 000326  0581 0030                            BBF      s:13293,PREL
          1 000328  DCC7 0004                            LDB,B5   @G$TSA,AUTO
          1 00032A  B845 0005                            LDR,R3   5,B5
          1 00032C  B570 000F                            AND,R3   15,IMO
          1 00032E  CCC5 0006                            LDB,B4   6,B5
          1 000330  BF47 0056                            STR,R3   CONSTPTR$+3,AUTO
          1 000332  8253                                 NEG      R3
          1 000333  B847 0056                            LDR,R3   CONSTPTR$+3,AUTO
          1 000335  8253                                 NEG      R3
          1 000336  E834                                 LDR,R6   ,B4,R3
          1 000337  E570 FF80                            AND,R6   -128,IMO
          1 000339  E970 E380                            CMR,R6   -7296,IMO
PL6.E3A0      #005=GDB$FIRST_USER_TRAP File=GDB$BRKPNTS.:E05TSI                  TUE 07/29/97 21:24 Page:186
          1 00033B  0981 001B                            BNE      s:13293,PREL

     1001    13286    3                 %GD#LNJB6_INST THEN DO;

     1002    13287    3                 P$ = G$TSA.P$;

  13287   1 00033D  CCC5 0008                            LDB,B4   8,B5
          1 00033F  CFC7 000D                            STB,B4   P$,AUTO

     1003    13288    3                 GD$MSG.BRKRSP.ADR_FROM$ = PINCRW(G$TSA.A$,-G$TSA.Z.IS);

  13288   1 000341  A845 0005                            LDR,R2   5,B5
          1 000343  A570 000F                            AND,R2   15,IMO
          1 000345  BCC5 0006                            LDB,B3   6,B5
          1 000347  8252                                 NEG      R2
          1 000348  ABA3                                 LAB,B2   ,B3,R2
          1 000349  9CC7 000B                            LDB,B1   MSG$,AUTO
          1 00034B  AFC1 001A                            STB,B2   26,B1

     1004    13289    3                 BRKNUM = GD_DATA.GD.OC_BRKNUM;

  13289   1 00034D  E846 0131                            LDR,R6   305,B6
          1 00034F  EF47 0008                            STR,R6   BRKNUM,AUTO

     1005    13290    3                 BRK$=GD_DATA.GD.ONCALLS_BRK$;

  13290   1 000351  BCC6 0135                            LDB,B3   309,B6
          1 000353  BFC7 0006                            STB,B3   BRK$,AUTO

     1006    13291    3                 GOTO CHECK_BYPASS;

  13291   1 000355  0F81 0218                            B        s:13417,PREL

     1007    13292    3                 END;
     1008    13293    3              IF GD_DATA.GD.TRACE ~= %TRACE_OFF THEN DO;

  13293   1 000357  E846 0153                            LDR,R6   339,B6
PL6.E3A0      #005=GDB$FIRST_USER_TRAP File=GDB$BRKPNTS.:E05TSI                  TUE 07/29/97 21:24 Page:187
          1 000359  6901 006D                            BEZ,R6   s:13319,PREL

     1009    13294    4                 DO CASE(GD_DATA.GD.TRACE);

  13294   1 00035B  B856                                 LDR,R3   R6
          1 00035C  3D03                                 CMV,R3   3
          1 00035D  0281 003C                            BGE      s:13306,PREL
          1 00035F  A830 0000 0365  01                   LDR,R2   s:13294+10,R3
          1 000362  83A0 0000 0368  01                   JMP      s:13296,R2
          1 000365       0032                            DC       s:13306,PREL
          1 000366       0030                            DC       s:13304,PREL
          1 000367       0000                            DC       s:13296,PREL

     1010    13295    4                    CASE(%TRACE_CALLS);

     1011    13296    4                       P$ = PINCRW(G$TSA.A$,-G$TSA.Z.IS);

  13296   1 000368  DCC7 0004                            LDB,B5   @G$TSA,AUTO
          1 00036A  9845 0005                            LDR,R1   5,B5
          1 00036C  9570 000F                            AND,R1   15,IMO
          1 00036E  CCC5 0006                            LDB,B4   6,B5
          1 000370  8251                                 NEG      R1
          1 000371  BB94                                 LAB,B3   ,B4,R1
          1 000372  BFC7 000D                            STB,B3   P$,AUTO

     1012    13297    4                       CALL GDU$SETUP_WINDOW_USER(P$,GD_DATA.GD.USERNO)

  13297   1 000374  CBC6 016B                            LAB,B4   363,B6
          1 000376  CFC7 0058                            STB,B4   CONSTPTR$+5,AUTO
          1 000378  ABC7 000D                            LAB,B2   P$,AUTO
          1 00037A  AFC7 0056                            STB,B2   CONSTPTR$+3,AUTO
          1 00037C  BBC7 0056                            LAB,B3   CONSTPTR$+3,AUTO
          1 00037E  CBF0 0200                            LAB,B4   512,IMO
          1 000380  E380 0000 0000  xent                 LNJ,B6   GDU$SETUP_WINDOW_USER
          1 000383       0003                            DC       s:13299,PREL
          1 000384  0F81 0011                            B        s:13302,PREL

PL6.E3A0      #005=GDB$FIRST_USER_TRAP File=GDB$BRKPNTS.:E05TSI                  TUE 07/29/97 21:24 Page:188
     1013    13298    5                       WHENALTRETURN DO;

     1014    13299    5                       IF (P$->BITMEM & 'FF80'X) ~= %GD#LNJB6_INST THEN

  13299   1 000386  ECC7 000D                            LDB,B6   P$,AUTO
          1 000388  E806                                 LDR,R6   ,B6
          1 000389  E570 FF80                            AND,R6   -128,IMO
          1 00038B  E970 E380                            CMR,R6   -7296,IMO
          1 00038D  0901 0008                            BE       s:13302,PREL

     1015    13300    5                          IF ADDR(GD_DATA.GD.VLD)->GH_VLD.STATUS < 0 THEN

  13300   1 00038F  DC80 0000 0000  xsym                 LDB,B5   GD$DELTA_DATA$
          1 000392  E845 0173                            LDR,R6   371,B5
          1 000394  6801 0032                            BLZ,R6   s:13319,PREL

     1016    13301    5                             GOTO NOTRACE;
     1017    13302    5                          END;

  13302   1 000396  0F81 0005                            B        s:13308,PREL

     1018    13303    4                    CASE(%TRACE_XFERS);

     1019    13304    4                       GOTO SENDTRACERSP;

  13304   1 000398  0F81 0003                            B        s:13308,PREL

     1020    13305    4                    CASE(ELSE);

     1021    13306    4                       GOTO NOTRACE;

  13306   1 00039A  0F81 002C                            B        s:13319,PREL

     1022    13307        /*N* BAD TRACE VALUE */
     1023    13308    4                    END /* CASE */;

     1024    13309    3   SENDTRACERSP:
PL6.E3A0      #005=GDB$FIRST_USER_TRAP File=GDB$BRKPNTS.:E05TSI                  TUE 07/29/97 21:24 Page:189
     1025    13310    3                 GD$MSG.FNC = %GD#RSPTRACE;

  13310   1 00039C  6C24                 SENDTRACERSP    LDV,R6   36
          1 00039D  ECC7 000B                            LDB,B6   MSG$,AUTO
          1 00039F  E786                                 STH,R6   ,B6

     1026    13311    3                 GD$MSG.BRKRSP.ADR$ = G$TSA.P$;

  13311   1 0003A0  DCC7 0004                            LDB,B5   @G$TSA,AUTO
          1 0003A2  CCC5 0008                            LDB,B4   8,B5
          1 0003A4  CFC6 0001                            STB,B4   1,B6

     1027    13312    3                 GD$MSG.BRKRSP.ADR_FROM$ = PINCRW(G$TSA.A$,-G$TSA.Z.IS);

  13312   1 0003A6  B845 0005                            LDR,R3   5,B5
          1 0003A8  B570 000F                            AND,R3   15,IMO
          1 0003AA  BCC5 0006                            LDB,B3   6,B5
          1 0003AC  8253                                 NEG      R3
          1 0003AD  ABB3                                 LAB,B2   ,B3,R3
          1 0003AE  AFC6 001A                            STB,B2   26,B6

     1028    13313    3                 G$TSA.ISA.REGS.M1.J = %G_ENABLE#;

  13313   1 0003B0  8945 002E                            LBT,'0080'X       46,B5
  13313   1 0003B2       0080

     1029    13314    3                 SIZE = %GD#RSPBRKSIZ;

  13314   1 0003B3  5C40                                 LDV,R5   64
          1 0003B4  DF47 000F                            STR,R5   SIZE,AUTO

     1030    13315    3                 CALL GDI$SEND_RESPONSE(SIZE,MSGBFR);

  13315   1 0003B6  EFC7 0058                            STB,B6   CONSTPTR$+5,AUTO
          1 0003B8  CBC7 000F                            LAB,B4   SIZE,AUTO
          1 0003BA  CFC7 0056                            STB,B4   CONSTPTR$+3,AUTO
          1 0003BC  BBC7 0056                            LAB,B3   CONSTPTR$+3,AUTO
PL6.E3A0      #005=GDB$FIRST_USER_TRAP File=GDB$BRKPNTS.:E05TSI                  TUE 07/29/97 21:24 Page:190
          1 0003BE  CBF0 0200                            LAB,B4   512,IMO
          1 0003C0  E380 0000 0000  xent                 LNJ,B6   GDI$SEND_RESPONSE
          1 0003C3       0001                            DC       s:13316,PREL

     1031    13316    3                 ALTRETURN;

  13316   1 0003C4  C380 0000 0000  xent                 LNJ,B4   X6A_AALT

     1032    13317    3                 END /* CHECK TRACE */;
     1033    13318    2   NOTRACE:
     1034    13319    3              IF GD_DATA.GD.SOC AND (G$TSA.INST&'FF80'X)= %GD#LNJB6_INST THEN DO;

  13319   1 0003C7  EC80 0000 0000  xsym NOTRACE         LDB,B6   GD$DELTA_DATA$
          1 0003CA  82C6 014C                            LB,'0080'X        332,B6
          1 0003CC       0080
          1 0003CD  0581 00C6                            BBF      s:13358,PREL
          1 0003CF  DCC7 0004                            LDB,B5   @G$TSA,AUTO
          1 0003D1  E845 0004                            LDR,R6   4,B5
          1 0003D3  E570 FF80                            AND,R6   -128,IMO
          1 0003D5  E970 E380                            CMR,R6   -7296,IMO
          1 0003D7  0981 00BC                            BNE      s:13358,PREL

     1035    13320    3                 P$ = PINCRW(G$TSA.A$,-G$TSA.Z.IS);

  13320   1 0003D9  B845 0005                            LDR,R3   5,B5
          1 0003DB  B570 000F                            AND,R3   15,IMO
          1 0003DD  CCC5 0006                            LDB,B4   6,B5
          1 0003DF  8253                                 NEG      R3
          1 0003E0  BBB4                                 LAB,B3   ,B4,R3
          1 0003E1  BFC7 000D                            STB,B3   P$,AUTO

     1036    13321    3                 GD_DATA.GD.SOC_BRKPNT.ADR$=PINCRW(G$TSA.A$,G$TSA.A$->MEMORY);

  13321   1 0003E3  CCC5 0006                            LDB,B4   6,B5
          1 0003E5  B804                                 LDR,R3   ,B4
          1 0003E6  CFC7 0056                            STB,B4   CONSTPTR$+3,AUTO
          1 0003E8  F853                                 LDR,R7   R3
PL6.E3A0      #005=GDB$FIRST_USER_TRAP File=GDB$BRKPNTS.:E05TSI                  TUE 07/29/97 21:24 Page:191
          1 0003E9  6C00                                 LDV,R6   0
          1 0003EA  8447 0056                            AID      CONSTPTR$+3,AUTO
          1 0003EC  8D46 0163                            SDI      355,B6

     1037    13322    4                IF GD_DATA.GD.SOC_BRKPNT.ADR$ = GD_DATA.GD.STEP_BRKPNT.ADR$ AND G$TSA.
             13322                          A$->MEMORY ~= 1 THEN DO;

  13322   1 0003EE  ACC6 0163                            LDB,B2   355,B6
          1 0003F0  ADC6 015B                            CMB,B2   347,B6
          1 0003F2  0981 0050                            BNE      s:13333,PREL
          1 0003F4  9CC5 0006                            LDB,B1   6,B5
          1 0003F6  D801                                 LDR,R5   ,B1
          1 0003F7  5D01                                 CMV,R5   1
          1 0003F8  0901 004A                            BE       s:13333,PREL

     1038    13323    4                    PTR$ = GD_DATA.GD.STEP_BRKPNT.ADR$;

  13323   1 0003FA  DCC6 015B                            LDB,B5   347,B6
          1 0003FC  DFC7 0012                            STB,B5   PTR$,AUTO

     1039    13324    4                    CALL GDU$SETUP_WINDOW_USER(PTR$,GD_DATA.GD.USERNO);

  13324   1 0003FE  9BC6 016B                            LAB,B1   363,B6
          1 000400  9FC7 0058                            STB,B1   CONSTPTR$+5,AUTO
          1 000402  EBC7 0012                            LAB,B6   PTR$,AUTO
          1 000404  EFC7 0056                            STB,B6   CONSTPTR$+3,AUTO
          1 000406  BBC7 0056                            LAB,B3   CONSTPTR$+3,AUTO
          1 000408  CBF0 0200                            LAB,B4   512,IMO
          1 00040A  E380 0000 0000  xent                 LNJ,B6   GDU$SETUP_WINDOW_USER
          1 00040D       0001                            DC       s:13325,PREL

     1040    13325    4                    PTR$->MEMORY = GD_DATA.GD.STEP_BRKPNT.OLDINST;

  13325   1 00040E  ECC7 0012                            LDB,B6   PTR$,AUTO
          1 000410  DC80 0000 0000  xsym                 LDB,B5   GD$DELTA_DATA$
          1 000413  E845 015F                            LDR,R6   351,B5
          1 000415  EF06                                 STR,R6   ,B6
PL6.E3A0      #005=GDB$FIRST_USER_TRAP File=GDB$BRKPNTS.:E05TSI                  TUE 07/29/97 21:24 Page:192

     1041    13326    4                    GD_DATA.GD.STEP_BRKPNT.ADR$ = PINCRW(G$TSA.A$,1);

  13326   1 000416  ECC7 0004                            LDB,B6   @G$TSA,AUTO
          1 000418  DCC6 0006                            LDB,B5   6,B6
          1 00041A  CBC5 0001                            LAB,B4   1,B5
          1 00041C  BC80 0000 0000  xsym                 LDB,B3   GD$DELTA_DATA$
          1 00041F  CFC3 015B                            STB,B4   347,B3

     1042    13327    4                    PTR$ = GD_DATA.GD.STEP_BRKPNT.ADR$;

  13327   1 000421  CFC7 0012                            STB,B4   PTR$,AUTO

     1043    13328    4                    CALL GDU$SETUP_WINDOW_USER(PTR$,GD_DATA.GD.USERNO);

  13328   1 000423  DBC3 016B                            LAB,B5   363,B3
          1 000425  DFC7 0058                            STB,B5   CONSTPTR$+5,AUTO
          1 000427  ABC7 0012                            LAB,B2   PTR$,AUTO
          1 000429  AFC7 0056                            STB,B2   CONSTPTR$+3,AUTO
          1 00042B  BBC7 0056                            LAB,B3   CONSTPTR$+3,AUTO
          1 00042D  CBF0 0200                            LAB,B4   512,IMO
          1 00042F  E380 0000 0000  xent                 LNJ,B6   GDU$SETUP_WINDOW_USER
          1 000432       0001                            DC       s:13329,PREL

     1044    13329    4                    GD_DATA.GD.STEP_BRKPNT.OLDINST = PTR$->MEMORY;

  13329   1 000433  EC80 0000 0000  xsym                 LDB,B6   GD$DELTA_DATA$
          1 000436  DCC7 0012                            LDB,B5   PTR$,AUTO
          1 000438  E805                                 LDR,R6   ,B5
          1 000439  EF46 015F                            STR,R6   351,B6

     1045    13330    4                    PTR$->BITMEM = %GD#BREAK_INST;

  13330   1 00043B  5C02                                 LDV,R5   2
          1 00043C  DF05                                 STR,R5   ,B5

     1046    13331    4                    GD_DATA.GD.GO_AGAIN = '1'B;
PL6.E3A0      #005=GDB$FIRST_USER_TRAP File=GDB$BRKPNTS.:E05TSI                  TUE 07/29/97 21:24 Page:193

  13331   1 00043D  EC80 0000 0000  xsym                 LDB,B6   GD$DELTA_DATA$
          1 000440  8946 014D                            LBT,'4000'X       333,B6
          1 000442       4000

     1047    13332    4                    END;

     1048    13333    3                 IF MON THEN

  13333   1 000443  89C7 0015                            CMZ      MON,AUTO
          1 000445  0881 0005                            BAGE     s:13336,PREL

     1049    13334    3                    GD_DATA.GD.SOC_BRKPNT.USER# = 0;

  13334   1 000447  8746 0166                            CL       358,B6
          1 000449  0F81 0005                            B        s:13337,PREL

     1050    13335    3                 ELSE
     1051    13336    3                    GD_DATA.GD.SOC_BRKPNT.USER# = GD_DATA.GD.USE_USERNO;

  13336   1 00044B  E846 014B                            LDR,R6   331,B6
          1 00044D  EF46 0166                            STR,R6   358,B6

     1052    13337    3                 ADR$ = GD_DATA.GD.SOC_BRKPNT.ADR$;

  13337   1 00044F  DCC6 0163                            LDB,B5   355,B6
          1 000451  DFC7 0010                            STB,B5   ADR$,AUTO

     1053    13338    3                 PTR$ = ADR$;

  13338   1 000453  DFC7 0012                            STB,B5   PTR$,AUTO

     1054    13339    3                 GD_DATA.GD.SOC = '0'B;

  13339   1 000455  8846 014C                            LBF,'0080'X       332,B6
  13339   1 000457       0080

PL6.E3A0      #005=GDB$FIRST_USER_TRAP File=GDB$BRKPNTS.:E05TSI                  TUE 07/29/97 21:24 Page:194
     1055    13340    3                 CALL GDU$SETUP_WINDOW_USER(ADR$,GD_DATA.GD.SOC_BRKPNT.USER#)

  13340   1 000458  CBC6 0166                            LAB,B4   358,B6
          1 00045A  CFC7 0058                            STB,B4   CONSTPTR$+5,AUTO
          1 00045C  BBC7 0010                            LAB,B3   ADR$,AUTO
          1 00045E  BFC7 0056                            STB,B3   CONSTPTR$+3,AUTO
          1 000460  BBC7 0056                            LAB,B3   CONSTPTR$+3,AUTO
          1 000462  CBF0 0200                            LAB,B4   512,IMO
          1 000464  E380 0000 0000  xent                 LNJ,B6   GDU$SETUP_WINDOW_USER
          1 000467       002A                            DC       s:13353,PREL

     1056    13341    4                 WHENRETURN DO;

     1057    13342    4                    CALL SRCHFORBRKPNT (BRK$, PTR$)

  13342   1 000468  EBC7 0012                            LAB,B6   PTR$,AUTO
          1 00046A  EFC7 001C                            STB,B6   @BRK$+2,AUTO
          1 00046C  DBC7 0006                            LAB,B5   BRK$,AUTO
          1 00046E  DFC7 001A                            STB,B5   ERRCODE_SCRATCH+4,AUTO
          1 000470  E3C0 0565                            LNJ,B6   s:0,PREL
          1 000472       000C                            DC       s:13347,PREL

     1058    13343    5                    WHENRETURN DO;

     1059    13344    5                        GD_DATA.GD.SOC_BRKPNT.OLDINST = BRK$->BRKPNT.OLDINST;

  13344   1 000473  EC80 0000 0000  xsym                 LDB,B6   GD$DELTA_DATA$
          1 000476  DCC7 0006                            LDB,B5   BRK$,AUTO
          1 000478  E845 0007                            LDR,R6   7,B5
          1 00047A  EF46 0165                            STR,R6   357,B6

     1060    13345    5                       END;

  13345   1 00047C  0F81 000B                            B        s:13350,PREL

     1061    13346    5                    WHENALTRETURN DO;

PL6.E3A0      #005=GDB$FIRST_USER_TRAP File=GDB$BRKPNTS.:E05TSI                  TUE 07/29/97 21:24 Page:195
     1062    13347    5                         GD_DATA.GD.SOC_BRKPNT.OLDINST = ADR$->MEMORY;

  13347   1 00047E  EC80 0000 0000  xsym                 LDB,B6   GD$DELTA_DATA$
          1 000481  DCC7 0010                            LDB,B5   ADR$,AUTO
          1 000483  E805                                 LDR,R6   ,B5
          1 000484  EF46 0165                            STR,R6   357,B6

     1063    13348    5                         ADR$->BITMEM = %GD#BREAK_INST;

  13348   1 000486  5C02                                 LDV,R5   2
          1 000487  DF05                                 STR,R5   ,B5

     1064    13349    5                       END;

     1065    13350    4                    GD_DATA.GD.SOC_BRKPNT.FLAGS.ACTIVE = '1'B;

  13350   1 000488  EC80 0000 0000  xsym                 LDB,B6   GD$DELTA_DATA$
          1 00048B  8946 0167                            LBT,'8000'X       359,B6
          1 00048D       8000

     1066    13351    4                    GD_DATA.GD.SOC_BRKPNT.FLAGS.ARMED = '1'B;

  13351   1 00048E  8946 0167                            LBT,'4000'X       359,B6
  13351   1 000490       4000

     1067    13352    4                    END;

     1068    13353    3                 ALTRETURN;

  13353   1 000491  C380 0000 0000  xent                 LNJ,B4   X6A_AALT

     1069    13354    3                 END;
     1070    13355        /* If this is a transfer while stepping and if the destination of */
     1071    13356        /* the transfer is in the range of start and end of the step then */
     1072    13357        /* just return to the trap handler */
     1073    13358    2              IF GD_DATA.GD.STEP_BRKPNT.FLAGS.ACTIVE AND

PL6.E3A0      #005=GDB$FIRST_USER_TRAP File=GDB$BRKPNTS.:E05TSI                  TUE 07/29/97 21:24 Page:196
  13358   1 000494  89C6 0161                            CMZ      353,B6
          1 000496  0881 001E                            BAGE     s:13367,PREL
          1 000498  82C6 0161                            LB,'4000'X        353,B6
          1 00049A       4000
          1 00049B  0581 0019                            BBF      s:13367,PREL
          1 00049D  DCC7 0004                            LDB,B5   @G$TSA,AUTO
          1 00049F  8CC5 0008                            LDI      8,B5
          1 0004A1  84C6 015D                            SID      349,B6
          1 0004A3  6801 0011                            BLZ,R6   s:13367,PREL
          1 0004A5  8CC5 0008                            LDI      8,B5
          1 0004A7  84C6 015B                            SID      347,B6
          1 0004A9  6A01 000B                            BGZ,R6   s:13367,PREL
          1 0004AB  6801 0003                            BLZ,R6   s:13362,PREL
          1 0004AD  7981 0007                            BNEZ,R7  s:13367,PREL

     1074    13359    2                GD_DATA.GD.STEP_BRKPNT.FLAGS.ARMED AND
     1075    13360    2                G$TSA.P >= GD_DATA.GD.STEP_BRKPNT.START AND
     1076    13361    3                G$TSA.P <= GD_DATA.GD.STEP_BRKPNT.ADR THEN DO;

     1077    13362    3                 G$TSA.ISA.REGS.M1.J = '1'B;

  13362   1 0004AF  8945 002E                            LBT,'0080'X       46,B5
  13362   1 0004B1       0080

     1078    13363    3                 ALTRETURN;

  13363   1 0004B2  C380 0000 0000  xent                 LNJ,B4   X6A_AALT

     1079    13364    3                 END;
     1080    13365        /* If bypass is on and the P-counter points to the library */
     1081    13366        /* then just return to the trap handler */
     1082    13367    2              P$ = G$TSA.P$;

  13367   1 0004B5  DCC7 0004                            LDB,B5   @G$TSA,AUTO
          1 0004B7  CCC5 0008                            LDB,B4   8,B5
          1 0004B9  CFC7 000D                            STB,B4   P$,AUTO

PL6.E3A0      #005=GDB$FIRST_USER_TRAP File=GDB$BRKPNTS.:E05TSI                  TUE 07/29/97 21:24 Page:197
     1083    13368    2              IF GD_DATA.GD.MODE = %GD#MODE_USER_DELTA THEN

  13368   1 0004BB  E846 0130                            LDR,R6   304,B6
          1 0004BD  6D01                                 CMV,R6   1
          1 0004BE  0981 001A                            BNE      s:13379,PREL

     1084    13369    3                 IF G$JIT.SLIB# ~= 0 AND P > %GM_ISR6_BASE THEN DO;

  13369   1 0004C0  BC80 0000 0000  xsym                 LDB,B3   G$JIT$
          1 0004C3  82C3 008C                            LB,'00FF'X        140,B3
          1 0004C5       00FF
          1 0004C6  0581 0012                            BBF      s:13379,PREL
          1 0004C8  8CC7 000D                            LDI      P$,AUTO
          1 0004CA  84F0 0006 0000                       SID      393216,IMO
          1 0004CD  0681 000B                            BCF      s:13379,PREL
          1 0004CF  6981 0003                            BNEZ,R6  s:13370,PREL
          1 0004D1  7901 0007                            BEZ,R7   s:13379,PREL

     1085    13370    3                    G$TSA.ISA.REGS.M1.J = %G_ON#;

  13370   1 0004D3  8945 002E                            LBT,'0080'X       46,B5
  13370   1 0004D5       0080

     1086    13371    3                    ALTRETURN;

  13371   1 0004D6  C380 0000 0000  xent                 LNJ,B4   X6A_AALT

     1087    13372    3                    END;
     1088    13373        /*
     1089    13374           If a branch trace trap occurs when there is no temporery breakpoint
     1090    13375           set, this is just cleanup from a past breakpoint (which was done
     1091    13376           above).  Just go back to the monitor trap handler.
     1092    13377                                                                                      */
     1093    13378    2   GETBRKNUM:
     1094    13379    2              IF NOT(GD_DATA.GD.STEP_BRKPNT.FLAGS.ACTIVE) THEN

  13379   1 0004D9  89C6 0161            GETBRKNUM       CMZ      353,B6
PL6.E3A0      #005=GDB$FIRST_USER_TRAP File=GDB$BRKPNTS.:E05TSI                  TUE 07/29/97 21:24 Page:198
          1 0004DB  0801 0011                            BAL      s:13388,PREL

     1095    13380    3              DO;

     1096    13381    3                 IF GD_DATA.GD.ONCALL OR GD_DATA.GD.ONCALLS THEN

  13381   1 0004DD  82C6 014C                            LB,'0800'X        332,B6
  13381   1 0004DF       0800
          1 0004E0  0501 0006                            BBT      s:13382,PREL
          1 0004E2  82C6 014C                            LB,'1000'X        332,B6
          1 0004E4       1000
          1 0004E5  0581 0004                            BBF      s:13383,PREL

     1097    13382    3                    G$TSA.ISA.REGS.M1.J = %G_ON#;

  13382   1 0004E7  8945 002E                            LBT,'0080'X       46,B5
  13382   1 0004E9       0080

     1098    13383    3                 ALTRETURN;

  13383   1 0004EA  C380 0000 0000  xent                 LNJ,B4   X6A_AALT

     1099    13384    3                 END;
     1100    13385        /*
     1101    13386          We don't modify the P counter on branch trace traps caused by steps
     1102    13387                                                                                      */
     1103    13388    2              P$=G$TSA.P$;

  13388   1 0004ED  BCC5 0008                            LDB,B3   8,B5
          1 0004EF  BFC7 000D                            STB,B3   P$,AUTO

     1104    13389        /*  If we transferred to a breakpoint, we can let it go and
     1105    13390           the breakpoint will cause a trap immediately                            */
     1106    13391    3              CALL SRCHFORBRKPNT(BRK$,P$) WHENRETURN DO;

  13391   1 0004F1  CBC7 000D                            LAB,B4   P$,AUTO
          1 0004F3  CFC7 001C                            STB,B4   @BRK$+2,AUTO
PL6.E3A0      #005=GDB$FIRST_USER_TRAP File=GDB$BRKPNTS.:E05TSI                  TUE 07/29/97 21:24 Page:199
          1 0004F5  ABC7 0006                            LAB,B2   BRK$,AUTO
          1 0004F7  AFC7 001A                            STB,B2   ERRCODE_SCRATCH+4,AUTO
          1 0004F9  E3C0 04DC                            LNJ,B6   s:0,PREL
          1 0004FB       0004                            DC       s:13394,PREL

     1107    13392    3                  ALTRETURN;

  13392   1 0004FC  C380 0000 0000  xent                 LNJ,B4   X6A_AALT

     1108    13393    3                  END;
     1109    13394    2              END;

  13394   1 0004FF  0F81 00E7                            B        s:13451,PREL

     1110    13395    1           ELSE
     1111    13396    2           DO;

     1112    13397    2              P$=G$TSA.P$;

  13397   1 000501  DCC6 0008                            LDB,B5   8,B6
          1 000503  DFC7 000D                            STB,B5   P$,AUTO

     1113    13398    2              IF P > G$TSA.Z.IS THEN

  13398   1 000505  F846 0005                            LDR,R7   5,B6
          1 000507  F570 000F                            AND,R7   15,IMO
          1 000509  6C00                                 LDV,R6   0
          1 00050A  84C7 000D                            SID      P$,AUTO
          1 00050C  0601 000F                            BCT      s:13404,PREL

     1114    13399    2                 P = P - G$TSA.Z.IS;

  13399   1 00050E  F846 0005                            LDR,R7   5,B6
          1 000510  F570 000F                            AND,R7   15,IMO
          1 000512  6C00                                 LDV,R6   0
          1 000513  84C7 000D                            SID      P$,AUTO
          1 000515  8656                                 CPL      R6
PL6.E3A0      #005=GDB$FIRST_USER_TRAP File=GDB$BRKPNTS.:E05TSI                  TUE 07/29/97 21:24 Page:200
          1 000516  8657                                 CPL      R7
          1 000517  8470 0000 0001                       AID      1,IMO
          1 00051A  8D47 000D                            SDI      P$,AUTO

     1115    13400        /*
     1116    13401          If this trap was a breakpoint trap, figure out which breakpoint
     1117    13402          caused us to trap
     1118    13403                                                                                      */
     1119    13404    3              IF GD_DATA.GD.ALTRET_ADR$ ~= ADDR(NIL) THEN DO;

  13404   1 00051C  DC80 0000 0000  xsym                 LDB,B5   GD$DELTA_DATA$
          1 00051F  8DC5 0132                            CMN      306,B5
          1 000521  0901 0034                            BE       s:13413,PREL

     1120    13405    3                    PTR$ = GD_DATA.GD.ALTRET_ADR$;

  13405   1 000523  CCC5 0132                            LDB,B4   306,B5
          1 000525  CFC7 0012                            STB,B4   PTR$,AUTO

     1121    13406    3                 CALL GDU$SETUP_WINDOW_USER(PTR$,GD_DATA.GD.USERNO);

  13406   1 000527  BBC5 016B                            LAB,B3   363,B5
          1 000529  BFC7 0058                            STB,B3   CONSTPTR$+5,AUTO
          1 00052B  ABC7 0012                            LAB,B2   PTR$,AUTO
          1 00052D  AFC7 0056                            STB,B2   CONSTPTR$+3,AUTO
          1 00052F  BBC7 0056                            LAB,B3   CONSTPTR$+3,AUTO
          1 000531  CBF0 0200                            LAB,B4   512,IMO
          1 000533  E380 0000 0000  xent                 LNJ,B6   GDU$SETUP_WINDOW_USER
          1 000536       0001                            DC       s:13407,PREL

     1122    13407    3                 PTR$->MEMORY = GD_DATA.GD.ALTRET_INST;

  13407   1 000537  ECC7 0012                            LDB,B6   PTR$,AUTO
          1 000539  DC80 0000 0000  xsym                 LDB,B5   GD$DELTA_DATA$
          1 00053C  E845 0134                            LDR,R6   308,B5
          1 00053E  EF06                                 STR,R6   ,B6

PL6.E3A0      #005=GDB$FIRST_USER_TRAP File=GDB$BRKPNTS.:E05TSI                  TUE 07/29/97 21:24 Page:201
     1123    13408    3                 IF GD_DATA.GD.ALTRET_ADR$ = GD_DATA.GD.SOC_BRKPNT.ADR$ THEN

  13408   1 00053F  EC80 0000 0000  xsym                 LDB,B6   GD$DELTA_DATA$
          1 000542  DCC6 0132                            LDB,B5   306,B6
          1 000544  DDC6 0163                            CMB,B5   355,B6
          1 000546  0981 0007                            BNE      s:13410,PREL

     1124    13409    3                    GD_DATA.GD.SOC_BRKPNT = '0'B;

  13409   1 000548  5C0A                                 LDV,R5   10
          1 000549  0021                                 ALR      ;
          1 00054A       4178 0000                                ALPHANUM('0000'X,IMO,,1),;
          1 00054C       4006 0163                                ALPHANUM(355,B6,,R5,FILL)

     1125    13410    3                 GD_DATA.GD.ALTRET_ADR$ = ADDR(NIL);

  13410   1 00054E  CB80 0000 0000                       LAB,B4   0
          1 000551  437F                                 CSYNC    s:13410+2,SPREL
          1 000552  CFC6 0132                            STB,B4   306,B6

     1126    13411    3                 GD_DATA.GD.ALTRET_INST = 0;

  13411   1 000554  8746 0134                            CL       308,B6

     1127    13412    3                 END;

     1128    13413    2              IF G$TSA.I.TRAP# = %GD#ENTRY_TRAP# THEN

  13413   1 000556  ECC7 0004                            LDB,B6   @G$TSA,AUTO
          1 000558  E2C6 0002                            LLH,R6   2,B6
          1 00055A  6D02                                 CMV,R6   2
          1 00055B  0981 008B                            BNE      s:13451,PREL

     1129    13414    2                 CALL SRCHFORBRKPNT(BRK$,P$)

  13414   1 00055D  DBC7 000D                            LAB,B5   P$,AUTO
          1 00055F  DFC7 001C                            STB,B5   @BRK$+2,AUTO
PL6.E3A0      #005=GDB$FIRST_USER_TRAP File=GDB$BRKPNTS.:E05TSI                  TUE 07/29/97 21:24 Page:202
          1 000561  CBC7 0006                            LAB,B4   BRK$,AUTO
          1 000563  CFC7 001A                            STB,B4   ERRCODE_SCRATCH+4,AUTO
          1 000565  E3C0 0470                            LNJ,B6   s:0,PREL
          1 000567       007D                            DC       s:13449,PREL

     1130    13415    3                 WHENRETURN DO;

     1131    13416    3                    BRKNUM = BRK$->BRKPNT.BRKNUM;

  13416   1 000568  ECC7 0006                            LDB,B6   BRK$,AUTO
          1 00056A  E846 0002                            LDR,R6   2,B6
          1 00056C  EF47 0008                            STR,R6   BRKNUM,AUTO

     1132    13417    3   CHECK_BYPASS:    IF BRK$->BRKPNT.BYPASSCOUNT > 0 THEN

  13417   1 00056E  ECC7 0006            CHECK_BYPASS    LDB,B6   BRK$,AUTO
          1 000570  D846 0003                            LDR,R5   3,B6
          1 000572  5901 004B                            BEZ,R5   s:13437,PREL

     1133    13418    4                       IF BRK$->BRKPNT.CUR_BYPASSCOUNT > 0 THEN DO;

  13418   1 000574  C846 0004                            LDR,R4   4,B6
          1 000576  4901 0044                            BEZ,R4   s:13436,PREL

     1134    13419    4                          G$TSA.P$ = P$;

  13419   1 000578  DCC7 000D                            LDB,B5   P$,AUTO
          1 00057A  CCC7 0004                            LDB,B4   @G$TSA,AUTO
          1 00057C  DFC4 0008                            STB,B5   8,B4

     1135    13420    4                         BRK$->BRKPNT.CUR_BYPASSCOUNT = BRK$->BRKPNT.CUR_BYPASSCOUNT -
             13420                                   1;

  13420   1 00057E  88C6 0004                            DEC      4,B6

     1136    13421    4   KEEPGOING:
     1137    13422    4                          P$ = BRK$->BRKPNT.ADR$;
PL6.E3A0      #005=GDB$FIRST_USER_TRAP File=GDB$BRKPNTS.:E05TSI                  TUE 07/29/97 21:24 Page:203

  13422   1 000580  ECC7 0006            KEEPGOING       LDB,B6   BRK$,AUTO
          1 000582  DCC6 0005                            LDB,B5   5,B6
          1 000584  DFC7 000D                            STB,B5   P$,AUTO

     1138    13423    5                          IF P$ ~= ADDR(NIL) THEN DO;  /* not an ONCALLS */

  13423   1 000586  8DC7 000D                            CMN      P$,AUTO
          1 000588  0901 002A                            BE       s:13432,PREL

     1139    13424    5                             CALL GDU$SETUP_WINDOW_USER(P$,GD_DATA.GD.USERNO)

  13424   1 00058A  CC80 0000 0000  xsym                 LDB,B4   GD$DELTA_DATA$
          1 00058D  BBC4 016B                            LAB,B3   363,B4
          1 00058F  BFC7 0058                            STB,B3   CONSTPTR$+5,AUTO
          1 000591  ABC7 000D                            LAB,B2   P$,AUTO
          1 000593  AFC7 0056                            STB,B2   CONSTPTR$+3,AUTO
          1 000595  BBC7 0056                            LAB,B3   CONSTPTR$+3,AUTO
          1 000597  CBF0 0200                            LAB,B4   512,IMO
          1 000599  E380 0000 0000  xent                 LNJ,B6   GDU$SETUP_WINDOW_USER
          1 00059C       0003                            DC       s:13426,PREL
          1 00059D  0F81 0003                            B        s:13428,PREL

     1140    13425    6                             WHENALTRETURN DO;

     1141    13426    6                                GOTO BLDBRKRSP;

  13426   1 00059F  0F81 0047                            B        s:13451,PREL

     1142    13427    6                                END;
     1143    13428    5                             P$->MEMORY = BRK$->BRKPNT.OLDINST;

  13428   1 0005A1  ECC7 000D                            LDB,B6   P$,AUTO
          1 0005A3  DCC7 0006                            LDB,B5   BRK$,AUTO
          1 0005A5  E845 0007                            LDR,R6   7,B5
          1 0005A7  EF06                                 STR,R6   ,B6

PL6.E3A0      #005=GDB$FIRST_USER_TRAP File=GDB$BRKPNTS.:E05TSI                  TUE 07/29/97 21:24 Page:204
     1144    13429    5                             BRK$->BRKPNT.FLAGS.ARMED = '0'B;

  13429   1 0005A8  ECC7 0006                            LDB,B6   BRK$,AUTO
          1 0005AA  8846 000A                            LBF,'4000'X       10,B6
          1 0005AC       4000

     1145    13430    5                             G$TSA.P$ = P$;

  13430   1 0005AD  DCC7 000D                            LDB,B5   P$,AUTO
          1 0005AF  CCC7 0004                            LDB,B4   @G$TSA,AUTO
          1 0005B1  DFC4 0008                            STB,B5   8,B4

     1146    13431    5                             END;

     1147    13432    4                          G$TSA.ISA.REGS.M1.J = %G_ON#;

  13432   1 0005B3  DCC7 0004                            LDB,B5   @G$TSA,AUTO
          1 0005B5  8945 002E                            LBT,'0080'X       46,B5
          1 0005B7       0080

     1148    13433    4                          ALTRETURN;

  13433   1 0005B8  C380 0000 0000  xent                 LNJ,B4   X6A_AALT

     1149    13434    4                          END;
     1150    13435    3                       ELSE
     1151    13436    3                          BRK$->BRKPNT.CUR_BYPASSCOUNT = BRK$->BRKPNT.BYPASSCOUNT;

  13436   1 0005BB  C855                                 LDR,R4   R5
          1 0005BC  CF46 0004                            STR,R4   4,B6

     1152    13437    3                    IF BRK$->BRKPNT.FLAGS.IFCOND THEN

  13437   1 0005BE  ECC7 0006                            LDB,B6   BRK$,AUTO
          1 0005C0  82C6 000A                            LB,'1000'X        10,B6
          1 0005C2       1000
          1 0005C3  0581 001E                            BBF      s:13447,PREL
PL6.E3A0      #005=GDB$FIRST_USER_TRAP File=GDB$BRKPNTS.:E05TSI                  TUE 07/29/97 21:24 Page:205

     1153    13438    4                       CALL CMPRIF(BRK$) WHENALTRETURN DO;

  13438   1 0005C5  DBC7 0006                            LAB,B5   BRK$,AUTO
          1 0005C7  DFC7 001A                            STB,B5   ERRCODE_SCRATCH+4,AUTO
          1 0005C9  E3C0 0447                            LNJ,B6   s:0,PREL
          1 0005CB       0003                            DC       s:13439,PREL
          1 0005CC  0F81 0015                            B        s:13447,PREL

     1154    13439    5                          IF GD_DATA.GD.STEP_BRKPNT.FLAGS.ACTIVE THEN DO;

  13439   1 0005CE  EC80 0000 0000  xsym                 LDB,B6   GD$DELTA_DATA$
          1 0005D1  89C6 0161                            CMZ      353,B6
          1 0005D3  0881 000C                            BAGE     s:13445,PREL

     1155    13440    5                             GD_DATA.GD.STEP_BRKPNT.FLAGS.BRKNUM_SAVED = '1'B;

  13440   1 0005D5  8946 0161                            LBT,'1000'X       353,B6
  13440   1 0005D7       1000

     1156    13441    5                             GD_DATA.GD.STEP_BRKPNT.OLD_BRKNUM = BRKNUM;

  13441   1 0005D8  E847 0008                            LDR,R6   BRKNUM,AUTO
          1 0005DA  E7C6 0162                            STH,R6   354,B6

     1157    13442    5                             BRKNUM = 0;

  13442   1 0005DC  8747 0008                            CL       BRKNUM,AUTO

     1158    13443    5                             GOTO BLDBRKRSP;

  13443   1 0005DE  0F81 0008                            B        s:13451,PREL

     1159    13444    5                             END;
     1160    13445    4                          GOTO KEEPGOING;

  13445   1 0005E0  0F81 FF9F                            B        s:13422,PREL
PL6.E3A0      #005=GDB$FIRST_USER_TRAP File=GDB$BRKPNTS.:E05TSI                  TUE 07/29/97 21:24 Page:206

     1161    13446    4                          END;
     1162    13447    3                    END;

  13447   1 0005E2  0F81 0004                            B        s:13451,PREL

     1163    13448    3                 WHENALTRETURN DO;

     1164    13449    3                    BRKNUM = %GD#MAXBRKNUM + 1;

  13449   1 0005E4  6C15                                 LDV,R6   21
          1 0005E5  EF47 0008                            STR,R6   BRKNUM,AUTO

     1165    13450    3                    END;

     1166    13451    2              END;

     1167    13452        /*
     1168    13453          If we get to this point we'll take the damm trap.  Setup the TSA
     1169    13454          P counter so we can restart
     1170    13455                                                                                      */
     1171    13456    1   BLDBRKRSP:
     1172    13457    2           IF GD_DATA.GD.GO_AGAIN AND P$ = GD_DATA.GD.STEP_BRKPNT.ADR$ THEN DO;

  13457   1 0005E7  EC80 0000 0000  xsym BLDBRKRSP       LDB,B6   GD$DELTA_DATA$
          1 0005EA  82C6 014D                            LB,'4000'X        333,B6
          1 0005EC       4000
          1 0005ED  0581 003C                            BBF      s:13468,PREL
          1 0005EF  DCC7 000D                            LDB,B5   P$,AUTO
          1 0005F1  DDC6 015B                            CMB,B5   347,B6
          1 0005F3  0981 0036                            BNE      s:13468,PREL

     1173    13458    2              PTR$ = GD_DATA.GD.STEP_BRKPNT.ADR$;

  13458   1 0005F5  CCC6 015B                            LDB,B4   347,B6
          1 0005F7  CFC7 0012                            STB,B4   PTR$,AUTO

PL6.E3A0      #005=GDB$FIRST_USER_TRAP File=GDB$BRKPNTS.:E05TSI                  TUE 07/29/97 21:24 Page:207
     1174    13459    2              CALL GDU$SETUP_WINDOW_USER(PTR$,GD_DATA.GD.USERNO);

  13459   1 0005F9  BBC6 016B                            LAB,B3   363,B6
          1 0005FB  BFC7 0058                            STB,B3   CONSTPTR$+5,AUTO
          1 0005FD  ABC7 0012                            LAB,B2   PTR$,AUTO
          1 0005FF  AFC7 0056                            STB,B2   CONSTPTR$+3,AUTO
          1 000601  BBC7 0056                            LAB,B3   CONSTPTR$+3,AUTO
          1 000603  CBF0 0200                            LAB,B4   512,IMO
          1 000605  E380 0000 0000  xent                 LNJ,B6   GDU$SETUP_WINDOW_USER
          1 000608       0001                            DC       s:13460,PREL

     1175    13460    2              PTR$->MEMORY = GD_DATA.GD.STEP_BRKPNT.OLDINST;

  13460   1 000609  ECC7 0012                            LDB,B6   PTR$,AUTO
          1 00060B  DC80 0000 0000  xsym                 LDB,B5   GD$DELTA_DATA$
          1 00060E  E845 015F                            LDR,R6   351,B5
          1 000610  EF06                                 STR,R6   ,B6

     1176    13461    2              G$TSA.ISA.REGS.M1.J = %G_ON#;

  13461   1 000611  ECC7 0004                            LDB,B6   @G$TSA,AUTO
          1 000613  8946 002E                            LBT,'0080'X       46,B6
          1 000615       0080

     1177    13462    2              GD_DATA.GD.STEP_BRKPNT.OLDINST = 0;

  13462   1 000616  DC80 0000 0000  xsym                 LDB,B5   GD$DELTA_DATA$
          1 000619  8745 015F                            CL       351,B5

     1178    13463    2              GD_DATA.GD.STEP_BRKPNT.ADR$ = ADDR(NIL);

  13463   1 00061B  CB80 0000 0000                       LAB,B4   0
          1 00061E  CFC5 015B                            STB,B4   347,B5

     1179    13464    2              GD_DATA.GD.GO_AGAIN = '0'B;

  13464   1 000620  8845 014D                            LBF,'4000'X       333,B5
PL6.E3A0      #005=GDB$FIRST_USER_TRAP File=GDB$BRKPNTS.:E05TSI                  TUE 07/29/97 21:24 Page:208
  13464   1 000622       4000

     1180    13465    2              G$TSA.P$ = P$;

  13465   1 000623  BCC7 000D                            LDB,B3   P$,AUTO
          1 000625  BFC6 0008                            STB,B3   8,B6

     1181    13466    2              ALTRETURN;

  13466   1 000627  C380 0000 0000  xent                 LNJ,B4   X6A_AALT

     1182    13467    2              END;
     1183    13468    1           G$TSA.P$=P$;

  13468   1 00062A  DCC7 000D                            LDB,B5   P$,AUTO
          1 00062C  CCC7 0004                            LDB,B4   @G$TSA,AUTO
          1 00062E  DFC4 0008                            STB,B5   8,B4

     1184    13469    1           G$TSA.Z.IS=0;

  13469   1 000630  8844 0005                            LBF,'000F'X       5,B4
  13469   1 000632       000F

     1185    13470        /*
     1186    13471          Setup a break responce message to send to the host
     1187    13472                                                                                      */
     1188    13473    1           SIZE=%GD#RSPBRKSIZ;

  13473   1 000633  6C40                                 LDV,R6   64
          1 000634  EF47 000F                            STR,R6   SIZE,AUTO

     1189    13474    1           GD$MSG.FNC=%GD#RSPBRK;

  13474   1 000636  5C2D                                 LDV,R5   45
          1 000637  DCC7 000B                            LDB,B5   MSG$,AUTO
          1 000639  D785                                 STH,R5   ,B5

PL6.E3A0      #005=GDB$FIRST_USER_TRAP File=GDB$BRKPNTS.:E05TSI                  TUE 07/29/97 21:24 Page:209
     1190    13475        /*
     1191    13476          If we trapped pass back the trap number, otherwise pass back the
     1192    13477          break number
     1193    13478                                                                                      */
     1194    13479    1           IF G$TSA.I.TRAP# ~= %GD#ENTRY_TRAP#

  13479   1 00063A  C2C4 0002                            LLH,R4   2,B4
          1 00063C  4D02                                 CMV,R4   2
          1 00063D  0901 0006                            BE       s:13483,PREL

     1195    13480    1           THEN                            /* Genuine trap, add offset to tell   */
     1196    13481    1              GD$MSG.BRKRSP.TRAP# = G$TSA.I.TRAP# + %GD#MAXBRKNUM +1;

  13481   1 00063F  4E15                                 ADV,R4   21
          1 000640  CF45 0005                            STR,R4   5,B5
          1 000642  0F81 000C                            B        s:13491,PREL

     1197    13482    2           ELSE DO;                        /* Some breakpoint                    */

     1198    13483    2              IF BRKNUM>%GD#MAXBRKNUM THEN

  13483   1 000644  B847 0008                            LDR,R3   BRKNUM,AUTO
          1 000646  3D14                                 CMV,R3   20
          1 000647  0A81 0005                            BALE     s:13486,PREL

     1199    13484    2                 GD$MSG.BRKRSP.BRK#=0;

  13484   1 000649  8745 0005                            CL       5,B5
          1 00064B  0F81 0003                            B        s:13491,PREL

     1200    13485    2              ELSE
     1201    13486    2                 GD$MSG.BRKRSP.BRK#=BRKNUM;

  13486   1 00064D  BF45 0005                            STR,R3   5,B5

     1202    13487    2              END;

PL6.E3A0      #005=GDB$FIRST_USER_TRAP File=GDB$BRKPNTS.:E05TSI                  TUE 07/29/97 21:24 Page:210
     1203    13488        /*
     1204    13489          Setup the rest of the responce
     1205    13490                                                                                      */
     1206    13491    1           GD$MSG.BRKRSP.TSA$=ADDR(G$TSA);

  13491   1 00064F  CFC5 0003                            STB,B4   3,B5

     1207    13492    1           IF G$JIT.SPROC#=0 THEN

  13492   1 000651  EC80 0000 0000  xsym                 LDB,B6   G$JIT$
          1 000654  C2C6 008C                            LLH,R4   140,B6
          1 000656  4981 0006                            BNEZ,R4  s:13495,PREL

     1208    13493    1              GD$MSG.BRKRSP.SHARED=%G_NO#;

  13493   1 000658  8845 0019                            LBF,'0040'X       25,B5
  13493   1 00065A       0040
          1 00065B  0F81 0004                            B        s:13497,PREL

     1209    13494    1           ELSE
     1210    13495    1              GD$MSG.BRKRSP.SHARED=%G_YES#;

  13495   1 00065D  8945 0019                            LBT,'0040'X       25,B5
  13495   1 00065F       0040

     1211    13496        /*N*    GD$MSG.BRKRSP.FINAL = G$ROS.U_ECCB$->G$ECCB.FLAGS.XCONP; */
     1212    13497    1           GD$MSG.BRKRSP.ADR$=P$;

  13497   1 000660  BCC7 000D                            LDB,B3   P$,AUTO
          1 000662  BFC5 0001                            STB,B3   1,B5

     1213    13498    1           GD$MSG.BRKRSP.USER#=GD_DATA.GD.USERNO;

  13498   1 000664  EC80 0000 0000  xsym                 LDB,B6   GD$DELTA_DATA$
          1 000667  C846 016B                            LDR,R4   363,B6
          1 000669  CF45 0006                            STR,R4   6,B5

PL6.E3A0      #005=GDB$FIRST_USER_TRAP File=GDB$BRKPNTS.:E05TSI                  TUE 07/29/97 21:24 Page:211
     1214    13499    1           IF GD_DATA.GD.STEP_BRKPNT.FLAGS.BRKNUM_SAVED THEN

  13499   1 00066B  82C6 0161                            LB,'1000'X        353,B6
  13499   1 00066D       1000
          1 00066E  0581 0005                            BBF      s:13501,PREL

     1215    13500    1              BRKNUM = GD_DATA.GD.STEP_BRKPNT.OLD_BRKNUM;

  13500   1 000670  B2C6 0162                            LLH,R3   354,B6
          1 000672  BF47 0008                            STR,R3   BRKNUM,AUTO

     1216    13501    1           ERRCODE_SCRATCH=GHB_TRAP_MSG;

  13501   1 000674  8C80 0000 0000  00                   LDI      GHB_TRAP_MSG
          1 000677  8D47 0016                            SDI      ERRCODE_SCRATCH,AUTO

     1217    13502    1           IF G$TSA.I.TRAP# = %G_FPRG_XCON#

  13502   1 000679  B2C4 0002                            LLH,R3   2,B4
          1 00067B  3D3A                                 CMV,R3   58
          1 00067C  0981 000A                            BNE      s:13504,PREL

     1218    13503    1           THEN ERRCODE_SCRATCH = G$JIT.ERR;

  13503   1 00067E  AC80 0000 0000  xsym                 LDB,B2   G$JIT$
          1 000681  8CC2 003C                            LDI      60,B2
          1 000683  8D47 0016                            SDI      ERRCODE_SCRATCH,AUTO
          1 000685  0F81 0009                            B        s:13505,PREL

     1219    13504    1           ELSE ERRCODE_SCRATCH.ERR#=ERRCODE_SCRATCH.ERR# + G$TSA.I.TRAP#;

  13504   1 000687  A847 0017                            LDR,R2   ERRCODE_SCRATCH+1,AUTO
          1 000689  2043                                 SOR,R2   3
          1 00068A  AA53                                 ADD,R2   R3
          1 00068B  2003                                 SOL,R2   3
          1 00068C  AAC7 0017                            SRM,R2,'FFF8'X    ERRCODE_SCRATCH+1,AUTO
          1 00068E       FFF8
PL6.E3A0      #005=GDB$FIRST_USER_TRAP File=GDB$BRKPNTS.:E05TSI                  TUE 07/29/97 21:24 Page:212

     1220    13505    1           GD$MSG.BRKRSP.ERRCODE=ERRCODE_SCRATCH;

  13505   1 00068F  8CC7 0016                            LDI      ERRCODE_SCRATCH,AUTO
          1 000691  8D45 0007                            SDI      7,B5

     1221    13506        /*
     1222    13507          Pass back a chunk of memory starting at the current P-counter.
     1223    13508          This will allow DELTA to display the instruction where we stopped
     1224    13509          without making a request for the data there.
     1225    13510        */
     1226    13511    1           GD_DATA.GD.STOPT=%G_YES#;

  13511   1 000693  8946 014C                            LBT,'0004'X       332,B6
  13511   1 000695       0004

     1227    13512    1           CALL GDB$RESET_BRKPNT;

  13512   1 000696  CBF0 0000                            LAB,B4   0,IMO
          1 000698  E380 0000 0000  xent                 LNJ,B6   GDB$RESET_BRKPNT
          1 00069B       0001                            DC       s:13513,PREL

     1228    13513    1           DSIZE = 16;

  13513   1 00069C  6C10                                 LDV,R6   16
          1 00069D  EF47 000A                            STR,R6   DSIZE,AUTO

     1229    13514    2           CALL GDM$GRAB16(ADDR(GD$MSG.BRKRSP.DATA),P$,DSIZE) WHENALTRETURN DO;

  13514   1 00069F  ECC7 000B                            LDB,B6   MSG$,AUTO
          1 0006A1  DBC6 0009                            LAB,B5   9,B6
          1 0006A3  DFC7 0056                            STB,B5   CONSTPTR$+3,AUTO
          1 0006A5  CBC7 000A                            LAB,B4   DSIZE,AUTO
          1 0006A7  CFC7 005C                            STB,B4   CONSTPTR$+9,AUTO
          1 0006A9  BBC7 000D                            LAB,B3   P$,AUTO
          1 0006AB  BFC7 005A                            STB,B3   CONSTPTR$+7,AUTO
          1 0006AD  ABC7 0056                            LAB,B2   CONSTPTR$+3,AUTO
PL6.E3A0      #005=GDB$FIRST_USER_TRAP File=GDB$BRKPNTS.:E05TSI                  TUE 07/29/97 21:24 Page:213
          1 0006AF  AFC7 0058                            STB,B2   CONSTPTR$+5,AUTO
          1 0006B1  BBC7 0058                            LAB,B3   CONSTPTR$+5,AUTO
          1 0006B3  CBF0 0300                            LAB,B4   768,IMO
          1 0006B5  E380 0000 0000  xent                 LNJ,B6   GDM$GRAB16
          1 0006B8       0003                            DC       s:13515,PREL
          1 0006B9  0F81 0003                            B        s:13517,PREL

     1230    13515    2              DSIZE = 0;

  13515   1 0006BB  8747 000A                            CL       DSIZE,AUTO

     1231    13516    2              END /* WHENALTRETURN */;

     1232    13517    1           GD$MSG.BRKRSP.DATA_SIZE = DSIZE;

  13517   1 0006BD  E847 000A                            LDR,R6   DSIZE,AUTO
          1 0006BF  ECC7 000B                            LDB,B6   MSG$,AUTO
          1 0006C1  E7C6 0019                            STH,R6   25,B6

     1233    13518        /*
     1234    13519          Indicate we are stopped and send the break responce to the host
     1235    13520                                                                                      */
     1236    13521    1           CALL GDI$SEND_RESPONSE(SIZE,MSGBFR);

  13521   1 0006C3  EFC7 0058                            STB,B6   CONSTPTR$+5,AUTO
          1 0006C5  DBC7 000F                            LAB,B5   SIZE,AUTO
          1 0006C7  DFC7 0056                            STB,B5   CONSTPTR$+3,AUTO
          1 0006C9  BBC7 0056                            LAB,B3   CONSTPTR$+3,AUTO
          1 0006CB  CBF0 0200                            LAB,B4   512,IMO
          1 0006CD  E380 0000 0000  xent                 LNJ,B6   GDI$SEND_RESPONSE
          1 0006D0       0001                            DC       s:13534,PREL

     1237    13522        /*
     1238    13523          Yank all the breaks
     1239    13524                                                                                      */
     1240    13525        /*
     1241    13526          At this point, we call the routine that handles the completed
PL6.E3A0      #005=GDB$FIRST_USER_TRAP File=GDB$BRKPNTS.:E05TSI                  TUE 07/29/97 21:24 Page:214
     1242    13527          messages put together by the standalone async handler.  He will
     1243    13528          continue to process commands and not return to us till the user has typed
     1244    13529          GO.  When he does return, GD_DATA.GD.STEPCNT and GD_DATA.GD.ABSADDR will be setup
     1245    13530          to reflect whether or not the user has stepped or specified a
     1246    13531          go address.  Note that P$ is allready setup if nothing is specified.
     1247    13532                                                                                      */
     1248    13533    1   CALLGDI:
     1249    13534    2           CALL GDI$DECODE_MSG_WAIT_4_GO WHENALTRETURN DO;

  13534   1 0006D1  CBF0 0000            CALLGDI         LAB,B4   0,IMO
          1 0006D3  E380 0000 0000  xent                 LNJ,B6   GDI$DECODE_MSG_WAIT_4_GO
          1 0006D6       0003                            DC       s:13535,PREL
          1 0006D7  0F81 0026                            B        s:13545,PREL

     1250    13535    2              GD_DATA.GD.TRACE = 0;

  13535   1 0006D9  EC80 0000 0000  xsym                 LDB,B6   GD$DELTA_DATA$
          1 0006DC  8746 0153                            CL       339,B6

     1251    13536    2              GD_DATA.GD.STEP_BRKPNT = '0'B;

  13536   1 0006DE  5C10                                 LDV,R5   16
          1 0006DF  0021                                 ALR      ;
          1 0006E0       4178 0000                                ALPHANUM('0000'X,IMO,,1),;
          1 0006E2       4006 015B                                ALPHANUM(347,B6,,R5,FILL)

     1252    13537    2              GD_DATA.GD.SOC_BRKPNT = '0'B;

  13537   1 0006E4  5C0A                                 LDV,R5   10
          1 0006E5  0021                                 ALR      ;
          1 0006E6       4178 0000                                ALPHANUM('0000'X,IMO,,1),;
          1 0006E8       4006 0163                                ALPHANUM(355,B6,,R5,FILL)

     1253    13538    2              GD_DATA.GD.DYNSP$ = ADDR(GD_DATA.MYSPACE(0));

  13538   1 0006EA  DBC6 01AE                            LAB,B5   430,B6
          1 0006EC  DFC6 0156                            STB,B5   342,B6
PL6.E3A0      #005=GDB$FIRST_USER_TRAP File=GDB$BRKPNTS.:E05TSI                  TUE 07/29/97 21:24 Page:215

     1254    13539    2              GD_DATA.MYSPACE = '0'B;

  13539   1 0006EE  AB80 0000 0000  02                   LAB,B2   0
          1 0006F1  2C00                                 LDV,R2   0
          1 0006F2  6C01                                 LDV,R6   1
          1 0006F3  BBC6 01AE                            LAB,B3   430,B6
          1 0006F5  3C00                                 LDV,R3   0
          1 0006F6  F870 04CC                            LDR,R7   1228,IMO
          1 0006F8  437F                                 CSYNC    s:13539+9,SPREL
          1 0006F9  D380 0000 0000  xent                 LNJ,B5   X6C_ALRZ

     1255    13540    2              GOTO STARTOVER;

  13540   1 0006FC  0F81 F980                            B        s:13108,PREL

     1256    13541    2              END;
     1257    13542        /*
     1258    13543          If we got a temporary breakpoint, disable it here (its only used once).
     1259    13544                                                                                      */
     1260    13545    2           IF GD_DATA.GD.GOTRAP AND BRKNUM>0 AND BRKNUM < %GD#MAXBRKNUM THEN DO;

  13545   1 0006FE  EC80 0000 0000  xsym                 LDB,B6   GD$DELTA_DATA$
          1 000701  82C6 014C                            LB,'0020'X        332,B6
          1 000703       0020
          1 000704  0581 0027                            BBF      s:13551,PREL
          1 000706  E847 0008                            LDR,R6   BRKNUM,AUTO
          1 000708  6A81 0023                            BLEZ,R6  s:13551,PREL
          1 00070A  6D14                                 CMV,R6   20
          1 00070B  0881 0020                            BAGE     s:13551,PREL

     1261    13546    2              SIZE = %GD#RSPBRKSIZ;

  13546   1 00070D  5C40                                 LDV,R5   64
          1 00070E  DF47 000F                            STR,R5   SIZE,AUTO

     1262    13547    2              CALL GDI$SEND_ERROR_RESPONSE(SIZE,GD$MSG,%GD#RSPNOTUSERTRAP);
PL6.E3A0      #005=GDB$FIRST_USER_TRAP File=GDB$BRKPNTS.:E05TSI                  TUE 07/29/97 21:24 Page:216

  13547   1 000710  DBF0 003F                            LAB,B5   63,IMO
          1 000712  DFC7 005A                            STB,B5   CONSTPTR$+7,AUTO
          1 000714  CCC7 000B                            LDB,B4   MSG$,AUTO
          1 000716  CFC7 0058                            STB,B4   CONSTPTR$+5,AUTO
          1 000718  BBC7 000F                            LAB,B3   SIZE,AUTO
          1 00071A  BFC7 0056                            STB,B3   CONSTPTR$+3,AUTO
          1 00071C  BBC7 0056                            LAB,B3   CONSTPTR$+3,AUTO
          1 00071E  CBF0 0300                            LAB,B4   768,IMO
          1 000720  E380 0000 0000  xent                 LNJ,B6   GDI$SEND_ERROR_RESPONSE
          1 000723       0001                            DC       s:13548,PREL

     1263    13548    2              GD_DATA.GD.STOPT = %G_YES#;

  13548   1 000724  EC80 0000 0000  xsym                 LDB,B6   GD$DELTA_DATA$
          1 000727  8946 014C                            LBT,'0004'X       332,B6
          1 000729       0004

     1264    13549    2              GOTO CALLGDI;

  13549   1 00072A  0F81 FFA6                            B        s:13534,PREL

     1265    13550    2              END;
     1266    13551    1           GD_DATA.GD.STEP_BRKPNT.FLAGS='0'B;

  13551   1 00072C  87C6 0161                            CLH      353,B6

     1267    13552    1           GD_DATA.GD.STEP_BRKPNT.OLD_BRKNUM = 0;

  13552   1 00072E  87C6 0162                            CLH      354,B6

     1268    13553    1           GD_DATA.GD.GO_AGAIN = '0'B;

  13553   1 000730  8846 014D                            LBF,'4000'X       333,B6
  13553   1 000732       4000

     1269    13554    2           IF G$TSA.I.TRAP# = %G_FPRG_XBREAK# THEN DO;
PL6.E3A0      #005=GDB$FIRST_USER_TRAP File=GDB$BRKPNTS.:E05TSI                  TUE 07/29/97 21:24 Page:217

  13554   1 000733  DCC7 0004                            LDB,B5   @G$TSA,AUTO
          1 000735  E2C5 0002                            LLH,R6   2,B5
          1 000737  6D33                                 CMV,R6   51
          1 000738  0981 000B                            BNE      s:13559,PREL

     1270    13555    2              GD_DATA.GD.XBRKINFO$->VLP_XBREAK.GOIC = '0'B;

  13555   1 00073A  CCC6 0154                            LDB,B4   340,B6
          1 00073C  8844 0006                            LBF,'0040'X       6,B4
          1 00073E       0040

     1271    13556    2              GD_DATA.GD.XBRKINFO$->VLP_XBREAK.GOBREAK = '0'B;

  13556   1 00073F  CCC6 0154                            LDB,B4   340,B6
          1 000741  8844 0006                            LBF,'0020'X       6,B4
          1 000743       0020

     1272    13557    2              END;

     1273    13558        /* */
     1274    13559    1           IF GD_DATA.GD.ABSADDR ~= ADDR(NIL) THEN

  13559   1 000744  8DC6 0145                            CMN      325,B6
          1 000746  0901 001E                            BE       s:13569,PREL

     1275    13560    2           DO;

     1276    13561    3              IF G$TSA.I.TRAP# = %G_FPRG_XBREAK# THEN DO;

  13561   1 000748  E2C5 0002                            LLH,R6   2,B5
          1 00074A  6D33                                 CMV,R6   51
          1 00074B  0981 000D                            BNE      s:13566,PREL

     1277    13562    3                 GD_DATA.GD.XBRKINFO$->VLP_XBREAK.GOIC = '1'B;

  13562   1 00074D  CCC6 0154                            LDB,B4   340,B6
PL6.E3A0      #005=GDB$FIRST_USER_TRAP File=GDB$BRKPNTS.:E05TSI                  TUE 07/29/97 21:24 Page:218
          1 00074F  8944 0006                            LBT,'0040'X       6,B4
          1 000751       0040

     1278    13563    3                 GD_DATA.GD.XBRKINFO$->VLP_XBREAK.IC$ = GD_DATA.GD.ABSADDR;

  13563   1 000752  CCC6 0154                            LDB,B4   340,B6
          1 000754  BCC6 0145                            LDB,B3   325,B6
          1 000756  BF84                                 STB,B3   ,B4

     1279    13564    3                 END;

  13564   1 000757  0F81 0005                            B        s:13567,PREL

     1280    13565    2              ELSE
     1281    13566    2                  G$TSA.P$=GD_DATA.GD.ABSADDR;

  13566   1 000759  CCC6 0145                            LDB,B4   325,B6
          1 00075B  CFC5 0008                            STB,B4   8,B5

     1282    13567    2              GD_DATA.GD.ABSADDR=ADDR(NIL);

  13567   1 00075D  EB80 0000 0000                       LAB,B6   0
          1 000760  CC80 0000 0000  xsym                 LDB,B4   GD$DELTA_DATA$
          1 000763  EFC4 0145                            STB,B6   325,B4

     1283    13568    2              END;

     1284    13569    1           IF GD_DATA.GD.STEPCNT~=0 THEN

  13569   1 000765  EC80 0000 0000  xsym                 LDB,B6   GD$DELTA_DATA$
          1 000768  E846 016A                            LDR,R6   362,B6
          1 00076A  6901 012B                            BEZ,R6   s:13638,PREL

     1285    13570    2           DO;

     1286    13571        /*
     1287    13572          Setup a temporary breakpoint for stepping
PL6.E3A0      #005=GDB$FIRST_USER_TRAP File=GDB$BRKPNTS.:E05TSI                  TUE 07/29/97 21:24 Page:219
     1288    13573                                                                                      */
     1289    13574    2              IF MON THEN

  13574   1 00076C  89C7 0015                            CMZ      MON,AUTO
          1 00076E  0881 0005                            BAGE     s:13577,PREL

     1290    13575    2                 GD_DATA.GD.STEP_BRKPNT.USER# = 0;

  13575   1 000770  8746 0160                            CL       352,B6
          1 000772  0F81 0005                            B        s:13578,PREL

     1291    13576    2              ELSE
     1292    13577    2                 GD_DATA.GD.STEP_BRKPNT.USER# = GD_DATA.GD.USE_USERNO;

  13577   1 000774  D846 014B                            LDR,R5   331,B6
          1 000776  DF46 0160                            STR,R5   352,B6

     1293    13578    3              IF G$TSA.I.TRAP# = %G_FPRG_XBREAK# THEN DO;

  13578   1 000778  D2C5 0002                            LLH,R5   2,B5
          1 00077A  5D33                                 CMV,R5   51
          1 00077B  0981 000C                            BNE      s:13583,PREL

     1294    13579    3                 GD_DATA.GD.STEP_BRKPNT.START$ = GD_DATA.GD.XBRKINFO$->VLP_XBREAK.IC$;

  13579   1 00077D  CCC6 0154                            LDB,B4   340,B6
          1 00077F  BC84                                 LDB,B3   ,B4
          1 000780  BFC6 015D                            STB,B3   349,B6

     1295    13580    3                  GD_DATA.GD.STEP_BRKPNT.ADR$ = PINCRW(GD_DATA.GD.STEP_BRKPNT.START$,
             13580                           GD_DATA.GD.STEPCNT);

  13580   1 000782  B856                                 LDR,R3   R6
          1 000783  ABB3                                 LAB,B2   ,B3,R3
          1 000784  AFC6 015B                            STB,B2   347,B6

     1296    13581    3                 END;
PL6.E3A0      #005=GDB$FIRST_USER_TRAP File=GDB$BRKPNTS.:E05TSI                  TUE 07/29/97 21:24 Page:220

  13581   1 000786  0F81 009C                            B        s:13603,PREL

     1297    13582    3              ELSE DO;

     1298    13583    3                   PTR$ = G$TSA.P$;

  13583   1 000788  CCC5 0008                            LDB,B4   8,B5
          1 00078A  CFC7 0012                            STB,B4   PTR$,AUTO

     1299    13584    3                   CALL GDU$SETUP_WINDOW_USER(PTR$,GD_DATA.GD.STEP_BRKPNT.USER#);

  13584   1 00078C  BBC6 0160                            LAB,B3   352,B6
          1 00078E  BFC7 0058                            STB,B3   CONSTPTR$+5,AUTO
          1 000790  ABC7 0012                            LAB,B2   PTR$,AUTO
          1 000792  AFC7 0056                            STB,B2   CONSTPTR$+3,AUTO
          1 000794  BBC7 0056                            LAB,B3   CONSTPTR$+3,AUTO
          1 000796  CBF0 0200                            LAB,B4   512,IMO
          1 000798  E380 0000 0000  xent                 LNJ,B6   GDU$SETUP_WINDOW_USER
          1 00079B       0001                            DC       s:13585,PREL

     1300    13585    3                   IF PTR$->BITMEM = %GD#LNJB5_INST AND GD_DATA.GD.STEPCNT= 3 THEN

  13585   1 00079C  ECC7 0012                            LDB,B6   PTR$,AUTO
          1 00079E  E806                                 LDR,R6   ,B6
          1 00079F  E970 D380                            CMR,R6   -11392,IMO
          1 0007A1  0981 000B                            BNE      s:13587,PREL
          1 0007A3  DC80 0000 0000  xsym                 LDB,B5   GD$DELTA_DATA$
          1 0007A6  D845 016A                            LDR,R5   362,B5
          1 0007A8  5D03                                 CMV,R5   3
          1 0007A9  0981 0003                            BNE      s:13587,PREL

     1301    13586    3                      GD_DATA.GD.STEPCNT = GD_DATA.GD.STEPCNT+1;

  13586   1 0007AB  8AC5 016A                            INC      362,B5

     1302    13587    4                  IF PTR$->BITMEM = %GD#MCL_INST OR (PTR$->BITMEM = %GD#LNJB6_INST AND
PL6.E3A0      #005=GDB$FIRST_USER_TRAP File=GDB$BRKPNTS.:E05TSI                  TUE 07/29/97 21:24 Page:221
             13587                            GD_DATA.GD.SOC) THEN DO;

  13587   1 0007AD  E806                                 LDR,R6   ,B6
          1 0007AE  E970 0001                            CMR,R6   1,IMO
          1 0007B0  0901 000D                            BE       s:13588,PREL
          1 0007B2  E970 E380                            CMR,R6   -7296,IMO
          1 0007B4  0981 0059                            BNE      s:13600,PREL
          1 0007B6  DC80 0000 0000  xsym                 LDB,B5   GD$DELTA_DATA$
          1 0007B9  82C5 014C                            LB,'0080'X        332,B5
          1 0007BB       0080
          1 0007BC  0581 0051                            BBF      s:13600,PREL

     1303    13588    4                    GD_DATA.GD.STEP_BRKPNT.ADR$=PINCRW(G$TSA.P$,GD_DATA.GD.STEPCNT+1);

  13588   1 0007BE  DC80 0000 0000  xsym                 LDB,B5   GD$DELTA_DATA$
          1 0007C1  B845 016A                            LDR,R3   362,B5
          1 0007C3  CCC7 0004                            LDB,B4   @G$TSA,AUTO
          1 0007C5  BCC4 0008                            LDB,B3   8,B4
          1 0007C7  BFC7 0056                            STB,B3   CONSTPTR$+3,AUTO
          1 0007C9  E853                                 LDR,R6   R3
          1 0007CA  70F0                                 DAR,R7   16
          1 0007CB  8447 0056                            AID      CONSTPTR$+3,AUTO
          1 0007CD  8470 0000 0001                       AID      1,IMO
          1 0007D0  8D45 015B                            SDI      347,B5

     1304    13589    4                     OFFSET=PINCRW(G$TSA.P$,GD_DATA.GD.STEPCNT)->SMEMORY;

  13589   1 0007D2  ACC4 0008                            LDB,B2   8,B4
          1 0007D4  D832                                 LDR,R5   ,B2,R3
          1 0007D5  DF47 0009                            STR,R5   OFFSET,AUTO

     1305    13590    4                     IF PTR$->BITMEM = %GD#MCL_INST THEN

  13590   1 0007D7  C806                                 LDR,R4   ,B6
          1 0007D8  C970 0001                            CMR,R4   1,IMO
          1 0007DA  0981 000F                            BNE      s:13593,PREL

PL6.E3A0      #005=GDB$FIRST_USER_TRAP File=GDB$BRKPNTS.:E05TSI                  TUE 07/29/97 21:24 Page:222
     1306    13591    4                        GD_DATA.GD.ALTRET_ADR$ = PINCRW(G$TSA.P$,GD_DATA.GD.STEPCNT+
             13591                                 OFFSET+1);

  13591   1 0007DC  BA55                                 ADD,R3   R5
          1 0007DD  AFC7 0056                            STB,B2   CONSTPTR$+3,AUTO
          1 0007DF  E853                                 LDR,R6   R3
          1 0007E0  70F0                                 DAR,R7   16
          1 0007E1  8447 0056                            AID      CONSTPTR$+3,AUTO
          1 0007E3  8470 0000 0001                       AID      1,IMO
          1 0007E6  8D45 0132                            SDI      306,B5
          1 0007E8  0F81 0005                            B        s:13594,PREL

     1307    13592    4                     ELSE
     1308    13593    4                        GD_DATA.GD.ALTRET_ADR$ = PINCRW(G$TSA.P$,GD_DATA.GD.STEPCNT+
             13593                                 OFFSET);

  13593   1 0007EA  BA55                                 ADD,R3   R5
          1 0007EB  9BB2                                 LAB,B1   ,B2,R3
          1 0007EC  9FC5 0132                            STB,B1   306,B5

     1309    13594    4                     PTR$ = GD_DATA.GD.ALTRET_ADR$;

  13594   1 0007EE  BCC5 0132                            LDB,B3   306,B5
          1 0007F0  BFC7 0012                            STB,B3   PTR$,AUTO

     1310    13595    4                     CALL GDU$SETUP_WINDOW_USER(PTR$,GD_DATA.GD.STEP_BRKPNT.USER#);

  13595   1 0007F2  EBC5 0160                            LAB,B6   352,B5
          1 0007F4  EFC7 0058                            STB,B6   CONSTPTR$+5,AUTO
          1 0007F6  ABC7 0012                            LAB,B2   PTR$,AUTO
          1 0007F8  AFC7 0056                            STB,B2   CONSTPTR$+3,AUTO
          1 0007FA  BBC7 0056                            LAB,B3   CONSTPTR$+3,AUTO
          1 0007FC  CBF0 0200                            LAB,B4   512,IMO
          1 0007FE  E380 0000 0000  xent                 LNJ,B6   GDU$SETUP_WINDOW_USER
          1 000801       0001                            DC       s:13596,PREL

     1311    13596    4                     GD_DATA.GD.ALTRET_INST=PTR$->MEMORY;
PL6.E3A0      #005=GDB$FIRST_USER_TRAP File=GDB$BRKPNTS.:E05TSI                  TUE 07/29/97 21:24 Page:223

  13596   1 000802  EC80 0000 0000  xsym                 LDB,B6   GD$DELTA_DATA$
          1 000805  DCC7 0012                            LDB,B5   PTR$,AUTO
          1 000807  E805                                 LDR,R6   ,B5
          1 000808  EF46 0134                            STR,R6   308,B6

     1312    13597    4                     PTR$->BITMEM = %GD#BREAK_INST;

  13597   1 00080A  5C02                                 LDV,R5   2
          1 00080B  DF05                                 STR,R5   ,B5

     1313    13598    4                     END;

  13598   1 00080C  0F81 000D                            B        s:13601,PREL

     1314    13599    3                   ELSE
     1315    13600    3                     GD_DATA.GD.STEP_BRKPNT.ADR$=PINCRW(G$TSA.P$,GD_DATA.GD.STEPCNT);

  13600   1 00080E  DC80 0000 0000  xsym                 LDB,B5   GD$DELTA_DATA$
          1 000811  B845 016A                            LDR,R3   362,B5
          1 000813  CCC7 0004                            LDB,B4   @G$TSA,AUTO
          1 000815  BCC4 0008                            LDB,B3   8,B4
          1 000817  ABB3                                 LAB,B2   ,B3,R3
          1 000818  AFC5 015B                            STB,B2   347,B5

     1316    13601    3                   GD_DATA.GD.STEP_BRKPNT.START$ = G$TSA.P$;

  13601   1 00081A  ECC7 0004                            LDB,B6   @G$TSA,AUTO
          1 00081C  DCC6 0008                            LDB,B5   8,B6
          1 00081E  CC80 0000 0000  xsym                 LDB,B4   GD$DELTA_DATA$
          1 000821  DFC4 015D                            STB,B5   349,B4

     1317    13602    3                 END;

     1318    13603    2              IF MON THEN

  13603   1 000823  89C7 0015                            CMZ      MON,AUTO
PL6.E3A0      #005=GDB$FIRST_USER_TRAP File=GDB$BRKPNTS.:E05TSI                  TUE 07/29/97 21:24 Page:224
          1 000825  0881 0008                            BAGE     s:13606,PREL

     1319    13604    2                 GD_DATA.GD.STEP_BRKPNT.USER#=0;

  13604   1 000827  EC80 0000 0000  xsym                 LDB,B6   GD$DELTA_DATA$
          1 00082A  8746 0160                            CL       352,B6
          1 00082C  0F81 0008                            B        s:13607,PREL

     1320    13605    2              ELSE
     1321    13606    2                 GD_DATA.GD.STEP_BRKPNT.USER#=GD_DATA.GD.USE_USERNO;

  13606   1 00082E  EC80 0000 0000  xsym                 LDB,B6   GD$DELTA_DATA$
          1 000831  E846 014B                            LDR,R6   331,B6
          1 000833  EF46 0160                            STR,R6   352,B6

     1322    13607    2              ADR$=GD_DATA.GD.STEP_BRKPNT.ADR$;

  13607   1 000835  DCC6 015B                            LDB,B5   347,B6
          1 000837  DFC7 0010                            STB,B5   ADR$,AUTO

     1323    13608    2              P$=GD_DATA.GD.STEP_BRKPNT.ADR$;

  13608   1 000839  DFC7 000D                            STB,B5   P$,AUTO

     1324    13609    2              CALL GDU$SETUP_WINDOW_USER (ADR$,GD_DATA.GD.STEP_BRKPNT.USER#)

  13609   1 00083B  CBC6 0160                            LAB,B4   352,B6
          1 00083D  CFC7 0058                            STB,B4   CONSTPTR$+5,AUTO
          1 00083F  BBC7 0010                            LAB,B3   ADR$,AUTO
          1 000841  BFC7 0056                            STB,B3   CONSTPTR$+3,AUTO
          1 000843  BBC7 0056                            LAB,B3   CONSTPTR$+3,AUTO
          1 000845  CBF0 0200                            LAB,B4   512,IMO
          1 000847  E380 0000 0000  xent                 LNJ,B6   GDU$SETUP_WINDOW_USER
          1 00084A       002A                            DC       s:13622,PREL

     1325    13610    3              WHENRETURN DO;

PL6.E3A0      #005=GDB$FIRST_USER_TRAP File=GDB$BRKPNTS.:E05TSI                  TUE 07/29/97 21:24 Page:225
     1326    13611    3                 CALL SRCHFORBRKPNT (BRK$, P$)

  13611   1 00084B  EBC7 000D                            LAB,B6   P$,AUTO
          1 00084D  EFC7 001C                            STB,B6   @BRK$+2,AUTO
          1 00084F  DBC7 0006                            LAB,B5   BRK$,AUTO
          1 000851  DFC7 001A                            STB,B5   ERRCODE_SCRATCH+4,AUTO
          1 000853  E3C0 0182                            LNJ,B6   s:0,PREL
          1 000855       000C                            DC       s:13616,PREL

     1327    13612    4                 WHENRETURN DO;

     1328    13613    4                     GD_DATA.GD.STEP_BRKPNT.OLDINST = BRK$->BRKPNT.OLDINST;

  13613   1 000856  EC80 0000 0000  xsym                 LDB,B6   GD$DELTA_DATA$
          1 000859  DCC7 0006                            LDB,B5   BRK$,AUTO
          1 00085B  E845 0007                            LDR,R6   7,B5
          1 00085D  EF46 015F                            STR,R6   351,B6

     1329    13614    4                   END;

  13614   1 00085F  0F81 000B                            B        s:13619,PREL

     1330    13615    4                 WHENALTRETURN DO;

     1331    13616    4                     GD_DATA.GD.STEP_BRKPNT.OLDINST=ADR$->MEMORY;

  13616   1 000861  EC80 0000 0000  xsym                 LDB,B6   GD$DELTA_DATA$
          1 000864  DCC7 0010                            LDB,B5   ADR$,AUTO
          1 000866  E805                                 LDR,R6   ,B5
          1 000867  EF46 015F                            STR,R6   351,B6

     1332    13617    4                     ADR$->BITMEM=%GD#BREAK_INST;

  13617   1 000869  5C02                                 LDV,R5   2
          1 00086A  DF05                                 STR,R5   ,B5

     1333    13618    4                   END;
PL6.E3A0      #005=GDB$FIRST_USER_TRAP File=GDB$BRKPNTS.:E05TSI                  TUE 07/29/97 21:24 Page:226

     1334    13619    3                 GD_DATA.GD.STEP_BRKPNT.FLAGS.ACTIVE='1'B;

  13619   1 00086B  EC80 0000 0000  xsym                 LDB,B6   GD$DELTA_DATA$
          1 00086E  8946 0161                            LBT,'8000'X       353,B6
          1 000870       8000

     1335    13620    3                 GD_DATA.GD.STEP_BRKPNT.FLAGS.ARMED='1'B;

  13620   1 000871  8946 0161                            LBT,'4000'X       353,B6
  13620   1 000873       4000

     1336    13621    3                 END;

     1337    13622    2              GD_DATA.GD.STEPCNT=0;

  13622   1 000874  EC80 0000 0000  xsym                 LDB,B6   GD$DELTA_DATA$
          1 000877  8746 016A                            CL       362,B6

     1338    13623    2              IF G$TSA.I.TRAP# = %G_FPRG_XBREAK#

  13623   1 000879  DCC7 0004                            LDB,B5   @G$TSA,AUTO
          1 00087B  E2C5 0002                            LLH,R6   2,B5
          1 00087D  6D33                                 CMV,R6   51
          1 00087E  0981 0006                            BNE      s:13625,PREL

     1339    13624    2              THEN GD_DATA.GD.XBRKINFO$->VLP_XBREAK.TT = '1'B;

  13624   1 000880  CCC6 0154                            LDB,B4   340,B6
          1 000882  8944 0006                            LBT,'0080'X       6,B4
          1 000884       0080

     1340    13625    2              G$TSA.ISA.REGS.M1.J=%G_ENABLE#;

  13625   1 000885  8945 002E                            LBT,'0080'X       46,B5
  13625   1 000887       0080

PL6.E3A0      #005=GDB$FIRST_USER_TRAP File=GDB$BRKPNTS.:E05TSI                  TUE 07/29/97 21:24 Page:227
     1341    13626                /* Make sure we get the right old inst if other kinds of brkpnts are set */
     1342    13627    2              IF GD_DATA.GD.ALTRET_ADR$ ~= ADDR(NIL) THEN

  13627   1 000888  8DC6 0132                            CMN      306,B6
          1 00088A  0901 000B                            BE       s:13638,PREL

     1343    13628    2                 IF GD_DATA.GD.ALTRET_ADR$ = GD_DATA.GD.STEP_BRKPNT.ADR$ THEN

  13628   1 00088C  CCC6 0132                            LDB,B4   306,B6
          1 00088E  CDC6 015B                            CMB,B4   347,B6
          1 000890  0981 0005                            BNE      s:13638,PREL

     1344    13629    2                    GD_DATA.GD.STEP_BRKPNT.OLDINST = GD_DATA.GD.ALTRET_INST;

  13629   1 000892  E846 0134                            LDR,R6   308,B6
          1 000894  EF46 015F                            STR,R6   351,B6

     1345    13630    2              END;

     1346    13631        /*
     1347    13632          If we are continuing from a normal breakpoint (not a step), we
     1348    13633          need to execute the instruction that was supposed to be here.
     1349    13634          To do this we will put it back in memory now and replace it either
     1350    13635          at the next breakpoint or when we get the branch trace we are
     1351    13636          going to setup here
     1352    13637                                                                                      */
     1353    13638    2           IF BRKNUM > 0 AND BRKNUM <= %GD#MAXBRKNUM THEN DO;

  13638   1 000896  E847 0008                            LDR,R6   BRKNUM,AUTO
          1 000898  6A81 007E                            BLEZ,R6  s:13670,PREL
          1 00089A  6D14                                 CMV,R6   20
          1 00089B  0A01 007B                            BAG      s:13670,PREL

     1354    13639    2                 IF G$TSA.I.TRAP# = %G_FPRG_XBREAK#

  13639   1 00089D  D2C5 0002                            LLH,R5   2,B5
          1 00089F  5D33                                 CMV,R5   51
PL6.E3A0      #005=GDB$FIRST_USER_TRAP File=GDB$BRKPNTS.:E05TSI                  TUE 07/29/97 21:24 Page:228
          1 0008A0  0981 0012                            BNE      s:13647,PREL
          1 0008A2  CCC6 0154                            LDB,B4   340,B6
          1 0008A4  82C4 0006                            LB,'0040'X        6,B4
          1 0008A6       0040
          1 0008A7  0501 000B                            BBT      s:13647,PREL

     1355    13640    2               AND GD_DATA.GD.XBRKINFO$->VLP_XBREAK.GOIC = '0'B
     1356    13641    3                 THEN DO;

     1357    13642                          /* Tell the interpreter that it is to execute REPLACED.INSTR
     1358    13643                             and GO                                                */
     1359    13644    3                     GD_DATA.GD.XBRKINFO$->VLP_XBREAK.GOBREAK = '1'B;

  13644   1 0008A9  8944 0006                            LBT,'0020'X       6,B4
  13644   1 0008AB       0020

     1360    13645    3                     ADR$ = GD_DATA.GD.XBRKINFO$->VLP_XBREAK.IC$;

  13645   1 0008AC  CCC6 0154                            LDB,B4   340,B6
          1 0008AE  BC84                                 LDB,B3   ,B4
          1 0008AF  BFC7 0010                            STB,B3   ADR$,AUTO

     1361    13646    3                     END;

  13646   1 0008B1  0F81 0005                            B        s:13648,PREL

     1362    13647    2                 ELSE ADR$ = G$TSA.P$;

  13647   1 0008B3  CCC5 0008                            LDB,B4   8,B5
          1 0008B5  CFC7 0010                            STB,B4   ADR$,AUTO

     1363    13648    2                 CALL SRCHFORBRKPNT (BRK$, ADR$)

  13648   1 0008B7  CBC7 0010                            LAB,B4   ADR$,AUTO
          1 0008B9  CFC7 001C                            STB,B4   @BRK$+2,AUTO
          1 0008BB  BBC7 0006                            LAB,B3   BRK$,AUTO
          1 0008BD  BFC7 001A                            STB,B3   ERRCODE_SCRATCH+4,AUTO
PL6.E3A0      #005=GDB$FIRST_USER_TRAP File=GDB$BRKPNTS.:E05TSI                  TUE 07/29/97 21:24 Page:229
          1 0008BF  E3C0 0116                            LNJ,B6   s:0,PREL
          1 0008C1       0056                            DC       s:13670,PREL

     1364    13649    3                 WHENRETURN DO;

     1365    13650    3                      IF BRK$->BRKPNT.FLAGS.ACTIVE AND

  13650   1 0008C2  ECC7 0006                            LDB,B6   BRK$,AUTO
          1 0008C4  89C6 000A                            CMZ      10,B6
          1 0008C6  0881 0050                            BAGE     s:13670,PREL
          1 0008C8  DCC7 0010                            LDB,B5   ADR$,AUTO
          1 0008CA  DDC6 0005                            CMB,B5   5,B6
          1 0008CC  0981 004A                            BNE      s:13670,PREL

     1366    13651    4                        ADR$=BRK$->BRKPNT.ADR$ THEN DO;

     1367    13652    4                         IF ((GD$MSG.SUBFB.INTERPRETIVE) AND (G$TSA.I.TRAP# = %
             13652                                  G_FPRG_XBREAK#)

  13652   1 0008CE  CCC7 000B                            LDB,B4   MSG$,AUTO
          1 0008D0  8284                                 LB,'0004'X        ,B4
          1 0008D1       0004
          1 0008D2  0581 0018                            BBF      s:13658,PREL
          1 0008D4  BCC7 0004                            LDB,B3   @G$TSA,AUTO
          1 0008D6  E2C3 0002                            LLH,R6   2,B3
          1 0008D8  6D33                                 CMV,R6   51
          1 0008D9  0981 0011                            BNE      s:13658,PREL
          1 0008DB  AC80 0000 0000  xsym                 LDB,B2   GD$DELTA_DATA$
          1 0008DE  9CC2 0154                            LDB,B1   340,B2
          1 0008E0  82C1 0006                            LB,'0020'X        6,B1
          1 0008E2       0020
          1 0008E3  0581 0007                            BBF      s:13658,PREL

     1368    13653    5                           AND (GD_DATA.GD.XBRKINFO$->VLP_XBREAK.GOBREAK)) THEN DO;

     1369    13654    5                            GD_DATA.GD.XBRKINFO$->VLP_XBREAK.REPLACED.INSTR =

PL6.E3A0      #005=GDB$FIRST_USER_TRAP File=GDB$BRKPNTS.:E05TSI                  TUE 07/29/97 21:24 Page:230
  13654   1 0008E5  D846 0007                            LDR,R5   7,B6
          1 0008E7  DF41 0003                            STR,R5   3,B1

     1370    13655    5                             BRK$->BRKPNT.OLDINST;
     1371    13656    5                            END;

  13656   1 0008E9  0F81 002D                            B        s:13670,PREL

     1372    13657    5                         ELSE DO;

     1373    13658    5                            ADR$=BRK$->BRKPNT.ADR$;

  13658   1 0008EB  BCC6 0005                            LDB,B3   5,B6
          1 0008ED  BFC7 0010                            STB,B3   ADR$,AUTO

     1374    13659    5                            CALL GDU$SETUP_WINDOW_USER (ADR$,BRK$->BRKPNT.USER#)

  13659   1 0008EF  DBC6 0008                            LAB,B5   8,B6
          1 0008F1  DFC7 0058                            STB,B5   CONSTPTR$+5,AUTO
          1 0008F3  ABC7 0010                            LAB,B2   ADR$,AUTO
          1 0008F5  AFC7 0056                            STB,B2   CONSTPTR$+3,AUTO
          1 0008F7  BBC7 0056                            LAB,B3   CONSTPTR$+3,AUTO
          1 0008F9  CBF0 0200                            LAB,B4   512,IMO
          1 0008FB  E380 0000 0000  xent                 LNJ,B6   GDU$SETUP_WINDOW_USER
          1 0008FE       0019                            DC       s:13670,PREL

     1375    13660    6                            WHENRETURN DO;

     1376    13661    6                               ADR$->MEMORY=BRK$->BRKPNT.OLDINST;

  13661   1 0008FF  ECC7 0010                            LDB,B6   ADR$,AUTO
          1 000901  DCC7 0006                            LDB,B5   BRK$,AUTO
          1 000903  E845 0007                            LDR,R6   7,B5
          1 000905  EF06                                 STR,R6   ,B6

     1377    13662    6                               BRK$->BRKPNT.FLAGS.ARMED = '0'B;

PL6.E3A0      #005=GDB$FIRST_USER_TRAP File=GDB$BRKPNTS.:E05TSI                  TUE 07/29/97 21:24 Page:231
  13662   1 000906  ECC7 0006                            LDB,B6   BRK$,AUTO
          1 000908  8846 000A                            LBF,'4000'X       10,B6
          1 00090A       4000

     1378    13663    6                               GD_DATA.GD.BRKNUM=BRKNUM;

  13663   1 00090B  DC80 0000 0000  xsym                 LDB,B5   GD$DELTA_DATA$
          1 00090E  E847 0008                            LDR,R6   BRKNUM,AUTO
          1 000910  EF45 0158                            STR,R6   344,B5

     1379    13664    6                               G$TSA.ISA.REGS.M1.J=%G_ENABLE#;

  13664   1 000912  CCC7 0004                            LDB,B4   @G$TSA,AUTO
          1 000914  8944 002E                            LBT,'0080'X       46,B4
          1 000916       0080

     1380    13665    6                               END;

     1381    13666    5                            END;

     1382    13667    4                         END;

     1383    13668    3                   END;

     1384    13669    2                END;

     1385    13670    1           IF G$TSA.I.TRAP# = %G_FPRG_XBREAK#

  13670   1 000917  ECC7 0004                            LDB,B6   @G$TSA,AUTO
          1 000919  E2C6 0002                            LLH,R6   2,B6
          1 00091B  6D33                                 CMV,R6   51
          1 00091C  0981 0013                            BNE      s:13680,PREL

     1386    13671    2           THEN DO;

     1387    13672    2                G$TSA.P$ = PINCRW(G$TSA.P$,1);

PL6.E3A0      #005=GDB$FIRST_USER_TRAP File=GDB$BRKPNTS.:E05TSI                  TUE 07/29/97 21:24 Page:232
  13672   1 00091E  DCC6 0008                            LDB,B5   8,B6
          1 000920  CBC5 0001                            LAB,B4   1,B5
          1 000922  CFC6 0008                            STB,B4   8,B6

     1388    13673    2                IF BRKNUM = 0

  13673   1 000924  D847 0008                            LDR,R5   BRKNUM,AUTO
          1 000926  5981 0009                            BNEZ,R5  s:13680,PREL

     1389    13674    2                THEN GD_DATA.GD.XBRKINFO$->VLP_XBREAK.GOBREAK = '0'B;

  13674   1 000928  DC80 0000 0000  xsym                 LDB,B5   GD$DELTA_DATA$
          1 00092B  BCC5 0154                            LDB,B3   340,B5
          1 00092D  8843 0006                            LBF,'0020'X       6,B3
          1 00092F       0020

     1390    13675    2              END;

     1391    13676        /*
     1392    13677          Restore the monitors window segment descriptor, since we probably
     1393    13678          trashed it along the way
     1394    13679                                                                                      */
     1395    13680    1           IF GD_DATA.GD.MODE=%GD#MODE_XDELTA THEN

  13680   1 000930  DC80 0000 0000  xsym                 LDB,B5   GD$DELTA_DATA$
          1 000933  E845 0130                            LDR,R6   304,B5
          1 000935  6D02                                 CMV,R6   2
          1 000936  0981 0006                            BNE      s:13687,PREL

     1396    13681    1              %ASDT_WINDOW#=GD_DATA.GD.WINDOWSEG;

  13681   1 000938  CCC5 017A                            LDB,B4   378,B5
          1 00093A  8CC5 0168                            LDI      360,B5
          1 00093C  8D04                                 SDI      ,B4

     1397    13682        /*
     1398    13683          If the user specified GOTRAP, setup the S reg to tell the debugger
PL6.E3A0      #005=GDB$FIRST_USER_TRAP File=GDB$BRKPNTS.:E05TSI                  TUE 07/29/97 21:24 Page:233
     1399    13684          this is what the user has specified, and do a normal return to the
     1400    13685          trap handler.
     1401    13686                                                                                      */
     1402    13687    1           IF GD_DATA.GD.TRACE ~= 0 OR GD_DATA.GD.ONCALL OR GD_DATA.GD.ONCALLS

  13687   1 00093D  DC80 0000 0000  xsym                 LDB,B5   GD$DELTA_DATA$
          1 000940  E845 0153                            LDR,R6   339,B5
          1 000942  6981 000B                            BNEZ,R6  s:13689,PREL
          1 000944  82C5 014C                            LB,'0800'X        332,B5
          1 000946       0800
          1 000947  0501 0006                            BBT      s:13689,PREL
          1 000949  82C5 014C                            LB,'1000'X        332,B5
          1 00094B       1000
          1 00094C  0581 0010                            BBF      s:13696,PREL

     1403    13688    2           THEN DO;

     1404    13689    2                IF G$TSA.I.TRAP# = %G_FPRG_XBREAK#

  13689   1 00094E  D2C6 0002                            LLH,R5   2,B6
          1 000950  5D33                                 CMV,R5   51
          1 000951  0981 0008                            BNE      s:13691,PREL

     1405    13690    2                THEN GD_DATA.GD.XBRKINFO$ -> VLP_XBREAK.TT = '1'B;

  13690   1 000953  CCC5 0154                            LDB,B4   340,B5
          1 000955  8944 0006                            LBT,'0080'X       6,B4
          1 000957       0080
          1 000958  0F81 0004                            B        s:13696,PREL

     1406    13691    2                ELSE G$TSA.ISA.REGS.M1.J = '1'B;

  13691   1 00095A  8946 002E                            LBT,'0080'X       46,B6
  13691   1 00095C       0080

     1407    13692    2             END;

PL6.E3A0      #005=GDB$FIRST_USER_TRAP File=GDB$BRKPNTS.:E05TSI                  TUE 07/29/97 21:24 Page:234
     1408    13693        /* If post-associating FPL, set trap to XBREAK to tell the
     1409    13694           interpreter that a debugger is present.
     1410    13695        */
     1411    13696    1           IF GD$MSG.SUBFB.POSTASSOC THEN

  13696   1 00095D  CCC7 000B                            LDB,B4   MSG$,AUTO
          1 00095F  8284                                 LB,'0080'X        ,B4
          1 000960       0080
          1 000961  0581 0004                            BBF      s:13698,PREL

     1412    13697    1              G$TSA.I.TRAP# = %G_FPRG_XBREAK#;

  13697   1 000963  6C33                                 LDV,R6   51
          1 000964  E7C6 0002                            STH,R6   2,B6

     1413    13698    1           IF GD_DATA.GD.GOTRAP THEN

  13698   1 000966  82C5 014C                            LB,'0020'X        332,B5
  13698   1 000968       0020
          1 000969  0581 0069                            BBF      s:13727,PREL

     1414    13699    2           DO;

     1415    13700        /* No need to check for a trap handler if this is XDELTA. */
     1416    13701    2              IF GD_DATA.GD.MODE = %GD#MODE_XDELTA THEN

  13701   1 00096B  E845 0130                            LDR,R6   304,B5
          1 00096D  6D02                                 CMV,R6   2
          1 00096E  0901 005D                            BE       s:13722,PREL

     1417    13702    2                 GOTO GOTRAP;
     1418    13703    2              TRAP_NO = G$TSA.I.TRAP#;

  13703   1 000970  D2C6 0002                            LLH,R5   2,B6
          1 000972  DF47 0014                            STR,R5   TRAP_NO,AUTO

     1419    13704    2              IF G$TSA.I.TRAP# <=%G_SIP_QLT# THEN
PL6.E3A0      #005=GDB$FIRST_USER_TRAP File=GDB$BRKPNTS.:E05TSI                  TUE 07/29/97 21:24 Page:235

  13704   1 000974  5D1F                                 CMV,R5   31
          1 000975  0301 0015                            BG       s:13710,PREL

     1420    13705    2                 IF G$ROS.U_ECCB$->G$ECCB.TRAP$=ENTADDR(NIL)

  13705   1 000977  BC80 0000 0000  xsym                 LDB,B3   G$ROS$
          1 00097A  ACC3 000C                            LDB,B2   12,B3
          1 00097C  9CC2 0006                            LDB,B1   6,B2
          1 00097E  9D80 0000 0001  02                   CMB,B1   +1
          1 000981  0901 0030                            BE       s:13718,PREL
          1 000983  B855                                 LDR,R3   R5
          1 000984  EBC2 000B                            LAB,B6   11,B2
          1 000986  82B6                                 LB       ,B6,R3
          1 000987  0581 002A                            BBF      s:13718,PREL

     1421    13706    2                 OR G$ROS.U_ECCB$->G$ECCB.FLTFLGS(G$TSA.I.TRAP#)='0'B THEN
     1422    13707    2                    GOTO NO_HAND;
     1423    13708    2                 ELSE
     1424    13709    2                    GOTO GOTRAP;

  13709   1 000989  0F81 0042                            B        s:13722,PREL

     1425    13710    2              IF G$TSA.I.TRAP# >= %G_FPRG_EXIT# AND G$TSA.I.TRAP#<=%G_FPRG_XXX# THEN

  13710   1 00098B  5D2F                                 CMV,R5   47
          1 00098C  0201 0007                            BL       s:13712,PREL
          1 00098E  5D31                                 CMV,R5   49
          1 00098F  0301 0004                            BG       s:13712,PREL

     1426    13711    2                 TRAP_NO=%G_FPRG_XCON#;

  13711   1 000991  5C3A                                 LDV,R5   58
          1 000992  DF47 0014                            STR,R5   TRAP_NO,AUTO

     1427    13712    2              IF G$TSA.I.TRAP#=%G_HOST_INT# THEN

PL6.E3A0      #005=GDB$FIRST_USER_TRAP File=GDB$BRKPNTS.:E05TSI                  TUE 07/29/97 21:24 Page:236
  13712   1 000994  C2C6 0002                            LLH,R4   2,B6
          1 000996  4D37                                 CMV,R4   55
          1 000997  0981 0004                            BNE      s:13714,PREL

     1428    13713    2                 TRAP_NO=%G_FPRG_BRK#;

  13713   1 000999  5C39                                 LDV,R5   57
          1 00099A  DF47 0014                            STR,R5   TRAP_NO,AUTO

     1429    13714    2              IF TRAP_NO < %G_FPRG_EVENT# OR TRAP_NO > %G_FPRG_MCLTRAP# THEN

  13714   1 00099C  5D38                                 CMV,R5   56
          1 00099D  0201 002E                            BL       s:13722,PREL
          1 00099F  5D3B                                 CMV,R5   59
          1 0009A0  0301 002B                            BG       s:13722,PREL

     1430    13715    2                 GOTO GOTRAP;
     1431    13716    3              IF G$ROS.U_ECCB$->G$ECCB_ARRAYED.HAND$(TRAP_NO-%G_FPRG_EVENT#)=ENTADDR(
             13716                       NIL) THEN DO;

  13716   1 0009A2  BC80 0000 0000  xsym                 LDB,B3   G$ROS$
          1 0009A5  ACC3 000C                            LDB,B2   12,B3
          1 0009A7  B855                                 LDR,R3   R5
          1 0009A8  3EC8                                 ADV,R3   -56
          1 0009A9  9CB2                                 LDB,B1   ,B2,R3
          1 0009AA  9D80 0000 0000  02                   CMB,B1   0
          1 0009AD  0981 001E                            BNE      s:13722,PREL

     1432    13717    3                 SIZE=%GD#RSPBRKSIZ;

  13717   1 0009AF  2C40                                 LDV,R2   64
          1 0009B0  AF47 000F                            STR,R2   SIZE,AUTO

     1433    13718    3   NO_HAND:      CALL GDI$SEND_ERROR_RESPONSE(SIZE,GD$MSG,%GD#RSPNOTRAPHAND);

  13718   1 0009B2  EBF0 0031            NO_HAND         LAB,B6   49,IMO
          1 0009B4  EFC7 005A                            STB,B6   CONSTPTR$+7,AUTO
PL6.E3A0      #005=GDB$FIRST_USER_TRAP File=GDB$BRKPNTS.:E05TSI                  TUE 07/29/97 21:24 Page:237
          1 0009B6  CFC7 0058                            STB,B4   CONSTPTR$+5,AUTO
          1 0009B8  ABC7 000F                            LAB,B2   SIZE,AUTO
          1 0009BA  AFC7 0056                            STB,B2   CONSTPTR$+3,AUTO
          1 0009BC  BBC7 0056                            LAB,B3   CONSTPTR$+3,AUTO
          1 0009BE  CBF0 0300                            LAB,B4   768,IMO
          1 0009C0  E380 0000 0000  xent                 LNJ,B6   GDI$SEND_ERROR_RESPONSE
          1 0009C3       0001                            DC       s:13719,PREL

     1434    13719    3                 GD_DATA.GD.STOPT = %G_YES#;

  13719   1 0009C4  EC80 0000 0000  xsym                 LDB,B6   GD$DELTA_DATA$
          1 0009C7  8946 014C                            LBT,'0004'X       332,B6
          1 0009C9       0004

     1435    13720    3                 GOTO CALLGDI;

  13720   1 0009CA  0F81 FD06                            B        s:13534,PREL

     1436    13721    3                 END;
     1437    13722    3              ELSE DO;

     1438    13723    3   GOTRAP:       G$TSA.ISA.S='0'B;

  13723   1 0009CC  ECC7 0004            GOTRAP          LDB,B6   @G$TSA,AUTO
          1 0009CE  8746 0017                            CL       23,B6

     1439    13724    3                 RETURN;

  13724   1 0009D0  C380 0000 0000  xent                 LNJ,B4   X6A_ARET

     1440    13725    3                 END;
     1441    13726    2              END;
     1442    13727    1           ALTRETURN;

  13727   1 0009D3  C380 0000 0000  xent                 LNJ,B4   X6A_AALT

     1443    13728    1   SRCHFORBRKPNT: PROC(BRK$,ADR$) ALTRET;
PL6.E3A0      #005=GDB$FIRST_USER_TRAP File=GDB$BRKPNTS.:E05TSI                  TUE 07/29/97 21:24 Page:238

  13728   1 0009D6  EFC7 0018            SRCHFORBRKPNT   STB,B6   ERRCODE_SCRATCH+2,AUTO

     1444    13729
     1445    13730        /**/
     1446    13731        /* Parameters */
     1447    13732        /**/
     1448    13733
     1449    13734    2   DCL BRK$ PTR;
     1450    13735    2   DCL ADR$ PTR;
     1451    13736
     1452    13737    2           BRK$ = ADDR(GD_DATA.MYSPACE(0));

  13737   1 0009D8  DC80 0000 0000  xsym                 LDB,B5   GD$DELTA_DATA$
          1 0009DB  CBC5 01AE                            LAB,B4   430,B5
          1 0009DD  BCC7 001A                            LDB,B3   @BRK$,AUTO
          1 0009DF  CF83                                 STB,B4   ,B3

     1453    13738    2           IF BRK$ = GD_DATA.GD.DYNSP$ THEN ALTRETURN;

  13738   1 0009E0  EC80 0000 0000  xsym                 LDB,B6   GD$DELTA_DATA$
          1 0009E3  CDC6 0156                            CMB,B4   342,B6
          1 0009E5  0981 0005                            BNE      s:13739,PREL

  13738   1 0009E7  ECC7 0018                            LDB,B6   ERRCODE_SCRATCH+2,AUTO
          1 0009E9  B806                                 LDR,R3   ,B6
          1 0009EA  C3B6                                 LNJ,B4   ,B6,R3

     1454    13739    3           DO WHILE BRK$ ~= ADDR(NIL);

  13739   1 0009EB  0F81 001D                            B        s:13747,PREL

     1455    13740    4              IF BRK$->BRKPNT.ADR$ = ADR$ THEN DO;

  13740   1 0009ED  ECC7 001A                            LDB,B6   @BRK$,AUTO
          1 0009EF  DC86                                 LDB,B5   ,B6
          1 0009F0  CCC5 0005                            LDB,B4   5,B5
PL6.E3A0      #005=GDB$FIRST_USER_TRAP File=GDB$BRKPNTS.:E05TSI                  TUE 07/29/97 21:24 Page:239
          1 0009F2  BCC7 001C                            LDB,B3   @ADR$,AUTO
          1 0009F4  CD83                                 CMB,B4   ,B3
          1 0009F5  0981 0011                            BNE      s:13746,PREL

     1456    13741    4                 GD_DATA.GD.BRK$ = BRK$;

  13741   1 0009F7  AC80 0000 0000  xsym                 LDB,B2   GD$DELTA_DATA$
          1 0009FA  DFC2 0159                            STB,B5   345,B2

     1457    13742    4                 GD_DATA.GD.BRKNUM = BRK$->BRKPNT.BRKNUM;

  13742   1 0009FC  CC86                                 LDB,B4   ,B6
          1 0009FD  E844 0002                            LDR,R6   2,B4
          1 0009FF  EF42 0158                            STR,R6   344,B2

     1458    13743    4                 BRKNUM = GD_DATA.GD.BRKNUM;

  13743   1 000A01  EF47 0008                            STR,R6   BRKNUM,AUTO

     1459    13744    4                 RETURN;

  13744   1 000A03  ECC7 0018                            LDB,B6   ERRCODE_SCRATCH+2,AUTO
          1 000A05  C3C6 0001                            LNJ,B4   1,B6

     1460    13745    4                 END;
     1461    13746    3              ELSE BRK$ = BRK$->BRKPNT.FLINK$;

  13746   1 000A07  AC85                                 LDB,B2   ,B5
          1 000A08  AF86                                 STB,B2   ,B6

     1462    13747    3              END;

  13747   1 000A09  ECC7 001A                            LDB,B6   @BRK$,AUTO
          1 000A0B  8D86                                 CMN      ,B6
          1 000A0C  09E1                                 BNE      s:13740,SPREL

     1463    13748    2           ALTRETURN;
PL6.E3A0      #005=GDB$FIRST_USER_TRAP File=GDB$BRKPNTS.:E05TSI                  TUE 07/29/97 21:24 Page:240

  13748   1 000A0D  ECC7 0018                            LDB,B6   ERRCODE_SCRATCH+2,AUTO
          1 000A0F  B806                                 LDR,R3   ,B6
          1 000A10  C3B6                                 LNJ,B4   ,B6,R3

     1464    13749
     1465    13750    2   END SRCHFORBRKPNT;
     1466    13751        %EJECT;
PL6.E3A0      #005=GDB$FIRST_USER_TRAP File=GDB$BRKPNTS.:E05TSI                  TUE 07/29/97 21:24 Page:241
     1467    13752    1   CMPRIF: PROC(BRK$) ALTRET;

  13752   1 000A11  EFC7 0018            CMPRIF          STB,B6   ERRCODE_SCRATCH+2,AUTO

     1468    13753
     1469    13754        /**/
     1470    13755        /* Parameters */
     1471    13756        /**/
     1472    13757
     1473    13758    2   DCL BRK$ PTR;
     1474    13759
     1475    13760        /**/
     1476    13761        /* Arguments */
     1477    13762        /**/
     1478    13763
     1479    13764    2   DCL DESC$ PTR;
     1480    13765    2   DCL ADR$ PTR;
     1481    13766    2   DCL DD_ADDRESS UBIN (32);
     1482    13767    2   DCL DD_IS_PTR BIT(1) ALIGNED;
     1483    13768    2   DCL ARRAY_CUR UBIN;
     1484    13769    2   DCL ARRAY_HIGH UBIN;
     1485    13770    2   DCL ARRAY_FIRST BIT(1) ALIGNED;
     1486    13771    2   DCL DD_BITSIZE UBIN;
     1487    13772    2   DCL BITOFF UBIN;
     1488    13773    2   DCL DSIZE UBIN;
     1489    13774    2   DCL DD_SEG UBIN WORD;
     1490    13775    2   DCL DD_DESC# UBIN WORD;
     1491    13776    2   DCL DD_NOT_IS BIT(1) ALIGNED;
     1492    13777
     1493    13778        /**/
     1494    13779        /* Local Vars */
     1495    13780        /**/
     1496    13781
     1497    13782    2   DCL VALS SBIN(32);
     1498    13783    2   DCL VALS_(0:31) REDEF VALS BIT(1) UNAL;
     1499    13784    2   DCL VALU REDEF VALS UBIN(32);
     1500    13785    2   DCL VALP$ REDEF VALS PTR;
PL6.E3A0      #005=GDB$FIRST_USER_TRAP File=GDB$BRKPNTS.:E05TSI                  TUE 07/29/97 21:24 Page:242
     1501    13786    2   DCL 1 VALP REDEF VALS,
     1502    13787    2         2 C BIT(1) UNAL,
     1503    13788    2         2 * BIT(11) UNAL,
     1504    13789    2         2 W UBIN(20) UNAL;
     1505    13790    2   DCL VALP_(0:31) REDEF VALS BIT(1) UNAL;
     1506    13791    2   DCL VALB(0:1) BIT(32);
     1507    13792    2   DCL VALB_(0:63) REDEF VALB BIT(1) UNAL;
     1508    13793    2   DCL VALC CHAR(63);
     1509    13794    2   DCL VALC_(0:62) REDEF VALC CHAR(1);
     1510    13795    2   DCL I UBIN;
     1511    13796    2   DCL CONSTPTR$ PTR;
     1512    13797    2   DCL 1 CONSTPTR REDEF CONSTPTR$,
     1513    13798    2         2 C BIT(1) UNAL,
     1514    13799    2         2 * BIT(11) UNAL,
     1515    13800    2         2 W BIT(20) UNAL;
     1516    13801
     1517    13802        /**/
     1518    13803        /* Based Vars */
     1519    13804        /**/
     1520    13805
     1521    13806    2   DCL 1 B$BYTES BASED CALIGNED,
     1522    13807    2         2 B(0:0) CHAR(1);
     1523    13808    2   DCL 1 B$BITS BASED ALIGNED,
     1524    13809    2         2 B(0:0) BIT(1) UNAL;
     1525    13810
     1526    13811    2           GD_DATA.MISC.DESC$ = BRK$->IFBRKPNT.IFCOND.DD$;

  13811   1 000A13  DCC7 001A                            LDB,B5   @BRK$,AUTO
          1 000A15  CC85                                 LDB,B4   ,B5
          1 000A16  BCC4 002E                            LDB,B3   46,B4
          1 000A18  AC80 0000 0000  xsym                 LDB,B2   GD$DELTA_DATA$
          1 000A1B  BFC2 0184                            STB,B3   388,B2

     1527    13812    2           ARRAY_FIRST = '0'B;

  13812   1 000A1D  8747 0025                            CL       ARRAY_FIRST,AUTO

PL6.E3A0      #005=GDB$FIRST_USER_TRAP File=GDB$BRKPNTS.:E05TSI                  TUE 07/29/97 21:24 Page:243
     1528    13813    2           ARRAY_CUR = 0;

  13813   1 000A1F  8747 0023                            CL       ARRAY_CUR,AUTO

     1529    13814    2           ARRAY_HIGH = 0;

  13814   1 000A21  8747 0024                            CL       ARRAY_HIGH,AUTO

     1530    13815    2           SIZE = %GD#RSPBRKSIZ;

  13815   1 000A23  6C40                                 LDV,R6   64
          1 000A24  EF47 000F                            STR,R6   SIZE,AUTO

     1531    13816    2           CALL GDK$RESADDR (ARRAY_FIRST,ARRAY_CUR,ARRAY_HIGH,

  13816   1 000A26  CBC7 0022                            LAB,B4   DD_IS_PTR,AUTO
          1 000A28  CFC7 0068                            STB,B4   CONSTPTR$+21,AUTO
          1 000A2A  9BC7 002B                            LAB,B1   DD_NOT_IS,AUTO
          1 000A2C  9FC7 0066                            STB,B1   CONSTPTR$+19,AUTO
          1 000A2E  EBC7 0027                            LAB,B6   BITOFF,AUTO
          1 000A30  EFC7 0064                            STB,B6   CONSTPTR$+17,AUTO
          1 000A32  EBC7 0026                            LAB,B6   DD_BITSIZE,AUTO
          1 000A34  EFC7 0062                            STB,B6   CONSTPTR$+15,AUTO
          1 000A36  EBC7 0020                            LAB,B6   DD_ADDRESS,AUTO
          1 000A38  EFC7 0060                            STB,B6   CONSTPTR$+13,AUTO
          1 000A3A  EBC7 002A                            LAB,B6   DD_DESC#,AUTO
          1 000A3C  EFC7 005E                            STB,B6   CONSTPTR$+11,AUTO
          1 000A3E  EBC7 0029                            LAB,B6   DD_SEG,AUTO
          1 000A40  EFC7 005C                            STB,B6   CONSTPTR$+9,AUTO
          1 000A42  EBC7 0024                            LAB,B6   ARRAY_HIGH,AUTO
          1 000A44  EFC7 005A                            STB,B6   CONSTPTR$+7,AUTO
          1 000A46  EBC7 0023                            LAB,B6   ARRAY_CUR,AUTO
          1 000A48  EFC7 0058                            STB,B6   CONSTPTR$+5,AUTO
          1 000A4A  EBC7 0025                            LAB,B6   ARRAY_FIRST,AUTO
          1 000A4C  EFC7 0056                            STB,B6   CONSTPTR$+3,AUTO
          1 000A4E  BBC7 0056                            LAB,B3   CONSTPTR$+3,AUTO
          1 000A50  CBF0 0A00                            LAB,B4   2560,IMO
PL6.E3A0      #005=GDB$FIRST_USER_TRAP File=GDB$BRKPNTS.:E05TSI                  TUE 07/29/97 21:24 Page:244
          1 000A52  E380 0000 0000  xent                 LNJ,B6   GDK$RESADDR
          1 000A55       0003                            DC       s:13819,PREL
          1 000A56  0F81 0019                            B        s:13822,PREL

     1532    13817    2              DD_SEG,DD_DESC#,DD_ADDRESS,DD_BITSIZE,
     1533    13818    3              BITOFF,DD_NOT_IS,DD_IS_PTR) WHENALTRETURN DO;

     1534    13819    3              CALL GDI$SEND_ERROR_RESPONSE(SIZE,MSGBFR,%GD#RSPBADADR);

  13819   1 000A58  EBF0 0037                            LAB,B6   55,IMO
          1 000A5A  EFC7 005A                            STB,B6   CONSTPTR$+7,AUTO
          1 000A5C  DCC7 000B                            LDB,B5   MSG$,AUTO
          1 000A5E  DFC7 0058                            STB,B5   CONSTPTR$+5,AUTO
          1 000A60  CBC7 000F                            LAB,B4   SIZE,AUTO
          1 000A62  CFC7 0056                            STB,B4   CONSTPTR$+3,AUTO
          1 000A64  BBC7 0056                            LAB,B3   CONSTPTR$+3,AUTO
          1 000A66  CBF0 0300                            LAB,B4   768,IMO
          1 000A68  E380 0000 0000  xent                 LNJ,B6   GDI$SEND_ERROR_RESPONSE
          1 000A6B       0001                            DC       s:13820,PREL

     1535    13820    3              RETURN;

  13820   1 000A6C  ECC7 0018                            LDB,B6   ERRCODE_SCRATCH+2,AUTO
          1 000A6E  C3C6 0001                            LNJ,B4   1,B6

     1536    13821    3              END /* WHENALTRETURN */;
     1537    13822    2           CALL GDK$MPTR (ADR$,DD_ADDRESS,DD_SEG,DD_DESC#,DD_NOT_IS,

  13822   1 000A70  EBC7 0028                            LAB,B6   DSIZE,AUTO
          1 000A72  EFC7 0062                            STB,B6   CONSTPTR$+15,AUTO
          1 000A74  DBC7 0022                            LAB,B5   DD_IS_PTR,AUTO
          1 000A76  DFC7 0060                            STB,B5   CONSTPTR$+13,AUTO
          1 000A78  CBC7 002B                            LAB,B4   DD_NOT_IS,AUTO
          1 000A7A  CFC7 005E                            STB,B4   CONSTPTR$+11,AUTO
          1 000A7C  BBC7 002A                            LAB,B3   DD_DESC#,AUTO
          1 000A7E  BFC7 005C                            STB,B3   CONSTPTR$+9,AUTO
          1 000A80  ABC7 0029                            LAB,B2   DD_SEG,AUTO
PL6.E3A0      #005=GDB$FIRST_USER_TRAP File=GDB$BRKPNTS.:E05TSI                  TUE 07/29/97 21:24 Page:245
          1 000A82  AFC7 005A                            STB,B2   CONSTPTR$+7,AUTO
          1 000A84  9BC7 0020                            LAB,B1   DD_ADDRESS,AUTO
          1 000A86  9FC7 0058                            STB,B1   CONSTPTR$+5,AUTO
          1 000A88  EBC7 001E                            LAB,B6   ADR$,AUTO
          1 000A8A  EFC7 0056                            STB,B6   CONSTPTR$+3,AUTO
          1 000A8C  BBC7 0056                            LAB,B3   CONSTPTR$+3,AUTO
          1 000A8E  CBF0 0700                            LAB,B4   1792,IMO
          1 000A90  E380 0000 0000  xent                 LNJ,B6   GDK$MPTR
          1 000A93       0001                            DC       s:13824,PREL

     1538    13823    2                          DD_IS_PTR,DSIZE);
     1539    13824    3           CALL GDU$SETUP_WINDOW_USER(ADR$,GD_DATA.GD.USERNO) WHENALTRETURN DO;

  13824   1 000A94  EC80 0000 0000  xsym                 LDB,B6   GD$DELTA_DATA$
          1 000A97  DBC6 016B                            LAB,B5   363,B6
          1 000A99  DFC7 0058                            STB,B5   CONSTPTR$+5,AUTO
          1 000A9B  CBC7 001E                            LAB,B4   ADR$,AUTO
          1 000A9D  CFC7 0056                            STB,B4   CONSTPTR$+3,AUTO
          1 000A9F  BBC7 0056                            LAB,B3   CONSTPTR$+3,AUTO
          1 000AA1  CBF0 0200                            LAB,B4   512,IMO
          1 000AA3  E380 0000 0000  xent                 LNJ,B6   GDU$SETUP_WINDOW_USER
          1 000AA6       0003                            DC       s:13825,PREL
          1 000AA7  0F81 000C                            B        s:13830,PREL

     1540    13825    3              IF ADDR(GD_DATA.GD.VLD)->GH_VLD.STATUS < 0 THEN RETURN;

  13825   1 000AA9  EC80 0000 0000  xsym                 LDB,B6   GD$DELTA_DATA$
          1 000AAC  E846 0173                            LDR,R6   371,B6
          1 000AAE  6881 0005                            BGEZ,R6  s:13830,PREL

  13825   1 000AB0  ECC7 0018                            LDB,B6   ERRCODE_SCRATCH+2,AUTO
          1 000AB2  C3C6 0001                            LNJ,B4   1,B6

     1541    13826    3              END;
     1542    13827
     1543    13828        /* Put value where it can be easily?? used later */
     1544    13829
PL6.E3A0      #005=GDB$FIRST_USER_TRAP File=GDB$BRKPNTS.:E05TSI                  TUE 07/29/97 21:24 Page:246
     1545    13830    3           DO CASE(BRK$->IFBRKPNT.IFCOND.CTYPE);

  13830   1 000AB4  ECC7 001A                            LDB,B6   @BRK$,AUTO
          1 000AB6  DC86                                 LDB,B5   ,B6
          1 000AB7  B845 000B                            LDR,R3   11,B5
          1 000AB9  3D06                                 CMV,R3   6
          1 000ABA  0281 00EE                            BGE      s:13860,PREL
          1 000ABC  A830 0000 0AC2  01                   LDR,R2   s:13830+14,R3
          1 000ABF  83A0 0000 0AC8  01                   JMP      s:13832,R2
          1 000AC2       00E1                            DC       s:13860,PREL
          1 000AC3       0033                            DC       s:13838,PREL
          1 000AC4       0073                            DC       s:13847,PREL
          1 000AC5       0000                            DC       s:13832,PREL
          1 000AC6       00A0                            DC       s:13852,PREL
          1 000AC7       0068                            DC       s:13844,PREL

     1546    13831    3              CASE(3); /* VALUE */

     1547    13832    3                 IF DD_BITSIZE > 32 THEN RETURN;

  13832   1 000AC8  E847 0026                            LDR,R6   DD_BITSIZE,AUTO
          1 000ACA  6D20                                 CMV,R6   32
          1 000ACB  0381 0005                            BLE      s:13833,PREL

  13832   1 000ACD  ECC7 0018                            LDB,B6   ERRCODE_SCRATCH+2,AUTO
          1 000ACF  C3C6 0001                            LNJ,B4   1,B6

     1548    13833    3                 VALS = 0;

  13833   1 000AD1  8747 002C                            CL       VALS,AUTO
          1 000AD3  8747 002D                            CL       VALS+1,AUTO

     1549    13834    4                 DO I = BITOFF TO BITOFF + DD_BITSIZE - 1;

  13834   1 000AD5  D847 0027                            LDR,R5   BITOFF,AUTO
          1 000AD7  DF47 0052                            STR,R5   I,AUTO
          1 000AD9  0F81 0018                            B        s:13836+2,PREL
PL6.E3A0      #005=GDB$FIRST_USER_TRAP File=GDB$BRKPNTS.:E05TSI                  TUE 07/29/97 21:24 Page:247

     1550    13835    4                    VALS_(I-BITOFF+32-DD_BITSIZE) = ADR$->B$BITS.B(I);

  13835   1 000ADB  E847 0052                            LDR,R6   I,AUTO
          1 000ADD  E247 0027                            SUB,R6   BITOFF,AUTO
          1 000ADF  E247 0026                            SUB,R6   DD_BITSIZE,AUTO
          1 000AE1  EF47 0056                            STR,R6   CONSTPTR$+3,AUTO
          1 000AE3  ACC7 001E                            LDB,B2   ADR$,AUTO
          1 000AE5  A847 0052                            LDR,R2   I,AUTO
          1 000AE7  6C01                                 LDV,R6   1
          1 000AE8  BBC7 002E                            LAB,B3   VALB,AUTO
          1 000AEA  B847 0056                            LDR,R3   CONSTPTR$+3,AUTO
          1 000AEC  7C01                                 LDV,R7   1
          1 000AED  D380 0000 0000  xent                 LNJ,B5   X6B_BLR

     1551    13836    4                    END;

  13836   1 000AF0  8AC7 0052                            INC      I,AUTO
          1 000AF2  E847 0027                            LDR,R6   BITOFF,AUTO
          1 000AF4  EA47 0026                            ADD,R6   DD_BITSIZE,AUTO
          1 000AF6  E947 0052                            CMR,R6   I,AUTO
          1 000AF8  0363                                 BG       s:13835,SPREL
          1 000AF9  0F81 00B3                            B        s:13865,PREL

     1552    13837    3              CASE(1); /* CHAR */

     1553    13838    3                 IF DD_BITSIZE/8 > 63 THEN RETURN;

  13838   1 000AFB  E847 0026                            LDR,R6   DD_BITSIZE,AUTO
          1 000AFD  6043                                 SOR,R6   3
          1 000AFE  6D3F                                 CMV,R6   63
          1 000AFF  0381 0005                            BLE      s:13839,PREL

  13838   1 000B01  ECC7 0018                            LDB,B6   ERRCODE_SCRATCH+2,AUTO
          1 000B03  C3C6 0001                            LNJ,B4   1,B6

     1554    13839    3                 VALC = ' ';
PL6.E3A0      #005=GDB$FIRST_USER_TRAP File=GDB$BRKPNTS.:E05TSI                  TUE 07/29/97 21:24 Page:248

  13839   1 000B05  D870 203F                            LDR,R5   8255,IMO
          1 000B07  0021                                 ALR      ;
          1 000B08       4178 2000                                ALPHANUM('2000'X,IMO,,1),;
          1 000B0A       4007 0032                                ALPHANUM(VALC,AUTO,,R5,FILL)

     1555    13840    4                 DO I = (BITOFF/8) TO (DD_BITSIZE/8 + BITOFF/8 - 1);

  13840   1 000B0C  E847 0027                            LDR,R6   BITOFF,AUTO
          1 000B0E  6043                                 SOR,R6   3
          1 000B0F  437F                                 CSYNC    s:13840+2,SPREL
          1 000B10  EF47 0052                            STR,R6   I,AUTO
          1 000B12  0F81 0011                            B        s:13842+2,PREL

     1556    13841    4                    VALC_(I-BITOFF/8) = ADR$->B$BYTES.B(I);

  13841   1 000B14  E847 0027                            LDR,R6   BITOFF,AUTO
          1 000B16  6043                                 SOR,R6   3
          1 000B17  E247 0052                            SUB,R6   I,AUTO
          1 000B19  ECC7 001E                            LDB,B6   ADR$,AUTO
          1 000B1B  B847 0052                            LDR,R3   I,AUTO
          1 000B1D  D0B6                                 LDH,R5   ,B6,R3
          1 000B1E  A856                                 LDR,R2   R6
          1 000B1F  8252                                 NEG      R2
          1 000B20  2E64                                 ADV,R2   100
          1 000B21  D7A7                                 STH,R5   ,AUTO,R2

     1557    13842    4                    END;

  13842   1 000B22  8AC7 0052                            INC      I,AUTO
          1 000B24  E847 0026                            LDR,R6   DD_BITSIZE,AUTO
          1 000B26  6043                                 SOR,R6   3
          1 000B27  D847 0027                            LDR,R5   BITOFF,AUTO
          1 000B29  5043                                 SOR,R5   3
          1 000B2A  EA55                                 ADD,R6   R5
          1 000B2B  E947 0052                            CMR,R6   I,AUTO
          1 000B2D  0367                                 BG       s:13841,SPREL
PL6.E3A0      #005=GDB$FIRST_USER_TRAP File=GDB$BRKPNTS.:E05TSI                  TUE 07/29/97 21:24 Page:249
          1 000B2E  0F81 007E                            B        s:13865,PREL

     1558    13843    3              CASE(5); /* DECVALUE */

     1559    13844    3                 VALB = '0'B;

  13844   1 000B30  5C08                                 LDV,R5   8
          1 000B31  0021                                 ALR      ;
          1 000B32       4178 0000                                ALPHANUM('0000'X,IMO,,1),;
          1 000B34       4007 002E                                ALPHANUM(VALB,AUTO,,R5,FILL)

     1560    13845    3                 RETURN;

  13845   1 000B36  ECC7 0018                            LDB,B6   ERRCODE_SCRATCH+2,AUTO
          1 000B38  437F                                 CSYNC    s:13845+1,SPREL
          1 000B39  C3C6 0001                            LNJ,B4   1,B6

     1561    13846    3              CASE(2); /* BIT */

     1562    13847    3                 IF DD_BITSIZE > 64 THEN RETURN;

  13847   1 000B3B  E847 0026                            LDR,R6   DD_BITSIZE,AUTO
          1 000B3D  6D40                                 CMV,R6   64
          1 000B3E  0381 0005                            BLE      s:13848,PREL

  13847   1 000B40  ECC7 0018                            LDB,B6   ERRCODE_SCRATCH+2,AUTO
          1 000B42  C3C6 0001                            LNJ,B4   1,B6

     1563    13848    4                 ELSE DO I = BITOFF TO DD_BITSIZE + BITOFF - 1;

  13848   1 000B44  D847 0027                            LDR,R5   BITOFF,AUTO
          1 000B46  DF47 0052                            STR,R5   I,AUTO
          1 000B48  0F81 0016                            B        s:13850+2,PREL

     1564    13849    4                    VALB_(I-BITOFF) = ADR$->B$BITS.B(I);

  13849   1 000B4A  E847 0052                            LDR,R6   I,AUTO
PL6.E3A0      #005=GDB$FIRST_USER_TRAP File=GDB$BRKPNTS.:E05TSI                  TUE 07/29/97 21:24 Page:250
          1 000B4C  E247 0027                            SUB,R6   BITOFF,AUTO
          1 000B4E  EF47 0056                            STR,R6   CONSTPTR$+3,AUTO
          1 000B50  ACC7 001E                            LDB,B2   ADR$,AUTO
          1 000B52  A847 0052                            LDR,R2   I,AUTO
          1 000B54  6C01                                 LDV,R6   1
          1 000B55  BBC7 002E                            LAB,B3   VALB,AUTO
          1 000B57  B847 0056                            LDR,R3   CONSTPTR$+3,AUTO
          1 000B59  7C01                                 LDV,R7   1
          1 000B5A  D380 0000 0000  xent                 LNJ,B5   X6B_BLR

     1565    13850    4                    END;

  13850   1 000B5D  8AC7 0052                            INC      I,AUTO
          1 000B5F  E847 0026                            LDR,R6   DD_BITSIZE,AUTO
          1 000B61  EA47 0027                            ADD,R6   BITOFF,AUTO
          1 000B63  E947 0052                            CMR,R6   I,AUTO
          1 000B65  0365                                 BG       s:13849,SPREL
          1 000B66  0F81 0046                            B        s:13865,PREL

     1566    13851    3              CASE(4); /* PTR */

     1567    13852    3                 CONSTPTR$ = ADDR(NIL);

  13852   1 000B68  CB80 0000 0000                       LAB,B4   0
          1 000B6B  CFC7 0053                            STB,B4   CONSTPTR$,AUTO

     1568    13853    3                 CONSTPTR.C = BRK$->IFBRKPNT.IFCOND.CONS$TANT.PNTR.C;

  13853   1 000B6D  E845 000F                            LDR,R6   15,B5
          1 000B6F  600F                                 SOL,R6   15
          1 000B70  EAC7 0053                            SRM,R6,'8000'X    CONSTPTR$,AUTO
          1 000B72       8000

     1569    13854    3                 CONSTPTR.W = BRK$->IFBRKPNT.IFCOND.CONS$TANT.PNTR.W;

  13854   1 000B73  DFC7 0056                            STB,B5   CONSTPTR$+3,AUTO
          1 000B75  ABC5 000E                            LAB,B2   14,B5
PL6.E3A0      #005=GDB$FIRST_USER_TRAP File=GDB$BRKPNTS.:E05TSI                  TUE 07/29/97 21:24 Page:251
          1 000B77  2C0B                                 LDV,R2   11
          1 000B78  6C14                                 LDV,R6   20
          1 000B79  BBC7 0053                            LAB,B3   CONSTPTR$,AUTO
          1 000B7B  3C0C                                 LDV,R3   12
          1 000B7C  7C14                                 LDV,R7   20
          1 000B7D  D380 0000 0000  xent                 LNJ,B5   X6B_BLR

     1570    13855    3                 VALP$ = ADDR(NIL);

  13855   1 000B80  EB80 0000 0000                       LAB,B6   0
          1 000B83  EFC7 002C                            STB,B6   VALS,AUTO

     1571    13856    4                 DO I = BITOFF TO DD_BITSIZE + BITOFF - 1;

  13856   1 000B85  E847 0027                            LDR,R6   BITOFF,AUTO
          1 000B87  EF47 0052                            STR,R6   I,AUTO
          1 000B89  0F81 0016                            B        s:13858+2,PREL

     1572    13857    4                    VALP_(I-BITOFF) = ADR$->B$BITS.B(I);

  13857   1 000B8B  E847 0052                            LDR,R6   I,AUTO
          1 000B8D  E247 0027                            SUB,R6   BITOFF,AUTO
          1 000B8F  EF47 0056                            STR,R6   CONSTPTR$+3,AUTO
          1 000B91  ACC7 001E                            LDB,B2   ADR$,AUTO
          1 000B93  A847 0052                            LDR,R2   I,AUTO
          1 000B95  6C01                                 LDV,R6   1
          1 000B96  BBC7 002C                            LAB,B3   VALS,AUTO
          1 000B98  B847 0056                            LDR,R3   CONSTPTR$+3,AUTO
          1 000B9A  7C01                                 LDV,R7   1
          1 000B9B  D380 0000 0000  xent                 LNJ,B5   X6B_BLR

     1573    13858    4                    END;

  13858   1 000B9E  8AC7 0052                            INC      I,AUTO
          1 000BA0  E847 0026                            LDR,R6   DD_BITSIZE,AUTO
          1 000BA2  EA47 0027                            ADD,R6   BITOFF,AUTO
          1 000BA4  E947 0052                            CMR,R6   I,AUTO
PL6.E3A0      #005=GDB$FIRST_USER_TRAP File=GDB$BRKPNTS.:E05TSI                  TUE 07/29/97 21:24 Page:252
          1 000BA6  0365                                 BG       s:13857,SPREL
          1 000BA7  0F81 0005                            B        s:13865,PREL

     1574    13859    3              CASE(ELSE);

     1575    13860    3                 RETURN;

  13860   1 000BA9  ECC7 0018                            LDB,B6   ERRCODE_SCRATCH+2,AUTO
          1 000BAB  C3C6 0001                            LNJ,B4   1,B6

     1576    13861    3              END /* CASE */;

     1577    13862
     1578    13863        /* Do the comparison */
     1579    13864
     1580    13865    3           DO CASE(BRK$->IFBRKPNT.IFCOND.CTYPE);

  13865   1 000BAD  ECC7 001A                            LDB,B6   @BRK$,AUTO
          1 000BAF  DC86                                 LDB,B5   ,B6
          1 000BB0  B845 000B                            LDR,R3   11,B5
          1 000BB2  3D05                                 CMV,R3   5
          1 000BB3  0281 01BC                            BGE      s:13938,PREL
          1 000BB5  A830 0000 0BBB  01                   LDR,R2   s:13865+14,R3
          1 000BB8  83A0 0000 0BC0  01                   JMP      s:13867,R2
          1 000BBB       01B0                            DC       s:13938,PREL
          1 000BBC       0000                            DC       s:13867,PREL
          1 000BBD       004C                            DC       s:13883,PREL
          1 000BBE       0152                            DC       s:13921,PREL
          1 000BBF       00A6                            DC       s:13898,PREL

     1581    13866    3              CASE(1); /* CHAR */

     1582    13867    4                 IF BRK$->IFBRKPNT.IFCOND.COND = 6 /* EQUALS */ THEN DO;

  13867   1 000BC0  E845 000C                            LDR,R6   12,B5
          1 000BC2  6D06                                 CMV,R6   6
          1 000BC3  0981 0021                            BNE      s:13874,PREL
PL6.E3A0      #005=GDB$FIRST_USER_TRAP File=GDB$BRKPNTS.:E05TSI                  TUE 07/29/97 21:24 Page:253

     1583    13868    5                    DO I = 0 TO BRK$->IFBRKPNT.IFCOND.CONS$TANT.SIZE - 1;

  13868   1 000BC5  8747 0052                            CL       I,AUTO
          1 000BC7  0F81 0014                            B        s:13871+2,PREL

     1584    13869    5                       IF VALC_(I) = BRK$->IFBRKPNT.IFCOND.CONS$TANT.TEXT.CHR(I) THEN;

  13869   1 000BC9  ECC7 001A                            LDB,B6   @BRK$,AUTO
          1 000BCB  DC86                                 LDB,B5   ,B6
          1 000BCC  B847 0052                            LDR,R3   I,AUTO
          1 000BCE  3E64                                 ADV,R3   100
          1 000BCF  E0B7                                 LDH,R6   ,AUTO,R3
          1 000BD0  A847 0052                            LDR,R2   I,AUTO
          1 000BD2  2E1B                                 ADV,R2   27
          1 000BD3  E1A5                                 CMH,R6   ,B5,R2
          1 000BD4  0901 0005                            BE       s:13871,PREL

     1585    13870    5                       ELSE ALTRETURN;

  13870   1 000BD6  ECC7 0018                            LDB,B6   ERRCODE_SCRATCH+2,AUTO
          1 000BD8  9806                                 LDR,R1   ,B6
          1 000BD9  C396                                 LNJ,B4   ,B6,R1

     1586    13871    5                       END;

  13871   1 000BDA  8AC7 0052                            INC      I,AUTO
          1 000BDC  E2C5 000D                            LLH,R6   13,B5
          1 000BDE  E947 0052                            CMR,R6   I,AUTO
          1 000BE0  0369                                 BG       s:13869,SPREL

     1587    13872    4                     RETURN;

  13872   1 000BE1  ECC7 0018                            LDB,B6   ERRCODE_SCRATCH+2,AUTO
          1 000BE3  C3C6 0001                            LNJ,B4   1,B6

     1588    13873    4                     END;
PL6.E3A0      #005=GDB$FIRST_USER_TRAP File=GDB$BRKPNTS.:E05TSI                  TUE 07/29/97 21:24 Page:254
     1589    13874    4                 ELSE IF BRK$->IFBRKPNT.IFCOND.CTYPE = 5 /* ~EQUAL */ THEN DO;

  13874   1 000BE5  3D05                                 CMV,R3   5
          1 000BE6  0981 0021                            BNE      s:13881,PREL

     1590    13875    5                    DO I = 0 TO BRK$->IFBRKPNT.IFCOND.CONS$TANT.SIZE - 1;

  13875   1 000BE8  8747 0052                            CL       I,AUTO
          1 000BEA  0F81 0014                            B        s:13878+2,PREL

     1591    13876    5                       IF VALC_(I) ~= BRK$->IFBRKPNT.IFCOND.CONS$TANT.TEXT.CHR(I) THEN

  13876   1 000BEC  ECC7 001A                            LDB,B6   @BRK$,AUTO
          1 000BEE  DC86                                 LDB,B5   ,B6
          1 000BEF  B847 0052                            LDR,R3   I,AUTO
          1 000BF1  3E64                                 ADV,R3   100
          1 000BF2  E0B7                                 LDH,R6   ,AUTO,R3
          1 000BF3  A847 0052                            LDR,R2   I,AUTO
          1 000BF5  2E1B                                 ADV,R2   27
          1 000BF6  E1A5                                 CMH,R6   ,B5,R2
          1 000BF7  0901 0005                            BE       s:13878,PREL

     1592    13877    5                          RETURN;

  13877   1 000BF9  ECC7 0018                            LDB,B6   ERRCODE_SCRATCH+2,AUTO
          1 000BFB  C3C6 0001                            LNJ,B4   1,B6

     1593    13878    5                       END;

  13878   1 000BFD  8AC7 0052                            INC      I,AUTO
          1 000BFF  E2C5 000D                            LLH,R6   13,B5
          1 000C01  E947 0052                            CMR,R6   I,AUTO
          1 000C03  0369                                 BG       s:13876,SPREL

     1594    13879    4                    ALTRETURN;

  13879   1 000C04  ECC7 0018                            LDB,B6   ERRCODE_SCRATCH+2,AUTO
PL6.E3A0      #005=GDB$FIRST_USER_TRAP File=GDB$BRKPNTS.:E05TSI                  TUE 07/29/97 21:24 Page:255
          1 000C06  B806                                 LDR,R3   ,B6
          1 000C07  C3B6                                 LNJ,B4   ,B6,R3

     1595    13880    4                    END;
     1596    13881    3                 ELSE RETURN;

  13881   1 000C08  ECC7 0018                            LDB,B6   ERRCODE_SCRATCH+2,AUTO
          1 000C0A  C3C6 0001                            LNJ,B4   1,B6

     1597    13882    3              CASE(2); /* BIT */

     1598    13883    4                 IF BRK$->IFBRKPNT.IFCOND.COND = 6 /* EQUALS */ THEN DO;

  13883   1 000C0C  E845 000C                            LDR,R6   12,B5
          1 000C0E  6D06                                 CMV,R6   6
          1 000C0F  0981 002A                            BNE      s:13890,PREL

     1599    13884    5                    DO I = 0 TO BRK$->IFBRKPNT.IFCOND.CONS$TANT.SIZE - 1;

  13884   1 000C11  8747 0052                            CL       I,AUTO
          1 000C13  0F81 001A                            B        s:13887+2,PREL

     1600    13885    5                      IF VALB_(I) = BRK$->IFBRKPNT.IFCOND.CONS$TANT.BITS.TRING(I) THEN
             13885                                ;

  13885   1 000C15  ECC7 001A                            LDB,B6   @BRK$,AUTO
          1 000C17  DC86                                 LDB,B5   ,B6
          1 000C18  DFC7 0056                            STB,B5   CONSTPTR$+3,AUTO
          1 000C1A  ABC7 002E                            LAB,B2   VALB,AUTO
          1 000C1C  A847 0052                            LDR,R2   I,AUTO
          1 000C1E  6C01                                 LDV,R6   1
          1 000C1F  BBC5 000E                            LAB,B3   14,B5
          1 000C21  B852                                 LDR,R3   R2
          1 000C22  7C01                                 LDV,R7   1
          1 000C23  D380 0000 0000  xent                 LNJ,B5   X6B_BCM
          1 000C26  0901 0005                            BE       s:13887,PREL

PL6.E3A0      #005=GDB$FIRST_USER_TRAP File=GDB$BRKPNTS.:E05TSI                  TUE 07/29/97 21:24 Page:256
     1601    13886    5                       ELSE ALTRETURN;

  13886   1 000C28  ECC7 0018                            LDB,B6   ERRCODE_SCRATCH+2,AUTO
          1 000C2A  B806                                 LDR,R3   ,B6
          1 000C2B  C3B6                                 LNJ,B4   ,B6,R3

     1602    13887    5                       END;

  13887   1 000C2C  8AC7 0052                            INC      I,AUTO
          1 000C2E  ECC7 001A                            LDB,B6   @BRK$,AUTO
          1 000C30  DC86                                 LDB,B5   ,B6
          1 000C31  E2C5 000D                            LLH,R6   13,B5
          1 000C33  E947 0052                            CMR,R6   I,AUTO
          1 000C35  0360                                 BG       s:13885,SPREL

     1603    13888    4                     RETURN;

  13888   1 000C36  ECC7 0018                            LDB,B6   ERRCODE_SCRATCH+2,AUTO
          1 000C38  C3C6 0001                            LNJ,B4   1,B6

     1604    13889    4                     END;
     1605    13890    4                 ELSE IF BRK$->IFBRKPNT.IFCOND.COND = 5 /* ~EQUAL */ THEN DO;

  13890   1 000C3A  6D05                                 CMV,R6   5
          1 000C3B  0981 0138                            BNE      s:13941,PREL

     1606    13891    5                    DO I = 0 TO BRK$->IFBRKPNT.IFCOND.CONS$TANT.SIZE - 1;

  13891   1 000C3D  8747 0052                            CL       I,AUTO
          1 000C3F  0F81 001A                            B        s:13894+2,PREL

     1607    13892    5                       IF VALB_(I) ~= BRK$->IFBRKPNT.IFCOND.CONS$TANT.BITS.TRING(I)
             13892                                THEN

  13892   1 000C41  ECC7 001A                            LDB,B6   @BRK$,AUTO
          1 000C43  DC86                                 LDB,B5   ,B6
          1 000C44  DFC7 0056                            STB,B5   CONSTPTR$+3,AUTO
PL6.E3A0      #005=GDB$FIRST_USER_TRAP File=GDB$BRKPNTS.:E05TSI                  TUE 07/29/97 21:24 Page:257
          1 000C46  ABC7 002E                            LAB,B2   VALB,AUTO
          1 000C48  A847 0052                            LDR,R2   I,AUTO
          1 000C4A  6C01                                 LDV,R6   1
          1 000C4B  BBC5 000E                            LAB,B3   14,B5
          1 000C4D  B852                                 LDR,R3   R2
          1 000C4E  7C01                                 LDV,R7   1
          1 000C4F  D380 0000 0000  xent                 LNJ,B5   X6B_BCM
          1 000C52  0901 0005                            BE       s:13894,PREL

     1608    13893    5                          RETURN;

  13893   1 000C54  ECC7 0018                            LDB,B6   ERRCODE_SCRATCH+2,AUTO
          1 000C56  C3C6 0001                            LNJ,B4   1,B6

     1609    13894    5                       END;

  13894   1 000C58  8AC7 0052                            INC      I,AUTO
          1 000C5A  ECC7 001A                            LDB,B6   @BRK$,AUTO
          1 000C5C  DC86                                 LDB,B5   ,B6
          1 000C5D  E2C5 000D                            LLH,R6   13,B5
          1 000C5F  E947 0052                            CMR,R6   I,AUTO
          1 000C61  0360                                 BG       s:13892,SPREL

     1610    13895    4                    ALTRETURN;

  13895   1 000C62  ECC7 0018                            LDB,B6   ERRCODE_SCRATCH+2,AUTO
          1 000C64  B806                                 LDR,R3   ,B6
          1 000C65  C3B6                                 LNJ,B4   ,B6,R3

     1611    13896    4                    END;
     1612    13897    3              CASE(4); /* PTR */

     1613    13898    4                 DO CASE(BRK$->IFBRKPNT.IFCOND.COND);

  13898   1 000C66  9845 000C                            LDR,R1   12,B5
          1 000C68  1D07                                 CMV,R1   7
          1 000C69  0281 00A4                            BGE      s:13918,PREL
PL6.E3A0      #005=GDB$FIRST_USER_TRAP File=GDB$BRKPNTS.:E05TSI                  TUE 07/29/97 21:24 Page:258
          1 000C6B  B810 0000 0C71  01                   LDR,R3   s:13898+11,R1
          1 000C6E  83B0 0000 0C78  01                   JMP      s:13900,R3
          1 000C71       0096                            DC       s:13918,PREL
          1 000C72       0032                            DC       s:13906,PREL
          1 000C73       004D                            DC       s:13909,PREL
          1 000C74       0064                            DC       s:13912,PREL
          1 000C75       007B                            DC       s:13915,PREL
          1 000C76       0019                            DC       s:13903,PREL
          1 000C77       0000                            DC       s:13900,PREL

     1614    13899    4                    CASE(6); /* EQUALS */

     1615    13900    4                       IF POFFC(CONSTPTR$,VALP$) = 0 THEN RETURN;

  13900   1 000C78  8CC7 002C                            LDI      VALS,AUTO
          1 000C7A  7031                                 DCL,R7   1
          1 000C7B  8D47 0056                            SDI      CONSTPTR$+3,AUTO
          1 000C7D  8CC7 0053                            LDI      CONSTPTR$,AUTO
          1 000C7F  7031                                 DCL,R7   1
          1 000C80  84C7 0056                            SID      CONSTPTR$+3,AUTO
          1 000C82  84F0 0000 0000                       SID      0,IMO
          1 000C85  6981 0007                            BNEZ,R6  s:13901,PREL
          1 000C87  7981 0005                            BNEZ,R7  s:13901,PREL

  13900   1 000C89  ECC7 0018                            LDB,B6   ERRCODE_SCRATCH+2,AUTO
          1 000C8B  C3C6 0001                            LNJ,B4   1,B6

     1616    13901    4                       ELSE ALTRETURN;

  13901   1 000C8D  ECC7 0018                            LDB,B6   ERRCODE_SCRATCH+2,AUTO
          1 000C8F  B806                                 LDR,R3   ,B6
          1 000C90  C3B6                                 LNJ,B4   ,B6,R3

     1617    13902    4                    CASE(5); /* ~EQUAL */

     1618    13903    4                       IF POFFC(CONSTPTR$,VALP$) ~= 0 THEN RETURN;

PL6.E3A0      #005=GDB$FIRST_USER_TRAP File=GDB$BRKPNTS.:E05TSI                  TUE 07/29/97 21:24 Page:259
  13903   1 000C91  8CC7 002C                            LDI      VALS,AUTO
          1 000C93  7031                                 DCL,R7   1
          1 000C94  8D47 0056                            SDI      CONSTPTR$+3,AUTO
          1 000C96  8CC7 0053                            LDI      CONSTPTR$,AUTO
          1 000C98  7031                                 DCL,R7   1
          1 000C99  84C7 0056                            SID      CONSTPTR$+3,AUTO
          1 000C9B  84F0 0000 0000                       SID      0,IMO
          1 000C9E  6981 0003                            BNEZ,R6  s:13903+17,PREL
          1 000CA0  7901 0005                            BEZ,R7   s:13904,PREL

  13903   1 000CA2  ECC7 0018                            LDB,B6   ERRCODE_SCRATCH+2,AUTO
          1 000CA4  C3C6 0001                            LNJ,B4   1,B6

     1619    13904    4                       ELSE ALTRETURN;

  13904   1 000CA6  ECC7 0018                            LDB,B6   ERRCODE_SCRATCH+2,AUTO
          1 000CA8  B806                                 LDR,R3   ,B6
          1 000CA9  C3B6                                 LNJ,B4   ,B6,R3

     1620    13905    4                    CASE(1); /* > */

     1621    13906    4                       IF POFFC(VALP$,CONSTPTR$) > 0 THEN RETURN;

  13906   1 000CAA  8CC7 0053                            LDI      CONSTPTR$,AUTO
          1 000CAC  7031                                 DCL,R7   1
          1 000CAD  8D47 0056                            SDI      CONSTPTR$+3,AUTO
          1 000CAF  8CC7 002C                            LDI      VALS,AUTO
          1 000CB1  7031                                 DCL,R7   1
          1 000CB2  84C7 0056                            SID      CONSTPTR$+3,AUTO
          1 000CB4  84F0 0000 0000                       SID      0,IMO
          1 000CB7  6801 0009                            BLZ,R6   s:13907,PREL
          1 000CB9  6A01 0003                            BGZ,R6   s:13906+19,PREL
          1 000CBB  7901 0005                            BEZ,R7   s:13907,PREL

  13906   1 000CBD  ECC7 0018                            LDB,B6   ERRCODE_SCRATCH+2,AUTO
          1 000CBF  C3C6 0001                            LNJ,B4   1,B6

PL6.E3A0      #005=GDB$FIRST_USER_TRAP File=GDB$BRKPNTS.:E05TSI                  TUE 07/29/97 21:24 Page:260
     1622    13907    4                       ELSE ALTRETURN;

  13907   1 000CC1  ECC7 0018                            LDB,B6   ERRCODE_SCRATCH+2,AUTO
          1 000CC3  B806                                 LDR,R3   ,B6
          1 000CC4  C3B6                                 LNJ,B4   ,B6,R3

     1623    13908    4                    CASE(2); /* < */

     1624    13909    4                       IF POFFC(VALP$,CONSTPTR$) < 0 THEN RETURN;

  13909   1 000CC5  8CC7 0053                            LDI      CONSTPTR$,AUTO
          1 000CC7  7031                                 DCL,R7   1
          1 000CC8  8D47 0056                            SDI      CONSTPTR$+3,AUTO
          1 000CCA  8CC7 002C                            LDI      VALS,AUTO
          1 000CCC  7031                                 DCL,R7   1
          1 000CCD  84C7 0056                            SID      CONSTPTR$+3,AUTO
          1 000CCF  84F0 0000 0000                       SID      0,IMO
          1 000CD2  6881 0005                            BGEZ,R6  s:13910,PREL

  13909   1 000CD4  ECC7 0018                            LDB,B6   ERRCODE_SCRATCH+2,AUTO
          1 000CD6  C3C6 0001                            LNJ,B4   1,B6

     1625    13910    4                       ELSE ALTRETURN;

  13910   1 000CD8  ECC7 0018                            LDB,B6   ERRCODE_SCRATCH+2,AUTO
          1 000CDA  B806                                 LDR,R3   ,B6
          1 000CDB  C3B6                                 LNJ,B4   ,B6,R3

     1626    13911    4                    CASE(3); /* >= */

     1627    13912    4                       IF POFFC(VALP$,CONSTPTR$) >= 0 THEN RETURN;

  13912   1 000CDC  8CC7 0053                            LDI      CONSTPTR$,AUTO
          1 000CDE  7031                                 DCL,R7   1
          1 000CDF  8D47 0056                            SDI      CONSTPTR$+3,AUTO
          1 000CE1  8CC7 002C                            LDI      VALS,AUTO
          1 000CE3  7031                                 DCL,R7   1
PL6.E3A0      #005=GDB$FIRST_USER_TRAP File=GDB$BRKPNTS.:E05TSI                  TUE 07/29/97 21:24 Page:261
          1 000CE4  84C7 0056                            SID      CONSTPTR$+3,AUTO
          1 000CE6  84F0 0000 0000                       SID      0,IMO
          1 000CE9  6801 0005                            BLZ,R6   s:13913,PREL

  13912   1 000CEB  ECC7 0018                            LDB,B6   ERRCODE_SCRATCH+2,AUTO
          1 000CED  C3C6 0001                            LNJ,B4   1,B6

     1628    13913    4                       ELSE ALTRETURN;

  13913   1 000CEF  ECC7 0018                            LDB,B6   ERRCODE_SCRATCH+2,AUTO
          1 000CF1  B806                                 LDR,R3   ,B6
          1 000CF2  C3B6                                 LNJ,B4   ,B6,R3

     1629    13914    4                    CASE(4); /* <= */

     1630    13915    4                       IF POFFC(VALP$,CONSTPTR$) <= 0 THEN RETURN;

  13915   1 000CF3  8CC7 0053                            LDI      CONSTPTR$,AUTO
          1 000CF5  7031                                 DCL,R7   1
          1 000CF6  8D47 0056                            SDI      CONSTPTR$+3,AUTO
          1 000CF8  8CC7 002C                            LDI      VALS,AUTO
          1 000CFA  7031                                 DCL,R7   1
          1 000CFB  84C7 0056                            SID      CONSTPTR$+3,AUTO
          1 000CFD  84F0 0000 0000                       SID      0,IMO
          1 000D00  6A01 0009                            BGZ,R6   s:13916,PREL
          1 000D02  6801 0003                            BLZ,R6   s:13915+19,PREL
          1 000D04  7981 0005                            BNEZ,R7  s:13916,PREL

  13915   1 000D06  ECC7 0018                            LDB,B6   ERRCODE_SCRATCH+2,AUTO
          1 000D08  C3C6 0001                            LNJ,B4   1,B6

     1631    13916    4                       ELSE ALTRETURN;

  13916   1 000D0A  ECC7 0018                            LDB,B6   ERRCODE_SCRATCH+2,AUTO
          1 000D0C  B806                                 LDR,R3   ,B6
          1 000D0D  C3B6                                 LNJ,B4   ,B6,R3

PL6.E3A0      #005=GDB$FIRST_USER_TRAP File=GDB$BRKPNTS.:E05TSI                  TUE 07/29/97 21:24 Page:262
     1632    13917    4                    CASE(ELSE);

     1633    13918    4                       RETURN;

  13918   1 000D0E  ECC7 0018                            LDB,B6   ERRCODE_SCRATCH+2,AUTO
          1 000D10  C3C6 0001                            LNJ,B4   1,B6

     1634    13919    4                    END /* CASE */;

     1635    13920    3              CASE(3); /* VALUE */

     1636    13921    4                 DO CASE(BRK$->IFBRKPNT.IFCOND.COND);

  13921   1 000D12  9845 000C                            LDR,R1   12,B5
          1 000D14  1D07                                 CMV,R1   7
          1 000D15  0281 0056                            BGE      s:13935,PREL
          1 000D17  B810 0000 0D1D  01                   LDR,R3   s:13921+11,R1
          1 000D1A  83B0 0000 0D24  01                   JMP      s:13923,R3
          1 000D1D       0048                            DC       s:13935,PREL
          1 000D1E       0000                            DC       s:13923,PREL
          1 000D1F       000E                            DC       s:13925,PREL
          1 000D20       0018                            DC       s:13927,PREL
          1 000D21       0022                            DC       s:13929,PREL
          1 000D22       0030                            DC       s:13931,PREL
          1 000D23       003C                            DC       s:13933,PREL

     1637    13922    4                    CASE(1); /* > */

     1638    13923    4                      IF VALS > BRK$->IFBRKPNT.IFCOND.CONS$TANT.CONS.TANT THEN RETURN;

  13923   1 000D24  8CC7 002C                            LDI      VALS,AUTO
          1 000D26  84C5 000E                            SID      14,B5
          1 000D28  6801 004B                            BLZ,R6   s:13941,PREL
          1 000D2A  6A01 0003                            BGZ,R6   s:13923+10,PREL
          1 000D2C  7901 0047                            BEZ,R7   s:13941,PREL

  13923   1 000D2E  ECC7 0018                            LDB,B6   ERRCODE_SCRATCH+2,AUTO
PL6.E3A0      #005=GDB$FIRST_USER_TRAP File=GDB$BRKPNTS.:E05TSI                  TUE 07/29/97 21:24 Page:263
          1 000D30  C3C6 0001                            LNJ,B4   1,B6

     1639    13924    4                    CASE(2); /* < */

     1640    13925    4                      IF VALS < BRK$->IFBRKPNT.IFCOND.CONS$TANT.CONS.TANT THEN RETURN;

  13925   1 000D32  8CC7 002C                            LDI      VALS,AUTO
          1 000D34  84C5 000E                            SID      14,B5
          1 000D36  6881 003D                            BGEZ,R6  s:13941,PREL

  13925   1 000D38  ECC7 0018                            LDB,B6   ERRCODE_SCRATCH+2,AUTO
          1 000D3A  C3C6 0001                            LNJ,B4   1,B6

     1641    13926    4                    CASE(3); /* >= */

     1642    13927    4                      IF VALS >= BRK$->IFBRKPNT.IFCOND.CONS$TANT.CONS.TANT THEN RETURN
             13927                                ;

  13927   1 000D3C  8CC7 002C                            LDI      VALS,AUTO
          1 000D3E  84C5 000E                            SID      14,B5
          1 000D40  6801 0033                            BLZ,R6   s:13941,PREL

  13927   1 000D42  ECC7 0018                            LDB,B6   ERRCODE_SCRATCH+2,AUTO
          1 000D44  C3C6 0001                            LNJ,B4   1,B6

     1643    13928    4                    CASE(4); /* <= */

     1644    13929    4                      IF VALS <= BRK$->IFBRKPNT.IFCOND.CONS$TANT.CONS.TANT THEN RETURN
             13929                                ;

  13929   1 000D46  8CC7 002C                            LDI      VALS,AUTO
          1 000D48  84C5 000E                            SID      14,B5
          1 000D4A  6A01 0029                            BGZ,R6   s:13941,PREL
          1 000D4C  6801 0003                            BLZ,R6   s:13929+10,PREL
          1 000D4E  7981 0025                            BNEZ,R7  s:13941,PREL

  13929   1 000D50  ECC7 0018                            LDB,B6   ERRCODE_SCRATCH+2,AUTO
PL6.E3A0      #005=GDB$FIRST_USER_TRAP File=GDB$BRKPNTS.:E05TSI                  TUE 07/29/97 21:24 Page:264
          1 000D52  C3C6 0001                            LNJ,B4   1,B6

     1645    13930    4                    CASE(5); /* ~= */

     1646    13931    4                      IF VALS ~= BRK$->IFBRKPNT.IFCOND.CONS$TANT.CONS.TANT THEN RETURN
             13931                                ;

  13931   1 000D54  8CC7 002C                            LDI      VALS,AUTO
          1 000D56  84C5 000E                            SID      14,B5
          1 000D58  6981 0003                            BNEZ,R6  s:13931+8,PREL
          1 000D5A  7901 0019                            BEZ,R7   s:13941,PREL

  13931   1 000D5C  ECC7 0018                            LDB,B6   ERRCODE_SCRATCH+2,AUTO
          1 000D5E  C3C6 0001                            LNJ,B4   1,B6

     1647    13932    4                    CASE(6); /* = */

     1648    13933    4                      IF VALS = BRK$->IFBRKPNT.IFCOND.CONS$TANT.CONS.TANT THEN RETURN;

  13933   1 000D60  8CC7 002C                            LDI      VALS,AUTO
          1 000D62  84C5 000E                            SID      14,B5
          1 000D64  6981 000F                            BNEZ,R6  s:13941,PREL
          1 000D66  7981 000D                            BNEZ,R7  s:13941,PREL

  13933   1 000D68  ECC7 0018                            LDB,B6   ERRCODE_SCRATCH+2,AUTO
          1 000D6A  C3C6 0001                            LNJ,B4   1,B6

     1649    13934    4                    CASE(ELSE);

     1650    13935    4                       ALTRETURN;

  13935   1 000D6C  ECC7 0018                            LDB,B6   ERRCODE_SCRATCH+2,AUTO
          1 000D6E  B806                                 LDR,R3   ,B6
          1 000D6F  C3B6                                 LNJ,B4   ,B6,R3

     1651    13936    4                    END /* CASE */;

PL6.E3A0      #005=GDB$FIRST_USER_TRAP File=GDB$BRKPNTS.:E05TSI                  TUE 07/29/97 21:24 Page:265
     1652    13937    3              CASE(ELSE);

     1653    13938    3                 RETURN;

  13938   1 000D70  ECC7 0018                            LDB,B6   ERRCODE_SCRATCH+2,AUTO
          1 000D72  C3C6 0001                            LNJ,B4   1,B6

     1654    13939    3              END /* CASE */;

     1655    13940
     1656    13941    2           ALTRETURN;

  13941   1 000D74  ECC7 0018                            LDB,B6   ERRCODE_SCRATCH+2,AUTO
          1 000D76  B806                                 LDR,R3   ,B6
          1 000D77  C3B6                                 LNJ,B4   ,B6,R3
     1657    13942
     1658    13943    2   END CMPRIF;
     1659    13944    1   END GDB$FIRST_USER_TRAP;
     1660    13945        %EOD;

PL6.E3A0      #005=GDB$FIRST_USER_TRAP File=GDB$BRKPNTS.:E05TSI                  TUE 07/29/97 21:24 Page:266
--  Include file information  --

   GH_HARDWARE_M.:E05TOU  is referenced.
   GD_BRKPNT_M.:E05TOU  is referenced.
   HF_ERRORS_C.:E05TOU  is referenced.
   KH$CHN.:E05TOU  is referenced.
   G_ROS_M.:E05TOU  is referenced.
   G_JIT_M.:E05TOU  is referenced.
   GM_VIRTUAL_E.:E05TOU  is referenced.
   GD$MACS_M.:E05TOU  is referenced.
   GD$MSG_M.:E05TOU  is referenced.
   GDA_EQUS_E.:E05TOU  is referenced.
   GD_EQUS_E.:E05TOU  is referenced.
   GD_DATA_M.:E05TOU  is referenced.
   GD_STATIC_DATA.:E05TOU  cannot be made into a system file and is referenced.
   LCP_6.:E05TOU  cannot be made into a system file and is referenced.
   G_HJIT_M.:E05TOU  is referenced.
   G_LCP6_E.:E05TOU  was found in the system file and is referenced.
   GT_LCP6_M.:E05TOU  was found in the system file and is referenced.
   KI_CP6.:E05TOU  was found in the system file and is referenced.
   GF_LCP6_M.:E05TOU  was found in the system file and is referenced.
   GM_LCP6_M.:E05TOU  was found in the system file and is referenced.
   GU_LCP6_M.:E05TOU  was found in the system file and is referenced.
   GJ_LCP6_M.:E05TOU  was found in the system file and is referenced.
   GH_LCP6_M.:E05TOU  was found in the system file and is referenced.
      No diagnostics issued in procedure GDB$FIRST_USER_TRAP.
PL6.E3A0      #005=GDB$FIRST_USER_TRAP File=GDB$BRKPNTS.:E05TSI                  TUE 07/29/97 21:24 Page:267

 **** Variables and constants ****

  ****  Section 000 RoData GDB$FIRST_USER_TRAP

  ****  Scalars and arrays  ****
HexLoc.c.b A Datatyp(siz) R M Lvl/name                 HexLoc.c.b A Datatyp(siz) R M Lvl/name

     0-0-0/w STRC(32)    r     1 GHB_TRAP_MSG

  ****  Auto variables  ****

  ****  Scalars and arrays  ****
HexLoc.c.b A Datatyp(siz) R M Lvl/name                 HexLoc.c.b A Datatyp(siz) R M Lvl/name

    1C-0-0/w PTR         r     1 @ADR$                     1A-0-0/w PTR         r     1 @BRK$
    1A-0-0/w PTR         r     1 @BRK$                      4-0-0/w PTR         r     1 @G$TSA
    10-0-0/w PTR         r     1 ADR$                      *0-0-0/w PTR         r     1 ADR$
    1E-0-0/w PTR         r     1 ADR$                      23-0-0/w UBIN(16)    r     1 ARRAY_CUR
    25-0-0/w BIT         r     1 ARRAY_FIRST               24-0-0/w UBIN(16)    r     1 ARRAY_HIGH
    27-0-0/w UBIN(16)    r     1 BITOFF                     6-0-0/w PTR         r     1 BRK$
    *0-0-0/w PTR         r     1 BRK$                      *0-0-0/w PTR         r     1 BRK$
     8-0-0/w SBIN(16)    r     1 BRKNUM                    53-0-0/w STRC(32)    r     1 CONSTPTR
    53-0-0/w PTR         r     1 CONSTPTR$                 20-0-0/w UBIN(32)    r     1 DD_ADDRESS
    26-0-0/w UBIN(16)    r     1 DD_BITSIZE                2A-0-0/w UBIN(16)    r     1 DD_DESC#
    22-0-0/w BIT         r     1 DD_IS_PTR                 2B-0-0/w BIT         r     1 DD_NOT_IS
    29-0-0/w UBIN(16)    r     1 DD_SEG                     A-0-0/w UBIN(16)    r     1 DSIZE
    28-0-0/w UBIN(16)    r     1 DSIZE                     16-0-0/w STRC(32)    r     1 ERRCODE_SCRATCH
    *0-0-0/w STRC(928)   r     1 G$TSA                     52-0-0/w UBIN(16)    r     1 I
    15-0-0/w BIT         r     1 MON                        B-0-0/w PTR         r     1 MSG$
     9-0-0/w SBIN(16)    r     1 OFFSET                     D-0-0/w UBIN(32)    r     1 P
     D-0-0/w PTR         r     1 P$                        12-0-0/w PTR         r     1 PTR$
     F-0-0/w UBIN(16)    r     1 SIZE                      14-0-0/w UBIN(16)    r     1 TRAP_NO
    2E-0-0/b BIT (32)    r     1 VALB(0:1)                 2E-0-0/b BIT         r     1 VALB_(0:63)
    32-0-0/c CHAR(63)    r     1 VALC                      32-0-0/c CHAR        r     1 VALC_(0:62)
    2C-0-0/w PTR         r     1 VALP$                     2C-0-0/w BIT         r     1 VALP_(0:31)
    2C-0-0/w SBIN(32)    r     1 VALS                      2C-0-0/w BIT         r     1 VALS_(0:31)

PL6.E3A0      #005=GDB$FIRST_USER_TRAP File=GDB$BRKPNTS.:E05TSI                  TUE 07/29/97 21:24 Page:268
  ****  SYMREF variables  ****

  ****  Scalars and arrays  ****
HexLoc.c.b A Datatyp(siz) R M Lvl/name                 HexLoc.c.b A Datatyp(siz) R M Lvl/name

     0-0-0/w PTR         r     1 G$ASDT_MCL$                0-0-0/w PTR         r     1 G$ASDT_USR$
     0-0-0/w PTR         r     1 G$JIT$                     0-0-0/w PTR         r     1 G$MHJIT$
     0-0-0/w PTR         r     1 G$ROS$                     0-0-0/w PTR         r     1 G$UHJIT$
     0-0-0/w PTR         r     1 GD$DELTA_DATA$

  ****  BASED and DCB variables  ****

  ****  Scalars and arrays  ****
HexLoc.c.b A Datatyp(siz) R M Lvl/name                 HexLoc.c.b A Datatyp(siz) R M Lvl/name

     0-0-0/w STRC        r     1 B$BITS                     0-0-0/c STRC(8)     r     1 B$BYTES
     0-0-0/w BIT (16)    r     1 BITMEM                     0-0-0/w STRC(176)   r     1 BRKPNT
     0-0-0/w STRC(48)    r     1 BVECT                      0-0-0/w STRC(224)   r     1 G$ECCB
     0-0-0/w STRC(224)   r     1 G$ECCB_ARRAYED             0-0-0/w STRC(5616)  r     1 G$JIT
     0-0-0/w STRC(27232) r     1 G$MHJIT                    0-0-0/w STRC(928)   r     1 G$ROS
     0-0-0/w STRC(32)    r     1 G$SEGDESC                  0-0-0/w STRC(3344)  r     1 GD$MSG
     0-0-0/w STRC(16704) r     1 GD_DATA                    0-0-0/w STRC(80)    r     1 GH_VLD
     0-0-0/w STRC(768)   r     1 IFBRKPNT                   0-0-0/w UBIN(16)    r     1 MEMORY
     0-0-0/c CHAR(64)    r     1 MSGBFR                     0-0-0/w SBIN(16)    r     1 SMEMORY
     0-0-0/w STRC(112)   r     1 VLP_XBREAK


   Procedure GDB$FIRST_USER_TRAP requires 3448 words for executable code.
   Procedure GDB$FIRST_USER_TRAP requires 106 words of local(AUTO) storage.
PL6.E3A0      #005=GDB$FIRST_USER_TRAP File=GDB$BRKPNTS.:E05TSI                  TUE 07/29/97 21:24 Page:269
          *** CROSS REFERENCE LISTING ***
**     DENOTES     IDENTIFIER DEFINITION
<<                 IDENTIFIER'S VALUE SET
>>                 IDENTIFIER'S VALUE USED
<>                 IDENTIFIER SET AND/OR USED
--                 IDENTIFIER REFERENCED
PL6.E3A0      #005=GDB$FIRST_USER_TRAP File=GDB$BRKPNTS.:E05TSI                  TUE 07/29/97 21:24 Page:270
          MINI XREF LISTING

ADR$
     13024**DCL     13184<<ASSIGN  13185<>CALL    13187>>ASSIGN  13189>>ASSIGN  13337<<ASSIGN  13338>>ASSIGN
     13340<>CALL    13347>>ASSIGN  13348>>ASSIGN  13607<<ASSIGN  13609<>CALL    13616>>ASSIGN  13617>>ASSIGN
     13645<<ASSIGN  13647<<ASSIGN  13648<>CALL    13650>>IF      13658<<ASSIGN  13659<>CALL    13661>>ASSIGN
ADR$ IN PROCEDURE CMPRIF
     13765**DCL     13822<>CALL    13824<>CALL    13835>>ASSIGN  13841>>ASSIGN  13849>>ASSIGN  13857>>ASSIGN
ADR$ IN PROCEDURE SRCHFORBRKPNT
     13735**DCL     13728--PROC    13740>>IF
ARRAY_CUR IN PROCEDURE CMPRIF
     13768**DCL     13813<<ASSIGN  13816<>CALL
ARRAY_FIRST IN PROCEDURE CMPRIF
     13770**DCL     13812<<ASSIGN  13816<>CALL
ARRAY_HIGH IN PROCEDURE CMPRIF
     13769**DCL     13814<<ASSIGN  13816<>CALL
B$BITS.B IN PROCEDURE CMPRIF
     13809**DCL     13835>>ASSIGN  13849>>ASSIGN  13857>>ASSIGN
B$BYTES.B IN PROCEDURE CMPRIF
     13807**DCL     13841>>ASSIGN
BADXBRK
     13220**LABEL   13215--CALLALT
BITMEM
     12975**DCL     13189<<ASSIGN  13285>>IF      13299>>IF      13330<<ASSIGN  13348<<ASSIGN  13585>>IF
     13587>>IF      13587>>IF      13590>>IF      13597<<ASSIGN  13617<<ASSIGN
BITOFF IN PROCEDURE CMPRIF
     13772**DCL     13816<>CALL    13834>>DOINDEX 13834>>DOINDEX 13835>>ASSIGN  13840>>DOINDEX 13840>>DOINDEX
     13841>>ASSIGN  13848>>DOINDEX 13848>>DOINDEX 13849>>ASSIGN  13856>>DOINDEX 13856>>DOINDEX 13857>>ASSIGN
BLDBRKRSP
     13457**LABEL   13426--GOTO    13443--GOTO
BRK$
     13015**DCL     13242<>CALL    13243>>ASSIGN  13245>>IF      13246>>IF      13247>>ASSIGN  13247>>ASSIGN
     13249>>ASSIGN  13255>>ASSIGN  13255>>ASSIGN  13256>>IF      13257<>CALL    13277<>CALL    13281>>ASSIGN
     13290<<ASSIGN  13342<>CALL    13344>>ASSIGN  13391<>CALL    13414<>CALL    13416>>ASSIGN  13417>>IF
PL6.E3A0      #005=GDB$FIRST_USER_TRAP File=GDB$BRKPNTS.:E05TSI                  TUE 07/29/97 21:24 Page:271
     13418>>IF      13420>>ASSIGN  13420>>ASSIGN  13422>>ASSIGN  13428>>ASSIGN  13429>>ASSIGN  13436>>ASSIGN
     13436>>ASSIGN  13437>>IF      13438<>CALL    13611<>CALL    13613>>ASSIGN  13648<>CALL    13650>>IF
     13650>>IF      13654>>ASSIGN  13658>>ASSIGN  13659>>CALL    13661>>ASSIGN  13662>>ASSIGN
BRK$ IN PROCEDURE CMPRIF
     13758**DCL     13752--PROC    13811>>ASSIGN  13830>>DOCASE  13853>>ASSIGN  13854>>ASSIGN  13865>>DOCASE
     13867>>IF      13868>>DOINDEX 13869>>IF      13874>>IF      13875>>DOINDEX 13876>>IF      13883>>IF
     13884>>DOINDEX 13885>>IF      13890>>IF      13891>>DOINDEX 13892>>IF      13898>>DOCASE  13921>>DOCASE
     13923>>IF      13925>>IF      13927>>IF      13929>>IF      13931>>IF      13933>>IF
BRK$ IN PROCEDURE SRCHFORBRKPNT
     13734**DCL     13728--PROC    13737<<ASSIGN  13738>>IF      13739>>DOWHILE 13740>>IF      13741>>ASSIGN
     13742>>ASSIGN  13746<<ASSIGN  13746>>ASSIGN
BRKNUM
     13016**DCL     13172<<ASSIGN  13243<<ASSIGN  13244>>ASSIGN  13262<<ASSIGN  13267>>ASSIGN  13281<<ASSIGN
     13289<<ASSIGN  13416<<ASSIGN  13441>>ASSIGN  13442<<ASSIGN  13449<<ASSIGN  13483>>IF      13486>>ASSIGN
     13500<<ASSIGN  13545>>IF      13545>>IF      13638>>IF      13638>>IF      13663>>ASSIGN  13673>>IF
     13743<<ASSIGN
BRKPNT.ADR$
      1871**DCL      1871--REDEF   13184>>ASSIGN  13422>>ASSIGN  13650>>IF      13658>>ASSIGN  13740>>IF
BRKPNT.BRKNUM
      1871**DCL     13243>>ASSIGN  13281>>ASSIGN  13416>>ASSIGN  13742>>ASSIGN
BRKPNT.BYPASSCOUNT
      1871**DCL     13245>>IF      13255>>ASSIGN  13417>>IF      13436>>ASSIGN
BRKPNT.CUR_BYPASSCOUNT
      1871**DCL     13246>>IF      13247<<ASSIGN  13247>>ASSIGN  13255<<ASSIGN  13418>>IF      13420<<ASSIGN
     13420>>ASSIGN  13436<<ASSIGN
BRKPNT.FLAGS.ACTIVE
      1872**DCL     13181>>IF      13650>>IF
BRKPNT.FLAGS.ARMED
      1872**DCL     13181>>IF      13188<<ASSIGN  13429<<ASSIGN  13662<<ASSIGN
BRKPNT.FLAGS.IFCOND
      1872**DCL     13256>>IF      13437>>IF
BRKPNT.FLINK$
      1871**DCL     13746>>ASSIGN
BRKPNT.OLDINST
      1872**DCL     13187<<ASSIGN  13249>>ASSIGN  13344>>ASSIGN  13428>>ASSIGN  13613>>ASSIGN  13654>>ASSIGN
     13661>>ASSIGN
PL6.E3A0      #005=GDB$FIRST_USER_TRAP File=GDB$BRKPNTS.:E05TSI                  TUE 07/29/97 21:24 Page:272
BRKPNT.USER#
      1872**DCL     13185<>CALL    13659<>CALL
BVECT.PTR$
     12978**DCL     13216>>ASSIGN
CALLGDI
     13534**LABEL   13222--GOTO    13272--GOTO    13549--GOTO    13720--GOTO
CHECK_BYPASS
     13417**LABEL   13282--GOTO    13291--GOTO
CMPRIF
     13752**PROC    13257--CALL    13438--CALL
CONSTPTR.C IN PROCEDURE CMPRIF
     13798**DCL     13853<<ASSIGN
CONSTPTR.W IN PROCEDURE CMPRIF
     13800**DCL     13854<<ASSIGN
CONSTPTR$ IN PROCEDURE CMPRIF
     13796**DCL     13797--REDEF   13852<<ASSIGN  13900>>IF      13903>>IF      13906>>IF      13909>>IF
     13912>>IF      13915>>IF
DD_ADDRESS IN PROCEDURE CMPRIF
     13766**DCL     13816<>CALL    13822<>CALL
DD_BITSIZE IN PROCEDURE CMPRIF
     13771**DCL     13816<>CALL    13832>>IF      13834>>DOINDEX 13835>>ASSIGN  13838>>IF      13840>>DOINDEX
     13847>>IF      13848>>DOINDEX 13856>>DOINDEX
DD_DESC# IN PROCEDURE CMPRIF
     13775**DCL     13816<>CALL    13822<>CALL
DD_IS_PTR IN PROCEDURE CMPRIF
     13767**DCL     13816<>CALL    13822<>CALL
DD_NOT_IS IN PROCEDURE CMPRIF
     13776**DCL     13816<>CALL    13822<>CALL
DD_SEG IN PROCEDURE CMPRIF
     13774**DCL     13816<>CALL    13822<>CALL
DSIZE
     13019**DCL     13513<<ASSIGN  13514<>CALL    13515<<ASSIGN  13517>>ASSIGN
DSIZE IN PROCEDURE CMPRIF
     13773**DCL     13822<>CALL
ERRCODE_SCRATCH
     13042**DCL     13501<<ASSIGN  13503<<ASSIGN  13505>>ASSIGN
PL6.E3A0      #005=GDB$FIRST_USER_TRAP File=GDB$BRKPNTS.:E05TSI                  TUE 07/29/97 21:24 Page:273
ERRCODE_SCRATCH.ERR#
     13071**DCL     13504<<ASSIGN  13504>>ASSIGN
G$ASDT_MCL$
      1801**DCL     13127>>IF
G$ASDT_USR$
      1800**DCL     13127>>IF      13139>>IF      13143>>IF
G$ECCB.FLTFLG
     12940**DCL     12971--REDEF
G$ECCB.FLTFLGS
     12971**DCL     13705>>IF
G$ECCB.TRAP$
     12918**DCL     13705>>IF
G$ECCB_ARRAYED.FLTFLG
     12864**DCL     12895--REDEF
G$ECCB_ARRAYED.HAND$
     12844**DCL     13716>>IF
G$JIT.ERR
     11885**DCL     13503>>ASSIGN
G$JIT.ERRLOG
     12127**DCL     12130--REDEF
G$JIT.JSUNIT
     11866**DCL     11867--REDEF
G$JIT.MCLS
     11865**DCL     11865--REDEF
G$JIT.SLIB#
     11977**DCL     13206>>IF      13369>>IF
G$JIT.SPROC#
     11977**DCL     13492>>IF
G$JIT.TMRZ
     12134**DCL     12135--REDEF
G$JIT.USER_EXTIME
     11858**DCL     11859--REDEF
G$JIT.USER_MEMTIME
     11861**DCL     11861--REDEF
G$JIT.USER_SVTIME
     11860**DCL     11860--REDEF
PL6.E3A0      #005=GDB$FIRST_USER_TRAP File=GDB$BRKPNTS.:E05TSI                  TUE 07/29/97 21:24 Page:274
G$JIT.USR#
     11855**DCL     13138>>ASSIGN  13165>>ASSIGN  13166>>ASSIGN
G$JIT$
      1803**DCL     11797--IMP-PTR 13136>>ASSIGN  13138>>ASSIGN  13165>>ASSIGN  13166>>ASSIGN  13206>>IF
     13369>>IF      13492>>IF      13503>>ASSIGN
G$MHJIT
      1952**DCL     13150--ASSIGN
G$MHJIT.ASDT_MON
      1965**DCL     13150--ASSIGN
G$MHJIT.ASDT_MON.MHJIT.BASE
      2118**DCL     13149>>ASSIGN
G$MHJIT.ASDT_MON.UMHJIT.BASE
      2096**DCL     13130>>ASSIGN
G$MHJIT.INTCON.HHJIT
      8414**DCL      8414--REDEF
G$MHJIT.INTCON.P$$
      8387**DCL      8387--REDEF
G$MHJIT.ISA_BIGFOOT.P$$
      5332**DCL      5332--REDEF
G$MHJIT.ISA_DBINH.P$$
      6546**DCL      6546--REDEF
G$MHJIT.ISA_IDLE.P$$
      3427**DCL      3427--REDEF
G$MHJIT.ISA_LVL10.P$$
      6849**DCL      6849--REDEF
G$MHJIT.ISA_LVL11.P$$
      7152**DCL      7152--REDEF
G$MHJIT.ISA_LVL12.P$$
      7455**DCL      7455--REDEF
G$MHJIT.ISA_LVL5.P$$
      5635**DCL      5635--REDEF
G$MHJIT.ISA_OV.P$$
      5029**DCL      5029--REDEF
G$MHJIT.ISA_PFS.P$$
      4700**DCL      4700--REDEF
G$MHJIT.ISA_RT_CLOCK.P$$
PL6.E3A0      #005=GDB$FIRST_USER_TRAP File=GDB$BRKPNTS.:E05TSI                  TUE 07/29/97 21:24 Page:275
      8062**DCL      8062--REDEF
G$MHJIT.ISA_SATYR_RCV.P$$
      5939**DCL      5939--REDEF
G$MHJIT.ISA_SATYR_TRN.P$$
      6243**DCL      6243--REDEF
G$MHJIT.ISA_SCHD.P$$
      7758**DCL      7758--REDEF
G$MHJIT.ISA_WDOG.P$$
      4808**DCL      4808--REDEF
G$MHJIT.TSA_DB.ISA.P$$
      4030**DCL      4030--REDEF
G$MHJIT.TSA_DB.P$$
      3901**DCL      3901--REDEF    3902--REDEF
G$MHJIT.TSA_HND.ISA.P$$
      8608**DCL      8608--REDEF
G$MHJIT.TSA_HND.P$$
      8479**DCL      8479--REDEF    8480--REDEF
G$MHJIT.TSA_MON.ISA.P$$
      3642**DCL      3642--REDEF
G$MHJIT.TSA_MON.P$$
      3513**DCL      3513--REDEF    3514--REDEF
G$MHJIT.TSA_OV.ISA.P$$
      4418**DCL      4418--REDEF
G$MHJIT.TSA_OV.P$$
      4289**DCL      4289--REDEF    4290--REDEF
G$MHJIT$
      1802**DCL      1952--IMP-PTR 13130>>ASSIGN  13149>>ASSIGN  13150>>ASSIGN  13150>>ASSIGN
G$ROS.AUTO_DS$
     12800**DCL     12801--REDEF
G$ROS.AUTO_T$
     12801**DCL     12801--REDEF
G$ROS.U_ECCB$
     12798**DCL     13705>>IF      13705>>IF      13716>>IF
G$ROS$
      1804**DCL     12791--IMP-PTR 13705>>IF      13705>>IF      13716>>IF
G$SEGDESC
PL6.E3A0      #005=GDB$FIRST_USER_TRAP File=GDB$BRKPNTS.:E05TSI                  TUE 07/29/97 21:24 Page:276
     12211**DCL     13120>>ASSIGN  13681<<ASSIGN
G$TSA
     12246**DCL        24--PROC    13079--ENTRY   13102--ASSIGN  13228--ASSIGN  13491--ASSIGN
G$TSA.A$
     12278**DCL     13279>>ASSIGN  13285>>IF      13288>>ASSIGN  13296>>ASSIGN  13312>>ASSIGN  13320>>ASSIGN
     13321>>ASSIGN  13321>>ASSIGN  13322>>IF      13326>>ASSIGN
G$TSA.B3$
     12279**DCL     13214>>ASSIGN
G$TSA.I.TRAP#
     12270**DCL     13082>>IF      13082>>IF      13085>>IF      13085>>IF      13085>>IF      13085>>IF
     13085>>IF      13085>>IF      13085>>IF      13202>>IF      13213>>IF      13274>>IF      13413>>IF
     13479>>IF      13481>>ASSIGN  13502>>IF      13504>>ASSIGN  13554>>IF      13561>>IF      13578>>IF
     13623>>IF      13639>>IF      13652>>IF      13670>>IF      13689>>IF      13697<<ASSIGN  13703>>ASSIGN
     13704>>IF      13705>>IF      13710>>IF      13710>>IF      13712>>IF
G$TSA.INST
     12275**DCL     13274>>IF      13319>>IF
G$TSA.ISA.ASV$
     12334**DCL     13127>>IF      13127>>IF      13131>>ASSIGN  13139>>IF      13143>>IF
G$TSA.ISA.ISM2.MMU
     12401**DCL     13127>>IF
G$TSA.ISA.P$$
     12407**DCL     12407--REDEF
G$TSA.ISA.REGS.M1.J
     12501**DCL     13173>>ASSIGN  13174<<ASSIGN  13313<<ASSIGN  13362<<ASSIGN  13370<<ASSIGN  13382<<ASSIGN
     13432<<ASSIGN  13461<<ASSIGN  13625<<ASSIGN  13664<<ASSIGN  13691<<ASSIGN
G$TSA.ISA.S
     12428**DCL     13723<<ASSIGN
G$TSA.P
     12279**DCL     13143>>IF      13206>>IF      13358>>IF      13358>>IF
G$TSA.P$
     12278**DCL     13251<<ASSIGN  13251>>ASSIGN  13276>>ASSIGN  13287>>ASSIGN  13311>>ASSIGN  13367>>ASSIGN
     13388>>ASSIGN  13397>>ASSIGN  13419<<ASSIGN  13430<<ASSIGN  13465<<ASSIGN  13468<<ASSIGN  13566<<ASSIGN
     13583>>ASSIGN  13588>>ASSIGN  13589>>ASSIGN  13591>>ASSIGN  13593>>ASSIGN  13600>>ASSIGN  13601>>ASSIGN
     13647>>ASSIGN  13672<<ASSIGN  13672>>ASSIGN
G$TSA.P$$
     12278**DCL     12278--REDEF   12279--REDEF   13099<<ASSIGN
PL6.E3A0      #005=GDB$FIRST_USER_TRAP File=GDB$BRKPNTS.:E05TSI                  TUE 07/29/97 21:24 Page:277
G$TSA.Z.IS
     12277**DCL     13083<<ASSIGN  13279>>ASSIGN  13280<<ASSIGN  13285>>IF      13288>>ASSIGN  13296>>ASSIGN
     13312>>ASSIGN  13320>>ASSIGN  13398>>IF      13399>>ASSIGN  13469<<ASSIGN
G$UHJIT.ISA_USR
     10249**DCL     10544--REDEF
G$UHJIT.ISA_USR.P$$
     10324**DCL     10324--REDEF
G$UHJIT.TSA_CP.ISA.P$$
     11531**DCL     11531--REDEF
G$UHJIT.TSA_CP.P$$
     11402**DCL     11402--REDEF   11403--REDEF
G$UHJIT.TSA_DB.ISA.P$$
     11143**DCL     11143--REDEF
G$UHJIT.TSA_DB.P$$
     11014**DCL     11014--REDEF   11015--REDEF
G$UHJIT.TSA_RTT.P$$
     11777**DCL     11777--REDEF   11778--REDEF
G$UHJIT.TSA_USR.ISA.P$$
     10733**DCL     10733--REDEF
G$UHJIT.TSA_USR.P$$
     10604**DCL     10604--REDEF   10605--REDEF
G$UHJIT$
      1799**DCL      8826--IMP-PTR 13131>>ASSIGN
GD$DELTA_DATA$
       792**DCL       806--IMP-PTR 13081>>ASSIGN  13084>>IF      13096>>IF      13097>>IF      13102>>ASSIGN
     13108>>IF      13113>>IF      13120>>ASSIGN  13120>>ASSIGN  13125>>ASSIGN  13130>>ASSIGN  13131>>ASSIGN
     13138>>ASSIGN  13148>>ASSIGN  13149>>ASSIGN  13150>>ASSIGN  13155>>ASSIGN  13155>>ASSIGN  13156>>ASSIGN
     13156>>ASSIGN  13157>>ASSIGN  13157>>ASSIGN  13165>>ASSIGN  13166>>ASSIGN  13173>>ASSIGN  13179>>IF
     13181>>IF      13181>>IF      13184>>ASSIGN  13185>>CALL    13187>>ASSIGN  13188>>ASSIGN  13191>>ASSIGN
     13191>>ASSIGN  13192>>ASSIGN  13192>>ASSIGN  13193>>ASSIGN  13193>>ASSIGN  13195>>ASSIGN  13196>>ASSIGN
     13202>>IF      13215>>CALL    13216>>ASSIGN  13217>>CALL    13217>>CALL    13221>>ASSIGN  13226>>ASSIGN
     13229>>IF      13230>>IF      13230>>IF      13230>>IF      13235>>ASSIGN  13241>>ASSIGN  13249>>ASSIGN
     13250>>ASSIGN  13263>>ASSIGN  13270>>ASSIGN  13275>>IF      13285>>IF      13289>>ASSIGN  13290>>ASSIGN
     13293>>IF      13294>>DOCASE  13297>>CALL    13300>>IF      13319>>IF      13321>>ASSIGN  13322>>IF
     13322>>IF      13323>>ASSIGN  13324>>CALL    13325>>ASSIGN  13326>>ASSIGN  13327>>ASSIGN  13328>>CALL
     13329>>ASSIGN  13331>>ASSIGN  13334>>ASSIGN  13336>>ASSIGN  13336>>ASSIGN  13337>>ASSIGN  13339>>ASSIGN
PL6.E3A0      #005=GDB$FIRST_USER_TRAP File=GDB$BRKPNTS.:E05TSI                  TUE 07/29/97 21:24 Page:278
     13340>>CALL    13344>>ASSIGN  13347>>ASSIGN  13350>>ASSIGN  13351>>ASSIGN  13358>>IF      13358>>IF
     13358>>IF      13358>>IF      13368>>IF      13379>>IF      13381>>IF      13381>>IF      13404>>IF
     13405>>ASSIGN  13406>>CALL    13407>>ASSIGN  13408>>IF      13408>>IF      13409>>ASSIGN  13410>>ASSIGN
     13411>>ASSIGN  13424>>CALL    13439>>IF      13440>>ASSIGN  13441>>ASSIGN  13457>>IF      13457>>IF
     13458>>ASSIGN  13459>>CALL    13460>>ASSIGN  13462>>ASSIGN  13463>>ASSIGN  13464>>ASSIGN  13498>>ASSIGN
     13499>>IF      13500>>ASSIGN  13511>>ASSIGN  13535>>ASSIGN  13536>>ASSIGN  13537>>ASSIGN  13538>>ASSIGN
     13538>>ASSIGN  13539>>ASSIGN  13545>>IF      13548>>ASSIGN  13551>>ASSIGN  13552>>ASSIGN  13553>>ASSIGN
     13555>>ASSIGN  13556>>ASSIGN  13559>>IF      13562>>ASSIGN  13563>>ASSIGN  13563>>ASSIGN  13566>>ASSIGN
     13567>>ASSIGN  13569>>IF      13575>>ASSIGN  13577>>ASSIGN  13577>>ASSIGN  13579>>ASSIGN  13579>>ASSIGN
     13580>>ASSIGN  13580>>ASSIGN  13580>>ASSIGN  13584>>CALL    13585>>IF      13586>>ASSIGN  13586>>ASSIGN
     13587>>IF      13588>>ASSIGN  13588>>ASSIGN  13589>>ASSIGN  13591>>ASSIGN  13591>>ASSIGN  13593>>ASSIGN
     13593>>ASSIGN  13594>>ASSIGN  13595>>CALL    13596>>ASSIGN  13600>>ASSIGN  13600>>ASSIGN  13601>>ASSIGN
     13604>>ASSIGN  13606>>ASSIGN  13606>>ASSIGN  13607>>ASSIGN  13608>>ASSIGN  13609>>CALL    13613>>ASSIGN
     13616>>ASSIGN  13619>>ASSIGN  13620>>ASSIGN  13622>>ASSIGN  13624>>ASSIGN  13627>>IF      13628>>IF
     13628>>IF      13629>>ASSIGN  13629>>ASSIGN  13639>>IF      13644>>ASSIGN  13645>>ASSIGN  13652>>IF
     13654>>ASSIGN  13663>>ASSIGN  13674>>ASSIGN  13680>>IF      13681>>ASSIGN  13681>>ASSIGN  13687>>IF
     13687>>IF      13687>>IF      13690>>ASSIGN  13698>>IF      13701>>IF      13719>>ASSIGN  13737>>ASSIGN
     13738>>IF      13741>>ASSIGN  13742>>ASSIGN  13743>>ASSIGN  13811>>ASSIGN  13824>>CALL    13825>>IF
GD$MSG
     12624**DCL     13095<<ASSIGN  13547<>CALL    13718<>CALL
GD$MSG.BRKRQS.IF$CONST.SIZE
     12675**DCL     12675--REDEF
GD$MSG.BRKRQS.IF$CONST.TEXT
     12675**DCL     12676--REDEF   12676--REDEF   12677--REDEF   12678--REDEF
GD$MSG.BRKRSP.ADR$
     12688**DCL     13226<<ASSIGN  13227>>ASSIGN  13234<<ASSIGN  13311<<ASSIGN  13497<<ASSIGN
GD$MSG.BRKRSP.ADR_FROM$
     12694**DCL     13235<<ASSIGN  13279<<ASSIGN  13288<<ASSIGN  13312<<ASSIGN
GD$MSG.BRKRSP.BRK#
     12689**DCL     12689--REDEF   13484<<ASSIGN  13486<<ASSIGN
GD$MSG.BRKRSP.DATA
     12690**DCL     13514--CALL
GD$MSG.BRKRSP.DATA_SIZE
     12690**DCL     13268<<ASSIGN  13517<<ASSIGN
GD$MSG.BRKRSP.ERRCODE
     12690**DCL     13505<<ASSIGN
PL6.E3A0      #005=GDB$FIRST_USER_TRAP File=GDB$BRKPNTS.:E05TSI                  TUE 07/29/97 21:24 Page:279
GD$MSG.BRKRSP.MBU
     12694**DCL     13140<<ASSIGN  13141<<ASSIGN
GD$MSG.BRKRSP.SHARED
     12694**DCL     13493<<ASSIGN  13495<<ASSIGN
GD$MSG.BRKRSP.TRAP#
     12689**DCL     13244<<ASSIGN  13263<<ASSIGN  13267<<ASSIGN  13481<<ASSIGN
GD$MSG.BRKRSP.TSA$
     12688**DCL     13228<<ASSIGN  13491<<ASSIGN
GD$MSG.BRKRSP.USER#
     12689**DCL     12689--REDEF   13498<<ASSIGN
GD$MSG.FNC
     12624**DCL     13225<<ASSIGN  13233<<ASSIGN  13310<<ASSIGN  13474<<ASSIGN
GD$MSG.LETMEM_D.VALUE.SIZE
     12647**DCL     12647--REDEF
GD$MSG.LETMEM_D.VALUE.TEXT
     12648**DCL     12648--REDEF   12648--REDEF   12649--REDEF   12650--REDEF
GD$MSG.MESSAGE
     12629**DCL     12629--REDEF   12630--REDEF   12630--REDEF   12631--REDEF   12642--REDEF   12655--REDEF
     12660--REDEF   12667--REDEF   12683--REDEF   12688--REDEF   12694--REDEF   12695--REDEF   12724--REDEF
     12726--REDEF   12737--REDEF   12744--REDEF   12756--REDEF
GD$MSG.SUBFB.INTERPRETIVE
     12628**DCL     13652>>IF
GD$MSG.SUBFB.POSTASSOC
     12628**DCL     13696>>IF
GD$MSG.SUBFNC
     12624**DCL     12624--REDEF   12628--REDEF
GD$MSG.TSA.I
     12696**DCL     12696--REDEF
GD$MSG.TSA.S
     12698**DCL     12698--REDEF
GD$MSG.USERQS.ASDT$
     12724**DCL     12724--REDEF   12725--REDEF
GDA$USER_INIT
     12999**DCL-ENT 13077--CALL
GDB$KILL_ALLBRKPNTS
     12989**DCL-ENT 13205--CALL
PL6.E3A0      #005=GDB$FIRST_USER_TRAP File=GDB$BRKPNTS.:E05TSI                  TUE 07/29/97 21:24 Page:280
GDB$RESET_BRKPNT
     12988**DCL-ENT 13271--CALL    13512--CALL
GDI$DECODE_MSG_WAIT_4_GO
     12990**DCL-ENT 13534--CALL
GDI$SEND_ERROR_RESPONSE
     12992**DCL-ENT 13098--CALL    13220--CALL    13547--CALL    13718--CALL    13819--CALL
GDI$SEND_RESPONSE
     12991**DCL-ENT 13238--CALL    13269--CALL    13315--CALL    13521--CALL
GDK$MPTR
     12997**DCL-ENT 13822--CALL
GDK$RESADDR
     12996**DCL-ENT 13816--CALL
GDM$GRAB16
     13000**DCL-ENT 13514--CALL
GDU$SETUP_WINDOW
     12993**DCL-ENT 13137--CALL
GDU$SETUP_WINDOW_USER
     12994**DCL-ENT 13185--CALL    13215--CALL    13217--CALL    13297--CALL    13324--CALL    13328--CALL
     13340--CALL    13406--CALL    13424--CALL    13459--CALL    13584--CALL    13595--CALL    13609--CALL
     13659--CALL    13824--CALL
GD_DATA.DELTAINFO.TSA$
       806**DCL     13102<<ASSIGN
GD_DATA.GD.ABSADDR
       811**DCL     13559>>IF      13563>>ASSIGN  13566>>ASSIGN  13567<<ASSIGN
GD_DATA.GD.ALTRET_ADR$
       810**DCL     13404>>IF      13405>>ASSIGN  13408>>IF      13410<<ASSIGN  13591<<ASSIGN  13593<<ASSIGN
     13594>>ASSIGN  13627>>IF      13628>>IF
GD_DATA.GD.ALTRET_INST
       810**DCL     13407>>ASSIGN  13411<<ASSIGN  13596<<ASSIGN  13629>>ASSIGN
GD_DATA.GD.ANSWERED
       816**DCL     13097>>IF
GD_DATA.GD.ASDT_OFFSET
       812**DCL     13131<<ASSIGN  13150<<ASSIGN  13156>>ASSIGN  13193<<ASSIGN
GD_DATA.GD.ASDT_PPNO
       811**DCL     13130<<ASSIGN  13149<<ASSIGN  13155>>ASSIGN  13192<<ASSIGN
GD_DATA.GD.ASDT_USE_OFFSET
PL6.E3A0      #005=GDB$FIRST_USER_TRAP File=GDB$BRKPNTS.:E05TSI                  TUE 07/29/97 21:24 Page:281
       812**DCL     13156<<ASSIGN  13193>>ASSIGN
GD_DATA.GD.ASDT_USE_PPNO
       812**DCL     13155<<ASSIGN  13192>>ASSIGN
GD_DATA.GD.ASDT_WINDOW$
       828**DCL     13120>>ASSIGN  13681>>ASSIGN
GD_DATA.GD.BRK$
       820**DCL     13181>>IF      13181>>IF      13184>>ASSIGN  13185>>CALL    13187>>ASSIGN  13188>>ASSIGN
     13196<<ASSIGN  13741<<ASSIGN
GD_DATA.GD.BRKNUM
       820**DCL     13179>>IF      13195<<ASSIGN  13663<<ASSIGN  13742<<ASSIGN  13743>>ASSIGN
GD_DATA.GD.DYNSP$
       819**DCL       819--REDEF   13538<<ASSIGN  13738>>IF
GD_DATA.GD.GOTRAP
       815**DCL     13545>>IF      13698>>IF
GD_DATA.GD.GO_AGAIN
       817**DCL     13331<<ASSIGN  13457>>IF      13464<<ASSIGN  13553<<ASSIGN
GD_DATA.GD.IGNARITH
       813**DCL     13084>>IF
GD_DATA.GD.MODE
       809**DCL     13108>>IF      13202>>IF      13368>>IF      13680>>IF      13701>>IF
GD_DATA.GD.OC_BRKNUM
       810**DCL     13289>>ASSIGN
GD_DATA.GD.ONCALL
       814**DCL     13275>>IF      13381>>IF      13687>>IF
GD_DATA.GD.ONCALLS
       814**DCL     13285>>IF      13381>>IF      13687>>IF
GD_DATA.GD.ONCALLS_BRK$
       810**DCL     13290>>ASSIGN
GD_DATA.GD.SOC
       815**DCL     13319>>IF      13339<<ASSIGN  13587>>IF
GD_DATA.GD.SOC_BRKPNT
       823**DCL     13409<<ASSIGN  13537<<ASSIGN
GD_DATA.GD.SOC_BRKPNT.ADR$
       824**DCL     13321<<ASSIGN  13322>>IF      13337>>ASSIGN  13408>>IF
GD_DATA.GD.SOC_BRKPNT.FLAGS.ACTIVE
       824**DCL     13350<<ASSIGN
PL6.E3A0      #005=GDB$FIRST_USER_TRAP File=GDB$BRKPNTS.:E05TSI                  TUE 07/29/97 21:24 Page:282
GD_DATA.GD.SOC_BRKPNT.FLAGS.ARMED
       825**DCL     13351<<ASSIGN
GD_DATA.GD.SOC_BRKPNT.OLDINST
       824**DCL     13344<<ASSIGN  13347<<ASSIGN
GD_DATA.GD.SOC_BRKPNT.USER#
       824**DCL     13334<<ASSIGN  13336<<ASSIGN  13340<>CALL
GD_DATA.GD.STEPCNT
       825**DCL     13569>>IF      13580>>ASSIGN  13585>>IF      13586<<ASSIGN  13586>>ASSIGN  13588>>ASSIGN
     13589>>ASSIGN  13591>>ASSIGN  13593>>ASSIGN  13600>>ASSIGN  13622<<ASSIGN
GD_DATA.GD.STEP_BRKPNT
       820**DCL     13536<<ASSIGN
GD_DATA.GD.STEP_BRKPNT.ADR
       821**DCL     13358>>IF
GD_DATA.GD.STEP_BRKPNT.ADR$
       820**DCL       821--REDEF   13322>>IF      13323>>ASSIGN  13326<<ASSIGN  13327>>ASSIGN  13457>>IF
     13458>>ASSIGN  13463<<ASSIGN  13580<<ASSIGN  13588<<ASSIGN  13600<<ASSIGN  13607>>ASSIGN  13608>>ASSIGN
     13628>>IF
GD_DATA.GD.STEP_BRKPNT.FLAGS
       822**DCL     13551<<ASSIGN
GD_DATA.GD.STEP_BRKPNT.FLAGS.ACTIVE
       822**DCL     13358>>IF      13379>>IF      13439>>IF      13619<<ASSIGN
GD_DATA.GD.STEP_BRKPNT.FLAGS.ARMED
       822**DCL     13358>>IF      13620<<ASSIGN
GD_DATA.GD.STEP_BRKPNT.FLAGS.BRKNUM_SAVED
       823**DCL     13440<<ASSIGN  13499>>IF
GD_DATA.GD.STEP_BRKPNT.OLDINST
       821**DCL     13325>>ASSIGN  13329<<ASSIGN  13460>>ASSIGN  13462<<ASSIGN  13613<<ASSIGN  13616<<ASSIGN
     13629<<ASSIGN
GD_DATA.GD.STEP_BRKPNT.OLD_BRKNUM
       823**DCL     13441<<ASSIGN  13500>>ASSIGN  13552<<ASSIGN
GD_DATA.GD.STEP_BRKPNT.START
       821**DCL     13358>>IF
GD_DATA.GD.STEP_BRKPNT.START$
       821**DCL       821--REDEF   13579<<ASSIGN  13580>>ASSIGN  13601<<ASSIGN
GD_DATA.GD.STEP_BRKPNT.USER#
       822**DCL     13575<<ASSIGN  13577<<ASSIGN  13584<>CALL    13595<>CALL    13604<<ASSIGN  13606<<ASSIGN
PL6.E3A0      #005=GDB$FIRST_USER_TRAP File=GDB$BRKPNTS.:E05TSI                  TUE 07/29/97 21:24 Page:283
     13609<>CALL
GD_DATA.GD.STOPT
       816**DCL     13096>>IF      13221<<ASSIGN  13270<<ASSIGN  13511<<ASSIGN  13548<<ASSIGN  13719<<ASSIGN
GD_DATA.GD.TRACE
       819**DCL     13230>>IF      13293>>IF      13294>>DOCASE  13535<<ASSIGN  13687>>IF
GD_DATA.GD.TRACE_ACTIVE
       817**DCL     13173<<ASSIGN
GD_DATA.GD.USERNO
       826**DCL     13138<<ASSIGN  13148<<ASSIGN  13157>>ASSIGN  13165<<ASSIGN  13191<<ASSIGN  13215<>CALL
     13217<>CALL    13297<>CALL    13324<>CALL    13328<>CALL    13406<>CALL    13424<>CALL    13459<>CALL
     13498>>ASSIGN  13824<>CALL
GD_DATA.GD.USE_REAL
       816**DCL     13125<<ASSIGN
GD_DATA.GD.USE_USERNO
       812**DCL     13157<<ASSIGN  13166<<ASSIGN  13191>>ASSIGN  13336>>ASSIGN  13577>>ASSIGN  13606>>ASSIGN
GD_DATA.GD.VLD
       827**DCL     13300--IF      13825--IF
GD_DATA.GD.WINDOWSEG
       825**DCL     13120<<ASSIGN  13681>>ASSIGN
GD_DATA.GD.XBRKINFO$
       819**DCL     13216<<ASSIGN  13217<>CALL    13226>>ASSIGN  13229>>IF      13230>>IF      13230>>IF
     13235>>ASSIGN  13241>>ASSIGN  13249>>ASSIGN  13250>>ASSIGN  13263>>ASSIGN  13555>>ASSIGN  13556>>ASSIGN
     13562>>ASSIGN  13563>>ASSIGN  13579>>ASSIGN  13624>>ASSIGN  13639>>IF      13644>>ASSIGN  13645>>ASSIGN
     13652>>IF      13654>>ASSIGN  13674>>ASSIGN  13690>>ASSIGN
GD_DATA.GDA.CONNECTFLG
       807**DCL     13113>>IF
GD_DATA.GDA.RCV
       808**DCL     13081--ASSIGN
GD_DATA.MISC.DESC$
       830**DCL     13811<<ASSIGN
GD_DATA.MYSPACE
       837**DCL     13538--ASSIGN  13539<<ASSIGN  13737--ASSIGN
GHB_TRAP_MSG
      1821**DCL     13501>>ASSIGN
GH_VLD.STATUS
     12775**DCL     13300>>IF      13825>>IF
PL6.E3A0      #005=GDB$FIRST_USER_TRAP File=GDB$BRKPNTS.:E05TSI                  TUE 07/29/97 21:24 Page:284
GOTRAP
     13723**LABEL   13208--GOTO    13702--GOTO    13709--GOTO    13715--GOTO
I IN PROCEDURE CMPRIF
     13795**DCL     13834<<DOINDEX 13835>>ASSIGN  13835>>ASSIGN  13840<<DOINDEX 13841>>ASSIGN  13841>>ASSIGN
     13848<<DOINDEX 13849>>ASSIGN  13849>>ASSIGN  13856<<DOINDEX 13857>>ASSIGN  13857>>ASSIGN  13868<<DOINDEX
     13869>>IF      13869>>IF      13875<<DOINDEX 13876>>IF      13876>>IF      13884<<DOINDEX 13885>>IF
     13885>>IF      13891<<DOINDEX 13892>>IF      13892>>IF
IFBRKPNT.ADR$
      1888**DCL      1888--REDEF
IFBRKPNT.IFCOND.COND
      1910**DCL     13867>>IF      13883>>IF      13890>>IF      13898>>DOCASE  13921>>DOCASE
IFBRKPNT.IFCOND.CONS$TANT.BITS.TRING
      1913**DCL     13885>>IF      13892>>IF
IFBRKPNT.IFCOND.CONS$TANT.CONS.TANT
      1912**DCL     13923>>IF      13925>>IF      13927>>IF      13929>>IF      13931>>IF      13933>>IF
IFBRKPNT.IFCOND.CONS$TANT.PNTR.C
      1914**DCL     13853>>ASSIGN
IFBRKPNT.IFCOND.CONS$TANT.PNTR.W
      1913**DCL     13854>>ASSIGN
IFBRKPNT.IFCOND.CONS$TANT.SIZE
      1910**DCL      1910--REDEF   13868>>DOINDEX 13875>>DOINDEX 13884>>DOINDEX 13891>>DOINDEX
IFBRKPNT.IFCOND.CONS$TANT.TEXT
      1911**DCL      1911--REDEF    1911--REDEF    1912--REDEF    1913--REDEF
IFBRKPNT.IFCOND.CONS$TANT.TEXT.CHR
      1911**DCL     13869>>IF      13876>>IF
IFBRKPNT.IFCOND.CTYPE
      1910**DCL     13830>>DOCASE  13865>>DOCASE  13874>>IF
IFBRKPNT.IFCOND.DD$
      1914**DCL     13811>>ASSIGN
JUSTKIDDING
     13249**LABEL   13258--GOTO
KEEPGOING
     13422**LABEL   13445--GOTO
MEMORY
     12973**DCL     13187>>ASSIGN  13321>>ASSIGN  13322>>IF      13325<<ASSIGN  13329>>ASSIGN  13347>>ASSIGN
     13407<<ASSIGN  13428<<ASSIGN  13460<<ASSIGN  13596>>ASSIGN  13616>>ASSIGN  13661<<ASSIGN
PL6.E3A0      #005=GDB$FIRST_USER_TRAP File=GDB$BRKPNTS.:E05TSI                  TUE 07/29/97 21:24 Page:285
MON
     13027**DCL     13126<<ASSIGN  13144<<ASSIGN  13333>>IF      13574>>IF      13603>>IF
MSG$
     13020**DCL     12624--IMP-PTR 13018--IMP-PTR 13081<<ASSIGN  13095>>ASSIGN  13098>>CALL    13140>>ASSIGN
     13141>>ASSIGN  13220>>CALL    13225>>ASSIGN  13226>>ASSIGN  13227>>ASSIGN  13228>>ASSIGN  13233>>ASSIGN
     13234>>ASSIGN  13235>>ASSIGN  13238>>CALL    13244>>ASSIGN  13263>>ASSIGN  13267>>ASSIGN  13268>>ASSIGN
     13269>>CALL    13279>>ASSIGN  13288>>ASSIGN  13310>>ASSIGN  13311>>ASSIGN  13312>>ASSIGN  13315>>CALL
     13474>>ASSIGN  13481>>ASSIGN  13484>>ASSIGN  13486>>ASSIGN  13491>>ASSIGN  13493>>ASSIGN  13495>>ASSIGN
     13497>>ASSIGN  13498>>ASSIGN  13505>>ASSIGN  13514>>CALL    13517>>ASSIGN  13521>>CALL    13547>>CALL
     13652>>IF      13696>>IF      13718>>CALL    13819>>CALL
MSGBFR
     13018**DCL     13098<>CALL    13220<>CALL    13238<>CALL    13269<>CALL    13315<>CALL    13521<>CALL
     13819<>CALL
NOTRACE
     13319**LABEL   13301--GOTO    13306--GOTO
NO_HAND
     13718**LABEL   13707--GOTO
OFFSET
     13017**DCL     13589<<ASSIGN  13591>>ASSIGN  13593>>ASSIGN
P
     13022**DCL     13369>>IF      13398>>IF      13399<<ASSIGN  13399>>ASSIGN
P$
     13021**DCL     13022--REDEF   13136<<ASSIGN  13137<>CALL    13214<<ASSIGN  13215<>CALL    13216>>ASSIGN
     13227<<ASSIGN  13234>>ASSIGN  13242<>CALL    13276<<ASSIGN  13277<>CALL    13287<<ASSIGN  13296<<ASSIGN
     13297<>CALL    13299>>IF      13320<<ASSIGN  13367<<ASSIGN  13388<<ASSIGN  13391<>CALL    13397<<ASSIGN
     13414<>CALL    13419>>ASSIGN  13422<<ASSIGN  13423>>IF      13424<>CALL    13428>>ASSIGN  13430>>ASSIGN
     13457>>IF      13465>>ASSIGN  13468>>ASSIGN  13497>>ASSIGN  13514<>CALL    13608<<ASSIGN  13611<>CALL
PTR$
     13025**DCL     13323<<ASSIGN  13324<>CALL    13325>>ASSIGN  13327<<ASSIGN  13328<>CALL    13329>>ASSIGN
     13330>>ASSIGN  13338<<ASSIGN  13342<>CALL    13405<<ASSIGN  13406<>CALL    13407>>ASSIGN  13458<<ASSIGN
     13459<>CALL    13460>>ASSIGN  13583<<ASSIGN  13584<>CALL    13585>>IF      13587>>IF      13587>>IF
     13590>>IF      13594<<ASSIGN  13595<>CALL    13596>>ASSIGN  13597>>ASSIGN
SENDTRACERSP
     13310**LABEL   13304--GOTO
SIZE
     13023**DCL     13098<>CALL    13224<<ASSIGN  13237<<ASSIGN  13238<>CALL    13269<>CALL    13314<<ASSIGN
PL6.E3A0      #005=GDB$FIRST_USER_TRAP File=GDB$BRKPNTS.:E05TSI                  TUE 07/29/97 21:24 Page:286
     13315<>CALL    13473<<ASSIGN  13521<>CALL    13546<<ASSIGN  13547<>CALL    13717<<ASSIGN  13718<>CALL
     13815<<ASSIGN  13819<>CALL
SMEMORY
     12974**DCL     13589>>ASSIGN
SRCHFORBRKPNT
     13728**PROC    13242--CALL    13277--CALL    13342--CALL    13391--CALL    13414--CALL    13611--CALL
     13648--CALL
STARTOVER
     13108**LABEL   13540--GOTO
TRAP_NO
     13026**DCL     13703<<ASSIGN  13711<<ASSIGN  13713<<ASSIGN  13714>>IF      13714>>IF      13716>>IF
VALB IN PROCEDURE CMPRIF
     13791**DCL     13792--REDEF   13844<<ASSIGN
VALB_ IN PROCEDURE CMPRIF
     13792**DCL     13849<<ASSIGN  13885>>IF      13892>>IF
VALC IN PROCEDURE CMPRIF
     13793**DCL     13794--REDEF   13839<<ASSIGN
VALC_ IN PROCEDURE CMPRIF
     13794**DCL     13841<<ASSIGN  13869>>IF      13876>>IF
VALP$ IN PROCEDURE CMPRIF
     13785**DCL     13855<<ASSIGN  13900>>IF      13903>>IF      13906>>IF      13909>>IF      13912>>IF
     13915>>IF
VALP_ IN PROCEDURE CMPRIF
     13790**DCL     13857<<ASSIGN
VALS IN PROCEDURE CMPRIF
     13782**DCL     13783--REDEF   13784--REDEF   13785--REDEF   13786--REDEF   13790--REDEF   13833<<ASSIGN
     13923>>IF      13925>>IF      13927>>IF      13929>>IF      13931>>IF      13933>>IF
VALS_ IN PROCEDURE CMPRIF
     13783**DCL     13835<<ASSIGN
VLP_XBREAK.GOBREAK
      1932**DCL     13250<<ASSIGN  13556<<ASSIGN  13644<<ASSIGN  13652>>IF      13674<<ASSIGN
VLP_XBREAK.GOIC
      1931**DCL     13555<<ASSIGN  13562<<ASSIGN  13639>>IF
VLP_XBREAK.IC
      1929**DCL      1929--REDEF
VLP_XBREAK.IC$
PL6.E3A0      #005=GDB$FIRST_USER_TRAP File=GDB$BRKPNTS.:E05TSI                  TUE 07/29/97 21:24 Page:287
      1929**DCL     13226>>ASSIGN  13563<<ASSIGN  13579>>ASSIGN  13645>>ASSIGN
VLP_XBREAK.OLDIC
      1929**DCL      1930--REDEF    1930--REDEF
VLP_XBREAK.OLDIC$
      1930**DCL     13235>>ASSIGN
VLP_XBREAK.REPLACED.INSTR
      1930**DCL     13249<<ASSIGN  13654<<ASSIGN
VLP_XBREAK.TC
      1932**DCL     13230>>IF
VLP_XBREAK.TRAP#
      1931**DCL     13229>>IF      13263>>ASSIGN
VLP_XBREAK.TT
      1931**DCL     13230>>IF      13241<<ASSIGN  13624<<ASSIGN  13690<<ASSIGN
X6A_ARET
     12998**DCL-ENT 13099--ASSIGN

