VERSION E05

PL6.E3A0      #001=GDK$MPTR File=GDK$MPTR.:E05TSI                                TUE 07/29/97 21:25 Page:1
        1        1        /*M*  GDK$MPTR - Converts ADDRESS, SEG, DESC#, NOT_IS into a PTR.              */
        2        2        /*T***********************************************************/
        3        3        /*T*                                                         */
        4        4        /*T* Copyright (c) Bull HN Information Systems Inc., 1997    */
        5        5        /*T*                                                         */
        6        6        /*T***********************************************************/
        7        7        /*X* DMR,PLM=5,IND=5,CSU=3,EXM=0,ECU=3,MCL=4,DCI=5,CRT=5 */
        8        8        /*F*  NAME: GDK$MPTR
        9        9              PURPOSE: This routine evaluates ADDRESS, SEG, DESC#, and NOT_IS.
       10       10                       resolving the whole mess into a genuine L6 pointer into
       11       11                       the user's memory.
       12       12
       13       13                       Note that only special symbols usable as pointers need
       14       14                       be decoded.
       15       15
       16       16              DESCRIPTION:  Input is ADDRESS - word offset in segment
       17       17                                     SEG - described in GDK$EVAL
       18       18                                     DESC# the encoded segment ID
       19       19                                     NOT_IS - set if segment not INSTRUCTION
       20       20                                              SEGMENT (seg=3, DESC#=0)
       21       21
       22       22                                                     */
       23       23        GDK$MPTR: PROC(PTR$,ADDRESS,SEG,DESC#,NOT_IS,IS_PTR,DSIZE);
       24       24             %INCLUDE GD_STATIC_DATA;
       25      497          /* Parms */
       26      498    1   DCL PTR$ PTR;
       27      499    1   DCL PTR_ REDEF PTR$ BIT(32);
       28      500    1   DCL ADDRESS UBIN(32);
       29      501    1   DCL SEG UBIN WORD;
       30      502    1   DCL DESC# UBIN WORD;
       31      503    1   DCL NOT_IS BIT(1) ALIGNED;
       32      504    1   DCL IS_PTR BIT(1) ALIGNED;
       33      505    1   DCL DSIZE UBIN;
       34      506    1   DCL G$JIT$ PTR SYMREF;
       35      507        %INCLUDE G_ROS_M;
       36      589        %G$ROS (STCLASS="BASED(G$ROS$)");
       37      633        %INCLUDE GM_VIRTUAL_E;
PL6.E3A0      #001=GDK$MPTR File=GDK$MPTR.:E05TSI                                TUE 07/29/97 21:25 Page:2
       38      843        /**/
       39      844        %INCLUDE LCP_6;
       40     1035        %G$TSA (FPTN=G$TSA,STCLASS=BASED);
       41     1423        %SUB G$TSA="GD_DATA.DELTAINFO.TSA$->G$TSA";
       42     1424    1   DCL B$PTR PTR BASED CALIGNED;
       43     1425    1   DCL WOFFSET SBIN;
       44     1426    1   DCL G$ROS$ PTR SYMREF;
       45     1427    1   DCL G$ISR1$ PTR SYMREF;                 /* Base of user static data           */
       46     1428    1   DCL G$ISR2$ PTR SYMREF;
       47     1429    1   DCL G$ISR3$ PTR SYMREF;                 /* Base of user procedure             */
       48     1430    1   DCL G$ISR4$ PTR SYMREF;
       49     1431    1   DCL G$ISR5$ PTR SYMREF;
       50     1432    1   DCL G$ISR6$ PTR SYMREF;
       51     1433    1   DCL G$ISR7$ PTR SYMREF;
       52     1434    1   DCL G$USRDS1$ PTR SYMREF;
       53     1435    1   DCL G$USRDS2$ PTR SYMREF;
       54     1436    1   DCL G$USRDS3$ PTR SYMREF;
       55     1437    1   DCL G$USRDS4$ PTR SYMREF;
       56     1438    1   DCL G$UAUTO_DS$ PTR SYMREF;
       57     1439    1   DCL ULAUTO_DS UBIN(32);
       58     1440    1   DCL ULAUTO_DS$ REDEF ULAUTO_DS PTR;
       59     1441    1   DCL MAUTO_DS UBIN(32);
       60     1442    1   DCL MAUTO_DS$ REDEF MAUTO_DS PTR;
       61     1443        /**/
       62     1444    1        DSIZE = 16;
       63     1445    1        PTR$ = ADDR(NIL);
       64     1446    2        IF NOT_IS THEN DO;
       65     1447    3             DO CASE(SEG);
       66     1448    3               CASE(3);
       67     1449    3                  PTR$ = PINCRW(PTR$,ADDRESS);
       68     1450    3               CASE(5) /* $DCBn */;
       69     1451    3                  PTR$ = PINCRW(DCBADDR(DESC#),ADDRESS);
       70     1452    3               CASE(9) /* L6 Encoded special symbols */;
       71     1453    3                  GOTO GOT_SPEC_SYM;
       72     1454    3               CASE(10) /* $Bn */;
       73     1455    4                  IF IS_PTR THEN DO;
       74     1456    5                       DO CASE(DESC#);
PL6.E3A0      #001=GDK$MPTR File=GDK$MPTR.:E05TSI                                TUE 07/29/97 21:25 Page:3
       75     1457    5                         CASE(1,2,4,5,6,7);
       76     1458    5                            PTR$ = PINCRW(ADDR(G$TSA.ISA.REGS.B7$),(7-DESC#)*2);
       77     1459    5                            PTR$ = PINCRW(PTR$->B$PTR,ADDRESS);
       78     1460    5                         CASE(3);
       79     1461    5                            PTR$ = PINCRW(G$TSA.B3$,ADDRESS);
       80     1462    5                         END /* CASE */;
       81     1463    4                     END /* IF IS_PTR */;
       82     1464    3                  ELSE GOTO GOT_SPEC_SYM;
       83     1465    3               CASE(11);
       84     1466    4                  DO CASE(DESC#);
       85     1467    4                    CASE(1);
       86     1468    4                       PTR$ = PINCRW(G$USRDS1$,ADDRESS);
       87     1469    4                    CASE(2);
       88     1470    4                       PTR$ = PINCRW(G$USRDS2$,ADDRESS);
       89     1471    4                    CASE(3);
       90     1472    4                       PTR$ = PINCRW(G$USRDS3$,ADDRESS);
       91     1473    4                    CASE(4);
       92     1474    4                       PTR$ = PINCRW(G$USRDS4$,ADDRESS);
       93     1475    4                    END/* CASE */;
       94     1476    3               CASE(12);
       95     1477    4                  DO CASE(DESC#);
       96     1478    4                    CASE(1);
       97     1479    4                       PTR$ = PINCRW(G$ISR1$,ADDRESS);
       98     1480    4                    CASE(2);
       99     1481    4                       PTR$ = PINCRW(G$ISR2$,ADDRESS);
      100     1482    4                    CASE(3);
      101     1483    4                       PTR$ = PINCRW(G$ISR3$,ADDRESS);
      102     1484    4                    CASE(4);
      103     1485    4                       PTR$ = PINCRW(G$ISR4$,ADDRESS);
      104     1486    4                    CASE(5);
      105     1487    4                       PTR$ = PINCRW(G$ISR5$,ADDRESS);
      106     1488    4                    CASE(6);
      107     1489    4                       PTR$ = PINCRW(G$ISR6$,ADDRESS);
      108     1490    4                    CASE(7);
      109     1491    4                       PTR$ = PINCRW(G$ISR7$,ADDRESS);
      110     1492    4                    END/* CASE */;
      111     1493    3               CASE(ELSE);
PL6.E3A0      #001=GDK$MPTR File=GDK$MPTR.:E05TSI                                TUE 07/29/97 21:25 Page:4
      112     1494    3                  GOTO NOT_L6;
      113     1495    3               END /* CASE */;
      114     1496    2           END /* IF NOT_IS */;
      115     1497    2        ELSE DO;
      116     1498    2             PTR$ = PINCRW(PTR$,ADDRESS);
      117     1499    2           END /* ELSE */;
      118     1500    1        RETURN;
      119     1501        /**/
      120     1502        /* Process special symbol */
      121     1503        /**/
      122     1504    1   GOT_SPEC_SYM:
      123     1505    2        DO CASE(SEG);
      124     1506    2          CASE(1);
      125     1507    2             IF DESC# = 7 /* $JIT */ THEN
      126     1508    2                  PTR$ = PINCRW(G$JIT$,ADDRESS);
      127     1509    2             ELSE GOTO NOT_L6;
      128     1510    2          CASE(9);
      129     1511    3             DO CASE(DESC#);
      130     1512    3               CASE(0);
      131     1513    4                  DO CASE(ADDRESS);
      132     1514    4                    CASE(0,1,3,4,5,6) /* $Rn */;
      133     1515    4                       PTR$ = PINCRW(ADDR(G$TSA.ISA.REGS.R7),6-ADDRESS);
      134     1516    4                       DSIZE = 1;
      135     1517    4                    CASE(2) /* $R3 */;
      136     1518    4                       PTR$ = ADDR(G$TSA.R3);
      137     1519    4                       DSIZE = 1;
      138     1520    4                    CASE(7,8,9,10,11,12,13) /* $Mn */;
      139     1521    4                       PTR$ = PINCRW(ADDR(G$TSA.ISA.REGS.M1),ADDRESS-7);
      140     1522    4                       DSIZE = 14 - ADDRESS;
      141     1523    4                    CASE(14) /* $T */;
      142     1524    4                       PTR$ = ADDR(G$TSA.ISA.REGS.T$);
      143     1525    4                       DSIZE = 2;
      144     1526    4                    CASE(15) /* $S */;
      145     1527    4                       PTR$ = ADDR(G$TSA.S);
      146     1528    4                       DSIZE = 1;
      147     1529    4                    CASE(16) /* $A */;
      148     1530    4                       PTR$ = ADDR(G$TSA.A$);
PL6.E3A0      #001=GDK$MPTR File=GDK$MPTR.:E05TSI                                TUE 07/29/97 21:25 Page:5
      149     1531    4                       DSIZE = 2;
      150     1532    4                    CASE(17) /* $IV */;
      151     1533    4                       GOTO UNSUPPORTED;
      152     1534    4                    CASE(18) /* $Z */;
      153     1535    4                       PTR$ = ADDR(G$TSA.Z);
      154     1536    4                       DSIZE = 1;
      155     1537    4                    CASE(19) /* $ASV */;
      156     1538    4                       PTR$ = ADDR(G$TSA.ISA.ASV$);
      157     1539    4                       DSIZE = 2;
      158     1540    4                    CASE(20) /* $CI */;
      159     1541    4                       PTR$ = ADDR(G$TSA.ISA.REGS.CI);
      160     1542    4                       DSIZE = 1;
      161     1543    4                    CASE(21) /* $IND */;
      162     1544    4                       PTR$ = ADDR(G$TSA.I);
      163     1545    4                       DSIZE = 1;
      164     1546    4                    END /* CASE */;
      165     1547    3               CASE(1) /* $ROSEG */;
      166     1548    3                  PTR$ = PINCRW(G$ROS$,ADDRESS);
      167     1549    3               CASE(2) /* $RDBR */;
      168     1550    3                  PTR$ = PINCRW(G$TSA.ISA.REGS.RDBR$,ADDRESS);
      169     1551    3               CASE(3) /* $TSA */;
      170     1552    3                  PTR$ = PINCRW(GD_DATA.DELTAINFO.TSA$,ADDRESS);
      171     1553    3               CASE(4) /* $AUTO */;
      172     1554    3                  ULAUTO_DS$ = G$ROS.AUTO_DS$;
      173     1555    3                  MAUTO_DS = %GM_TSTACKM_BASE;
      174     1556    3                  IF (GD_DATA.GD.USERNO = 0) THEN
      175     1557    3                       PTR$ = PINCRW(MAUTO_DS$,ADDRESS);
      176     1558    3                  ELSE
      177     1559    3                       PTR$ = PINCRW(ULAUTO_DS$,ADDRESS);
      178     1560                                                /* not everyone uses lauto, tho */
      179     1561    3               END /* CASE */;
      180     1562    2          CASE(10) /* $Bn */;
      181     1563    3             DO CASE(DESC#);
      182     1564    3               CASE(1,2,4,5,6,7);
      183     1565    3                  PTR$ = PINCRW(ADDR(G$TSA.ISA.REGS.B7$),2*(7-DESC#));
      184     1566    3                  DSIZE = 2;
      185     1567    3               CASE(3);
PL6.E3A0      #001=GDK$MPTR File=GDK$MPTR.:E05TSI                                TUE 07/29/97 21:25 Page:6
      186     1568    3                  PTR$ = ADDR(G$TSA.B3$);
      187     1569    3                  DSIZE = 2;
      188     1570    3               END /* CASE */;
      189     1571    2          END /* CASE */;
      190     1572    1        RETURN;
      191     1573
      192     1574    1   UNSUPPORTED: ;
      193     1575    1        GD_DATA.GD.ERROR = %GD#RSPUNSUPRT;
      194     1576    1        GOTO WASTE_EM;
      195     1577
      196     1578    1   NOT_L6: ;
      197     1579    1        GD_DATA.GD.ERROR = %GD#RSPDDNOTL6;
      198     1580    1   WASTE_EM: ;
      199     1581    1        UNWIND TO GD_DATA.GD.ERROR_LOC;
      200     1582
      201     1583    1   END GDK$MPTR;

PL6.E3A0      #001=GDK$MPTR File=GDK$MPTR.:E05TSI                                TUE 07/29/97 21:25 Page:7
--  Include file information  --

   LCP_6.:E05TOU  cannot be made into a system file and is referenced.
   GM_VIRTUAL_E.:E05TOU  is referenced.
   G_ROS_M.:E05TOU  is referenced.
   GD$MSG_M.:E05TOU  is referenced.
   GDA_EQUS_E.:E05TOU  is referenced.
   GD_EQUS_E.:E05TOU  is referenced.
   GD_DATA_M.:E05TOU  is referenced.
   GD_STATIC_DATA.:E05TOU  cannot be made into a system file and is referenced.
   G_LCP6_E.:E05TOU  was found in the system file and is referenced.
   GT_LCP6_M.:E05TOU  was found in the system file and is referenced.
   KI_CP6.:E05TOU  was found in the system file and is referenced.
   GF_LCP6_M.:E05TOU  was found in the system file and is referenced.
   GM_LCP6_M.:E05TOU  was found in the system file and is referenced.
   GU_LCP6_M.:E05TOU  was found in the system file and is referenced.
   GJ_LCP6_M.:E05TOU  was found in the system file and is referenced.
   GH_LCP6_M.:E05TOU  was found in the system file and is referenced.
      No diagnostics issued in procedure GDK$MPTR.

   Procedure GDK$MPTR requires 718 words for executable code.
   Procedure GDK$MPTR requires 26 words of local(AUTO) storage.

    No errors detected in file GDK$MPTR.:E05TSI    .

PL6.E3A0      #001=GDK$MPTR File=GDK$MPTR.:E05TSI                                TUE 07/29/97 21:25 Page:8

 Object Unit name= GDK$MPTR                                   File name= GDK$MPTR.:E05TOU
 UTS= JUL 29 '97 21:25:28.04 TUE                              Compiler= PL-6/E31         Sev=      00
 SharedLib= :SHARED_LCP6_SYSTEM                               Alt SharedLib=


    ****  Control sections  ****

 Sect   Type Bound  Init  Size HexSiz  Section name
    0   Proc  even  none   718    2CE  GDK$MPTR

    ****  Entry defs  ****

                              Check   Calling
                             calling  sequence
  Sect HexLoc Primary Altret sequence   type   Parms  Name
     0      0   yes            yes      Std        7  GDK$MPTR

  ****  Entry refs  ****

         Check        Calling
        calling       sequence
Altret sequence SRef   type   Args  Name
                       nStd      0 X6A_AUTO_N
                       nStd      0 X6A_ARET
                       nStd      0 X6A_AUNWIND

  ****  Data refs  ****

  Flags:  r = read only, s = secondary
Flgs Name                             Flgs Name                             Flgs Name
     GD$DELTA_DATA$                        G$JIT$                                G$ROS$
     G$ISR1$                               G$ISR2$                               G$ISR3$
     G$ISR4$                               G$ISR5$                               G$ISR6$
     G$ISR7$                               G$USRDS1$                             G$USRDS2$
     G$USRDS3$                             G$USRDS4$                        r    G$ROS$
PL6.E3A0      #001=GDK$MPTR File=GDK$MPTR.:E05TSI                                TUE 07/29/97 21:25 Page:9


        1        1        /*M*  GDK$MPTR - Converts ADDRESS, SEG, DESC#, NOT_IS into a PTR.              */
        2        2        /*T***********************************************************/
        3        3        /*T*                                                         */
        4        4        /*T* Copyright (c) Bull HN Information Systems Inc., 1997    */
        5        5        /*T*                                                         */
        6        6        /*T***********************************************************/
        7        7        /*X* DMR,PLM=5,IND=5,CSU=3,EXM=0,ECU=3,MCL=4,DCI=5,CRT=5 */
        8        8        /*F*  NAME: GDK$MPTR
        9        9              PURPOSE: This routine evaluates ADDRESS, SEG, DESC#, and NOT_IS.
       10       10                       resolving the whole mess into a genuine L6 pointer into
       11       11                       the user's memory.
       12       12
       13       13                       Note that only special symbols usable as pointers need
       14       14                       be decoded.
       15       15
       16       16              DESCRIPTION:  Input is ADDRESS - word offset in segment
       17       17                                     SEG - described in GDK$EVAL
       18       18                                     DESC# the encoded segment ID
       19       19                                     NOT_IS - set if segment not INSTRUCTION
       20       20                                              SEGMENT (seg=3, DESC#=0)
       21       21
       22       22                                                     */
       23       23        GDK$MPTR: PROC(PTR$,ADDRESS,SEG,DESC#,NOT_IS,IS_PTR,DSIZE);

     23   0 000000  D380 0000 0000  xent GDK$MPTR        LNJ,B5   X6A_AUTO_N
          0 000003       001A 0007                       DC       26,7

       24       24             %INCLUDE GD_STATIC_DATA;
       25      497          /* Parms */
       26      498    1   DCL PTR$ PTR;
       27      499    1   DCL PTR_ REDEF PTR$ BIT(32);
       28      500    1   DCL ADDRESS UBIN(32);
       29      501    1   DCL SEG UBIN WORD;
       30      502    1   DCL DESC# UBIN WORD;
       31      503    1   DCL NOT_IS BIT(1) ALIGNED;
       32      504    1   DCL IS_PTR BIT(1) ALIGNED;
PL6.E3A0      #001=GDK$MPTR File=GDK$MPTR.:E05TSI                                TUE 07/29/97 21:25 Page:10
       33      505    1   DCL DSIZE UBIN;
       34      506    1   DCL G$JIT$ PTR SYMREF;
       35      507        %INCLUDE G_ROS_M;
       36      589        %G$ROS (STCLASS="BASED(G$ROS$)");
       37      633        %INCLUDE GM_VIRTUAL_E;
       38      843        /**/
       39      844        %INCLUDE LCP_6;
       40     1035        %G$TSA (FPTN=G$TSA,STCLASS=BASED);
       41     1423        %SUB G$TSA="GD_DATA.DELTAINFO.TSA$->G$TSA";
       42     1424    1   DCL B$PTR PTR BASED CALIGNED;
       43     1425    1   DCL WOFFSET SBIN;
       44     1426    1   DCL G$ROS$ PTR SYMREF;
       45     1427    1   DCL G$ISR1$ PTR SYMREF;                 /* Base of user static data           */
       46     1428    1   DCL G$ISR2$ PTR SYMREF;
       47     1429    1   DCL G$ISR3$ PTR SYMREF;                 /* Base of user procedure             */
       48     1430    1   DCL G$ISR4$ PTR SYMREF;
       49     1431    1   DCL G$ISR5$ PTR SYMREF;
       50     1432    1   DCL G$ISR6$ PTR SYMREF;
       51     1433    1   DCL G$ISR7$ PTR SYMREF;
       52     1434    1   DCL G$USRDS1$ PTR SYMREF;
       53     1435    1   DCL G$USRDS2$ PTR SYMREF;
       54     1436    1   DCL G$USRDS3$ PTR SYMREF;
       55     1437    1   DCL G$USRDS4$ PTR SYMREF;
       56     1438    1   DCL G$UAUTO_DS$ PTR SYMREF;
       57     1439    1   DCL ULAUTO_DS UBIN(32);
       58     1440    1   DCL ULAUTO_DS$ REDEF ULAUTO_DS PTR;
       59     1441    1   DCL MAUTO_DS UBIN(32);
       60     1442    1   DCL MAUTO_DS$ REDEF MAUTO_DS PTR;
       61     1443        /**/
       62     1444    1        DSIZE = 16;

   1444   0 000005  ECC7 0010                            LDB,B6   @DSIZE,AUTO
          0 000007  6C10                                 LDV,R6   16
          0 000008  EF06                                 STR,R6   ,B6

       63     1445    1        PTR$ = ADDR(NIL);

PL6.E3A0      #001=GDK$MPTR File=GDK$MPTR.:E05TSI                                TUE 07/29/97 21:25 Page:11
   1445   0 000009  DB80 0000 0000                       LAB,B5   0
          0 00000C  CCC7 0004                            LDB,B4   @PTR$,AUTO
          0 00000E  DF84                                 STB,B5   ,B4

       64     1446    2        IF NOT_IS THEN DO;

   1446   0 00000F  BCC7 000C                            LDB,B3   @NOT_IS,AUTO
          0 000011  8983                                 CMZ      ,B3
          0 000012  0881 0110                            BAGE     s:1498,PREL

       65     1447    3             DO CASE(SEG);

   1447   0 000014  ACC7 0008                            LDB,B2   @SEG,AUTO
          0 000016  B802                                 LDR,R3   ,B2
          0 000017  3D0D                                 CMV,R3   13
          0 000018  0281 0108                            BGE      s:1494,PREL
          0 00001A  A830 0000 0020  00                   LDR,R2   s:1447+12,R3
          0 00001D  83A0 0000 002D  00                   JMP      s:1449,R2
          0 000020       00F4                            DC       s:1494,PREL
          0 000021       00F4                            DC       s:1494,PREL
          0 000022       00F4                            DC       s:1494,PREL
          0 000023       0000                            DC       s:1449,PREL
          0 000024       00F4                            DC       s:1494,PREL
          0 000025       000A                            DC       s:1451,PREL
          0 000026       00F4                            DC       s:1494,PREL
          0 000027       00F4                            DC       s:1494,PREL
          0 000028       00F4                            DC       s:1494,PREL
          0 000029       001C                            DC       s:1453,PREL
          0 00002A       001E                            DC       s:1455,PREL
          0 00002B       006C                            DC       s:1466,PREL
          0 00002C       00A1                            DC       s:1477,PREL

       66     1448    3               CASE(3);

       67     1449    3                  PTR$ = PINCRW(PTR$,ADDRESS);

   1449   0 00002D  9CC7 0006                            LDB,B1   @ADDRESS,AUTO
PL6.E3A0      #001=GDK$MPTR File=GDK$MPTR.:E05TSI                                TUE 07/29/97 21:25 Page:12
          0 00002F  8C81                                 LDI      ,B1
          0 000030  DFC7 0018                            STB,B5   MAUTO_DS+3,AUTO
          0 000032  8447 0018                            AID      MAUTO_DS+3,AUTO
          0 000034  8D04                                 SDI      ,B4
          0 000035  0F81 00F5                            B        s:1500,PREL

       68     1450    3               CASE(5) /* $DCBn */;

       69     1451    3                  PTR$ = PINCRW(DCBADDR(DESC#),ADDRESS);

   1451   0 000037  9C80 0000 0000  xsym                 LDB,B1   G$ROS$
          0 00003A  EC81                                 LDB,B6   ,B1
          0 00003B  DCC7 000A                            LDB,B5   @DESC#,AUTO
          0 00003D  9805                                 LDR,R1   ,B5
          0 00003E  DCC7 0006                            LDB,B5   @ADDRESS,AUTO
          0 000040  8C85                                 LDI      ,B5
          0 000041  DC96                                 LDB,B5   ,B6,R1
          0 000042  DFC7 0018                            STB,B5   MAUTO_DS+3,AUTO
          0 000044  8447 0018                            AID      MAUTO_DS+3,AUTO
          0 000046  8D04                                 SDI      ,B4
          0 000047  0F81 00E3                            B        s:1500,PREL

       70     1452    3               CASE(9) /* L6 Encoded special symbols */;

       71     1453    3                  GOTO GOT_SPEC_SYM;

   1453   0 000049  0F81 00E4                            B        s:1505,PREL

       72     1454    3               CASE(10) /* $Bn */;

       73     1455    4                  IF IS_PTR THEN DO;

   1455   0 00004B  9CC7 000E                            LDB,B1   @IS_PTR,AUTO
          0 00004D  8981                                 CMZ      ,B1
          0 00004E  0881 00DF                            BAGE     s:1505,PREL

       74     1456    5                       DO CASE(DESC#);
PL6.E3A0      #001=GDK$MPTR File=GDK$MPTR.:E05TSI                                TUE 07/29/97 21:25 Page:13

   1456   0 000050  ECC7 000A                            LDB,B6   @DESC#,AUTO
          0 000052  9806                                 LDR,R1   ,B6
          0 000053  1D08                                 CMV,R1   8
          0 000054  0281 00D6                            BGE      s:1500,PREL
          0 000056  B810 0000 005C  00                   LDR,R3   s:1456+12,R1
          0 000059  83B0 0000 0064  00                   JMP      s:1458,R3
          0 00005C       0033                            DC       s:1463,PREL
          0 00005D       0000                            DC       s:1458,PREL
          0 00005E       0000                            DC       s:1458,PREL
          0 00005F       0024                            DC       s:1461,PREL
          0 000060       0000                            DC       s:1458,PREL
          0 000061       0000                            DC       s:1458,PREL
          0 000062       0000                            DC       s:1458,PREL
          0 000063       0000                            DC       s:1458,PREL

       75     1457    5                         CASE(1,2,4,5,6,7);

       76     1458    5                            PTR$ = PINCRW(ADDR(G$TSA.ISA.REGS.B7$),(7-DESC#)*2);

   1458   0 000064  EC80 0000 0000  xsym                 LDB,B6   GD$DELTA_DATA$
          0 000067  DCC6 0006                            LDB,B5   6,B6
          0 000069  ECC7 000A                            LDB,B6   @DESC#,AUTO
          0 00006B  B806                                 LDR,R3   ,B6
          0 00006C  DFC7 0018                            STB,B5   MAUTO_DS+3,AUTO
          0 00006E  F853                                 LDR,R7   R3
          0 00006F  6C00                                 LDV,R6   0
          0 000070  7081                                 DOL,R7   1
          0 000071  8656                                 CPL      R6
          0 000072  8657                                 CPL      R7
          0 000073  8470 0000 0001                       AID      1,IMO
          0 000076  8447 0018                            AID      MAUTO_DS+3,AUTO
          0 000078  8470 0000 0026                       AID      38,IMO
          0 00007B  8D04                                 SDI      ,B4

       77     1459    5                            PTR$ = PINCRW(PTR$->B$PTR,ADDRESS);

PL6.E3A0      #001=GDK$MPTR File=GDK$MPTR.:E05TSI                                TUE 07/29/97 21:25 Page:14
   1459   0 00007C  DC84                                 LDB,B5   ,B4
          0 00007D  ECC7 0006                            LDB,B6   @ADDRESS,AUTO
          0 00007F  8C86                                 LDI      ,B6
          0 000080  EC85                                 LDB,B6   ,B5
          0 000081  EFC7 0018                            STB,B6   MAUTO_DS+3,AUTO
          0 000083  8447 0018                            AID      MAUTO_DS+3,AUTO
          0 000085  8D04                                 SDI      ,B4
          0 000086  0F81 00A4                            B        s:1500,PREL

       78     1460    5                         CASE(3);

       79     1461    5                            PTR$ = PINCRW(G$TSA.B3$,ADDRESS);

   1461   0 000088  EC80 0000 0000  xsym                 LDB,B6   GD$DELTA_DATA$
          0 00008B  DCC6 0006                            LDB,B5   6,B6
          0 00008D  ECC7 0006                            LDB,B6   @ADDRESS,AUTO
          0 00008F  8C86                                 LDI      ,B6
          0 000090  ECC5 000A                            LDB,B6   10,B5
          0 000092  EFC7 0018                            STB,B6   MAUTO_DS+3,AUTO
          0 000094  8447 0018                            AID      MAUTO_DS+3,AUTO
          0 000096  8D04                                 SDI      ,B4

       80     1462    5                         END /* CASE */;

       81     1463    4                     END /* IF IS_PTR */;

   1463   0 000097  0F81 0093                            B        s:1500,PREL

       82     1464    3                  ELSE GOTO GOT_SPEC_SYM;
       83     1465    3               CASE(11);

       84     1466    4                  DO CASE(DESC#);

   1466   0 000099  9CC7 000A                            LDB,B1   @DESC#,AUTO
          0 00009B  9801                                 LDR,R1   ,B1
          0 00009C  1D05                                 CMV,R1   5
          0 00009D  0281 008D                            BGE      s:1500,PREL
PL6.E3A0      #001=GDK$MPTR File=GDK$MPTR.:E05TSI                                TUE 07/29/97 21:25 Page:15
          0 00009F  B810 0000 00A5  00                   LDR,R3   s:1466+12,R1
          0 0000A2  83B0 0000 00AA  00                   JMP      s:1468,R3
          0 0000A5       0022                            DC       s:1475,PREL
          0 0000A6       0000                            DC       s:1468,PREL
          0 0000A7       0009                            DC       s:1470,PREL
          0 0000A8       0012                            DC       s:1472,PREL
          0 0000A9       001B                            DC       s:1474,PREL

       85     1467    4                    CASE(1);

       86     1468    4                       PTR$ = PINCRW(G$USRDS1$,ADDRESS);

   1468   0 0000AA  ECC7 0006                            LDB,B6   @ADDRESS,AUTO
          0 0000AC  8C86                                 LDI      ,B6
          0 0000AD  8400 0000 0000  xsym                 AID      G$USRDS1$
          0 0000B0  8D04                                 SDI      ,B4
          0 0000B1  0F81 0079                            B        s:1500,PREL

       87     1469    4                    CASE(2);

       88     1470    4                       PTR$ = PINCRW(G$USRDS2$,ADDRESS);

   1470   0 0000B3  ECC7 0006                            LDB,B6   @ADDRESS,AUTO
          0 0000B5  8C86                                 LDI      ,B6
          0 0000B6  8400 0000 0000  xsym                 AID      G$USRDS2$
          0 0000B9  8D04                                 SDI      ,B4
          0 0000BA  0F81 0070                            B        s:1500,PREL

       89     1471    4                    CASE(3);

       90     1472    4                       PTR$ = PINCRW(G$USRDS3$,ADDRESS);

   1472   0 0000BC  ECC7 0006                            LDB,B6   @ADDRESS,AUTO
          0 0000BE  8C86                                 LDI      ,B6
          0 0000BF  8400 0000 0000  xsym                 AID      G$USRDS3$
          0 0000C2  8D04                                 SDI      ,B4
          0 0000C3  0F81 0067                            B        s:1500,PREL
PL6.E3A0      #001=GDK$MPTR File=GDK$MPTR.:E05TSI                                TUE 07/29/97 21:25 Page:16

       91     1473    4                    CASE(4);

       92     1474    4                       PTR$ = PINCRW(G$USRDS4$,ADDRESS);

   1474   0 0000C5  ECC7 0006                            LDB,B6   @ADDRESS,AUTO
          0 0000C7  8C86                                 LDI      ,B6
          0 0000C8  8400 0000 0000  xsym                 AID      G$USRDS4$
          0 0000CB  8D04                                 SDI      ,B4

       93     1475    4                    END/* CASE */;

   1475   0 0000CC  0F81 005E                            B        s:1500,PREL

       94     1476    3               CASE(12);

       95     1477    4                  DO CASE(DESC#);

   1477   0 0000CE  9CC7 000A                            LDB,B1   @DESC#,AUTO
          0 0000D0  9801                                 LDR,R1   ,B1
          0 0000D1  1D08                                 CMV,R1   8
          0 0000D2  0281 0058                            BGE      s:1500,PREL
          0 0000D4  B810 0000 00DA  00                   LDR,R3   s:1477+12,R1
          0 0000D7  83B0 0000 00E2  00                   JMP      s:1479,R3
          0 0000DA       003D                            DC       s:1492,PREL
          0 0000DB       0000                            DC       s:1479,PREL
          0 0000DC       0009                            DC       s:1481,PREL
          0 0000DD       0012                            DC       s:1483,PREL
          0 0000DE       001B                            DC       s:1485,PREL
          0 0000DF       0024                            DC       s:1487,PREL
          0 0000E0       002D                            DC       s:1489,PREL
          0 0000E1       0036                            DC       s:1491,PREL

       96     1478    4                    CASE(1);

       97     1479    4                       PTR$ = PINCRW(G$ISR1$,ADDRESS);

PL6.E3A0      #001=GDK$MPTR File=GDK$MPTR.:E05TSI                                TUE 07/29/97 21:25 Page:17
   1479   0 0000E2  ECC7 0006                            LDB,B6   @ADDRESS,AUTO
          0 0000E4  8C86                                 LDI      ,B6
          0 0000E5  8400 0000 0000  xsym                 AID      G$ISR1$
          0 0000E8  8D04                                 SDI      ,B4
          0 0000E9  0F81 0041                            B        s:1500,PREL

       98     1480    4                    CASE(2);

       99     1481    4                       PTR$ = PINCRW(G$ISR2$,ADDRESS);

   1481   0 0000EB  ECC7 0006                            LDB,B6   @ADDRESS,AUTO
          0 0000ED  8C86                                 LDI      ,B6
          0 0000EE  8400 0000 0000  xsym                 AID      G$ISR2$
          0 0000F1  8D04                                 SDI      ,B4
          0 0000F2  0F81 0038                            B        s:1500,PREL

      100     1482    4                    CASE(3);

      101     1483    4                       PTR$ = PINCRW(G$ISR3$,ADDRESS);

   1483   0 0000F4  ECC7 0006                            LDB,B6   @ADDRESS,AUTO
          0 0000F6  8C86                                 LDI      ,B6
          0 0000F7  8400 0000 0000  xsym                 AID      G$ISR3$
          0 0000FA  8D04                                 SDI      ,B4
          0 0000FB  0F81 002F                            B        s:1500,PREL

      102     1484    4                    CASE(4);

      103     1485    4                       PTR$ = PINCRW(G$ISR4$,ADDRESS);

   1485   0 0000FD  ECC7 0006                            LDB,B6   @ADDRESS,AUTO
          0 0000FF  8C86                                 LDI      ,B6
          0 000100  8400 0000 0000  xsym                 AID      G$ISR4$
          0 000103  8D04                                 SDI      ,B4
          0 000104  0F81 0026                            B        s:1500,PREL

      104     1486    4                    CASE(5);
PL6.E3A0      #001=GDK$MPTR File=GDK$MPTR.:E05TSI                                TUE 07/29/97 21:25 Page:18

      105     1487    4                       PTR$ = PINCRW(G$ISR5$,ADDRESS);

   1487   0 000106  ECC7 0006                            LDB,B6   @ADDRESS,AUTO
          0 000108  8C86                                 LDI      ,B6
          0 000109  8400 0000 0000  xsym                 AID      G$ISR5$
          0 00010C  8D04                                 SDI      ,B4
          0 00010D  0F81 001D                            B        s:1500,PREL

      106     1488    4                    CASE(6);

      107     1489    4                       PTR$ = PINCRW(G$ISR6$,ADDRESS);

   1489   0 00010F  ECC7 0006                            LDB,B6   @ADDRESS,AUTO
          0 000111  8C86                                 LDI      ,B6
          0 000112  8400 0000 0000  xsym                 AID      G$ISR6$
          0 000115  8D04                                 SDI      ,B4
          0 000116  0F81 0014                            B        s:1500,PREL

      108     1490    4                    CASE(7);

      109     1491    4                       PTR$ = PINCRW(G$ISR7$,ADDRESS);

   1491   0 000118  ECC7 0006                            LDB,B6   @ADDRESS,AUTO
          0 00011A  8C86                                 LDI      ,B6
          0 00011B  8400 0000 0000  xsym                 AID      G$ISR7$
          0 00011E  8D04                                 SDI      ,B4

      110     1492    4                    END/* CASE */;

   1492   0 00011F  0F81 000B                            B        s:1500,PREL

      111     1493    3               CASE(ELSE);

      112     1494    3                  GOTO NOT_L6;

   1494   0 000121  0F81 019E                            B        s:1575,PREL
PL6.E3A0      #001=GDK$MPTR File=GDK$MPTR.:E05TSI                                TUE 07/29/97 21:25 Page:19

      113     1495    3               END /* CASE */;

      114     1496    2           END /* IF NOT_IS */;
      115     1497    2        ELSE DO;

      116     1498    2             PTR$ = PINCRW(PTR$,ADDRESS);

   1498   0 000123  ACC7 0006                            LDB,B2   @ADDRESS,AUTO
          0 000125  8C82                                 LDI      ,B2
          0 000126  DFC7 0018                            STB,B5   MAUTO_DS+3,AUTO
          0 000128  8447 0018                            AID      MAUTO_DS+3,AUTO
          0 00012A  8D04                                 SDI      ,B4

      117     1499    2           END /* ELSE */;

      118     1500    1        RETURN;

   1500   0 00012B  C380 0000 0000  xent                 LNJ,B4   X6A_ARET

      119     1501        /**/
      120     1502        /* Process special symbol */
      121     1503        /**/
      122     1504    1   GOT_SPEC_SYM:
      123     1505    2        DO CASE(SEG);

   1505   0 00012E  3D0B                 GOT_SPEC_SYM    CMV,R3   11
          0 00012F  0281 0185                            BGE      s:1572,PREL
          0 000131  9830 0000 0137  00                   LDR,R1   GOT_SPEC_SYM+9,R3
          0 000134  8390 0000 0142  00                   JMP      s:1507,R1
          0 000137       0173                            DC       s:1572,PREL
          0 000138       0000                            DC       s:1507,PREL
          0 000139       0173                            DC       s:1572,PREL
          0 00013A       0173                            DC       s:1572,PREL
          0 00013B       0173                            DC       s:1572,PREL
          0 00013C       0173                            DC       s:1572,PREL
          0 00013D       0173                            DC       s:1572,PREL
PL6.E3A0      #001=GDK$MPTR File=GDK$MPTR.:E05TSI                                TUE 07/29/97 21:25 Page:20
          0 00013E       0173                            DC       s:1572,PREL
          0 00013F       0173                            DC       s:1572,PREL
          0 000140       000F                            DC       s:1511,PREL
          0 000141       0138                            DC       s:1563,PREL

      124     1506    2          CASE(1);

      125     1507    2             IF DESC# = 7 /* $JIT */ THEN

   1507   0 000142  9CC7 000A                            LDB,B1   @DESC#,AUTO
          0 000144  D801                                 LDR,R5   ,B1
          0 000145  5D07                                 CMV,R5   7
          0 000146  0981 0179                            BNE      s:1575,PREL

      126     1508    2                  PTR$ = PINCRW(G$JIT$,ADDRESS);

   1508   0 000148  ECC7 0006                            LDB,B6   @ADDRESS,AUTO
          0 00014A  8C86                                 LDI      ,B6
          0 00014B  8400 0000 0000  xsym                 AID      G$JIT$
          0 00014E  8D04                                 SDI      ,B4
          0 00014F  0F81 0165                            B        s:1572,PREL

      127     1509    2             ELSE GOTO NOT_L6;
      128     1510    2          CASE(9);

      129     1511    3             DO CASE(DESC#);

   1511   0 000151  9CC7 000A                            LDB,B1   @DESC#,AUTO
          0 000153  B801                                 LDR,R3   ,B1
          0 000154  3D05                                 CMV,R3   5
          0 000155  0281 015F                            BGE      s:1572,PREL
          0 000157  A830 0000 015D  00                   LDR,R2   s:1511+12,R3
          0 00015A  83A0 0000 0162  00                   JMP      s:1513,R2
          0 00015D       0000                            DC       s:1513,PREL
          0 00015E       00CC                            DC       s:1548,PREL
          0 00015F       00D5                            DC       s:1550,PREL
          0 000160       00E6                            DC       s:1552,PREL
PL6.E3A0      #001=GDK$MPTR File=GDK$MPTR.:E05TSI                                TUE 07/29/97 21:25 Page:21
          0 000161       00F5                            DC       s:1554,PREL

      130     1512    3               CASE(0);

      131     1513    4                  DO CASE(ADDRESS);

   1513   0 000162  ECC7 0006                            LDB,B6   @ADDRESS,AUTO
          0 000164  8C86                                 LDI      ,B6
          0 000165  9857                                 LDR,R1   R7
          0 000166  1D16                                 CMV,R1   22
          0 000167  0281 014D                            BGE      s:1572,PREL
          0 000169  B810 0000 016F  00                   LDR,R3   s:1513+13,R1
          0 00016C  83B0 0000 0185  00                   JMP      s:1515,R3
          0 00016F       0000                            DC       s:1515,PREL
          0 000170       0000                            DC       s:1515,PREL
          0 000171       001B                            DC       s:1518,PREL
          0 000172       0000                            DC       s:1515,PREL
          0 000173       0000                            DC       s:1515,PREL
          0 000174       0000                            DC       s:1515,PREL
          0 000175       0000                            DC       s:1515,PREL
          0 000176       0029                            DC       s:1521,PREL
          0 000177       0029                            DC       s:1521,PREL
          0 000178       0029                            DC       s:1521,PREL
          0 000179       0029                            DC       s:1521,PREL
          0 00017A       0029                            DC       s:1521,PREL
          0 00017B       0029                            DC       s:1521,PREL
          0 00017C       0029                            DC       s:1521,PREL
          0 00017D       0045                            DC       s:1524,PREL
          0 00017E       0053                            DC       s:1527,PREL
          0 00017F       0061                            DC       s:1530,PREL
          0 000180       006F                            DC       s:1533,PREL
          0 000181       0071                            DC       s:1535,PREL
          0 000182       007F                            DC       s:1538,PREL
          0 000183       008D                            DC       s:1541,PREL
          0 000184       009B                            DC       s:1544,PREL

      132     1514    4                    CASE(0,1,3,4,5,6) /* $Rn */;
PL6.E3A0      #001=GDK$MPTR File=GDK$MPTR.:E05TSI                                TUE 07/29/97 21:25 Page:22

      133     1515    4                       PTR$ = PINCRW(ADDR(G$TSA.ISA.REGS.R7),6-ADDRESS);

   1515   0 000185  EC80 0000 0000  xsym                 LDB,B6   GD$DELTA_DATA$
          0 000188  DCC6 0006                            LDB,B5   6,B6
          0 00018A  ECC7 0006                            LDB,B6   @ADDRESS,AUTO
          0 00018C  8C86                                 LDI      ,B6
          0 00018D  DFC7 0018                            STB,B5   MAUTO_DS+3,AUTO
          0 00018F  84C7 0018                            SID      MAUTO_DS+3,AUTO
          0 000191  8656                                 CPL      R6
          0 000192  8657                                 CPL      R7
          0 000193  8470 0000 0001                       AID      1,IMO
          0 000196  8470 0000 002D                       AID      45,IMO
          0 000199  8D04                                 SDI      ,B4

      134     1516    4                       DSIZE = 1;

   1516   0 00019A  DCC7 0010                            LDB,B5   @DSIZE,AUTO
          0 00019C  5C01                                 LDV,R5   1
          0 00019D  DF05                                 STR,R5   ,B5
          0 00019E  0F81 0116                            B        s:1572,PREL

      135     1517    4                    CASE(2) /* $R3 */;

      136     1518    4                       PTR$ = ADDR(G$TSA.R3);

   1518   0 0001A0  EC80 0000 0000  xsym                 LDB,B6   GD$DELTA_DATA$
          0 0001A3  DCC6 0006                            LDB,B5   6,B6
          0 0001A5  EBC5 0003                            LAB,B6   3,B5
          0 0001A7  EF84                                 STB,B6   ,B4

      137     1519    4                       DSIZE = 1;

   1519   0 0001A8  DCC7 0010                            LDB,B5   @DSIZE,AUTO
          0 0001AA  6C01                                 LDV,R6   1
          0 0001AB  EF05                                 STR,R6   ,B5
          0 0001AC  0F81 0108                            B        s:1572,PREL
PL6.E3A0      #001=GDK$MPTR File=GDK$MPTR.:E05TSI                                TUE 07/29/97 21:25 Page:23

      138     1520    4                    CASE(7,8,9,10,11,12,13) /* $Mn */;

      139     1521    4                       PTR$ = PINCRW(ADDR(G$TSA.ISA.REGS.M1),ADDRESS-7);

   1521   0 0001AE  EC80 0000 0000  xsym                 LDB,B6   GD$DELTA_DATA$
          0 0001B1  DCC6 0006                            LDB,B5   6,B6
          0 0001B3  ECC7 0006                            LDB,B6   @ADDRESS,AUTO
          0 0001B5  8C86                                 LDI      ,B6
          0 0001B6  DFC7 0018                            STB,B5   MAUTO_DS+3,AUTO
          0 0001B8  8447 0018                            AID      MAUTO_DS+3,AUTO
          0 0001BA  8470 0000 0027                       AID      39,IMO
          0 0001BD  8D04                                 SDI      ,B4

      140     1522    4                       DSIZE = 14 - ADDRESS;

   1522   0 0001BE  DCC7 0010                            LDB,B5   @DSIZE,AUTO
          0 0001C0  8C86                                 LDI      ,B6
          0 0001C1  8656                                 CPL      R6
          0 0001C2  8657                                 CPL      R7
          0 0001C3  8470 0000 000F                       AID      15,IMO
          0 0001C6  E857                                 LDR,R6   R7
          0 0001C7  EF05                                 STR,R6   ,B5
          0 0001C8  0F81 00EC                            B        s:1572,PREL

      141     1523    4                    CASE(14) /* $T */;

      142     1524    4                       PTR$ = ADDR(G$TSA.ISA.REGS.T$);

   1524   0 0001CA  EC80 0000 0000  xsym                 LDB,B6   GD$DELTA_DATA$
          0 0001CD  DCC6 0006                            LDB,B5   6,B6
          0 0001CF  EBC5 0035                            LAB,B6   53,B5
          0 0001D1  EF84                                 STB,B6   ,B4

      143     1525    4                       DSIZE = 2;

   1525   0 0001D2  DCC7 0010                            LDB,B5   @DSIZE,AUTO
PL6.E3A0      #001=GDK$MPTR File=GDK$MPTR.:E05TSI                                TUE 07/29/97 21:25 Page:24
          0 0001D4  6C02                                 LDV,R6   2
          0 0001D5  EF05                                 STR,R6   ,B5
          0 0001D6  0F81 00DE                            B        s:1572,PREL

      144     1526    4                    CASE(15) /* $S */;

      145     1527    4                       PTR$ = ADDR(G$TSA.S);

   1527   0 0001D8  EC80 0000 0000  xsym                 LDB,B6   GD$DELTA_DATA$
          0 0001DB  DCC6 0006                            LDB,B5   6,B6
          0 0001DD  EBC5 000C                            LAB,B6   12,B5
          0 0001DF  EF84                                 STB,B6   ,B4

      146     1528    4                       DSIZE = 1;

   1528   0 0001E0  DCC7 0010                            LDB,B5   @DSIZE,AUTO
          0 0001E2  6C01                                 LDV,R6   1
          0 0001E3  EF05                                 STR,R6   ,B5
          0 0001E4  0F81 00D0                            B        s:1572,PREL

      147     1529    4                    CASE(16) /* $A */;

      148     1530    4                       PTR$ = ADDR(G$TSA.A$);

   1530   0 0001E6  EC80 0000 0000  xsym                 LDB,B6   GD$DELTA_DATA$
          0 0001E9  DCC6 0006                            LDB,B5   6,B6
          0 0001EB  EBC5 0006                            LAB,B6   6,B5
          0 0001ED  EF84                                 STB,B6   ,B4

      149     1531    4                       DSIZE = 2;

   1531   0 0001EE  DCC7 0010                            LDB,B5   @DSIZE,AUTO
          0 0001F0  6C02                                 LDV,R6   2
          0 0001F1  EF05                                 STR,R6   ,B5
          0 0001F2  0F81 00C2                            B        s:1572,PREL

      150     1532    4                    CASE(17) /* $IV */;
PL6.E3A0      #001=GDK$MPTR File=GDK$MPTR.:E05TSI                                TUE 07/29/97 21:25 Page:25

      151     1533    4                       GOTO UNSUPPORTED;

   1533   0 0001F4  0F81 00C3                            B        s:1565,PREL

      152     1534    4                    CASE(18) /* $Z */;

      153     1535    4                       PTR$ = ADDR(G$TSA.Z);

   1535   0 0001F6  EC80 0000 0000  xsym                 LDB,B6   GD$DELTA_DATA$
          0 0001F9  DCC6 0006                            LDB,B5   6,B6
          0 0001FB  EBC5 0005                            LAB,B6   5,B5
          0 0001FD  EF84                                 STB,B6   ,B4

      154     1536    4                       DSIZE = 1;

   1536   0 0001FE  DCC7 0010                            LDB,B5   @DSIZE,AUTO
          0 000200  6C01                                 LDV,R6   1
          0 000201  EF05                                 STR,R6   ,B5
          0 000202  0F81 00B2                            B        s:1572,PREL

      155     1537    4                    CASE(19) /* $ASV */;

      156     1538    4                       PTR$ = ADDR(G$TSA.ISA.ASV$);

   1538   0 000204  EC80 0000 0000  xsym                 LDB,B6   GD$DELTA_DATA$
          0 000207  DCC6 0006                            LDB,B5   6,B6
          0 000209  EBC5 000D                            LAB,B6   13,B5
          0 00020B  EF84                                 STB,B6   ,B4

      157     1539    4                       DSIZE = 2;

   1539   0 00020C  DCC7 0010                            LDB,B5   @DSIZE,AUTO
          0 00020E  6C02                                 LDV,R6   2
          0 00020F  EF05                                 STR,R6   ,B5
          0 000210  0F81 00A4                            B        s:1572,PREL

PL6.E3A0      #001=GDK$MPTR File=GDK$MPTR.:E05TSI                                TUE 07/29/97 21:25 Page:26
      158     1540    4                    CASE(20) /* $CI */;

      159     1541    4                       PTR$ = ADDR(G$TSA.ISA.REGS.CI);

   1541   0 000212  EC80 0000 0000  xsym                 LDB,B6   GD$DELTA_DATA$
          0 000215  DCC6 0006                            LDB,B5   6,B6
          0 000217  EBC5 0037                            LAB,B6   55,B5
          0 000219  EF84                                 STB,B6   ,B4

      160     1542    4                       DSIZE = 1;

   1542   0 00021A  DCC7 0010                            LDB,B5   @DSIZE,AUTO
          0 00021C  6C01                                 LDV,R6   1
          0 00021D  EF05                                 STR,R6   ,B5
          0 00021E  0F81 0096                            B        s:1572,PREL

      161     1543    4                    CASE(21) /* $IND */;

      162     1544    4                       PTR$ = ADDR(G$TSA.I);

   1544   0 000220  EC80 0000 0000  xsym                 LDB,B6   GD$DELTA_DATA$
          0 000223  DCC6 0006                            LDB,B5   6,B6
          0 000225  EBC5 0002                            LAB,B6   2,B5
          0 000227  EF84                                 STB,B6   ,B4

      163     1545    4                       DSIZE = 1;

   1545   0 000228  DCC7 0010                            LDB,B5   @DSIZE,AUTO
          0 00022A  6C01                                 LDV,R6   1
          0 00022B  EF05                                 STR,R6   ,B5

      164     1546    4                    END /* CASE */;

   1546   0 00022C  0F81 0088                            B        s:1572,PREL

      165     1547    3               CASE(1) /* $ROSEG */;

PL6.E3A0      #001=GDK$MPTR File=GDK$MPTR.:E05TSI                                TUE 07/29/97 21:25 Page:27
      166     1548    3                  PTR$ = PINCRW(G$ROS$,ADDRESS);

   1548   0 00022E  ECC7 0006                            LDB,B6   @ADDRESS,AUTO
          0 000230  8C86                                 LDI      ,B6
          0 000231  8400 0000 0000  xsym                 AID      G$ROS$
          0 000234  8D04                                 SDI      ,B4
          0 000235  0F81 007F                            B        s:1572,PREL

      167     1549    3               CASE(2) /* $RDBR */;

      168     1550    3                  PTR$ = PINCRW(G$TSA.ISA.REGS.RDBR$,ADDRESS);

   1550   0 000237  EC80 0000 0000  xsym                 LDB,B6   GD$DELTA_DATA$
          0 00023A  DCC6 0006                            LDB,B5   6,B6
          0 00023C  ECC7 0006                            LDB,B6   @ADDRESS,AUTO
          0 00023E  8C86                                 LDI      ,B6
          0 00023F  ECC5 0038                            LDB,B6   56,B5
          0 000241  EFC7 0018                            STB,B6   MAUTO_DS+3,AUTO
          0 000243  8447 0018                            AID      MAUTO_DS+3,AUTO
          0 000245  8D04                                 SDI      ,B4
          0 000246  0F81 006E                            B        s:1572,PREL

      169     1551    3               CASE(3) /* $TSA */;

      170     1552    3                  PTR$ = PINCRW(GD_DATA.DELTAINFO.TSA$,ADDRESS);

   1552   0 000248  ECC7 0006                            LDB,B6   @ADDRESS,AUTO
          0 00024A  8C86                                 LDI      ,B6
          0 00024B  EC80 0000 0000  xsym                 LDB,B6   GD$DELTA_DATA$
          0 00024E  DCC6 0006                            LDB,B5   6,B6
          0 000250  DFC7 0018                            STB,B5   MAUTO_DS+3,AUTO
          0 000252  8447 0018                            AID      MAUTO_DS+3,AUTO
          0 000254  8D04                                 SDI      ,B4
          0 000255  0F81 005F                            B        s:1572,PREL

      171     1553    3               CASE(4) /* $AUTO */;

PL6.E3A0      #001=GDK$MPTR File=GDK$MPTR.:E05TSI                                TUE 07/29/97 21:25 Page:28
      172     1554    3                  ULAUTO_DS$ = G$ROS.AUTO_DS$;

   1554   0 000257  EC80 0000 0000  xsym                 LDB,B6   G$ROS$
          0 00025A  DCC6 0016                            LDB,B5   22,B6
          0 00025C  DFC7 0013                            STB,B5   ULAUTO_DS,AUTO

      173     1555    3                  MAUTO_DS = %GM_TSTACKM_BASE;

   1555   0 00025E  8CF0 0000 4000                       LDI      16384,IMO
          0 000261  8D47 0015                            SDI      MAUTO_DS,AUTO

      174     1556    3                  IF (GD_DATA.GD.USERNO = 0) THEN

   1556   0 000263  EC80 0000 0000  xsym                 LDB,B6   GD$DELTA_DATA$
          0 000266  D846 016B                            LDR,R5   363,B6
          0 000268  5981 0009                            BNEZ,R5  s:1559,PREL

      175     1557    3                       PTR$ = PINCRW(MAUTO_DS$,ADDRESS);

   1557   0 00026A  ECC7 0006                            LDB,B6   @ADDRESS,AUTO
          0 00026C  8C86                                 LDI      ,B6
          0 00026D  8447 0015                            AID      MAUTO_DS,AUTO
          0 00026F  8D04                                 SDI      ,B4
          0 000270  0F81 0044                            B        s:1572,PREL

      176     1558    3                  ELSE
      177     1559    3                       PTR$ = PINCRW(ULAUTO_DS$,ADDRESS);

   1559   0 000272  ECC7 0006                            LDB,B6   @ADDRESS,AUTO
          0 000274  8C86                                 LDI      ,B6
          0 000275  8447 0013                            AID      ULAUTO_DS,AUTO
          0 000277  8D04                                 SDI      ,B4

      178     1560                                                /* not everyone uses lauto, tho */
      179     1561    3               END /* CASE */;

   1561   0 000278  0F81 003C                            B        s:1572,PREL
PL6.E3A0      #001=GDK$MPTR File=GDK$MPTR.:E05TSI                                TUE 07/29/97 21:25 Page:29

      180     1562    2          CASE(10) /* $Bn */;

      181     1563    3             DO CASE(DESC#);

   1563   0 00027A  9CC7 000A                            LDB,B1   @DESC#,AUTO
          0 00027C  B801                                 LDR,R3   ,B1
          0 00027D  3D08                                 CMV,R3   8
          0 00027E  0281 0036                            BGE      s:1572,PREL
          0 000280  A830 0000 0286  00                   LDR,R2   s:1563+12,R3
          0 000283  83A0 0000 028E  00                   JMP      s:1565,R2
          0 000286       0027                            DC       s:1572,PREL
          0 000287       0000                            DC       s:1565,PREL
          0 000288       0000                            DC       s:1565,PREL
          0 000289       001B                            DC       s:1568,PREL
          0 00028A       0000                            DC       s:1565,PREL
          0 00028B       0000                            DC       s:1565,PREL
          0 00028C       0000                            DC       s:1565,PREL
          0 00028D       0000                            DC       s:1565,PREL

      182     1564    3               CASE(1,2,4,5,6,7);

      183     1565    3                  PTR$ = PINCRW(ADDR(G$TSA.ISA.REGS.B7$),2*(7-DESC#));

   1565   0 00028E  EC80 0000 0000  xsym                 LDB,B6   GD$DELTA_DATA$
          0 000291  DCC6 0006                            LDB,B5   6,B6
          0 000293  DFC7 0018                            STB,B5   MAUTO_DS+3,AUTO
          0 000295  F853                                 LDR,R7   R3
          0 000296  6C00                                 LDV,R6   0
          0 000297  7081                                 DOL,R7   1
          0 000298  8656                                 CPL      R6
          0 000299  8657                                 CPL      R7
          0 00029A  8470 0000 0001                       AID      1,IMO
          0 00029D  8447 0018                            AID      MAUTO_DS+3,AUTO
          0 00029F  8470 0000 0026                       AID      38,IMO
          0 0002A2  8D04                                 SDI      ,B4

PL6.E3A0      #001=GDK$MPTR File=GDK$MPTR.:E05TSI                                TUE 07/29/97 21:25 Page:30
      184     1566    3                  DSIZE = 2;

   1566   0 0002A3  ECC7 0010                            LDB,B6   @DSIZE,AUTO
          0 0002A5  5C02                                 LDV,R5   2
          0 0002A6  DF06                                 STR,R5   ,B6
          0 0002A7  0F81 000D                            B        s:1572,PREL

      185     1567    3               CASE(3);

      186     1568    3                  PTR$ = ADDR(G$TSA.B3$);

   1568   0 0002A9  EC80 0000 0000  xsym                 LDB,B6   GD$DELTA_DATA$
          0 0002AC  DCC6 0006                            LDB,B5   6,B6
          0 0002AE  EBC5 000A                            LAB,B6   10,B5
          0 0002B0  EF84                                 STB,B6   ,B4

      187     1569    3                  DSIZE = 2;

   1569   0 0002B1  DCC7 0010                            LDB,B5   @DSIZE,AUTO
          0 0002B3  5C02                                 LDV,R5   2
          0 0002B4  DF05                                 STR,R5   ,B5

      188     1570    3               END /* CASE */;

      189     1571    2          END /* CASE */;

      190     1572    1        RETURN;

   1572   0 0002B5  C380 0000 0000  xent                 LNJ,B4   X6A_ARET

   1565   0                              UNSUPPORTED     null
      191     1573
      192     1574    1   UNSUPPORTED: ;
      193     1575    1        GD_DATA.GD.ERROR = %GD#RSPUNSUPRT;

   1575   0 0002B8  EC80 0000 0000  xsym UNSUPPORTED     LDB,B6   GD$DELTA_DATA$
          0 0002BB  6C38                                 LDV,R6   56
PL6.E3A0      #001=GDK$MPTR File=GDK$MPTR.:E05TSI                                TUE 07/29/97 21:25 Page:31
          0 0002BC  EF46 0174                            STR,R6   372,B6

      194     1576    1        GOTO WASTE_EM;

   1576   0 0002BE  0F81 0007                            B        s:1579,PREL

   1575   0                              NOT_L6          null
      195     1577
      196     1578    1   NOT_L6: ;
      197     1579    1        GD_DATA.GD.ERROR = %GD#RSPDDNOTL6;

   1579   0 0002C0  9C80 0000 0000  xsym NOT_L6          LDB,B1   GD$DELTA_DATA$
          0 0002C3  5C3A                                 LDV,R5   58
          0 0002C4  DF41 0174                            STR,R5   372,B1

   1579   0                              WASTE_EM        null
      198     1580    1   WASTE_EM: ;
      199     1581    1        UNWIND TO GD_DATA.GD.ERROR_LOC;

   1581   0 0002C6  BC80 0000 0000  xsym WASTE_EM        LDB,B3   GD$DELTA_DATA$
          0 0002C9  BBC3 0175                            LAB,B3   373,B3
          0 0002CB  C380 0000 0000  xent                 LNJ,B4   X6A_AUNWIND
      200     1582
      201     1583    1   END GDK$MPTR;

PL6.E3A0      #001=GDK$MPTR File=GDK$MPTR.:E05TSI                                TUE 07/29/97 21:25 Page:32
--  Include file information  --

   LCP_6.:E05TOU  cannot be made into a system file and is referenced.
   GM_VIRTUAL_E.:E05TOU  is referenced.
   G_ROS_M.:E05TOU  is referenced.
   GD$MSG_M.:E05TOU  is referenced.
   GDA_EQUS_E.:E05TOU  is referenced.
   GD_EQUS_E.:E05TOU  is referenced.
   GD_DATA_M.:E05TOU  is referenced.
   GD_STATIC_DATA.:E05TOU  cannot be made into a system file and is referenced.
   G_LCP6_E.:E05TOU  was found in the system file and is referenced.
   GT_LCP6_M.:E05TOU  was found in the system file and is referenced.
   KI_CP6.:E05TOU  was found in the system file and is referenced.
   GF_LCP6_M.:E05TOU  was found in the system file and is referenced.
   GM_LCP6_M.:E05TOU  was found in the system file and is referenced.
   GU_LCP6_M.:E05TOU  was found in the system file and is referenced.
   GJ_LCP6_M.:E05TOU  was found in the system file and is referenced.
   GH_LCP6_M.:E05TOU  was found in the system file and is referenced.
      No diagnostics issued in procedure GDK$MPTR.
PL6.E3A0      #001=GDK$MPTR File=GDK$MPTR.:E05TSI                                TUE 07/29/97 21:25 Page:33

 **** Variables and constants ****

  ****  Auto variables  ****

  ****  Scalars and arrays  ****
HexLoc.c.b A Datatyp(siz) R M Lvl/name                 HexLoc.c.b A Datatyp(siz) R M Lvl/name

     6-0-0/w PTR         r     1 @ADDRESS                   A-0-0/w PTR         r     1 @DESC#
    10-0-0/w PTR         r     1 @DSIZE                     E-0-0/w PTR         r     1 @IS_PTR
     C-0-0/w PTR         r     1 @NOT_IS                    4-0-0/w PTR         r     1 @PTR$
     8-0-0/w PTR         r     1 @SEG                      *0-0-0/w UBIN(32)    r     1 ADDRESS
    *0-0-0/w UBIN(16)    r     1 DESC#                     *0-0-0/w UBIN(16)    r     1 DSIZE
    *0-0-0/w BIT         r     1 IS_PTR                    15-0-0/w UBIN(32)    r     1 MAUTO_DS
    15-0-0/w PTR         r     1 MAUTO_DS$                 *0-0-0/w BIT         r     1 NOT_IS
    *0-0-0/w PTR         r     1 PTR$                      *0-0-0/w UBIN(16)    r     1 SEG
    13-0-0/w UBIN(32)    r     1 ULAUTO_DS                 13-0-0/w PTR         r     1 ULAUTO_DS$

  ****  SYMREF variables  ****

  ****  Scalars and arrays  ****
HexLoc.c.b A Datatyp(siz) R M Lvl/name                 HexLoc.c.b A Datatyp(siz) R M Lvl/name

     0-0-0/w PTR         r     1 G$ISR1$                    0-0-0/w PTR         r     1 G$ISR2$
     0-0-0/w PTR         r     1 G$ISR3$                    0-0-0/w PTR         r     1 G$ISR4$
     0-0-0/w PTR         r     1 G$ISR5$                    0-0-0/w PTR         r     1 G$ISR6$
     0-0-0/w PTR         r     1 G$ISR7$                    0-0-0/w PTR         r     1 G$JIT$
     0-0-0/w PTR         r     1 G$ROS$                     0-0-0/w PTR         r     1 G$USRDS1$
     0-0-0/w PTR         r     1 G$USRDS2$                  0-0-0/w PTR         r     1 G$USRDS3$
     0-0-0/w PTR         r     1 G$USRDS4$                  0-0-0/w PTR         r     1 GD$DELTA_DATA$

  ****  BASED and DCB variables  ****

  ****  Scalars and arrays  ****
HexLoc.c.b A Datatyp(siz) R M Lvl/name                 HexLoc.c.b A Datatyp(siz) R M Lvl/name

     0-0-0/c PTR         r     1 B$PTR                      0-0-0/w STRC(928)   r     1 G$ROS
     0-0-0/w STRC(928)   r     1 G$TSA                      0-0-0/w STRC(16704) r     1 GD_DATA
PL6.E3A0      #001=GDK$MPTR File=GDK$MPTR.:E05TSI                                TUE 07/29/97 21:25 Page:34


   Procedure GDK$MPTR requires 718 words for executable code.
   Procedure GDK$MPTR requires 26 words of local(AUTO) storage.

    No errors detected in file GDK$MPTR.:E05TSI    .
PL6.E3A0      #001=GDK$MPTR File=GDK$MPTR.:E05TSI                                TUE 07/29/97 21:25 Page:35
          *** CROSS REFERENCE LISTING ***
**     DENOTES     IDENTIFIER DEFINITION
<<                 IDENTIFIER'S VALUE SET
>>                 IDENTIFIER'S VALUE USED
<>                 IDENTIFIER SET AND/OR USED
--                 IDENTIFIER REFERENCED
PL6.E3A0      #001=GDK$MPTR File=GDK$MPTR.:E05TSI                                TUE 07/29/97 21:25 Page:36
          MINI XREF LISTING

ADDRESS
       500**DCL        23--PROC     1449>>ASSIGN   1451>>ASSIGN   1459>>ASSIGN   1461>>ASSIGN   1468>>ASSIGN
      1470>>ASSIGN   1472>>ASSIGN   1474>>ASSIGN   1479>>ASSIGN   1481>>ASSIGN   1483>>ASSIGN   1485>>ASSIGN
      1487>>ASSIGN   1489>>ASSIGN   1491>>ASSIGN   1498>>ASSIGN   1508>>ASSIGN   1513>>DOCASE   1515>>ASSIGN
      1521>>ASSIGN   1522>>ASSIGN   1548>>ASSIGN   1550>>ASSIGN   1552>>ASSIGN   1557>>ASSIGN   1559>>ASSIGN
B$PTR
      1424**DCL      1459>>ASSIGN
DESC#
       502**DCL        23--PROC     1451--ASSIGN   1456>>DOCASE   1458>>ASSIGN   1466>>DOCASE   1477>>DOCASE
      1507>>IF       1511>>DOCASE   1563>>DOCASE   1565>>ASSIGN
DSIZE
       505**DCL        23--PROC     1444<<ASSIGN   1516<<ASSIGN   1519<<ASSIGN   1522<<ASSIGN   1525<<ASSIGN
      1528<<ASSIGN   1531<<ASSIGN   1536<<ASSIGN   1539<<ASSIGN   1542<<ASSIGN   1545<<ASSIGN   1566<<ASSIGN
      1569<<ASSIGN
G$ISR1$
      1427**DCL      1479>>ASSIGN
G$ISR2$
      1428**DCL      1481>>ASSIGN
G$ISR3$
      1429**DCL      1483>>ASSIGN
G$ISR4$
      1430**DCL      1485>>ASSIGN
G$ISR5$
      1431**DCL      1487>>ASSIGN
G$ISR6$
      1432**DCL      1489>>ASSIGN
G$ISR7$
      1433**DCL      1491>>ASSIGN
G$JIT$
       506**DCL      1508>>ASSIGN
G$ROS.AUTO_DS$
       612**DCL       613--REDEF    1554>>ASSIGN
PL6.E3A0      #001=GDK$MPTR File=GDK$MPTR.:E05TSI                                TUE 07/29/97 21:25 Page:37
G$ROS.AUTO_T$
       613**DCL       613--REDEF
G$ROS$
      1426**DCL       603--IMP-PTR  1548>>ASSIGN   1554>>ASSIGN
G$TSA.A$
      1094**DCL      1530--ASSIGN
G$TSA.B3$
      1095**DCL      1461>>ASSIGN   1568--ASSIGN
G$TSA.I
      1084**DCL      1544--ASSIGN
G$TSA.ISA.ASV$
      1150**DCL      1538--ASSIGN
G$TSA.ISA.P$$
      1223**DCL      1223--REDEF
G$TSA.ISA.REGS.B7$
      1268**DCL      1458--ASSIGN   1565--ASSIGN
G$TSA.ISA.REGS.CI
      1405**DCL      1541--ASSIGN
G$TSA.ISA.REGS.M1
      1315**DCL      1521--ASSIGN
G$TSA.ISA.REGS.R7
      1294**DCL      1515--ASSIGN
G$TSA.ISA.REGS.RDBR$
      1412**DCL      1550>>ASSIGN
G$TSA.ISA.REGS.T$
      1388**DCL      1524--ASSIGN
G$TSA.P$$
      1094**DCL      1094--REDEF    1095--REDEF
G$TSA.R3
      1091**DCL      1518--ASSIGN
G$TSA.S
      1114**DCL      1527--ASSIGN
G$TSA.Z
      1092**DCL      1535--ASSIGN
G$USRDS1$
      1434**DCL      1468>>ASSIGN
PL6.E3A0      #001=GDK$MPTR File=GDK$MPTR.:E05TSI                                TUE 07/29/97 21:25 Page:38
G$USRDS2$
      1435**DCL      1470>>ASSIGN
G$USRDS3$
      1436**DCL      1472>>ASSIGN
G$USRDS4$
      1437**DCL      1474>>ASSIGN
GD$DELTA_DATA$
       450**DCL       464--IMP-PTR  1458>>ASSIGN   1461>>ASSIGN   1515>>ASSIGN   1518>>ASSIGN   1521>>ASSIGN
      1524>>ASSIGN   1527>>ASSIGN   1530>>ASSIGN   1535>>ASSIGN   1538>>ASSIGN   1541>>ASSIGN   1544>>ASSIGN
      1550>>ASSIGN   1552>>ASSIGN   1556>>IF       1565>>ASSIGN   1568>>ASSIGN   1575>>ASSIGN   1579>>ASSIGN
      1581>>UNWIND
GD_DATA.DELTAINFO.TSA$
       464**DCL      1458>>ASSIGN   1461>>ASSIGN   1515>>ASSIGN   1518>>ASSIGN   1521>>ASSIGN   1524>>ASSIGN
      1527>>ASSIGN   1530>>ASSIGN   1535>>ASSIGN   1538>>ASSIGN   1541>>ASSIGN   1544>>ASSIGN   1550>>ASSIGN
      1552>>ASSIGN   1565>>ASSIGN   1568>>ASSIGN
GD_DATA.GD.DYNSP$
       477**DCL       477--REDEF
GD_DATA.GD.ERROR
       485**DCL      1575<<ASSIGN   1579<<ASSIGN
GD_DATA.GD.ERROR_LOC
       485**DCL      1581>>UNWIND
GD_DATA.GD.STEP_BRKPNT.ADR$
       478**DCL       479--REDEF
GD_DATA.GD.STEP_BRKPNT.START$
       479**DCL       479--REDEF
GD_DATA.GD.USERNO
       484**DCL      1556>>IF
GOT_SPEC_SYM
      1505**LABEL    1453--GOTO     1464--GOTO
IS_PTR
       504**DCL        23--PROC     1455>>IF
MAUTO_DS
      1441**DCL      1442--REDEF    1555<<ASSIGN
MAUTO_DS$
      1442**DCL      1557>>ASSIGN
NOT_IS
PL6.E3A0      #001=GDK$MPTR File=GDK$MPTR.:E05TSI                                TUE 07/29/97 21:25 Page:39
       503**DCL        23--PROC     1446>>IF
NOT_L6
      1575**LABEL    1494--GOTO     1509--GOTO
PTR$
       498**DCL        23--PROC      499--REDEF    1445<<ASSIGN   1449<<ASSIGN   1449>>ASSIGN   1451<<ASSIGN
      1458<<ASSIGN   1459<<ASSIGN   1459>>ASSIGN   1461<<ASSIGN   1468<<ASSIGN   1470<<ASSIGN   1472<<ASSIGN
      1474<<ASSIGN   1479<<ASSIGN   1481<<ASSIGN   1483<<ASSIGN   1485<<ASSIGN   1487<<ASSIGN   1489<<ASSIGN
      1491<<ASSIGN   1498<<ASSIGN   1498>>ASSIGN   1508<<ASSIGN   1515<<ASSIGN   1518<<ASSIGN   1521<<ASSIGN
      1524<<ASSIGN   1527<<ASSIGN   1530<<ASSIGN   1535<<ASSIGN   1538<<ASSIGN   1541<<ASSIGN   1544<<ASSIGN
      1548<<ASSIGN   1550<<ASSIGN   1552<<ASSIGN   1557<<ASSIGN   1559<<ASSIGN   1565<<ASSIGN   1568<<ASSIGN
SEG
       501**DCL        23--PROC     1447>>DOCASE   1505>>DOCASE
ULAUTO_DS
      1439**DCL      1440--REDEF
ULAUTO_DS$
      1440**DCL      1554<<ASSIGN   1559>>ASSIGN
UNSUPPORTED
      1565**LABEL    1533--GOTO
WASTE_EM
      1579**LABEL    1576--GOTO
