VERSION E05

PL6.E3A0      #001=GDK$RESADDR File=GDK$RESADDR.:E05TSI                          TUE 07/29/97 21:26 Page:1
        1        1        /*T***********************************************************/
        2        2        /*T*                                                         */
        3        3        /*T* Copyright (c) Bull HN Information Systems Inc., 1997    */
        4        4        /*T*                                                         */
        5        5        /*T***********************************************************/
        6        6        GDK$RESADDR: PROC(ARRAY_FIRST,ARRAY_CUR,ARRAY_HIGH,
        7        7                          SEG,DESC#,LPTR,BITSIZE,BITOFF,NOT_IS,IS_PTR) ALTRET;
        8        8        /**/
        9        9        /* INCLUDEs */
       10       10        /**/
       11       11        %INCLUDE LCP_6;
       12      202        %G$TSA;
       13      590        %INCLUDE DD$DITEM;
       12+     693             %LIST;
       13+     694    1        DCL SDD$ PTR;
       14+     695    1        DCL ZITEM$ PTR;
       15+     696    1        DCL SDD_L6$ PTR;
       16+     697    1        DCL ZITEM_L6$ PTR;
       14     1271        %INCLUDE G_JIT_M;
       15     1536        %INCLUDE GD_STATIC_DATA;
       16     2009        %INCLUDE GH_HARDWARE_M;
       17     2107        %GH_VLD(STCLASS=BASED);
       18     2121        %INCLUDE GM_VIRTUAL_E;
       19     2331        %INCLUDE DD_ERR_C;
       20     2728        %INCLUDE B$OBJECT_C;
       21     6158        %VREBL_DATATYPES;
       22     6233        %GD$MSG(STCLASS="BASED(MSG$)");
       23     6389        /**/
       24     6390        /* EQUs */
       25     6391        /**/
       26     6392        %EQU TRUE = '1'B;
       27     6393        %EQU FALSE = '0'B;
       28     6394        %EQU PTR_MBZ_MASK = '7FF00000'X;
       29     6395        /**/
       30     6396        /* Parameters */
       31     6397        /**/
       32     6398    1   DCL ARRAY_FIRST BIT(1) ALIGNED;
PL6.E3A0      #001=GDK$RESADDR File=GDK$RESADDR.:E05TSI                          TUE 07/29/97 21:26 Page:2
       33     6399    1   DCL ARRAY_CUR UBIN;
       34     6400    1   DCL ARRAY_HIGH UBIN;
       35     6401    1   DCL SEG UBIN;
       36     6402    1   DCL DESC# UBIN;
       37     6403    1   DCL LPTR UBIN(32);
       38     6404    1   DCL 1 LPTR_S REDEF LPTR,
       39     6405    1         2 C UBIN(1) UNAL,
       40     6406    1         2 B UBIN(3) UNAL,
       41     6407    1         2 * BIT(8) UNAL,
       42     6408    1         2 W UBIN(20) UNAL;
       43     6409    1   DCL LPTR$ REDEF LPTR PTR;
       44     6410    1   DCL BITSIZE UBIN;
       45     6411    1   DCL BITOFF UBIN;
       46     6412    1   DCL TITEM$ PTR;
       47     6413    1   DCL NOT_IS BIT(1) ALIGNED;
       48     6414    1   DCL IS_PTR BIT(1) ALIGNED;
       49     6415        /**/
       50     6416        /* Global Variables */
       51     6417        /**/
       52     6418    1   DCL DITEM$ PTR;
       53     6419    1   DCL MITEM$ PTR;
       54     6420    1   DCL VAL SBIN(32);
       55     6421    1   DCL VAL_ REDEF VAL BIT(32);
       56     6422    1   DCL PLVL UBIN;
       57     6423    1   DCL ILVL UBIN;
       58     6424    1   DCL PTR$ CPTR;
       59     6425    1   DCL ARRAY_FLAG BIT(1) ALIGNED;
       60     6426    1   DCL ADDR_TYPE UBIN;
       61     6427    1   DCL TYPE_CODE UBIN;
       62     6428    1   DCL FIRST_PTR BIT(1) ALIGNED;
       63     6429    1   DCL DATA_TYPE UBIN;
       64     6430    1   DCL EXPVAL UBIN(32);
       65     6431    1   DCL EXPR_OP UBIN;
       66     6432    1   DCL INDX UBIN(32);
       67     6433    1   DCL I UBIN;
       68     6434    1   DCL B7$ PTR;
       69     6435    1   DCL B7 REDEF B7$ UBIN(32);
PL6.E3A0      #001=GDK$RESADDR File=GDK$RESADDR.:E05TSI                          TUE 07/29/97 21:26 Page:3
       70     6436    1   DCL INVAL BIT(32);
       71     6437    1   DCL 1 IDX(0:9) ALIGNED,
       72     6438    1         2 CURMULT UBIN,
       73     6439    1         2 ELMNTSIZ UBIN,
       74     6440    1         2 LASTIDX BIT(1) ALIGNED;
       75     6441    1   DCL PNTR(0:9) UBIN(32);
       76     6442    1   DCL 1 PNTR_S(0:9) REDEF PNTR,
       77     6443    1         2 C UBIN(1) UNAL,
       78     6444    1         2 B UBIN(3) UNAL,
       79     6445    1         2 * BIT(8) UNAL,
       80     6446    1         2 W UBIN(20) UNAL;
       81     6447    1   DCL PNTR$(0:9) REDEF PNTR PTR;
       82     6448        %DITEM_L6(NAME=DITEM,STCLASS=BASED);
       83     6491        %ZITEM_L6(NAME=ZITEM,STCLASS=BASED);
       84     6533        %MITEM_L6(NAME=MITEM,STCLASS=BASED);
       85     6571    1   DCL MSG$ PTR;
       86     6572        /**/
       87     6573        /* External Entries */
       88     6574        /**/
       89     6575    1   DCL GDU$SETUP_WINDOW ENTRY(1) ALTRET;
       90     6576    1   DCL GDK$PUDECBIN ENTRY(4);
       91     6577    1   DCL GDK$PTDECBIN ENTRY(4);
       92     6578    1   DCL GDK$UUDECBIN ENTRY(4);
       93     6579    1   DCL GDK$UTDECBIN ENTRY(4);
       94     6580    1   DCL GDK$ULDECBIN ENTRY(4);
       95     6581    1   DCL GDK$UODECBIN ENTRY(4);
       96     6582        %EJECT;
PL6.E3A0      #001=GDK$RESADDR File=GDK$RESADDR.:E05TSI                          TUE 07/29/97 21:26 Page:4
       97     6583        /**/
       98     6584        /* Code */
       99     6585        /**/
      100     6586    1          MSG$ = ADDR(GD_DATA.GDA.RCV);
      101     6587    1           ZITEM$ = GD_DATA.MISC.DESC$;
      102     6588    1           SEG = 3;                      /* Unless ...            */
      103     6589    1           DESC# = 0;                    /*  ... Something ...    */
      104     6590    1           NOT_IS = '0'B;                /*        ... Happens    */
      105     6591    1           IS_PTR = '0'B;
      106     6592    1           EXPR_OP = %NOMOD_OPCODE;
      107     6593    1           IF ZITEM$->ZITEM.ADDR_TYPE = %SPEC_ACODE OR
      108     6594    1              ZITEM$->ZITEM.ADDR_TYPE = %DESC_ACODE THEN
      109     6595    1              GOTO PROCESS_ZITEM;
      110     6596    1           DITEM$ = PINCRW(ZITEM$,SIZEW(ZITEM));
      111     6597        /* Set TYPE_CODE to a value that will allow entry into the loop */
      112     6598    1           TYPE_CODE = %SIZE_ICODE + 1;
      113     6599    1           VAL = 0;
      114     6600    1           PLVL = 0;
      115     6601    1           ILVL = 0;
      116     6602    1           FIRST_PTR = %TRUE;
      117     6603    2           DO WHILE TYPE_CODE ~= %SIZE_ICODE;
      118     6604    2              ARRAY_FLAG = DITEM$->DITEM.FLAGS.AFLAG;
      119     6605    2              TYPE_CODE = DITEM$->DITEM.TYPE_CODE;
      120     6606    2              ADDR_TYPE = DITEM$->DITEM.ADDR_TYPE;
      121     6607    2              DATA_TYPE = DITEM$->DITEM.DATA_TYPE;
      122     6608    2              INVAL = DITEM$->DITEM.ADDRESS;
      123     6609    2              BITSIZE = DITEM$->DITEM.SIZE;
      124     6610    2              VAL = 0;
      125     6611        %EJECT;
PL6.E3A0      #001=GDK$RESADDR File=GDK$RESADDR.:E05TSI                          TUE 07/29/97 21:26 Page:5
      126     6612    3              DO CASE(TYPE_CODE);
      127     6613    3                 CASE(%PTR_ICODE);
      128     6614    3                    BITSIZE = 32;
      129     6615    4                    IF ~FIRST_PTR THEN DO;
      130     6616    4                       SEG = 3;
      131     6617    4                       DESC# = 0;
      132     6618    4                       END;
      133     6619    3                    CALL GETVAL(VAL,ADDR_TYPE,ARRAY_FLAG,
      134     6620    3                                DATA_TYPE,INVAL,BITSIZE) ALTRET(BADVAL);
      135     6621    4                    IF (VAL_ & %PTR_MBZ_MASK) THEN DO;
      136     6622    4                       GD_DATA.GD.ERROR = %GD#RSPBADPTR;
      137     6623    4                       ALTRETURN;
      138     6624    4                       END;
      139     6625    3                    PNTR(PLVL) = VAL;
      140     6626    3                    PLVL = PLVL + 1;
      141     6627    3                    DITEM$ = PINCRW(DITEM$,SIZEW(DITEM));
      142     6628        %EJECT;
PL6.E3A0      #001=GDK$RESADDR File=GDK$RESADDR.:E05TSI                          TUE 07/29/97 21:26 Page:6
      143     6629    3                 CASE(%SIDX_ICODE);
      144     6630    3                    CALL GETVAL(VAL,ADDR_TYPE,ARRAY_FLAG,
      145     6631    3                                DATA_TYPE,INVAL,BITSIZE) ALTRET(BADVAL);
      146     6632    3                    MITEM$ = PINCRW(DITEM$,SIZEW(DITEM));
      147     6633    3                    IDX.CURMULT(ILVL) = VAL - MITEM$->MITEM.OFS;
      148     6634    3                    IDX.ELMNTSIZ(ILVL) = MITEM$->MITEM.ELMNTSIZ;
      149     6635    3                    IDX.LASTIDX(ILVL) = DITEM$->DITEM.FLAGS.LFLAG;
      150     6636    3                    DITEM$ = PINCRW(MITEM$,SIZEW(MITEM));
      151     6637    3                    ILVL = ILVL + 1;
      152     6638        %EJECT;
PL6.E3A0      #001=GDK$RESADDR File=GDK$RESADDR.:E05TSI                          TUE 07/29/97 21:26 Page:7
      153     6639    3                 CASE(%LIDX_ICODE);
      154     6640    3                    MITEM$ = PINCRW(DITEM$,SIZEW(DITEM));
      155     6641    4                    IF ARRAY_FIRST THEN DO;
      156     6642    4                       CALL GETVAL(VAL,ADDR_TYPE,ARRAY_FLAG,
      157     6643    4                                   DATA_TYPE,INVAL,BITSIZE) ALTRET(BADVAL);
      158     6644    4                       IDX.CURMULT(ILVL) = VAL - MITEM$->MITEM.OFS;
      159     6645    4                       IDX.ELMNTSIZ(ILVL) = MITEM$->MITEM.ELMNTSIZ;
      160     6646    4                       IDX.LASTIDX(ILVL) = DITEM$->DITEM.FLAGS.LFLAG;
      161     6647    4                       ILVL = ILVL + 1;
      162     6648    4                       ARRAY_CUR = VAL;
      163     6649    4                       END;
      164     6650    4                    ELSE DO;
      165     6651    4                       IDX.CURMULT(ILVL) = ARRAY_CUR - MITEM$->MITEM.OFS;
      166     6652    4                       IDX.ELMNTSIZ(ILVL) = MITEM$->MITEM.ELMNTSIZ;
      167     6653    4                       IDX.LASTIDX(ILVL) = DITEM$->DITEM.FLAGS.LFLAG;
      168     6654    4                       ILVL = ILVL + 1;
      169     6655    4                       END;
      170     6656    3                    DITEM$ = PINCRW(MITEM$,SIZEW(MITEM));
      171     6657        %EJECT;
PL6.E3A0      #001=GDK$RESADDR File=GDK$RESADDR.:E05TSI                          TUE 07/29/97 21:26 Page:8
      172     6658    3                 CASE(%UIDX_ICODE);
      173     6659    4                    IF ARRAY_FIRST THEN DO;
      174     6660    4                       CALL GETVAL(VAL,ADDR_TYPE,ARRAY_FLAG,
      175     6661    4                                   DATA_TYPE,INVAL,BITSIZE) ALTRET(BADVAL);
      176     6662    4                       ARRAY_HIGH = VAL;
      177     6663    4                       END;
      178     6664    3                    DITEM$ = PINCRW(DITEM$,SIZEW(DITEM));
      179     6665        %EJECT;
PL6.E3A0      #001=GDK$RESADDR File=GDK$RESADDR.:E05TSI                          TUE 07/29/97 21:26 Page:9
      180     6666    3                 CASE(%EXP_ICODE);
      181     6667    3                    CALL GETVAL(EXPVAL,ADDR_TYPE,ARRAY_FLAG,
      182     6668    3                                DATA_TYPE,INVAL,BITSIZE) ALTRET(BADVAL);
      183     6669    3                    EXPR_OP = DITEM$->DITEM.OPER.EXPR;
      184     6670    3                    DITEM$ = PINCRW(DITEM$,SIZEW(DITEM));
      185     6671        %EJECT;
PL6.E3A0      #001=GDK$RESADDR File=GDK$RESADDR.:E05TSI                          TUE 07/29/97 21:26 Page:10
      186     6672    3                 CASE(%SIZE_ICODE);
      187     6673    4                    IF ADDR_TYPE = %PARM_ACODE THEN DO;
      188     6674    4                       TITEM$ = PINCRW(DITEM$,SIZEW(DITEM));
      189     6675    4                       ARRAY_FLAG = TITEM$->DITEM.FLAGS.AFLAG;
      190     6676    4                       ADDR_TYPE = TITEM$->DITEM.ADDR_TYPE;
      191     6677    4                       DATA_TYPE = TITEM$->DITEM.DATA_TYPE;
      192     6678    4                       INVAL = TITEM$->DITEM.ADDRESS;
      193     6679    4                       BITSIZE = DITEM$->DITEM.SIZE;
              6679                                /* Size of size param is in SIZE_ICODE DITEM */
      194     6680    4                       CALL GETVAL(VAL,ADDR_TYPE,ARRAY_FLAG,DATA_TYPE,INVAL,BITSIZE)
              6680                                ALTRET(BADVAL);
      195     6681    4                       CALL GETVAL(VAL,%STATIC_ACODE,ARRAY_FLAG,DATA_TYPE,VAL,BITSIZE)
              6681                                ALTRET(BADVAL);
      196     6682    4                       END;
      197     6683    3                    ELSE
      198     6684    3                       CALL GETVAL(VAL,ADDR_TYPE,ARRAY_FLAG,
      199     6685    3                                DATA_TYPE,INVAL,BITSIZE) ALTRET(BADVAL);
      200     6686    3                    IF ADDR_TYPE = %CONST_ACODE THEN
      201     6687    3                       BITSIZE = VAL;
      202     6688    3                    ELSE BITSIZE = VAL * DITEM$->DITEM.SMULT;
      203     6689    3                 END /* CASE(TYPE_CODE) */;
      204     6690    2                 FIRST_PTR = %FALSE;
      205     6691    2              END /* WHILE */;
      206     6692        %EJECT;
PL6.E3A0      #001=GDK$RESADDR File=GDK$RESADDR.:E05TSI                          TUE 07/29/97 21:26 Page:11
      207     6693        /* Process ZITEM */
      208     6694    1   PROCESS_ZITEM:
      209     6695    1           LPTR = 0;
      210     6696    1           ADDR_TYPE = ZITEM$->ZITEM.ADDR_TYPE;
      211     6697    2           IF PLVL = 1 THEN DO;
      212     6698    3              IF SEG ~= 3 THEN DO;
      213     6699    3                 LPTR = ZITEM$->ZITEM.ADDRESS.W;
      214     6700    3                 BITOFF = ZITEM$->ZITEM.ADDRESS.C * 8 + ZITEM$->ZITEM.ADDRESS.B;
      215     6701    3                 GOTO RET_NOT_IS;
      216     6702    3                 END;
      217     6703    2              LPTR = PNTR_S.W(0);
      218     6704    2              BITOFF = PNTR_S.C(0) * 8;
      219     6705    2              END;
      220     6706    2           DO CASE(ADDR_TYPE);
      221     6707    2              CASE(%DESC_ACODE);
      222     6708    3                 DO CASE(ZITEM$->ZITEM.VD.TYPE);
      223     6709    3                    CASE(9) /* $Bn */;
      224     6710    3                       SEG = 10;
      225     6711    3                       BITSIZE = 32;
      226     6712    3                       DESC# = ZITEM$->ZITEM.VD.DISP;
      227     6713    3                    CASE(ELSE);
      228     6714    3                       GD_DATA.GD.ERROR = %GD#RSPDDNOTL6;
      229     6715    3                       ALTRETURN;
      230     6716    3                    END /* CASE */;
      231     6717    2              CASE(%SPEC_ACODE);
      232     6718    2                 SEG = 9;
      233     6719    3                 DO CASE(ZITEM$->ZITEM.VS.ID);
      234     6720    3                    CASE(%CI_RTN);
      235     6721    3                       LPTR = 20;
      236     6722    3                       BITSIZE = 8;
      237     6723    3                    CASE(%T_RTN);
      238     6724    3                       LPTR = 14;
      239     6725    3                       BITSIZE = 32;
      240     6726    3                    CASE(%S_RTN);
      241     6727    3                       LPTR = 15;
      242     6728    3                       BITSIZE = 16;
      243     6729    3                    CASE(%A_RTN);
PL6.E3A0      #001=GDK$RESADDR File=GDK$RESADDR.:E05TSI                          TUE 07/29/97 21:26 Page:12
      244     6730    3                       LPTR = 16;
      245     6731    3                       BITSIZE = 32;
      246     6732    3                    CASE(%IND_RTN);
      247     6733    3                       LPTR = 21;
      248     6734    3                       BITSIZE = 16;
      249     6735    3                    CASE(%IV_RTN);
      250     6736    3                       LPTR = 17;
      251     6737    3                       BITSIZE = 32;
      252     6738    3                    CASE(%Z_RTN);
      253     6739    3                       LPTR = 18;
      254     6740    3                       BITSIZE = 16;
      255     6741    3                    CASE(%ASV_RTN);
      256     6742    3                       LPTR = 19;
      257     6743    3                       BITSIZE = 32;
      258     6744    3                    CASE(%R_RTN);
      259     6745    3                       LPTR = ZITEM$->ZITEM.VS.SZ - 1;
      260     6746    3                       BITSIZE = 16;
      261     6747    3                    CASE(%M_RTN);
      262     6748    3                       LPTR = 6 + ZITEM$->ZITEM.VS.SZ;
      263     6749    3                       BITSIZE = 16;
      264     6750    3                    CASE( ELSE );
      265     6751    3                       GD_DATA.GD.ERROR = %GD#RSPDDNOTL6;
      266     6752    3                       ALTRETURN;
      267     6753    3                    END;                       /* DO CASE(ZITEM$->ZITEM.VS.ID) */
      268     6754    2              CASE(%BIGBASED_ACODE,%BIGSTATIC_ACODE);
      269     6755    2                 LPTR = LPTR + ZITEM$->ZITEM.VALUE.V;
      270     6756    2                 BITOFF = 0;
      271     6757    2                 GOTO BASED_STATIC;
      272     6758    2              CASE(%BASED_ACODE,%STATIC_ACODE,%AUTO_ACODE,%PARM_ACODE,%DCB_ACODE);
      273     6759    2                 LPTR = LPTR + ZITEM$->ZITEM.ADDRESS.W;
      274     6760    2                 BITOFF = BITOFF + ZITEM$->ZITEM.ADDRESS.C * 8 + ZITEM$->ZITEM.ADDRESS.
              6760                          B;
      275     6761    3                 IF ILVL ~= 0 THEN DO;
      276     6762    3                    INDX = 0;
      277     6763    4                    DO I = 0 TO ILVL - 1;
      278     6764    4                       INDX = INDX + (IDX.CURMULT(I) * IDX.ELMNTSIZ(I));
      279     6765    4                       END;
PL6.E3A0      #001=GDK$RESADDR File=GDK$RESADDR.:E05TSI                          TUE 07/29/97 21:26 Page:13
      280     6766    3                    LPTR = LPTR + INDX / 16;
      281     6767    3                    BITOFF = BITOFF + MOD(INDX,16);
      282     6768    4                    IF BITOFF > 15 THEN DO;
      283     6769    4                       LPTR = LPTR + 1;
      284     6770    4                       BITOFF = BITOFF - 16;
      285     6771    4                       END;
      286     6772    3                    END;
      287     6773    2   BASED_STATIC:
      288     6774    3                 IF EXPR_OP ~= %NOMOD_OPCODE THEN DO;
      289     6775    4                    DO CASE(EXPR_OP);
      290     6776    4                       CASE(%PLUS_OPCODE);
      291     6777    4                          LPTR_S.W = LPTR_S.W + EXPVAL;
      292     6778    4                       CASE(%MINUS_OPCODE);
      293     6779    4                          LPTR_S.W = LPTR_S.W - EXPVAL;
      294     6780    4                       CASE(%MULT_OPCODE);
      295     6781    4                          LPTR_S.W = LPTR_S.W * EXPVAL;
      296     6782    4                       CASE(ELSE);
      297     6783    4                          GD_DATA.GD.ERROR = %GD#RSPUNSUPRT;
      298     6784    4                          ALTRETURN;
      299     6785    4                       END /* CASE */;
      300     6786    3                    LPTR_S.B = 0;
      301     6787    3                    LPTR_S.C = 0;
      302     6788    3                    EXPR_OP = %NOMOD_OPCODE;
      303     6789    3                    END;
      304     6790    3                 IF ADDR_TYPE = %AUTO_ACODE THEN DO;
      305     6791    3                    IF GD_DATA.GD.INTERPRETIVE THEN
      306     6792    3                       B7$ = GD_DATA.GD.AUTO$;
      307     6793    3                    ELSE
      308     6794    3                       B7$ = GD_DATA.DELTAINFO.TSA$->G$TSA.ISA.REGS.B7$;
      309     6795    3                    LPTR = LPTR + B7;
      310     6796    3                    END;
      311     6797    2              END /* CASE(ADDR_TYPE) */;
      312     6798        %EJECT;
PL6.E3A0      #001=GDK$RESADDR File=GDK$RESADDR.:E05TSI                          TUE 07/29/97 21:26 Page:14
      313     6799    1   RET_NOT_IS:
      314     6800    1           IF SEG ~= 3 THEN
      315     6801    1              NOT_IS = '1'B;
      316     6802    1           RETURN;
      317     6803    1   BADVAL:
      318     6804    1           ALTRETURN;
      319     6805        /**/
      320     6806        /* END GDK$RESADDR */
      321     6807        /**/
      322     6808        %EJECT;
PL6.E3A0      #001=GDK$RESADDR File=GDK$RESADDR.:E05TSI                          TUE 07/29/97 21:26 Page:15
      323     6809    1   GETVAL: PROC(VAL,ADDR_TYPE,ARRAY_FLAG,
      324     6810    1                DATA_TYPE,INVAL,BITSIZE) ALTRET;
      325     6811        /**/
      326     6812        /* Parameters */
      327     6813        /**/
      328     6814    2   DCL VAL UBIN(32);
      329     6815    2   DCL VAL_A(0:31) REDEF VAL BIT(1) UNAL;
      330     6816    2   DCL ADDR_TYPE UBIN;
      331     6817    2   DCL ARRAY_FLAG BIT(1) ALIGNED;
      332     6818    2   DCL DATA_TYPE UBIN;
      333     6819    2   DCL INVAL SBIN(32);
      334     6820    2   DCL 1 INADDR REDEF INVAL,
      335     6821    2         2 C UBIN(1) UNAL,
      336     6822    2         2 B UBIN(3) UNAL,
      337     6823    2         2 * UBIN(8) UNAL,
      338     6824    2         2 W UBIN(20) UNAL;
      339     6825        %ITEM_SPEC_L6(NAME=SPSYM,STCLASS="REDEF INVAL");
      340     6835        %ITEM_DESCPTR_L6(NAME=DESCPTR,STCLASS="REDEF INVAL");
      341     6846        %ITEM_PARMPTR_L6(NAME=PARMPTR,STCLASS="REDEF INVAL");
      342     6856    2   DCL BITSIZE UBIN;
      343     6857        /**/
      344     6858        /* Local Variables */
      345     6859        /**/
      346     6860    2   DCL P$ PTR;
      347     6861    2   DCL P_UBIN REDEF P$ UBIN(32);
      348     6862    2   DCL LPTR$ PTR;
      349     6863    2   DCL LPTR REDEF LPTR$ UBIN(32);
      350     6864    2   DCL LAST_FLAG BIT(1) ALIGNED;
      351     6865    2   DCL INDX UBIN;
      352     6866        /**/
      353     6867        /* Template Variables */
      354     6868        /**/
      355     6869    2   DCL B$PTR PTR BASED;
      356     6870    2   DCL B$UBIN UBIN BASED;
      357     6871    2   DCL B$SBIN SBIN BASED;
      358     6872    2   DCL B$DBLWD UBIN(32) BASED;
      359     6873    2   DCL 1 B$BITS ALIGNED BASED,
PL6.E3A0      #001=GDK$RESADDR File=GDK$RESADDR.:E05TSI                          TUE 07/29/97 21:26 Page:16
      360     6874    2         2 B(0:0) BIT(1) UNAL;
      361     6875    2   DCL B$CHARS(0:0) CHAR(1) CALIGNED BASED;
      362     6876        %EJECT;
PL6.E3A0      #001=GDK$RESADDR File=GDK$RESADDR.:E05TSI                          TUE 07/29/97 21:26 Page:17
      363     6877        /**/
      364     6878        /* External Variables */
      365     6879        /**/
      366     6880    2   DCL G$ROS$ PTR SYMREF;
      367     6881    2   DCL G$JIT$ PTR SYMREF;
      368     6882    2   DCL G$UHJIT$ PTR SYMREF;
      369     6883    2   DCL G$ISR3$ PTR SYMREF;
      370     6884    2   DCL G$ISR1$ PTR SYMREF;
      371     6885    2   DCL G$ISR2$ PTR SYMREF;
      372     6886    2   DCL G$ISR4$ PTR SYMREF;
      373     6887    2   DCL G$ISR5$ PTR SYMREF;
      374     6888    2   DCL G$ISR6$ PTR SYMREF;
      375     6889    2   DCL G$ISR7$ PTR SYMREF;
      376     6890    2   DCL G$UAUTO_DS$ PTR SYMREF;
      377     6891    2   DCL G$USRDS1$ PTR SYMREF;
      378     6892    2   DCL G$USRDS2$ PTR SYMREF;
      379     6893    2   DCL G$USRDS3$ PTR SYMREF;
      380     6894    2   DCL G$USRDS4$ PTR SYMREF;
      381     6895        /**/
      382     6896        /* Code */
      383     6897        /**/
      384     6898    3           IF (EXPR_OP ~= %NOMOD_OPCODE AND TYPE_CODE ~= %SIZE_ICODE) THEN DO;
      385     6899    4              DO CASE(EXPR_OP);
      386     6900    4                 CASE(%PLUS_OPCODE);
      387     6901    4                    INADDR.W = INADDR.W + EXPVAL;
      388     6902    4                 CASE(%MINUS_OPCODE);
      389     6903    4                    INADDR.W = INADDR.W - EXPVAL;
      390     6904    4                 CASE(%MULT_OPCODE);
      391     6905    4                    INADDR.W = INADDR.W * EXPVAL;
      392     6906    4                 CASE(ELSE);
      393     6907    4                    GD_DATA.GD.ERROR = %GD#RSPUNSUPRT;
      394     6908    4                    ALTRETURN;
      395     6909    4                 END /* CASE */;
      396     6910    3              INADDR.B = 0;
      397     6911    3              INADDR.C = 0;
      398     6912    3              BITSIZE = 16;
      399     6913    3              EXPR_OP = %NOMOD_OPCODE;
PL6.E3A0      #001=GDK$RESADDR File=GDK$RESADDR.:E05TSI                          TUE 07/29/97 21:26 Page:18
      400     6914    3              END;
      401     6915    3           DO CASE(ADDR_TYPE);
      402     6916    3              CASE(%CONST_ACODE);
      403     6917    3                 VAL = INADDR.W;
      404     6918    3                 RETURN;
      405     6919    3              CASE(%STATIC_ACODE,%BIGSTATIC_ACODE);
      406     6920    3                 LPTR = INADDR.W;
      407     6921    3                 BITOFF = (INADDR.C * 8) + INADDR.B;
      408     6922    3                 IF ARRAY_FLAG THEN CALL GETINDX;
      409     6923    3              CASE(%BASED_ACODE,%BIGBASED_ACODE,%PARM_ACODE,%SPARM_ACODE,%DCB_ACODE);
      410     6924    3                 BITOFF = PNTR_S.C(PLVL-1) * 8;
      411     6925    3                 PNTR_S.C(PLVL-1) = 0;
      412     6926    3                 LPTR$ = PINCRW(PNTR$(PLVL-1),INADDR.W);
      413     6927    3                 PLVL = PLVL - 1;
      414     6928    3                 BITOFF = BITOFF + (INADDR.C * 8) + INADDR.B;
      415     6929    3                 IF ARRAY_FLAG THEN CALL GETINDX;
      416     6930    3              CASE(%AUTO_ACODE);
      417     6931    3                 IF GD_DATA.GD.INTERPRETIVE THEN
      418     6932    3                    LPTR$ = PINCRW(GD_DATA.GD.AUTO$,INADDR.W);
      419     6933    3                 ELSE
      420     6934    3                    LPTR$ = PINCRW(GD_DATA.DELTAINFO.TSA$->G$TSA.ISA.REGS.B7$,INADDR.W)
              6934                             ;
      421     6935    3                 BITOFF = (INADDR.C * 8) + INADDR.B;
      422     6936    3                 IF ARRAY_FLAG THEN CALL GETINDX;
      423     6937    3              CASE(%DESC_ACODE);
      424     6938    3                 LPTR$ = ADDR(NIL);
      425     6939        /* Don't get rid of this code - it may become useful someday */
      426     6940        /*
      427     6941                      IF FIRST_PTR THEN DO;
      428     6942                         IS_PTR = %TRUE;
      429     6943                         DO CASE(DESCPTR.TYPE);
      430     6944                            CASE(0);
      431     6945                               SEG = 1;
      432     6946                               DO CASE(DESCPTR.ID);
      433     6947                                  CASE(1);        {* $JIT *}
      434     6948                                     DESC# = 7;
      435     6949                                  CASE(ELSE);
PL6.E3A0      #001=GDK$RESADDR File=GDK$RESADDR.:E05TSI                          TUE 07/29/97 21:26 Page:19
      436     6950                                     GD_DATA.GD.ERROR = %GD#RSPDDNOTL6;
      437     6951                                     ALTRETURN;
      438     6952                                  END; {* CASE *}
      439     6953                            CASE(2);
      440     6954                               DO CASE(DESCPTR.ID);
      441     6955                                  CASE(24);  {* $AUTO *}
      442     6956                                     SEG = 9;
      443     6957                                     DESC# = 4;
      444     6958                                  CASE(ELSE);
      445     6959                                     GD_DATA.GD.ERROR = %GD#RSPDDNOTL6;
      446     6960                                     ALTRETURN;
      447     6961                                  END;  {* CASE *}
      448     6962                            CASE(3);
      449     6963                               DO CASE(DESCPTR.ID);
      450     6964                                  CASE(3); {* $DSn *}
      451     6965                                     SEG = 11;
      452     6966                                     DESC# = DESCPTR.DISP;
      453     6967                                     IS_PTR = '1'B;
      454     6968                                  CASE(ELSE);
      455     6969                                     GD_DATA.GD.ERROR = %GD#RSPDDNOTL6;
      456     6970                                     ALTRETURN;
      457     6971                                  END; {* CASE *}
      458     6972                            CASE(7); {* $DCBn *}
      459     6973                               SEG = 5;
      460     6974                               DESC# = DESCPTR.DISP;
      461     6975                            CASE(8);
      462     6976                               DO CASE(DESCPTR.ID);
      463     6977                                  CASE(0); {* $ROSEG *}
      464     6978                                     SEG = 9;
      465     6979                                     DESC# = 1;
      466     6980                                  CASE(1); {* $RDBR *}
      467     6981                                     SEG = 9;
      468     6982                                     DESC# = 2;
      469     6983                                  CASE(2); {* $TSA *}
      470     6984                                     SEG = 9;
      471     6985                                     DESC# = 3;
      472     6986                                  CASE(3); {* $ISn *}
PL6.E3A0      #001=GDK$RESADDR File=GDK$RESADDR.:E05TSI                          TUE 07/29/97 21:26 Page:20
      473     6987                                     SEG = 12;
      474     6988                                     DESC# = DESCPTR.DISP;
      475     6989                                  CASE(ELSE);
      476     6990                                     GD_DATA.GD.ERROR = %GD#RSPDDNOTL6;
      477     6991                                     ALTRETURN;
      478     6992                                  END; {* CASE *}
      479     6993                            CASE(9);
      480     6994                               DO CASE(DESCPTR.ID);
      481     6995                                  CASE(0); {* $Bn *}
      482     6996                                     SEG = 10;
      483     6997                                     DESC# = DESCPTR.DISP;
      484     6998                                     IS_PTR = '1'B;
      485     6999                                  CASE(ELSE);
      486     7000                                     GD_DATA.GD.ERROR = %GD#RSPDDNOTL6;
      487     7001                                     ALTRETURN;
      488     7002                                  END; {* CASE *}
      489     7003                            END;
      490     7004                         END;
      491     7005                      ELSE; */
      492     7006    4                 DO CASE(DESCPTR.TYPE);
      493     7007    4                    CASE(0);
      494     7008    4                       LPTR$ = G$JIT$;
      495     7009    4                    CASE(2);
      496     7010    4                       LPTR$ = G$UAUTO_DS$;
      497     7011    4                    CASE(3);
      498     7012    5                       DO CASE(DESCPTR.DISP);
      499     7013    5                          CASE(1);
      500     7014    5                             LPTR$ = G$USRDS1$;
      501     7015    5                          CASE(2);
      502     7016    5                             LPTR$ = G$USRDS2$;
      503     7017    5                          CASE(3);
      504     7018    5                             LPTR$ = G$USRDS3$;
      505     7019    5                          CASE(4);
      506     7020    5                             LPTR$ = G$USRDS4$;
      507     7021    5                          END /* case(pntr.disp) */;
      508     7022    4                    CASE(6);          /* $PARMn and other parameters */
      509     7023                             /* Get a pointer to a pointer to the parameter */
PL6.E3A0      #001=GDK$RESADDR File=GDK$RESADDR.:E05TSI                          TUE 07/29/97 21:26 Page:21
      510     7024    4                       LPTR$ = PINCRW(GD_DATA.DELTAINFO.TSA$->
      511     7025    4                                      G$TSA.ISA.REGS.B7$,PARMPTR.N+2);
      512     7026    4                       CALL GDU$SETUP_WINDOW(LPTR$) /* Map onto it */
      513     7027    5                          WHENALTRETURN DO;
      514     7028    5                             GD_DATA.GD.ERROR = %GD#RSPBADADR;
      515     7029    5                             ALTRETURN;
      516     7030    5                             END;
      517     7031    4                       LPTR$=LPTR$->B$PTR;  /* Pick up the address from AUTO */
      518     7032    4                    CASE(7);
      519     7033    4                       LPTR$ = DCBADDR(DESCPTR.DISP);
      520     7034    4                       IF GD$MSG.FNC = %GD#RQSUNFID
      521     7035    5                       THEN DO;
      522     7036    5                            SEG = 5;
      523     7037    5                            DESC# = DESCPTR.DISP;
      524     7038    5                          END;
      525     7039    4                    CASE(8);
      526     7040    5                       DO CASE(DESCPTR.ID);
      527     7041    5                          CASE(0);
      528     7042    5                             LPTR$ = G$ROS$;
      529     7043    5                          CASE(1);
      530     7044    5                             LPTR$ = GD_DATA.DELTAINFO.TSA$->G$TSA.ISA.REGS.RDBR$;
      531     7045    5                          CASE(2);
      532     7046    5                             LPTR$ = GD_DATA.DELTAINFO.TSA$;
      533     7047    5                          CASE(3);
      534     7048    6                             DO CASE(DESCPTR.DISP);
      535     7049    6                                CASE(1);
      536     7050    6                                   LPTR$ = G$ISR1$;
      537     7051    6                                CASE(2);
      538     7052    6                                   LPTR$ = G$ISR2$;
      539     7053    6                                CASE(3);
      540     7054    6                                   LPTR$ = G$ISR3$;
      541     7055    6                                CASE(4);
      542     7056    6                                   LPTR$ = G$ISR4$;
      543     7057    6                                CASE(5);
      544     7058    6                                   LPTR$ = G$ISR5$;
      545     7059    6                                CASE(6);
      546     7060    6                                   LPTR$ = G$ISR6$;
PL6.E3A0      #001=GDK$RESADDR File=GDK$RESADDR.:E05TSI                          TUE 07/29/97 21:26 Page:22
      547     7061    6                                CASE(7);
      548     7062    6                                   LPTR$ = G$ISR7$;
      549     7063    6                                END /* CASE */;
      550     7064    5                          END /* CASE */;
      551     7065    4                    CASE(9);
      552     7066    5                       DO CASE(DESCPTR.DISP);
      553     7067    5                          CASE(1,2,4,5,6,7);
      554     7068    5                             LPTR$ = PINCRW(ADDR(GD_DATA.DELTAINFO.TSA$->
      555     7069    5                                         G$TSA.ISA.REGS.B7$),(7-DESCPTR.DISP)*2)->B$PTR
              7069                                                  ;
      556     7070    5                          CASE(3);
      557     7071    5                             LPTR$ = GD_DATA.DELTAINFO.TSA$->G$TSA.B3$;
      558     7072    5                          END /* CASE */;
      559     7073    4                    END /* CASE */;
      560     7074    3              END /* CASE(ADDR_TYPE) */;
      561     7075        /**/
      562     7076    2   GOT_PTR:
      563     7077    2           P$ = LPTR$;
      564     7078    3           IF BITOFF > 15 THEN DO;
      565     7079    3              LPTR = LPTR + BITOFF / 16;
      566     7080    3              BITOFF = MOD(BITOFF,16);
      567     7081    3              END;
      568     7082    3           CALL GDU$SETUP_WINDOW(LPTR$) WHENALTRETURN DO;
      569     7083    4              IF %GH@VLD.STATUS < 0 THEN DO;
      570     7084    4                 GD_DATA.GD.ERROR = %GD#RSPBADADR;
      571     7085    4                 ALTRETURN;
      572     7086    4                 END /* IF NO READ PERMISSION */;
      573     7087    3              END /* whenaltreturn */;
      574     7088    3           IF ADDR_TYPE = %DESC_ACODE THEN DO;
      575     7089    3              VAL = P_UBIN;
      576     7090    3              RETURN;
      577     7091    3              END;
      578     7092    3           IF DATA_TYPE ~= 0 THEN DO;
      579     7093    4              CALL CNVTDECVAL(VAL,LPTR$,BITOFF,BITSIZE,DATA_TYPE) WHENALTRETURN DO;
      580     7094    4                 GD_DATA.GD.ERROR = %GD#RSPBADADR;
      581     7095    4                 ALTRETURN;
      582     7096    4                 END;
PL6.E3A0      #001=GDK$RESADDR File=GDK$RESADDR.:E05TSI                          TUE 07/29/97 21:26 Page:23
      583     7097    3              RETURN;
      584     7098    3              END;
      585     7099    2           IF (((MOD(BITSIZE,16)=0) AND (MOD(BITOFF,16)=0)) AND
      586     7100    2              (LPTR_S.C=0)) THEN
      587     7101    2              IF BITSIZE = 32 THEN VAL = LPTR$->B$DBLWD;
      588     7102    2              ELSE IF BITSIZE = 16 THEN VAL = LPTR$->B$UBIN; ELSE;
      589     7103    3           ELSE DO;
      590     7104    4              IF LPTR_S.C = 1 THEN DO;
      591     7105    4                 BITOFF = BITOFF + 8;
      592     7106    4                 LPTR_S.C = 0;
      593     7107    4                 END;
      594     7108    4              DO I = BITOFF TO BITOFF+BITSIZE-1;
      595     7109    4                 VAL_A(32-BITSIZE+I-BITOFF) = LPTR$->B$BITS.B(I);
      596     7110    4                 END;
      597     7111    3              END /* ELSE DO */;
      598     7112    2           RETURN;
      599     7113        /**/
      600     7114        /* END GETVAL */
      601     7115        /**/
      602     7116        %EJECT;
PL6.E3A0      #001=GDK$RESADDR File=GDK$RESADDR.:E05TSI                          TUE 07/29/97 21:26 Page:24
      603     7117    2   GETINDX: PROC;
      604     7118        /**/
      605     7119    3           LAST_FLAG = %FALSE;
      606     7120    3           INDX = 0;
      607     7121    4           DO WHILE ~LAST_FLAG;
      608     7122    4              INDX = INDX + (IDX.CURMULT(ILVL-1) * IDX.ELMNTSIZ(ILVL-1));
      609     7123    4              ILVL = ILVL - 1;
      610     7124    4              IF ILVL = 0 THEN EXIT;
      611     7125    4              LAST_FLAG = IDX.LASTIDX(ILVL-1);
      612     7126    4              END /* WHILE ~LAST_FLAG */;
      613     7127    3           LPTR = LPTR + (INDX / 16);
      614     7128    3           BITOFF = BITOFF + MOD(INDX,16);
      615     7129    4           IF BITOFF > 15 THEN DO;
      616     7130    4              LPTR = LPTR + 1;
      617     7131    4              BITOFF = BITOFF - 16;
      618     7132    4              END;
      619     7133    3           RETURN;
      620     7134    3   END GETINDX;
      621     7135        /**/
      622     7136        %EJECT;
PL6.E3A0      #001=GDK$RESADDR File=GDK$RESADDR.:E05TSI                          TUE 07/29/97 21:26 Page:25
      623     7137    2   CNVTDECVAL: PROC (VAL,LPTR$,BITOFF,BITSIZE,DATA_TYPE) ALTRET;
      624     7138        /**/
      625     7139    3   DCL VAL UBIN(32);
      626     7140    3   DCL LPTR$ PTR;
      627     7141    3   DCL BITOFF UBIN;
      628     7142    3   DCL BITSIZE UBIN;
      629     7143    3   DCL DATA_TYPE UBIN;
      630     7144        /**/
      631     7145        /* Local Vars */
      632     7146        /**/
      633     7147    3   DCL 1 DECVAL ALIGNED BASED,
      634     7148    3         2 D(0:0) UBIN(4) UNAL;
      635     7149        /**/
      636     7150    4           DO CASE(DATA_TYPE);
      637     7151    4              CASE(40); /* Packed decimal fixed, no sign */
      638     7152    4                 CALL GDK$PUDECBIN(VAL,LPTR$->DECVAL,(BITOFF+3)/4,(BITSIZE+3)/4);
      639     7153    4              CASE(25); /* Packed decimal fixed, trailing ASCII sign */
      640     7154    4                 CALL GDK$PTDECBIN(VAL,LPTR$->DECVAL,(BITOFF+3)/4,(BITSIZE+3)/4);
      641     7155    4              CASE(41); /* Unpacked decimal fixed, no sign */
      642     7156    4                 CALL GDK$UUDECBIN(VAL,LPTR$->DECVAL,(BITOFF+7)/8,(BITSIZE+7)/8);
      643     7157    4              CASE(43); /* Unpacked decimal fixed, trailing ASCII sign */
      644     7158    4                 CALL GDK$UTDECBIN(VAL,LPTR$->DECVAL,(BITOFF+7)/8,(BITSIZE+7)/8);
      645     7159    4              CASE(42); /* Unpacked decimal fixed, leading ASCII sign */
      646     7160    4                 CALL GDK$ULDECBIN(VAL,LPTR$->DECVAL,(BITOFF+7)/8,(BITSIZE+7)/8);
      647     7161    4              CASE(45); /* Unpacked decimal fixed, trailing overpunched */
      648     7162    4                 CALL GDK$UODECBIN(VAL,LPTR$->DECVAL,(BITOFF+7)/8,(BITSIZE+7)/8);
      649     7163    4              CASE(ELSE);
      650     7164    4                 ALTRETURN;
      651     7165    4              END /* CASE */;
      652     7166    3           RETURN;
      653     7167    3   END CNVTDECVAL;
      654     7168        /**/
      655     7169    2   END GETVAL;
      656     7170        /**/
      657     7171    1   END GDK$RESADDR;

PL6.E3A0      #001=GDK$RESADDR File=GDK$RESADDR.:E05TSI                          TUE 07/29/97 21:26 Page:26
--  Include file information  --

   B$OBJECT_C.:E05TOU  is referenced.
   DD_ERR_C.:E05TOU  is referenced.
   GM_VIRTUAL_E.:E05TOU  is referenced.
   GH_HARDWARE_M.:E05TOU  is referenced.
   GD$MSG_M.:E05TOU  is referenced.
   GDA_EQUS_E.:E05TOU  is referenced.
   GD_EQUS_E.:E05TOU  is referenced.
   GD_DATA_M.:E05TOU  is referenced.
   GD_STATIC_DATA.:E05TOU  cannot be made into a system file and is referenced.
   G_JIT_M.:E05TOU  is referenced.
   DD_SRTN_C.:E05TOU  is referenced.
   DD_ACODE_C.:E05TOU  is referenced.
   DD_ICODE_C.:E05TOU  is referenced.
   DD$DITEM.:E05TOU  cannot be made into a system file and is referenced.
   LCP_6.:E05TOU  cannot be made into a system file and is referenced.
   G_LCP6_E.:E05TOU  was found in the system file and is referenced.
   GT_LCP6_M.:E05TOU  was found in the system file and is referenced.
   KI_CP6.:E05TOU  was found in the system file and is referenced.
   GF_LCP6_M.:E05TOU  was found in the system file and is referenced.
   GM_LCP6_M.:E05TOU  was found in the system file and is referenced.
   GU_LCP6_M.:E05TOU  was found in the system file and is referenced.
   GJ_LCP6_M.:E05TOU  was found in the system file and is referenced.
   GH_LCP6_M.:E05TOU  was found in the system file and is referenced.
      No diagnostics issued in procedure GDK$RESADDR.

   Procedure GDK$RESADDR requires 2519 words for executable code.
   Procedure GDK$RESADDR requires 154 words of local(AUTO) storage.

    No errors detected in file GDK$RESADDR.:E05TSI    .

PL6.E3A0      #001=GDK$RESADDR File=GDK$RESADDR.:E05TSI                          TUE 07/29/97 21:26 Page:27

 Object Unit name= GDK$RESADDR                                File name= GDK$RESADDR.:E05TOU
 UTS= JUL 29 '97 21:26:08.72 TUE                              Compiler= PL-6/E31         Sev=      00
 SharedLib= :SHARED_LCP6_SYSTEM                               Alt SharedLib=


    ****  Control sections  ****

 Sect   Type Bound  Init  Size HexSiz  Section name
    0  RoData even  UTS      4      4  GDK$RESADDR
    1   Proc  even  none  2519    9D7  GDK$RESADDR
    2  RoData even  none     1      1  GDK$RESADDR

    ****  Entry defs  ****

                              Check   Calling
                             calling  sequence
  Sect HexLoc Primary Altret sequence   type   Parms  Name
     1      0   yes    yes     yes      Std       10  GDK$RESADDR

  ****  Entry refs  ****

         Check        Calling
        calling       sequence
Altret sequence SRef   type   Args  Name
 yes     yes           Std       1 GDU$SETUP_WINDOW
         yes           Std       4 GDK$PUDECBIN
         yes           Std       4 GDK$UODECBIN
         yes           Std       4 GDK$PTDECBIN
         yes           Std       4 GDK$UUDECBIN
         yes           Std       4 GDK$UTDECBIN
         yes           Std       4 GDK$ULDECBIN
                       nStd      0 X6A_AUTO_N
                       nStd      0 X6A_AALT
                       nStd      0 X6B_BLR
                       nStd      0 X6D_MID
                       nStd      0 X6A_ARET
PL6.E3A0      #001=GDK$RESADDR File=GDK$RESADDR.:E05TSI                          TUE 07/29/97 21:26 Page:28

  ****  Data refs  ****

  Flags:  r = read only, s = secondary
Flgs Name                             Flgs Name                             Flgs Name
     GD$DELTA_DATA$                        G$ROS$                                G$JIT$
     G$ISR3$                               G$ISR1$                               G$ISR2$
     G$ISR4$                               G$ISR5$                               G$ISR6$
     G$ISR7$                               G$UAUTO_DS$                           G$USRDS1$
     G$USRDS2$                             G$USRDS3$                             G$USRDS4$
r    G$ROS$
PL6.E3A0      #001=GDK$RESADDR File=GDK$RESADDR.:E05TSI                          TUE 07/29/97 21:26 Page:29


        1        1        /*T***********************************************************/
        2        2        /*T*                                                         */
        3        3        /*T* Copyright (c) Bull HN Information Systems Inc., 1997    */
        4        4        /*T*                                                         */
        5        5        /*T***********************************************************/
        6        6        GDK$RESADDR: PROC(ARRAY_FIRST,ARRAY_CUR,ARRAY_HIGH,

      6   1 000000  D380 0000 0000  xent GDK$RESADDR     LNJ,B5   X6A_AUTO_N
          1 000003       009A 000A                       DC       154,10

        7        7                          SEG,DESC#,LPTR,BITSIZE,BITOFF,NOT_IS,IS_PTR) ALTRET;
        8        8        /**/
        9        9        /* INCLUDEs */
       10       10        /**/
       11       11        %INCLUDE LCP_6;
       12      202        %G$TSA;
       13      590        %INCLUDE DD$DITEM;
       12+     693             %LIST;
       13+     694    1        DCL SDD$ PTR;
       14+     695    1        DCL ZITEM$ PTR;
       15+     696    1        DCL SDD_L6$ PTR;
       16+     697    1        DCL ZITEM_L6$ PTR;
       14     1271        %INCLUDE G_JIT_M;
       15     1536        %INCLUDE GD_STATIC_DATA;
       16     2009        %INCLUDE GH_HARDWARE_M;
       17     2107        %GH_VLD(STCLASS=BASED);
       18     2121        %INCLUDE GM_VIRTUAL_E;
       19     2331        %INCLUDE DD_ERR_C;
       20     2728        %INCLUDE B$OBJECT_C;
       21     6158        %VREBL_DATATYPES;
       22     6233        %GD$MSG(STCLASS="BASED(MSG$)");
       23     6389        /**/
       24     6390        /* EQUs */
       25     6391        /**/
       26     6392        %EQU TRUE = '1'B;
       27     6393        %EQU FALSE = '0'B;
PL6.E3A0      #001=GDK$RESADDR File=GDK$RESADDR.:E05TSI                          TUE 07/29/97 21:26 Page:30
       28     6394        %EQU PTR_MBZ_MASK = '7FF00000'X;
       29     6395        /**/
       30     6396        /* Parameters */
       31     6397        /**/
       32     6398    1   DCL ARRAY_FIRST BIT(1) ALIGNED;
       33     6399    1   DCL ARRAY_CUR UBIN;
       34     6400    1   DCL ARRAY_HIGH UBIN;
       35     6401    1   DCL SEG UBIN;
       36     6402    1   DCL DESC# UBIN;
       37     6403    1   DCL LPTR UBIN(32);
       38     6404    1   DCL 1 LPTR_S REDEF LPTR,
       39     6405    1         2 C UBIN(1) UNAL,
       40     6406    1         2 B UBIN(3) UNAL,
       41     6407    1         2 * BIT(8) UNAL,
       42     6408    1         2 W UBIN(20) UNAL;
       43     6409    1   DCL LPTR$ REDEF LPTR PTR;
       44     6410    1   DCL BITSIZE UBIN;
       45     6411    1   DCL BITOFF UBIN;
       46     6412    1   DCL TITEM$ PTR;
       47     6413    1   DCL NOT_IS BIT(1) ALIGNED;
       48     6414    1   DCL IS_PTR BIT(1) ALIGNED;
       49     6415        /**/
       50     6416        /* Global Variables */
       51     6417        /**/
       52     6418    1   DCL DITEM$ PTR;
       53     6419    1   DCL MITEM$ PTR;
       54     6420    1   DCL VAL SBIN(32);
       55     6421    1   DCL VAL_ REDEF VAL BIT(32);
       56     6422    1   DCL PLVL UBIN;
       57     6423    1   DCL ILVL UBIN;
       58     6424    1   DCL PTR$ CPTR;
       59     6425    1   DCL ARRAY_FLAG BIT(1) ALIGNED;
       60     6426    1   DCL ADDR_TYPE UBIN;
       61     6427    1   DCL TYPE_CODE UBIN;
       62     6428    1   DCL FIRST_PTR BIT(1) ALIGNED;
       63     6429    1   DCL DATA_TYPE UBIN;
       64     6430    1   DCL EXPVAL UBIN(32);
PL6.E3A0      #001=GDK$RESADDR File=GDK$RESADDR.:E05TSI                          TUE 07/29/97 21:26 Page:31
       65     6431    1   DCL EXPR_OP UBIN;
       66     6432    1   DCL INDX UBIN(32);
       67     6433    1   DCL I UBIN;
       68     6434    1   DCL B7$ PTR;
       69     6435    1   DCL B7 REDEF B7$ UBIN(32);
       70     6436    1   DCL INVAL BIT(32);
       71     6437    1   DCL 1 IDX(0:9) ALIGNED,
       72     6438    1         2 CURMULT UBIN,
       73     6439    1         2 ELMNTSIZ UBIN,
       74     6440    1         2 LASTIDX BIT(1) ALIGNED;
       75     6441    1   DCL PNTR(0:9) UBIN(32);
       76     6442    1   DCL 1 PNTR_S(0:9) REDEF PNTR,
       77     6443    1         2 C UBIN(1) UNAL,
       78     6444    1         2 B UBIN(3) UNAL,
       79     6445    1         2 * BIT(8) UNAL,
       80     6446    1         2 W UBIN(20) UNAL;
       81     6447    1   DCL PNTR$(0:9) REDEF PNTR PTR;
       82     6448        %DITEM_L6(NAME=DITEM,STCLASS=BASED);
       83     6491        %ZITEM_L6(NAME=ZITEM,STCLASS=BASED);
       84     6533        %MITEM_L6(NAME=MITEM,STCLASS=BASED);
       85     6571    1   DCL MSG$ PTR;
       86     6572        /**/
       87     6573        /* External Entries */
       88     6574        /**/
       89     6575    1   DCL GDU$SETUP_WINDOW ENTRY(1) ALTRET;
       90     6576    1   DCL GDK$PUDECBIN ENTRY(4);
       91     6577    1   DCL GDK$PTDECBIN ENTRY(4);
       92     6578    1   DCL GDK$UUDECBIN ENTRY(4);
       93     6579    1   DCL GDK$UTDECBIN ENTRY(4);
       94     6580    1   DCL GDK$ULDECBIN ENTRY(4);
       95     6581    1   DCL GDK$UODECBIN ENTRY(4);
       96     6582        %EJECT;
PL6.E3A0      #001=GDK$RESADDR File=GDK$RESADDR.:E05TSI                          TUE 07/29/97 21:26 Page:32
       97     6583        /**/
       98     6584        /* Code */
       99     6585        /**/
      100     6586    1          MSG$ = ADDR(GD_DATA.GDA.RCV);

   6586   1 000005  EC80 0000 0000  xsym                 LDB,B6   GD$DELTA_DATA$
          1 000008  DBC6 000D                            LAB,B5   13,B6
          1 00000A  DFC7 006D                            STB,B5   MSG$,AUTO

      101     6587    1           ZITEM$ = GD_DATA.MISC.DESC$;

   6587   1 00000C  CCC6 0184                            LDB,B4   388,B6
          1 00000E  CFC7 001A                            STB,B4   ZITEM$,AUTO

      102     6588    1           SEG = 3;                      /* Unless ...            */

   6588   1 000010  BCC7 000A                            LDB,B3   @SEG,AUTO
          1 000012  6C03                                 LDV,R6   3
          1 000013  EF03                                 STR,R6   ,B3

      103     6589    1           DESC# = 0;                    /*  ... Something ...    */

   6589   1 000014  ECC7 000C                            LDB,B6   @DESC#,AUTO
          1 000016  8706                                 CL       ,B6

      104     6590    1           NOT_IS = '0'B;                /*        ... Happens    */

   6590   1 000017  ACC7 0014                            LDB,B2   @NOT_IS,AUTO
          1 000019  8702                                 CL       ,B2

      105     6591    1           IS_PTR = '0'B;

   6591   1 00001A  9CC7 0016                            LDB,B1   @IS_PTR,AUTO
          1 00001C  8701                                 CL       ,B1

      106     6592    1           EXPR_OP = %NOMOD_OPCODE;

PL6.E3A0      #001=GDK$RESADDR File=GDK$RESADDR.:E05TSI                          TUE 07/29/97 21:26 Page:33
   6592   1 00001D  8747 0033                            CL       EXPR_OP,AUTO

      107     6593    1           IF ZITEM$->ZITEM.ADDR_TYPE = %SPEC_ACODE OR

   6593   1 00001F  D284                                 LLH,R5   ,B4
          1 000020  5D41                                 CMV,R5   65
          1 000021  0901 0256                            BE       s:6695,PREL
          1 000023  5D40                                 CMV,R5   64
          1 000024  0901 0253                            BE       s:6695,PREL

      108     6594    1              ZITEM$->ZITEM.ADDR_TYPE = %DESC_ACODE THEN
      109     6595    1              GOTO PROCESS_ZITEM;
      110     6596    1           DITEM$ = PINCRW(ZITEM$,SIZEW(ZITEM));

   6596   1 000026  EBC4 0004                            LAB,B6   4,B4
          1 000028  EFC7 0022                            STB,B6   DITEM$,AUTO

      111     6597        /* Set TYPE_CODE to a value that will allow entry into the loop */
      112     6598    1           TYPE_CODE = %SIZE_ICODE + 1;

   6598   1 00002A  4C0A                                 LDV,R4   10
          1 00002B  CF47 002E                            STR,R4   TYPE_CODE,AUTO

      113     6599    1           VAL = 0;

   6599   1 00002D  8747 0026                            CL       VAL,AUTO
          1 00002F  8747 0027                            CL       VAL+1,AUTO

      114     6600    1           PLVL = 0;

   6600   1 000031  8747 0028                            CL       PLVL,AUTO

      115     6601    1           ILVL = 0;

   6601   1 000033  8747 0029                            CL       ILVL,AUTO

      116     6602    1           FIRST_PTR = %TRUE;
PL6.E3A0      #001=GDK$RESADDR File=GDK$RESADDR.:E05TSI                          TUE 07/29/97 21:26 Page:34

   6602   1 000035  8947 002F                            LBT,'8000'X       FIRST_PTR,AUTO
   6602   1 000037       8000

      117     6603    2           DO WHILE TYPE_CODE ~= %SIZE_ICODE;

   6603   1 000038  4D09                                 CMV,R4   9
          1 000039  0901 023E                            BE       s:6695,PREL

      118     6604    2              ARRAY_FLAG = DITEM$->DITEM.FLAGS.AFLAG;

   6604   1 00003B  ECC7 0022                            LDB,B6   DITEM$,AUTO
          1 00003D  E846 0002                            LDR,R6   2,B6
          1 00003F  6005                                 SOL,R6   5
          1 000040  E570 8000                            AND,R6   -32768,IMO
          1 000042  EF47 002C                            STR,R6   ARRAY_FLAG,AUTO

      119     6605    2              TYPE_CODE = DITEM$->DITEM.TYPE_CODE;

   6605   1 000044  E806                                 LDR,R6   ,B6
          1 000045  604C                                 SOR,R6   12
          1 000046  EF47 002E                            STR,R6   TYPE_CODE,AUTO

      120     6606    2              ADDR_TYPE = DITEM$->DITEM.ADDR_TYPE;

   6606   1 000048  D806                                 LDR,R5   ,B6
          1 000049  5045                                 SOR,R5   5
          1 00004A  D570 007F                            AND,R5   127,IMO
          1 00004C  DF47 002D                            STR,R5   ADDR_TYPE,AUTO

      121     6607    2              DATA_TYPE = DITEM$->DITEM.DATA_TYPE;

   6607   1 00004E  C846 0001                            LDR,R4   1,B6
          1 000050  4048                                 SOR,R4   8
          1 000051  C570 003F                            AND,R4   63,IMO
          1 000053  CF47 0030                            STR,R4   DATA_TYPE,AUTO

PL6.E3A0      #001=GDK$RESADDR File=GDK$RESADDR.:E05TSI                          TUE 07/29/97 21:26 Page:35
      122     6608    2              INVAL = DITEM$->DITEM.ADDRESS;

   6608   1 000055  8CC6 0002                            LDI      2,B6
          1 000057  8D47 0039                            SDI      INVAL,AUTO

      123     6609    2              BITSIZE = DITEM$->DITEM.SIZE;

   6609   1 000059  DCC7 0010                            LDB,B5   @BITSIZE,AUTO
          1 00005B  B846 0001                            LDR,R3   1,B6
          1 00005D  B570 00FF                            AND,R3   255,IMO
          1 00005F  BF05                                 STR,R3   ,B5

      124     6610    2              VAL = 0;

   6610   1 000060  8747 0026                            CL       VAL,AUTO
          1 000062  8747 0027                            CL       VAL+1,AUTO

      125     6611        %EJECT;
PL6.E3A0      #001=GDK$RESADDR File=GDK$RESADDR.:E05TSI                          TUE 07/29/97 21:26 Page:36
      126     6612    3              DO CASE(TYPE_CODE);

   6612   1 000064  B847 002E                            LDR,R3   TYPE_CODE,AUTO
          1 000066  3D0A                                 CMV,R3   10
          1 000067  0281 0209                            BGE      s:6690,PREL
          1 000069  A830 0000 006F  01                   LDR,R2   s:6612+11,R3
          1 00006C  83A0 0000 0079  01                   JMP      s:6614,R2
          1 00006F       01F8                            DC       s:6690,PREL
          1 000070       0000                            DC       s:6614,PREL
          1 000071       0059                            DC       s:6630,PREL
          1 000072       009B                            DC       s:6640,PREL
          1 000073       010C                            DC       s:6659,PREL
          1 000074       01F8                            DC       s:6690,PREL
          1 000075       01F8                            DC       s:6690,PREL
          1 000076       01F8                            DC       s:6690,PREL
          1 000077       0137                            DC       s:6667,PREL
          1 000078       015F                            DC       s:6673,PREL

      127     6613    3                 CASE(%PTR_ICODE);

      128     6614    3                    BITSIZE = 32;

   6614   1 000079  6C20                                 LDV,R6   32
          1 00007A  EF05                                 STR,R6   ,B5

      129     6615    4                    IF ~FIRST_PTR THEN DO;

   6615   1 00007B  D847 002F                            LDR,R5   FIRST_PTR,AUTO
          1 00007D  D570 8000                            AND,R5   -32768,IMO
          1 00007F  D670 8000                            XOR,R5   -32768,IMO
          1 000081  5901 0008                            BEZ,R5   s:6619,PREL

      130     6616    4                       SEG = 3;

   6616   1 000083  CCC7 000A                            LDB,B4   @SEG,AUTO
          1 000085  5C03                                 LDV,R5   3
          1 000086  DF04                                 STR,R5   ,B4
PL6.E3A0      #001=GDK$RESADDR File=GDK$RESADDR.:E05TSI                          TUE 07/29/97 21:26 Page:37

      131     6617    4                       DESC# = 0;

   6617   1 000087  BCC7 000C                            LDB,B3   @DESC#,AUTO
          1 000089  8703                                 CL       ,B3

      132     6618    4                       END;

      133     6619    3                    CALL GETVAL(VAL,ADDR_TYPE,ARRAY_FLAG,

   6619   1 00008A  DFC7 007C                            STB,B5   @INVAL+2,AUTO
          1 00008C  CBC7 0039                            LAB,B4   INVAL,AUTO
          1 00008E  CFC7 007A                            STB,B4   @DATA_TYPE+2,AUTO
          1 000090  BBC7 0030                            LAB,B3   DATA_TYPE,AUTO
          1 000092  BFC7 0078                            STB,B3   @ARRAY_FLAG+2,AUTO
          1 000094  ABC7 002C                            LAB,B2   ARRAY_FLAG,AUTO
          1 000096  AFC7 0076                            STB,B2   @ADDR_TYPE+2,AUTO
          1 000098  9BC7 002D                            LAB,B1   ADDR_TYPE,AUTO
          1 00009A  9FC7 0074                            STB,B1   @VAL+2,AUTO
          1 00009C  EBC7 0026                            LAB,B6   VAL,AUTO
          1 00009E  EFC7 0072                            STB,B6   MSG$+5,AUTO
          1 0000A0  E3C0 043E                            LNJ,B6   s:0,PREL
          1 0000A2       043A                            DC       s:6804,PREL

      134     6620    3                                DATA_TYPE,INVAL,BITSIZE) ALTRET(BADVAL);
      135     6621    4                    IF (VAL_ & %PTR_MBZ_MASK) THEN DO;

   6621   1 0000A3  8CC7 0026                            LDI      VAL,AUTO
          1 0000A5  E500 0000 0000  00                   AND,R6   0
          1 0000A8  F500 0000 0001  00                   AND,R7   +1
          1 0000AB  8D47 0090                            SDI      @DATA_TYPE+2,AUTO
          1 0000AD  EB80 0000 0000  02                   LAB,B6   0
          1 0000B0  5C01                                 LDV,R5   1
          1 0000B1  0022                                 ACM      ;
          1 0000B2       4407 0090                                ALPHANUM(@DATA_TYPE+2,AUTO,,4,FILL),;
          1 0000B4       4006 0000                                ALPHANUM(0,B6,,R5,FILL)
          1 0000B6  5381 000A                            CBE      s:6625,PREL
PL6.E3A0      #001=GDK$RESADDR File=GDK$RESADDR.:E05TSI                          TUE 07/29/97 21:26 Page:38

      136     6622    4                       GD_DATA.GD.ERROR = %GD#RSPBADPTR;

   6622   1 0000B8  EC80 0000 0000  xsym                 LDB,B6   GD$DELTA_DATA$
          1 0000BB  4C28                                 LDV,R4   40
          1 0000BC  CF46 0174                            STR,R4   372,B6

      137     6623    4                       ALTRETURN;

   6623   1 0000BE  C380 0000 0000  xent                 LNJ,B4   X6A_AALT

      138     6624    4                       END;
      139     6625    3                    PNTR(PLVL) = VAL;

   6625   1 0000C1  8CC7 0026                            LDI      VAL,AUTO
          1 0000C3  EBC7 0059                            LAB,B6   PNTR,AUTO
          1 0000C5  B847 0028                            LDR,R3   PLVL,AUTO
          1 0000C7  8D36                                 SDI      ,B6,R3

      140     6626    3                    PLVL = PLVL + 1;

   6626   1 0000C8  8AC7 0028                            INC      PLVL,AUTO

      141     6627    3                    DITEM$ = PINCRW(DITEM$,SIZEW(DITEM));

   6627   1 0000CA  ECC7 0022                            LDB,B6   DITEM$,AUTO
          1 0000CC  DBC6 0004                            LAB,B5   4,B6
          1 0000CE  DFC7 0022                            STB,B5   DITEM$,AUTO
          1 0000D0  0F81 01A0                            B        s:6690,PREL

      142     6628        %EJECT;
PL6.E3A0      #001=GDK$RESADDR File=GDK$RESADDR.:E05TSI                          TUE 07/29/97 21:26 Page:39
      143     6629    3                 CASE(%SIDX_ICODE);

      144     6630    3                    CALL GETVAL(VAL,ADDR_TYPE,ARRAY_FLAG,

   6630   1 0000D2  DFC7 007C                            STB,B5   @INVAL+2,AUTO
          1 0000D4  CBC7 0039                            LAB,B4   INVAL,AUTO
          1 0000D6  CFC7 007A                            STB,B4   @DATA_TYPE+2,AUTO
          1 0000D8  BBC7 0030                            LAB,B3   DATA_TYPE,AUTO
          1 0000DA  BFC7 0078                            STB,B3   @ARRAY_FLAG+2,AUTO
          1 0000DC  ABC7 002C                            LAB,B2   ARRAY_FLAG,AUTO
          1 0000DE  AFC7 0076                            STB,B2   @ADDR_TYPE+2,AUTO
          1 0000E0  9BC7 002D                            LAB,B1   ADDR_TYPE,AUTO
          1 0000E2  9FC7 0074                            STB,B1   @VAL+2,AUTO
          1 0000E4  EBC7 0026                            LAB,B6   VAL,AUTO
          1 0000E6  EFC7 0072                            STB,B6   MSG$+5,AUTO
          1 0000E8  E3C0 03F6                            LNJ,B6   s:0,PREL
          1 0000EA       03F2                            DC       s:6804,PREL

      145     6631    3                                DATA_TYPE,INVAL,BITSIZE) ALTRET(BADVAL);
      146     6632    3                    MITEM$ = PINCRW(DITEM$,SIZEW(DITEM));

   6632   1 0000EB  ECC7 0022                            LDB,B6   DITEM$,AUTO
          1 0000ED  DBC6 0004                            LAB,B5   4,B6
          1 0000EF  DFC7 0024                            STB,B5   MITEM$,AUTO

      147     6633    3                    IDX.CURMULT(ILVL) = VAL - MITEM$->MITEM.OFS;

   6633   1 0000F1  8CC7 0026                            LDI      VAL,AUTO
          1 0000F3  84C5 0004                            SID      4,B5
          1 0000F5  B847 0029                            LDR,R3   ILVL,AUTO
          1 0000F7  3F03                                 MLV,R3   3
          1 0000F8  3E3B                                 ADV,R3   59
          1 0000F9  E857                                 LDR,R6   R7
          1 0000FA  EF37                                 STR,R6   ,AUTO,R3

      148     6634    3                    IDX.ELMNTSIZ(ILVL) = MITEM$->MITEM.ELMNTSIZ;

PL6.E3A0      #001=GDK$RESADDR File=GDK$RESADDR.:E05TSI                          TUE 07/29/97 21:26 Page:40
   6634   1 0000FB  A847 0029                            LDR,R2   ILVL,AUTO
          1 0000FD  2F03                                 MLV,R2   3
          1 0000FE  2E3C                                 ADV,R2   60
          1 0000FF  D845 0001                            LDR,R5   1,B5
          1 000101  DF27                                 STR,R5   ,AUTO,R2

      149     6635    3                    IDX.LASTIDX(ILVL) = DITEM$->DITEM.FLAGS.LFLAG;

   6635   1 000102  9847 0029                            LDR,R1   ILVL,AUTO
          1 000104  1F03                                 MLV,R1   3
          1 000105  1E3D                                 ADV,R1   61
          1 000106  C846 0002                            LDR,R4   2,B6
          1 000108  4004                                 SOL,R4   4
          1 000109  C570 8000                            AND,R4   -32768,IMO
          1 00010B  CF17                                 STR,R4   ,AUTO,R1

      150     6636    3                    DITEM$ = PINCRW(MITEM$,SIZEW(MITEM));

   6636   1 00010C  CBC5 0006                            LAB,B4   6,B5
          1 00010E  CFC7 0022                            STB,B4   DITEM$,AUTO

      151     6637    3                    ILVL = ILVL + 1;

   6637   1 000110  8AC7 0029                            INC      ILVL,AUTO
          1 000112  0F81 015E                            B        s:6690,PREL

      152     6638        %EJECT;
PL6.E3A0      #001=GDK$RESADDR File=GDK$RESADDR.:E05TSI                          TUE 07/29/97 21:26 Page:41
      153     6639    3                 CASE(%LIDX_ICODE);

      154     6640    3                    MITEM$ = PINCRW(DITEM$,SIZEW(DITEM));

   6640   1 000114  CBC6 0004                            LAB,B4   4,B6
          1 000116  CFC7 0024                            STB,B4   MITEM$,AUTO

      155     6641    4                    IF ARRAY_FIRST THEN DO;

   6641   1 000118  BCC7 0004                            LDB,B3   @ARRAY_FIRST,AUTO
          1 00011A  8983                                 CMZ      ,B3
          1 00011B  0881 0042                            BAGE     s:6651,PREL

      156     6642    4                       CALL GETVAL(VAL,ADDR_TYPE,ARRAY_FLAG,

   6642   1 00011D  DFC7 007C                            STB,B5   @INVAL+2,AUTO
          1 00011F  ABC7 0039                            LAB,B2   INVAL,AUTO
          1 000121  AFC7 007A                            STB,B2   @DATA_TYPE+2,AUTO
          1 000123  9BC7 0030                            LAB,B1   DATA_TYPE,AUTO
          1 000125  9FC7 0078                            STB,B1   @ARRAY_FLAG+2,AUTO
          1 000127  EBC7 002C                            LAB,B6   ARRAY_FLAG,AUTO
          1 000129  EFC7 0076                            STB,B6   @ADDR_TYPE+2,AUTO
          1 00012B  EBC7 002D                            LAB,B6   ADDR_TYPE,AUTO
          1 00012D  EFC7 0074                            STB,B6   @VAL+2,AUTO
          1 00012F  EBC7 0026                            LAB,B6   VAL,AUTO
          1 000131  EFC7 0072                            STB,B6   MSG$+5,AUTO
          1 000133  E3C0 03AB                            LNJ,B6   s:0,PREL
          1 000135       03A7                            DC       s:6804,PREL

      157     6643    4                                   DATA_TYPE,INVAL,BITSIZE) ALTRET(BADVAL);
      158     6644    4                       IDX.CURMULT(ILVL) = VAL - MITEM$->MITEM.OFS;

   6644   1 000136  ECC7 0024                            LDB,B6   MITEM$,AUTO
          1 000138  8CC7 0026                            LDI      VAL,AUTO
          1 00013A  84C6 0004                            SID      4,B6
          1 00013C  B847 0029                            LDR,R3   ILVL,AUTO
          1 00013E  3F03                                 MLV,R3   3
PL6.E3A0      #001=GDK$RESADDR File=GDK$RESADDR.:E05TSI                          TUE 07/29/97 21:26 Page:42
          1 00013F  3E3B                                 ADV,R3   59
          1 000140  E857                                 LDR,R6   R7
          1 000141  EF37                                 STR,R6   ,AUTO,R3

      159     6645    4                       IDX.ELMNTSIZ(ILVL) = MITEM$->MITEM.ELMNTSIZ;

   6645   1 000142  A847 0029                            LDR,R2   ILVL,AUTO
          1 000144  2F03                                 MLV,R2   3
          1 000145  2E3C                                 ADV,R2   60
          1 000146  D846 0001                            LDR,R5   1,B6
          1 000148  DF27                                 STR,R5   ,AUTO,R2

      160     6646    4                       IDX.LASTIDX(ILVL) = DITEM$->DITEM.FLAGS.LFLAG;

   6646   1 000149  9847 0029                            LDR,R1   ILVL,AUTO
          1 00014B  1F03                                 MLV,R1   3
          1 00014C  1E3D                                 ADV,R1   61
          1 00014D  DCC7 0022                            LDB,B5   DITEM$,AUTO
          1 00014F  C845 0002                            LDR,R4   2,B5
          1 000151  4004                                 SOL,R4   4
          1 000152  C570 8000                            AND,R4   -32768,IMO
          1 000154  CF17                                 STR,R4   ,AUTO,R1

      161     6647    4                       ILVL = ILVL + 1;

   6647   1 000155  8AC7 0029                            INC      ILVL,AUTO

      162     6648    4                       ARRAY_CUR = VAL;

   6648   1 000157  CCC7 0006                            LDB,B4   @ARRAY_CUR,AUTO
          1 000159  E847 0027                            LDR,R6   VAL+1,AUTO
          1 00015B  EF04                                 STR,R6   ,B4

      163     6649    4                       END;

   6649   1 00015C  0F81 0020                            B        s:6656,PREL

PL6.E3A0      #001=GDK$RESADDR File=GDK$RESADDR.:E05TSI                          TUE 07/29/97 21:26 Page:43
      164     6650    4                    ELSE DO;

      165     6651    4                       IDX.CURMULT(ILVL) = ARRAY_CUR - MITEM$->MITEM.OFS;

   6651   1 00015E  ACC7 0006                            LDB,B2   @ARRAY_CUR,AUTO
          1 000160  F802                                 LDR,R7   ,B2
          1 000161  6C00                                 LDV,R6   0
          1 000162  84C4 0004                            SID      4,B4
          1 000164  9847 0029                            LDR,R1   ILVL,AUTO
          1 000166  1F03                                 MLV,R1   3
          1 000167  1E3B                                 ADV,R1   59
          1 000168  E857                                 LDR,R6   R7
          1 000169  EF17                                 STR,R6   ,AUTO,R1

      166     6652    4                       IDX.ELMNTSIZ(ILVL) = MITEM$->MITEM.ELMNTSIZ;

   6652   1 00016A  B847 0029                            LDR,R3   ILVL,AUTO
          1 00016C  3F03                                 MLV,R3   3
          1 00016D  3E3C                                 ADV,R3   60
          1 00016E  D844 0001                            LDR,R5   1,B4
          1 000170  DF37                                 STR,R5   ,AUTO,R3

      167     6653    4                       IDX.LASTIDX(ILVL) = DITEM$->DITEM.FLAGS.LFLAG;

   6653   1 000171  A847 0029                            LDR,R2   ILVL,AUTO
          1 000173  2F03                                 MLV,R2   3
          1 000174  2E3D                                 ADV,R2   61
          1 000175  C846 0002                            LDR,R4   2,B6
          1 000177  4004                                 SOL,R4   4
          1 000178  C570 8000                            AND,R4   -32768,IMO
          1 00017A  CF27                                 STR,R4   ,AUTO,R2

      168     6654    4                       ILVL = ILVL + 1;

   6654   1 00017B  8AC7 0029                            INC      ILVL,AUTO

      169     6655    4                       END;
PL6.E3A0      #001=GDK$RESADDR File=GDK$RESADDR.:E05TSI                          TUE 07/29/97 21:26 Page:44

      170     6656    3                    DITEM$ = PINCRW(MITEM$,SIZEW(MITEM));

   6656   1 00017D  ECC7 0024                            LDB,B6   MITEM$,AUTO
          1 00017F  DBC6 0006                            LAB,B5   6,B6
          1 000181  DFC7 0022                            STB,B5   DITEM$,AUTO
          1 000183  0F81 00ED                            B        s:6690,PREL

      171     6657        %EJECT;
PL6.E3A0      #001=GDK$RESADDR File=GDK$RESADDR.:E05TSI                          TUE 07/29/97 21:26 Page:45
      172     6658    3                 CASE(%UIDX_ICODE);

      173     6659    4                    IF ARRAY_FIRST THEN DO;

   6659   1 000185  CCC7 0004                            LDB,B4   @ARRAY_FIRST,AUTO
          1 000187  8984                                 CMZ      ,B4
          1 000188  0881 001F                            BAGE     s:6664,PREL

      174     6660    4                       CALL GETVAL(VAL,ADDR_TYPE,ARRAY_FLAG,

   6660   1 00018A  DFC7 007C                            STB,B5   @INVAL+2,AUTO
          1 00018C  BBC7 0039                            LAB,B3   INVAL,AUTO
          1 00018E  BFC7 007A                            STB,B3   @DATA_TYPE+2,AUTO
          1 000190  ABC7 0030                            LAB,B2   DATA_TYPE,AUTO
          1 000192  AFC7 0078                            STB,B2   @ARRAY_FLAG+2,AUTO
          1 000194  9BC7 002C                            LAB,B1   ARRAY_FLAG,AUTO
          1 000196  9FC7 0076                            STB,B1   @ADDR_TYPE+2,AUTO
          1 000198  EBC7 002D                            LAB,B6   ADDR_TYPE,AUTO
          1 00019A  EFC7 0074                            STB,B6   @VAL+2,AUTO
          1 00019C  EBC7 0026                            LAB,B6   VAL,AUTO
          1 00019E  EFC7 0072                            STB,B6   MSG$+5,AUTO
          1 0001A0  E3C0 033E                            LNJ,B6   s:0,PREL
          1 0001A2       033A                            DC       s:6804,PREL

      175     6661    4                                   DATA_TYPE,INVAL,BITSIZE) ALTRET(BADVAL);
      176     6662    4                       ARRAY_HIGH = VAL;

   6662   1 0001A3  ECC7 0008                            LDB,B6   @ARRAY_HIGH,AUTO
          1 0001A5  E847 0027                            LDR,R6   VAL+1,AUTO
          1 0001A7  EF06                                 STR,R6   ,B6

      177     6663    4                       END;

      178     6664    3                    DITEM$ = PINCRW(DITEM$,SIZEW(DITEM));

   6664   1 0001A8  ECC7 0022                            LDB,B6   DITEM$,AUTO
          1 0001AA  DBC6 0004                            LAB,B5   4,B6
PL6.E3A0      #001=GDK$RESADDR File=GDK$RESADDR.:E05TSI                          TUE 07/29/97 21:26 Page:46
          1 0001AC  DFC7 0022                            STB,B5   DITEM$,AUTO
          1 0001AE  0F81 00C2                            B        s:6690,PREL

      179     6665        %EJECT;
PL6.E3A0      #001=GDK$RESADDR File=GDK$RESADDR.:E05TSI                          TUE 07/29/97 21:26 Page:47
      180     6666    3                 CASE(%EXP_ICODE);

      181     6667    3                    CALL GETVAL(EXPVAL,ADDR_TYPE,ARRAY_FLAG,

   6667   1 0001B0  DFC7 007C                            STB,B5   @INVAL+2,AUTO
          1 0001B2  CBC7 0039                            LAB,B4   INVAL,AUTO
          1 0001B4  CFC7 007A                            STB,B4   @DATA_TYPE+2,AUTO
          1 0001B6  BBC7 0030                            LAB,B3   DATA_TYPE,AUTO
          1 0001B8  BFC7 0078                            STB,B3   @ARRAY_FLAG+2,AUTO
          1 0001BA  ABC7 002C                            LAB,B2   ARRAY_FLAG,AUTO
          1 0001BC  AFC7 0076                            STB,B2   @ADDR_TYPE+2,AUTO
          1 0001BE  9BC7 002D                            LAB,B1   ADDR_TYPE,AUTO
          1 0001C0  9FC7 0074                            STB,B1   @VAL+2,AUTO
          1 0001C2  EBC7 0031                            LAB,B6   EXPVAL,AUTO
          1 0001C4  EFC7 0072                            STB,B6   MSG$+5,AUTO
          1 0001C6  E3C0 0318                            LNJ,B6   s:0,PREL
          1 0001C8       0314                            DC       s:6804,PREL

      182     6668    3                                DATA_TYPE,INVAL,BITSIZE) ALTRET(BADVAL);
      183     6669    3                    EXPR_OP = DITEM$->DITEM.OPER.EXPR;

   6669   1 0001C9  ECC7 0022                            LDB,B6   DITEM$,AUTO
          1 0001CB  E846 0002                            LDR,R6   2,B6
          1 0001CD  6046                                 SOR,R6   6
          1 0001CE  E570 000F                            AND,R6   15,IMO
          1 0001D0  EF47 0033                            STR,R6   EXPR_OP,AUTO

      184     6670    3                    DITEM$ = PINCRW(DITEM$,SIZEW(DITEM));

   6670   1 0001D2  DBC6 0004                            LAB,B5   4,B6
          1 0001D4  DFC7 0022                            STB,B5   DITEM$,AUTO
          1 0001D6  0F81 009A                            B        s:6690,PREL

      185     6671        %EJECT;
PL6.E3A0      #001=GDK$RESADDR File=GDK$RESADDR.:E05TSI                          TUE 07/29/97 21:26 Page:48
      186     6672    3                 CASE(%SIZE_ICODE);

      187     6673    4                    IF ADDR_TYPE = %PARM_ACODE THEN DO;

   6673   1 0001D8  E847 002D                            LDR,R6   ADDR_TYPE,AUTO
          1 0001DA  6D04                                 CMV,R6   4
          1 0001DB  0981 0058                            BNE      s:6684,PREL

      188     6674    4                       TITEM$ = PINCRW(DITEM$,SIZEW(DITEM));

   6674   1 0001DD  CBC6 0004                            LAB,B4   4,B6
          1 0001DF  CFC7 0020                            STB,B4   TITEM$,AUTO

      189     6675    4                       ARRAY_FLAG = TITEM$->DITEM.FLAGS.AFLAG;

   6675   1 0001E1  D844 0002                            LDR,R5   2,B4
          1 0001E3  5005                                 SOL,R5   5
          1 0001E4  D570 8000                            AND,R5   -32768,IMO
          1 0001E6  DF47 002C                            STR,R5   ARRAY_FLAG,AUTO

      190     6676    4                       ADDR_TYPE = TITEM$->DITEM.ADDR_TYPE;

   6676   1 0001E8  E804                                 LDR,R6   ,B4
          1 0001E9  6045                                 SOR,R6   5
          1 0001EA  E570 007F                            AND,R6   127,IMO
          1 0001EC  EF47 002D                            STR,R6   ADDR_TYPE,AUTO

      191     6677    4                       DATA_TYPE = TITEM$->DITEM.DATA_TYPE;

   6677   1 0001EE  D844 0001                            LDR,R5   1,B4
          1 0001F0  5048                                 SOR,R5   8
          1 0001F1  D570 003F                            AND,R5   63,IMO
          1 0001F3  DF47 0030                            STR,R5   DATA_TYPE,AUTO

      192     6678    4                       INVAL = TITEM$->DITEM.ADDRESS;

   6678   1 0001F5  8CC4 0002                            LDI      2,B4
PL6.E3A0      #001=GDK$RESADDR File=GDK$RESADDR.:E05TSI                          TUE 07/29/97 21:26 Page:49
          1 0001F7  8D47 0039                            SDI      INVAL,AUTO

      193     6679    4                       BITSIZE = DITEM$->DITEM.SIZE;
              6679                                /* Size of size param is in SIZE_ICODE DITEM */

   6679   1 0001F9  C846 0001                            LDR,R4   1,B6
          1 0001FB  C570 00FF                            AND,R4   255,IMO
          1 0001FD  CF05                                 STR,R4   ,B5

      194     6680    4                       CALL GETVAL(VAL,ADDR_TYPE,ARRAY_FLAG,DATA_TYPE,INVAL,BITSIZE)
              6680                                ALTRET(BADVAL);

   6680   1 0001FE  DFC7 007C                            STB,B5   @INVAL+2,AUTO
          1 000200  BBC7 0039                            LAB,B3   INVAL,AUTO
          1 000202  BFC7 007A                            STB,B3   @DATA_TYPE+2,AUTO
          1 000204  ABC7 0030                            LAB,B2   DATA_TYPE,AUTO
          1 000206  AFC7 0078                            STB,B2   @ARRAY_FLAG+2,AUTO
          1 000208  9BC7 002C                            LAB,B1   ARRAY_FLAG,AUTO
          1 00020A  9FC7 0076                            STB,B1   @ADDR_TYPE+2,AUTO
          1 00020C  EBC7 002D                            LAB,B6   ADDR_TYPE,AUTO
          1 00020E  EFC7 0074                            STB,B6   @VAL+2,AUTO
          1 000210  EBC7 0026                            LAB,B6   VAL,AUTO
          1 000212  EFC7 0072                            STB,B6   MSG$+5,AUTO
          1 000214  E3C0 02CA                            LNJ,B6   s:0,PREL
          1 000216       02C6                            DC       s:6804,PREL

      195     6681    4                       CALL GETVAL(VAL,%STATIC_ACODE,ARRAY_FLAG,DATA_TYPE,VAL,BITSIZE)
              6681                                ALTRET(BADVAL);

   6681   1 000217  EBF0 0000                            LAB,B6   0,IMO
          1 000219  DCC7 0010                            LDB,B5   @BITSIZE,AUTO
          1 00021B  DFC7 007C                            STB,B5   @INVAL+2,AUTO
          1 00021D  CBC7 0026                            LAB,B4   VAL,AUTO
          1 00021F  CFC7 007A                            STB,B4   @DATA_TYPE+2,AUTO
          1 000221  BBC7 0030                            LAB,B3   DATA_TYPE,AUTO
          1 000223  BFC7 0078                            STB,B3   @ARRAY_FLAG+2,AUTO
          1 000225  ABC7 002C                            LAB,B2   ARRAY_FLAG,AUTO
PL6.E3A0      #001=GDK$RESADDR File=GDK$RESADDR.:E05TSI                          TUE 07/29/97 21:26 Page:50
          1 000227  AFC7 0076                            STB,B2   @ADDR_TYPE+2,AUTO
          1 000229  EFC7 0074                            STB,B6   @VAL+2,AUTO
          1 00022B  9BC7 0026                            LAB,B1   VAL,AUTO
          1 00022D  9FC7 0072                            STB,B1   MSG$+5,AUTO
          1 00022F  E3C0 02AF                            LNJ,B6   s:0,PREL
          1 000231       02AB                            DC       s:6804,PREL

      196     6682    4                       END;

   6682   1 000232  0F81 001A                            B        s:6686,PREL

      197     6683    3                    ELSE
      198     6684    3                       CALL GETVAL(VAL,ADDR_TYPE,ARRAY_FLAG,

   6684   1 000234  DFC7 007C                            STB,B5   @INVAL+2,AUTO
          1 000236  CBC7 0039                            LAB,B4   INVAL,AUTO
          1 000238  CFC7 007A                            STB,B4   @DATA_TYPE+2,AUTO
          1 00023A  BBC7 0030                            LAB,B3   DATA_TYPE,AUTO
          1 00023C  BFC7 0078                            STB,B3   @ARRAY_FLAG+2,AUTO
          1 00023E  ABC7 002C                            LAB,B2   ARRAY_FLAG,AUTO
          1 000240  AFC7 0076                            STB,B2   @ADDR_TYPE+2,AUTO
          1 000242  9BC7 002D                            LAB,B1   ADDR_TYPE,AUTO
          1 000244  9FC7 0074                            STB,B1   @VAL+2,AUTO
          1 000246  EBC7 0026                            LAB,B6   VAL,AUTO
          1 000248  EFC7 0072                            STB,B6   MSG$+5,AUTO
          1 00024A  E3C0 0294                            LNJ,B6   s:0,PREL
          1 00024C       0290                            DC       s:6804,PREL

      199     6685    3                                DATA_TYPE,INVAL,BITSIZE) ALTRET(BADVAL);
      200     6686    3                    IF ADDR_TYPE = %CONST_ACODE THEN

   6686   1 00024D  E847 002D                            LDR,R6   ADDR_TYPE,AUTO
          1 00024F  6D42                                 CMV,R6   66
          1 000250  0981 0008                            BNE      s:6688,PREL

      201     6687    3                       BITSIZE = VAL;

PL6.E3A0      #001=GDK$RESADDR File=GDK$RESADDR.:E05TSI                          TUE 07/29/97 21:26 Page:51
   6687   1 000252  ECC7 0010                            LDB,B6   @BITSIZE,AUTO
          1 000254  D847 0027                            LDR,R5   VAL+1,AUTO
          1 000256  DF06                                 STR,R5   ,B6
          1 000257  0F81 0019                            B        s:6690,PREL

      202     6688    3                    ELSE BITSIZE = VAL * DITEM$->DITEM.SMULT;

   6688   1 000259  ACC7 0022                            LDB,B2   DITEM$,AUTO
          1 00025B  2C0B                                 LDV,R2   11
          1 00025C  6C07                                 LDV,R6   7
          1 00025D  BBC7 0090                            LAB,B3   @DATA_TYPE+2,AUTO
          1 00025F  3C00                                 LDV,R3   0
          1 000260  7C10                                 LDV,R7   16
          1 000261  D380 0000 0000  xent                 LNJ,B5   X6B_BLR
          1 000264  F847 0090                            LDR,R7   @DATA_TYPE+2,AUTO
          1 000266  7049                                 SOR,R7   9
          1 000267  6C00                                 LDV,R6   0
          1 000268  9BC7 0026                            LAB,B1   VAL,AUTO
          1 00026A  D380 0000 0000  xent                 LNJ,B5   X6D_MID
          1 00026D  ECC7 0010                            LDB,B6   @BITSIZE,AUTO
          1 00026F  E857                                 LDR,R6   R7
          1 000270  EF06                                 STR,R6   ,B6

      203     6689    3                 END /* CASE(TYPE_CODE) */;

      204     6690    2                 FIRST_PTR = %FALSE;

   6690   1 000271  8747 002F                            CL       FIRST_PTR,AUTO

      205     6691    2              END /* WHILE */;

   6691   1 000273  E847 002E                            LDR,R6   TYPE_CODE,AUTO
          1 000275  6D09                                 CMV,R6   9
          1 000276  0981 FDC4                            BNE      s:6604,PREL

      206     6692        %EJECT;
PL6.E3A0      #001=GDK$RESADDR File=GDK$RESADDR.:E05TSI                          TUE 07/29/97 21:26 Page:52
      207     6693        /* Process ZITEM */
      208     6694    1   PROCESS_ZITEM:
      209     6695    1           LPTR = 0;

   6695   1 000278  ECC7 000E            PROCESS_ZITEM   LDB,B6   @LPTR,AUTO
          1 00027A  8706                                 CL       ,B6
          1 00027B  8746 0001                            CL       1,B6

      210     6696    1           ADDR_TYPE = ZITEM$->ZITEM.ADDR_TYPE;

   6696   1 00027D  DCC7 001A                            LDB,B5   ZITEM$,AUTO
          1 00027F  E285                                 LLH,R6   ,B5
          1 000280  EF47 002D                            STR,R6   ADDR_TYPE,AUTO

      211     6697    2           IF PLVL = 1 THEN DO;

   6697   1 000282  D847 0028                            LDR,R5   PLVL,AUTO
          1 000284  5D01                                 CMV,R5   1
          1 000285  0981 003B                            BNE      s:6706,PREL

      212     6698    3              IF SEG ~= 3 THEN DO;

   6698   1 000287  CCC7 000A                            LDB,B4   @SEG,AUTO
          1 000289  C804                                 LDR,R4   ,B4
          1 00028A  4D03                                 CMV,R4   3
          1 00028B  0901 0020                            BE       s:6703,PREL

      213     6699    3                 LPTR = ZITEM$->ZITEM.ADDRESS.W;

   6699   1 00028D  8CC5 0002                            LDI      2,B5
          1 00028F  E570 000F                            AND,R6   15,IMO
          1 000291  8D47 0090                            SDI      @DATA_TYPE+2,AUTO
          1 000293  ABC7 0090                            LAB,B2   @DATA_TYPE+2,AUTO
          1 000295  2C00                                 LDV,R2   0
          1 000296  6C04                                 LDV,R6   4
          1 000297  BB86                                 LAB,B3   ,B6
          1 000298  3C00                                 LDV,R3   0
PL6.E3A0      #001=GDK$RESADDR File=GDK$RESADDR.:E05TSI                          TUE 07/29/97 21:26 Page:53
          1 000299  0008                                 MMM

      214     6700    3                 BITOFF = ZITEM$->ZITEM.ADDRESS.C * 8 + ZITEM$->ZITEM.ADDRESS.B;

   6700   1 00029A  DCC7 001A                            LDB,B5   ZITEM$,AUTO
          1 00029C  E845 0002                            LDR,R6   2,B5
          1 00029E  604C                                 SOR,R6   12
          1 00029F  E570 0008                            AND,R6   8,IMO
          1 0002A1  D845 0002                            LDR,R5   2,B5
          1 0002A3  504C                                 SOR,R5   12
          1 0002A4  D570 0007                            AND,R5   7,IMO
          1 0002A6  EA55                                 ADD,R6   R5
          1 0002A7  ACC7 0012                            LDB,B2   @BITOFF,AUTO
          1 0002A9  EF02                                 STR,R6   ,B2

      215     6701    3                 GOTO RET_NOT_IS;

   6701   1 0002AA  0F81 0224                            B        s:6797,PREL

      216     6702    3                 END;
      217     6703    2              LPTR = PNTR_S.W(0);

   6703   1 0002AC  8CC7 0059                            LDI      PNTR,AUTO
          1 0002AE  E570 000F                            AND,R6   15,IMO
          1 0002B0  8D47 0090                            SDI      @DATA_TYPE+2,AUTO
          1 0002B2  ABC7 0090                            LAB,B2   @DATA_TYPE+2,AUTO
          1 0002B4  2C00                                 LDV,R2   0
          1 0002B5  6C04                                 LDV,R6   4
          1 0002B6  BB86                                 LAB,B3   ,B6
          1 0002B7  3C00                                 LDV,R3   0
          1 0002B8  0008                                 MMM

      218     6704    2              BITOFF = PNTR_S.C(0) * 8;

   6704   1 0002B9  DCC7 0012                            LDB,B5   @BITOFF,AUTO
          1 0002BB  E847 0059                            LDR,R6   PNTR,AUTO
          1 0002BD  604C                                 SOR,R6   12
PL6.E3A0      #001=GDK$RESADDR File=GDK$RESADDR.:E05TSI                          TUE 07/29/97 21:26 Page:54
          1 0002BE  E570 0008                            AND,R6   8,IMO
          1 0002C0  EF05                                 STR,R6   ,B5

      219     6705    2              END;

      220     6706    2           DO CASE(ADDR_TYPE);

   6706   1 0002C1  B847 002D                            LDR,R3   ADDR_TYPE,AUTO
          1 0002C3  3D45                                 CMV,R3   69
          1 0002C4  0281 020A                            BGE      s:6797,PREL
          1 0002C6  A830 0000 02CC  01                   LDR,R2   s:6706+11,R3
          1 0002C9  83A0 0000 0311  01                   JMP      s:6708,R2
          1 0002CC       00EA                            DC       s:6759,PREL
          1 0002CD       00EA                            DC       s:6759,PREL
          1 0002CE       00EA                            DC       s:6759,PREL
          1 0002CF       00EA                            DC       s:6759,PREL
          1 0002D0       00EA                            DC       s:6759,PREL
          1 0002D1       01BE                            DC       s:6797,PREL
          1 0002D2       01BE                            DC       s:6797,PREL
          1 0002D3       01BE                            DC       s:6797,PREL
          1 0002D4       01BE                            DC       s:6797,PREL
          1 0002D5       01BE                            DC       s:6797,PREL
          1 0002D6       01BE                            DC       s:6797,PREL
          1 0002D7       01BE                            DC       s:6797,PREL
          1 0002D8       01BE                            DC       s:6797,PREL
          1 0002D9       01BE                            DC       s:6797,PREL
          1 0002DA       01BE                            DC       s:6797,PREL
          1 0002DB       01BE                            DC       s:6797,PREL
          1 0002DC       01BE                            DC       s:6797,PREL
          1 0002DD       01BE                            DC       s:6797,PREL
          1 0002DE       01BE                            DC       s:6797,PREL
          1 0002DF       01BE                            DC       s:6797,PREL
          1 0002E0       01BE                            DC       s:6797,PREL
          1 0002E1       01BE                            DC       s:6797,PREL
          1 0002E2       01BE                            DC       s:6797,PREL
          1 0002E3       01BE                            DC       s:6797,PREL
          1 0002E4       01BE                            DC       s:6797,PREL
PL6.E3A0      #001=GDK$RESADDR File=GDK$RESADDR.:E05TSI                          TUE 07/29/97 21:26 Page:55
          1 0002E5       01BE                            DC       s:6797,PREL
          1 0002E6       01BE                            DC       s:6797,PREL
          1 0002E7       01BE                            DC       s:6797,PREL
          1 0002E8       01BE                            DC       s:6797,PREL
          1 0002E9       01BE                            DC       s:6797,PREL
          1 0002EA       01BE                            DC       s:6797,PREL
          1 0002EB       01BE                            DC       s:6797,PREL
          1 0002EC       01BE                            DC       s:6797,PREL
          1 0002ED       01BE                            DC       s:6797,PREL
          1 0002EE       01BE                            DC       s:6797,PREL
          1 0002EF       01BE                            DC       s:6797,PREL
          1 0002F0       01BE                            DC       s:6797,PREL
          1 0002F1       01BE                            DC       s:6797,PREL
          1 0002F2       01BE                            DC       s:6797,PREL
          1 0002F3       01BE                            DC       s:6797,PREL
          1 0002F4       01BE                            DC       s:6797,PREL
          1 0002F5       01BE                            DC       s:6797,PREL
          1 0002F6       01BE                            DC       s:6797,PREL
          1 0002F7       01BE                            DC       s:6797,PREL
          1 0002F8       01BE                            DC       s:6797,PREL
          1 0002F9       01BE                            DC       s:6797,PREL
          1 0002FA       01BE                            DC       s:6797,PREL
          1 0002FB       01BE                            DC       s:6797,PREL
          1 0002FC       01BE                            DC       s:6797,PREL
          1 0002FD       01BE                            DC       s:6797,PREL
          1 0002FE       01BE                            DC       s:6797,PREL
          1 0002FF       01BE                            DC       s:6797,PREL
          1 000300       01BE                            DC       s:6797,PREL
          1 000301       01BE                            DC       s:6797,PREL
          1 000302       01BE                            DC       s:6797,PREL
          1 000303       01BE                            DC       s:6797,PREL
          1 000304       01BE                            DC       s:6797,PREL
          1 000305       01BE                            DC       s:6797,PREL
          1 000306       01BE                            DC       s:6797,PREL
          1 000307       01BE                            DC       s:6797,PREL
          1 000308       01BE                            DC       s:6797,PREL
          1 000309       01BE                            DC       s:6797,PREL
PL6.E3A0      #001=GDK$RESADDR File=GDK$RESADDR.:E05TSI                          TUE 07/29/97 21:26 Page:56
          1 00030A       01BE                            DC       s:6797,PREL
          1 00030B       01BE                            DC       s:6797,PREL
          1 00030C       0000                            DC       s:6708,PREL
          1 00030D       002B                            DC       s:6718,PREL
          1 00030E       01BE                            DC       s:6797,PREL
          1 00030F       00DF                            DC       s:6755,PREL
          1 000310       00DF                            DC       s:6755,PREL

      221     6707    2              CASE(%DESC_ACODE);

      222     6708    3                 DO CASE(ZITEM$->ZITEM.VD.TYPE);

   6708   1 000311  DCC7 001A                            LDB,B5   ZITEM$,AUTO
          1 000313  9845 0002                            LDR,R1   2,B5
          1 000315  9570 00FF                            AND,R1   255,IMO
          1 000317  1EF7                                 ADV,R1   -9
          1 000318  1D01                                 CMV,R1   1
          1 000319  0281 0019                            BGE      s:6714,PREL
          1 00031B  B810 0000 0321  01                   LDR,R3   s:6708+16,R1
          1 00031E  83B0 0000 0322  01                   JMP      s:6710,R3
          1 000321       0000                            DC       s:6710,PREL

      223     6709    3                    CASE(9) /* $Bn */;

      224     6710    3                       SEG = 10;

   6710   1 000322  CCC7 000A                            LDB,B4   @SEG,AUTO
          1 000324  6C0A                                 LDV,R6   10
          1 000325  EF04                                 STR,R6   ,B4

      225     6711    3                       BITSIZE = 32;

   6711   1 000326  BCC7 0010                            LDB,B3   @BITSIZE,AUTO
          1 000328  5C20                                 LDV,R5   32
          1 000329  DF03                                 STR,R5   ,B3

      226     6712    3                       DESC# = ZITEM$->ZITEM.VD.DISP;
PL6.E3A0      #001=GDK$RESADDR File=GDK$RESADDR.:E05TSI                          TUE 07/29/97 21:26 Page:57

   6712   1 00032A  ACC7 000C                            LDB,B2   @DESC#,AUTO
          1 00032C  C845 0003                            LDR,R4   3,B5
          1 00032E  C570 00FF                            AND,R4   255,IMO
          1 000330  CF02                                 STR,R4   ,B2
          1 000331  0F81 019D                            B        s:6797,PREL

      227     6713    3                    CASE(ELSE);

      228     6714    3                       GD_DATA.GD.ERROR = %GD#RSPDDNOTL6;

   6714   1 000333  CC80 0000 0000  xsym                 LDB,B4   GD$DELTA_DATA$
          1 000336  6C3A                                 LDV,R6   58
          1 000337  EF44 0174                            STR,R6   372,B4

      229     6715    3                       ALTRETURN;

   6715   1 000339  C380 0000 0000  xent                 LNJ,B4   X6A_AALT

      230     6716    3                    END /* CASE */;

      231     6717    2              CASE(%SPEC_ACODE);

      232     6718    2                 SEG = 9;

   6718   1 00033C  DCC7 000A                            LDB,B5   @SEG,AUTO
          1 00033E  6C09                                 LDV,R6   9
          1 00033F  EF05                                 STR,R6   ,B5

      233     6719    3                 DO CASE(ZITEM$->ZITEM.VS.ID);

   6719   1 000340  CCC7 001A                            LDB,B4   ZITEM$,AUTO
          1 000342  B2C4 0003                            LLH,R3   3,B4
          1 000344  3EFB                                 ADV,R3   -5
          1 000345  3D2B                                 CMV,R3   43
          1 000346  0281 00A0                            BGE      s:6751,PREL
          1 000348  A830 0000 034E  01                   LDR,R2   s:6719+14,R3
PL6.E3A0      #001=GDK$RESADDR File=GDK$RESADDR.:E05TSI                          TUE 07/29/97 21:26 Page:58
          1 00034B  83A0 0000 0379  01                   JMP      s:6721,R2
          1 00034E       0028                            DC       s:6733,PREL
          1 00034F       006E                            DC       s:6751,PREL
          1 000350       006E                            DC       s:6751,PREL
          1 000351       006E                            DC       s:6751,PREL
          1 000352       006E                            DC       s:6751,PREL
          1 000353       0000                            DC       s:6721,PREL
          1 000354       000A                            DC       s:6724,PREL
          1 000355       0014                            DC       s:6727,PREL
          1 000356       006E                            DC       s:6751,PREL
          1 000357       006E                            DC       s:6751,PREL
          1 000358       006E                            DC       s:6751,PREL
          1 000359       001E                            DC       s:6730,PREL
          1 00035A       006E                            DC       s:6751,PREL
          1 00035B       006E                            DC       s:6751,PREL
          1 00035C       006E                            DC       s:6751,PREL
          1 00035D       006E                            DC       s:6751,PREL
          1 00035E       006E                            DC       s:6751,PREL
          1 00035F       006E                            DC       s:6751,PREL
          1 000360       006E                            DC       s:6751,PREL
          1 000361       006E                            DC       s:6751,PREL
          1 000362       006E                            DC       s:6751,PREL
          1 000363       006E                            DC       s:6751,PREL
          1 000364       006E                            DC       s:6751,PREL
          1 000365       006E                            DC       s:6751,PREL
          1 000366       006E                            DC       s:6751,PREL
          1 000367       006E                            DC       s:6751,PREL
          1 000368       006E                            DC       s:6751,PREL
          1 000369       006E                            DC       s:6751,PREL
          1 00036A       006E                            DC       s:6751,PREL
          1 00036B       006E                            DC       s:6751,PREL
          1 00036C       006E                            DC       s:6751,PREL
          1 00036D       006E                            DC       s:6751,PREL
          1 00036E       006E                            DC       s:6751,PREL
          1 00036F       006E                            DC       s:6751,PREL
          1 000370       006E                            DC       s:6751,PREL
          1 000371       006E                            DC       s:6751,PREL
PL6.E3A0      #001=GDK$RESADDR File=GDK$RESADDR.:E05TSI                          TUE 07/29/97 21:26 Page:59
          1 000372       006E                            DC       s:6751,PREL
          1 000373       006E                            DC       s:6751,PREL
          1 000374       0032                            DC       s:6736,PREL
          1 000375       003C                            DC       s:6739,PREL
          1 000376       0046                            DC       s:6742,PREL
          1 000377       0050                            DC       s:6745,PREL
          1 000378       005F                            DC       s:6748,PREL

      234     6720    3                    CASE(%CI_RTN);

      235     6721    3                       LPTR = 20;

   6721   1 000379  8CF0 0000 0014                       LDI      20,IMO
          1 00037C  8D06                                 SDI      ,B6

      236     6722    3                       BITSIZE = 8;

   6722   1 00037D  BCC7 0010                            LDB,B3   @BITSIZE,AUTO
          1 00037F  5C08                                 LDV,R5   8
          1 000380  DF03                                 STR,R5   ,B3
          1 000381  0F81 014D                            B        s:6797,PREL

      237     6723    3                    CASE(%T_RTN);

      238     6724    3                       LPTR = 14;

   6724   1 000383  8CF0 0000 000E                       LDI      14,IMO
          1 000386  8D06                                 SDI      ,B6

      239     6725    3                       BITSIZE = 32;

   6725   1 000387  BCC7 0010                            LDB,B3   @BITSIZE,AUTO
          1 000389  5C20                                 LDV,R5   32
          1 00038A  DF03                                 STR,R5   ,B3
          1 00038B  0F81 0143                            B        s:6797,PREL

      240     6726    3                    CASE(%S_RTN);
PL6.E3A0      #001=GDK$RESADDR File=GDK$RESADDR.:E05TSI                          TUE 07/29/97 21:26 Page:60

      241     6727    3                       LPTR = 15;

   6727   1 00038D  8CF0 0000 000F                       LDI      15,IMO
          1 000390  8D06                                 SDI      ,B6

      242     6728    3                       BITSIZE = 16;

   6728   1 000391  BCC7 0010                            LDB,B3   @BITSIZE,AUTO
          1 000393  5C10                                 LDV,R5   16
          1 000394  DF03                                 STR,R5   ,B3
          1 000395  0F81 0139                            B        s:6797,PREL

      243     6729    3                    CASE(%A_RTN);

      244     6730    3                       LPTR = 16;

   6730   1 000397  8CF0 0000 0010                       LDI      16,IMO
          1 00039A  8D06                                 SDI      ,B6

      245     6731    3                       BITSIZE = 32;

   6731   1 00039B  BCC7 0010                            LDB,B3   @BITSIZE,AUTO
          1 00039D  5C20                                 LDV,R5   32
          1 00039E  DF03                                 STR,R5   ,B3
          1 00039F  0F81 012F                            B        s:6797,PREL

      246     6732    3                    CASE(%IND_RTN);

      247     6733    3                       LPTR = 21;

   6733   1 0003A1  8CF0 0000 0015                       LDI      21,IMO
          1 0003A4  8D06                                 SDI      ,B6

      248     6734    3                       BITSIZE = 16;

   6734   1 0003A5  BCC7 0010                            LDB,B3   @BITSIZE,AUTO
PL6.E3A0      #001=GDK$RESADDR File=GDK$RESADDR.:E05TSI                          TUE 07/29/97 21:26 Page:61
          1 0003A7  5C10                                 LDV,R5   16
          1 0003A8  DF03                                 STR,R5   ,B3
          1 0003A9  0F81 0125                            B        s:6797,PREL

      249     6735    3                    CASE(%IV_RTN);

      250     6736    3                       LPTR = 17;

   6736   1 0003AB  8CF0 0000 0011                       LDI      17,IMO
          1 0003AE  8D06                                 SDI      ,B6

      251     6737    3                       BITSIZE = 32;

   6737   1 0003AF  BCC7 0010                            LDB,B3   @BITSIZE,AUTO
          1 0003B1  5C20                                 LDV,R5   32
          1 0003B2  DF03                                 STR,R5   ,B3
          1 0003B3  0F81 011B                            B        s:6797,PREL

      252     6738    3                    CASE(%Z_RTN);

      253     6739    3                       LPTR = 18;

   6739   1 0003B5  8CF0 0000 0012                       LDI      18,IMO
          1 0003B8  8D06                                 SDI      ,B6

      254     6740    3                       BITSIZE = 16;

   6740   1 0003B9  BCC7 0010                            LDB,B3   @BITSIZE,AUTO
          1 0003BB  5C10                                 LDV,R5   16
          1 0003BC  DF03                                 STR,R5   ,B3
          1 0003BD  0F81 0111                            B        s:6797,PREL

      255     6741    3                    CASE(%ASV_RTN);

      256     6742    3                       LPTR = 19;

   6742   1 0003BF  8CF0 0000 0013                       LDI      19,IMO
PL6.E3A0      #001=GDK$RESADDR File=GDK$RESADDR.:E05TSI                          TUE 07/29/97 21:26 Page:62
          1 0003C2  8D06                                 SDI      ,B6

      257     6743    3                       BITSIZE = 32;

   6743   1 0003C3  BCC7 0010                            LDB,B3   @BITSIZE,AUTO
          1 0003C5  5C20                                 LDV,R5   32
          1 0003C6  DF03                                 STR,R5   ,B3
          1 0003C7  0F81 0107                            B        s:6797,PREL

      258     6744    3                    CASE(%R_RTN);

      259     6745    3                       LPTR = ZITEM$->ZITEM.VS.SZ - 1;

   6745   1 0003C9  F844 0003                            LDR,R7   3,B4
          1 0003CB  F570 00FF                            AND,R7   255,IMO
          1 0003CD  6C00                                 LDV,R6   0
          1 0003CE  8470 FFFF FFFF                       AID      -1,IMO
          1 0003D1  8D06                                 SDI      ,B6

      260     6746    3                       BITSIZE = 16;

   6746   1 0003D2  BCC7 0010                            LDB,B3   @BITSIZE,AUTO
          1 0003D4  5C10                                 LDV,R5   16
          1 0003D5  DF03                                 STR,R5   ,B3
          1 0003D6  0F81 00F8                            B        s:6797,PREL

      261     6747    3                    CASE(%M_RTN);

      262     6748    3                       LPTR = 6 + ZITEM$->ZITEM.VS.SZ;

   6748   1 0003D8  F844 0003                            LDR,R7   3,B4
          1 0003DA  F570 00FF                            AND,R7   255,IMO
          1 0003DC  6C00                                 LDV,R6   0
          1 0003DD  8470 0000 0006                       AID      6,IMO
          1 0003E0  8D06                                 SDI      ,B6

      263     6749    3                       BITSIZE = 16;
PL6.E3A0      #001=GDK$RESADDR File=GDK$RESADDR.:E05TSI                          TUE 07/29/97 21:26 Page:63

   6749   1 0003E1  BCC7 0010                            LDB,B3   @BITSIZE,AUTO
          1 0003E3  5C10                                 LDV,R5   16
          1 0003E4  DF03                                 STR,R5   ,B3
          1 0003E5  0F81 00E9                            B        s:6797,PREL

      264     6750    3                    CASE( ELSE );

      265     6751    3                       GD_DATA.GD.ERROR = %GD#RSPDDNOTL6;

   6751   1 0003E7  BC80 0000 0000  xsym                 LDB,B3   GD$DELTA_DATA$
          1 0003EA  5C3A                                 LDV,R5   58
          1 0003EB  DF43 0174                            STR,R5   372,B3

      266     6752    3                       ALTRETURN;

   6752   1 0003ED  C380 0000 0000  xent                 LNJ,B4   X6A_AALT

      267     6753    3                    END;                       /* DO CASE(ZITEM$->ZITEM.VS.ID) */

      268     6754    2              CASE(%BIGBASED_ACODE,%BIGSTATIC_ACODE);

      269     6755    2                 LPTR = LPTR + ZITEM$->ZITEM.VALUE.V;

   6755   1 0003F0  DCC7 001A                            LDB,B5   ZITEM$,AUTO
          1 0003F2  8C86                                 LDI      ,B6
          1 0003F3  8445 0002                            AID      2,B5
          1 0003F5  8D06                                 SDI      ,B6

      270     6756    2                 BITOFF = 0;

   6756   1 0003F6  CCC7 0012                            LDB,B4   @BITOFF,AUTO
          1 0003F8  8704                                 CL       ,B4

      271     6757    2                 GOTO BASED_STATIC;

   6757   1 0003F9  0F81 0053                            B        s:6772,PREL
PL6.E3A0      #001=GDK$RESADDR File=GDK$RESADDR.:E05TSI                          TUE 07/29/97 21:26 Page:64

      272     6758    2              CASE(%BASED_ACODE,%STATIC_ACODE,%AUTO_ACODE,%PARM_ACODE,%DCB_ACODE);

      273     6759    2                 LPTR = LPTR + ZITEM$->ZITEM.ADDRESS.W;

   6759   1 0003FB  DCC7 001A                            LDB,B5   ZITEM$,AUTO
          1 0003FD  8CC5 0002                            LDI      2,B5
          1 0003FF  E570 000F                            AND,R6   15,IMO
          1 000401  8406                                 AID      ,B6
          1 000402  8D06                                 SDI      ,B6

      274     6760    2                BITOFF = BITOFF + ZITEM$->ZITEM.ADDRESS.C * 8 + ZITEM$->ZITEM.ADDRESS.
              6760                          B;

   6760   1 000403  CCC7 0012                            LDB,B4   @BITOFF,AUTO
          1 000405  D845 0002                            LDR,R5   2,B5
          1 000407  504C                                 SOR,R5   12
          1 000408  D570 0008                            AND,R5   8,IMO
          1 00040A  DA04                                 ADD,R5   ,B4
          1 00040B  C845 0002                            LDR,R4   2,B5
          1 00040D  404C                                 SOR,R4   12
          1 00040E  C570 0007                            AND,R4   7,IMO
          1 000410  CA55                                 ADD,R4   R5
          1 000411  CF04                                 STR,R4   ,B4

      275     6761    3                 IF ILVL ~= 0 THEN DO;

   6761   1 000412  E847 0029                            LDR,R6   ILVL,AUTO
          1 000414  6901 0038                            BEZ,R6   s:6772,PREL

      276     6762    3                    INDX = 0;

   6762   1 000416  8747 0034                            CL       INDX,AUTO
          1 000418  8747 0035                            CL       INDX+1,AUTO

      277     6763    4                    DO I = 0 TO ILVL - 1;

PL6.E3A0      #001=GDK$RESADDR File=GDK$RESADDR.:E05TSI                          TUE 07/29/97 21:26 Page:65
   6763   1 00041A  8747 0036                            CL       I,AUTO
          1 00041C  0F81 0012                            B        s:6765+2,PREL

      278     6764    4                       INDX = INDX + (IDX.CURMULT(I) * IDX.ELMNTSIZ(I));

   6764   1 00041E  B847 0036                            LDR,R3   I,AUTO
          1 000420  3F03                                 MLV,R3   3
          1 000421  3E3B                                 ADV,R3   59
          1 000422  A847 0036                            LDR,R2   I,AUTO
          1 000424  2F03                                 MLV,R2   3
          1 000425  2E3C                                 ADV,R2   60
          1 000426  F837                                 LDR,R7   ,AUTO,R3
          1 000427  FB27                                 MUL,R7   ,AUTO,R2
          1 000428  6C00                                 LDV,R6   0
          1 000429  8447 0034                            AID      INDX,AUTO
          1 00042B  8D47 0034                            SDI      INDX,AUTO

      279     6765    4                       END;

   6765   1 00042D  8AC7 0036                            INC      I,AUTO
          1 00042F  E847 0036                            LDR,R6   I,AUTO
          1 000431  E947 0029                            CMR,R6   ILVL,AUTO
          1 000433  026B                                 BL       s:6764,SPREL

      280     6766    3                    LPTR = LPTR + INDX / 16;

   6766   1 000434  8CC7 0034                            LDI      INDX,AUTO
          1 000436  70C4                                 DOR,R7   4
          1 000437  ECC7 000E                            LDB,B6   @LPTR,AUTO
          1 000439  8406                                 AID      ,B6
          1 00043A  8D06                                 SDI      ,B6

      281     6767    3                    BITOFF = BITOFF + MOD(INDX,16);

   6767   1 00043B  8CC7 0034                            LDI      INDX,AUTO
          1 00043D  E857                                 LDR,R6   R7
          1 00043E  E570 000F                            AND,R6   15,IMO
PL6.E3A0      #001=GDK$RESADDR File=GDK$RESADDR.:E05TSI                          TUE 07/29/97 21:26 Page:66
          1 000440  DCC7 0012                            LDB,B5   @BITOFF,AUTO
          1 000442  EA05                                 ADD,R6   ,B5
          1 000443  EF05                                 STR,R6   ,B5

      282     6768    4                    IF BITOFF > 15 THEN DO;

   6768   1 000444  6D0F                                 CMV,R6   15
          1 000445  0381 0007                            BLE      s:6772,PREL

      283     6769    4                       LPTR = LPTR + 1;

   6769   1 000447  8AC6 0001                            INC      1,B6
          1 000449  8E86                                 CAD      ,B6

      284     6770    4                       BITOFF = BITOFF - 16;

   6770   1 00044A  E805                                 LDR,R6   ,B5
          1 00044B  6EF0                                 ADV,R6   -16
          1 00044C  EF05                                 STR,R6   ,B5

      285     6771    4                       END;

      286     6772    3                    END;

      287     6773    2   BASED_STATIC:
      288     6774    3                 IF EXPR_OP ~= %NOMOD_OPCODE THEN DO;

   6774   1 00044D  E847 0033            BASED_STATIC    LDR,R6   EXPR_OP,AUTO
          1 00044F  6901 0062                            BEZ,R6   s:6790,PREL

      289     6775    4                    DO CASE(EXPR_OP);

   6775   1 000451  B856                                 LDR,R3   R6
          1 000452  3D06                                 CMV,R3   6
          1 000453  0281 004D                            BGE      s:6783,PREL
          1 000455  A830 0000 045B  01                   LDR,R2   s:6775+10,R3
          1 000458  83A0 0000 0461  01                   JMP      s:6777,R2
PL6.E3A0      #001=GDK$RESADDR File=GDK$RESADDR.:E05TSI                          TUE 07/29/97 21:26 Page:67
          1 00045B       0040                            DC       s:6783,PREL
          1 00045C       0000                            DC       s:6777,PREL
          1 00045D       0014                            DC       s:6779,PREL
          1 00045E       0040                            DC       s:6783,PREL
          1 00045F       0040                            DC       s:6783,PREL
          1 000460       0028                            DC       s:6781,PREL

      290     6776    4                       CASE(%PLUS_OPCODE);

      291     6777    4                          LPTR_S.W = LPTR_S.W + EXPVAL;

   6777   1 000461  8C86                                 LDI      ,B6
          1 000462  E570 000F                            AND,R6   15,IMO
          1 000464  8447 0031                            AID      EXPVAL,AUTO
          1 000466  708C                                 DOL,R7   12
          1 000467  8D47 0090                            SDI      @DATA_TYPE+2,AUTO
          1 000469  ABC7 0090                            LAB,B2   @DATA_TYPE+2,AUTO
          1 00046B  2C00                                 LDV,R2   0
          1 00046C  6C20                                 LDV,R6   32
          1 00046D  BB86                                 LAB,B3   ,B6
          1 00046E  3C0C                                 LDV,R3   12
          1 00046F  7C14                                 LDV,R7   20
          1 000470  D380 0000 0000  xent                 LNJ,B5   X6B_BLR
          1 000473  0F81 0036                            B        s:6786,PREL

      292     6778    4                       CASE(%MINUS_OPCODE);

      293     6779    4                          LPTR_S.W = LPTR_S.W - EXPVAL;

   6779   1 000475  8C86                                 LDI      ,B6
          1 000476  E570 000F                            AND,R6   15,IMO
          1 000478  84C7 0031                            SID      EXPVAL,AUTO
          1 00047A  708C                                 DOL,R7   12
          1 00047B  8D47 0090                            SDI      @DATA_TYPE+2,AUTO
          1 00047D  ABC7 0090                            LAB,B2   @DATA_TYPE+2,AUTO
          1 00047F  2C00                                 LDV,R2   0
          1 000480  6C20                                 LDV,R6   32
PL6.E3A0      #001=GDK$RESADDR File=GDK$RESADDR.:E05TSI                          TUE 07/29/97 21:26 Page:68
          1 000481  BB86                                 LAB,B3   ,B6
          1 000482  3C0C                                 LDV,R3   12
          1 000483  7C14                                 LDV,R7   20
          1 000484  D380 0000 0000  xent                 LNJ,B5   X6B_BLR
          1 000487  0F81 0022                            B        s:6786,PREL

      294     6780    4                       CASE(%MULT_OPCODE);

      295     6781    4                          LPTR_S.W = LPTR_S.W * EXPVAL;

   6781   1 000489  8C86                                 LDI      ,B6
          1 00048A  E570 000F                            AND,R6   15,IMO
          1 00048C  9BC7 0031                            LAB,B1   EXPVAL,AUTO
          1 00048E  D380 0000 0000  xent                 LNJ,B5   X6D_MID
          1 000491  708C                                 DOL,R7   12
          1 000492  8D47 0090                            SDI      @DATA_TYPE+2,AUTO
          1 000494  ABC7 0090                            LAB,B2   @DATA_TYPE+2,AUTO
          1 000496  2C00                                 LDV,R2   0
          1 000497  6C20                                 LDV,R6   32
          1 000498  BCC7 000E                            LDB,B3   @LPTR,AUTO
          1 00049A  3C0C                                 LDV,R3   12
          1 00049B  7C14                                 LDV,R7   20
          1 00049C  D380 0000 0000  xent                 LNJ,B5   X6B_BLR
          1 00049F  0F81 000A                            B        s:6786,PREL

      296     6782    4                       CASE(ELSE);

      297     6783    4                          GD_DATA.GD.ERROR = %GD#RSPUNSUPRT;

   6783   1 0004A1  DC80 0000 0000  xsym                 LDB,B5   GD$DELTA_DATA$
          1 0004A4  5C38                                 LDV,R5   56
          1 0004A5  DF45 0174                            STR,R5   372,B5

      298     6784    4                          ALTRETURN;

   6784   1 0004A7  C380 0000 0000  xent                 LNJ,B4   X6A_AALT

PL6.E3A0      #001=GDK$RESADDR File=GDK$RESADDR.:E05TSI                          TUE 07/29/97 21:26 Page:69
      299     6785    4                       END /* CASE */;

      300     6786    3                    LPTR_S.B = 0;

   6786   1 0004AA  ECC7 000E                            LDB,B6   @LPTR,AUTO
          1 0004AC  8806                                 LBF,'7000'X       ,B6
          1 0004AD       7000

      301     6787    3                    LPTR_S.C = 0;

   6787   1 0004AE  8806                                 LBF,'8000'X       ,B6
   6787   1 0004AF       8000

      302     6788    3                    EXPR_OP = %NOMOD_OPCODE;

   6788   1 0004B0  8747 0033                            CL       EXPR_OP,AUTO

      303     6789    3                    END;

      304     6790    3                 IF ADDR_TYPE = %AUTO_ACODE THEN DO;

   6790   1 0004B2  E847 002D                            LDR,R6   ADDR_TYPE,AUTO
          1 0004B4  6D01                                 CMV,R6   1
          1 0004B5  0981 0019                            BNE      s:6797,PREL

      305     6791    3                    IF GD_DATA.GD.INTERPRETIVE THEN

   6791   1 0004B7  DC80 0000 0000  xsym                 LDB,B5   GD$DELTA_DATA$
          1 0004BA  82C5 014C                            LB,'4000'X        332,B5
          1 0004BC       4000
          1 0004BD  0581 0007                            BBF      s:6794,PREL

      306     6792    3                       B7$ = GD_DATA.GD.AUTO$;

   6792   1 0004BF  CCC5 0150                            LDB,B4   336,B5
          1 0004C1  CFC7 0037                            STB,B4   B7$,AUTO
          1 0004C3  0F81 0007                            B        s:6795,PREL
PL6.E3A0      #001=GDK$RESADDR File=GDK$RESADDR.:E05TSI                          TUE 07/29/97 21:26 Page:70

      307     6793    3                    ELSE
      308     6794    3                       B7$ = GD_DATA.DELTAINFO.TSA$->G$TSA.ISA.REGS.B7$;

   6794   1 0004C5  CCC5 0006                            LDB,B4   6,B5
          1 0004C7  BCC4 0018                            LDB,B3   24,B4
          1 0004C9  BFC7 0037                            STB,B3   B7$,AUTO

      309     6795    3                    LPTR = LPTR + B7;

   6795   1 0004CB  8C86                                 LDI      ,B6
          1 0004CC  8447 0037                            AID      B7$,AUTO
          1 0004CE  8D06                                 SDI      ,B6

      310     6796    3                    END;

      311     6797    2              END /* CASE(ADDR_TYPE) */;

      312     6798        %EJECT;
PL6.E3A0      #001=GDK$RESADDR File=GDK$RESADDR.:E05TSI                          TUE 07/29/97 21:26 Page:71
      313     6799    1   RET_NOT_IS:
      314     6800    1           IF SEG ~= 3 THEN

   6800   1 0004CF  DCC7 000A            RET_NOT_IS      LDB,B5   @SEG,AUTO
          1 0004D1  E805                                 LDR,R6   ,B5
          1 0004D2  6D03                                 CMV,R6   3
          1 0004D3  0901 0005                            BE       s:6802,PREL

      315     6801    1              NOT_IS = '1'B;

   6801   1 0004D5  CCC7 0014                            LDB,B4   @NOT_IS,AUTO
          1 0004D7  8904                                 LBT,'8000'X       ,B4
          1 0004D8       8000

      316     6802    1           RETURN;

   6802   1 0004D9  C380 0000 0000  xent                 LNJ,B4   X6A_ARET

      317     6803    1   BADVAL:
      318     6804    1           ALTRETURN;

   6804   1 0004DC  C380 0000 0000  xent BADVAL          LNJ,B4   X6A_AALT

      319     6805        /**/
      320     6806        /* END GDK$RESADDR */
      321     6807        /**/
      322     6808        %EJECT;
PL6.E3A0      #001=GDK$RESADDR File=GDK$RESADDR.:E05TSI                          TUE 07/29/97 21:26 Page:72
      323     6809    1   GETVAL: PROC(VAL,ADDR_TYPE,ARRAY_FLAG,

   6809   1 0004DF  EFC7 0070            GETVAL          STB,B6   MSG$+3,AUTO

      324     6810    1                DATA_TYPE,INVAL,BITSIZE) ALTRET;
      325     6811        /**/
      326     6812        /* Parameters */
      327     6813        /**/
      328     6814    2   DCL VAL UBIN(32);
      329     6815    2   DCL VAL_A(0:31) REDEF VAL BIT(1) UNAL;
      330     6816    2   DCL ADDR_TYPE UBIN;
      331     6817    2   DCL ARRAY_FLAG BIT(1) ALIGNED;
      332     6818    2   DCL DATA_TYPE UBIN;
      333     6819    2   DCL INVAL SBIN(32);
      334     6820    2   DCL 1 INADDR REDEF INVAL,
      335     6821    2         2 C UBIN(1) UNAL,
      336     6822    2         2 B UBIN(3) UNAL,
      337     6823    2         2 * UBIN(8) UNAL,
      338     6824    2         2 W UBIN(20) UNAL;
      339     6825        %ITEM_SPEC_L6(NAME=SPSYM,STCLASS="REDEF INVAL");
      340     6835        %ITEM_DESCPTR_L6(NAME=DESCPTR,STCLASS="REDEF INVAL");
      341     6846        %ITEM_PARMPTR_L6(NAME=PARMPTR,STCLASS="REDEF INVAL");
      342     6856    2   DCL BITSIZE UBIN;
      343     6857        /**/
      344     6858        /* Local Variables */
      345     6859        /**/
      346     6860    2   DCL P$ PTR;
      347     6861    2   DCL P_UBIN REDEF P$ UBIN(32);
      348     6862    2   DCL LPTR$ PTR;
      349     6863    2   DCL LPTR REDEF LPTR$ UBIN(32);
      350     6864    2   DCL LAST_FLAG BIT(1) ALIGNED;
      351     6865    2   DCL INDX UBIN;
      352     6866        /**/
      353     6867        /* Template Variables */
      354     6868        /**/
      355     6869    2   DCL B$PTR PTR BASED;
      356     6870    2   DCL B$UBIN UBIN BASED;
PL6.E3A0      #001=GDK$RESADDR File=GDK$RESADDR.:E05TSI                          TUE 07/29/97 21:26 Page:73
      357     6871    2   DCL B$SBIN SBIN BASED;
      358     6872    2   DCL B$DBLWD UBIN(32) BASED;
      359     6873    2   DCL 1 B$BITS ALIGNED BASED,
      360     6874    2         2 B(0:0) BIT(1) UNAL;
      361     6875    2   DCL B$CHARS(0:0) CHAR(1) CALIGNED BASED;
      362     6876        %EJECT;
PL6.E3A0      #001=GDK$RESADDR File=GDK$RESADDR.:E05TSI                          TUE 07/29/97 21:26 Page:74
      363     6877        /**/
      364     6878        /* External Variables */
      365     6879        /**/
      366     6880    2   DCL G$ROS$ PTR SYMREF;
      367     6881    2   DCL G$JIT$ PTR SYMREF;
      368     6882    2   DCL G$UHJIT$ PTR SYMREF;
      369     6883    2   DCL G$ISR3$ PTR SYMREF;
      370     6884    2   DCL G$ISR1$ PTR SYMREF;
      371     6885    2   DCL G$ISR2$ PTR SYMREF;
      372     6886    2   DCL G$ISR4$ PTR SYMREF;
      373     6887    2   DCL G$ISR5$ PTR SYMREF;
      374     6888    2   DCL G$ISR6$ PTR SYMREF;
      375     6889    2   DCL G$ISR7$ PTR SYMREF;
      376     6890    2   DCL G$UAUTO_DS$ PTR SYMREF;
      377     6891    2   DCL G$USRDS1$ PTR SYMREF;
      378     6892    2   DCL G$USRDS2$ PTR SYMREF;
      379     6893    2   DCL G$USRDS3$ PTR SYMREF;
      380     6894    2   DCL G$USRDS4$ PTR SYMREF;
      381     6895        /**/
      382     6896        /* Code */
      383     6897        /**/
      384     6898    3           IF (EXPR_OP ~= %NOMOD_OPCODE AND TYPE_CODE ~= %SIZE_ICODE) THEN DO;

   6898   1 0004E1  E847 0033                            LDR,R6   EXPR_OP,AUTO
          1 0004E3  6901 0072                            BEZ,R6   s:6915,PREL
          1 0004E5  D847 002E                            LDR,R5   TYPE_CODE,AUTO
          1 0004E7  5D09                                 CMV,R5   9
          1 0004E8  0901 006D                            BE       s:6915,PREL

      385     6899    4              DO CASE(EXPR_OP);

   6899   1 0004EA  B856                                 LDR,R3   R6
          1 0004EB  3D06                                 CMV,R3   6
          1 0004EC  0281 0053                            BGE      s:6907,PREL
          1 0004EE  A830 0000 04F4  01                   LDR,R2   s:6899+10,R3
          1 0004F1  83A0 0000 04FA  01                   JMP      s:6901,R2
          1 0004F4       0046                            DC       s:6907,PREL
PL6.E3A0      #001=GDK$RESADDR File=GDK$RESADDR.:E05TSI                          TUE 07/29/97 21:26 Page:75
          1 0004F5       0000                            DC       s:6901,PREL
          1 0004F6       0016                            DC       s:6903,PREL
          1 0004F7       0046                            DC       s:6907,PREL
          1 0004F8       0046                            DC       s:6907,PREL
          1 0004F9       002C                            DC       s:6905,PREL

      386     6900    4                 CASE(%PLUS_OPCODE);

      387     6901    4                    INADDR.W = INADDR.W + EXPVAL;

   6901   1 0004FA  DCC7 007A                            LDB,B5   @INVAL,AUTO
          1 0004FC  8C85                                 LDI      ,B5
          1 0004FD  E570 000F                            AND,R6   15,IMO
          1 0004FF  8447 0031                            AID      EXPVAL,AUTO
          1 000501  708C                                 DOL,R7   12
          1 000502  8D47 0090                            SDI      @DATA_TYPE+2,AUTO
          1 000504  ABC7 0090                            LAB,B2   @DATA_TYPE+2,AUTO
          1 000506  2C00                                 LDV,R2   0
          1 000507  6C20                                 LDV,R6   32
          1 000508  BB85                                 LAB,B3   ,B5
          1 000509  3C0C                                 LDV,R3   12
          1 00050A  7C14                                 LDV,R7   20
          1 00050B  D380 0000 0000  xent                 LNJ,B5   X6B_BLR
          1 00050E  0F81 003B                            B        s:6910,PREL

      388     6902    4                 CASE(%MINUS_OPCODE);

      389     6903    4                    INADDR.W = INADDR.W - EXPVAL;

   6903   1 000510  DCC7 007A                            LDB,B5   @INVAL,AUTO
          1 000512  8C85                                 LDI      ,B5
          1 000513  E570 000F                            AND,R6   15,IMO
          1 000515  84C7 0031                            SID      EXPVAL,AUTO
          1 000517  708C                                 DOL,R7   12
          1 000518  8D47 0090                            SDI      @DATA_TYPE+2,AUTO
          1 00051A  ABC7 0090                            LAB,B2   @DATA_TYPE+2,AUTO
          1 00051C  2C00                                 LDV,R2   0
PL6.E3A0      #001=GDK$RESADDR File=GDK$RESADDR.:E05TSI                          TUE 07/29/97 21:26 Page:76
          1 00051D  6C20                                 LDV,R6   32
          1 00051E  BB85                                 LAB,B3   ,B5
          1 00051F  3C0C                                 LDV,R3   12
          1 000520  7C14                                 LDV,R7   20
          1 000521  D380 0000 0000  xent                 LNJ,B5   X6B_BLR
          1 000524  0F81 0025                            B        s:6910,PREL

      390     6904    4                 CASE(%MULT_OPCODE);

      391     6905    4                    INADDR.W = INADDR.W * EXPVAL;

   6905   1 000526  DCC7 007A                            LDB,B5   @INVAL,AUTO
          1 000528  8C85                                 LDI      ,B5
          1 000529  E570 000F                            AND,R6   15,IMO
          1 00052B  9BC7 0031                            LAB,B1   EXPVAL,AUTO
          1 00052D  D380 0000 0000  xent                 LNJ,B5   X6D_MID
          1 000530  708C                                 DOL,R7   12
          1 000531  8D47 0090                            SDI      @DATA_TYPE+2,AUTO
          1 000533  ABC7 0090                            LAB,B2   @DATA_TYPE+2,AUTO
          1 000535  2C00                                 LDV,R2   0
          1 000536  6C20                                 LDV,R6   32
          1 000537  BCC7 007A                            LDB,B3   @INVAL,AUTO
          1 000539  3C0C                                 LDV,R3   12
          1 00053A  7C14                                 LDV,R7   20
          1 00053B  D380 0000 0000  xent                 LNJ,B5   X6B_BLR
          1 00053E  0F81 000B                            B        s:6910,PREL

      392     6906    4                 CASE(ELSE);

      393     6907    4                    GD_DATA.GD.ERROR = %GD#RSPUNSUPRT;

   6907   1 000540  DC80 0000 0000  xsym                 LDB,B5   GD$DELTA_DATA$
          1 000543  4C38                                 LDV,R4   56
          1 000544  CF45 0174                            STR,R4   372,B5

      394     6908    4                    ALTRETURN;

PL6.E3A0      #001=GDK$RESADDR File=GDK$RESADDR.:E05TSI                          TUE 07/29/97 21:26 Page:77
   6908   1 000546  ECC7 0070                            LDB,B6   MSG$+3,AUTO
          1 000548  A806                                 LDR,R2   ,B6
          1 000549  C3A6                                 LNJ,B4   ,B6,R2

      395     6909    4                 END /* CASE */;

      396     6910    3              INADDR.B = 0;

   6910   1 00054A  ECC7 007A                            LDB,B6   @INVAL,AUTO
          1 00054C  8806                                 LBF,'7000'X       ,B6
          1 00054D       7000

      397     6911    3              INADDR.C = 0;

   6911   1 00054E  8806                                 LBF,'8000'X       ,B6
   6911   1 00054F       8000

      398     6912    3              BITSIZE = 16;

   6912   1 000550  DCC7 007C                            LDB,B5   @BITSIZE,AUTO
          1 000552  6C10                                 LDV,R6   16
          1 000553  EF05                                 STR,R6   ,B5

      399     6913    3              EXPR_OP = %NOMOD_OPCODE;

   6913   1 000554  8747 0033                            CL       EXPR_OP,AUTO

      400     6914    3              END;

      401     6915    3           DO CASE(ADDR_TYPE);

   6915   1 000556  ECC7 0074                            LDB,B6   @ADDR_TYPE,AUTO
          1 000558  B806                                 LDR,R3   ,B6
          1 000559  3D45                                 CMV,R3   69
          1 00055A  0281 023E                            BGE      s:7074,PREL
          1 00055C  A830 0000 0562  01                   LDR,R2   s:6915+12,R3
          1 00055F  83A0 0000 05A7  01                   JMP      s:6917,R2
PL6.E3A0      #001=GDK$RESADDR File=GDK$RESADDR.:E05TSI                          TUE 07/29/97 21:26 Page:78
          1 000562       0013                            DC       s:6920,PREL
          1 000563       0070                            DC       s:6931,PREL
          1 000564       0038                            DC       s:6924,PREL
          1 000565       0038                            DC       s:6924,PREL
          1 000566       0038                            DC       s:6924,PREL
          1 000567       01F2                            DC       s:7074,PREL
          1 000568       0038                            DC       s:6924,PREL
          1 000569       01F2                            DC       s:7074,PREL
          1 00056A       01F2                            DC       s:7074,PREL
          1 00056B       01F2                            DC       s:7074,PREL
          1 00056C       01F2                            DC       s:7074,PREL
          1 00056D       01F2                            DC       s:7074,PREL
          1 00056E       01F2                            DC       s:7074,PREL
          1 00056F       01F2                            DC       s:7074,PREL
          1 000570       01F2                            DC       s:7074,PREL
          1 000571       01F2                            DC       s:7074,PREL
          1 000572       01F2                            DC       s:7074,PREL
          1 000573       01F2                            DC       s:7074,PREL
          1 000574       01F2                            DC       s:7074,PREL
          1 000575       01F2                            DC       s:7074,PREL
          1 000576       01F2                            DC       s:7074,PREL
          1 000577       01F2                            DC       s:7074,PREL
          1 000578       01F2                            DC       s:7074,PREL
          1 000579       01F2                            DC       s:7074,PREL
          1 00057A       01F2                            DC       s:7074,PREL
          1 00057B       01F2                            DC       s:7074,PREL
          1 00057C       01F2                            DC       s:7074,PREL
          1 00057D       01F2                            DC       s:7074,PREL
          1 00057E       01F2                            DC       s:7074,PREL
          1 00057F       01F2                            DC       s:7074,PREL
          1 000580       01F2                            DC       s:7074,PREL
          1 000581       01F2                            DC       s:7074,PREL
          1 000582       01F2                            DC       s:7074,PREL
          1 000583       01F2                            DC       s:7074,PREL
          1 000584       01F2                            DC       s:7074,PREL
          1 000585       01F2                            DC       s:7074,PREL
          1 000586       01F2                            DC       s:7074,PREL
PL6.E3A0      #001=GDK$RESADDR File=GDK$RESADDR.:E05TSI                          TUE 07/29/97 21:26 Page:79
          1 000587       01F2                            DC       s:7074,PREL
          1 000588       01F2                            DC       s:7074,PREL
          1 000589       01F2                            DC       s:7074,PREL
          1 00058A       01F2                            DC       s:7074,PREL
          1 00058B       01F2                            DC       s:7074,PREL
          1 00058C       01F2                            DC       s:7074,PREL
          1 00058D       01F2                            DC       s:7074,PREL
          1 00058E       01F2                            DC       s:7074,PREL
          1 00058F       01F2                            DC       s:7074,PREL
          1 000590       01F2                            DC       s:7074,PREL
          1 000591       01F2                            DC       s:7074,PREL
          1 000592       01F2                            DC       s:7074,PREL
          1 000593       01F2                            DC       s:7074,PREL
          1 000594       01F2                            DC       s:7074,PREL
          1 000595       01F2                            DC       s:7074,PREL
          1 000596       01F2                            DC       s:7074,PREL
          1 000597       01F2                            DC       s:7074,PREL
          1 000598       01F2                            DC       s:7074,PREL
          1 000599       01F2                            DC       s:7074,PREL
          1 00059A       01F2                            DC       s:7074,PREL
          1 00059B       01F2                            DC       s:7074,PREL
          1 00059C       01F2                            DC       s:7074,PREL
          1 00059D       01F2                            DC       s:7074,PREL
          1 00059E       01F2                            DC       s:7074,PREL
          1 00059F       01F2                            DC       s:7074,PREL
          1 0005A0       01F2                            DC       s:7074,PREL
          1 0005A1       01F2                            DC       s:7074,PREL
          1 0005A2       00AE                            DC       s:6938,PREL
          1 0005A3       01F2                            DC       s:7074,PREL
          1 0005A4       0000                            DC       s:6917,PREL
          1 0005A5       0038                            DC       s:6924,PREL
          1 0005A6       0013                            DC       s:6920,PREL

      402     6916    3              CASE(%CONST_ACODE);

      403     6917    3                 VAL = INADDR.W;

PL6.E3A0      #001=GDK$RESADDR File=GDK$RESADDR.:E05TSI                          TUE 07/29/97 21:26 Page:80
   6917   1 0005A7  DCC7 007A                            LDB,B5   @INVAL,AUTO
          1 0005A9  8C85                                 LDI      ,B5
          1 0005AA  E570 000F                            AND,R6   15,IMO
          1 0005AC  8D47 0090                            SDI      @DATA_TYPE+2,AUTO
          1 0005AE  ABC7 0090                            LAB,B2   @DATA_TYPE+2,AUTO
          1 0005B0  2C00                                 LDV,R2   0
          1 0005B1  6C04                                 LDV,R6   4
          1 0005B2  BCC7 0072                            LDB,B3   @VAL,AUTO
          1 0005B4  3C00                                 LDV,R3   0
          1 0005B5  0008                                 MMM

      404     6918    3                 RETURN;

   6918   1 0005B6  ECC7 0070                            LDB,B6   MSG$+3,AUTO
          1 0005B8  C3C6 0001                            LNJ,B4   1,B6

      405     6919    3              CASE(%STATIC_ACODE,%BIGSTATIC_ACODE);

      406     6920    3                 LPTR = INADDR.W;

   6920   1 0005BA  DCC7 007A                            LDB,B5   @INVAL,AUTO
          1 0005BC  8C85                                 LDI      ,B5
          1 0005BD  E570 000F                            AND,R6   15,IMO
          1 0005BF  8D47 0090                            SDI      @DATA_TYPE+2,AUTO
          1 0005C1  ABC7 0090                            LAB,B2   @DATA_TYPE+2,AUTO
          1 0005C3  2C00                                 LDV,R2   0
          1 0005C4  6C04                                 LDV,R6   4
          1 0005C5  BBC7 0080                            LAB,B3   LPTR$,AUTO
          1 0005C7  3C00                                 LDV,R3   0
          1 0005C8  0008                                 MMM

      407     6921    3                 BITOFF = (INADDR.C * 8) + INADDR.B;

   6921   1 0005C9  E805                                 LDR,R6   ,B5
          1 0005CA  604C                                 SOR,R6   12
          1 0005CB  E570 0008                            AND,R6   8,IMO
          1 0005CD  D805                                 LDR,R5   ,B5
PL6.E3A0      #001=GDK$RESADDR File=GDK$RESADDR.:E05TSI                          TUE 07/29/97 21:26 Page:81
          1 0005CE  504C                                 SOR,R5   12
          1 0005CF  D570 0007                            AND,R5   7,IMO
          1 0005D1  EA55                                 ADD,R6   R5
          1 0005D2  CCC7 0012                            LDB,B4   @BITOFF,AUTO
          1 0005D4  EF04                                 STR,R6   ,B4

      408     6922    3                 IF ARRAY_FLAG THEN CALL GETINDX;

   6922   1 0005D5  BCC7 0076                            LDB,B3   @ARRAY_FLAG,AUTO
          1 0005D7  8983                                 CMZ      ,B3
          1 0005D8  0881 01C0                            BAGE     s:7074,PREL

   6922   1 0005DA  E3C0 028F                            LNJ,B6   s:0,PREL
          1 0005DC       0001                            DC       s:6922+8,PREL
          1 0005DD  0F81 01BB                            B        s:7074,PREL

      409     6923    3              CASE(%BASED_ACODE,%BIGBASED_ACODE,%PARM_ACODE,%SPARM_ACODE,%DCB_ACODE);

      410     6924    3                 BITOFF = PNTR_S.C(PLVL-1) * 8;

   6924   1 0005DF  DCC7 0012                            LDB,B5   @BITOFF,AUTO
          1 0005E1  9847 0028                            LDR,R1   PLVL,AUTO
          1 0005E3  1001                                 SOL,R1   1
          1 0005E4  1E57                                 ADV,R1   87
          1 0005E5  E817                                 LDR,R6   ,AUTO,R1
          1 0005E6  604C                                 SOR,R6   12
          1 0005E7  E570 0008                            AND,R6   8,IMO
          1 0005E9  EF05                                 STR,R6   ,B5

      411     6925    3                 PNTR_S.C(PLVL-1) = 0;

   6925   1 0005EA  CBC7 0057                            LAB,B4   IDX+28,AUTO
          1 0005EC  B847 0028                            LDR,R3   PLVL,AUTO
          1 0005EE  3005                                 SOL,R3   5
          1 0005EF  8834                                 LBF      ,B4,R3

      412     6926    3                 LPTR$ = PINCRW(PNTR$(PLVL-1),INADDR.W);
PL6.E3A0      #001=GDK$RESADDR File=GDK$RESADDR.:E05TSI                          TUE 07/29/97 21:26 Page:82

   6926   1 0005F0  CCC7 007A                            LDB,B4   @INVAL,AUTO
          1 0005F2  8C84                                 LDI      ,B4
          1 0005F3  E570 000F                            AND,R6   15,IMO
          1 0005F5  BBC7 0057                            LAB,B3   IDX+28,AUTO
          1 0005F7  A847 0028                            LDR,R2   PLVL,AUTO
          1 0005F9  ACA3                                 LDB,B2   ,B3,R2
          1 0005FA  AFC7 0090                            STB,B2   @DATA_TYPE+2,AUTO
          1 0005FC  8447 0090                            AID      @DATA_TYPE+2,AUTO
          1 0005FE  8D47 0080                            SDI      LPTR$,AUTO

      413     6927    3                 PLVL = PLVL - 1;

   6927   1 000600  88C7 0028                            DEC      PLVL,AUTO

      414     6928    3                 BITOFF = BITOFF + (INADDR.C * 8) + INADDR.B;

   6928   1 000602  D804                                 LDR,R5   ,B4
          1 000603  504C                                 SOR,R5   12
          1 000604  D570 0008                            AND,R5   8,IMO
          1 000606  DA05                                 ADD,R5   ,B5
          1 000607  C804                                 LDR,R4   ,B4
          1 000608  404C                                 SOR,R4   12
          1 000609  C570 0007                            AND,R4   7,IMO
          1 00060B  CA55                                 ADD,R4   R5
          1 00060C  CF05                                 STR,R4   ,B5

      415     6929    3                 IF ARRAY_FLAG THEN CALL GETINDX;

   6929   1 00060D  BCC7 0076                            LDB,B3   @ARRAY_FLAG,AUTO
          1 00060F  8983                                 CMZ      ,B3
          1 000610  0881 0188                            BAGE     s:7074,PREL

   6929   1 000612  E3C0 0257                            LNJ,B6   s:0,PREL
          1 000614       0001                            DC       s:6929+8,PREL
          1 000615  0F81 0183                            B        s:7074,PREL

PL6.E3A0      #001=GDK$RESADDR File=GDK$RESADDR.:E05TSI                          TUE 07/29/97 21:26 Page:83
      416     6930    3              CASE(%AUTO_ACODE);

      417     6931    3                 IF GD_DATA.GD.INTERPRETIVE THEN

   6931   1 000617  DC80 0000 0000  xsym                 LDB,B5   GD$DELTA_DATA$
          1 00061A  82C5 014C                            LB,'4000'X        332,B5
          1 00061C       4000
          1 00061D  0581 0010                            BBF      s:6934,PREL

      418     6932    3                    LPTR$ = PINCRW(GD_DATA.GD.AUTO$,INADDR.W);

   6932   1 00061F  CCC7 007A                            LDB,B4   @INVAL,AUTO
          1 000621  8C84                                 LDI      ,B4
          1 000622  E570 000F                            AND,R6   15,IMO
          1 000624  BCC5 0150                            LDB,B3   336,B5
          1 000626  BFC7 0090                            STB,B3   @DATA_TYPE+2,AUTO
          1 000628  8447 0090                            AID      @DATA_TYPE+2,AUTO
          1 00062A  8D47 0080                            SDI      LPTR$,AUTO
          1 00062C  0F81 0010                            B        s:6935,PREL

      419     6933    3                 ELSE
      420     6934    3                   LPTR$ = PINCRW(GD_DATA.DELTAINFO.TSA$->G$TSA.ISA.REGS.B7$,INADDR.W)
              6934                             ;

   6934   1 00062E  CCC5 0006                            LDB,B4   6,B5
          1 000630  BCC7 007A                            LDB,B3   @INVAL,AUTO
          1 000632  8C83                                 LDI      ,B3
          1 000633  E570 000F                            AND,R6   15,IMO
          1 000635  ACC4 0018                            LDB,B2   24,B4
          1 000637  AFC7 0090                            STB,B2   @DATA_TYPE+2,AUTO
          1 000639  8447 0090                            AID      @DATA_TYPE+2,AUTO
          1 00063B  8D47 0080                            SDI      LPTR$,AUTO

      421     6935    3                 BITOFF = (INADDR.C * 8) + INADDR.B;

   6935   1 00063D  CCC7 007A                            LDB,B4   @INVAL,AUTO
          1 00063F  D804                                 LDR,R5   ,B4
PL6.E3A0      #001=GDK$RESADDR File=GDK$RESADDR.:E05TSI                          TUE 07/29/97 21:26 Page:84
          1 000640  504C                                 SOR,R5   12
          1 000641  D570 0008                            AND,R5   8,IMO
          1 000643  C804                                 LDR,R4   ,B4
          1 000644  404C                                 SOR,R4   12
          1 000645  C570 0007                            AND,R4   7,IMO
          1 000647  DA54                                 ADD,R5   R4
          1 000648  BCC7 0012                            LDB,B3   @BITOFF,AUTO
          1 00064A  DF03                                 STR,R5   ,B3

      422     6936    3                 IF ARRAY_FLAG THEN CALL GETINDX;

   6936   1 00064B  DCC7 0076                            LDB,B5   @ARRAY_FLAG,AUTO
          1 00064D  8985                                 CMZ      ,B5
          1 00064E  0881 014A                            BAGE     s:7074,PREL

   6936   1 000650  E3C0 0219                            LNJ,B6   s:0,PREL
          1 000652       0001                            DC       s:6936+8,PREL
          1 000653  0F81 0145                            B        s:7074,PREL

      423     6937    3              CASE(%DESC_ACODE);

      424     6938    3                 LPTR$ = ADDR(NIL);

   6938   1 000655  DB80 0000 0000                       LAB,B5   0
          1 000658  DFC7 0080                            STB,B5   LPTR$,AUTO

      425     6939        /* Don't get rid of this code - it may become useful someday */
      426     6940        /*
      427     6941                      IF FIRST_PTR THEN DO;
      428     6942                         IS_PTR = %TRUE;
      429     6943                         DO CASE(DESCPTR.TYPE);
      430     6944                            CASE(0);
      431     6945                               SEG = 1;
      432     6946                               DO CASE(DESCPTR.ID);
      433     6947                                  CASE(1);        {* $JIT *}
      434     6948                                     DESC# = 7;
      435     6949                                  CASE(ELSE);
PL6.E3A0      #001=GDK$RESADDR File=GDK$RESADDR.:E05TSI                          TUE 07/29/97 21:26 Page:85
      436     6950                                     GD_DATA.GD.ERROR = %GD#RSPDDNOTL6;
      437     6951                                     ALTRETURN;
      438     6952                                  END; {* CASE *}
      439     6953                            CASE(2);
      440     6954                               DO CASE(DESCPTR.ID);
      441     6955                                  CASE(24);  {* $AUTO *}
      442     6956                                     SEG = 9;
      443     6957                                     DESC# = 4;
      444     6958                                  CASE(ELSE);
      445     6959                                     GD_DATA.GD.ERROR = %GD#RSPDDNOTL6;
      446     6960                                     ALTRETURN;
      447     6961                                  END;  {* CASE *}
      448     6962                            CASE(3);
      449     6963                               DO CASE(DESCPTR.ID);
      450     6964                                  CASE(3); {* $DSn *}
      451     6965                                     SEG = 11;
      452     6966                                     DESC# = DESCPTR.DISP;
      453     6967                                     IS_PTR = '1'B;
      454     6968                                  CASE(ELSE);
      455     6969                                     GD_DATA.GD.ERROR = %GD#RSPDDNOTL6;
      456     6970                                     ALTRETURN;
      457     6971                                  END; {* CASE *}
      458     6972                            CASE(7); {* $DCBn *}
      459     6973                               SEG = 5;
      460     6974                               DESC# = DESCPTR.DISP;
      461     6975                            CASE(8);
      462     6976                               DO CASE(DESCPTR.ID);
      463     6977                                  CASE(0); {* $ROSEG *}
      464     6978                                     SEG = 9;
      465     6979                                     DESC# = 1;
      466     6980                                  CASE(1); {* $RDBR *}
      467     6981                                     SEG = 9;
      468     6982                                     DESC# = 2;
      469     6983                                  CASE(2); {* $TSA *}
      470     6984                                     SEG = 9;
      471     6985                                     DESC# = 3;
      472     6986                                  CASE(3); {* $ISn *}
PL6.E3A0      #001=GDK$RESADDR File=GDK$RESADDR.:E05TSI                          TUE 07/29/97 21:26 Page:86
      473     6987                                     SEG = 12;
      474     6988                                     DESC# = DESCPTR.DISP;
      475     6989                                  CASE(ELSE);
      476     6990                                     GD_DATA.GD.ERROR = %GD#RSPDDNOTL6;
      477     6991                                     ALTRETURN;
      478     6992                                  END; {* CASE *}
      479     6993                            CASE(9);
      480     6994                               DO CASE(DESCPTR.ID);
      481     6995                                  CASE(0); {* $Bn *}
      482     6996                                     SEG = 10;
      483     6997                                     DESC# = DESCPTR.DISP;
      484     6998                                     IS_PTR = '1'B;
      485     6999                                  CASE(ELSE);
      486     7000                                     GD_DATA.GD.ERROR = %GD#RSPDDNOTL6;
      487     7001                                     ALTRETURN;
      488     7002                                  END; {* CASE *}
      489     7003                            END;
      490     7004                         END;
      491     7005                      ELSE; */
      492     7006    4                 DO CASE(DESCPTR.TYPE);

   7006   1 00065A  CCC7 007A                            LDB,B4   @INVAL,AUTO
          1 00065C  B804                                 LDR,R3   ,B4
          1 00065D  B570 00FF                            AND,R3   255,IMO
          1 00065F  3D0A                                 CMV,R3   10
          1 000660  0281 0138                            BGE      s:7074,PREL
          1 000662  A830 0000 0668  01                   LDR,R2   s:7006+14,R3
          1 000665  83A0 0000 0672  01                   JMP      s:7008,R2
          1 000668       0000                            DC       s:7008,PREL
          1 000669       0127                            DC       s:7074,PREL
          1 00066A       0007                            DC       s:7010,PREL
          1 00066B       000E                            DC       s:7012,PREL
          1 00066C       0127                            DC       s:7074,PREL
          1 00066D       0127                            DC       s:7074,PREL
          1 00066E       003C                            DC       s:7024,PREL
          1 00066F       006F                            DC       s:7033,PREL
          1 000670       008D                            DC       s:7040,PREL
PL6.E3A0      #001=GDK$RESADDR File=GDK$RESADDR.:E05TSI                          TUE 07/29/97 21:26 Page:87
          1 000671       00FD                            DC       s:7066,PREL

      493     7007    4                    CASE(0);

      494     7008    4                       LPTR$ = G$JIT$;

   7008   1 000672  BC80 0000 0000  xsym                 LDB,B3   G$JIT$
          1 000675  BFC7 0080                            STB,B3   LPTR$,AUTO
          1 000677  0F81 0121                            B        s:7074,PREL

      495     7009    4                    CASE(2);

      496     7010    4                       LPTR$ = G$UAUTO_DS$;

   7010   1 000679  BC80 0000 0000  xsym                 LDB,B3   G$UAUTO_DS$
          1 00067C  BFC7 0080                            STB,B3   LPTR$,AUTO
          1 00067E  0F81 011A                            B        s:7074,PREL

      497     7011    4                    CASE(3);

      498     7012    5                       DO CASE(DESCPTR.DISP);

   7012   1 000680  9844 0001                            LDR,R1   1,B4
          1 000682  9570 00FF                            AND,R1   255,IMO
          1 000684  1D05                                 CMV,R1   5
          1 000685  0281 0113                            BGE      s:7074,PREL
          1 000687  B810 0000 068D  01                   LDR,R3   s:7012+13,R1
          1 00068A  83B0 0000 0692  01                   JMP      s:7014,R3
          1 00068D       001A                            DC       s:7021,PREL
          1 00068E       0000                            DC       s:7014,PREL
          1 00068F       0007                            DC       s:7016,PREL
          1 000690       000E                            DC       s:7018,PREL
          1 000691       0015                            DC       s:7020,PREL

      499     7013    5                          CASE(1);

      500     7014    5                             LPTR$ = G$USRDS1$;
PL6.E3A0      #001=GDK$RESADDR File=GDK$RESADDR.:E05TSI                          TUE 07/29/97 21:26 Page:88

   7014   1 000692  BC80 0000 0000  xsym                 LDB,B3   G$USRDS1$
          1 000695  BFC7 0080                            STB,B3   LPTR$,AUTO
          1 000697  0F81 0101                            B        s:7074,PREL

      501     7015    5                          CASE(2);

      502     7016    5                             LPTR$ = G$USRDS2$;

   7016   1 000699  BC80 0000 0000  xsym                 LDB,B3   G$USRDS2$
          1 00069C  BFC7 0080                            STB,B3   LPTR$,AUTO
          1 00069E  0F81 00FA                            B        s:7074,PREL

      503     7017    5                          CASE(3);

      504     7018    5                             LPTR$ = G$USRDS3$;

   7018   1 0006A0  BC80 0000 0000  xsym                 LDB,B3   G$USRDS3$
          1 0006A3  BFC7 0080                            STB,B3   LPTR$,AUTO
          1 0006A5  0F81 00F3                            B        s:7074,PREL

      505     7019    5                          CASE(4);

      506     7020    5                             LPTR$ = G$USRDS4$;

   7020   1 0006A7  BC80 0000 0000  xsym                 LDB,B3   G$USRDS4$
          1 0006AA  BFC7 0080                            STB,B3   LPTR$,AUTO

      507     7021    5                          END /* case(pntr.disp) */;

   7021   1 0006AC  0F81 00EC                            B        s:7074,PREL

      508     7022    4                    CASE(6);          /* $PARMn and other parameters */

      509     7023                             /* Get a pointer to a pointer to the parameter */
      510     7024    4                       LPTR$ = PINCRW(GD_DATA.DELTAINFO.TSA$->

PL6.E3A0      #001=GDK$RESADDR File=GDK$RESADDR.:E05TSI                          TUE 07/29/97 21:26 Page:89
   7024   1 0006AE  BC80 0000 0000  xsym                 LDB,B3   GD$DELTA_DATA$
          1 0006B1  ACC3 0006                            LDB,B2   6,B3
          1 0006B3  9844 0001                            LDR,R1   1,B4
          1 0006B5  9CC2 0018                            LDB,B1   24,B2
          1 0006B7  9FC7 0090                            STB,B1   @DATA_TYPE+2,AUTO
          1 0006B9  F851                                 LDR,R7   R1
          1 0006BA  6C00                                 LDV,R6   0
          1 0006BB  8447 0090                            AID      @DATA_TYPE+2,AUTO
          1 0006BD  8470 0000 0002                       AID      2,IMO
          1 0006C0  8D47 0080                            SDI      LPTR$,AUTO

      511     7025    4                                      G$TSA.ISA.REGS.B7$,PARMPTR.N+2);
      512     7026    4                       CALL GDU$SETUP_WINDOW(LPTR$) /* Map onto it */

   7026   1 0006C2  DBC7 0080                            LAB,B5   LPTR$,AUTO
          1 0006C4  DFC7 0090                            STB,B5   @DATA_TYPE+2,AUTO
          1 0006C6  BBC7 0090                            LAB,B3   @DATA_TYPE+2,AUTO
          1 0006C8  CBF0 0100                            LAB,B4   256,IMO
          1 0006CA  E380 0000 0000  xent                 LNJ,B6   GDU$SETUP_WINDOW
          1 0006CD       0003                            DC       s:7028,PREL
          1 0006CE  0F81 000B                            B        s:7031,PREL

      513     7027    5                          WHENALTRETURN DO;

      514     7028    5                             GD_DATA.GD.ERROR = %GD#RSPBADADR;

   7028   1 0006D0  EC80 0000 0000  xsym                 LDB,B6   GD$DELTA_DATA$
          1 0006D3  6C37                                 LDV,R6   55
          1 0006D4  EF46 0174                            STR,R6   372,B6

      515     7029    5                             ALTRETURN;

   7029   1 0006D6  ECC7 0070                            LDB,B6   MSG$+3,AUTO
          1 0006D8  B806                                 LDR,R3   ,B6
          1 0006D9  C3B6                                 LNJ,B4   ,B6,R3

      516     7030    5                             END;
PL6.E3A0      #001=GDK$RESADDR File=GDK$RESADDR.:E05TSI                          TUE 07/29/97 21:26 Page:90
      517     7031    4                       LPTR$=LPTR$->B$PTR;  /* Pick up the address from AUTO */

   7031   1 0006DA  ECC7 0080                            LDB,B6   LPTR$,AUTO
          1 0006DC  DC86                                 LDB,B5   ,B6
          1 0006DD  DFC7 0080                            STB,B5   LPTR$,AUTO
          1 0006DF  0F81 00B9                            B        s:7074,PREL

      518     7032    4                    CASE(7);

      519     7033    4                       LPTR$ = DCBADDR(DESCPTR.DISP);

   7033   1 0006E1  BC80 0000 0000  xsym                 LDB,B3   G$ROS$
          1 0006E4  AC83                                 LDB,B2   ,B3
          1 0006E5  9844 0001                            LDR,R1   1,B4
          1 0006E7  9570 00FF                            AND,R1   255,IMO
          1 0006E9  9C92                                 LDB,B1   ,B2,R1
          1 0006EA  9FC7 0080                            STB,B1   LPTR$,AUTO

      520     7034    4                       IF GD$MSG.FNC = %GD#RQSUNFID

   7034   1 0006EC  DCC7 006D                            LDB,B5   MSG$,AUTO
          1 0006EE  E285                                 LLH,R6   ,B5
          1 0006EF  6D11                                 CMV,R6   17
          1 0006F0  0981 00A8                            BNE      s:7074,PREL

      521     7035    5                       THEN DO;

      522     7036    5                            SEG = 5;

   7036   1 0006F2  ECC7 000A                            LDB,B6   @SEG,AUTO
          1 0006F4  5C05                                 LDV,R5   5
          1 0006F5  DF06                                 STR,R5   ,B6

      523     7037    5                            DESC# = DESCPTR.DISP;

   7037   1 0006F6  BCC7 000C                            LDB,B3   @DESC#,AUTO
          1 0006F8  E844 0001                            LDR,R6   1,B4
PL6.E3A0      #001=GDK$RESADDR File=GDK$RESADDR.:E05TSI                          TUE 07/29/97 21:26 Page:91
          1 0006FA  E570 00FF                            AND,R6   255,IMO
          1 0006FC  EF03                                 STR,R6   ,B3

      524     7038    5                          END;

   7038   1 0006FD  0F81 009B                            B        s:7074,PREL

      525     7039    4                    CASE(8);

      526     7040    5                       DO CASE(DESCPTR.ID);

   7040   1 0006FF  92C4 0001                            LLH,R1   1,B4
          1 000701  1D04                                 CMV,R1   4
          1 000702  0281 0096                            BGE      s:7074,PREL
          1 000704  B810 0000 070A  01                   LDR,R3   s:7040+11,R1
          1 000707  83B0 0000 070E  01                   JMP      s:7042,R3
          1 00070A       0000                            DC       s:7042,PREL
          1 00070B       0007                            DC       s:7044,PREL
          1 00070C       0012                            DC       s:7046,PREL
          1 00070D       001B                            DC       s:7048,PREL

      527     7041    5                          CASE(0);

      528     7042    5                             LPTR$ = G$ROS$;

   7042   1 00070E  BC80 0000 0000  xsym                 LDB,B3   G$ROS$
          1 000711  BFC7 0080                            STB,B3   LPTR$,AUTO
          1 000713  0F81 0085                            B        s:7074,PREL

      529     7043    5                          CASE(1);

      530     7044    5                             LPTR$ = GD_DATA.DELTAINFO.TSA$->G$TSA.ISA.REGS.RDBR$;

   7044   1 000715  BC80 0000 0000  xsym                 LDB,B3   GD$DELTA_DATA$
          1 000718  ACC3 0006                            LDB,B2   6,B3
          1 00071A  9CC2 0038                            LDB,B1   56,B2
          1 00071C  9FC7 0080                            STB,B1   LPTR$,AUTO
PL6.E3A0      #001=GDK$RESADDR File=GDK$RESADDR.:E05TSI                          TUE 07/29/97 21:26 Page:92
          1 00071E  0F81 007A                            B        s:7074,PREL

      531     7045    5                          CASE(2);

      532     7046    5                             LPTR$ = GD_DATA.DELTAINFO.TSA$;

   7046   1 000720  BC80 0000 0000  xsym                 LDB,B3   GD$DELTA_DATA$
          1 000723  ACC3 0006                            LDB,B2   6,B3
          1 000725  AFC7 0080                            STB,B2   LPTR$,AUTO
          1 000727  0F81 0071                            B        s:7074,PREL

      533     7047    5                          CASE(3);

      534     7048    6                             DO CASE(DESCPTR.DISP);

   7048   1 000729  A844 0001                            LDR,R2   1,B4
          1 00072B  A570 00FF                            AND,R2   255,IMO
          1 00072D  2D08                                 CMV,R2   8
          1 00072E  0281 006A                            BGE      s:7074,PREL
          1 000730  B820 0000 0736  01                   LDR,R3   s:7048+13,R2
          1 000733  83B0 0000 073E  01                   JMP      s:7050,R3
          1 000736       002F                            DC       s:7064,PREL
          1 000737       0000                            DC       s:7050,PREL
          1 000738       0007                            DC       s:7052,PREL
          1 000739       000E                            DC       s:7054,PREL
          1 00073A       0015                            DC       s:7056,PREL
          1 00073B       001C                            DC       s:7058,PREL
          1 00073C       0023                            DC       s:7060,PREL
          1 00073D       002A                            DC       s:7062,PREL

      535     7049    6                                CASE(1);

      536     7050    6                                   LPTR$ = G$ISR1$;

   7050   1 00073E  BC80 0000 0000  xsym                 LDB,B3   G$ISR1$
          1 000741  BFC7 0080                            STB,B3   LPTR$,AUTO
          1 000743  0F81 0055                            B        s:7074,PREL
PL6.E3A0      #001=GDK$RESADDR File=GDK$RESADDR.:E05TSI                          TUE 07/29/97 21:26 Page:93

      537     7051    6                                CASE(2);

      538     7052    6                                   LPTR$ = G$ISR2$;

   7052   1 000745  BC80 0000 0000  xsym                 LDB,B3   G$ISR2$
          1 000748  BFC7 0080                            STB,B3   LPTR$,AUTO
          1 00074A  0F81 004E                            B        s:7074,PREL

      539     7053    6                                CASE(3);

      540     7054    6                                   LPTR$ = G$ISR3$;

   7054   1 00074C  BC80 0000 0000  xsym                 LDB,B3   G$ISR3$
          1 00074F  BFC7 0080                            STB,B3   LPTR$,AUTO
          1 000751  0F81 0047                            B        s:7074,PREL

      541     7055    6                                CASE(4);

      542     7056    6                                   LPTR$ = G$ISR4$;

   7056   1 000753  BC80 0000 0000  xsym                 LDB,B3   G$ISR4$
          1 000756  BFC7 0080                            STB,B3   LPTR$,AUTO
          1 000758  0F81 0040                            B        s:7074,PREL

      543     7057    6                                CASE(5);

      544     7058    6                                   LPTR$ = G$ISR5$;

   7058   1 00075A  BC80 0000 0000  xsym                 LDB,B3   G$ISR5$
          1 00075D  BFC7 0080                            STB,B3   LPTR$,AUTO
          1 00075F  0F81 0039                            B        s:7074,PREL

      545     7059    6                                CASE(6);

      546     7060    6                                   LPTR$ = G$ISR6$;

PL6.E3A0      #001=GDK$RESADDR File=GDK$RESADDR.:E05TSI                          TUE 07/29/97 21:26 Page:94
   7060   1 000761  BC80 0000 0000  xsym                 LDB,B3   G$ISR6$
          1 000764  BFC7 0080                            STB,B3   LPTR$,AUTO
          1 000766  0F81 0032                            B        s:7074,PREL

      547     7061    6                                CASE(7);

      548     7062    6                                   LPTR$ = G$ISR7$;

   7062   1 000768  BC80 0000 0000  xsym                 LDB,B3   G$ISR7$
          1 00076B  BFC7 0080                            STB,B3   LPTR$,AUTO

      549     7063    6                                END /* CASE */;

      550     7064    5                          END /* CASE */;

   7064   1 00076D  0F81 002B                            B        s:7074,PREL

      551     7065    4                    CASE(9);

      552     7066    5                       DO CASE(DESCPTR.DISP);

   7066   1 00076F  9844 0001                            LDR,R1   1,B4
          1 000771  9570 00FF                            AND,R1   255,IMO
          1 000773  1D08                                 CMV,R1   8
          1 000774  0281 0024                            BGE      s:7074,PREL
          1 000776  B810 0000 077C  01                   LDR,R3   s:7066+13,R1
          1 000779  83B0 0000 0784  01                   JMP      s:7068,R3
          1 00077C       0015                            DC       s:7074,PREL
          1 00077D       0000                            DC       s:7068,PREL
          1 00077E       0000                            DC       s:7068,PREL
          1 00077F       000C                            DC       s:7071,PREL
          1 000780       0000                            DC       s:7068,PREL
          1 000781       0000                            DC       s:7068,PREL
          1 000782       0000                            DC       s:7068,PREL
          1 000783       0000                            DC       s:7068,PREL

      553     7067    5                          CASE(1,2,4,5,6,7);
PL6.E3A0      #001=GDK$RESADDR File=GDK$RESADDR.:E05TSI                          TUE 07/29/97 21:26 Page:95

      554     7068    5                             LPTR$ = PINCRW(ADDR(GD_DATA.DELTAINFO.TSA$->

   7068   1 000784  BC80 0000 0000  xsym                 LDB,B3   GD$DELTA_DATA$
          1 000787  ACC3 0006                            LDB,B2   6,B3
          1 000789  8251                                 NEG      R1
          1 00078A  1E13                                 ADV,R1   19
          1 00078B  9C92                                 LDB,B1   ,B2,R1
          1 00078C  9FC7 0080                            STB,B1   LPTR$,AUTO
          1 00078E  0F81 000A                            B        s:7074,PREL

      555     7069    5                                        G$TSA.ISA.REGS.B7$),(7-DESCPTR.DISP)*2)->B$PTR
              7069                                                  ;
      556     7070    5                          CASE(3);

      557     7071    5                             LPTR$ = GD_DATA.DELTAINFO.TSA$->G$TSA.B3$;

   7071   1 000790  BC80 0000 0000  xsym                 LDB,B3   GD$DELTA_DATA$
          1 000793  ACC3 0006                            LDB,B2   6,B3
          1 000795  9CC2 000A                            LDB,B1   10,B2
          1 000797  9FC7 0080                            STB,B1   LPTR$,AUTO

      558     7072    5                          END /* CASE */;

      559     7073    4                    END /* CASE */;

      560     7074    3              END /* CASE(ADDR_TYPE) */;

      561     7075        /**/
      562     7076    2   GOT_PTR:
      563     7077    2           P$ = LPTR$;

   7077   1 000799  ECC7 0080            GOT_PTR         LDB,B6   LPTR$,AUTO
          1 00079B  EFC7 007E                            STB,B6   P$,AUTO

      564     7078    3           IF BITOFF > 15 THEN DO;

PL6.E3A0      #001=GDK$RESADDR File=GDK$RESADDR.:E05TSI                          TUE 07/29/97 21:26 Page:96
   7078   1 00079D  DCC7 0012                            LDB,B5   @BITOFF,AUTO
          1 00079F  E805                                 LDR,R6   ,B5
          1 0007A0  6D0F                                 CMV,R6   15
          1 0007A1  0381 000C                            BLE      s:7082,PREL

      565     7079    3              LPTR = LPTR + BITOFF / 16;

   7079   1 0007A3  6044                                 SOR,R6   4
          1 0007A4  F856                                 LDR,R7   R6
          1 0007A5  6C00                                 LDV,R6   0
          1 0007A6  8447 0080                            AID      LPTR$,AUTO
          1 0007A8  8D47 0080                            SDI      LPTR$,AUTO

      566     7080    3              BITOFF = MOD(BITOFF,16);

   7080   1 0007AA  D805                                 LDR,R5   ,B5
          1 0007AB  D570 000F                            AND,R5   15,IMO
          1 0007AD  DF05                                 STR,R5   ,B5

      567     7081    3              END;

      568     7082    3           CALL GDU$SETUP_WINDOW(LPTR$) WHENALTRETURN DO;

   7082   1 0007AE  CBC7 0080                            LAB,B4   LPTR$,AUTO
          1 0007B0  CFC7 0090                            STB,B4   @DATA_TYPE+2,AUTO
          1 0007B2  BBC7 0090                            LAB,B3   @DATA_TYPE+2,AUTO
          1 0007B4  CBF0 0100                            LAB,B4   256,IMO
          1 0007B6  E380 0000 0000  xent                 LNJ,B6   GDU$SETUP_WINDOW
          1 0007B9       0003                            DC       s:7083,PREL
          1 0007BA  0F81 000F                            B        s:7088,PREL

      569     7083    4              IF %GH@VLD.STATUS < 0 THEN DO;

   7083   1 0007BC  EC80 0000 0000  xsym                 LDB,B6   GD$DELTA_DATA$
          1 0007BF  E846 0173                            LDR,R6   371,B6
          1 0007C1  6881 0008                            BGEZ,R6  s:7088,PREL

PL6.E3A0      #001=GDK$RESADDR File=GDK$RESADDR.:E05TSI                          TUE 07/29/97 21:26 Page:97
      570     7084    4                 GD_DATA.GD.ERROR = %GD#RSPBADADR;

   7084   1 0007C3  5C37                                 LDV,R5   55
          1 0007C4  DF46 0174                            STR,R5   372,B6

      571     7085    4                 ALTRETURN;

   7085   1 0007C6  ECC7 0070                            LDB,B6   MSG$+3,AUTO
          1 0007C8  B806                                 LDR,R3   ,B6
          1 0007C9  C3B6                                 LNJ,B4   ,B6,R3

      572     7086    4                 END /* IF NO READ PERMISSION */;
      573     7087    3              END /* whenaltreturn */;
      574     7088    3           IF ADDR_TYPE = %DESC_ACODE THEN DO;

   7088   1 0007CA  ECC7 0074                            LDB,B6   @ADDR_TYPE,AUTO
          1 0007CC  E806                                 LDR,R6   ,B6
          1 0007CD  6D40                                 CMV,R6   64
          1 0007CE  0981 000A                            BNE      s:7092,PREL

      575     7089    3              VAL = P_UBIN;

   7089   1 0007D0  8CC7 007E                            LDI      P$,AUTO
          1 0007D2  DCC7 0072                            LDB,B5   @VAL,AUTO
          1 0007D4  8D05                                 SDI      ,B5

      576     7090    3              RETURN;

   7090   1 0007D5  ECC7 0070                            LDB,B6   MSG$+3,AUTO
          1 0007D7  C3C6 0001                            LNJ,B4   1,B6

      577     7091    3              END;
      578     7092    3           IF DATA_TYPE ~= 0 THEN DO;

   7092   1 0007D9  DCC7 0078                            LDB,B5   @DATA_TYPE,AUTO
          1 0007DB  D805                                 LDR,R5   ,B5
          1 0007DC  5901 0026                            BEZ,R5   s:7099,PREL
PL6.E3A0      #001=GDK$RESADDR File=GDK$RESADDR.:E05TSI                          TUE 07/29/97 21:26 Page:98

      579     7093    4              CALL CNVTDECVAL(VAL,LPTR$,BITOFF,BITSIZE,DATA_TYPE) WHENALTRETURN DO;

   7093   1 0007DE  DFC7 008E                            STB,B5   @BITSIZE+2,AUTO
          1 0007E0  CCC7 007C                            LDB,B4   @BITSIZE,AUTO
          1 0007E2  CFC7 008C                            STB,B4   @BITOFF+2,AUTO
          1 0007E4  BCC7 0012                            LDB,B3   @BITOFF,AUTO
          1 0007E6  BFC7 008A                            STB,B3   @LPTR$+2,AUTO
          1 0007E8  ABC7 0080                            LAB,B2   LPTR$,AUTO
          1 0007EA  AFC7 0088                            STB,B2   @VAL+2,AUTO
          1 0007EC  9CC7 0072                            LDB,B1   @VAL,AUTO
          1 0007EE  9FC7 0086                            STB,B1   INDX+3,AUTO
          1 0007F0  E3C0 00C4                            LNJ,B6   s:0,PREL
          1 0007F2       0003                            DC       s:7094,PREL
          1 0007F3  0F81 000B                            B        s:7097,PREL

      580     7094    4                 GD_DATA.GD.ERROR = %GD#RSPBADADR;

   7094   1 0007F5  EC80 0000 0000  xsym                 LDB,B6   GD$DELTA_DATA$
          1 0007F8  6C37                                 LDV,R6   55
          1 0007F9  EF46 0174                            STR,R6   372,B6

      581     7095    4                 ALTRETURN;

   7095   1 0007FB  ECC7 0070                            LDB,B6   MSG$+3,AUTO
          1 0007FD  B806                                 LDR,R3   ,B6
          1 0007FE  C3B6                                 LNJ,B4   ,B6,R3

      582     7096    4                 END;
      583     7097    3              RETURN;

   7097   1 0007FF  ECC7 0070                            LDB,B6   MSG$+3,AUTO
          1 000801  C3C6 0001                            LNJ,B4   1,B6

      584     7098    3              END;
      585     7099    2           IF (((MOD(BITSIZE,16)=0) AND (MOD(BITOFF,16)=0)) AND

PL6.E3A0      #001=GDK$RESADDR File=GDK$RESADDR.:E05TSI                          TUE 07/29/97 21:26 Page:99
   7099   1 000803  CCC7 007C                            LDB,B4   @BITSIZE,AUTO
          1 000805  C804                                 LDR,R4   ,B4
          1 000806  C570 000F                            AND,R4   15,IMO
          1 000808  4981 0025                            BNEZ,R4  s:7104,PREL
          1 00080A  BCC7 0012                            LDB,B3   @BITOFF,AUTO
          1 00080C  C803                                 LDR,R4   ,B3
          1 00080D  C570 000F                            AND,R4   15,IMO
          1 00080F  4981 001E                            BNEZ,R4  s:7104,PREL
          1 000811  ACC7 000E                            LDB,B2   @LPTR,AUTO
          1 000813  8982                                 CMZ      ,B2
          1 000814  0801 0019                            BAL      s:7104,PREL

      586     7100    2              (LPTR_S.C=0)) THEN
      587     7101    2              IF BITSIZE = 32 THEN VAL = LPTR$->B$DBLWD;

   7101   1 000816  C804                                 LDR,R4   ,B4
          1 000817  4D20                                 CMV,R4   32
          1 000818  0981 0009                            BNE      s:7102,PREL

   7101   1 00081A  9CC7 0080                            LDB,B1   LPTR$,AUTO
          1 00081C  8C81                                 LDI      ,B1
          1 00081D  ECC7 0072                            LDB,B6   @VAL,AUTO
          1 00081F  8D06                                 SDI      ,B6
          1 000820  0F81 0045                            B        s:7112,PREL

      588     7102    2              ELSE IF BITSIZE = 16 THEN VAL = LPTR$->B$UBIN; ELSE;

   7102   1 000822  4D10                                 CMV,R4   16
          1 000823  0981 0042                            BNE      s:7112,PREL

   7102   1 000825  9CC7 0080                            LDB,B1   LPTR$,AUTO
          1 000827  F801                                 LDR,R7   ,B1
          1 000828  6C00                                 LDV,R6   0
          1 000829  ECC7 0072                            LDB,B6   @VAL,AUTO
          1 00082B  8D06                                 SDI      ,B6
          1 00082C  0F81 0039                            B        s:7112,PREL

PL6.E3A0      #001=GDK$RESADDR File=GDK$RESADDR.:E05TSI                          TUE 07/29/97 21:26 Page:100
      589     7103    3           ELSE DO;

      590     7104    4              IF LPTR_S.C = 1 THEN DO;

   7104   1 00082E  BCC7 000E                            LDB,B3   @LPTR,AUTO
          1 000830  C803                                 LDR,R4   ,B3
          1 000831  404F                                 SOR,R4   15
          1 000832  4D01                                 CMV,R4   1
          1 000833  0981 0008                            BNE      s:7108,PREL

      591     7105    4                 BITOFF = BITOFF + 8;

   7105   1 000835  ACC7 0012                            LDB,B2   @BITOFF,AUTO
          1 000837  B802                                 LDR,R3   ,B2
          1 000838  3E08                                 ADV,R3   8
          1 000839  BF02                                 STR,R3   ,B2

      592     7106    4                 LPTR_S.C = 0;

   7106   1 00083A  8803                                 LBF,'8000'X       ,B3
   7106   1 00083B       8000

      593     7107    4                 END;

      594     7108    4              DO I = BITOFF TO BITOFF+BITSIZE-1;

   7108   1 00083C  ACC7 0012                            LDB,B2   @BITOFF,AUTO
          1 00083E  E802                                 LDR,R6   ,B2
          1 00083F  EF47 0036                            STR,R6   I,AUTO
          1 000841  0F81 001B                            B        s:7110+2,PREL

      595     7109    4                 VAL_A(32-BITSIZE+I-BITOFF) = LPTR$->B$BITS.B(I);

   7109   1 000843  ECC7 007C                            LDB,B6   @BITSIZE,AUTO
          1 000845  E847 0036                            LDR,R6   I,AUTO
          1 000847  E206                                 SUB,R6   ,B6
          1 000848  DCC7 0012                            LDB,B5   @BITOFF,AUTO
PL6.E3A0      #001=GDK$RESADDR File=GDK$RESADDR.:E05TSI                          TUE 07/29/97 21:26 Page:101
          1 00084A  E205                                 SUB,R6   ,B5
          1 00084B  EF47 0090                            STR,R6   @DATA_TYPE+2,AUTO
          1 00084D  ACC7 0080                            LDB,B2   LPTR$,AUTO
          1 00084F  A847 0036                            LDR,R2   I,AUTO
          1 000851  6C01                                 LDV,R6   1
          1 000852  BCC7 0072                            LDB,B3   @VAL,AUTO
          1 000854  B847 0090                            LDR,R3   @DATA_TYPE+2,AUTO
          1 000856  3E20                                 ADV,R3   32
          1 000857  7C01                                 LDV,R7   1
          1 000858  D380 0000 0000  xent                 LNJ,B5   X6B_BLR

      596     7110    4                 END;

   7110   1 00085B  8AC7 0036                            INC      I,AUTO
          1 00085D  ECC7 0012                            LDB,B6   @BITOFF,AUTO
          1 00085F  DCC7 007C                            LDB,B5   @BITSIZE,AUTO
          1 000861  E806                                 LDR,R6   ,B6
          1 000862  EA05                                 ADD,R6   ,B5
          1 000863  E947 0036                            CMR,R6   I,AUTO
          1 000865  035E                                 BG       s:7109,SPREL

      597     7111    3              END /* ELSE DO */;

      598     7112    2           RETURN;

   7112   1 000866  ECC7 0070                            LDB,B6   MSG$+3,AUTO
          1 000868  C3C6 0001                            LNJ,B4   1,B6

      599     7113        /**/
      600     7114        /* END GETVAL */
      601     7115        /**/
      602     7116        %EJECT;
PL6.E3A0      #001=GDK$RESADDR File=GDK$RESADDR.:E05TSI                          TUE 07/29/97 21:26 Page:102
      603     7117    2   GETINDX: PROC;

   7117   1 00086A  EFC7 0084            GETINDX         STB,B6   INDX+1,AUTO

      604     7118        /**/
      605     7119    3           LAST_FLAG = %FALSE;

   7119   1 00086C  8747 0082                            CL       LAST_FLAG,AUTO

      606     7120    3           INDX = 0;

   7120   1 00086E  8747 0083                            CL       INDX,AUTO

      607     7121    4           DO WHILE ~LAST_FLAG;

   7121   1 000870  0F81 001E                            B        s:7126,PREL

      608     7122    4              INDX = INDX + (IDX.CURMULT(ILVL-1) * IDX.ELMNTSIZ(ILVL-1));

   7122   1 000872  B847 0029                            LDR,R3   ILVL,AUTO
          1 000874  3F03                                 MLV,R3   3
          1 000875  3E38                                 ADV,R3   56
          1 000876  A847 0029                            LDR,R2   ILVL,AUTO
          1 000878  2F03                                 MLV,R2   3
          1 000879  2E39                                 ADV,R2   57
          1 00087A  F837                                 LDR,R7   ,AUTO,R3
          1 00087B  FB27                                 MUL,R7   ,AUTO,R2
          1 00087C  E857                                 LDR,R6   R7
          1 00087D  EA47 0083                            ADD,R6   INDX,AUTO
          1 00087F  EF47 0083                            STR,R6   INDX,AUTO

      609     7123    4              ILVL = ILVL - 1;

   7123   1 000881  88C7 0029                            DEC      ILVL,AUTO

      610     7124    4              IF ILVL = 0 THEN EXIT;

PL6.E3A0      #001=GDK$RESADDR File=GDK$RESADDR.:E05TSI                          TUE 07/29/97 21:26 Page:103
   7124   1 000883  D847 0029                            LDR,R5   ILVL,AUTO
          1 000885  5901 0010                            BEZ,R5   s:7127,PREL

      611     7125    4              LAST_FLAG = IDX.LASTIDX(ILVL-1);

   7125   1 000887  B855                                 LDR,R3   R5
          1 000888  3F03                                 MLV,R3   3
          1 000889  3E3A                                 ADV,R3   58
          1 00088A  C837                                 LDR,R4   ,AUTO,R3
          1 00088B  C570 8000                            AND,R4   -32768,IMO
          1 00088D  CF47 0082                            STR,R4   LAST_FLAG,AUTO

      612     7126    4              END /* WHILE ~LAST_FLAG */;

   7126   1 00088F  E847 0082                            LDR,R6   LAST_FLAG,AUTO
          1 000891  E570 8000                            AND,R6   -32768,IMO
          1 000893  E670 8000                            XOR,R6   -32768,IMO
          1 000895  69DD                                 BNEZ,R6  s:7122,SPREL

      613     7127    3           LPTR = LPTR + (INDX / 16);

   7127   1 000896  E847 0083                            LDR,R6   INDX,AUTO
          1 000898  6044                                 SOR,R6   4
          1 000899  F856                                 LDR,R7   R6
          1 00089A  6C00                                 LDV,R6   0
          1 00089B  8447 0080                            AID      LPTR$,AUTO
          1 00089D  8D47 0080                            SDI      LPTR$,AUTO

      614     7128    3           BITOFF = BITOFF + MOD(INDX,16);

   7128   1 00089F  D847 0083                            LDR,R5   INDX,AUTO
          1 0008A1  D570 000F                            AND,R5   15,IMO
          1 0008A3  ECC7 0012                            LDB,B6   @BITOFF,AUTO
          1 0008A5  DA06                                 ADD,R5   ,B6
          1 0008A6  DF06                                 STR,R5   ,B6

      615     7129    4           IF BITOFF > 15 THEN DO;
PL6.E3A0      #001=GDK$RESADDR File=GDK$RESADDR.:E05TSI                          TUE 07/29/97 21:26 Page:104

   7129   1 0008A7  5D0F                                 CMV,R5   15
          1 0008A8  0381 0008                            BLE      s:7133,PREL

      616     7130    4              LPTR = LPTR + 1;

   7130   1 0008AA  8AC7 0081                            INC      LPTR$+1,AUTO
          1 0008AC  8EC7 0080                            CAD      LPTR$,AUTO

      617     7131    4              BITOFF = BITOFF - 16;

   7131   1 0008AE  E806                                 LDR,R6   ,B6
          1 0008AF  6EF0                                 ADV,R6   -16
          1 0008B0  EF06                                 STR,R6   ,B6

      618     7132    4              END;

      619     7133    3           RETURN;

   7133   1 0008B1  ECC7 0084                            LDB,B6   INDX+1,AUTO
          1 0008B3  C3C6 0001                            LNJ,B4   1,B6

      620     7134    3   END GETINDX;
      621     7135        /**/
      622     7136        %EJECT;
PL6.E3A0      #001=GDK$RESADDR File=GDK$RESADDR.:E05TSI                          TUE 07/29/97 21:26 Page:105
      623     7137    2   CNVTDECVAL: PROC (VAL,LPTR$,BITOFF,BITSIZE,DATA_TYPE) ALTRET;

   7137   1 0008B5  EFC7 0084            CNVTDECVAL      STB,B6   INDX+1,AUTO

      624     7138        /**/
      625     7139    3   DCL VAL UBIN(32);
      626     7140    3   DCL LPTR$ PTR;
      627     7141    3   DCL BITOFF UBIN;
      628     7142    3   DCL BITSIZE UBIN;
      629     7143    3   DCL DATA_TYPE UBIN;
      630     7144        /**/
      631     7145        /* Local Vars */
      632     7146        /**/
      633     7147    3   DCL 1 DECVAL ALIGNED BASED,
      634     7148    3         2 D(0:0) UBIN(4) UNAL;
      635     7149        /**/
      636     7150    4           DO CASE(DATA_TYPE);

   7150   1 0008B7  DCC7 008E                            LDB,B5   @DATA_TYPE,AUTO
          1 0008B9  B805                                 LDR,R3   ,B5
          1 0008BA  3EE7                                 ADV,R3   -25
          1 0008BB  3D15                                 CMV,R3   21
          1 0008BC  0281 0112                            BGE      s:7164,PREL
          1 0008BE  A830 0000 08C4  01                   LDR,R2   s:7150+13,R3
          1 0008C1  83A0 0000 08D9  01                   JMP      s:7152,R2
          1 0008C4       0029                            DC       s:7154,PREL
          1 0008C5       00F6                            DC       s:7164,PREL
          1 0008C6       00F6                            DC       s:7164,PREL
          1 0008C7       00F6                            DC       s:7164,PREL
          1 0008C8       00F6                            DC       s:7164,PREL
          1 0008C9       00F6                            DC       s:7164,PREL
          1 0008CA       00F6                            DC       s:7164,PREL
          1 0008CB       00F6                            DC       s:7164,PREL
          1 0008CC       00F6                            DC       s:7164,PREL
          1 0008CD       00F6                            DC       s:7164,PREL
          1 0008CE       00F6                            DC       s:7164,PREL
          1 0008CF       00F6                            DC       s:7164,PREL
PL6.E3A0      #001=GDK$RESADDR File=GDK$RESADDR.:E05TSI                          TUE 07/29/97 21:26 Page:106
          1 0008D0       00F6                            DC       s:7164,PREL
          1 0008D1       00F6                            DC       s:7164,PREL
          1 0008D2       00F6                            DC       s:7164,PREL
          1 0008D3       0000                            DC       s:7152,PREL
          1 0008D4       0052                            DC       s:7156,PREL
          1 0008D5       00A4                            DC       s:7160,PREL
          1 0008D6       007B                            DC       s:7158,PREL
          1 0008D7       00F6                            DC       s:7164,PREL
          1 0008D8       00CD                            DC       s:7162,PREL

      637     7151    4              CASE(40); /* Packed decimal fixed, no sign */

      638     7152    4                 CALL GDK$PUDECBIN(VAL,LPTR$->DECVAL,(BITOFF+3)/4,(BITSIZE+3)/4);

   7152   1 0008D9  CCC7 0088                            LDB,B4   @LPTR$,AUTO
          1 0008DB  BC84                                 LDB,B3   ,B4
          1 0008DC  ACC7 008A                            LDB,B2   @BITOFF,AUTO
          1 0008DE  E802                                 LDR,R6   ,B2
          1 0008DF  6E03                                 ADV,R6   3
          1 0008E0  6042                                 SOR,R6   2
          1 0008E1  9CC7 008C                            LDB,B1   @BITSIZE,AUTO
          1 0008E3  D801                                 LDR,R5   ,B1
          1 0008E4  5E03                                 ADV,R5   3
          1 0008E5  5042                                 SOR,R5   2
          1 0008E6  EF47 0090                            STR,R6   @DATA_TYPE+2,AUTO
          1 0008E8  DF47 0091                            STR,R5   @DATA_TYPE+3,AUTO
          1 0008EA  EBC7 0091                            LAB,B6   @DATA_TYPE+3,AUTO
          1 0008EC  EFC7 0098                            STB,B6   @DATA_TYPE+10,AUTO
          1 0008EE  EBC7 0090                            LAB,B6   @DATA_TYPE+2,AUTO
          1 0008F0  EFC7 0096                            STB,B6   @DATA_TYPE+8,AUTO
          1 0008F2  BFC7 0094                            STB,B3   @DATA_TYPE+6,AUTO
          1 0008F4  ECC7 0086                            LDB,B6   @VAL,AUTO
          1 0008F6  EFC7 0092                            STB,B6   @DATA_TYPE+4,AUTO
          1 0008F8  BBC7 0092                            LAB,B3   @DATA_TYPE+4,AUTO
          1 0008FA  CBF0 0400                            LAB,B4   1024,IMO
          1 0008FC  E380 0000 0000  xent                 LNJ,B6   GDK$PUDECBIN
          1 0008FF       0001                            DC       s:7152+39,PREL
PL6.E3A0      #001=GDK$RESADDR File=GDK$RESADDR.:E05TSI                          TUE 07/29/97 21:26 Page:107
          1 000900  0F81 00D2                            B        s:7166,PREL

      639     7153    4              CASE(25); /* Packed decimal fixed, trailing ASCII sign */

      640     7154    4                 CALL GDK$PTDECBIN(VAL,LPTR$->DECVAL,(BITOFF+3)/4,(BITSIZE+3)/4);

   7154   1 000902  CCC7 0088                            LDB,B4   @LPTR$,AUTO
          1 000904  BC84                                 LDB,B3   ,B4
          1 000905  ACC7 008A                            LDB,B2   @BITOFF,AUTO
          1 000907  E802                                 LDR,R6   ,B2
          1 000908  6E03                                 ADV,R6   3
          1 000909  6042                                 SOR,R6   2
          1 00090A  9CC7 008C                            LDB,B1   @BITSIZE,AUTO
          1 00090C  D801                                 LDR,R5   ,B1
          1 00090D  5E03                                 ADV,R5   3
          1 00090E  5042                                 SOR,R5   2
          1 00090F  EF47 0090                            STR,R6   @DATA_TYPE+2,AUTO
          1 000911  DF47 0091                            STR,R5   @DATA_TYPE+3,AUTO
          1 000913  EBC7 0091                            LAB,B6   @DATA_TYPE+3,AUTO
          1 000915  EFC7 0098                            STB,B6   @DATA_TYPE+10,AUTO
          1 000917  EBC7 0090                            LAB,B6   @DATA_TYPE+2,AUTO
          1 000919  EFC7 0096                            STB,B6   @DATA_TYPE+8,AUTO
          1 00091B  BFC7 0094                            STB,B3   @DATA_TYPE+6,AUTO
          1 00091D  ECC7 0086                            LDB,B6   @VAL,AUTO
          1 00091F  EFC7 0092                            STB,B6   @DATA_TYPE+4,AUTO
          1 000921  BBC7 0092                            LAB,B3   @DATA_TYPE+4,AUTO
          1 000923  CBF0 0400                            LAB,B4   1024,IMO
          1 000925  E380 0000 0000  xent                 LNJ,B6   GDK$PTDECBIN
          1 000928       0001                            DC       s:7154+39,PREL
          1 000929  0F81 00A9                            B        s:7166,PREL

      641     7155    4              CASE(41); /* Unpacked decimal fixed, no sign */

      642     7156    4                 CALL GDK$UUDECBIN(VAL,LPTR$->DECVAL,(BITOFF+7)/8,(BITSIZE+7)/8);

   7156   1 00092B  CCC7 0088                            LDB,B4   @LPTR$,AUTO
          1 00092D  BC84                                 LDB,B3   ,B4
PL6.E3A0      #001=GDK$RESADDR File=GDK$RESADDR.:E05TSI                          TUE 07/29/97 21:26 Page:108
          1 00092E  ACC7 008A                            LDB,B2   @BITOFF,AUTO
          1 000930  E802                                 LDR,R6   ,B2
          1 000931  6E07                                 ADV,R6   7
          1 000932  6043                                 SOR,R6   3
          1 000933  9CC7 008C                            LDB,B1   @BITSIZE,AUTO
          1 000935  D801                                 LDR,R5   ,B1
          1 000936  5E07                                 ADV,R5   7
          1 000937  5043                                 SOR,R5   3
          1 000938  EF47 0090                            STR,R6   @DATA_TYPE+2,AUTO
          1 00093A  DF47 0091                            STR,R5   @DATA_TYPE+3,AUTO
          1 00093C  EBC7 0091                            LAB,B6   @DATA_TYPE+3,AUTO
          1 00093E  EFC7 0098                            STB,B6   @DATA_TYPE+10,AUTO
          1 000940  EBC7 0090                            LAB,B6   @DATA_TYPE+2,AUTO
          1 000942  EFC7 0096                            STB,B6   @DATA_TYPE+8,AUTO
          1 000944  BFC7 0094                            STB,B3   @DATA_TYPE+6,AUTO
          1 000946  ECC7 0086                            LDB,B6   @VAL,AUTO
          1 000948  EFC7 0092                            STB,B6   @DATA_TYPE+4,AUTO
          1 00094A  BBC7 0092                            LAB,B3   @DATA_TYPE+4,AUTO
          1 00094C  CBF0 0400                            LAB,B4   1024,IMO
          1 00094E  E380 0000 0000  xent                 LNJ,B6   GDK$UUDECBIN
          1 000951       0001                            DC       s:7156+39,PREL
          1 000952  0F81 0080                            B        s:7166,PREL

      643     7157    4              CASE(43); /* Unpacked decimal fixed, trailing ASCII sign */

      644     7158    4                 CALL GDK$UTDECBIN(VAL,LPTR$->DECVAL,(BITOFF+7)/8,(BITSIZE+7)/8);

   7158   1 000954  CCC7 0088                            LDB,B4   @LPTR$,AUTO
          1 000956  BC84                                 LDB,B3   ,B4
          1 000957  ACC7 008A                            LDB,B2   @BITOFF,AUTO
          1 000959  E802                                 LDR,R6   ,B2
          1 00095A  6E07                                 ADV,R6   7
          1 00095B  6043                                 SOR,R6   3
          1 00095C  9CC7 008C                            LDB,B1   @BITSIZE,AUTO
          1 00095E  D801                                 LDR,R5   ,B1
          1 00095F  5E07                                 ADV,R5   7
          1 000960  5043                                 SOR,R5   3
PL6.E3A0      #001=GDK$RESADDR File=GDK$RESADDR.:E05TSI                          TUE 07/29/97 21:26 Page:109
          1 000961  EF47 0090                            STR,R6   @DATA_TYPE+2,AUTO
          1 000963  DF47 0091                            STR,R5   @DATA_TYPE+3,AUTO
          1 000965  EBC7 0091                            LAB,B6   @DATA_TYPE+3,AUTO
          1 000967  EFC7 0098                            STB,B6   @DATA_TYPE+10,AUTO
          1 000969  EBC7 0090                            LAB,B6   @DATA_TYPE+2,AUTO
          1 00096B  EFC7 0096                            STB,B6   @DATA_TYPE+8,AUTO
          1 00096D  BFC7 0094                            STB,B3   @DATA_TYPE+6,AUTO
          1 00096F  ECC7 0086                            LDB,B6   @VAL,AUTO
          1 000971  EFC7 0092                            STB,B6   @DATA_TYPE+4,AUTO
          1 000973  BBC7 0092                            LAB,B3   @DATA_TYPE+4,AUTO
          1 000975  CBF0 0400                            LAB,B4   1024,IMO
          1 000977  E380 0000 0000  xent                 LNJ,B6   GDK$UTDECBIN
          1 00097A       0001                            DC       s:7158+39,PREL
          1 00097B  0F81 0057                            B        s:7166,PREL

      645     7159    4              CASE(42); /* Unpacked decimal fixed, leading ASCII sign */

      646     7160    4                 CALL GDK$ULDECBIN(VAL,LPTR$->DECVAL,(BITOFF+7)/8,(BITSIZE+7)/8);

   7160   1 00097D  CCC7 0088                            LDB,B4   @LPTR$,AUTO
          1 00097F  BC84                                 LDB,B3   ,B4
          1 000980  ACC7 008A                            LDB,B2   @BITOFF,AUTO
          1 000982  E802                                 LDR,R6   ,B2
          1 000983  6E07                                 ADV,R6   7
          1 000984  6043                                 SOR,R6   3
          1 000985  9CC7 008C                            LDB,B1   @BITSIZE,AUTO
          1 000987  D801                                 LDR,R5   ,B1
          1 000988  5E07                                 ADV,R5   7
          1 000989  5043                                 SOR,R5   3
          1 00098A  EF47 0090                            STR,R6   @DATA_TYPE+2,AUTO
          1 00098C  DF47 0091                            STR,R5   @DATA_TYPE+3,AUTO
          1 00098E  EBC7 0091                            LAB,B6   @DATA_TYPE+3,AUTO
          1 000990  EFC7 0098                            STB,B6   @DATA_TYPE+10,AUTO
          1 000992  EBC7 0090                            LAB,B6   @DATA_TYPE+2,AUTO
          1 000994  EFC7 0096                            STB,B6   @DATA_TYPE+8,AUTO
          1 000996  BFC7 0094                            STB,B3   @DATA_TYPE+6,AUTO
          1 000998  ECC7 0086                            LDB,B6   @VAL,AUTO
PL6.E3A0      #001=GDK$RESADDR File=GDK$RESADDR.:E05TSI                          TUE 07/29/97 21:26 Page:110
          1 00099A  EFC7 0092                            STB,B6   @DATA_TYPE+4,AUTO
          1 00099C  BBC7 0092                            LAB,B3   @DATA_TYPE+4,AUTO
          1 00099E  CBF0 0400                            LAB,B4   1024,IMO
          1 0009A0  E380 0000 0000  xent                 LNJ,B6   GDK$ULDECBIN
          1 0009A3       0001                            DC       s:7160+39,PREL
          1 0009A4  0F81 002E                            B        s:7166,PREL

      647     7161    4              CASE(45); /* Unpacked decimal fixed, trailing overpunched */

      648     7162    4                 CALL GDK$UODECBIN(VAL,LPTR$->DECVAL,(BITOFF+7)/8,(BITSIZE+7)/8);

   7162   1 0009A6  CCC7 0088                            LDB,B4   @LPTR$,AUTO
          1 0009A8  BC84                                 LDB,B3   ,B4
          1 0009A9  ACC7 008A                            LDB,B2   @BITOFF,AUTO
          1 0009AB  E802                                 LDR,R6   ,B2
          1 0009AC  6E07                                 ADV,R6   7
          1 0009AD  6043                                 SOR,R6   3
          1 0009AE  9CC7 008C                            LDB,B1   @BITSIZE,AUTO
          1 0009B0  D801                                 LDR,R5   ,B1
          1 0009B1  5E07                                 ADV,R5   7
          1 0009B2  5043                                 SOR,R5   3
          1 0009B3  EF47 0090                            STR,R6   @DATA_TYPE+2,AUTO
          1 0009B5  DF47 0091                            STR,R5   @DATA_TYPE+3,AUTO
          1 0009B7  EBC7 0091                            LAB,B6   @DATA_TYPE+3,AUTO
          1 0009B9  EFC7 0098                            STB,B6   @DATA_TYPE+10,AUTO
          1 0009BB  EBC7 0090                            LAB,B6   @DATA_TYPE+2,AUTO
          1 0009BD  EFC7 0096                            STB,B6   @DATA_TYPE+8,AUTO
          1 0009BF  BFC7 0094                            STB,B3   @DATA_TYPE+6,AUTO
          1 0009C1  ECC7 0086                            LDB,B6   @VAL,AUTO
          1 0009C3  EFC7 0092                            STB,B6   @DATA_TYPE+4,AUTO
          1 0009C5  BBC7 0092                            LAB,B3   @DATA_TYPE+4,AUTO
          1 0009C7  CBF0 0400                            LAB,B4   1024,IMO
          1 0009C9  E380 0000 0000  xent                 LNJ,B6   GDK$UODECBIN
          1 0009CC       0001                            DC       s:7162+39,PREL
          1 0009CD  0F81 0005                            B        s:7166,PREL

      649     7163    4              CASE(ELSE);
PL6.E3A0      #001=GDK$RESADDR File=GDK$RESADDR.:E05TSI                          TUE 07/29/97 21:26 Page:111

      650     7164    4                 ALTRETURN;

   7164   1 0009CF  ECC7 0084                            LDB,B6   INDX+1,AUTO
          1 0009D1  A806                                 LDR,R2   ,B6
          1 0009D2  C3A6                                 LNJ,B4   ,B6,R2

      651     7165    4              END /* CASE */;

      652     7166    3           RETURN;

   7166   1 0009D3  ECC7 0084                            LDB,B6   INDX+1,AUTO
          1 0009D5  C3C6 0001                            LNJ,B4   1,B6
      653     7167    3   END CNVTDECVAL;
      654     7168        /**/
      655     7169    2   END GETVAL;
      656     7170        /**/
      657     7171    1   END GDK$RESADDR;

PL6.E3A0      #001=GDK$RESADDR File=GDK$RESADDR.:E05TSI                          TUE 07/29/97 21:26 Page:112
--  Include file information  --

   B$OBJECT_C.:E05TOU  is referenced.
   DD_ERR_C.:E05TOU  is referenced.
   GM_VIRTUAL_E.:E05TOU  is referenced.
   GH_HARDWARE_M.:E05TOU  is referenced.
   GD$MSG_M.:E05TOU  is referenced.
   GDA_EQUS_E.:E05TOU  is referenced.
   GD_EQUS_E.:E05TOU  is referenced.
   GD_DATA_M.:E05TOU  is referenced.
   GD_STATIC_DATA.:E05TOU  cannot be made into a system file and is referenced.
   G_JIT_M.:E05TOU  is referenced.
   DD_SRTN_C.:E05TOU  is referenced.
   DD_ACODE_C.:E05TOU  is referenced.
   DD_ICODE_C.:E05TOU  is referenced.
   DD$DITEM.:E05TOU  cannot be made into a system file and is referenced.
   LCP_6.:E05TOU  cannot be made into a system file and is referenced.
   G_LCP6_E.:E05TOU  was found in the system file and is referenced.
   GT_LCP6_M.:E05TOU  was found in the system file and is referenced.
   KI_CP6.:E05TOU  was found in the system file and is referenced.
   GF_LCP6_M.:E05TOU  was found in the system file and is referenced.
   GM_LCP6_M.:E05TOU  was found in the system file and is referenced.
   GU_LCP6_M.:E05TOU  was found in the system file and is referenced.
   GJ_LCP6_M.:E05TOU  was found in the system file and is referenced.
   GH_LCP6_M.:E05TOU  was found in the system file and is referenced.
      No diagnostics issued in procedure GDK$RESADDR.
PL6.E3A0      #001=GDK$RESADDR File=GDK$RESADDR.:E05TSI                          TUE 07/29/97 21:26 Page:113

 **** Variables and constants ****

  ****  Auto variables  ****

  ****  Scalars and arrays  ****
HexLoc.c.b A Datatyp(siz) R M Lvl/name                 HexLoc.c.b A Datatyp(siz) R M Lvl/name

    74-0-0/w PTR         r     1 @ADDR_TYPE                 6-0-0/w PTR         r     1 @ARRAY_CUR
     4-0-0/w PTR         r     1 @ARRAY_FIRST              76-0-0/w PTR         r     1 @ARRAY_FLAG
     8-0-0/w PTR         r     1 @ARRAY_HIGH               12-0-0/w PTR         r     1 @BITOFF
    8A-0-0/w PTR         r     1 @BITOFF                   10-0-0/w PTR         r     1 @BITSIZE
    7C-0-0/w PTR         r     1 @BITSIZE                  8C-0-0/w PTR         r     1 @BITSIZE
    78-0-0/w PTR         r     1 @DATA_TYPE                8E-0-0/w PTR         r     1 @DATA_TYPE
     C-0-0/w PTR         r     1 @DESC#                    7A-0-0/w PTR         r     1 @INVAL
    16-0-0/w PTR         r     1 @IS_PTR                    E-0-0/w PTR         r     1 @LPTR
    88-0-0/w PTR         r     1 @LPTR$                    14-0-0/w PTR         r     1 @NOT_IS
     A-0-0/w PTR         r     1 @SEG                      72-0-0/w PTR         r     1 @VAL
    86-0-0/w PTR         r     1 @VAL                      2D-0-0/w UBIN(16)    r     1 ADDR_TYPE
    *0-0-0/w UBIN(16)    r     1 ADDR_TYPE                 *0-0-0/w UBIN(16)    r     1 ARRAY_CUR
    *0-0-0/w BIT         r     1 ARRAY_FIRST               2C-0-0/w BIT         r     1 ARRAY_FLAG
    *0-0-0/w BIT         r     1 ARRAY_FLAG                *0-0-0/w UBIN(16)    r     1 ARRAY_HIGH
    37-0-0/w UBIN(32)    r     1 B7                        37-0-0/w PTR         r     1 B7$
    *0-0-0/w UBIN(16)    r     1 BITOFF                    *0-0-0/w UBIN(16)    r     1 BITOFF
    *0-0-0/w UBIN(16)    r     1 BITSIZE                   *0-0-0/w UBIN(16)    r     1 BITSIZE
    *0-0-0/w UBIN(16)    r     1 BITSIZE                   30-0-0/w UBIN(16)    r     1 DATA_TYPE
    *0-0-0/w UBIN(16)    r     1 DATA_TYPE                 *0-0-0/w UBIN(16)    r     1 DATA_TYPE
    *0-0-0/w UBIN(16)    r     1 DESC#                     *0-0-0/w STRC(32)    r     1 DESCPTR
    22-0-0/w PTR         r     1 DITEM$                    33-0-0/w UBIN(16)    r     1 EXPR_OP
    31-0-0/w UBIN(32)    r     1 EXPVAL                    2F-0-0/w BIT         r     1 FIRST_PTR
    36-0-0/w UBIN(16)    r     1 I                         3B-0-0/w STRC(48)    r     1 IDX(0:9)
    29-0-0/w UBIN(16)    r     1 ILVL                      *0-0-0/w STRC(32)    r     1 INADDR
    34-0-0/w UBIN(32)    r     1 INDX                      83-0-0/w UBIN(16)    r     1 INDX
    39-0-0/b BIT (32)    r     1 INVAL                     *0-0-0/w SBIN(32)    r     1 INVAL
    *0-0-0/w BIT         r     1 IS_PTR                    82-0-0/w BIT         r     1 LAST_FLAG
    *0-0-0/w UBIN(32)    r     1 LPTR                      80-0-0/w UBIN(32)    r     1 LPTR
    80-0-0/w PTR         r     1 LPTR$                     *0-0-0/w PTR         r     1 LPTR$
    *0-0-0/w STRC(32)    r     1 LPTR_S                    24-0-0/w PTR         r     1 MITEM$
PL6.E3A0      #001=GDK$RESADDR File=GDK$RESADDR.:E05TSI                          TUE 07/29/97 21:26 Page:114
    6D-0-0/w PTR         r     1 MSG$                      *0-0-0/w BIT         r     1 NOT_IS
    7E-0-0/w PTR         r     1 P$                        *0-0-0/w STRC(32)    r     1 PARMPTR
    28-0-0/w UBIN(16)    r     1 PLVL                      59-0-0/w UBIN(32)    r     1 PNTR(0:9)
    59-0-0/w PTR         r     1 PNTR$(0:9)                59-0-0/w STRC(32)    r     1 PNTR_S(0:9)
    7E-0-0/w UBIN(32)    r     1 P_UBIN                    *0-0-0/w UBIN(16)    r     1 SEG
    20-0-0/w PTR         r     1 TITEM$                    2E-0-0/w UBIN(16)    r     1 TYPE_CODE
    26-0-0/w SBIN(32)    r     1 VAL                       *0-0-0/w UBIN(32)    r     1 VAL
    *0-0-0/w UBIN(32)    r     1 VAL                       26-0-0/w BIT (32)    r     1 VAL_
    *0-0-0/w BIT         r     1 VAL_A(0:31)               1A-0-0/w PTR         r     1 ZITEM$

  ****  SYMREF variables  ****

  ****  Scalars and arrays  ****
HexLoc.c.b A Datatyp(siz) R M Lvl/name                 HexLoc.c.b A Datatyp(siz) R M Lvl/name

     0-0-0/w PTR         r     1 G$ISR1$                    0-0-0/w PTR         r     1 G$ISR2$
     0-0-0/w PTR         r     1 G$ISR3$                    0-0-0/w PTR         r     1 G$ISR4$
     0-0-0/w PTR         r     1 G$ISR5$                    0-0-0/w PTR         r     1 G$ISR6$
     0-0-0/w PTR         r     1 G$ISR7$                    0-0-0/w PTR         r     1 G$JIT$
     0-0-0/w PTR         r     1 G$ROS$                     0-0-0/w PTR         r     1 G$UAUTO_DS$
     0-0-0/w PTR         r     1 G$USRDS1$                  0-0-0/w PTR         r     1 G$USRDS2$
     0-0-0/w PTR         r     1 G$USRDS3$                  0-0-0/w PTR         r     1 G$USRDS4$
     0-0-0/w PTR         r     1 GD$DELTA_DATA$

  ****  BASED and DCB variables  ****

  ****  Scalars and arrays  ****
HexLoc.c.b A Datatyp(siz) R M Lvl/name                 HexLoc.c.b A Datatyp(siz) R M Lvl/name

     0-0-0/w STRC        r     1 B$BITS                     0-0-0/w UBIN(32)    r     1 B$DBLWD
     0-0-0/w PTR         r     1 B$PTR                      0-0-0/w UBIN(16)    r     1 B$UBIN
     0-0-0/w STRC(4)     r     1 DECVAL                     0-0-0/w STRC(64)    r     1 DITEM
     0-0-0/w STRC(928)   r     1 G$TSA                      0-0-0/w STRC(3344)  r     1 GD$MSG
     0-0-0/w STRC(16704) r     1 GD_DATA                    0-0-0/w STRC(80)    r     1 GH_VLD
     0-0-0/w STRC(96)    r     1 MITEM                      0-0-0/w STRC(64)    r     1 ZITEM

PL6.E3A0      #001=GDK$RESADDR File=GDK$RESADDR.:E05TSI                          TUE 07/29/97 21:26 Page:115

   Procedure GDK$RESADDR requires 2519 words for executable code.
   Procedure GDK$RESADDR requires 154 words of local(AUTO) storage.

    No errors detected in file GDK$RESADDR.:E05TSI    .
PL6.E3A0      #001=GDK$RESADDR File=GDK$RESADDR.:E05TSI                          TUE 07/29/97 21:26 Page:116
          *** CROSS REFERENCE LISTING ***
**     DENOTES     IDENTIFIER DEFINITION
<<                 IDENTIFIER'S VALUE SET
>>                 IDENTIFIER'S VALUE USED
<>                 IDENTIFIER SET AND/OR USED
--                 IDENTIFIER REFERENCED
PL6.E3A0      #001=GDK$RESADDR File=GDK$RESADDR.:E05TSI                          TUE 07/29/97 21:26 Page:117
          MINI XREF LISTING

ADDR_TYPE
      6426**DCL      6606<<ASSIGN   6619<>CALL     6630<>CALL     6642<>CALL     6660<>CALL     6667<>CALL
      6673>>IF       6676<<ASSIGN   6680<>CALL     6684<>CALL     6686>>IF       6696<<ASSIGN   6706>>DOCASE
      6790>>IF
ADDR_TYPE IN PROCEDURE GETVAL
      6816**DCL      6809--PROC     6915>>DOCASE   7088>>IF
ARRAY_CUR
      6399**DCL         6--PROC     6648<<ASSIGN   6651>>ASSIGN
ARRAY_FIRST
      6398**DCL         6--PROC     6641>>IF       6659>>IF
ARRAY_FLAG
      6425**DCL      6604<<ASSIGN   6619<>CALL     6630<>CALL     6642<>CALL     6660<>CALL     6667<>CALL
      6675<<ASSIGN   6680<>CALL     6681<>CALL     6684<>CALL
ARRAY_FLAG IN PROCEDURE GETVAL
      6817**DCL      6809--PROC     6922>>IF       6929>>IF       6936>>IF
ARRAY_HIGH
      6400**DCL         6--PROC     6662<<ASSIGN
B$BITS.B IN PROCEDURE GETVAL
      6874**DCL      7109>>ASSIGN
B$DBLWD IN PROCEDURE GETVAL
      6872**DCL      7101>>ASSIGN
B$PTR IN PROCEDURE GETVAL
      6869**DCL      7031>>ASSIGN   7068>>ASSIGN
B$UBIN IN PROCEDURE GETVAL
      6870**DCL      7102>>ASSIGN
B7
      6435**DCL      6795>>ASSIGN
B7$
      6434**DCL      6435--REDEF    6792<<ASSIGN   6794<<ASSIGN
BADVAL
      6804**LABEL    6619--CALLALT  6630--CALLALT  6642--CALLALT  6660--CALLALT  6667--CALLALT  6680--CALLALT
      6681--CALLALT  6684--CALLALT
PL6.E3A0      #001=GDK$RESADDR File=GDK$RESADDR.:E05TSI                          TUE 07/29/97 21:26 Page:118
BASED_STATIC
      6774**LABEL    6757--GOTO
BITOFF
      6411**DCL         6--PROC     6700<<ASSIGN   6704<<ASSIGN   6756<<ASSIGN   6760<<ASSIGN   6760>>ASSIGN
      6767<<ASSIGN   6767>>ASSIGN   6768>>IF       6770<<ASSIGN   6770>>ASSIGN   6921<<ASSIGN   6924<<ASSIGN
      6928<<ASSIGN   6928>>ASSIGN   6935<<ASSIGN   7078>>IF       7079>>ASSIGN   7080<<ASSIGN   7080>>ASSIGN
      7093<>CALL     7099>>IF       7105<<ASSIGN   7105>>ASSIGN   7108>>DOINDEX  7108>>DOINDEX  7109>>ASSIGN
      7128<<ASSIGN   7128>>ASSIGN   7129>>IF       7131<<ASSIGN   7131>>ASSIGN
BITOFF IN PROCEDURE CNVTDECVAL
      7141**DCL      7137--PROC     7152>>CALL     7154>>CALL     7156>>CALL     7158>>CALL     7160>>CALL
      7162>>CALL
BITSIZE
      6410**DCL         6--PROC     6609<<ASSIGN   6614<<ASSIGN   6619<>CALL     6630<>CALL     6642<>CALL
      6660<>CALL     6667<>CALL     6679<<ASSIGN   6680<>CALL     6681<>CALL     6684<>CALL     6687<<ASSIGN
      6688<<ASSIGN   6711<<ASSIGN   6722<<ASSIGN   6725<<ASSIGN   6728<<ASSIGN   6731<<ASSIGN   6734<<ASSIGN
      6737<<ASSIGN   6740<<ASSIGN   6743<<ASSIGN   6746<<ASSIGN   6749<<ASSIGN
BITSIZE IN PROCEDURE CNVTDECVAL
      7142**DCL      7137--PROC     7152>>CALL     7154>>CALL     7156>>CALL     7158>>CALL     7160>>CALL
      7162>>CALL
BITSIZE IN PROCEDURE GETVAL
      6856**DCL      6809--PROC     6912<<ASSIGN   7093<>CALL     7099>>IF       7101>>IF       7102>>IF
      7108>>DOINDEX  7109>>ASSIGN
CNVTDECVAL IN PROCEDURE GETVAL
      7137**PROC     7093--CALL
DATA_TYPE
      6429**DCL      6607<<ASSIGN   6619<>CALL     6630<>CALL     6642<>CALL     6660<>CALL     6667<>CALL
      6677<<ASSIGN   6680<>CALL     6681<>CALL     6684<>CALL
DATA_TYPE IN PROCEDURE CNVTDECVAL
      7143**DCL      7137--PROC     7150>>DOCASE
DATA_TYPE IN PROCEDURE GETVAL
      6818**DCL      6809--PROC     7092>>IF       7093<>CALL
DECVAL IN PROCEDURE CNVTDECVAL
      7147**DCL      7152<>CALL     7154<>CALL     7156<>CALL     7158<>CALL     7160<>CALL     7162<>CALL
DESC#
      6402**DCL         6--PROC     6589<<ASSIGN   6617<<ASSIGN   6712<<ASSIGN   7037<<ASSIGN
DESCPTR.DISP IN PROCEDURE GETVAL
PL6.E3A0      #001=GDK$RESADDR File=GDK$RESADDR.:E05TSI                          TUE 07/29/97 21:26 Page:119
      6844**DCL      7012>>DOCASE   7033--ASSIGN   7037>>ASSIGN   7048>>DOCASE   7066>>DOCASE   7068>>ASSIGN
DESCPTR.ID IN PROCEDURE GETVAL
      6843**DCL      7040>>DOCASE
DESCPTR.TYPE IN PROCEDURE GETVAL
      6842**DCL      7006>>DOCASE
DITEM
      6450**DCL      6627--ASSIGN   6632--ASSIGN   6640--ASSIGN   6664--ASSIGN   6670--ASSIGN   6674--ASSIGN
DITEM.ADDRESS
      6459**DCL      6464--REDEF    6467--REDEF    6473--REDEF    6477--REDEF    6482--REDEF    6486--REDEF
      6608>>ASSIGN   6678>>ASSIGN
DITEM.ADDR_TYPE
      6455**DCL      6606>>ASSIGN   6676>>ASSIGN
DITEM.DATA_TYPE
      6457**DCL      6607>>ASSIGN   6677>>ASSIGN
DITEM.FLAGS.AFLAG
      6470**DCL      6604>>ASSIGN   6675>>ASSIGN
DITEM.FLAGS.LFLAG
      6469**DCL      6635>>ASSIGN   6646>>ASSIGN   6653>>ASSIGN
DITEM.OPER.EXPR
      6475**DCL      6669>>ASSIGN
DITEM.SIZE
      6458**DCL      6609>>ASSIGN   6679>>ASSIGN
DITEM.SMULT
      6456**DCL      6688>>ASSIGN
DITEM.TYPE_CODE
      6454**DCL      6605>>ASSIGN
DITEM$
      6418**DCL      6596<<ASSIGN   6604>>ASSIGN   6605>>ASSIGN   6606>>ASSIGN   6607>>ASSIGN   6608>>ASSIGN
      6609>>ASSIGN   6627<<ASSIGN   6627>>ASSIGN   6632>>ASSIGN   6635>>ASSIGN   6636<<ASSIGN   6640>>ASSIGN
      6646>>ASSIGN   6653>>ASSIGN   6656<<ASSIGN   6664<<ASSIGN   6664>>ASSIGN   6669>>ASSIGN   6670<<ASSIGN
      6670>>ASSIGN   6674>>ASSIGN   6679>>ASSIGN   6688>>ASSIGN
EXPR_OP
      6431**DCL      6592<<ASSIGN   6669<<ASSIGN   6774>>IF       6775>>DOCASE   6788<<ASSIGN   6898>>IF
      6899>>DOCASE   6913<<ASSIGN
EXPVAL
      6430**DCL      6667<>CALL     6777>>ASSIGN   6779>>ASSIGN   6781>>ASSIGN   6901>>ASSIGN   6903>>ASSIGN
PL6.E3A0      #001=GDK$RESADDR File=GDK$RESADDR.:E05TSI                          TUE 07/29/97 21:26 Page:120
      6905>>ASSIGN
FIRST_PTR
      6428**DCL      6602<<ASSIGN   6615>>IF       6690<<ASSIGN
G$ISR1$ IN PROCEDURE GETVAL
      6884**DCL      7050>>ASSIGN
G$ISR2$ IN PROCEDURE GETVAL
      6885**DCL      7052>>ASSIGN
G$ISR3$ IN PROCEDURE GETVAL
      6883**DCL      7054>>ASSIGN
G$ISR4$ IN PROCEDURE GETVAL
      6886**DCL      7056>>ASSIGN
G$ISR5$ IN PROCEDURE GETVAL
      6887**DCL      7058>>ASSIGN
G$ISR6$ IN PROCEDURE GETVAL
      6888**DCL      7060>>ASSIGN
G$ISR7$ IN PROCEDURE GETVAL
      6889**DCL      7062>>ASSIGN
G$JIT$ IN PROCEDURE GETVAL
      6881**DCL      7008>>ASSIGN
G$ROS$ IN PROCEDURE GETVAL
      6880**DCL      7042>>ASSIGN
G$TSA.B3$
       262**DCL      7071>>ASSIGN
G$TSA.ISA.P$$
       390**DCL       390--REDEF
G$TSA.ISA.REGS.B7$
       435**DCL      6794>>ASSIGN   6934>>ASSIGN   7024>>ASSIGN   7068--ASSIGN
G$TSA.ISA.REGS.RDBR$
       579**DCL      7044>>ASSIGN
G$TSA.P$$
       261**DCL       261--REDEF     262--REDEF
G$UAUTO_DS$ IN PROCEDURE GETVAL
      6890**DCL      7010>>ASSIGN
G$USRDS1$ IN PROCEDURE GETVAL
      6891**DCL      7014>>ASSIGN
G$USRDS2$ IN PROCEDURE GETVAL
PL6.E3A0      #001=GDK$RESADDR File=GDK$RESADDR.:E05TSI                          TUE 07/29/97 21:26 Page:121
      6892**DCL      7016>>ASSIGN
G$USRDS3$ IN PROCEDURE GETVAL
      6893**DCL      7018>>ASSIGN
G$USRDS4$ IN PROCEDURE GETVAL
      6894**DCL      7020>>ASSIGN
GD$DELTA_DATA$
      1962**DCL      1976--IMP-PTR  6586>>ASSIGN   6587>>ASSIGN   6622>>ASSIGN   6714>>ASSIGN   6751>>ASSIGN
      6783>>ASSIGN   6791>>IF       6792>>ASSIGN   6794>>ASSIGN   6907>>ASSIGN   6931>>IF       6932>>ASSIGN
      6934>>ASSIGN   7024>>ASSIGN   7028>>ASSIGN   7044>>ASSIGN   7046>>ASSIGN   7068>>ASSIGN   7071>>ASSIGN
      7083>>IF       7084>>ASSIGN   7094>>ASSIGN
GD$MSG.BRKRQS.IF$CONST.SIZE
      6301**DCL      6301--REDEF
GD$MSG.BRKRQS.IF$CONST.TEXT
      6301**DCL      6302--REDEF    6302--REDEF    6303--REDEF    6304--REDEF
GD$MSG.BRKRSP.BRK#
      6315**DCL      6315--REDEF
GD$MSG.BRKRSP.USER#
      6315**DCL      6315--REDEF
GD$MSG.FNC
      6250**DCL      7034>>IF
GD$MSG.LETMEM_D.VALUE.SIZE
      6273**DCL      6273--REDEF
GD$MSG.LETMEM_D.VALUE.TEXT
      6274**DCL      6274--REDEF    6274--REDEF    6275--REDEF    6276--REDEF
GD$MSG.MESSAGE
      6255**DCL      6255--REDEF    6256--REDEF    6256--REDEF    6257--REDEF    6268--REDEF    6281--REDEF
      6286--REDEF    6293--REDEF    6309--REDEF    6314--REDEF    6320--REDEF    6321--REDEF    6350--REDEF
      6352--REDEF    6363--REDEF    6370--REDEF    6382--REDEF
GD$MSG.SUBFNC
      6250**DCL      6250--REDEF    6254--REDEF
GD$MSG.TSA.I
      6322**DCL      6322--REDEF
GD$MSG.TSA.S
      6324**DCL      6324--REDEF
GD$MSG.USERQS.ASDT$
      6350**DCL      6350--REDEF    6351--REDEF
PL6.E3A0      #001=GDK$RESADDR File=GDK$RESADDR.:E05TSI                          TUE 07/29/97 21:26 Page:122
GDK$PTDECBIN
      6577**DCL-ENT  7154--CALL
GDK$PUDECBIN
      6576**DCL-ENT  7152--CALL
GDK$ULDECBIN
      6580**DCL-ENT  7160--CALL
GDK$UODECBIN
      6581**DCL-ENT  7162--CALL
GDK$UTDECBIN
      6579**DCL-ENT  7158--CALL
GDK$UUDECBIN
      6578**DCL-ENT  7156--CALL
GDU$SETUP_WINDOW
      6575**DCL-ENT  7026--CALL     7082--CALL
GD_DATA.DELTAINFO.TSA$
      1976**DCL      6794>>ASSIGN   6934>>ASSIGN   7024>>ASSIGN   7044>>ASSIGN   7046>>ASSIGN   7068>>ASSIGN
      7071>>ASSIGN
GD_DATA.GD.AUTO$
      1988**DCL      6792>>ASSIGN   6932>>ASSIGN
GD_DATA.GD.DYNSP$
      1989**DCL      1989--REDEF
GD_DATA.GD.ERROR
      1997**DCL      6622<<ASSIGN   6714<<ASSIGN   6751<<ASSIGN   6783<<ASSIGN   6907<<ASSIGN   7028<<ASSIGN
      7084<<ASSIGN   7094<<ASSIGN
GD_DATA.GD.INTERPRETIVE
      1983**DCL      6791>>IF       6931>>IF
GD_DATA.GD.STEP_BRKPNT.ADR$
      1990**DCL      1991--REDEF
GD_DATA.GD.STEP_BRKPNT.START$
      1991**DCL      1991--REDEF
GD_DATA.GD.VLD
      1997**DCL      7083--IF
GD_DATA.GDA.RCV
      1978**DCL      6586--ASSIGN
GD_DATA.MISC.DESC$
      2000**DCL      6587>>ASSIGN
PL6.E3A0      #001=GDK$RESADDR File=GDK$RESADDR.:E05TSI                          TUE 07/29/97 21:26 Page:123
GETINDX IN PROCEDURE GETVAL
      7117**PROC     6922--CALL     6929--CALL     6936--CALL
GETVAL
      6809**PROC     6619--CALL     6630--CALL     6642--CALL     6660--CALL     6667--CALL     6680--CALL
      6681--CALL     6684--CALL
GH_VLD.STATUS
      2119**DCL      7083>>IF
I
      6433**DCL      6763<<DOINDEX  6764>>ASSIGN   6764>>ASSIGN   7108<<DOINDEX  7109>>ASSIGN   7109>>ASSIGN
IDX.CURMULT
      6438**DCL      6633<<ASSIGN   6644<<ASSIGN   6651<<ASSIGN   6764>>ASSIGN   7122>>ASSIGN
IDX.ELMNTSIZ
      6439**DCL      6634<<ASSIGN   6645<<ASSIGN   6652<<ASSIGN   6764>>ASSIGN   7122>>ASSIGN
IDX.LASTIDX
      6440**DCL      6635<<ASSIGN   6646<<ASSIGN   6653<<ASSIGN   7125>>ASSIGN
ILVL
      6423**DCL      6601<<ASSIGN   6633>>ASSIGN   6634>>ASSIGN   6635>>ASSIGN   6637<<ASSIGN   6637>>ASSIGN
      6644>>ASSIGN   6645>>ASSIGN   6646>>ASSIGN   6647<<ASSIGN   6647>>ASSIGN   6651>>ASSIGN   6652>>ASSIGN
      6653>>ASSIGN   6654<<ASSIGN   6654>>ASSIGN   6761>>IF       6763>>DOINDEX  7122>>ASSIGN   7122>>ASSIGN
      7123<<ASSIGN   7123>>ASSIGN   7124>>IF       7125>>ASSIGN
INADDR.B IN PROCEDURE GETVAL
      6822**DCL      6910<<ASSIGN   6921>>ASSIGN   6928>>ASSIGN   6935>>ASSIGN
INADDR.C IN PROCEDURE GETVAL
      6821**DCL      6911<<ASSIGN   6921>>ASSIGN   6928>>ASSIGN   6935>>ASSIGN
INADDR.W IN PROCEDURE GETVAL
      6824**DCL      6901<<ASSIGN   6901>>ASSIGN   6903<<ASSIGN   6903>>ASSIGN   6905<<ASSIGN   6905>>ASSIGN
      6917>>ASSIGN   6920>>ASSIGN   6926>>ASSIGN   6932>>ASSIGN   6934>>ASSIGN
INDX
      6432**DCL      6762<<ASSIGN   6764<<ASSIGN   6764>>ASSIGN   6766>>ASSIGN   6767>>ASSIGN
INDX IN PROCEDURE GETVAL
      6865**DCL      7120<<ASSIGN   7122<<ASSIGN   7122>>ASSIGN   7127>>ASSIGN   7128>>ASSIGN
INVAL
      6436**DCL      6608<<ASSIGN   6619<>CALL     6630<>CALL     6642<>CALL     6660<>CALL     6667<>CALL
      6678<<ASSIGN   6680<>CALL     6684<>CALL
INVAL IN PROCEDURE GETVAL
      6819**DCL      6809--PROC     6820--REDEF    6827--REDEF    6837--REDEF    6848--REDEF
PL6.E3A0      #001=GDK$RESADDR File=GDK$RESADDR.:E05TSI                          TUE 07/29/97 21:26 Page:124
IS_PTR
      6414**DCL         6--PROC     6591<<ASSIGN
LAST_FLAG IN PROCEDURE GETVAL
      6864**DCL      7119<<ASSIGN   7121>>DOWHILE  7125<<ASSIGN
LPTR
      6403**DCL         6--PROC     6404--REDEF    6409--REDEF    6695<<ASSIGN   6699<<ASSIGN   6703<<ASSIGN
      6721<<ASSIGN   6724<<ASSIGN   6727<<ASSIGN   6730<<ASSIGN   6733<<ASSIGN   6736<<ASSIGN   6739<<ASSIGN
      6742<<ASSIGN   6745<<ASSIGN   6748<<ASSIGN   6755<<ASSIGN   6755>>ASSIGN   6759<<ASSIGN   6759>>ASSIGN
      6766<<ASSIGN   6766>>ASSIGN   6769<<ASSIGN   6769>>ASSIGN   6795<<ASSIGN   6795>>ASSIGN
LPTR IN PROCEDURE GETVAL
      6863**DCL      6920<<ASSIGN   7079<<ASSIGN   7079>>ASSIGN   7127<<ASSIGN   7127>>ASSIGN   7130<<ASSIGN
      7130>>ASSIGN
LPTR$ IN PROCEDURE CNVTDECVAL
      7140**DCL      7137--PROC     7152>>CALL     7154>>CALL     7156>>CALL     7158>>CALL     7160>>CALL
      7162>>CALL
LPTR$ IN PROCEDURE GETVAL
      6862**DCL      6863--REDEF    6926<<ASSIGN   6932<<ASSIGN   6934<<ASSIGN   6938<<ASSIGN   7008<<ASSIGN
      7010<<ASSIGN   7014<<ASSIGN   7016<<ASSIGN   7018<<ASSIGN   7020<<ASSIGN   7024<<ASSIGN   7026<>CALL
      7031<<ASSIGN   7031>>ASSIGN   7033<<ASSIGN   7042<<ASSIGN   7044<<ASSIGN   7046<<ASSIGN   7050<<ASSIGN
      7052<<ASSIGN   7054<<ASSIGN   7056<<ASSIGN   7058<<ASSIGN   7060<<ASSIGN   7062<<ASSIGN   7068<<ASSIGN
      7071<<ASSIGN   7077>>ASSIGN   7082<>CALL     7093<>CALL     7101>>ASSIGN   7102>>ASSIGN   7109>>ASSIGN
LPTR_S.B
      6406**DCL      6786<<ASSIGN
LPTR_S.C
      6405**DCL      6787<<ASSIGN   7099>>IF       7104>>IF       7106<<ASSIGN
LPTR_S.W
      6408**DCL      6777<<ASSIGN   6777>>ASSIGN   6779<<ASSIGN   6779>>ASSIGN   6781<<ASSIGN   6781>>ASSIGN
MITEM
      6535**DCL      6636--ASSIGN   6656--ASSIGN
MITEM.ELMNTSIZ
      6551**DCL      6634>>ASSIGN   6645>>ASSIGN   6652>>ASSIGN
MITEM.MULT
      6552**DCL      6554--REDEF
MITEM.OFS
      6561**DCL      6563--REDEF    6633>>ASSIGN   6644>>ASSIGN   6651>>ASSIGN
MITEM$
PL6.E3A0      #001=GDK$RESADDR File=GDK$RESADDR.:E05TSI                          TUE 07/29/97 21:26 Page:125
      6419**DCL      6632<<ASSIGN   6633>>ASSIGN   6634>>ASSIGN   6636>>ASSIGN   6640<<ASSIGN   6644>>ASSIGN
      6645>>ASSIGN   6651>>ASSIGN   6652>>ASSIGN   6656>>ASSIGN
MSG$
      6571**DCL      6250--IMP-PTR  6586<<ASSIGN   7034>>IF
NOT_IS
      6413**DCL         6--PROC     6590<<ASSIGN   6801<<ASSIGN
P$ IN PROCEDURE GETVAL
      6860**DCL      6861--REDEF    7077<<ASSIGN
PARMPTR.N IN PROCEDURE GETVAL
      6854**DCL      7024>>ASSIGN
PLVL
      6422**DCL      6600<<ASSIGN   6625>>ASSIGN   6626<<ASSIGN   6626>>ASSIGN   6697>>IF       6924>>ASSIGN
      6925>>ASSIGN   6926>>ASSIGN   6927<<ASSIGN   6927>>ASSIGN
PNTR
      6441**DCL      6442--REDEF    6447--REDEF    6625<<ASSIGN
PNTR$
      6447**DCL      6926>>ASSIGN
PNTR_S.C
      6443**DCL      6704>>ASSIGN   6924>>ASSIGN   6925<<ASSIGN
PNTR_S.W
      6446**DCL      6703>>ASSIGN
PROCESS_ZITEM
      6695**LABEL    6595--GOTO
P_UBIN IN PROCEDURE GETVAL
      6861**DCL      7089>>ASSIGN
RET_NOT_IS
      6800**LABEL    6701--GOTO
SEG
      6401**DCL         6--PROC     6588<<ASSIGN   6616<<ASSIGN   6698>>IF       6710<<ASSIGN   6718<<ASSIGN
      6800>>IF       7036<<ASSIGN
TITEM$
      6412**DCL      6674<<ASSIGN   6675>>ASSIGN   6676>>ASSIGN   6677>>ASSIGN   6678>>ASSIGN
TYPE_CODE
      6427**DCL      6598<<ASSIGN   6603>>DOWHILE  6605<<ASSIGN   6612>>DOCASE   6898>>IF
VAL
      6420**DCL      6421--REDEF    6599<<ASSIGN   6610<<ASSIGN   6619<>CALL     6625>>ASSIGN   6630<>CALL
PL6.E3A0      #001=GDK$RESADDR File=GDK$RESADDR.:E05TSI                          TUE 07/29/97 21:26 Page:126
      6633>>ASSIGN   6642<>CALL     6644>>ASSIGN   6648>>ASSIGN   6660<>CALL     6662>>ASSIGN   6680<>CALL
      6681<>CALL     6681<>CALL     6684<>CALL     6687>>ASSIGN   6688>>ASSIGN
VAL IN PROCEDURE CNVTDECVAL
      7139**DCL      7137--PROC     7152<>CALL     7154<>CALL     7156<>CALL     7158<>CALL     7160<>CALL
      7162<>CALL
VAL IN PROCEDURE GETVAL
      6814**DCL      6809--PROC     6815--REDEF    6917<<ASSIGN   7089<<ASSIGN   7093<>CALL     7101<<ASSIGN
      7102<<ASSIGN
VAL_
      6421**DCL      6621>>IF
VAL_A IN PROCEDURE GETVAL
      6815**DCL      7109<<ASSIGN
ZITEM
      6493**DCL      6596--ASSIGN
ZITEM.ADDRESS
      6507**DCL      6512--REDEF    6514--REDEF    6519--REDEF    6524--REDEF    6528--REDEF
ZITEM.ADDRESS.B
      6509**DCL      6700>>ASSIGN   6760>>ASSIGN
ZITEM.ADDRESS.C
      6508**DCL      6700>>ASSIGN   6760>>ASSIGN
ZITEM.ADDRESS.W
      6511**DCL      6699>>ASSIGN   6759>>ASSIGN
ZITEM.ADDR_TYPE
      6497**DCL      6593>>IF       6593>>IF       6696>>ASSIGN
ZITEM.DATA_TYPE
      6499**DCL      6500--REDEF
ZITEM.VALUE.V
      6513**DCL      6755>>ASSIGN
ZITEM.VD.DISP
      6523**DCL      6712>>ASSIGN
ZITEM.VD.TYPE
      6521**DCL      6708>>DOCASE
ZITEM.VS.ID
      6530**DCL      6719>>DOCASE
ZITEM.VS.SZ
      6531**DCL      6745>>ASSIGN   6748>>ASSIGN
PL6.E3A0      #001=GDK$RESADDR File=GDK$RESADDR.:E05TSI                          TUE 07/29/97 21:26 Page:127
ZITEM$
       695**DCL      6587<<ASSIGN   6593>>IF       6593>>IF       6596>>ASSIGN   6696>>ASSIGN   6699>>ASSIGN
      6700>>ASSIGN   6700>>ASSIGN   6708>>DOCASE   6712>>ASSIGN   6719>>DOCASE   6745>>ASSIGN   6748>>ASSIGN
      6755>>ASSIGN   6759>>ASSIGN   6760>>ASSIGN   6760>>ASSIGN
