VERSION E05

PL6.E3A0      #001=GD_DATA_D File=GD_DATA_D.:E05TSI                              TUE 07/29/97 21:31 Page:1
        1        1        /*M* GD_DATA_D FEP resident debugger static data                              */
        2        2        /*T***********************************************************/
        3        3        /*T*                                                         */
        4        4        /*T* Copyright (c) Bull HN Information Systems Inc., 1997    */
        5        5        /*T*                                                         */
        6        6        /*T***********************************************************/
        7        7        /*X*             */
        8        8        GD_DATA_D: PROC;
        9        9        /* */
       10       10        %INCLUDE GD_EQUS_E;                     /* Debugger EQUs                      */
       11      171        %INCLUDE GH_HARDWARE_M;                 /* For GH_VLD macro                   */
       12      269 S      %INCLUDE GH_LCP6_M;
       13      270 S      %INCLUDE G_LCP6_E;
       14      271        %INCLUDE GH_IOFNC_E;
       15      340        %INCLUDE GDA_EQUS_E;
       16      367        %INCLUDE GD_DATA_M;
       17      429        %INCLUDE GM_VIRTUAL_E;
       18      639        %INCLUDE KH$CHN;
       19      761        %INCLUDE KH$IO;
       20     1008 S      %INCLUDE GF_LCP6_M;
       21     1009        %INCLUDE GD$MACS_M;
       22     1047        %INCLUDE GD$MSG_M;
       23     1211        %LIST;
       24     1212                                                /* ENTRYS                             */
       25     1213    1   DCL GDB$FIRST_USER_TRAP ENTRY(1) ALTRET;
       26     1214    1   DCL GDB$TRAP_HND ENTRY(1) ALTRET;
       27     1215                                                /* A symref for ELSIE segment         */
       28     1216    1   DCL GDA$MLCP UBIN SYMREF;
       29     1217        /*
       30     1218          This macro invocation MUST come before any other static data
       31     1219                                                                                      */
       32     1220        %GD$FD_PROC(INIT$$=GDB$FIRST_USER_TRAP,STATE_CHANGE$$=GDB$TRAP_HND,
       33     1221                    DS_SZ="SIZEW(GD_DATA_C)",   /* Data-segment size                  */
       34     1222                    STK_SZ=762,                 /* Auto-stack size                    */
       35     1223                    STCLASS=CONSTANT);
              1224        %LSET LISTDIR='0'B;
              1236    1   DCL 1 GD$FD_PROC CONSTANT WALIGNED,2 INIT$$ EPTR  INIT(ENTADDR(GDB$FIRST_USER_TRAP))
PL6.E3A0      #001=GD_DATA_D File=GD_DATA_D.:E05TSI                              TUE 07/29/97 21:31 Page:2
              1236            ,2 STATE_CHANGE$$ EPTR  INIT(ENTADDR
              1237    1   (GDB$TRAP_HND)),2 DS_SZ UBIN WORD  INIT(SIZEW(GD_DATA_C)),2 STK_SZ UBIN WORD  INIT(
              1237            762);
       36     1239
       37     1240        /*
       38     1241          Invoke the static data macro to generate the constant copy of the
       39     1242          debuggers static data.
       40     1243                                                                                      */
       41     1244        %GD_DATA (FPTN = GD_DATA_C);            /* The constant copy for inits        */
              1245        %LSET LISTDIR='1'B;
              1246        %LSET LISTEXP='1'B;
              1247        %LSET LISTCOM='1'B;
              1248        %LSET LISTSUB='1'B;
              1249        %LSET STR='CON';
              1250        %IF'1'B;
              1251        %LSET INIT=INIT;
              1252        %LSET EINIT=;
              1253        %ELSE;
              1256        %ENDIF;
              1257    1   DCL 1 GD_DATA_C CONSTANT SYMDEF WALIGNED,2 DELTAINFO,3 STACK$ PTR INIT(ADDR(NIL)),3
              1257            TRAP_FLAGS(0:3)BIT(16)INIT('FFFF'X*0),3 TSA$
              1258    1   PTR INIT(ADDR(NIL)),2 GDA,3 BFRSIZ UBIN INIT(0),3 CONNECTFLG BIT(1)INIT('0'B),3
              1258            XMITFLG BIT(1)INIT('0'B
              1259    1   ),3 * BIT(14)INIT('0'B),3 IOERRCNT UBIN INIT(0),3 IOLDSIZE UBIN INIT(0),3 NAKCNT
              1259            UBIN INIT(0),3
              1260    1   RCV ALIGNED,4 BFR(0:417)UBIN BYTE UNAL,3 TRN ALIGNED,4 BFR(0:163)UBIN BYTE UNAL,2 GD
              1260            ALIGNED,3 MODE
              1261    1   UBIN INIT(0),3 OC_BRKNUM UBIN INIT(0),3 ALTRET_ADR$ PTR INIT(ADDR(NIL)),3
              1261            ALTRET_INST UBIN INIT(0),3
              1262    1   ONCALLS_BRK$ PTR INIT(ADDR(NIL)),3 *(0:13)BIT(16)ALIGNED INIT('0'B*0),3 ABSADDR PTR
              1262            INIT(ADDR(NIL)),3 ASDT_PPNO
              1263    1   UBIN INIT(0),3 ASDT_OFFSET UBIN INIT(0),3 ASDT_USE_PPNO UBIN INIT(0),3
              1263            ASDT_USE_OFFSET UBIN INIT(0),3
              1264    1   USE_USERNO UBIN INIT(0),3 IGNARITH BIT(1)INIT('0'B),3 INTERPRETIVE BIT(1)INIT('0'B),
              1264            3 BFRFULL BIT(1)INIT('0'B
              1265    1   ),3 ONCALLS BIT(1)INIT('0'B),3 ONCALL BIT(1)INIT('0'B),3 ONEXIT BIT(1)INIT('0'B),3
              1265            ONABORT BIT(1)INIT
PL6.E3A0      #001=GD_DATA_D File=GD_DATA_D.:E05TSI                              TUE 07/29/97 21:31 Page:3
              1266    1   ('0'B),3 BYPASS BIT(1)INIT('0'B),3 SOC BIT(1)INIT('0'B),3 GOSCREECH BIT(1)INIT('0'B)
              1266            ,3 GOTRAP BIT(1)INIT
              1267    1   ('0'B),3 KEEPMON BIT(1)INIT('0'B),3 USE_REAL BIT(1)INIT('0'B),3 STOPT BIT(1)INIT(
              1267            '0'B),3 ANSWERED BIT(1
              1268    1   )INIT('0'B),3 TRACE_ACTIVE BIT(1)INIT('0'B),3 NEWCTL BIT(1)INIT('0'B),3 GO_AGAIN BIT
              1268            (1)INIT('0'B),3 *
              1269    1   BIT(14)INIT('0'B),3 ONCALL$ PTR ALIGNED INIT(ADDR(NIL)),3 AUTO$ PTR INIT(ADDR(NIL)),
              1269            3 TRAP# UBIN ALIGNED INIT
              1270    1   (0),3 TRACE UBIN INIT(0),3 XBRKINFO$ PTR INIT(ADDR(NIL)),3 DYNSP$ PTR INIT(ADDR(NIL)
              1270            ),3 DYNSP REDEF
              1271    1   DYNSP$ SBIN(32),3 BRKNUM UBIN INIT(0),3 BRK$ PTR ALIGNED INIT(ADDR(NIL)),3
              1271            STEP_BRKPNT ALIGNED,4 ADR$ PTR INIT(ADDR
              1272    1   (NIL)),4 ADR REDEF ADR$ SBIN(32),4 START$ PTR INIT(ADDR(NIL)),4 START REDEF START$
              1272            SBIN(32),4 OLDINST UBIN INIT(0
              1273    1   ),4 USER# UBIN INIT(0),4 FLAGS,5 ACTIVE BIT(1)INIT('0'B),5 ARMED BIT(1)INIT('0'B),5
              1273            INTERPRETIVE BIT(1
              1274    1   )INIT('0'B),5 BRKNUM_SAVED BIT(1)INIT('0'B),5 * BIT(4)INIT('0'B),4 OLD_BRKNUM UBIN
              1274            BYTE INIT(0),3
              1275    1   SOC_BRKPNT ALIGNED,4 ADR$ PTR INIT(ADDR(NIL)),4 OLDINST UBIN INIT(0),4 USER# UBIN
              1275            INIT(0),4 FLAGS ALIGNED,5
              1276    1   ACTIVE BIT(1)INIT('0'B),5 ARMED BIT(1)INIT('0'B),5 * BIT(14)INIT('0'B),3 WINDOWSEG
              1276            BIT(32)INIT('0'B),3
              1277    1   STEPCNT SBIN INIT(0),3 USERNO UBIN INIT(0),3 MUIS UBIN INIT(0),3 HIMEM UBIN INIT(
              1277            4095),3 TRAPCNT UBIN
              1278    1   INIT(0),3 VLD(0:4)UBIN INIT(0,0,0,0,0),3 ERROR SBIN INIT(0),3 ERROR_LOC REMEMBER
              1278            ALIGNED,3 HANLZ_DCB SBIN INIT
              1279    1   (0),3 ASDT_WINDOW$ PTR INIT(ADDR(NIL)),3 WINDOW$ PTR INIT(ADDR(NIL)),2 MISC WALIGNED
              1279            ,3 ACCESS BIT(1)INIT('0'B
              1280    1   ),3 * BIT(15)INIT('0'B),3 ARRAY,4 FIRST BIT(1)INIT('0'B),4 * BIT(15)INIT('0'B),4 CUR
              1280            SBIN INIT(0),
              1281    1   4 HIGH SBIN INIT(0),3 PEDEF UBIN INIT(0),3 ASTACKOFF UBIN INIT(0),3 DESC$ PTR INIT(
              1281            ADDR(NIL)),3 DRTN$
              1282    1   PTR INIT(ADDR(NIL)),3 FIND,4 SEG UBIN INIT(0),4 ADDRESS UBIN INIT(0),4 DESC# UBIN
              1282            INIT(0),4 NUM UBIN
              1283    1   INIT(0),4 NOT_IS BIT(1)INIT('0'B),4 * BIT(15)INIT('0'B),4 MASK_F SBIN INIT(0),4 *
              1283            UBIN INIT(0),3
              1284    1   NA$ UBIN INIT(0),3 O$,4 SEG UBIN INIT(0),4 DESC# UBIN INIT(0),4 ADDRESS UBIN INIT(0)
PL6.E3A0      #001=GD_DATA_D File=GD_DATA_D.:E05TSI                              TUE 07/29/97 21:31 Page:4
              1284            ,4 NOT_IS BIT(1
              1285    1   )INIT('0'B),4 * BIT(15)INIT('0'B),3 RI$,4 SIZE UBIN INIT(0),4 OPS(0:15)UBIN INIT(0*0
              1285            ),3 SAD SBIN INIT
              1286    1   (0),3 SAVEIC UBIN INIT(0),3 REM_ACCESS REMEMBER ALIGNED,3 SCREECHCODE WALIGNED,4 FCG
              1286            BIT(10)INIT('0'B),4 MID BIT
              1287    1   (5)INIT('0'B),4 MON BIT(1)INIT('0'B),4 ERR# BIT(13)INIT('0'B),4 SEV BIT(3)INIT('0'B)
              1287            ,4 DUMP_BITS UBIN
              1288    1   (16)UNAL INIT(0),2 MYSPACE(0:613)UBIN ALIGNED INIT(0*0);
       42     1290
       43     1291    1   DCL GD$DELTA_DATA$ UBIN(32) CONSTANT SYMDEF INIT(%GM_DB_DS_BASE);
       44     1292        /*
       45     1293          Setup a few items used to determine the channel for debugging as
       46     1294          well as its speed, and when to start the debugger.
       47     1295                                                                                      */
       48     1296    1   DCL GD_CHN UBIN(10) CONSTANT SYMDEF INIT(0);
       49     1297    1   DCL GD_LINSPD UBIN CONSTANT SYMDEF INIT(9600);
       50     1298    1   DCL GD_DBG_INIT BIT(1) ALIGNED CONSTANT SYMDEF INIT('0'B);
       51     1299    1   DCL GD_DBG_MONINIT BIT(1) ALIGNED CONSTANT SYMDEF INIT('0'B);
       52     1300        /*
       53     1301          These structures are used to download and initialize the debugger
       54     1302          MLCP CCP and LCTs
       55     1303                                                                                      */
       56     1304              %KH$DWNLODCCP(NAME=GD_DWNLODCCP,
       57     1305                            CCPLCT$=GDA$MLCP,STCLASS=CONSTANT SYMDEF);
              1306        %LSET LISTDIR='0'B;
              1319    1   DCL 1 GD_DWNLODCCP WALIGNED CONSTANT SYMDEF,
              1325    1   2 CHN$ PTR  INIT(ADDR(NIL)),2 CCPLCT$ PTR  INIT(ADDR(GDA$MLCP)),2
              1326    1   CCPLODBIS UBIN WORD  INIT(0) ;
       58     1328              %KH$DWNLODLCT(NAME=GD_DWNLODLCT,
       59     1329                            CCPLCT$=GDA$MLCP,RCVINTLVL=%G_IL_SATYR_RCV#,
       60     1330                            TRNINTLVL=%G_IL_SATYR_TRN#,STCLASS=CONSTANT SYMDEF);
              1331        %LSET LISTDIR='0'B;
              1344    1   DCL 1 GD_DWNLODLCT WALIGNED CONSTANT SYMDEF,
              1350    1   2 CHN$ PTR  INIT(ADDR(NIL)),2 CCPLCT$ PTR  INIT(ADDR(GDA$MLCP)),2
              1351    1   CCPLODBIS UBIN WORD  INIT(0),2 RCVINTLVL UBIN WORD  INIT(7),2
              1352    1   TRNINTLVL UBIN WORD  INIT(8) ;
       61     1354    1   END GD_DATA_D;
PL6.E3A0      #001=GD_DATA_D File=GD_DATA_D.:E05TSI                              TUE 07/29/97 21:31 Page:5

PL6.E3A0      #001=GD_DATA_D File=GD_DATA_D.:E05TSI                              TUE 07/29/97 21:31 Page:6
--  Include file information  --

   GD$MSG_M.:E05TOU  is referenced.
   GD$MACS_M.:E05TOU  is referenced.
   KH$IO.:E05TOU  is referenced.
   KH$CHN.:E05TOU  is referenced.
   GM_VIRTUAL_E.:E05TOU  is referenced.
   GD_DATA_M.:E05TOU  is referenced.
   GDA_EQUS_E.:E05TOU  is referenced.
   GH_IOFNC_E.:E05TOU  is referenced.
   GH_HARDWARE_M.:E05TOU  is referenced.
   GD_EQUS_E.:E05TOU  is referenced.
   G_LCP6_E.:E05TOU  was found in the system file and is referenced.
   GT_LCP6_M.:E05TOU  was found in the system file and is never referenced.
   KI_CP6.:E05TOU  was found in the system file and is never referenced.
   GF_LCP6_M.:E05TOU  was found in the system file and is referenced.
   GM_LCP6_M.:E05TOU  was found in the system file and is never referenced.
   GU_LCP6_M.:E05TOU  was found in the system file and is never referenced.
   GJ_LCP6_M.:E05TOU  was found in the system file and is never referenced.
   GH_LCP6_M.:E05TOU  was found in the system file and is referenced.
      No diagnostics issued in procedure GD_DATA_D.

   No code generated for procedure GD_DATA_D .
   Procedure GD_DATA_D requires 4 words of local(AUTO) storage.

    No errors detected in file GD_DATA_D.:E05TSI    .

PL6.E3A0      #001=GD_DATA_D File=GD_DATA_D.:E05TSI                              TUE 07/29/97 21:31 Page:7

 Object Unit name= GD_DATA_D                                  File name= GD_DATA_D.:E05TOU
 UTS= JUL 29 '97 21:31:19.52 TUE                              Compiler= PL-6/E31         Sev=      00
 SharedLib= :SHARED_LCP6_SYSTEM                               Alt SharedLib=


    ****  Control sections  ****

 Sect   Type Bound  Init  Size HexSiz  Section name
    0  RoData even  UTS   1068    42C  GD_DATA_D
    1   Proc  even  none     0      0  GD_DATA_D

    ****  Entry defs  ****

                              Check   Calling
                             calling  sequence
  Sect HexLoc Primary Altret sequence   type   Parms  Name
     1      0   yes            yes     ~proc       0  GD_DATA_D

  ****  Data defs  ****

 Sect HexLoc  Name                           Sect HexLoc  Name
    0      6  GD_DATA_C                          0    41A  GD$DELTA_DATA$
    0    41C  GD_CHN                             0    41D  GD_LINSPD
    0    41E  GD_DBG_INIT                        0    41F  GD_DBG_MONINIT
    0    420  GD_DWNLODCCP                       0    425  GD_DWNLODLCT

  ****  Entry refs  ****

         Check        Calling
        calling       sequence
Altret sequence SRef   type   Args  Name
 yes     yes           Std       1 GDB$FIRST_USER_TRAP
 yes     yes           Std       1 GDB$TRAP_HND
PL6.E3A0      #001=GD_DATA_D File=GD_DATA_D.:E05TSI                              TUE 07/29/97 21:31 Page:8

  ****  Data refs  ****

  Flags:  r = read only, s = secondary
Flgs Name                             Flgs Name                             Flgs Name
     GDA$MLCP                         r    G$ROS$
PL6.E3A0      #001=GD_DATA_D File=GD_DATA_D.:E05TSI                              TUE 07/29/97 21:31 Page:9

        1        1        /*M* GD_DATA_D FEP resident debugger static data                              */
        2        2        /*T***********************************************************/
        3        3        /*T*                                                         */
        4        4        /*T* Copyright (c) Bull HN Information Systems Inc., 1997    */
        5        5        /*T*                                                         */
        6        6        /*T***********************************************************/
        7        7        /*X*             */
        8        8        GD_DATA_D: PROC;
        9        9        /* */
       10       10        %INCLUDE GD_EQUS_E;                     /* Debugger EQUs                      */
       11      171        %INCLUDE GH_HARDWARE_M;                 /* For GH_VLD macro                   */
       12      269 S      %INCLUDE GH_LCP6_M;
       13      270 S      %INCLUDE G_LCP6_E;
       14      271        %INCLUDE GH_IOFNC_E;
       15      340        %INCLUDE GDA_EQUS_E;
       16      367        %INCLUDE GD_DATA_M;
       17      429        %INCLUDE GM_VIRTUAL_E;
       18      639        %INCLUDE KH$CHN;
       19      761        %INCLUDE KH$IO;
       20     1008 S      %INCLUDE GF_LCP6_M;
       21     1009        %INCLUDE GD$MACS_M;
       22     1047        %INCLUDE GD$MSG_M;
       23     1211        %LIST;
       24     1212                                                /* ENTRYS                             */
       25     1213    1   DCL GDB$FIRST_USER_TRAP ENTRY(1) ALTRET;
       26     1214    1   DCL GDB$TRAP_HND ENTRY(1) ALTRET;
       27     1215                                                /* A symref for ELSIE segment         */
       28     1216    1   DCL GDA$MLCP UBIN SYMREF;
       29     1217        /*
       30     1218          This macro invocation MUST come before any other static data
       31     1219                                                                                      */
       32     1220        %GD$FD_PROC(INIT$$=GDB$FIRST_USER_TRAP,STATE_CHANGE$$=GDB$TRAP_HND,
       33     1221                    DS_SZ="SIZEW(GD_DATA_C)",   /* Data-segment size                  */
       34     1222                    STK_SZ=762,                 /* Auto-stack size                    */
       35     1223                    STCLASS=CONSTANT);
              1224        %LSET LISTDIR='0'B;
              1236    1   DCL 1 GD$FD_PROC CONSTANT WALIGNED,2 INIT$$ EPTR INIT(ENTADDR(GDB$FIRST_USER_TRAP))
PL6.E3A0      #001=GD_DATA_D File=GD_DATA_D.:E05TSI                              TUE 07/29/97 21:31 Page:10
              1236            ,2 STATE_CHANGE$$ EPTR  INIT(ENTADDR
              1237    1   (GDB$TRAP_HND)),2 DS_SZ UBIN WORD  INIT(SIZEW(GD_DATA_C)),2 STK_SZ UBIN WORD  INIT(
              1237            762);
       36     1239
       37     1240        /*
       38     1241          Invoke the static data macro to generate the constant copy of the
       39     1242          debuggers static data.
       40     1243                                                                                      */
       41     1244        %GD_DATA (FPTN = GD_DATA_C);            /* The constant copy for inits        */
              1245        %LSET LISTDIR='1'B;
              1246        %LSET LISTEXP='1'B;
              1247        %LSET LISTCOM='1'B;
              1248        %LSET LISTSUB='1'B;
              1249        %LSET STR='CON';
              1250        %IF'1'B;
              1251        %LSET INIT=INIT;
              1252        %LSET EINIT=;
              1253        %ELSE;
              1256        %ENDIF;
              1257    1   DCL 1 GD_DATA_C CONSTANT SYMDEF WALIGNED,2 DELTAINFO,3 STACK$ PTR INIT(ADDR(NIL)),3
              1257            TRAP_FLAGS(0:3)BIT(16)INIT('FFFF'X*0),3 TSA$
              1258    1   PTR INIT(ADDR(NIL)),2 GDA,3 BFRSIZ UBIN INIT(0),3 CONNECTFLG BIT(1)INIT('0'B),3
              1258            XMITFLG BIT(1)INIT('0'B
              1259    1   ),3 * BIT(14)INIT('0'B),3 IOERRCNT UBIN INIT(0),3 IOLDSIZE UBIN INIT(0),3 NAKCNT
              1259            UBIN INIT(0),3
              1260    1  RCV ALIGNED,4 BFR(0:417)UBIN BYTE UNAL,3 TRN ALIGNED,4 BFR(0:163)UBIN BYTE UNAL,2 GD
              1260            ALIGNED,3 MODE
              1261    1   UBIN INIT(0),3 OC_BRKNUM UBIN INIT(0),3 ALTRET_ADR$ PTR INIT(ADDR(NIL)),3
              1261            ALTRET_INST UBIN INIT(0),3
              1262    1   ONCALLS_BRK$ PTR INIT(ADDR(NIL)),3 *(0:13)BIT(16)ALIGNED INIT('0'B*0),3 ABSADDR PTR
              1262            INIT(ADDR(NIL)),3 ASDT_PPNO
              1263    1   UBIN INIT(0),3 ASDT_OFFSET UBIN INIT(0),3 ASDT_USE_PPNO UBIN INIT(0),3
              1263            ASDT_USE_OFFSET UBIN INIT(0),3
              1264    1  USE_USERNO UBIN INIT(0),3 IGNARITH BIT(1)INIT('0'B),3 INTERPRETIVE BIT(1)INIT('0'B),
              1264            3 BFRFULL BIT(1)INIT('0'B
              1265    1   ),3 ONCALLS BIT(1)INIT('0'B),3 ONCALL BIT(1)INIT('0'B),3 ONEXIT BIT(1)INIT('0'B),3
              1265            ONABORT BIT(1)INIT
PL6.E3A0      #001=GD_DATA_D File=GD_DATA_D.:E05TSI                              TUE 07/29/97 21:31 Page:11
              1266    1  ('0'B),3 BYPASS BIT(1)INIT('0'B),3 SOC BIT(1)INIT('0'B),3 GOSCREECH BIT(1)INIT('0'B)
              1266            ,3 GOTRAP BIT(1)INIT
              1267    1   ('0'B),3 KEEPMON BIT(1)INIT('0'B),3 USE_REAL BIT(1)INIT('0'B),3 STOPT BIT(1)INIT(
              1267            '0'B),3 ANSWERED BIT(1
              1268    1  )INIT('0'B),3 TRACE_ACTIVE BIT(1)INIT('0'B),3 NEWCTL BIT(1)INIT('0'B),3 GO_AGAIN BIT
              1268            (1)INIT('0'B),3 *
              1269    1  BIT(14)INIT('0'B),3 ONCALL$ PTR ALIGNED INIT(ADDR(NIL)),3 AUTO$ PTR INIT(ADDR(NIL)),
              1269            3 TRAP# UBIN ALIGNED INIT
              1270    1  (0),3 TRACE UBIN INIT(0),3 XBRKINFO$ PTR INIT(ADDR(NIL)),3 DYNSP$ PTR INIT(ADDR(NIL)
              1270            ),3 DYNSP REDEF
              1271    1   DYNSP$ SBIN(32),3 BRKNUM UBIN INIT(0),3 BRK$ PTR ALIGNED INIT(ADDR(NIL)),3
              1271            STEP_BRKPNT ALIGNED,4 ADR$ PTR INIT(ADDR
              1272    1   (NIL)),4 ADR REDEF ADR$ SBIN(32),4 START$ PTR INIT(ADDR(NIL)),4 START REDEF START$
              1272            SBIN(32),4 OLDINST UBIN INIT(0
              1273    1   ),4 USER# UBIN INIT(0),4 FLAGS,5 ACTIVE BIT(1)INIT('0'B),5 ARMED BIT(1)INIT('0'B),5
              1273            INTERPRETIVE BIT(1
              1274    1   )INIT('0'B),5 BRKNUM_SAVED BIT(1)INIT('0'B),5 * BIT(4)INIT('0'B),4 OLD_BRKNUM UBIN
              1274            BYTE INIT(0),3
              1275    1   SOC_BRKPNT ALIGNED,4 ADR$ PTR INIT(ADDR(NIL)),4 OLDINST UBIN INIT(0),4 USER# UBIN
              1275            INIT(0),4 FLAGS ALIGNED,5
              1276    1   ACTIVE BIT(1)INIT('0'B),5 ARMED BIT(1)INIT('0'B),5 * BIT(14)INIT('0'B),3 WINDOWSEG
              1276            BIT(32)INIT('0'B),3
              1277    1   STEPCNT SBIN INIT(0),3 USERNO UBIN INIT(0),3 MUIS UBIN INIT(0),3 HIMEM UBIN INIT(
              1277            4095),3 TRAPCNT UBIN
              1278    1   INIT(0),3 VLD(0:4)UBIN INIT(0,0,0,0,0),3 ERROR SBIN INIT(0),3 ERROR_LOC REMEMBER
              1278            ALIGNED,3 HANLZ_DCB SBIN INIT
              1279    1  (0),3 ASDT_WINDOW$ PTR INIT(ADDR(NIL)),3 WINDOW$ PTR INIT(ADDR(NIL)),2 MISC WALIGNED
              1279            ,3 ACCESS BIT(1)INIT('0'B
              1280    1  ),3 * BIT(15)INIT('0'B),3 ARRAY,4 FIRST BIT(1)INIT('0'B),4 * BIT(15)INIT('0'B),4 CUR
              1280            SBIN INIT(0),
              1281    1   4 HIGH SBIN INIT(0),3 PEDEF UBIN INIT(0),3 ASTACKOFF UBIN INIT(0),3 DESC$ PTR INIT(
              1281            ADDR(NIL)),3 DRTN$
              1282    1   PTR INIT(ADDR(NIL)),3 FIND,4 SEG UBIN INIT(0),4 ADDRESS UBIN INIT(0),4 DESC# UBIN
              1282            INIT(0),4 NUM UBIN
              1283    1   INIT(0),4 NOT_IS BIT(1)INIT('0'B),4 * BIT(15)INIT('0'B),4 MASK_F SBIN INIT(0),4 *
              1283            UBIN INIT(0),3
              1284    1  NA$ UBIN INIT(0),3 O$,4 SEG UBIN INIT(0),4 DESC# UBIN INIT(0),4 ADDRESS UBIN INIT(0)
PL6.E3A0      #001=GD_DATA_D File=GD_DATA_D.:E05TSI                              TUE 07/29/97 21:31 Page:12
              1284            ,4 NOT_IS BIT(1
              1285    1  )INIT('0'B),4 * BIT(15)INIT('0'B),3 RI$,4 SIZE UBIN INIT(0),4 OPS(0:15)UBIN INIT(0*0
              1285            ),3 SAD SBIN INIT
              1286    1  (0),3 SAVEIC UBIN INIT(0),3 REM_ACCESS REMEMBER ALIGNED,3 SCREECHCODE WALIGNED,4 FCG
              1286            BIT(10)INIT('0'B),4 MID BIT
              1287    1  (5)INIT('0'B),4 MON BIT(1)INIT('0'B),4 ERR# BIT(13)INIT('0'B),4 SEV BIT(3)INIT('0'B)
              1287            ,4 DUMP_BITS UBIN
              1288    1   (16)UNAL INIT(0),2 MYSPACE(0:613)UBIN ALIGNED INIT(0*0);
       42     1290
       43     1291    1   DCL GD$DELTA_DATA$ UBIN(32) CONSTANT SYMDEF INIT(%GM_DB_DS_BASE);
       44     1292        /*
       45     1293          Setup a few items used to determine the channel for debugging as
       46     1294          well as its speed, and when to start the debugger.
       47     1295                                                                                      */
       48     1296    1   DCL GD_CHN UBIN(10) CONSTANT SYMDEF INIT(0);
       49     1297    1   DCL GD_LINSPD UBIN CONSTANT SYMDEF INIT(9600);
       50     1298    1   DCL GD_DBG_INIT BIT(1) ALIGNED CONSTANT SYMDEF INIT('0'B);
       51     1299    1   DCL GD_DBG_MONINIT BIT(1) ALIGNED CONSTANT SYMDEF INIT('0'B);
       52     1300        /*
       53     1301          These structures are used to download and initialize the debugger
       54     1302          MLCP CCP and LCTs
       55     1303                                                                                      */
       56     1304              %KH$DWNLODCCP(NAME=GD_DWNLODCCP,
       57     1305                            CCPLCT$=GDA$MLCP,STCLASS=CONSTANT SYMDEF);
              1306        %LSET LISTDIR='0'B;
              1319    1   DCL 1 GD_DWNLODCCP WALIGNED CONSTANT SYMDEF,
              1325    1   2 CHN$ PTR  INIT(ADDR(NIL)),2 CCPLCT$ PTR  INIT(ADDR(GDA$MLCP)),2
              1326    1   CCPLODBIS UBIN WORD  INIT(0) ;
       58     1328              %KH$DWNLODLCT(NAME=GD_DWNLODLCT,
       59     1329                            CCPLCT$=GDA$MLCP,RCVINTLVL=%G_IL_SATYR_RCV#,
       60     1330                            TRNINTLVL=%G_IL_SATYR_TRN#,STCLASS=CONSTANT SYMDEF);
              1331        %LSET LISTDIR='0'B;
              1344    1   DCL 1 GD_DWNLODLCT WALIGNED CONSTANT SYMDEF,
              1350    1   2 CHN$ PTR  INIT(ADDR(NIL)),2 CCPLCT$ PTR  INIT(ADDR(GDA$MLCP)),2
              1351    1   CCPLODBIS UBIN WORD  INIT(0),2 RCVINTLVL UBIN WORD  INIT(7),2
              1352    1   TRNINTLVL UBIN WORD  INIT(8) ;
       61     1354    1   END GD_DATA_D;
PL6.E3A0      #001=GD_DATA_D File=GD_DATA_D.:E05TSI                              TUE 07/29/97 21:31 Page:13

PL6.E3A0      #001=GD_DATA_D File=GD_DATA_D.:E05TSI                              TUE 07/29/97 21:31 Page:14
--  Include file information  --

   GD$MSG_M.:E05TOU  is referenced.
   GD$MACS_M.:E05TOU  is referenced.
   KH$IO.:E05TOU  is referenced.
   KH$CHN.:E05TOU  is referenced.
   GM_VIRTUAL_E.:E05TOU  is referenced.
   GD_DATA_M.:E05TOU  is referenced.
   GDA_EQUS_E.:E05TOU  is referenced.
   GH_IOFNC_E.:E05TOU  is referenced.
   GH_HARDWARE_M.:E05TOU  is referenced.
   GD_EQUS_E.:E05TOU  is referenced.
   G_LCP6_E.:E05TOU  was found in the system file and is referenced.
   GT_LCP6_M.:E05TOU  was found in the system file and is never referenced.
   KI_CP6.:E05TOU  was found in the system file and is never referenced.
   GF_LCP6_M.:E05TOU  was found in the system file and is referenced.
   GM_LCP6_M.:E05TOU  was found in the system file and is never referenced.
   GU_LCP6_M.:E05TOU  was found in the system file and is never referenced.
   GJ_LCP6_M.:E05TOU  was found in the system file and is never referenced.
   GH_LCP6_M.:E05TOU  was found in the system file and is referenced.
      No diagnostics issued in procedure GD_DATA_D.
PL6.E3A0      #001=GD_DATA_D File=GD_DATA_D.:E05TSI                              TUE 07/29/97 21:31 Page:15

 **** Variables and constants ****

  ****  Section 000 RoData GD_DATA_D

  ****  Scalars and arrays  ****
HexLoc.c.b A Datatyp(siz) R M Lvl/name                 HexLoc.c.b A Datatyp(siz) R M Lvl/name

     6-0-0/w STRC(16704) r     1 GD_DATA_C

  ****  SYMREF variables  ****

  ****  Scalars and arrays  ****
HexLoc.c.b A Datatyp(siz) R M Lvl/name                 HexLoc.c.b A Datatyp(siz) R M Lvl/name

     0-0-0/w UBIN(16)    r     1 GDA$MLCP


   No code generated for procedure GD_DATA_D .
   Procedure GD_DATA_D requires 4 words of local(AUTO) storage.

    No errors detected in file GD_DATA_D.:E05TSI    .
PL6.E3A0      #001=GD_DATA_D File=GD_DATA_D.:E05TSI                              TUE 07/29/97 21:31 Page:16
          *** CROSS REFERENCE LISTING ***
**     DENOTES     IDENTIFIER DEFINITION
<<                 IDENTIFIER'S VALUE SET
>>                 IDENTIFIER'S VALUE USED
<>                 IDENTIFIER SET AND/OR USED
--                 IDENTIFIER REFERENCED
PL6.E3A0      #001=GD_DATA_D File=GD_DATA_D.:E05TSI                              TUE 07/29/97 21:31 Page:17
          MINI XREF LISTING

GDA$MLCP
      1216**DCL      1325--DCLINIT  1350--DCLINIT
GDB$FIRST_USER_TRAP
      1213**DCL-ENT  1236--DCLINIT
GDB$TRAP_HND
      1214**DCL-ENT  1236--DCLINIT
GD_DATA_C
      1257**DCL      1237--DCLINIT
GD_DATA_C.GD.DYNSP$
      1270**DCL      1270--REDEF
GD_DATA_C.GD.STEP_BRKPNT.ADR$
      1271**DCL      1272--REDEF
GD_DATA_C.GD.STEP_BRKPNT.START$
      1272**DCL      1272--REDEF
