VERSION E05

PL6.E3A0      #001=GHI_INT_RECV_E File=GHI_INT_RECV_E.:E05TSI                    TUE 07/29/97 07:14 Page:1
        1        1        /*M* GHI_INT_RECV_E - L6ASM equates for GHI$INT_RECV - built by DRAW(LEV=2) */
        2        2        /*T***********************************************************/
        3        3        /*T*                                                         */
        4        4        /*T* Copyright (c) Bull HN Information Systems Inc., 1997    */
        5        5        /*T*                                                         */
        6        6        /*T***********************************************************/
        7        7        GHI_INT_RECV_E: PROC;
        8        8 S      %INCLUDE GH_LCP6_M;
        9        9        %INCLUDE G_HJIT_M;
       10      154        %INCLUDE G_ROS_M;
       11      236 S      %INCLUDE GU_LCP6_M;
       12      237 S      %INCLUDE GF_LCP6_M;
       13      238        %INCLUDE G_JIT_M;
       14      503        %INCLUDE GM_VIRTUAL_E;
       15      713        %G$ROS (FPTN=G_ROS,FULL=YES,STCLASS=",2 *(0:%(GM_ROS_BASE-1)) UBIN");
       16     1664        %G$JIT;
       17     2078        %G$MHJIT(STCLASS=BASED);
       18     8952        %LIST;
       19     8953        %G$INTCON(ARRAYED=NO,STCLASS=BASED);
              8954        %LSET LISTDIR='0'B;
              9001    1   DCL 1 G$INTCON BASED WALIGNED,
              9005    1   2 ASV$ PTR /*(ADDR(NIL)*0)*/,2 * BIT(16)/*('0'B*0)*/,2 TSAP$ PTR /*
              9006    1   (ADDR(NIL)*0)*/ ,
              9025    1   2 DEV,
              9027    1   3 CHN UBIN(10)UNAL /*(0)*/,3 IL UBIN(6)UNAL /*(0)*/ ,
              9029    1   2 ISM1 BIT(16)/*('0'B*0)*/,
              9047    1   2 ISM2,
              9049    1   3 MMU BIT(1) /*('0'B*0)*/,3 NATSAP_SEL UBIN(3)UNAL /*(2*0)*/,3
              9050    1   * BIT(2)/*('0'B*0)*/,3 SIP BIT(1) /*('0'B*0)*/,3 CIP BIT(1) /*('0'B*0)*/,
              9051    1   3 * BIT(6)/*('0'B*0)*/,3 T BIT(1) /*('0'B*0)*/,3 M2_M7 BIT(1) /*
              9052    1   ('0'B*0)*/ ,
              9055    1   2 P$$ EPTR /*(ENTADDR(GHI$CIH_RECV)*0)*/,2 P$ REDEF P$$ PTR,
              9076    1   2 S,
              9078    1   3 QLT BIT(1) /*('0'B*0)*/,3 RING BIT(2) /*('10'B*0)*/,3 * BIT(5)/*
              9079    1   ('0'B*0)*/,3 ID BIT(2) /*('00'B*0)*/,3 LEVEL UBIN(6)UNAL /*(0*0)*/ ,
              9082    1   2 HHJIT UBIN /*(0*0)*/,2 HJIT_PG REDEF HHJIT,3 V BIT(1),3 * BIT(3),3 BASE UBIN(12)
              9082            UNAL,
PL6.E3A0      #001=GHI_INT_RECV_E File=GHI_INT_RECV_E.:E05TSI                    TUE 07/29/97 07:14 Page:2
              9083    1   2 USER UBIN(8)UNAL /*(0*0)*/,2 RUNLEVEL UBIN(8)UNAL /*(0*0)*/,2 IENTRY EPTR /*(
              9083            ENTADDR(NIL)*0
              9084    1   )*/,2 ALLOCATED BIT(1)/*('0'B*0)*/,2 PRIVILEGED BIT(1)/*('0'B*0)*/,2 DOMYIO BIT(1)/*
              9085    1   ('0'B*0)*/,2 RUNNING BIT(1)/*('0'B*0)*/,2 CLEANUP BIT(1)/*('0'B*0)*/,2 RUNONLY BIT(1
              9085            )/*
              9086    1   ('0'B*0)*/,2 MORE_FLAGS BIT(10)/*('0'B*0)*/ ;
       20     9088        %G$LOW_MEM(FPTN=G_LM);
              9089        %LSET LISTDIR='0'B;
              9093    1   DCL 1 G_LM BASED WALIGNED,2 PSF_ENT$ PTR,2 NATSAP7$ PTR,2 NATSAP6$ PTR,2 NATSAP5$
              9093            PTR,2 NATSAP4$ PTR,2 NATSAP3$ PTR,2 NATSAP2$ PTR,2
              9094    1   NATSAP1$ PTR,2 NATSAP0$ PTR,2 *(0:1)UBIN WORD,2 RTC_INIT UBIN WORD,2 RTC_CURR UBIN
              9094            WORD,2 RTC_LVL UBIN WORD,2 WDT_CURR UBIN WORD,2 *
              9095    1   (0:6)UBIN WORD,2 MEM_ERR_CNT SBIN WORD,2 LVL_ACT(0:63)BIT(1),
              9104    1   2 TV,
              9106    1   3 RFU_1(0:12)PTR,3 T#32$ PTR,3 EXT_PROT$ REDEF T#32$ PTR,3 T#33$ PTR,3 S_ARG$ REDEF
              9106            T#33$ PTR,
              9107    1   3 T#31$ PTR,3 SIP_QLT$ REDEF T#31$ PTR,3 T#30$ PTR,3 CIP_QLT$ REDEF T#30$ PTR,3
              9107            T#29$ PTR,
              9108    1   3 C_OV$ REDEF T#29$ PTR,3 T#28$ PTR,3 C_TRUNC$ REDEF T#28$ PTR,3 T#27$ PTR,3 C_CHAR$
              9108            REDEF T#27$
              9109    1   PTR,3 T#26$ PTR,3 C_SPEC$ REDEF T#26$ PTR,3 T#25$ PTR,3 C_DBZ$ REDEF T#25$ PTR,3
              9109            T#24$ PTR,
              9110    1   3 EXT_MBE$ REDEF T#24$ PTR,3 T#23$ PTR,3 EXT_UR$ REDEF T#23$ PTR,3 T#22$ PTR,3
              9110            S_PRECISION$ REDEF
              9111    1   T#22$ PTR,3 T#21$ PTR,3 S_SIGNIF$ REDEF T#21$ PTR,3 T#20$ PTR,3 S_PROG_ERR$ REDEF
              9111            T#20$ PTR,3
              9112    1   T#19$ PTR,3 S_EXP_UF$ REDEF T#19$ PTR,3 T#18$ PTR,3 T#17$ PTR,3 INT_MBE$ REDEF T#17$
              9112            PTR,3 T#16$
              9113    1   PTR,3 PROG_ERR$ REDEF T#16$ PTR,3 T#15$ PTR,3 INT_UR$ REDEF T#15$ PTR,3 T#14$ PTR,3
              9113            MEM_PROT$
              9114    1   REDEF T#14$ PTR,3 T#13$ PTR,3 PRIV$ REDEF T#13$ PTR,3 T#12$ PTR,3 REMOTE_DESC$ REDEF
              9114            T#12$ PTR,3
              9115    1   T#11$ PTR,3 T#10$ PTR,3 STK_OV$ REDEF T#10$ PTR,3 T#09$ PTR,3 STK_UF$ REDEF T#09$
              9115            PTR,3 T#08$
              9116    1   PTR,3 S_EXP_OV$ REDEF T#08$ PTR,3 T#07$ PTR,3 S_DBZ$ REDEF T#07$ PTR,3 T#06$ PTR,3
              9116            INT_REG_OV$
              9117    1   REDEF T#06$ PTR,3 T#05$ PTR,3 UNIMPL$ REDEF T#05$ PTR,3 T#04$ PTR,3 T#03$ PTR,3
PL6.E3A0      #001=GHI_INT_RECV_E File=GHI_INT_RECV_E.:E05TSI                    TUE 07/29/97 07:14 Page:3
              9117            NO_SIP$ REDEF
              9118    1   T#03$ PTR,3 T#02$ PTR,3 TRACE$ REDEF T#02$ PTR,3 T#01$ PTR,3 MCL$ REDEF T#01$ PTR ,
              9128    1   2 IV,
              9130    1   3 IL$(0:63)PTR,3 INT REDEF IL$,4 I#00$ PTR,4 PFS$ REDEF I#00$ PTR,4 I#01$ PTR,4
              9130            WDOG$
              9131    1   REDEF I#01$ PTR,4 I#02$ PTR,4 TSA_OV$ REDEF I#02$ PTR,4 I#03$ PTR,4 BIGFOOT$ REDEF
              9131            I#03$ PTR,4
              9132    1   I#04$ PTR,4 INHIBIT$ REDEF I#04$ PTR,4 I#05$ PTR,4 INHIBIT1$ REDEF I#05$ PTR,4
              9132            HANDLER$(0:54)PTR,
              9133    1   4 I#61$ PTR,4 RT_CLOCK$ REDEF I#61$ PTR,4 I#62$ PTR,4 SCHD$ REDEF I#62$ PTR,4 I#63$
              9133            PTR,4
              9134    1   USER$ REDEF I#63$ PTR ;
       21     9137        %G$HHJIT(STCLASS=BASED);
              9138        %LSET LISTDIR='0'B;
              9151    1   DCL 1 G$HHJIT BASED WALIGNED,
              9165    1   2 ASDT_USR,
              9184    1   3 NULLSEG,
              9186    1   4 V BIT(1) /*('1'B)*/,4 BASE UBIN(15)UNAL /*(0)*/,4
              9187    1   RP BIT(2) /*('11'B)*/,4 WP BIT(2) /*('11'B)*/,4 EP BIT(2) /*('11'B)*/,
              9188    1   4 * BIT(1)/*('0'B)*/,4 SIZE UBIN(9)UNAL /*(0)*/ ,
              9206    1   3 ROS,
              9208    1   4 V BIT(1) /*('1'B)*/,4 BASE UBIN(15)UNAL /*(0)*/,4
              9209    1   RP BIT(2) /*('00'B)*/,4 WP BIT(2) /*('10'B)*/,4 EP BIT(2) /*('11'B)*/,
              9210    1   4 * BIT(1)/*('0'B)*/,4 SIZE UBIN(9)UNAL /*(0)*/ ,
              9228    1   3 DB_DS,
              9230    1   4 V BIT(1) /*('0'B)*/,4 BASE UBIN(15)UNAL /*(0)*/,4
              9231    1   RP BIT(2) /*('01'B)*/,4 WP BIT(2) /*('01'B)*/,4 EP BIT(2) /*('11'B)*/,
              9232    1   4 * BIT(1)/*('0'B)*/,4 SIZE UBIN(9)UNAL /*(0)*/ ,
              9250    1   3 LOW_MEM,
              9252    1   4 V BIT(1) /*('0'B)*/,4 BASE UBIN(15)UNAL /*(0)*/,4
              9253    1   RP BIT(2) /*('10'B)*/,4 WP BIT(2) /*('10'B)*/,4 EP BIT(2) /*('11'B)*/,
              9254    1   4 * BIT(1)/*('0'B)*/,4 SIZE UBIN(9)UNAL /*(0)*/ ,
              9272    1   3 TSTACKU,
              9274    1   4 V BIT(1) /*('1'B)*/,4 BASE UBIN(15)UNAL /*(0)*/,4
              9275    1   RP BIT(2) /*('10'B)*/,4 WP BIT(2) /*('10'B)*/,4 EP BIT(2) /*('11'B)*/,
              9276    1   4 * BIT(1)/*('0'B)*/,4 SIZE UBIN(9)UNAL /*(0)*/ ,
              9294    1   3 UHJIT,
PL6.E3A0      #001=GHI_INT_RECV_E File=GHI_INT_RECV_E.:E05TSI                    TUE 07/29/97 07:14 Page:4
              9296    1   4 V BIT(1) /*('1'B)*/,4 BASE UBIN(15)UNAL /*(0)*/,4
              9297    1   RP BIT(2) /*('01'B)*/,4 WP BIT(2) /*('01'B)*/,4 EP BIT(2) /*('11'B)*/,
              9298    1   4 * BIT(1)/*('0'B)*/,4 SIZE UBIN(9)UNAL /*(0)*/ ,
              9316    1   3 MHJIT,
              9318    1   4 V BIT(1) /*('0'B)*/,4 BASE UBIN(15)UNAL /*(0)*/,4
              9319    1   RP BIT(2) /*('10'B)*/,4 WP BIT(2) /*('10'B)*/,4 EP BIT(2) /*('11'B)*/,
              9320    1   4 * BIT(1)/*('0'B)*/,4 SIZE UBIN(9)UNAL /*(0)*/ ,
              9338    1   3 MHJIT2,
              9340    1   4 V BIT(1) /*('0'B)*/,4 BASE UBIN(15)UNAL /*(0)*/,4
              9341    1   RP BIT(2) /*('10'B)*/,4 WP BIT(2) /*('10'B)*/,4 EP BIT(2) /*('11'B)*/,
              9342    1   4 * BIT(1)/*('0'B)*/,4 SIZE UBIN(9)UNAL /*(0)*/ ,
              9360    1   3 MON_ENTRY_DATA,
              9362    1   4 V BIT(1) /*('0'B)*/,4 BASE UBIN(15)UNAL /*(0)*/,4
              9363    1   RP BIT(2) /*('10'B)*/,4 WP BIT(2) /*('10'B)*/,4 EP BIT(2) /*('11'B)*/,
              9364    1   4 * BIT(1)/*('0'B)*/,4 SIZE UBIN(9)UNAL /*(0)*/ ,
              9382    1   3 MON_ENTRY,
              9384    1   4 V BIT(1) /*('0'B)*/,4 BASE UBIN(15)UNAL /*(0)*/,4
              9385    1   RP BIT(2) /*('10'B)*/,4 WP BIT(2) /*('11'B)*/,4 EP BIT(2) /*('10'B)*/,
              9386    1   4 * BIT(1)/*('0'B)*/,4 SIZE UBIN(9)UNAL /*(0)*/ ,
              9404    1   3 USR_DS1,
              9406    1   4 V BIT(1) /*('0'B)*/,4 BASE UBIN(15)UNAL /*(0)*/,4
              9407    1   RP BIT(2) /*('00'B)*/,4 WP BIT(2) /*('00'B)*/,4 EP BIT(2) /*('11'B)*/,
              9408    1   4 * BIT(1)/*('0'B)*/,4 SIZE UBIN(9)UNAL /*(0)*/ ,
              9426    1   3 USR_DS2,
              9428    1   4 V BIT(1) /*('0'B)*/,4 BASE UBIN(15)UNAL /*(0)*/,4
              9429    1   RP BIT(2) /*('00'B)*/,4 WP BIT(2) /*('00'B)*/,4 EP BIT(2) /*('11'B)*/,
              9430    1   4 * BIT(1)/*('0'B)*/,4 SIZE UBIN(9)UNAL /*(0)*/ ,
              9448    1   3 CP_DS,
              9450    1   4 V BIT(1) /*('0'B)*/,4 BASE UBIN(15)UNAL /*(0)*/,4
              9451    1   RP BIT(2) /*('01'B)*/,4 WP BIT(2) /*('01'B)*/,4 EP BIT(2) /*('11'B)*/,
              9452    1   4 * BIT(1)/*('0'B)*/,4 SIZE UBIN(9)UNAL /*(0)*/ ,
              9470    1   3 *,
              9472    1   4 V BIT(1) /*('0'B)*/,4 BASE UBIN(15)UNAL /*(0)*/,4
              9473    1   RP BIT(2) /*('11'B)*/,4 WP BIT(2) /*('11'B)*/,4 EP BIT(2) /*('11'B)*/,
              9474    1   4 * BIT(1)/*('0'B)*/,4 SIZE UBIN(9)UNAL /*(0)*/ ,
              9492    1   3 *,
              9494    1   4 V BIT(1) /*('0'B)*/,4 BASE UBIN(15)UNAL /*(0)*/,4
PL6.E3A0      #001=GHI_INT_RECV_E File=GHI_INT_RECV_E.:E05TSI                    TUE 07/29/97 07:14 Page:5
              9495    1   RP BIT(2) /*('11'B)*/,4 WP BIT(2) /*('11'B)*/,4 EP BIT(2) /*('11'B)*/,
              9496    1   4 * BIT(1)/*('0'B)*/,4 SIZE UBIN(9)UNAL /*(0)*/ ,
              9514    1   3 *,
              9516    1   4 V BIT(1) /*('0'B)*/,4 BASE UBIN(15)UNAL /*(0)*/,4
              9517    1   RP BIT(2) /*('11'B)*/,4 WP BIT(2) /*('11'B)*/,4 EP BIT(2) /*('11'B)*/,
              9518    1   4 * BIT(1)/*('0'B)*/,4 SIZE UBIN(9)UNAL /*(0)*/ ,
              9536    1   3 ISR1,
              9538    1   4 V BIT(1) /*('0'B)*/,4 BASE UBIN(15)UNAL /*(0)*/,4
              9539    1   RP BIT(2) /*('00'B)*/,4 WP BIT(2) /*('00'B)*/,4 EP BIT(2) /*('11'B)*/,
              9540    1   4 * BIT(1)/*('0'B)*/,4 SIZE UBIN(9)UNAL /*(0)*/ ,
              9558    1   3 ISR2,
              9560    1   4 V BIT(1) /*('0'B)*/,4 BASE UBIN(15)UNAL /*(0)*/,4
              9561    1   RP BIT(2) /*('00'B)*/,4 WP BIT(2) /*('00'B)*/,4 EP BIT(2) /*('11'B)*/,
              9562    1   4 * BIT(1)/*('0'B)*/,4 SIZE UBIN(9)UNAL /*(0)*/ ,
              9580    1   3 ISR3,
              9582    1   4 V BIT(1) /*('0'B)*/,4 BASE UBIN(15)UNAL /*(0)*/,4
              9583    1   RP BIT(2) /*('00'B)*/,4 WP BIT(2) /*('01'B)*/,4 EP BIT(2) /*('00'B)*/,
              9584    1   4 * BIT(1)/*('0'B)*/,4 SIZE UBIN(9)UNAL /*(0)*/ ,
              9602    1   3 ISR4,
              9604    1   4 V BIT(1) /*('0'B)*/,4 BASE UBIN(15)UNAL /*(0)*/,4
              9605    1   RP BIT(2) /*('00'B)*/,4 WP BIT(2) /*('01'B)*/,4 EP BIT(2) /*('00'B)*/,
              9606    1   4 * BIT(1)/*('0'B)*/,4 SIZE UBIN(9)UNAL /*(0)*/ ,
              9624    1   3 ISR5,
              9626    1   4 V BIT(1) /*('0'B)*/,4 BASE UBIN(15)UNAL /*(0)*/,4
              9627    1   RP BIT(2) /*('00'B)*/,4 WP BIT(2) /*('01'B)*/,4 EP BIT(2) /*('00'B)*/,
              9628    1   4 * BIT(1)/*('0'B)*/,4 SIZE UBIN(9)UNAL /*(0)*/ ,
              9646    1   3 ISR6,
              9648    1   4 V BIT(1) /*('0'B)*/,4 BASE UBIN(15)UNAL /*(0)*/,4
              9649    1   RP BIT(2) /*('00'B)*/,4 WP BIT(2) /*('10'B)*/,4 EP BIT(2) /*('00'B)*/,
              9650    1   4 * BIT(1)/*('0'B)*/,4 SIZE UBIN(9)UNAL /*(0)*/ ,
              9668    1   3 ISR7,
              9670    1   4 V BIT(1) /*('0'B)*/,4 BASE UBIN(15)UNAL /*(0)*/,4
              9671    1   RP BIT(2) /*('00'B)*/,4 WP BIT(2) /*('10'B)*/,4 EP BIT(2) /*('00'B)*/,
              9672    1   4 * BIT(1)/*('0'B)*/,4 SIZE UBIN(9)UNAL /*(0)*/ ,
              9690    1   3 DB_PROC,
              9692    1   4 V BIT(1) /*('0'B)*/,4 BASE UBIN(15)UNAL /*(0)*/,4
              9693    1   RP BIT(2) /*('01'B)*/,4 WP BIT(2) /*('10'B)*/,4 EP BIT(2) /*('01'B)*/,
PL6.E3A0      #001=GHI_INT_RECV_E File=GHI_INT_RECV_E.:E05TSI                    TUE 07/29/97 07:14 Page:6
              9694    1   4 * BIT(1)/*('0'B)*/,4 SIZE UBIN(9)UNAL /*(0)*/ ,
              9712    1   3 CP_PROC,
              9714    1   4 V BIT(1) /*('0'B)*/,4 BASE UBIN(15)UNAL /*(0)*/,4
              9715    1   RP BIT(2) /*('01'B)*/,4 WP BIT(2) /*('10'B)*/,4 EP BIT(2) /*('01'B)*/,
              9716    1   4 * BIT(1)/*('0'B)*/,4 SIZE UBIN(9)UNAL /*(0)*/ ,
              9734    1   3 UAUTO_DS,
              9736    1   4 V BIT(1) /*('0'B)*/,4 BASE UBIN(15)UNAL /*(0)*/,4
              9737    1   RP BIT(2) /*('00'B)*/,4 WP BIT(2) /*('00'B)*/,4 EP BIT(2) /*('11'B)*/,
              9738    1   4 * BIT(1)/*('0'B)*/,4 SIZE UBIN(9)UNAL /*(0)*/ ,
              9756    1   3 USR_DS3,
              9758    1   4 V BIT(1) /*('0'B)*/,4 BASE UBIN(15)UNAL /*(0)*/,4
              9759    1   RP BIT(2) /*('00'B)*/,4 WP BIT(2) /*('00'B)*/,4 EP BIT(2) /*('11'B)*/,
              9760    1   4 * BIT(1)/*('0'B)*/,4 SIZE UBIN(9)UNAL /*(0)*/ ,
              9778    1   3 USR_DS4,
              9780    1   4 V BIT(1) /*('0'B)*/,4 BASE UBIN(15)UNAL /*(0)*/,4
              9781    1   RP BIT(2) /*('00'B)*/,4 WP BIT(2) /*('00'B)*/,4 EP BIT(2) /*('11'B)*/,
              9782    1   4 * BIT(1)/*('0'B)*/,4 SIZE UBIN(9)UNAL /*(0)*/ ,
              9800    1   3 HAND_Q,
              9802    1   4 V BIT(1) /*('0'B)*/,4 BASE UBIN(15)UNAL /*(0)*/,4
              9803    1   RP BIT(2) /*('10'B)*/,4 WP BIT(2) /*('10'B)*/,4 EP BIT(2) /*('11'B)*/,
              9804    1   4 * BIT(1)/*('0'B)*/,4 SIZE UBIN(9)UNAL /*(0)*/ ,
              9822    1   3 LIBIS1,
              9824    1   4 V BIT(1) /*('0'B)*/,4 BASE UBIN(15)UNAL /*(0)*/,4
              9825    1   RP BIT(2) /*('00'B)*/,4 WP BIT(2) /*('10'B)*/,4 EP BIT(2) /*('00'B)*/,
              9826    1   4 * BIT(1)/*('0'B)*/,4 SIZE UBIN(9)UNAL /*(0)*/ ,
              9844    1   3 LIBIS2,
              9846    1   4 V BIT(1) /*('0'B)*/,4 BASE UBIN(15)UNAL /*(0)*/,4
              9847    1   RP BIT(2) /*('00'B)*/,4 WP BIT(2) /*('10'B)*/,4 EP BIT(2) /*('00'B)*/,
              9848    1   4 * BIT(1)/*('0'B)*/,4 SIZE UBIN(9)UNAL /*(0)*/ ,
              9859    1   2 ASDT_MCL,
              9878    1   3 NULLSEG,
              9880    1   4 V BIT(1) /*('1'B)*/,4 BASE UBIN(15)UNAL /*(0)*/,4
              9881    1   RP BIT(2) /*('11'B)*/,4 WP BIT(2) /*('11'B)*/,4 EP BIT(2) /*('11'B)*/,
              9882    1   4 * BIT(1)/*('0'B)*/,4 SIZE UBIN(9)UNAL /*(0)*/ ,
              9900    1   3 ROS,
              9902    1   4 V BIT(1) /*('0'B)*/,4 BASE UBIN(15)UNAL /*(0)*/,4
              9903    1   RP BIT(2) /*('00'B)*/,4 WP BIT(2) /*('10'B)*/,4 EP BIT(2) /*('11'B)*/,
PL6.E3A0      #001=GHI_INT_RECV_E File=GHI_INT_RECV_E.:E05TSI                    TUE 07/29/97 07:14 Page:7
              9904    1   4 * BIT(1)/*('0'B)*/,4 SIZE UBIN(9)UNAL /*(0)*/ ,
              9922    1   3 RDB_DS,
              9924    1   4 V BIT(1) /*('0'B)*/,4 BASE UBIN(15)UNAL /*(0)*/,4
              9925    1   RP BIT(2) /*('10'B)*/,4 WP BIT(2) /*('10'B)*/,4 EP BIT(2) /*('11'B)*/,
              9926    1   4 * BIT(1)/*('0'B)*/,4 SIZE UBIN(9)UNAL /*(0)*/ ,
              9944    1   3 LOW_MEM,
              9946    1   4 V BIT(1) /*('0'B)*/,4 BASE UBIN(15)UNAL /*(0)*/,4
              9947    1   RP BIT(2) /*('10'B)*/,4 WP BIT(2) /*('10'B)*/,4 EP BIT(2) /*('11'B)*/,
              9948    1   4 * BIT(1)/*('0'B)*/,4 SIZE UBIN(9)UNAL /*(0)*/ ,
              9966    1   3 TSTACKU,
              9968    1   4 V BIT(1) /*('0'B)*/,4 BASE UBIN(15)UNAL /*(0)*/,4
              9969    1   RP BIT(2) /*('10'B)*/,4 WP BIT(2) /*('10'B)*/,4 EP BIT(2) /*('11'B)*/,
              9970    1   4 * BIT(1)/*('0'B)*/,4 SIZE UBIN(9)UNAL /*(0)*/ ,
              9988    1   3 UHJIT,
              9990    1   4 V BIT(1) /*('0'B)*/,4 BASE UBIN(15)UNAL /*(0)*/,4
              9991    1   RP BIT(2) /*('10'B)*/,4 WP BIT(2) /*('10'B)*/,4 EP BIT(2) /*('11'B)*/,
              9992    1   4 * BIT(1)/*('0'B)*/,4 SIZE UBIN(9)UNAL /*(0)*/ ,
             10010    1   3 MHJIT,
             10012    1   4 V BIT(1) /*('0'B)*/,4 BASE UBIN(15)UNAL /*(0)*/,4
             10013    1   RP BIT(2) /*('10'B)*/,4 WP BIT(2) /*('10'B)*/,4 EP BIT(2) /*('11'B)*/,
             10014    1   4 * BIT(1)/*('0'B)*/,4 SIZE UBIN(9)UNAL /*(0)*/ ,
             10032    1   3 MHJIT2,
             10034    1   4 V BIT(1) /*('0'B)*/,4 BASE UBIN(15)UNAL /*(0)*/,4
             10035    1   RP BIT(2) /*('10'B)*/,4 WP BIT(2) /*('10'B)*/,4 EP BIT(2) /*('11'B)*/,
             10036    1   4 * BIT(1)/*('0'B)*/,4 SIZE UBIN(9)UNAL /*(0)*/ ,
             10054    1   3 MON_ENTRY_DATA,
             10056    1   4 V BIT(1) /*('0'B)*/,4 BASE UBIN(15)UNAL /*(0)*/,4
             10057    1   RP BIT(2) /*('10'B)*/,4 WP BIT(2) /*('10'B)*/,4 EP BIT(2) /*('11'B)*/,
             10058    1   4 * BIT(1)/*('0'B)*/,4 SIZE UBIN(9)UNAL /*(0)*/ ,
             10076    1   3 MON_ENTRY,
             10078    1   4 V BIT(1) /*('0'B)*/,4 BASE UBIN(15)UNAL /*(0)*/,4
             10079    1   RP BIT(2) /*('10'B)*/,4 WP BIT(2) /*('11'B)*/,4 EP BIT(2) /*('10'B)*/,
             10080    1   4 * BIT(1)/*('0'B)*/,4 SIZE UBIN(9)UNAL /*(0)*/ ,
             10098    1   3 LPAR1,
             10100    1   4 V BIT(1) /*('0'B)*/,4 BASE UBIN(15)UNAL /*(0)*/,4
             10101    1   RP BIT(2) /*('10'B)*/,4 WP BIT(2) /*('10'B)*/,4 EP BIT(2) /*('11'B)*/,
             10102    1   4 * BIT(1)/*('0'B)*/,4 SIZE UBIN(9)UNAL /*(0)*/ ,
PL6.E3A0      #001=GHI_INT_RECV_E File=GHI_INT_RECV_E.:E05TSI                    TUE 07/29/97 07:14 Page:8
             10120    1   3 LPAR2,
             10122    1   4 V BIT(1) /*('0'B)*/,4 BASE UBIN(15)UNAL /*(0)*/,4
             10123    1   RP BIT(2) /*('10'B)*/,4 WP BIT(2) /*('10'B)*/,4 EP BIT(2) /*('11'B)*/,
             10124    1   4 * BIT(1)/*('0'B)*/,4 SIZE UBIN(9)UNAL /*(0)*/ ,
             10142    1   3 LPAR3,
             10144    1   4 V BIT(1) /*('0'B)*/,4 BASE UBIN(15)UNAL /*(0)*/,4
             10145    1   RP BIT(2) /*('10'B)*/,4 WP BIT(2) /*('10'B)*/,4 EP BIT(2) /*('11'B)*/,
             10146    1   4 * BIT(1)/*('0'B)*/,4 SIZE UBIN(9)UNAL /*(0)*/ ,
             10164    1   3 LPAR4,
             10166    1   4 V BIT(1) /*('0'B)*/,4 BASE UBIN(15)UNAL /*(0)*/,4
             10167    1   RP BIT(2) /*('10'B)*/,4 WP BIT(2) /*('10'B)*/,4 EP BIT(2) /*('11'B)*/,
             10168    1   4 * BIT(1)/*('0'B)*/,4 SIZE UBIN(9)UNAL /*(0)*/ ,
             10186    1   3 LPAR5,
             10188    1   4 V BIT(1) /*('0'B)*/,4 BASE UBIN(15)UNAL /*(0)*/,4
             10189    1   RP BIT(2) /*('10'B)*/,4 WP BIT(2) /*('10'B)*/,4 EP BIT(2) /*('11'B)*/,
             10190    1   4 * BIT(1)/*('0'B)*/,4 SIZE UBIN(9)UNAL /*(0)*/ ,
             10208    1   3 LPAR6,
             10210    1   4 V BIT(1) /*('0'B)*/,4 BASE UBIN(15)UNAL /*(0)*/,4
             10211    1   RP BIT(2) /*('10'B)*/,4 WP BIT(2) /*('10'B)*/,4 EP BIT(2) /*('11'B)*/,
             10212    1   4 * BIT(1)/*('0'B)*/,4 SIZE UBIN(9)UNAL /*(0)*/ ,
             10230    1   3 MON_STATIC1,
             10232    1   4 V BIT(1) /*('0'B)*/,4 BASE UBIN(15)UNAL /*(0)*/,4
             10233    1   RP BIT(2) /*('10'B)*/,4 WP BIT(2) /*('10'B)*/,4 EP BIT(2) /*('11'B)*/,
             10234    1   4 * BIT(1)/*('0'B)*/,4 SIZE UBIN(9)UNAL /*(0)*/ ,
             10252    1   3 MON_STATIC2,
             10254    1   4 V BIT(1) /*('0'B)*/,4 BASE UBIN(15)UNAL /*(0)*/,4
             10255    1   RP BIT(2) /*('10'B)*/,4 WP BIT(2) /*('10'B)*/,4 EP BIT(2) /*('11'B)*/,
             10256    1   4 * BIT(1)/*('0'B)*/,4 SIZE UBIN(9)UNAL /*(0)*/ ,
             10274    1   3 MON_PROC1,
             10276    1   4 V BIT(1) /*('0'B)*/,4 BASE UBIN(15)UNAL /*(0)*/,4
             10277    1   RP BIT(2) /*('10'B)*/,4 WP BIT(2) /*('11'B)*/,4 EP BIT(2) /*('10'B)*/,
             10278    1   4 * BIT(1)/*('0'B)*/,4 SIZE UBIN(9)UNAL /*(0)*/ ,
             10296    1   3 MON_PROC2,
             10298    1   4 V BIT(1) /*('0'B)*/,4 BASE UBIN(15)UNAL /*(0)*/,4
             10299    1   RP BIT(2) /*('10'B)*/,4 WP BIT(2) /*('11'B)*/,4 EP BIT(2) /*('10'B)*/,
             10300    1   4 * BIT(1)/*('0'B)*/,4 SIZE UBIN(9)UNAL /*(0)*/ ,
             10318    1   3 MON_PROC3,
PL6.E3A0      #001=GHI_INT_RECV_E File=GHI_INT_RECV_E.:E05TSI                    TUE 07/29/97 07:14 Page:9
             10320    1   4 V BIT(1) /*('0'B)*/,4 BASE UBIN(15)UNAL /*(0)*/,4
             10321    1   RP BIT(2) /*('10'B)*/,4 WP BIT(2) /*('11'B)*/,4 EP BIT(2) /*('10'B)*/,
             10322    1   4 * BIT(1)/*('0'B)*/,4 SIZE UBIN(9)UNAL /*(0)*/ ,
             10340    1   3 BPAR1,
             10342    1   4 V BIT(1) /*('0'B)*/,4 BASE UBIN(15)UNAL /*(0)*/,4
             10343    1   RP BIT(2) /*('10'B)*/,4 WP BIT(2) /*('10'B)*/,4 EP BIT(2) /*('11'B)*/,
             10344    1   4 * BIT(1)/*('0'B)*/,4 SIZE UBIN(9)UNAL /*(0)*/ ,
             10362    1   3 BPAR2,
             10364    1   4 V BIT(1) /*('0'B)*/,4 BASE UBIN(15)UNAL /*(0)*/,4
             10365    1   RP BIT(2) /*('10'B)*/,4 WP BIT(2) /*('10'B)*/,4 EP BIT(2) /*('11'B)*/,
             10366    1   4 * BIT(1)/*('0'B)*/,4 SIZE UBIN(9)UNAL /*(0)*/ ,
             10384    1   3 DB_PROC,
             10386    1   4 V BIT(1) /*('0'B)*/,4 BASE UBIN(15)UNAL /*(0)*/,4
             10387    1   RP BIT(2) /*('10'B)*/,4 WP BIT(2) /*('11'B)*/,4 EP BIT(2) /*('10'B)*/,
             10388    1   4 * BIT(1)/*('0'B)*/,4 SIZE UBIN(9)UNAL /*(0)*/ ,
             10406    1   3 WINDOW1,
             10408    1   4 V BIT(1) /*('0'B)*/,4 BASE UBIN(15)UNAL /*(0)*/,4
             10409    1   RP BIT(2) /*('10'B)*/,4 WP BIT(2) /*('10'B)*/,4 EP BIT(2) /*('11'B)*/,
             10410    1   4 * BIT(1)/*('0'B)*/,4 SIZE UBIN(9)UNAL /*(0)*/ ,
             10428    1   3 PPUT,
             10430    1   4 V BIT(1) /*('0'B)*/,4 BASE UBIN(15)UNAL /*(0)*/,4
             10431    1   RP BIT(2) /*('10'B)*/,4 WP BIT(2) /*('10'B)*/,4 EP BIT(2) /*('11'B)*/,
             10432    1   4 * BIT(1)/*('0'B)*/,4 SIZE UBIN(9)UNAL /*(0)*/ ,
             10450    1   3 CBUFFER,
             10452    1   4 V BIT(1) /*('0'B)*/,4 BASE UBIN(15)UNAL /*(0)*/,4
             10453    1   RP BIT(2) /*('10'B)*/,4 WP BIT(2) /*('10'B)*/,4 EP BIT(2) /*('11'B)*/,
             10454    1   4 * BIT(1)/*('0'B)*/,4 SIZE UBIN(9)UNAL /*(0)*/ ,
             10472    1   3 BOBCAT,
             10474    1   4 V BIT(1) /*('0'B)*/,4 BASE UBIN(15)UNAL /*(0)*/,4
             10475    1   RP BIT(2) /*('10'B)*/,4 WP BIT(2) /*('10'B)*/,4 EP BIT(2) /*('11'B)*/,
             10476    1   4 * BIT(1)/*('0'B)*/,4 SIZE UBIN(9)UNAL /*(0)*/ ,
             10494    1   3 HAND_Q,
             10496    1   4 V BIT(1) /*('0'B)*/,4 BASE UBIN(15)UNAL /*(0)*/,4
             10497    1   RP BIT(2) /*('10'B)*/,4 WP BIT(2) /*('10'B)*/,4 EP BIT(2) /*('11'B)*/,
             10498    1   4 * BIT(1)/*('0'B)*/,4 SIZE UBIN(9)UNAL /*(0)*/ ,
             10516    1   3 *,
             10518    1   4 V BIT(1) /*('0'B)*/,4 BASE UBIN(15)UNAL /*(0)*/,4
PL6.E3A0      #001=GHI_INT_RECV_E File=GHI_INT_RECV_E.:E05TSI                    TUE 07/29/97 07:14 Page:10
             10519    1   RP BIT(2) /*('11'B)*/,4 WP BIT(2) /*('11'B)*/,4 EP BIT(2) /*('11'B)*/,
             10520    1   4 * BIT(1)/*('0'B)*/,4 SIZE UBIN(9)UNAL /*(0)*/ ,
             10538    1   3 BIGFOOT,
             10540    1   4 V BIT(1) /*('0'B)*/,4 BASE UBIN(15)UNAL /*(0)*/,4
             10541    1   RP BIT(2) /*('10'B)*/,4 WP BIT(2) /*('10'B)*/,4 EP BIT(2) /*('10'B)*/,
             10542    1   4 * BIT(1)/*('0'B)*/,4 SIZE UBIN(9)UNAL /*(0)*/ ,
             10574    1   2 ISA_HND,
             10576    1   3 ASV$ PTR /*(ADDR(G$HHJIT.ASDT_USR)*0)*/,3 * BIT(16)/*('0'B*0)*/,3 TSAP$ PTR /*
             10577    1   (ADDR(NIL)*0)*/ ,
             10596    1   3 DEV,
             10598    1   4 CHN UBIN(10)UNAL /*(0)*/,4 IL UBIN(6)UNAL /*(0)*/ ,
             10616    1   3 ISM1,
             10618    1   4 M1 BIT(1) /*('1'B)*/,4 R1 BIT(1) /*('1'B)*/,4 R2 BIT(1)
             10619    1   /*('1'B)*/,4 R3 BIT(1) /*('1'B)*/,4 R4 BIT(1) /*('1'B)*/,4
             10620    1   R5 BIT(1) /*('1'B)*/,4 R6 BIT(1) /*('1'B)*/,4 R7 BIT(1) /*('1'B)*/,
             10621    1   4 I BIT(1) /*('1'B)*/,4 B1 BIT(1) /*('1'B)*/,4 B2 BIT(1) /*
             10622    1   ('1'B)*/,4 B3 BIT(1) /*('1'B)*/,4 B4 BIT(1) /*('1'B)*/,4
             10623    1   B5 BIT(1) /*('1'B)*/,4 B6 BIT(1) /*('1'B)*/,4 B7 BIT(1) /*('1'B)*/ ,
             10641    1   3 ISM2,
             10643    1   4 MMU BIT(1) /*('1'B*0)*/,4 NATSAP_SEL UBIN(3)UNAL /*(0*0)*/,4
             10644    1   * BIT(2)/*('0'B*0)*/,4 SIP BIT(1) /*('0'B*0)*/,4 CIP BIT(1) /*('1'B*0)*/,
             10645    1   4 * BIT(6)/*('0'B*0)*/,4 T BIT(1) /*('1'B*0)*/,4 M2_M7 BIT(1) /*
             10646    1   ('1'B*0)*/ ,
             10649    1   3 P$$ EPTR /*(ENTADDR(NIL)*0)*/,3 P$ REDEF P$$ PTR,
             10670    1   3 S,
             10672    1   4 QLT BIT(1) /*('0'B*0)*/,4 RING BIT(2) /*('00'B*0)*/,4 * BIT(5)/*
             10673    1   ('0'B*0)*/,4 ID BIT(2) /*('00'B*0)*/,4 LEVEL UBIN(6)UNAL /*(0*0)*/ ,
             10691    1   3 REGS,
             10694    1   4 B7$ PTR /*(ADDR(NIL))*/,4 B6$ PTR /*(ADDR(NIL))*/,4
             10695    1   B5$ PTR /*(ADDR(NIL))*/,4 B4$ PTR /*(ADDR(NIL))*/,4 B3$ PTR /*(ADDR
             10696    1   (NIL))*/,4 B2$ PTR /*(ADDR(NIL))*/,4 B1$ PTR /*(ADDR(NIL))*/,
             10713    1   4 I,
             10715    1   5 TRAP# UBIN(8)UNAL /*(0)*/,5 OV BIT(1) /*('0'B)*/,5 * BIT(1)/*
             10716    1   ('0'B)*/,5 C BIT(1) /*('0'B)*/,5 B BIT(1) /*('0'B)*/,5
             10717    1   IO BIT(1) /*('0'B)*/,5 G BIT(1) /*('0'B)*/,5 L BIT(1) /*('0'B)*/,5
             10718    1   U BIT(1) /*('0'B)*/ ,
             10720    1   4 R7 UBIN WORD /*(0)*/,4 R6 UBIN WORD /*(0)*/,4 R5 UBIN WORD /*(0)*/,4 R4 UBIN WORD
PL6.E3A0      #001=GHI_INT_RECV_E File=GHI_INT_RECV_E.:E05TSI                    TUE 07/29/97 07:14 Page:11
             10721    1   /*(0)*/,4 R3 UBIN WORD /*(0)*/,4 R2 UBIN WORD /*(0)*/,4 R1 UBIN WORD /*(0)*/,
             10741    1   4 M1,
             10743    1   5 * BIT(8)/*('0'B)*/,5 J BIT(1) /*('0'B)*/,5 R1_OV BIT(1) /*('0'B
             10744    1   )*/,5 R2_OV BIT(1) /*('0'B)*/,5 R3_OV BIT(1) /*('0'B)*/,5
             10745    1   R4_OV BIT(1) /*('0'B)*/,5 R5_OV BIT(1) /*('0'B)*/,5
             10746    1   R6_OV BIT(1) /*('0'B)*/,5 R7_OV BIT(1) /*('0'B)*/ ,
             10748    1   4 M2 BIT(16)/*('0'B)*/,
             10765    1   4 M3,
             10767    1   5 * BIT(8)/*('0'B)*/,5 CIP_OV BIT(1) /*('0'B)*/,5 CIP_TR BIT(1) /*
             10768    1   ('0'B)*/,5 RFU BIT(6)/*('0'B)*/ ,
             10786    1   4 M4,
             10788    1   5 * BIT(8)/*('0'B)*/,5 RT BIT(1) /*('0'B)*/,5 * BIT(1)/*('0'B)*/,5
             10789    1   SA1_ML BIT(1) /*('0'B)*/,5 SA1_AL BIT(1) /*('0'B)*/,5
             10790    1   SA2_ML BIT(1) /*('0'B)*/,5 SA2_AL BIT(1) /*('0'B)*/,5 SA3_ML BIT(1)
             10791    1   /*('0'B)*/,5 SA3_AL BIT(1) /*('0'B)*/ ,
             10809    1   4 M5,
             10811    1   5 * BIT(8)/*('0'B)*/,5 EUM BIT(1) /*('0'B)*/,5 * BIT(1)/*('0'B)*/,5
             10812    1   SEM BIT(1) /*('0'B)*/,5 PEM BIT(1) /*('0'B)*/,5 RFU BIT(4)/*('0'B)*/ ,
             10814    1   4 M6 BIT(16)/*('0'B)*/,4 M7 BIT(16)/*('0'B)*/,4 T$ PTR /*(ADDR(NIL))*/,
             10831    1   4 CI,
             10833    1   5 * BIT(8)/*('0'B)*/,5 OV BIT(1) /*('0'B)*/,5 TR BIT(1) /*('0'B)*/,
             10834    1   5 SF BIT(1) /*('0'B)*/,5 * BIT(2)/*('0'B)*/,5 G BIT(1) /*('0'B)*/,
             10835    1   5 L BIT(1) /*('0'B)*/,5 QLT BIT(1) /*('0'B)*/ ,
             10840    1   4 RDBR$ PTR /*(ADDR(NIL))*/,
             10857    1   4 SI,
             10859    1   5 * BIT(8)/*('0'B)*/,5 EUF BIT(1) /*('0'B)*/,5 * BIT(1)/*('0'B)*/,5
             10860    1   SE BIT(1) /*('0'B)*/,5 PE BIT(1) /*('0'B)*/,5 * BIT(1)/*('0'B)*/,5
             10861    1   G BIT(1) /*('0'B)*/,5 L BIT(1) /*('0'B)*/,5 * BIT(1)/*('0'B)*/ ,
             10863    1   4 SA1(0:3)BIT(16)/*('0'B*4)*/,4 SA2(0:3)BIT(16)/*('0'B*4)*/,4 SA3(0:3)BIT(16)/*('0'B
             10863            *4)*/
             10864    1   ,
             10869    1   2 DMN REDEF ISA_HND,3 * PTR,3 ID UBIN,3 *(0:54)UBIN,
             10899    1   2 TSA_HND,
             10902    1   3 TSAL$ PTR /*(ADDR(NIL))*/,
             10919    1   3 I,
             10921    1   4 TRAP# UBIN(8)UNAL /*(0)*/,4 OV BIT(1) /*('0'B)*/,4 * BIT(1)/*
             10922    1   ('0'B)*/,4 C BIT(1) /*('0'B)*/,4 B BIT(1) /*('0'B)*/,4
PL6.E3A0      #001=GHI_INT_RECV_E File=GHI_INT_RECV_E.:E05TSI                    TUE 07/29/97 07:14 Page:12
             10923    1   IO BIT(1) /*('0'B)*/,4 G BIT(1) /*('0'B)*/,4 L BIT(1) /*('0'B)*/,4
             10924    1   U BIT(1) /*('0'B)*/ ,
             10926    1   3 R3 UBIN WORD /*(0)*/,3 INST,4 H1 BIT(4)/*('0'B)*/,4 OP_CODE BIT(5)/*('0'B)*/,
             10927    1   4 * BIT(7)/*('0'B)*/,3 Z,4 REG BIT(1)/*('0'B)*/,4 * BIT(3)/*('0'B)*/,4 BI
             10928    1   BIT(4)/*('0'B)*/,4 R BIT(2)/*('0'B)*/,4 * BIT(2)/*('0'B)*/,4 IS UBIN(4)UNAL
             10929    1   /*(0)*/,3 A$ PTR /*(ADDR(NIL))*/,3 P$$ EPTR /*(ENTADDR(NIL))*/,3 P$ REDEF P$$ PTR,
             10930    1   3 P REDEF P$$ SBIN(32),3 B3$ PTR /*(ADDR(NIL))*/ ,
             10949    1   3 S,
             10951    1   4 QLT BIT(1) /*('0'B*0)*/,4 RING BIT(2) /*('00'B*0)*/,4 * BIT(5)/*
             10952    1   ('0'B*0)*/,4 ID BIT(2) /*('00'B*0)*/,4 LEVEL UBIN(6)UNAL /*(0*0)*/ ,
             10983    1   3 ISA,
             10985    1   4 ASV$ PTR /*(ADDR(NIL)*0)*/,4 * BIT(16)/*('0'B*0)*/,4 TSAP$ PTR /*
             10986    1   (ADDR(NIL)*0)*/ ,
             11005    1   4 DEV,
             11007    1   5 CHN UBIN(10)UNAL /*(0)*/,5 IL UBIN(6)UNAL /*(0)*/ ,
             11025    1   4 ISM1,
             11027    1   5 M1 BIT(1) /*('1'B)*/,5 R1 BIT(1) /*('1'B)*/,5 R2 BIT(1)
             11028    1   /*('1'B)*/,5 R3 BIT(1) /*('1'B)*/,5 R4 BIT(1) /*('1'B)*/,5
             11029    1   R5 BIT(1) /*('1'B)*/,5 R6 BIT(1) /*('1'B)*/,5 R7 BIT(1) /*('1'B)*/,
             11030    1   5 I BIT(1) /*('1'B)*/,5 B1 BIT(1) /*('1'B)*/,5 B2 BIT(1) /*
             11031    1   ('1'B)*/,5 B3 BIT(1) /*('1'B)*/,5 B4 BIT(1) /*('1'B)*/,5
             11032    1   B5 BIT(1) /*('1'B)*/,5 B6 BIT(1) /*('1'B)*/,5 B7 BIT(1) /*('1'B)*/ ,
             11050    1   4 ISM2,
             11052    1   5 MMU BIT(1) /*('1'B*0)*/,5 NATSAP_SEL UBIN(3)UNAL /*(0*0)*/,5
             11053    1   * BIT(2)/*('0'B*0)*/,5 SIP BIT(1) /*('0'B*0)*/,5 CIP BIT(1) /*('1'B*0)*/,
             11054    1   5 * BIT(6)/*('0'B*0)*/,5 T BIT(1) /*('1'B*0)*/,5 M2_M7 BIT(1) /*
             11055    1   ('1'B*0)*/ ,
             11058    1   4 P$$ EPTR /*(ENTADDR(NIL)*0)*/,4 P$ REDEF P$$ PTR,
             11079    1   4 S,
             11081    1   5 QLT BIT(1) /*('0'B*0)*/,5 RING BIT(2) /*('00'B*0)*/,5 * BIT(5)/*
             11082    1   ('0'B*0)*/,5 ID BIT(2) /*('00'B*0)*/,5 LEVEL UBIN(6)UNAL /*(0*0)*/ ,
             11100    1   4 REGS,
             11103    1   5 B7$ PTR /*(ADDR(NIL))*/,5 B6$ PTR /*(ADDR(NIL))*/,5
             11104    1   B5$ PTR /*(ADDR(NIL))*/,5 B4$ PTR /*(ADDR(NIL))*/,5 B3$ PTR /*(ADDR
             11105    1   (NIL))*/,5 B2$ PTR /*(ADDR(NIL))*/,5 B1$ PTR /*(ADDR(NIL))*/,
             11122    1   5 I,
             11124    1   6 TRAP# UBIN(8)UNAL /*(0)*/,6 OV BIT(1) /*('0'B)*/,6 * BIT(1)/*
PL6.E3A0      #001=GHI_INT_RECV_E File=GHI_INT_RECV_E.:E05TSI                    TUE 07/29/97 07:14 Page:13
             11125    1   ('0'B)*/,6 C BIT(1) /*('0'B)*/,6 B BIT(1) /*('0'B)*/,6
             11126    1   IO BIT(1) /*('0'B)*/,6 G BIT(1) /*('0'B)*/,6 L BIT(1) /*('0'B)*/,6
             11127    1   U BIT(1) /*('0'B)*/ ,
             11129    1   5 R7 UBIN WORD /*(0)*/,5 R6 UBIN WORD /*(0)*/,5 R5 UBIN WORD /*(0)*/,5 R4 UBIN WORD
             11130    1   /*(0)*/,5 R3 UBIN WORD /*(0)*/,5 R2 UBIN WORD /*(0)*/,5 R1 UBIN WORD /*(0)*/,
             11150    1   5 M1,
             11152    1   6 * BIT(8)/*('0'B)*/,6 J BIT(1) /*('0'B)*/,6 R1_OV BIT(1) /*('0'B
             11153    1   )*/,6 R2_OV BIT(1) /*('0'B)*/,6 R3_OV BIT(1) /*('0'B)*/,6
             11154    1   R4_OV BIT(1) /*('0'B)*/,6 R5_OV BIT(1) /*('0'B)*/,6
             11155    1   R6_OV BIT(1) /*('0'B)*/,6 R7_OV BIT(1) /*('0'B)*/ ,
             11157    1   5 M2 BIT(16)/*('0'B)*/,
             11174    1   5 M3,
             11176    1   6 * BIT(8)/*('0'B)*/,6 CIP_OV BIT(1) /*('0'B)*/,6 CIP_TR BIT(1) /*
             11177    1   ('0'B)*/,6 RFU BIT(6)/*('0'B)*/ ,
             11195    1   5 M4,
             11197    1   6 * BIT(8)/*('0'B)*/,6 RT BIT(1) /*('0'B)*/,6 * BIT(1)/*('0'B)*/,6
             11198    1   SA1_ML BIT(1) /*('0'B)*/,6 SA1_AL BIT(1) /*('0'B)*/,6
             11199    1   SA2_ML BIT(1) /*('0'B)*/,6 SA2_AL BIT(1) /*('0'B)*/,6 SA3_ML BIT(1)
             11200    1   /*('0'B)*/,6 SA3_AL BIT(1) /*('0'B)*/ ,
             11218    1   5 M5,
             11220    1   6 * BIT(8)/*('0'B)*/,6 EUM BIT(1) /*('0'B)*/,6 * BIT(1)/*('0'B)*/,6
             11221    1   SEM BIT(1) /*('0'B)*/,6 PEM BIT(1) /*('0'B)*/,6 RFU BIT(4)/*('0'B)*/ ,
             11223    1   5 M6 BIT(16)/*('0'B)*/,5 M7 BIT(16)/*('0'B)*/,5 T$ PTR /*(ADDR(NIL))*/,
             11240    1   5 CI,
             11242    1   6 * BIT(8)/*('0'B)*/,6 OV BIT(1) /*('0'B)*/,6 TR BIT(1) /*('0'B)*/,
             11243    1   6 SF BIT(1) /*('0'B)*/,6 * BIT(2)/*('0'B)*/,6 G BIT(1) /*('0'B)*/,
             11244    1   6 L BIT(1) /*('0'B)*/,6 QLT BIT(1) /*('0'B)*/ ,
             11249    1   5 RDBR$ PTR /*(ADDR(NIL))*/,
             11266    1   5 SI,
             11268    1   6 * BIT(8)/*('0'B)*/,6 EUF BIT(1) /*('0'B)*/,6 * BIT(1)/*('0'B)*/,6
             11269    1   SE BIT(1) /*('0'B)*/,6 PE BIT(1) /*('0'B)*/,6 * BIT(1)/*('0'B)*/,6
             11270    1   G BIT(1) /*('0'B)*/,6 L BIT(1) /*('0'B)*/,6 * BIT(1)/*('0'B)*/ ,
             11272    1   5 SA1(0:3)BIT(16)/*('0'B*4)*/,5 SA2(0:3)BIT(16)/*('0'B*4)*/,5 SA3(0:3)BIT(16)/*('0'B
             11272            *4)*/
             11273    1   ,
             11279    1   2 NATSAP$ PTR /*(ADDR(NIL))*/,2 HJITPAGE UBIN /*(0)*/ ;
       22    11281        %G$TSA;
PL6.E3A0      #001=GHI_INT_RECV_E File=GHI_INT_RECV_E.:E05TSI                    TUE 07/29/97 07:14 Page:14
             11282        %LSET LISTDIR='0'B;
             11308    1   DCL 1 G$TSA BASED WALIGNED,
             11313    1   2 TSAL$ PTR /*(ADDR(NIL))*/,
             11330    1   2 I,
             11332    1   3 TRAP# UBIN(8)UNAL /*(0)*/,3 OV BIT(1) /*('0'B)*/,3 * BIT(1)/*
             11333    1   ('0'B)*/,3 C BIT(1) /*('0'B)*/,3 B BIT(1) /*('0'B)*/,3
             11334    1   IO BIT(1) /*('0'B)*/,3 G BIT(1) /*('0'B)*/,3 L BIT(1) /*('0'B)*/,3
             11335    1   U BIT(1) /*('0'B)*/ ,
             11337    1   2 R3 UBIN WORD /*(0)*/,2 INST,3 H1 BIT(4)/*('0'B)*/,3 OP_CODE BIT(5)/*('0'B)*/,
             11338    1   3 * BIT(7)/*('0'B)*/,2 Z,3 REG BIT(1)/*('0'B)*/,3 * BIT(3)/*('0'B)*/,3 BI
             11339    1   BIT(4)/*('0'B)*/,3 R BIT(2)/*('0'B)*/,3 * BIT(2)/*('0'B)*/,3 IS UBIN(4)UNAL
             11340    1   /*(0)*/,2 A$ PTR /*(ADDR(NIL))*/,2 P$$ EPTR /*(ENTADDR(NIL))*/,2 P$ REDEF P$$ PTR,
             11341    1   2 P REDEF P$$ SBIN(32),2 B3$ PTR /*(ADDR(NIL))*/ ,
             11360    1   2 S,
             11362    1   3 QLT BIT(1) /*('0'B*0)*/,3 RING BIT(2) /*('00'B*0)*/,3 * BIT(5)/*
             11363    1   ('0'B*0)*/,3 ID BIT(2) /*('00'B*0)*/,3 LEVEL UBIN(6)UNAL /*(0*0)*/ ,
             11394    1   2 ISA,
             11396    1   3 ASV$ PTR /*(ADDR(NIL)*0)*/,3 * BIT(16)/*('0'B*0)*/,3 TSAP$ PTR /*
             11397    1   (ADDR(NIL)*0)*/ ,
             11416    1   3 DEV,
             11418    1   4 CHN UBIN(10)UNAL /*(0)*/,4 IL UBIN(6)UNAL /*(0)*/ ,
             11436    1   3 ISM1,
             11438    1   4 M1 BIT(1) /*('1'B)*/,4 R1 BIT(1) /*('1'B)*/,4 R2 BIT(1)
             11439    1   /*('1'B)*/,4 R3 BIT(1) /*('1'B)*/,4 R4 BIT(1) /*('1'B)*/,4
             11440    1   R5 BIT(1) /*('1'B)*/,4 R6 BIT(1) /*('1'B)*/,4 R7 BIT(1) /*('1'B)*/,
             11441    1   4 I BIT(1) /*('1'B)*/,4 B1 BIT(1) /*('1'B)*/,4 B2 BIT(1) /*
             11442    1   ('1'B)*/,4 B3 BIT(1) /*('1'B)*/,4 B4 BIT(1) /*('1'B)*/,4
             11443    1   B5 BIT(1) /*('1'B)*/,4 B6 BIT(1) /*('1'B)*/,4 B7 BIT(1) /*('1'B)*/ ,
             11461    1   3 ISM2,
             11463    1   4 MMU BIT(1) /*('1'B*0)*/,4 NATSAP_SEL UBIN(3)UNAL /*(0*0)*/,4
             11464    1   * BIT(2)/*('0'B*0)*/,4 SIP BIT(1) /*('0'B*0)*/,4 CIP BIT(1) /*('1'B*0)*/,
             11465    1   4 * BIT(6)/*('0'B*0)*/,4 T BIT(1) /*('1'B*0)*/,4 M2_M7 BIT(1) /*
             11466    1   ('1'B*0)*/ ,
             11469    1   3 P$$ EPTR /*(ENTADDR(NIL)*0)*/,3 P$ REDEF P$$ PTR,
             11490    1   3 S,
             11492    1   4 QLT BIT(1) /*('0'B*0)*/,4 RING BIT(2) /*('00'B*0)*/,4 * BIT(5)/*
             11493    1   ('0'B*0)*/,4 ID BIT(2) /*('00'B*0)*/,4 LEVEL UBIN(6)UNAL /*(0*0)*/ ,
PL6.E3A0      #001=GHI_INT_RECV_E File=GHI_INT_RECV_E.:E05TSI                    TUE 07/29/97 07:14 Page:15
             11511    1   3 REGS,
             11514    1   4 B7$ PTR /*(ADDR(NIL))*/,4 B6$ PTR /*(ADDR(NIL))*/,4
             11515    1   B5$ PTR /*(ADDR(NIL))*/,4 B4$ PTR /*(ADDR(NIL))*/,4 B3$ PTR /*(ADDR
             11516    1   (NIL))*/,4 B2$ PTR /*(ADDR(NIL))*/,4 B1$ PTR /*(ADDR(NIL))*/,
             11533    1   4 I,
             11535    1   5 TRAP# UBIN(8)UNAL /*(0)*/,5 OV BIT(1) /*('0'B)*/,5 * BIT(1)/*
             11536    1   ('0'B)*/,5 C BIT(1) /*('0'B)*/,5 B BIT(1) /*('0'B)*/,5
             11537    1   IO BIT(1) /*('0'B)*/,5 G BIT(1) /*('0'B)*/,5 L BIT(1) /*('0'B)*/,5
             11538    1   U BIT(1) /*('0'B)*/ ,
             11540    1   4 R7 UBIN WORD /*(0)*/,4 R6 UBIN WORD /*(0)*/,4 R5 UBIN WORD /*(0)*/,4 R4 UBIN WORD
             11541    1   /*(0)*/,4 R3 UBIN WORD /*(0)*/,4 R2 UBIN WORD /*(0)*/,4 R1 UBIN WORD /*(0)*/,
             11561    1   4 M1,
             11563    1   5 * BIT(8)/*('0'B)*/,5 J BIT(1) /*('0'B)*/,5 R1_OV BIT(1) /*('0'B
             11564    1   )*/,5 R2_OV BIT(1) /*('0'B)*/,5 R3_OV BIT(1) /*('0'B)*/,5
             11565    1   R4_OV BIT(1) /*('0'B)*/,5 R5_OV BIT(1) /*('0'B)*/,5
             11566    1   R6_OV BIT(1) /*('0'B)*/,5 R7_OV BIT(1) /*('0'B)*/ ,
             11568    1   4 M2 BIT(16)/*('0'B)*/,
             11585    1   4 M3,
             11587    1   5 * BIT(8)/*('0'B)*/,5 CIP_OV BIT(1) /*('0'B)*/,5 CIP_TR BIT(1) /*
             11588    1   ('0'B)*/,5 RFU BIT(6)/*('0'B)*/ ,
             11606    1   4 M4,
             11608    1   5 * BIT(8)/*('0'B)*/,5 RT BIT(1) /*('0'B)*/,5 * BIT(1)/*('0'B)*/,5
             11609    1   SA1_ML BIT(1) /*('0'B)*/,5 SA1_AL BIT(1) /*('0'B)*/,5
             11610    1   SA2_ML BIT(1) /*('0'B)*/,5 SA2_AL BIT(1) /*('0'B)*/,5 SA3_ML BIT(1)
             11611    1   /*('0'B)*/,5 SA3_AL BIT(1) /*('0'B)*/ ,
             11629    1   4 M5,
             11631    1   5 * BIT(8)/*('0'B)*/,5 EUM BIT(1) /*('0'B)*/,5 * BIT(1)/*('0'B)*/,5
             11632    1   SEM BIT(1) /*('0'B)*/,5 PEM BIT(1) /*('0'B)*/,5 RFU BIT(4)/*('0'B)*/ ,
             11634    1   4 M6 BIT(16)/*('0'B)*/,4 M7 BIT(16)/*('0'B)*/,4 T$ PTR /*(ADDR(NIL))*/,
             11651    1   4 CI,
             11653    1   5 * BIT(8)/*('0'B)*/,5 OV BIT(1) /*('0'B)*/,5 TR BIT(1) /*('0'B)*/,
             11654    1   5 SF BIT(1) /*('0'B)*/,5 * BIT(2)/*('0'B)*/,5 G BIT(1) /*('0'B)*/,
             11655    1   5 L BIT(1) /*('0'B)*/,5 QLT BIT(1) /*('0'B)*/ ,
             11658    1   4 RDBR$ PTR /*(ADDR(NIL))*/ ;
       23    11669        %G$ISA;
             11670        %LSET LISTDIR='0'B;
             11696    1   DCL 1 G$ISA BASED WALIGNED,
PL6.E3A0      #001=GHI_INT_RECV_E File=GHI_INT_RECV_E.:E05TSI                    TUE 07/29/97 07:14 Page:16
             11700    1   2 ASV$ PTR /*(ADDR(NIL)*0)*/,2 * BIT(16)/*('0'B*0)*/,2 TSAP$ PTR /*
             11701    1   (ADDR(NIL)*0)*/ ,
             11720    1   2 DEV,
             11722    1   3 CHN UBIN(10)UNAL /*(0)*/,3 IL UBIN(6)UNAL /*(0)*/ ,
             11740    1   2 ISM1,
             11742    1   3 M1 BIT(1) /*('1'B)*/,3 R1 BIT(1) /*('1'B)*/,3 R2 BIT(1)
             11743    1   /*('1'B)*/,3 R3 BIT(1) /*('1'B)*/,3 R4 BIT(1) /*('1'B)*/,3
             11744    1   R5 BIT(1) /*('1'B)*/,3 R6 BIT(1) /*('1'B)*/,3 R7 BIT(1) /*('1'B)*/,
             11745    1   3 I BIT(1) /*('1'B)*/,3 B1 BIT(1) /*('1'B)*/,3 B2 BIT(1) /*
             11746    1   ('1'B)*/,3 B3 BIT(1) /*('1'B)*/,3 B4 BIT(1) /*('1'B)*/,3
             11747    1   B5 BIT(1) /*('1'B)*/,3 B6 BIT(1) /*('1'B)*/,3 B7 BIT(1) /*('1'B)*/ ,
             11765    1   2 ISM2,
             11767    1   3 MMU BIT(1) /*('1'B*0)*/,3 NATSAP_SEL UBIN(3)UNAL /*(0*0)*/,3
             11768    1   * BIT(2)/*('0'B*0)*/,3 SIP BIT(1) /*('0'B*0)*/,3 CIP BIT(1) /*('1'B*0)*/,
             11769    1   3 * BIT(6)/*('0'B*0)*/,3 T BIT(1) /*('1'B*0)*/,3 M2_M7 BIT(1) /*
             11770    1   ('1'B*0)*/ ,
             11773    1   2 P$$ EPTR /*(ENTADDR(NIL)*0)*/,2 P$ REDEF P$$ PTR,
             11794    1   2 S,
             11796    1   3 QLT BIT(1) /*('0'B*0)*/,3 RING BIT(2) /*('00'B*0)*/,3 * BIT(5)/*
             11797    1   ('0'B*0)*/,3 ID BIT(2) /*('00'B*0)*/,3 LEVEL UBIN(6)UNAL /*(0*0)*/ ,
             11815    1   2 REGS,
             11818    1   3 B7$ PTR /*(ADDR(NIL))*/,3 B6$ PTR /*(ADDR(NIL))*/,3
             11819    1   B5$ PTR /*(ADDR(NIL))*/,3 B4$ PTR /*(ADDR(NIL))*/,3 B3$ PTR /*(ADDR
             11820    1   (NIL))*/,3 B2$ PTR /*(ADDR(NIL))*/,3 B1$ PTR /*(ADDR(NIL))*/,
             11837    1   3 I,
             11839    1   4 TRAP# UBIN(8)UNAL /*(0)*/,4 OV BIT(1) /*('0'B)*/,4 * BIT(1)/*
             11840    1   ('0'B)*/,4 C BIT(1) /*('0'B)*/,4 B BIT(1) /*('0'B)*/,4
             11841    1   IO BIT(1) /*('0'B)*/,4 G BIT(1) /*('0'B)*/,4 L BIT(1) /*('0'B)*/,4
             11842    1   U BIT(1) /*('0'B)*/ ,
             11844    1   3 R7 UBIN WORD /*(0)*/,3 R6 UBIN WORD /*(0)*/,3 R5 UBIN WORD /*(0)*/,3 R4 UBIN WORD
             11845    1   /*(0)*/,3 R3 UBIN WORD /*(0)*/,3 R2 UBIN WORD /*(0)*/,3 R1 UBIN WORD /*(0)*/,
             11865    1   3 M1,
             11867    1   4 * BIT(8)/*('0'B)*/,4 J BIT(1) /*('0'B)*/,4 R1_OV BIT(1) /*('0'B
             11868    1   )*/,4 R2_OV BIT(1) /*('0'B)*/,4 R3_OV BIT(1) /*('0'B)*/,4
             11869    1   R4_OV BIT(1) /*('0'B)*/,4 R5_OV BIT(1) /*('0'B)*/,4
             11870    1   R6_OV BIT(1) /*('0'B)*/,4 R7_OV BIT(1) /*('0'B)*/ ,
             11872    1   3 M2 BIT(16)/*('0'B)*/,
PL6.E3A0      #001=GHI_INT_RECV_E File=GHI_INT_RECV_E.:E05TSI                    TUE 07/29/97 07:14 Page:17
             11889    1   3 M3,
             11891    1   4 * BIT(8)/*('0'B)*/,4 CIP_OV BIT(1) /*('0'B)*/,4 CIP_TR BIT(1) /*
             11892    1   ('0'B)*/,4 RFU BIT(6)/*('0'B)*/ ,
             11910    1   3 M4,
             11912    1   4 * BIT(8)/*('0'B)*/,4 RT BIT(1) /*('0'B)*/,4 * BIT(1)/*('0'B)*/,4
             11913    1   SA1_ML BIT(1) /*('0'B)*/,4 SA1_AL BIT(1) /*('0'B)*/,4
             11914    1   SA2_ML BIT(1) /*('0'B)*/,4 SA2_AL BIT(1) /*('0'B)*/,4 SA3_ML BIT(1)
             11915    1   /*('0'B)*/,4 SA3_AL BIT(1) /*('0'B)*/ ,
             11933    1   3 M5,
             11935    1   4 * BIT(8)/*('0'B)*/,4 EUM BIT(1) /*('0'B)*/,4 * BIT(1)/*('0'B)*/,4
             11936    1   SEM BIT(1) /*('0'B)*/,4 PEM BIT(1) /*('0'B)*/,4 RFU BIT(4)/*('0'B)*/ ,
             11938    1   3 M6 BIT(16)/*('0'B)*/,3 M7 BIT(16)/*('0'B)*/,3 T$ PTR /*(ADDR(NIL))*/,
             11955    1   3 CI,
             11957    1   4 * BIT(8)/*('0'B)*/,4 OV BIT(1) /*('0'B)*/,4 TR BIT(1) /*('0'B)*/,
             11958    1   4 SF BIT(1) /*('0'B)*/,4 * BIT(2)/*('0'B)*/,4 G BIT(1) /*('0'B)*/,
             11959    1   4 L BIT(1) /*('0'B)*/,4 QLT BIT(1) /*('0'B)*/ ,
             11962    1   3 RDBR$ PTR /*(ADDR(NIL))*/ ;
       24    11972        %VLP_REGISTERS(FPTN=G$REGS,STCLASS=BASED);
             11973        %LSET LISTDIR='0'B;
             11986    1   DCL 1 G$REGS BASED WALIGNED,
             11991    1   2 B7$ PTR /*(ADDR(NIL))*/,2 B6$ PTR /*(ADDR(NIL))*/,2
             11992    1   B5$ PTR /*(ADDR(NIL))*/,2 B4$ PTR /*(ADDR(NIL))*/,2 B3$ PTR /*(ADDR
             11993    1   (NIL))*/,2 B2$ PTR /*(ADDR(NIL))*/,2 B1$ PTR /*(ADDR(NIL))*/,
             12010    1   2 I,
             12012    1   3 TRAP# UBIN(8)UNAL /*(0)*/,3 OV BIT(1) /*('0'B)*/,3 * BIT(1)/*
             12013    1   ('0'B)*/,3 C BIT(1) /*('0'B)*/,3 B BIT(1) /*('0'B)*/,3
             12014    1   IO BIT(1) /*('0'B)*/,3 G BIT(1) /*('0'B)*/,3 L BIT(1) /*('0'B)*/,3
             12015    1   U BIT(1) /*('0'B)*/ ,
             12017    1   2 R7 UBIN WORD /*(0)*/,2 R6 UBIN WORD /*(0)*/,2 R5 UBIN WORD /*(0)*/,2 R4 UBIN WORD
             12018    1   /*(0)*/,2 R3 UBIN WORD /*(0)*/,2 R2 UBIN WORD /*(0)*/,2 R1 UBIN WORD /*(0)*/,
             12038    1   2 M1,
             12040    1   3 * BIT(8)/*('0'B)*/,3 J BIT(1) /*('0'B)*/,3 R1_OV BIT(1) /*('0'B
             12041    1   )*/,3 R2_OV BIT(1) /*('0'B)*/,3 R3_OV BIT(1) /*('0'B)*/,3
             12042    1   R4_OV BIT(1) /*('0'B)*/,3 R5_OV BIT(1) /*('0'B)*/,3
             12043    1   R6_OV BIT(1) /*('0'B)*/,3 R7_OV BIT(1) /*('0'B)*/ ,
             12045    1   2 M2 BIT(16)/*('0'B)*/,
             12062    1   2 M3,
PL6.E3A0      #001=GHI_INT_RECV_E File=GHI_INT_RECV_E.:E05TSI                    TUE 07/29/97 07:14 Page:18
             12064    1   3 * BIT(8)/*('0'B)*/,3 CIP_OV BIT(1) /*('0'B)*/,3 CIP_TR BIT(1) /*
             12065    1   ('0'B)*/,3 RFU BIT(6)/*('0'B)*/ ,
             12083    1   2 M4,
             12085    1   3 * BIT(8)/*('0'B)*/,3 RT BIT(1) /*('0'B)*/,3 * BIT(1)/*('0'B)*/,3
             12086    1   SA1_ML BIT(1) /*('0'B)*/,3 SA1_AL BIT(1) /*('0'B)*/,3
             12087    1   SA2_ML BIT(1) /*('0'B)*/,3 SA2_AL BIT(1) /*('0'B)*/,3 SA3_ML BIT(1)
             12088    1   /*('0'B)*/,3 SA3_AL BIT(1) /*('0'B)*/ ,
             12106    1   2 M5,
             12108    1   3 * BIT(8)/*('0'B)*/,3 EUM BIT(1) /*('0'B)*/,3 * BIT(1)/*('0'B)*/,3
             12109    1   SEM BIT(1) /*('0'B)*/,3 PEM BIT(1) /*('0'B)*/,3 RFU BIT(4)/*('0'B)*/ ,
             12111    1   2 M6 BIT(16)/*('0'B)*/,2 M7 BIT(16)/*('0'B)*/,2 T$ PTR /*(ADDR(NIL))*/,
             12128    1   2 CI,
             12130    1   3 * BIT(8)/*('0'B)*/,3 OV BIT(1) /*('0'B)*/,3 TR BIT(1) /*('0'B)*/,
             12131    1   3 SF BIT(1) /*('0'B)*/,3 * BIT(2)/*('0'B)*/,3 G BIT(1) /*('0'B)*/,
             12132    1   3 L BIT(1) /*('0'B)*/,3 QLT BIT(1) /*('0'B)*/ ,
             12135    1   2 RDBR$ PTR /*(ADDR(NIL))*/ ;
       25    12144    1   END;

PL6.E3A0      #001=GHI_INT_RECV_E File=GHI_INT_RECV_E.:E05TSI                    TUE 07/29/97 07:14 Page:19
--  Include file information  --

   GM_VIRTUAL_E.:E05TOU  is referenced.
   G_JIT_M.:E05TOU  is referenced.
   G_ROS_M.:E05TOU  is referenced.
   G_HJIT_M.:E05TOU  is referenced.
   G_LCP6_E.:E05TOU  was found in the system file and is never referenced.
   GT_LCP6_M.:E05TOU  was found in the system file and is never referenced.
   KI_CP6.:E05TOU  was found in the system file and is never referenced.
   GF_LCP6_M.:E05TOU  was found in the system file and is referenced.
   GM_LCP6_M.:E05TOU  was found in the system file and is never referenced.
   GU_LCP6_M.:E05TOU  was found in the system file and is referenced.
   GJ_LCP6_M.:E05TOU  was found in the system file and is never referenced.
   GH_LCP6_M.:E05TOU  was found in the system file and is referenced.
      No diagnostics issued in procedure GHI_INT_RECV_E.

   No code generated for procedure GHI_INT_RECV_E .
   Procedure GHI_INT_RECV_E requires 4850 words of local(AUTO) storage.

    No errors detected in file GHI_INT_RECV_E.:E05TSI    .


07:16 JUL 29 '97 GHI_INT_RECV_E.:E05TOU                                    1
    1      G_ROS#                EQU     0
    2      G_ROS_DCBPTR$#        EQU  4096
    3      G_ROS_JIT$#           EQU  4098
    4      G_ROS_TCB#            EQU  4100
    5      G_ROS_TCB_ALT$#       EQU  4100
    6      G_ROS_TCB_STK$#       EQU  4102
    7      G_ROS_TCB_AVSZ#       EQU  4104
    8      G_ROS_TCB_CURRSZ#     EQU  4105
    9      G_ROS_AVAIL$#         EQU  4106
   10      G_ROS_U_ECCB$#        EQU  4108
   11      G_ROS_DB_ECCB$#       EQU  4110
   12      G_ROS_CP_ECCB$#       EQU  4112
   13      G_ROS_PIA$#           EQU  4114
   14      G_ROS_NUMDCBS#        EQU  4116
   15      G_ROS_AUTO_DS$#       EQU  4118
   16      G_ROS_AUTO_DS#        EQU  4118
   17      G_ROS_AUTO_T$#        EQU  4120
   18      G_ROS_AUTO_T#         EQU  4120
   19      G_ROS_PIA#            EQU  4122
   20      G_ROS_JIT#            EQU  4154
   21      G_ROS_JIT_ACCTLOG#    EQU  4154
   22      G_ROS_JIT_CODE#       EQU  4156
   23      G_ROS_JIT_TYPE#       EQU  4156
   24      G_ROS_JIT_PROG_ENTRY# EQU  4157
   25      G_ROS_JIT_MODE#       EQU  4158
   26      G_ROS_JIT_USR##       EQU  4158
   27      G_ROS_JIT_SYSID#      EQU  4159
   28      G_ROS_JIT_ACCN#       EQU  4160
   29      G_ROS_JIT_UNAME#      EQU  4164
   30      G_ROS_JIT_PROCNAME#   EQU  4170
   31      G_ROS_JIT_START#      EQU  4186
   32      G_ROS_JIT_STOP#       EQU  4188
   33      G_ROS_JIT_USER_EXTIME# EQU  4190
   34      G_ROS_JIT_TUEXT#      EQU  4190
   35      G_ROS_JIT_USER_SVTIME# EQU  4192
   36      G_ROS_JIT_TUSVT#      EQU  4192
   37      G_ROS_JIT_USER_MEMTIME# EQU  4194
07:16 JUL 29 '97 GHI_INT_RECV_E.:E05TOU                                    2
   38      G_ROS_JIT_UMEMTIM#    EQU  4194
   39      G_ROS_JIT_PROC_EXTIME# EQU  4196
   40      G_ROS_JIT_PROC_SVTIME# EQU  4198
   41      G_ROS_JIT_PROC_MEMTIME# EQU  4200
   42      G_ROS_JIT_PEAK_SUDO#  EQU  4202
   43      G_ROS_JIT_PEAK_MEM#   EQU  4206
   44      G_ROS_JIT_PEAK_LVLS#  EQU  4207
   45      G_ROS_JIT_MCLS#       EQU  4208
   46      G_ROS_JIT_CALCNT#     EQU  4208
   47      G_ROS_JIT_FEP##       EQU  4209
   48      G_ROS_JIT_JSUNIT#     EQU  4210
   49      G_ROS_JIT_STEPUNIT#   EQU  4210
   50      G_ROS_JIT_ERR#        EQU  4214
   51      G_ROS_JIT_FRS#        EQU  4216
   52      G_ROS_JIT_STEPCC#     EQU  4217
   53      G_ROS_JIT_XLIMFLG#    EQU  4217
   54      G_ROS_JIT_READS_HOST# EQU  4218
   55      G_ROS_JIT_WRITES_HOST# EQU  4220
   56      G_ROS_JIT_READS_UC#   EQU  4222
   57      G_ROS_JIT_WRITES_UC#  EQU  4224
   58      G_ROS_JIT_INST_ACC#   EQU  4226
   59      G_ROS_JIT_BILL#       EQU  4241
   60      G_ROS_JIT_STEP#       EQU  4244
   61      G_ROS_JIT_LAST_ACC#   EQU  4245
   62      G_ROS_JIT_FIRST_SEG#  EQU  4254
   63      G_ROS_JIT_FD_P$#      EQU  4256
   64      G_ROS_JIT_JSTART#     EQU  4258
   65      G_ROS_JIT_XTIME#      EQU  4260
   66      G_ROS_JIT_STIME#      EQU  4262
   67      G_ROS_JIT_IDELTAT#    EQU  4264
   68      G_ROS_JIT_MRT#        EQU  4266
   69      G_ROS_JIT_SCHTIME#    EQU  4268
   70      G_ROS_JIT_CLUKRLVL#   EQU  4270
   71      G_ROS_JIT_CLUKXLVL#   EQU  4270
   72      G_ROS_JIT_CLUKRINT#   EQU  4271
   73      G_ROS_JIT_CLUKXINT#   EQU  4273
   74      G_ROS_JIT_DLL#        EQU  4275
07:16 JUL 29 '97 GHI_INT_RECV_E.:E05TOU                                    3
   75      G_ROS_JIT_DUL#        EQU  4276
   76      G_ROS_JIT_PLL#        EQU  4277
   77      G_ROS_JIT_PUL#        EQU  4278
   78      G_ROS_JIT_LLL#        EQU  4279
   79      G_ROS_JIT_LUL#        EQU  4280
   80      G_ROS_JIT_DB_WRTSEGS# EQU  4281
   81      G_ROS_JIT_PCD#        EQU  4282
   82      G_ROS_JIT_PCP#        EQU  4283
   83      G_ROS_JIT_PCL#        EQU  4284
   84      G_ROS_JIT_PCDS#       EQU  4285
   85      G_ROS_JIT_PCDDS#      EQU  4286
   86      G_ROS_JIT_PCC#        EQU  4287
   87      G_ROS_JIT_PCROS#      EQU  4288
   88      G_ROS_JIT_NSPC#       EQU  4289
   89      G_ROS_JIT_MMFLGS#     EQU  4290
   90      G_ROS_JIT_MAXMEM#     EQU  4291
   91      G_ROS_JIT_PSEUDOPGS#  EQU  4292
   92      G_ROS_JIT_CQPC#       EQU  4293
   93      G_ROS_JIT_SPROC##     EQU  4294
   94      G_ROS_JIT_SLIB##      EQU  4294
   95      G_ROS_JIT_DB##        EQU  4295
   96      G_ROS_JIT_CP##        EQU  4295
   97      G_ROS_JIT_PRIV#       EQU  4296
   98      G_ROS_JIT_PPRIV#      EQU  4302
   99      G_ROS_JIT_RNST#       EQU  4304
  100      G_ROS_JIT_RUNFLAGS#   EQU  4305
  101      G_ROS_JIT_JUNK2#      EQU  4305
  102      G_ROS_JIT_JUNK#       EQU  4306
  103      G_ROS_JIT_ERRLOG#     EQU  4307
  104      G_ROS_JIT_ERRLOG_LVL# EQU  4307
  105      G_ROS_JIT_LANG#       EQU  4307
  106      G_ROS_JIT_DB_ACCN#    EQU  4308
  107      G_ROS_JIT_MAXLVLS#    EQU  4312
  108      G_ROS_JIT_CURRLVLS#   EQU  4312
  109      G_ROS_JIT_MAXSUDO#    EQU  4313
  110      G_ROS_JIT_CURSUDO#    EQU  4317
  111      G_ROS_JIT_GFR_ACCT#   EQU  4321
07:16 JUL 29 '97 GHI_INT_RECV_E.:E05TOU                                    4
  112      G_ROS_JIT_TMRZ#       EQU  4322
  113      G_ROS_JIT_TIMERS#     EQU  4322
  114      G_ROS_JIT_PROFILE#    EQU  4328
  115      G_ROS_JIT_FD_ALTERR#  EQU  4334
  116      G_ROS_JIT_CVM_REAL#   EQU  4336
  117      G_ROS_JIT_JOBUNIT#    EQU  4338
  118      G_ROS_JIT_JPEAK_SUDO# EQU  4342
  119      G_ROS_JIT_JPEAK_MEM#  EQU  4346
  120      G_ROS_JIT_JPEAK_LVLS# EQU  4347
  121      G_ROS_JIT_JUSER_EXTIME# EQU  4348
  122      G_ROS_JIT_JUSER_SVTIME# EQU  4350
  123      G_ROS_JIT_JUSER_MEMTIME# EQU  4352
  124      G_ROS_JIT_JPROC_EXTIME# EQU  4354
  125      G_ROS_JIT_JPROC_SVTIME# EQU  4356
  126      G_ROS_JIT_JPROC_MEMTIME# EQU  4358
  127      G_ROS_JIT_CCBUF#      EQU  4360
  128      G_ROS_JIT_JMCLS#      EQU  4488
  129      G_ROS_JIT_JREADS_HOST# EQU  4489
  130      G_ROS_JIT_JWRITES_HOST# EQU  4491
  131      G_ROS_JIT_JREADS_UC#  EQU  4493
  132      G_ROS_JIT_JWRITES_UC# EQU  4495
  133      G_ROS_JIT_LAST_JIT#   EQU  4497
  134      G_ROS_U_ECCB#         EQU  4505
  135      G_ROS_U_ECCB_EVENT$#  EQU  4505
  136      G_ROS_U_ECCB_INT$#    EQU  4507
  137      G_ROS_U_ECCB_XCON$#   EQU  4509
  138      G_ROS_U_ECCB_TRAP$#   EQU  4511
  139      G_ROS_U_ECCB_DBCONTROL$# EQU  4513
  140      G_ROS_U_ECCB_FLAGS#   EQU  4515
  141      G_ROS_U_ECCB_FLTFLG#  EQU  4516
  142      G_ROS_U_ECCB_FLTFLGS# EQU  4516
  143      G_ROS_DB_ECCB#        EQU  4519
  144      G_ROS_DB_ECCB_EVENT$# EQU  4519
  145      G_ROS_DB_ECCB_INT$#   EQU  4521
  146      G_ROS_DB_ECCB_XCON$#  EQU  4523
  147      G_ROS_DB_ECCB_TRAP$#  EQU  4525
  148      G_ROS_DB_ECCB_DBCONTROL$# EQU  4527
07:16 JUL 29 '97 GHI_INT_RECV_E.:E05TOU                                    5
  149      G_ROS_DB_ECCB_FLAGS#  EQU  4529
  150      G_ROS_DB_ECCB_FLTFLG# EQU  4530
  151      G_ROS_DB_ECCB_FLTFLGS# EQU  4530
  152      G_ROS_CP_ECCB#        EQU  4533
  153      G_ROS_CP_ECCB_EVENT$# EQU  4533
  154      G_ROS_CP_ECCB_INT$#   EQU  4535
  155      G_ROS_CP_ECCB_XCON$#  EQU  4537
  156      G_ROS_CP_ECCB_TRAP$#  EQU  4539
  157      G_ROS_CP_ECCB_DBCONTROL$# EQU  4541
  158      G_ROS_CP_ECCB_FLAGS#  EQU  4543
  159      G_ROS_CP_ECCB_FLTFLG# EQU  4544
  160      G_ROS_CP_ECCB_FLTFLGS# EQU  4544
  161      G_ROS_M$DEBUG#        EQU  4547
  162      G_ROS_M$DEBUG_ARS#    EQU  4547
  163      G_ROS_M$DEBUG_TYC#    EQU  4548
  164      G_ROS_M$DEBUG_DVBYTE# EQU  4549
  165      G_ROS_M$DEBUG_STRM#   EQU  4549
  166      G_ROS_M$DEBUG_FFLG#   EQU  4550
  167      G_ROS_M$DEBUG_DDEV#   EQU  4550
  168      G_ROS_M$DEBUG_WIDTH#  EQU  4551
  169      G_ROS_M$DEBUG_NAME#   EQU  4552
  170      G_ROS_M$DEBUG_ACCT#   EQU  4568
  171      G_ROS_M$DEBUG_RES#    EQU  4572
  172      G_ROS_M$DEBUG_RESNT#  EQU  4572
  173      G_ROS_M$DEBUG_WSN#    EQU  4574
  174      G_ROS_M$DEBUG_FCI#    EQU  4578
  175      G_ROS_M$DEBUG_FCD#    EQU  4578
  176      G_ROS_M$DEBUG_SHARE#  EQU  4578
  177      G_ROS_M$DEBUG_DISP#   EQU  4578
  178      G_ROS_M$DEBUG_ORG#    EQU  4578
  179      G_ROS_M$DEBUG_FUN#    EQU  4579
  180      G_ROS_M$DEBUG_ASN#    EQU  4579
  181      G_ROS_M$DEBUG_DCB##   EQU  4579
  182      G_ROS_M$DEBUG_FLDID#  EQU  4580
  183      G_ROS_M$DEBUG_RECL#   EQU  4580
  184      G_ROS_M$DEBUG_EOMCHAR# EQU  4581
  185      G_ROS_M$DEBUG_EOMVAL# EQU  4581
07:16 JUL 29 '97 GHI_INT_RECV_E.:E05TOU                                    6
  186      G_ROS_M$DEBUG_VFC#    EQU  4581
  187      G_ROS_M$DEBUG_LINES#  EQU  4582
  188      G_ROS_M$DEBUG_KEYTYPE# EQU  4583
  189      G_ROS_M$DEBUG_DVFC#   EQU  4583
  190      G_ROS_M$DEBUG_EVENT#  EQU  4584
  191      G_ROS_M$DEBUG_HEADER$# EQU  4585
  192      G_ROS_M$DEBUG_TAB$#   EQU  4587
  193      G_ROS_M$DEBUG_HMI$#   EQU  4589
  194      G_ROS_M$DEBUG_LDCTX#  EQU  4591
  195      G_ROS_M$DEBUG_RLCID#  EQU  4592
  196      G_ROS_M$DEBUG_ACTPOS# EQU  4594
  197      G_ROS_M$DEBUG_SSN$#   EQU  4595
  198      G_ROS_M$DEBUG_DCBNAME# EQU  4597
  199      G_ROS_M$LM#           EQU  4601
  200      G_ROS_M$LM_ARS#       EQU  4601
  201      G_ROS_M$LM_TYC#       EQU  4602
  202      G_ROS_M$LM_DVBYTE#    EQU  4603
  203      G_ROS_M$LM_STRM#      EQU  4603
  204      G_ROS_M$LM_FFLG#      EQU  4604
  205      G_ROS_M$LM_DDEV#      EQU  4604
  206      G_ROS_M$LM_WIDTH#     EQU  4605
  207      G_ROS_M$LM_NAME#      EQU  4606
  208      G_ROS_M$LM_ACCT#      EQU  4622
  209      G_ROS_M$LM_RES#       EQU  4626
  210      G_ROS_M$LM_RESNT#     EQU  4626
  211      G_ROS_M$LM_WSN#       EQU  4628
  212      G_ROS_M$LM_FCI#       EQU  4632
  213      G_ROS_M$LM_FCD#       EQU  4632
  214      G_ROS_M$LM_SHARE#     EQU  4632
  215      G_ROS_M$LM_DISP#      EQU  4632
  216      G_ROS_M$LM_ORG#       EQU  4632
  217      G_ROS_M$LM_FUN#       EQU  4633
  218      G_ROS_M$LM_ASN#       EQU  4633
  219      G_ROS_M$LM_DCB##      EQU  4633
  220      G_ROS_M$LM_FLDID#     EQU  4634
  221      G_ROS_M$LM_RECL#      EQU  4634
  222      G_ROS_M$LM_EOMCHAR#   EQU  4635
07:16 JUL 29 '97 GHI_INT_RECV_E.:E05TOU                                    7
  223      G_ROS_M$LM_EOMVAL#    EQU  4635
  224      G_ROS_M$LM_VFC#       EQU  4635
  225      G_ROS_M$LM_LINES#     EQU  4636
  226      G_ROS_M$LM_KEYTYPE#   EQU  4637
  227      G_ROS_M$LM_DVFC#      EQU  4637
  228      G_ROS_M$LM_EVENT#     EQU  4638
  229      G_ROS_M$LM_HEADER$#   EQU  4639
  230      G_ROS_M$LM_TAB$#      EQU  4641
  231      G_ROS_M$LM_HMI$#      EQU  4643
  232      G_ROS_M$LM_LDCTX#     EQU  4645
  233      G_ROS_M$LM_RLCID#     EQU  4646
  234      G_ROS_M$LM_ACTPOS#    EQU  4648
  235      G_ROS_M$LM_SSN$#      EQU  4649
  236      G_ROS_M$LM_DCBNAME#   EQU  4651
  237      G_ROS_M$LM_PASS#      EQU  4653
  238      G_ROS_M$LM_PSN#       EQU  4657
  239      G_ROS_M$LM_MODTIME#   EQU  4661
  240      G_ROS_M$ME#           EQU  4663
  241      G_ROS_M$ME_ARS#       EQU  4663
  242      G_ROS_M$ME_TYC#       EQU  4664
  243      G_ROS_M$ME_DVBYTE#    EQU  4665
  244      G_ROS_M$ME_STRM#      EQU  4665
  245      G_ROS_M$ME_FFLG#      EQU  4666
  246      G_ROS_M$ME_DDEV#      EQU  4666
  247      G_ROS_M$ME_WIDTH#     EQU  4667
  248      G_ROS_M$ME_NAME#      EQU  4668
  249      G_ROS_M$ME_ACCT#      EQU  4684
  250      G_ROS_M$ME_RES#       EQU  4688
  251      G_ROS_M$ME_RESNT#     EQU  4688
  252      G_ROS_M$ME_WSN#       EQU  4690
  253      G_ROS_M$ME_FCI#       EQU  4694
  254      G_ROS_M$ME_FCD#       EQU  4694
  255      G_ROS_M$ME_SHARE#     EQU  4694
  256      G_ROS_M$ME_DISP#      EQU  4694
  257      G_ROS_M$ME_ORG#       EQU  4694
  258      G_ROS_M$ME_FUN#       EQU  4695
  259      G_ROS_M$ME_ASN#       EQU  4695
07:16 JUL 29 '97 GHI_INT_RECV_E.:E05TOU                                    8
  260      G_ROS_M$ME_DCB##      EQU  4695
  261      G_ROS_M$ME_FLDID#     EQU  4696
  262      G_ROS_M$ME_RECL#      EQU  4696
  263      G_ROS_M$ME_EOMCHAR#   EQU  4697
  264      G_ROS_M$ME_EOMVAL#    EQU  4697
  265      G_ROS_M$ME_VFC#       EQU  4697
  266      G_ROS_M$ME_LINES#     EQU  4698
  267      G_ROS_M$ME_KEYTYPE#   EQU  4699
  268      G_ROS_M$ME_DVFC#      EQU  4699
  269      G_ROS_M$ME_EVENT#     EQU  4700
  270      G_ROS_M$ME_HEADER$#   EQU  4701
  271      G_ROS_M$ME_TAB$#      EQU  4703
  272      G_ROS_M$ME_HMI$#      EQU  4705
  273      G_ROS_M$ME_LDCTX#     EQU  4707
  274      G_ROS_M$ME_RLCID#     EQU  4708
  275      G_ROS_M$ME_ACTPOS#    EQU  4710
  276      G_ROS_M$ME_SSN$#      EQU  4711
  277      G_ROS_M$ME_DCBNAME#   EQU  4713
  278      G_ROS_M$HOST#         EQU  4716
  279      G_ROS_M$HOST_ARS#     EQU  4716
  280      G_ROS_M$HOST_TYC#     EQU  4717
  281      G_ROS_M$HOST_DVBYTE#  EQU  4718
  282      G_ROS_M$HOST_STRM#    EQU  4718
  283      G_ROS_M$HOST_FFLG#    EQU  4719
  284      G_ROS_M$HOST_DDEV#    EQU  4719
  285      G_ROS_M$HOST_WIDTH#   EQU  4720
  286      G_ROS_M$HOST_NAME#    EQU  4721
  287      G_ROS_M$HOST_ACCT#    EQU  4737
  288      G_ROS_M$HOST_RES#     EQU  4741
  289      G_ROS_M$HOST_RESNT#   EQU  4741
  290      G_ROS_M$HOST_WSN#     EQU  4743
  291      G_ROS_M$HOST_FCI#     EQU  4747
  292      G_ROS_M$HOST_FCD#     EQU  4747
  293      G_ROS_M$HOST_SHARE#   EQU  4747
  294      G_ROS_M$HOST_DISP#    EQU  4747
  295      G_ROS_M$HOST_ORG#     EQU  4747
  296      G_ROS_M$HOST_FUN#     EQU  4748
07:16 JUL 29 '97 GHI_INT_RECV_E.:E05TOU                                    9
  297      G_ROS_M$HOST_ASN#     EQU  4748
  298      G_ROS_M$HOST_DCB##    EQU  4748
  299      G_ROS_M$HOST_FLDID#   EQU  4749
  300      G_ROS_M$HOST_RECL#    EQU  4749
  301      G_ROS_M$HOST_EOMCHAR# EQU  4750
  302      G_ROS_M$HOST_EOMVAL#  EQU  4750
  303      G_ROS_M$HOST_VFC#     EQU  4750
  304      G_ROS_M$HOST_LINES#   EQU  4751
  305      G_ROS_M$HOST_KEYTYPE# EQU  4752
  306      G_ROS_M$HOST_DVFC#    EQU  4752
  307      G_ROS_M$HOST_EVENT#   EQU  4753
  308      G_ROS_M$HOST_HEADER$# EQU  4754
  309      G_ROS_M$HOST_TAB$#    EQU  4756
  310      G_ROS_M$HOST_HMI$#    EQU  4758
  311      G_ROS_M$HOST_LDCTX#   EQU  4760
  312      G_ROS_M$HOST_RLCID#   EQU  4761
  313      G_ROS_M$HOST_ACTPOS#  EQU  4763
  314      G_ROS_M$HOST_SSN$#    EQU  4764
  315      G_ROS_M$HOST_DCBNAME# EQU  4766
  316      G_ROS_M$DO#           EQU  4770
  317      G_ROS_M$DO_ARS#       EQU  4770
  318      G_ROS_M$DO_TYC#       EQU  4771
  319      G_ROS_M$DO_DVBYTE#    EQU  4772
  320      G_ROS_M$DO_STRM#      EQU  4772
  321      G_ROS_M$DO_FFLG#      EQU  4773
  322      G_ROS_M$DO_DDEV#      EQU  4773
  323      G_ROS_M$DO_WIDTH#     EQU  4774
  324      G_ROS_M$DO_NAME#      EQU  4775
  325      G_ROS_M$DO_ACCT#      EQU  4791
  326      G_ROS_M$DO_RES#       EQU  4795
  327      G_ROS_M$DO_RESNT#     EQU  4795
  328      G_ROS_M$DO_WSN#       EQU  4797
  329      G_ROS_M$DO_FCI#       EQU  4801
  330      G_ROS_M$DO_FCD#       EQU  4801
  331      G_ROS_M$DO_SHARE#     EQU  4801
  332      G_ROS_M$DO_DISP#      EQU  4801
  333      G_ROS_M$DO_ORG#       EQU  4801
07:16 JUL 29 '97 GHI_INT_RECV_E.:E05TOU                                    10
  334      G_ROS_M$DO_FUN#       EQU  4802
  335      G_ROS_M$DO_ASN#       EQU  4802
  336      G_ROS_M$DO_DCB##      EQU  4802
  337      G_ROS_M$DO_FLDID#     EQU  4803
  338      G_ROS_M$DO_RECL#      EQU  4803
  339      G_ROS_M$DO_EOMCHAR#   EQU  4804
  340      G_ROS_M$DO_EOMVAL#    EQU  4804
  341      G_ROS_M$DO_VFC#       EQU  4804
  342      G_ROS_M$DO_LINES#     EQU  4805
  343      G_ROS_M$DO_KEYTYPE#   EQU  4806
  344      G_ROS_M$DO_DVFC#      EQU  4806
  345      G_ROS_M$DO_EVENT#     EQU  4807
  346      G_ROS_M$DO_HEADER$#   EQU  4808
  347      G_ROS_M$DO_TAB$#      EQU  4810
  348      G_ROS_M$DO_HMI$#      EQU  4812
  349      G_ROS_M$DO_LDCTX#     EQU  4814
  350      G_ROS_M$DO_RLCID#     EQU  4815
  351      G_ROS_M$DO_ACTPOS#    EQU  4817
  352      G_ROS_M$DO_SSN$#      EQU  4818
  353      G_ROS_M$DO_DCBNAME#   EQU  4820
  354      G_ROS_DCBTABLE#       EQU  4823
  355      G_ROS_AVAIL_HDR#      EQU  4843
  356      G_ROS_AVAIL_HDR_NEXT$# EQU  4843
  357      G_ROS_AVAIL_HDR_NWORDS# EQU  4845
  358      G$JIT#                EQU     0
  359      G$JIT_ACCTLOG#        EQU     0
  360      G$JIT_ACCTLOG_FCN#    EQU     0
  361      G$JIT_ACCTLOG_FILENUM# EQU     1
  362      G$JIT_CODE#           EQU     2
  363      G$JIT_TYPE#           EQU     2
  364      G$JIT_PROG_ENTRY#     EQU     3
  365      G$JIT_MODE#           EQU     4
  366      G$JIT_USR##           EQU     4
  367      G$JIT_SYSID#          EQU     5
  368      G$JIT_ACCN#           EQU     6
  369      G$JIT_UNAME#          EQU    10
  370      G$JIT_PROCNAME#       EQU    16
07:16 JUL 29 '97 GHI_INT_RECV_E.:E05TOU                                    11
  371      G$JIT_PROCNAME_L#     EQU    16
  372      G$JIT_PROCNAME_TEXT#  EQU    16
  373      G$JIT_START#          EQU    32
  374      G$JIT_STOP#           EQU    34
  375      G$JIT_USER_EXTIME#    EQU    36
  376      G$JIT_TUEXT#          EQU    36
  377      G$JIT_USER_SVTIME#    EQU    38
  378      G$JIT_TUSVT#          EQU    38
  379      G$JIT_USER_MEMTIME#   EQU    40
  380      G$JIT_UMEMTIM#        EQU    40
  381      G$JIT_PROC_EXTIME#    EQU    42
  382      G$JIT_PROC_SVTIME#    EQU    44
  383      G$JIT_PROC_MEMTIME#   EQU    46
  384      G$JIT_PEAK_SUDO#      EQU    48
  385      G$JIT_PEAK_MEM#       EQU    52
  386      G$JIT_PEAK_LVLS#      EQU    53
  387      G$JIT_MCLS#           EQU    54
  388      G$JIT_CALCNT#         EQU    54
  389      G$JIT_FEP##           EQU    55
  390      G$JIT_JSUNIT#         EQU    56
  391      G$JIT_STEPUNIT#       EQU    56
  392      G$JIT_ERR#            EQU    60
  393      G$JIT_ERR_FCG#        EQU    60
  394      G$JIT_ERR_MID#        EQU    60
  395      G$JIT_ERR_MON#        EQU    60
  396      G$JIT_ERR_ERR##       EQU    61
  397      G$JIT_ERR_SEV#        EQU    61
  398      G$JIT_FRS#            EQU    62
  399      G$JIT_FRS_XKEY#       EQU    62
  400      G$JIT_FRS_DSC#        EQU    62
  401      G$JIT_FRS_OFF#        EQU    62
  402      G$JIT_FRS_LIMX#       EQU    62
  403      G$JIT_FRS_EKEY#       EQU    62
  404      G$JIT_FRS_SSP#        EQU    62
  405      G$JIT_FRS_INTABRT#    EQU    62
  406      G$JIT_FRS_ABRT#       EQU    62
  407      G$JIT_FRS_LDTRC#      EQU    62
07:16 JUL 29 '97 GHI_INT_RECV_E.:E05TOU                                    12
  408      G$JIT_FRS_XXX#        EQU    62
  409      G$JIT_FRS_ERR#        EQU    62
  410      G$JIT_STEPCC#         EQU    63
  411      G$JIT_XLIMFLG#        EQU    63
  412      G$JIT_XLIMFLG_TIME#   EQU    63
  413      G$JIT_READS_HOST#     EQU    64
  414      G$JIT_WRITES_HOST#    EQU    66
  415      G$JIT_READS_UC#       EQU    68
  416      G$JIT_WRITES_UC#      EQU    70
  417      G$JIT_INST_ACC#       EQU    72
  418      G$JIT_BILL#           EQU    87
  419      G$JIT_STEP#           EQU    90
  420      G$JIT_LAST_ACC#       EQU    91
  421      G$JIT_FIRST_SEG#      EQU   100
  422      G$JIT_FD_P$#          EQU   102
  423      G$JIT_JSTART#         EQU   104
  424      G$JIT_XTIME#          EQU   106
  425      G$JIT_STIME#          EQU   108
  426      G$JIT_IDELTAT#        EQU   110
  427      G$JIT_MRT#            EQU   112
  428      G$JIT_SCHTIME#        EQU   114
  429      G$JIT_CLUKRLVL#       EQU   116
  430      G$JIT_CLUKXLVL#       EQU   116
  431      G$JIT_CLUKRINT#       EQU   117
  432      G$JIT_CLUKXINT#       EQU   119
  433      G$JIT_DLL#            EQU   121
  434      G$JIT_DUL#            EQU   122
  435      G$JIT_PLL#            EQU   123
  436      G$JIT_PUL#            EQU   124
  437      G$JIT_LLL#            EQU   125
  438      G$JIT_LUL#            EQU   126
  439      G$JIT_DB_WRTSEGS#     EQU   127
  440      G$JIT_PCD#            EQU   128
  441      G$JIT_PCP#            EQU   129
  442      G$JIT_PCL#            EQU   130
  443      G$JIT_PCDS#           EQU   131
  444      G$JIT_PCDDS#          EQU   132
07:16 JUL 29 '97 GHI_INT_RECV_E.:E05TOU                                    13
  445      G$JIT_PCC#            EQU   133
  446      G$JIT_PCROS#          EQU   134
  447      G$JIT_NSPC#           EQU   135
  448      G$JIT_MMFLGS#         EQU   136
  449      G$JIT_MMFLGS_FREE_PPGS# EQU   136
  450      G$JIT_MAXMEM#         EQU   137
  451      G$JIT_PSEUDOPGS#      EQU   138
  452      G$JIT_CQPC#           EQU   139
  453      G$JIT_SPROC##         EQU   140
  454      G$JIT_SLIB##          EQU   140
  455      G$JIT_DB##            EQU   141
  456      G$JIT_CP##            EQU   141
  457      G$JIT_PRIV#           EQU   142
  458      G$JIT_PRIV_ACTIVE#    EQU   142
  459      G$JIT_PRIV_AUTH#      EQU   144
  460      G$JIT_PRIV_PRC#       EQU   146
  461      G$JIT_PPRIV#          EQU   148
  462      G$JIT_RNST#           EQU   150
  463      G$JIT_RNST_XKEY#      EQU   150
  464      G$JIT_RNST_DSC#       EQU   150
  465      G$JIT_RNST_OFF#       EQU   150
  466      G$JIT_RNST_LIMX#      EQU   150
  467      G$JIT_RNST_EKEY#      EQU   150
  468      G$JIT_RNST_SSP#       EQU   150
  469      G$JIT_RNST_INTABRT#   EQU   150
  470      G$JIT_RNST_ABRT#      EQU   150
  471      G$JIT_RNST_LDTRC#     EQU   150
  472      G$JIT_RNST_XXX#       EQU   150
  473      G$JIT_RNST_ERR#       EQU   150
  474      G$JIT_RUNFLAGS#       EQU   151
  475      G$JIT_JUNK2#          EQU   151
  476      G$JIT_JUNK2_USER_CCBUF# EQU   151
  477      G$JIT_JUNK2_BYPASS_MFPL# EQU   151
  478      G$JIT_JUNK2_MICROFPL# EQU   151
  479      G$JIT_JUNK#           EQU   152
  480      G$JIT_JUNK_HOST_STEP_ABRT# EQU   152
  481      G$JIT_JUNK_KEEP#      EQU   152
07:16 JUL 29 '97 GHI_INT_RECV_E.:E05TOU                                    14
  482      G$JIT_JUNK_STEPACCT#  EQU   152
  483      G$JIT_JUNK_DB_TIMER#  EQU   152
  484      G$JIT_JUNK_PROCSURCHG# EQU   152
  485      G$JIT_JUNK_PROCACCT#  EQU   152
  486      G$JIT_JUNK_BYPASSD#   EQU   152
  487      G$JIT_JUNK_BACKP$#    EQU   152
  488      G$JIT_JUNK_RUND#      EQU   152
  489      G$JIT_JUNK_RTNFID#    EQU   152
  490      G$JIT_JUNK_ALIBFD#    EQU   152
  491      G$JIT_JUNK_STEP#      EQU   152
  492      G$JIT_JUNK_EXONLY#    EQU   152
  493      G$JIT_JUNK_UDELTA#    EQU   152
  494      G$JIT_JUNK_SCCSET#    EQU   152
  495      G$JIT_JUNK_MLDTRC#    EQU   152
  496      G$JIT_ERRLOG#         EQU   153
  497      G$JIT_ERRLOG_SEV0#    EQU   153
  498      G$JIT_ERRLOG_SEV1#    EQU   153
  499      G$JIT_ERRLOG_SEV2#    EQU   153
  500      G$JIT_ERRLOG_SEV3#    EQU   153
  501      G$JIT_ERRLOG_SEV4#    EQU   153
  502      G$JIT_ERRLOG_SEV5#    EQU   153
  503      G$JIT_ERRLOG_SEV6#    EQU   153
  504      G$JIT_ERRLOG_SEV7#    EQU   153
  505      G$JIT_ERRLOG_LVL#     EQU   153
  506      G$JIT_ERRLOG_LVL_SEV# EQU   153
  507      G$JIT_LANG#           EQU   153
  508      G$JIT_DB_ACCN#        EQU   154
  509      G$JIT_MAXLVLS#        EQU   158
  510      G$JIT_CURRLVLS#       EQU   158
  511      G$JIT_MAXSUDO#        EQU   159
  512      G$JIT_CURSUDO#        EQU   163
  513      G$JIT_GFR_ACCT#       EQU   167
  514      G$JIT_TMRZ#           EQU   168
  515      G$JIT_TMRZ_UTIMER#    EQU   168
  516      G$JIT_TMRZ_CTIMER#    EQU   170
  517      G$JIT_TMRZ_DTIMER#    EQU   172
  518      G$JIT_TIMERS#         EQU   168
07:16 JUL 29 '97 GHI_INT_RECV_E.:E05TOU                                    15
  519      G$JIT_PROFILE#        EQU   174
  520      G$JIT_PROFILE_CNT#    EQU   174
  521      G$JIT_PROFILE_TXT#    EQU   174
  522      G$JIT_FD_ALTERR#      EQU   180
  523      G$JIT_FD_ALTERR_FCG#  EQU   180
  524      G$JIT_FD_ALTERR_MID#  EQU   180
  525      G$JIT_FD_ALTERR_MON#  EQU   180
  526      G$JIT_FD_ALTERR_ERR## EQU   181
  527      G$JIT_FD_ALTERR_SEV#  EQU   181
  528      G$JIT_CVM_REAL#       EQU   182
  529      G$JIT_JOBUNIT#        EQU   184
  530      G$JIT_JPEAK_SUDO#     EQU   188
  531      G$JIT_JPEAK_MEM#      EQU   192
  532      G$JIT_JPEAK_LVLS#     EQU   193
  533      G$JIT_JUSER_EXTIME#   EQU   194
  534      G$JIT_JUSER_SVTIME#   EQU   196
  535      G$JIT_JUSER_MEMTIME#  EQU   198
  536      G$JIT_JPROC_EXTIME#   EQU   200
  537      G$JIT_JPROC_SVTIME#   EQU   202
  538      G$JIT_JPROC_MEMTIME#  EQU   204
  539      G$JIT_CCBUF#          EQU   206
  540      G$JIT_JMCLS#          EQU   334
  541      G$JIT_JREADS_HOST#    EQU   335
  542      G$JIT_JWRITES_HOST#   EQU   337
  543      G$JIT_JREADS_UC#      EQU   339
  544      G$JIT_JWRITES_UC#     EQU   341
  545      G$JIT_LAST_JIT#       EQU   343
  546      G$MHJIT#              EQU     0
  547      G$MHJIT_ASDT_MON#     EQU     0
  548      G$MHJIT_ASDT_MON_NULLSEG# EQU     0
  549      G$MHJIT_ASDT_MON_ROS# EQU     2
  550      G$MHJIT_ASDT_MON_RDB_DS# EQU     4
  551      G$MHJIT_ASDT_MON_LOW_MEM# EQU     6
  552      G$MHJIT_ASDT_MON_TSTACKM# EQU     8
  553      G$MHJIT_ASDT_MON_UMHJIT# EQU    10
  554      G$MHJIT_ASDT_MON_MHJIT# EQU    12
  555      G$MHJIT_ASDT_MON_MHJIT2# EQU    14
07:16 JUL 29 '97 GHI_INT_RECV_E.:E05TOU                                    16
  556
  557      G$MHJIT_ASDT_MON_MON_ENTRY# EQU    18
  558      G$MHJIT_ASDT_MON_MON_STATIC1# EQU    32
  559      G$MHJIT_ASDT_MON_MON_STATIC2# EQU    34
  560      G$MHJIT_ASDT_MON_MON_PROC1# EQU    36
  561      G$MHJIT_ASDT_MON_MON_PROC2# EQU    38
  562      G$MHJIT_ASDT_MON_MON_PROC3# EQU    40
  563      G$MHJIT_ASDT_MON_DB_PROC# EQU    46
  564      G$MHJIT_ASDT_MON_WINDOW1# EQU    48
  565      G$MHJIT_ASDT_MON_PPUT# EQU    50
  566      G$MHJIT_ASDT_MON_CBUFFER# EQU    52
  567      G$MHJIT_ASDT_MON_BOBCAT# EQU    54
  568      G$MHJIT_ASDT_MON_HAND_Q# EQU    56
  569      G$MHJIT_ASDT_MON_BIGFOOT# EQU    60
  570      G$MHJIT_ASDT_BIGFOOT# EQU    62
  571      G$MHJIT_ASDT_BIGFOOT_NULLSEG# EQU    62
  572      G$MHJIT_ASDT_BIGFOOT_ROS# EQU    64
  573      G$MHJIT_ASDT_BIGFOOT_RDB_DS# EQU    66
  574      G$MHJIT_ASDT_BIGFOOT_LOW_MEM# EQU    68
  575      G$MHJIT_ASDT_BIGFOOT_TSTACKM# EQU    70
  576      G$MHJIT_ASDT_BIGFOOT_UMHJIT# EQU    72
  577      G$MHJIT_ASDT_BIGFOOT_MHJIT# EQU    74
  578      G$MHJIT_ASDT_BIGFOOT_MHJIT2# EQU    76
  579
  580
  581
  582
  583
  584
  585
  586      G$MHJIT_ASDT_BIGFOOT_DB_PROC# EQU   108
  587      G$MHJIT_ASDT_BIGFOOT_WINDOW1# EQU   110
  588      G$MHJIT_ASDT_BIGFOOT_PPUT# EQU   112
  589      G$MHJIT_ASDT_BIGFOOT_CBUFFER# EQU   114
  590      G$MHJIT_ASDT_BIGFOOT_BOBCAT# EQU   116
  591      G$MHJIT_ASDT_BIGFOOT_HAND_Q# EQU   118
  592      G$MHJIT_ASDT_BIGFOOT_BIGFOOT# EQU   122
07:16 JUL 29 '97 GHI_INT_RECV_E.:E05TOU                                    17
  593      G$MHJIT_ISA_IDLE#     EQU   124
  594      G$MHJIT_ISA_IDLE_ASV$# EQU   124
  595      G$MHJIT_ISA_IDLE_TSAP$# EQU   127
  596      G$MHJIT_ISA_IDLE_DEV# EQU   129
  597      G$MHJIT_ISA_IDLE_ISM1# EQU   130
  598      G$MHJIT_ISA_IDLE_ISM2# EQU   131
  599      G$MHJIT_ISA_IDLE_P$$# EQU   132
  600      G$MHJIT_ISA_IDLE_P$#  EQU   132
  601      G$MHJIT_ISA_IDLE_S#   EQU   134
  602      G$MHJIT_TSA_MON#      EQU   135
  603      G$MHJIT_TSA_MON_TSAL$# EQU   135
  604      G$MHJIT_TSA_MON_I#    EQU   137
  605      G$MHJIT_TSA_MON_R3#   EQU   138
  606      G$MHJIT_TSA_MON_INST# EQU   139
  607      G$MHJIT_TSA_MON_Z#    EQU   140
  608      G$MHJIT_TSA_MON_A$#   EQU   141
  609      G$MHJIT_TSA_MON_P$$#  EQU   143
  610      G$MHJIT_TSA_MON_P$#   EQU   143
  611      G$MHJIT_TSA_MON_P#    EQU   143
  612      G$MHJIT_TSA_MON_B3$#  EQU   145
  613      G$MHJIT_TSA_MON_S#    EQU   147
  614      G$MHJIT_TSA_MON_ISA#  EQU   148
  615      G$MHJIT_TSA_DB#       EQU   193
  616      G$MHJIT_TSA_DB_TSAL$# EQU   193
  617      G$MHJIT_TSA_DB_I#     EQU   195
  618      G$MHJIT_TSA_DB_R3#    EQU   196
  619      G$MHJIT_TSA_DB_INST#  EQU   197
  620      G$MHJIT_TSA_DB_Z#     EQU   198
  621      G$MHJIT_TSA_DB_A$#    EQU   199
  622      G$MHJIT_TSA_DB_P$$#   EQU   201
  623      G$MHJIT_TSA_DB_P$#    EQU   201
  624      G$MHJIT_TSA_DB_P#     EQU   201
  625      G$MHJIT_TSA_DB_B3$#   EQU   203
  626      G$MHJIT_TSA_DB_S#     EQU   205
  627      G$MHJIT_TSA_DB_ISA#   EQU   206
  628      G$MHJIT_TSA_OV#       EQU   251
  629      G$MHJIT_TSA_OV_TSAL$# EQU   251
07:16 JUL 29 '97 GHI_INT_RECV_E.:E05TOU                                    18
  630      G$MHJIT_TSA_OV_I#     EQU   253
  631      G$MHJIT_TSA_OV_R3#    EQU   254
  632      G$MHJIT_TSA_OV_INST#  EQU   255
  633      G$MHJIT_TSA_OV_Z#     EQU   256
  634      G$MHJIT_TSA_OV_A$#    EQU   257
  635      G$MHJIT_TSA_OV_P$$#   EQU   259
  636      G$MHJIT_TSA_OV_P$#    EQU   259
  637      G$MHJIT_TSA_OV_P#     EQU   259
  638      G$MHJIT_TSA_OV_B3$#   EQU   261
  639      G$MHJIT_TSA_OV_S#     EQU   263
  640      G$MHJIT_TSA_OV_ISA#   EQU   264
  641      G$MHJIT_ISA_PFS#      EQU   309
  642      G$MHJIT_ISA_PFS_ASV$# EQU   309
  643      G$MHJIT_ISA_PFS_TSAP$# EQU   312
  644      G$MHJIT_ISA_PFS_DEV#  EQU   314
  645      G$MHJIT_ISA_PFS_ISM1# EQU   315
  646      G$MHJIT_ISA_PFS_ISM2# EQU   316
  647      G$MHJIT_ISA_PFS_P$$#  EQU   317
  648      G$MHJIT_ISA_PFS_P$#   EQU   317
  649      G$MHJIT_ISA_PFS_S#    EQU   319
  650      G$MHJIT_ISA_WDOG#     EQU   320
  651      G$MHJIT_ISA_WDOG_ASV$# EQU   320
  652      G$MHJIT_ISA_WDOG_TSAP$# EQU   323
  653      G$MHJIT_ISA_WDOG_DEV# EQU   325
  654      G$MHJIT_ISA_WDOG_ISM1# EQU   326
  655      G$MHJIT_ISA_WDOG_ISM2# EQU   327
  656      G$MHJIT_ISA_WDOG_P$$# EQU   328
  657      G$MHJIT_ISA_WDOG_P$#  EQU   328
  658      G$MHJIT_ISA_WDOG_S#   EQU   330
  659      G$MHJIT_WDT_REGS#     EQU   331
  660      G$MHJIT_WDT_REGS_B7$# EQU   331
  661      G$MHJIT_WDT_REGS_B6$# EQU   333
  662      G$MHJIT_WDT_REGS_B5$# EQU   335
  663      G$MHJIT_WDT_REGS_B4$# EQU   337
  664      G$MHJIT_WDT_REGS_B3$# EQU   339
  665      G$MHJIT_WDT_REGS_B2$# EQU   341
  666      G$MHJIT_WDT_REGS_B1$# EQU   343
07:16 JUL 29 '97 GHI_INT_RECV_E.:E05TOU                                    19
  667      G$MHJIT_WDT_REGS_I#   EQU   345
  668      G$MHJIT_WDT_REGS_R7#  EQU   346
  669      G$MHJIT_WDT_REGS_R6#  EQU   347
  670      G$MHJIT_WDT_REGS_R5#  EQU   348
  671      G$MHJIT_WDT_REGS_R4#  EQU   349
  672      G$MHJIT_WDT_REGS_R3#  EQU   350
  673      G$MHJIT_WDT_REGS_R2#  EQU   351
  674      G$MHJIT_WDT_REGS_R1#  EQU   352
  675      G$MHJIT_WDT_REGS_M1#  EQU   353
  676      G$MHJIT_ISA_OV#       EQU   354
  677      G$MHJIT_ISA_OV_ASV$#  EQU   354
  678      G$MHJIT_ISA_OV_TSAP$# EQU   357
  679      G$MHJIT_ISA_OV_DEV#   EQU   359
  680      G$MHJIT_ISA_OV_ISM1#  EQU   360
  681      G$MHJIT_ISA_OV_ISM2#  EQU   361
  682      G$MHJIT_ISA_OV_P$$#   EQU   362
  683      G$MHJIT_ISA_OV_P$#    EQU   362
  684      G$MHJIT_ISA_OV_S#     EQU   364
  685      G$MHJIT_ISA_OV_REGS#  EQU   365
  686      G$MHJIT_ISA_BIGFOOT#  EQU   399
  687      G$MHJIT_ISA_BIGFOOT_ASV$# EQU   399
  688      G$MHJIT_ISA_BIGFOOT_TSAP$# EQU   402
  689      G$MHJIT_ISA_BIGFOOT_DEV# EQU   404
  690      G$MHJIT_ISA_BIGFOOT_ISM1# EQU   405
  691      G$MHJIT_ISA_BIGFOOT_ISM2# EQU   406
  692      G$MHJIT_ISA_BIGFOOT_P$$# EQU   407
  693      G$MHJIT_ISA_BIGFOOT_P$# EQU   407
  694      G$MHJIT_ISA_BIGFOOT_S# EQU   409
  695      G$MHJIT_ISA_BIGFOOT_REGS# EQU   410
  696      G$MHJIT_ISA_LVL5#     EQU   444
  697      G$MHJIT_ISA_LVL5_ASV$# EQU   444
  698      G$MHJIT_ISA_LVL5_TSAP$# EQU   447
  699      G$MHJIT_ISA_LVL5_DEV# EQU   449
  700      G$MHJIT_ISA_LVL5_ISM1# EQU   450
  701      G$MHJIT_ISA_LVL5_ISM2# EQU   451
  702      G$MHJIT_ISA_LVL5_P$$# EQU   452
  703      G$MHJIT_ISA_LVL5_P$#  EQU   452
07:16 JUL 29 '97 GHI_INT_RECV_E.:E05TOU                                    20
  704      G$MHJIT_ISA_LVL5_S#   EQU   454
  705      G$MHJIT_ISA_LVL5_REGS# EQU   455
  706      G$MHJIT_ISA_SATYR_RCV# EQU   489
  707      G$MHJIT_ISA_SATYR_RCV_ASV$# EQU   489
  708      G$MHJIT_ISA_SATYR_RCV_TSAP$# EQU   492
  709      G$MHJIT_ISA_SATYR_RCV_DEV# EQU   494
  710      G$MHJIT_ISA_SATYR_RCV_ISM1# EQU   495
  711      G$MHJIT_ISA_SATYR_RCV_ISM2# EQU   496
  712      G$MHJIT_ISA_SATYR_RCV_P$$# EQU   497
  713      G$MHJIT_ISA_SATYR_RCV_P$# EQU   497
  714      G$MHJIT_ISA_SATYR_RCV_S# EQU   499
  715      G$MHJIT_ISA_SATYR_RCV_REGS# EQU   500
  716      G$MHJIT_ISA_SATYR_TRN# EQU   534
  717      G$MHJIT_ISA_SATYR_TRN_ASV$# EQU   534
  718      G$MHJIT_ISA_SATYR_TRN_TSAP$# EQU   537
  719      G$MHJIT_ISA_SATYR_TRN_DEV# EQU   539
  720      G$MHJIT_ISA_SATYR_TRN_ISM1# EQU   540
  721      G$MHJIT_ISA_SATYR_TRN_ISM2# EQU   541
  722      G$MHJIT_ISA_SATYR_TRN_P$$# EQU   542
  723      G$MHJIT_ISA_SATYR_TRN_P$# EQU   542
  724      G$MHJIT_ISA_SATYR_TRN_S# EQU   544
  725      G$MHJIT_ISA_SATYR_TRN_REGS# EQU   545
  726      G$MHJIT_ISA_DBINH#    EQU   579
  727      G$MHJIT_ISA_DBINH_ASV$# EQU   579
  728      G$MHJIT_ISA_DBINH_TSAP$# EQU   582
  729      G$MHJIT_ISA_DBINH_DEV# EQU   584
  730      G$MHJIT_ISA_DBINH_ISM1# EQU   585
  731      G$MHJIT_ISA_DBINH_ISM2# EQU   586
  732      G$MHJIT_ISA_DBINH_P$$# EQU   587
  733      G$MHJIT_ISA_DBINH_P$# EQU   587
  734      G$MHJIT_ISA_DBINH_S#  EQU   589
  735      G$MHJIT_ISA_DBINH_REGS# EQU   590
  736      G$MHJIT_ISA_LVL10#    EQU   624
  737      G$MHJIT_ISA_LVL10_ASV$# EQU   624
  738      G$MHJIT_ISA_LVL10_TSAP$# EQU   627
  739      G$MHJIT_ISA_LVL10_DEV# EQU   629
  740      G$MHJIT_ISA_LVL10_ISM1# EQU   630
07:16 JUL 29 '97 GHI_INT_RECV_E.:E05TOU                                    21
  741      G$MHJIT_ISA_LVL10_ISM2# EQU   631
  742      G$MHJIT_ISA_LVL10_P$$# EQU   632
  743      G$MHJIT_ISA_LVL10_P$# EQU   632
  744      G$MHJIT_ISA_LVL10_S#  EQU   634
  745      G$MHJIT_ISA_LVL10_REGS# EQU   635
  746      G$MHJIT_ISA_LVL11#    EQU   669
  747      G$MHJIT_ISA_LVL11_ASV$# EQU   669
  748      G$MHJIT_ISA_LVL11_TSAP$# EQU   672
  749      G$MHJIT_ISA_LVL11_DEV# EQU   674
  750      G$MHJIT_ISA_LVL11_ISM1# EQU   675
  751      G$MHJIT_ISA_LVL11_ISM2# EQU   676
  752      G$MHJIT_ISA_LVL11_P$$# EQU   677
  753      G$MHJIT_ISA_LVL11_P$# EQU   677
  754      G$MHJIT_ISA_LVL11_S#  EQU   679
  755      G$MHJIT_ISA_LVL11_REGS# EQU   680
  756      G$MHJIT_ISA_LVL12#    EQU   714
  757      G$MHJIT_ISA_LVL12_ASV$# EQU   714
  758      G$MHJIT_ISA_LVL12_TSAP$# EQU   717
  759      G$MHJIT_ISA_LVL12_DEV# EQU   719
  760      G$MHJIT_ISA_LVL12_ISM1# EQU   720
  761      G$MHJIT_ISA_LVL12_ISM2# EQU   721
  762      G$MHJIT_ISA_LVL12_P$$# EQU   722
  763      G$MHJIT_ISA_LVL12_P$# EQU   722
  764      G$MHJIT_ISA_LVL12_S#  EQU   724
  765      G$MHJIT_ISA_LVL12_REGS# EQU   725
  766      G$MHJIT_ISA_SCHD#     EQU   759
  767      G$MHJIT_ISA_SCHD_ASV$# EQU   759
  768      G$MHJIT_ISA_SCHD_TSAP$# EQU   762
  769      G$MHJIT_ISA_SCHD_DEV# EQU   764
  770      G$MHJIT_ISA_SCHD_ISM1# EQU   765
  771      G$MHJIT_ISA_SCHD_ISM2# EQU   766
  772      G$MHJIT_ISA_SCHD_P$$# EQU   767
  773      G$MHJIT_ISA_SCHD_P$#  EQU   767
  774      G$MHJIT_ISA_SCHD_S#   EQU   769
  775      G$MHJIT_ISA_SCHD_REGS# EQU   770
  776      G$MHJIT_ISA_RT_CLOCK# EQU   804
  777      G$MHJIT_ISA_RT_CLOCK_ASV$# EQU   804
07:16 JUL 29 '97 GHI_INT_RECV_E.:E05TOU                                    22
  778      G$MHJIT_ISA_RT_CLOCK_TSAP$# EQU   807
  779      G$MHJIT_ISA_RT_CLOCK_DEV# EQU   809
  780      G$MHJIT_ISA_RT_CLOCK_ISM1# EQU   810
  781      G$MHJIT_ISA_RT_CLOCK_ISM2# EQU   811
  782      G$MHJIT_ISA_RT_CLOCK_P$$# EQU   812
  783      G$MHJIT_ISA_RT_CLOCK_P$# EQU   812
  784      G$MHJIT_ISA_RT_CLOCK_S# EQU   814
  785      G$MHJIT_ISA_RT_CLOCK_REGS# EQU   815
  786      G$MHJIT_CUN#          EQU   849
  787      G$MHJIT_CU$#          EQU   850
  788      G$MHJIT_PNO#          EQU   852
  789      G$MHJIT_INTRVL_TYPE#  EQU   853
  790      G$MHJIT_UTS#          EQU   854
  791      G$MHJIT_TICKS#        EQU   856
  792      G$MHJIT_WDT_INIT#     EQU   857
  793      G$MHJIT_BOOTUTS#      EQU   858
  794      G$MHJIT_INTCON#       EQU   860
  795      G$MHJIT_TSA_HND#      EQU  1644
  796      G$MHJIT_TSA_HND_TSAL$# EQU  1644
  797      G$MHJIT_TSA_HND_I#    EQU  1646
  798      G$MHJIT_TSA_HND_R3#   EQU  1647
  799      G$MHJIT_TSA_HND_INST# EQU  1648
  800      G$MHJIT_TSA_HND_Z#    EQU  1649
  801      G$MHJIT_TSA_HND_A$#   EQU  1650
  802      G$MHJIT_TSA_HND_P$$#  EQU  1652
  803      G$MHJIT_TSA_HND_P$#   EQU  1652
  804      G$MHJIT_TSA_HND_P#    EQU  1652
  805      G$MHJIT_TSA_HND_B3$#  EQU  1654
  806      G$MHJIT_TSA_HND_S#    EQU  1656
  807      G$MHJIT_TSA_HND_ISA#  EQU  1657
  808      G$INTCON#             EQU     0
  809      G$INTCON_ASV$#        EQU     0
  810      G$INTCON_TSAP$#       EQU     3
  811      G$INTCON_DEV#         EQU     5
  812      G$INTCON_DEV_CHN#     EQU     5
  813      G$INTCON_DEV_IL#      EQU     5
  814      G$INTCON_ISM1#        EQU     6
07:16 JUL 29 '97 GHI_INT_RECV_E.:E05TOU                                    23
  815      G$INTCON_ISM2#        EQU     7
  816      G$INTCON_ISM2_MMU#    EQU     7
  817      G$INTCON_ISM2_NATSAP_SEL# EQU     7
  818      G$INTCON_ISM2_SIP#    EQU     7
  819      G$INTCON_ISM2_CIP#    EQU     7
  820      G$INTCON_ISM2_T#      EQU     7
  821      G$INTCON_ISM2_M2_M7#  EQU     7
  822      G$INTCON_P$$#         EQU     8
  823      G$INTCON_P$#          EQU     8
  824      G$INTCON_S#           EQU    10
  825      G$INTCON_S_QLT#       EQU    10
  826      G$INTCON_S_RING#      EQU    10
  827      G$INTCON_S_ID#        EQU    10
  828      G$INTCON_S_LEVEL#     EQU    10
  829      G$INTCON_HHJIT#       EQU    11
  830      G$INTCON_HJIT_PG#     EQU    11
  831      G$INTCON_HJIT_PG_V#   EQU    11
  832      G$INTCON_HJIT_PG_BASE# EQU    11
  833      G$INTCON_USER#        EQU    12
  834      G$INTCON_RUNLEVEL#    EQU    12
  835      G$INTCON_IENTRY#      EQU    13
  836      G$INTCON_ALLOCATED#   EQU    15
  837      G$INTCON_PRIVILEGED#  EQU    15
  838      G$INTCON_DOMYIO#      EQU    15
  839      G$INTCON_RUNNING#     EQU    15
  840      G$INTCON_CLEANUP#     EQU    15
  841      G$INTCON_RUNONLY#     EQU    15
  842      G$INTCON_MORE_FLAGS#  EQU    15
  843      G_LM#                 EQU     0
  844      G_LM_PSF_ENT$#        EQU     0
  845      G_LM_NATSAP7$#        EQU     2
  846      G_LM_NATSAP6$#        EQU     4
  847      G_LM_NATSAP5$#        EQU     6
  848      G_LM_NATSAP4$#        EQU     8
  849      G_LM_NATSAP3$#        EQU    10
  850      G_LM_NATSAP2$#        EQU    12
  851      G_LM_NATSAP1$#        EQU    14
07:16 JUL 29 '97 GHI_INT_RECV_E.:E05TOU                                    24
  852      G_LM_NATSAP0$#        EQU    16
  853      G_LM_RTC_INIT#        EQU    20
  854      G_LM_RTC_CURR#        EQU    21
  855      G_LM_RTC_LVL#         EQU    22
  856      G_LM_WDT_CURR#        EQU    23
  857      G_LM_MEM_ERR_CNT#     EQU    31
  858      G_LM_LVL_ACT#         EQU    32
  859      G_LM_TV#              EQU    36
  860      G_LM_TV_RFU_1#        EQU    36
  861      G_LM_TV_T#32$#        EQU    62
  862      G_LM_TV_EXT_PROT$#    EQU    62
  863      G_LM_TV_T#33$#        EQU    64
  864      G_LM_TV_S_ARG$#       EQU    64
  865      G_LM_TV_T#31$#        EQU    66
  866      G_LM_TV_SIP_QLT$#     EQU    66
  867      G_LM_TV_T#30$#        EQU    68
  868      G_LM_TV_CIP_QLT$#     EQU    68
  869      G_LM_TV_T#29$#        EQU    70
  870      G_LM_TV_C_OV$#        EQU    70
  871      G_LM_TV_T#28$#        EQU    72
  872      G_LM_TV_C_TRUNC$#     EQU    72
  873      G_LM_TV_T#27$#        EQU    74
  874      G_LM_TV_C_CHAR$#      EQU    74
  875      G_LM_TV_T#26$#        EQU    76
  876      G_LM_TV_C_SPEC$#      EQU    76
  877      G_LM_TV_T#25$#        EQU    78
  878      G_LM_TV_C_DBZ$#       EQU    78
  879      G_LM_TV_T#24$#        EQU    80
  880      G_LM_TV_EXT_MBE$#     EQU    80
  881      G_LM_TV_T#23$#        EQU    82
  882      G_LM_TV_EXT_UR$#      EQU    82
  883      G_LM_TV_T#22$#        EQU    84
  884      G_LM_TV_S_PRECISION$# EQU    84
  885      G_LM_TV_T#21$#        EQU    86
  886      G_LM_TV_S_SIGNIF$#    EQU    86
  887      G_LM_TV_T#20$#        EQU    88
  888      G_LM_TV_S_PROG_ERR$#  EQU    88
07:16 JUL 29 '97 GHI_INT_RECV_E.:E05TOU                                    25
  889      G_LM_TV_T#19$#        EQU    90
  890      G_LM_TV_S_EXP_UF$#    EQU    90
  891      G_LM_TV_T#18$#        EQU    92
  892      G_LM_TV_T#17$#        EQU    94
  893      G_LM_TV_INT_MBE$#     EQU    94
  894      G_LM_TV_T#16$#        EQU    96
  895      G_LM_TV_PROG_ERR$#    EQU    96
  896      G_LM_TV_T#15$#        EQU    98
  897      G_LM_TV_INT_UR$#      EQU    98
  898      G_LM_TV_T#14$#        EQU   100
  899      G_LM_TV_MEM_PROT$#    EQU   100
  900      G_LM_TV_T#13$#        EQU   102
  901      G_LM_TV_PRIV$#        EQU   102
  902      G_LM_TV_T#12$#        EQU   104
  903      G_LM_TV_REMOTE_DESC$# EQU   104
  904      G_LM_TV_T#11$#        EQU   106
  905      G_LM_TV_T#10$#        EQU   108
  906      G_LM_TV_STK_OV$#      EQU   108
  907      G_LM_TV_T#09$#        EQU   110
  908      G_LM_TV_STK_UF$#      EQU   110
  909      G_LM_TV_T#08$#        EQU   112
  910      G_LM_TV_S_EXP_OV$#    EQU   112
  911      G_LM_TV_T#07$#        EQU   114
  912      G_LM_TV_S_DBZ$#       EQU   114
  913      G_LM_TV_T#06$#        EQU   116
  914      G_LM_TV_INT_REG_OV$#  EQU   116
  915      G_LM_TV_T#05$#        EQU   118
  916      G_LM_TV_UNIMPL$#      EQU   118
  917      G_LM_TV_T#04$#        EQU   120
  918      G_LM_TV_T#03$#        EQU   122
  919      G_LM_TV_NO_SIP$#      EQU   122
  920      G_LM_TV_T#02$#        EQU   124
  921      G_LM_TV_TRACE$#       EQU   124
  922      G_LM_TV_T#01$#        EQU   126
  923      G_LM_TV_MCL$#         EQU   126
  924      G_LM_IV#              EQU   128
  925      G_LM_IV_IL$#          EQU   128
07:16 JUL 29 '97 GHI_INT_RECV_E.:E05TOU                                    26
  926      G_LM_IV_INT#          EQU   128
  927      G$HHJIT#              EQU     0
  928      G$HHJIT_ASDT_USR#     EQU     0
  929      G$HHJIT_ASDT_USR_NULLSEG# EQU     0
  930      G$HHJIT_ASDT_USR_ROS# EQU     2
  931      G$HHJIT_ASDT_USR_DB_DS# EQU     4
  932      G$HHJIT_ASDT_USR_LOW_MEM# EQU     6
  933      G$HHJIT_ASDT_USR_TSTACKU# EQU     8
  934      G$HHJIT_ASDT_USR_UHJIT# EQU    10
  935      G$HHJIT_ASDT_USR_MHJIT# EQU    12
  936      G$HHJIT_ASDT_USR_MHJIT2# EQU    14
  937
  938      G$HHJIT_ASDT_USR_MON_ENTRY# EQU    18
  939      G$HHJIT_ASDT_USR_USR_DS1# EQU    20
  940      G$HHJIT_ASDT_USR_USR_DS2# EQU    22
  941      G$HHJIT_ASDT_USR_CP_DS# EQU    24
  942      G$HHJIT_ASDT_USR_ISR1# EQU    32
  943      G$HHJIT_ASDT_USR_ISR2# EQU    34
  944      G$HHJIT_ASDT_USR_ISR3# EQU    36
  945      G$HHJIT_ASDT_USR_ISR4# EQU    38
  946      G$HHJIT_ASDT_USR_ISR5# EQU    40
  947      G$HHJIT_ASDT_USR_ISR6# EQU    42
  948      G$HHJIT_ASDT_USR_ISR7# EQU    44
  949      G$HHJIT_ASDT_USR_DB_PROC# EQU    46
  950      G$HHJIT_ASDT_USR_CP_PROC# EQU    48
  951      G$HHJIT_ASDT_USR_UAUTO_DS# EQU    50
  952      G$HHJIT_ASDT_USR_USR_DS3# EQU    52
  953      G$HHJIT_ASDT_USR_USR_DS4# EQU    54
  954      G$HHJIT_ASDT_USR_HAND_Q# EQU    56
  955      G$HHJIT_ASDT_USR_LIBIS1# EQU    58
  956      G$HHJIT_ASDT_USR_LIBIS2# EQU    60
  957      G$HHJIT_ASDT_MCL#     EQU    62
  958      G$HHJIT_ASDT_MCL_NULLSEG# EQU    62
  959      G$HHJIT_ASDT_MCL_ROS# EQU    64
  960      G$HHJIT_ASDT_MCL_RDB_DS# EQU    66
  961      G$HHJIT_ASDT_MCL_LOW_MEM# EQU    68
  962      G$HHJIT_ASDT_MCL_TSTACKU# EQU    70
07:16 JUL 29 '97 GHI_INT_RECV_E.:E05TOU                                    27
  963      G$HHJIT_ASDT_MCL_UHJIT# EQU    72
  964      G$HHJIT_ASDT_MCL_MHJIT# EQU    74
  965      G$HHJIT_ASDT_MCL_MHJIT2# EQU    76
  966
  967      G$HHJIT_ASDT_MCL_MON_ENTRY# EQU    80
  968      G$HHJIT_ASDT_MCL_LPAR1# EQU    82
  969      G$HHJIT_ASDT_MCL_LPAR2# EQU    84
  970      G$HHJIT_ASDT_MCL_LPAR3# EQU    86
  971      G$HHJIT_ASDT_MCL_LPAR4# EQU    88
  972      G$HHJIT_ASDT_MCL_LPAR5# EQU    90
  973      G$HHJIT_ASDT_MCL_LPAR6# EQU    92
  974      G$HHJIT_ASDT_MCL_MON_STATIC1# EQU    94
  975      G$HHJIT_ASDT_MCL_MON_STATIC2# EQU    96
  976      G$HHJIT_ASDT_MCL_MON_PROC1# EQU    98
  977      G$HHJIT_ASDT_MCL_MON_PROC2# EQU   100
  978      G$HHJIT_ASDT_MCL_MON_PROC3# EQU   102
  979      G$HHJIT_ASDT_MCL_BPAR1# EQU   104
  980      G$HHJIT_ASDT_MCL_BPAR2# EQU   106
  981      G$HHJIT_ASDT_MCL_DB_PROC# EQU   108
  982      G$HHJIT_ASDT_MCL_WINDOW1# EQU   110
  983      G$HHJIT_ASDT_MCL_PPUT# EQU   112
  984      G$HHJIT_ASDT_MCL_CBUFFER# EQU   114
  985      G$HHJIT_ASDT_MCL_BOBCAT# EQU   116
  986      G$HHJIT_ASDT_MCL_HAND_Q# EQU   118
  987      G$HHJIT_ASDT_MCL_BIGFOOT# EQU   122
  988      G$HHJIT_ISA_HND#      EQU   124
  989      G$HHJIT_ISA_HND_ASV$# EQU   124
  990      G$HHJIT_ISA_HND_TSAP$# EQU   127
  991      G$HHJIT_ISA_HND_DEV#  EQU   129
  992      G$HHJIT_ISA_HND_ISM1# EQU   130
  993      G$HHJIT_ISA_HND_ISM2# EQU   131
  994      G$HHJIT_ISA_HND_P$$#  EQU   132
  995      G$HHJIT_ISA_HND_P$#   EQU   132
  996      G$HHJIT_ISA_HND_S#    EQU   134
  997      G$HHJIT_ISA_HND_REGS# EQU   135
  998      G$HHJIT_DMN#          EQU   124
  999      G$HHJIT_DMN_ID#       EQU   126
07:16 JUL 29 '97 GHI_INT_RECV_E.:E05TOU                                    28
 1000      G$HHJIT_TSA_HND#      EQU   182
 1001      G$HHJIT_TSA_HND_TSAL$# EQU   182
 1002      G$HHJIT_TSA_HND_I#    EQU   184
 1003      G$HHJIT_TSA_HND_R3#   EQU   185
 1004      G$HHJIT_TSA_HND_INST# EQU   186
 1005      G$HHJIT_TSA_HND_Z#    EQU   187
 1006      G$HHJIT_TSA_HND_A$#   EQU   188
 1007      G$HHJIT_TSA_HND_P$$#  EQU   190
 1008      G$HHJIT_TSA_HND_P$#   EQU   190
 1009      G$HHJIT_TSA_HND_P#    EQU   190
 1010      G$HHJIT_TSA_HND_B3$#  EQU   192
 1011      G$HHJIT_TSA_HND_S#    EQU   194
 1012      G$HHJIT_TSA_HND_ISA#  EQU   195
 1013      G$HHJIT_NATSAP$#      EQU   253
 1014      G$HHJIT_HJITPAGE#     EQU   255
 1015      G$TSA#                EQU     0
 1016      G$TSA_TSAL$#          EQU     0
 1017      G$TSA_I#              EQU     2
 1018      G$TSA_I_TRAP##        EQU     2
 1019      G$TSA_I_OV#           EQU     2
 1020      G$TSA_I_C#            EQU     2
 1021      G$TSA_I_B#            EQU     2
 1022      G$TSA_I_IO#           EQU     2
 1023      G$TSA_I_G#            EQU     2
 1024      G$TSA_I_L#            EQU     2
 1025      G$TSA_I_U#            EQU     2
 1026      G$TSA_R3#             EQU     3
 1027      G$TSA_INST#           EQU     4
 1028      G$TSA_INST_H1#        EQU     4
 1029      G$TSA_INST_OP_CODE#   EQU     4
 1030      G$TSA_Z#              EQU     5
 1031      G$TSA_Z_REG#          EQU     5
 1032      G$TSA_Z_BI#           EQU     5
 1033      G$TSA_Z_R#            EQU     5
 1034      G$TSA_Z_IS#           EQU     5
 1035      G$TSA_A$#             EQU     6
 1036      G$TSA_P$$#            EQU     8
07:16 JUL 29 '97 GHI_INT_RECV_E.:E05TOU                                    29
 1037      G$TSA_P$#             EQU     8
 1038      G$TSA_P#              EQU     8
 1039      G$TSA_B3$#            EQU    10
 1040      G$TSA_S#              EQU    12
 1041      G$TSA_S_QLT#          EQU    12
 1042      G$TSA_S_RING#         EQU    12
 1043      G$TSA_S_ID#           EQU    12
 1044      G$TSA_S_LEVEL#        EQU    12
 1045      G$TSA_ISA#            EQU    13
 1046      G$TSA_ISA_ASV$#       EQU    13
 1047      G$TSA_ISA_TSAP$#      EQU    16
 1048      G$TSA_ISA_DEV#        EQU    18
 1049      G$TSA_ISA_ISM1#       EQU    19
 1050      G$TSA_ISA_ISM2#       EQU    20
 1051      G$TSA_ISA_P$$#        EQU    21
 1052      G$TSA_ISA_P$#         EQU    21
 1053      G$TSA_ISA_S#          EQU    23
 1054      G$TSA_ISA_REGS#       EQU    24
 1055      G$ISA#                EQU     0
 1056      G$ISA_ASV$#           EQU     0
 1057      G$ISA_TSAP$#          EQU     3
 1058      G$ISA_DEV#            EQU     5
 1059      G$ISA_DEV_CHN#        EQU     5
 1060      G$ISA_DEV_IL#         EQU     5
 1061      G$ISA_ISM1#           EQU     6
 1062      G$ISA_ISM1_M1#        EQU     6
 1063      G$ISA_ISM1_R1#        EQU     6
 1064      G$ISA_ISM1_R2#        EQU     6
 1065      G$ISA_ISM1_R3#        EQU     6
 1066      G$ISA_ISM1_R4#        EQU     6
 1067      G$ISA_ISM1_R5#        EQU     6
 1068      G$ISA_ISM1_R6#        EQU     6
 1069      G$ISA_ISM1_R7#        EQU     6
 1070      G$ISA_ISM1_I#         EQU     6
 1071      G$ISA_ISM1_B1#        EQU     6
 1072      G$ISA_ISM1_B2#        EQU     6
 1073      G$ISA_ISM1_B3#        EQU     6
07:16 JUL 29 '97 GHI_INT_RECV_E.:E05TOU                                    30
 1074      G$ISA_ISM1_B4#        EQU     6
 1075      G$ISA_ISM1_B5#        EQU     6
 1076      G$ISA_ISM1_B6#        EQU     6
 1077      G$ISA_ISM1_B7#        EQU     6
 1078      G$ISA_ISM2#           EQU     7
 1079      G$ISA_ISM2_MMU#       EQU     7
 1080      G$ISA_ISM2_NATSAP_SEL# EQU     7
 1081      G$ISA_ISM2_SIP#       EQU     7
 1082      G$ISA_ISM2_CIP#       EQU     7
 1083      G$ISA_ISM2_T#         EQU     7
 1084      G$ISA_ISM2_M2_M7#     EQU     7
 1085      G$ISA_P$$#            EQU     8
 1086      G$ISA_P$#             EQU     8
 1087      G$ISA_S#              EQU    10
 1088      G$ISA_S_QLT#          EQU    10
 1089      G$ISA_S_RING#         EQU    10
 1090      G$ISA_S_ID#           EQU    10
 1091      G$ISA_S_LEVEL#        EQU    10
 1092      G$ISA_REGS#           EQU    11
 1093      G$ISA_REGS_B7$#       EQU    11
 1094      G$ISA_REGS_B6$#       EQU    13
 1095      G$ISA_REGS_B5$#       EQU    15
 1096      G$ISA_REGS_B4$#       EQU    17
 1097      G$ISA_REGS_B3$#       EQU    19
 1098      G$ISA_REGS_B2$#       EQU    21
 1099      G$ISA_REGS_B1$#       EQU    23
 1100      G$ISA_REGS_I#         EQU    25
 1101      G$ISA_REGS_R7#        EQU    26
 1102      G$ISA_REGS_R6#        EQU    27
 1103      G$ISA_REGS_R5#        EQU    28
 1104      G$ISA_REGS_R4#        EQU    29
 1105      G$ISA_REGS_R3#        EQU    30
 1106      G$ISA_REGS_R2#        EQU    31
 1107      G$ISA_REGS_R1#        EQU    32
 1108      G$ISA_REGS_M1#        EQU    33
 1109      G$ISA_REGS_M2#        EQU    34
 1110      G$ISA_REGS_M3#        EQU    35
07:16 JUL 29 '97 GHI_INT_RECV_E.:E05TOU                                    31
 1111      G$ISA_REGS_M4#        EQU    36
 1112      G$ISA_REGS_M5#        EQU    37
 1113      G$ISA_REGS_M6#        EQU    38
 1114      G$ISA_REGS_M7#        EQU    39
 1115      G$ISA_REGS_T$#        EQU    40
 1116      G$ISA_REGS_CI#        EQU    42
 1117      G$ISA_REGS_RDBR$#     EQU    43
 1118      G$REGS#               EQU     0
 1119      G$REGS_B7$#           EQU     0
 1120      G$REGS_B6$#           EQU     2
 1121      G$REGS_B5$#           EQU     4
 1122      G$REGS_B4$#           EQU     6
 1123      G$REGS_B3$#           EQU     8
 1124      G$REGS_B2$#           EQU    10
 1125      G$REGS_B1$#           EQU    12
 1126      G$REGS_I#             EQU    14
 1127      G$REGS_I_TRAP##       EQU    14
 1128      G$REGS_I_OV#          EQU    14
 1129      G$REGS_I_C#           EQU    14
 1130      G$REGS_I_B#           EQU    14
 1131      G$REGS_I_IO#          EQU    14
 1132      G$REGS_I_G#           EQU    14
 1133      G$REGS_I_L#           EQU    14
 1134      G$REGS_I_U#           EQU    14
 1135      G$REGS_R7#            EQU    15
 1136      G$REGS_R6#            EQU    16
 1137      G$REGS_R5#            EQU    17
 1138      G$REGS_R4#            EQU    18
 1139      G$REGS_R3#            EQU    19
 1140      G$REGS_R2#            EQU    20
 1141      G$REGS_R1#            EQU    21
 1142      G$REGS_M1#            EQU    22
 1143      G$REGS_M1_J#          EQU    22
 1144      G$REGS_M1_R1_OV#      EQU    22
 1145      G$REGS_M1_R2_OV#      EQU    22
 1146      G$REGS_M1_R3_OV#      EQU    22
 1147      G$REGS_M1_R4_OV#      EQU    22
07:16 JUL 29 '97 GHI_INT_RECV_E.:E05TOU                                    32
 1148      G$REGS_M1_R5_OV#      EQU    22
 1149      G$REGS_M1_R6_OV#      EQU    22
 1150      G$REGS_M1_R7_OV#      EQU    22
 1151      G$REGS_M2#            EQU    23
 1152      G$REGS_M3#            EQU    24
 1153      G$REGS_M3_CIP_OV#     EQU    24
 1154      G$REGS_M3_CIP_TR#     EQU    24
 1155      G$REGS_M3_RFU#        EQU    24
 1156      G$REGS_M4#            EQU    25
 1157      G$REGS_M4_RT#         EQU    25
 1158      G$REGS_M4_SA1_ML#     EQU    25
 1159      G$REGS_M4_SA1_AL#     EQU    25
 1160      G$REGS_M4_SA2_ML#     EQU    25
 1161      G$REGS_M4_SA2_AL#     EQU    25
 1162      G$REGS_M4_SA3_ML#     EQU    25
 1163      G$REGS_M4_SA3_AL#     EQU    25
 1164      G$REGS_M5#            EQU    26
 1165      G$REGS_M5_EUM#        EQU    26
 1166      G$REGS_M5_SEM#        EQU    26
 1167      G$REGS_M5_PEM#        EQU    26
 1168      G$REGS_M5_RFU#        EQU    26
 1169      G$REGS_M6#            EQU    27
 1170      G$REGS_M7#            EQU    28
 1171      G$REGS_T$#            EQU    29
 1172      G$REGS_CI#            EQU    31
 1173      G$REGS_CI_OV#         EQU    31
 1174      G$REGS_CI_TR#         EQU    31
 1175      G$REGS_CI_SF#         EQU    31
 1176      G$REGS_CI_G#          EQU    31
 1177      G$REGS_CI_L#          EQU    31
 1178      G$REGS_CI_QLT#        EQU    31
 1179      G$REGS_RDBR$#         EQU    32

