VERSION E05

PL6.E3A0      #001=GHR$RTC_MON File=GHR$RTC.:E05TSI                              TUE 07/29/97 21:36 Page:1
        1        1        /*M*  Real Time Clock Interrupt Service Routines                    */
        2        2        /*T***********************************************************/
        3        3        /*T*                                                         */
        4        4        /*T* Copyright (c) Bull HN Information Systems Inc., 1997    */
        5        5        /*T*                                                         */
        6        6        /*T***********************************************************/
        7        7        /*P*
        8        8             NAME: GHR$RTC
        9        9             PURPOSE:  Contains PL6 procedures for the Real Time Clock.
       10       10                                                                            */
       11       11        /*D* NAME: GHR$RTC
       12       12             PURPOSE:  To service the Real Time Clock Interrupt level.
       13       13             CALL: CALL GHR$RTC;
       14       14             DESCRIPTION:  This procedure is called from a L6ASM routine that
       15       15             received control when the RTC Interrupt was triggered.  It is
       16       16             contained in the Monitor IS.  If the monitor was interrupted,
       17       17             it returns.  If the user was interrupted, it calls GHS$MONTIMERWU
       18       18             to handle clock runout requests.  Then it calls GHQ$QEND to check
       19       19             if the interrupted user should be quantum ended.  If so, the
       20       20             ALTRET return is taken.  If the user is to continue running, the
       21       21             normal return is taken.                                        */
       22       22
       23       23        GHR$RTC_MON: PROC ALTRET;
       24       24
       25       25        /*x*                               */
       26       26        %INCLUDE GH_SCHD_E;
       27      122        %INCLUDE G_HJIT_M;
       28      267        %INCLUDE GH_HARDWARE_M;
       29      365 S      %INCLUDE G_LCP6_E;
       30      366 S      %INCLUDE GH_LCP6_M;
       31      367
       32      368        %G$MHJIT (STCLASS="BASED(G$MHJIT$)");
       33     7242        %G$UHJIT (STCLASS="BASED(G$UHJIT$)");
       34    10216        %G$LOW_MEM (STCLASS="BASED(G$LOW_MEM$)");
       35    10265
       36    10266    1   DCL GHQ$QEND ENTRY ALTRET;
       37    10267    1   DCL GHR$MON ENTRY;
PL6.E3A0      #001=GHR$RTC_MON File=GHR$RTC.:E05TSI                              TUE 07/29/97 21:36 Page:2
       38    10268    1   DCL GHR$USR ENTRY;
       39    10269    1   DCL GHR$IDL ENTRY;
       40    10270    1   DCL GHS$MONTIMRWU ENTRY;
       41    10271
       42    10272    1   DCL G$UHJIT$ PTR SYMREF;
       43    10273    1   DCL G$MHJIT$ PTR SYMREF;
       44    10274    1   DCL G$LOW_MEM$ PTR SYMREF;
       45    10275    1   DCL G_CPUSTATE(0:3) UBIN SYMREF;
       46    10276
       47    10277    1   DCL I UBIN;
       48    10278
       49    10279        %EJECT;
PL6.E3A0      #001=GHR$RTC_MON File=GHR$RTC.:E05TSI                              TUE 07/29/97 21:36 Page:3
       50    10280
       51    10281    1        IF G$MHJIT.INTRVL_TYPE = %GH_USRXEQ THEN
       52    10282    1           RETURN;
       53    10283    2        IF G_CPUSTATE(G$MHJIT.PNO) = %G_IDLE# THEN DO;
       54    10284    2           CALL GHR$IDL;
       55    10285    2           CALL GHS$MONTIMRWU;
       56    10286    2           END;
       57    10287    1   QEND: ALTRETURN;
       58    10288
       59    10289
       60    10290        /*      Check for quantum end              */
       61    10291    1   GHR$RTC_USR: ENTRY ALTRET;
       62    10292
       63    10293        /*      Set Monitor running               */
       64    10294    1        CALL GHR$MON;
       65    10295    1        CALL GHS$MONTIMRWU;
       66    10296    1        CALL GHQ$QEND ALTRET(QEND);
       67    10297    1        CALL GHR$USR;
       68    10298    1        RETURN;
       69    10299
       70    10300
       71    10301    1   GHR$INITENT: ENTRY ALTRET;
       72    10302    2        DO WHILE ('1'B);
       73    10303    2           I = 0;
       74    10304    2           END;
       75    10305    1        END GHR$RTC_MON;
       76    10306        %EOD;

PL6.E3A0      #001=GHR$RTC_MON File=GHR$RTC.:E05TSI                              TUE 07/29/97 21:36 Page:4
--  Include file information  --

   GH_HARDWARE_M.:E05TOU  is referenced.
   G_HJIT_M.:E05TOU  is referenced.
   GH_SCHD_E.:E05TOU  is referenced.
   G_LCP6_E.:E05TOU  was found in the system file and is referenced.
   GT_LCP6_M.:E05TOU  was found in the system file and is never referenced.
   KI_CP6.:E05TOU  was found in the system file and is never referenced.
   GF_LCP6_M.:E05TOU  was found in the system file and is never referenced.
   GM_LCP6_M.:E05TOU  was found in the system file and is never referenced.
   GU_LCP6_M.:E05TOU  was found in the system file and is never referenced.
   GJ_LCP6_M.:E05TOU  was found in the system file and is never referenced.
   GH_LCP6_M.:E05TOU  was found in the system file and is referenced.
      No diagnostics issued in procedure GHR$RTC_MON.

   Procedure GHR$RTC_MON requires 77 words for executable code.
   Procedure GHR$RTC_MON requires 6 words of local(AUTO) storage.

PL6.E3A0      #001=GHR$RTC_MON File=GHR$RTC.:E05TSI                              TUE 07/29/97 21:36 Page:5

 Object Unit name= GHR$RTC_MON                                File name= GHR$RTC.:E05TOU
 UTS= JUL 29 '97 21:36:58.24 TUE                              Compiler= PL-6/E31         Sev=      00
 SharedLib= :SHARED_LCP6_SYSTEM                               Alt SharedLib=


    ****  Control sections  ****

 Sect   Type Bound  Init  Size HexSiz  Section name
    0   Proc  even  none    77     4D  GHR$RTC_MON

    ****  Entry defs  ****

                              Check   Calling
                             calling  sequence
  Sect HexLoc Primary Altret sequence   type   Parms  Name
     0      0   yes    yes     yes      Std        0  GHR$RTC_MON
     0     25          yes     yes      Std        0  GHR$RTC_USR
     0     45          yes     yes      Std        0  GHR$INITENT

  ****  Entry refs  ****

         Check        Calling
        calling       sequence
Altret sequence SRef   type   Args  Name
         yes           Std       0 GHR$IDL
         yes           Std       0 GHS$MONTIMRWU
         yes           Std       0 GHR$MON
 yes     yes           Std       0 GHQ$QEND
         yes           Std       0 GHR$USR
                       nStd      0 X6A_AUTO_0
                       nStd      0 X6A_ARET
                       nStd      0 X6A_AALT
PL6.E3A0      #001=GHR$RTC_MON File=GHR$RTC.:E05TSI                              TUE 07/29/97 21:36 Page:6

  ****  Data refs  ****

  Flags:  r = read only, s = secondary
Flgs Name                             Flgs Name                             Flgs Name
     G$UHJIT$                              G$MHJIT$                              G$LOW_MEM$
     G_CPUSTATE                       r    G$ROS$
PL6.E3A0      #001=GHR$RTC_MON File=GHR$RTC.:E05TSI                              TUE 07/29/97 21:36 Page:7


        1        1        /*M*  Real Time Clock Interrupt Service Routines                    */
        2        2        /*T***********************************************************/
        3        3        /*T*                                                         */
        4        4        /*T* Copyright (c) Bull HN Information Systems Inc., 1997    */
        5        5        /*T*                                                         */
        6        6        /*T***********************************************************/
        7        7        /*P*
        8        8             NAME: GHR$RTC
        9        9             PURPOSE:  Contains PL6 procedures for the Real Time Clock.
       10       10                                                                            */
       11       11        /*D* NAME: GHR$RTC
       12       12             PURPOSE:  To service the Real Time Clock Interrupt level.
       13       13             CALL: CALL GHR$RTC;
       14       14             DESCRIPTION:  This procedure is called from a L6ASM routine that
       15       15             received control when the RTC Interrupt was triggered.  It is
       16       16             contained in the Monitor IS.  If the monitor was interrupted,
       17       17             it returns.  If the user was interrupted, it calls GHS$MONTIMERWU
       18       18             to handle clock runout requests.  Then it calls GHQ$QEND to check
       19       19             if the interrupted user should be quantum ended.  If so, the
       20       20             ALTRET return is taken.  If the user is to continue running, the
       21       21             normal return is taken.                                        */
       22       22
       23       23        GHR$RTC_MON: PROC ALTRET;

     23   0 000000  D380 0000 0000  xent GHR$RTC_MON     LNJ,B5   X6A_AUTO_0
          0 000003       0006 0000                       DC       6,0

       24       24
       25       25        /*x*                               */
       26       26        %INCLUDE GH_SCHD_E;
       27      122        %INCLUDE G_HJIT_M;
       28      267        %INCLUDE GH_HARDWARE_M;
       29      365 S      %INCLUDE G_LCP6_E;
       30      366 S      %INCLUDE GH_LCP6_M;
       31      367
       32      368        %G$MHJIT (STCLASS="BASED(G$MHJIT$)");
PL6.E3A0      #001=GHR$RTC_MON File=GHR$RTC.:E05TSI                              TUE 07/29/97 21:36 Page:8
       33     7242        %G$UHJIT (STCLASS="BASED(G$UHJIT$)");
       34    10216        %G$LOW_MEM (STCLASS="BASED(G$LOW_MEM$)");
       35    10265
       36    10266    1   DCL GHQ$QEND ENTRY ALTRET;
       37    10267    1   DCL GHR$MON ENTRY;
       38    10268    1   DCL GHR$USR ENTRY;
       39    10269    1   DCL GHR$IDL ENTRY;
       40    10270    1   DCL GHS$MONTIMRWU ENTRY;
       41    10271
       42    10272    1   DCL G$UHJIT$ PTR SYMREF;
       43    10273    1   DCL G$MHJIT$ PTR SYMREF;
       44    10274    1   DCL G$LOW_MEM$ PTR SYMREF;
       45    10275    1   DCL G_CPUSTATE(0:3) UBIN SYMREF;
       46    10276
       47    10277    1   DCL I UBIN;
       48    10278
       49    10279        %EJECT;
PL6.E3A0      #001=GHR$RTC_MON File=GHR$RTC.:E05TSI                              TUE 07/29/97 21:36 Page:9
       50    10280
       51    10281    1        IF G$MHJIT.INTRVL_TYPE = %GH_USRXEQ THEN

  10281   0 000005  EC80 0000 0000  xsym                 LDB,B6   G$MHJIT$
          0 000008  E846 0355                            LDR,R6   853,B6
          0 00000A  6981 0004                            BNEZ,R6  s:10283,PREL

       52    10282    1           RETURN;

  10282   0 00000C  C380 0000 0000  xent                 LNJ,B4   X6A_ARET

       53    10283    2        IF G_CPUSTATE(G$MHJIT.PNO) = %G_IDLE# THEN DO;

  10283   0 00000F  B846 0354                            LDR,R3   852,B6
          0 000011  D830 0000 0000  xsym                 LDR,R5   G_CPUSTATE,R3
          0 000014  5981 000D                            BNEZ,R5  s:10286,PREL

       54    10284    2           CALL GHR$IDL;

  10284   0 000016  CBF0 0000                            LAB,B4   0,IMO
          0 000018  E380 0000 0000  xent                 LNJ,B6   GHR$IDL
          0 00001B       0001                            DC       s:10285,PREL

       55    10285    2           CALL GHS$MONTIMRWU;

  10285   0 00001C  CBF0 0000                            LAB,B4   0,IMO
          0 00001E  E380 0000 0000  xent                 LNJ,B6   GHS$MONTIMRWU
          0 000021       0001                            DC       s:10286,PREL

       56    10286    2           END;

       57    10287    1   QEND: ALTRETURN;

  10287   0 000022  C380 0000 0000  xent QEND            LNJ,B4   X6A_AALT

       58    10288
       59    10289
PL6.E3A0      #001=GHR$RTC_MON File=GHR$RTC.:E05TSI                              TUE 07/29/97 21:36 Page:10
       60    10290        /*      Check for quantum end              */
       61    10291    1   GHR$RTC_USR: ENTRY ALTRET;

  10291   0 000025  D380 0000 0000  xent GHR$RTC_USR     LNJ,B5   X6A_AUTO_0
          0 000028       0006 0000                       DC       6,0

       62    10292
       63    10293        /*      Set Monitor running               */
       64    10294    1        CALL GHR$MON;

  10294   0 00002A  CBF0 0000                            LAB,B4   0,IMO
          0 00002C  E380 0000 0000  xent                 LNJ,B6   GHR$MON
          0 00002F       0001                            DC       s:10295,PREL

       65    10295    1        CALL GHS$MONTIMRWU;

  10295   0 000030  CBF0 0000                            LAB,B4   0,IMO
          0 000032  E380 0000 0000  xent                 LNJ,B6   GHS$MONTIMRWU
          0 000035       0001                            DC       s:10296,PREL

       66    10296    1        CALL GHQ$QEND ALTRET(QEND);

  10296   0 000036  CBF0 0000                            LAB,B4   0,IMO
          0 000038  E380 0000 0000  xent                 LNJ,B6   GHQ$QEND
          0 00003B       FFE7                            DC       s:10286,PREL

       67    10297    1        CALL GHR$USR;

  10297   0 00003C  CBF0 0000                            LAB,B4   0,IMO
          0 00003E  E380 0000 0000  xent                 LNJ,B6   GHR$USR
          0 000041       0001                            DC       s:10298,PREL

       68    10298    1        RETURN;

  10298   0 000042  C380 0000 0000  xent                 LNJ,B4   X6A_ARET

       69    10299
PL6.E3A0      #001=GHR$RTC_MON File=GHR$RTC.:E05TSI                              TUE 07/29/97 21:36 Page:11
       70    10300
       71    10301    1   GHR$INITENT: ENTRY ALTRET;

  10301   0 000045  D380 0000 0000  xent GHR$INITENT     LNJ,B5   X6A_AUTO_0
          0 000048       0006 0000                       DC       6,0

       72    10302    2        DO WHILE ('1'B);

       73    10303    2           I = 0;

  10303   0 00004A  8747 0004                            CL       I,AUTO

       74    10304    2           END;

  10304   0 00004C  0FFE                                 B        s:10303,SPREL
       75    10305    1        END GHR$RTC_MON;
       76    10306        %EOD;

PL6.E3A0      #001=GHR$RTC_MON File=GHR$RTC.:E05TSI                              TUE 07/29/97 21:36 Page:12
--  Include file information  --

   GH_HARDWARE_M.:E05TOU  is referenced.
   G_HJIT_M.:E05TOU  is referenced.
   GH_SCHD_E.:E05TOU  is referenced.
   G_LCP6_E.:E05TOU  was found in the system file and is referenced.
   GT_LCP6_M.:E05TOU  was found in the system file and is never referenced.
   KI_CP6.:E05TOU  was found in the system file and is never referenced.
   GF_LCP6_M.:E05TOU  was found in the system file and is never referenced.
   GM_LCP6_M.:E05TOU  was found in the system file and is never referenced.
   GU_LCP6_M.:E05TOU  was found in the system file and is never referenced.
   GJ_LCP6_M.:E05TOU  was found in the system file and is never referenced.
   GH_LCP6_M.:E05TOU  was found in the system file and is referenced.
      No diagnostics issued in procedure GHR$RTC_MON.
PL6.E3A0      #001=GHR$RTC_MON File=GHR$RTC.:E05TSI                              TUE 07/29/97 21:36 Page:13

 **** Variables and constants ****

  ****  Auto variables  ****

  ****  Scalars and arrays  ****
HexLoc.c.b A Datatyp(siz) R M Lvl/name                 HexLoc.c.b A Datatyp(siz) R M Lvl/name

     4-0-0/w UBIN(16)    r     1 I

  ****  SYMREF variables  ****

  ****  Scalars and arrays  ****
HexLoc.c.b A Datatyp(siz) R M Lvl/name                 HexLoc.c.b A Datatyp(siz) R M Lvl/name

     0-0-0/w PTR         r     1 G$LOW_MEM$                 0-0-0/w PTR         r     1 G$MHJIT$
     0-0-0/w PTR         r     1 G$UHJIT$
     0-0-0/w UBIN(16)    r     1 G_CPUSTATE(0:3)

  ****  BASED and DCB variables  ****

  ****  Scalars and arrays  ****
HexLoc.c.b A Datatyp(siz) R M Lvl/name                 HexLoc.c.b A Datatyp(siz) R M Lvl/name

     0-0-0/w STRC(27232) r     1 G$MHJIT


   Procedure GHR$RTC_MON requires 77 words for executable code.
   Procedure GHR$RTC_MON requires 6 words of local(AUTO) storage.
PL6.E3A0      #001=GHR$RTC_MON File=GHR$RTC.:E05TSI                              TUE 07/29/97 21:36 Page:14
          *** CROSS REFERENCE LISTING ***
**     DENOTES     IDENTIFIER DEFINITION
<<                 IDENTIFIER'S VALUE SET
>>                 IDENTIFIER'S VALUE USED
<>                 IDENTIFIER SET AND/OR USED
--                 IDENTIFIER REFERENCED
PL6.E3A0      #001=GHR$RTC_MON File=GHR$RTC.:E05TSI                              TUE 07/29/97 21:36 Page:15
          MINI XREF LISTING

G$LOW_MEM.IV.IL$
     10258**DCL     10258--REDEF
G$LOW_MEM.IV.INT.I#00$
     10258**DCL     10258--REDEF
G$LOW_MEM.IV.INT.I#01$
     10258**DCL     10258--REDEF
G$LOW_MEM.IV.INT.I#02$
     10259**DCL     10259--REDEF
G$LOW_MEM.IV.INT.I#03$
     10259**DCL     10259--REDEF
G$LOW_MEM.IV.INT.I#04$
     10259**DCL     10260--REDEF
G$LOW_MEM.IV.INT.I#05$
     10260**DCL     10260--REDEF
G$LOW_MEM.IV.INT.I#61$
     10261**DCL     10261--REDEF
G$LOW_MEM.IV.INT.I#62$
     10261**DCL     10261--REDEF
G$LOW_MEM.IV.INT.I#63$
     10261**DCL     10261--REDEF
G$LOW_MEM.TV.T#01$
     10246**DCL     10246--REDEF
G$LOW_MEM.TV.T#02$
     10246**DCL     10246--REDEF
G$LOW_MEM.TV.T#03$
     10245**DCL     10245--REDEF
G$LOW_MEM.TV.T#05$
     10245**DCL     10245--REDEF
G$LOW_MEM.TV.T#06$
     10244**DCL     10244--REDEF
G$LOW_MEM.TV.T#07$
     10244**DCL     10244--REDEF
PL6.E3A0      #001=GHR$RTC_MON File=GHR$RTC.:E05TSI                              TUE 07/29/97 21:36 Page:16
G$LOW_MEM.TV.T#08$
     10243**DCL     10244--REDEF
G$LOW_MEM.TV.T#09$
     10243**DCL     10243--REDEF
G$LOW_MEM.TV.T#10$
     10243**DCL     10243--REDEF
G$LOW_MEM.TV.T#12$
     10242**DCL     10242--REDEF
G$LOW_MEM.TV.T#13$
     10242**DCL     10242--REDEF
G$LOW_MEM.TV.T#14$
     10241**DCL     10241--REDEF
G$LOW_MEM.TV.T#15$
     10241**DCL     10241--REDEF
G$LOW_MEM.TV.T#16$
     10240**DCL     10241--REDEF
G$LOW_MEM.TV.T#17$
     10240**DCL     10240--REDEF
G$LOW_MEM.TV.T#19$
     10239**DCL     10240--REDEF
G$LOW_MEM.TV.T#20$
     10239**DCL     10239--REDEF
G$LOW_MEM.TV.T#21$
     10239**DCL     10239--REDEF
G$LOW_MEM.TV.T#22$
     10238**DCL     10238--REDEF
G$LOW_MEM.TV.T#23$
     10238**DCL     10238--REDEF
G$LOW_MEM.TV.T#24$
     10237**DCL     10238--REDEF
G$LOW_MEM.TV.T#25$
     10237**DCL     10237--REDEF
G$LOW_MEM.TV.T#26$
     10237**DCL     10237--REDEF
G$LOW_MEM.TV.T#27$
     10236**DCL     10236--REDEF
PL6.E3A0      #001=GHR$RTC_MON File=GHR$RTC.:E05TSI                              TUE 07/29/97 21:36 Page:17
G$LOW_MEM.TV.T#28$
     10236**DCL     10236--REDEF
G$LOW_MEM.TV.T#29$
     10235**DCL     10236--REDEF
G$LOW_MEM.TV.T#30$
     10235**DCL     10235--REDEF
G$LOW_MEM.TV.T#31$
     10235**DCL     10235--REDEF
G$LOW_MEM.TV.T#32$
     10234**DCL     10234--REDEF
G$LOW_MEM.TV.T#33$
     10234**DCL     10234--REDEF
G$LOW_MEM$
     10274**DCL     10221--IMP-PTR
G$MHJIT.INTCON.HHJIT
      6847**DCL      6847--REDEF
G$MHJIT.INTCON.P$$
      6820**DCL      6820--REDEF
G$MHJIT.INTRVL_TYPE
      6714**DCL     10281>>IF
G$MHJIT.ISA_BIGFOOT.P$$
      3765**DCL      3765--REDEF
G$MHJIT.ISA_DBINH.P$$
      4979**DCL      4979--REDEF
G$MHJIT.ISA_IDLE.P$$
      1860**DCL      1860--REDEF
G$MHJIT.ISA_LVL10.P$$
      5282**DCL      5282--REDEF
G$MHJIT.ISA_LVL11.P$$
      5585**DCL      5585--REDEF
G$MHJIT.ISA_LVL12.P$$
      5888**DCL      5888--REDEF
G$MHJIT.ISA_LVL5.P$$
      4068**DCL      4068--REDEF
G$MHJIT.ISA_OV.P$$
      3462**DCL      3462--REDEF
PL6.E3A0      #001=GHR$RTC_MON File=GHR$RTC.:E05TSI                              TUE 07/29/97 21:36 Page:18
G$MHJIT.ISA_PFS.P$$
      3133**DCL      3133--REDEF
G$MHJIT.ISA_RT_CLOCK.P$$
      6495**DCL      6495--REDEF
G$MHJIT.ISA_SATYR_RCV.P$$
      4372**DCL      4372--REDEF
G$MHJIT.ISA_SATYR_TRN.P$$
      4676**DCL      4676--REDEF
G$MHJIT.ISA_SCHD.P$$
      6191**DCL      6191--REDEF
G$MHJIT.ISA_WDOG.P$$
      3241**DCL      3241--REDEF
G$MHJIT.PNO
      6713**DCL     10283>>IF
G$MHJIT.TSA_DB.ISA.P$$
      2463**DCL      2463--REDEF
G$MHJIT.TSA_DB.P$$
      2334**DCL      2334--REDEF    2335--REDEF
G$MHJIT.TSA_HND.ISA.P$$
      7041**DCL      7041--REDEF
G$MHJIT.TSA_HND.P$$
      6912**DCL      6912--REDEF    6913--REDEF
G$MHJIT.TSA_MON.ISA.P$$
      2075**DCL      2075--REDEF
G$MHJIT.TSA_MON.P$$
      1946**DCL      1946--REDEF    1947--REDEF
G$MHJIT.TSA_OV.ISA.P$$
      2851**DCL      2851--REDEF
G$MHJIT.TSA_OV.P$$
      2722**DCL      2722--REDEF    2723--REDEF
G$MHJIT$
     10273**DCL       385--IMP-PTR 10281>>IF      10283>>IF
G$UHJIT.ISA_USR
      8682**DCL      8977--REDEF
G$UHJIT.ISA_USR.P$$
      8757**DCL      8757--REDEF
PL6.E3A0      #001=GHR$RTC_MON File=GHR$RTC.:E05TSI                              TUE 07/29/97 21:36 Page:19
G$UHJIT.TSA_CP.ISA.P$$
      9964**DCL      9964--REDEF
G$UHJIT.TSA_CP.P$$
      9835**DCL      9835--REDEF    9836--REDEF
G$UHJIT.TSA_DB.ISA.P$$
      9576**DCL      9576--REDEF
G$UHJIT.TSA_DB.P$$
      9447**DCL      9447--REDEF    9448--REDEF
G$UHJIT.TSA_RTT.P$$
     10210**DCL     10210--REDEF   10211--REDEF
G$UHJIT.TSA_USR.ISA.P$$
      9166**DCL      9166--REDEF
G$UHJIT.TSA_USR.P$$
      9037**DCL      9037--REDEF    9038--REDEF
G$UHJIT$
     10272**DCL      7259--IMP-PTR
GHQ$QEND
     10266**DCL-ENT 10296--CALL
GHR$IDL
     10269**DCL-ENT 10284--CALL
GHR$MON
     10267**DCL-ENT 10294--CALL
GHR$USR
     10268**DCL-ENT 10297--CALL
GHS$MONTIMRWU
     10270**DCL-ENT 10285--CALL    10295--CALL
G_CPUSTATE
     10275**DCL     10283>>IF
I
     10277**DCL     10303<<ASSIGN
QEND
     10287**LABEL   10296--CALLALT

PL6.E3A0      #002=GHR$CLOCK File=GHR$RTC.:E05TSI                                TUE 07/29/97 21:38 Page:20
       77        1        /*T***********************************************************/
       78        2        /*T*                                                         */
       79        3        /*T* Copyright (c) Bull HN Information Systems Inc., 1997    */
       80        4        /*T*                                                         */
       81        5        /*T***********************************************************/
       82        6        /*P* NAME: GHR$CLOCK
       83        7             PURPOSE: To maintain execution times for the monitor and user.
       84        8                                                                           */
       85        9        GHR$CLOCK: PROC;
       86       10
       87       11        %INCLUDE GH_SCHD_E;
       88      107        %INCLUDE G_JIT_M;
       89      372 S      %INCLUDE GU_LCP6_M;
       90      373 S      %INCLUDE GH_LCP6_M;
       91      374        %INCLUDE GH_HARDWARE_M;
       92      472        %INCLUDE G_HJIT_M;
       93      617        %INCLUDE GH_GATE_M;
       94      658        %INCLUDE P_FEP_M;
       95     1096        %INCLUDE KL_MACRO_C;
       96     4448        %INCLUDE KL_AFCN_C;
       97     4549        %INCLUDE K_ID_E;
       98     4599
       99     4600
      100     4601        %G$MHJIT (STCLASS="BASED(G$MHJIT$)");
      101    11475        %G$JIT (STCLASS="BASED(G$JIT$)");
      102    11889        %GH_LEV (FPTN=GH_LEV_INHIBIT,STCLASS=SYMREF);
      103    11911        %GH_LEV (FPTN=GH_LEV_SUS,STCLASS=SYMREF);
      104    11933        %K#ENTID_E;
      105    11952        %K#LYRID_E;
      106    11959
      107    11960        %PS_LCP6STT (STCLASS=SYMREF);
      108    12464
      109    12465    1   DCL TICKS UBIN;
      110    12466    1   DCL I UBIN;
      111    12467        %GATE (FPTN=GATR,STCLASS="");
      112    12486
      113    12487    1   DCL G_MXEQTIME UBIN(32) SYMREF;
PL6.E3A0      #002=GHR$CLOCK File=GHR$RTC.:E05TSI                                TUE 07/29/97 21:38 Page:21
      114    12488    1   DCL G_MIDLTIME UBIN(32) SYMREF;
      115    12489    1   DCL G$JIT$ PTR SYMREF;
      116    12490    1   DCL G$MHJIT$ PTR SYMREF;
      117    12491
      118    12492
      119    12493    1   DCL GHI$STRT_INTRVL ENTRY(1);
      120    12494    1   DCL GHH$LEV ENTRY(1);
      121    12495
      122    12496
      123    12497    1   GHR$MON: ENTRY;
      124    12498    1           I=%GH_MONXEQ;
      125    12499    1           CALL COMMON;
      126    12500    1           RETURN;
      127    12501
      128    12502    1   GHR$USR: ENTRY;
      129    12503    1           I=%GH_USRXEQ;
      130    12504    1           CALL COMMON;
      131    12505    1           RETURN;
      132    12506
      133    12507    1   GHR$SRV: ENTRY;
      134    12508    1           I=%GH_USRSRV;
      135    12509    1           CALL COMMON;
      136    12510    1           RETURN;
      137    12511
      138    12512    1   GHR$IDL: ENTRY;
      139    12513    1           I=%GH_MONIDL;
      140    12514    1           CALL COMMON;
      141    12515    1           RETURN;
      142    12516
      143    12517    1   COMMON: PROC;
      144    12518    2           GATR = '1'B;
      145    12519                %LOCK (G=GATR);
      146    12526    2           CALL GHI$STRT_INTRVL (TICKS);
      147    12527    3           DO CASE (G$MHJIT.INTRVL_TYPE);
      148    12528    3            CASE (%GH_USRXEQ);
      149    12529    3              G$JIT.XTIME=G$JIT.XTIME+TICKS;
      150    12530    3            CASE (%GH_USRSRV);
PL6.E3A0      #002=GHR$CLOCK File=GHR$RTC.:E05TSI                                TUE 07/29/97 21:38 Page:22
      151    12531    3              G$JIT.STIME=G$JIT.STIME+TICKS;
      152    12532    3            CASE (%GH_MONXEQ);
      153    12533    3              PS_LCP6STT.MXEQTIME(G$MHJIT.PNO)=PS_LCP6STT.MXEQTIME(G$MHJIT.PNO)+TICKS;
      154    12534    3            CASE (%GH_MONIDL);
      155    12535    3              PS_LCP6STT.MIDLTIME(G$MHJIT.PNO)=PS_LCP6STT.MIDLTIME(G$MHJIT.PNO)+TICKS;
      156    12536    3            END;
      157    12537    2           G$MHJIT.INTRVL_TYPE=I;
      158    12538                %UNLOCK (G=GATR);
      159    12545    2           RETURN;
      160    12546    2   END;
      161    12547    1   END;

PL6.E3A0      #002=GHR$CLOCK File=GHR$RTC.:E05TSI                                TUE 07/29/97 21:38 Page:23
--  Include file information  --

   K_ID_E.:E05TOU  is referenced.
   KL_AFCN_C.:E05TOU  is referenced.
   KL_MACRO_C.:E05TOU  is referenced.
   P_FEP_M.:E05TOU  is referenced.
   GH_GATE_M.:E05TOU  cannot be made into a system file and is referenced.
   G_HJIT_M.:E05TOU  is referenced.
   GH_HARDWARE_M.:E05TOU  is referenced.
   G_JIT_M.:E05TOU  is referenced.
   GH_SCHD_E.:E05TOU  is referenced.
   G_LCP6_E.:E05TOU  was found in the system file and is never referenced.
   GT_LCP6_M.:E05TOU  was found in the system file and is never referenced.
   KI_CP6.:E05TOU  was found in the system file and is never referenced.
   GF_LCP6_M.:E05TOU  was found in the system file and is never referenced.
   GM_LCP6_M.:E05TOU  was found in the system file and is never referenced.
   GU_LCP6_M.:E05TOU  was found in the system file and is referenced.
   GJ_LCP6_M.:E05TOU  was found in the system file and is never referenced.
   GH_LCP6_M.:E05TOU  was found in the system file and is referenced.
      No diagnostics issued in procedure GHR$CLOCK.

   Procedure GHR$CLOCK requires 181 words for executable code.
   Procedure GHR$CLOCK requires 14 words of local(AUTO) storage.

    No errors detected in file GHR$RTC.:E05TSI    .

PL6.E3A0      #002=GHR$CLOCK File=GHR$RTC.:E05TSI                                TUE 07/29/97 21:38 Page:24

 Object Unit name= GHR$CLOCK                                  File name= GHR$RTC.:E05TOU
 UTS= JUL 29 '97 21:38:05.60 TUE                              Compiler= PL-6/E31         Sev=      00
 SharedLib= :SHARED_LCP6_SYSTEM                               Alt SharedLib=


    ****  Control sections  ****

 Sect   Type Bound  Init  Size HexSiz  Section name
    0   Proc  even  none   181     B5  GHR$CLOCK

    ****  Entry defs  ****

                              Check   Calling
                             calling  sequence
  Sect HexLoc Primary Altret sequence   type   Parms  Name
     0      0   yes            yes      Std        0  GHR$CLOCK
     0      7                  yes      Std        0  GHR$MON
     0     15                  yes      Std        0  GHR$USR
     0     22                  yes      Std        0  GHR$SRV
     0     30                  yes      Std        0  GHR$IDL

  ****  Entry refs  ****

         Check        Calling
        calling       sequence
Altret sequence SRef   type   Args  Name
 yes     yes           Std       1 GHH$LOCK
 yes     yes           Std       1 GHH$UNLOCK
         yes           Std       1 GHI$STRT_INTRVL
                       nStd      0 X6A_AUTO_0
                       nStd      0 X6A_ARET
PL6.E3A0      #002=GHR$CLOCK File=GHR$RTC.:E05TSI                                TUE 07/29/97 21:38 Page:25

  ****  Data refs  ****

  Flags:  r = read only, s = secondary
Flgs Name                             Flgs Name                             Flgs Name
     PS_LCP6STT                            G$JIT$                                G$MHJIT$
r    G$ROS$
PL6.E3A0      #002=GHR$CLOCK File=GHR$RTC.:E05TSI                                TUE 07/29/97 21:38 Page:26


       77        1        /*T***********************************************************/
       78        2        /*T*                                                         */
       79        3        /*T* Copyright (c) Bull HN Information Systems Inc., 1997    */
       80        4        /*T*                                                         */
       81        5        /*T***********************************************************/
       82        6        /*P* NAME: GHR$CLOCK
       83        7             PURPOSE: To maintain execution times for the monitor and user.
       84        8                                                                           */
       85        9        GHR$CLOCK: PROC;

      9   0 000000  D380 0000 0000  xent GHR$CLOCK       LNJ,B5   X6A_AUTO_0
          0 000003       000E 0000                       DC       14,0
          0 000005  0F81 0006                            B        s:12498,PREL

       86       10
       87       11        %INCLUDE GH_SCHD_E;
       88      107        %INCLUDE G_JIT_M;
       89      372 S      %INCLUDE GU_LCP6_M;
       90      373 S      %INCLUDE GH_LCP6_M;
       91      374        %INCLUDE GH_HARDWARE_M;
       92      472        %INCLUDE G_HJIT_M;
       93      617        %INCLUDE GH_GATE_M;
       94      658        %INCLUDE P_FEP_M;
       95     1096        %INCLUDE KL_MACRO_C;
       96     4448        %INCLUDE KL_AFCN_C;
       97     4549        %INCLUDE K_ID_E;
       98     4599
       99     4600
      100     4601        %G$MHJIT (STCLASS="BASED(G$MHJIT$)");
      101    11475        %G$JIT (STCLASS="BASED(G$JIT$)");
      102    11889        %GH_LEV (FPTN=GH_LEV_INHIBIT,STCLASS=SYMREF);
      103    11911        %GH_LEV (FPTN=GH_LEV_SUS,STCLASS=SYMREF);
      104    11933        %K#ENTID_E;
      105    11952        %K#LYRID_E;
      106    11959
      107    11960        %PS_LCP6STT (STCLASS=SYMREF);
PL6.E3A0      #002=GHR$CLOCK File=GHR$RTC.:E05TSI                                TUE 07/29/97 21:38 Page:27
      108    12464
      109    12465    1   DCL TICKS UBIN;
      110    12466    1   DCL I UBIN;
      111    12467        %GATE (FPTN=GATR,STCLASS="");
      112    12486
      113    12487    1   DCL G_MXEQTIME UBIN(32) SYMREF;
      114    12488    1   DCL G_MIDLTIME UBIN(32) SYMREF;
      115    12489    1   DCL G$JIT$ PTR SYMREF;
      116    12490    1   DCL G$MHJIT$ PTR SYMREF;
      117    12491
      118    12492
      119    12493    1   DCL GHI$STRT_INTRVL ENTRY(1);
      120    12494    1   DCL GHH$LEV ENTRY(1);
      121    12495
      122    12496
      123    12497    1   GHR$MON: ENTRY;

  12497   0 000007  D380 0000 0000  xent GHR$MON         LNJ,B5   X6A_AUTO_0
          0 00000A       000E 0000                       DC       14,0

      124    12498    1           I=%GH_MONXEQ;

  12498   0 00000C  6C02                                 LDV,R6   2
          0 00000D  EF47 0005                            STR,R6   I,AUTO

      125    12499    1           CALL COMMON;

  12499   0 00000F  E3C0 002E                            LNJ,B6   s:0,PREL
          0 000011       0001                            DC       s:12500,PREL

      126    12500    1           RETURN;

  12500   0 000012  C380 0000 0000  xent                 LNJ,B4   X6A_ARET

      127    12501
      128    12502    1   GHR$USR: ENTRY;

PL6.E3A0      #002=GHR$CLOCK File=GHR$RTC.:E05TSI                                TUE 07/29/97 21:38 Page:28
  12502   0 000015  D380 0000 0000  xent GHR$USR         LNJ,B5   X6A_AUTO_0
          0 000018       000E 0000                       DC       14,0

      129    12503    1           I=%GH_USRXEQ;

  12503   0 00001A  8747 0005                            CL       I,AUTO

      130    12504    1           CALL COMMON;

  12504   0 00001C  E3C0 0021                            LNJ,B6   s:0,PREL
          0 00001E       0001                            DC       s:12505,PREL

      131    12505    1           RETURN;

  12505   0 00001F  C380 0000 0000  xent                 LNJ,B4   X6A_ARET

      132    12506
      133    12507    1   GHR$SRV: ENTRY;

  12507   0 000022  D380 0000 0000  xent GHR$SRV         LNJ,B5   X6A_AUTO_0
          0 000025       000E 0000                       DC       14,0

      134    12508    1           I=%GH_USRSRV;

  12508   0 000027  6C01                                 LDV,R6   1
          0 000028  EF47 0005                            STR,R6   I,AUTO

      135    12509    1           CALL COMMON;

  12509   0 00002A  E3C0 0013                            LNJ,B6   s:0,PREL
          0 00002C       0001                            DC       s:12510,PREL

      136    12510    1           RETURN;

  12510   0 00002D  C380 0000 0000  xent                 LNJ,B4   X6A_ARET

      137    12511
PL6.E3A0      #002=GHR$CLOCK File=GHR$RTC.:E05TSI                                TUE 07/29/97 21:38 Page:29
      138    12512    1   GHR$IDL: ENTRY;

  12512   0 000030  D380 0000 0000  xent GHR$IDL         LNJ,B5   X6A_AUTO_0
          0 000033       000E 0000                       DC       14,0

      139    12513    1           I=%GH_MONIDL;

  12513   0 000035  6C03                                 LDV,R6   3
          0 000036  EF47 0005                            STR,R6   I,AUTO

      140    12514    1           CALL COMMON;

  12514   0 000038  E3C0 0005                            LNJ,B6   s:0,PREL
          0 00003A       0001                            DC       s:12515,PREL

      141    12515    1           RETURN;

  12515   0 00003B  C380 0000 0000  xent                 LNJ,B4   X6A_ARET

      142    12516
      143    12517    1   COMMON: PROC;

  12517   0 00003E  EFC7 000A            COMMON          STB,B6   GATR+4,AUTO

      144    12518    2           GATR = '1'B;

  12518   0 000040  5C06                                 LDV,R5   6
          0 000041  0021                                 ALR      ;
          0 000042       4178 8000                                ALPHANUM('8000'X,IMO,,1),;
          0 000044       4007 0006                                ALPHANUM(GATR,AUTO,,R5,FILL)

      145    12519                %LOCK (G=GATR);

  12524   0 000046  EBC7 0006                            LAB,B6   GATR,AUTO
          0 000048  437F                                 CSYNC    s:12524+1,SPREL
          0 000049  EFC7 000C                            STB,B6   GATR+6,AUTO
          0 00004B  BBC7 000C                            LAB,B3   GATR+6,AUTO
PL6.E3A0      #002=GHR$CLOCK File=GHR$RTC.:E05TSI                                TUE 07/29/97 21:38 Page:30
          0 00004D  CBF0 0100                            LAB,B4   256,IMO
          0 00004F  E380 0000 0000  xent                 LNJ,B6   GHH$LOCK
          0 000052       0001                            DC       s:12526,PREL

      146    12526    2           CALL GHI$STRT_INTRVL (TICKS);

  12526   0 000053  EBC7 0004                            LAB,B6   TICKS,AUTO
          0 000055  EFC7 000C                            STB,B6   GATR+6,AUTO
          0 000057  BBC7 000C                            LAB,B3   GATR+6,AUTO
          0 000059  CBF0 0100                            LAB,B4   256,IMO
          0 00005B  E380 0000 0000  xent                 LNJ,B6   GHI$STRT_INTRVL
          0 00005E       0001                            DC       s:12527,PREL

      147    12527    3           DO CASE (G$MHJIT.INTRVL_TYPE);

  12527   0 00005F  EC80 0000 0000  xsym                 LDB,B6   G$MHJIT$
          0 000062  B846 0355                            LDR,R3   853,B6
          0 000064  3D04                                 CMV,R3   4
          0 000065  0281 003B                            BGE      s:12537,PREL
          0 000067  A830 0000 006D  00                   LDR,R2   s:12527+14,R3
          0 00006A  83A0 0000 0071  00                   JMP      s:12529,R2
          0 00006D       0000                            DC       s:12529,PREL
          0 00006E       000C                            DC       s:12531,PREL
          0 00006F       0018                            DC       s:12533,PREL
          0 000070       0025                            DC       s:12535,PREL

      148    12528    3            CASE (%GH_USRXEQ);

      149    12529    3              G$JIT.XTIME=G$JIT.XTIME+TICKS;

  12529   0 000071  DC80 0000 0000  xsym                 LDB,B5   G$JIT$
          0 000074  F847 0004                            LDR,R7   TICKS,AUTO
          0 000076  6C00                                 LDV,R6   0
          0 000077  8445 006A                            AID      106,B5
          0 000079  8D45 006A                            SDI      106,B5
          0 00007B  0F81 0025                            B        s:12537,PREL

PL6.E3A0      #002=GHR$CLOCK File=GHR$RTC.:E05TSI                                TUE 07/29/97 21:38 Page:31
      150    12530    3            CASE (%GH_USRSRV);

      151    12531    3              G$JIT.STIME=G$JIT.STIME+TICKS;

  12531   0 00007D  DC80 0000 0000  xsym                 LDB,B5   G$JIT$
          0 000080  F847 0004                            LDR,R7   TICKS,AUTO
          0 000082  6C00                                 LDV,R6   0
          0 000083  8445 006C                            AID      108,B5
          0 000085  8D45 006C                            SDI      108,B5
          0 000087  0F81 0019                            B        s:12537,PREL

      152    12532    3            CASE (%GH_MONXEQ);

      153    12533    3              PS_LCP6STT.MXEQTIME(G$MHJIT.PNO)=PS_LCP6STT.MXEQTIME(G$MHJIT.PNO)+TICKS;

  12533   0 000089  9846 0354                            LDR,R1   852,B6
          0 00008B  F847 0004                            LDR,R7   TICKS,AUTO
          0 00008D  6C00                                 LDV,R6   0
          0 00008E  8410 0000 0024  xsym                 AID      PS_LCP6STT+36,R1
          0 000091  8D10 0000 0024  xsym                 SDI      PS_LCP6STT+36,R1
          0 000094  0F81 000C                            B        s:12537,PREL

      154    12534    3            CASE (%GH_MONIDL);

      155    12535    3              PS_LCP6STT.MIDLTIME(G$MHJIT.PNO)=PS_LCP6STT.MIDLTIME(G$MHJIT.PNO)+TICKS;

  12535   0 000096  9846 0354                            LDR,R1   852,B6
          0 000098  F847 0004                            LDR,R7   TICKS,AUTO
          0 00009A  6C00                                 LDV,R6   0
          0 00009B  8410 0000 002C  xsym                 AID      PS_LCP6STT+44,R1
          0 00009E  8D10 0000 002C  xsym                 SDI      PS_LCP6STT+44,R1

      156    12536    3            END;

      157    12537    2           G$MHJIT.INTRVL_TYPE=I;

  12537   0 0000A1  E847 0005                            LDR,R6   I,AUTO
PL6.E3A0      #002=GHR$CLOCK File=GHR$RTC.:E05TSI                                TUE 07/29/97 21:38 Page:32
          0 0000A3  EF46 0355                            STR,R6   853,B6

      158    12538                %UNLOCK (G=GATR);

  12543   0 0000A5  DBC7 0006                            LAB,B5   GATR,AUTO
          0 0000A7  DFC7 000C                            STB,B5   GATR+6,AUTO
          0 0000A9  BBC7 000C                            LAB,B3   GATR+6,AUTO
          0 0000AB  CBF0 0100                            LAB,B4   256,IMO
          0 0000AD  E380 0000 0000  xent                 LNJ,B6   GHH$UNLOCK
          0 0000B0       0001                            DC       s:12545,PREL

      159    12545    2           RETURN;

  12545   0 0000B1  ECC7 000A                            LDB,B6   GATR+4,AUTO
          0 0000B3  C3C6 0001                            LNJ,B4   1,B6
      160    12546    2   END;
      161    12547    1   END;

PL6.E3A0      #002=GHR$CLOCK File=GHR$RTC.:E05TSI                                TUE 07/29/97 21:38 Page:33
--  Include file information  --

   K_ID_E.:E05TOU  is referenced.
   KL_AFCN_C.:E05TOU  is referenced.
   KL_MACRO_C.:E05TOU  is referenced.
   P_FEP_M.:E05TOU  is referenced.
   GH_GATE_M.:E05TOU  cannot be made into a system file and is referenced.
   G_HJIT_M.:E05TOU  is referenced.
   GH_HARDWARE_M.:E05TOU  is referenced.
   G_JIT_M.:E05TOU  is referenced.
   GH_SCHD_E.:E05TOU  is referenced.
   G_LCP6_E.:E05TOU  was found in the system file and is never referenced.
   GT_LCP6_M.:E05TOU  was found in the system file and is never referenced.
   KI_CP6.:E05TOU  was found in the system file and is never referenced.
   GF_LCP6_M.:E05TOU  was found in the system file and is never referenced.
   GM_LCP6_M.:E05TOU  was found in the system file and is never referenced.
   GU_LCP6_M.:E05TOU  was found in the system file and is referenced.
   GJ_LCP6_M.:E05TOU  was found in the system file and is never referenced.
   GH_LCP6_M.:E05TOU  was found in the system file and is referenced.
      No diagnostics issued in procedure GHR$CLOCK.
PL6.E3A0      #002=GHR$CLOCK File=GHR$RTC.:E05TSI                                TUE 07/29/97 21:38 Page:34

 **** Variables and constants ****

  ****  Auto variables  ****

  ****  Scalars and arrays  ****
HexLoc.c.b A Datatyp(siz) R M Lvl/name                 HexLoc.c.b A Datatyp(siz) R M Lvl/name

     6-0-0/w STRC(48)    r     1 GATR                       5-0-0/w UBIN(16)    r     1 I
     4-0-0/w UBIN(16)    r     1 TICKS

  ****  SYMREF variables  ****

  ****  Scalars and arrays  ****
HexLoc.c.b A Datatyp(siz) R M Lvl/name                 HexLoc.c.b A Datatyp(siz) R M Lvl/name

     0-0-0/w PTR         r     1 G$JIT$                     0-0-0/w PTR         r     1 G$MHJIT$
     0-0-0/w STRC(2208)  r     1 PS_LCP6STT

  ****  BASED and DCB variables  ****

  ****  Scalars and arrays  ****
HexLoc.c.b A Datatyp(siz) R M Lvl/name                 HexLoc.c.b A Datatyp(siz) R M Lvl/name

     0-0-0/w STRC(5616)  r     1 G$JIT                      0-0-0/w STRC(27232) r     1 G$MHJIT


   Procedure GHR$CLOCK requires 181 words for executable code.
   Procedure GHR$CLOCK requires 14 words of local(AUTO) storage.

    No errors detected in file GHR$RTC.:E05TSI    .
PL6.E3A0      #002=GHR$CLOCK File=GHR$RTC.:E05TSI                                TUE 07/29/97 21:38 Page:35
          *** CROSS REFERENCE LISTING ***
**     DENOTES     IDENTIFIER DEFINITION
<<                 IDENTIFIER'S VALUE SET
>>                 IDENTIFIER'S VALUE USED
<>                 IDENTIFIER SET AND/OR USED
--                 IDENTIFIER REFERENCED
PL6.E3A0      #002=GHR$CLOCK File=GHR$RTC.:E05TSI                                TUE 07/29/97 21:38 Page:36
          MINI XREF LISTING

COMMON
     12517**PROC    12499--CALL    12504--CALL    12509--CALL    12514--CALL
G$JIT.ERRLOG
     11819**DCL     11822--REDEF
G$JIT.JSUNIT
     11558**DCL     11559--REDEF
G$JIT.MCLS
     11557**DCL     11557--REDEF
G$JIT.STIME
     11657**DCL     12531<<ASSIGN  12531>>ASSIGN
G$JIT.TMRZ
     11826**DCL     11827--REDEF
G$JIT.USER_EXTIME
     11550**DCL     11551--REDEF
G$JIT.USER_MEMTIME
     11553**DCL     11553--REDEF
G$JIT.USER_SVTIME
     11552**DCL     11552--REDEF
G$JIT.XTIME
     11657**DCL     12529<<ASSIGN  12529>>ASSIGN
G$JIT$
     12489**DCL     11489--IMP-PTR 12529>>ASSIGN  12529>>ASSIGN  12531>>ASSIGN  12531>>ASSIGN
G$MHJIT.INTCON.HHJIT
     11080**DCL     11080--REDEF
G$MHJIT.INTCON.P$$
     11053**DCL     11053--REDEF
G$MHJIT.INTRVL_TYPE
     10947**DCL     12527>>DOCASE  12537<<ASSIGN
G$MHJIT.ISA_BIGFOOT.P$$
      7998**DCL      7998--REDEF
G$MHJIT.ISA_DBINH.P$$
      9212**DCL      9212--REDEF
PL6.E3A0      #002=GHR$CLOCK File=GHR$RTC.:E05TSI                                TUE 07/29/97 21:38 Page:37
G$MHJIT.ISA_IDLE.P$$
      6093**DCL      6093--REDEF
G$MHJIT.ISA_LVL10.P$$
      9515**DCL      9515--REDEF
G$MHJIT.ISA_LVL11.P$$
      9818**DCL      9818--REDEF
G$MHJIT.ISA_LVL12.P$$
     10121**DCL     10121--REDEF
G$MHJIT.ISA_LVL5.P$$
      8301**DCL      8301--REDEF
G$MHJIT.ISA_OV.P$$
      7695**DCL      7695--REDEF
G$MHJIT.ISA_PFS.P$$
      7366**DCL      7366--REDEF
G$MHJIT.ISA_RT_CLOCK.P$$
     10728**DCL     10728--REDEF
G$MHJIT.ISA_SATYR_RCV.P$$
      8605**DCL      8605--REDEF
G$MHJIT.ISA_SATYR_TRN.P$$
      8909**DCL      8909--REDEF
G$MHJIT.ISA_SCHD.P$$
     10424**DCL     10424--REDEF
G$MHJIT.ISA_WDOG.P$$
      7474**DCL      7474--REDEF
G$MHJIT.PNO
     10946**DCL     12533>>ASSIGN  12533>>ASSIGN  12535>>ASSIGN  12535>>ASSIGN
G$MHJIT.TSA_DB.ISA.P$$
      6696**DCL      6696--REDEF
G$MHJIT.TSA_DB.P$$
      6567**DCL      6567--REDEF    6568--REDEF
G$MHJIT.TSA_HND.ISA.P$$
     11274**DCL     11274--REDEF
G$MHJIT.TSA_HND.P$$
     11145**DCL     11145--REDEF   11146--REDEF
G$MHJIT.TSA_MON.ISA.P$$
      6308**DCL      6308--REDEF
PL6.E3A0      #002=GHR$CLOCK File=GHR$RTC.:E05TSI                                TUE 07/29/97 21:38 Page:38
G$MHJIT.TSA_MON.P$$
      6179**DCL      6179--REDEF    6180--REDEF
G$MHJIT.TSA_OV.ISA.P$$
      7084**DCL      7084--REDEF
G$MHJIT.TSA_OV.P$$
      6955**DCL      6955--REDEF    6956--REDEF
G$MHJIT$
     12490**DCL      4618--IMP-PTR 12527>>DOCASE  12533>>ASSIGN  12533>>ASSIGN  12535>>ASSIGN  12535>>ASSIGN
     12537>>ASSIGN
GATR
     12479**DCL     12518<<ASSIGN  12524<>CALL    12543<>CALL
GHH$LOCK
       657**DCL-ENT 12524--CALL
GHH$UNLOCK
       657**DCL-ENT 12543--CALL
GHI$STRT_INTRVL
     12493**DCL-ENT 12526--CALL
I
     12466**DCL     12498<<ASSIGN  12503<<ASSIGN  12508<<ASSIGN  12513<<ASSIGN  12537>>ASSIGN
PS_LCP6STT.MIDLTIME
     12292**DCL     12535<<ASSIGN  12535>>ASSIGN
PS_LCP6STT.MXEQTIME
     12289**DCL     12533<<ASSIGN  12533>>ASSIGN
PS_LCP6STT.REQSTATS.DSPMSK
     12226**DCL     12232--REDEF
PS_LCP6STT.REQSTATS.SLCMSK
     12267**DCL     12274--REDEF
TICKS
     12465**DCL     12526<>CALL    12529>>ASSIGN  12531>>ASSIGN  12533>>ASSIGN  12535>>ASSIGN
