PL6.E3A0      #003=GHS$XSCHD File=GHS$SCHD.:E05TSI                               TUE 07/29/97 21:41 Page:157
     1007        1        /*T***********************************************************/
     1008        2        /*T*                                                         */
     1009        3        /*T* Copyright (c) Bull HN Information Systems Inc., 1997    */
     1010        4        /*T*                                                         */
     1011        5        /*T***********************************************************/
     1012        6        /*P*
     1013        7             NAME: GHS$XSCHD
     1014        8             PURPOSE:
     1015        9                   To select and prepare a user for execution.
     1016       10             DESCRIPTION:
     1017       11                    This procedure obtains the next Current User from the
     1018       12                    Scheduler state queues and prepares him for execution.
     1019       13        */
     1020       14        /*F*
     1021       15             NAME: GHS$XSCHD
     1022       16             PURPOSE:
     1023       17                    To select and prepare a user for execution.
     1024       18             DESCRIPTION:
     1025       19                    This procedure searches the Executable state queues for
     1026       20                    the highest priority user ready for execution, sets the
     1027       21                    monitor current user parameters and maps onto the users
     1028       22                    UHJIT segment.  If a user is not found, the Idle loop
     1029       23                    is entered until a state change occurs and the selection
     1030       24                    procedure is reexecuted.
     1031       25        */
     1032       26        /*D*
     1033       27             NAME: GHS$XSCHD
     1034       28             CALL:
     1035       29                   CALL GHS$XSCHD;
     1036       30             PARAMETERS:
     1037       31                    There are no parameters passed in the call to this procedure.
     1038       32             INTERFACE:
     1039       33                    This is the Scheduler Interrupt Level service procedure.  It
     1040       34                    is called by an L6ASM interrupt entry routine and does not
     1041       35                    call any other procedures.  The Scheduler Interrupt Level is
     1042       36                    triggered by the Real Time Clock Interrupt service if the
     1043       37                    current user is to be quantum ended, and by GHS$REG when
PL6.E3A0      #003=GHS$XSCHD File=GHS$SCHD.:E05TSI                               TUE 07/29/97 21:41 Page:158
     1044       38                    the current user is to be parked.  In either case, the
     1045       39                    state of the previous current user has been changed before
     1046       40                    entering this procedure.
     1047       41             DESCRIPTION:
     1048       42                    The head of each of the Executable state queues, %GH_SC1
     1049       43                    through %GH_SC11 is tested for a non zero user number.
     1050       44                    When one is found that user becomes the Current User.
     1051       45                    The monitor parameters that define the current user,
     1052       46                    are set and the users UHJIT segment is activated in the
     1053       47                    MMU.  The procedure then returns.
     1054       48
     1055       49                    If none of the Executable state queues contains a user,
     1056       50                    the idle loop is entered.  This loop tests a scheduler
     1057       51                    event flag that is incremented when a user is placed in
     1058       52                    an Executable state queue.  When this occurs, the state
     1059       53                    queues are searched again.
     1060       54        */
     1061       55        /*X*             */
     1062       56
     1063       57        GHS$XSCHD: PROC ALTRET;
     1064       58
     1065       59        %INCLUDE GH_SCHD_E;
     1066      155        %INCLUDE GH_SCHD_M;
     1067      299        %INCLUDE GH_GATE_M;
     1068      340 S      %INCLUDE GH_LCP6_M;
     1069      341        %INCLUDE GH_HARDWARE_M;
     1070      439 S      %INCLUDE GU_LCP6_M;
     1071      440        %INCLUDE G_HJIT_M;
     1072      585        %INCLUDE GM_VIRTUAL_E;
     1073      795        %INCLUDE SS_SCODE_C;
     1074      815
     1075      816    1   DCL I UBIN;                             /* Temp                               */
     1076      817    1   DCL J UBIN;                             /* State index                        */
     1077      818    1   DCL K UBIN;                             /* Temp user number                   */
     1078      819    1   DCL EVFLG UBIN;                         /* Temp event flag                    */
     1079      820    1   DCL PRIODEC UBIN STATIC INIT(1);        /* Priority decrement step            */
     1080      821
PL6.E3A0      #003=GHS$XSCHD File=GHS$SCHD.:E05TSI                               TUE 07/29/97 21:41 Page:159
     1081      822    1   DCL G$USRT$ PTR SYMREF;
     1082      823    1   DCL GH_EVF UBIN SYMREF;
     1083      824    1   DCL GH_HQ(0:0) UBIN SYMREF;
     1084      825    1   DCL GH_HIR SBIN SYMREF;
     1085      826    1   DCL GH_CUP UBIN SYMREF;
     1086      827    1   DCL G$UHJIT$ PTR SYMREF;
     1087      828    1   DCL G$MHJIT$ PTR SYMREF;
     1088      829    1   DCL G$LOW_MEM$ PTR SYMREF;
     1089      830    1   DCL GH_LEV_SUS_INH UBIN SYMREF;
     1090      831    1   DCL GH_TRIG_SCHD UBIN SYMREF;
     1091      832    1   DCL G_CPUSTATE(0:3) UBIN SYMREF;
     1092      833    1   DCL G_DIS SBIN SYMREF;
     1093      834    1   DCL G$JIT$ PTR SYMREF;
     1094      835
     1095      836
     1096      837        %G$USER;
     1097      848        %G$USER (FPTN="G$USER(0:0)",STCLASS="BASED(G$USRT$)");
     1098      859        %G$MHJIT (STCLASS="BASED(G$MHJIT$)");
     1099     7733        %G$UHJIT (STCLASS="BASED(G$UHJIT$)");
     1100    10707        %G$ASDT;
     1101    10736        %G$LOW_MEM (STCLASS="BASED(G$LOW_MEM$)");
     1102    10785        %GATE (FPTN=G_SCHDGATE,STCLASS=SYMREF);
     1103    10804        %VLP_SCODE (FPTN=NATSERR,ERR#=%S$NATSAP,SEV=G_SEV_SCREECH#,STCLASS=CONSTANT,
     1104    10805                    FCG=GH,MID=S,MON='1'B);
     1105    10866
     1106    10867    1   DCL GHH$ASD ENTRY(2);
     1107    10868    1   DCL GHH$HLT ENTRY;
     1108    10869    1   DCL GHS$CHS ENTRY(1) ALTRET;
     1109    10870    1   DCL GHS$CHSE ENTRY(1) ALTRET;
     1110    10871    1   DCL GHR$MON ENTRY;
     1111    10872    1   DCL GHR$IDL ENTRY;
     1112    10873    1   DCL GHH$LEV ENTRY(1);
     1113    10874    1   DCL GHS$MONTIMRWU ENTRY;
     1114    10875    1   DCL SCREECH ENTRY(1);
     1115    10876        /*                                                                    */
     1116    10877        %EJECT;
PL6.E3A0      #003=GHS$XSCHD File=GHS$SCHD.:E05TSI                               TUE 07/29/97 21:41 Page:160
     1117    10878    1           G_CPUSTATE(G$MHJIT.PNO) = %G_ROCKING#;
     1118    10879    2           IF G$MHJIT.CUN ~= 0 THEN DO;
     1119    10880    2              CALL GHS$CHSE(G$MHJIT.CUN);  /* Quantum end current user           */
     1120    10881    2              G$UHJIT.NATSAP$=G$LOW_MEM.NATSAP1$;
     1121    10882    2              G$LOW_MEM.NATSAP1$=ADDR(G$MHJIT.TSA_MON);
     1122    10883    2              END;
     1123    10884    1           CALL GHS$MONTIMRWU;
     1124    10885
     1125    10886                %LOCK (G=G_SCHDGATE);
     1126    10893
     1127    10894    1           EVFLG = GH_EVF;
     1128    10895
     1129    10896    2           DO J = 1 TO %GH_CU - 1;         /* Run the Executable Queues          */
     1130    10897    2              K = GH_HQ (J);
     1131    10898    3              IF K ~= 0 THEN DO;
     1132    10899    3                 G$MHJIT.CU$ = ADDR (G$USER (K));
     1133    10900    3                 G$MHJIT.CUN=K;            /* Make him Current User              */
     1134    10901    3                 GH_HIR=GH_HIR-1;          /* One less executable user waiting*/
     1135    10902    3                 CALL GHS$CHS(K);          /* Make his state Current User        */
     1136    10903    3                 GH_CUP=G$MHJIT.CU$->G$U.PRIO; /* Set current user priority      */
     1137    10904    4                 IF GH_CUP > G$MHJIT.CU$->G$U.PRIOB THEN DO;
     1138    10905                                                /* If not at base priority            */
     1139    10906    4                    GH_CUP = GH_CUP - PRIODEC; /* bump him down a notch          */
     1140    10907    4                    G$MHJIT.CU$->G$U.PRIO = GH_CUP;
     1141    10908    4                    END;
     1142    10909
     1143    10910    3                 G$MHJIT.ASDT_MON.UMHJIT.SIZE = (SIZEW(G$UHJIT)-1)/256;
     1144    10911    3                 G$MHJIT.ASDT_MON.UMHJIT.BASE = G$MHJIT.CU$->G$U.UHJITPP;
     1145    10912    3                 CALL GHH$ASD (G$UHJIT$,G$MHJIT.ASDT_MON.UMHJIT);
     1146    10913    3                 IF G$UHJIT.NATSAP$=G$UHJIT.ISA_USR.TSAP$ THEN
     1147    10914    3                    CALL SCREECH (NATSERR);
     1148    10915        /*S*  SCREECH_CODE: GHS-S$NATSAP
     1149    10916              TYPE: SCREECH
     1150    10917              MESSAGE: NATSAP1 incorrect at execution schedule.
     1151    10918                                                                           */
     1152    10919    3                 G$LOW_MEM.NATSAP1$=G$UHJIT.NATSAP$;
     1153    10920                      %UNLOCK (G=G_SCHDGATE);
PL6.E3A0      #003=GHS$XSCHD File=GHS$SCHD.:E05TSI                               TUE 07/29/97 21:41 Page:161
     1154    10927    3                 RETURN;
     1155    10928    3                 END;
     1156    10929    2              END;
     1157    10930
     1158    10931                %UNLOCK (G=G_SCHDGATE);
     1159    10938    1           CALL GHH$LEV (GH_LEV_SUS_INH);
     1160    10939
     1161    10940    1           IF EVFLG ~= GH_EVF THEN
     1162    10941    1              CALL GHH$LEV (GH_TRIG_SCHD);
     1163    10942
     1164    10943    1           G_DIS = 0;                      /* Don't allow un-inhibit in GHR$IDL*/
     1165    10944    1           G$LOW_MEM.RTC_CURR = 16;        /* Let RTC go off every UTS tick      */
     1166    10945        /*N* The previous line could be improved some.  Figure when the next
     1167    10946             wake-up needs to occur. */
     1168    10947    1           CALL GHR$IDL;
     1169    10948    1           G_DIS=-1;
     1170    10949    1           G_CPUSTATE(G$MHJIT.PNO) = %G_IDLE#;
     1171    10950    1           G$MHJIT.ASDT_MON.UMHJIT.BASE = G$MHJIT.ASDT_MON.MHJIT.BASE;
     1172    10951    1           CALL GHH$ASD (G$UHJIT$,G$MHJIT.ASDT_MON.UMHJIT);
     1173    10952    1           ALTRETURN;
     1174    10953    1   END;
     1175    10954        %EOD;

PL6.E3A0      #003=GHS$XSCHD File=GHS$SCHD.:E05TSI                               TUE 07/29/97 21:41 Page:162
--  Include file information  --

   SS_SCODE_C.:E05TOU  is referenced.
   GM_VIRTUAL_E.:E05TOU  is referenced.
   G_HJIT_M.:E05TOU  is referenced.
   GH_HARDWARE_M.:E05TOU  is referenced.
   GH_GATE_M.:E05TOU  cannot be made into a system file and is referenced.
   GH_SCHD_M.:E05TOU  is referenced.
   GH_SCHD_E.:E05TOU  is referenced.
   G_LCP6_E.:E05TOU  was found in the system file and is never referenced.
   GT_LCP6_M.:E05TOU  was found in the system file and is never referenced.
   KI_CP6.:E05TOU  was found in the system file and is never referenced.
   GF_LCP6_M.:E05TOU  was found in the system file and is never referenced.
   GM_LCP6_M.:E05TOU  was found in the system file and is never referenced.
   GU_LCP6_M.:E05TOU  was found in the system file and is referenced.
   GJ_LCP6_M.:E05TOU  was found in the system file and is never referenced.
   GH_LCP6_M.:E05TOU  was found in the system file and is referenced.
      No diagnostics issued in procedure GHS$XSCHD.

   Procedure GHS$XSCHD requires 292 words for executable code.
   Procedure GHS$XSCHD requires 12 words of local(AUTO) storage.

PL6.E3A0      #003=GHS$XSCHD File=GHS$SCHD.:E05TSI                               TUE 07/29/97 21:41 Page:163

 Object Unit name= GHS$XSCHD                                  File name= GHS$SCHD.:E05TOU
 UTS= JUL 29 '97 21:41:16.16 TUE                              Compiler= PL-6/E31         Sev=      00
 SharedLib= :SHARED_LCP6_SYSTEM                               Alt SharedLib=


    ****  Control sections  ****

 Sect   Type Bound  Init  Size HexSiz  Section name
    0   Data  even  none     1      1  GHS$XSCHD
    1  RoData even  UTS      3      3  GHS$XSCHD
    2   Proc  even  none   292    124  GHS$XSCHD
    3  RoData even  none     8      8  GHS$XSCHD

    ****  Entry defs  ****

                              Check   Calling
                             calling  sequence
  Sect HexLoc Primary Altret sequence   type   Parms  Name
     2      0   yes    yes     yes      Std        0  GHS$XSCHD

  ****  Entry refs  ****

         Check        Calling
        calling       sequence
Altret sequence SRef   type   Args  Name
 yes     yes           Std       1 GHS$CHSE
         yes           Std       0 GHS$MONTIMRWU
         yes           Std       2 GHH$ASD
         yes           Std       1 SCREECH
 yes     yes           Std       1 GHH$UNLOCK
         yes           Std       1 GHH$LEV
 yes     yes           Std       1 GHH$LOCK
 yes     yes           Std       1 GHS$CHS
         yes           Std       0 GHR$IDL
                       nStd      0 X6A_AUTO_0
                       nStd      0 X6A_ARET
                       nStd      0 X6A_AALT
PL6.E3A0      #003=GHS$XSCHD File=GHS$SCHD.:E05TSI                               TUE 07/29/97 21:41 Page:164

  ****  Data refs  ****

  Flags:  r = read only, s = secondary
Flgs Name                             Flgs Name                             Flgs Name
     G$USRT$                               GH_EVF                                GH_HQ
     GH_HIR                                GH_CUP                                G$UHJIT$
     G$MHJIT$                              G$LOW_MEM$                            GH_LEV_SUS_INH
     GH_TRIG_SCHD                          G_CPUSTATE                            G_DIS
     G_SCHDGATE                       r    G$ROS$
PL6.E3A0      #003=GHS$XSCHD File=GHS$SCHD.:E05TSI                               TUE 07/29/97 21:41 Page:165


     1007        1        /*T***********************************************************/
     1008        2        /*T*                                                         */
     1009        3        /*T* Copyright (c) Bull HN Information Systems Inc., 1997    */
     1010        4        /*T*                                                         */
     1011        5        /*T***********************************************************/
     1012        6        /*P*
     1013        7             NAME: GHS$XSCHD
     1014        8             PURPOSE:
     1015        9                   To select and prepare a user for execution.
     1016       10             DESCRIPTION:
     1017       11                    This procedure obtains the next Current User from the
     1018       12                    Scheduler state queues and prepares him for execution.
     1019       13        */
     1020       14        /*F*
     1021       15             NAME: GHS$XSCHD
     1022       16             PURPOSE:
     1023       17                    To select and prepare a user for execution.
     1024       18             DESCRIPTION:
     1025       19                    This procedure searches the Executable state queues for
     1026       20                    the highest priority user ready for execution, sets the
     1027       21                    monitor current user parameters and maps onto the users
     1028       22                    UHJIT segment.  If a user is not found, the Idle loop
     1029       23                    is entered until a state change occurs and the selection
     1030       24                    procedure is reexecuted.
     1031       25        */
     1032       26        /*D*
     1033       27             NAME: GHS$XSCHD
     1034       28             CALL:
     1035       29                   CALL GHS$XSCHD;
     1036       30             PARAMETERS:
     1037       31                    There are no parameters passed in the call to this procedure.
     1038       32             INTERFACE:
     1039       33                    This is the Scheduler Interrupt Level service procedure.  It
     1040       34                    is called by an L6ASM interrupt entry routine and does not
     1041       35                    call any other procedures.  The Scheduler Interrupt Level is
     1042       36                    triggered by the Real Time Clock Interrupt service if the
PL6.E3A0      #003=GHS$XSCHD File=GHS$SCHD.:E05TSI                               TUE 07/29/97 21:41 Page:166
     1043       37                    current user is to be quantum ended, and by GHS$REG when
     1044       38                    the current user is to be parked.  In either case, the
     1045       39                    state of the previous current user has been changed before
     1046       40                    entering this procedure.
     1047       41             DESCRIPTION:
     1048       42                    The head of each of the Executable state queues, %GH_SC1
     1049       43                    through %GH_SC11 is tested for a non zero user number.
     1050       44                    When one is found that user becomes the Current User.
     1051       45                    The monitor parameters that define the current user,
     1052       46                    are set and the users UHJIT segment is activated in the
     1053       47                    MMU.  The procedure then returns.
     1054       48
     1055       49                    If none of the Executable state queues contains a user,
     1056       50                    the idle loop is entered.  This loop tests a scheduler
     1057       51                    event flag that is incremented when a user is placed in
     1058       52                    an Executable state queue.  When this occurs, the state
     1059       53                    queues are searched again.
     1060       54        */
     1061       55        /*X*             */
     1062       56
     1063       57        GHS$XSCHD: PROC ALTRET;

     57   2 000000  D380 0000 0000  xent GHS$XSCHD       LNJ,B5   X6A_AUTO_0
          2 000003       000C 0000                       DC       12,0

     1064       58
     1065       59        %INCLUDE GH_SCHD_E;
     1066      155        %INCLUDE GH_SCHD_M;
     1067      299        %INCLUDE GH_GATE_M;
     1068      340 S      %INCLUDE GH_LCP6_M;
     1069      341        %INCLUDE GH_HARDWARE_M;
     1070      439 S      %INCLUDE GU_LCP6_M;
     1071      440        %INCLUDE G_HJIT_M;
     1072      585        %INCLUDE GM_VIRTUAL_E;
     1073      795        %INCLUDE SS_SCODE_C;
     1074      815
     1075      816    1   DCL I UBIN;                             /* Temp                               */
PL6.E3A0      #003=GHS$XSCHD File=GHS$SCHD.:E05TSI                               TUE 07/29/97 21:41 Page:167
     1076      817    1   DCL J UBIN;                             /* State index                        */
     1077      818    1   DCL K UBIN;                             /* Temp user number                   */
     1078      819    1   DCL EVFLG UBIN;                         /* Temp event flag                    */
     1079      820    1   DCL PRIODEC UBIN STATIC INIT(1);        /* Priority decrement step            */
     1080      821
     1081      822    1   DCL G$USRT$ PTR SYMREF;
     1082      823    1   DCL GH_EVF UBIN SYMREF;
     1083      824    1   DCL GH_HQ(0:0) UBIN SYMREF;
     1084      825    1   DCL GH_HIR SBIN SYMREF;
     1085      826    1   DCL GH_CUP UBIN SYMREF;
     1086      827    1   DCL G$UHJIT$ PTR SYMREF;
     1087      828    1   DCL G$MHJIT$ PTR SYMREF;
     1088      829    1   DCL G$LOW_MEM$ PTR SYMREF;
     1089      830    1   DCL GH_LEV_SUS_INH UBIN SYMREF;
     1090      831    1   DCL GH_TRIG_SCHD UBIN SYMREF;
     1091      832    1   DCL G_CPUSTATE(0:3) UBIN SYMREF;
     1092      833    1   DCL G_DIS SBIN SYMREF;
     1093      834    1   DCL G$JIT$ PTR SYMREF;
     1094      835
     1095      836
     1096      837        %G$USER;
     1097      848        %G$USER (FPTN="G$USER(0:0)",STCLASS="BASED(G$USRT$)");
     1098      859        %G$MHJIT (STCLASS="BASED(G$MHJIT$)");
     1099     7733        %G$UHJIT (STCLASS="BASED(G$UHJIT$)");
     1100    10707        %G$ASDT;
     1101    10736        %G$LOW_MEM (STCLASS="BASED(G$LOW_MEM$)");
     1102    10785        %GATE (FPTN=G_SCHDGATE,STCLASS=SYMREF);
     1103    10804        %VLP_SCODE (FPTN=NATSERR,ERR#=%S$NATSAP,SEV=G_SEV_SCREECH#,STCLASS=CONSTANT,
     1104    10805                    FCG=GH,MID=S,MON='1'B);
     1105    10866
     1106    10867    1   DCL GHH$ASD ENTRY(2);
     1107    10868    1   DCL GHH$HLT ENTRY;
     1108    10869    1   DCL GHS$CHS ENTRY(1) ALTRET;
     1109    10870    1   DCL GHS$CHSE ENTRY(1) ALTRET;
     1110    10871    1   DCL GHR$MON ENTRY;
     1111    10872    1   DCL GHR$IDL ENTRY;
     1112    10873    1   DCL GHH$LEV ENTRY(1);
PL6.E3A0      #003=GHS$XSCHD File=GHS$SCHD.:E05TSI                               TUE 07/29/97 21:41 Page:168
     1113    10874    1   DCL GHS$MONTIMRWU ENTRY;
     1114    10875    1   DCL SCREECH ENTRY(1);
     1115    10876        /*                                                                    */
     1116    10877        %EJECT;
PL6.E3A0      #003=GHS$XSCHD File=GHS$SCHD.:E05TSI                               TUE 07/29/97 21:41 Page:169
     1117    10878    1           G_CPUSTATE(G$MHJIT.PNO) = %G_ROCKING#;

  10878   2 000005  EC80 0000 0000  xsym                 LDB,B6   G$MHJIT$
          2 000008  B846 0354                            LDR,R3   852,B6
          2 00000A  6C01                                 LDV,R6   1
          2 00000B  EF30 0000 0000  xsym                 STR,R6   G_CPUSTATE,R3

     1118    10879    2           IF G$MHJIT.CUN ~= 0 THEN DO;

  10879   2 00000E  D846 0351                            LDR,R5   849,B6
          2 000010  5901 001E                            BEZ,R5   s:10884,PREL

     1119    10880    2              CALL GHS$CHSE(G$MHJIT.CUN);  /* Quantum end current user           */

  10880   2 000012  DBC6 0351                            LAB,B5   849,B6
          2 000014  DFC7 0008                            STB,B5   EVFLG+1,AUTO
          2 000016  BBC7 0008                            LAB,B3   EVFLG+1,AUTO
          2 000018  CBF0 0100                            LAB,B4   256,IMO
          2 00001A  E380 0000 0000  xent                 LNJ,B6   GHS$CHSE
          2 00001D       0001                            DC       s:10881,PREL

     1120    10881    2              G$UHJIT.NATSAP$=G$LOW_MEM.NATSAP1$;

  10881   2 00001E  EC80 0000 0000  xsym                 LDB,B6   G$LOW_MEM$
          2 000021  DCC6 000E                            LDB,B5   14,B6
          2 000023  CC80 0000 0000  xsym                 LDB,B4   G$UHJIT$
          2 000026  DFC4 00FD                            STB,B5   253,B4

     1121    10882    2              G$LOW_MEM.NATSAP1$=ADDR(G$MHJIT.TSA_MON);

  10882   2 000028  BC80 0000 0000  xsym                 LDB,B3   G$MHJIT$
          2 00002B  ABC3 0087                            LAB,B2   135,B3
          2 00002D  AFC6 000E                            STB,B2   14,B6

     1122    10883    2              END;

     1123    10884    1           CALL GHS$MONTIMRWU;
PL6.E3A0      #003=GHS$XSCHD File=GHS$SCHD.:E05TSI                               TUE 07/29/97 21:41 Page:170

  10884   2 00002F  CBF0 0000                            LAB,B4   0,IMO
          2 000031  E380 0000 0000  xent                 LNJ,B6   GHS$MONTIMRWU
          2 000034       0001                            DC       s:10891,PREL

     1124    10885
     1125    10886                %LOCK (G=G_SCHDGATE);

  10891   2 000035  BB80 0000 0000  03                   LAB,B3   0
          2 000038  CBF0 0100                            LAB,B4   256,IMO
          2 00003A  E380 0000 0000  xent                 LNJ,B6   GHH$LOCK
          2 00003D       0001                            DC       s:10894,PREL

     1126    10893
     1127    10894    1           EVFLG = GH_EVF;

  10894   2 00003E  E800 0000 0000  xsym                 LDR,R6   GH_EVF
          2 000041  EF47 0007                            STR,R6   EVFLG,AUTO

     1128    10895
     1129    10896    2           DO J = 1 TO %GH_CU - 1;         /* Run the Executable Queues          */

  10896   2 000043  5C01                                 LDV,R5   1
          2 000044  DF47 0005                            STR,R5   J,AUTO
          2 000046  0F81 0082                            B        s:10929+2,PREL

     1130    10897    2              K = GH_HQ (J);

  10897   2 000048  B847 0005                            LDR,R3   J,AUTO
          2 00004A  E830 0000 0000  xsym                 LDR,R6   GH_HQ,R3
          2 00004D  EF47 0006                            STR,R6   K,AUTO

     1131    10898    3              IF K ~= 0 THEN DO;

  10898   2 00004F  6901 0077                            BEZ,R6   s:10929,PREL

     1132    10899    3                 G$MHJIT.CU$ = ADDR (G$USER (K));
PL6.E3A0      #003=GHS$XSCHD File=GHS$SCHD.:E05TSI                               TUE 07/29/97 21:41 Page:171

  10899   2 000051  EC80 0000 0000  xsym                 LDB,B6   G$USRT$
          2 000054  A856                                 LDR,R2   R6
          2 000055  2F18                                 MLV,R2   24
          2 000056  DBA6                                 LAB,B5   ,B6,R2
          2 000057  CC80 0000 0000  xsym                 LDB,B4   G$MHJIT$
          2 00005A  DFC4 0352                            STB,B5   850,B4

     1133    10900    3                 G$MHJIT.CUN=K;            /* Make him Current User              */

  10900   2 00005C  EF44 0351                            STR,R6   849,B4

     1134    10901    3                 GH_HIR=GH_HIR-1;          /* One less executable user waiting*/

  10901   2 00005E  8880 0000 0000  xsym                 DEC      GH_HIR

     1135    10902    3                 CALL GHS$CHS(K);          /* Make his state Current User        */

  10902   2 000061  BBC7 0006                            LAB,B3   K,AUTO
          2 000063  BFC7 0008                            STB,B3   EVFLG+1,AUTO
          2 000065  BBC7 0008                            LAB,B3   EVFLG+1,AUTO
          2 000067  CBF0 0100                            LAB,B4   256,IMO
          2 000069  E380 0000 0000  xent                 LNJ,B6   GHS$CHS
          2 00006C       0001                            DC       s:10903,PREL

     1136    10903    3                 GH_CUP=G$MHJIT.CU$->G$U.PRIO; /* Set current user priority      */

  10903   2 00006D  EC80 0000 0000  xsym                 LDB,B6   G$MHJIT$
          2 000070  DCC6 0352                            LDB,B5   850,B6
          2 000072  E845 000F                            LDR,R6   15,B5
          2 000074  EF00 0000 0000  xsym                 STR,R6   GH_CUP

     1137    10904    4                 IF GH_CUP > G$MHJIT.CU$->G$U.PRIOB THEN DO;

  10904   2 000077  E945 0010                            CMR,R6   16,B5
          2 000079  0381 0009                            BLE      s:10910,PREL

PL6.E3A0      #003=GHS$XSCHD File=GHS$SCHD.:E05TSI                               TUE 07/29/97 21:41 Page:172
     1138    10905                                                /* If not at base priority            */
     1139    10906    4                    GH_CUP = GH_CUP - PRIODEC; /* bump him down a notch          */

  10906   2 00007B  E200 0000 0000  00                   SUB,R6   PRIODEC
          2 00007E  EF00 0000 0000  xsym                 STR,R6   GH_CUP

     1140    10907    4                    G$MHJIT.CU$->G$U.PRIO = GH_CUP;

  10907   2 000081  EF45 000F                            STR,R6   15,B5

     1141    10908    4                    END;

     1142    10909
     1143    10910    3                 G$MHJIT.ASDT_MON.UMHJIT.SIZE = (SIZEW(G$UHJIT)-1)/256;

  10910   2 000083  5C01                                 LDV,R5   1
          2 000084  DAC6 000B                            SRM,R5,'01FF'X    11,B6
          2 000086       01FF

     1144    10911    3                 G$MHJIT.ASDT_MON.UMHJIT.BASE = G$MHJIT.CU$->G$U.UHJITPP;

  10911   2 000087  DCC6 0352                            LDB,B5   850,B6
          2 000089  C845 0012                            LDR,R4   18,B5
          2 00008B  CAC6 000A                            SRM,R4,'7FFF'X    10,B6
          2 00008D       7FFF

     1145    10912    3                 CALL GHH$ASD (G$UHJIT$,G$MHJIT.ASDT_MON.UMHJIT);

  10912   2 00008E  CBC6 000A                            LAB,B4   10,B6
          2 000090  CFC7 000A                            STB,B4   EVFLG+3,AUTO
          2 000092  BB80 0000 0000  xsym                 LAB,B3   G$UHJIT$
          2 000095  BFC7 0008                            STB,B3   EVFLG+1,AUTO
          2 000097  BBC7 0008                            LAB,B3   EVFLG+1,AUTO
          2 000099  CBF0 0200                            LAB,B4   512,IMO
          2 00009B  E380 0000 0000  xent                 LNJ,B6   GHH$ASD
          2 00009E       0001                            DC       s:10913,PREL

PL6.E3A0      #003=GHS$XSCHD File=GHS$SCHD.:E05TSI                               TUE 07/29/97 21:41 Page:173
     1146    10913    3                 IF G$UHJIT.NATSAP$=G$UHJIT.ISA_USR.TSAP$ THEN

  10913   2 00009F  EC80 0000 0000  xsym                 LDB,B6   G$UHJIT$
          2 0000A2  DCC6 00FD                            LDB,B5   253,B6
          2 0000A4  DDC6 007F                            CMB,B5   127,B6
          2 0000A6  0981 000A                            BNE      s:10919,PREL

     1147    10914    3                    CALL SCREECH (NATSERR);

  10914   2 0000A8  BB80 0000 0002  03                   LAB,B3   +2
          2 0000AB  CBF0 0100                            LAB,B4   256,IMO
          2 0000AD  E380 0000 0000  xent                 LNJ,B6   SCREECH
          2 0000B0       0001                            DC       s:10919,PREL

     1148    10915        /*S*  SCREECH_CODE: GHS-S$NATSAP
     1149    10916              TYPE: SCREECH
     1150    10917              MESSAGE: NATSAP1 incorrect at execution schedule.
     1151    10918                                                                           */
     1152    10919    3                 G$LOW_MEM.NATSAP1$=G$UHJIT.NATSAP$;

  10919   2 0000B1  EC80 0000 0000  xsym                 LDB,B6   G$UHJIT$
          2 0000B4  DCC6 00FD                            LDB,B5   253,B6
          2 0000B6  CC80 0000 0000  xsym                 LDB,B4   G$LOW_MEM$
          2 0000B9  DFC4 000E                            STB,B5   14,B4

     1153    10920                      %UNLOCK (G=G_SCHDGATE);

  10925   2 0000BB  BB80 0000 0000  03                   LAB,B3   0
          2 0000BE  CBF0 0100                            LAB,B4   256,IMO
          2 0000C0  E380 0000 0000  xent                 LNJ,B6   GHH$UNLOCK
          2 0000C3       0001                            DC       s:10927,PREL

     1154    10927    3                 RETURN;

  10927   2 0000C4  C380 0000 0000  xent                 LNJ,B4   X6A_ARET

     1155    10928    3                 END;
PL6.E3A0      #003=GHS$XSCHD File=GHS$SCHD.:E05TSI                               TUE 07/29/97 21:41 Page:174
     1156    10929    2              END;

  10929   2 0000C7  8AC7 0005                            INC      J,AUTO
          2 0000C9  E847 0005                            LDR,R6   J,AUTO
          2 0000CB  6D0B                                 CMV,R6   11
          2 0000CC  0381 FF7B                            BLE      s:10897,PREL

     1157    10930
     1158    10931                %UNLOCK (G=G_SCHDGATE);

  10936   2 0000CE  BB80 0000 0000  03                   LAB,B3   0
          2 0000D1  CBF0 0100                            LAB,B4   256,IMO
          2 0000D3  E380 0000 0000  xent                 LNJ,B6   GHH$UNLOCK
          2 0000D6       0001                            DC       s:10938,PREL

     1159    10938    1           CALL GHH$LEV (GH_LEV_SUS_INH);

  10938   2 0000D7  BB80 0000 0004  03                   LAB,B3   +4
          2 0000DA  CBF0 0100                            LAB,B4   256,IMO
          2 0000DC  E380 0000 0000  xent                 LNJ,B6   GHH$LEV
          2 0000DF       0001                            DC       s:10940,PREL

     1160    10939
     1161    10940    1           IF EVFLG ~= GH_EVF THEN

  10940   2 0000E0  E847 0007                            LDR,R6   EVFLG,AUTO
          2 0000E2  E900 0000 0000  xsym                 CMR,R6   GH_EVF
          2 0000E5  0901 000A                            BE       s:10943,PREL

     1162    10941    1              CALL GHH$LEV (GH_TRIG_SCHD);

  10941   2 0000E7  BB80 0000 0006  03                   LAB,B3   +6
          2 0000EA  CBF0 0100                            LAB,B4   256,IMO
          2 0000EC  E380 0000 0000  xent                 LNJ,B6   GHH$LEV
          2 0000EF       0001                            DC       s:10943,PREL

     1163    10942
PL6.E3A0      #003=GHS$XSCHD File=GHS$SCHD.:E05TSI                               TUE 07/29/97 21:41 Page:175
     1164    10943    1           G_DIS = 0;                      /* Don't allow un-inhibit in GHR$IDL*/

  10943   2 0000F0  8700 0000 0000  xsym                 CL       G_DIS

     1165    10944    1           G$LOW_MEM.RTC_CURR = 16;        /* Let RTC go off every UTS tick      */

  10944   2 0000F3  EC80 0000 0000  xsym                 LDB,B6   G$LOW_MEM$
          2 0000F6  6C10                                 LDV,R6   16
          2 0000F7  EF46 0015                            STR,R6   21,B6

     1166    10945        /*N* The previous line could be improved some.  Figure when the next
     1167    10946             wake-up needs to occur. */
     1168    10947    1           CALL GHR$IDL;

  10947   2 0000F9  CBF0 0000                            LAB,B4   0,IMO
          2 0000FB  E380 0000 0000  xent                 LNJ,B6   GHR$IDL
          2 0000FE       0001                            DC       s:10948,PREL

     1169    10948    1           G_DIS=-1;

  10948   2 0000FF  8900 0000 0000  xsym                 LBT,'FFFF'X       G_DIS
  10948   2 000102       FFFF

     1170    10949    1           G_CPUSTATE(G$MHJIT.PNO) = %G_IDLE#;

  10949   2 000103  EC80 0000 0000  xsym                 LDB,B6   G$MHJIT$
          2 000106  B846 0354                            LDR,R3   852,B6
          2 000108  8730 0000 0000  xsym                 CL       G_CPUSTATE,R3

     1171    10950    1           G$MHJIT.ASDT_MON.UMHJIT.BASE = G$MHJIT.ASDT_MON.MHJIT.BASE;

  10950   2 00010B  E846 000C                            LDR,R6   12,B6
          2 00010D  EAC6 000A                            SRM,R6,'7FFF'X    10,B6
          2 00010F       7FFF

     1172    10951    1           CALL GHH$ASD (G$UHJIT$,G$MHJIT.ASDT_MON.UMHJIT);

PL6.E3A0      #003=GHS$XSCHD File=GHS$SCHD.:E05TSI                               TUE 07/29/97 21:41 Page:176
  10951   2 000110  DBC6 000A                            LAB,B5   10,B6
          2 000112  DFC7 000A                            STB,B5   EVFLG+3,AUTO
          2 000114  CB80 0000 0000  xsym                 LAB,B4   G$UHJIT$
          2 000117  CFC7 0008                            STB,B4   EVFLG+1,AUTO
          2 000119  BBC7 0008                            LAB,B3   EVFLG+1,AUTO
          2 00011B  CBF0 0200                            LAB,B4   512,IMO
          2 00011D  E380 0000 0000  xent                 LNJ,B6   GHH$ASD
          2 000120       0001                            DC       s:10952,PREL

     1173    10952    1           ALTRETURN;

  10952   2 000121  C380 0000 0000  xent                 LNJ,B4   X6A_AALT
     1174    10953    1   END;
     1175    10954        %EOD;

PL6.E3A0      #003=GHS$XSCHD File=GHS$SCHD.:E05TSI                               TUE 07/29/97 21:41 Page:177
--  Include file information  --

   SS_SCODE_C.:E05TOU  is referenced.
   GM_VIRTUAL_E.:E05TOU  is referenced.
   G_HJIT_M.:E05TOU  is referenced.
   GH_HARDWARE_M.:E05TOU  is referenced.
   GH_GATE_M.:E05TOU  cannot be made into a system file and is referenced.
   GH_SCHD_M.:E05TOU  is referenced.
   GH_SCHD_E.:E05TOU  is referenced.
   G_LCP6_E.:E05TOU  was found in the system file and is never referenced.
   GT_LCP6_M.:E05TOU  was found in the system file and is never referenced.
   KI_CP6.:E05TOU  was found in the system file and is never referenced.
   GF_LCP6_M.:E05TOU  was found in the system file and is never referenced.
   GM_LCP6_M.:E05TOU  was found in the system file and is never referenced.
   GU_LCP6_M.:E05TOU  was found in the system file and is referenced.
   GJ_LCP6_M.:E05TOU  was found in the system file and is never referenced.
   GH_LCP6_M.:E05TOU  was found in the system file and is referenced.
      No diagnostics issued in procedure GHS$XSCHD.
PL6.E3A0      #003=GHS$XSCHD File=GHS$SCHD.:E05TSI                               TUE 07/29/97 21:41 Page:178

 **** Variables and constants ****

  ****  Section 000  Data  GHS$XSCHD

  ****  Scalars and arrays  ****
HexLoc.c.b A Datatyp(siz) R M Lvl/name                 HexLoc.c.b A Datatyp(siz) R M Lvl/name

     0-0-0/w UBIN(16)    r     1 PRIODEC

  ****  Section 001 RoData GHS$XSCHD

  ****  Scalars and arrays  ****
HexLoc.c.b A Datatyp(siz) R M Lvl/name                 HexLoc.c.b A Datatyp(siz) R M Lvl/name

     0-0-0/w STRC(48)    r     1 NATSERR

  ****  Auto variables  ****

  ****  Scalars and arrays  ****
HexLoc.c.b A Datatyp(siz) R M Lvl/name                 HexLoc.c.b A Datatyp(siz) R M Lvl/name

     7-0-0/w UBIN(16)    r     1 EVFLG                      5-0-0/w UBIN(16)    r     1 J
     6-0-0/w UBIN(16)    r     1 K

  ****  SYMREF variables  ****

  ****  Scalars and arrays  ****
HexLoc.c.b A Datatyp(siz) R M Lvl/name                 HexLoc.c.b A Datatyp(siz) R M Lvl/name

     0-0-0/w PTR         r     1 G$LOW_MEM$                 0-0-0/w PTR         r     1 G$MHJIT$
     0-0-0/w PTR         r     1 G$UHJIT$                   0-0-0/w PTR         r     1 G$USRT$
     0-0-0/w UBIN(16)    r     1 GH_CUP                     0-0-0/w UBIN(16)    r     1 GH_EVF
     0-0-0/w SBIN(16)    r     1 GH_HIR                     0-0-0/w UBIN(16)    r     1 GH_HQ(0:0)
     0-0-0/w UBIN(16)    r     1 GH_LEV_SUS_INH             0-0-0/w UBIN(16)    r     1 GH_TRIG_SCHD
     0-0-0/w UBIN(16)    r     1 G_CPUSTATE(0:3)
     0-0-0/w SBIN(16)    r     1 G_DIS                      0-0-0/w STRC(48)    r     1 G_SCHDGATE

PL6.E3A0      #003=GHS$XSCHD File=GHS$SCHD.:E05TSI                               TUE 07/29/97 21:41 Page:179
  ****  BASED and DCB variables  ****

  ****  Scalars and arrays  ****
HexLoc.c.b A Datatyp(siz) R M Lvl/name                 HexLoc.c.b A Datatyp(siz) R M Lvl/name

     0-0-0/w STRC(4096)  r     1 G$LOW_MEM                  0-0-0/w STRC(27232) r     1 G$MHJIT
     0-0-0/w STRC(384)   r     1 G$U                        0-0-0/w STRC(6480)  r     1 G$UHJIT
     0-0-0/w STRC(384)   r     1 G$USER(0:0)


   Procedure GHS$XSCHD requires 292 words for executable code.
   Procedure GHS$XSCHD requires 12 words of local(AUTO) storage.
PL6.E3A0      #003=GHS$XSCHD File=GHS$SCHD.:E05TSI                               TUE 07/29/97 21:41 Page:180
          *** CROSS REFERENCE LISTING ***
**     DENOTES     IDENTIFIER DEFINITION
<<                 IDENTIFIER'S VALUE SET
>>                 IDENTIFIER'S VALUE USED
<>                 IDENTIFIER SET AND/OR USED
--                 IDENTIFIER REFERENCED
PL6.E3A0      #003=GHS$XSCHD File=GHS$SCHD.:E05TSI                               TUE 07/29/97 21:41 Page:181
          MINI XREF LISTING

EVFLG
       819**DCL     10894<<ASSIGN  10940>>IF
G$LOW_MEM.IV.IL$
     10778**DCL     10778--REDEF
G$LOW_MEM.IV.INT.I#00$
     10778**DCL     10778--REDEF
G$LOW_MEM.IV.INT.I#01$
     10778**DCL     10778--REDEF
G$LOW_MEM.IV.INT.I#02$
     10779**DCL     10779--REDEF
G$LOW_MEM.IV.INT.I#03$
     10779**DCL     10779--REDEF
G$LOW_MEM.IV.INT.I#04$
     10779**DCL     10780--REDEF
G$LOW_MEM.IV.INT.I#05$
     10780**DCL     10780--REDEF
G$LOW_MEM.IV.INT.I#61$
     10781**DCL     10781--REDEF
G$LOW_MEM.IV.INT.I#62$
     10781**DCL     10781--REDEF
G$LOW_MEM.IV.INT.I#63$
     10781**DCL     10781--REDEF
G$LOW_MEM.NATSAP1$
     10741**DCL     10881>>ASSIGN  10882<<ASSIGN  10919<<ASSIGN
G$LOW_MEM.RTC_CURR
     10742**DCL     10944<<ASSIGN
G$LOW_MEM.TV.T#01$
     10766**DCL     10766--REDEF
G$LOW_MEM.TV.T#02$
     10766**DCL     10766--REDEF
G$LOW_MEM.TV.T#03$
     10765**DCL     10765--REDEF
PL6.E3A0      #003=GHS$XSCHD File=GHS$SCHD.:E05TSI                               TUE 07/29/97 21:41 Page:182
G$LOW_MEM.TV.T#05$
     10765**DCL     10765--REDEF
G$LOW_MEM.TV.T#06$
     10764**DCL     10764--REDEF
G$LOW_MEM.TV.T#07$
     10764**DCL     10764--REDEF
G$LOW_MEM.TV.T#08$
     10763**DCL     10764--REDEF
G$LOW_MEM.TV.T#09$
     10763**DCL     10763--REDEF
G$LOW_MEM.TV.T#10$
     10763**DCL     10763--REDEF
G$LOW_MEM.TV.T#12$
     10762**DCL     10762--REDEF
G$LOW_MEM.TV.T#13$
     10762**DCL     10762--REDEF
G$LOW_MEM.TV.T#14$
     10761**DCL     10761--REDEF
G$LOW_MEM.TV.T#15$
     10761**DCL     10761--REDEF
G$LOW_MEM.TV.T#16$
     10760**DCL     10761--REDEF
G$LOW_MEM.TV.T#17$
     10760**DCL     10760--REDEF
G$LOW_MEM.TV.T#19$
     10759**DCL     10760--REDEF
G$LOW_MEM.TV.T#20$
     10759**DCL     10759--REDEF
G$LOW_MEM.TV.T#21$
     10759**DCL     10759--REDEF
G$LOW_MEM.TV.T#22$
     10758**DCL     10758--REDEF
G$LOW_MEM.TV.T#23$
     10758**DCL     10758--REDEF
G$LOW_MEM.TV.T#24$
     10757**DCL     10758--REDEF
PL6.E3A0      #003=GHS$XSCHD File=GHS$SCHD.:E05TSI                               TUE 07/29/97 21:41 Page:183
G$LOW_MEM.TV.T#25$
     10757**DCL     10757--REDEF
G$LOW_MEM.TV.T#26$
     10757**DCL     10757--REDEF
G$LOW_MEM.TV.T#27$
     10756**DCL     10756--REDEF
G$LOW_MEM.TV.T#28$
     10756**DCL     10756--REDEF
G$LOW_MEM.TV.T#29$
     10755**DCL     10756--REDEF
G$LOW_MEM.TV.T#30$
     10755**DCL     10755--REDEF
G$LOW_MEM.TV.T#31$
     10755**DCL     10755--REDEF
G$LOW_MEM.TV.T#32$
     10754**DCL     10754--REDEF
G$LOW_MEM.TV.T#33$
     10754**DCL     10754--REDEF
G$LOW_MEM$
       829**DCL     10741--IMP-PTR 10881>>ASSIGN  10882>>ASSIGN  10919>>ASSIGN  10944>>ASSIGN
G$MHJIT.ASDT_MON.MHJIT.BASE
      1042**DCL     10950>>ASSIGN
G$MHJIT.ASDT_MON.UMHJIT
      1018**DCL     10912<>CALL    10951<>CALL
G$MHJIT.ASDT_MON.UMHJIT.BASE
      1020**DCL     10911<<ASSIGN  10950<<ASSIGN
G$MHJIT.ASDT_MON.UMHJIT.SIZE
      1022**DCL     10910<<ASSIGN
G$MHJIT.CU$
      7204**DCL     10899<<ASSIGN  10903>>ASSIGN  10904>>IF      10907>>ASSIGN  10911>>ASSIGN
G$MHJIT.CUN
      7204**DCL     10879>>IF      10880<>CALL    10900<<ASSIGN
G$MHJIT.INTCON.HHJIT
      7338**DCL      7338--REDEF
G$MHJIT.INTCON.P$$
      7311**DCL      7311--REDEF
PL6.E3A0      #003=GHS$XSCHD File=GHS$SCHD.:E05TSI                               TUE 07/29/97 21:41 Page:184
G$MHJIT.ISA_BIGFOOT.P$$
      4256**DCL      4256--REDEF
G$MHJIT.ISA_DBINH.P$$
      5470**DCL      5470--REDEF
G$MHJIT.ISA_IDLE.P$$
      2351**DCL      2351--REDEF
G$MHJIT.ISA_LVL10.P$$
      5773**DCL      5773--REDEF
G$MHJIT.ISA_LVL11.P$$
      6076**DCL      6076--REDEF
G$MHJIT.ISA_LVL12.P$$
      6379**DCL      6379--REDEF
G$MHJIT.ISA_LVL5.P$$
      4559**DCL      4559--REDEF
G$MHJIT.ISA_OV.P$$
      3953**DCL      3953--REDEF
G$MHJIT.ISA_PFS.P$$
      3624**DCL      3624--REDEF
G$MHJIT.ISA_RT_CLOCK.P$$
      6986**DCL      6986--REDEF
G$MHJIT.ISA_SATYR_RCV.P$$
      4863**DCL      4863--REDEF
G$MHJIT.ISA_SATYR_TRN.P$$
      5167**DCL      5167--REDEF
G$MHJIT.ISA_SCHD.P$$
      6682**DCL      6682--REDEF
G$MHJIT.ISA_WDOG.P$$
      3732**DCL      3732--REDEF
G$MHJIT.PNO
      7204**DCL     10878>>ASSIGN  10949>>ASSIGN
G$MHJIT.TSA_DB.ISA.P$$
      2954**DCL      2954--REDEF
G$MHJIT.TSA_DB.P$$
      2825**DCL      2825--REDEF    2826--REDEF
G$MHJIT.TSA_HND.ISA.P$$
      7532**DCL      7532--REDEF
PL6.E3A0      #003=GHS$XSCHD File=GHS$SCHD.:E05TSI                               TUE 07/29/97 21:41 Page:185
G$MHJIT.TSA_HND.P$$
      7403**DCL      7403--REDEF    7404--REDEF
G$MHJIT.TSA_MON
      2407**DCL     10882--ASSIGN
G$MHJIT.TSA_MON.ISA.P$$
      2566**DCL      2566--REDEF
G$MHJIT.TSA_MON.P$$
      2437**DCL      2437--REDEF    2438--REDEF
G$MHJIT.TSA_OV.ISA.P$$
      3342**DCL      3342--REDEF
G$MHJIT.TSA_OV.P$$
      3213**DCL      3213--REDEF    3214--REDEF
G$MHJIT$
       828**DCL       876--IMP-PTR 10878>>ASSIGN  10879>>IF      10880>>CALL    10882>>ASSIGN  10899>>ASSIGN
     10900>>ASSIGN  10903>>ASSIGN  10904>>IF      10907>>ASSIGN  10910>>ASSIGN  10911>>ASSIGN  10911>>ASSIGN
     10912>>CALL    10949>>ASSIGN  10950>>ASSIGN  10950>>ASSIGN  10951>>CALL
G$U.MISC
       843**DCL       843--REDEF
G$U.PRIO
       845**DCL     10903>>ASSIGN  10907<<ASSIGN
G$U.PRIOB
       845**DCL     10904>>IF
G$U.UHJITPP
       845**DCL     10911>>ASSIGN
G$UHJIT
      7750**DCL     10910--ASSIGN
G$UHJIT.ISA_USR
      9173**DCL      9468--REDEF
G$UHJIT.ISA_USR.P$$
      9248**DCL      9248--REDEF
G$UHJIT.ISA_USR.TSAP$
      9175**DCL     10913>>IF
G$UHJIT.NATSAP$
      9878**DCL     10881<<ASSIGN  10913>>IF      10919>>ASSIGN
G$UHJIT.TSA_CP.ISA.P$$
     10455**DCL     10455--REDEF
PL6.E3A0      #003=GHS$XSCHD File=GHS$SCHD.:E05TSI                               TUE 07/29/97 21:41 Page:186
G$UHJIT.TSA_CP.P$$
     10326**DCL     10326--REDEF   10327--REDEF
G$UHJIT.TSA_DB.ISA.P$$
     10067**DCL     10067--REDEF
G$UHJIT.TSA_DB.P$$
      9938**DCL      9938--REDEF    9939--REDEF
G$UHJIT.TSA_RTT.P$$
     10701**DCL     10701--REDEF   10702--REDEF
G$UHJIT.TSA_USR.ISA.P$$
      9657**DCL      9657--REDEF
G$UHJIT.TSA_USR.P$$
      9528**DCL      9528--REDEF    9529--REDEF
G$UHJIT$
       827**DCL      7750--IMP-PTR 10881>>ASSIGN  10912<>CALL    10913>>IF      10913>>IF      10919>>ASSIGN
     10951<>CALL
G$USER
       853**DCL     10899--ASSIGN
G$USER.MISC
       854**DCL       854--REDEF
G$USRT$
       822**DCL       853--IMP-PTR 10899>>ASSIGN
GHH$ASD
     10867**DCL-ENT 10912--CALL    10951--CALL
GHH$LEV
     10873**DCL-ENT 10938--CALL    10941--CALL
GHH$LOCK
       339**DCL-ENT 10891--CALL
GHH$UNLOCK
       339**DCL-ENT 10925--CALL    10936--CALL
GHR$IDL
     10872**DCL-ENT 10947--CALL
GHS$CHS
     10869**DCL-ENT 10902--CALL
GHS$CHSE
     10870**DCL-ENT 10880--CALL
GHS$MONTIMRWU
PL6.E3A0      #003=GHS$XSCHD File=GHS$SCHD.:E05TSI                               TUE 07/29/97 21:41 Page:187
     10874**DCL-ENT 10884--CALL
GH_CUP
       826**DCL     10903<<ASSIGN  10904>>IF      10906<<ASSIGN  10906>>ASSIGN  10907>>ASSIGN
GH_EVF
       823**DCL     10894>>ASSIGN  10940>>IF
GH_HIR
       825**DCL     10901<<ASSIGN  10901>>ASSIGN
GH_HQ
       824**DCL     10897>>ASSIGN
GH_LEV_SUS_INH
       830**DCL     10938<>CALL
GH_TRIG_SCHD
       831**DCL     10941<>CALL
G_CPUSTATE
       832**DCL     10878<<ASSIGN  10949<<ASSIGN
G_DIS
       833**DCL     10943<<ASSIGN  10948<<ASSIGN
G_SCHDGATE
     10797**DCL     10891<>CALL    10925<>CALL    10936<>CALL
J
       817**DCL     10896<<DOINDEX 10897>>ASSIGN
K
       818**DCL     10897<<ASSIGN  10898>>IF      10899>>ASSIGN  10900>>ASSIGN  10902<>CALL
NATSERR
     10832**DCL     10914<>CALL
PRIODEC
       820**DCL     10906>>ASSIGN
SCREECH
     10875**DCL-ENT 10914--CALL

PL6.E3A0      #004=GHS$EVENT File=GHS$SCHD.:E05TSI                               TUE 07/29/97 21:42 Page:188
     1176        1        /*T***********************************************************/
     1177        2        /*T*                                                         */
     1178        3        /*T* Copyright (c) Bull HN Information Systems Inc., 1997    */
     1179        4        /*T*                                                         */
     1180        5        /*T***********************************************************/
     1181        6        /*F*
     1182        7             NAME: GHS$EVENT
     1183        8             PURPOSE:
     1184        9                   To add an item onto a user's Dolist.
     1185       10             DESCRIPTION:
     1186       11                    This procedure adds an entry onto a user's Dolist containing
     1187       12                    data passed in the parameter list.
     1188       13        */
     1189       14        /*D*
     1190       15             NAME: GHS$EVENT
     1191       16             CALL:
     1192       17                   CALL GHS$EVENT (User-number,
     1193       18                                   Domain,
     1194       19                                   ECC-subcode,
     1195       20                                   Event-id,
     1196       21                                   Error-code,
     1197       22                                   ECC-information,
     1198       23                                   Eventproc-entry);
     1199       24             PARAMETERS:
     1200       25                    User-number is the number of the user on whose Dolist the event
     1201       26                    entry is to be added.
     1202       27                    Domain is the number of the domain which is to receive the event.
     1203       28                    The three domains are, User, Command Processor and Debugger.
     1204       29                    ECC-subcode is an Exceptional Condition code number to indicate
     1205       30                    the type of event, e.g., I/O complete, M$CLOCK runout.
     1206       31                    Event-id is an identifier specified by the user requesting the
     1207       32                    service associated with this event.
     1208       33                    Error-code indicates any error condition that may have occured
     1209       34                    as a result of the service associated with this event.
     1210       35                    ECC-information is an array of data to be transmitted to the
     1211       36                    user when the event is reported.  The first word of the array
     1212       37                    contains a count of the number of words following in the array.
PL6.E3A0      #004=GHS$EVENT File=GHS$SCHD.:E05TSI                               TUE 07/29/97 21:42 Page:189
     1213       38                    Eventproc-entry is an EPTR to a monitor procedure to be called
     1214       39                    during Dolist processing for the user.
     1215       40
     1216       41             INTERFACE:
     1217       42                    Dolist entries are defined in the G$DO and G$DOCONT macros
     1218       43                    found in the GH_SCHD_M Include File.
     1219       44             DESCRIPTION:
     1220       45                    An entry is obtained from the free Dolist list.  If an entry
     1221       46                    is not available, a screech occurs since this procedure may
     1222       47                    be called at interrupt level and its not possible to wait for
     1223       48                    a free entry.
     1224       49
     1225       50                    Information passed as parameters is moved to the DOlist entry.
     1226       51
     1227       52                    If the ECC-information array is larger than the space available
     1228       53                    in a Dolist entry, subsequent entries are obtained to contain
     1229       54                    the addtional information.
     1230       55
     1231       56                    The entries are added to the Dolist list of the specified user.
     1232       57                    If the user is in the Sleep state, %GH_W, a wakeup event is
     1233       58                    reported on him.
     1234       59
     1235       60        */
     1236       61
     1237       62        /*X*              */
     1238       63
     1239       64        GHS$EVENT: PROC(USR,DMAIN,ECCSC,EVID,ERRC,ECCI,EPTR$);
     1240       65
     1241       66
     1242       67        %INCLUDE GH_SCHD_M;
     1243      211        %INCLUDE GH_SCHD_E;
     1244      307        %INCLUDE GH_GATE_M;
     1245      348 S      %INCLUDE GU_LCP6_M;
     1246      349 S      %INCLUDE GH_LCP6_M;
     1247      350        %INCLUDE GH_HARDWARE_M;
     1248      448        %INCLUDE SS_SCODE_C;
     1249      468
PL6.E3A0      #004=GHS$EVENT File=GHS$SCHD.:E05TSI                               TUE 07/29/97 21:42 Page:190
     1250      469    1   DCL USR UBIN;                           /*User number                         */
     1251      470    1   DCL DMAIN UBIN;                         /* Domain                             */
     1252      471    1   DCL ECCSC UBIN;                         /* ECC SUBCODE                        */
     1253      472    1   DCL EVID UBIN;                          /* Event ID                           */
     1254      473        %VLP_ERRCODE (FPTN=ERRC,STCLASS="");    /* Error code                         */
     1255      519    1   DCL ECCI(0:0) UBIN;                     /* Event information                  */
     1256      520    1   DCL EPTR$ EPTR;                         /* Monitor event procedure            */
     1257      521
     1258      522
     1259      523    1   DCL SCREECH ENTRY(1);
     1260      524
     1261      525    1   DCL G$USRT$ PTR SYMREF;
     1262      526    1   DCL G_DL$ PTR SYMREF;
     1263      527
     1264      528
     1265      529        %G$USER;
     1266      540        %G$USER (FPTN="G$USER(0:0)",STCLASS="BASED(G$USRT$)");
     1267      551        %G$DO;
     1268      614        %G$DOCONT;
     1269      621        %GATE (FPTN=G_UDLGATE,STCLASS=SYMREF);
     1270      640        %GATE (FPTN=G_DOGATE,STCLASS=SYMREF);
     1271      659        %VLP_SCODE (FPTN=DOERR,ERR#=%S$DOLIST,SEV=G_SEV_SCREECH#,STCLASS=CONSTANT,
     1272      660                    FCG=GH,MID=S,MON='1'B);
     1273      721
     1274      722
     1275      723    1   DCL SIZE SBIN;                          /* Temp ECC info size                 */
     1276      724    1   DCL USER$ PTR;                          /* Temp User pointer                  */
     1277      725    1   DCL A UBIN BASED;                       /* Temp                               */
     1278      726    1   DCL B CHAR(K) BASED;
     1279      727    1   DCL SFLAG BIT(1);
     1280      728    1   DCL LIM SBIN;
     1281      729    1   DCL D$ PTR;
     1282      730    1   DCL DO$ PTR;
     1283      731    1   DCL DI$ PTR;
     1284      732    1   DCL E$ PTR;
     1285      733    1   DCL K UBIN;
     1286      734    1   DCL EVNT REDEF K UBIN;
PL6.E3A0      #004=GHS$EVENT File=GHS$SCHD.:E05TSI                               TUE 07/29/97 21:42 Page:191
     1287      735    1   DCL ZERO UBIN CONSTANT INIT(0);
     1288      736    1   DCL   GHS$RUE ENTRY(4) ALTRET;
     1289      737        %EJECT;
PL6.E3A0      #004=GHS$EVENT File=GHS$SCHD.:E05TSI                               TUE 07/29/97 21:42 Page:192
     1290      738    1           SFLAG='0'B;
     1291      739    1   EV0:    USER$ = ADDR(G$USER(USR));
     1292      740    1           IF USER$ -> G$U.US = %GH_NULL THEN
     1293      741    1              RETURN;
     1294      742    1           CALL GDOBLK(DI$);               /* Get a Dolist entry                 */
     1295      743    1           DO$ = DI$;
     1296      744    1           DO$->G$DO.DMAIN=DMAIN;
     1297      745    1           DO$->G$DO.ECCSC=ECCSC;
     1298      746    1           DO$->G$DO.EVID=EVID;
     1299      747    1           DO$->G$DO.SAVE=SFLAG;
     1300      748    1           IF ADDR(EPTR$) = ADDR(NIL) THEN
     1301      749    1              DO$->G$DO.ENTER=ENTADDR(NIL);
     1302      750    1           ELSE
     1303      751    1              DO$->G$DO.ENTER=EPTR$;
     1304      752    1           IF ADDR(ERRC) = ADDR(NIL) THEN
     1305      753    1              DO$->G$DO.ERRC='0'B;
     1306      754    1           ELSE
     1307      755    1              DO$->G$DO.ERRC=ERRC;
     1308      756    1           IF ADDR(ECCI)=ADDR(NIL) THEN
     1309      757    1              E$=ADDR(ZERO);
     1310      758    1           ELSE
     1311      759    1              E$=ADDR(ECCI);
     1312      760    1           SIZE=(E$->A+1)*2;               /* Bytes to move, including size      */
     1313      761    1           LIM=SIZEC(G$DO.ECCINFO)+SIZEC(G$DO.ECCSZ);
     1314      762    1           D$=ADDR(DO$->G$DO.ECCSZ);
     1315      763    1   EV1:    DO$->G$DO.CONT='0'B;
     1316      764    1           DO$->G$DO.BUSY='0'B;
     1317      765    1           DO$->G$DO.SCHDDO='0'B;
     1318      766    1           IF SIZE > LIM THEN
     1319      767    1              K = LIM;
     1320      768    1           ELSE
     1321      769    1              K = SIZE;
     1322      770    1           D$->B=E$->B;
     1323      771    1           SIZE=SIZE-K;
     1324      772    1           LIM=SIZEC(G$DOCONT.ECCINFO);
     1325      773    1           IF SIZE > 0 THEN
     1326      774    2           DO;
PL6.E3A0      #004=GHS$EVENT File=GHS$SCHD.:E05TSI                               TUE 07/29/97 21:42 Page:193
     1327      775    2              CALL GDOBLK(D$);
     1328      776    2              DO$->G$DO.LNK$=D$;
     1329      777    2              E$=PINCRW(E$,K/2);
     1330      778    2              DO$->G$DO.CONT='1'B;
     1331      779    2              DO$=D$;
     1332      780    2              D$=ADDR(DO$->G$DOCONT.ECCINFO);
     1333      781    2              GOTO EV1;
     1334      782    2              END;
     1335      783
     1336      784                %LOCK (G = G_UDLGATE);
     1337      791
     1338      792    1           DO$->G$DO.LNK$=ADDR(NIL);
     1339      793    1           D$=ADDR(USER$ -> G$U.DL$);
     1340      794    2           DO WHILE (D$->G$DO.LNK$ ~= ADDR(NIL));
     1341      795    2              D$=D$->G$DO.LNK$;
     1342      796    2              END;
     1343      797    1           D$->G$DO.LNK$=DI$;
     1344      798
     1345      799                %UNLOCK (G = G_UDLGATE);
     1346      806
     1347      807    1           IF USER$->G$U.US = %GH_W
     1348      808    1           THEN EVNT = %GH_EVWU;
     1349      809    1           ELSE IF USER$->G$U.US = %GH_TI
     1350      810    1              THEN EVNT = %GH_EVCIC;
     1351      811    1              ELSE IF USER$->G$U.US = %GH_TOB
     1352      812    1                 THEN EVNT = %GH_EVCUB;
     1353      813    1                 ELSE RETURN;
     1354      814
     1355      815    1           CALL GHS$RUE(EVNT,USR);
     1356      816    1           RETURN;
     1357      817
     1358      818        /*         THIS ENTRY POINT SETS THE SAVE FLAG IN THE DOLIST ENTRY
     1359      819                CAUSING IT TO BE RETAINED, IF THE RECEIVER DOES NOT HAVE
     1360      820                AN EVENT HANDLER, INSTEAD OF ABORTING THE RECEIVER WITH
     1361      821                ERROR CODE SSC-495.                                           */
     1362      822        /*                                                                    */
     1363      823    1   GHS$EVENTG: ENTRY(USR,DMAIN,ECCSC,EVID,ERRC,ECCI,EPTR$);
PL6.E3A0      #004=GHS$EVENT File=GHS$SCHD.:E05TSI                               TUE 07/29/97 21:42 Page:194
     1364      824
     1365      825    1           SFLAG='1'B;
     1366      826    1           GOTO EV0;
     1367      827        %EJECT;
PL6.E3A0      #004=GHS$EVENT File=GHS$SCHD.:E05TSI                               TUE 07/29/97 21:42 Page:195
     1368      828    1   GDOBLK: PROC(DD$);
     1369      829    2   DCL  DD$ PTR;
     1370      830        /*                                                                    */
     1371      831
     1372      832             %LOCK (G = G_DOGATE);
     1373      839
     1374      840    2           DD$=G_DL$;
     1375      841    2           IF DD$ = ADDR(NIL) THEN
     1376      842    2              CALL SCREECH (DOERR);
     1377      843    2           ELSE
     1378      844    2              G_DL$=G_DL$->G$DO.LNK$;
     1379      845
     1380      846                %UNLOCK (G = G_DOGATE);
     1381      853
     1382      854    2           RETURN;
     1383      855    2   END;
     1384      856    1   END;
     1385      857        %EOD;

PL6.E3A0      #004=GHS$EVENT File=GHS$SCHD.:E05TSI                               TUE 07/29/97 21:42 Page:196
--  Include file information  --

   SS_SCODE_C.:E05TOU  is referenced.
   GH_HARDWARE_M.:E05TOU  is referenced.
   GH_GATE_M.:E05TOU  cannot be made into a system file and is referenced.
   GH_SCHD_E.:E05TOU  is referenced.
   GH_SCHD_M.:E05TOU  is referenced.
   G_LCP6_E.:E05TOU  was found in the system file and is never referenced.
   GT_LCP6_M.:E05TOU  was found in the system file and is never referenced.
   KI_CP6.:E05TOU  was found in the system file and is never referenced.
   GF_LCP6_M.:E05TOU  was found in the system file and is never referenced.
   GM_LCP6_M.:E05TOU  was found in the system file and is never referenced.
   GU_LCP6_M.:E05TOU  was found in the system file and is referenced.
   GJ_LCP6_M.:E05TOU  was found in the system file and is never referenced.
   GH_LCP6_M.:E05TOU  was found in the system file and is referenced.
      No diagnostics issued in procedure GHS$EVENT.

   Procedure GHS$EVENT requires 351 words for executable code.
   Procedure GHS$EVENT requires 40 words of local(AUTO) storage.

PL6.E3A0      #004=GHS$EVENT File=GHS$SCHD.:E05TSI                               TUE 07/29/97 21:42 Page:197

 Object Unit name= GHS$EVENT                                  File name= GHS$SCHD.:E05TOU
 UTS= JUL 29 '97 21:42:39.64 TUE                              Compiler= PL-6/E31         Sev=      00
 SharedLib= :SHARED_LCP6_SYSTEM                               Alt SharedLib=


    ****  Control sections  ****

 Sect   Type Bound  Init  Size HexSiz  Section name
    0  RoData even  UTS      4      4  GHS$EVENT
    1   Proc  even  none   351    15F  GHS$EVENT
    2  RoData even  none     8      8  GHS$EVENT

    ****  Entry defs  ****

                              Check   Calling
                             calling  sequence
  Sect HexLoc Primary Altret sequence   type   Parms  Name
     1      0   yes            yes      Std        7  GHS$EVENT
     1    122                  yes      Std        7  GHS$EVENTG

  ****  Entry refs  ****

         Check        Calling
        calling       sequence
Altret sequence SRef   type   Args  Name
 yes     yes           Std       1 GHH$LOCK
 yes     yes           Std       1 GHH$UNLOCK
 yes     yes           Std       4 GHS$RUE
         yes           Std       1 SCREECH
                       nStd      0 X6A_AUTO_N
                       nStd      0 X6A_ARET
PL6.E3A0      #004=GHS$EVENT File=GHS$SCHD.:E05TSI                               TUE 07/29/97 21:42 Page:198

  ****  Data refs  ****

  Flags:  r = read only, s = secondary
Flgs Name                             Flgs Name                             Flgs Name
     G$USRT$                               G_DL$                                 G_UDLGATE
     G_DOGATE                         r    G$ROS$
PL6.E3A0      #004=GHS$EVENT File=GHS$SCHD.:E05TSI                               TUE 07/29/97 21:42 Page:199


     1176        1        /*T***********************************************************/
     1177        2        /*T*                                                         */
     1178        3        /*T* Copyright (c) Bull HN Information Systems Inc., 1997    */
     1179        4        /*T*                                                         */
     1180        5        /*T***********************************************************/
     1181        6        /*F*
     1182        7             NAME: GHS$EVENT
     1183        8             PURPOSE:
     1184        9                   To add an item onto a user's Dolist.
     1185       10             DESCRIPTION:
     1186       11                    This procedure adds an entry onto a user's Dolist containing
     1187       12                    data passed in the parameter list.
     1188       13        */
     1189       14        /*D*
     1190       15             NAME: GHS$EVENT
     1191       16             CALL:
     1192       17                   CALL GHS$EVENT (User-number,
     1193       18                                   Domain,
     1194       19                                   ECC-subcode,
     1195       20                                   Event-id,
     1196       21                                   Error-code,
     1197       22                                   ECC-information,
     1198       23                                   Eventproc-entry);
     1199       24             PARAMETERS:
     1200       25                    User-number is the number of the user on whose Dolist the event
     1201       26                    entry is to be added.
     1202       27                    Domain is the number of the domain which is to receive the event.
     1203       28                    The three domains are, User, Command Processor and Debugger.
     1204       29                    ECC-subcode is an Exceptional Condition code number to indicate
     1205       30                    the type of event, e.g., I/O complete, M$CLOCK runout.
     1206       31                    Event-id is an identifier specified by the user requesting the
     1207       32                    service associated with this event.
     1208       33                    Error-code indicates any error condition that may have occured
     1209       34                    as a result of the service associated with this event.
     1210       35                    ECC-information is an array of data to be transmitted to the
     1211       36                    user when the event is reported.  The first word of the array
PL6.E3A0      #004=GHS$EVENT File=GHS$SCHD.:E05TSI                               TUE 07/29/97 21:42 Page:200
     1212       37                    contains a count of the number of words following in the array.
     1213       38                    Eventproc-entry is an EPTR to a monitor procedure to be called
     1214       39                    during Dolist processing for the user.
     1215       40
     1216       41             INTERFACE:
     1217       42                    Dolist entries are defined in the G$DO and G$DOCONT macros
     1218       43                    found in the GH_SCHD_M Include File.
     1219       44             DESCRIPTION:
     1220       45                    An entry is obtained from the free Dolist list.  If an entry
     1221       46                    is not available, a screech occurs since this procedure may
     1222       47                    be called at interrupt level and its not possible to wait for
     1223       48                    a free entry.
     1224       49
     1225       50                    Information passed as parameters is moved to the DOlist entry.
     1226       51
     1227       52                    If the ECC-information array is larger than the space available
     1228       53                    in a Dolist entry, subsequent entries are obtained to contain
     1229       54                    the addtional information.
     1230       55
     1231       56                    The entries are added to the Dolist list of the specified user.
     1232       57                    If the user is in the Sleep state, %GH_W, a wakeup event is
     1233       58                    reported on him.
     1234       59
     1235       60        */
     1236       61
     1237       62        /*X*              */
     1238       63
     1239       64        GHS$EVENT: PROC(USR,DMAIN,ECCSC,EVID,ERRC,ECCI,EPTR$);

     64   1 000000  D380 0000 0000  xent GHS$EVENT       LNJ,B5   X6A_AUTO_N
          1 000003       0028 0007                       DC       40,7

     1240       65
     1241       66
     1242       67        %INCLUDE GH_SCHD_M;
     1243      211        %INCLUDE GH_SCHD_E;
     1244      307        %INCLUDE GH_GATE_M;
PL6.E3A0      #004=GHS$EVENT File=GHS$SCHD.:E05TSI                               TUE 07/29/97 21:42 Page:201
     1245      348 S      %INCLUDE GU_LCP6_M;
     1246      349 S      %INCLUDE GH_LCP6_M;
     1247      350        %INCLUDE GH_HARDWARE_M;
     1248      448        %INCLUDE SS_SCODE_C;
     1249      468
     1250      469    1   DCL USR UBIN;                           /*User number                         */
     1251      470    1   DCL DMAIN UBIN;                         /* Domain                             */
     1252      471    1   DCL ECCSC UBIN;                         /* ECC SUBCODE                        */
     1253      472    1   DCL EVID UBIN;                          /* Event ID                           */
     1254      473        %VLP_ERRCODE (FPTN=ERRC,STCLASS="");    /* Error code                         */
     1255      519    1   DCL ECCI(0:0) UBIN;                     /* Event information                  */
     1256      520    1   DCL EPTR$ EPTR;                         /* Monitor event procedure            */
     1257      521
     1258      522
     1259      523    1   DCL SCREECH ENTRY(1);
     1260      524
     1261      525    1   DCL G$USRT$ PTR SYMREF;
     1262      526    1   DCL G_DL$ PTR SYMREF;
     1263      527
     1264      528
     1265      529        %G$USER;
     1266      540        %G$USER (FPTN="G$USER(0:0)",STCLASS="BASED(G$USRT$)");
     1267      551        %G$DO;
     1268      614        %G$DOCONT;
     1269      621        %GATE (FPTN=G_UDLGATE,STCLASS=SYMREF);
     1270      640        %GATE (FPTN=G_DOGATE,STCLASS=SYMREF);
     1271      659        %VLP_SCODE (FPTN=DOERR,ERR#=%S$DOLIST,SEV=G_SEV_SCREECH#,STCLASS=CONSTANT,
     1272      660                    FCG=GH,MID=S,MON='1'B);
     1273      721
     1274      722
     1275      723    1   DCL SIZE SBIN;                          /* Temp ECC info size                 */
     1276      724    1   DCL USER$ PTR;                          /* Temp User pointer                  */
     1277      725    1   DCL A UBIN BASED;                       /* Temp                               */
     1278      726    1   DCL B CHAR(K) BASED;
     1279      727    1   DCL SFLAG BIT(1);
     1280      728    1   DCL LIM SBIN;
     1281      729    1   DCL D$ PTR;
PL6.E3A0      #004=GHS$EVENT File=GHS$SCHD.:E05TSI                               TUE 07/29/97 21:42 Page:202
     1282      730    1   DCL DO$ PTR;
     1283      731    1   DCL DI$ PTR;
     1284      732    1   DCL E$ PTR;
     1285      733    1   DCL K UBIN;
     1286      734    1   DCL EVNT REDEF K UBIN;
     1287      735    1   DCL ZERO UBIN CONSTANT INIT(0);
     1288      736    1   DCL   GHS$RUE ENTRY(4) ALTRET;
     1289      737        %EJECT;
PL6.E3A0      #004=GHS$EVENT File=GHS$SCHD.:E05TSI                               TUE 07/29/97 21:42 Page:203
     1290      738    1           SFLAG='0'B;

    738   1 000005  8747 0015                            CL       SFLAG,AUTO

     1291      739    1   EV0:    USER$ = ADDR(G$USER(USR));

    739   1 000007  ECC7 0004            EV0             LDB,B6   @USR,AUTO
          1 000009  B806                                 LDR,R3   ,B6
          1 00000A  DC80 0000 0000  xsym                 LDB,B5   G$USRT$
          1 00000D  3F18                                 MLV,R3   24
          1 00000E  CBB5                                 LAB,B4   ,B5,R3
          1 00000F  CFC7 0013                            STB,B4   USER$,AUTO

     1292      740    1           IF USER$ -> G$U.US = %GH_NULL THEN

    740   1 000011  E844 0002                            LDR,R6   2,B4
          1 000013  6D1F                                 CMV,R6   31
          1 000014  0981 0004                            BNE      s:742,PREL

     1293      741    1              RETURN;

    741   1 000016  C380 0000 0000  xent                 LNJ,B4   X6A_ARET

     1294      742    1           CALL GDOBLK(DI$);               /* Get a Dolist entry                 */

    742   1 000019  BBC7 001B                            LAB,B3   DI$,AUTO
          1 00001B  BFC7 0022                            STB,B3   K+3,AUTO
          1 00001D  E3C0 010E                            LNJ,B6   s:0,PREL
          1 00001F       0001                            DC       s:743,PREL

     1295      743    1           DO$ = DI$;

    743   1 000020  ECC7 001B                            LDB,B6   DI$,AUTO
          1 000022  EFC7 0019                            STB,B6   DO$,AUTO

     1296      744    1           DO$->G$DO.DMAIN=DMAIN;

PL6.E3A0      #004=GHS$EVENT File=GHS$SCHD.:E05TSI                               TUE 07/29/97 21:42 Page:204
    744   1 000024  DCC7 0006                            LDB,B5   @DMAIN,AUTO
          1 000026  E805                                 LDR,R6   ,B5
          1 000027  EAC6 0002                            SRM,R6,'00FF'X    2,B6
          1 000029       00FF

     1297      745    1           DO$->G$DO.ECCSC=ECCSC;

    745   1 00002A  CCC7 0008                            LDB,B4   @ECCSC,AUTO
          1 00002C  E804                                 LDR,R6   ,B4
          1 00002D  E7C6 0005                            STH,R6   5,B6

     1298      746    1           DO$->G$DO.EVID=EVID;

    746   1 00002F  BCC7 000A                            LDB,B3   @EVID,AUTO
          1 000031  E803                                 LDR,R6   ,B3
          1 000032  E7C6 0006                            STH,R6   6,B6

     1299      747    1           DO$->G$DO.SAVE=SFLAG;

    747   1 000034  E847 0015                            LDR,R6   SFLAG,AUTO
          1 000036  6043                                 SOR,R6   3
          1 000037  EAC6 0002                            SRM,R6,'1000'X    2,B6
          1 000039       1000

     1300      748    1           IF ADDR(EPTR$) = ADDR(NIL) THEN

    748   1 00003A  ACC7 0010                            LDB,B2   @EPTR$,AUTO
          1 00003C  8DD2                                 CMN      B2
          1 00003D  0981 0008                            BNE      s:751,PREL

     1301      749    1              DO$->G$DO.ENTER=ENTADDR(NIL);

    749   1 00003F  9C80 0000 0000  02                   LDB,B1   0
          1 000042  9FC6 0003                            STB,B1   3,B6
          1 000044  0F81 0004                            B        s:752,PREL

     1302      750    1           ELSE
PL6.E3A0      #004=GHS$EVENT File=GHS$SCHD.:E05TSI                               TUE 07/29/97 21:42 Page:205
     1303      751    1              DO$->G$DO.ENTER=EPTR$;

    751   1 000046  9C82                                 LDB,B1   ,B2
          1 000047  9FC6 0003                            STB,B1   3,B6

     1304      752    1           IF ADDR(ERRC) = ADDR(NIL) THEN

    752   1 000049  ECC7 000C                            LDB,B6   @ERRC,AUTO
          1 00004B  8DD6                                 CMN      B6
          1 00004C  0981 0009                            BNE      s:755,PREL

     1305      753    1              DO$->G$DO.ERRC='0'B;

    753   1 00004E  9CC7 0019                            LDB,B1   DO$,AUTO
          1 000050  8741 0007                            CL       7,B1
          1 000052  8741 0008                            CL       8,B1
          1 000054  0F81 0006                            B        s:756,PREL

     1306      754    1           ELSE
     1307      755    1              DO$->G$DO.ERRC=ERRC;

    755   1 000056  8C86                                 LDI      ,B6
          1 000057  9CC7 0019                            LDB,B1   DO$,AUTO
          1 000059  8D41 0007                            SDI      7,B1

     1308      756    1           IF ADDR(ECCI)=ADDR(NIL) THEN

    756   1 00005B  ECC7 000E                            LDB,B6   @ECCI,AUTO
          1 00005D  8DD6                                 CMN      B6
          1 00005E  0981 0008                            BNE      s:759,PREL

     1309      757    1              E$=ADDR(ZERO);

    757   1 000060  EB80 0000 0003  00                   LAB,B6   ZERO
          1 000063  EFC7 001D                            STB,B6   E$,AUTO
          1 000065  0F81 0003                            B        s:760,PREL

PL6.E3A0      #004=GHS$EVENT File=GHS$SCHD.:E05TSI                               TUE 07/29/97 21:42 Page:206
     1310      758    1           ELSE
     1311      759    1              E$=ADDR(ECCI);

    759   1 000067  EFC7 001D                            STB,B6   E$,AUTO

     1312      760    1           SIZE=(E$->A+1)*2;               /* Bytes to move, including size      */

    760   1 000069  E806                                 LDR,R6   ,B6
          1 00006A  6001                                 SOL,R6   1
          1 00006B  6E02                                 ADV,R6   2
          1 00006C  EF47 0012                            STR,R6   SIZE,AUTO

     1313      761    1           LIM=SIZEC(G$DO.ECCINFO)+SIZEC(G$DO.ECCSZ);

    761   1 00006E  5C0E                                 LDV,R5   14
          1 00006F  DF47 0016                            STR,R5   LIM,AUTO

     1314      762    1           D$=ADDR(DO$->G$DO.ECCSZ);

    762   1 000071  EBC1 0009                            LAB,B6   9,B1
          1 000073  EFC7 0017                            STB,B6   D$,AUTO

     1315      763    1   EV1:    DO$->G$DO.CONT='0'B;

    763   1 000075  ECC7 0019            EV1             LDB,B6   DO$,AUTO
          1 000077  8846 0002                            LBF,'4000'X       2,B6
          1 000079       4000

     1316      764    1           DO$->G$DO.BUSY='0'B;

    764   1 00007A  8846 0002                            LBF,'8000'X       2,B6
    764   1 00007C       8000

     1317      765    1           DO$->G$DO.SCHDDO='0'B;

    765   1 00007D  8846 0002                            LBF,'2000'X       2,B6
    765   1 00007F       2000
PL6.E3A0      #004=GHS$EVENT File=GHS$SCHD.:E05TSI                               TUE 07/29/97 21:42 Page:207

     1318      766    1           IF SIZE > LIM THEN

    766   1 000080  E847 0012                            LDR,R6   SIZE,AUTO
          1 000082  E947 0016                            CMR,R6   LIM,AUTO
          1 000084  0A81 0007                            BALE     s:769,PREL

     1319      767    1              K = LIM;

    767   1 000086  D847 0016                            LDR,R5   LIM,AUTO
          1 000088  DF47 001F                            STR,R5   K,AUTO
          1 00008A  0F81 0003                            B        s:770,PREL

     1320      768    1           ELSE
     1321      769    1              K = SIZE;

    769   1 00008C  EF47 001F                            STR,R6   K,AUTO

     1322      770    1           D$->B=E$->B;

    770   1 00008E  ACC7 001D                            LDB,B2   E$,AUTO
          1 000090  2C00                                 LDV,R2   0
          1 000091  E847 001F                            LDR,R6   K,AUTO
          1 000093  BCC7 0017                            LDB,B3   D$,AUTO
          1 000095  3C00                                 LDV,R3   0
          1 000096  0008                                 MMM

     1323      771    1           SIZE=SIZE-K;

    771   1 000097  E847 0012                            LDR,R6   SIZE,AUTO
          1 000099  E247 001F                            SUB,R6   K,AUTO
          1 00009B  EF47 0012                            STR,R6   SIZE,AUTO

     1324      772    1           LIM=SIZEC(G$DOCONT.ECCINFO);

    772   1 00009D  5C18                                 LDV,R5   24
          1 00009E  DF47 0016                            STR,R5   LIM,AUTO
PL6.E3A0      #004=GHS$EVENT File=GHS$SCHD.:E05TSI                               TUE 07/29/97 21:42 Page:208

     1325      773    1           IF SIZE > 0 THEN

    773   1 0000A0  6A81 0023                            BLEZ,R6  s:789,PREL

     1326      774    2           DO;

     1327      775    2              CALL GDOBLK(D$);

    775   1 0000A2  EBC7 0017                            LAB,B6   D$,AUTO
          1 0000A4  EFC7 0022                            STB,B6   K+3,AUTO
          1 0000A6  E3C0 0085                            LNJ,B6   s:0,PREL
          1 0000A8       0001                            DC       s:776,PREL

     1328      776    2              DO$->G$DO.LNK$=D$;

    776   1 0000A9  ECC7 0017                            LDB,B6   D$,AUTO
          1 0000AB  DCC7 0019                            LDB,B5   DO$,AUTO
          1 0000AD  EF85                                 STB,B6   ,B5

     1329      777    2              E$=PINCRW(E$,K/2);

    777   1 0000AE  E847 001F                            LDR,R6   K,AUTO
          1 0000B0  6041                                 SOR,R6   1
          1 0000B1  F856                                 LDR,R7   R6
          1 0000B2  6C00                                 LDV,R6   0
          1 0000B3  8447 001D                            AID      E$,AUTO
          1 0000B5  8D47 001D                            SDI      E$,AUTO

     1330      778    2              DO$->G$DO.CONT='1'B;

    778   1 0000B7  8945 0002                            LBT,'4000'X       2,B5
    778   1 0000B9       4000

     1331      779    2              DO$=D$;

    779   1 0000BA  CCC7 0017                            LDB,B4   D$,AUTO
PL6.E3A0      #004=GHS$EVENT File=GHS$SCHD.:E05TSI                               TUE 07/29/97 21:42 Page:209
          1 0000BC  CFC7 0019                            STB,B4   DO$,AUTO

     1332      780    2              D$=ADDR(DO$->G$DOCONT.ECCINFO);

    780   1 0000BE  EBC4 0003                            LAB,B6   3,B4
          1 0000C0  EFC7 0017                            STB,B6   D$,AUTO

     1333      781    2              GOTO EV1;

    781   1 0000C2  0F81 FFB2                            B        s:763,PREL

     1334      782    2              END;
     1335      783
     1336      784                %LOCK (G = G_UDLGATE);

    789   1 0000C4  BB80 0000 0002  02                   LAB,B3   +2
          1 0000C7  CBF0 0100                            LAB,B4   256,IMO
          1 0000C9  E380 0000 0000  xent                 LNJ,B6   GHH$LOCK
          1 0000CC       0001                            DC       s:792,PREL

     1337      791
     1338      792    1           DO$->G$DO.LNK$=ADDR(NIL);

    792   1 0000CD  EB80 0000 0000                       LAB,B6   0
          1 0000D0  DCC7 0019                            LDB,B5   DO$,AUTO
          1 0000D2  EF85                                 STB,B6   ,B5

     1339      793    1           D$=ADDR(USER$ -> G$U.DL$);

    793   1 0000D3  CCC7 0013                            LDB,B4   USER$,AUTO
          1 0000D5  BBC4 000D                            LAB,B3   13,B4
          1 0000D7  BFC7 0017                            STB,B3   D$,AUTO

     1340      794    2           DO WHILE (D$->G$DO.LNK$ ~= ADDR(NIL));

    794   1 0000D9  0F81 0006                            B        s:796,PREL

PL6.E3A0      #004=GHS$EVENT File=GHS$SCHD.:E05TSI                               TUE 07/29/97 21:42 Page:210
     1341      795    2              D$=D$->G$DO.LNK$;

    795   1 0000DB  ECC7 0017                            LDB,B6   D$,AUTO
          1 0000DD  DC86                                 LDB,B5   ,B6
          1 0000DE  DFC7 0017                            STB,B5   D$,AUTO

     1342      796    2              END;

    796   1 0000E0  ECC7 0017                            LDB,B6   D$,AUTO
          1 0000E2  8D86                                 CMN      ,B6
          1 0000E3  09F8                                 BNE      s:795,SPREL

     1343      797    1           D$->G$DO.LNK$=DI$;

    797   1 0000E4  DCC7 001B                            LDB,B5   DI$,AUTO
          1 0000E6  DF86                                 STB,B5   ,B6

     1344      798
     1345      799                %UNLOCK (G = G_UDLGATE);

    804   1 0000E7  BB80 0000 0002  02                   LAB,B3   +2
          1 0000EA  CBF0 0100                            LAB,B4   256,IMO
          1 0000EC  E380 0000 0000  xent                 LNJ,B6   GHH$UNLOCK
          1 0000EF       0001                            DC       s:807,PREL

     1346      806
     1347      807    1           IF USER$->G$U.US = %GH_W

    807   1 0000F0  ECC7 0013                            LDB,B6   USER$,AUTO
          1 0000F2  E846 0002                            LDR,R6   2,B6
          1 0000F4  6D0E                                 CMV,R6   14
          1 0000F5  0981 0006                            BNE      s:809,PREL

     1348      808    1           THEN EVNT = %GH_EVWU;

    808   1 0000F7  5C02                                 LDV,R5   2
          1 0000F8  DF47 001F                            STR,R5   K,AUTO
PL6.E3A0      #004=GHS$EVENT File=GHS$SCHD.:E05TSI                               TUE 07/29/97 21:42 Page:211
          1 0000FA  0F81 0014                            B        s:815,PREL

     1349      809    1           ELSE IF USER$->G$U.US = %GH_TI

    809   1 0000FC  6D16                                 CMV,R6   22
          1 0000FD  0981 0006                            BNE      s:811,PREL

     1350      810    1              THEN EVNT = %GH_EVCIC;

    810   1 0000FF  5C17                                 LDV,R5   23
          1 000100  DF47 001F                            STR,R5   K,AUTO
          1 000102  0F81 000C                            B        s:815,PREL

     1351      811    1              ELSE IF USER$->G$U.US = %GH_TOB

    811   1 000104  6D15                                 CMV,R6   21
          1 000105  0981 0006                            BNE      s:813,PREL

     1352      812    1                 THEN EVNT = %GH_EVCUB;

    812   1 000107  5C1A                                 LDV,R5   26
          1 000108  DF47 001F                            STR,R5   K,AUTO
          1 00010A  0F81 0004                            B        s:815,PREL

     1353      813    1                 ELSE RETURN;

    813   1 00010C  C380 0000 0000  xent                 LNJ,B4   X6A_ARET

     1354      814
     1355      815    1           CALL GHS$RUE(EVNT,USR);

    815   1 00010F  DCC7 0004                            LDB,B5   @USR,AUTO
          1 000111  DFC7 0026                            STB,B5   @DD$+4,AUTO
          1 000113  CBC7 001F                            LAB,B4   K,AUTO
          1 000115  CFC7 0024                            STB,B4   @DD$+2,AUTO
          1 000117  BBC7 0024                            LAB,B3   @DD$+2,AUTO
          1 000119  CBF0 0200                            LAB,B4   512,IMO
PL6.E3A0      #004=GHS$EVENT File=GHS$SCHD.:E05TSI                               TUE 07/29/97 21:42 Page:212
          1 00011B  E380 0000 0000  xent                 LNJ,B6   GHS$RUE
          1 00011E       0001                            DC       s:816,PREL

     1356      816    1           RETURN;

    816   1 00011F  C380 0000 0000  xent                 LNJ,B4   X6A_ARET

     1357      817
     1358      818        /*         THIS ENTRY POINT SETS THE SAVE FLAG IN THE DOLIST ENTRY
     1359      819                CAUSING IT TO BE RETAINED, IF THE RECEIVER DOES NOT HAVE
     1360      820                AN EVENT HANDLER, INSTEAD OF ABORTING THE RECEIVER WITH
     1361      821                ERROR CODE SSC-495.                                           */
     1362      822        /*                                                                    */
     1363      823    1   GHS$EVENTG: ENTRY(USR,DMAIN,ECCSC,EVID,ERRC,ECCI,EPTR$);

    823   1 000122  D380 0000 0000  xent GHS$EVENTG      LNJ,B5   X6A_AUTO_N
          1 000125       0028 0007                       DC       40,7

     1364      824
     1365      825    1           SFLAG='1'B;

    825   1 000127  8947 0015                            LBT,'8000'X       SFLAG,AUTO
    825   1 000129       8000

     1366      826    1           GOTO EV0;

    826   1 00012A  0F81 FEDC                            B        s:739,PREL

     1367      827        %EJECT;
PL6.E3A0      #004=GHS$EVENT File=GHS$SCHD.:E05TSI                               TUE 07/29/97 21:42 Page:213
     1368      828    1   GDOBLK: PROC(DD$);

    828   1 00012C  EFC7 0020            GDOBLK          STB,B6   K+1,AUTO

     1369      829    2   DCL  DD$ PTR;
     1370      830        /*                                                                    */
     1371      831
     1372      832             %LOCK (G = G_DOGATE);

    837   1 00012E  BB80 0000 0004  02                   LAB,B3   +4
          1 000131  CBF0 0100                            LAB,B4   256,IMO
          1 000133  E380 0000 0000  xent                 LNJ,B6   GHH$LOCK
          1 000136       0001                            DC       s:840,PREL

     1373      839
     1374      840    2           DD$=G_DL$;

    840   1 000137  EC80 0000 0000  xsym                 LDB,B6   G_DL$
          1 00013A  DCC7 0022                            LDB,B5   @DD$,AUTO
          1 00013C  EF85                                 STB,B6   ,B5

     1375      841    2           IF DD$ = ADDR(NIL) THEN

    841   1 00013D  8D85                                 CMN      ,B5
          1 00013E  0981 000C                            BNE      s:844,PREL

     1376      842    2              CALL SCREECH (DOERR);

    842   1 000140  BB80 0000 0006  02                   LAB,B3   +6
          1 000143  CBF0 0100                            LAB,B4   256,IMO
          1 000145  E380 0000 0000  xent                 LNJ,B6   SCREECH
          1 000148       0001                            DC       s:842+9,PREL
          1 000149  0F81 0008                            B        s:851,PREL

     1377      843    2           ELSE
     1378      844    2              G_DL$=G_DL$->G$DO.LNK$;

PL6.E3A0      #004=GHS$EVENT File=GHS$SCHD.:E05TSI                               TUE 07/29/97 21:42 Page:214
    844   1 00014B  CC80 0000 0000  xsym                 LDB,B4   G_DL$
          1 00014E  BC84                                 LDB,B3   ,B4
          1 00014F  BF80 0000 0000  xsym                 STB,B3   G_DL$

     1379      845
     1380      846                %UNLOCK (G = G_DOGATE);

    851   1 000152  BB80 0000 0004  02                   LAB,B3   +4
          1 000155  CBF0 0100                            LAB,B4   256,IMO
          1 000157  E380 0000 0000  xent                 LNJ,B6   GHH$UNLOCK
          1 00015A       0001                            DC       s:854,PREL

     1381      853
     1382      854    2           RETURN;

    854   1 00015B  ECC7 0020                            LDB,B6   K+1,AUTO
          1 00015D  C3C6 0001                            LNJ,B4   1,B6
     1383      855    2   END;
     1384      856    1   END;
     1385      857        %EOD;

PL6.E3A0      #004=GHS$EVENT File=GHS$SCHD.:E05TSI                               TUE 07/29/97 21:42 Page:215
--  Include file information  --

   SS_SCODE_C.:E05TOU  is referenced.
   GH_HARDWARE_M.:E05TOU  is referenced.
   GH_GATE_M.:E05TOU  cannot be made into a system file and is referenced.
   GH_SCHD_E.:E05TOU  is referenced.
   GH_SCHD_M.:E05TOU  is referenced.
   G_LCP6_E.:E05TOU  was found in the system file and is never referenced.
   GT_LCP6_M.:E05TOU  was found in the system file and is never referenced.
   KI_CP6.:E05TOU  was found in the system file and is never referenced.
   GF_LCP6_M.:E05TOU  was found in the system file and is never referenced.
   GM_LCP6_M.:E05TOU  was found in the system file and is never referenced.
   GU_LCP6_M.:E05TOU  was found in the system file and is referenced.
   GJ_LCP6_M.:E05TOU  was found in the system file and is never referenced.
   GH_LCP6_M.:E05TOU  was found in the system file and is referenced.
      No diagnostics issued in procedure GHS$EVENT.
PL6.E3A0      #004=GHS$EVENT File=GHS$SCHD.:E05TSI                               TUE 07/29/97 21:42 Page:216

 **** Variables and constants ****

  ****  Section 000 RoData GHS$EVENT

  ****  Scalars and arrays  ****
HexLoc.c.b A Datatyp(siz) R M Lvl/name                 HexLoc.c.b A Datatyp(siz) R M Lvl/name

     0-0-0/w STRC(48)    r     1 DOERR                      3-0-0/w UBIN(16)    r     1 ZERO

  ****  Auto variables  ****

  ****  Scalars and arrays  ****
HexLoc.c.b A Datatyp(siz) R M Lvl/name                 HexLoc.c.b A Datatyp(siz) R M Lvl/name

    22-0-0/w PTR         r     1 @DD$                       6-0-0/w PTR         r     1 @DMAIN
     E-0-0/w PTR         r     1 @ECCI                      8-0-0/w PTR         r     1 @ECCSC
    10-0-0/w PTR         r     1 @EPTR$                     C-0-0/w PTR         r     1 @ERRC
     A-0-0/w PTR         r     1 @EVID                      4-0-0/w PTR         r     1 @USR
    17-0-0/w PTR         r     1 D$                        *0-0-0/w PTR         r     1 DD$
    1B-0-0/w PTR         r     1 DI$                       *0-0-0/w UBIN(16)    r     1 DMAIN
    19-0-0/w PTR         r     1 DO$                       1D-0-0/w PTR         r     1 E$
    *0-0-0/w UBIN(16)    r     1 ECCI(0:0)                 *0-0-0/w UBIN(16)    r     1 ECCSC
    *0-0-0/w EPTR        r     1 EPTR$                     *0-0-0/w STRC(32)    r     1 ERRC
    *0-0-0/w UBIN(16)    r     1 EVID                      1F-0-0/w UBIN(16)    r     1 EVNT
    1F-0-0/w UBIN(16)    r     1 K                         16-0-0/w SBIN(16)    r     1 LIM
    15-0-0/b BIT         r     1 SFLAG                     12-0-0/w SBIN(16)    r     1 SIZE
    13-0-0/w PTR         r     1 USER$                     *0-0-0/w UBIN(16)    r     1 USR

  ****  SYMREF variables  ****

  ****  Scalars and arrays  ****
HexLoc.c.b A Datatyp(siz) R M Lvl/name                 HexLoc.c.b A Datatyp(siz) R M Lvl/name

     0-0-0/w PTR         r     1 G$USRT$                    0-0-0/w PTR         r     1 G_DL$
     0-0-0/w STRC(48)    r     1 G_DOGATE                   0-0-0/w STRC(48)    r     1 G_UDLGATE

  ****  BASED and DCB variables  ****
PL6.E3A0      #004=GHS$EVENT File=GHS$SCHD.:E05TSI                               TUE 07/29/97 21:42 Page:217

  ****  Scalars and arrays  ****
HexLoc.c.b A Datatyp(siz) R M Lvl/name                 HexLoc.c.b A Datatyp(siz) R M Lvl/name

     0-0-0/w UBIN(16)    r     1 A                          0-0-0/c ACHR        r     1 B
     0-0-0/w STRC(256)   r     1 G$DO                       0-0-0/w STRC(240)   r     1 G$DOCONT
     0-0-0/w STRC(384)   r     1 G$U                        0-0-0/w STRC(384)   r     1 G$USER(0:0)


   Procedure GHS$EVENT requires 351 words for executable code.
   Procedure GHS$EVENT requires 40 words of local(AUTO) storage.
PL6.E3A0      #004=GHS$EVENT File=GHS$SCHD.:E05TSI                               TUE 07/29/97 21:42 Page:218
          *** CROSS REFERENCE LISTING ***
**     DENOTES     IDENTIFIER DEFINITION
<<                 IDENTIFIER'S VALUE SET
>>                 IDENTIFIER'S VALUE USED
<>                 IDENTIFIER SET AND/OR USED
--                 IDENTIFIER REFERENCED
PL6.E3A0      #004=GHS$EVENT File=GHS$SCHD.:E05TSI                               TUE 07/29/97 21:42 Page:219
          MINI XREF LISTING

A
       725**DCL       760>>ASSIGN
B
       726**DCL       770<<ASSIGN    770>>ASSIGN
D$
       729**DCL       762<<ASSIGN    770>>ASSIGN    775<>CALL      776>>ASSIGN    779>>ASSIGN    780<<ASSIGN
       793<<ASSIGN    794>>DOWHILE   795<<ASSIGN    795>>ASSIGN    797>>ASSIGN
DD$ IN PROCEDURE GDOBLK
       829**DCL       828--PROC      840<<ASSIGN    841>>IF
DI$
       731**DCL       742<>CALL      743>>ASSIGN    797>>ASSIGN
DMAIN
       470**DCL        64--PROC      744>>ASSIGN    823--ENTRY
DO$
       730**DCL       743<<ASSIGN    744>>ASSIGN    745>>ASSIGN    746>>ASSIGN    747>>ASSIGN    749>>ASSIGN
       751>>ASSIGN    753>>ASSIGN    755>>ASSIGN    762>>ASSIGN    763>>ASSIGN    764>>ASSIGN    765>>ASSIGN
       776>>ASSIGN    778>>ASSIGN    779<<ASSIGN    780>>ASSIGN    792>>ASSIGN
DOERR
       687**DCL       842<>CALL
E$
       732**DCL       757<<ASSIGN    759<<ASSIGN    760>>ASSIGN    770>>ASSIGN    777<<ASSIGN    777>>ASSIGN
ECCI
       519**DCL        64--PROC      756--IF        759--ASSIGN    823--ENTRY
ECCSC
       471**DCL        64--PROC      745>>ASSIGN    823--ENTRY
EPTR$
       520**DCL        64--PROC      748--IF        751>>ASSIGN    823--ENTRY
ERRC
       487**DCL        64--PROC      752--IF        755>>ASSIGN    823--ENTRY
EV0
       739**LABEL     826--GOTO
EV1
PL6.E3A0      #004=GHS$EVENT File=GHS$SCHD.:E05TSI                               TUE 07/29/97 21:42 Page:220
       763**LABEL     781--GOTO
EVID
       472**DCL        64--PROC      746>>ASSIGN    823--ENTRY
EVNT
       734**DCL       808<<ASSIGN    810<<ASSIGN    812<<ASSIGN    815<>CALL
G$DO.BUSY
       560**DCL       764<<ASSIGN
G$DO.CONT
       560**DCL       763<<ASSIGN    778<<ASSIGN
G$DO.DMAIN
       560**DCL       744<<ASSIGN
G$DO.ECCINFO
       612**DCL       761--ASSIGN
G$DO.ECCSC
       560**DCL       745<<ASSIGN
G$DO.ECCSZ
       612**DCL       761--ASSIGN    762--ASSIGN
G$DO.ENTER
       560**DCL       749<<ASSIGN    751<<ASSIGN
G$DO.ERRC
       579**DCL       753<<ASSIGN    755<<ASSIGN
G$DO.EVID
       561**DCL       746<<ASSIGN
G$DO.LNK$
       556**DCL       776<<ASSIGN    792<<ASSIGN    794>>DOWHILE   795>>ASSIGN    797<<ASSIGN    844>>ASSIGN
G$DO.SAVE
       560**DCL       747<<ASSIGN
G$DO.SCHDDO
       560**DCL       765<<ASSIGN
G$DOCONT.ECCINFO
       619**DCL       772--ASSIGN    780--ASSIGN
G$U.DL$
       537**DCL       793--ASSIGN
G$U.MISC
       535**DCL       535--REDEF
G$U.US
PL6.E3A0      #004=GHS$EVENT File=GHS$SCHD.:E05TSI                               TUE 07/29/97 21:42 Page:221
       535**DCL       740>>IF        807>>IF        809>>IF        811>>IF
G$USER
       545**DCL       739--ASSIGN
G$USER.MISC
       546**DCL       546--REDEF
G$USRT$
       525**DCL       545--IMP-PTR   739>>ASSIGN
GDOBLK
       828**PROC      742--CALL      775--CALL
GHH$LOCK
       347**DCL-ENT   789--CALL      837--CALL
GHH$UNLOCK
       347**DCL-ENT   804--CALL      851--CALL
GHS$RUE
       736**DCL-ENT   815--CALL
G_DL$
       526**DCL       840>>ASSIGN    844<<ASSIGN    844>>ASSIGN
G_DOGATE
       652**DCL       837<>CALL      851<>CALL
G_UDLGATE
       633**DCL       789<>CALL      804<>CALL
K
       733**DCL       726--IMP-SIZ   734--REDEF     767<<ASSIGN    769<<ASSIGN    770>>ASSIGN    770>>ASSIGN
       771>>ASSIGN    777>>ASSIGN
LIM
       728**DCL       761<<ASSIGN    766>>IF        767>>ASSIGN    772<<ASSIGN
SCREECH
       523**DCL-ENT   842--CALL
SFLAG
       727**DCL       738<<ASSIGN    747>>ASSIGN    825<<ASSIGN
SIZE
       723**DCL       760<<ASSIGN    766>>IF        769>>ASSIGN    771<<ASSIGN    771>>ASSIGN    773>>IF
USER$
       724**DCL       739<<ASSIGN    740>>IF        793>>ASSIGN    807>>IF        809>>IF        811>>IF
USR
       469**DCL        64--PROC      739>>ASSIGN    815<>CALL      823--ENTRY
PL6.E3A0      #004=GHS$EVENT File=GHS$SCHD.:E05TSI                               TUE 07/29/97 21:42 Page:222
ZERO
       735**DCL       757--ASSIGN

PL6.E3A0      #005=GHS$XXDO File=GHS$SCHD.:E05TSI                                TUE 07/29/97 21:42 Page:223
     1386        1        /*T***********************************************************/
     1387        2        /*T*                                                         */
     1388        3        /*T* Copyright (c) Bull HN Information Systems Inc., 1997    */
     1389        4        /*T*                                                         */
     1390        5        /*T***********************************************************/
     1391        6        /*F*
     1392        7             NAME: GHS$XXDO
     1393        8             PURPOSE:
     1394        9                  To delete an entry from a users Dolist.
     1395       10        */
     1396       11        /*D*
     1397       12             NAME: GHS$XXDO
     1398       13             CALL:
     1399       14                  CALL GHS$XXDO (User-number,
     1400       15                                 Parameter-2,
     1401       16                                 Event-ID) ALTRET(altret-label);
     1402       17             PARAMETERS:
     1403       18                  User-number is the Dolist owner's user number.
     1404       19                  Parameter-2 may be a Dolist pointer or an ECC-subcode.
     1405       20                  Event-ID is a Dolist Event-ID.
     1406       21                  ALTRET is taken if the specified Dolist entry cannot be found.
     1407       22             INTERFACE:
     1408       23                    Dolist entries are defined in the G$DO and G$DOCONT macros
     1409       24                    found in the GH_SCHD_M Include File.
     1410       25             DESCRIPTION:
     1411       26                  If Event-ID is not specified, Parameter-2 is a pointer to an
     1412       27                  entry to be deleted from the current users Dolist.
     1413       28
     1414       29                  If Event-ID is specified, an entry on the specified user's
     1415       30                  Dolist, containing an ECC-subcode matching Parameter-2 and
     1416       31                  a matching Event-ID is deleted.
     1417       32        */
     1418       33
     1419       34        GHS$XXDO: PROC(USR,ECCSC,EVID) ALTRET;
     1420       35
     1421       36
     1422       37
PL6.E3A0      #005=GHS$XXDO File=GHS$SCHD.:E05TSI                                TUE 07/29/97 21:42 Page:224
     1423       38        %INCLUDE GH_SCHD_M;
     1424      182        %INCLUDE GH_SCHD_E;
     1425      278        %INCLUDE GH_GATE_M;
     1426      319 S      %INCLUDE GU_LCP6_M;
     1427      320 S      %INCLUDE GH_LCP6_M;
     1428      321        %INCLUDE GH_HARDWARE_M;
     1429      419        %INCLUDE G_HJIT_M;
     1430      564
     1431      565    1   DCL   USR UBIN;                         /* User number                        */
     1432      566    1   DCL   ECCSC UBIN;                       /* Event Subcode or Dolist PTR        */
     1433      567    1   DCL   EVID UBIN;                        /* Event ID.                          */
     1434      568
     1435      569    1   DCL   D$ PTR;                           /* Dolist pointer                     */
     1436      570    1   DCL   D1$ PTR;                          /* Dolist pointer to previous entry   */
     1437      571    1   DCL   D2$ PTR;
     1438      572    1   DCL DOPTR$ PTR BASED;
     1439      573        %G$USER (FPTN="G$USER(0:0)",STCLASS="BASED(G$USRT$)");
     1440      584        %GATE (FPTN=G_UDLGATE,STCLASS=SYMREF);
     1441      603        %GATE (FPTN=G_DOGATE,STCLASS=SYMREF);
     1442      622        %G$MHJIT  (STCLASS="BASED(G$MHJIT$)");
     1443     7496
     1444     7497    1   DCL G$MHJIT$ PTR SYMREF;
     1445     7498    1   DCL G$USRT$ PTR SYMREF;
     1446     7499    1   DCL G_DL$ PTR SYMREF;
     1447     7500
     1448     7501        %G$DO;
     1449     7564
     1450     7565
     1451     7566             %LOCK (G = G_UDLGATE);
     1452     7573             %LOCK (G = G_DOGATE);
     1453     7580
     1454     7581    1           IF ADDR(EVID) ~= ADDR(NIL) THEN
     1455     7582    2           DO;
     1456     7583    2              D$=ADDR(G$USER.DL$(USR));
     1457     7584    2   DO1B:      IF D$ -> G$DO.LNK$ ~= ADDR(NIL)
     1458     7585    3              THEN DO;
     1459     7586    3                 IF (D$ -> G$DO.LNK$ -> G$DO.ECCSC = ECCSC)
PL6.E3A0      #005=GHS$XXDO File=GHS$SCHD.:E05TSI                                TUE 07/29/97 21:42 Page:225
     1460     7587    3                   AND (D$ -> G$DO.LNK$ -> G$DO.EVID = EVID)
     1461     7588    3                 THEN
     1462     7589    3                    GOTO DO1A;
     1463     7590    3                 ELSE
     1464     7591    3                    D$ = D$ -> G$DO.LNK$;
     1465     7592    3                 GOTO DO1B;
     1466     7593    3                 END;
     1467     7594    2              END;
     1468     7595    1           ELSE
     1469     7596    2           DO;
     1470     7597    2              D$=ADDR(G$USER.DL$(G$MHJIT.CUN));
     1471     7598    2   DO1C:      IF D$ -> G$DO.LNK$ ~= ADDR(NIL) THEN
     1472     7599    3              DO;
     1473     7600    3                 IF D$ -> G$DO.LNK$ = ADDR(ECCSC)->DOPTR$ THEN
     1474     7601    3                    GOTO DO1A;
     1475     7602    3                 ELSE
     1476     7603    3                    D$ = D$ -> G$DO.LNK$;
     1477     7604    3                 GOTO DO1C;
     1478     7605    3                 END;
     1479     7606    2              END;
     1480     7607
     1481     7608                %UNLOCK (G = G_DOGATE);
     1482     7615                %UNLOCK (G = G_UDLGATE);
     1483     7622
     1484     7623    1           ALTRETURN;
     1485     7624
     1486     7625    1   DO1A:
     1487     7626    1           D1$=D$->G$DO.LNK$;
     1488     7627    1           D2$=D1$;
     1489     7628    1   DO1D:   IF D1$->G$DO.CONT = '1'B THEN
     1490     7629    2           DO;
     1491     7630    2              D1$=D1$->G$DO.LNK$;
     1492     7631    2              GOTO DO1D;
     1493     7632    2              END;
     1494     7633    1           D$->G$DO.LNK$=D1$->G$DO.LNK$;
     1495     7634    1           D1$->G$DO.LNK$=G_DL$;
     1496     7635    1           G_DL$=D2$;
PL6.E3A0      #005=GHS$XXDO File=GHS$SCHD.:E05TSI                                TUE 07/29/97 21:42 Page:226
     1497     7636
     1498     7637                %UNLOCK (G = G_DOGATE);
     1499     7644                %UNLOCK (G = G_UDLGATE);
     1500     7651    1           RETURN;
     1501     7652    1   END GHS$XXDO;
     1502     7653        %EOD;

PL6.E3A0      #005=GHS$XXDO File=GHS$SCHD.:E05TSI                                TUE 07/29/97 21:42 Page:227
--  Include file information  --

   G_HJIT_M.:E05TOU  is referenced.
   GH_HARDWARE_M.:E05TOU  is referenced.
   GH_GATE_M.:E05TOU  cannot be made into a system file and is referenced.
   GH_SCHD_E.:E05TOU  is referenced.
   GH_SCHD_M.:E05TOU  is referenced.
   G_LCP6_E.:E05TOU  was found in the system file and is never referenced.
   GT_LCP6_M.:E05TOU  was found in the system file and is never referenced.
   KI_CP6.:E05TOU  was found in the system file and is never referenced.
   GF_LCP6_M.:E05TOU  was found in the system file and is never referenced.
   GM_LCP6_M.:E05TOU  was found in the system file and is never referenced.
   GU_LCP6_M.:E05TOU  was found in the system file and is referenced.
   GJ_LCP6_M.:E05TOU  was found in the system file and is never referenced.
   GH_LCP6_M.:E05TOU  was found in the system file and is referenced.
      No diagnostics issued in procedure GHS$XXDO.

   Procedure GHS$XXDO requires 159 words for executable code.
   Procedure GHS$XXDO requires 16 words of local(AUTO) storage.

PL6.E3A0      #005=GHS$XXDO File=GHS$SCHD.:E05TSI                                TUE 07/29/97 21:42 Page:228

 Object Unit name= GHS$XXDO                                   File name= GHS$SCHD.:E05TOU
 UTS= JUL 29 '97 21:42:50.84 TUE                              Compiler= PL-6/E31         Sev=      00
 SharedLib= :SHARED_LCP6_SYSTEM                               Alt SharedLib=


    ****  Control sections  ****

 Sect   Type Bound  Init  Size HexSiz  Section name
    0   Proc  even  none   159     9F  GHS$XXDO
    1  RoData even  none     4      4  GHS$XXDO

    ****  Entry defs  ****

                              Check   Calling
                             calling  sequence
  Sect HexLoc Primary Altret sequence   type   Parms  Name
     0      0   yes    yes     yes      Std        3  GHS$XXDO

  ****  Entry refs  ****

         Check        Calling
        calling       sequence
Altret sequence SRef   type   Args  Name
 yes     yes           Std       1 GHH$LOCK
 yes     yes           Std       1 GHH$UNLOCK
                       nStd      0 X6A_AUTO_3
                       nStd      0 X6A_AALT
                       nStd      0 X6A_ARET

  ****  Data refs  ****

  Flags:  r = read only, s = secondary
Flgs Name                             Flgs Name                             Flgs Name
     G_UDLGATE                             G_DOGATE                              G$MHJIT$
     G$USRT$                               G_DL$                            r    G$ROS$
PL6.E3A0      #005=GHS$XXDO File=GHS$SCHD.:E05TSI                                TUE 07/29/97 21:42 Page:229


     1386        1        /*T***********************************************************/
     1387        2        /*T*                                                         */
     1388        3        /*T* Copyright (c) Bull HN Information Systems Inc., 1997    */
     1389        4        /*T*                                                         */
     1390        5        /*T***********************************************************/
     1391        6        /*F*
     1392        7             NAME: GHS$XXDO
     1393        8             PURPOSE:
     1394        9                  To delete an entry from a users Dolist.
     1395       10        */
     1396       11        /*D*
     1397       12             NAME: GHS$XXDO
     1398       13             CALL:
     1399       14                  CALL GHS$XXDO (User-number,
     1400       15                                 Parameter-2,
     1401       16                                 Event-ID) ALTRET(altret-label);
     1402       17             PARAMETERS:
     1403       18                  User-number is the Dolist owner's user number.
     1404       19                  Parameter-2 may be a Dolist pointer or an ECC-subcode.
     1405       20                  Event-ID is a Dolist Event-ID.
     1406       21                  ALTRET is taken if the specified Dolist entry cannot be found.
     1407       22             INTERFACE:
     1408       23                    Dolist entries are defined in the G$DO and G$DOCONT macros
     1409       24                    found in the GH_SCHD_M Include File.
     1410       25             DESCRIPTION:
     1411       26                  If Event-ID is not specified, Parameter-2 is a pointer to an
     1412       27                  entry to be deleted from the current users Dolist.
     1413       28
     1414       29                  If Event-ID is specified, an entry on the specified user's
     1415       30                  Dolist, containing an ECC-subcode matching Parameter-2 and
     1416       31                  a matching Event-ID is deleted.
     1417       32        */
     1418       33
     1419       34        GHS$XXDO: PROC(USR,ECCSC,EVID) ALTRET;

     34   0 000000  D380 0000 0000  xent GHS$XXDO        LNJ,B5   X6A_AUTO_3
PL6.E3A0      #005=GHS$XXDO File=GHS$SCHD.:E05TSI                                TUE 07/29/97 21:42 Page:230
          0 000003       0010 0003                       DC       16,3

     1420       35
     1421       36
     1422       37
     1423       38        %INCLUDE GH_SCHD_M;
     1424      182        %INCLUDE GH_SCHD_E;
     1425      278        %INCLUDE GH_GATE_M;
     1426      319 S      %INCLUDE GU_LCP6_M;
     1427      320 S      %INCLUDE GH_LCP6_M;
     1428      321        %INCLUDE GH_HARDWARE_M;
     1429      419        %INCLUDE G_HJIT_M;
     1430      564
     1431      565    1   DCL   USR UBIN;                         /* User number                        */
     1432      566    1   DCL   ECCSC UBIN;                       /* Event Subcode or Dolist PTR        */
     1433      567    1   DCL   EVID UBIN;                        /* Event ID.                          */
     1434      568
     1435      569    1   DCL   D$ PTR;                           /* Dolist pointer                     */
     1436      570    1   DCL   D1$ PTR;                          /* Dolist pointer to previous entry   */
     1437      571    1   DCL   D2$ PTR;
     1438      572    1   DCL DOPTR$ PTR BASED;
     1439      573        %G$USER (FPTN="G$USER(0:0)",STCLASS="BASED(G$USRT$)");
     1440      584        %GATE (FPTN=G_UDLGATE,STCLASS=SYMREF);
     1441      603        %GATE (FPTN=G_DOGATE,STCLASS=SYMREF);
     1442      622        %G$MHJIT  (STCLASS="BASED(G$MHJIT$)");
     1443     7496
     1444     7497    1   DCL G$MHJIT$ PTR SYMREF;
     1445     7498    1   DCL G$USRT$ PTR SYMREF;
     1446     7499    1   DCL G_DL$ PTR SYMREF;
     1447     7500
     1448     7501        %G$DO;
     1449     7564
     1450     7565
     1451     7566             %LOCK (G = G_UDLGATE);

   7571   0 000005  BB80 0000 0000  01                   LAB,B3   0
          0 000008  CBF0 0100                            LAB,B4   256,IMO
PL6.E3A0      #005=GHS$XXDO File=GHS$SCHD.:E05TSI                                TUE 07/29/97 21:42 Page:231
          0 00000A  E380 0000 0000  xent                 LNJ,B6   GHH$LOCK
          0 00000D       0001                            DC       s:7578,PREL

     1452     7573             %LOCK (G = G_DOGATE);

   7578   0 00000E  BB80 0000 0002  01                   LAB,B3   +2
          0 000011  CBF0 0100                            LAB,B4   256,IMO
          0 000013  E380 0000 0000  xent                 LNJ,B6   GHH$LOCK
          0 000016       0001                            DC       s:7581,PREL

     1453     7580
     1454     7581    1           IF ADDR(EVID) ~= ADDR(NIL) THEN

   7581   0 000017  ECC7 0008                            LDB,B6   @EVID,AUTO
          0 000019  8DD6                                 CMN      B6
          0 00001A  0901 0023                            BE       s:7597,PREL

     1455     7582    2           DO;

     1456     7583    2              D$=ADDR(G$USER.DL$(USR));

   7583   0 00001C  DCC7 0004                            LDB,B5   @USR,AUTO
          0 00001E  B805                                 LDR,R3   ,B5
          0 00001F  CC80 0000 0000  xsym                 LDB,B4   G$USRT$
          0 000022  3F18                                 MLV,R3   24
          0 000023  3E0D                                 ADV,R3   13
          0 000024  BBB4                                 LAB,B3   ,B4,R3
          0 000025  BFC7 000A                            STB,B3   D$,AUTO

     1457     7584    2   DO1B:      IF D$ -> G$DO.LNK$ ~= ADDR(NIL)

   7584   0 000027  ECC7 000A            DO1B            LDB,B6   D$,AUTO
          0 000029  8D86                                 CMN      ,B6
          0 00002A  0901 002E                            BE       s:7613,PREL

     1458     7585    3              THEN DO;

PL6.E3A0      #005=GHS$XXDO File=GHS$SCHD.:E05TSI                                TUE 07/29/97 21:42 Page:232
     1459     7586    3                 IF (D$ -> G$DO.LNK$ -> G$DO.ECCSC = ECCSC)

   7586   0 00002C  DC86                                 LDB,B5   ,B6
          0 00002D  CCC7 0006                            LDB,B4   @ECCSC,AUTO
          0 00002F  E2C5 0005                            LLH,R6   5,B5
          0 000031  E904                                 CMR,R6   ,B4
          0 000032  0981 0008                            BNE      s:7591,PREL
          0 000034  BCC7 0008                            LDB,B3   @EVID,AUTO
          0 000036  D2C5 0006                            LLH,R5   6,B5
          0 000038  D903                                 CMR,R5   ,B3
          0 000039  0901 0034                            BE       s:7626,PREL

     1460     7587    3                   AND (D$ -> G$DO.LNK$ -> G$DO.EVID = EVID)
     1461     7588    3                 THEN
     1462     7589    3                    GOTO DO1A;
     1463     7590    3                 ELSE
     1464     7591    3                    D$ = D$ -> G$DO.LNK$;

   7591   0 00003B  DFC7 000A                            STB,B5   D$,AUTO

     1465     7592    3                 GOTO DO1B;

   7592   0 00003D  0FEA                                 B        s:7584,SPREL

     1466     7593    3                 END;
     1467     7594    2              END;
     1468     7595    1           ELSE
     1469     7596    2           DO;

     1470     7597    2              D$=ADDR(G$USER.DL$(G$MHJIT.CUN));

   7597   0 00003E  DC80 0000 0000  xsym                 LDB,B5   G$MHJIT$
          0 000041  B845 0351                            LDR,R3   849,B5
          0 000043  CC80 0000 0000  xsym                 LDB,B4   G$USRT$
          0 000046  3F18                                 MLV,R3   24
          0 000047  3E0D                                 ADV,R3   13
          0 000048  BBB4                                 LAB,B3   ,B4,R3
PL6.E3A0      #005=GHS$XXDO File=GHS$SCHD.:E05TSI                                TUE 07/29/97 21:42 Page:233
          0 000049  BFC7 000A                            STB,B3   D$,AUTO

     1471     7598    2   DO1C:      IF D$ -> G$DO.LNK$ ~= ADDR(NIL) THEN

   7598   0 00004B  ECC7 000A            DO1C            LDB,B6   D$,AUTO
          0 00004D  8D86                                 CMN      ,B6
          0 00004E  0901 000A                            BE       s:7613,PREL

     1472     7599    3              DO;

     1473     7600    3                 IF D$ -> G$DO.LNK$ = ADDR(ECCSC)->DOPTR$ THEN

   7600   0 000050  DC86                                 LDB,B5   ,B6
          0 000051  CCC7 0006                            LDB,B4   @ECCSC,AUTO
          0 000053  DD84                                 CMB,B5   ,B4
          0 000054  0901 0019                            BE       s:7626,PREL

     1474     7601    3                    GOTO DO1A;
     1475     7602    3                 ELSE
     1476     7603    3                    D$ = D$ -> G$DO.LNK$;

   7603   0 000056  DFC7 000A                            STB,B5   D$,AUTO

     1477     7604    3                 GOTO DO1C;

   7604   0 000058  0FF3                                 B        s:7598,SPREL

     1478     7605    3                 END;
     1479     7606    2              END;
     1480     7607
     1481     7608                %UNLOCK (G = G_DOGATE);

   7613   0 000059  BB80 0000 0002  01                   LAB,B3   +2
          0 00005C  CBF0 0100                            LAB,B4   256,IMO
          0 00005E  E380 0000 0000  xent                 LNJ,B6   GHH$UNLOCK
          0 000061       0001                            DC       s:7620,PREL

PL6.E3A0      #005=GHS$XXDO File=GHS$SCHD.:E05TSI                                TUE 07/29/97 21:42 Page:234
     1482     7615                %UNLOCK (G = G_UDLGATE);

   7620   0 000062  BB80 0000 0000  01                   LAB,B3   0
          0 000065  CBF0 0100                            LAB,B4   256,IMO
          0 000067  E380 0000 0000  xent                 LNJ,B6   GHH$UNLOCK
          0 00006A       0001                            DC       s:7623,PREL

     1483     7622
     1484     7623    1           ALTRETURN;

   7623   0 00006B  C380 0000 0000  xent                 LNJ,B4   X6A_AALT

     1485     7624
     1486     7625    1   DO1A:
     1487     7626    1           D1$=D$->G$DO.LNK$;

   7626   0 00006E  DFC7 000C            DO1A            STB,B5   D1$,AUTO

     1488     7627    1           D2$=D1$;

   7627   0 000070  DFC7 000E                            STB,B5   D2$,AUTO

     1489     7628    1   DO1D:   IF D1$->G$DO.CONT = '1'B THEN

   7628   0 000072  ECC7 000C            DO1D            LDB,B6   D1$,AUTO
          0 000074  82C6 0002                            LB,'4000'X        2,B6
          0 000076       4000
          0 000077  0581 0005                            BBF      s:7633,PREL

     1490     7629    2           DO;

     1491     7630    2              D1$=D1$->G$DO.LNK$;

   7630   0 000079  DC86                                 LDB,B5   ,B6
          0 00007A  DFC7 000C                            STB,B5   D1$,AUTO

     1492     7631    2              GOTO DO1D;
PL6.E3A0      #005=GHS$XXDO File=GHS$SCHD.:E05TSI                                TUE 07/29/97 21:42 Page:235

   7631   0 00007C  0FF6                                 B        s:7628,SPREL

     1493     7632    2              END;
     1494     7633    1           D$->G$DO.LNK$=D1$->G$DO.LNK$;

   7633   0 00007D  DC86                                 LDB,B5   ,B6
          0 00007E  CCC7 000A                            LDB,B4   D$,AUTO
          0 000080  DF84                                 STB,B5   ,B4

     1495     7634    1           D1$->G$DO.LNK$=G_DL$;

   7634   0 000081  BC80 0000 0000  xsym                 LDB,B3   G_DL$
          0 000084  BF86                                 STB,B3   ,B6

     1496     7635    1           G_DL$=D2$;

   7635   0 000085  DCC7 000E                            LDB,B5   D2$,AUTO
          0 000087  DF80 0000 0000  xsym                 STB,B5   G_DL$

     1497     7636
     1498     7637                %UNLOCK (G = G_DOGATE);

   7642   0 00008A  BB80 0000 0002  01                   LAB,B3   +2
          0 00008D  CBF0 0100                            LAB,B4   256,IMO
          0 00008F  E380 0000 0000  xent                 LNJ,B6   GHH$UNLOCK
          0 000092       0001                            DC       s:7649,PREL

     1499     7644                %UNLOCK (G = G_UDLGATE);

   7649   0 000093  BB80 0000 0000  01                   LAB,B3   0
          0 000096  CBF0 0100                            LAB,B4   256,IMO
          0 000098  E380 0000 0000  xent                 LNJ,B6   GHH$UNLOCK
          0 00009B       0001                            DC       s:7651,PREL

     1500     7651    1           RETURN;

PL6.E3A0      #005=GHS$XXDO File=GHS$SCHD.:E05TSI                                TUE 07/29/97 21:42 Page:236
   7651   0 00009C  C380 0000 0000  xent                 LNJ,B4   X6A_ARET
     1501     7652    1   END GHS$XXDO;
     1502     7653        %EOD;

PL6.E3A0      #005=GHS$XXDO File=GHS$SCHD.:E05TSI                                TUE 07/29/97 21:42 Page:237
--  Include file information  --

   G_HJIT_M.:E05TOU  is referenced.
   GH_HARDWARE_M.:E05TOU  is referenced.
   GH_GATE_M.:E05TOU  cannot be made into a system file and is referenced.
   GH_SCHD_E.:E05TOU  is referenced.
   GH_SCHD_M.:E05TOU  is referenced.
   G_LCP6_E.:E05TOU  was found in the system file and is never referenced.
   GT_LCP6_M.:E05TOU  was found in the system file and is never referenced.
   KI_CP6.:E05TOU  was found in the system file and is never referenced.
   GF_LCP6_M.:E05TOU  was found in the system file and is never referenced.
   GM_LCP6_M.:E05TOU  was found in the system file and is never referenced.
   GU_LCP6_M.:E05TOU  was found in the system file and is referenced.
   GJ_LCP6_M.:E05TOU  was found in the system file and is never referenced.
   GH_LCP6_M.:E05TOU  was found in the system file and is referenced.
      No diagnostics issued in procedure GHS$XXDO.
PL6.E3A0      #005=GHS$XXDO File=GHS$SCHD.:E05TSI                                TUE 07/29/97 21:42 Page:238

 **** Variables and constants ****

  ****  Auto variables  ****

  ****  Scalars and arrays  ****
HexLoc.c.b A Datatyp(siz) R M Lvl/name                 HexLoc.c.b A Datatyp(siz) R M Lvl/name

     6-0-0/w PTR         r     1 @ECCSC                     8-0-0/w PTR         r     1 @EVID
     4-0-0/w PTR         r     1 @USR                       A-0-0/w PTR         r     1 D$
     C-0-0/w PTR         r     1 D1$                        E-0-0/w PTR         r     1 D2$
    *0-0-0/w UBIN(16)    r     1 ECCSC                     *0-0-0/w UBIN(16)    r     1 EVID
    *0-0-0/w UBIN(16)    r     1 USR

  ****  SYMREF variables  ****

  ****  Scalars and arrays  ****
HexLoc.c.b A Datatyp(siz) R M Lvl/name                 HexLoc.c.b A Datatyp(siz) R M Lvl/name

     0-0-0/w PTR         r     1 G$MHJIT$                   0-0-0/w PTR         r     1 G$USRT$
     0-0-0/w PTR         r     1 G_DL$                      0-0-0/w STRC(48)    r     1 G_DOGATE
     0-0-0/w STRC(48)    r     1 G_UDLGATE

  ****  BASED and DCB variables  ****

  ****  Scalars and arrays  ****
HexLoc.c.b A Datatyp(siz) R M Lvl/name                 HexLoc.c.b A Datatyp(siz) R M Lvl/name

     0-0-0/w PTR         r     1 DOPTR$                     0-0-0/w STRC(256)   r     1 G$DO
     0-0-0/w STRC(27232) r     1 G$MHJIT                    0-0-0/w STRC(384)   r     1 G$USER(0:0)


   Procedure GHS$XXDO requires 159 words for executable code.
   Procedure GHS$XXDO requires 16 words of local(AUTO) storage.
PL6.E3A0      #005=GHS$XXDO File=GHS$SCHD.:E05TSI                                TUE 07/29/97 21:42 Page:239
          *** CROSS REFERENCE LISTING ***
**     DENOTES     IDENTIFIER DEFINITION
<<                 IDENTIFIER'S VALUE SET
>>                 IDENTIFIER'S VALUE USED
<>                 IDENTIFIER SET AND/OR USED
--                 IDENTIFIER REFERENCED
PL6.E3A0      #005=GHS$XXDO File=GHS$SCHD.:E05TSI                                TUE 07/29/97 21:42 Page:240
          MINI XREF LISTING

D$
       569**DCL      7583<<ASSIGN   7584>>IF       7586>>IF       7586>>IF       7591<<ASSIGN   7591>>ASSIGN
      7597<<ASSIGN   7598>>IF       7600>>IF       7603<<ASSIGN   7603>>ASSIGN   7626>>ASSIGN   7633>>ASSIGN
D1$
       570**DCL      7626<<ASSIGN   7627>>ASSIGN   7628>>IF       7630<<ASSIGN   7630>>ASSIGN   7633>>ASSIGN
      7634>>ASSIGN
D2$
       571**DCL      7627<<ASSIGN   7635>>ASSIGN
DO1A
      7626**LABEL    7589--GOTO     7601--GOTO
DO1B
      7584**LABEL    7592--GOTO
DO1C
      7598**LABEL    7604--GOTO
DO1D
      7628**LABEL    7631--GOTO
DOPTR$
       572**DCL      7600>>IF
ECCSC
       566**DCL        34--PROC     7586>>IF       7600--IF
EVID
       567**DCL        34--PROC     7581--IF       7586>>IF
G$DO.CONT
      7510**DCL      7628>>IF
G$DO.ECCSC
      7510**DCL      7586>>IF
G$DO.EVID
      7511**DCL      7586>>IF
G$DO.LNK$
      7506**DCL      7584>>IF       7586>>IF       7586>>IF       7591>>ASSIGN   7598>>IF       7600>>IF
      7603>>ASSIGN   7626>>ASSIGN   7630>>ASSIGN   7633<<ASSIGN   7633>>ASSIGN   7634<<ASSIGN
G$MHJIT.CUN
PL6.E3A0      #005=GHS$XXDO File=GHS$SCHD.:E05TSI                                TUE 07/29/97 21:42 Page:241
      6967**DCL      7597>>ASSIGN
G$MHJIT.INTCON.HHJIT
      7101**DCL      7101--REDEF
G$MHJIT.INTCON.P$$
      7074**DCL      7074--REDEF
G$MHJIT.ISA_BIGFOOT.P$$
      4019**DCL      4019--REDEF
G$MHJIT.ISA_DBINH.P$$
      5233**DCL      5233--REDEF
G$MHJIT.ISA_IDLE.P$$
      2114**DCL      2114--REDEF
G$MHJIT.ISA_LVL10.P$$
      5536**DCL      5536--REDEF
G$MHJIT.ISA_LVL11.P$$
      5839**DCL      5839--REDEF
G$MHJIT.ISA_LVL12.P$$
      6142**DCL      6142--REDEF
G$MHJIT.ISA_LVL5.P$$
      4322**DCL      4322--REDEF
G$MHJIT.ISA_OV.P$$
      3716**DCL      3716--REDEF
G$MHJIT.ISA_PFS.P$$
      3387**DCL      3387--REDEF
G$MHJIT.ISA_RT_CLOCK.P$$
      6749**DCL      6749--REDEF
G$MHJIT.ISA_SATYR_RCV.P$$
      4626**DCL      4626--REDEF
G$MHJIT.ISA_SATYR_TRN.P$$
      4930**DCL      4930--REDEF
G$MHJIT.ISA_SCHD.P$$
      6445**DCL      6445--REDEF
G$MHJIT.ISA_WDOG.P$$
      3495**DCL      3495--REDEF
G$MHJIT.TSA_DB.ISA.P$$
      2717**DCL      2717--REDEF
G$MHJIT.TSA_DB.P$$
PL6.E3A0      #005=GHS$XXDO File=GHS$SCHD.:E05TSI                                TUE 07/29/97 21:42 Page:242
      2588**DCL      2588--REDEF    2589--REDEF
G$MHJIT.TSA_HND.ISA.P$$
      7295**DCL      7295--REDEF
G$MHJIT.TSA_HND.P$$
      7166**DCL      7166--REDEF    7167--REDEF
G$MHJIT.TSA_MON.ISA.P$$
      2329**DCL      2329--REDEF
G$MHJIT.TSA_MON.P$$
      2200**DCL      2200--REDEF    2201--REDEF
G$MHJIT.TSA_OV.ISA.P$$
      3105**DCL      3105--REDEF
G$MHJIT.TSA_OV.P$$
      2976**DCL      2976--REDEF    2977--REDEF
G$MHJIT$
      7497**DCL       639--IMP-PTR  7597>>ASSIGN
G$USER.DL$
       581**DCL      7583--ASSIGN   7597--ASSIGN
G$USER.MISC
       579**DCL       579--REDEF
G$USRT$
      7498**DCL       578--IMP-PTR  7583>>ASSIGN   7597>>ASSIGN
GHH$LOCK
       318**DCL-ENT  7571--CALL     7578--CALL
GHH$UNLOCK
       318**DCL-ENT  7613--CALL     7620--CALL     7642--CALL     7649--CALL
G_DL$
      7499**DCL      7634>>ASSIGN   7635<<ASSIGN
G_DOGATE
       615**DCL      7578<>CALL     7613<>CALL     7642<>CALL
G_UDLGATE
       596**DCL      7571<>CALL     7620<>CALL     7649<>CALL
USR
       565**DCL        34--PROC     7583>>ASSIGN

PL6.E3A0      #006=GHS$DORUND File=GHS$SCHD.:E05TSI                              TUE 07/29/97 21:44 Page:243
     1503        1        /*T***********************************************************/
     1504        2        /*T*                                                         */
     1505        3        /*T* Copyright (c) Bull HN Information Systems Inc., 1997    */
     1506        4        /*T*                                                         */
     1507        5        /*T***********************************************************/
     1508        6        /*F*
     1509        7             NAME: GHS$DORUND
     1510        8             PURPOSE:
     1511        9                  To delete all Dolist entries for the specified domain of the current
     1512       10                  user.
     1513       11        */
     1514       12        /*D*
     1515       13             NAME: GHS$DORUND
     1516       14             CALL:
     1517       15                  CALL GHS$DORUND (Domain-number);
     1518       16             PARAMETERS:
     1519       17                  Domain-number is the domain for which entries are to be
     1520       18                  deleted.  Domains are User, Command Processor and Debugger;
     1521       19                  EQUs for the domains are in the GH_SCHD_E.
     1522       20             DESCRIPTION:
     1523       21                  Each Dolist entry of the Current User with a Domain number
     1524       22                  matching Domain-number is deleted.
     1525       23                  If called with no parameter, all dolist entries for this
     1526       24                  user are deleted.
     1527       25
     1528       26                  If the entry has an Entry-pointer, it is called.
     1529       27        */
     1530       28        GHS$DORUND: PROC(DMAIN);
     1531       29
     1532       30        /*         DELETE ALL DO LIST ENTRIES FOR THE CURRENT USER            */
     1533       31        /*         CALLED BY STEP WHEN RUNNING DOWN USER.                     */
     1534       32        /*                                                                    */
     1535       33    1   DCL DMAIN UBIN;                         /* domain #                           */
     1536       34        /*                                                                    */
     1537       35    1   DCL D$ PTR;
     1538       36    1   DCL DD$ PTR;
     1539       37    1   DCL GHS$XXDO ENTRY(3) ALTRET;
PL6.E3A0      #006=GHS$DORUND File=GHS$SCHD.:E05TSI                              TUE 07/29/97 21:44 Page:244
     1540       38    1   DCL G$MHJIT$ PTR SYMREF;
     1541       39
     1542       40
     1543       41        %INCLUDE GH_SCHD_M;
     1544      185        %INCLUDE GH_SCHD_E;
     1545      281 S      %INCLUDE GU_LCP6_M;
     1546      282 S      %INCLUDE GH_LCP6_M;
     1547      283        %INCLUDE GH_HARDWARE_M;
     1548      381        %INCLUDE G_HJIT_M;
     1549      526
     1550      527        %G$USER;
     1551      538        %G$MHJIT (STCLASS="BASED(G$MHJIT$)");
     1552     7412        %G$DO;
     1553     7475
     1554     7476    1           D$=G$MHJIT.CU$->G$U.DL$;
     1555     7477    1   DORNDN: IF D$ = ADDR(NIL) THEN
     1556     7478    1              RETURN;
     1557     7479    1           DD$=D$;
     1558     7480    1   DORN1:  IF DD$->G$DO.CONT THEN
     1559     7481    2           DO;
     1560     7482    2              DD$=DD$->G$DO.LNK$;
     1561     7483    2              GOTO DORN1;
     1562     7484    2              END;
     1563     7485    1           ELSE
     1564     7486    1              DD$=DD$->G$DO.LNK$;
     1565     7487    1           IF ADDR(DMAIN) = ADDR(NIL) THEN GOTO DO_RUND;
     1566     7488    1           IF D$->G$DO.DMAIN = DMAIN THEN
     1567     7489    2           DO;
     1568     7490    2   DO_RUND:   ;
     1569     7491    2              IF D$->G$DO.ENTER ~= ENTADDR(NIL) THEN
     1570     7492    2                 CALL D$->G$DO.ENTER(D$);
     1571     7493    2              CALL GHS$XXDO(0,D$);
     1572     7494    2              END;
     1573     7495    1           D$=DD$;
     1574     7496    1           GOTO DORNDN;
     1575     7497    1   END;
     1576     7498        %EOD;
PL6.E3A0      #006=GHS$DORUND File=GHS$SCHD.:E05TSI                              TUE 07/29/97 21:44 Page:245

PL6.E3A0      #006=GHS$DORUND File=GHS$SCHD.:E05TSI                              TUE 07/29/97 21:44 Page:246
--  Include file information  --

   G_HJIT_M.:E05TOU  is referenced.
   GH_HARDWARE_M.:E05TOU  is referenced.
   GH_SCHD_E.:E05TOU  is referenced.
   GH_SCHD_M.:E05TOU  is referenced.
   G_LCP6_E.:E05TOU  was found in the system file and is never referenced.
   GT_LCP6_M.:E05TOU  was found in the system file and is never referenced.
   KI_CP6.:E05TOU  was found in the system file and is never referenced.
   GF_LCP6_M.:E05TOU  was found in the system file and is never referenced.
   GM_LCP6_M.:E05TOU  was found in the system file and is never referenced.
   GU_LCP6_M.:E05TOU  was found in the system file and is referenced.
   GJ_LCP6_M.:E05TOU  was found in the system file and is never referenced.
   GH_LCP6_M.:E05TOU  was found in the system file and is referenced.
      No diagnostics issued in procedure GHS$DORUND.

   Procedure GHS$DORUND requires 96 words for executable code.
   Procedure GHS$DORUND requires 14 words of local(AUTO) storage.

PL6.E3A0      #006=GHS$DORUND File=GHS$SCHD.:E05TSI                              TUE 07/29/97 21:44 Page:247

 Object Unit name= GHS$DORUND                                 File name= GHS$SCHD.:E05TOU
 UTS= JUL 29 '97 21:44:01.68 TUE                              Compiler= PL-6/E31         Sev=      00
 SharedLib= :SHARED_LCP6_SYSTEM                               Alt SharedLib=


    ****  Control sections  ****

 Sect   Type Bound  Init  Size HexSiz  Section name
    0   Proc  even  none    96     60  GHS$DORUND
    1  RoData even  none     2      2  GHS$DORUND

    ****  Entry defs  ****

                              Check   Calling
                             calling  sequence
  Sect HexLoc Primary Altret sequence   type   Parms  Name
     0      0   yes            yes      Std        1  GHS$DORUND

  ****  Entry refs  ****

         Check        Calling
        calling       sequence
Altret sequence SRef   type   Args  Name
 yes     yes           Std       3 GHS$XXDO
                       nStd      0 X6A_AUTO_1
                       nStd      0 X6A_ARET

  ****  Data refs  ****

  Flags:  r = read only, s = secondary
Flgs Name                             Flgs Name                             Flgs Name
     G$MHJIT$                         r    G$ROS$
PL6.E3A0      #006=GHS$DORUND File=GHS$SCHD.:E05TSI                              TUE 07/29/97 21:44 Page:248


     1503        1        /*T***********************************************************/
     1504        2        /*T*                                                         */
     1505        3        /*T* Copyright (c) Bull HN Information Systems Inc., 1997    */
     1506        4        /*T*                                                         */
     1507        5        /*T***********************************************************/
     1508        6        /*F*
     1509        7             NAME: GHS$DORUND
     1510        8             PURPOSE:
     1511        9                  To delete all Dolist entries for the specified domain of the current
     1512       10                  user.
     1513       11        */
     1514       12        /*D*
     1515       13             NAME: GHS$DORUND
     1516       14             CALL:
     1517       15                  CALL GHS$DORUND (Domain-number);
     1518       16             PARAMETERS:
     1519       17                  Domain-number is the domain for which entries are to be
     1520       18                  deleted.  Domains are User, Command Processor and Debugger;
     1521       19                  EQUs for the domains are in the GH_SCHD_E.
     1522       20             DESCRIPTION:
     1523       21                  Each Dolist entry of the Current User with a Domain number
     1524       22                  matching Domain-number is deleted.
     1525       23                  If called with no parameter, all dolist entries for this
     1526       24                  user are deleted.
     1527       25
     1528       26                  If the entry has an Entry-pointer, it is called.
     1529       27        */
     1530       28        GHS$DORUND: PROC(DMAIN);

     28   0 000000  D380 0000 0000  xent GHS$DORUND      LNJ,B5   X6A_AUTO_1
          0 000003       000E 0001                       DC       14,1

     1531       29
     1532       30        /*         DELETE ALL DO LIST ENTRIES FOR THE CURRENT USER            */
     1533       31        /*         CALLED BY STEP WHEN RUNNING DOWN USER.                     */
     1534       32        /*                                                                    */
PL6.E3A0      #006=GHS$DORUND File=GHS$SCHD.:E05TSI                              TUE 07/29/97 21:44 Page:249
     1535       33    1   DCL DMAIN UBIN;                         /* domain #                           */
     1536       34        /*                                                                    */
     1537       35    1   DCL D$ PTR;
     1538       36    1   DCL DD$ PTR;
     1539       37    1   DCL GHS$XXDO ENTRY(3) ALTRET;
     1540       38    1   DCL G$MHJIT$ PTR SYMREF;
     1541       39
     1542       40
     1543       41        %INCLUDE GH_SCHD_M;
     1544      185        %INCLUDE GH_SCHD_E;
     1545      281 S      %INCLUDE GU_LCP6_M;
     1546      282 S      %INCLUDE GH_LCP6_M;
     1547      283        %INCLUDE GH_HARDWARE_M;
     1548      381        %INCLUDE G_HJIT_M;
     1549      526
     1550      527        %G$USER;
     1551      538        %G$MHJIT (STCLASS="BASED(G$MHJIT$)");
     1552     7412        %G$DO;
     1553     7475
     1554     7476    1           D$=G$MHJIT.CU$->G$U.DL$;

   7476   0 000005  EC80 0000 0000  xsym                 LDB,B6   G$MHJIT$
          0 000008  DCC6 0352                            LDB,B5   850,B6
          0 00000A  CCC5 000D                            LDB,B4   13,B5
          0 00000C  CFC7 0006                            STB,B4   D$,AUTO

     1555     7477    1   DORNDN: IF D$ = ADDR(NIL) THEN

   7477   0 00000E  8DC7 0006            DORNDN          CMN      D$,AUTO
          0 000010  0981 0004                            BNE      s:7479,PREL

     1556     7478    1              RETURN;

   7478   0 000012  C380 0000 0000  xent                 LNJ,B4   X6A_ARET

     1557     7479    1           DD$=D$;

PL6.E3A0      #006=GHS$DORUND File=GHS$SCHD.:E05TSI                              TUE 07/29/97 21:44 Page:250
   7479   0 000015  ECC7 0006                            LDB,B6   D$,AUTO
          0 000017  EFC7 0008                            STB,B6   DD$,AUTO

     1558     7480    1   DORN1:  IF DD$->G$DO.CONT THEN

   7480   0 000019  ECC7 0008            DORN1           LDB,B6   DD$,AUTO
          0 00001B  82C6 0002                            LB,'4000'X        2,B6
          0 00001D       4000
          0 00001E  0581 0005                            BBF      s:7486,PREL

     1559     7481    2           DO;

     1560     7482    2              DD$=DD$->G$DO.LNK$;

   7482   0 000020  DC86                                 LDB,B5   ,B6
          0 000021  DFC7 0008                            STB,B5   DD$,AUTO

     1561     7483    2              GOTO DORN1;

   7483   0 000023  0FF6                                 B        s:7480,SPREL

     1562     7484    2              END;
     1563     7485    1           ELSE
     1564     7486    1              DD$=DD$->G$DO.LNK$;

   7486   0 000024  DC86                                 LDB,B5   ,B6
          0 000025  DFC7 0008                            STB,B5   DD$,AUTO

     1565     7487    1           IF ADDR(DMAIN) = ADDR(NIL) THEN GOTO DO_RUND;

   7487   0 000027  ECC7 0004                            LDB,B6   @DMAIN,AUTO
          0 000029  8DD6                                 CMN      B6
          0 00002A  0901 000A                            BE       s:7489,PREL

     1566     7488    1           IF D$->G$DO.DMAIN = DMAIN THEN

   7488   0 00002C  CCC7 0006                            LDB,B4   D$,AUTO
PL6.E3A0      #006=GHS$DORUND File=GHS$SCHD.:E05TSI                              TUE 07/29/97 21:44 Page:251
          0 00002E  E844 0002                            LDR,R6   2,B4
          0 000030  E570 00FF                            AND,R6   255,IMO
          0 000032  E906                                 CMR,R6   ,B6
          0 000033  0981 0026                            BNE      s:7495,PREL

     1567     7489    2           DO;

   7486   0                              DO_RUND         null
     1568     7490    2   DO_RUND:   ;
     1569     7491    2              IF D$->G$DO.ENTER ~= ENTADDR(NIL) THEN

   7491   0 000035  CCC7 0006            DO_RUND         LDB,B4   D$,AUTO
          0 000037  BCC4 0003                            LDB,B3   3,B4
          0 000039  BD80 0000 0000  01                   CMB,B3   0
          0 00003C  0901 000D                            BE       s:7493,PREL

     1570     7492    2                 CALL D$->G$DO.ENTER(D$);

   7492   0 00003E  ABC7 0006                            LAB,B2   D$,AUTO
          0 000040  AFC7 000A                            STB,B2   DD$+2,AUTO
          0 000042  BBC7 000A                            LAB,B3   DD$+2,AUTO
          0 000044  9CC4 0003                            LDB,B1   3,B4
          0 000046  CBF0 0100                            LAB,B4   256,IMO
          0 000048  E381                                 LNJ,B6   ,B1
          0 000049       0001                            DC       s:7493,PREL

     1571     7493    2              CALL GHS$XXDO(0,D$);

   7493   0 00004A  EBF0 0000                            LAB,B6   0,IMO
          0 00004C  DBC7 0006                            LAB,B5   D$,AUTO
          0 00004E  DFC7 000C                            STB,B5   DD$+4,AUTO
          0 000050  EFC7 000A                            STB,B6   DD$+2,AUTO
          0 000052  BBC7 000A                            LAB,B3   DD$+2,AUTO
          0 000054  CBF0 0200                            LAB,B4   512,IMO
          0 000056  E380 0000 0000  xent                 LNJ,B6   GHS$XXDO
          0 000059       0001                            DC       s:7495,PREL

PL6.E3A0      #006=GHS$DORUND File=GHS$SCHD.:E05TSI                              TUE 07/29/97 21:44 Page:252
     1572     7494    2              END;

     1573     7495    1           D$=DD$;

   7495   0 00005A  ECC7 0008                            LDB,B6   DD$,AUTO
          0 00005C  EFC7 0006                            STB,B6   D$,AUTO

     1574     7496    1           GOTO DORNDN;

   7496   0 00005E  0F81 FFAF                            B        s:7477,PREL
     1575     7497    1   END;
     1576     7498        %EOD;

PL6.E3A0      #006=GHS$DORUND File=GHS$SCHD.:E05TSI                              TUE 07/29/97 21:44 Page:253
--  Include file information  --

   G_HJIT_M.:E05TOU  is referenced.
   GH_HARDWARE_M.:E05TOU  is referenced.
   GH_SCHD_E.:E05TOU  is referenced.
   GH_SCHD_M.:E05TOU  is referenced.
   G_LCP6_E.:E05TOU  was found in the system file and is never referenced.
   GT_LCP6_M.:E05TOU  was found in the system file and is never referenced.
   KI_CP6.:E05TOU  was found in the system file and is never referenced.
   GF_LCP6_M.:E05TOU  was found in the system file and is never referenced.
   GM_LCP6_M.:E05TOU  was found in the system file and is never referenced.
   GU_LCP6_M.:E05TOU  was found in the system file and is referenced.
   GJ_LCP6_M.:E05TOU  was found in the system file and is never referenced.
   GH_LCP6_M.:E05TOU  was found in the system file and is referenced.
      No diagnostics issued in procedure GHS$DORUND.
PL6.E3A0      #006=GHS$DORUND File=GHS$SCHD.:E05TSI                              TUE 07/29/97 21:44 Page:254

 **** Variables and constants ****

  ****  Auto variables  ****

  ****  Scalars and arrays  ****
HexLoc.c.b A Datatyp(siz) R M Lvl/name                 HexLoc.c.b A Datatyp(siz) R M Lvl/name

     4-0-0/w PTR         r     1 @DMAIN                     6-0-0/w PTR         r     1 D$
     8-0-0/w PTR         r     1 DD$                       *0-0-0/w UBIN(16)    r     1 DMAIN

  ****  SYMREF variables  ****

  ****  Scalars and arrays  ****
HexLoc.c.b A Datatyp(siz) R M Lvl/name                 HexLoc.c.b A Datatyp(siz) R M Lvl/name

     0-0-0/w PTR         r     1 G$MHJIT$

  ****  BASED and DCB variables  ****

  ****  Scalars and arrays  ****
HexLoc.c.b A Datatyp(siz) R M Lvl/name                 HexLoc.c.b A Datatyp(siz) R M Lvl/name

     0-0-0/w STRC(256)   r     1 G$DO                       0-0-0/w STRC(27232) r     1 G$MHJIT
     0-0-0/w STRC(384)   r     1 G$U


   Procedure GHS$DORUND requires 96 words for executable code.
   Procedure GHS$DORUND requires 14 words of local(AUTO) storage.
PL6.E3A0      #006=GHS$DORUND File=GHS$SCHD.:E05TSI                              TUE 07/29/97 21:44 Page:255
          *** CROSS REFERENCE LISTING ***
**     DENOTES     IDENTIFIER DEFINITION
<<                 IDENTIFIER'S VALUE SET
>>                 IDENTIFIER'S VALUE USED
<>                 IDENTIFIER SET AND/OR USED
--                 IDENTIFIER REFERENCED
PL6.E3A0      #006=GHS$DORUND File=GHS$SCHD.:E05TSI                              TUE 07/29/97 21:44 Page:256
          MINI XREF LISTING

D$
        35**DCL      7476<<ASSIGN   7477>>IF       7479>>ASSIGN   7488>>IF       7491>>IF       7492>>CALL
      7492<>CALL     7493<>CALL     7495<<ASSIGN
DD$
        36**DCL      7479<<ASSIGN   7480>>IF       7482<<ASSIGN   7482>>ASSIGN   7486<<ASSIGN   7486>>ASSIGN
      7495>>ASSIGN
DMAIN
        33**DCL        28--PROC     7487--IF       7488>>IF
DORN1
      7480**LABEL    7483--GOTO
DORNDN
      7477**LABEL    7496--GOTO
DO_RUND
      7486**LABEL    7487--GOTO
G$DO.CONT
      7421**DCL      7480>>IF
G$DO.DMAIN
      7421**DCL      7488>>IF
G$DO.ENTER
      7421**DCL      7491>>IF       7492>>CALL
G$DO.LNK$
      7417**DCL      7482>>ASSIGN   7486>>ASSIGN
G$MHJIT.CU$
      6883**DCL      7476>>ASSIGN
G$MHJIT.INTCON.HHJIT
      7017**DCL      7017--REDEF
G$MHJIT.INTCON.P$$
      6990**DCL      6990--REDEF
G$MHJIT.ISA_BIGFOOT.P$$
      3935**DCL      3935--REDEF
G$MHJIT.ISA_DBINH.P$$
      5149**DCL      5149--REDEF
PL6.E3A0      #006=GHS$DORUND File=GHS$SCHD.:E05TSI                              TUE 07/29/97 21:44 Page:257
G$MHJIT.ISA_IDLE.P$$
      2030**DCL      2030--REDEF
G$MHJIT.ISA_LVL10.P$$
      5452**DCL      5452--REDEF
G$MHJIT.ISA_LVL11.P$$
      5755**DCL      5755--REDEF
G$MHJIT.ISA_LVL12.P$$
      6058**DCL      6058--REDEF
G$MHJIT.ISA_LVL5.P$$
      4238**DCL      4238--REDEF
G$MHJIT.ISA_OV.P$$
      3632**DCL      3632--REDEF
G$MHJIT.ISA_PFS.P$$
      3303**DCL      3303--REDEF
G$MHJIT.ISA_RT_CLOCK.P$$
      6665**DCL      6665--REDEF
G$MHJIT.ISA_SATYR_RCV.P$$
      4542**DCL      4542--REDEF
G$MHJIT.ISA_SATYR_TRN.P$$
      4846**DCL      4846--REDEF
G$MHJIT.ISA_SCHD.P$$
      6361**DCL      6361--REDEF
G$MHJIT.ISA_WDOG.P$$
      3411**DCL      3411--REDEF
G$MHJIT.TSA_DB.ISA.P$$
      2633**DCL      2633--REDEF
G$MHJIT.TSA_DB.P$$
      2504**DCL      2504--REDEF    2505--REDEF
G$MHJIT.TSA_HND.ISA.P$$
      7211**DCL      7211--REDEF
G$MHJIT.TSA_HND.P$$
      7082**DCL      7082--REDEF    7083--REDEF
G$MHJIT.TSA_MON.ISA.P$$
      2245**DCL      2245--REDEF
G$MHJIT.TSA_MON.P$$
      2116**DCL      2116--REDEF    2117--REDEF
PL6.E3A0      #006=GHS$DORUND File=GHS$SCHD.:E05TSI                              TUE 07/29/97 21:44 Page:258
G$MHJIT.TSA_OV.ISA.P$$
      3021**DCL      3021--REDEF
G$MHJIT.TSA_OV.P$$
      2892**DCL      2892--REDEF    2893--REDEF
G$MHJIT$
        38**DCL       555--IMP-PTR  7476>>ASSIGN
G$U.DL$
       535**DCL      7476>>ASSIGN
G$U.MISC
       533**DCL       533--REDEF
GHS$XXDO
        37**DCL-ENT  7493--CALL

PL6.E3A0      #007=GHS$ADDUSR File=GHS$SCHD.:E05TSI                              TUE 07/29/97 21:44 Page:259
     1577        1        /*T***********************************************************/
     1578        2        /*T*                                                         */
     1579        3        /*T* Copyright (c) Bull HN Information Systems Inc., 1997    */
     1580        4        /*T*                                                         */
     1581        5        /*T***********************************************************/
     1582        6        /*F*
     1583        7             NAME: GHS$ADDUSR
     1584        8             PURPOSE:
     1585        9                  To obtain a User Table entry, UHJIT and ROS segments for
     1586       10                  a new user and do the appropriate initialization.
     1587       11             DESCRIPTION:
     1588       12                  This procedure obtains a user number from the Null state
     1589       13                  queue, memory for a UHJIT, ROS and TSTACK segments.  The User
     1590       14                  Table entry and segments are initialized.  The user is placed
     1591       15                  in an executable state. Parameters indicate the user number
     1592       16                   and any possible error.
     1593       17        */
     1594       18        /*D*
     1595       19             NAME: GHS$NXTUSR
     1596       20             CALL:
     1597       21                  CALL GHS$ADDUSR (#-interrupts,
     1598       22                                   User-number,
     1599       23                                   ROS-page,
     1600       24                                   Result-code);
     1601       25             PARAMETERS:
     1602       26                  #-interrupts indicates the number of HHJITs to allocate.
     1603       27                  User-number is the resultant User number.
     1604       28                  ROS-page id the physical page number of the ROS.
     1605       29                  Result-code is set to the appropriate error code.
     1606       30             DESCRIPTION:
     1607       31                  A user-number is unlinked from the Null state queue and the
     1608       32                  corresponding User Table entry is initialized.  If unable to
     1609       33                  obtain a user, Result-code is set.  Memory is obtained from
     1610       34                  MM for the UHJIT, ROS and TSTACK segments.  If unable to
     1611       35                  obtain memory, Result-code is set.  The MMU images, ISA and
     1612       36                  TSA are initialized in UHJIT.  The pointers to tables within
     1613       37                  the ROS are initialized, (JIT, ECCB, TCB).  The users
PL6.E3A0      #007=GHS$ADDUSR File=GHS$SCHD.:E05TSI                              TUE 07/29/97 21:44 Page:260
     1614       38                  TSTACK is initialized.  Upon completion, everything should
     1615       39                  be ready to run the user.
     1616       40                                                                           */
     1617       41
     1618       42        GHS$ADDUSR: PROC (INT#,MODE,USER,ROSPP,ERRCODE);
     1619       43
     1620       44 S      %INCLUDE G_LCP6_E;
     1621       45        %INCLUDE GH_SCHD_M;
     1622      189        %INCLUDE GH_SCHD_E;
     1623      285        %INCLUDE GH_GATE_M;
     1624      326 S      %INCLUDE GU_LCP6_M;
     1625      327 S      %INCLUDE GH_LCP6_M;
     1626      328        %INCLUDE GH_HARDWARE_M;
     1627      426        %INCLUDE G_HJIT_M;
     1628      571        %INCLUDE G_ROS_M;
     1629      653 S      %INCLUDE GF_LCP6_M;
     1630      654        %INCLUDE G_JIT_M;
     1631      919        %INCLUDE KL_ERRORS_C;
     1632      961        %INCLUDE P_FEP_M;
     1633     1399        %INCLUDE KL_MACRO_C;
     1634     4751        %INCLUDE K_ID_E;
     1635     4801
     1636     4802        %G$USER (FPTN="G$USER(0:0)",STCLASS="BASED(G$USRT$)");
     1637     4813        %G$USER (FPTN=G$U,STCLASS="BASED(U$)");
     1638     4824        %G$ASDT;
     1639     4853        %G$UHJIT (STCLASS="BASED(G$WINDOW1$)");
     1640     7827        %G$MHJIT (STCLASS="BASED(G$MHJIT$)");
     1641    14701        %G$HHJIT;
     1642    16845        %G$ROS   (STCLASS="BASED(G$WINDOW1$)",FULL=YES);
     1643    17796        %G$ROS   (FPTN=ROS,STCLASS="BASED(G$ROS$)",FULL=YES);
     1644    18747        %G$EXCFR;
     1645    19129        %G$STACK_HDR (FPTN=HDR,STCLASS=BASED);
     1646    19145        %GATE (FPTN=G_SCHDGATE,STCLASS=SYMREF);
     1647    19164        %K#ENTID_E;
     1648    19183        %PS_LCP6STT (STCLASS=SYMREF);
     1649    19687        %G$JIT_E;
     1650    19749
PL6.E3A0      #007=GHS$ADDUSR File=GHS$SCHD.:E05TSI                              TUE 07/29/97 21:44 Page:261
     1651    19750    1   DCL BASE_PRIO UBIN CONSTANT INIT(1);
     1652    19751
     1653    19752    1   DCL INT# UBIN;
     1654    19753    1   DCL MODE UBIN;
     1655    19754    1   DCL ROSPP UBIN;
     1656    19755    1   DCL USER UBIN;
     1657    19756    1   DCL ERRCODE UBIN;
     1658    19757    1   DCL SIZE UBIN WORD;
     1659    19758    1   DCL INIT_SZ UBIN WORD;
     1660    19759    1   DCL PAGE UBIN WORD;
     1661    19760
     1662    19761    1   DCL G$WINDOW1$ PTR SYMREF;
     1663    19762    1   DCL G$MHJIT$ PTR SYMREF;
     1664    19763    1   DCL G$UHJIT$ PTR SYMREF;
     1665    19764    1   DCL G$ROS$ PTR SYMREF;
     1666    19765    1   DCL G$USRT$ PTR SYMREF;
     1667    19766    1   DCL G$BPAR1$ PTR SYMREF;
     1668    19767    1   DCL G_CUR_USRS(0:0) UBIN SYMREF;
     1669    19768    1   DCL G_MAX_USRS(0:0) UBIN SYMREF;
     1670    19769    1   DCL GH_HQ(0:0) UBIN SYMREF;
     1671    19770    1   DCL GM_ASHUF UBIN(16) SYMREF;
     1672    19771    1   DCL GM_HSHUF UBIN(16) SYMREF;
     1673    19772    1   DCL GM_TSTKU_PGSZ UBIN SYMREF;
     1674    19773    1   DCL G$TSTACK$ PTR SYMREF;
     1675    19774
     1676    19775    1   DCL GHH$SETASDT_ASD ENTRY(3);
     1677    19776    1   DCL GMA$GETPS ENTRY(2) ALTRET;
     1678    19777    1   DCL GMA$RELPS ENTRY(2) ALTRET;
     1679    19778    1   DCL GMA$PS2USR ENTRY(2) ALTRET;
     1680    19779    1   DCL GHS$CHSE ENTRY(1) ALTRET;
     1681    19780    1   DCL X6A_MAUTO ENTRY(3) ;
     1682    19781
     1683    19782    1   DCL UHJITPP UBIN;
     1684    19783    1   DCL TSTKPP UBIN;
     1685    19784    1   DCL USR# UBIN;
     1686    19785    1   DCL S$ PTR;
     1687    19786    1   DCL U$ PTR;
PL6.E3A0      #007=GHS$ADDUSR File=GHS$SCHD.:E05TSI                              TUE 07/29/97 21:44 Page:262
     1688    19787    1   DCL I UBIN;
     1689    19788
     1690    19789        %EJECT;
PL6.E3A0      #007=GHS$ADDUSR File=GHS$SCHD.:E05TSI                              TUE 07/29/97 21:44 Page:263
     1691    19790    1           IF G_CUR_USRS(MODE) < G_MAX_USRS(MODE) THEN
     1692    19791    1              IF GH_HQ(%GH_NULL) ~= 0 AND G_CUR_USRS(0) < G_MAX_USRS(0) THEN
     1693    19792    2              DO;
     1694    19793    2                 CALL GETSYSID (I) ALTRET(NO_SYSID);
     1695    19794    2                 CALL GETUSR;
     1696    19795    2                 CALL GETSEGS ALTRET(NO_SEGS);
     1697    19796    2                 G_CUR_USRS(MODE) = G_CUR_USRS(MODE) + 1;
     1698    19797    2                 G_CUR_USRS(0) = G_CUR_USRS(0) + 1;
     1699    19798    2                 IF G_CUR_USRS(0) > PS_LCP6STT.PEAK_USERS
     1700    19799    2                 THEN PS_LCP6STT.PEAK_USERS = G_CUR_USRS(0);
     1701    19800    2                 USER = USR#;
     1702    19801    2                 CALL GHS$CHSE (USR#);
     1703    19802
     1704    19803    2                 ERRCODE=0;
     1705    19804    2                 END;
     1706    19805    1              ELSE ERRCODE = %E$NUSR;
     1707    19806    1           ELSE ERRCODE = %E$NOOL;
     1708    19807    1           RETURN;
     1709    19808
     1710    19809    1   NO_SYSID: ERRCODE=%E$NOSYD;
     1711    19810    1   NO_SEGS: RETURN;
     1712    19811
     1713    19812        /*E* ERROR: GHS-E$NUSR-E
     1714    19813             MESSAGE: The FEP is currently running the maximum users allowed.
     1715    19814        */
     1716    19815
     1717    19816        /*E* ERROR: GHS-E$NOOL-E
     1718    19817             MESSAGE: The maximum number of users for that mode are already running.
     1719    19818        */
     1720    19819
     1721    19820        /*E* ERROR: GHS-E$NOSYD-E
     1722    19821             MESSAGE: Can't start FEP user - no SYSID available
     1723    19822        */
     1724    19823        %EJECT;
PL6.E3A0      #007=GHS$ADDUSR File=GHS$SCHD.:E05TSI                              TUE 07/29/97 21:44 Page:264
     1725    19824    1   GETSEGS: PROC ALTRET;
     1726    19825
     1727    19826    2   DCL ASDT(0:30) UBIN(32) BASED;
     1728    19827
     1729    19828        /*If a memory shuffle is necessary, force it now before we get the
     1730    19829          initial pages by allocating the pages as a chunk and then releasing
     1731    19830          them.  They may then be re-allocated as the three individual
     1732    19831          segments.
     1733    19832        */
     1734    19833    2           INIT_SZ = (SIZEW(G$UHJIT)+255)/256
     1735    19834    2             + (SIZEW(G$ROS)+255)/256
     1736    19835    2             + GM_TSTKU_PGSZ;
     1737    19836    2           CALL GMA$GETPS (UHJITPP, INIT_SZ) ALTRET(GUHY);
     1738    19837    2           CALL GMA$RELPS (UHJITPP, INIT_SZ);
     1739    19838
     1740    19839    2           INIT_SZ = 0;
     1741    19840    2           CALL GMA$GETPS (UHJITPP,(SIZEW(G$UHJIT)+255)/256) ALTRET(GUHX);
     1742    19841    2           INIT_SZ = (SIZEW(G$UHJIT)+255)/256;
     1743    19842    2           CALL GMA$GETPS (TSTKPP, GM_TSTKU_PGSZ) ALTRET(NOSTK);
     1744    19843    2           INIT_SZ = INIT_SZ + GM_TSTKU_PGSZ;
     1745    19844    2           CALL GMA$GETPS (ROSPP,(SIZEW(G$ROS)+255)/256) ALTRET(GROX);
     1746    19845    2           INIT_SZ = INIT_SZ + (SIZEW(G$ROS)+255)/256;
     1747    19846
     1748    19847        /*GMA decremented ASHUF because we are running on behalf of the NODEADMN handler.
     1749    19848        */
     1750    19849    2           IF (MODE ~= %G_M_HANDLER#) AND (MODE ~= 0)
     1751    19850    3           THEN DO;
     1752    19851    3              GM_ASHUF = GM_ASHUF + INIT_SZ;
     1753    19852    3              GM_HSHUF = GM_HSHUF - INIT_SZ;
     1754    19853    3              END;
     1755    19854
     1756    19855    2           G$U.UHJITPP = UHJITPP;          /* UHJIT address                      */
     1757    19856
     1758    19857        /*  Map UHJIT segment into window                                */
     1759    19858
     1760    19859    2           PAGE = G$MHJIT.ASDT_BIGFOOT.UMHJIT.BASE;
     1761    19860    2           SIZE = (SIZEW(G$UHJIT)-1)/256;
PL6.E3A0      #007=GHS$ADDUSR File=GHS$SCHD.:E05TSI                              TUE 07/29/97 21:44 Page:265
     1762    19861    2           CALL GHH$SETASDT_ASD(G$WINDOW1$,UHJITPP,SIZE);
     1763    19862    2           CALL GHH$SETASDT_ASD(G$BPAR1$,PAGE,SIZE);
     1764    19863    2           G$WINDOW1$->G$UHJIT = G$BPAR1$->G$UHJIT;
     1765    19864
     1766    19865        /*  Initialize MMU images                                        */
     1767    19866
     1768    19867    2           G$UHJIT.ASDT_USR.UHJIT.BASE = UHJITPP;
     1769    19868    2           G$UHJIT.ASDT_MCL.UHJIT = G$UHJIT.ASDT_USR.UHJIT;
     1770    19869    2           G$UHJIT.ASDT_MCL.TSTACKU.BASE = TSTKPP;
     1771    19870    2           G$UHJIT.ASDT_MCL.TSTACKU.SIZE = GM_TSTKU_PGSZ -1;
     1772    19871    2           G$UHJIT.ASDT_USR.TSTACKU = G$UHJIT.ASDT_MCL.TSTACKU;
     1773    19872    2           G$UHJIT.ASDT_USR.ROS.BASE = ROSPP;
     1774    19873    2           G$UHJIT.ASDT_USR.ROS.SIZE = (SIZEW(G$ROS)-1)/256;
     1775    19874    2           G$UHJIT.ASDT_USR.ROS.RP = %G_R_USR#;
     1776    19875    2           G$UHJIT.ASDT_MCL.ROS = G$UHJIT.ASDT_USR.ROS;
     1777    19876
     1778    19877
     1779    19878    2           PAGE = G$MHJIT.ASDT_BIGFOOT.ROS.BASE;
     1780    19879    2           SIZE = (SIZEW(G$ROS)-1)/256;
     1781    19880    2           CALL GHH$SETASDT_ASD(G$WINDOW1$,ROSPP,SIZE);
     1782    19881    2           CALL GHH$SETASDT_ASD(G$BPAR1$,PAGE,SIZE);
     1783    19882    2           G$WINDOW1$->G$ROS = G$BPAR1$->G$ROS;
     1784    19883
     1785    19884    2           G$ROS.JIT.USR# = USR#;
     1786    19885    2           G$ROS.JIT.SYSID = I;
     1787    19886
     1788    19887
     1789    19888    2           SIZE = GM_TSTKU_PGSZ -1;
     1790    19889    2           CALL GHH$SETASDT_ASD(G$WINDOW1$,TSTKPP,SIZE);
     1791    19890    2           SIZE = GM_TSTKU_PGSZ * 256;
     1792    19891    2           CALL X6A_MAUTO (G$WINDOW1$ , SIZE, G$TSTACK$);
     1793    19892
     1794    19893        /*   Let MM know that these segments belong to the user   */
     1795    19894
     1796    19895
     1797    19896    2           CALL GMA$PS2USR (UHJITPP,USR#);
     1798    19897    2           CALL GMA$PS2USR (ROSPP,USR#);
PL6.E3A0      #007=GHS$ADDUSR File=GHS$SCHD.:E05TSI                              TUE 07/29/97 21:44 Page:266
     1799    19898    2           CALL GMA$PS2USR (TSTKPP,USR#);
     1800    19899    2           RETURN;
     1801    19900
     1802    19901
     1803    19902    2   GROX:   CALL GMA$RELPS (TSTKPP, GM_TSTKU_PGSZ);
     1804    19903    2   NOSTK:  CALL GMA$RELPS (UHJITPP,(SIZEW(G$UHJIT)+255)/256);
     1805    19904    2   GUHX:   ;
     1806    19905    2           GM_ASHUF = GM_ASHUF + INIT_SZ;
     1807    19906    2           GM_HSHUF = GM_HSHUF - INIT_SZ;
     1808    19907    2   GUHY:
     1809    19908                %LOCK (G=G_SCHDGATE);
     1810    19915
     1811    19916    2           G$U.FL = GH_HQ(%GH_NULL);
     1812    19917    2           G$USER.BL(GH_HQ(%GH_NULL)) = USR#;
     1813    19918    2           GH_HQ(%GH_NULL) = USR#;
     1814    19919
     1815    19920                %UNLOCK (G=G_SCHDGATE);
     1816    19927
     1817    19928    2           ERRCODE=%E$NJIT;
     1818    19929    2           ALTRETURN;
     1819    19930    2   END GETSEGS;
     1820    19931
     1821    19932        %EJECT;
PL6.E3A0      #007=GHS$ADDUSR File=GHS$SCHD.:E05TSI                              TUE 07/29/97 21:44 Page:267
     1822    19933    1   GETUSR: PROC;
     1823    19934
     1824    19935
     1825    19936                %LOCK (G=G_SCHDGATE);
     1826    19943
     1827    19944    2           USR#=GH_HQ(%GH_NULL);
     1828    19945    2           U$=ADDR(G$USER(USR#));
     1829    19946    2           GH_HQ(%GH_NULL)=G$U.FL;
     1830    19947
     1831    19948                %UNLOCK (G=G_SCHDGATE);
     1832    19955
     1833    19956    2           G$USER.BL(G$U.FL)=0;
     1834    19957    2           G$U.FLG='0'B;
     1835    19958    2           G$U.ASYNCH='0'B;
     1836    19959    2           G$U.MF=0;
     1837    19960    2           G$U.DL$=ADDR(NIL);
     1838    19961    2           G$U.MODE=MODE;
     1839    19962    2           IF MODE = %G_M_HANDLER# THEN
     1840    19963    2              G$U.PRIOB=BASE_PRIO+3;
     1841    19964    2           ELSE
     1842    19965    2              G$U.PRIOB=BASE_PRIO;
     1843    19966    2           G$U.PRIO=BASE_PRIO;
     1844    19967    2           G$U.SYSID=I;
     1845    19968    2           RETURN;
     1846    19969    2   END GETUSR;
     1847    19970
     1848    19971
     1849    19972    1   GETSYSID: PROC(ID) ALTRET;
     1850    19973
     1851    19974    2   DCL G_SYSID UBIN STATIC SYMDEF INIT(0);
     1852    19975    2   DCL ID UBIN;
     1853    19976
     1854    19977    2           G_SYSID=G_SYSID+1;
     1855    19978    2           ID=G_SYSID;
     1856    19979    2           RETURN;
     1857    19980    2   END GETSYSID;
     1858    19981    1   END;
PL6.E3A0      #007=GHS$ADDUSR File=GHS$SCHD.:E05TSI                              TUE 07/29/97 21:44 Page:268
     1859    19982        %EOD;

PL6.E3A0      #007=GHS$ADDUSR File=GHS$SCHD.:E05TSI                              TUE 07/29/97 21:44 Page:269
--  Include file information  --

   K_ID_E.:E05TOU  is referenced.
   KL_MACRO_C.:E05TOU  is referenced.
   P_FEP_M.:E05TOU  is referenced.
   KL_ERRORS_C.:E05TOU  is referenced.
   G_JIT_M.:E05TOU  is referenced.
   G_ROS_M.:E05TOU  is referenced.
   G_HJIT_M.:E05TOU  is referenced.
   GH_HARDWARE_M.:E05TOU  is referenced.
   GH_GATE_M.:E05TOU  cannot be made into a system file and is referenced.
   GH_SCHD_E.:E05TOU  is referenced.
   GH_SCHD_M.:E05TOU  is referenced.
   G_LCP6_E.:E05TOU  was found in the system file and is referenced.
   GT_LCP6_M.:E05TOU  was found in the system file and is never referenced.
   KI_CP6.:E05TOU  was found in the system file and is never referenced.
   GF_LCP6_M.:E05TOU  was found in the system file and is referenced.
   GM_LCP6_M.:E05TOU  was found in the system file and is never referenced.
   GU_LCP6_M.:E05TOU  was found in the system file and is referenced.
   GJ_LCP6_M.:E05TOU  was found in the system file and is never referenced.
   GH_LCP6_M.:E05TOU  was found in the system file and is referenced.
      No diagnostics issued in procedure GHS$ADDUSR.

   Procedure GHS$ADDUSR requires 749 words for executable code.
   Procedure GHS$ADDUSR requires 36 words of local(AUTO) storage.

PL6.E3A0      #007=GHS$ADDUSR File=GHS$SCHD.:E05TSI                              TUE 07/29/97 21:44 Page:270

 Object Unit name= GHS$ADDUSR                                 File name= GHS$SCHD.:E05TOU
 UTS= JUL 29 '97 21:44:48.08 TUE                              Compiler= PL-6/E31         Sev=      00
 SharedLib= :SHARED_LCP6_SYSTEM                               Alt SharedLib=


    ****  Control sections  ****

 Sect   Type Bound  Init  Size HexSiz  Section name
    0  RoData even  UTS      1      1  GHS$ADDUSR
    1   Data  even  none     1      1  GHS$ADDUSR
    2   Proc  even  none   749    2ED  GHS$ADDUSR
    3  RoData even  none     2      2  GHS$ADDUSR

    ****  Entry defs  ****

                              Check   Calling
                             calling  sequence
  Sect HexLoc Primary Altret sequence   type   Parms  Name
     2      0   yes            yes      Std        5  GHS$ADDUSR

  ****  Data defs  ****

 Sect HexLoc  Name                           Sect HexLoc  Name
    1      0  G_SYSID
PL6.E3A0      #007=GHS$ADDUSR File=GHS$SCHD.:E05TSI                              TUE 07/29/97 21:44 Page:271

  ****  Entry refs  ****

         Check        Calling
        calling       sequence
Altret sequence SRef   type   Args  Name
 yes     yes           Std       1 GHS$CHSE
 yes     yes           Std       2 GMA$GETPS
 yes     yes           Std       2 GMA$PS2USR
 yes     yes           Std       2 GMA$RELPS
         yes           Std       3 GHH$SETASDT_ASD
 yes     yes           Std       1 GHH$UNLOCK
         yes           Std       3 X6A_MAUTO
 yes     yes           Std       1 GHH$LOCK
                       nStd      0 X6A_AUTO_N
                       nStd      0 X6A_ARET

  ****  Data refs  ****

  Flags:  r = read only, s = secondary
Flgs Name                             Flgs Name                             Flgs Name
     G_SCHDGATE                            PS_LCP6STT                            G$WINDOW1$
     G$MHJIT$                              G$ROS$                                G$USRT$
     G$BPAR1$                              G_CUR_USRS                            G_MAX_USRS
     GH_HQ                                 GM_ASHUF                              GM_HSHUF
     GM_TSTKU_PGSZ                         G$TSTACK$                        r    G$ROS$
PL6.E3A0      #007=GHS$ADDUSR File=GHS$SCHD.:E05TSI                              TUE 07/29/97 21:44 Page:272


     1577        1        /*T***********************************************************/
     1578        2        /*T*                                                         */
     1579        3        /*T* Copyright (c) Bull HN Information Systems Inc., 1997    */
     1580        4        /*T*                                                         */
     1581        5        /*T***********************************************************/
     1582        6        /*F*
     1583        7             NAME: GHS$ADDUSR
     1584        8             PURPOSE:
     1585        9                  To obtain a User Table entry, UHJIT and ROS segments for
     1586       10                  a new user and do the appropriate initialization.
     1587       11             DESCRIPTION:
     1588       12                  This procedure obtains a user number from the Null state
     1589       13                  queue, memory for a UHJIT, ROS and TSTACK segments.  The User
     1590       14                  Table entry and segments are initialized.  The user is placed
     1591       15                  in an executable state. Parameters indicate the user number
     1592       16                   and any possible error.
     1593       17        */
     1594       18        /*D*
     1595       19             NAME: GHS$NXTUSR
     1596       20             CALL:
     1597       21                  CALL GHS$ADDUSR (#-interrupts,
     1598       22                                   User-number,
     1599       23                                   ROS-page,
     1600       24                                   Result-code);
     1601       25             PARAMETERS:
     1602       26                  #-interrupts indicates the number of HHJITs to allocate.
     1603       27                  User-number is the resultant User number.
     1604       28                  ROS-page id the physical page number of the ROS.
     1605       29                  Result-code is set to the appropriate error code.
     1606       30             DESCRIPTION:
     1607       31                  A user-number is unlinked from the Null state queue and the
     1608       32                  corresponding User Table entry is initialized.  If unable to
     1609       33                  obtain a user, Result-code is set.  Memory is obtained from
     1610       34                  MM for the UHJIT, ROS and TSTACK segments.  If unable to
     1611       35                  obtain memory, Result-code is set.  The MMU images, ISA and
     1612       36                  TSA are initialized in UHJIT.  The pointers to tables within
PL6.E3A0      #007=GHS$ADDUSR File=GHS$SCHD.:E05TSI                              TUE 07/29/97 21:44 Page:273
     1613       37                  the ROS are initialized, (JIT, ECCB, TCB).  The users
     1614       38                  TSTACK is initialized.  Upon completion, everything should
     1615       39                  be ready to run the user.
     1616       40                                                                           */
     1617       41
     1618       42        GHS$ADDUSR: PROC (INT#,MODE,USER,ROSPP,ERRCODE);

     42   2 000000  D380 0000 0000  xent GHS$ADDUSR      LNJ,B5   X6A_AUTO_N
          2 000003       0024 0005                       DC       36,5

     1619       43
     1620       44 S      %INCLUDE G_LCP6_E;
     1621       45        %INCLUDE GH_SCHD_M;
     1622      189        %INCLUDE GH_SCHD_E;
     1623      285        %INCLUDE GH_GATE_M;
     1624      326 S      %INCLUDE GU_LCP6_M;
     1625      327 S      %INCLUDE GH_LCP6_M;
     1626      328        %INCLUDE GH_HARDWARE_M;
     1627      426        %INCLUDE G_HJIT_M;
     1628      571        %INCLUDE G_ROS_M;
     1629      653 S      %INCLUDE GF_LCP6_M;
     1630      654        %INCLUDE G_JIT_M;
     1631      919        %INCLUDE KL_ERRORS_C;
     1632      961        %INCLUDE P_FEP_M;
     1633     1399        %INCLUDE KL_MACRO_C;
     1634     4751        %INCLUDE K_ID_E;
     1635     4801
     1636     4802        %G$USER (FPTN="G$USER(0:0)",STCLASS="BASED(G$USRT$)");
     1637     4813        %G$USER (FPTN=G$U,STCLASS="BASED(U$)");
     1638     4824        %G$ASDT;
     1639     4853        %G$UHJIT (STCLASS="BASED(G$WINDOW1$)");
     1640     7827        %G$MHJIT (STCLASS="BASED(G$MHJIT$)");
     1641    14701        %G$HHJIT;
     1642    16845        %G$ROS   (STCLASS="BASED(G$WINDOW1$)",FULL=YES);
     1643    17796        %G$ROS   (FPTN=ROS,STCLASS="BASED(G$ROS$)",FULL=YES);
     1644    18747        %G$EXCFR;
     1645    19129        %G$STACK_HDR (FPTN=HDR,STCLASS=BASED);
PL6.E3A0      #007=GHS$ADDUSR File=GHS$SCHD.:E05TSI                              TUE 07/29/97 21:44 Page:274
     1646    19145        %GATE (FPTN=G_SCHDGATE,STCLASS=SYMREF);
     1647    19164        %K#ENTID_E;
     1648    19183        %PS_LCP6STT (STCLASS=SYMREF);
     1649    19687        %G$JIT_E;
     1650    19749
     1651    19750    1   DCL BASE_PRIO UBIN CONSTANT INIT(1);
     1652    19751
     1653    19752    1   DCL INT# UBIN;
     1654    19753    1   DCL MODE UBIN;
     1655    19754    1   DCL ROSPP UBIN;
     1656    19755    1   DCL USER UBIN;
     1657    19756    1   DCL ERRCODE UBIN;
     1658    19757    1   DCL SIZE UBIN WORD;
     1659    19758    1   DCL INIT_SZ UBIN WORD;
     1660    19759    1   DCL PAGE UBIN WORD;
     1661    19760
     1662    19761    1   DCL G$WINDOW1$ PTR SYMREF;
     1663    19762    1   DCL G$MHJIT$ PTR SYMREF;
     1664    19763    1   DCL G$UHJIT$ PTR SYMREF;
     1665    19764    1   DCL G$ROS$ PTR SYMREF;
     1666    19765    1   DCL G$USRT$ PTR SYMREF;
     1667    19766    1   DCL G$BPAR1$ PTR SYMREF;
     1668    19767    1   DCL G_CUR_USRS(0:0) UBIN SYMREF;
     1669    19768    1   DCL G_MAX_USRS(0:0) UBIN SYMREF;
     1670    19769    1   DCL GH_HQ(0:0) UBIN SYMREF;
     1671    19770    1   DCL GM_ASHUF UBIN(16) SYMREF;
     1672    19771    1   DCL GM_HSHUF UBIN(16) SYMREF;
     1673    19772    1   DCL GM_TSTKU_PGSZ UBIN SYMREF;
     1674    19773    1   DCL G$TSTACK$ PTR SYMREF;
     1675    19774
     1676    19775    1   DCL GHH$SETASDT_ASD ENTRY(3);
     1677    19776    1   DCL GMA$GETPS ENTRY(2) ALTRET;
     1678    19777    1   DCL GMA$RELPS ENTRY(2) ALTRET;
     1679    19778    1   DCL GMA$PS2USR ENTRY(2) ALTRET;
     1680    19779    1   DCL GHS$CHSE ENTRY(1) ALTRET;
     1681    19780    1   DCL X6A_MAUTO ENTRY(3) ;
     1682    19781
PL6.E3A0      #007=GHS$ADDUSR File=GHS$SCHD.:E05TSI                              TUE 07/29/97 21:44 Page:275
     1683    19782    1   DCL UHJITPP UBIN;
     1684    19783    1   DCL TSTKPP UBIN;
     1685    19784    1   DCL USR# UBIN;
     1686    19785    1   DCL S$ PTR;
     1687    19786    1   DCL U$ PTR;
     1688    19787    1   DCL I UBIN;
     1689    19788
     1690    19789        %EJECT;
PL6.E3A0      #007=GHS$ADDUSR File=GHS$SCHD.:E05TSI                              TUE 07/29/97 21:44 Page:276
     1691    19790    1           IF G_CUR_USRS(MODE) < G_MAX_USRS(MODE) THEN

  19790   2 000005  ECC7 0006                            LDB,B6   @MODE,AUTO
          2 000007  B806                                 LDR,R3   ,B6
          2 000008  E830 0000 0000  xsym                 LDR,R6   G_CUR_USRS,R3
          2 00000B  E930 0000 0000  xsym                 CMR,R6   G_MAX_USRS,R3
          2 00000E  0281 0055                            BGE      s:19806,PREL

     1692    19791    1              IF GH_HQ(%GH_NULL) ~= 0 AND G_CUR_USRS(0) < G_MAX_USRS(0) THEN

  19791   2 000010  D800 0000 001F  xsym                 LDR,R5   GH_HQ+31
          2 000013  5901 0049                            BEZ,R5   s:19805,PREL
          2 000015  C800 0000 0000  xsym                 LDR,R4   G_CUR_USRS
          2 000018  C900 0000 0000  xsym                 CMR,R4   G_MAX_USRS
          2 00001B  0281 0041                            BGE      s:19805,PREL

     1693    19792    2              DO;

     1694    19793    2                 CALL GETSYSID (I) ALTRET(NO_SYSID);

  19793   2 00001D  DBC7 0018                            LAB,B5   I,AUTO
          2 00001F  DFC7 001C                            STB,B5   I+4,AUTO
          2 000021  E3C0 02BC                            LNJ,B6   s:0,PREL
          2 000023       0049                            DC       s:19809,PREL

     1695    19794    2                 CALL GETUSR;

  19794   2 000024  E3C0 025C                            LNJ,B6   s:0,PREL
          2 000026       0001                            DC       s:19795,PREL

     1696    19795    2                 CALL GETSEGS ALTRET(NO_SEGS);

  19795   2 000027  E3C0 004C                            LNJ,B6   s:0,PREL
          2 000029       0048                            DC       s:19810,PREL

     1697    19796    2                 G_CUR_USRS(MODE) = G_CUR_USRS(MODE) + 1;

PL6.E3A0      #007=GHS$ADDUSR File=GHS$SCHD.:E05TSI                              TUE 07/29/97 21:44 Page:277
  19796   2 00002A  ECC7 0006                            LDB,B6   @MODE,AUTO
          2 00002C  B806                                 LDR,R3   ,B6
          2 00002D  8AB0 0000 0000  xsym                 INC      G_CUR_USRS,R3

     1698    19797    2                 G_CUR_USRS(0) = G_CUR_USRS(0) + 1;

  19797   2 000030  8A80 0000 0000  xsym                 INC      G_CUR_USRS

     1699    19798    2                 IF G_CUR_USRS(0) > PS_LCP6STT.PEAK_USERS

  19798   2 000033  F800 0000 0000  xsym                 LDR,R7   G_CUR_USRS
          2 000036  6C00                                 LDV,R6   0
          2 000037  8480 0000 007E  xsym                 SID      PS_LCP6STT+126
          2 00003A  0681 000C                            BCF      s:19800,PREL
          2 00003C  6981 0003                            BNEZ,R6  s:19799,PREL
          2 00003E  7901 0008                            BEZ,R7   s:19800,PREL

     1700    19799    2                 THEN PS_LCP6STT.PEAK_USERS = G_CUR_USRS(0);

  19799   2 000040  F800 0000 0000  xsym                 LDR,R7   G_CUR_USRS
          2 000043  6C00                                 LDV,R6   0
          2 000044  8D00 0000 007E  xsym                 SDI      PS_LCP6STT+126

     1701    19800    2                 USER = USR#;

  19800   2 000047  DCC7 0008                            LDB,B5   @USER,AUTO
          2 000049  E847 0013                            LDR,R6   USR#,AUTO
          2 00004B  EF05                                 STR,R6   ,B5

     1702    19801    2                 CALL GHS$CHSE (USR#);

  19801   2 00004C  CBC7 0013                            LAB,B4   USR#,AUTO
          2 00004E  CFC7 001E                            STB,B4   @ID+2,AUTO
          2 000050  BBC7 001E                            LAB,B3   @ID+2,AUTO
          2 000052  CBF0 0100                            LAB,B4   256,IMO
          2 000054  E380 0000 0000  xent                 LNJ,B6   GHS$CHSE
          2 000057       0001                            DC       s:19803,PREL
PL6.E3A0      #007=GHS$ADDUSR File=GHS$SCHD.:E05TSI                              TUE 07/29/97 21:44 Page:278

     1703    19802
     1704    19803    2                 ERRCODE=0;

  19803   2 000058  ECC7 000C                            LDB,B6   @ERRCODE,AUTO
          2 00005A  8706                                 CL       ,B6

     1705    19804    2                 END;

  19804   2 00005B  0F81 000D                            B        s:19807,PREL

     1706    19805    1              ELSE ERRCODE = %E$NUSR;

  19805   2 00005D  DCC7 000C                            LDB,B5   @ERRCODE,AUTO
          2 00005F  C870 04B3                            LDR,R4   1203,IMO
          2 000061  CF05                                 STR,R4   ,B5
          2 000062  0F81 0006                            B        s:19807,PREL

     1707    19806    1           ELSE ERRCODE = %E$NOOL;

  19806   2 000064  DCC7 000C                            LDB,B5   @ERRCODE,AUTO
          2 000066  D870 04B4                            LDR,R5   1204,IMO
          2 000068  DF05                                 STR,R5   ,B5

     1708    19807    1           RETURN;

  19807   2 000069  C380 0000 0000  xent                 LNJ,B4   X6A_ARET

     1709    19808
     1710    19809    1   NO_SYSID: ERRCODE=%E$NOSYD;

  19809   2 00006C  ECC7 000C            NO_SYSID        LDB,B6   @ERRCODE,AUTO
          2 00006E  E870 04B5                            LDR,R6   1205,IMO
          2 000070  EF06                                 STR,R6   ,B6

     1711    19810    1   NO_SEGS: RETURN;

PL6.E3A0      #007=GHS$ADDUSR File=GHS$SCHD.:E05TSI                              TUE 07/29/97 21:44 Page:279
  19810   2 000071  C380 0000 0000  xent NO_SEGS         LNJ,B4   X6A_ARET

     1712    19811
     1713    19812        /*E* ERROR: GHS-E$NUSR-E
     1714    19813             MESSAGE: The FEP is currently running the maximum users allowed.
     1715    19814        */
     1716    19815
     1717    19816        /*E* ERROR: GHS-E$NOOL-E
     1718    19817             MESSAGE: The maximum number of users for that mode are already running.
     1719    19818        */
     1720    19819
     1721    19820        /*E* ERROR: GHS-E$NOSYD-E
     1722    19821             MESSAGE: Can't start FEP user - no SYSID available
     1723    19822        */
     1724    19823        %EJECT;
PL6.E3A0      #007=GHS$ADDUSR File=GHS$SCHD.:E05TSI                              TUE 07/29/97 21:44 Page:280
     1725    19824    1   GETSEGS: PROC ALTRET;

  19824   2 000074  EFC7 001A            GETSEGS         STB,B6   I+2,AUTO

     1726    19825
     1727    19826    2   DCL ASDT(0:30) UBIN(32) BASED;
     1728    19827
     1729    19828        /*If a memory shuffle is necessary, force it now before we get the
     1730    19829          initial pages by allocating the pages as a chunk and then releasing
     1731    19830          them.  They may then be re-allocated as the three individual
     1732    19831          segments.
     1733    19832        */
     1734    19833    2           INIT_SZ = (SIZEW(G$UHJIT)+255)/256

  19833   2 000076  E800 0000 0000  xsym                 LDR,R6   GM_TSTKU_PGSZ
          2 000079  6E05                                 ADV,R6   5
          2 00007A  EF47 000F                            STR,R6   INIT_SZ,AUTO

     1735    19834    2             + (SIZEW(G$ROS)+255)/256
     1736    19835    2             + GM_TSTKU_PGSZ;
     1737    19836    2           CALL GMA$GETPS (UHJITPP, INIT_SZ) ALTRET(GUHY);

  19836   2 00007C  DBC7 000F                            LAB,B5   INIT_SZ,AUTO
          2 00007E  DFC7 0020                            STB,B5   @ID+4,AUTO
          2 000080  CBC7 0011                            LAB,B4   UHJITPP,AUTO
          2 000082  CFC7 001E                            STB,B4   @ID+2,AUTO
          2 000084  BBC7 001E                            LAB,B3   @ID+2,AUTO
          2 000086  CBF0 0200                            LAB,B4   512,IMO
          2 000088  E380 0000 0000  xent                 LNJ,B6   GMA$GETPS
          2 00008B       01C4                            DC       s:19913,PREL

     1738    19837    2           CALL GMA$RELPS (UHJITPP, INIT_SZ);

  19837   2 00008C  EBC7 000F                            LAB,B6   INIT_SZ,AUTO
          2 00008E  EFC7 0020                            STB,B6   @ID+4,AUTO
          2 000090  DBC7 0011                            LAB,B5   UHJITPP,AUTO
          2 000092  DFC7 001E                            STB,B5   @ID+2,AUTO
PL6.E3A0      #007=GHS$ADDUSR File=GHS$SCHD.:E05TSI                              TUE 07/29/97 21:44 Page:281
          2 000094  BBC7 001E                            LAB,B3   @ID+2,AUTO
          2 000096  CBF0 0200                            LAB,B4   512,IMO
          2 000098  E380 0000 0000  xent                 LNJ,B6   GMA$RELPS
          2 00009B       0001                            DC       s:19839,PREL

     1739    19838
     1740    19839    2           INIT_SZ = 0;

  19839   2 00009C  8747 000F                            CL       INIT_SZ,AUTO

     1741    19840    2           CALL GMA$GETPS (UHJITPP,(SIZEW(G$UHJIT)+255)/256) ALTRET(GUHX);

  19840   2 00009E  EBF0 0002                            LAB,B6   2,IMO
          2 0000A0  EFC7 0020                            STB,B6   @ID+4,AUTO
          2 0000A2  DBC7 0011                            LAB,B5   UHJITPP,AUTO
          2 0000A4  DFC7 001E                            STB,B5   @ID+2,AUTO
          2 0000A6  BBC7 001E                            LAB,B3   @ID+2,AUTO
          2 0000A8  CBF0 0200                            LAB,B4   512,IMO
          2 0000AA  E380 0000 0000  xent                 LNJ,B6   GMA$GETPS
          2 0000AD       0192                            DC       s:19903,PREL

     1742    19841    2           INIT_SZ = (SIZEW(G$UHJIT)+255)/256;

  19841   2 0000AE  6C02                                 LDV,R6   2
          2 0000AF  EF47 000F                            STR,R6   INIT_SZ,AUTO

     1743    19842    2           CALL GMA$GETPS (TSTKPP, GM_TSTKU_PGSZ) ALTRET(NOSTK);

  19842   2 0000B1  EB80 0000 0000  xsym                 LAB,B6   GM_TSTKU_PGSZ
          2 0000B4  EFC7 0020                            STB,B6   @ID+4,AUTO
          2 0000B6  DBC7 0012                            LAB,B5   TSTKPP,AUTO
          2 0000B8  DFC7 001E                            STB,B5   @ID+2,AUTO
          2 0000BA  BBC7 001E                            LAB,B3   @ID+2,AUTO
          2 0000BC  CBF0 0200                            LAB,B4   512,IMO
          2 0000BE  E380 0000 0000  xent                 LNJ,B6   GMA$GETPS
          2 0000C1       016E                            DC       s:19903,PREL

PL6.E3A0      #007=GHS$ADDUSR File=GHS$SCHD.:E05TSI                              TUE 07/29/97 21:44 Page:282
     1744    19843    2           INIT_SZ = INIT_SZ + GM_TSTKU_PGSZ;

  19843   2 0000C2  E847 000F                            LDR,R6   INIT_SZ,AUTO
          2 0000C4  EA00 0000 0000  xsym                 ADD,R6   GM_TSTKU_PGSZ
          2 0000C7  EF47 000F                            STR,R6   INIT_SZ,AUTO

     1745    19844    2           CALL GMA$GETPS (ROSPP,(SIZEW(G$ROS)+255)/256) ALTRET(GROX);

  19844   2 0000C9  EBF0 0003                            LAB,B6   3,IMO
          2 0000CB  EFC7 0020                            STB,B6   @ID+4,AUTO
          2 0000CD  DCC7 000A                            LDB,B5   @ROSPP,AUTO
          2 0000CF  DFC7 001E                            STB,B5   @ID+2,AUTO
          2 0000D1  BBC7 001E                            LAB,B3   @ID+2,AUTO
          2 0000D3  CBF0 0200                            LAB,B4   512,IMO
          2 0000D5  E380 0000 0000  xent                 LNJ,B6   GMA$GETPS
          2 0000D8       0146                            DC       s:19902,PREL

     1746    19845    2           INIT_SZ = INIT_SZ + (SIZEW(G$ROS)+255)/256;

  19845   2 0000D9  E847 000F                            LDR,R6   INIT_SZ,AUTO
          2 0000DB  6E03                                 ADV,R6   3
          2 0000DC  EF47 000F                            STR,R6   INIT_SZ,AUTO

     1747    19846
     1748    19847        /*GMA decremented ASHUF because we are running on behalf of the NODEADMN handler.
     1749    19848        */
     1750    19849    2           IF (MODE ~= %G_M_HANDLER#) AND (MODE ~= 0)

  19849   2 0000DE  ECC7 0006                            LDB,B6   @MODE,AUTO
          2 0000E0  D806                                 LDR,R5   ,B6
          2 0000E1  5D03                                 CMV,R5   3
          2 0000E2  0901 0011                            BE       s:19855,PREL
          2 0000E4  5901 000F                            BEZ,R5   s:19855,PREL

     1751    19850    3           THEN DO;

     1752    19851    3              GM_ASHUF = GM_ASHUF + INIT_SZ;
PL6.E3A0      #007=GHS$ADDUSR File=GHS$SCHD.:E05TSI                              TUE 07/29/97 21:44 Page:283

  19851   2 0000E6  EA00 0000 0000  xsym                 ADD,R6   GM_ASHUF
          2 0000E9  EF00 0000 0000  xsym                 STR,R6   GM_ASHUF

     1753    19852    3              GM_HSHUF = GM_HSHUF - INIT_SZ;

  19852   2 0000EC  D800 0000 0000  xsym                 LDR,R5   GM_HSHUF
          2 0000EF  D247 000F                            SUB,R5   INIT_SZ,AUTO
          2 0000F1  DF00 0000 0000  xsym                 STR,R5   GM_HSHUF

     1754    19853    3              END;

     1755    19854
     1756    19855    2           G$U.UHJITPP = UHJITPP;          /* UHJIT address                      */

  19855   2 0000F4  F847 0011                            LDR,R7   UHJITPP,AUTO
          2 0000F6  6C00                                 LDV,R6   0
          2 0000F7  DCC7 0016                            LDB,B5   U$,AUTO
          2 0000F9  8D45 0011                            SDI      17,B5

     1757    19856
     1758    19857        /*  Map UHJIT segment into window                                */
     1759    19858
     1760    19859    2           PAGE = G$MHJIT.ASDT_BIGFOOT.UMHJIT.BASE;

  19859   2 0000FB  CC80 0000 0000  xsym                 LDB,B4   G$MHJIT$
          2 0000FE  D844 0048                            LDR,R5   72,B4
          2 000100  D570 7FFF                            AND,R5   32767,IMO
          2 000102  DF47 0010                            STR,R5   PAGE,AUTO

     1761    19860    2           SIZE = (SIZEW(G$UHJIT)-1)/256;

  19860   2 000104  4C01                                 LDV,R4   1
          2 000105  CF47 000E                            STR,R4   SIZE,AUTO

     1762    19861    2           CALL GHH$SETASDT_ASD(G$WINDOW1$,UHJITPP,SIZE);

PL6.E3A0      #007=GHS$ADDUSR File=GHS$SCHD.:E05TSI                              TUE 07/29/97 21:44 Page:284
  19861   2 000107  BBC7 000E                            LAB,B3   SIZE,AUTO
          2 000109  BFC7 0022                            STB,B3   @ID+6,AUTO
          2 00010B  ABC7 0011                            LAB,B2   UHJITPP,AUTO
          2 00010D  AFC7 0020                            STB,B2   @ID+4,AUTO
          2 00010F  9B80 0000 0000  xsym                 LAB,B1   G$WINDOW1$
          2 000112  9FC7 001E                            STB,B1   @ID+2,AUTO
          2 000114  BBC7 001E                            LAB,B3   @ID+2,AUTO
          2 000116  CBF0 0300                            LAB,B4   768,IMO
          2 000118  E380 0000 0000  xent                 LNJ,B6   GHH$SETASDT_ASD
          2 00011B       0001                            DC       s:19862,PREL

     1763    19862    2           CALL GHH$SETASDT_ASD(G$BPAR1$,PAGE,SIZE);

  19862   2 00011C  EBC7 000E                            LAB,B6   SIZE,AUTO
          2 00011E  EFC7 0022                            STB,B6   @ID+6,AUTO
          2 000120  DBC7 0010                            LAB,B5   PAGE,AUTO
          2 000122  DFC7 0020                            STB,B5   @ID+4,AUTO
          2 000124  CB80 0000 0000  xsym                 LAB,B4   G$BPAR1$
          2 000127  CFC7 001E                            STB,B4   @ID+2,AUTO
          2 000129  BBC7 001E                            LAB,B3   @ID+2,AUTO
          2 00012B  CBF0 0300                            LAB,B4   768,IMO
          2 00012D  E380 0000 0000  xent                 LNJ,B6   GHH$SETASDT_ASD
          2 000130       0001                            DC       s:19863,PREL

     1764    19863    2           G$WINDOW1$->G$UHJIT = G$BPAR1$->G$UHJIT;

  19863   2 000131  AC80 0000 0000  xsym                 LDB,B2   G$BPAR1$
          2 000134  2C00                                 LDV,R2   0
          2 000135  E870 032A                            LDR,R6   810,IMO
          2 000137  BC80 0000 0000  xsym                 LDB,B3   G$WINDOW1$
          2 00013A  3C00                                 LDV,R3   0
          2 00013B  0008                                 MMM

     1765    19864
     1766    19865        /*  Initialize MMU images                                        */
     1767    19866
     1768    19867    2           G$UHJIT.ASDT_USR.UHJIT.BASE = UHJITPP;
PL6.E3A0      #007=GHS$ADDUSR File=GHS$SCHD.:E05TSI                              TUE 07/29/97 21:44 Page:285

  19867   2 00013C  E847 0011                            LDR,R6   UHJITPP,AUTO
          2 00013E  EC80 0000 0000  xsym                 LDB,B6   G$WINDOW1$
          2 000141  EAC6 000A                            SRM,R6,'7FFF'X    10,B6
          2 000143       7FFF

     1769    19868    2           G$UHJIT.ASDT_MCL.UHJIT = G$UHJIT.ASDT_USR.UHJIT;

  19868   2 000144  8CC6 000A                            LDI      10,B6
          2 000146  8D46 0048                            SDI      72,B6

     1770    19869    2           G$UHJIT.ASDT_MCL.TSTACKU.BASE = TSTKPP;

  19869   2 000148  D847 0012                            LDR,R5   TSTKPP,AUTO
          2 00014A  DAC6 0046                            SRM,R5,'7FFF'X    70,B6
          2 00014C       7FFF

     1771    19870    2           G$UHJIT.ASDT_MCL.TSTACKU.SIZE = GM_TSTKU_PGSZ -1;

  19870   2 00014D  C800 0000 0000  xsym                 LDR,R4   GM_TSTKU_PGSZ
          2 000150  4EFF                                 ADV,R4   -1
          2 000151  CAC6 0047                            SRM,R4,'01FF'X    71,B6
          2 000153       01FF

     1772    19871    2           G$UHJIT.ASDT_USR.TSTACKU = G$UHJIT.ASDT_MCL.TSTACKU;

  19871   2 000154  8CC6 0046                            LDI      70,B6
          2 000156  8D46 0008                            SDI      8,B6

     1773    19872    2           G$UHJIT.ASDT_USR.ROS.BASE = ROSPP;

  19872   2 000158  DCC7 000A                            LDB,B5   @ROSPP,AUTO
          2 00015A  D805                                 LDR,R5   ,B5
          2 00015B  DAC6 0002                            SRM,R5,'7FFF'X    2,B6
          2 00015D       7FFF

     1774    19873    2           G$UHJIT.ASDT_USR.ROS.SIZE = (SIZEW(G$ROS)-1)/256;
PL6.E3A0      #007=GHS$ADDUSR File=GHS$SCHD.:E05TSI                              TUE 07/29/97 21:44 Page:286

  19873   2 00015E  5C02                                 LDV,R5   2
          2 00015F  DAC6 0003                            SRM,R5,'01FF'X    3,B6
          2 000161       01FF

     1775    19874    2           G$UHJIT.ASDT_USR.ROS.RP = %G_R_USR#;

  19874   2 000162  8846 0003                            LBF,'C000'X       3,B6
  19874   2 000164       C000

     1776    19875    2           G$UHJIT.ASDT_MCL.ROS = G$UHJIT.ASDT_USR.ROS;

  19875   2 000165  8CC6 0002                            LDI      2,B6
          2 000167  8D46 0040                            SDI      64,B6

     1777    19876
     1778    19877
     1779    19878    2           PAGE = G$MHJIT.ASDT_BIGFOOT.ROS.BASE;

  19878   2 000169  CC80 0000 0000  xsym                 LDB,B4   G$MHJIT$
          2 00016C  B844 0040                            LDR,R3   64,B4
          2 00016E  B570 7FFF                            AND,R3   32767,IMO
          2 000170  BF47 0010                            STR,R3   PAGE,AUTO

     1780    19879    2           SIZE = (SIZEW(G$ROS)-1)/256;

  19879   2 000172  DF47 000E                            STR,R5   SIZE,AUTO

     1781    19880    2           CALL GHH$SETASDT_ASD(G$WINDOW1$,ROSPP,SIZE);

  19880   2 000174  BBC7 000E                            LAB,B3   SIZE,AUTO
          2 000176  BFC7 0022                            STB,B3   @ID+6,AUTO
          2 000178  DFC7 0020                            STB,B5   @ID+4,AUTO
          2 00017A  AB80 0000 0000  xsym                 LAB,B2   G$WINDOW1$
          2 00017D  AFC7 001E                            STB,B2   @ID+2,AUTO
          2 00017F  BBC7 001E                            LAB,B3   @ID+2,AUTO
          2 000181  CBF0 0300                            LAB,B4   768,IMO
PL6.E3A0      #007=GHS$ADDUSR File=GHS$SCHD.:E05TSI                              TUE 07/29/97 21:44 Page:287
          2 000183  E380 0000 0000  xent                 LNJ,B6   GHH$SETASDT_ASD
          2 000186       0001                            DC       s:19881,PREL

     1782    19881    2           CALL GHH$SETASDT_ASD(G$BPAR1$,PAGE,SIZE);

  19881   2 000187  EBC7 000E                            LAB,B6   SIZE,AUTO
          2 000189  EFC7 0022                            STB,B6   @ID+6,AUTO
          2 00018B  DBC7 0010                            LAB,B5   PAGE,AUTO
          2 00018D  DFC7 0020                            STB,B5   @ID+4,AUTO
          2 00018F  CB80 0000 0000  xsym                 LAB,B4   G$BPAR1$
          2 000192  CFC7 001E                            STB,B4   @ID+2,AUTO
          2 000194  BBC7 001E                            LAB,B3   @ID+2,AUTO
          2 000196  CBF0 0300                            LAB,B4   768,IMO
          2 000198  E380 0000 0000  xent                 LNJ,B6   GHH$SETASDT_ASD
          2 00019B       0001                            DC       s:19882,PREL

     1783    19882    2           G$WINDOW1$->G$ROS = G$BPAR1$->G$ROS;

  19882   2 00019C  AC80 0000 0000  xsym                 LDB,B2   G$BPAR1$
          2 00019F  2C00                                 LDV,R2   0
          2 0001A0  E870 05DC                            LDR,R6   1500,IMO
          2 0001A2  BC80 0000 0000  xsym                 LDB,B3   G$WINDOW1$
          2 0001A5  3C00                                 LDV,R3   0
          2 0001A6  0008                                 MMM

     1784    19883
     1785    19884    2           G$ROS.JIT.USR# = USR#;

  19884   2 0001A7  E847 0013                            LDR,R6   USR#,AUTO
          2 0001A9  EC80 0000 0000  xsym                 LDB,B6   G$WINDOW1$
          2 0001AC  EAC6 003E                            SRM,R6,'00FF'X    62,B6
          2 0001AE       00FF

     1786    19885    2           G$ROS.JIT.SYSID = I;

  19885   2 0001AF  D847 0018                            LDR,R5   I,AUTO
          2 0001B1  DF46 003F                            STR,R5   63,B6
PL6.E3A0      #007=GHS$ADDUSR File=GHS$SCHD.:E05TSI                              TUE 07/29/97 21:44 Page:288

     1787    19886
     1788    19887
     1789    19888    2           SIZE = GM_TSTKU_PGSZ -1;

  19888   2 0001B3  C800 0000 0000  xsym                 LDR,R4   GM_TSTKU_PGSZ
          2 0001B6  4EFF                                 ADV,R4   -1
          2 0001B7  CF47 000E                            STR,R4   SIZE,AUTO

     1790    19889    2           CALL GHH$SETASDT_ASD(G$WINDOW1$,TSTKPP,SIZE);

  19889   2 0001B9  DBC7 000E                            LAB,B5   SIZE,AUTO
          2 0001BB  DFC7 0022                            STB,B5   @ID+6,AUTO
          2 0001BD  CBC7 0012                            LAB,B4   TSTKPP,AUTO
          2 0001BF  CFC7 0020                            STB,B4   @ID+4,AUTO
          2 0001C1  BB80 0000 0000  xsym                 LAB,B3   G$WINDOW1$
          2 0001C4  BFC7 001E                            STB,B3   @ID+2,AUTO
          2 0001C6  BBC7 001E                            LAB,B3   @ID+2,AUTO
          2 0001C8  CBF0 0300                            LAB,B4   768,IMO
          2 0001CA  E380 0000 0000  xent                 LNJ,B6   GHH$SETASDT_ASD
          2 0001CD       0001                            DC       s:19890,PREL

     1791    19890    2           SIZE = GM_TSTKU_PGSZ * 256;

  19890   2 0001CE  E800 0000 0000  xsym                 LDR,R6   GM_TSTKU_PGSZ
          2 0001D1  6008                                 SOL,R6   8
          2 0001D2  EF47 000E                            STR,R6   SIZE,AUTO

     1792    19891    2           CALL X6A_MAUTO (G$WINDOW1$ , SIZE, G$TSTACK$);

  19891   2 0001D4  EB80 0000 0000  xsym                 LAB,B6   G$TSTACK$
          2 0001D7  EFC7 0022                            STB,B6   @ID+6,AUTO
          2 0001D9  DBC7 000E                            LAB,B5   SIZE,AUTO
          2 0001DB  DFC7 0020                            STB,B5   @ID+4,AUTO
          2 0001DD  CB80 0000 0000  xsym                 LAB,B4   G$WINDOW1$
          2 0001E0  CFC7 001E                            STB,B4   @ID+2,AUTO
          2 0001E2  BBC7 001E                            LAB,B3   @ID+2,AUTO
PL6.E3A0      #007=GHS$ADDUSR File=GHS$SCHD.:E05TSI                              TUE 07/29/97 21:44 Page:289
          2 0001E4  CBF0 0300                            LAB,B4   768,IMO
          2 0001E6  E380 0000 0000  xent                 LNJ,B6   X6A_MAUTO
          2 0001E9       0001                            DC       s:19896,PREL

     1793    19892
     1794    19893        /*   Let MM know that these segments belong to the user   */
     1795    19894
     1796    19895
     1797    19896    2           CALL GMA$PS2USR (UHJITPP,USR#);

  19896   2 0001EA  EBC7 0013                            LAB,B6   USR#,AUTO
          2 0001EC  EFC7 0020                            STB,B6   @ID+4,AUTO
          2 0001EE  DBC7 0011                            LAB,B5   UHJITPP,AUTO
          2 0001F0  DFC7 001E                            STB,B5   @ID+2,AUTO
          2 0001F2  BBC7 001E                            LAB,B3   @ID+2,AUTO
          2 0001F4  CBF0 0200                            LAB,B4   512,IMO
          2 0001F6  E380 0000 0000  xent                 LNJ,B6   GMA$PS2USR
          2 0001F9       0001                            DC       s:19897,PREL

     1798    19897    2           CALL GMA$PS2USR (ROSPP,USR#);

  19897   2 0001FA  EBC7 0013                            LAB,B6   USR#,AUTO
          2 0001FC  EFC7 0020                            STB,B6   @ID+4,AUTO
          2 0001FE  DCC7 000A                            LDB,B5   @ROSPP,AUTO
          2 000200  DFC7 001E                            STB,B5   @ID+2,AUTO
          2 000202  BBC7 001E                            LAB,B3   @ID+2,AUTO
          2 000204  CBF0 0200                            LAB,B4   512,IMO
          2 000206  E380 0000 0000  xent                 LNJ,B6   GMA$PS2USR
          2 000209       0001                            DC       s:19898,PREL

     1799    19898    2           CALL GMA$PS2USR (TSTKPP,USR#);

  19898   2 00020A  EBC7 0013                            LAB,B6   USR#,AUTO
          2 00020C  EFC7 0020                            STB,B6   @ID+4,AUTO
          2 00020E  DBC7 0012                            LAB,B5   TSTKPP,AUTO
          2 000210  DFC7 001E                            STB,B5   @ID+2,AUTO
          2 000212  BBC7 001E                            LAB,B3   @ID+2,AUTO
PL6.E3A0      #007=GHS$ADDUSR File=GHS$SCHD.:E05TSI                              TUE 07/29/97 21:44 Page:290
          2 000214  CBF0 0200                            LAB,B4   512,IMO
          2 000216  E380 0000 0000  xent                 LNJ,B6   GMA$PS2USR
          2 000219       0001                            DC       s:19899,PREL

     1800    19899    2           RETURN;

  19899   2 00021A  ECC7 001A                            LDB,B6   I+2,AUTO
          2 00021C  C3C6 0001                            LNJ,B4   1,B6

     1801    19900
     1802    19901
     1803    19902    2   GROX:   CALL GMA$RELPS (TSTKPP, GM_TSTKU_PGSZ);

  19902   2 00021E  EB80 0000 0000  xsym GROX            LAB,B6   GM_TSTKU_PGSZ
          2 000221  EFC7 0020                            STB,B6   @ID+4,AUTO
          2 000223  DBC7 0012                            LAB,B5   TSTKPP,AUTO
          2 000225  DFC7 001E                            STB,B5   @ID+2,AUTO
          2 000227  BBC7 001E                            LAB,B3   @ID+2,AUTO
          2 000229  CBF0 0200                            LAB,B4   512,IMO
          2 00022B  E380 0000 0000  xent                 LNJ,B6   GMA$RELPS
          2 00022E       0001                            DC       s:19903,PREL

     1804    19903    2   NOSTK:  CALL GMA$RELPS (UHJITPP,(SIZEW(G$UHJIT)+255)/256);

  19903   2 00022F  EBF0 0002            NOSTK           LAB,B6   2,IMO
          2 000231  EFC7 0020                            STB,B6   @ID+4,AUTO
          2 000233  DBC7 0011                            LAB,B5   UHJITPP,AUTO
          2 000235  DFC7 001E                            STB,B5   @ID+2,AUTO
          2 000237  BBC7 001E                            LAB,B3   @ID+2,AUTO
          2 000239  CBF0 0200                            LAB,B4   512,IMO
          2 00023B  E380 0000 0000  xent                 LNJ,B6   GMA$RELPS
          2 00023E       0001                            DC       s:19903,PREL

  19903   2                              GUHX            null
     1805    19904    2   GUHX:   ;
     1806    19905    2           GM_ASHUF = GM_ASHUF + INIT_SZ;

PL6.E3A0      #007=GHS$ADDUSR File=GHS$SCHD.:E05TSI                              TUE 07/29/97 21:44 Page:291
  19905   2 00023F  E800 0000 0000  xsym GUHX            LDR,R6   GM_ASHUF
          2 000242  EA47 000F                            ADD,R6   INIT_SZ,AUTO
          2 000244  EF00 0000 0000  xsym                 STR,R6   GM_ASHUF

     1807    19906    2           GM_HSHUF = GM_HSHUF - INIT_SZ;

  19906   2 000247  D800 0000 0000  xsym                 LDR,R5   GM_HSHUF
          2 00024A  D247 000F                            SUB,R5   INIT_SZ,AUTO
          2 00024C  DF00 0000 0000  xsym                 STR,R5   GM_HSHUF

     1808    19907    2   GUHY:
     1809    19908                %LOCK (G=G_SCHDGATE);

  19913   2 00024F  BB80 0000 0000  03   GUHY            LAB,B3   0
          2 000252  CBF0 0100                            LAB,B4   256,IMO
          2 000254  E380 0000 0000  xent                 LNJ,B6   GHH$LOCK
          2 000257       0001                            DC       s:19916,PREL

     1810    19915
     1811    19916    2           G$U.FL = GH_HQ(%GH_NULL);

  19916   2 000258  ECC7 0016                            LDB,B6   U$,AUTO
          2 00025A  E800 0000 001F  xsym                 LDR,R6   GH_HQ+31
          2 00025D  EF46 0003                            STR,R6   3,B6

     1812    19917    2           G$USER.BL(GH_HQ(%GH_NULL)) = USR#;

  19917   2 00025F  DC80 0000 0000  xsym                 LDB,B5   G$USRT$
          2 000262  B800 0000 001F  xsym                 LDR,R3   GH_HQ+31
          2 000265  3F18                                 MLV,R3   24
          2 000266  3E04                                 ADV,R3   4
          2 000267  D847 0013                            LDR,R5   USR#,AUTO
          2 000269  DF35                                 STR,R5   ,B5,R3

     1813    19918    2           GH_HQ(%GH_NULL) = USR#;

  19918   2 00026A  E847 0013                            LDR,R6   USR#,AUTO
PL6.E3A0      #007=GHS$ADDUSR File=GHS$SCHD.:E05TSI                              TUE 07/29/97 21:44 Page:292
          2 00026C  EF00 0000 001F  xsym                 STR,R6   GH_HQ+31

     1814    19919
     1815    19920                %UNLOCK (G=G_SCHDGATE);

  19925   2 00026F  BB80 0000 0000  03                   LAB,B3   0
          2 000272  CBF0 0100                            LAB,B4   256,IMO
          2 000274  E380 0000 0000  xent                 LNJ,B6   GHH$UNLOCK
          2 000277       0001                            DC       s:19928,PREL

     1816    19927
     1817    19928    2           ERRCODE=%E$NJIT;

  19928   2 000278  ECC7 000C                            LDB,B6   @ERRCODE,AUTO
          2 00027A  E870 04B6                            LDR,R6   1206,IMO
          2 00027C  EF06                                 STR,R6   ,B6

     1818    19929    2           ALTRETURN;

  19929   2 00027D  ECC7 001A                            LDB,B6   I+2,AUTO
          2 00027F  B806                                 LDR,R3   ,B6
          2 000280  C3B6                                 LNJ,B4   ,B6,R3

     1819    19930    2   END GETSEGS;
     1820    19931
     1821    19932        %EJECT;
PL6.E3A0      #007=GHS$ADDUSR File=GHS$SCHD.:E05TSI                              TUE 07/29/97 21:44 Page:293
     1822    19933    1   GETUSR: PROC;

  19933   2 000281  EFC7 001A            GETUSR          STB,B6   I+2,AUTO

     1823    19934
     1824    19935
     1825    19936                %LOCK (G=G_SCHDGATE);

  19941   2 000283  BB80 0000 0000  03                   LAB,B3   0
          2 000286  CBF0 0100                            LAB,B4   256,IMO
          2 000288  E380 0000 0000  xent                 LNJ,B6   GHH$LOCK
          2 00028B       0001                            DC       s:19944,PREL

     1826    19943
     1827    19944    2           USR#=GH_HQ(%GH_NULL);

  19944   2 00028C  E800 0000 001F  xsym                 LDR,R6   GH_HQ+31
          2 00028F  EF47 0013                            STR,R6   USR#,AUTO

     1828    19945    2           U$=ADDR(G$USER(USR#));

  19945   2 000291  EC80 0000 0000  xsym                 LDB,B6   G$USRT$
          2 000294  B856                                 LDR,R3   R6
          2 000295  3F18                                 MLV,R3   24
          2 000296  DBB6                                 LAB,B5   ,B6,R3
          2 000297  DFC7 0016                            STB,B5   U$,AUTO

     1829    19946    2           GH_HQ(%GH_NULL)=G$U.FL;

  19946   2 000299  E845 0003                            LDR,R6   3,B5
          2 00029B  EF00 0000 001F  xsym                 STR,R6   GH_HQ+31

     1830    19947
     1831    19948                %UNLOCK (G=G_SCHDGATE);

  19953   2 00029E  BB80 0000 0000  03                   LAB,B3   0
          2 0002A1  CBF0 0100                            LAB,B4   256,IMO
PL6.E3A0      #007=GHS$ADDUSR File=GHS$SCHD.:E05TSI                              TUE 07/29/97 21:44 Page:294
          2 0002A3  E380 0000 0000  xent                 LNJ,B6   GHH$UNLOCK
          2 0002A6       0001                            DC       s:19956,PREL

     1832    19955
     1833    19956    2           G$USER.BL(G$U.FL)=0;

  19956   2 0002A7  ECC7 0016                            LDB,B6   U$,AUTO
          2 0002A9  B846 0003                            LDR,R3   3,B6
          2 0002AB  DC80 0000 0000  xsym                 LDB,B5   G$USRT$
          2 0002AE  3F18                                 MLV,R3   24
          2 0002AF  3E04                                 ADV,R3   4
          2 0002B0  8735                                 CL       ,B5,R3

     1834    19957    2           G$U.FLG='0'B;

  19957   2 0002B1  8706                                 CL       ,B6

     1835    19958    2           G$U.ASYNCH='0'B;

  19958   2 0002B2  8746 0001                            CL       1,B6

     1836    19959    2           G$U.MF=0;

  19959   2 0002B4  87C6 000B                            CLH      11,B6

     1837    19960    2           G$U.DL$=ADDR(NIL);

  19960   2 0002B6  DB80 0000 0000                       LAB,B5   0
          2 0002B9  DFC6 000D                            STB,B5   13,B6

     1838    19961    2           G$U.MODE=MODE;

  19961   2 0002BB  CCC7 0006                            LDB,B4   @MODE,AUTO
          2 0002BD  E804                                 LDR,R6   ,B4
          2 0002BE  E7C6 000C                            STH,R6   12,B6

     1839    19962    2           IF MODE = %G_M_HANDLER# THEN
PL6.E3A0      #007=GHS$ADDUSR File=GHS$SCHD.:E05TSI                              TUE 07/29/97 21:44 Page:295

  19962   2 0002C0  E804                                 LDR,R6   ,B4
          2 0002C1  6D03                                 CMV,R6   3
          2 0002C2  0981 0009                            BNE      s:19965,PREL

     1840    19963    2              G$U.PRIOB=BASE_PRIO+3;

  19963   2 0002C4  D800 0000 0000  00                   LDR,R5   BASE_PRIO
          2 0002C7  5E03                                 ADV,R5   3
          2 0002C8  DF46 0010                            STR,R5   16,B6
          2 0002CA  0F81 0006                            B        s:19966,PREL

     1841    19964    2           ELSE
     1842    19965    2              G$U.PRIOB=BASE_PRIO;

  19965   2 0002CC  D800 0000 0000  00                   LDR,R5   BASE_PRIO
          2 0002CF  DF46 0010                            STR,R5   16,B6

     1843    19966    2           G$U.PRIO=BASE_PRIO;

  19966   2 0002D1  E800 0000 0000  00                   LDR,R6   BASE_PRIO
          2 0002D4  EF46 000F                            STR,R6   15,B6

     1844    19967    2           G$U.SYSID=I;

  19967   2 0002D6  C847 0018                            LDR,R4   I,AUTO
          2 0002D8  CF46 0013                            STR,R4   19,B6

     1845    19968    2           RETURN;

  19968   2 0002DA  ECC7 001A                            LDB,B6   I+2,AUTO
          2 0002DC  C3C6 0001                            LNJ,B4   1,B6

     1846    19969    2   END GETUSR;
     1847    19970
     1848    19971
     1849    19972    1   GETSYSID: PROC(ID) ALTRET;
PL6.E3A0      #007=GHS$ADDUSR File=GHS$SCHD.:E05TSI                              TUE 07/29/97 21:44 Page:296

  19972   2 0002DE  EFC7 001A            GETSYSID        STB,B6   I+2,AUTO

     1850    19973
     1851    19974    2   DCL G_SYSID UBIN STATIC SYMDEF INIT(0);
     1852    19975    2   DCL ID UBIN;
     1853    19976
     1854    19977    2           G_SYSID=G_SYSID+1;

  19977   2 0002E0  8A80 0000 0000  01                   INC      G_SYSID

     1855    19978    2           ID=G_SYSID;

  19978   2 0002E3  DCC7 001C                            LDB,B5   @ID,AUTO
          2 0002E5  E800 0000 0000  01                   LDR,R6   G_SYSID
          2 0002E8  EF05                                 STR,R6   ,B5

     1856    19979    2           RETURN;

  19979   2 0002E9  ECC7 001A                            LDB,B6   I+2,AUTO
          2 0002EB  C3C6 0001                            LNJ,B4   1,B6
     1857    19980    2   END GETSYSID;
     1858    19981    1   END;
     1859    19982        %EOD;

PL6.E3A0      #007=GHS$ADDUSR File=GHS$SCHD.:E05TSI                              TUE 07/29/97 21:44 Page:297
--  Include file information  --

   K_ID_E.:E05TOU  is referenced.
   KL_MACRO_C.:E05TOU  is referenced.
   P_FEP_M.:E05TOU  is referenced.
   KL_ERRORS_C.:E05TOU  is referenced.
   G_JIT_M.:E05TOU  is referenced.
   G_ROS_M.:E05TOU  is referenced.
   G_HJIT_M.:E05TOU  is referenced.
   GH_HARDWARE_M.:E05TOU  is referenced.
   GH_GATE_M.:E05TOU  cannot be made into a system file and is referenced.
   GH_SCHD_E.:E05TOU  is referenced.
   GH_SCHD_M.:E05TOU  is referenced.
   G_LCP6_E.:E05TOU  was found in the system file and is referenced.
   GT_LCP6_M.:E05TOU  was found in the system file and is never referenced.
   KI_CP6.:E05TOU  was found in the system file and is never referenced.
   GF_LCP6_M.:E05TOU  was found in the system file and is referenced.
   GM_LCP6_M.:E05TOU  was found in the system file and is never referenced.
   GU_LCP6_M.:E05TOU  was found in the system file and is referenced.
   GJ_LCP6_M.:E05TOU  was found in the system file and is never referenced.
   GH_LCP6_M.:E05TOU  was found in the system file and is referenced.
      No diagnostics issued in procedure GHS$ADDUSR.
PL6.E3A0      #007=GHS$ADDUSR File=GHS$SCHD.:E05TSI                              TUE 07/29/97 21:44 Page:298

 **** Variables and constants ****

  ****  Section 000 RoData GHS$ADDUSR

  ****  Scalars and arrays  ****
HexLoc.c.b A Datatyp(siz) R M Lvl/name                 HexLoc.c.b A Datatyp(siz) R M Lvl/name

     0-0-0/w UBIN(16)    r     1 BASE_PRIO

  ****  Section 001  Data  GHS$ADDUSR

  ****  Scalars and arrays  ****
HexLoc.c.b A Datatyp(siz) R M Lvl/name                 HexLoc.c.b A Datatyp(siz) R M Lvl/name

     0-0-0/w UBIN(16)    r     1 G_SYSID

  ****  Auto variables  ****

  ****  Scalars and arrays  ****
HexLoc.c.b A Datatyp(siz) R M Lvl/name                 HexLoc.c.b A Datatyp(siz) R M Lvl/name

     C-0-0/w PTR         r     1 @ERRCODE                  1C-0-0/w PTR         r     1 @ID
     4-0-0/w PTR         r     1 @INT#                      6-0-0/w PTR         r     1 @MODE
     A-0-0/w PTR         r     1 @ROSPP                     8-0-0/w PTR         r     1 @USER
    *0-0-0/w UBIN(16)    r     1 ERRCODE                   18-0-0/w UBIN(16)    r     1 I
    *0-0-0/w UBIN(16)    r     1 ID                         F-0-0/w UBIN(16)    r     1 INIT_SZ
    *0-0-0/w UBIN(16)    r     1 INT#                      *0-0-0/w UBIN(16)    r     1 MODE
    10-0-0/w UBIN(16)    r     1 PAGE                      *0-0-0/w UBIN(16)    r     1 ROSPP
     E-0-0/w UBIN(16)    r     1 SIZE                      12-0-0/w UBIN(16)    r     1 TSTKPP
    16-0-0/w PTR         r     1 U$                        11-0-0/w UBIN(16)    r     1 UHJITPP
    *0-0-0/w UBIN(16)    r     1 USER                      13-0-0/w UBIN(16)    r     1 USR#

  ****  SYMREF variables  ****

  ****  Scalars and arrays  ****
HexLoc.c.b A Datatyp(siz) R M Lvl/name                 HexLoc.c.b A Datatyp(siz) R M Lvl/name

PL6.E3A0      #007=GHS$ADDUSR File=GHS$SCHD.:E05TSI                              TUE 07/29/97 21:44 Page:299
     0-0-0/w PTR         r     1 G$BPAR1$                   0-0-0/w PTR         r     1 G$MHJIT$
     0-0-0/w PTR         r     1 G$ROS$                     0-0-0/w PTR         r     1 G$TSTACK$
     0-0-0/w PTR         r     1 G$USRT$                    0-0-0/w PTR         r     1 G$WINDOW1$
     0-0-0/w UBIN(16)    r     1 GH_HQ(0:0)                 0-0-0/w UBIN(16)    r     1 GM_ASHUF
     0-0-0/w UBIN(16)    r     1 GM_HSHUF                   0-0-0/w UBIN(16)    r     1 GM_TSTKU_PGSZ
     0-0-0/w UBIN(16)    r     1 G_CUR_USRS(0:0)
     0-0-0/w UBIN(16)    r     1 G_MAX_USRS(0:0)
     0-0-0/w STRC(48)    r     1 G_SCHDGATE                 0-0-0/w STRC(2208)  r     1 PS_LCP6STT

  ****  BASED and DCB variables  ****

  ****  Scalars and arrays  ****
HexLoc.c.b A Datatyp(siz) R M Lvl/name                 HexLoc.c.b A Datatyp(siz) R M Lvl/name

     0-0-0/w STRC(27232) r     1 G$MHJIT                    0-0-0/w STRC(12000) r     1 G$ROS
     0-0-0/w STRC(384)   r     1 G$U                        0-0-0/w STRC(6480)  r     1 G$UHJIT
     0-0-0/w STRC(384)   r     1 G$USER(0:0)


   Procedure GHS$ADDUSR requires 749 words for executable code.
   Procedure GHS$ADDUSR requires 36 words of local(AUTO) storage.
PL6.E3A0      #007=GHS$ADDUSR File=GHS$SCHD.:E05TSI                              TUE 07/29/97 21:44 Page:300
          *** CROSS REFERENCE LISTING ***
**     DENOTES     IDENTIFIER DEFINITION
<<                 IDENTIFIER'S VALUE SET
>>                 IDENTIFIER'S VALUE USED
<>                 IDENTIFIER SET AND/OR USED
--                 IDENTIFIER REFERENCED
PL6.E3A0      #007=GHS$ADDUSR File=GHS$SCHD.:E05TSI                              TUE 07/29/97 21:44 Page:301
          MINI XREF LISTING

BASE_PRIO
     19750**DCL     19963>>ASSIGN  19965>>ASSIGN  19966>>ASSIGN
ERRCODE
     19756**DCL        42--PROC    19803<<ASSIGN  19805<<ASSIGN  19806<<ASSIGN  19809<<ASSIGN  19928<<ASSIGN
G$BPAR1$
     19766**DCL     19862<>CALL    19863>>ASSIGN  19881<>CALL    19882>>ASSIGN
G$EXCFR.P$$
     18816**DCL     18816--REDEF   18816--REDEF
G$EXCFR.PREVSZ
     18766**DCL     18766--REDEF
G$EXCFR.TRLR.EVID
     19053**DCL     19071--REDEF   19079--REDEF   19079--REDEF
G$EXCFR.TRLR.SUBC
     19030**DCL     19030--REDEF   19048--REDEF   19052--REDEF   19052--REDEF
G$HHJIT.ISA_HND
     16138**DCL     16433--REDEF
G$HHJIT.ISA_HND.P$$
     16213**DCL     16213--REDEF
G$HHJIT.TSA_HND.ISA.P$$
     16622**DCL     16622--REDEF
G$HHJIT.TSA_HND.P$$
     16493**DCL     16493--REDEF   16494--REDEF
G$MHJIT.ASDT_BIGFOOT.ROS.BASE
      8594**DCL     19878>>ASSIGN
G$MHJIT.ASDT_BIGFOOT.UMHJIT.BASE
      8682**DCL     19859>>ASSIGN
G$MHJIT.INTCON.HHJIT
     14306**DCL     14306--REDEF
G$MHJIT.INTCON.P$$
     14279**DCL     14279--REDEF
G$MHJIT.ISA_BIGFOOT.P$$
     11224**DCL     11224--REDEF
PL6.E3A0      #007=GHS$ADDUSR File=GHS$SCHD.:E05TSI                              TUE 07/29/97 21:44 Page:302
G$MHJIT.ISA_DBINH.P$$
     12438**DCL     12438--REDEF
G$MHJIT.ISA_IDLE.P$$
      9319**DCL      9319--REDEF
G$MHJIT.ISA_LVL10.P$$
     12741**DCL     12741--REDEF
G$MHJIT.ISA_LVL11.P$$
     13044**DCL     13044--REDEF
G$MHJIT.ISA_LVL12.P$$
     13347**DCL     13347--REDEF
G$MHJIT.ISA_LVL5.P$$
     11527**DCL     11527--REDEF
G$MHJIT.ISA_OV.P$$
     10921**DCL     10921--REDEF
G$MHJIT.ISA_PFS.P$$
     10592**DCL     10592--REDEF
G$MHJIT.ISA_RT_CLOCK.P$$
     13954**DCL     13954--REDEF
G$MHJIT.ISA_SATYR_RCV.P$$
     11831**DCL     11831--REDEF
G$MHJIT.ISA_SATYR_TRN.P$$
     12135**DCL     12135--REDEF
G$MHJIT.ISA_SCHD.P$$
     13650**DCL     13650--REDEF
G$MHJIT.ISA_WDOG.P$$
     10700**DCL     10700--REDEF
G$MHJIT.TSA_DB.ISA.P$$
      9922**DCL      9922--REDEF
G$MHJIT.TSA_DB.P$$
      9793**DCL      9793--REDEF    9794--REDEF
G$MHJIT.TSA_HND.ISA.P$$
     14500**DCL     14500--REDEF
G$MHJIT.TSA_HND.P$$
     14371**DCL     14371--REDEF   14372--REDEF
G$MHJIT.TSA_MON.ISA.P$$
      9534**DCL      9534--REDEF
PL6.E3A0      #007=GHS$ADDUSR File=GHS$SCHD.:E05TSI                              TUE 07/29/97 21:44 Page:303
G$MHJIT.TSA_MON.P$$
      9405**DCL      9405--REDEF    9406--REDEF
G$MHJIT.TSA_OV.ISA.P$$
     10310**DCL     10310--REDEF
G$MHJIT.TSA_OV.P$$
     10181**DCL     10181--REDEF   10182--REDEF
G$MHJIT$
     19762**DCL      7844--IMP-PTR 19859>>ASSIGN  19878>>ASSIGN
G$ROS
     16859**DCL     19833--ASSIGN  19844--CALL    19845--ASSIGN  19873--ASSIGN  19879--ASSIGN  19882<<ASSIGN
     19882>>ASSIGN
G$ROS.AUTO_DS$
     16868**DCL     16869--REDEF
G$ROS.AUTO_T$
     16869**DCL     16869--REDEF
G$ROS.CP_ECCB.FLTFLG
     17483**DCL     17514--REDEF
G$ROS.DB_ECCB.FLTFLG
     17407**DCL     17438--REDEF
G$ROS.JIT.ERRLOG
     17218**DCL     17221--REDEF
G$ROS.JIT.JSUNIT
     16957**DCL     16958--REDEF
G$ROS.JIT.MCLS
     16956**DCL     16956--REDEF
G$ROS.JIT.SYSID
     16946**DCL     19885<<ASSIGN
G$ROS.JIT.TMRZ
     17225**DCL     17226--REDEF
G$ROS.JIT.USER_EXTIME
     16949**DCL     16950--REDEF
G$ROS.JIT.USER_MEMTIME
     16952**DCL     16952--REDEF
G$ROS.JIT.USER_SVTIME
     16951**DCL     16951--REDEF
G$ROS.JIT.USR#
PL6.E3A0      #007=GHS$ADDUSR File=GHS$SCHD.:E05TSI                              TUE 07/29/97 21:44 Page:304
     16946**DCL     19884<<ASSIGN
G$ROS.M$DEBUG.EOMCHAR
     17554**DCL     17554--REDEF   17555--REDEF
G$ROS.M$DEBUG.FLDID
     17553**DCL     17553--REDEF
G$ROS.M$DEBUG.RES
     17548**DCL     17549--REDEF
G$ROS.M$DO.EOMCHAR
     17759**DCL     17759--REDEF   17760--REDEF
G$ROS.M$DO.FLDID
     17758**DCL     17758--REDEF
G$ROS.M$DO.RES
     17753**DCL     17754--REDEF
G$ROS.M$HOST.EOMCHAR
     17708**DCL     17708--REDEF   17709--REDEF
G$ROS.M$HOST.FLDID
     17707**DCL     17707--REDEF
G$ROS.M$HOST.RES
     17702**DCL     17703--REDEF
G$ROS.M$LM.EOMCHAR
     17605**DCL     17605--REDEF   17606--REDEF
G$ROS.M$LM.FLDID
     17604**DCL     17604--REDEF
G$ROS.M$LM.RES
     17599**DCL     17600--REDEF
G$ROS.M$ME.EOMCHAR
     17657**DCL     17657--REDEF   17658--REDEF
G$ROS.M$ME.FLDID
     17656**DCL     17656--REDEF
G$ROS.M$ME.RES
     17651**DCL     17652--REDEF
G$ROS.U_ECCB.FLTFLG
     17331**DCL     17362--REDEF
G$ROS$
     19764**DCL     17810--IMP-PTR
G$TSTACK$
PL6.E3A0      #007=GHS$ADDUSR File=GHS$SCHD.:E05TSI                              TUE 07/29/97 21:44 Page:305
     19773**DCL     19891<>CALL
G$U.ASYNCH
      4819**DCL     19958<<ASSIGN
G$U.DL$
      4821**DCL     19960<<ASSIGN
G$U.FL
      4819**DCL     19916<<ASSIGN  19946>>ASSIGN  19956>>ASSIGN
G$U.FLG
      4818**DCL     19957<<ASSIGN
G$U.MF
      4820**DCL     19959<<ASSIGN
G$U.MISC
      4819**DCL      4819--REDEF
G$U.MODE
      4821**DCL     19961<<ASSIGN
G$U.PRIO
      4821**DCL     19966<<ASSIGN
G$U.PRIOB
      4821**DCL     19963<<ASSIGN  19965<<ASSIGN
G$U.SYSID
      4822**DCL     19967<<ASSIGN
G$U.UHJITPP
      4821**DCL     19855<<ASSIGN
G$UHJIT
      4870**DCL     19833--ASSIGN  19840--CALL    19841--ASSIGN  19860--ASSIGN  19863<<ASSIGN  19863>>ASSIGN
     19903--CALL
G$UHJIT.ASDT_MCL.ROS
      5618**DCL     19875<<ASSIGN
G$UHJIT.ASDT_MCL.TSTACKU
      5684**DCL     19871>>ASSIGN
G$UHJIT.ASDT_MCL.TSTACKU.BASE
      5686**DCL     19869<<ASSIGN
G$UHJIT.ASDT_MCL.TSTACKU.SIZE
      5688**DCL     19870<<ASSIGN
G$UHJIT.ASDT_MCL.UHJIT
      5706**DCL     19868<<ASSIGN
PL6.E3A0      #007=GHS$ADDUSR File=GHS$SCHD.:E05TSI                              TUE 07/29/97 21:44 Page:306
G$UHJIT.ASDT_USR.ROS
      4924**DCL     19875>>ASSIGN
G$UHJIT.ASDT_USR.ROS.BASE
      4926**DCL     19872<<ASSIGN
G$UHJIT.ASDT_USR.ROS.RP
      4926**DCL     19874<<ASSIGN
G$UHJIT.ASDT_USR.ROS.SIZE
      4928**DCL     19873<<ASSIGN
G$UHJIT.ASDT_USR.TSTACKU
      4990**DCL     19871<<ASSIGN
G$UHJIT.ASDT_USR.UHJIT
      5012**DCL     19868>>ASSIGN
G$UHJIT.ASDT_USR.UHJIT.BASE
      5014**DCL     19867<<ASSIGN
G$UHJIT.ISA_USR
      6293**DCL      6588--REDEF
G$UHJIT.ISA_USR.P$$
      6368**DCL      6368--REDEF
G$UHJIT.TSA_CP.ISA.P$$
      7575**DCL      7575--REDEF
G$UHJIT.TSA_CP.P$$
      7446**DCL      7446--REDEF    7447--REDEF
G$UHJIT.TSA_DB.ISA.P$$
      7187**DCL      7187--REDEF
G$UHJIT.TSA_DB.P$$
      7058**DCL      7058--REDEF    7059--REDEF
G$UHJIT.TSA_RTT.P$$
      7821**DCL      7821--REDEF    7822--REDEF
G$UHJIT.TSA_USR.ISA.P$$
      6777**DCL      6777--REDEF
G$UHJIT.TSA_USR.P$$
      6648**DCL      6648--REDEF    6649--REDEF
G$USER
      4807**DCL     19945--ASSIGN
G$USER.BL
      4808**DCL     19917<<ASSIGN  19956<<ASSIGN
PL6.E3A0      #007=GHS$ADDUSR File=GHS$SCHD.:E05TSI                              TUE 07/29/97 21:44 Page:307
G$USER.MISC
      4808**DCL      4808--REDEF
G$USRT$
     19765**DCL      4807--IMP-PTR 19917>>ASSIGN  19945>>ASSIGN  19956>>ASSIGN
G$WINDOW1$
     19761**DCL      4870--IMP-PTR 16859--IMP-PTR 19861<>CALL    19863>>ASSIGN  19867>>ASSIGN  19868>>ASSIGN
     19868>>ASSIGN  19869>>ASSIGN  19870>>ASSIGN  19871>>ASSIGN  19871>>ASSIGN  19872>>ASSIGN  19873>>ASSIGN
     19874>>ASSIGN  19875>>ASSIGN  19875>>ASSIGN  19880<>CALL    19882>>ASSIGN  19884>>ASSIGN  19885>>ASSIGN
     19889<>CALL    19891<>CALL
GETSEGS
     19824**PROC    19795--CALL
GETSYSID
     19972**PROC    19793--CALL
GETUSR
     19933**PROC    19794--CALL
GHH$LOCK
       325**DCL-ENT 19913--CALL    19941--CALL
GHH$SETASDT_ASD
     19775**DCL-ENT 19861--CALL    19862--CALL    19880--CALL    19881--CALL    19889--CALL
GHH$UNLOCK
       325**DCL-ENT 19925--CALL    19953--CALL
GHS$CHSE
     19779**DCL-ENT 19801--CALL
GH_HQ
     19769**DCL     19791>>IF      19916>>ASSIGN  19917>>ASSIGN  19918<<ASSIGN  19944>>ASSIGN  19946<<ASSIGN
GMA$GETPS
     19776**DCL-ENT 19836--CALL    19840--CALL    19842--CALL    19844--CALL
GMA$PS2USR
     19778**DCL-ENT 19896--CALL    19897--CALL    19898--CALL
GMA$RELPS
     19777**DCL-ENT 19837--CALL    19902--CALL    19903--CALL
GM_ASHUF
     19770**DCL     19851<<ASSIGN  19851>>ASSIGN  19905<<ASSIGN  19905>>ASSIGN
GM_HSHUF
     19771**DCL     19852<<ASSIGN  19852>>ASSIGN  19906<<ASSIGN  19906>>ASSIGN
GM_TSTKU_PGSZ
PL6.E3A0      #007=GHS$ADDUSR File=GHS$SCHD.:E05TSI                              TUE 07/29/97 21:44 Page:308
     19772**DCL     19833>>ASSIGN  19842<>CALL    19843>>ASSIGN  19870>>ASSIGN  19888>>ASSIGN  19890>>ASSIGN
     19902<>CALL
GROX IN PROCEDURE GETSEGS
     19902**LABEL   19844--CALLALT
GUHX IN PROCEDURE GETSEGS
     19903**LABEL   19840--CALLALT
GUHY IN PROCEDURE GETSEGS
     19913**LABEL   19836--CALLALT
G_CUR_USRS
     19767**DCL     19790>>IF      19791>>IF      19796<<ASSIGN  19796>>ASSIGN  19797<<ASSIGN  19797>>ASSIGN
     19798>>IF      19799>>ASSIGN
G_MAX_USRS
     19768**DCL     19790>>IF      19791>>IF
G_SCHDGATE
     19157**DCL     19913<>CALL    19925<>CALL    19941<>CALL    19953<>CALL
G_SYSID IN PROCEDURE GETSYSID
     19974**DCL     19977<<ASSIGN  19977>>ASSIGN  19978>>ASSIGN
I
     19787**DCL     19793<>CALL    19885>>ASSIGN  19967>>ASSIGN
ID IN PROCEDURE GETSYSID
     19975**DCL     19972--PROC    19978<<ASSIGN
INIT_SZ
     19758**DCL     19833<<ASSIGN  19836<>CALL    19837<>CALL    19839<<ASSIGN  19841<<ASSIGN  19843<<ASSIGN
     19843>>ASSIGN  19845<<ASSIGN  19845>>ASSIGN  19851>>ASSIGN  19852>>ASSIGN  19905>>ASSIGN  19906>>ASSIGN
INT#
     19752**DCL        42--PROC
MODE
     19753**DCL        42--PROC    19790>>IF      19790>>IF      19796>>ASSIGN  19796>>ASSIGN  19849>>IF
     19849>>IF      19961>>ASSIGN  19962>>IF
NOSTK IN PROCEDURE GETSEGS
     19903**LABEL   19842--CALLALT
NO_SEGS
     19810**LABEL   19795--CALLALT
NO_SYSID
     19809**LABEL   19793--CALLALT
PAGE
PL6.E3A0      #007=GHS$ADDUSR File=GHS$SCHD.:E05TSI                              TUE 07/29/97 21:44 Page:309
     19759**DCL     19859<<ASSIGN  19862<>CALL    19878<<ASSIGN  19881<>CALL
PS_LCP6STT.PEAK_USERS
     19654**DCL     19798>>IF      19799<<ASSIGN
PS_LCP6STT.REQSTATS.DSPMSK
     19449**DCL     19455--REDEF
PS_LCP6STT.REQSTATS.SLCMSK
     19490**DCL     19497--REDEF
ROS.AUTO_DS$
     17819**DCL     17820--REDEF
ROS.AUTO_T$
     17820**DCL     17820--REDEF
ROS.CP_ECCB.FLTFLG
     18434**DCL     18465--REDEF
ROS.DB_ECCB.FLTFLG
     18358**DCL     18389--REDEF
ROS.JIT.ERRLOG
     18169**DCL     18172--REDEF
ROS.JIT.JSUNIT
     17908**DCL     17909--REDEF
ROS.JIT.MCLS
     17907**DCL     17907--REDEF
ROS.JIT.TMRZ
     18176**DCL     18177--REDEF
ROS.JIT.USER_EXTIME
     17900**DCL     17901--REDEF
ROS.JIT.USER_MEMTIME
     17903**DCL     17903--REDEF
ROS.JIT.USER_SVTIME
     17902**DCL     17902--REDEF
ROS.M$DEBUG.EOMCHAR
     18505**DCL     18505--REDEF   18506--REDEF
ROS.M$DEBUG.FLDID
     18504**DCL     18504--REDEF
ROS.M$DEBUG.RES
     18499**DCL     18500--REDEF
ROS.M$DO.EOMCHAR
PL6.E3A0      #007=GHS$ADDUSR File=GHS$SCHD.:E05TSI                              TUE 07/29/97 21:44 Page:310
     18710**DCL     18710--REDEF   18711--REDEF
ROS.M$DO.FLDID
     18709**DCL     18709--REDEF
ROS.M$DO.RES
     18704**DCL     18705--REDEF
ROS.M$HOST.EOMCHAR
     18659**DCL     18659--REDEF   18660--REDEF
ROS.M$HOST.FLDID
     18658**DCL     18658--REDEF
ROS.M$HOST.RES
     18653**DCL     18654--REDEF
ROS.M$LM.EOMCHAR
     18556**DCL     18556--REDEF   18557--REDEF
ROS.M$LM.FLDID
     18555**DCL     18555--REDEF
ROS.M$LM.RES
     18550**DCL     18551--REDEF
ROS.M$ME.EOMCHAR
     18608**DCL     18608--REDEF   18609--REDEF
ROS.M$ME.FLDID
     18607**DCL     18607--REDEF
ROS.M$ME.RES
     18602**DCL     18603--REDEF
ROS.U_ECCB.FLTFLG
     18282**DCL     18313--REDEF
ROSPP
     19754**DCL        42--PROC    19844<>CALL    19872>>ASSIGN  19880<>CALL    19897<>CALL
SIZE
     19757**DCL     19860<<ASSIGN  19861<>CALL    19862<>CALL    19879<<ASSIGN  19880<>CALL    19881<>CALL
     19888<<ASSIGN  19889<>CALL    19890<<ASSIGN  19891<>CALL
TSTKPP
     19783**DCL     19842<>CALL    19869>>ASSIGN  19889<>CALL    19898<>CALL    19902<>CALL
U$
     19786**DCL      4818--IMP-PTR 19855>>ASSIGN  19916>>ASSIGN  19945<<ASSIGN  19946>>ASSIGN  19956>>ASSIGN
     19957>>ASSIGN  19958>>ASSIGN  19959>>ASSIGN  19960>>ASSIGN  19961>>ASSIGN  19963>>ASSIGN  19965>>ASSIGN
     19966>>ASSIGN  19967>>ASSIGN
PL6.E3A0      #007=GHS$ADDUSR File=GHS$SCHD.:E05TSI                              TUE 07/29/97 21:44 Page:311
UHJITPP
     19782**DCL     19836<>CALL    19837<>CALL    19840<>CALL    19855>>ASSIGN  19861<>CALL    19867>>ASSIGN
     19896<>CALL    19903<>CALL
USER
     19755**DCL        42--PROC    19800<<ASSIGN
USR#
     19784**DCL     19800>>ASSIGN  19801<>CALL    19884>>ASSIGN  19896<>CALL    19897<>CALL    19898<>CALL
     19917>>ASSIGN  19918>>ASSIGN  19944<<ASSIGN  19945>>ASSIGN
X6A_MAUTO
     19780**DCL-ENT 19891--CALL

PL6.E3A0      #008=GHS$MONTMR File=GHS$SCHD.:E05TSI                              TUE 07/29/97 21:46 Page:312
     1860        1        /*T***********************************************************/
     1861        2        /*T*                                                         */
     1862        3        /*T* Copyright (c) Bull HN Information Systems Inc., 1997    */
     1863        4        /*T*                                                         */
     1864        5        /*T***********************************************************/
     1865        6        /*X* PLM = 3,IND=5,ENU=0,ECU=0  */
     1866        7
     1867        8        /*F* NAME: GHS$MONTMR
     1868        9             PURPOSE:
     1869       10                  To provide timer services for monitor procedures.
     1870       11             DESCRIPTION:
     1871       12                  Provides a facility for calling monitor procedures at
     1872       13                  a predetermined time.
     1873       14        */
     1874       15
     1875       16        GHS$MONTMR: PROC(GH$TMR);
     1876       17
     1877       18        %INCLUDE GH_SCHD_M;
     1878      162        %INCLUDE GH_SCHD_E;
     1879      258 S      %INCLUDE GU_LCP6_M;
     1880      259 S      %INCLUDE GH_LCP6_M;
     1881      260        %INCLUDE GH_HARDWARE_M;
     1882      358        %INCLUDE GH_GATE_M;
     1883      399 S      %INCLUDE G_LCP6_E;
     1884      400
     1885      401                                                /* Input parameters                   */
     1886      402        %GH$TMR_BLK (FPTN=GH$TMR, STCLASS=PARAM);
     1887      425
     1888      426                                                /* Auto storage                       */
     1889      427    1   DCL I SBIN;
     1890      428    1   DCL RTIME UBIN(32);
     1891      429    1   DCL BLINK$ PTR;
     1892      430    1   DCL FLINK$ PTR;
     1893      431    1   DCL TMR_PROC$ EPTR;
     1894      432    1   DCL ARG UBIN;
     1895      433    1   DCL TMR$ PTR;
     1896      434                                                /* BASED Structures                   */
PL6.E3A0      #008=GHS$MONTMR File=GHS$SCHD.:E05TSI                              TUE 07/29/97 21:46 Page:313
     1897      435        %GH$TMR_BLK (FPTN=G$TMR);
     1898      458        %G$USER (FPTN = "G$USER(0:0)",STCLASS="BASED(G$USRT$)");
     1899      469
     1900      470                                                /* Internal data                      */
     1901      471    1   DCL GH$TMR_HD$ PTR STATIC SYMDEF INIT(ADDR(NIL));
     1902      472
     1903      473                                                /* External data                      */
     1904      474    1   DCL G$USRT$ PTR SYMREF;
     1905      475    1   DCL GH_HQ(0:0) UBIN SYMREF;
     1906      476    1   DCL GH_CLOCKHD UBIN SYMREF;
     1907      477        %GATE (FPTN = G_CLKGATE,STCLASS=SYMREF);
     1908      496        %GATE (FPTN = G_LNK_CLKGATE,STCLASS=STATIC SYMDEF);
     1909      515
     1910      516                                                /* External procedures                */
     1911      517    1   DCL GHI$UTS ENTRY(1);
     1912      518    1   DCL GHS$RUE ENTRY(4) ALTRET;
     1913      519    1   DCL GHS$EVENT ENTRY(7);
     1914      520
     1915      521        %EJECT;
PL6.E3A0      #008=GHS$MONTMR File=GHS$SCHD.:E05TSI                              TUE 07/29/97 21:46 Page:314
     1916      522        /*F* NAME: GHS$MONTIMRWU
     1917      523             PURPOSE:
     1918      524                  To perform monitor timer functions.
     1919      525             DESCRIPTION:
     1920      526                  This procedure calls monitor procedures that have requested
     1921      527                  monitor timer service, wakes up sleeping users and posts
     1922      528                  events for users whose M$CLOCK timers have expired.
     1923      529        */
     1924      530        /*D*
     1925      531             NAME: GHS$MONTIMRWU
     1926      532             CALL:
     1927      533                  CALL GHS$MONTIMRWU
     1928      534             PARAMETERS:
     1929      535                  There are no parameters for this procedure.
     1930      536             ENVIRONMENT:
     1931      537                  This procedure is called from the Execution Scheduler Idle
     1932      538                  loop and the Real Time Clock Interrupt service procedure.
     1933      539             DESCRIPTION:
     1934      540                  If the time of the entry at the head of the monitor
     1935      541                  timer service list has been reached, the entry is removed
     1936      542                  and the specified procedure is called with the specified
     1937      543                  argument.  It is expected that the called procedure may
     1938      544                  make another monitor timer service request.  This procedure
     1939      545                  is repeated until the list is exhausted or the time of the
     1940      546                  entry at the head of the list has not been reached.
     1941      547
     1942      548                  If the wakeup time of the user at the head of the Scheduler
     1943      549                  Sleep state queue, if any, has been reached, a wakeup
     1944      550                  event is reported on that user.  This procedure is repeated
     1945      551                  until the time of the entry on the head of the wakeup queue
     1946      552                  has not been reached.
     1947      553
     1948      554                  If the time specified for the user at the head of the M$CLOCK
     1949      555                  queue has been reached an M$CLOCK Event is posted for that
     1950      556                  user by calling GHS$EVENT.  This procedure is repeated until
     1951      557                  the time of the entry at the head of the M$CLOCK queue has
     1952      558                  not been reached.
PL6.E3A0      #008=GHS$MONTMR File=GHS$SCHD.:E05TSI                              TUE 07/29/97 21:46 Page:315
     1953      559
     1954      560        */
     1955      561        /* Wake up monitor timer procedures and sleeping users.        */
     1956      562
     1957      563    1   GHS$MONTIMRWU: ENTRY;
     1958      564    1      CALL GHI$UTS(RTIME);                 /* Get current time                   */
     1959      565
     1960      566    1   START_OVER: ;
     1961      567           %LOCK (G=G_LNK_CLKGATE);
     1962      574    1      IF GH$TMR_HD$ ~= ADDR(NIL)
     1963      575    2      THEN DO;
     1964      576    2           IF GH$TMR_HD$->G$TMR.WAKEUP <= RTIME
     1965      577    3           THEN DO;
     1966      578    3                ARG = GH$TMR_HD$->G$TMR.ARG;
     1967      579    3                TMR_PROC$ = GH$TMR_HD$->G$TMR.PROC$;
     1968      580
     1969      581    3                TMR$ = GH$TMR_HD$;
     1970      582    3                CALL UNLINK_BLOCK;
     1971      583
     1972      584                     %UNLOCK (G=G_LNK_CLKGATE);
     1973      591
     1974      592    3                CALL TMR_PROC$(ARG);
     1975      593    3                GOTO START_OVER;
     1976      594    3                END/*do if time < rtime*/;
     1977      595    2           END/*do if hd$ ~nil*/;
     1978      596
     1979      597           %UNLOCK (G=G_LNK_CLKGATE);
     1980      604
     1981      605
     1982      606    1   TMX1: ;
     1983      607    1      I = GH_HQ(%GH_W);
     1984      608    1      IF I ~=  0 AND G$USER.MISC(I) <= RTIME
     1985      609    2      THEN DO;
     1986      610    2           CALL GHS$RUE(%GH_EVWU,I);       /* his time has come                  */
     1987      611    2           GOTO TMX1;                      /* back for next sleeper              */
     1988      612    2           END;
     1989      613
PL6.E3A0      #008=GHS$MONTMR File=GHS$SCHD.:E05TSI                              TUE 07/29/97 21:46 Page:316
     1990      614    2      DO WHILE (GH_CLOCKHD ~=  -1 AND G$USER.UTS(GH_CLOCKHD) <= RTIME);
     1991      615                %LOCK (G = G_CLKGATE);
     1992      622
     1993      623    2           I = GH_CLOCKHD;
     1994      624    2           GH_CLOCKHD  =  G$USER.CLOCK(I);
     1995      625    2           G$USER.CLOCK(I) = 0;
     1996      626    2           CALL GHS$EVENT (I,0,%G_RTTMRSC#,0,,0);
     1997      627
     1998      628                %UNLOCK (G = G_CLKGATE);
     1999      635    2           END;
     2000      636    1      RETURN;
     2001      637        %EJECT;
PL6.E3A0      #008=GHS$MONTMR File=GHS$SCHD.:E05TSI                              TUE 07/29/97 21:46 Page:317
     2002      638        /*D* NAME: GHS$SET_TMR
     2003      639             CALL:
     2004      640                  CALL GHS$SET_TMR (GH$TMR_BLK);
     2005      641             PARAMETERS:
     2006      642                   A structure built using the GH$TMR_BLK macro initialized
     2007      643                   as follows:
     2008      644                     INTERVAL is a time interval from the current time when
     2009      645                              the specified procedure is to be called.
     2010      646
     2011      647                     PROC$ is an EPTR to a monitor procedure to be called.
     2012      648
     2013      649                     ARG is an argument to be passed on the call.
     2014      650
     2015      651             DESCRIPTION:
     2016      652                  An entry containing the call time, Entry and Argument is
     2017      653                  sorted onto a linked list of entries in order of call times.
     2018      654        */
     2019      655
     2020      656
     2021      657
     2022      658    1   GHS$SET_TMR: ENTRY(GH$TMR);
     2023      659           %LOCK (G=G_LNK_CLKGATE);
     2024      666    1      TMR$ = ADDR(GH$TMR);
     2025      667
     2026      668    1      CALL UNLINK_BLOCK;                   /*in case its a call to reset*/
     2027      669
     2028      670    1      CALL GHI$UTS(RTIME);                 /* Get current time                   */
     2029      671    1      RTIME  =  RTIME + GH$TMR.INTERVAL;   /* Plus his interval                  */
     2030      672    1      GH$TMR.WAKEUP = RTIME;
     2031      673
     2032      674
     2033      675    1      BLINK$ = ADDR(NIL);
     2034      676    1      FLINK$ = GH$TMR_HD$;
     2035      677
     2036      678    2      DO WHILE (FLINK$ ~= ADDR(NIL) );
     2037      679    2           IF RTIME < FLINK$->G$TMR.WAKEUP
     2038      680    3           THEN DO;
PL6.E3A0      #008=GHS$MONTMR File=GHS$SCHD.:E05TSI                              TUE 07/29/97 21:46 Page:318
     2039      681    3                FLINK$->G$TMR.BLINK$ = ADDR(GH$TMR);
     2040      682
     2041      683    3   ADD_TO_END:  ;
     2042      684    3                GH$TMR.FLINK$ = FLINK$;
     2043      685    3                GH$TMR.BLINK$ = BLINK$;
     2044      686
     2045      687    3                IF BLINK$ ~= ADDR(NIL)
     2046      688    3                THEN BLINK$->G$TMR.FLINK$ = ADDR(GH$TMR);
     2047      689    3                ELSE GH$TMR_HD$ = ADDR(GH$TMR);
     2048      690
     2049      691                     %UNLOCK (G=G_LNK_CLKGATE);
     2050      698    3                RETURN;
     2051      699    3                END;
     2052      700
     2053      701    2           BLINK$ = FLINK$;
     2054      702    2           FLINK$ = FLINK$->G$TMR.FLINK$;
     2055      703    2           END;
     2056      704
     2057      705    1      GOTO ADD_TO_END;
     2058      706
     2059      707        %EJECT;
PL6.E3A0      #008=GHS$MONTMR File=GHS$SCHD.:E05TSI                              TUE 07/29/97 21:46 Page:319
     2060      708        /*D*  NAME: GHS$CANCEL_TMR
     2061      709              CALL: CALL GHS$CANCEL_TMR (gh$tmr);
     2062      710              PARAMETERS:
     2063      711                    gh$tmr is the monitor timer block entry to be cancelled.
     2064      712              DESCRIPTION:
     2065      713                    The specified montimer entry is cancelled.
     2066      714        */
     2067      715
     2068      716    1   GHS$CANCEL_TMR: ENTRY(GH$TMR);
     2069      717
     2070      718           %LOCK (G=G_LNK_CLKGATE);
     2071      725    1      TMR$ = ADDR(GH$TMR);
     2072      726    1      CALL UNLINK_BLOCK;
     2073      727           %UNLOCK (G=G_LNK_CLKGATE);
     2074      734    1      RETURN;
     2075      735        %EJECT;
PL6.E3A0      #008=GHS$MONTMR File=GHS$SCHD.:E05TSI                              TUE 07/29/97 21:46 Page:320
     2076      736
     2077      737
     2078      738    1   UNLINK_BLOCK: PROC;
     2079      739
     2080      740    2      IF TMR$->G$TMR.WAKEUP ~= 0
     2081      741    3      THEN DO;
     2082      742    3           TMR$->G$TMR.WAKEUP = 0;
     2083      743
     2084      744    3           IF TMR$->G$TMR.BLINK$ = ADDR(NIL)
     2085      745    3           THEN GH$TMR_HD$ = TMR$->G$TMR.FLINK$;
     2086      746    3           ELSE TMR$->G$TMR.BLINK$->G$TMR.FLINK$ = TMR$->G$TMR.FLINK$;
     2087      747
     2088      748    3           IF TMR$->G$TMR.FLINK$ ~= ADDR(NIL)
     2089      749    3           THEN TMR$->G$TMR.FLINK$->G$TMR.BLINK$ = TMR$->G$TMR.BLINK$;
     2090      750
     2091      751    3           TMR$->G$TMR.BLINK$ = ADDR(NIL);
     2092      752    3           TMR$->G$TMR.FLINK$ = ADDR(NIL);
     2093      753    3           END;
     2094      754
     2095      755    2      RETURN;
     2096      756    2   END UNLINK_BLOCK;
     2097      757    1   END GHS$MONTMR;

PL6.E3A0      #008=GHS$MONTMR File=GHS$SCHD.:E05TSI                              TUE 07/29/97 21:46 Page:321
--  Include file information  --

   GH_GATE_M.:E05TOU  cannot be made into a system file and is referenced.
   GH_HARDWARE_M.:E05TOU  is referenced.
   GH_SCHD_E.:E05TOU  is referenced.
   GH_SCHD_M.:E05TOU  is referenced.
   G_LCP6_E.:E05TOU  was found in the system file and is referenced.
   GT_LCP6_M.:E05TOU  was found in the system file and is never referenced.
   KI_CP6.:E05TOU  was found in the system file and is never referenced.
   GF_LCP6_M.:E05TOU  was found in the system file and is never referenced.
   GM_LCP6_M.:E05TOU  was found in the system file and is never referenced.
   GU_LCP6_M.:E05TOU  was found in the system file and is referenced.
   GJ_LCP6_M.:E05TOU  was found in the system file and is never referenced.
   GH_LCP6_M.:E05TOU  was found in the system file and is referenced.
      No diagnostics issued in procedure GHS$MONTMR.

   Procedure GHS$MONTMR requires 430 words for executable code.
   Procedure GHS$MONTMR requires 32 words of local(AUTO) storage.

    No errors detected in file GHS$SCHD.:E05TSI    .

PL6.E3A0      #008=GHS$MONTMR File=GHS$SCHD.:E05TSI                              TUE 07/29/97 21:46 Page:322

 Object Unit name= GHS$MONTMR                                 File name= GHS$SCHD.:E05TOU
 UTS= JUL 29 '97 21:46:43.16 TUE                              Compiler= PL-6/E31         Sev=      00
 SharedLib= :SHARED_LCP6_SYSTEM                               Alt SharedLib=


    ****  Control sections  ****

 Sect   Type Bound  Init  Size HexSiz  Section name
    0   Data  even  none     5      5  GHS$MONTMR
    1   Proc  even  none   430    1AE  GHS$MONTMR
    2  RoData even  none     4      4  GHS$MONTMR

    ****  Entry defs  ****

                              Check   Calling
                             calling  sequence
  Sect HexLoc Primary Altret sequence   type   Parms  Name
     1      0   yes            yes      Std        1  GHS$MONTMR
     1      7                  yes      Std        0  GHS$MONTIMRWU
     1     E4                  yes      Std        1  GHS$SET_TMR
     1    153                  yes      Std        1  GHS$CANCEL_TMR

  ****  Data defs  ****

 Sect HexLoc  Name                           Sect HexLoc  Name
    0      0  GH$TMR_HD$                         0      2  G_LNK_CLKGATE
PL6.E3A0      #008=GHS$MONTMR File=GHS$SCHD.:E05TSI                              TUE 07/29/97 21:46 Page:323

  ****  Entry refs  ****

         Check        Calling
        calling       sequence
Altret sequence SRef   type   Args  Name
         yes           Std       1 GHI$UTS
 yes     yes           Std       1 GHH$LOCK
 yes     yes           Std       1 GHH$UNLOCK
 yes     yes           Std       4 GHS$RUE
         yes           Std       7 GHS$EVENT
                       nStd      0 X6A_AUTO_1
                       nStd      0 X6A_ARET

  ****  Data refs  ****

  Flags:  r = read only, s = secondary
Flgs Name                             Flgs Name                             Flgs Name
     G$USRT$                               GH_HQ                                 GH_CLOCKHD
     G_CLKGATE                        r    G$ROS$
PL6.E3A0      #008=GHS$MONTMR File=GHS$SCHD.:E05TSI                              TUE 07/29/97 21:46 Page:324


     1860        1        /*T***********************************************************/
     1861        2        /*T*                                                         */
     1862        3        /*T* Copyright (c) Bull HN Information Systems Inc., 1997    */
     1863        4        /*T*                                                         */
     1864        5        /*T***********************************************************/
     1865        6        /*X* PLM = 3,IND=5,ENU=0,ECU=0  */
     1866        7
     1867        8        /*F* NAME: GHS$MONTMR
     1868        9             PURPOSE:
     1869       10                  To provide timer services for monitor procedures.
     1870       11             DESCRIPTION:
     1871       12                  Provides a facility for calling monitor procedures at
     1872       13                  a predetermined time.
     1873       14        */
     1874       15
     1875       16        GHS$MONTMR: PROC(GH$TMR);

     16   1 000000  D380 0000 0000  xent GHS$MONTMR      LNJ,B5   X6A_AUTO_1
          1 000003       0020 0001                       DC       32,1
          1 000005  0F81 0006                            B        s:564,PREL

     1876       17
     1877       18        %INCLUDE GH_SCHD_M;
     1878      162        %INCLUDE GH_SCHD_E;
     1879      258 S      %INCLUDE GU_LCP6_M;
     1880      259 S      %INCLUDE GH_LCP6_M;
     1881      260        %INCLUDE GH_HARDWARE_M;
     1882      358        %INCLUDE GH_GATE_M;
     1883      399 S      %INCLUDE G_LCP6_E;
     1884      400
     1885      401                                                /* Input parameters                   */
     1886      402        %GH$TMR_BLK (FPTN=GH$TMR, STCLASS=PARAM);
     1887      425
     1888      426                                                /* Auto storage                       */
     1889      427    1   DCL I SBIN;
     1890      428    1   DCL RTIME UBIN(32);
PL6.E3A0      #008=GHS$MONTMR File=GHS$SCHD.:E05TSI                              TUE 07/29/97 21:46 Page:325
     1891      429    1   DCL BLINK$ PTR;
     1892      430    1   DCL FLINK$ PTR;
     1893      431    1   DCL TMR_PROC$ EPTR;
     1894      432    1   DCL ARG UBIN;
     1895      433    1   DCL TMR$ PTR;
     1896      434                                                /* BASED Structures                   */
     1897      435        %GH$TMR_BLK (FPTN=G$TMR);
     1898      458        %G$USER (FPTN = "G$USER(0:0)",STCLASS="BASED(G$USRT$)");
     1899      469
     1900      470                                                /* Internal data                      */
     1901      471    1   DCL GH$TMR_HD$ PTR STATIC SYMDEF INIT(ADDR(NIL));
     1902      472
     1903      473                                                /* External data                      */
     1904      474    1   DCL G$USRT$ PTR SYMREF;
     1905      475    1   DCL GH_HQ(0:0) UBIN SYMREF;
     1906      476    1   DCL GH_CLOCKHD UBIN SYMREF;
     1907      477        %GATE (FPTN = G_CLKGATE,STCLASS=SYMREF);
     1908      496        %GATE (FPTN = G_LNK_CLKGATE,STCLASS=STATIC SYMDEF);
     1909      515
     1910      516                                                /* External procedures                */
     1911      517    1   DCL GHI$UTS ENTRY(1);
     1912      518    1   DCL GHS$RUE ENTRY(4) ALTRET;
     1913      519    1   DCL GHS$EVENT ENTRY(7);
     1914      520
     1915      521        %EJECT;
PL6.E3A0      #008=GHS$MONTMR File=GHS$SCHD.:E05TSI                              TUE 07/29/97 21:46 Page:326
     1916      522        /*F* NAME: GHS$MONTIMRWU
     1917      523             PURPOSE:
     1918      524                  To perform monitor timer functions.
     1919      525             DESCRIPTION:
     1920      526                  This procedure calls monitor procedures that have requested
     1921      527                  monitor timer service, wakes up sleeping users and posts
     1922      528                  events for users whose M$CLOCK timers have expired.
     1923      529        */
     1924      530        /*D*
     1925      531             NAME: GHS$MONTIMRWU
     1926      532             CALL:
     1927      533                  CALL GHS$MONTIMRWU
     1928      534             PARAMETERS:
     1929      535                  There are no parameters for this procedure.
     1930      536             ENVIRONMENT:
     1931      537                  This procedure is called from the Execution Scheduler Idle
     1932      538                  loop and the Real Time Clock Interrupt service procedure.
     1933      539             DESCRIPTION:
     1934      540                  If the time of the entry at the head of the monitor
     1935      541                  timer service list has been reached, the entry is removed
     1936      542                  and the specified procedure is called with the specified
     1937      543                  argument.  It is expected that the called procedure may
     1938      544                  make another monitor timer service request.  This procedure
     1939      545                  is repeated until the list is exhausted or the time of the
     1940      546                  entry at the head of the list has not been reached.
     1941      547
     1942      548                  If the wakeup time of the user at the head of the Scheduler
     1943      549                  Sleep state queue, if any, has been reached, a wakeup
     1944      550                  event is reported on that user.  This procedure is repeated
     1945      551                  until the time of the entry on the head of the wakeup queue
     1946      552                  has not been reached.
     1947      553
     1948      554                  If the time specified for the user at the head of the M$CLOCK
     1949      555                  queue has been reached an M$CLOCK Event is posted for that
     1950      556                  user by calling GHS$EVENT.  This procedure is repeated until
     1951      557                  the time of the entry at the head of the M$CLOCK queue has
     1952      558                  not been reached.
PL6.E3A0      #008=GHS$MONTMR File=GHS$SCHD.:E05TSI                              TUE 07/29/97 21:46 Page:327
     1953      559
     1954      560        */
     1955      561        /* Wake up monitor timer procedures and sleeping users.        */
     1956      562
     1957      563    1   GHS$MONTIMRWU: ENTRY;

    563   1 000007  D380 0000 0000  xent GHS$MONTIMRWU   LNJ,B5   X6A_AUTO_1
          1 00000A       0020 0001                       DC       32,1

     1958      564    1      CALL GHI$UTS(RTIME);                 /* Get current time                   */

    564   1 00000C  EBC7 0007                            LAB,B6   RTIME,AUTO
          1 00000E  EFC7 0014                            STB,B6   TMR$+4,AUTO
          1 000010  BBC7 0014                            LAB,B3   TMR$+4,AUTO
          1 000012  CBF0 0100                            LAB,B4   256,IMO
          1 000014  E380 0000 0000  xent                 LNJ,B6   GHI$UTS
          1 000017       0001                            DC       s:517,PREL

    517   1                              START_OVER      null
     1959      565
     1960      566    1   START_OVER: ;
     1961      567           %LOCK (G=G_LNK_CLKGATE);

    572   1 000018  BB80 0000 0000  02   START_OVER      LAB,B3   0
          1 00001B  CBF0 0100                            LAB,B4   256,IMO
          1 00001D  E380 0000 0000  xent                 LNJ,B6   GHH$LOCK
          1 000020       0001                            DC       s:574,PREL

     1962      574    1      IF GH$TMR_HD$ ~= ADDR(NIL)

    574   1 000021  8D80 0000 0000  00                   CMN      GH$TMR_HD$
          1 000024  0901 0030                            BE       s:602,PREL

     1963      575    2      THEN DO;

     1964      576    2           IF GH$TMR_HD$->G$TMR.WAKEUP <= RTIME

PL6.E3A0      #008=GHS$MONTMR File=GHS$SCHD.:E05TSI                              TUE 07/29/97 21:46 Page:328
    576   1 000026  EC80 0000 0000  00                   LDB,B6   GH$TMR_HD$
          1 000029  8CC6 0004                            LDI      4,B6
          1 00002B  84C7 0007                            SID      RTIME,AUTO
          1 00002D  6981 0003                            BNEZ,R6  s:576+11,PREL
          1 00002F  7901 0003                            BEZ,R7   s:578,PREL
          1 000031  0601 0023                            BCT      s:602,PREL

     1965      577    3           THEN DO;

     1966      578    3                ARG = GH$TMR_HD$->G$TMR.ARG;

    578   1 000033  E846 0002                            LDR,R6   2,B6
          1 000035  EF47 000F                            STR,R6   ARG,AUTO

     1967      579    3                TMR_PROC$ = GH$TMR_HD$->G$TMR.PROC$;

    579   1 000037  DC86                                 LDB,B5   ,B6
          1 000038  DFC7 000D                            STB,B5   TMR_PROC$,AUTO

     1968      580
     1969      581    3                TMR$ = GH$TMR_HD$;

    581   1 00003A  EFC7 0010                            STB,B6   TMR$,AUTO

     1970      582    3                CALL UNLINK_BLOCK;

    582   1 00003C  E3C0 0137                            LNJ,B6   s:0,PREL
          1 00003E       0001                            DC       s:589,PREL

     1971      583
     1972      584                     %UNLOCK (G=G_LNK_CLKGATE);

    589   1 00003F  BB80 0000 0000  02                   LAB,B3   0
          1 000042  CBF0 0100                            LAB,B4   256,IMO
          1 000044  E380 0000 0000  xent                 LNJ,B6   GHH$UNLOCK
          1 000047       0001                            DC       s:592,PREL

PL6.E3A0      #008=GHS$MONTMR File=GHS$SCHD.:E05TSI                              TUE 07/29/97 21:46 Page:329
     1973      591
     1974      592    3                CALL TMR_PROC$(ARG);

    592   1 000048  EBC7 000F                            LAB,B6   ARG,AUTO
          1 00004A  EFC7 0014                            STB,B6   TMR$+4,AUTO
          1 00004C  BBC7 0014                            LAB,B3   TMR$+4,AUTO
          1 00004E  9CC7 000D                            LDB,B1   TMR_PROC$,AUTO
          1 000050  CBF0 0100                            LAB,B4   256,IMO
          1 000052  E381                                 LNJ,B6   ,B1
          1 000053       0001                            DC       s:593,PREL

     1975      593    3                GOTO START_OVER;

    593   1 000054  0FC4                                 B        s:517,SPREL

     1976      594    3                END/*do if time < rtime*/;
     1977      595    2           END/*do if hd$ ~nil*/;
     1978      596
     1979      597           %UNLOCK (G=G_LNK_CLKGATE);

    602   1 000055  BB80 0000 0000  02                   LAB,B3   0
          1 000058  CBF0 0100                            LAB,B4   256,IMO
          1 00005A  E380 0000 0000  xent                 LNJ,B6   GHH$UNLOCK
          1 00005D       0001                            DC       s:592,PREL

    592   1                              TMX1            null
     1980      604
     1981      605
     1982      606    1   TMX1: ;
     1983      607    1      I = GH_HQ(%GH_W);

    607   1 00005E  E800 0000 000E  xsym TMX1            LDR,R6   GH_HQ+14
          1 000061  EF47 0006                            STR,R6   I,AUTO

     1984      608    1      IF I ~=  0 AND G$USER.MISC(I) <= RTIME

    608   1 000063  6901 0022                            BEZ,R6   s:614,PREL
PL6.E3A0      #008=GHS$MONTMR File=GHS$SCHD.:E05TSI                              TUE 07/29/97 21:46 Page:330
          1 000065  EC80 0000 0000  xsym                 LDB,B6   G$USRT$
          1 000068  DBC6 0005                            LAB,B5   5,B6
          1 00006A  B856                                 LDR,R3   R6
          1 00006B  3F0C                                 MLV,R3   12
          1 00006C  8CB5                                 LDI      ,B5,R3
          1 00006D  84C7 0007                            SID      RTIME,AUTO
          1 00006F  6981 0003                            BNEZ,R6  s:608+16,PREL
          1 000071  7901 0003                            BEZ,R7   s:610,PREL
          1 000073  0601 0012                            BCT      s:614,PREL

     1985      609    2      THEN DO;

     1986      610    2           CALL GHS$RUE(%GH_EVWU,I);       /* his time has come                  */

    610   1 000075  DBF0 0002                            LAB,B5   2,IMO
          1 000077  CBC7 0006                            LAB,B4   I,AUTO
          1 000079  CFC7 0016                            STB,B4   TMR$+6,AUTO
          1 00007B  DFC7 0014                            STB,B5   TMR$+4,AUTO
          1 00007D  BBC7 0014                            LAB,B3   TMR$+4,AUTO
          1 00007F  CBF0 0200                            LAB,B4   512,IMO
          1 000081  E380 0000 0000  xent                 LNJ,B6   GHS$RUE
          1 000084       0001                            DC       s:611,PREL

     1987      611    2           GOTO TMX1;                      /* back for next sleeper              */

    611   1 000085  0FD9                                 B        s:592,SPREL

     1988      612    2           END;
     1989      613
     1990      614    2      DO WHILE (GH_CLOCKHD ~=  -1 AND G$USER.UTS(GH_CLOCKHD) <= RTIME);

    614   1 000086  0F81 0044                            B        s:635,PREL

     1991      615                %LOCK (G = G_CLKGATE);

    620   1 000088  BB80 0000 0002  02                   LAB,B3   +2
          1 00008B  CBF0 0100                            LAB,B4   256,IMO
PL6.E3A0      #008=GHS$MONTMR File=GHS$SCHD.:E05TSI                              TUE 07/29/97 21:46 Page:331
          1 00008D  E380 0000 0000  xent                 LNJ,B6   GHH$LOCK
          1 000090       0001                            DC       s:623,PREL

     1992      622
     1993      623    2           I = GH_CLOCKHD;

    623   1 000091  E800 0000 0000  xsym                 LDR,R6   GH_CLOCKHD
          1 000094  EF47 0006                            STR,R6   I,AUTO

     1994      624    2           GH_CLOCKHD  =  G$USER.CLOCK(I);

    624   1 000096  EC80 0000 0000  xsym                 LDB,B6   G$USRT$
          1 000099  B856                                 LDR,R3   R6
          1 00009A  3F18                                 MLV,R3   24
          1 00009B  3E09                                 ADV,R3   9
          1 00009C  E836                                 LDR,R6   ,B6,R3
          1 00009D  EF00 0000 0000  xsym                 STR,R6   GH_CLOCKHD

     1995      625    2           G$USER.CLOCK(I) = 0;

    625   1 0000A0  8736                                 CL       ,B6,R3

     1996      626    2           CALL GHS$EVENT (I,0,%G_RTTMRSC#,0,,0);

    626   1 0000A1  EBF0 0000                            LAB,B6   0,IMO
          1 0000A3  DBF0 0001                            LAB,B5   1,IMO
          1 0000A5  CBF0 0000                            LAB,B4   0,IMO
          1 0000A7  BBF0 0000                            LAB,B3   0,IMO
          1 0000A9  BFC7 001E                            STB,B3   TMR$+14,AUTO
          1 0000AB  AB80 0000 0000                       LAB,B2   0
          1 0000AE  AFC7 001C                            STB,B2   TMR$+12,AUTO
          1 0000B0  CFC7 001A                            STB,B4   TMR$+10,AUTO
          1 0000B2  DFC7 0018                            STB,B5   TMR$+8,AUTO
          1 0000B4  EFC7 0016                            STB,B6   TMR$+6,AUTO
          1 0000B6  9BC7 0006                            LAB,B1   I,AUTO
          1 0000B8  9FC7 0014                            STB,B1   TMR$+4,AUTO
          1 0000BA  BBC7 0014                            LAB,B3   TMR$+4,AUTO
PL6.E3A0      #008=GHS$MONTMR File=GHS$SCHD.:E05TSI                              TUE 07/29/97 21:46 Page:332
          1 0000BC  CBF0 0600                            LAB,B4   1536,IMO
          1 0000BE  E380 0000 0000  xent                 LNJ,B6   GHS$EVENT
          1 0000C1       0001                            DC       s:633,PREL

     1997      627
     1998      628                %UNLOCK (G = G_CLKGATE);

    633   1 0000C2  BB80 0000 0002  02                   LAB,B3   +2
          1 0000C5  CBF0 0100                            LAB,B4   256,IMO
          1 0000C7  E380 0000 0000  xent                 LNJ,B6   GHH$UNLOCK
          1 0000CA       0001                            DC       s:635,PREL

     1999      635    2           END;

    635   1 0000CB  E800 0000 0000  xsym                 LDR,R6   GH_CLOCKHD
          1 0000CE  6DFF                                 CMV,R6   -1
          1 0000CF  0901 0011                            BE       s:636,PREL
          1 0000D1  EC80 0000 0000  xsym                 LDB,B6   G$USRT$
          1 0000D4  DBC6 0007                            LAB,B5   7,B6
          1 0000D6  B856                                 LDR,R3   R6
          1 0000D7  3F0C                                 MLV,R3   12
          1 0000D8  8CB5                                 LDI      ,B5,R3
          1 0000D9  84C7 0007                            SID      RTIME,AUTO
          1 0000DB  0681 FFAC                            BCF      s:620,PREL
          1 0000DD  6981 0003                            BNEZ,R6  s:636,PREL
          1 0000DF  7901 FFA8                            BEZ,R7   s:620,PREL

     2000      636    1      RETURN;

    636   1 0000E1  C380 0000 0000  xent                 LNJ,B4   X6A_ARET

     2001      637        %EJECT;
PL6.E3A0      #008=GHS$MONTMR File=GHS$SCHD.:E05TSI                              TUE 07/29/97 21:46 Page:333
     2002      638        /*D* NAME: GHS$SET_TMR
     2003      639             CALL:
     2004      640                  CALL GHS$SET_TMR (GH$TMR_BLK);
     2005      641             PARAMETERS:
     2006      642                   A structure built using the GH$TMR_BLK macro initialized
     2007      643                   as follows:
     2008      644                     INTERVAL is a time interval from the current time when
     2009      645                              the specified procedure is to be called.
     2010      646
     2011      647                     PROC$ is an EPTR to a monitor procedure to be called.
     2012      648
     2013      649                     ARG is an argument to be passed on the call.
     2014      650
     2015      651             DESCRIPTION:
     2016      652                  An entry containing the call time, Entry and Argument is
     2017      653                  sorted onto a linked list of entries in order of call times.
     2018      654        */
     2019      655
     2020      656
     2021      657
     2022      658    1   GHS$SET_TMR: ENTRY(GH$TMR);

    658   1 0000E4  D380 0000 0000  xent GHS$SET_TMR     LNJ,B5   X6A_AUTO_1
          1 0000E7       0020 0001                       DC       32,1

     2023      659           %LOCK (G=G_LNK_CLKGATE);

    664   1 0000E9  BB80 0000 0000  02                   LAB,B3   0
          1 0000EC  CBF0 0100                            LAB,B4   256,IMO
          1 0000EE  E380 0000 0000  xent                 LNJ,B6   GHH$LOCK
          1 0000F1       0001                            DC       s:666,PREL

     2024      666    1      TMR$ = ADDR(GH$TMR);

    666   1 0000F2  ECC7 0004                            LDB,B6   @GH$TMR,AUTO
          1 0000F4  EFC7 0010                            STB,B6   TMR$,AUTO

PL6.E3A0      #008=GHS$MONTMR File=GHS$SCHD.:E05TSI                              TUE 07/29/97 21:46 Page:334
     2025      667
     2026      668    1      CALL UNLINK_BLOCK;                   /*in case its a call to reset*/

    668   1 0000F6  E3C0 007D                            LNJ,B6   s:0,PREL
          1 0000F8       0001                            DC       s:670,PREL

     2027      669
     2028      670    1      CALL GHI$UTS(RTIME);                 /* Get current time                   */

    670   1 0000F9  EBC7 0007                            LAB,B6   RTIME,AUTO
          1 0000FB  EFC7 0014                            STB,B6   TMR$+4,AUTO
          1 0000FD  BBC7 0014                            LAB,B3   TMR$+4,AUTO
          1 0000FF  CBF0 0100                            LAB,B4   256,IMO
          1 000101  E380 0000 0000  xent                 LNJ,B6   GHI$UTS
          1 000104       0001                            DC       s:671,PREL

     2029      671    1      RTIME  =  RTIME + GH$TMR.INTERVAL;   /* Plus his interval                  */

    671   1 000105  ECC7 0004                            LDB,B6   @GH$TMR,AUTO
          1 000107  F846 0003                            LDR,R7   3,B6
          1 000109  6C00                                 LDV,R6   0
          1 00010A  8447 0007                            AID      RTIME,AUTO
          1 00010C  8D47 0007                            SDI      RTIME,AUTO

     2030      672    1      GH$TMR.WAKEUP = RTIME;

    672   1 00010E  8D46 0004                            SDI      4,B6

     2031      673
     2032      674
     2033      675    1      BLINK$ = ADDR(NIL);

    675   1 000110  DB80 0000 0000                       LAB,B5   0
          1 000113  DFC7 0009                            STB,B5   BLINK$,AUTO

     2034      676    1      FLINK$ = GH$TMR_HD$;

PL6.E3A0      #008=GHS$MONTMR File=GHS$SCHD.:E05TSI                              TUE 07/29/97 21:46 Page:335
    676   1 000115  CC80 0000 0000  00                   LDB,B4   GH$TMR_HD$
          1 000118  CFC7 000B                            STB,B4   FLINK$,AUTO

     2035      677
     2036      678    2      DO WHILE (FLINK$ ~= ADDR(NIL) );

    678   1 00011A  0F81 0034                            B        s:703,PREL

     2037      679    2           IF RTIME < FLINK$->G$TMR.WAKEUP

    679   1 00011C  ECC7 000B                            LDB,B6   FLINK$,AUTO
          1 00011E  8CC7 0007                            LDI      RTIME,AUTO
          1 000120  84C6 0004                            SID      4,B6
          1 000122  0601 0026                            BCT      s:701,PREL

     2038      680    3           THEN DO;

     2039      681    3                FLINK$->G$TMR.BLINK$ = ADDR(GH$TMR);

    681   1 000124  DCC7 0004                            LDB,B5   @GH$TMR,AUTO
          1 000126  DFC6 0008                            STB,B5   8,B6

    681   1                              ADD_TO_END      null
     2040      682
     2041      683    3   ADD_TO_END:  ;
     2042      684    3                GH$TMR.FLINK$ = FLINK$;

    684   1 000128  ECC7 000B            ADD_TO_END      LDB,B6   FLINK$,AUTO
          1 00012A  DCC7 0004                            LDB,B5   @GH$TMR,AUTO
          1 00012C  EFC5 0006                            STB,B6   6,B5

     2043      685    3                GH$TMR.BLINK$ = BLINK$;

    685   1 00012E  CCC7 0009                            LDB,B4   BLINK$,AUTO
          1 000130  CFC5 0008                            STB,B4   8,B5

     2044      686
PL6.E3A0      #008=GHS$MONTMR File=GHS$SCHD.:E05TSI                              TUE 07/29/97 21:46 Page:336
     2045      687    3                IF BLINK$ ~= ADDR(NIL)

    687   1 000132  8DC7 0009                            CMN      BLINK$,AUTO
          1 000134  0901 0005                            BE       s:689,PREL

     2046      688    3                THEN BLINK$->G$TMR.FLINK$ = ADDR(GH$TMR);

    688   1 000136  DFC4 0006                            STB,B5   6,B4
          1 000138  0F81 0004                            B        s:696,PREL

     2047      689    3                ELSE GH$TMR_HD$ = ADDR(GH$TMR);

    689   1 00013A  DF80 0000 0000  00                   STB,B5   GH$TMR_HD$

     2048      690
     2049      691                     %UNLOCK (G=G_LNK_CLKGATE);

    696   1 00013D  BB80 0000 0000  02                   LAB,B3   0
          1 000140  CBF0 0100                            LAB,B4   256,IMO
          1 000142  E380 0000 0000  xent                 LNJ,B6   GHH$UNLOCK
          1 000145       0001                            DC       s:698,PREL

     2050      698    3                RETURN;

    698   1 000146  C380 0000 0000  xent                 LNJ,B4   X6A_ARET

     2051      699    3                END;
     2052      700
     2053      701    2           BLINK$ = FLINK$;

    701   1 000149  EFC7 0009                            STB,B6   BLINK$,AUTO

     2054      702    2           FLINK$ = FLINK$->G$TMR.FLINK$;

    702   1 00014B  DCC6 0006                            LDB,B5   6,B6
          1 00014D  DFC7 000B                            STB,B5   FLINK$,AUTO

PL6.E3A0      #008=GHS$MONTMR File=GHS$SCHD.:E05TSI                              TUE 07/29/97 21:46 Page:337
     2055      703    2           END;

    703   1 00014F  8DC7 000B                            CMN      FLINK$,AUTO
          1 000151  09CB                                 BNE      s:679,SPREL

     2056      704
     2057      705    1      GOTO ADD_TO_END;

    705   1 000152  0FD6                                 B        s:681,SPREL

     2058      706
     2059      707        %EJECT;
PL6.E3A0      #008=GHS$MONTMR File=GHS$SCHD.:E05TSI                              TUE 07/29/97 21:46 Page:338
     2060      708        /*D*  NAME: GHS$CANCEL_TMR
     2061      709              CALL: CALL GHS$CANCEL_TMR (gh$tmr);
     2062      710              PARAMETERS:
     2063      711                    gh$tmr is the monitor timer block entry to be cancelled.
     2064      712              DESCRIPTION:
     2065      713                    The specified montimer entry is cancelled.
     2066      714        */
     2067      715
     2068      716    1   GHS$CANCEL_TMR: ENTRY(GH$TMR);

    716   1 000153  D380 0000 0000  xent GHS$CANCEL_TMR  LNJ,B5   X6A_AUTO_1
          1 000156       0020 0001                       DC       32,1

     2069      717
     2070      718           %LOCK (G=G_LNK_CLKGATE);

    723   1 000158  BB80 0000 0000  02                   LAB,B3   0
          1 00015B  CBF0 0100                            LAB,B4   256,IMO
          1 00015D  E380 0000 0000  xent                 LNJ,B6   GHH$LOCK
          1 000160       0001                            DC       s:725,PREL

     2071      725    1      TMR$ = ADDR(GH$TMR);

    725   1 000161  ECC7 0004                            LDB,B6   @GH$TMR,AUTO
          1 000163  EFC7 0010                            STB,B6   TMR$,AUTO

     2072      726    1      CALL UNLINK_BLOCK;

    726   1 000165  E3C0 000E                            LNJ,B6   s:0,PREL
          1 000167       0001                            DC       s:732,PREL

     2073      727           %UNLOCK (G=G_LNK_CLKGATE);

    732   1 000168  BB80 0000 0000  02                   LAB,B3   0
          1 00016B  CBF0 0100                            LAB,B4   256,IMO
          1 00016D  E380 0000 0000  xent                 LNJ,B6   GHH$UNLOCK
          1 000170       0001                            DC       s:734,PREL
PL6.E3A0      #008=GHS$MONTMR File=GHS$SCHD.:E05TSI                              TUE 07/29/97 21:46 Page:339

     2074      734    1      RETURN;

    734   1 000171  C380 0000 0000  xent                 LNJ,B4   X6A_ARET

     2075      735        %EJECT;
PL6.E3A0      #008=GHS$MONTMR File=GHS$SCHD.:E05TSI                              TUE 07/29/97 21:46 Page:340
     2076      736
     2077      737
     2078      738    1   UNLINK_BLOCK: PROC;

    738   1 000174  EFC7 0012            UNLINK_BLOCK    STB,B6   TMR$+2,AUTO

     2079      739
     2080      740    2      IF TMR$->G$TMR.WAKEUP ~= 0

    740   1 000176  DCC7 0010                            LDB,B5   TMR$,AUTO
          1 000178  8CC5 0004                            LDI      4,B5
          1 00017A  84F0 0000 0000                       SID      0,IMO
          1 00017D  6981 0003                            BNEZ,R6  s:742,PREL
          1 00017F  7901 002A                            BEZ,R7   s:755,PREL

     2081      741    3      THEN DO;

     2082      742    3           TMR$->G$TMR.WAKEUP = 0;

    742   1 000181  8745 0004                            CL       4,B5
          1 000183  8745 0005                            CL       5,B5

     2083      743
     2084      744    3           IF TMR$->G$TMR.BLINK$ = ADDR(NIL)

    744   1 000185  8DC5 0008                            CMN      8,B5
          1 000187  0981 0008                            BNE      s:746,PREL

     2085      745    3           THEN GH$TMR_HD$ = TMR$->G$TMR.FLINK$;

    745   1 000189  ECC5 0006                            LDB,B6   6,B5
          1 00018B  EF80 0000 0000  00                   STB,B6   GH$TMR_HD$
          1 00018E  0F81 0007                            B        s:748,PREL

     2086      746    3           ELSE TMR$->G$TMR.BLINK$->G$TMR.FLINK$ = TMR$->G$TMR.FLINK$;

    746   1 000190  ECC5 0008                            LDB,B6   8,B5
PL6.E3A0      #008=GHS$MONTMR File=GHS$SCHD.:E05TSI                              TUE 07/29/97 21:46 Page:341
          1 000192  CCC5 0006                            LDB,B4   6,B5
          1 000194  CFC6 0006                            STB,B4   6,B6

     2087      747
     2088      748    3           IF TMR$->G$TMR.FLINK$ ~= ADDR(NIL)

    748   1 000196  8DC5 0006                            CMN      6,B5
          1 000198  0901 0007                            BE       s:751,PREL

     2089      749    3           THEN TMR$->G$TMR.FLINK$->G$TMR.BLINK$ = TMR$->G$TMR.BLINK$;

    749   1 00019A  ECC5 0006                            LDB,B6   6,B5
          1 00019C  CCC5 0008                            LDB,B4   8,B5
          1 00019E  CFC6 0008                            STB,B4   8,B6

     2090      750
     2091      751    3           TMR$->G$TMR.BLINK$ = ADDR(NIL);

    751   1 0001A0  EB80 0000 0000                       LAB,B6   0
          1 0001A3  EFC5 0008                            STB,B6   8,B5

     2092      752    3           TMR$->G$TMR.FLINK$ = ADDR(NIL);

    752   1 0001A5  CB80 0000 0000                       LAB,B4   0
          1 0001A8  CFC5 0006                            STB,B4   6,B5

     2093      753    3           END;

     2094      754
     2095      755    2      RETURN;

    755   1 0001AA  ECC7 0012                            LDB,B6   TMR$+2,AUTO
          1 0001AC  C3C6 0001                            LNJ,B4   1,B6
     2096      756    2   END UNLINK_BLOCK;
     2097      757    1   END GHS$MONTMR;

PL6.E3A0      #008=GHS$MONTMR File=GHS$SCHD.:E05TSI                              TUE 07/29/97 21:46 Page:342
--  Include file information  --

   GH_GATE_M.:E05TOU  cannot be made into a system file and is referenced.
   GH_HARDWARE_M.:E05TOU  is referenced.
   GH_SCHD_E.:E05TOU  is referenced.
   GH_SCHD_M.:E05TOU  is referenced.
   G_LCP6_E.:E05TOU  was found in the system file and is referenced.
   GT_LCP6_M.:E05TOU  was found in the system file and is never referenced.
   KI_CP6.:E05TOU  was found in the system file and is never referenced.
   GF_LCP6_M.:E05TOU  was found in the system file and is never referenced.
   GM_LCP6_M.:E05TOU  was found in the system file and is never referenced.
   GU_LCP6_M.:E05TOU  was found in the system file and is referenced.
   GJ_LCP6_M.:E05TOU  was found in the system file and is never referenced.
   GH_LCP6_M.:E05TOU  was found in the system file and is referenced.
      No diagnostics issued in procedure GHS$MONTMR.
PL6.E3A0      #008=GHS$MONTMR File=GHS$SCHD.:E05TSI                              TUE 07/29/97 21:46 Page:343

 **** Variables and constants ****

  ****  Section 000  Data  GHS$MONTMR

  ****  Scalars and arrays  ****
HexLoc.c.b A Datatyp(siz) R M Lvl/name                 HexLoc.c.b A Datatyp(siz) R M Lvl/name

     0-0-0/w PTR         r     1 GH$TMR_HD$                 2-0-0/w STRC(48)    r     1 G_LNK_CLKGATE

  ****  Auto variables  ****

  ****  Scalars and arrays  ****
HexLoc.c.b A Datatyp(siz) R M Lvl/name                 HexLoc.c.b A Datatyp(siz) R M Lvl/name

     4-0-0/w PTR         r     1 @GH$TMR                    F-0-0/w UBIN(16)    r     1 ARG
     9-0-0/w PTR         r     1 BLINK$                     B-0-0/w PTR         r     1 FLINK$
    *0-0-0/w STRC(160)   r     1 GH$TMR                     6-0-0/w SBIN(16)    r     1 I
     7-0-0/w UBIN(32)    r     1 RTIME                     10-0-0/w PTR         r     1 TMR$
     D-0-0/w EPTR        r     1 TMR_PROC$

  ****  SYMREF variables  ****

  ****  Scalars and arrays  ****
HexLoc.c.b A Datatyp(siz) R M Lvl/name                 HexLoc.c.b A Datatyp(siz) R M Lvl/name

     0-0-0/w PTR         r     1 G$USRT$                    0-0-0/w UBIN(16)    r     1 GH_CLOCKHD
     0-0-0/w UBIN(16)    r     1 GH_HQ(0:0)                 0-0-0/w STRC(48)    r     1 G_CLKGATE

  ****  BASED and DCB variables  ****

  ****  Scalars and arrays  ****
HexLoc.c.b A Datatyp(siz) R M Lvl/name                 HexLoc.c.b A Datatyp(siz) R M Lvl/name

     0-0-0/w STRC(160)   r     1 G$TMR                      0-0-0/w STRC(384)   r     1 G$USER(0:0)

PL6.E3A0      #008=GHS$MONTMR File=GHS$SCHD.:E05TSI                              TUE 07/29/97 21:46 Page:344

   Procedure GHS$MONTMR requires 430 words for executable code.
   Procedure GHS$MONTMR requires 32 words of local(AUTO) storage.

    No errors detected in file GHS$SCHD.:E05TSI    .
PL6.E3A0      #008=GHS$MONTMR File=GHS$SCHD.:E05TSI                              TUE 07/29/97 21:46 Page:345
          *** CROSS REFERENCE LISTING ***
**     DENOTES     IDENTIFIER DEFINITION
<<                 IDENTIFIER'S VALUE SET
>>                 IDENTIFIER'S VALUE USED
<>                 IDENTIFIER SET AND/OR USED
--                 IDENTIFIER REFERENCED
PL6.E3A0      #008=GHS$MONTMR File=GHS$SCHD.:E05TSI                              TUE 07/29/97 21:46 Page:346
          MINI XREF LISTING

ADD_TO_END
       681**LABEL     705--GOTO
ARG
       432**DCL       578<<ASSIGN    592<>CALL
BLINK$
       429**DCL       675<<ASSIGN    685>>ASSIGN    687>>IF        688>>ASSIGN    701<<ASSIGN
FLINK$
       430**DCL       676<<ASSIGN    678>>DOWHILE   679>>IF        681>>ASSIGN    684>>ASSIGN    701>>ASSIGN
       702<<ASSIGN    702>>ASSIGN
G$TMR.ARG
       453**DCL       454--REDEF     578>>ASSIGN
G$TMR.BLINK$
       456**DCL       681<<ASSIGN    744>>IF        746>>ASSIGN    749<<ASSIGN    749>>ASSIGN    751<<ASSIGN
G$TMR.FLINK$
       455**DCL       688<<ASSIGN    702>>ASSIGN    745>>ASSIGN    746<<ASSIGN    746>>ASSIGN    748>>IF
       749>>ASSIGN    752<<ASSIGN
G$TMR.PROC$
       453**DCL       579>>ASSIGN
G$TMR.WAKEUP
       455**DCL       576>>IF        679>>IF        740>>IF        742<<ASSIGN
G$USER.CLOCK
       465**DCL       624>>ASSIGN    625<<ASSIGN
G$USER.MISC
       464**DCL       464--REDEF     608>>IF
G$USER.UTS
       465**DCL       614>>DOWHILE
G$USRT$
       474**DCL       463--IMP-PTR   608>>IF        614>>DOWHILE   624>>ASSIGN    625>>ASSIGN
GH$TMR
       416**DCL        16--PROC      658--ENTRY     666--ASSIGN    681--ASSIGN    688--ASSIGN    689--ASSIGN
       716--ENTRY     725--ASSIGN
GH$TMR.ARG
PL6.E3A0      #008=GHS$MONTMR File=GHS$SCHD.:E05TSI                              TUE 07/29/97 21:46 Page:347
       420**DCL       421--REDEF
GH$TMR.BLINK$
       423**DCL       685<<ASSIGN
GH$TMR.FLINK$
       422**DCL       684<<ASSIGN
GH$TMR.INTERVAL
       421**DCL       671>>ASSIGN
GH$TMR.WAKEUP
       422**DCL       672<<ASSIGN
GH$TMR_HD$
       471**DCL       574>>IF        576>>IF        578>>ASSIGN    579>>ASSIGN    581>>ASSIGN    676>>ASSIGN
       689<<ASSIGN    745<<ASSIGN
GHH$LOCK
       398**DCL-ENT   572--CALL      620--CALL      664--CALL      723--CALL
GHH$UNLOCK
       398**DCL-ENT   589--CALL      602--CALL      633--CALL      696--CALL      732--CALL
GHI$UTS
       517**DCL-ENT   564--CALL      670--CALL
GHS$EVENT
       519**DCL-ENT   626--CALL
GHS$RUE
       518**DCL-ENT   610--CALL
GH_CLOCKHD
       476**DCL       614>>DOWHILE   614>>DOWHILE   623>>ASSIGN    624<<ASSIGN
GH_HQ
       475**DCL       607>>ASSIGN
G_CLKGATE
       489**DCL       620<>CALL      633<>CALL
G_LNK_CLKGATE
       508**DCL       572<>CALL      589<>CALL      602<>CALL      664<>CALL      696<>CALL      723<>CALL
       732<>CALL
I
       427**DCL       607<<ASSIGN    608>>IF        608>>IF        610<>CALL      623<<ASSIGN    624>>ASSIGN
       625>>ASSIGN    626<>CALL
RTIME
       428**DCL       564<>CALL      576>>IF        608>>IF        614>>DOWHILE   670<>CALL      671<<ASSIGN
PL6.E3A0      #008=GHS$MONTMR File=GHS$SCHD.:E05TSI                              TUE 07/29/97 21:46 Page:348
       671>>ASSIGN    672>>ASSIGN    679>>IF
START_OVER
       517**LABEL     593--GOTO
TMR$
       433**DCL       581<<ASSIGN    666<<ASSIGN    725<<ASSIGN    740>>IF        742>>ASSIGN    744>>IF
       745>>ASSIGN    746>>ASSIGN    746>>ASSIGN    748>>IF        749>>ASSIGN    749>>ASSIGN    751>>ASSIGN
       752>>ASSIGN
TMR_PROC$
       431**DCL       579<<ASSIGN    592>>CALL
TMX1
       592**LABEL     611--GOTO
UNLINK_BLOCK
       738**PROC      582--CALL      668--CALL      726--CALL
