VERSION E05

PL6.E3A0      #001=GHT_DATA_D File=GHT_DATA_D.:E05TSI                            TUE 07/29/97 21:39 Page:1
        1        1        /*M* GHT_DATA_D  Data used by the LCP-6 Trap Handler  */
        2        2        /*T***********************************************************/
        3        3        /*T*                                                         */
        4        4        /*T* Copyright (c) Bull HN Information Systems Inc., 1997    */
        5        5        /*T*                                                         */
        6        6        /*T***********************************************************/
        7        7
        8        8        GHT_DATA_D: PROC;
        9        9        %INCLUDE GH_HARDWARE_M;
       10      107 S      %INCLUDE G_LCP6_E;
       11      108
       12      109        %LIST;
       13      110
       14      111        %GH_LEV (FPTN=GH_LEV_INHIBIT,
       15      112                 STCLASS=CONSTANT SYMDEF,
       16      113                 TYPE=INHIBIT,
       17      114                 LEVEL=%G_IL_INHIBIT#);
               115        %LSET LISTDIR='0'B;
               133    1   DCL 1 GH_LEV_INHIBIT CONSTANT SYMDEF ALIGNED,2 TYPE  UBIN(10)UNAL INIT(2)/**/,2
               133            LEVEL  UBIN(6)UNAL INIT
               134    1   (4)/**/;
       18      136
       19      137        %GH_LEV (FPTN=GH_LEV_SUS_INH,
       20      138                 STCLASS=CONSTANT SYMDEF,
       21      139                 TYPE=SUSPEND_INHIBIT,
       22      140                 LEVEL=%G_IL_INHIBIT#);
               141        %LSET LISTDIR='0'B;
               159    1   DCL 1 GH_LEV_SUS_INH CONSTANT SYMDEF ALIGNED,2 TYPE  UBIN(10)UNAL INIT(514)/**/,2
               159            LEVEL  UBIN(6)UNAL INIT
               160    1   (4)/**/;
       23      162
       24      163        %GH_LEV (FPTN=GH_LEV_DB_INH,
       25      164                 STCLASS=CONSTANT SYMDEF,
       26      165                 TYPE=INHIBIT,
       27      166                 LEVEL=%G_IL_DBINH#);
               167        %LSET LISTDIR='0'B;
               185    1   DCL 1 GH_LEV_DB_INH CONSTANT SYMDEF ALIGNED,2 TYPE  UBIN(10)UNAL INIT(2)/**/,2
PL6.E3A0      #001=GHT_DATA_D File=GHT_DATA_D.:E05TSI                            TUE 07/29/97 21:39 Page:2
               185            LEVEL  UBIN(6)UNAL INIT
               186    1   (10)/**/;
       28      188
       29      189        %GH_LEV (FPTN=GH_LEV_SUS,
       30      190                 STCLASS=CONSTANT SYMDEF,
       31      191                 TYPE=SUSPEND);
               192        %LSET LISTDIR='0'B;
               210    1   DCL 1 GH_LEV_SUS CONSTANT SYMDEF ALIGNED,2 TYPE  UBIN(10)UNAL INIT(512)/**/,2 LEVEL
               210            UBIN(6)UNAL INIT
               211    1   (63)/**/;
       32      213        %GH_LEV (FPTN=GH_TRIG_SCHD,
       33      214                 STCLASS=CONSTANT SYMDEF,
       34      215                 TYPE=DEFER,
       35      216                 LEVEL=%G_IL_SCHD#);
               217        %LSET LISTDIR='0'B;
               235    1   DCL 1 GH_TRIG_SCHD CONSTANT SYMDEF ALIGNED,2 TYPE  UBIN(10)UNAL INIT(256)/**/,2
               235            LEVEL  UBIN(6)UNAL INIT
               236    1   (62)/**/;
       36      238        %GH_LEV (FPTN=GH_LEV_SCHD,
       37      239                 STCLASS=CONSTANT SYMDEF,
       38      240                 TYPE=TRIGGER,
       39      241                 LEVEL=%G_IL_SCHD#);
               242        %LSET LISTDIR='0'B;
               260    1   DCL 1 GH_LEV_SCHD CONSTANT SYMDEF ALIGNED,2 TYPE  UBIN(10)UNAL INIT(0)/**/,2 LEVEL
               260            UBIN(6)UNAL INIT
               261    1   (62)/**/;
       40      263    1   END GHT_DATA_D;

PL6.E3A0      #001=GHT_DATA_D File=GHT_DATA_D.:E05TSI                            TUE 07/29/97 21:39 Page:3
--  Include file information  --

   GH_HARDWARE_M.:E05TOU  is referenced.
   G_LCP6_E.:E05TOU  was found in the system file and is referenced.
   GT_LCP6_M.:E05TOU  was found in the system file and is never referenced.
   KI_CP6.:E05TOU  was found in the system file and is never referenced.
   GF_LCP6_M.:E05TOU  was found in the system file and is never referenced.
   GM_LCP6_M.:E05TOU  was found in the system file and is never referenced.
   GU_LCP6_M.:E05TOU  was found in the system file and is never referenced.
   GJ_LCP6_M.:E05TOU  was found in the system file and is never referenced.
   GH_LCP6_M.:E05TOU  was found in the system file and is never referenced.
      No diagnostics issued in procedure GHT_DATA_D.

   No code generated for procedure GHT_DATA_D .
   Procedure GHT_DATA_D requires 4 words of local(AUTO) storage.

    No errors detected in file GHT_DATA_D.:E05TSI    .

PL6.E3A0      #001=GHT_DATA_D File=GHT_DATA_D.:E05TSI                            TUE 07/29/97 21:39 Page:4

 Object Unit name= GHT_DATA_D                                 File name= GHT_DATA_D.:E05TOU
 UTS= JUL 29 '97 21:39:58.72 TUE                              Compiler= PL-6/E31         Sev=      00
 SharedLib= :SHARED_LCP6_SYSTEM                               Alt SharedLib=


    ****  Control sections  ****

 Sect   Type Bound  Init  Size HexSiz  Section name
    0  RoData even  UTS      6      6  GHT_DATA_D
    1   Proc  even  none     0      0  GHT_DATA_D

    ****  Entry defs  ****

                              Check   Calling
                             calling  sequence
  Sect HexLoc Primary Altret sequence   type   Parms  Name
     1      0   yes            yes     ~proc       0  GHT_DATA_D

  ****  Data defs  ****

 Sect HexLoc  Name                           Sect HexLoc  Name
    0      0  GH_LEV_INHIBIT                     0      1  GH_LEV_SUS_INH
    0      2  GH_LEV_DB_INH                      0      3  GH_LEV_SUS
    0      4  GH_TRIG_SCHD                       0      5  GH_LEV_SCHD

  ****  Data refs  ****

  Flags:  r = read only, s = secondary
Flgs Name                             Flgs Name                             Flgs Name
r    G$ROS$
PL6.E3A0      #001=GHT_DATA_D File=GHT_DATA_D.:E05TSI                            TUE 07/29/97 21:39 Page:5

        1        1        /*M* GHT_DATA_D  Data used by the LCP-6 Trap Handler  */
        2        2        /*T***********************************************************/
        3        3        /*T*                                                         */
        4        4        /*T* Copyright (c) Bull HN Information Systems Inc., 1997    */
        5        5        /*T*                                                         */
        6        6        /*T***********************************************************/
        7        7
        8        8        GHT_DATA_D: PROC;
        9        9        %INCLUDE GH_HARDWARE_M;
       10      107 S      %INCLUDE G_LCP6_E;
       11      108
       12      109        %LIST;
       13      110
       14      111        %GH_LEV (FPTN=GH_LEV_INHIBIT,
       15      112                 STCLASS=CONSTANT SYMDEF,
       16      113                 TYPE=INHIBIT,
       17      114                 LEVEL=%G_IL_INHIBIT#);
               115        %LSET LISTDIR='0'B;
               133    1   DCL 1 GH_LEV_INHIBIT CONSTANT SYMDEF ALIGNED,2 TYPE  UBIN(10)UNAL INIT(2)/**/,2
               133            LEVEL  UBIN(6)UNAL INIT
               134    1   (4)/**/;
       18      136
       19      137        %GH_LEV (FPTN=GH_LEV_SUS_INH,
       20      138                 STCLASS=CONSTANT SYMDEF,
       21      139                 TYPE=SUSPEND_INHIBIT,
       22      140                 LEVEL=%G_IL_INHIBIT#);
               141        %LSET LISTDIR='0'B;
               159    1   DCL 1 GH_LEV_SUS_INH CONSTANT SYMDEF ALIGNED,2 TYPE  UBIN(10)UNAL INIT(514)/**/,2
               159            LEVEL  UBIN(6)UNAL INIT
               160    1   (4)/**/;
       23      162
       24      163        %GH_LEV (FPTN=GH_LEV_DB_INH,
       25      164                 STCLASS=CONSTANT SYMDEF,
       26      165                 TYPE=INHIBIT,
       27      166                 LEVEL=%G_IL_DBINH#);
               167        %LSET LISTDIR='0'B;
               185    1   DCL 1 GH_LEV_DB_INH CONSTANT SYMDEF ALIGNED,2 TYPE  UBIN(10)UNAL INIT(2)/**/,2
PL6.E3A0      #001=GHT_DATA_D File=GHT_DATA_D.:E05TSI                            TUE 07/29/97 21:39 Page:6
               185            LEVEL  UBIN(6)UNAL INIT
               186    1   (10)/**/;
       28      188
       29      189        %GH_LEV (FPTN=GH_LEV_SUS,
       30      190                 STCLASS=CONSTANT SYMDEF,
       31      191                 TYPE=SUSPEND);
               192        %LSET LISTDIR='0'B;
               210    1   DCL 1 GH_LEV_SUS CONSTANT SYMDEF ALIGNED,2 TYPE  UBIN(10)UNAL INIT(512)/**/,2 LEVEL
               210            UBIN(6)UNAL INIT
               211    1   (63)/**/;
       32      213        %GH_LEV (FPTN=GH_TRIG_SCHD,
       33      214                 STCLASS=CONSTANT SYMDEF,
       34      215                 TYPE=DEFER,
       35      216                 LEVEL=%G_IL_SCHD#);
               217        %LSET LISTDIR='0'B;
               235    1   DCL 1 GH_TRIG_SCHD CONSTANT SYMDEF ALIGNED,2 TYPE  UBIN(10)UNAL INIT(256)/**/,2
               235            LEVEL  UBIN(6)UNAL INIT
               236    1   (62)/**/;
       36      238        %GH_LEV (FPTN=GH_LEV_SCHD,
       37      239                 STCLASS=CONSTANT SYMDEF,
       38      240                 TYPE=TRIGGER,
       39      241                 LEVEL=%G_IL_SCHD#);
               242        %LSET LISTDIR='0'B;
               260    1   DCL 1 GH_LEV_SCHD CONSTANT SYMDEF ALIGNED,2 TYPE  UBIN(10)UNAL INIT(0)/**/,2 LEVEL
               260            UBIN(6)UNAL INIT
               261    1   (62)/**/;
       40      263    1   END GHT_DATA_D;

PL6.E3A0      #001=GHT_DATA_D File=GHT_DATA_D.:E05TSI                            TUE 07/29/97 21:39 Page:7
--  Include file information  --

   GH_HARDWARE_M.:E05TOU  is referenced.
   G_LCP6_E.:E05TOU  was found in the system file and is referenced.
   GT_LCP6_M.:E05TOU  was found in the system file and is never referenced.
   KI_CP6.:E05TOU  was found in the system file and is never referenced.
   GF_LCP6_M.:E05TOU  was found in the system file and is never referenced.
   GM_LCP6_M.:E05TOU  was found in the system file and is never referenced.
   GU_LCP6_M.:E05TOU  was found in the system file and is never referenced.
   GJ_LCP6_M.:E05TOU  was found in the system file and is never referenced.
   GH_LCP6_M.:E05TOU  was found in the system file and is never referenced.
      No diagnostics issued in procedure GHT_DATA_D.
PL6.E3A0      #001=GHT_DATA_D File=GHT_DATA_D.:E05TSI                            TUE 07/29/97 21:39 Page:8

 **** Variables and constants ****


   No code generated for procedure GHT_DATA_D .
   Procedure GHT_DATA_D requires 4 words of local(AUTO) storage.

    No errors detected in file GHT_DATA_D.:E05TSI    .
PL6.E3A0      #001=GHT_DATA_D File=GHT_DATA_D.:E05TSI                            TUE 07/29/97 21:39 Page:9
          *** CROSS REFERENCE LISTING ***
**     DENOTES     IDENTIFIER DEFINITION
<<                 IDENTIFIER'S VALUE SET
>>                 IDENTIFIER'S VALUE USED
<>                 IDENTIFIER SET AND/OR USED
--                 IDENTIFIER REFERENCED
PL6.E3A0      #001=GHT_DATA_D File=GHT_DATA_D.:E05TSI                            TUE 07/29/97 21:39 Page:10
          MINI XREF LISTING

