VERSION E05

PL6.E3A0      #001=GHT_TRAP_E File=GHT_TRAP_E.:E05TSI                            TUE 07/29/97 07:14 Page:1
        1        1        /*M* GHT_TRAP_E  Module to generate L6ASM EQUs for the GHT$TRAP module */
        2        2        /*T***********************************************************/
        3        3        /*T*                                                         */
        4        4        /*T* Copyright (c) Bull HN Information Systems Inc., 1997    */
        5        5        /*T*                                                         */
        6        6        /*T***********************************************************/
        7        7        /*X*   MEC,MOC,EXM=20,CLM=30,CRM=80  */
        8        8
        9        9                            /*P*   NAME: GHT_TRAP_E.
       10       10
       11       11                                   DESCRIPTION:  The file GHT_TRAP_E generates the data
       12       12                                   structures for which the L6ASM module, GHT$TRAP, has
       13       13                                   a need for offsets to specific data within those
       14       14                                   structures.
       15       15
       16       16                                   The DRAW option should specify EQ=3, MA=3.
       17       17                            */
       18       18
       19       19
       20       20        GHT_TRAP_E: PROC;
       21       21
       22       22 S      %INCLUDE GH_LCP6_M;
       23       23 S      %INCLUDE GF_LCP6_M;
       24       24        %INCLUDE GM_VIRTUAL_E;
       25      234 S      %INCLUDE GU_LCP6_M;
       26      235        %INCLUDE G_JIT_M;
       27      500        %INCLUDE G_HJIT_M;
       28      645 S      %INCLUDE G_LCP6_E;
       29      646        %INCLUDE G_ROS_M;
       30      728
       31      729                                      /* Define offsets for B3$->TSA.TSAL$            */
       32      730        %G$TSA (FPTN=G_TSA);
       33     1118
       34     1119                                      /* Define offsets for B3$->TSA.ISA.DEV          */
       35     1120    1   DCL 1 G_ISA BASED WALIGNED,
       36     1121                %G$DEV (FPTN=DEV,LVL=2,LAST=",");
       37     1141                %G$ISM1 (FPTN=ISM1,LVL=2,LAST=",");
PL6.E3A0      #001=GHT_TRAP_E File=GHT_TRAP_E.:E05TSI                            TUE 07/29/97 07:14 Page:2
       38     1166                %G$ISM2 (FPTN=ISM2,LVL=2,LAST=",");
       39     1189    1         2 P$ EPTR,
       40     1190                %G$STATUS_REG (FPTN=S,LVL=2,LAST=",");
       41     1211                %VLP_REGISTERS (FPTN=REGS,LVL=2,STCLASS=BASED,SAVE_SIP=NO,LAST=YES);
       42     1383                  /* A picture of the JIT so we can find JUNK.ALIBFD. and DB_WRTSEGS  */
       43     1384        %G$JIT (FPTN=G_JIT);
       44     1798                            /* A picture of an ASDT so we can find XDELTAs segments.  */
       45     1799    1   DCL 1 G_ASDT BASED ALIGNED,
       46     1800        %G$ASDT_MON (FPTN=MON, LVL=2);
       47     2494    1   DCL 1 GM,                     /* Make values for MM segment VPs.              */
       48     2495    1         2 *(0:%(GM_DB_DS_VP-1)) UBIN,
       49     2496    1         2 DB_DS(0:%(GM_LOW_MEM_VP-GM_DB_DS_VP-1)) UBIN,
       50     2497    1         2 LOW_MEM(0:%(GM_DB_PROC_VP-GM_LOW_MEM_VP-1)) UBIN,
       51     2498    1         2 DB_PROC UBIN(32);
       52     2499                            /* A Hokey rendition of G_UHJIT for nefarious purposes.   */
       53     2500    1   DCL 1 G BASED ALIGNED,
       54     2501    1         2 *(0:%(G_MCL#-1)) UBIN,
       55     2502    1         2 MCL(0:%(G_TRACE#-G_MCL#-1)) UBIN,
       56     2503    1         2 TRACE(0:%(G_IL_INHIBIT#-G_TRACE#-1)) UBIN,
       57     2504    1         2 IL_INHIBIT(0:%(G_IL_INHIBIT1#-G_IL_INHIBIT#-1)) UBIN,
       58     2505    1         2 DMN_DB(0:%(G_DMN_INT#-G_DMN_DB#-1)) UBIN,
       59     2506        %ERROR (G_DMN_DB#~=G_IL_INHIBIT1#,,CONCAT('G_DMN_DB# ~= G_IL_INHIBIT1# : ',
       60     2507                BINCHAR(G_DMN_DB#),' ~= ',BINCHAR(G_IL_INHIBIT1#)));
       61     2508    1         2 IL_INHIBIT1(0:%(G_DMN_INT#-G_DMN_DB#-1)) REDEF DMN_DB UBIN,
       62     2509    1         2 DMN_INT(0:%(G_IL_DBINH#-G_DMN_INT#-1)) UBIN,
       63     2510    1         2 IL_DBINH(0:%(G_PRIV#-G_IL_DBINH#-1)) UBIN,
       64     2511    1         2 ASD_INST(0:%(G_PRIV#-10-1)) REDEF IL_DBINH UBIN,
       65     2512    1         2 PRIV(0:%(G_INT_UR#-G_PRIV#-1)) UBIN,
       66     2513    1         2 INT_UR(0:%(G_FPRG_SCREECH#-G_INT_UR#-1)) UBIN,
       67     2514    1         2 FPRG_SCREECH(0:%(GM_UHJIT_BASE-G_FPRG_SCREECH#-1)) UBIN,
       68     2515        %G$UHJIT (LVL=2, FPTN=UHJIT);
       69     5489        /* G_ROS.U_ECCB for IGN_IO */
       70     5490        %G$ROS (FPTN=G_ROS, FULL=YES, STCLASS="BASED ALIGNED,2 *(0:%(GM_ROS_BASE-1)) UBIN");
       71     6441
       72     6442        %G$MHJIT (FPTN=G_MHJIT, STCLASS="BASED ALIGNED,2 *(0:%(GM_MHJIT_BASE-1)) UBIN");
       73    13316
       74    13317                            /* Define offset for Interrupt Vector in low real memory  */
PL6.E3A0      #001=GHT_TRAP_E File=GHT_TRAP_E.:E05TSI                            TUE 07/29/97 07:14 Page:3
       75    13318        %G$LOW_MEM (FPTN=G_LM, STCLASS="BASED ALIGNED,2 *(0:%(GM_LOW_MEM_BASE-1)) UBIN");
       76    13367    1           IF SIZEB(GM.DB_PROC)<
       77    13368    1             SIZEB(G.UHJIT.ASDT_USR.DB_DS)+
       78    13369    1             SIZEB(G.UHJIT.ASDT_USR.UHJIT.SIZE)+
       79    13370    1             SIZEB(G.UHJIT.DMN.ID)+
       80    13371    1             SIZEB(G.UHJIT.TSA_DB)+
       81    13372    1             SIZEB(G.UHJIT.TSA_USR)+
       82    13373    1             SIZEB(G.DMN_DB)+
       83    13374    1             SIZEB(G.DMN_INT)+
       84    13375    1             SIZEB(G.MCL)+
       85    13376    1             SIZEB(G.TRACE)+
       86    13377    1             SIZEB(G.INT_UR)+
       87    13378    1             SIZEB(G.ASD_INST)+
       88    13379    1             SIZEB(G.PRIV)+
       89    13380    1             SIZEB(G.IL_INHIBIT)+
       90    13381    1             SIZEB(G.IL_INHIBIT1)+
       91    13382    1             SIZEB(G.IL_DBINH)+
       92    13383    1             SIZEB(G.FPRG_SCREECH)+
       93    13384    1             SIZEB(G_ROS.U_ECCB.FLTFLG.IGN_IO)+
       94    13385    1             SIZEB(GM.DB_DS)+
       95    13386    1             SIZEB(G_LM.IV)+
       96    13387    1             SIZEB(G_TSA.S)+
       97    13388    1             SIZEB(G_TSA.A$)+
       98    13389    1             SIZEB(G_TSA.ISA.DEV)+
       99    13390    1             SIZEB(G_TSA.ISA.ASV$)+
      100    13391    1             SIZEB(G_TSA.Z)+
      101    13392    1             SIZEB(G_TSA.I)+
      102    13393    1             SIZEB(G_TSA.I.TRAP#)+
      103    13394    1             SIZEB(G_TSA.INST)+
      104    13395    1             SIZEB(G_TSA.P$)+
      105    13396    1             SIZEB(G_TSA.B3$)+
      106    13397    1             SIZEB(G_TSA.ISA.TSAP$)+
      107    13398    1             SIZEB(G_ISA.P$)+
      108    13399    1             SIZEB(G_ISA.S)+
      109    13400    1             SIZEB(G_ISA.ISM1)+
      110    13401    1             SIZEB(G_ISA.ISM2)+
      111    13402    1             SIZEB(G_TSA.ISA.ISM2)+
PL6.E3A0      #001=GHT_TRAP_E File=GHT_TRAP_E.:E05TSI                            TUE 07/29/97 07:14 Page:4
      112    13403    1             SIZEB(G_ISA.REGS.B3$)+
      113    13404    1             SIZEB(G_ISA.REGS.B7$)+
      114    13405    1             SIZEB(G_ISA.REGS.R7)+
      115    13406    1             SIZEB(G_ISA.REGS.T$)+
      116    13407    1             SIZEB(G_ISA.REGS.M1)+
      117    13408    1             SIZEB(G_JIT.JUNK.ALIBFD)+
      118    13409    1             SIZEB(G_JIT.DB_WRTSEGS)+
      119    13410    1             SIZEB(G_ASDT.MON.RDB_DS)+
      120    13411    1             SIZEB(G_ASDT.MON.DB_PROC)+
      121    13412    1             SIZEB(G_MHJIT.ISA_IDLE.ISM2)+
      122    13413    1             1 THEN RETURN;
      123    13414
      124    13415    1   END;

PL6.E3A0      #001=GHT_TRAP_E File=GHT_TRAP_E.:E05TSI                            TUE 07/29/97 07:14 Page:5
--  Include file information  --

   G_ROS_M.:E05TOU  is referenced.
   G_HJIT_M.:E05TOU  is referenced.
   G_JIT_M.:E05TOU  is referenced.
   GM_VIRTUAL_E.:E05TOU  is referenced.
   G_LCP6_E.:E05TOU  was found in the system file and is referenced.
   GT_LCP6_M.:E05TOU  was found in the system file and is never referenced.
   KI_CP6.:E05TOU  was found in the system file and is never referenced.
   GF_LCP6_M.:E05TOU  was found in the system file and is referenced.
   GM_LCP6_M.:E05TOU  was found in the system file and is never referenced.
   GU_LCP6_M.:E05TOU  was found in the system file and is referenced.
   GJ_LCP6_M.:E05TOU  was found in the system file and is never referenced.
   GH_LCP6_M.:E05TOU  was found in the system file and is referenced.
      No diagnostics issued in procedure GHT_TRAP_E.

   Procedure GHT_TRAP_E requires 8 words for executable code.
   Procedure GHT_TRAP_E requires 2054 words of local(AUTO) storage.

    No errors detected in file GHT_TRAP_E.:E05TSI    .

PL6.E3A0      #001=GHT_TRAP_E File=GHT_TRAP_E.:E05TSI                            TUE 07/29/97 07:14 Page:6
          *** CROSS REFERENCE LISTING ***
**     DENOTES     IDENTIFIER DEFINITION
<<                 IDENTIFIER'S VALUE SET
>>                 IDENTIFIER'S VALUE USED
<>                 IDENTIFIER SET AND/OR USED
--                 IDENTIFIER REFERENCED
PL6.E3A0      #001=GHT_TRAP_E File=GHT_TRAP_E.:E05TSI                            TUE 07/29/97 07:14 Page:7
          MINI XREF LISTING

G.ASD_INST
      2511**DCL     13367--IF
G.DMN_DB
      2505**DCL      2508--REDEF   13367--IF
G.DMN_INT
      2509**DCL     13367--IF
G.FPRG_SCREECH
      2514**DCL     13367--IF
G.IL_DBINH
      2510**DCL      2511--REDEF   13367--IF
G.IL_INHIBIT
      2504**DCL     13367--IF
G.IL_INHIBIT1
      2508**DCL     13367--IF
G.INT_UR
      2513**DCL     13367--IF
G.MCL
      2502**DCL     13367--IF
G.PRIV
      2512**DCL     13367--IF
G.TRACE
      2503**DCL     13367--IF
G.UHJIT.ASDT_USR.DB_DS
      2608**DCL     13367--IF
G.UHJIT.ASDT_USR.UHJIT.SIZE
      2678**DCL     13367--IF
G.UHJIT.DMN.ID
      4250**DCL     13367--IF
G.UHJIT.ISA_USR
      3955**DCL      4250--REDEF
G.UHJIT.ISA_USR.P$$
      4030**DCL      4030--REDEF
PL6.E3A0      #001=GHT_TRAP_E File=GHT_TRAP_E.:E05TSI                            TUE 07/29/97 07:14 Page:8
G.UHJIT.TSA_CP.ISA.P$$
      5237**DCL      5237--REDEF
G.UHJIT.TSA_CP.P$$
      5108**DCL      5108--REDEF    5109--REDEF
G.UHJIT.TSA_DB
      4690**DCL     13367--IF
G.UHJIT.TSA_DB.ISA.P$$
      4849**DCL      4849--REDEF
G.UHJIT.TSA_DB.P$$
      4720**DCL      4720--REDEF    4721--REDEF
G.UHJIT.TSA_RTT.P$$
      5483**DCL      5483--REDEF    5484--REDEF
G.UHJIT.TSA_USR
      4280**DCL     13367--IF
G.UHJIT.TSA_USR.ISA.P$$
      4439**DCL      4439--REDEF
G.UHJIT.TSA_USR.P$$
      4310**DCL      4310--REDEF    4311--REDEF
GM.DB_DS
      2496**DCL     13367--IF
GM.DB_PROC
      2498**DCL     13367--IF
G_ASDT.MON.DB_PROC
      2333**DCL     13367--IF
G_ASDT.MON.RDB_DS
      1871**DCL     13367--IF
G_ISA.ISM1
      1157**DCL     13367--IF
G_ISA.ISM2
      1182**DCL     13367--IF
G_ISA.P$
      1189**DCL     13367--IF
G_ISA.REGS.B3$
      1231**DCL     13367--IF
G_ISA.REGS.B7$
      1230**DCL     13367--IF
PL6.E3A0      #001=GHT_TRAP_E File=GHT_TRAP_E.:E05TSI                            TUE 07/29/97 07:14 Page:9
G_ISA.REGS.M1
      1277**DCL     13367--IF
G_ISA.REGS.R7
      1256**DCL     13367--IF
G_ISA.REGS.T$
      1350**DCL     13367--IF
G_ISA.S
      1206**DCL     13367--IF
G_JIT.DB_WRTSEGS
      1572**DCL     13367--IF
G_JIT.ERRLOG
      1728**DCL      1731--REDEF
G_JIT.JSUNIT
      1467**DCL      1468--REDEF
G_JIT.JUNK.ALIBFD
      1725**DCL     13367--IF
G_JIT.MCLS
      1466**DCL      1466--REDEF
G_JIT.TMRZ
      1735**DCL      1736--REDEF
G_JIT.USER_EXTIME
      1459**DCL      1460--REDEF
G_JIT.USER_MEMTIME
      1462**DCL      1462--REDEF
G_JIT.USER_SVTIME
      1461**DCL      1461--REDEF
G_LM.IV
     13358**DCL     13367--IF
G_LM.IV.IL$
     13360**DCL     13360--REDEF
G_LM.IV.INT.I#00$
     13360**DCL     13360--REDEF
G_LM.IV.INT.I#01$
     13360**DCL     13360--REDEF
G_LM.IV.INT.I#02$
     13361**DCL     13361--REDEF
PL6.E3A0      #001=GHT_TRAP_E File=GHT_TRAP_E.:E05TSI                            TUE 07/29/97 07:14 Page:10
G_LM.IV.INT.I#03$
     13361**DCL     13361--REDEF
G_LM.IV.INT.I#04$
     13361**DCL     13362--REDEF
G_LM.IV.INT.I#05$
     13362**DCL     13362--REDEF
G_LM.IV.INT.I#61$
     13363**DCL     13363--REDEF
G_LM.IV.INT.I#62$
     13363**DCL     13363--REDEF
G_LM.IV.INT.I#63$
     13363**DCL     13363--REDEF
G_LM.TV.T#01$
     13348**DCL     13348--REDEF
G_LM.TV.T#02$
     13348**DCL     13348--REDEF
G_LM.TV.T#03$
     13347**DCL     13347--REDEF
G_LM.TV.T#05$
     13347**DCL     13347--REDEF
G_LM.TV.T#06$
     13346**DCL     13346--REDEF
G_LM.TV.T#07$
     13346**DCL     13346--REDEF
G_LM.TV.T#08$
     13345**DCL     13346--REDEF
G_LM.TV.T#09$
     13345**DCL     13345--REDEF
G_LM.TV.T#10$
     13345**DCL     13345--REDEF
G_LM.TV.T#12$
     13344**DCL     13344--REDEF
G_LM.TV.T#13$
     13344**DCL     13344--REDEF
G_LM.TV.T#14$
     13343**DCL     13343--REDEF
PL6.E3A0      #001=GHT_TRAP_E File=GHT_TRAP_E.:E05TSI                            TUE 07/29/97 07:14 Page:11
G_LM.TV.T#15$
     13343**DCL     13343--REDEF
G_LM.TV.T#16$
     13342**DCL     13343--REDEF
G_LM.TV.T#17$
     13342**DCL     13342--REDEF
G_LM.TV.T#19$
     13341**DCL     13342--REDEF
G_LM.TV.T#20$
     13341**DCL     13341--REDEF
G_LM.TV.T#21$
     13341**DCL     13341--REDEF
G_LM.TV.T#22$
     13340**DCL     13340--REDEF
G_LM.TV.T#23$
     13340**DCL     13340--REDEF
G_LM.TV.T#24$
     13339**DCL     13340--REDEF
G_LM.TV.T#25$
     13339**DCL     13339--REDEF
G_LM.TV.T#26$
     13339**DCL     13339--REDEF
G_LM.TV.T#27$
     13338**DCL     13338--REDEF
G_LM.TV.T#28$
     13338**DCL     13338--REDEF
G_LM.TV.T#29$
     13337**DCL     13338--REDEF
G_LM.TV.T#30$
     13337**DCL     13337--REDEF
G_LM.TV.T#31$
     13337**DCL     13337--REDEF
G_LM.TV.T#32$
     13336**DCL     13336--REDEF
G_LM.TV.T#33$
     13336**DCL     13336--REDEF
PL6.E3A0      #001=GHT_TRAP_E File=GHT_TRAP_E.:E05TSI                            TUE 07/29/97 07:14 Page:12
G_MHJIT.INTCON.HHJIT
     12921**DCL     12921--REDEF
G_MHJIT.INTCON.P$$
     12894**DCL     12894--REDEF
G_MHJIT.ISA_BIGFOOT.P$$
      9839**DCL      9839--REDEF
G_MHJIT.ISA_DBINH.P$$
     11053**DCL     11053--REDEF
G_MHJIT.ISA_IDLE.ISM2
      7926**DCL     13367--IF
G_MHJIT.ISA_IDLE.P$$
      7934**DCL      7934--REDEF
G_MHJIT.ISA_LVL10.P$$
     11356**DCL     11356--REDEF
G_MHJIT.ISA_LVL11.P$$
     11659**DCL     11659--REDEF
G_MHJIT.ISA_LVL12.P$$
     11962**DCL     11962--REDEF
G_MHJIT.ISA_LVL5.P$$
     10142**DCL     10142--REDEF
G_MHJIT.ISA_OV.P$$
      9536**DCL      9536--REDEF
G_MHJIT.ISA_PFS.P$$
      9207**DCL      9207--REDEF
G_MHJIT.ISA_RT_CLOCK.P$$
     12569**DCL     12569--REDEF
G_MHJIT.ISA_SATYR_RCV.P$$
     10446**DCL     10446--REDEF
G_MHJIT.ISA_SATYR_TRN.P$$
     10750**DCL     10750--REDEF
G_MHJIT.ISA_SCHD.P$$
     12265**DCL     12265--REDEF
G_MHJIT.ISA_WDOG.P$$
      9315**DCL      9315--REDEF
G_MHJIT.TSA_DB.ISA.P$$
      8537**DCL      8537--REDEF
PL6.E3A0      #001=GHT_TRAP_E File=GHT_TRAP_E.:E05TSI                            TUE 07/29/97 07:14 Page:13
G_MHJIT.TSA_DB.P$$
      8408**DCL      8408--REDEF    8409--REDEF
G_MHJIT.TSA_HND.ISA.P$$
     13115**DCL     13115--REDEF
G_MHJIT.TSA_HND.P$$
     12986**DCL     12986--REDEF   12987--REDEF
G_MHJIT.TSA_MON.ISA.P$$
      8149**DCL      8149--REDEF
G_MHJIT.TSA_MON.P$$
      8020**DCL      8020--REDEF    8021--REDEF
G_MHJIT.TSA_OV.ISA.P$$
      8925**DCL      8925--REDEF
G_MHJIT.TSA_OV.P$$
      8796**DCL      8796--REDEF    8797--REDEF
G_ROS.AUTO_DS$
      5513**DCL      5514--REDEF
G_ROS.AUTO_T$
      5514**DCL      5514--REDEF
G_ROS.CP_ECCB.FLTFLG
      6128**DCL      6159--REDEF
G_ROS.DB_ECCB.FLTFLG
      6052**DCL      6083--REDEF
G_ROS.JIT.ERRLOG
      5863**DCL      5866--REDEF
G_ROS.JIT.JSUNIT
      5602**DCL      5603--REDEF
G_ROS.JIT.MCLS
      5601**DCL      5601--REDEF
G_ROS.JIT.TMRZ
      5870**DCL      5871--REDEF
G_ROS.JIT.USER_EXTIME
      5594**DCL      5595--REDEF
G_ROS.JIT.USER_MEMTIME
      5597**DCL      5597--REDEF
G_ROS.JIT.USER_SVTIME
      5596**DCL      5596--REDEF
PL6.E3A0      #001=GHT_TRAP_E File=GHT_TRAP_E.:E05TSI                            TUE 07/29/97 07:14 Page:14
G_ROS.M$DEBUG.EOMCHAR
      6199**DCL      6199--REDEF    6200--REDEF
G_ROS.M$DEBUG.FLDID
      6198**DCL      6198--REDEF
G_ROS.M$DEBUG.RES
      6193**DCL      6194--REDEF
G_ROS.M$DO.EOMCHAR
      6404**DCL      6404--REDEF    6405--REDEF
G_ROS.M$DO.FLDID
      6403**DCL      6403--REDEF
G_ROS.M$DO.RES
      6398**DCL      6399--REDEF
G_ROS.M$HOST.EOMCHAR
      6353**DCL      6353--REDEF    6354--REDEF
G_ROS.M$HOST.FLDID
      6352**DCL      6352--REDEF
G_ROS.M$HOST.RES
      6347**DCL      6348--REDEF
G_ROS.M$LM.EOMCHAR
      6250**DCL      6250--REDEF    6251--REDEF
G_ROS.M$LM.FLDID
      6249**DCL      6249--REDEF
G_ROS.M$LM.RES
      6244**DCL      6245--REDEF
G_ROS.M$ME.EOMCHAR
      6302**DCL      6302--REDEF    6303--REDEF
G_ROS.M$ME.FLDID
      6301**DCL      6301--REDEF
G_ROS.M$ME.RES
      6296**DCL      6297--REDEF
G_ROS.U_ECCB.FLTFLG
      5976**DCL      6007--REDEF
G_ROS.U_ECCB.FLTFLG.IGN_IO
      5978**DCL     13367--IF
G_TSA.A$
       789**DCL     13367--IF
PL6.E3A0      #001=GHT_TRAP_E File=GHT_TRAP_E.:E05TSI                            TUE 07/29/97 07:14 Page:15
G_TSA.B3$
       790**DCL     13367--IF
G_TSA.I
       779**DCL     13367--IF
G_TSA.I.TRAP#
       781**DCL     13367--IF
G_TSA.INST
       786**DCL     13367--IF
G_TSA.ISA.ASV$
       845**DCL     13367--IF
G_TSA.ISA.DEV
       865**DCL     13367--IF
G_TSA.ISA.ISM2
       910**DCL     13367--IF
G_TSA.ISA.P$$
       918**DCL       918--REDEF
G_TSA.ISA.TSAP$
       845**DCL     13367--IF
G_TSA.P$
       789**DCL     13367--IF
G_TSA.P$$
       789**DCL       789--REDEF     790--REDEF
G_TSA.S
       809**DCL     13367--IF
G_TSA.Z
       787**DCL     13367--IF


07:17 JUL 29 '97 GHT_TRAP_E.:E05TOU                                        1
    1      G_TSA#                EQU     0
    2      G_TSA_I#              EQU     2
    3      G_TSA_I#M#            EQU 65535
    4      G_TSA_I_TRAP##        EQU     2
    5      G_TSA_I_TRAP##M#      EQU 65280
    6      G_TSA_INST#           EQU     4
    7      G_TSA_INST#M#         EQU 65535
    8      G_TSA_Z#              EQU     5
    9      G_TSA_Z#M#            EQU 65535
   10      G_TSA_A$#             EQU     6
   11      G_TSA_P$#             EQU     8
   12      G_TSA_B3$#            EQU    10
   13      G_TSA_S#              EQU    12
   14      G_TSA_S#M#            EQU 65535
   15      G_TSA_ISA#            EQU    13
   16      G_TSA_ISA_ASV$#       EQU    13
   17      G_TSA_ISA_TSAP$#      EQU    16
   18      G_TSA_ISA_DEV#        EQU    18
   19      G_TSA_ISA_DEV#M#      EQU 65535
   20      G_TSA_ISA_ISM2#       EQU    20
   21      G_TSA_ISA_ISM2#M#     EQU 65535
   22      G_ISA#                EQU     0
   23      G_ISA_ISM1#           EQU     1
   24      G_ISA_ISM1#M#         EQU 65535
   25      G_ISA_ISM2#           EQU     2
   26      G_ISA_ISM2#M#         EQU 65535
   27      G_ISA_P$#             EQU     3
   28      G_ISA_S#              EQU     5
   29      G_ISA_S#M#            EQU 65535
   30      G_ISA_REGS#           EQU     6
   31      G_ISA_REGS_B7$#       EQU     6
   32      G_ISA_REGS_B3$#       EQU    14
   33      G_ISA_REGS_R7#        EQU    21
   34      G_ISA_REGS_R7#M#      EQU 65535
   35      G_ISA_REGS_M1#        EQU    28
   36      G_ISA_REGS_M1#M#      EQU 65535
   37      G_ISA_REGS_T$#        EQU    35
07:17 JUL 29 '97 GHT_TRAP_E.:E05TOU                                        2
   38      G_JIT#                EQU     0
   39      G_JIT_DB_WRTSEGS#     EQU   127
   40      G_JIT_DB_WRTSEGS#M#   EQU 32768
   41      G_JIT_JUNK#           EQU   152
   42      G_JIT_JUNK#M#         EQU 65535
   43      G_JIT_JUNK_ALIBFD#    EQU   152
   44      G_JIT_JUNK_ALIBFD#M#  EQU    32
   45      G_ASDT#               EQU     0
   46      G_ASDT_MON#           EQU     0
   47      G_ASDT_MON_RDB_DS#    EQU     4
   48      G_ASDT_MON_DB_PROC#   EQU    46
   49      GM#                   EQU     0
   50      GM_DB_DS#             EQU    32
   51      GM_DB_DS#M#           EQU 65535
   52      GM_DB_PROC#           EQU  2048
   53      G#                    EQU     0
   54      G_MCL#                EQU     1
   55      G_MCL#M#              EQU 65535
   56      G_TRACE#              EQU     2
   57      G_TRACE#M#            EQU 65535
   58      G_IL_INHIBIT#         EQU     4
   59      G_IL_INHIBIT#M#       EQU 65535
   60      G_DMN_DB#             EQU     5
   61      G_DMN_DB#M#           EQU 65535
   62      G_IL_INHIBIT1#        EQU     5
   63      G_IL_INHIBIT1#M#      EQU 65535
   64      G_DMN_INT#            EQU     6
   65      G_DMN_INT#M#          EQU 65535
   66      G_IL_DBINH#           EQU    10
   67      G_IL_DBINH#M#         EQU 65535
   68      G_ASD_INST#           EQU    10
   69      G_ASD_INST#M#         EQU 65535
   70      G_PRIV#               EQU    13
   71      G_PRIV#M#             EQU 65535
   72      G_INT_UR#             EQU    15
   73      G_INT_UR#M#           EQU 65535
   74      G_FPRG_SCREECH#       EQU    52
07:17 JUL 29 '97 GHT_TRAP_E.:E05TOU                                        3
   75      G_FPRG_SCREECH#M#     EQU 65535
   76      G_UHJIT#              EQU 20480
   77      G_UHJIT_ASDT_USR#     EQU 20480
   78      G_UHJIT_ASDT_USR_DB_DS# EQU 20484
   79      G_UHJIT_ASDT_USR_UHJIT# EQU 20490
   80      G_UHJIT_ASDT_USR_UHJIT_SIZE# EQU 20491
   81      G_UHJIT_ASDT_USR_UHJIT_SIZE#M# EQU   511
   82      G_UHJIT_DMN#          EQU 20604
   83      G_UHJIT_DMN_ID#       EQU 20606
   84      G_UHJIT_DMN_ID#M#     EQU 65535
   85      G_UHJIT_TSA_USR#      EQU 20662
   86      G_UHJIT_TSA_DB#       EQU 20735
   87      G_ROS#                EQU     0
   88      G_ROS_U_ECCB#         EQU  4505
   89      G_ROS_U_ECCB_FLTFLG#  EQU  4516
   90      G_ROS_U_ECCB_FLTFLG_IGN_IO# EQU  4516
   91      G_ROS_U_ECCB_FLTFLG_IGN_IO#M# EQU 32768
   92      G_MHJIT#              EQU     0
   93      G_MHJIT_ISA_IDLE#     EQU 24700
   94      G_MHJIT_ISA_IDLE_ISM2# EQU 24707
   95      G_MHJIT_ISA_IDLE_ISM2#M# EQU 65535
   96      G_LM#                 EQU     0
   97      G_LM_IV#              EQU 12416

