VERSION E05

PL6.E3A0      #001=GH_SCHD_D File=GH_SCHD_D.:E05TSI                              TUE 07/29/97 21:40 Page:1
        1        1        /*M*  GH_SCHD_D   LCP-6 Scheduler Data
                 1        */
        2        2        /*T***********************************************************/
        3        3        /*T*                                                         */
        4        4        /*T* Copyright (c) Bull HN Information Systems Inc., 1997    */
        5        5        /*T*                                                         */
        6        6        /*T***********************************************************/
        7        7
        8        8        /*F* NAME: GH_SCHD_D
        9        9
       10       10        The module GH_SCHD_D contains the data used by
       11       11        the LCP-6 Scheduler.
       12       12        */
       13       13
       14       14        GH_SCHD_D: PROC;
       15       15
       16       16        %INCLUDE GH_SCHD_E;
       17      112        %INCLUDE GH_SCHD_M;
       18      256        %INCLUDE GH_GATE_M;
       19      297        %INCLUDE LCP_6;
       20      488        %INCLUDE KL_MACRO_C;
       21     3840        %INCLUDE KL_AFCN_C;
       22     3941        %INCLUDE K_ID_E;
       23     3991        %INCLUDE P_FEP_M;
       24     4429
       25     4430
       26     4431        %K#ENTID_E;
       27     4450        %K#LYRID_E;
       28     4457
       29     4458
       30     4459        %GATE (FPTN=G_SCHDGATE,STCLASS="STATIC SYMDEF");
       31     4478        %GATE (FPTN=G_UDLGATE,STCLASS="STATIC SYMDEF");
       32     4497        %GATE (FPTN=G_ASFGATE,STCLASS="STATIC SYMDEF");
       33     4516        %GATE (FPTN=G_DOGATE,STCLASS="STATIC SYMDEF");
       34     4535        %GATE (FPTN=G_CLKGATE,STCLASS="STATIC SYMDEF");
       35     4554    1   DCL G$USRT$ PTR STATIC SYMDEF INIT(ADDR(NIL));
       36     4555    1   DCL GH_EVF UBIN STATIC SYMDEF INIT(0);
PL6.E3A0      #001=GH_SCHD_D File=GH_SCHD_D.:E05TSI                              TUE 07/29/97 21:40 Page:2
       37     4556    1   DCL GH_HQ(0:%GH_NULL) UBIN STATIC SYMDEF INIT(0*%GH_NULL,1);
       38     4557    1   DCL GH_TQ(0:%GH_NULL) UBIN STATIC SYMDEF INIT(0*%GH_NULL,1);
       39     4558    1   DCL GH_PINC(0:6) UBIN STATIC SYMDEF INIT(1*0);
       40     4559    1   DCL GH_CUP UBIN STATIC SYMDEF INIT(0);
       41     4560    1   DCL GH_HIR SBIN STATIC SYMDEF INIT(0);
       42     4561
       43     4562    1   DCL G_DL$ PTR STATIC SYMDEF INIT(ADDR(NIL));
       44     4563
       45     4564    1   DCL G_MUAIS UBIN STATIC SYMDEF INIT(0);
       46     4565        /*K*   G_MUAIS - Maximum number of users.  Number of User Table
       47     4566                         entries built by BIGFOOT.                         */
       48     4567
       49     4568        %LIST;
       50     4569        %PS_LCP6STT (STCLASS="STATIC SYMDEF");
              4570        %LSET LISTDIR = '0'B;
              4589    1   DCL 1 PS_LCP6STT STATIC SYMDEF WALIGNED,
              4747    1         2 REQSTATS WALIGNED,
              4753    1         3 FNC  UBIN BYTE INIT(36) UNAL,
              4758    1         3 NODE_NUM UBIN BYTE INIT(0) UNAL,
              4759    1         3 SRCE_NODE UBIN BYTE UNAL INIT(0),
              4760    1         3 * UBIN BYTE UNAL INIT(0),
              4779    1   3 ERRCODE WALIGNED,
              4793    1   4 FCG  BIT(10)INIT('0'B),
              4806    1   4 MID  BIT(5)INIT('0'B),4 MON  BIT(1)INIT('0'B),4 ERR#
              4807    1   UBIN(13)INIT(0) UNAL,4 SEV  UBIN(3)INIT(0) UNAL ,
              4812    1         3 STATSSTA CHAR(8) INIT(' '),
              4816    1         3 FEPNAME CHAR(8) INIT('?'),
              4822    1         3 HANDLER CHAR(8) INIT('?'),
              4835    1         3 DSPMSK BIT(32) INIT( '00000000000000001000000000000000'B ),
              4841    1         3 DSPENT(0:31) REDEF DSPMSK BIT(1),
              4876    1         3 SLCMSK BIT(32) INIT( '00000000000000001000000000000000'B )
              4882    1         ,
              4883    1         3 SLCENT(0:31) REDEF SLCMSK BIT(1)
              4885    1         ,
              4890    1         2 UXEQTIME(0:3) UBIN(32) INIT(0),
              4894    1         2 USRVTIME(0:3) UBIN(32) INIT(0) UNAL,
              4898    1         2 MXEQTIME(0:3) UBIN(32) INIT(0),
PL6.E3A0      #001=GH_SCHD_D File=GH_SCHD_D.:E05TSI                              TUE 07/29/97 21:40 Page:3
              4901    1         2 MIDLTIME(0:3) UBIN(32) INIT(0),
              4904    1         2 BOOT_UTS UBIN(32) INIT(0),
              4909    1         2 CURR_UTS UBIN(32) INIT(0),
              4911    1         2 PAGES_TOTSHF UBIN(32) INIT(0),
              4913    1         2 PAGES_TOTNONSHF UBIN(32) INIT(0),
              4915    1         2 PAGES_FRESHF UBIN(32) INIT(0),
              4917    1         2 PAGES_FRENONSHF UBIN(32) INIT(0),
              4919    1         2 PAGES_AVLSHF UBIN(32) INIT(0),
              4921    1         2 PAGES_CG_FPRG UBIN(32) INIT(0),
              4923    1         2 PAGES_TS_FPRG UBIN(32) INIT(0),
              4925    1         2 PAGES_HANDLER UBIN(32) INIT(0),
              4927    1         2 PAGES_GHOST UBIN(32) INIT(0),
              4929    1         2 PAGES_MONITOR UBIN(32) INIT(0),
              4931    1         2 PAGES_TOTAL UBIN(32) INIT(0),
              4933    1         2 USERS_CG_FPRG UBIN(32) INIT(0),
              4935    1         2 USERS_TS_FPRG UBIN(32) INIT(0),
              4937    1         2 USERS_HANDLER UBIN(32) INIT(0),
              4939    1         2 USERS_GHOST UBIN(32) INIT(0),
              4940    1         2 READS_HOST UBIN(32) INIT(0),
              4945    1         2 READS_UC UBIN(32) INIT(0),
              4950    1         2 READS_LG UBIN(32) INIT(0),
              4955    1         2 READS_NA UBIN(32) INIT(0),
              4960    1         2 WRITES_HOST UBIN(32) INIT(0),
              4965    1         2 WRITES_UC UBIN(32) INIT(0),
              4970    1         2 WRITES_LG UBIN(32) INIT(0),
              4975    1         2 WRITES_NA UBIN(32) INIT(0),
              4980    1         2 BYTES_READ_HOST UBIN(32) INIT(0),
              4985    1         2 BYTES_READ_UC UBIN(32) INIT(0),
              4990    1         2 BYTES_READ_LG UBIN(32) INIT(0),
              4995    1         2 BYTES_READ_NA UBIN(32) INIT(0),
              5000    1         2 BYTES_WRT_HOST UBIN(32) INIT(0),
              5005    1         2 BYTES_WRT_UC UBIN(32) INIT(0),
              5010    1         2 BYTES_WRT_LG UBIN(32) INIT(0),
              5015    1         2 BYTES_WRT_NA UBIN(32) INIT(0),
              5020    1         2 CURR_USERS UBIN(32) INIT(0),
              5025    1         2 CURR_SSN UBIN(32) INIT(0),
              5030    1         2 CURR_LDCT UBIN(32) INIT(0),
PL6.E3A0      #001=GH_SCHD_D File=GH_SCHD_D.:E05TSI                              TUE 07/29/97 21:40 Page:4
              5035    1         2 CURR_IOP UBIN(32) INIT(0),
              5040    1         2 PEAK_USERS UBIN(32) INIT(0),
              5045    1         2 PEAK_SSN UBIN(32) INIT(0),
              5050    1         2 PEAK_LDCT UBIN(32) INIT(0),
              5055    1         2 PEAK_IOP UBIN(32) INIT(0),
              5060    1         2 FPRG_FTCH_HOST UBIN(32) INIT(0),
              5065    1         2 FPRG_FTCH_SFILE UBIN(32) INIT(0);
       51     5073        %PLIST;
       52     5074
       53     5075    1   DCL GH_CLOCKHD UBIN STATIC SYMDEF INIT(BITBIN('FFFF'X));
       54     5076    1   DCL G_CPUSTATE(0:3) UBIN STATIC SYMDEF INIT(%G_ROCKING#*0);
       55     5077
       56     5078    1   DCL G_NSCPU UBIN STATIC SYMDEF INIT(0);
       57     5079        /*B*     G_NSCPU - Number of slave CPUs configured.  This will be zero
       58     5080                          on a mono-processor system.
       59     5081                                                                           */
       60     5082    1   DCL G_NSCPUA UBIN STATIC SYMDEF INIT(0);
       61     5083        /*B*     G_NSCPUA - Number of currently active CPUs.                  */
       62     5084
       63     5085    1   DCL G_DIS SBIN STATIC SYMDEF INIT(-1);     /* DISABLE counter  */
       64     5086        %G_STTTXT (NAME=G_STTTXT,STCLASS="STATIC SYMDEF");
       65     5103        /*B*     G_STTTXT - Table of Scheduler State Names in four character
       66     5104                          string.                                          */
       67     5105
       68     5106    1   DCL G_MING UBIN STATIC SYMDEF INIT(2);
       69     5107        /*K* G_MING - UBIN.
       70     5108        Set by BIGFOOT to the number of boottime handlers.
       71     5109        Used by the delete user logic to determine if a
       72     5110        required handler is aborting.
       73     5111        */
       74     5112
       75     5113    1   DCL 1 G_EVFLG UBIN STATIC SYMDEF INIT(1);
       76     5114        /*K* G_EVFLG - UBIN.
       77     5115        If non-zero, the scheduler event recording logic is enabled.
       78     5116        */
       79     5117
       80     5118    1   DCL 1 G_EVX UBIN STATIC SYMDEF INIT(0);
PL6.E3A0      #001=GH_SCHD_D File=GH_SCHD_D.:E05TSI                              TUE 07/29/97 21:40 Page:5
       81     5119        /*K* G_EVX - UBIN.
       82     5120        Contains the index into the event buffer for the next available
       83     5121        event entry.
       84     5122        */
       85     5123
       86     5124    1   DCL G$EVBUF$ PTR STATIC SYMDEF INIT(ADDR(NIL));
       87     5125        /*K* G$EVBUF$ - PTR.
       88     5126        Contains the address of the event buffer, which resides in the
       89     5127        BOBCAT data segment.  Initialized by GIB$BIGFOOT.
       90     5128        This is a copy of G$BOBCAT.EVBUF$.
       91     5129        */
       92     5130
       93     5131    1   DCL G_EVBUF# UBIN STATIC SYMDEF INIT(0);
       94     5132        /*K* G_EVBUF# - UBIN.
       95     5133        Contains the number of entries in the event buffer.  Initialized by
       96     5134        BIGFOOT.  This is a copy of G$BOBCAT.EVBUF#.
       97     5135        */
       98     5136    1   END;

PL6.E3A0      #001=GH_SCHD_D File=GH_SCHD_D.:E05TSI                              TUE 07/29/97 21:40 Page:6
--  Include file information  --

   P_FEP_M.:E05TOU  is referenced.
   K_ID_E.:E05TOU  is referenced.
   KL_AFCN_C.:E05TOU  is referenced.
   KL_MACRO_C.:E05TOU  is referenced.
   LCP_6.:E05TOU  cannot be made into a system file and is referenced.
   GH_GATE_M.:E05TOU  cannot be made into a system file and is referenced.
   GH_SCHD_M.:E05TOU  is referenced.
   GH_SCHD_E.:E05TOU  is referenced.
   G_LCP6_E.:E05TOU  was found in the system file and is referenced.
   GT_LCP6_M.:E05TOU  was found in the system file and is referenced.
   KI_CP6.:E05TOU  was found in the system file and is referenced.
   GF_LCP6_M.:E05TOU  was found in the system file and is referenced.
   GM_LCP6_M.:E05TOU  was found in the system file and is referenced.
   GU_LCP6_M.:E05TOU  was found in the system file and is referenced.
   GJ_LCP6_M.:E05TOU  was found in the system file and is referenced.
   GH_LCP6_M.:E05TOU  was found in the system file and is referenced.
      No diagnostics issued in procedure GH_SCHD_D.

   No code generated for procedure GH_SCHD_D .
   Procedure GH_SCHD_D requires 4 words of local(AUTO) storage.

    No errors detected in file GH_SCHD_D.:E05TSI    .

PL6.E3A0      #001=GH_SCHD_D File=GH_SCHD_D.:E05TSI                              TUE 07/29/97 21:40 Page:7

 Object Unit name= GH_SCHD_D                                  File name= GH_SCHD_D.:E05TOU
 UTS= JUL 29 '97 21:40:16.44 TUE                              Compiler= PL-6/E31         Sev=      00
 SharedLib= :SHARED_LCP6_SYSTEM                               Alt SharedLib=


    ****  Control sections  ****

 Sect   Type Bound  Init  Size HexSiz  Section name
    0   Data  even  none   310    136  GH_SCHD_D
    1   Proc  even  none     0      0  GH_SCHD_D

    ****  Entry defs  ****

                              Check   Calling
                             calling  sequence
  Sect HexLoc Primary Altret sequence   type   Parms  Name
     1      0   yes            yes     ~proc       0  GH_SCHD_D

  ****  Data defs  ****

 Sect HexLoc  Name                           Sect HexLoc  Name
    0      0  G_SCHDGATE                         0      3  G_UDLGATE
    0      6  G_ASFGATE                          0      9  G_DOGATE
    0      C  G_CLKGATE                          0      F  G$USRT$
    0     11  GH_EVF                             0     12  GH_HQ
    0     32  GH_TQ                              0     52  GH_PINC
    0     59  GH_CUP                             0     5A  GH_HIR
    0     5B  G_DL$                              0     5D  G_MUAIS
    0     5E  PS_LCP6STT                         0     E8  GH_CLOCKHD
    0     E9  G_CPUSTATE                         0     ED  G_NSCPU
    0     EE  G_NSCPUA                           0     EF  G_DIS
    0     F0  G_STTTXT                           0    130  G_MING
    0    131  G_EVFLG                            0    132  G_EVX
    0    133  G$EVBUF$                           0    135  G_EVBUF#
PL6.E3A0      #001=GH_SCHD_D File=GH_SCHD_D.:E05TSI                              TUE 07/29/97 21:40 Page:8

  ****  Data refs  ****

  Flags:  r = read only, s = secondary
Flgs Name                             Flgs Name                             Flgs Name
r    G$ROS$
PL6.E3A0      #001=GH_SCHD_D File=GH_SCHD_D.:E05TSI                              TUE 07/29/97 21:40 Page:9

        1        1        /*M*  GH_SCHD_D   LCP-6 Scheduler Data
                 1        */
        2        2        /*T***********************************************************/
        3        3        /*T*                                                         */
        4        4        /*T* Copyright (c) Bull HN Information Systems Inc., 1997    */
        5        5        /*T*                                                         */
        6        6        /*T***********************************************************/
        7        7
        8        8        /*F* NAME: GH_SCHD_D
        9        9
       10       10        The module GH_SCHD_D contains the data used by
       11       11        the LCP-6 Scheduler.
       12       12        */
       13       13
       14       14        GH_SCHD_D: PROC;
       15       15
       16       16        %INCLUDE GH_SCHD_E;
       17      112        %INCLUDE GH_SCHD_M;
       18      256        %INCLUDE GH_GATE_M;
       19      297        %INCLUDE LCP_6;
       20      488        %INCLUDE KL_MACRO_C;
       21     3840        %INCLUDE KL_AFCN_C;
       22     3941        %INCLUDE K_ID_E;
       23     3991        %INCLUDE P_FEP_M;
       24     4429
       25     4430
       26     4431        %K#ENTID_E;
       27     4450        %K#LYRID_E;
       28     4457
       29     4458
       30     4459        %GATE (FPTN=G_SCHDGATE,STCLASS="STATIC SYMDEF");
       31     4478        %GATE (FPTN=G_UDLGATE,STCLASS="STATIC SYMDEF");
       32     4497        %GATE (FPTN=G_ASFGATE,STCLASS="STATIC SYMDEF");
       33     4516        %GATE (FPTN=G_DOGATE,STCLASS="STATIC SYMDEF");
       34     4535        %GATE (FPTN=G_CLKGATE,STCLASS="STATIC SYMDEF");
       35     4554    1   DCL G$USRT$ PTR STATIC SYMDEF INIT(ADDR(NIL));
       36     4555    1   DCL GH_EVF UBIN STATIC SYMDEF INIT(0);
PL6.E3A0      #001=GH_SCHD_D File=GH_SCHD_D.:E05TSI                              TUE 07/29/97 21:40 Page:10
       37     4556    1   DCL GH_HQ(0:%GH_NULL) UBIN STATIC SYMDEF INIT(0*%GH_NULL,1);
       38     4557    1   DCL GH_TQ(0:%GH_NULL) UBIN STATIC SYMDEF INIT(0*%GH_NULL,1);
       39     4558    1   DCL GH_PINC(0:6) UBIN STATIC SYMDEF INIT(1*0);
       40     4559    1   DCL GH_CUP UBIN STATIC SYMDEF INIT(0);
       41     4560    1   DCL GH_HIR SBIN STATIC SYMDEF INIT(0);
       42     4561
       43     4562    1   DCL G_DL$ PTR STATIC SYMDEF INIT(ADDR(NIL));
       44     4563
       45     4564    1   DCL G_MUAIS UBIN STATIC SYMDEF INIT(0);
       46     4565        /*K*   G_MUAIS - Maximum number of users.  Number of User Table
       47     4566                         entries built by BIGFOOT.                         */
       48     4567
       49     4568        %LIST;
       50     4569        %PS_LCP6STT (STCLASS="STATIC SYMDEF");
              4570        %LSET LISTDIR = '0'B;
              4589    1   DCL 1 PS_LCP6STT STATIC SYMDEF WALIGNED,
              4747    1         2 REQSTATS WALIGNED,
              4753    1         3 FNC  UBIN BYTE INIT(36) UNAL,
              4758    1         3 NODE_NUM UBIN BYTE INIT(0) UNAL,
              4759    1         3 SRCE_NODE UBIN BYTE UNAL INIT(0),
              4760    1         3 * UBIN BYTE UNAL INIT(0),
              4779    1   3 ERRCODE WALIGNED,
              4793    1   4 FCG  BIT(10)INIT('0'B),
              4806    1   4 MID  BIT(5)INIT('0'B),4 MON  BIT(1)INIT('0'B),4 ERR#
              4807    1   UBIN(13)INIT(0) UNAL,4 SEV  UBIN(3)INIT(0) UNAL ,
              4812    1         3 STATSSTA CHAR(8) INIT(' '),
              4816    1         3 FEPNAME CHAR(8) INIT('?'),
              4822    1         3 HANDLER CHAR(8) INIT('?'),
              4835    1         3 DSPMSK BIT(32) INIT( '00000000000000001000000000000000'B ),
              4841    1         3 DSPENT(0:31) REDEF DSPMSK BIT(1),
              4876    1         3 SLCMSK BIT(32) INIT( '00000000000000001000000000000000'B )
              4882    1         ,
              4883    1         3 SLCENT(0:31) REDEF SLCMSK BIT(1)
              4885    1         ,
              4890    1         2 UXEQTIME(0:3) UBIN(32) INIT(0),
              4894    1         2 USRVTIME(0:3) UBIN(32) INIT(0) UNAL,
              4898    1         2 MXEQTIME(0:3) UBIN(32) INIT(0),
PL6.E3A0      #001=GH_SCHD_D File=GH_SCHD_D.:E05TSI                              TUE 07/29/97 21:40 Page:11
              4901    1         2 MIDLTIME(0:3) UBIN(32) INIT(0),
              4904    1         2 BOOT_UTS UBIN(32) INIT(0),
              4909    1         2 CURR_UTS UBIN(32) INIT(0),
              4911    1         2 PAGES_TOTSHF UBIN(32) INIT(0),
              4913    1         2 PAGES_TOTNONSHF UBIN(32) INIT(0),
              4915    1         2 PAGES_FRESHF UBIN(32) INIT(0),
              4917    1         2 PAGES_FRENONSHF UBIN(32) INIT(0),
              4919    1         2 PAGES_AVLSHF UBIN(32) INIT(0),
              4921    1         2 PAGES_CG_FPRG UBIN(32) INIT(0),
              4923    1         2 PAGES_TS_FPRG UBIN(32) INIT(0),
              4925    1         2 PAGES_HANDLER UBIN(32) INIT(0),
              4927    1         2 PAGES_GHOST UBIN(32) INIT(0),
              4929    1         2 PAGES_MONITOR UBIN(32) INIT(0),
              4931    1         2 PAGES_TOTAL UBIN(32) INIT(0),
              4933    1         2 USERS_CG_FPRG UBIN(32) INIT(0),
              4935    1         2 USERS_TS_FPRG UBIN(32) INIT(0),
              4937    1         2 USERS_HANDLER UBIN(32) INIT(0),
              4939    1         2 USERS_GHOST UBIN(32) INIT(0),
              4940    1         2 READS_HOST UBIN(32) INIT(0),
              4945    1         2 READS_UC UBIN(32) INIT(0),
              4950    1         2 READS_LG UBIN(32) INIT(0),
              4955    1         2 READS_NA UBIN(32) INIT(0),
              4960    1         2 WRITES_HOST UBIN(32) INIT(0),
              4965    1         2 WRITES_UC UBIN(32) INIT(0),
              4970    1         2 WRITES_LG UBIN(32) INIT(0),
              4975    1         2 WRITES_NA UBIN(32) INIT(0),
              4980    1         2 BYTES_READ_HOST UBIN(32) INIT(0),
              4985    1         2 BYTES_READ_UC UBIN(32) INIT(0),
              4990    1         2 BYTES_READ_LG UBIN(32) INIT(0),
              4995    1         2 BYTES_READ_NA UBIN(32) INIT(0),
              5000    1         2 BYTES_WRT_HOST UBIN(32) INIT(0),
              5005    1         2 BYTES_WRT_UC UBIN(32) INIT(0),
              5010    1         2 BYTES_WRT_LG UBIN(32) INIT(0),
              5015    1         2 BYTES_WRT_NA UBIN(32) INIT(0),
              5020    1         2 CURR_USERS UBIN(32) INIT(0),
              5025    1         2 CURR_SSN UBIN(32) INIT(0),
              5030    1         2 CURR_LDCT UBIN(32) INIT(0),
PL6.E3A0      #001=GH_SCHD_D File=GH_SCHD_D.:E05TSI                              TUE 07/29/97 21:40 Page:12
              5035    1         2 CURR_IOP UBIN(32) INIT(0),
              5040    1         2 PEAK_USERS UBIN(32) INIT(0),
              5045    1         2 PEAK_SSN UBIN(32) INIT(0),
              5050    1         2 PEAK_LDCT UBIN(32) INIT(0),
              5055    1         2 PEAK_IOP UBIN(32) INIT(0),
              5060    1         2 FPRG_FTCH_HOST UBIN(32) INIT(0),
              5065    1         2 FPRG_FTCH_SFILE UBIN(32) INIT(0);
       51     5073        %PLIST;
       52     5074
       53     5075    1   DCL GH_CLOCKHD UBIN STATIC SYMDEF INIT(BITBIN('FFFF'X));
       54     5076    1   DCL G_CPUSTATE(0:3) UBIN STATIC SYMDEF INIT(%G_ROCKING#*0);
       55     5077
       56     5078    1   DCL G_NSCPU UBIN STATIC SYMDEF INIT(0);
       57     5079        /*B*     G_NSCPU - Number of slave CPUs configured.  This will be zero
       58     5080                          on a mono-processor system.
       59     5081                                                                           */
       60     5082    1   DCL G_NSCPUA UBIN STATIC SYMDEF INIT(0);
       61     5083        /*B*     G_NSCPUA - Number of currently active CPUs.                  */
       62     5084
       63     5085    1   DCL G_DIS SBIN STATIC SYMDEF INIT(-1);     /* DISABLE counter  */
       64     5086        %G_STTTXT (NAME=G_STTTXT,STCLASS="STATIC SYMDEF");
       65     5103        /*B*     G_STTTXT - Table of Scheduler State Names in four character
       66     5104                          string.                                          */
       67     5105
       68     5106    1   DCL G_MING UBIN STATIC SYMDEF INIT(2);
       69     5107        /*K* G_MING - UBIN.
       70     5108        Set by BIGFOOT to the number of boottime handlers.
       71     5109        Used by the delete user logic to determine if a
       72     5110        required handler is aborting.
       73     5111        */
       74     5112
       75     5113    1   DCL 1 G_EVFLG UBIN STATIC SYMDEF INIT(1);
       76     5114        /*K* G_EVFLG - UBIN.
       77     5115        If non-zero, the scheduler event recording logic is enabled.
       78     5116        */
       79     5117
       80     5118    1   DCL 1 G_EVX UBIN STATIC SYMDEF INIT(0);
PL6.E3A0      #001=GH_SCHD_D File=GH_SCHD_D.:E05TSI                              TUE 07/29/97 21:40 Page:13
       81     5119        /*K* G_EVX - UBIN.
       82     5120        Contains the index into the event buffer for the next available
       83     5121        event entry.
       84     5122        */
       85     5123
       86     5124    1   DCL G$EVBUF$ PTR STATIC SYMDEF INIT(ADDR(NIL));
       87     5125        /*K* G$EVBUF$ - PTR.
       88     5126        Contains the address of the event buffer, which resides in the
       89     5127        BOBCAT data segment.  Initialized by GIB$BIGFOOT.
       90     5128        This is a copy of G$BOBCAT.EVBUF$.
       91     5129        */
       92     5130
       93     5131    1   DCL G_EVBUF# UBIN STATIC SYMDEF INIT(0);
       94     5132        /*K* G_EVBUF# - UBIN.
       95     5133        Contains the number of entries in the event buffer.  Initialized by
       96     5134        BIGFOOT.  This is a copy of G$BOBCAT.EVBUF#.
       97     5135        */
       98     5136    1   END;

PL6.E3A0      #001=GH_SCHD_D File=GH_SCHD_D.:E05TSI                              TUE 07/29/97 21:40 Page:14
--  Include file information  --

   P_FEP_M.:E05TOU  is referenced.
   K_ID_E.:E05TOU  is referenced.
   KL_AFCN_C.:E05TOU  is referenced.
   KL_MACRO_C.:E05TOU  is referenced.
   LCP_6.:E05TOU  cannot be made into a system file and is referenced.
   GH_GATE_M.:E05TOU  cannot be made into a system file and is referenced.
   GH_SCHD_M.:E05TOU  is referenced.
   GH_SCHD_E.:E05TOU  is referenced.
   G_LCP6_E.:E05TOU  was found in the system file and is referenced.
   GT_LCP6_M.:E05TOU  was found in the system file and is referenced.
   KI_CP6.:E05TOU  was found in the system file and is referenced.
   GF_LCP6_M.:E05TOU  was found in the system file and is referenced.
   GM_LCP6_M.:E05TOU  was found in the system file and is referenced.
   GU_LCP6_M.:E05TOU  was found in the system file and is referenced.
   GJ_LCP6_M.:E05TOU  was found in the system file and is referenced.
   GH_LCP6_M.:E05TOU  was found in the system file and is referenced.
      No diagnostics issued in procedure GH_SCHD_D.
PL6.E3A0      #001=GH_SCHD_D File=GH_SCHD_D.:E05TSI                              TUE 07/29/97 21:40 Page:15

 **** Variables and constants ****


   No code generated for procedure GH_SCHD_D .
   Procedure GH_SCHD_D requires 4 words of local(AUTO) storage.

    No errors detected in file GH_SCHD_D.:E05TSI    .
PL6.E3A0      #001=GH_SCHD_D File=GH_SCHD_D.:E05TSI                              TUE 07/29/97 21:40 Page:16
          *** CROSS REFERENCE LISTING ***
**     DENOTES     IDENTIFIER DEFINITION
<<                 IDENTIFIER'S VALUE SET
>>                 IDENTIFIER'S VALUE USED
<>                 IDENTIFIER SET AND/OR USED
--                 IDENTIFIER REFERENCED
PL6.E3A0      #001=GH_SCHD_D File=GH_SCHD_D.:E05TSI                              TUE 07/29/97 21:40 Page:17
          MINI XREF LISTING

PS_LCP6STT.REQSTATS.DSPMSK
      4835**DCL      4841--REDEF
PS_LCP6STT.REQSTATS.SLCMSK
      4876**DCL      4883--REDEF
