PL6.E3A0      #002=GIB$CPLRIO File=GIB$BIGFOOT.:E05TSI                           TUE 07/29/97 21:43 Page:147
      872        1        /*T***********************************************************/
      873        2        /*T*                                                         */
      874        3        /*T* Copyright (c) Bull HN Information Systems Inc., 1997    */
      875        4        /*T*                                                         */
      876        5        /*T***********************************************************/
      877        6        GIB$CPLRIO: PROC(A66,A6,WORDSIZE);
      878        7        /**/
      879        8    1   DCL A66 UBIN(32);
      880        9    1   DCL A6 UBIN(32);                        /* PROBABLY A POINTER                 */
      881       10    1   DCL WORDSIZE UBIN(32);
      882       11        /**/
      883       12        %INCLUDE GH_HARDWARE_M;
      884      110        %INCLUDE GH_IOFNC_E;
      885      179        %INCLUDE GI_DATA_M;
      886      207        /**/
      887      208    1   DCL GHH$IO_IN ENTRY(1) ALTRET;
      888      209    1   DCL GHH$IO ENTRY(1) ALTRET;
      889      210    1   DCL GHH$IOLD ENTRY(1) ALTRET;
      890      211    1   DCL GHH$HLT ENTRY;
      891      212        /**/
      892      213        %SET LISTMAC='1'B;
      893      214    1   DCL 1 XFERL66_L6 STATIC ALIGNED,
      894      215    1         2 SIZE UBIN INIT(SIZEW(XFERL66_L6)),
      895      216                %GH_CPLDCW (FPTN=XFER,LVL=2,STCLASS=STATIC,OC=%GH#CPL_L66_TO_L6,
      896      217                            MODE=%GH#CTM_ASCII,TALLY=0,LAST=",");
               218        %LSET LISTDIR='0'B;
               231    1   2 XFER ALIGNED,
               233    1   3 OC  UBIN BYTE UNAL INIT(62)/**/,3 MODE  UBIN BYTE UNAL INIT(1)
               234    1   /**/,3 TALLY  UBIN WORD UNAL INIT(0)/**/,3 * UBIN(6)UNAL INIT(0)/**/,
               235    1   3 CN  UBIN(2)UNAL INIT(0)/**/,3 A66  UBIN(24)UNAL INIT(0)
               236    1   /**/,3 * UBIN(7)UNAL INIT(0)/**/,3 BN  UBIN(1)UNAL INIT(0)/**/,3
               237    1   * UBIN(1)UNAL INIT(0)/**/,3 A6  UBIN(23)UNAL INIT(0)/**/,
      897      239                %GH_CPLDCW (FPTN=DISC,LVL=2,STCLASS=STATIC,LAST=";",OC=%GH#CPL_DISCONNECT);
               240        %LSET LISTDIR='0'B;
               253    1   2 DISC ALIGNED,
               255    1   3 OC  UBIN BYTE UNAL INIT(48)/**/,3 MODE  UBIN BYTE UNAL INIT(0)
               256    1   /**/,3 TALLY  UBIN WORD UNAL INIT(0)/**/,3 * UBIN(6)UNAL INIT(0)/**/,
PL6.E3A0      #002=GIB$CPLRIO File=GIB$BIGFOOT.:E05TSI                           TUE 07/29/97 21:43 Page:148
               257    1   3 CN  UBIN(2)UNAL INIT(0)/**/,3 A66  UBIN(24)UNAL INIT(0)
               258    1   /**/,3 * UBIN(7)UNAL INIT(0)/**/,3 BN  UBIN(1)UNAL INIT(0)/**/,3
               259    1   * UBIN(1)UNAL INIT(0)/**/,3 A6  UBIN(23)UNAL INIT(0)/**/;
      898      261        %SET LISTMAC='0'B;
      899      262        %GH_IO (FPTN=GH_IO,STCLASS=STATIC);
      900      278        %GH_IO (FPTN=GETSTWD,STCLASS=STATIC);
      901      294        %GH_IOLD (FPTN=EXCDCW,STCLASS=STATIC,FNC=%GH#IO_IOLD);
      902      309        /**/
      903      310    1   DCL 1 STATUS ALIGNED,
      904      311    1         2 WD1 BIT(16),
      905      312    1         2 WD2 BIT(16);
      906      313    1   DCL GI_ADDR UBIN(32) STATIC SYMDEF INIT(0);
      907      314    1   DCL 1 GI_L66WD STATIC SYMDEF ALIGNED,
      908      315    1         2 L6DBLWD UBIN(32) UNAL,
      909      316    1         2 * BIT(4) UNAL;
      910      317    1   DCL GI_FEX UBIN(32) STATIC SYMDEF INIT(0);
      911      318        /**/
      912      319        %EQU QSIZOFFSET = 5;                    /* offset to KI$QHDR.QSIZE            */
      913      320        %EQU QHDRSIZE = 16;                     /* size of KI$QHDR in L66 words       */
      914      321        %EQU FEXOFFSET = 3;                     /* offset to KI$QHDR.FEX              */
      915      322    1   DCL WDSLEFT SBIN(32);
      916      323        /**/
      917      324    1   DCL GIT$TOP PTR SYMREF;
      918      325    1   DCL GI_BOOTCHAN UBIN WORD SYMREF;
      919      326    1   DCL GI_BOOTBASE UBIN(32) SYMREF;
      920      327    1   DCL GI_OFFSETS UBIN(32) SYMREF;
      921      328    1   DCL GI$OFFSETS$ PTR SYMREF;
      922      329    1   DCL GIR$ROOT UBIN WORD SYMREF;
      923      330        /**/
      924      331        %GI$OFFSETS (FPTN=GI$OFFSETS,STCLASS="BASED(GI$OFFSETS$)");
      925      336        /**/
      926      337        %EQU K1=1024;
      927      338        %EQU K2=2048;
      928      339        %EQU K4=4096;
      929      340        %EQU K8=8192;
      930      341        %EQU K16=16384;
      931      342        %EQU K32=32768;
PL6.E3A0      #002=GIB$CPLRIO File=GIB$BIGFOOT.:E05TSI                           TUE 07/29/97 21:43 Page:149
      932      343        %EQU K64=65536;
      933      344        /**/
      934      345        %EJECT;
PL6.E3A0      #002=GIB$CPLRIO File=GIB$BIGFOOT.:E05TSI                           TUE 07/29/97 21:43 Page:150
      935      346        /*F*    NAME:  GIB$CPLRBOOT
      936      347                DESCRIPTION:
      937      348                   GIB$CPLRBOOT is called to boot BIGFOOT in from the coupler.
      938      349                The bootload order to the coupler has already placed the first
      939      350                8K of BIGFOOT in L6 memory.  The rest of BIGFOOT must be
      940      351                transfered through the coupler via coupler DCW lists.
      941      352                                                                           */
      942      353    1   GIB$CPLRBOOT: ENTRY;
      943      354        /**/
      944      355        /* Initialize the coupler */
      945      356        /**/
      946      357    1      GH_IO.CAS.CHN=GI_BOOTCHAN;
      947      358    1      GH_IO.CAS.FNC=%GH#IO_OTPCTR;
      948      359    1      GH_IO.DAS='8000'X;
      949      360    1      CALL DOIO(GH_IO) ALTRET(FREEZE);
      950      361    1      GH_IO.CAS.CHN=GI_BOOTCHAN+1;
      951      362    1      GH_IO.CAS.FNC=%GH#IO_OTPCNFA;
      952      363    1      GH_IO.DAS='0080'X;
      953      364    1      CALL DOIO(GH_IO) ALTRET(FREEZE);
      954      365        /* Now calculate the boot offset */
      955      366        /* Until we get the correct stuff in the host : */
      956      367    1      GI_ADDR = POFFW(ADDR(GI_L66WD),ADDR(GIR$ROOT));
      957      368    1      XFERL66_L6.XFER.MODE = %GH#CTM_BIN;
      958      369    1      XFERL66_L6.XFER.A66 = %QSIZOFFSET;
      959      370    1      XFERL66_L6.XFER.A6 = GI_ADDR;
      960      371    1      XFERL66_L6.XFER.TALLY = 1;
      961      372    1      CALL COUPLER_IO(XFERL66_L6) ALTRET(FREEZE);
      962      373    1      GI_BOOTBASE = GI_L66WD.L6DBLWD + 2 * %QHDRSIZE;
      963      374    1      XFERL66_L6.XFER.A66 = %QSIZOFFSET + GI_L66WD.L6DBLWD + %QHDRSIZE;
      964      375    1      CALL COUPLER_IO(XFERL66_L6) ALTRET(FREEZE);
      965      376    1      GI_BOOTBASE = GI_BOOTBASE + GI_L66WD.L6DBLWD + 1;
      966      377    1      IF GI_BOOTBASE < %BITBIN('2001'X)
      967      378    1      THEN
      968      379    1           GI_BOOTBASE = %BITBIN('2001'X);
      969      380    1      XFERL66_L6.XFER.A66 = %FEXOFFSET;
      970      381    1      XFERL66_L6.XFER.MODE = %GH#CTM_ASCII;
      971      382    1      XFERL66_L6.XFER.TALLY = 4;
PL6.E3A0      #002=GIB$CPLRIO File=GIB$BIGFOOT.:E05TSI                           TUE 07/29/97 21:43 Page:151
      972      383    1      CALL COUPLER_IO(XFERL66_L6) ALTRET(FREEZE);
      973      384    1      GI_FEX = GI_L66WD.L6DBLWD;
      974      385    1      XFERL66_L6.XFER.A66=GI_BOOTBASE+%K4; /* Already have first 8K              */
      975      386    1      XFERL66_L6.XFER.A6=%K8;
      976      387    1      XFERL66_L6.XFER.TALLY=0;
      977      388    1      WDSLEFT=POFFW(ADDR(GIT$TOP),ADDR(GIR$ROOT))-%K8;
      978      389    2      DO WHILE(WDSLEFT>0);
      979      390    2           IF WDSLEFT<%K32 THEN
      980      391    2                XFERL66_L6.XFER.TALLY=WDSLEFT*2;
      981      392    2           CALL COUPLER_IO(XFERL66_L6) ALTRET(FREEZE);
      982      393    2           WDSLEFT=WDSLEFT-%K32;
      983      394    2           XFERL66_L6.XFER.A66=XFERL66_L6.XFER.A66+%K16;
      984      395    2           XFERL66_L6.XFER.A6=XFERL66_L6.XFER.A6+%K32;
      985      396    2           END;
      986      397        /**/
      987      398        /* Now get the boot offsets */
      988      399        /**/
      989      400    1      XFERL66_L6.XFER.A66=GI_OFFSETS+GI_BOOTBASE;
      990      401    1      XFERL66_L6.XFER.A6=POFFW(GI$OFFSETS$,ADDR(GIR$ROOT));
      991      402    1      XFERL66_L6.XFER.TALLY=SIZEC(GI$OFFSETS);
      992      403    1      CALL COUPLER_IO(XFERL66_L6) ALTRET(FREEZE);
      993      404    1      XFERL66_L6.XFER.TALLY = SIZEC(GI$OFFSETS) + (GI$OFFSETS.NHANDLERS-1)*SIZEC(
               404               GI$OFFSETS.HANDLER);
      994      405    1      CALL COUPLER_IO (XFERL66_L6) ALTRET(FREEZE);
      995      406    1      RETURN;                              /* FOR NOW                            */
      996      407        /**/
      997      408    1   FREEZE: CALL GHH$HLT;
      998      409        %EJECT;
PL6.E3A0      #002=GIB$CPLRIO File=GIB$BIGFOOT.:E05TSI                           TUE 07/29/97 21:43 Page:152
      999      410    1   GIB$READCPLR: ENTRY(A66,A6,WORDSIZE);
     1000      411    1      XFERL66_L6.XFER.A66=A66+GI_BOOTBASE;
     1001      412    1      XFERL66_L6.XFER.A6=A6;
     1002      413    1      XFERL66_L6.XFER.TALLY=0;
     1003      414    1      WDSLEFT=WORDSIZE;
     1004      415    2      DO WHILE (WDSLEFT>0);
     1005      416    2           IF WDSLEFT<%K32 THEN
     1006      417    2                XFERL66_L6.XFER.TALLY=WDSLEFT*2;
     1007      418    2           CALL COUPLER_IO(XFERL66_L6) ALTRET(FREEZE);
     1008      419    2           WDSLEFT=WDSLEFT-%K32;
     1009      420    2           XFERL66_L6.XFER.A66=XFERL66_L6.XFER.A66+%K16;
     1010      421    2           XFERL66_L6.XFER.A6=XFERL66_L6.XFER.A6+%K32;
     1011      422    2           END;
     1012      423    1      RETURN;
     1013      424        %EJECT;
PL6.E3A0      #002=GIB$CPLRIO File=GIB$BIGFOOT.:E05TSI                           TUE 07/29/97 21:43 Page:153
     1014      425    1   GIB$SETADP: ENTRY;
     1015      426        /*
     1016      427             if this fep was booted from an 8000 we need to turn on the
     1017      428             adp bit in the coupler.  if there is one.
     1018      429        */
     1019      430    1      GH_IO.CAS.CHN=GI_BOOTCHAN+1;
     1020      431    1      GH_IO.CAS.FNC=%GH#IO_OTPCNFA;
     1021      432    1      GH_IO.DAS = '2080'X;
     1022      433    1      CALL DOIO(GH_IO) ALTRET(FREEZE);
     1023      434    1      RETURN;
     1024      435        %EJECT;
PL6.E3A0      #002=GIB$CPLRIO File=GIB$BIGFOOT.:E05TSI                           TUE 07/29/97 21:43 Page:154
     1025      436    1   GIB$INTCPLR: ENTRY;
     1026      437
     1027      438    1      GH_IO.CAS.CHN = GI_BOOTCHAN + 2;
     1028      439    1      GH_IO.CAS.FNC = %GH#IO_OTPINTCTR;
     1029      440    1      GH_IO.RANGE = 3;
     1030      441    1      CALL DOIO (GH_IO);
     1031      442    1      RETURN;
     1032      443
     1033      444        %EJECT;
PL6.E3A0      #002=GIB$CPLRIO File=GIB$BIGFOOT.:E05TSI                           TUE 07/29/97 21:43 Page:155
     1034      445    1   COUPLER_IO: PROC(DCWLIST) ALTRET;
     1035      446    2   DCL DCWLIST UBIN;
     1036      447        /**/
     1037      448    2   DCL NAK BIT(1) ALIGNED;
     1038      449    2   DCL I SBIN;
     1039      450    2      EXCDCW.CHN=GI_BOOTCHAN+1;            /* DCW LIST FUNCTION                  */
     1040      451    2      EXCDCW.BUF$=PINCRW(ADDR(DCWLIST),1);
     1041      452    2      EXCDCW.BYTX=0;
     1042      453    2      EXCDCW.BUFSIZE=(DCWLIST-1)*2;
     1043      454    2      NAK='1'B;
     1044      455    3      DO WHILE(NAK);
     1045      456    3           CALL GHH$IOLD(EXCDCW) ALTRET(IOLD_NAK);
     1046      457    3           NAK='0'B;
     1047      458    3   IOLD_NAK: END;
     1048      459    2      GETSTWD.CAS.CHN=GI_BOOTCHAN;
     1049      460    2      GETSTWD.CAS.FNC=%GH#IO_INPSTT1;
     1050      461    2      NAK='1'B;
     1051      462    3      DO WHILE(NAK);
     1052      463    4           DO I=0 TO 10000;
     1053      464    4                END;
     1054      465    3           CALL GHH$IO_IN(GETSTWD) ALTRET(ST1_NAK);
     1055      466    3           NAK='0'B;
     1056      467    3   ST1_NAK: END;
     1057      468    2      STATUS.WD1=GETSTWD.STATUS;
     1058      469    2      GETSTWD.CAS.FNC=%GH#IO_INPSTT2;
     1059      470    2      NAK='1'B;
     1060      471    3      DO WHILE(NAK);
     1061      472    3           CALL GHH$IO_IN(GETSTWD) ALTRET(ST2_NAK);
     1062      473    3           NAK='0'B;
     1063      474    3   ST2_NAK: END;
     1064      475    2      STATUS.WD2=GETSTWD.STATUS;
     1065      476    2      IF STATUS.WD1='8000'X THEN
     1066      477    2           RETURN;
     1067      478    2      ELSE
     1068      479    2           ALTRETURN;
     1069      480    2   END COUPLER_IO;
     1070      481        %EJECT;
PL6.E3A0      #002=GIB$CPLRIO File=GIB$BIGFOOT.:E05TSI                           TUE 07/29/97 21:43 Page:156
     1071      482    1   DOIO: PROC(GH_IO) ALTRET;
     1072      483        %GH_IO (FPTN=GH_IO,STCLASS="");
     1073      499    2   DCL NAK BIT(1) ALIGNED;
     1074      500    2      NAK='1'B;
     1075      501    3      DO WHILE(NAK);
     1076      502    3           CALL GHH$IO(GH_IO) ALTRET(NAKED);
     1077      503    3           NAK='0'B;
     1078      504    3   NAKED:  END;
     1079      505    2      RETURN;
     1080      506    2   END DOIO;
     1081      507    1   END GIB$CPLRIO;
     1082      508        %EOD;

PL6.E3A0      #002=GIB$CPLRIO File=GIB$BIGFOOT.:E05TSI                           TUE 07/29/97 21:43 Page:157
--  Include file information  --

   GI_DATA_M.:E05TOU  is referenced.
   GH_IOFNC_E.:E05TOU  is referenced.
   GH_HARDWARE_M.:E05TOU  is referenced.
   G_LCP6_E.:E05TOU  was found in the system file and is never referenced.
   GT_LCP6_M.:E05TOU  was found in the system file and is never referenced.
   KI_CP6.:E05TOU  was found in the system file and is never referenced.
   GF_LCP6_M.:E05TOU  was found in the system file and is never referenced.
   GM_LCP6_M.:E05TOU  was found in the system file and is never referenced.
   GU_LCP6_M.:E05TOU  was found in the system file and is never referenced.
   GJ_LCP6_M.:E05TOU  was found in the system file and is never referenced.
   GH_LCP6_M.:E05TOU  was found in the system file and is never referenced.
      No diagnostics issued in procedure GIB$CPLRIO.

   Procedure GIB$CPLRIO requires 868 words for executable code.
   Procedure GIB$CPLRIO requires 24 words of local(AUTO) storage.

PL6.E3A0      #002=GIB$CPLRIO File=GIB$BIGFOOT.:E05TSI                           TUE 07/29/97 21:43 Page:158

 Object Unit name= GIB$CPLRIO                                 File name= GIB$BIGFOOT.:E05TOU
 UTS= JUL 29 '97 21:43:33.32 TUE                              Compiler= PL-6/E31         Sev=      00
 SharedLib= :SHARED_LCP6_SYSTEM                               Alt SharedLib=


    ****  Control sections  ****

 Sect   Type Bound  Init  Size HexSiz  Section name
    0   Data  even  none    29     1D  GIB$CPLRIO
    1   Proc  even  none   868    364  GIB$CPLRIO
    2  RoData even  none     4      4  GIB$CPLRIO

    ****  Entry defs  ****

                              Check   Calling
                             calling  sequence
  Sect HexLoc Primary Altret sequence   type   Parms  Name
     1      0   yes            yes      Std        3  GIB$CPLRIO
     1      7                  yes      Std        0  GIB$CPLRBOOT
     1    1E3                  yes      Std        3  GIB$READCPLR
     1    279                  yes      Std        0  GIB$SETADP
     1    29C                  yes      Std        0  GIB$INTCPLR

  ****  Data defs  ****

 Sect HexLoc  Name                           Sect HexLoc  Name
    0     16  GI_ADDR                            0     18  GI_L66WD
    0     1B  GI_FEX
PL6.E3A0      #002=GIB$CPLRIO File=GIB$BIGFOOT.:E05TSI                           TUE 07/29/97 21:43 Page:159

  ****  Entry refs  ****

         Check        Calling
        calling       sequence
Altret sequence SRef   type   Args  Name
         yes           Std       0 GHH$HLT
 yes     yes           Std       1 GHH$IOLD
 yes     yes           Std       1 GHH$IO_IN
 yes     yes           Std       1 GHH$IO
                       nStd      0 X6A_AUTO_3
                       nStd      0 X6B_BLR
                       nStd      0 X6A_ARET

  ****  Data refs  ****

  Flags:  r = read only, s = secondary
Flgs Name                             Flgs Name                             Flgs Name
     GIT$TOP                               GI_BOOTCHAN                           GI_BOOTBASE
     GI_OFFSETS                            GI$OFFSETS$                           GIR$ROOT
r    G$ROS$
PL6.E3A0      #002=GIB$CPLRIO File=GIB$BIGFOOT.:E05TSI                           TUE 07/29/97 21:43 Page:160


      872        1        /*T***********************************************************/
      873        2        /*T*                                                         */
      874        3        /*T* Copyright (c) Bull HN Information Systems Inc., 1997    */
      875        4        /*T*                                                         */
      876        5        /*T***********************************************************/
      877        6        GIB$CPLRIO: PROC(A66,A6,WORDSIZE);

      6   1 000000  D380 0000 0000  xent GIB$CPLRIO      LNJ,B5   X6A_AUTO_3
          1 000003       0018 0003                       DC       24,3
          1 000005  0F81 0006                            B        s:357,PREL

      878        7        /**/
      879        8    1   DCL A66 UBIN(32);
      880        9    1   DCL A6 UBIN(32);                        /* PROBABLY A POINTER                 */
      881       10    1   DCL WORDSIZE UBIN(32);
      882       11        /**/
      883       12        %INCLUDE GH_HARDWARE_M;
      884      110        %INCLUDE GH_IOFNC_E;
      885      179        %INCLUDE GI_DATA_M;
      886      207        /**/
      887      208    1   DCL GHH$IO_IN ENTRY(1) ALTRET;
      888      209    1   DCL GHH$IO ENTRY(1) ALTRET;
      889      210    1   DCL GHH$IOLD ENTRY(1) ALTRET;
      890      211    1   DCL GHH$HLT ENTRY;
      891      212        /**/
      892      213        %SET LISTMAC='1'B;
      893      214    1   DCL 1 XFERL66_L6 STATIC ALIGNED,
      894      215    1         2 SIZE UBIN INIT(SIZEW(XFERL66_L6)),
      895      216                %GH_CPLDCW (FPTN=XFER,LVL=2,STCLASS=STATIC,OC=%GH#CPL_L66_TO_L6,
      896      217                            MODE=%GH#CTM_ASCII,TALLY=0,LAST=",");
               218        %LSET LISTDIR='0'B;
               231    1   2 XFER ALIGNED,
               233    1   3 OC  UBIN BYTE UNAL INIT(62)/**/,3 MODE  UBIN BYTE UNAL INIT(1)
               234    1   /**/,3 TALLY  UBIN WORD UNAL INIT(0)/**/,3 * UBIN(6)UNAL INIT(0)/**/,
               235    1   3 CN  UBIN(2)UNAL INIT(0)/**/,3 A66  UBIN(24)UNAL INIT(0)
               236    1   /**/,3 * UBIN(7)UNAL INIT(0)/**/,3 BN  UBIN(1)UNAL INIT(0)/**/,3
PL6.E3A0      #002=GIB$CPLRIO File=GIB$BIGFOOT.:E05TSI                           TUE 07/29/97 21:43 Page:161
               237    1   * UBIN(1)UNAL INIT(0)/**/,3 A6  UBIN(23)UNAL INIT(0)/**/,
      897      239                %GH_CPLDCW (FPTN=DISC,LVL=2,STCLASS=STATIC,LAST=";",OC=%GH#CPL_DISCONNECT);
               240        %LSET LISTDIR='0'B;
               253    1   2 DISC ALIGNED,
               255    1   3 OC  UBIN BYTE UNAL INIT(48)/**/,3 MODE  UBIN BYTE UNAL INIT(0)
               256    1   /**/,3 TALLY  UBIN WORD UNAL INIT(0)/**/,3 * UBIN(6)UNAL INIT(0)/**/,
               257    1   3 CN  UBIN(2)UNAL INIT(0)/**/,3 A66  UBIN(24)UNAL INIT(0)
               258    1   /**/,3 * UBIN(7)UNAL INIT(0)/**/,3 BN  UBIN(1)UNAL INIT(0)/**/,3
               259    1   * UBIN(1)UNAL INIT(0)/**/,3 A6  UBIN(23)UNAL INIT(0)/**/;
      898      261        %SET LISTMAC='0'B;
      899      262        %GH_IO (FPTN=GH_IO,STCLASS=STATIC);
      900      278        %GH_IO (FPTN=GETSTWD,STCLASS=STATIC);
      901      294        %GH_IOLD (FPTN=EXCDCW,STCLASS=STATIC,FNC=%GH#IO_IOLD);
      902      309        /**/
      903      310    1   DCL 1 STATUS ALIGNED,
      904      311    1         2 WD1 BIT(16),
      905      312    1         2 WD2 BIT(16);
      906      313    1   DCL GI_ADDR UBIN(32) STATIC SYMDEF INIT(0);
      907      314    1   DCL 1 GI_L66WD STATIC SYMDEF ALIGNED,
      908      315    1         2 L6DBLWD UBIN(32) UNAL,
      909      316    1         2 * BIT(4) UNAL;
      910      317    1   DCL GI_FEX UBIN(32) STATIC SYMDEF INIT(0);
      911      318        /**/
      912      319        %EQU QSIZOFFSET = 5;                    /* offset to KI$QHDR.QSIZE            */
      913      320        %EQU QHDRSIZE = 16;                     /* size of KI$QHDR in L66 words       */
      914      321        %EQU FEXOFFSET = 3;                     /* offset to KI$QHDR.FEX              */
      915      322    1   DCL WDSLEFT SBIN(32);
      916      323        /**/
      917      324    1   DCL GIT$TOP PTR SYMREF;
      918      325    1   DCL GI_BOOTCHAN UBIN WORD SYMREF;
      919      326    1   DCL GI_BOOTBASE UBIN(32) SYMREF;
      920      327    1   DCL GI_OFFSETS UBIN(32) SYMREF;
      921      328    1   DCL GI$OFFSETS$ PTR SYMREF;
      922      329    1   DCL GIR$ROOT UBIN WORD SYMREF;
      923      330        /**/
      924      331        %GI$OFFSETS (FPTN=GI$OFFSETS,STCLASS="BASED(GI$OFFSETS$)");
      925      336        /**/
PL6.E3A0      #002=GIB$CPLRIO File=GIB$BIGFOOT.:E05TSI                           TUE 07/29/97 21:43 Page:162
      926      337        %EQU K1=1024;
      927      338        %EQU K2=2048;
      928      339        %EQU K4=4096;
      929      340        %EQU K8=8192;
      930      341        %EQU K16=16384;
      931      342        %EQU K32=32768;
      932      343        %EQU K64=65536;
      933      344        /**/
      934      345        %EJECT;
PL6.E3A0      #002=GIB$CPLRIO File=GIB$BIGFOOT.:E05TSI                           TUE 07/29/97 21:43 Page:163
      935      346        /*F*    NAME:  GIB$CPLRBOOT
      936      347                DESCRIPTION:
      937      348                   GIB$CPLRBOOT is called to boot BIGFOOT in from the coupler.
      938      349                The bootload order to the coupler has already placed the first
      939      350                8K of BIGFOOT in L6 memory.  The rest of BIGFOOT must be
      940      351                transfered through the coupler via coupler DCW lists.
      941      352                                                                           */
      942      353    1   GIB$CPLRBOOT: ENTRY;

    353   1 000007  D380 0000 0000  xent GIB$CPLRBOOT    LNJ,B5   X6A_AUTO_3
          1 00000A       0018 0003                       DC       24,3

      943      354        /**/
      944      355        /* Initialize the coupler */
      945      356        /**/
      946      357    1      GH_IO.CAS.CHN=GI_BOOTCHAN;

    357   1 00000C  E800 0000 0000  xsym                 LDR,R6   GI_BOOTCHAN
          1 00000F  6006                                 SOL,R6   6
          1 000010  EA80 0000 000D  00                   SRM,R6,'FFC0'X    GH_IO
          1 000013       FFC0

      947      358    1      GH_IO.CAS.FNC=%GH#IO_OTPCTR;

    358   1 000014  6C01                                 LDV,R6   1
          1 000015  EA80 0000 000D  00                   SRM,R6,'003F'X    GH_IO
          1 000018       003F

      948      359    1      GH_IO.DAS='8000'X;

    359   1 000019  D870 8000                            LDR,R5   -32768,IMO
          1 00001B  DF00 0000 000E  00                   STR,R5   GH_IO+1

      949      360    1      CALL DOIO(GH_IO) ALTRET(FREEZE);

    360   1 00001E  EB80 0000 000D  00                   LAB,B6   GH_IO
          1 000021  EFC7 0010                            STB,B6   WDSLEFT+4,AUTO
PL6.E3A0      #002=GIB$CPLRIO File=GIB$BIGFOOT.:E05TSI                           TUE 07/29/97 21:43 Page:164
          1 000023  E3C0 0326                            LNJ,B6   s:0,PREL
          1 000025       01B6                            DC       s:408,PREL

      950      361    1      GH_IO.CAS.CHN=GI_BOOTCHAN+1;

    361   1 000026  E800 0000 0000  xsym                 LDR,R6   GI_BOOTCHAN
          1 000029  6E01                                 ADV,R6   1
          1 00002A  6006                                 SOL,R6   6
          1 00002B  EA80 0000 000D  00                   SRM,R6,'FFC0'X    GH_IO
          1 00002E       FFC0

      951      362    1      GH_IO.CAS.FNC=%GH#IO_OTPCNFA;

    362   1 00002F  6C11                                 LDV,R6   17
          1 000030  EA80 0000 000D  00                   SRM,R6,'003F'X    GH_IO
          1 000033       003F

      952      363    1      GH_IO.DAS='0080'X;

    363   1 000034  D870 0080                            LDR,R5   128,IMO
          1 000036  DF00 0000 000E  00                   STR,R5   GH_IO+1

      953      364    1      CALL DOIO(GH_IO) ALTRET(FREEZE);

    364   1 000039  EB80 0000 000D  00                   LAB,B6   GH_IO
          1 00003C  EFC7 0010                            STB,B6   WDSLEFT+4,AUTO
          1 00003E  E3C0 030B                            LNJ,B6   s:0,PREL
          1 000040       019B                            DC       s:408,PREL

      954      365        /* Now calculate the boot offset */
      955      366        /* Until we get the correct stuff in the host : */
      956      367    1      GI_ADDR = POFFW(ADDR(GI_L66WD),ADDR(GIR$ROOT));

    367   1 000041  EB80 0000 0000  xsym                 LAB,B6   GIR$ROOT
          1 000044  EFC7 0014                            STB,B6   I+1,AUTO
          1 000046  DB80 0000 0018  00                   LAB,B5   GI_L66WD
          1 000049  DFC7 0016                            STB,B5   I+3,AUTO
PL6.E3A0      #002=GIB$CPLRIO File=GIB$BIGFOOT.:E05TSI                           TUE 07/29/97 21:43 Page:165
          1 00004B  8CC7 0016                            LDI      I+3,AUTO
          1 00004D  84C7 0014                            SID      I+1,AUTO
          1 00004F  8D00 0000 0016  00                   SDI      GI_ADDR

      957      368    1      XFERL66_L6.XFER.MODE = %GH#CTM_BIN;

    368   1 000052  5C03                                 LDV,R5   3
          1 000053  DA80 0000 0001  00                   SRM,R5,'00FF'X    XFERL66_L6+1
          1 000056       00FF

      958      369    1      XFERL66_L6.XFER.A66 = %QSIZOFFSET;

    369   1 000057  8CF0 0000 0005                       LDI      5,IMO
          1 00005A  7088                                 DOL,R7   8
          1 00005B  8D47 0014                            SDI      I+1,AUTO
          1 00005D  ABC7 0014                            LAB,B2   I+1,AUTO
          1 00005F  2C00                                 LDV,R2   0
          1 000060  6C20                                 LDV,R6   32
          1 000061  BB80 0000 0000  00                   LAB,B3   XFERL66_L6
          1 000064  3C38                                 LDV,R3   56
          1 000065  7C18                                 LDV,R7   24
          1 000066  D380 0000 0000  xent                 LNJ,B5   X6B_BLR

      959      370    1      XFERL66_L6.XFER.A6 = GI_ADDR;

    370   1 000069  8C80 0000 0016  00                   LDI      GI_ADDR
          1 00006C  7089                                 DOL,R7   9
          1 00006D  8D47 0014                            SDI      I+1,AUTO
          1 00006F  ABC7 0014                            LAB,B2   I+1,AUTO
          1 000071  2C00                                 LDV,R2   0
          1 000072  6C20                                 LDV,R6   32
          1 000073  BB80 0000 0000  00                   LAB,B3   XFERL66_L6
          1 000076  3C59                                 LDV,R3   89
          1 000077  7C17                                 LDV,R7   23
          1 000078  D380 0000 0000  xent                 LNJ,B5   X6B_BLR

      960      371    1      XFERL66_L6.XFER.TALLY = 1;
PL6.E3A0      #002=GIB$CPLRIO File=GIB$BIGFOOT.:E05TSI                           TUE 07/29/97 21:43 Page:166

    371   1 00007B  6C01                                 LDV,R6   1
          1 00007C  EF00 0000 0002  00                   STR,R6   XFERL66_L6+2

      961      372    1      CALL COUPLER_IO(XFERL66_L6) ALTRET(FREEZE);

    372   1 00007F  EB80 0000 0000  00                   LAB,B6   XFERL66_L6
          1 000082  EFC7 0010                            STB,B6   WDSLEFT+4,AUTO
          1 000084  E3C0 0238                            LNJ,B6   s:0,PREL
          1 000086       0155                            DC       s:408,PREL

      962      373    1      GI_BOOTBASE = GI_L66WD.L6DBLWD + 2 * %QHDRSIZE;

    373   1 000087  8C80 0000 0018  00                   LDI      GI_L66WD
          1 00008A  8470 0000 0020                       AID      32,IMO
          1 00008D  8D00 0000 0000  xsym                 SDI      GI_BOOTBASE

      963      374    1      XFERL66_L6.XFER.A66 = %QSIZOFFSET + GI_L66WD.L6DBLWD + %QHDRSIZE;

    374   1 000090  8C80 0000 0018  00                   LDI      GI_L66WD
          1 000093  8470 0000 0015                       AID      21,IMO
          1 000096  7088                                 DOL,R7   8
          1 000097  8D47 0014                            SDI      I+1,AUTO
          1 000099  ABC7 0014                            LAB,B2   I+1,AUTO
          1 00009B  2C00                                 LDV,R2   0
          1 00009C  6C20                                 LDV,R6   32
          1 00009D  BB80 0000 0000  00                   LAB,B3   XFERL66_L6
          1 0000A0  3C38                                 LDV,R3   56
          1 0000A1  7C18                                 LDV,R7   24
          1 0000A2  D380 0000 0000  xent                 LNJ,B5   X6B_BLR

      964      375    1      CALL COUPLER_IO(XFERL66_L6) ALTRET(FREEZE);

    375   1 0000A5  EB80 0000 0000  00                   LAB,B6   XFERL66_L6
          1 0000A8  EFC7 0010                            STB,B6   WDSLEFT+4,AUTO
          1 0000AA  E3C0 0212                            LNJ,B6   s:0,PREL
          1 0000AC       012F                            DC       s:408,PREL
PL6.E3A0      #002=GIB$CPLRIO File=GIB$BIGFOOT.:E05TSI                           TUE 07/29/97 21:43 Page:167

      965      376    1      GI_BOOTBASE = GI_BOOTBASE + GI_L66WD.L6DBLWD + 1;

    376   1 0000AD  8C80 0000 0000  xsym                 LDI      GI_BOOTBASE
          1 0000B0  8400 0000 0018  00                   AID      GI_L66WD
          1 0000B3  8470 0000 0001                       AID      1,IMO
          1 0000B6  8D00 0000 0000  xsym                 SDI      GI_BOOTBASE

      966      377    1      IF GI_BOOTBASE < %BITBIN('2001'X)

    377   1 0000B9  84F0 0000 2001                       SID      8193,IMO
          1 0000BC  0601 0007                            BCT      s:380,PREL

      967      378    1      THEN
      968      379    1           GI_BOOTBASE = %BITBIN('2001'X);

    379   1 0000BE  8CF0 0000 2001                       LDI      8193,IMO
          1 0000C1  8D00 0000 0000  xsym                 SDI      GI_BOOTBASE

      969      380    1      XFERL66_L6.XFER.A66 = %FEXOFFSET;

    380   1 0000C4  8CF0 0000 0003                       LDI      3,IMO
          1 0000C7  7088                                 DOL,R7   8
          1 0000C8  8D47 0014                            SDI      I+1,AUTO
          1 0000CA  ABC7 0014                            LAB,B2   I+1,AUTO
          1 0000CC  2C00                                 LDV,R2   0
          1 0000CD  6C20                                 LDV,R6   32
          1 0000CE  BB80 0000 0000  00                   LAB,B3   XFERL66_L6
          1 0000D1  3C38                                 LDV,R3   56
          1 0000D2  7C18                                 LDV,R7   24
          1 0000D3  D380 0000 0000  xent                 LNJ,B5   X6B_BLR

      970      381    1      XFERL66_L6.XFER.MODE = %GH#CTM_ASCII;

    381   1 0000D6  6C01                                 LDV,R6   1
          1 0000D7  EA80 0000 0001  00                   SRM,R6,'00FF'X    XFERL66_L6+1
          1 0000DA       00FF
PL6.E3A0      #002=GIB$CPLRIO File=GIB$BIGFOOT.:E05TSI                           TUE 07/29/97 21:43 Page:168

      971      382    1      XFERL66_L6.XFER.TALLY = 4;

    382   1 0000DB  5C04                                 LDV,R5   4
          1 0000DC  DF00 0000 0002  00                   STR,R5   XFERL66_L6+2

      972      383    1      CALL COUPLER_IO(XFERL66_L6) ALTRET(FREEZE);

    383   1 0000DF  EB80 0000 0000  00                   LAB,B6   XFERL66_L6
          1 0000E2  EFC7 0010                            STB,B6   WDSLEFT+4,AUTO
          1 0000E4  E3C0 01D8                            LNJ,B6   s:0,PREL
          1 0000E6       00F5                            DC       s:408,PREL

      973      384    1      GI_FEX = GI_L66WD.L6DBLWD;

    384   1 0000E7  8C80 0000 0018  00                   LDI      GI_L66WD
          1 0000EA  8D00 0000 001B  00                   SDI      GI_FEX

      974      385    1      XFERL66_L6.XFER.A66=GI_BOOTBASE+%K4; /* Already have first 8K              */

    385   1 0000ED  8C80 0000 0000  xsym                 LDI      GI_BOOTBASE
          1 0000F0  8470 0000 1000                       AID      4096,IMO
          1 0000F3  7088                                 DOL,R7   8
          1 0000F4  8D47 0014                            SDI      I+1,AUTO
          1 0000F6  ABC7 0014                            LAB,B2   I+1,AUTO
          1 0000F8  2C00                                 LDV,R2   0
          1 0000F9  6C20                                 LDV,R6   32
          1 0000FA  BB80 0000 0000  00                   LAB,B3   XFERL66_L6
          1 0000FD  3C38                                 LDV,R3   56
          1 0000FE  7C18                                 LDV,R7   24
          1 0000FF  D380 0000 0000  xent                 LNJ,B5   X6B_BLR

      975      386    1      XFERL66_L6.XFER.A6=%K8;

    386   1 000102  8CF0 0000 2000                       LDI      8192,IMO
          1 000105  7089                                 DOL,R7   9
          1 000106  8D47 0014                            SDI      I+1,AUTO
PL6.E3A0      #002=GIB$CPLRIO File=GIB$BIGFOOT.:E05TSI                           TUE 07/29/97 21:43 Page:169
          1 000108  ABC7 0014                            LAB,B2   I+1,AUTO
          1 00010A  2C00                                 LDV,R2   0
          1 00010B  6C20                                 LDV,R6   32
          1 00010C  BB80 0000 0000  00                   LAB,B3   XFERL66_L6
          1 00010F  3C59                                 LDV,R3   89
          1 000110  7C17                                 LDV,R7   23
          1 000111  D380 0000 0000  xent                 LNJ,B5   X6B_BLR

      976      387    1      XFERL66_L6.XFER.TALLY=0;

    387   1 000114  8700 0000 0002  00                   CL       XFERL66_L6+2

      977      388    1      WDSLEFT=POFFW(ADDR(GIT$TOP),ADDR(GIR$ROOT))-%K8;

    388   1 000117  EB80 0000 0000  xsym                 LAB,B6   GIR$ROOT
          1 00011A  EFC7 0014                            STB,B6   I+1,AUTO
          1 00011C  DB80 0000 0000  xsym                 LAB,B5   GIT$TOP
          1 00011F  DFC7 0016                            STB,B5   I+3,AUTO
          1 000121  8CC7 0016                            LDI      I+3,AUTO
          1 000123  84C7 0014                            SID      I+1,AUTO
          1 000125  8470 FFFF E000                       AID      -8192,IMO
          1 000128  8D47 000C                            SDI      WDSLEFT,AUTO

      978      389    2      DO WHILE(WDSLEFT>0);

    389   1 00012A  84F0 0000 0000                       SID      0,IMO
          1 00012D  6801 005B                            BLZ,R6   s:400,PREL
          1 00012F  6A01 0003                            BGZ,R6   s:390,PREL
          1 000131  7901 0057                            BEZ,R7   s:400,PREL

      979      390    2           IF WDSLEFT<%K32 THEN

    390   1 000133  8CC7 000C                            LDI      WDSLEFT,AUTO
          1 000135  84F0 0000 8000                       SID      32768,IMO
          1 000138  6881 0008                            BGEZ,R6  s:392,PREL

      980      391    2                XFERL66_L6.XFER.TALLY=WDSLEFT*2;
PL6.E3A0      #002=GIB$CPLRIO File=GIB$BIGFOOT.:E05TSI                           TUE 07/29/97 21:43 Page:170

    391   1 00013A  8CC7 000C                            LDI      WDSLEFT,AUTO
          1 00013C  7081                                 DOL,R7   1
          1 00013D  E857                                 LDR,R6   R7
          1 00013E  EF00 0000 0002  00                   STR,R6   XFERL66_L6+2

      981      392    2           CALL COUPLER_IO(XFERL66_L6) ALTRET(FREEZE);

    392   1 000141  EB80 0000 0000  00                   LAB,B6   XFERL66_L6
          1 000144  EFC7 0010                            STB,B6   WDSLEFT+4,AUTO
          1 000146  E3C0 0176                            LNJ,B6   s:0,PREL
          1 000148       0093                            DC       s:408,PREL

      982      393    2           WDSLEFT=WDSLEFT-%K32;

    393   1 000149  8CC7 000C                            LDI      WDSLEFT,AUTO
          1 00014B  8470 FFFF 8000                       AID      -32768,IMO
          1 00014E  8D47 000C                            SDI      WDSLEFT,AUTO

      983      394    2           XFERL66_L6.XFER.A66=XFERL66_L6.XFER.A66+%K16;

    394   1 000150  8C80 0000 0003  00                   LDI      XFERL66_L6+3
          1 000153  E570 00FF                            AND,R6   255,IMO
          1 000155  8470 0000 4000                       AID      16384,IMO
          1 000158  7088                                 DOL,R7   8
          1 000159  8D47 0014                            SDI      I+1,AUTO
          1 00015B  ABC7 0014                            LAB,B2   I+1,AUTO
          1 00015D  2C00                                 LDV,R2   0
          1 00015E  6C20                                 LDV,R6   32
          1 00015F  BB80 0000 0000  00                   LAB,B3   XFERL66_L6
          1 000162  3C38                                 LDV,R3   56
          1 000163  7C18                                 LDV,R7   24
          1 000164  D380 0000 0000  xent                 LNJ,B5   X6B_BLR

      984      395    2           XFERL66_L6.XFER.A6=XFERL66_L6.XFER.A6+%K32;

    395   1 000167  8C80 0000 0005  00                   LDI      XFERL66_L6+5
PL6.E3A0      #002=GIB$CPLRIO File=GIB$BIGFOOT.:E05TSI                           TUE 07/29/97 21:43 Page:171
          1 00016A  E570 007F                            AND,R6   127,IMO
          1 00016C  8470 0000 8000                       AID      32768,IMO
          1 00016F  7089                                 DOL,R7   9
          1 000170  8D47 0014                            SDI      I+1,AUTO
          1 000172  ABC7 0014                            LAB,B2   I+1,AUTO
          1 000174  2C00                                 LDV,R2   0
          1 000175  6C20                                 LDV,R6   32
          1 000176  BB80 0000 0000  00                   LAB,B3   XFERL66_L6
          1 000179  3C59                                 LDV,R3   89
          1 00017A  7C17                                 LDV,R7   23
          1 00017B  D380 0000 0000  xent                 LNJ,B5   X6B_BLR

      985      396    2           END;

    396   1 00017E  8CC7 000C                            LDI      WDSLEFT,AUTO
          1 000180  84F0 0000 0000                       SID      0,IMO
          1 000183  6A01 FFAF                            BGZ,R6   s:390,PREL
          1 000185  6801 0003                            BLZ,R6   s:400,PREL
          1 000187  7981 FFAB                            BNEZ,R7  s:390,PREL

      986      397        /**/
      987      398        /* Now get the boot offsets */
      988      399        /**/
      989      400    1      XFERL66_L6.XFER.A66=GI_OFFSETS+GI_BOOTBASE;

    400   1 000189  8C80 0000 0000  xsym                 LDI      GI_OFFSETS
          1 00018C  8400 0000 0000  xsym                 AID      GI_BOOTBASE
          1 00018F  7088                                 DOL,R7   8
          1 000190  8D47 0014                            SDI      I+1,AUTO
          1 000192  ABC7 0014                            LAB,B2   I+1,AUTO
          1 000194  2C00                                 LDV,R2   0
          1 000195  6C20                                 LDV,R6   32
          1 000196  BB80 0000 0000  00                   LAB,B3   XFERL66_L6
          1 000199  3C38                                 LDV,R3   56
          1 00019A  7C18                                 LDV,R7   24
          1 00019B  D380 0000 0000  xent                 LNJ,B5   X6B_BLR

PL6.E3A0      #002=GIB$CPLRIO File=GIB$BIGFOOT.:E05TSI                           TUE 07/29/97 21:43 Page:172
      990      401    1      XFERL66_L6.XFER.A6=POFFW(GI$OFFSETS$,ADDR(GIR$ROOT));

    401   1 00019E  EB80 0000 0000  xsym                 LAB,B6   GIR$ROOT
          1 0001A1  EFC7 0014                            STB,B6   I+1,AUTO
          1 0001A3  8C80 0000 0000  xsym                 LDI      GI$OFFSETS$
          1 0001A6  84C7 0014                            SID      I+1,AUTO
          1 0001A8  7089                                 DOL,R7   9
          1 0001A9  8D47 0016                            SDI      I+3,AUTO
          1 0001AB  ABC7 0014                            LAB,B2   I+1,AUTO
          1 0001AD  2C20                                 LDV,R2   32
          1 0001AE  6C20                                 LDV,R6   32
          1 0001AF  BB80 0000 0000  00                   LAB,B3   XFERL66_L6
          1 0001B2  3C59                                 LDV,R3   89
          1 0001B3  7C17                                 LDV,R7   23
          1 0001B4  D380 0000 0000  xent                 LNJ,B5   X6B_BLR

      991      402    1      XFERL66_L6.XFER.TALLY=SIZEC(GI$OFFSETS);

    402   1 0001B7  6C60                                 LDV,R6   96
          1 0001B8  EF00 0000 0002  00                   STR,R6   XFERL66_L6+2

      992      403    1      CALL COUPLER_IO(XFERL66_L6) ALTRET(FREEZE);

    403   1 0001BB  EB80 0000 0000  00                   LAB,B6   XFERL66_L6
          1 0001BE  EFC7 0010                            STB,B6   WDSLEFT+4,AUTO
          1 0001C0  E3C0 00FC                            LNJ,B6   s:0,PREL
          1 0001C2       0019                            DC       s:408,PREL

      993      404    1      XFERL66_L6.XFER.TALLY = SIZEC(GI$OFFSETS) + (GI$OFFSETS.NHANDLERS-1)*SIZEC(
               404               GI$OFFSETS.HANDLER);

    404   1 0001C3  EC80 0000 0000  xsym                 LDB,B6   GI$OFFSETS$
          1 0001C6  8CC6 002C                            LDI      44,B6
          1 0001C8  7082                                 DOL,R7   2
          1 0001C9  8470 0000 005C                       AID      92,IMO
          1 0001CC  E857                                 LDR,R6   R7
          1 0001CD  EF00 0000 0002  00                   STR,R6   XFERL66_L6+2
PL6.E3A0      #002=GIB$CPLRIO File=GIB$BIGFOOT.:E05TSI                           TUE 07/29/97 21:43 Page:173

      994      405    1      CALL COUPLER_IO (XFERL66_L6) ALTRET(FREEZE);

    405   1 0001D0  DB80 0000 0000  00                   LAB,B5   XFERL66_L6
          1 0001D3  DFC7 0010                            STB,B5   WDSLEFT+4,AUTO
          1 0001D5  E3C0 00E7                            LNJ,B6   s:0,PREL
          1 0001D7       0004                            DC       s:408,PREL

      995      406    1      RETURN;                              /* FOR NOW                            */

    406   1 0001D8  C380 0000 0000  xent                 LNJ,B4   X6A_ARET

      996      407        /**/
      997      408    1   FREEZE: CALL GHH$HLT;

    408   1 0001DB  CBF0 0000            FREEZE          LAB,B4   0,IMO
          1 0001DD  E380 0000 0000  xent                 LNJ,B6   GHH$HLT
          1 0001E0       0001                            DC       s:408+6,PREL
          1 0001E1  0F81 0006                            B        s:411,PREL

      998      409        %EJECT;
PL6.E3A0      #002=GIB$CPLRIO File=GIB$BIGFOOT.:E05TSI                           TUE 07/29/97 21:43 Page:174
      999      410    1   GIB$READCPLR: ENTRY(A66,A6,WORDSIZE);

    410   1 0001E3  D380 0000 0000  xent GIB$READCPLR    LNJ,B5   X6A_AUTO_3
          1 0001E6       0018 0003                       DC       24,3

     1000      411    1      XFERL66_L6.XFER.A66=A66+GI_BOOTBASE;

    411   1 0001E8  ECC7 0004                            LDB,B6   @A66,AUTO
          1 0001EA  8C86                                 LDI      ,B6
          1 0001EB  8400 0000 0000  xsym                 AID      GI_BOOTBASE
          1 0001EE  7088                                 DOL,R7   8
          1 0001EF  8D47 0014                            SDI      I+1,AUTO
          1 0001F1  ABC7 0014                            LAB,B2   I+1,AUTO
          1 0001F3  2C00                                 LDV,R2   0
          1 0001F4  6C20                                 LDV,R6   32
          1 0001F5  BB80 0000 0000  00                   LAB,B3   XFERL66_L6
          1 0001F8  3C38                                 LDV,R3   56
          1 0001F9  7C18                                 LDV,R7   24
          1 0001FA  D380 0000 0000  xent                 LNJ,B5   X6B_BLR

     1001      412    1      XFERL66_L6.XFER.A6=A6;

    412   1 0001FD  ECC7 0006                            LDB,B6   @A6,AUTO
          1 0001FF  8C86                                 LDI      ,B6
          1 000200  7089                                 DOL,R7   9
          1 000201  8D47 0014                            SDI      I+1,AUTO
          1 000203  ABC7 0014                            LAB,B2   I+1,AUTO
          1 000205  2C00                                 LDV,R2   0
          1 000206  6C20                                 LDV,R6   32
          1 000207  BB80 0000 0000  00                   LAB,B3   XFERL66_L6
          1 00020A  3C59                                 LDV,R3   89
          1 00020B  7C17                                 LDV,R7   23
          1 00020C  D380 0000 0000  xent                 LNJ,B5   X6B_BLR

     1002      413    1      XFERL66_L6.XFER.TALLY=0;

    413   1 00020F  8700 0000 0002  00                   CL       XFERL66_L6+2
PL6.E3A0      #002=GIB$CPLRIO File=GIB$BIGFOOT.:E05TSI                           TUE 07/29/97 21:43 Page:175

     1003      414    1      WDSLEFT=WORDSIZE;

    414   1 000212  ECC7 0008                            LDB,B6   @WORDSIZE,AUTO
          1 000214  8C86                                 LDI      ,B6
          1 000215  8D47 000C                            SDI      WDSLEFT,AUTO

     1004      415    2      DO WHILE (WDSLEFT>0);

    415   1 000217  84F0 0000 0000                       SID      0,IMO
          1 00021A  6801 005B                            BLZ,R6   s:423,PREL
          1 00021C  6A01 0003                            BGZ,R6   s:416,PREL
          1 00021E  7901 0057                            BEZ,R7   s:423,PREL

     1005      416    2           IF WDSLEFT<%K32 THEN

    416   1 000220  8CC7 000C                            LDI      WDSLEFT,AUTO
          1 000222  84F0 0000 8000                       SID      32768,IMO
          1 000225  6881 0008                            BGEZ,R6  s:418,PREL

     1006      417    2                XFERL66_L6.XFER.TALLY=WDSLEFT*2;

    417   1 000227  8CC7 000C                            LDI      WDSLEFT,AUTO
          1 000229  7081                                 DOL,R7   1
          1 00022A  E857                                 LDR,R6   R7
          1 00022B  EF00 0000 0002  00                   STR,R6   XFERL66_L6+2

     1007      418    2           CALL COUPLER_IO(XFERL66_L6) ALTRET(FREEZE);

    418   1 00022E  EB80 0000 0000  00                   LAB,B6   XFERL66_L6
          1 000231  EFC7 0010                            STB,B6   WDSLEFT+4,AUTO
          1 000233  E3C0 0089                            LNJ,B6   s:0,PREL
          1 000235       FFA6                            DC       s:408,PREL

     1008      419    2           WDSLEFT=WDSLEFT-%K32;

    419   1 000236  8CC7 000C                            LDI      WDSLEFT,AUTO
PL6.E3A0      #002=GIB$CPLRIO File=GIB$BIGFOOT.:E05TSI                           TUE 07/29/97 21:43 Page:176
          1 000238  8470 FFFF 8000                       AID      -32768,IMO
          1 00023B  8D47 000C                            SDI      WDSLEFT,AUTO

     1009      420    2           XFERL66_L6.XFER.A66=XFERL66_L6.XFER.A66+%K16;

    420   1 00023D  8C80 0000 0003  00                   LDI      XFERL66_L6+3
          1 000240  E570 00FF                            AND,R6   255,IMO
          1 000242  8470 0000 4000                       AID      16384,IMO
          1 000245  7088                                 DOL,R7   8
          1 000246  8D47 0014                            SDI      I+1,AUTO
          1 000248  ABC7 0014                            LAB,B2   I+1,AUTO
          1 00024A  2C00                                 LDV,R2   0
          1 00024B  6C20                                 LDV,R6   32
          1 00024C  BB80 0000 0000  00                   LAB,B3   XFERL66_L6
          1 00024F  3C38                                 LDV,R3   56
          1 000250  7C18                                 LDV,R7   24
          1 000251  D380 0000 0000  xent                 LNJ,B5   X6B_BLR

     1010      421    2           XFERL66_L6.XFER.A6=XFERL66_L6.XFER.A6+%K32;

    421   1 000254  8C80 0000 0005  00                   LDI      XFERL66_L6+5
          1 000257  E570 007F                            AND,R6   127,IMO
          1 000259  8470 0000 8000                       AID      32768,IMO
          1 00025C  7089                                 DOL,R7   9
          1 00025D  8D47 0014                            SDI      I+1,AUTO
          1 00025F  ABC7 0014                            LAB,B2   I+1,AUTO
          1 000261  2C00                                 LDV,R2   0
          1 000262  6C20                                 LDV,R6   32
          1 000263  BB80 0000 0000  00                   LAB,B3   XFERL66_L6
          1 000266  3C59                                 LDV,R3   89
          1 000267  7C17                                 LDV,R7   23
          1 000268  D380 0000 0000  xent                 LNJ,B5   X6B_BLR

     1011      422    2           END;

    422   1 00026B  8CC7 000C                            LDI      WDSLEFT,AUTO
          1 00026D  84F0 0000 0000                       SID      0,IMO
PL6.E3A0      #002=GIB$CPLRIO File=GIB$BIGFOOT.:E05TSI                           TUE 07/29/97 21:43 Page:177
          1 000270  6A01 FFAF                            BGZ,R6   s:416,PREL
          1 000272  6801 0003                            BLZ,R6   s:423,PREL
          1 000274  7981 FFAB                            BNEZ,R7  s:416,PREL

     1012      423    1      RETURN;

    423   1 000276  C380 0000 0000  xent                 LNJ,B4   X6A_ARET

     1013      424        %EJECT;
PL6.E3A0      #002=GIB$CPLRIO File=GIB$BIGFOOT.:E05TSI                           TUE 07/29/97 21:43 Page:178
     1014      425    1   GIB$SETADP: ENTRY;

    425   1 000279  D380 0000 0000  xent GIB$SETADP      LNJ,B5   X6A_AUTO_3
          1 00027C       0018 0003                       DC       24,3

     1015      426        /*
     1016      427             if this fep was booted from an 8000 we need to turn on the
     1017      428             adp bit in the coupler.  if there is one.
     1018      429        */
     1019      430    1      GH_IO.CAS.CHN=GI_BOOTCHAN+1;

    430   1 00027E  E800 0000 0000  xsym                 LDR,R6   GI_BOOTCHAN
          1 000281  6E01                                 ADV,R6   1
          1 000282  6006                                 SOL,R6   6
          1 000283  EA80 0000 000D  00                   SRM,R6,'FFC0'X    GH_IO
          1 000286       FFC0

     1020      431    1      GH_IO.CAS.FNC=%GH#IO_OTPCNFA;

    431   1 000287  6C11                                 LDV,R6   17
          1 000288  EA80 0000 000D  00                   SRM,R6,'003F'X    GH_IO
          1 00028B       003F

     1021      432    1      GH_IO.DAS = '2080'X;

    432   1 00028C  D870 2080                            LDR,R5   8320,IMO
          1 00028E  DF00 0000 000E  00                   STR,R5   GH_IO+1

     1022      433    1      CALL DOIO(GH_IO) ALTRET(FREEZE);

    433   1 000291  EB80 0000 000D  00                   LAB,B6   GH_IO
          1 000294  EFC7 0010                            STB,B6   WDSLEFT+4,AUTO
          1 000296  E3C0 00B3                            LNJ,B6   s:0,PREL
          1 000298       FF43                            DC       s:408,PREL

     1023      434    1      RETURN;

PL6.E3A0      #002=GIB$CPLRIO File=GIB$BIGFOOT.:E05TSI                           TUE 07/29/97 21:43 Page:179
    434   1 000299  C380 0000 0000  xent                 LNJ,B4   X6A_ARET

     1024      435        %EJECT;
PL6.E3A0      #002=GIB$CPLRIO File=GIB$BIGFOOT.:E05TSI                           TUE 07/29/97 21:43 Page:180
     1025      436    1   GIB$INTCPLR: ENTRY;

    436   1 00029C  D380 0000 0000  xent GIB$INTCPLR     LNJ,B5   X6A_AUTO_3
          1 00029F       0018 0003                       DC       24,3

     1026      437
     1027      438    1      GH_IO.CAS.CHN = GI_BOOTCHAN + 2;

    438   1 0002A1  E800 0000 0000  xsym                 LDR,R6   GI_BOOTCHAN
          1 0002A4  6E02                                 ADV,R6   2
          1 0002A5  6006                                 SOL,R6   6
          1 0002A6  EA80 0000 000D  00                   SRM,R6,'FFC0'X    GH_IO
          1 0002A9       FFC0

     1028      439    1      GH_IO.CAS.FNC = %GH#IO_OTPINTCTR;

    439   1 0002AA  6C03                                 LDV,R6   3
          1 0002AB  EA80 0000 000D  00                   SRM,R6,'003F'X    GH_IO
          1 0002AE       003F

     1029      440    1      GH_IO.RANGE = 3;

    440   1 0002AF  EF00 0000 000E  00                   STR,R6   GH_IO+1

     1030      441    1      CALL DOIO (GH_IO);

    441   1 0002B2  EB80 0000 000D  00                   LAB,B6   GH_IO
          1 0002B5  EFC7 0010                            STB,B6   WDSLEFT+4,AUTO
          1 0002B7  E3C0 0092                            LNJ,B6   s:0,PREL
          1 0002B9       0001                            DC       s:442,PREL

     1031      442    1      RETURN;

    442   1 0002BA  C380 0000 0000  xent                 LNJ,B4   X6A_ARET

     1032      443
     1033      444        %EJECT;
PL6.E3A0      #002=GIB$CPLRIO File=GIB$BIGFOOT.:E05TSI                           TUE 07/29/97 21:43 Page:181
     1034      445    1   COUPLER_IO: PROC(DCWLIST) ALTRET;

    445   1 0002BD  EFC7 000E            COUPLER_IO      STB,B6   WDSLEFT+2,AUTO

     1035      446    2   DCL DCWLIST UBIN;
     1036      447        /**/
     1037      448    2   DCL NAK BIT(1) ALIGNED;
     1038      449    2   DCL I SBIN;
     1039      450    2      EXCDCW.CHN=GI_BOOTCHAN+1;            /* DCW LIST FUNCTION                  */

    450   1 0002BF  E800 0000 0000  xsym                 LDR,R6   GI_BOOTCHAN
          1 0002C2  6E01                                 ADV,R6   1
          1 0002C3  6006                                 SOL,R6   6
          1 0002C4  EA80 0000 0011  00                   SRM,R6,'FFC0'X    EXCDCW
          1 0002C7       FFC0

     1040      451    2      EXCDCW.BUF$=PINCRW(ADDR(DCWLIST),1);

    451   1 0002C8  DCC7 0010                            LDB,B5   @DCWLIST,AUTO
          1 0002CA  CBC5 0001                            LAB,B4   1,B5
          1 0002CC  CF80 0000 0012  00                   STB,B4   EXCDCW+1

     1041      452    2      EXCDCW.BYTX=0;

    452   1 0002CF  8700 0000 0014  00                   CL       EXCDCW+3

     1042      453    2      EXCDCW.BUFSIZE=(DCWLIST-1)*2;

    453   1 0002D2  E805                                 LDR,R6   ,B5
          1 0002D3  6001                                 SOL,R6   1
          1 0002D4  6EFE                                 ADV,R6   -2
          1 0002D5  EF00 0000 0015  00                   STR,R6   EXCDCW+4

     1043      454    2      NAK='1'B;

    454   1 0002D8  8947 0012                            LBT,'8000'X       NAK,AUTO
    454   1 0002DA       8000
PL6.E3A0      #002=GIB$CPLRIO File=GIB$BIGFOOT.:E05TSI                           TUE 07/29/97 21:43 Page:182

     1044      455    3      DO WHILE(NAK);

    455   1 0002DB  89C7 0012                            CMZ      NAK,AUTO
          1 0002DD  0881 000F                            BAGE     s:459,PREL

     1045      456    3           CALL GHH$IOLD(EXCDCW) ALTRET(IOLD_NAK);

    456   1 0002DF  BB80 0000 0000  02                   LAB,B3   0
          1 0002E2  CBF0 0100                            LAB,B4   256,IMO
          1 0002E4  E380 0000 0000  xent                 LNJ,B6   GHH$IOLD
          1 0002E7       0003                            DC       s:458,PREL

     1046      457    3           NAK='0'B;

    457   1 0002E8  8747 0012                            CL       NAK,AUTO

     1047      458    3   IOLD_NAK: END;

    458   1 0002EA  89C7 0012            IOLD_NAK        CMZ      NAK,AUTO
          1 0002EC  0873                                 BAL      s:456,SPREL

     1048      459    2      GETSTWD.CAS.CHN=GI_BOOTCHAN;

    459   1 0002ED  E800 0000 0000  xsym                 LDR,R6   GI_BOOTCHAN
          1 0002F0  6006                                 SOL,R6   6
          1 0002F1  EA80 0000 000F  00                   SRM,R6,'FFC0'X    GETSTWD
          1 0002F4       FFC0

     1049      460    2      GETSTWD.CAS.FNC=%GH#IO_INPSTT1;

    460   1 0002F5  6C18                                 LDV,R6   24
          1 0002F6  EA80 0000 000F  00                   SRM,R6,'003F'X    GETSTWD
          1 0002F9       003F

     1050      461    2      NAK='1'B;

PL6.E3A0      #002=GIB$CPLRIO File=GIB$BIGFOOT.:E05TSI                           TUE 07/29/97 21:43 Page:183
    461   1 0002FA  8947 0012                            LBT,'8000'X       NAK,AUTO
    461   1 0002FC       8000

     1051      462    3      DO WHILE(NAK);

    462   1 0002FD  89C7 0012                            CMZ      NAK,AUTO
          1 0002FF  0881 0018                            BAGE     s:468,PREL

     1052      463    4           DO I=0 TO 10000;

    463   1 000301  8747 0013                            CL       I,AUTO

     1053      464    4                END;

    464   1 000303  8AC7 0013                            INC      I,AUTO
          1 000305  E847 0013                            LDR,R6   I,AUTO
          1 000307  E970 2710                            CMR,R6   10000,IMO
          1 000309  0AFA                                 BALE     s:464,SPREL

     1054      465    3           CALL GHH$IO_IN(GETSTWD) ALTRET(ST1_NAK);

    465   1 00030A  BB80 0000 0002  02                   LAB,B3   +2
          1 00030D  CBF0 0100                            LAB,B4   256,IMO
          1 00030F  E380 0000 0000  xent                 LNJ,B6   GHH$IO_IN
          1 000312       0003                            DC       s:467,PREL

     1055      466    3           NAK='0'B;

    466   1 000313  8747 0012                            CL       NAK,AUTO

     1056      467    3   ST1_NAK: END;

    467   1 000315  89C7 0012            ST1_NAK         CMZ      NAK,AUTO
          1 000317  086A                                 BAL      s:463,SPREL

     1057      468    2      STATUS.WD1=GETSTWD.STATUS;

PL6.E3A0      #002=GIB$CPLRIO File=GIB$BIGFOOT.:E05TSI                           TUE 07/29/97 21:43 Page:184
    468   1 000318  E800 0000 0010  00                   LDR,R6   GETSTWD+1
          1 00031B  EF47 000A                            STR,R6   STATUS,AUTO

     1058      469    2      GETSTWD.CAS.FNC=%GH#IO_INPSTT2;

    469   1 00031D  5C1A                                 LDV,R5   26
          1 00031E  DA80 0000 000F  00                   SRM,R5,'003F'X    GETSTWD
          1 000321       003F

     1059      470    2      NAK='1'B;

    470   1 000322  8947 0012                            LBT,'8000'X       NAK,AUTO
    470   1 000324       8000

     1060      471    3      DO WHILE(NAK);

    471   1 000325  89C7 0012                            CMZ      NAK,AUTO
          1 000327  0881 000F                            BAGE     s:475,PREL

     1061      472    3           CALL GHH$IO_IN(GETSTWD) ALTRET(ST2_NAK);

    472   1 000329  BB80 0000 0002  02                   LAB,B3   +2
          1 00032C  CBF0 0100                            LAB,B4   256,IMO
          1 00032E  E380 0000 0000  xent                 LNJ,B6   GHH$IO_IN
          1 000331       0003                            DC       s:474,PREL

     1062      473    3           NAK='0'B;

    473   1 000332  8747 0012                            CL       NAK,AUTO

     1063      474    3   ST2_NAK: END;

    474   1 000334  89C7 0012            ST2_NAK         CMZ      NAK,AUTO
          1 000336  0873                                 BAL      s:472,SPREL

     1064      475    2      STATUS.WD2=GETSTWD.STATUS;

PL6.E3A0      #002=GIB$CPLRIO File=GIB$BIGFOOT.:E05TSI                           TUE 07/29/97 21:43 Page:185
    475   1 000337  E800 0000 0010  00                   LDR,R6   GETSTWD+1
          1 00033A  EF47 000B                            STR,R6   STATUS+1,AUTO

     1065      476    2      IF STATUS.WD1='8000'X THEN

    476   1 00033C  D847 000A                            LDR,R5   STATUS,AUTO
          1 00033E  D970 8000                            CMR,R5   -32768,IMO
          1 000340  0981 0005                            BNE      s:479,PREL

     1066      477    2           RETURN;

    477   1 000342  ECC7 000E                            LDB,B6   WDSLEFT+2,AUTO
          1 000344  C3C6 0001                            LNJ,B4   1,B6

     1067      478    2      ELSE
     1068      479    2           ALTRETURN;

    479   1 000346  ECC7 000E                            LDB,B6   WDSLEFT+2,AUTO
          1 000348  B806                                 LDR,R3   ,B6
          1 000349  C3B6                                 LNJ,B4   ,B6,R3

     1069      480    2   END COUPLER_IO;
     1070      481        %EJECT;
PL6.E3A0      #002=GIB$CPLRIO File=GIB$BIGFOOT.:E05TSI                           TUE 07/29/97 21:43 Page:186
     1071      482    1   DOIO: PROC(GH_IO) ALTRET;

    482   1 00034A  EFC7 000E            DOIO            STB,B6   WDSLEFT+2,AUTO

     1072      483        %GH_IO (FPTN=GH_IO,STCLASS="");
     1073      499    2   DCL NAK BIT(1) ALIGNED;
     1074      500    2      NAK='1'B;

    500   1 00034C  8947 0012                            LBT,'8000'X       NAK,AUTO
    500   1 00034E       8000

     1075      501    3      DO WHILE(NAK);

    501   1 00034F  89C7 0012                            CMZ      NAK,AUTO
          1 000351  0881 000E                            BAGE     s:505,PREL

     1076      502    3           CALL GHH$IO(GH_IO) ALTRET(NAKED);

    502   1 000353  BBC7 0010                            LAB,B3   @GH_IO,AUTO
          1 000355  CBF0 0100                            LAB,B4   256,IMO
          1 000357  E380 0000 0000  xent                 LNJ,B6   GHH$IO
          1 00035A       0003                            DC       s:504,PREL

     1077      503    3           NAK='0'B;

    503   1 00035B  8747 0012                            CL       NAK,AUTO

     1078      504    3   NAKED:  END;

    504   1 00035D  89C7 0012            NAKED           CMZ      NAK,AUTO
          1 00035F  0874                                 BAL      s:502,SPREL

     1079      505    2      RETURN;

    505   1 000360  ECC7 000E                            LDB,B6   WDSLEFT+2,AUTO
          1 000362  C3C6 0001                            LNJ,B4   1,B6
     1080      506    2   END DOIO;
PL6.E3A0      #002=GIB$CPLRIO File=GIB$BIGFOOT.:E05TSI                           TUE 07/29/97 21:43 Page:187
     1081      507    1   END GIB$CPLRIO;
     1082      508        %EOD;

PL6.E3A0      #002=GIB$CPLRIO File=GIB$BIGFOOT.:E05TSI                           TUE 07/29/97 21:43 Page:188
--  Include file information  --

   GI_DATA_M.:E05TOU  is referenced.
   GH_IOFNC_E.:E05TOU  is referenced.
   GH_HARDWARE_M.:E05TOU  is referenced.
   G_LCP6_E.:E05TOU  was found in the system file and is never referenced.
   GT_LCP6_M.:E05TOU  was found in the system file and is never referenced.
   KI_CP6.:E05TOU  was found in the system file and is never referenced.
   GF_LCP6_M.:E05TOU  was found in the system file and is never referenced.
   GM_LCP6_M.:E05TOU  was found in the system file and is never referenced.
   GU_LCP6_M.:E05TOU  was found in the system file and is never referenced.
   GJ_LCP6_M.:E05TOU  was found in the system file and is never referenced.
   GH_LCP6_M.:E05TOU  was found in the system file and is never referenced.
      No diagnostics issued in procedure GIB$CPLRIO.
PL6.E3A0      #002=GIB$CPLRIO File=GIB$BIGFOOT.:E05TSI                           TUE 07/29/97 21:43 Page:189

 **** Variables and constants ****

  ****  Section 000  Data  GIB$CPLRIO

  ****  Scalars and arrays  ****
HexLoc.c.b A Datatyp(siz) R M Lvl/name                 HexLoc.c.b A Datatyp(siz) R M Lvl/name

    11-0-0/w STRC(80)    r     1 EXCDCW                     F-0-0/w STRC(32)    r     1 GETSTWD
     D-0-0/w STRC(32)    r     1 GH_IO                     16-0-0/w UBIN(32)    r     1 GI_ADDR
    1B-0-0/w UBIN(32)    r     1 GI_FEX                    18-0-0/w STRC        r     1 GI_L66WD
     0-0-0/w STRC(208)   r     1 XFERL66_L6

  ****  Auto variables  ****

  ****  Scalars and arrays  ****
HexLoc.c.b A Datatyp(siz) R M Lvl/name                 HexLoc.c.b A Datatyp(siz) R M Lvl/name

     6-0-0/w PTR         r     1 @A6                        4-0-0/w PTR         r     1 @A66
    10-0-0/w PTR         r     1 @DCWLIST                  10-0-0/w PTR         r     1 @GH_IO
     8-0-0/w PTR         r     1 @WORDSIZE                 *0-0-0/w UBIN(32)    r     1 A6
    *0-0-0/w UBIN(32)    r     1 A66                       *0-0-0/w UBIN(16)    r     1 DCWLIST
    *0-0-0/w STRC(32)    r     1 GH_IO                     13-0-0/w SBIN(16)    r     1 I
    12-0-0/w BIT         r     1 NAK                       12-0-0/w BIT         r     1 NAK
     A-0-0/w STRC(32)    r     1 STATUS                     C-0-0/w SBIN(32)    r     1 WDSLEFT
    *0-0-0/w UBIN(32)    r     1 WORDSIZE

  ****  SYMREF variables  ****

  ****  Scalars and arrays  ****
HexLoc.c.b A Datatyp(siz) R M Lvl/name                 HexLoc.c.b A Datatyp(siz) R M Lvl/name

     0-0-0/w PTR         r     1 GI$OFFSETS$                0-0-0/w UBIN(16)    r     1 GIR$ROOT
     0-0-0/w PTR         r     1 GIT$TOP                    0-0-0/w UBIN(32)    r     1 GI_BOOTBASE
     0-0-0/w UBIN(16)    r     1 GI_BOOTCHAN                0-0-0/w UBIN(32)    r     1 GI_OFFSETS

  ****  BASED and DCB variables  ****

PL6.E3A0      #002=GIB$CPLRIO File=GIB$BIGFOOT.:E05TSI                           TUE 07/29/97 21:43 Page:190
  ****  Scalars and arrays  ****
HexLoc.c.b A Datatyp(siz) R M Lvl/name                 HexLoc.c.b A Datatyp(siz) R M Lvl/name

     0-0-0/w STRC(768)   r     1 GI$OFFSETS


   Procedure GIB$CPLRIO requires 868 words for executable code.
   Procedure GIB$CPLRIO requires 24 words of local(AUTO) storage.
PL6.E3A0      #002=GIB$CPLRIO File=GIB$BIGFOOT.:E05TSI                           TUE 07/29/97 21:43 Page:191
          *** CROSS REFERENCE LISTING ***
**     DENOTES     IDENTIFIER DEFINITION
<<                 IDENTIFIER'S VALUE SET
>>                 IDENTIFIER'S VALUE USED
<>                 IDENTIFIER SET AND/OR USED
--                 IDENTIFIER REFERENCED
PL6.E3A0      #002=GIB$CPLRIO File=GIB$BIGFOOT.:E05TSI                           TUE 07/29/97 21:43 Page:192
          MINI XREF LISTING

A6
         9**DCL         6--PROC      410--ENTRY     412>>ASSIGN
A66
         8**DCL         6--PROC      410--ENTRY     411>>ASSIGN
COUPLER_IO
       445**PROC      372--CALL      375--CALL      383--CALL      392--CALL      403--CALL      405--CALL
       418--CALL
DCWLIST IN PROCEDURE COUPLER_IO
       446**DCL       445--PROC      451--ASSIGN    453>>ASSIGN
DOIO
       482**PROC      360--CALL      364--CALL      433--CALL      441--CALL
EXCDCW
       305**DCL       456<>CALL
EXCDCW.BUF$
       306**DCL       451<<ASSIGN
EXCDCW.BUFSIZE
       307**DCL       453<<ASSIGN
EXCDCW.BYTX
       306**DCL       452<<ASSIGN
EXCDCW.CHN
       305**DCL       305--REDEF     450<<ASSIGN
FREEZE
       408**LABEL     360--CALLALT   364--CALLALT   372--CALLALT   375--CALLALT   383--CALLALT   392--CALLALT
       403--CALLALT   405--CALLALT   418--CALLALT   433--CALLALT
GETSTWD
       289**DCL       465<>CALL      472<>CALL
GETSTWD.CAS.CHN
       289**DCL       289--REDEF     459<<ASSIGN
GETSTWD.CAS.FNC
       290**DCL       460<<ASSIGN    469<<ASSIGN
GETSTWD.DAS
       290**DCL       291--REDEF     292--REDEF
PL6.E3A0      #002=GIB$CPLRIO File=GIB$BIGFOOT.:E05TSI                           TUE 07/29/97 21:43 Page:193
GETSTWD.STATUS
       292**DCL       468>>ASSIGN    475>>ASSIGN
GHH$HLT
       211**DCL-ENT   408--CALL
GHH$IO
       209**DCL-ENT   502--CALL
GHH$IOLD
       210**DCL-ENT   456--CALL
GHH$IO_IN
       208**DCL-ENT   465--CALL      472--CALL
GH_IO
       273**DCL       360<>CALL      364<>CALL      433<>CALL      441<>CALL
GH_IO.CAS.CHN
       273**DCL       273--REDEF     357<<ASSIGN    361<<ASSIGN    430<<ASSIGN    438<<ASSIGN
GH_IO.CAS.FNC
       274**DCL       358<<ASSIGN    362<<ASSIGN    431<<ASSIGN    439<<ASSIGN
GH_IO.DAS
       274**DCL       275--REDEF     276--REDEF     359<<ASSIGN    363<<ASSIGN    432<<ASSIGN
GH_IO.RANGE
       275**DCL       440<<ASSIGN
GH_IO IN PROCEDURE DOIO
       494**DCL       482--PROC      502<>CALL
GH_IO.CAS.CHN IN PROCEDURE DOIO
       494**DCL       494--REDEF
GH_IO.DAS IN PROCEDURE DOIO
       495**DCL       496--REDEF     497--REDEF
GI$OFFSETS
       332**DCL       402--ASSIGN    404--ASSIGN
GI$OFFSETS.HANDLER
       334**DCL       404--ASSIGN
GI$OFFSETS.NHANDLERS
       334**DCL       404>>ASSIGN
GI$OFFSETS$
       328**DCL       332--IMP-PTR   401>>ASSIGN    404>>ASSIGN
GIR$ROOT
       329**DCL       367--ASSIGN    388--ASSIGN    401--ASSIGN
PL6.E3A0      #002=GIB$CPLRIO File=GIB$BIGFOOT.:E05TSI                           TUE 07/29/97 21:43 Page:194
GIT$TOP
       324**DCL       388--ASSIGN
GI_ADDR
       313**DCL       367<<ASSIGN    370>>ASSIGN
GI_BOOTBASE
       326**DCL       373<<ASSIGN    376<<ASSIGN    376>>ASSIGN    377>>IF        379<<ASSIGN    385>>ASSIGN
       400>>ASSIGN    411>>ASSIGN
GI_BOOTCHAN
       325**DCL       357>>ASSIGN    361>>ASSIGN    430>>ASSIGN    438>>ASSIGN    450>>ASSIGN    459>>ASSIGN
GI_FEX
       317**DCL       384<<ASSIGN
GI_L66WD
       314**DCL       367--ASSIGN
GI_L66WD.L6DBLWD
       315**DCL       373>>ASSIGN    374>>ASSIGN    376>>ASSIGN    384>>ASSIGN
GI_OFFSETS
       327**DCL       400>>ASSIGN
I IN PROCEDURE COUPLER_IO
       449**DCL       463<<DOINDEX
IOLD_NAK IN PROCEDURE COUPLER_IO
       458**LABEL     456--CALLALT
NAK IN PROCEDURE COUPLER_IO
       448**DCL       454<<ASSIGN    455>>DOWHILE   457<<ASSIGN    461<<ASSIGN    462>>DOWHILE   466<<ASSIGN
       470<<ASSIGN    471>>DOWHILE   473<<ASSIGN
NAK IN PROCEDURE DOIO
       499**DCL       500<<ASSIGN    501>>DOWHILE   503<<ASSIGN
NAKED IN PROCEDURE DOIO
       504**LABEL     502--CALLALT
ST1_NAK IN PROCEDURE COUPLER_IO
       467**LABEL     465--CALLALT
ST2_NAK IN PROCEDURE COUPLER_IO
       474**LABEL     472--CALLALT
STATUS.WD1
       311**DCL       468<<ASSIGN    476>>IF
STATUS.WD2
       312**DCL       475<<ASSIGN
PL6.E3A0      #002=GIB$CPLRIO File=GIB$BIGFOOT.:E05TSI                           TUE 07/29/97 21:43 Page:195
WDSLEFT
       322**DCL       388<<ASSIGN    389>>DOWHILE   390>>IF        391>>ASSIGN    393<<ASSIGN    393>>ASSIGN
       414<<ASSIGN    415>>DOWHILE   416>>IF        417>>ASSIGN    419<<ASSIGN    419>>ASSIGN
WORDSIZE
        10**DCL         6--PROC      410--ENTRY     414>>ASSIGN
XFERL66_L6
       214**DCL       215--DCLINIT   372<>CALL      375<>CALL      383<>CALL      392<>CALL      403<>CALL
       405<>CALL      418<>CALL
XFERL66_L6.XFER.A6
       237**DCL       370<<ASSIGN    386<<ASSIGN    395<<ASSIGN    395>>ASSIGN    401<<ASSIGN    412<<ASSIGN
       421<<ASSIGN    421>>ASSIGN
XFERL66_L6.XFER.A66
       235**DCL       369<<ASSIGN    374<<ASSIGN    380<<ASSIGN    385<<ASSIGN    394<<ASSIGN    394>>ASSIGN
       400<<ASSIGN    411<<ASSIGN    420<<ASSIGN    420>>ASSIGN
XFERL66_L6.XFER.MODE
       233**DCL       368<<ASSIGN    381<<ASSIGN
XFERL66_L6.XFER.TALLY
       234**DCL       371<<ASSIGN    382<<ASSIGN    387<<ASSIGN    391<<ASSIGN    402<<ASSIGN    404<<ASSIGN
       413<<ASSIGN    417<<ASSIGN

PL6.E3A0      #003=GIB$DISKBOOT File=GIB$BIGFOOT.:E05TSI                         TUE 07/29/97 21:43 Page:196
     1083        1        /*T***********************************************************/
     1084        2        /*T*                                                         */
     1085        3        /*T* Copyright (c) Bull HN Information Systems Inc., 1997    */
     1086        4        /*T*                                                         */
     1087        5        /*T***********************************************************/
     1088        6        /*F*    Name: GIB$DISKBOOT
     1089        7                Description:
     1090        8                   The disk bootstrap loader reads the first 8K of Bigfoot
     1091        9                into memory.  GID$DISKBOOT read in the remainder of Bigfoot
     1092       10                and the offsets table.
     1093       11        */
     1094       12
     1095       13        GIB$DISKBOOT: PROC;
     1096       14
     1097       15        %INCLUDE GI_DATA_M;
     1098       43
     1099       44        %GI$OFFSETS (FPTN=GI$OFFSETS,STCLASS="BASED(GI$OFFSETS$)");
     1100       49
     1101       50    1   DCL GI_BOOTBASE UBIN(32) SYMREF;
     1102       51    1   DCL GI_OFFSETS UBIN(32) SYMREF;
     1103       52    1   DCL GID_BOOTCHAN UBIN SYMREF;
     1104       53    1   DCL GI_BOOTCHAN UBIN SYMREF;
     1105       54    1   DCL GIT$TOP PTR SYMREF;
     1106       55    1   DCL GIR$ROOT UBIN WORD SYMREF;
     1107       56    1   DCL GI$OFFSETS$ PTR SYMREF;
     1108       57
     1109       58    1   DCL A66 UBIN(32);
     1110       59    1   DCL A6 UBIN(32);
     1111       60    1   DCL WORDS UBIN(32);
     1112       61
     1113       62    1   DCL GID$RDBOOT ENTRY(3);
     1114       63
     1115       64        %EQU K1=1024;
     1116       65        %EQU K2=2048;
     1117       66        %EQU K4=4096;
     1118       67        %EQU K8=8192;
     1119       68        %EQU K16=16384;
PL6.E3A0      #003=GIB$DISKBOOT File=GIB$BIGFOOT.:E05TSI                         TUE 07/29/97 21:43 Page:197
     1120       69        %EQU K32=32768;
     1121       70        %EQU K64=65536;
     1122       71
     1123       72        %EJECT;
PL6.E3A0      #003=GIB$DISKBOOT File=GIB$BIGFOOT.:E05TSI                         TUE 07/29/97 21:43 Page:198
     1124       73
     1125       74        /* Set up channel so GID knows about it. */
     1126       75    1      GID_BOOTCHAN = GI_BOOTCHAN;
     1127       76
     1128       77    1      A66=GI_BOOTBASE+%K4;
     1129       78    1      A6=%K8;
     1130       79    1      WORDS=POFFW(ADDR(GIT$TOP),ADDR(GIR$ROOT))-%K8;
     1131       80    1      CALL GID$RDBOOT(A66,A6,WORDS);
     1132       81
     1133       82    1      A66=GI_OFFSETS+GI_BOOTBASE;
     1134       83    1      A6=POFFW(GI$OFFSETS$,ADDR(GIR$ROOT));
     1135       84    1      WORDS=SIZEW(GI$OFFSETS);
     1136       85    1      CALL GID$RDBOOT(A66,A6,WORDS);
     1137       86    1      WORDS = SIZEW(GI$OFFSETS) + (GI$OFFSETS.NHANDLERS-1)*SIZEW(GI$OFFSETS.HANDLER);
     1138       87    1      CALL GID$RDBOOT(A66,A6,WORDS);
     1139       88
     1140       89    1      RETURN;
     1141       90
     1142       91    1   END GIB$DISKBOOT;

PL6.E3A0      #003=GIB$DISKBOOT File=GIB$BIGFOOT.:E05TSI                         TUE 07/29/97 21:43 Page:199
--  Include file information  --

   GI_DATA_M.:E05TOU  is referenced.
   G_LCP6_E.:E05TOU  was found in the system file and is never referenced.
   GT_LCP6_M.:E05TOU  was found in the system file and is never referenced.
   KI_CP6.:E05TOU  was found in the system file and is never referenced.
   GF_LCP6_M.:E05TOU  was found in the system file and is never referenced.
   GM_LCP6_M.:E05TOU  was found in the system file and is never referenced.
   GU_LCP6_M.:E05TOU  was found in the system file and is never referenced.
   GJ_LCP6_M.:E05TOU  was found in the system file and is never referenced.
   GH_LCP6_M.:E05TOU  was found in the system file and is never referenced.
      No diagnostics issued in procedure GIB$DISKBOOT.

   Procedure GIB$DISKBOOT requires 142 words for executable code.
   Procedure GIB$DISKBOOT requires 16 words of local(AUTO) storage.

    No errors detected in file GIB$BIGFOOT.:E05TSI    .

PL6.E3A0      #003=GIB$DISKBOOT File=GIB$BIGFOOT.:E05TSI                         TUE 07/29/97 21:43 Page:200

 Object Unit name= GIB$DISKBOOT                               File name= GIB$BIGFOOT.:E05TOU
 UTS= JUL 29 '97 21:43:51.04 TUE                              Compiler= PL-6/E31         Sev=      00
 SharedLib= :SHARED_LCP6_SYSTEM                               Alt SharedLib=


    ****  Control sections  ****

 Sect   Type Bound  Init  Size HexSiz  Section name
    0   Proc  even  none   142     8E  GIB$DISKBOOT

    ****  Entry defs  ****

                              Check   Calling
                             calling  sequence
  Sect HexLoc Primary Altret sequence   type   Parms  Name
     0      0   yes            yes      Std        0  GIB$DISKBOOT

  ****  Entry refs  ****

         Check        Calling
        calling       sequence
Altret sequence SRef   type   Args  Name
         yes           Std       3 GID$RDBOOT
                       nStd      0 X6A_AUTO_0
                       nStd      0 X6A_ARET

  ****  Data refs  ****

  Flags:  r = read only, s = secondary
Flgs Name                             Flgs Name                             Flgs Name
     GI_BOOTBASE                           GI_OFFSETS                            GID_BOOTCHAN
     GI_BOOTCHAN                           GIT$TOP                               GIR$ROOT
     GI$OFFSETS$                      r    G$ROS$
PL6.E3A0      #003=GIB$DISKBOOT File=GIB$BIGFOOT.:E05TSI                         TUE 07/29/97 21:43 Page:201


     1083        1        /*T***********************************************************/
     1084        2        /*T*                                                         */
     1085        3        /*T* Copyright (c) Bull HN Information Systems Inc., 1997    */
     1086        4        /*T*                                                         */
     1087        5        /*T***********************************************************/
     1088        6        /*F*    Name: GIB$DISKBOOT
     1089        7                Description:
     1090        8                   The disk bootstrap loader reads the first 8K of Bigfoot
     1091        9                into memory.  GID$DISKBOOT read in the remainder of Bigfoot
     1092       10                and the offsets table.
     1093       11        */
     1094       12
     1095       13        GIB$DISKBOOT: PROC;

     13   0 000000  D380 0000 0000  xent GIB$DISKBOOT    LNJ,B5   X6A_AUTO_0
          0 000003       0010 0000                       DC       16,0

     1096       14
     1097       15        %INCLUDE GI_DATA_M;
     1098       43
     1099       44        %GI$OFFSETS (FPTN=GI$OFFSETS,STCLASS="BASED(GI$OFFSETS$)");
     1100       49
     1101       50    1   DCL GI_BOOTBASE UBIN(32) SYMREF;
     1102       51    1   DCL GI_OFFSETS UBIN(32) SYMREF;
     1103       52    1   DCL GID_BOOTCHAN UBIN SYMREF;
     1104       53    1   DCL GI_BOOTCHAN UBIN SYMREF;
     1105       54    1   DCL GIT$TOP PTR SYMREF;
     1106       55    1   DCL GIR$ROOT UBIN WORD SYMREF;
     1107       56    1   DCL GI$OFFSETS$ PTR SYMREF;
     1108       57
     1109       58    1   DCL A66 UBIN(32);
     1110       59    1   DCL A6 UBIN(32);
     1111       60    1   DCL WORDS UBIN(32);
     1112       61
     1113       62    1   DCL GID$RDBOOT ENTRY(3);
     1114       63
PL6.E3A0      #003=GIB$DISKBOOT File=GIB$BIGFOOT.:E05TSI                         TUE 07/29/97 21:43 Page:202
     1115       64        %EQU K1=1024;
     1116       65        %EQU K2=2048;
     1117       66        %EQU K4=4096;
     1118       67        %EQU K8=8192;
     1119       68        %EQU K16=16384;
     1120       69        %EQU K32=32768;
     1121       70        %EQU K64=65536;
     1122       71
     1123       72        %EJECT;
PL6.E3A0      #003=GIB$DISKBOOT File=GIB$BIGFOOT.:E05TSI                         TUE 07/29/97 21:43 Page:203
     1124       73
     1125       74        /* Set up channel so GID knows about it. */
     1126       75    1      GID_BOOTCHAN = GI_BOOTCHAN;

     75   0 000005  E800 0000 0000  xsym                 LDR,R6   GI_BOOTCHAN
          0 000008  EF00 0000 0000  xsym                 STR,R6   GID_BOOTCHAN

     1127       76
     1128       77    1      A66=GI_BOOTBASE+%K4;

     77   0 00000B  8C80 0000 0000  xsym                 LDI      GI_BOOTBASE
          0 00000E  8470 0000 1000                       AID      4096,IMO
          0 000011  8D47 0004                            SDI      A66,AUTO

     1129       78    1      A6=%K8;

     78   0 000013  8CF0 0000 2000                       LDI      8192,IMO
          0 000016  8D47 0006                            SDI      A6,AUTO

     1130       79    1      WORDS=POFFW(ADDR(GIT$TOP),ADDR(GIR$ROOT))-%K8;

     79   0 000018  EB80 0000 0000  xsym                 LAB,B6   GIR$ROOT
          0 00001B  EFC7 000A                            STB,B6   WORDS+2,AUTO
          0 00001D  DB80 0000 0000  xsym                 LAB,B5   GIT$TOP
          0 000020  DFC7 000C                            STB,B5   WORDS+4,AUTO
          0 000022  8CC7 000C                            LDI      WORDS+4,AUTO
          0 000024  84C7 000A                            SID      WORDS+2,AUTO
          0 000026  8470 FFFF E000                       AID      -8192,IMO
          0 000029  8D47 0008                            SDI      WORDS,AUTO

     1131       80    1      CALL GID$RDBOOT(A66,A6,WORDS);

     80   0 00002B  CBC7 0008                            LAB,B4   WORDS,AUTO
          0 00002D  CFC7 000E                            STB,B4   WORDS+6,AUTO
          0 00002F  BBC7 0006                            LAB,B3   A6,AUTO
          0 000031  BFC7 000C                            STB,B3   WORDS+4,AUTO
          0 000033  DBC7 0004                            LAB,B5   A66,AUTO
PL6.E3A0      #003=GIB$DISKBOOT File=GIB$BIGFOOT.:E05TSI                         TUE 07/29/97 21:43 Page:204
          0 000035  DFC7 000A                            STB,B5   WORDS+2,AUTO
          0 000037  BBC7 000A                            LAB,B3   WORDS+2,AUTO
          0 000039  CBF0 0300                            LAB,B4   768,IMO
          0 00003B  E380 0000 0000  xent                 LNJ,B6   GID$RDBOOT
          0 00003E       0001                            DC       s:82,PREL

     1132       81
     1133       82    1      A66=GI_OFFSETS+GI_BOOTBASE;

     82   0 00003F  8C80 0000 0000  xsym                 LDI      GI_OFFSETS
          0 000042  8400 0000 0000  xsym                 AID      GI_BOOTBASE
          0 000045  8D47 0004                            SDI      A66,AUTO

     1134       83    1      A6=POFFW(GI$OFFSETS$,ADDR(GIR$ROOT));

     83   0 000047  EB80 0000 0000  xsym                 LAB,B6   GIR$ROOT
          0 00004A  EFC7 000A                            STB,B6   WORDS+2,AUTO
          0 00004C  8C80 0000 0000  xsym                 LDI      GI$OFFSETS$
          0 00004F  84C7 000A                            SID      WORDS+2,AUTO
          0 000051  8D47 0006                            SDI      A6,AUTO

     1135       84    1      WORDS=SIZEW(GI$OFFSETS);

     84   0 000053  8CF0 0000 0030                       LDI      48,IMO
          0 000056  8D47 0008                            SDI      WORDS,AUTO

     1136       85    1      CALL GID$RDBOOT(A66,A6,WORDS);

     85   0 000058  DBC7 0008                            LAB,B5   WORDS,AUTO
          0 00005A  DFC7 000E                            STB,B5   WORDS+6,AUTO
          0 00005C  CBC7 0006                            LAB,B4   A6,AUTO
          0 00005E  CFC7 000C                            STB,B4   WORDS+4,AUTO
          0 000060  BBC7 0004                            LAB,B3   A66,AUTO
          0 000062  BFC7 000A                            STB,B3   WORDS+2,AUTO
          0 000064  BBC7 000A                            LAB,B3   WORDS+2,AUTO
          0 000066  CBF0 0300                            LAB,B4   768,IMO
          0 000068  E380 0000 0000  xent                 LNJ,B6   GID$RDBOOT
PL6.E3A0      #003=GIB$DISKBOOT File=GIB$BIGFOOT.:E05TSI                         TUE 07/29/97 21:43 Page:205
          0 00006B       0001                            DC       s:86,PREL

     1137       86    1      WORDS = SIZEW(GI$OFFSETS) + (GI$OFFSETS.NHANDLERS-1)*SIZEW(GI$OFFSETS.HANDLER);

     86   0 00006C  EC80 0000 0000  xsym                 LDB,B6   GI$OFFSETS$
          0 00006F  8CC6 002C                            LDI      44,B6
          0 000071  7081                                 DOL,R7   1
          0 000072  8470 0000 002E                       AID      46,IMO
          0 000075  8D47 0008                            SDI      WORDS,AUTO

     1138       87    1      CALL GID$RDBOOT(A66,A6,WORDS);

     87   0 000077  DBC7 0008                            LAB,B5   WORDS,AUTO
          0 000079  DFC7 000E                            STB,B5   WORDS+6,AUTO
          0 00007B  CBC7 0006                            LAB,B4   A6,AUTO
          0 00007D  CFC7 000C                            STB,B4   WORDS+4,AUTO
          0 00007F  BBC7 0004                            LAB,B3   A66,AUTO
          0 000081  BFC7 000A                            STB,B3   WORDS+2,AUTO
          0 000083  BBC7 000A                            LAB,B3   WORDS+2,AUTO
          0 000085  CBF0 0300                            LAB,B4   768,IMO
          0 000087  E380 0000 0000  xent                 LNJ,B6   GID$RDBOOT
          0 00008A       0001                            DC       s:89,PREL

     1139       88
     1140       89    1      RETURN;

     89   0 00008B  C380 0000 0000  xent                 LNJ,B4   X6A_ARET
     1141       90
     1142       91    1   END GIB$DISKBOOT;

PL6.E3A0      #003=GIB$DISKBOOT File=GIB$BIGFOOT.:E05TSI                         TUE 07/29/97 21:43 Page:206
--  Include file information  --

   GI_DATA_M.:E05TOU  is referenced.
   G_LCP6_E.:E05TOU  was found in the system file and is never referenced.
   GT_LCP6_M.:E05TOU  was found in the system file and is never referenced.
   KI_CP6.:E05TOU  was found in the system file and is never referenced.
   GF_LCP6_M.:E05TOU  was found in the system file and is never referenced.
   GM_LCP6_M.:E05TOU  was found in the system file and is never referenced.
   GU_LCP6_M.:E05TOU  was found in the system file and is never referenced.
   GJ_LCP6_M.:E05TOU  was found in the system file and is never referenced.
   GH_LCP6_M.:E05TOU  was found in the system file and is never referenced.
      No diagnostics issued in procedure GIB$DISKBOOT.
PL6.E3A0      #003=GIB$DISKBOOT File=GIB$BIGFOOT.:E05TSI                         TUE 07/29/97 21:43 Page:207

 **** Variables and constants ****

  ****  Auto variables  ****

  ****  Scalars and arrays  ****
HexLoc.c.b A Datatyp(siz) R M Lvl/name                 HexLoc.c.b A Datatyp(siz) R M Lvl/name

     6-0-0/w UBIN(32)    r     1 A6                         4-0-0/w UBIN(32)    r     1 A66
     8-0-0/w UBIN(32)    r     1 WORDS

  ****  SYMREF variables  ****

  ****  Scalars and arrays  ****
HexLoc.c.b A Datatyp(siz) R M Lvl/name                 HexLoc.c.b A Datatyp(siz) R M Lvl/name

     0-0-0/w PTR         r     1 GI$OFFSETS$                0-0-0/w UBIN(16)    r     1 GID_BOOTCHAN
     0-0-0/w UBIN(16)    r     1 GIR$ROOT                   0-0-0/w PTR         r     1 GIT$TOP
     0-0-0/w UBIN(32)    r     1 GI_BOOTBASE                0-0-0/w UBIN(16)    r     1 GI_BOOTCHAN
     0-0-0/w UBIN(32)    r     1 GI_OFFSETS

  ****  BASED and DCB variables  ****

  ****  Scalars and arrays  ****
HexLoc.c.b A Datatyp(siz) R M Lvl/name                 HexLoc.c.b A Datatyp(siz) R M Lvl/name

     0-0-0/w STRC(768)   r     1 GI$OFFSETS


   Procedure GIB$DISKBOOT requires 142 words for executable code.
   Procedure GIB$DISKBOOT requires 16 words of local(AUTO) storage.

    No errors detected in file GIB$BIGFOOT.:E05TSI    .
PL6.E3A0      #003=GIB$DISKBOOT File=GIB$BIGFOOT.:E05TSI                         TUE 07/29/97 21:43 Page:208
          *** CROSS REFERENCE LISTING ***
**     DENOTES     IDENTIFIER DEFINITION
<<                 IDENTIFIER'S VALUE SET
>>                 IDENTIFIER'S VALUE USED
<>                 IDENTIFIER SET AND/OR USED
--                 IDENTIFIER REFERENCED
PL6.E3A0      #003=GIB$DISKBOOT File=GIB$BIGFOOT.:E05TSI                         TUE 07/29/97 21:43 Page:209
          MINI XREF LISTING

A6
        59**DCL        78<<ASSIGN     80<>CALL       83<<ASSIGN     85<>CALL       87<>CALL
A66
        58**DCL        77<<ASSIGN     80<>CALL       82<<ASSIGN     85<>CALL       87<>CALL
GI$OFFSETS
        45**DCL        84--ASSIGN     86--ASSIGN
GI$OFFSETS.HANDLER
        47**DCL        86--ASSIGN
GI$OFFSETS.NHANDLERS
        47**DCL        86>>ASSIGN
GI$OFFSETS$
        56**DCL        45--IMP-PTR    83>>ASSIGN     86>>ASSIGN
GID$RDBOOT
        62**DCL-ENT    80--CALL       85--CALL       87--CALL
GID_BOOTCHAN
        52**DCL        75<<ASSIGN
GIR$ROOT
        55**DCL        79--ASSIGN     83--ASSIGN
GIT$TOP
        54**DCL        79--ASSIGN
GI_BOOTBASE
        50**DCL        77>>ASSIGN     82>>ASSIGN
GI_BOOTCHAN
        53**DCL        75>>ASSIGN
GI_OFFSETS
        51**DCL        82>>ASSIGN
WORDS
        60**DCL        79<<ASSIGN     80<>CALL       84<<ASSIGN     85<>CALL       86<<ASSIGN     87<>CALL
