VERSION E05

PL6.E3A0      #001=GID$RDDUMP File=GID$RDDUMP.:E05TSI                            TUE 07/29/97 21:45 Page:1
        1        1        /*M* GID$RDDUMP Read dump diskette.  */
        2        2        /*T***********************************************************/
        3        3        /*T*                                                         */
        4        4        /*T* Copyright (c) Bull HN Information Systems Inc., 1997    */
        5        5        /*T*                                                         */
        6        6        /*T***********************************************************/
        7        7        /*F*     NAME:          GID$RDDUMP
        8        8                 PURPOSE:       Read dump diskette.
        9        9                 DESCRIPTION:
       10       10          GID$RDDUMP is used after the LCP-6 monitor recovers from a dump and
       11       11          is ready to pass the dump image back to the host.
       12       12          Parameters:
       13       13            BUF$ - buffer address TO DUMP FROM.
       14       14            RSECT - sector number to dump into, relative to beginning of dump.
       15       15            NPGS - number of pages to dump.
       16       16        */
       17       17        GID$RDDUMP: PROC(BUF$,RSECT,NPGS);
       18       18        /**/
       19       19        /*  INCLUDE FILES  */
       20       20        /**/
       21       21        %INCLUDE KP_SUBS;
       22      205        /**/
       23      206        /*  Parameters  */
       24      207        /**/
       25      208    1   DCL BUF$ PTR;
       26      209    1   DCL RSECT SBIN;
       27      210    1   DCL NPGS SBIN;
       28      211        /**/
       29      212        /*  ENTRY DCLS  */
       30      213        /**/
       31      214    1   DCL GID$DISKIO ENTRY(4);
       32      215        /**/
       33      216        /*  AUTO  */
       34      217        /**/
       35      218    1   DCL NUM_BYTES UBIN(32);
       36      219        /**/
       37      220        /*  SYMREFS  */
PL6.E3A0      #001=GID$RDDUMP File=GID$RDDUMP.:E05TSI                            TUE 07/29/97 21:45 Page:2
       38      221        /**/
       39      222    1   DCL GID_VSEC_DUMP SBIN WORD SYMREF;
       40      223        /**/
       41      224    1           NUM_BYTES = NPGS*256*2;
       42      225    1           CALL GID$DISKIO (RSECT+GID_VSEC_DUMP,
       43      226    1             NUM_BYTES,
       44      227    1             BUF$,
       45      228    1             0);
       46      229    1           RETURN;
       47      230        /**/
       48      231    1           END GID$RDDUMP;
       49      232        %EOD;

PL6.E3A0      #001=GID$RDDUMP File=GID$RDDUMP.:E05TSI                            TUE 07/29/97 21:45 Page:3
--  Include file information  --

   KP_SUBS.:E05TOU  is referenced.
      No diagnostics issued in procedure GID$RDDUMP.

   Procedure GID$RDDUMP requires 47 words for executable code.
   Procedure GID$RDDUMP requires 21 words of local(AUTO) storage.

PL6.E3A0      #001=GID$RDDUMP File=GID$RDDUMP.:E05TSI                            TUE 07/29/97 21:45 Page:4

 Object Unit name= GID$RDDUMP                                 File name= GID$RDDUMP.:E05TOU
 UTS= JUL 29 '97 21:45:16.76 TUE                              Compiler= PL-6/E31         Sev=      00
 SharedLib= :SHARED_LCP6_SYSTEM                               Alt SharedLib=


    ****  Control sections  ****

 Sect   Type Bound  Init  Size HexSiz  Section name
    0   Proc  even  none    47     2F  GID$RDDUMP

    ****  Entry defs  ****

                              Check   Calling
                             calling  sequence
  Sect HexLoc Primary Altret sequence   type   Parms  Name
     0      0   yes            yes      Std        3  GID$RDDUMP

  ****  Entry refs  ****

         Check        Calling
        calling       sequence
Altret sequence SRef   type   Args  Name
         yes           Std       4 GID$DISKIO
                       nStd      0 X6A_AUTO_3
                       nStd      0 X6A_ARET

  ****  Data refs  ****

  Flags:  r = read only, s = secondary
Flgs Name                             Flgs Name                             Flgs Name
     GID_VSEC_DUMP                    r    G$ROS$
PL6.E3A0      #001=GID$RDDUMP File=GID$RDDUMP.:E05TSI                            TUE 07/29/97 21:45 Page:5


        1        1        /*M* GID$RDDUMP Read dump diskette.  */
        2        2        /*T***********************************************************/
        3        3        /*T*                                                         */
        4        4        /*T* Copyright (c) Bull HN Information Systems Inc., 1997    */
        5        5        /*T*                                                         */
        6        6        /*T***********************************************************/
        7        7        /*F*     NAME:          GID$RDDUMP
        8        8                 PURPOSE:       Read dump diskette.
        9        9                 DESCRIPTION:
       10       10          GID$RDDUMP is used after the LCP-6 monitor recovers from a dump and
       11       11          is ready to pass the dump image back to the host.
       12       12          Parameters:
       13       13            BUF$ - buffer address TO DUMP FROM.
       14       14            RSECT - sector number to dump into, relative to beginning of dump.
       15       15            NPGS - number of pages to dump.
       16       16        */
       17       17        GID$RDDUMP: PROC(BUF$,RSECT,NPGS);

     17   0 000000  D380 0000 0000  xent GID$RDDUMP      LNJ,B5   X6A_AUTO_3
          0 000003       0015 0003                       DC       21,3

       18       18        /**/
       19       19        /*  INCLUDE FILES  */
       20       20        /**/
       21       21        %INCLUDE KP_SUBS;
       22      205        /**/
       23      206        /*  Parameters  */
       24      207        /**/
       25      208    1   DCL BUF$ PTR;
       26      209    1   DCL RSECT SBIN;
       27      210    1   DCL NPGS SBIN;
       28      211        /**/
       29      212        /*  ENTRY DCLS  */
       30      213        /**/
       31      214    1   DCL GID$DISKIO ENTRY(4);
       32      215        /**/
PL6.E3A0      #001=GID$RDDUMP File=GID$RDDUMP.:E05TSI                            TUE 07/29/97 21:45 Page:6
       33      216        /*  AUTO  */
       34      217        /**/
       35      218    1   DCL NUM_BYTES UBIN(32);
       36      219        /**/
       37      220        /*  SYMREFS  */
       38      221        /**/
       39      222    1   DCL GID_VSEC_DUMP SBIN WORD SYMREF;
       40      223        /**/
       41      224    1           NUM_BYTES = NPGS*256*2;

    224   0 000005  ECC7 0008                            LDB,B6   @NPGS,AUTO
          0 000007  E806                                 LDR,R6   ,B6
          0 000008  70F0                                 DAR,R7   16
          0 000009  7089                                 DOL,R7   9
          0 00000A  8D47 000A                            SDI      NUM_BYTES,AUTO

       42      225    1           CALL GID$DISKIO (RSECT+GID_VSEC_DUMP,

    225   0 00000C  DCC7 0006                            LDB,B5   @RSECT,AUTO
          0 00000E  D805                                 LDR,R5   ,B5
          0 00000F  DA00 0000 0000  xsym                 ADD,R5   GID_VSEC_DUMP
          0 000012  DF47 000C                            STR,R5   NUM_BYTES+2,AUTO
          0 000014  CBF0 0000                            LAB,B4   0,IMO
          0 000016  CFC7 0013                            STB,B4   NUM_BYTES+9,AUTO
          0 000018  BCC7 0004                            LDB,B3   @BUF$,AUTO
          0 00001A  BFC7 0011                            STB,B3   NUM_BYTES+7,AUTO
          0 00001C  ABC7 000A                            LAB,B2   NUM_BYTES,AUTO
          0 00001E  AFC7 000F                            STB,B2   NUM_BYTES+5,AUTO
          0 000020  9BC7 000C                            LAB,B1   NUM_BYTES+2,AUTO
          0 000022  9FC7 000D                            STB,B1   NUM_BYTES+3,AUTO
          0 000024  BBC7 000D                            LAB,B3   NUM_BYTES+3,AUTO
          0 000026  CBF0 0400                            LAB,B4   1024,IMO
          0 000028  E380 0000 0000  xent                 LNJ,B6   GID$DISKIO
          0 00002B       0001                            DC       s:229,PREL

       43      226    1             NUM_BYTES,
       44      227    1             BUF$,
PL6.E3A0      #001=GID$RDDUMP File=GID$RDDUMP.:E05TSI                            TUE 07/29/97 21:45 Page:7
       45      228    1             0);
       46      229    1           RETURN;

    229   0 00002C  C380 0000 0000  xent                 LNJ,B4   X6A_ARET
       47      230        /**/
       48      231    1           END GID$RDDUMP;
       49      232        %EOD;

PL6.E3A0      #001=GID$RDDUMP File=GID$RDDUMP.:E05TSI                            TUE 07/29/97 21:45 Page:8
--  Include file information  --

   KP_SUBS.:E05TOU  is referenced.
      No diagnostics issued in procedure GID$RDDUMP.
PL6.E3A0      #001=GID$RDDUMP File=GID$RDDUMP.:E05TSI                            TUE 07/29/97 21:45 Page:9

 **** Variables and constants ****

  ****  Auto variables  ****

  ****  Scalars and arrays  ****
HexLoc.c.b A Datatyp(siz) R M Lvl/name                 HexLoc.c.b A Datatyp(siz) R M Lvl/name

     4-0-0/w PTR         r     1 @BUF$                      8-0-0/w PTR         r     1 @NPGS
     6-0-0/w PTR         r     1 @RSECT                    *0-0-0/w PTR         r     1 BUF$
    *0-0-0/w SBIN(16)    r     1 NPGS                       A-0-0/w UBIN(32)    r     1 NUM_BYTES
    *0-0-0/w SBIN(16)    r     1 RSECT

  ****  SYMREF variables  ****

  ****  Scalars and arrays  ****
HexLoc.c.b A Datatyp(siz) R M Lvl/name                 HexLoc.c.b A Datatyp(siz) R M Lvl/name

     0-0-0/w SBIN(16)    r     1 GID_VSEC_DUMP


   Procedure GID$RDDUMP requires 47 words for executable code.
   Procedure GID$RDDUMP requires 21 words of local(AUTO) storage.
PL6.E3A0      #001=GID$RDDUMP File=GID$RDDUMP.:E05TSI                            TUE 07/29/97 21:45 Page:10
          *** CROSS REFERENCE LISTING ***
**     DENOTES     IDENTIFIER DEFINITION
<<                 IDENTIFIER'S VALUE SET
>>                 IDENTIFIER'S VALUE USED
<>                 IDENTIFIER SET AND/OR USED
--                 IDENTIFIER REFERENCED
PL6.E3A0      #001=GID$RDDUMP File=GID$RDDUMP.:E05TSI                            TUE 07/29/97 21:45 Page:11
          MINI XREF LISTING

BUF$
       208**DCL        17--PROC      225<>CALL
GID$DISKIO
       214**DCL-ENT   225--CALL
GID_VSEC_DUMP
       222**DCL       225>>CALL
NPGS
       210**DCL        17--PROC      224>>ASSIGN
NUM_BYTES
       218**DCL       224<<ASSIGN    225<>CALL
RSECT
       209**DCL        17--PROC      225>>CALL

PL6.E3A0      #002=GID$CHKDMP File=GID$RDDUMP.:E05TSI                            TUE 07/29/97 21:45 Page:12
       50        1        /*T***********************************************************/
       51        2        /*T*                                                         */
       52        3        /*T* Copyright (c) Bull HN Information Systems Inc., 1997    */
       53        4        /*T*                                                         */
       54        5        /*T***********************************************************/
       55        6        /*F*     NAME:          GID$CHKDMP
       56        7                 PURPOSE:       Checks for an existing dump.
       57        8                 DESCRIPTION:
       58        9          GID$CHKDMP is used after the LCP-6 monitor has been booted.  It checks
       59       10          for the presence of a dump image to pass back to the host.
       60       11
       61       12          If there is no dump, this routine ALTRETs.
       62       13        */
       63       14        GID$CHKDMP: PROC ALTRET;
       64       15        /**/
       65       16        /*  INCLUDE FILES  */
       66       17        /**/
       67       18        %INCLUDE KP_SUBS;
       68      202        %INCLUDE KP_MACRO_C;
       69      411        /**/
       70      412        /*  ENTRY DCLS  */
       71      413        /**/
       72      414    1   DCL GID$DISKIO ENTRY(4);
       73      415        /**/
       74      416        /*  SYMDEFS  */
       75      417        /**/
       76      418    1   DCL GID_VSEC_DUMP SBIN WORD STATIC SYMDEF;
       77      419    1   DCL 1 GID_VSEC_DUMP_ REDEF GID_VSEC_DUMP,
       78      420    1         2 HOB UBIN BYTE UNAL,
       79      421    1         2 LOB UBIN BYTE UNAL;
       80      422        /**/
       81      423        /*  AUTO  */
       82      424        /**/
       83      425        %KP_DISKDIR (FPTN = KP_DISKDIR, STCLASS = AUTO);
       84      435    1   DCL NUM_BYTES UBIN(32);
       85      436        /**/
       86      437        /*  Start off by callibrating the diskette drives.  */
PL6.E3A0      #002=GID$CHKDMP File=GID$RDDUMP.:E05TSI                            TUE 07/29/97 21:45 Page:13
       87      438        /**/
       88      439    1           CALL GID$DISKIO (0,0,ADDR(NIL),2);
       89      440        /**/
       90      441        /*  Fetch the disk directory, source of all wisdom.  */
       91      442        /**/
       92      443    1           NUM_BYTES = SIZEC(KP_DISKDIR);
       93      444    1           CALL GID$DISKIO (%KP_VSEC_DISKDIR#,
       94      445    1             NUM_BYTES,
       95      446    1             ADDR(KP_DISKDIR),
       96      447    1             0);
       97      448        /**/
       98      449        /*  Bail out if there was no dump.  */
       99      450        /**/
      100      451    1           IF KP_DISKDIR.DUMP_VSEC = '0'B THEN
      101      452    1              ALTRETURN;
      102      453        /**/
      103      454        /*  Set up things for later dump reading.  */
      104      455        /**/
      105      456    1           GID_VSEC_DUMP_.HOB = KP_DISKDIR.DUMP_VSEC.HOB;
      106      457    1           GID_VSEC_DUMP_.LOB = KP_DISKDIR.DUMP_VSEC.LOB;
      107      458
      108      459    1           RETURN;
      109      460
      110      461    1   GID$ENDDUMP: ENTRY ALTRET;
      111      462        /**/
      112      463        /* Mark diskette as not having dump present. */
      113      464        /**/
      114      465
      115      466        /**/
      116      467        /*  Fetch the disk directory, source of all wisdom.  */
      117      468        /**/
      118      469    1           NUM_BYTES = SIZEC(KP_DISKDIR);
      119      470    1           CALL GID$DISKIO (%KP_VSEC_DISKDIR#,
      120      471    1             NUM_BYTES,
      121      472    1             ADDR(KP_DISKDIR),
      122      473    1             0);
      123      474        /**/
PL6.E3A0      #002=GID$CHKDMP File=GID$RDDUMP.:E05TSI                            TUE 07/29/97 21:45 Page:14
      124      475        /*  Stomp the disk directory, so this dump is no longer 'new'.  */
      125      476        /**/
      126      477    1           KP_DISKDIR.DUMP_VSEC = '0'B;    /* Mark no dump                       */
      127      478    1           CALL GID$DISKIO (%KP_VSEC_DISKDIR#,
      128      479    1             NUM_BYTES,
      129      480    1             ADDR(KP_DISKDIR),
      130      481    1             1);
      131      482        /**/
      132      483        /*  Finis!  */
      133      484        /**/
      134      485    1           RETURN;
      135      486        /**/
      136      487    1           END GID$CHKDMP;

PL6.E3A0      #002=GID$CHKDMP File=GID$RDDUMP.:E05TSI                            TUE 07/29/97 21:45 Page:15
--  Include file information  --

   KP_MACRO_C.:E05TOU  is referenced.
   KP_SUBS.:E05TOU  is referenced.
      No diagnostics issued in procedure GID$CHKDMP.

   Procedure GID$CHKDMP requires 157 words for executable code.
   Procedure GID$CHKDMP requires 144 words of local(AUTO) storage.

    No errors detected in file GID$RDDUMP.:E05TSI    .

PL6.E3A0      #002=GID$CHKDMP File=GID$RDDUMP.:E05TSI                            TUE 07/29/97 21:45 Page:16

 Object Unit name= GID$CHKDMP                                 File name= GID$RDDUMP.:E05TOU
 UTS= JUL 29 '97 21:45:20.60 TUE                              Compiler= PL-6/E31         Sev=      00
 SharedLib= :SHARED_LCP6_SYSTEM                               Alt SharedLib=


    ****  Control sections  ****

 Sect   Type Bound  Init  Size HexSiz  Section name
    0   Data  even  none     1      1  GID$CHKDMP
    1   Proc  even  none   157     9D  GID$CHKDMP

    ****  Entry defs  ****

                              Check   Calling
                             calling  sequence
  Sect HexLoc Primary Altret sequence   type   Parms  Name
     1      0   yes    yes     yes      Std        0  GID$CHKDMP
     1     56          yes     yes      Std        0  GID$ENDDUMP

  ****  Data defs  ****

 Sect HexLoc  Name                           Sect HexLoc  Name
    0      0  GID_VSEC_DUMP

  ****  Entry refs  ****

         Check        Calling
        calling       sequence
Altret sequence SRef   type   Args  Name
         yes           Std       4 GID$DISKIO
                       nStd      0 X6A_AUTO_0
                       nStd      0 X6A_AALT
                       nStd      0 X6A_ARET
PL6.E3A0      #002=GID$CHKDMP File=GID$RDDUMP.:E05TSI                            TUE 07/29/97 21:45 Page:17

  ****  Data refs  ****

  Flags:  r = read only, s = secondary
Flgs Name                             Flgs Name                             Flgs Name
r    G$ROS$
PL6.E3A0      #002=GID$CHKDMP File=GID$RDDUMP.:E05TSI                            TUE 07/29/97 21:45 Page:18


       50        1        /*T***********************************************************/
       51        2        /*T*                                                         */
       52        3        /*T* Copyright (c) Bull HN Information Systems Inc., 1997    */
       53        4        /*T*                                                         */
       54        5        /*T***********************************************************/
       55        6        /*F*     NAME:          GID$CHKDMP
       56        7                 PURPOSE:       Checks for an existing dump.
       57        8                 DESCRIPTION:
       58        9          GID$CHKDMP is used after the LCP-6 monitor has been booted.  It checks
       59       10          for the presence of a dump image to pass back to the host.
       60       11
       61       12          If there is no dump, this routine ALTRETs.
       62       13        */
       63       14        GID$CHKDMP: PROC ALTRET;

     14   1 000000  D380 0000 0000  xent GID$CHKDMP      LNJ,B5   X6A_AUTO_0
          1 000003       0090 0000                       DC       144,0

       64       15        /**/
       65       16        /*  INCLUDE FILES  */
       66       17        /**/
       67       18        %INCLUDE KP_SUBS;
       68      202        %INCLUDE KP_MACRO_C;
       69      411        /**/
       70      412        /*  ENTRY DCLS  */
       71      413        /**/
       72      414    1   DCL GID$DISKIO ENTRY(4);
       73      415        /**/
       74      416        /*  SYMDEFS  */
       75      417        /**/
       76      418    1   DCL GID_VSEC_DUMP SBIN WORD STATIC SYMDEF;
       77      419    1   DCL 1 GID_VSEC_DUMP_ REDEF GID_VSEC_DUMP,
       78      420    1         2 HOB UBIN BYTE UNAL,
       79      421    1         2 LOB UBIN BYTE UNAL;
       80      422        /**/
       81      423        /*  AUTO  */
PL6.E3A0      #002=GID$CHKDMP File=GID$RDDUMP.:E05TSI                            TUE 07/29/97 21:45 Page:19
       82      424        /**/
       83      425        %KP_DISKDIR (FPTN = KP_DISKDIR, STCLASS = AUTO);
       84      435    1   DCL NUM_BYTES UBIN(32);
       85      436        /**/
       86      437        /*  Start off by callibrating the diskette drives.  */
       87      438        /**/
       88      439    1           CALL GID$DISKIO (0,0,ADDR(NIL),2);

    439   1 000005  EBF0 0000                            LAB,B6   0,IMO
          1 000007  DBF0 0000                            LAB,B5   0,IMO
          1 000009  CB80 0000 0000                       LAB,B4   0
          1 00000C  CFC7 0086                            STB,B4   NUM_BYTES+2,AUTO
          1 00000E  BBF0 0002                            LAB,B3   2,IMO
          1 000010  BFC7 008E                            STB,B3   NUM_BYTES+10,AUTO
          1 000012  ABC7 0086                            LAB,B2   NUM_BYTES+2,AUTO
          1 000014  AFC7 008C                            STB,B2   NUM_BYTES+8,AUTO
          1 000016  DFC7 008A                            STB,B5   NUM_BYTES+6,AUTO
          1 000018  EFC7 0088                            STB,B6   NUM_BYTES+4,AUTO
          1 00001A  BBC7 0088                            LAB,B3   NUM_BYTES+4,AUTO
          1 00001C  CBF0 0400                            LAB,B4   1024,IMO
          1 00001E  E380 0000 0000  xent                 LNJ,B6   GID$DISKIO
          1 000021       0001                            DC       s:443,PREL

       89      440        /**/
       90      441        /*  Fetch the disk directory, source of all wisdom.  */
       91      442        /**/
       92      443    1           NUM_BYTES = SIZEC(KP_DISKDIR);

    443   1 000022  8CF0 0000 0100                       LDI      256,IMO
          1 000025  8D47 0084                            SDI      NUM_BYTES,AUTO

       93      444    1           CALL GID$DISKIO (%KP_VSEC_DISKDIR#,

    444   1 000027  EBF0 0008                            LAB,B6   8,IMO
          1 000029  DBC7 0004                            LAB,B5   KP_DISKDIR,AUTO
          1 00002B  DFC7 0086                            STB,B5   NUM_BYTES+2,AUTO
          1 00002D  CBF0 0000                            LAB,B4   0,IMO
PL6.E3A0      #002=GID$CHKDMP File=GID$RDDUMP.:E05TSI                            TUE 07/29/97 21:45 Page:20
          1 00002F  CFC7 008E                            STB,B4   NUM_BYTES+10,AUTO
          1 000031  BBC7 0086                            LAB,B3   NUM_BYTES+2,AUTO
          1 000033  BFC7 008C                            STB,B3   NUM_BYTES+8,AUTO
          1 000035  ABC7 0084                            LAB,B2   NUM_BYTES,AUTO
          1 000037  AFC7 008A                            STB,B2   NUM_BYTES+6,AUTO
          1 000039  EFC7 0088                            STB,B6   NUM_BYTES+4,AUTO
          1 00003B  BBC7 0088                            LAB,B3   NUM_BYTES+4,AUTO
          1 00003D  CBF0 0400                            LAB,B4   1024,IMO
          1 00003F  E380 0000 0000  xent                 LNJ,B6   GID$DISKIO
          1 000042       0001                            DC       s:451,PREL

       94      445    1             NUM_BYTES,
       95      446    1             ADDR(KP_DISKDIR),
       96      447    1             0);
       97      448        /**/
       98      449        /*  Bail out if there was no dump.  */
       99      450        /**/
      100      451    1           IF KP_DISKDIR.DUMP_VSEC = '0'B THEN

    451   1 000043  E847 0004                            LDR,R6   KP_DISKDIR,AUTO
          1 000045  6981 0004                            BNEZ,R6  s:456,PREL

      101      452    1              ALTRETURN;

    452   1 000047  C380 0000 0000  xent                 LNJ,B4   X6A_AALT

      102      453        /**/
      103      454        /*  Set up things for later dump reading.  */
      104      455        /**/
      105      456    1           GID_VSEC_DUMP_.HOB = KP_DISKDIR.DUMP_VSEC.HOB;

    456   1 00004A  D2C7 0004                            LLH,R5   KP_DISKDIR,AUTO
          1 00004C  D780 0000 0000  00                   STH,R5   GID_VSEC_DUMP

      106      457    1           GID_VSEC_DUMP_.LOB = KP_DISKDIR.DUMP_VSEC.LOB;

    457   1 00004F  EA80 0000 0000  00                   SRM,R6,'00FF'X    GID_VSEC_DUMP
PL6.E3A0      #002=GID$CHKDMP File=GID$RDDUMP.:E05TSI                            TUE 07/29/97 21:45 Page:21
    457   1 000052       00FF

      107      458
      108      459    1           RETURN;

    459   1 000053  C380 0000 0000  xent                 LNJ,B4   X6A_ARET

      109      460
      110      461    1   GID$ENDDUMP: ENTRY ALTRET;

    461   1 000056  D380 0000 0000  xent GID$ENDDUMP     LNJ,B5   X6A_AUTO_0
          1 000059       0090 0000                       DC       144,0

      111      462        /**/
      112      463        /* Mark diskette as not having dump present. */
      113      464        /**/
      114      465
      115      466        /**/
      116      467        /*  Fetch the disk directory, source of all wisdom.  */
      117      468        /**/
      118      469    1           NUM_BYTES = SIZEC(KP_DISKDIR);

    469   1 00005B  8CF0 0000 0100                       LDI      256,IMO
          1 00005E  8D47 0084                            SDI      NUM_BYTES,AUTO

      119      470    1           CALL GID$DISKIO (%KP_VSEC_DISKDIR#,

    470   1 000060  EBF0 0008                            LAB,B6   8,IMO
          1 000062  DBC7 0004                            LAB,B5   KP_DISKDIR,AUTO
          1 000064  DFC7 0086                            STB,B5   NUM_BYTES+2,AUTO
          1 000066  CBF0 0000                            LAB,B4   0,IMO
          1 000068  CFC7 008E                            STB,B4   NUM_BYTES+10,AUTO
          1 00006A  BBC7 0086                            LAB,B3   NUM_BYTES+2,AUTO
          1 00006C  BFC7 008C                            STB,B3   NUM_BYTES+8,AUTO
          1 00006E  ABC7 0084                            LAB,B2   NUM_BYTES,AUTO
          1 000070  AFC7 008A                            STB,B2   NUM_BYTES+6,AUTO
          1 000072  EFC7 0088                            STB,B6   NUM_BYTES+4,AUTO
PL6.E3A0      #002=GID$CHKDMP File=GID$RDDUMP.:E05TSI                            TUE 07/29/97 21:45 Page:22
          1 000074  BBC7 0088                            LAB,B3   NUM_BYTES+4,AUTO
          1 000076  CBF0 0400                            LAB,B4   1024,IMO
          1 000078  E380 0000 0000  xent                 LNJ,B6   GID$DISKIO
          1 00007B       0001                            DC       s:477,PREL

      120      471    1             NUM_BYTES,
      121      472    1             ADDR(KP_DISKDIR),
      122      473    1             0);
      123      474        /**/
      124      475        /*  Stomp the disk directory, so this dump is no longer 'new'.  */
      125      476        /**/
      126      477    1           KP_DISKDIR.DUMP_VSEC = '0'B;    /* Mark no dump                       */

    477   1 00007C  8747 0004                            CL       KP_DISKDIR,AUTO

      127      478    1           CALL GID$DISKIO (%KP_VSEC_DISKDIR#,

    478   1 00007E  EBF0 0008                            LAB,B6   8,IMO
          1 000080  DBC7 0004                            LAB,B5   KP_DISKDIR,AUTO
          1 000082  DFC7 0086                            STB,B5   NUM_BYTES+2,AUTO
          1 000084  CBF0 0001                            LAB,B4   1,IMO
          1 000086  CFC7 008E                            STB,B4   NUM_BYTES+10,AUTO
          1 000088  BBC7 0086                            LAB,B3   NUM_BYTES+2,AUTO
          1 00008A  BFC7 008C                            STB,B3   NUM_BYTES+8,AUTO
          1 00008C  ABC7 0084                            LAB,B2   NUM_BYTES,AUTO
          1 00008E  AFC7 008A                            STB,B2   NUM_BYTES+6,AUTO
          1 000090  EFC7 0088                            STB,B6   NUM_BYTES+4,AUTO
          1 000092  BBC7 0088                            LAB,B3   NUM_BYTES+4,AUTO
          1 000094  CBF0 0400                            LAB,B4   1024,IMO
          1 000096  E380 0000 0000  xent                 LNJ,B6   GID$DISKIO
          1 000099       0001                            DC       s:485,PREL

      128      479    1             NUM_BYTES,
      129      480    1             ADDR(KP_DISKDIR),
      130      481    1             1);
      131      482        /**/
      132      483        /*  Finis!  */
PL6.E3A0      #002=GID$CHKDMP File=GID$RDDUMP.:E05TSI                            TUE 07/29/97 21:45 Page:23
      133      484        /**/
      134      485    1           RETURN;

    485   1 00009A  C380 0000 0000  xent                 LNJ,B4   X6A_ARET
      135      486        /**/
      136      487    1           END GID$CHKDMP;

PL6.E3A0      #002=GID$CHKDMP File=GID$RDDUMP.:E05TSI                            TUE 07/29/97 21:45 Page:24
--  Include file information  --

   KP_MACRO_C.:E05TOU  is referenced.
   KP_SUBS.:E05TOU  is referenced.
      No diagnostics issued in procedure GID$CHKDMP.
PL6.E3A0      #002=GID$CHKDMP File=GID$RDDUMP.:E05TSI                            TUE 07/29/97 21:45 Page:25

 **** Variables and constants ****

  ****  Section 000  Data  GID$CHKDMP

  ****  Scalars and arrays  ****
HexLoc.c.b A Datatyp(siz) R M Lvl/name                 HexLoc.c.b A Datatyp(siz) R M Lvl/name

     0-0-0/w SBIN(16)    r     1 GID_VSEC_DUMP              0-0-0/w STRC(16)    r     1 GID_VSEC_DUMP_

  ****  Auto variables  ****

  ****  Scalars and arrays  ****
HexLoc.c.b A Datatyp(siz) R M Lvl/name                 HexLoc.c.b A Datatyp(siz) R M Lvl/name

     4-0-0/c STRC(2048)  r     1 KP_DISKDIR                84-0-0/w UBIN(32)    r     1 NUM_BYTES


   Procedure GID$CHKDMP requires 157 words for executable code.
   Procedure GID$CHKDMP requires 144 words of local(AUTO) storage.

    No errors detected in file GID$RDDUMP.:E05TSI    .
PL6.E3A0      #002=GID$CHKDMP File=GID$RDDUMP.:E05TSI                            TUE 07/29/97 21:45 Page:26
          *** CROSS REFERENCE LISTING ***
**     DENOTES     IDENTIFIER DEFINITION
<<                 IDENTIFIER'S VALUE SET
>>                 IDENTIFIER'S VALUE USED
<>                 IDENTIFIER SET AND/OR USED
--                 IDENTIFIER REFERENCED
PL6.E3A0      #002=GID$CHKDMP File=GID$RDDUMP.:E05TSI                            TUE 07/29/97 21:45 Page:27
          MINI XREF LISTING

GID$DISKIO
       414**DCL-ENT   439--CALL      444--CALL      470--CALL      478--CALL
GID_VSEC_DUMP
       418**DCL       419--REDEF
GID_VSEC_DUMP_.HOB
       420**DCL       456<<ASSIGN
GID_VSEC_DUMP_.LOB
       421**DCL       457<<ASSIGN
KP_DISKDIR
       426**DCL       443--ASSIGN    444--CALL      469--ASSIGN    470--CALL      478--CALL
KP_DISKDIR.DUMP_VSEC
       427**DCL       451>>IF        477<<ASSIGN
KP_DISKDIR.DUMP_VSEC.HOB
       428**DCL       456>>ASSIGN
KP_DISKDIR.DUMP_VSEC.LOB
       429**DCL       457>>ASSIGN
NUM_BYTES
       435**DCL       443<<ASSIGN    444<>CALL      469<<ASSIGN    470<>CALL      478<>CALL
