VERSION E05

PL6.E3A0      #001=GIM$BUILD_BOBCAT File=GIM$MONINIT.:E05TSI                     TUE 07/29/97 21:47 Page:1
        1        1        /*M* GIM$MONINIT - Monitor initialization by the monitor. */
        2        2        /*T***********************************************************/
        3        3        /*T*                                                         */
        4        4        /*T* Copyright (c) Bull HN Information Systems Inc., 1997    */
        5        5        /*T*                                                         */
        6        6        /*T***********************************************************/
        7        7        /*X* PLM=3,IND=5,ECU=0,ENU=0  */
        8        8
        9        9        /*P* NAME: GIM$MONINIT
       10       10             PURPOSE: To initialize the BOBCAT data segment.
       11       11             DESCRIPTION:
       12       12                   The file GIM$MONINIT contains the routines to initialize
       13       13                   the BOBCAT data segment:
       14       14                     GIM$BUILD_BOBCAT - build everything but the channel tables and PPUT.
       15       15                     GIM$BUILD_CHNTBL - build the channel tables.
       16       16                     GIM$FINISH_INIT - build PPUT and misc. pointers.
       17       17        */
       18       18
       19       19
       20       20        /*F* NAME: GIM$BUILD_BOBCAT
       21       21             PURPOSE: To build most parts of the BOBCAT data segment.
       22       22
       23       23
       24       24        */
       25       25        GIM$BUILD_BOBCAT: PROC (NEXT$);
       26       26
       27       27        %INCLUDE G$BOBCAT_M;
       28       47        %INCLUDE GM_MACRO_M;
       29      529        %INCLUDE GH_SCHD_M;
       30      673        %INCLUDE GH_SCHD_E;
       31      769        %INCLUDE G_SFILE_M;
       32      829        %INCLUDE GFR_DATA_M;
       33      849 S      %INCLUDE GH_LCP6_M;
       34      850 S      %INCLUDE GU_LCP6_M;
       35      851        %INCLUDE K_ADDRESS_M;
       36     1354        %INCLUDE KN_DATA_M;
       37     3140        %INCLUDE KNA_MACRO_M;
PL6.E3A0      #001=GIM$BUILD_BOBCAT File=GIM$MONINIT.:E05TSI                     TUE 07/29/97 21:47 Page:2
       38     3216        %INCLUDE KNH_MACRO_C;
       39     3499        %INCLUDE KNN_NETWORK_M;
       40     3862
       41     3863                                                /* Input parameter                    */
       42     3864    1   DCL NEXT$ PTR;
       43     3865    1   DCL NEXT REDEF NEXT$ UBIN(32);
       44     3866
       45     3867                                                /* AUTO Storage*/
       46     3868    1   DCL I UBIN;
       47     3869    1   DCL I$ PTR;
       48     3870    1   DCL J UBIN;
       49     3871    1   DCL TV$ PTR;
       50     3872                                                /* SYMREF data                        */
       51     3873    1   DCL G$BOBCAT$ PTR SYMREF READONLY;
       52     3874    1   DCL GI_MEMPGS UBIN SYMREF;
       53     3875    1   DCL G$USRT$ PTR SYMREF;
       54     3876    1   DCL G_MUAIS UBIN SYMREF;
       55     3877    1   DCL G_DL$ PTR SYMREF;
       56     3878    1   DCL GJ_SFILE_START$ PTR SYMREF;
       57     3879    1   DCL GJ_SFILE_MAX# UBIN SYMREF;
       58     3880    1   DCL G_MING UBIN SYMREF;
       59     3881    1   DCL GH_HQ(0:0) UBIN SYMREF;
       60     3882    1   DCL GH_TQ(0:0) UBIN SYMREF;
       61     3883
       62     3884    1   DCL KN_TCTX$$ PTR SYMREF;
       63     3885    1   DCL KN_TCTX_START$ PTR SYMREF;
       64     3886    1   DCL KN_TCTX_END$ PTR SYMREF;
       65     3887    1   DCL KN_TCTX_HEAD$ PTR SYMREF;
       66     3888    1   DCL KN_TCTX_MAX# UBIN SYMREF;
       67     3889    1   DCL KN_TCTX_LNK# UBIN SYMREF;
       68     3890
       69     3891    1   DCL KN_IOP_START$ PTR SYMREF;
       70     3892    1   DCL KN_IOP_END$ PTR SYMREF;
       71     3893    1   DCL KN_IOP_HEAD$ PTR SYMREF;
       72     3894    1   DCL KN_IOP_MAX# UBIN SYMREF;
       73     3895    1   DCL KN_IOP_LNK# UBIN SYMREF;
       74     3896
PL6.E3A0      #001=GIM$BUILD_BOBCAT File=GIM$MONINIT.:E05TSI                     TUE 07/29/97 21:47 Page:3
       75     3897    1   DCL KN_DCT$$ PTR SYMREF;
       76     3898    1   DCL KN_LDCT_START$ PTR SYMREF;
       77     3899    1   DCL KN_LDCT_END$ PTR SYMREF;
       78     3900    1   DCL KN_LDCT_HEAD$ PTR SYMREF;
       79     3901    1   DCL KN_LDCT_MAX# UBIN SYMREF;
       80     3902    1   DCL KN_LDCT_LNK# UBIN SYMREF;
       81     3903
       82     3904    1   DCL KN_SSN_START$ PTR SYMREF;
       83     3905    1   DCL KN_SSN_END$ PTR SYMREF;
       84     3906    1   DCL KN_SSN_HEAD$ PTR SYMREF;
       85     3907    1   DCL KN_SSN_MAX# UBIN SYMREF;
       86     3908    1   DCL KN_SSN_LNK# UBIN SYMREF;
       87     3909
       88     3910    1   DCL KN_HMI$ PTR SYMREF;
       89     3911    1   DCL KN_HMI# UBIN SYMREF;
       90     3912
       91     3913    1   DCL KNN_ROUTE$$ PTR SYMREF;
       92     3914    1   DCL KNN_LINK$$ PTR SYMREF;
       93     3915                                                /* BASED Structures                   */
       94     3916    1   DCL B$PTRS(0:0) PTR BASED;
       95     3917    1   DCL 1 B$ZERO2 BASED,
       96     3918    1         2 * CHAR(4);
       97     3919        %G$BOBCAT (STCLASS="BASED(G$BOBCAT$)");
       98     3932        %G$USER (FPTN="G$USER(0:0)",STCLASS="BASED(I$)");
       99     3943        %G$DO (STCLASS="BASED(I$)");
      100     4006        %G$SFILE (FPTN=G_SFILE,STCLASS="BASED(NEXT$)");
      101     4043        %G$SFILE (ARRAYED=NO);
      102     4080        %GFR$ACCT (FPTN=GFR_ACCT,STCLASS="BASED(NEXT$)");
      103     4093        %GFR$ACCT (ARRAYED=NO);
      104     4106        %KN$LDCT;
      105     4351        %KN$DCT$ (STCLASS=BASED);
      106     4354        %KN$IOP;
      107     4527        %K$TCTX;
      108     5434    1   DCL K$TCTX$(0:0) PTR BASED;
      109     5435        %KNH$HMI;
      110     5442        %KNA$SSN;
      111     5525        %KNN$ROUTE;
PL6.E3A0      #001=GIM$BUILD_BOBCAT File=GIM$MONINIT.:E05TSI                     TUE 07/29/97 21:47 Page:4
      112     5597        %KNN$LINK;
      113     5848    1   DCL KNN_OSIROUTE$$ PTR SYMREF;
      114     5849    1   DCL KNN_OSIMAX# UBIN SYMREF;
      115     5850    1   DCL KNN_OSIROUTE# UBIN SYMREF;
      116     5851        %KNN$OSIROUTE(FPTN=OSIROUTE,ADRTYP=NET); /* the biggest one                   */
      117     6068        %EJECT;
PL6.E3A0      #001=GIM$BUILD_BOBCAT File=GIM$MONINIT.:E05TSI                     TUE 07/29/97 21:47 Page:5
      118     6069
      119     6070        /* Initialize User Table Info.
      120     6071        */
      121     6072    1      NEXT = ( (NEXT+7) /8) * 8;
      122     6073    1      G$BOBCAT.USRT$ = NEXT$;
      123     6074    1      G$USRT$ = G$BOBCAT.USRT$;
      124     6075    1      G_MUAIS = G$BOBCAT.MUIS;
      125     6076
      126     6077    1      I$ = G$BOBCAT.USRT$;
      127     6078    2      DO I = 1 TO G$BOBCAT.MUIS;
      128     6079    2           G$USER(I) = '0'B;
      129     6080    2           G$USER.US(I) = %GH_NULL;
      130     6081    2           G$USER.FL(I) = I + 1;
      131     6082    2           G$USER.BL(I) = I - 1;
      132     6083    2           END;
      133     6084
      134     6085    1      G$USER.FL(G$BOBCAT.MUIS) = 0;
      135     6086    1      G$USER(0) = '0'B;
      136     6087
      137     6088        /* Initialize the Schedular State Table head and tail for each state.
      138     6089        */
      139     6090    2      DO I = 0 TO %GH_NULL-1;
      140     6091    2           GH_HQ(I)=0;
      141     6092    2           GH_TQ(I)=0;
      142     6093    2           END;
      143     6094    1      GH_HQ(%GH_NULL)=1;
      144     6095    1      GH_TQ(%GH_NULL)=G$BOBCAT.MUIS;
      145     6096
      146     6097    1      NEXT$ = PINCRW(NEXT$,SIZEW(G$USER)*(G$BOBCAT.MUIS+1));
      147     6098
      148     6099        /* Initialize DOLIST entries.
      149     6100        */
      150     6101    1      G$BOBCAT.DOLIST$ = NEXT$;
      151     6102    1      G_DL$ = NEXT$;
      152     6103    1      I$ = NEXT$;
      153     6104    1      IF G$BOBCAT.MUIS >10
      154     6105    1      THEN J=G$BOBCAT.MUIS;
PL6.E3A0      #001=GIM$BUILD_BOBCAT File=GIM$MONINIT.:E05TSI                     TUE 07/29/97 21:47 Page:6
      155     6106    1      ELSE J=10;
      156     6107
      157     6108    2      DO I = 1 TO J;
      158     6109    2           IF I=J
      159     6110    2           THEN G$DO.LNK$ = ADDR(NIL);
      160     6111    2           ELSE G$DO.LNK$ = PINCRW(I$,SIZEW(G$DO));
      161     6112    2           I$ = G$DO.LNK$;
      162     6113    2           END;
      163     6114
      164     6115    1      NEXT$ = PINCRW(NEXT$,SIZEW(G$DO)*J);
      165     6116    1      NEXT = ( (NEXT+1) /2) * 2;
      166     6117
      167     6118        /* Now inialize the KN$DCT$ entrys.
      168     6119        */
      169     6120    1      G$BOBCAT.DCT$$ = NEXT$;
      170     6121    1      KN_DCT$$ = NEXT$;
      171     6122    1      NEXT$ = PINCRW(NEXT$,(G$BOBCAT.LDCT#+1)*SIZEW(KN$DCT$));
      172     6123    1      G$BOBCAT.LDCT_START$ = NEXT$;
      173     6124    1      G$BOBCAT.LDCTDATA$ = ADDR(KN_LDCT_START$);
      174     6125    1      KN_LDCT_MAX# = G$BOBCAT.LDCT#;
      175     6126    1      KN_LDCT_HEAD$ = NEXT$;
      176     6127    1      KN_LDCT_START$ = NEXT$;
      177     6128    1      TV$ = ADDR(NEXT$->KN$LDCT.LNK$);
      178     6129    1      KN_LDCT_LNK# = POFFW(TV$,NEXT$);
      179     6130
      180     6131    1      G$BOBCAT.DCT$$->KN$DCT$(0) = ADDR(NIL);
      181     6132
      182     6133    2      DO I = 1 TO G$BOBCAT.LDCT#;
      183     6134    2           G$BOBCAT.DCT$$->KN$DCT$ (I) = ADDR(NIL);
      184     6135
      185     6136    2           TV$ = NEXT$;
      186     6137    2           TV$->KN$LDCT = '0'B;
      187     6138    2           NEXT$ = PINCRW(NEXT$,SIZEW(KN$LDCT));
      188     6139    2           TV$->KN$LDCT.LDCTX = I;
      189     6140    2           TV$->KN$LDCT.LNK$ = NEXT$;
      190     6141    2           END;
      191     6142
PL6.E3A0      #001=GIM$BUILD_BOBCAT File=GIM$MONINIT.:E05TSI                     TUE 07/29/97 21:47 Page:7
      192     6143    1      KN_LDCT_END$ = TV$;
      193     6144    1      TV$->KN$LDCT.LNK$ = ADDR(NIL);
      194     6145
      195     6146        /* Now set up the I/O packet free chain.
      196     6147        */
      197     6148    1      G$BOBCAT.IOP_START$ = NEXT$;
      198     6149    1      G$BOBCAT.IOPDATA$ = ADDR(KN_IOP_START$);
      199     6150    1      KN_IOP_MAX# = G$BOBCAT.IOP#;
      200     6151    1      KN_IOP_HEAD$ = NEXT$;
      201     6152    1      KN_IOP_START$ = NEXT$;
      202     6153    1      TV$ = ADDR(NEXT$->KN$IOP.LNK$);
      203     6154    1      KN_IOP_LNK# = POFFW(TV$,NEXT$);
      204     6155
      205     6156    2      DO I = 1 TO G$BOBCAT.IOP#;
      206     6157    2           I$ = NEXT$;
      207     6158    2           NEXT$ = PINCRW(NEXT$,SIZEW(KN$IOP));
      208     6159    2           I$->KN$IOP = '0'B;
      209     6160    2           I$->KN$IOP.LNK$ = NEXT$;
      210     6161    2           END;
      211     6162    1      KN_IOP_END$ = I$;
      212     6163    1      I$->KN$IOP.LNK$ = ADDR(NIL);
      213     6164
      214     6165        /* Now set up the HMI entries.
      215     6166        */
      216     6167    1      G$BOBCAT.HMI$ = NEXT$;
      217     6168    1      KN_HMI$ = G$BOBCAT.HMI$;
      218     6169    1      KN_HMI# = G$BOBCAT.HMI#;
      219     6170
      220     6171    2      DO I = 1 TO G$BOBCAT.HMI#;
      221     6172    2           I$ = NEXT$;
      222     6173    2           I$->KNH$HMI = '0'B;
      223     6174    2           NEXT$ = PINCRW(NEXT$,SIZEW(KNH$HMI));
      224     6175    2           I$->KNH$HMI.USER# = 0;
      225     6176    2           I$->KNH$HMI.SCQ.LOCK = '1'B;
      226     6177    2           I$->KNH$HMI.RCQ.LOCK = '1'B;
      227     6178    2           I$->KNH$HMI.SCQ.BUSY = '0'B;
      228     6179    2           END;
PL6.E3A0      #001=GIM$BUILD_BOBCAT File=GIM$MONINIT.:E05TSI                     TUE 07/29/97 21:47 Page:8
      229     6180
      230     6181        /* Set up the number of APE Session contexts needed.
      231     6182        */
      232     6183    1      G$BOBCAT.SSN_START$ = NEXT$;
      233     6184    1      G$BOBCAT.SSNDATA$ = ADDR(KN_SSN_START$);
      234     6185    1      KN_SSN_MAX# = G$BOBCAT.APESSN#;
      235     6186    1      KN_SSN_HEAD$ = NEXT$;
      236     6187    1      KN_SSN_START$ = NEXT$;
      237     6188    1      I$ = ADDR(NEXT$->KNA$SSN.LNK$);
      238     6189    1      KN_SSN_LNK# = POFFW(I$,NEXT$);
      239     6190
      240     6191    2      DO I = 1 TO G$BOBCAT.APESSN#;
      241     6192    2           I$ = NEXT$;
      242     6193    2           NEXT$ = PINCRW(NEXT$,SIZEW(KNA$SSN));
      243     6194    2           I$->KNA$SSN = '0'B;
      244     6195    2           I$->KNA$SSN.LNK$ = NEXT$;
      245     6196    2           END;
      246     6197
      247     6198    1      KN_SSN_END$ = I$;
      248     6199    1      I$->KNA$SSN.LNK$ = ADDR(NIL);
      249     6200
      250     6201        /* Set up shared processor table area.
      251     6202        */
      252     6203    1      NEXT = ( (NEXT+7) /8) * 8;
      253     6204    1      G$BOBCAT.SFILE$ = NEXT$;
      254     6205    1      GJ_SFILE_START$ = NEXT$;
      255     6206    1      G$BOBCAT.SFDATA$ = ADDR(GJ_SFILE_START$);
      256     6207    1      GJ_SFILE_MAX# = G$BOBCAT.SFILE#;
      257     6208
      258     6209    2      DO I=0 TO G$BOBCAT.SFILE#;
      259     6210    2           G_SFILE(I) = '0'B;
      260     6211    2           END;
      261     6212
      262     6213    1      NEXT$ = PINCRW(NEXT$,SIZEW(G$SFILE)*(G$BOBCAT.SFILE#+1));
      263     6214
      264     6215        /* Set up the account resource table area.
      265     6216        */
PL6.E3A0      #001=GIM$BUILD_BOBCAT File=GIM$MONINIT.:E05TSI                     TUE 07/29/97 21:47 Page:9
      266     6217    1      NEXT = ( (NEXT+1) /2) * 2;
      267     6218    1      G$BOBCAT.ACCT_RES$ = NEXT$;
      268     6219    2      DO I=0 TO G$BOBCAT.ACCT_RES#;
      269     6220    2           GFR_ACCT(I) = '0'B;
      270     6221    2           END;
      271     6222
      272     6223    1      GFR_ACCT.UNAME(1) = ' ';
      273     6224    1      GFR_ACCT.ACCN(1) = ':SYS    ';
      274     6225    1      GFR_ACCT.MAX_MEM(1) = 65535;
      275     6226    1      GFR_ACCT.MAX_FPRGS(1) = 65535;
      276     6227
      277     6228    1      NEXT$ = PINCRW(NEXT$,SIZEW(GFR$ACCT)*(G$BOBCAT.ACCT_RES#+1));
      278     6229
      279     6230        /* Set up the transport context.
      280     6231        */
      281     6232    1      G$BOBCAT.TCTX$$ = NEXT$;
      282     6233    1      KN_TCTX$$ = NEXT$;
      283     6234    1      NEXT$ = PINCRW(NEXT$,(G$BOBCAT.TCTX#+1)*SIZEW(K$TCTX$));
      284     6235    1      NEXT = ( (NEXT+7) /8) * 8;
      285     6236
      286     6237    1      G$BOBCAT.TCTX$ = NEXT$;
      287     6238    1      G$BOBCAT.TCTXDATA$ = ADDR(KN_TCTX_START$);
      288     6239    1      KN_TCTX_MAX# = G$BOBCAT.TCTX#;
      289     6240    1      KN_TCTX_HEAD$ = NEXT$;
      290     6241    1      KN_TCTX_START$ = NEXT$;
      291     6242    1      TV$ = ADDR(NEXT$->K$TCTX.LNK$);
      292     6243    1      KN_TCTX_LNK# = POFFW(TV$,NEXT$);
      293     6244
      294     6245    1      G$BOBCAT.TCTX$$->KN$DCT$(0) = ADDR(NIL);
      295     6246
      296     6247    1      J = ( (SIZEW(K$TCTX)+1)/2 ) *2;
      297     6248
      298     6249    2      DO I = 1 TO G$BOBCAT.TCTX#;
      299     6250    2           G$BOBCAT.TCTX$$->KN$DCT$ (I) = ADDR(NIL);
      300     6251
      301     6252    2           TV$ = NEXT$;
      302     6253    2           TV$->K$TCTX = '0'B;
PL6.E3A0      #001=GIM$BUILD_BOBCAT File=GIM$MONINIT.:E05TSI                     TUE 07/29/97 21:47 Page:10
      303     6254    2           NEXT$ = PINCRW(NEXT$,J);
      304     6255    2           TV$->K$TCTX.SRC_REF = I;
      305     6256    2           TV$->K$TCTX.LNK$ = NEXT$;
      306     6257    2           END;
      307     6258
      308     6259    1      KN_TCTX_END$ = TV$;
      309     6260    1      TV$->K$TCTX.LNK$ = ADDR(NIL);
      310     6261
      311     6262
      312     6263        /* Set up the network route tables.
      313     6264        */
      314     6265    1      TV$ = NEXT$;
      315     6266    1      G$BOBCAT.ROUTE$$ = TV$;
      316     6267    1      KNN_ROUTE$$ = G$BOBCAT.ROUTE$$;
      317     6268    1      NEXT$ = PINCRW(NEXT$,(G$BOBCAT.NODES+1)*2);
      318     6269    1      G$BOBCAT.ROUTE_START$ = NEXT$;
      319     6270
      320     6271    2      DO I = 0 TO G$BOBCAT.NODES;
      321     6272    2           TV$->B$PTRS(I) = NEXT$;
      322     6273    2           NEXT$->KNN$ROUTE = '0'B;
      323     6274    3           DO J = 0 TO G$BOBCAT.LINKS-1;
      324     6275    3                NEXT$->KNN$ROUTE.LINK(J) = '0'B;
      325     6276    3                NEXT$->KNN$ROUTE.LINK# = -1;
      326     6277    3                NEXT$->KNN$ROUTE.CURRENT_QOS = 255;
      327     6278    3                NEXT$->KNN$ROUTE.ALT_QOS = 255;
      328     6279    3                END/*do j=o to .links*/;
      329     6280
      330     6281    2           NEXT$ = PINCRW(NEXT$,SIZEW(KNN$ROUTE)+G$BOBCAT.LINKS*SIZEW(KNN$ROUTE.LINK));
      331     6282    2           END/*do i=0 to .nodes*/;
      332     6283
      333     6284        /* Set up the network link tables.
      334     6285        */
      335     6286    1      TV$ = NEXT$;
      336     6287    1      G$BOBCAT.LINK$$ = TV$;
      337     6288    1      KNN_LINK$$ = G$BOBCAT.LINK$$;
      338     6289    1      NEXT$ = PINCRW(NEXT$,(G$BOBCAT.LINKS)*2);
      339     6290    1      G$BOBCAT.LINK_START$ = NEXT$;
PL6.E3A0      #001=GIM$BUILD_BOBCAT File=GIM$MONINIT.:E05TSI                     TUE 07/29/97 21:47 Page:11
      340     6291
      341     6292    2      DO I = 0 TO G$BOBCAT.LINKS-1;
      342     6293    2           TV$->B$PTRS(I) = NEXT$;
      343     6294    2           NEXT$->KNN$LINK = '0'B;
      344     6295    2           NEXT$ = PINCRW(NEXT$,SIZEW(KNN$LINK));
      345     6296    2           END;
      346     6297
      347     6298    1      TV$ = NEXT$;
      348     6299    1      G$BOBCAT.OSIROUTE$ = TV$;
      349     6300    1      KNN_OSIROUTE$$ = NEXT$;
      350     6301    1      NEXT$ = PINCRW(NEXT$,(G$BOBCAT.OSIROUTE#+1)*2);
      351     6302    1      G$BOBCAT.OSIROUTE_START$ = NEXT$;
      352     6303    2      DO I = 0 TO G$BOBCAT.OSIROUTE#;
      353     6304    2           TV$->B$PTRS(I) = NEXT$;
      354     6305    2           NEXT$->OSIROUTE = '0'B;
      355     6306    3           DO J = 0 TO G$BOBCAT.LINKS-1;
      356     6307    3                NEXT$->OSIROUTE.LINK(J) = '0'B;
      357     6308    3                NEXT$->OSIROUTE.LINK.QOS(J) = 255;
      358     6309    3                END;
      359     6310    2           NEXT$ = PINCRW(NEXT$,SIZEW(OSIROUTE)+(G$BOBCAT.LINKS*SIZEW(OSIROUTE.LINK(0))
              6310                    -SIZEW(OSIROUTE.LINK(0))));
      360     6311    2           END;
      361     6312    1      RETURN;
      362     6313    1   END GIM$BUILD_BOBCAT;
      363     6314        %EOD;

PL6.E3A0      #001=GIM$BUILD_BOBCAT File=GIM$MONINIT.:E05TSI                     TUE 07/29/97 21:47 Page:12
--  Include file information  --

   KNN_NETWORK_M.:E05TOU  is referenced.
   KNH_MACRO_C.:E05TOU  is referenced.
   KNA_MACRO_M.:E05TOU  is referenced.
   KN_DATA_M.:E05TOU  is referenced.
   K_ADDRESS_M.:E05TOU  is referenced.
   GFR_DATA_M.:E05TOU  is referenced.
   G_SFILE_M.:E05TOU  is referenced.
   GH_SCHD_E.:E05TOU  is referenced.
   GH_SCHD_M.:E05TOU  is referenced.
   GM_MACRO_M.:E05TOU  is referenced.
   G$BOBCAT_M.:E05TOU  is referenced.
   G_LCP6_E.:E05TOU  was found in the system file and is never referenced.
   GT_LCP6_M.:E05TOU  was found in the system file and is never referenced.
   KI_CP6.:E05TOU  was found in the system file and is never referenced.
   GF_LCP6_M.:E05TOU  was found in the system file and is never referenced.
   GM_LCP6_M.:E05TOU  was found in the system file and is never referenced.
   GU_LCP6_M.:E05TOU  was found in the system file and is referenced.
   GJ_LCP6_M.:E05TOU  was found in the system file and is never referenced.
   GH_LCP6_M.:E05TOU  was found in the system file and is referenced.
      No diagnostics issued in procedure GIM$BUILD_BOBCAT.

   Procedure GIM$BUILD_BOBCAT requires 1176 words for executable code.
   Procedure GIM$BUILD_BOBCAT requires 14 words of local(AUTO) storage.

PL6.E3A0      #001=GIM$BUILD_BOBCAT File=GIM$MONINIT.:E05TSI                     TUE 07/29/97 21:47 Page:13

 Object Unit name= GIM$BUILD_BOBCAT                           File name= GIM$MONINIT.:E05TOU
 UTS= JUL 29 '97 21:47:09.76 TUE                              Compiler= PL-6/E31         Sev=      00
 SharedLib= :SHARED_LCP6_SYSTEM                               Alt SharedLib=


    ****  Control sections  ****

 Sect   Type Bound  Init  Size HexSiz  Section name
    0  RoData even  UTS      4      4  GIM$BUILD_BOBCAT
    1   Proc  even  none  1176    498  GIM$BUILD_BOBCAT
    2  RoData even  none     8      8  GIM$BUILD_BOBCAT

    ****  Entry defs  ****

                              Check   Calling
                             calling  sequence
  Sect HexLoc Primary Altret sequence   type   Parms  Name
     1      0   yes            yes      Std        1  GIM$BUILD_BOBCAT

  ****  Entry refs  ****

         Check        Calling
        calling       sequence
Altret sequence SRef   type   Args  Name
                       nStd      0 X6A_AUTO_1
                       nStd      0 X6D_MID
                       nStd      0 X6C_ALRZ
                       nStd      0 X6A_ARET
PL6.E3A0      #001=GIM$BUILD_BOBCAT File=GIM$MONINIT.:E05TSI                     TUE 07/29/97 21:47 Page:14

  ****  Data refs  ****

  Flags:  r = read only, s = secondary
Flgs Name                             Flgs Name                             Flgs Name
r    G$BOBCAT$                             G$USRT$                               G_MUAIS
     G_DL$                                 GJ_SFILE_START$                       GJ_SFILE_MAX#
     GH_HQ                                 GH_TQ                                 KN_TCTX$$
     KN_TCTX_START$                        KN_TCTX_END$                          KN_TCTX_HEAD$
     KN_TCTX_MAX#                          KN_TCTX_LNK#                          KN_IOP_START$
     KN_IOP_END$                           KN_IOP_HEAD$                          KN_IOP_MAX#
     KN_IOP_LNK#                           KN_DCT$$                              KN_LDCT_START$
     KN_LDCT_END$                          KN_LDCT_HEAD$                         KN_LDCT_MAX#
     KN_LDCT_LNK#                          KN_SSN_START$                         KN_SSN_END$
     KN_SSN_HEAD$                          KN_SSN_MAX#                           KN_SSN_LNK#
     KN_HMI$                               KN_HMI#                               KNN_ROUTE$$
     KNN_LINK$$                            KNN_OSIROUTE$$                   r    G$ROS$
PL6.E3A0      #001=GIM$BUILD_BOBCAT File=GIM$MONINIT.:E05TSI                     TUE 07/29/97 21:47 Page:15


        1        1        /*M* GIM$MONINIT - Monitor initialization by the monitor. */
        2        2        /*T***********************************************************/
        3        3        /*T*                                                         */
        4        4        /*T* Copyright (c) Bull HN Information Systems Inc., 1997    */
        5        5        /*T*                                                         */
        6        6        /*T***********************************************************/
        7        7        /*X* PLM=3,IND=5,ECU=0,ENU=0  */
        8        8
        9        9        /*P* NAME: GIM$MONINIT
       10       10             PURPOSE: To initialize the BOBCAT data segment.
       11       11             DESCRIPTION:
       12       12                   The file GIM$MONINIT contains the routines to initialize
       13       13                   the BOBCAT data segment:
       14       14                     GIM$BUILD_BOBCAT - build everything but the channel tables and PPUT.
       15       15                     GIM$BUILD_CHNTBL - build the channel tables.
       16       16                     GIM$FINISH_INIT - build PPUT and misc. pointers.
       17       17        */
       18       18
       19       19
       20       20        /*F* NAME: GIM$BUILD_BOBCAT
       21       21             PURPOSE: To build most parts of the BOBCAT data segment.
       22       22
       23       23
       24       24        */
       25       25        GIM$BUILD_BOBCAT: PROC (NEXT$);

     25   1 000000  D380 0000 0000  xent GIM$BUILD_BOBCATLNJ,B5   X6A_AUTO_1
          1 000003       000E 0001                       DC       14,1

       26       26
       27       27        %INCLUDE G$BOBCAT_M;
       28       47        %INCLUDE GM_MACRO_M;
       29      529        %INCLUDE GH_SCHD_M;
       30      673        %INCLUDE GH_SCHD_E;
       31      769        %INCLUDE G_SFILE_M;
       32      829        %INCLUDE GFR_DATA_M;
PL6.E3A0      #001=GIM$BUILD_BOBCAT File=GIM$MONINIT.:E05TSI                     TUE 07/29/97 21:47 Page:16
       33      849 S      %INCLUDE GH_LCP6_M;
       34      850 S      %INCLUDE GU_LCP6_M;
       35      851        %INCLUDE K_ADDRESS_M;
       36     1354        %INCLUDE KN_DATA_M;
       37     3140        %INCLUDE KNA_MACRO_M;
       38     3216        %INCLUDE KNH_MACRO_C;
       39     3499        %INCLUDE KNN_NETWORK_M;
       40     3862
       41     3863                                                /* Input parameter                    */
       42     3864    1   DCL NEXT$ PTR;
       43     3865    1   DCL NEXT REDEF NEXT$ UBIN(32);
       44     3866
       45     3867                                                /* AUTO Storage*/
       46     3868    1   DCL I UBIN;
       47     3869    1   DCL I$ PTR;
       48     3870    1   DCL J UBIN;
       49     3871    1   DCL TV$ PTR;
       50     3872                                                /* SYMREF data                        */
       51     3873    1   DCL G$BOBCAT$ PTR SYMREF READONLY;
       52     3874    1   DCL GI_MEMPGS UBIN SYMREF;
       53     3875    1   DCL G$USRT$ PTR SYMREF;
       54     3876    1   DCL G_MUAIS UBIN SYMREF;
       55     3877    1   DCL G_DL$ PTR SYMREF;
       56     3878    1   DCL GJ_SFILE_START$ PTR SYMREF;
       57     3879    1   DCL GJ_SFILE_MAX# UBIN SYMREF;
       58     3880    1   DCL G_MING UBIN SYMREF;
       59     3881    1   DCL GH_HQ(0:0) UBIN SYMREF;
       60     3882    1   DCL GH_TQ(0:0) UBIN SYMREF;
       61     3883
       62     3884    1   DCL KN_TCTX$$ PTR SYMREF;
       63     3885    1   DCL KN_TCTX_START$ PTR SYMREF;
       64     3886    1   DCL KN_TCTX_END$ PTR SYMREF;
       65     3887    1   DCL KN_TCTX_HEAD$ PTR SYMREF;
       66     3888    1   DCL KN_TCTX_MAX# UBIN SYMREF;
       67     3889    1   DCL KN_TCTX_LNK# UBIN SYMREF;
       68     3890
       69     3891    1   DCL KN_IOP_START$ PTR SYMREF;
PL6.E3A0      #001=GIM$BUILD_BOBCAT File=GIM$MONINIT.:E05TSI                     TUE 07/29/97 21:47 Page:17
       70     3892    1   DCL KN_IOP_END$ PTR SYMREF;
       71     3893    1   DCL KN_IOP_HEAD$ PTR SYMREF;
       72     3894    1   DCL KN_IOP_MAX# UBIN SYMREF;
       73     3895    1   DCL KN_IOP_LNK# UBIN SYMREF;
       74     3896
       75     3897    1   DCL KN_DCT$$ PTR SYMREF;
       76     3898    1   DCL KN_LDCT_START$ PTR SYMREF;
       77     3899    1   DCL KN_LDCT_END$ PTR SYMREF;
       78     3900    1   DCL KN_LDCT_HEAD$ PTR SYMREF;
       79     3901    1   DCL KN_LDCT_MAX# UBIN SYMREF;
       80     3902    1   DCL KN_LDCT_LNK# UBIN SYMREF;
       81     3903
       82     3904    1   DCL KN_SSN_START$ PTR SYMREF;
       83     3905    1   DCL KN_SSN_END$ PTR SYMREF;
       84     3906    1   DCL KN_SSN_HEAD$ PTR SYMREF;
       85     3907    1   DCL KN_SSN_MAX# UBIN SYMREF;
       86     3908    1   DCL KN_SSN_LNK# UBIN SYMREF;
       87     3909
       88     3910    1   DCL KN_HMI$ PTR SYMREF;
       89     3911    1   DCL KN_HMI# UBIN SYMREF;
       90     3912
       91     3913    1   DCL KNN_ROUTE$$ PTR SYMREF;
       92     3914    1   DCL KNN_LINK$$ PTR SYMREF;
       93     3915                                                /* BASED Structures                   */
       94     3916    1   DCL B$PTRS(0:0) PTR BASED;
       95     3917    1   DCL 1 B$ZERO2 BASED,
       96     3918    1         2 * CHAR(4);
       97     3919        %G$BOBCAT (STCLASS="BASED(G$BOBCAT$)");
       98     3932        %G$USER (FPTN="G$USER(0:0)",STCLASS="BASED(I$)");
       99     3943        %G$DO (STCLASS="BASED(I$)");
      100     4006        %G$SFILE (FPTN=G_SFILE,STCLASS="BASED(NEXT$)");
      101     4043        %G$SFILE (ARRAYED=NO);
      102     4080        %GFR$ACCT (FPTN=GFR_ACCT,STCLASS="BASED(NEXT$)");
      103     4093        %GFR$ACCT (ARRAYED=NO);
      104     4106        %KN$LDCT;
      105     4351        %KN$DCT$ (STCLASS=BASED);
      106     4354        %KN$IOP;
PL6.E3A0      #001=GIM$BUILD_BOBCAT File=GIM$MONINIT.:E05TSI                     TUE 07/29/97 21:47 Page:18
      107     4527        %K$TCTX;
      108     5434    1   DCL K$TCTX$(0:0) PTR BASED;
      109     5435        %KNH$HMI;
      110     5442        %KNA$SSN;
      111     5525        %KNN$ROUTE;
      112     5597        %KNN$LINK;
      113     5848    1   DCL KNN_OSIROUTE$$ PTR SYMREF;
      114     5849    1   DCL KNN_OSIMAX# UBIN SYMREF;
      115     5850    1   DCL KNN_OSIROUTE# UBIN SYMREF;
      116     5851        %KNN$OSIROUTE(FPTN=OSIROUTE,ADRTYP=NET); /* the biggest one                   */
      117     6068        %EJECT;
PL6.E3A0      #001=GIM$BUILD_BOBCAT File=GIM$MONINIT.:E05TSI                     TUE 07/29/97 21:47 Page:19
      118     6069
      119     6070        /* Initialize User Table Info.
      120     6071        */
      121     6072    1      NEXT = ( (NEXT+7) /8) * 8;

   6072   1 000005  ECC7 0004                            LDB,B6   @NEXT$,AUTO
          1 000007  8C86                                 LDI      ,B6
          1 000008  8470 0000 0007                       AID      7,IMO
          1 00000B  70C3                                 DOR,R7   3
          1 00000C  7083                                 DOL,R7   3
          1 00000D  8D06                                 SDI      ,B6

      122     6073    1      G$BOBCAT.USRT$ = NEXT$;

   6073   1 00000E  DC86                                 LDB,B5   ,B6
          1 00000F  CC80 0000 0000  xsym                 LDB,B4   G$BOBCAT$
          1 000012  DFC4 0018                            STB,B5   24,B4

      123     6074    1      G$USRT$ = G$BOBCAT.USRT$;

   6074   1 000014  DF80 0000 0000  xsym                 STB,B5   G$USRT$

      124     6075    1      G_MUAIS = G$BOBCAT.MUIS;

   6075   1 000017  E844 000A                            LDR,R6   10,B4
          1 000019  EF00 0000 0000  xsym                 STR,R6   G_MUAIS

      125     6076
      126     6077    1      I$ = G$BOBCAT.USRT$;

   6077   1 00001C  DFC7 0007                            STB,B5   I$,AUTO

      127     6078    2      DO I = 1 TO G$BOBCAT.MUIS;

   6078   1 00001E  5C01                                 LDV,R5   1
          1 00001F  DF47 0006                            STR,R5   I,AUTO
          1 000021  0F81 0027                            B        s:6083+2,PREL
PL6.E3A0      #001=GIM$BUILD_BOBCAT File=GIM$MONINIT.:E05TSI                     TUE 07/29/97 21:47 Page:20

      128     6079    2           G$USER(I) = '0'B;

   6079   1 000023  ECC7 0007                            LDB,B6   I$,AUTO
          1 000025  B847 0006                            LDR,R3   I,AUTO
          1 000027  3F30                                 MLV,R3   48
          1 000028  5C30                                 LDV,R5   48
          1 000029  0021                                 ALR      ;
          1 00002A       4178 0000                                ALPHANUM('0000'X,IMO,,1),;
          1 00002C       4036 0000                                ALPHANUM(0,B6,R3,,R5,FILL)

      129     6080    2           G$USER.US(I) = %GH_NULL;

   6080   1 00002E  437F                                 CSYNC    s:6079+10,SPREL
          1 00002F  ECC7 0007                            LDB,B6   I$,AUTO
          1 000031  B847 0006                            LDR,R3   I,AUTO
          1 000033  3F18                                 MLV,R3   24
          1 000034  3E02                                 ADV,R3   2
          1 000035  6C1F                                 LDV,R6   31
          1 000036  EF36                                 STR,R6   ,B6,R3

      130     6081    2           G$USER.FL(I) = I + 1;

   6081   1 000037  A847 0006                            LDR,R2   I,AUTO
          1 000039  2F18                                 MLV,R2   24
          1 00003A  2E03                                 ADV,R2   3
          1 00003B  C847 0006                            LDR,R4   I,AUTO
          1 00003D  4E01                                 ADV,R4   1
          1 00003E  CF26                                 STR,R4   ,B6,R2

      131     6082    2           G$USER.BL(I) = I - 1;

   6082   1 00003F  9847 0006                            LDR,R1   I,AUTO
          1 000041  1F18                                 MLV,R1   24
          1 000042  1E04                                 ADV,R1   4
          1 000043  E847 0006                            LDR,R6   I,AUTO
          1 000045  6EFF                                 ADV,R6   -1
PL6.E3A0      #001=GIM$BUILD_BOBCAT File=GIM$MONINIT.:E05TSI                     TUE 07/29/97 21:47 Page:21
          1 000046  EF16                                 STR,R6   ,B6,R1

      132     6083    2           END;

   6083   1 000047  8AC7 0006                            INC      I,AUTO
          1 000049  EC80 0000 0000  xsym                 LDB,B6   G$BOBCAT$
          1 00004C  E847 0006                            LDR,R6   I,AUTO
          1 00004E  E946 000A                            CMR,R6   10,B6
          1 000050  03D3                                 BLE      s:6079,SPREL

      133     6084
      134     6085    1      G$USER.FL(G$BOBCAT.MUIS) = 0;

   6085   1 000051  B846 000A                            LDR,R3   10,B6
          1 000053  DCC7 0007                            LDB,B5   I$,AUTO
          1 000055  3F18                                 MLV,R3   24
          1 000056  3E03                                 ADV,R3   3
          1 000057  8735                                 CL       ,B5,R3

      135     6086    1      G$USER(0) = '0'B;

   6086   1 000058  5C30                                 LDV,R5   48
          1 000059  0021                                 ALR      ;
          1 00005A       4178 0000                                ALPHANUM('0000'X,IMO,,1),;
          1 00005C       4005 0000                                ALPHANUM(0,B5,,R5,FILL)

      136     6087
      137     6088        /* Initialize the Schedular State Table head and tail for each state.
      138     6089        */
      139     6090    2      DO I = 0 TO %GH_NULL-1;

   6090   1 00005E  437F                                 CSYNC    s:6086+5,SPREL
          1 00005F  8747 0006                            CL       I,AUTO
          1 000061  0F81 000B                            B        s:6093+2,PREL

      140     6091    2           GH_HQ(I)=0;

PL6.E3A0      #001=GIM$BUILD_BOBCAT File=GIM$MONINIT.:E05TSI                     TUE 07/29/97 21:47 Page:22
   6091   1 000063  B847 0006                            LDR,R3   I,AUTO
          1 000065  8730 0000 0000  xsym                 CL       GH_HQ,R3

      141     6092    2           GH_TQ(I)=0;

   6092   1 000068  8730 0000 0000  xsym                 CL       GH_TQ,R3

      142     6093    2           END;

   6093   1 00006B  8AC7 0006                            INC      I,AUTO
          1 00006D  E847 0006                            LDR,R6   I,AUTO
          1 00006F  6D1E                                 CMV,R6   30
          1 000070  03F3                                 BLE      s:6091,SPREL

      143     6094    1      GH_HQ(%GH_NULL)=1;

   6094   1 000071  5C01                                 LDV,R5   1
          1 000072  DF00 0000 001F  xsym                 STR,R5   GH_HQ+31

      144     6095    1      GH_TQ(%GH_NULL)=G$BOBCAT.MUIS;

   6095   1 000075  EC80 0000 0000  xsym                 LDB,B6   G$BOBCAT$
          1 000078  C846 000A                            LDR,R4   10,B6
          1 00007A  CF00 0000 001F  xsym                 STR,R4   GH_TQ+31

      145     6096
      146     6097    1      NEXT$ = PINCRW(NEXT$,SIZEW(G$USER)*(G$BOBCAT.MUIS+1));

   6097   1 00007D  B846 000A                            LDR,R3   10,B6
          1 00007F  DCC7 0004                            LDB,B5   @NEXT$,AUTO
          1 000081  CC85                                 LDB,B4   ,B5
          1 000082  CFC7 000C                            STB,B4   TV$+2,AUTO
          1 000084  F853                                 LDR,R7   R3
          1 000085  6C00                                 LDV,R6   0
          1 000086  9B80 0000 0000  02                   LAB,B1   0
          1 000089  D380 0000 0000  xent                 LNJ,B5   X6D_MID
          1 00008C  8447 000C                            AID      TV$+2,AUTO
PL6.E3A0      #001=GIM$BUILD_BOBCAT File=GIM$MONINIT.:E05TSI                     TUE 07/29/97 21:47 Page:23
          1 00008E  8470 0000 0018                       AID      24,IMO
          1 000091  ECC7 0004                            LDB,B6   @NEXT$,AUTO
          1 000093  8D06                                 SDI      ,B6

      147     6098
      148     6099        /* Initialize DOLIST entries.
      149     6100        */
      150     6101    1      G$BOBCAT.DOLIST$ = NEXT$;

   6101   1 000094  DC86                                 LDB,B5   ,B6
          1 000095  CC80 0000 0000  xsym                 LDB,B4   G$BOBCAT$
          1 000098  DFC4 001A                            STB,B5   26,B4

      151     6102    1      G_DL$ = NEXT$;

   6102   1 00009A  BC86                                 LDB,B3   ,B6
          1 00009B  BF80 0000 0000  xsym                 STB,B3   G_DL$

      152     6103    1      I$ = NEXT$;

   6103   1 00009E  AC86                                 LDB,B2   ,B6
          1 00009F  AFC7 0007                            STB,B2   I$,AUTO

      153     6104    1      IF G$BOBCAT.MUIS >10

   6104   1 0000A1  E844 000A                            LDR,R6   10,B4
          1 0000A3  6D0A                                 CMV,R6   10
          1 0000A4  0381 0005                            BLE      s:6106,PREL

      154     6105    1      THEN J=G$BOBCAT.MUIS;

   6105   1 0000A6  EF47 0009                            STR,R6   J,AUTO
          1 0000A8  0F81 0004                            B        s:6108,PREL

      155     6106    1      ELSE J=10;

   6106   1 0000AA  5C0A                                 LDV,R5   10
PL6.E3A0      #001=GIM$BUILD_BOBCAT File=GIM$MONINIT.:E05TSI                     TUE 07/29/97 21:47 Page:24
          1 0000AB  DF47 0009                            STR,R5   J,AUTO

      156     6107
      157     6108    2      DO I = 1 TO J;

   6108   1 0000AD  5C01                                 LDV,R5   1
          1 0000AE  DF47 0006                            STR,R5   I,AUTO
          1 0000B0  0F81 001B                            B        s:6113+2,PREL

      158     6109    2           IF I=J

   6109   1 0000B2  E847 0006                            LDR,R6   I,AUTO
          1 0000B4  E947 0009                            CMR,R6   J,AUTO
          1 0000B6  0981 0009                            BNE      s:6111,PREL

      159     6110    2           THEN G$DO.LNK$ = ADDR(NIL);

   6110   1 0000B8  EB80 0000 0000                       LAB,B6   0
          1 0000BB  DCC7 0007                            LDB,B5   I$,AUTO
          1 0000BD  EF85                                 STB,B6   ,B5
          1 0000BE  0F81 0006                            B        s:6112,PREL

      160     6111    2           ELSE G$DO.LNK$ = PINCRW(I$,SIZEW(G$DO));

   6111   1 0000C0  ECC7 0007                            LDB,B6   I$,AUTO
          1 0000C2  DBC6 0010                            LAB,B5   16,B6
          1 0000C4  DF86                                 STB,B5   ,B6

      161     6112    2           I$ = G$DO.LNK$;

   6112   1 0000C5  ECC7 0007                            LDB,B6   I$,AUTO
          1 0000C7  DC86                                 LDB,B5   ,B6
          1 0000C8  DFC7 0007                            STB,B5   I$,AUTO

      162     6113    2           END;

   6113   1 0000CA  8AC7 0006                            INC      I,AUTO
PL6.E3A0      #001=GIM$BUILD_BOBCAT File=GIM$MONINIT.:E05TSI                     TUE 07/29/97 21:47 Page:25
          1 0000CC  E847 0006                            LDR,R6   I,AUTO
          1 0000CE  E947 0009                            CMR,R6   J,AUTO
          1 0000D0  03E2                                 BLE      s:6109,SPREL

      163     6114
      164     6115    1      NEXT$ = PINCRW(NEXT$,SIZEW(G$DO)*J);

   6115   1 0000D1  ECC7 0004                            LDB,B6   @NEXT$,AUTO
          1 0000D3  DC86                                 LDB,B5   ,B6
          1 0000D4  DFC7 000C                            STB,B5   TV$+2,AUTO
          1 0000D6  F847 0009                            LDR,R7   J,AUTO
          1 0000D8  6C00                                 LDV,R6   0
          1 0000D9  7084                                 DOL,R7   4
          1 0000DA  8447 000C                            AID      TV$+2,AUTO
          1 0000DC  8D06                                 SDI      ,B6

      165     6116    1      NEXT = ( (NEXT+1) /2) * 2;

   6116   1 0000DD  8C86                                 LDI      ,B6
          1 0000DE  8470 0000 0001                       AID      1,IMO
          1 0000E1  70C1                                 DOR,R7   1
          1 0000E2  7081                                 DOL,R7   1
          1 0000E3  8D06                                 SDI      ,B6

      166     6117
      167     6118        /* Now inialize the KN$DCT$ entrys.
      168     6119        */
      169     6120    1      G$BOBCAT.DCT$$ = NEXT$;

   6120   1 0000E4  DC86                                 LDB,B5   ,B6
          1 0000E5  CC80 0000 0000  xsym                 LDB,B4   G$BOBCAT$
          1 0000E8  DFC4 0024                            STB,B5   36,B4

      170     6121    1      KN_DCT$$ = NEXT$;

   6121   1 0000EA  BC86                                 LDB,B3   ,B6
          1 0000EB  BF80 0000 0000  xsym                 STB,B3   KN_DCT$$
PL6.E3A0      #001=GIM$BUILD_BOBCAT File=GIM$MONINIT.:E05TSI                     TUE 07/29/97 21:47 Page:26

      171     6122    1      NEXT$ = PINCRW(NEXT$,(G$BOBCAT.LDCT#+1)*SIZEW(KN$DCT$));

   6122   1 0000EE  B844 0010                            LDR,R3   16,B4
          1 0000F0  AC86                                 LDB,B2   ,B6
          1 0000F1  AFC7 000C                            STB,B2   TV$+2,AUTO
          1 0000F3  F853                                 LDR,R7   R3
          1 0000F4  6C00                                 LDV,R6   0
          1 0000F5  7081                                 DOL,R7   1
          1 0000F6  8447 000C                            AID      TV$+2,AUTO
          1 0000F8  8470 0000 0002                       AID      2,IMO
          1 0000FB  8D06                                 SDI      ,B6

      172     6123    1      G$BOBCAT.LDCT_START$ = NEXT$;

   6123   1 0000FC  DC86                                 LDB,B5   ,B6
          1 0000FD  DFC4 0026                            STB,B5   38,B4

      173     6124    1      G$BOBCAT.LDCTDATA$ = ADDR(KN_LDCT_START$);

   6124   1 0000FF  BB80 0000 0000  xsym                 LAB,B3   KN_LDCT_START$
          1 000102  BFC4 0046                            STB,B3   70,B4

      174     6125    1      KN_LDCT_MAX# = G$BOBCAT.LDCT#;

   6125   1 000104  E844 0010                            LDR,R6   16,B4
          1 000106  EF00 0000 0000  xsym                 STR,R6   KN_LDCT_MAX#

      175     6126    1      KN_LDCT_HEAD$ = NEXT$;

   6126   1 000109  AC86                                 LDB,B2   ,B6
          1 00010A  AF80 0000 0000  xsym                 STB,B2   KN_LDCT_HEAD$

      176     6127    1      KN_LDCT_START$ = NEXT$;

   6127   1 00010D  9C86                                 LDB,B1   ,B6
          1 00010E  9F80 0000 0000  xsym                 STB,B1   KN_LDCT_START$
PL6.E3A0      #001=GIM$BUILD_BOBCAT File=GIM$MONINIT.:E05TSI                     TUE 07/29/97 21:47 Page:27

      177     6128    1      TV$ = ADDR(NEXT$->KN$LDCT.LNK$);

   6128   1 000111  DC86                                 LDB,B5   ,B6
          1 000112  EBC5 0008                            LAB,B6   8,B5
          1 000114  EFC7 000A                            STB,B6   TV$,AUTO

      178     6129    1      KN_LDCT_LNK# = POFFW(TV$,NEXT$);

   6129   1 000116  DCC7 0004                            LDB,B5   @NEXT$,AUTO
          1 000118  8CC7 000A                            LDI      TV$,AUTO
          1 00011A  8485                                 SID      ,B5
          1 00011B  E857                                 LDR,R6   R7
          1 00011C  EF00 0000 0000  xsym                 STR,R6   KN_LDCT_LNK#

      179     6130
      180     6131    1      G$BOBCAT.DCT$$->KN$DCT$(0) = ADDR(NIL);

   6131   1 00011F  ECC4 0024                            LDB,B6   36,B4
          1 000121  DB80 0000 0000                       LAB,B5   0
          1 000124  DF86                                 STB,B5   ,B6

      181     6132
      182     6133    2      DO I = 1 TO G$BOBCAT.LDCT#;

   6133   1 000125  6C01                                 LDV,R6   1
          1 000126  EF47 0006                            STR,R6   I,AUTO
          1 000128  0F81 0027                            B        s:6141+2,PREL

      183     6134    2           G$BOBCAT.DCT$$->KN$DCT$ (I) = ADDR(NIL);

   6134   1 00012A  EC80 0000 0000  xsym                 LDB,B6   G$BOBCAT$
          1 00012D  DCC6 0024                            LDB,B5   36,B6
          1 00012F  CB80 0000 0000                       LAB,B4   0
          1 000132  B847 0006                            LDR,R3   I,AUTO
          1 000134  CFB5                                 STB,B4   ,B5,R3

PL6.E3A0      #001=GIM$BUILD_BOBCAT File=GIM$MONINIT.:E05TSI                     TUE 07/29/97 21:47 Page:28
      184     6135
      185     6136    2           TV$ = NEXT$;

   6136   1 000135  DCC7 0004                            LDB,B5   @NEXT$,AUTO
          1 000137  CC85                                 LDB,B4   ,B5
          1 000138  CFC7 000A                            STB,B4   TV$,AUTO

      186     6137    2           TV$->KN$LDCT = '0'B;

   6137   1 00013A  5C20                                 LDV,R5   32
          1 00013B  0021                                 ALR      ;
          1 00013C       4178 0000                                ALPHANUM('0000'X,IMO,,1),;
          1 00013E       4004 0000                                ALPHANUM(0,B4,,R5,FILL)

      187     6138    2           NEXT$ = PINCRW(NEXT$,SIZEW(KN$LDCT));

   6138   1 000140  437F                                 CSYNC    s:6137+5,SPREL
          1 000141  CC85                                 LDB,B4   ,B5
          1 000142  BBC4 0010                            LAB,B3   16,B4
          1 000144  BF85                                 STB,B3   ,B5

      188     6139    2           TV$->KN$LDCT.LDCTX = I;

   6139   1 000145  CCC7 000A                            LDB,B4   TV$,AUTO
          1 000147  E847 0006                            LDR,R6   I,AUTO
          1 000149  EF44 0007                            STR,R6   7,B4

      189     6140    2           TV$->KN$LDCT.LNK$ = NEXT$;

   6140   1 00014B  BC85                                 LDB,B3   ,B5
          1 00014C  BFC4 0008                            STB,B3   8,B4

      190     6141    2           END;

   6141   1 00014E  8AC7 0006                            INC      I,AUTO
          1 000150  EC80 0000 0000  xsym                 LDB,B6   G$BOBCAT$
          1 000153  E847 0006                            LDR,R6   I,AUTO
PL6.E3A0      #001=GIM$BUILD_BOBCAT File=GIM$MONINIT.:E05TSI                     TUE 07/29/97 21:47 Page:29
          1 000155  E946 0010                            CMR,R6   16,B6
          1 000157  03D3                                 BLE      s:6134,SPREL

      191     6142
      192     6143    1      KN_LDCT_END$ = TV$;

   6143   1 000158  DCC7 000A                            LDB,B5   TV$,AUTO
          1 00015A  DF80 0000 0000  xsym                 STB,B5   KN_LDCT_END$

      193     6144    1      TV$->KN$LDCT.LNK$ = ADDR(NIL);

   6144   1 00015D  CB80 0000 0000                       LAB,B4   0
          1 000160  CFC5 0008                            STB,B4   8,B5

      194     6145
      195     6146        /* Now set up the I/O packet free chain.
      196     6147        */
      197     6148    1      G$BOBCAT.IOP_START$ = NEXT$;

   6148   1 000162  BCC7 0004                            LDB,B3   @NEXT$,AUTO
          1 000164  AC83                                 LDB,B2   ,B3
          1 000165  AFC6 0040                            STB,B2   64,B6

      198     6149    1      G$BOBCAT.IOPDATA$ = ADDR(KN_IOP_START$);

   6149   1 000167  CB80 0000 0000  xsym                 LAB,B4   KN_IOP_START$
          1 00016A  CFC6 0044                            STB,B4   68,B6

      199     6150    1      KN_IOP_MAX# = G$BOBCAT.IOP#;

   6150   1 00016C  D846 000F                            LDR,R5   15,B6
          1 00016E  DF00 0000 0000  xsym                 STR,R5   KN_IOP_MAX#

      200     6151    1      KN_IOP_HEAD$ = NEXT$;

   6151   1 000171  9C83                                 LDB,B1   ,B3
          1 000172  9F80 0000 0000  xsym                 STB,B1   KN_IOP_HEAD$
PL6.E3A0      #001=GIM$BUILD_BOBCAT File=GIM$MONINIT.:E05TSI                     TUE 07/29/97 21:47 Page:30

      201     6152    1      KN_IOP_START$ = NEXT$;

   6152   1 000175  EC83                                 LDB,B6   ,B3
          1 000176  EF80 0000 0000  xsym                 STB,B6   KN_IOP_START$

      202     6153    1      TV$ = ADDR(NEXT$->KN$IOP.LNK$);

   6153   1 000179  CC83                                 LDB,B4   ,B3
          1 00017A  ABC4 000E                            LAB,B2   14,B4
          1 00017C  AFC7 000A                            STB,B2   TV$,AUTO

      203     6154    1      KN_IOP_LNK# = POFFW(TV$,NEXT$);

   6154   1 00017E  8CC7 000A                            LDI      TV$,AUTO
          1 000180  8483                                 SID      ,B3
          1 000181  E857                                 LDR,R6   R7
          1 000182  EF00 0000 0000  xsym                 STR,R6   KN_IOP_LNK#

      204     6155
      205     6156    2      DO I = 1 TO G$BOBCAT.IOP#;

   6156   1 000185  4C01                                 LDV,R4   1
          1 000186  CF47 0006                            STR,R4   I,AUTO
          1 000188  0F81 0017                            B        s:6161+2,PREL

      206     6157    2           I$ = NEXT$;

   6157   1 00018A  ECC7 0004                            LDB,B6   @NEXT$,AUTO
          1 00018C  DC86                                 LDB,B5   ,B6
          1 00018D  DFC7 0007                            STB,B5   I$,AUTO

      207     6158    2           NEXT$ = PINCRW(NEXT$,SIZEW(KN$IOP));

   6158   1 00018F  CBC5 001B                            LAB,B4   27,B5
          1 000191  CF86                                 STB,B4   ,B6

PL6.E3A0      #001=GIM$BUILD_BOBCAT File=GIM$MONINIT.:E05TSI                     TUE 07/29/97 21:47 Page:31
      208     6159    2           I$->KN$IOP = '0'B;

   6159   1 000192  5C36                                 LDV,R5   54
          1 000193  0021                                 ALR      ;
          1 000194       4178 0000                                ALPHANUM('0000'X,IMO,,1),;
          1 000196       4005 0000                                ALPHANUM(0,B5,,R5,FILL)

      209     6160    2           I$->KN$IOP.LNK$ = NEXT$;

   6160   1 000198  437F                                 CSYNC    s:6159+5,SPREL
          1 000199  DC86                                 LDB,B5   ,B6
          1 00019A  CCC7 0007                            LDB,B4   I$,AUTO
          1 00019C  DFC4 000E                            STB,B5   14,B4

      210     6161    2           END;

   6161   1 00019E  8AC7 0006                            INC      I,AUTO
          1 0001A0  EC80 0000 0000  xsym                 LDB,B6   G$BOBCAT$
          1 0001A3  E847 0006                            LDR,R6   I,AUTO
          1 0001A5  E946 000F                            CMR,R6   15,B6
          1 0001A7  03E3                                 BLE      s:6157,SPREL

      211     6162    1      KN_IOP_END$ = I$;

   6162   1 0001A8  DCC7 0007                            LDB,B5   I$,AUTO
          1 0001AA  DF80 0000 0000  xsym                 STB,B5   KN_IOP_END$

      212     6163    1      I$->KN$IOP.LNK$ = ADDR(NIL);

   6163   1 0001AD  CB80 0000 0000                       LAB,B4   0
          1 0001B0  CFC5 000E                            STB,B4   14,B5

      213     6164
      214     6165        /* Now set up the HMI entries.
      215     6166        */
      216     6167    1      G$BOBCAT.HMI$ = NEXT$;

PL6.E3A0      #001=GIM$BUILD_BOBCAT File=GIM$MONINIT.:E05TSI                     TUE 07/29/97 21:47 Page:32
   6167   1 0001B2  BCC7 0004                            LDB,B3   @NEXT$,AUTO
          1 0001B4  AC83                                 LDB,B2   ,B3
          1 0001B5  AFC6 0028                            STB,B2   40,B6

      217     6168    1      KN_HMI$ = G$BOBCAT.HMI$;

   6168   1 0001B7  AF80 0000 0000  xsym                 STB,B2   KN_HMI$

      218     6169    1      KN_HMI# = G$BOBCAT.HMI#;

   6169   1 0001BA  D846 0011                            LDR,R5   17,B6
          1 0001BC  DF00 0000 0000  xsym                 STR,R5   KN_HMI#

      219     6170
      220     6171    2      DO I = 1 TO G$BOBCAT.HMI#;

   6171   1 0001BF  6C01                                 LDV,R6   1
          1 0001C0  EF47 0006                            STR,R6   I,AUTO
          1 0001C2  0F81 0028                            B        s:6179+2,PREL

      221     6172    2           I$ = NEXT$;

   6172   1 0001C4  ECC7 0004                            LDB,B6   @NEXT$,AUTO
          1 0001C6  DC86                                 LDB,B5   ,B6
          1 0001C7  DFC7 0007                            STB,B5   I$,AUTO

      222     6173    2           I$->KNH$HMI = '0'B;

   6173   1 0001C9  5C32                                 LDV,R5   50
          1 0001CA  0021                                 ALR      ;
          1 0001CB       4178 0000                                ALPHANUM('0000'X,IMO,,1),;
          1 0001CD       4005 0000                                ALPHANUM(0,B5,,R5,FILL)

      223     6174    2           NEXT$ = PINCRW(NEXT$,SIZEW(KNH$HMI));

   6174   1 0001CF  437F                                 CSYNC    s:6173+5,SPREL
          1 0001D0  DC86                                 LDB,B5   ,B6
PL6.E3A0      #001=GIM$BUILD_BOBCAT File=GIM$MONINIT.:E05TSI                     TUE 07/29/97 21:47 Page:33
          1 0001D1  CBC5 0019                            LAB,B4   25,B5
          1 0001D3  CF86                                 STB,B4   ,B6

      224     6175    2           I$->KNH$HMI.USER# = 0;

   6175   1 0001D4  DCC7 0007                            LDB,B5   I$,AUTO
          1 0001D6  8745 0014                            CL       20,B5

      225     6176    2           I$->KNH$HMI.SCQ.LOCK = '1'B;

   6176   1 0001D8  5C06                                 LDV,R5   6
          1 0001D9  0021                                 ALR      ;
          1 0001DA       4178 8000                                ALPHANUM('8000'X,IMO,,1),;
          1 0001DC       4005 000B                                ALPHANUM(11,B5,,R5,FILL)

      226     6177    2           I$->KNH$HMI.RCQ.LOCK = '1'B;

   6177   1 0001DE  0021                                 ALR      ;
          1 0001DF       4178 8000                                ALPHANUM('8000'X,IMO,,1),;
          1 0001E1       4005 0004                                ALPHANUM(4,B5,,R5,FILL)

      227     6178    2           I$->KNH$HMI.SCQ.BUSY = '0'B;

   6178   1 0001E3  437F                                 CSYNC    s:6177+4,SPREL
          1 0001E4  DCC7 0007                            LDB,B5   I$,AUTO
          1 0001E6  8845 000E                            LBF,'8000'X       14,B5
          1 0001E8       8000

      228     6179    2           END;

   6179   1 0001E9  8AC7 0006                            INC      I,AUTO
          1 0001EB  EC80 0000 0000  xsym                 LDB,B6   G$BOBCAT$
          1 0001EE  E847 0006                            LDR,R6   I,AUTO
          1 0001F0  E946 0011                            CMR,R6   17,B6
          1 0001F2  03D2                                 BLE      s:6172,SPREL

      229     6180
PL6.E3A0      #001=GIM$BUILD_BOBCAT File=GIM$MONINIT.:E05TSI                     TUE 07/29/97 21:47 Page:34
      230     6181        /* Set up the number of APE Session contexts needed.
      231     6182        */
      232     6183    1      G$BOBCAT.SSN_START$ = NEXT$;

   6183   1 0001F3  CCC7 0004                            LDB,B4   @NEXT$,AUTO
          1 0001F5  BC84                                 LDB,B3   ,B4
          1 0001F6  BFC6 0042                            STB,B3   66,B6

      233     6184    1      G$BOBCAT.SSNDATA$ = ADDR(KN_SSN_START$);

   6184   1 0001F8  AB80 0000 0000  xsym                 LAB,B2   KN_SSN_START$
          1 0001FB  AFC6 0048                            STB,B2   72,B6

      234     6185    1      KN_SSN_MAX# = G$BOBCAT.APESSN#;

   6185   1 0001FD  D846 0012                            LDR,R5   18,B6
          1 0001FF  DF00 0000 0000  xsym                 STR,R5   KN_SSN_MAX#

      235     6186    1      KN_SSN_HEAD$ = NEXT$;

   6186   1 000202  9C84                                 LDB,B1   ,B4
          1 000203  9F80 0000 0000  xsym                 STB,B1   KN_SSN_HEAD$

      236     6187    1      KN_SSN_START$ = NEXT$;

   6187   1 000206  EC84                                 LDB,B6   ,B4
          1 000207  EF80 0000 0000  xsym                 STB,B6   KN_SSN_START$

      237     6188    1      I$ = ADDR(NEXT$->KNA$SSN.LNK$);

   6188   1 00020A  BC84                                 LDB,B3   ,B4
          1 00020B  ABC3 000D                            LAB,B2   13,B3
          1 00020D  AFC7 0007                            STB,B2   I$,AUTO

      238     6189    1      KN_SSN_LNK# = POFFW(I$,NEXT$);

   6189   1 00020F  8CC7 0007                            LDI      I$,AUTO
PL6.E3A0      #001=GIM$BUILD_BOBCAT File=GIM$MONINIT.:E05TSI                     TUE 07/29/97 21:47 Page:35
          1 000211  8484                                 SID      ,B4
          1 000212  E857                                 LDR,R6   R7
          1 000213  EF00 0000 0000  xsym                 STR,R6   KN_SSN_LNK#

      239     6190
      240     6191    2      DO I = 1 TO G$BOBCAT.APESSN#;

   6191   1 000216  4C01                                 LDV,R4   1
          1 000217  CF47 0006                            STR,R4   I,AUTO
          1 000219  0F81 0017                            B        s:6196+2,PREL

      241     6192    2           I$ = NEXT$;

   6192   1 00021B  ECC7 0004                            LDB,B6   @NEXT$,AUTO
          1 00021D  DC86                                 LDB,B5   ,B6
          1 00021E  DFC7 0007                            STB,B5   I$,AUTO

      242     6193    2           NEXT$ = PINCRW(NEXT$,SIZEW(KNA$SSN));

   6193   1 000220  CBC5 0019                            LAB,B4   25,B5
          1 000222  CF86                                 STB,B4   ,B6

      243     6194    2           I$->KNA$SSN = '0'B;

   6194   1 000223  5C32                                 LDV,R5   50
          1 000224  0021                                 ALR      ;
          1 000225       4178 0000                                ALPHANUM('0000'X,IMO,,1),;
          1 000227       4005 0000                                ALPHANUM(0,B5,,R5,FILL)

      244     6195    2           I$->KNA$SSN.LNK$ = NEXT$;

   6195   1 000229  437F                                 CSYNC    s:6194+5,SPREL
          1 00022A  DC86                                 LDB,B5   ,B6
          1 00022B  CCC7 0007                            LDB,B4   I$,AUTO
          1 00022D  DFC4 000D                            STB,B5   13,B4

      245     6196    2           END;
PL6.E3A0      #001=GIM$BUILD_BOBCAT File=GIM$MONINIT.:E05TSI                     TUE 07/29/97 21:47 Page:36

   6196   1 00022F  8AC7 0006                            INC      I,AUTO
          1 000231  EC80 0000 0000  xsym                 LDB,B6   G$BOBCAT$
          1 000234  E847 0006                            LDR,R6   I,AUTO
          1 000236  E946 0012                            CMR,R6   18,B6
          1 000238  03E3                                 BLE      s:6192,SPREL

      246     6197
      247     6198    1      KN_SSN_END$ = I$;

   6198   1 000239  DCC7 0007                            LDB,B5   I$,AUTO
          1 00023B  DF80 0000 0000  xsym                 STB,B5   KN_SSN_END$

      248     6199    1      I$->KNA$SSN.LNK$ = ADDR(NIL);

   6199   1 00023E  CB80 0000 0000                       LAB,B4   0
          1 000241  CFC5 000D                            STB,B4   13,B5

      249     6200
      250     6201        /* Set up shared processor table area.
      251     6202        */
      252     6203    1      NEXT = ( (NEXT+7) /8) * 8;

   6203   1 000243  BCC7 0004                            LDB,B3   @NEXT$,AUTO
          1 000245  8C83                                 LDI      ,B3
          1 000246  8470 0000 0007                       AID      7,IMO
          1 000249  70C3                                 DOR,R7   3
          1 00024A  7083                                 DOL,R7   3
          1 00024B  8D03                                 SDI      ,B3

      253     6204    1      G$BOBCAT.SFILE$ = NEXT$;

   6204   1 00024C  CC83                                 LDB,B4   ,B3
          1 00024D  CFC6 001E                            STB,B4   30,B6

      254     6205    1      GJ_SFILE_START$ = NEXT$;

PL6.E3A0      #001=GIM$BUILD_BOBCAT File=GIM$MONINIT.:E05TSI                     TUE 07/29/97 21:47 Page:37
   6205   1 00024F  AC83                                 LDB,B2   ,B3
          1 000250  AF80 0000 0000  xsym                 STB,B2   GJ_SFILE_START$

      255     6206    1      G$BOBCAT.SFDATA$ = ADDR(GJ_SFILE_START$);

   6206   1 000253  9B80 0000 0000  xsym                 LAB,B1   GJ_SFILE_START$
          1 000256  9FC6 000C                            STB,B1   12,B6

      256     6207    1      GJ_SFILE_MAX# = G$BOBCAT.SFILE#;

   6207   1 000258  E846 000B                            LDR,R6   11,B6
          1 00025A  EF00 0000 0000  xsym                 STR,R6   GJ_SFILE_MAX#

      257     6208
      258     6209    2      DO I=0 TO G$BOBCAT.SFILE#;

   6209   1 00025D  8747 0006                            CL       I,AUTO
          1 00025F  0F81 0010                            B        s:6211+3,PREL

      259     6210    2           G_SFILE(I) = '0'B;

   6210   1 000261  ECC7 0004                            LDB,B6   @NEXT$,AUTO
          1 000263  DC86                                 LDB,B5   ,B6
          1 000264  B847 0006                            LDR,R3   I,AUTO
          1 000266  3F60                                 MLV,R3   96
          1 000267  5C60                                 LDV,R5   96
          1 000268  0021                                 ALR      ;
          1 000269       4178 0000                                ALPHANUM('0000'X,IMO,,1),;
          1 00026B       4035 0000                                ALPHANUM(0,B5,R3,,R5,FILL)

      260     6211    2           END;

   6211   1 00026D  437F                                 CSYNC    s:6210+11,SPREL
          1 00026E  8AC7 0006                            INC      I,AUTO
          1 000270  EC80 0000 0000  xsym                 LDB,B6   G$BOBCAT$
          1 000273  E847 0006                            LDR,R6   I,AUTO
          1 000275  E946 000B                            CMR,R6   11,B6
PL6.E3A0      #001=GIM$BUILD_BOBCAT File=GIM$MONINIT.:E05TSI                     TUE 07/29/97 21:47 Page:38
          1 000277  03EA                                 BLE      s:6210,SPREL

      261     6212
      262     6213    1      NEXT$ = PINCRW(NEXT$,SIZEW(G$SFILE)*(G$BOBCAT.SFILE#+1));

   6213   1 000278  B846 000B                            LDR,R3   11,B6
          1 00027A  DCC7 0004                            LDB,B5   @NEXT$,AUTO
          1 00027C  CC85                                 LDB,B4   ,B5
          1 00027D  CFC7 000C                            STB,B4   TV$+2,AUTO
          1 00027F  F853                                 LDR,R7   R3
          1 000280  6C00                                 LDV,R6   0
          1 000281  9B80 0000 0002  02                   LAB,B1   +2
          1 000284  D380 0000 0000  xent                 LNJ,B5   X6D_MID
          1 000287  8447 000C                            AID      TV$+2,AUTO
          1 000289  8470 0000 0030                       AID      48,IMO
          1 00028C  ECC7 0004                            LDB,B6   @NEXT$,AUTO
          1 00028E  8D06                                 SDI      ,B6

      263     6214
      264     6215        /* Set up the account resource table area.
      265     6216        */
      266     6217    1      NEXT = ( (NEXT+1) /2) * 2;

   6217   1 00028F  8C86                                 LDI      ,B6
          1 000290  8470 0000 0001                       AID      1,IMO
          1 000293  70C1                                 DOR,R7   1
          1 000294  7081                                 DOL,R7   1
          1 000295  8D06                                 SDI      ,B6

      267     6218    1      G$BOBCAT.ACCT_RES$ = NEXT$;

   6218   1 000296  DC86                                 LDB,B5   ,B6
          1 000297  CC80 0000 0000  xsym                 LDB,B4   G$BOBCAT$
          1 00029A  DFC4 0020                            STB,B5   32,B4

      268     6219    2      DO I=0 TO G$BOBCAT.ACCT_RES#;

PL6.E3A0      #001=GIM$BUILD_BOBCAT File=GIM$MONINIT.:E05TSI                     TUE 07/29/97 21:47 Page:39
   6219   1 00029C  8747 0006                            CL       I,AUTO
          1 00029E  0F81 0010                            B        s:6221+3,PREL

      269     6220    2           GFR_ACCT(I) = '0'B;

   6220   1 0002A0  ECC7 0004                            LDB,B6   @NEXT$,AUTO
          1 0002A2  DC86                                 LDB,B5   ,B6
          1 0002A3  B847 0006                            LDR,R3   I,AUTO
          1 0002A5  3F1C                                 MLV,R3   28
          1 0002A6  5C1C                                 LDV,R5   28
          1 0002A7  0021                                 ALR      ;
          1 0002A8       4178 0000                                ALPHANUM('0000'X,IMO,,1),;
          1 0002AA       4035 0000                                ALPHANUM(0,B5,R3,,R5,FILL)

      270     6221    2           END;

   6221   1 0002AC  437F                                 CSYNC    s:6220+11,SPREL
          1 0002AD  8AC7 0006                            INC      I,AUTO
          1 0002AF  DC80 0000 0000  xsym                 LDB,B5   G$BOBCAT$
          1 0002B2  E847 0006                            LDR,R6   I,AUTO
          1 0002B4  E945 000E                            CMR,R6   14,B5
          1 0002B6  03EA                                 BLE      s:6220,SPREL

      271     6222
      272     6223    1      GFR_ACCT.UNAME(1) = ' ';

   6223   1 0002B7  CC86                                 LDB,B4   ,B6
          1 0002B8  0021                                 ALR      ;
          1 0002B9       4178 2000                                ALPHANUM('2000'X,IMO,,1),;
          1 0002BB       4C04 000E                                ALPHANUM(14,B4,,12,FILL)

      273     6224    1      GFR_ACCT.ACCN(1) = ':SYS    ';

   6224   1 0002BD  437F                                 CSYNC    s:6223+5,SPREL
          1 0002BE  CC86                                 LDB,B4   ,B6
          1 0002BF  AB80 0000 0000  00                   LAB,B2   0
          1 0002C2  2C00                                 LDV,R2   0
PL6.E3A0      #001=GIM$BUILD_BOBCAT File=GIM$MONINIT.:E05TSI                     TUE 07/29/97 21:47 Page:40
          1 0002C3  6C08                                 LDV,R6   8
          1 0002C4  BB84                                 LAB,B3   ,B4
          1 0002C5  3C28                                 LDV,R3   40
          1 0002C6  0008                                 MMM

      274     6225    1      GFR_ACCT.MAX_MEM(1) = 65535;

   6225   1 0002C7  AC86                                 LDB,B2   ,B6
          1 0002C8  8942 0018                            LBT,'FFFF'X       24,B2
          1 0002CA       FFFF

      275     6226    1      GFR_ACCT.MAX_FPRGS(1) = 65535;

   6226   1 0002CB  AC86                                 LDB,B2   ,B6
          1 0002CC  8942 001A                            LBT,'FFFF'X       26,B2
          1 0002CE       FFFF

      276     6227
      277     6228    1      NEXT$ = PINCRW(NEXT$,SIZEW(GFR$ACCT)*(G$BOBCAT.ACCT_RES#+1));

   6228   1 0002CF  B845 000E                            LDR,R3   14,B5
          1 0002D1  AC86                                 LDB,B2   ,B6
          1 0002D2  AFC7 000C                            STB,B2   TV$+2,AUTO
          1 0002D4  F853                                 LDR,R7   R3
          1 0002D5  6C00                                 LDV,R6   0
          1 0002D6  9B80 0000 0004  02                   LAB,B1   +4
          1 0002D9  D380 0000 0000  xent                 LNJ,B5   X6D_MID
          1 0002DC  8447 000C                            AID      TV$+2,AUTO
          1 0002DE  8470 0000 000E                       AID      14,IMO
          1 0002E1  ECC7 0004                            LDB,B6   @NEXT$,AUTO
          1 0002E3  8D06                                 SDI      ,B6

      278     6229
      279     6230        /* Set up the transport context.
      280     6231        */
      281     6232    1      G$BOBCAT.TCTX$$ = NEXT$;

PL6.E3A0      #001=GIM$BUILD_BOBCAT File=GIM$MONINIT.:E05TSI                     TUE 07/29/97 21:47 Page:41
   6232   1 0002E4  DC86                                 LDB,B5   ,B6
          1 0002E5  CC80 0000 0000  xsym                 LDB,B4   G$BOBCAT$
          1 0002E8  DFC4 002E                            STB,B5   46,B4

      282     6233    1      KN_TCTX$$ = NEXT$;

   6233   1 0002EA  BC86                                 LDB,B3   ,B6
          1 0002EB  BF80 0000 0000  xsym                 STB,B3   KN_TCTX$$

      283     6234    1      NEXT$ = PINCRW(NEXT$,(G$BOBCAT.TCTX#+1)*SIZEW(K$TCTX$));

   6234   1 0002EE  B844 0013                            LDR,R3   19,B4
          1 0002F0  AC86                                 LDB,B2   ,B6
          1 0002F1  AFC7 000C                            STB,B2   TV$+2,AUTO
          1 0002F3  F853                                 LDR,R7   R3
          1 0002F4  6C00                                 LDV,R6   0
          1 0002F5  7081                                 DOL,R7   1
          1 0002F6  8447 000C                            AID      TV$+2,AUTO
          1 0002F8  8470 0000 0002                       AID      2,IMO
          1 0002FB  8D06                                 SDI      ,B6

      284     6235    1      NEXT = ( (NEXT+7) /8) * 8;

   6235   1 0002FC  8C86                                 LDI      ,B6
          1 0002FD  8470 0000 0007                       AID      7,IMO
          1 000300  70C3                                 DOR,R7   3
          1 000301  7083                                 DOL,R7   3
          1 000302  8D06                                 SDI      ,B6

      285     6236
      286     6237    1      G$BOBCAT.TCTX$ = NEXT$;

   6237   1 000303  DC86                                 LDB,B5   ,B6
          1 000304  DFC4 002C                            STB,B5   44,B4

      287     6238    1      G$BOBCAT.TCTXDATA$ = ADDR(KN_TCTX_START$);

PL6.E3A0      #001=GIM$BUILD_BOBCAT File=GIM$MONINIT.:E05TSI                     TUE 07/29/97 21:47 Page:42
   6238   1 000306  BB80 0000 0000  xsym                 LAB,B3   KN_TCTX_START$
          1 000309  BFC4 003E                            STB,B3   62,B4

      288     6239    1      KN_TCTX_MAX# = G$BOBCAT.TCTX#;

   6239   1 00030B  E844 0013                            LDR,R6   19,B4
          1 00030D  EF00 0000 0000  xsym                 STR,R6   KN_TCTX_MAX#

      289     6240    1      KN_TCTX_HEAD$ = NEXT$;

   6240   1 000310  AC86                                 LDB,B2   ,B6
          1 000311  AF80 0000 0000  xsym                 STB,B2   KN_TCTX_HEAD$

      290     6241    1      KN_TCTX_START$ = NEXT$;

   6241   1 000314  9C86                                 LDB,B1   ,B6
          1 000315  9F80 0000 0000  xsym                 STB,B1   KN_TCTX_START$

      291     6242    1      TV$ = ADDR(NEXT$->K$TCTX.LNK$);

   6242   1 000318  DC86                                 LDB,B5   ,B6
          1 000319  EBC5 0006                            LAB,B6   6,B5
          1 00031B  EFC7 000A                            STB,B6   TV$,AUTO

      292     6243    1      KN_TCTX_LNK# = POFFW(TV$,NEXT$);

   6243   1 00031D  DCC7 0004                            LDB,B5   @NEXT$,AUTO
          1 00031F  8CC7 000A                            LDI      TV$,AUTO
          1 000321  8485                                 SID      ,B5
          1 000322  E857                                 LDR,R6   R7
          1 000323  EF00 0000 0000  xsym                 STR,R6   KN_TCTX_LNK#

      293     6244
      294     6245    1      G$BOBCAT.TCTX$$->KN$DCT$(0) = ADDR(NIL);

   6245   1 000326  ECC4 002E                            LDB,B6   46,B4
          1 000328  DB80 0000 0000                       LAB,B5   0
PL6.E3A0      #001=GIM$BUILD_BOBCAT File=GIM$MONINIT.:E05TSI                     TUE 07/29/97 21:47 Page:43
          1 00032B  DF86                                 STB,B5   ,B6

      295     6246
      296     6247    1      J = ( (SIZEW(K$TCTX)+1)/2 ) *2;

   6247   1 00032C  E870 00B0                            LDR,R6   176,IMO
          1 00032E  EF47 0009                            STR,R6   J,AUTO

      297     6248
      298     6249    2      DO I = 1 TO G$BOBCAT.TCTX#;

   6249   1 000330  5C01                                 LDV,R5   1
          1 000331  DF47 0006                            STR,R5   I,AUTO
          1 000333  0F81 0033                            B        s:6257+2,PREL

      299     6250    2           G$BOBCAT.TCTX$$->KN$DCT$ (I) = ADDR(NIL);

   6250   1 000335  EC80 0000 0000  xsym                 LDB,B6   G$BOBCAT$
          1 000338  DCC6 002E                            LDB,B5   46,B6
          1 00033A  CB80 0000 0000                       LAB,B4   0
          1 00033D  B847 0006                            LDR,R3   I,AUTO
          1 00033F  CFB5                                 STB,B4   ,B5,R3

      300     6251
      301     6252    2           TV$ = NEXT$;

   6252   1 000340  DCC7 0004                            LDB,B5   @NEXT$,AUTO
          1 000342  CC85                                 LDB,B4   ,B5
          1 000343  CFC7 000A                            STB,B4   TV$,AUTO

      302     6253    2           TV$->K$TCTX = '0'B;

   6253   1 000345  AB80 0000 0000  02                   LAB,B2   0
          1 000348  2C00                                 LDV,R2   0
          1 000349  6C01                                 LDV,R6   1
          1 00034A  BB84                                 LAB,B3   ,B4
          1 00034B  3C00                                 LDV,R3   0
PL6.E3A0      #001=GIM$BUILD_BOBCAT File=GIM$MONINIT.:E05TSI                     TUE 07/29/97 21:47 Page:44
          1 00034C  F870 0160                            LDR,R7   352,IMO
          1 00034E  D380 0000 0000  xent                 LNJ,B5   X6C_ALRZ

      303     6254    2           NEXT$ = PINCRW(NEXT$,J);

   6254   1 000351  ECC7 0004                            LDB,B6   @NEXT$,AUTO
          1 000353  DC86                                 LDB,B5   ,B6
          1 000354  DFC7 000C                            STB,B5   TV$+2,AUTO
          1 000356  F847 0009                            LDR,R7   J,AUTO
          1 000358  6C00                                 LDV,R6   0
          1 000359  8447 000C                            AID      TV$+2,AUTO
          1 00035B  8D06                                 SDI      ,B6

      304     6255    2           TV$->K$TCTX.SRC_REF = I;

   6255   1 00035C  DCC7 000A                            LDB,B5   TV$,AUTO
          1 00035E  D847 0006                            LDR,R5   I,AUTO
          1 000360  DF45 0002                            STR,R5   2,B5

      305     6256    2           TV$->K$TCTX.LNK$ = NEXT$;

   6256   1 000362  CC86                                 LDB,B4   ,B6
          1 000363  CFC5 0006                            STB,B4   6,B5

      306     6257    2           END;

   6257   1 000365  8AC7 0006                            INC      I,AUTO
          1 000367  EC80 0000 0000  xsym                 LDB,B6   G$BOBCAT$
          1 00036A  E847 0006                            LDR,R6   I,AUTO
          1 00036C  E946 0013                            CMR,R6   19,B6
          1 00036E  03C7                                 BLE      s:6250,SPREL

      307     6258
      308     6259    1      KN_TCTX_END$ = TV$;

   6259   1 00036F  DCC7 000A                            LDB,B5   TV$,AUTO
          1 000371  DF80 0000 0000  xsym                 STB,B5   KN_TCTX_END$
PL6.E3A0      #001=GIM$BUILD_BOBCAT File=GIM$MONINIT.:E05TSI                     TUE 07/29/97 21:47 Page:45

      309     6260    1      TV$->K$TCTX.LNK$ = ADDR(NIL);

   6260   1 000374  CB80 0000 0000                       LAB,B4   0
          1 000377  CFC5 0006                            STB,B4   6,B5

      310     6261
      311     6262
      312     6263        /* Set up the network route tables.
      313     6264        */
      314     6265    1      TV$ = NEXT$;

   6265   1 000379  BCC7 0004                            LDB,B3   @NEXT$,AUTO
          1 00037B  AC83                                 LDB,B2   ,B3
          1 00037C  AFC7 000A                            STB,B2   TV$,AUTO

      315     6266    1      G$BOBCAT.ROUTE$$ = TV$;

   6266   1 00037E  AFC6 0030                            STB,B2   48,B6

      316     6267    1      KNN_ROUTE$$ = G$BOBCAT.ROUTE$$;

   6267   1 000380  AF80 0000 0000  xsym                 STB,B2   KNN_ROUTE$$

      317     6268    1      NEXT$ = PINCRW(NEXT$,(G$BOBCAT.NODES+1)*2);

   6268   1 000383  B846 0015                            LDR,R3   21,B6
          1 000385  CC83                                 LDB,B4   ,B3
          1 000386  CFC7 000C                            STB,B4   TV$+2,AUTO
          1 000388  F853                                 LDR,R7   R3
          1 000389  6C00                                 LDV,R6   0
          1 00038A  7081                                 DOL,R7   1
          1 00038B  8447 000C                            AID      TV$+2,AUTO
          1 00038D  8470 0000 0002                       AID      2,IMO
          1 000390  8D03                                 SDI      ,B3

      318     6269    1      G$BOBCAT.ROUTE_START$ = NEXT$;
PL6.E3A0      #001=GIM$BUILD_BOBCAT File=GIM$MONINIT.:E05TSI                     TUE 07/29/97 21:47 Page:46

   6269   1 000391  DC83                                 LDB,B5   ,B3
          1 000392  DFC6 0022                            STB,B5   34,B6

      319     6270
      320     6271    2      DO I = 0 TO G$BOBCAT.NODES;

   6271   1 000394  8747 0006                            CL       I,AUTO
          1 000396  0F81 004F                            B        s:6282+2,PREL

      321     6272    2           TV$->B$PTRS(I) = NEXT$;

   6272   1 000398  ECC7 0004                            LDB,B6   @NEXT$,AUTO
          1 00039A  DC86                                 LDB,B5   ,B6
          1 00039B  CCC7 000A                            LDB,B4   TV$,AUTO
          1 00039D  B847 0006                            LDR,R3   I,AUTO
          1 00039F  DFB4                                 STB,B5   ,B4,R3

      322     6273    2           NEXT$->KNN$ROUTE = '0'B;

   6273   1 0003A0  BC86                                 LDB,B3   ,B6
          1 0003A1  5C1A                                 LDV,R5   26
          1 0003A2  0021                                 ALR      ;
          1 0003A3       4178 0000                                ALPHANUM('0000'X,IMO,,1),;
          1 0003A5       4003 0000                                ALPHANUM(0,B3,,R5,FILL)

      323     6274    3           DO J = 0 TO G$BOBCAT.LINKS-1;

   6274   1 0003A7  437F                                 CSYNC    s:6273+6,SPREL
          1 0003A8  8747 0009                            CL       J,AUTO
          1 0003AA  0F81 001C                            B        s:6279+2,PREL

      324     6275    3                NEXT$->KNN$ROUTE.LINK(J) = '0'B;

   6275   1 0003AC  ECC7 0004                            LDB,B6   @NEXT$,AUTO
          1 0003AE  DC86                                 LDB,B5   ,B6
          1 0003AF  B847 0009                            LDR,R3   J,AUTO
PL6.E3A0      #001=GIM$BUILD_BOBCAT File=GIM$MONINIT.:E05TSI                     TUE 07/29/97 21:47 Page:47
          1 0003B1  3F0A                                 MLV,R3   10
          1 0003B2  5C0A                                 LDV,R5   10
          1 0003B3  0021                                 ALR      ;
          1 0003B4       4178 0000                                ALPHANUM('0000'X,IMO,,1),;
          1 0003B6       4035 0008                                ALPHANUM(8,B5,R3,,R5,FILL)

      325     6276    3                NEXT$->KNN$ROUTE.LINK# = -1;

   6276   1 0003B8  437F                                 CSYNC    s:6275+11,SPREL
          1 0003B9  DC86                                 LDB,B5   ,B6
          1 0003BA  8945 0004                            LBT,'FFFF'X       4,B5
          1 0003BC       FFFF

      326     6277    3                NEXT$->KNN$ROUTE.CURRENT_QOS = 255;

   6277   1 0003BD  DC86                                 LDB,B5   ,B6
          1 0003BE  E870 00FF                            LDR,R6   255,IMO
          1 0003C0  EF45 0005                            STR,R6   5,B5

      327     6278    3                NEXT$->KNN$ROUTE.ALT_QOS = 255;

   6278   1 0003C2  DC86                                 LDB,B5   ,B6
          1 0003C3  EF45 0006                            STR,R6   6,B5

      328     6279    3                END/*do j=o to .links*/;

   6279   1 0003C5  8AC7 0009                            INC      J,AUTO
          1 0003C7  DC80 0000 0000  xsym                 LDB,B5   G$BOBCAT$
          1 0003CA  E847 0009                            LDR,R6   J,AUTO
          1 0003CC  E945 0016                            CMR,R6   22,B5
          1 0003CE  025E                                 BL       s:6275,SPREL

      329     6280
      330     6281    2          NEXT$ = PINCRW(NEXT$,SIZEW(KNN$ROUTE)+G$BOBCAT.LINKS*SIZEW(KNN$ROUTE.LINK));

   6281   1 0003CF  B845 0016                            LDR,R3   22,B5
          1 0003D1  CC86                                 LDB,B4   ,B6
PL6.E3A0      #001=GIM$BUILD_BOBCAT File=GIM$MONINIT.:E05TSI                     TUE 07/29/97 21:47 Page:48
          1 0003D2  CFC7 000C                            STB,B4   TV$+2,AUTO
          1 0003D4  F853                                 LDR,R7   R3
          1 0003D5  6C00                                 LDV,R6   0
          1 0003D6  9B80 0000 0006  02                   LAB,B1   +6
          1 0003D9  D380 0000 0000  xent                 LNJ,B5   X6D_MID
          1 0003DC  8447 000C                            AID      TV$+2,AUTO
          1 0003DE  8470 0000 000D                       AID      13,IMO
          1 0003E1  ECC7 0004                            LDB,B6   @NEXT$,AUTO
          1 0003E3  8D06                                 SDI      ,B6

      331     6282    2           END/*do i=0 to .nodes*/;

   6282   1 0003E4  8AC7 0006                            INC      I,AUTO
          1 0003E6  EC80 0000 0000  xsym                 LDB,B6   G$BOBCAT$
          1 0003E9  E847 0006                            LDR,R6   I,AUTO
          1 0003EB  E946 0015                            CMR,R6   21,B6
          1 0003ED  0381 FFAA                            BLE      s:6272,PREL

      332     6283
      333     6284        /* Set up the network link tables.
      334     6285        */
      335     6286    1      TV$ = NEXT$;

   6286   1 0003EF  DCC7 0004                            LDB,B5   @NEXT$,AUTO
          1 0003F1  CC85                                 LDB,B4   ,B5
          1 0003F2  CFC7 000A                            STB,B4   TV$,AUTO

      336     6287    1      G$BOBCAT.LINK$$ = TV$;

   6287   1 0003F4  CFC6 0032                            STB,B4   50,B6

      337     6288    1      KNN_LINK$$ = G$BOBCAT.LINK$$;

   6288   1 0003F6  CF80 0000 0000  xsym                 STB,B4   KNN_LINK$$

      338     6289    1      NEXT$ = PINCRW(NEXT$,(G$BOBCAT.LINKS)*2);

PL6.E3A0      #001=GIM$BUILD_BOBCAT File=GIM$MONINIT.:E05TSI                     TUE 07/29/97 21:47 Page:49
   6289   1 0003F9  B846 0016                            LDR,R3   22,B6
          1 0003FB  BC85                                 LDB,B3   ,B5
          1 0003FC  BFC7 000C                            STB,B3   TV$+2,AUTO
          1 0003FE  F853                                 LDR,R7   R3
          1 0003FF  6C00                                 LDV,R6   0
          1 000400  7081                                 DOL,R7   1
          1 000401  8447 000C                            AID      TV$+2,AUTO
          1 000403  8D05                                 SDI      ,B5

      339     6290    1      G$BOBCAT.LINK_START$ = NEXT$;

   6290   1 000404  BC85                                 LDB,B3   ,B5
          1 000405  BFC6 002A                            STB,B3   42,B6

      340     6291
      341     6292    2      DO I = 0 TO G$BOBCAT.LINKS-1;

   6292   1 000407  8747 0006                            CL       I,AUTO
          1 000409  0F81 0017                            B        s:6296+2,PREL

      342     6293    2           TV$->B$PTRS(I) = NEXT$;

   6293   1 00040B  ECC7 0004                            LDB,B6   @NEXT$,AUTO
          1 00040D  DC86                                 LDB,B5   ,B6
          1 00040E  CCC7 000A                            LDB,B4   TV$,AUTO
          1 000410  B847 0006                            LDR,R3   I,AUTO
          1 000412  DFB4                                 STB,B5   ,B4,R3

      343     6294    2           NEXT$->KNN$LINK = '0'B;

   6294   1 000413  BC86                                 LDB,B3   ,B6
          1 000414  5C4C                                 LDV,R5   76
          1 000415  0021                                 ALR      ;
          1 000416       4178 0000                                ALPHANUM('0000'X,IMO,,1),;
          1 000418       4003 0000                                ALPHANUM(0,B3,,R5,FILL)

      344     6295    2           NEXT$ = PINCRW(NEXT$,SIZEW(KNN$LINK));
PL6.E3A0      #001=GIM$BUILD_BOBCAT File=GIM$MONINIT.:E05TSI                     TUE 07/29/97 21:47 Page:50

   6295   1 00041A  437F                                 CSYNC    s:6294+6,SPREL
          1 00041B  DC86                                 LDB,B5   ,B6
          1 00041C  CBC5 0026                            LAB,B4   38,B5
          1 00041E  CF86                                 STB,B4   ,B6

      345     6296    2           END;

   6296   1 00041F  8AC7 0006                            INC      I,AUTO
          1 000421  EC80 0000 0000  xsym                 LDB,B6   G$BOBCAT$
          1 000424  E847 0006                            LDR,R6   I,AUTO
          1 000426  E946 0016                            CMR,R6   22,B6
          1 000428  0263                                 BL       s:6293,SPREL

      346     6297
      347     6298    1      TV$ = NEXT$;

   6298   1 000429  DCC7 0004                            LDB,B5   @NEXT$,AUTO
          1 00042B  CC85                                 LDB,B4   ,B5
          1 00042C  CFC7 000A                            STB,B4   TV$,AUTO

      348     6299    1      G$BOBCAT.OSIROUTE$ = TV$;

   6299   1 00042E  CFC6 0065                            STB,B4   101,B6

      349     6300    1      KNN_OSIROUTE$$ = NEXT$;

   6300   1 000430  BC85                                 LDB,B3   ,B5
          1 000431  BF80 0000 0000  xsym                 STB,B3   KNN_OSIROUTE$$

      350     6301    1      NEXT$ = PINCRW(NEXT$,(G$BOBCAT.OSIROUTE#+1)*2);

   6301   1 000434  B846 0062                            LDR,R3   98,B6
          1 000436  AC85                                 LDB,B2   ,B5
          1 000437  AFC7 000C                            STB,B2   TV$+2,AUTO
          1 000439  F853                                 LDR,R7   R3
          1 00043A  6C00                                 LDV,R6   0
PL6.E3A0      #001=GIM$BUILD_BOBCAT File=GIM$MONINIT.:E05TSI                     TUE 07/29/97 21:47 Page:51
          1 00043B  7081                                 DOL,R7   1
          1 00043C  8447 000C                            AID      TV$+2,AUTO
          1 00043E  8470 0000 0002                       AID      2,IMO
          1 000441  8D05                                 SDI      ,B5

      351     6302    1      G$BOBCAT.OSIROUTE_START$ = NEXT$;

   6302   1 000442  BC85                                 LDB,B3   ,B5
          1 000443  BFC6 0063                            STB,B3   99,B6

      352     6303    2      DO I = 0 TO G$BOBCAT.OSIROUTE#;

   6303   1 000445  8747 0006                            CL       I,AUTO
          1 000447  0F81 0044                            B        s:6311+2,PREL

      353     6304    2           TV$->B$PTRS(I) = NEXT$;

   6304   1 000449  ECC7 0004                            LDB,B6   @NEXT$,AUTO
          1 00044B  DC86                                 LDB,B5   ,B6
          1 00044C  CCC7 000A                            LDB,B4   TV$,AUTO
          1 00044E  B847 0006                            LDR,R3   I,AUTO
          1 000450  DFB4                                 STB,B5   ,B4,R3

      354     6305    2           NEXT$->OSIROUTE = '0'B;

   6305   1 000451  BC86                                 LDB,B3   ,B6
          1 000452  5C44                                 LDV,R5   68
          1 000453  0021                                 ALR      ;
          1 000454       4178 0000                                ALPHANUM('0000'X,IMO,,1),;
          1 000456       4003 0000                                ALPHANUM(0,B3,,R5,FILL)

      355     6306    3           DO J = 0 TO G$BOBCAT.LINKS-1;

   6306   1 000458  437F                                 CSYNC    s:6305+6,SPREL
          1 000459  8747 0009                            CL       J,AUTO
          1 00045B  0F81 0018                            B        s:6309+2,PREL

PL6.E3A0      #001=GIM$BUILD_BOBCAT File=GIM$MONINIT.:E05TSI                     TUE 07/29/97 21:47 Page:52
      356     6307    3                NEXT$->OSIROUTE.LINK(J) = '0'B;

   6307   1 00045D  ECC7 0004                            LDB,B6   @NEXT$,AUTO
          1 00045F  DC86                                 LDB,B5   ,B6
          1 000460  B847 0009                            LDR,R3   J,AUTO
          1 000462  3F0F                                 MLV,R3   15
          1 000463  5C0F                                 LDV,R5   15
          1 000464  0021                                 ALR      ;
          1 000465       4178 0000                                ALPHANUM('0000'X,IMO,,1),;
          1 000467       C035 001A                                ALPHANUM(26,B5,R3,1,R5,FILL)

      357     6308    3                NEXT$->OSIROUTE.LINK.QOS(J) = 255;

   6308   1 000469  437F                                 CSYNC    s:6307+11,SPREL
          1 00046A  DC86                                 LDB,B5   ,B6
          1 00046B  E870 00FF                            LDR,R6   255,IMO
          1 00046D  B847 0009                            LDR,R3   J,AUTO
          1 00046F  3F0F                                 MLV,R3   15
          1 000470  3E38                                 ADV,R3   56
          1 000471  E7B5                                 STH,R6   ,B5,R3

      358     6309    3                END;

   6309   1 000472  8AC7 0009                            INC      J,AUTO
          1 000474  DC80 0000 0000  xsym                 LDB,B5   G$BOBCAT$
          1 000477  E847 0009                            LDR,R6   J,AUTO
          1 000479  E945 0016                            CMR,R6   22,B5
          1 00047B  0262                                 BL       s:6307,SPREL

      359     6310    2          NEXT$ = PINCRW(NEXT$,SIZEW(OSIROUTE)+(G$BOBCAT.LINKS*SIZEW(OSIROUTE.LINK(0))
              6310                    -SIZEW(OSIROUTE.LINK(0))));

   6310   1 00047C  B845 0016                            LDR,R3   22,B5
          1 00047E  CC86                                 LDB,B4   ,B6
          1 00047F  CFC7 000C                            STB,B4   TV$+2,AUTO
          1 000481  F853                                 LDR,R7   R3
          1 000482  6C00                                 LDV,R6   0
PL6.E3A0      #001=GIM$BUILD_BOBCAT File=GIM$MONINIT.:E05TSI                     TUE 07/29/97 21:47 Page:53
          1 000483  7083                                 DOL,R7   3
          1 000484  8447 000C                            AID      TV$+2,AUTO
          1 000486  8470 0000 001A                       AID      26,IMO
          1 000489  8D06                                 SDI      ,B6

      360     6311    2           END;

   6311   1 00048A  8AC7 0006                            INC      I,AUTO
          1 00048C  EC80 0000 0000  xsym                 LDB,B6   G$BOBCAT$
          1 00048F  E847 0006                            LDR,R6   I,AUTO
          1 000491  E946 0062                            CMR,R6   98,B6
          1 000493  0381 FFB5                            BLE      s:6304,PREL

      361     6312    1      RETURN;

   6312   1 000495  C380 0000 0000  xent                 LNJ,B4   X6A_ARET
      362     6313    1   END GIM$BUILD_BOBCAT;
      363     6314        %EOD;

PL6.E3A0      #001=GIM$BUILD_BOBCAT File=GIM$MONINIT.:E05TSI                     TUE 07/29/97 21:47 Page:54
--  Include file information  --

   KNN_NETWORK_M.:E05TOU  is referenced.
   KNH_MACRO_C.:E05TOU  is referenced.
   KNA_MACRO_M.:E05TOU  is referenced.
   KN_DATA_M.:E05TOU  is referenced.
   K_ADDRESS_M.:E05TOU  is referenced.
   GFR_DATA_M.:E05TOU  is referenced.
   G_SFILE_M.:E05TOU  is referenced.
   GH_SCHD_E.:E05TOU  is referenced.
   GH_SCHD_M.:E05TOU  is referenced.
   GM_MACRO_M.:E05TOU  is referenced.
   G$BOBCAT_M.:E05TOU  is referenced.
   G_LCP6_E.:E05TOU  was found in the system file and is never referenced.
   GT_LCP6_M.:E05TOU  was found in the system file and is never referenced.
   KI_CP6.:E05TOU  was found in the system file and is never referenced.
   GF_LCP6_M.:E05TOU  was found in the system file and is never referenced.
   GM_LCP6_M.:E05TOU  was found in the system file and is never referenced.
   GU_LCP6_M.:E05TOU  was found in the system file and is referenced.
   GJ_LCP6_M.:E05TOU  was found in the system file and is never referenced.
   GH_LCP6_M.:E05TOU  was found in the system file and is referenced.
      No diagnostics issued in procedure GIM$BUILD_BOBCAT.
PL6.E3A0      #001=GIM$BUILD_BOBCAT File=GIM$MONINIT.:E05TSI                     TUE 07/29/97 21:47 Page:55

 **** Variables and constants ****

  ****  Auto variables  ****

  ****  Scalars and arrays  ****
HexLoc.c.b A Datatyp(siz) R M Lvl/name                 HexLoc.c.b A Datatyp(siz) R M Lvl/name

     4-0-0/w PTR         r     1 @NEXT$                     6-0-0/w UBIN(16)    r     1 I
     7-0-0/w PTR         r     1 I$                         9-0-0/w UBIN(16)    r     1 J
    *0-0-0/w UBIN(32)    r     1 NEXT                      *0-0-0/w PTR         r     1 NEXT$
     A-0-0/w PTR         r     1 TV$

  ****  SYMREF variables  ****

  ****  Scalars and arrays  ****
HexLoc.c.b A Datatyp(siz) R M Lvl/name                 HexLoc.c.b A Datatyp(siz) R M Lvl/name

     0-0-0/w PTR         r     1 G$BOBCAT$                  0-0-0/w PTR         r     1 G$USRT$
     0-0-0/w UBIN(16)    r     1 GH_HQ(0:0)                 0-0-0/w UBIN(16)    r     1 GH_TQ(0:0)
     0-0-0/w UBIN(16)    r     1 GJ_SFILE_MAX#              0-0-0/w PTR         r     1 GJ_SFILE_START$
     0-0-0/w PTR         r     1 G_DL$                      0-0-0/w UBIN(16)    r     1 G_MUAIS
     0-0-0/w PTR         r     1 KNN_LINK$$                 0-0-0/w PTR         r     1 KNN_OSIROUTE$$
     0-0-0/w PTR         r     1 KNN_ROUTE$$                0-0-0/w PTR         r     1 KN_DCT$$
     0-0-0/w UBIN(16)    r     1 KN_HMI#                    0-0-0/w PTR         r     1 KN_HMI$
     0-0-0/w PTR         r     1 KN_IOP_END$                0-0-0/w PTR         r     1 KN_IOP_HEAD$
     0-0-0/w UBIN(16)    r     1 KN_IOP_LNK#                0-0-0/w UBIN(16)    r     1 KN_IOP_MAX#
     0-0-0/w PTR         r     1 KN_IOP_START$              0-0-0/w PTR         r     1 KN_LDCT_END$
     0-0-0/w PTR         r     1 KN_LDCT_HEAD$              0-0-0/w UBIN(16)    r     1 KN_LDCT_LNK#
     0-0-0/w UBIN(16)    r     1 KN_LDCT_MAX#               0-0-0/w PTR         r     1 KN_LDCT_START$
     0-0-0/w PTR         r     1 KN_SSN_END$                0-0-0/w PTR         r     1 KN_SSN_HEAD$
     0-0-0/w UBIN(16)    r     1 KN_SSN_LNK#                0-0-0/w UBIN(16)    r     1 KN_SSN_MAX#
     0-0-0/w PTR         r     1 KN_SSN_START$              0-0-0/w PTR         r     1 KN_TCTX$$
     0-0-0/w PTR         r     1 KN_TCTX_END$               0-0-0/w PTR         r     1 KN_TCTX_HEAD$
     0-0-0/w UBIN(16)    r     1 KN_TCTX_LNK#               0-0-0/w UBIN(16)    r     1 KN_TCTX_MAX#
     0-0-0/w PTR         r     1 KN_TCTX_START$

  ****  BASED and DCB variables  ****
PL6.E3A0      #001=GIM$BUILD_BOBCAT File=GIM$MONINIT.:E05TSI                     TUE 07/29/97 21:47 Page:56

  ****  Scalars and arrays  ****
HexLoc.c.b A Datatyp(siz) R M Lvl/name                 HexLoc.c.b A Datatyp(siz) R M Lvl/name

     0-0-0/w PTR         r     1 B$PTRS(0:0)                0-0-0/w STRC(1696)  r     1 G$BOBCAT
     0-0-0/w STRC(256)   r     1 G$DO                       0-0-0/w STRC(768)   r     1 G$SFILE
     0-0-0/w STRC(384)   r     1 G$USER(0:0)                0-0-0/w STRC(224)   r     1 GFR$ACCT
     0-0-0/w STRC(224)   r     1 GFR_ACCT(0:0)
     0-0-0/w STRC(768)   r     1 G_SFILE(0:0)
     0-0-0/w STRC(2816)  r     1 K$TCTX
     0-0-0/w PTR         r     1 K$TCTX$(0:0)
     0-0-0/w PTR         r     1 KN$DCT$(0:0)
     0-0-0/w STRC(432)   r     1 KN$IOP                     0-0-0/w STRC(256)   r     1 KN$LDCT
     0-0-0/w STRC(400)   r     1 KNA$SSN                    0-0-0/c STRC(400)   r     1 KNH$HMI
     0-0-0/c STRC(608)   r     1 KNN$LINK                   0-0-0/w STRC(208)   r     1 KNN$ROUTE
     0-0-0/w STRC(544)   r     1 OSIROUTE


   Procedure GIM$BUILD_BOBCAT requires 1176 words for executable code.
   Procedure GIM$BUILD_BOBCAT requires 14 words of local(AUTO) storage.
PL6.E3A0      #001=GIM$BUILD_BOBCAT File=GIM$MONINIT.:E05TSI                     TUE 07/29/97 21:47 Page:57
          *** CROSS REFERENCE LISTING ***
**     DENOTES     IDENTIFIER DEFINITION
<<                 IDENTIFIER'S VALUE SET
>>                 IDENTIFIER'S VALUE USED
<>                 IDENTIFIER SET AND/OR USED
--                 IDENTIFIER REFERENCED
PL6.E3A0      #001=GIM$BUILD_BOBCAT File=GIM$MONINIT.:E05TSI                     TUE 07/29/97 21:47 Page:58
          MINI XREF LISTING

B$PTRS
      3916**DCL      6272<<ASSIGN   6293<<ASSIGN   6304<<ASSIGN
G$BOBCAT.ACCT_RES#
      3921**DCL      6219>>DOINDEX  6228>>ASSIGN
G$BOBCAT.ACCT_RES$
      3924**DCL      6218<<ASSIGN
G$BOBCAT.APESSN#
      3922**DCL      6185>>ASSIGN   6191>>DOINDEX
G$BOBCAT.DCT$$
      3925**DCL      6120<<ASSIGN   6131>>ASSIGN   6134>>ASSIGN
G$BOBCAT.DOLIST$
      3924**DCL      6101<<ASSIGN
G$BOBCAT.HMI#
      3922**DCL      6169>>ASSIGN   6171>>DOINDEX
G$BOBCAT.HMI$
      3925**DCL      6167<<ASSIGN   6168>>ASSIGN
G$BOBCAT.IOP#
      3922**DCL      6150>>ASSIGN   6156>>DOINDEX
G$BOBCAT.IOPDATA$
      3928**DCL      6149<<ASSIGN
G$BOBCAT.IOP_START$
      3927**DCL      6148<<ASSIGN
G$BOBCAT.LDCT#
      3922**DCL      6122>>ASSIGN   6125>>ASSIGN   6133>>DOINDEX
G$BOBCAT.LDCTDATA$
      3928**DCL      6124<<ASSIGN
G$BOBCAT.LDCT_START$
      3925**DCL      6123<<ASSIGN
G$BOBCAT.LINK$$
      3926**DCL      6287<<ASSIGN   6288>>ASSIGN
G$BOBCAT.LINKS
      3923**DCL      6274>>DOINDEX  6281>>ASSIGN   6289>>ASSIGN   6292>>DOINDEX  6306>>DOINDEX  6310>>ASSIGN
PL6.E3A0      #001=GIM$BUILD_BOBCAT File=GIM$MONINIT.:E05TSI                     TUE 07/29/97 21:47 Page:59
G$BOBCAT.LINK_START$
      3925**DCL      6290<<ASSIGN
G$BOBCAT.MUIS
      3921**DCL      6075>>ASSIGN   6078>>DOINDEX  6085>>ASSIGN   6095>>ASSIGN   6097>>ASSIGN   6104>>IF
      6105>>ASSIGN
G$BOBCAT.NODES
      3923**DCL      6268>>ASSIGN   6271>>DOINDEX
G$BOBCAT.OSIROUTE#
      3929**DCL      6301>>ASSIGN   6303>>DOINDEX
G$BOBCAT.OSIROUTE$
      3930**DCL      6299<<ASSIGN
G$BOBCAT.OSIROUTE_START$
      3929**DCL      6302<<ASSIGN
G$BOBCAT.ROUTE$$
      3926**DCL      6266<<ASSIGN   6267>>ASSIGN
G$BOBCAT.ROUTE_START$
      3924**DCL      6269<<ASSIGN
G$BOBCAT.SFDATA$
      3921**DCL      6206<<ASSIGN
G$BOBCAT.SFILE#
      3921**DCL      6207>>ASSIGN   6209>>DOINDEX  6213>>ASSIGN
G$BOBCAT.SFILE$
      3924**DCL      6204<<ASSIGN
G$BOBCAT.SSNDATA$
      3928**DCL      6184<<ASSIGN
G$BOBCAT.SSN_START$
      3928**DCL      6183<<ASSIGN
G$BOBCAT.TCTX#
      3922**DCL      6234>>ASSIGN   6239>>ASSIGN   6249>>DOINDEX
G$BOBCAT.TCTX$
      3925**DCL      6237<<ASSIGN
G$BOBCAT.TCTX$$
      3925**DCL      6232<<ASSIGN   6245>>ASSIGN   6250>>ASSIGN
G$BOBCAT.TCTXDATA$
      3927**DCL      6238<<ASSIGN
G$BOBCAT.USRT$
PL6.E3A0      #001=GIM$BUILD_BOBCAT File=GIM$MONINIT.:E05TSI                     TUE 07/29/97 21:47 Page:60
      3923**DCL      6073<<ASSIGN   6074>>ASSIGN   6077>>ASSIGN
G$BOBCAT$
      3873**DCL      3920--IMP-PTR  6073>>ASSIGN   6074>>ASSIGN   6075>>ASSIGN   6077>>ASSIGN   6078>>DOINDEX
      6085>>ASSIGN   6095>>ASSIGN   6097>>ASSIGN   6101>>ASSIGN   6104>>IF       6105>>ASSIGN   6120>>ASSIGN
      6122>>ASSIGN   6123>>ASSIGN   6124>>ASSIGN   6125>>ASSIGN   6131>>ASSIGN   6133>>DOINDEX  6134>>ASSIGN
      6148>>ASSIGN   6149>>ASSIGN   6150>>ASSIGN   6156>>DOINDEX  6167>>ASSIGN   6168>>ASSIGN   6169>>ASSIGN
      6171>>DOINDEX  6183>>ASSIGN   6184>>ASSIGN   6185>>ASSIGN   6191>>DOINDEX  6204>>ASSIGN   6206>>ASSIGN
      6207>>ASSIGN   6209>>DOINDEX  6213>>ASSIGN   6218>>ASSIGN   6219>>DOINDEX  6228>>ASSIGN   6232>>ASSIGN
      6234>>ASSIGN   6237>>ASSIGN   6238>>ASSIGN   6239>>ASSIGN   6245>>ASSIGN   6249>>DOINDEX  6250>>ASSIGN
      6266>>ASSIGN   6267>>ASSIGN   6268>>ASSIGN   6269>>ASSIGN   6271>>DOINDEX  6274>>DOINDEX  6281>>ASSIGN
      6287>>ASSIGN   6288>>ASSIGN   6289>>ASSIGN   6290>>ASSIGN   6292>>DOINDEX  6299>>ASSIGN   6301>>ASSIGN
      6302>>ASSIGN   6303>>DOINDEX  6306>>DOINDEX  6310>>ASSIGN
G$DO
      3948**DCL      6111--ASSIGN   6115--ASSIGN
G$DO.LNK$
      3948**DCL      6110<<ASSIGN   6111<<ASSIGN   6112>>ASSIGN
G$SFILE
      4059**DCL      6213--ASSIGN
G$SFILE.LIB_WDSZ_DATA
      4075**DCL      4076--REDEF
G$USER
      3937**DCL      6079<<ASSIGN   6086<<ASSIGN   6097--ASSIGN
G$USER.BL
      3938**DCL      6082<<ASSIGN
G$USER.FL
      3938**DCL      6081<<ASSIGN   6085<<ASSIGN
G$USER.MISC
      3938**DCL      3938--REDEF
G$USER.US
      3938**DCL      6080<<ASSIGN
G$USRT$
      3875**DCL      6074<<ASSIGN
GFR$ACCT
      4101**DCL      6228--ASSIGN
GFR_ACCT
      4086**DCL      6220<<ASSIGN
PL6.E3A0      #001=GIM$BUILD_BOBCAT File=GIM$MONINIT.:E05TSI                     TUE 07/29/97 21:47 Page:61
GFR_ACCT.ACCN
      4090**DCL      6224<<ASSIGN
GFR_ACCT.MAX_FPRGS
      4090**DCL      6226<<ASSIGN
GFR_ACCT.MAX_MEM
      4090**DCL      6225<<ASSIGN
GFR_ACCT.UNAME
      4090**DCL      6223<<ASSIGN
GH_HQ
      3881**DCL      6091<<ASSIGN   6094<<ASSIGN
GH_TQ
      3882**DCL      6092<<ASSIGN   6095<<ASSIGN
GJ_SFILE_MAX#
      3879**DCL      6207<<ASSIGN
GJ_SFILE_START$
      3878**DCL      6205<<ASSIGN   6206--ASSIGN
G_DL$
      3877**DCL      6102<<ASSIGN
G_MUAIS
      3876**DCL      6075<<ASSIGN
G_SFILE
      4020**DCL      6210<<ASSIGN
G_SFILE.LIB_WDSZ_DATA
      4038**DCL      4039--REDEF
I
      3868**DCL      6078<<DOINDEX  6079>>ASSIGN   6080>>ASSIGN   6081>>ASSIGN   6081>>ASSIGN   6082>>ASSIGN
      6082>>ASSIGN   6090<<DOINDEX  6091>>ASSIGN   6092>>ASSIGN   6108<<DOINDEX  6109>>IF       6133<<DOINDEX
      6134>>ASSIGN   6139>>ASSIGN   6156<<DOINDEX  6171<<DOINDEX  6191<<DOINDEX  6209<<DOINDEX  6210>>ASSIGN
      6219<<DOINDEX  6220>>ASSIGN   6249<<DOINDEX  6250>>ASSIGN   6255>>ASSIGN   6271<<DOINDEX  6272>>ASSIGN
      6292<<DOINDEX  6293>>ASSIGN   6303<<DOINDEX  6304>>ASSIGN
I$
      3869**DCL      3937--IMP-PTR  3948--IMP-PTR  6077<<ASSIGN   6079>>ASSIGN   6080>>ASSIGN   6081>>ASSIGN
      6082>>ASSIGN   6085>>ASSIGN   6086>>ASSIGN   6103<<ASSIGN   6110>>ASSIGN   6111>>ASSIGN   6111>>ASSIGN
      6112<<ASSIGN   6112>>ASSIGN   6157<<ASSIGN   6159>>ASSIGN   6160>>ASSIGN   6162>>ASSIGN   6163>>ASSIGN
      6172<<ASSIGN   6173>>ASSIGN   6175>>ASSIGN   6176>>ASSIGN   6177>>ASSIGN   6178>>ASSIGN   6188<<ASSIGN
      6189>>ASSIGN   6192<<ASSIGN   6194>>ASSIGN   6195>>ASSIGN   6198>>ASSIGN   6199>>ASSIGN
PL6.E3A0      #001=GIM$BUILD_BOBCAT File=GIM$MONINIT.:E05TSI                     TUE 07/29/97 21:47 Page:62
J
      3870**DCL      6105<<ASSIGN   6106<<ASSIGN   6108>>DOINDEX  6109>>IF       6115>>ASSIGN   6247<<ASSIGN
      6254>>ASSIGN   6274<<DOINDEX  6275>>ASSIGN   6306<<DOINDEX  6307>>ASSIGN   6308>>ASSIGN
K$TCTX
      4532**DCL      6247--ASSIGN   6253<<ASSIGN
K$TCTX.DST_NSAP.ADDRESS_N
      5417**DCL      5418--REDEF
K$TCTX.LNK$
      4616**DCL      6242--ASSIGN   6256<<ASSIGN   6260<<ASSIGN
K$TCTX.NODE
      4539**DCL      4552--REDEF
K$TCTX.SRC_NSAP.ADDRESS_N
      5353**DCL      5354--REDEF
K$TCTX.SRC_REF
      4566**DCL      6255<<ASSIGN
K$TCTX.TMR_INACTIVITY.ARG
      5173**DCL      5174--REDEF
K$TCTX.TMR_REFERENCE.ARG
      5203**DCL      5204--REDEF
K$TCTX.TMR_RETRAN.ARG
      5114**DCL      5115--REDEF
K$TCTX.TMR_WINDOW.ARG
      5143**DCL      5144--REDEF
K$TCTX$
      5434**DCL      6234--ASSIGN
KN$DCT$
      4352**DCL      6122--ASSIGN   6131<<ASSIGN   6134<<ASSIGN   6245<<ASSIGN   6250<<ASSIGN
KN$IOP
      4355**DCL      6158--ASSIGN   6159<<ASSIGN
KN$IOP.ARS
      4411**DCL      4412--REDEF    4413--REDEF
KN$IOP.LNK$
      4441**DCL      4442--REDEF    6153--ASSIGN   6160<<ASSIGN   6163<<ASSIGN
KN$LDCT
      4121**DCL      6137<<ASSIGN   6138--ASSIGN
KN$LDCT.LDCTX
PL6.E3A0      #001=GIM$BUILD_BOBCAT File=GIM$MONINIT.:E05TSI                     TUE 07/29/97 21:47 Page:63
      4263**DCL      6139<<ASSIGN
KN$LDCT.LNK$
      4267**DCL      6128--ASSIGN   6140<<ASSIGN   6144<<ASSIGN
KN$LDCT.RLCID.LDCTX
      4182**DCL      4189--REDEF    4197--REDEF
KN$LDCT.TRANSPORT_ID
      4216**DCL      4224--REDEF
KN$LDCT.UID
      4246**DCL      4247--REDEF    4256--REDEF
KNA$SSN
      5455**DCL      6193--ASSIGN   6194<<ASSIGN
KNA$SSN.IOPRD$
      5517**DCL      5517--REDEF
KNA$SSN.LNK$
      5517**DCL      6188--ASSIGN   6195<<ASSIGN   6199<<ASSIGN
KNA$SSN.RLCID.NODE#
      5521**DCL      5521--REDEF
KNH$HMI
      5436**DCL      6173<<ASSIGN   6174--ASSIGN
KNH$HMI.RCQ.LOCK
      5436**DCL      6177<<ASSIGN
KNH$HMI.SCQ.BUSY
      5438**DCL      6178<<ASSIGN
KNH$HMI.SCQ.LOCK
      5438**DCL      6176<<ASSIGN
KNH$HMI.USER#
      5439**DCL      6175<<ASSIGN
KNN$LINK
      5598**DCL      6294<<ASSIGN   6295--ASSIGN
KNN$LINK.DEST.ADDRESS_N
      5785**DCL      5786--REDEF
KNN$LINK.LADR.ADDRESS_N
      5728**DCL      5729--REDEF
KNN$LINK.LDCT$
      5599**DCL      5606--REDEF
KNN$ROUTE
PL6.E3A0      #001=GIM$BUILD_BOBCAT File=GIM$MONINIT.:E05TSI                     TUE 07/29/97 21:47 Page:64
      5526**DCL      6273<<ASSIGN   6281--ASSIGN
KNN$ROUTE.ALT_QOS
      5547**DCL      6278<<ASSIGN
KNN$ROUTE.CURRENT_QOS
      5544**DCL      6277<<ASSIGN
KNN$ROUTE.LINK
      5567**DCL      6275<<ASSIGN   6281--ASSIGN
KNN$ROUTE.LINK#
      5539**DCL      6276<<ASSIGN
KNN_LINK$$
      3914**DCL      6288<<ASSIGN
KNN_OSIROUTE$$
      5848**DCL      6300<<ASSIGN
KNN_ROUTE$$
      3913**DCL      6267<<ASSIGN
KN_DCT$$
      3897**DCL      6121<<ASSIGN
KN_HMI#
      3911**DCL      6169<<ASSIGN
KN_HMI$
      3910**DCL      6168<<ASSIGN
KN_IOP_END$
      3892**DCL      6162<<ASSIGN
KN_IOP_HEAD$
      3893**DCL      6151<<ASSIGN
KN_IOP_LNK#
      3895**DCL      6154<<ASSIGN
KN_IOP_MAX#
      3894**DCL      6150<<ASSIGN
KN_IOP_START$
      3891**DCL      6149--ASSIGN   6152<<ASSIGN
KN_LDCT_END$
      3899**DCL      6143<<ASSIGN
KN_LDCT_HEAD$
      3900**DCL      6126<<ASSIGN
KN_LDCT_LNK#
PL6.E3A0      #001=GIM$BUILD_BOBCAT File=GIM$MONINIT.:E05TSI                     TUE 07/29/97 21:47 Page:65
      3902**DCL      6129<<ASSIGN
KN_LDCT_MAX#
      3901**DCL      6125<<ASSIGN
KN_LDCT_START$
      3898**DCL      6124--ASSIGN   6127<<ASSIGN
KN_SSN_END$
      3905**DCL      6198<<ASSIGN
KN_SSN_HEAD$
      3906**DCL      6186<<ASSIGN
KN_SSN_LNK#
      3908**DCL      6189<<ASSIGN
KN_SSN_MAX#
      3907**DCL      6185<<ASSIGN
KN_SSN_START$
      3904**DCL      6184--ASSIGN   6187<<ASSIGN
KN_TCTX$$
      3884**DCL      6233<<ASSIGN
KN_TCTX_END$
      3886**DCL      6259<<ASSIGN
KN_TCTX_HEAD$
      3887**DCL      6240<<ASSIGN
KN_TCTX_LNK#
      3889**DCL      6243<<ASSIGN
KN_TCTX_MAX#
      3888**DCL      6239<<ASSIGN
KN_TCTX_START$
      3885**DCL      6238--ASSIGN   6241<<ASSIGN
NEXT
      3865**DCL      6072<<ASSIGN   6072>>ASSIGN   6116<<ASSIGN   6116>>ASSIGN   6203<<ASSIGN   6203>>ASSIGN
      6217<<ASSIGN   6217>>ASSIGN   6235<<ASSIGN   6235>>ASSIGN
NEXT$
      3864**DCL        25--PROC     3865--REDEF    4020--IMP-PTR  4086--IMP-PTR  6073>>ASSIGN   6097<<ASSIGN
      6097>>ASSIGN   6101>>ASSIGN   6102>>ASSIGN   6103>>ASSIGN   6115<<ASSIGN   6115>>ASSIGN   6120>>ASSIGN
      6121>>ASSIGN   6122<<ASSIGN   6122>>ASSIGN   6123>>ASSIGN   6126>>ASSIGN   6127>>ASSIGN   6128>>ASSIGN
      6129>>ASSIGN   6136>>ASSIGN   6138<<ASSIGN   6138>>ASSIGN   6140>>ASSIGN   6148>>ASSIGN   6151>>ASSIGN
      6152>>ASSIGN   6153>>ASSIGN   6154>>ASSIGN   6157>>ASSIGN   6158<<ASSIGN   6158>>ASSIGN   6160>>ASSIGN
PL6.E3A0      #001=GIM$BUILD_BOBCAT File=GIM$MONINIT.:E05TSI                     TUE 07/29/97 21:47 Page:66
      6167>>ASSIGN   6172>>ASSIGN   6174<<ASSIGN   6174>>ASSIGN   6183>>ASSIGN   6186>>ASSIGN   6187>>ASSIGN
      6188>>ASSIGN   6189>>ASSIGN   6192>>ASSIGN   6193<<ASSIGN   6193>>ASSIGN   6195>>ASSIGN   6204>>ASSIGN
      6205>>ASSIGN   6210>>ASSIGN   6213<<ASSIGN   6213>>ASSIGN   6218>>ASSIGN   6220>>ASSIGN   6223>>ASSIGN
      6224>>ASSIGN   6225>>ASSIGN   6226>>ASSIGN   6228<<ASSIGN   6228>>ASSIGN   6232>>ASSIGN   6233>>ASSIGN
      6234<<ASSIGN   6234>>ASSIGN   6237>>ASSIGN   6240>>ASSIGN   6241>>ASSIGN   6242>>ASSIGN   6243>>ASSIGN
      6252>>ASSIGN   6254<<ASSIGN   6254>>ASSIGN   6256>>ASSIGN   6265>>ASSIGN   6268<<ASSIGN   6268>>ASSIGN
      6269>>ASSIGN   6272>>ASSIGN   6273>>ASSIGN   6275>>ASSIGN   6276>>ASSIGN   6277>>ASSIGN   6278>>ASSIGN
      6281<<ASSIGN   6281>>ASSIGN   6286>>ASSIGN   6289<<ASSIGN   6289>>ASSIGN   6290>>ASSIGN   6293>>ASSIGN
      6294>>ASSIGN   6295<<ASSIGN   6295>>ASSIGN   6298>>ASSIGN   6300>>ASSIGN   6301<<ASSIGN   6301>>ASSIGN
      6302>>ASSIGN   6304>>ASSIGN   6305>>ASSIGN   6307>>ASSIGN   6308>>ASSIGN   6310<<ASSIGN   6310>>ASSIGN
OSIROUTE
      5867**DCL      6305<<ASSIGN   6310--ASSIGN
OSIROUTE.LINK
      6032**DCL      6307<<ASSIGN   6310--ASSIGN   6310--ASSIGN
OSIROUTE.LINK.QOS
      6055**DCL      6308<<ASSIGN
OSIROUTE.LNSAP.ADDRESS_N
      6009**DCL      6010--REDEF
OSIROUTE.NSAP.ADDRESS_N
      5919**DCL      5920--REDEF
TV$
      3871**DCL      6128<<ASSIGN   6129>>ASSIGN   6136<<ASSIGN   6137>>ASSIGN   6139>>ASSIGN   6140>>ASSIGN
      6143>>ASSIGN   6144>>ASSIGN   6153<<ASSIGN   6154>>ASSIGN   6242<<ASSIGN   6243>>ASSIGN   6252<<ASSIGN
      6253>>ASSIGN   6255>>ASSIGN   6256>>ASSIGN   6259>>ASSIGN   6260>>ASSIGN   6265<<ASSIGN   6266>>ASSIGN
      6272>>ASSIGN   6286<<ASSIGN   6287>>ASSIGN   6293>>ASSIGN   6298<<ASSIGN   6299>>ASSIGN   6304>>ASSIGN

PL6.E3A0      #002=GIM$FINISH_INIT File=GIM$MONINIT.:E05TSI                      TUE 07/29/97 21:47 Page:67
      364        1        /*T***********************************************************/
      365        2        /*T*                                                         */
      366        3        /*T* Copyright (c) Bull HN Information Systems Inc., 1997    */
      367        4        /*T*                                                         */
      368        5        /*T***********************************************************/
      369        6        /*F* NAME: GIM$FINISH_INIT
      370        7             PURPOSE:
      371        8                   To complete the intitalization tasks for the monitor.
      372        9             DESCRIPTION:
      373       10                   Those functions that cannot be done until the size of the
      374       11                   BOBCAT segment is known are done here.
      375       12        */
      376       13
      377       14        GIM$FINISH_INIT: PROC;
      378       15
      379       16        /* Includes */
      380       17
      381       18 S      %INCLUDE G_LCP6_E;
      382       19        %INCLUDE GH_SCHD_E;
      383      115        %INCLUDE GH_SCHD_M;
      384      259        %INCLUDE K_TRANSPORT_M;
      385     2043        %INCLUDE G$BOBCAT_M;
      386     2063 S      %INCLUDE GH_LCP6_M;
      387     2064        %INCLUDE GM_VIRTUAL_E;
      388     2274        %INCLUDE GM_MACRO_M;
      389     2756 S      %INCLUDE GU_LCP6_M;
      390     2757        %INCLUDE G_HJIT_M;
      391     2902        %INCLUDE G_ROS_M;
      392     2984        %INCLUDE G_SFILE_M;
      393     3044        %INCLUDE G_JIT_M;
      394     3309        %INCLUDE GH_GATE_M;
      395     3350 S      %INCLUDE GF_LCP6_M;
      396     3351
      397     3352        /* EQUs and SUBs */
      398     3353
      399     3354        %GM_EQUS;
      400     3357
PL6.E3A0      #002=GIM$FINISH_INIT File=GIM$MONINIT.:E05TSI                      TUE 07/29/97 21:47 Page:68
      401     3358        /* Based */
      402     3359
      403     3360        %G$BOBCAT (FPTN=G$BOBCAT,STCLASS="BASED (G$BOBCAT$)");
      404     3373        %G$ROS (FPTN=G$ROS,STCLASS="BASED(G$ROS$)",FULL=YES);
      405     4324        %GM$EXTENT (FPTN=GM$EXTENT,STCLASS="BASED (G$WINDOW1$)");
      406     4351        %GM$PPUT (FPTN=GM$PPUT,STCLASS="BASED (PPUT$)");
      407     4411        %GM$PPUT (FPTN=GM$PPUTA,ARRAY=YES,STCLASS="BASED (G$PPUT$)");
      408     4471        %GM$PPUT (FPTN=GM_PPUTS,STCLASS=CONSTANT,SHUFFLABLE=YES);
      409     4531        %GM$PPUT (FPTN=GM_PPUTNS,STCLASS=CONSTANT,SHUFFLABLE=NO);
      410     4591        %G$MHJIT (STCLASS="BASED(G$MHJIT$)");
      411    11465        %G$UHJIT (STCLASS="BASED(G$UHJIT$)");
      412    14439        %G$HHJIT (STCLASS="BASED(G$UHJIT$)");
      413    16583        %G$LOW_MEM (STCLASS="BASED(G$LOW_MEM$)");
      414    16632        %G_EVBUF (FPTN=G$EVBUF,STCLASS=BASED);
      415    16640        %KNT_TRC_BUF (FPTN=KNT$TRC_BUF,STCLASS=BASED);
      416    16688        %G$SFILE (FPTN=G_SFILE);
      417    16725        %G$SFILE (FPTN=G$SFILE,STCLASS="BASED(SFILE$)",ARRAYED=NO);
      418    16762        %G$ASDT_MON (STCLASS="BASED(G$ASDT_MON$)");
      419    17456
      420    17457        /* Auto */
      421    17458
      422    17459    1   DCL CURR UBIN;
      423    17460    1   DCL LOG UBIN;
      424    17461    1   DCL PPUT$ PTR;
      425    17462    1   DCL SFILE$ REDEF PPUT$ PTR;
      426    17463    1   DCL TRC_BUF$ REDEF PPUT$ PTR;
      427    17464    1   DCL TRC_BUF  REDEF PPUT$ UBIN(32);
      428    17465    1   DCL SIZE UBIN;
      429    17466
      430    17467        /* Symrefs */
      431    17468
      432    17469    1   DCL G$BOBCAT$ PTR SYMREF READONLY;
      433    17470    1   DCL G$JIT$ PTR SYMREF;
      434    17471    1   DCL G$ROS$ PTR SYMREF;
      435    17472    1   DCL G$WINDOW1$ PTR SYMREF;
      436    17473    1   DCL G$MHJIT$ PTR SYMREF;
      437    17474    1   DCL G$UHJIT$ PTR SYMREF;
PL6.E3A0      #002=GIM$FINISH_INIT File=GIM$MONINIT.:E05TSI                      TUE 07/29/97 21:47 Page:69
      438    17475    1   DCL G$U_ECCB$ PTR SYMREF;
      439    17476    1   DCL G$DB_ECCB$ PTR SYMREF;
      440    17477    1   DCL G$CP_ECCB$ PTR SYMREF;
      441    17478    1   DCL G$TCB$ PTR SYMREF;
      442    17479    1   DCL G$LOW_MEM$ PTR SYMREF;
      443    17480    1   DCL G$EVBUF$ PTR SYMREF;
      444    17481    1   DCL G_EVBUF# UBIN SYMREF;
      445    17482    1   DCL KNT$TRC_BUF$ PTR SYMREF;
      446    17483    1   DCL KNT_TRC_BUF# UBIN SYMREF;
      447    17484    1   DCL GI_KEEPDELTA BIT(1) SYMREF;
      448    17485    1   DCL GJ_SFILE_CURR# UBIN SYMREF;
      449    17486    1   DCL GJ_SFILE_PEAK# UBIN SYMREF;
      450    17487        %GM_MEAT (FPTN=GM_MEAT_SHUF,ARRAY=YES,STCLASS=SYMREF);
      451    17519        %GM_MEAT (FPTN=GM_MEAT_NSHF,ARRAY=YES,STCLASS=SYMREF);
      452    17551    1   DCL GM_MEM_HI UBIN SYMREF;
      453    17552    1   DCL GM_MEM_LOW UBIN SYMREF;
      454    17553    1   DCL GM_NSHF UBIN SYMREF;
      455    17554    1   DCL GM_SHUF UBIN SYMREF;
      456    17555    1   DCL GM_SHUF_HI UBIN SYMREF;
      457    17556    1   DCL G$PPUT$ PTR SYMREF;
      458    17557    1   DCL GM_UHJIT_PGSZ UBIN SYMREF;
      459    17558    1   DCL GM_HHJIT_PGSZ UBIN SYMREF;
      460    17559    1   DCL GM_ROS_PGSZ UBIN SYMREF;
      461    17560    1   DCL GM_TSTKU_PGSZ UBIN SYMREF;
      462    17561    1   DCL GM_INIT_PGSZ UBIN SYMREF;
      463    17562    1   DCL G$ASDT_MON$ PTR SYMREF;
      464    17563    1   DCL G$ASDT_CIH$ PTR SYMREF;
      465    17564    1   DCL G$ISA_RT_CLOCK$ PTR SYMREF;
      466    17565    1   DCL G$TSA_MON$ PTR SYMREF;
      467    17566    1   DCL G$TSA_OV$ PTR SYMREF;
      468    17567    1   DCL G$ISA_PFS$ PTR SYMREF;
      469    17568    1   DCL G$ISA_WDOG$ PTR SYMREF;
      470    17569    1   DCL G$ISA_OV$ PTR SYMREF;
      471    17570    1   DCL G$ISA_SATYR_RCV$ PTR SYMREF;
      472    17571    1   DCL G$ISA_SATYR_TRN$ PTR SYMREF;
      473    17572    1   DCL G$ISA_DBINH$ PTR SYMREF;
      474    17573    1   DCL KNN_NODES UBIN SYMREF;
PL6.E3A0      #002=GIM$FINISH_INIT File=GIM$MONINIT.:E05TSI                      TUE 07/29/97 21:47 Page:70
      475    17574    1   DCL KNN_LINKS UBIN SYMREF;
      476    17575    1   DCL KN_HMI# UBIN SYMREF;
      477    17576    1   DCL KNN_OSIROUTE$$ UBIN SYMREF;
      478    17577    1   DCL KNN_OSIROUTE# UBIN SYMREF;
      479    17578    1   DCL KNN_OSIMAX# UBIN SYMREF;
      480    17579    1   DCL KN_HMI$ PTR SYMREF;
      481    17580    1   DCL KN_NODE# UBIN SYMREF;
      482    17581    1   DCL 1 KN_NODE_BIN SYMREF,
      483    17582    1         2 * CHAR(4),
      484    17583    1         2 FEX CHAR(4);
      485    17584
      486    17585        /*  Pointers with the user's HJIT                */
      487    17586    1   DCL G$ASDT_USR$ PTR SYMREF;
      488    17587    1   DCL G$ASDT_MCL$ PTR SYMREF;
      489    17588    1   DCL G$ISA_USR$ PTR SYMREF;
      490    17589    1   DCL G$TSA_USR$ PTR SYMREF;
      491    17590    1   DCL G$TSA_DB$ PTR SYMREF;
      492    17591    1   DCL G$TSA_CP$ PTR SYMREF;
      493    17592    1   DCL G$TSA_RTT$ PTR SYMREF;
      494    17593
      495    17594    1   DCL GMA$LOGBASE2 ENTRY(2) ALTRET;       /* Doesn't ALTRET                     */
      496    17595    1   DCL GMA$MAP ENTRY(2) ALTRET;            /* Doesn't ALTRET                     */
      497    17596    1   DCL SCREECH ENTRY (0);
      498    17597
      499    17598        %EJECT;
PL6.E3A0      #002=GIM$FINISH_INIT File=GIM$MONINIT.:E05TSI                      TUE 07/29/97 21:47 Page:71
      500    17599
      501    17600        /* Initialize PPUT.
      502    17601        */
      503    17602    1      G$BOBCAT.PPUT$ = G$PPUT$;
      504    17603    2      DO CURR = G$BOBCAT.MEM_LOW TO GM_SHUF_HI;
      505    17604    2           GM$PPUTA(CURR) = GM_PPUTS;
      506    17605    2           END;
      507    17606    2      DO CURR = GM_SHUF_HI + 1 TO G$BOBCAT.MEM_HI;
      508    17607    2           GM$PPUTA(CURR) = GM_PPUTNS;
      509    17608    2           END;
      510    17609
      511    17610        /* Statistical and control cells */
      512    17611    1      IF (GM_MEM_LOW >= GM_MEM_HI) OR (GM_SHUF_HI > GM_MEM_HI)
      513    17612    1      THEN CALL SCREECH;
      514    17613
      515    17614    1      GM_UHJIT_PGSZ = (SIZEW(G$UHJIT)+255) / 256;
      516    17615    1      GM_HHJIT_PGSZ = (SIZEW(G$HHJIT)+255) / 256;
      517    17616    1      GM_ROS_PGSZ = (SIZEW(G$ROS)+255) / 256;
      518    17617    1      GM_INIT_PGSZ = GM_UHJIT_PGSZ + GM_ROS_PGSZ + GM_TSTKU_PGSZ;
      519    17618        /* Shufflable allocable memory pool */
      520    17619    1      SIZE = GM_SHUF;
      521    17620    1      CALL GMA$LOGBASE2 (LOG,SIZE);
      522    17621    1      GM_MEAT_SHUF.HEAD (LOG) = GM_MEM_LOW;
      523    17622    1      GM_MEAT_SHUF.TAIL (LOG) = GM_MEM_LOW;
      524    17623    1      GM_MEAT_SHUF.COUNT (LOG) = 1;
      525    17624    1      PPUT$ = ADDR (GM$PPUTA (GM_MEM_LOW));
      526    17625    1      GM$PPUT.C.FIRSTP = '1'B;
      527    17626    1      GM$PPUT.SIZE = SIZE;
      528    17627    1      CALL GMA$MAP (GM_MEM_LOW,SIZE);
      529    17628    1      GM$EXTENT.FLINK = 0;
      530    17629    1      GM$EXTENT.BLINK = 0;
      531    17630    1      PPUT$ = ADDR (GM$PPUTA (GM_SHUF_HI));
      532    17631    1      GM$PPUT.SIZE = SIZE;
      533    17632    1      GM$PPUT.C.LASTP = '1'B;
      534    17633        /* Non-shufflable allocable memory pool */
      535    17634    1      SIZE = GM_NSHF;
      536    17635    1      IF SIZE > 0
PL6.E3A0      #002=GIM$FINISH_INIT File=GIM$MONINIT.:E05TSI                      TUE 07/29/97 21:47 Page:72
      537    17636    1      THEN
      538    17637    2      DO;
      539    17638    2           CALL GMA$LOGBASE2 (LOG,SIZE);
      540    17639    2           CURR = GM_SHUF_HI + 1;
      541    17640    2           GM_MEAT_NSHF.HEAD (LOG) = CURR;
      542    17641    2           GM_MEAT_NSHF.TAIL (LOG) = CURR;
      543    17642    2           GM_MEAT_NSHF.COUNT (LOG) = 1;
      544    17643    2           PPUT$ = ADDR (GM$PPUTA (CURR));
      545    17644    2           GM$PPUT.C.FIRSTP = '1'B;
      546    17645    2           GM$PPUT.SIZE = SIZE;
      547    17646    2           CALL GMA$MAP (CURR,SIZE);
      548    17647    2           GM$EXTENT.FLINK = 0;
      549    17648    2           GM$EXTENT.BLINK = 0;
      550    17649    2           PPUT$ = ADDR (GM$PPUTA (GM_MEM_HI));
      551    17650    2           GM$PPUT.SIZE = SIZE;
      552    17651    2           GM$PPUT.C.LASTP = '1'B;
      553    17652    2           END;
      554    17653
      555    17654        /* Initialize the event buffer and transport trace buffer in PPUT
      556    17655           below GM_MEM_LOW.
      557    17656        */
      558    17657    1      G_EVBUF# = 100;
      559    17658    1      KNT_TRC_BUF# = 100;
      560    17659    1      SIZE = (SIZEW(GM$PPUT) * GM_MEM_LOW-1);
      561    17660
      562    17661    2      DO WHILE (  (SIZEW(G$EVBUF)*G_EVBUF#) +8 +(SIZEW(KNT$TRC_BUF)*KNT_TRC_BUF#) >
             17661               SIZE);
      563    17662    2           G_EVBUF# = G_EVBUF# -1;
      564    17663    2           KNT_TRC_BUF# = KNT_TRC_BUF# -1;
      565    17664    2           END;
      566    17665
      567    17666    1      G$EVBUF$ = G$BOBCAT.PPUT$;
      568    17667    1      G$BOBCAT.EVBUF$ = G$BOBCAT.PPUT$;
      569    17668    1      G$BOBCAT.EVBUF# = G_EVBUF#;
      570    17669
      571    17670    1      TRC_BUF$ = PINCRW(G$EVBUF$, SIZEW(G$EVBUF)*(G_EVBUF#+1) );
      572    17671    1      TRC_BUF = ( (TRC_BUF+7) / 8) * 8;
PL6.E3A0      #002=GIM$FINISH_INIT File=GIM$MONINIT.:E05TSI                      TUE 07/29/97 21:47 Page:73
      573    17672    1      KNT$TRC_BUF$ = TRC_BUF$;
      574    17673
      575    17674         %EJECT;
PL6.E3A0      #002=GIM$FINISH_INIT File=GIM$MONINIT.:E05TSI                      TUE 07/29/97 21:47 Page:74
      576    17675        /* Fcg GH - Scheduler initialization */
      577    17676
      578    17677
      579    17678        /*    Initialize the pointers that cant be initialized at compile time */
      580    17679    1      G$ASDT_MON$ = ADDR(G$MHJIT.ASDT_MON);
      581    17680    1      G$ISA_RT_CLOCK$ = ADDR(G$MHJIT.ISA_RT_CLOCK);
      582    17681    1      G$TSA_MON$ = ADDR(G$MHJIT.TSA_MON);
      583    17682    1      G$TSA_OV$ = ADDR(G$MHJIT.TSA_OV);
      584    17683    1      G$ISA_PFS$ = ADDR(G$MHJIT.ISA_PFS);
      585    17684    1      G$ISA_WDOG$ = ADDR(G$MHJIT.ISA_WDOG);
      586    17685    1      G$ISA_OV$ = ADDR(G$MHJIT.ISA_OV);
      587    17686    1      G$ISA_SATYR_RCV$ = ADDR(G$MHJIT.ISA_SATYR_RCV.DEV);
      588    17687    1      G$ISA_SATYR_TRN$ = ADDR(G$MHJIT.ISA_SATYR_TRN.DEV);
      589    17688    1      G$ISA_DBINH$ = ADDR(G$MHJIT.ISA_DBINH.DEV);
      590    17689
      591    17690    1      G$ASDT_USR$ = ADDR(G$UHJIT.ASDT_USR);
      592    17691    1      G$ASDT_MCL$ = ADDR(G$UHJIT.ASDT_MCL)/* TEMPORARY */;
      593    17692    1      G$ISA_USR$ = ADDR(G$UHJIT.ISA_USR);
      594    17693    1      G$TSA_USR$ = ADDR(G$UHJIT.TSA_USR);
      595    17694    1      G$TSA_DB$ = ADDR(G$UHJIT.TSA_DB);
      596    17695    1      G$TSA_CP$ = ADDR(G$UHJIT.TSA_CP);
      597    17696    1      G$TSA_RTT$ = ADDR(G$UHJIT.TSA_RTT);
      598    17697
      599    17698    1      G$TCB$ = ADDR(G$ROS.TCB);
      600    17699    1      G$JIT$ = ADDR (G$ROS.JIT);
      601    17700    1      G$U_ECCB$ = ADDR(G$ROS.U_ECCB);
      602    17701    1      G$DB_ECCB$ = ADDR(G$ROS.DB_ECCB);
      603    17702    1      G$CP_ECCB$ = ADDR(G$ROS.CP_ECCB);
      604    17703
      605    17704    1      G$ROS.M$DEBUG.NAME.L = 0;
      606    17705    1      G$ROS.M$LM.NAME.L = 0;
      607    17706    1      G$ROS.M$ME.NAME.L = 0;
      608    17707    1      G$ROS.M$HOST.NAME.L = 0;
      609    17708    1      G$ROS.M$DO.NAME.L = 0;
      610    17709
      611    17710    1      G$LOW_MEM.RTC_LVL = %G_IL_RTCLK#;    /* Set RTC interrupt level            */
      612    17711    1      G$LOW_MEM.RTC_CURR = 1200;           /* Set RTC for 10 secs                */
PL6.E3A0      #002=GIM$FINISH_INIT File=GIM$MONINIT.:E05TSI                      TUE 07/29/97 21:47 Page:75
      613    17712    1      G$LOW_MEM.WDT_CURR = BITBIN('FFFF'X); /* Set WDT to maximum                */
      614    17713    1      G$MHJIT.INTRVL_TYPE = %GH_MONXEQ;
      615    17714
      616    17715
      617    17716        /* Initialize the first entry in the shared file table for DELTA_F.
      618    17717        */
      619    17718
      620    17719    1      IF GI_KEEPDELTA
      621    17720    2      THEN DO;
      622    17721    2           SFILE$ = ADDR(G$BOBCAT.SFILE$->G_SFILE(1));
      623    17722
      624    17723    2           G$SFILE = '0'B;
      625    17724    2           G$SFILE.INSTTIME = 1;
      626    17725    2           G$SFILE.NAME.L = 7;
      627    17726    2           G$SFILE.NAME.TEXT = 'DELTA_F';
      628    17727    2           G$SFILE.ACCT = ':SYS    ';
      629    17728    2           G$SFILE.PASS = '        ';
      630    17729    2           G$SFILE.PSN = '      ';
      631    17730    2           G$SFILE.MODTIME = 1;
      632    17731    2           G$SFILE.RU_FLGS = %RU_DB#;
      633    17732    2           G$SFILE.UC = 1;
      634    17733    2           G$SFILE.FRQ = 1;
      635    17734    2           G$SFILE.LCP6_FLGS = '0000'X;
      636    17735    2           G$SFILE.PP_SEG%(MOD(GM_DB_PROC#,4)+1) = G$ASDT_MON.DB_PROC.BASE;
      637    17736    2           G$SFILE.SEG_1ST_PROC = %(MOD(GM_DB_PROC#,4));
      638    17737    2           G$SFILE.PGSZ_PROC = G$ASDT_MON.DB_PROC.SIZE +1;
      639    17738
      640    17739    2           GJ_SFILE_CURR# = 1;
      641    17740    2           GJ_SFILE_PEAK# = 1;
      642    17741    2           END;
      643    17742
      644    17743        /* KN initialization */
      645    17744    1      KN_NODE# = G$BOBCAT.FEP#;
      646    17745    1      KNN_NODES = G$BOBCAT.NODES;
      647    17746    1      KNN_LINKS = G$BOBCAT.LINKS;
      648    17747    1      KNN_OSIMAX# = G$BOBCAT.OSIROUTE#;
      649    17748    1      KNN_OSIROUTE# = 0;
PL6.E3A0      #002=GIM$FINISH_INIT File=GIM$MONINIT.:E05TSI                      TUE 07/29/97 21:47 Page:76
      650    17749    1      CALL BINCHAR(KN_NODE_BIN.FEX,KN_NODE#);
      651    17750
      652    17751    1      RETURN;
      653    17752
      654    17753    1   END GIM$FINISH_INIT;
      655    17754        %EOD;

PL6.E3A0      #002=GIM$FINISH_INIT File=GIM$MONINIT.:E05TSI                      TUE 07/29/97 21:47 Page:77
--  Include file information  --

   GH_GATE_M.:E05TOU  cannot be made into a system file and is referenced.
   G_JIT_M.:E05TOU  is referenced.
   G_SFILE_M.:E05TOU  is referenced.
   G_ROS_M.:E05TOU  is referenced.
   G_HJIT_M.:E05TOU  is referenced.
   GM_MACRO_M.:E05TOU  is referenced.
   GM_VIRTUAL_E.:E05TOU  is referenced.
   G$BOBCAT_M.:E05TOU  is referenced.
   K_TRANSPORT_M.:E05TOU  is referenced.
   GH_SCHD_M.:E05TOU  is referenced.
   GH_SCHD_E.:E05TOU  is referenced.
   G_LCP6_E.:E05TOU  was found in the system file and is referenced.
   GT_LCP6_M.:E05TOU  was found in the system file and is never referenced.
   KI_CP6.:E05TOU  was found in the system file and is never referenced.
   GF_LCP6_M.:E05TOU  was found in the system file and is referenced.
   GM_LCP6_M.:E05TOU  was found in the system file and is never referenced.
   GU_LCP6_M.:E05TOU  was found in the system file and is referenced.
   GJ_LCP6_M.:E05TOU  was found in the system file and is never referenced.
   GH_LCP6_M.:E05TOU  was found in the system file and is referenced.
      No diagnostics issued in procedure GIM$FINISH_INIT.

   Procedure GIM$FINISH_INIT requires 661 words for executable code.
   Procedure GIM$FINISH_INIT requires 14 words of local(AUTO) storage.

PL6.E3A0      #002=GIM$FINISH_INIT File=GIM$MONINIT.:E05TSI                      TUE 07/29/97 21:47 Page:78

 Object Unit name= GIM$FINISH_INIT                            File name= GIM$MONINIT.:E05TOU
 UTS= JUL 29 '97 21:47:38.52 TUE                              Compiler= PL-6/E31         Sev=      00
 SharedLib= :SHARED_LCP6_SYSTEM                               Alt SharedLib=


    ****  Control sections  ****

 Sect   Type Bound  Init  Size HexSiz  Section name
    0  RoData even  UTS     16     10  GIM$FINISH_INIT
    1   Proc  even  none   661    295  GIM$FINISH_INIT

    ****  Entry defs  ****

                              Check   Calling
                             calling  sequence
  Sect HexLoc Primary Altret sequence   type   Parms  Name
     1      0   yes            yes      Std        0  GIM$FINISH_INIT

  ****  Entry refs  ****

         Check        Calling
        calling       sequence
Altret sequence SRef   type   Args  Name
         yes           Std       0 SCREECH
 yes     yes           Std       2 GMA$LOGBASE2
 yes     yes           Std       2 GMA$MAP
                       nStd      0 X6A_AUTO_0
                       nStd      0 X6A_ARET
PL6.E3A0      #002=GIM$FINISH_INIT File=GIM$MONINIT.:E05TSI                      TUE 07/29/97 21:47 Page:79

  ****  Data refs  ****

  Flags:  r = read only, s = secondary
Flgs Name                             Flgs Name                             Flgs Name
r    G$BOBCAT$                             G$JIT$                                G$ROS$
     G$WINDOW1$                            G$MHJIT$                              G$UHJIT$
     G$U_ECCB$                             G$DB_ECCB$                            G$CP_ECCB$
     G$TCB$                                G$LOW_MEM$                            G$EVBUF$
     G_EVBUF#                              KNT$TRC_BUF$                          KNT_TRC_BUF#
     GI_KEEPDELTA                          GJ_SFILE_CURR#                        GJ_SFILE_PEAK#
     GM_MEAT_SHUF                          GM_MEAT_NSHF                          GM_MEM_HI
     GM_MEM_LOW                            GM_NSHF                               GM_SHUF
     GM_SHUF_HI                            G$PPUT$                               GM_UHJIT_PGSZ
     GM_HHJIT_PGSZ                         GM_ROS_PGSZ                           GM_TSTKU_PGSZ
     GM_INIT_PGSZ                          G$ASDT_MON$                           G$ISA_RT_CLOCK$
     G$TSA_MON$                            G$TSA_OV$                             G$ISA_PFS$
     G$ISA_WDOG$                           G$ISA_OV$                             G$ISA_SATYR_RCV$
     G$ISA_SATYR_TRN$                      G$ISA_DBINH$                          KNN_NODES
     KNN_LINKS                             KNN_OSIROUTE#                         KNN_OSIMAX#
     KN_NODE#                              KN_NODE_BIN                           G$ASDT_USR$
     G$ASDT_MCL$                           G$ISA_USR$                            G$TSA_USR$
     G$TSA_DB$                             G$TSA_CP$                             G$TSA_RTT$
r    G$ROS$
PL6.E3A0      #002=GIM$FINISH_INIT File=GIM$MONINIT.:E05TSI                      TUE 07/29/97 21:47 Page:80


      364        1        /*T***********************************************************/
      365        2        /*T*                                                         */
      366        3        /*T* Copyright (c) Bull HN Information Systems Inc., 1997    */
      367        4        /*T*                                                         */
      368        5        /*T***********************************************************/
      369        6        /*F* NAME: GIM$FINISH_INIT
      370        7             PURPOSE:
      371        8                   To complete the intitalization tasks for the monitor.
      372        9             DESCRIPTION:
      373       10                   Those functions that cannot be done until the size of the
      374       11                   BOBCAT segment is known are done here.
      375       12        */
      376       13
      377       14        GIM$FINISH_INIT: PROC;

     14   1 000000  D380 0000 0000  xent GIM$FINISH_INIT LNJ,B5   X6A_AUTO_0
          1 000003       000E 0000                       DC       14,0

      378       15
      379       16        /* Includes */
      380       17
      381       18 S      %INCLUDE G_LCP6_E;
      382       19        %INCLUDE GH_SCHD_E;
      383      115        %INCLUDE GH_SCHD_M;
      384      259        %INCLUDE K_TRANSPORT_M;
      385     2043        %INCLUDE G$BOBCAT_M;
      386     2063 S      %INCLUDE GH_LCP6_M;
      387     2064        %INCLUDE GM_VIRTUAL_E;
      388     2274        %INCLUDE GM_MACRO_M;
      389     2756 S      %INCLUDE GU_LCP6_M;
      390     2757        %INCLUDE G_HJIT_M;
      391     2902        %INCLUDE G_ROS_M;
      392     2984        %INCLUDE G_SFILE_M;
      393     3044        %INCLUDE G_JIT_M;
      394     3309        %INCLUDE GH_GATE_M;
      395     3350 S      %INCLUDE GF_LCP6_M;
PL6.E3A0      #002=GIM$FINISH_INIT File=GIM$MONINIT.:E05TSI                      TUE 07/29/97 21:47 Page:81
      396     3351
      397     3352        /* EQUs and SUBs */
      398     3353
      399     3354        %GM_EQUS;
      400     3357
      401     3358        /* Based */
      402     3359
      403     3360        %G$BOBCAT (FPTN=G$BOBCAT,STCLASS="BASED (G$BOBCAT$)");
      404     3373        %G$ROS (FPTN=G$ROS,STCLASS="BASED(G$ROS$)",FULL=YES);
      405     4324        %GM$EXTENT (FPTN=GM$EXTENT,STCLASS="BASED (G$WINDOW1$)");
      406     4351        %GM$PPUT (FPTN=GM$PPUT,STCLASS="BASED (PPUT$)");
      407     4411        %GM$PPUT (FPTN=GM$PPUTA,ARRAY=YES,STCLASS="BASED (G$PPUT$)");
      408     4471        %GM$PPUT (FPTN=GM_PPUTS,STCLASS=CONSTANT,SHUFFLABLE=YES);
      409     4531        %GM$PPUT (FPTN=GM_PPUTNS,STCLASS=CONSTANT,SHUFFLABLE=NO);
      410     4591        %G$MHJIT (STCLASS="BASED(G$MHJIT$)");
      411    11465        %G$UHJIT (STCLASS="BASED(G$UHJIT$)");
      412    14439        %G$HHJIT (STCLASS="BASED(G$UHJIT$)");
      413    16583        %G$LOW_MEM (STCLASS="BASED(G$LOW_MEM$)");
      414    16632        %G_EVBUF (FPTN=G$EVBUF,STCLASS=BASED);
      415    16640        %KNT_TRC_BUF (FPTN=KNT$TRC_BUF,STCLASS=BASED);
      416    16688        %G$SFILE (FPTN=G_SFILE);
      417    16725        %G$SFILE (FPTN=G$SFILE,STCLASS="BASED(SFILE$)",ARRAYED=NO);
      418    16762        %G$ASDT_MON (STCLASS="BASED(G$ASDT_MON$)");
      419    17456
      420    17457        /* Auto */
      421    17458
      422    17459    1   DCL CURR UBIN;
      423    17460    1   DCL LOG UBIN;
      424    17461    1   DCL PPUT$ PTR;
      425    17462    1   DCL SFILE$ REDEF PPUT$ PTR;
      426    17463    1   DCL TRC_BUF$ REDEF PPUT$ PTR;
      427    17464    1   DCL TRC_BUF  REDEF PPUT$ UBIN(32);
      428    17465    1   DCL SIZE UBIN;
      429    17466
      430    17467        /* Symrefs */
      431    17468
      432    17469    1   DCL G$BOBCAT$ PTR SYMREF READONLY;
PL6.E3A0      #002=GIM$FINISH_INIT File=GIM$MONINIT.:E05TSI                      TUE 07/29/97 21:47 Page:82
      433    17470    1   DCL G$JIT$ PTR SYMREF;
      434    17471    1   DCL G$ROS$ PTR SYMREF;
      435    17472    1   DCL G$WINDOW1$ PTR SYMREF;
      436    17473    1   DCL G$MHJIT$ PTR SYMREF;
      437    17474    1   DCL G$UHJIT$ PTR SYMREF;
      438    17475    1   DCL G$U_ECCB$ PTR SYMREF;
      439    17476    1   DCL G$DB_ECCB$ PTR SYMREF;
      440    17477    1   DCL G$CP_ECCB$ PTR SYMREF;
      441    17478    1   DCL G$TCB$ PTR SYMREF;
      442    17479    1   DCL G$LOW_MEM$ PTR SYMREF;
      443    17480    1   DCL G$EVBUF$ PTR SYMREF;
      444    17481    1   DCL G_EVBUF# UBIN SYMREF;
      445    17482    1   DCL KNT$TRC_BUF$ PTR SYMREF;
      446    17483    1   DCL KNT_TRC_BUF# UBIN SYMREF;
      447    17484    1   DCL GI_KEEPDELTA BIT(1) SYMREF;
      448    17485    1   DCL GJ_SFILE_CURR# UBIN SYMREF;
      449    17486    1   DCL GJ_SFILE_PEAK# UBIN SYMREF;
      450    17487        %GM_MEAT (FPTN=GM_MEAT_SHUF,ARRAY=YES,STCLASS=SYMREF);
      451    17519        %GM_MEAT (FPTN=GM_MEAT_NSHF,ARRAY=YES,STCLASS=SYMREF);
      452    17551    1   DCL GM_MEM_HI UBIN SYMREF;
      453    17552    1   DCL GM_MEM_LOW UBIN SYMREF;
      454    17553    1   DCL GM_NSHF UBIN SYMREF;
      455    17554    1   DCL GM_SHUF UBIN SYMREF;
      456    17555    1   DCL GM_SHUF_HI UBIN SYMREF;
      457    17556    1   DCL G$PPUT$ PTR SYMREF;
      458    17557    1   DCL GM_UHJIT_PGSZ UBIN SYMREF;
      459    17558    1   DCL GM_HHJIT_PGSZ UBIN SYMREF;
      460    17559    1   DCL GM_ROS_PGSZ UBIN SYMREF;
      461    17560    1   DCL GM_TSTKU_PGSZ UBIN SYMREF;
      462    17561    1   DCL GM_INIT_PGSZ UBIN SYMREF;
      463    17562    1   DCL G$ASDT_MON$ PTR SYMREF;
      464    17563    1   DCL G$ASDT_CIH$ PTR SYMREF;
      465    17564    1   DCL G$ISA_RT_CLOCK$ PTR SYMREF;
      466    17565    1   DCL G$TSA_MON$ PTR SYMREF;
      467    17566    1   DCL G$TSA_OV$ PTR SYMREF;
      468    17567    1   DCL G$ISA_PFS$ PTR SYMREF;
      469    17568    1   DCL G$ISA_WDOG$ PTR SYMREF;
PL6.E3A0      #002=GIM$FINISH_INIT File=GIM$MONINIT.:E05TSI                      TUE 07/29/97 21:47 Page:83
      470    17569    1   DCL G$ISA_OV$ PTR SYMREF;
      471    17570    1   DCL G$ISA_SATYR_RCV$ PTR SYMREF;
      472    17571    1   DCL G$ISA_SATYR_TRN$ PTR SYMREF;
      473    17572    1   DCL G$ISA_DBINH$ PTR SYMREF;
      474    17573    1   DCL KNN_NODES UBIN SYMREF;
      475    17574    1   DCL KNN_LINKS UBIN SYMREF;
      476    17575    1   DCL KN_HMI# UBIN SYMREF;
      477    17576    1   DCL KNN_OSIROUTE$$ UBIN SYMREF;
      478    17577    1   DCL KNN_OSIROUTE# UBIN SYMREF;
      479    17578    1   DCL KNN_OSIMAX# UBIN SYMREF;
      480    17579    1   DCL KN_HMI$ PTR SYMREF;
      481    17580    1   DCL KN_NODE# UBIN SYMREF;
      482    17581    1   DCL 1 KN_NODE_BIN SYMREF,
      483    17582    1         2 * CHAR(4),
      484    17583    1         2 FEX CHAR(4);
      485    17584
      486    17585        /*  Pointers with the user's HJIT                */
      487    17586    1   DCL G$ASDT_USR$ PTR SYMREF;
      488    17587    1   DCL G$ASDT_MCL$ PTR SYMREF;
      489    17588    1   DCL G$ISA_USR$ PTR SYMREF;
      490    17589    1   DCL G$TSA_USR$ PTR SYMREF;
      491    17590    1   DCL G$TSA_DB$ PTR SYMREF;
      492    17591    1   DCL G$TSA_CP$ PTR SYMREF;
      493    17592    1   DCL G$TSA_RTT$ PTR SYMREF;
      494    17593
      495    17594    1   DCL GMA$LOGBASE2 ENTRY(2) ALTRET;       /* Doesn't ALTRET                     */
      496    17595    1   DCL GMA$MAP ENTRY(2) ALTRET;            /* Doesn't ALTRET                     */
      497    17596    1   DCL SCREECH ENTRY (0);
      498    17597
      499    17598        %EJECT;
PL6.E3A0      #002=GIM$FINISH_INIT File=GIM$MONINIT.:E05TSI                      TUE 07/29/97 21:47 Page:84
      500    17599
      501    17600        /* Initialize PPUT.
      502    17601        */
      503    17602    1      G$BOBCAT.PPUT$ = G$PPUT$;

  17602   1 000005  EC80 0000 0000  xsym                 LDB,B6   G$PPUT$
          1 000008  DC80 0000 0000  xsym                 LDB,B5   G$BOBCAT$
          1 00000B  EFC5 001C                            STB,B6   28,B5

      504    17603    2      DO CURR = G$BOBCAT.MEM_LOW TO GM_SHUF_HI;

  17603   1 00000D  E845 0009                            LDR,R6   9,B5
          1 00000F  EF47 0004                            STR,R6   CURR,AUTO
          1 000011  0F81 000C                            B        s:17605+2,PREL

      505    17604    2           GM$PPUTA(CURR) = GM_PPUTS;

  17604   1 000013  8C80 0000 0000  00                   LDI      GM_PPUTS
          1 000016  EC80 0000 0000  xsym                 LDB,B6   G$PPUT$
          1 000019  B847 0004                            LDR,R3   CURR,AUTO
          1 00001B  8D36                                 SDI      ,B6,R3

      506    17605    2           END;

  17605   1 00001C  8AC7 0004                            INC      CURR,AUTO
          1 00001E  E847 0004                            LDR,R6   CURR,AUTO
          1 000020  E900 0000 0000  xsym                 CMR,R6   GM_SHUF_HI
          1 000023  03F0                                 BLE      s:17604,SPREL

      507    17606    2      DO CURR = GM_SHUF_HI + 1 TO G$BOBCAT.MEM_HI;

  17606   1 000024  E800 0000 0000  xsym                 LDR,R6   GM_SHUF_HI
          1 000027  6E01                                 ADV,R6   1
          1 000028  EF47 0004                            STR,R6   CURR,AUTO
          1 00002A  0F81 000C                            B        s:17608+2,PREL

      508    17607    2           GM$PPUTA(CURR) = GM_PPUTNS;
PL6.E3A0      #002=GIM$FINISH_INIT File=GIM$MONINIT.:E05TSI                      TUE 07/29/97 21:47 Page:85

  17607   1 00002C  8C80 0000 0002  00                   LDI      GM_PPUTNS
          1 00002F  EC80 0000 0000  xsym                 LDB,B6   G$PPUT$
          1 000032  B847 0004                            LDR,R3   CURR,AUTO
          1 000034  8D36                                 SDI      ,B6,R3

      509    17608    2           END;

  17608   1 000035  8AC7 0004                            INC      CURR,AUTO
          1 000037  EC80 0000 0000  xsym                 LDB,B6   G$BOBCAT$
          1 00003A  E847 0004                            LDR,R6   CURR,AUTO
          1 00003C  E946 0008                            CMR,R6   8,B6
          1 00003E  03EE                                 BLE      s:17607,SPREL

      510    17609
      511    17610        /* Statistical and control cells */
      512    17611    1      IF (GM_MEM_LOW >= GM_MEM_HI) OR (GM_SHUF_HI > GM_MEM_HI)

  17611   1 00003F  D800 0000 0000  xsym                 LDR,R5   GM_MEM_LOW
          1 000042  D900 0000 0000  xsym                 CMR,R5   GM_MEM_HI
          1 000045  0281 0009                            BGE      s:17612,PREL
          1 000047  C800 0000 0000  xsym                 LDR,R4   GM_SHUF_HI
          1 00004A  C900 0000 0000  xsym                 CMR,R4   GM_MEM_HI
          1 00004D  0381 0007                            BLE      s:17614,PREL

      513    17612    1      THEN CALL SCREECH;

  17612   1 00004F  CBF0 0000                            LAB,B4   0,IMO
          1 000051  E380 0000 0000  xent                 LNJ,B6   SCREECH
          1 000054       0001                            DC       s:17614,PREL

      514    17613
      515    17614    1      GM_UHJIT_PGSZ = (SIZEW(G$UHJIT)+255) / 256;

  17614   1 000055  6C02                                 LDV,R6   2
          1 000056  EF00 0000 0000  xsym                 STR,R6   GM_UHJIT_PGSZ

PL6.E3A0      #002=GIM$FINISH_INIT File=GIM$MONINIT.:E05TSI                      TUE 07/29/97 21:47 Page:86
      516    17615    1      GM_HHJIT_PGSZ = (SIZEW(G$HHJIT)+255) / 256;

  17615   1 000059  5C01                                 LDV,R5   1
          1 00005A  DF00 0000 0000  xsym                 STR,R5   GM_HHJIT_PGSZ

      517    17616    1      GM_ROS_PGSZ = (SIZEW(G$ROS)+255) / 256;

  17616   1 00005D  4C03                                 LDV,R4   3
          1 00005E  CF00 0000 0000  xsym                 STR,R4   GM_ROS_PGSZ

      518    17617    1      GM_INIT_PGSZ = GM_UHJIT_PGSZ + GM_ROS_PGSZ + GM_TSTKU_PGSZ;

  17617   1 000061  EA54                                 ADD,R6   R4
          1 000062  EA00 0000 0000  xsym                 ADD,R6   GM_TSTKU_PGSZ
          1 000065  EF00 0000 0000  xsym                 STR,R6   GM_INIT_PGSZ

      519    17618        /* Shufflable allocable memory pool */
      520    17619    1      SIZE = GM_SHUF;

  17619   1 000068  B800 0000 0000  xsym                 LDR,R3   GM_SHUF
          1 00006B  BF47 0008                            STR,R3   SIZE,AUTO

      521    17620    1      CALL GMA$LOGBASE2 (LOG,SIZE);

  17620   1 00006D  EBC7 0008                            LAB,B6   SIZE,AUTO
          1 00006F  EFC7 000C                            STB,B6   SIZE+4,AUTO
          1 000071  DBC7 0005                            LAB,B5   LOG,AUTO
          1 000073  DFC7 000A                            STB,B5   SIZE+2,AUTO
          1 000075  BBC7 000A                            LAB,B3   SIZE+2,AUTO
          1 000077  CBF0 0200                            LAB,B4   512,IMO
          1 000079  E380 0000 0000  xent                 LNJ,B6   GMA$LOGBASE2
          1 00007C       0001                            DC       s:17621,PREL

      522    17621    1      GM_MEAT_SHUF.HEAD (LOG) = GM_MEM_LOW;

  17621   1 00007D  B847 0005                            LDR,R3   LOG,AUTO
          1 00007F  3F03                                 MLV,R3   3
PL6.E3A0      #002=GIM$FINISH_INIT File=GIM$MONINIT.:E05TSI                      TUE 07/29/97 21:47 Page:87
          1 000080  E800 0000 0000  xsym                 LDR,R6   GM_MEM_LOW
          1 000083  EF30 0000 0000  xsym                 STR,R6   GM_MEAT_SHUF,R3

      523    17622    1      GM_MEAT_SHUF.TAIL (LOG) = GM_MEM_LOW;

  17622   1 000086  EF30 0000 0001  xsym                 STR,R6   GM_MEAT_SHUF+1,R3

      524    17623    1      GM_MEAT_SHUF.COUNT (LOG) = 1;

  17623   1 000089  5C01                                 LDV,R5   1
          1 00008A  DF30 0000 0002  xsym                 STR,R5   GM_MEAT_SHUF+2,R3

      525    17624    1      PPUT$ = ADDR (GM$PPUTA (GM_MEM_LOW));

  17624   1 00008D  EC80 0000 0000  xsym                 LDB,B6   G$PPUT$
          1 000090  A856                                 LDR,R2   R6
          1 000091  2001                                 SOL,R2   1
          1 000092  DBA6                                 LAB,B5   ,B6,R2
          1 000093  DFC7 0006                            STB,B5   PPUT$,AUTO

      526    17625    1      GM$PPUT.C.FIRSTP = '1'B;

  17625   1 000095  8905                                 LBT,'0080'X       ,B5
  17625   1 000096       0080

      527    17626    1      GM$PPUT.SIZE = SIZE;

  17626   1 000097  C847 0008                            LDR,R4   SIZE,AUTO
          1 000099  CF45 0001                            STR,R4   1,B5

      528    17627    1      CALL GMA$MAP (GM_MEM_LOW,SIZE);

  17627   1 00009B  EBC7 0008                            LAB,B6   SIZE,AUTO
          1 00009D  EFC7 000C                            STB,B6   SIZE+4,AUTO
          1 00009F  CB80 0000 0000  xsym                 LAB,B4   GM_MEM_LOW
          1 0000A2  CFC7 000A                            STB,B4   SIZE+2,AUTO
          1 0000A4  BBC7 000A                            LAB,B3   SIZE+2,AUTO
PL6.E3A0      #002=GIM$FINISH_INIT File=GIM$MONINIT.:E05TSI                      TUE 07/29/97 21:47 Page:88
          1 0000A6  CBF0 0200                            LAB,B4   512,IMO
          1 0000A8  E380 0000 0000  xent                 LNJ,B6   GMA$MAP
          1 0000AB       0001                            DC       s:17628,PREL

      529    17628    1      GM$EXTENT.FLINK = 0;

  17628   1 0000AC  EC80 0000 0000  xsym                 LDB,B6   G$WINDOW1$
          1 0000AF  8706                                 CL       ,B6

      530    17629    1      GM$EXTENT.BLINK = 0;

  17629   1 0000B0  EC80 0000 0000  xsym                 LDB,B6   G$WINDOW1$
          1 0000B3  8746 0001                            CL       1,B6

      531    17630    1      PPUT$ = ADDR (GM$PPUTA (GM_SHUF_HI));

  17630   1 0000B5  EC80 0000 0000  xsym                 LDB,B6   G$PPUT$
          1 0000B8  B800 0000 0000  xsym                 LDR,R3   GM_SHUF_HI
          1 0000BB  3001                                 SOL,R3   1
          1 0000BC  DBB6                                 LAB,B5   ,B6,R3
          1 0000BD  DFC7 0006                            STB,B5   PPUT$,AUTO

      532    17631    1      GM$PPUT.SIZE = SIZE;

  17631   1 0000BF  E847 0008                            LDR,R6   SIZE,AUTO
          1 0000C1  EF45 0001                            STR,R6   1,B5

      533    17632    1      GM$PPUT.C.LASTP = '1'B;

  17632   1 0000C3  8905                                 LBT,'0040'X       ,B5
  17632   1 0000C4       0040

      534    17633        /* Non-shufflable allocable memory pool */
      535    17634    1      SIZE = GM_NSHF;

  17634   1 0000C5  D800 0000 0000  xsym                 LDR,R5   GM_NSHF
          1 0000C8  DF47 0008                            STR,R5   SIZE,AUTO
PL6.E3A0      #002=GIM$FINISH_INIT File=GIM$MONINIT.:E05TSI                      TUE 07/29/97 21:47 Page:89

      536    17635    1      IF SIZE > 0

  17635   1 0000CA  5901 005B                            BEZ,R5   s:17657,PREL

      537    17636    1      THEN
      538    17637    2      DO;

      539    17638    2           CALL GMA$LOGBASE2 (LOG,SIZE);

  17638   1 0000CC  EBC7 0008                            LAB,B6   SIZE,AUTO
          1 0000CE  EFC7 000C                            STB,B6   SIZE+4,AUTO
          1 0000D0  CBC7 0005                            LAB,B4   LOG,AUTO
          1 0000D2  CFC7 000A                            STB,B4   SIZE+2,AUTO
          1 0000D4  BBC7 000A                            LAB,B3   SIZE+2,AUTO
          1 0000D6  CBF0 0200                            LAB,B4   512,IMO
          1 0000D8  E380 0000 0000  xent                 LNJ,B6   GMA$LOGBASE2
          1 0000DB       0001                            DC       s:17639,PREL

      540    17639    2           CURR = GM_SHUF_HI + 1;

  17639   1 0000DC  E800 0000 0000  xsym                 LDR,R6   GM_SHUF_HI
          1 0000DF  6E01                                 ADV,R6   1
          1 0000E0  EF47 0004                            STR,R6   CURR,AUTO

      541    17640    2           GM_MEAT_NSHF.HEAD (LOG) = CURR;

  17640   1 0000E2  B847 0005                            LDR,R3   LOG,AUTO
          1 0000E4  3F03                                 MLV,R3   3
          1 0000E5  EF30 0000 0000  xsym                 STR,R6   GM_MEAT_NSHF,R3

      542    17641    2           GM_MEAT_NSHF.TAIL (LOG) = CURR;

  17641   1 0000E8  EF30 0000 0001  xsym                 STR,R6   GM_MEAT_NSHF+1,R3

      543    17642    2           GM_MEAT_NSHF.COUNT (LOG) = 1;

PL6.E3A0      #002=GIM$FINISH_INIT File=GIM$MONINIT.:E05TSI                      TUE 07/29/97 21:47 Page:90
  17642   1 0000EB  5C01                                 LDV,R5   1
          1 0000EC  DF30 0000 0002  xsym                 STR,R5   GM_MEAT_NSHF+2,R3

      544    17643    2           PPUT$ = ADDR (GM$PPUTA (CURR));

  17643   1 0000EF  EC80 0000 0000  xsym                 LDB,B6   G$PPUT$
          1 0000F2  A856                                 LDR,R2   R6
          1 0000F3  2001                                 SOL,R2   1
          1 0000F4  DBA6                                 LAB,B5   ,B6,R2
          1 0000F5  DFC7 0006                            STB,B5   PPUT$,AUTO

      545    17644    2           GM$PPUT.C.FIRSTP = '1'B;

  17644   1 0000F7  8905                                 LBT,'0080'X       ,B5
  17644   1 0000F8       0080

      546    17645    2           GM$PPUT.SIZE = SIZE;

  17645   1 0000F9  C847 0008                            LDR,R4   SIZE,AUTO
          1 0000FB  CF45 0001                            STR,R4   1,B5

      547    17646    2           CALL GMA$MAP (CURR,SIZE);

  17646   1 0000FD  EBC7 0008                            LAB,B6   SIZE,AUTO
          1 0000FF  EFC7 000C                            STB,B6   SIZE+4,AUTO
          1 000101  CBC7 0004                            LAB,B4   CURR,AUTO
          1 000103  CFC7 000A                            STB,B4   SIZE+2,AUTO
          1 000105  BBC7 000A                            LAB,B3   SIZE+2,AUTO
          1 000107  CBF0 0200                            LAB,B4   512,IMO
          1 000109  E380 0000 0000  xent                 LNJ,B6   GMA$MAP
          1 00010C       0001                            DC       s:17647,PREL

      548    17647    2           GM$EXTENT.FLINK = 0;

  17647   1 00010D  EC80 0000 0000  xsym                 LDB,B6   G$WINDOW1$
          1 000110  8706                                 CL       ,B6

PL6.E3A0      #002=GIM$FINISH_INIT File=GIM$MONINIT.:E05TSI                      TUE 07/29/97 21:47 Page:91
      549    17648    2           GM$EXTENT.BLINK = 0;

  17648   1 000111  EC80 0000 0000  xsym                 LDB,B6   G$WINDOW1$
          1 000114  8746 0001                            CL       1,B6

      550    17649    2           PPUT$ = ADDR (GM$PPUTA (GM_MEM_HI));

  17649   1 000116  EC80 0000 0000  xsym                 LDB,B6   G$PPUT$
          1 000119  B800 0000 0000  xsym                 LDR,R3   GM_MEM_HI
          1 00011C  3001                                 SOL,R3   1
          1 00011D  DBB6                                 LAB,B5   ,B6,R3
          1 00011E  DFC7 0006                            STB,B5   PPUT$,AUTO

      551    17650    2           GM$PPUT.SIZE = SIZE;

  17650   1 000120  E847 0008                            LDR,R6   SIZE,AUTO
          1 000122  EF45 0001                            STR,R6   1,B5

      552    17651    2           GM$PPUT.C.LASTP = '1'B;

  17651   1 000124  8905                                 LBT,'0040'X       ,B5
  17651   1 000125       0040

      553    17652    2           END;

      554    17653
      555    17654        /* Initialize the event buffer and transport trace buffer in PPUT
      556    17655           below GM_MEM_LOW.
      557    17656        */
      558    17657    1      G_EVBUF# = 100;

  17657   1 000126  6C64                                 LDV,R6   100
          1 000127  EF00 0000 0000  xsym                 STR,R6   G_EVBUF#

      559    17658    1      KNT_TRC_BUF# = 100;

  17658   1 00012A  EF00 0000 0000  xsym                 STR,R6   KNT_TRC_BUF#
PL6.E3A0      #002=GIM$FINISH_INIT File=GIM$MONINIT.:E05TSI                      TUE 07/29/97 21:47 Page:92

      560    17659    1      SIZE = (SIZEW(GM$PPUT) * GM_MEM_LOW-1);

  17659   1 00012D  D800 0000 0000  xsym                 LDR,R5   GM_MEM_LOW
          1 000130  5001                                 SOL,R5   1
          1 000131  5EFF                                 ADV,R5   -1
          1 000132  DF47 0008                            STR,R5   SIZE,AUTO

      561    17660
      562    17661    2      DO WHILE (  (SIZEW(G$EVBUF)*G_EVBUF#) +8 +(SIZEW(KNT$TRC_BUF)*KNT_TRC_BUF#) >
             17661               SIZE);

  17661   1 000134  0F81 0007                            B        s:17664,PREL

      563    17662    2           G_EVBUF# = G_EVBUF# -1;

  17662   1 000136  8880 0000 0000  xsym                 DEC      G_EVBUF#

      564    17663    2           KNT_TRC_BUF# = KNT_TRC_BUF# -1;

  17663   1 000139  8880 0000 0000  xsym                 DEC      KNT_TRC_BUF#

      565    17664    2           END;

  17664   1 00013C  E800 0000 0000  xsym                 LDR,R6   KNT_TRC_BUF#
          1 00013F  6001                                 SOL,R6   1
          1 000140  EA00 0000 0000  xsym                 ADD,R6   G_EVBUF#
          1 000143  6002                                 SOL,R6   2
          1 000144  6E08                                 ADV,R6   8
          1 000145  E947 0008                            CMR,R6   SIZE,AUTO
          1 000147  036F                                 BG       s:17662,SPREL

      566    17665
      567    17666    1      G$EVBUF$ = G$BOBCAT.PPUT$;

  17666   1 000148  EC80 0000 0000  xsym                 LDB,B6   G$BOBCAT$
          1 00014B  DCC6 001C                            LDB,B5   28,B6
PL6.E3A0      #002=GIM$FINISH_INIT File=GIM$MONINIT.:E05TSI                      TUE 07/29/97 21:47 Page:93
          1 00014D  DF80 0000 0000  xsym                 STB,B5   G$EVBUF$

      568    17667    1      G$BOBCAT.EVBUF$ = G$BOBCAT.PPUT$;

  17667   1 000150  DFC6 004A                            STB,B5   74,B6

      569    17668    1      G$BOBCAT.EVBUF# = G_EVBUF#;

  17668   1 000152  E800 0000 0000  xsym                 LDR,R6   G_EVBUF#
          1 000155  EF46 004C                            STR,R6   76,B6

      570    17669
      571    17670    1      TRC_BUF$ = PINCRW(G$EVBUF$, SIZEW(G$EVBUF)*(G_EVBUF#+1) );

  17670   1 000157  F856                                 LDR,R7   R6
          1 000158  6C00                                 LDV,R6   0
          1 000159  7082                                 DOL,R7   2
          1 00015A  8400 0000 0000  xsym                 AID      G$EVBUF$
          1 00015D  8470 0000 0004                       AID      4,IMO
          1 000160  8D47 0006                            SDI      PPUT$,AUTO

      572    17671    1      TRC_BUF = ( (TRC_BUF+7) / 8) * 8;

  17671   1 000162  8CC7 0006                            LDI      PPUT$,AUTO
          1 000164  8470 0000 0007                       AID      7,IMO
          1 000167  70C3                                 DOR,R7   3
          1 000168  7083                                 DOL,R7   3
          1 000169  8D47 0006                            SDI      PPUT$,AUTO

      573    17672    1      KNT$TRC_BUF$ = TRC_BUF$;

  17672   1 00016B  CCC7 0006                            LDB,B4   PPUT$,AUTO
          1 00016D  CF80 0000 0000  xsym                 STB,B4   KNT$TRC_BUF$

      574    17673
      575    17674         %EJECT;
PL6.E3A0      #002=GIM$FINISH_INIT File=GIM$MONINIT.:E05TSI                      TUE 07/29/97 21:47 Page:94
      576    17675        /* Fcg GH - Scheduler initialization */
      577    17676
      578    17677
      579    17678        /*    Initialize the pointers that cant be initialized at compile time */
      580    17679    1      G$ASDT_MON$ = ADDR(G$MHJIT.ASDT_MON);

  17679   1 000170  BC80 0000 0000  xsym                 LDB,B3   G$MHJIT$
          1 000173  BF80 0000 0000  xsym                 STB,B3   G$ASDT_MON$

      581    17680    1      G$ISA_RT_CLOCK$ = ADDR(G$MHJIT.ISA_RT_CLOCK);

  17680   1 000176  ABC3 0324                            LAB,B2   804,B3
          1 000178  AF80 0000 0000  xsym                 STB,B2   G$ISA_RT_CLOCK$

      582    17681    1      G$TSA_MON$ = ADDR(G$MHJIT.TSA_MON);

  17681   1 00017B  9BC3 0087                            LAB,B1   135,B3
          1 00017D  9F80 0000 0000  xsym                 STB,B1   G$TSA_MON$

      583    17682    1      G$TSA_OV$ = ADDR(G$MHJIT.TSA_OV);

  17682   1 000180  EBC3 00FB                            LAB,B6   251,B3
          1 000182  EF80 0000 0000  xsym                 STB,B6   G$TSA_OV$

      584    17683    1      G$ISA_PFS$ = ADDR(G$MHJIT.ISA_PFS);

  17683   1 000185  EBC3 0135                            LAB,B6   309,B3
          1 000187  EF80 0000 0000  xsym                 STB,B6   G$ISA_PFS$

      585    17684    1      G$ISA_WDOG$ = ADDR(G$MHJIT.ISA_WDOG);

  17684   1 00018A  EBC3 0140                            LAB,B6   320,B3
          1 00018C  EF80 0000 0000  xsym                 STB,B6   G$ISA_WDOG$

      586    17685    1      G$ISA_OV$ = ADDR(G$MHJIT.ISA_OV);

  17685   1 00018F  EBC3 0162                            LAB,B6   354,B3
PL6.E3A0      #002=GIM$FINISH_INIT File=GIM$MONINIT.:E05TSI                      TUE 07/29/97 21:47 Page:95
          1 000191  EF80 0000 0000  xsym                 STB,B6   G$ISA_OV$

      587    17686    1      G$ISA_SATYR_RCV$ = ADDR(G$MHJIT.ISA_SATYR_RCV.DEV);

  17686   1 000194  EBC3 01EE                            LAB,B6   494,B3
          1 000196  EF80 0000 0000  xsym                 STB,B6   G$ISA_SATYR_RCV$

      588    17687    1      G$ISA_SATYR_TRN$ = ADDR(G$MHJIT.ISA_SATYR_TRN.DEV);

  17687   1 000199  EBC3 021B                            LAB,B6   539,B3
          1 00019B  EF80 0000 0000  xsym                 STB,B6   G$ISA_SATYR_TRN$

      589    17688    1      G$ISA_DBINH$ = ADDR(G$MHJIT.ISA_DBINH.DEV);

  17688   1 00019E  EBC3 0248                            LAB,B6   584,B3
          1 0001A0  EF80 0000 0000  xsym                 STB,B6   G$ISA_DBINH$

      590    17689
      591    17690    1      G$ASDT_USR$ = ADDR(G$UHJIT.ASDT_USR);

  17690   1 0001A3  EC80 0000 0000  xsym                 LDB,B6   G$UHJIT$
          1 0001A6  EF80 0000 0000  xsym                 STB,B6   G$ASDT_USR$

      592    17691    1      G$ASDT_MCL$ = ADDR(G$UHJIT.ASDT_MCL)/* TEMPORARY */;

  17691   1 0001A9  DBC6 003E                            LAB,B5   62,B6
          1 0001AB  DF80 0000 0000  xsym                 STB,B5   G$ASDT_MCL$

      593    17692    1      G$ISA_USR$ = ADDR(G$UHJIT.ISA_USR);

  17692   1 0001AE  DBC6 007C                            LAB,B5   124,B6
          1 0001B0  DF80 0000 0000  xsym                 STB,B5   G$ISA_USR$

      594    17693    1      G$TSA_USR$ = ADDR(G$UHJIT.TSA_USR);

  17693   1 0001B3  DBC6 00B6                            LAB,B5   182,B6
          1 0001B5  DF80 0000 0000  xsym                 STB,B5   G$TSA_USR$
PL6.E3A0      #002=GIM$FINISH_INIT File=GIM$MONINIT.:E05TSI                      TUE 07/29/97 21:47 Page:96

      595    17694    1      G$TSA_DB$ = ADDR(G$UHJIT.TSA_DB);

  17694   1 0001B8  DBC6 00FF                            LAB,B5   255,B6
          1 0001BA  DF80 0000 0000  xsym                 STB,B5   G$TSA_DB$

      596    17695    1      G$TSA_CP$ = ADDR(G$UHJIT.TSA_CP);

  17695   1 0001BD  DBC6 0139                            LAB,B5   313,B6
          1 0001BF  DF80 0000 0000  xsym                 STB,B5   G$TSA_CP$

      597    17696    1      G$TSA_RTT$ = ADDR(G$UHJIT.TSA_RTT);

  17696   1 0001C2  DBC6 0173                            LAB,B5   371,B6
          1 0001C4  DF80 0000 0000  xsym                 STB,B5   G$TSA_RTT$

      598    17697
      599    17698    1      G$TCB$ = ADDR(G$ROS.TCB);

  17698   1 0001C7  EC80 0000 0000  xsym                 LDB,B6   G$ROS$
          1 0001CA  DBC6 0004                            LAB,B5   4,B6
          1 0001CC  DF80 0000 0000  xsym                 STB,B5   G$TCB$

      600    17699    1      G$JIT$ = ADDR (G$ROS.JIT);

  17699   1 0001CF  DBC6 003A                            LAB,B5   58,B6
          1 0001D1  DF80 0000 0000  xsym                 STB,B5   G$JIT$

      601    17700    1      G$U_ECCB$ = ADDR(G$ROS.U_ECCB);

  17700   1 0001D4  DBC6 0199                            LAB,B5   409,B6
          1 0001D6  DF80 0000 0000  xsym                 STB,B5   G$U_ECCB$

      602    17701    1      G$DB_ECCB$ = ADDR(G$ROS.DB_ECCB);

  17701   1 0001D9  DBC6 01A7                            LAB,B5   423,B6
          1 0001DB  DF80 0000 0000  xsym                 STB,B5   G$DB_ECCB$
PL6.E3A0      #002=GIM$FINISH_INIT File=GIM$MONINIT.:E05TSI                      TUE 07/29/97 21:47 Page:97

      603    17702    1      G$CP_ECCB$ = ADDR(G$ROS.CP_ECCB);

  17702   1 0001DE  DBC6 01B5                            LAB,B5   437,B6
          1 0001E0  DF80 0000 0000  xsym                 STB,B5   G$CP_ECCB$

      604    17703
      605    17704    1      G$ROS.M$DEBUG.NAME.L = 0;

  17704   1 0001E3  87C6 01C8                            CLH      456,B6

      606    17705    1      G$ROS.M$LM.NAME.L = 0;

  17705   1 0001E5  87C6 01FE                            CLH      510,B6

      607    17706    1      G$ROS.M$ME.NAME.L = 0;

  17706   1 0001E7  87C6 023C                            CLH      572,B6

      608    17707    1      G$ROS.M$HOST.NAME.L = 0;

  17707   1 0001E9  87C6 0271                            CLH      625,B6

      609    17708    1      G$ROS.M$DO.NAME.L = 0;

  17708   1 0001EB  87C6 02A7                            CLH      679,B6

      610    17709
      611    17710    1      G$LOW_MEM.RTC_LVL = %G_IL_RTCLK#;    /* Set RTC interrupt level            */

  17710   1 0001ED  EC80 0000 0000  xsym                 LDB,B6   G$LOW_MEM$
          1 0001F0  5C3D                                 LDV,R5   61
          1 0001F1  DF46 0016                            STR,R5   22,B6

      612    17711    1      G$LOW_MEM.RTC_CURR = 1200;           /* Set RTC for 10 secs                */

  17711   1 0001F3  C870 04B0                            LDR,R4   1200,IMO
PL6.E3A0      #002=GIM$FINISH_INIT File=GIM$MONINIT.:E05TSI                      TUE 07/29/97 21:47 Page:98
          1 0001F5  CF46 0015                            STR,R4   21,B6

      613    17712    1      G$LOW_MEM.WDT_CURR = BITBIN('FFFF'X); /* Set WDT to maximum                */

  17712   1 0001F7  8946 0017                            LBT,'FFFF'X       23,B6
  17712   1 0001F9       FFFF

      614    17713    1      G$MHJIT.INTRVL_TYPE = %GH_MONXEQ;

  17713   1 0001FA  3C02                                 LDV,R3   2
          1 0001FB  BF43 0355                            STR,R3   853,B3

      615    17714
      616    17715
      617    17716        /* Initialize the first entry in the shared file table for DELTA_F.
      618    17717        */
      619    17718
      620    17719    1      IF GI_KEEPDELTA

  17719   1 0001FD  8980 0000 0000  xsym                 CMZ      GI_KEEPDELTA
          1 000200  0881 006B                            BAGE     s:17744,PREL

      621    17720    2      THEN DO;

      622    17721    2           SFILE$ = ADDR(G$BOBCAT.SFILE$->G_SFILE(1));

  17721   1 000202  EC80 0000 0000  xsym                 LDB,B6   G$BOBCAT$
          1 000205  DCC6 001E                            LDB,B5   30,B6
          1 000207  EBC5 0030                            LAB,B6   48,B5
          1 000209  EFC7 0006                            STB,B6   PPUT$,AUTO

      623    17722
      624    17723    2           G$SFILE = '0'B;

  17723   1 00020B  5C60                                 LDV,R5   96
          1 00020C  0021                                 ALR      ;
          1 00020D       4178 0000                                ALPHANUM('0000'X,IMO,,1),;
PL6.E3A0      #002=GIM$FINISH_INIT File=GIM$MONINIT.:E05TSI                      TUE 07/29/97 21:47 Page:99
          1 00020F       4006 0000                                ALPHANUM(0,B6,,R5,FILL)

      625    17724    2           G$SFILE.INSTTIME = 1;

  17724   1 000211  8CF0 0000 0001                       LDI      1,IMO
          1 000214  437F                                 CSYNC    s:17724+2,SPREL
          1 000215  ECC7 0006                            LDB,B6   PPUT$,AUTO
          1 000217  8D46 0020                            SDI      32,B6

      626    17725    2           G$SFILE.NAME.L = 7;

  17725   1 000219  2C07                                 LDV,R2   7
          1 00021A  A786                                 STH,R2   ,B6

      627    17726    2           G$SFILE.NAME.TEXT = 'DELTA_F';

  17726   1 00021B  DB80 0000 0000  00                   LAB,B5   GM_PPUTS
          1 00021E  0021                                 ALR      ;
          1 00021F       4705 0004                                ALPHANUM(4,B5,,7),;
          1 000221       DF06 0000                                ALPHANUM(0,B6,1,31,FILL)

      628    17727    2           G$SFILE.ACCT = ':SYS    ';

  17727   1 000223  AB80 0000 0000  00                   LAB,B2   GM_PPUTS
          1 000226  2C10                                 LDV,R2   16
          1 000227  6C08                                 LDV,R6   8
          1 000228  437F                                 CSYNC    s:17727+4,SPREL
          1 000229  BCC7 0006                            LDB,B3   PPUT$,AUTO
          1 00022B  3C20                                 LDV,R3   32
          1 00022C  0008                                 MMM

      629    17728    2           G$SFILE.PASS = '        ';

  17728   1 00022D  AB80 0000 0000  00                   LAB,B2   GM_PPUTS
          1 000230  2C18                                 LDV,R2   24
          1 000231  6C08                                 LDV,R6   8
          1 000232  BCC7 0006                            LDB,B3   PPUT$,AUTO
PL6.E3A0      #002=GIM$FINISH_INIT File=GIM$MONINIT.:E05TSI                      TUE 07/29/97 21:47 Page:100
          1 000234  3C28                                 LDV,R3   40
          1 000235  0008                                 MMM

      630    17729    2           G$SFILE.PSN = '      ';

  17729   1 000236  AB80 0000 0000  00                   LAB,B2   GM_PPUTS
          1 000239  2C14                                 LDV,R2   20
          1 00023A  6C06                                 LDV,R6   6
          1 00023B  BCC7 0006                            LDB,B3   PPUT$,AUTO
          1 00023D  3C30                                 LDV,R3   48
          1 00023E  0008                                 MMM

      631    17730    2           G$SFILE.MODTIME = 1;

  17730   1 00023F  8CF0 0000 0001                       LDI      1,IMO
          1 000242  ECC7 0006                            LDB,B6   PPUT$,AUTO
          1 000244  8D46 001B                            SDI      27,B6

      632    17731    2           G$SFILE.RU_FLGS = %RU_DB#;

  17731   1 000246  B870 0800                            LDR,R3   2048,IMO
          1 000248  BF46 001D                            STR,R3   29,B6

      633    17732    2           G$SFILE.UC = 1;

  17732   1 00024A  2C01                                 LDV,R2   1
          1 00024B  A7C6 001F                            STH,R2   31,B6

      634    17733    2           G$SFILE.FRQ = 1;

  17733   1 00024D  1C01                                 LDV,R1   1
          1 00024E  9AC6 001F                            SRM,R1,'00FF'X    31,B6
          1 000250       00FF

      635    17734    2           G$SFILE.LCP6_FLGS = '0000'X;

  17734   1 000251  87C6 001E                            CLH      30,B6
PL6.E3A0      #002=GIM$FINISH_INIT File=GIM$MONINIT.:E05TSI                      TUE 07/29/97 21:47 Page:101

      636    17735    2           G$SFILE.PP_SEG%(MOD(GM_DB_PROC#,4)+1) = G$ASDT_MON.DB_PROC.BASE;

  17735   1 000253  DC80 0000 0000  xsym                 LDB,B5   G$ASDT_MON$
          1 000256  E845 002E                            LDR,R6   46,B5
          1 000258  E570 7FFF                            AND,R6   32767,IMO
          1 00025A  EF46 002C                            STR,R6   44,B6

      637    17736    2           G$SFILE.SEG_1ST_PROC = %(MOD(GM_DB_PROC#,4));

  17736   1 00025C  6C03                                 LDV,R6   3
          1 00025D  EF46 0023                            STR,R6   35,B6

      638    17737    2           G$SFILE.PGSZ_PROC = G$ASDT_MON.DB_PROC.SIZE +1;

  17737   1 00025F  E845 002F                            LDR,R6   47,B5
          1 000261  E570 01FF                            AND,R6   511,IMO
          1 000263  6E01                                 ADV,R6   1
          1 000264  EF46 0027                            STR,R6   39,B6

      639    17738
      640    17739    2           GJ_SFILE_CURR# = 1;

  17739   1 000266  9F00 0000 0000  xsym                 STR,R1   GJ_SFILE_CURR#

      641    17740    2           GJ_SFILE_PEAK# = 1;

  17740   1 000269  9F00 0000 0000  xsym                 STR,R1   GJ_SFILE_PEAK#

      642    17741    2           END;

      643    17742
      644    17743        /* KN initialization */
      645    17744    1      KN_NODE# = G$BOBCAT.FEP#;

  17744   1 00026C  EC80 0000 0000  xsym                 LDB,B6   G$BOBCAT$
          1 00026F  E806                                 LDR,R6   ,B6
PL6.E3A0      #002=GIM$FINISH_INIT File=GIM$MONINIT.:E05TSI                      TUE 07/29/97 21:47 Page:102
          1 000270  EF00 0000 0000  xsym                 STR,R6   KN_NODE#

      646    17745    1      KNN_NODES = G$BOBCAT.NODES;

  17745   1 000273  D846 0015                            LDR,R5   21,B6
          1 000275  DF00 0000 0000  xsym                 STR,R5   KNN_NODES

      647    17746    1      KNN_LINKS = G$BOBCAT.LINKS;

  17746   1 000278  B846 0016                            LDR,R3   22,B6
          1 00027A  BF00 0000 0000  xsym                 STR,R3   KNN_LINKS

      648    17747    1      KNN_OSIMAX# = G$BOBCAT.OSIROUTE#;

  17747   1 00027D  A846 0062                            LDR,R2   98,B6
          1 00027F  AF00 0000 0000  xsym                 STR,R2   KNN_OSIMAX#

      649    17748    1      KNN_OSIROUTE# = 0;

  17748   1 000282  8700 0000 0000  xsym                 CL       KNN_OSIROUTE#

      650    17749    1      CALL BINCHAR(KN_NODE_BIN.FEX,KN_NODE#);

  17749   1 000285  F856                                 LDR,R7   R6
          1 000286  6C00                                 LDV,R6   0
          1 000287  8D47 000A                            SDI      SIZE+2,AUTO
          1 000289  DB80 0000 0000  xsym                 LAB,B5   KN_NODE_BIN
          1 00028C  0027                                 CBD      ;
          1 00028D       0407 000A                                BINARY(SIZE+2,AUTO,,4),;
          1 00028F       0405 0002                                UNPACKED(2,B5,,4,UNSIGNED)

      651    17750
      652    17751    1      RETURN;

  17751   1 000291  437F                                 CSYNC    s:17749+11,SPREL
          1 000292  C380 0000 0000  xent                 LNJ,B4   X6A_ARET
      653    17752
PL6.E3A0      #002=GIM$FINISH_INIT File=GIM$MONINIT.:E05TSI                      TUE 07/29/97 21:47 Page:103
      654    17753    1   END GIM$FINISH_INIT;
      655    17754        %EOD;

PL6.E3A0      #002=GIM$FINISH_INIT File=GIM$MONINIT.:E05TSI                      TUE 07/29/97 21:47 Page:104
--  Include file information  --

   GH_GATE_M.:E05TOU  cannot be made into a system file and is referenced.
   G_JIT_M.:E05TOU  is referenced.
   G_SFILE_M.:E05TOU  is referenced.
   G_ROS_M.:E05TOU  is referenced.
   G_HJIT_M.:E05TOU  is referenced.
   GM_MACRO_M.:E05TOU  is referenced.
   GM_VIRTUAL_E.:E05TOU  is referenced.
   G$BOBCAT_M.:E05TOU  is referenced.
   K_TRANSPORT_M.:E05TOU  is referenced.
   GH_SCHD_M.:E05TOU  is referenced.
   GH_SCHD_E.:E05TOU  is referenced.
   G_LCP6_E.:E05TOU  was found in the system file and is referenced.
   GT_LCP6_M.:E05TOU  was found in the system file and is never referenced.
   KI_CP6.:E05TOU  was found in the system file and is never referenced.
   GF_LCP6_M.:E05TOU  was found in the system file and is referenced.
   GM_LCP6_M.:E05TOU  was found in the system file and is never referenced.
   GU_LCP6_M.:E05TOU  was found in the system file and is referenced.
   GJ_LCP6_M.:E05TOU  was found in the system file and is never referenced.
   GH_LCP6_M.:E05TOU  was found in the system file and is referenced.
      No diagnostics issued in procedure GIM$FINISH_INIT.
PL6.E3A0      #002=GIM$FINISH_INIT File=GIM$MONINIT.:E05TSI                      TUE 07/29/97 21:47 Page:105

 **** Variables and constants ****

  ****  Section 000 RoData GIM$FINISH_INIT

  ****  Scalars and arrays  ****
HexLoc.c.b A Datatyp(siz) R M Lvl/name                 HexLoc.c.b A Datatyp(siz) R M Lvl/name

     2-0-0/w STRC(32)    r     1 GM_PPUTNS                  0-0-0/w STRC(32)    r     1 GM_PPUTS

  ****  Auto variables  ****

  ****  Scalars and arrays  ****
HexLoc.c.b A Datatyp(siz) R M Lvl/name                 HexLoc.c.b A Datatyp(siz) R M Lvl/name

     4-0-0/w UBIN(16)    r     1 CURR                       5-0-0/w UBIN(16)    r     1 LOG
     6-0-0/w PTR         r     1 PPUT$                      6-0-0/w PTR         r     1 SFILE$
     8-0-0/w UBIN(16)    r     1 SIZE                       6-0-0/w UBIN(32)    r     1 TRC_BUF
     6-0-0/w PTR         r     1 TRC_BUF$

  ****  SYMREF variables  ****

  ****  Scalars and arrays  ****
HexLoc.c.b A Datatyp(siz) R M Lvl/name                 HexLoc.c.b A Datatyp(siz) R M Lvl/name

     0-0-0/w PTR         r     1 G$ASDT_MCL$                0-0-0/w PTR         r     1 G$ASDT_MON$
     0-0-0/w PTR         r     1 G$ASDT_USR$                0-0-0/w PTR         r     1 G$BOBCAT$
     0-0-0/w PTR         r     1 G$CP_ECCB$                 0-0-0/w PTR         r     1 G$DB_ECCB$
     0-0-0/w PTR         r     1 G$EVBUF$                   0-0-0/w PTR         r     1 G$ISA_DBINH$
     0-0-0/w PTR         r     1 G$ISA_OV$                  0-0-0/w PTR         r     1 G$ISA_PFS$
     0-0-0/w PTR         r     1 G$ISA_RT_CLOCK$            0-0-0/w PTR         r     1 G$ISA_SATYR_RCV$
     0-0-0/w PTR         r     1 G$ISA_SATYR_TRN$           0-0-0/w PTR         r     1 G$ISA_USR$
     0-0-0/w PTR         r     1 G$ISA_WDOG$                0-0-0/w PTR         r     1 G$JIT$
     0-0-0/w PTR         r     1 G$LOW_MEM$                 0-0-0/w PTR         r     1 G$MHJIT$
     0-0-0/w PTR         r     1 G$PPUT$                    0-0-0/w PTR         r     1 G$ROS$
     0-0-0/w PTR         r     1 G$TCB$                     0-0-0/w PTR         r     1 G$TSA_CP$
     0-0-0/w PTR         r     1 G$TSA_DB$                  0-0-0/w PTR         r     1 G$TSA_MON$
     0-0-0/w PTR         r     1 G$TSA_OV$                  0-0-0/w PTR         r     1 G$TSA_RTT$
PL6.E3A0      #002=GIM$FINISH_INIT File=GIM$MONINIT.:E05TSI                      TUE 07/29/97 21:47 Page:106
     0-0-0/w PTR         r     1 G$TSA_USR$                 0-0-0/w PTR         r     1 G$UHJIT$
     0-0-0/w PTR         r     1 G$U_ECCB$                  0-0-0/w PTR         r     1 G$WINDOW1$
     0-0-0/b BIT         r     1 GI_KEEPDELTA               0-0-0/w UBIN(16)    r     1 GJ_SFILE_CURR#
     0-0-0/w UBIN(16)    r     1 GJ_SFILE_PEAK#             0-0-0/w UBIN(16)    r     1 GM_HHJIT_PGSZ
     0-0-0/w UBIN(16)    r     1 GM_INIT_PGSZ
     0-0-0/w STRC(48)    r     1 GM_MEAT_NSHF(0:15)
     0-0-0/w STRC(48)    r     1 GM_MEAT_SHUF(0:15)
     0-0-0/w UBIN(16)    r     1 GM_MEM_HI                  0-0-0/w UBIN(16)    r     1 GM_MEM_LOW
     0-0-0/w UBIN(16)    r     1 GM_NSHF                    0-0-0/w UBIN(16)    r     1 GM_ROS_PGSZ
     0-0-0/w UBIN(16)    r     1 GM_SHUF                    0-0-0/w UBIN(16)    r     1 GM_SHUF_HI
     0-0-0/w UBIN(16)    r     1 GM_TSTKU_PGSZ              0-0-0/w UBIN(16)    r     1 GM_UHJIT_PGSZ
     0-0-0/w UBIN(16)    r     1 G_EVBUF#                   0-0-0/w UBIN(16)    r     1 KNN_LINKS
     0-0-0/w UBIN(16)    r     1 KNN_NODES                  0-0-0/w UBIN(16)    r     1 KNN_OSIMAX#
     0-0-0/w UBIN(16)    r     1 KNN_OSIROUTE#              0-0-0/w PTR         r     1 KNT$TRC_BUF$
     0-0-0/w UBIN(16)    r     1 KNT_TRC_BUF#               0-0-0/w UBIN(16)    r     1 KN_NODE#
     0-0-0/c STRC(64)    r     1 KN_NODE_BIN

  ****  BASED and DCB variables  ****

  ****  Scalars and arrays  ****
HexLoc.c.b A Datatyp(siz) R M Lvl/name                 HexLoc.c.b A Datatyp(siz) R M Lvl/name

     0-0-0/w STRC(992)   r     1 G$ASDT_MON                 0-0-0/w STRC(1696)  r     1 G$BOBCAT
     0-0-0/c STRC(64)    r     1 G$EVBUF                    0-0-0/w STRC(4096)  r     1 G$HHJIT
     0-0-0/w STRC(4096)  r     1 G$LOW_MEM                  0-0-0/w STRC(27232) r     1 G$MHJIT
     0-0-0/w STRC(12000) r     1 G$ROS                      0-0-0/w STRC(768)   r     1 G$SFILE
     0-0-0/w STRC(6480)  r     1 G$UHJIT                    0-0-0/w STRC(32)    r     1 GM$EXTENT
     0-0-0/w STRC(32)    r     1 GM$PPUT                    0-0-0/w STRC(32)    r     1 GM$PPUTA(0:32767)
     0-0-0/w STRC(768)   r     1 G_SFILE(0:0)
     0-0-0/w STRC(128)   r     1 KNT$TRC_BUF


   Procedure GIM$FINISH_INIT requires 661 words for executable code.
   Procedure GIM$FINISH_INIT requires 14 words of local(AUTO) storage.
PL6.E3A0      #002=GIM$FINISH_INIT File=GIM$MONINIT.:E05TSI                      TUE 07/29/97 21:47 Page:107
          *** CROSS REFERENCE LISTING ***
**     DENOTES     IDENTIFIER DEFINITION
<<                 IDENTIFIER'S VALUE SET
>>                 IDENTIFIER'S VALUE USED
<>                 IDENTIFIER SET AND/OR USED
--                 IDENTIFIER REFERENCED
PL6.E3A0      #002=GIM$FINISH_INIT File=GIM$MONINIT.:E05TSI                      TUE 07/29/97 21:47 Page:108
          MINI XREF LISTING

CURR
     17459**DCL     17603<<DOINDEX 17604>>ASSIGN  17606<<DOINDEX 17607>>ASSIGN  17639<<ASSIGN  17640>>ASSIGN
     17641>>ASSIGN  17643>>ASSIGN  17646<>CALL
G$ASDT_MCL$
     17587**DCL     17691<<ASSIGN
G$ASDT_MON.DB_PROC.BASE
     17297**DCL     17735>>ASSIGN
G$ASDT_MON.DB_PROC.SIZE
     17299**DCL     17737>>ASSIGN
G$ASDT_MON$
     17562**DCL     16768--IMP-PTR 17679<<ASSIGN  17735>>ASSIGN  17737>>ASSIGN
G$ASDT_USR$
     17586**DCL     17690<<ASSIGN
G$BOBCAT.EVBUF#
      3370**DCL     17668<<ASSIGN
G$BOBCAT.EVBUF$
      3369**DCL     17667<<ASSIGN
G$BOBCAT.FEP#
      3361**DCL     17744>>ASSIGN
G$BOBCAT.LINKS
      3364**DCL     17746>>ASSIGN
G$BOBCAT.MEM_HI
      3361**DCL     17606>>DOINDEX
G$BOBCAT.MEM_LOW
      3362**DCL     17603>>DOINDEX
G$BOBCAT.NODES
      3364**DCL     17745>>ASSIGN
G$BOBCAT.OSIROUTE#
      3370**DCL     17747>>ASSIGN
G$BOBCAT.PPUT$
      3365**DCL     17602<<ASSIGN  17666>>ASSIGN  17667>>ASSIGN
G$BOBCAT.SFILE$
PL6.E3A0      #002=GIM$FINISH_INIT File=GIM$MONINIT.:E05TSI                      TUE 07/29/97 21:47 Page:109
      3365**DCL     17721>>ASSIGN
G$BOBCAT$
     17469**DCL      3361--IMP-PTR 17602>>ASSIGN  17603>>DOINDEX 17606>>DOINDEX 17666>>ASSIGN  17667>>ASSIGN
     17667>>ASSIGN  17668>>ASSIGN  17721>>ASSIGN  17744>>ASSIGN  17745>>ASSIGN  17746>>ASSIGN  17747>>ASSIGN
G$CP_ECCB$
     17477**DCL     17702<<ASSIGN
G$DB_ECCB$
     17476**DCL     17701<<ASSIGN
G$EVBUF
     16637**DCL     17661--DOWHILE 17670--ASSIGN
G$EVBUF$
     17480**DCL     17666<<ASSIGN  17670>>ASSIGN
G$HHJIT
     14453**DCL     17615--ASSIGN
G$HHJIT.ISA_HND
     15876**DCL     16171--REDEF
G$HHJIT.ISA_HND.P$$
     15951**DCL     15951--REDEF
G$HHJIT.TSA_HND.ISA.P$$
     16360**DCL     16360--REDEF
G$HHJIT.TSA_HND.P$$
     16231**DCL     16231--REDEF   16232--REDEF
G$ISA_DBINH$
     17572**DCL     17688<<ASSIGN
G$ISA_OV$
     17569**DCL     17685<<ASSIGN
G$ISA_PFS$
     17567**DCL     17683<<ASSIGN
G$ISA_RT_CLOCK$
     17564**DCL     17680<<ASSIGN
G$ISA_SATYR_RCV$
     17570**DCL     17686<<ASSIGN
G$ISA_SATYR_TRN$
     17571**DCL     17687<<ASSIGN
G$ISA_USR$
     17588**DCL     17692<<ASSIGN
PL6.E3A0      #002=GIM$FINISH_INIT File=GIM$MONINIT.:E05TSI                      TUE 07/29/97 21:47 Page:110
G$ISA_WDOG$
     17568**DCL     17684<<ASSIGN
G$JIT$
     17470**DCL     17699<<ASSIGN
G$LOW_MEM.IV.IL$
     16625**DCL     16625--REDEF
G$LOW_MEM.IV.INT.I#00$
     16625**DCL     16625--REDEF
G$LOW_MEM.IV.INT.I#01$
     16625**DCL     16625--REDEF
G$LOW_MEM.IV.INT.I#02$
     16626**DCL     16626--REDEF
G$LOW_MEM.IV.INT.I#03$
     16626**DCL     16626--REDEF
G$LOW_MEM.IV.INT.I#04$
     16626**DCL     16627--REDEF
G$LOW_MEM.IV.INT.I#05$
     16627**DCL     16627--REDEF
G$LOW_MEM.IV.INT.I#61$
     16628**DCL     16628--REDEF
G$LOW_MEM.IV.INT.I#62$
     16628**DCL     16628--REDEF
G$LOW_MEM.IV.INT.I#63$
     16628**DCL     16628--REDEF
G$LOW_MEM.RTC_CURR
     16589**DCL     17711<<ASSIGN
G$LOW_MEM.RTC_LVL
     16589**DCL     17710<<ASSIGN
G$LOW_MEM.TV.T#01$
     16613**DCL     16613--REDEF
G$LOW_MEM.TV.T#02$
     16613**DCL     16613--REDEF
G$LOW_MEM.TV.T#03$
     16612**DCL     16612--REDEF
G$LOW_MEM.TV.T#05$
     16612**DCL     16612--REDEF
PL6.E3A0      #002=GIM$FINISH_INIT File=GIM$MONINIT.:E05TSI                      TUE 07/29/97 21:47 Page:111
G$LOW_MEM.TV.T#06$
     16611**DCL     16611--REDEF
G$LOW_MEM.TV.T#07$
     16611**DCL     16611--REDEF
G$LOW_MEM.TV.T#08$
     16610**DCL     16611--REDEF
G$LOW_MEM.TV.T#09$
     16610**DCL     16610--REDEF
G$LOW_MEM.TV.T#10$
     16610**DCL     16610--REDEF
G$LOW_MEM.TV.T#12$
     16609**DCL     16609--REDEF
G$LOW_MEM.TV.T#13$
     16609**DCL     16609--REDEF
G$LOW_MEM.TV.T#14$
     16608**DCL     16608--REDEF
G$LOW_MEM.TV.T#15$
     16608**DCL     16608--REDEF
G$LOW_MEM.TV.T#16$
     16607**DCL     16608--REDEF
G$LOW_MEM.TV.T#17$
     16607**DCL     16607--REDEF
G$LOW_MEM.TV.T#19$
     16606**DCL     16607--REDEF
G$LOW_MEM.TV.T#20$
     16606**DCL     16606--REDEF
G$LOW_MEM.TV.T#21$
     16606**DCL     16606--REDEF
G$LOW_MEM.TV.T#22$
     16605**DCL     16605--REDEF
G$LOW_MEM.TV.T#23$
     16605**DCL     16605--REDEF
G$LOW_MEM.TV.T#24$
     16604**DCL     16605--REDEF
G$LOW_MEM.TV.T#25$
     16604**DCL     16604--REDEF
PL6.E3A0      #002=GIM$FINISH_INIT File=GIM$MONINIT.:E05TSI                      TUE 07/29/97 21:47 Page:112
G$LOW_MEM.TV.T#26$
     16604**DCL     16604--REDEF
G$LOW_MEM.TV.T#27$
     16603**DCL     16603--REDEF
G$LOW_MEM.TV.T#28$
     16603**DCL     16603--REDEF
G$LOW_MEM.TV.T#29$
     16602**DCL     16603--REDEF
G$LOW_MEM.TV.T#30$
     16602**DCL     16602--REDEF
G$LOW_MEM.TV.T#31$
     16602**DCL     16602--REDEF
G$LOW_MEM.TV.T#32$
     16601**DCL     16601--REDEF
G$LOW_MEM.TV.T#33$
     16601**DCL     16601--REDEF
G$LOW_MEM.WDT_CURR
     16589**DCL     17712<<ASSIGN
G$LOW_MEM$
     17479**DCL     16588--IMP-PTR 17710>>ASSIGN  17711>>ASSIGN  17712>>ASSIGN
G$MHJIT.ASDT_MON
      4621**DCL     17679--ASSIGN
G$MHJIT.INTCON.HHJIT
     11070**DCL     11070--REDEF
G$MHJIT.INTCON.P$$
     11043**DCL     11043--REDEF
G$MHJIT.INTRVL_TYPE
     10937**DCL     17713<<ASSIGN
G$MHJIT.ISA_BIGFOOT.P$$
      7988**DCL      7988--REDEF
G$MHJIT.ISA_DBINH.DEV
      9149**DCL     17688--ASSIGN
G$MHJIT.ISA_DBINH.P$$
      9202**DCL      9202--REDEF
G$MHJIT.ISA_IDLE.P$$
      6083**DCL      6083--REDEF
PL6.E3A0      #002=GIM$FINISH_INIT File=GIM$MONINIT.:E05TSI                      TUE 07/29/97 21:47 Page:113
G$MHJIT.ISA_LVL10.P$$
      9505**DCL      9505--REDEF
G$MHJIT.ISA_LVL11.P$$
      9808**DCL      9808--REDEF
G$MHJIT.ISA_LVL12.P$$
     10111**DCL     10111--REDEF
G$MHJIT.ISA_LVL5.P$$
      8291**DCL      8291--REDEF
G$MHJIT.ISA_OV
      7610**DCL     17685--ASSIGN
G$MHJIT.ISA_OV.P$$
      7685**DCL      7685--REDEF
G$MHJIT.ISA_PFS
      7304**DCL     17683--ASSIGN
G$MHJIT.ISA_PFS.P$$
      7356**DCL      7356--REDEF
G$MHJIT.ISA_RT_CLOCK
     10643**DCL     17680--ASSIGN
G$MHJIT.ISA_RT_CLOCK.P$$
     10718**DCL     10718--REDEF
G$MHJIT.ISA_SATYR_RCV.DEV
      8542**DCL     17686--ASSIGN
G$MHJIT.ISA_SATYR_RCV.P$$
      8595**DCL      8595--REDEF
G$MHJIT.ISA_SATYR_TRN.DEV
      8846**DCL     17687--ASSIGN
G$MHJIT.ISA_SATYR_TRN.P$$
      8899**DCL      8899--REDEF
G$MHJIT.ISA_SCHD.P$$
     10414**DCL     10414--REDEF
G$MHJIT.ISA_WDOG
      7412**DCL     17684--ASSIGN
G$MHJIT.ISA_WDOG.P$$
      7464**DCL      7464--REDEF
G$MHJIT.TSA_DB.ISA.P$$
      6686**DCL      6686--REDEF
PL6.E3A0      #002=GIM$FINISH_INIT File=GIM$MONINIT.:E05TSI                      TUE 07/29/97 21:47 Page:114
G$MHJIT.TSA_DB.P$$
      6557**DCL      6557--REDEF    6558--REDEF
G$MHJIT.TSA_HND.ISA.P$$
     11264**DCL     11264--REDEF
G$MHJIT.TSA_HND.P$$
     11135**DCL     11135--REDEF   11136--REDEF
G$MHJIT.TSA_MON
      6139**DCL     17681--ASSIGN
G$MHJIT.TSA_MON.ISA.P$$
      6298**DCL      6298--REDEF
G$MHJIT.TSA_MON.P$$
      6169**DCL      6169--REDEF    6170--REDEF
G$MHJIT.TSA_OV
      6915**DCL     17682--ASSIGN
G$MHJIT.TSA_OV.ISA.P$$
      7074**DCL      7074--REDEF
G$MHJIT.TSA_OV.P$$
      6945**DCL      6945--REDEF    6946--REDEF
G$MHJIT$
     17473**DCL      4608--IMP-PTR 17679>>ASSIGN  17680>>ASSIGN  17681>>ASSIGN  17682>>ASSIGN  17683>>ASSIGN
     17684>>ASSIGN  17685>>ASSIGN  17686>>ASSIGN  17687>>ASSIGN  17688>>ASSIGN  17713>>ASSIGN
G$PPUT$
     17556**DCL      4425--IMP-PTR 17602>>ASSIGN  17604>>ASSIGN  17607>>ASSIGN  17624>>ASSIGN  17630>>ASSIGN
     17643>>ASSIGN  17649>>ASSIGN
G$ROS
      3387**DCL     17616--ASSIGN
G$ROS.AUTO_DS$
      3396**DCL      3397--REDEF
G$ROS.AUTO_T$
      3397**DCL      3397--REDEF
G$ROS.CP_ECCB
      3984**DCL     17702--ASSIGN
G$ROS.CP_ECCB.FLTFLG
      4011**DCL      4042--REDEF
G$ROS.DB_ECCB
      3908**DCL     17701--ASSIGN
PL6.E3A0      #002=GIM$FINISH_INIT File=GIM$MONINIT.:E05TSI                      TUE 07/29/97 21:47 Page:115
G$ROS.DB_ECCB.FLTFLG
      3935**DCL      3966--REDEF
G$ROS.JIT
      3418**DCL     17699--ASSIGN
G$ROS.JIT.ERRLOG
      3746**DCL      3749--REDEF
G$ROS.JIT.JSUNIT
      3485**DCL      3486--REDEF
G$ROS.JIT.MCLS
      3484**DCL      3484--REDEF
G$ROS.JIT.TMRZ
      3753**DCL      3754--REDEF
G$ROS.JIT.USER_EXTIME
      3477**DCL      3478--REDEF
G$ROS.JIT.USER_MEMTIME
      3480**DCL      3480--REDEF
G$ROS.JIT.USER_SVTIME
      3479**DCL      3479--REDEF
G$ROS.M$DEBUG.EOMCHAR
      4082**DCL      4082--REDEF    4083--REDEF
G$ROS.M$DEBUG.FLDID
      4081**DCL      4081--REDEF
G$ROS.M$DEBUG.NAME.L
      4075**DCL     17704<<ASSIGN
G$ROS.M$DEBUG.RES
      4076**DCL      4077--REDEF
G$ROS.M$DO.EOMCHAR
      4287**DCL      4287--REDEF    4288--REDEF
G$ROS.M$DO.FLDID
      4286**DCL      4286--REDEF
G$ROS.M$DO.NAME.L
      4280**DCL     17708<<ASSIGN
G$ROS.M$DO.RES
      4281**DCL      4282--REDEF
G$ROS.M$HOST.EOMCHAR
      4236**DCL      4236--REDEF    4237--REDEF
PL6.E3A0      #002=GIM$FINISH_INIT File=GIM$MONINIT.:E05TSI                      TUE 07/29/97 21:47 Page:116
G$ROS.M$HOST.FLDID
      4235**DCL      4235--REDEF
G$ROS.M$HOST.NAME.L
      4229**DCL     17707<<ASSIGN
G$ROS.M$HOST.RES
      4230**DCL      4231--REDEF
G$ROS.M$LM.EOMCHAR
      4133**DCL      4133--REDEF    4134--REDEF
G$ROS.M$LM.FLDID
      4132**DCL      4132--REDEF
G$ROS.M$LM.NAME.L
      4126**DCL     17705<<ASSIGN
G$ROS.M$LM.RES
      4127**DCL      4128--REDEF
G$ROS.M$ME.EOMCHAR
      4185**DCL      4185--REDEF    4186--REDEF
G$ROS.M$ME.FLDID
      4184**DCL      4184--REDEF
G$ROS.M$ME.NAME.L
      4178**DCL     17706<<ASSIGN
G$ROS.M$ME.RES
      4179**DCL      4180--REDEF
G$ROS.TCB
      3392**DCL     17698--ASSIGN
G$ROS.U_ECCB
      3832**DCL     17700--ASSIGN
G$ROS.U_ECCB.FLTFLG
      3859**DCL      3890--REDEF
G$ROS$
     17471**DCL      3387--IMP-PTR 17698>>ASSIGN  17699>>ASSIGN  17700>>ASSIGN  17701>>ASSIGN  17702>>ASSIGN
     17704>>ASSIGN  17705>>ASSIGN  17706>>ASSIGN  17707>>ASSIGN  17708>>ASSIGN
G$SFILE
     16741**DCL     17723<<ASSIGN
G$SFILE.ACCT
     16743**DCL     17727<<ASSIGN
G$SFILE.FRQ
PL6.E3A0      #002=GIM$FINISH_INIT File=GIM$MONINIT.:E05TSI                      TUE 07/29/97 21:47 Page:117
     16756**DCL     17733<<ASSIGN
G$SFILE.INSTTIME
     16757**DCL     17724<<ASSIGN
G$SFILE.LCP6_FLGS
     16752**DCL     17734<<ASSIGN
G$SFILE.LIB_WDSZ_DATA
     16757**DCL     16758--REDEF
G$SFILE.MODTIME
     16743**DCL     17730<<ASSIGN
G$SFILE.NAME.L
     16743**DCL     17725<<ASSIGN
G$SFILE.NAME.TEXT
     16743**DCL     17726<<ASSIGN
G$SFILE.PASS
     16743**DCL     17728<<ASSIGN
G$SFILE.PGSZ_PROC
     16758**DCL     17737<<ASSIGN
G$SFILE.PP_SEG4
     16760**DCL     17735<<ASSIGN
G$SFILE.PSN
     16743**DCL     17729<<ASSIGN
G$SFILE.RU_FLGS
     16744**DCL     17731<<ASSIGN
G$SFILE.SEG_1ST_PROC
     16757**DCL     17736<<ASSIGN
G$SFILE.UC
     16756**DCL     17732<<ASSIGN
G$TCB$
     17478**DCL     17698<<ASSIGN
G$TSA_CP$
     17591**DCL     17695<<ASSIGN
G$TSA_DB$
     17590**DCL     17694<<ASSIGN
G$TSA_MON$
     17565**DCL     17681<<ASSIGN
G$TSA_OV$
PL6.E3A0      #002=GIM$FINISH_INIT File=GIM$MONINIT.:E05TSI                      TUE 07/29/97 21:47 Page:118
     17566**DCL     17682<<ASSIGN
G$TSA_RTT$
     17592**DCL     17696<<ASSIGN
G$TSA_USR$
     17589**DCL     17693<<ASSIGN
G$UHJIT
     11482**DCL     17614--ASSIGN
G$UHJIT.ASDT_MCL
     12189**DCL     17691--ASSIGN
G$UHJIT.ASDT_USR
     11495**DCL     17690--ASSIGN
G$UHJIT.ISA_USR
     12905**DCL     13200--REDEF   17692--ASSIGN
G$UHJIT.ISA_USR.P$$
     12980**DCL     12980--REDEF
G$UHJIT.TSA_CP
     14028**DCL     17695--ASSIGN
G$UHJIT.TSA_CP.ISA.P$$
     14187**DCL     14187--REDEF
G$UHJIT.TSA_CP.P$$
     14058**DCL     14058--REDEF   14059--REDEF
G$UHJIT.TSA_DB
     13640**DCL     17694--ASSIGN
G$UHJIT.TSA_DB.ISA.P$$
     13799**DCL     13799--REDEF
G$UHJIT.TSA_DB.P$$
     13670**DCL     13670--REDEF   13671--REDEF
G$UHJIT.TSA_RTT
     14403**DCL     17696--ASSIGN
G$UHJIT.TSA_RTT.P$$
     14433**DCL     14433--REDEF   14434--REDEF
G$UHJIT.TSA_USR
     13230**DCL     17693--ASSIGN
G$UHJIT.TSA_USR.ISA.P$$
     13389**DCL     13389--REDEF
G$UHJIT.TSA_USR.P$$
PL6.E3A0      #002=GIM$FINISH_INIT File=GIM$MONINIT.:E05TSI                      TUE 07/29/97 21:47 Page:119
     13260**DCL     13260--REDEF   13261--REDEF
G$UHJIT$
     17474**DCL     11482--IMP-PTR 14453--IMP-PTR 17690>>ASSIGN  17691>>ASSIGN  17692>>ASSIGN  17693>>ASSIGN
     17694>>ASSIGN  17695>>ASSIGN  17696>>ASSIGN
G$U_ECCB$
     17475**DCL     17700<<ASSIGN
G$WINDOW1$
     17472**DCL      4338--IMP-PTR 17628>>ASSIGN  17629>>ASSIGN  17647>>ASSIGN  17648>>ASSIGN
GI_KEEPDELTA
     17484**DCL     17719>>IF
GJ_SFILE_CURR#
     17485**DCL     17739<<ASSIGN
GJ_SFILE_PEAK#
     17486**DCL     17740<<ASSIGN
GM$EXTENT.BLINK
      4346**DCL     17629<<ASSIGN  17648<<ASSIGN
GM$EXTENT.FLINK
      4342**DCL     17628<<ASSIGN  17647<<ASSIGN
GM$PPUT
      4365**DCL     17659--ASSIGN
GM$PPUT.C.FIRSTP
      4381**DCL     17625<<ASSIGN  17644<<ASSIGN
GM$PPUT.C.LASTP
      4385**DCL     17632<<ASSIGN  17651<<ASSIGN
GM$PPUT.SIZE
      4406**DCL     17626<<ASSIGN  17631<<ASSIGN  17645<<ASSIGN  17650<<ASSIGN
GM$PPUTA
      4425**DCL     17604<<ASSIGN  17607<<ASSIGN  17624--ASSIGN  17630--ASSIGN  17643--ASSIGN  17649--ASSIGN
GMA$LOGBASE2
     17594**DCL-ENT 17620--CALL    17638--CALL
GMA$MAP
     17595**DCL-ENT 17627--CALL    17646--CALL
GM_HHJIT_PGSZ
     17558**DCL     17615<<ASSIGN
GM_INIT_PGSZ
     17561**DCL     17617<<ASSIGN
PL6.E3A0      #002=GIM$FINISH_INIT File=GIM$MONINIT.:E05TSI                      TUE 07/29/97 21:47 Page:120
GM_MEAT_NSHF.COUNT
     17545**DCL     17642<<ASSIGN
GM_MEAT_NSHF.HEAD
     17537**DCL     17640<<ASSIGN
GM_MEAT_NSHF.TAIL
     17541**DCL     17641<<ASSIGN
GM_MEAT_SHUF.COUNT
     17513**DCL     17623<<ASSIGN
GM_MEAT_SHUF.HEAD
     17505**DCL     17621<<ASSIGN
GM_MEAT_SHUF.TAIL
     17509**DCL     17622<<ASSIGN
GM_MEM_HI
     17551**DCL     17611>>IF      17611>>IF      17649>>ASSIGN
GM_MEM_LOW
     17552**DCL     17611>>IF      17621>>ASSIGN  17622>>ASSIGN  17624>>ASSIGN  17627<>CALL    17659>>ASSIGN
GM_NSHF
     17553**DCL     17634>>ASSIGN
GM_PPUTNS
      4545**DCL     17607>>ASSIGN
GM_PPUTS
      4485**DCL     17604>>ASSIGN
GM_ROS_PGSZ
     17559**DCL     17616<<ASSIGN  17617>>ASSIGN
GM_SHUF
     17554**DCL     17619>>ASSIGN
GM_SHUF_HI
     17555**DCL     17603>>DOINDEX 17606>>DOINDEX 17611>>IF      17630>>ASSIGN  17639>>ASSIGN
GM_TSTKU_PGSZ
     17560**DCL     17617>>ASSIGN
GM_UHJIT_PGSZ
     17557**DCL     17614<<ASSIGN  17617>>ASSIGN
G_EVBUF#
     17481**DCL     17657<<ASSIGN  17661>>DOWHILE 17662<<ASSIGN  17662>>ASSIGN  17668>>ASSIGN  17670>>ASSIGN
G_SFILE
     16702**DCL     17721--ASSIGN
PL6.E3A0      #002=GIM$FINISH_INIT File=GIM$MONINIT.:E05TSI                      TUE 07/29/97 21:47 Page:121
G_SFILE.LIB_WDSZ_DATA
     16720**DCL     16721--REDEF
KNN_LINKS
     17574**DCL     17746<<ASSIGN
KNN_NODES
     17573**DCL     17745<<ASSIGN
KNN_OSIMAX#
     17578**DCL     17747<<ASSIGN
KNN_OSIROUTE#
     17577**DCL     17748<<ASSIGN
KNT$TRC_BUF
     16645**DCL     17661--DOWHILE
KNT$TRC_BUF$
     17482**DCL     17672<<ASSIGN
KNT_TRC_BUF#
     17483**DCL     17658<<ASSIGN  17661>>DOWHILE 17663<<ASSIGN  17663>>ASSIGN
KN_NODE#
     17580**DCL     17744<<ASSIGN  17749>>CALLBLT
KN_NODE_BIN.FEX
     17583**DCL     17749<<CALLBLT
LOG
     17460**DCL     17620<>CALL    17621>>ASSIGN  17622>>ASSIGN  17623>>ASSIGN  17638<>CALL    17640>>ASSIGN
     17641>>ASSIGN  17642>>ASSIGN
PPUT$
     17461**DCL      4365--IMP-PTR 17462--REDEF   17463--REDEF   17464--REDEF   17624<<ASSIGN  17625>>ASSIGN
     17626>>ASSIGN  17630<<ASSIGN  17631>>ASSIGN  17632>>ASSIGN  17643<<ASSIGN  17644>>ASSIGN  17645>>ASSIGN
     17649<<ASSIGN  17650>>ASSIGN  17651>>ASSIGN
SCREECH
     17596**DCL-ENT 17612--CALL
SFILE$
     17462**DCL     16741--IMP-PTR 17721<<ASSIGN  17723>>ASSIGN  17724>>ASSIGN  17725>>ASSIGN  17726>>ASSIGN
     17727>>ASSIGN  17728>>ASSIGN  17729>>ASSIGN  17730>>ASSIGN  17731>>ASSIGN  17732>>ASSIGN  17733>>ASSIGN
     17734>>ASSIGN  17735>>ASSIGN  17736>>ASSIGN  17737>>ASSIGN
SIZE
     17465**DCL     17619<<ASSIGN  17620<>CALL    17626>>ASSIGN  17627<>CALL    17631>>ASSIGN  17634<<ASSIGN
     17635>>IF      17638<>CALL    17645>>ASSIGN  17646<>CALL    17650>>ASSIGN  17659<<ASSIGN  17661>>DOWHILE
PL6.E3A0      #002=GIM$FINISH_INIT File=GIM$MONINIT.:E05TSI                      TUE 07/29/97 21:47 Page:122
TRC_BUF
     17464**DCL     17671<<ASSIGN  17671>>ASSIGN
TRC_BUF$
     17463**DCL     17670<<ASSIGN  17672>>ASSIGN

PL6.E3A0      #003=GIM$BUILD_CHNTBL File=GIM$MONINIT.:E05TSI                     TUE 07/29/97 21:49 Page:123
      656        1        /*T***********************************************************/
      657        2        /*T*                                                         */
      658        3        /*T* Copyright (c) Bull HN Information Systems Inc., 1997    */
      659        4        /*T*                                                         */
      660        5        /*T***********************************************************/
      661        6
      662        7        GIM$BUILD_CHNTBL: PROC (CHN$);
      663        8
      664        9        %INCLUDE G$BOBCAT_M;
      665       29        %INCLUDE GI_BOOT_C;
      666      140        %INCLUDE GI_DATA_M;
      667      168        %INCLUDE KH$CHN;
      668      290 S      %INCLUDE KI_CP6;
      669      291        %INCLUDE GH_IOFNC_E;
      670      360              %INCLUDE GH_HARDWARE_M;
      671      458 S      %INCLUDE G_LCP6_E;
      672      459
      673      460        /* Parameters */
      674      461    1   DCL CHN$ PTR;
      675      462
      676      463        /* Symrefs */
      677      464    1   DCL G$BOBCAT$ PTR SYMREF;
      678      465    1   DCL GD_CHN UBIN(10) SYMREF;
      679      466    1   DCL GI_KEEPDELTA BIT(1) SYMREF;
      680      467    1   DCL GI_BOOTCHAN UBIN SYMREF;
      681      468        %GI$PARAMS (FPTN=GI_PARAMS,
      682      469                    SYSTEM=LCP6,
      683      470                    STCLASS=SYMREF,
      684      471                    NUM=GI_BOOT_HI);
      685      474
      686      475        /* Based */
      687      476        %KH$CHN (STCLASS="BASED(CHN$)");
      688      600        %G$BOBCAT (STCLASS="BASED(G$BOBCAT$)");
      689      613
      690      614        /* Constant */
      691      615        %KH$CHN (NAME=GI_CHN,STCLASS="CONSTANT SYMDEF");
      692      739
PL6.E3A0      #003=GIM$BUILD_CHNTBL File=GIM$MONINIT.:E05TSI                     TUE 07/29/97 21:49 Page:124
      693      740        %EQU Y#DVCCLS_HI = 80;
      694      741
      695      742    1   DCL 1 GI_DVCCLS(0:%Y#DVCCLS_HI) CONSTANT SYMDEF,
      696      743    1         2 DVCID BIT(16) INIT('2110'X,'2118'X,'F200'X,
      697      744    1                           '2408'X,'2088'X,'2008'X,
      698      745    1                           '208C'X,'2140'X,'F600'X,
      699      746    1                           'F700'X,'F800'X,'2120'X,
      700      747    1                           '2000'X,'2001'X,'2002'X,
      701      748    1                           '2003'X,'2004'X,'2006'X,
      702      749    1                           '2045'X,'2046'X,'204D'X,
      703      750    1                           '204E'X,'2050'X,'205B'X,
      704      751    1                           '2079'X,'207A'X,'2018'X,
      705      752    1                           '2019'X,'201A'X,'201C'X,
      706      753    1                           '2138'X,'2158'X,'2168'X,
      707      754    1                           '2010'X,'2011'X,'2017'X,
      708      755    1          '2B01'X,'2B02'X,'2B04'X,'2B05'X, /* SLCCs                              */
      709      756    1                           '3A00'X,
      710      757    1                           '4800'X,
      711      758    1                           '4900'X,
      712      759    1                           '6800'X,
      713      760    1                           '6900'X,
      714      761    1                           '6A00'X,
      715      762    1                           '7800'X,
      716      763    1                           '7900'X,
      717      764    1                           '7A00'X,
      718      765    1                            '2031'X,
      719      766    1                            '2033'X,
      720      767    1                            '20C4'X,
      721      768    1                            '01F0'X,
      722      769    1                            '01F1'X,
      723      770    1                            '01F2'X,
      724      771    1                            '01F3'X,
      725      772    1                            '01F4'X,
      726      773    1                            '01F5'X,
      727      774    1                            '01F6'X,
      728      775    1                            '01F7'X,
      729      776    1                            '01F8'X,
PL6.E3A0      #003=GIM$BUILD_CHNTBL File=GIM$MONINIT.:E05TSI                     TUE 07/29/97 21:49 Page:125
      730      777    1                            '01F9'X,
      731      778    1                            '01FA'X,
      732      779    1                            '01FB'X,
      733      780    1                            '01FC'X,
      734      781    1                            '01FD'X,
      735      782    1                            '01FE'X,
      736      783    1                            '01FF'X,
      737      784    1                           '0000'X*0),
      738      785    1         2 DVC_ATTR BIT(16) INIT(%(%G_ATTR_CL_ASYNC|%G_ATTR_CL_CURLP), /* '2110'X */
      739      786    1   %(%G_ATTR_CL_ASYNC|%G_ATTR_CL_RS232),   /* '2118'X                            */
      740      787    1   %(%G_ATTR_CL_ASYNC|%G_ATTR_CL_RS422C),  /* 'F200'X                            */
      741      788    1                       '0'B,               /* '2408'X                            */
      742      789    1                  %G_ATTR_UR_CP,           /* '2088'X                            */
      743      790    1                  %G_ATTR_UR_CR,           /* '2008'X                            */
      744      791    1                  %G_ATTR_UR_CR,           /* '208C'X                            */
      745      792    1   %(%G_ATTR_CL_HDLC|%G_ATTR_CL_RS232),    /* '2140'X                            */
      746      793    1   %(%G_ATTR_CL_HDLC|%G_ATTR_CL_301|%G_ATTR_CL_WIDE), /* 'F600'X                 */
      747      794    1   %(%G_ATTR_CL_HDLC|%G_ATTR_CL_V35|%G_ATTR_CL_WIDE), /* 'F700'X                 */
      748      795    1   %(%G_ATTR_CL_HDLC|%G_ATTR_CL_MIL188C|%G_ATTR_CL_WIDE), /* 'F800'X             */
      749      796    1              %(%G_ATTR_CL_ACU),           /* '2120'X                            */
      750      797    1                  %G_ATTR_UR_LP,           /* '2000'X                            */
      751      798    1                  %G_ATTR_UR_LP,           /* '2001'X                            */
      752      799    1                  %G_ATTR_UR_LP,           /* '2002'X                            */
      753      800    1                  %G_ATTR_UR_LP,           /* '2003'X                            */
      754      801    1                  %G_ATTR_UR_LP,           /* '2004'X                            */
      755      802    1                  %G_ATTR_UR_LP,           /* '2006'X                            */
      756      803    1                       '0'X,               /* '2045'X                            */
      757      804    1                       '0'X,               /* '2046'X                            */
      758      805    1                       '0'X,               /* '204D'X                            */
      759      806    1                       '0'X,               /* '204E'X                            */
      760      807    1                       '0'X,               /* '2050'X                            */
      761      808    1                       '0'X,               /* '205B'X                            */
      762      809    1                       '0'X,               /* '2079'X                            */
      763      810    1                       '0'X,               /* '207A'X                            */
      764      811    1                       '0'X,               /* '2018'X                            */
      765      812    1                       '0'X,               /* '2019'X                            */
      766      813    1                       '0'X,               /* '201A'X                            */
PL6.E3A0      #003=GIM$BUILD_CHNTBL File=GIM$MONINIT.:E05TSI                     TUE 07/29/97 21:49 Page:126
      767      814    1                       '0'X,               /* '201C'X                            */
      768      815    1   %(%G_ATTR_CL_SYNC|%G_ATTR_CL_WIDE|%G_ATTR_CL_301), /* '2138'X                 */
      769      816    1   %(%G_ATTR_CL_SYNC|%G_ATTR_CL_RS232),    /* '2158'X                            */
      770      817    1   %(%G_ATTR_CL_SYNC|%G_ATTR_CL_WIDE|%G_ATTR_CL_V35), /* '2168'X                 */
      771      818    1                 %G_ATTR_DK_8IN,           /* '2010'X                            */
      772      819    1   %(%G_ATTR_DK_8IN|%G_ATTR_DK_2SIDED),    /* '2011'X                            */
      773      820    1                %G_ATTR_DK_MINI,           /* '2017'X                            */
      774      821    1   %(G_ATTR_CL_HDLC|G_ATTR_CL_301|G_ATTR_CL_SLCC), /* '2B01'X                    */
      775      822    1   %(G_ATTR_CL_HDLC|G_ATTR_CL_V35|G_ATTR_CL_SLCC), /* '2B02'X                    */
      776      823    1   %(G_ATTR_CL_HDLC|G_ATTR_CL_RS422C|G_ATTR_CL_SLCC), /* '2B04'X                 */
      777      824    1   %(G_ATTR_CL_HDLC|G_ATTR_CL_WIDE|G_ATTR_CL_SLCC), /* '2B05'X                   */
      778      825    1      %(G_ATTR_CL_ASYNC|G_ATTR_CL_RS422C), /* '3A00'X                            */
      779      826    1      %(G_ATTR_CL_SYNC),                   /* '4800'X                            */
      780      827    1      %(G_ATTR_CL_HDLC),                   /* '4900'X                            */
      781      828    1      %(G_ATTR_CL_SYNC|G_ATTR_CL_RS232),   /* '6800'X, FLAP-less                 */
      782      829    1      %(G_ATTR_CL_ASYNC|G_ATTR_CL_RS232),  /* '6900'X Isochronous, FLAP-less     */
      783      830    1      %(G_ATTR_CL_ASYNC|G_ATTR_CL_RS232),  /* '6A00'X, FLAP-less                 */
      784      831    1      %(G_ATTR_CL_SYNC),                   /* '7800'X                            */
      785      832    1      %(G_ATTR_CL_ASYNC),                  /* '7900'X (Isochronous)              */
      786      833    1      %(G_ATTR_CL_ASYNC),                  /* '7A00'X                            */
      787      834    1     %(G_ATTR_UR_LP),                      /* '2031'X                            */
      788      835    1     %(G_ATTR_UR_LP),                      /* '2033'X                            */
      789      836    1     %(G_ATTR_UR_LP),                      /* '20C4'X                            */
      790      837    1     '8000'X,                              /* '01F0'X                            */
      791      838    1     '4000'X,                              /* '01F1'X                            */
      792      839    1     '2000'X,                              /* '01F2'X                            */
      793      840    1     '1000'X,                              /* '01F3'X                            */
      794      841    1     '0800'X,                              /* '01F4'X                            */
      795      842    1     '0400'X,                              /* '01F5'X                            */
      796      843    1     '0200'X,                              /* '01F6'X                            */
      797      844    1     '0100'X,                              /* '01F7'X                            */
      798      845    1     '0080'X,                              /* '01F8'X                            */
      799      846    1     '0040'X,                              /* '01F9'X                            */
      800      847    1     '0020'X,                              /* '01FA'X                            */
      801      848    1     '0010'X,                              /* '01FB'X                            */
      802      849    1     '0008'X,                              /* '01FC'X                            */
      803      850    1     '0004'X,                              /* '01FD'X                            */
PL6.E3A0      #003=GIM$BUILD_CHNTBL File=GIM$MONINIT.:E05TSI                     TUE 07/29/97 21:49 Page:127
      804      851    1     '0002'X,                              /* '01FE'X                            */
      805      852    1     '0001'X,                              /* '01FF'X                            */
      806      853    1                       '0'X*0),
      807      854    1         2 DVCRES CHAR(2) UNAL INIT('CL','CL','CL',
      808      855    1                                        'HL','UR','UR',
      809      856    1                                        'UR','CL','CL',
      810      857    1                                        'CL','CL','CL',
      811      858    1                                        'UR','UR','UR',
      812      859    1                                        'UR','UR','UR',
      813      860    1                                        'MT'*3,
      814      861    1                                        'MT'*3,
      815      862    1                                        'MT','MT','OC',
      816      863    1                                        'OC','OC','OC',
      817      864    1                                        'CL','CL','CL',
      818      865    1                                        'DK','DK','DK',
      819      866    1                                   'CL'*4, /* '2B0x'X (SLCCs)                    */
      820      867    1                                     'CL', /* '3A00'X                            */
      821      868    1                                     'CL', /* '4800'X                            */
      822      869    1                                     'CL', /* '4900'X                            */
      823      870    1                                     'CL', /* '6800'X                            */
      824      871    1                                     'CL', /* '6900'X                            */
      825      872    1                                     'CL', /* '6A00'X                            */
      826      873    1                                     'CL', /* '7800'X                            */
      827      874    1                                     'CL', /* '7900'X                            */
      828      875    1                                     'CL', /* '7A00'X                            */
      829      876    1                                     'UR', /* '2031'X                            */
      830      877    1                                     'UR', /* '2033'X                            */
      831      878    1                                     'UR', /* '20C4'X                            */
      832      879    1                                     'GP', /* '01F0'X                            */
      833      880    1                                     'GP', /* '01F1'X                            */
      834      881    1                                     'GP', /* '01F2'X                            */
      835      882    1                                     'GP', /* '01F3'X                            */
      836      883    1                                     'GP', /* '01F4'X                            */
      837      884    1                                     'GP', /* '01F5'X                            */
      838      885    1                                     'GP', /* '01F6'X                            */
      839      886    1                                     'GP', /* '01F7'X                            */
      840      887    1                                     'GP', /* '01F8'X                            */
PL6.E3A0      #003=GIM$BUILD_CHNTBL File=GIM$MONINIT.:E05TSI                     TUE 07/29/97 21:49 Page:128
      841      888    1                                     'GP', /* '01F9'X                            */
      842      889    1                                     'GP', /* '01FA'X                            */
      843      890    1                                     'GP', /* '01FB'X                            */
      844      891    1                                     'GP', /* '01FC'X                            */
      845      892    1                                     'GP', /* '01FD'X                            */
      846      893    1                                     'GP', /* '01FE'X                            */
      847      894    1                                     'GP', /* '01FF'X                            */
      848      895    1                                        '  '*0);
      849      896
      850      897        /* Table, indexed by the FLAP's extended device ID, yielding
      851      898        additional G_ATTRs to be ORed into the G_ATTRs derived from
      852      899        the adapter's extended device ID.
      853      900        */
      854      901        %EQU Y#FLAP_ATTR_HI = 16;
      855      902    1   DCL Y_FLAP_ATTR (0:%Y#FLAP_ATTR_HI) BIT(16) CONSTANT INIT(
      856      903    1      '0'X,                                /* 00 (none)                          */
      857      904    1      %(G_ATTR_CL_RS232),                  /* 01 (non-NRZI)                      */
      858      905    1      %(G_ATTR_CL_RS422C),                 /* 02 (RS-449 unbalanced)             */
      859      906    1      %(G_ATTR_CL_RS422C),                 /* 03 (RS-449 balanced)               */
      860      907    1      %(G_ATTR_CL_CURLP),                  /* 04                                 */
      861      908    1      %(G_ATTR_CL_WIDE),                   /* 05 (X.21)                          */
      862      909    1      %(G_ATTR_CL_ACU),                    /* 06 (RS366)                         */
      863      910    1      %(G_ATTR_CL_301|G_ATTR_CL_WIDE),     /* 07 (303)                           */
      864      911    1      %(G_ATTR_CL_V35|G_ATTR_CL_WIDE),     /* 08                                 */
      865      912    1      %(G_ATTR_CL_RS232),                  /* 09                                 */
      866      913    1      %(G_ATTR_CL_MIL188C),                /* 0A                                 */
      867      914    1      '0'X*0);                             /* spares                             */
      868      915
      869      916        /* Auto */
      870      917    1   DCL CTRINDX UBIN;
      871      918    1   DCL LSTCTRINDX UBIN;
      872      919    1   DCL DEVICE BIT(16);
      873      920    1   DCL DEVICEU REDEF DEVICE UBIN;
      874      921    1   DCL LASTCHN$ PTR;
      875      922    1   DCL I UBIN;
      876      923        %GH_IO (STCLASS="");
      877      939    1   DCL CHANNEL UBIN;
PL6.E3A0      #003=GIM$BUILD_CHNTBL File=GIM$MONINIT.:E05TSI                     TUE 07/29/97 21:49 Page:129
      878      940
      879      941        /* Entries */
      880      942    1   DCL GHH$IO_IN ENTRY(1) ALTRET;
      881      943
      882      944    1      GH_IO.CAS.FNC = %GH#IO_INPDVCID;
      883      945    1      G$BOBCAT.CHNLOW = 0;
      884      946    1      G$BOBCAT.CHNLOW$ = CHN$;
      885      947
      886      948        /*
      887      949             Find the highest channel
      888      950         */
      889      951    2      DO CHANNEL = 16 TO 1023 BY 2;
      890      952    2           GH_IO.CAS.CHN = CHANNEL;
      891      953    2           CALL GHH$IO_IN(GH_IO)
      892      954    3           WHENRETURN DO;
      893      955    3                G$BOBCAT.MAXCHN = CHANNEL;
      894      956    3                G$BOBCAT.CHNHI = CHANNEL * 64 + 63;
      895      957    3                END;
      896      958    2           END;
      897      959
      898      960    1      CHANNEL = G$BOBCAT.CHNHI / 64;
      899      961    1      CHANNEL = MINIMUM(1023,CHANNEL + GI_PARAMS.PARAMS(%GI_BOOT_PCHANS));
      900      962    1      G$BOBCAT.CHNHI = CHANNEL * 64 + 63;
      901      963
      902      964        /*
      903      965             Now we go through all the channels and fill in the channel table
      904      966         */
      905      967    2      DO CHANNEL = 0 TO G$BOBCAT.CHNHI/64 BY 2;
      906      968
      907      969    2           KH$CHN = GI_CHN;                /* initialize table                   */
      908      970    2           GH_IO.CAS.FNC = %GH#IO_INPDVCID;
      909      971    2           GH_IO.CAS.CHN = CHANNEL;
      910      972    2           IF CHANNEL >= 16                /* Dont do CPU channels               */
      911      973    3           THEN DO;
      912      974    3                CALL GHH$IO_IN(GH_IO)
      913      975    4                WHENRETURN DO;
      914      976    4                     KH$CHN.DVCID = GH_IO.STATUS;
PL6.E3A0      #003=GIM$BUILD_CHNTBL File=GIM$MONINIT.:E05TSI                     TUE 07/29/97 21:49 Page:130
      915      977    4                     END;
      916      978    3                KH$CHN.CHNBIT0_9 = CHANNEL;
      917      979    3                KH$CHN.TERMID.TERM.CHANNEL = CHANNEL * 64;
      918      980    3                KH$CHN.TERMID.LEV = 1;
      919      981    3                IF GI_KEEPDELTA AND CHANNEL = GD_CHN /* Debugger has this channel */
      920      982    3                THEN
      921      983    3                     KH$CHN.STT = %KH#CHN_STT_RMTDBG;
      922      984    3                GH_IO.CAS.FNC = %GH#IO_INPEXTDVCID;
      923      985    3                IF KH$CHN.DVCID = '2178'X OR KH$CHN.DVCID = '2978'X
      924      986    3                THEN
      925      987    3                     CALL GHH$IO_IN(GH_IO)
      926      988    4                     WHENRETURN DO;
      927      989    4                          KH$CHN.EXTDVCID = GH_IO.STATUS;
      928      990    4                          END;
      929      991        /*
      930      992             Determine if this is the first channel on the MLCP or MLC-16
      931      993             and set the CTR bit if it is
      932      994         */
      933      995    4                DO SELECT (KH$CHN.DVCID&'FF00'X);
      934      996    4                     SELECT '2100'X;       /* MLC-8 (MLCP)                       */
      935      997    4                     CTRINDX = (CHANNEL/16)*16;
      936      998    4                     IF KH$CHN.DVCID = '2178'X /* Need extended                  */
      937      999    4                     THEN
      938     1000    4                          DEVICE = KH$CHN.EXTDVCID & 'FF00'X; /* top byte only   */
      939     1001    4                     ELSE
      940     1002    4                          DEVICE = KH$CHN.DVCID;
      941     1003    4                     SELECT '2900'X;       /* MLC-16 (always use extended ID)    */
      942     1004    4                     CTRINDX = (CHANNEL/32)*32;
      943     1005    4                     DEVICE = KH$CHN.EXTDVCID & 'FF00'X;
              1005                              /* top byte (adapter type) only */
      944     1006        /*
      945     1007        If the FLAP extended device ID is legal, prime the ATTR bits with
      946     1008        those corresponding to this FLAP.
      947     1009        */
      948     1010    4                     IF BITBIN(KH$CHN.EXTDVCID & '00FF'X) <= %Y#FLAP_ATTR_HI
      949     1011    4                     THEN
      950     1012    4                          KH$CHN.ATTR = Y_FLAP_ATTR(BITBIN(KH$CHN.EXTDVCID & '00FF'X));
PL6.E3A0      #003=GIM$BUILD_CHNTBL File=GIM$MONINIT.:E05TSI                     TUE 07/29/97 21:49 Page:131
      951     1013    4                     SELECT ELSE;
      952     1014    4                CTRINDX = CHANNEL;
      953     1015    4                DEVICE = KH$CHN.DVCID;
      954     1016    4                     END;                  /* END DO SELECT KH$CHN.DVCID         */
      955     1017    3           IF CTRINDX ~= LSTCTRINDX
      956     1018    3           THEN
      957     1019    3                KH$CHN.CTR = '1'B;
      958     1020    3           LSTCTRINDX = CTRINDX;
      959     1021
      960     1022        /*
      961     1023             Find the RES and ATTR for this device class
      962     1024         */
      963     1025
      964     1026    4           DO I = 0 TO %Y#DVCCLS_HI;
      965     1027    4                IF DEVICE = GI_DVCCLS.DVCID(I)
      966     1028    5                THEN DO;
      967     1029    5                     KH$CHN.RESOURCE = GI_DVCCLS.DVCRES(I);
      968     1030    5                     KH$CHN.ATTR = KH$CHN.ATTR | GI_DVCCLS.DVC_ATTR(I);
      969     1031    5                     IF KH$CHN.CHNBIT0_9 = GI_BOOTCHAN
      970     1032    5                     THEN
      971     1033    5                          KH$CHN.STT = %KH#CHN_STT_UN_INT;
      972     1034    5                     I = %Y#DVCCLS_HI;
      973     1035    5                     END;
      974     1036    4                END;
      975     1037
      976     1038    3                END;
      977     1039    2           G$BOBCAT.CHNHI$ = CHN$;
      978     1040    2           CHN$ = PINCRW(CHN$,SIZEW(KH$CHN));
      979     1041    2           END/*do 0 to chanhi*/;
      980     1042
      981     1043        /*
      982     1044             Initialize the spare channel slots for controlers and devices
      983     1045         */
      984     1046    1      IF G$BOBCAT.DEVICES ~= 0
      985     1047    2      THEN DO;
      986     1048    2           G$BOBCAT.CHNFREE$ = CHN$;
      987     1049    2           KH$CHN = GI_CHN;
PL6.E3A0      #003=GIM$BUILD_CHNTBL File=GIM$MONINIT.:E05TSI                     TUE 07/29/97 21:49 Page:132
      988     1050    2           LASTCHN$ = CHN$;
      989     1051    2           CHN$ = PINCRW(CHN$,SIZEW(KH$CHN));
      990     1052    3           DO I = 1 TO G$BOBCAT.DEVICES;
      991     1053    3                KH$CHN = GI_CHN;
      992     1054    3                LASTCHN$->KH$CHN.LNK$ = CHN$;
      993     1055    3                LASTCHN$ = CHN$;
      994     1056    3                CHN$ = PINCRW(CHN$,SIZEW(KH$CHN));
      995     1057    3                END/*do 1 to devices#*/;
      996     1058    2           END/*do if devices ~=0*/;
      997     1059
      998     1060    2      ELSE DO;
      999     1061    2           G$BOBCAT.CHNFREE$ = ADDR(NIL);
     1000     1062    2           END;
     1001     1063
     1002     1064    1      RETURN;
     1003     1065
     1004     1066    1   END GIM$BUILD_CHNTBL;

PL6.E3A0      #003=GIM$BUILD_CHNTBL File=GIM$MONINIT.:E05TSI                     TUE 07/29/97 21:49 Page:133
--  Include file information  --

   GH_HARDWARE_M.:E05TOU  is referenced.
   GH_IOFNC_E.:E05TOU  is referenced.
   KH$CHN.:E05TOU  is referenced.
   GI_DATA_M.:E05TOU  is referenced.
   GI_BOOT_C.:E05TOU  is referenced.
   G$BOBCAT_M.:E05TOU  is referenced.
   G_LCP6_E.:E05TOU  was found in the system file and is referenced.
   GT_LCP6_M.:E05TOU  was found in the system file and is never referenced.
   KI_CP6.:E05TOU  was found in the system file and is referenced.
   GF_LCP6_M.:E05TOU  was found in the system file and is never referenced.
   GM_LCP6_M.:E05TOU  was found in the system file and is never referenced.
   GU_LCP6_M.:E05TOU  was found in the system file and is never referenced.
   GJ_LCP6_M.:E05TOU  was found in the system file and is never referenced.
   GH_LCP6_M.:E05TOU  was found in the system file and is never referenced.
      No diagnostics issued in procedure GIM$BUILD_CHNTBL.

   Procedure GIM$BUILD_CHNTBL requires 461 words for executable code.
   Procedure GIM$BUILD_CHNTBL requires 18 words of local(AUTO) storage.

    No errors detected in file GIM$MONINIT.:E05TSI    .

PL6.E3A0      #003=GIM$BUILD_CHNTBL File=GIM$MONINIT.:E05TSI                     TUE 07/29/97 21:49 Page:134

 Object Unit name= GIM$BUILD_CHNTBL                           File name= GIM$MONINIT.:E05TOU
 UTS= JUL 29 '97 21:49:46.40 TUE                              Compiler= PL-6/E31         Sev=      00
 SharedLib= :SHARED_LCP6_SYSTEM                               Alt SharedLib=


    ****  Control sections  ****

 Sect   Type Bound  Init  Size HexSiz  Section name
    0  RoData even  UTS    292    124  GIM$BUILD_CHNTBL
    1   Proc  even  none   461    1CD  GIM$BUILD_CHNTBL

    ****  Entry defs  ****

                              Check   Calling
                             calling  sequence
  Sect HexLoc Primary Altret sequence   type   Parms  Name
     1      0   yes            yes      Std        1  GIM$BUILD_CHNTBL

  ****  Data defs  ****

 Sect HexLoc  Name                           Sect HexLoc  Name
    0      0  GI_CHN                             0     20  GI_DVCCLS

  ****  Entry refs  ****

         Check        Calling
        calling       sequence
Altret sequence SRef   type   Args  Name
 yes     yes           Std       1 GHH$IO_IN
                       nStd      0 X6A_AUTO_1
                       nStd      0 X6A_ARET
PL6.E3A0      #003=GIM$BUILD_CHNTBL File=GIM$MONINIT.:E05TSI                     TUE 07/29/97 21:49 Page:135

  ****  Data refs  ****

  Flags:  r = read only, s = secondary
Flgs Name                             Flgs Name                             Flgs Name
     G$BOBCAT$                             GD_CHN                                GI_KEEPDELTA
     GI_BOOTCHAN                           GI_PARAMS                        r    G$ROS$
PL6.E3A0      #003=GIM$BUILD_CHNTBL File=GIM$MONINIT.:E05TSI                     TUE 07/29/97 21:49 Page:136


      656        1        /*T***********************************************************/
      657        2        /*T*                                                         */
      658        3        /*T* Copyright (c) Bull HN Information Systems Inc., 1997    */
      659        4        /*T*                                                         */
      660        5        /*T***********************************************************/
      661        6
      662        7        GIM$BUILD_CHNTBL: PROC (CHN$);

      7   1 000000  D380 0000 0000  xent GIM$BUILD_CHNTBLLNJ,B5   X6A_AUTO_1
          1 000003       0012 0001                       DC       18,1

      663        8
      664        9        %INCLUDE G$BOBCAT_M;
      665       29        %INCLUDE GI_BOOT_C;
      666      140        %INCLUDE GI_DATA_M;
      667      168        %INCLUDE KH$CHN;
      668      290 S      %INCLUDE KI_CP6;
      669      291        %INCLUDE GH_IOFNC_E;
      670      360              %INCLUDE GH_HARDWARE_M;
      671      458 S      %INCLUDE G_LCP6_E;
      672      459
      673      460        /* Parameters */
      674      461    1   DCL CHN$ PTR;
      675      462
      676      463        /* Symrefs */
      677      464    1   DCL G$BOBCAT$ PTR SYMREF;
      678      465    1   DCL GD_CHN UBIN(10) SYMREF;
      679      466    1   DCL GI_KEEPDELTA BIT(1) SYMREF;
      680      467    1   DCL GI_BOOTCHAN UBIN SYMREF;
      681      468        %GI$PARAMS (FPTN=GI_PARAMS,
      682      469                    SYSTEM=LCP6,
      683      470                    STCLASS=SYMREF,
      684      471                    NUM=GI_BOOT_HI);
      685      474
      686      475        /* Based */
      687      476        %KH$CHN (STCLASS="BASED(CHN$)");
PL6.E3A0      #003=GIM$BUILD_CHNTBL File=GIM$MONINIT.:E05TSI                     TUE 07/29/97 21:49 Page:137
      688      600        %G$BOBCAT (STCLASS="BASED(G$BOBCAT$)");
      689      613
      690      614        /* Constant */
      691      615        %KH$CHN (NAME=GI_CHN,STCLASS="CONSTANT SYMDEF");
      692      739
      693      740        %EQU Y#DVCCLS_HI = 80;
      694      741
      695      742    1   DCL 1 GI_DVCCLS(0:%Y#DVCCLS_HI) CONSTANT SYMDEF,
      696      743    1         2 DVCID BIT(16) INIT('2110'X,'2118'X,'F200'X,
      697      744    1                           '2408'X,'2088'X,'2008'X,
      698      745    1                           '208C'X,'2140'X,'F600'X,
      699      746    1                           'F700'X,'F800'X,'2120'X,
      700      747    1                           '2000'X,'2001'X,'2002'X,
      701      748    1                           '2003'X,'2004'X,'2006'X,
      702      749    1                           '2045'X,'2046'X,'204D'X,
      703      750    1                           '204E'X,'2050'X,'205B'X,
      704      751    1                           '2079'X,'207A'X,'2018'X,
      705      752    1                           '2019'X,'201A'X,'201C'X,
      706      753    1                           '2138'X,'2158'X,'2168'X,
      707      754    1                           '2010'X,'2011'X,'2017'X,
      708      755    1          '2B01'X,'2B02'X,'2B04'X,'2B05'X, /* SLCCs                              */
      709      756    1                           '3A00'X,
      710      757    1                           '4800'X,
      711      758    1                           '4900'X,
      712      759    1                           '6800'X,
      713      760    1                           '6900'X,
      714      761    1                           '6A00'X,
      715      762    1                           '7800'X,
      716      763    1                           '7900'X,
      717      764    1                           '7A00'X,
      718      765    1                            '2031'X,
      719      766    1                            '2033'X,
      720      767    1                            '20C4'X,
      721      768    1                            '01F0'X,
      722      769    1                            '01F1'X,
      723      770    1                            '01F2'X,
      724      771    1                            '01F3'X,
PL6.E3A0      #003=GIM$BUILD_CHNTBL File=GIM$MONINIT.:E05TSI                     TUE 07/29/97 21:49 Page:138
      725      772    1                            '01F4'X,
      726      773    1                            '01F5'X,
      727      774    1                            '01F6'X,
      728      775    1                            '01F7'X,
      729      776    1                            '01F8'X,
      730      777    1                            '01F9'X,
      731      778    1                            '01FA'X,
      732      779    1                            '01FB'X,
      733      780    1                            '01FC'X,
      734      781    1                            '01FD'X,
      735      782    1                            '01FE'X,
      736      783    1                            '01FF'X,
      737      784    1                           '0000'X*0),
      738      785    1         2 DVC_ATTR BIT(16) INIT(%(%G_ATTR_CL_ASYNC|%G_ATTR_CL_CURLP), /* '2110'X */
      739      786    1   %(%G_ATTR_CL_ASYNC|%G_ATTR_CL_RS232),   /* '2118'X                            */
      740      787    1   %(%G_ATTR_CL_ASYNC|%G_ATTR_CL_RS422C),  /* 'F200'X                            */
      741      788    1                       '0'B,               /* '2408'X                            */
      742      789    1                  %G_ATTR_UR_CP,           /* '2088'X                            */
      743      790    1                  %G_ATTR_UR_CR,           /* '2008'X                            */
      744      791    1                  %G_ATTR_UR_CR,           /* '208C'X                            */
      745      792    1   %(%G_ATTR_CL_HDLC|%G_ATTR_CL_RS232),    /* '2140'X                            */
      746      793    1   %(%G_ATTR_CL_HDLC|%G_ATTR_CL_301|%G_ATTR_CL_WIDE), /* 'F600'X                 */
      747      794    1   %(%G_ATTR_CL_HDLC|%G_ATTR_CL_V35|%G_ATTR_CL_WIDE), /* 'F700'X                 */
      748      795    1   %(%G_ATTR_CL_HDLC|%G_ATTR_CL_MIL188C|%G_ATTR_CL_WIDE), /* 'F800'X             */
      749      796    1              %(%G_ATTR_CL_ACU),           /* '2120'X                            */
      750      797    1                  %G_ATTR_UR_LP,           /* '2000'X                            */
      751      798    1                  %G_ATTR_UR_LP,           /* '2001'X                            */
      752      799    1                  %G_ATTR_UR_LP,           /* '2002'X                            */
      753      800    1                  %G_ATTR_UR_LP,           /* '2003'X                            */
      754      801    1                  %G_ATTR_UR_LP,           /* '2004'X                            */
      755      802    1                  %G_ATTR_UR_LP,           /* '2006'X                            */
      756      803    1                       '0'X,               /* '2045'X                            */
      757      804    1                       '0'X,               /* '2046'X                            */
      758      805    1                       '0'X,               /* '204D'X                            */
      759      806    1                       '0'X,               /* '204E'X                            */
      760      807    1                       '0'X,               /* '2050'X                            */
      761      808    1                       '0'X,               /* '205B'X                            */
PL6.E3A0      #003=GIM$BUILD_CHNTBL File=GIM$MONINIT.:E05TSI                     TUE 07/29/97 21:49 Page:139
      762      809    1                       '0'X,               /* '2079'X                            */
      763      810    1                       '0'X,               /* '207A'X                            */
      764      811    1                       '0'X,               /* '2018'X                            */
      765      812    1                       '0'X,               /* '2019'X                            */
      766      813    1                       '0'X,               /* '201A'X                            */
      767      814    1                       '0'X,               /* '201C'X                            */
      768      815    1   %(%G_ATTR_CL_SYNC|%G_ATTR_CL_WIDE|%G_ATTR_CL_301), /* '2138'X                 */
      769      816    1   %(%G_ATTR_CL_SYNC|%G_ATTR_CL_RS232),    /* '2158'X                            */
      770      817    1   %(%G_ATTR_CL_SYNC|%G_ATTR_CL_WIDE|%G_ATTR_CL_V35), /* '2168'X                 */
      771      818    1                 %G_ATTR_DK_8IN,           /* '2010'X                            */
      772      819    1   %(%G_ATTR_DK_8IN|%G_ATTR_DK_2SIDED),    /* '2011'X                            */
      773      820    1                %G_ATTR_DK_MINI,           /* '2017'X                            */
      774      821    1   %(G_ATTR_CL_HDLC|G_ATTR_CL_301|G_ATTR_CL_SLCC), /* '2B01'X                    */
      775      822    1   %(G_ATTR_CL_HDLC|G_ATTR_CL_V35|G_ATTR_CL_SLCC), /* '2B02'X                    */
      776      823    1   %(G_ATTR_CL_HDLC|G_ATTR_CL_RS422C|G_ATTR_CL_SLCC), /* '2B04'X                 */
      777      824    1   %(G_ATTR_CL_HDLC|G_ATTR_CL_WIDE|G_ATTR_CL_SLCC), /* '2B05'X                   */
      778      825    1      %(G_ATTR_CL_ASYNC|G_ATTR_CL_RS422C), /* '3A00'X                            */
      779      826    1      %(G_ATTR_CL_SYNC),                   /* '4800'X                            */
      780      827    1      %(G_ATTR_CL_HDLC),                   /* '4900'X                            */
      781      828    1      %(G_ATTR_CL_SYNC|G_ATTR_CL_RS232),   /* '6800'X, FLAP-less                 */
      782      829    1      %(G_ATTR_CL_ASYNC|G_ATTR_CL_RS232),  /* '6900'X Isochronous, FLAP-less     */
      783      830    1      %(G_ATTR_CL_ASYNC|G_ATTR_CL_RS232),  /* '6A00'X, FLAP-less                 */
      784      831    1      %(G_ATTR_CL_SYNC),                   /* '7800'X                            */
      785      832    1      %(G_ATTR_CL_ASYNC),                  /* '7900'X (Isochronous)              */
      786      833    1      %(G_ATTR_CL_ASYNC),                  /* '7A00'X                            */
      787      834    1     %(G_ATTR_UR_LP),                      /* '2031'X                            */
      788      835    1     %(G_ATTR_UR_LP),                      /* '2033'X                            */
      789      836    1     %(G_ATTR_UR_LP),                      /* '20C4'X                            */
      790      837    1     '8000'X,                              /* '01F0'X                            */
      791      838    1     '4000'X,                              /* '01F1'X                            */
      792      839    1     '2000'X,                              /* '01F2'X                            */
      793      840    1     '1000'X,                              /* '01F3'X                            */
      794      841    1     '0800'X,                              /* '01F4'X                            */
      795      842    1     '0400'X,                              /* '01F5'X                            */
      796      843    1     '0200'X,                              /* '01F6'X                            */
      797      844    1     '0100'X,                              /* '01F7'X                            */
      798      845    1     '0080'X,                              /* '01F8'X                            */
PL6.E3A0      #003=GIM$BUILD_CHNTBL File=GIM$MONINIT.:E05TSI                     TUE 07/29/97 21:49 Page:140
      799      846    1     '0040'X,                              /* '01F9'X                            */
      800      847    1     '0020'X,                              /* '01FA'X                            */
      801      848    1     '0010'X,                              /* '01FB'X                            */
      802      849    1     '0008'X,                              /* '01FC'X                            */
      803      850    1     '0004'X,                              /* '01FD'X                            */
      804      851    1     '0002'X,                              /* '01FE'X                            */
      805      852    1     '0001'X,                              /* '01FF'X                            */
      806      853    1                       '0'X*0),
      807      854    1         2 DVCRES CHAR(2) UNAL INIT('CL','CL','CL',
      808      855    1                                        'HL','UR','UR',
      809      856    1                                        'UR','CL','CL',
      810      857    1                                        'CL','CL','CL',
      811      858    1                                        'UR','UR','UR',
      812      859    1                                        'UR','UR','UR',
      813      860    1                                        'MT'*3,
      814      861    1                                        'MT'*3,
      815      862    1                                        'MT','MT','OC',
      816      863    1                                        'OC','OC','OC',
      817      864    1                                        'CL','CL','CL',
      818      865    1                                        'DK','DK','DK',
      819      866    1                                   'CL'*4, /* '2B0x'X (SLCCs)                    */
      820      867    1                                     'CL', /* '3A00'X                            */
      821      868    1                                     'CL', /* '4800'X                            */
      822      869    1                                     'CL', /* '4900'X                            */
      823      870    1                                     'CL', /* '6800'X                            */
      824      871    1                                     'CL', /* '6900'X                            */
      825      872    1                                     'CL', /* '6A00'X                            */
      826      873    1                                     'CL', /* '7800'X                            */
      827      874    1                                     'CL', /* '7900'X                            */
      828      875    1                                     'CL', /* '7A00'X                            */
      829      876    1                                     'UR', /* '2031'X                            */
      830      877    1                                     'UR', /* '2033'X                            */
      831      878    1                                     'UR', /* '20C4'X                            */
      832      879    1                                     'GP', /* '01F0'X                            */
      833      880    1                                     'GP', /* '01F1'X                            */
      834      881    1                                     'GP', /* '01F2'X                            */
      835      882    1                                     'GP', /* '01F3'X                            */
PL6.E3A0      #003=GIM$BUILD_CHNTBL File=GIM$MONINIT.:E05TSI                     TUE 07/29/97 21:49 Page:141
      836      883    1                                     'GP', /* '01F4'X                            */
      837      884    1                                     'GP', /* '01F5'X                            */
      838      885    1                                     'GP', /* '01F6'X                            */
      839      886    1                                     'GP', /* '01F7'X                            */
      840      887    1                                     'GP', /* '01F8'X                            */
      841      888    1                                     'GP', /* '01F9'X                            */
      842      889    1                                     'GP', /* '01FA'X                            */
      843      890    1                                     'GP', /* '01FB'X                            */
      844      891    1                                     'GP', /* '01FC'X                            */
      845      892    1                                     'GP', /* '01FD'X                            */
      846      893    1                                     'GP', /* '01FE'X                            */
      847      894    1                                     'GP', /* '01FF'X                            */
      848      895    1                                        '  '*0);
      849      896
      850      897        /* Table, indexed by the FLAP's extended device ID, yielding
      851      898        additional G_ATTRs to be ORed into the G_ATTRs derived from
      852      899        the adapter's extended device ID.
      853      900        */
      854      901        %EQU Y#FLAP_ATTR_HI = 16;
      855      902    1   DCL Y_FLAP_ATTR (0:%Y#FLAP_ATTR_HI) BIT(16) CONSTANT INIT(
      856      903    1      '0'X,                                /* 00 (none)                          */
      857      904    1      %(G_ATTR_CL_RS232),                  /* 01 (non-NRZI)                      */
      858      905    1      %(G_ATTR_CL_RS422C),                 /* 02 (RS-449 unbalanced)             */
      859      906    1      %(G_ATTR_CL_RS422C),                 /* 03 (RS-449 balanced)               */
      860      907    1      %(G_ATTR_CL_CURLP),                  /* 04                                 */
      861      908    1      %(G_ATTR_CL_WIDE),                   /* 05 (X.21)                          */
      862      909    1      %(G_ATTR_CL_ACU),                    /* 06 (RS366)                         */
      863      910    1      %(G_ATTR_CL_301|G_ATTR_CL_WIDE),     /* 07 (303)                           */
      864      911    1      %(G_ATTR_CL_V35|G_ATTR_CL_WIDE),     /* 08                                 */
      865      912    1      %(G_ATTR_CL_RS232),                  /* 09                                 */
      866      913    1      %(G_ATTR_CL_MIL188C),                /* 0A                                 */
      867      914    1      '0'X*0);                             /* spares                             */
      868      915
      869      916        /* Auto */
      870      917    1   DCL CTRINDX UBIN;
      871      918    1   DCL LSTCTRINDX UBIN;
      872      919    1   DCL DEVICE BIT(16);
PL6.E3A0      #003=GIM$BUILD_CHNTBL File=GIM$MONINIT.:E05TSI                     TUE 07/29/97 21:49 Page:142
      873      920    1   DCL DEVICEU REDEF DEVICE UBIN;
      874      921    1   DCL LASTCHN$ PTR;
      875      922    1   DCL I UBIN;
      876      923        %GH_IO (STCLASS="");
      877      939    1   DCL CHANNEL UBIN;
      878      940
      879      941        /* Entries */
      880      942    1   DCL GHH$IO_IN ENTRY(1) ALTRET;
      881      943
      882      944    1      GH_IO.CAS.FNC = %GH#IO_INPDVCID;

    944   1 000005  6C26                                 LDV,R6   38
          1 000006  EAC7 000C                            SRM,R6,'003F'X    GH_IO,AUTO
          1 000008       003F

      883      945    1      G$BOBCAT.CHNLOW = 0;

    945   1 000009  EC80 0000 0000  xsym                 LDB,B6   G$BOBCAT$
          1 00000C  8746 0034                            CL       52,B6

      884      946    1      G$BOBCAT.CHNLOW$ = CHN$;

    946   1 00000E  DCC7 0004                            LDB,B5   @CHN$,AUTO
          1 000010  CC85                                 LDB,B4   ,B5
          1 000011  CFC6 0038                            STB,B4   56,B6

      885      947
      886      948        /*
      887      949             Find the highest channel
      888      950         */
      889      951    2      DO CHANNEL = 16 TO 1023 BY 2;

    951   1 000013  5C10                                 LDV,R5   16
          1 000014  DF47 000E                            STR,R5   CHANNEL,AUTO

      890      952    2           GH_IO.CAS.CHN = CHANNEL;

PL6.E3A0      #003=GIM$BUILD_CHNTBL File=GIM$MONINIT.:E05TSI                     TUE 07/29/97 21:49 Page:143
    952   1 000016  E847 000E                            LDR,R6   CHANNEL,AUTO
          1 000018  6006                                 SOL,R6   6
          1 000019  EAC7 000C                            SRM,R6,'FFC0'X    GH_IO,AUTO
          1 00001B       FFC0

      891      953    2           CALL GHH$IO_IN(GH_IO)

    953   1 00001C  EBC7 000C                            LAB,B6   GH_IO,AUTO
          1 00001E  EFC7 0010                            STB,B6   CHANNEL+2,AUTO
          1 000020  BBC7 0010                            LAB,B3   CHANNEL+2,AUTO
          1 000022  CBF0 0100                            LAB,B4   256,IMO
          1 000024  E380 0000 0000  xent                 LNJ,B6   GHH$IO_IN
          1 000027       000C                            DC       s:958,PREL

      892      954    3           WHENRETURN DO;

      893      955    3                G$BOBCAT.MAXCHN = CHANNEL;

    955   1 000028  EC80 0000 0000  xsym                 LDB,B6   G$BOBCAT$
          1 00002B  E847 000E                            LDR,R6   CHANNEL,AUTO
          1 00002D  EF46 0036                            STR,R6   54,B6

      894      956    3                G$BOBCAT.CHNHI = CHANNEL * 64 + 63;

    956   1 00002F  6006                                 SOL,R6   6
          1 000030  6E3F                                 ADV,R6   63
          1 000031  EF46 0035                            STR,R6   53,B6

      895      957    3                END;

      896      958    2           END;

    958   1 000033  E847 000E                            LDR,R6   CHANNEL,AUTO
          1 000035  6E02                                 ADV,R6   2
          1 000036  EF47 000E                            STR,R6   CHANNEL,AUTO
          1 000038  E970 03FF                            CMR,R6   1023,IMO
          1 00003A  03DC                                 BLE      s:952,SPREL
PL6.E3A0      #003=GIM$BUILD_CHNTBL File=GIM$MONINIT.:E05TSI                     TUE 07/29/97 21:49 Page:144

      897      959
      898      960    1      CHANNEL = G$BOBCAT.CHNHI / 64;

    960   1 00003B  EC80 0000 0000  xsym                 LDB,B6   G$BOBCAT$
          1 00003E  D846 0035                            LDR,R5   53,B6
          1 000040  5046                                 SOR,R5   6
          1 000041  E855                                 LDR,R6   R5
          1 000042  EF47 000E                            STR,R6   CHANNEL,AUTO

      899      961    1      CHANNEL = MINIMUM(1023,CHANNEL + GI_PARAMS.PARAMS(%GI_BOOT_PCHANS));

    961   1 000044  F856                                 LDR,R7   R6
          1 000045  6C00                                 LDV,R6   0
          1 000046  8400 0000 001A  xsym                 AID      GI_PARAMS+26
          1 000049  8D47 0010                            SDI      CHANNEL+2,AUTO
          1 00004B  84F0 0000 03FF                       SID      1023,IMO
          1 00004E  0681 000A                            BCF      s:961+21,PREL
          1 000050  6981 0003                            BNEZ,R6  s:961+16,PREL
          1 000052  7901 0006                            BEZ,R7   s:961+21,PREL
          1 000054  8CF0 0000 03FF                       LDI      1023,IMO
          1 000057  8D47 0010                            SDI      CHANNEL+2,AUTO
          1 000059  E847 0011                            LDR,R6   CHANNEL+3,AUTO
          1 00005B  EF47 000E                            STR,R6   CHANNEL,AUTO

      900      962    1      G$BOBCAT.CHNHI = CHANNEL * 64 + 63;

    962   1 00005D  6006                                 SOL,R6   6
          1 00005E  6E3F                                 ADV,R6   63
          1 00005F  EF46 0035                            STR,R6   53,B6

      901      963
      902      964        /*
      903      965             Now we go through all the channels and fill in the channel table
      904      966         */
      905      967    2      DO CHANNEL = 0 TO G$BOBCAT.CHNHI/64 BY 2;

PL6.E3A0      #003=GIM$BUILD_CHNTBL File=GIM$MONINIT.:E05TSI                     TUE 07/29/97 21:49 Page:145
    967   1 000061  8747 000E                            CL       CHANNEL,AUTO
          1 000063  0F81 0119                            B        s:1041+5,PREL

      906      968
      907      969    2           KH$CHN = GI_CHN;                /* initialize table                   */

    969   1 000065  ECC7 0004                            LDB,B6   @CHN$,AUTO
          1 000067  DC86                                 LDB,B5   ,B6
          1 000068  AB80 0000 0000  00                   LAB,B2   GI_CHN
          1 00006B  2C00                                 LDV,R2   0
          1 00006C  6C40                                 LDV,R6   64
          1 00006D  BB85                                 LAB,B3   ,B5
          1 00006E  3C00                                 LDV,R3   0
          1 00006F  0008                                 MMM

      908      970    2           GH_IO.CAS.FNC = %GH#IO_INPDVCID;

    970   1 000070  6C26                                 LDV,R6   38
          1 000071  EAC7 000C                            SRM,R6,'003F'X    GH_IO,AUTO
          1 000073       003F

      909      971    2           GH_IO.CAS.CHN = CHANNEL;

    971   1 000074  D847 000E                            LDR,R5   CHANNEL,AUTO
          1 000076  5006                                 SOL,R5   6
          1 000077  DAC7 000C                            SRM,R5,'FFC0'X    GH_IO,AUTO
          1 000079       FFC0

      910      972    2           IF CHANNEL >= 16                /* Dont do CPU channels               */

    972   1 00007A  D847 000E                            LDR,R5   CHANNEL,AUTO
          1 00007C  5D10                                 CMV,R5   16
          1 00007D  0201 00EE                            BL       s:1039,PREL

      911      973    3           THEN DO;

      912      974    3                CALL GHH$IO_IN(GH_IO)
PL6.E3A0      #003=GIM$BUILD_CHNTBL File=GIM$MONINIT.:E05TSI                     TUE 07/29/97 21:49 Page:146

    974   1 00007F  CBC7 000C                            LAB,B4   GH_IO,AUTO
          1 000081  CFC7 0010                            STB,B4   CHANNEL+2,AUTO
          1 000083  BBC7 0010                            LAB,B3   CHANNEL+2,AUTO
          1 000085  CBF0 0100                            LAB,B4   256,IMO
          1 000087  E380 0000 0000  xent                 LNJ,B6   GHH$IO_IN
          1 00008A       0008                            DC       s:978,PREL

      913      975    4                WHENRETURN DO;

      914      976    4                     KH$CHN.DVCID = GH_IO.STATUS;

    976   1 00008B  ECC7 0004                            LDB,B6   @CHN$,AUTO
          1 00008D  DC86                                 LDB,B5   ,B6
          1 00008E  E847 000D                            LDR,R6   GH_IO+1,AUTO
          1 000090  EF45 0002                            STR,R6   2,B5

      915      977    4                     END;

      916      978    3                KH$CHN.CHNBIT0_9 = CHANNEL;

    978   1 000092  ECC7 0004                            LDB,B6   @CHN$,AUTO
          1 000094  DC86                                 LDB,B5   ,B6
          1 000095  E847 000E                            LDR,R6   CHANNEL,AUTO
          1 000097  6006                                 SOL,R6   6
          1 000098  EA85                                 SRM,R6,'FFC0'X    ,B5
          1 000099       FFC0

      917      979    3                KH$CHN.TERMID.TERM.CHANNEL = CHANNEL * 64;

    979   1 00009A  DC86                                 LDB,B5   ,B6
          1 00009B  E847 000E                            LDR,R6   CHANNEL,AUTO
          1 00009D  6006                                 SOL,R6   6
          1 00009E  EF45 0013                            STR,R6   19,B5

      918      980    3                KH$CHN.TERMID.LEV = 1;

PL6.E3A0      #003=GIM$BUILD_CHNTBL File=GIM$MONINIT.:E05TSI                     TUE 07/29/97 21:49 Page:147
    980   1 0000A0  DC86                                 LDB,B5   ,B6
          1 0000A1  5C01                                 LDV,R5   1
          1 0000A2  DAC5 0012                            SRM,R5,'00FF'X    18,B5
          1 0000A4       00FF

      919      981    3                IF GI_KEEPDELTA AND CHANNEL = GD_CHN /* Debugger has this channel */

    981   1 0000A5  8980 0000 0000  xsym                 CMZ      GI_KEEPDELTA
          1 0000A8  0881 000D                            BAGE     s:984,PREL
          1 0000AA  C800 0000 0000  xsym                 LDR,R4   GD_CHN
          1 0000AD  4046                                 SOR,R4   6
          1 0000AE  C947 000E                            CMR,R4   CHANNEL,AUTO
          1 0000B0  0981 0005                            BNE      s:984,PREL

      920      982    3                THEN
      921      983    3                     KH$CHN.STT = %KH#CHN_STT_RMTDBG;

    983   1 0000B2  DC86                                 LDB,B5   ,B6
          1 0000B3  3C0C                                 LDV,R3   12
          1 0000B4  B7C5 0001                            STH,R3   1,B5

      922      984    3                GH_IO.CAS.FNC = %GH#IO_INPEXTDVCID;

    984   1 0000B6  4C08                                 LDV,R4   8
          1 0000B7  CAC7 000C                            SRM,R4,'003F'X    GH_IO,AUTO
          1 0000B9       003F

      923      985    3                IF KH$CHN.DVCID = '2178'X OR KH$CHN.DVCID = '2978'X

    985   1 0000BA  DC86                                 LDB,B5   ,B6
          1 0000BB  B845 0002                            LDR,R3   2,B5
          1 0000BD  B970 2178                            CMR,R3   8568,IMO
          1 0000BF  0901 0005                            BE       s:987,PREL
          1 0000C1  B970 2978                            CMR,R3   10616,IMO
          1 0000C3  0981 0014                            BNE      s:995,PREL

      924      986    3                THEN
PL6.E3A0      #003=GIM$BUILD_CHNTBL File=GIM$MONINIT.:E05TSI                     TUE 07/29/97 21:49 Page:148
      925      987    3                     CALL GHH$IO_IN(GH_IO)

    987   1 0000C5  CBC7 000C                            LAB,B4   GH_IO,AUTO
          1 0000C7  CFC7 0010                            STB,B4   CHANNEL+2,AUTO
          1 0000C9  BBC7 0010                            LAB,B3   CHANNEL+2,AUTO
          1 0000CB  CBF0 0100                            LAB,B4   256,IMO
          1 0000CD  E380 0000 0000  xent                 LNJ,B6   GHH$IO_IN
          1 0000D0       0008                            DC       s:995,PREL

      926      988    4                     WHENRETURN DO;

      927      989    4                          KH$CHN.EXTDVCID = GH_IO.STATUS;

    989   1 0000D1  ECC7 0004                            LDB,B6   @CHN$,AUTO
          1 0000D3  DC86                                 LDB,B5   ,B6
          1 0000D4  E847 000D                            LDR,R6   GH_IO+1,AUTO
          1 0000D6  EF45 0003                            STR,R6   3,B5

      928      990    4                          END;

      929      991        /*
      930      992             Determine if this is the first channel on the MLCP or MLC-16
      931      993             and set the CTR bit if it is
      932      994         */
      933      995    4                DO SELECT (KH$CHN.DVCID&'FF00'X);

    995   1 0000D8  ECC7 0004                            LDB,B6   @CHN$,AUTO
          1 0000DA  DC86                                 LDB,B5   ,B6
          1 0000DB  E845 0002                            LDR,R6   2,B5
          1 0000DD  E570 FF00                            AND,R6   -256,IMO
          1 0000DF  E970 2100                            CMR,R6   8448,IMO
          1 0000E1  0201 0040                            BL       s:1014,PREL
          1 0000E3  0901 0007                            BE       s:997,PREL
          1 0000E5  E970 2900                            CMR,R6   10496,IMO
          1 0000E7  0981 003A                            BNE      s:1014,PREL
          1 0000E9  0F81 0019                            B        s:1004,PREL

PL6.E3A0      #003=GIM$BUILD_CHNTBL File=GIM$MONINIT.:E05TSI                     TUE 07/29/97 21:49 Page:149
      934      996    4                     SELECT '2100'X;       /* MLC-8 (MLCP)                       */

      935      997    4                     CTRINDX = (CHANNEL/16)*16;

    997   1 0000EB  E847 000E                            LDR,R6   CHANNEL,AUTO
          1 0000ED  6044                                 SOR,R6   4
          1 0000EE  6004                                 SOL,R6   4
          1 0000EF  EF47 0006                            STR,R6   CTRINDX,AUTO

      936      998    4                     IF KH$CHN.DVCID = '2178'X /* Need extended                  */

    998   1 0000F1  D845 0002                            LDR,R5   2,B5
          1 0000F3  D970 2178                            CMR,R5   8568,IMO
          1 0000F5  0981 0009                            BNE      s:1002,PREL

      937      999    4                     THEN
      938     1000    4                          DEVICE = KH$CHN.EXTDVCID & 'FF00'X; /* top byte only   */

   1000   1 0000F7  C845 0003                            LDR,R4   3,B5
          1 0000F9  C570 FF00                            AND,R4   -256,IMO
          1 0000FB  CF47 0008                            STR,R4   DEVICE,AUTO
          1 0000FD  0F81 002C                            B        s:1017,PREL

      939     1001    4                     ELSE
      940     1002    4                          DEVICE = KH$CHN.DVCID;

   1002   1 0000FF  DF47 0008                            STR,R5   DEVICE,AUTO
          1 000101  0F81 0028                            B        s:1017,PREL

      941     1003    4                     SELECT '2900'X;       /* MLC-16 (always use extended ID)    */

      942     1004    4                     CTRINDX = (CHANNEL/32)*32;

   1004   1 000103  E847 000E                            LDR,R6   CHANNEL,AUTO
          1 000105  6045                                 SOR,R6   5
          1 000106  6005                                 SOL,R6   5
          1 000107  EF47 0006                            STR,R6   CTRINDX,AUTO
PL6.E3A0      #003=GIM$BUILD_CHNTBL File=GIM$MONINIT.:E05TSI                     TUE 07/29/97 21:49 Page:150

      943     1005    4                     DEVICE = KH$CHN.EXTDVCID & 'FF00'X;
              1005                              /* top byte (adapter type) only */

   1005   1 000109  D845 0003                            LDR,R5   3,B5
          1 00010B  D570 FF00                            AND,R5   -256,IMO
          1 00010D  DF47 0008                            STR,R5   DEVICE,AUTO

      944     1006        /*
      945     1007        If the FLAP extended device ID is legal, prime the ATTR bits with
      946     1008        those corresponding to this FLAP.
      947     1009        */
      948     1010    4                     IF BITBIN(KH$CHN.EXTDVCID & '00FF'X) <= %Y#FLAP_ATTR_HI

   1010   1 00010F  C845 0003                            LDR,R4   3,B5
          1 000111  C570 00FF                            AND,R4   255,IMO
          1 000113  4D10                                 CMV,R4   16
          1 000114  0301 0015                            BG       s:1017,PREL

      949     1011    4                     THEN
      950     1012    4                         KH$CHN.ATTR = Y_FLAP_ATTR(BITBIN(KH$CHN.EXTDVCID & '00FF'X));

   1012   1 000116  C845 0003                            LDR,R4   3,B5
          1 000118  C570 00FF                            AND,R4   255,IMO
          1 00011A  B854                                 LDR,R3   R4
          1 00011B  C830 0000 0113  00                   LDR,R4   Y_FLAP_ATTR,R3
          1 00011E  CF45 0005                            STR,R4   5,B5
          1 000120  0F81 0009                            B        s:1017,PREL

      951     1013    4                     SELECT ELSE;

      952     1014    4                CTRINDX = CHANNEL;

   1014   1 000122  E847 000E                            LDR,R6   CHANNEL,AUTO
          1 000124  EF47 0006                            STR,R6   CTRINDX,AUTO

      953     1015    4                DEVICE = KH$CHN.DVCID;
PL6.E3A0      #003=GIM$BUILD_CHNTBL File=GIM$MONINIT.:E05TSI                     TUE 07/29/97 21:49 Page:151

   1015   1 000126  D845 0002                            LDR,R5   2,B5
          1 000128  DF47 0008                            STR,R5   DEVICE,AUTO

      954     1016    4                     END;                  /* END DO SELECT KH$CHN.DVCID         */

      955     1017    3           IF CTRINDX ~= LSTCTRINDX

   1017   1 00012A  E947 0007                            CMR,R6   LSTCTRINDX,AUTO
          1 00012C  0901 0005                            BE       s:1020,PREL

      956     1018    3           THEN
      957     1019    3                KH$CHN.CTR = '1'B;

   1019   1 00012E  DC86                                 LDB,B5   ,B6
          1 00012F  8945 0007                            LBT,'0020'X       7,B5
          1 000131       0020

      958     1020    3           LSTCTRINDX = CTRINDX;

   1020   1 000132  EF47 0007                            STR,R6   LSTCTRINDX,AUTO

      959     1021
      960     1022        /*
      961     1023             Find the RES and ATTR for this device class
      962     1024         */
      963     1025
      964     1026    4           DO I = 0 TO %Y#DVCCLS_HI;

   1026   1 000134  8747 000B                            CL       I,AUTO

      965     1027    4                IF DEVICE = GI_DVCCLS.DVCID(I)

   1027   1 000136  E847 0008                            LDR,R6   DEVICE,AUTO
          1 000138  B847 000B                            LDR,R3   I,AUTO
          1 00013A  3F03                                 MLV,R3   3
          1 00013B  E930 0000 0020  00                   CMR,R6   GI_DVCCLS,R3
PL6.E3A0      #003=GIM$BUILD_CHNTBL File=GIM$MONINIT.:E05TSI                     TUE 07/29/97 21:49 Page:152
          1 00013E  0981 0027                            BNE      s:1036,PREL

      966     1028    5                THEN DO;

      967     1029    5                     KH$CHN.RESOURCE = GI_DVCCLS.DVCRES(I);

   1029   1 000140  ECC7 0004                            LDB,B6   @CHN$,AUTO
          1 000142  DC86                                 LDB,B5   ,B6
          1 000143  AB80 0000 0000  00                   LAB,B2   GI_CHN
          1 000146  A847 000B                            LDR,R2   I,AUTO
          1 000148  2F06                                 MLV,R2   6
          1 000149  2E44                                 ADV,R2   68
          1 00014A  6C02                                 LDV,R6   2
          1 00014B  BB85                                 LAB,B3   ,B5
          1 00014C  3C08                                 LDV,R3   8
          1 00014D  0008                                 MMM

      968     1030    5                     KH$CHN.ATTR = KH$CHN.ATTR | GI_DVCCLS.DVC_ATTR(I);

   1030   1 00014E  CC86                                 LDB,B4   ,B6
          1 00014F  B847 000B                            LDR,R3   I,AUTO
          1 000151  3F03                                 MLV,R3   3
          1 000152  E844 0005                            LDR,R6   5,B4
          1 000154  E430 0000 0021  00                   OR,R6    GI_DVCCLS+1,R3
          1 000157  EF44 0005                            STR,R6   5,B4

      969     1031    5                     IF KH$CHN.CHNBIT0_9 = GI_BOOTCHAN

   1031   1 000159  CC86                                 LDB,B4   ,B6
          1 00015A  E804                                 LDR,R6   ,B4
          1 00015B  6046                                 SOR,R6   6
          1 00015C  E900 0000 0000  xsym                 CMR,R6   GI_BOOTCHAN
          1 00015F  0981 0003                            BNE      s:1034,PREL

      970     1032    5                     THEN
      971     1033    5                          KH$CHN.STT = %KH#CHN_STT_UN_INT;

PL6.E3A0      #003=GIM$BUILD_CHNTBL File=GIM$MONINIT.:E05TSI                     TUE 07/29/97 21:49 Page:153
   1033   1 000161  87C4 0001                            CLH      1,B4

      972     1034    5                     I = %Y#DVCCLS_HI;

   1034   1 000163  6C50                                 LDV,R6   80
          1 000164  EF47 000B                            STR,R6   I,AUTO

      973     1035    5                     END;

      974     1036    4                END;

   1036   1 000166  8AC7 000B                            INC      I,AUTO
          1 000168  E847 000B                            LDR,R6   I,AUTO
          1 00016A  6D50                                 CMV,R6   80
          1 00016B  03CB                                 BLE      s:1027,SPREL

      975     1037
      976     1038    3                END;

      977     1039    2           G$BOBCAT.CHNHI$ = CHN$;

   1039   1 00016C  ECC7 0004                            LDB,B6   @CHN$,AUTO
          1 00016E  DC86                                 LDB,B5   ,B6
          1 00016F  CC80 0000 0000  xsym                 LDB,B4   G$BOBCAT$
          1 000172  DFC4 003A                            STB,B5   58,B4

      978     1040    2           CHN$ = PINCRW(CHN$,SIZEW(KH$CHN));

   1040   1 000174  BC86                                 LDB,B3   ,B6
          1 000175  ABC3 0020                            LAB,B2   32,B3
          1 000177  AF86                                 STB,B2   ,B6

      979     1041    2           END/*do 0 to chanhi*/;

   1041   1 000178  E847 000E                            LDR,R6   CHANNEL,AUTO
          1 00017A  6E02                                 ADV,R6   2
          1 00017B  EF47 000E                            STR,R6   CHANNEL,AUTO
PL6.E3A0      #003=GIM$BUILD_CHNTBL File=GIM$MONINIT.:E05TSI                     TUE 07/29/97 21:49 Page:154
          1 00017D  EC80 0000 0000  xsym                 LDB,B6   G$BOBCAT$
          1 000180  E846 0035                            LDR,R6   53,B6
          1 000182  6046                                 SOR,R6   6
          1 000183  E947 000E                            CMR,R6   CHANNEL,AUTO
          1 000185  0281 FEDF                            BGE      s:969,PREL

      980     1042
      981     1043        /*
      982     1044             Initialize the spare channel slots for controlers and devices
      983     1045         */
      984     1046    1      IF G$BOBCAT.DEVICES ~= 0

   1046   1 000187  E846 0017                            LDR,R6   23,B6
          1 000189  6901 003B                            BEZ,R6   s:1061,PREL

      985     1047    2      THEN DO;

      986     1048    2           G$BOBCAT.CHNFREE$ = CHN$;

   1048   1 00018B  DCC7 0004                            LDB,B5   @CHN$,AUTO
          1 00018D  CC85                                 LDB,B4   ,B5
          1 00018E  CFC6 003C                            STB,B4   60,B6

      987     1049    2           KH$CHN = GI_CHN;

   1049   1 000190  BC85                                 LDB,B3   ,B5
          1 000191  AB80 0000 0000  00                   LAB,B2   GI_CHN
          1 000194  2C00                                 LDV,R2   0
          1 000195  6C40                                 LDV,R6   64
          1 000196  3C00                                 LDV,R3   0
          1 000197  0008                                 MMM

      988     1050    2           LASTCHN$ = CHN$;

   1050   1 000198  EC85                                 LDB,B6   ,B5
          1 000199  EFC7 0009                            STB,B6   LASTCHN$,AUTO

PL6.E3A0      #003=GIM$BUILD_CHNTBL File=GIM$MONINIT.:E05TSI                     TUE 07/29/97 21:49 Page:155
      989     1051    2           CHN$ = PINCRW(CHN$,SIZEW(KH$CHN));

   1051   1 00019B  CBC6 0020                            LAB,B4   32,B6
          1 00019D  CF85                                 STB,B4   ,B5

      990     1052    3           DO I = 1 TO G$BOBCAT.DEVICES;

   1052   1 00019E  6C01                                 LDV,R6   1
          1 00019F  EF47 000B                            STR,R6   I,AUTO
          1 0001A1  0F81 0019                            B        s:1057+2,PREL

      991     1053    3                KH$CHN = GI_CHN;

   1053   1 0001A3  ECC7 0004                            LDB,B6   @CHN$,AUTO
          1 0001A5  DC86                                 LDB,B5   ,B6
          1 0001A6  AB80 0000 0000  00                   LAB,B2   GI_CHN
          1 0001A9  2C00                                 LDV,R2   0
          1 0001AA  6C40                                 LDV,R6   64
          1 0001AB  BB85                                 LAB,B3   ,B5
          1 0001AC  3C00                                 LDV,R3   0
          1 0001AD  0008                                 MMM

      992     1054    3                LASTCHN$->KH$CHN.LNK$ = CHN$;

   1054   1 0001AE  CC86                                 LDB,B4   ,B6
          1 0001AF  ACC7 0009                            LDB,B2   LASTCHN$,AUTO
          1 0001B1  CFC2 001C                            STB,B4   28,B2

      993     1055    3                LASTCHN$ = CHN$;

   1055   1 0001B3  9C86                                 LDB,B1   ,B6
          1 0001B4  9FC7 0009                            STB,B1   LASTCHN$,AUTO

      994     1056    3                CHN$ = PINCRW(CHN$,SIZEW(KH$CHN));

   1056   1 0001B6  CBC1 0020                            LAB,B4   32,B1
          1 0001B8  CF86                                 STB,B4   ,B6
PL6.E3A0      #003=GIM$BUILD_CHNTBL File=GIM$MONINIT.:E05TSI                     TUE 07/29/97 21:49 Page:156

      995     1057    3                END/*do 1 to devices#*/;

   1057   1 0001B9  8AC7 000B                            INC      I,AUTO
          1 0001BB  EC80 0000 0000  xsym                 LDB,B6   G$BOBCAT$
          1 0001BE  E847 000B                            LDR,R6   I,AUTO
          1 0001C0  E946 0017                            CMR,R6   23,B6
          1 0001C2  03E1                                 BLE      s:1053,SPREL

      996     1058    2           END/*do if devices ~=0*/;

   1058   1 0001C3  0F81 0006                            B        s:1064,PREL

      997     1059
      998     1060    2      ELSE DO;

      999     1061    2           G$BOBCAT.CHNFREE$ = ADDR(NIL);

   1061   1 0001C5  DB80 0000 0000                       LAB,B5   0
          1 0001C8  DFC6 003C                            STB,B5   60,B6

     1000     1062    2           END;

     1001     1063
     1002     1064    1      RETURN;

   1064   1 0001CA  C380 0000 0000  xent                 LNJ,B4   X6A_ARET
     1003     1065
     1004     1066    1   END GIM$BUILD_CHNTBL;

PL6.E3A0      #003=GIM$BUILD_CHNTBL File=GIM$MONINIT.:E05TSI                     TUE 07/29/97 21:49 Page:157
--  Include file information  --

   GH_HARDWARE_M.:E05TOU  is referenced.
   GH_IOFNC_E.:E05TOU  is referenced.
   KH$CHN.:E05TOU  is referenced.
   GI_DATA_M.:E05TOU  is referenced.
   GI_BOOT_C.:E05TOU  is referenced.
   G$BOBCAT_M.:E05TOU  is referenced.
   G_LCP6_E.:E05TOU  was found in the system file and is referenced.
   GT_LCP6_M.:E05TOU  was found in the system file and is never referenced.
   KI_CP6.:E05TOU  was found in the system file and is referenced.
   GF_LCP6_M.:E05TOU  was found in the system file and is never referenced.
   GM_LCP6_M.:E05TOU  was found in the system file and is never referenced.
   GU_LCP6_M.:E05TOU  was found in the system file and is never referenced.
   GJ_LCP6_M.:E05TOU  was found in the system file and is never referenced.
   GH_LCP6_M.:E05TOU  was found in the system file and is never referenced.
      No diagnostics issued in procedure GIM$BUILD_CHNTBL.
PL6.E3A0      #003=GIM$BUILD_CHNTBL File=GIM$MONINIT.:E05TSI                     TUE 07/29/97 21:49 Page:158

 **** Variables and constants ****

  ****  Section 000 RoData GIM$BUILD_CHNTBL

  ****  Scalars and arrays  ****
HexLoc.c.b A Datatyp(siz) R M Lvl/name                 HexLoc.c.b A Datatyp(siz) R M Lvl/name

     0-0-0/w STRC(512)   r     1 GI_CHN
    20-0-0/c STRC(48)    r     1 GI_DVCCLS(0:80)
   113-0-0/b BIT (16)    r     1 Y_FLAP_ATTR(0:16)

  ****  Auto variables  ****

  ****  Scalars and arrays  ****
HexLoc.c.b A Datatyp(siz) R M Lvl/name                 HexLoc.c.b A Datatyp(siz) R M Lvl/name

     4-0-0/w PTR         r     1 @CHN$                      E-0-0/w UBIN(16)    r     1 CHANNEL
    *0-0-0/w PTR         r     1 CHN$                       6-0-0/w UBIN(16)    r     1 CTRINDX
     8-0-0/b BIT (16)    r     1 DEVICE                     C-0-0/w STRC(32)    r     1 GH_IO
     B-0-0/w UBIN(16)    r     1 I                          9-0-0/w PTR         r     1 LASTCHN$
     7-0-0/w UBIN(16)    r     1 LSTCTRINDX

  ****  SYMREF variables  ****

  ****  Scalars and arrays  ****
HexLoc.c.b A Datatyp(siz) R M Lvl/name                 HexLoc.c.b A Datatyp(siz) R M Lvl/name

     0-0-0/w PTR         r     1 G$BOBCAT$                  0-0-0/w UBIN(10)    r     1 GD_CHN
     0-0-0/w UBIN(16)    r     1 GI_BOOTCHAN                0-0-0/b BIT         r     1 GI_KEEPDELTA
     0-0-0/w STRC(512)   r     1 GI_PARAMS

  ****  BASED and DCB variables  ****

  ****  Scalars and arrays  ****
HexLoc.c.b A Datatyp(siz) R M Lvl/name                 HexLoc.c.b A Datatyp(siz) R M Lvl/name

     0-0-0/w STRC(1696)  r     1 G$BOBCAT                   0-0-0/w STRC(512)   r     1 KH$CHN
PL6.E3A0      #003=GIM$BUILD_CHNTBL File=GIM$MONINIT.:E05TSI                     TUE 07/29/97 21:49 Page:159


   Procedure GIM$BUILD_CHNTBL requires 461 words for executable code.
   Procedure GIM$BUILD_CHNTBL requires 18 words of local(AUTO) storage.

    No errors detected in file GIM$MONINIT.:E05TSI    .
PL6.E3A0      #003=GIM$BUILD_CHNTBL File=GIM$MONINIT.:E05TSI                     TUE 07/29/97 21:49 Page:160
          *** CROSS REFERENCE LISTING ***
**     DENOTES     IDENTIFIER DEFINITION
<<                 IDENTIFIER'S VALUE SET
>>                 IDENTIFIER'S VALUE USED
<>                 IDENTIFIER SET AND/OR USED
--                 IDENTIFIER REFERENCED
PL6.E3A0      #003=GIM$BUILD_CHNTBL File=GIM$MONINIT.:E05TSI                     TUE 07/29/97 21:49 Page:161
          MINI XREF LISTING

CHANNEL
       939**DCL       951<<DOINDEX   952>>ASSIGN    955>>ASSIGN    956>>ASSIGN    960<<ASSIGN    961<<ASSIGN
       961>>ASSIGN    962>>ASSIGN    967<<DOINDEX   971>>ASSIGN    972>>IF        978>>ASSIGN    979>>ASSIGN
       981>>IF        997>>ASSIGN   1004>>ASSIGN   1014>>ASSIGN
CHN$
       461**DCL         7--PROC      491--IMP-PTR   946>>ASSIGN    969>>ASSIGN    976>>ASSIGN    978>>ASSIGN
       979>>ASSIGN    980>>ASSIGN    983>>ASSIGN    985>>IF        985>>IF        989>>ASSIGN    995>>DOSELCT
       998>>IF       1000>>ASSIGN   1002>>ASSIGN   1005>>ASSIGN   1010>>IF       1012>>ASSIGN   1012>>ASSIGN
      1015>>ASSIGN   1019>>ASSIGN   1029>>ASSIGN   1030>>ASSIGN   1030>>ASSIGN   1031>>IF       1033>>ASSIGN
      1039>>ASSIGN   1040<<ASSIGN   1040>>ASSIGN   1048>>ASSIGN   1049>>ASSIGN   1050>>ASSIGN   1051<<ASSIGN
      1051>>ASSIGN   1053>>ASSIGN   1054>>ASSIGN   1055>>ASSIGN   1056<<ASSIGN   1056>>ASSIGN
CTRINDX
       917**DCL       997<<ASSIGN   1004<<ASSIGN   1014<<ASSIGN   1017>>IF       1020>>ASSIGN
DEVICE
       919**DCL       920--REDEF    1000<<ASSIGN   1002<<ASSIGN   1005<<ASSIGN   1015<<ASSIGN   1027>>IF
G$BOBCAT.CHNFREE$
       608**DCL      1048<<ASSIGN   1061<<ASSIGN
G$BOBCAT.CHNHI
       607**DCL       956<<ASSIGN    960>>ASSIGN    962<<ASSIGN    967>>DOINDEX
G$BOBCAT.CHNHI$
       608**DCL      1039<<ASSIGN
G$BOBCAT.CHNLOW
       607**DCL       945<<ASSIGN
G$BOBCAT.CHNLOW$
       608**DCL       946<<ASSIGN
G$BOBCAT.DEVICES
       604**DCL      1046>>IF       1052>>DOINDEX
G$BOBCAT.MAXCHN
       607**DCL       955<<ASSIGN
G$BOBCAT$
       464**DCL       601--IMP-PTR   945>>ASSIGN    946>>ASSIGN    955>>ASSIGN    956>>ASSIGN    960>>ASSIGN
       962>>ASSIGN    967>>DOINDEX  1039>>ASSIGN   1046>>IF       1048>>ASSIGN   1052>>DOINDEX  1061>>ASSIGN
PL6.E3A0      #003=GIM$BUILD_CHNTBL File=GIM$MONINIT.:E05TSI                     TUE 07/29/97 21:49 Page:162
GD_CHN
       465**DCL       981>>IF
GHH$IO_IN
       942**DCL-ENT   953--CALL      974--CALL      987--CALL
GH_IO
       934**DCL       953<>CALL      974<>CALL      987<>CALL
GH_IO.CAS.CHN
       934**DCL       934--REDEF     952<<ASSIGN    971<<ASSIGN
GH_IO.CAS.FNC
       935**DCL       944<<ASSIGN    970<<ASSIGN    984<<ASSIGN
GH_IO.DAS
       935**DCL       936--REDEF     937--REDEF
GH_IO.STATUS
       937**DCL       976>>ASSIGN    989>>ASSIGN
GI_BOOTCHAN
       467**DCL      1031>>IF
GI_CHN
       630**DCL       969>>ASSIGN   1049>>ASSIGN   1053>>ASSIGN
GI_CHN.TERMID.TERM
       726**DCL       735--REDEF
GI_DVCCLS.DVCID
       743**DCL      1027>>IF
GI_DVCCLS.DVCRES
       854**DCL      1029>>ASSIGN
GI_DVCCLS.DVC_ATTR
       785**DCL      1030>>ASSIGN
GI_KEEPDELTA
       466**DCL       981>>IF
GI_PARAMS.PARAMS
       472**DCL       961>>ASSIGN
I
       922**DCL      1026<<DOINDEX  1027>>IF       1029>>ASSIGN   1030>>ASSIGN   1034<<ASSIGN   1052<<DOINDEX
KH$CHN
       491**DCL       969<<ASSIGN   1040--ASSIGN   1049<<ASSIGN   1051--ASSIGN   1053<<ASSIGN   1056--ASSIGN
KH$CHN.ATTR
       524**DCL      1012<<ASSIGN   1030<<ASSIGN   1030>>ASSIGN
PL6.E3A0      #003=GIM$BUILD_CHNTBL File=GIM$MONINIT.:E05TSI                     TUE 07/29/97 21:49 Page:163
KH$CHN.CHNBIT0_9
       498**DCL       978<<ASSIGN   1031>>IF
KH$CHN.CTR
       534**DCL      1019<<ASSIGN
KH$CHN.DVCID
       517**DCL       976<<ASSIGN    985>>IF        985>>IF        995>>DOSELCT   998>>IF       1002>>ASSIGN
      1015>>ASSIGN
KH$CHN.EXTDVCID
       517**DCL       989<<ASSIGN   1000>>ASSIGN   1005>>ASSIGN   1010>>IF       1012>>ASSIGN
KH$CHN.LNK$
       598**DCL      1054<<ASSIGN
KH$CHN.RESOURCE
       519**DCL      1029<<ASSIGN
KH$CHN.STT
       507**DCL       983<<ASSIGN   1033<<ASSIGN
KH$CHN.TERMID.LEV
       587**DCL       980<<ASSIGN
KH$CHN.TERMID.TERM
       587**DCL       596--REDEF
KH$CHN.TERMID.TERM.CHANNEL
       593**DCL       979<<ASSIGN
LASTCHN$
       921**DCL      1050<<ASSIGN   1054>>ASSIGN   1055<<ASSIGN
LSTCTRINDX
       918**DCL      1017>>IF       1020<<ASSIGN
Y_FLAP_ATTR
       902**DCL      1012>>ASSIGN
