PL6.E3A0      #003=GJA$NA_INFO File=GJA$ADMIN.:E05TSI                            TUE 07/29/97 21:55 Page:575
     3204        1        /*T***********************************************************/
     3205        2        /*T*                                                         */
     3206        3        /*T* Copyright (c) Bull HN Information Systems Inc., 1997    */
     3207        4        /*T*                                                         */
     3208        5        /*T***********************************************************/
     3209        6        GJA$NA_INFO: PROC (KL$CONTROL) ALTRET;
     3210        7        %INCLUDE LCP_6;
     3211     4286        %INCLUDE KL_CONTROL_C;
     3212     4666        %INCLUDE KL_MACRO_C;
     3213     8018
     3214     8019        %KL_CONTROL(FPTN=KL$CONTROL,STCLASS="");
     3215     8156    1   DCL GJA_INTLEV UBIN SYMREF;
     3216     8157    1   DCL GJA_ATTR UBIN(16) SYMREF;
     3217     8158    1   DCL GJA_HOPCOST UBIN SYMREF;
     3218     8159    1   DCL GJA_RCQSIZE UBIN SYMREF;
     3219     8160    1   DCL GJA_SCQSIZE UBIN SYMREF;
     3220     8161    1   DCL GJA_RETRYMAX UBIN SYMREF;
     3221     8162    1   DCL GJA_MEMORY UBIN SYMREF;
     3222     8163
     3223     8164    1      IF KL$CONTROL.CMD = %KL_CONTROL_SET THEN
     3224     8165    1           KL$CONTROL.VALUE = 0;
     3225     8166    2      ELSE DO;
     3226     8167    2           KL$CONTROL.TYPE = 1;
     3227     8168    3           DO CASE (KL$CONTROL.PARMX);
     3228     8169
     3229     8170    3            CASE (%KL_HNDLRPARM_INTLVL);
     3230     8171    3              KL$CONTROL.VALUE = GJA_INTLEV;
     3231     8172
     3232     8173    3            CASE (%KL_HNDLRPARM_ATTR);
     3233     8174    3              KL$CONTROL.VALUE = GJA_ATTR;
     3234     8175
     3235     8176    3            CASE (%KL_HNDLRPARM_HOPCOST);
     3236     8177    3              KL$CONTROL.VALUE = GJA_HOPCOST;
     3237     8178
     3238     8179    3            CASE (%KL_HNDLRPARM_RCVCQBYTSIZ);
     3239     8180    3              KL$CONTROL.VALUE = GJA_RCQSIZE;
     3240     8181
PL6.E3A0      #003=GJA$NA_INFO File=GJA$ADMIN.:E05TSI                            TUE 07/29/97 21:55 Page:576
     3241     8182    3            CASE (%KL_HNDLRPARM_SNDCQBYTSIZ);
     3242     8183    3              KL$CONTROL.VALUE = GJA_SCQSIZE;
     3243     8184
     3244     8185    3            CASE (%KL_HNDLRPARM_LGNRTRYNUM);
     3245     8186    3              KL$CONTROL.VALUE = GJA_RETRYMAX;
     3246     8187
     3247     8188    3            CASE (%KL_HNDLRPARM_MEM);
     3248     8189    3              KL$CONTROL.VALUE = GJA_MEMORY;
     3249     8190
     3250     8191    3            CASE (ELSE);
     3251     8192    3              KL$CONTROL.VALUE = 0;
     3252     8193    3              KL$CONTROL.TYPE = 0;
     3253     8194    3              END;
     3254     8195    2           END;
     3255     8196    1   END GJA$NA_INFO;
     3256     8197        %EOD;

PL6.E3A0      #003=GJA$NA_INFO File=GJA$ADMIN.:E05TSI                            TUE 07/29/97 21:55 Page:577
--  Include file information  --

   KL_MACRO_C.:E05TOU  is referenced.
   KL_CONTROL_C.:E05TOU  is referenced.
   G_LCP6_E.:E05TOU  is referenced.
   GT_LCP6_M.:E05TOU  is referenced.
   KI_CP6.:E05TOU  is referenced.
   GF_LCP6_M.:E05TOU  is referenced.
   GM_LCP6_M.:E05TOU  is referenced.
   GU_LCP6_M.:E05TOU  is referenced.
   GJ_LCP6_M.:E05TOU  is referenced.
   GH_LCP6_M.:E05TOU  is referenced.
   LCP_6.:E05TOU  cannot be made into a system file and is referenced.
      No diagnostics issued in procedure GJA$NA_INFO.

   Procedure GJA$NA_INFO requires 108 words for executable code.
   Procedure GJA$NA_INFO requires 6 words of local(AUTO) storage.

PL6.E3A0      #003=GJA$NA_INFO File=GJA$ADMIN.:E05TSI                            TUE 07/29/97 21:55 Page:578

 Object Unit name= GJA$NA_INFO                                File name= GJA$ADMIN.:E05TOU
 UTS= JUL 29 '97 21:55:04.32 TUE                              Compiler= PL-6/E31         Sev=      00
 SharedLib= :SHARED_LCP6_SYSTEM                               Alt SharedLib=


    ****  Control sections  ****

 Sect   Type Bound  Init  Size HexSiz  Section name
    0   Proc  even  none   108     6C  GJA$NA_INFO

    ****  Entry defs  ****

                              Check   Calling
                             calling  sequence
  Sect HexLoc Primary Altret sequence   type   Parms  Name
     0      0   yes    yes     yes      Std        1  GJA$NA_INFO

  ****  Entry refs  ****

         Check        Calling
        calling       sequence
Altret sequence SRef   type   Args  Name
                       nStd      0 X6A_AUTO_1
                       nStd      0 X6A_ARET

  ****  Data refs  ****

  Flags:  r = read only, s = secondary
Flgs Name                             Flgs Name                             Flgs Name
     GJA_INTLEV                            GJA_ATTR                              GJA_HOPCOST
     GJA_RCQSIZE                           GJA_SCQSIZE                           GJA_RETRYMAX
     GJA_MEMORY                       r    G$ROS$
PL6.E3A0      #003=GJA$NA_INFO File=GJA$ADMIN.:E05TSI                            TUE 07/29/97 21:55 Page:579


     3204        1        /*T***********************************************************/
     3205        2        /*T*                                                         */
     3206        3        /*T* Copyright (c) Bull HN Information Systems Inc., 1997    */
     3207        4        /*T*                                                         */
     3208        5        /*T***********************************************************/
     3209        6        GJA$NA_INFO: PROC (KL$CONTROL) ALTRET;

      6   0 000000  D380 0000 0000  xent GJA$NA_INFO     LNJ,B5   X6A_AUTO_1
          0 000003       0006 0001                       DC       6,1

     3210        7        %INCLUDE LCP_6;
     3211     4286        %INCLUDE KL_CONTROL_C;
     3212     4666        %INCLUDE KL_MACRO_C;
     3213     8018
     3214     8019        %KL_CONTROL(FPTN=KL$CONTROL,STCLASS="");
     3215     8156    1   DCL GJA_INTLEV UBIN SYMREF;
     3216     8157    1   DCL GJA_ATTR UBIN(16) SYMREF;
     3217     8158    1   DCL GJA_HOPCOST UBIN SYMREF;
     3218     8159    1   DCL GJA_RCQSIZE UBIN SYMREF;
     3219     8160    1   DCL GJA_SCQSIZE UBIN SYMREF;
     3220     8161    1   DCL GJA_RETRYMAX UBIN SYMREF;
     3221     8162    1   DCL GJA_MEMORY UBIN SYMREF;
     3222     8163
     3223     8164    1      IF KL$CONTROL.CMD = %KL_CONTROL_SET THEN

   8164   0 000005  ECC7 0004                            LDB,B6   @KL$CONTROL,AUTO
          0 000007  E846 0011                            LDR,R6   17,B6
          0 000009  6D01                                 CMV,R6   1
          0 00000A  0981 0005                            BNE      s:8167,PREL

     3224     8165    1           KL$CONTROL.VALUE = 0;

   8165   0 00000C  8746 0014                            CL       20,B6
          0 00000E  0F81 005A                            B        s:8196,PREL

     3225     8166    2      ELSE DO;
PL6.E3A0      #003=GJA$NA_INFO File=GJA$ADMIN.:E05TSI                            TUE 07/29/97 21:55 Page:580

     3226     8167    2           KL$CONTROL.TYPE = 1;

   8167   0 000010  5C01                                 LDV,R5   1
          0 000011  DA86                                 SRM,R5,'00FF'X    ,B6
          0 000012       00FF

     3227     8168    3           DO CASE (KL$CONTROL.PARMX);

   8168   0 000013  B846 0012                            LDR,R3   18,B6
          0 000015  3D16                                 CMV,R3   22
          0 000016  0281 004E                            BGE      s:8192,PREL
          0 000018  A830 0000 001E  00                   LDR,R2   s:8168+11,R3
          0 00001B  83A0 0000 0034  00                   JMP      s:8171,R2
          0 00001E       0000                            DC       s:8171,PREL
          0 00001F       002A                            DC       s:8189,PREL
          0 000020       0031                            DC       s:8192,PREL
          0 000021       0031                            DC       s:8192,PREL
          0 000022       0007                            DC       s:8174,PREL
          0 000023       0031                            DC       s:8192,PREL
          0 000024       0031                            DC       s:8192,PREL
          0 000025       0031                            DC       s:8192,PREL
          0 000026       0031                            DC       s:8192,PREL
          0 000027       0031                            DC       s:8192,PREL
          0 000028       0031                            DC       s:8192,PREL
          0 000029       0031                            DC       s:8192,PREL
          0 00002A       0015                            DC       s:8180,PREL
          0 00002B       001C                            DC       s:8183,PREL
          0 00002C       0031                            DC       s:8192,PREL
          0 00002D       0031                            DC       s:8192,PREL
          0 00002E       0031                            DC       s:8192,PREL
          0 00002F       0031                            DC       s:8192,PREL
          0 000030       0031                            DC       s:8192,PREL
          0 000031       0031                            DC       s:8192,PREL
          0 000032       0023                            DC       s:8186,PREL
          0 000033       000E                            DC       s:8177,PREL

PL6.E3A0      #003=GJA$NA_INFO File=GJA$ADMIN.:E05TSI                            TUE 07/29/97 21:55 Page:581
     3228     8169
     3229     8170    3            CASE (%KL_HNDLRPARM_INTLVL);

     3230     8171    3              KL$CONTROL.VALUE = GJA_INTLEV;

   8171   0 000034  C800 0000 0000  xsym                 LDR,R4   GJA_INTLEV
          0 000037  CF46 0014                            STR,R4   20,B6
          0 000039  0F81 002F                            B        s:8196,PREL

     3231     8172
     3232     8173    3            CASE (%KL_HNDLRPARM_ATTR);

     3233     8174    3              KL$CONTROL.VALUE = GJA_ATTR;

   8174   0 00003B  C800 0000 0000  xsym                 LDR,R4   GJA_ATTR
          0 00003E  CF46 0014                            STR,R4   20,B6
          0 000040  0F81 0028                            B        s:8196,PREL

     3234     8175
     3235     8176    3            CASE (%KL_HNDLRPARM_HOPCOST);

     3236     8177    3              KL$CONTROL.VALUE = GJA_HOPCOST;

   8177   0 000042  C800 0000 0000  xsym                 LDR,R4   GJA_HOPCOST
          0 000045  CF46 0014                            STR,R4   20,B6
          0 000047  0F81 0021                            B        s:8196,PREL

     3237     8178
     3238     8179    3            CASE (%KL_HNDLRPARM_RCVCQBYTSIZ);

     3239     8180    3              KL$CONTROL.VALUE = GJA_RCQSIZE;

   8180   0 000049  C800 0000 0000  xsym                 LDR,R4   GJA_RCQSIZE
          0 00004C  CF46 0014                            STR,R4   20,B6
          0 00004E  0F81 001A                            B        s:8196,PREL

     3240     8181
PL6.E3A0      #003=GJA$NA_INFO File=GJA$ADMIN.:E05TSI                            TUE 07/29/97 21:55 Page:582
     3241     8182    3            CASE (%KL_HNDLRPARM_SNDCQBYTSIZ);

     3242     8183    3              KL$CONTROL.VALUE = GJA_SCQSIZE;

   8183   0 000050  C800 0000 0000  xsym                 LDR,R4   GJA_SCQSIZE
          0 000053  CF46 0014                            STR,R4   20,B6
          0 000055  0F81 0013                            B        s:8196,PREL

     3243     8184
     3244     8185    3            CASE (%KL_HNDLRPARM_LGNRTRYNUM);

     3245     8186    3              KL$CONTROL.VALUE = GJA_RETRYMAX;

   8186   0 000057  C800 0000 0000  xsym                 LDR,R4   GJA_RETRYMAX
          0 00005A  CF46 0014                            STR,R4   20,B6
          0 00005C  0F81 000C                            B        s:8196,PREL

     3246     8187
     3247     8188    3            CASE (%KL_HNDLRPARM_MEM);

     3248     8189    3              KL$CONTROL.VALUE = GJA_MEMORY;

   8189   0 00005E  C800 0000 0000  xsym                 LDR,R4   GJA_MEMORY
          0 000061  CF46 0014                            STR,R4   20,B6
          0 000063  0F81 0005                            B        s:8196,PREL

     3249     8190
     3250     8191    3            CASE (ELSE);

     3251     8192    3              KL$CONTROL.VALUE = 0;

   8192   0 000065  8746 0014                            CL       20,B6

     3252     8193    3              KL$CONTROL.TYPE = 0;

   8193   0 000067  8806                                 LBF,'00FF'X       ,B6
   8193   0 000068       00FF
PL6.E3A0      #003=GJA$NA_INFO File=GJA$ADMIN.:E05TSI                            TUE 07/29/97 21:55 Page:583

     3253     8194    3              END;

     3254     8195    2           END;

     3255     8196    1   END GJA$NA_INFO;

   8196   0 000069  C380 0000 0000  xent                 LNJ,B4   X6A_ARET
     3256     8197        %EOD;

PL6.E3A0      #003=GJA$NA_INFO File=GJA$ADMIN.:E05TSI                            TUE 07/29/97 21:55 Page:584
--  Include file information  --

   KL_MACRO_C.:E05TOU  is referenced.
   KL_CONTROL_C.:E05TOU  is referenced.
   G_LCP6_E.:E05TOU  is referenced.
   GT_LCP6_M.:E05TOU  is referenced.
   KI_CP6.:E05TOU  is referenced.
   GF_LCP6_M.:E05TOU  is referenced.
   GM_LCP6_M.:E05TOU  is referenced.
   GU_LCP6_M.:E05TOU  is referenced.
   GJ_LCP6_M.:E05TOU  is referenced.
   GH_LCP6_M.:E05TOU  is referenced.
   LCP_6.:E05TOU  cannot be made into a system file and is referenced.
      No diagnostics issued in procedure GJA$NA_INFO.
PL6.E3A0      #003=GJA$NA_INFO File=GJA$ADMIN.:E05TSI                            TUE 07/29/97 21:55 Page:585

 **** Variables and constants ****

  ****  Auto variables  ****

  ****  Scalars and arrays  ****
HexLoc.c.b A Datatyp(siz) R M Lvl/name                 HexLoc.c.b A Datatyp(siz) R M Lvl/name

     4-0-0/w PTR         r     1 @KL$CONTROL               *0-0-0/w STRC(352)   r     1 KL$CONTROL

  ****  SYMREF variables  ****

  ****  Scalars and arrays  ****
HexLoc.c.b A Datatyp(siz) R M Lvl/name                 HexLoc.c.b A Datatyp(siz) R M Lvl/name

     0-0-0/w UBIN(16)    r     1 GJA_ATTR                   0-0-0/w UBIN(16)    r     1 GJA_HOPCOST
     0-0-0/w UBIN(16)    r     1 GJA_INTLEV                 0-0-0/w UBIN(16)    r     1 GJA_MEMORY
     0-0-0/w UBIN(16)    r     1 GJA_RCQSIZE                0-0-0/w UBIN(16)    r     1 GJA_RETRYMAX
     0-0-0/w UBIN(16)    r     1 GJA_SCQSIZE


   Procedure GJA$NA_INFO requires 108 words for executable code.
   Procedure GJA$NA_INFO requires 6 words of local(AUTO) storage.
PL6.E3A0      #003=GJA$NA_INFO File=GJA$ADMIN.:E05TSI                            TUE 07/29/97 21:55 Page:586
          *** CROSS REFERENCE LISTING ***
**     DENOTES     IDENTIFIER DEFINITION
<<                 IDENTIFIER'S VALUE SET
>>                 IDENTIFIER'S VALUE USED
<>                 IDENTIFIER SET AND/OR USED
--                 IDENTIFIER REFERENCED
PL6.E3A0      #003=GJA$NA_INFO File=GJA$ADMIN.:E05TSI                            TUE 07/29/97 21:55 Page:587
          MINI XREF LISTING

GJA_ATTR
      8157**DCL      8174>>ASSIGN
GJA_HOPCOST
      8158**DCL      8177>>ASSIGN
GJA_INTLEV
      8156**DCL      8171>>ASSIGN
GJA_MEMORY
      8162**DCL      8189>>ASSIGN
GJA_RCQSIZE
      8159**DCL      8180>>ASSIGN
GJA_RETRYMAX
      8161**DCL      8186>>ASSIGN
GJA_SCQSIZE
      8160**DCL      8183>>ASSIGN
KL$CONTROL
      8050**DCL         6--PROC
KL$CONTROL.CMD
      8116**DCL      8164>>IF
KL$CONTROL.PARMX
      8117**DCL      8168>>DOCASE
KL$CONTROL.TYPE
      8056**DCL      8167<<ASSIGN   8193<<ASSIGN
KL$CONTROL.VALUE
      8119**DCL      8165<<ASSIGN   8171<<ASSIGN   8174<<ASSIGN   8177<<ASSIGN   8180<<ASSIGN   8183<<ASSIGN
      8186<<ASSIGN   8189<<ASSIGN   8192<<ASSIGN

PL6.E3A0      #004=GJA$SEND_MSG File=GJA$ADMIN.:E05TSI                           TUE 07/29/97 21:55 Page:588
     3257        1        /*T***********************************************************/
     3258        2        /*T*                                                         */
     3259        3        /*T* Copyright (c) Bull HN Information Systems Inc., 1997    */
     3260        4        /*T*                                                         */
     3261        5        /*T***********************************************************/
     3262        6        GJA$SEND_MSG: PROC (CTX$,MSG,MSGSZ,VFC) ALTRET;
     3263        7
     3264        8        %INCLUDE LCP_6;
     3265     4287        %INCLUDE K_SCODE_C;
     3266     4372        %INCLUDE KI_SUBS_C;
     3267     4508        %INCLUDE KV$VDO;
     3268     5523        %INCLUDE GJA_MSG_M;
     3269     5762        %INCLUDE KNH_MACRO_C;
     3270     6045
     3271     6046        %GJA_UID_EQUS;
     3272     6054        %KV_VDO_ALL_E;
     3273     6133
     3274     6134        %KV$VDO_BLKDAT (NAME=VDO_BLKDAT,STCLASS=STATIC,STR=KIDM_CP);
     3275     6177        %KV$VDO_RQSDAT (NAME=VDO_RQSDAT,STCLASS=STATIC,STR=KIDM_CP,
     3276     6178                        MAXNMBRCR=0,INCMAXNMBRCR=NO);
     3277     6226        %KV$VDO_DAT (NAME=GJA_VDO_DAT_DAT2,STCLASS=SYMREF);
     3278     6271        %KV$VDO_DAT (NAME=GJA_LDDAT,STCLASS=SYMREF,LAST=",");
     3279     6316             %KV$VDOVLP_ERR(NAME=ERR,LVL=2);
     3280     6413    1   DCL CTX$ PTR;
     3281     6414    1   DCL MSG CHAR(MSGSZ);
     3282     6415    1   DCL MSGSZ UBIN;
     3283     6416    1   DCL VFC CHAR(1) CALIGNED;
     3284     6417    1   DCL SIZE UBIN;
     3285     6418    1   DCL STRING CHAR(SIZE) BASED;
     3286     6419    1   DCL 1 SV$MSG BASED,
     3287     6420    1         2 BFRSIZ UBIN,     /* size of the buffer so we can use 2nsys  */
     3288     6421    1         2 LNK$ PTR,
     3289     6422    1         2 SZ UBIN,
     3290     6423    1         2 VFC CHAR(1) UNAL,
     3291     6424    1         2 * CHAR(1) UNAL;
     3292     6425    1   DCL WHO UBIN;
     3293     6426    1   DCL SVMSG$ PTR;
PL6.E3A0      #004=GJA$SEND_MSG File=GJA$ADMIN.:E05TSI                           TUE 07/29/97 21:55 Page:589
     3294     6427    1   DCL TMP$ PTR;
     3295     6428    1   DCL SVMSGCNT UBIN;
     3296     6429    1   DCL TCTX$ PTR;
     3297     6430    1   DCL GJA_UID_NM UBIN(32) SYMREF;
     3298     6431    1   DCL GJA_UID_NM$ REDEF GJA_UID_NM PTR;
     3299     6432    1   DCL GJA_HAND_HEAD$ PTR SYMREF;
     3300     6433        %VLP_SCODE (FPTN=NODEMEM,ERR#=%S$NODEMEM,FCG=GJ,MID=A,SEV=G_SEV_SCREECH#);
     3301     6494
     3302     6495        %GJA$HAND_CTX;
     3303     6544
     3304     6545                                                /* Entry references         */
     3305     6546    1   DCL GJA$WRITE ENTRY(6);
     3306     6547    1   DCL GJA$Q_MSG ENTRY(6);
     3307     6548    1   DCL KVB$GET2NSYS ENTRY(2) ALTRET;
     3308     6549    1   DCL KVB$GETSYS ENTRY(2) ALTRET;
     3309     6550
     3310     6551    1      WHO = CTX$->GJA$HAND_CTX.WHO;
     3311     6552    1      IF WHO = %GJA_UID_BABOON OR WHO = %GJA_UID_LOGON
     3312     6553    1        OR (CTX$->GJA$HAND_CTX.MAXNMBRCR > 0 AND MSGSZ <= CTX$->GJA$HAND_CTX.
              6553                 MAXRCRBYTSIZ)
     3313     6554    2      THEN DO;
     3314     6555    2           IF ADDR(VFC) ~= ADDR(NIL)
     3315     6556    3           THEN DO;
     3316     6557    3                GJA_VDO_DAT_DAT2.DATCTRCHRTYP = %KV_DATCTRCHRTYP_VFC;
     3317     6558    3                GJA_VDO_DAT_DAT2.DATCTRCHR = VFC;
     3318     6559    3                END;
     3319     6560    2           CALL GJA$WRITE (CTX$,
     3320     6561    2             MSGSZ,MSG);
     3321     6562    2           GJA_VDO_DAT_DAT2.DATCTRCHRTYP = %KV_DATCTRCHRTYP_NON;
     3322     6563    2           IF WHO ~= %GJA_UID_BABOON AND WHO ~= %GJA_UID_LOGON
     3323     6564    3           THEN DO;
     3324     6565    3                CTX$->GJA$HAND_CTX.MAXNMBBYT = CTX$->GJA$HAND_CTX.MAXNMBBYT - MSGSZ;
     3325     6566    3                CTX$->GJA$HAND_CTX.MAXNMBRCR = CTX$->GJA$HAND_CTX.MAXNMBRCR-1;
     3326     6567    3                END;
     3327     6568    2           END;
     3328     6569
     3329     6570
PL6.E3A0      #004=GJA$SEND_MSG File=GJA$ADMIN.:E05TSI                           TUE 07/29/97 21:55 Page:590
     3330     6571    2      ELSE DO;
     3331     6572    2           IF CTX$->GJA$HAND_CTX.MAXNMBRCR > 0
     3332     6573    3           THEN DO;
     3333     6574    3                CTX$->GJA$HAND_CTX.MAXNMBRCR = CTX$->GJA$HAND_CTX.MAXNMBRCR - 1;
     3334     6575    3                CALL GJA$Q_MSG(CTX$,LENGTHC(GJA_LDDAT),GJA_LDDAT);
     3335     6576    3                END;
     3336     6577    3           ELSE DO;
     3337     6578    4                DO CASE(WHO);
     3338     6579    4                 CASE(%GJA_UID_NM);
     3339     6580    4                   IF NOT CTX$->GJA$HAND_CTX.HOST_NODE THEN
     3340     6581    5                   DO;
     3341     6582                               /* need credits from another nodeadmn  so ask for um
     3342     6583                                  dont send blk dat to slug*/
     3343     6584    5                        VDO_BLKDAT.RCRBYTSIZ = MSGSZ;
     3344     6585    5                        CALL GJA$Q_MSG(CTX$,LENGTHC(VDO_BLKDAT),VDO_BLKDAT);
     3345     6586    5                        END;
     3346     6587    4                 CASE(%GJA_UID_HANDLER);
     3347     6588    4                   IF NOT CTX$->GJA$HAND_CTX.BLK THEN
     3348     6589                  /* dont block a handler who is already flow controlled*/
     3349     6590    5                   DO;
     3350     6591    5                        VDO_BLKDAT.RCRBYTSIZ = MSGSZ;
     3351     6592    5                        CALL GJA$Q_MSG(CTX$,LENGTHC(VDO_BLKDAT),VDO_BLKDAT);
     3352     6593    5                        END;
     3353     6594    4                 CASE(ELSE);
     3354     6595                            /* should never get here.  LOGON and BABOON are taken
     3355     6596                               care over above */
     3356     6597    4                   END;                    /* do case(who)*/
     3357     6598    3                END;
     3358     6599                            /* returns actual size of buffer in first word  */
     3359     6600    2           CALL KVB$GET2NSYS ((MSGSZ+SIZEC(SV$MSG)+1)/2,SVMSG$)
     3360     6601    3           WHENALTRETURN DO;
     3361     6602    3                CALL M$SCREECH(NODEMEM);
     3362     6603                  /*S* SCREECH_CODE: GJA-S$NODEMEM
     3363     6604                       TYPE:SCREECH
     3364     6605                       MESSAGE: NODEADMN out of memory
     3365     6606                       REMARKS: Nodeadmin ran out of memory.
     3366     6607         */
PL6.E3A0      #004=GJA$SEND_MSG File=GJA$ADMIN.:E05TSI                           TUE 07/29/97 21:55 Page:591
     3367     6608    3                END;
     3368     6609    2           SVMSG$->SV$MSG.LNK$ = ADDR(NIL);
     3369     6610    2           SVMSG$->SV$MSG.SZ = MSGSZ;
     3370     6611    2           IF ADDR(VFC) = ADDR(NIL)
     3371     6612    2           THEN
     3372     6613    2                SVMSG$->SV$MSG.VFC = BINASC(0);
     3373     6614    2           ELSE
     3374     6615    2                SVMSG$->SV$MSG.VFC = VFC;
     3375     6616    2           SVMSGCNT = SVMSG$->SV$MSG.SZ;
     3376     6617    2           IF CTX$->GJA$HAND_CTX.WAITING_MSG$ = ADDR(NIL)
     3377     6618    2           THEN CTX$->GJA$HAND_CTX.WAITING_MSG$ = SVMSG$;
     3378     6619    3           ELSE DO;
     3379     6620    3                TMP$ = CTX$->GJA$HAND_CTX.WAITING_MSG$;
     3380     6621    4                DO WHILE (TMP$->SV$MSG.LNK$ ~= ADDR(NIL));
     3381     6622    4                     TMP$ = TMP$->SV$MSG.LNK$;
     3382     6623    4                     SVMSGCNT = SVMSGCNT + TMP$->SV$MSG.SZ;
     3383     6624    4                     END;
     3384     6625    3                TMP$->SV$MSG.LNK$ = SVMSG$;
     3385     6626    3                END;
     3386     6627    2           SVMSG$ = PINCRW(SVMSG$,SIZEW(SV$MSG));
     3387     6628    2           SIZE = MSGSZ;
     3388     6629    2           SVMSG$->STRING = MSG;
     3389     6630        /*
     3390     6631           If the path to the Host is blocked, flow control every handler.
     3391     6632        */
     3392     6633    2           IF CTX$ = GJA_UID_NM$ AND SVMSGCNT >= 4096
     3393     6634    3           THEN DO;
     3394     6635    3                TCTX$ = GJA_HAND_HEAD$;
     3395     6636    4                DO WHILE ( TCTX$ ~= ADDR(NIL) );
     3396     6637    4                     IF TCTX$->GJA$HAND_CTX.WHO = %GJA_UID_HANDLER AND
     3397     6638    4                       NOT TCTX$->GJA$HAND_CTX.BLK
     3398     6639    4                     THEN
     3399     6640    5                     DO;
     3400     6641    5                          CALL GJA$Q_MSG (TCTX$,LENGTHC(VDO_RQSDAT),VDO_RQSDAT);
     3401     6642    5                          TCTX$->GJA$HAND_CTX.BLK = '1'B;
     3402     6643    5                          END;
     3403     6644    4                     TCTX$ = TCTX$->GJA$HAND_CTX.LNK$;
PL6.E3A0      #004=GJA$SEND_MSG File=GJA$ADMIN.:E05TSI                           TUE 07/29/97 21:55 Page:592
     3404     6645    4                     END;
     3405     6646    3                END;
     3406     6647    2           END;
     3407     6648
     3408     6649    1      RETURN;
     3409     6650
     3410     6651    1   END GJA$SEND_MSG;

PL6.E3A0      #004=GJA$SEND_MSG File=GJA$ADMIN.:E05TSI                           TUE 07/29/97 21:55 Page:593
--  Include file information  --

   KNH_MACRO_C.:E05TOU  is referenced.
   GJA_MSG_M.:E05TOU  is referenced.
   KV$VDO.:E05TOU  is referenced.
   KI_SUBS_C.:E05TOU  is referenced.
   K_SCODE_C.:E05TOU  is referenced.
   G_LCP6_E.:E05TOU  is referenced.
   GT_LCP6_M.:E05TOU  is referenced.
   KI_CP6.:E05TOU  is referenced.
   GF_LCP6_M.:E05TOU  is referenced.
   GM_LCP6_M.:E05TOU  is referenced.
   GU_LCP6_M.:E05TOU  is referenced.
   GJ_LCP6_M.:E05TOU  is referenced.
   GH_LCP6_M.:E05TOU  is referenced.
   LCP_6.:E05TOU  cannot be made into a system file and is referenced.
      No diagnostics issued in procedure GJA$SEND_MSG.

   Procedure GJA$SEND_MSG requires 494 words for executable code.
   Procedure GJA$SEND_MSG requires 34 words of local(AUTO) storage.

    No errors detected in file GJA$ADMIN.:E05TSI    .

PL6.E3A0      #004=GJA$SEND_MSG File=GJA$ADMIN.:E05TSI                           TUE 07/29/97 21:55 Page:594

 Object Unit name= GJA$SEND_MSG                               File name= GJA$ADMIN.:E05TOU
 UTS= JUL 29 '97 21:55:23.44 TUE                              Compiler= PL-6/E31         Sev=      00
 SharedLib= :SHARED_LCP6_SYSTEM                               Alt SharedLib=


    ****  Control sections  ****

 Sect   Type Bound  Init  Size HexSiz  Section name
    0   Data  even  none    11      B  GJA$SEND_MSG
    1   Proc  even  none   494    1EE  GJA$SEND_MSG

    ****  Entry defs  ****

                              Check   Calling
                             calling  sequence
  Sect HexLoc Primary Altret sequence   type   Parms  Name
     1      0   yes    yes     yes      Std        4  GJA$SEND_MSG

  ****  Entry refs  ****

         Check        Calling
        calling       sequence
Altret sequence SRef   type   Args  Name
         yes           Std       6 GJA$WRITE
         yes           Std       6 GJA$Q_MSG
 yes     yes           Std       2 KVB$GET2NSYS
                       nStd      0 X6A_AUTO_N
                       nStd      0 X6C_ALR
                       nStd      0 X6A_ARET

  ****  Data refs  ****

  Flags:  r = read only, s = secondary
Flgs Name                             Flgs Name                             Flgs Name
     GJA_VDO_DAT_DAT2                      GJA_LDDAT                             GJA_UID_NM
     GJA_HAND_HEAD$                   r    G$ROS$
PL6.E3A0      #004=GJA$SEND_MSG File=GJA$ADMIN.:E05TSI                           TUE 07/29/97 21:55 Page:595


     3257        1        /*T***********************************************************/
     3258        2        /*T*                                                         */
     3259        3        /*T* Copyright (c) Bull HN Information Systems Inc., 1997    */
     3260        4        /*T*                                                         */
     3261        5        /*T***********************************************************/
     3262        6        GJA$SEND_MSG: PROC (CTX$,MSG,MSGSZ,VFC) ALTRET;

      6   1 000000  D380 0000 0000  xent GJA$SEND_MSG    LNJ,B5   X6A_AUTO_N
          1 000003       0022 0004                       DC       34,4

     3263        7
     3264        8        %INCLUDE LCP_6;
     3265     4287        %INCLUDE K_SCODE_C;
     3266     4372        %INCLUDE KI_SUBS_C;
     3267     4508        %INCLUDE KV$VDO;
     3268     5523        %INCLUDE GJA_MSG_M;
     3269     5762        %INCLUDE KNH_MACRO_C;
     3270     6045
     3271     6046        %GJA_UID_EQUS;
     3272     6054        %KV_VDO_ALL_E;
     3273     6133
     3274     6134        %KV$VDO_BLKDAT (NAME=VDO_BLKDAT,STCLASS=STATIC,STR=KIDM_CP);
     3275     6177        %KV$VDO_RQSDAT (NAME=VDO_RQSDAT,STCLASS=STATIC,STR=KIDM_CP,
     3276     6178                        MAXNMBRCR=0,INCMAXNMBRCR=NO);
     3277     6226        %KV$VDO_DAT (NAME=GJA_VDO_DAT_DAT2,STCLASS=SYMREF);
     3278     6271        %KV$VDO_DAT (NAME=GJA_LDDAT,STCLASS=SYMREF,LAST=",");
     3279     6316             %KV$VDOVLP_ERR(NAME=ERR,LVL=2);
     3280     6413    1   DCL CTX$ PTR;
     3281     6414    1   DCL MSG CHAR(MSGSZ);
     3282     6415    1   DCL MSGSZ UBIN;
     3283     6416    1   DCL VFC CHAR(1) CALIGNED;
     3284     6417    1   DCL SIZE UBIN;
     3285     6418    1   DCL STRING CHAR(SIZE) BASED;
     3286     6419    1   DCL 1 SV$MSG BASED,
     3287     6420    1         2 BFRSIZ UBIN,     /* size of the buffer so we can use 2nsys  */
     3288     6421    1         2 LNK$ PTR,
PL6.E3A0      #004=GJA$SEND_MSG File=GJA$ADMIN.:E05TSI                           TUE 07/29/97 21:55 Page:596
     3289     6422    1         2 SZ UBIN,
     3290     6423    1         2 VFC CHAR(1) UNAL,
     3291     6424    1         2 * CHAR(1) UNAL;
     3292     6425    1   DCL WHO UBIN;
     3293     6426    1   DCL SVMSG$ PTR;
     3294     6427    1   DCL TMP$ PTR;
     3295     6428    1   DCL SVMSGCNT UBIN;
     3296     6429    1   DCL TCTX$ PTR;
     3297     6430    1   DCL GJA_UID_NM UBIN(32) SYMREF;
     3298     6431    1   DCL GJA_UID_NM$ REDEF GJA_UID_NM PTR;
     3299     6432    1   DCL GJA_HAND_HEAD$ PTR SYMREF;
     3300     6433        %VLP_SCODE (FPTN=NODEMEM,ERR#=%S$NODEMEM,FCG=GJ,MID=A,SEV=G_SEV_SCREECH#);
     3301     6494
     3302     6495        %GJA$HAND_CTX;
     3303     6544
     3304     6545                                                /* Entry references         */
     3305     6546    1   DCL GJA$WRITE ENTRY(6);
     3306     6547    1   DCL GJA$Q_MSG ENTRY(6);
     3307     6548    1   DCL KVB$GET2NSYS ENTRY(2) ALTRET;
     3308     6549    1   DCL KVB$GETSYS ENTRY(2) ALTRET;
     3309     6550
     3310     6551    1      WHO = CTX$->GJA$HAND_CTX.WHO;

   6551   1 000005  ECC7 0004                            LDB,B6   @CTX$,AUTO
          1 000007  DC86                                 LDB,B5   ,B6
          1 000008  E805                                 LDR,R6   ,B5
          1 000009  604D                                 SOR,R6   13
          1 00000A  EF47 000D                            STR,R6   WHO,AUTO

     3311     6552    1      IF WHO = %GJA_UID_BABOON OR WHO = %GJA_UID_LOGON

   6552   1 00000C  6D02                                 CMV,R6   2
          1 00000D  0901 000F                            BE       s:6555,PREL
          1 00000F  6D04                                 CMV,R6   4
          1 000010  0901 000C                            BE       s:6555,PREL
          1 000012  D845 0004                            LDR,R5   4,B5
          1 000014  5901 007A                            BEZ,R5   s:6572,PREL
PL6.E3A0      #004=GJA$SEND_MSG File=GJA$ADMIN.:E05TSI                           TUE 07/29/97 21:55 Page:597
          1 000016  CCC7 0008                            LDB,B4   @MSGSZ,AUTO
          1 000018  C804                                 LDR,R4   ,B4
          1 000019  C945 0003                            CMR,R4   3,B5
          1 00001B  0301 0073                            BG       s:6572,PREL

     3312     6553    1        OR (CTX$->GJA$HAND_CTX.MAXNMBRCR > 0 AND MSGSZ <= CTX$->GJA$HAND_CTX.
              6553                 MAXRCRBYTSIZ)
     3313     6554    2      THEN DO;

     3314     6555    2           IF ADDR(VFC) ~= ADDR(NIL)

   6555   1 00001D  8CC7 000A                            LDI      @VFC,AUTO
          1 00001F  B856                                 LDR,R3   R6
          1 000020  E570 7FFF                            AND,R6   32767,IMO
          1 000022  8D47 0016                            SDI      TCTX$+3,AUTO
          1 000024  DCC7 0016                            LDB,B5   TCTX$+3,AUTO
          1 000026  304F                                 SOR,R3   15
          1 000027  DFC7 0018                            STB,B5   TCTX$+5,AUTO
          1 000029  8CC7 0018                            LDI      TCTX$+5,AUTO
          1 00002B  7031                                 DCL,R7   1
          1 00002C  8D47 001A                            SDI      TCTX$+7,AUTO
          1 00002E  F853                                 LDR,R7   R3
          1 00002F  6C00                                 LDV,R6   0
          1 000030  8447 001A                            AID      TCTX$+7,AUTO
          1 000032  7071                                 DCR,R7   1
          1 000033  8D47 001C                            SDI      TCTX$+9,AUTO
          1 000035  8DC7 001C                            CMN      TCTX$+9,AUTO
          1 000037  0901 0016                            BE       s:6560,PREL

     3315     6556    3           THEN DO;

     3316     6557    3                GJA_VDO_DAT_DAT2.DATCTRCHRTYP = %KV_DATCTRCHRTYP_VFC;

   6557   1 000039  D870 0800                            LDR,R5   2048,IMO
          1 00003B  DA80 0000 0001  xsym                 SRM,R5,'0C00'X    GJA_VDO_DAT_DAT2+1
          1 00003E       0C00

PL6.E3A0      #004=GJA$SEND_MSG File=GJA$ADMIN.:E05TSI                           TUE 07/29/97 21:55 Page:598
     3317     6558    3                GJA_VDO_DAT_DAT2.DATCTRCHR = VFC;

   6558   1 00003F  8CC7 000A                            LDI      @VFC,AUTO
          1 000041  B856                                 LDR,R3   R6
          1 000042  E570 7FFF                            AND,R6   32767,IMO
          1 000044  8D47 0016                            SDI      TCTX$+3,AUTO
          1 000046  CCC7 0016                            LDB,B4   TCTX$+3,AUTO
          1 000048  304F                                 SOR,R3   15
          1 000049  C0B4                                 LDH,R4   ,B4,R3
          1 00004A  CA80 0000 0001  xsym                 SRM,R4,'00FF'X    GJA_VDO_DAT_DAT2+1
          1 00004D       00FF

     3318     6559    3                END;

     3319     6560    2           CALL GJA$WRITE (CTX$,

   6560   1 00004E  8CC7 0006                            LDI      @MSG,AUTO
          1 000050  B856                                 LDR,R3   R6
          1 000051  E570 7FFF                            AND,R6   32767,IMO
          1 000053  8D47 0016                            SDI      TCTX$+3,AUTO
          1 000055  CCC7 0016                            LDB,B4   TCTX$+3,AUTO
          1 000057  304F                                 SOR,R3   15
          1 000058  CFC7 001E                            STB,B4   TCTX$+11,AUTO
          1 00005A  8CC7 001E                            LDI      TCTX$+11,AUTO
          1 00005C  7031                                 DCL,R7   1
          1 00005D  8D47 0020                            SDI      TCTX$+13,AUTO
          1 00005F  F853                                 LDR,R7   R3
          1 000060  6C00                                 LDV,R6   0
          1 000061  8447 0020                            AID      TCTX$+13,AUTO
          1 000063  7071                                 DCR,R7   1
          1 000064  8D47 001C                            SDI      TCTX$+9,AUTO
          1 000066  BCC7 0008                            LDB,B3   @MSGSZ,AUTO
          1 000068  BFC7 001A                            STB,B3   TCTX$+7,AUTO
          1 00006A  EFC7 0018                            STB,B6   TCTX$+5,AUTO
          1 00006C  BBC7 0018                            LAB,B3   TCTX$+5,AUTO
          1 00006E  CBF0 0300                            LAB,B4   768,IMO
          1 000070  E380 0000 0000  xent                 LNJ,B6   GJA$WRITE
PL6.E3A0      #004=GJA$SEND_MSG File=GJA$ADMIN.:E05TSI                           TUE 07/29/97 21:55 Page:599
          1 000073       0001                            DC       s:6562,PREL

     3320     6561    2             MSGSZ,MSG);
     3321     6562    2           GJA_VDO_DAT_DAT2.DATCTRCHRTYP = %KV_DATCTRCHRTYP_NON;

   6562   1 000074  8800 0000 0001  xsym                 LBF,'0C00'X       GJA_VDO_DAT_DAT2+1
   6562   1 000077       0C00

     3322     6563    2           IF WHO ~= %GJA_UID_BABOON AND WHO ~= %GJA_UID_LOGON

   6563   1 000078  E847 000D                            LDR,R6   WHO,AUTO
          1 00007A  6D02                                 CMV,R6   2
          1 00007B  0901 016F                            BE       s:6649,PREL
          1 00007D  6D04                                 CMV,R6   4
          1 00007E  0901 016C                            BE       s:6649,PREL

     3323     6564    3           THEN DO;

     3324     6565    3                CTX$->GJA$HAND_CTX.MAXNMBBYT = CTX$->GJA$HAND_CTX.MAXNMBBYT - MSGSZ;

   6565   1 000080  ECC7 0004                            LDB,B6   @CTX$,AUTO
          1 000082  DC86                                 LDB,B5   ,B6
          1 000083  CCC7 0008                            LDB,B4   @MSGSZ,AUTO
          1 000085  D845 0005                            LDR,R5   5,B5
          1 000087  D204                                 SUB,R5   ,B4
          1 000088  DF45 0005                            STR,R5   5,B5

     3325     6566    3                CTX$->GJA$HAND_CTX.MAXNMBRCR = CTX$->GJA$HAND_CTX.MAXNMBRCR-1;

   6566   1 00008A  DC86                                 LDB,B5   ,B6
          1 00008B  88C5 0004                            DEC      4,B5

     3326     6567    3                END;

     3327     6568    2           END;

   6568   1 00008D  0F81 015D                            B        s:6649,PREL
PL6.E3A0      #004=GJA$SEND_MSG File=GJA$ADMIN.:E05TSI                           TUE 07/29/97 21:55 Page:600

     3328     6569
     3329     6570
     3330     6571    2      ELSE DO;

     3331     6572    2           IF CTX$->GJA$HAND_CTX.MAXNMBRCR > 0

   6572   1 00008F  5901 0018                            BEZ,R5   s:6578,PREL

     3332     6573    3           THEN DO;

     3333     6574    3                CTX$->GJA$HAND_CTX.MAXNMBRCR = CTX$->GJA$HAND_CTX.MAXNMBRCR - 1;

   6574   1 000091  88C5 0004                            DEC      4,B5

     3334     6575    3                CALL GJA$Q_MSG(CTX$,LENGTHC(GJA_LDDAT),GJA_LDDAT);

   6575   1 000093  DBF0 000A                            LAB,B5   10,IMO
          1 000095  CB80 0000 0000  xsym                 LAB,B4   GJA_LDDAT
          1 000098  CFC7 001A                            STB,B4   TCTX$+7,AUTO
          1 00009A  DFC7 0018                            STB,B5   TCTX$+5,AUTO
          1 00009C  EFC7 0016                            STB,B6   TCTX$+3,AUTO
          1 00009E  BBC7 0016                            LAB,B3   TCTX$+3,AUTO
          1 0000A0  CBF0 0300                            LAB,B4   768,IMO
          1 0000A2  E380 0000 0000  xent                 LNJ,B6   GJA$Q_MSG
          1 0000A5       0001                            DC       s:6576,PREL

     3335     6576    3                END;

   6576   1 0000A6  0F81 004F                            B        s:6600,PREL

     3336     6577    3           ELSE DO;

     3337     6578    4                DO CASE(WHO);

   6578   1 0000A8  B856                                 LDR,R3   R6
          1 0000A9  3D04                                 CMV,R3   4
PL6.E3A0      #004=GJA$SEND_MSG File=GJA$ADMIN.:E05TSI                           TUE 07/29/97 21:55 Page:601
          1 0000AA  0281 004B                            BGE      s:6600,PREL
          1 0000AC  A830 0000 00B2  01                   LDR,R2   s:6578+10,R3
          1 0000AF  83A0 0000 00B6  01                   JMP      s:6580,R2
          1 0000B2       0040                            DC       s:6600,PREL
          1 0000B3       0000                            DC       s:6580,PREL
          1 0000B4       0040                            DC       s:6600,PREL
          1 0000B5       0020                            DC       s:6588,PREL

     3338     6579    4                 CASE(%GJA_UID_NM);

     3339     6580    4                   IF NOT CTX$->GJA$HAND_CTX.HOST_NODE THEN

   6580   1 0000B6  82C5 000D                            LB,'2000'X        13,B5
   6580   1 0000B8       2000
          1 0000B9  0501 003C                            BBT      s:6600,PREL

     3340     6581    5                   DO;

     3341     6582                               /* need credits from another nodeadmn  so ask for um
     3342     6583                                  dont send blk dat to slug*/
     3343     6584    5                        VDO_BLKDAT.RCRBYTSIZ = MSGSZ;

   6584   1 0000BB  CCC7 0008                            LDB,B4   @MSGSZ,AUTO
          1 0000BD  C804                                 LDR,R4   ,B4
          1 0000BE  CF00 0000 0001  00                   STR,R4   VDO_BLKDAT+1

     3344     6585    5                        CALL GJA$Q_MSG(CTX$,LENGTHC(VDO_BLKDAT),VDO_BLKDAT);

   6585   1 0000C1  DBF0 0006                            LAB,B5   6,IMO
          1 0000C3  BB80 0000 0000  00                   LAB,B3   VDO_BLKDAT
          1 0000C6  BFC7 001A                            STB,B3   TCTX$+7,AUTO
          1 0000C8  DFC7 0018                            STB,B5   TCTX$+5,AUTO
          1 0000CA  EFC7 0016                            STB,B6   TCTX$+3,AUTO
          1 0000CC  BBC7 0016                            LAB,B3   TCTX$+3,AUTO
          1 0000CE  CBF0 0300                            LAB,B4   768,IMO
          1 0000D0  E380 0000 0000  xent                 LNJ,B6   GJA$Q_MSG
          1 0000D3       0001                            DC       s:6586,PREL
PL6.E3A0      #004=GJA$SEND_MSG File=GJA$ADMIN.:E05TSI                           TUE 07/29/97 21:55 Page:602

     3345     6586    5                        END;

   6586   1 0000D4  0F81 0021                            B        s:6600,PREL

     3346     6587    4                 CASE(%GJA_UID_HANDLER);

     3347     6588    4                   IF NOT CTX$->GJA$HAND_CTX.BLK THEN

   6588   1 0000D6  82C5 000D                            LB,'1000'X        13,B5
   6588   1 0000D8       1000
          1 0000D9  0501 001C                            BBT      s:6600,PREL

     3348     6589                  /* dont block a handler who is already flow controlled*/
     3349     6590    5                   DO;

     3350     6591    5                        VDO_BLKDAT.RCRBYTSIZ = MSGSZ;

   6591   1 0000DB  CCC7 0008                            LDB,B4   @MSGSZ,AUTO
          1 0000DD  C804                                 LDR,R4   ,B4
          1 0000DE  CF00 0000 0001  00                   STR,R4   VDO_BLKDAT+1

     3351     6592    5                        CALL GJA$Q_MSG(CTX$,LENGTHC(VDO_BLKDAT),VDO_BLKDAT);

   6592   1 0000E1  DBF0 0006                            LAB,B5   6,IMO
          1 0000E3  BB80 0000 0000  00                   LAB,B3   VDO_BLKDAT
          1 0000E6  BFC7 001A                            STB,B3   TCTX$+7,AUTO
          1 0000E8  DFC7 0018                            STB,B5   TCTX$+5,AUTO
          1 0000EA  EFC7 0016                            STB,B6   TCTX$+3,AUTO
          1 0000EC  BBC7 0016                            LAB,B3   TCTX$+3,AUTO
          1 0000EE  CBF0 0300                            LAB,B4   768,IMO
          1 0000F0  E380 0000 0000  xent                 LNJ,B6   GJA$Q_MSG
          1 0000F3       0001                            DC       s:6593,PREL

     3352     6593    5                        END;

   6593   1 0000F4  0F81 0001                            B        s:6600,PREL
PL6.E3A0      #004=GJA$SEND_MSG File=GJA$ADMIN.:E05TSI                           TUE 07/29/97 21:55 Page:603

     3353     6594    4                 CASE(ELSE);

     3354     6595                            /* should never get here.  LOGON and BABOON are taken
     3355     6596                               care over above */
     3356     6597    4                   END;                    /* do case(who)*/

     3357     6598    3                END;

     3358     6599                            /* returns actual size of buffer in first word  */
     3359     6600    2           CALL KVB$GET2NSYS ((MSGSZ+SIZEC(SV$MSG)+1)/2,SVMSG$)

   6600   1 0000F6  ECC7 0008                            LDB,B6   @MSGSZ,AUTO
          1 0000F8  E806                                 LDR,R6   ,B6
          1 0000F9  6E0B                                 ADV,R6   11
          1 0000FA  6041                                 SOR,R6   1
          1 0000FB  EF47 0016                            STR,R6   TCTX$+3,AUTO
          1 0000FD  DBC7 000E                            LAB,B5   SVMSG$,AUTO
          1 0000FF  DFC7 0019                            STB,B5   TCTX$+6,AUTO
          1 000101  CBC7 0016                            LAB,B4   TCTX$+3,AUTO
          1 000103  CFC7 0017                            STB,B4   TCTX$+4,AUTO
          1 000105  BBC7 0017                            LAB,B3   TCTX$+4,AUTO
          1 000107  CBF0 0200                            LAB,B4   512,IMO
          1 000109  E380 0000 0000  xent                 LNJ,B6   KVB$GET2NSYS
          1 00010C       0003                            DC       s:6602,PREL
          1 00010D  0F81 0008                            B        s:6609,PREL

     3360     6601    3           WHENALTRETURN DO;

     3361     6602    3                CALL M$SCREECH(NODEMEM);

   6602   1 00010F  BB80 0000 0008  00                   LAB,B3   NODEMEM
          1 000112  B870 0485                            LDR,R3   1157,IMO
          1 000114  0001                                 MCL
          1 000115       0000                            DC       s:6602+6,PREL

     3362     6603                  /*S* SCREECH_CODE: GJA-S$NODEMEM
PL6.E3A0      #004=GJA$SEND_MSG File=GJA$ADMIN.:E05TSI                           TUE 07/29/97 21:55 Page:604
     3363     6604                       TYPE:SCREECH
     3364     6605                       MESSAGE: NODEADMN out of memory
     3365     6606                       REMARKS: Nodeadmin ran out of memory.
     3366     6607         */
     3367     6608    3                END;

     3368     6609    2           SVMSG$->SV$MSG.LNK$ = ADDR(NIL);

   6609   1 000116  EB80 0000 0000                       LAB,B6   0
          1 000119  DCC7 000E                            LDB,B5   SVMSG$,AUTO
          1 00011B  EFC5 0001                            STB,B6   1,B5

     3369     6610    2           SVMSG$->SV$MSG.SZ = MSGSZ;

   6610   1 00011D  ECC7 000E                            LDB,B6   SVMSG$,AUTO
          1 00011F  DCC7 0008                            LDB,B5   @MSGSZ,AUTO
          1 000121  E805                                 LDR,R6   ,B5
          1 000122  EF46 0003                            STR,R6   3,B6

     3370     6611    2           IF ADDR(VFC) = ADDR(NIL)

   6611   1 000124  8CC7 000A                            LDI      @VFC,AUTO
          1 000126  B856                                 LDR,R3   R6
          1 000127  E570 7FFF                            AND,R6   32767,IMO
          1 000129  8D47 0016                            SDI      TCTX$+3,AUTO
          1 00012B  ECC7 0016                            LDB,B6   TCTX$+3,AUTO
          1 00012D  304F                                 SOR,R3   15
          1 00012E  EFC7 0018                            STB,B6   TCTX$+5,AUTO
          1 000130  8CC7 0018                            LDI      TCTX$+5,AUTO
          1 000132  7031                                 DCL,R7   1
          1 000133  8D47 001A                            SDI      TCTX$+7,AUTO
          1 000135  F853                                 LDR,R7   R3
          1 000136  6C00                                 LDV,R6   0
          1 000137  8447 001A                            AID      TCTX$+7,AUTO
          1 000139  7071                                 DCR,R7   1
          1 00013A  8D47 001C                            SDI      TCTX$+9,AUTO
          1 00013C  8DC7 001C                            CMN      TCTX$+9,AUTO
PL6.E3A0      #004=GJA$SEND_MSG File=GJA$ADMIN.:E05TSI                           TUE 07/29/97 21:55 Page:605
          1 00013E  0981 0008                            BNE      s:6615,PREL

     3371     6612    2           THEN
     3372     6613    2                SVMSG$->SV$MSG.VFC = BINASC(0);

   6613   1 000140  5C00                                 LDV,R5   0
          1 000141  CCC7 000E                            LDB,B4   SVMSG$,AUTO
          1 000143  D7C4 0004                            STH,R5   4,B4
          1 000145  0F81 0010                            B        s:6616,PREL

     3373     6614    2           ELSE
     3374     6615    2                SVMSG$->SV$MSG.VFC = VFC;

   6615   1 000147  8CC7 000A                            LDI      @VFC,AUTO
          1 000149  B856                                 LDR,R3   R6
          1 00014A  E570 7FFF                            AND,R6   32767,IMO
          1 00014C  8D47 0016                            SDI      TCTX$+3,AUTO
          1 00014E  CCC7 0016                            LDB,B4   TCTX$+3,AUTO
          1 000150  304F                                 SOR,R3   15
          1 000151  D0B4                                 LDH,R5   ,B4,R3
          1 000152  BCC7 000E                            LDB,B3   SVMSG$,AUTO
          1 000154  D7C3 0004                            STH,R5   4,B3

     3375     6616    2           SVMSGCNT = SVMSG$->SV$MSG.SZ;

   6616   1 000156  ECC7 000E                            LDB,B6   SVMSG$,AUTO
          1 000158  E846 0003                            LDR,R6   3,B6
          1 00015A  EF47 0012                            STR,R6   SVMSGCNT,AUTO

     3376     6617    2           IF CTX$->GJA$HAND_CTX.WAITING_MSG$ = ADDR(NIL)

   6617   1 00015C  CCC7 0004                            LDB,B4   @CTX$,AUTO
          1 00015E  BC84                                 LDB,B3   ,B4
          1 00015F  8DC3 0007                            CMN      7,B3
          1 000161  0981 0005                            BNE      s:6620,PREL

     3377     6618    2           THEN CTX$->GJA$HAND_CTX.WAITING_MSG$ = SVMSG$;
PL6.E3A0      #004=GJA$SEND_MSG File=GJA$ADMIN.:E05TSI                           TUE 07/29/97 21:55 Page:606

   6618   1 000163  EFC3 0007                            STB,B6   7,B3
          1 000165  0F81 001C                            B        s:6627,PREL

     3378     6619    3           ELSE DO;

     3379     6620    3                TMP$ = CTX$->GJA$HAND_CTX.WAITING_MSG$;

   6620   1 000167  ACC3 0007                            LDB,B2   7,B3
          1 000169  AFC7 0010                            STB,B2   TMP$,AUTO

     3380     6621    4                DO WHILE (TMP$->SV$MSG.LNK$ ~= ADDR(NIL));

   6621   1 00016B  0F81 000D                            B        s:6624,PREL

     3381     6622    4                     TMP$ = TMP$->SV$MSG.LNK$;

   6622   1 00016D  ECC7 0010                            LDB,B6   TMP$,AUTO
          1 00016F  DCC6 0001                            LDB,B5   1,B6
          1 000171  DFC7 0010                            STB,B5   TMP$,AUTO

     3382     6623    4                     SVMSGCNT = SVMSGCNT + TMP$->SV$MSG.SZ;

   6623   1 000173  E847 0012                            LDR,R6   SVMSGCNT,AUTO
          1 000175  EA45 0003                            ADD,R6   3,B5
          1 000177  EF47 0012                            STR,R6   SVMSGCNT,AUTO

     3383     6624    4                     END;

   6624   1 000179  ECC7 0010                            LDB,B6   TMP$,AUTO
          1 00017B  8DC6 0001                            CMN      1,B6
          1 00017D  09F0                                 BNE      s:6622,SPREL

     3384     6625    3                TMP$->SV$MSG.LNK$ = SVMSG$;

   6625   1 00017E  DCC7 000E                            LDB,B5   SVMSG$,AUTO
          1 000180  DFC6 0001                            STB,B5   1,B6
PL6.E3A0      #004=GJA$SEND_MSG File=GJA$ADMIN.:E05TSI                           TUE 07/29/97 21:55 Page:607

     3385     6626    3                END;

     3386     6627    2           SVMSG$ = PINCRW(SVMSG$,SIZEW(SV$MSG));

   6627   1 000182  ECC7 000E                            LDB,B6   SVMSG$,AUTO
          1 000184  DBC6 0005                            LAB,B5   5,B6
          1 000186  DFC7 000E                            STB,B5   SVMSG$,AUTO

     3387     6628    2           SIZE = MSGSZ;

   6628   1 000188  ECC7 0008                            LDB,B6   @MSGSZ,AUTO
          1 00018A  D806                                 LDR,R5   ,B6
          1 00018B  DF47 000C                            STR,R5   SIZE,AUTO

     3388     6629    2           SVMSG$->STRING = MSG;

   6629   1 00018D  8CC7 0006                            LDI      @MSG,AUTO
          1 00018F  B856                                 LDR,R3   R6
          1 000190  E570 7FFF                            AND,R6   32767,IMO
          1 000192  8D47 0016                            SDI      TCTX$+3,AUTO
          1 000194  CCC7 0016                            LDB,B4   TCTX$+3,AUTO
          1 000196  304F                                 SOR,R3   15
          1 000197  C806                                 LDR,R4   ,B6
          1 000198  BF47 0018                            STR,R3   TCTX$+5,AUTO
          1 00019A  CF47 0019                            STR,R4   TCTX$+6,AUTO
          1 00019C  CFC7 001A                            STB,B4   TCTX$+7,AUTO
          1 00019E  AB84                                 LAB,B2   ,B4
          1 00019F  A853                                 LDR,R2   R3
          1 0001A0  E854                                 LDR,R6   R4
          1 0001A1  BB85                                 LAB,B3   ,B5
          1 0001A2  3C00                                 LDV,R3   0
          1 0001A3  F855                                 LDR,R7   R5
          1 0001A4  D380 0000 0000  xent                 LNJ,B5   X6C_ALR

     3389     6630        /*
     3390     6631           If the path to the Host is blocked, flow control every handler.
PL6.E3A0      #004=GJA$SEND_MSG File=GJA$ADMIN.:E05TSI                           TUE 07/29/97 21:55 Page:608
     3391     6632        */
     3392     6633    2           IF CTX$ = GJA_UID_NM$ AND SVMSGCNT >= 4096

   6633   1 0001A7  ECC7 0004                            LDB,B6   @CTX$,AUTO
          1 0001A9  DC86                                 LDB,B5   ,B6
          1 0001AA  DD80 0000 0000  xsym                 CMB,B5   GJA_UID_NM
          1 0001AD  0981 003D                            BNE      s:6649,PREL
          1 0001AF  E847 0012                            LDR,R6   SVMSGCNT,AUTO
          1 0001B1  E970 1000                            CMR,R6   4096,IMO
          1 0001B3  0201 0037                            BL       s:6649,PREL

     3393     6634    3           THEN DO;

     3394     6635    3                TCTX$ = GJA_HAND_HEAD$;

   6635   1 0001B5  CC80 0000 0000  xsym                 LDB,B4   GJA_HAND_HEAD$
          1 0001B8  CFC7 0013                            STB,B4   TCTX$,AUTO

     3395     6636    4                DO WHILE ( TCTX$ ~= ADDR(NIL) );

   6636   1 0001BA  0F81 002D                            B        s:6645,PREL

     3396     6637    4                     IF TCTX$->GJA$HAND_CTX.WHO = %GJA_UID_HANDLER AND

   6637   1 0001BC  ECC7 0013                            LDB,B6   TCTX$,AUTO
          1 0001BE  E806                                 LDR,R6   ,B6
          1 0001BF  604D                                 SOR,R6   13
          1 0001C0  6D03                                 CMV,R6   3
          1 0001C1  0981 0020                            BNE      s:6644,PREL
          1 0001C3  82C6 000D                            LB,'1000'X        13,B6
          1 0001C5       1000
          1 0001C6  0501 001B                            BBT      s:6644,PREL

     3397     6638    4                       NOT TCTX$->GJA$HAND_CTX.BLK
     3398     6639    4                     THEN
     3399     6640    5                     DO;

PL6.E3A0      #004=GJA$SEND_MSG File=GJA$ADMIN.:E05TSI                           TUE 07/29/97 21:55 Page:609
     3400     6641    5                          CALL GJA$Q_MSG (TCTX$,LENGTHC(VDO_RQSDAT),VDO_RQSDAT);

   6641   1 0001C8  DBF0 000A                            LAB,B5   10,IMO
          1 0001CA  CB80 0000 0003  00                   LAB,B4   VDO_RQSDAT
          1 0001CD  CFC7 001A                            STB,B4   TCTX$+7,AUTO
          1 0001CF  DFC7 0018                            STB,B5   TCTX$+5,AUTO
          1 0001D1  BBC7 0013                            LAB,B3   TCTX$,AUTO
          1 0001D3  BFC7 0016                            STB,B3   TCTX$+3,AUTO
          1 0001D5  BBC7 0016                            LAB,B3   TCTX$+3,AUTO
          1 0001D7  CBF0 0300                            LAB,B4   768,IMO
          1 0001D9  E380 0000 0000  xent                 LNJ,B6   GJA$Q_MSG
          1 0001DC       0001                            DC       s:6642,PREL

     3401     6642    5                          TCTX$->GJA$HAND_CTX.BLK = '1'B;

   6642   1 0001DD  ECC7 0013                            LDB,B6   TCTX$,AUTO
          1 0001DF  8946 000D                            LBT,'1000'X       13,B6
          1 0001E1       1000

     3402     6643    5                          END;

     3403     6644    4                     TCTX$ = TCTX$->GJA$HAND_CTX.LNK$;

   6644   1 0001E2  ECC7 0013                            LDB,B6   TCTX$,AUTO
          1 0001E4  DCC6 0001                            LDB,B5   1,B6
          1 0001E6  DFC7 0013                            STB,B5   TCTX$,AUTO

     3404     6645    4                     END;

   6645   1 0001E8  8DC7 0013                            CMN      TCTX$,AUTO
          1 0001EA  09D2                                 BNE      s:6637,SPREL

     3405     6646    3                END;

     3406     6647    2           END;

     3407     6648
PL6.E3A0      #004=GJA$SEND_MSG File=GJA$ADMIN.:E05TSI                           TUE 07/29/97 21:55 Page:610
     3408     6649    1      RETURN;

   6649   1 0001EB  C380 0000 0000  xent                 LNJ,B4   X6A_ARET
     3409     6650
     3410     6651    1   END GJA$SEND_MSG;

PL6.E3A0      #004=GJA$SEND_MSG File=GJA$ADMIN.:E05TSI                           TUE 07/29/97 21:55 Page:611
--  Include file information  --

   KNH_MACRO_C.:E05TOU  is referenced.
   GJA_MSG_M.:E05TOU  is referenced.
   KV$VDO.:E05TOU  is referenced.
   KI_SUBS_C.:E05TOU  is referenced.
   K_SCODE_C.:E05TOU  is referenced.
   G_LCP6_E.:E05TOU  is referenced.
   GT_LCP6_M.:E05TOU  is referenced.
   KI_CP6.:E05TOU  is referenced.
   GF_LCP6_M.:E05TOU  is referenced.
   GM_LCP6_M.:E05TOU  is referenced.
   GU_LCP6_M.:E05TOU  is referenced.
   GJ_LCP6_M.:E05TOU  is referenced.
   GH_LCP6_M.:E05TOU  is referenced.
   LCP_6.:E05TOU  cannot be made into a system file and is referenced.
      No diagnostics issued in procedure GJA$SEND_MSG.
PL6.E3A0      #004=GJA$SEND_MSG File=GJA$ADMIN.:E05TSI                           TUE 07/29/97 21:55 Page:612

 **** Variables and constants ****

  ****  Section 000  Data  GJA$SEND_MSG

  ****  Scalars and arrays  ****
HexLoc.c.b A Datatyp(siz) R M Lvl/name                 HexLoc.c.b A Datatyp(siz) R M Lvl/name

     8-0-0/w STRC(48)    r     1 NODEMEM                    0-0-0/w STRC(48)    r     1 VDO_BLKDAT
     3-0-0/w STRC(80)    r     1 VDO_RQSDAT

  ****  Auto variables  ****

  ****  Scalars and arrays  ****
HexLoc.c.b A Datatyp(siz) R M Lvl/name                 HexLoc.c.b A Datatyp(siz) R M Lvl/name

     4-0-0/w PTR         r     1 @CTX$                      6-0-0/w PTR         r     1 @MSG
     8-0-0/w PTR         r     1 @MSGSZ                     A-0-0/w PTR         r     1 @VFC
    *0-0-0/w PTR         r     1 CTX$                      *0-0-0/c ACHR        r     1 MSG
    *0-0-0/w UBIN(16)    r     1 MSGSZ                      C-0-0/w UBIN(16)    r     1 SIZE
     E-0-0/w PTR         r     1 SVMSG$                    12-0-0/w UBIN(16)    r     1 SVMSGCNT
    13-0-0/w PTR         r     1 TCTX$                     10-0-0/w PTR         r     1 TMP$
    *0-0-0/c CHAR        r     1 VFC                        D-0-0/w UBIN(16)    r     1 WHO

  ****  SYMREF variables  ****

  ****  Scalars and arrays  ****
HexLoc.c.b A Datatyp(siz) R M Lvl/name                 HexLoc.c.b A Datatyp(siz) R M Lvl/name

     0-0-0/w PTR         r     1 GJA_HAND_HEAD$             0-0-0/w STRC(80)    r     1 GJA_LDDAT
     0-0-0/w UBIN(32)    r     1 GJA_UID_NM                 0-0-0/w PTR         r     1 GJA_UID_NM$
     0-0-0/w STRC(32)    r     1 GJA_VDO_DAT_DAT2

  ****  BASED and DCB variables  ****

  ****  Scalars and arrays  ****
HexLoc.c.b A Datatyp(siz) R M Lvl/name                 HexLoc.c.b A Datatyp(siz) R M Lvl/name

PL6.E3A0      #004=GJA$SEND_MSG File=GJA$ADMIN.:E05TSI                           TUE 07/29/97 21:55 Page:613
     0-0-0/c STRC(272)   r     1 GJA$HAND_CTX               0-0-0/c ACHR        r     1 STRING
     0-0-0/w STRC(80)    r     1 SV$MSG


   Procedure GJA$SEND_MSG requires 494 words for executable code.
   Procedure GJA$SEND_MSG requires 34 words of local(AUTO) storage.

    No errors detected in file GJA$ADMIN.:E05TSI    .
PL6.E3A0      #004=GJA$SEND_MSG File=GJA$ADMIN.:E05TSI                           TUE 07/29/97 21:55 Page:614
          *** CROSS REFERENCE LISTING ***
**     DENOTES     IDENTIFIER DEFINITION
<<                 IDENTIFIER'S VALUE SET
>>                 IDENTIFIER'S VALUE USED
<>                 IDENTIFIER SET AND/OR USED
--                 IDENTIFIER REFERENCED
PL6.E3A0      #004=GJA$SEND_MSG File=GJA$ADMIN.:E05TSI                           TUE 07/29/97 21:55 Page:615
          MINI XREF LISTING

CTX$
      6413**DCL         6--PROC     6551>>ASSIGN   6552>>IF       6552>>IF       6560<>CALL     6565>>ASSIGN
      6565>>ASSIGN   6566>>ASSIGN   6566>>ASSIGN   6572>>IF       6574>>ASSIGN   6574>>ASSIGN   6575<>CALL
      6580>>IF       6585<>CALL     6588>>IF       6592<>CALL     6617>>IF       6618>>ASSIGN   6620>>ASSIGN
      6633>>IF
GJA$HAND_CTX.BLK
      6527**DCL      6588>>IF       6637>>IF       6642<<ASSIGN
GJA$HAND_CTX.HOST_NODE
      6526**DCL      6580>>IF
GJA$HAND_CTX.LNK$
      6506**DCL      6644>>ASSIGN
GJA$HAND_CTX.MAXNMBBYT
      6510**DCL      6565<<ASSIGN   6565>>ASSIGN
GJA$HAND_CTX.MAXNMBRCR
      6509**DCL      6552>>IF       6566<<ASSIGN   6566>>ASSIGN   6572>>IF       6574<<ASSIGN   6574>>ASSIGN
GJA$HAND_CTX.MAXRCRBYTSIZ
      6508**DCL      6552>>IF
GJA$HAND_CTX.WAITING_MSG$
      6518**DCL      6617>>IF       6618<<ASSIGN   6620>>ASSIGN
GJA$HAND_CTX.WHO
      6501**DCL      6551>>ASSIGN   6637>>IF
GJA$Q_MSG
      6547**DCL-ENT  6575--CALL     6585--CALL     6592--CALL     6641--CALL
GJA$WRITE
      6546**DCL-ENT  6560--CALL
GJA_HAND_HEAD$
      6432**DCL      6635>>ASSIGN
GJA_LDDAT
      6304**DCL      6575--CALL     6575<>CALL
GJA_UID_NM
      6430**DCL      6431--REDEF
GJA_UID_NM$
PL6.E3A0      #004=GJA$SEND_MSG File=GJA$ADMIN.:E05TSI                           TUE 07/29/97 21:55 Page:616
      6431**DCL      6633>>IF
GJA_VDO_DAT_DAT2.DATCTRCHR
      6268**DCL      6558<<ASSIGN
GJA_VDO_DAT_DAT2.DATCTRCHRTYP
      6267**DCL      6557<<ASSIGN   6562<<ASSIGN
KVB$GET2NSYS
      6548**DCL-ENT  6600--CALL
M$SCREECH
      4248**DCL-ENT  6602--CALL
MSG
      6414**DCL         6--PROC     6560<>CALL     6629>>ASSIGN
MSGSZ
      6415**DCL         6--PROC     6414--IMP-SIZ  6552>>IF       6560<>CALL     6560>>CALL     6565>>ASSIGN
      6584>>ASSIGN   6591>>ASSIGN   6600>>CALL     6610>>ASSIGN   6628>>ASSIGN   6629>>ASSIGN
NODEMEM
      6460**DCL      6602<>CALL
SIZE
      6417**DCL      6418--IMP-SIZ  6628<<ASSIGN   6629>>ASSIGN
STRING
      6418**DCL      6629<<ASSIGN
SV$MSG
      6419**DCL      6600--CALL     6627--ASSIGN
SV$MSG.LNK$
      6421**DCL      6609<<ASSIGN   6621>>DOWHILE  6622>>ASSIGN   6625<<ASSIGN
SV$MSG.SZ
      6422**DCL      6610<<ASSIGN   6616>>ASSIGN   6623>>ASSIGN
SV$MSG.VFC
      6423**DCL      6613<<ASSIGN   6615<<ASSIGN
SVMSG$
      6426**DCL      6600<>CALL     6609>>ASSIGN   6610>>ASSIGN   6613>>ASSIGN   6615>>ASSIGN   6616>>ASSIGN
      6618>>ASSIGN   6625>>ASSIGN   6627<<ASSIGN   6627>>ASSIGN   6629>>ASSIGN
SVMSGCNT
      6428**DCL      6616<<ASSIGN   6623<<ASSIGN   6623>>ASSIGN   6633>>IF
TCTX$
      6429**DCL      6635<<ASSIGN   6636>>DOWHILE  6637>>IF       6637>>IF       6641<>CALL     6642>>ASSIGN
      6644<<ASSIGN   6644>>ASSIGN
PL6.E3A0      #004=GJA$SEND_MSG File=GJA$ADMIN.:E05TSI                           TUE 07/29/97 21:55 Page:617
TMP$
      6427**DCL      6620<<ASSIGN   6621>>DOWHILE  6622<<ASSIGN   6622>>ASSIGN   6623>>ASSIGN   6625>>ASSIGN
VDO_BLKDAT
      6167**DCL      6585--CALL     6585<>CALL     6592--CALL     6592<>CALL
VDO_BLKDAT.RCRBYTSIZ
      6174**DCL      6584<<ASSIGN   6591<<ASSIGN
VDO_RQSDAT
      6211**DCL      6641--CALL     6641<>CALL
VFC
      6416**DCL         6--PROC     6555--IF       6558>>ASSIGN   6611--IF       6615>>ASSIGN
WHO
      6425**DCL      6551<<ASSIGN   6552>>IF       6552>>IF       6563>>IF       6563>>IF       6578>>DOCASE
