PL6.E3A0      #001=GJA$ADMIN File=GJA$ADMIN.:E05TSI                              TUE 07/29/97 21:50 Page:1
        1        1        /*M* GJA$ADMIN - Node Administrator main routine.  */
        2        2        /*T***********************************************************/
        3        3        /*T*                                                         */
        4        4        /*T* Copyright (c) Bull HN Information Systems Inc., 1997    */
        5        5        /*T*                                                         */
        6        6        /*T***********************************************************/
        7        7        /*X* PLM=3,IND=5,ENU=0,ECU=0,CRM=70  */
        8        8        /*P*    NAME:   GJA$ADMIN
        9        9                PURPOSE: This module contains the node admin init routine as
       10       10                         well as the routine that co_ordinates node admin
       11       11                         processing.
       12       12        */
       13       13
       14       14
       15       15        /*F*  NAME:    GJA$ADMIN
       16       16
       17       17              PURPOSE: This routine co-ordinates node admin processing.  Its
       18       18                       gets entered when there are messages to process in the
       19       19                       node admin receive circular queue.
       20       20
       21       21              DESCRIPTION: This routine gets entered at system startup and
       22       22                           initializes the node administrator.  It sets up
       23       23                           node admins CQ and issues a connect to the network
       24       24                           manager.
       25       25
       26       26                           GJA$ADMIN then scans the receive circular queue
       27       27                           processing messages one at a time.  When a message
       28       28                           is decoded, it is either handled here or a seperate
       29       29                           routine is called to do the processing.  When the
       30       30                           receive queue is depleted, we write out the send
       31       31                           circular queue and go to sleep.
       32       32        */
       33       33        GJA$ADMIN: PROC MAIN;
       34       34
       35       35        %INCLUDE G_JIT_M;
       36      300        %INCLUDE LCP_6;
       37     4579        %INCLUDE G$BOBCAT_M;
PL6.E3A0      #001=GJA$ADMIN File=GJA$ADMIN.:E05TSI                              TUE 07/29/97 21:50 Page:2
       38     4599        %INCLUDE GJA_MSG_M;                /* Node Admin message macros     */
       39     4838        %INCLUDE GM_VIRTUAL_E;
       40     5048        %INCLUDE KH$CLK;
       41     5418        %INCLUDE KH$CHN;
       42     5540        %INCLUDE K_ADDRESS_M;
       43     6043        %INCLUDE KN_ERRORS_C;
       44     6107        %INCLUDE KH_MACRO_C;
       45     6850        %INCLUDE KI_ERRORS_C;
       46     6935        %INCLUDE KL_AFCN_C;                     /* 'IGA' Function Codes     */
       47     7036        %INCLUDE KL_CONTROL_C;
       48     7416        %INCLUDE KL_MACRO_C;               /* Application message formats   */
       49    10768        %INCLUDE KNN_NETWORK_M;
       50    11131        %INCLUDE K_REASON_C;
       51    11157        %INCLUDE KNH_MACRO_C;                   /* CQ macros                */
       52    11440        %INCLUDE KV$VDH;
       53    11871        %INCLUDE KV$VDO;
       54    12886
       55    12887                                                /* EQUs and SUBs            */
       56    12888        %KV_VDO_ALL_E;
       57    12967        %GJA_UID_EQUS;
       58    12975        %G$JIT_E;
       59    13037                                                /* FPTs                     */
       60    13038        %FPT_SPRIV (PRC=YES,AUTH=YES,PRIV=PRIVS);
       61    13061        %FPT_CVM (FPTN=GET_BOBCAT,FROMSEG=FROMSEG,USERSEG=USERSEG,TYPE=MON,PAGES=256);
       62    13085        %VLP_SEGMENT(FPTN=USERSEG);
       63    13106        %VLP_SEGMENT(FPTN=FROMSEG);
       64    13127        %FPT_GDS(FPTN=FPT_GETMEM,FREE=YES,NEXT=BIG,PAGES=20,RESULTS=GJA_MEMORY_RESULTS);
       65    13151        %VLP_SEGMENT(FPTN=GJA_MEMORY_RESULTS);
       66    13172        %FPT_OPEN(FPTN=FPT_CQOPEN,ORG=CQ,HMI=VLP_HMI,DCB=M$CQ);
       67    13200        %VLP_HMI(RCQSIZE=4096,SCQSIZE=4096);
       68    13216        %FPT_TRAP (NTC=VLP_TRAP_CONDITIONS);
       69    13231        %VLP_TRAP_CONDITIONS (IGN_IO=G_YES#);
       70    13387        %FPT_WRTMLT(DCB=M$CQ);
       71    13407        %KL_SYSLOG(FPTN=GJA_SYSLOG,LAST=",",STCLASS=SYMREF);
       72    13431        %KL_ERRLOG(FPTN=ERRLOG,LAST=",",LVL=2,STCLASS=SYMREF);
       73    13539    1           3 DATA CHAR(200) UNAL;
       74    13540        %VLP_ERRCODE(FPTN=E$READ_ERR,FCG=GJ,MID=A,MON='1'B,ERR#=%E$READ_ERR,SEV=
PL6.E3A0      #001=GJA$ADMIN File=GJA$ADMIN.:E05TSI                              TUE 07/29/97 21:50 Page:3
             13540            %G_SEV_ERROR#);
       75    13586        /*E* ERROR: GJA-E$READ_ERR
       76    13587             MESSAGE: Read complete without read pending.
       77    13588             MESSAGE1: nodeadmn received data from a logon connection which
       78    13589                       had no read out standing.  the message has been discarded.*/
       79    13590
       80    13591        /*E* ERROR: GJA-E$LINK_UP
       81    13592             MESSAGE: X.25 link is now active. VALUE(0) is connecting node#.
       82    13593             MESSAGE1: An X.25 link to or from a remote fep is now active.*/
       83    13594
       84    13595        /*E* ERROR: GJA-E$LINK_DOWN
       85    13596             MESSAGE: X.25 link is now inactive.  Value(0) is disconnecting node#.
       86    13597             MESSAGE1: An X.25 link to or from a remote fep is now inactive.*/
       87    13598
       88    13599        %FPT_TIME(SOURCE=CLOCK,DEST=UTS);
       89    13623    1   DCL B$PTR$ PTR BASED;
       90    13624                                                /* Internal Data            */
       91    13625    1   DCL PRIVS BIT(32) CONSTANT INIT(
       92    13626    1   %(G_PR_MSYS#|G_PR_CQ#|G_PR_SCREECH#|G_PR_SNAP#|G_PR_EXMM#|G_PR_SPCLMM#));
       93    13627        %KL_MES (FPTN=GJA_KL_MES,STCLASS=CONSTANT,CODE=IGA_INIT_DONE);
       94    13650        %KV$VDH_VDHINT(STCLASS=STATIC,BUSYBFRS=YES,BITMAPBFRS=YES,VLDBFR=YES,VLDAFTRLS=YES,
             13650            VLDAFTGET=YES);
       95    13669    1   DCL KH_CTLTBL$ PTR SYMREF;
       96    13670        %KV_VDOBYTSIZ (NAME=GJA_VDOBYTSIZ,STCLASS=SYMREF);
       97    13690        %KV$VDO_MRK (NAME=GJA_VDO_MRK,LAST=",",STCLASS=SYMREF);
       98    13731             %KV$VDOVLP_MRK (NAME=MRK,LVL=2);
       99    13784        %KV$VDO_DAT (NAME=GJA_LDDAT,STCLASS=SYMREF,LAST=",");
      100    13829             %KV$VDOVLP_ERR(NAME=ERR,STCLASS=SYMREF,LST=YES,LVL=2);
      101    13926        %KV$VDO_RQSDAT(NAME=KV_VDO_RQSDAT,FNC=KV_VDO_FNC_RQSDAT,
      102    13927                       MAXRCRBYTSIZ=4096,MAXNMBRCR=999,MAXNMBBYT=4096,
      103    13928                       STCLASS=CONSTANT);
      104    13976        %KH$EXP (FPTN=KH_EXP,STCLASS=STATIC);
      105    14039        %KH$CTLTBL (FPTN=CTLTBL,STCLASS=STATIC,HIPARM=%KL_NA_HI);
      106    14251        %KV$VDO_DAT(NAME=VDO_NODAT,STCLASS=CONSTANT,LAST=",",VLP=YES,FNC=KV_VDO_FNC_DAT);
      107    14296             %KV$VDOVLP_ERR (NAME=ERR,FCG=GJ,MID=A,MON='1'B,ERR#=%E$NODAT,SEV=0,STCLASS=
             14296                 CONSTANT,LVL=2);
      108    14393
PL6.E3A0      #001=GJA$ADMIN File=GJA$ADMIN.:E05TSI                              TUE 07/29/97 21:50 Page:4
      109    14394
      110    14395                                                /* External Data            */
      111    14396    1   DCL G$DS1$ PTR SYMREF;
      112    14397    1   DCL G$DS4$ PTR SYMREF;
      113    14398    1   DCL GID_BOOTCHAN UBIN SYMREF;
      114    14399    1   DCL GJA_FIRST_TIME BIT(1) SYMREF;
      115    14400    1   DCL GJA_INTLEV UBIN SYMREF;
      116    14401    1   DCL GJA_ATTR UBIN SYMREF;
      117    14402    1   DCL ATTR UBIN(16);
      118    14403    1   DCL GJA_LDCT_NM UBIN SYMREF;
      119    14404    1   DCL GJA_LDCT_BABOON UBIN SYMREF;
      120    14405    1   DCL GJA_MAXNODE UBIN SYMREF;
      121    14406    1   DCL GJA_UID_NM UBIN(32) SYMREF;
      122    14407    1   DCL GJA_UID_NM$ REDEF GJA_UID_NM PTR;
      123    14408    1   DCL GJA_UID_BABOON UBIN(32) SYMREF;
      124    14409    1   DCL GJA_UID_BABOON$ REDEF GJA_UID_BABOON PTR;
      125    14410    1   DCL GJA_USRLGN_HEAD$ PTR SYMREF;
      126    14411    1   DCL GJA_HAND_HEAD$ PTR SYMREF;
      127    14412    1   DCL GJA_HOPCOST UBIN SYMREF;
      128    14413    1   DCL GJA_ROUTE$ PTR SYMREF;
      129    14414    1   DCL GJA_OSIROUTE$ PTR SYMREF;      /* ptr to array of osiroute ptrs */
      130    14415    1   DCL GJA_OSIMAX# UBIN SYMREF;
      131    14416    1   DCL GJA_LINKS UBIN SYMREF;
      132    14417    1   DCL GJA_LINK$ PTR SYMREF;
      133    14418    1   DCL GJA_NM_HEAD$ PTR SYMREF;
      134    14419    1   DCL GJA_NODE# UBIN SYMREF;
      135    14420    1   DCL GJA_CHNLOW$ PTR SYMREF;
      136    14421    1   DCL GJA_NODENAME CHAR(8) SYMREF;
      137    14422    1   DCL GJA_CHNHI$ PTR SYMREF;
      138    14423    1   DCL GJA_CHNLOW UBIN SYMREF;
      139    14424    1   DCL GJA_CHNHI UBIN SYMREF;
      140    14425    1   DCL GJA_CHNFREE$ PTR SYMREF;
      141    14426    1   DCL GJA_RETRYMAX UBIN SYMREF;
      142    14427    1   DCL GJA_UID_NANM$ PTR SYMREF;
      143    14428    1   DCL G$HAND_Q$ PTR SYMREF;
      144    14429    1   DCL GJA_DEFNODE UBIN SYMREF;
      145    14430    1   DCL GJA_HSTRSMED BIT(1) SYMREF;
PL6.E3A0      #001=GJA$ADMIN File=GJA$ADMIN.:E05TSI                              TUE 07/29/97 21:50 Page:5
      146    14431    1   DCL GJA_MAXRDS UBIN SYMREF;
      147    14432    1   DCL GJA_MSG_SGSYN$ PTR SYMREF;
      148    14433    1   DCL GJA_MSG_BDID$ PTR SYMREF;
      149    14434    1   DCL GJA_MSG_NOHOST$ PTR SYMREF;
      150    14435    1   DCL GJA_MSG_UDHOST$ PTR SYMREF;
      151    14436    1   DCL GJA_RCQSIZE UBIN SYMREF;
      152    14437    1   DCL GJA_SCQSIZE UBIN SYMREF;
      153    14438    1   DCL GJA_MEMORY UBIN SYMREF;
      154    14439        %FPT_TERM(FPTN=GJA_TERM,STCLASS=SYMREF);
      155    14461        %FPT_TERM_ACK(FPTN=GJA_TERM_ACK,STCLASS=SYMREF);
      156    14483        %FPT_CONNECT(FPTN=GJA_CONNECT,STCLASS=SYMREF);
      157    14552        %FPT_CONNECT_ACK (FPTN=GJA_CONNECT_ACK,STCLASS=SYMREF);
      158    14601        %KV$VDO_DAT (NAME=GJA_VDO_DAT_DAT2,STCLASS=SYMREF);
      159    14646
      160    14647
      161    14648                                                /* BASED                    */
      162    14649    1   DCL B$DWORD UBIN(32) BASED ALIGNED;
      163    14650    1   DCL KNN$ROUTE$(0:0) PTR BASED(GJA_ROUTE$);
      164    14651    1   DCL KNN$LINK$(0:0) PTR BASED(GJA_LINK$);
      165    14652    1   DCL GJA_MSG_DOWN$ PTR SYMREF;
      166    14653    1   DCL GJA_MSG_LINKDOWN$ PTR SYMREF;
      167    14654    1   DCL GJA_MSG_HOSTDOWN$ PTR SYMREF;
      168    14655        %KNN$ROUTE (STCLASS="BASED(ROUTE$)");
      169    14727        %KNN$LINK(STCLASS=BASED);
      170    14978    1   DCL STRING CHAR(SIZE) BASED;
      171    14979    1   DCL 1 SV$MSG BASED(MSG$),
      172    14980    1         2 BFRSIZ UBIN,     /* size of the buffer, so we can use 2nsys */
      173    14981    1         2 LNK$ PTR,
      174    14982    1         2 SZ UBIN,
      175    14983    1         2 VFC CHAR(1) UNAL,
      176    14984    1         2 * CHAR(1) UNAL;
      177    14985        %FPT_CONNECT_ACK(STCLASS="BASED(FPT$)");
      178    15034        %FPT_CONNECT (FPTN=FPT$CONNECT,STCLASS="BASED(FPT$)");
      179    15103        %G$BOBCAT (STCLASS="BASED(G$DS4$)");
      180    15116        %GJA$LGNCTX(STCLASS="BASED(CTX$)");
      181    15201        %GJA$HAND_CTX (STCLASS="BASED(CTX$)");
      182    15250        %KL_CONTROL_INIT(FPTN=KL$CONTROL,STCLASS="BASED(MSG$)");
PL6.E3A0      #001=GJA$ADMIN File=GJA$ADMIN.:E05TSI                              TUE 07/29/97 21:50 Page:6
      183    15376        %KNH$QHDR(FPTN=CQ$QHDR,STCLASS="BASED(G$HAND_Q$)"); /* CQ header    */
      184    15389        %KNH$MESS(STCLASS="BASED(MSG$)");       /* CQ message template      */
      185    15438        %KV$VDO(NAME=KV$VDO,STCLASS="BASED(VDO$)");
      186    15465        %KV$VDO_RQSDAT (NAME=KV$VDO_RQSDAT,STCLASS="BASED(VDO$)");
      187    15513        %KV$VDO_STT (NAME=GJA_VDO_STT,STCLASS=SYMREF,LAST=",");
      188    15554             %KV$VDOVLP_DAT1(NAME=DAT1,LAST=",",LVL=2);
      189    15604    1         2 STATE CHAR(255);
      190    15605        %KH$CHN(STCLASS=BASED);
      191    15729        %KV$VDOVLP(NAME=KV$VDOVLP,STCLASS="BASED(VLP$)");
      192    15765        %KV$VDOVLP_DAT1;
      193    15815        %KV$VDOVLP_DAT2;
      194    15865          %KV$VDOVLP_ACTPOS;
      195    15916        %KV$VDOVLP_CG_MSGTYP;
      196    15968        %KV$VDOVLP_CG_STA;
      197    16019        %KV$VDOVLP_ERR;
      198    16116        %KV$VDOVLP_FLDID;
      199    16167        %KV$VDOVLP_KEY;
      200    16217        %KV$VDOVLP_MRK;
      201    16270        %KV$VDOVLP_CG_MSGID;
      202    16322
      203    16323
      204    16324                                                /* AUTO                     */
      205    16325        %GJA$PARAMS(STCLASS="");
      206    16340    1   DCL VLPSIZE UBIN;
      207    16341    1   DCL WHO UBIN;
      208    16342    1   DCL CHN$ PTR;
      209    16343    1   DCL MSG$ PTR;                 /* Pointer to MSG we are processing   */
      210    16344    1   DCL APP$ PTR;            /* Points to application specific message  */
      211    16345    1   DCL FPT$ PTR;            /* Pointer to the FPT portion of a message */
      212    16346    1   DCL CTX$ PTR;                      /* Pointer to handler context    */
      213    16347    1   DCL SVMSG$ PTR;
      214    16348    1   DCL VLP$ PTR;
      215    16349    1   DCL VDO$ PTR;
      216    16350    1   DCL MSGSIZ UBIN;                        /* Byte size of message     */
      217    16351    1   DCL ROUTE$ PTR;
      218    16352    1   DCL SCNSIZ SBIN;                   /* Number of bytes left to scan  */
      219    16353    1   DCL SIZE UBIN;
PL6.E3A0      #001=GJA$ADMIN File=GJA$ADMIN.:E05TSI                              TUE 07/29/97 21:50 Page:7
      220    16354    1   DCL LAST BIT(1);
      221    16355    1   DCL RECOVERY_NODE UBIN(32);
      222    16356        %KV$VDO_RQSDAT(NAME=KV@VDO_RQSDAT,STCLASS=AUTO);
      223    16404    1   DCL UNFLOW UBIN;
      224    16405    1   DCL MSGWTSIZE UBIN;
      225    16406    1   DCL SVCTX$ PTR;
      226    16407    1   DCL STRLEN UBIN;
      227    16408    1   DCL CHARPOS UBIN;
      228    16409    1   DCL NMAVAIL BIT(1);
      229    16410                                                /* DCBs                     */
      230    16411    1   DCL M$CQ DCB;
      231    16412                                                /* ENTRYS                   */
      232    16413    1   DCL GIJ$ABORTDUMP ENTRY;
      233    16414    1   DCL GJA$DECODE_APL_MSG ENTRY(2) ALTRET;
      234    16415    1   DCL GJA$DISOLVE_LGNUSR_CTX ENTRY(1);
      235    16416    1   DCL GJA$CONFIG ENTRY;
      236    16417    1   DCL GJA$DISOLVE_NA ENTRY(1);
      237    16418    1   DCL GJA$GET_CONFIG_INFO ENTRY (1);
      238    16419    1   DCL GJA$HOST_RECOVERY ENTRY(1) ALTRET;
      239    16420    1   DCL GJA$HOST_RESUMED ENTRY ALTRET;
      240    16421    1   DCL GJA$NETWORK_MANAGER ENTRY(2) ALTRET;
      241    16422    1   DCL GJA$LOGON_REQUEST ENTRY(3) ALTRET;
      242    16423    1   DCL GJA$LOGON_REQUEST_AGAIN ENTRY(1) ALTRET;
      243    16424    1   DCL KHC$UTS ENTRY(1) ALTRET;
      244    16425    1   DCL GJA$LOGON_TIMEOUT ENTRY(1);
      245    16426    1   DCL GJA$NODEINFO ENTRY(1);
      246    16427    1   DCL GJA$Q_MSG ENTRY(6);
      247    16428    1   DCL GJA$SOLICIT_LOGON ENTRY(1);
      248    16429    1   DCL GJA$SOLICIT_NM ENTRY(2);
      249    16430    1   DCL GJA$TERM_HANDLER ENTRY(1);
      250    16431    1   DCL GJA$WRITE ENTRY(6);
      251    16432    1   DCL KHC$DISPATCH ENTRY(1) ALTRET;
      252    16433    1   DCL KHC$WAIT ENTRY ALTRET;
      253    16434    1   DCL KVB$GET2NSYS ENTRY(2) ALTRET;
      254    16435    1   DCL KVB$GETSYS ENTRY(2) ALTRET;
      255    16436    1   DCL KVB$INT ENTRY(1) ALTRET;
      256    16437    1   DCL KVB$RLS2NSYS ENTRY(2) ALTRET;
PL6.E3A0      #001=GJA$ADMIN File=GJA$ADMIN.:E05TSI                              TUE 07/29/97 21:50 Page:8
      257    16438    1   DCL KVB$RLSSYS ENTRY(2) ALTRET;
      258    16439        %EJECT;
PL6.E3A0      #001=GJA$ADMIN File=GJA$ADMIN.:E05TSI                              TUE 07/29/97 21:50 Page:9
      259    16440        /* Node Admin Initialization
      260    16441        */
      261    16442    1      KH_CTLTBL$ = ADDR(CTLTBL);
      262    16443    1      CTLTBL.PARM.PTR$(%KL_HNDLRPARM_INTLVL) = ADDR(GJA_INTLEV);
      263    16444        /* Get privileged, take trap control and open the CQ DCB.
      264    16445        */
      265    16446    1      CALL M$SPRIV (FPT_SPRIV);
      266    16447    1      CALL M$SYS;
      267    16448    1      CALL M$TRAP(FPT_TRAP);
      268    16449        /* Map onto the BOBCAT segment in the monitor */
      269    16450    1      FROMSEG.BASE = %GM_BOBCAT_BASE;
      270    16451    1      USERSEG.BASE = %GM_USRDS4_BASE;
      271    16452    1      CALL M$CVM (GET_BOBCAT);
      272    16453    1      GJA_MAXNODE = G$BOBCAT.NODES;
      273    16454    1      GJA_NODE# = G$BOBCAT.FEP#;
      274    16455    1      GJA_NODENAME = G$BOBCAT.NODENAME;
      275    16456    1      GJA_DEFNODE = G$BOBCAT.HOSTNODE;
      276    16457    1      GJA_ROUTE$ = G$BOBCAT.ROUTE$$;
      277    16458    1      GJA_OSIROUTE$ = G$BOBCAT.OSIROUTE$;
      278    16459    1      GJA_OSIMAX# = G$BOBCAT.OSIROUTE#;
      279    16460    1      GJA_LINKS = G$BOBCAT.LINKS;
      280    16461    1      GJA_LINK$ = G$BOBCAT.LINK$$;
      281    16462
      282    16463        /* Get the NA control parameters */
      283    16464    1      MSG$ = PINCRW(G$DS1$,PINCRW(G$DS1$,2)->B$DWORD);
      284    16465    1      IF MSG$->KL$CONTROL.TYPE = 1         /* Paremeters present       */
      285    16466    2      THEN DO;
      286    16467    2           IF MSG$->KL$CONTROL.NUM_FPARAM >= %KL_HNDLRPARM_MEM
      287    16468    3           THEN DO;
      288    16469    3                FPT_GETMEM.V.PAGES = KL$CONTROL.FPARAM(%KL_HNDLRPARM_MEM);
      289    16470    3                GJA_MEMORY = FPT_GETMEM.V.PAGES;
      290    16471    3                END;
      291    16472    2           IF MSG$->KL$CONTROL.NUM_FPARAM > %KL_HNDLRPARM_RCVCQBYTSIZ
      292    16473    3           THEN DO;
      293    16474    3                VLP_HMI.RCQSIZE = KL$CONTROL.FPARAM(%KL_HNDLRPARM_RCVCQBYTSIZ);
      294    16475    3                GJA_RCQSIZE = VLP_HMI.RCQSIZE;
      295    16476    3                END;
PL6.E3A0      #001=GJA$ADMIN File=GJA$ADMIN.:E05TSI                              TUE 07/29/97 21:50 Page:10
      296    16477    2           IF MSG$->KL$CONTROL.NUM_FPARAM > %KL_HNDLRPARM_SNDCQBYTSIZ
      297    16478    3           THEN DO;
      298    16479    3                VLP_HMI.SCQSIZE = KL$CONTROL.FPARAM(%KL_HNDLRPARM_SNDCQBYTSIZ);
      299    16480    3                GJA_SCQSIZE = VLP_HMI.SCQSIZE;
      300    16481    3                END;
      301    16482    2           IF MSG$->KL$CONTROL.NUM_FPARAM >= %KL_NA_HOPCOST
      302    16483    2           THEN
      303    16484    2                GJA_HOPCOST = KL$CONTROL.FPARAM(%KL_NA_HOPCOST);
      304    16485    2           IF MSG$->KL$CONTROL.NUM_FPARAM > %KL_NA_LGNRTRYNUM
      305    16486    2           THEN
      306    16487    2                GJA_RETRYMAX = KL$CONTROL.FPARAM(%KL_NA_LGNRTRYNUM);
      307    16488    2           IF MSG$->KL$CONTROL.NUM_FPARAM >= %KL_HNDLRPARM_ATTR THEN
      308    16489    2                GJA_ATTR = KL$CONTROL.FPARAM(%KL_HNDLRPARM_ATTR);
      309    16490    2           END;
      310    16491
      311    16492    1      CALL M$OPEN(FPT_CQOPEN) WHENALTRETURN
      312    16493    2      DO;
      313    16494    2           CALL M$XXX;
      314    16495    2           END;
      315    16496        /*  Get some memory and use it to initialize the Node Admin buddy space pool.
      316    16497        */
      317    16498    1      CALL M$GDS(FPT_GETMEM)
      318    16499    2      WHENALTRETURN DO;
      319    16500    2           CALL M$XXX;
      320    16501    2           END;
      321    16502    1      KV$VDH_VDHINT.BFRBGN$ = GJA_MEMORY_RESULTS.BASE$;
      322    16503    1      KV$VDH_VDHINT.BFREND$=PINCRW(GJA_MEMORY_RESULTS.BASE$,GJA_MEMORY_RESULTS.PAGES*
             16503               256);
      323    16504    1      CALL KVB$INT(KV$VDH_VDHINT);
      324    16505
      325    16506        /* Setup the channel table.
      326    16507        */
      327    16508    1      GJA_CHNLOW = G$BOBCAT.CHNLOW;
      328    16509    1      GJA_CHNLOW$ = G$BOBCAT.CHNLOW$;
      329    16510    1      GJA_CHNHI$ = G$BOBCAT.CHNHI$;
      330    16511    1      GJA_CHNHI = G$BOBCAT.CHNHI;
      331    16512    1      GJA_CHNFREE$ = G$BOBCAT.CHNFREE$;
PL6.E3A0      #001=GJA$ADMIN File=GJA$ADMIN.:E05TSI                              TUE 07/29/97 21:50 Page:11
      332    16513    1      GID_BOOTCHAN = G$BOBCAT.BOOTCHAN;
      333    16514
      334    16515        /* Convert the config information passed to us in DS1. */
      335    16516    1      CALL GJA$CONFIG;
      336    16517
      337    16518        /* Get CTX for the NM connection */
      338    16519    1      SIZE=SIZEW(GJA$HAND_CTX);
      339    16520    1      CALL KVB$GETSYS(SIZE,CTX$);
      340    16521    1      GJA_UID_NANM$ = CTX$;
      341    16522    1      GJA_HAND_HEAD$ = CTX$;
      342    16523    1      GJA$HAND_CTX = '0'B;
      343    16524    1      GJA$HAND_CTX.WHO = %GJA_UID_NM;
      344    16525    1      GJA$HAND_CTX.NAME = 'MANAGER';
      345    16526
      346    16527
      347    16528        %EJECT;
PL6.E3A0      #001=GJA$ADMIN File=GJA$ADMIN.:E05TSI                              TUE 07/29/97 21:50 Page:12
      348    16529        /* Initialization complete.  Now, loop forever scanning the circular queue.
      349    16530        */
      350    16531    2      DO WHILE (%G_YES#);                  /* FOREVER                  */
      351    16532        /* Check for expired clocks */
      352    16533    3   CLOCK_LOOP:DO WHILE '1'B;
      353    16534    3                IF NOT KH_EXP.ABORT
      354    16535    3                THEN
      355    16536    3                     CALL KHC$DISPATCH (KH_EXP)
      356    16537    4                     WHENRETURN DO;
      357    16538    4                          CALL GJA$LOGON_TIMEOUT(KH_EXP.UID$);
      358    16539
      359    16540    4                          END;             /* WHENRETURN               */
      360    16541    4                     WHENALTRETURN DO;
      361    16542    4                          KH_EXP.CTBCTX$ = ADDR(NIL);
      362    16543    4                          EXIT CLOCK_LOOP;
      363    16544    4                          END;
      364    16545    3                END;
      365    16546
      366    16547        /*  Figure out how much there is to scan (accounting for wrap)
      367    16548        */
      368    16549    2   SCAN:   SCNSIZ=CQ$QHDR.RCQ.IPTR - CQ$QHDR.RCQ.RPTR;
      369    16550    2           IF SCNSIZ < 0
      370    16551    2           THEN SCNSIZ=SCNSIZ+CQ$QHDR.RCQ.SZ;
      371    16552
      372    16553        /*  Extract all current messages from the queue and process them.
      373    16554            Derive a pointer to the next message in the queue and determine
      374    16555            how large it is.  (RPTR is a DW index)  (MSGSIZ is in DWs)
      375    16556        */
      376    16557    3           DO WHILE (SCNSIZ > 0);
      377    16558    3                MSG$=PINCRW(G$HAND_Q$,CQ$QHDR.RCQ.OFFSET+CQ$QHDR.RCQ.RPTR*2);
      378    16559    3                MSGSIZ=(SIZEW(KNH$MESS) + (KNH$MESS.FPTSZ+1)/2 +(KNH$MESS.MSGSZ+1)/2 +
             16559                         1) / 2;
      379    16560    4                IF KNH$MESS.FUNCTION ~= %KN_FCN_NOP THEN DO;
      380    16561    4                     CTX$ = KNH$MESS.UID$;
      381    16562    4                     IF CTX$ ~= ADDR(NIL)
      382    16563    4                     THEN
      383    16564    4                          WHO = GJA$HAND_CTX.WHO;
PL6.E3A0      #001=GJA$ADMIN File=GJA$ADMIN.:E05TSI                              TUE 07/29/97 21:50 Page:13
      384    16565
      385    16566    4                     END;
      386    16567    3                ELSE
      387    16568    3                     CTX$ = ADDR(NIL);
      388    16569        /*  Branch out depending on the circular queue message function code.
      389    16570        */
      390    16571    4                DO CASE(KNH$MESS.FUNCTION);
      391    16572        %EJECT;
PL6.E3A0      #001=GJA$ADMIN File=GJA$ADMIN.:E05TSI                              TUE 07/29/97 21:50 Page:14
      392    16573        /*   NOP
      393    16574         */
      394    16575    4                 CASE(%KN_FCN_NOP);
      395    16576
      396    16577        %EJECT;
PL6.E3A0      #001=GJA$ADMIN File=GJA$ADMIN.:E05TSI                              TUE 07/29/97 21:50 Page:15
      397    16578        /*   Initiate Connection Request
      398    16579        */
      399    16580    4                 CASE(%KN_FCN_INIT);
      400    16581
      401    16582    4                   FPT$ = PINCRW(MSG$,SIZEW(KNH$MESS));
      402    16583
      403    16584    5                   DO SELECT (FPT$CONNECT.RESOURCE);
      404    16585
      405    16586    5                        SELECT ('NODADM');
      406    16587    5                        SIZE = SIZEW(GJA$HAND_CTX);
      407    16588    6                        CALL KVB$GETSYS(SIZE,CTX$) WHENALTRETURN DO;
      408    16589    6                             GOTO GETOUT;
      409    16590    6                             END;
      410    16591    5                        GJA$HAND_CTX = '0'B;
      411    16592    5                        GJA$HAND_CTX.SYSID = FPT$CONNECT.USER.SYSID;
      412    16593    5                        GJA$HAND_CTX.NAME = FPT$CONNECT.TERMINAL_ID.TERMID;
      413    16594    5                        IF GJA_HAND_HEAD$ = ADDR(NIL)
      414    16595    5                        THEN GJA_HAND_HEAD$ = CTX$;
      415    16596    6                        ELSE DO;
      416    16597    6                             GJA$HAND_CTX.LNK$ = GJA_HAND_HEAD$;
      417    16598    6                             GJA_HAND_HEAD$ = CTX$;
      418    16599    6                             END;
      419    16600    5                        GJA$HAND_CTX.LDCTX = KNH$MESS.LDCTX;
      420    16601    5                        GJA$HAND_CTX.WHO = %GJA_UID_HANDLER;
      421    16602    5                        IF FPT$CONNECT.TERMINAL_ID.TERMID = 'BABOON'
      422    16603    6                        THEN DO;
      423    16604    6                             GJA_UID_BABOON$ = CTX$;
      424    16605    6                             GJA$HAND_CTX.WHO = %GJA_UID_BABOON;
      425    16606    6                             GJA_LDCT_BABOON = KNH$MESS.LDCTX;
      426    16607    6                             GJA_CONNECT_ACK.REASON = %K_REASON_NORMAL;
      427    16608    6                             CALL GJA$Q_MSG(CTX$,,,SIZEC(GJA_CONNECT_ACK),
             16608                                      GJA_CONNECT_ACK,%KN_FCN_INIT_ACK);
      428    16609    6                             CALL GJA$Q_MSG(CTX$,LENGTHC(GJA_KL_MES),GJA_KL_MES,,,);
      429    16610    6                             END;
      430    16611    5                        ELSE
      431    16612    6                        DO;
      432    16613
PL6.E3A0      #001=GJA$ADMIN File=GJA$ADMIN.:E05TSI                              TUE 07/29/97 21:50 Page:16
      433    16614        /*  Dont ack any handler connection until we are fully connected
      434    16615            to the network manager.
      435    16616        */
      436    16617    6                             GJA_CONNECT_ACK.REASON = %K_REASON_NORMAL;
      437    16618    6                             CALL GJA$Q_MSG(CTX$,LENGTHC(GJA_KL_MES),GJA_KL_MES,
      438    16619    6                               SIZEC(GJA_CONNECT_ACK),GJA_CONNECT_ACK,%KN_FCN_INIT_ACK)
             16619                                        ;
      439    16620    6                             END;
      440    16621
      441    16622
      442    16623    5                        SELECT ('LOGON');
      443    16624    5                        CALL GJA$LOGON_REQUEST(CTX$,KNH$MESS,FPT$CONNECT) ALTRET(GETOUT
             16624                                 ); /* Logon request from a handler */
      444    16625
      445    16626
      446    16627    5                        SELECT ('NETMAN'); /* Connection from another NA */
      447    16628
      448    16629    5                        IF FPT$CONNECT.RLCID.NODE < GJA_NODE#
      449    16630    6                        THEN DO;
      450    16631    6                             GJA_CONNECT_ACK.REASON = %K_REASON_USRREJ;
      451    16632    6                             CALL GJA$Q_MSG (ADDR(KNH$MESS.LDCTX),,,SIZEC(
             16632                                      GJA_CONNECT_ACK),GJA_CONNECT_ACK,%KN_FCN_INIT_ACK);
      452    16633    6                             END;
      453    16634    6                        ELSE DO;
      454    16635    6                             GJA_CONNECT_ACK.REASON = %K_REASON_NORMAL;
      455    16636    6                             ROUTE$ = KNN$ROUTE$(FPT$CONNECT.RLCID.NODE);
      456    16637    6                             CTX$ = KNN$ROUTE.CTX$;
      457    16638    6                             IF CTX$ = ADDR(NIL)
      458    16639    7                             THEN DO;
      459    16640    7                                  SIZE = SIZEW(GJA$HAND_CTX);
      460    16641    7                                  CALL KVB$GETSYS (SIZE,CTX$) ALTRET (GETOUT);
      461    16642    7                                  GJA$HAND_CTX = '0'B;
      462    16643    7                                  GJA$HAND_CTX.NAME = 'NETMAN';
      463    16644    7                                  GJA$HAND_CTX.WHO = %GJA_UID_NM;
      464    16645    7                                  GJA$HAND_CTX.NODE = FPT$CONNECT.RLCID.NODE;
      465    16646    7                                  ROUTE$ = KNN$ROUTE$(GJA$HAND_CTX.NODE);
      466    16647    7                                  KNN$ROUTE.CTX$ = CTX$;
PL6.E3A0      #001=GJA$ADMIN File=GJA$ADMIN.:E05TSI                              TUE 07/29/97 21:50 Page:17
      467    16648    7                                  GJA$HAND_CTX.LINK_CONNECTED = KNN$ROUTE.FLAGS.
             16648                                           LINK_CONNECTED;
      468    16649    7                                  IF GJA_NM_HEAD$ = ADDR(NIL)
      469    16650    7                                  THEN
      470    16651    7                                       GJA_NM_HEAD$ = CTX$;
      471    16652    8                                  ELSE DO;
      472    16653    8                                       GJA$HAND_CTX.LNK$ = GJA_NM_HEAD$;
      473    16654    8                                       GJA_NM_HEAD$ = CTX$;
      474    16655    8                                       END;
      475    16656    7                                  GJA$HAND_CTX.LDCTX = KNH$MESS.LDCTX;
      476    16657    7                                  CALL GJA$Q_MSG(CTX$,,,SIZEC(GJA_CONNECT_ACK),
             16657                                           GJA_CONNECT_ACK,%KN_FCN_INIT_ACK);
      477    16658    7                                  CALL GJA$NODEINFO(CTX$);
      478    16659    7                                  END;
      479    16660    7                             ELSE DO;
      480    16661        /*
      481    16662          If we've got this far we need to init nak the first connectio attempt
      482    16663          unitl the connection either fails or complete.  So subsequent inits
      483    16664          are just nak'd.  This should not occur too often from the same node.
      484    16665        */
      485    16666    7                                  GJA_CONNECT_ACK.REASON = %K_REASON_USRREJ;
      486    16667    7                                  CALL GJA$Q_MSG (ADDR(KNH$MESS.LDCTX),,,SIZEC(
             16667                                           GJA_CONNECT_ACK)
      487    16668    7                                    ,GJA_CONNECT_ACK,%KN_FCN_INIT_ACK);
      488    16669    7                                  END;
      489    16670    6                             END;
      490    16671
      491    16672    5                        END /* DO SELECT */;
      492    16673        %EJECT;
PL6.E3A0      #001=GJA$ADMIN File=GJA$ADMIN.:E05TSI                              TUE 07/29/97 21:50 Page:18
      493    16674        /*   Initiate Connection Acknowledgement
      494    16675        */
      495    16676        /*
      496    16677          Verify that the init was O.K. and if it wasn't, retry it.
      497    16678        */
      498    16679    4                 CASE(%KN_FCN_INIT_ACK);
      499    16680    4                   FPT$=PINCRW(MSG$,SIZEW(KNH$MESS));
      500    16681    4                   GJA$HAND_CTX.WAT4ACK = '0'B;
      501    16682    4                   IF FPT_CONNECT_ACK.REASON ~= %K_REASON_NORMAL
      502    16683    4                   THEN
      503    16684    4                        IF FPT_CONNECT_ACK.REASON = %K_REASON_NORTE
      504    16685    4                          OR (FPT_CONNECT_ACK.REASON = %K_REASON_USRREJ AND NOT
             16685                                   GJA$HAND_CTX.HOST_NODE)
      505    16686    5                        THEN DO;
      506    16687    5                             IF GJA$HAND_CTX.LDCTX = 0 /* No other connection */
      507    16688    5                             THEN
      508    16689    5                                  CALL GJA$DISOLVE_NA(CTX$);
      509    16690    5                             END;
      510    16691    5                        ELSE DO;
      511    16692    5                             GJA_CONNECT.RLCID.NODE = GJA$HAND_CTX.NODE;
      512    16693    5                             CALL GJA$Q_MSG(CTX$,,,SIZEC(GJA_CONNECT),GJA_CONNECT,%
             16693                                      KN_FCN_INIT);
      513    16694    5                             END;
      514    16695        /*
      515    16696          When we get connect ack from the network manager, we need to save
      516    16697          the LDCT index of the network manager for later use in communicating
      517    16698          with it.
      518    16699        */
      519    16700    5                   ELSE DO;
      520    16701    5                        GJA$HAND_CTX.LDCTX = KNH$MESS.LDCTX;
      521    16702        /*
      522    16703             Send the node info to this NA
      523    16704         */
      524    16705    5                        CALL GJA$NODEINFO(CTX$);
      525    16706        /*
      526    16707            if this init ack is from a host then check the logon list for any
      527    16708            previous autologon failures and reissue the connect on them.
PL6.E3A0      #001=GJA$ADMIN File=GJA$ADMIN.:E05TSI                              TUE 07/29/97 21:50 Page:19
      528    16709        */
      529    16710    5                        SVMSG$ = GJA_USRLGN_HEAD$;
      530    16711    6                        DO WHILE SVMSG$ ~= ADDR(NIL);
      531    16712        /* if the node connecting has logons waiting reissue them now.  let the
      532    16713           default node take care of his own all non-autologon lines default to
      533    16714           gja_defnode as their nm*/
      534    16715    6                             IF SVMSG$->GJA$LGNCTX.NM_NODE = GJA$HAND_CTX.NODE
      535    16716    6                               AND GJA_DEFNODE ~= GJA$HAND_CTX.NODE
      536    16717    6                               AND SVMSG$->GJA$LGNCTX.CHN$->KH$CHN.AUTLGN THEN
      537    16718    7                             DO;
      538    16719    8                                  CALL GJA$LOGON_REQUEST_AGAIN(SVMSG$) WHENALTRETURN DO
             16719                                           ;
      539    16720                                                /* doesn't really altret    */
      540    16721    8                                       END;
      541    16722    7                                  END;
      542    16723    6                             SVMSG$ = SVMSG$->GJA$LGNCTX.LNK$;
      543    16724    6                             END;
      544    16725    5                        END;
      545    16726        %EJECT;
PL6.E3A0      #001=GJA$ADMIN File=GJA$ADMIN.:E05TSI                              TUE 07/29/97 21:50 Page:20
      546    16727        /*   Terminate Connection Request
      547    16728        */
      548    16729        /*
      549    16730          A TERM from VDH probably means that one of the devices attempting
      550    16731          logon has disconnected.  If we have already solicited the network
      551    16732          manager for information on this guy, just set a bit in his context
      552    16733          so that we can throw away the network managers responce when we
      553    16734          get it.  Otherwise, send a TERM ACK to VDH and displve this guys
      554    16735          context now.  At some future time we may also need code here to
      555    16736          support resources disconnecting.
      556    16737        */
      557    16738    4                 CASE(%KN_FCN_TERM);
      558    16739    5                   DO CASE (WHO);
      559    16740
      560    16741    5                    CASE (%GJA_UID_LOGON);
      561    16742
      562    16743        /*
      563    16744        */
      564    16745    5                      IF CTX$->GJA$LGNCTX.STATUS.NMRSP
      565    16746    5                        OR CTX$->GJA$LGNCTX.STATUS.WTPRO
      566    16747    5                      THEN CTX$->GJA$LGNCTX.STATUS.TERM='1'B;
      567    16748    6                      ELSE DO;
      568    16749    6                           CALL GJA$Q_MSG(CTX$,,,SIZEC(GJA_TERM_ACK),GJA_TERM_ACK,%
             16749                                    KN_FCN_TERM_ACK);
      569    16750    6                           CALL GJA$DISOLVE_LGNUSR_CTX(CTX$);
      570    16751    6                           END;
      571    16752
      572    16753
      573    16754    5                    CASE (%GJA_UID_NM);
      574    16755    5                      CALL GJA$Q_MSG (ADDR(KNH$MESS.LDCTX),,,SIZEC(GJA_TERM_ACK),
             16755                               GJA_TERM_ACK,%KN_FCN_TERM_ACK);
      575    16756    5                      IF CTX$ = GJA_UID_NM$
      576    16757    6                      THEN DO;
      577    16758    6                           GJA$HAND_CTX.WAT4ACK = '0'B;
      578    16759    6                           GJA_UID_NM$ = ADDR(NIL);
      579    16760    6                           END;
      580    16761    5                      RECOVERY_NODE = CTX$->GJA$HAND_CTX.NODE;
PL6.E3A0      #001=GJA$ADMIN File=GJA$ADMIN.:E05TSI                              TUE 07/29/97 21:50 Page:21
      581    16762        /*
      582    16763                            if the term comes before the ack then
      583    16764                            skip the disolve context message and let
      584    16765                            the init_ack do the work.
      585    16766        */
      586    16767    5                      IF GJA_UID_NM$ = ADDR(NIL) /* Our NM             */
      587    16768    6                      THEN DO;
      588    16769    6                           CALL GIJ$ABORTDUMP;
      589    16770    6                           GJA_UID_NM$ = ADDR(NIL);
      590    16771    6                           GJA_LDCT_NM = 0;
      591    16772
      592    16773    6                           END;
      593    16774    5                      CALL GJA$HOST_RECOVERY(RECOVERY_NODE);
      594    16775    5                      IF (GJA_DEFNODE = RECOVERY_NODE AND
      595    16776    5                        KNN$ROUTE$(GJA_DEFNODE)->KNN$ROUTE.FLAGS.LINK_CONNECTED) THEN
      596    16777    5                           GJA_MSG_DOWN$ = GJA_MSG_HOSTDOWN$;
      597    16778    5                      ELSE
      598    16779    5                           IF (GJA_DEFNODE ~= RECOVERY_NODE AND
      599    16780    5                             NOT (KNN$ROUTE$(GJA_DEFNODE)->KNN$ROUTE.FLAGS.
             16780                                      LINK_CONNECTED)) THEN
      600    16781    5                                IF (KNN$ROUTE$(GJA_DEFNODE)->KNN$ROUTE.LINK# ~= -1)
             16781                                         THEN
      601    16782    5                                     IF (KNN$LINK$(KNN$ROUTE$(GJA_DEFNODE)->KNN$ROUTE.
             16782                                              LINK#)->KNN$LINK.QOS < 255) THEN
      602    16783    5                                          GJA_MSG_DOWN$ = GJA_MSG_HOSTDOWN$;
      603    16784    5                                     ELSE
      604    16785    5                                          GJA_MSG_DOWN$ = GJA_MSG_LINKDOWN$;
      605    16786    5                                ELSE
      606    16787    5                                     ; /* link recovery already occurred*/
      607    16788    5                           ELSE
      608    16789    5                                IF (GJA_DEFNODE = RECOVERY_NODE) AND
      609    16790    5                                  ~(KNN$ROUTE$(GJA_DEFNODE)->KNN$ROUTE.FLAGS.
             16790                                           LINK_CONNECTED) THEN
      610    16791    5                                     IF (KNN$ROUTE$(GJA_DEFNODE)->KNN$ROUTE.LINK# ~= -1
             16791                                              ) THEN
      611    16792    5                                          IF (KNN$LINK$(KNN$ROUTE$(GJA_DEFNODE)->
             16792                                                   KNN$ROUTE.LINK#)->KNN$LINK.QOS < 255)
PL6.E3A0      #001=GJA$ADMIN File=GJA$ADMIN.:E05TSI                              TUE 07/29/97 21:50 Page:22
             16792                                                   THEN
      612    16793    5                                               GJA_MSG_DOWN$ = GJA_MSG_HOSTDOWN$;
      613    16794    5                                          ELSE
      614    16795    5                                               GJA_MSG_DOWN$ = GJA_MSG_LINKDOWN$;
      615    16796    5                                     ELSE ;
      616    16797        /*
      617    16798         *                  if we aren't waiting for the init_ack on this connection
      618    16799         *                  go ahead and attempt the reconnect.
      619    16800         */
      620    16801    6                      IF NOT GJA$HAND_CTX.WAT4ACK THEN DO;
      621    16802    6                           CALL GJA$DISOLVE_NA(CTX$);
      622    16803    6                           ROUTE$ = KNN$ROUTE$(RECOVERY_NODE);
      623    16804    6                           IF KNN$ROUTE.CURRENT_QOS < 255
      624    16805    6                             AND (RECOVERY_NODE < GJA_NODE#
      625    16806    6                             OR KNN$ROUTE.FLAGS.HOST_NODE = '1'B) THEN
      626    16807    7                           DO;
      627    16808    7                                GJA_CONNECT.RLCID.NODE = RECOVERY_NODE;
      628    16809    7                                SIZE = SIZEW(GJA$HAND_CTX);
      629    16810    7                                CALL KVB$GETSYS(SIZE,CTX$)
      630    16811    8                                WHENALTRETURN DO;
      631    16812    8                                     GOTO GETOUT;
      632    16813    8                                     END;
      633    16814    7                                GJA$HAND_CTX = '0'B;
      634    16815    7                                GJA$HAND_CTX.WHO = %GJA_UID_NM;
      635    16816    7                                GJA$HAND_CTX.NODE = RECOVERY_NODE;
      636    16817    7                                GJA$HAND_CTX.HOST_NODE = KNN$ROUTE.FLAGS.HOST_NODE;
      637    16818    7                                IF GJA_NM_HEAD$ = ADDR(NIL)
      638    16819    7                                THEN
      639    16820    7                                     GJA_NM_HEAD$ = CTX$;
      640    16821    8                                ELSE DO;
      641    16822    8                                     GJA$HAND_CTX.LNK$ = GJA_NM_HEAD$;
      642    16823    8                                     GJA_NM_HEAD$ = CTX$;
      643    16824    8                                     END;
      644    16825    7                                KNN$ROUTE.CTX$ = CTX$;
      645    16826    7                                CALL GJA$Q_MSG (CTX$,,,SIZEC(GJA_CONNECT),GJA_CONNECT,%
             16826                                         KN_FCN_INIT);
      646    16827    7                                GJA$HAND_CTX.WAT4ACK = '1'B;
PL6.E3A0      #001=GJA$ADMIN File=GJA$ADMIN.:E05TSI                              TUE 07/29/97 21:50 Page:23
      647    16828    7                                GJA$HAND_CTX.LINK_CONNECTED = KNN$ROUTE.FLAGS.
             16828                                         LINK_CONNECTED;
      648    16829    7                                END;
      649    16830    6                           END;
      650    16831
      651    16832
      652    16833    5                    CASE (%GJA_UID_HANDLER);
      653    16834    5                      CALL GJA$TERM_HANDLER(CTX$);
      654    16835
      655    16836
      656    16837
      657    16838    5                    CASE (ELSE);
      658    16839    5                      CALL GJA$Q_MSG (ADDR(KNH$MESS.LDCTX),,,SIZEC(GJA_TERM_ACK),
             16839                               GJA_TERM_ACK,%KN_FCN_TERM_ACK);
      659    16840
      660    16841
      661    16842    5                      END;
      662    16843        %EJECT;
PL6.E3A0      #001=GJA$ADMIN File=GJA$ADMIN.:E05TSI                              TUE 07/29/97 21:50 Page:24
      663    16844        /*   Terminate Connection Acknowledgement
      664    16845        */
      665    16846        /*
      666    16847          For right now lets make sure that this is from VDH on behalf
      667    16848          of a user logon path that was just disolved.  If it was, call
      668    16849          a routine to disolve the context block.  Lets also make sure that
      669    16850          we were expecting this.  I hate surprises!
      670    16851        */
      671    16852    4                 CASE(%KN_FCN_TERM_ACK);
      672    16853    5                   DO CASE (WHO);
      673    16854
      674    16855    5                    CASE (%GJA_UID_NM);
      675    16856    5                      CALL GJA$DISOLVE_NA(CTX$);
      676    16857
      677    16858    5                    CASE (%GJA_UID_LOGON);
      678    16859    5                      IF NOT(CTX$->GJA$LGNCTX.STATUS.TERMACK)
      679    16860    5                      THEN
      680    16861    5                           CALL M$XXX;
      681    16862    5                      CALL GJA$DISOLVE_LGNUSR_CTX (CTX$);
      682    16863
      683    16864    5                    CASE (ELSE);
      684    16865    5                      CALL M$XXX;
      685    16866
      686    16867    5                      END;
      687    16868
      688    16869
      689    16870        %EJECT;
PL6.E3A0      #001=GJA$ADMIN File=GJA$ADMIN.:E05TSI                              TUE 07/29/97 21:50 Page:25
      690    16871        /*   Send Data
      691    16872        */
      692    16873        /*
      693    16874          Branch out depending on the VDO type
      694    16875        */
      695    16876    4                 CASE(%KN_FCN_DATA);
      696    16877    4                   IF WHO ~= %GJA_UID_LOGON OR ~GJA$LGNCTX.STATUS.TERMACK
      697    16878    5                   THEN DO;
      698    16879    5                        VDO$ = PINCRW(MSG$,SIZEW(KNH$MESS));
      699    16880    5                        GJA$PARAMS='0'B;
      700    16881    5                        GJA$PARAMS.MSG$=MSG$;
      701    16882    5                        GJA$PARAMS.VDO$=VDO$;
      702    16883    6   VDOLOOP:             DO WHILE ('1'B);
      703    16884    6                             VLP$=PINCRW(VDO$,(GJA_VDOBYTSIZ(KV$VDO.FNC)+1)/2);
      704    16885    6                             LAST = ~KV$VDO.VLP;
      705    16886    7   VLPLOOP:                  DO WHILE (~LAST);
      706    16887    8                                  DO CASE(KV$VDOVLP.TYP);
      707    16888
      708    16889    8                                   CASE(%KV_VDOVLP_TYP_DAT1);
      709    16890    8                                     APP$ = PINCRW(VLP$,SIZEW(VLP$->KV$VDOVLP_DAT1));
      710    16891    8                                     VLPSIZE=(VLP$->KV$VDOVLP_DAT1.BYTSIZ+1)/2;
      711    16892    8                                     GJA$PARAMS.DATVLP$=VLP$;
      712    16893    8                                     GJA$PARAMS.DAT$=APP$;
      713    16894    8                                     GJA$PARAMS.DATSIZE = VLP$->KV$VDOVLP_DAT1.BYTSIZ;
      714    16895
      715    16896    8                                   CASE(%KV_VDOVLP_TYP_DAT2);
      716    16897    8                                     APP$ = PINCRW(VLP$,SIZEW(VLP$->KV$VDOVLP_DAT2));
      717    16898    8                                     VLPSIZE=(VLP$->KV$VDOVLP_DAT2.BYTSIZ+1)/2;
      718    16899    8                                     GJA$PARAMS.DATVLP$=VLP$;
      719    16900    8                                     GJA$PARAMS.DAT$=APP$;
      720    16901    8                                     GJA$PARAMS.DATSIZE = VLP$->KV$VDOVLP_DAT2.BYTSIZ;
      721    16902
      722    16903    8                                   CASE(%KV_VDOVLP_TYP_CG_MSGTYP);
      723    16904    8                                     APP$=VLP$;
      724    16905    8                                     VLPSIZE=SIZEW(VLP$->KV$VDOVLP_CG_MSGTYP);
      725    16906    8                                     GJA$PARAMS.CG_MSGTYP$=VLP$;
      726    16907
PL6.E3A0      #001=GJA$ADMIN File=GJA$ADMIN.:E05TSI                              TUE 07/29/97 21:50 Page:26
      727    16908    8                                   CASE(%KV_VDOVLP_TYP_CG_STA);
      728    16909    8                                     APP$=VLP$;
      729    16910    8                                     VLPSIZE=SIZEW(VLP$->KV$VDOVLP_CG_STA);
      730    16911    8                                     GJA$PARAMS.CG_STA$=VLP$;
      731    16912
      732    16913    8                                   CASE(%KV_VDOVLP_TYP_ERR);
      733    16914    8                                     APP$=VLP$;
      734    16915    8                                     VLPSIZE=SIZEW(VLP$->KV$VDOVLP_ERR);
      735    16916    8                                     GJA$PARAMS.ERR$=VLP$;
      736    16917
      737    16918    8                                   CASE(%KV_VDOVLP_TYP_FLDID);
      738    16919    8                                     APP$=PINCRW(VLP$,SIZEW(VLP$->KV$VDOVLP_FLDID));
      739    16920    8                                     VLPSIZE=(VLP$->KV$VDOVLP_FLDID.BYTSIZ+1)/2;
      740    16921    8                                     GJA$PARAMS.FLDID$=VLP$;
      741    16922
      742    16923    8                                   CASE(%KV_VDOVLP_TYP_KEY);
      743    16924    8                                     APP$=PINCRW(VLP$,SIZEW(VLP$->KV$VDOVLP_KEY));
      744    16925    8                                     VLPSIZE=(VLP$->KV$VDOVLP_KEY.BYTSIZ+1)/2;
      745    16926    8                                     GJA$PARAMS.KEY$=VLP$;
      746    16927
      747    16928    8                                   CASE(%KV_VDOVLP_TYP_MRK);
      748    16929    8                                     GJA$PARAMS.MRK$=VLP$;
      749    16930    8                                     APP$=PINCRW(VLP$,SIZEW(VLP$->KV$VDOVLP_MRK));
      750    16931    8                                     VLPSIZE=(VLP$->KV$VDOVLP_MRK.BYTSIZ+1)/2;
      751    16932
      752    16933    8                                   CASE(%KV_VDOVLP_TYP_CG_MSGID);
      753    16934    8                                     APP$=PINCRW(VLP$,SIZEW(VLP$->KV$VDOVLP_CG_MSGID));
      754    16935    8                                     VLPSIZE=(VLP$->KV$VDOVLP_CG_MSGID.BYTSIZ+1)/2;
      755    16936    8                                     GJA$PARAMS.CG_MSGID$=VLP$;
      756    16937
      757    16938    8                                   CASE(%KV_VDOVLP_TYP_ACTPOS);
      758    16939    8                                     APP$=VLP$;
      759    16940    8                                     VLPSIZE=SIZEW(VLP$->KV$VDOVLP_ACTPOS);
      760    16941
      761    16942    8                                   CASE(ELSE);
      762    16943    8                                     CALL M$XXX;
      763    16944    8                                     END;  /* VLP CASE                 */
PL6.E3A0      #001=GJA$ADMIN File=GJA$ADMIN.:E05TSI                              TUE 07/29/97 21:50 Page:27
      764    16945
      765    16946
      766    16947    7                                  LAST = KV$VDOVLP.LST;
      767    16948    7                                  VLP$=PINCRW(APP$,VLPSIZE);
      768    16949    7                                  END;     /* VLP LOOP                 */
      769    16950        %EJECT;
PL6.E3A0      #001=GJA$ADMIN File=GJA$ADMIN.:E05TSI                              TUE 07/29/97 21:50 Page:28
      770    16951        /* If there was a marker on the message send it now */
      771    16952    6                             IF GJA$PARAMS.MRK$ ~= ADDR(NIL) AND GJA$PARAMS.MRK$->
             16952                                      KV$VDOVLP_MRK.MRKTYP ~= 0
      772    16953    6                               AND KV$VDO.FNC ~= %KV_VDO_FNC_MRK
      773    16954    7                             THEN DO;
      774    16955    7                                  GJA_VDO_MRK.MRK.MRKTYP = GJA$PARAMS.MRK$->
             16955                                           KV$VDOVLP_MRK.MRKTYP;
      775    16956    7                                  GJA_VDO_MRK.MRK.ID = GJA$PARAMS.MRK$->KV$VDOVLP_MRK.
             16956                                           ID;
      776    16957    7                                  CALL GJA$Q_MSG (KNH$MESS.UID$,SIZEC(GJA_VDO_MRK),
             16957                                           GJA_VDO_MRK);
      777    16958    7                                  GJA$PARAMS.MRK$->KV$VDOVLP_MRK.MRKTYP = 0;
      778    16959    7                                  END;
      779    16960
      780    16961
      781    16962    7                             DO CASE(KV$VDO.FNC); /* VDO CASE          */
      782    16963        /*
      783    16964          FNC = Event
      784    16965         */
      785    16966    7                              CASE (%KV_VDO_FNC_EVT);
      786    16967    7                                IF KNH$MESS.UID$->GJA$LGNCTX.STATUS.RDPND
      787    16968    8                                THEN DO;
      788    16969    8                                     KNH$MESS.UID$->GJA$LGNCTX.STATUS.RDPND = '0'B;
      789    16970    8                                     CALL GJA$SOLICIT_LOGON(KNH$MESS.UID$);
      790    16971    8                                     END;
      791    16972        /*
      792    16973          FNC = Open session request
      793    16974          FNC = Block data (for flow control)
      794    16975
      795    16976          Send a read response to set throttle
      796    16977        */
      797    16978    7                              CASE(%KV_VDO_FNC_OPNSSN_RQS);
      798    16979    7   UN_FLOW:                     KV@VDO_RQSDAT=KV_VDO_RQSDAT;
      799    16980    7                                CALL GJA$Q_MSG(KNH$MESS.UID,SIZEC(
      800    16981    7                                  KV$VDO_RQSDAT),KV@VDO_RQSDAT);
      801    16982    7                                IF CTX$ ~= ADDR(NIL) AND WHO = %GJA_UID_HANDLER
      802    16983    7                                  AND NOT CTX$->GJA$HAND_CTX.BLK THEN
PL6.E3A0      #001=GJA$ADMIN File=GJA$ADMIN.:E05TSI                              TUE 07/29/97 21:50 Page:29
      803    16984    7                                     CTX$->GJA$HAND_CTX.RDSOUT = GJA_MAXRDS;
      804    16985    7                              CASE(%KV_VDO_FNC_BLKDAT);
      805    16986    7                                IF NOT GJA$HAND_CTX.BLK
      806    16987    7                                THEN GOTO UN_FLOW;
      807    16988        /*
      808    16989          FNC = Request Data
      809    16990        */
      810    16991    7                              CASE(%KV_VDO_FNC_RQSDAT);
      811    16992    7                                IF KV$VDO_RQSDAT.EOFNO_DAT AND GJA$HAND_CTX.
             16992                                         WAITING_MSG$ = ADDR(NIL)
      812    16993    8                                THEN DO;
      813    16994    8                                     CALL GJA$Q_MSG(CTX$,SIZEC(VDO_NODAT),VDO_NODAT);
      814    16995    8                                     END;
      815    16996    8                                ELSE DO;
      816    16997    8                                     IF KV$VDO_RQSDAT.INCMAXNMBBYT
      817    16998    8                                     THEN GJA$HAND_CTX.MAXNMBBYT = GJA$HAND_CTX.
             16998                                              MAXNMBBYT + KV$VDO_RQSDAT.MAXNMBBYT;
      818    16999    8                                     ELSE GJA$HAND_CTX.MAXNMBBYT = KV$VDO_RQSDAT.
             16999                                              MAXNMBBYT;
      819    17000        /* Check to see if we are incrementing.
      820    17001        */
      821    17002    8                                     IF KV$VDO_RQSDAT.INCMAXNMBRCR
      822    17003    8                                     THEN GJA$HAND_CTX.MAXNMBRCR = GJA$HAND_CTX.
             17003                                              MAXNMBRCR + KV$VDO_RQSDAT.MAXNMBRCR;
      823    17004    8                                     ELSE GJA$HAND_CTX.MAXNMBRCR = KV$VDO_RQSDAT.
             17004                                              MAXNMBRCR;
      824    17005    8                                     GJA$HAND_CTX.MAXRCRBYTSIZ = KV$VDO_RQSDAT.
             17005                                              MAXRCRBYTSIZ;
      825    17006        /* Send any messages waiting.
      826    17007        */
      827    17008    8                                     MSGWTSIZE = 0;
      828    17009    9                                     DO WHILE (GJA$HAND_CTX.WAITING_MSG$~=ADDR(NIL));
      829    17010    9                                          SVMSG$=GJA$HAND_CTX.WAITING_MSG$;
      830    17011    9                                          IF SVMSG$->SV$MSG.SZ > GJA$HAND_CTX.
             17011                                                   MAXRCRBYTSIZ AND
      831    17012    9                                            GJA$HAND_CTX.MAXNMBRCR > 0 THEN
      832    17013   10                                          DO;
PL6.E3A0      #001=GJA$ADMIN File=GJA$ADMIN.:E05TSI                              TUE 07/29/97 21:50 Page:30
      833    17014   10                                               GJA$HAND_CTX.MAXNMBRCR = GJA$HAND_CTX.
             17014                                                        MAXNMBRCR-1;
      834    17015   10                                               CALL GJA$Q_MSG(CTX$,LENGTHC(GJA_LDDAT),
             17015                                                        GJA_LDDAT);
      835    17016   10                                               EXIT;
      836    17017   10                                               END; /* MAXNMBRCR>0*/
      837    17018    9                                          IF SVMSG$->SV$MSG.SZ > GJA$HAND_CTX.MAXNMBBYT
             17018                                                   OR
      838    17019    9                                            SVMSG$->SV$MSG.SZ > GJA$HAND_CTX.
             17019                                                     MAXRCRBYTSIZ OR
      839    17020    9                                            GJA$HAND_CTX.MAXNMBRCR = 0 THEN
      840    17021    9                                               EXIT;
      841    17022
      842    17023    9                                          SIZE = SVMSG$->SV$MSG.SZ;
      843    17024    9                                          IF SVMSG$->SV$MSG.VFC ~= BINASC(0)
      844    17025   10                                          THEN DO;
      845    17026   10                                               GJA_VDO_DAT_DAT2.DATCTRCHRTYP = %
             17026                                                        KV_DATCTRCHRTYP_VFC;
      846    17027   10                                               GJA_VDO_DAT_DAT2.DATCTRCHR = SVMSG$->
             17027                                                        SV$MSG.VFC;
      847    17028   10                                               END;
      848    17029    9                                          SVMSG$=PINCRW(SVMSG$,SIZEW(SV$MSG));
      849    17030    9                                          CALL GJA$WRITE(CTX$,SIZE,SVMSG$->STRING);
      850    17031    9                                          GJA_VDO_DAT_DAT2.DATCTRCHRTYP = %
             17031                                                   KV_DATCTRCHRTYP_NON;
      851    17032    9                                          GJA$HAND_CTX.MAXNMBRCR = GJA$HAND_CTX.
             17032                                                   MAXNMBRCR - 1;
      852    17033    9                                          GJA$HAND_CTX.MAXNMBBYT = GJA$HAND_CTX.
             17033                                                   MAXNMBBYT - SIZE;
      853    17034    9                                          SVMSG$ = GJA$HAND_CTX.WAITING_MSG$;
      854    17035    9                                          MSGWTSIZE = MSGWTSIZE + SVMSG$->SV$MSG.SZ;
      855    17036    9                                          GJA$HAND_CTX.WAITING_MSG$ = GJA$HAND_CTX.
             17036                                                   WAITING_MSG$->SV$MSG.LNK$;
      856    17037    9                                          CALL KVB$RLSSYS(SVMSG$->SV$MSG);
      857    17038    9                                          END;
      858    17039    8                                     END;
      859    17040    7                                IF CTX$ = GJA_UID_NM$ AND MSGWTSIZE > 0
PL6.E3A0      #001=GJA$ADMIN File=GJA$ADMIN.:E05TSI                              TUE 07/29/97 21:50 Page:31
      860    17041    8                                THEN DO;
      861    17042    8                                     MSGWTSIZE = 0;
      862    17043        /*
      863    17044                how many bytes are left to send?
      864    17045        */
      865    17046    8                                     IF CTX$->GJA$HAND_CTX.WAITING_MSG$ ~= ADDR(NIL)
      866    17047    9                                     THEN DO;
      867    17048    9                                          MSGWTSIZE = CTX$->GJA$HAND_CTX.WAITING_MSG$->
             17048                                                   SV$MSG.SZ;
      868    17049    9                                          SVMSG$ = CTX$->GJA$HAND_CTX.WAITING_MSG$;
      869    17050   10                                          DO WHILE (SVMSG$->SV$MSG.LNK$ ~= ADDR(NIL));
      870    17051   10                                               SVMSG$ = SVMSG$->SV$MSG.LNK$;
      871    17052   10                                               MSGWTSIZE = MSGWTSIZE + SVMSG$->SV$MSG.
             17052                                                        SZ;
      872    17053   10                                               END; /* svmsg.lnk$ ~= addr(nil)*/
      873    17054    9                                          END; /* msg$ ~= addr(nil)    */
      874    17055    8                                     KV@VDO_RQSDAT = KV_VDO_RQSDAT;
      875    17056    8                                     SVCTX$ = CTX$;
      876    17057    8                                     CTX$ = GJA_HAND_HEAD$;
      877    17058    9                                     DO WHILE ( CTX$ ~= ADDR(NIL) );
      878    17059   10                                          IF GJA$HAND_CTX.BLK = '1'B THEN DO;
      879    17060   10                                               GJA$HAND_CTX.BLK = '0'B;
      880    17061   10                                               CALL GJA$Q_MSG(CTX$,LENGTHC(
             17061                                                        KV_VDO_RQSDAT),
      881    17062   10                                                 KV_VDO_RQSDAT);
      882    17063   10                                               END; /* hand.blk = 1    */
      883    17064    9                                          CTX$ = GJA$HAND_CTX.LNK$;
      884    17065    9                                          END; /* ctx~= addr(nil)*/
      885    17066    8                                     CTX$ = SVCTX$;
      886    17067    8                                     END; /* ctx$ = uid_nm$ and unflow > 0 */
      887    17068        /*
      888    17069          FNC = Request STT
      889    17070         */
      890    17071    7                              CASE(%KV_VDO_FNC_RQSSTT);
      891    17072
      892    17073
      893    17074    7                                NMAVAIL = '0'B;
PL6.E3A0      #001=GJA$ADMIN File=GJA$ADMIN.:E05TSI                              TUE 07/29/97 21:50 Page:32
      894    17075    7                                CHARPOS = 0;
      895    17076    7                                SUBSTR(GJA_VDO_STT.STATE,0,9) = 'Host(s): ';
      896    17077    7                                CHARPOS = 9;
      897    17078    7                                CTX$ = GJA_NM_HEAD$;
      898    17079    8   FNDNM:                       DO WHILE CTX$ ~= ADDR(NIL);
      899    17080    8                                     IF CTX$->GJA$HAND_CTX.HOST_NODE AND
      900    17081    9                                       CTX$->GJA$HAND_CTX.LDCTX ~= 0 THEN DO;
      901    17082    9                                          NMAVAIL = '1'B;
      902    17083    9                                          IF CTX$->GJA$HAND_CTX.NAME ~= ' '
      903    17084   10                                            AND CTX$->GJA$HAND_CTX.NAME ~= 'NETMAN'
             17084                                                     THEN DO;
      904    17085   10                                               STRLEN = 8;
      905    17086   11                                               DO WHILE (SUBSTR(CTX$->GJA$HAND_CTX.NAME
             17086                                                        ,STRLEN-1,1) = ' '
      906    17087   11                                                 AND STRLEN > 0);
      907    17088   11                                                    STRLEN = STRLEN - 1;
      908    17089   11                                                    END;
      909    17090   10                                               SUBSTR(GJA_VDO_STT.STATE,CHARPOS,STRLEN)
             17090                                                        = CTX$->GJA$HAND_CTX.NAME;
      910    17091   10                                               CHARPOS = STRLEN + CHARPOS;
      911    17092   10                                               SUBSTR(GJA_VDO_STT.STATE,CHARPOS,1) =
             17092                                                        ',';
      912    17093   10                                               CHARPOS = CHARPOS + 1;
      913    17094   10                                               END;
      914    17095    9                                          END;
      915    17096    8                                     CTX$ = CTX$->GJA$HAND_CTX.LNK$;
      916    17097    8                                     END;
      917    17098    7                                IF NOT NMAVAIL /* No hosts             */
      918    17099    8                                THEN DO;
      919    17100    8                                     GJA_VDO_STT.STATE = 'No Host';
      920    17101    8                                     GJA_VDO_STT.DAT1.BYTSIZ = LENGTHC('No Host');
      921    17102    8                                     END;
      922    17103    7                                ELSE
      923    17104    7                                     IF KNH$MESS.UID$->GJA$LGNCTX.STATUS.NMRSP
      924    17105    8                                     THEN DO;
      925    17106    8                                          GJA_VDO_STT.STATE = 'Connecting';
      926    17107    8                                          GJA_VDO_STT.DAT1.BYTSIZ = LENGTHC(
PL6.E3A0      #001=GJA$ADMIN File=GJA$ADMIN.:E05TSI                              TUE 07/29/97 21:50 Page:33
             17107                                                   'Connecting');
      927    17108    8                                          END;
      928    17109    7                                     ELSE
      929    17110    7                                          IF KNH$MESS.UID$->GJA$LGNCTX.STATUS.WTPRO
      930    17111    8                                          THEN DO;
      931    17112    8                                               GJA_VDO_STT.STATE ='Profile';
      932    17113    8                                               GJA_VDO_STT.DAT1.BYTSIZ = LENGTHC(
             17113                                                        'Profile');
      933    17114    8                                               END;
      934    17115    8                                          ELSE DO;
      935    17116        /*
      936    17117                if the .8000 bit has been reset via the attr field in netcon then
      937    17118                use the old display
      938    17119        */
      939    17120    9                                               IF (BINBIT(GJA_ATTR,16) & '8000'X) =
             17120                                                        '0'B THEN DO;
      940    17121    9                                                    GJA_VDO_STT.DAT1.BYTSIZ = CHARPOS -
             17121                                                             1;
      941    17122    9                                                    END;
      942    17123    9                                               ELSE DO;
      943    17124    9                                                    GJA_VDO_STT.STATE = 'Logging on';
      944    17125    9                                                    GJA_VDO_STT.DAT1.BYTSIZ = LENGTHC(
             17125                                                             'Logging on');
      945    17126    9                                                    END;
      946    17127    8                                               END;
      947    17128    7                                SIZE = LENGTHC(GJA_VDO_STT) - LENGTHC(GJA_VDO_STT.STATE
             17128                                         )
      948    17129    7                                  + GJA_VDO_STT.DAT1.BYTSIZ;
      949    17130    7                                CALL GJA$Q_MSG(KNH$MESS.UID$,SIZE,GJA_VDO_STT);
      950    17131        /*
      951    17132          FNC = Data
      952    17133        */
      953    17134    7                              CASE(%KV_VDO_FNC_DAT);
      954    17135    7                                IF WHO = %GJA_UID_NM OR WHO = %GJA_UID_HANDLER
      955    17136    7                                  OR WHO = %GJA_UID_BABOON
      956    17137    7                                THEN CALL GJA$DECODE_APL_MSG(GJA$PARAMS,CTX$) ALTRET(
             17137                                         GETOUT);
PL6.E3A0      #001=GJA$ADMIN File=GJA$ADMIN.:E05TSI                              TUE 07/29/97 21:50 Page:34
      957    17138
      958    17139    7                                ELSE IF WHO = %GJA_UID_LOGON
      959    17140    8                                     THEN DO;
      960    17141    8                                          IF NOT(KNH$MESS.UID$->GJA$LGNCTX.STATUS.
             17141                                                   LGNRSP)
      961    17142    8                                          THEN CALL M$XXX;
      962    17143    9                                          ELSE DO;
      963    17144   10                                               IF KNH$MESS.UID$->GJA$LGNCTX.STATUS.
             17144                                                        RDPND = '0'B THEN DO;
      964    17145   10                                                    GJA_SYSLOG.FCN = IGA_SYSLOG;
      965    17146   10                                                    GJA_SYSLOG.ERRLOG.ERRCODE.ERR# = %
             17146                                                             E$READ_ERR;
      966    17147   10                                                    CALL KHC$UTS(GJA_SYSLOG.ERRLOG.UTS)
             17147                                                             ;
      967    17148   10                                                    GJA_SYSLOG.ERRLOG.TERMID = KNH$MESS
             17148                                                             .UID$->GJA$LGNCTX.TERMINAL_ID;
      968    17149   10                                                    ADDR(GJA_SYSLOG.ERRLOG.VALUES(0))->
             17149                                                             B$PTR$ = APP$;
      969    17150   10                                                    CALL GJA$NETWORK_MANAGER(GJA_SYSLOG
             17150                                                             ,SIZEC(GJA_SYSLOG)-SIZEC(
             17150                                                             GJA_SYSLOG.ERRLOG.DATA));
      970    17151   10                                                    END;
      971    17152   10                                               ELSE DO;
      972    17153   10                                                    KNH$MESS.UID$->GJA$LGNCTX.MSG$=APP$
             17153                                                             ;
      973    17154   10                                                    CALL GJA$SOLICIT_NM(KNH$MESS.UID$,
             17154                                                             GJA$PARAMS.DATSIZE);
      974    17155   10                                                    END;
      975    17156    9                                               END;
      976    17157    8                                          END;
      977    17158
      978    17159
      979    17160
      980    17161    7                              CASE (%KV_VDO_FNC_DSC_RQS);
      981    17162    7                                IF WHO ~= %GJA_UID_LOGON
      982    17163    7                                THEN CALL M$XXX;
      983    17164
PL6.E3A0      #001=GJA$ADMIN File=GJA$ADMIN.:E05TSI                              TUE 07/29/97 21:50 Page:35
      984    17165        /* If we are waiting a response from the NETWORK MANAGER then
      985    17166           just set the TERM status in the CTX. */
      986    17167    7                                IF KNH$MESS.UID$->GJA$LGNCTX.STATUS.NMRSP
      987    17168    7                                  OR KNH$MESS.UID$->GJA$LGNCTX.STATUS.WTPRO
      988    17169    7                                THEN
      989    17170    7                                     KNH$MESS.UID$->GJA$LGNCTX.STATUS.DSCRCV = '1'B;
      990    17171    8                                ELSE DO;
      991    17172    8                                     CALL GJA$Q_MSG(KNH$MESS.UID$,,,SIZEC(GJA_TERM),
             17172                                              GJA_TERM,%KN_FCN_TERM);
      992    17173    8                                     KNH$MESS.UID$->GJA$LGNCTX.STATUS.TERMACK = '1'B;
      993    17174    8                                     END;
      994    17175
      995    17176
      996    17177
      997    17178
      998    17179    7                              CASE(ELSE);
      999    17180                      /*N* Should screech here but half to wait until we handler all FNCs */
     1000    17181
     1001    17182    7                                END;       /* VDO CASE                 */
     1002    17183
     1003    17184
     1004    17185
     1005    17186    6                             IF POFFW(VLP$,MSG$) >= MSGSIZ
     1006    17187    6                             THEN EXIT VDOLOOP;
     1007    17188    6                             ELSE VDO$=VLP$;
     1008    17189    6                             END;          /* VDO LOOP                 */
     1009    17190    5                        END;
     1010    17191        %EJECT;
PL6.E3A0      #001=GJA$ADMIN File=GJA$ADMIN.:E05TSI                              TUE 07/29/97 21:50 Page:36
     1011    17192    4                 CASE(ELSE);
     1012    17193    4                   CALL M$XXX;
     1013    17194    4                   END;                    /* %KC_FCN CASE             */
     1014    17195        %EJECT;
PL6.E3A0      #001=GJA$ADMIN File=GJA$ADMIN.:E05TSI                              TUE 07/29/97 21:50 Page:37
     1015    17196        /*
     1016    17197           Decrement the scan size by the size of the message just processed
     1017    17198           and update the removal pointer taking wrap into account if necessary.
     1018    17199        */
     1019    17200    3                SCNSIZ=SCNSIZ-MSGSIZ;
     1020    17201    3                CQ$QHDR.RCQ.RPTR = CQ$QHDR.RCQ.RPTR + MSGSIZ;
     1021    17202    3                IF CQ$QHDR.RCQ.RPTR >= CQ$QHDR.RCQ.SZ
     1022    17203    3                THEN CQ$QHDR.RCQ.RPTR = 0;
     1023    17204    3                END;                       /* SCAN RECEIVE QUEUE       */
     1024    17205        /*
     1025    17206                  IF CQ$QHDR.RCQ.IPTR ~= CQ$QHDR.RCQ.RPTR
     1026    17207                       THEN GOTO SCAN;
     1027    17208         */
     1028    17209        /*
     1029    17210          We're done scanning the queue.  Write out the messages we've placed
     1030    17211          in our send CQ (if any) and go to sleep.
     1031    17212        */
     1032    17213    2   GETOUT: ;
     1033    17214    2           CALL M$WRTMLT(FPT_WRTMLT);
     1034    17215    2           CALL KHC$WAIT;
     1035    17216    2           END;                            /* FOREVER                  */
     1036    17217    1   END GJA$ADMIN;
     1037    17218        %EOD;

PL6.E3A0      #001=GJA$ADMIN File=GJA$ADMIN.:E05TSI                              TUE 07/29/97 21:50 Page:38
--  Include file information  --

   KV$VDO.:E05TOU  is referenced.
   KV$VDH.:E05TOU  is referenced.
   KNH_MACRO_C.:E05TOU  is referenced.
   K_REASON_C.:E05TOU  is referenced.
   KNN_NETWORK_M.:E05TOU  is referenced.
   KL_MACRO_C.:E05TOU  is referenced.
   KL_CONTROL_C.:E05TOU  is referenced.
   KL_AFCN_C.:E05TOU  is referenced.
   KI_ERRORS_C.:E05TOU  is referenced.
   KH_MACRO_C.:E05TOU  is referenced.
   KN_ERRORS_C.:E05TOU  is referenced.
   K_ADDRESS_M.:E05TOU  is referenced.
   KH$CHN.:E05TOU  is referenced.
   KH$CLK.:E05TOU  is referenced.
   GM_VIRTUAL_E.:E05TOU  is referenced.
   GJA_MSG_M.:E05TOU  is referenced.
   G$BOBCAT_M.:E05TOU  is referenced.
   G_LCP6_E.:E05TOU  is referenced.
   GT_LCP6_M.:E05TOU  is referenced.
   KI_CP6.:E05TOU  is referenced.
   GF_LCP6_M.:E05TOU  is referenced.
   GM_LCP6_M.:E05TOU  is referenced.
   GU_LCP6_M.:E05TOU  is referenced.
   GJ_LCP6_M.:E05TOU  is referenced.
   GH_LCP6_M.:E05TOU  is referenced.
   LCP_6.:E05TOU  cannot be made into a system file and is referenced.
   G_JIT_M.:E05TOU  is referenced.
      No diagnostics issued in procedure GJA$ADMIN.

   Procedure GJA$ADMIN requires 3088 words for executable code.
   Procedure GJA$ADMIN requires 80 words of local(AUTO) storage.

PL6.E3A0      #001=GJA$ADMIN File=GJA$ADMIN.:E05TSI                              TUE 07/29/97 21:50 Page:39

 Object Unit name= GJA$ADMIN                                  File name= GJA$ADMIN.:E05TOU
 UTS= JUL 29 '97 21:50:25.68 TUE                              Compiler= PL-6/E31         Sev=      00
 SharedLib= :SHARED_LCP6_SYSTEM                               Alt SharedLib=


    ****  Control sections  ****

 Sect   Type Bound  Init  Size HexSiz  Section name
    0   Data  even  none   223     DF  GJA$ADMIN
    1  RoData even  UTS     52     34  GJA$ADMIN
    2   DCB   even  none     0      0  M$CQ
    3   Proc  even  none  3088    C10  GJA$ADMIN
    4  RoData even  none     7      7  GJA$ADMIN

    ****  Entry defs  ****

                              Check   Calling
                             calling  sequence
  Sect HexLoc Primary Altret sequence   type   Parms  Name
     3      0   yes            yes      Main       0  GJA$ADMIN
PL6.E3A0      #001=GJA$ADMIN File=GJA$ADMIN.:E05TSI                              TUE 07/29/97 21:50 Page:40

  ****  Entry refs  ****

         Check        Calling
        calling       sequence
Altret sequence SRef   type   Args  Name
         yes           Std       0 GJA$CONFIG
 yes     yes           Std       2 KVB$GETSYS
         yes           Std       1 GJA$DISOLVE_LGNUSR_CTX
 yes     yes           Std       1 GJA$LOGON_REQUEST_AGAIN
 yes     yes           Std       1 GJA$HOST_RECOVERY
 yes     yes           Std       1 KHC$UTS
 yes     yes           Std       0 KHC$WAIT
 yes     yes           Std       2 GJA$DECODE_APL_MSG
         yes           Std       0 GIJ$ABORTDUMP
 yes     yes           Std       1 KVB$INT
         yes           Std       1 GJA$SOLICIT_LOGON
 yes     yes           Std       2 GJA$NETWORK_MANAGER
 yes     yes           Std       2 KVB$RLSSYS
 yes     yes           Std       1 KHC$DISPATCH
         yes           Std       6 GJA$Q_MSG
         yes           Std       6 GJA$WRITE
         yes           Std       2 GJA$SOLICIT_NM
         yes           Std       1 GJA$LOGON_TIMEOUT
 yes     yes           Std       3 GJA$LOGON_REQUEST
         yes           Std       1 GJA$NODEINFO
         yes           Std       1 GJA$DISOLVE_NA
         yes           Std       1 GJA$TERM_HANDLER
                       nStd      0 X6A_MAUTO
PL6.E3A0      #001=GJA$ADMIN File=GJA$ADMIN.:E05TSI                              TUE 07/29/97 21:50 Page:41

  ****  Data refs  ****

  Flags:  r = read only, s = secondary
Flgs Name                             Flgs Name                             Flgs Name
     GJA_SYSLOG                            KH_CTLTBL$                            GJA_VDOBYTSIZ
     GJA_VDO_MRK                           GJA_LDDAT                             G$DS1$
     G$DS4$                                GID_BOOTCHAN                          GJA_INTLEV
     GJA_ATTR                              GJA_LDCT_NM                           GJA_LDCT_BABOON
     GJA_MAXNODE                           GJA_UID_NM                            GJA_UID_BABOON
     GJA_USRLGN_HEAD$                      GJA_HAND_HEAD$                        GJA_HOPCOST
     GJA_ROUTE$                            GJA_OSIROUTE$                         GJA_OSIMAX#
     GJA_LINKS                             GJA_LINK$                             GJA_NM_HEAD$
     GJA_NODE#                             GJA_CHNLOW$                           GJA_NODENAME
     GJA_CHNHI$                            GJA_CHNLOW                            GJA_CHNHI
     GJA_CHNFREE$                          GJA_RETRYMAX                          GJA_UID_NANM$
     G$HAND_Q$                             GJA_DEFNODE                           GJA_MAXRDS
     GJA_RCQSIZE                           GJA_SCQSIZE                           GJA_MEMORY
     GJA_TERM                              GJA_TERM_ACK                          GJA_CONNECT
     GJA_CONNECT_ACK                       GJA_VDO_DAT_DAT2                      GJA_MSG_DOWN$
     GJA_MSG_LINKDOWN$                     GJA_MSG_HOSTDOWN$                     GJA_VDO_STT
     M$CQ                             r    G$ROS$
PL6.E3A0      #001=GJA$ADMIN File=GJA$ADMIN.:E05TSI                              TUE 07/29/97 21:50 Page:42


        1        1        /*M* GJA$ADMIN - Node Administrator main routine.  */
        2        2        /*T***********************************************************/
        3        3        /*T*                                                         */
        4        4        /*T* Copyright (c) Bull HN Information Systems Inc., 1997    */
        5        5        /*T*                                                         */
        6        6        /*T***********************************************************/
        7        7        /*X* PLM=3,IND=5,ENU=0,ECU=0,CRM=70  */
        8        8        /*P*    NAME:   GJA$ADMIN
        9        9                PURPOSE: This module contains the node admin init routine as
       10       10                         well as the routine that co_ordinates node admin
       11       11                         processing.
       12       12        */
       13       13
       14       14
       15       15        /*F*  NAME:    GJA$ADMIN
       16       16
       17       17              PURPOSE: This routine co-ordinates node admin processing.  Its
       18       18                       gets entered when there are messages to process in the
       19       19                       node admin receive circular queue.
       20       20
       21       21              DESCRIPTION: This routine gets entered at system startup and
       22       22                           initializes the node administrator.  It sets up
       23       23                           node admins CQ and issues a connect to the network
       24       24                           manager.
       25       25
       26       26                           GJA$ADMIN then scans the receive circular queue
       27       27                           processing messages one at a time.  When a message
       28       28                           is decoded, it is either handled here or a seperate
       29       29                           routine is called to do the processing.  When the
       30       30                           receive queue is depleted, we write out the send
       31       31                           circular queue and go to sleep.
       32       32        */
       33       33        GJA$ADMIN: PROC MAIN;

     33   3 000000  D380 0000 0000  xent GJA$ADMIN       LNJ,B5   X6A_MAUTO
          3 000003       0050 0000                       DC       80,0
PL6.E3A0      #001=GJA$ADMIN File=GJA$ADMIN.:E05TSI                              TUE 07/29/97 21:50 Page:43

       34       34
       35       35        %INCLUDE G_JIT_M;
       36      300        %INCLUDE LCP_6;
       37     4579        %INCLUDE G$BOBCAT_M;
       38     4599        %INCLUDE GJA_MSG_M;                /* Node Admin message macros     */
       39     4838        %INCLUDE GM_VIRTUAL_E;
       40     5048        %INCLUDE KH$CLK;
       41     5418        %INCLUDE KH$CHN;
       42     5540        %INCLUDE K_ADDRESS_M;
       43     6043        %INCLUDE KN_ERRORS_C;
       44     6107        %INCLUDE KH_MACRO_C;
       45     6850        %INCLUDE KI_ERRORS_C;
       46     6935        %INCLUDE KL_AFCN_C;                     /* 'IGA' Function Codes     */
       47     7036        %INCLUDE KL_CONTROL_C;
       48     7416        %INCLUDE KL_MACRO_C;               /* Application message formats   */
       49    10768        %INCLUDE KNN_NETWORK_M;
       50    11131        %INCLUDE K_REASON_C;
       51    11157        %INCLUDE KNH_MACRO_C;                   /* CQ macros                */
       52    11440        %INCLUDE KV$VDH;
       53    11871        %INCLUDE KV$VDO;
       54    12886
       55    12887                                                /* EQUs and SUBs            */
       56    12888        %KV_VDO_ALL_E;
       57    12967        %GJA_UID_EQUS;
       58    12975        %G$JIT_E;
       59    13037                                                /* FPTs                     */
       60    13038        %FPT_SPRIV (PRC=YES,AUTH=YES,PRIV=PRIVS);
       61    13061        %FPT_CVM (FPTN=GET_BOBCAT,FROMSEG=FROMSEG,USERSEG=USERSEG,TYPE=MON,PAGES=256);
       62    13085        %VLP_SEGMENT(FPTN=USERSEG);
       63    13106        %VLP_SEGMENT(FPTN=FROMSEG);
       64    13127        %FPT_GDS(FPTN=FPT_GETMEM,FREE=YES,NEXT=BIG,PAGES=20,RESULTS=GJA_MEMORY_RESULTS);
       65    13151        %VLP_SEGMENT(FPTN=GJA_MEMORY_RESULTS);
       66    13172        %FPT_OPEN(FPTN=FPT_CQOPEN,ORG=CQ,HMI=VLP_HMI,DCB=M$CQ);
       67    13200        %VLP_HMI(RCQSIZE=4096,SCQSIZE=4096);
       68    13216        %FPT_TRAP (NTC=VLP_TRAP_CONDITIONS);
       69    13231        %VLP_TRAP_CONDITIONS (IGN_IO=G_YES#);
PL6.E3A0      #001=GJA$ADMIN File=GJA$ADMIN.:E05TSI                              TUE 07/29/97 21:50 Page:44
       70    13387        %FPT_WRTMLT(DCB=M$CQ);
       71    13407        %KL_SYSLOG(FPTN=GJA_SYSLOG,LAST=",",STCLASS=SYMREF);
       72    13431        %KL_ERRLOG(FPTN=ERRLOG,LAST=",",LVL=2,STCLASS=SYMREF);
       73    13539    1           3 DATA CHAR(200) UNAL;
       74    13540        %VLP_ERRCODE(FPTN=E$READ_ERR,FCG=GJ,MID=A,MON='1'B,ERR#=%E$READ_ERR,SEV=
             13540            %G_SEV_ERROR#);
       75    13586        /*E* ERROR: GJA-E$READ_ERR
       76    13587             MESSAGE: Read complete without read pending.
       77    13588             MESSAGE1: nodeadmn received data from a logon connection which
       78    13589                       had no read out standing.  the message has been discarded.*/
       79    13590
       80    13591        /*E* ERROR: GJA-E$LINK_UP
       81    13592             MESSAGE: X.25 link is now active. VALUE(0) is connecting node#.
       82    13593             MESSAGE1: An X.25 link to or from a remote fep is now active.*/
       83    13594
       84    13595        /*E* ERROR: GJA-E$LINK_DOWN
       85    13596             MESSAGE: X.25 link is now inactive.  Value(0) is disconnecting node#.
       86    13597             MESSAGE1: An X.25 link to or from a remote fep is now inactive.*/
       87    13598
       88    13599        %FPT_TIME(SOURCE=CLOCK,DEST=UTS);
       89    13623    1   DCL B$PTR$ PTR BASED;
       90    13624                                                /* Internal Data            */
       91    13625    1   DCL PRIVS BIT(32) CONSTANT INIT(
       92    13626    1   %(G_PR_MSYS#|G_PR_CQ#|G_PR_SCREECH#|G_PR_SNAP#|G_PR_EXMM#|G_PR_SPCLMM#));
       93    13627        %KL_MES (FPTN=GJA_KL_MES,STCLASS=CONSTANT,CODE=IGA_INIT_DONE);
       94    13650        %KV$VDH_VDHINT(STCLASS=STATIC,BUSYBFRS=YES,BITMAPBFRS=YES,VLDBFR=YES,VLDAFTRLS=YES,
             13650            VLDAFTGET=YES);
       95    13669    1   DCL KH_CTLTBL$ PTR SYMREF;
       96    13670        %KV_VDOBYTSIZ (NAME=GJA_VDOBYTSIZ,STCLASS=SYMREF);
       97    13690        %KV$VDO_MRK (NAME=GJA_VDO_MRK,LAST=",",STCLASS=SYMREF);
       98    13731             %KV$VDOVLP_MRK (NAME=MRK,LVL=2);
       99    13784        %KV$VDO_DAT (NAME=GJA_LDDAT,STCLASS=SYMREF,LAST=",");
      100    13829             %KV$VDOVLP_ERR(NAME=ERR,STCLASS=SYMREF,LST=YES,LVL=2);
      101    13926        %KV$VDO_RQSDAT(NAME=KV_VDO_RQSDAT,FNC=KV_VDO_FNC_RQSDAT,
      102    13927                       MAXRCRBYTSIZ=4096,MAXNMBRCR=999,MAXNMBBYT=4096,
      103    13928                       STCLASS=CONSTANT);
      104    13976        %KH$EXP (FPTN=KH_EXP,STCLASS=STATIC);
PL6.E3A0      #001=GJA$ADMIN File=GJA$ADMIN.:E05TSI                              TUE 07/29/97 21:50 Page:45
      105    14039        %KH$CTLTBL (FPTN=CTLTBL,STCLASS=STATIC,HIPARM=%KL_NA_HI);
      106    14251        %KV$VDO_DAT(NAME=VDO_NODAT,STCLASS=CONSTANT,LAST=",",VLP=YES,FNC=KV_VDO_FNC_DAT);
      107    14296             %KV$VDOVLP_ERR (NAME=ERR,FCG=GJ,MID=A,MON='1'B,ERR#=%E$NODAT,SEV=0,STCLASS=
             14296                 CONSTANT,LVL=2);
      108    14393
      109    14394
      110    14395                                                /* External Data            */
      111    14396    1   DCL G$DS1$ PTR SYMREF;
      112    14397    1   DCL G$DS4$ PTR SYMREF;
      113    14398    1   DCL GID_BOOTCHAN UBIN SYMREF;
      114    14399    1   DCL GJA_FIRST_TIME BIT(1) SYMREF;
      115    14400    1   DCL GJA_INTLEV UBIN SYMREF;
      116    14401    1   DCL GJA_ATTR UBIN SYMREF;
      117    14402    1   DCL ATTR UBIN(16);
      118    14403    1   DCL GJA_LDCT_NM UBIN SYMREF;
      119    14404    1   DCL GJA_LDCT_BABOON UBIN SYMREF;
      120    14405    1   DCL GJA_MAXNODE UBIN SYMREF;
      121    14406    1   DCL GJA_UID_NM UBIN(32) SYMREF;
      122    14407    1   DCL GJA_UID_NM$ REDEF GJA_UID_NM PTR;
      123    14408    1   DCL GJA_UID_BABOON UBIN(32) SYMREF;
      124    14409    1   DCL GJA_UID_BABOON$ REDEF GJA_UID_BABOON PTR;
      125    14410    1   DCL GJA_USRLGN_HEAD$ PTR SYMREF;
      126    14411    1   DCL GJA_HAND_HEAD$ PTR SYMREF;
      127    14412    1   DCL GJA_HOPCOST UBIN SYMREF;
      128    14413    1   DCL GJA_ROUTE$ PTR SYMREF;
      129    14414    1   DCL GJA_OSIROUTE$ PTR SYMREF;      /* ptr to array of osiroute ptrs */
      130    14415    1   DCL GJA_OSIMAX# UBIN SYMREF;
      131    14416    1   DCL GJA_LINKS UBIN SYMREF;
      132    14417    1   DCL GJA_LINK$ PTR SYMREF;
      133    14418    1   DCL GJA_NM_HEAD$ PTR SYMREF;
      134    14419    1   DCL GJA_NODE# UBIN SYMREF;
      135    14420    1   DCL GJA_CHNLOW$ PTR SYMREF;
      136    14421    1   DCL GJA_NODENAME CHAR(8) SYMREF;
      137    14422    1   DCL GJA_CHNHI$ PTR SYMREF;
      138    14423    1   DCL GJA_CHNLOW UBIN SYMREF;
      139    14424    1   DCL GJA_CHNHI UBIN SYMREF;
      140    14425    1   DCL GJA_CHNFREE$ PTR SYMREF;
PL6.E3A0      #001=GJA$ADMIN File=GJA$ADMIN.:E05TSI                              TUE 07/29/97 21:50 Page:46
      141    14426    1   DCL GJA_RETRYMAX UBIN SYMREF;
      142    14427    1   DCL GJA_UID_NANM$ PTR SYMREF;
      143    14428    1   DCL G$HAND_Q$ PTR SYMREF;
      144    14429    1   DCL GJA_DEFNODE UBIN SYMREF;
      145    14430    1   DCL GJA_HSTRSMED BIT(1) SYMREF;
      146    14431    1   DCL GJA_MAXRDS UBIN SYMREF;
      147    14432    1   DCL GJA_MSG_SGSYN$ PTR SYMREF;
      148    14433    1   DCL GJA_MSG_BDID$ PTR SYMREF;
      149    14434    1   DCL GJA_MSG_NOHOST$ PTR SYMREF;
      150    14435    1   DCL GJA_MSG_UDHOST$ PTR SYMREF;
      151    14436    1   DCL GJA_RCQSIZE UBIN SYMREF;
      152    14437    1   DCL GJA_SCQSIZE UBIN SYMREF;
      153    14438    1   DCL GJA_MEMORY UBIN SYMREF;
      154    14439        %FPT_TERM(FPTN=GJA_TERM,STCLASS=SYMREF);
      155    14461        %FPT_TERM_ACK(FPTN=GJA_TERM_ACK,STCLASS=SYMREF);
      156    14483        %FPT_CONNECT(FPTN=GJA_CONNECT,STCLASS=SYMREF);
      157    14552        %FPT_CONNECT_ACK (FPTN=GJA_CONNECT_ACK,STCLASS=SYMREF);
      158    14601        %KV$VDO_DAT (NAME=GJA_VDO_DAT_DAT2,STCLASS=SYMREF);
      159    14646
      160    14647
      161    14648                                                /* BASED                    */
      162    14649    1   DCL B$DWORD UBIN(32) BASED ALIGNED;
      163    14650    1   DCL KNN$ROUTE$(0:0) PTR BASED(GJA_ROUTE$);
      164    14651    1   DCL KNN$LINK$(0:0) PTR BASED(GJA_LINK$);
      165    14652    1   DCL GJA_MSG_DOWN$ PTR SYMREF;
      166    14653    1   DCL GJA_MSG_LINKDOWN$ PTR SYMREF;
      167    14654    1   DCL GJA_MSG_HOSTDOWN$ PTR SYMREF;
      168    14655        %KNN$ROUTE (STCLASS="BASED(ROUTE$)");
      169    14727        %KNN$LINK(STCLASS=BASED);
      170    14978    1   DCL STRING CHAR(SIZE) BASED;
      171    14979    1   DCL 1 SV$MSG BASED(MSG$),
      172    14980    1         2 BFRSIZ UBIN,     /* size of the buffer, so we can use 2nsys */
      173    14981    1         2 LNK$ PTR,
      174    14982    1         2 SZ UBIN,
      175    14983    1         2 VFC CHAR(1) UNAL,
      176    14984    1         2 * CHAR(1) UNAL;
      177    14985        %FPT_CONNECT_ACK(STCLASS="BASED(FPT$)");
PL6.E3A0      #001=GJA$ADMIN File=GJA$ADMIN.:E05TSI                              TUE 07/29/97 21:50 Page:47
      178    15034        %FPT_CONNECT (FPTN=FPT$CONNECT,STCLASS="BASED(FPT$)");
      179    15103        %G$BOBCAT (STCLASS="BASED(G$DS4$)");
      180    15116        %GJA$LGNCTX(STCLASS="BASED(CTX$)");
      181    15201        %GJA$HAND_CTX (STCLASS="BASED(CTX$)");
      182    15250        %KL_CONTROL_INIT(FPTN=KL$CONTROL,STCLASS="BASED(MSG$)");
      183    15376        %KNH$QHDR(FPTN=CQ$QHDR,STCLASS="BASED(G$HAND_Q$)"); /* CQ header    */
      184    15389        %KNH$MESS(STCLASS="BASED(MSG$)");       /* CQ message template      */
      185    15438        %KV$VDO(NAME=KV$VDO,STCLASS="BASED(VDO$)");
      186    15465        %KV$VDO_RQSDAT (NAME=KV$VDO_RQSDAT,STCLASS="BASED(VDO$)");
      187    15513        %KV$VDO_STT (NAME=GJA_VDO_STT,STCLASS=SYMREF,LAST=",");
      188    15554             %KV$VDOVLP_DAT1(NAME=DAT1,LAST=",",LVL=2);
      189    15604    1         2 STATE CHAR(255);
      190    15605        %KH$CHN(STCLASS=BASED);
      191    15729        %KV$VDOVLP(NAME=KV$VDOVLP,STCLASS="BASED(VLP$)");
      192    15765        %KV$VDOVLP_DAT1;
      193    15815        %KV$VDOVLP_DAT2;
      194    15865          %KV$VDOVLP_ACTPOS;
      195    15916        %KV$VDOVLP_CG_MSGTYP;
      196    15968        %KV$VDOVLP_CG_STA;
      197    16019        %KV$VDOVLP_ERR;
      198    16116        %KV$VDOVLP_FLDID;
      199    16167        %KV$VDOVLP_KEY;
      200    16217        %KV$VDOVLP_MRK;
      201    16270        %KV$VDOVLP_CG_MSGID;
      202    16322
      203    16323
      204    16324                                                /* AUTO                     */
      205    16325        %GJA$PARAMS(STCLASS="");
      206    16340    1   DCL VLPSIZE UBIN;
      207    16341    1   DCL WHO UBIN;
      208    16342    1   DCL CHN$ PTR;
      209    16343    1   DCL MSG$ PTR;                 /* Pointer to MSG we are processing   */
      210    16344    1   DCL APP$ PTR;            /* Points to application specific message  */
      211    16345    1   DCL FPT$ PTR;            /* Pointer to the FPT portion of a message */
      212    16346    1   DCL CTX$ PTR;                      /* Pointer to handler context    */
      213    16347    1   DCL SVMSG$ PTR;
      214    16348    1   DCL VLP$ PTR;
PL6.E3A0      #001=GJA$ADMIN File=GJA$ADMIN.:E05TSI                              TUE 07/29/97 21:50 Page:48
      215    16349    1   DCL VDO$ PTR;
      216    16350    1   DCL MSGSIZ UBIN;                        /* Byte size of message     */
      217    16351    1   DCL ROUTE$ PTR;
      218    16352    1   DCL SCNSIZ SBIN;                   /* Number of bytes left to scan  */
      219    16353    1   DCL SIZE UBIN;
      220    16354    1   DCL LAST BIT(1);
      221    16355    1   DCL RECOVERY_NODE UBIN(32);
      222    16356        %KV$VDO_RQSDAT(NAME=KV@VDO_RQSDAT,STCLASS=AUTO);
      223    16404    1   DCL UNFLOW UBIN;
      224    16405    1   DCL MSGWTSIZE UBIN;
      225    16406    1   DCL SVCTX$ PTR;
      226    16407    1   DCL STRLEN UBIN;
      227    16408    1   DCL CHARPOS UBIN;
      228    16409    1   DCL NMAVAIL BIT(1);
      229    16410                                                /* DCBs                     */
      230    16411    1   DCL M$CQ DCB;
      231    16412                                                /* ENTRYS                   */
      232    16413    1   DCL GIJ$ABORTDUMP ENTRY;
      233    16414    1   DCL GJA$DECODE_APL_MSG ENTRY(2) ALTRET;
      234    16415    1   DCL GJA$DISOLVE_LGNUSR_CTX ENTRY(1);
      235    16416    1   DCL GJA$CONFIG ENTRY;
      236    16417    1   DCL GJA$DISOLVE_NA ENTRY(1);
      237    16418    1   DCL GJA$GET_CONFIG_INFO ENTRY (1);
      238    16419    1   DCL GJA$HOST_RECOVERY ENTRY(1) ALTRET;
      239    16420    1   DCL GJA$HOST_RESUMED ENTRY ALTRET;
      240    16421    1   DCL GJA$NETWORK_MANAGER ENTRY(2) ALTRET;
      241    16422    1   DCL GJA$LOGON_REQUEST ENTRY(3) ALTRET;
      242    16423    1   DCL GJA$LOGON_REQUEST_AGAIN ENTRY(1) ALTRET;
      243    16424    1   DCL KHC$UTS ENTRY(1) ALTRET;
      244    16425    1   DCL GJA$LOGON_TIMEOUT ENTRY(1);
      245    16426    1   DCL GJA$NODEINFO ENTRY(1);
      246    16427    1   DCL GJA$Q_MSG ENTRY(6);
      247    16428    1   DCL GJA$SOLICIT_LOGON ENTRY(1);
      248    16429    1   DCL GJA$SOLICIT_NM ENTRY(2);
      249    16430    1   DCL GJA$TERM_HANDLER ENTRY(1);
      250    16431    1   DCL GJA$WRITE ENTRY(6);
      251    16432    1   DCL KHC$DISPATCH ENTRY(1) ALTRET;
PL6.E3A0      #001=GJA$ADMIN File=GJA$ADMIN.:E05TSI                              TUE 07/29/97 21:50 Page:49
      252    16433    1   DCL KHC$WAIT ENTRY ALTRET;
      253    16434    1   DCL KVB$GET2NSYS ENTRY(2) ALTRET;
      254    16435    1   DCL KVB$GETSYS ENTRY(2) ALTRET;
      255    16436    1   DCL KVB$INT ENTRY(1) ALTRET;
      256    16437    1   DCL KVB$RLS2NSYS ENTRY(2) ALTRET;
      257    16438    1   DCL KVB$RLSSYS ENTRY(2) ALTRET;
      258    16439        %EJECT;
PL6.E3A0      #001=GJA$ADMIN File=GJA$ADMIN.:E05TSI                              TUE 07/29/97 21:50 Page:50
      259    16440        /* Node Admin Initialization
      260    16441        */
      261    16442    1      KH_CTLTBL$ = ADDR(CTLTBL);

  16442   3 000005  EB80 0000 0099  00                   LAB,B6   CTLTBL
          3 000008  EF80 0000 0000  xsym                 STB,B6   KH_CTLTBL$

      262    16443    1      CTLTBL.PARM.PTR$(%KL_HNDLRPARM_INTLVL) = ADDR(GJA_INTLEV);

  16443   3 00000B  DB80 0000 0000  xsym                 LAB,B5   GJA_INTLEV
          3 00000E  DF80 0000 009B  00                   STB,B5   CTLTBL+2

      263    16444        /* Get privileged, take trap control and open the CQ DCB.
      264    16445        */
      265    16446    1      CALL M$SPRIV (FPT_SPRIV);

  16446   3 000011  BB80 0000 0000  00                   LAB,B3   FPT_SPRIV
          3 000014  B870 0CD0                            LDR,R3   3280,IMO
          3 000016  0001                                 MCL
          3 000017       0000                            DC       s:16446+6,PREL

      266    16447    1      CALL M$SYS;

  16447   3 000018  3C43                                 LDV,R3   67
          3 000019  0001                                 MCL
          3 00001A       0000                            DC       s:16447+2,PREL

      267    16448    1      CALL M$TRAP(FPT_TRAP);

  16448   3 00001B  BB80 0000 005A  00                   LAB,B3   FPT_TRAP
          3 00001E  B870 08C3                            LDR,R3   2243,IMO
          3 000020  0001                                 MCL
          3 000021       0000                            DC       s:16448+6,PREL

      268    16449        /* Map onto the BOBCAT segment in the monitor */
      269    16450    1      FROMSEG.BASE = %GM_BOBCAT_BASE;

PL6.E3A0      #001=GJA$ADMIN File=GJA$ADMIN.:E05TSI                              TUE 07/29/97 21:50 Page:51
  16450   3 000022  8CF0 000C 0000                       LDI      786432,IMO
          3 000025  8D00 0000 0019  00                   SDI      FROMSEG

      270    16451    1      USERSEG.BASE = %GM_USRDS4_BASE;

  16451   3 000028  8D00 0000 0016  00                   SDI      USERSEG

      271    16452    1      CALL M$CVM (GET_BOBCAT);

  16452   3 00002B  BB80 0000 000A  00                   LAB,B3   GET_BOBCAT
          3 00002E  B870 0D08                            LDR,R3   3336,IMO
          3 000030  0001                                 MCL
          3 000031       0000                            DC       s:16452+6,PREL

      272    16453    1      GJA_MAXNODE = G$BOBCAT.NODES;

  16453   3 000032  EC80 0000 0000  xsym                 LDB,B6   G$DS4$
          3 000035  E846 0015                            LDR,R6   21,B6
          3 000037  EF00 0000 0000  xsym                 STR,R6   GJA_MAXNODE

      273    16454    1      GJA_NODE# = G$BOBCAT.FEP#;

  16454   3 00003A  D806                                 LDR,R5   ,B6
          3 00003B  DF00 0000 0000  xsym                 STR,R5   GJA_NODE#

      274    16455    1      GJA_NODENAME = G$BOBCAT.NODENAME;

  16455   3 00003E  AB86                                 LAB,B2   ,B6
          3 00003F  2C02                                 LDV,R2   2
          3 000040  6C08                                 LDV,R6   8
          3 000041  BB80 0000 0000  xsym                 LAB,B3   GJA_NODENAME
          3 000044  3C00                                 LDV,R3   0
          3 000045  0008                                 MMM

      275    16456    1      GJA_DEFNODE = G$BOBCAT.HOSTNODE;

  16456   3 000046  DC80 0000 0000  xsym                 LDB,B5   G$DS4$
PL6.E3A0      #001=GJA$ADMIN File=GJA$ADMIN.:E05TSI                              TUE 07/29/97 21:50 Page:52
          3 000049  E845 0061                            LDR,R6   97,B5
          3 00004B  EF00 0000 0000  xsym                 STR,R6   GJA_DEFNODE

      276    16457    1      GJA_ROUTE$ = G$BOBCAT.ROUTE$$;

  16457   3 00004E  CCC5 0030                            LDB,B4   48,B5
          3 000050  CF80 0000 0000  xsym                 STB,B4   GJA_ROUTE$

      277    16458    1      GJA_OSIROUTE$ = G$BOBCAT.OSIROUTE$;

  16458   3 000053  BCC5 0065                            LDB,B3   101,B5
          3 000055  BF80 0000 0000  xsym                 STB,B3   GJA_OSIROUTE$

      278    16459    1      GJA_OSIMAX# = G$BOBCAT.OSIROUTE#;

  16459   3 000058  D845 0062                            LDR,R5   98,B5
          3 00005A  DF00 0000 0000  xsym                 STR,R5   GJA_OSIMAX#

      279    16460    1      GJA_LINKS = G$BOBCAT.LINKS;

  16460   3 00005D  C845 0016                            LDR,R4   22,B5
          3 00005F  CF00 0000 0000  xsym                 STR,R4   GJA_LINKS

      280    16461    1      GJA_LINK$ = G$BOBCAT.LINK$$;

  16461   3 000062  9CC5 0032                            LDB,B1   50,B5
          3 000064  9F80 0000 0000  xsym                 STB,B1   GJA_LINK$

      281    16462
      282    16463        /* Get the NA control parameters */
      283    16464    1      MSG$ = PINCRW(G$DS1$,PINCRW(G$DS1$,2)->B$DWORD);

  16464   3 000067  EC80 0000 0000  xsym                 LDB,B6   G$DS1$
          3 00006A  8CC6 0002                            LDI      2,B6
          3 00006C  8400 0000 0000  xsym                 AID      G$DS1$
          3 00006F  8D47 0020                            SDI      MSG$,AUTO

PL6.E3A0      #001=GJA$ADMIN File=GJA$ADMIN.:E05TSI                              TUE 07/29/97 21:50 Page:53
      284    16465    1      IF MSG$->KL$CONTROL.TYPE = 1         /* Paremeters present       */

  16465   3 000071  ACC7 0020                            LDB,B2   MSG$,AUTO
          3 000073  B802                                 LDR,R3   ,B2
          3 000074  B570 00FF                            AND,R3   255,IMO
          3 000076  3D01                                 CMV,R3   1
          3 000077  0981 0042                            BNE      s:16492,PREL

      285    16466    2      THEN DO;

      286    16467    2           IF MSG$->KL$CONTROL.NUM_FPARAM >= %KL_HNDLRPARM_MEM

  16467   3 000079  A842 0012                            LDR,R2   18,B2
          3 00007B  2D01                                 CMV,R2   1
          3 00007C  0201 0009                            BL       s:16472,PREL

      287    16468    3           THEN DO;

      288    16469    3                FPT_GETMEM.V.PAGES = KL$CONTROL.FPARAM(%KL_HNDLRPARM_MEM);

  16469   3 00007E  9842 0015                            LDR,R1   21,B2
          3 000080  9F00 0000 0022  00                   STR,R1   FPT_GETMEM+6

      289    16470    3                GJA_MEMORY = FPT_GETMEM.V.PAGES;

  16470   3 000083  9F00 0000 0000  xsym                 STR,R1   GJA_MEMORY

      290    16471    3                END;

      291    16472    2           IF MSG$->KL$CONTROL.NUM_FPARAM > %KL_HNDLRPARM_RCVCQBYTSIZ

  16472   3 000086  B842 0012                            LDR,R3   18,B2
          3 000088  3D0C                                 CMV,R3   12
          3 000089  0381 0009                            BLE      s:16477,PREL

      292    16473    3           THEN DO;

PL6.E3A0      #001=GJA$ADMIN File=GJA$ADMIN.:E05TSI                              TUE 07/29/97 21:50 Page:54
      293    16474    3                VLP_HMI.RCQSIZE = KL$CONTROL.FPARAM(%KL_HNDLRPARM_RCVCQBYTSIZ);

  16474   3 00008B  A842 0020                            LDR,R2   32,B2
          3 00008D  AF00 0000 0057  00                   STR,R2   VLP_HMI+1

      294    16475    3                GJA_RCQSIZE = VLP_HMI.RCQSIZE;

  16475   3 000090  AF00 0000 0000  xsym                 STR,R2   GJA_RCQSIZE

      295    16476    3                END;

      296    16477    2           IF MSG$->KL$CONTROL.NUM_FPARAM > %KL_HNDLRPARM_SNDCQBYTSIZ

  16477   3 000093  B842 0012                            LDR,R3   18,B2
          3 000095  3D0D                                 CMV,R3   13
          3 000096  0381 0009                            BLE      s:16482,PREL

      297    16478    3           THEN DO;

      298    16479    3                VLP_HMI.SCQSIZE = KL$CONTROL.FPARAM(%KL_HNDLRPARM_SNDCQBYTSIZ);

  16479   3 000098  A842 0021                            LDR,R2   33,B2
          3 00009A  AF00 0000 0056  00                   STR,R2   VLP_HMI

      299    16480    3                GJA_SCQSIZE = VLP_HMI.SCQSIZE;

  16480   3 00009D  AF00 0000 0000  xsym                 STR,R2   GJA_SCQSIZE

      300    16481    3                END;

      301    16482    2           IF MSG$->KL$CONTROL.NUM_FPARAM >= %KL_NA_HOPCOST

  16482   3 0000A0  B842 0012                            LDR,R3   18,B2
          3 0000A2  3D15                                 CMV,R3   21
          3 0000A3  0201 0006                            BL       s:16485,PREL

      302    16483    2           THEN
PL6.E3A0      #001=GJA$ADMIN File=GJA$ADMIN.:E05TSI                              TUE 07/29/97 21:50 Page:55
      303    16484    2                GJA_HOPCOST = KL$CONTROL.FPARAM(%KL_NA_HOPCOST);

  16484   3 0000A5  A842 0029                            LDR,R2   41,B2
          3 0000A7  AF00 0000 0000  xsym                 STR,R2   GJA_HOPCOST

      304    16485    2           IF MSG$->KL$CONTROL.NUM_FPARAM > %KL_NA_LGNRTRYNUM

  16485   3 0000AA  3D14                                 CMV,R3   20
          3 0000AB  0381 0006                            BLE      s:16488,PREL

      305    16486    2           THEN
      306    16487    2                GJA_RETRYMAX = KL$CONTROL.FPARAM(%KL_NA_LGNRTRYNUM);

  16487   3 0000AD  A842 0028                            LDR,R2   40,B2
          3 0000AF  AF00 0000 0000  xsym                 STR,R2   GJA_RETRYMAX

      307    16488    2           IF MSG$->KL$CONTROL.NUM_FPARAM >= %KL_HNDLRPARM_ATTR THEN

  16488   3 0000B2  3D04                                 CMV,R3   4
          3 0000B3  0201 0006                            BL       s:16492,PREL

      308    16489    2                GJA_ATTR = KL$CONTROL.FPARAM(%KL_HNDLRPARM_ATTR);

  16489   3 0000B5  A842 0018                            LDR,R2   24,B2
          3 0000B7  AF00 0000 0000  xsym                 STR,R2   GJA_ATTR

      309    16490    2           END;

      310    16491
      311    16492    1      CALL M$OPEN(FPT_CQOPEN) WHENALTRETURN

  16492   3 0000BA  BB80 0000 0027  00                   LAB,B3   FPT_CQOPEN
          3 0000BD  B870 3540                            LDR,R3   13632,IMO
          3 0000BF  0001                                 MCL
          3 0000C0       0003                            DC       s:16494,PREL
          3 0000C1  0F81 0005                            B        s:16498,PREL

PL6.E3A0      #001=GJA$ADMIN File=GJA$ADMIN.:E05TSI                              TUE 07/29/97 21:50 Page:56
      312    16493    2      DO;

      313    16494    2           CALL M$XXX;

  16494   3 0000C3  B870 0082                            LDR,R3   130,IMO
          3 0000C5  0001                                 MCL
          3 0000C6       0000                            DC       s:16494+3,PREL

      314    16495    2           END;

      315    16496        /*  Get some memory and use it to initialize the Node Admin buddy space pool.
      316    16497        */
      317    16498    1      CALL M$GDS(FPT_GETMEM)

  16498   3 0000C7  BB80 0000 001C  00                   LAB,B3   FPT_GETMEM
          3 0000CA  B870 0902                            LDR,R3   2306,IMO
          3 0000CC  0001                                 MCL
          3 0000CD       0003                            DC       s:16500,PREL
          3 0000CE  0F81 0005                            B        s:16502,PREL

      318    16499    2      WHENALTRETURN DO;

      319    16500    2           CALL M$XXX;

  16500   3 0000D0  B870 0082                            LDR,R3   130,IMO
          3 0000D2  0001                                 MCL
          3 0000D3       0000                            DC       s:16500+3,PREL

      320    16501    2           END;

      321    16502    1      KV$VDH_VDHINT.BFRBGN$ = GJA_MEMORY_RESULTS.BASE$;

  16502   3 0000D4  EC80 0000 0024  00                   LDB,B6   GJA_MEMORY_RESULTS
          3 0000D7  EF80 0000 008B  00                   STB,B6   KV$VDH_VDHINT

      322    16503    1      KV$VDH_VDHINT.BFREND$=PINCRW(GJA_MEMORY_RESULTS.BASE$,GJA_MEMORY_RESULTS.PAGES*
             16503               256);
PL6.E3A0      #001=GJA$ADMIN File=GJA$ADMIN.:E05TSI                              TUE 07/29/97 21:50 Page:57

  16503   3 0000DA  F800 0000 0026  00                   LDR,R7   GJA_MEMORY_RESULTS+2
          3 0000DD  6C00                                 LDV,R6   0
          3 0000DE  7088                                 DOL,R7   8
          3 0000DF  8400 0000 0024  00                   AID      GJA_MEMORY_RESULTS
          3 0000E2  8D00 0000 008D  00                   SDI      KV$VDH_VDHINT+2

      323    16504    1      CALL KVB$INT(KV$VDH_VDHINT);

  16504   3 0000E5  BB80 0000 0000  04                   LAB,B3   0
          3 0000E8  CBF0 0100                            LAB,B4   256,IMO
          3 0000EA  E380 0000 0000  xent                 LNJ,B6   KVB$INT
          3 0000ED       0001                            DC       s:16508,PREL

      324    16505
      325    16506        /* Setup the channel table.
      326    16507        */
      327    16508    1      GJA_CHNLOW = G$BOBCAT.CHNLOW;

  16508   3 0000EE  EC80 0000 0000  xsym                 LDB,B6   G$DS4$
          3 0000F1  E846 0034                            LDR,R6   52,B6
          3 0000F3  EF00 0000 0000  xsym                 STR,R6   GJA_CHNLOW

      328    16509    1      GJA_CHNLOW$ = G$BOBCAT.CHNLOW$;

  16509   3 0000F6  DCC6 0038                            LDB,B5   56,B6
          3 0000F8  DF80 0000 0000  xsym                 STB,B5   GJA_CHNLOW$

      329    16510    1      GJA_CHNHI$ = G$BOBCAT.CHNHI$;

  16510   3 0000FB  CCC6 003A                            LDB,B4   58,B6
          3 0000FD  CF80 0000 0000  xsym                 STB,B4   GJA_CHNHI$

      330    16511    1      GJA_CHNHI = G$BOBCAT.CHNHI;

  16511   3 000100  D846 0035                            LDR,R5   53,B6
          3 000102  DF00 0000 0000  xsym                 STR,R5   GJA_CHNHI
PL6.E3A0      #001=GJA$ADMIN File=GJA$ADMIN.:E05TSI                              TUE 07/29/97 21:50 Page:58

      331    16512    1      GJA_CHNFREE$ = G$BOBCAT.CHNFREE$;

  16512   3 000105  BCC6 003C                            LDB,B3   60,B6
          3 000107  BF80 0000 0000  xsym                 STB,B3   GJA_CHNFREE$

      332    16513    1      GID_BOOTCHAN = G$BOBCAT.BOOTCHAN;

  16513   3 00010A  C846 0005                            LDR,R4   5,B6
          3 00010C  CF00 0000 0000  xsym                 STR,R4   GID_BOOTCHAN

      333    16514
      334    16515        /* Convert the config information passed to us in DS1. */
      335    16516    1      CALL GJA$CONFIG;

  16516   3 00010F  CBF0 0000                            LAB,B4   0,IMO
          3 000111  E380 0000 0000  xent                 LNJ,B6   GJA$CONFIG
          3 000114       0001                            DC       s:16519,PREL

      336    16517
      337    16518        /* Get CTX for the NM connection */
      338    16519    1      SIZE=SIZEW(GJA$HAND_CTX);

  16519   3 000115  6C11                                 LDV,R6   17
          3 000116  EF47 0032                            STR,R6   SIZE,AUTO

      339    16520    1      CALL KVB$GETSYS(SIZE,CTX$);

  16520   3 000118  EBC7 0026                            LAB,B6   CTX$,AUTO
          3 00011A  EFC7 0044                            STB,B6   NMAVAIL+3,AUTO
          3 00011C  DBC7 0032                            LAB,B5   SIZE,AUTO
          3 00011E  DFC7 0042                            STB,B5   NMAVAIL+1,AUTO
          3 000120  BBC7 0042                            LAB,B3   NMAVAIL+1,AUTO
          3 000122  CBF0 0200                            LAB,B4   512,IMO
          3 000124  E380 0000 0000  xent                 LNJ,B6   KVB$GETSYS
          3 000127       0001                            DC       s:16521,PREL

PL6.E3A0      #001=GJA$ADMIN File=GJA$ADMIN.:E05TSI                              TUE 07/29/97 21:50 Page:59
      340    16521    1      GJA_UID_NANM$ = CTX$;

  16521   3 000128  ECC7 0026                            LDB,B6   CTX$,AUTO
          3 00012A  EF80 0000 0000  xsym                 STB,B6   GJA_UID_NANM$

      341    16522    1      GJA_HAND_HEAD$ = CTX$;

  16522   3 00012D  EF80 0000 0000  xsym                 STB,B6   GJA_HAND_HEAD$

      342    16523    1      GJA$HAND_CTX = '0'B;

  16523   3 000130  5C22                                 LDV,R5   34
          3 000131  0021                                 ALR      ;
          3 000132       4178 0000                                ALPHANUM('0000'X,IMO,,1),;
          3 000134       4006 0000                                ALPHANUM(0,B6,,R5,FILL)

      343    16524    1      GJA$HAND_CTX.WHO = %GJA_UID_NM;

  16524   3 000136  E870 2000                            LDR,R6   8192,IMO
          3 000138  437F                                 CSYNC    s:16524+1,SPREL
          3 000139  ECC7 0026                            LDB,B6   CTX$,AUTO
          3 00013B  EA86                                 SRM,R6,'E000'X    ,B6
          3 00013C       E000

      344    16525    1      GJA$HAND_CTX.NAME = 'MANAGER';

  16525   3 00013D  EB80 0000 0000  01                   LAB,B6   PRIVS
          3 000140  DCC7 0026                            LDB,B5   CTX$,AUTO
          3 000142  0021                                 ALR      ;
          3 000143       4706 000D                                ALPHANUM(13,B6,,7),;
          3 000145       4805 0009                                ALPHANUM(9,B5,,8,FILL)

      345    16526
      346    16527
      347    16528        %EJECT;
PL6.E3A0      #001=GJA$ADMIN File=GJA$ADMIN.:E05TSI                              TUE 07/29/97 21:50 Page:60
      348    16529        /* Initialization complete.  Now, loop forever scanning the circular queue.
      349    16530        */
      350    16531    2      DO WHILE (%G_YES#);                  /* FOREVER                  */

      351    16532        /* Check for expired clocks */
      352    16533    3   CLOCK_LOOP:DO WHILE '1'B;

  16533   3                              CLOCK_LOOP      null
      353    16534    3                IF NOT KH_EXP.ABORT

  16534   3 000147  437F                 CLOCK_LOOP      CSYNC    s:16525+9,SPREL
          3 000148  8280 0000 0098  00                   LB,'4000'X        KH_EXP+5
          3 00014B       4000
          3 00014C  057B                                 BBT      s:16531,SPREL

      354    16535    3                THEN
      355    16536    3                     CALL KHC$DISPATCH (KH_EXP)

  16536   3 00014D  BB80 0000 0002  04                   LAB,B3   +2
          3 000150  CBF0 0100                            LAB,B4   256,IMO
          3 000152  E380 0000 0000  xent                 LNJ,B6   KHC$DISPATCH
          3 000155       000C                            DC       s:16542,PREL

      356    16537    4                     WHENRETURN DO;

      357    16538    4                          CALL GJA$LOGON_TIMEOUT(KH_EXP.UID$);

  16538   3 000156  BB80 0000 0002  04                   LAB,B3   +2
          3 000159  CBF0 0100                            LAB,B4   256,IMO
          3 00015B  E380 0000 0000  xent                 LNJ,B6   GJA$LOGON_TIMEOUT
          3 00015E       0001                            DC       s:16540,PREL

      358    16539
      359    16540    4                          END;             /* WHENRETURN               */

  16540   3 00015F  0F81 0009                            B        s:16545,PREL

PL6.E3A0      #001=GJA$ADMIN File=GJA$ADMIN.:E05TSI                              TUE 07/29/97 21:50 Page:61
      360    16541    4                     WHENALTRETURN DO;

      361    16542    4                          KH_EXP.CTBCTX$ = ADDR(NIL);

  16542   3 000161  EB80 0000 0000                       LAB,B6   0
          3 000164  EF80 0000 0096  00                   STB,B6   KH_EXP+3

      362    16543    4                          EXIT CLOCK_LOOP;

  16543   3 000167  0F81 0002                            B        s:16549,PREL

      363    16544    4                          END;
      364    16545    3                END;

  16545   3 000169  0FDE                                 B        s:16531,SPREL

      365    16546
      366    16547        /*  Figure out how much there is to scan (accounting for wrap)
      367    16548        */
      368    16549    2   SCAN:   SCNSIZ=CQ$QHDR.RCQ.IPTR - CQ$QHDR.RCQ.RPTR;

  16549   3 00016A  DC80 0000 0000  xsym SCAN            LDB,B5   G$HAND_Q$
          3 00016D  E805                                 LDR,R6   ,B5
          3 00016E  E245 0001                            SUB,R6   1,B5
          3 000170  EF47 0031                            STR,R6   SCNSIZ,AUTO

      369    16550    2           IF SCNSIZ < 0

  16550   3 000172  6881 0005                            BGEZ,R6  s:16557,PREL

      370    16551    2           THEN SCNSIZ=SCNSIZ+CQ$QHDR.RCQ.SZ;

  16551   3 000174  EA45 0002                            ADD,R6   2,B5
          3 000176  EF47 0031                            STR,R6   SCNSIZ,AUTO

      371    16552
      372    16553        /*  Extract all current messages from the queue and process them.
PL6.E3A0      #001=GJA$ADMIN File=GJA$ADMIN.:E05TSI                              TUE 07/29/97 21:50 Page:62
      373    16554            Derive a pointer to the next message in the queue and determine
      374    16555            how large it is.  (RPTR is a DW index)  (MSGSIZ is in DWs)
      375    16556        */
      376    16557    3           DO WHILE (SCNSIZ > 0);

  16557   3 000178  6A81 0A88                            BLEZ,R6  s:17203,PREL

      377    16558    3                MSG$=PINCRW(G$HAND_Q$,CQ$QHDR.RCQ.OFFSET+CQ$QHDR.RCQ.RPTR*2);

  16558   3 00017A  EC80 0000 0000  xsym                 LDB,B6   G$HAND_Q$
          3 00017D  E846 0001                            LDR,R6   1,B6
          3 00017F  6001                                 SOL,R6   1
          3 000180  EA46 0003                            ADD,R6   3,B6
          3 000182  F856                                 LDR,R7   R6
          3 000183  6C00                                 LDV,R6   0
          3 000184  8400 0000 0000  xsym                 AID      G$HAND_Q$
          3 000187  8D47 0020                            SDI      MSG$,AUTO

      378    16559    3                MSGSIZ=(SIZEW(KNH$MESS) + (KNH$MESS.FPTSZ+1)/2 +(KNH$MESS.MSGSZ+1)/2 +
             16559                         1) / 2;

  16559   3 000189  DCC7 0020                            LDB,B5   MSG$,AUTO
          3 00018B  D845 0006                            LDR,R5   6,B5
          3 00018D  5E01                                 ADV,R5   1
          3 00018E  5041                                 SOR,R5   1
          3 00018F  C845 0007                            LDR,R4   7,B5
          3 000191  4E01                                 ADV,R4   1
          3 000192  4041                                 SOR,R4   1
          3 000193  DA54                                 ADD,R5   R4
          3 000194  5E09                                 ADV,R5   9
          3 000195  5041                                 SOR,R5   1
          3 000196  DF47 002E                            STR,R5   MSGSIZ,AUTO

      379    16560    4                IF KNH$MESS.FUNCTION ~= %KN_FCN_NOP THEN DO;

  16560   3 000198  C805                                 LDR,R4   ,B5
          3 000199  4D06                                 CMV,R4   6
PL6.E3A0      #001=GJA$ADMIN File=GJA$ADMIN.:E05TSI                              TUE 07/29/97 21:50 Page:63
          3 00019A  0901 000F                            BE       s:16568,PREL

      380    16561    4                     CTX$ = KNH$MESS.UID$;

  16561   3 00019C  CCC5 0002                            LDB,B4   2,B5
          3 00019E  CFC7 0026                            STB,B4   CTX$,AUTO

      381    16562    4                     IF CTX$ ~= ADDR(NIL)

  16562   3 0001A0  8DC7 0026                            CMN      CTX$,AUTO
          3 0001A2  0901 000C                            BE       s:16571,PREL

      382    16563    4                     THEN
      383    16564    4                          WHO = GJA$HAND_CTX.WHO;

  16564   3 0001A4  C804                                 LDR,R4   ,B4
          3 0001A5  404D                                 SOR,R4   13
          3 0001A6  CF47 001D                            STR,R4   WHO,AUTO

      384    16565
      385    16566    4                     END;

  16566   3 0001A8  0F81 0006                            B        s:16571,PREL

      386    16567    3                ELSE
      387    16568    3                     CTX$ = ADDR(NIL);

  16568   3 0001AA  CB80 0000 0000                       LAB,B4   0
          3 0001AD  CFC7 0026                            STB,B4   CTX$,AUTO

      388    16569        /*  Branch out depending on the circular queue message function code.
      389    16570        */
      390    16571    4                DO CASE(KNH$MESS.FUNCTION);

  16571   3 0001AF  B805                                 LDR,R3   ,B5
          3 0001B0  3D07                                 CMV,R3   7
          3 0001B1  0281 0A2F                            BGE      s:17193,PREL
PL6.E3A0      #001=GJA$ADMIN File=GJA$ADMIN.:E05TSI                              TUE 07/29/97 21:50 Page:64
          3 0001B3  A830 0000 01B9  03                   LDR,R2   s:16571+10,R3
          3 0001B6  83A0 0000 01C0  03                   JMP      s:16582,R2
          3 0001B9       0A21                            DC       s:17193,PREL
          3 0001BA       0000                            DC       s:16582,PREL
          3 0001BB       022F                            DC       s:16680,PREL
          3 0001BC       02D2                            DC       s:16739,PREL
          3 0001BD       0500                            DC       s:16853,PREL
          3 0001BE       053B                            DC       s:16877,PREL
          3 0001BF       0A25                            DC       s:17200,PREL

      391    16572        %EJECT;
PL6.E3A0      #001=GJA$ADMIN File=GJA$ADMIN.:E05TSI                              TUE 07/29/97 21:50 Page:65
      392    16573        /*   NOP
      393    16574         */
      394    16575    4                 CASE(%KN_FCN_NOP);

      395    16576
      396    16577        %EJECT;
PL6.E3A0      #001=GJA$ADMIN File=GJA$ADMIN.:E05TSI                              TUE 07/29/97 21:50 Page:66
      397    16578        /*   Initiate Connection Request
      398    16579        */
      399    16580    4                 CASE(%KN_FCN_INIT);

      400    16581
      401    16582    4                   FPT$ = PINCRW(MSG$,SIZEW(KNH$MESS));

  16582   3 0001C0  BBC5 0008                            LAB,B3   8,B5
          3 0001C2  BFC7 0024                            STB,B3   FPT$,AUTO

      402    16583
      403    16584    5                   DO SELECT (FPT$CONNECT.RESOURCE);

  16584   3 0001C4  AB80 0000 0000  01                   LAB,B2   PRIVS
          3 0001C7  0022                                 ACM      ;
          3 0001C8       4803 0001                                ALPHANUM(1,B3,,8,FILL),;
          3 0001CA       4602 0011                                ALPHANUM(17,B2,,6,FILL)
          3 0001CC  7301 0017                            CBL      s:16584+32,PREL
          3 0001CE  AB80 0000 0000  01                   LAB,B2   PRIVS
          3 0001D1  0022                                 ACM      ;
          3 0001D2       4803 0001                                ALPHANUM(1,B3,,8,FILL),;
          3 0001D4       4602 0011                                ALPHANUM(17,B2,,6,FILL)
          3 0001D6  5381 010B                            CBE      s:16629,PREL
          3 0001D8  AB80 0000 0000  01                   LAB,B2   PRIVS
          3 0001DB  0022                                 ACM      ;
          3 0001DC       4803 0001                                ALPHANUM(1,B3,,8,FILL),;
          3 0001DE       4602 0014                                ALPHANUM(20,B2,,6,FILL)
          3 0001E0  5301 0A04                            CBNE     s:17200,PREL
          3 0001E2  0F81 000D                            B        s:16587,PREL
          3 0001E4  AB80 0000 0000  01                   LAB,B2   PRIVS
          3 0001E7  0022                                 ACM      ;
          3 0001E8       4803 0001                                ALPHANUM(1,B3,,8,FILL),;
          3 0001EA       4502 0017                                ALPHANUM(23,B2,,5,FILL)
          3 0001EC  5301 09F8                            CBNE     s:17200,PREL
          3 0001EE  0F81 00E1                            B        s:16624,PREL

      404    16585
PL6.E3A0      #001=GJA$ADMIN File=GJA$ADMIN.:E05TSI                              TUE 07/29/97 21:50 Page:67
      405    16586    5                        SELECT ('NODADM');

      406    16587    5                        SIZE = SIZEW(GJA$HAND_CTX);

  16587   3 0001F0  4C11                                 LDV,R4   17
          3 0001F1  CF47 0032                            STR,R4   SIZE,AUTO

      407    16588    6                        CALL KVB$GETSYS(SIZE,CTX$) WHENALTRETURN DO;

  16588   3 0001F3  ABC7 0026                            LAB,B2   CTX$,AUTO
          3 0001F5  AFC7 0044                            STB,B2   NMAVAIL+3,AUTO
          3 0001F7  9BC7 0032                            LAB,B1   SIZE,AUTO
          3 0001F9  9FC7 0042                            STB,B1   NMAVAIL+1,AUTO
          3 0001FB  BBC7 0042                            LAB,B3   NMAVAIL+1,AUTO
          3 0001FD  CBF0 0200                            LAB,B4   512,IMO
          3 0001FF  E380 0000 0000  xent                 LNJ,B6   KVB$GETSYS
          3 000202       0003                            DC       s:16589,PREL
          3 000203  0F81 0003                            B        s:16591,PREL

      408    16589    6                             GOTO GETOUT;

  16589   3 000205  0F81 09FB                            B        s:17203,PREL

      409    16590    6                             END;
      410    16591    5                        GJA$HAND_CTX = '0'B;

  16591   3 000207  ECC7 0026                            LDB,B6   CTX$,AUTO
          3 000209  5C22                                 LDV,R5   34
          3 00020A  0021                                 ALR      ;
          3 00020B       4178 0000                                ALPHANUM('0000'X,IMO,,1),;
          3 00020D       4006 0000                                ALPHANUM(0,B6,,R5,FILL)

      411    16592    5                        GJA$HAND_CTX.SYSID = FPT$CONNECT.USER.SYSID;

  16592   3 00020F  437F                                 CSYNC    s:16591+7,SPREL
          3 000210  ECC7 0026                            LDB,B6   CTX$,AUTO
          3 000212  DCC7 0024                            LDB,B5   FPT$,AUTO
PL6.E3A0      #001=GJA$ADMIN File=GJA$ADMIN.:E05TSI                              TUE 07/29/97 21:50 Page:68
          3 000214  E845 000F                            LDR,R6   15,B5
          3 000216  EF46 000E                            STR,R6   14,B6

      412    16593    5                        GJA$HAND_CTX.NAME = FPT$CONNECT.TERMINAL_ID.TERMID;

  16593   3 000218  AB85                                 LAB,B2   ,B5
          3 000219  2C0C                                 LDV,R2   12
          3 00021A  6C08                                 LDV,R6   8
          3 00021B  BCC7 0026                            LDB,B3   CTX$,AUTO
          3 00021D  3C12                                 LDV,R3   18
          3 00021E  0008                                 MMM

      413    16594    5                        IF GJA_HAND_HEAD$ = ADDR(NIL)

  16594   3 00021F  8D80 0000 0000  xsym                 CMN      GJA_HAND_HEAD$
          3 000222  0981 0008                            BNE      s:16597,PREL

      414    16595    5                        THEN GJA_HAND_HEAD$ = CTX$;

  16595   3 000224  ECC7 0026                            LDB,B6   CTX$,AUTO
          3 000226  EF80 0000 0000  xsym                 STB,B6   GJA_HAND_HEAD$
          3 000229  0F81 000D                            B        s:16600,PREL

      415    16596    6                        ELSE DO;

      416    16597    6                             GJA$HAND_CTX.LNK$ = GJA_HAND_HEAD$;

  16597   3 00022B  EC80 0000 0000  xsym                 LDB,B6   GJA_HAND_HEAD$
          3 00022E  CCC7 0026                            LDB,B4   CTX$,AUTO
          3 000230  EFC4 0001                            STB,B6   1,B4

      417    16598    6                             GJA_HAND_HEAD$ = CTX$;

  16598   3 000232  ECC7 0026                            LDB,B6   CTX$,AUTO
          3 000234  EF80 0000 0000  xsym                 STB,B6   GJA_HAND_HEAD$

      418    16599    6                             END;
PL6.E3A0      #001=GJA$ADMIN File=GJA$ADMIN.:E05TSI                              TUE 07/29/97 21:50 Page:69

      419    16600    5                        GJA$HAND_CTX.LDCTX = KNH$MESS.LDCTX;

  16600   3 000237  CCC7 0020                            LDB,B4   MSG$,AUTO
          3 000239  E844 0001                            LDR,R6   1,B4
          3 00023B  EA86                                 SRM,R6,'1FFF'X    ,B6
          3 00023C       1FFF

      420    16601    5                        GJA$HAND_CTX.WHO = %GJA_UID_HANDLER;

  16601   3 00023D  E870 6000                            LDR,R6   24576,IMO
          3 00023F  ECC7 0026                            LDB,B6   CTX$,AUTO
          3 000241  EA86                                 SRM,R6,'E000'X    ,B6
          3 000242       E000

      421    16602    5                        IF FPT$CONNECT.TERMINAL_ID.TERMID = 'BABOON'

  16602   3 000243  ECC7 0024                            LDB,B6   FPT$,AUTO
          3 000245  BB80 0000 0000  01                   LAB,B3   PRIVS
          3 000248  0022                                 ACM      ;
          3 000249       4E06 0006                                ALPHANUM(6,B6,,14,FILL),;
          3 00024B       4603 001A                                ALPHANUM(26,B3,,6,FILL)
          3 00024D  5301 005B                            CBNE     s:16617,PREL

      422    16603    6                        THEN DO;

      423    16604    6                             GJA_UID_BABOON$ = CTX$;

  16604   3 00024F  BCC7 0026                            LDB,B3   CTX$,AUTO
          3 000251  BF80 0000 0000  xsym                 STB,B3   GJA_UID_BABOON

      424    16605    6                             GJA$HAND_CTX.WHO = %GJA_UID_BABOON;

  16605   3 000254  C870 4000                            LDR,R4   16384,IMO
          3 000256  CA83                                 SRM,R4,'E000'X    ,B3
          3 000257       E000

PL6.E3A0      #001=GJA$ADMIN File=GJA$ADMIN.:E05TSI                              TUE 07/29/97 21:50 Page:70
      425    16606    6                             GJA_LDCT_BABOON = KNH$MESS.LDCTX;

  16606   3 000258  B844 0001                            LDR,R3   1,B4
          3 00025A  BF00 0000 0000  xsym                 STR,R3   GJA_LDCT_BABOON

      426    16607    6                             GJA_CONNECT_ACK.REASON = %K_REASON_NORMAL;

  16607   3 00025D  8700 0000 0000  xsym                 CL       GJA_CONNECT_ACK

      427    16608    6                             CALL GJA$Q_MSG(CTX$,,,SIZEC(GJA_CONNECT_ACK),
             16608                                      GJA_CONNECT_ACK,%KN_FCN_INIT_ACK);

  16608   3 000260  BBF0 000C                            LAB,B3   12,IMO
          3 000262  9BF0 0002                            LAB,B1   2,IMO
          3 000264  9FC7 004C                            STB,B1   NMAVAIL+11,AUTO
          3 000266  EB80 0000 0000  xsym                 LAB,B6   GJA_CONNECT_ACK
          3 000269  EFC7 004A                            STB,B6   NMAVAIL+9,AUTO
          3 00026B  BFC7 0048                            STB,B3   NMAVAIL+7,AUTO
          3 00026D  EB80 0000 0000                       LAB,B6   0
          3 000270  EFC7 0046                            STB,B6   NMAVAIL+5,AUTO
          3 000272  EB80 0000 0000                       LAB,B6   0
          3 000275  EFC7 0044                            STB,B6   NMAVAIL+3,AUTO
          3 000277  EBC7 0026                            LAB,B6   CTX$,AUTO
          3 000279  EFC7 0042                            STB,B6   NMAVAIL+1,AUTO
          3 00027B  BBC7 0042                            LAB,B3   NMAVAIL+1,AUTO
          3 00027D  CBF0 0600                            LAB,B4   1536,IMO
          3 00027F  E380 0000 0000  xent                 LNJ,B6   GJA$Q_MSG
          3 000282       0001                            DC       s:16609,PREL

      428    16609    6                             CALL GJA$Q_MSG(CTX$,LENGTHC(GJA_KL_MES),GJA_KL_MES,,,);

  16609   3 000283  EBF0 0002                            LAB,B6   2,IMO
          3 000285  DB80 0000 0000                       LAB,B5   0
          3 000288  DFC7 004C                            STB,B5   NMAVAIL+11,AUTO
          3 00028A  CB80 0000 0000                       LAB,B4   0
          3 00028D  CFC7 004A                            STB,B4   NMAVAIL+9,AUTO
          3 00028F  BB80 0000 0000                       LAB,B3   0
PL6.E3A0      #001=GJA$ADMIN File=GJA$ADMIN.:E05TSI                              TUE 07/29/97 21:50 Page:71
          3 000292  BFC7 0048                            STB,B3   NMAVAIL+7,AUTO
          3 000294  AB80 0000 0002  01                   LAB,B2   GJA_KL_MES
          3 000297  AFC7 0046                            STB,B2   NMAVAIL+5,AUTO
          3 000299  EFC7 0044                            STB,B6   NMAVAIL+3,AUTO
          3 00029B  9BC7 0026                            LAB,B1   CTX$,AUTO
          3 00029D  9FC7 0042                            STB,B1   NMAVAIL+1,AUTO
          3 00029F  BBC7 0042                            LAB,B3   NMAVAIL+1,AUTO
          3 0002A1  CBF0 0600                            LAB,B4   1536,IMO
          3 0002A3  E380 0000 0000  xent                 LNJ,B6   GJA$Q_MSG
          3 0002A6       0001                            DC       s:16610,PREL

      429    16610    6                             END;

  16610   3 0002A7  0F81 093D                            B        s:17200,PREL

      430    16611    5                        ELSE
      431    16612    6                        DO;

      432    16613
      433    16614        /*  Dont ack any handler connection until we are fully connected
      434    16615            to the network manager.
      435    16616        */
      436    16617    6                             GJA_CONNECT_ACK.REASON = %K_REASON_NORMAL;

  16617   3 0002A9  8700 0000 0000  xsym                 CL       GJA_CONNECT_ACK

      437    16618    6                             CALL GJA$Q_MSG(CTX$,LENGTHC(GJA_KL_MES),GJA_KL_MES,

  16618   3 0002AC  BBF0 0002                            LAB,B3   2,IMO
          3 0002AE  9BF0 000C                            LAB,B1   12,IMO
          3 0002B0  EBF0 0002                            LAB,B6   2,IMO
          3 0002B2  EFC7 004C                            STB,B6   NMAVAIL+11,AUTO
          3 0002B4  EB80 0000 0000  xsym                 LAB,B6   GJA_CONNECT_ACK
          3 0002B7  EFC7 004A                            STB,B6   NMAVAIL+9,AUTO
          3 0002B9  9FC7 0048                            STB,B1   NMAVAIL+7,AUTO
          3 0002BB  EB80 0000 0002  01                   LAB,B6   GJA_KL_MES
          3 0002BE  EFC7 0046                            STB,B6   NMAVAIL+5,AUTO
PL6.E3A0      #001=GJA$ADMIN File=GJA$ADMIN.:E05TSI                              TUE 07/29/97 21:50 Page:72
          3 0002C0  BFC7 0044                            STB,B3   NMAVAIL+3,AUTO
          3 0002C2  EBC7 0026                            LAB,B6   CTX$,AUTO
          3 0002C4  EFC7 0042                            STB,B6   NMAVAIL+1,AUTO
          3 0002C6  BBC7 0042                            LAB,B3   NMAVAIL+1,AUTO
          3 0002C8  CBF0 0600                            LAB,B4   1536,IMO
          3 0002CA  E380 0000 0000  xent                 LNJ,B6   GJA$Q_MSG
          3 0002CD       0001                            DC       s:16620,PREL

      438    16619    6                              SIZEC(GJA_CONNECT_ACK),GJA_CONNECT_ACK,%KN_FCN_INIT_ACK)
             16619                                        ;
      439    16620    6                             END;

  16620   3 0002CE  0F81 0916                            B        s:17200,PREL

      440    16621
      441    16622
      442    16623    5                        SELECT ('LOGON');

      443    16624    5                       CALL GJA$LOGON_REQUEST(CTX$,KNH$MESS,FPT$CONNECT) ALTRET(GETOUT
             16624                                 ); /* Logon request from a handler */

  16624   3 0002D0  BFC7 0046                            STB,B3   NMAVAIL+5,AUTO
          3 0002D2  DFC7 0044                            STB,B5   NMAVAIL+3,AUTO
          3 0002D4  ABC7 0026                            LAB,B2   CTX$,AUTO
          3 0002D6  AFC7 0042                            STB,B2   NMAVAIL+1,AUTO
          3 0002D8  BBC7 0042                            LAB,B3   NMAVAIL+1,AUTO
          3 0002DA  CBF0 0300                            LAB,B4   768,IMO
          3 0002DC  E380 0000 0000  xent                 LNJ,B6   GJA$LOGON_REQUEST
          3 0002DF       0922                            DC       s:17203,PREL
          3 0002E0  0F81 0904                            B        s:17200,PREL

      444    16625
      445    16626
      446    16627    5                        SELECT ('NETMAN'); /* Connection from another NA */

      447    16628
      448    16629    5                        IF FPT$CONNECT.RLCID.NODE < GJA_NODE#
PL6.E3A0      #001=GJA$ADMIN File=GJA$ADMIN.:E05TSI                              TUE 07/29/97 21:50 Page:73

  16629   3 0002E2  C2C3 000D                            LLH,R4   13,B3
          3 0002E4  C900 0000 0000  xsym                 CMR,R4   GJA_NODE#
          3 0002E7  0281 002E                            BGE      s:16635,PREL

      449    16630    6                        THEN DO;

      450    16631    6                             GJA_CONNECT_ACK.REASON = %K_REASON_USRREJ;

  16631   3 0002E9  1C05                                 LDV,R1   5
          3 0002EA  9F00 0000 0000  xsym                 STR,R1   GJA_CONNECT_ACK

      451    16632    6                             CALL GJA$Q_MSG (ADDR(KNH$MESS.LDCTX),,,SIZEC(
             16632                                      GJA_CONNECT_ACK),GJA_CONNECT_ACK,%KN_FCN_INIT_ACK);

  16632   3 0002ED  ABC5 0001                            LAB,B2   1,B5
          3 0002EF  AFC7 0042                            STB,B2   NMAVAIL+1,AUTO
          3 0002F1  9BF0 000C                            LAB,B1   12,IMO
          3 0002F3  EBF0 0002                            LAB,B6   2,IMO
          3 0002F5  EFC7 004E                            STB,B6   NMAVAIL+13,AUTO
          3 0002F7  EB80 0000 0000  xsym                 LAB,B6   GJA_CONNECT_ACK
          3 0002FA  EFC7 004C                            STB,B6   NMAVAIL+11,AUTO
          3 0002FC  9FC7 004A                            STB,B1   NMAVAIL+9,AUTO
          3 0002FE  EB80 0000 0000                       LAB,B6   0
          3 000301  EFC7 0048                            STB,B6   NMAVAIL+7,AUTO
          3 000303  EB80 0000 0000                       LAB,B6   0
          3 000306  EFC7 0046                            STB,B6   NMAVAIL+5,AUTO
          3 000308  EBC7 0042                            LAB,B6   NMAVAIL+1,AUTO
          3 00030A  EFC7 0044                            STB,B6   NMAVAIL+3,AUTO
          3 00030C  BBC7 0044                            LAB,B3   NMAVAIL+3,AUTO
          3 00030E  CBF0 0600                            LAB,B4   1536,IMO
          3 000310  E380 0000 0000  xent                 LNJ,B6   GJA$Q_MSG
          3 000313       0001                            DC       s:16633,PREL

      452    16633    6                             END;

  16633   3 000314  0F81 08D0                            B        s:17200,PREL
PL6.E3A0      #001=GJA$ADMIN File=GJA$ADMIN.:E05TSI                              TUE 07/29/97 21:50 Page:74

      453    16634    6                        ELSE DO;

      454    16635    6                             GJA_CONNECT_ACK.REASON = %K_REASON_NORMAL;

  16635   3 000316  8700 0000 0000  xsym                 CL       GJA_CONNECT_ACK

      455    16636    6                             ROUTE$ = KNN$ROUTE$(FPT$CONNECT.RLCID.NODE);

  16636   3 000319  B854                                 LDR,R3   R4
          3 00031A  AC80 0000 0000  xsym                 LDB,B2   GJA_ROUTE$
          3 00031D  9CB2                                 LDB,B1   ,B2,R3
          3 00031E  9FC7 002F                            STB,B1   ROUTE$,AUTO

      456    16637    6                             CTX$ = KNN$ROUTE.CTX$;

  16637   3 000320  ECC1 0002                            LDB,B6   2,B1
          3 000322  EFC7 0026                            STB,B6   CTX$,AUTO

      457    16638    6                             IF CTX$ = ADDR(NIL)

  16638   3 000324  8DC7 0026                            CMN      CTX$,AUTO
          3 000326  0981 009B                            BNE      s:16666,PREL

      458    16639    7                             THEN DO;

      459    16640    7                                  SIZE = SIZEW(GJA$HAND_CTX);

  16640   3 000328  2C11                                 LDV,R2   17
          3 000329  AF47 0032                            STR,R2   SIZE,AUTO

      460    16641    7                                  CALL KVB$GETSYS (SIZE,CTX$) ALTRET (GETOUT);

  16641   3 00032B  CBC7 0026                            LAB,B4   CTX$,AUTO
          3 00032D  CFC7 0044                            STB,B4   NMAVAIL+3,AUTO
          3 00032F  EBC7 0032                            LAB,B6   SIZE,AUTO
          3 000331  EFC7 0042                            STB,B6   NMAVAIL+1,AUTO
PL6.E3A0      #001=GJA$ADMIN File=GJA$ADMIN.:E05TSI                              TUE 07/29/97 21:50 Page:75
          3 000333  BBC7 0042                            LAB,B3   NMAVAIL+1,AUTO
          3 000335  CBF0 0200                            LAB,B4   512,IMO
          3 000337  E380 0000 0000  xent                 LNJ,B6   KVB$GETSYS
          3 00033A       08C7                            DC       s:17203,PREL

      461    16642    7                                  GJA$HAND_CTX = '0'B;

  16642   3 00033B  ECC7 0026                            LDB,B6   CTX$,AUTO
          3 00033D  5C22                                 LDV,R5   34
          3 00033E  0021                                 ALR      ;
          3 00033F       4178 0000                                ALPHANUM('0000'X,IMO,,1),;
          3 000341       4006 0000                                ALPHANUM(0,B6,,R5,FILL)

      462    16643    7                                  GJA$HAND_CTX.NAME = 'NETMAN';

  16643   3 000343  EB80 0000 0000  01                   LAB,B6   PRIVS
          3 000346  437F                                 CSYNC    s:16643+2,SPREL
          3 000347  DCC7 0026                            LDB,B5   CTX$,AUTO
          3 000349  0021                                 ALR      ;
          3 00034A       4606 0011                                ALPHANUM(17,B6,,6),;
          3 00034C       4805 0009                                ALPHANUM(9,B5,,8,FILL)

      463    16644    7                                  GJA$HAND_CTX.WHO = %GJA_UID_NM;

  16644   3 00034E  E870 2000                            LDR,R6   8192,IMO
          3 000350  437F                                 CSYNC    s:16644+1,SPREL
          3 000351  ECC7 0026                            LDB,B6   CTX$,AUTO
          3 000353  EA86                                 SRM,R6,'E000'X    ,B6
          3 000354       E000

      464    16645    7                                  GJA$HAND_CTX.NODE = FPT$CONNECT.RLCID.NODE;

  16645   3 000355  ECC7 0024                            LDB,B6   FPT$,AUTO
          3 000357  C2C6 000D                            LLH,R4   13,B6
          3 000359  DCC7 0026                            LDB,B5   CTX$,AUTO
          3 00035B  CAC5 000D                            SRM,R4,'00FF'X    13,B5
          3 00035D       00FF
PL6.E3A0      #001=GJA$ADMIN File=GJA$ADMIN.:E05TSI                              TUE 07/29/97 21:50 Page:76

      465    16646    7                                  ROUTE$ = KNN$ROUTE$(GJA$HAND_CTX.NODE);

  16646   3 00035E  DCC7 0026                            LDB,B5   CTX$,AUTO
          3 000360  B845 000D                            LDR,R3   13,B5
          3 000362  B570 00FF                            AND,R3   255,IMO
          3 000364  CC80 0000 0000  xsym                 LDB,B4   GJA_ROUTE$
          3 000367  BCB4                                 LDB,B3   ,B4,R3
          3 000368  BFC7 002F                            STB,B3   ROUTE$,AUTO

      466    16647    7                                  KNN$ROUTE.CTX$ = CTX$;

  16647   3 00036A  DFC3 0002                            STB,B5   2,B3

      467    16648    7                                  GJA$HAND_CTX.LINK_CONNECTED = KNN$ROUTE.FLAGS.
             16648                                           LINK_CONNECTED;

  16648   3 00036C  C843 0007                            LDR,R4   7,B3
          3 00036E  ACC7 0026                            LDB,B2   CTX$,AUTO
          3 000370  CAC2 000D                            SRM,R4,'4000'X    13,B2
          3 000372       4000

      468    16649    7                                  IF GJA_NM_HEAD$ = ADDR(NIL)

  16649   3 000373  8D80 0000 0000  xsym                 CMN      GJA_NM_HEAD$
          3 000376  0981 0008                            BNE      s:16653,PREL

      469    16650    7                                  THEN
      470    16651    7                                       GJA_NM_HEAD$ = CTX$;

  16651   3 000378  DCC7 0026                            LDB,B5   CTX$,AUTO
          3 00037A  DF80 0000 0000  xsym                 STB,B5   GJA_NM_HEAD$
          3 00037D  0F81 000D                            B        s:16656,PREL

      471    16652    8                                  ELSE DO;

      472    16653    8                                       GJA$HAND_CTX.LNK$ = GJA_NM_HEAD$;
PL6.E3A0      #001=GJA$ADMIN File=GJA$ADMIN.:E05TSI                              TUE 07/29/97 21:50 Page:77

  16653   3 00037F  DC80 0000 0000  xsym                 LDB,B5   GJA_NM_HEAD$
          3 000382  ACC7 0026                            LDB,B2   CTX$,AUTO
          3 000384  DFC2 0001                            STB,B5   1,B2

      473    16654    8                                       GJA_NM_HEAD$ = CTX$;

  16654   3 000386  DCC7 0026                            LDB,B5   CTX$,AUTO
          3 000388  DF80 0000 0000  xsym                 STB,B5   GJA_NM_HEAD$

      474    16655    8                                       END;

      475    16656    7                                  GJA$HAND_CTX.LDCTX = KNH$MESS.LDCTX;

  16656   3 00038B  CCC7 0020                            LDB,B4   MSG$,AUTO
          3 00038D  C844 0001                            LDR,R4   1,B4
          3 00038F  CA85                                 SRM,R4,'1FFF'X    ,B5
          3 000390       1FFF

      476    16657    7                                  CALL GJA$Q_MSG(CTX$,,,SIZEC(GJA_CONNECT_ACK),
             16657                                           GJA_CONNECT_ACK,%KN_FCN_INIT_ACK);

  16657   3 000391  DBF0 000C                            LAB,B5   12,IMO
          3 000393  ABF0 0002                            LAB,B2   2,IMO
          3 000395  AFC7 004C                            STB,B2   NMAVAIL+11,AUTO
          3 000397  9B80 0000 0000  xsym                 LAB,B1   GJA_CONNECT_ACK
          3 00039A  9FC7 004A                            STB,B1   NMAVAIL+9,AUTO
          3 00039C  DFC7 0048                            STB,B5   NMAVAIL+7,AUTO
          3 00039E  EB80 0000 0000                       LAB,B6   0
          3 0003A1  EFC7 0046                            STB,B6   NMAVAIL+5,AUTO
          3 0003A3  EB80 0000 0000                       LAB,B6   0
          3 0003A6  EFC7 0044                            STB,B6   NMAVAIL+3,AUTO
          3 0003A8  EBC7 0026                            LAB,B6   CTX$,AUTO
          3 0003AA  EFC7 0042                            STB,B6   NMAVAIL+1,AUTO
          3 0003AC  BBC7 0042                            LAB,B3   NMAVAIL+1,AUTO
          3 0003AE  CBF0 0600                            LAB,B4   1536,IMO
          3 0003B0  E380 0000 0000  xent                 LNJ,B6   GJA$Q_MSG
PL6.E3A0      #001=GJA$ADMIN File=GJA$ADMIN.:E05TSI                              TUE 07/29/97 21:50 Page:78
          3 0003B3       0001                            DC       s:16658,PREL

      477    16658    7                                  CALL GJA$NODEINFO(CTX$);

  16658   3 0003B4  EBC7 0026                            LAB,B6   CTX$,AUTO
          3 0003B6  EFC7 0042                            STB,B6   NMAVAIL+1,AUTO
          3 0003B8  BBC7 0042                            LAB,B3   NMAVAIL+1,AUTO
          3 0003BA  CBF0 0100                            LAB,B4   256,IMO
          3 0003BC  E380 0000 0000  xent                 LNJ,B6   GJA$NODEINFO
          3 0003BF       0001                            DC       s:16659,PREL

      478    16659    7                                  END;

  16659   3 0003C0  0F81 0824                            B        s:17200,PREL

      479    16660    7                             ELSE DO;

      480    16661        /*
      481    16662          If we've got this far we need to init nak the first connectio attempt
      482    16663          unitl the connection either fails or complete.  So subsequent inits
      483    16664          are just nak'd.  This should not occur too often from the same node.
      484    16665        */
      485    16666    7                                  GJA_CONNECT_ACK.REASON = %K_REASON_USRREJ;

  16666   3 0003C2  2C05                                 LDV,R2   5
          3 0003C3  AF00 0000 0000  xsym                 STR,R2   GJA_CONNECT_ACK

      486    16667    7                                  CALL GJA$Q_MSG (ADDR(KNH$MESS.LDCTX),,,SIZEC(
             16667                                           GJA_CONNECT_ACK)

  16667   3 0003C6  CBC5 0001                            LAB,B4   1,B5
          3 0003C8  CFC7 0042                            STB,B4   NMAVAIL+1,AUTO
          3 0003CA  EBF0 000C                            LAB,B6   12,IMO
          3 0003CC  DBF0 0002                            LAB,B5   2,IMO
          3 0003CE  DFC7 004E                            STB,B5   NMAVAIL+13,AUTO
          3 0003D0  DB80 0000 0000  xsym                 LAB,B5   GJA_CONNECT_ACK
          3 0003D3  DFC7 004C                            STB,B5   NMAVAIL+11,AUTO
PL6.E3A0      #001=GJA$ADMIN File=GJA$ADMIN.:E05TSI                              TUE 07/29/97 21:50 Page:79
          3 0003D5  EFC7 004A                            STB,B6   NMAVAIL+9,AUTO
          3 0003D7  EB80 0000 0000                       LAB,B6   0
          3 0003DA  EFC7 0048                            STB,B6   NMAVAIL+7,AUTO
          3 0003DC  EB80 0000 0000                       LAB,B6   0
          3 0003DF  EFC7 0046                            STB,B6   NMAVAIL+5,AUTO
          3 0003E1  EBC7 0042                            LAB,B6   NMAVAIL+1,AUTO
          3 0003E3  EFC7 0044                            STB,B6   NMAVAIL+3,AUTO
          3 0003E5  BBC7 0044                            LAB,B3   NMAVAIL+3,AUTO
          3 0003E7  CBF0 0600                            LAB,B4   1536,IMO
          3 0003E9  E380 0000 0000  xent                 LNJ,B6   GJA$Q_MSG
          3 0003EC       0001                            DC       s:16672,PREL

      487    16668    7                                    ,GJA_CONNECT_ACK,%KN_FCN_INIT_ACK);
      488    16669    7                                  END;

      489    16670    6                             END;

      490    16671
      491    16672    5                        END /* DO SELECT */;

  16672   3 0003ED  0F81 07F7                            B        s:17200,PREL

      492    16673        %EJECT;
PL6.E3A0      #001=GJA$ADMIN File=GJA$ADMIN.:E05TSI                              TUE 07/29/97 21:50 Page:80
      493    16674        /*   Initiate Connection Acknowledgement
      494    16675        */
      495    16676        /*
      496    16677          Verify that the init was O.K. and if it wasn't, retry it.
      497    16678        */
      498    16679    4                 CASE(%KN_FCN_INIT_ACK);

      499    16680    4                   FPT$=PINCRW(MSG$,SIZEW(KNH$MESS));

  16680   3 0003EF  BBC5 0008                            LAB,B3   8,B5
          3 0003F1  BFC7 0024                            STB,B3   FPT$,AUTO

      500    16681    4                   GJA$HAND_CTX.WAT4ACK = '0'B;

  16681   3 0003F3  8844 000D                            LBF,'0800'X       13,B4
  16681   3 0003F5       0800

      501    16682    4                   IF FPT_CONNECT_ACK.REASON ~= %K_REASON_NORMAL

  16682   3 0003F6  C803                                 LDR,R4   ,B3
          3 0003F7  4901 0050                            BEZ,R4   s:16701,PREL

      502    16683    4                   THEN
      503    16684    4                        IF FPT_CONNECT_ACK.REASON = %K_REASON_NORTE

  16684   3 0003F9  4D02                                 CMV,R4   2
          3 0003FA  0901 000B                            BE       s:16687,PREL
          3 0003FC  4D05                                 CMV,R4   5
          3 0003FD  0981 001C                            BNE      s:16692,PREL
          3 0003FF  CCC7 0026                            LDB,B4   CTX$,AUTO
          3 000401  82C4 000D                            LB,'2000'X        13,B4
          3 000403       2000
          3 000404  0501 0015                            BBT      s:16692,PREL

      504    16685    4                          OR (FPT_CONNECT_ACK.REASON = %K_REASON_USRREJ AND NOT
             16685                                   GJA$HAND_CTX.HOST_NODE)
      505    16686    5                        THEN DO;
PL6.E3A0      #001=GJA$ADMIN File=GJA$ADMIN.:E05TSI                              TUE 07/29/97 21:50 Page:81

      506    16687    5                             IF GJA$HAND_CTX.LDCTX = 0 /* No other connection */

  16687   3 000406  CCC7 0026                            LDB,B4   CTX$,AUTO
          3 000408  8284                                 LB,'1FFF'X        ,B4
          3 000409       1FFF
          3 00040A  0501 07DA                            BBT      s:17200,PREL

      507    16688    5                             THEN
      508    16689    5                                  CALL GJA$DISOLVE_NA(CTX$);

  16689   3 00040C  ABC7 0026                            LAB,B2   CTX$,AUTO
          3 00040E  AFC7 0042                            STB,B2   NMAVAIL+1,AUTO
          3 000410  BBC7 0042                            LAB,B3   NMAVAIL+1,AUTO
          3 000412  CBF0 0100                            LAB,B4   256,IMO
          3 000414  E380 0000 0000  xent                 LNJ,B6   GJA$DISOLVE_NA
          3 000417       0001                            DC       s:16690,PREL

      509    16690    5                             END;

  16690   3 000418  0F81 07CC                            B        s:17200,PREL

      510    16691    5                        ELSE DO;

      511    16692    5                             GJA_CONNECT.RLCID.NODE = GJA$HAND_CTX.NODE;

  16692   3 00041A  CCC7 0026                            LDB,B4   CTX$,AUTO
          3 00041C  B844 000D                            LDR,R3   13,B4
          3 00041E  B570 00FF                            AND,R3   255,IMO
          3 000420  B780 0000 000D  xsym                 STH,R3   GJA_CONNECT+13

      512    16693    5                             CALL GJA$Q_MSG(CTX$,,,SIZEC(GJA_CONNECT),GJA_CONNECT,%
             16693                                      KN_FCN_INIT);

  16693   3 000423  ABF0 0026                            LAB,B2   38,IMO
          3 000425  9BF0 0001                            LAB,B1   1,IMO
          3 000427  9FC7 004C                            STB,B1   NMAVAIL+11,AUTO
PL6.E3A0      #001=GJA$ADMIN File=GJA$ADMIN.:E05TSI                              TUE 07/29/97 21:50 Page:82
          3 000429  EB80 0000 0000  xsym                 LAB,B6   GJA_CONNECT
          3 00042C  EFC7 004A                            STB,B6   NMAVAIL+9,AUTO
          3 00042E  AFC7 0048                            STB,B2   NMAVAIL+7,AUTO
          3 000430  EB80 0000 0000                       LAB,B6   0
          3 000433  EFC7 0046                            STB,B6   NMAVAIL+5,AUTO
          3 000435  EB80 0000 0000                       LAB,B6   0
          3 000438  EFC7 0044                            STB,B6   NMAVAIL+3,AUTO
          3 00043A  EBC7 0026                            LAB,B6   CTX$,AUTO
          3 00043C  EFC7 0042                            STB,B6   NMAVAIL+1,AUTO
          3 00043E  BBC7 0042                            LAB,B3   NMAVAIL+1,AUTO
          3 000440  CBF0 0600                            LAB,B4   1536,IMO
          3 000442  E380 0000 0000  xent                 LNJ,B6   GJA$Q_MSG
          3 000445       0001                            DC       s:16694,PREL

      513    16694    5                             END;

  16694   3 000446  0F81 079E                            B        s:17200,PREL

      514    16695        /*
      515    16696          When we get connect ack from the network manager, we need to save
      516    16697          the LDCT index of the network manager for later use in communicating
      517    16698          with it.
      518    16699        */
      519    16700    5                   ELSE DO;

      520    16701    5                        GJA$HAND_CTX.LDCTX = KNH$MESS.LDCTX;

  16701   3 000448  B845 0001                            LDR,R3   1,B5
          3 00044A  CCC7 0026                            LDB,B4   CTX$,AUTO
          3 00044C  BA84                                 SRM,R3,'1FFF'X    ,B4
          3 00044D       1FFF

      521    16702        /*
      522    16703             Send the node info to this NA
      523    16704         */
      524    16705    5                        CALL GJA$NODEINFO(CTX$);

PL6.E3A0      #001=GJA$ADMIN File=GJA$ADMIN.:E05TSI                              TUE 07/29/97 21:50 Page:83
  16705   3 00044E  EBC7 0026                            LAB,B6   CTX$,AUTO
          3 000450  EFC7 0042                            STB,B6   NMAVAIL+1,AUTO
          3 000452  BBC7 0042                            LAB,B3   NMAVAIL+1,AUTO
          3 000454  CBF0 0100                            LAB,B4   256,IMO
          3 000456  E380 0000 0000  xent                 LNJ,B6   GJA$NODEINFO
          3 000459       0001                            DC       s:16710,PREL

      525    16706        /*
      526    16707            if this init ack is from a host then check the logon list for any
      527    16708            previous autologon failures and reissue the connect on them.
      528    16709        */
      529    16710    5                        SVMSG$ = GJA_USRLGN_HEAD$;

  16710   3 00045A  EC80 0000 0000  xsym                 LDB,B6   GJA_USRLGN_HEAD$
          3 00045D  EFC7 0028                            STB,B6   SVMSG$,AUTO

      530    16711    6                        DO WHILE SVMSG$ ~= ADDR(NIL);

  16711   3 00045F  0F81 002D                            B        s:16724,PREL

      531    16712        /* if the node connecting has logons waiting reissue them now.  let the
      532    16713           default node take care of his own all non-autologon lines default to
      533    16714           gja_defnode as their nm*/
      534    16715    6                             IF SVMSG$->GJA$LGNCTX.NM_NODE = GJA$HAND_CTX.NODE

  16715   3 000461  ECC7 0028                            LDB,B6   SVMSG$,AUTO
          3 000463  E2C6 0009                            LLH,R6   9,B6
          3 000465  DCC7 0026                            LDB,B5   CTX$,AUTO
          3 000467  D845 000D                            LDR,R5   13,B5
          3 000469  D570 00FF                            AND,R5   255,IMO
          3 00046B  E955                                 CMR,R6   R5
          3 00046C  0981 001A                            BNE      s:16723,PREL
          3 00046E  D900 0000 0000  xsym                 CMR,R5   GJA_DEFNODE
          3 000471  0901 0015                            BE       s:16723,PREL
          3 000473  CCC6 000A                            LDB,B4   10,B6
          3 000475  8284                                 LB,'0004'X        ,B4
          3 000476       0004
PL6.E3A0      #001=GJA$ADMIN File=GJA$ADMIN.:E05TSI                              TUE 07/29/97 21:50 Page:84
          3 000477  0581 000F                            BBF      s:16723,PREL

      535    16716    6                               AND GJA_DEFNODE ~= GJA$HAND_CTX.NODE
      536    16717    6                               AND SVMSG$->GJA$LGNCTX.CHN$->KH$CHN.AUTLGN THEN
      537    16718    7                             DO;

      538    16719    8                                 CALL GJA$LOGON_REQUEST_AGAIN(SVMSG$) WHENALTRETURN DO
             16719                                           ;

  16719   3 000479  BBC7 0028                            LAB,B3   SVMSG$,AUTO
          3 00047B  BFC7 0042                            STB,B3   NMAVAIL+1,AUTO
          3 00047D  BBC7 0042                            LAB,B3   NMAVAIL+1,AUTO
          3 00047F  CBF0 0100                            LAB,B4   256,IMO
          3 000481  E380 0000 0000  xent                 LNJ,B6   GJA$LOGON_REQUEST_AGAIN
          3 000484       0003                            DC       s:16723,PREL
          3 000485  0F81 0001                            B        s:16723,PREL

      539    16720                                                /* doesn't really altret    */
      540    16721    8                                       END;

      541    16722    7                                  END;

      542    16723    6                             SVMSG$ = SVMSG$->GJA$LGNCTX.LNK$;

  16723   3 000487  ECC7 0028                            LDB,B6   SVMSG$,AUTO
          3 000489  DCC6 0001                            LDB,B5   1,B6
          3 00048B  DFC7 0028                            STB,B5   SVMSG$,AUTO

      543    16724    6                             END;

  16724   3 00048D  8DC7 0028                            CMN      SVMSG$,AUTO
          3 00048F  09D2                                 BNE      s:16715,SPREL

      544    16725    5                        END;

  16725   3 000490  0F81 0754                            B        s:17200,PREL

PL6.E3A0      #001=GJA$ADMIN File=GJA$ADMIN.:E05TSI                              TUE 07/29/97 21:50 Page:85
      545    16726        %EJECT;
PL6.E3A0      #001=GJA$ADMIN File=GJA$ADMIN.:E05TSI                              TUE 07/29/97 21:50 Page:86
      546    16727        /*   Terminate Connection Request
      547    16728        */
      548    16729        /*
      549    16730          A TERM from VDH probably means that one of the devices attempting
      550    16731          logon has disconnected.  If we have already solicited the network
      551    16732          manager for information on this guy, just set a bit in his context
      552    16733          so that we can throw away the network managers responce when we
      553    16734          get it.  Otherwise, send a TERM ACK to VDH and displve this guys
      554    16735          context now.  At some future time we may also need code here to
      555    16736          support resources disconnecting.
      556    16737        */
      557    16738    4                 CASE(%KN_FCN_TERM);

      558    16739    5                   DO CASE (WHO);

  16739   3 000492  9847 001D                            LDR,R1   WHO,AUTO
          3 000494  1D05                                 CMV,R1   5
          3 000495  0281 0201                            BGE      s:16839,PREL
          3 000497  B810 0000 049D  03                   LDR,R3   s:16739+11,R1
          3 00049A  83B0 0000 04A2  03                   JMP      s:16745,R3
          3 00049D       01F5                            DC       s:16839,PREL
          3 00049E       0040                            DC       s:16755,PREL
          3 00049F       01F5                            DC       s:16839,PREL
          3 0004A0       01E7                            DC       s:16834,PREL
          3 0004A1       0000                            DC       s:16745,PREL

      559    16740
      560    16741    5                    CASE (%GJA_UID_LOGON);

      561    16742
      562    16743        /*
      563    16744        */
      564    16745    5                      IF CTX$->GJA$LGNCTX.STATUS.NMRSP

  16745   3 0004A2  82C4 0018                            LB,'2000'X        24,B4
  16745   3 0004A4       2000
          3 0004A5  0501 0006                            BBT      s:16747,PREL
PL6.E3A0      #001=GJA$ADMIN File=GJA$ADMIN.:E05TSI                              TUE 07/29/97 21:50 Page:87
          3 0004A7  82C4 0018                            LB,'0200'X        24,B4
          3 0004A9       0200
          3 0004AA  0581 0006                            BBF      s:16749,PREL

      565    16746    5                        OR CTX$->GJA$LGNCTX.STATUS.WTPRO
      566    16747    5                      THEN CTX$->GJA$LGNCTX.STATUS.TERM='1'B;

  16747   3 0004AC  8944 0018                            LBT,'8000'X       24,B4
  16747   3 0004AE       8000
          3 0004AF  0F81 0735                            B        s:17200,PREL

      567    16748    6                      ELSE DO;

      568    16749    6                           CALL GJA$Q_MSG(CTX$,,,SIZEC(GJA_TERM_ACK),GJA_TERM_ACK,%
             16749                                    KN_FCN_TERM_ACK);

  16749   3 0004B1  BBF0 0004                            LAB,B3   4,IMO
          3 0004B3  ABF0 0004                            LAB,B2   4,IMO
          3 0004B5  AFC7 004C                            STB,B2   NMAVAIL+11,AUTO
          3 0004B7  9B80 0000 0000  xsym                 LAB,B1   GJA_TERM_ACK
          3 0004BA  9FC7 004A                            STB,B1   NMAVAIL+9,AUTO
          3 0004BC  BFC7 0048                            STB,B3   NMAVAIL+7,AUTO
          3 0004BE  EB80 0000 0000                       LAB,B6   0
          3 0004C1  EFC7 0046                            STB,B6   NMAVAIL+5,AUTO
          3 0004C3  EB80 0000 0000                       LAB,B6   0
          3 0004C6  EFC7 0044                            STB,B6   NMAVAIL+3,AUTO
          3 0004C8  EBC7 0026                            LAB,B6   CTX$,AUTO
          3 0004CA  EFC7 0042                            STB,B6   NMAVAIL+1,AUTO
          3 0004CC  BBC7 0042                            LAB,B3   NMAVAIL+1,AUTO
          3 0004CE  CBF0 0600                            LAB,B4   1536,IMO
          3 0004D0  E380 0000 0000  xent                 LNJ,B6   GJA$Q_MSG
          3 0004D3       0001                            DC       s:16750,PREL

      569    16750    6                           CALL GJA$DISOLVE_LGNUSR_CTX(CTX$);

  16750   3 0004D4  EBC7 0026                            LAB,B6   CTX$,AUTO
          3 0004D6  EFC7 0042                            STB,B6   NMAVAIL+1,AUTO
PL6.E3A0      #001=GJA$ADMIN File=GJA$ADMIN.:E05TSI                              TUE 07/29/97 21:50 Page:88
          3 0004D8  BBC7 0042                            LAB,B3   NMAVAIL+1,AUTO
          3 0004DA  CBF0 0100                            LAB,B4   256,IMO
          3 0004DC  E380 0000 0000  xent                 LNJ,B6   GJA$DISOLVE_LGNUSR_CTX
          3 0004DF       0001                            DC       s:16751,PREL

      570    16751    6                           END;

  16751   3 0004E0  0F81 0704                            B        s:17200,PREL

      571    16752
      572    16753
      573    16754    5                    CASE (%GJA_UID_NM);

      574    16755    5                      CALL GJA$Q_MSG (ADDR(KNH$MESS.LDCTX),,,SIZEC(GJA_TERM_ACK),
             16755                               GJA_TERM_ACK,%KN_FCN_TERM_ACK);

  16755   3 0004E2  BBC5 0001                            LAB,B3   1,B5
          3 0004E4  BFC7 0042                            STB,B3   NMAVAIL+1,AUTO
          3 0004E6  ABF0 0004                            LAB,B2   4,IMO
          3 0004E8  9BF0 0004                            LAB,B1   4,IMO
          3 0004EA  9FC7 004E                            STB,B1   NMAVAIL+13,AUTO
          3 0004EC  EB80 0000 0000  xsym                 LAB,B6   GJA_TERM_ACK
          3 0004EF  EFC7 004C                            STB,B6   NMAVAIL+11,AUTO
          3 0004F1  AFC7 004A                            STB,B2   NMAVAIL+9,AUTO
          3 0004F3  EB80 0000 0000                       LAB,B6   0
          3 0004F6  EFC7 0048                            STB,B6   NMAVAIL+7,AUTO
          3 0004F8  EB80 0000 0000                       LAB,B6   0
          3 0004FB  EFC7 0046                            STB,B6   NMAVAIL+5,AUTO
          3 0004FD  EBC7 0042                            LAB,B6   NMAVAIL+1,AUTO
          3 0004FF  EFC7 0044                            STB,B6   NMAVAIL+3,AUTO
          3 000501  BBC7 0044                            LAB,B3   NMAVAIL+3,AUTO
          3 000503  CBF0 0600                            LAB,B4   1536,IMO
          3 000505  E380 0000 0000  xent                 LNJ,B6   GJA$Q_MSG
          3 000508       0001                            DC       s:16756,PREL

      575    16756    5                      IF CTX$ = GJA_UID_NM$

PL6.E3A0      #001=GJA$ADMIN File=GJA$ADMIN.:E05TSI                              TUE 07/29/97 21:50 Page:89
  16756   3 000509  ECC7 0026                            LDB,B6   CTX$,AUTO
          3 00050B  ED80 0000 0000  xsym                 CMB,B6   GJA_UID_NM
          3 00050E  0981 000A                            BNE      s:16761,PREL

      576    16757    6                      THEN DO;

      577    16758    6                           GJA$HAND_CTX.WAT4ACK = '0'B;

  16758   3 000510  8846 000D                            LBF,'0800'X       13,B6
  16758   3 000512       0800

      578    16759    6                           GJA_UID_NM$ = ADDR(NIL);

  16759   3 000513  EB80 0000 0000                       LAB,B6   0
          3 000516  EF80 0000 0000  xsym                 STB,B6   GJA_UID_NM

      579    16760    6                           END;

      580    16761    5                      RECOVERY_NODE = CTX$->GJA$HAND_CTX.NODE;

  16761   3 000519  ECC7 0026                            LDB,B6   CTX$,AUTO
          3 00051B  F846 000D                            LDR,R7   13,B6
          3 00051D  F570 00FF                            AND,R7   255,IMO
          3 00051F  6C00                                 LDV,R6   0
          3 000520  8D47 0034                            SDI      RECOVERY_NODE,AUTO

      581    16762        /*
      582    16763                            if the term comes before the ack then
      583    16764                            skip the disolve context message and let
      584    16765                            the init_ack do the work.
      585    16766        */
      586    16767    5                      IF GJA_UID_NM$ = ADDR(NIL) /* Our NM             */

  16767   3 000522  8D80 0000 0000  xsym                 CMN      GJA_UID_NM
          3 000525  0981 0010                            BNE      s:16774,PREL

      587    16768    6                      THEN DO;
PL6.E3A0      #001=GJA$ADMIN File=GJA$ADMIN.:E05TSI                              TUE 07/29/97 21:50 Page:90

      588    16769    6                           CALL GIJ$ABORTDUMP;

  16769   3 000527  CBF0 0000                            LAB,B4   0,IMO
          3 000529  E380 0000 0000  xent                 LNJ,B6   GIJ$ABORTDUMP
          3 00052C       0001                            DC       s:16770,PREL

      589    16770    6                           GJA_UID_NM$ = ADDR(NIL);

  16770   3 00052D  EB80 0000 0000                       LAB,B6   0
          3 000530  EF80 0000 0000  xsym                 STB,B6   GJA_UID_NM

      590    16771    6                           GJA_LDCT_NM = 0;

  16771   3 000533  8700 0000 0000  xsym                 CL       GJA_LDCT_NM

      591    16772
      592    16773    6                           END;

      593    16774    5                      CALL GJA$HOST_RECOVERY(RECOVERY_NODE);

  16774   3 000536  EBC7 0034                            LAB,B6   RECOVERY_NODE,AUTO
          3 000538  EFC7 0042                            STB,B6   NMAVAIL+1,AUTO
          3 00053A  BBC7 0042                            LAB,B3   NMAVAIL+1,AUTO
          3 00053C  CBF0 0100                            LAB,B4   256,IMO
          3 00053E  E380 0000 0000  xent                 LNJ,B6   GJA$HOST_RECOVERY
          3 000541       0001                            DC       s:16775,PREL

      594    16775    5                      IF (GJA_DEFNODE = RECOVERY_NODE AND

  16775   3 000542  F800 0000 0000  xsym                 LDR,R7   GJA_DEFNODE
          3 000545  6C00                                 LDV,R6   0
          3 000546  84C7 0034                            SID      RECOVERY_NODE,AUTO
          3 000548  6981 0017                            BNEZ,R6  s:16779,PREL
          3 00054A  7981 0015                            BNEZ,R7  s:16779,PREL
          3 00054C  EC80 0000 0000  xsym                 LDB,B6   GJA_ROUTE$
          3 00054F  B800 0000 0000  xsym                 LDR,R3   GJA_DEFNODE
PL6.E3A0      #001=GJA$ADMIN File=GJA$ADMIN.:E05TSI                              TUE 07/29/97 21:50 Page:91
          3 000552  DCB6                                 LDB,B5   ,B6,R3
          3 000553  82C5 0007                            LB,'4000'X        7,B5
          3 000555       4000
          3 000556  0581 0009                            BBF      s:16779,PREL

      595    16776    5                        KNN$ROUTE$(GJA_DEFNODE)->KNN$ROUTE.FLAGS.LINK_CONNECTED) THEN
      596    16777    5                           GJA_MSG_DOWN$ = GJA_MSG_HOSTDOWN$;

  16777   3 000558  CC80 0000 0000  xsym                 LDB,B4   GJA_MSG_HOSTDOWN$
          3 00055B  CF80 0000 0000  xsym                 STB,B4   GJA_MSG_DOWN$
          3 00055E  0F81 006F                            B        s:16801,PREL

      597    16778    5                      ELSE
      598    16779    5                           IF (GJA_DEFNODE ~= RECOVERY_NODE AND

  16779   3 000560  F800 0000 0000  xsym                 LDR,R7   GJA_DEFNODE
          3 000563  6C00                                 LDV,R6   0
          3 000564  84C7 0034                            SID      RECOVERY_NODE,AUTO
          3 000566  6981 0003                            BNEZ,R6  s:16779+10,PREL
          3 000568  7901 002D                            BEZ,R7   s:16789,PREL
          3 00056A  EC80 0000 0000  xsym                 LDB,B6   GJA_ROUTE$
          3 00056D  B800 0000 0000  xsym                 LDR,R3   GJA_DEFNODE
          3 000570  DCB6                                 LDB,B5   ,B6,R3
          3 000571  82C5 0007                            LB,'4000'X        7,B5
          3 000573       4000
          3 000574  0501 0021                            BBT      s:16789,PREL

      599    16780    5                             NOT (KNN$ROUTE$(GJA_DEFNODE)->KNN$ROUTE.FLAGS.
             16780                                      LINK_CONNECTED)) THEN
      600    16781    5                                IF (KNN$ROUTE$(GJA_DEFNODE)->KNN$ROUTE.LINK# ~= -1)
             16781                                         THEN

  16781   3 000576  E845 0004                            LDR,R6   4,B5
          3 000578  6DFF                                 CMV,R6   -1
          3 000579  0901 0054                            BE       s:16801,PREL

      601    16782    5                                     IF (KNN$LINK$(KNN$ROUTE$(GJA_DEFNODE)->KNN$ROUTE.
PL6.E3A0      #001=GJA$ADMIN File=GJA$ADMIN.:E05TSI                              TUE 07/29/97 21:50 Page:92
             16782                                              LINK#)->KNN$LINK.QOS < 255) THEN

  16782   3 00057B  A856                                 LDR,R2   R6
          3 00057C  CC80 0000 0000  xsym                 LDB,B4   GJA_LINK$
          3 00057F  BCA4                                 LDB,B3   ,B4,R2
          3 000580  D843 0004                            LDR,R5   4,B3
          3 000582  D970 00FF                            CMR,R5   255,IMO
          3 000584  0281 0009                            BGE      s:16785,PREL

      602    16783    5                                          GJA_MSG_DOWN$ = GJA_MSG_HOSTDOWN$;

  16783   3 000586  AC80 0000 0000  xsym                 LDB,B2   GJA_MSG_HOSTDOWN$
          3 000589  AF80 0000 0000  xsym                 STB,B2   GJA_MSG_DOWN$
          3 00058C  0F81 0041                            B        s:16801,PREL

      603    16784    5                                     ELSE
      604    16785    5                                          GJA_MSG_DOWN$ = GJA_MSG_LINKDOWN$;

  16785   3 00058E  AC80 0000 0000  xsym                 LDB,B2   GJA_MSG_LINKDOWN$
          3 000591  AF80 0000 0000  xsym                 STB,B2   GJA_MSG_DOWN$
          3 000594  0F81 0039                            B        s:16801,PREL

      605    16786    5                                ELSE
      606    16787    5                                     ; /* link recovery already occurred*/
      607    16788    5                           ELSE
      608    16789    5                                IF (GJA_DEFNODE = RECOVERY_NODE) AND

  16789   3 000596  F800 0000 0000  xsym                 LDR,R7   GJA_DEFNODE
          3 000599  6C00                                 LDV,R6   0
          3 00059A  84C7 0034                            SID      RECOVERY_NODE,AUTO
          3 00059C  6981 0031                            BNEZ,R6  s:16801,PREL
          3 00059E  7981 002F                            BNEZ,R7  s:16801,PREL
          3 0005A0  EC80 0000 0000  xsym                 LDB,B6   GJA_ROUTE$
          3 0005A3  B800 0000 0000  xsym                 LDR,R3   GJA_DEFNODE
          3 0005A6  DCB6                                 LDB,B5   ,B6,R3
          3 0005A7  E845 0007                            LDR,R6   7,B5
          3 0005A9  6001                                 SOL,R6   1
PL6.E3A0      #001=GJA$ADMIN File=GJA$ADMIN.:E05TSI                              TUE 07/29/97 21:50 Page:93
          3 0005AA  E570 8000                            AND,R6   -32768,IMO
          3 0005AC  E670 8000                            XOR,R6   -32768,IMO
          3 0005AE  6901 001F                            BEZ,R6   s:16801,PREL

      609    16790    5                                  ~(KNN$ROUTE$(GJA_DEFNODE)->KNN$ROUTE.FLAGS.
             16790                                           LINK_CONNECTED) THEN
      610    16791    5                                    IF (KNN$ROUTE$(GJA_DEFNODE)->KNN$ROUTE.LINK# ~= -1
             16791                                              ) THEN

  16791   3 0005B0  E845 0004                            LDR,R6   4,B5
          3 0005B2  6DFF                                 CMV,R6   -1
          3 0005B3  0901 001A                            BE       s:16801,PREL

      611    16792    5                                          IF (KNN$LINK$(KNN$ROUTE$(GJA_DEFNODE)->
             16792                                                   KNN$ROUTE.LINK#)->KNN$LINK.QOS < 255)
             16792                                                   THEN

  16792   3 0005B5  A856                                 LDR,R2   R6
          3 0005B6  CC80 0000 0000  xsym                 LDB,B4   GJA_LINK$
          3 0005B9  BCA4                                 LDB,B3   ,B4,R2
          3 0005BA  D843 0004                            LDR,R5   4,B3
          3 0005BC  D970 00FF                            CMR,R5   255,IMO
          3 0005BE  0281 0009                            BGE      s:16795,PREL

      612    16793    5                                               GJA_MSG_DOWN$ = GJA_MSG_HOSTDOWN$;

  16793   3 0005C0  AC80 0000 0000  xsym                 LDB,B2   GJA_MSG_HOSTDOWN$
          3 0005C3  AF80 0000 0000  xsym                 STB,B2   GJA_MSG_DOWN$
          3 0005C6  0F81 0007                            B        s:16801,PREL

      613    16794    5                                          ELSE
      614    16795    5                                               GJA_MSG_DOWN$ = GJA_MSG_LINKDOWN$;

  16795   3 0005C8  AC80 0000 0000  xsym                 LDB,B2   GJA_MSG_LINKDOWN$
          3 0005CB  AF80 0000 0000  xsym                 STB,B2   GJA_MSG_DOWN$

      615    16796    5                                     ELSE ;
PL6.E3A0      #001=GJA$ADMIN File=GJA$ADMIN.:E05TSI                              TUE 07/29/97 21:50 Page:94
      616    16797        /*
      617    16798         *                  if we aren't waiting for the init_ack on this connection
      618    16799         *                  go ahead and attempt the reconnect.
      619    16800         */
      620    16801    6                      IF NOT GJA$HAND_CTX.WAT4ACK THEN DO;

  16801   3 0005CE  ECC7 0026                            LDB,B6   CTX$,AUTO
          3 0005D0  82C6 000D                            LB,'0800'X        13,B6
          3 0005D2       0800
          3 0005D3  0501 0611                            BBT      s:17200,PREL

      621    16802    6                           CALL GJA$DISOLVE_NA(CTX$);

  16802   3 0005D5  DBC7 0026                            LAB,B5   CTX$,AUTO
          3 0005D7  DFC7 0042                            STB,B5   NMAVAIL+1,AUTO
          3 0005D9  BBC7 0042                            LAB,B3   NMAVAIL+1,AUTO
          3 0005DB  CBF0 0100                            LAB,B4   256,IMO
          3 0005DD  E380 0000 0000  xent                 LNJ,B6   GJA$DISOLVE_NA
          3 0005E0       0001                            DC       s:16803,PREL

      622    16803    6                           ROUTE$ = KNN$ROUTE$(RECOVERY_NODE);

  16803   3 0005E1  8CC7 0034                            LDI      RECOVERY_NODE,AUTO
          3 0005E3  B857                                 LDR,R3   R7
          3 0005E4  EC80 0000 0000  xsym                 LDB,B6   GJA_ROUTE$
          3 0005E7  DCB6                                 LDB,B5   ,B6,R3
          3 0005E8  DFC7 002F                            STB,B5   ROUTE$,AUTO

      623    16804    6                           IF KNN$ROUTE.CURRENT_QOS < 255

  16804   3 0005EA  E845 0005                            LDR,R6   5,B5
          3 0005EC  E970 00FF                            CMR,R6   255,IMO
          3 0005EE  0281 05F6                            BGE      s:17200,PREL
          3 0005F0  F800 0000 0000  xsym                 LDR,R7   GJA_NODE#
          3 0005F3  6C00                                 LDV,R6   0
          3 0005F4  84C7 0034                            SID      RECOVERY_NODE,AUTO
          3 0005F6  6981 0003                            BNEZ,R6  s:16804+16,PREL
PL6.E3A0      #001=GJA$ADMIN File=GJA$ADMIN.:E05TSI                              TUE 07/29/97 21:50 Page:95
          3 0005F8  7901 0003                            BEZ,R7   s:16804+18,PREL
          3 0005FA  0601 0005                            BCT      s:16808,PREL
          3 0005FC  89C5 0007                            CMZ      7,B5
          3 0005FE  0881 05E6                            BAGE     s:17200,PREL

      624    16805    6                             AND (RECOVERY_NODE < GJA_NODE#
      625    16806    6                             OR KNN$ROUTE.FLAGS.HOST_NODE = '1'B) THEN
      626    16807    7                           DO;

      627    16808    7                                GJA_CONNECT.RLCID.NODE = RECOVERY_NODE;

  16808   3 000600  E847 0035                            LDR,R6   RECOVERY_NODE+1,AUTO
          3 000602  E780 0000 000D  xsym                 STH,R6   GJA_CONNECT+13

      628    16809    7                                SIZE = SIZEW(GJA$HAND_CTX);

  16809   3 000605  5C11                                 LDV,R5   17
          3 000606  DF47 0032                            STR,R5   SIZE,AUTO

      629    16810    7                                CALL KVB$GETSYS(SIZE,CTX$)

  16810   3 000608  CBC7 0026                            LAB,B4   CTX$,AUTO
          3 00060A  CFC7 0044                            STB,B4   NMAVAIL+3,AUTO
          3 00060C  BBC7 0032                            LAB,B3   SIZE,AUTO
          3 00060E  BFC7 0042                            STB,B3   NMAVAIL+1,AUTO
          3 000610  BBC7 0042                            LAB,B3   NMAVAIL+1,AUTO
          3 000612  CBF0 0200                            LAB,B4   512,IMO
          3 000614  E380 0000 0000  xent                 LNJ,B6   KVB$GETSYS
          3 000617       0003                            DC       s:16812,PREL
          3 000618  0F81 0003                            B        s:16814,PREL

      630    16811    8                                WHENALTRETURN DO;

      631    16812    8                                     GOTO GETOUT;

  16812   3 00061A  0F81 05E6                            B        s:17203,PREL

PL6.E3A0      #001=GJA$ADMIN File=GJA$ADMIN.:E05TSI                              TUE 07/29/97 21:50 Page:96
      632    16813    8                                     END;
      633    16814    7                                GJA$HAND_CTX = '0'B;

  16814   3 00061C  ECC7 0026                            LDB,B6   CTX$,AUTO
          3 00061E  5C22                                 LDV,R5   34
          3 00061F  0021                                 ALR      ;
          3 000620       4178 0000                                ALPHANUM('0000'X,IMO,,1),;
          3 000622       4006 0000                                ALPHANUM(0,B6,,R5,FILL)

      634    16815    7                                GJA$HAND_CTX.WHO = %GJA_UID_NM;

  16815   3 000624  E870 2000                            LDR,R6   8192,IMO
          3 000626  437F                                 CSYNC    s:16815+1,SPREL
          3 000627  ECC7 0026                            LDB,B6   CTX$,AUTO
          3 000629  EA86                                 SRM,R6,'E000'X    ,B6
          3 00062A       E000

      635    16816    7                                GJA$HAND_CTX.NODE = RECOVERY_NODE;

  16816   3 00062B  C847 0035                            LDR,R4   RECOVERY_NODE+1,AUTO
          3 00062D  ECC7 0026                            LDB,B6   CTX$,AUTO
          3 00062F  CAC6 000D                            SRM,R4,'00FF'X    13,B6
          3 000631       00FF

      636    16817    7                                GJA$HAND_CTX.HOST_NODE = KNN$ROUTE.FLAGS.HOST_NODE;

  16817   3 000632  ECC7 002F                            LDB,B6   ROUTE$,AUTO
          3 000634  C846 0007                            LDR,R4   7,B6
          3 000636  4042                                 SOR,R4   2
          3 000637  DCC7 0026                            LDB,B5   CTX$,AUTO
          3 000639  CAC5 000D                            SRM,R4,'2000'X    13,B5
          3 00063B       2000

      637    16818    7                                IF GJA_NM_HEAD$ = ADDR(NIL)

  16818   3 00063C  8D80 0000 0000  xsym                 CMN      GJA_NM_HEAD$
          3 00063F  0981 0008                            BNE      s:16822,PREL
PL6.E3A0      #001=GJA$ADMIN File=GJA$ADMIN.:E05TSI                              TUE 07/29/97 21:50 Page:97

      638    16819    7                                THEN
      639    16820    7                                     GJA_NM_HEAD$ = CTX$;

  16820   3 000641  DCC7 0026                            LDB,B5   CTX$,AUTO
          3 000643  DF80 0000 0000  xsym                 STB,B5   GJA_NM_HEAD$
          3 000646  0F81 000D                            B        s:16825,PREL

      640    16821    8                                ELSE DO;

      641    16822    8                                     GJA$HAND_CTX.LNK$ = GJA_NM_HEAD$;

  16822   3 000648  DC80 0000 0000  xsym                 LDB,B5   GJA_NM_HEAD$
          3 00064B  CCC7 0026                            LDB,B4   CTX$,AUTO
          3 00064D  DFC4 0001                            STB,B5   1,B4

      642    16823    8                                     GJA_NM_HEAD$ = CTX$;

  16823   3 00064F  DCC7 0026                            LDB,B5   CTX$,AUTO
          3 000651  DF80 0000 0000  xsym                 STB,B5   GJA_NM_HEAD$

      643    16824    8                                     END;

      644    16825    7                                KNN$ROUTE.CTX$ = CTX$;

  16825   3 000654  DFC6 0002                            STB,B5   2,B6

      645    16826    7                               CALL GJA$Q_MSG (CTX$,,,SIZEC(GJA_CONNECT),GJA_CONNECT,%
             16826                                         KN_FCN_INIT);

  16826   3 000656  CBF0 0026                            LAB,B4   38,IMO
          3 000658  BBF0 0001                            LAB,B3   1,IMO
          3 00065A  BFC7 004C                            STB,B3   NMAVAIL+11,AUTO
          3 00065C  AB80 0000 0000  xsym                 LAB,B2   GJA_CONNECT
          3 00065F  AFC7 004A                            STB,B2   NMAVAIL+9,AUTO
          3 000661  CFC7 0048                            STB,B4   NMAVAIL+7,AUTO
          3 000663  9B80 0000 0000                       LAB,B1   0
PL6.E3A0      #001=GJA$ADMIN File=GJA$ADMIN.:E05TSI                              TUE 07/29/97 21:50 Page:98
          3 000666  9FC7 0046                            STB,B1   NMAVAIL+5,AUTO
          3 000668  EB80 0000 0000                       LAB,B6   0
          3 00066B  EFC7 0044                            STB,B6   NMAVAIL+3,AUTO
          3 00066D  EBC7 0026                            LAB,B6   CTX$,AUTO
          3 00066F  EFC7 0042                            STB,B6   NMAVAIL+1,AUTO
          3 000671  BBC7 0042                            LAB,B3   NMAVAIL+1,AUTO
          3 000673  CBF0 0600                            LAB,B4   1536,IMO
          3 000675  E380 0000 0000  xent                 LNJ,B6   GJA$Q_MSG
          3 000678       0001                            DC       s:16827,PREL

      646    16827    7                                GJA$HAND_CTX.WAT4ACK = '1'B;

  16827   3 000679  ECC7 0026                            LDB,B6   CTX$,AUTO
          3 00067B  8946 000D                            LBT,'0800'X       13,B6
          3 00067D       0800

      647    16828    7                                GJA$HAND_CTX.LINK_CONNECTED = KNN$ROUTE.FLAGS.
             16828                                         LINK_CONNECTED;

  16828   3 00067E  ECC7 002F                            LDB,B6   ROUTE$,AUTO
          3 000680  E846 0007                            LDR,R6   7,B6
          3 000682  DCC7 0026                            LDB,B5   CTX$,AUTO
          3 000684  EAC5 000D                            SRM,R6,'4000'X    13,B5
          3 000686       4000

      648    16829    7                                END;

      649    16830    6                           END;

  16830   3 000687  0F81 055D                            B        s:17200,PREL

      650    16831
      651    16832
      652    16833    5                    CASE (%GJA_UID_HANDLER);

      653    16834    5                      CALL GJA$TERM_HANDLER(CTX$);

PL6.E3A0      #001=GJA$ADMIN File=GJA$ADMIN.:E05TSI                              TUE 07/29/97 21:50 Page:99
  16834   3 000689  BBC7 0026                            LAB,B3   CTX$,AUTO
          3 00068B  BFC7 0042                            STB,B3   NMAVAIL+1,AUTO
          3 00068D  BBC7 0042                            LAB,B3   NMAVAIL+1,AUTO
          3 00068F  CBF0 0100                            LAB,B4   256,IMO
          3 000691  E380 0000 0000  xent                 LNJ,B6   GJA$TERM_HANDLER
          3 000694       0001                            DC       s:16834+12,PREL
          3 000695  0F81 054F                            B        s:17200,PREL

      654    16835
      655    16836
      656    16837
      657    16838    5                    CASE (ELSE);

      658    16839    5                      CALL GJA$Q_MSG (ADDR(KNH$MESS.LDCTX),,,SIZEC(GJA_TERM_ACK),
             16839                               GJA_TERM_ACK,%KN_FCN_TERM_ACK);

  16839   3 000697  BBC5 0001                            LAB,B3   1,B5
          3 000699  BFC7 0042                            STB,B3   NMAVAIL+1,AUTO
          3 00069B  ABF0 0004                            LAB,B2   4,IMO
          3 00069D  9BF0 0004                            LAB,B1   4,IMO
          3 00069F  9FC7 004E                            STB,B1   NMAVAIL+13,AUTO
          3 0006A1  EB80 0000 0000  xsym                 LAB,B6   GJA_TERM_ACK
          3 0006A4  EFC7 004C                            STB,B6   NMAVAIL+11,AUTO
          3 0006A6  AFC7 004A                            STB,B2   NMAVAIL+9,AUTO
          3 0006A8  EB80 0000 0000                       LAB,B6   0
          3 0006AB  EFC7 0048                            STB,B6   NMAVAIL+7,AUTO
          3 0006AD  EB80 0000 0000                       LAB,B6   0
          3 0006B0  EFC7 0046                            STB,B6   NMAVAIL+5,AUTO
          3 0006B2  EBC7 0042                            LAB,B6   NMAVAIL+1,AUTO
          3 0006B4  EFC7 0044                            STB,B6   NMAVAIL+3,AUTO
          3 0006B6  BBC7 0044                            LAB,B3   NMAVAIL+3,AUTO
          3 0006B8  CBF0 0600                            LAB,B4   1536,IMO
          3 0006BA  E380 0000 0000  xent                 LNJ,B6   GJA$Q_MSG
          3 0006BD       0001                            DC       s:16842,PREL

      659    16840
      660    16841
PL6.E3A0      #001=GJA$ADMIN File=GJA$ADMIN.:E05TSI                              TUE 07/29/97 21:50 Page:100
      661    16842    5                      END;

  16842   3 0006BE  0F81 0526                            B        s:17200,PREL

      662    16843        %EJECT;
PL6.E3A0      #001=GJA$ADMIN File=GJA$ADMIN.:E05TSI                              TUE 07/29/97 21:50 Page:101
      663    16844        /*   Terminate Connection Acknowledgement
      664    16845        */
      665    16846        /*
      666    16847          For right now lets make sure that this is from VDH on behalf
      667    16848          of a user logon path that was just disolved.  If it was, call
      668    16849          a routine to disolve the context block.  Lets also make sure that
      669    16850          we were expecting this.  I hate surprises!
      670    16851        */
      671    16852    4                 CASE(%KN_FCN_TERM_ACK);

      672    16853    5                   DO CASE (WHO);

  16853   3 0006C0  9847 001D                            LDR,R1   WHO,AUTO
          3 0006C2  1D05                                 CMV,R1   5
          3 0006C3  0281 0031                            BGE      s:16865,PREL
          3 0006C5  B810 0000 06CB  03                   LDR,R3   s:16853+11,R1
          3 0006C8  83B0 0000 06D0  03                   JMP      s:16856,R3
          3 0006CB       0025                            DC       s:16865,PREL
          3 0006CC       0000                            DC       s:16856,PREL
          3 0006CD       0025                            DC       s:16865,PREL
          3 0006CE       0025                            DC       s:16865,PREL
          3 0006CF       000E                            DC       s:16859,PREL

      673    16854
      674    16855    5                    CASE (%GJA_UID_NM);

      675    16856    5                      CALL GJA$DISOLVE_NA(CTX$);

  16856   3 0006D0  BBC7 0026                            LAB,B3   CTX$,AUTO
          3 0006D2  BFC7 0042                            STB,B3   NMAVAIL+1,AUTO
          3 0006D4  BBC7 0042                            LAB,B3   NMAVAIL+1,AUTO
          3 0006D6  CBF0 0100                            LAB,B4   256,IMO
          3 0006D8  E380 0000 0000  xent                 LNJ,B6   GJA$DISOLVE_NA
          3 0006DB       0001                            DC       s:16856+12,PREL
          3 0006DC  0F81 0508                            B        s:17200,PREL

      676    16857
PL6.E3A0      #001=GJA$ADMIN File=GJA$ADMIN.:E05TSI                              TUE 07/29/97 21:50 Page:102
      677    16858    5                    CASE (%GJA_UID_LOGON);

      678    16859    5                      IF NOT(CTX$->GJA$LGNCTX.STATUS.TERMACK)

  16859   3 0006DE  82C4 0018                            LB,'1000'X        24,B4
  16859   3 0006E0       1000
          3 0006E1  0501 0005                            BBT      s:16862,PREL

      679    16860    5                      THEN
      680    16861    5                           CALL M$XXX;

  16861   3 0006E3  B870 0082                            LDR,R3   130,IMO
          3 0006E5  0001                                 MCL
          3 0006E6       0000                            DC       s:16861+3,PREL

      681    16862    5                      CALL GJA$DISOLVE_LGNUSR_CTX (CTX$);

  16862   3 0006E7  EBC7 0026                            LAB,B6   CTX$,AUTO
          3 0006E9  EFC7 0042                            STB,B6   NMAVAIL+1,AUTO
          3 0006EB  BBC7 0042                            LAB,B3   NMAVAIL+1,AUTO
          3 0006ED  CBF0 0100                            LAB,B4   256,IMO
          3 0006EF  E380 0000 0000  xent                 LNJ,B6   GJA$DISOLVE_LGNUSR_CTX
          3 0006F2       0001                            DC       s:16862+12,PREL
          3 0006F3  0F81 04F1                            B        s:17200,PREL

      682    16863
      683    16864    5                    CASE (ELSE);

      684    16865    5                      CALL M$XXX;

  16865   3 0006F5  B870 0082                            LDR,R3   130,IMO
          3 0006F7  0001                                 MCL
          3 0006F8       0000                            DC       s:16865+3,PREL

      685    16866
      686    16867    5                      END;

PL6.E3A0      #001=GJA$ADMIN File=GJA$ADMIN.:E05TSI                              TUE 07/29/97 21:50 Page:103
  16867   3 0006F9  0F81 04EB                            B        s:17200,PREL

      687    16868
      688    16869
      689    16870        %EJECT;
PL6.E3A0      #001=GJA$ADMIN File=GJA$ADMIN.:E05TSI                              TUE 07/29/97 21:50 Page:104
      690    16871        /*   Send Data
      691    16872        */
      692    16873        /*
      693    16874          Branch out depending on the VDO type
      694    16875        */
      695    16876    4                 CASE(%KN_FCN_DATA);

      696    16877    4                   IF WHO ~= %GJA_UID_LOGON OR ~GJA$LGNCTX.STATUS.TERMACK

  16877   3 0006FB  C847 001D                            LDR,R4   WHO,AUTO
          3 0006FD  4D04                                 CMV,R4   4
          3 0006FE  0981 000A                            BNE      s:16879,PREL
          3 000700  9844 0018                            LDR,R1   24,B4
          3 000702  1003                                 SOL,R1   3
          3 000703  9570 8000                            AND,R1   -32768,IMO
          3 000705  9670 8000                            XOR,R1   -32768,IMO
          3 000707  1901 04DD                            BEZ,R1   s:17200,PREL

      697    16878    5                   THEN DO;

      698    16879    5                        VDO$ = PINCRW(MSG$,SIZEW(KNH$MESS));

  16879   3 000709  BBC5 0008                            LAB,B3   8,B5
          3 00070B  BFC7 002C                            STB,B3   VDO$,AUTO

      699    16880    5                        GJA$PARAMS='0'B;

  16880   3 00070D  5C2E                                 LDV,R5   46
          3 00070E  0021                                 ALR      ;
          3 00070F       4178 0000                                ALPHANUM('0000'X,IMO,,1),;
          3 000711       4007 0005                                ALPHANUM(GJA$PARAMS,AUTO,,R5,FILL)

      700    16881    5                        GJA$PARAMS.MSG$=MSG$;

  16881   3 000713  437F                                 CSYNC    s:16880+5,SPREL
          3 000714  DCC7 0020                            LDB,B5   MSG$,AUTO
          3 000716  DFC7 0005                            STB,B5   GJA$PARAMS,AUTO
PL6.E3A0      #001=GJA$ADMIN File=GJA$ADMIN.:E05TSI                              TUE 07/29/97 21:50 Page:105

      701    16882    5                        GJA$PARAMS.VDO$=VDO$;

  16882   3 000718  CCC7 002C                            LDB,B4   VDO$,AUTO
          3 00071A  CFC7 0007                            STB,B4   GJA$PARAMS+2,AUTO

      702    16883    6   VDOLOOP:             DO WHILE ('1'B);

  16883   3                              VDOLOOP         null
      703    16884    6                             VLP$=PINCRW(VDO$,(GJA_VDOBYTSIZ(KV$VDO.FNC)+1)/2);

  16884   3 00071C  ECC7 002C            VDOLOOP         LDB,B6   VDO$,AUTO
          3 00071E  B286                                 LLH,R3   ,B6
          3 00071F  E2B0 0000 0000  xsym                 LLH,R6   GJA_VDOBYTSIZ,R3
          3 000722  6E01                                 ADV,R6   1
          3 000723  6041                                 SOR,R6   1
          3 000724  F856                                 LDR,R7   R6
          3 000725  6C00                                 LDV,R6   0
          3 000726  8447 002C                            AID      VDO$,AUTO
          3 000728  8D47 002A                            SDI      VLP$,AUTO

      704    16885    6                             LAST = ~KV$VDO.VLP;

  16885   3 00072A  D806                                 LDR,R5   ,B6
          3 00072B  5008                                 SOL,R5   8
          3 00072C  D570 8000                            AND,R5   -32768,IMO
          3 00072E  D670 8000                            XOR,R5   -32768,IMO
          3 000730  DF47 0033                            STR,R5   LAST,AUTO

      705    16886    7   VLPLOOP:                  DO WHILE (~LAST);

  16886   3 000732  0F81 00B6            VLPLOOP         B        s:16949,PREL

      706    16887    8                                  DO CASE(KV$VDOVLP.TYP);

  16887   3 000734  ECC7 002A                            LDB,B6   VLP$,AUTO
          3 000736  B806                                 LDR,R3   ,B6
PL6.E3A0      #001=GJA$ADMIN File=GJA$ADMIN.:E05TSI                              TUE 07/29/97 21:50 Page:106
          3 000737  3048                                 SOR,R3   8
          3 000738  B570 007F                            AND,R3   127,IMO
          3 00073A  3D0C                                 CMV,R3   12
          3 00073B  0281 009B                            BGE      s:16943,PREL
          3 00073D  A830 0000 0743  03                   LDR,R2   s:16887+15,R3
          3 000740  83A0 0000 074F  03                   JMP      s:16890,R2
          3 000743       0088                            DC       s:16943,PREL
          3 000744       0072                            DC       s:16934,PREL
          3 000745       002A                            DC       s:16904,PREL
          3 000746       0033                            DC       s:16909,PREL
          3 000747       0000                            DC       s:16890,PREL
          3 000748       0016                            DC       s:16897,PREL
          3 000749       003C                            DC       s:16914,PREL
          3 00074A       0045                            DC       s:16919,PREL
          3 00074B       0054                            DC       s:16924,PREL
          3 00074C       0063                            DC       s:16929,PREL
          3 00074D       0088                            DC       s:16943,PREL
          3 00074E       0081                            DC       s:16939,PREL

      707    16888
      708    16889    8                                   CASE(%KV_VDOVLP_TYP_DAT1);

      709    16890    8                                     APP$ = PINCRW(VLP$,SIZEW(VLP$->KV$VDOVLP_DAT1));

  16890   3 00074F  DBC6 0001                            LAB,B5   1,B6
          3 000751  DFC7 0022                            STB,B5   APP$,AUTO

      710    16891    8                                     VLPSIZE=(VLP$->KV$VDOVLP_DAT1.BYTSIZ+1)/2;

  16891   3 000753  E806                                 LDR,R6   ,B6
          3 000754  E570 00FF                            AND,R6   255,IMO
          3 000756  6E01                                 ADV,R6   1
          3 000757  6041                                 SOR,R6   1
          3 000758  EF47 001C                            STR,R6   VLPSIZE,AUTO

      711    16892    8                                     GJA$PARAMS.DATVLP$=VLP$;

PL6.E3A0      #001=GJA$ADMIN File=GJA$ADMIN.:E05TSI                              TUE 07/29/97 21:50 Page:107
  16892   3 00075A  EFC7 0009                            STB,B6   GJA$PARAMS+4,AUTO

      712    16893    8                                     GJA$PARAMS.DAT$=APP$;

  16893   3 00075C  DFC7 000B                            STB,B5   GJA$PARAMS+6,AUTO

      713    16894    8                                     GJA$PARAMS.DATSIZE = VLP$->KV$VDOVLP_DAT1.BYTSIZ;

  16894   3 00075E  D806                                 LDR,R5   ,B6
          3 00075F  D570 00FF                            AND,R5   255,IMO
          3 000761  DF47 000D                            STR,R5   GJA$PARAMS+8,AUTO
          3 000763  0F81 0077                            B        s:16947,PREL

      714    16895
      715    16896    8                                   CASE(%KV_VDOVLP_TYP_DAT2);

      716    16897    8                                     APP$ = PINCRW(VLP$,SIZEW(VLP$->KV$VDOVLP_DAT2));

  16897   3 000765  DBC6 0002                            LAB,B5   2,B6
          3 000767  DFC7 0022                            STB,B5   APP$,AUTO

      717    16898    8                                     VLPSIZE=(VLP$->KV$VDOVLP_DAT2.BYTSIZ+1)/2;

  16898   3 000769  E846 0001                            LDR,R6   1,B6
          3 00076B  6E01                                 ADV,R6   1
          3 00076C  6041                                 SOR,R6   1
          3 00076D  EF47 001C                            STR,R6   VLPSIZE,AUTO

      718    16899    8                                     GJA$PARAMS.DATVLP$=VLP$;

  16899   3 00076F  EFC7 0009                            STB,B6   GJA$PARAMS+4,AUTO

      719    16900    8                                     GJA$PARAMS.DAT$=APP$;

  16900   3 000771  DFC7 000B                            STB,B5   GJA$PARAMS+6,AUTO

      720    16901    8                                     GJA$PARAMS.DATSIZE = VLP$->KV$VDOVLP_DAT2.BYTSIZ;
PL6.E3A0      #001=GJA$ADMIN File=GJA$ADMIN.:E05TSI                              TUE 07/29/97 21:50 Page:108

  16901   3 000773  D846 0001                            LDR,R5   1,B6
          3 000775  DF47 000D                            STR,R5   GJA$PARAMS+8,AUTO
          3 000777  0F81 0063                            B        s:16947,PREL

      721    16902
      722    16903    8                                   CASE(%KV_VDOVLP_TYP_CG_MSGTYP);

      723    16904    8                                     APP$=VLP$;

  16904   3 000779  EFC7 0022                            STB,B6   APP$,AUTO

      724    16905    8                                     VLPSIZE=SIZEW(VLP$->KV$VDOVLP_CG_MSGTYP);

  16905   3 00077B  6C06                                 LDV,R6   6
          3 00077C  EF47 001C                            STR,R6   VLPSIZE,AUTO

      725    16906    8                                     GJA$PARAMS.CG_MSGTYP$=VLP$;

  16906   3 00077E  EFC7 000E                            STB,B6   GJA$PARAMS+9,AUTO
          3 000780  0F81 005A                            B        s:16947,PREL

      726    16907
      727    16908    8                                   CASE(%KV_VDOVLP_TYP_CG_STA);

      728    16909    8                                     APP$=VLP$;

  16909   3 000782  EFC7 0022                            STB,B6   APP$,AUTO

      729    16910    8                                     VLPSIZE=SIZEW(VLP$->KV$VDOVLP_CG_STA);

  16910   3 000784  6C06                                 LDV,R6   6
          3 000785  EF47 001C                            STR,R6   VLPSIZE,AUTO

      730    16911    8                                     GJA$PARAMS.CG_STA$=VLP$;

  16911   3 000787  EFC7 0010                            STB,B6   GJA$PARAMS+11,AUTO
PL6.E3A0      #001=GJA$ADMIN File=GJA$ADMIN.:E05TSI                              TUE 07/29/97 21:50 Page:109
          3 000789  0F81 0051                            B        s:16947,PREL

      731    16912
      732    16913    8                                   CASE(%KV_VDOVLP_TYP_ERR);

      733    16914    8                                     APP$=VLP$;

  16914   3 00078B  EFC7 0022                            STB,B6   APP$,AUTO

      734    16915    8                                     VLPSIZE=SIZEW(VLP$->KV$VDOVLP_ERR);

  16915   3 00078D  6C03                                 LDV,R6   3
          3 00078E  EF47 001C                            STR,R6   VLPSIZE,AUTO

      735    16916    8                                     GJA$PARAMS.ERR$=VLP$;

  16916   3 000790  EFC7 0014                            STB,B6   GJA$PARAMS+15,AUTO
          3 000792  0F81 0048                            B        s:16947,PREL

      736    16917
      737    16918    8                                   CASE(%KV_VDOVLP_TYP_FLDID);

      738    16919    8                                     APP$=PINCRW(VLP$,SIZEW(VLP$->KV$VDOVLP_FLDID));

  16919   3 000794  DBC6 0002                            LAB,B5   2,B6
          3 000796  DFC7 0022                            STB,B5   APP$,AUTO

      739    16920    8                                     VLPSIZE=(VLP$->KV$VDOVLP_FLDID.BYTSIZ+1)/2;

  16920   3 000798  E806                                 LDR,R6   ,B6
          3 000799  E570 00FF                            AND,R6   255,IMO
          3 00079B  6E01                                 ADV,R6   1
          3 00079C  6041                                 SOR,R6   1
          3 00079D  EF47 001C                            STR,R6   VLPSIZE,AUTO

      740    16921    8                                     GJA$PARAMS.FLDID$=VLP$;

PL6.E3A0      #001=GJA$ADMIN File=GJA$ADMIN.:E05TSI                              TUE 07/29/97 21:50 Page:110
  16921   3 00079F  EFC7 0016                            STB,B6   GJA$PARAMS+17,AUTO
          3 0007A1  0F81 0039                            B        s:16947,PREL

      741    16922
      742    16923    8                                   CASE(%KV_VDOVLP_TYP_KEY);

      743    16924    8                                     APP$=PINCRW(VLP$,SIZEW(VLP$->KV$VDOVLP_KEY));

  16924   3 0007A3  DBC6 0001                            LAB,B5   1,B6
          3 0007A5  DFC7 0022                            STB,B5   APP$,AUTO

      744    16925    8                                     VLPSIZE=(VLP$->KV$VDOVLP_KEY.BYTSIZ+1)/2;

  16925   3 0007A7  E806                                 LDR,R6   ,B6
          3 0007A8  E570 00FF                            AND,R6   255,IMO
          3 0007AA  6E01                                 ADV,R6   1
          3 0007AB  6041                                 SOR,R6   1
          3 0007AC  EF47 001C                            STR,R6   VLPSIZE,AUTO

      745    16926    8                                     GJA$PARAMS.KEY$=VLP$;

  16926   3 0007AE  EFC7 0018                            STB,B6   GJA$PARAMS+19,AUTO
          3 0007B0  0F81 002A                            B        s:16947,PREL

      746    16927
      747    16928    8                                   CASE(%KV_VDOVLP_TYP_MRK);

      748    16929    8                                     GJA$PARAMS.MRK$=VLP$;

  16929   3 0007B2  EFC7 001A                            STB,B6   GJA$PARAMS+21,AUTO

      749    16930    8                                     APP$=PINCRW(VLP$,SIZEW(VLP$->KV$VDOVLP_MRK));

  16930   3 0007B4  DBC6 0004                            LAB,B5   4,B6
          3 0007B6  DFC7 0022                            STB,B5   APP$,AUTO

      750    16931    8                                     VLPSIZE=(VLP$->KV$VDOVLP_MRK.BYTSIZ+1)/2;
PL6.E3A0      #001=GJA$ADMIN File=GJA$ADMIN.:E05TSI                              TUE 07/29/97 21:50 Page:111

  16931   3 0007B8  E806                                 LDR,R6   ,B6
          3 0007B9  E570 00FF                            AND,R6   255,IMO
          3 0007BB  6E01                                 ADV,R6   1
          3 0007BC  6041                                 SOR,R6   1
          3 0007BD  EF47 001C                            STR,R6   VLPSIZE,AUTO
          3 0007BF  0F81 001B                            B        s:16947,PREL

      751    16932
      752    16933    8                                   CASE(%KV_VDOVLP_TYP_CG_MSGID);

      753    16934    8                                    APP$=PINCRW(VLP$,SIZEW(VLP$->KV$VDOVLP_CG_MSGID));

  16934   3 0007C1  DBC6 0006                            LAB,B5   6,B6
          3 0007C3  DFC7 0022                            STB,B5   APP$,AUTO

      754    16935    8                                     VLPSIZE=(VLP$->KV$VDOVLP_CG_MSGID.BYTSIZ+1)/2;

  16935   3 0007C5  E806                                 LDR,R6   ,B6
          3 0007C6  E570 00FF                            AND,R6   255,IMO
          3 0007C8  6E01                                 ADV,R6   1
          3 0007C9  6041                                 SOR,R6   1
          3 0007CA  EF47 001C                            STR,R6   VLPSIZE,AUTO

      755    16936    8                                     GJA$PARAMS.CG_MSGID$=VLP$;

  16936   3 0007CC  EFC7 0012                            STB,B6   GJA$PARAMS+13,AUTO
          3 0007CE  0F81 000C                            B        s:16947,PREL

      756    16937
      757    16938    8                                   CASE(%KV_VDOVLP_TYP_ACTPOS);

      758    16939    8                                     APP$=VLP$;

  16939   3 0007D0  EFC7 0022                            STB,B6   APP$,AUTO

      759    16940    8                                     VLPSIZE=SIZEW(VLP$->KV$VDOVLP_ACTPOS);
PL6.E3A0      #001=GJA$ADMIN File=GJA$ADMIN.:E05TSI                              TUE 07/29/97 21:50 Page:112

  16940   3 0007D2  6C02                                 LDV,R6   2
          3 0007D3  EF47 001C                            STR,R6   VLPSIZE,AUTO
          3 0007D5  0F81 0005                            B        s:16947,PREL

      760    16941
      761    16942    8                                   CASE(ELSE);

      762    16943    8                                     CALL M$XXX;

  16943   3 0007D7  B870 0082                            LDR,R3   130,IMO
          3 0007D9  0001                                 MCL
          3 0007DA       0000                            DC       s:16943+3,PREL

      763    16944    8                                     END;  /* VLP CASE                 */

      764    16945
      765    16946
      766    16947    7                                  LAST = KV$VDOVLP.LST;

  16947   3 0007DB  ECC7 002A                            LDB,B6   VLP$,AUTO
          3 0007DD  E806                                 LDR,R6   ,B6
          3 0007DE  E570 8000                            AND,R6   -32768,IMO
          3 0007E0  EF47 0033                            STR,R6   LAST,AUTO

      767    16948    7                                  VLP$=PINCRW(APP$,VLPSIZE);

  16948   3 0007E2  F847 001C                            LDR,R7   VLPSIZE,AUTO
          3 0007E4  6C00                                 LDV,R6   0
          3 0007E5  8447 0022                            AID      APP$,AUTO
          3 0007E7  8D47 002A                            SDI      VLP$,AUTO

      768    16949    7                                  END;     /* VLP LOOP                 */

  16949   3 0007E9  D847 0033                            LDR,R5   LAST,AUTO
          3 0007EB  D570 8000                            AND,R5   -32768,IMO
          3 0007ED  D670 8000                            XOR,R5   -32768,IMO
PL6.E3A0      #001=GJA$ADMIN File=GJA$ADMIN.:E05TSI                              TUE 07/29/97 21:50 Page:113
          3 0007EF  5981 FF44                            BNEZ,R5  s:16887,PREL

      769    16950        %EJECT;
PL6.E3A0      #001=GJA$ADMIN File=GJA$ADMIN.:E05TSI                              TUE 07/29/97 21:50 Page:114
      770    16951        /* If there was a marker on the message send it now */
      771    16952    6                             IF GJA$PARAMS.MRK$ ~= ADDR(NIL) AND GJA$PARAMS.MRK$->
             16952                                      KV$VDOVLP_MRK.MRKTYP ~= 0

  16952   3 0007F1  8DC7 001A                            CMN      GJA$PARAMS+21,AUTO
          3 0007F3  0901 0035                            BE       s:16962,PREL
          3 0007F5  ECC7 001A                            LDB,B6   GJA$PARAMS+21,AUTO
          3 0007F7  82C6 0001                            LB,'00FF'X        1,B6
          3 0007F9       00FF
          3 0007FA  0581 002E                            BBF      s:16962,PREL
          3 0007FC  DCC7 002C                            LDB,B5   VDO$,AUTO
          3 0007FE  D285                                 LLH,R5   ,B5
          3 0007FF  5D1F                                 CMV,R5   31
          3 000800  0901 0028                            BE       s:16962,PREL

      772    16953    6                               AND KV$VDO.FNC ~= %KV_VDO_FNC_MRK
      773    16954    7                             THEN DO;

      774    16955    7                                  GJA_VDO_MRK.MRK.MRKTYP = GJA$PARAMS.MRK$->
             16955                                           KV$VDOVLP_MRK.MRKTYP;

  16955   3 000802  C846 0001                            LDR,R4   1,B6
          3 000804  CA80 0000 0002  xsym                 SRM,R4,'00FF'X    GJA_VDO_MRK+2
          3 000807       00FF

      775    16956    7                                  GJA_VDO_MRK.MRK.ID = GJA$PARAMS.MRK$->KV$VDOVLP_MRK.
             16956                                           ID;

  16956   3 000808  8CC6 0002                            LDI      2,B6
          3 00080A  8D00 0000 0003  xsym                 SDI      GJA_VDO_MRK+3

      776    16957    7                                  CALL GJA$Q_MSG (KNH$MESS.UID$,SIZEC(GJA_VDO_MRK),
             16957                                           GJA_VDO_MRK);

  16957   3 00080D  CBF0 000A                            LAB,B4   10,IMO
          3 00080F  BB80 0000 0000  xsym                 LAB,B3   GJA_VDO_MRK
          3 000812  BFC7 0046                            STB,B3   NMAVAIL+5,AUTO
PL6.E3A0      #001=GJA$ADMIN File=GJA$ADMIN.:E05TSI                              TUE 07/29/97 21:50 Page:115
          3 000814  CFC7 0044                            STB,B4   NMAVAIL+3,AUTO
          3 000816  ACC7 0020                            LDB,B2   MSG$,AUTO
          3 000818  9BC2 0002                            LAB,B1   2,B2
          3 00081A  9FC7 0042                            STB,B1   NMAVAIL+1,AUTO
          3 00081C  BBC7 0042                            LAB,B3   NMAVAIL+1,AUTO
          3 00081E  CBF0 0300                            LAB,B4   768,IMO
          3 000820  E380 0000 0000  xent                 LNJ,B6   GJA$Q_MSG
          3 000823       0001                            DC       s:16958,PREL

      777    16958    7                                  GJA$PARAMS.MRK$->KV$VDOVLP_MRK.MRKTYP = 0;

  16958   3 000824  ECC7 001A                            LDB,B6   GJA$PARAMS+21,AUTO
          3 000826  8846 0001                            LBF,'00FF'X       1,B6
          3 000828       00FF

      778    16959    7                                  END;

      779    16960
      780    16961
      781    16962    7                             DO CASE(KV$VDO.FNC); /* VDO CASE          */

  16962   3 000829  ECC7 002C                            LDB,B6   VDO$,AUTO
          3 00082B  B286                                 LLH,R3   ,B6
          3 00082C  3D19                                 CMV,R3   25
          3 00082D  0281 039A                            BGE      s:17186,PREL
          3 00082F  A830 0000 0835  03                   LDR,R2   s:16962+12,R3
          3 000832  83A0 0000 084E  03                   JMP      s:16967,R2
          3 000835       037A                            DC       s:17186,PREL
          3 000836       037A                            DC       s:17186,PREL
          3 000837       004F                            DC       s:16986,PREL
          3 000838       037A                            DC       s:17186,PREL
          3 000839       037A                            DC       s:17186,PREL
          3 00083A       02B1                            DC       s:17135,PREL
          3 00083B       037A                            DC       s:17186,PREL
          3 00083C       037A                            DC       s:17186,PREL
          3 00083D       037A                            DC       s:17186,PREL
          3 00083E       037A                            DC       s:17186,PREL
PL6.E3A0      #001=GJA$ADMIN File=GJA$ADMIN.:E05TSI                              TUE 07/29/97 21:50 Page:116
          3 00083F       0332                            DC       s:17162,PREL
          3 000840       037A                            DC       s:17186,PREL
          3 000841       037A                            DC       s:17186,PREL
          3 000842       0000                            DC       s:16967,PREL
          3 000843       037A                            DC       s:17186,PREL
          3 000844       037A                            DC       s:17186,PREL
          3 000845       001A                            DC       s:16978,PREL
          3 000846       037A                            DC       s:17186,PREL
          3 000847       037A                            DC       s:17186,PREL
          3 000848       037A                            DC       s:17186,PREL
          3 000849       037A                            DC       s:17186,PREL
          3 00084A       037A                            DC       s:17186,PREL
          3 00084B       0057                            DC       s:16992,PREL
          3 00084C       037A                            DC       s:17186,PREL
          3 00084D       01A9                            DC       s:17074,PREL

      782    16963        /*
      783    16964          FNC = Event
      784    16965         */
      785    16966    7                              CASE (%KV_VDO_FNC_EVT);

      786    16967    7                                IF KNH$MESS.UID$->GJA$LGNCTX.STATUS.RDPND

  16967   3 00084E  DCC7 0020                            LDB,B5   MSG$,AUTO
          3 000850  CCC5 0002                            LDB,B4   2,B5
          3 000852  82C4 0018                            LB,'0080'X        24,B4
          3 000854       0080
          3 000855  0581 0372                            BBF      s:17186,PREL

      787    16968    8                                THEN DO;

      788    16969    8                                     KNH$MESS.UID$->GJA$LGNCTX.STATUS.RDPND = '0'B;

  16969   3 000857  8844 0018                            LBF,'0080'X       24,B4
  16969   3 000859       0080

      789    16970    8                                     CALL GJA$SOLICIT_LOGON(KNH$MESS.UID$);
PL6.E3A0      #001=GJA$ADMIN File=GJA$ADMIN.:E05TSI                              TUE 07/29/97 21:50 Page:117

  16970   3 00085A  CBC5 0002                            LAB,B4   2,B5
          3 00085C  CFC7 0042                            STB,B4   NMAVAIL+1,AUTO
          3 00085E  BBC7 0042                            LAB,B3   NMAVAIL+1,AUTO
          3 000860  CBF0 0100                            LAB,B4   256,IMO
          3 000862  E380 0000 0000  xent                 LNJ,B6   GJA$SOLICIT_LOGON
          3 000865       0001                            DC       s:16971,PREL

      790    16971    8                                     END;

  16971   3 000866  0F81 0361                            B        s:17186,PREL

      791    16972        /*
      792    16973          FNC = Open session request
      793    16974          FNC = Block data (for flow control)
      794    16975
      795    16976          Send a read response to set throttle
      796    16977        */
      797    16978    7                              CASE(%KV_VDO_FNC_OPNSSN_RQS);

      798    16979    7   UN_FLOW:                     KV@VDO_RQSDAT=KV_VDO_RQSDAT;

  16979   3 000868  AB80 0000 0000  01   UN_FLOW         LAB,B2   PRIVS
          3 00086B  2C06                                 LDV,R2   6
          3 00086C  6C0A                                 LDV,R6   10
          3 00086D  BB87                                 LAB,B3   ,AUTO
          3 00086E  3C6C                                 LDV,R3   108
          3 00086F  0008                                 MMM

      799    16980    7                                CALL GJA$Q_MSG(KNH$MESS.UID,SIZEC(

  16980   3 000870  EBF0 000A                            LAB,B6   10,IMO
          3 000872  DBC7 0036                            LAB,B5   KV@VDO_RQSDAT,AUTO
          3 000874  DFC7 0046                            STB,B5   NMAVAIL+5,AUTO
          3 000876  EFC7 0044                            STB,B6   NMAVAIL+3,AUTO
          3 000878  CCC7 0020                            LDB,B4   MSG$,AUTO
          3 00087A  ABC4 0002                            LAB,B2   2,B4
PL6.E3A0      #001=GJA$ADMIN File=GJA$ADMIN.:E05TSI                              TUE 07/29/97 21:50 Page:118
          3 00087C  AFC7 0042                            STB,B2   NMAVAIL+1,AUTO
          3 00087E  BBC7 0042                            LAB,B3   NMAVAIL+1,AUTO
          3 000880  CBF0 0300                            LAB,B4   768,IMO
          3 000882  E380 0000 0000  xent                 LNJ,B6   GJA$Q_MSG
          3 000885       0001                            DC       s:16982,PREL

      800    16981    7                                  KV$VDO_RQSDAT),KV@VDO_RQSDAT);
      801    16982    7                                IF CTX$ ~= ADDR(NIL) AND WHO = %GJA_UID_HANDLER

  16982   3 000886  8DC7 0026                            CMN      CTX$,AUTO
          3 000888  0901 033F                            BE       s:17186,PREL
          3 00088A  E847 001D                            LDR,R6   WHO,AUTO
          3 00088C  6D03                                 CMV,R6   3
          3 00088D  0981 033A                            BNE      s:17186,PREL
          3 00088F  ECC7 0026                            LDB,B6   CTX$,AUTO
          3 000891  82C6 000D                            LB,'1000'X        13,B6
          3 000893       1000
          3 000894  0501 0333                            BBT      s:17186,PREL

      802    16983    7                                  AND NOT CTX$->GJA$HAND_CTX.BLK THEN
      803    16984    7                                     CTX$->GJA$HAND_CTX.RDSOUT = GJA_MAXRDS;

  16984   3 000896  D800 0000 0000  xsym                 LDR,R5   GJA_MAXRDS
          3 000899  DF46 0006                            STR,R5   6,B6
          3 00089B  0F81 032C                            B        s:17186,PREL

      804    16985    7                              CASE(%KV_VDO_FNC_BLKDAT);

      805    16986    7                                IF NOT GJA$HAND_CTX.BLK

  16986   3 00089D  DCC7 0026                            LDB,B5   CTX$,AUTO
          3 00089F  82C5 000D                            LB,'1000'X        13,B5
          3 0008A1       1000
          3 0008A2  05C6                                 BBF      s:16978,SPREL
          3 0008A3  0F81 0324                            B        s:17186,PREL

      806    16987    7                                THEN GOTO UN_FLOW;
PL6.E3A0      #001=GJA$ADMIN File=GJA$ADMIN.:E05TSI                              TUE 07/29/97 21:50 Page:119
      807    16988        /*
      808    16989          FNC = Request Data
      809    16990        */
      810    16991    7                              CASE(%KV_VDO_FNC_RQSDAT);

      811    16992    7                                IF KV$VDO_RQSDAT.EOFNO_DAT AND GJA$HAND_CTX.
             16992                                         WAITING_MSG$ = ADDR(NIL)

  16992   3 0008A5  82C6 0004                            LB,'0400'X        4,B6
  16992   3 0008A7       0400
          3 0008A8  0581 001E                            BBF      s:16997,PREL
          3 0008AA  DCC7 0026                            LDB,B5   CTX$,AUTO
          3 0008AC  8DC5 0007                            CMN      7,B5
          3 0008AE  0981 0018                            BNE      s:16997,PREL

      812    16993    8                                THEN DO;

      813    16994    8                                     CALL GJA$Q_MSG(CTX$,SIZEC(VDO_NODAT),VDO_NODAT);

  16994   3 0008B0  CBF0 000A                            LAB,B4   10,IMO
          3 0008B2  BB80 0000 0008  01                   LAB,B3   VDO_NODAT
          3 0008B5  BFC7 0046                            STB,B3   NMAVAIL+5,AUTO
          3 0008B7  CFC7 0044                            STB,B4   NMAVAIL+3,AUTO
          3 0008B9  ABC7 0026                            LAB,B2   CTX$,AUTO
          3 0008BB  AFC7 0042                            STB,B2   NMAVAIL+1,AUTO
          3 0008BD  BBC7 0042                            LAB,B3   NMAVAIL+1,AUTO
          3 0008BF  CBF0 0300                            LAB,B4   768,IMO
          3 0008C1  E380 0000 0000  xent                 LNJ,B6   GJA$Q_MSG
          3 0008C4       0001                            DC       s:16995,PREL

      814    16995    8                                     END;

  16995   3 0008C5  0F81 00C6                            B        s:17040,PREL

      815    16996    8                                ELSE DO;

      816    16997    8                                     IF KV$VDO_RQSDAT.INCMAXNMBBYT
PL6.E3A0      #001=GJA$ADMIN File=GJA$ADMIN.:E05TSI                              TUE 07/29/97 21:50 Page:120

  16997   3 0008C7  82C6 0004                            LB,'4000'X        4,B6
  16997   3 0008C9       4000
          3 0008CA  0581 000B                            BBF      s:16999,PREL

      817    16998    8                                     THEN GJA$HAND_CTX.MAXNMBBYT = GJA$HAND_CTX.
             16998                                              MAXNMBBYT + KV$VDO_RQSDAT.MAXNMBBYT;

  16998   3 0008CC  DCC7 0026                            LDB,B5   CTX$,AUTO
          3 0008CE  E845 0005                            LDR,R6   5,B5
          3 0008D0  EA46 0003                            ADD,R6   3,B6
          3 0008D2  EF45 0005                            STR,R6   5,B5
          3 0008D4  0F81 0007                            B        s:17002,PREL

      818    16999    8                                     ELSE GJA$HAND_CTX.MAXNMBBYT = KV$VDO_RQSDAT.
             16999                                              MAXNMBBYT;

  16999   3 0008D6  DCC7 0026                            LDB,B5   CTX$,AUTO
          3 0008D8  E846 0003                            LDR,R6   3,B6
          3 0008DA  EF45 0005                            STR,R6   5,B5

      819    17000        /* Check to see if we are incrementing.
      820    17001        */
      821    17002    8                                     IF KV$VDO_RQSDAT.INCMAXNMBRCR

  17002   3 0008DC  89C6 0004                            CMZ      4,B6
          3 0008DE  0881 000B                            BAGE     s:17004,PREL

      822    17003    8                                     THEN GJA$HAND_CTX.MAXNMBRCR = GJA$HAND_CTX.
             17003                                              MAXNMBRCR + KV$VDO_RQSDAT.MAXNMBRCR;

  17003   3 0008E0  DCC7 0026                            LDB,B5   CTX$,AUTO
          3 0008E2  E845 0004                            LDR,R6   4,B5
          3 0008E4  EA46 0002                            ADD,R6   2,B6
          3 0008E6  EF45 0004                            STR,R6   4,B5
          3 0008E8  0F81 0007                            B        s:17005,PREL

PL6.E3A0      #001=GJA$ADMIN File=GJA$ADMIN.:E05TSI                              TUE 07/29/97 21:50 Page:121
      823    17004    8                                     ELSE GJA$HAND_CTX.MAXNMBRCR = KV$VDO_RQSDAT.
             17004                                              MAXNMBRCR;

  17004   3 0008EA  DCC7 0026                            LDB,B5   CTX$,AUTO
          3 0008EC  E846 0002                            LDR,R6   2,B6
          3 0008EE  EF45 0004                            STR,R6   4,B5

      824    17005    8                                     GJA$HAND_CTX.MAXRCRBYTSIZ = KV$VDO_RQSDAT.
             17005                                              MAXRCRBYTSIZ;

  17005   3 0008F0  DCC7 0026                            LDB,B5   CTX$,AUTO
          3 0008F2  E846 0001                            LDR,R6   1,B6
          3 0008F4  EF45 0003                            STR,R6   3,B5

      825    17006        /* Send any messages waiting.
      826    17007        */
      827    17008    8                                     MSGWTSIZE = 0;

  17008   3 0008F6  8747 003C                            CL       MSGWTSIZE,AUTO

      828    17009    9                                     DO WHILE (GJA$HAND_CTX.WAITING_MSG$~=ADDR(NIL));

  17009   3 0008F8  0F81 008D                            B        s:17038,PREL

      829    17010    9                                          SVMSG$=GJA$HAND_CTX.WAITING_MSG$;

  17010   3 0008FA  ECC7 0026                            LDB,B6   CTX$,AUTO
          3 0008FC  DCC6 0007                            LDB,B5   7,B6
          3 0008FE  DFC7 0028                            STB,B5   SVMSG$,AUTO

      830    17011    9                                          IF SVMSG$->SV$MSG.SZ > GJA$HAND_CTX.
             17011                                                   MAXRCRBYTSIZ AND

  17011   3 000900  E845 0003                            LDR,R6   3,B5
          3 000902  E946 0003                            CMR,R6   3,B6
          3 000904  0381 001E                            BLE      s:17018,PREL
          3 000906  D846 0004                            LDR,R5   4,B6
PL6.E3A0      #001=GJA$ADMIN File=GJA$ADMIN.:E05TSI                              TUE 07/29/97 21:50 Page:122
          3 000908  5901 001A                            BEZ,R5   s:17018,PREL

      831    17012    9                                            GJA$HAND_CTX.MAXNMBRCR > 0 THEN
      832    17013   10                                          DO;

      833    17014   10                                               GJA$HAND_CTX.MAXNMBRCR = GJA$HAND_CTX.
             17014                                                        MAXNMBRCR-1;

  17014   3 00090A  88C6 0004                            DEC      4,B6

      834    17015   10                                               CALL GJA$Q_MSG(CTX$,LENGTHC(GJA_LDDAT),
             17015                                                        GJA_LDDAT);

  17015   3 00090C  EBF0 000A                            LAB,B6   10,IMO
          3 00090E  DB80 0000 0000  xsym                 LAB,B5   GJA_LDDAT
          3 000911  DFC7 0046                            STB,B5   NMAVAIL+5,AUTO
          3 000913  EFC7 0044                            STB,B6   NMAVAIL+3,AUTO
          3 000915  CBC7 0026                            LAB,B4   CTX$,AUTO
          3 000917  CFC7 0042                            STB,B4   NMAVAIL+1,AUTO
          3 000919  BBC7 0042                            LAB,B3   NMAVAIL+1,AUTO
          3 00091B  CBF0 0300                            LAB,B4   768,IMO
          3 00091D  E380 0000 0000  xent                 LNJ,B6   GJA$Q_MSG
          3 000920       0001                            DC       s:17016,PREL

      835    17016   10                                               EXIT;

  17016   3 000921  0F81 0001                            B        s:17018,PREL

      836    17017   10                                               END; /* MAXNMBRCR>0*/
      837    17018    9                                         IF SVMSG$->SV$MSG.SZ > GJA$HAND_CTX.MAXNMBBYT
             17018                                                   OR

  17018   3 000923  ECC7 0028                            LDB,B6   SVMSG$,AUTO
          3 000925  DCC7 0026                            LDB,B5   CTX$,AUTO
          3 000927  E846 0003                            LDR,R6   3,B6
          3 000929  E945 0005                            CMR,R6   5,B5
          3 00092B  0301 0060                            BG       s:17040,PREL
PL6.E3A0      #001=GJA$ADMIN File=GJA$ADMIN.:E05TSI                              TUE 07/29/97 21:50 Page:123
          3 00092D  E945 0003                            CMR,R6   3,B5
          3 00092F  0301 005C                            BG       s:17040,PREL
          3 000931  D845 0004                            LDR,R5   4,B5
          3 000933  5901 0058                            BEZ,R5   s:17040,PREL

      838    17019    9                                            SVMSG$->SV$MSG.SZ > GJA$HAND_CTX.
             17019                                                     MAXRCRBYTSIZ OR
      839    17020    9                                            GJA$HAND_CTX.MAXNMBRCR = 0 THEN
      840    17021    9                                               EXIT;
      841    17022
      842    17023    9                                          SIZE = SVMSG$->SV$MSG.SZ;

  17023   3 000935  EF47 0032                            STR,R6   SIZE,AUTO

      843    17024    9                                          IF SVMSG$->SV$MSG.VFC ~= BINASC(0)

  17024   3 000937  D0C6 0004                            LDH,R5   4,B6
          3 000939  5D00                                 CMV,R5   0
          3 00093A  0901 000B                            BE       s:17029,PREL

      844    17025   10                                          THEN DO;

      845    17026   10                                               GJA_VDO_DAT_DAT2.DATCTRCHRTYP = %
             17026                                                        KV_DATCTRCHRTYP_VFC;

  17026   3 00093C  C870 0800                            LDR,R4   2048,IMO
          3 00093E  CA80 0000 0001  xsym                 SRM,R4,'0C00'X    GJA_VDO_DAT_DAT2+1
          3 000941       0C00

      846    17027   10                                               GJA_VDO_DAT_DAT2.DATCTRCHR = SVMSG$->
             17027                                                        SV$MSG.VFC;

  17027   3 000942  DA80 0000 0001  xsym                 SRM,R5,'00FF'X    GJA_VDO_DAT_DAT2+1
  17027   3 000945       00FF

      847    17028   10                                               END;

PL6.E3A0      #001=GJA$ADMIN File=GJA$ADMIN.:E05TSI                              TUE 07/29/97 21:50 Page:124
      848    17029    9                                          SVMSG$=PINCRW(SVMSG$,SIZEW(SV$MSG));

  17029   3 000946  CBC6 0005                            LAB,B4   5,B6
          3 000948  CFC7 0028                            STB,B4   SVMSG$,AUTO

      849    17030    9                                          CALL GJA$WRITE(CTX$,SIZE,SVMSG$->STRING);

  17030   3 00094A  CFC7 0046                            STB,B4   NMAVAIL+5,AUTO
          3 00094C  EBC7 0032                            LAB,B6   SIZE,AUTO
          3 00094E  EFC7 0044                            STB,B6   NMAVAIL+3,AUTO
          3 000950  BBC7 0026                            LAB,B3   CTX$,AUTO
          3 000952  BFC7 0042                            STB,B3   NMAVAIL+1,AUTO
          3 000954  BBC7 0042                            LAB,B3   NMAVAIL+1,AUTO
          3 000956  CBF0 0300                            LAB,B4   768,IMO
          3 000958  E380 0000 0000  xent                 LNJ,B6   GJA$WRITE
          3 00095B       0001                            DC       s:17031,PREL

      850    17031    9                                          GJA_VDO_DAT_DAT2.DATCTRCHRTYP = %
             17031                                                   KV_DATCTRCHRTYP_NON;

  17031   3 00095C  8800 0000 0001  xsym                 LBF,'0C00'X       GJA_VDO_DAT_DAT2+1
  17031   3 00095F       0C00

      851    17032    9                                          GJA$HAND_CTX.MAXNMBRCR = GJA$HAND_CTX.
             17032                                                   MAXNMBRCR - 1;

  17032   3 000960  ECC7 0026                            LDB,B6   CTX$,AUTO
          3 000962  88C6 0004                            DEC      4,B6

      852    17033    9                                          GJA$HAND_CTX.MAXNMBBYT = GJA$HAND_CTX.
             17033                                                   MAXNMBBYT - SIZE;

  17033   3 000964  ECC7 0026                            LDB,B6   CTX$,AUTO
          3 000966  E846 0005                            LDR,R6   5,B6
          3 000968  E247 0032                            SUB,R6   SIZE,AUTO
          3 00096A  EF46 0005                            STR,R6   5,B6

PL6.E3A0      #001=GJA$ADMIN File=GJA$ADMIN.:E05TSI                              TUE 07/29/97 21:50 Page:125
      853    17034    9                                          SVMSG$ = GJA$HAND_CTX.WAITING_MSG$;

  17034   3 00096C  ECC7 0026                            LDB,B6   CTX$,AUTO
          3 00096E  DCC6 0007                            LDB,B5   7,B6
          3 000970  DFC7 0028                            STB,B5   SVMSG$,AUTO

      854    17035    9                                          MSGWTSIZE = MSGWTSIZE + SVMSG$->SV$MSG.SZ;

  17035   3 000972  E847 003C                            LDR,R6   MSGWTSIZE,AUTO
          3 000974  EA45 0003                            ADD,R6   3,B5
          3 000976  EF47 003C                            STR,R6   MSGWTSIZE,AUTO

      855    17036    9                                          GJA$HAND_CTX.WAITING_MSG$ = GJA$HAND_CTX.
             17036                                                   WAITING_MSG$->SV$MSG.LNK$;

  17036   3 000978  CCC6 0007                            LDB,B4   7,B6
          3 00097A  BCC4 0001                            LDB,B3   1,B4
          3 00097C  BFC6 0007                            STB,B3   7,B6

      856    17037    9                                          CALL KVB$RLSSYS(SVMSG$->SV$MSG);

  17037   3 00097E  BBC7 0028                            LAB,B3   SVMSG$,AUTO
          3 000980  CBF0 0100                            LAB,B4   256,IMO
          3 000982  E380 0000 0000  xent                 LNJ,B6   KVB$RLSSYS
          3 000985       0001                            DC       s:17038,PREL

      857    17038    9                                          END;

  17038   3 000986  ECC7 0026                            LDB,B6   CTX$,AUTO
          3 000988  8DC6 0007                            CMN      7,B6
          3 00098A  0981 FF6F                            BNE      s:17010,PREL

      858    17039    8                                     END;

      859    17040    7                                IF CTX$ = GJA_UID_NM$ AND MSGWTSIZE > 0

  17040   3 00098C  ECC7 0026                            LDB,B6   CTX$,AUTO
PL6.E3A0      #001=GJA$ADMIN File=GJA$ADMIN.:E05TSI                              TUE 07/29/97 21:50 Page:126
          3 00098E  ED80 0000 0000  xsym                 CMB,B6   GJA_UID_NM
          3 000991  0981 0236                            BNE      s:17186,PREL
          3 000993  E847 003C                            LDR,R6   MSGWTSIZE,AUTO
          3 000995  6901 0232                            BEZ,R6   s:17186,PREL

      860    17041    8                                THEN DO;

      861    17042    8                                     MSGWTSIZE = 0;

  17042   3 000997  8747 003C                            CL       MSGWTSIZE,AUTO

      862    17043        /*
      863    17044                how many bytes are left to send?
      864    17045        */
      865    17046    8                                     IF CTX$->GJA$HAND_CTX.WAITING_MSG$ ~= ADDR(NIL)

  17046   3 000999  8DC6 0007                            CMN      7,B6
          3 00099B  0901 001A                            BE       s:17055,PREL

      866    17047    9                                     THEN DO;

      867    17048    9                                         MSGWTSIZE = CTX$->GJA$HAND_CTX.WAITING_MSG$->
             17048                                                   SV$MSG.SZ;

  17048   3 00099D  DCC6 0007                            LDB,B5   7,B6
          3 00099F  E845 0003                            LDR,R6   3,B5
          3 0009A1  EF47 003C                            STR,R6   MSGWTSIZE,AUTO

      868    17049    9                                          SVMSG$ = CTX$->GJA$HAND_CTX.WAITING_MSG$;

  17049   3 0009A3  DFC7 0028                            STB,B5   SVMSG$,AUTO

      869    17050   10                                          DO WHILE (SVMSG$->SV$MSG.LNK$ ~= ADDR(NIL));

  17050   3 0009A5  0F81 000D                            B        s:17053,PREL

      870    17051   10                                               SVMSG$ = SVMSG$->SV$MSG.LNK$;
PL6.E3A0      #001=GJA$ADMIN File=GJA$ADMIN.:E05TSI                              TUE 07/29/97 21:50 Page:127

  17051   3 0009A7  ECC7 0028                            LDB,B6   SVMSG$,AUTO
          3 0009A9  DCC6 0001                            LDB,B5   1,B6
          3 0009AB  DFC7 0028                            STB,B5   SVMSG$,AUTO

      871    17052   10                                               MSGWTSIZE = MSGWTSIZE + SVMSG$->SV$MSG.
             17052                                                        SZ;

  17052   3 0009AD  E847 003C                            LDR,R6   MSGWTSIZE,AUTO
          3 0009AF  EA45 0003                            ADD,R6   3,B5
          3 0009B1  EF47 003C                            STR,R6   MSGWTSIZE,AUTO

      872    17053   10                                               END; /* svmsg.lnk$ ~= addr(nil)*/

  17053   3 0009B3  8DC5 0001                            CMN      1,B5
          3 0009B5  09F2                                 BNE      s:17051,SPREL

      873    17054    9                                          END; /* msg$ ~= addr(nil)    */

      874    17055    8                                     KV@VDO_RQSDAT = KV_VDO_RQSDAT;

  17055   3 0009B6  AB80 0000 0000  01                   LAB,B2   PRIVS
          3 0009B9  2C06                                 LDV,R2   6
          3 0009BA  6C0A                                 LDV,R6   10
          3 0009BB  BB87                                 LAB,B3   ,AUTO
          3 0009BC  3C6C                                 LDV,R3   108
          3 0009BD  0008                                 MMM

      875    17056    8                                     SVCTX$ = CTX$;

  17056   3 0009BE  ECC7 0026                            LDB,B6   CTX$,AUTO
          3 0009C0  EFC7 003D                            STB,B6   SVCTX$,AUTO

      876    17057    8                                     CTX$ = GJA_HAND_HEAD$;

  17057   3 0009C2  DC80 0000 0000  xsym                 LDB,B5   GJA_HAND_HEAD$
          3 0009C5  DFC7 0026                            STB,B5   CTX$,AUTO
PL6.E3A0      #001=GJA$ADMIN File=GJA$ADMIN.:E05TSI                              TUE 07/29/97 21:50 Page:128

      877    17058    9                                     DO WHILE ( CTX$ ~= ADDR(NIL) );

  17058   3 0009C7  0F81 0026                            B        s:17065,PREL

      878    17059   10                                          IF GJA$HAND_CTX.BLK = '1'B THEN DO;

  17059   3 0009C9  ECC7 0026                            LDB,B6   CTX$,AUTO
          3 0009CB  82C6 000D                            LB,'1000'X        13,B6
          3 0009CD       1000
          3 0009CE  0581 0019                            BBF      s:17064,PREL

      879    17060   10                                               GJA$HAND_CTX.BLK = '0'B;

  17060   3 0009D0  8846 000D                            LBF,'1000'X       13,B6
  17060   3 0009D2       1000

      880    17061   10                                               CALL GJA$Q_MSG(CTX$,LENGTHC(
             17061                                                        KV_VDO_RQSDAT),

  17061   3 0009D3  EBF0 000A                            LAB,B6   10,IMO
          3 0009D5  DB80 0000 0003  01                   LAB,B5   KV_VDO_RQSDAT
          3 0009D8  DFC7 0046                            STB,B5   NMAVAIL+5,AUTO
          3 0009DA  EFC7 0044                            STB,B6   NMAVAIL+3,AUTO
          3 0009DC  CBC7 0026                            LAB,B4   CTX$,AUTO
          3 0009DE  CFC7 0042                            STB,B4   NMAVAIL+1,AUTO
          3 0009E0  BBC7 0042                            LAB,B3   NMAVAIL+1,AUTO
          3 0009E2  CBF0 0300                            LAB,B4   768,IMO
          3 0009E4  E380 0000 0000  xent                 LNJ,B6   GJA$Q_MSG
          3 0009E7       0001                            DC       s:17064,PREL

      881    17062   10                                                 KV_VDO_RQSDAT);
      882    17063   10                                               END; /* hand.blk = 1    */

      883    17064    9                                          CTX$ = GJA$HAND_CTX.LNK$;

  17064   3 0009E8  ECC7 0026                            LDB,B6   CTX$,AUTO
PL6.E3A0      #001=GJA$ADMIN File=GJA$ADMIN.:E05TSI                              TUE 07/29/97 21:50 Page:129
          3 0009EA  DCC6 0001                            LDB,B5   1,B6
          3 0009EC  DFC7 0026                            STB,B5   CTX$,AUTO

      884    17065    9                                          END; /* ctx~= addr(nil)*/

  17065   3 0009EE  8DC7 0026                            CMN      CTX$,AUTO
          3 0009F0  09D9                                 BNE      s:17059,SPREL

      885    17066    8                                     CTX$ = SVCTX$;

  17066   3 0009F1  ECC7 003D                            LDB,B6   SVCTX$,AUTO
          3 0009F3  EFC7 0026                            STB,B6   CTX$,AUTO

      886    17067    8                                     END; /* ctx$ = uid_nm$ and unflow > 0 */

  17067   3 0009F5  0F81 01D2                            B        s:17186,PREL

      887    17068        /*
      888    17069          FNC = Request STT
      889    17070         */
      890    17071    7                              CASE(%KV_VDO_FNC_RQSSTT);

      891    17072
      892    17073
      893    17074    7                                NMAVAIL = '0'B;

  17074   3 0009F7  8747 0041                            CL       NMAVAIL,AUTO

      894    17075    7                                CHARPOS = 0;

  17075   3 0009F9  8747 0040                            CL       CHARPOS,AUTO

      895    17076    7                                SUBSTR(GJA_VDO_STT.STATE,0,9) = 'Host(s): ';

  17076   3 0009FB  AB80 0000 0000  01                   LAB,B2   PRIVS
          3 0009FE  2C3A                                 LDV,R2   58
          3 0009FF  6C09                                 LDV,R6   9
PL6.E3A0      #001=GJA$ADMIN File=GJA$ADMIN.:E05TSI                              TUE 07/29/97 21:50 Page:130
          3 000A00  BB80 0000 0000  xsym                 LAB,B3   GJA_VDO_STT
          3 000A03  3C04                                 LDV,R3   4
          3 000A04  0008                                 MMM

      896    17077    7                                CHARPOS = 9;

  17077   3 000A05  6C09                                 LDV,R6   9
          3 000A06  EF47 0040                            STR,R6   CHARPOS,AUTO

      897    17078    7                                CTX$ = GJA_NM_HEAD$;

  17078   3 000A08  EC80 0000 0000  xsym                 LDB,B6   GJA_NM_HEAD$
          3 000A0B  EFC7 0026                            STB,B6   CTX$,AUTO

      898    17079    8   FNDNM:                       DO WHILE CTX$ ~= ADDR(NIL);

  17079   3 000A0D  0F81 0058            FNDNM           B        s:17097,PREL

      899    17080    8                                     IF CTX$->GJA$HAND_CTX.HOST_NODE AND

  17080   3 000A0F  ECC7 0026                            LDB,B6   CTX$,AUTO
          3 000A11  82C6 000D                            LB,'2000'X        13,B6
          3 000A13       2000
          3 000A14  0581 004B                            BBF      s:17096,PREL
          3 000A16  8286                                 LB,'1FFF'X        ,B6
          3 000A17       1FFF
          3 000A18  0581 0047                            BBF      s:17096,PREL

      900    17081    9                                       CTX$->GJA$HAND_CTX.LDCTX ~= 0 THEN DO;

      901    17082    9                                          NMAVAIL = '1'B;

  17082   3 000A1A  8947 0041                            LBT,'8000'X       NMAVAIL,AUTO
  17082   3 000A1C       8000

      902    17083    9                                          IF CTX$->GJA$HAND_CTX.NAME ~= ' '

PL6.E3A0      #001=GJA$ADMIN File=GJA$ADMIN.:E05TSI                              TUE 07/29/97 21:50 Page:131
  17083   3 000A1D  DB80 0000 0000  04                   LAB,B5   0
          3 000A20  0022                                 ACM      ;
          3 000A21       4806 0009                                ALPHANUM(9,B6,,8,FILL),;
          3 000A23       4105 0004                                ALPHANUM(4,B5,,1,FILL)
          3 000A25  5381 003A                            CBE      s:17096,PREL
          3 000A27  DB80 0000 0000  01                   LAB,B5   PRIVS
          3 000A2A  0022                                 ACM      ;
          3 000A2B       4806 0009                                ALPHANUM(9,B6,,8,FILL),;
          3 000A2D       4605 0011                                ALPHANUM(17,B5,,6,FILL)
          3 000A2F  5381 0030                            CBE      s:17096,PREL

      903    17084   10                                            AND CTX$->GJA$HAND_CTX.NAME ~= 'NETMAN'
             17084                                                     THEN DO;

      904    17085   10                                               STRLEN = 8;

  17085   3 000A31  6C08                                 LDV,R6   8
          3 000A32  EF47 003F                            STR,R6   STRLEN,AUTO

      905    17086   11                                              DO WHILE (SUBSTR(CTX$->GJA$HAND_CTX.NAME
             17086                                                        ,STRLEN-1,1) = ' '

  17086   3 000A34  0F81 0003                            B        s:17089,PREL

      906    17087   11                                                 AND STRLEN > 0);
      907    17088   11                                                    STRLEN = STRLEN - 1;

  17088   3 000A36  88C7 003F                            DEC      STRLEN,AUTO

      908    17089   11                                                    END;

  17089   3 000A38  ECC7 0026                            LDB,B6   CTX$,AUTO
          3 000A3A  B847 003F                            LDR,R3   STRLEN,AUTO
          3 000A3C  3E11                                 ADV,R3   17
          3 000A3D  E0B6                                 LDH,R6   ,B6,R3
          3 000A3E  6D20                                 CMV,R6   32
          3 000A3F  0981 0004                            BNE      s:17090,PREL
PL6.E3A0      #001=GJA$ADMIN File=GJA$ADMIN.:E05TSI                              TUE 07/29/97 21:50 Page:132
          3 000A41  D847 003F                            LDR,R5   STRLEN,AUTO
          3 000A43  59F3                                 BNEZ,R5  s:17088,SPREL

      909    17090   10                                              SUBSTR(GJA_VDO_STT.STATE,CHARPOS,STRLEN)
             17090                                                        = CTX$->GJA$HAND_CTX.NAME;

  17090   3 000A44  DB80 0000 0000  xsym                 LAB,B5   GJA_VDO_STT
          3 000A47  A847 0040                            LDR,R2   CHARPOS,AUTO
          3 000A49  D847 003F                            LDR,R5   STRLEN,AUTO
          3 000A4B  DA70 2000                            ADD,R5   8192,IMO
          3 000A4D  0021                                 ALR      ;
          3 000A4E       4806 0009                                ALPHANUM(9,B6,,8),;
          3 000A50       4025 0002                                ALPHANUM(2,B5,R2,,R5,FILL)

      910    17091   10                                               CHARPOS = STRLEN + CHARPOS;

  17091   3 000A52  437F                                 CSYNC    s:17090+13,SPREL
          3 000A53  E847 003F                            LDR,R6   STRLEN,AUTO
          3 000A55  EA47 0040                            ADD,R6   CHARPOS,AUTO
          3 000A57  EF47 0040                            STR,R6   CHARPOS,AUTO

      911    17092   10                                               SUBSTR(GJA_VDO_STT.STATE,CHARPOS,1) =
             17092                                                        ',';

  17092   3 000A59  5C2C                                 LDV,R5   44
          3 000A5A  B856                                 LDR,R3   R6
          3 000A5B  D7B0 0000 0002  xsym                 STH,R5   GJA_VDO_STT+2,R3

      912    17093   10                                               CHARPOS = CHARPOS + 1;

  17093   3 000A5E  8AC7 0040                            INC      CHARPOS,AUTO

      913    17094   10                                               END;

      914    17095    9                                          END;

      915    17096    8                                     CTX$ = CTX$->GJA$HAND_CTX.LNK$;
PL6.E3A0      #001=GJA$ADMIN File=GJA$ADMIN.:E05TSI                              TUE 07/29/97 21:50 Page:133

  17096   3 000A60  ECC7 0026                            LDB,B6   CTX$,AUTO
          3 000A62  DCC6 0001                            LDB,B5   1,B6
          3 000A64  DFC7 0026                            STB,B5   CTX$,AUTO

      916    17097    8                                     END;

  17097   3 000A66  8DC7 0026                            CMN      CTX$,AUTO
          3 000A68  0981 FFA6                            BNE      s:17080,PREL

      917    17098    7                                IF NOT NMAVAIL /* No hosts             */

  17098   3 000A6A  89C7 0041                            CMZ      NMAVAIL,AUTO
          3 000A6C  0801 0016                            BAL      s:17104,PREL

      918    17099    8                                THEN DO;

      919    17100    8                                     GJA_VDO_STT.STATE = 'No Host';

  17100   3 000A6E  EB80 0000 0000  01                   LAB,B6   PRIVS
          3 000A71  DB80 0000 0000  xsym                 LAB,B5   GJA_VDO_STT
          3 000A74  D870 20FF                            LDR,R5   8447,IMO
          3 000A76  0021                                 ALR      ;
          3 000A77       4706 0022                                ALPHANUM(34,B6,,7),;
          3 000A79       4005 0002                                ALPHANUM(2,B5,,R5,FILL)

      920    17101    8                                     GJA_VDO_STT.DAT1.BYTSIZ = LENGTHC('No Host');

  17101   3 000A7B  6C07                                 LDV,R6   7
          3 000A7C  EA80 0000 0001  xsym                 SRM,R6,'00FF'X    GJA_VDO_STT+1
          3 000A7F       00FF

      921    17102    8                                     END;

  17102   3 000A80  437F                                 CSYNC    s:17101+4,SPREL
          3 000A81  0F81 005B                            B        s:17128,PREL

PL6.E3A0      #001=GJA$ADMIN File=GJA$ADMIN.:E05TSI                              TUE 07/29/97 21:50 Page:134
      922    17103    7                                ELSE
      923    17104    7                                     IF KNH$MESS.UID$->GJA$LGNCTX.STATUS.NMRSP

  17104   3 000A83  ECC7 0020                            LDB,B6   MSG$,AUTO
          3 000A85  DCC6 0002                            LDB,B5   2,B6
          3 000A87  82C5 0018                            LB,'2000'X        24,B5
          3 000A89       2000
          3 000A8A  0581 0016                            BBF      s:17110,PREL

      924    17105    8                                     THEN DO;

      925    17106    8                                          GJA_VDO_STT.STATE = 'Connecting';

  17106   3 000A8C  CB80 0000 0000  01                   LAB,B4   PRIVS
          3 000A8F  BB80 0000 0000  xsym                 LAB,B3   GJA_VDO_STT
          3 000A92  D870 20FF                            LDR,R5   8447,IMO
          3 000A94  0021                                 ALR      ;
          3 000A95       4A04 0026                                ALPHANUM(38,B4,,10),;
          3 000A97       4003 0002                                ALPHANUM(2,B3,,R5,FILL)

      926    17107    8                                          GJA_VDO_STT.DAT1.BYTSIZ = LENGTHC(
             17107                                                   'Connecting');

  17107   3 000A99  6C0A                                 LDV,R6   10
          3 000A9A  EA80 0000 0001  xsym                 SRM,R6,'00FF'X    GJA_VDO_STT+1
          3 000A9D       00FF

      927    17108    8                                          END;

  17108   3 000A9E  437F                                 CSYNC    s:17107+4,SPREL
          3 000A9F  0F81 003D                            B        s:17128,PREL

      928    17109    7                                     ELSE
      929    17110    7                                          IF KNH$MESS.UID$->GJA$LGNCTX.STATUS.WTPRO

  17110   3 000AA1  82C5 0018                            LB,'0200'X        24,B5
  17110   3 000AA3       0200
PL6.E3A0      #001=GJA$ADMIN File=GJA$ADMIN.:E05TSI                              TUE 07/29/97 21:50 Page:135
          3 000AA4  0581 0016                            BBF      s:17120,PREL

      930    17111    8                                          THEN DO;

      931    17112    8                                               GJA_VDO_STT.STATE ='Profile';

  17112   3 000AA6  CB80 0000 0000  01                   LAB,B4   PRIVS
          3 000AA9  BB80 0000 0000  xsym                 LAB,B3   GJA_VDO_STT
          3 000AAC  D870 20FF                            LDR,R5   8447,IMO
          3 000AAE  0021                                 ALR      ;
          3 000AAF       4704 002B                                ALPHANUM(43,B4,,7),;
          3 000AB1       4003 0002                                ALPHANUM(2,B3,,R5,FILL)

      932    17113    8                                               GJA_VDO_STT.DAT1.BYTSIZ = LENGTHC(
             17113                                                        'Profile');

  17113   3 000AB3  6C07                                 LDV,R6   7
          3 000AB4  EA80 0000 0001  xsym                 SRM,R6,'00FF'X    GJA_VDO_STT+1
          3 000AB7       00FF

      933    17114    8                                               END;

  17114   3 000AB8  437F                                 CSYNC    s:17113+4,SPREL
          3 000AB9  0F81 0023                            B        s:17128,PREL

      934    17115    8                                          ELSE DO;

      935    17116        /*
      936    17117                if the .8000 bit has been reset via the attr field in netcon then
      937    17118                use the old display
      938    17119        */
      939    17120    9                                               IF (BINBIT(GJA_ATTR,16) & '8000'X) =
             17120                                                        '0'B THEN DO;

  17120   3 000ABB  E800 0000 0000  xsym                 LDR,R6   GJA_ATTR
          3 000ABE  E570 8000                            AND,R6   -32768,IMO
          3 000AC0  6981 000A                            BNEZ,R6  s:17124,PREL
PL6.E3A0      #001=GJA$ADMIN File=GJA$ADMIN.:E05TSI                              TUE 07/29/97 21:50 Page:136

      940    17121    9                                                   GJA_VDO_STT.DAT1.BYTSIZ = CHARPOS -
             17121                                                             1;

  17121   3 000AC2  E847 0040                            LDR,R6   CHARPOS,AUTO
          3 000AC4  6EFF                                 ADV,R6   -1
          3 000AC5  EA80 0000 0001  xsym                 SRM,R6,'00FF'X    GJA_VDO_STT+1
          3 000AC8       00FF

      941    17122    9                                                    END;

  17122   3 000AC9  0F81 0013                            B        s:17128,PREL

      942    17123    9                                               ELSE DO;

      943    17124    9                                                    GJA_VDO_STT.STATE = 'Logging on';

  17124   3 000ACB  CB80 0000 0000  01                   LAB,B4   PRIVS
          3 000ACE  BB80 0000 0000  xsym                 LAB,B3   GJA_VDO_STT
          3 000AD1  D870 20FF                            LDR,R5   8447,IMO
          3 000AD3  0021                                 ALR      ;
          3 000AD4       4A04 002F                                ALPHANUM(47,B4,,10),;
          3 000AD6       4003 0002                                ALPHANUM(2,B3,,R5,FILL)

      944    17125    9                                                    GJA_VDO_STT.DAT1.BYTSIZ = LENGTHC(
             17125                                                             'Logging on');

  17125   3 000AD8  6C0A                                 LDV,R6   10
          3 000AD9  EA80 0000 0001  xsym                 SRM,R6,'00FF'X    GJA_VDO_STT+1
          3 000ADC       00FF

      945    17126    9                                                    END;

      946    17127    8                                               END;

      947    17128    7                               SIZE = LENGTHC(GJA_VDO_STT) - LENGTHC(GJA_VDO_STT.STATE
             17128                                         )
PL6.E3A0      #001=GJA$ADMIN File=GJA$ADMIN.:E05TSI                              TUE 07/29/97 21:50 Page:137

  17128   3 000ADD  E800 0000 0001  xsym                 LDR,R6   GJA_VDO_STT+1
          3 000AE0  E570 00FF                            AND,R6   255,IMO
          3 000AE2  6E04                                 ADV,R6   4
          3 000AE3  437F                                 CSYNC    s:17128+5,SPREL
          3 000AE4  EF47 0032                            STR,R6   SIZE,AUTO

      948    17129    7                                  + GJA_VDO_STT.DAT1.BYTSIZ;
      949    17130    7                                CALL GJA$Q_MSG(KNH$MESS.UID$,SIZE,GJA_VDO_STT);

  17130   3 000AE6  EB80 0000 0000  xsym                 LAB,B6   GJA_VDO_STT
          3 000AE9  EFC7 0046                            STB,B6   NMAVAIL+5,AUTO
          3 000AEB  DBC7 0032                            LAB,B5   SIZE,AUTO
          3 000AED  DFC7 0044                            STB,B5   NMAVAIL+3,AUTO
          3 000AEF  CCC7 0020                            LDB,B4   MSG$,AUTO
          3 000AF1  BBC4 0002                            LAB,B3   2,B4
          3 000AF3  BFC7 0042                            STB,B3   NMAVAIL+1,AUTO
          3 000AF5  BBC7 0042                            LAB,B3   NMAVAIL+1,AUTO
          3 000AF7  CBF0 0300                            LAB,B4   768,IMO
          3 000AF9  E380 0000 0000  xent                 LNJ,B6   GJA$Q_MSG
          3 000AFC       0001                            DC       s:17130+23,PREL
          3 000AFD  0F81 00CA                            B        s:17186,PREL

      950    17131        /*
      951    17132          FNC = Data
      952    17133        */
      953    17134    7                              CASE(%KV_VDO_FNC_DAT);

      954    17135    7                                IF WHO = %GJA_UID_NM OR WHO = %GJA_UID_HANDLER

  17135   3 000AFF  E847 001D                            LDR,R6   WHO,AUTO
          3 000B01  6D01                                 CMV,R6   1
          3 000B02  0901 0007                            BE       s:17137,PREL
          3 000B04  6D03                                 CMV,R6   3
          3 000B05  0901 0004                            BE       s:17137,PREL
          3 000B07  6D02                                 CMV,R6   2
          3 000B08  0981 0013                            BNE      s:17139,PREL
PL6.E3A0      #001=GJA$ADMIN File=GJA$ADMIN.:E05TSI                              TUE 07/29/97 21:50 Page:138

      955    17136    7                                  OR WHO = %GJA_UID_BABOON
      956    17137    7                                THEN CALL GJA$DECODE_APL_MSG(GJA$PARAMS,CTX$) ALTRET(
             17137                                         GETOUT);

  17137   3 000B0A  DBC7 0026                            LAB,B5   CTX$,AUTO
          3 000B0C  DFC7 0044                            STB,B5   NMAVAIL+3,AUTO
          3 000B0E  CBC7 0005                            LAB,B4   GJA$PARAMS,AUTO
          3 000B10  CFC7 0042                            STB,B4   NMAVAIL+1,AUTO
          3 000B12  BBC7 0042                            LAB,B3   NMAVAIL+1,AUTO
          3 000B14  CBF0 0200                            LAB,B4   512,IMO
          3 000B16  E380 0000 0000  xent                 LNJ,B6   GJA$DECODE_APL_MSG
          3 000B19       00E8                            DC       s:17203,PREL
          3 000B1A  0F81 00AD                            B        s:17186,PREL

      957    17138
      958    17139    7                                ELSE IF WHO = %GJA_UID_LOGON

  17139   3 000B1C  6D04                                 CMV,R6   4
          3 000B1D  0981 00AA                            BNE      s:17186,PREL

      959    17140    8                                     THEN DO;

      960    17141    8                                          IF NOT(KNH$MESS.UID$->GJA$LGNCTX.STATUS.
             17141                                                   LGNRSP)

  17141   3 000B1F  DCC7 0020                            LDB,B5   MSG$,AUTO
          3 000B21  CCC5 0002                            LDB,B4   2,B5
          3 000B23  82C4 0018                            LB,'4000'X        24,B4
          3 000B25       4000
          3 000B26  0501 0007                            BBT      s:17144,PREL

      961    17142    8                                          THEN CALL M$XXX;

  17142   3 000B28  B870 0082                            LDR,R3   130,IMO
          3 000B2A  0001                                 MCL
          3 000B2B       0000                            DC       s:17142+3,PREL
PL6.E3A0      #001=GJA$ADMIN File=GJA$ADMIN.:E05TSI                              TUE 07/29/97 21:50 Page:139
          3 000B2C  0F81 009B                            B        s:17186,PREL

      962    17143    9                                          ELSE DO;

      963    17144   10                                               IF KNH$MESS.UID$->GJA$LGNCTX.STATUS.
             17144                                                        RDPND = '0'B THEN DO;

  17144   3 000B2E  82C4 0018                            LB,'0080'X        24,B4
  17144   3 000B30       0080
          3 000B31  0501 0038                            BBT      s:17153,PREL

      964    17145   10                                                    GJA_SYSLOG.FCN = IGA_SYSLOG;

  17145   3 000B33  5C27                                 LDV,R5   39
          3 000B34  D780 0000 0000  xsym                 STH,R5   GJA_SYSLOG

      965    17146   10                                                    GJA_SYSLOG.ERRLOG.ERRCODE.ERR# = %
             17146                                                             E$READ_ERR;

  17146   3 000B37  C870 27A8                            LDR,R4   10152,IMO
          3 000B39  CA80 0000 0003  xsym                 SRM,R4,'FFF8'X    GJA_SYSLOG+3
          3 000B3C       FFF8

      966    17147   10                                                   CALL KHC$UTS(GJA_SYSLOG.ERRLOG.UTS)
             17147                                                             ;

  17147   3 000B3D  BB80 0000 0005  04                   LAB,B3   +5
          3 000B40  CBF0 0100                            LAB,B4   256,IMO
          3 000B42  E380 0000 0000  xent                 LNJ,B6   KHC$UTS
          3 000B45       0001                            DC       s:17148,PREL

      967    17148   10                                                   GJA_SYSLOG.ERRLOG.TERMID = KNH$MESS
             17148                                                             .UID$->GJA$LGNCTX.TERMINAL_ID;

  17148   3 000B46  ECC7 0020                            LDB,B6   MSG$,AUTO
          3 000B48  DCC6 0002                            LDB,B5   2,B6
          3 000B4A  AB85                                 LAB,B2   ,B5
PL6.E3A0      #001=GJA$ADMIN File=GJA$ADMIN.:E05TSI                              TUE 07/29/97 21:50 Page:140
          3 000B4B  2C1E                                 LDV,R2   30
          3 000B4C  6C10                                 LDV,R6   16
          3 000B4D  BB80 0000 0000  xsym                 LAB,B3   GJA_SYSLOG
          3 000B50  3C0C                                 LDV,R3   12
          3 000B51  0008                                 MMM

      968    17149   10                                                   ADDR(GJA_SYSLOG.ERRLOG.VALUES(0))->
             17149                                                             B$PTR$ = APP$;

  17149   3 000B52  ECC7 0022                            LDB,B6   APP$,AUTO
          3 000B54  EF80 0000 000E  xsym                 STB,B6   GJA_SYSLOG+14

      969    17150   10                                                   CALL GJA$NETWORK_MANAGER(GJA_SYSLOG
             17150                                                             ,SIZEC(GJA_SYSLOG)-SIZEC(
             17150                                                             GJA_SYSLOG.ERRLOG.DATA));

  17150   3 000B57  CBF0 0026                            LAB,B4   38,IMO
          3 000B59  CFC7 0044                            STB,B4   NMAVAIL+3,AUTO
          3 000B5B  BB80 0000 0000  xsym                 LAB,B3   GJA_SYSLOG
          3 000B5E  BFC7 0042                            STB,B3   NMAVAIL+1,AUTO
          3 000B60  BBC7 0042                            LAB,B3   NMAVAIL+1,AUTO
          3 000B62  CBF0 0200                            LAB,B4   512,IMO
          3 000B64  E380 0000 0000  xent                 LNJ,B6   GJA$NETWORK_MANAGER
          3 000B67       0001                            DC       s:17151,PREL

      970    17151   10                                                    END;

  17151   3 000B68  0F81 005F                            B        s:17186,PREL

      971    17152   10                                               ELSE DO;

      972    17153   10                                                   KNH$MESS.UID$->GJA$LGNCTX.MSG$=APP$
             17153                                                             ;

  17153   3 000B6A  BCC7 0022                            LDB,B3   APP$,AUTO
          3 000B6C  BFC4 000C                            STB,B3   12,B4

PL6.E3A0      #001=GJA$ADMIN File=GJA$ADMIN.:E05TSI                              TUE 07/29/97 21:50 Page:141
      973    17154   10                                                    CALL GJA$SOLICIT_NM(KNH$MESS.UID$,
             17154                                                             GJA$PARAMS.DATSIZE);

  17154   3 000B6E  CBC7 000D                            LAB,B4   GJA$PARAMS+8,AUTO
          3 000B70  CFC7 0044                            STB,B4   NMAVAIL+3,AUTO
          3 000B72  ABC5 0002                            LAB,B2   2,B5
          3 000B74  AFC7 0042                            STB,B2   NMAVAIL+1,AUTO
          3 000B76  BBC7 0042                            LAB,B3   NMAVAIL+1,AUTO
          3 000B78  CBF0 0200                            LAB,B4   512,IMO
          3 000B7A  E380 0000 0000  xent                 LNJ,B6   GJA$SOLICIT_NM
          3 000B7D       0001                            DC       s:17157,PREL

      974    17155   10                                                    END;

      975    17156    9                                               END;

      976    17157    8                                          END;

  17157   3 000B7E  0F81 0049                            B        s:17186,PREL

      977    17158
      978    17159
      979    17160
      980    17161    7                              CASE (%KV_VDO_FNC_DSC_RQS);

      981    17162    7                                IF WHO ~= %GJA_UID_LOGON

  17162   3 000B80  E847 001D                            LDR,R6   WHO,AUTO
          3 000B82  6D04                                 CMV,R6   4
          3 000B83  0901 0005                            BE       s:17167,PREL

      982    17163    7                                THEN CALL M$XXX;

  17163   3 000B85  B870 0082                            LDR,R3   130,IMO
          3 000B87  0001                                 MCL
          3 000B88       0000                            DC       s:17163+3,PREL

PL6.E3A0      #001=GJA$ADMIN File=GJA$ADMIN.:E05TSI                              TUE 07/29/97 21:50 Page:142
      983    17164
      984    17165        /* If we are waiting a response from the NETWORK MANAGER then
      985    17166           just set the TERM status in the CTX. */
      986    17167    7                                IF KNH$MESS.UID$->GJA$LGNCTX.STATUS.NMRSP

  17167   3 000B89  ECC7 0020                            LDB,B6   MSG$,AUTO
          3 000B8B  DCC6 0002                            LDB,B5   2,B6
          3 000B8D  82C5 0018                            LB,'2000'X        24,B5
          3 000B8F       2000
          3 000B90  0501 0006                            BBT      s:17170,PREL
          3 000B92  82C5 0018                            LB,'0200'X        24,B5
          3 000B94       0200
          3 000B95  0581 0006                            BBF      s:17172,PREL

      987    17168    7                                  OR KNH$MESS.UID$->GJA$LGNCTX.STATUS.WTPRO
      988    17169    7                                THEN
      989    17170    7                                     KNH$MESS.UID$->GJA$LGNCTX.STATUS.DSCRCV = '1'B;

  17170   3 000B97  8945 0018                            LBT,'0100'X       24,B5
  17170   3 000B99       0100
          3 000B9A  0F81 002D                            B        s:17186,PREL

      990    17171    8                                ELSE DO;

      991    17172    8                                     CALL GJA$Q_MSG(KNH$MESS.UID$,,,SIZEC(GJA_TERM),
             17172                                              GJA_TERM,%KN_FCN_TERM);

  17172   3 000B9C  CBF0 0008                            LAB,B4   8,IMO
          3 000B9E  BBF0 0003                            LAB,B3   3,IMO
          3 000BA0  BFC7 004C                            STB,B3   NMAVAIL+11,AUTO
          3 000BA2  DB80 0000 0000  xsym                 LAB,B5   GJA_TERM
          3 000BA5  DFC7 004A                            STB,B5   NMAVAIL+9,AUTO
          3 000BA7  CFC7 0048                            STB,B4   NMAVAIL+7,AUTO
          3 000BA9  AB80 0000 0000                       LAB,B2   0
          3 000BAC  AFC7 0046                            STB,B2   NMAVAIL+5,AUTO
          3 000BAE  9B80 0000 0000                       LAB,B1   0
          3 000BB1  9FC7 0044                            STB,B1   NMAVAIL+3,AUTO
PL6.E3A0      #001=GJA$ADMIN File=GJA$ADMIN.:E05TSI                              TUE 07/29/97 21:50 Page:143
          3 000BB3  DBC6 0002                            LAB,B5   2,B6
          3 000BB5  DFC7 0042                            STB,B5   NMAVAIL+1,AUTO
          3 000BB7  BBC7 0042                            LAB,B3   NMAVAIL+1,AUTO
          3 000BB9  CBF0 0600                            LAB,B4   1536,IMO
          3 000BBB  E380 0000 0000  xent                 LNJ,B6   GJA$Q_MSG
          3 000BBE       0001                            DC       s:17173,PREL

      992    17173    8                                     KNH$MESS.UID$->GJA$LGNCTX.STATUS.TERMACK = '1'B;

  17173   3 000BBF  ECC7 0020                            LDB,B6   MSG$,AUTO
          3 000BC1  DCC6 0002                            LDB,B5   2,B6
          3 000BC3  8945 0018                            LBT,'1000'X       24,B5
          3 000BC5       1000

      993    17174    8                                     END;

  17174   3 000BC6  0F81 0001                            B        s:17186,PREL

      994    17175
      995    17176
      996    17177
      997    17178
      998    17179    7                              CASE(ELSE);

      999    17180                     /*N* Should screech here but half to wait until we handler all FNCs */
     1000    17181
     1001    17182    7                                END;       /* VDO CASE                 */

     1002    17183
     1003    17184
     1004    17185
     1005    17186    6                             IF POFFW(VLP$,MSG$) >= MSGSIZ

  17186   3 000BC8  8CC7 002A                            LDI      VLP$,AUTO
          3 000BCA  84C7 0020                            SID      MSG$,AUTO
          3 000BCC  8D47 0042                            SDI      NMAVAIL+1,AUTO
          3 000BCE  F847 002E                            LDR,R7   MSGSIZ,AUTO
PL6.E3A0      #001=GJA$ADMIN File=GJA$ADMIN.:E05TSI                              TUE 07/29/97 21:50 Page:144
          3 000BD0  6C00                                 LDV,R6   0
          3 000BD1  84C7 0042                            SID      NMAVAIL+1,AUTO
          3 000BD3  6801 000B                            BLZ,R6   s:17190,PREL
          3 000BD5  6A01 0003                            BGZ,R6   s:17188,PREL
          3 000BD7  7901 0007                            BEZ,R7   s:17190,PREL

     1006    17187    6                             THEN EXIT VDOLOOP;
     1007    17188    6                             ELSE VDO$=VLP$;

  17188   3 000BD9  ECC7 002A                            LDB,B6   VLP$,AUTO
          3 000BDB  EFC7 002C                            STB,B6   VDO$,AUTO

     1008    17189    6                             END;          /* VDO LOOP                 */

  17189   3 000BDD  0F81 FB3E                            B        s:16883,PREL

     1009    17190    5                        END;

  17190   3 000BDF  0F81 0005                            B        s:17200,PREL

     1010    17191        %EJECT;
PL6.E3A0      #001=GJA$ADMIN File=GJA$ADMIN.:E05TSI                              TUE 07/29/97 21:50 Page:145
     1011    17192    4                 CASE(ELSE);

     1012    17193    4                   CALL M$XXX;

  17193   3 000BE1  B870 0082                            LDR,R3   130,IMO
          3 000BE3  0001                                 MCL
          3 000BE4       0000                            DC       s:17193+3,PREL

     1013    17194    4                   END;                    /* %KC_FCN CASE             */

     1014    17195        %EJECT;
PL6.E3A0      #001=GJA$ADMIN File=GJA$ADMIN.:E05TSI                              TUE 07/29/97 21:50 Page:146
     1015    17196        /*
     1016    17197           Decrement the scan size by the size of the message just processed
     1017    17198           and update the removal pointer taking wrap into account if necessary.
     1018    17199        */
     1019    17200    3                SCNSIZ=SCNSIZ-MSGSIZ;

  17200   3 000BE5  E847 0031                            LDR,R6   SCNSIZ,AUTO
          3 000BE7  E247 002E                            SUB,R6   MSGSIZ,AUTO
          3 000BE9  EF47 0031                            STR,R6   SCNSIZ,AUTO

     1020    17201    3                CQ$QHDR.RCQ.RPTR = CQ$QHDR.RCQ.RPTR + MSGSIZ;

  17201   3 000BEB  EC80 0000 0000  xsym                 LDB,B6   G$HAND_Q$
          3 000BEE  D846 0001                            LDR,R5   1,B6
          3 000BF0  DA47 002E                            ADD,R5   MSGSIZ,AUTO
          3 000BF2  DF46 0001                            STR,R5   1,B6

     1021    17202    3                IF CQ$QHDR.RCQ.RPTR >= CQ$QHDR.RCQ.SZ

  17202   3 000BF4  EC80 0000 0000  xsym                 LDB,B6   G$HAND_Q$
          3 000BF7  D846 0001                            LDR,R5   1,B6
          3 000BF9  D946 0002                            CMR,R5   2,B6
          3 000BFB  0201 0003                            BL       s:17204,PREL

     1022    17203    3                THEN CQ$QHDR.RCQ.RPTR = 0;

  17203   3 000BFD  8746 0001                            CL       1,B6

     1023    17204    3                END;                       /* SCAN RECEIVE QUEUE       */

  17204   3 000BFF  6A01 F57A                            BGZ,R6   s:16558,PREL

  17203   3                              GETOUT          null
     1024    17205        /*
     1025    17206                  IF CQ$QHDR.RCQ.IPTR ~= CQ$QHDR.RCQ.RPTR
     1026    17207                       THEN GOTO SCAN;
     1027    17208         */
PL6.E3A0      #001=GJA$ADMIN File=GJA$ADMIN.:E05TSI                              TUE 07/29/97 21:50 Page:147
     1028    17209        /*
     1029    17210          We're done scanning the queue.  Write out the messages we've placed
     1030    17211          in our send CQ (if any) and go to sleep.
     1031    17212        */
     1032    17213    2   GETOUT: ;
     1033    17214    2           CALL M$WRTMLT(FPT_WRTMLT);

  17214   3 000C01  BB80 0000 006C  00   GETOUT          LAB,B3   FPT_WRTMLT
          3 000C04  B870 1144                            LDR,R3   4420,IMO
          3 000C06  0001                                 MCL
          3 000C07       0000                            DC       s:17203+6,PREL

     1034    17215    2           CALL KHC$WAIT;

  17215   3 000C08  CBF0 0000                            LAB,B4   0,IMO
          3 000C0A  E380 0000 0000  xent                 LNJ,B6   KHC$WAIT
          3 000C0D       0001                            DC       s:17216,PREL

     1035    17216    2           END;                            /* FOREVER                  */

  17216   3 000C0E  0F81 F538                            B        s:16531,PREL
     1036    17217    1   END GJA$ADMIN;
     1037    17218        %EOD;

PL6.E3A0      #001=GJA$ADMIN File=GJA$ADMIN.:E05TSI                              TUE 07/29/97 21:50 Page:148
--  Include file information  --

   KV$VDO.:E05TOU  is referenced.
   KV$VDH.:E05TOU  is referenced.
   KNH_MACRO_C.:E05TOU  is referenced.
   K_REASON_C.:E05TOU  is referenced.
   KNN_NETWORK_M.:E05TOU  is referenced.
   KL_MACRO_C.:E05TOU  is referenced.
   KL_CONTROL_C.:E05TOU  is referenced.
   KL_AFCN_C.:E05TOU  is referenced.
   KI_ERRORS_C.:E05TOU  is referenced.
   KH_MACRO_C.:E05TOU  is referenced.
   KN_ERRORS_C.:E05TOU  is referenced.
   K_ADDRESS_M.:E05TOU  is referenced.
   KH$CHN.:E05TOU  is referenced.
   KH$CLK.:E05TOU  is referenced.
   GM_VIRTUAL_E.:E05TOU  is referenced.
   GJA_MSG_M.:E05TOU  is referenced.
   G$BOBCAT_M.:E05TOU  is referenced.
   G_LCP6_E.:E05TOU  is referenced.
   GT_LCP6_M.:E05TOU  is referenced.
   KI_CP6.:E05TOU  is referenced.
   GF_LCP6_M.:E05TOU  is referenced.
   GM_LCP6_M.:E05TOU  is referenced.
   GU_LCP6_M.:E05TOU  is referenced.
   GJ_LCP6_M.:E05TOU  is referenced.
   GH_LCP6_M.:E05TOU  is referenced.
   LCP_6.:E05TOU  cannot be made into a system file and is referenced.
   G_JIT_M.:E05TOU  is referenced.
      No diagnostics issued in procedure GJA$ADMIN.
PL6.E3A0      #001=GJA$ADMIN File=GJA$ADMIN.:E05TSI                              TUE 07/29/97 21:50 Page:149

 **** Variables and constants ****

  ****  Section 000  Data  GJA$ADMIN

  ****  Scalars and arrays  ****
HexLoc.c.b A Datatyp(siz) R M Lvl/name                 HexLoc.c.b A Datatyp(siz) R M Lvl/name

    99-0-0/w STRC(1120)  r     1 CTLTBL                    27-0-0/w STRC(752)   r     1 FPT_CQOPEN
    1C-0-0/w STRC(128)   r     1 FPT_GETMEM                 0-0-0/w STRC(160)   r     1 FPT_SPRIV
    7B-0-0/w STRC(256)   r     1 FPT_TIME                  5A-0-0/w STRC(96)    r     1 FPT_TRAP
    6C-0-0/w STRC(207)   r     1 FPT_WRTMLT                19-0-0/w STRC(48)    r     1 FROMSEG
     A-0-0/w STRC(192)   r     1 GET_BOBCAT                24-0-0/w STRC(48)    r     1 GJA_MEMORY_RESULTS
    93-0-0/w STRC(96)    r     1 KH_EXP                    8B-0-0/w STRC(128)   r     1 KV$VDH_VDHINT
    16-0-0/w STRC(48)    r     1 USERSEG                   56-0-0/w STRC(64)    r     1 VLP_HMI
    60-0-0/w STRC(192)   r     1 VLP_TRAP_CONDITIONS

  ****  Section 001 RoData GJA$ADMIN

  ****  Scalars and arrays  ****
HexLoc.c.b A Datatyp(siz) R M Lvl/name                 HexLoc.c.b A Datatyp(siz) R M Lvl/name

     2-0-0/w STRC(16)    r     1 GJA_KL_MES                 3-0-0/w STRC(80)    r     1 KV_VDO_RQSDAT
     0-0-0/b BIT (32)    r     1 PRIVS                      8-0-0/w STRC(80)    r     1 VDO_NODAT

  ****  Auto variables  ****

  ****  Scalars and arrays  ****
HexLoc.c.b A Datatyp(siz) R M Lvl/name                 HexLoc.c.b A Datatyp(siz) R M Lvl/name

    22-0-0/w PTR         r     1 APP$                      40-0-0/w UBIN(16)    r     1 CHARPOS
    26-0-0/w PTR         r     1 CTX$                      24-0-0/w PTR         r     1 FPT$
     5-0-0/w STRC(368)   r     1 GJA$PARAMS                36-0-0/w STRC(80)    r     1 KV@VDO_RQSDAT
    33-0-0/b BIT         r     1 LAST                      20-0-0/w PTR         r     1 MSG$
    2E-0-0/w UBIN(16)    r     1 MSGSIZ                    3C-0-0/w UBIN(16)    r     1 MSGWTSIZE
    41-0-0/b BIT         r     1 NMAVAIL                   34-0-0/w UBIN(32)    r     1 RECOVERY_NODE
    2F-0-0/w PTR         r     1 ROUTE$                    31-0-0/w SBIN(16)    r     1 SCNSIZ
    32-0-0/w UBIN(16)    r     1 SIZE                      3F-0-0/w UBIN(16)    r     1 STRLEN
PL6.E3A0      #001=GJA$ADMIN File=GJA$ADMIN.:E05TSI                              TUE 07/29/97 21:50 Page:150
    3D-0-0/w PTR         r     1 SVCTX$                    28-0-0/w PTR         r     1 SVMSG$
    2C-0-0/w PTR         r     1 VDO$                      2A-0-0/w PTR         r     1 VLP$
    1C-0-0/w UBIN(16)    r     1 VLPSIZE                   1D-0-0/w UBIN(16)    r     1 WHO

  ****  SYMREF variables  ****

  ****  Scalars and arrays  ****
HexLoc.c.b A Datatyp(siz) R M Lvl/name                 HexLoc.c.b A Datatyp(siz) R M Lvl/name

     0-0-0/w PTR         r     1 G$DS1$                     0-0-0/w PTR         r     1 G$DS4$
     0-0-0/w PTR         r     1 G$HAND_Q$                  0-0-0/w UBIN(16)    r     1 GID_BOOTCHAN
     0-0-0/w UBIN(16)    r     1 GJA_ATTR                   0-0-0/w PTR         r     1 GJA_CHNFREE$
     0-0-0/w UBIN(16)    r     1 GJA_CHNHI                  0-0-0/w PTR         r     1 GJA_CHNHI$
     0-0-0/w UBIN(16)    r     1 GJA_CHNLOW                 0-0-0/w PTR         r     1 GJA_CHNLOW$
     0-0-0/w STRC(304)   r     1 GJA_CONNECT                0-0-0/w STRC(96)    r     1 GJA_CONNECT_ACK
     0-0-0/w UBIN(16)    r     1 GJA_DEFNODE                0-0-0/w PTR         r     1 GJA_HAND_HEAD$
     0-0-0/w UBIN(16)    r     1 GJA_HOPCOST                0-0-0/w UBIN(16)    r     1 GJA_INTLEV
     0-0-0/w UBIN(16)    r     1 GJA_LDCT_BABOON            0-0-0/w UBIN(16)    r     1 GJA_LDCT_NM
     0-0-0/w STRC(80)    r     1 GJA_LDDAT                  0-0-0/w PTR         r     1 GJA_LINK$
     0-0-0/w UBIN(16)    r     1 GJA_LINKS                  0-0-0/w UBIN(16)    r     1 GJA_MAXNODE
     0-0-0/w UBIN(16)    r     1 GJA_MAXRDS                 0-0-0/w UBIN(16)    r     1 GJA_MEMORY
     0-0-0/w PTR         r     1 GJA_MSG_DOWN$              0-0-0/w PTR         r     1 GJA_MSG_HOSTDOWN$
     0-0-0/w PTR         r     1 GJA_MSG_LINKDOWN$          0-0-0/w PTR         r     1 GJA_NM_HEAD$
     0-0-0/w UBIN(16)    r     1 GJA_NODE#                  0-0-0/c CHAR(8)     r     1 GJA_NODENAME
     0-0-0/w UBIN(16)    r     1 GJA_OSIMAX#                0-0-0/w PTR         r     1 GJA_OSIROUTE$
     0-0-0/w UBIN(16)    r     1 GJA_RCQSIZE                0-0-0/w UBIN(16)    r     1 GJA_RETRYMAX
     0-0-0/w PTR         r     1 GJA_ROUTE$                 0-0-0/w UBIN(16)    r     1 GJA_SCQSIZE
     0-0-0/w STRC(1904)  r     1 GJA_SYSLOG                 0-0-0/w STRC(64)    r     1 GJA_TERM
     0-0-0/w STRC(32)    r     1 GJA_TERM_ACK               0-0-0/w UBIN(32)    r     1 GJA_UID_BABOON
     0-0-0/w PTR         r     1 GJA_UID_BABOON$            0-0-0/w PTR         r     1 GJA_UID_NANM$
     0-0-0/w UBIN(32)    r     1 GJA_UID_NM                 0-0-0/w PTR         r     1 GJA_UID_NM$
     0-0-0/w PTR         r     1 GJA_USRLGN_HEAD$
     0-0-0/c UBIN(8)     r     1 GJA_VDOBYTSIZ(0:34)
     0-0-0/w STRC(32)    r     1 GJA_VDO_DAT_DAT2           0-0-0/w STRC(80)    r     1 GJA_VDO_MRK
     0-0-0/w STRC(2072)  r     1 GJA_VDO_STT                0-0-0/w PTR         r     1 KH_CTLTBL$

  ****  BASED and DCB variables  ****
PL6.E3A0      #001=GJA$ADMIN File=GJA$ADMIN.:E05TSI                              TUE 07/29/97 21:50 Page:151

  ****  Scalars and arrays  ****
HexLoc.c.b A Datatyp(siz) R M Lvl/name                 HexLoc.c.b A Datatyp(siz) R M Lvl/name

     0-0-0/w UBIN(32)    r     1 B$DWORD                    0-0-0/w PTR         r     1 B$PTR$
     0-0-0/w STRC(384)   r     1 CQ$QHDR                    0-0-0/w STRC(304)   r     1 FPT$CONNECT
     0-0-0/w STRC(96)    r     1 FPT_CONNECT_ACK            0-0-0/w STRC(1696)  r     1 G$BOBCAT
     0-0-0/c STRC(272)   r     1 GJA$HAND_CTX               0-0-0/w STRC(528)   r     1 GJA$LGNCTX
     0-0-0/w STRC(512)   r     1 KH$CHN                     0-0-0/w STRC(768)   r     1 KL$CONTROL
     0-0-0/c STRC(128)   r     1 KNH$MESS                   0-0-0/c STRC(608)   r     1 KNN$LINK
     0-0-0/w PTR         r     1 KNN$LINK$(0:0)
     0-0-0/w STRC(208)   r     1 KNN$ROUTE
     0-0-0/w PTR         r     1 KNN$ROUTE$(0:0)
     0-0-0/w STRC(16)    r     1 KV$VDO                     0-0-0/w STRC(16)    r     1 KV$VDOVLP
     0-0-0/w STRC(32)    r     1 KV$VDOVLP_ACTPOS           0-0-0/w STRC(96)    r     1 KV$VDOVLP_CG_MSGID
     0-0-0/w STRC(96)    r     1 KV$VDOVLP_CG_MSGTYP        0-0-0/w STRC(96)    r     1 KV$VDOVLP_CG_STA
     0-0-0/w STRC(16)    r     1 KV$VDOVLP_DAT1             0-0-0/w STRC(32)    r     1 KV$VDOVLP_DAT2
     0-0-0/w STRC(48)    r     1 KV$VDOVLP_ERR              0-0-0/w STRC(32)    r     1 KV$VDOVLP_FLDID
     0-0-0/w STRC(16)    r     1 KV$VDOVLP_KEY              0-0-0/w STRC(64)    r     1 KV$VDOVLP_MRK
     0-0-0/w STRC(80)    r     1 KV$VDO_RQSDAT              0-0-0N  NULL        r     1 M$CQ
     0-0-0/c ACHR        r     1 STRING                     0-0-0/w STRC(80)    r     1 SV$MSG


   Procedure GJA$ADMIN requires 3088 words for executable code.
   Procedure GJA$ADMIN requires 80 words of local(AUTO) storage.
PL6.E3A0      #001=GJA$ADMIN File=GJA$ADMIN.:E05TSI                              TUE 07/29/97 21:50 Page:152
          *** CROSS REFERENCE LISTING ***
**     DENOTES     IDENTIFIER DEFINITION
<<                 IDENTIFIER'S VALUE SET
>>                 IDENTIFIER'S VALUE USED
<>                 IDENTIFIER SET AND/OR USED
--                 IDENTIFIER REFERENCED
PL6.E3A0      #001=GJA$ADMIN File=GJA$ADMIN.:E05TSI                              TUE 07/29/97 21:50 Page:153
          MINI XREF LISTING

APP$
     16344**DCL     16890<<ASSIGN  16893>>ASSIGN  16897<<ASSIGN  16900>>ASSIGN  16904<<ASSIGN  16909<<ASSIGN
     16914<<ASSIGN  16919<<ASSIGN  16924<<ASSIGN  16930<<ASSIGN  16934<<ASSIGN  16939<<ASSIGN  16948>>ASSIGN
     17149>>ASSIGN  17153>>ASSIGN
B$DWORD
     14649**DCL     16464>>ASSIGN
B$PTR$
     13623**DCL     17149<<ASSIGN
CHARPOS
     16408**DCL     17075<<ASSIGN  17077<<ASSIGN  17090>>ASSIGN  17091<<ASSIGN  17091>>ASSIGN  17092>>ASSIGN
     17093<<ASSIGN  17093>>ASSIGN  17121>>ASSIGN
CLOCK_LOOP
     16533**LABEL   16543--EXIT
CQ$QHDR.RCQ
     15377**DCL     15377--REDEF
CQ$QHDR.RCQ.IPTR
     15377**DCL     16549>>ASSIGN
CQ$QHDR.RCQ.OFFSET
     15377**DCL     16558>>ASSIGN
CQ$QHDR.RCQ.RPTR
     15377**DCL     16549>>ASSIGN  16558>>ASSIGN  17201<<ASSIGN  17201>>ASSIGN  17202>>IF      17203<<ASSIGN
CQ$QHDR.RCQ.SZ
     15377**DCL     16551>>ASSIGN  17202>>IF
CTLTBL
     14056**DCL     16442--ASSIGN
CTLTBL.PARM.PTR$
     14182**DCL     16443<<ASSIGN
CTX$
     16346**DCL     15117--IMP-PTR 15202--IMP-PTR 16520<>CALL    16521>>ASSIGN  16522>>ASSIGN  16523>>ASSIGN
     16524>>ASSIGN  16525>>ASSIGN  16561<<ASSIGN  16562>>IF      16564>>ASSIGN  16568<<ASSIGN  16588<>CALL
     16591>>ASSIGN  16592>>ASSIGN  16593>>ASSIGN  16595>>ASSIGN  16597>>ASSIGN  16598>>ASSIGN  16600>>ASSIGN
     16601>>ASSIGN  16604>>ASSIGN  16605>>ASSIGN  16608<>CALL    16609<>CALL    16618<>CALL    16624<>CALL
PL6.E3A0      #001=GJA$ADMIN File=GJA$ADMIN.:E05TSI                              TUE 07/29/97 21:50 Page:154
     16637<<ASSIGN  16638>>IF      16641<>CALL    16642>>ASSIGN  16643>>ASSIGN  16644>>ASSIGN  16645>>ASSIGN
     16646>>ASSIGN  16647>>ASSIGN  16648>>ASSIGN  16651>>ASSIGN  16653>>ASSIGN  16654>>ASSIGN  16656>>ASSIGN
     16657<>CALL    16658<>CALL    16681>>ASSIGN  16684>>IF      16687>>IF      16689<>CALL    16692>>ASSIGN
     16693<>CALL    16701>>ASSIGN  16705<>CALL    16715>>IF      16715>>IF      16745>>IF      16745>>IF
     16747>>ASSIGN  16749<>CALL    16750<>CALL    16756>>IF      16758>>ASSIGN  16761>>ASSIGN  16801>>IF
     16802<>CALL    16810<>CALL    16814>>ASSIGN  16815>>ASSIGN  16816>>ASSIGN  16817>>ASSIGN  16820>>ASSIGN
     16822>>ASSIGN  16823>>ASSIGN  16825>>ASSIGN  16826<>CALL    16827>>ASSIGN  16828>>ASSIGN  16834<>CALL
     16856<>CALL    16859>>IF      16862<>CALL    16877>>IF      16982>>IF      16982>>IF      16984>>ASSIGN
     16986>>IF      16992>>IF      16994<>CALL    16998>>ASSIGN  16998>>ASSIGN  16999>>ASSIGN  17003>>ASSIGN
     17003>>ASSIGN  17004>>ASSIGN  17005>>ASSIGN  17009>>DOWHILE 17010>>ASSIGN  17011>>IF      17011>>IF
     17014>>ASSIGN  17014>>ASSIGN  17015<>CALL    17018>>IF      17018>>IF      17018>>IF      17030<>CALL
     17032>>ASSIGN  17032>>ASSIGN  17033>>ASSIGN  17033>>ASSIGN  17034>>ASSIGN  17036>>ASSIGN  17036>>ASSIGN
     17040>>IF      17046>>IF      17048>>ASSIGN  17049>>ASSIGN  17056>>ASSIGN  17057<<ASSIGN  17058>>DOWHILE
     17059>>IF      17060>>ASSIGN  17061<>CALL    17064<<ASSIGN  17064>>ASSIGN  17066<<ASSIGN  17078<<ASSIGN
     17079>>DOWHILE 17080>>IF      17080>>IF      17083>>IF      17083>>IF      17086>>DOWHILE 17090>>ASSIGN
     17096<<ASSIGN  17096>>ASSIGN  17137<>CALL
FPT$
     16345**DCL     14999--IMP-PTR 15048--IMP-PTR 16582<<ASSIGN  16584>>DOSELCT 16592>>ASSIGN  16593>>ASSIGN
     16602>>IF      16624>>CALL    16629>>IF      16636>>ASSIGN  16645>>ASSIGN  16680<<ASSIGN  16682>>IF
     16684>>IF      16684>>IF
FPT$CONNECT
     15048**DCL     16624<>CALL
FPT$CONNECT.RESOURCE
     15054**DCL     16584>>DOSELCT
FPT$CONNECT.RLCID.GENERATION
     15084**DCL     15085--REDEF
FPT$CONNECT.RLCID.LDCTX
     15085**DCL     15085--REDEF
FPT$CONNECT.RLCID.NODE
     15084**DCL     16629>>IF      16636>>ASSIGN  16645>>ASSIGN
FPT$CONNECT.TERMINAL_ID.TERM
     15073**DCL     15082--REDEF
FPT$CONNECT.TERMINAL_ID.TERMID
     15082**DCL     16593>>ASSIGN  16602>>IF
FPT$CONNECT.USER.SYSID
     15086**DCL     16592>>ASSIGN
PL6.E3A0      #001=GJA$ADMIN File=GJA$ADMIN.:E05TSI                              TUE 07/29/97 21:50 Page:155
FPT_CONNECT_ACK.REASON
     15003**DCL     16682>>IF      16684>>IF      16684>>IF
FPT_CONNECT_ACK.UID.UID
     15029**DCL     15029--REDEF   15029--REDEF
FPT_CQOPEN
     13185**DCL     16492<>CALL
FPT_CQOPEN.V
     13193**DCL     13187--DCLINIT
FPT_GETMEM
     13140**DCL     16498<>CALL
FPT_GETMEM.V
     13143**DCL     13143--DCLINIT
FPT_GETMEM.V.PAGES
     13147**DCL     16469<<ASSIGN  16470>>ASSIGN
FPT_SPRIV
     13051**DCL     16446<>CALL
FPT_SPRIV.V
     13053**DCL     13053--DCLINIT
FPT_TIME.V
     13616**DCL     13615--DCLINIT
FPT_TRAP
     13229**DCL     16448<>CALL
FPT_WRTMLT
     13400**DCL     17214<>CALL
FPT_WRTMLT.V
     13405**DCL     13402--DCLINIT
FROMSEG
     13120**DCL     13077--DCLINIT
FROMSEG.BASE
     13124**DCL     13124--REDEF   16450<<ASSIGN
G$BOBCAT.BOOTCHAN
     15104**DCL     16513>>ASSIGN
G$BOBCAT.CHNFREE$
     15111**DCL     16512>>ASSIGN
G$BOBCAT.CHNHI
     15110**DCL     16511>>ASSIGN
PL6.E3A0      #001=GJA$ADMIN File=GJA$ADMIN.:E05TSI                              TUE 07/29/97 21:50 Page:156
G$BOBCAT.CHNHI$
     15111**DCL     16510>>ASSIGN
G$BOBCAT.CHNLOW
     15110**DCL     16508>>ASSIGN
G$BOBCAT.CHNLOW$
     15111**DCL     16509>>ASSIGN
G$BOBCAT.FEP#
     15104**DCL     16454>>ASSIGN
G$BOBCAT.HOSTNODE
     15113**DCL     16456>>ASSIGN
G$BOBCAT.LINK$$
     15110**DCL     16461>>ASSIGN
G$BOBCAT.LINKS
     15107**DCL     16460>>ASSIGN
G$BOBCAT.NODENAME
     15104**DCL     16455>>ASSIGN
G$BOBCAT.NODES
     15107**DCL     16453>>ASSIGN
G$BOBCAT.OSIROUTE#
     15113**DCL     16459>>ASSIGN
G$BOBCAT.OSIROUTE$
     15114**DCL     16458>>ASSIGN
G$BOBCAT.ROUTE$$
     15110**DCL     16457>>ASSIGN
G$DS1$
     14396**DCL     16464>>ASSIGN  16464>>ASSIGN
G$DS4$
     14397**DCL     15104--IMP-PTR 16453>>ASSIGN  16454>>ASSIGN  16455>>ASSIGN  16456>>ASSIGN  16457>>ASSIGN
     16458>>ASSIGN  16459>>ASSIGN  16460>>ASSIGN  16461>>ASSIGN  16508>>ASSIGN  16509>>ASSIGN  16510>>ASSIGN
     16511>>ASSIGN  16512>>ASSIGN  16513>>ASSIGN
G$HAND_Q$
     14428**DCL     15377--IMP-PTR 16549>>ASSIGN  16549>>ASSIGN  16551>>ASSIGN  16558>>ASSIGN  16558>>ASSIGN
     16558>>ASSIGN  17201>>ASSIGN  17201>>ASSIGN  17202>>IF      17202>>IF      17203>>ASSIGN
GETOUT
     17203**LABEL   16589--GOTO    16624--CALLALT 16641--CALLALT 16812--GOTO    17137--CALLALT
GET_BOBCAT
PL6.E3A0      #001=GJA$ADMIN File=GJA$ADMIN.:E05TSI                              TUE 07/29/97 21:50 Page:157
     13074**DCL     16452<>CALL
GET_BOBCAT.V
     13078**DCL     13077--DCLINIT
GID_BOOTCHAN
     14398**DCL     16513<<ASSIGN
GIJ$ABORTDUMP
     16413**DCL-ENT 16769--CALL
GJA$CONFIG
     16416**DCL-ENT 16516--CALL
GJA$DECODE_APL_MSG
     16414**DCL-ENT 17137--CALL
GJA$DISOLVE_LGNUSR_CTX
     16415**DCL-ENT 16750--CALL    16862--CALL
GJA$DISOLVE_NA
     16417**DCL-ENT 16689--CALL    16802--CALL    16856--CALL
GJA$HAND_CTX
     15202**DCL     16519--ASSIGN  16523<<ASSIGN  16587--ASSIGN  16591<<ASSIGN  16640--ASSIGN  16642<<ASSIGN
     16809--ASSIGN  16814<<ASSIGN
GJA$HAND_CTX.BLK
     15233**DCL     16982>>IF      16986>>IF      17059>>IF      17060<<ASSIGN
GJA$HAND_CTX.HOST_NODE
     15232**DCL     16684>>IF      16817<<ASSIGN  17080>>IF
GJA$HAND_CTX.LDCTX
     15208**DCL     16600<<ASSIGN  16656<<ASSIGN  16687>>IF      16701<<ASSIGN  17080>>IF
GJA$HAND_CTX.LINK_CONNECTED
     15231**DCL     16648<<ASSIGN  16828<<ASSIGN
GJA$HAND_CTX.LNK$
     15212**DCL     16597<<ASSIGN  16653<<ASSIGN  16822<<ASSIGN  17064>>ASSIGN  17096>>ASSIGN
GJA$HAND_CTX.MAXNMBBYT
     15216**DCL     16998<<ASSIGN  16998>>ASSIGN  16999<<ASSIGN  17018>>IF      17033<<ASSIGN  17033>>ASSIGN
GJA$HAND_CTX.MAXNMBRCR
     15215**DCL     17003<<ASSIGN  17003>>ASSIGN  17004<<ASSIGN  17011>>IF      17014<<ASSIGN  17014>>ASSIGN
     17018>>IF      17032<<ASSIGN  17032>>ASSIGN
GJA$HAND_CTX.MAXRCRBYTSIZ
     15214**DCL     17005<<ASSIGN  17011>>IF      17018>>IF
GJA$HAND_CTX.NAME
PL6.E3A0      #001=GJA$ADMIN File=GJA$ADMIN.:E05TSI                              TUE 07/29/97 21:50 Page:158
     15226**DCL     16525<<ASSIGN  16593<<ASSIGN  16643<<ASSIGN  17083>>IF      17083>>IF      17086>>DOWHILE
     17090>>ASSIGN
GJA$HAND_CTX.NODE
     15237**DCL     16645<<ASSIGN  16646>>ASSIGN  16692>>ASSIGN  16715>>IF      16715>>IF      16761>>ASSIGN
     16816<<ASSIGN
GJA$HAND_CTX.RDSOUT
     15217**DCL     16984<<ASSIGN
GJA$HAND_CTX.SYSID
     15241**DCL     16592<<ASSIGN
GJA$HAND_CTX.WAITING_MSG$
     15224**DCL     16992>>IF      17009>>DOWHILE 17010>>ASSIGN  17034>>ASSIGN  17036<<ASSIGN  17036>>ASSIGN
     17046>>IF      17048>>ASSIGN  17049>>ASSIGN
GJA$HAND_CTX.WAT4ACK
     15234**DCL     16681<<ASSIGN  16758<<ASSIGN  16801>>IF      16827<<ASSIGN
GJA$HAND_CTX.WHO
     15207**DCL     16524<<ASSIGN  16564>>ASSIGN  16601<<ASSIGN  16605<<ASSIGN  16644<<ASSIGN  16815<<ASSIGN
GJA$HOST_RECOVERY
     16419**DCL-ENT 16774--CALL
GJA$LGNCTX.CHN$
     15143**DCL     16715>>IF
GJA$LGNCTX.LNK$
     15127**DCL     16723>>ASSIGN
GJA$LGNCTX.MSG$
     15144**DCL     17153<<ASSIGN
GJA$LGNCTX.NM_NODE
     15141**DCL     16715>>IF
GJA$LGNCTX.STATUS.DSCRCV
     15192**DCL     17170<<ASSIGN
GJA$LGNCTX.STATUS.LGNRSP
     15186**DCL     17141>>IF
GJA$LGNCTX.STATUS.NMRSP
     15187**DCL     16745>>IF      17104>>IF      17167>>IF
GJA$LGNCTX.STATUS.RDPND
     15196**DCL     16967>>IF      16969<<ASSIGN  17144>>IF
GJA$LGNCTX.STATUS.TERM
     15185**DCL     16747<<ASSIGN
PL6.E3A0      #001=GJA$ADMIN File=GJA$ADMIN.:E05TSI                              TUE 07/29/97 21:50 Page:159
GJA$LGNCTX.STATUS.TERMACK
     15188**DCL     16859>>IF      16877>>IF      17173<<ASSIGN
GJA$LGNCTX.STATUS.WTPRO
     15191**DCL     16745>>IF      17110>>IF      17167>>IF
GJA$LGNCTX.TERMINAL_ID
     15166**DCL     17148>>ASSIGN
GJA$LGNCTX.TERMINAL_ID.TERM
     15168**DCL     15177--REDEF
GJA$LOGON_REQUEST
     16422**DCL-ENT 16624--CALL
GJA$LOGON_REQUEST_AGAIN
     16423**DCL-ENT 16719--CALL
GJA$LOGON_TIMEOUT
     16425**DCL-ENT 16538--CALL
GJA$NETWORK_MANAGER
     16421**DCL-ENT 17150--CALL
GJA$NODEINFO
     16426**DCL-ENT 16658--CALL    16705--CALL
GJA$PARAMS
     16326**DCL     16880<<ASSIGN  17137<>CALL
GJA$PARAMS.CG_MSGID$
     16334**DCL     16936<<ASSIGN
GJA$PARAMS.CG_MSGTYP$
     16332**DCL     16906<<ASSIGN
GJA$PARAMS.CG_STA$
     16333**DCL     16911<<ASSIGN
GJA$PARAMS.DAT$
     16330**DCL     16893<<ASSIGN  16900<<ASSIGN
GJA$PARAMS.DATSIZE
     16331**DCL     16894<<ASSIGN  16901<<ASSIGN  17154<>CALL
GJA$PARAMS.DATVLP$
     16329**DCL     16892<<ASSIGN  16899<<ASSIGN
GJA$PARAMS.ERR$
     16335**DCL     16916<<ASSIGN
GJA$PARAMS.FLDID$
     16336**DCL     16921<<ASSIGN
PL6.E3A0      #001=GJA$ADMIN File=GJA$ADMIN.:E05TSI                              TUE 07/29/97 21:50 Page:160
GJA$PARAMS.KEY$
     16337**DCL     16926<<ASSIGN
GJA$PARAMS.MRK$
     16338**DCL     16929<<ASSIGN  16952>>IF      16952>>IF      16955>>ASSIGN  16956>>ASSIGN  16958>>ASSIGN
GJA$PARAMS.MSG$
     16327**DCL     16881<<ASSIGN
GJA$PARAMS.VDO$
     16328**DCL     16882<<ASSIGN
GJA$Q_MSG
     16427**DCL-ENT 16608--CALL    16609--CALL    16618--CALL    16632--CALL    16657--CALL    16667--CALL
     16693--CALL    16749--CALL    16755--CALL    16826--CALL    16839--CALL    16957--CALL    16980--CALL
     16994--CALL    17015--CALL    17061--CALL    17130--CALL    17172--CALL
GJA$SOLICIT_LOGON
     16428**DCL-ENT 16970--CALL
GJA$SOLICIT_NM
     16429**DCL-ENT 17154--CALL
GJA$TERM_HANDLER
     16430**DCL-ENT 16834--CALL
GJA$WRITE
     16431**DCL-ENT 17030--CALL
GJA_ATTR
     14401**DCL     16489<<ASSIGN  17120>>IF
GJA_CHNFREE$
     14425**DCL     16512<<ASSIGN
GJA_CHNHI
     14424**DCL     16511<<ASSIGN
GJA_CHNHI$
     14422**DCL     16510<<ASSIGN
GJA_CHNLOW
     14423**DCL     16508<<ASSIGN
GJA_CHNLOW$
     14420**DCL     16509<<ASSIGN
GJA_CONNECT
     14497**DCL     16693--CALL    16693<>CALL    16826--CALL    16826<>CALL
GJA_CONNECT.RLCID.GENERATION
     14533**DCL     14534--REDEF
PL6.E3A0      #001=GJA$ADMIN File=GJA$ADMIN.:E05TSI                              TUE 07/29/97 21:50 Page:161
GJA_CONNECT.RLCID.LDCTX
     14534**DCL     14534--REDEF
GJA_CONNECT.RLCID.NODE
     14533**DCL     16692<<ASSIGN  16808<<ASSIGN
GJA_CONNECT.TERMINAL_ID.TERM
     14522**DCL     14531--REDEF
GJA_CONNECT_ACK
     14566**DCL     16608--CALL    16608<>CALL    16618--CALL    16618<>CALL    16632--CALL    16632<>CALL
     16657--CALL    16657<>CALL    16667--CALL    16667<>CALL
GJA_CONNECT_ACK.REASON
     14570**DCL     16607<<ASSIGN  16617<<ASSIGN  16631<<ASSIGN  16635<<ASSIGN  16666<<ASSIGN
GJA_CONNECT_ACK.UID.UID
     14596**DCL     14596--REDEF   14596--REDEF
GJA_DEFNODE
     14429**DCL     16456<<ASSIGN  16715>>IF      16775>>IF      16775>>IF      16779>>IF      16779>>IF
     16781>>IF      16782>>IF      16789>>IF      16789>>IF      16791>>IF      16792>>IF
GJA_HAND_HEAD$
     14411**DCL     16522<<ASSIGN  16594>>IF      16595<<ASSIGN  16597>>ASSIGN  16598<<ASSIGN  17057>>ASSIGN
GJA_HOPCOST
     14412**DCL     16484<<ASSIGN
GJA_INTLEV
     14400**DCL     16443--ASSIGN
GJA_KL_MES
     13643**DCL     16609--CALL    16609<>CALL    16618--CALL    16618<>CALL
GJA_LDCT_BABOON
     14404**DCL     16606<<ASSIGN
GJA_LDCT_NM
     14403**DCL     16771<<ASSIGN
GJA_LDDAT
     13817**DCL     17015--CALL    17015<>CALL
GJA_LINK$
     14417**DCL     14651--IMP-PTR 16461<<ASSIGN  16782>>IF      16792>>IF
GJA_LINKS
     14416**DCL     16460<<ASSIGN
GJA_MAXNODE
     14405**DCL     16453<<ASSIGN
PL6.E3A0      #001=GJA$ADMIN File=GJA$ADMIN.:E05TSI                              TUE 07/29/97 21:50 Page:162
GJA_MAXRDS
     14431**DCL     16984>>ASSIGN
GJA_MEMORY
     14438**DCL     16470<<ASSIGN
GJA_MEMORY_RESULTS
     13165**DCL     13143--DCLINIT
GJA_MEMORY_RESULTS.BASE
     13169**DCL     13169--REDEF
GJA_MEMORY_RESULTS.BASE$
     13169**DCL     16502>>ASSIGN  16503>>ASSIGN
GJA_MEMORY_RESULTS.PAGES
     13169**DCL     16503>>ASSIGN
GJA_MSG_DOWN$
     14652**DCL     16777<<ASSIGN  16783<<ASSIGN  16785<<ASSIGN  16793<<ASSIGN  16795<<ASSIGN
GJA_MSG_HOSTDOWN$
     14654**DCL     16777>>ASSIGN  16783>>ASSIGN  16793>>ASSIGN
GJA_MSG_LINKDOWN$
     14653**DCL     16785>>ASSIGN  16795>>ASSIGN
GJA_NM_HEAD$
     14418**DCL     16649>>IF      16651<<ASSIGN  16653>>ASSIGN  16654<<ASSIGN  16818>>IF      16820<<ASSIGN
     16822>>ASSIGN  16823<<ASSIGN  17078>>ASSIGN
GJA_NODE#
     14419**DCL     16454<<ASSIGN  16629>>IF      16804>>IF
GJA_NODENAME
     14421**DCL     16455<<ASSIGN
GJA_OSIMAX#
     14415**DCL     16459<<ASSIGN
GJA_OSIROUTE$
     14414**DCL     16458<<ASSIGN
GJA_RCQSIZE
     14436**DCL     16475<<ASSIGN
GJA_RETRYMAX
     14426**DCL     16487<<ASSIGN
GJA_ROUTE$
     14413**DCL     14650--IMP-PTR 16457<<ASSIGN  16636>>ASSIGN  16646>>ASSIGN  16775>>IF      16779>>IF
     16781>>IF      16782>>IF      16789>>IF      16791>>IF      16792>>IF      16803>>ASSIGN
PL6.E3A0      #001=GJA$ADMIN File=GJA$ADMIN.:E05TSI                              TUE 07/29/97 21:50 Page:163
GJA_SCQSIZE
     14437**DCL     16480<<ASSIGN
GJA_SYSLOG
     13422**DCL     17150<>CALL    17150--CALL
GJA_SYSLOG.ERRLOG.DATA
     13539**DCL     17150--CALL
GJA_SYSLOG.ERRLOG.ERRCODE.ERR#
     13495**DCL     17146<<ASSIGN
GJA_SYSLOG.ERRLOG.TERMID
     13519**DCL     17148<<ASSIGN
GJA_SYSLOG.ERRLOG.TERMID.TERM
     13521**DCL     13530--REDEF
GJA_SYSLOG.ERRLOG.UTS
     13499**DCL     17147<>CALL
GJA_SYSLOG.ERRLOG.VALUES
     13533**DCL     17149--ASSIGN
GJA_SYSLOG.FCN
     13423**DCL     17145<<ASSIGN
GJA_TERM
     14453**DCL     17172--CALL    17172<>CALL
GJA_TERM_ACK
     14477**DCL     16749--CALL    16749<>CALL    16755--CALL    16755<>CALL    16839--CALL    16839<>CALL
GJA_UID_BABOON
     14408**DCL     14409--REDEF
GJA_UID_BABOON$
     14409**DCL     16604<<ASSIGN
GJA_UID_NANM$
     14427**DCL     16521<<ASSIGN
GJA_UID_NM
     14406**DCL     14407--REDEF
GJA_UID_NM$
     14407**DCL     16756>>IF      16759<<ASSIGN  16767>>IF      16770<<ASSIGN  17040>>IF
GJA_USRLGN_HEAD$
     14410**DCL     16710>>ASSIGN
GJA_VDOBYTSIZ
     13683**DCL     16884>>ASSIGN
PL6.E3A0      #001=GJA$ADMIN File=GJA$ADMIN.:E05TSI                              TUE 07/29/97 21:50 Page:164
GJA_VDO_DAT_DAT2.DATCTRCHR
     14643**DCL     17027<<ASSIGN
GJA_VDO_DAT_DAT2.DATCTRCHRTYP
     14642**DCL     17026<<ASSIGN  17031<<ASSIGN
GJA_VDO_MRK
     13723**DCL     16957--CALL    16957<>CALL
GJA_VDO_MRK.MRK.ID
     13781**DCL     16956<<ASSIGN
GJA_VDO_MRK.MRK.MRKTYP
     13780**DCL     16955<<ASSIGN
GJA_VDO_STT
     15546**DCL     17128--ASSIGN  17130<>CALL
GJA_VDO_STT.DAT1.BYTSIZ
     15595**DCL     17101<<ASSIGN  17107<<ASSIGN  17113<<ASSIGN  17121<<ASSIGN  17125<<ASSIGN  17128>>ASSIGN
GJA_VDO_STT.STATE
     15604**DCL     17076<<ASSIGN  17090<<ASSIGN  17092<<ASSIGN  17100<<ASSIGN  17106<<ASSIGN  17112<<ASSIGN
     17124<<ASSIGN  17128--ASSIGN
KH$CHN.AUTLGN
     15631**DCL     16715>>IF
KH$CHN.TERMID.TERM
     15716**DCL     15725--REDEF
KHC$DISPATCH
     16432**DCL-ENT 16536--CALL
KHC$UTS
     16424**DCL-ENT 17147--CALL
KHC$WAIT
     16433**DCL-ENT 17215--CALL
KH_CTLTBL$
     13669**DCL     16442<<ASSIGN
KH_EXP
     13990**DCL     16536<>CALL
KH_EXP.ABORT
     14012**DCL     16534>>IF
KH_EXP.CTBCTX$
     14005**DCL     16542<<ASSIGN
KH_EXP.UID
PL6.E3A0      #001=GJA$ADMIN File=GJA$ADMIN.:E05TSI                              TUE 07/29/97 21:50 Page:165
     13996**DCL     13997--REDEF
KH_EXP.UID$
     13997**DCL     16538<>CALL
KL$CONTROL.FPARAM
     15361**DCL     16469>>ASSIGN  16474>>ASSIGN  16479>>ASSIGN  16484>>ASSIGN  16487>>ASSIGN  16489>>ASSIGN
KL$CONTROL.NUM_FPARAM
     15354**DCL     16467>>IF      16472>>IF      16477>>IF      16482>>IF      16485>>IF      16488>>IF
KL$CONTROL.TYPE
     15289**DCL     16465>>IF
KNH$MESS
     15402**DCL     16559--ASSIGN  16582--ASSIGN  16624<>CALL    16680--ASSIGN  16879--ASSIGN
KNH$MESS.FPTSZ
     15435**DCL     16559>>ASSIGN
KNH$MESS.FUNCTION
     15402**DCL     15402--REDEF   16560>>IF      16571>>DOCASE
KNH$MESS.LDCTX
     15407**DCL     16600>>ASSIGN  16606>>ASSIGN  16632--CALL    16656>>ASSIGN  16667--CALL    16701>>ASSIGN
     16755--CALL    16839--CALL
KNH$MESS.MSGSZ
     15436**DCL     16559>>ASSIGN
KNH$MESS.UID
     15432**DCL     15432--REDEF   15432--REDEF   16980<>CALL
KNH$MESS.UID$
     15432**DCL     16561>>ASSIGN  16957<>CALL    16967>>IF      16969>>ASSIGN  16970<>CALL    17104>>IF
     17110>>IF      17130<>CALL    17141>>IF      17144>>IF      17148>>ASSIGN  17153>>ASSIGN  17154<>CALL
     17167>>IF      17167>>IF      17170>>ASSIGN  17172<>CALL    17173>>ASSIGN
KNN$LINK.DEST.ADDRESS_N
     14915**DCL     14916--REDEF
KNN$LINK.LADR.ADDRESS_N
     14858**DCL     14859--REDEF
KNN$LINK.LDCT$
     14729**DCL     14736--REDEF
KNN$LINK.QOS
     14788**DCL     16782>>IF      16792>>IF
KNN$LINK$
     14651**DCL     16782>>IF      16792>>IF
PL6.E3A0      #001=GJA$ADMIN File=GJA$ADMIN.:E05TSI                              TUE 07/29/97 21:50 Page:166
KNN$ROUTE.CTX$
     14663**DCL     16637>>ASSIGN  16647<<ASSIGN  16825<<ASSIGN
KNN$ROUTE.CURRENT_QOS
     14674**DCL     16804>>IF
KNN$ROUTE.FLAGS.HOST_NODE
     14684**DCL     16804>>IF      16817>>ASSIGN
KNN$ROUTE.FLAGS.LINK_CONNECTED
     14688**DCL     16648>>ASSIGN  16775>>IF      16779>>IF      16789>>IF      16828>>ASSIGN
KNN$ROUTE.LINK#
     14669**DCL     16781>>IF      16782>>IF      16791>>IF      16792>>IF
KNN$ROUTE$
     14650**DCL     16636>>ASSIGN  16646>>ASSIGN  16775>>IF      16779>>IF      16781>>IF      16782>>IF
     16789>>IF      16791>>IF      16792>>IF      16803>>ASSIGN
KV$VDH_VDHINT
     13663**DCL     16504<>CALL
KV$VDH_VDHINT.BFRBGN$
     13663**DCL     16502<<ASSIGN
KV$VDH_VDHINT.BFREND$
     13663**DCL     16503<<ASSIGN
KV$VDO.FNC
     15462**DCL     16884>>ASSIGN  16952>>IF      16962>>DOCASE
KV$VDO.VLP
     15462**DCL     16885>>ASSIGN
KV$VDOVLP.LST
     15755**DCL     16947>>ASSIGN
KV$VDOVLP.TYP
     15755**DCL     16887>>DOCASE
KV$VDOVLP_ACTPOS
     15900**DCL     16940--ASSIGN
KV$VDOVLP_CG_MSGID
     16305**DCL     16934--ASSIGN
KV$VDOVLP_CG_MSGID.BYTSIZ
     16311**DCL     16935>>ASSIGN
KV$VDOVLP_CG_MSGTYP
     15951**DCL     16905--ASSIGN
KV$VDOVLP_CG_STA
PL6.E3A0      #001=GJA$ADMIN File=GJA$ADMIN.:E05TSI                              TUE 07/29/97 21:50 Page:167
     16003**DCL     16910--ASSIGN
KV$VDOVLP_DAT1
     15800**DCL     16890--ASSIGN
KV$VDOVLP_DAT1.BYTSIZ
     15806**DCL     16891>>ASSIGN  16894>>ASSIGN
KV$VDOVLP_DAT2
     15850**DCL     16897--ASSIGN
KV$VDOVLP_DAT2.BYTSIZ
     15858**DCL     16898>>ASSIGN  16901>>ASSIGN
KV$VDOVLP_ERR
     16054**DCL     16915--ASSIGN
KV$VDOVLP_FLDID
     16151**DCL     16919--ASSIGN
KV$VDOVLP_FLDID.BYTSIZ
     16157**DCL     16920>>ASSIGN
KV$VDOVLP_KEY
     16202**DCL     16924--ASSIGN
KV$VDOVLP_KEY.BYTSIZ
     16208**DCL     16925>>ASSIGN
KV$VDOVLP_MRK
     16252**DCL     16930--ASSIGN
KV$VDOVLP_MRK.BYTSIZ
     16258**DCL     16931>>ASSIGN
KV$VDOVLP_MRK.ID
     16267**DCL     16956>>ASSIGN
KV$VDOVLP_MRK.MRKTYP
     16266**DCL     16952>>IF      16955>>ASSIGN  16958<<ASSIGN
KV$VDO_RQSDAT
     15498**DCL     16980--CALL
KV$VDO_RQSDAT.EOFNO_DAT
     15509**DCL     16992>>IF
KV$VDO_RQSDAT.INCMAXNMBBYT
     15507**DCL     16997>>IF
KV$VDO_RQSDAT.INCMAXNMBRCR
     15507**DCL     17002>>IF
KV$VDO_RQSDAT.MAXNMBBYT
PL6.E3A0      #001=GJA$ADMIN File=GJA$ADMIN.:E05TSI                              TUE 07/29/97 21:50 Page:168
     15506**DCL     16998>>ASSIGN  16999>>ASSIGN
KV$VDO_RQSDAT.MAXNMBRCR
     15505**DCL     17003>>ASSIGN  17004>>ASSIGN
KV$VDO_RQSDAT.MAXRCRBYTSIZ
     15505**DCL     17005>>ASSIGN
KV@VDO_RQSDAT
     16389**DCL     16979<<ASSIGN  16980<>CALL    17055<<ASSIGN
KVB$GETSYS
     16435**DCL-ENT 16520--CALL    16588--CALL    16641--CALL    16810--CALL
KVB$INT
     16436**DCL-ENT 16504--CALL
KVB$RLSSYS
     16438**DCL-ENT 17037--CALL
KV_VDO_RQSDAT
     13961**DCL     16979>>ASSIGN  17055>>ASSIGN  17061--CALL    17061<>CALL
LAST
     16354**DCL     16885<<ASSIGN  16886>>DOWHILE 16947<<ASSIGN
M$CVM
      4557**DCL-ENT 16452--CALL
M$GDS
      4555**DCL-ENT 16498--CALL
M$OPEN
      4560**DCL-ENT 16492--CALL
M$SPRIV
      4549**DCL-ENT 16446--CALL
M$SYS
      4535**DCL-ENT 16447--CALL
M$TRAP
      4544**DCL-ENT 16448--CALL
M$WRTMLT
      4561**DCL-ENT 17214--CALL
M$XXX
      4538**DCL-ENT 16494--CALL    16500--CALL    16861--CALL    16865--CALL    16943--CALL    17142--CALL
     17163--CALL    17193--CALL
MSG$
     16343**DCL     14979--IMP-PTR 15283--IMP-PTR 15402--IMP-PTR 16464<<ASSIGN  16465>>IF      16467>>IF
PL6.E3A0      #001=GJA$ADMIN File=GJA$ADMIN.:E05TSI                              TUE 07/29/97 21:50 Page:169
     16469>>ASSIGN  16472>>IF      16474>>ASSIGN  16477>>IF      16479>>ASSIGN  16482>>IF      16484>>ASSIGN
     16485>>IF      16487>>ASSIGN  16488>>IF      16489>>ASSIGN  16558<<ASSIGN  16559>>ASSIGN  16559>>ASSIGN
     16560>>IF      16561>>ASSIGN  16571>>DOCASE  16582>>ASSIGN  16600>>ASSIGN  16606>>ASSIGN  16624>>CALL
     16632>>CALL    16656>>ASSIGN  16667>>CALL    16680>>ASSIGN  16701>>ASSIGN  16755>>CALL    16839>>CALL
     16879>>ASSIGN  16881>>ASSIGN  16957>>CALL    16967>>IF      16969>>ASSIGN  16970>>CALL    16980>>CALL
     17104>>IF      17110>>IF      17130>>CALL    17141>>IF      17144>>IF      17148>>ASSIGN  17153>>ASSIGN
     17154>>CALL    17167>>IF      17167>>IF      17170>>ASSIGN  17172>>CALL    17173>>ASSIGN  17186>>IF
MSGSIZ
     16350**DCL     16559<<ASSIGN  17186>>IF      17200>>ASSIGN  17201>>ASSIGN
MSGWTSIZE
     16405**DCL     17008<<ASSIGN  17035<<ASSIGN  17035>>ASSIGN  17040>>IF      17042<<ASSIGN  17048<<ASSIGN
     17052<<ASSIGN  17052>>ASSIGN
NMAVAIL
     16409**DCL     17074<<ASSIGN  17082<<ASSIGN  17098>>IF
PRIVS
     13625**DCL     13053--DCLINIT
RECOVERY_NODE
     16355**DCL     16761<<ASSIGN  16774<>CALL    16775>>IF      16779>>IF      16789>>IF      16803>>ASSIGN
     16804>>IF      16808>>ASSIGN  16816>>ASSIGN
ROUTE$
     16351**DCL     14656--IMP-PTR 16636<<ASSIGN  16637>>ASSIGN  16646<<ASSIGN  16647>>ASSIGN  16648>>ASSIGN
     16803<<ASSIGN  16804>>IF      16804>>IF      16817>>ASSIGN  16825>>ASSIGN  16828>>ASSIGN
SCNSIZ
     16352**DCL     16549<<ASSIGN  16550>>IF      16551<<ASSIGN  16551>>ASSIGN  16557>>DOWHILE 17200<<ASSIGN
     17200>>ASSIGN
SIZE
     16353**DCL     14978--IMP-SIZ 16519<<ASSIGN  16520<>CALL    16587<<ASSIGN  16588<>CALL    16640<<ASSIGN
     16641<>CALL    16809<<ASSIGN  16810<>CALL    17023<<ASSIGN  17030<>CALL    17030>>CALL    17033>>ASSIGN
     17128<<ASSIGN  17130<>CALL
STRING
     14978**DCL     17030<>CALL
STRLEN
     16407**DCL     17085<<ASSIGN  17086>>DOWHILE 17086>>DOWHILE 17088<<ASSIGN  17088>>ASSIGN  17090>>ASSIGN
     17091>>ASSIGN
SV$MSG
     14979**DCL     17029--ASSIGN  17037<>CALL
PL6.E3A0      #001=GJA$ADMIN File=GJA$ADMIN.:E05TSI                              TUE 07/29/97 21:50 Page:170
SV$MSG.LNK$
     14981**DCL     17036>>ASSIGN  17050>>DOWHILE 17051>>ASSIGN
SV$MSG.SZ
     14982**DCL     17011>>IF      17018>>IF      17018>>IF      17023>>ASSIGN  17035>>ASSIGN  17048>>ASSIGN
     17052>>ASSIGN
SV$MSG.VFC
     14983**DCL     17024>>IF      17027>>ASSIGN
SVCTX$
     16406**DCL     17056<<ASSIGN  17066>>ASSIGN
SVMSG$
     16347**DCL     16710<<ASSIGN  16711>>DOWHILE 16715>>IF      16715>>IF      16719<>CALL    16723<<ASSIGN
     16723>>ASSIGN  17010<<ASSIGN  17011>>IF      17018>>IF      17018>>IF      17023>>ASSIGN  17024>>IF
     17027>>ASSIGN  17029<<ASSIGN  17029>>ASSIGN  17030>>CALL    17034<<ASSIGN  17035>>ASSIGN  17037>>CALL
     17049<<ASSIGN  17050>>DOWHILE 17051<<ASSIGN  17051>>ASSIGN  17052>>ASSIGN
UN_FLOW
     16979**LABEL   16987--GOTO
USERSEG
     13099**DCL     13077--DCLINIT
USERSEG.BASE
     13103**DCL     13103--REDEF   16451<<ASSIGN
VDO$
     16349**DCL     15458--IMP-PTR 15498--IMP-PTR 16879<<ASSIGN  16882>>ASSIGN  16884>>ASSIGN  16884>>ASSIGN
     16885>>ASSIGN  16952>>IF      16962>>DOCASE  16992>>IF      16997>>IF      16998>>ASSIGN  16999>>ASSIGN
     17002>>IF      17003>>ASSIGN  17004>>ASSIGN  17005>>ASSIGN  17188<<ASSIGN
VDOLOOP
     16883**LABEL   17187--EXIT
VDO_NODAT
     14284**DCL     16994--CALL    16994<>CALL
VLP$
     16348**DCL     15751--IMP-PTR 16884<<ASSIGN  16887>>DOCASE  16890>>ASSIGN  16890>>ASSIGN  16891>>ASSIGN
     16892>>ASSIGN  16894>>ASSIGN  16897>>ASSIGN  16897>>ASSIGN  16898>>ASSIGN  16899>>ASSIGN  16901>>ASSIGN
     16904>>ASSIGN  16905>>ASSIGN  16906>>ASSIGN  16909>>ASSIGN  16910>>ASSIGN  16911>>ASSIGN  16914>>ASSIGN
     16915>>ASSIGN  16916>>ASSIGN  16919>>ASSIGN  16919>>ASSIGN  16920>>ASSIGN  16921>>ASSIGN  16924>>ASSIGN
     16924>>ASSIGN  16925>>ASSIGN  16926>>ASSIGN  16929>>ASSIGN  16930>>ASSIGN  16930>>ASSIGN  16931>>ASSIGN
     16934>>ASSIGN  16934>>ASSIGN  16935>>ASSIGN  16936>>ASSIGN  16939>>ASSIGN  16940>>ASSIGN  16947>>ASSIGN
     16948<<ASSIGN  17186>>IF      17188>>ASSIGN
PL6.E3A0      #001=GJA$ADMIN File=GJA$ADMIN.:E05TSI                              TUE 07/29/97 21:50 Page:171
VLPSIZE
     16340**DCL     16891<<ASSIGN  16898<<ASSIGN  16905<<ASSIGN  16910<<ASSIGN  16915<<ASSIGN  16920<<ASSIGN
     16925<<ASSIGN  16931<<ASSIGN  16935<<ASSIGN  16940<<ASSIGN  16948>>ASSIGN
VLP_HMI
     13213**DCL     13187--DCLINIT
VLP_HMI.RCQSIZE
     13213**DCL     16474<<ASSIGN  16475>>ASSIGN
VLP_HMI.SCQSIZE
     13213**DCL     16479<<ASSIGN  16480>>ASSIGN
VLP_TRAP_CONDITIONS
     13244**DCL     13229--DCLINIT
WHO
     16341**DCL     16564<<ASSIGN  16739>>DOCASE  16853>>DOCASE  16877>>IF      16982>>IF      17135>>IF
     17135>>IF      17135>>IF      17139>>IF      17162>>IF

