PL6.E3A0      #004=GJA$DISOLVE_LGNUSR_CTX File=GJA$LOGON.:E05TSI                 TUE 07/29/97 21:52 Page:163
      943        1        /*T***********************************************************/
      944        2        /*T*                                                         */
      945        3        /*T* Copyright (c) Bull HN Information Systems Inc., 1997    */
      946        4        /*T*                                                         */
      947        5        /*T***********************************************************/
      948        6
      949        7        /*F*    NAME:    GJA$DISOLVE_LGNUSR_CTX
      950        8
      951        9                PURPOSE: This routine gets rid of a GJA$LGNCTX block that is
      952       10                         no longer needed.
      953       11
      954       12                DESCRIPTION:  This routine is very simple.  It just delinks the
      955       13                              context block and calls the buddy space manager
      956       14                              to give the space back.
      957       15
      958       16                CALL:  CALL GJA$DISOLVE_LGNUSR_CTX(CTX$)
      959       17
      960       18                INPUT: CTX$ - A pointer to the context block to be disolved.
      961       19        */
      962       20        %EJECT;
PL6.E3A0      #004=GJA$DISOLVE_LGNUSR_CTX File=GJA$LOGON.:E05TSI                 TUE 07/29/97 21:52 Page:164
      963       21        GJA$DISOLVE_LGNUSR_CTX: PROC(CTX$);
      964       22
      965       23        %INCLUDE KH$CLK;
      966      393        %INCLUDE KH_CLKFNC_E;
      967      438        %INCLUDE KL_MACRO_C;
      968     3790        %INCLUDE GJA_MSG_M;
      969     4029        %INCLUDE LCP_6;
      970     8308        %INCLUDE KV$VDO;
      971     9323        %INCLUDE KNN_NETWORK_M;
      972     9686                                                /* Args                     */
      973     9687    1   DCL CTX$ PTR;
      974     9688    1   DCL TCTX$ PTR;
      975     9689    1   DCL ROUTE$ PTR;
      976     9690                                                /* Symrefs                  */
      977     9691    1   DCL GJA_USRLGN_HEAD$ PTR SYMREF;
      978     9692    1   DCL GJA_NM_HEAD$ PTR SYMREF;
      979     9693    1   DCL GJA_ERRMSG_HEAD$ PTR SYMREF;
      980     9694    1   DCL GJA_UID_NM UBIN(32) SYMREF;
      981     9695    1   DCL GJA_UID_NM$ REDEF GJA_UID_NM PTR;
      982     9696    1   DCL GJA_LDCT_NM UBIN SYMREF;
      983     9697    1   DCL GJA_HAND_HEAD$ PTR SYMREF;
      984     9698    1   DCL GJA_ROUTE$ PTR SYMREF;
      985     9699    1   DCL GJA_MSG_DOWN$ PTR SYMREF;
      986     9700    1   DCL GJA_MSG_HOSTDOWN$ PTR SYMREF;
      987     9701    1   DCL GJA_MSG_LINKDOWN$ PTR SYMREF;
      988     9702                                                /* Static                   */
      989     9703        %KH$CLK (FPTN=CANCEL_CLK,
      990     9704                  STCLASS=STATIC,
      991     9705                  FNC=%KH#CLK_CANCEL,
      992     9706                  VDH_CLK=NO,
      993     9707                  NO_CTB=YES,
      994     9708                  PERM=NO,
      995     9709                  PRDUNT=KH#C_MIN,
      996     9710                  PRD=0);
      997     9859                                                /* Based                    */
      998     9860        %GJA$LGNCTX(STCLASS="BASED(CTX$)");
      999     9945        %GJA$HAND_CTX(STCLASS="BASED(CTX$)");
PL6.E3A0      #004=GJA$DISOLVE_LGNUSR_CTX File=GJA$LOGON.:E05TSI                 TUE 07/29/97 21:52 Page:165
     1000     9994        %GJA$ERRMSG_CTX(STCLASS="BASED(CTX$)");
     1001    10022    1   DCL KNN$ROUTE$(0:0) PTR BASED(GJA_ROUTE$);
     1002    10023        %KNN$ROUTE(STCLASS="BASED(ROUTE$)");
     1003    10095    1   DCL 1 SV$MSG BASED,
     1004    10096    1         2 BFRSIZ UBIN,
     1005    10097    1         2 NXT$ PTR;
     1006    10098        %KV_VDO_E;
     1007    10134        %KV_DATMOD_E;
     1008    10140        %GJA_UID_EQUS;
     1009    10148        %KV$VDO_RQSDAT(NAME=KV_VDO_RQSDAT,MAXRCRBYTSIZ=2048,
     1010    10149                       MAXNMBRCR=999,MAXNMBBYT=2048,STCLASS=STATIC);
     1011    10197                                                /* AUTO Storage             */
     1012    10198    1   DCL NXT$ PTR;
     1013    10199                                                /* Entrys                   */
     1014    10200    1   DCL KHC$CLOCK ENTRY(1) ALTRET;
     1015    10201    1   DCL KVB$RLSSYS ENTRY(2) ALTRET;
     1016    10202    1   DCL GJA$Q_MSG ENTRY(6);
     1017    10203        %EJECT;
PL6.E3A0      #004=GJA$DISOLVE_LGNUSR_CTX File=GJA$LOGON.:E05TSI                 TUE 07/29/97 21:52 Page:166
     1018    10204
     1019    10205        /* Cancel any clock */
     1020    10206    1      CANCEL_CLK.UID$ = CTX$;
     1021    10207    1      CALL KHC$CLOCK(CANCEL_CLK);
     1022    10208
     1023    10209    1      IF CTX$ = GJA_USRLGN_HEAD$
     1024    10210    1      THEN GJA_USRLGN_HEAD$ = GJA$LGNCTX.LNK$;
     1025    10211    1      ELSE
     1026    10212    2   DELINK: DO;
     1027    10213    2           NXT$=GJA_USRLGN_HEAD$;
     1028    10214    3           DO WHILE (NXT$ ~= ADDR(NIL));
     1029    10215    3                IF NXT$->GJA$LGNCTX.LNK$ = CTX$
     1030    10216    4                THEN DO;
     1031    10217    4                     NXT$->GJA$LGNCTX.LNK$=CTX$->GJA$LGNCTX.LNK$;
     1032    10218    4                     EXIT DELINK;
     1033    10219    4                     END;
     1034    10220    3                NXT$=NXT$->GJA$LGNCTX.LNK$;
     1035    10221    3                END;
     1036    10222    2           CALL M$XXX;
     1037    10223    2           END;
     1038    10224
     1039    10225    1      CALL KVB$RLSSYS(SIZEW(GJA$LGNCTX),CTX$);
     1040    10226    1      CTX$=ADDR(NIL);
     1041    10227    1      RETURN;
     1042    10228        %EJECT;
PL6.E3A0      #004=GJA$DISOLVE_LGNUSR_CTX File=GJA$LOGON.:E05TSI                 TUE 07/29/97 21:52 Page:167
     1043    10229    1   GJA$DISOLVE_NA: ENTRY(CTX$);
     1044    10230
     1045    10231    1      IF CTX$ = GJA_NM_HEAD$
     1046    10232    1      THEN
     1047    10233    1           GJA_NM_HEAD$ = GJA$HAND_CTX.LNK$;
     1048    10234    2      ELSE DO;
     1049    10235    2           NXT$ = GJA_NM_HEAD$;
     1050    10236    3           DO WHILE (NXT$ ~= ADDR(NIL));
     1051    10237    3                IF NXT$->GJA$HAND_CTX.LNK$ = CTX$
     1052    10238    4                THEN DO;
     1053    10239    4                     NXT$->GJA$HAND_CTX.LNK$ = CTX$->GJA$HAND_CTX.LNK$;
     1054    10240    4                     GOTO DELINKED;
     1055    10241    4                     END;
     1056    10242    3                NXT$ = NXT$->GJA$HAND_CTX.LNK$;
     1057    10243    3                END;
     1058    10244    2           CALL M$XXX;
     1059    10245    2           END;
     1060    10246
     1061    10247    1   DELINKED: ;
     1062    10248    1      TCTX$ = CTX$->GJA$HAND_CTX.WAITING_MSG$;
     1063    10249    2      DO WHILE (TCTX$ ~= ADDR(NIL));
     1064    10250    2           NXT$ = TCTX$->SV$MSG.NXT$;
     1065    10251    2           CALL KVB$RLSSYS(TCTX$->SV$MSG);
     1066    10252    2           TCTX$=NXT$;
     1067    10253    2           END;
     1068    10254    1      ROUTE$ = KNN$ROUTE$(CTX$->GJA$HAND_CTX.NODE);
     1069    10255    1      KNN$ROUTE.CTX$ = ADDR(NIL);
     1070    10256    1      IF GJA$HAND_CTX.LDCTX = GJA_LDCT_NM THEN
     1071    10257    2      DO;
     1072    10258        /*
     1073    10259                if the link is still active then this is a transport
     1074    10260                disconnect.   The node should be considered active
     1075    10261                until a linkdown is reported
     1076    10262        */
     1077    10263    2           IF KNN$ROUTE.CURRENT_QOS ~= 255 THEN
     1078    10264    2                GJA_MSG_DOWN$ = GJA_MSG_LINKDOWN$;
     1079    10265    2           TCTX$ = GJA_HAND_HEAD$;
PL6.E3A0      #004=GJA$DISOLVE_LGNUSR_CTX File=GJA$LOGON.:E05TSI                 TUE 07/29/97 21:52 Page:168
     1080    10266    3           DO WHILE (TCTX$ ~= ADDR(NIL));
     1081    10267    3                IF TCTX$->GJA$HAND_CTX.WHO = %GJA_UID_HANDLER AND
     1082    10268    3                  TCTX$->GJA$HAND_CTX.BLK
     1083    10269    4                THEN DO;
     1084    10270    4                     CALL GJA$Q_MSG ( TCTX$,LENGTHC(KV_VDO_RQSDAT),KV_VDO_RQSDAT);
     1085    10271    4                     TCTX$->GJA$HAND_CTX.BLK = '0'B;
     1086    10272    4                     END;
     1087    10273    3                TCTX$ = TCTX$->GJA$HAND_CTX.LNK$;
     1088    10274    3                END;
     1089    10275    2           END;
     1090    10276    1      CALL KVB$RLSSYS(SIZEW(GJA$HAND_CTX),CTX$);
     1091    10277    1      CTX$ = ADDR(NIL);
     1092    10278    1      RETURN;
     1093    10279
     1094    10280        %EJECT;
PL6.E3A0      #004=GJA$DISOLVE_LGNUSR_CTX File=GJA$LOGON.:E05TSI                 TUE 07/29/97 21:52 Page:169
     1095    10281    1   GJA$DISOLVE_ERRMSG_CTX: ENTRY(CTX$);
     1096    10282
     1097    10283    1      IF CTX$ = GJA_ERRMSG_HEAD$
     1098    10284    2      THEN DO;
     1099    10285    2           GJA_ERRMSG_HEAD$ = GJA$ERRMSG_CTX.LNK$;
     1100    10286    2           NXT$ = GJA_ERRMSG_HEAD$;
     1101    10287    2           END;
     1102    10288    2      ELSE DO;
     1103    10289    2           NXT$ = GJA_ERRMSG_HEAD$;
     1104    10290    3           DO WHILE (NXT$ ~= ADDR(NIL));
     1105    10291    3                IF NXT$->GJA$ERRMSG_CTX.LNK$ = CTX$
     1106    10292    4                THEN DO;
     1107    10293    4                     NXT$->GJA$ERRMSG_CTX.LNK$ = CTX$->GJA$HAND_CTX.LNK$;
     1108    10294    4                     GOTO ERRMSG_DELINKED;
     1109    10295    4                     END;
     1110    10296    3                NXT$ = NXT$->GJA$ERRMSG_CTX.LNK$;
     1111    10297    3                END;
     1112    10298    2           CALL M$XXX;
     1113    10299    2           END;
     1114    10300
     1115    10301    1   ERRMSG_DELINKED: ;
     1116    10302    1      CALL KVB$RLSSYS(SIZEW(GJA$ERRMSG_CTX),CTX$);
     1117    10303    1      CTX$ = NXT$;                    /*return the next in the chain*/
     1118    10304    1      RETURN;
     1119    10305
     1120    10306    1   END;
     1121    10307        %EOD;

PL6.E3A0      #004=GJA$DISOLVE_LGNUSR_CTX File=GJA$LOGON.:E05TSI                 TUE 07/29/97 21:52 Page:170
--  Include file information  --

   KNN_NETWORK_M.:E05TOU  is referenced.
   KV$VDO.:E05TOU  is referenced.
   G_LCP6_E.:E05TOU  is referenced.
   GT_LCP6_M.:E05TOU  is referenced.
   KI_CP6.:E05TOU  is referenced.
   GF_LCP6_M.:E05TOU  is referenced.
   GM_LCP6_M.:E05TOU  is referenced.
   GU_LCP6_M.:E05TOU  is referenced.
   GJ_LCP6_M.:E05TOU  is referenced.
   GH_LCP6_M.:E05TOU  is referenced.
   LCP_6.:E05TOU  cannot be made into a system file and is referenced.
   GJA_MSG_M.:E05TOU  is referenced.
   KL_MACRO_C.:E05TOU  is referenced.
   KH_CLKFNC_E.:E05TOU  is referenced.
   KH$CLK.:E05TOU  is referenced.
      No diagnostics issued in procedure GJA$DISOLVE_LGNUSR_CTX.

   Procedure GJA$DISOLVE_LGNUSR_CTX requires 368 words for executable code.
   Procedure GJA$DISOLVE_LGNUSR_CTX requires 18 words of local(AUTO) storage.

PL6.E3A0      #004=GJA$DISOLVE_LGNUSR_CTX File=GJA$LOGON.:E05TSI                 TUE 07/29/97 21:52 Page:171

 Object Unit name= GJA$DISOLVE_LGNUSR_CTX                     File name= GJA$LOGON.:E05TOU
 UTS= JUL 29 '97 21:52:47.72 TUE                              Compiler= PL-6/E31         Sev=      00
 SharedLib= :SHARED_LCP6_SYSTEM                               Alt SharedLib=


    ****  Control sections  ****

 Sect   Type Bound  Init  Size HexSiz  Section name
    0   Data  even  none    13      D  GJA$DISOLVE_LGNUSR_CTX
    1   Proc  even  none   368    170  GJA$DISOLVE_LGNUSR_CTX
    2  RoData even  none     2      2  GJA$DISOLVE_LGNUSR_CTX

    ****  Entry defs  ****

                              Check   Calling
                             calling  sequence
  Sect HexLoc Primary Altret sequence   type   Parms  Name
     1      0   yes            yes      Std        1  GJA$DISOLVE_LGNUSR_CTX
     1     5C                  yes      Std        1  GJA$DISOLVE_NA
     1    122                  yes      Std        1  GJA$DISOLVE_ERRMSG_CTX

  ****  Entry refs  ****

         Check        Calling
        calling       sequence
Altret sequence SRef   type   Args  Name
 yes     yes           Std       1 KHC$CLOCK
 yes     yes           Std       2 KVB$RLSSYS
         yes           Std       6 GJA$Q_MSG
                       nStd      0 X6A_AUTO_1
                       nStd      0 X6A_ARET
PL6.E3A0      #004=GJA$DISOLVE_LGNUSR_CTX File=GJA$LOGON.:E05TSI                 TUE 07/29/97 21:52 Page:172

  ****  Data refs  ****

  Flags:  r = read only, s = secondary
Flgs Name                             Flgs Name                             Flgs Name
     GJA_USRLGN_HEAD$                      GJA_NM_HEAD$                          GJA_ERRMSG_HEAD$
     GJA_UID_NM                            GJA_LDCT_NM                           GJA_HAND_HEAD$
     GJA_ROUTE$                            GJA_MSG_DOWN$                         GJA_MSG_LINKDOWN$
r    G$ROS$
PL6.E3A0      #004=GJA$DISOLVE_LGNUSR_CTX File=GJA$LOGON.:E05TSI                 TUE 07/29/97 21:52 Page:173


      943        1        /*T***********************************************************/
      944        2        /*T*                                                         */
      945        3        /*T* Copyright (c) Bull HN Information Systems Inc., 1997    */
      946        4        /*T*                                                         */
      947        5        /*T***********************************************************/
      948        6
      949        7        /*F*    NAME:    GJA$DISOLVE_LGNUSR_CTX
      950        8
      951        9                PURPOSE: This routine gets rid of a GJA$LGNCTX block that is
      952       10                         no longer needed.
      953       11
      954       12                DESCRIPTION:  This routine is very simple.  It just delinks the
      955       13                              context block and calls the buddy space manager
      956       14                              to give the space back.
      957       15
      958       16                CALL:  CALL GJA$DISOLVE_LGNUSR_CTX(CTX$)
      959       17
      960       18                INPUT: CTX$ - A pointer to the context block to be disolved.
      961       19        */
      962       20        %EJECT;
PL6.E3A0      #004=GJA$DISOLVE_LGNUSR_CTX File=GJA$LOGON.:E05TSI                 TUE 07/29/97 21:52 Page:174
      963       21        GJA$DISOLVE_LGNUSR_CTX: PROC(CTX$);

     21   1 000000  D380 0000 0000  xent GJA$DISOLVE_LGN*LNJ,B5   X6A_AUTO_1
          1 000003       0012 0001                       DC       18,1

      964       22
      965       23        %INCLUDE KH$CLK;
      966      393        %INCLUDE KH_CLKFNC_E;
      967      438        %INCLUDE KL_MACRO_C;
      968     3790        %INCLUDE GJA_MSG_M;
      969     4029        %INCLUDE LCP_6;
      970     8308        %INCLUDE KV$VDO;
      971     9323        %INCLUDE KNN_NETWORK_M;
      972     9686                                                /* Args                     */
      973     9687    1   DCL CTX$ PTR;
      974     9688    1   DCL TCTX$ PTR;
      975     9689    1   DCL ROUTE$ PTR;
      976     9690                                                /* Symrefs                  */
      977     9691    1   DCL GJA_USRLGN_HEAD$ PTR SYMREF;
      978     9692    1   DCL GJA_NM_HEAD$ PTR SYMREF;
      979     9693    1   DCL GJA_ERRMSG_HEAD$ PTR SYMREF;
      980     9694    1   DCL GJA_UID_NM UBIN(32) SYMREF;
      981     9695    1   DCL GJA_UID_NM$ REDEF GJA_UID_NM PTR;
      982     9696    1   DCL GJA_LDCT_NM UBIN SYMREF;
      983     9697    1   DCL GJA_HAND_HEAD$ PTR SYMREF;
      984     9698    1   DCL GJA_ROUTE$ PTR SYMREF;
      985     9699    1   DCL GJA_MSG_DOWN$ PTR SYMREF;
      986     9700    1   DCL GJA_MSG_HOSTDOWN$ PTR SYMREF;
      987     9701    1   DCL GJA_MSG_LINKDOWN$ PTR SYMREF;
      988     9702                                                /* Static                   */
      989     9703        %KH$CLK (FPTN=CANCEL_CLK,
      990     9704                  STCLASS=STATIC,
      991     9705                  FNC=%KH#CLK_CANCEL,
      992     9706                  VDH_CLK=NO,
      993     9707                  NO_CTB=YES,
      994     9708                  PERM=NO,
      995     9709                  PRDUNT=KH#C_MIN,
PL6.E3A0      #004=GJA$DISOLVE_LGNUSR_CTX File=GJA$LOGON.:E05TSI                 TUE 07/29/97 21:52 Page:175
      996     9710                  PRD=0);
      997     9859                                                /* Based                    */
      998     9860        %GJA$LGNCTX(STCLASS="BASED(CTX$)");
      999     9945        %GJA$HAND_CTX(STCLASS="BASED(CTX$)");
     1000     9994        %GJA$ERRMSG_CTX(STCLASS="BASED(CTX$)");
     1001    10022    1   DCL KNN$ROUTE$(0:0) PTR BASED(GJA_ROUTE$);
     1002    10023        %KNN$ROUTE(STCLASS="BASED(ROUTE$)");
     1003    10095    1   DCL 1 SV$MSG BASED,
     1004    10096    1         2 BFRSIZ UBIN,
     1005    10097    1         2 NXT$ PTR;
     1006    10098        %KV_VDO_E;
     1007    10134        %KV_DATMOD_E;
     1008    10140        %GJA_UID_EQUS;
     1009    10148        %KV$VDO_RQSDAT(NAME=KV_VDO_RQSDAT,MAXRCRBYTSIZ=2048,
     1010    10149                       MAXNMBRCR=999,MAXNMBBYT=2048,STCLASS=STATIC);
     1011    10197                                                /* AUTO Storage             */
     1012    10198    1   DCL NXT$ PTR;
     1013    10199                                                /* Entrys                   */
     1014    10200    1   DCL KHC$CLOCK ENTRY(1) ALTRET;
     1015    10201    1   DCL KVB$RLSSYS ENTRY(2) ALTRET;
     1016    10202    1   DCL GJA$Q_MSG ENTRY(6);
     1017    10203        %EJECT;
PL6.E3A0      #004=GJA$DISOLVE_LGNUSR_CTX File=GJA$LOGON.:E05TSI                 TUE 07/29/97 21:52 Page:176
     1018    10204
     1019    10205        /* Cancel any clock */
     1020    10206    1      CANCEL_CLK.UID$ = CTX$;

  10206   1 000005  ECC7 0004                            LDB,B6   @CTX$,AUTO
          1 000007  DC86                                 LDB,B5   ,B6
          1 000008  DF80 0000 0002  00                   STB,B5   CANCEL_CLK+2

     1021    10207    1      CALL KHC$CLOCK(CANCEL_CLK);

  10207   1 00000B  BB80 0000 0000  02                   LAB,B3   0
          1 00000E  CBF0 0100                            LAB,B4   256,IMO
          1 000010  E380 0000 0000  xent                 LNJ,B6   KHC$CLOCK
          1 000013       0001                            DC       s:10209,PREL

     1022    10208
     1023    10209    1      IF CTX$ = GJA_USRLGN_HEAD$

  10209   1 000014  ECC7 0004                            LDB,B6   @CTX$,AUTO
          1 000016  DC86                                 LDB,B5   ,B6
          1 000017  DD80 0000 0000  xsym                 CMB,B5   GJA_USRLGN_HEAD$
          1 00001A  0981 0008                            BNE      s:10212,PREL

     1024    10210    1      THEN GJA_USRLGN_HEAD$ = GJA$LGNCTX.LNK$;

  10210   1 00001C  CCC5 0001                            LDB,B4   1,B5
          1 00001E  CF80 0000 0000  xsym                 STB,B4   GJA_USRLGN_HEAD$
          1 000021  0F81 0021                            B        s:10225,PREL

     1025    10211    1      ELSE
     1026    10212    2   DELINK: DO;

  10212   1                              DELINK          null
     1027    10213    2           NXT$=GJA_USRLGN_HEAD$;

  10213   1 000023  CC80 0000 0000  xsym DELINK          LDB,B4   GJA_USRLGN_HEAD$
          1 000026  CFC7 000A                            STB,B4   NXT$,AUTO
PL6.E3A0      #004=GJA$DISOLVE_LGNUSR_CTX File=GJA$LOGON.:E05TSI                 TUE 07/29/97 21:52 Page:177

     1028    10214    3           DO WHILE (NXT$ ~= ADDR(NIL));

  10214   1 000028  0F81 0013                            B        s:10221,PREL

     1029    10215    3                IF NXT$->GJA$LGNCTX.LNK$ = CTX$

  10215   1 00002A  ECC7 000A                            LDB,B6   NXT$,AUTO
          1 00002C  DCC6 0001                            LDB,B5   1,B6
          1 00002E  CCC7 0004                            LDB,B4   @CTX$,AUTO
          1 000030  DD84                                 CMB,B5   ,B4
          1 000031  0981 0008                            BNE      s:10220,PREL

     1030    10216    4                THEN DO;

     1031    10217    4                     NXT$->GJA$LGNCTX.LNK$=CTX$->GJA$LGNCTX.LNK$;

  10217   1 000033  BC84                                 LDB,B3   ,B4
          1 000034  ACC3 0001                            LDB,B2   1,B3
          1 000036  AFC6 0001                            STB,B2   1,B6

     1032    10218    4                     EXIT DELINK;

  10218   1 000038  0F81 000A                            B        s:10225,PREL

     1033    10219    4                     END;
     1034    10220    3                NXT$=NXT$->GJA$LGNCTX.LNK$;

  10220   1 00003A  DFC7 000A                            STB,B5   NXT$,AUTO

     1035    10221    3                END;

  10221   1 00003C  8DC7 000A                            CMN      NXT$,AUTO
          1 00003E  09EC                                 BNE      s:10215,SPREL

     1036    10222    2           CALL M$XXX;

PL6.E3A0      #004=GJA$DISOLVE_LGNUSR_CTX File=GJA$LOGON.:E05TSI                 TUE 07/29/97 21:52 Page:178
  10222   1 00003F  B870 0082                            LDR,R3   130,IMO
          1 000041  0001                                 MCL
          1 000042       0000                            DC       s:10222+3,PREL

     1037    10223    2           END;

     1038    10224
     1039    10225    1      CALL KVB$RLSSYS(SIZEW(GJA$LGNCTX),CTX$);

  10225   1 000043  EBF0 0021                            LAB,B6   33,IMO
          1 000045  DCC7 0004                            LDB,B5   @CTX$,AUTO
          1 000047  DFC7 000E                            STB,B5   NXT$+4,AUTO
          1 000049  EFC7 000C                            STB,B6   NXT$+2,AUTO
          1 00004B  BBC7 000C                            LAB,B3   NXT$+2,AUTO
          1 00004D  CBF0 0200                            LAB,B4   512,IMO
          1 00004F  E380 0000 0000  xent                 LNJ,B6   KVB$RLSSYS
          1 000052       0001                            DC       s:10226,PREL

     1040    10226    1      CTX$=ADDR(NIL);

  10226   1 000053  EB80 0000 0000                       LAB,B6   0
          1 000056  DCC7 0004                            LDB,B5   @CTX$,AUTO
          1 000058  EF85                                 STB,B6   ,B5

     1041    10227    1      RETURN;

  10227   1 000059  C380 0000 0000  xent                 LNJ,B4   X6A_ARET

     1042    10228        %EJECT;
PL6.E3A0      #004=GJA$DISOLVE_LGNUSR_CTX File=GJA$LOGON.:E05TSI                 TUE 07/29/97 21:52 Page:179
     1043    10229    1   GJA$DISOLVE_NA: ENTRY(CTX$);

  10229   1 00005C  D380 0000 0000  xent GJA$DISOLVE_NA  LNJ,B5   X6A_AUTO_1
          1 00005F       0012 0001                       DC       18,1

     1044    10230
     1045    10231    1      IF CTX$ = GJA_NM_HEAD$

  10231   1 000061  ECC7 0004                            LDB,B6   @CTX$,AUTO
          1 000063  DC86                                 LDB,B5   ,B6
          1 000064  DD80 0000 0000  xsym                 CMB,B5   GJA_NM_HEAD$
          1 000067  0981 0008                            BNE      s:10235,PREL

     1046    10232    1      THEN
     1047    10233    1           GJA_NM_HEAD$ = GJA$HAND_CTX.LNK$;

  10233   1 000069  CCC5 0001                            LDB,B4   1,B5
          1 00006B  CF80 0000 0000  xsym                 STB,B4   GJA_NM_HEAD$
          1 00006E  0F81 0021                            B        s:10245,PREL

     1048    10234    2      ELSE DO;

     1049    10235    2           NXT$ = GJA_NM_HEAD$;

  10235   1 000070  CC80 0000 0000  xsym                 LDB,B4   GJA_NM_HEAD$
          1 000073  CFC7 000A                            STB,B4   NXT$,AUTO

     1050    10236    3           DO WHILE (NXT$ ~= ADDR(NIL));

  10236   1 000075  0F81 0013                            B        s:10243,PREL

     1051    10237    3                IF NXT$->GJA$HAND_CTX.LNK$ = CTX$

  10237   1 000077  ECC7 000A                            LDB,B6   NXT$,AUTO
          1 000079  DCC6 0001                            LDB,B5   1,B6
          1 00007B  CCC7 0004                            LDB,B4   @CTX$,AUTO
          1 00007D  DD84                                 CMB,B5   ,B4
PL6.E3A0      #004=GJA$DISOLVE_LGNUSR_CTX File=GJA$LOGON.:E05TSI                 TUE 07/29/97 21:52 Page:180
          1 00007E  0981 0008                            BNE      s:10242,PREL

     1052    10238    4                THEN DO;

     1053    10239    4                     NXT$->GJA$HAND_CTX.LNK$ = CTX$->GJA$HAND_CTX.LNK$;

  10239   1 000080  BC84                                 LDB,B3   ,B4
          1 000081  ACC3 0001                            LDB,B2   1,B3
          1 000083  AFC6 0001                            STB,B2   1,B6

     1054    10240    4                     GOTO DELINKED;

  10240   1 000085  0F81 000A                            B        s:10245,PREL

     1055    10241    4                     END;
     1056    10242    3                NXT$ = NXT$->GJA$HAND_CTX.LNK$;

  10242   1 000087  DFC7 000A                            STB,B5   NXT$,AUTO

     1057    10243    3                END;

  10243   1 000089  8DC7 000A                            CMN      NXT$,AUTO
          1 00008B  09EC                                 BNE      s:10237,SPREL

     1058    10244    2           CALL M$XXX;

  10244   1 00008C  B870 0082                            LDR,R3   130,IMO
          1 00008E  0001                                 MCL
          1 00008F       0000                            DC       s:10244+3,PREL

     1059    10245    2           END;

  10240   1                              DELINKED        null
     1060    10246
     1061    10247    1   DELINKED: ;
     1062    10248    1      TCTX$ = CTX$->GJA$HAND_CTX.WAITING_MSG$;

PL6.E3A0      #004=GJA$DISOLVE_LGNUSR_CTX File=GJA$LOGON.:E05TSI                 TUE 07/29/97 21:52 Page:181
  10248   1 000090  ECC7 0004            DELINKED        LDB,B6   @CTX$,AUTO
          1 000092  DC86                                 LDB,B5   ,B6
          1 000093  CCC5 0007                            LDB,B4   7,B5
          1 000095  CFC7 0006                            STB,B4   TCTX$,AUTO

     1063    10249    2      DO WHILE (TCTX$ ~= ADDR(NIL));

  10249   1 000097  0F81 0013                            B        s:10253,PREL

     1064    10250    2           NXT$ = TCTX$->SV$MSG.NXT$;

  10250   1 000099  ECC7 0006                            LDB,B6   TCTX$,AUTO
          1 00009B  DCC6 0001                            LDB,B5   1,B6
          1 00009D  DFC7 000A                            STB,B5   NXT$,AUTO

     1065    10251    2           CALL KVB$RLSSYS(TCTX$->SV$MSG);

  10251   1 00009F  BBC7 0006                            LAB,B3   TCTX$,AUTO
          1 0000A1  CBF0 0100                            LAB,B4   256,IMO
          1 0000A3  E380 0000 0000  xent                 LNJ,B6   KVB$RLSSYS
          1 0000A6       0001                            DC       s:10252,PREL

     1066    10252    2           TCTX$=NXT$;

  10252   1 0000A7  ECC7 000A                            LDB,B6   NXT$,AUTO
          1 0000A9  EFC7 0006                            STB,B6   TCTX$,AUTO

     1067    10253    2           END;

  10253   1 0000AB  8DC7 0006                            CMN      TCTX$,AUTO
          1 0000AD  09EC                                 BNE      s:10250,SPREL

     1068    10254    1      ROUTE$ = KNN$ROUTE$(CTX$->GJA$HAND_CTX.NODE);

  10254   1 0000AE  ECC7 0004                            LDB,B6   @CTX$,AUTO
          1 0000B0  DC86                                 LDB,B5   ,B6
          1 0000B1  B845 000D                            LDR,R3   13,B5
PL6.E3A0      #004=GJA$DISOLVE_LGNUSR_CTX File=GJA$LOGON.:E05TSI                 TUE 07/29/97 21:52 Page:182
          1 0000B3  B570 00FF                            AND,R3   255,IMO
          1 0000B5  CC80 0000 0000  xsym                 LDB,B4   GJA_ROUTE$
          1 0000B8  BCB4                                 LDB,B3   ,B4,R3
          1 0000B9  BFC7 0008                            STB,B3   ROUTE$,AUTO

     1069    10255    1      KNN$ROUTE.CTX$ = ADDR(NIL);

  10255   1 0000BB  AB80 0000 0000                       LAB,B2   0
          1 0000BE  AFC3 0002                            STB,B2   2,B3

     1070    10256    1      IF GJA$HAND_CTX.LDCTX = GJA_LDCT_NM THEN

  10256   1 0000C0  DC86                                 LDB,B5   ,B6
          1 0000C1  E805                                 LDR,R6   ,B5
          1 0000C2  E570 1FFF                            AND,R6   8191,IMO
          1 0000C4  E900 0000 0000  xsym                 CMR,R6   GJA_LDCT_NM
          1 0000C7  0981 0041                            BNE      s:10276,PREL

     1071    10257    2      DO;

     1072    10258        /*
     1073    10259                if the link is still active then this is a transport
     1074    10260                disconnect.   The node should be considered active
     1075    10261                until a linkdown is reported
     1076    10262        */
     1077    10263    2           IF KNN$ROUTE.CURRENT_QOS ~= 255 THEN

  10263   1 0000C9  D843 0005                            LDR,R5   5,B3
          1 0000CB  D970 00FF                            CMR,R5   255,IMO
          1 0000CD  0901 0007                            BE       s:10265,PREL

     1078    10264    2                GJA_MSG_DOWN$ = GJA_MSG_LINKDOWN$;

  10264   1 0000CF  9C80 0000 0000  xsym                 LDB,B1   GJA_MSG_LINKDOWN$
          1 0000D2  9F80 0000 0000  xsym                 STB,B1   GJA_MSG_DOWN$

     1079    10265    2           TCTX$ = GJA_HAND_HEAD$;
PL6.E3A0      #004=GJA$DISOLVE_LGNUSR_CTX File=GJA$LOGON.:E05TSI                 TUE 07/29/97 21:52 Page:183

  10265   1 0000D5  DC80 0000 0000  xsym                 LDB,B5   GJA_HAND_HEAD$
          1 0000D8  DFC7 0006                            STB,B5   TCTX$,AUTO

     1080    10266    3           DO WHILE (TCTX$ ~= ADDR(NIL));

  10266   1 0000DA  0F81 002B                            B        s:10274,PREL

     1081    10267    3                IF TCTX$->GJA$HAND_CTX.WHO = %GJA_UID_HANDLER AND

  10267   1 0000DC  ECC7 0006                            LDB,B6   TCTX$,AUTO
          1 0000DE  E806                                 LDR,R6   ,B6
          1 0000DF  604D                                 SOR,R6   13
          1 0000E0  6D03                                 CMV,R6   3
          1 0000E1  0981 0020                            BNE      s:10273,PREL
          1 0000E3  82C6 000D                            LB,'1000'X        13,B6
          1 0000E5       1000
          1 0000E6  0581 001B                            BBF      s:10273,PREL

     1082    10268    3                  TCTX$->GJA$HAND_CTX.BLK
     1083    10269    4                THEN DO;

     1084    10270    4                     CALL GJA$Q_MSG ( TCTX$,LENGTHC(KV_VDO_RQSDAT),KV_VDO_RQSDAT);

  10270   1 0000E8  DBF0 000A                            LAB,B5   10,IMO
          1 0000EA  CB80 0000 0008  00                   LAB,B4   KV_VDO_RQSDAT
          1 0000ED  CFC7 0010                            STB,B4   NXT$+6,AUTO
          1 0000EF  DFC7 000E                            STB,B5   NXT$+4,AUTO
          1 0000F1  BBC7 0006                            LAB,B3   TCTX$,AUTO
          1 0000F3  BFC7 000C                            STB,B3   NXT$+2,AUTO
          1 0000F5  BBC7 000C                            LAB,B3   NXT$+2,AUTO
          1 0000F7  CBF0 0300                            LAB,B4   768,IMO
          1 0000F9  E380 0000 0000  xent                 LNJ,B6   GJA$Q_MSG
          1 0000FC       0001                            DC       s:10271,PREL

     1085    10271    4                     TCTX$->GJA$HAND_CTX.BLK = '0'B;

PL6.E3A0      #004=GJA$DISOLVE_LGNUSR_CTX File=GJA$LOGON.:E05TSI                 TUE 07/29/97 21:52 Page:184
  10271   1 0000FD  ECC7 0006                            LDB,B6   TCTX$,AUTO
          1 0000FF  8846 000D                            LBF,'1000'X       13,B6
          1 000101       1000

     1086    10272    4                     END;

     1087    10273    3                TCTX$ = TCTX$->GJA$HAND_CTX.LNK$;

  10273   1 000102  DCC6 0001                            LDB,B5   1,B6
          1 000104  DFC7 0006                            STB,B5   TCTX$,AUTO

     1088    10274    3                END;

  10274   1 000106  8DC7 0006                            CMN      TCTX$,AUTO
          1 000108  09D4                                 BNE      s:10267,SPREL

     1089    10275    2           END;

     1090    10276    1      CALL KVB$RLSSYS(SIZEW(GJA$HAND_CTX),CTX$);

  10276   1 000109  EBF0 0011                            LAB,B6   17,IMO
          1 00010B  DCC7 0004                            LDB,B5   @CTX$,AUTO
          1 00010D  DFC7 000E                            STB,B5   NXT$+4,AUTO
          1 00010F  EFC7 000C                            STB,B6   NXT$+2,AUTO
          1 000111  BBC7 000C                            LAB,B3   NXT$+2,AUTO
          1 000113  CBF0 0200                            LAB,B4   512,IMO
          1 000115  E380 0000 0000  xent                 LNJ,B6   KVB$RLSSYS
          1 000118       0001                            DC       s:10277,PREL

     1091    10277    1      CTX$ = ADDR(NIL);

  10277   1 000119  EB80 0000 0000                       LAB,B6   0
          1 00011C  DCC7 0004                            LDB,B5   @CTX$,AUTO
          1 00011E  EF85                                 STB,B6   ,B5

     1092    10278    1      RETURN;

PL6.E3A0      #004=GJA$DISOLVE_LGNUSR_CTX File=GJA$LOGON.:E05TSI                 TUE 07/29/97 21:52 Page:185
  10278   1 00011F  C380 0000 0000  xent                 LNJ,B4   X6A_ARET

     1093    10279
     1094    10280        %EJECT;
PL6.E3A0      #004=GJA$DISOLVE_LGNUSR_CTX File=GJA$LOGON.:E05TSI                 TUE 07/29/97 21:52 Page:186
     1095    10281    1   GJA$DISOLVE_ERRMSG_CTX: ENTRY(CTX$);

  10281   1 000122  D380 0000 0000  xent GJA$DISOLVE_ERR*LNJ,B5   X6A_AUTO_1
          1 000125       0012 0001                       DC       18,1

     1096    10282
     1097    10283    1      IF CTX$ = GJA_ERRMSG_HEAD$

  10283   1 000127  ECC7 0004                            LDB,B6   @CTX$,AUTO
          1 000129  DC86                                 LDB,B5   ,B6
          1 00012A  DD80 0000 0000  xsym                 CMB,B5   GJA_ERRMSG_HEAD$
          1 00012D  0981 000A                            BNE      s:10289,PREL

     1098    10284    2      THEN DO;

     1099    10285    2           GJA_ERRMSG_HEAD$ = GJA$ERRMSG_CTX.LNK$;

  10285   1 00012F  CCC5 0001                            LDB,B4   1,B5
          1 000131  CF80 0000 0000  xsym                 STB,B4   GJA_ERRMSG_HEAD$

     1100    10286    2           NXT$ = GJA_ERRMSG_HEAD$;

  10286   1 000134  CFC7 000A                            STB,B4   NXT$,AUTO

     1101    10287    2           END;

  10287   1 000136  0F81 0021                            B        s:10299,PREL

     1102    10288    2      ELSE DO;

     1103    10289    2           NXT$ = GJA_ERRMSG_HEAD$;

  10289   1 000138  CC80 0000 0000  xsym                 LDB,B4   GJA_ERRMSG_HEAD$
          1 00013B  CFC7 000A                            STB,B4   NXT$,AUTO

     1104    10290    3           DO WHILE (NXT$ ~= ADDR(NIL));

PL6.E3A0      #004=GJA$DISOLVE_LGNUSR_CTX File=GJA$LOGON.:E05TSI                 TUE 07/29/97 21:52 Page:187
  10290   1 00013D  0F81 0013                            B        s:10297,PREL

     1105    10291    3                IF NXT$->GJA$ERRMSG_CTX.LNK$ = CTX$

  10291   1 00013F  ECC7 000A                            LDB,B6   NXT$,AUTO
          1 000141  DCC6 0001                            LDB,B5   1,B6
          1 000143  CCC7 0004                            LDB,B4   @CTX$,AUTO
          1 000145  DD84                                 CMB,B5   ,B4
          1 000146  0981 0008                            BNE      s:10296,PREL

     1106    10292    4                THEN DO;

     1107    10293    4                     NXT$->GJA$ERRMSG_CTX.LNK$ = CTX$->GJA$HAND_CTX.LNK$;

  10293   1 000148  BC84                                 LDB,B3   ,B4
          1 000149  ACC3 0001                            LDB,B2   1,B3
          1 00014B  AFC6 0001                            STB,B2   1,B6

     1108    10294    4                     GOTO ERRMSG_DELINKED;

  10294   1 00014D  0F81 000A                            B        s:10299,PREL

     1109    10295    4                     END;
     1110    10296    3                NXT$ = NXT$->GJA$ERRMSG_CTX.LNK$;

  10296   1 00014F  DFC7 000A                            STB,B5   NXT$,AUTO

     1111    10297    3                END;

  10297   1 000151  8DC7 000A                            CMN      NXT$,AUTO
          1 000153  09EC                                 BNE      s:10291,SPREL

     1112    10298    2           CALL M$XXX;

  10298   1 000154  B870 0082                            LDR,R3   130,IMO
          1 000156  0001                                 MCL
          1 000157       0000                            DC       s:10298+3,PREL
PL6.E3A0      #004=GJA$DISOLVE_LGNUSR_CTX File=GJA$LOGON.:E05TSI                 TUE 07/29/97 21:52 Page:188

     1113    10299    2           END;

  10293   1                              ERRMSG_DELINKED null
     1114    10300
     1115    10301    1   ERRMSG_DELINKED: ;
     1116    10302    1      CALL KVB$RLSSYS(SIZEW(GJA$ERRMSG_CTX),CTX$);

  10302   1 000158  EBF0 000A            ERRMSG_DELINKED LAB,B6   10,IMO
          1 00015A  DCC7 0004                            LDB,B5   @CTX$,AUTO
          1 00015C  DFC7 000E                            STB,B5   NXT$+4,AUTO
          1 00015E  EFC7 000C                            STB,B6   NXT$+2,AUTO
          1 000160  BBC7 000C                            LAB,B3   NXT$+2,AUTO
          1 000162  CBF0 0200                            LAB,B4   512,IMO
          1 000164  E380 0000 0000  xent                 LNJ,B6   KVB$RLSSYS
          1 000167       0001                            DC       s:10303,PREL

     1117    10303    1      CTX$ = NXT$;                    /*return the next in the chain*/

  10303   1 000168  ECC7 000A                            LDB,B6   NXT$,AUTO
          1 00016A  DCC7 0004                            LDB,B5   @CTX$,AUTO
          1 00016C  EF85                                 STB,B6   ,B5

     1118    10304    1      RETURN;

  10304   1 00016D  C380 0000 0000  xent                 LNJ,B4   X6A_ARET
     1119    10305
     1120    10306    1   END;
     1121    10307        %EOD;

PL6.E3A0      #004=GJA$DISOLVE_LGNUSR_CTX File=GJA$LOGON.:E05TSI                 TUE 07/29/97 21:52 Page:189
--  Include file information  --

   KNN_NETWORK_M.:E05TOU  is referenced.
   KV$VDO.:E05TOU  is referenced.
   G_LCP6_E.:E05TOU  is referenced.
   GT_LCP6_M.:E05TOU  is referenced.
   KI_CP6.:E05TOU  is referenced.
   GF_LCP6_M.:E05TOU  is referenced.
   GM_LCP6_M.:E05TOU  is referenced.
   GU_LCP6_M.:E05TOU  is referenced.
   GJ_LCP6_M.:E05TOU  is referenced.
   GH_LCP6_M.:E05TOU  is referenced.
   LCP_6.:E05TOU  cannot be made into a system file and is referenced.
   GJA_MSG_M.:E05TOU  is referenced.
   KL_MACRO_C.:E05TOU  is referenced.
   KH_CLKFNC_E.:E05TOU  is referenced.
   KH$CLK.:E05TOU  is referenced.
      No diagnostics issued in procedure GJA$DISOLVE_LGNUSR_CTX.
PL6.E3A0      #004=GJA$DISOLVE_LGNUSR_CTX File=GJA$LOGON.:E05TSI                 TUE 07/29/97 21:52 Page:190

 **** Variables and constants ****

  ****  Section 000  Data  GJA$DISOLVE_LGNUSR_CTX

  ****  Scalars and arrays  ****
HexLoc.c.b A Datatyp(siz) R M Lvl/name                 HexLoc.c.b A Datatyp(siz) R M Lvl/name

     0-0-0/w STRC(128)   r     1 CANCEL_CLK                 8-0-0/w STRC(80)    r     1 KV_VDO_RQSDAT

  ****  Auto variables  ****

  ****  Scalars and arrays  ****
HexLoc.c.b A Datatyp(siz) R M Lvl/name                 HexLoc.c.b A Datatyp(siz) R M Lvl/name

     4-0-0/w PTR         r     1 @CTX$                     *0-0-0/w PTR         r     1 CTX$
     A-0-0/w PTR         r     1 NXT$                       8-0-0/w PTR         r     1 ROUTE$
     6-0-0/w PTR         r     1 TCTX$

  ****  SYMREF variables  ****

  ****  Scalars and arrays  ****
HexLoc.c.b A Datatyp(siz) R M Lvl/name                 HexLoc.c.b A Datatyp(siz) R M Lvl/name

     0-0-0/w PTR         r     1 GJA_ERRMSG_HEAD$           0-0-0/w PTR         r     1 GJA_HAND_HEAD$
     0-0-0/w UBIN(16)    r     1 GJA_LDCT_NM                0-0-0/w PTR         r     1 GJA_MSG_DOWN$
     0-0-0/w PTR         r     1 GJA_MSG_LINKDOWN$          0-0-0/w PTR         r     1 GJA_NM_HEAD$
     0-0-0/w PTR         r     1 GJA_ROUTE$                 0-0-0/w PTR         r     1 GJA_USRLGN_HEAD$

  ****  BASED and DCB variables  ****

  ****  Scalars and arrays  ****
HexLoc.c.b A Datatyp(siz) R M Lvl/name                 HexLoc.c.b A Datatyp(siz) R M Lvl/name

     0-0-0/c STRC(160)   r     1 GJA$ERRMSG_CTX             0-0-0/c STRC(272)   r     1 GJA$HAND_CTX
     0-0-0/w STRC(528)   r     1 GJA$LGNCTX                 0-0-0/w STRC(208)   r     1 KNN$ROUTE
     0-0-0/w PTR         r     1 KNN$ROUTE$(0:0)
     0-0-0/w STRC(48)    r     1 SV$MSG
PL6.E3A0      #004=GJA$DISOLVE_LGNUSR_CTX File=GJA$LOGON.:E05TSI                 TUE 07/29/97 21:52 Page:191


   Procedure GJA$DISOLVE_LGNUSR_CTX requires 368 words for executable code.
   Procedure GJA$DISOLVE_LGNUSR_CTX requires 18 words of local(AUTO) storage.
PL6.E3A0      #004=GJA$DISOLVE_LGNUSR_CTX File=GJA$LOGON.:E05TSI                 TUE 07/29/97 21:52 Page:192
          *** CROSS REFERENCE LISTING ***
**     DENOTES     IDENTIFIER DEFINITION
<<                 IDENTIFIER'S VALUE SET
>>                 IDENTIFIER'S VALUE USED
<>                 IDENTIFIER SET AND/OR USED
--                 IDENTIFIER REFERENCED
PL6.E3A0      #004=GJA$DISOLVE_LGNUSR_CTX File=GJA$LOGON.:E05TSI                 TUE 07/29/97 21:52 Page:193
          MINI XREF LISTING

CANCEL_CLK
      9724**DCL     10207<>CALL
CANCEL_CLK.UID
      9740**DCL      9741--REDEF    9742--REDEF
CANCEL_CLK.UID$
      9741**DCL     10206<<ASSIGN
CTX$
      9687**DCL        21--PROC     9861--IMP-PTR  9946--IMP-PTR  9995--IMP-PTR 10206>>ASSIGN  10209>>IF
     10210>>ASSIGN  10215>>IF      10217>>ASSIGN  10225<>CALL    10226<<ASSIGN  10229--ENTRY   10231>>IF
     10233>>ASSIGN  10237>>IF      10239>>ASSIGN  10248>>ASSIGN  10254>>ASSIGN  10256>>IF      10276<>CALL
     10277<<ASSIGN  10281--ENTRY   10283>>IF      10285>>ASSIGN  10291>>IF      10293>>ASSIGN  10302<>CALL
     10303<<ASSIGN
DELINK
     10212**LABEL   10218--EXIT
DELINKED
     10240**LABEL   10240--GOTO
ERRMSG_DELINKED
     10293**LABEL   10294--GOTO
GJA$ERRMSG_CTX
      9995**DCL     10302--CALL
GJA$ERRMSG_CTX.LNK$
     10005**DCL     10285>>ASSIGN  10291>>IF      10293<<ASSIGN  10296>>ASSIGN
GJA$HAND_CTX
      9946**DCL     10276--CALL
GJA$HAND_CTX.BLK
      9977**DCL     10267>>IF      10271<<ASSIGN
GJA$HAND_CTX.LDCTX
      9952**DCL     10256>>IF
GJA$HAND_CTX.LNK$
      9956**DCL     10233>>ASSIGN  10237>>IF      10239<<ASSIGN  10239>>ASSIGN  10242>>ASSIGN  10273>>ASSIGN
     10293>>ASSIGN
GJA$HAND_CTX.NODE
PL6.E3A0      #004=GJA$DISOLVE_LGNUSR_CTX File=GJA$LOGON.:E05TSI                 TUE 07/29/97 21:52 Page:194
      9981**DCL     10254>>ASSIGN
GJA$HAND_CTX.WAITING_MSG$
      9968**DCL     10248>>ASSIGN
GJA$HAND_CTX.WHO
      9951**DCL     10267>>IF
GJA$LGNCTX
      9861**DCL     10225--CALL
GJA$LGNCTX.LNK$
      9871**DCL     10210>>ASSIGN  10215>>IF      10217<<ASSIGN  10217>>ASSIGN  10220>>ASSIGN
GJA$LGNCTX.TERMINAL_ID.TERM
      9912**DCL      9921--REDEF
GJA$Q_MSG
     10202**DCL-ENT 10270--CALL
GJA_ERRMSG_HEAD$
      9693**DCL     10283>>IF      10285<<ASSIGN  10286>>ASSIGN  10289>>ASSIGN
GJA_HAND_HEAD$
      9697**DCL     10265>>ASSIGN
GJA_LDCT_NM
      9696**DCL     10256>>IF
GJA_MSG_DOWN$
      9699**DCL     10264<<ASSIGN
GJA_MSG_LINKDOWN$
      9701**DCL     10264>>ASSIGN
GJA_NM_HEAD$
      9692**DCL     10231>>IF      10233<<ASSIGN  10235>>ASSIGN
GJA_ROUTE$
      9698**DCL     10022--IMP-PTR 10254>>ASSIGN
GJA_UID_NM
      9694**DCL      9695--REDEF
GJA_USRLGN_HEAD$
      9691**DCL     10209>>IF      10210<<ASSIGN  10213>>ASSIGN
KHC$CLOCK
     10200**DCL-ENT 10207--CALL
KNN$ROUTE.CTX$
     10031**DCL     10255<<ASSIGN
KNN$ROUTE.CURRENT_QOS
PL6.E3A0      #004=GJA$DISOLVE_LGNUSR_CTX File=GJA$LOGON.:E05TSI                 TUE 07/29/97 21:52 Page:195
     10042**DCL     10263>>IF
KNN$ROUTE$
     10022**DCL     10254>>ASSIGN
KVB$RLSSYS
     10201**DCL-ENT 10225--CALL    10251--CALL    10276--CALL    10302--CALL
KV_VDO_RQSDAT
     10182**DCL     10270--CALL    10270<>CALL
M$XXX
      8267**DCL-ENT 10222--CALL    10244--CALL    10298--CALL
NXT$
     10198**DCL     10213<<ASSIGN  10214>>DOWHILE 10215>>IF      10217>>ASSIGN  10220<<ASSIGN  10220>>ASSIGN
     10235<<ASSIGN  10236>>DOWHILE 10237>>IF      10239>>ASSIGN  10242<<ASSIGN  10242>>ASSIGN  10250<<ASSIGN
     10252>>ASSIGN  10286<<ASSIGN  10289<<ASSIGN  10290>>DOWHILE 10291>>IF      10293>>ASSIGN  10296<<ASSIGN
     10296>>ASSIGN  10303>>ASSIGN
ROUTE$
      9689**DCL     10024--IMP-PTR 10254<<ASSIGN  10255>>ASSIGN  10263>>IF
SV$MSG
     10095**DCL     10251<>CALL
SV$MSG.NXT$
     10097**DCL     10250>>ASSIGN
TCTX$
      9688**DCL     10248<<ASSIGN  10249>>DOWHILE 10250>>ASSIGN  10251>>CALL    10252<<ASSIGN  10265<<ASSIGN
     10266>>DOWHILE 10267>>IF      10267>>IF      10270<>CALL    10271>>ASSIGN  10273<<ASSIGN  10273>>ASSIGN

PL6.E3A0      #005=GJA$SOLICIT_NM File=GJA$LOGON.:E05TSI                         TUE 07/29/97 21:53 Page:196
     1122        1        /*T***********************************************************/
     1123        2        /*T*                                                         */
     1124        3        /*T* Copyright (c) Bull HN Information Systems Inc., 1997    */
     1125        4        /*T*                                                         */
     1126        5        /*T***********************************************************/
     1127        6
     1128        7        /*F*   NAME:    GJA$SOLICIT_NM
     1129        8
     1130        9               PURPOSE: This routine is called either when we receive a
     1131       10                        logon string from VDH (really the handler) or when
     1132       11                        an autologged device attempts logon.  It sets up
     1133       12                        an KL_SGN message and sends it to the NM.
     1134       13
     1135       14               DESCRIPTION: This routine follows the following general steps:
     1136       15                            1).  If the device is not autologged, the logon
     1137       16                                 string pointed to by GJA$LGNCTX.MSG$ is
     1138       17                                 merged into the KL_SGN message.  If the
     1139       18                                 device is autologged, the AUTOLGN bit is
     1140       19                                 set in the message.
     1141       20                            2).  The rest of the message is built.
     1142       21                            3).  The message is sent up to the network
     1143       22                                 manager.
     1144       23                            4).  The NMRSP bit is set in context to indicate
     1145       24                                 we are awaiting a responce from the Network
     1146       25                                 manager.
     1147       26                            5).  We return
     1148       27
     1149       28               CALL:   CALL GJA$SOLICIT_NM(CTX$,SIZE)
     1150       29
     1151       30               INPUT:  CTX$ - Points to a GJA$LGNCTX block which tells us
     1152       31                              everything we need to know about the device
     1153       32                              attempting logon.
     1154       33        */
     1155       34        %EJECT;
PL6.E3A0      #005=GJA$SOLICIT_NM File=GJA$LOGON.:E05TSI                         TUE 07/29/97 21:53 Page:197
     1156       35        GJA$SOLICIT_NM: PROC(CTX$,SIZE);
     1157       36
     1158       37        %INCLUDE GJA_MSG_M;
     1159      276        %INCLUDE KH$CHN;
     1160      398        %INCLUDE KNH_MACRO_C;
     1161      681        %INCLUDE KL_AFCN_C;                     /* 'IGA' Function Codes     */
     1162      782        %INCLUDE KL_MACRO_C;
     1163     4134        %INCLUDE KV$VDO;
     1164     5149        %INCLUDE KV$GLB;
     1165     5568        %INCLUDE LCP_6;
     1166     9847                                                /* Args                     */
     1167     9848    1   DCL CTX$ PTR;
     1168     9849    1   DCL CTX REDEF CTX$ UBIN(32);
     1169     9850    1   DCL SIZE UBIN;
     1170     9851
     1171     9852                                                /* Necessary VDH macros     */
     1172     9853        %KV_VDO_ALL_E;
     1173     9932
     1174     9933                                                /* BASED Structures         */
     1175     9934    1   DCL 1 LOGON_STRING BASED,
     1176     9935    1         2 STRING CHAR(SIZE) UNAL;
     1177     9936        %KH$CHN (STCLASS=BASED);
     1178    10060        %GJA$LGNCTX(STCLASS="BASED(CTX$)");
     1179    10145        %KV$VDO_DAT(NAME=GJA$VDO_DAT,STCLASS=BASED,LAST=",");
     1180    10190             %KV$VDOVLP_DAT1(STCLASS="",LVL=2);
     1181    10240
     1182    10241        %KL_SGN(FPTN=KL$SGN,STCLASS="BASED(KL$)");
     1183    10334
     1184    10335                                                /* Static                   */
     1185    10336        %KL_SGN(STCLASS=STATIC);
     1186    10429                                                /* AUTO Storage             */
     1187    10430    1   DCL KL$ PTR;
     1188    10431    1   DCL VDO_BUFFER(0:254) CHAR(1) UNAL;
     1189    10432    1   DCL MSGSIZ UBIN;
     1190    10433                                                /* Symrefs                  */
     1191    10434    1   DCL GJA_DEFNODE UBIN SYMREF;
     1192    10435    1   DCL GJA_UID_NM UBIN(32) SYMREF;
PL6.E3A0      #005=GJA$SOLICIT_NM File=GJA$LOGON.:E05TSI                         TUE 07/29/97 21:53 Page:198
     1193    10436                                                /* Entrys                   */
     1194    10437    1   DCL GJA$NETWORK_MANAGER ENTRY(2) ALTRET;
     1195    10438
     1196    10439                                                /* EQUs and SUBs            */
     1197    10440        %GJA_UID_EQUS;
     1198    10448
     1199    10449        %EJECT;
PL6.E3A0      #005=GJA$SOLICIT_NM File=GJA$LOGON.:E05TSI                         TUE 07/29/97 21:53 Page:199
     1200    10450        /*
     1201    10451          This code just builds the KL_SGN message.  If this is not an
     1202    10452          autologon case, the logon string pointed to by MSG$ is merged into
     1203    10453          KL_SGN, otherwise the AUTOLGN bit is set.  The rest of the message is
     1204    10454          built from fields in GJA$LGNCTX.
     1205    10455        */
     1206    10456    1      GJA$LGNCTX.STATUS.RDPND = '0'B;
     1207    10457    1      KL$=ADDR(VDO_BUFFER);
     1208    10458    1      KL$SGN= KL_SGN;
     1209    10459    1      KL$SGN.TERMINAL_ID=GJA$LGNCTX.TERMINAL_ID;
     1210    10460    1      KL$SGN.USER=GJA$LGNCTX.USER;
     1211    10461    1      KL$SGN.NMID=CTX;
     1212    10462    1      KL$SGN.SPEED=GJA$LGNCTX.SPEED;
     1213    10463    1      KL$SGN.NODE=GJA$LGNCTX.NODE;
     1214    10464    1      KL$SGN.PROFILE = GJA$LGNCTX.CHN$->KH$CHN.PROFILE;
     1215    10465    1      KL$SGN.DEF_NODE = GJA_DEFNODE;
     1216    10466    1      IF GJA$LGNCTX.CHN$->KH$CHN.AUTLGN
     1217    10467    1      THEN KL$SGN.AUTOLGN='1'B;
     1218    10468    2      ELSE DO;
     1219    10469    2           KL$SGN.LOGON.LGNSIZ=SIZE;
     1220    10470    2           ADDR(KL$SGN.LOGON.LGNTXT)->LOGON_STRING.STRING=GJA$LGNCTX.MSG$->LOGON_STRING
             10470                    .STRING;
     1221    10471    2           END;
     1222    10472    1      MSGSIZ=SIZE+SIZEC(KL_SGN);
     1223    10473    2      CALL GJA$NETWORK_MANAGER(KL$SGN,MSGSIZ) WHENRETURN DO;
     1224    10474    2           GJA$LGNCTX.STATUS.NMRSP='1'B;
     1225    10475    2           END;
     1226    10476    2      WHENALTRETURN DO;
     1227    10477    2           GJA$LGNCTX.STATUS.NMRSP='0'B;
     1228    10478    2           END;
     1229    10479    1      GJA$LGNCTX.NM_NODE = GJA_DEFNODE;
     1230    10480    1      RETURN;
     1231    10481    1   END;

PL6.E3A0      #005=GJA$SOLICIT_NM File=GJA$LOGON.:E05TSI                         TUE 07/29/97 21:53 Page:200
--  Include file information  --

   G_LCP6_E.:E05TOU  is referenced.
   GT_LCP6_M.:E05TOU  is referenced.
   KI_CP6.:E05TOU  is referenced.
   GF_LCP6_M.:E05TOU  is referenced.
   GM_LCP6_M.:E05TOU  is referenced.
   GU_LCP6_M.:E05TOU  is referenced.
   GJ_LCP6_M.:E05TOU  is referenced.
   GH_LCP6_M.:E05TOU  is referenced.
   LCP_6.:E05TOU  cannot be made into a system file and is referenced.
   KV$GLB.:E05TOU  is referenced.
   KV$VDO.:E05TOU  is referenced.
   KL_MACRO_C.:E05TOU  is referenced.
   KL_AFCN_C.:E05TOU  is referenced.
   KNH_MACRO_C.:E05TOU  is referenced.
   KH$CHN.:E05TOU  is referenced.
   GJA_MSG_M.:E05TOU  is referenced.
      No diagnostics issued in procedure GJA$SOLICIT_NM.

   Procedure GJA$SOLICIT_NM requires 149 words for executable code.
   Procedure GJA$SOLICIT_NM requires 144 words of local(AUTO) storage.

    No errors detected in file GJA$LOGON.:E05TSI    .

PL6.E3A0      #005=GJA$SOLICIT_NM File=GJA$LOGON.:E05TSI                         TUE 07/29/97 21:53 Page:201

 Object Unit name= GJA$SOLICIT_NM                             File name= GJA$LOGON.:E05TOU
 UTS= JUL 29 '97 21:53:18.68 TUE                              Compiler= PL-6/E31         Sev=      00
 SharedLib= :SHARED_LCP6_SYSTEM                               Alt SharedLib=


    ****  Control sections  ****

 Sect   Type Bound  Init  Size HexSiz  Section name
    0   Data  even  none    16     10  GJA$SOLICIT_NM
    1   Proc  even  none   149     95  GJA$SOLICIT_NM

    ****  Entry defs  ****

                              Check   Calling
                             calling  sequence
  Sect HexLoc Primary Altret sequence   type   Parms  Name
     1      0   yes            yes      Std        2  GJA$SOLICIT_NM

  ****  Entry refs  ****

         Check        Calling
        calling       sequence
Altret sequence SRef   type   Args  Name
 yes     yes           Std       2 GJA$NETWORK_MANAGER
                       nStd      0 X6A_AUTO_2
                       nStd      0 X6A_ARET

  ****  Data refs  ****

  Flags:  r = read only, s = secondary
Flgs Name                             Flgs Name                             Flgs Name
     GJA_DEFNODE                      r    G$ROS$
PL6.E3A0      #005=GJA$SOLICIT_NM File=GJA$LOGON.:E05TSI                         TUE 07/29/97 21:53 Page:202


     1122        1        /*T***********************************************************/
     1123        2        /*T*                                                         */
     1124        3        /*T* Copyright (c) Bull HN Information Systems Inc., 1997    */
     1125        4        /*T*                                                         */
     1126        5        /*T***********************************************************/
     1127        6
     1128        7        /*F*   NAME:    GJA$SOLICIT_NM
     1129        8
     1130        9               PURPOSE: This routine is called either when we receive a
     1131       10                        logon string from VDH (really the handler) or when
     1132       11                        an autologged device attempts logon.  It sets up
     1133       12                        an KL_SGN message and sends it to the NM.
     1134       13
     1135       14               DESCRIPTION: This routine follows the following general steps:
     1136       15                            1).  If the device is not autologged, the logon
     1137       16                                 string pointed to by GJA$LGNCTX.MSG$ is
     1138       17                                 merged into the KL_SGN message.  If the
     1139       18                                 device is autologged, the AUTOLGN bit is
     1140       19                                 set in the message.
     1141       20                            2).  The rest of the message is built.
     1142       21                            3).  The message is sent up to the network
     1143       22                                 manager.
     1144       23                            4).  The NMRSP bit is set in context to indicate
     1145       24                                 we are awaiting a responce from the Network
     1146       25                                 manager.
     1147       26                            5).  We return
     1148       27
     1149       28               CALL:   CALL GJA$SOLICIT_NM(CTX$,SIZE)
     1150       29
     1151       30               INPUT:  CTX$ - Points to a GJA$LGNCTX block which tells us
     1152       31                              everything we need to know about the device
     1153       32                              attempting logon.
     1154       33        */
     1155       34        %EJECT;
PL6.E3A0      #005=GJA$SOLICIT_NM File=GJA$LOGON.:E05TSI                         TUE 07/29/97 21:53 Page:203
     1156       35        GJA$SOLICIT_NM: PROC(CTX$,SIZE);

     35   1 000000  D380 0000 0000  xent GJA$SOLICIT_NM  LNJ,B5   X6A_AUTO_2
          1 000003       0090 0002                       DC       144,2

     1157       36
     1158       37        %INCLUDE GJA_MSG_M;
     1159      276        %INCLUDE KH$CHN;
     1160      398        %INCLUDE KNH_MACRO_C;
     1161      681        %INCLUDE KL_AFCN_C;                     /* 'IGA' Function Codes     */
     1162      782        %INCLUDE KL_MACRO_C;
     1163     4134        %INCLUDE KV$VDO;
     1164     5149        %INCLUDE KV$GLB;
     1165     5568        %INCLUDE LCP_6;
     1166     9847                                                /* Args                     */
     1167     9848    1   DCL CTX$ PTR;
     1168     9849    1   DCL CTX REDEF CTX$ UBIN(32);
     1169     9850    1   DCL SIZE UBIN;
     1170     9851
     1171     9852                                                /* Necessary VDH macros     */
     1172     9853        %KV_VDO_ALL_E;
     1173     9932
     1174     9933                                                /* BASED Structures         */
     1175     9934    1   DCL 1 LOGON_STRING BASED,
     1176     9935    1         2 STRING CHAR(SIZE) UNAL;
     1177     9936        %KH$CHN (STCLASS=BASED);
     1178    10060        %GJA$LGNCTX(STCLASS="BASED(CTX$)");
     1179    10145        %KV$VDO_DAT(NAME=GJA$VDO_DAT,STCLASS=BASED,LAST=",");
     1180    10190             %KV$VDOVLP_DAT1(STCLASS="",LVL=2);
     1181    10240
     1182    10241        %KL_SGN(FPTN=KL$SGN,STCLASS="BASED(KL$)");
     1183    10334
     1184    10335                                                /* Static                   */
     1185    10336        %KL_SGN(STCLASS=STATIC);
     1186    10429                                                /* AUTO Storage             */
     1187    10430    1   DCL KL$ PTR;
     1188    10431    1   DCL VDO_BUFFER(0:254) CHAR(1) UNAL;
PL6.E3A0      #005=GJA$SOLICIT_NM File=GJA$LOGON.:E05TSI                         TUE 07/29/97 21:53 Page:204
     1189    10432    1   DCL MSGSIZ UBIN;
     1190    10433                                                /* Symrefs                  */
     1191    10434    1   DCL GJA_DEFNODE UBIN SYMREF;
     1192    10435    1   DCL GJA_UID_NM UBIN(32) SYMREF;
     1193    10436                                                /* Entrys                   */
     1194    10437    1   DCL GJA$NETWORK_MANAGER ENTRY(2) ALTRET;
     1195    10438
     1196    10439                                                /* EQUs and SUBs            */
     1197    10440        %GJA_UID_EQUS;
     1198    10448
     1199    10449        %EJECT;
PL6.E3A0      #005=GJA$SOLICIT_NM File=GJA$LOGON.:E05TSI                         TUE 07/29/97 21:53 Page:205
     1200    10450        /*
     1201    10451          This code just builds the KL_SGN message.  If this is not an
     1202    10452          autologon case, the logon string pointed to by MSG$ is merged into
     1203    10453          KL_SGN, otherwise the AUTOLGN bit is set.  The rest of the message is
     1204    10454          built from fields in GJA$LGNCTX.
     1205    10455        */
     1206    10456    1      GJA$LGNCTX.STATUS.RDPND = '0'B;

  10456   1 000005  ECC7 0004                            LDB,B6   @CTX$,AUTO
          1 000007  DC86                                 LDB,B5   ,B6
          1 000008  8845 0018                            LBF,'0080'X       24,B5
          1 00000A       0080

     1207    10457    1      KL$=ADDR(VDO_BUFFER);

  10457   1 00000B  DBC7 000A                            LAB,B5   VDO_BUFFER,AUTO
          1 00000D  DFC7 0008                            STB,B5   KL$,AUTO

     1208    10458    1      KL$SGN= KL_SGN;

  10458   1 00000F  AB80 0000 0000  00                   LAB,B2   KL_SGN
          1 000012  2C00                                 LDV,R2   0
          1 000013  6C1F                                 LDV,R6   31
          1 000014  BB85                                 LAB,B3   ,B5
          1 000015  3C00                                 LDV,R3   0
          1 000016  0008                                 MMM

     1209    10459    1      KL$SGN.TERMINAL_ID=GJA$LGNCTX.TERMINAL_ID;

  10459   1 000017  CC86                                 LDB,B4   ,B6
          1 000018  AB84                                 LAB,B2   ,B4
          1 000019  2C1E                                 LDV,R2   30
          1 00001A  6C10                                 LDV,R6   16
          1 00001B  BCC7 0008                            LDB,B3   KL$,AUTO
          1 00001D  3C04                                 LDV,R3   4
          1 00001E  0008                                 MMM

PL6.E3A0      #005=GJA$SOLICIT_NM File=GJA$LOGON.:E05TSI                         TUE 07/29/97 21:53 Page:206
     1210    10460    1      KL$SGN.USER=GJA$LGNCTX.USER;

  10460   1 00001F  BC86                                 LDB,B3   ,B6
          1 000020  AB83                                 LAB,B2   ,B3
          1 000021  2C1C                                 LDV,R2   28
          1 000022  6C02                                 LDV,R6   2
          1 000023  BCC7 0008                            LDB,B3   KL$,AUTO
          1 000025  3C15                                 LDV,R3   21
          1 000026  0008                                 MMM

     1211    10461    1      KL$SGN.NMID=CTX;

  10461   1 000027  AB86                                 LAB,B2   ,B6
          1 000028  2C00                                 LDV,R2   0
          1 000029  6C04                                 LDV,R6   4
          1 00002A  BCC7 0008                            LDB,B3   KL$,AUTO
          1 00002C  3C17                                 LDV,R3   23
          1 00002D  0008                                 MMM

     1212    10462    1      KL$SGN.SPEED=GJA$LGNCTX.SPEED;

  10462   1 00002E  BC82                                 LDB,B3   ,B2
          1 00002F  9CC7 0008                            LDB,B1   KL$,AUTO
          1 000031  E843 0017                            LDR,R6   23,B3
          1 000033  EAC1 000D                            SRM,R6,'00FF'X    13,B1
          1 000035       00FF

     1213    10463    1      KL$SGN.NODE=GJA$LGNCTX.NODE;

  10463   1 000036  BC82                                 LDB,B3   ,B2
          1 000037  E2C3 0017                            LLH,R6   23,B3
          1 000039  EA81                                 SRM,R6,'00FF'X    ,B1
          1 00003A       00FF

     1214    10464    1      KL$SGN.PROFILE = GJA$LGNCTX.CHN$->KH$CHN.PROFILE;

  10464   1 00003B  BC82                                 LDB,B3   ,B2
PL6.E3A0      #005=GJA$SOLICIT_NM File=GJA$LOGON.:E05TSI                         TUE 07/29/97 21:53 Page:207
          1 00003C  ECC3 000A                            LDB,B6   10,B3
          1 00003E  E806                                 LDR,R6   ,B6
          1 00003F  600E                                 SOL,R6   14
          1 000040  EAC1 000A                            SRM,R6,'4000'X    10,B1
          1 000042       4000

     1215    10465    1      KL$SGN.DEF_NODE = GJA_DEFNODE;

  10465   1 000043  E800 0000 0000  xsym                 LDR,R6   GJA_DEFNODE
          1 000046  EAC1 0001                            SRM,R6,'00FF'X    1,B1
          1 000048       00FF

     1216    10466    1      IF GJA$LGNCTX.CHN$->KH$CHN.AUTLGN

  10466   1 000049  EC82                                 LDB,B6   ,B2
          1 00004A  BCC6 000A                            LDB,B3   10,B6
          1 00004C  8283                                 LB,'0004'X        ,B3
          1 00004D       0004
          1 00004E  0581 0006                            BBF      s:10469,PREL

     1217    10467    1      THEN KL$SGN.AUTOLGN='1'B;

  10467   1 000050  8941 000A                            LBT,'8000'X       10,B1
  10467   1 000052       8000
          1 000053  0F81 0014                            B        s:10472,PREL

     1218    10468    2      ELSE DO;

     1219    10469    2           KL$SGN.LOGON.LGNSIZ=SIZE;

  10469   1 000055  ECC7 0006                            LDB,B6   @SIZE,AUTO
          1 000057  D806                                 LDR,R5   ,B6
          1 000058  DAC1 000E                            SRM,R5,'00FF'X    14,B1
          1 00005A       00FF

     1220    10470    2          ADDR(KL$SGN.LOGON.LGNTXT)->LOGON_STRING.STRING=GJA$LGNCTX.MSG$->LOGON_STRING
             10470                    .STRING;
PL6.E3A0      #005=GJA$SOLICIT_NM File=GJA$LOGON.:E05TSI                         TUE 07/29/97 21:53 Page:208

  10470   1 00005B  D806                                 LDR,R5   ,B6
          1 00005C  BC82                                 LDB,B3   ,B2
          1 00005D  ECC3 000C                            LDB,B6   12,B3
          1 00005F  DCC7 0006                            LDB,B5   @SIZE,AUTO
          1 000061  C805                                 LDR,R4   ,B5
          1 000062  AB86                                 LAB,B2   ,B6
          1 000063  2C00                                 LDV,R2   0
          1 000064  E854                                 LDR,R6   R4
          1 000065  BB81                                 LAB,B3   ,B1
          1 000066  3C1E                                 LDV,R3   30
          1 000067  0008                                 MMM

     1221    10471    2           END;

     1222    10472    1      MSGSIZ=SIZE+SIZEC(KL_SGN);

  10472   1 000068  ECC7 0006                            LDB,B6   @SIZE,AUTO
          1 00006A  E806                                 LDR,R6   ,B6
          1 00006B  6E20                                 ADV,R6   32
          1 00006C  EF47 008A                            STR,R6   MSGSIZ,AUTO

     1223    10473    2      CALL GJA$NETWORK_MANAGER(KL$SGN,MSGSIZ) WHENRETURN DO;

  10473   1 00006E  DBC7 008A                            LAB,B5   MSGSIZ,AUTO
          1 000070  DFC7 008E                            STB,B5   MSGSIZ+4,AUTO
          1 000072  BCC7 0008                            LDB,B3   KL$,AUTO
          1 000074  BFC7 008C                            STB,B3   MSGSIZ+2,AUTO
          1 000076  BBC7 008C                            LAB,B3   MSGSIZ+2,AUTO
          1 000078  CBF0 0200                            LAB,B4   512,IMO
          1 00007A  E380 0000 0000  xent                 LNJ,B6   GJA$NETWORK_MANAGER
          1 00007D       0009                            DC       s:10477,PREL

     1224    10474    2           GJA$LGNCTX.STATUS.NMRSP='1'B;

  10474   1 00007E  ECC7 0004                            LDB,B6   @CTX$,AUTO
          1 000080  DC86                                 LDB,B5   ,B6
PL6.E3A0      #005=GJA$SOLICIT_NM File=GJA$LOGON.:E05TSI                         TUE 07/29/97 21:53 Page:209
          1 000081  8945 0018                            LBT,'2000'X       24,B5
          1 000083       2000

     1225    10475    2           END;

  10475   1 000084  0F81 0007                            B        s:10479,PREL

     1226    10476    2      WHENALTRETURN DO;

     1227    10477    2           GJA$LGNCTX.STATUS.NMRSP='0'B;

  10477   1 000086  ECC7 0004                            LDB,B6   @CTX$,AUTO
          1 000088  DC86                                 LDB,B5   ,B6
          1 000089  8845 0018                            LBF,'2000'X       24,B5
          1 00008B       2000

     1228    10478    2           END;

     1229    10479    1      GJA$LGNCTX.NM_NODE = GJA_DEFNODE;

  10479   1 00008C  DC86                                 LDB,B5   ,B6
          1 00008D  E800 0000 0000  xsym                 LDR,R6   GJA_DEFNODE
          1 000090  E7C5 0009                            STH,R6   9,B5

     1230    10480    1      RETURN;

  10480   1 000092  C380 0000 0000  xent                 LNJ,B4   X6A_ARET
     1231    10481    1   END;

PL6.E3A0      #005=GJA$SOLICIT_NM File=GJA$LOGON.:E05TSI                         TUE 07/29/97 21:53 Page:210
--  Include file information  --

   G_LCP6_E.:E05TOU  is referenced.
   GT_LCP6_M.:E05TOU  is referenced.
   KI_CP6.:E05TOU  is referenced.
   GF_LCP6_M.:E05TOU  is referenced.
   GM_LCP6_M.:E05TOU  is referenced.
   GU_LCP6_M.:E05TOU  is referenced.
   GJ_LCP6_M.:E05TOU  is referenced.
   GH_LCP6_M.:E05TOU  is referenced.
   LCP_6.:E05TOU  cannot be made into a system file and is referenced.
   KV$GLB.:E05TOU  is referenced.
   KV$VDO.:E05TOU  is referenced.
   KL_MACRO_C.:E05TOU  is referenced.
   KL_AFCN_C.:E05TOU  is referenced.
   KNH_MACRO_C.:E05TOU  is referenced.
   KH$CHN.:E05TOU  is referenced.
   GJA_MSG_M.:E05TOU  is referenced.
      No diagnostics issued in procedure GJA$SOLICIT_NM.
PL6.E3A0      #005=GJA$SOLICIT_NM File=GJA$LOGON.:E05TSI                         TUE 07/29/97 21:53 Page:211

 **** Variables and constants ****

  ****  Section 000  Data  GJA$SOLICIT_NM

  ****  Scalars and arrays  ****
HexLoc.c.b A Datatyp(siz) R M Lvl/name                 HexLoc.c.b A Datatyp(siz) R M Lvl/name

     0-0-0/w STRC(248)   r     1 KL_SGN

  ****  Auto variables  ****

  ****  Scalars and arrays  ****
HexLoc.c.b A Datatyp(siz) R M Lvl/name                 HexLoc.c.b A Datatyp(siz) R M Lvl/name

     4-0-0/w PTR         r     1 @CTX$                      6-0-0/w PTR         r     1 @SIZE
    *0-0-0/w UBIN(32)    r     1 CTX                       *0-0-0/w PTR         r     1 CTX$
     8-0-0/w PTR         r     1 KL$                       8A-0-0/w UBIN(16)    r     1 MSGSIZ
    *0-0-0/w UBIN(16)    r     1 SIZE
     A-0-0/c CHAR        r     1 VDO_BUFFER(0:254)

  ****  SYMREF variables  ****

  ****  Scalars and arrays  ****
HexLoc.c.b A Datatyp(siz) R M Lvl/name                 HexLoc.c.b A Datatyp(siz) R M Lvl/name

     0-0-0/w UBIN(16)    r     1 GJA_DEFNODE

  ****  BASED and DCB variables  ****

  ****  Scalars and arrays  ****
HexLoc.c.b A Datatyp(siz) R M Lvl/name                 HexLoc.c.b A Datatyp(siz) R M Lvl/name

     0-0-0/w STRC(528)   r     1 GJA$LGNCTX                 0-0-0/w STRC(512)   r     1 KH$CHN
     0-0-0/w STRC(248)   r     1 KL$SGN                     0-0-0/c ASTR(0)     r     1 LOGON_STRING

PL6.E3A0      #005=GJA$SOLICIT_NM File=GJA$LOGON.:E05TSI                         TUE 07/29/97 21:53 Page:212

   Procedure GJA$SOLICIT_NM requires 149 words for executable code.
   Procedure GJA$SOLICIT_NM requires 144 words of local(AUTO) storage.

    No errors detected in file GJA$LOGON.:E05TSI    .
PL6.E3A0      #005=GJA$SOLICIT_NM File=GJA$LOGON.:E05TSI                         TUE 07/29/97 21:53 Page:213
          *** CROSS REFERENCE LISTING ***
**     DENOTES     IDENTIFIER DEFINITION
<<                 IDENTIFIER'S VALUE SET
>>                 IDENTIFIER'S VALUE USED
<>                 IDENTIFIER SET AND/OR USED
--                 IDENTIFIER REFERENCED
PL6.E3A0      #005=GJA$SOLICIT_NM File=GJA$LOGON.:E05TSI                         TUE 07/29/97 21:53 Page:214
          MINI XREF LISTING

CTX
      9849**DCL     10461>>ASSIGN
CTX$
      9848**DCL        35--PROC     9849--REDEF   10061--IMP-PTR 10456>>ASSIGN  10459>>ASSIGN  10460>>ASSIGN
     10462>>ASSIGN  10463>>ASSIGN  10464>>ASSIGN  10466>>IF      10470>>ASSIGN  10474>>ASSIGN  10477>>ASSIGN
     10479>>ASSIGN
GJA$LGNCTX.CHN$
     10087**DCL     10464>>ASSIGN  10466>>IF
GJA$LGNCTX.MSG$
     10088**DCL     10470>>ASSIGN
GJA$LGNCTX.NM_NODE
     10085**DCL     10479<<ASSIGN
GJA$LGNCTX.NODE
     10123**DCL     10463>>ASSIGN
GJA$LGNCTX.SPEED
     10124**DCL     10462>>ASSIGN
GJA$LGNCTX.STATUS.NMRSP
     10131**DCL     10474<<ASSIGN  10477<<ASSIGN
GJA$LGNCTX.STATUS.RDPND
     10140**DCL     10456<<ASSIGN
GJA$LGNCTX.TERMINAL_ID
     10110**DCL     10459>>ASSIGN
GJA$LGNCTX.TERMINAL_ID.TERM
     10112**DCL     10121--REDEF
GJA$LGNCTX.USER
     10089**DCL     10460>>ASSIGN
GJA$NETWORK_MANAGER
     10437**DCL-ENT 10473--CALL
GJA_DEFNODE
     10434**DCL     10465>>ASSIGN  10479>>ASSIGN
KH$CHN.AUTLGN
      9962**DCL     10466>>IF
PL6.E3A0      #005=GJA$SOLICIT_NM File=GJA$LOGON.:E05TSI                         TUE 07/29/97 21:53 Page:215
KH$CHN.PROFILE
      9963**DCL     10464>>ASSIGN
KH$CHN.TERMID.TERM
     10047**DCL     10056--REDEF
KL$
     10430**DCL     10256--IMP-PTR 10457<<ASSIGN  10458>>ASSIGN  10459>>ASSIGN  10460>>ASSIGN  10461>>ASSIGN
     10462>>ASSIGN  10463>>ASSIGN  10464>>ASSIGN  10465>>ASSIGN  10467>>ASSIGN  10469>>ASSIGN  10470>>ASSIGN
     10473>>CALL
KL$SGN
     10256**DCL     10458<<ASSIGN  10473<>CALL
KL$SGN.AUTOLGN
     10297**DCL     10467<<ASSIGN
KL$SGN.DEF_NODE
     10264**DCL     10465<<ASSIGN
KL$SGN.LOGON.LGNSIZ
     10331**DCL     10469<<ASSIGN
KL$SGN.LOGON.LGNTXT
     10332**DCL     10470--ASSIGN
KL$SGN.NMID
     10320**DCL     10461<<ASSIGN
KL$SGN.NODE
     10260**DCL     10463<<ASSIGN
KL$SGN.PROFILE
     10301**DCL     10464<<ASSIGN
KL$SGN.SPEED
     10326**DCL     10462<<ASSIGN
KL$SGN.TERMINAL_ID
     10281**DCL     10459<<ASSIGN
KL$SGN.TERMINAL_ID.TERM
     10283**DCL     10292--REDEF
KL$SGN.USER
     10306**DCL     10460<<ASSIGN
KL_SGN
     10351**DCL     10458>>ASSIGN  10472--ASSIGN
KL_SGN.TERMINAL_ID.TERM
     10378**DCL     10387--REDEF
PL6.E3A0      #005=GJA$SOLICIT_NM File=GJA$LOGON.:E05TSI                         TUE 07/29/97 21:53 Page:216
LOGON_STRING.STRING
      9935**DCL     10470<<ASSIGN  10470>>ASSIGN
MSGSIZ
     10432**DCL     10472<<ASSIGN  10473<>CALL
SIZE
      9850**DCL        35--PROC     9935--IMP-SIZ 10469>>ASSIGN  10470>>ASSIGN  10470>>ASSIGN  10472>>ASSIGN
VDO_BUFFER
     10431**DCL     10457--ASSIGN
