PL6.E3A0      #008=GJA$NETWORK_MANAGER File=GJA$SUBS.:E05TSI                     TUE 07/29/97 21:57 Page:172
      894        1        /*T***********************************************************/
      895        2        /*T*                                                         */
      896        3        /*T* Copyright (c) Bull HN Information Systems Inc., 1997    */
      897        4        /*T*                                                         */
      898        5        /*T***********************************************************/
      899        6        /*F* NAME:     GJA$NETWORK_MANAGER
      900        7
      901        8             PURPOSE:  To respond to a request from the Network manager.
      902        9
      903       10             DESCRIPTION:  This routine will be called whenever there is a
      904       11                           need to solicit the Network manager for some data.
      905       12                           If the Network manager is not currently connected
      906       13                           it will respond otherwise the messages get passed
      907       14                           on to the Network manager.
      908       15
      909       16             CALL:      CALL GJA$NETWORK_MANAGER(KL$?,SIZE);
      910       17
      911       18             INPUTS: KL$? is a structure defined in KL_MACRO_C
      912       19                     SIZE is the size of the passed structure
      913       20
      914       21         */
      915       22        GJA$NETWORK_MANAGER: PROC (BUFFER,SIZE) ALTRET;
      916       23
      917       24                                                /* Includes                 */
      918       25        %INCLUDE GJA_MSG_M;
      919      264        %INCLUDE KL_CONTROL_C;
      920      644        %INCLUDE KL_MACRO_C;
      921     3996        %INCLUDE KL_AFCN_C;
      922     4097        %INCLUDE KNH_MACRO_C;
      923     4380        %INCLUDE KN_ERRORS_C;
      924     4444        %INCLUDE LCP_6;
      925     8723        %INCLUDE KV$BPC;
      926     8752        %INCLUDE KL_ERRORS_C;
      927     8794        %INCLUDE KNN_NETWORK_M;
      928     9157
      929     9158        /* Parameters */
      930     9159    1   DCL BUFFER CHAR(SIZE) WALIGNED;
PL6.E3A0      #008=GJA$NETWORK_MANAGER File=GJA$SUBS.:E05TSI                     TUE 07/29/97 21:57 Page:173
      931     9160    1   DCL SIZE UBIN;
      932     9161
      933     9162                                                /* Symrefs                  */
      934     9163    1   DCL GJA_LDCT_NM UBIN SYMREF;
      935     9164    1   DCL GJA_UID_NM UBIN(32) SYMREF;
      936     9165    1   DCL GJA_UID_NM$ REDEF GJA_UID_NM PTR;
      937     9166    1   DCL GJA_UID_NANM$ PTR SYMREF;
      938     9167    1   DCL G$DS1$ PTR SYMREF;
      939     9168    1   DCL GJA_LINE_HEAD$ PTR SYMREF;
      940     9169    1   DCL GJA_CHNRSP_HEAD$ PTR SYMREF;
      941     9170    1   DCL GJA$SYSLOG$ PTR SYMREF;
      942     9171    1   DCL KV_B_POOL$ PTR SYMREF;
      943     9172    1   DCL GJA_NODE# UBIN SYMREF;
      944     9173    1   DCL GJA_DEFNODE UBIN SYMREF;
      945     9174    1   DCL GJA_ROUTE$ PTR SYMREF;
      946     9175    1   DCL GJA_MSG_SGSYN$ PTR SYMREF;
      947     9176    1   DCL GJA_MSG_BDID$ PTR SYMREF;
      948     9177    1   DCL GJA_MSG_NOHOST$ PTR SYMREF;
      949     9178    1   DCL GJA_MSG_UDHOST$ PTR SYMREF;
      950     9179        %GJA_NODETBL(NAME=GJA$NODETBL,STCLASS=SYMREF);
      951     9203
      952     9204                                                /* Based                    */
      953     9205        %KL_HDR (FPTN=KL$HDR,STCLASS="BASED(KL$)");
      954     9286        %KL_CONTROL_INIT (FPTN=KL$CONTROL,NUM_FIXED=%KL_FIXED_HI,NUM_INDXD=4,STCLASS=
              9286            "BASED(KL$)",LAST=",");
      955     9412    1            2 BLOCK(0:15) UBIN(18) UNAL,
      956     9413    1            2 UNBLOCK(0:15) UBIN(18) UNAL,
      957     9414    1            2 USRPARM1(0:7) UBIN(18) UNAL,
      958     9415    1            2 USRPARM2(0:7) UBIN(18) UNAL;
      959     9416        %KL_ADMIN (FPTN=KL$ADMIN,STCLASS="BASED(KL$)");
      960     9577        %KL_CONFIGRSP (FPTN=KL$CONFIGRSP,STCLASS="BASED(KL$)");
      961     9668        %KL_CWNAK (FPTN=KL$CWNAK,STCLASS="BASED(KL$)");
      962     9733        %KL_KEYMES (FPTN=KL$KEYMES,STCLASS="BASED(KL$)");
      963     9872        %KL_RQSCHN (FPTN=KL$RQSCHN,STCLASS="BASED(KL$)");
      964     9975        %KL_SGN (FPTN=KL$SGN,STCLASS="BASED(KL$)",LGNSIZ="KL$SGN.LOGON.LGNSIZ");
      965    10068        %KL_ERRMSG_RQS (FPTN=KL$ERRMSG_RQS,STCLASS="BASED(KL$)");
      966    10243        %KL_CHNRSP (FPTN=KL$CHNRSP,STCLASS=BASED);
PL6.E3A0      #008=GJA$NETWORK_MANAGER File=GJA$SUBS.:E05TSI                     TUE 07/29/97 21:57 Page:174
      967    10463        %KL_DUMPMSG (FPTN=KL$DUMPMSG,STCLASS="BASED(KL$)");
      968    10504        %KL_RQSPROFILE (FPTN=KL$RQSPROFILE,STCLASS="BASED(KL$)");
      969    10562    1   DCL B$DWORD UBIN(32) BASED;
      970    10563    1   DCL B$PTR$ PTR BASED;
      971    10564    1   DCL B$WORD UBIN BASED;
      972    10565        %KV$BPC(STCLASS="BASED(KV_B_POOL$)");
      973    10587    1   DCL KNN$ROUTE$(0:0) PTR BASED(GJA_ROUTE$);
      974    10588        %KNN$ROUTE(STCLASS="BASED(ROUTE$)");
      975    10660        %GJA$LGNCTX(STCLASS="BASED");
      976    10745        %GJA$HAND_CTX(STCLASS="BASED(CTX$)");
      977    10794    1   DCL 1 SV$MSG BASED,
      978    10795    1            2 BFRSIZ UBIN,                 /* size of buffer allocated */
      979    10796    1            2 LNK$ PTR,
      980    10797    1            2 SZ UBIN,
      981    10798    1            2 VFC CHAR(1) UNAL,
      982    10799    1            2 * CHAR(1) UNAL;
      983    10800    1   DCL STRING CHAR(SIZE) BASED;
      984    10801    1   DCL SVMSG$ PTR;
      985    10802    1   DCL TMP$ PTR;
      986    10803    1   DCL ACCT CHAR(8);
      987    10804    1   DCL 1 ACCR REDEF ACCT,
      988    10805    1            2 C1 CHAR(1) UNAL,
      989    10806    1            2 * CHAR(7) UNAL;
      990    10807    1   DCL 1 NAME ALIGNED,
      991    10808    1            2 C UBIN BYTE UNAL,
      992    10809    1            2 T CHAR(12) UNAL;
      993    10810    1   DCL PW CHAR(8);
      994    10811    1   DCL 1 PRO ALIGNED,
      995    10812    1            2 C UBIN BYTE UNAL,
      996    10813    1            2 T CHAR(11) UNAL;
      997    10814    1   DCL ERR UBIN;
      998    10815    1   DCL HOST CHAR(8);
      999    10816    1   DCL NOSETUP BIT (1) ALIGNED;
     1000    10817    1   DCL NOHEADER BIT (1) ALIGNED;
     1001    10818    1   DCL FOUNDIT BIT(1);
     1002    10819    1   DCL 1 TEXT BASED,
     1003    10820    1            2 L UBIN BYTE UNAL,
PL6.E3A0      #008=GJA$NETWORK_MANAGER File=GJA$SUBS.:E05TSI                     TUE 07/29/97 21:57 Page:175
     1004    10821    1            2 C CHAR(TEXT.L) UNAL;
     1005    10822    1   DCL ROUTE$ PTR;
     1006    10823    1   DCL CTX$ PTR;
     1007    10824    1   DCL NMID$ PTR;
     1008    10825    1   DCL NMID REDEF NMID$ UBIN(32);
     1009    10826
     1010    10827                                                /* Static                   */
     1011    10828        %KL_SGNRSP(FPTN=SGNRSP,STCLASS=STATIC,RSPSIZ=200);
     1012    10964        %KL_SYSLOG(FPTN=SYSLOG,LAST=",",STCLASS=STATIC,FILENUM=SECLOG);
     1013    10988        %KL_ERRLOG(FPTN=ERRLOG,LAST=",",LVL=2,STCLASS=STATIC);
     1014    11096    1                 3 DATA CHAR(200) UNAL;
     1015    11097        %KL_ERRMSG_RSP (FPTN=ERRMSG_RSP,STCLASS=STATIC);
     1016    11173        %KL_CHNRSP (FPTN=CHNRSP,STCLASS=STATIC);
     1017    11393        %KL_PRFRSP (FPTN=PRFRSP,STCLASS=STATIC,PRFSIZE=1);
     1018    11443        %VLP_ERRCODE(FPTN=E$NONETMAN,FCG=GJ,MID=A,MON='1'B,
     1019    11444                     ERR#=%E$NONETMAN,SEV=%G_SEV_ERROR#);
     1020    11490        %VLP_ERRCODE(FPTN=E$KLH_FCG,FCG=KL,MID=H,MON='1'B,SEV=%G_SEV_ERROR#);
     1021    11536
     1022    11537                                                /* Entry points             */
     1023    11538    1   DCL GJA$DECODE_APL_MSG ENTRY(2) ALTRET;
     1024    11539    1   DCL GJA$SEND_MSG ENTRY(4) ALTRET;
     1025    11540    1   DCL KVB$GETSYS ENTRY(2) ALTRET;
     1026    11541    1   DCL KVB$GET2NSYS ENTRY(2) ALTRET;
     1027    11542    1   DCL GJA$PARSE ENTRY(9) ALTRET;
     1028    11543
     1029    11544                                                /* Auto                     */
     1030    11545    1   DCL KL$ PTR;
     1031    11546        %GJA$PARAMS (FPTN=PARAMS,STCLASS=AUTO);
     1032    11561    1   DCL P$ PTR;
     1033    11562    1   DCL I UBIN;
     1034    11563    1   DCL CHNRSP$ PTR;
     1035    11564        %B$TERMINAL_ID (FPTN=TERMID,STCLASS=AUTO);
     1036    11593
     1037    11594        %EJECT;
PL6.E3A0      #008=GJA$NETWORK_MANAGER File=GJA$SUBS.:E05TSI                     TUE 07/29/97 21:57 Page:176
     1038    11595    1        KL$ = ADDR(BUFFER);
     1039    11596    1        IF GJA_LDCT_NM ~= 0 AND KL$HDR.CODE ~= IGA_RQSCHN AND KL$HDR.CODE ~= IGA_SGN
     1040    11597        /* Network manager is active and not a channel request; forward to Host */
     1041    11598    2        THEN DO;
     1042    11599    2             CALL GJA$SEND_MSG(GJA_UID_NM$,BUFFER,SIZE);
     1043    11600    2           END;
     1044    11601    2        ELSE DO;
     1045    11602    3             DO CASE (KL$HDR.CODE);
     1046    11603    3             CASE (IGA_CONTROL_INIT);
     1047    11604    3                P$ = PINCRW(G$DS1$,2);
     1048    11605    4                DO I = 1 TO G$DS1$->B$DWORD;
     1049    11606    4                     P$ = PINCRW(G$DS1$,PINCRW(G$DS1$,I*SIZEW(B$DWORD))->B$DWORD);
     1050    11607    4                     IF P$->KL$CONTROL.HANDLER = KL$CONTROL.HANDLER
     1051    11608    5                     THEN DO;
     1052    11609    5                          P$->KL$CONTROL.TYPE = 1; /* Ack */
     1053    11610    5                          PARAMS = '0'B;
     1054    11611    5                          PARAMS.DAT$ = P$;
     1055    11612    5                          PARAMS.DATSIZE = SIZEC(KL$CONTROL);
     1056    11613    5                          CALL GJA$DECODE_APL_MSG(PARAMS,GJA_UID_NANM$);
     1057    11614    5                          RETURN;
     1058    11615    5                        END;
     1059    11616    4                     P$ = PINCRW(P$,SIZEW(KL$CONTROL));
     1060    11617    4                   END;
     1061    11618    3                KL$CONTROL.TYPE = 0;       /* NAK                      */
     1062    11619    3                PARAMS='0'B;
     1063    11620    3                PARAMS.DAT$ = ADDR(KL$CONTROL);
     1064    11621    3                PARAMS.DATSIZE = SIZE;
     1065    11622    3                CALL GJA$DECODE_APL_MSG(PARAMS,GJA_UID_NANM$);
     1066    11623    3             CASE (IGA_RQSPRO);
     1067    11624    3                PRFRSP.PROFILE.PRFSIZE=0;
     1068    11625    3                PRFRSP.NMID = KL$RQSPROFILE.NMID;
     1069    11626    3                PARAMS='0'B;
     1070    11627    3                PARAMS.DATSIZE = SIZEC(PRFRSP);
     1071    11628    3                PARAMS.DAT$ = ADDR(PRFRSP);
     1072    11629    3                CALL GJA$DECODE_APL_MSG(PARAMS,GJA_UID_NANM$);
     1073    11630
     1074    11631    3             CASE (IGA_RQSCHN);
PL6.E3A0      #008=GJA$NETWORK_MANAGER File=GJA$SUBS.:E05TSI                     TUE 07/29/97 21:57 Page:177
     1075    11632    3                IF KL$RQSCHN.LINE_PROFILE  /* This is a line profile reqest */
     1076    11633    4                THEN DO;
     1077    11634    4                     CHNRSP$ = GJA_LINE_HEAD$;
     1078    11635    4                     KL$RQSCHN.TERMINAL_ID.TTYP = 0;
     1079    11636
     1080    11637    5                     DO WHILE (CHNRSP$ ~= ADDR(NIL));
     1081    11638    5                          IF PINCRW(CHNRSP$,SIZEW(B$PTR$)+SIZEW(B$WORD))->KL$CHNRSP.
             11638                                   TERMINAL_ID.TERM.CHANNEL
     1082    11639    5                               = KL$RQSCHN.TERMINAL_ID.TERM.CHANNEL
     1083    11640    6                          THEN DO;
     1084    11641    6                               CHNRSP$ = PINCRW(CHNRSP$,SIZEW(B$PTR$));
     1085    11642    6                               PARAMS='0'B;
     1086    11643    6                               PARAMS.DATSIZE = CHNRSP$->B$WORD*2 - SIZEC(B$WORD) -
             11643                                        SIZEC(B$PTR$);
     1087    11644    6                               CHNRSP$ = PINCRW(CHNRSP$,SIZEW(B$WORD));
     1088    11645    6                               CHNRSP$->KL$CHNRSP.HANDLER = KL$RQSCHN.HANDLER;
     1089    11646    6                               PARAMS.DAT$ = CHNRSP$;
     1090    11647    6                               CALL GJA$DECODE_APL_MSG(PARAMS,GJA_UID_NANM$);
     1091    11648    6                               RETURN;
     1092    11649    6                             END;
     1093    11650    5                          CHNRSP$ = CHNRSP$->B$PTR$;
     1094    11651    5                        END;
     1095    11652    4                   END;
     1096    11653    3                ELSE IF KL$RQSCHN.CONFIG
     1097    11654    4                     THEN DO;
     1098    11655    4                          CHNRSP$ = GJA_CHNRSP_HEAD$;
     1099    11656    4                          TERMID = KL$RQSCHN.TERMINAL_ID;
     1100    11657    4                          TERMID.TTYP = 0;
     1101    11658    4                          IF TERMID.TERM.TERM_NAME ~= ' '
     1102    11659    4                          THEN
     1103    11660    4                               TERMID.TERM.CHANNEL = 0;
     1104    11661
     1105    11662    5                          DO WHILE (CHNRSP$ ~= ADDR(NIL));
     1106    11663    5                               IF PINCRW(CHNRSP$,SIZEW(B$PTR$))->KL$CHNRSP.TERMINAL_ID
     1107    11664    5                                    = TERMID
     1108    11665    6                               THEN DO;
     1109    11666    6                                    CHNRSP = PINCRW(CHNRSP$,SIZEW(B$PTR$))->KL$CHNRSP;
PL6.E3A0      #008=GJA$NETWORK_MANAGER File=GJA$SUBS.:E05TSI                     TUE 07/29/97 21:57 Page:178
     1110    11667    6                                    GOTO DO_CHNRSP;
     1111    11668    6                                  END;
     1112    11669    5                               CHNRSP$ = CHNRSP$->B$PTR$;
     1113    11670    5                             END;
     1114    11671    4                        END;
     1115    11672        /* When we get down here, we could not satisfy this channel request.
     1116    11673           But remember that maybe this request will be handled by the host. */
     1117    11674    3                IF GJA_LDCT_NM ~= 0
     1118    11675    4                THEN DO;
     1119    11676    4                     CALL GJA$SEND_MSG(GJA_UID_NM$,BUFFER,SIZE);
     1120    11677    4                     RETURN;
     1121    11678    4                   END;
     1122    11679    3                CHNRSP.NAK = '1'B;
     1123    11680    3   DO_CHNRSP:   ;
     1124    11681    3                CHNRSP.LINE_PROFILE = KL$RQSCHN.LINE_PROFILE;
     1125    11682    3                CHNRSP.CONFIG = KL$RQSCHN.CONFIG;
     1126    11683    3                CHNRSP.DFLTHND = KL$RQSCHN.DFLTHND;
     1127    11684    3                CHNRSP.HANDLER = KL$RQSCHN.HANDLER;
     1128    11685    3                CHNRSP.TERMINAL_ID = KL$RQSCHN.TERMINAL_ID;
     1129    11686    3                PARAMS='0'B;
     1130    11687    3                PARAMS.DAT$ = ADDR(CHNRSP);
     1131    11688    3                PARAMS.DATSIZE = SIZEC(CHNRSP);
     1132    11689    3                CALL GJA$DECODE_APL_MSG(PARAMS,GJA_UID_NANM$);
     1133    11690
     1134    11691    3             CASE (IGA_SGN);
     1135    11692    4                IF KL$SGN.AUTOLGN THEN DO;
     1136    11693    5                     IF GJA_LDCT_NM = 0 THEN DO;
     1137    11694    5                          ERR = %E$NOHOST;
     1138    11695    5                          GOTO LGNFAILED;
     1139    11696    5                        END;
     1140    11697    4                     ELSE
     1141    11698    4                          CALL GJA$SEND_MSG(GJA_UID_NM$,BUFFER,SIZE);
     1142    11699    4                   END;
     1143    11700    4                ELSE DO;
     1144    11701    4                     IF GJA_MSG_NOHOST$ = ADDR(NIL) OR
     1145    11702    4                          GJA_MSG_UDHOST$ = ADDR(NIL) OR
     1146    11703    4                          GJA_MSG_BDID$ = ADDR(NIL) OR
PL6.E3A0      #008=GJA$NETWORK_MANAGER File=GJA$SUBS.:E05TSI                     TUE 07/29/97 21:57 Page:179
     1147    11704    5                          GJA_MSG_SGSYN$ = ADDR(NIL) THEN DO;
     1148    11705    5                          IF GJA_LDCT_NM = 0 THEN
     1149    11706    5                               GOTO LGNFAILED;
     1150    11707    5                          ELSE
     1151    11708    5                               CALL GJA$SEND_MSG(GJA_UID_NM$,BUFFER,SIZE);
     1152    11709    5                          RETURN;
     1153    11710    5                        END;
     1154    11711    4                     CALL GJA$PARSE(KL$SGN.LOGON,ACCT,NAME,PW,PRO,ERR,HOST,NOSETUP,
             11711                              NOHEADER)
     1155    11712    5                     WHENALTRETURN DO;
     1156    11713    5                          SYSLOG.ERRLOG.ERRCODE.ERR# = ERR;
     1157    11714    5                          SYSLOG.ERRLOG.DATA_SIZE = KL$SGN.LOGON.LGNSIZ;
     1158    11715    5                          SYSLOG.ERRLOG.DATA = KL$SGN.LOGON.LGNTXT;
     1159    11716    5                          SYSLOG.ERRLOG.TERMID = KL$SGN.TERMINAL_ID;
     1160    11717    5                          SYSLOG.ERRLOG.VALUES(0) = GJA_NODE#;
     1161    11718    5                          CALL GJA$NETWORK_MANAGER(SYSLOG,SIZEC(SYSLOG)-SIZEC(
     1162    11719    5                               SYSLOG.ERRLOG.DATA)+SYSLOG.ERRLOG.DATA_SIZE);
     1163    11720    6                          DO CASE (ERR);
     1164    11721    6                          CASE(%E$SGSYN);
     1165    11722    6                             SGNRSP.MESSAGE.RSPSIZ = GJA_MSG_SGSYN$->TEXT.L;
     1166    11723    6                             SGNRSP.MESSAGE.RSPTXT = GJA_MSG_SGSYN$->TEXT.C;
     1167    11724    6                          CASE(%E$BDID);
     1168    11725    6                             SGNRSP.MESSAGE.RSPSIZ = GJA_MSG_BDID$->TEXT.L;
     1169    11726    6                             SGNRSP.MESSAGE.RSPTXT = GJA_MSG_BDID$->TEXT.C;
     1170    11727    6                          CASE(ELSE);
     1171    11728    6                             SGNRSP.MESSAGE.RSPSIZ = GJA_MSG_NOHOST$->TEXT.L;
     1172    11729    6                             SGNRSP.MESSAGE.RSPTXT = GJA_MSG_NOHOST$->TEXT.C;
     1173    11730    6                          END;
     1174    11731    5   LGNFAILED:             PARAMS = '0'B;
     1175    11732    5                          SGNRSP.NMID = KL$SGN.NMID;
     1176    11733    5                          SGNRSP.ERRCODE = E$KLH_FCG; /* make the fcg look like slug */
     1177    11734    5                          SGNRSP.ERRCODE.ERR# = ERR;
     1178    11735    5                          PARAMS.DAT$ = ADDR(SGNRSP);
     1179    11736    5                          PARAMS.DATSIZE = SIZEC(SGNRSP) - SIZEC(SGNRSP.MESSAGE.RSPTXT)
             11736                                   +
     1180    11737    5                               SGNRSP.MESSAGE.RSPSIZ;
     1181    11738    5                          CALL GJA$DECODE_APL_MSG(PARAMS,GJA_UID_NANM$);
PL6.E3A0      #008=GJA$NETWORK_MANAGER File=GJA$SUBS.:E05TSI                     TUE 07/29/97 21:57 Page:180
     1182    11739    5                          ALTRETURN;
     1183    11740    5                        END;
     1184    11741    5                     IF ACCR.C1 = '?' THEN DO;
     1185    11742    5                          SGNRSP.MESSAGE.RSPSIZ = GJA_MSG_SGSYN$->TEXT.L;
     1186    11743    5                          SGNRSP.MESSAGE.RSPTXT = GJA_MSG_SGSYN$->TEXT.C;
     1187    11744    5                          ERR = %E$SGSYN;
     1188    11745    5                          GOTO LGNFAILED;
     1189    11746    5                        END;
     1190    11747    5                     IF HOST = ' ' THEN DO;
     1191    11748    5                          HOST = GJA$NODETBL.NODE.NODE(GJA_DEFNODE);
     1192    11749    5                          I = GJA_DEFNODE;
     1193    11750    5                          IF GJA_LDCT_NM ~= 0 THEN
     1194    11751    5                               CTX$ = GJA_UID_NM$;
     1195    11752    6                          ELSE DO;
     1196    11753    6                               SGNRSP.MESSAGE.RSPSIZ = GJA_MSG_NOHOST$->TEXT.L;
     1197    11754    6                               SGNRSP.MESSAGE.RSPTXT = GJA_MSG_NOHOST$->TEXT.C;
     1198    11755    6                               ERR = %E$NOHOST;
     1199    11756    6                               GOTO LGNFAILED;
     1200    11757    6                             END;
     1201    11758    5                        END;
     1202    11759    5                     ELSE DO;
     1203    11760    5                          FOUNDIT = '0'B;
     1204    11761    6   FNDIT:                 DO I = 0 TO GJA$NODETBL.NODE#;
     1205    11762    7                               IF GJA$NODETBL.NODE.NODE(I) = HOST THEN DO;
     1206    11763    7                                    FOUNDIT = '1'B;
     1207    11764    7                                    EXIT FNDIT;
     1208    11765    7                                  END;
     1209    11766    6                             END;
     1210    11767    6                          IF NOT FOUNDIT THEN DO;
     1211    11768    6                               ERR = %E$UDHOST;
     1212    11769    6                               SGNRSP.MESSAGE.RSPSIZ = GJA_MSG_UDHOST$->TEXT.L;
     1213    11770    6                               SGNRSP.MESSAGE.RSPTXT = GJA_MSG_UDHOST$->TEXT.C;
     1214    11771    6                               GOTO LGNFAILED;
     1215    11772    6                             END;
     1216    11773    5                          ROUTE$ = KNN$ROUTE$(I);
     1217    11774    5                          CTX$ = KNN$ROUTE.CTX$;
     1218    11775    6                          IF CTX$ = ADDR(NIL) OR CTX$->GJA$HAND_CTX.LDCTX = 0 THEN DO;
PL6.E3A0      #008=GJA$NETWORK_MANAGER File=GJA$SUBS.:E05TSI                     TUE 07/29/97 21:57 Page:181
     1219    11776    6                               SGNRSP.MESSAGE.RSPSIZ = GJA_MSG_NOHOST$->TEXT.L;
     1220    11777    6                               SGNRSP.MESSAGE.RSPTXT = GJA_MSG_NOHOST$->TEXT.C;
     1221    11778    6                               ERR = %E$NOHOST;
     1222    11779    6                               GOTO LGNFAILED;
     1223    11780    6                             END;
     1224    11781    6                          IF NOT CTX$->GJA$HAND_CTX.HOST_NODE THEN DO;
     1225    11782    6                               SGNRSP.MESSAGE.RSPSIZ = GJA_MSG_UDHOST$->TEXT.L;
     1226    11783    6                               SGNRSP.MESSAGE.RSPTXT = GJA_MSG_UDHOST$->TEXT.C;
     1227    11784    6                               ERR = %E$UDHOST;
     1228    11785    6                               GOTO LGNFAILED;
     1229    11786    6                             END;
     1230    11787    5                        END;
     1231    11788    4                     NMID = KL$SGN.NMID;
     1232    11789    4                     NMID$->GJA$LGNCTX.NM_NODE = I;
     1233    11790    4                     KL$SGN.NODE = GJA_NODE#;
     1234    11791    4                     CALL GJA$SEND_MSG(CTX$,BUFFER,SIZE);
     1235    11792    4                   END;                    /* not autologn */
     1236    11793
     1237    11794    3             CASE (IGA_ERRMSG_RQS);
     1238    11795    3                ERRMSG_RSP.USR# = KL$ERRMSG_RQS.USR#;
     1239    11796    3                ERRMSG_RSP.CTX$ = KL$ERRMSG_RQS.CTX$;
     1240    11797    3                ERRMSG_RSP.MESSAGE_SZ = 0;
     1241    11798    3                ERRMSG_RSP.NO_NM = '1'B;
     1242    11799    3                PARAMS='0'B;
     1243    11800    3                PARAMS.DAT$ = ADDR(ERRMSG_RSP);
     1244    11801    3                PARAMS.DATSIZE = SIZEC(ERRMSG_RSP);
     1245    11802    3                CALL GJA$DECODE_APL_MSG(PARAMS,GJA_UID_NANM$);
     1246    11803
     1247    11804    3             CASE (IGA_SYSLOG);
     1248    11805    3                IF KV$BPC.TOT/2 < KV$BPC.USE THEN
     1249    11806    3                     RETURN; /* dont keep logs if more than half of mem in use */
     1250    11807    3                CALL KVB$GET2NSYS((SIZE+SIZEC(SV$MSG)+1)/2,SVMSG$)
     1251    11808    4                WHENALTRETURN DO;
     1252    11809    4                     RETURN;          /* drop errmsgs we don't have memory for */
     1253    11810    4                   END;
     1254    11811    3                SVMSG$->SV$MSG.LNK$ = ADDR(NIL);
     1255    11812    3                SVMSG$->SV$MSG.SZ = SIZE;
PL6.E3A0      #008=GJA$NETWORK_MANAGER File=GJA$SUBS.:E05TSI                     TUE 07/29/97 21:57 Page:182
     1256    11813    3                IF GJA$SYSLOG$ = ADDR(NIL) THEN
     1257    11814    3                     GJA$SYSLOG$ = SVMSG$;
     1258    11815    3                ELSE
     1259    11816    4                DO;
     1260    11817    4                     TMP$ = GJA$SYSLOG$;
     1261    11818    5                     DO WHILE TMP$->SV$MSG.LNK$ ~= ADDR(NIL);
     1262    11819    5                          TMP$ = TMP$->SV$MSG.LNK$;
     1263    11820    5                        END;
     1264    11821    4                     TMP$->SV$MSG.LNK$ = SVMSG$;
     1265    11822    4                   END;
     1266    11823    3                SVMSG$ = PINCRW(SVMSG$,SIZEW(SV$MSG));
     1267    11824    3                SVMSG$->STRING = BUFFER;
     1268    11825    3             CASE(IGA_DUMPMSG);
     1269    11826    3                KL$DUMPMSG.NAHDR.ERRFLAG=1;
     1270    11827    3             END /* End cases */;
     1271    11828
     1272    11829    2           END;
     1273    11830
     1274    11831    1        RETURN;
     1275    11832
     1276    11833    1   END GJA$NETWORK_MANAGER;
     1277    11834        %EOD;

PL6.E3A0      #008=GJA$NETWORK_MANAGER File=GJA$SUBS.:E05TSI                     TUE 07/29/97 21:57 Page:183
--  Include file information  --

   KNN_NETWORK_M.:E05TOU  is referenced.
   KL_ERRORS_C.:E05TOU  is referenced.
   KV$BPC.:E05TOU  is referenced.
   G_LCP6_E.:E05TOU  is referenced.
   GT_LCP6_M.:E05TOU  is referenced.
   KI_CP6.:E05TOU  is referenced.
   GF_LCP6_M.:E05TOU  is referenced.
   GM_LCP6_M.:E05TOU  is referenced.
   GU_LCP6_M.:E05TOU  is referenced.
   GJ_LCP6_M.:E05TOU  is referenced.
   GH_LCP6_M.:E05TOU  is referenced.
   LCP_6.:E05TOU  cannot be made into a system file and is referenced.
   KN_ERRORS_C.:E05TOU  is referenced.
   KNH_MACRO_C.:E05TOU  is referenced.
   KL_AFCN_C.:E05TOU  is referenced.
   KL_MACRO_C.:E05TOU  is referenced.
   KL_CONTROL_C.:E05TOU  is referenced.
   GJA_MSG_M.:E05TOU  is referenced.
      No diagnostics issued in procedure GJA$NETWORK_MANAGER.

   Procedure GJA$NETWORK_MANAGER requires 1327 words for executable code.
   Procedure GJA$NETWORK_MANAGER requires 104 words of local(AUTO) storage.

PL6.E3A0      #008=GJA$NETWORK_MANAGER File=GJA$SUBS.:E05TSI                     TUE 07/29/97 21:57 Page:184

 Object Unit name= GJA$NETWORK_MANAGER                        File name= GJA$SUBS.:E05TOU
 UTS= JUL 29 '97 21:57:04.16 TUE                              Compiler= PL-6/E31         Sev=      00
 SharedLib= :SHARED_LCP6_SYSTEM                               Alt SharedLib=


    ****  Control sections  ****

 Sect   Type Bound  Init  Size HexSiz  Section name
    0   Data  even  none   463    1CF  GJA$NETWORK_MANAGER
    1   Proc  even  none  1327    52F  GJA$NETWORK_MANAGER
    2  RoData even  none     1      1  GJA$NETWORK_MANAGER

    ****  Entry defs  ****

                              Check   Calling
                             calling  sequence
  Sect HexLoc Primary Altret sequence   type   Parms  Name
     1      0   yes    yes     yes      Std        2  GJA$NETWORK_MANAGER

  ****  Entry refs  ****

         Check        Calling
        calling       sequence
Altret sequence SRef   type   Args  Name
 yes     yes           Std       4 GJA$SEND_MSG
 yes     yes           Std       2 KVB$GET2NSYS
 yes     yes           Std       2 GJA$DECODE_APL_MSG
 yes     yes           Std       9 GJA$PARSE
                       nStd      0 X6A_AUTO_2
                       nStd      0 X6A_ARET
                       nStd      0 X6A_AALT
PL6.E3A0      #008=GJA$NETWORK_MANAGER File=GJA$SUBS.:E05TSI                     TUE 07/29/97 21:57 Page:185

  ****  Data refs  ****

  Flags:  r = read only, s = secondary
Flgs Name                             Flgs Name                             Flgs Name
     GJA_LDCT_NM                           GJA_UID_NM                            GJA_UID_NANM$
     G$DS1$                                GJA_LINE_HEAD$                        GJA_CHNRSP_HEAD$
     GJA$SYSLOG$                           KV_B_POOL$                            GJA_NODE#
     GJA_DEFNODE                           GJA_ROUTE$                            GJA_MSG_SGSYN$
     GJA_MSG_BDID$                         GJA_MSG_NOHOST$                       GJA_MSG_UDHOST$
     GJA$NODETBL                      r    G$ROS$
PL6.E3A0      #008=GJA$NETWORK_MANAGER File=GJA$SUBS.:E05TSI                     TUE 07/29/97 21:57 Page:186


      894        1        /*T***********************************************************/
      895        2        /*T*                                                         */
      896        3        /*T* Copyright (c) Bull HN Information Systems Inc., 1997    */
      897        4        /*T*                                                         */
      898        5        /*T***********************************************************/
      899        6        /*F* NAME:     GJA$NETWORK_MANAGER
      900        7
      901        8             PURPOSE:  To respond to a request from the Network manager.
      902        9
      903       10             DESCRIPTION:  This routine will be called whenever there is a
      904       11                           need to solicit the Network manager for some data.
      905       12                           If the Network manager is not currently connected
      906       13                           it will respond otherwise the messages get passed
      907       14                           on to the Network manager.
      908       15
      909       16             CALL:      CALL GJA$NETWORK_MANAGER(KL$?,SIZE);
      910       17
      911       18             INPUTS: KL$? is a structure defined in KL_MACRO_C
      912       19                     SIZE is the size of the passed structure
      913       20
      914       21         */
      915       22        GJA$NETWORK_MANAGER: PROC (BUFFER,SIZE) ALTRET;

     22   1 000000  D380 0000 0000  xent GJA$NETWORK_MAN*LNJ,B5   X6A_AUTO_2
          1 000003       0068 0002                       DC       104,2

      916       23
      917       24                                                /* Includes                 */
      918       25        %INCLUDE GJA_MSG_M;
      919      264        %INCLUDE KL_CONTROL_C;
      920      644        %INCLUDE KL_MACRO_C;
      921     3996        %INCLUDE KL_AFCN_C;
      922     4097        %INCLUDE KNH_MACRO_C;
      923     4380        %INCLUDE KN_ERRORS_C;
      924     4444        %INCLUDE LCP_6;
      925     8723        %INCLUDE KV$BPC;
PL6.E3A0      #008=GJA$NETWORK_MANAGER File=GJA$SUBS.:E05TSI                     TUE 07/29/97 21:57 Page:187
      926     8752        %INCLUDE KL_ERRORS_C;
      927     8794        %INCLUDE KNN_NETWORK_M;
      928     9157
      929     9158        /* Parameters */
      930     9159    1   DCL BUFFER CHAR(SIZE) WALIGNED;
      931     9160    1   DCL SIZE UBIN;
      932     9161
      933     9162                                                /* Symrefs                  */
      934     9163    1   DCL GJA_LDCT_NM UBIN SYMREF;
      935     9164    1   DCL GJA_UID_NM UBIN(32) SYMREF;
      936     9165    1   DCL GJA_UID_NM$ REDEF GJA_UID_NM PTR;
      937     9166    1   DCL GJA_UID_NANM$ PTR SYMREF;
      938     9167    1   DCL G$DS1$ PTR SYMREF;
      939     9168    1   DCL GJA_LINE_HEAD$ PTR SYMREF;
      940     9169    1   DCL GJA_CHNRSP_HEAD$ PTR SYMREF;
      941     9170    1   DCL GJA$SYSLOG$ PTR SYMREF;
      942     9171    1   DCL KV_B_POOL$ PTR SYMREF;
      943     9172    1   DCL GJA_NODE# UBIN SYMREF;
      944     9173    1   DCL GJA_DEFNODE UBIN SYMREF;
      945     9174    1   DCL GJA_ROUTE$ PTR SYMREF;
      946     9175    1   DCL GJA_MSG_SGSYN$ PTR SYMREF;
      947     9176    1   DCL GJA_MSG_BDID$ PTR SYMREF;
      948     9177    1   DCL GJA_MSG_NOHOST$ PTR SYMREF;
      949     9178    1   DCL GJA_MSG_UDHOST$ PTR SYMREF;
      950     9179        %GJA_NODETBL(NAME=GJA$NODETBL,STCLASS=SYMREF);
      951     9203
      952     9204                                                /* Based                    */
      953     9205        %KL_HDR (FPTN=KL$HDR,STCLASS="BASED(KL$)");
      954     9286        %KL_CONTROL_INIT (FPTN=KL$CONTROL,NUM_FIXED=%KL_FIXED_HI,NUM_INDXD=4,STCLASS=
              9286            "BASED(KL$)",LAST=",");
      955     9412    1            2 BLOCK(0:15) UBIN(18) UNAL,
      956     9413    1            2 UNBLOCK(0:15) UBIN(18) UNAL,
      957     9414    1            2 USRPARM1(0:7) UBIN(18) UNAL,
      958     9415    1            2 USRPARM2(0:7) UBIN(18) UNAL;
      959     9416        %KL_ADMIN (FPTN=KL$ADMIN,STCLASS="BASED(KL$)");
      960     9577        %KL_CONFIGRSP (FPTN=KL$CONFIGRSP,STCLASS="BASED(KL$)");
      961     9668        %KL_CWNAK (FPTN=KL$CWNAK,STCLASS="BASED(KL$)");
PL6.E3A0      #008=GJA$NETWORK_MANAGER File=GJA$SUBS.:E05TSI                     TUE 07/29/97 21:57 Page:188
      962     9733        %KL_KEYMES (FPTN=KL$KEYMES,STCLASS="BASED(KL$)");
      963     9872        %KL_RQSCHN (FPTN=KL$RQSCHN,STCLASS="BASED(KL$)");
      964     9975        %KL_SGN (FPTN=KL$SGN,STCLASS="BASED(KL$)",LGNSIZ="KL$SGN.LOGON.LGNSIZ");
      965    10068        %KL_ERRMSG_RQS (FPTN=KL$ERRMSG_RQS,STCLASS="BASED(KL$)");
      966    10243        %KL_CHNRSP (FPTN=KL$CHNRSP,STCLASS=BASED);
      967    10463        %KL_DUMPMSG (FPTN=KL$DUMPMSG,STCLASS="BASED(KL$)");
      968    10504        %KL_RQSPROFILE (FPTN=KL$RQSPROFILE,STCLASS="BASED(KL$)");
      969    10562    1   DCL B$DWORD UBIN(32) BASED;
      970    10563    1   DCL B$PTR$ PTR BASED;
      971    10564    1   DCL B$WORD UBIN BASED;
      972    10565        %KV$BPC(STCLASS="BASED(KV_B_POOL$)");
      973    10587    1   DCL KNN$ROUTE$(0:0) PTR BASED(GJA_ROUTE$);
      974    10588        %KNN$ROUTE(STCLASS="BASED(ROUTE$)");
      975    10660        %GJA$LGNCTX(STCLASS="BASED");
      976    10745        %GJA$HAND_CTX(STCLASS="BASED(CTX$)");
      977    10794    1   DCL 1 SV$MSG BASED,
      978    10795    1            2 BFRSIZ UBIN,                 /* size of buffer allocated */
      979    10796    1            2 LNK$ PTR,
      980    10797    1            2 SZ UBIN,
      981    10798    1            2 VFC CHAR(1) UNAL,
      982    10799    1            2 * CHAR(1) UNAL;
      983    10800    1   DCL STRING CHAR(SIZE) BASED;
      984    10801    1   DCL SVMSG$ PTR;
      985    10802    1   DCL TMP$ PTR;
      986    10803    1   DCL ACCT CHAR(8);
      987    10804    1   DCL 1 ACCR REDEF ACCT,
      988    10805    1            2 C1 CHAR(1) UNAL,
      989    10806    1            2 * CHAR(7) UNAL;
      990    10807    1   DCL 1 NAME ALIGNED,
      991    10808    1            2 C UBIN BYTE UNAL,
      992    10809    1            2 T CHAR(12) UNAL;
      993    10810    1   DCL PW CHAR(8);
      994    10811    1   DCL 1 PRO ALIGNED,
      995    10812    1            2 C UBIN BYTE UNAL,
      996    10813    1            2 T CHAR(11) UNAL;
      997    10814    1   DCL ERR UBIN;
      998    10815    1   DCL HOST CHAR(8);
PL6.E3A0      #008=GJA$NETWORK_MANAGER File=GJA$SUBS.:E05TSI                     TUE 07/29/97 21:57 Page:189
      999    10816    1   DCL NOSETUP BIT (1) ALIGNED;
     1000    10817    1   DCL NOHEADER BIT (1) ALIGNED;
     1001    10818    1   DCL FOUNDIT BIT(1);
     1002    10819    1   DCL 1 TEXT BASED,
     1003    10820    1            2 L UBIN BYTE UNAL,
     1004    10821    1            2 C CHAR(TEXT.L) UNAL;
     1005    10822    1   DCL ROUTE$ PTR;
     1006    10823    1   DCL CTX$ PTR;
     1007    10824    1   DCL NMID$ PTR;
     1008    10825    1   DCL NMID REDEF NMID$ UBIN(32);
     1009    10826
     1010    10827                                                /* Static                   */
     1011    10828        %KL_SGNRSP(FPTN=SGNRSP,STCLASS=STATIC,RSPSIZ=200);
     1012    10964        %KL_SYSLOG(FPTN=SYSLOG,LAST=",",STCLASS=STATIC,FILENUM=SECLOG);
     1013    10988        %KL_ERRLOG(FPTN=ERRLOG,LAST=",",LVL=2,STCLASS=STATIC);
     1014    11096    1                 3 DATA CHAR(200) UNAL;
     1015    11097        %KL_ERRMSG_RSP (FPTN=ERRMSG_RSP,STCLASS=STATIC);
     1016    11173        %KL_CHNRSP (FPTN=CHNRSP,STCLASS=STATIC);
     1017    11393        %KL_PRFRSP (FPTN=PRFRSP,STCLASS=STATIC,PRFSIZE=1);
     1018    11443        %VLP_ERRCODE(FPTN=E$NONETMAN,FCG=GJ,MID=A,MON='1'B,
     1019    11444                     ERR#=%E$NONETMAN,SEV=%G_SEV_ERROR#);
     1020    11490        %VLP_ERRCODE(FPTN=E$KLH_FCG,FCG=KL,MID=H,MON='1'B,SEV=%G_SEV_ERROR#);
     1021    11536
     1022    11537                                                /* Entry points             */
     1023    11538    1   DCL GJA$DECODE_APL_MSG ENTRY(2) ALTRET;
     1024    11539    1   DCL GJA$SEND_MSG ENTRY(4) ALTRET;
     1025    11540    1   DCL KVB$GETSYS ENTRY(2) ALTRET;
     1026    11541    1   DCL KVB$GET2NSYS ENTRY(2) ALTRET;
     1027    11542    1   DCL GJA$PARSE ENTRY(9) ALTRET;
     1028    11543
     1029    11544                                                /* Auto                     */
     1030    11545    1   DCL KL$ PTR;
     1031    11546        %GJA$PARAMS (FPTN=PARAMS,STCLASS=AUTO);
     1032    11561    1   DCL P$ PTR;
     1033    11562    1   DCL I UBIN;
     1034    11563    1   DCL CHNRSP$ PTR;
     1035    11564        %B$TERMINAL_ID (FPTN=TERMID,STCLASS=AUTO);
PL6.E3A0      #008=GJA$NETWORK_MANAGER File=GJA$SUBS.:E05TSI                     TUE 07/29/97 21:57 Page:190
     1036    11593
     1037    11594        %EJECT;
PL6.E3A0      #008=GJA$NETWORK_MANAGER File=GJA$SUBS.:E05TSI                     TUE 07/29/97 21:57 Page:191
     1038    11595    1        KL$ = ADDR(BUFFER);

  11595   1 000005  ECC7 0004                            LDB,B6   @BUFFER,AUTO
          1 000007  EFC7 002F                            STB,B6   KL$,AUTO

     1039    11596    1        IF GJA_LDCT_NM ~= 0 AND KL$HDR.CODE ~= IGA_RQSCHN AND KL$HDR.CODE ~= IGA_SGN

  11596   1 000009  E800 0000 0000  xsym                 LDR,R6   GJA_LDCT_NM
          1 00000C  6901 001D                            BEZ,R6   s:11602,PREL
          1 00000E  D286                                 LLH,R5   ,B6
          1 00000F  5D3D                                 CMV,R5   61
          1 000010  0901 0019                            BE       s:11602,PREL
          1 000012  5D02                                 CMV,R5   2
          1 000013  0901 0016                            BE       s:11602,PREL

     1040    11597        /* Network manager is active and not a channel request; forward to Host */
     1041    11598    2        THEN DO;

     1042    11599    2             CALL GJA$SEND_MSG(GJA_UID_NM$,BUFFER,SIZE);

  11599   1 000015  DCC7 0006                            LDB,B5   @SIZE,AUTO
          1 000017  DFC7 005A                            STB,B5   TERMID+13,AUTO
          1 000019  EFC7 0058                            STB,B6   TERMID+11,AUTO
          1 00001B  CB80 0000 0000  xsym                 LAB,B4   GJA_UID_NM
          1 00001E  CFC7 0056                            STB,B4   TERMID+9,AUTO
          1 000020  BBC7 0056                            LAB,B3   TERMID+9,AUTO
          1 000022  CBF0 0300                            LAB,B4   768,IMO
          1 000024  E380 0000 0000  xent                 LNJ,B6   GJA$SEND_MSG
          1 000027       0001                            DC       s:11600,PREL

     1043    11600    2           END;

  11600   1 000028  0F81 0503                            B        s:11831,PREL

     1044    11601    2        ELSE DO;

     1045    11602    3             DO CASE (KL$HDR.CODE);
PL6.E3A0      #008=GJA$NETWORK_MANAGER File=GJA$SUBS.:E05TSI                     TUE 07/29/97 21:57 Page:192

  11602   1 00002A  B286                                 LLH,R3   ,B6
          1 00002B  3D3E                                 CMV,R3   62
          1 00002C  0281 04FF                            BGE      s:11831,PREL
          1 00002E  A830 0000 0034  01                   LDR,R2   s:11602+10,R3
          1 000031  83A0 0000 0072  01                   JMP      s:11604,R2
          1 000034       04BA                            DC       s:11831,PREL
          1 000035       04BA                            DC       s:11831,PREL
          1 000036       01A5                            DC       s:11692,PREL
          1 000037       04BA                            DC       s:11831,PREL
          1 000038       04BA                            DC       s:11831,PREL
          1 000039       04BA                            DC       s:11831,PREL
          1 00003A       04BA                            DC       s:11831,PREL
          1 00003B       04BA                            DC       s:11831,PREL
          1 00003C       04BA                            DC       s:11831,PREL
          1 00003D       04BA                            DC       s:11831,PREL
          1 00003E       04BA                            DC       s:11831,PREL
          1 00003F       04BA                            DC       s:11831,PREL
          1 000040       04BA                            DC       s:11831,PREL
          1 000041       04BA                            DC       s:11831,PREL
          1 000042       04BA                            DC       s:11831,PREL
          1 000043       04BA                            DC       s:11831,PREL
          1 000044       04BA                            DC       s:11831,PREL
          1 000045       04BA                            DC       s:11831,PREL
          1 000046       04BA                            DC       s:11831,PREL
          1 000047       04BA                            DC       s:11831,PREL
          1 000048       04BA                            DC       s:11831,PREL
          1 000049       04BA                            DC       s:11831,PREL
          1 00004A       04BA                            DC       s:11831,PREL
          1 00004B       0086                            DC       s:11624,PREL
          1 00004C       04BA                            DC       s:11831,PREL
          1 00004D       04BA                            DC       s:11831,PREL
          1 00004E       04BA                            DC       s:11831,PREL
          1 00004F       04BA                            DC       s:11831,PREL
          1 000050       04BA                            DC       s:11831,PREL
          1 000051       04BA                            DC       s:11831,PREL
          1 000052       04BA                            DC       s:11831,PREL
PL6.E3A0      #008=GJA$NETWORK_MANAGER File=GJA$SUBS.:E05TSI                     TUE 07/29/97 21:57 Page:193
          1 000053       04BA                            DC       s:11831,PREL
          1 000054       04BA                            DC       s:11831,PREL
          1 000055       04BA                            DC       s:11831,PREL
          1 000056       0000                            DC       s:11604,PREL
          1 000057       04BA                            DC       s:11831,PREL
          1 000058       04BA                            DC       s:11831,PREL
          1 000059       04BA                            DC       s:11831,PREL
          1 00005A       04BA                            DC       s:11831,PREL
          1 00005B       044E                            DC       s:11805,PREL
          1 00005C       04BA                            DC       s:11831,PREL
          1 00005D       04BA                            DC       s:11831,PREL
          1 00005E       04B7                            DC       s:11826,PREL
          1 00005F       04BA                            DC       s:11831,PREL
          1 000060       04BA                            DC       s:11831,PREL
          1 000061       041A                            DC       s:11795,PREL
          1 000062       04BA                            DC       s:11831,PREL
          1 000063       04BA                            DC       s:11831,PREL
          1 000064       04BA                            DC       s:11831,PREL
          1 000065       04BA                            DC       s:11831,PREL
          1 000066       04BA                            DC       s:11831,PREL
          1 000067       04BA                            DC       s:11831,PREL
          1 000068       04BA                            DC       s:11831,PREL
          1 000069       04BA                            DC       s:11831,PREL
          1 00006A       04BA                            DC       s:11831,PREL
          1 00006B       04BA                            DC       s:11831,PREL
          1 00006C       04BA                            DC       s:11831,PREL
          1 00006D       04BA                            DC       s:11831,PREL
          1 00006E       04BA                            DC       s:11831,PREL
          1 00006F       04BA                            DC       s:11831,PREL
          1 000070       04BA                            DC       s:11831,PREL
          1 000071       00B0                            DC       s:11632,PREL

     1046    11603    3             CASE (IGA_CONTROL_INIT);

     1047    11604    3                P$ = PINCRW(G$DS1$,2);

  11604   1 000072  DC80 0000 0000  xsym                 LDB,B5   G$DS1$
PL6.E3A0      #008=GJA$NETWORK_MANAGER File=GJA$SUBS.:E05TSI                     TUE 07/29/97 21:57 Page:194
          1 000075  CBC5 0002                            LAB,B4   2,B5
          1 000077  CFC7 0048                            STB,B4   P$,AUTO

     1048    11605    4                DO I = 1 TO G$DS1$->B$DWORD;

  11605   1 000079  5C01                                 LDV,R5   1
          1 00007A  DF47 004A                            STR,R5   I,AUTO
          1 00007C  0F81 0049                            B        s:11617+2,PREL

     1049    11606    4                     P$ = PINCRW(G$DS1$,PINCRW(G$DS1$,I*SIZEW(B$DWORD))->B$DWORD);

  11606   1 00007E  F847 004A                            LDR,R7   I,AUTO
          1 000080  6C00                                 LDV,R6   0
          1 000081  7081                                 DOL,R7   1
          1 000082  8400 0000 0000  xsym                 AID      G$DS1$
          1 000085  8D47 0056                            SDI      TERMID+9,AUTO
          1 000087  ECC7 0056                            LDB,B6   TERMID+9,AUTO
          1 000089  8C86                                 LDI      ,B6
          1 00008A  8400 0000 0000  xsym                 AID      G$DS1$
          1 00008D  8D47 0048                            SDI      P$,AUTO

     1050    11607    4                     IF P$->KL$CONTROL.HANDLER = KL$CONTROL.HANDLER

  11607   1 00008F  ECC7 0048                            LDB,B6   P$,AUTO
          1 000091  DCC7 002F                            LDB,B5   KL$,AUTO
          1 000093  0022                                 ACM      ;
          1 000094       4806 0002                                ALPHANUM(2,B6,,8,FILL),;
          1 000096       4805 0002                                ALPHANUM(2,B5,,8,FILL)
          1 000098  5301 0027                            CBNE     s:11616,PREL

     1051    11608    5                     THEN DO;

     1052    11609    5                          P$->KL$CONTROL.TYPE = 1; /* Ack */

  11609   1 00009A  5C01                                 LDV,R5   1
          1 00009B  DA86                                 SRM,R5,'00FF'X    ,B6
          1 00009C       00FF
PL6.E3A0      #008=GJA$NETWORK_MANAGER File=GJA$SUBS.:E05TSI                     TUE 07/29/97 21:57 Page:195

     1053    11610    5                          PARAMS = '0'B;

  11610   1 00009D  5C2E                                 LDV,R5   46
          1 00009E  0021                                 ALR      ;
          1 00009F       4178 0000                                ALPHANUM('0000'X,IMO,,1),;
          1 0000A1       4007 0031                                ALPHANUM(PARAMS,AUTO,,R5,FILL)

     1054    11611    5                          PARAMS.DAT$ = P$;

  11611   1 0000A3  437F                                 CSYNC    s:11610+5,SPREL
          1 0000A4  ECC7 0048                            LDB,B6   P$,AUTO
          1 0000A6  EFC7 0037                            STB,B6   PARAMS+6,AUTO

     1055    11612    5                          PARAMS.DATSIZE = SIZEC(KL$CONTROL);

  11612   1 0000A8  E870 00DE                            LDR,R6   222,IMO
          1 0000AA  EF47 0039                            STR,R6   PARAMS+8,AUTO

     1056    11613    5                          CALL GJA$DECODE_APL_MSG(PARAMS,GJA_UID_NANM$);

  11613   1 0000AC  CB80 0000 0000  xsym                 LAB,B4   GJA_UID_NANM$
          1 0000AF  CFC7 0058                            STB,B4   TERMID+11,AUTO
          1 0000B1  BBC7 0031                            LAB,B3   PARAMS,AUTO
          1 0000B3  BFC7 0056                            STB,B3   TERMID+9,AUTO
          1 0000B5  BBC7 0056                            LAB,B3   TERMID+9,AUTO
          1 0000B7  CBF0 0200                            LAB,B4   512,IMO
          1 0000B9  E380 0000 0000  xent                 LNJ,B6   GJA$DECODE_APL_MSG
          1 0000BC       0001                            DC       s:11614,PREL

     1057    11614    5                          RETURN;

  11614   1 0000BD  C380 0000 0000  xent                 LNJ,B4   X6A_ARET

     1058    11615    5                        END;
     1059    11616    4                     P$ = PINCRW(P$,SIZEW(KL$CONTROL));

PL6.E3A0      #008=GJA$NETWORK_MANAGER File=GJA$SUBS.:E05TSI                     TUE 07/29/97 21:57 Page:196
  11616   1 0000C0  CBC6 006F                            LAB,B4   111,B6
          1 0000C2  CFC7 0048                            STB,B4   P$,AUTO

     1060    11617    4                   END;

  11617   1 0000C4  8AC7 004A                            INC      I,AUTO
          1 0000C6  EC80 0000 0000  xsym                 LDB,B6   G$DS1$
          1 0000C9  F847 004A                            LDR,R7   I,AUTO
          1 0000CB  6C00                                 LDV,R6   0
          1 0000CC  8486                                 SID      ,B6
          1 0000CD  0681 FFB0                            BCF      s:11606,PREL
          1 0000CF  6981 0003                            BNEZ,R6  s:11618,PREL
          1 0000D1  7901 FFAC                            BEZ,R7   s:11606,PREL

     1061    11618    3                KL$CONTROL.TYPE = 0;       /* NAK                      */

  11618   1 0000D3  DCC7 002F                            LDB,B5   KL$,AUTO
          1 0000D5  8805                                 LBF,'00FF'X       ,B5
          1 0000D6       00FF

     1062    11619    3                PARAMS='0'B;

  11619   1 0000D7  5C2E                                 LDV,R5   46
          1 0000D8  0021                                 ALR      ;
          1 0000D9       4178 0000                                ALPHANUM('0000'X,IMO,,1),;
          1 0000DB       4007 0031                                ALPHANUM(PARAMS,AUTO,,R5,FILL)

     1063    11620    3                PARAMS.DAT$ = ADDR(KL$CONTROL);

  11620   1 0000DD  437F                                 CSYNC    s:11619+5,SPREL
          1 0000DE  DFC7 0037                            STB,B5   PARAMS+6,AUTO

     1064    11621    3                PARAMS.DATSIZE = SIZE;

  11621   1 0000E0  ECC7 0006                            LDB,B6   @SIZE,AUTO
          1 0000E2  E806                                 LDR,R6   ,B6
          1 0000E3  EF47 0039                            STR,R6   PARAMS+8,AUTO
PL6.E3A0      #008=GJA$NETWORK_MANAGER File=GJA$SUBS.:E05TSI                     TUE 07/29/97 21:57 Page:197

     1065    11622    3                CALL GJA$DECODE_APL_MSG(PARAMS,GJA_UID_NANM$);

  11622   1 0000E5  CB80 0000 0000  xsym                 LAB,B4   GJA_UID_NANM$
          1 0000E8  CFC7 0058                            STB,B4   TERMID+11,AUTO
          1 0000EA  BBC7 0031                            LAB,B3   PARAMS,AUTO
          1 0000EC  BFC7 0056                            STB,B3   TERMID+9,AUTO
          1 0000EE  BBC7 0056                            LAB,B3   TERMID+9,AUTO
          1 0000F0  CBF0 0200                            LAB,B4   512,IMO
          1 0000F2  E380 0000 0000  xent                 LNJ,B6   GJA$DECODE_APL_MSG
          1 0000F5       0001                            DC       s:11622+17,PREL
          1 0000F6  0F81 0435                            B        s:11831,PREL

     1066    11623    3             CASE (IGA_RQSPRO);

     1067    11624    3                PRFRSP.PROFILE.PRFSIZE=0;

  11624   1 0000F8  8700 0000 01C9  00                   CL       PRFRSP+3

     1068    11625    3                PRFRSP.NMID = KL$RQSPROFILE.NMID;

  11625   1 0000FB  8CC6 000A                            LDI      10,B6
          1 0000FD  8D00 0000 01C7  00                   SDI      PRFRSP+1

     1069    11626    3                PARAMS='0'B;

  11626   1 000100  5C2E                                 LDV,R5   46
          1 000101  0021                                 ALR      ;
          1 000102       4178 0000                                ALPHANUM('0000'X,IMO,,1),;
          1 000104       4007 0031                                ALPHANUM(PARAMS,AUTO,,R5,FILL)

     1070    11627    3                PARAMS.DATSIZE = SIZEC(PRFRSP);

  11627   1 000106  4C0A                                 LDV,R4   10
          1 000107  437F                                 CSYNC    s:11627,SPREL
          1 000108  CF47 0039                            STR,R4   PARAMS+8,AUTO

PL6.E3A0      #008=GJA$NETWORK_MANAGER File=GJA$SUBS.:E05TSI                     TUE 07/29/97 21:57 Page:198
     1071    11628    3                PARAMS.DAT$ = ADDR(PRFRSP);

  11628   1 00010A  DB80 0000 01C6  00                   LAB,B5   PRFRSP
          1 00010D  DFC7 0037                            STB,B5   PARAMS+6,AUTO

     1072    11629    3                CALL GJA$DECODE_APL_MSG(PARAMS,GJA_UID_NANM$);

  11629   1 00010F  CB80 0000 0000  xsym                 LAB,B4   GJA_UID_NANM$
          1 000112  CFC7 0058                            STB,B4   TERMID+11,AUTO
          1 000114  BBC7 0031                            LAB,B3   PARAMS,AUTO
          1 000116  BFC7 0056                            STB,B3   TERMID+9,AUTO
          1 000118  BBC7 0056                            LAB,B3   TERMID+9,AUTO
          1 00011A  CBF0 0200                            LAB,B4   512,IMO
          1 00011C  E380 0000 0000  xent                 LNJ,B6   GJA$DECODE_APL_MSG
          1 00011F       0001                            DC       s:11629+17,PREL
          1 000120  0F81 040B                            B        s:11831,PREL

     1073    11630
     1074    11631    3             CASE (IGA_RQSCHN);

     1075    11632    3                IF KL$RQSCHN.LINE_PROFILE  /* This is a line profile reqest */

  11632   1 000122  8286                                 LB,'0080'X        ,B6
  11632   1 000123       0080
          1 000124  0581 0051                            BBF      s:11653,PREL

     1076    11633    4                THEN DO;

     1077    11634    4                     CHNRSP$ = GJA_LINE_HEAD$;

  11634   1 000126  DC80 0000 0000  xsym                 LDB,B5   GJA_LINE_HEAD$
          1 000129  DFC7 004B                            STB,B5   CHNRSP$,AUTO

     1078    11635    4                     KL$RQSCHN.TERMINAL_ID.TTYP = 0;

  11635   1 00012B  87C6 0005                            CLH      5,B6

PL6.E3A0      #008=GJA$NETWORK_MANAGER File=GJA$SUBS.:E05TSI                     TUE 07/29/97 21:57 Page:199
     1079    11636
     1080    11637    5                     DO WHILE (CHNRSP$ ~= ADDR(NIL));

  11637   1 00012D  0F81 0042                            B        s:11651,PREL

     1081    11638    5                          IF PINCRW(CHNRSP$,SIZEW(B$PTR$)+SIZEW(B$WORD))->KL$CHNRSP.
             11638                                   TERMINAL_ID.TERM.CHANNEL

  11638   1 00012F  ECC7 004B                            LDB,B6   CHNRSP$,AUTO
          1 000131  DCC7 002F                            LDB,B5   KL$,AUTO
          1 000133  E846 0009                            LDR,R6   9,B6
          1 000135  E945 0006                            CMR,R6   6,B5
          1 000137  0981 0035                            BNE      s:11650,PREL

     1082    11639    5                               = KL$RQSCHN.TERMINAL_ID.TERM.CHANNEL
     1083    11640    6                          THEN DO;

     1084    11641    6                               CHNRSP$ = PINCRW(CHNRSP$,SIZEW(B$PTR$));

  11641   1 000139  CBC6 0002                            LAB,B4   2,B6
          1 00013B  CFC7 004B                            STB,B4   CHNRSP$,AUTO

     1085    11642    6                               PARAMS='0'B;

  11642   1 00013D  5C2E                                 LDV,R5   46
          1 00013E  0021                                 ALR      ;
          1 00013F       4178 0000                                ALPHANUM('0000'X,IMO,,1),;
          1 000141       4007 0031                                ALPHANUM(PARAMS,AUTO,,R5,FILL)

     1086    11643    6                               PARAMS.DATSIZE = CHNRSP$->B$WORD*2 - SIZEC(B$WORD) -
             11643                                        SIZEC(B$PTR$);

  11643   1 000143  437F                                 CSYNC    s:11642+5,SPREL
          1 000144  ECC7 004B                            LDB,B6   CHNRSP$,AUTO
          1 000146  E806                                 LDR,R6   ,B6
          1 000147  6001                                 SOL,R6   1
          1 000148  6EFA                                 ADV,R6   -6
PL6.E3A0      #008=GJA$NETWORK_MANAGER File=GJA$SUBS.:E05TSI                     TUE 07/29/97 21:57 Page:200
          1 000149  EF47 0039                            STR,R6   PARAMS+8,AUTO

     1087    11644    6                               CHNRSP$ = PINCRW(CHNRSP$,SIZEW(B$WORD));

  11644   1 00014B  CBC6 0001                            LAB,B4   1,B6
          1 00014D  CFC7 004B                            STB,B4   CHNRSP$,AUTO

     1088    11645    6                               CHNRSP$->KL$CHNRSP.HANDLER = KL$RQSCHN.HANDLER;

  11645   1 00014F  AB85                                 LAB,B2   ,B5
          1 000150  2C02                                 LDV,R2   2
          1 000151  6C08                                 LDV,R6   8
          1 000152  BB84                                 LAB,B3   ,B4
          1 000153  3C02                                 LDV,R3   2
          1 000154  0008                                 MMM

     1089    11646    6                               PARAMS.DAT$ = CHNRSP$;

  11646   1 000155  ECC7 004B                            LDB,B6   CHNRSP$,AUTO
          1 000157  EFC7 0037                            STB,B6   PARAMS+6,AUTO

     1090    11647    6                               CALL GJA$DECODE_APL_MSG(PARAMS,GJA_UID_NANM$);

  11647   1 000159  9B80 0000 0000  xsym                 LAB,B1   GJA_UID_NANM$
          1 00015C  9FC7 0058                            STB,B1   TERMID+11,AUTO
          1 00015E  EBC7 0031                            LAB,B6   PARAMS,AUTO
          1 000160  EFC7 0056                            STB,B6   TERMID+9,AUTO
          1 000162  BBC7 0056                            LAB,B3   TERMID+9,AUTO
          1 000164  CBF0 0200                            LAB,B4   512,IMO
          1 000166  E380 0000 0000  xent                 LNJ,B6   GJA$DECODE_APL_MSG
          1 000169       0001                            DC       s:11648,PREL

     1091    11648    6                               RETURN;

  11648   1 00016A  C380 0000 0000  xent                 LNJ,B4   X6A_ARET

     1092    11649    6                             END;
PL6.E3A0      #008=GJA$NETWORK_MANAGER File=GJA$SUBS.:E05TSI                     TUE 07/29/97 21:57 Page:201
     1093    11650    5                          CHNRSP$ = CHNRSP$->B$PTR$;

  11650   1 00016D  CC86                                 LDB,B4   ,B6
          1 00016E  CFC7 004B                            STB,B4   CHNRSP$,AUTO

     1094    11651    5                        END;

  11651   1 000170  8DC7 004B                            CMN      CHNRSP$,AUTO
          1 000172  0981 FFBC                            BNE      s:11638,PREL

     1095    11652    4                   END;

  11652   1 000174  0F81 003C                            B        s:11674,PREL

     1096    11653    3                ELSE IF KL$RQSCHN.CONFIG

  11653   1 000176  8286                                 LB,'0040'X        ,B6
  11653   1 000177       0040
          1 000178  0581 0038                            BBF      s:11674,PREL

     1097    11654    4                     THEN DO;

     1098    11655    4                          CHNRSP$ = GJA_CHNRSP_HEAD$;

  11655   1 00017A  DC80 0000 0000  xsym                 LDB,B5   GJA_CHNRSP_HEAD$
          1 00017D  DFC7 004B                            STB,B5   CHNRSP$,AUTO

     1099    11656    4                          TERMID = KL$RQSCHN.TERMINAL_ID;

  11656   1 00017F  AB86                                 LAB,B2   ,B6
          1 000180  2C0A                                 LDV,R2   10
          1 000181  6C10                                 LDV,R6   16
          1 000182  BBC7 004D                            LAB,B3   TERMID,AUTO
          1 000184  3C00                                 LDV,R3   0
          1 000185  0008                                 MMM

     1100    11657    4                          TERMID.TTYP = 0;
PL6.E3A0      #008=GJA$NETWORK_MANAGER File=GJA$SUBS.:E05TSI                     TUE 07/29/97 21:57 Page:202

  11657   1 000186  87C7 004D                            CLH      TERMID,AUTO

     1101    11658    4                          IF TERMID.TERM.TERM_NAME ~= ' '

  11658   1 000188  DB80 0000 0000  02                   LAB,B5   0
          1 00018B  0022                                 ACM      ;
          1 00018C       4807 0051                                ALPHANUM(TERMID+4,AUTO,,8,FILL),;
          1 00018E       4105 0000                                ALPHANUM(0,B5,,1,FILL)
          1 000190  5381 0003                            CBE      s:11662,PREL

     1102    11659    4                          THEN
     1103    11660    4                               TERMID.TERM.CHANNEL = 0;

  11660   1 000192  8747 004E                            CL       TERMID+1,AUTO

     1104    11661
     1105    11662    5                          DO WHILE (CHNRSP$ ~= ADDR(NIL));

  11662   1 000194  0F81 0019                            B        s:11670,PREL

     1106    11663    5                               IF PINCRW(CHNRSP$,SIZEW(B$PTR$))->KL$CHNRSP.TERMINAL_ID

  11663   1 000196  ECC7 004B                            LDB,B6   CHNRSP$,AUTO
          1 000198  5C10                                 LDV,R5   16
          1 000199  0022                                 ACM      ;
          1 00019A       5006 0007                                ALPHANUM(7,B6,,16,FILL),;
          1 00019C       4007 004D                                ALPHANUM(TERMID,AUTO,,R5,FILL)
          1 00019E  5301 000C                            CBNE     s:11669,PREL

     1107    11664    5                                    = TERMID
     1108    11665    6                               THEN DO;

     1109    11666    6                                    CHNRSP = PINCRW(CHNRSP$,SIZEW(B$PTR$))->KL$CHNRSP;

  11666   1 0001A0  AB86                                 LAB,B2   ,B6
          1 0001A1  2C04                                 LDV,R2   4
PL6.E3A0      #008=GJA$NETWORK_MANAGER File=GJA$SUBS.:E05TSI                     TUE 07/29/97 21:57 Page:203
          1 0001A2  E870 0135                            LDR,R6   309,IMO
          1 0001A4  BB80 0000 012B  00                   LAB,B3   CHNRSP
          1 0001A7  3C00                                 LDV,R3   0
          1 0001A8  0008                                 MMM

     1110    11667    6                                    GOTO DO_CHNRSP;

  11667   1 0001A9  0F81 0028                            B        s:11679,PREL

     1111    11668    6                                  END;
     1112    11669    5                               CHNRSP$ = CHNRSP$->B$PTR$;

  11669   1 0001AB  DC86                                 LDB,B5   ,B6
          1 0001AC  DFC7 004B                            STB,B5   CHNRSP$,AUTO

     1113    11670    5                             END;

  11670   1 0001AE  8DC7 004B                            CMN      CHNRSP$,AUTO
          1 0001B0  09E6                                 BNE      s:11663,SPREL

     1114    11671    4                        END;

     1115    11672        /* When we get down here, we could not satisfy this channel request.
     1116    11673           But remember that maybe this request will be handled by the host. */
     1117    11674    3                IF GJA_LDCT_NM ~= 0

  11674   1 0001B1  E800 0000 0000  xsym                 LDR,R6   GJA_LDCT_NM
          1 0001B4  6901 0019                            BEZ,R6   s:11679,PREL

     1118    11675    4                THEN DO;

     1119    11676    4                     CALL GJA$SEND_MSG(GJA_UID_NM$,BUFFER,SIZE);

  11676   1 0001B6  ECC7 0006                            LDB,B6   @SIZE,AUTO
          1 0001B8  EFC7 005A                            STB,B6   TERMID+13,AUTO
          1 0001BA  DCC7 0004                            LDB,B5   @BUFFER,AUTO
          1 0001BC  DFC7 0058                            STB,B5   TERMID+11,AUTO
PL6.E3A0      #008=GJA$NETWORK_MANAGER File=GJA$SUBS.:E05TSI                     TUE 07/29/97 21:57 Page:204
          1 0001BE  CB80 0000 0000  xsym                 LAB,B4   GJA_UID_NM
          1 0001C1  CFC7 0056                            STB,B4   TERMID+9,AUTO
          1 0001C3  BBC7 0056                            LAB,B3   TERMID+9,AUTO
          1 0001C5  CBF0 0300                            LAB,B4   768,IMO
          1 0001C7  E380 0000 0000  xent                 LNJ,B6   GJA$SEND_MSG
          1 0001CA       0001                            DC       s:11677,PREL

     1120    11677    4                     RETURN;

  11677   1 0001CB  C380 0000 0000  xent                 LNJ,B4   X6A_ARET

     1121    11678    4                   END;
     1122    11679    3                CHNRSP.NAK = '1'B;

  11679   1 0001CE  8900 0000 012B  00                   LBT,'0010'X       CHNRSP
  11679   1 0001D1       0010

  11679   1                              DO_CHNRSP       null
     1123    11680    3   DO_CHNRSP:   ;
     1124    11681    3                CHNRSP.LINE_PROFILE = KL$RQSCHN.LINE_PROFILE;

  11681   1 0001D2  ECC7 002F            DO_CHNRSP       LDB,B6   KL$,AUTO
          1 0001D4  E806                                 LDR,R6   ,B6
          1 0001D5  EA80 0000 012B  00                   SRM,R6,'0080'X    CHNRSP
          1 0001D8       0080

     1125    11682    3                CHNRSP.CONFIG = KL$RQSCHN.CONFIG;

  11682   1 0001D9  E806                                 LDR,R6   ,B6
          1 0001DA  EA80 0000 012B  00                   SRM,R6,'0040'X    CHNRSP
          1 0001DD       0040

     1126    11683    3                CHNRSP.DFLTHND = KL$RQSCHN.DFLTHND;

  11683   1 0001DE  E806                                 LDR,R6   ,B6
          1 0001DF  EA80 0000 012B  00                   SRM,R6,'0020'X    CHNRSP
          1 0001E2       0020
PL6.E3A0      #008=GJA$NETWORK_MANAGER File=GJA$SUBS.:E05TSI                     TUE 07/29/97 21:57 Page:205

     1127    11684    3                CHNRSP.HANDLER = KL$RQSCHN.HANDLER;

  11684   1 0001E3  AB86                                 LAB,B2   ,B6
          1 0001E4  2C02                                 LDV,R2   2
          1 0001E5  6C08                                 LDV,R6   8
          1 0001E6  BB80 0000 012C  00                   LAB,B3   CHNRSP+1
          1 0001E9  3C00                                 LDV,R3   0
          1 0001EA  0008                                 MMM

     1128    11685    3                CHNRSP.TERMINAL_ID = KL$RQSCHN.TERMINAL_ID;

  11685   1 0001EB  ACC7 002F                            LDB,B2   KL$,AUTO
          1 0001ED  2C0A                                 LDV,R2   10
          1 0001EE  6C10                                 LDV,R6   16
          1 0001EF  BB80 0000 0130  00                   LAB,B3   CHNRSP+5
          1 0001F2  3C00                                 LDV,R3   0
          1 0001F3  0008                                 MMM

     1129    11686    3                PARAMS='0'B;

  11686   1 0001F4  5C2E                                 LDV,R5   46
          1 0001F5  0021                                 ALR      ;
          1 0001F6       4178 0000                                ALPHANUM('0000'X,IMO,,1),;
          1 0001F8       4007 0031                                ALPHANUM(PARAMS,AUTO,,R5,FILL)

     1130    11687    3                PARAMS.DAT$ = ADDR(CHNRSP);

  11687   1 0001FA  DB80 0000 012B  00                   LAB,B5   CHNRSP
          1 0001FD  437F                                 CSYNC    s:11687+2,SPREL
          1 0001FE  DFC7 0037                            STB,B5   PARAMS+6,AUTO

     1131    11688    3                PARAMS.DATSIZE = SIZEC(CHNRSP);

  11688   1 000200  E870 0136                            LDR,R6   310,IMO
          1 000202  EF47 0039                            STR,R6   PARAMS+8,AUTO

PL6.E3A0      #008=GJA$NETWORK_MANAGER File=GJA$SUBS.:E05TSI                     TUE 07/29/97 21:57 Page:206
     1132    11689    3                CALL GJA$DECODE_APL_MSG(PARAMS,GJA_UID_NANM$);

  11689   1 000204  CB80 0000 0000  xsym                 LAB,B4   GJA_UID_NANM$
          1 000207  CFC7 0058                            STB,B4   TERMID+11,AUTO
          1 000209  BBC7 0031                            LAB,B3   PARAMS,AUTO
          1 00020B  BFC7 0056                            STB,B3   TERMID+9,AUTO
          1 00020D  BBC7 0056                            LAB,B3   TERMID+9,AUTO
          1 00020F  CBF0 0200                            LAB,B4   512,IMO
          1 000211  E380 0000 0000  xent                 LNJ,B6   GJA$DECODE_APL_MSG
          1 000214       0001                            DC       s:11689+17,PREL
          1 000215  0F81 0316                            B        s:11831,PREL

     1133    11690
     1134    11691    3             CASE (IGA_SGN);

     1135    11692    4                IF KL$SGN.AUTOLGN THEN DO;

  11692   1 000217  89C6 000A                            CMZ      10,B6
          1 000219  0881 001E                            BAGE     s:11701,PREL

     1136    11693    5                     IF GJA_LDCT_NM = 0 THEN DO;

  11693   1 00021B  6981 0007                            BNEZ,R6  s:11698,PREL

     1137    11694    5                          ERR = %E$NOHOST;

  11694   1 00021D  D870 04C3                            LDR,R5   1219,IMO
          1 00021F  DF47 0021                            STR,R5   ERR,AUTO

     1138    11695    5                          GOTO LGNFAILED;

  11695   1 000221  0F81 010F                            B        s:11730,PREL

     1139    11696    5                        END;
     1140    11697    4                     ELSE
     1141    11698    4                          CALL GJA$SEND_MSG(GJA_UID_NM$,BUFFER,SIZE);

PL6.E3A0      #008=GJA$NETWORK_MANAGER File=GJA$SUBS.:E05TSI                     TUE 07/29/97 21:57 Page:207
  11698   1 000223  DCC7 0006                            LDB,B5   @SIZE,AUTO
          1 000225  DFC7 005A                            STB,B5   TERMID+13,AUTO
          1 000227  EFC7 0058                            STB,B6   TERMID+11,AUTO
          1 000229  CB80 0000 0000  xsym                 LAB,B4   GJA_UID_NM
          1 00022C  CFC7 0056                            STB,B4   TERMID+9,AUTO
          1 00022E  BBC7 0056                            LAB,B3   TERMID+9,AUTO
          1 000230  CBF0 0300                            LAB,B4   768,IMO
          1 000232  E380 0000 0000  xent                 LNJ,B6   GJA$SEND_MSG
          1 000235       0001                            DC       s:11699,PREL

     1142    11699    4                   END;

  11699   1 000236  0F81 02F5                            B        s:11831,PREL

     1143    11700    4                ELSE DO;

     1144    11701    4                     IF GJA_MSG_NOHOST$ = ADDR(NIL) OR

  11701   1 000238  8D80 0000 0000  xsym                 CMN      GJA_MSG_NOHOST$
          1 00023B  0901 0010                            BE       s:11705,PREL
          1 00023D  8D80 0000 0000  xsym                 CMN      GJA_MSG_UDHOST$
          1 000240  0901 000B                            BE       s:11705,PREL
          1 000242  8D80 0000 0000  xsym                 CMN      GJA_MSG_BDID$
          1 000245  0901 0006                            BE       s:11705,PREL
          1 000247  8D80 0000 0000  xsym                 CMN      GJA_MSG_SGSYN$
          1 00024A  0981 0019                            BNE      s:11711,PREL

     1145    11702    4                          GJA_MSG_UDHOST$ = ADDR(NIL) OR
     1146    11703    4                          GJA_MSG_BDID$ = ADDR(NIL) OR
     1147    11704    5                          GJA_MSG_SGSYN$ = ADDR(NIL) THEN DO;

     1148    11705    5                          IF GJA_LDCT_NM = 0 THEN

  11705   1 00024C  6901 00E4                            BEZ,R6   s:11730,PREL

     1149    11706    5                               GOTO LGNFAILED;
     1150    11707    5                          ELSE
PL6.E3A0      #008=GJA$NETWORK_MANAGER File=GJA$SUBS.:E05TSI                     TUE 07/29/97 21:57 Page:208
     1151    11708    5                               CALL GJA$SEND_MSG(GJA_UID_NM$,BUFFER,SIZE);

  11708   1 00024E  DCC7 0006                            LDB,B5   @SIZE,AUTO
          1 000250  DFC7 005A                            STB,B5   TERMID+13,AUTO
          1 000252  EFC7 0058                            STB,B6   TERMID+11,AUTO
          1 000254  CB80 0000 0000  xsym                 LAB,B4   GJA_UID_NM
          1 000257  CFC7 0056                            STB,B4   TERMID+9,AUTO
          1 000259  BBC7 0056                            LAB,B3   TERMID+9,AUTO
          1 00025B  CBF0 0300                            LAB,B4   768,IMO
          1 00025D  E380 0000 0000  xent                 LNJ,B6   GJA$SEND_MSG
          1 000260       0001                            DC       s:11709,PREL

     1152    11709    5                          RETURN;

  11709   1 000261  C380 0000 0000  xent                 LNJ,B4   X6A_ARET

     1153    11710    5                        END;
     1154    11711    4                     CALL GJA$PARSE(KL$SGN.LOGON,ACCT,NAME,PW,PRO,ERR,HOST,NOSETUP,
             11711                              NOHEADER)

  11711   1 000264  DBC7 0027                            LAB,B5   NOHEADER,AUTO
          1 000266  DFC7 0066                            STB,B5   TERMID+25,AUTO
          1 000268  CBC7 0026                            LAB,B4   NOSETUP,AUTO
          1 00026A  CFC7 0064                            STB,B4   TERMID+23,AUTO
          1 00026C  BBC7 0022                            LAB,B3   HOST,AUTO
          1 00026E  BFC7 0062                            STB,B3   TERMID+21,AUTO
          1 000270  ABC7 0021                            LAB,B2   ERR,AUTO
          1 000272  AFC7 0060                            STB,B2   TERMID+19,AUTO
          1 000274  9BC7 001B                            LAB,B1   PRO,AUTO
          1 000276  9FC7 005E                            STB,B1   TERMID+17,AUTO
          1 000278  EBC7 0017                            LAB,B6   PW,AUTO
          1 00027A  EFC7 005C                            STB,B6   TERMID+15,AUTO
          1 00027C  EBC7 0010                            LAB,B6   NAME,AUTO
          1 00027E  EFC7 005A                            STB,B6   TERMID+13,AUTO
          1 000280  EBC7 000C                            LAB,B6   ACCT,AUTO
          1 000282  EFC7 0058                            STB,B6   TERMID+11,AUTO
          1 000284  8CC7 002F                            LDI      KL$,AUTO
PL6.E3A0      #008=GJA$NETWORK_MANAGER File=GJA$SUBS.:E05TSI                     TUE 07/29/97 21:57 Page:209
          1 000286  7031                                 DCL,R7   1
          1 000287  8470 0000 001D                       AID      29,IMO
          1 00028A  7071                                 DCR,R7   1
          1 00028B  8D47 0056                            SDI      TERMID+9,AUTO
          1 00028D  BBC7 0056                            LAB,B3   TERMID+9,AUTO
          1 00028F  CBF0 0900                            LAB,B4   2304,IMO
          1 000291  E380 0000 0000  xent                 LNJ,B6   GJA$PARSE
          1 000294       0003                            DC       s:11713,PREL
          1 000295  0F81 00DD                            B        s:11741,PREL

     1155    11712    5                     WHENALTRETURN DO;

     1156    11713    5                          SYSLOG.ERRLOG.ERRCODE.ERR# = ERR;

  11713   1 000297  E847 0021                            LDR,R6   ERR,AUTO
          1 000299  6003                                 SOL,R6   3
          1 00029A  EA80 0000 0077  00                   SRM,R6,'FFF8'X    SYSLOG+3
          1 00029D       FFF8

     1157    11714    5                          SYSLOG.ERRLOG.DATA_SIZE = KL$SGN.LOGON.LGNSIZ;

  11714   1 00029E  ECC7 002F                            LDB,B6   KL$,AUTO
          1 0002A0  E846 000E                            LDR,R6   14,B6
          1 0002A2  E570 00FF                            AND,R6   255,IMO
          1 0002A4  E780 0000 0086  00                   STH,R6   SYSLOG+18

     1158    11715    5                          SYSLOG.ERRLOG.DATA = KL$SGN.LOGON.LGNTXT;

  11715   1 0002A7  E846 000E                            LDR,R6   14,B6
          1 0002A9  E570 00FF                            AND,R6   255,IMO
          1 0002AB  C856                                 LDR,R4   R6
          1 0002AC  DB80 0000 0000  00                   LAB,B5   SGNRSP
          1 0002AF  D870 20C8                            LDR,R5   8392,IMO
          1 0002B1  0021                                 ALR      ;
          1 0002B2       4006 000F                                ALPHANUM(15,B6,,R4),;
          1 0002B4       C005 0086                                ALPHANUM(134,B5,1,R5,FILL)

PL6.E3A0      #008=GJA$NETWORK_MANAGER File=GJA$SUBS.:E05TSI                     TUE 07/29/97 21:57 Page:210
     1159    11716    5                          SYSLOG.ERRLOG.TERMID = KL$SGN.TERMINAL_ID;

  11716   1 0002B6  AB86                                 LAB,B2   ,B6
          1 0002B7  2C04                                 LDV,R2   4
          1 0002B8  6C10                                 LDV,R6   16
          1 0002B9  BB80 0000 007A  00                   LAB,B3   SYSLOG+6
          1 0002BC  3C00                                 LDV,R3   0
          1 0002BD  437F                                 CSYNC    s:11716+6,SPREL
          1 0002BE  0008                                 MMM

     1160    11717    5                          SYSLOG.ERRLOG.VALUES(0) = GJA_NODE#;

  11717   1 0002BF  E800 0000 0000  xsym                 LDR,R6   GJA_NODE#
          1 0002C2  EF00 0000 0082  00                   STR,R6   SYSLOG+14

     1161    11718    5                          CALL GJA$NETWORK_MANAGER(SYSLOG,SIZEC(SYSLOG)-SIZEC(

  11718   1 0002C5  C280 0000 0086  00                   LLH,R4   SYSLOG+18
          1 0002C8  4E26                                 ADV,R4   38
          1 0002C9  CF47 0056                            STR,R4   TERMID+9,AUTO
          1 0002CB  DBC7 0056                            LAB,B5   TERMID+9,AUTO
          1 0002CD  DFC7 0059                            STB,B5   TERMID+12,AUTO
          1 0002CF  CB80 0000 0074  00                   LAB,B4   SYSLOG
          1 0002D2  CFC7 0057                            STB,B4   TERMID+10,AUTO
          1 0002D4  BBC7 0057                            LAB,B3   TERMID+10,AUTO
          1 0002D6  CBF0 0200                            LAB,B4   512,IMO
          1 0002D8  E3C0 FD27                            LNJ,B6   s:22,PREL
          1 0002DA       0001                            DC       s:11720,PREL

     1162    11719    5                               SYSLOG.ERRLOG.DATA)+SYSLOG.ERRLOG.DATA_SIZE);
     1163    11720    6                          DO CASE (ERR);

  11720   1 0002DB  B847 0021                            LDR,R3   ERR,AUTO
          1 0002DD  BA70 FB49                            ADD,R3   -1207,IMO
          1 0002DF  3D07                                 CMV,R3   7
          1 0002E0  0281 003C                            BGE      s:11728,PREL
          1 0002E2  A830 0000 02E8  01                   LDR,R2   s:11720+13,R3
PL6.E3A0      #008=GJA$NETWORK_MANAGER File=GJA$SUBS.:E05TSI                     TUE 07/29/97 21:57 Page:211
          1 0002E5  83A0 0000 02EF  01                   JMP      s:11722,R2
          1 0002E8       0017                            DC       s:11725,PREL
          1 0002E9       002E                            DC       s:11728,PREL
          1 0002EA       002E                            DC       s:11728,PREL
          1 0002EB       002E                            DC       s:11728,PREL
          1 0002EC       002E                            DC       s:11728,PREL
          1 0002ED       002E                            DC       s:11728,PREL
          1 0002EE       0000                            DC       s:11722,PREL

     1164    11721    6                          CASE(%E$SGSYN);

     1165    11722    6                             SGNRSP.MESSAGE.RSPSIZ = GJA_MSG_SGSYN$->TEXT.L;

  11722   1 0002EF  EC80 0000 0000  xsym                 LDB,B6   GJA_MSG_SGSYN$
          1 0002F2  E286                                 LLH,R6   ,B6
          1 0002F3  EA80 0000 000F  00                   SRM,R6,'00FF'X    SGNRSP+15
          1 0002F6       00FF

     1166    11723    6                             SGNRSP.MESSAGE.RSPTXT = GJA_MSG_SGSYN$->TEXT.C;

  11723   1 0002F7  E286                                 LLH,R6   ,B6
          1 0002F8  C856                                 LDR,R4   R6
          1 0002F9  DB80 0000 0000  00                   LAB,B5   SGNRSP
          1 0002FC  D870 20C8                            LDR,R5   8392,IMO
          1 0002FE  0021                                 ALR      ;
          1 0002FF       C006 0000                                ALPHANUM(0,B6,1,R4),;
          1 000301       4005 0010                                ALPHANUM(16,B5,,R5,FILL)
          1 000303  437F                                 CSYNC    s:11723+11,SPREL
          1 000304  0F81 002C                            B        s:11730,PREL

     1167    11724    6                          CASE(%E$BDID);

     1168    11725    6                             SGNRSP.MESSAGE.RSPSIZ = GJA_MSG_BDID$->TEXT.L;

  11725   1 000306  EC80 0000 0000  xsym                 LDB,B6   GJA_MSG_BDID$
          1 000309  E286                                 LLH,R6   ,B6
          1 00030A  EA80 0000 000F  00                   SRM,R6,'00FF'X    SGNRSP+15
PL6.E3A0      #008=GJA$NETWORK_MANAGER File=GJA$SUBS.:E05TSI                     TUE 07/29/97 21:57 Page:212
          1 00030D       00FF

     1169    11726    6                             SGNRSP.MESSAGE.RSPTXT = GJA_MSG_BDID$->TEXT.C;

  11726   1 00030E  E286                                 LLH,R6   ,B6
          1 00030F  C856                                 LDR,R4   R6
          1 000310  DB80 0000 0000  00                   LAB,B5   SGNRSP
          1 000313  D870 20C8                            LDR,R5   8392,IMO
          1 000315  0021                                 ALR      ;
          1 000316       C006 0000                                ALPHANUM(0,B6,1,R4),;
          1 000318       4005 0010                                ALPHANUM(16,B5,,R5,FILL)
          1 00031A  437F                                 CSYNC    s:11726+11,SPREL
          1 00031B  0F81 0015                            B        s:11730,PREL

     1170    11727    6                          CASE(ELSE);

     1171    11728    6                             SGNRSP.MESSAGE.RSPSIZ = GJA_MSG_NOHOST$->TEXT.L;

  11728   1 00031D  EC80 0000 0000  xsym                 LDB,B6   GJA_MSG_NOHOST$
          1 000320  E286                                 LLH,R6   ,B6
          1 000321  EA80 0000 000F  00                   SRM,R6,'00FF'X    SGNRSP+15
          1 000324       00FF

     1172    11729    6                             SGNRSP.MESSAGE.RSPTXT = GJA_MSG_NOHOST$->TEXT.C;

  11729   1 000325  E286                                 LLH,R6   ,B6
          1 000326  C856                                 LDR,R4   R6
          1 000327  DB80 0000 0000  00                   LAB,B5   SGNRSP
          1 00032A  D870 20C8                            LDR,R5   8392,IMO
          1 00032C  0021                                 ALR      ;
          1 00032D       C006 0000                                ALPHANUM(0,B6,1,R4),;
          1 00032F       4005 0010                                ALPHANUM(16,B5,,R5,FILL)

     1173    11730    6                          END;

     1174    11731    5   LGNFAILED:             PARAMS = '0'B;

PL6.E3A0      #008=GJA$NETWORK_MANAGER File=GJA$SUBS.:E05TSI                     TUE 07/29/97 21:57 Page:213
  11731   1 000331  5C2E                 LGNFAILED       LDV,R5   46
          1 000332  0021                                 ALR      ;
          1 000333       4178 0000                                ALPHANUM('0000'X,IMO,,1),;
          1 000335       4007 0031                                ALPHANUM(PARAMS,AUTO,,R5,FILL)

     1175    11732    5                          SGNRSP.NMID = KL$SGN.NMID;

  11732   1 000337  ECC7 002F                            LDB,B6   KL$,AUTO
          1 000339  5C04                                 LDV,R5   4
          1 00033A  0021                                 ALR      ;
          1 00033B       C406 000B                                ALPHANUM(11,B6,1,4),;
          1 00033D       4007 0056                                ALPHANUM(TERMID+9,AUTO,,R5,FILL)
          1 00033F  437F                                 CSYNC    s:11732+7,SPREL
          1 000340  8CC7 0056                            LDI      TERMID+9,AUTO
          1 000342  8D00 0000 0001  00                   SDI      SGNRSP+1

     1176    11733    5                         SGNRSP.ERRCODE = E$KLH_FCG; /* make the fcg look like slug */

  11733   1 000345  8C80 0000 01CD  00                   LDI      E$KLH_FCG
          1 000348  8D00 0000 0005  00                   SDI      SGNRSP+5

     1177    11734    5                          SGNRSP.ERRCODE.ERR# = ERR;

  11734   1 00034B  C847 0021                            LDR,R4   ERR,AUTO
          1 00034D  4003                                 SOL,R4   3
          1 00034E  CA80 0000 0006  00                   SRM,R4,'FFF8'X    SGNRSP+6
          1 000351       FFF8

     1178    11735    5                          PARAMS.DAT$ = ADDR(SGNRSP);

  11735   1 000352  DB80 0000 0000  00                   LAB,B5   SGNRSP
          1 000355  DFC7 0037                            STB,B5   PARAMS+6,AUTO

     1179    11736    5                         PARAMS.DATSIZE = SIZEC(SGNRSP) - SIZEC(SGNRSP.MESSAGE.RSPTXT)
             11736                                   +

  11736   1 000357  C800 0000 000F  00                   LDR,R4   SGNRSP+15
PL6.E3A0      #008=GJA$NETWORK_MANAGER File=GJA$SUBS.:E05TSI                     TUE 07/29/97 21:57 Page:214
          1 00035A  C570 00FF                            AND,R4   255,IMO
          1 00035C  4E20                                 ADV,R4   32
          1 00035D  CF47 0039                            STR,R4   PARAMS+8,AUTO

     1180    11737    5                               SGNRSP.MESSAGE.RSPSIZ;
     1181    11738    5                          CALL GJA$DECODE_APL_MSG(PARAMS,GJA_UID_NANM$);

  11738   1 00035F  CB80 0000 0000  xsym                 LAB,B4   GJA_UID_NANM$
          1 000362  CFC7 0058                            STB,B4   TERMID+11,AUTO
          1 000364  BBC7 0031                            LAB,B3   PARAMS,AUTO
          1 000366  BFC7 0056                            STB,B3   TERMID+9,AUTO
          1 000368  BBC7 0056                            LAB,B3   TERMID+9,AUTO
          1 00036A  CBF0 0200                            LAB,B4   512,IMO
          1 00036C  E380 0000 0000  xent                 LNJ,B6   GJA$DECODE_APL_MSG
          1 00036F       0001                            DC       s:11739,PREL

     1182    11739    5                          ALTRETURN;

  11739   1 000370  C380 0000 0000  xent                 LNJ,B4   X6A_AALT

     1183    11740    5                        END;
     1184    11741    5                     IF ACCR.C1 = '?' THEN DO;

  11741   1 000373  E0C7 000C                            LDH,R6   ACCT,AUTO
          1 000375  6D3F                                 CMV,R6   63
          1 000376  0981 001C                            BNE      s:11747,PREL

     1185    11742    5                          SGNRSP.MESSAGE.RSPSIZ = GJA_MSG_SGSYN$->TEXT.L;

  11742   1 000378  EC80 0000 0000  xsym                 LDB,B6   GJA_MSG_SGSYN$
          1 00037B  D286                                 LLH,R5   ,B6
          1 00037C  DA80 0000 000F  00                   SRM,R5,'00FF'X    SGNRSP+15
          1 00037F       00FF

     1186    11743    5                          SGNRSP.MESSAGE.RSPTXT = GJA_MSG_SGSYN$->TEXT.C;

  11743   1 000380  D286                                 LLH,R5   ,B6
PL6.E3A0      #008=GJA$NETWORK_MANAGER File=GJA$SUBS.:E05TSI                     TUE 07/29/97 21:57 Page:215
          1 000381  C855                                 LDR,R4   R5
          1 000382  DB80 0000 0000  00                   LAB,B5   SGNRSP
          1 000385  D870 20C8                            LDR,R5   8392,IMO
          1 000387  0021                                 ALR      ;
          1 000388       C006 0000                                ALPHANUM(0,B6,1,R4),;
          1 00038A       4005 0010                                ALPHANUM(16,B5,,R5,FILL)

     1187    11744    5                          ERR = %E$SGSYN;

  11744   1 00038C  C870 04BD                            LDR,R4   1213,IMO
          1 00038E  437F                                 CSYNC    s:11744+1,SPREL
          1 00038F  CF47 0021                            STR,R4   ERR,AUTO

     1188    11745    5                          GOTO LGNFAILED;

  11745   1 000391  0F81 FF9F                            B        s:11730,PREL

     1189    11746    5                        END;
     1190    11747    5                     IF HOST = ' ' THEN DO;

  11747   1 000393  EB80 0000 0000  02                   LAB,B6   0
          1 000396  0022                                 ACM      ;
          1 000397       4807 0022                                ALPHANUM(HOST,AUTO,,8,FILL),;
          1 000399       4106 0000                                ALPHANUM(0,B6,,1,FILL)
          1 00039B  5301 0038                            CBNE     s:11760,PREL

     1191    11748    5                          HOST = GJA$NODETBL.NODE.NODE(GJA_DEFNODE);

  11748   1 00039D  AB80 0000 0000  xsym                 LAB,B2   GJA$NODETBL
          1 0003A0  A800 0000 0000  xsym                 LDR,R2   GJA_DEFNODE
          1 0003A3  2F0A                                 MLV,R2   10
          1 0003A4  2E04                                 ADV,R2   4
          1 0003A5  6C08                                 LDV,R6   8
          1 0003A6  BB87                                 LAB,B3   ,AUTO
          1 0003A7  3C44                                 LDV,R3   68
          1 0003A8  0008                                 MMM

PL6.E3A0      #008=GJA$NETWORK_MANAGER File=GJA$SUBS.:E05TSI                     TUE 07/29/97 21:57 Page:216
     1192    11749    5                          I = GJA_DEFNODE;

  11749   1 0003A9  E800 0000 0000  xsym                 LDR,R6   GJA_DEFNODE
          1 0003AC  EF47 004A                            STR,R6   I,AUTO

     1193    11750    5                          IF GJA_LDCT_NM ~= 0 THEN

  11750   1 0003AE  D800 0000 0000  xsym                 LDR,R5   GJA_LDCT_NM
          1 0003B1  5901 0008                            BEZ,R5   s:11753,PREL

     1194    11751    5                               CTX$ = GJA_UID_NM$;

  11751   1 0003B3  EC80 0000 0000  xsym                 LDB,B6   GJA_UID_NM
          1 0003B6  EFC7 002B                            STB,B6   CTX$,AUTO
          1 0003B8  0F81 00A9                            B        s:11788,PREL

     1195    11752    6                          ELSE DO;

     1196    11753    6                               SGNRSP.MESSAGE.RSPSIZ = GJA_MSG_NOHOST$->TEXT.L;

  11753   1 0003BA  EC80 0000 0000  xsym                 LDB,B6   GJA_MSG_NOHOST$
          1 0003BD  C286                                 LLH,R4   ,B6
          1 0003BE  CA80 0000 000F  00                   SRM,R4,'00FF'X    SGNRSP+15
          1 0003C1       00FF

     1197    11754    6                               SGNRSP.MESSAGE.RSPTXT = GJA_MSG_NOHOST$->TEXT.C;

  11754   1 0003C2  C286                                 LLH,R4   ,B6
          1 0003C3  DB80 0000 0000  00                   LAB,B5   SGNRSP
          1 0003C6  D870 20C8                            LDR,R5   8392,IMO
          1 0003C8  0021                                 ALR      ;
          1 0003C9       C006 0000                                ALPHANUM(0,B6,1,R4),;
          1 0003CB       4005 0010                                ALPHANUM(16,B5,,R5,FILL)

     1198    11755    6                               ERR = %E$NOHOST;

  11755   1 0003CD  C870 04C3                            LDR,R4   1219,IMO
PL6.E3A0      #008=GJA$NETWORK_MANAGER File=GJA$SUBS.:E05TSI                     TUE 07/29/97 21:57 Page:217
          1 0003CF  437F                                 CSYNC    s:11755+1,SPREL
          1 0003D0  CF47 0021                            STR,R4   ERR,AUTO

     1199    11756    6                               GOTO LGNFAILED;

  11756   1 0003D2  0F81 FF5E                            B        s:11730,PREL

     1200    11757    6                             END;
     1201    11758    5                        END;
     1202    11759    5                     ELSE DO;

     1203    11760    5                          FOUNDIT = '0'B;

  11760   1 0003D4  8747 0028                            CL       FOUNDIT,AUTO

     1204    11761    6   FNDIT:                 DO I = 0 TO GJA$NODETBL.NODE#;

  11761   1 0003D6  8747 004A            FNDIT           CL       I,AUTO
          1 0003D8  0F81 0015                            B        s:11766+2,PREL

     1205    11762    7                               IF GJA$NODETBL.NODE.NODE(I) = HOST THEN DO;

  11762   1 0003DA  EB80 0000 0000  xsym                 LAB,B6   GJA$NODETBL
          1 0003DD  B847 004A                            LDR,R3   I,AUTO
          1 0003DF  3F0A                                 MLV,R3   10
          1 0003E0  0022                                 ACM      ;
          1 0003E1       4836 0002                                ALPHANUM(2,B6,R3,,8,FILL),;
          1 0003E3       4807 0022                                ALPHANUM(HOST,AUTO,,8,FILL)
          1 0003E5  5301 0006                            CBNE     s:11766,PREL

     1206    11763    7                                    FOUNDIT = '1'B;

  11763   1 0003E7  8947 0028                            LBT,'8000'X       FOUNDIT,AUTO
  11763   1 0003E9       8000

     1207    11764    7                                    EXIT FNDIT;

PL6.E3A0      #008=GJA$NETWORK_MANAGER File=GJA$SUBS.:E05TSI                     TUE 07/29/97 21:57 Page:218
  11764   1 0003EA  0F81 0009                            B        s:11767,PREL

     1208    11765    7                                  END;
     1209    11766    6                             END;

  11766   1 0003EC  8AC7 004A                            INC      I,AUTO
          1 0003EE  E847 004A                            LDR,R6   I,AUTO
          1 0003F0  E900 0000 0000  xsym                 CMR,R6   GJA$NODETBL
          1 0003F3  03E7                                 BLE      s:11762,SPREL

     1210    11767    6                          IF NOT FOUNDIT THEN DO;

  11767   1 0003F4  89C7 0028                            CMZ      FOUNDIT,AUTO
          1 0003F6  0801 001C                            BAL      s:11773,PREL

     1211    11768    6                               ERR = %E$UDHOST;

  11768   1 0003F8  E870 04C4                            LDR,R6   1220,IMO
          1 0003FA  EF47 0021                            STR,R6   ERR,AUTO

     1212    11769    6                               SGNRSP.MESSAGE.RSPSIZ = GJA_MSG_UDHOST$->TEXT.L;

  11769   1 0003FC  EC80 0000 0000                       LDB,B6   0
          1 0003FF  D286                                 LLH,R5   ,B6
          1 000400  DA80 0000 000F  00                   SRM,R5,'00FF'X    SGNRSP+15
          1 000403       00FF

     1213    11770    6                               SGNRSP.MESSAGE.RSPTXT = GJA_MSG_UDHOST$->TEXT.C;

  11770   1 000404  D286                                 LLH,R5   ,B6
          1 000405  C855                                 LDR,R4   R5
          1 000406  DB80 0000 0000  00                   LAB,B5   SGNRSP
          1 000409  D870 20C8                            LDR,R5   8392,IMO
          1 00040B  0021                                 ALR      ;
          1 00040C       C006 0000                                ALPHANUM(0,B6,1,R4),;
          1 00040E       4005 0010                                ALPHANUM(16,B5,,R5,FILL)

PL6.E3A0      #008=GJA$NETWORK_MANAGER File=GJA$SUBS.:E05TSI                     TUE 07/29/97 21:57 Page:219
     1214    11771    6                               GOTO LGNFAILED;

  11771   1 000410  437F                                 CSYNC    s:11770+11,SPREL
          1 000411  0F81 FF1F                            B        s:11730,PREL

     1215    11772    6                             END;
     1216    11773    5                          ROUTE$ = KNN$ROUTE$(I);

  11773   1 000413  EC80 0000 0000  xsym                 LDB,B6   GJA_ROUTE$
          1 000416  B847 004A                            LDR,R3   I,AUTO
          1 000418  DCB6                                 LDB,B5   ,B6,R3
          1 000419  DFC7 0029                            STB,B5   ROUTE$,AUTO

     1217    11774    5                          CTX$ = KNN$ROUTE.CTX$;

  11774   1 00041B  CCC5 0002                            LDB,B4   2,B5
          1 00041D  CFC7 002B                            STB,B4   CTX$,AUTO

     1218    11775    6                          IF CTX$ = ADDR(NIL) OR CTX$->GJA$HAND_CTX.LDCTX = 0 THEN DO;

  11775   1 00041F  8DC7 002B                            CMN      CTX$,AUTO
          1 000421  0901 0005                            BE       s:11776,PREL
          1 000423  8284                                 LB,'1FFF'X        ,B4
          1 000424       1FFF
          1 000425  0501 001C                            BBT      s:11781,PREL

     1219    11776    6                               SGNRSP.MESSAGE.RSPSIZ = GJA_MSG_NOHOST$->TEXT.L;

  11776   1 000427  BC80 0000 0000  xsym                 LDB,B3   GJA_MSG_NOHOST$
          1 00042A  E283                                 LLH,R6   ,B3
          1 00042B  EA80 0000 000F  00                   SRM,R6,'00FF'X    SGNRSP+15
          1 00042E       00FF

     1220    11777    6                               SGNRSP.MESSAGE.RSPTXT = GJA_MSG_NOHOST$->TEXT.C;

  11777   1 00042F  E283                                 LLH,R6   ,B3
          1 000430  C856                                 LDR,R4   R6
PL6.E3A0      #008=GJA$NETWORK_MANAGER File=GJA$SUBS.:E05TSI                     TUE 07/29/97 21:57 Page:220
          1 000431  AB80 0000 0000  00                   LAB,B2   SGNRSP
          1 000434  D870 20C8                            LDR,R5   8392,IMO
          1 000436  0021                                 ALR      ;
          1 000437       C003 0000                                ALPHANUM(0,B3,1,R4),;
          1 000439       4002 0010                                ALPHANUM(16,B2,,R5,FILL)

     1221    11778    6                               ERR = %E$NOHOST;

  11778   1 00043B  B870 04C3                            LDR,R3   1219,IMO
          1 00043D  437F                                 CSYNC    s:11778+1,SPREL
          1 00043E  BF47 0021                            STR,R3   ERR,AUTO

     1222    11779    6                               GOTO LGNFAILED;

  11779   1 000440  0F81 FEF0                            B        s:11730,PREL

     1223    11780    6                             END;
     1224    11781    6                          IF NOT CTX$->GJA$HAND_CTX.HOST_NODE THEN DO;

  11781   1 000442  82C4 000D                            LB,'2000'X        13,B4
  11781   1 000444       2000
          1 000445  0501 001C                            BBT      s:11788,PREL

     1225    11782    6                               SGNRSP.MESSAGE.RSPSIZ = GJA_MSG_UDHOST$->TEXT.L;

  11782   1 000447  BC80 0000 0000  xsym                 LDB,B3   GJA_MSG_UDHOST$
          1 00044A  E283                                 LLH,R6   ,B3
          1 00044B  EA80 0000 000F  00                   SRM,R6,'00FF'X    SGNRSP+15
          1 00044E       00FF

     1226    11783    6                               SGNRSP.MESSAGE.RSPTXT = GJA_MSG_UDHOST$->TEXT.C;

  11783   1 00044F  E283                                 LLH,R6   ,B3
          1 000450  C856                                 LDR,R4   R6
          1 000451  AB80 0000 0000  00                   LAB,B2   SGNRSP
          1 000454  D870 20C8                            LDR,R5   8392,IMO
          1 000456  0021                                 ALR      ;
PL6.E3A0      #008=GJA$NETWORK_MANAGER File=GJA$SUBS.:E05TSI                     TUE 07/29/97 21:57 Page:221
          1 000457       C003 0000                                ALPHANUM(0,B3,1,R4),;
          1 000459       4002 0010                                ALPHANUM(16,B2,,R5,FILL)

     1227    11784    6                               ERR = %E$UDHOST;

  11784   1 00045B  B870 04C4                            LDR,R3   1220,IMO
          1 00045D  437F                                 CSYNC    s:11784+1,SPREL
          1 00045E  BF47 0021                            STR,R3   ERR,AUTO

     1228    11785    6                               GOTO LGNFAILED;

  11785   1 000460  0F81 FED0                            B        s:11730,PREL

     1229    11786    6                             END;
     1230    11787    5                        END;
     1231    11788    4                     NMID = KL$SGN.NMID;

  11788   1 000462  ACC7 002F                            LDB,B2   KL$,AUTO
          1 000464  2C17                                 LDV,R2   23
          1 000465  6C04                                 LDV,R6   4
          1 000466  BB87                                 LAB,B3   ,AUTO
          1 000467  3C5A                                 LDV,R3   90
          1 000468  0008                                 MMM

     1232    11789    4                     NMID$->GJA$LGNCTX.NM_NODE = I;

  11789   1 000469  E847 004A                            LDR,R6   I,AUTO
          1 00046B  ECC7 002D                            LDB,B6   NMID$,AUTO
          1 00046D  E7C6 0009                            STH,R6   9,B6

     1233    11790    4                     KL$SGN.NODE = GJA_NODE#;

  11790   1 00046F  D800 0000 0000  xsym                 LDR,R5   GJA_NODE#
          1 000472  DCC7 002F                            LDB,B5   KL$,AUTO
          1 000474  DA85                                 SRM,R5,'00FF'X    ,B5
          1 000475       00FF

PL6.E3A0      #008=GJA$NETWORK_MANAGER File=GJA$SUBS.:E05TSI                     TUE 07/29/97 21:57 Page:222
     1234    11791    4                     CALL GJA$SEND_MSG(CTX$,BUFFER,SIZE);

  11791   1 000476  CCC7 0006                            LDB,B4   @SIZE,AUTO
          1 000478  CFC7 005A                            STB,B4   TERMID+13,AUTO
          1 00047A  ACC7 0004                            LDB,B2   @BUFFER,AUTO
          1 00047C  AFC7 0058                            STB,B2   TERMID+11,AUTO
          1 00047E  9BC7 002B                            LAB,B1   CTX$,AUTO
          1 000480  9FC7 0056                            STB,B1   TERMID+9,AUTO
          1 000482  BBC7 0056                            LAB,B3   TERMID+9,AUTO
          1 000484  CBF0 0300                            LAB,B4   768,IMO
          1 000486  E380 0000 0000  xent                 LNJ,B6   GJA$SEND_MSG
          1 000489       0001                            DC       s:11792,PREL

     1235    11792    4                   END;                    /* not autologn */

  11792   1 00048A  0F81 00A1                            B        s:11831,PREL

     1236    11793
     1237    11794    3             CASE (IGA_ERRMSG_RQS);

     1238    11795    3                ERRMSG_RSP.USR# = KL$ERRMSG_RQS.USR#;

  11795   1 00048C  D806                                 LDR,R5   ,B6
          1 00048D  DA80 0000 00EB  00                   SRM,R5,'00FF'X    ERRMSG_RSP
          1 000490       00FF

     1239    11796    3                ERRMSG_RSP.CTX$ = KL$ERRMSG_RQS.CTX$;

  11796   1 000491  DCC6 0002                            LDB,B5   2,B6
          1 000493  DF80 0000 00ED  00                   STB,B5   ERRMSG_RSP+2

     1240    11797    3                ERRMSG_RSP.MESSAGE_SZ = 0;

  11797   1 000496  8780 0000 00EC  00                   CLH      ERRMSG_RSP+1

     1241    11798    3                ERRMSG_RSP.NO_NM = '1'B;

PL6.E3A0      #008=GJA$NETWORK_MANAGER File=GJA$SUBS.:E05TSI                     TUE 07/29/97 21:57 Page:223
  11798   1 000499  8900 0000 00EC  00                   LBT,'0002'X       ERRMSG_RSP+1
  11798   1 00049C       0002

     1242    11799    3                PARAMS='0'B;

  11799   1 00049D  5C2E                                 LDV,R5   46
          1 00049E  0021                                 ALR      ;
          1 00049F       4178 0000                                ALPHANUM('0000'X,IMO,,1),;
          1 0004A1       4007 0031                                ALPHANUM(PARAMS,AUTO,,R5,FILL)

     1243    11800    3                PARAMS.DAT$ = ADDR(ERRMSG_RSP);

  11800   1 0004A3  CB80 0000 00EB  00                   LAB,B4   ERRMSG_RSP
          1 0004A6  437F                                 CSYNC    s:11800+2,SPREL
          1 0004A7  CFC7 0037                            STB,B4   PARAMS+6,AUTO

     1244    11801    3                PARAMS.DATSIZE = SIZEC(ERRMSG_RSP);

  11801   1 0004A9  C870 0080                            LDR,R4   128,IMO
          1 0004AB  CF47 0039                            STR,R4   PARAMS+8,AUTO

     1245    11802    3                CALL GJA$DECODE_APL_MSG(PARAMS,GJA_UID_NANM$);

  11802   1 0004AD  BB80 0000 0000  xsym                 LAB,B3   GJA_UID_NANM$
          1 0004B0  BFC7 0058                            STB,B3   TERMID+11,AUTO
          1 0004B2  ABC7 0031                            LAB,B2   PARAMS,AUTO
          1 0004B4  AFC7 0056                            STB,B2   TERMID+9,AUTO
          1 0004B6  BBC7 0056                            LAB,B3   TERMID+9,AUTO
          1 0004B8  CBF0 0200                            LAB,B4   512,IMO
          1 0004BA  E380 0000 0000  xent                 LNJ,B6   GJA$DECODE_APL_MSG
          1 0004BD       0001                            DC       s:11802+17,PREL
          1 0004BE  0F81 006D                            B        s:11831,PREL

     1246    11803
     1247    11804    3             CASE (IGA_SYSLOG);

     1248    11805    3                IF KV$BPC.TOT/2 < KV$BPC.USE THEN
PL6.E3A0      #008=GJA$NETWORK_MANAGER File=GJA$SUBS.:E05TSI                     TUE 07/29/97 21:57 Page:224

  11805   1 0004C0  DC80 0000 0000  xsym                 LDB,B5   KV_B_POOL$
          1 0004C3  8C85                                 LDI      ,B5
          1 0004C4  70C1                                 DOR,R7   1
          1 0004C5  84C5 0002                            SID      2,B5
          1 0004C7  0601 0004                            BCT      s:11807,PREL

     1249    11806    3                     RETURN; /* dont keep logs if more than half of mem in use */

  11806   1 0004C9  C380 0000 0000  xent                 LNJ,B4   X6A_ARET

     1250    11807    3                CALL KVB$GET2NSYS((SIZE+SIZEC(SV$MSG)+1)/2,SVMSG$)

  11807   1 0004CC  CCC7 0006                            LDB,B4   @SIZE,AUTO
          1 0004CE  E804                                 LDR,R6   ,B4
          1 0004CF  6E0B                                 ADV,R6   11
          1 0004D0  6041                                 SOR,R6   1
          1 0004D1  EF47 0056                            STR,R6   TERMID+9,AUTO
          1 0004D3  BBC7 0008                            LAB,B3   SVMSG$,AUTO
          1 0004D5  BFC7 0059                            STB,B3   TERMID+12,AUTO
          1 0004D7  ABC7 0056                            LAB,B2   TERMID+9,AUTO
          1 0004D9  AFC7 0057                            STB,B2   TERMID+10,AUTO
          1 0004DB  BBC7 0057                            LAB,B3   TERMID+10,AUTO
          1 0004DD  CBF0 0200                            LAB,B4   512,IMO
          1 0004DF  E380 0000 0000  xent                 LNJ,B6   KVB$GET2NSYS
          1 0004E2       0003                            DC       s:11809,PREL
          1 0004E3  0F81 0004                            B        s:11811,PREL

     1251    11808    4                WHENALTRETURN DO;

     1252    11809    4                     RETURN;          /* drop errmsgs we don't have memory for */

  11809   1 0004E5  C380 0000 0000  xent                 LNJ,B4   X6A_ARET

     1253    11810    4                   END;
     1254    11811    3                SVMSG$->SV$MSG.LNK$ = ADDR(NIL);

PL6.E3A0      #008=GJA$NETWORK_MANAGER File=GJA$SUBS.:E05TSI                     TUE 07/29/97 21:57 Page:225
  11811   1 0004E8  EB80 0000 0000                       LAB,B6   0
          1 0004EB  DCC7 0008                            LDB,B5   SVMSG$,AUTO
          1 0004ED  EFC5 0001                            STB,B6   1,B5

     1255    11812    3                SVMSG$->SV$MSG.SZ = SIZE;

  11812   1 0004EF  ECC7 0008                            LDB,B6   SVMSG$,AUTO
          1 0004F1  DCC7 0006                            LDB,B5   @SIZE,AUTO
          1 0004F3  E805                                 LDR,R6   ,B5
          1 0004F4  EF46 0003                            STR,R6   3,B6

     1256    11813    3                IF GJA$SYSLOG$ = ADDR(NIL) THEN

  11813   1 0004F6  8D80 0000 0000  xsym                 CMN      GJA$SYSLOG$
          1 0004F9  0981 0008                            BNE      s:11817,PREL

     1257    11814    3                     GJA$SYSLOG$ = SVMSG$;

  11814   1 0004FB  ECC7 0008                            LDB,B6   SVMSG$,AUTO
          1 0004FD  EF80 0000 0000  xsym                 STB,B6   GJA$SYSLOG$
          1 000500  0F81 0017                            B        s:11823,PREL

     1258    11815    3                ELSE
     1259    11816    4                DO;

     1260    11817    4                     TMP$ = GJA$SYSLOG$;

  11817   1 000502  EC80 0000 0000  xsym                 LDB,B6   GJA$SYSLOG$
          1 000505  EFC7 000A                            STB,B6   TMP$,AUTO

     1261    11818    5                     DO WHILE TMP$->SV$MSG.LNK$ ~= ADDR(NIL);

  11818   1 000507  0F81 0007                            B        s:11820,PREL

     1262    11819    5                          TMP$ = TMP$->SV$MSG.LNK$;

  11819   1 000509  ECC7 000A                            LDB,B6   TMP$,AUTO
PL6.E3A0      #008=GJA$NETWORK_MANAGER File=GJA$SUBS.:E05TSI                     TUE 07/29/97 21:57 Page:226
          1 00050B  DCC6 0001                            LDB,B5   1,B6
          1 00050D  DFC7 000A                            STB,B5   TMP$,AUTO

     1263    11820    5                        END;

  11820   1 00050F  ECC7 000A                            LDB,B6   TMP$,AUTO
          1 000511  8DC6 0001                            CMN      1,B6
          1 000513  09F6                                 BNE      s:11819,SPREL

     1264    11821    4                     TMP$->SV$MSG.LNK$ = SVMSG$;

  11821   1 000514  DCC7 0008                            LDB,B5   SVMSG$,AUTO
          1 000516  DFC6 0001                            STB,B5   1,B6

     1265    11822    4                   END;

     1266    11823    3                SVMSG$ = PINCRW(SVMSG$,SIZEW(SV$MSG));

  11823   1 000518  ECC7 0008                            LDB,B6   SVMSG$,AUTO
          1 00051A  DBC6 0005                            LAB,B5   5,B6
          1 00051C  DFC7 0008                            STB,B5   SVMSG$,AUTO

     1267    11824    3                SVMSG$->STRING = BUFFER;

  11824   1 00051E  ECC7 0006                            LDB,B6   @SIZE,AUTO
          1 000520  E806                                 LDR,R6   ,B6
          1 000521  ACC7 0004                            LDB,B2   @BUFFER,AUTO
          1 000523  2C00                                 LDV,R2   0
          1 000524  BB85                                 LAB,B3   ,B5
          1 000525  3C00                                 LDV,R3   0
          1 000526  0008                                 MMM
          1 000527  0F81 0004                            B        s:11831,PREL

     1268    11825    3             CASE(IGA_DUMPMSG);

     1269    11826    3                KL$DUMPMSG.NAHDR.ERRFLAG=1;

PL6.E3A0      #008=GJA$NETWORK_MANAGER File=GJA$SUBS.:E05TSI                     TUE 07/29/97 21:57 Page:227
  11826   1 000529  5C01                                 LDV,R5   1
          1 00052A  DA86                                 SRM,R5,'00FF'X    ,B6
          1 00052B       00FF

     1270    11827    3             END /* End cases */;

     1271    11828
     1272    11829    2           END;

     1273    11830
     1274    11831    1        RETURN;

  11831   1 00052C  C380 0000 0000  xent                 LNJ,B4   X6A_ARET
     1275    11832
     1276    11833    1   END GJA$NETWORK_MANAGER;
     1277    11834        %EOD;

PL6.E3A0      #008=GJA$NETWORK_MANAGER File=GJA$SUBS.:E05TSI                     TUE 07/29/97 21:57 Page:228
--  Include file information  --

   KNN_NETWORK_M.:E05TOU  is referenced.
   KL_ERRORS_C.:E05TOU  is referenced.
   KV$BPC.:E05TOU  is referenced.
   G_LCP6_E.:E05TOU  is referenced.
   GT_LCP6_M.:E05TOU  is referenced.
   KI_CP6.:E05TOU  is referenced.
   GF_LCP6_M.:E05TOU  is referenced.
   GM_LCP6_M.:E05TOU  is referenced.
   GU_LCP6_M.:E05TOU  is referenced.
   GJ_LCP6_M.:E05TOU  is referenced.
   GH_LCP6_M.:E05TOU  is referenced.
   LCP_6.:E05TOU  cannot be made into a system file and is referenced.
   KN_ERRORS_C.:E05TOU  is referenced.
   KNH_MACRO_C.:E05TOU  is referenced.
   KL_AFCN_C.:E05TOU  is referenced.
   KL_MACRO_C.:E05TOU  is referenced.
   KL_CONTROL_C.:E05TOU  is referenced.
   GJA_MSG_M.:E05TOU  is referenced.
      No diagnostics issued in procedure GJA$NETWORK_MANAGER.
PL6.E3A0      #008=GJA$NETWORK_MANAGER File=GJA$SUBS.:E05TSI                     TUE 07/29/97 21:57 Page:229

 **** Variables and constants ****

  ****  Section 000  Data  GJA$NETWORK_MANAGER

  ****  Scalars and arrays  ****
HexLoc.c.b A Datatyp(siz) R M Lvl/name                 HexLoc.c.b A Datatyp(siz) R M Lvl/name

   12B-0-0/w STRC(2472)  r     1 CHNRSP                   1CD-0-0/w STRC(32)    r     1 E$KLH_FCG
    EB-0-0/w STRC(1024)  r     1 ERRMSG_RSP               1C6-0-0/w STRC(72)    r     1 PRFRSP
     0-0-0/w STRC(1856)  r     1 SGNRSP                    74-0-0/w STRC(1904)  r     1 SYSLOG

  ****  Auto variables  ****

  ****  Scalars and arrays  ****
HexLoc.c.b A Datatyp(siz) R M Lvl/name                 HexLoc.c.b A Datatyp(siz) R M Lvl/name

     4-0-0/w PTR         r     1 @BUFFER                    6-0-0/w PTR         r     1 @SIZE
     C-0-0/c STRC(64)    r     1 ACCR                       C-0-0/c CHAR(8)     r     1 ACCT
    *0-0-0/w ACHR        r     1 BUFFER                    4B-0-0/w PTR         r     1 CHNRSP$
    2B-0-0/w PTR         r     1 CTX$                      21-0-0/w UBIN(16)    r     1 ERR
    28-0-0/b BIT         r     1 FOUNDIT                   22-0-0/c CHAR(8)     r     1 HOST
    4A-0-0/w UBIN(16)    r     1 I                         2F-0-0/w PTR         r     1 KL$
    10-0-0/w STRC(104)   r     1 NAME                      2D-0-0/w UBIN(32)    r     1 NMID
    2D-0-0/w PTR         r     1 NMID$                     27-0-0/w BIT         r     1 NOHEADER
    26-0-0/w BIT         r     1 NOSETUP                   48-0-0/w PTR         r     1 P$
    31-0-0/w STRC(368)   r     1 PARAMS                    1B-0-0/w STRC(96)    r     1 PRO
    17-0-0/c CHAR(8)     r     1 PW                        29-0-0/w PTR         r     1 ROUTE$
    *0-0-0/w UBIN(16)    r     1 SIZE                       8-0-0/w PTR         r     1 SVMSG$
    4D-0-0/c STRC(128)   r     1 TERMID                     A-0-0/w PTR         r     1 TMP$

  ****  SYMREF variables  ****

  ****  Scalars and arrays  ****
HexLoc.c.b A Datatyp(siz) R M Lvl/name                 HexLoc.c.b A Datatyp(siz) R M Lvl/name

     0-0-0/w PTR         r     1 G$DS1$                     0-0-0/w STRC(20496) r     1 GJA$NODETBL
     0-0-0/w PTR         r     1 GJA$SYSLOG$                0-0-0/w PTR         r     1 GJA_CHNRSP_HEAD$
PL6.E3A0      #008=GJA$NETWORK_MANAGER File=GJA$SUBS.:E05TSI                     TUE 07/29/97 21:57 Page:230
     0-0-0/w UBIN(16)    r     1 GJA_DEFNODE                0-0-0/w UBIN(16)    r     1 GJA_LDCT_NM
     0-0-0/w PTR         r     1 GJA_LINE_HEAD$             0-0-0/w PTR         r     1 GJA_MSG_BDID$
     0-0-0/w PTR         r     1 GJA_MSG_NOHOST$            0-0-0/w PTR         r     1 GJA_MSG_SGSYN$
     0-0-0/w PTR         r     1 GJA_MSG_UDHOST$            0-0-0/w UBIN(16)    r     1 GJA_NODE#
     0-0-0/w PTR         r     1 GJA_ROUTE$                 0-0-0/w PTR         r     1 GJA_UID_NANM$
     0-0-0/w UBIN(32)    r     1 GJA_UID_NM                 0-0-0/w PTR         r     1 GJA_UID_NM$
     0-0-0/w PTR         r     1 KV_B_POOL$

  ****  BASED and DCB variables  ****

  ****  Scalars and arrays  ****
HexLoc.c.b A Datatyp(siz) R M Lvl/name                 HexLoc.c.b A Datatyp(siz) R M Lvl/name

     0-0-0/w UBIN(32)    r     1 B$DWORD                    0-0-0/w PTR         r     1 B$PTR$
     0-0-0/w UBIN(16)    r     1 B$WORD                     0-0-0/c STRC(272)   r     1 GJA$HAND_CTX
     0-0-0/w STRC(528)   r     1 GJA$LGNCTX                 0-0-0/w STRC(2472)  r     1 KL$CHNRSP
     0-0-0/w STRC(1776)  r     1 KL$CONTROL                 0-0-0/w ASTR(96)    r     1 KL$DUMPMSG
     0-0-0/w STRC(496)   r     1 KL$ERRMSG_RQS              0-0-0/w STRC(272)   r     1 KL$HDR
     0-0-0/w ASTR(216)   r     1 KL$RQSCHN                  0-0-0/w STRC(256)   r     1 KL$RQSPROFILE
     0-0-0/w ASTR(240)   r     1 KL$SGN                     0-0-0/w STRC(208)   r     1 KNN$ROUTE
     0-0-0/w PTR         r     1 KNN$ROUTE$(0:0)
     0-0-0/w ASTR(1824)  r     1 KV$BPC                     0-0-0/c ACHR        r     1 STRING
     0-0-0/w STRC(80)    r     1 SV$MSG                     0-0-0/c ASTR(8)     r     1 TEXT


   Procedure GJA$NETWORK_MANAGER requires 1327 words for executable code.
   Procedure GJA$NETWORK_MANAGER requires 104 words of local(AUTO) storage.
PL6.E3A0      #008=GJA$NETWORK_MANAGER File=GJA$SUBS.:E05TSI                     TUE 07/29/97 21:57 Page:231
          *** CROSS REFERENCE LISTING ***
**     DENOTES     IDENTIFIER DEFINITION
<<                 IDENTIFIER'S VALUE SET
>>                 IDENTIFIER'S VALUE USED
<>                 IDENTIFIER SET AND/OR USED
--                 IDENTIFIER REFERENCED
PL6.E3A0      #008=GJA$NETWORK_MANAGER File=GJA$SUBS.:E05TSI                     TUE 07/29/97 21:57 Page:232
          MINI XREF LISTING

ACCR.C1
     10805**DCL     11741>>IF
ACCT
     10803**DCL     10804--REDEF   11711<>CALL
B$DWORD
     10562**DCL     11605>>DOINDEX 11606--ASSIGN  11606>>ASSIGN
B$PTR$
     10563**DCL     11638--IF      11641--ASSIGN  11643--ASSIGN  11650>>ASSIGN  11663--IF      11666--ASSIGN
     11669>>ASSIGN
B$WORD
     10564**DCL     11638--IF      11643>>ASSIGN  11643--ASSIGN  11644--ASSIGN
BUFFER
      9159**DCL        22--PROC    11595--ASSIGN  11599<>CALL    11676<>CALL    11698<>CALL    11708<>CALL
     11791<>CALL    11824>>ASSIGN
CHNRSP
     11188**DCL     11666<<ASSIGN  11687--ASSIGN  11688--ASSIGN
CHNRSP.CONFIG
     11199**DCL     11682<<ASSIGN
CHNRSP.DFLTHND
     11203**DCL     11683<<ASSIGN
CHNRSP.HANDLER
     11217**DCL     11684<<ASSIGN
CHNRSP.LINE_PROFILE
     11195**DCL     11681<<ASSIGN
CHNRSP.NAK
     11207**DCL     11679<<ASSIGN
CHNRSP.TERMINAL_ID
     11237**DCL     11685<<ASSIGN
CHNRSP.TERMINAL_ID.TERM
     11239**DCL     11248--REDEF
CHNRSP$
     11563**DCL     11634<<ASSIGN  11637>>DOWHILE 11638>>IF      11641<<ASSIGN  11641>>ASSIGN  11643>>ASSIGN
PL6.E3A0      #008=GJA$NETWORK_MANAGER File=GJA$SUBS.:E05TSI                     TUE 07/29/97 21:57 Page:233
     11644<<ASSIGN  11644>>ASSIGN  11645>>ASSIGN  11646>>ASSIGN  11650<<ASSIGN  11650>>ASSIGN  11655<<ASSIGN
     11662>>DOWHILE 11663>>IF      11666>>ASSIGN  11669<<ASSIGN  11669>>ASSIGN
CTX$
     10823**DCL     10746--IMP-PTR 11751<<ASSIGN  11774<<ASSIGN  11775>>IF      11775>>IF      11781>>IF
     11791<>CALL
DO_CHNRSP
     11679**LABEL   11667--GOTO
E$KLH_FCG
     11504**DCL     11733>>ASSIGN
ERR
     10814**DCL     11694<<ASSIGN  11711<>CALL    11713>>ASSIGN  11720>>DOCASE  11734>>ASSIGN  11744<<ASSIGN
     11755<<ASSIGN  11768<<ASSIGN  11778<<ASSIGN  11784<<ASSIGN
ERRMSG_RSP
     11112**DCL     11800--ASSIGN  11801--ASSIGN
ERRMSG_RSP.CTX$
     11165**DCL     11796<<ASSIGN
ERRMSG_RSP.MESSAGE_SZ
     11124**DCL     11797<<ASSIGN
ERRMSG_RSP.NO_NM
     11154**DCL     11798<<ASSIGN
ERRMSG_RSP.USR#
     11119**DCL     11795<<ASSIGN
FNDIT
     11761**LABEL   11764--EXIT
FOUNDIT
     10818**DCL     11760<<ASSIGN  11763<<ASSIGN  11767>>IF
G$DS1$
      9167**DCL     11604>>ASSIGN  11605>>DOINDEX 11606>>ASSIGN  11606>>ASSIGN
GJA$DECODE_APL_MSG
     11538**DCL-ENT 11613--CALL    11622--CALL    11629--CALL    11647--CALL    11689--CALL    11738--CALL
     11802--CALL
GJA$HAND_CTX.HOST_NODE
     10776**DCL     11781>>IF
GJA$HAND_CTX.LDCTX
     10752**DCL     11775>>IF
GJA$LGNCTX.NM_NODE
PL6.E3A0      #008=GJA$NETWORK_MANAGER File=GJA$SUBS.:E05TSI                     TUE 07/29/97 21:57 Page:234
     10685**DCL     11789<<ASSIGN
GJA$LGNCTX.TERMINAL_ID.TERM
     10712**DCL     10721--REDEF
GJA$NETWORK_MANAGER
        22**PROC    11718--CALL
GJA$NODETBL.NODE.NODE
      9201**DCL     11748>>ASSIGN  11762>>IF
GJA$NODETBL.NODE#
      9193**DCL     11761>>DOINDEX
GJA$PARSE
     11542**DCL-ENT 11711--CALL
GJA$SEND_MSG
     11539**DCL-ENT 11599--CALL    11676--CALL    11698--CALL    11708--CALL    11791--CALL
GJA$SYSLOG$
      9170**DCL     11813>>IF      11814<<ASSIGN  11817>>ASSIGN
GJA_CHNRSP_HEAD$
      9169**DCL     11655>>ASSIGN
GJA_DEFNODE
      9173**DCL     11748>>ASSIGN  11749>>ASSIGN
GJA_LDCT_NM
      9163**DCL     11596>>IF      11674>>IF      11693>>IF      11705>>IF      11750>>IF
GJA_LINE_HEAD$
      9168**DCL     11634>>ASSIGN
GJA_MSG_BDID$
      9176**DCL     11701>>IF      11725>>ASSIGN  11726>>ASSIGN  11726>>ASSIGN
GJA_MSG_NOHOST$
      9177**DCL     11701>>IF      11728>>ASSIGN  11729>>ASSIGN  11729>>ASSIGN  11753>>ASSIGN  11754>>ASSIGN
     11754>>ASSIGN  11776>>ASSIGN  11777>>ASSIGN  11777>>ASSIGN
GJA_MSG_SGSYN$
      9175**DCL     11701>>IF      11722>>ASSIGN  11723>>ASSIGN  11723>>ASSIGN  11742>>ASSIGN  11743>>ASSIGN
     11743>>ASSIGN
GJA_MSG_UDHOST$
      9178**DCL     11701>>IF      11769>>ASSIGN  11770>>ASSIGN  11770>>ASSIGN  11782>>ASSIGN  11783>>ASSIGN
     11783>>ASSIGN
GJA_NODE#
      9172**DCL     11717>>ASSIGN  11790>>ASSIGN
PL6.E3A0      #008=GJA$NETWORK_MANAGER File=GJA$SUBS.:E05TSI                     TUE 07/29/97 21:57 Page:235
GJA_ROUTE$
      9174**DCL     10587--IMP-PTR 11773>>ASSIGN
GJA_UID_NANM$
      9166**DCL     11613<>CALL    11622<>CALL    11629<>CALL    11647<>CALL    11689<>CALL    11738<>CALL
     11802<>CALL
GJA_UID_NM
      9164**DCL      9165--REDEF
GJA_UID_NM$
      9165**DCL     11599<>CALL    11676<>CALL    11698<>CALL    11708<>CALL    11751>>ASSIGN
HOST
     10815**DCL     11711<>CALL    11747>>IF      11748<<ASSIGN  11762>>IF
I
     11562**DCL     11605<<DOINDEX 11606>>ASSIGN  11749<<ASSIGN  11761<<DOINDEX 11762>>IF      11773>>ASSIGN
     11789>>ASSIGN
KL$
     11545**DCL      9221--IMP-PTR  9319--IMP-PTR  9448--IMP-PTR  9592--IMP-PTR  9681--IMP-PTR  9752--IMP-PTR
      9887--IMP-PTR  9990--IMP-PTR 10083--IMP-PTR 10483--IMP-PTR 10519--IMP-PTR 11595<<ASSIGN  11596>>IF
     11596>>IF      11602>>DOCASE  11607>>IF      11618>>ASSIGN  11620>>ASSIGN  11625>>ASSIGN  11632>>IF
     11635>>ASSIGN  11638>>IF      11645>>ASSIGN  11653>>IF      11656>>ASSIGN  11681>>ASSIGN  11682>>ASSIGN
     11683>>ASSIGN  11684>>ASSIGN  11685>>ASSIGN  11692>>IF      11711>>CALL    11711>>CALL    11714>>ASSIGN
     11715>>ASSIGN  11715>>ASSIGN  11716>>ASSIGN  11732>>ASSIGN  11788>>ASSIGN  11790>>ASSIGN  11795>>ASSIGN
     11796>>ASSIGN  11826>>ASSIGN
KL$ADMIN.TERMID_HI.TERM
      9565**DCL      9574--REDEF
KL$ADMIN.TERMID_LO.TERM
      9536**DCL      9545--REDEF
KL$CHNRSP
     10258**DCL     11666>>ASSIGN
KL$CHNRSP.HANDLER
     10287**DCL     11645<<ASSIGN
KL$CHNRSP.TERMINAL_ID
     10307**DCL     11663>>IF
KL$CHNRSP.TERMINAL_ID.TERM
     10309**DCL     10318--REDEF
KL$CHNRSP.TERMINAL_ID.TERM.CHANNEL
     10315**DCL     11638>>IF
PL6.E3A0      #008=GJA$NETWORK_MANAGER File=GJA$SUBS.:E05TSI                     TUE 07/29/97 21:57 Page:236
KL$CONTROL
      9319**DCL     11612--ASSIGN  11616--ASSIGN  11620--ASSIGN
KL$CONTROL.HANDLER
      9328**DCL     11607>>IF      11607>>IF
KL$CONTROL.TYPE
      9325**DCL     11609<<ASSIGN  11618<<ASSIGN
KL$DUMPMSG.DATASIZE
     10500**DCL     10502--IMP-SIZ
KL$DUMPMSG.NAHDR.ERRFLAG
     10492**DCL     11826<<ASSIGN
KL$ERRMSG_RQS.CTX$
     10115**DCL     11796>>ASSIGN
KL$ERRMSG_RQS.USR#
     10090**DCL     11795>>ASSIGN
KL$HDR.CODE
      9226**DCL     11596>>IF      11596>>IF      11602>>DOCASE
KL$KEYMES.TERMID.TERM
      9834**DCL      9843--REDEF
KL$RQSCHN.CONFIG
      9898**DCL     11653>>IF      11682>>ASSIGN
KL$RQSCHN.DFLTHND
      9902**DCL     11683>>ASSIGN
KL$RQSCHN.HANDLER
      9919**DCL     11645>>ASSIGN  11684>>ASSIGN
KL$RQSCHN.LINE_PROFILE
      9894**DCL     11632>>IF      11681>>ASSIGN
KL$RQSCHN.SGN.L
      9961**DCL      9969--IMP-SIZ
KL$RQSCHN.TERMINAL_ID
      9939**DCL     11656>>ASSIGN  11685>>ASSIGN
KL$RQSCHN.TERMINAL_ID.TERM
      9941**DCL      9950--REDEF
KL$RQSCHN.TERMINAL_ID.TERM.CHANNEL
      9947**DCL     11638>>IF
KL$RQSCHN.TERMINAL_ID.TTYP
      9941**DCL     11635<<ASSIGN
PL6.E3A0      #008=GJA$NETWORK_MANAGER File=GJA$SUBS.:E05TSI                     TUE 07/29/97 21:57 Page:237
KL$RQSPROFILE.NMID
     10558**DCL     11625>>ASSIGN
KL$RQSPROFILE.TERMID.TERM
     10542**DCL     10551--REDEF
KL$SGN.AUTOLGN
     10031**DCL     11692>>IF
KL$SGN.LOGON
     10064**DCL     11711<>CALL
KL$SGN.LOGON.LGNSIZ
     10065**DCL     10066--IMP-SIZ 11711>>CALL    11714>>ASSIGN  11715>>ASSIGN
KL$SGN.LOGON.LGNTXT
     10066**DCL     11715>>ASSIGN
KL$SGN.NMID
     10054**DCL     11732>>ASSIGN  11788>>ASSIGN
KL$SGN.NODE
      9994**DCL     11790<<ASSIGN
KL$SGN.TERMINAL_ID
     10015**DCL     11716>>ASSIGN
KL$SGN.TERMINAL_ID.TERM
     10017**DCL     10026--REDEF
KNN$ROUTE.CTX$
     10596**DCL     11774>>ASSIGN
KNN$ROUTE$
     10587**DCL     11773>>ASSIGN
KV$BPC.BITMAPSIZ
     10581**DCL     10584--IMP-SIZ
KV$BPC.TOT
     10574**DCL     11805>>IF
KV$BPC.USE
     10574**DCL     11805>>IF
KVB$GET2NSYS
     11541**DCL-ENT 11807--CALL
KV_B_POOL$
      9171**DCL     10570--IMP-PTR 11805>>IF      11805>>IF
LGNFAILED
     11731**LABEL   11695--GOTO    11706--GOTO    11745--GOTO    11756--GOTO    11771--GOTO    11779--GOTO
PL6.E3A0      #008=GJA$NETWORK_MANAGER File=GJA$SUBS.:E05TSI                     TUE 07/29/97 21:57 Page:238
     11785--GOTO
NAME
     10807**DCL     11711<>CALL
NMID
     10825**DCL     11788<<ASSIGN
NMID$
     10824**DCL     10825--REDEF   11789>>ASSIGN
NOHEADER
     10817**DCL     11711<>CALL
NOSETUP
     10816**DCL     11711<>CALL
P$
     11561**DCL     11604<<ASSIGN  11606<<ASSIGN  11607>>IF      11609>>ASSIGN  11611>>ASSIGN  11616<<ASSIGN
     11616>>ASSIGN
PARAMS
     11547**DCL     11610<<ASSIGN  11613<>CALL    11619<<ASSIGN  11622<>CALL    11626<<ASSIGN  11629<>CALL
     11642<<ASSIGN  11647<>CALL    11686<<ASSIGN  11689<>CALL    11731<<ASSIGN  11738<>CALL    11799<<ASSIGN
     11802<>CALL
PARAMS.DAT$
     11551**DCL     11611<<ASSIGN  11620<<ASSIGN  11628<<ASSIGN  11646<<ASSIGN  11687<<ASSIGN  11735<<ASSIGN
     11800<<ASSIGN
PARAMS.DATSIZE
     11552**DCL     11612<<ASSIGN  11621<<ASSIGN  11627<<ASSIGN  11643<<ASSIGN  11688<<ASSIGN  11736<<ASSIGN
     11801<<ASSIGN
PRFRSP
     11408**DCL     11627--ASSIGN  11628--ASSIGN
PRFRSP.NMID
     11423**DCL     11625<<ASSIGN
PRFRSP.PROFILE.PRFSIZE
     11435**DCL     11624<<ASSIGN
PRO
     10811**DCL     11711<>CALL
PW
     10810**DCL     11711<>CALL
ROUTE$
     10822**DCL     10589--IMP-PTR 11773<<ASSIGN  11774>>ASSIGN
PL6.E3A0      #008=GJA$NETWORK_MANAGER File=GJA$SUBS.:E05TSI                     TUE 07/29/97 21:57 Page:239
SGNRSP
     10843**DCL     11735--ASSIGN  11736--ASSIGN
SGNRSP.ERRCODE
     10899**DCL     11733<<ASSIGN
SGNRSP.ERRCODE.ERR#
     10926**DCL     11734<<ASSIGN
SGNRSP.MESSAGE.RSPSIZ
     10961**DCL     11722<<ASSIGN  11725<<ASSIGN  11728<<ASSIGN  11736>>ASSIGN  11742<<ASSIGN  11753<<ASSIGN
     11769<<ASSIGN  11776<<ASSIGN  11782<<ASSIGN
SGNRSP.MESSAGE.RSPTXT
     10962**DCL     11723<<ASSIGN  11726<<ASSIGN  11729<<ASSIGN  11736--ASSIGN  11743<<ASSIGN  11754<<ASSIGN
     11770<<ASSIGN  11777<<ASSIGN  11783<<ASSIGN
SGNRSP.NMID
     10861**DCL     11732<<ASSIGN
SGNRSP.TERMID.TERM
     10947**DCL     10956--REDEF
SIZE
      9160**DCL        22--PROC     9159--IMP-SIZ 10800--IMP-SIZ 11599>>CALL    11599<>CALL    11621>>ASSIGN
     11676>>CALL    11676<>CALL    11698>>CALL    11698<>CALL    11708>>CALL    11708<>CALL    11791>>CALL
     11791<>CALL    11807>>CALL    11812>>ASSIGN  11824>>ASSIGN  11824>>ASSIGN
STRING
     10800**DCL     11824<<ASSIGN
SV$MSG
     10794**DCL     11807--CALL    11823--ASSIGN
SV$MSG.LNK$
     10796**DCL     11811<<ASSIGN  11818>>DOWHILE 11819>>ASSIGN  11821<<ASSIGN
SV$MSG.SZ
     10797**DCL     11812<<ASSIGN
SVMSG$
     10801**DCL     11807<>CALL    11811>>ASSIGN  11812>>ASSIGN  11814>>ASSIGN  11821>>ASSIGN  11823<<ASSIGN
     11823>>ASSIGN  11824>>ASSIGN
SYSLOG
     10979**DCL     11718<>CALL    11718--CALL
SYSLOG.ERRLOG.DATA
     11096**DCL     11715<<ASSIGN  11718--CALL
SYSLOG.ERRLOG.DATA_SIZE
PL6.E3A0      #008=GJA$NETWORK_MANAGER File=GJA$SUBS.:E05TSI                     TUE 07/29/97 21:57 Page:240
     11094**DCL     11714<<ASSIGN  11718>>CALL
SYSLOG.ERRLOG.ERRCODE.ERR#
     11052**DCL     11713<<ASSIGN
SYSLOG.ERRLOG.TERMID
     11076**DCL     11716<<ASSIGN
SYSLOG.ERRLOG.TERMID.TERM
     11078**DCL     11087--REDEF
SYSLOG.ERRLOG.VALUES
     11090**DCL     11717<<ASSIGN
TERMID
     11578**DCL     11656<<ASSIGN  11663>>IF
TERMID.TERM
     11582**DCL     11591--REDEF
TERMID.TERM.CHANNEL
     11588**DCL     11660<<ASSIGN
TERMID.TERM.TERM_NAME
     11591**DCL     11658>>IF
TERMID.TTYP
     11582**DCL     11657<<ASSIGN
TEXT.C
     10821**DCL     11723>>ASSIGN  11726>>ASSIGN  11729>>ASSIGN  11743>>ASSIGN  11754>>ASSIGN  11770>>ASSIGN
     11777>>ASSIGN  11783>>ASSIGN
TEXT.L
     10820**DCL     10821--IMP-SIZ 11722>>ASSIGN  11723>>ASSIGN  11725>>ASSIGN  11726>>ASSIGN  11728>>ASSIGN
     11729>>ASSIGN  11742>>ASSIGN  11743>>ASSIGN  11753>>ASSIGN  11754>>ASSIGN  11769>>ASSIGN  11770>>ASSIGN
     11776>>ASSIGN  11777>>ASSIGN  11782>>ASSIGN  11783>>ASSIGN
TMP$
     10802**DCL     11817<<ASSIGN  11818>>DOWHILE 11819<<ASSIGN  11819>>ASSIGN  11821>>ASSIGN

PL6.E3A0      #009=GJA$CONFIG File=GJA$SUBS.:E05TSI                              TUE 07/29/97 21:57 Page:241
     1278        1        /*T***********************************************************/
     1279        2        /*T*                                                         */
     1280        3        /*T* Copyright (c) Bull HN Information Systems Inc., 1997    */
     1281        4        /*T*                                                         */
     1282        5        /*T***********************************************************/
     1283        6        /*X* DMR,PLM=5,IND=5,CTI=5,SDI=5,MCL=10,CSI=0,ECI=0 */
     1284        7        GJA$CONFIG: PROC;
     1285        8
     1286        9        /* Include files */
     1287       10        %INCLUDE LCP_6;
     1288     4289        %INCLUDE KL_CONTROL_C;
     1289     4669        %INCLUDE KL_SUPER_C;
     1290     7571        %INCLUDE KL_MACRO_C;
     1291    10923        %INCLUDE KL_AFCN_C;
     1292    11024
     1293    11025        /* Symrefs */
     1294    11026    1   DCL G$DS1$ PTR SYMREF;
     1295    11027    1   DCL GJA_LINE_HEAD$ PTR SYMREF;
     1296    11028    1   DCL GJA_CHNRSP_HEAD$ PTR SYMREF;
     1297    11029
     1298    11030        /* Auto */
     1299    11031    1   DCL I SBIN;
     1300    11032    1   DCL LNK$ PTR;
     1301    11033    1   DCL CNFG$ PTR;
     1302    11034    1   DCL SIZE UBIN;
     1303    11035    1   DCL LNKSIZE UBIN;
     1304    11036    1   DCL SUB$ PTR;
     1305    11037    1   DCL SUBSIZE UBIN;
     1306    11038    1   DCL ENDCNFG$ PTR;
     1307    11039    1   DCL LINE$ PTR;
     1308    11040    1   DCL NSUBLKS UBIN;
     1309    11041    1   DCL CHNRSP$ PTR;
     1310    11042        %KL_NA_INFO (FPTN=NA,STCLASS=AUTO);
     1311    11091        %KL_HNDCMN_INFO (FPTN=HNDCMN,STCLASS=AUTO);
     1312    11171        %B$TERMINAL_ID (FPTN=TERMID);
     1313    11200
     1314    11201        /* Based */
PL6.E3A0      #009=GJA$CONFIG File=GJA$SUBS.:E05TSI                              TUE 07/29/97 21:57 Page:242
     1315    11202    1   DCL B$DWORD UBIN(32) BASED;
     1316    11203    1   DCL B$WORD UBIN BASED;
     1317    11204    1   DCL B$PTR$ PTR BASED;
     1318    11205    1   DCL STRUCT CHAR(SIZE) BASED;
     1319    11206        %KL_LNK (NAME=KL$LNK,STCLASS=BASED);
     1320    11430        %KL_LNKVC (NAME=KL$LNKVC,STCLASS=BASED);
     1321    11654        %KL_CHNRSP (FPTN=KL$CHNRSP,STCLASS=BASED,MSGSIZE=2);
     1322    11874
     1323    11875        /* Entry references */
     1324    11876    1   DCL GJA$UPDATE_CHNTBL ENTRY(3) ALTRET;
     1325    11877    1   DCL KVB$GETSYS ENTRY(2) ALTRET;
     1326    11878        %EJECT;
PL6.E3A0      #009=GJA$CONFIG File=GJA$SUBS.:E05TSI                              TUE 07/29/97 21:57 Page:243
     1327    11879    1        CNFG$ = PINCRW(G$DS1$,PINCRW(G$DS1$,(G$DS1$->B$DWORD+1)*2)->B$DWORD);
     1328    11880    1        ENDCNFG$ = PINCRW(CNFG$,CNFG$->B$WORD);
     1329    11881    1        CNFG$ = PINCRW(CNFG$,1);           /* get past size */
     1330    11882
     1331    11883    2        DO WHILE (CNFG$ < ENDCNFG$);
     1332    11884
     1333    11885    2             LNK$ = PINCRW(CNFG$,1);
     1334    11886    2             LNKSIZE = CNFG$->B$WORD;
     1335    11887    2             CNFG$ = PINCRW(CNFG$,LNKSIZE+1);
     1336    11888    2             SIZE = LNKSIZE + SIZEW(KL$CHNRSP);
     1337    11889    2             NSUBLKS = LNK$->KL$LNK.BLKHDR.NSUBS;
     1338    11890    2             SUB$ = PINCRW(LNK$,LNKSIZE);
     1339    11891
     1340    11892    3             DO I = 1 TO NSUBLKS;
     1341    11893    3                  SUBSIZE = SUB$->B$WORD + 1;
     1342    11894    3                  CNFG$ = PINCRW(CNFG$,SUBSIZE);
     1343    11895    3                  SIZE = SIZE + SUBSIZE;
     1344    11896    3                  SUB$ = PINCRW(SUB$,SUBSIZE);
     1345    11897    3                END;
     1346    11898    2             SIZE = SIZE + SIZEC(B$PTR$) + SIZEW(B$WORD);; /* Leave room for link */
     1347    11899    2             CALL KVB$GETSYS (SIZE,LINE$)
     1348    11900    3             WHENALTRETURN DO;
     1349    11901    3                  CALL M$XXX;
     1350    11902    3                END;
     1351    11903        /* Link it on the chain */
     1352    11904    2             LINE$->B$PTR$ = GJA_LINE_HEAD$;
     1353    11905    2             GJA_LINE_HEAD$ = LINE$;
     1354    11906
     1355    11907    2             CHNRSP$ = PINCRW(LNK$,SIZEW(KL$LNK));
     1356    11908    2             LINE$ = PINCRW(LINE$,SIZEW(B$PTR$));
     1357    11909    2             LINE$->B$WORD = SIZE;
     1358    11910    2             LINE$ = PINCRW(LINE$,SIZEW(B$WORD));
     1359    11911    2             LINE$->KL$CHNRSP = CHNRSP$->KL$CHNRSP;
     1360    11912    2             LINE$->KL$CHNRSP.MESSAGE.MSGSIZE = SIZE*2 - SIZEC(KL$CHNRSP) - 4;
     1361    11913    2             LINE$->KL$CHNRSP.LINE_PROFILE = '1'B;
     1362    11914        /* Move in the LNK infomation */
     1363    11915    2             SIZE = LNKSIZE * 2;
PL6.E3A0      #009=GJA$CONFIG File=GJA$SUBS.:E05TSI                              TUE 07/29/97 21:57 Page:244
     1364    11916    2             LINE$ = PINCRW(LINE$,SIZEW(KL$CHNRSP)-SIZEW(KL$CHNRSP.MESSAGE.MESSAGE));
     1365    11917    2             LINE$->STRUCT = LNK$->STRUCT;
     1366    11918    2             LINE$ = PINCRW(LINE$,LNKSIZE);
     1367    11919
     1368    11920        /* Move in the sublock info pulling out the CHNRSP as we go along */
     1369    11921    2             SUB$ = PINCRW(LNK$,LNKSIZE);
     1370    11922    2             NA = CHNRSP$->KL$CHNRSP.NA;
     1371    11923    2             HNDCMN = CHNRSP$->KL$CHNRSP.HNDCMN;
     1372    11924    2             TERMID = CHNRSP$->KL$CHNRSP.TERMINAL_ID;
     1373    11925    2             CALL GJA$UPDATE_CHNTBL(NA,TERMID,HNDCMN);
     1374    11926
     1375    11927    3             DO I = 1 TO NSUBLKS;
     1376    11928    3                  SUBSIZE = SUB$->B$WORD;
     1377    11929    3                  SUB$ = PINCRW(SUB$,1);
     1378    11930    3                  SIZE = SUBSIZE * 2;
     1379    11931    3                  LINE$->STRUCT = SUB$->STRUCT;
     1380    11932    3                  CALL KVB$GETSYS(SIZEC(KL$CHNRSP)+2,CHNRSP$);
     1381    11933    3                  CHNRSP$->B$PTR$ = GJA_CHNRSP_HEAD$;
     1382    11934    3                  GJA_CHNRSP_HEAD$ = CHNRSP$;
     1383    11935    3                  PINCRW(CHNRSP$,SIZEW(B$PTR$))->KL$CHNRSP = PINCRW(SUB$,SIZEW(KL$LNKVC
             11935                           ))->KL$CHNRSP;
     1384    11936    3                  SUB$ = PINCRW(SUB$,SUBSIZE);
     1385    11937    3                  LINE$ = PINCRW(LINE$,SUBSIZE);
     1386    11938    3                END;
     1387    11939    2           END;
     1388    11940
     1389    11941    1        RETURN;
     1390    11942
     1391    11943    1   END GJA$CONFIG;
     1392    11944        %EOD;

PL6.E3A0      #009=GJA$CONFIG File=GJA$SUBS.:E05TSI                              TUE 07/29/97 21:57 Page:245
--  Include file information  --

   KL_AFCN_C.:E05TOU  is referenced.
   KL_MACRO_C.:E05TOU  is referenced.
   KL_SUPER_C.:E05TOU  is referenced.
   KL_CONTROL_C.:E05TOU  is referenced.
   G_LCP6_E.:E05TOU  is referenced.
   GT_LCP6_M.:E05TOU  is referenced.
   KI_CP6.:E05TOU  is referenced.
   GF_LCP6_M.:E05TOU  is referenced.
   GM_LCP6_M.:E05TOU  is referenced.
   GU_LCP6_M.:E05TOU  is referenced.
   GJ_LCP6_M.:E05TOU  is referenced.
   GH_LCP6_M.:E05TOU  is referenced.
   LCP_6.:E05TOU  cannot be made into a system file and is referenced.
      No diagnostics issued in procedure GJA$CONFIG.

   Procedure GJA$CONFIG requires 350 words for executable code.
   Procedure GJA$CONFIG requires 48 words of local(AUTO) storage.

PL6.E3A0      #009=GJA$CONFIG File=GJA$SUBS.:E05TSI                              TUE 07/29/97 21:57 Page:246

 Object Unit name= GJA$CONFIG                                 File name= GJA$SUBS.:E05TOU
 UTS= JUL 29 '97 21:57:49.16 TUE                              Compiler= PL-6/E31         Sev=      00
 SharedLib= :SHARED_LCP6_SYSTEM                               Alt SharedLib=


    ****  Control sections  ****

 Sect   Type Bound  Init  Size HexSiz  Section name
    0   Proc  even  none   350    15E  GJA$CONFIG

    ****  Entry defs  ****

                              Check   Calling
                             calling  sequence
  Sect HexLoc Primary Altret sequence   type   Parms  Name
     0      0   yes            yes      Std        0  GJA$CONFIG

  ****  Entry refs  ****

         Check        Calling
        calling       sequence
Altret sequence SRef   type   Args  Name
 yes     yes           Std       2 KVB$GETSYS
 yes     yes           Std       3 GJA$UPDATE_CHNTBL
                       nStd      0 X6A_AUTO_0
                       nStd      0 X6A_ARET

  ****  Data refs  ****

  Flags:  r = read only, s = secondary
Flgs Name                             Flgs Name                             Flgs Name
     G$DS1$                                GJA_LINE_HEAD$                        GJA_CHNRSP_HEAD$
r    G$ROS$
PL6.E3A0      #009=GJA$CONFIG File=GJA$SUBS.:E05TSI                              TUE 07/29/97 21:57 Page:247


     1278        1        /*T***********************************************************/
     1279        2        /*T*                                                         */
     1280        3        /*T* Copyright (c) Bull HN Information Systems Inc., 1997    */
     1281        4        /*T*                                                         */
     1282        5        /*T***********************************************************/
     1283        6        /*X* DMR,PLM=5,IND=5,CTI=5,SDI=5,MCL=10,CSI=0,ECI=0 */
     1284        7        GJA$CONFIG: PROC;

      7   0 000000  D380 0000 0000  xent GJA$CONFIG      LNJ,B5   X6A_AUTO_0
          0 000003       0030 0000                       DC       48,0

     1285        8
     1286        9        /* Include files */
     1287       10        %INCLUDE LCP_6;
     1288     4289        %INCLUDE KL_CONTROL_C;
     1289     4669        %INCLUDE KL_SUPER_C;
     1290     7571        %INCLUDE KL_MACRO_C;
     1291    10923        %INCLUDE KL_AFCN_C;
     1292    11024
     1293    11025        /* Symrefs */
     1294    11026    1   DCL G$DS1$ PTR SYMREF;
     1295    11027    1   DCL GJA_LINE_HEAD$ PTR SYMREF;
     1296    11028    1   DCL GJA_CHNRSP_HEAD$ PTR SYMREF;
     1297    11029
     1298    11030        /* Auto */
     1299    11031    1   DCL I SBIN;
     1300    11032    1   DCL LNK$ PTR;
     1301    11033    1   DCL CNFG$ PTR;
     1302    11034    1   DCL SIZE UBIN;
     1303    11035    1   DCL LNKSIZE UBIN;
     1304    11036    1   DCL SUB$ PTR;
     1305    11037    1   DCL SUBSIZE UBIN;
     1306    11038    1   DCL ENDCNFG$ PTR;
     1307    11039    1   DCL LINE$ PTR;
     1308    11040    1   DCL NSUBLKS UBIN;
     1309    11041    1   DCL CHNRSP$ PTR;
PL6.E3A0      #009=GJA$CONFIG File=GJA$SUBS.:E05TSI                              TUE 07/29/97 21:57 Page:248
     1310    11042        %KL_NA_INFO (FPTN=NA,STCLASS=AUTO);
     1311    11091        %KL_HNDCMN_INFO (FPTN=HNDCMN,STCLASS=AUTO);
     1312    11171        %B$TERMINAL_ID (FPTN=TERMID);
     1313    11200
     1314    11201        /* Based */
     1315    11202    1   DCL B$DWORD UBIN(32) BASED;
     1316    11203    1   DCL B$WORD UBIN BASED;
     1317    11204    1   DCL B$PTR$ PTR BASED;
     1318    11205    1   DCL STRUCT CHAR(SIZE) BASED;
     1319    11206        %KL_LNK (NAME=KL$LNK,STCLASS=BASED);
     1320    11430        %KL_LNKVC (NAME=KL$LNKVC,STCLASS=BASED);
     1321    11654        %KL_CHNRSP (FPTN=KL$CHNRSP,STCLASS=BASED,MSGSIZE=2);
     1322    11874
     1323    11875        /* Entry references */
     1324    11876    1   DCL GJA$UPDATE_CHNTBL ENTRY(3) ALTRET;
     1325    11877    1   DCL KVB$GETSYS ENTRY(2) ALTRET;
     1326    11878        %EJECT;
PL6.E3A0      #009=GJA$CONFIG File=GJA$SUBS.:E05TSI                              TUE 07/29/97 21:57 Page:249
     1327    11879    1        CNFG$ = PINCRW(G$DS1$,PINCRW(G$DS1$,(G$DS1$->B$DWORD+1)*2)->B$DWORD);

  11879   0 000005  EC80 0000 0000  xsym                 LDB,B6   G$DS1$
          0 000008  8C86                                 LDI      ,B6
          0 000009  7081                                 DOL,R7   1
          0 00000A  8400 0000 0000  xsym                 AID      G$DS1$
          0 00000D  8470 0000 0002                       AID      2,IMO
          0 000010  8D47 002A                            SDI      TERMID+8,AUTO
          0 000012  DCC7 002A                            LDB,B5   TERMID+8,AUTO
          0 000014  8C85                                 LDI      ,B5
          0 000015  8400 0000 0000  xsym                 AID      G$DS1$
          0 000018  8D47 0007                            SDI      CNFG$,AUTO

     1328    11880    1        ENDCNFG$ = PINCRW(CNFG$,CNFG$->B$WORD);

  11880   0 00001A  DCC7 0007                            LDB,B5   CNFG$,AUTO
          0 00001C  B805                                 LDR,R3   ,B5
          0 00001D  F853                                 LDR,R7   R3
          0 00001E  6C00                                 LDV,R6   0
          0 00001F  8447 0007                            AID      CNFG$,AUTO
          0 000021  8D47 000E                            SDI      ENDCNFG$,AUTO

     1329    11881    1        CNFG$ = PINCRW(CNFG$,1);           /* get past size */

  11881   0 000023  CBC5 0001                            LAB,B4   1,B5
          0 000025  CFC7 0007                            STB,B4   CNFG$,AUTO

     1330    11882
     1331    11883    2        DO WHILE (CNFG$ < ENDCNFG$);

  11883   0 000027  CDC7 000E                            CMB,B4   ENDCNFG$,AUTO
          0 000029  0281 0131                            BGE      s:11941,PREL

     1332    11884
     1333    11885    2             LNK$ = PINCRW(CNFG$,1);

  11885   0 00002B  ECC7 0007                            LDB,B6   CNFG$,AUTO
PL6.E3A0      #009=GJA$CONFIG File=GJA$SUBS.:E05TSI                              TUE 07/29/97 21:57 Page:250
          0 00002D  DBC6 0001                            LAB,B5   1,B6
          0 00002F  DFC7 0005                            STB,B5   LNK$,AUTO

     1334    11886    2             LNKSIZE = CNFG$->B$WORD;

  11886   0 000031  E806                                 LDR,R6   ,B6
          0 000032  EF47 000A                            STR,R6   LNKSIZE,AUTO

     1335    11887    2             CNFG$ = PINCRW(CNFG$,LNKSIZE+1);

  11887   0 000034  F856                                 LDR,R7   R6
          0 000035  6C00                                 LDV,R6   0
          0 000036  8447 0007                            AID      CNFG$,AUTO
          0 000038  8470 0000 0001                       AID      1,IMO
          0 00003B  8D47 0007                            SDI      CNFG$,AUTO

     1336    11888    2             SIZE = LNKSIZE + SIZEW(KL$CHNRSP);

  11888   0 00003D  D847 000A                            LDR,R5   LNKSIZE,AUTO
          0 00003F  5E1C                                 ADV,R5   28
          0 000040  DF47 0009                            STR,R5   SIZE,AUTO

     1337    11889    2             NSUBLKS = LNK$->KL$LNK.BLKHDR.NSUBS;

  11889   0 000042  C805                                 LDR,R4   ,B5
          0 000043  C570 00FF                            AND,R4   255,IMO
          0 000045  CF47 0012                            STR,R4   NSUBLKS,AUTO

     1338    11890    2             SUB$ = PINCRW(LNK$,LNKSIZE);

  11890   0 000047  F847 000A                            LDR,R7   LNKSIZE,AUTO
          0 000049  6C00                                 LDV,R6   0
          0 00004A  8447 0005                            AID      LNK$,AUTO
          0 00004C  8D47 000B                            SDI      SUB$,AUTO

     1339    11891
     1340    11892    3             DO I = 1 TO NSUBLKS;
PL6.E3A0      #009=GJA$CONFIG File=GJA$SUBS.:E05TSI                              TUE 07/29/97 21:57 Page:251

  11892   0 00004E  3C01                                 LDV,R3   1
          0 00004F  BF47 0004                            STR,R3   I,AUTO
          0 000051  0F81 001C                            B        s:11897+2,PREL

     1341    11893    3                  SUBSIZE = SUB$->B$WORD + 1;

  11893   0 000053  ECC7 000B                            LDB,B6   SUB$,AUTO
          0 000055  E806                                 LDR,R6   ,B6
          0 000056  6E01                                 ADV,R6   1
          0 000057  EF47 000D                            STR,R6   SUBSIZE,AUTO

     1342    11894    3                  CNFG$ = PINCRW(CNFG$,SUBSIZE);

  11894   0 000059  F856                                 LDR,R7   R6
          0 00005A  6C00                                 LDV,R6   0
          0 00005B  8447 0007                            AID      CNFG$,AUTO
          0 00005D  8D47 0007                            SDI      CNFG$,AUTO

     1343    11895    3                  SIZE = SIZE + SUBSIZE;

  11895   0 00005F  D847 0009                            LDR,R5   SIZE,AUTO
          0 000061  DA47 000D                            ADD,R5   SUBSIZE,AUTO
          0 000063  DF47 0009                            STR,R5   SIZE,AUTO

     1344    11896    3                  SUB$ = PINCRW(SUB$,SUBSIZE);

  11896   0 000065  F847 000D                            LDR,R7   SUBSIZE,AUTO
          0 000067  6C00                                 LDV,R6   0
          0 000068  8447 000B                            AID      SUB$,AUTO
          0 00006A  8D47 000B                            SDI      SUB$,AUTO

     1345    11897    3                END;

  11897   0 00006C  8AC7 0004                            INC      I,AUTO
          0 00006E  C847 0004                            LDR,R4   I,AUTO
          0 000070  4863                                 BLZ,R4   s:11893,SPREL
PL6.E3A0      #009=GJA$CONFIG File=GJA$SUBS.:E05TSI                              TUE 07/29/97 21:57 Page:252
          0 000071  C947 0012                            CMR,R4   NSUBLKS,AUTO
          0 000073  03E0                                 BLE      s:11893,SPREL

     1346    11898    2             SIZE = SIZE + SIZEC(B$PTR$) + SIZEW(B$WORD);; /* Leave room for link */

  11898   0 000074  5E05                                 ADV,R5   5
          0 000075  DF47 0009                            STR,R5   SIZE,AUTO

     1347    11899    2             CALL KVB$GETSYS (SIZE,LINE$)

  11899   0 000077  EBC7 0010                            LAB,B6   LINE$,AUTO
          0 000079  EFC7 002C                            STB,B6   TERMID+10,AUTO
          0 00007B  DBC7 0009                            LAB,B5   SIZE,AUTO
          0 00007D  DFC7 002A                            STB,B5   TERMID+8,AUTO
          0 00007F  BBC7 002A                            LAB,B3   TERMID+8,AUTO
          0 000081  CBF0 0200                            LAB,B4   512,IMO
          0 000083  E380 0000 0000  xent                 LNJ,B6   KVB$GETSYS
          0 000086       0003                            DC       s:11901,PREL
          0 000087  0F81 0005                            B        s:11904,PREL

     1348    11900    3             WHENALTRETURN DO;

     1349    11901    3                  CALL M$XXX;

  11901   0 000089  B870 0082                            LDR,R3   130,IMO
          0 00008B  0001                                 MCL
          0 00008C       0000                            DC       s:11901+3,PREL

     1350    11902    3                END;

     1351    11903        /* Link it on the chain */
     1352    11904    2             LINE$->B$PTR$ = GJA_LINE_HEAD$;

  11904   0 00008D  EC80 0000 0000  xsym                 LDB,B6   GJA_LINE_HEAD$
          0 000090  DCC7 0010                            LDB,B5   LINE$,AUTO
          0 000092  EF85                                 STB,B6   ,B5

PL6.E3A0      #009=GJA$CONFIG File=GJA$SUBS.:E05TSI                              TUE 07/29/97 21:57 Page:253
     1353    11905    2             GJA_LINE_HEAD$ = LINE$;

  11905   0 000093  ECC7 0010                            LDB,B6   LINE$,AUTO
          0 000095  EF80 0000 0000  xsym                 STB,B6   GJA_LINE_HEAD$

     1354    11906
     1355    11907    2             CHNRSP$ = PINCRW(LNK$,SIZEW(KL$LNK));

  11907   0 000098  DCC7 0005                            LDB,B5   LNK$,AUTO
          0 00009A  CBC5 0018                            LAB,B4   24,B5
          0 00009C  CFC7 0013                            STB,B4   CHNRSP$,AUTO

     1356    11908    2             LINE$ = PINCRW(LINE$,SIZEW(B$PTR$));

  11908   0 00009E  BBC6 0002                            LAB,B3   2,B6
          0 0000A0  BFC7 0010                            STB,B3   LINE$,AUTO

     1357    11909    2             LINE$->B$WORD = SIZE;

  11909   0 0000A2  E847 0009                            LDR,R6   SIZE,AUTO
          0 0000A4  EF03                                 STR,R6   ,B3

     1358    11910    2             LINE$ = PINCRW(LINE$,SIZEW(B$WORD));

  11910   0 0000A5  ECC7 0010                            LDB,B6   LINE$,AUTO
          0 0000A7  CBC6 0001                            LAB,B4   1,B6
          0 0000A9  CFC7 0010                            STB,B4   LINE$,AUTO

     1359    11911    2             LINE$->KL$CHNRSP = CHNRSP$->KL$CHNRSP;

  11911   0 0000AB  ACC7 0013                            LDB,B2   CHNRSP$,AUTO
          0 0000AD  2C00                                 LDV,R2   0
          0 0000AE  6C38                                 LDV,R6   56
          0 0000AF  BB84                                 LAB,B3   ,B4
          0 0000B0  3C00                                 LDV,R3   0
          0 0000B1  0008                                 MMM

PL6.E3A0      #009=GJA$CONFIG File=GJA$SUBS.:E05TSI                              TUE 07/29/97 21:57 Page:254
     1360    11912    2             LINE$->KL$CHNRSP.MESSAGE.MSGSIZE = SIZE*2 - SIZEC(KL$CHNRSP) - 4;

  11912   0 0000B2  ECC7 0010                            LDB,B6   LINE$,AUTO
          0 0000B4  E847 0009                            LDR,R6   SIZE,AUTO
          0 0000B6  6001                                 SOL,R6   1
          0 0000B7  6EC4                                 ADV,R6   -60
          0 0000B8  EF46 001A                            STR,R6   26,B6

     1361    11913    2             LINE$->KL$CHNRSP.LINE_PROFILE = '1'B;

  11913   0 0000BA  8906                                 LBT,'0080'X       ,B6
  11913   0 0000BB       0080

     1362    11914        /* Move in the LNK infomation */
     1363    11915    2             SIZE = LNKSIZE * 2;

  11915   0 0000BC  E847 000A                            LDR,R6   LNKSIZE,AUTO
          0 0000BE  6001                                 SOL,R6   1
          0 0000BF  EF47 0009                            STR,R6   SIZE,AUTO

     1364    11916    2             LINE$ = PINCRW(LINE$,SIZEW(KL$CHNRSP)-SIZEW(KL$CHNRSP.MESSAGE.MESSAGE));

  11916   0 0000C1  ECC7 0010                            LDB,B6   LINE$,AUTO
          0 0000C3  DBC6 001B                            LAB,B5   27,B6
          0 0000C5  DFC7 0010                            STB,B5   LINE$,AUTO

     1365    11917    2             LINE$->STRUCT = LNK$->STRUCT;

  11917   0 0000C7  ACC7 0005                            LDB,B2   LNK$,AUTO
          0 0000C9  2C00                                 LDV,R2   0
          0 0000CA  BB85                                 LAB,B3   ,B5
          0 0000CB  3C00                                 LDV,R3   0
          0 0000CC  0008                                 MMM

     1366    11918    2             LINE$ = PINCRW(LINE$,LNKSIZE);

  11918   0 0000CD  F847 000A                            LDR,R7   LNKSIZE,AUTO
PL6.E3A0      #009=GJA$CONFIG File=GJA$SUBS.:E05TSI                              TUE 07/29/97 21:57 Page:255
          0 0000CF  6C00                                 LDV,R6   0
          0 0000D0  8447 0010                            AID      LINE$,AUTO
          0 0000D2  8D47 0010                            SDI      LINE$,AUTO

     1367    11919
     1368    11920        /* Move in the sublock info pulling out the CHNRSP as we go along */
     1369    11921    2             SUB$ = PINCRW(LNK$,LNKSIZE);

  11921   0 0000D4  F847 000A                            LDR,R7   LNKSIZE,AUTO
          0 0000D6  6C00                                 LDV,R6   0
          0 0000D7  8447 0005                            AID      LNK$,AUTO
          0 0000D9  8D47 000B                            SDI      SUB$,AUTO

     1370    11922    2             NA = CHNRSP$->KL$CHNRSP.NA;

  11922   0 0000DB  ACC7 0013                            LDB,B2   CHNRSP$,AUTO
          0 0000DD  2C1A                                 LDV,R2   26
          0 0000DE  6C08                                 LDV,R6   8
          0 0000DF  BB87                                 LAB,B3   ,AUTO
          0 0000E0  3C2A                                 LDV,R3   42
          0 0000E1  0008                                 MMM

     1371    11923    2             HNDCMN = CHNRSP$->KL$CHNRSP.HNDCMN;

  11923   0 0000E2  ACC7 0013                            LDB,B2   CHNRSP$,AUTO
          0 0000E4  2C22                                 LDV,R2   34
          0 0000E5  6C12                                 LDV,R6   18
          0 0000E6  BB87                                 LAB,B3   ,AUTO
          0 0000E7  3C32                                 LDV,R3   50
          0 0000E8  0008                                 MMM

     1372    11924    2             TERMID = CHNRSP$->KL$CHNRSP.TERMINAL_ID;

  11924   0 0000E9  ACC7 0013                            LDB,B2   CHNRSP$,AUTO
          0 0000EB  2C0A                                 LDV,R2   10
          0 0000EC  6C10                                 LDV,R6   16
          0 0000ED  BB87                                 LAB,B3   ,AUTO
PL6.E3A0      #009=GJA$CONFIG File=GJA$SUBS.:E05TSI                              TUE 07/29/97 21:57 Page:256
          0 0000EE  3C44                                 LDV,R3   68
          0 0000EF  0008                                 MMM

     1373    11925    2             CALL GJA$UPDATE_CHNTBL(NA,TERMID,HNDCMN);

  11925   0 0000F0  EBC7 0019                            LAB,B6   HNDCMN,AUTO
          0 0000F2  EFC7 002E                            STB,B6   TERMID+12,AUTO
          0 0000F4  ABC7 0022                            LAB,B2   TERMID,AUTO
          0 0000F6  AFC7 002C                            STB,B2   TERMID+10,AUTO
          0 0000F8  9BC7 0015                            LAB,B1   NA,AUTO
          0 0000FA  9FC7 002A                            STB,B1   TERMID+8,AUTO
          0 0000FC  BBC7 002A                            LAB,B3   TERMID+8,AUTO
          0 0000FE  CBF0 0300                            LAB,B4   768,IMO
          0 000100  E380 0000 0000  xent                 LNJ,B6   GJA$UPDATE_CHNTBL
          0 000103       0001                            DC       s:11927,PREL

     1374    11926
     1375    11927    3             DO I = 1 TO NSUBLKS;

  11927   0 000104  6C01                                 LDV,R6   1
          0 000105  EF47 0004                            STR,R6   I,AUTO
          0 000107  0F81 0045                            B        s:11938+2,PREL

     1376    11928    3                  SUBSIZE = SUB$->B$WORD;

  11928   0 000109  ECC7 000B                            LDB,B6   SUB$,AUTO
          0 00010B  E806                                 LDR,R6   ,B6
          0 00010C  EF47 000D                            STR,R6   SUBSIZE,AUTO

     1377    11929    3                  SUB$ = PINCRW(SUB$,1);

  11929   0 00010E  DBC6 0001                            LAB,B5   1,B6
          0 000110  DFC7 000B                            STB,B5   SUB$,AUTO

     1378    11930    3                  SIZE = SUBSIZE * 2;

  11930   0 000112  6001                                 SOL,R6   1
PL6.E3A0      #009=GJA$CONFIG File=GJA$SUBS.:E05TSI                              TUE 07/29/97 21:57 Page:257
          0 000113  EF47 0009                            STR,R6   SIZE,AUTO

     1379    11931    3                  LINE$->STRUCT = SUB$->STRUCT;

  11931   0 000115  AB85                                 LAB,B2   ,B5
          0 000116  2C00                                 LDV,R2   0
          0 000117  BCC7 0010                            LDB,B3   LINE$,AUTO
          0 000119  3C00                                 LDV,R3   0
          0 00011A  0008                                 MMM

     1380    11932    3                  CALL KVB$GETSYS(SIZEC(KL$CHNRSP)+2,CHNRSP$);

  11932   0 00011B  EBF0 003A                            LAB,B6   58,IMO
          0 00011D  CBC7 0013                            LAB,B4   CHNRSP$,AUTO
          0 00011F  CFC7 002C                            STB,B4   TERMID+10,AUTO
          0 000121  EFC7 002A                            STB,B6   TERMID+8,AUTO
          0 000123  BBC7 002A                            LAB,B3   TERMID+8,AUTO
          0 000125  CBF0 0200                            LAB,B4   512,IMO
          0 000127  E380 0000 0000  xent                 LNJ,B6   KVB$GETSYS
          0 00012A       0001                            DC       s:11933,PREL

     1381    11933    3                  CHNRSP$->B$PTR$ = GJA_CHNRSP_HEAD$;

  11933   0 00012B  EC80 0000 0000  xsym                 LDB,B6   GJA_CHNRSP_HEAD$
          0 00012E  DCC7 0013                            LDB,B5   CHNRSP$,AUTO
          0 000130  EF85                                 STB,B6   ,B5

     1382    11934    3                  GJA_CHNRSP_HEAD$ = CHNRSP$;

  11934   0 000131  ECC7 0013                            LDB,B6   CHNRSP$,AUTO
          0 000133  EF80 0000 0000  xsym                 STB,B6   GJA_CHNRSP_HEAD$

     1383    11935    3                 PINCRW(CHNRSP$,SIZEW(B$PTR$))->KL$CHNRSP = PINCRW(SUB$,SIZEW(KL$LNKVC
             11935                           ))->KL$CHNRSP;

  11935   0 000136  ACC7 000B                            LDB,B2   SUB$,AUTO
          0 000138  2C30                                 LDV,R2   48
PL6.E3A0      #009=GJA$CONFIG File=GJA$SUBS.:E05TSI                              TUE 07/29/97 21:57 Page:258
          0 000139  6C38                                 LDV,R6   56
          0 00013A  BB86                                 LAB,B3   ,B6
          0 00013B  3C04                                 LDV,R3   4
          0 00013C  0008                                 MMM

     1384    11936    3                  SUB$ = PINCRW(SUB$,SUBSIZE);

  11936   0 00013D  F847 000D                            LDR,R7   SUBSIZE,AUTO
          0 00013F  6C00                                 LDV,R6   0
          0 000140  8447 000B                            AID      SUB$,AUTO
          0 000142  8D47 000B                            SDI      SUB$,AUTO

     1385    11937    3                  LINE$ = PINCRW(LINE$,SUBSIZE);

  11937   0 000144  F847 000D                            LDR,R7   SUBSIZE,AUTO
          0 000146  6C00                                 LDV,R6   0
          0 000147  8447 0010                            AID      LINE$,AUTO
          0 000149  8D47 0010                            SDI      LINE$,AUTO

     1386    11938    3                END;

  11938   0 00014B  8AC7 0004                            INC      I,AUTO
          0 00014D  E847 0004                            LDR,R6   I,AUTO
          0 00014F  6801 FFB9                            BLZ,R6   s:11928,PREL
          0 000151  E947 0012                            CMR,R6   NSUBLKS,AUTO
          0 000153  0381 FFB5                            BLE      s:11928,PREL

     1387    11939    2           END;

  11939   0 000155  ECC7 0007                            LDB,B6   CNFG$,AUTO
          0 000157  EDC7 000E                            CMB,B6   ENDCNFG$,AUTO
          0 000159  0201 FED1                            BL       s:11885,PREL

     1388    11940
     1389    11941    1        RETURN;

  11941   0 00015B  C380 0000 0000  xent                 LNJ,B4   X6A_ARET
PL6.E3A0      #009=GJA$CONFIG File=GJA$SUBS.:E05TSI                              TUE 07/29/97 21:57 Page:259
     1390    11942
     1391    11943    1   END GJA$CONFIG;
     1392    11944        %EOD;

PL6.E3A0      #009=GJA$CONFIG File=GJA$SUBS.:E05TSI                              TUE 07/29/97 21:57 Page:260
--  Include file information  --

   KL_AFCN_C.:E05TOU  is referenced.
   KL_MACRO_C.:E05TOU  is referenced.
   KL_SUPER_C.:E05TOU  is referenced.
   KL_CONTROL_C.:E05TOU  is referenced.
   G_LCP6_E.:E05TOU  is referenced.
   GT_LCP6_M.:E05TOU  is referenced.
   KI_CP6.:E05TOU  is referenced.
   GF_LCP6_M.:E05TOU  is referenced.
   GM_LCP6_M.:E05TOU  is referenced.
   GU_LCP6_M.:E05TOU  is referenced.
   GJ_LCP6_M.:E05TOU  is referenced.
   GH_LCP6_M.:E05TOU  is referenced.
   LCP_6.:E05TOU  cannot be made into a system file and is referenced.
      No diagnostics issued in procedure GJA$CONFIG.
PL6.E3A0      #009=GJA$CONFIG File=GJA$SUBS.:E05TSI                              TUE 07/29/97 21:57 Page:261

 **** Variables and constants ****

  ****  Auto variables  ****

  ****  Scalars and arrays  ****
HexLoc.c.b A Datatyp(siz) R M Lvl/name                 HexLoc.c.b A Datatyp(siz) R M Lvl/name

    13-0-0/w PTR         r     1 CHNRSP$                    7-0-0/w PTR         r     1 CNFG$
     E-0-0/w PTR         r     1 ENDCNFG$                  19-0-0/w STRC(144)   r     1 HNDCMN
     4-0-0/w SBIN(16)    r     1 I                         10-0-0/w PTR         r     1 LINE$
     5-0-0/w PTR         r     1 LNK$                       A-0-0/w UBIN(16)    r     1 LNKSIZE
    15-0-0/c STRC(64)    r     1 NA                        12-0-0/w UBIN(16)    r     1 NSUBLKS
     9-0-0/w UBIN(16)    r     1 SIZE                       B-0-0/w PTR         r     1 SUB$
     D-0-0/w UBIN(16)    r     1 SUBSIZE                   22-0-0/c STRC(128)   r     1 TERMID

  ****  SYMREF variables  ****

  ****  Scalars and arrays  ****
HexLoc.c.b A Datatyp(siz) R M Lvl/name                 HexLoc.c.b A Datatyp(siz) R M Lvl/name

     0-0-0/w PTR         r     1 G$DS1$                     0-0-0/w PTR         r     1 GJA_CHNRSP_HEAD$
     0-0-0/w PTR         r     1 GJA_LINE_HEAD$

  ****  BASED and DCB variables  ****

  ****  Scalars and arrays  ****
HexLoc.c.b A Datatyp(siz) R M Lvl/name                 HexLoc.c.b A Datatyp(siz) R M Lvl/name

     0-0-0/w UBIN(32)    r     1 B$DWORD                    0-0-0/w PTR         r     1 B$PTR$
     0-0-0/w UBIN(16)    r     1 B$WORD                     0-0-0/w STRC(448)   r     1 KL$CHNRSP
     0-0-0/w STRC(384)   r     1 KL$LNK                     0-0-0/w STRC(384)   r     1 KL$LNKVC
     0-0-0/c ACHR        r     1 STRUCT


   Procedure GJA$CONFIG requires 350 words for executable code.
   Procedure GJA$CONFIG requires 48 words of local(AUTO) storage.
PL6.E3A0      #009=GJA$CONFIG File=GJA$SUBS.:E05TSI                              TUE 07/29/97 21:57 Page:262
          *** CROSS REFERENCE LISTING ***
**     DENOTES     IDENTIFIER DEFINITION
<<                 IDENTIFIER'S VALUE SET
>>                 IDENTIFIER'S VALUE USED
<>                 IDENTIFIER SET AND/OR USED
--                 IDENTIFIER REFERENCED
PL6.E3A0      #009=GJA$CONFIG File=GJA$SUBS.:E05TSI                              TUE 07/29/97 21:57 Page:263
          MINI XREF LISTING

B$DWORD
     11202**DCL     11879>>ASSIGN  11879>>ASSIGN
B$PTR$
     11204**DCL     11898--ASSIGN  11904<<ASSIGN  11908--ASSIGN  11933<<ASSIGN  11935--ASSIGN
B$WORD
     11203**DCL     11880>>ASSIGN  11886>>ASSIGN  11893>>ASSIGN  11898--ASSIGN  11909<<ASSIGN  11910--ASSIGN
     11928>>ASSIGN
CHNRSP$
     11041**DCL     11907<<ASSIGN  11911>>ASSIGN  11922>>ASSIGN  11923>>ASSIGN  11924>>ASSIGN  11932<>CALL
     11933>>ASSIGN  11934>>ASSIGN  11935>>ASSIGN
CNFG$
     11033**DCL     11879<<ASSIGN  11880>>ASSIGN  11880>>ASSIGN  11881<<ASSIGN  11881>>ASSIGN  11883>>DOWHILE
     11885>>ASSIGN  11886>>ASSIGN  11887<<ASSIGN  11887>>ASSIGN  11894<<ASSIGN  11894>>ASSIGN
ENDCNFG$
     11038**DCL     11880<<ASSIGN  11883>>DOWHILE
G$DS1$
     11026**DCL     11879>>ASSIGN  11879>>ASSIGN  11879>>ASSIGN
GJA$UPDATE_CHNTBL
     11876**DCL-ENT 11925--CALL
GJA_CHNRSP_HEAD$
     11028**DCL     11933>>ASSIGN  11934<<ASSIGN
GJA_LINE_HEAD$
     11027**DCL     11904>>ASSIGN  11905<<ASSIGN
HNDCMN
     11107**DCL     11923<<ASSIGN  11925<>CALL
I
     11031**DCL     11892<<DOINDEX 11927<<DOINDEX
KL$CHNRSP
     11669**DCL     11888--ASSIGN  11911<<ASSIGN  11911>>ASSIGN  11912--ASSIGN  11916--ASSIGN  11932--CALL
     11935<<ASSIGN  11935>>ASSIGN
KL$CHNRSP.HNDCMN
     11798**DCL     11923>>ASSIGN
PL6.E3A0      #009=GJA$CONFIG File=GJA$SUBS.:E05TSI                              TUE 07/29/97 21:57 Page:264
KL$CHNRSP.LINE_PROFILE
     11676**DCL     11913<<ASSIGN
KL$CHNRSP.MESSAGE.MESSAGE
     11870**DCL     11916--ASSIGN
KL$CHNRSP.MESSAGE.MSGSIZE
     11866**DCL     11912<<ASSIGN
KL$CHNRSP.NA
     11749**DCL     11922>>ASSIGN
KL$CHNRSP.TERMINAL_ID
     11718**DCL     11924>>ASSIGN
KL$CHNRSP.TERMINAL_ID.TERM
     11720**DCL     11729--REDEF
KL$LNK
     11223**DCL     11907--ASSIGN
KL$LNK.BLKHDR.NSUBS
     11256**DCL     11889>>ASSIGN
KL$LNKVC
     11445**DCL     11935--ASSIGN
KL$LNKVC.CUG
     11544**DCL     11588--REDEF
KVB$GETSYS
     11877**DCL-ENT 11899--CALL    11932--CALL
LINE$
     11039**DCL     11899<>CALL    11904>>ASSIGN  11905>>ASSIGN  11908<<ASSIGN  11908>>ASSIGN  11909>>ASSIGN
     11910<<ASSIGN  11910>>ASSIGN  11911>>ASSIGN  11912>>ASSIGN  11913>>ASSIGN  11916<<ASSIGN  11916>>ASSIGN
     11917>>ASSIGN  11918<<ASSIGN  11918>>ASSIGN  11931>>ASSIGN  11937<<ASSIGN  11937>>ASSIGN
LNK$
     11032**DCL     11885<<ASSIGN  11889>>ASSIGN  11890>>ASSIGN  11907>>ASSIGN  11917>>ASSIGN  11921>>ASSIGN
LNKSIZE
     11035**DCL     11886<<ASSIGN  11887>>ASSIGN  11888>>ASSIGN  11890>>ASSIGN  11915>>ASSIGN  11918>>ASSIGN
     11921>>ASSIGN
M$XXX
      4248**DCL-ENT 11901--CALL
NA
     11058**DCL     11922<<ASSIGN  11925<>CALL
NSUBLKS
PL6.E3A0      #009=GJA$CONFIG File=GJA$SUBS.:E05TSI                              TUE 07/29/97 21:57 Page:265
     11040**DCL     11889<<ASSIGN  11892>>DOINDEX 11927>>DOINDEX
SIZE
     11034**DCL     11205--IMP-SIZ 11888<<ASSIGN  11895<<ASSIGN  11895>>ASSIGN  11898<<ASSIGN  11898>>ASSIGN
     11899<>CALL    11909>>ASSIGN  11912>>ASSIGN  11915<<ASSIGN  11917>>ASSIGN  11917>>ASSIGN  11930<<ASSIGN
     11931>>ASSIGN  11931>>ASSIGN
STRUCT
     11205**DCL     11917<<ASSIGN  11917>>ASSIGN  11931<<ASSIGN  11931>>ASSIGN
SUB$
     11036**DCL     11890<<ASSIGN  11893>>ASSIGN  11896<<ASSIGN  11896>>ASSIGN  11921<<ASSIGN  11928>>ASSIGN
     11929<<ASSIGN  11929>>ASSIGN  11931>>ASSIGN  11935>>ASSIGN  11936<<ASSIGN  11936>>ASSIGN
SUBSIZE
     11037**DCL     11893<<ASSIGN  11894>>ASSIGN  11895>>ASSIGN  11896>>ASSIGN  11928<<ASSIGN  11930>>ASSIGN
     11936>>ASSIGN  11937>>ASSIGN
TERMID
     11185**DCL     11924<<ASSIGN  11925<>CALL
TERMID.TERM
     11189**DCL     11198--REDEF

PL6.E3A0      #010=GJA$TERM_HANDLER File=GJA$SUBS.:E05TSI                        TUE 07/29/97 21:58 Page:266
     1393        1        /*T***********************************************************/
     1394        2        /*T*                                                         */
     1395        3        /*T* Copyright (c) Bull HN Information Systems Inc., 1997    */
     1396        4        /*T*                                                         */
     1397        5        /*T***********************************************************/
     1398        6        GJA$TERM_HANDLER: PROC (CTX$);
     1399        7        /*F* NAME:     GJA$TERM_HANDLER
     1400        8
     1401        9             PURPOSE:  This route will perform all the functions needed when
     1402       10                       a handler disconnects from NA.
     1403       11
     1404       12             CALL:     CALL GJA$TERM_HANDLER(CTX$);
     1405       13          */
     1406       14        %INCLUDE GJA_MSG_M;
     1407      253        %INCLUDE GH_IOFNC_E;
     1408      322        %INCLUDE KH$CHN;
     1409      444        %INCLUDE KH$IO;
     1410      691        %INCLUDE KI_CP6;
     1411     1787        %INCLUDE KNH_MACRO_C;
     1412     2070
     1413     2071        /* Parameters */
     1414     2072    1   DCL CTX$ PTR;
     1415     2073
     1416     2074        /* Symrefs */
     1417     2075        %FPT_TERM_ACK (FPTN=GJA_TERM_ACK,STCLASS=SYMREF);
     1418     2097    1   DCL GJA_HAND_HEAD$ PTR SYMREF;
     1419     2098    1   DCL GJA_CHNLOW$ PTR SYMREF;
     1420     2099    1   DCL GJA_CHNHI$ PTR SYMREF;
     1421     2100        %KH$IO (FPTN=GJA_IO,FNC=%GH#IO_OTPCHNCTR,CHNINT=YES,STCLASS=SYMREF);
     1422     2214
     1423     2215        /* Auto */
     1424     2216    1   DCL TCTX$ PTR;
     1425     2217    1   DCL CHN$ PTR;
     1426     2218    1   DCL LVL3$ PTR;
     1427     2219    1   DCL LVL2$ PTR;
     1428     2220
     1429     2221        /* Based */
PL6.E3A0      #010=GJA$TERM_HANDLER File=GJA$SUBS.:E05TSI                        TUE 07/29/97 21:58 Page:267
     1430     2222        %GJA$HAND_CTX(STCLASS="BASED(CTX$)");
     1431     2271        %KH$CHN (STCLASS="BASED(CHN$)");
     1432     2395
     1433     2396        /* Entry references */
     1434     2397    1   DCL GJA$Q_MSG ENTRY(6);
     1435     2398    1   DCL KVB$RLSSYS ENTRY(2) ALTRET;
     1436     2399    1   DCL KHI$IO_OTP ENTRY(2) ALTRET;
     1437     2400
     1438     2401        %EJECT;
PL6.E3A0      #010=GJA$TERM_HANDLER File=GJA$SUBS.:E05TSI                        TUE 07/29/97 21:58 Page:268
     1439     2402        /* Initialize and free all channels */
     1440     2403    1        CHN$ = GJA_CHNLOW$;
     1441     2404
     1442     2405    2        DO WHILE (CHN$ <= GJA_CHNHI$);
     1443     2406    2             IF KH$CHN.SYSID = GJA$HAND_CTX.SYSID /* Owns this channel */
     1444     2407    3             THEN DO;
     1445     2408    3                  CALL KHI$IO_OTP(KH$CHN,GJA_IO);
     1446     2409    3                  KH$CHN.SYSID = 0;
     1447     2410    3                  KH$CHN.HAND$ = ADDR(NIL);
     1448     2411    3                  IF KH$CHN.SUB$ ~= ADDR(NIL) THEN
     1449     2412    4                  DO;
     1450     2413    4                       LVL2$ = KH$CHN.SUB$;
     1451     2414    5                       DO WHILE LVL2$ ~= ADDR(NIL);
     1452     2415    5                            LVL2$->KH$CHN.SYSID = 0;
     1453     2416    5                            LVL2$->KH$CHN.HAND$ = ADDR(NIL);
     1454     2417    5                            LVL3$ = LVL2$->KH$CHN.SUB$;
     1455     2418    6                            DO WHILE LVL3$ ~= ADDR(NIL);
     1456     2419    6                                 LVL3$->KH$CHN.SYSID = 0;
     1457     2420    6                                 LVL3$->KH$CHN.HAND$ = ADDR(NIL);
     1458     2421    6                                 LVL3$ = LVL3$->KH$CHN.LNK$;
     1459     2422    6                               END;
     1460     2423    5                            LVL2$ = LVL2$->KH$CHN.LNK$;
     1461     2424    5                          END;
     1462     2425    4                     END;
     1463     2426    3                END;
     1464     2427    2             CHN$ = PINCRW(CHN$,SIZEW(KH$CHN));
     1465     2428    2           END;
     1466     2429
     1467     2430        /* Send terminate ack */
     1468     2431    1        CALL GJA$Q_MSG(CTX$,,,SIZEC(GJA_TERM_ACK),GJA_TERM_ACK,%KN_FCN_TERM_ACK);
     1469     2432
     1470     2433        /* Unchain context */
     1471     2434    1        IF GJA_HAND_HEAD$ = CTX$
     1472     2435    2        THEN DO;
     1473     2436    2             GJA_HAND_HEAD$ = GJA$HAND_CTX.LNK$;
     1474     2437    2           END;
     1475     2438    2        ELSE DO;
PL6.E3A0      #010=GJA$TERM_HANDLER File=GJA$SUBS.:E05TSI                        TUE 07/29/97 21:58 Page:269
     1476     2439    2             TCTX$ = GJA_HAND_HEAD$;
     1477     2440    3             DO WHILE (TCTX$ ~= ADDR(NIL));
     1478     2441    3                  IF TCTX$->GJA$HAND_CTX.LNK$ = CTX$
     1479     2442    4                  THEN DO;
     1480     2443    4                       TCTX$->GJA$HAND_CTX.LNK$ = GJA$HAND_CTX.LNK$;
     1481     2444    4                     END;
     1482     2445    3                  TCTX$ = TCTX$->GJA$HAND_CTX.LNK$;
     1483     2446    3                END;
     1484     2447    2           END;
     1485     2448
     1486     2449        /* Release context */
     1487     2450    1        CALL KVB$RLSSYS(SIZEW(GJA$HAND_CTX),CTX$);
     1488     2451
     1489     2452    1        RETURN;
     1490     2453
     1491     2454    1   END GJA$TERM_HANDLER;
     1492     2455        %EOD;

PL6.E3A0      #010=GJA$TERM_HANDLER File=GJA$SUBS.:E05TSI                        TUE 07/29/97 21:58 Page:270
--  Include file information  --

   KNH_MACRO_C.:E05TOU  is referenced.
   KI_CP6.:E05TOU  is referenced.
   KH$IO.:E05TOU  is referenced.
   KH$CHN.:E05TOU  is referenced.
   GH_IOFNC_E.:E05TOU  is referenced.
   GJA_MSG_M.:E05TOU  is referenced.
      No diagnostics issued in procedure GJA$TERM_HANDLER.

   Procedure GJA$TERM_HANDLER requires 206 words for executable code.
   Procedure GJA$TERM_HANDLER requires 26 words of local(AUTO) storage.

PL6.E3A0      #010=GJA$TERM_HANDLER File=GJA$SUBS.:E05TSI                        TUE 07/29/97 21:58 Page:271

 Object Unit name= GJA$TERM_HANDLER                           File name= GJA$SUBS.:E05TOU
 UTS= JUL 29 '97 21:58:22.52 TUE                              Compiler= PL-6/E31         Sev=      00
 SharedLib= :SHARED_LCP6_SYSTEM                               Alt SharedLib=


    ****  Control sections  ****

 Sect   Type Bound  Init  Size HexSiz  Section name
    0   Proc  even  none   206     CE  GJA$TERM_HANDLER

    ****  Entry defs  ****

                              Check   Calling
                             calling  sequence
  Sect HexLoc Primary Altret sequence   type   Parms  Name
     0      0   yes            yes      Std        1  GJA$TERM_HANDLER

  ****  Entry refs  ****

         Check        Calling
        calling       sequence
Altret sequence SRef   type   Args  Name
 yes     yes           Std       2 KHI$IO_OTP
         yes           Std       6 GJA$Q_MSG
 yes     yes           Std       2 KVB$RLSSYS
                       nStd      0 X6A_AUTO_1
                       nStd      0 X6A_ARET

  ****  Data refs  ****

  Flags:  r = read only, s = secondary
Flgs Name                             Flgs Name                             Flgs Name
     GJA_TERM_ACK                          GJA_HAND_HEAD$                        GJA_CHNLOW$
     GJA_CHNHI$                            GJA_IO                           r    G$ROS$
PL6.E3A0      #010=GJA$TERM_HANDLER File=GJA$SUBS.:E05TSI                        TUE 07/29/97 21:58 Page:272


     1393        1        /*T***********************************************************/
     1394        2        /*T*                                                         */
     1395        3        /*T* Copyright (c) Bull HN Information Systems Inc., 1997    */
     1396        4        /*T*                                                         */
     1397        5        /*T***********************************************************/
     1398        6        GJA$TERM_HANDLER: PROC (CTX$);

      6   0 000000  D380 0000 0000  xent GJA$TERM_HANDLERLNJ,B5   X6A_AUTO_1
          0 000003       001A 0001                       DC       26,1

     1399        7        /*F* NAME:     GJA$TERM_HANDLER
     1400        8
     1401        9             PURPOSE:  This route will perform all the functions needed when
     1402       10                       a handler disconnects from NA.
     1403       11
     1404       12             CALL:     CALL GJA$TERM_HANDLER(CTX$);
     1405       13          */
     1406       14        %INCLUDE GJA_MSG_M;
     1407      253        %INCLUDE GH_IOFNC_E;
     1408      322        %INCLUDE KH$CHN;
     1409      444        %INCLUDE KH$IO;
     1410      691        %INCLUDE KI_CP6;
     1411     1787        %INCLUDE KNH_MACRO_C;
     1412     2070
     1413     2071        /* Parameters */
     1414     2072    1   DCL CTX$ PTR;
     1415     2073
     1416     2074        /* Symrefs */
     1417     2075        %FPT_TERM_ACK (FPTN=GJA_TERM_ACK,STCLASS=SYMREF);
     1418     2097    1   DCL GJA_HAND_HEAD$ PTR SYMREF;
     1419     2098    1   DCL GJA_CHNLOW$ PTR SYMREF;
     1420     2099    1   DCL GJA_CHNHI$ PTR SYMREF;
     1421     2100        %KH$IO (FPTN=GJA_IO,FNC=%GH#IO_OTPCHNCTR,CHNINT=YES,STCLASS=SYMREF);
     1422     2214
     1423     2215        /* Auto */
     1424     2216    1   DCL TCTX$ PTR;
PL6.E3A0      #010=GJA$TERM_HANDLER File=GJA$SUBS.:E05TSI                        TUE 07/29/97 21:58 Page:273
     1425     2217    1   DCL CHN$ PTR;
     1426     2218    1   DCL LVL3$ PTR;
     1427     2219    1   DCL LVL2$ PTR;
     1428     2220
     1429     2221        /* Based */
     1430     2222        %GJA$HAND_CTX(STCLASS="BASED(CTX$)");
     1431     2271        %KH$CHN (STCLASS="BASED(CHN$)");
     1432     2395
     1433     2396        /* Entry references */
     1434     2397    1   DCL GJA$Q_MSG ENTRY(6);
     1435     2398    1   DCL KVB$RLSSYS ENTRY(2) ALTRET;
     1436     2399    1   DCL KHI$IO_OTP ENTRY(2) ALTRET;
     1437     2400
     1438     2401        %EJECT;
PL6.E3A0      #010=GJA$TERM_HANDLER File=GJA$SUBS.:E05TSI                        TUE 07/29/97 21:58 Page:274
     1439     2402        /* Initialize and free all channels */
     1440     2403    1        CHN$ = GJA_CHNLOW$;

   2403   0 000005  EC80 0000 0000  xsym                 LDB,B6   GJA_CHNLOW$
          0 000008  EFC7 0008                            STB,B6   CHN$,AUTO

     1441     2404
     1442     2405    2        DO WHILE (CHN$ <= GJA_CHNHI$);

   2405   0 00000A  ED80 0000 0000  xsym                 CMB,B6   GJA_CHNHI$
          0 00000D  0301 0061                            BG       s:2431,PREL

     1443     2406    2             IF KH$CHN.SYSID = GJA$HAND_CTX.SYSID /* Owns this channel */

   2406   0 00000F  ECC7 0004                            LDB,B6   @CTX$,AUTO
          0 000011  DC86                                 LDB,B5   ,B6
          0 000012  CCC7 0008                            LDB,B4   CHN$,AUTO
          0 000014  E844 0006                            LDR,R6   6,B4
          0 000016  E945 000E                            CMR,R6   14,B5
          0 000018  0981 004B                            BNE      s:2427,PREL

     1444     2407    3             THEN DO;

     1445     2408    3                  CALL KHI$IO_OTP(KH$CHN,GJA_IO);

   2408   0 00001A  BB80 0000 0000  xsym                 LAB,B3   GJA_IO
          0 00001D  BFC7 0010                            STB,B3   LVL2$+4,AUTO
          0 00001F  CFC7 000E                            STB,B4   LVL2$+2,AUTO
          0 000021  BBC7 000E                            LAB,B3   LVL2$+2,AUTO
          0 000023  CBF0 0200                            LAB,B4   512,IMO
          0 000025  E380 0000 0000  xent                 LNJ,B6   KHI$IO_OTP
          0 000028       0001                            DC       s:2409,PREL

     1446     2409    3                  KH$CHN.SYSID = 0;

   2409   0 000029  ECC7 0008                            LDB,B6   CHN$,AUTO
          0 00002B  8746 0006                            CL       6,B6
PL6.E3A0      #010=GJA$TERM_HANDLER File=GJA$SUBS.:E05TSI                        TUE 07/29/97 21:58 Page:275

     1447     2410    3                  KH$CHN.HAND$ = ADDR(NIL);

   2410   0 00002D  DB80 0000 0000                       LAB,B5   0
          0 000030  DFC6 001E                            STB,B5   30,B6

     1448     2411    3                  IF KH$CHN.SUB$ ~= ADDR(NIL) THEN

   2411   0 000032  8DC6 001A                            CMN      26,B6
          0 000034  0901 002F                            BE       s:2427,PREL

     1449     2412    4                  DO;

     1450     2413    4                       LVL2$ = KH$CHN.SUB$;

   2413   0 000036  CCC6 001A                            LDB,B4   26,B6
          0 000038  CFC7 000C                            STB,B4   LVL2$,AUTO

     1451     2414    5                       DO WHILE LVL2$ ~= ADDR(NIL);

   2414   0 00003A  0F81 0026                            B        s:2424,PREL

     1452     2415    5                            LVL2$->KH$CHN.SYSID = 0;

   2415   0 00003C  ECC7 000C                            LDB,B6   LVL2$,AUTO
          0 00003E  8746 0006                            CL       6,B6

     1453     2416    5                            LVL2$->KH$CHN.HAND$ = ADDR(NIL);

   2416   0 000040  DB80 0000 0000                       LAB,B5   0
          0 000043  DFC6 001E                            STB,B5   30,B6

     1454     2417    5                            LVL3$ = LVL2$->KH$CHN.SUB$;

   2417   0 000045  CCC6 001A                            LDB,B4   26,B6
          0 000047  CFC7 000A                            STB,B4   LVL3$,AUTO

PL6.E3A0      #010=GJA$TERM_HANDLER File=GJA$SUBS.:E05TSI                        TUE 07/29/97 21:58 Page:276
     1455     2418    6                            DO WHILE LVL3$ ~= ADDR(NIL);

   2418   0 000049  0F81 000E                            B        s:2422,PREL

     1456     2419    6                                 LVL3$->KH$CHN.SYSID = 0;

   2419   0 00004B  ECC7 000A                            LDB,B6   LVL3$,AUTO
          0 00004D  8746 0006                            CL       6,B6

     1457     2420    6                                 LVL3$->KH$CHN.HAND$ = ADDR(NIL);

   2420   0 00004F  DB80 0000 0000                       LAB,B5   0
          0 000052  DFC6 001E                            STB,B5   30,B6

     1458     2421    6                                 LVL3$ = LVL3$->KH$CHN.LNK$;

   2421   0 000054  CCC6 001C                            LDB,B4   28,B6
          0 000056  CFC7 000A                            STB,B4   LVL3$,AUTO

     1459     2422    6                               END;

   2422   0 000058  8DC7 000A                            CMN      LVL3$,AUTO
          0 00005A  09F1                                 BNE      s:2419,SPREL

     1460     2423    5                            LVL2$ = LVL2$->KH$CHN.LNK$;

   2423   0 00005B  ECC7 000C                            LDB,B6   LVL2$,AUTO
          0 00005D  DCC6 001C                            LDB,B5   28,B6
          0 00005F  DFC7 000C                            STB,B5   LVL2$,AUTO

     1461     2424    5                          END;

   2424   0 000061  8DC7 000C                            CMN      LVL2$,AUTO
          0 000063  09D9                                 BNE      s:2415,SPREL

     1462     2425    4                     END;

PL6.E3A0      #010=GJA$TERM_HANDLER File=GJA$SUBS.:E05TSI                        TUE 07/29/97 21:58 Page:277
     1463     2426    3                END;

     1464     2427    2             CHN$ = PINCRW(CHN$,SIZEW(KH$CHN));

   2427   0 000064  ECC7 0008                            LDB,B6   CHN$,AUTO
          0 000066  DBC6 0020                            LAB,B5   32,B6
          0 000068  DFC7 0008                            STB,B5   CHN$,AUTO

     1465     2428    2           END;

   2428   0 00006A  DD80 0000 0000  xsym                 CMB,B5   GJA_CHNHI$
          0 00006D  0381 FFA1                            BLE      s:2406,PREL

     1466     2429
     1467     2430        /* Send terminate ack */
     1468     2431    1        CALL GJA$Q_MSG(CTX$,,,SIZEC(GJA_TERM_ACK),GJA_TERM_ACK,%KN_FCN_TERM_ACK);

   2431   0 00006F  EBF0 0004                            LAB,B6   4,IMO
          0 000071  DBF0 0004                            LAB,B5   4,IMO
          0 000073  DFC7 0018                            STB,B5   LVL2$+12,AUTO
          0 000075  CB80 0000 0000  xsym                 LAB,B4   GJA_TERM_ACK
          0 000078  CFC7 0016                            STB,B4   LVL2$+10,AUTO
          0 00007A  EFC7 0014                            STB,B6   LVL2$+8,AUTO
          0 00007C  BB80 0000 0000                       LAB,B3   0
          0 00007F  BFC7 0012                            STB,B3   LVL2$+6,AUTO
          0 000081  AB80 0000 0000                       LAB,B2   0
          0 000084  AFC7 0010                            STB,B2   LVL2$+4,AUTO
          0 000086  9CC7 0004                            LDB,B1   @CTX$,AUTO
          0 000088  9FC7 000E                            STB,B1   LVL2$+2,AUTO
          0 00008A  BBC7 000E                            LAB,B3   LVL2$+2,AUTO
          0 00008C  CBF0 0600                            LAB,B4   1536,IMO
          0 00008E  E380 0000 0000  xent                 LNJ,B6   GJA$Q_MSG
          0 000091       0001                            DC       s:2434,PREL

     1469     2432
     1470     2433        /* Unchain context */
     1471     2434    1        IF GJA_HAND_HEAD$ = CTX$
PL6.E3A0      #010=GJA$TERM_HANDLER File=GJA$SUBS.:E05TSI                        TUE 07/29/97 21:58 Page:278

   2434   0 000092  EC80 0000 0000  xsym                 LDB,B6   GJA_HAND_HEAD$
          0 000095  DCC7 0004                            LDB,B5   @CTX$,AUTO
          0 000097  ED85                                 CMB,B6   ,B5
          0 000098  0981 0009                            BNE      s:2439,PREL

     1472     2435    2        THEN DO;

     1473     2436    2             GJA_HAND_HEAD$ = GJA$HAND_CTX.LNK$;

   2436   0 00009A  CC85                                 LDB,B4   ,B5
          0 00009B  BCC4 0001                            LDB,B3   1,B4
          0 00009D  BF80 0000 0000  xsym                 STB,B3   GJA_HAND_HEAD$

     1474     2437    2           END;

   2437   0 0000A0  0F81 001A                            B        s:2450,PREL

     1475     2438    2        ELSE DO;

     1476     2439    2             TCTX$ = GJA_HAND_HEAD$;

   2439   0 0000A2  EFC7 0006                            STB,B6   TCTX$,AUTO

     1477     2440    3             DO WHILE (TCTX$ ~= ADDR(NIL));

   2440   0 0000A4  0F81 0013                            B        s:2446,PREL

     1478     2441    3                  IF TCTX$->GJA$HAND_CTX.LNK$ = CTX$

   2441   0 0000A6  ECC7 0006                            LDB,B6   TCTX$,AUTO
          0 0000A8  DCC6 0001                            LDB,B5   1,B6
          0 0000AA  CCC7 0004                            LDB,B4   @CTX$,AUTO
          0 0000AC  DD84                                 CMB,B5   ,B4
          0 0000AD  0981 0006                            BNE      s:2445,PREL

     1479     2442    4                  THEN DO;
PL6.E3A0      #010=GJA$TERM_HANDLER File=GJA$SUBS.:E05TSI                        TUE 07/29/97 21:58 Page:279

     1480     2443    4                       TCTX$->GJA$HAND_CTX.LNK$ = GJA$HAND_CTX.LNK$;

   2443   0 0000AF  BC84                                 LDB,B3   ,B4
          0 0000B0  ACC3 0001                            LDB,B2   1,B3
          0 0000B2  AFC6 0001                            STB,B2   1,B6

     1481     2444    4                     END;

     1482     2445    3                  TCTX$ = TCTX$->GJA$HAND_CTX.LNK$;

   2445   0 0000B4  DCC6 0001                            LDB,B5   1,B6
          0 0000B6  DFC7 0006                            STB,B5   TCTX$,AUTO

     1483     2446    3                END;

   2446   0 0000B8  8DC7 0006                            CMN      TCTX$,AUTO
          0 0000BA  09EC                                 BNE      s:2441,SPREL

     1484     2447    2           END;

     1485     2448
     1486     2449        /* Release context */
     1487     2450    1        CALL KVB$RLSSYS(SIZEW(GJA$HAND_CTX),CTX$);

   2450   0 0000BB  EBF0 0011                            LAB,B6   17,IMO
          0 0000BD  DCC7 0004                            LDB,B5   @CTX$,AUTO
          0 0000BF  DFC7 0010                            STB,B5   LVL2$+4,AUTO
          0 0000C1  EFC7 000E                            STB,B6   LVL2$+2,AUTO
          0 0000C3  BBC7 000E                            LAB,B3   LVL2$+2,AUTO
          0 0000C5  CBF0 0200                            LAB,B4   512,IMO
          0 0000C7  E380 0000 0000  xent                 LNJ,B6   KVB$RLSSYS
          0 0000CA       0001                            DC       s:2452,PREL

     1488     2451
     1489     2452    1        RETURN;

PL6.E3A0      #010=GJA$TERM_HANDLER File=GJA$SUBS.:E05TSI                        TUE 07/29/97 21:58 Page:280
   2452   0 0000CB  C380 0000 0000  xent                 LNJ,B4   X6A_ARET
     1490     2453
     1491     2454    1   END GJA$TERM_HANDLER;
     1492     2455        %EOD;

PL6.E3A0      #010=GJA$TERM_HANDLER File=GJA$SUBS.:E05TSI                        TUE 07/29/97 21:58 Page:281
--  Include file information  --

   KNH_MACRO_C.:E05TOU  is referenced.
   KI_CP6.:E05TOU  is referenced.
   KH$IO.:E05TOU  is referenced.
   KH$CHN.:E05TOU  is referenced.
   GH_IOFNC_E.:E05TOU  is referenced.
   GJA_MSG_M.:E05TOU  is referenced.
      No diagnostics issued in procedure GJA$TERM_HANDLER.
PL6.E3A0      #010=GJA$TERM_HANDLER File=GJA$SUBS.:E05TSI                        TUE 07/29/97 21:58 Page:282

 **** Variables and constants ****

  ****  Auto variables  ****

  ****  Scalars and arrays  ****
HexLoc.c.b A Datatyp(siz) R M Lvl/name                 HexLoc.c.b A Datatyp(siz) R M Lvl/name

     4-0-0/w PTR         r     1 @CTX$                      8-0-0/w PTR         r     1 CHN$
    *0-0-0/w PTR         r     1 CTX$                       C-0-0/w PTR         r     1 LVL2$
     A-0-0/w PTR         r     1 LVL3$                      6-0-0/w PTR         r     1 TCTX$

  ****  SYMREF variables  ****

  ****  Scalars and arrays  ****
HexLoc.c.b A Datatyp(siz) R M Lvl/name                 HexLoc.c.b A Datatyp(siz) R M Lvl/name

     0-0-0/w PTR         r     1 GJA_CHNHI$                 0-0-0/w PTR         r     1 GJA_CHNLOW$
     0-0-0/w PTR         r     1 GJA_HAND_HEAD$             0-0-0/w STRC(32)    r     1 GJA_IO
     0-0-0/w STRC(32)    r     1 GJA_TERM_ACK

  ****  BASED and DCB variables  ****

  ****  Scalars and arrays  ****
HexLoc.c.b A Datatyp(siz) R M Lvl/name                 HexLoc.c.b A Datatyp(siz) R M Lvl/name

     0-0-0/c STRC(272)   r     1 GJA$HAND_CTX               0-0-0/w STRC(512)   r     1 KH$CHN


   Procedure GJA$TERM_HANDLER requires 206 words for executable code.
   Procedure GJA$TERM_HANDLER requires 26 words of local(AUTO) storage.
PL6.E3A0      #010=GJA$TERM_HANDLER File=GJA$SUBS.:E05TSI                        TUE 07/29/97 21:58 Page:283
          *** CROSS REFERENCE LISTING ***
**     DENOTES     IDENTIFIER DEFINITION
<<                 IDENTIFIER'S VALUE SET
>>                 IDENTIFIER'S VALUE USED
<>                 IDENTIFIER SET AND/OR USED
--                 IDENTIFIER REFERENCED
PL6.E3A0      #010=GJA$TERM_HANDLER File=GJA$SUBS.:E05TSI                        TUE 07/29/97 21:58 Page:284
          MINI XREF LISTING

CHN$
      2217**DCL      2286--IMP-PTR  2403<<ASSIGN   2405>>DOWHILE  2406>>IF       2408>>CALL     2409>>ASSIGN
      2410>>ASSIGN   2411>>IF       2413>>ASSIGN   2427<<ASSIGN   2427>>ASSIGN
CTX$
      2072**DCL         6--PROC     2223--IMP-PTR  2406>>IF       2431<>CALL     2434>>IF       2436>>ASSIGN
      2441>>IF       2443>>ASSIGN   2450<>CALL
GJA$HAND_CTX
      2223**DCL      2450--CALL
GJA$HAND_CTX.LNK$
      2233**DCL      2436>>ASSIGN   2441>>IF       2443<<ASSIGN   2443>>ASSIGN   2445>>ASSIGN
GJA$HAND_CTX.SYSID
      2262**DCL      2406>>IF
GJA$Q_MSG
      2397**DCL-ENT  2431--CALL
GJA_CHNHI$
      2099**DCL      2405>>DOWHILE
GJA_CHNLOW$
      2098**DCL      2403>>ASSIGN
GJA_HAND_HEAD$
      2097**DCL      2434>>IF       2436<<ASSIGN   2439>>ASSIGN
GJA_IO
      2112**DCL      2408<>CALL
GJA_IO.ASNSTT
      2121**DCL      2122--REDEF    2128--REDEF    2133--REDEF    2137--REDEF    2141--REDEF    2145--REDEF
      2152--REDEF    2158--REDEF    2164--REDEF    2169--REDEF    2176--REDEF    2179--REDEF    2183--REDEF
      2190--REDEF    2194--REDEF    2198--REDEF    2202--REDEF    2207--REDEF    2211--REDEF
GJA_TERM_ACK
      2091**DCL      2431--CALL     2431<>CALL
KH$CHN
      2286**DCL      2408<>CALL     2427--ASSIGN
KH$CHN.HAND$
      2393**DCL      2410<<ASSIGN   2416<<ASSIGN   2420<<ASSIGN
PL6.E3A0      #010=GJA$TERM_HANDLER File=GJA$SUBS.:E05TSI                        TUE 07/29/97 21:58 Page:285
KH$CHN.LNK$
      2393**DCL      2421>>ASSIGN   2423>>ASSIGN
KH$CHN.SUB$
      2393**DCL      2411>>IF       2413>>ASSIGN   2417>>ASSIGN
KH$CHN.SYSID
      2319**DCL      2406>>IF       2409<<ASSIGN   2415<<ASSIGN   2419<<ASSIGN
KH$CHN.TERMID.TERM
      2382**DCL      2391--REDEF
KHI$IO_OTP
      2399**DCL-ENT  2408--CALL
KVB$RLSSYS
      2398**DCL-ENT  2450--CALL
LVL2$
      2219**DCL      2413<<ASSIGN   2414>>DOWHILE  2415>>ASSIGN   2416>>ASSIGN   2417>>ASSIGN   2423<<ASSIGN
      2423>>ASSIGN
LVL3$
      2218**DCL      2417<<ASSIGN   2418>>DOWHILE  2419>>ASSIGN   2420>>ASSIGN   2421<<ASSIGN   2421>>ASSIGN
TCTX$
      2216**DCL      2439<<ASSIGN   2440>>DOWHILE  2441>>IF       2443>>ASSIGN   2445<<ASSIGN   2445>>ASSIGN

