PL6.E3A0      #011=GJA$PARSE File=GJA$SUBS.:E05TSI                               TUE 07/29/97 21:58 Page:286
     1493        1        /*T***********************************************************/
     1494        2        /*T*                                                         */
     1495        3        /*T* Copyright (c) Bull HN Information Systems Inc., 1997    */
     1496        4        /*T*                                                         */
     1497        5        /*T***********************************************************/
     1498        6        %EJECT;
PL6.E3A0      #011=GJA$PARSE File=GJA$SUBS.:E05TSI                               TUE 07/29/97 21:58 Page:287
     1499        7        /*M* GJA$PARSE - Sign on scanner */
     1500        8        /*X*  DMC,DMR,CCC,PLM=0,IND=3,CTI=5,DCI=6,IAD=0,DTI=0,IDT=0,ENI=3,
     1501        9              ECU=3,CSU=3,SDI=3                                           */
     1502       10
     1503       11        GJA$PARSE: PROC (LOGON,ACCT,NAME,PW,PRO,ERR,HOST,NOSETUP,NOHEADER) ALTRET;
     1504       12        /*D* NAME:        GJA$PARSE
     1505       13             PURPOSE:     To scan the LOGON for logon ACCT, NAME, PW and PRO
     1506       14         CALL:        CALL GJA$PARSE(LOGON,ACCT,NAME,PW,PRO,ERR,HOST,NOSETUP,NOHEADER) ALTRE
                14        T(LBL);
     1507       15             INPUT:       LOGON - The logon message structure in TEXTC format
     1508       16             OUTPUT:      ACCT - Account to log on
     1509       17                          NAME - Name to log on
     1510       18                          PW - Password to log on
     1511       19                          PRO - Profile to use for the device (only if specified)
     1512       20                          ERR - An error condition (%E$SGSYN or %E$BDID) if
     1513       21                                an error occurs.
     1514       22                          HOST - The host name if specified.
     1515       23                          NOSETUP - If nosetup option was specified.
     1516       24                          NOHEADER - If noheader option was specified.
     1517       25             DESCRIPTION: GJA$PARSE scans off ACCT, NAME, PW, NS, PRO, and HOST from
     1518       26                          KL$SGN.LOGON and returns. If any parsing errors occur,
     1519       27                          an error will be returned in ERR and GJA$PARSE will ALTRET.
     1520       28                          The string being scanned for takes on the form below:
     1521       29               [('!'|'/')- STR1] NAME [','[ACCT] [','PW]] ['N/O' 'S/ETUP']
     1522       30               ['PRO/FILE' '=' PRO] ['H/OST' '=' HOST] ['N/O' 'H/EADER']
     1523       31                             where STR1 is any string not containing ' ' or ','
     1524       32                                   ACCT is the account
     1525       33                                   NAME is the name
     1526       34                                   PW is the password
     1527       35                                   PRO is the specified profile name
     1528       36                                   NS means No Setup
     1529       37                                   NH means no header (SYSID msg at logon)
     1530       38                                   HOST is the host system to be connected to
     1531       39                          A set of defaults for unspecified portions is provided:
     1532       40                             ACCT - no default
     1533       41                             NAME - '*'
     1534       42                             PW   - all blanks
PL6.E3A0      #011=GJA$PARSE File=GJA$SUBS.:E05TSI                               TUE 07/29/97 21:58 Page:288
     1535       43                             NOSETUP - '0'B
     1536       44                             NOHEADER - '0'B
     1537       45                             PRO  - length of zero
     1538       46                             HOST - Current host name
     1539       47        */
     1540       48        /*N* ADDITIONAL_OPTIONS - In order to add additional options the following
     1541       49                  procedure should be followed.
     1542       50                     1) Add the option to this module and put it in the parameter list
     1543       51                  for the call to GJA$PARSE.
     1544       52                     2) In the file KL_MACRO_C add to the KL$PCD structure a field to
     1545       53                  temporarily hold this option.  There are some unused bits after the
     1546       54                  NOSETUP and the NOHEADER options.
     1547       55                     3) In KLH$HLP fix the entry DCL and call for GJA$PARSE and add
     1548       56                  the code to put the new parameter into the PCD structure.  In a
     1549       57                  totally different part of the file is where this new option goes from
     1550       58                  the PCD structure into the JIT.
     1551       59                     4) Fix the following modules as needed since they are the ones
     1552       60                  currently known to call PARSE;
     1553       61                        ALA$LOGON
     1554       62                        KFF$FEBOOT
     1555       63                        KLI$FESET
     1556       64                     minimally these routines need the entry dcls and calling sequences
     1557       65                  updated.
     1558       66        */
     1559       67        %INCLUDE KL_ERRORS_C;
     1560      109        %INCLUDE CP_6;
     1561     5668    1   DCL 1 LOGON,
     1562     5669    1          2 LEN UBIN BYTE UNAL,
     1563     5670    1          2 TXT CHAR(139);
     1564     5671    1   DCL ACCT CHAR(8);
     1565     5672    1   DCL 1 NAME ALIGNED,
     1566     5673    1          2 C UBIN BYTE UNAL,
     1567     5674    1          2 T CHAR(12) UNAL;
     1568     5675    1   DCL PW CHAR(8);
     1569     5676    1   DCL 1 PRO ALIGNED,
     1570     5677    1          2 C UBIN BYTE UNAL,
     1571     5678    1          2 T CHAR(11) UNAL;
PL6.E3A0      #011=GJA$PARSE File=GJA$SUBS.:E05TSI                               TUE 07/29/97 21:58 Page:289
     1572     5679    1   DCL ERR UBIN;
     1573     5680    1   DCL HOST CHAR(8);
     1574     5681    1   DCL NOSETUP BIT (1) ALIGNED;
     1575     5682    1   DCL NOHEADER BIT (1) ALIGNED;
     1576     5683    1   DCL I UBIN WORD;
     1577     5684    1   DCL J UBIN WORD;
     1578     5685    1   DCL LEN UBIN WORD;
     1579     5686    1   DCL TNAME CHAR(16);
     1580     5687    1   DCL XLOGON CHAR (139);
     1581     5688        /*F* NAME: B_XL_UPPER_UR
     1582     5689        PURPOSE: Table to translate to uppercase Unit Record character set.
     1583     5690        DESCRIPTION:
     1584     5691                This table translates all characters to their modulo 128
     1585     5692                equivalents, and changes all unprintable characters to a
     1586     5693                blank, except for TAB, which remains intact.
     1587     5694                Lowercase alphabetic characters are translated to their
     1588     5695                uppercase equivalents.
     1589     5696        */
     1590     5697
     1591     5698    1   DCL B_XL_UPPER_UR( 0:511 ) CHAR(1) STATIC INIT(
     1592     5699    1       ' '*9,BITASC('011'O),' '*22,
     1593     5700    1       ' ','!','"','#','$','%','&','''','(',')','*','+',',','-','.','/',
     1594     5701    1       '0','1','2','3','4','5','6','7','8','9',':',';','<','=','>','?',
     1595     5702    1       '@','A','B','C','D','E','F','G','H','I','J','K','L','M','N','O',
     1596     5703    1       'P','Q','R','S','T','U','V','W','X','Y','Z','[','\',']','^','_',
     1597     5704    1       '`','A','B','C','D','E','F','G','H','I','J','K','L','M','N','O',
     1598     5705    1       'P','Q','R','S','T','U','V','W','X','Y','Z','{','|','}','~',' ',
     1599     5706    1       ' '*9,BITASC('011'O),' '*22,
     1600     5707    1       ' ','!','"','#','$','%','&','''','(',')','*','+',',','-','.','/',
     1601     5708    1       '0','1','2','3','4','5','6','7','8','9',':',';','<','=','>','?',
     1602     5709    1       '@','A','B','C','D','E','F','G','H','I','J','K','L','M','N','O',
     1603     5710    1       'P','Q','R','S','T','U','V','W','X','Y','Z','[','\',']','^','_',
     1604     5711    1       '`','A','B','C','D','E','F','G','H','I','J','K','L','M','N','O',
     1605     5712    1       'P','Q','R','S','T','U','V','W','X','Y','Z','{','|','}','~',' ',
     1606     5713    1       ' '*9,BITASC('011'O),' '*22,
     1607     5714    1       ' ','!','"','#','$','%','&','''','(',')','*','+',',','-','.','/',
     1608     5715    1       '0','1','2','3','4','5','6','7','8','9',':',';','<','=','>','?',
PL6.E3A0      #011=GJA$PARSE File=GJA$SUBS.:E05TSI                               TUE 07/29/97 21:58 Page:290
     1609     5716    1       '@','A','B','C','D','E','F','G','H','I','J','K','L','M','N','O',
     1610     5717    1       'P','Q','R','S','T','U','V','W','X','Y','Z','[','\',']','^','_',
     1611     5718    1       '`','A','B','C','D','E','F','G','H','I','J','K','L','M','N','O',
     1612     5719    1       'P','Q','R','S','T','U','V','W','X','Y','Z','{','|','}','~',' ',
     1613     5720    1       ' '*9,BITASC('011'O),' '*22,
     1614     5721    1       ' ','!','"','#','$','%','&','''','(',')','*','+',',','-','.','/',
     1615     5722    1       '0','1','2','3','4','5','6','7','8','9',':',';','<','=','>','?',
     1616     5723    1       '@','A','B','C','D','E','F','G','H','I','J','K','L','M','N','O',
     1617     5724    1       'P','Q','R','S','T','U','V','W','X','Y','Z','[','\',']','^','_',
     1618     5725    1       '`','A','B','C','D','E','F','G','H','I','J','K','L','M','N','O',
     1619     5726    1       'P','Q','R','S','T','U','V','W','X','Y','Z','{','|','}','~',' ' );
     1620     5727        %EJECT;
PL6.E3A0      #011=GJA$PARSE File=GJA$SUBS.:E05TSI                               TUE 07/29/97 21:58 Page:291
     1621     5728    1   ACCT = ' ';
     1622     5729    1   NAME.C = 1;
     1623     5730    1   NAME.T = '*';
     1624     5731    1   PW = ' ';
     1625     5732    1   PRO.C = 0;
     1626     5733    1   PRO.T = ' ';
     1627     5734    1   HOST = ' ';
     1628     5735    1   NOSETUP = '0'B;
     1629     5736    1   NOHEADER = '0'B;
     1630     5737    1   I = 0;
     1631     5738
     1632     5739        /* should be restricted by maxnmbbyt on read. */
     1633     5740    1   IF (LOGON.LEN = 0 OR LOGON.LEN > LENGTHC(LOGON.TXT)) THEN GOTO BADID;
     1634     5741    1   IF ( (LOGON.LEN = 1) AND
     1635     5742    1        (SUBSTR (LOGON.TXT, 0, 1) = ':') )
     1636     5743    2   THEN DO;             /* Default ':SYS,LJS' for input ':' */
     1637     5744    2      ACCT = ':SYS';
     1638     5745    2      NOSETUP = '0'B;
     1639     5746    2      NOHEADER = '0'B;
     1640     5747    2      NAME.C = 3;
     1641     5748    2      NAME.T = 'LJS';
     1642     5749    2      PW = ' ';
     1643     5750    2      PRO.C = 0;
     1644     5751    2      RETURN;
     1645     5752    2      END;
     1646     5753
     1647     5754    1   IF ((SUBSTR (LOGON.TXT, 0, 1) = '!') OR
     1648     5755    1        (SUBSTR (LOGON.TXT, 0, 1) = '/') )
     1649     5756    1   THEN CALL BCSCAN ALTRET (BADID);  /* Get start of logon */
     1650     5757
     1651     5758    1   IF (SUBSTR (LOGON.TXT, I, 1) = ' ')
     1652     5759    1   THEN CALL NBSCAN ALTRET (BADID); /* Skip excess blanks */
     1653     5760
     1654     5761        /* Now we are at the begining of the account, pick it up. */
     1655     5762
     1656     5763    1   IF (SUBSTR (LOGON.TXT, I, 1) = ',')
     1657     5764    2   THEN DO; /* Account cant start with a ',' */
PL6.E3A0      #011=GJA$PARSE File=GJA$SUBS.:E05TSI                               TUE 07/29/97 21:58 Page:292
     1658     5765    2      GOTO BADID;
     1659     5766    2      END;
     1660     5767    1   CALL GETNM ALTRET (BADID);  /* That get us the account */
     1661     5768    1   IF (LEN > LENGTHC (ACCT))
     1662     5769    2   THEN DO;
     1663     5770    2      GOTO BADID;
     1664     5771    2      END;
     1665     5772    1   ACCT = TNAME; /* It's good, let's use it. */
     1666     5773
     1667     5774        /* Now get the username */
     1668     5775
     1669     5776    1   IF ((I < LOGON.LEN) AND
     1670     5777    1        (SUBSTR (LOGON.TXT, I, 1) = ',') )
     1671     5778    2   THEN DO; /* Get the uname it's next */
     1672     5779    2      CALL GETNMN ALTRET (BADID);
     1673     5780    2      IF (LEN > LENGTHC (NAME.T))
     1674     5781    3      THEN DO;
     1675     5782    3         GOTO BADID;
     1676     5783    3         END;
     1677     5784    2      IF (LEN > 0)
     1678     5785    3      THEN DO; /* We have a good username, let's use it. */
     1679     5786    3         NAME.C = LEN;
     1680     5787    3         NAME.T = TNAME;
     1681     5788    3         END;
     1682     5789
     1683     5790        /* Now get the password */
     1684     5791
     1685     5792    2      IF ((I < LOGON.LEN) AND
     1686     5793    2           (SUBSTR (LOGON.TXT, I, 1) = ',') )
     1687     5794    3      THEN DO;
     1688     5795    3         CALL GETNMN ALTRET (BADID);
     1689     5796    3         IF (LEN > LENGTHC (PW))
     1690     5797    4         THEN DO;
     1691     5798    4            GOTO BADID;
     1692     5799    4            END;
     1693     5800    3         PW = TNAME;  /* The password checks out, let's use it */
     1694     5801    3         IF ((I < LOGON.LEN) AND
PL6.E3A0      #011=GJA$PARSE File=GJA$SUBS.:E05TSI                               TUE 07/29/97 21:58 Page:293
     1695     5802    3              (SUBSTR (LOGON.TXT, I, 1) = ',') )
     1696     5803    4         THEN DO; /* The logon string must have blanks after it*/
     1697     5804    4            GOTO BADID;
     1698     5805    4            END;
     1699     5806    3         END;
     1700     5807    2      END; /* Of doing the password stuff. */
     1701     5808
     1702     5809        /* Now lets start scanning for the options... */
     1703     5810
     1704     5811        /* First convert the whole line to uppercase for the parsing. */
     1705     5812    1   CALL XLATE (XLOGON, B_XL_UPPER_UR, LOGON.TXT);
     1706     5813    1   SUBSTR(XLOGON,LOGON.LEN,LENGTHC(LOGON.TXT)-LOGON.LEN) = ' ';
     1707     5814
     1708     5815    1   CALL NBSCAN ALTRET (JUSTRET);
     1709     5816    2   DO WHILE (I < LOGON.LEN);
     1710     5817    3      DO SELECT (SUBSTR (XLOGON, I, 1));
     1711     5818    3         SELECT ('H');
     1712     5819    3         I = I + 1;
     1713     5820    3         IF (SUBSTR (XLOGON, I, 1) = 'O') THEN I = I + 1;
     1714     5821    3         IF (SUBSTR (XLOGON, I, 1) = 'S') THEN I = I + 1;
     1715     5822    3         IF (SUBSTR (XLOGON, I, 1) = 'T') THEN I = I + 1;
     1716     5823    3         IF (I >= LOGON.LEN)
     1717     5824    4         THEN DO;
     1718     5825    4            GOTO BADOPT;
     1719     5826    4            END;
     1720     5827    3         CALL NBSCAN ALTRET (BADOPT);
     1721     5828    3         IF (SUBSTR (XLOGON, I, 1) ~= '=')
     1722     5829    4         THEN DO;
     1723     5830    4            GOTO BADOPT;
     1724     5831    4            END;
     1725     5832    3         CALL GETNMN ALTRET (BADOPT);
     1726     5833    3         IF (LEN > LENGTHC (HOST))
     1727     5834    4         THEN DO;
     1728     5835    4            GOTO BADOPT;
     1729     5836    4            END;
     1730     5837    3         HOST = TNAME; /* We have a valid host, let's use it. */
     1731     5838    3         SELECT ('P');
PL6.E3A0      #011=GJA$PARSE File=GJA$SUBS.:E05TSI                               TUE 07/29/97 21:58 Page:294
     1732     5839    3         I = I + 1;
     1733     5840    3         IF (SUBSTR (XLOGON, I, 1) = 'R') THEN I = I + 1;
     1734     5841    3         IF (SUBSTR (XLOGON, I, 1) = 'O') THEN I = I + 1;
     1735     5842    3         IF (SUBSTR (XLOGON, I, 1) = 'F') THEN I = I + 1;
     1736     5843    3         IF (SUBSTR (XLOGON, I, 1) = 'I') THEN I = I + 1;
     1737     5844    3         IF (SUBSTR (XLOGON, I, 1) = 'L') THEN I = I + 1;
     1738     5845    3         IF (SUBSTR (XLOGON, I, 1) = 'E') THEN I = I + 1;
     1739     5846    3         IF (I >= LOGON.LEN)
     1740     5847    4         THEN DO;
     1741     5848    4            GOTO BADOPT;
     1742     5849    4            END;
     1743     5850    3         CALL NBSCAN ALTRET (BADOPT);
     1744     5851    3         IF (SUBSTR (XLOGON, I, 1) ~= '=')
     1745     5852    4         THEN DO;
     1746     5853    4            GOTO BADOPT;
     1747     5854    4            END;
     1748     5855    3         CALL GETNMN ALTRET (BADOPT);
     1749     5856    3         IF (LEN > LENGTHC (PRO.T))
     1750     5857    4         THEN DO;
     1751     5858    4            GOTO BADOPT;
     1752     5859    4            END;
     1753     5860    3         PRO.C = LEN;
     1754     5861    3         CALL XLATE (SUBSTR (PRO.T, 0, LEN), B_XL_UPPER_UR, SUBSTR (TNAME, 0, LEN) );
     1755     5862    3         SELECT ('N');
     1756     5863    3         I = I + 1;
     1757     5864    3         IF (SUBSTR (XLOGON, I, 1) = 'O') THEN I = I + 1;
     1758     5865    3         IF (SUBSTR (XLOGON, I, 1) = 'S')
     1759     5866    4         THEN DO;
     1760     5867    4            I = I + 1;
     1761     5868    4            IF (SUBSTR (XLOGON, I, 1) = 'E') THEN I = I + 1;
     1762     5869    4            IF (SUBSTR (XLOGON, I, 1) = 'T') THEN I = I + 1;
     1763     5870    4            IF (SUBSTR (XLOGON, I, 1) = 'U') THEN I = I + 1;
     1764     5871    4            IF (SUBSTR (XLOGON, I, 1) = 'P') THEN I = I + 1;
     1765     5872    4            IF ( I > LOGON.LEN)
     1766     5873    5            THEN DO;
     1767     5874    5               GOTO BADOPT;
     1768     5875    5               END;
PL6.E3A0      #011=GJA$PARSE File=GJA$SUBS.:E05TSI                               TUE 07/29/97 21:58 Page:295
     1769     5876                          /* If there was a syntax error in spelling the
     1770     5877                             option, it will get caught next time through
     1771     5878                             the loop by the case else.
     1772     5879                          */
     1773     5880    4            NOSETUP = '1'B;
     1774     5881    4            END; /* Setup stuff */
     1775     5882    3         ELSE IF (SUBSTR (XLOGON, I, 1) = 'H')
     1776     5883    4            THEN DO;
     1777     5884    4               I = I + 1;
     1778     5885    4               IF (SUBSTR (XLOGON, I, 1) = 'E') THEN I = I + 1;
     1779     5886    4               IF (SUBSTR (XLOGON, I, 1) = 'A') THEN I = I + 1;
     1780     5887    4               IF (SUBSTR (XLOGON, I, 1) = 'D') THEN I = I + 1;
     1781     5888    4               IF (SUBSTR (XLOGON, I, 1) = 'E') THEN I = I + 1;
     1782     5889    4               IF (SUBSTR (XLOGON, I, 1) = 'R') THEN I = I + 1;
     1783     5890    4               IF ( I > LOGON.LEN)
     1784     5891    5               THEN DO;
     1785     5892    5                  GOTO BADOPT;
     1786     5893    5                  END;
     1787     5894                          /* If there was a syntax error in spelling the
     1788     5895                             option, it will get caught next time through
     1789     5896                             the loop by the case else.
     1790     5897                          */
     1791     5898    4               NOHEADER = '1'B;
     1792     5899    4               END; /* Header stuff */
     1793     5900    4            ELSE DO;
     1794     5901    4               GOTO BADOPT;  /* Ns is the min abbrev */
     1795     5902    4               END;
     1796     5903    3         SELECT (ELSE);
     1797     5904    3      GOTO BADOPT;
     1798     5905    3         END; /* Of the do select */
     1799     5906    2   CALL NBSCAN ALTRET (JUSTRET);
     1800     5907    2   IF (SUBSTR (XLOGON, I, 1) = ',')
     1801     5908    3   THEN DO;
     1802     5909    3      I = I + 1; /* Scan past the comma */
     1803     5910    3      CALL NBSCAN ALTRET (BADOPT);
     1804     5911    3      END;
     1805     5912    2      END; /* Do while i is less than the string length */
PL6.E3A0      #011=GJA$PARSE File=GJA$SUBS.:E05TSI                               TUE 07/29/97 21:58 Page:296
     1806     5913
     1807     5914    1   JUSTRET: RETURN;
     1808     5915
     1809     5916    1   BADOPT: ERR = %E$SGSYN;
     1810     5917    1   ALTRETURN;
     1811     5918
     1812     5919    1   BADID: ERR = %E$BDID;
     1813     5920    1   ALTRETURN;
     1814     5921        %EJECT;
PL6.E3A0      #011=GJA$PARSE File=GJA$SUBS.:E05TSI                               TUE 07/29/97 21:58 Page:297
     1815     5922    1   BCSCAN: PROC ALTRET;
     1816     5923        /*I* NAME:        BCSCAN
     1817     5924             PURPOSE:     To set I to next ',' or ' ' or end-of-line
     1818     5925             DESCRIPTION: BCSCAN returns the current or next ' ' or ',' index in I
     1819     5926                          or returns LOGON.LEN if no ',' or ' ' exists
     1820     5927        */
     1821     5928    3   DO WHILE ('1'B);
     1822     5929    3      IF ((LOGON.LEN = I) OR
     1823     5930    3           (SUBSTR (LOGON.TXT, I, 1) = ',') OR
     1824     5931    3           (SUBSTR (LOGON.TXT, I, 1) = ' ') )
     1825     5932    3      THEN RETURN;
     1826     5933    3      ELSE I = I + 1;
     1827     5934    3      END;
     1828     5935    2   END BCSCAN;
     1829     5936        %EJECT;
PL6.E3A0      #011=GJA$PARSE File=GJA$SUBS.:E05TSI                               TUE 07/29/97 21:58 Page:298
     1830     5937    1   NBSCAN: PROC ALTRET;
     1831     5938        /*I* NAME:        NBSCAN
     1832     5939             PURPOSE:     To scan to next non-blank character
     1833     5940             DESCRIPTION: NBSCAN returns in I the current or next non-blank
     1834     5941                          character index or ALTRETURNs if the rest of the
     1835     5942                          string is blank or no string is left.
     1836     5943        */
     1837     5944    3   DO I = I TO LOGON.LEN - 1;
     1838     5945    3      IF (SUBSTR (LOGON.TXT, I, 1) ~= ' ') THEN RETURN;
     1839     5946    3      END;
     1840     5947    2   ALTRETURN;
     1841     5948    2   END NBSCAN;
     1842     5949        %EJECT;
PL6.E3A0      #011=GJA$PARSE File=GJA$SUBS.:E05TSI                               TUE 07/29/97 21:58 Page:299
     1843     5950    1   GETNMN: PROC ALTRET;
     1844     5951        /*I* NAME:        GETNMN
     1845     5952             PURPOSE:     To return the next lexeme in TNAME with length in LEN
     1846     5953             DESCRIPTION: GETNMN skips over the current character, any intervening
     1847     5954                          blanks, and then falls through into GETNM to return
     1848     5955                          the next lexeme in TNAME with length of TNAME in LEN.
     1849     5956                          Trailing blanks will then be stripped off leaving I
     1850     5957                          as index of next non-blank character (or last character
     1851     5958                          of the string). If no non-blank characters are left,
     1852     5959                          GETNMN will ALTRETURN.
     1853     5960        */
     1854     5961    2   I = I + 1;
     1855     5962    2   IF (I >= LOGON.LEN) THEN ALTRETURN;
     1856     5963    2   CALL NBSCAN
     1857     5964    3   WHENALTRETURN DO;
     1858     5965    3      ALTRETURN;
     1859     5966    3      END;
     1860     5967
     1861     5968    2   GETNM: ENTRY ALTRET;
     1862     5969        /*I* NAME:        GETNM
     1863     5970             DESCRIPTION: GETNM scans from the current I location looking for
     1864     5971                          a ' ', ',' or end-of-string. Everything in between is
     1865     5972                          returned in TNAME with length in LEN. LEN may be returned
     1866     5973                          as 0.
     1867     5974        */
     1868     5975    2   J = I;
     1869     5976    2   CALL BCSCAN
     1870     5977    3   WHENALTRETURN DO;
     1871     5978    3      END;
     1872     5979    2   LEN = I - J;
     1873     5980    2   TNAME = SUBSTR (LOGON.TXT, J, LEN);
     1874     5981    2   IF ((I < LOGON.LEN) AND
     1875     5982    2        (SUBSTR(LOGON.TXT,I,1) = ' ') )
     1876     5983    3   THEN DO;  /* Position i on the next nonblank */
     1877     5984    3      CALL NBSCAN
     1878     5985    4      WHENRETURN DO;
     1879     5986    4         END;
PL6.E3A0      #011=GJA$PARSE File=GJA$SUBS.:E05TSI                               TUE 07/29/97 21:58 Page:300
     1880     5987    4      WHENALTRETURN DO;
     1881     5988    4         END;
     1882     5989    3      END;
     1883     5990    2   RETURN;
     1884     5991    2   END GETNMN;
     1885     5992    1   END GJA$PARSE;

PL6.E3A0      #011=GJA$PARSE File=GJA$SUBS.:E05TSI                               TUE 07/29/97 21:58 Page:301
--  Include file information  --

   CP_6_C.:E05TOU  is referenced.
   CP_6.:E05TOU  cannot be made into a system file and is referenced.
   KL_ERRORS_C.:E05TOU  is referenced.
      No diagnostics issued in procedure GJA$PARSE.

   Procedure GJA$PARSE requires 1162 words for executable code.
   Procedure GJA$PARSE requires 114 words of local(AUTO) storage.

    No errors detected in file GJA$SUBS.:E05TSI    .

PL6.E3A0      #011=GJA$PARSE File=GJA$SUBS.:E05TSI                               TUE 07/29/97 21:58 Page:302

 Object Unit name= GJA$PARSE                                  File name= GJA$SUBS.:E05TOU
 UTS= JUL 29 '97 21:58:34.96 TUE                              Compiler= PL-6/E31         Sev=      00
 SharedLib= :SHARED_LCP6_SYSTEM                               Alt SharedLib=


    ****  Control sections  ****

 Sect   Type Bound  Init  Size HexSiz  Section name
    0   DCB   even  none     0      0  M$UC
    1   Data  even  none   256    100  GJA$PARSE
    2  RoData even  UTS      4      4  GJA$PARSE
    3   Proc  even  none  1162    48A  GJA$PARSE
    4  RoData even  none     1      1  GJA$PARSE

    ****  Entry defs  ****

                              Check   Calling
                             calling  sequence
  Sect HexLoc Primary Altret sequence   type   Parms  Name
     3      0   yes    yes     yes      Std        9  GJA$PARSE

  ****  Entry refs  ****

         Check        Calling
        calling       sequence
Altret sequence SRef   type   Args  Name
                       nStd      0 X6A_AUTO_N
                       nStd      0 X6A_ARET
                       nStd      0 X6C_ALR
                       nStd      0 X6A_AALT

  ****  Data refs  ****

  Flags:  r = read only, s = secondary
Flgs Name                             Flgs Name                             Flgs Name
     M$UC                             r    G$ROS$
PL6.E3A0      #011=GJA$PARSE File=GJA$SUBS.:E05TSI                               TUE 07/29/97 21:58 Page:303


     1493        1        /*T***********************************************************/
     1494        2        /*T*                                                         */
     1495        3        /*T* Copyright (c) Bull HN Information Systems Inc., 1997    */
     1496        4        /*T*                                                         */
     1497        5        /*T***********************************************************/
     1498        6        %EJECT;
PL6.E3A0      #011=GJA$PARSE File=GJA$SUBS.:E05TSI                               TUE 07/29/97 21:58 Page:304
     1499        7        /*M* GJA$PARSE - Sign on scanner */
     1500        8        /*X*  DMC,DMR,CCC,PLM=0,IND=3,CTI=5,DCI=6,IAD=0,DTI=0,IDT=0,ENI=3,
     1501        9              ECU=3,CSU=3,SDI=3                                           */
     1502       10
     1503       11        GJA$PARSE: PROC (LOGON,ACCT,NAME,PW,PRO,ERR,HOST,NOSETUP,NOHEADER) ALTRET;

     11   3 000000  D380 0000 0000  xent GJA$PARSE       LNJ,B5   X6A_AUTO_N
          3 000003       0072 0009                       DC       114,9

     1504       12        /*D* NAME:        GJA$PARSE
     1505       13             PURPOSE:     To scan the LOGON for logon ACCT, NAME, PW and PRO
     1506       14         CALL:       CALL GJA$PARSE(LOGON,ACCT,NAME,PW,PRO,ERR,HOST,NOSETUP,NOHEADER) ALTRE
                14        T(LBL);
     1507       15             INPUT:       LOGON - The logon message structure in TEXTC format
     1508       16             OUTPUT:      ACCT - Account to log on
     1509       17                          NAME - Name to log on
     1510       18                          PW - Password to log on
     1511       19                          PRO - Profile to use for the device (only if specified)
     1512       20                          ERR - An error condition (%E$SGSYN or %E$BDID) if
     1513       21                                an error occurs.
     1514       22                          HOST - The host name if specified.
     1515       23                          NOSETUP - If nosetup option was specified.
     1516       24                          NOHEADER - If noheader option was specified.
     1517       25             DESCRIPTION: GJA$PARSE scans off ACCT, NAME, PW, NS, PRO, and HOST from
     1518       26                          KL$SGN.LOGON and returns. If any parsing errors occur,
     1519       27                          an error will be returned in ERR and GJA$PARSE will ALTRET.
     1520       28                          The string being scanned for takes on the form below:
     1521       29               [('!'|'/')- STR1] NAME [','[ACCT] [','PW]] ['N/O' 'S/ETUP']
     1522       30               ['PRO/FILE' '=' PRO] ['H/OST' '=' HOST] ['N/O' 'H/EADER']
     1523       31                             where STR1 is any string not containing ' ' or ','
     1524       32                                   ACCT is the account
     1525       33                                   NAME is the name
     1526       34                                   PW is the password
     1527       35                                   PRO is the specified profile name
     1528       36                                   NS means No Setup
     1529       37                                   NH means no header (SYSID msg at logon)
     1530       38                                   HOST is the host system to be connected to
PL6.E3A0      #011=GJA$PARSE File=GJA$SUBS.:E05TSI                               TUE 07/29/97 21:58 Page:305
     1531       39                          A set of defaults for unspecified portions is provided:
     1532       40                             ACCT - no default
     1533       41                             NAME - '*'
     1534       42                             PW   - all blanks
     1535       43                             NOSETUP - '0'B
     1536       44                             NOHEADER - '0'B
     1537       45                             PRO  - length of zero
     1538       46                             HOST - Current host name
     1539       47        */
     1540       48        /*N* ADDITIONAL_OPTIONS - In order to add additional options the following
     1541       49                  procedure should be followed.
     1542       50                     1) Add the option to this module and put it in the parameter list
     1543       51                  for the call to GJA$PARSE.
     1544       52                     2) In the file KL_MACRO_C add to the KL$PCD structure a field to
     1545       53                  temporarily hold this option.  There are some unused bits after the
     1546       54                  NOSETUP and the NOHEADER options.
     1547       55                     3) In KLH$HLP fix the entry DCL and call for GJA$PARSE and add
     1548       56                  the code to put the new parameter into the PCD structure.  In a
     1549       57                  totally different part of the file is where this new option goes from
     1550       58                  the PCD structure into the JIT.
     1551       59                     4) Fix the following modules as needed since they are the ones
     1552       60                  currently known to call PARSE;
     1553       61                        ALA$LOGON
     1554       62                        KFF$FEBOOT
     1555       63                        KLI$FESET
     1556       64                     minimally these routines need the entry dcls and calling sequences
     1557       65                  updated.
     1558       66        */
     1559       67        %INCLUDE KL_ERRORS_C;
     1560      109        %INCLUDE CP_6;
     1561     5668    1   DCL 1 LOGON,
     1562     5669    1          2 LEN UBIN BYTE UNAL,
     1563     5670    1          2 TXT CHAR(139);
     1564     5671    1   DCL ACCT CHAR(8);
     1565     5672    1   DCL 1 NAME ALIGNED,
     1566     5673    1          2 C UBIN BYTE UNAL,
     1567     5674    1          2 T CHAR(12) UNAL;
PL6.E3A0      #011=GJA$PARSE File=GJA$SUBS.:E05TSI                               TUE 07/29/97 21:58 Page:306
     1568     5675    1   DCL PW CHAR(8);
     1569     5676    1   DCL 1 PRO ALIGNED,
     1570     5677    1          2 C UBIN BYTE UNAL,
     1571     5678    1          2 T CHAR(11) UNAL;
     1572     5679    1   DCL ERR UBIN;
     1573     5680    1   DCL HOST CHAR(8);
     1574     5681    1   DCL NOSETUP BIT (1) ALIGNED;
     1575     5682    1   DCL NOHEADER BIT (1) ALIGNED;
     1576     5683    1   DCL I UBIN WORD;
     1577     5684    1   DCL J UBIN WORD;
     1578     5685    1   DCL LEN UBIN WORD;
     1579     5686    1   DCL TNAME CHAR(16);
     1580     5687    1   DCL XLOGON CHAR (139);
     1581     5688        /*F* NAME: B_XL_UPPER_UR
     1582     5689        PURPOSE: Table to translate to uppercase Unit Record character set.
     1583     5690        DESCRIPTION:
     1584     5691                This table translates all characters to their modulo 128
     1585     5692                equivalents, and changes all unprintable characters to a
     1586     5693                blank, except for TAB, which remains intact.
     1587     5694                Lowercase alphabetic characters are translated to their
     1588     5695                uppercase equivalents.
     1589     5696        */
     1590     5697
     1591     5698    1   DCL B_XL_UPPER_UR( 0:511 ) CHAR(1) STATIC INIT(
     1592     5699    1       ' '*9,BITASC('011'O),' '*22,
     1593     5700    1       ' ','!','"','#','$','%','&','''','(',')','*','+',',','-','.','/',
     1594     5701    1       '0','1','2','3','4','5','6','7','8','9',':',';','<','=','>','?',
     1595     5702    1       '@','A','B','C','D','E','F','G','H','I','J','K','L','M','N','O',
     1596     5703    1       'P','Q','R','S','T','U','V','W','X','Y','Z','[','\',']','^','_',
     1597     5704    1       '`','A','B','C','D','E','F','G','H','I','J','K','L','M','N','O',
     1598     5705    1       'P','Q','R','S','T','U','V','W','X','Y','Z','{','|','}','~',' ',
     1599     5706    1       ' '*9,BITASC('011'O),' '*22,
     1600     5707    1       ' ','!','"','#','$','%','&','''','(',')','*','+',',','-','.','/',
     1601     5708    1       '0','1','2','3','4','5','6','7','8','9',':',';','<','=','>','?',
     1602     5709    1       '@','A','B','C','D','E','F','G','H','I','J','K','L','M','N','O',
     1603     5710    1       'P','Q','R','S','T','U','V','W','X','Y','Z','[','\',']','^','_',
     1604     5711    1       '`','A','B','C','D','E','F','G','H','I','J','K','L','M','N','O',
PL6.E3A0      #011=GJA$PARSE File=GJA$SUBS.:E05TSI                               TUE 07/29/97 21:58 Page:307
     1605     5712    1       'P','Q','R','S','T','U','V','W','X','Y','Z','{','|','}','~',' ',
     1606     5713    1       ' '*9,BITASC('011'O),' '*22,
     1607     5714    1       ' ','!','"','#','$','%','&','''','(',')','*','+',',','-','.','/',
     1608     5715    1       '0','1','2','3','4','5','6','7','8','9',':',';','<','=','>','?',
     1609     5716    1       '@','A','B','C','D','E','F','G','H','I','J','K','L','M','N','O',
     1610     5717    1       'P','Q','R','S','T','U','V','W','X','Y','Z','[','\',']','^','_',
     1611     5718    1       '`','A','B','C','D','E','F','G','H','I','J','K','L','M','N','O',
     1612     5719    1       'P','Q','R','S','T','U','V','W','X','Y','Z','{','|','}','~',' ',
     1613     5720    1       ' '*9,BITASC('011'O),' '*22,
     1614     5721    1       ' ','!','"','#','$','%','&','''','(',')','*','+',',','-','.','/',
     1615     5722    1       '0','1','2','3','4','5','6','7','8','9',':',';','<','=','>','?',
     1616     5723    1       '@','A','B','C','D','E','F','G','H','I','J','K','L','M','N','O',
     1617     5724    1       'P','Q','R','S','T','U','V','W','X','Y','Z','[','\',']','^','_',
     1618     5725    1       '`','A','B','C','D','E','F','G','H','I','J','K','L','M','N','O',
     1619     5726    1       'P','Q','R','S','T','U','V','W','X','Y','Z','{','|','}','~',' ' );
     1620     5727        %EJECT;
PL6.E3A0      #011=GJA$PARSE File=GJA$SUBS.:E05TSI                               TUE 07/29/97 21:58 Page:308
     1621     5728    1   ACCT = ' ';

   5728   3 000005  8CC7 0006                            LDI      @ACCT,AUTO
          3 000007  B856                                 LDR,R3   R6
          3 000008  E570 7FFF                            AND,R6   32767,IMO
          3 00000A  8D47 006C                            SDI      XLOGON+75,AUTO
          3 00000C  ECC7 006C                            LDB,B6   XLOGON+75,AUTO
          3 00000E  304F                                 SOR,R3   15
          3 00000F  0021                                 ALR      ;
          3 000010       4178 2000                                ALPHANUM('2000'X,IMO,,1),;
          3 000012       4836 0000                                ALPHANUM(0,B6,R3,,8,FILL)

     1622     5729    1   NAME.C = 1;

   5729   3 000014  6C01                                 LDV,R6   1
          3 000015  437F                                 CSYNC    s:5729,SPREL
          3 000016  DCC7 0008                            LDB,B5   @NAME,AUTO
          3 000018  E785                                 STH,R6   ,B5

     1623     5730    1   NAME.T = '*';

   5730   3 000019  0021                                 ALR      ;
          3 00001A       4178 2A00                                ALPHANUM('2A00'X,IMO,,1),;
          3 00001C       CC05 0000                                ALPHANUM(0,B5,1,12,FILL)

     1624     5731    1   PW = ' ';

   5731   3 00001E  437F                                 CSYNC    s:5730+4,SPREL
          3 00001F  8CC7 000A                            LDI      @PW,AUTO
          3 000021  B856                                 LDR,R3   R6
          3 000022  E570 7FFF                            AND,R6   32767,IMO
          3 000024  8D47 006C                            SDI      XLOGON+75,AUTO
          3 000026  ECC7 006C                            LDB,B6   XLOGON+75,AUTO
          3 000028  304F                                 SOR,R3   15
          3 000029  0021                                 ALR      ;
          3 00002A       4178 2000                                ALPHANUM('2000'X,IMO,,1),;
          3 00002C       4836 0000                                ALPHANUM(0,B6,R3,,8,FILL)
PL6.E3A0      #011=GJA$PARSE File=GJA$SUBS.:E05TSI                               TUE 07/29/97 21:58 Page:309

     1625     5732    1   PRO.C = 0;

   5732   3 00002E  437F                                 CSYNC    s:5731+15,SPREL
          3 00002F  CCC7 000C                            LDB,B4   @PRO,AUTO
          3 000031  8784                                 CLH      ,B4

     1626     5733    1   PRO.T = ' ';

   5733   3 000032  0021                                 ALR      ;
          3 000033       4178 2000                                ALPHANUM('2000'X,IMO,,1),;
          3 000035       CB04 0000                                ALPHANUM(0,B4,1,11,FILL)

     1627     5734    1   HOST = ' ';

   5734   3 000037  437F                                 CSYNC    s:5733+4,SPREL
          3 000038  8CC7 0010                            LDI      @HOST,AUTO
          3 00003A  B856                                 LDR,R3   R6
          3 00003B  E570 7FFF                            AND,R6   32767,IMO
          3 00003D  8D47 006C                            SDI      XLOGON+75,AUTO
          3 00003F  ECC7 006C                            LDB,B6   XLOGON+75,AUTO
          3 000041  304F                                 SOR,R3   15
          3 000042  0021                                 ALR      ;
          3 000043       4178 2000                                ALPHANUM('2000'X,IMO,,1),;
          3 000045       4836 0000                                ALPHANUM(0,B6,R3,,8,FILL)

     1628     5735    1   NOSETUP = '0'B;

   5735   3 000047  437F                                 CSYNC    s:5734+15,SPREL
          3 000048  BCC7 0012                            LDB,B3   @NOSETUP,AUTO
          3 00004A  8703                                 CL       ,B3

     1629     5736    1   NOHEADER = '0'B;

   5736   3 00004B  ACC7 0014                            LDB,B2   @NOHEADER,AUTO
          3 00004D  8702                                 CL       ,B2

PL6.E3A0      #011=GJA$PARSE File=GJA$SUBS.:E05TSI                               TUE 07/29/97 21:58 Page:310
     1630     5737    1   I = 0;

   5737   3 00004E  8747 0016                            CL       I,AUTO

     1631     5738
     1632     5739        /* should be restricted by maxnmbbyt on read. */
     1633     5740    1   IF (LOGON.LEN = 0 OR LOGON.LEN > LENGTHC(LOGON.TXT)) THEN GOTO BADID;

   5740   3 000050  8CC7 0004                            LDI      @LOGON,AUTO
          3 000052  B856                                 LDR,R3   R6
          3 000053  E570 7FFF                            AND,R6   32767,IMO
          3 000055  8D47 006C                            SDI      XLOGON+75,AUTO
          3 000057  ECC7 006C                            LDB,B6   XLOGON+75,AUTO
          3 000059  304F                                 SOR,R3   15
          3 00005A  D2B6                                 LLH,R5   ,B6,R3
          3 00005B  5901 034B                            BEZ,R5   s:5919,PREL
          3 00005D  8CC7 0004                            LDI      @LOGON,AUTO
          3 00005F  B856                                 LDR,R3   R6
          3 000060  E570 7FFF                            AND,R6   32767,IMO
          3 000062  8D47 006E                            SDI      XLOGON+77,AUTO
          3 000064  9CC7 006E                            LDB,B1   XLOGON+77,AUTO
          3 000066  304F                                 SOR,R3   15
          3 000067  D2B1                                 LLH,R5   ,B1,R3
          3 000068  D970 008B                            CMR,R5   139,IMO
          3 00006A  0A01 033C                            BAG      s:5919,PREL

     1634     5741    1   IF ( (LOGON.LEN = 1) AND

   5741   3 00006C  8CC7 0004                            LDI      @LOGON,AUTO
          3 00006E  B856                                 LDR,R3   R6
          3 00006F  E570 7FFF                            AND,R6   32767,IMO
          3 000071  8D47 006C                            SDI      XLOGON+75,AUTO
          3 000073  ECC7 006C                            LDB,B6   XLOGON+75,AUTO
          3 000075  304F                                 SOR,R3   15
          3 000076  D2B6                                 LLH,R5   ,B6,R3
          3 000077  5D01                                 CMV,R5   1
          3 000078  0981 0046                            BNE      s:5754,PREL
PL6.E3A0      #011=GJA$PARSE File=GJA$SUBS.:E05TSI                               TUE 07/29/97 21:58 Page:311
          3 00007A  8CC7 0004                            LDI      @LOGON,AUTO
          3 00007C  B856                                 LDR,R3   R6
          3 00007D  E570 7FFF                            AND,R6   32767,IMO
          3 00007F  8D47 006E                            SDI      XLOGON+77,AUTO
          3 000081  9CC7 006E                            LDB,B1   XLOGON+77,AUTO
          3 000083  304F                                 SOR,R3   15
          3 000084  3E01                                 ADV,R3   1
          3 000085  D0B1                                 LDH,R5   ,B1,R3
          3 000086  5D3A                                 CMV,R5   58
          3 000087  0981 0037                            BNE      s:5754,PREL

     1635     5742    1        (SUBSTR (LOGON.TXT, 0, 1) = ':') )
     1636     5743    2   THEN DO;             /* Default ':SYS,LJS' for input ':' */

     1637     5744    2      ACCT = ':SYS';

   5744   3 000089  8CC7 0006                            LDI      @ACCT,AUTO
          3 00008B  B856                                 LDR,R3   R6
          3 00008C  E570 7FFF                            AND,R6   32767,IMO
          3 00008E  8D47 006C                            SDI      XLOGON+75,AUTO
          3 000090  ECC7 006C                            LDB,B6   XLOGON+75,AUTO
          3 000092  304F                                 SOR,R3   15
          3 000093  DB80 0000 0000  02                   LAB,B5   0
          3 000096  0021                                 ALR      ;
          3 000097       4405 0000                                ALPHANUM(0,B5,,4),;
          3 000099       4836 0000                                ALPHANUM(0,B6,R3,,8,FILL)

     1638     5745    2      NOSETUP = '0'B;

   5745   3 00009B  437F                                 CSYNC    s:5744+17,SPREL
          3 00009C  8703                                 CL       ,B3

     1639     5746    2      NOHEADER = '0'B;

   5746   3 00009D  8702                                 CL       ,B2

     1640     5747    2      NAME.C = 3;
PL6.E3A0      #011=GJA$PARSE File=GJA$SUBS.:E05TSI                               TUE 07/29/97 21:58 Page:312

   5747   3 00009E  6C03                                 LDV,R6   3
          3 00009F  DCC7 0008                            LDB,B5   @NAME,AUTO
          3 0000A1  E785                                 STH,R6   ,B5

     1641     5748    2      NAME.T = 'LJS';

   5748   3 0000A2  EB80 0000 0000  02                   LAB,B6   0
          3 0000A5  0021                                 ALR      ;
          3 0000A6       4306 0002                                ALPHANUM(2,B6,,3),;
          3 0000A8       CC05 0000                                ALPHANUM(0,B5,1,12,FILL)

     1642     5749    2      PW = ' ';

   5749   3 0000AA  437F                                 CSYNC    s:5748+7,SPREL
          3 0000AB  8CC7 000A                            LDI      @PW,AUTO
          3 0000AD  B856                                 LDR,R3   R6
          3 0000AE  E570 7FFF                            AND,R6   32767,IMO
          3 0000B0  8D47 006C                            SDI      XLOGON+75,AUTO
          3 0000B2  ECC7 006C                            LDB,B6   XLOGON+75,AUTO
          3 0000B4  304F                                 SOR,R3   15
          3 0000B5  0021                                 ALR      ;
          3 0000B6       4178 2000                                ALPHANUM('2000'X,IMO,,1),;
          3 0000B8       4836 0000                                ALPHANUM(0,B6,R3,,8,FILL)

     1643     5750    2      PRO.C = 0;

   5750   3 0000BA  437F                                 CSYNC    s:5749+15,SPREL
          3 0000BB  8784                                 CLH      ,B4

     1644     5751    2      RETURN;

   5751   3 0000BC  C380 0000 0000  xent                 LNJ,B4   X6A_ARET

     1645     5752    2      END;
     1646     5753
     1647     5754    1   IF ((SUBSTR (LOGON.TXT, 0, 1) = '!') OR
PL6.E3A0      #011=GJA$PARSE File=GJA$SUBS.:E05TSI                               TUE 07/29/97 21:58 Page:313

   5754   3 0000BF  8CC7 0004                            LDI      @LOGON,AUTO
          3 0000C1  B856                                 LDR,R3   R6
          3 0000C2  E570 7FFF                            AND,R6   32767,IMO
          3 0000C4  8D47 006C                            SDI      XLOGON+75,AUTO
          3 0000C6  ECC7 006C                            LDB,B6   XLOGON+75,AUTO
          3 0000C8  304F                                 SOR,R3   15
          3 0000C9  3E01                                 ADV,R3   1
          3 0000CA  D0B6                                 LDH,R5   ,B6,R3
          3 0000CB  5D21                                 CMV,R5   33
          3 0000CC  0901 0010                            BE       s:5756,PREL
          3 0000CE  8CC7 0004                            LDI      @LOGON,AUTO
          3 0000D0  B856                                 LDR,R3   R6
          3 0000D1  E570 7FFF                            AND,R6   32767,IMO
          3 0000D3  8D47 006E                            SDI      XLOGON+77,AUTO
          3 0000D5  9CC7 006E                            LDB,B1   XLOGON+77,AUTO
          3 0000D7  304F                                 SOR,R3   15
          3 0000D8  3E01                                 ADV,R3   1
          3 0000D9  D0B1                                 LDH,R5   ,B1,R3
          3 0000DA  5D2F                                 CMV,R5   47
          3 0000DB  0981 0004                            BNE      s:5758,PREL

     1648     5755    1        (SUBSTR (LOGON.TXT, 0, 1) = '/') )
     1649     5756    1   THEN CALL BCSCAN ALTRET (BADID);  /* Get start of logon */

   5756   3 0000DD  E3C0 02D1                            LNJ,B6   s:0,PREL
          3 0000DF       02C8                            DC       s:5919,PREL

     1650     5757
     1651     5758    1   IF (SUBSTR (LOGON.TXT, I, 1) = ' ')

   5758   3 0000E0  8CC7 0004                            LDI      @LOGON,AUTO
          3 0000E2  B856                                 LDR,R3   R6
          3 0000E3  E570 7FFF                            AND,R6   32767,IMO
          3 0000E5  8D47 006C                            SDI      XLOGON+75,AUTO
          3 0000E7  ECC7 006C                            LDB,B6   XLOGON+75,AUTO
          3 0000E9  304F                                 SOR,R3   15
PL6.E3A0      #011=GJA$PARSE File=GJA$SUBS.:E05TSI                               TUE 07/29/97 21:58 Page:314
          3 0000EA  BA47 0016                            ADD,R3   I,AUTO
          3 0000EC  3E01                                 ADV,R3   1
          3 0000ED  D0B6                                 LDH,R5   ,B6,R3
          3 0000EE  5D20                                 CMV,R5   32
          3 0000EF  0981 0004                            BNE      s:5763,PREL

     1652     5759    1   THEN CALL NBSCAN ALTRET (BADID); /* Skip excess blanks */

   5759   3 0000F1  E3C0 02F7                            LNJ,B6   s:0,PREL
          3 0000F3       02B4                            DC       s:5919,PREL

     1653     5760
     1654     5761        /* Now we are at the begining of the account, pick it up. */
     1655     5762
     1656     5763    1   IF (SUBSTR (LOGON.TXT, I, 1) = ',')

   5763   3 0000F4  8CC7 0004                            LDI      @LOGON,AUTO
          3 0000F6  B856                                 LDR,R3   R6
          3 0000F7  E570 7FFF                            AND,R6   32767,IMO
          3 0000F9  8D47 006C                            SDI      XLOGON+75,AUTO
          3 0000FB  ECC7 006C                            LDB,B6   XLOGON+75,AUTO
          3 0000FD  304F                                 SOR,R3   15
          3 0000FE  BA47 0016                            ADD,R3   I,AUTO
          3 000100  3E01                                 ADV,R3   1
          3 000101  D0B6                                 LDH,R5   ,B6,R3
          3 000102  5D2C                                 CMV,R5   44
          3 000103  0981 0003                            BNE      s:5767,PREL

     1657     5764    2   THEN DO; /* Account cant start with a ',' */

     1658     5765    2      GOTO BADID;

   5765   3 000105  0F81 02A1                            B        s:5919,PREL

     1659     5766    2      END;
     1660     5767    1   CALL GETNM ALTRET (BADID);  /* That get us the account */

PL6.E3A0      #011=GJA$PARSE File=GJA$SUBS.:E05TSI                               TUE 07/29/97 21:58 Page:315
   5767   3 000107  E3C0 0334                            LNJ,B6   s:0,PREL
          3 000109       029E                            DC       s:5919,PREL

     1661     5768    1   IF (LEN > LENGTHC (ACCT))

   5768   3 00010A  E847 0018                            LDR,R6   LEN,AUTO
          3 00010C  6D08                                 CMV,R6   8
          3 00010D  0381 0003                            BLE      s:5772,PREL

     1662     5769    2   THEN DO;

     1663     5770    2      GOTO BADID;

   5770   3 00010F  0F81 0297                            B        s:5919,PREL

     1664     5771    2      END;
     1665     5772    1   ACCT = TNAME; /* It's good, let's use it. */

   5772   3 000111  8CC7 0006                            LDI      @ACCT,AUTO
          3 000113  B856                                 LDR,R3   R6
          3 000114  E570 7FFF                            AND,R6   32767,IMO
          3 000116  8D47 006C                            SDI      XLOGON+75,AUTO
          3 000118  ECC7 006C                            LDB,B6   XLOGON+75,AUTO
          3 00011A  304F                                 SOR,R3   15
          3 00011B  AB87                                 LAB,B2   ,AUTO
          3 00011C  2C32                                 LDV,R2   50
          3 00011D  6C08                                 LDV,R6   8
          3 00011E  BB86                                 LAB,B3   ,B6
          3 00011F  0008                                 MMM

     1666     5773
     1667     5774        /* Now get the username */
     1668     5775
     1669     5776    1   IF ((I < LOGON.LEN) AND

   5776   3 000120  8CC7 0004                            LDI      @LOGON,AUTO
          3 000122  B856                                 LDR,R3   R6
PL6.E3A0      #011=GJA$PARSE File=GJA$SUBS.:E05TSI                               TUE 07/29/97 21:58 Page:316
          3 000123  E570 7FFF                            AND,R6   32767,IMO
          3 000125  8D47 006C                            SDI      XLOGON+75,AUTO
          3 000127  DCC7 006C                            LDB,B5   XLOGON+75,AUTO
          3 000129  304F                                 SOR,R3   15
          3 00012A  D2B5                                 LLH,R5   ,B5,R3
          3 00012B  D947 0016                            CMR,R5   I,AUTO
          3 00012D  0381 0082                            BLE      s:5812,PREL
          3 00012F  8CC7 0004                            LDI      @LOGON,AUTO
          3 000131  B856                                 LDR,R3   R6
          3 000132  E570 7FFF                            AND,R6   32767,IMO
          3 000134  8D47 006E                            SDI      XLOGON+77,AUTO
          3 000136  CCC7 006E                            LDB,B4   XLOGON+77,AUTO
          3 000138  304F                                 SOR,R3   15
          3 000139  BA47 0016                            ADD,R3   I,AUTO
          3 00013B  3E01                                 ADV,R3   1
          3 00013C  D0B4                                 LDH,R5   ,B4,R3
          3 00013D  5D2C                                 CMV,R5   44
          3 00013E  0981 0071                            BNE      s:5812,PREL

     1670     5777    1        (SUBSTR (LOGON.TXT, I, 1) = ',') )
     1671     5778    2   THEN DO; /* Get the uname it's next */

     1672     5779    2      CALL GETNMN ALTRET (BADID);

   5779   3 000140  E3C0 02D9                            LNJ,B6   s:0,PREL
          3 000142       0265                            DC       s:5919,PREL

     1673     5780    2      IF (LEN > LENGTHC (NAME.T))

   5780   3 000143  E847 0018                            LDR,R6   LEN,AUTO
          3 000145  6D0C                                 CMV,R6   12
          3 000146  0381 0003                            BLE      s:5784,PREL

     1674     5781    3      THEN DO;

     1675     5782    3         GOTO BADID;

PL6.E3A0      #011=GJA$PARSE File=GJA$SUBS.:E05TSI                               TUE 07/29/97 21:58 Page:317
   5782   3 000148  0F81 025E                            B        s:5919,PREL

     1676     5783    3         END;
     1677     5784    2      IF (LEN > 0)

   5784   3 00014A  6901 000A                            BEZ,R6   s:5792,PREL

     1678     5785    3      THEN DO; /* We have a good username, let's use it. */

     1679     5786    3         NAME.C = LEN;

   5786   3 00014C  ECC7 0008                            LDB,B6   @NAME,AUTO
          3 00014E  E786                                 STH,R6   ,B6

     1680     5787    3         NAME.T = TNAME;

   5787   3 00014F  AB87                                 LAB,B2   ,AUTO
          3 000150  2C32                                 LDV,R2   50
          3 000151  6C0C                                 LDV,R6   12
          3 000152  BB86                                 LAB,B3   ,B6
          3 000153  3C01                                 LDV,R3   1
          3 000154  0008                                 MMM

     1681     5788    3         END;

     1682     5789
     1683     5790        /* Now get the password */
     1684     5791
     1685     5792    2      IF ((I < LOGON.LEN) AND

   5792   3 000155  8CC7 0004                            LDI      @LOGON,AUTO
          3 000157  B856                                 LDR,R3   R6
          3 000158  E570 7FFF                            AND,R6   32767,IMO
          3 00015A  8D47 006C                            SDI      XLOGON+75,AUTO
          3 00015C  ECC7 006C                            LDB,B6   XLOGON+75,AUTO
          3 00015E  304F                                 SOR,R3   15
          3 00015F  D2B6                                 LLH,R5   ,B6,R3
PL6.E3A0      #011=GJA$PARSE File=GJA$SUBS.:E05TSI                               TUE 07/29/97 21:58 Page:318
          3 000160  D947 0016                            CMR,R5   I,AUTO
          3 000162  0381 004D                            BLE      s:5812,PREL
          3 000164  8CC7 0004                            LDI      @LOGON,AUTO
          3 000166  B856                                 LDR,R3   R6
          3 000167  E570 7FFF                            AND,R6   32767,IMO
          3 000169  8D47 006E                            SDI      XLOGON+77,AUTO
          3 00016B  DCC7 006E                            LDB,B5   XLOGON+77,AUTO
          3 00016D  304F                                 SOR,R3   15
          3 00016E  BA47 0016                            ADD,R3   I,AUTO
          3 000170  3E01                                 ADV,R3   1
          3 000171  D0B5                                 LDH,R5   ,B5,R3
          3 000172  5D2C                                 CMV,R5   44
          3 000173  0981 003C                            BNE      s:5812,PREL

     1686     5793    2           (SUBSTR (LOGON.TXT, I, 1) = ',') )
     1687     5794    3      THEN DO;

     1688     5795    3         CALL GETNMN ALTRET (BADID);

   5795   3 000175  E3C0 02A4                            LNJ,B6   s:0,PREL
          3 000177       0230                            DC       s:5919,PREL

     1689     5796    3         IF (LEN > LENGTHC (PW))

   5796   3 000178  E847 0018                            LDR,R6   LEN,AUTO
          3 00017A  6D08                                 CMV,R6   8
          3 00017B  0381 0003                            BLE      s:5800,PREL

     1690     5797    4         THEN DO;

     1691     5798    4            GOTO BADID;

   5798   3 00017D  0F81 0229                            B        s:5919,PREL

     1692     5799    4            END;
     1693     5800    3         PW = TNAME;  /* The password checks out, let's use it */

PL6.E3A0      #011=GJA$PARSE File=GJA$SUBS.:E05TSI                               TUE 07/29/97 21:58 Page:319
   5800   3 00017F  8CC7 000A                            LDI      @PW,AUTO
          3 000181  B856                                 LDR,R3   R6
          3 000182  E570 7FFF                            AND,R6   32767,IMO
          3 000184  8D47 006C                            SDI      XLOGON+75,AUTO
          3 000186  ECC7 006C                            LDB,B6   XLOGON+75,AUTO
          3 000188  304F                                 SOR,R3   15
          3 000189  AB87                                 LAB,B2   ,AUTO
          3 00018A  2C32                                 LDV,R2   50
          3 00018B  6C08                                 LDV,R6   8
          3 00018C  BB86                                 LAB,B3   ,B6
          3 00018D  0008                                 MMM

     1694     5801    3         IF ((I < LOGON.LEN) AND

   5801   3 00018E  8CC7 0004                            LDI      @LOGON,AUTO
          3 000190  B856                                 LDR,R3   R6
          3 000191  E570 7FFF                            AND,R6   32767,IMO
          3 000193  8D47 006C                            SDI      XLOGON+75,AUTO
          3 000195  DCC7 006C                            LDB,B5   XLOGON+75,AUTO
          3 000197  304F                                 SOR,R3   15
          3 000198  D2B5                                 LLH,R5   ,B5,R3
          3 000199  D947 0016                            CMR,R5   I,AUTO
          3 00019B  0381 0014                            BLE      s:5812,PREL
          3 00019D  8CC7 0004                            LDI      @LOGON,AUTO
          3 00019F  B856                                 LDR,R3   R6
          3 0001A0  E570 7FFF                            AND,R6   32767,IMO
          3 0001A2  8D47 006E                            SDI      XLOGON+77,AUTO
          3 0001A4  CCC7 006E                            LDB,B4   XLOGON+77,AUTO
          3 0001A6  304F                                 SOR,R3   15
          3 0001A7  BA47 0016                            ADD,R3   I,AUTO
          3 0001A9  3E01                                 ADV,R3   1
          3 0001AA  D0B4                                 LDH,R5   ,B4,R3
          3 0001AB  5D2C                                 CMV,R5   44
          3 0001AC  0981 0003                            BNE      s:5812,PREL

     1695     5802    3              (SUBSTR (LOGON.TXT, I, 1) = ',') )
     1696     5803    4         THEN DO; /* The logon string must have blanks after it*/
PL6.E3A0      #011=GJA$PARSE File=GJA$SUBS.:E05TSI                               TUE 07/29/97 21:58 Page:320

     1697     5804    4            GOTO BADID;

   5804   3 0001AE  0F81 01F8                            B        s:5919,PREL

     1698     5805    4            END;
     1699     5806    3         END;
     1700     5807    2      END; /* Of doing the password stuff. */
     1701     5808
     1702     5809        /* Now lets start scanning for the options... */
     1703     5810
     1704     5811        /* First convert the whole line to uppercase for the parsing. */
     1705     5812    1   CALL XLATE (XLOGON, B_XL_UPPER_UR, LOGON.TXT);

   5812   3 0001B0  8CC7 0004                            LDI      @LOGON,AUTO
          3 0001B2  B856                                 LDR,R3   R6
          3 0001B3  E570 7FFF                            AND,R6   32767,IMO
          3 0001B5  8D47 006C                            SDI      XLOGON+75,AUTO
          3 0001B7  ECC7 006C                            LDB,B6   XLOGON+75,AUTO
          3 0001B9  304F                                 SOR,R3   15
          3 0001BA  C870 008B                            LDR,R4   139,IMO
          3 0001BC  D870 008B                            LDR,R5   139,IMO
          3 0001BE  DB80 0000 0000  01                   LAB,B5   B_XL_UPPER_UR
          3 0001C1  E870 00FF                            LDR,R6   255,IMO
          3 0001C3  0023                                 MAT      ;
          3 0001C4       C036 0000                                ALPHANUM(0,B6,R3,1,R4),;
          3 0001C6       4007 0021                                ALPHANUM(XLOGON,AUTO,,R5,FILL),;
          3 0001C8       4005 0000                                ALPHANUM(0,B5,,256)

     1706     5813    1   SUBSTR(XLOGON,LOGON.LEN,LENGTHC(LOGON.TXT)-LOGON.LEN) = ' ';

   5813   3 0001CA  8CC7 0004                            LDI      @LOGON,AUTO
          3 0001CC  B856                                 LDR,R3   R6
          3 0001CD  E570 7FFF                            AND,R6   32767,IMO
          3 0001CF  437F                                 CSYNC    s:5813+4,SPREL
          3 0001D0  8D47 006C                            SDI      XLOGON+75,AUTO
          3 0001D2  ECC7 006C                            LDB,B6   XLOGON+75,AUTO
PL6.E3A0      #011=GJA$PARSE File=GJA$SUBS.:E05TSI                               TUE 07/29/97 21:58 Page:321
          3 0001D4  304F                                 SOR,R3   15
          3 0001D5  8CC7 0004                            LDI      @LOGON,AUTO
          3 0001D7  A856                                 LDR,R2   R6
          3 0001D8  E570 7FFF                            AND,R6   32767,IMO
          3 0001DA  8D47 006E                            SDI      XLOGON+77,AUTO
          3 0001DC  DCC7 006E                            LDB,B5   XLOGON+77,AUTO
          3 0001DE  204F                                 SOR,R2   15
          3 0001DF  92B6                                 LLH,R1   ,B6,R3
          3 0001E0  B2A5                                 LLH,R3   ,B5,R2
          3 0001E1  9F47 0070                            STR,R1   XLOGON+79,AUTO
          3 0001E3  BF47 0071                            STR,R3   XLOGON+80,AUTO
          3 0001E5  AB80 0000 0000  04                   LAB,B2   0
          3 0001E8  2C00                                 LDV,R2   0
          3 0001E9  6C01                                 LDV,R6   1
          3 0001EA  BB87                                 LAB,B3   ,AUTO
          3 0001EB  B851                                 LDR,R3   R1
          3 0001EC  3E42                                 ADV,R3   66
          3 0001ED  F847 0071                            LDR,R7   XLOGON+80,AUTO
          3 0001EF  8257                                 NEG      R7
          3 0001F0  FA70 008B                            ADD,R7   139,IMO
          3 0001F2  D380 0000 0000  xent                 LNJ,B5   X6C_ALR

     1707     5814
     1708     5815    1   CALL NBSCAN ALTRET (JUSTRET);

   5815   3 0001F5  E3C0 01F3                            LNJ,B6   s:0,PREL
          3 0001F7       01A5                            DC       s:5914,PREL

     1709     5816    2   DO WHILE (I < LOGON.LEN);

   5816   3 0001F8  8CC7 0004                            LDI      @LOGON,AUTO
          3 0001FA  B856                                 LDR,R3   R6
          3 0001FB  E570 7FFF                            AND,R6   32767,IMO
          3 0001FD  8D47 006C                            SDI      XLOGON+75,AUTO
          3 0001FF  ECC7 006C                            LDB,B6   XLOGON+75,AUTO
          3 000201  304F                                 SOR,R3   15
          3 000202  D2B6                                 LLH,R5   ,B6,R3
PL6.E3A0      #011=GJA$PARSE File=GJA$SUBS.:E05TSI                               TUE 07/29/97 21:58 Page:322
          3 000203  D947 0016                            CMR,R5   I,AUTO
          3 000205  0381 0196                            BLE      s:5914,PREL

     1710     5817    3      DO SELECT (SUBSTR (XLOGON, I, 1));

   5817   3 000207  B847 0016                            LDR,R3   I,AUTO
          3 000209  3E42                                 ADV,R3   66
          3 00020A  E0B7                                 LDH,R6   ,AUTO,R3
          3 00020B  6D4E                                 CMV,R6   78
          3 00020C  0201 0008                            BL       s:5817+14,PREL
          3 00020E  0901 00D3                            BE       s:5863,PREL
          3 000210  6D50                                 CMV,R6   80
          3 000211  0981 016A                            BNE      s:5904,PREL
          3 000213  0F81 005B                            B        s:5839,PREL
          3 000215  6D48                                 CMV,R6   72
          3 000216  0981 0165                            BNE      s:5904,PREL
          3 000218  0F81 0001                            B        s:5819,PREL

     1711     5818    3         SELECT ('H');

     1712     5819    3         I = I + 1;

   5819   3 00021A  8AC7 0016                            INC      I,AUTO

     1713     5820    3         IF (SUBSTR (XLOGON, I, 1) = 'O') THEN I = I + 1;

   5820   3 00021C  B847 0016                            LDR,R3   I,AUTO
          3 00021E  3E42                                 ADV,R3   66
          3 00021F  E0B7                                 LDH,R6   ,AUTO,R3
          3 000220  6D4F                                 CMV,R6   79
          3 000221  0981 0003                            BNE      s:5821,PREL

   5820   3 000223  8AC7 0016                            INC      I,AUTO

     1714     5821    3         IF (SUBSTR (XLOGON, I, 1) = 'S') THEN I = I + 1;

   5821   3 000225  B847 0016                            LDR,R3   I,AUTO
PL6.E3A0      #011=GJA$PARSE File=GJA$SUBS.:E05TSI                               TUE 07/29/97 21:58 Page:323
          3 000227  3E42                                 ADV,R3   66
          3 000228  E0B7                                 LDH,R6   ,AUTO,R3
          3 000229  6D53                                 CMV,R6   83
          3 00022A  0981 0003                            BNE      s:5822,PREL

   5821   3 00022C  8AC7 0016                            INC      I,AUTO

     1715     5822    3         IF (SUBSTR (XLOGON, I, 1) = 'T') THEN I = I + 1;

   5822   3 00022E  B847 0016                            LDR,R3   I,AUTO
          3 000230  3E42                                 ADV,R3   66
          3 000231  E0B7                                 LDH,R6   ,AUTO,R3
          3 000232  6D54                                 CMV,R6   84
          3 000233  0981 0003                            BNE      s:5823,PREL

   5822   3 000235  8AC7 0016                            INC      I,AUTO

     1716     5823    3         IF (I >= LOGON.LEN)

   5823   3 000237  8CC7 0004                            LDI      @LOGON,AUTO
          3 000239  B856                                 LDR,R3   R6
          3 00023A  E570 7FFF                            AND,R6   32767,IMO
          3 00023C  8D47 006C                            SDI      XLOGON+75,AUTO
          3 00023E  ECC7 006C                            LDB,B6   XLOGON+75,AUTO
          3 000240  304F                                 SOR,R3   15
          3 000241  D2B6                                 LLH,R5   ,B6,R3
          3 000242  D947 0016                            CMR,R5   I,AUTO
          3 000244  0301 0003                            BG       s:5827,PREL

     1717     5824    4         THEN DO;

     1718     5825    4            GOTO BADOPT;

   5825   3 000246  0F81 0158                            B        s:5916,PREL

     1719     5826    4            END;
     1720     5827    3         CALL NBSCAN ALTRET (BADOPT);
PL6.E3A0      #011=GJA$PARSE File=GJA$SUBS.:E05TSI                               TUE 07/29/97 21:58 Page:324

   5827   3 000248  E3C0 01A0                            LNJ,B6   s:0,PREL
          3 00024A       0155                            DC       s:5916,PREL

     1721     5828    3         IF (SUBSTR (XLOGON, I, 1) ~= '=')

   5828   3 00024B  B847 0016                            LDR,R3   I,AUTO
          3 00024D  3E42                                 ADV,R3   66
          3 00024E  E0B7                                 LDH,R6   ,AUTO,R3
          3 00024F  6D3D                                 CMV,R6   61
          3 000250  0901 0003                            BE       s:5832,PREL

     1722     5829    4         THEN DO;

     1723     5830    4            GOTO BADOPT;

   5830   3 000252  0F81 014C                            B        s:5916,PREL

     1724     5831    4            END;
     1725     5832    3         CALL GETNMN ALTRET (BADOPT);

   5832   3 000254  E3C0 01C5                            LNJ,B6   s:0,PREL
          3 000256       0149                            DC       s:5916,PREL

     1726     5833    3         IF (LEN > LENGTHC (HOST))

   5833   3 000257  E847 0018                            LDR,R6   LEN,AUTO
          3 000259  6D08                                 CMV,R6   8
          3 00025A  0381 0003                            BLE      s:5837,PREL

     1727     5834    4         THEN DO;

     1728     5835    4            GOTO BADOPT;

   5835   3 00025C  0F81 0142                            B        s:5916,PREL

     1729     5836    4            END;
PL6.E3A0      #011=GJA$PARSE File=GJA$SUBS.:E05TSI                               TUE 07/29/97 21:58 Page:325
     1730     5837    3         HOST = TNAME; /* We have a valid host, let's use it. */

   5837   3 00025E  8CC7 0010                            LDI      @HOST,AUTO
          3 000260  B856                                 LDR,R3   R6
          3 000261  E570 7FFF                            AND,R6   32767,IMO
          3 000263  8D47 006C                            SDI      XLOGON+75,AUTO
          3 000265  ECC7 006C                            LDB,B6   XLOGON+75,AUTO
          3 000267  304F                                 SOR,R3   15
          3 000268  AB87                                 LAB,B2   ,AUTO
          3 000269  2C32                                 LDV,R2   50
          3 00026A  6C08                                 LDV,R6   8
          3 00026B  BB86                                 LAB,B3   ,B6
          3 00026C  0008                                 MMM
          3 00026D  0F81 0110                            B        s:5906,PREL

     1731     5838    3         SELECT ('P');

     1732     5839    3         I = I + 1;

   5839   3 00026F  8AC7 0016                            INC      I,AUTO

     1733     5840    3         IF (SUBSTR (XLOGON, I, 1) = 'R') THEN I = I + 1;

   5840   3 000271  B847 0016                            LDR,R3   I,AUTO
          3 000273  3E42                                 ADV,R3   66
          3 000274  E0B7                                 LDH,R6   ,AUTO,R3
          3 000275  6D52                                 CMV,R6   82
          3 000276  0981 0003                            BNE      s:5841,PREL

   5840   3 000278  8AC7 0016                            INC      I,AUTO

     1734     5841    3         IF (SUBSTR (XLOGON, I, 1) = 'O') THEN I = I + 1;

   5841   3 00027A  B847 0016                            LDR,R3   I,AUTO
          3 00027C  3E42                                 ADV,R3   66
          3 00027D  E0B7                                 LDH,R6   ,AUTO,R3
          3 00027E  6D4F                                 CMV,R6   79
PL6.E3A0      #011=GJA$PARSE File=GJA$SUBS.:E05TSI                               TUE 07/29/97 21:58 Page:326
          3 00027F  0981 0003                            BNE      s:5842,PREL

   5841   3 000281  8AC7 0016                            INC      I,AUTO

     1735     5842    3         IF (SUBSTR (XLOGON, I, 1) = 'F') THEN I = I + 1;

   5842   3 000283  B847 0016                            LDR,R3   I,AUTO
          3 000285  3E42                                 ADV,R3   66
          3 000286  E0B7                                 LDH,R6   ,AUTO,R3
          3 000287  6D46                                 CMV,R6   70
          3 000288  0981 0003                            BNE      s:5843,PREL

   5842   3 00028A  8AC7 0016                            INC      I,AUTO

     1736     5843    3         IF (SUBSTR (XLOGON, I, 1) = 'I') THEN I = I + 1;

   5843   3 00028C  B847 0016                            LDR,R3   I,AUTO
          3 00028E  3E42                                 ADV,R3   66
          3 00028F  E0B7                                 LDH,R6   ,AUTO,R3
          3 000290  6D49                                 CMV,R6   73
          3 000291  0981 0003                            BNE      s:5844,PREL

   5843   3 000293  8AC7 0016                            INC      I,AUTO

     1737     5844    3         IF (SUBSTR (XLOGON, I, 1) = 'L') THEN I = I + 1;

   5844   3 000295  B847 0016                            LDR,R3   I,AUTO
          3 000297  3E42                                 ADV,R3   66
          3 000298  E0B7                                 LDH,R6   ,AUTO,R3
          3 000299  6D4C                                 CMV,R6   76
          3 00029A  0981 0003                            BNE      s:5845,PREL

   5844   3 00029C  8AC7 0016                            INC      I,AUTO

     1738     5845    3         IF (SUBSTR (XLOGON, I, 1) = 'E') THEN I = I + 1;

   5845   3 00029E  B847 0016                            LDR,R3   I,AUTO
PL6.E3A0      #011=GJA$PARSE File=GJA$SUBS.:E05TSI                               TUE 07/29/97 21:58 Page:327
          3 0002A0  3E42                                 ADV,R3   66
          3 0002A1  E0B7                                 LDH,R6   ,AUTO,R3
          3 0002A2  6D45                                 CMV,R6   69
          3 0002A3  0981 0003                            BNE      s:5846,PREL

   5845   3 0002A5  8AC7 0016                            INC      I,AUTO

     1739     5846    3         IF (I >= LOGON.LEN)

   5846   3 0002A7  8CC7 0004                            LDI      @LOGON,AUTO
          3 0002A9  B856                                 LDR,R3   R6
          3 0002AA  E570 7FFF                            AND,R6   32767,IMO
          3 0002AC  8D47 006C                            SDI      XLOGON+75,AUTO
          3 0002AE  ECC7 006C                            LDB,B6   XLOGON+75,AUTO
          3 0002B0  304F                                 SOR,R3   15
          3 0002B1  D2B6                                 LLH,R5   ,B6,R3
          3 0002B2  D947 0016                            CMR,R5   I,AUTO
          3 0002B4  0301 0003                            BG       s:5850,PREL

     1740     5847    4         THEN DO;

     1741     5848    4            GOTO BADOPT;

   5848   3 0002B6  0F81 00E8                            B        s:5916,PREL

     1742     5849    4            END;
     1743     5850    3         CALL NBSCAN ALTRET (BADOPT);

   5850   3 0002B8  E3C0 0130                            LNJ,B6   s:0,PREL
          3 0002BA       00E5                            DC       s:5916,PREL

     1744     5851    3         IF (SUBSTR (XLOGON, I, 1) ~= '=')

   5851   3 0002BB  B847 0016                            LDR,R3   I,AUTO
          3 0002BD  3E42                                 ADV,R3   66
          3 0002BE  E0B7                                 LDH,R6   ,AUTO,R3
          3 0002BF  6D3D                                 CMV,R6   61
PL6.E3A0      #011=GJA$PARSE File=GJA$SUBS.:E05TSI                               TUE 07/29/97 21:58 Page:328
          3 0002C0  0901 0003                            BE       s:5855,PREL

     1745     5852    4         THEN DO;

     1746     5853    4            GOTO BADOPT;

   5853   3 0002C2  0F81 00DC                            B        s:5916,PREL

     1747     5854    4            END;
     1748     5855    3         CALL GETNMN ALTRET (BADOPT);

   5855   3 0002C4  E3C0 0155                            LNJ,B6   s:0,PREL
          3 0002C6       00D9                            DC       s:5916,PREL

     1749     5856    3         IF (LEN > LENGTHC (PRO.T))

   5856   3 0002C7  E847 0018                            LDR,R6   LEN,AUTO
          3 0002C9  6D0B                                 CMV,R6   11
          3 0002CA  0381 0003                            BLE      s:5860,PREL

     1750     5857    4         THEN DO;

     1751     5858    4            GOTO BADOPT;

   5858   3 0002CC  0F81 00D2                            B        s:5916,PREL

     1752     5859    4            END;
     1753     5860    3         PRO.C = LEN;

   5860   3 0002CE  ECC7 000C                            LDB,B6   @PRO,AUTO
          3 0002D0  E786                                 STH,R6   ,B6

     1754     5861    3         CALL XLATE (SUBSTR (PRO.T, 0, LEN), B_XL_UPPER_UR, SUBSTR (TNAME, 0, LEN) );

   5861   3 0002D1  C856                                 LDR,R4   R6
          3 0002D2  D854                                 LDR,R5   R4
          3 0002D3  DB80 0000 0000  01                   LAB,B5   B_XL_UPPER_UR
PL6.E3A0      #011=GJA$PARSE File=GJA$SUBS.:E05TSI                               TUE 07/29/97 21:58 Page:329
          3 0002D6  E870 00FF                            LDR,R6   255,IMO
          3 0002D8  0023                                 MAT      ;
          3 0002D9       4007 0019                                ALPHANUM(TNAME,AUTO,,R4),;
          3 0002DB       C006 0000                                ALPHANUM(0,B6,1,R5,FILL),;
          3 0002DD       4005 0000                                ALPHANUM(0,B5,,256)
          3 0002DF  437F                                 CSYNC    s:5861+13,SPREL
          3 0002E0  0F81 009D                            B        s:5906,PREL

     1755     5862    3         SELECT ('N');

     1756     5863    3         I = I + 1;

   5863   3 0002E2  8AC7 0016                            INC      I,AUTO

     1757     5864    3         IF (SUBSTR (XLOGON, I, 1) = 'O') THEN I = I + 1;

   5864   3 0002E4  B847 0016                            LDR,R3   I,AUTO
          3 0002E6  3E42                                 ADV,R3   66
          3 0002E7  E0B7                                 LDH,R6   ,AUTO,R3
          3 0002E8  6D4F                                 CMV,R6   79
          3 0002E9  0981 0003                            BNE      s:5865,PREL

   5864   3 0002EB  8AC7 0016                            INC      I,AUTO

     1758     5865    3         IF (SUBSTR (XLOGON, I, 1) = 'S')

   5865   3 0002ED  B847 0016                            LDR,R3   I,AUTO
          3 0002EF  3E42                                 ADV,R3   66
          3 0002F0  E0B7                                 LDH,R6   ,AUTO,R3
          3 0002F1  6D53                                 CMV,R6   83
          3 0002F2  0981 003E                            BNE      s:5882,PREL

     1759     5866    4         THEN DO;

     1760     5867    4            I = I + 1;

   5867   3 0002F4  8AC7 0016                            INC      I,AUTO
PL6.E3A0      #011=GJA$PARSE File=GJA$SUBS.:E05TSI                               TUE 07/29/97 21:58 Page:330

     1761     5868    4            IF (SUBSTR (XLOGON, I, 1) = 'E') THEN I = I + 1;

   5868   3 0002F6  B847 0016                            LDR,R3   I,AUTO
          3 0002F8  3E42                                 ADV,R3   66
          3 0002F9  E0B7                                 LDH,R6   ,AUTO,R3
          3 0002FA  6D45                                 CMV,R6   69
          3 0002FB  0981 0003                            BNE      s:5869,PREL

   5868   3 0002FD  8AC7 0016                            INC      I,AUTO

     1762     5869    4            IF (SUBSTR (XLOGON, I, 1) = 'T') THEN I = I + 1;

   5869   3 0002FF  B847 0016                            LDR,R3   I,AUTO
          3 000301  3E42                                 ADV,R3   66
          3 000302  E0B7                                 LDH,R6   ,AUTO,R3
          3 000303  6D54                                 CMV,R6   84
          3 000304  0981 0003                            BNE      s:5870,PREL

   5869   3 000306  8AC7 0016                            INC      I,AUTO

     1763     5870    4            IF (SUBSTR (XLOGON, I, 1) = 'U') THEN I = I + 1;

   5870   3 000308  B847 0016                            LDR,R3   I,AUTO
          3 00030A  3E42                                 ADV,R3   66
          3 00030B  E0B7                                 LDH,R6   ,AUTO,R3
          3 00030C  6D55                                 CMV,R6   85
          3 00030D  0981 0003                            BNE      s:5871,PREL

   5870   3 00030F  8AC7 0016                            INC      I,AUTO

     1764     5871    4            IF (SUBSTR (XLOGON, I, 1) = 'P') THEN I = I + 1;

   5871   3 000311  B847 0016                            LDR,R3   I,AUTO
          3 000313  3E42                                 ADV,R3   66
          3 000314  E0B7                                 LDH,R6   ,AUTO,R3
          3 000315  6D50                                 CMV,R6   80
PL6.E3A0      #011=GJA$PARSE File=GJA$SUBS.:E05TSI                               TUE 07/29/97 21:58 Page:331
          3 000316  0981 0003                            BNE      s:5872,PREL

   5871   3 000318  8AC7 0016                            INC      I,AUTO

     1765     5872    4            IF ( I > LOGON.LEN)

   5872   3 00031A  8CC7 0004                            LDI      @LOGON,AUTO
          3 00031C  B856                                 LDR,R3   R6
          3 00031D  E570 7FFF                            AND,R6   32767,IMO
          3 00031F  8D47 006C                            SDI      XLOGON+75,AUTO
          3 000321  ECC7 006C                            LDB,B6   XLOGON+75,AUTO
          3 000323  304F                                 SOR,R3   15
          3 000324  D2B6                                 LLH,R5   ,B6,R3
          3 000325  D947 0016                            CMR,R5   I,AUTO
          3 000327  0281 0003                            BGE      s:5880,PREL

     1766     5873    5            THEN DO;

     1767     5874    5               GOTO BADOPT;

   5874   3 000329  0F81 0075                            B        s:5916,PREL

     1768     5875    5               END;
     1769     5876                          /* If there was a syntax error in spelling the
     1770     5877                             option, it will get caught next time through
     1771     5878                             the loop by the case else.
     1772     5879                          */
     1773     5880    4            NOSETUP = '1'B;

   5880   3 00032B  DCC7 0012                            LDB,B5   @NOSETUP,AUTO
          3 00032D  8905                                 LBT,'8000'X       ,B5
          3 00032E       8000

     1774     5881    4            END; /* Setup stuff */

   5881   3 00032F  0F81 004E                            B        s:5906,PREL

PL6.E3A0      #011=GJA$PARSE File=GJA$SUBS.:E05TSI                               TUE 07/29/97 21:58 Page:332
     1775     5882    3         ELSE IF (SUBSTR (XLOGON, I, 1) = 'H')

   5882   3 000331  6D48                                 CMV,R6   72
          3 000332  0981 0047                            BNE      s:5901,PREL

     1776     5883    4            THEN DO;

     1777     5884    4               I = I + 1;

   5884   3 000334  8AC7 0016                            INC      I,AUTO

     1778     5885    4               IF (SUBSTR (XLOGON, I, 1) = 'E') THEN I = I + 1;

   5885   3 000336  B847 0016                            LDR,R3   I,AUTO
          3 000338  3E42                                 ADV,R3   66
          3 000339  E0B7                                 LDH,R6   ,AUTO,R3
          3 00033A  6D45                                 CMV,R6   69
          3 00033B  0981 0003                            BNE      s:5886,PREL

   5885   3 00033D  8AC7 0016                            INC      I,AUTO

     1779     5886    4               IF (SUBSTR (XLOGON, I, 1) = 'A') THEN I = I + 1;

   5886   3 00033F  B847 0016                            LDR,R3   I,AUTO
          3 000341  3E42                                 ADV,R3   66
          3 000342  E0B7                                 LDH,R6   ,AUTO,R3
          3 000343  6D41                                 CMV,R6   65
          3 000344  0981 0003                            BNE      s:5887,PREL

   5886   3 000346  8AC7 0016                            INC      I,AUTO

     1780     5887    4               IF (SUBSTR (XLOGON, I, 1) = 'D') THEN I = I + 1;

   5887   3 000348  B847 0016                            LDR,R3   I,AUTO
          3 00034A  3E42                                 ADV,R3   66
          3 00034B  E0B7                                 LDH,R6   ,AUTO,R3
          3 00034C  6D44                                 CMV,R6   68
PL6.E3A0      #011=GJA$PARSE File=GJA$SUBS.:E05TSI                               TUE 07/29/97 21:58 Page:333
          3 00034D  0981 0003                            BNE      s:5888,PREL

   5887   3 00034F  8AC7 0016                            INC      I,AUTO

     1781     5888    4               IF (SUBSTR (XLOGON, I, 1) = 'E') THEN I = I + 1;

   5888   3 000351  B847 0016                            LDR,R3   I,AUTO
          3 000353  3E42                                 ADV,R3   66
          3 000354  E0B7                                 LDH,R6   ,AUTO,R3
          3 000355  6D45                                 CMV,R6   69
          3 000356  0981 0003                            BNE      s:5889,PREL

   5888   3 000358  8AC7 0016                            INC      I,AUTO

     1782     5889    4               IF (SUBSTR (XLOGON, I, 1) = 'R') THEN I = I + 1;

   5889   3 00035A  B847 0016                            LDR,R3   I,AUTO
          3 00035C  3E42                                 ADV,R3   66
          3 00035D  E0B7                                 LDH,R6   ,AUTO,R3
          3 00035E  6D52                                 CMV,R6   82
          3 00035F  0981 0003                            BNE      s:5890,PREL

   5889   3 000361  8AC7 0016                            INC      I,AUTO

     1783     5890    4               IF ( I > LOGON.LEN)

   5890   3 000363  8CC7 0004                            LDI      @LOGON,AUTO
          3 000365  B856                                 LDR,R3   R6
          3 000366  E570 7FFF                            AND,R6   32767,IMO
          3 000368  8D47 006C                            SDI      XLOGON+75,AUTO
          3 00036A  ECC7 006C                            LDB,B6   XLOGON+75,AUTO
          3 00036C  304F                                 SOR,R3   15
          3 00036D  D2B6                                 LLH,R5   ,B6,R3
          3 00036E  D947 0016                            CMR,R5   I,AUTO
          3 000370  0281 0003                            BGE      s:5898,PREL

     1784     5891    5               THEN DO;
PL6.E3A0      #011=GJA$PARSE File=GJA$SUBS.:E05TSI                               TUE 07/29/97 21:58 Page:334

     1785     5892    5                  GOTO BADOPT;

   5892   3 000372  0F81 002C                            B        s:5916,PREL

     1786     5893    5                  END;
     1787     5894                          /* If there was a syntax error in spelling the
     1788     5895                             option, it will get caught next time through
     1789     5896                             the loop by the case else.
     1790     5897                          */
     1791     5898    4               NOHEADER = '1'B;

   5898   3 000374  DCC7 0014                            LDB,B5   @NOHEADER,AUTO
          3 000376  8905                                 LBT,'8000'X       ,B5
          3 000377       8000

     1792     5899    4               END; /* Header stuff */

   5899   3 000378  0F81 0005                            B        s:5906,PREL

     1793     5900    4            ELSE DO;

     1794     5901    4               GOTO BADOPT;  /* Ns is the min abbrev */

   5901   3 00037A  0F81 0024                            B        s:5916,PREL

     1795     5902    4               END;
     1796     5903    3         SELECT (ELSE);

     1797     5904    3      GOTO BADOPT;

   5904   3 00037C  0F81 0022                            B        s:5916,PREL

     1798     5905    3         END; /* Of the do select */

     1799     5906    2   CALL NBSCAN ALTRET (JUSTRET);

PL6.E3A0      #011=GJA$PARSE File=GJA$SUBS.:E05TSI                               TUE 07/29/97 21:58 Page:335
   5906   3 00037E  E3C0 006A                            LNJ,B6   s:0,PREL
          3 000380       001C                            DC       s:5914,PREL

     1800     5907    2   IF (SUBSTR (XLOGON, I, 1) = ',')

   5907   3 000381  B847 0016                            LDR,R3   I,AUTO
          3 000383  3E42                                 ADV,R3   66
          3 000384  E0B7                                 LDH,R6   ,AUTO,R3
          3 000385  6D2C                                 CMV,R6   44
          3 000386  0981 0006                            BNE      s:5912,PREL

     1801     5908    3   THEN DO;

     1802     5909    3      I = I + 1; /* Scan past the comma */

   5909   3 000388  8AC7 0016                            INC      I,AUTO

     1803     5910    3      CALL NBSCAN ALTRET (BADOPT);

   5910   3 00038A  E3C0 005E                            LNJ,B6   s:0,PREL
          3 00038C       0013                            DC       s:5916,PREL

     1804     5911    3      END;

     1805     5912    2      END; /* Do while i is less than the string length */

   5912   3 00038D  8CC7 0004                            LDI      @LOGON,AUTO
          3 00038F  B856                                 LDR,R3   R6
          3 000390  E570 7FFF                            AND,R6   32767,IMO
          3 000392  8D47 006C                            SDI      XLOGON+75,AUTO
          3 000394  ECC7 006C                            LDB,B6   XLOGON+75,AUTO
          3 000396  304F                                 SOR,R3   15
          3 000397  D2B6                                 LLH,R5   ,B6,R3
          3 000398  D947 0016                            CMR,R5   I,AUTO
          3 00039A  0301 FE6C                            BG       s:5817,PREL

     1806     5913
PL6.E3A0      #011=GJA$PARSE File=GJA$SUBS.:E05TSI                               TUE 07/29/97 21:58 Page:336
     1807     5914    1   JUSTRET: RETURN;

   5914   3 00039C  C380 0000 0000  xent JUSTRET         LNJ,B4   X6A_ARET

     1808     5915
     1809     5916    1   BADOPT: ERR = %E$SGSYN;

   5916   3 00039F  ECC7 000E            BADOPT          LDB,B6   @ERR,AUTO
          3 0003A1  E870 04BD                            LDR,R6   1213,IMO
          3 0003A3  EF06                                 STR,R6   ,B6

     1810     5917    1   ALTRETURN;

   5917   3 0003A4  C380 0000 0000  xent                 LNJ,B4   X6A_AALT

     1811     5918
     1812     5919    1   BADID: ERR = %E$BDID;

   5919   3 0003A7  ECC7 000E            BADID           LDB,B6   @ERR,AUTO
          3 0003A9  E870 04B7                            LDR,R6   1207,IMO
          3 0003AB  EF06                                 STR,R6   ,B6

     1813     5920    1   ALTRETURN;

   5920   3 0003AC  C380 0000 0000  xent                 LNJ,B4   X6A_AALT

     1814     5921        %EJECT;
PL6.E3A0      #011=GJA$PARSE File=GJA$SUBS.:E05TSI                               TUE 07/29/97 21:58 Page:337
     1815     5922    1   BCSCAN: PROC ALTRET;

   5922   3 0003AF  EFC7 006A            BCSCAN          STB,B6   XLOGON+73,AUTO

     1816     5923        /*I* NAME:        BCSCAN
     1817     5924             PURPOSE:     To set I to next ',' or ' ' or end-of-line
     1818     5925             DESCRIPTION: BCSCAN returns the current or next ' ' or ',' index in I
     1819     5926                          or returns LOGON.LEN if no ',' or ' ' exists
     1820     5927        */
     1821     5928    3   DO WHILE ('1'B);

     1822     5929    3      IF ((LOGON.LEN = I) OR

   5929   3 0003B1  8CC7 0004                            LDI      @LOGON,AUTO
          3 0003B3  B856                                 LDR,R3   R6
          3 0003B4  E570 7FFF                            AND,R6   32767,IMO
          3 0003B6  8D47 006C                            SDI      XLOGON+75,AUTO
          3 0003B8  ECC7 006C                            LDB,B6   XLOGON+75,AUTO
          3 0003BA  304F                                 SOR,R3   15
          3 0003BB  D2B6                                 LLH,R5   ,B6,R3
          3 0003BC  D947 0016                            CMR,R5   I,AUTO
          3 0003BE  0901 0023                            BE       s:5932,PREL
          3 0003C0  8CC7 0004                            LDI      @LOGON,AUTO
          3 0003C2  B856                                 LDR,R3   R6
          3 0003C3  E570 7FFF                            AND,R6   32767,IMO
          3 0003C5  8D47 006E                            SDI      XLOGON+77,AUTO
          3 0003C7  DCC7 006E                            LDB,B5   XLOGON+77,AUTO
          3 0003C9  304F                                 SOR,R3   15
          3 0003CA  BA47 0016                            ADD,R3   I,AUTO
          3 0003CC  3E01                                 ADV,R3   1
          3 0003CD  D0B5                                 LDH,R5   ,B5,R3
          3 0003CE  5D2C                                 CMV,R5   44
          3 0003CF  0901 0012                            BE       s:5932,PREL
          3 0003D1  8CC7 0004                            LDI      @LOGON,AUTO
          3 0003D3  B856                                 LDR,R3   R6
          3 0003D4  E570 7FFF                            AND,R6   32767,IMO
          3 0003D6  8D47 0070                            SDI      XLOGON+79,AUTO
PL6.E3A0      #011=GJA$PARSE File=GJA$SUBS.:E05TSI                               TUE 07/29/97 21:58 Page:338
          3 0003D8  CCC7 0070                            LDB,B4   XLOGON+79,AUTO
          3 0003DA  304F                                 SOR,R3   15
          3 0003DB  BA47 0016                            ADD,R3   I,AUTO
          3 0003DD  3E01                                 ADV,R3   1
          3 0003DE  D0B4                                 LDH,R5   ,B4,R3
          3 0003DF  5D20                                 CMV,R5   32
          3 0003E0  0981 0005                            BNE      s:5933,PREL

     1823     5930    3           (SUBSTR (LOGON.TXT, I, 1) = ',') OR
     1824     5931    3           (SUBSTR (LOGON.TXT, I, 1) = ' ') )
     1825     5932    3      THEN RETURN;

   5932   3 0003E2  ECC7 006A                            LDB,B6   XLOGON+73,AUTO
          3 0003E4  C3C6 0001                            LNJ,B4   1,B6

     1826     5933    3      ELSE I = I + 1;

   5933   3 0003E6  8AC7 0016                            INC      I,AUTO

     1827     5934    3      END;

   5934   3 0003E8  0FC9                                 B        s:5929,SPREL

     1828     5935    2   END BCSCAN;
     1829     5936        %EJECT;
PL6.E3A0      #011=GJA$PARSE File=GJA$SUBS.:E05TSI                               TUE 07/29/97 21:58 Page:339
     1830     5937    1   NBSCAN: PROC ALTRET;

   5937   3 0003E9  EFC7 006A            NBSCAN          STB,B6   XLOGON+73,AUTO

     1831     5938        /*I* NAME:        NBSCAN
     1832     5939             PURPOSE:     To scan to next non-blank character
     1833     5940             DESCRIPTION: NBSCAN returns in I the current or next non-blank
     1834     5941                          character index or ALTRETURNs if the rest of the
     1835     5942                          string is blank or no string is left.
     1836     5943        */
     1837     5944    3   DO I = I TO LOGON.LEN - 1;

   5944   3 0003EB  E847 0016                            LDR,R6   I,AUTO
          3 0003ED  EF47 0016                            STR,R6   I,AUTO
          3 0003EF  0F81 0018                            B        s:5946+2,PREL

     1838     5945    3      IF (SUBSTR (LOGON.TXT, I, 1) ~= ' ') THEN RETURN;

   5945   3 0003F1  8CC7 0004                            LDI      @LOGON,AUTO
          3 0003F3  B856                                 LDR,R3   R6
          3 0003F4  E570 7FFF                            AND,R6   32767,IMO
          3 0003F6  8D47 006C                            SDI      XLOGON+75,AUTO
          3 0003F8  ECC7 006C                            LDB,B6   XLOGON+75,AUTO
          3 0003FA  304F                                 SOR,R3   15
          3 0003FB  BA47 0016                            ADD,R3   I,AUTO
          3 0003FD  3E01                                 ADV,R3   1
          3 0003FE  D0B6                                 LDH,R5   ,B6,R3
          3 0003FF  5D20                                 CMV,R5   32
          3 000400  0901 0005                            BE       s:5946,PREL

   5945   3 000402  ECC7 006A                            LDB,B6   XLOGON+73,AUTO
          3 000404  C3C6 0001                            LNJ,B4   1,B6

     1839     5946    3      END;

   5946   3 000406  8AC7 0016                            INC      I,AUTO
          3 000408  8CC7 0004                            LDI      @LOGON,AUTO
PL6.E3A0      #011=GJA$PARSE File=GJA$SUBS.:E05TSI                               TUE 07/29/97 21:58 Page:340
          3 00040A  B856                                 LDR,R3   R6
          3 00040B  E570 7FFF                            AND,R6   32767,IMO
          3 00040D  8D47 006C                            SDI      XLOGON+75,AUTO
          3 00040F  ECC7 006C                            LDB,B6   XLOGON+75,AUTO
          3 000411  304F                                 SOR,R3   15
          3 000412  D2B6                                 LLH,R5   ,B6,R3
          3 000413  D947 0016                            CMR,R5   I,AUTO
          3 000415  035C                                 BG       s:5945,SPREL

     1840     5947    2   ALTRETURN;

   5947   3 000416  ECC7 006A                            LDB,B6   XLOGON+73,AUTO
          3 000418  B806                                 LDR,R3   ,B6
          3 000419  C3B6                                 LNJ,B4   ,B6,R3

     1841     5948    2   END NBSCAN;
     1842     5949        %EJECT;
PL6.E3A0      #011=GJA$PARSE File=GJA$SUBS.:E05TSI                               TUE 07/29/97 21:58 Page:341
     1843     5950    1   GETNMN: PROC ALTRET;

   5950   3 00041A  EFC7 0068            GETNMN          STB,B6   XLOGON+71,AUTO

     1844     5951        /*I* NAME:        GETNMN
     1845     5952             PURPOSE:     To return the next lexeme in TNAME with length in LEN
     1846     5953             DESCRIPTION: GETNMN skips over the current character, any intervening
     1847     5954                          blanks, and then falls through into GETNM to return
     1848     5955                          the next lexeme in TNAME with length of TNAME in LEN.
     1849     5956                          Trailing blanks will then be stripped off leaving I
     1850     5957                          as index of next non-blank character (or last character
     1851     5958                          of the string). If no non-blank characters are left,
     1852     5959                          GETNMN will ALTRETURN.
     1853     5960        */
     1854     5961    2   I = I + 1;

   5961   3 00041C  8AC7 0016                            INC      I,AUTO

     1855     5962    2   IF (I >= LOGON.LEN) THEN ALTRETURN;

   5962   3 00041E  8CC7 0004                            LDI      @LOGON,AUTO
          3 000420  B856                                 LDR,R3   R6
          3 000421  E570 7FFF                            AND,R6   32767,IMO
          3 000423  8D47 006C                            SDI      XLOGON+75,AUTO
          3 000425  DCC7 006C                            LDB,B5   XLOGON+75,AUTO
          3 000427  304F                                 SOR,R3   15
          3 000428  D2B5                                 LLH,R5   ,B5,R3
          3 000429  D947 0016                            CMR,R5   I,AUTO
          3 00042B  0301 0005                            BG       s:5963,PREL

   5962   3 00042D  ECC7 0068                            LDB,B6   XLOGON+71,AUTO
          3 00042F  B806                                 LDR,R3   ,B6
          3 000430  C3B6                                 LNJ,B4   ,B6,R3

     1856     5963    2   CALL NBSCAN

   5963   3 000431  E3C0 FFB7                            LNJ,B6   s:0,PREL
PL6.E3A0      #011=GJA$PARSE File=GJA$SUBS.:E05TSI                               TUE 07/29/97 21:58 Page:342
          3 000433       0003                            DC       s:5965,PREL
          3 000434  0F81 0005                            B        s:5965+4,PREL

     1857     5964    3   WHENALTRETURN DO;

     1858     5965    3      ALTRETURN;

   5965   3 000436  ECC7 0068                            LDB,B6   XLOGON+71,AUTO
          3 000438  B806                                 LDR,R3   ,B6
          3 000439  C3B6                                 LNJ,B4   ,B6,R3
          3 00043A  0F81 0003                            B        s:5975,PREL

     1859     5966    3      END;
     1860     5967
     1861     5968    2   GETNM: ENTRY ALTRET;

   5968   3 00043C  EFC7 0068            GETNM           STB,B6   XLOGON+71,AUTO

     1862     5969        /*I* NAME:        GETNM
     1863     5970             DESCRIPTION: GETNM scans from the current I location looking for
     1864     5971                          a ' ', ',' or end-of-string. Everything in between is
     1865     5972                          returned in TNAME with length in LEN. LEN may be returned
     1866     5973                          as 0.
     1867     5974        */
     1868     5975    2   J = I;

   5975   3 00043E  E847 0016                            LDR,R6   I,AUTO
          3 000440  EF47 0017                            STR,R6   J,AUTO

     1869     5976    2   CALL BCSCAN

   5976   3 000442  E3C0 FF6C                            LNJ,B6   s:0,PREL
          3 000444       0003                            DC       s:5979,PREL
          3 000445  0F81 0001                            B        s:5979,PREL

     1870     5977    3   WHENALTRETURN DO;

PL6.E3A0      #011=GJA$PARSE File=GJA$SUBS.:E05TSI                               TUE 07/29/97 21:58 Page:343
     1871     5978    3      END;

     1872     5979    2   LEN = I - J;

   5979   3 000447  E847 0016                            LDR,R6   I,AUTO
          3 000449  E247 0017                            SUB,R6   J,AUTO
          3 00044B  EF47 0018                            STR,R6   LEN,AUTO

     1873     5980    2   TNAME = SUBSTR (LOGON.TXT, J, LEN);

   5980   3 00044D  8CC7 0004                            LDI      @LOGON,AUTO
          3 00044F  B856                                 LDR,R3   R6
          3 000450  E570 7FFF                            AND,R6   32767,IMO
          3 000452  8D47 006C                            SDI      XLOGON+75,AUTO
          3 000454  ECC7 006C                            LDB,B6   XLOGON+75,AUTO
          3 000456  304F                                 SOR,R3   15
          3 000457  BA47 0017                            ADD,R3   J,AUTO
          3 000459  C847 0018                            LDR,R4   LEN,AUTO
          3 00045B  0021                                 ALR      ;
          3 00045C       C036 0000                                ALPHANUM(0,B6,R3,1,R4),;
          3 00045E       5007 0019                                ALPHANUM(TNAME,AUTO,,16,FILL)

     1874     5981    2   IF ((I < LOGON.LEN) AND

   5981   3 000460  8CC7 0004                            LDI      @LOGON,AUTO
          3 000462  B856                                 LDR,R3   R6
          3 000463  E570 7FFF                            AND,R6   32767,IMO
          3 000465  437F                                 CSYNC    s:5981+4,SPREL
          3 000466  8D47 006C                            SDI      XLOGON+75,AUTO
          3 000468  ECC7 006C                            LDB,B6   XLOGON+75,AUTO
          3 00046A  304F                                 SOR,R3   15
          3 00046B  D2B6                                 LLH,R5   ,B6,R3
          3 00046C  D947 0016                            CMR,R5   I,AUTO
          3 00046E  0381 0017                            BLE      s:5990,PREL
          3 000470  8CC7 0004                            LDI      @LOGON,AUTO
          3 000472  B856                                 LDR,R3   R6
          3 000473  E570 7FFF                            AND,R6   32767,IMO
PL6.E3A0      #011=GJA$PARSE File=GJA$SUBS.:E05TSI                               TUE 07/29/97 21:58 Page:344
          3 000475  8D47 006E                            SDI      XLOGON+77,AUTO
          3 000477  DCC7 006E                            LDB,B5   XLOGON+77,AUTO
          3 000479  304F                                 SOR,R3   15
          3 00047A  BA47 0016                            ADD,R3   I,AUTO
          3 00047C  3E01                                 ADV,R3   1
          3 00047D  D0B5                                 LDH,R5   ,B5,R3
          3 00047E  5D20                                 CMV,R5   32
          3 00047F  0981 0006                            BNE      s:5990,PREL

     1875     5982    2        (SUBSTR(LOGON.TXT,I,1) = ' ') )
     1876     5983    3   THEN DO;  /* Position i on the next nonblank */

     1877     5984    3      CALL NBSCAN

   5984   3 000481  E3C0 FF67                            LNJ,B6   s:0,PREL
          3 000483       0003                            DC       s:5990,PREL

     1878     5985    4      WHENRETURN DO;

     1879     5986    4         END;

   5986   3 000484  0F81 0001                            B        s:5990,PREL

     1880     5987    4      WHENALTRETURN DO;

     1881     5988    4         END;

     1882     5989    3      END;

     1883     5990    2   RETURN;

   5990   3 000486  ECC7 0068                            LDB,B6   XLOGON+71,AUTO
          3 000488  C3C6 0001                            LNJ,B4   1,B6
     1884     5991    2   END GETNMN;
     1885     5992    1   END GJA$PARSE;

PL6.E3A0      #011=GJA$PARSE File=GJA$SUBS.:E05TSI                               TUE 07/29/97 21:58 Page:345
--  Include file information  --

   CP_6_C.:E05TOU  is referenced.
   CP_6.:E05TOU  cannot be made into a system file and is referenced.
   KL_ERRORS_C.:E05TOU  is referenced.
      No diagnostics issued in procedure GJA$PARSE.
PL6.E3A0      #011=GJA$PARSE File=GJA$SUBS.:E05TSI                               TUE 07/29/97 21:58 Page:346

 **** Variables and constants ****

  ****  Section 001  Data  GJA$PARSE

  ****  Scalars and arrays  ****
HexLoc.c.b A Datatyp(siz) R M Lvl/name                 HexLoc.c.b A Datatyp(siz) R M Lvl/name

     0-0-0/c CHAR        r     1 B_XL_UPPER_UR(0:511)

  ****  Auto variables  ****

  ****  Scalars and arrays  ****
HexLoc.c.b A Datatyp(siz) R M Lvl/name                 HexLoc.c.b A Datatyp(siz) R M Lvl/name

     6-0-0/w PTR         r     1 @ACCT                      E-0-0/w PTR         r     1 @ERR
    10-0-0/w PTR         r     1 @HOST                      4-0-0/w PTR         r     1 @LOGON
     8-0-0/w PTR         r     1 @NAME                     14-0-0/w PTR         r     1 @NOHEADER
    12-0-0/w PTR         r     1 @NOSETUP                   C-0-0/w PTR         r     1 @PRO
     A-0-0/w PTR         r     1 @PW                       *0-0-0/c CHAR(8)     r     1 ACCT
    *0-0-0/w UBIN(16)    r     1 ERR                       *0-0-0/c CHAR(8)     r     1 HOST
    16-0-0/w UBIN(16)    r     1 I                         17-0-0/w UBIN(16)    r     1 J
    18-0-0/w UBIN(16)    r     1 LEN                       *0-0-0/c STRC(1120)  r     1 LOGON
    *0-0-0/w STRC(104)   r     1 NAME                      *0-0-0/w BIT         r     1 NOHEADER
    *0-0-0/w BIT         r     1 NOSETUP                   *0-0-0/w STRC(96)    r     1 PRO
    *0-0-0/c CHAR(8)     r     1 PW                        19-0-0/c CHAR(16)    r     1 TNAME
    21-0-0/c CHAR(139)   r     1 XLOGON


   Procedure GJA$PARSE requires 1162 words for executable code.
   Procedure GJA$PARSE requires 114 words of local(AUTO) storage.

    No errors detected in file GJA$SUBS.:E05TSI    .
PL6.E3A0      #011=GJA$PARSE File=GJA$SUBS.:E05TSI                               TUE 07/29/97 21:58 Page:347
          *** CROSS REFERENCE LISTING ***
**     DENOTES     IDENTIFIER DEFINITION
<<                 IDENTIFIER'S VALUE SET
>>                 IDENTIFIER'S VALUE USED
<>                 IDENTIFIER SET AND/OR USED
--                 IDENTIFIER REFERENCED
PL6.E3A0      #011=GJA$PARSE File=GJA$SUBS.:E05TSI                               TUE 07/29/97 21:58 Page:348
          MINI XREF LISTING

ACCT
      5671**DCL        11--PROC     5728<<ASSIGN   5744<<ASSIGN   5768--IF       5772<<ASSIGN
BADID
      5919**LABEL    5740--GOTO     5756--CALLALT  5759--CALLALT  5765--GOTO     5767--CALLALT  5770--GOTO
      5779--CALLALT  5782--GOTO     5795--CALLALT  5798--GOTO     5804--GOTO
BADOPT
      5916**LABEL    5825--GOTO     5827--CALLALT  5830--GOTO     5832--CALLALT  5835--GOTO     5848--GOTO
      5850--CALLALT  5853--GOTO     5855--CALLALT  5858--GOTO     5874--GOTO     5892--GOTO     5901--GOTO
      5904--GOTO     5910--CALLALT
BCSCAN
      5922**PROC     5756--CALL     5976--CALL
B_XL_UPPER_UR
      5698**DCL      5812>>CALLBLT  5861>>CALLBLT
ERR
      5679**DCL        11--PROC     5916<<ASSIGN   5919<<ASSIGN
GETNM IN PROCEDURE GETNMN
      5968**ENTRY    5767--CALL
GETNMN
      5950**PROC     5779--CALL     5795--CALL     5832--CALL     5855--CALL
HOST
      5680**DCL        11--PROC     5734<<ASSIGN   5833--IF       5837<<ASSIGN
I
      5683**DCL      5737<<ASSIGN   5758>>IF       5763>>IF       5776>>IF       5776>>IF       5792>>IF
      5792>>IF       5801>>IF       5801>>IF       5816>>DOWHILE  5817>>DOSELCT  5819<<ASSIGN   5819>>ASSIGN
      5820>>IF       5820<<ASSIGN   5820>>ASSIGN   5821>>IF       5821<<ASSIGN   5821>>ASSIGN   5822>>IF
      5822<<ASSIGN   5822>>ASSIGN   5823>>IF       5828>>IF       5839<<ASSIGN   5839>>ASSIGN   5840>>IF
      5840<<ASSIGN   5840>>ASSIGN   5841>>IF       5841<<ASSIGN   5841>>ASSIGN   5842>>IF       5842<<ASSIGN
      5842>>ASSIGN   5843>>IF       5843<<ASSIGN   5843>>ASSIGN   5844>>IF       5844<<ASSIGN   5844>>ASSIGN
      5845>>IF       5845<<ASSIGN   5845>>ASSIGN   5846>>IF       5851>>IF       5863<<ASSIGN   5863>>ASSIGN
      5864>>IF       5864<<ASSIGN   5864>>ASSIGN   5865>>IF       5867<<ASSIGN   5867>>ASSIGN   5868>>IF
      5868<<ASSIGN   5868>>ASSIGN   5869>>IF       5869<<ASSIGN   5869>>ASSIGN   5870>>IF       5870<<ASSIGN
      5870>>ASSIGN   5871>>IF       5871<<ASSIGN   5871>>ASSIGN   5872>>IF       5882>>IF       5884<<ASSIGN
PL6.E3A0      #011=GJA$PARSE File=GJA$SUBS.:E05TSI                               TUE 07/29/97 21:58 Page:349
      5884>>ASSIGN   5885>>IF       5885<<ASSIGN   5885>>ASSIGN   5886>>IF       5886<<ASSIGN   5886>>ASSIGN
      5887>>IF       5887<<ASSIGN   5887>>ASSIGN   5888>>IF       5888<<ASSIGN   5888>>ASSIGN   5889>>IF
      5889<<ASSIGN   5889>>ASSIGN   5890>>IF       5907>>IF       5909<<ASSIGN   5909>>ASSIGN   5929>>IF
      5929>>IF       5929>>IF       5933<<ASSIGN   5933>>ASSIGN   5944<<DOINDEX  5944>>DOINDEX  5945>>IF
      5961<<ASSIGN   5961>>ASSIGN   5962>>IF       5975>>ASSIGN   5979>>ASSIGN   5981>>IF       5981>>IF
J
      5684**DCL      5975<<ASSIGN   5979>>ASSIGN   5980>>ASSIGN
JUSTRET
      5914**LABEL    5815--CALLALT  5906--CALLALT
LEN
      5685**DCL      5768>>IF       5780>>IF       5784>>IF       5786>>ASSIGN   5796>>IF       5833>>IF
      5856>>IF       5860>>ASSIGN   5861>>CALLBLT  5861>>CALLBLT  5979<<ASSIGN   5980>>ASSIGN
LOGON
      5668**DCL        11--PROC
LOGON.LEN
      5669**DCL      5740>>IF       5740>>IF       5741>>IF       5776>>IF       5792>>IF       5801>>IF
      5813>>ASSIGN   5813>>ASSIGN   5816>>DOWHILE  5823>>IF       5846>>IF       5872>>IF       5890>>IF
      5929>>IF       5944>>DOINDEX  5962>>IF       5981>>IF
LOGON.TXT
      5670**DCL      5740--IF       5741>>IF       5754>>IF       5754>>IF       5758>>IF       5763>>IF
      5776>>IF       5792>>IF       5801>>IF       5812>>CALLBLT  5813--ASSIGN   5929>>IF       5929>>IF
      5945>>IF       5980>>ASSIGN   5981>>IF
NAME
      5672**DCL        11--PROC
NAME.C
      5673**DCL      5729<<ASSIGN   5747<<ASSIGN   5786<<ASSIGN
NAME.T
      5674**DCL      5730<<ASSIGN   5748<<ASSIGN   5780--IF       5787<<ASSIGN
NBSCAN
      5937**PROC     5759--CALL     5815--CALL     5827--CALL     5850--CALL     5906--CALL     5910--CALL
      5963--CALL     5984--CALL
NOHEADER
      5682**DCL        11--PROC     5736<<ASSIGN   5746<<ASSIGN   5898<<ASSIGN
NOSETUP
      5681**DCL        11--PROC     5735<<ASSIGN   5745<<ASSIGN   5880<<ASSIGN
PRO
PL6.E3A0      #011=GJA$PARSE File=GJA$SUBS.:E05TSI                               TUE 07/29/97 21:58 Page:350
      5676**DCL        11--PROC
PRO.C
      5677**DCL      5732<<ASSIGN   5750<<ASSIGN   5860<<ASSIGN
PRO.T
      5678**DCL      5733<<ASSIGN   5856--IF       5861<<CALLBLT
PW
      5675**DCL        11--PROC     5731<<ASSIGN   5749<<ASSIGN   5796--IF       5800<<ASSIGN
TNAME
      5686**DCL      5772>>ASSIGN   5787>>ASSIGN   5800>>ASSIGN   5837>>ASSIGN   5861>>CALLBLT  5980<<ASSIGN
XLOGON
      5687**DCL      5812<<CALLBLT  5813<<ASSIGN   5817>>DOSELCT  5820>>IF       5821>>IF       5822>>IF
      5828>>IF       5840>>IF       5841>>IF       5842>>IF       5843>>IF       5844>>IF       5845>>IF
      5851>>IF       5864>>IF       5865>>IF       5868>>IF       5869>>IF       5870>>IF       5871>>IF
      5882>>IF       5885>>IF       5886>>IF       5887>>IF       5888>>IF       5889>>IF       5907>>IF
