VERSION E05

PL6.E3A0      #001=GJA$Q_MSG File=GJA$SUBS.:E05TSI                               TUE 07/29/97 21:54 Page:1
        1        1        /*M* GJA$SUBS.  Misc. node admin routines                                     */
        2        2        /*T***********************************************************/
        3        3        /*T*                                                         */
        4        4        /*T* Copyright (c) Bull HN Information Systems Inc., 1997    */
        5        5        /*T*                                                         */
        6        6        /*T***********************************************************/
        7        7        /*X* DMR,PLM=5,IND=5,CTI=5,SDI=5,MCL=10,CSI=0,ECI=0 */
        8        8        /*P* NAME:   GJA$SUBS
        9        9             PURPOSE: This module contains various Node Administrator utility
       10       10                      routines.
       11       11        */
       12       12
       13       13        /*F* NAME:   GJA$Q_MSG
       14       14
       15       15             PURPOSE: This routine builds messages from passed parameters and
       16       16                      places them into the node administrators send circular queue.
       17       17
       18       18             DESCRIPTION: This routine first determines how much space is
       19       19                          available in the send circular queue.  If the
       20       20                          queue needs to be wrapped (there is not enough space
       21       21                          at the end of the queue to hold the message), a NOP
       22       22                          is inserted at the end of the queue and the available
       23       23                          size is recalculated.  If there is still not enough
       24       24                          space to hold the message, we altreturn.  If the
       25       25                          message will fit in, we use the passed parameters to
       26       26                          build the message in the queue, then we update the
       27       27                          send queue insert pointer and exit.
       28       28
       29       29             CALL: CALL GJA$Q_MSG(UID, PMSGSIZ, MSG, PFPTSIZ, FPT, PFUNCTION)
       30       30                   ALTRET(label);
       31       31
       32       32             INPUTS: FUNCTION - The message function code
       33       33                     UID -      User I.D.
       34       34                     RECTYPE -  The record type or subfunction
       35       35                     MSGSIZ -   Byte size of the message body (if any)
       36       36                     MSG -      The message itself (if any)
       37       37                     FPTSIZ -   Byte size of the FPT (if any)
PL6.E3A0      #001=GJA$Q_MSG File=GJA$SUBS.:E05TSI                               TUE 07/29/97 21:54 Page:2
       38       38                     FPT -      The FPT (if any)
       39       39        */
       40       40        %EJECT;
PL6.E3A0      #001=GJA$Q_MSG File=GJA$SUBS.:E05TSI                               TUE 07/29/97 21:54 Page:3
       41       41
       42       42        GJA$Q_MSG: PROC(UID,PMSGSIZ,MSG,PFPTSIZ,FPT,PFUNCTION);
       43       43
       44       44                                                /* INCLUDES                 */
       45       45        %INCLUDE LCP_6;
       46     4324        %INCLUDE GJA_MSG_M;
       47     4563        %INCLUDE KL_MACRO_C;
       48     7915        %INCLUDE KNH_MACRO_C;
       49     8198        %INCLUDE KV$VDO;
       50     9213
       51     9214                                                /* Input Parameters         */
       52     9215    1   DCL PFUNCTION UBIN;                     /* Message function code    */
       53     9216    1   DCL UID UBIN(32);                       /* User I.D. of other end   */
       54     9217    1   DCL UID$ REDEF UID PTR;
       55     9218    1   DCL RECTYPE UBIN;                       /* Record type code         */
       56     9219    1   DCL PMSGSIZ UBIN;                       /* Message byte size        */
       57     9220    1   DCL MSG CHAR(MSGSIZ);                   /* Message                  */
       58     9221    1   DCL PFPTSIZ UBIN;                       /* Byte size of FPT         */
       59     9222    1   DCL FPT CHAR(FPTSIZ);                   /* FPT (if any)             */
       60     9223                                                /* EQUs and SUBs            */
       61     9224        %GJA_UID_EQUS;
       62     9232        %KV_VDO_ALL_E;
       63     9311
       64     9312                                                /* BASED Structures         */
       65     9313        %GJA$HAND_CTX (STCLASS="BASED(CTX$)");
       66     9362        %GJA$LGNCTX(STCLASS="BASED(CTX$)");
       67     9447        %KNH$MESS(STCLASS="BASED(MSG$)");
       68     9496        %KNH$QHDR(FPTN=NA_QHDR,STCLASS="BASED(G$HAND_Q$)");
       69     9509        %KV$VDO_DAT (LAST=",",STCLASS="BASED(MSG$)");
       70     9554             %KV$VDOVLP_DAT2(LVL=2);
       71     9604
       72     9605    1   DCL THEFPT CHAR(FPTSIZ) BASED;          /* A template for the FPT   */
       73     9606    1   DCL MESSAGE CHAR(MSGSIZ) BASED;         /* A template for the message    */
       74     9607
       75     9608
       76     9609                                                /* SYMREF                   */
       77     9610    1   DCL G$HAND_Q$ PTR SYMREF;               /* Points to the base of the CQ seg   */
PL6.E3A0      #001=GJA$Q_MSG File=GJA$SUBS.:E05TSI                               TUE 07/29/97 21:54 Page:4
       78     9611        %KV$VDO_DAT(NAME=GJA_VDO_DAT_DAT2,STCLASS=SYMREF,LAST=",");
       79     9656             %KV$VDOVLP_DAT2(LVL=2);
       80     9706    1   DCL GJA_LDCT_NM UBIN SYMREF;            /* Network Manager LDCT index    */
       81     9707    1   DCL GJA_LDCT_BABOON UBIN SYMREF;
       82     9708    1   DCL GJA_HAND_HEAD$ PTR SYMREF;
       83     9709    1   DCL GJA_USRLGN_HEAD$ PTR SYMREF;
       84     9710    1   DCL GJA_ONE_WAIT_UNIT UBIN SYMREF;
       85     9711
       86     9712                                                /* DCBs                     */
       87     9713    1   DCL M$CQ DCB;
       88     9714                                                /* AUTO                     */
       89     9715    1   DCL FUNCTION UBIN;
       90     9716    1   DCL MSGSIZ UBIN;
       91     9717    1   DCL FPTSIZ UBIN;
       92     9718    1   DCL MSG$ PTR;                           /* Pointer into CQ for new message    */
       93     9719    1   DCL NEWMSGSIZ UBIN;                     /* Actual size of message (DW size    */
       94     9720    1   DCL QSIZ UBIN;                          /* Available space in queue */
       95     9721    1   DCL WRTFLG BIT(1);
       96     9722    1   DCL CTX$ PTR;
       97     9723    1   DCL NOSPACE BIT(1) ALIGNED;
       98     9724                                                /* FPTs                     */
       99     9725        %FPT_WRTMLT(DCB=M$CQ);
      100     9745        %FPT_WAIT(UNITS=GJA_ONE_WAIT_UNIT);
      101     9769        %KNH$MESS (FPTN=KNH_MESS,STCLASS=CONSTANT);
      102     9818                                                /* Entrys                   */
      103     9819    1   DCL KHD$SCREECH ENTRY(1);
      104     9820
      105     9821
      106     9822        %EJECT;
PL6.E3A0      #001=GJA$Q_MSG File=GJA$SUBS.:E05TSI                               TUE 07/29/97 21:54 Page:5
      107     9823
      108     9824    1        WRTFLG = '0'B;
      109     9825    1        GOTO COMMON;
      110     9826
      111     9827    1   GJA$WRITE: ENTRY(UID,PMSGSIZ,MSG,PFPTSIZ,FPT,PFUNCTION);
      112     9828
      113     9829    1        IF UID$->GJA$HAND_CTX.WHO = %GJA_UID_BABOON
      114     9830    1        THEN WRTFLG = '0'B;
      115     9831    1        ELSE WRTFLG = '1'B;
      116     9832    1   COMMON: ;
      117     9833    1        IF ADDR(PFUNCTION) = ADDR(NIL)
      118     9834    1        THEN
      119     9835    1             FUNCTION = %KN_FCN_DATA;
      120     9836    1        ELSE
      121     9837    1             FUNCTION = PFUNCTION;
      122     9838    1        IF ADDR(PMSGSIZ) = ADDR(NIL)
      123     9839    1        THEN
      124     9840    1             MSGSIZ = 0;
      125     9841    1        ELSE
      126     9842    1             MSGSIZ = PMSGSIZ;
      127     9843    1        IF ADDR(PFPTSIZ) = ADDR(NIL)
      128     9844    1        THEN
      129     9845    1             FPTSIZ = 0;
      130     9846    1        ELSE
      131     9847    1             FPTSIZ = PFPTSIZ;
      132     9848        /*
      133     9849          Calculate the size of the entire message including the FPT portion
      134     9850          and the header.  This is a doubleword size
      135     9851        */
      136     9852    1        NEWMSGSIZ=(MSGSIZ+1)/2 + SIZEW(KNH$MESS) + (FPTSIZ+1)/2;
      137     9853    1        IF NEWMSGSIZ > NA_QHDR.SCQ.SZ
      138     9854    1        THEN
      139     9855    1             CALL M$XXX;
      140     9856    1        IF WRTFLG
      141     9857    1        THEN NEWMSGSIZ = NEWMSGSIZ + SIZEW(KV$VDO_DAT);
      142     9858    1        NEWMSGSIZ = (NEWMSGSIZ + 1) / 2;
      143     9859
PL6.E3A0      #001=GJA$Q_MSG File=GJA$SUBS.:E05TSI                               TUE 07/29/97 21:54 Page:6
      144     9860        /*
      145     9861          If the insert pointer is greater than the removal pointer, the amount
      146     9862          of space in the queue is equal to the amount of space left between
      147     9863          the insert pointer and the end of the queue, minus the space needed
      148     9864          for a NOP, which is allways there.  If the insert pointer is less than
      149     9865          the removal pointer, the amount of space left for a message is equal
      150     9866          to the difference between the two.
      151     9867        */
      152     9868    1        NOSPACE='1'B;
      153     9869    2        DO WHILE (NOSPACE);
      154     9870    2             IF NA_QHDR.SCQ.IPTR >= NA_QHDR.SCQ.RPTR
      155     9871    2             THEN QSIZ=NA_QHDR.SCQ.SZ - NA_QHDR.SCQ.IPTR - SIZEW(KNH$MESS)/2;
      156     9872    2             ELSE QSIZ=NA_QHDR.SCQ.RPTR - NA_QHDR.SCQ.IPTR - 1;
      157     9873        /*
      158     9874          If there isn't enough room for the message and we are at the end of
      159     9875          the send queue, put a NOP at the end and wrap the queue.
      160     9876        */
      161     9877    2             IF NEWMSGSIZ > QSIZ AND NA_QHDR.SCQ.IPTR >= NA_QHDR.SCQ.RPTR
      162     9878    2                  AND NA_QHDR.SCQ.RPTR ~= 0
      163     9879    3             THEN DO;                      /* WRAP                     */
      164     9880    3                  MSG$ = PINCRW(G$HAND_Q$,NA_QHDR.SCQ.OFFSET+NA_QHDR.SCQ.IPTR*2);
      165     9881    3                  KNH$MESS.FUNCTION=%KN_FCN_NOP;
      166     9882    3                  KNH$MESS.FPTSZ=0;
      167     9883    3                  KNH$MESS.MSGSZ=QSIZ*4;
      168     9884    3                  NA_QHDR.SCQ.IPTR=0;
      169     9885    3                  QSIZ=NA_QHDR.SCQ.RPTR - NA_QHDR.SCQ.IPTR - 1;
      170     9886    3                END;
      171     9887        /*
      172     9888          If theres still no space for the message, the ballgames over
      173     9889        */
      174     9890    2             IF NEWMSGSIZ > QSIZ
      175     9891    3             THEN DO;
      176     9892    3                  CALL M$WRTMLT(FPT_WRTMLT);
      177     9893    3                  CALL M$WAIT(FPT_WAIT);
      178     9894    3                END;
      179     9895    2             ELSE NOSPACE='0'B;
      180     9896    2           END;
PL6.E3A0      #001=GJA$Q_MSG File=GJA$SUBS.:E05TSI                               TUE 07/29/97 21:54 Page:7
      181     9897        /*
      182     9898          Calculate where the message will fit and then fill it in from the
      183     9899          passed parameters.
      184     9900        */
      185     9901    1        MSG$ = PINCRW(G$HAND_Q$,NA_QHDR.SCQ.OFFSET+NA_QHDR.SCQ.IPTR*2);
      186     9902    1        KNH$MESS = KNH_MESS;
      187     9903    1        KNH$MESS.FUNCTION=FUNCTION;
      188     9904    1        KNH$MESS.UID=UID;
      189     9905    1        IF UID$ ~= ADDR(NIL)
      190     9906    1        THEN
      191     9907    1             KNH$MESS.LDCTX = UID$->GJA$HAND_CTX.LDCTX;
      192     9908    1        KNH$MESS.LAST_PTR = NA_QHDR.LAST_SCQPTR;
      193     9909    1        NA_QHDR.LAST_SCQPTR = NA_QHDR.SCQ.IPTR;
      194     9910    1        KNH$MESS.FPTSZ=FPTSIZ;
      195     9911    1        KNH$MESS.RECTYPE=RECTYPE;
      196     9912    1        IF WRTFLG
      197     9913    1        THEN KNH$MESS.MSGSZ = MSGSIZ + SIZEC(KV$VDO_DAT);
      198     9914    1        ELSE KNH$MESS.MSGSZ=MSGSIZ;
      199     9915
      200     9916    1        MSG$=PINCRW(MSG$,SIZEW(KNH$MESS));
      201     9917        /*
      202     9918          If theres an FPT, move it in
      203     9919        */
      204     9920    1        IF FPTSIZ ~= 0
      205     9921    2        THEN DO;
      206     9922    2             MSG$->THEFPT=FPT;
      207     9923    2             MSG$=PINCRW(MSG$,SIZEW(FPT));
      208     9924    2           END;
      209     9925
      210     9926        /* If write move in VDO_DAT and VDOVLP_DAT1 */
      211     9927
      212     9928    1        IF WRTFLG
      213     9929    2        THEN DO;
      214     9930    2             KV$VDO_DAT = GJA_VDO_DAT_DAT2;
      215     9931    2             KV$VDO_DAT.KV$VDOVLP_DAT2.BYTSIZ = MSGSIZ;
      216     9932    2             MSG$ = PINCRW(MSG$,SIZEW(KV$VDO_DAT));
      217     9933    2           END;
PL6.E3A0      #001=GJA$Q_MSG File=GJA$SUBS.:E05TSI                               TUE 07/29/97 21:54 Page:8
      218     9934        /*
      219     9935          If theres a MSG body, move it in
      220     9936        */
      221     9937    1        IF MSGSIZ ~= 0
      222     9938    1        THEN MSG$->MESSAGE=MSG;
      223     9939        /*
      224     9940          Update the send queue receive pointer
      225     9941        */
      226     9942    1        NA_QHDR.SCQ.IPTR = NA_QHDR.SCQ.IPTR + NEWMSGSIZ;
      227     9943
      228     9944    1        RETURN;
      229     9945    1   END GJA$Q_MSG;
      230     9946        %EOD;

PL6.E3A0      #001=GJA$Q_MSG File=GJA$SUBS.:E05TSI                               TUE 07/29/97 21:54 Page:9
--  Include file information  --

   KV$VDO.:E05TOU  is referenced.
   KNH_MACRO_C.:E05TOU  is referenced.
   KL_MACRO_C.:E05TOU  is referenced.
   GJA_MSG_M.:E05TOU  is referenced.
   G_LCP6_E.:E05TOU  is referenced.
   GT_LCP6_M.:E05TOU  is referenced.
   KI_CP6.:E05TOU  is referenced.
   GF_LCP6_M.:E05TOU  is referenced.
   GM_LCP6_M.:E05TOU  is referenced.
   GU_LCP6_M.:E05TOU  is referenced.
   GJ_LCP6_M.:E05TOU  is referenced.
   GH_LCP6_M.:E05TOU  is referenced.
   LCP_6.:E05TOU  cannot be made into a system file and is referenced.
      No diagnostics issued in procedure GJA$Q_MSG.

   Procedure GJA$Q_MSG requires 375 words for executable code.
   Procedure GJA$Q_MSG requires 30 words of local(AUTO) storage.

PL6.E3A0      #001=GJA$Q_MSG File=GJA$SUBS.:E05TSI                               TUE 07/29/97 21:54 Page:10

 Object Unit name= GJA$Q_MSG                                  File name= GJA$SUBS.:E05TOU
 UTS= JUL 29 '97 21:54:04.36 TUE                              Compiler= PL-6/E31         Sev=      00
 SharedLib= :SHARED_LCP6_SYSTEM                               Alt SharedLib=


    ****  Control sections  ****

 Sect   Type Bound  Init  Size HexSiz  Section name
    0   DCB   even  none     0      0  M$CQ
    1   Data  even  none    23     17  GJA$Q_MSG
    2  RoData even  UTS      8      8  GJA$Q_MSG
    3   Proc  even  none   375    177  GJA$Q_MSG

    ****  Entry defs  ****

                              Check   Calling
                             calling  sequence
  Sect HexLoc Primary Altret sequence   type   Parms  Name
     3      0   yes            yes      Std        6  GJA$Q_MSG
     3      9                  yes      Std        6  GJA$WRITE

  ****  Entry refs  ****

         Check        Calling
        calling       sequence
Altret sequence SRef   type   Args  Name
                       nStd      0 X6A_AUTO_N
                       nStd      0 X6A_ARET

  ****  Data refs  ****

  Flags:  r = read only, s = secondary
Flgs Name                             Flgs Name                             Flgs Name
     G$HAND_Q$                             GJA_VDO_DAT_DAT2                      GJA_ONE_WAIT_UNIT
     M$CQ                             r    G$ROS$
PL6.E3A0      #001=GJA$Q_MSG File=GJA$SUBS.:E05TSI                               TUE 07/29/97 21:54 Page:11


        1        1        /*M* GJA$SUBS.  Misc. node admin routines                                     */
        2        2        /*T***********************************************************/
        3        3        /*T*                                                         */
        4        4        /*T* Copyright (c) Bull HN Information Systems Inc., 1997    */
        5        5        /*T*                                                         */
        6        6        /*T***********************************************************/
        7        7        /*X* DMR,PLM=5,IND=5,CTI=5,SDI=5,MCL=10,CSI=0,ECI=0 */
        8        8        /*P* NAME:   GJA$SUBS
        9        9             PURPOSE: This module contains various Node Administrator utility
       10       10                      routines.
       11       11        */
       12       12
       13       13        /*F* NAME:   GJA$Q_MSG
       14       14
       15       15             PURPOSE: This routine builds messages from passed parameters and
       16       16                      places them into the node administrators send circular queue.
       17       17
       18       18             DESCRIPTION: This routine first determines how much space is
       19       19                          available in the send circular queue.  If the
       20       20                          queue needs to be wrapped (there is not enough space
       21       21                          at the end of the queue to hold the message), a NOP
       22       22                          is inserted at the end of the queue and the available
       23       23                          size is recalculated.  If there is still not enough
       24       24                          space to hold the message, we altreturn.  If the
       25       25                          message will fit in, we use the passed parameters to
       26       26                          build the message in the queue, then we update the
       27       27                          send queue insert pointer and exit.
       28       28
       29       29             CALL: CALL GJA$Q_MSG(UID, PMSGSIZ, MSG, PFPTSIZ, FPT, PFUNCTION)
       30       30                   ALTRET(label);
       31       31
       32       32             INPUTS: FUNCTION - The message function code
       33       33                     UID -      User I.D.
       34       34                     RECTYPE -  The record type or subfunction
       35       35                     MSGSIZ -   Byte size of the message body (if any)
       36       36                     MSG -      The message itself (if any)
PL6.E3A0      #001=GJA$Q_MSG File=GJA$SUBS.:E05TSI                               TUE 07/29/97 21:54 Page:12
       37       37                     FPTSIZ -   Byte size of the FPT (if any)
       38       38                     FPT -      The FPT (if any)
       39       39        */
       40       40        %EJECT;
PL6.E3A0      #001=GJA$Q_MSG File=GJA$SUBS.:E05TSI                               TUE 07/29/97 21:54 Page:13
       41       41
       42       42        GJA$Q_MSG: PROC(UID,PMSGSIZ,MSG,PFPTSIZ,FPT,PFUNCTION);

     42   3 000000  D380 0000 0000  xent GJA$Q_MSG       LNJ,B5   X6A_AUTO_N
          3 000003       001E 0006                       DC       30,6

       43       43
       44       44                                                /* INCLUDES                 */
       45       45        %INCLUDE LCP_6;
       46     4324        %INCLUDE GJA_MSG_M;
       47     4563        %INCLUDE KL_MACRO_C;
       48     7915        %INCLUDE KNH_MACRO_C;
       49     8198        %INCLUDE KV$VDO;
       50     9213
       51     9214                                                /* Input Parameters         */
       52     9215    1   DCL PFUNCTION UBIN;                     /* Message function code    */
       53     9216    1   DCL UID UBIN(32);                       /* User I.D. of other end   */
       54     9217    1   DCL UID$ REDEF UID PTR;
       55     9218    1   DCL RECTYPE UBIN;                       /* Record type code         */
       56     9219    1   DCL PMSGSIZ UBIN;                       /* Message byte size        */
       57     9220    1   DCL MSG CHAR(MSGSIZ);                   /* Message                  */
       58     9221    1   DCL PFPTSIZ UBIN;                       /* Byte size of FPT         */
       59     9222    1   DCL FPT CHAR(FPTSIZ);                   /* FPT (if any)             */
       60     9223                                                /* EQUs and SUBs            */
       61     9224        %GJA_UID_EQUS;
       62     9232        %KV_VDO_ALL_E;
       63     9311
       64     9312                                                /* BASED Structures         */
       65     9313        %GJA$HAND_CTX (STCLASS="BASED(CTX$)");
       66     9362        %GJA$LGNCTX(STCLASS="BASED(CTX$)");
       67     9447        %KNH$MESS(STCLASS="BASED(MSG$)");
       68     9496        %KNH$QHDR(FPTN=NA_QHDR,STCLASS="BASED(G$HAND_Q$)");
       69     9509        %KV$VDO_DAT (LAST=",",STCLASS="BASED(MSG$)");
       70     9554             %KV$VDOVLP_DAT2(LVL=2);
       71     9604
       72     9605    1   DCL THEFPT CHAR(FPTSIZ) BASED;          /* A template for the FPT   */
       73     9606    1   DCL MESSAGE CHAR(MSGSIZ) BASED;         /* A template for the message    */
PL6.E3A0      #001=GJA$Q_MSG File=GJA$SUBS.:E05TSI                               TUE 07/29/97 21:54 Page:14
       74     9607
       75     9608
       76     9609                                                /* SYMREF                   */
       77     9610    1   DCL G$HAND_Q$ PTR SYMREF;               /* Points to the base of the CQ seg   */
       78     9611        %KV$VDO_DAT(NAME=GJA_VDO_DAT_DAT2,STCLASS=SYMREF,LAST=",");
       79     9656             %KV$VDOVLP_DAT2(LVL=2);
       80     9706    1   DCL GJA_LDCT_NM UBIN SYMREF;            /* Network Manager LDCT index    */
       81     9707    1   DCL GJA_LDCT_BABOON UBIN SYMREF;
       82     9708    1   DCL GJA_HAND_HEAD$ PTR SYMREF;
       83     9709    1   DCL GJA_USRLGN_HEAD$ PTR SYMREF;
       84     9710    1   DCL GJA_ONE_WAIT_UNIT UBIN SYMREF;
       85     9711
       86     9712                                                /* DCBs                     */
       87     9713    1   DCL M$CQ DCB;
       88     9714                                                /* AUTO                     */
       89     9715    1   DCL FUNCTION UBIN;
       90     9716    1   DCL MSGSIZ UBIN;
       91     9717    1   DCL FPTSIZ UBIN;
       92     9718    1   DCL MSG$ PTR;                           /* Pointer into CQ for new message    */
       93     9719    1   DCL NEWMSGSIZ UBIN;                     /* Actual size of message (DW size    */
       94     9720    1   DCL QSIZ UBIN;                          /* Available space in queue */
       95     9721    1   DCL WRTFLG BIT(1);
       96     9722    1   DCL CTX$ PTR;
       97     9723    1   DCL NOSPACE BIT(1) ALIGNED;
       98     9724                                                /* FPTs                     */
       99     9725        %FPT_WRTMLT(DCB=M$CQ);
      100     9745        %FPT_WAIT(UNITS=GJA_ONE_WAIT_UNIT);
      101     9769        %KNH$MESS (FPTN=KNH_MESS,STCLASS=CONSTANT);
      102     9818                                                /* Entrys                   */
      103     9819    1   DCL KHD$SCREECH ENTRY(1);
      104     9820
      105     9821
      106     9822        %EJECT;
PL6.E3A0      #001=GJA$Q_MSG File=GJA$SUBS.:E05TSI                               TUE 07/29/97 21:54 Page:15
      107     9823
      108     9824    1        WRTFLG = '0'B;

   9824   3 000005  8747 0018                            CL       WRTFLG,AUTO

      109     9825    1        GOTO COMMON;

   9825   3 000007  0F81 0015                            B        s:9829,PREL

      110     9826
      111     9827    1   GJA$WRITE: ENTRY(UID,PMSGSIZ,MSG,PFPTSIZ,FPT,PFUNCTION);

   9827   3 000009  D380 0000 0000  xent GJA$WRITE       LNJ,B5   X6A_AUTO_N
          3 00000C       001E 0006                       DC       30,6

      112     9828
      113     9829    1        IF UID$->GJA$HAND_CTX.WHO = %GJA_UID_BABOON

   9829   3 00000E  ECC7 0004                            LDB,B6   @UID,AUTO
          3 000010  DC86                                 LDB,B5   ,B6
          3 000011  E805                                 LDR,R6   ,B5
          3 000012  604D                                 SOR,R6   13
          3 000013  6D02                                 CMV,R6   2
          3 000014  0981 0005                            BNE      s:9831,PREL

      114     9830    1        THEN WRTFLG = '0'B;

   9830   3 000016  8747 0018                            CL       WRTFLG,AUTO
          3 000018  0F81 0004                            B        s:9829,PREL

      115     9831    1        ELSE WRTFLG = '1'B;

   9831   3 00001A  8947 0018                            LBT,'8000'X       WRTFLG,AUTO
   9831   3 00001C       8000

   9829   3                              COMMON          null
      116     9832    1   COMMON: ;
PL6.E3A0      #001=GJA$Q_MSG File=GJA$SUBS.:E05TSI                               TUE 07/29/97 21:54 Page:16
      117     9833    1        IF ADDR(PFUNCTION) = ADDR(NIL)

   9833   3 00001D  ECC7 000E            COMMON          LDB,B6   @PFUNCTION,AUTO
          3 00001F  8DD6                                 CMN      B6
          3 000020  0981 0006                            BNE      s:9837,PREL

      118     9834    1        THEN
      119     9835    1             FUNCTION = %KN_FCN_DATA;

   9835   3 000022  6C05                                 LDV,R6   5
          3 000023  EF47 0011                            STR,R6   FUNCTION,AUTO
          3 000025  0F81 0004                            B        s:9838,PREL

      120     9836    1        ELSE
      121     9837    1             FUNCTION = PFUNCTION;

   9837   3 000027  E806                                 LDR,R6   ,B6
          3 000028  EF47 0011                            STR,R6   FUNCTION,AUTO

      122     9838    1        IF ADDR(PMSGSIZ) = ADDR(NIL)

   9838   3 00002A  DCC7 0006                            LDB,B5   @PMSGSIZ,AUTO
          3 00002C  8DD5                                 CMN      B5
          3 00002D  0981 0005                            BNE      s:9842,PREL

      123     9839    1        THEN
      124     9840    1             MSGSIZ = 0;

   9840   3 00002F  8747 0012                            CL       MSGSIZ,AUTO
          3 000031  0F81 0004                            B        s:9843,PREL

      125     9841    1        ELSE
      126     9842    1             MSGSIZ = PMSGSIZ;

   9842   3 000033  D805                                 LDR,R5   ,B5
          3 000034  DF47 0012                            STR,R5   MSGSIZ,AUTO

PL6.E3A0      #001=GJA$Q_MSG File=GJA$SUBS.:E05TSI                               TUE 07/29/97 21:54 Page:17
      127     9843    1        IF ADDR(PFPTSIZ) = ADDR(NIL)

   9843   3 000036  CCC7 000A                            LDB,B4   @PFPTSIZ,AUTO
          3 000038  8DD4                                 CMN      B4
          3 000039  0981 0005                            BNE      s:9847,PREL

      128     9844    1        THEN
      129     9845    1             FPTSIZ = 0;

   9845   3 00003B  8747 0013                            CL       FPTSIZ,AUTO
          3 00003D  0F81 0004                            B        s:9852,PREL

      130     9846    1        ELSE
      131     9847    1             FPTSIZ = PFPTSIZ;

   9847   3 00003F  D804                                 LDR,R5   ,B4
          3 000040  DF47 0013                            STR,R5   FPTSIZ,AUTO

      132     9848        /*
      133     9849          Calculate the size of the entire message including the FPT portion
      134     9850          and the header.  This is a doubleword size
      135     9851        */
      136     9852    1        NEWMSGSIZ=(MSGSIZ+1)/2 + SIZEW(KNH$MESS) + (FPTSIZ+1)/2;

   9852   3 000042  D847 0012                            LDR,R5   MSGSIZ,AUTO
          3 000044  5E01                                 ADV,R5   1
          3 000045  5041                                 SOR,R5   1
          3 000046  C847 0013                            LDR,R4   FPTSIZ,AUTO
          3 000048  4E01                                 ADV,R4   1
          3 000049  4041                                 SOR,R4   1
          3 00004A  DA54                                 ADD,R5   R4
          3 00004B  5E08                                 ADV,R5   8
          3 00004C  DF47 0016                            STR,R5   NEWMSGSIZ,AUTO

      137     9853    1        IF NEWMSGSIZ > NA_QHDR.SCQ.SZ

   9853   3 00004E  BC80 0000 0000  xsym                 LDB,B3   G$HAND_Q$
PL6.E3A0      #001=GJA$Q_MSG File=GJA$SUBS.:E05TSI                               TUE 07/29/97 21:54 Page:18
          3 000051  D943 0006                            CMR,R5   6,B3
          3 000053  0381 0005                            BLE      s:9856,PREL

      138     9854    1        THEN
      139     9855    1             CALL M$XXX;

   9855   3 000055  B870 0082                            LDR,R3   130,IMO
          3 000057  0001                                 MCL
          3 000058       0000                            DC       s:9855+3,PREL

      140     9856    1        IF WRTFLG

   9856   3 000059  89C7 0018                            CMZ      WRTFLG,AUTO
          3 00005B  0881 0006                            BAGE     s:9858,PREL

      141     9857    1        THEN NEWMSGSIZ = NEWMSGSIZ + SIZEW(KV$VDO_DAT);

   9857   3 00005D  E847 0016                            LDR,R6   NEWMSGSIZ,AUTO
          3 00005F  6E04                                 ADV,R6   4
          3 000060  EF47 0016                            STR,R6   NEWMSGSIZ,AUTO

      142     9858    1        NEWMSGSIZ = (NEWMSGSIZ + 1) / 2;

   9858   3 000062  E847 0016                            LDR,R6   NEWMSGSIZ,AUTO
          3 000064  6E01                                 ADV,R6   1
          3 000065  6041                                 SOR,R6   1
          3 000066  EF47 0016                            STR,R6   NEWMSGSIZ,AUTO

      143     9859
      144     9860        /*
      145     9861          If the insert pointer is greater than the removal pointer, the amount
      146     9862          of space in the queue is equal to the amount of space left between
      147     9863          the insert pointer and the end of the queue, minus the space needed
      148     9864          for a NOP, which is allways there.  If the insert pointer is less than
      149     9865          the removal pointer, the amount of space left for a message is equal
      150     9866          to the difference between the two.
      151     9867        */
PL6.E3A0      #001=GJA$Q_MSG File=GJA$SUBS.:E05TSI                               TUE 07/29/97 21:54 Page:19
      152     9868    1        NOSPACE='1'B;

   9868   3 000068  8947 001B                            LBT,'8000'X       NOSPACE,AUTO
   9868   3 00006A       8000

      153     9869    2        DO WHILE (NOSPACE);

   9869   3 00006B  89C7 001B                            CMZ      NOSPACE,AUTO
          3 00006D  0881 0062                            BAGE     s:9901,PREL

      154     9870    2             IF NA_QHDR.SCQ.IPTR >= NA_QHDR.SCQ.RPTR

   9870   3 00006F  EC80 0000 0000  xsym                 LDB,B6   G$HAND_Q$
          3 000072  E846 0004                            LDR,R6   4,B6
          3 000074  E946 0005                            CMR,R6   5,B6
          3 000076  0201 0009                            BL       s:9872,PREL

      155     9871    2             THEN QSIZ=NA_QHDR.SCQ.SZ - NA_QHDR.SCQ.IPTR - SIZEW(KNH$MESS)/2;

   9871   3 000078  E246 0006                            SUB,R6   6,B6
          3 00007A  8256                                 NEG      R6
          3 00007B  6EFC                                 ADV,R6   -4
          3 00007C  EF47 0017                            STR,R6   QSIZ,AUTO
          3 00007E  0F81 0006                            B        s:9877,PREL

      156     9872    2             ELSE QSIZ=NA_QHDR.SCQ.RPTR - NA_QHDR.SCQ.IPTR - 1;

   9872   3 000080  E246 0005                            SUB,R6   5,B6
          3 000082  8656                                 CPL      R6
          3 000083  EF47 0017                            STR,R6   QSIZ,AUTO

      157     9873        /*
      158     9874          If there isn't enough room for the message and we are at the end of
      159     9875          the send queue, put a NOP at the end and wrap the queue.
      160     9876        */
      161     9877    2             IF NEWMSGSIZ > QSIZ AND NA_QHDR.SCQ.IPTR >= NA_QHDR.SCQ.RPTR

PL6.E3A0      #001=GJA$Q_MSG File=GJA$SUBS.:E05TSI                               TUE 07/29/97 21:54 Page:20
   9877   3 000085  E947 0016                            CMR,R6   NEWMSGSIZ,AUTO
          3 000087  0281 002C                            BGE      s:9890,PREL
          3 000089  D846 0004                            LDR,R5   4,B6
          3 00008B  D946 0005                            CMR,R5   5,B6
          3 00008D  0201 0026                            BL       s:9890,PREL
          3 00008F  C846 0005                            LDR,R4   5,B6
          3 000091  4901 0022                            BEZ,R4   s:9890,PREL

      162     9878    2                  AND NA_QHDR.SCQ.RPTR ~= 0
      163     9879    3             THEN DO;                      /* WRAP                     */

      164     9880    3                  MSG$ = PINCRW(G$HAND_Q$,NA_QHDR.SCQ.OFFSET+NA_QHDR.SCQ.IPTR*2);

   9880   3 000093  5001                                 SOL,R5   1
          3 000094  DA46 0007                            ADD,R5   7,B6
          3 000096  F855                                 LDR,R7   R5
          3 000097  6C00                                 LDV,R6   0
          3 000098  8400 0000 0000  xsym                 AID      G$HAND_Q$
          3 00009B  8D47 0014                            SDI      MSG$,AUTO

      165     9881    3                  KNH$MESS.FUNCTION=%KN_FCN_NOP;

   9881   3 00009D  DCC7 0014                            LDB,B5   MSG$,AUTO
          3 00009F  5C06                                 LDV,R5   6
          3 0000A0  DF05                                 STR,R5   ,B5

      166     9882    3                  KNH$MESS.FPTSZ=0;

   9882   3 0000A1  8745 0006                            CL       6,B5

      167     9883    3                  KNH$MESS.MSGSZ=QSIZ*4;

   9883   3 0000A3  C847 0017                            LDR,R4   QSIZ,AUTO
          3 0000A5  4002                                 SOL,R4   2
          3 0000A6  CF45 0007                            STR,R4   7,B5

      168     9884    3                  NA_QHDR.SCQ.IPTR=0;
PL6.E3A0      #001=GJA$Q_MSG File=GJA$SUBS.:E05TSI                               TUE 07/29/97 21:54 Page:21

   9884   3 0000A8  EC80 0000 0000  xsym                 LDB,B6   G$HAND_Q$
          3 0000AB  8746 0004                            CL       4,B6

      169     9885    3                  QSIZ=NA_QHDR.SCQ.RPTR - NA_QHDR.SCQ.IPTR - 1;

   9885   3 0000AD  B846 0005                            LDR,R3   5,B6
          3 0000AF  B246 0004                            SUB,R3   4,B6
          3 0000B1  3EFF                                 ADV,R3   -1
          3 0000B2  BF47 0017                            STR,R3   QSIZ,AUTO

      170     9886    3                END;

      171     9887        /*
      172     9888          If theres still no space for the message, the ballgames over
      173     9889        */
      174     9890    2             IF NEWMSGSIZ > QSIZ

   9890   3 0000B4  E847 0016                            LDR,R6   NEWMSGSIZ,AUTO
          3 0000B6  E947 0017                            CMR,R6   QSIZ,AUTO
          3 0000B8  0381 0011                            BLE      s:9895,PREL

      175     9891    3             THEN DO;

      176     9892    3                  CALL M$WRTMLT(FPT_WRTMLT);

   9892   3 0000BA  BB80 0000 0000  01                   LAB,B3   FPT_WRTMLT
          3 0000BD  B870 1144                            LDR,R3   4420,IMO
          3 0000BF  0001                                 MCL
          3 0000C0       0000                            DC       s:9892+6,PREL

      177     9893    3                  CALL M$WAIT(FPT_WAIT);

   9893   3 0000C1  BB80 0000 000D  01                   LAB,B3   FPT_WAIT
          3 0000C4  B870 0CC5                            LDR,R3   3269,IMO
          3 0000C6  0001                                 MCL
          3 0000C7       0000                            DC       s:9893+6,PREL
PL6.E3A0      #001=GJA$Q_MSG File=GJA$SUBS.:E05TSI                               TUE 07/29/97 21:54 Page:22

      178     9894    3                END;

   9894   3 0000C8  0F81 0003                            B        s:9896,PREL

      179     9895    2             ELSE NOSPACE='0'B;

   9895   3 0000CA  8747 001B                            CL       NOSPACE,AUTO

      180     9896    2           END;

   9896   3 0000CC  89C7 001B                            CMZ      NOSPACE,AUTO
          3 0000CE  0801 FFA0                            BAL      s:9870,PREL

      181     9897        /*
      182     9898          Calculate where the message will fit and then fill it in from the
      183     9899          passed parameters.
      184     9900        */
      185     9901    1        MSG$ = PINCRW(G$HAND_Q$,NA_QHDR.SCQ.OFFSET+NA_QHDR.SCQ.IPTR*2);

   9901   3 0000D0  EC80 0000 0000  xsym                 LDB,B6   G$HAND_Q$
          3 0000D3  E846 0004                            LDR,R6   4,B6
          3 0000D5  6001                                 SOL,R6   1
          3 0000D6  EA46 0007                            ADD,R6   7,B6
          3 0000D8  F856                                 LDR,R7   R6
          3 0000D9  6C00                                 LDV,R6   0
          3 0000DA  8400 0000 0000  xsym                 AID      G$HAND_Q$
          3 0000DD  8D47 0014                            SDI      MSG$,AUTO

      186     9902    1        KNH$MESS = KNH_MESS;

   9902   3 0000DF  AB80 0000 0000  02                   LAB,B2   KNH_MESS
          3 0000E2  2C00                                 LDV,R2   0
          3 0000E3  6C10                                 LDV,R6   16
          3 0000E4  BCC7 0014                            LDB,B3   MSG$,AUTO
          3 0000E6  3C00                                 LDV,R3   0
          3 0000E7  0008                                 MMM
PL6.E3A0      #001=GJA$Q_MSG File=GJA$SUBS.:E05TSI                               TUE 07/29/97 21:54 Page:23

      187     9903    1        KNH$MESS.FUNCTION=FUNCTION;

   9903   3 0000E8  ECC7 0014                            LDB,B6   MSG$,AUTO
          3 0000EA  E847 0011                            LDR,R6   FUNCTION,AUTO
          3 0000EC  EF06                                 STR,R6   ,B6

      188     9904    1        KNH$MESS.UID=UID;

   9904   3 0000ED  DCC7 0004                            LDB,B5   @UID,AUTO
          3 0000EF  8C85                                 LDI      ,B5
          3 0000F0  8D46 0002                            SDI      2,B6

      189     9905    1        IF UID$ ~= ADDR(NIL)

   9905   3 0000F2  8D85                                 CMN      ,B5
          3 0000F3  0901 0007                            BE       s:9908,PREL

      190     9906    1        THEN
      191     9907    1             KNH$MESS.LDCTX = UID$->GJA$HAND_CTX.LDCTX;

   9907   3 0000F5  CC85                                 LDB,B4   ,B5
          3 0000F6  D804                                 LDR,R5   ,B4
          3 0000F7  D570 1FFF                            AND,R5   8191,IMO
          3 0000F9  DF46 0001                            STR,R5   1,B6

      192     9908    1        KNH$MESS.LAST_PTR = NA_QHDR.LAST_SCQPTR;

   9908   3 0000FB  CC80 0000 0000  xsym                 LDB,B4   G$HAND_Q$
          3 0000FE  D844 0017                            LDR,R5   23,B4
          3 000100  DF46 0005                            STR,R5   5,B6

      193     9909    1        NA_QHDR.LAST_SCQPTR = NA_QHDR.SCQ.IPTR;

   9909   3 000102  C844 0004                            LDR,R4   4,B4
          3 000104  CF44 0017                            STR,R4   23,B4

PL6.E3A0      #001=GJA$Q_MSG File=GJA$SUBS.:E05TSI                               TUE 07/29/97 21:54 Page:24
      194     9910    1        KNH$MESS.FPTSZ=FPTSIZ;

   9910   3 000106  E847 0013                            LDR,R6   FPTSIZ,AUTO
          3 000108  EF46 0006                            STR,R6   6,B6

      195     9911    1        KNH$MESS.RECTYPE=RECTYPE;

   9911   3 00010A  D847 0010                            LDR,R5   RECTYPE,AUTO
          3 00010C  DF46 0004                            STR,R5   4,B6

      196     9912    1        IF WRTFLG

   9912   3 00010E  89C7 0018                            CMZ      WRTFLG,AUTO
          3 000110  0881 0008                            BAGE     s:9914,PREL

      197     9913    1        THEN KNH$MESS.MSGSZ = MSGSIZ + SIZEC(KV$VDO_DAT);

   9913   3 000112  C847 0012                            LDR,R4   MSGSIZ,AUTO
          3 000114  4E08                                 ADV,R4   8
          3 000115  CF46 0007                            STR,R4   7,B6
          3 000117  0F81 0005                            B        s:9916,PREL

      198     9914    1        ELSE KNH$MESS.MSGSZ=MSGSIZ;

   9914   3 000119  C847 0012                            LDR,R4   MSGSIZ,AUTO
          3 00011B  CF46 0007                            STR,R4   7,B6

      199     9915
      200     9916    1        MSG$=PINCRW(MSG$,SIZEW(KNH$MESS));

   9916   3 00011D  BBC6 0008                            LAB,B3   8,B6
          3 00011F  BFC7 0014                            STB,B3   MSG$,AUTO

      201     9917        /*
      202     9918          If theres an FPT, move it in
      203     9919        */
      204     9920    1        IF FPTSIZ ~= 0
PL6.E3A0      #001=GJA$Q_MSG File=GJA$SUBS.:E05TSI                               TUE 07/29/97 21:54 Page:25

   9920   3 000121  6901 001C                            BEZ,R6   s:9928,PREL

      205     9921    2        THEN DO;

      206     9922    2             MSG$->THEFPT=FPT;

   9922   3 000123  8CC7 000C                            LDI      @FPT,AUTO
          3 000125  B856                                 LDR,R3   R6
          3 000126  E570 7FFF                            AND,R6   32767,IMO
          3 000128  8D47 001C                            SDI      NOSPACE+1,AUTO
          3 00012A  ECC7 001C                            LDB,B6   NOSPACE+1,AUTO
          3 00012C  304F                                 SOR,R3   15
          3 00012D  AB86                                 LAB,B2   ,B6
          3 00012E  A853                                 LDR,R2   R3
          3 00012F  E847 0013                            LDR,R6   FPTSIZ,AUTO
          3 000131  3C00                                 LDV,R3   0
          3 000132  0008                                 MMM

      207     9923    2             MSG$=PINCRW(MSG$,SIZEW(FPT));

   9923   3 000133  E847 0013                            LDR,R6   FPTSIZ,AUTO
          3 000135  6003                                 SOL,R6   3
          3 000136  6E0F                                 ADV,R6   15
          3 000137  6044                                 SOR,R6   4
          3 000138  F856                                 LDR,R7   R6
          3 000139  6C00                                 LDV,R6   0
          3 00013A  8447 0014                            AID      MSG$,AUTO
          3 00013C  8D47 0014                            SDI      MSG$,AUTO

      208     9924    2           END;

      209     9925
      210     9926        /* If write move in VDO_DAT and VDOVLP_DAT1 */
      211     9927
      212     9928    1        IF WRTFLG

PL6.E3A0      #001=GJA$Q_MSG File=GJA$SUBS.:E05TSI                               TUE 07/29/97 21:54 Page:26
   9928   3 00013E  89C7 0018                            CMZ      WRTFLG,AUTO
          3 000140  0881 0014                            BAGE     s:9937,PREL

      213     9929    2        THEN DO;

      214     9930    2             KV$VDO_DAT = GJA_VDO_DAT_DAT2;

   9930   3 000142  AB80 0000 0000  xsym                 LAB,B2   GJA_VDO_DAT_DAT2
          3 000145  2C00                                 LDV,R2   0
          3 000146  6C08                                 LDV,R6   8
          3 000147  BCC7 0014                            LDB,B3   MSG$,AUTO
          3 000149  3C00                                 LDV,R3   0
          3 00014A  0008                                 MMM

      215     9931    2             KV$VDO_DAT.KV$VDOVLP_DAT2.BYTSIZ = MSGSIZ;

   9931   3 00014B  ECC7 0014                            LDB,B6   MSG$,AUTO
          3 00014D  E847 0012                            LDR,R6   MSGSIZ,AUTO
          3 00014F  EF46 0003                            STR,R6   3,B6

      216     9932    2             MSG$ = PINCRW(MSG$,SIZEW(KV$VDO_DAT));

   9932   3 000151  CBC6 0004                            LAB,B4   4,B6
          3 000153  CFC7 0014                            STB,B4   MSG$,AUTO

      217     9933    2           END;

      218     9934        /*
      219     9935          If theres a MSG body, move it in
      220     9936        */
      221     9937    1        IF MSGSIZ ~= 0

   9937   3 000155  E847 0012                            LDR,R6   MSGSIZ,AUTO
          3 000157  6901 0013                            BEZ,R6   s:9942,PREL

      222     9938    1        THEN MSG$->MESSAGE=MSG;

PL6.E3A0      #001=GJA$Q_MSG File=GJA$SUBS.:E05TSI                               TUE 07/29/97 21:54 Page:27
   9938   3 000159  8CC7 0008                            LDI      @MSG,AUTO
          3 00015B  B856                                 LDR,R3   R6
          3 00015C  E570 7FFF                            AND,R6   32767,IMO
          3 00015E  8D47 001C                            SDI      NOSPACE+1,AUTO
          3 000160  ECC7 001C                            LDB,B6   NOSPACE+1,AUTO
          3 000162  304F                                 SOR,R3   15
          3 000163  AB86                                 LAB,B2   ,B6
          3 000164  A853                                 LDR,R2   R3
          3 000165  E847 0012                            LDR,R6   MSGSIZ,AUTO
          3 000167  BCC7 0014                            LDB,B3   MSG$,AUTO
          3 000169  3C00                                 LDV,R3   0
          3 00016A  0008                                 MMM

      223     9939        /*
      224     9940          Update the send queue receive pointer
      225     9941        */
      226     9942    1        NA_QHDR.SCQ.IPTR = NA_QHDR.SCQ.IPTR + NEWMSGSIZ;

   9942   3 00016B  EC80 0000 0000  xsym                 LDB,B6   G$HAND_Q$
          3 00016E  E846 0004                            LDR,R6   4,B6
          3 000170  EA47 0016                            ADD,R6   NEWMSGSIZ,AUTO
          3 000172  EF46 0004                            STR,R6   4,B6

      227     9943
      228     9944    1        RETURN;

   9944   3 000174  C380 0000 0000  xent                 LNJ,B4   X6A_ARET
      229     9945    1   END GJA$Q_MSG;
      230     9946        %EOD;

PL6.E3A0      #001=GJA$Q_MSG File=GJA$SUBS.:E05TSI                               TUE 07/29/97 21:54 Page:28
--  Include file information  --

   KV$VDO.:E05TOU  is referenced.
   KNH_MACRO_C.:E05TOU  is referenced.
   KL_MACRO_C.:E05TOU  is referenced.
   GJA_MSG_M.:E05TOU  is referenced.
   G_LCP6_E.:E05TOU  is referenced.
   GT_LCP6_M.:E05TOU  is referenced.
   KI_CP6.:E05TOU  is referenced.
   GF_LCP6_M.:E05TOU  is referenced.
   GM_LCP6_M.:E05TOU  is referenced.
   GU_LCP6_M.:E05TOU  is referenced.
   GJ_LCP6_M.:E05TOU  is referenced.
   GH_LCP6_M.:E05TOU  is referenced.
   LCP_6.:E05TOU  cannot be made into a system file and is referenced.
      No diagnostics issued in procedure GJA$Q_MSG.
PL6.E3A0      #001=GJA$Q_MSG File=GJA$SUBS.:E05TSI                               TUE 07/29/97 21:54 Page:29

 **** Variables and constants ****

  ****  Section 001  Data  GJA$Q_MSG

  ****  Scalars and arrays  ****
HexLoc.c.b A Datatyp(siz) R M Lvl/name                 HexLoc.c.b A Datatyp(siz) R M Lvl/name

     D-0-0/w STRC(160)   r     1 FPT_WAIT                   0-0-0/w STRC(207)   r     1 FPT_WRTMLT

  ****  Section 002 RoData GJA$Q_MSG

  ****  Scalars and arrays  ****
HexLoc.c.b A Datatyp(siz) R M Lvl/name                 HexLoc.c.b A Datatyp(siz) R M Lvl/name

     0-0-0/c STRC(128)   r     1 KNH_MESS

  ****  Auto variables  ****

  ****  Scalars and arrays  ****
HexLoc.c.b A Datatyp(siz) R M Lvl/name                 HexLoc.c.b A Datatyp(siz) R M Lvl/name

     C-0-0/w PTR         r     1 @FPT                       8-0-0/w PTR         r     1 @MSG
     A-0-0/w PTR         r     1 @PFPTSIZ                   E-0-0/w PTR         r     1 @PFUNCTION
     6-0-0/w PTR         r     1 @PMSGSIZ                   4-0-0/w PTR         r     1 @UID
    19-0-0/w PTR         r     1 CTX$                      *0-0-0/c ACHR        r     1 FPT
    13-0-0/w UBIN(16)    r     1 FPTSIZ                    11-0-0/w UBIN(16)    r     1 FUNCTION
    *0-0-0/c ACHR        r     1 MSG                       14-0-0/w PTR         r     1 MSG$
    12-0-0/w UBIN(16)    r     1 MSGSIZ                    16-0-0/w UBIN(16)    r     1 NEWMSGSIZ
    1B-0-0/w BIT         r     1 NOSPACE                   *0-0-0/w UBIN(16)    r     1 PFPTSIZ
    *0-0-0/w UBIN(16)    r     1 PFUNCTION                 *0-0-0/w UBIN(16)    r     1 PMSGSIZ
    17-0-0/w UBIN(16)    r     1 QSIZ                      10-0-0/w UBIN(16)    r     1 RECTYPE
    *0-0-0/w UBIN(32)    r     1 UID                       *0-0-0/w PTR         r     1 UID$
    18-0-0/b BIT         r     1 WRTFLG

  ****  SYMREF variables  ****

  ****  Scalars and arrays  ****
PL6.E3A0      #001=GJA$Q_MSG File=GJA$SUBS.:E05TSI                               TUE 07/29/97 21:54 Page:30
HexLoc.c.b A Datatyp(siz) R M Lvl/name                 HexLoc.c.b A Datatyp(siz) R M Lvl/name

     0-0-0/w PTR         r     1 G$HAND_Q$                  0-0-0/w UBIN(16)    r     1 GJA_ONE_WAIT_UNIT
     0-0-0/w STRC(64)    r     1 GJA_VDO_DAT_DAT2

  ****  BASED and DCB variables  ****

  ****  Scalars and arrays  ****
HexLoc.c.b A Datatyp(siz) R M Lvl/name                 HexLoc.c.b A Datatyp(siz) R M Lvl/name

     0-0-0/c STRC(272)   r     1 GJA$HAND_CTX               0-0-0/c STRC(128)   r     1 KNH$MESS
     0-0-0/w STRC(64)    r     1 KV$VDO_DAT                 0-0-0N  NULL        r     1 M$CQ
     0-0-0/c ACHR        r     1 MESSAGE                    0-0-0/w STRC(384)   r     1 NA_QHDR
     0-0-0/c ACHR        r     1 THEFPT


   Procedure GJA$Q_MSG requires 375 words for executable code.
   Procedure GJA$Q_MSG requires 30 words of local(AUTO) storage.
PL6.E3A0      #001=GJA$Q_MSG File=GJA$SUBS.:E05TSI                               TUE 07/29/97 21:54 Page:31
          *** CROSS REFERENCE LISTING ***
**     DENOTES     IDENTIFIER DEFINITION
<<                 IDENTIFIER'S VALUE SET
>>                 IDENTIFIER'S VALUE USED
<>                 IDENTIFIER SET AND/OR USED
--                 IDENTIFIER REFERENCED
PL6.E3A0      #001=GJA$Q_MSG File=GJA$SUBS.:E05TSI                               TUE 07/29/97 21:54 Page:32
          MINI XREF LISTING

COMMON
      9829**LABEL    9825--GOTO
CTX$
      9722**DCL      9314--IMP-PTR  9363--IMP-PTR
FPT
      9222**DCL        42--PROC     9827--ENTRY    9922>>ASSIGN   9923--ASSIGN
FPTSIZ
      9717**DCL      9222--IMP-SIZ  9605--IMP-SIZ  9845<<ASSIGN   9847<<ASSIGN   9852>>ASSIGN   9910>>ASSIGN
      9920>>IF       9922>>ASSIGN   9922>>ASSIGN   9923>>ASSIGN
FPT_WAIT
      9758**DCL      9893<>CALL
FPT_WAIT.V
      9762**DCL      9761--DCLINIT
FPT_WRTMLT
      9738**DCL      9892<>CALL
FPT_WRTMLT.V
      9743**DCL      9740--DCLINIT
FUNCTION
      9715**DCL      9835<<ASSIGN   9837<<ASSIGN   9903>>ASSIGN
G$HAND_Q$
      9610**DCL      9497--IMP-PTR  9853>>IF       9870>>IF       9870>>IF       9871>>ASSIGN   9871>>ASSIGN
      9872>>ASSIGN   9872>>ASSIGN   9877>>IF       9877>>IF       9877>>IF       9880>>ASSIGN   9880>>ASSIGN
      9880>>ASSIGN   9884>>ASSIGN   9885>>ASSIGN   9885>>ASSIGN   9901>>ASSIGN   9901>>ASSIGN   9901>>ASSIGN
      9908>>ASSIGN   9909>>ASSIGN   9909>>ASSIGN   9942>>ASSIGN   9942>>ASSIGN
GJA$HAND_CTX.LDCTX
      9320**DCL      9907>>ASSIGN
GJA$HAND_CTX.WHO
      9319**DCL      9829>>IF
GJA$LGNCTX.TERMINAL_ID.TERM
      9414**DCL      9423--REDEF
GJA_ONE_WAIT_UNIT
      9710**DCL      9761--DCLINIT
PL6.E3A0      #001=GJA$Q_MSG File=GJA$SUBS.:E05TSI                               TUE 07/29/97 21:54 Page:33
GJA_VDO_DAT_DAT2
      9644**DCL      9930>>ASSIGN
KNH$MESS
      9460**DCL      9852--ASSIGN   9871--ASSIGN   9902<<ASSIGN   9916--ASSIGN
KNH$MESS.FPTSZ
      9493**DCL      9882<<ASSIGN   9910<<ASSIGN
KNH$MESS.FUNCTION
      9460**DCL      9460--REDEF    9881<<ASSIGN   9903<<ASSIGN
KNH$MESS.LAST_PTR
      9493**DCL      9908<<ASSIGN
KNH$MESS.LDCTX
      9465**DCL      9907<<ASSIGN
KNH$MESS.MSGSZ
      9494**DCL      9883<<ASSIGN   9913<<ASSIGN   9914<<ASSIGN
KNH$MESS.RECTYPE
      9493**DCL      9911<<ASSIGN
KNH$MESS.UID
      9490**DCL      9490--REDEF    9490--REDEF    9904<<ASSIGN
KNH_MESS
      9782**DCL      9902>>ASSIGN
KNH_MESS.FUNCTION
      9782**DCL      9782--REDEF
KNH_MESS.UID
      9812**DCL      9812--REDEF    9812--REDEF
KV$VDO_DAT
      9542**DCL      9857--ASSIGN   9913--ASSIGN   9930<<ASSIGN   9932--ASSIGN
KV$VDO_DAT.KV$VDOVLP_DAT2.BYTSIZ
      9597**DCL      9931<<ASSIGN
M$WAIT
      4289**DCL-ENT  9893--CALL
M$WRTMLT
      4306**DCL-ENT  9892--CALL
M$XXX
      4283**DCL-ENT  9855--CALL
MESSAGE
      9606**DCL      9938<<ASSIGN
PL6.E3A0      #001=GJA$Q_MSG File=GJA$SUBS.:E05TSI                               TUE 07/29/97 21:54 Page:34
MSG
      9220**DCL        42--PROC     9827--ENTRY    9938>>ASSIGN
MSG$
      9718**DCL      9460--IMP-PTR  9542--IMP-PTR  9880<<ASSIGN   9881>>ASSIGN   9882>>ASSIGN   9883>>ASSIGN
      9901<<ASSIGN   9902>>ASSIGN   9903>>ASSIGN   9904>>ASSIGN   9907>>ASSIGN   9908>>ASSIGN   9910>>ASSIGN
      9911>>ASSIGN   9913>>ASSIGN   9914>>ASSIGN   9916<<ASSIGN   9916>>ASSIGN   9922>>ASSIGN   9923<<ASSIGN
      9923>>ASSIGN   9930>>ASSIGN   9931>>ASSIGN   9932<<ASSIGN   9932>>ASSIGN   9938>>ASSIGN
MSGSIZ
      9716**DCL      9220--IMP-SIZ  9606--IMP-SIZ  9840<<ASSIGN   9842<<ASSIGN   9852>>ASSIGN   9913>>ASSIGN
      9914>>ASSIGN   9931>>ASSIGN   9937>>IF       9938>>ASSIGN   9938>>ASSIGN
NA_QHDR.LAST_SCQPTR
      9506**DCL      9908>>ASSIGN   9909<<ASSIGN
NA_QHDR.RCQ
      9497**DCL      9497--REDEF
NA_QHDR.SCQ.IPTR
      9498**DCL      9870>>IF       9871>>ASSIGN   9872>>ASSIGN   9877>>IF       9880>>ASSIGN   9884<<ASSIGN
      9885>>ASSIGN   9901>>ASSIGN   9909>>ASSIGN   9942<<ASSIGN   9942>>ASSIGN
NA_QHDR.SCQ.OFFSET
      9498**DCL      9880>>ASSIGN   9901>>ASSIGN
NA_QHDR.SCQ.RPTR
      9498**DCL      9870>>IF       9872>>ASSIGN   9877>>IF       9877>>IF       9885>>ASSIGN
NA_QHDR.SCQ.SZ
      9498**DCL      9853>>IF       9871>>ASSIGN
NEWMSGSIZ
      9719**DCL      9852<<ASSIGN   9853>>IF       9857<<ASSIGN   9857>>ASSIGN   9858<<ASSIGN   9858>>ASSIGN
      9877>>IF       9890>>IF       9942>>ASSIGN
NOSPACE
      9723**DCL      9868<<ASSIGN   9869>>DOWHILE  9895<<ASSIGN
PFPTSIZ
      9221**DCL        42--PROC     9827--ENTRY    9843--IF       9847>>ASSIGN
PFUNCTION
      9215**DCL        42--PROC     9827--ENTRY    9833--IF       9837>>ASSIGN
PMSGSIZ
      9219**DCL        42--PROC     9827--ENTRY    9838--IF       9842>>ASSIGN
QSIZ
      9720**DCL      9871<<ASSIGN   9872<<ASSIGN   9877>>IF       9883>>ASSIGN   9885<<ASSIGN   9890>>IF
PL6.E3A0      #001=GJA$Q_MSG File=GJA$SUBS.:E05TSI                               TUE 07/29/97 21:54 Page:35
RECTYPE
      9218**DCL      9911>>ASSIGN
THEFPT
      9605**DCL      9922<<ASSIGN
UID
      9216**DCL        42--PROC     9217--REDEF    9827--ENTRY    9904>>ASSIGN
UID$
      9217**DCL      9829>>IF       9905>>IF       9907>>ASSIGN
WRTFLG
      9721**DCL      9824<<ASSIGN   9830<<ASSIGN   9831<<ASSIGN   9856>>IF       9912>>IF       9928>>IF

PL6.E3A0      #002=GJA$GET_CHNTBL_PTR File=GJA$SUBS.:E05TSI                      TUE 07/29/97 21:54 Page:36
      231        1        /*T***********************************************************/
      232        2        /*T*                                                         */
      233        3        /*T* Copyright (c) Bull HN Information Systems Inc., 1997    */
      234        4        /*T*                                                         */
      235        5        /*T***********************************************************/
      236        6        /*F* NAME:     GJA$GET_CHNTBL_PTR
      237        7
      238        8             PURPOSE:  To take as input a TERMINAL_ID structure and to
      239        9                       return a pointer to the associated NA context block.
      240       10
      241       11             DESCRIPTION:  This routine follows the following general steps:
      242       12                           1).  Using LEV, we figure out how much of the
      243       13                                TERMINAL_ID structure we need to identify the
      244       14                                channel.  We first do a search to derive a
      245       15                                pointer to the base channel table entry.
      246       16                           2).  If LEV indicates there is a SUBDEVICE, we
      247       17                                then do a search down the linked list of sub context
      248       18                                pointed to by CHNTBL.SUB$.
      249       19                           3).  IF LEV indicates there is a SUBSUBDEVICE, we
      250       20                                then do a search down the linked list pointed to
      251       21                                by the SUB$ entry located in step 2 above.
      252       22                           4).  If the entry cannot be found, we ALTRETURN with
      253       23                                CHAN$ = ADDR(NIL).
      254       24
      255       25             CALL:   CALL GJA$GET_CHNTBL_PTR(TERMID,CHN$) ALTRET(label);
      256       26
      257       27             INPUTS: TERMINAL_ID - A structure completly describing the
      258       28                                   channel we are searching for.
      259       29
      260       30             OUTPUTS: CHN$ - A pointer to the associated context block. If none
      261       31                             found, CHN$ = ADDR(NIL).
      262       32        */
      263       33        GJA$GET_CHNTBL_PTR: PROC(TERMID,CTX$) ALTRET;
      264       34
      265       35        %INCLUDE GJA_MSG_M;
      266      274        %INCLUDE CP_6_SUBS;
      267      814        %INCLUDE KH$CHN;
PL6.E3A0      #002=GJA$GET_CHNTBL_PTR File=GJA$SUBS.:E05TSI                      TUE 07/29/97 21:54 Page:37
      268      936        %INCLUDE KL_MACRO_C;
      269     4288        %INCLUDE LCP_6;
      270     8567                                                /* Args                     */
      271     8568        %B$TERMINAL_ID (FPTN=TERMID,STCLASS="",LAST=";",ALGN=ALIGNED);
      272     8597    1   DCL CTX$ PTR;
      273     8598                                                /* Symrefs                  */
      274     8599    1   DCL GJA_CHNLOW$ PTR SYMREF;
      275     8600    1   DCL GJA_CHNLOW UBIN SYMREF;
      276     8601    1   DCL GJA_CHNHI UBIN SYMREF;
      277     8602                                                /* Based                    */
      278     8603        %KH$CHN (NAME=CHANCTX,STCLASS="BASED(LVL1$)");
      279     8727        %KH$CHN (NAME=LVL2CTX,STCLASS="BASED(LVL2$)");
      280     8851        %KH$CHN (NAME=LVL3CTX,STCLASS="BASED(LVL3$)");
      281     8975                                                /* Local                    */
      282     8976    1   DCL LVL1$ PTR;
      283     8977    1   DCL LVL2$ PTR;
      284     8978    1   DCL LVL3$ PTR;
      285     8979    1   DCL CHAN UBIN;
      286     8980    1   DCL TEMP$ PTR;
      287     8981        %EJECT;
PL6.E3A0      #002=GJA$GET_CHNTBL_PTR File=GJA$SUBS.:E05TSI                      TUE 07/29/97 21:54 Page:38
      288     8982
      289     8983        /* Validate the channel passed */
      290     8984
      291     8985    1        CTX$ = ADDR(NIL);
      292     8986    1        CHAN = TERMID.TERM.CHANNEL;
      293     8987    1        IF CHAN > GJA_CHNHI OR CHAN < GJA_CHNLOW OR
      294     8988    1             TERMID.LEV < %TERMINAL_ID_LEV_CHAN# OR
      295     8989    2             TERMID.LEV > %TERMINAL_ID_LEV_SUBSUBCHAN# THEN DO;
      296     8990    2             ALTRETURN;
      297     8991    2           END;                            /* IF                       */
      298     8992    1        LVL1$ = PINCRW(GJA_CHNLOW$,SIZEW(CHANCTX)*(CHAN/128));
      299     8993    1        CTX$ = LVL1$;
      300     8994    2        IF TERMID.LEV ~= %TERMINAL_ID_LEV_CHAN# THEN DO;
      301     8995    2             LVL2$ = CHANCTX.SUB$;
      302     8996    3             DO WHILE(LVL2$ ~= ADDR(NIL) AND TERMID.TERM.SUBDEVICE ~= LVL2CTX.TERMID.
              8996                      TERM.SUBDEVICE);
      303     8997    3                  LVL2$ = LVL2CTX.LNK$;
      304     8998    3                END;                       /* DO WHILE                 */
      305     8999    2             CTX$ = LVL2$;
      306     9000    3             IF LVL2$ = ADDR(NIL) THEN DO;
      307     9001    3                  ALTRETURN;
      308     9002    3                END;                       /* IF                       */
      309     9003    3             IF TERMID.LEV = %TERMINAL_ID_LEV_SUBSUBCHAN# THEN DO;
      310     9004    3                  LVL3$ = LVL2CTX.SUB$;
      311     9005    4                  DO WHILE(LVL3$ ~= ADDR(NIL) AND TERMID.TERM.SUBSUBDEVICE ~= LVL3CTX.
              9005                           TERMID.TERM.SUBSUBDEVICE);
      312     9006    4                       LVL3$ = LVL3CTX.LNK$;
      313     9007    4                     END;                  /* DO WHILE                 */
      314     9008    3                  CTX$ = LVL3$;
      315     9009    4                  IF LVL3$ = ADDR(NIL) THEN DO;
      316     9010    4                       ALTRETURN;
      317     9011    4                     END;                  /* IF                       */
      318     9012    3                END;                       /* IF SUBSUBCHAN            */
      319     9013    2           END;                            /* IF LEV ~= CHAN           */
      320     9014    1        RETURN;
      321     9015    1   END GJA$GET_CHNTBL_PTR;
      322     9016        %EOD;
PL6.E3A0      #002=GJA$GET_CHNTBL_PTR File=GJA$SUBS.:E05TSI                      TUE 07/29/97 21:54 Page:39

PL6.E3A0      #002=GJA$GET_CHNTBL_PTR File=GJA$SUBS.:E05TSI                      TUE 07/29/97 21:54 Page:40
--  Include file information  --

   G_LCP6_E.:E05TOU  is referenced.
   GT_LCP6_M.:E05TOU  is referenced.
   KI_CP6.:E05TOU  is referenced.
   GF_LCP6_M.:E05TOU  is referenced.
   GM_LCP6_M.:E05TOU  is referenced.
   GU_LCP6_M.:E05TOU  is referenced.
   GJ_LCP6_M.:E05TOU  is referenced.
   GH_LCP6_M.:E05TOU  is referenced.
   LCP_6.:E05TOU  cannot be made into a system file and is referenced.
   KL_MACRO_C.:E05TOU  is referenced.
   KH$CHN.:E05TOU  is referenced.
   CP_6_SUBS.:E05TOU  is referenced.
   GJA_MSG_M.:E05TOU  is referenced.
      No diagnostics issued in procedure GJA$GET_CHNTBL_PTR.

   Procedure GJA$GET_CHNTBL_PTR requires 142 words for executable code.
   Procedure GJA$GET_CHNTBL_PTR requires 18 words of local(AUTO) storage.

PL6.E3A0      #002=GJA$GET_CHNTBL_PTR File=GJA$SUBS.:E05TSI                      TUE 07/29/97 21:54 Page:41

 Object Unit name= GJA$GET_CHNTBL_PTR                         File name= GJA$SUBS.:E05TOU
 UTS= JUL 29 '97 21:54:36.24 TUE                              Compiler= PL-6/E31         Sev=      00
 SharedLib= :SHARED_LCP6_SYSTEM                               Alt SharedLib=


    ****  Control sections  ****

 Sect   Type Bound  Init  Size HexSiz  Section name
    0   Proc  even  none   142     8E  GJA$GET_CHNTBL_PTR

    ****  Entry defs  ****

                              Check   Calling
                             calling  sequence
  Sect HexLoc Primary Altret sequence   type   Parms  Name
     0      0   yes    yes     yes      Std        2  GJA$GET_CHNTBL_PTR

  ****  Entry refs  ****

         Check        Calling
        calling       sequence
Altret sequence SRef   type   Args  Name
                       nStd      0 X6A_AUTO_2
                       nStd      0 X6A_AALT
                       nStd      0 X6A_ARET

  ****  Data refs  ****

  Flags:  r = read only, s = secondary
Flgs Name                             Flgs Name                             Flgs Name
     GJA_CHNLOW$                           GJA_CHNLOW                            GJA_CHNHI
r    G$ROS$
PL6.E3A0      #002=GJA$GET_CHNTBL_PTR File=GJA$SUBS.:E05TSI                      TUE 07/29/97 21:54 Page:42


      231        1        /*T***********************************************************/
      232        2        /*T*                                                         */
      233        3        /*T* Copyright (c) Bull HN Information Systems Inc., 1997    */
      234        4        /*T*                                                         */
      235        5        /*T***********************************************************/
      236        6        /*F* NAME:     GJA$GET_CHNTBL_PTR
      237        7
      238        8             PURPOSE:  To take as input a TERMINAL_ID structure and to
      239        9                       return a pointer to the associated NA context block.
      240       10
      241       11             DESCRIPTION:  This routine follows the following general steps:
      242       12                           1).  Using LEV, we figure out how much of the
      243       13                                TERMINAL_ID structure we need to identify the
      244       14                                channel.  We first do a search to derive a
      245       15                                pointer to the base channel table entry.
      246       16                           2).  If LEV indicates there is a SUBDEVICE, we
      247       17                                then do a search down the linked list of sub context
      248       18                                pointed to by CHNTBL.SUB$.
      249       19                           3).  IF LEV indicates there is a SUBSUBDEVICE, we
      250       20                                then do a search down the linked list pointed to
      251       21                                by the SUB$ entry located in step 2 above.
      252       22                           4).  If the entry cannot be found, we ALTRETURN with
      253       23                                CHAN$ = ADDR(NIL).
      254       24
      255       25             CALL:   CALL GJA$GET_CHNTBL_PTR(TERMID,CHN$) ALTRET(label);
      256       26
      257       27             INPUTS: TERMINAL_ID - A structure completly describing the
      258       28                                   channel we are searching for.
      259       29
      260       30             OUTPUTS: CHN$ - A pointer to the associated context block. If none
      261       31                             found, CHN$ = ADDR(NIL).
      262       32        */
      263       33        GJA$GET_CHNTBL_PTR: PROC(TERMID,CTX$) ALTRET;

     33   0 000000  D380 0000 0000  xent GJA$GET_CHNTBL_*LNJ,B5   X6A_AUTO_2
          0 000003       0012 0002                       DC       18,2
PL6.E3A0      #002=GJA$GET_CHNTBL_PTR File=GJA$SUBS.:E05TSI                      TUE 07/29/97 21:54 Page:43

      264       34
      265       35        %INCLUDE GJA_MSG_M;
      266      274        %INCLUDE CP_6_SUBS;
      267      814        %INCLUDE KH$CHN;
      268      936        %INCLUDE KL_MACRO_C;
      269     4288        %INCLUDE LCP_6;
      270     8567                                                /* Args                     */
      271     8568        %B$TERMINAL_ID (FPTN=TERMID,STCLASS="",LAST=";",ALGN=ALIGNED);
      272     8597    1   DCL CTX$ PTR;
      273     8598                                                /* Symrefs                  */
      274     8599    1   DCL GJA_CHNLOW$ PTR SYMREF;
      275     8600    1   DCL GJA_CHNLOW UBIN SYMREF;
      276     8601    1   DCL GJA_CHNHI UBIN SYMREF;
      277     8602                                                /* Based                    */
      278     8603        %KH$CHN (NAME=CHANCTX,STCLASS="BASED(LVL1$)");
      279     8727        %KH$CHN (NAME=LVL2CTX,STCLASS="BASED(LVL2$)");
      280     8851        %KH$CHN (NAME=LVL3CTX,STCLASS="BASED(LVL3$)");
      281     8975                                                /* Local                    */
      282     8976    1   DCL LVL1$ PTR;
      283     8977    1   DCL LVL2$ PTR;
      284     8978    1   DCL LVL3$ PTR;
      285     8979    1   DCL CHAN UBIN;
      286     8980    1   DCL TEMP$ PTR;
      287     8981        %EJECT;
PL6.E3A0      #002=GJA$GET_CHNTBL_PTR File=GJA$SUBS.:E05TSI                      TUE 07/29/97 21:54 Page:44
      288     8982
      289     8983        /* Validate the channel passed */
      290     8984
      291     8985    1        CTX$ = ADDR(NIL);

   8985   0 000005  EB80 0000 0000                       LAB,B6   0
          0 000008  DCC7 0006                            LDB,B5   @CTX$,AUTO
          0 00000A  EF85                                 STB,B6   ,B5

      292     8986    1        CHAN = TERMID.TERM.CHANNEL;

   8986   0 00000B  CCC7 0004                            LDB,B4   @TERMID,AUTO
          0 00000D  E844 0001                            LDR,R6   1,B4
          0 00000F  EF47 000E                            STR,R6   CHAN,AUTO

      293     8987    1        IF CHAN > GJA_CHNHI OR CHAN < GJA_CHNLOW OR

   8987   0 000011  E900 0000 0000  xsym                 CMR,R6   GJA_CHNHI
          0 000014  0301 000F                            BG       s:8990,PREL
          0 000016  E900 0000 0000  xsym                 CMR,R6   GJA_CHNLOW
          0 000019  0201 000A                            BL       s:8990,PREL
          0 00001B  D804                                 LDR,R5   ,B4
          0 00001C  D570 00FF                            AND,R5   255,IMO
          0 00001E  5D01                                 CMV,R5   1
          0 00001F  0201 0004                            BL       s:8990,PREL
          0 000021  5D03                                 CMV,R5   3
          0 000022  0381 0004                            BLE      s:8992,PREL

      294     8988    1             TERMID.LEV < %TERMINAL_ID_LEV_CHAN# OR
      295     8989    2             TERMID.LEV > %TERMINAL_ID_LEV_SUBSUBCHAN# THEN DO;

      296     8990    2             ALTRETURN;

   8990   0 000024  C380 0000 0000  xent                 LNJ,B4   X6A_AALT

      297     8991    2           END;                            /* IF                       */
      298     8992    1        LVL1$ = PINCRW(GJA_CHNLOW$,SIZEW(CHANCTX)*(CHAN/128));
PL6.E3A0      #002=GJA$GET_CHNTBL_PTR File=GJA$SUBS.:E05TSI                      TUE 07/29/97 21:54 Page:45

   8992   0 000027  6047                                 SOR,R6   7
          0 000028  F856                                 LDR,R7   R6
          0 000029  6C00                                 LDV,R6   0
          0 00002A  7085                                 DOL,R7   5
          0 00002B  8400 0000 0000  xsym                 AID      GJA_CHNLOW$
          0 00002E  8D47 0008                            SDI      LVL1$,AUTO

      299     8993    1        CTX$ = LVL1$;

   8993   0 000030  BCC7 0008                            LDB,B3   LVL1$,AUTO
          0 000032  BF85                                 STB,B3   ,B5

      300     8994    2        IF TERMID.LEV ~= %TERMINAL_ID_LEV_CHAN# THEN DO;

   8994   0 000033  D804                                 LDR,R5   ,B4
          0 000034  D570 00FF                            AND,R5   255,IMO
          0 000036  5D01                                 CMV,R5   1
          0 000037  0901 0053                            BE       s:9014,PREL

      301     8995    2             LVL2$ = CHANCTX.SUB$;

   8995   0 000039  ECC3 001A                            LDB,B6   26,B3
          0 00003B  EFC7 000A                            STB,B6   LVL2$,AUTO

      302     8996    3             DO WHILE(LVL2$ ~= ADDR(NIL) AND TERMID.TERM.SUBDEVICE ~= LVL2CTX.TERMID.
              8996                      TERM.SUBDEVICE);

   8996   0 00003D  0F81 0007                            B        s:8998,PREL

      303     8997    3                  LVL2$ = LVL2CTX.LNK$;

   8997   0 00003F  ECC7 000A                            LDB,B6   LVL2$,AUTO
          0 000041  DCC6 001C                            LDB,B5   28,B6
          0 000043  DFC7 000A                            STB,B5   LVL2$,AUTO

      304     8998    3                END;                       /* DO WHILE                 */
PL6.E3A0      #002=GJA$GET_CHNTBL_PTR File=GJA$SUBS.:E05TSI                      TUE 07/29/97 21:54 Page:46

   8998   0 000045  8DC7 000A                            CMN      LVL2$,AUTO
          0 000047  0901 000A                            BE       s:8999,PREL
          0 000049  ECC7 0004                            LDB,B6   @TERMID,AUTO
          0 00004B  DCC7 000A                            LDB,B5   LVL2$,AUTO
          0 00004D  E846 0002                            LDR,R6   2,B6
          0 00004F  E945 0014                            CMR,R6   20,B5
          0 000051  09EE                                 BNE      s:8997,SPREL

      305     8999    2             CTX$ = LVL2$;

   8999   0 000052  ECC7 000A                            LDB,B6   LVL2$,AUTO
          0 000054  DCC7 0006                            LDB,B5   @CTX$,AUTO
          0 000056  EF85                                 STB,B6   ,B5

      306     9000    3             IF LVL2$ = ADDR(NIL) THEN DO;

   9000   0 000057  8DC7 000A                            CMN      LVL2$,AUTO
          0 000059  0981 0004                            BNE      s:9003,PREL

      307     9001    3                  ALTRETURN;

   9001   0 00005B  C380 0000 0000  xent                 LNJ,B4   X6A_AALT

      308     9002    3                END;                       /* IF                       */
      309     9003    3             IF TERMID.LEV = %TERMINAL_ID_LEV_SUBSUBCHAN# THEN DO;

   9003   0 00005E  CCC7 0004                            LDB,B4   @TERMID,AUTO
          0 000060  E804                                 LDR,R6   ,B4
          0 000061  E570 00FF                            AND,R6   255,IMO
          0 000063  6D03                                 CMV,R6   3
          0 000064  0981 0026                            BNE      s:9014,PREL

      310     9004    3                  LVL3$ = LVL2CTX.SUB$;

   9004   0 000066  BCC6 001A                            LDB,B3   26,B6
          0 000068  BFC7 000C                            STB,B3   LVL3$,AUTO
PL6.E3A0      #002=GJA$GET_CHNTBL_PTR File=GJA$SUBS.:E05TSI                      TUE 07/29/97 21:54 Page:47

      311     9005    4                  DO WHILE(LVL3$ ~= ADDR(NIL) AND TERMID.TERM.SUBSUBDEVICE ~= LVL3CTX.
              9005                           TERMID.TERM.SUBSUBDEVICE);

   9005   0 00006A  0F81 0007                            B        s:9007,PREL

      312     9006    4                       LVL3$ = LVL3CTX.LNK$;

   9006   0 00006C  ECC7 000C                            LDB,B6   LVL3$,AUTO
          0 00006E  DCC6 001C                            LDB,B5   28,B6
          0 000070  DFC7 000C                            STB,B5   LVL3$,AUTO

      313     9007    4                     END;                  /* DO WHILE                 */

   9007   0 000072  8DC7 000C                            CMN      LVL3$,AUTO
          0 000074  0901 000A                            BE       s:9008,PREL
          0 000076  ECC7 0004                            LDB,B6   @TERMID,AUTO
          0 000078  DCC7 000C                            LDB,B5   LVL3$,AUTO
          0 00007A  E846 0003                            LDR,R6   3,B6
          0 00007C  E945 0015                            CMR,R6   21,B5
          0 00007E  09EE                                 BNE      s:9006,SPREL

      314     9008    3                  CTX$ = LVL3$;

   9008   0 00007F  ECC7 000C                            LDB,B6   LVL3$,AUTO
          0 000081  DCC7 0006                            LDB,B5   @CTX$,AUTO
          0 000083  EF85                                 STB,B6   ,B5

      315     9009    4                  IF LVL3$ = ADDR(NIL) THEN DO;

   9009   0 000084  8DC7 000C                            CMN      LVL3$,AUTO
          0 000086  0981 0004                            BNE      s:9014,PREL

      316     9010    4                       ALTRETURN;

   9010   0 000088  C380 0000 0000  xent                 LNJ,B4   X6A_AALT

PL6.E3A0      #002=GJA$GET_CHNTBL_PTR File=GJA$SUBS.:E05TSI                      TUE 07/29/97 21:54 Page:48
      317     9011    4                     END;                  /* IF                       */
      318     9012    3                END;                       /* IF SUBSUBCHAN            */
      319     9013    2           END;                            /* IF LEV ~= CHAN           */
      320     9014    1        RETURN;

   9014   0 00008B  C380 0000 0000  xent                 LNJ,B4   X6A_ARET
      321     9015    1   END GJA$GET_CHNTBL_PTR;
      322     9016        %EOD;

PL6.E3A0      #002=GJA$GET_CHNTBL_PTR File=GJA$SUBS.:E05TSI                      TUE 07/29/97 21:54 Page:49
--  Include file information  --

   G_LCP6_E.:E05TOU  is referenced.
   GT_LCP6_M.:E05TOU  is referenced.
   KI_CP6.:E05TOU  is referenced.
   GF_LCP6_M.:E05TOU  is referenced.
   GM_LCP6_M.:E05TOU  is referenced.
   GU_LCP6_M.:E05TOU  is referenced.
   GJ_LCP6_M.:E05TOU  is referenced.
   GH_LCP6_M.:E05TOU  is referenced.
   LCP_6.:E05TOU  cannot be made into a system file and is referenced.
   KL_MACRO_C.:E05TOU  is referenced.
   KH$CHN.:E05TOU  is referenced.
   CP_6_SUBS.:E05TOU  is referenced.
   GJA_MSG_M.:E05TOU  is referenced.
      No diagnostics issued in procedure GJA$GET_CHNTBL_PTR.
PL6.E3A0      #002=GJA$GET_CHNTBL_PTR File=GJA$SUBS.:E05TSI                      TUE 07/29/97 21:54 Page:50

 **** Variables and constants ****

  ****  Auto variables  ****

  ****  Scalars and arrays  ****
HexLoc.c.b A Datatyp(siz) R M Lvl/name                 HexLoc.c.b A Datatyp(siz) R M Lvl/name

     6-0-0/w PTR         r     1 @CTX$                      4-0-0/w PTR         r     1 @TERMID
     E-0-0/w UBIN(16)    r     1 CHAN                      *0-0-0/w PTR         r     1 CTX$
     8-0-0/w PTR         r     1 LVL1$                      A-0-0/w PTR         r     1 LVL2$
     C-0-0/w PTR         r     1 LVL3$                     *0-0-0/w STRC(128)   r     1 TERMID

  ****  SYMREF variables  ****

  ****  Scalars and arrays  ****
HexLoc.c.b A Datatyp(siz) R M Lvl/name                 HexLoc.c.b A Datatyp(siz) R M Lvl/name

     0-0-0/w UBIN(16)    r     1 GJA_CHNHI                  0-0-0/w UBIN(16)    r     1 GJA_CHNLOW
     0-0-0/w PTR         r     1 GJA_CHNLOW$

  ****  BASED and DCB variables  ****

  ****  Scalars and arrays  ****
HexLoc.c.b A Datatyp(siz) R M Lvl/name                 HexLoc.c.b A Datatyp(siz) R M Lvl/name

     0-0-0/w STRC(512)   r     1 CHANCTX                    0-0-0/w STRC(512)   r     1 LVL2CTX
     0-0-0/w STRC(512)   r     1 LVL3CTX


   Procedure GJA$GET_CHNTBL_PTR requires 142 words for executable code.
   Procedure GJA$GET_CHNTBL_PTR requires 18 words of local(AUTO) storage.
PL6.E3A0      #002=GJA$GET_CHNTBL_PTR File=GJA$SUBS.:E05TSI                      TUE 07/29/97 21:54 Page:51
          *** CROSS REFERENCE LISTING ***
**     DENOTES     IDENTIFIER DEFINITION
<<                 IDENTIFIER'S VALUE SET
>>                 IDENTIFIER'S VALUE USED
<>                 IDENTIFIER SET AND/OR USED
--                 IDENTIFIER REFERENCED
PL6.E3A0      #002=GJA$GET_CHNTBL_PTR File=GJA$SUBS.:E05TSI                      TUE 07/29/97 21:54 Page:52
          MINI XREF LISTING

CHAN
      8979**DCL      8986<<ASSIGN   8987>>IF       8987>>IF       8992>>ASSIGN
CHANCTX
      8618**DCL      8992--ASSIGN
CHANCTX.SUB$
      8725**DCL      8995>>ASSIGN
CHANCTX.TERMID.TERM
      8714**DCL      8723--REDEF
CTX$
      8597**DCL        33--PROC     8985<<ASSIGN   8993<<ASSIGN   8999<<ASSIGN   9008<<ASSIGN
GJA_CHNHI
      8601**DCL      8987>>IF
GJA_CHNLOW
      8600**DCL      8987>>IF
GJA_CHNLOW$
      8599**DCL      8992>>ASSIGN
LVL1$
      8976**DCL      8618--IMP-PTR  8992<<ASSIGN   8993>>ASSIGN   8995>>ASSIGN
LVL2$
      8977**DCL      8742--IMP-PTR  8995<<ASSIGN   8996>>DOWHILE  8996>>DOWHILE  8997<<ASSIGN   8997>>ASSIGN
      8999>>ASSIGN   9000>>IF       9004>>ASSIGN
LVL2CTX.LNK$
      8849**DCL      8997>>ASSIGN
LVL2CTX.SUB$
      8849**DCL      9004>>ASSIGN
LVL2CTX.TERMID.TERM
      8838**DCL      8847--REDEF
LVL2CTX.TERMID.TERM.SUBDEVICE
      8844**DCL      8996>>DOWHILE
LVL3$
      8978**DCL      8866--IMP-PTR  9004<<ASSIGN   9005>>DOWHILE  9005>>DOWHILE  9006<<ASSIGN   9006>>ASSIGN
      9008>>ASSIGN   9009>>IF
PL6.E3A0      #002=GJA$GET_CHNTBL_PTR File=GJA$SUBS.:E05TSI                      TUE 07/29/97 21:54 Page:53
LVL3CTX.LNK$
      8973**DCL      9006>>ASSIGN
LVL3CTX.TERMID.TERM
      8962**DCL      8971--REDEF
LVL3CTX.TERMID.TERM.SUBSUBDEVICE
      8968**DCL      9005>>DOWHILE
TERMID
      8582**DCL        33--PROC
TERMID.LEV
      8586**DCL      8987>>IF       8987>>IF       8994>>IF       9003>>IF
TERMID.TERM
      8586**DCL      8595--REDEF
TERMID.TERM.CHANNEL
      8592**DCL      8986>>ASSIGN
TERMID.TERM.SUBDEVICE
      8592**DCL      8996>>DOWHILE
TERMID.TERM.SUBSUBDEVICE
      8592**DCL      9005>>DOWHILE

PL6.E3A0      #003=GJA$GET_CONFIG_INFO File=GJA$SUBS.:E05TSI                     TUE 07/29/97 21:55 Page:54
      323        1        /*T***********************************************************/
      324        2        /*T*                                                         */
      325        3        /*T* Copyright (c) Bull HN Information Systems Inc., 1997    */
      326        4        /*T*                                                         */
      327        5        /*T***********************************************************/
      328        6        /*F*   NAME:    GJA$GET_CONFIG_INFO
      329        7
      330        8               PURPOSE: This routine is called when we have established a
      331        9                        connection to the network manager.  It sends an
      332       10                        KL_RQSCHN message to the network manager.
      333       11               CALL:   CALL GJA$GET_CONFIG_INFO
      334       12        */
      335       13        GJA$GET_CONFIG_INFO: PROC (CTX$);
      336       14
      337       15        %INCLUDE LCP_6;
      338     4294        %INCLUDE GJA_MSG_M;
      339     4533        %INCLUDE KL_MACRO_C;
      340     7885        %INCLUDE KL_AFCN_C;                     /* 'IGA' Function Codes     */
      341     7986        %INCLUDE KNN_NETWORK_M;
      342     8349        %INCLUDE K_ADDRESS_M;
      343     8852        %INCLUDE KNH_MACRO_C;
      344     9135
      345     9136                                                /* Parameters               */
      346     9137    1   DCL CTX$ PTR;
      347     9138
      348     9139                                                /* Equates                  */
      349     9140        %GJA_UID_EQUS;
      350     9148
      351     9149                                                /* Symrefs                  */
      352     9150    1   DCL GJA_HOPCOST UBIN SYMREF;
      353     9151    1   DCL GJA_ROUTE$ PTR SYMREF;
      354     9152    1   DCL GJA_NODE# UBIN SYMREF;
      355     9153    1   DCL GJA_NODENAME CHAR(8) SYMREF;
      356     9154    1   DCL GJA_MAXNODE UBIN SYMREF;
      357     9155    1   DCL GJA_UID_NM UBIN(32) SYMREF;
      358     9156    1   DCL GJA_LINKS UBIN SYMREF;
      359     9157    1   DCL GJA_LINK$ PTR SYMREF;
PL6.E3A0      #003=GJA$GET_CONFIG_INFO File=GJA$SUBS.:E05TSI                     TUE 07/29/97 21:55 Page:55
      360     9158        %KL_RQSCHN (FPTN=GJA_RQSCHN,STCLASS=SYMREF);
      361     9261
      362     9262        %GJA$HAND_CTX (STCLASS="BASED(CTX$)");
      363     9311                                                /* Based                    */
      364     9312        %KNN$LINK(STCLASS="BASED(LINK$)");
      365     9563        %KNN$ROUTE (STCLASS="BASED(ROUTE$)");
      366     9635    1   DCL KNN$ROUTE$(0:0) PTR BASED(GJA_ROUTE$);
      367     9636    1   DCL KNN$LINK$(0:0) PTR BASED(GJA_LINK$);
      368     9637
      369     9638                                                /* Auto                     */
      370     9639        %KL_NODECHG (FPTN=NODECHG,STCLASS=AUTO);
      371     9663        %KL_NODEINFO (FPTN=NODEINFO,STCLASS=AUTO);
      372     9687        %KL_OSILINKCHG(FPTN=OSILINKCHG,STCLASS=AUTO);
      373     9810    1   DCL J UBIN;
      374     9811    1   DCL ROUTE$ PTR;
      375     9812    1   DCL LINK$ PTR;
      376     9813    1   DCL I SBIN;
      377     9814
      378     9815                                                /* Entrys                   */
      379     9816    1   DCL GJA$SEND_MSG ENTRY(4) ALTRET;
      380     9817
      381     9818
      382     9819        /* Constant */
      383     9820        %KL_CONTROL_INIT(FPTN=CONTROL_INIT,HNDLR='BABOON',NUM_FIXED=1,NUM_INDXD=1);
      384     9946
      385     9947        %EJECT;
PL6.E3A0      #003=GJA$GET_CONFIG_INFO File=GJA$SUBS.:E05TSI                     TUE 07/29/97 21:55 Page:56
      386     9948
      387     9949    1        CALL GJA$SEND_MSG(GJA_UID_NM,CONTROL_INIT,SIZEC(CONTROL_INIT));
      388     9950    1        CALL GJA$SEND_MSG(GJA_UID_NM,GJA_RQSCHN,SIZEC(GJA_RQSCHN));
      389     9951    1        RETURN;
      390     9952        %EJECT;
PL6.E3A0      #003=GJA$GET_CONFIG_INFO File=GJA$SUBS.:E05TSI                     TUE 07/29/97 21:55 Page:57
      391     9953    1   GJA$NODEINFO: ENTRY(CTX$);
      392     9954
      393     9955    1        NODEINFO = '0'B;
      394     9956    1        NODEINFO.FCN = IGA_NODEINFO;
      395     9957    1        NODEINFO.MYNODE = GJA_NODE#;
      396     9958    1        NODEINFO.MYNAME = GJA_NODENAME;
      397     9959    1        CALL GJA$SEND_MSG(CTX$,NODEINFO,SIZEC(NODEINFO));
      398     9960
      399     9961        /* Send NODECHG for each node we can talk to */
      400     9962
      401     9963    1        IF GJA$HAND_CTX.LINK_CONNECTED
      402     9964    1        THEN
      403     9965    2        DO I = 0 TO GJA_MAXNODE;
      404     9966    2             ROUTE$ = KNN$ROUTE$(I);
      405     9967    2             LINK$ = KNN$ROUTE.LINK$;
      406     9968    2             IF LINK$ ~= ADDR(NIL)         /* We can talk to this node */
      407     9969    2                  AND GJA_NODE# ~= I
      408     9970    2                  AND I ~= GJA$HAND_CTX.NODE
      409     9971    3             THEN DO;
      410     9972    3                  NODECHG.FCN = IGA_NODECHG;
      411     9973    3                  NODECHG.MYNODE = GJA_NODE#;
      412     9974    3                  NODECHG.NODE = I;
      413     9975    3                  IF KNN$LINK.NODE# = GJA$HAND_CTX.NODE
      414     9976    3                  THEN
      415     9977    3                       IF KNN$ROUTE.ALT_QOS = 255
      416     9978    3                       THEN
      417     9979    3                            NODECHG.QOS = 255;
      418     9980    3                       ELSE
      419     9981    3                            NODECHG.QOS = MINIMUM(KNN$ROUTE.ALT_QOS+GJA_HOPCOST,254);
      420     9982    3                  ELSE
      421     9983    3                       IF KNN$ROUTE.CURRENT_QOS = 255
      422     9984    3                       THEN
      423     9985    3                            NODECHG.QOS = 255;
      424     9986    3                       ELSE
      425     9987    3                            NODECHG.QOS = MINIMUM(KNN$ROUTE.CURRENT_QOS+GJA_HOPCOST,254
              9987                                     );
      426     9988    3                  IF KNN$ROUTE.FLAGS.HOST_NODE
PL6.E3A0      #003=GJA$GET_CONFIG_INFO File=GJA$SUBS.:E05TSI                     TUE 07/29/97 21:55 Page:58
      427     9989    3                  THEN
      428     9990    3                       NODECHG.HOSTNODE = 1;
      429     9991    3                  ELSE
      430     9992    3                       NODECHG.HOSTNODE = 0;
      431     9993    3                  CALL GJA$SEND_MSG(CTX$,NODECHG,SIZEC(NODECHG));
      432     9994    3                END;
      433     9995    2           END;                            /* do i = 0 to maxnodes */
      434     9996    1        IF GJA$HAND_CTX.LINK_CONNECTED
      435     9997    2             OR GJA$HAND_CTX.HOST_NODE THEN DO;
      436     9998    2             OSILINKCHG = '0'B;
      437     9999    2             OSILINKCHG.FCN = IGA_OSILINKCHG;
      438    10000    2             OSILINKCHG.TYPE = IGA_OSILINKUP;
      439    10001    2             OSILINKCHG.MYNODE# = GJA_NODE#;
      440    10002    2             OSILINKCHG.NODE# = GJA_NODE#;
      441    10003    3             DO J = 0 TO GJA_LINKS-1;
      442    10004    3                  LINK$ = KNN$LINK$(J);
      443    10005                         /*
      444    10006                            this is and osi link tell the distant node about it.
      445    10007                            tell the default host also.
      446    10008                         */
      447    10009    4                  IF KNN$LINK.SNPA.LEN ~= 0 THEN DO;
      448    10010    4                       OSILINKCHG.QOS = KNN$LINK.QOS;
      449    10011    4                       OSILINKCHG.SNPA = KNN$LINK.SNPA;
      450    10012    4                       OSILINKCHG.TERMID.TERM.CHANNEL = KNN$LINK.CHAN#;
      451    10013    4                       CALL GJA$SEND_MSG(CTX$,OSILINKCHG,SIZEC(OSILINKCHG));
      452    10014    4                     END;
      453    10015    3                END;
      454    10016    2           END;                            /* if link connected */
      455    10017
      456    10018    1        RETURN;
      457    10019    1   END;
      458    10020        %EOD;

PL6.E3A0      #003=GJA$GET_CONFIG_INFO File=GJA$SUBS.:E05TSI                     TUE 07/29/97 21:55 Page:59
--  Include file information  --

   KNH_MACRO_C.:E05TOU  is referenced.
   K_ADDRESS_M.:E05TOU  is referenced.
   KNN_NETWORK_M.:E05TOU  is referenced.
   KL_AFCN_C.:E05TOU  is referenced.
   KL_MACRO_C.:E05TOU  is referenced.
   GJA_MSG_M.:E05TOU  is referenced.
   G_LCP6_E.:E05TOU  is referenced.
   GT_LCP6_M.:E05TOU  is referenced.
   KI_CP6.:E05TOU  is referenced.
   GF_LCP6_M.:E05TOU  is referenced.
   GM_LCP6_M.:E05TOU  is referenced.
   GU_LCP6_M.:E05TOU  is referenced.
   GJ_LCP6_M.:E05TOU  is referenced.
   GH_LCP6_M.:E05TOU  is referenced.
   LCP_6.:E05TOU  cannot be made into a system file and is referenced.
      No diagnostics issued in procedure GJA$GET_CONFIG_INFO.

   Procedure GJA$GET_CONFIG_INFO requires 360 words for executable code.
   Procedure GJA$GET_CONFIG_INFO requires 47 words of local(AUTO) storage.

PL6.E3A0      #003=GJA$GET_CONFIG_INFO File=GJA$SUBS.:E05TSI                     TUE 07/29/97 21:55 Page:60

 Object Unit name= GJA$GET_CONFIG_INFO                        File name= GJA$SUBS.:E05TOU
 UTS= JUL 29 '97 21:55:01.68 TUE                              Compiler= PL-6/E31         Sev=      00
 SharedLib= :SHARED_LCP6_SYSTEM                               Alt SharedLib=


    ****  Control sections  ****

 Sect   Type Bound  Init  Size HexSiz  Section name
    0   Data  even  none    23     17  GJA$GET_CONFIG_INFO
    1   Proc  even  none   360    168  GJA$GET_CONFIG_INFO

    ****  Entry defs  ****

                              Check   Calling
                             calling  sequence
  Sect HexLoc Primary Altret sequence   type   Parms  Name
     1      0   yes            yes      Std        1  GJA$GET_CONFIG_INFO
     1     3E                  yes      Std        1  GJA$NODEINFO

  ****  Entry refs  ****

         Check        Calling
        calling       sequence
Altret sequence SRef   type   Args  Name
 yes     yes           Std       4 GJA$SEND_MSG
                       nStd      0 X6A_AUTO_1
                       nStd      0 X6A_ARET

  ****  Data refs  ****

  Flags:  r = read only, s = secondary
Flgs Name                             Flgs Name                             Flgs Name
     GJA_HOPCOST                           GJA_ROUTE$                            GJA_NODE#
     GJA_NODENAME                          GJA_MAXNODE                           GJA_UID_NM
     GJA_LINKS                             GJA_LINK$                             GJA_RQSCHN
r    G$ROS$
PL6.E3A0      #003=GJA$GET_CONFIG_INFO File=GJA$SUBS.:E05TSI                     TUE 07/29/97 21:55 Page:61


      323        1        /*T***********************************************************/
      324        2        /*T*                                                         */
      325        3        /*T* Copyright (c) Bull HN Information Systems Inc., 1997    */
      326        4        /*T*                                                         */
      327        5        /*T***********************************************************/
      328        6        /*F*   NAME:    GJA$GET_CONFIG_INFO
      329        7
      330        8               PURPOSE: This routine is called when we have established a
      331        9                        connection to the network manager.  It sends an
      332       10                        KL_RQSCHN message to the network manager.
      333       11               CALL:   CALL GJA$GET_CONFIG_INFO
      334       12        */
      335       13        GJA$GET_CONFIG_INFO: PROC (CTX$);

     13   1 000000  D380 0000 0000  xent GJA$GET_CONFIG_*LNJ,B5   X6A_AUTO_1
          1 000003       002F 0001                       DC       47,1

      336       14
      337       15        %INCLUDE LCP_6;
      338     4294        %INCLUDE GJA_MSG_M;
      339     4533        %INCLUDE KL_MACRO_C;
      340     7885        %INCLUDE KL_AFCN_C;                     /* 'IGA' Function Codes     */
      341     7986        %INCLUDE KNN_NETWORK_M;
      342     8349        %INCLUDE K_ADDRESS_M;
      343     8852        %INCLUDE KNH_MACRO_C;
      344     9135
      345     9136                                                /* Parameters               */
      346     9137    1   DCL CTX$ PTR;
      347     9138
      348     9139                                                /* Equates                  */
      349     9140        %GJA_UID_EQUS;
      350     9148
      351     9149                                                /* Symrefs                  */
      352     9150    1   DCL GJA_HOPCOST UBIN SYMREF;
      353     9151    1   DCL GJA_ROUTE$ PTR SYMREF;
      354     9152    1   DCL GJA_NODE# UBIN SYMREF;
PL6.E3A0      #003=GJA$GET_CONFIG_INFO File=GJA$SUBS.:E05TSI                     TUE 07/29/97 21:55 Page:62
      355     9153    1   DCL GJA_NODENAME CHAR(8) SYMREF;
      356     9154    1   DCL GJA_MAXNODE UBIN SYMREF;
      357     9155    1   DCL GJA_UID_NM UBIN(32) SYMREF;
      358     9156    1   DCL GJA_LINKS UBIN SYMREF;
      359     9157    1   DCL GJA_LINK$ PTR SYMREF;
      360     9158        %KL_RQSCHN (FPTN=GJA_RQSCHN,STCLASS=SYMREF);
      361     9261
      362     9262        %GJA$HAND_CTX (STCLASS="BASED(CTX$)");
      363     9311                                                /* Based                    */
      364     9312        %KNN$LINK(STCLASS="BASED(LINK$)");
      365     9563        %KNN$ROUTE (STCLASS="BASED(ROUTE$)");
      366     9635    1   DCL KNN$ROUTE$(0:0) PTR BASED(GJA_ROUTE$);
      367     9636    1   DCL KNN$LINK$(0:0) PTR BASED(GJA_LINK$);
      368     9637
      369     9638                                                /* Auto                     */
      370     9639        %KL_NODECHG (FPTN=NODECHG,STCLASS=AUTO);
      371     9663        %KL_NODEINFO (FPTN=NODEINFO,STCLASS=AUTO);
      372     9687        %KL_OSILINKCHG(FPTN=OSILINKCHG,STCLASS=AUTO);
      373     9810    1   DCL J UBIN;
      374     9811    1   DCL ROUTE$ PTR;
      375     9812    1   DCL LINK$ PTR;
      376     9813    1   DCL I SBIN;
      377     9814
      378     9815                                                /* Entrys                   */
      379     9816    1   DCL GJA$SEND_MSG ENTRY(4) ALTRET;
      380     9817
      381     9818
      382     9819        /* Constant */
      383     9820        %KL_CONTROL_INIT(FPTN=CONTROL_INIT,HNDLR='BABOON',NUM_FIXED=1,NUM_INDXD=1);
      384     9946
      385     9947        %EJECT;
PL6.E3A0      #003=GJA$GET_CONFIG_INFO File=GJA$SUBS.:E05TSI                     TUE 07/29/97 21:55 Page:63
      386     9948
      387     9949    1        CALL GJA$SEND_MSG(GJA_UID_NM,CONTROL_INIT,SIZEC(CONTROL_INIT));

   9949   1 000005  EBF0 002E                            LAB,B6   46,IMO
          1 000007  EFC7 002C                            STB,B6   I+6,AUTO
          1 000009  DB80 0000 0000  00                   LAB,B5   CONTROL_INIT
          1 00000C  DFC7 002A                            STB,B5   I+4,AUTO
          1 00000E  CB80 0000 0000  xsym                 LAB,B4   GJA_UID_NM
          1 000011  CFC7 0028                            STB,B4   I+2,AUTO
          1 000013  BBC7 0028                            LAB,B3   I+2,AUTO
          1 000015  CBF0 0300                            LAB,B4   768,IMO
          1 000017  E380 0000 0000  xent                 LNJ,B6   GJA$SEND_MSG
          1 00001A       0001                            DC       s:9950,PREL

      388     9950    1        CALL GJA$SEND_MSG(GJA_UID_NM,GJA_RQSCHN,SIZEC(GJA_RQSCHN));

   9950   1 00001B  E280 0000 000D  xsym                 LLH,R6   GJA_RQSCHN+13
          1 00001E  6003                                 SOL,R6   3
          1 00001F  EA70 00E7                            ADD,R6   231,IMO
          1 000021  6044                                 SOR,R6   4
          1 000022  6001                                 SOL,R6   1
          1 000023  EF47 0028                            STR,R6   I+2,AUTO
          1 000025  EBC7 0028                            LAB,B6   I+2,AUTO
          1 000027  EFC7 002D                            STB,B6   I+7,AUTO
          1 000029  DB80 0000 0000  xsym                 LAB,B5   GJA_RQSCHN
          1 00002C  DFC7 002B                            STB,B5   I+5,AUTO
          1 00002E  CB80 0000 0000  xsym                 LAB,B4   GJA_UID_NM
          1 000031  CFC7 0029                            STB,B4   I+3,AUTO
          1 000033  BBC7 0029                            LAB,B3   I+3,AUTO
          1 000035  CBF0 0300                            LAB,B4   768,IMO
          1 000037  E380 0000 0000  xent                 LNJ,B6   GJA$SEND_MSG
          1 00003A       0001                            DC       s:9951,PREL

      389     9951    1        RETURN;

   9951   1 00003B  C380 0000 0000  xent                 LNJ,B4   X6A_ARET

PL6.E3A0      #003=GJA$GET_CONFIG_INFO File=GJA$SUBS.:E05TSI                     TUE 07/29/97 21:55 Page:64
      390     9952        %EJECT;
PL6.E3A0      #003=GJA$GET_CONFIG_INFO File=GJA$SUBS.:E05TSI                     TUE 07/29/97 21:55 Page:65
      391     9953    1   GJA$NODEINFO: ENTRY(CTX$);

   9953   1 00003E  D380 0000 0000  xent GJA$NODEINFO    LNJ,B5   X6A_AUTO_1
          1 000041       002F 0001                       DC       47,1

      392     9954
      393     9955    1        NODEINFO = '0'B;

   9955   1 000043  5C0D                                 LDV,R5   13
          1 000044  0021                                 ALR      ;
          1 000045       4178 0000                                ALPHANUM('0000'X,IMO,,1),;
          1 000047       4007 000A                                ALPHANUM(NODEINFO,AUTO,,R5,FILL)

      394     9956    1        NODEINFO.FCN = IGA_NODEINFO;

   9956   1 000049  6C28                                 LDV,R6   40
          1 00004A  437F                                 CSYNC    s:9956,SPREL
          1 00004B  E7C7 000A                            STH,R6   NODEINFO,AUTO

      395     9957    1        NODEINFO.MYNODE = GJA_NODE#;

   9957   1 00004D  C800 0000 0000  xsym                 LDR,R4   GJA_NODE#
          1 000050  C7C7 000C                            STH,R4   NODEINFO+2,AUTO

      396     9958    1        NODEINFO.MYNAME = GJA_NODENAME;

   9958   1 000052  AB80 0000 0000  xsym                 LAB,B2   GJA_NODENAME
          1 000055  2C00                                 LDV,R2   0
          1 000056  6C08                                 LDV,R6   8
          1 000057  BB87                                 LAB,B3   ,AUTO
          1 000058  3C19                                 LDV,R3   25
          1 000059  0008                                 MMM

      397     9959    1        CALL GJA$SEND_MSG(CTX$,NODEINFO,SIZEC(NODEINFO));

   9959   1 00005A  EBF0 000E                            LAB,B6   14,IMO
          1 00005C  EFC7 002C                            STB,B6   I+6,AUTO
PL6.E3A0      #003=GJA$GET_CONFIG_INFO File=GJA$SUBS.:E05TSI                     TUE 07/29/97 21:55 Page:66
          1 00005E  DBC7 000A                            LAB,B5   NODEINFO,AUTO
          1 000060  DFC7 002A                            STB,B5   I+4,AUTO
          1 000062  CCC7 0004                            LDB,B4   @CTX$,AUTO
          1 000064  CFC7 0028                            STB,B4   I+2,AUTO
          1 000066  BBC7 0028                            LAB,B3   I+2,AUTO
          1 000068  CBF0 0300                            LAB,B4   768,IMO
          1 00006A  E380 0000 0000  xent                 LNJ,B6   GJA$SEND_MSG
          1 00006D       0001                            DC       s:9963,PREL

      398     9960
      399     9961        /* Send NODECHG for each node we can talk to */
      400     9962
      401     9963    1        IF GJA$HAND_CTX.LINK_CONNECTED

   9963   1 00006E  ECC7 0004                            LDB,B6   @CTX$,AUTO
          1 000070  DC86                                 LDB,B5   ,B6
          1 000071  82C5 000D                            LB,'4000'X        13,B5
          1 000073       4000
          1 000074  0581 0091                            BBF      s:9996,PREL

      402     9964    1        THEN
      403     9965    2        DO I = 0 TO GJA_MAXNODE;

   9965   1 000076  8747 0026                            CL       I,AUTO
          1 000078  0F81 0084                            B        s:9995+2,PREL

      404     9966    2             ROUTE$ = KNN$ROUTE$(I);

   9966   1 00007A  EC80 0000 0000  xsym                 LDB,B6   GJA_ROUTE$
          1 00007D  B847 0026                            LDR,R3   I,AUTO
          1 00007F  DCB6                                 LDB,B5   ,B6,R3
          1 000080  DFC7 0022                            STB,B5   ROUTE$,AUTO

      405     9967    2             LINK$ = KNN$ROUTE.LINK$;

   9967   1 000082  CC85                                 LDB,B4   ,B5
          1 000083  CFC7 0024                            STB,B4   LINK$,AUTO
PL6.E3A0      #003=GJA$GET_CONFIG_INFO File=GJA$SUBS.:E05TSI                     TUE 07/29/97 21:55 Page:67

      406     9968    2             IF LINK$ ~= ADDR(NIL)         /* We can talk to this node */

   9968   1 000085  8DC7 0024                            CMN      LINK$,AUTO
          1 000087  0901 0073                            BE       s:9995,PREL
          1 000089  3801 0006                            BLZ,R3   s:9968+11,PREL
          1 00008B  B900 0000 0000  xsym                 CMR,R3   GJA_NODE#
          1 00008E  0901 006C                            BE       s:9995,PREL
          1 000090  BCC7 0004                            LDB,B3   @CTX$,AUTO
          1 000092  AC83                                 LDB,B2   ,B3
          1 000093  E842 000D                            LDR,R6   13,B2
          1 000095  E570 00FF                            AND,R6   255,IMO
          1 000097  E953                                 CMR,R6   R3
          1 000098  0901 0062                            BE       s:9995,PREL

      407     9969    2                  AND GJA_NODE# ~= I
      408     9970    2                  AND I ~= GJA$HAND_CTX.NODE
      409     9971    3             THEN DO;

      410     9972    3                  NODECHG.FCN = IGA_NODECHG;

   9972   1 00009A  5C29                                 LDV,R5   41
          1 00009B  D7C7 0006                            STH,R5   NODECHG,AUTO

      411     9973    3                  NODECHG.MYNODE = GJA_NODE#;

   9973   1 00009D  E800 0000 0000  xsym                 LDR,R6   GJA_NODE#
          1 0000A0  EAC7 0007                            SRM,R6,'00FF'X    NODECHG+1,AUTO
          1 0000A2       00FF

      412     9974    3                  NODECHG.NODE = I;

   9974   1 0000A3  B7C7 0008                            STH,R3   NODECHG+2,AUTO

      413     9975    3                  IF KNN$LINK.NODE# = GJA$HAND_CTX.NODE

   9975   1 0000A5  AC83                                 LDB,B2   ,B3
PL6.E3A0      #003=GJA$GET_CONFIG_INFO File=GJA$SUBS.:E05TSI                     TUE 07/29/97 21:55 Page:68
          1 0000A6  C842 000D                            LDR,R4   13,B2
          1 0000A8  C570 00FF                            AND,R4   255,IMO
          1 0000AA  C944 0002                            CMR,R4   2,B4
          1 0000AC  0981 0019                            BNE      s:9983,PREL

      414     9976    3                  THEN
      415     9977    3                       IF KNN$ROUTE.ALT_QOS = 255

   9977   1 0000AE  A845 0006                            LDR,R2   6,B5
          1 0000B0  A970 00FF                            CMR,R2   255,IMO
          1 0000B2  0981 0006                            BNE      s:9981,PREL

      416     9978    3                       THEN
      417     9979    3                            NODECHG.QOS = 255;

   9979   1 0000B4  8947 0009                            LBT,'FF00'X       NODECHG+3,AUTO
   9979   1 0000B6       FF00
          1 0000B7  0F81 0024                            B        s:9988,PREL

      418     9980    3                       ELSE
      419     9981    3                            NODECHG.QOS = MINIMUM(KNN$ROUTE.ALT_QOS+GJA_HOPCOST,254);

   9981   1 0000B9  AA00 0000 0000  xsym                 ADD,R2   GJA_HOPCOST
          1 0000BC  A970 00FE                            CMR,R2   254,IMO
          1 0000BE  0381 0003                            BLE      s:9981+9,PREL
          1 0000C0  A870 00FE                            LDR,R2   254,IMO
          1 0000C2  A7C7 0009                            STH,R2   NODECHG+3,AUTO
          1 0000C4  0F81 0017                            B        s:9988,PREL

      420     9982    3                  ELSE
      421     9983    3                       IF KNN$ROUTE.CURRENT_QOS = 255

   9983   1 0000C6  A845 0005                            LDR,R2   5,B5
          1 0000C8  A970 00FF                            CMR,R2   255,IMO
          1 0000CA  0981 0006                            BNE      s:9987,PREL

      422     9984    3                       THEN
PL6.E3A0      #003=GJA$GET_CONFIG_INFO File=GJA$SUBS.:E05TSI                     TUE 07/29/97 21:55 Page:69
      423     9985    3                            NODECHG.QOS = 255;

   9985   1 0000CC  8947 0009                            LBT,'FF00'X       NODECHG+3,AUTO
   9985   1 0000CE       FF00
          1 0000CF  0F81 000C                            B        s:9988,PREL

      424     9986    3                       ELSE
      425     9987    3                           NODECHG.QOS = MINIMUM(KNN$ROUTE.CURRENT_QOS+GJA_HOPCOST,254
              9987                                     );

   9987   1 0000D1  AA00 0000 0000  xsym                 ADD,R2   GJA_HOPCOST
          1 0000D4  A970 00FE                            CMR,R2   254,IMO
          1 0000D6  0381 0003                            BLE      s:9987+9,PREL
          1 0000D8  A870 00FE                            LDR,R2   254,IMO
          1 0000DA  A7C7 0009                            STH,R2   NODECHG+3,AUTO

      426     9988    3                  IF KNN$ROUTE.FLAGS.HOST_NODE

   9988   1 0000DC  89C5 0007                            CMZ      7,B5
          1 0000DE  0881 0007                            BAGE     s:9992,PREL

      427     9989    3                  THEN
      428     9990    3                       NODECHG.HOSTNODE = 1;

   9990   1 0000E0  4C01                                 LDV,R4   1
          1 0000E1  CAC7 0008                            SRM,R4,'00FF'X    NODECHG+2,AUTO
          1 0000E3       00FF
          1 0000E4  0F81 0004                            B        s:9993,PREL

      429     9991    3                  ELSE
      430     9992    3                       NODECHG.HOSTNODE = 0;

   9992   1 0000E6  8847 0008                            LBF,'00FF'X       NODECHG+2,AUTO
   9992   1 0000E8       00FF

      431     9993    3                  CALL GJA$SEND_MSG(CTX$,NODECHG,SIZEC(NODECHG));

PL6.E3A0      #003=GJA$GET_CONFIG_INFO File=GJA$SUBS.:E05TSI                     TUE 07/29/97 21:55 Page:70
   9993   1 0000E9  ABF0 0008                            LAB,B2   8,IMO
          1 0000EB  AFC7 002C                            STB,B2   I+6,AUTO
          1 0000ED  9BC7 0006                            LAB,B1   NODECHG,AUTO
          1 0000EF  9FC7 002A                            STB,B1   I+4,AUTO
          1 0000F1  BFC7 0028                            STB,B3   I+2,AUTO
          1 0000F3  BBC7 0028                            LAB,B3   I+2,AUTO
          1 0000F5  CBF0 0300                            LAB,B4   768,IMO
          1 0000F7  E380 0000 0000  xent                 LNJ,B6   GJA$SEND_MSG
          1 0000FA       0001                            DC       s:9995,PREL

      432     9994    3                END;

      433     9995    2           END;                            /* do i = 0 to maxnodes */

   9995   1 0000FB  8AC7 0026                            INC      I,AUTO
          1 0000FD  E847 0026                            LDR,R6   I,AUTO
          1 0000FF  6801 FF7A                            BLZ,R6   s:9966,PREL
          1 000101  E900 0000 0000  xsym                 CMR,R6   GJA_MAXNODE
          1 000104  0381 FF75                            BLE      s:9966,PREL

      434     9996    1        IF GJA$HAND_CTX.LINK_CONNECTED

   9996   1 000106  ECC7 0004                            LDB,B6   @CTX$,AUTO
          1 000108  DC86                                 LDB,B5   ,B6
          1 000109  82C5 000D                            LB,'4000'X        13,B5
          1 00010B       4000
          1 00010C  0501 0006                            BBT      s:9998,PREL
          1 00010E  82C5 000D                            LB,'2000'X        13,B5
          1 000110       2000
          1 000111  0581 0053                            BBF      s:10018,PREL

      435     9997    2             OR GJA$HAND_CTX.HOST_NODE THEN DO;

      436     9998    2             OSILINKCHG = '0'B;

   9998   1 000113  5C20                                 LDV,R5   32
          1 000114  0021                                 ALR      ;
PL6.E3A0      #003=GJA$GET_CONFIG_INFO File=GJA$SUBS.:E05TSI                     TUE 07/29/97 21:55 Page:71
          1 000115       4178 0000                                ALPHANUM('0000'X,IMO,,1),;
          1 000117       4007 0011                                ALPHANUM(OSILINKCHG,AUTO,,R5,FILL)

      437     9999    2             OSILINKCHG.FCN = IGA_OSILINKCHG;

   9999   1 000119  6C5A                                 LDV,R6   90
          1 00011A  437F                                 CSYNC    s:9999,SPREL
          1 00011B  E7C7 0011                            STH,R6   OSILINKCHG,AUTO

      438    10000    2             OSILINKCHG.TYPE = IGA_OSILINKUP;

  10000   1 00011D  4C58                                 LDV,R4   88
          1 00011E  CAC7 0011                            SRM,R4,'00FF'X    OSILINKCHG,AUTO
          1 000120       00FF

      439    10001    2             OSILINKCHG.MYNODE# = GJA_NODE#;

  10001   1 000121  B800 0000 0000  xsym                 LDR,R3   GJA_NODE#
          1 000124  B7C7 0012                            STH,R3   OSILINKCHG+1,AUTO

      440    10002    2             OSILINKCHG.NODE# = GJA_NODE#;

  10002   1 000126  BAC7 0012                            SRM,R3,'00FF'X    OSILINKCHG+1,AUTO
  10002   1 000128       00FF

      441    10003    3             DO J = 0 TO GJA_LINKS-1;

  10003   1 000129  8747 0021                            CL       J,AUTO
          1 00012B  0F81 0033                            B        s:10015+2,PREL

      442    10004    3                  LINK$ = KNN$LINK$(J);

  10004   1 00012D  EC80 0000 0000  xsym                 LDB,B6   GJA_LINK$
          1 000130  B847 0021                            LDR,R3   J,AUTO
          1 000132  DCB6                                 LDB,B5   ,B6,R3
          1 000133  DFC7 0024                            STB,B5   LINK$,AUTO

PL6.E3A0      #003=GJA$GET_CONFIG_INFO File=GJA$SUBS.:E05TSI                     TUE 07/29/97 21:55 Page:72
      443    10005                         /*
      444    10006                            this is and osi link tell the distant node about it.
      445    10007                            tell the default host also.
      446    10008                         */
      447    10009    4                  IF KNN$LINK.SNPA.LEN ~= 0 THEN DO;

  10009   1 000135  E2C5 001F                            LLH,R6   31,B5
          1 000137  6901 0025                            BEZ,R6   s:10015,PREL

      448    10010    4                       OSILINKCHG.QOS = KNN$LINK.QOS;

  10010   1 000139  D845 0004                            LDR,R5   4,B5
          1 00013B  D7C7 0013                            STH,R5   OSILINKCHG+2,AUTO

      449    10011    4                       OSILINKCHG.SNPA = KNN$LINK.SNPA;

  10011   1 00013D  AB85                                 LAB,B2   ,B5
          1 00013E  2C3E                                 LDV,R2   62
          1 00013F  6C08                                 LDV,R6   8
          1 000140  BB87                                 LAB,B3   ,AUTO
          1 000141  3C2A                                 LDV,R3   42
          1 000142  0008                                 MMM

      450    10012    4                       OSILINKCHG.TERMID.TERM.CHANNEL = KNN$LINK.CHAN#;

  10012   1 000143  ECC7 0024                            LDB,B6   LINK$,AUTO
          1 000145  E846 0023                            LDR,R6   35,B6
          1 000147  EF47 001A                            STR,R6   OSILINKCHG+9,AUTO

      451    10013    4                       CALL GJA$SEND_MSG(CTX$,OSILINKCHG,SIZEC(OSILINKCHG));

  10013   1 000149  CBF0 0020                            LAB,B4   32,IMO
          1 00014B  CFC7 002C                            STB,B4   I+6,AUTO
          1 00014D  9BC7 0011                            LAB,B1   OSILINKCHG,AUTO
          1 00014F  9FC7 002A                            STB,B1   I+4,AUTO
          1 000151  ECC7 0004                            LDB,B6   @CTX$,AUTO
          1 000153  EFC7 0028                            STB,B6   I+2,AUTO
PL6.E3A0      #003=GJA$GET_CONFIG_INFO File=GJA$SUBS.:E05TSI                     TUE 07/29/97 21:55 Page:73
          1 000155  BBC7 0028                            LAB,B3   I+2,AUTO
          1 000157  CBF0 0300                            LAB,B4   768,IMO
          1 000159  E380 0000 0000  xent                 LNJ,B6   GJA$SEND_MSG
          1 00015C       0001                            DC       s:10015,PREL

      452    10014    4                     END;

      453    10015    3                END;

  10015   1 00015D  8AC7 0021                            INC      J,AUTO
          1 00015F  E847 0021                            LDR,R6   J,AUTO
          1 000161  E900 0000 0000  xsym                 CMR,R6   GJA_LINKS
          1 000164  0249                                 BL       s:10004,SPREL

      454    10016    2           END;                            /* if link connected */

      455    10017
      456    10018    1        RETURN;

  10018   1 000165  C380 0000 0000  xent                 LNJ,B4   X6A_ARET
      457    10019    1   END;
      458    10020        %EOD;

PL6.E3A0      #003=GJA$GET_CONFIG_INFO File=GJA$SUBS.:E05TSI                     TUE 07/29/97 21:55 Page:74
--  Include file information  --

   KNH_MACRO_C.:E05TOU  is referenced.
   K_ADDRESS_M.:E05TOU  is referenced.
   KNN_NETWORK_M.:E05TOU  is referenced.
   KL_AFCN_C.:E05TOU  is referenced.
   KL_MACRO_C.:E05TOU  is referenced.
   GJA_MSG_M.:E05TOU  is referenced.
   G_LCP6_E.:E05TOU  is referenced.
   GT_LCP6_M.:E05TOU  is referenced.
   KI_CP6.:E05TOU  is referenced.
   GF_LCP6_M.:E05TOU  is referenced.
   GM_LCP6_M.:E05TOU  is referenced.
   GU_LCP6_M.:E05TOU  is referenced.
   GJ_LCP6_M.:E05TOU  is referenced.
   GH_LCP6_M.:E05TOU  is referenced.
   LCP_6.:E05TOU  cannot be made into a system file and is referenced.
      No diagnostics issued in procedure GJA$GET_CONFIG_INFO.
PL6.E3A0      #003=GJA$GET_CONFIG_INFO File=GJA$SUBS.:E05TSI                     TUE 07/29/97 21:55 Page:75

 **** Variables and constants ****

  ****  Section 000  Data  GJA$GET_CONFIG_INFO

  ****  Scalars and arrays  ****
HexLoc.c.b A Datatyp(siz) R M Lvl/name                 HexLoc.c.b A Datatyp(siz) R M Lvl/name

     0-0-0/w STRC(368)   r     1 CONTROL_INIT

  ****  Auto variables  ****

  ****  Scalars and arrays  ****
HexLoc.c.b A Datatyp(siz) R M Lvl/name                 HexLoc.c.b A Datatyp(siz) R M Lvl/name

     4-0-0/w PTR         r     1 @CTX$                     *0-0-0/w PTR         r     1 CTX$
    26-0-0/w SBIN(16)    r     1 I                         21-0-0/w UBIN(16)    r     1 J
    24-0-0/w PTR         r     1 LINK$                      6-0-0/w STRC(56)    r     1 NODECHG
     A-0-0/w STRC(104)   r     1 NODEINFO                  11-0-0/w STRC(256)   r     1 OSILINKCHG
    22-0-0/w PTR         r     1 ROUTE$

  ****  SYMREF variables  ****

  ****  Scalars and arrays  ****
HexLoc.c.b A Datatyp(siz) R M Lvl/name                 HexLoc.c.b A Datatyp(siz) R M Lvl/name

     0-0-0/w UBIN(16)    r     1 GJA_HOPCOST                0-0-0/w PTR         r     1 GJA_LINK$
     0-0-0/w UBIN(16)    r     1 GJA_LINKS                  0-0-0/w UBIN(16)    r     1 GJA_MAXNODE
     0-0-0/w UBIN(16)    r     1 GJA_NODE#                  0-0-0/c CHAR(8)     r     1 GJA_NODENAME
     0-0-0/w PTR         r     1 GJA_ROUTE$                 0-0-0/w ASTR(216)   r     1 GJA_RQSCHN
     0-0-0/w UBIN(32)    r     1 GJA_UID_NM

  ****  BASED and DCB variables  ****

  ****  Scalars and arrays  ****
HexLoc.c.b A Datatyp(siz) R M Lvl/name                 HexLoc.c.b A Datatyp(siz) R M Lvl/name

     0-0-0/c STRC(272)   r     1 GJA$HAND_CTX               0-0-0/c STRC(608)   r     1 KNN$LINK
PL6.E3A0      #003=GJA$GET_CONFIG_INFO File=GJA$SUBS.:E05TSI                     TUE 07/29/97 21:55 Page:76
     0-0-0/w PTR         r     1 KNN$LINK$(0:0)
     0-0-0/w STRC(208)   r     1 KNN$ROUTE
     0-0-0/w PTR         r     1 KNN$ROUTE$(0:0)


   Procedure GJA$GET_CONFIG_INFO requires 360 words for executable code.
   Procedure GJA$GET_CONFIG_INFO requires 47 words of local(AUTO) storage.
PL6.E3A0      #003=GJA$GET_CONFIG_INFO File=GJA$SUBS.:E05TSI                     TUE 07/29/97 21:55 Page:77
          *** CROSS REFERENCE LISTING ***
**     DENOTES     IDENTIFIER DEFINITION
<<                 IDENTIFIER'S VALUE SET
>>                 IDENTIFIER'S VALUE USED
<>                 IDENTIFIER SET AND/OR USED
--                 IDENTIFIER REFERENCED
PL6.E3A0      #003=GJA$GET_CONFIG_INFO File=GJA$SUBS.:E05TSI                     TUE 07/29/97 21:55 Page:78
          MINI XREF LISTING

CONTROL_INIT
      9853**DCL      9949<>CALL     9949--CALL
CTX$
      9137**DCL        13--PROC     9263--IMP-PTR  9953--ENTRY    9959<>CALL     9963>>IF       9968>>IF
      9975>>IF       9993<>CALL     9996>>IF       9996>>IF      10013<>CALL
GJA$HAND_CTX.HOST_NODE
      9293**DCL      9996>>IF
GJA$HAND_CTX.LINK_CONNECTED
      9292**DCL      9963>>IF       9996>>IF
GJA$HAND_CTX.NODE
      9298**DCL      9968>>IF       9975>>IF
GJA$SEND_MSG
      9816**DCL-ENT  9949--CALL     9950--CALL     9959--CALL     9993--CALL    10013--CALL
GJA_HOPCOST
      9150**DCL      9981>>ASSIGN   9987>>ASSIGN
GJA_LINK$
      9157**DCL      9636--IMP-PTR 10004>>ASSIGN
GJA_LINKS
      9156**DCL     10003>>DOINDEX
GJA_MAXNODE
      9154**DCL      9965>>DOINDEX
GJA_NODE#
      9152**DCL      9957>>ASSIGN   9968>>IF       9973>>ASSIGN  10001>>ASSIGN  10002>>ASSIGN
GJA_NODENAME
      9153**DCL      9958>>ASSIGN
GJA_ROUTE$
      9151**DCL      9635--IMP-PTR  9966>>ASSIGN
GJA_RQSCHN
      9173**DCL      9950<>CALL     9950--CALL
GJA_RQSCHN.SGN.L
      9247**DCL      9255--IMP-SIZ  9950>>CALL     9950>>CALL
GJA_RQSCHN.TERMINAL_ID.TERM
PL6.E3A0      #003=GJA$GET_CONFIG_INFO File=GJA$SUBS.:E05TSI                     TUE 07/29/97 21:55 Page:79
      9227**DCL      9236--REDEF
GJA_UID_NM
      9155**DCL      9949<>CALL     9950<>CALL
I
      9813**DCL      9965<<DOINDEX  9966>>ASSIGN   9968>>IF       9968>>IF       9974>>ASSIGN
J
      9810**DCL     10003<<DOINDEX 10004>>ASSIGN
KNN$LINK.CHAN#
      9547**DCL     10012>>ASSIGN
KNN$LINK.DEST.ADDRESS_N
      9500**DCL      9501--REDEF
KNN$LINK.LADR.ADDRESS_N
      9443**DCL      9444--REDEF
KNN$LINK.LDCT$
      9314**DCL      9321--REDEF
KNN$LINK.NODE#
      9329**DCL      9975>>IF
KNN$LINK.QOS
      9373**DCL     10010>>ASSIGN
KNN$LINK.SNPA
      9529**DCL     10011>>ASSIGN
KNN$LINK.SNPA.LEN
      9531**DCL     10009>>IF
KNN$LINK$
      9636**DCL     10004>>ASSIGN
KNN$ROUTE.ALT_QOS
      9585**DCL      9977>>IF       9981>>ASSIGN
KNN$ROUTE.CURRENT_QOS
      9582**DCL      9983>>IF       9987>>ASSIGN
KNN$ROUTE.FLAGS.HOST_NODE
      9592**DCL      9988>>IF
KNN$ROUTE.LINK$
      9565**DCL      9967>>ASSIGN
KNN$ROUTE$
      9635**DCL      9966>>ASSIGN
LINK$
PL6.E3A0      #003=GJA$GET_CONFIG_INFO File=GJA$SUBS.:E05TSI                     TUE 07/29/97 21:55 Page:80
      9812**DCL      9313--IMP-PTR  9967<<ASSIGN   9968>>IF       9975>>IF      10004<<ASSIGN  10009>>IF
     10010>>ASSIGN  10011>>ASSIGN  10012>>ASSIGN
NODECHG
      9654**DCL      9993<>CALL     9993--CALL
NODECHG.FCN
      9655**DCL      9972<<ASSIGN
NODECHG.HOSTNODE
      9660**DCL      9990<<ASSIGN   9992<<ASSIGN
NODECHG.MYNODE
      9658**DCL      9973<<ASSIGN
NODECHG.NODE
      9659**DCL      9974<<ASSIGN
NODECHG.QOS
      9661**DCL      9979<<ASSIGN   9981<<ASSIGN   9985<<ASSIGN   9987<<ASSIGN
NODEINFO
      9678**DCL      9955<<ASSIGN   9959<>CALL     9959--CALL
NODEINFO.FCN
      9679**DCL      9956<<ASSIGN
NODEINFO.MYNAME
      9685**DCL      9958<<ASSIGN
NODEINFO.MYNODE
      9684**DCL      9957<<ASSIGN
OSILINKCHG
      9704**DCL      9998<<ASSIGN  10013<>CALL    10013--CALL
OSILINKCHG.FCN
      9715**DCL      9999<<ASSIGN
OSILINKCHG.MYNODE#
      9735**DCL     10001<<ASSIGN
OSILINKCHG.NODE#
      9737**DCL     10002<<ASSIGN
OSILINKCHG.QOS
      9739**DCL     10010<<ASSIGN
OSILINKCHG.SNPA
      9765**DCL     10011<<ASSIGN
OSILINKCHG.TERMID.TERM
      9796**DCL      9805--REDEF
PL6.E3A0      #003=GJA$GET_CONFIG_INFO File=GJA$SUBS.:E05TSI                     TUE 07/29/97 21:55 Page:81
OSILINKCHG.TERMID.TERM.CHANNEL
      9802**DCL     10012<<ASSIGN
OSILINKCHG.TYPE
      9726**DCL     10000<<ASSIGN
ROUTE$
      9811**DCL      9564--IMP-PTR  9966<<ASSIGN   9967>>ASSIGN   9977>>IF       9981>>ASSIGN   9983>>IF
      9987>>ASSIGN   9988>>IF

PL6.E3A0      #004=GJA$UPDATE_CHNTBL File=GJA$SUBS.:E05TSI                       TUE 07/29/97 21:55 Page:82
      459        1        /*T***********************************************************/
      460        2        /*T*                                                         */
      461        3        /*T* Copyright (c) Bull HN Information Systems Inc., 1997    */
      462        4        /*T*                                                         */
      463        5        /*T***********************************************************/
      464        6        /*F*    NAME:    GJA$UPDATE_CHNTBL
      465        7
      466        8                PURPOSE: This routine is called when node admin receives
      467        9                         a message from the network manager containing config
      468       10                         info for Node Admin.  The associated GJA$CHNTBL entry
      469       11                         is updated with the new information.
      470       12
      471       13                DESCRIPTION: This routine moves info from KL_NA_INFO into
      472       14                             the GJA$CHNTBL structure.
      473       15
      474       16                CALL: CALL GJA$UPDATE_CHNTBL(KL_NA_INFO,TERMID,KL_HNDCMN_INFO);
      475       17
      476       18                INPUT: KL_NA_INFO - The info from the network manager.
      477       19                       TERMID - Which termid this info is for.
      478       20        */
      479       21        GJA$UPDATE_CHNTBL: PROC(NA_INFO,TERMID,HNDCMN_INFO) ALTRET;
      480       22
      481       23        %INCLUDE GJA_MSG_M;
      482      262        %INCLUDE KH$CHN;
      483      384        %INCLUDE KL_MACRO_C;
      484     3736        %INCLUDE KL_AFCN_C;                     /* 'IGA' Function Codes     */
      485     3837        %INCLUDE LCP_6;
      486     8116        %INCLUDE CP_6_SUBS;
      487     8656        %INCLUDE KHA_FNC_E;
      488     8756                                                /* Args                     */
      489     8757        %KL_NA_INFO (FPTN=NA_INFO,STCLASS=PARAM,ALGN=ALIGNED);
      490     8806        %KL_HNDCMN_INFO(FPTN=HNDCMN_INFO,STCLASS=PARAM,LVL=1,LAST=";",ALGN=ALIGNED);
      491     8886        %B$TERMINAL_ID (FPTN=TERMID,STCLASS=PARAM,ALGN=ALIGNED);
      492     8915
      493     8916                                                /* AUTO                     */
      494     8917    1   DCL CHN$ PTR;
      495     8918
PL6.E3A0      #004=GJA$UPDATE_CHNTBL File=GJA$SUBS.:E05TSI                       TUE 07/29/97 21:55 Page:83
      496     8919                                                /* BASED Structures         */
      497     8920        %KH$CHN (STCLASS="BASED(CHN$)");
      498     9044
      499     9045                                                /* Entrys                   */
      500     9046    1   DCL GJA$GET_CHNTBL_PTR ENTRY(2) ALTRET;
      501     9047    1   DCL KHA$UPD_CHN ENTRY(2);
      502     9048
      503     9049        %EJECT;
PL6.E3A0      #004=GJA$UPDATE_CHNTBL File=GJA$SUBS.:E05TSI                       TUE 07/29/97 21:55 Page:84
      504     9050        /*
      505     9051          Start by calling a routine to get you a pointer to the channel table
      506     9052          entry you will be didling.
      507     9053        */
      508     9054    2        CALL GJA$GET_CHNTBL_PTR(TERMID,CHN$) WHENALTRETURN DO;
      509     9055    2             ALTRETURN;
      510     9056    2           END;
      511     9057        /*
      512     9058          Next just move in whatever information was specified in the
      513     9059          KL_NA_INFO structure.
      514     9060        */
      515     9061    1        IF NA_INFO.ATTRPRES
      516     9062    1        THEN KH$CHN.ATTR=NA_INFO.ATTR;
      517     9063    1        IF NA_INFO.RESPRES
      518     9064    1        THEN KH$CHN.RESOURCE=NA_INFO.RES;
      519     9065    1        IF NA_INFO.SNDSLT ~= '01'B
      520     9066    1        THEN KH$CHN.SNDSLT=NA_INFO.SNDSLT;
      521     9067    1        IF NA_INFO.ECHLGN ~= '01'B
      522     9068    1        THEN KH$CHN.ECHLGN=NA_INFO.ECHLGN;
      523     9069    1        IF NA_INFO.AUTLGN ~= '01'B
      524     9070    1        THEN KH$CHN.AUTLGN=NA_INFO.AUTLGN;
      525     9071    1        IF NA_INFO.PROFILE ~= '01'B
      526     9072    1        THEN KH$CHN.PROFILE = NA_INFO.PROFILE;
      527     9073    1        IF NA_INFO.LGNTIMOUT ~= -1
      528     9074    1        THEN KH$CHN.LGNTIMOUTPRD = NA_INFO.LGNTIMOUT;
      529     9075    1        CALL KHA$UPD_CHN (HNDCMN_INFO,KH$CHN);
      530     9076    1        IF KH$CHN.STT = %KH#CHN_STT_NTRDY
      531     9077    1        THEN
      532     9078    1             KH$CHN.STT = %KH#CHN_STT_UN_INT;
      533     9079    1        RETURN;
      534     9080    1   END GJA$UPDATE_CHNTBL;
      535     9081        %EOD;

PL6.E3A0      #004=GJA$UPDATE_CHNTBL File=GJA$SUBS.:E05TSI                       TUE 07/29/97 21:55 Page:85
--  Include file information  --

   KHA_FNC_E.:E05TOU  is referenced.
   CP_6_SUBS.:E05TOU  is referenced.
   G_LCP6_E.:E05TOU  is referenced.
   GT_LCP6_M.:E05TOU  is referenced.
   KI_CP6.:E05TOU  is referenced.
   GF_LCP6_M.:E05TOU  is referenced.
   GM_LCP6_M.:E05TOU  is referenced.
   GU_LCP6_M.:E05TOU  is referenced.
   GJ_LCP6_M.:E05TOU  is referenced.
   GH_LCP6_M.:E05TOU  is referenced.
   LCP_6.:E05TOU  cannot be made into a system file and is referenced.
   KL_AFCN_C.:E05TOU  is referenced.
   KL_MACRO_C.:E05TOU  is referenced.
   KH$CHN.:E05TOU  is referenced.
   GJA_MSG_M.:E05TOU  is referenced.
      No diagnostics issued in procedure GJA$UPDATE_CHNTBL.

   Procedure GJA$UPDATE_CHNTBL requires 135 words for executable code.
   Procedure GJA$UPDATE_CHNTBL requires 16 words of local(AUTO) storage.

PL6.E3A0      #004=GJA$UPDATE_CHNTBL File=GJA$SUBS.:E05TSI                       TUE 07/29/97 21:55 Page:86

 Object Unit name= GJA$UPDATE_CHNTBL                          File name= GJA$SUBS.:E05TOU
 UTS= JUL 29 '97 21:55:27.88 TUE                              Compiler= PL-6/E31         Sev=      00
 SharedLib= :SHARED_LCP6_SYSTEM                               Alt SharedLib=


    ****  Control sections  ****

 Sect   Type Bound  Init  Size HexSiz  Section name
    0   Proc  even  none   135     87  GJA$UPDATE_CHNTBL

    ****  Entry defs  ****

                              Check   Calling
                             calling  sequence
  Sect HexLoc Primary Altret sequence   type   Parms  Name
     0      0   yes    yes     yes      Std        3  GJA$UPDATE_CHNTBL

  ****  Entry refs  ****

         Check        Calling
        calling       sequence
Altret sequence SRef   type   Args  Name
 yes     yes           Std       2 GJA$GET_CHNTBL_PTR
         yes           Std       2 KHA$UPD_CHN
                       nStd      0 X6A_AUTO_3
                       nStd      0 X6A_AALT
                       nStd      0 X6A_ARET

  ****  Data refs  ****

  Flags:  r = read only, s = secondary
Flgs Name                             Flgs Name                             Flgs Name
r    G$ROS$
PL6.E3A0      #004=GJA$UPDATE_CHNTBL File=GJA$SUBS.:E05TSI                       TUE 07/29/97 21:55 Page:87


      459        1        /*T***********************************************************/
      460        2        /*T*                                                         */
      461        3        /*T* Copyright (c) Bull HN Information Systems Inc., 1997    */
      462        4        /*T*                                                         */
      463        5        /*T***********************************************************/
      464        6        /*F*    NAME:    GJA$UPDATE_CHNTBL
      465        7
      466        8                PURPOSE: This routine is called when node admin receives
      467        9                         a message from the network manager containing config
      468       10                         info for Node Admin.  The associated GJA$CHNTBL entry
      469       11                         is updated with the new information.
      470       12
      471       13                DESCRIPTION: This routine moves info from KL_NA_INFO into
      472       14                             the GJA$CHNTBL structure.
      473       15
      474       16                CALL: CALL GJA$UPDATE_CHNTBL(KL_NA_INFO,TERMID,KL_HNDCMN_INFO);
      475       17
      476       18                INPUT: KL_NA_INFO - The info from the network manager.
      477       19                       TERMID - Which termid this info is for.
      478       20        */
      479       21        GJA$UPDATE_CHNTBL: PROC(NA_INFO,TERMID,HNDCMN_INFO) ALTRET;

     21   0 000000  D380 0000 0000  xent GJA$UPDATE_CHNT*LNJ,B5   X6A_AUTO_3
          0 000003       0010 0003                       DC       16,3

      480       22
      481       23        %INCLUDE GJA_MSG_M;
      482      262        %INCLUDE KH$CHN;
      483      384        %INCLUDE KL_MACRO_C;
      484     3736        %INCLUDE KL_AFCN_C;                     /* 'IGA' Function Codes     */
      485     3837        %INCLUDE LCP_6;
      486     8116        %INCLUDE CP_6_SUBS;
      487     8656        %INCLUDE KHA_FNC_E;
      488     8756                                                /* Args                     */
      489     8757        %KL_NA_INFO (FPTN=NA_INFO,STCLASS=PARAM,ALGN=ALIGNED);
      490     8806        %KL_HNDCMN_INFO(FPTN=HNDCMN_INFO,STCLASS=PARAM,LVL=1,LAST=";",ALGN=ALIGNED);
PL6.E3A0      #004=GJA$UPDATE_CHNTBL File=GJA$SUBS.:E05TSI                       TUE 07/29/97 21:55 Page:88
      491     8886        %B$TERMINAL_ID (FPTN=TERMID,STCLASS=PARAM,ALGN=ALIGNED);
      492     8915
      493     8916                                                /* AUTO                     */
      494     8917    1   DCL CHN$ PTR;
      495     8918
      496     8919                                                /* BASED Structures         */
      497     8920        %KH$CHN (STCLASS="BASED(CHN$)");
      498     9044
      499     9045                                                /* Entrys                   */
      500     9046    1   DCL GJA$GET_CHNTBL_PTR ENTRY(2) ALTRET;
      501     9047    1   DCL KHA$UPD_CHN ENTRY(2);
      502     9048
      503     9049        %EJECT;
PL6.E3A0      #004=GJA$UPDATE_CHNTBL File=GJA$SUBS.:E05TSI                       TUE 07/29/97 21:55 Page:89
      504     9050        /*
      505     9051          Start by calling a routine to get you a pointer to the channel table
      506     9052          entry you will be didling.
      507     9053        */
      508     9054    2        CALL GJA$GET_CHNTBL_PTR(TERMID,CHN$) WHENALTRETURN DO;

   9054   0 000005  EBC7 000A                            LAB,B6   CHN$,AUTO
          0 000007  EFC7 000E                            STB,B6   CHN$+4,AUTO
          0 000009  DCC7 0006                            LDB,B5   @TERMID,AUTO
          0 00000B  DFC7 000C                            STB,B5   CHN$+2,AUTO
          0 00000D  BBC7 000C                            LAB,B3   CHN$+2,AUTO
          0 00000F  CBF0 0200                            LAB,B4   512,IMO
          0 000011  E380 0000 0000  xent                 LNJ,B6   GJA$GET_CHNTBL_PTR
          0 000014       0003                            DC       s:9055,PREL
          0 000015  0F81 0004                            B        s:9061,PREL

      509     9055    2             ALTRETURN;

   9055   0 000017  C380 0000 0000  xent                 LNJ,B4   X6A_AALT

      510     9056    2           END;
      511     9057        /*
      512     9058          Next just move in whatever information was specified in the
      513     9059          KL_NA_INFO structure.
      514     9060        */
      515     9061    1        IF NA_INFO.ATTRPRES

   9061   0 00001A  ECC7 0004                            LDB,B6   @NA_INFO,AUTO
          0 00001C  8286                                 LB,'0040'X        ,B6
          0 00001D       0040
          0 00001E  0581 0007                            BBF      s:9063,PREL

      516     9062    1        THEN KH$CHN.ATTR=NA_INFO.ATTR;

   9062   0 000020  DCC7 000A                            LDB,B5   CHN$,AUTO
          0 000022  E846 0002                            LDR,R6   2,B6
          0 000024  EF45 0005                            STR,R6   5,B5
PL6.E3A0      #004=GJA$UPDATE_CHNTBL File=GJA$SUBS.:E05TSI                       TUE 07/29/97 21:55 Page:90

      517     9063    1        IF NA_INFO.RESPRES

   9063   0 000026  8286                                 LB,'0080'X        ,B6
   9063   0 000027       0080
          0 000028  0581 0008                            BBF      s:9065,PREL

      518     9064    1        THEN KH$CHN.RESOURCE=NA_INFO.RES;

   9064   0 00002A  AB86                                 LAB,B2   ,B6
          0 00002B  2C06                                 LDV,R2   6
          0 00002C  6C02                                 LDV,R6   2
          0 00002D  BCC7 000A                            LDB,B3   CHN$,AUTO
          0 00002F  3C08                                 LDV,R3   8
          0 000030  0008                                 MMM

      519     9065    1        IF NA_INFO.SNDSLT ~= '01'B

   9065   0 000031  E806                                 LDR,R6   ,B6
          0 000032  E570 C000                            AND,R6   -16384,IMO
          0 000034  E970 4000                            CMR,R6   16384,IMO
          0 000036  0901 0008                            BE       s:9067,PREL

      520     9066    1        THEN KH$CHN.SNDSLT=NA_INFO.SNDSLT;

   9066   0 000038  D806                                 LDR,R5   ,B6
          0 000039  5045                                 SOR,R5   5
          0 00003A  DCC7 000A                            LDB,B5   CHN$,AUTO
          0 00003C  DAC5 0009                            SRM,R5,'0400'X    9,B5
          0 00003E       0400

      521     9067    1        IF NA_INFO.ECHLGN ~= '01'B

   9067   0 00003F  E806                                 LDR,R6   ,B6
          0 000040  6002                                 SOL,R6   2
          0 000041  E570 C000                            AND,R6   -16384,IMO
          0 000043  E970 4000                            CMR,R6   16384,IMO
PL6.E3A0      #004=GJA$UPDATE_CHNTBL File=GJA$SUBS.:E05TSI                       TUE 07/29/97 21:55 Page:91
          0 000045  0901 0008                            BE       s:9069,PREL

      522     9068    1        THEN KH$CHN.ECHLGN=NA_INFO.ECHLGN;

   9068   0 000047  D806                                 LDR,R5   ,B6
          0 000048  5044                                 SOR,R5   4
          0 000049  DCC7 000A                            LDB,B5   CHN$,AUTO
          0 00004B  DAC5 0009                            SRM,R5,'0200'X    9,B5
          0 00004D       0200

      523     9069    1        IF NA_INFO.AUTLGN ~= '01'B

   9069   0 00004E  E806                                 LDR,R6   ,B6
          0 00004F  6004                                 SOL,R6   4
          0 000050  E570 C000                            AND,R6   -16384,IMO
          0 000052  E970 4000                            CMR,R6   16384,IMO
          0 000054  0901 0007                            BE       s:9071,PREL

      524     9070    1        THEN KH$CHN.AUTLGN=NA_INFO.AUTLGN;

   9070   0 000056  D806                                 LDR,R5   ,B6
          0 000057  5049                                 SOR,R5   9
          0 000058  DCC7 000A                            LDB,B5   CHN$,AUTO
          0 00005A  DA85                                 SRM,R5,'0004'X    ,B5
          0 00005B       0004

      525     9071    1        IF NA_INFO.PROFILE ~= '01'B

   9071   0 00005C  E806                                 LDR,R6   ,B6
          0 00005D  600C                                 SOL,R6   12
          0 00005E  E570 C000                            AND,R6   -16384,IMO
          0 000060  E970 4000                            CMR,R6   16384,IMO
          0 000062  0901 0007                            BE       s:9073,PREL

      526     9072    1        THEN KH$CHN.PROFILE = NA_INFO.PROFILE;

   9072   0 000064  D806                                 LDR,R5   ,B6
PL6.E3A0      #004=GJA$UPDATE_CHNTBL File=GJA$SUBS.:E05TSI                       TUE 07/29/97 21:55 Page:92
          0 000065  5043                                 SOR,R5   3
          0 000066  DCC7 000A                            LDB,B5   CHN$,AUTO
          0 000068  DA85                                 SRM,R5,'0001'X    ,B5
          0 000069       0001

      527     9073    1        IF NA_INFO.LGNTIMOUT ~= -1

   9073   0 00006A  E846 0001                            LDR,R6   1,B6
          0 00006C  6DFF                                 CMV,R6   -1
          0 00006D  0901 0005                            BE       s:9075,PREL

      528     9074    1        THEN KH$CHN.LGNTIMOUTPRD = NA_INFO.LGNTIMOUT;

   9074   0 00006F  DCC7 000A                            LDB,B5   CHN$,AUTO
          0 000071  E7C5 000A                            STH,R6   10,B5

      529     9075    1        CALL KHA$UPD_CHN (HNDCMN_INFO,KH$CHN);

   9075   0 000073  BBC7 0008                            LAB,B3   @HNDCMN_INFO,AUTO
          0 000075  CBF0 0200                            LAB,B4   512,IMO
          0 000077  E380 0000 0000  xent                 LNJ,B6   KHA$UPD_CHN
          0 00007A       0001                            DC       s:9076,PREL

      530     9076    1        IF KH$CHN.STT = %KH#CHN_STT_NTRDY

   9076   0 00007B  ECC7 000A                            LDB,B6   CHN$,AUTO
          0 00007D  E2C6 0001                            LLH,R6   1,B6
          0 00007F  6D0A                                 CMV,R6   10
          0 000080  0981 0003                            BNE      s:9079,PREL

      531     9077    1        THEN
      532     9078    1             KH$CHN.STT = %KH#CHN_STT_UN_INT;

   9078   0 000082  87C6 0001                            CLH      1,B6

      533     9079    1        RETURN;

PL6.E3A0      #004=GJA$UPDATE_CHNTBL File=GJA$SUBS.:E05TSI                       TUE 07/29/97 21:55 Page:93
   9079   0 000084  C380 0000 0000  xent                 LNJ,B4   X6A_ARET
      534     9080    1   END GJA$UPDATE_CHNTBL;
      535     9081        %EOD;

PL6.E3A0      #004=GJA$UPDATE_CHNTBL File=GJA$SUBS.:E05TSI                       TUE 07/29/97 21:55 Page:94
--  Include file information  --

   KHA_FNC_E.:E05TOU  is referenced.
   CP_6_SUBS.:E05TOU  is referenced.
   G_LCP6_E.:E05TOU  is referenced.
   GT_LCP6_M.:E05TOU  is referenced.
   KI_CP6.:E05TOU  is referenced.
   GF_LCP6_M.:E05TOU  is referenced.
   GM_LCP6_M.:E05TOU  is referenced.
   GU_LCP6_M.:E05TOU  is referenced.
   GJ_LCP6_M.:E05TOU  is referenced.
   GH_LCP6_M.:E05TOU  is referenced.
   LCP_6.:E05TOU  cannot be made into a system file and is referenced.
   KL_AFCN_C.:E05TOU  is referenced.
   KL_MACRO_C.:E05TOU  is referenced.
   KH$CHN.:E05TOU  is referenced.
   GJA_MSG_M.:E05TOU  is referenced.
      No diagnostics issued in procedure GJA$UPDATE_CHNTBL.
PL6.E3A0      #004=GJA$UPDATE_CHNTBL File=GJA$SUBS.:E05TSI                       TUE 07/29/97 21:55 Page:95

 **** Variables and constants ****

  ****  Auto variables  ****

  ****  Scalars and arrays  ****
HexLoc.c.b A Datatyp(siz) R M Lvl/name                 HexLoc.c.b A Datatyp(siz) R M Lvl/name

     8-0-0/w PTR         r     1 @HNDCMN_INFO               4-0-0/w PTR         r     1 @NA_INFO
     6-0-0/w PTR         r     1 @TERMID                    A-0-0/w PTR         r     1 CHN$
    *0-0-0/w STRC(144)   r     1 HNDCMN_INFO               *0-0-0/w STRC(64)    r     1 NA_INFO
    *0-0-0/w STRC(128)   r     1 TERMID

  ****  BASED and DCB variables  ****

  ****  Scalars and arrays  ****
HexLoc.c.b A Datatyp(siz) R M Lvl/name                 HexLoc.c.b A Datatyp(siz) R M Lvl/name

     0-0-0/w STRC(512)   r     1 KH$CHN


   Procedure GJA$UPDATE_CHNTBL requires 135 words for executable code.
   Procedure GJA$UPDATE_CHNTBL requires 16 words of local(AUTO) storage.
PL6.E3A0      #004=GJA$UPDATE_CHNTBL File=GJA$SUBS.:E05TSI                       TUE 07/29/97 21:55 Page:96
          *** CROSS REFERENCE LISTING ***
**     DENOTES     IDENTIFIER DEFINITION
<<                 IDENTIFIER'S VALUE SET
>>                 IDENTIFIER'S VALUE USED
<>                 IDENTIFIER SET AND/OR USED
--                 IDENTIFIER REFERENCED
PL6.E3A0      #004=GJA$UPDATE_CHNTBL File=GJA$SUBS.:E05TSI                       TUE 07/29/97 21:55 Page:97
          MINI XREF LISTING

CHN$
      8917**DCL      8935--IMP-PTR  9054<>CALL     9062>>ASSIGN   9064>>ASSIGN   9066>>ASSIGN   9068>>ASSIGN
      9070>>ASSIGN   9072>>ASSIGN   9074>>ASSIGN   9075>>CALL     9076>>IF       9078>>ASSIGN
GJA$GET_CHNTBL_PTR
      9046**DCL-ENT  9054--CALL
HNDCMN_INFO
      8822**DCL        21--PROC     9075<>CALL
KH$CHN
      8935**DCL      9075<>CALL
KH$CHN.ATTR
      8968**DCL      9062<<ASSIGN
KH$CHN.AUTLGN
      8946**DCL      9070<<ASSIGN
KH$CHN.ECHLGN
      8994**DCL      9068<<ASSIGN
KH$CHN.LGNTIMOUTPRD
      9002**DCL      9074<<ASSIGN
KH$CHN.PROFILE
      8947**DCL      9072<<ASSIGN
KH$CHN.RESOURCE
      8963**DCL      9064<<ASSIGN
KH$CHN.SNDSLT
      8994**DCL      9066<<ASSIGN
KH$CHN.STT
      8951**DCL      9076>>IF       9078<<ASSIGN
KH$CHN.TERMID.TERM
      9031**DCL      9040--REDEF
KHA$UPD_CHN
      9047**DCL-ENT  9075--CALL
NA_INFO
      8773**DCL        21--PROC
NA_INFO.ATTR
PL6.E3A0      #004=GJA$UPDATE_CHNTBL File=GJA$SUBS.:E05TSI                       TUE 07/29/97 21:55 Page:98
      8802**DCL      9062>>ASSIGN
NA_INFO.ATTRPRES
      8788**DCL      9061>>IF
NA_INFO.AUTLGN
      8782**DCL      9069>>IF       9070>>ASSIGN
NA_INFO.ECHLGN
      8781**DCL      9067>>IF       9068>>ASSIGN
NA_INFO.LGNTIMOUT
      8801**DCL      9073>>IF       9074>>ASSIGN
NA_INFO.PROFILE
      8790**DCL      9071>>IF       9072>>ASSIGN
NA_INFO.RES
      8804**DCL      9064>>ASSIGN
NA_INFO.RESPRES
      8787**DCL      9063>>IF
NA_INFO.SNDSLT
      8780**DCL      9065>>IF       9066>>ASSIGN
TERMID
      8900**DCL        21--PROC     9054<>CALL
TERMID.TERM
      8904**DCL      8913--REDEF

PL6.E3A0      #005=GJA$BLD_CTX File=GJA$SUBS.:E05TSI                             TUE 07/29/97 21:55 Page:99
      536        1        /*T***********************************************************/
      537        2        /*T*                                                         */
      538        3        /*T* Copyright (c) Bull HN Information Systems Inc., 1997    */
      539        4        /*T*                                                         */
      540        5        /*T***********************************************************/
      541        6        /*F* NAME:  GJA$BLD_CTX
      542        7             PURPOSE: This routine is called to build a new context block for
      543        8                      a specified terminal id.  The new context block is linked
      544        9                      into the context chains.  Then we send a KL_LINPROINFO
      545       10                      message to Node Admin to inform him of the new element.
      546       11             DESCRIPTION:  This routine uses the info in the TERMID portion
      547       12                           of the message to determine where to hang the new
      548       13                           context block.  Then we do a RQSCNFG to get the CONFIG
      549       14                           info for the specified termid.
      550       15             CALL:   CALL GJA$BLD_CTX(TERMID,CTX$,DORQSCHN) ALTRET(label);
      551       16             INPUT:  TERMID - The termid we want to build context for.  See the
      552       17                              B$TERMINAL_ID macro in KL_MACRO_C.
      553       18             OUTPUT: CTX$ - The pointer to the KH$CHN structure that was just inserted
      554       19                            into the chains.
      555       20                                                                                      */
      556       21        GJA$BLD_CTX: PROC(TERMID,CTX$,DORQSCHN) ALTRET;
      557       22        /**/
      558       23        %INCLUDE LCP_6;
      559     4302        %INCLUDE CP_6_SUBS;
      560     4842        %INCLUDE KH$CHN;
      561     4964        %INCLUDE KL_MACRO_C;
      562     8316        %INCLUDE KL_AFCN_C;
      563     8417        /**/
      564     8418        %B$TERMINAL_ID (FPTN=TERMID,STCLASS=PARAM,ALGN=ALIGNED);
      565     8447    1   DCL CTX$ PTR;
      566     8448    1   DCL DORQSCHN BIT(1) ALIGNED;
      567     8449        /**/
      568     8450    1   DCL GJA$GET_CHNTBL_PTR ENTRY(2) ALTRET;
      569     8451    1   DCL GJA$NETWORK_MANAGER ENTRY(2) ALTRET;
      570     8452        /**/
      571     8453        %KH$CHN (NAME=CHANCTX,STCLASS="BASED(LVL1$)");
      572     8577        %KH$CHN (NAME=LVL2CTX,STCLASS="BASED(LVL2$)");
PL6.E3A0      #005=GJA$BLD_CTX File=GJA$SUBS.:E05TSI                             TUE 07/29/97 21:55 Page:100
      573     8701        %KH$CHN (NAME=LVL3CTX,STCLASS="BASED(LVL3$)");
      574     8825        %KH$CHN (NAME=NEWCTX,STCLASS="BASED(NEW$)");
      575     8949        %KH$CHN (NAME=CTX_C,STCLASS=CONSTANT);
      576     9073        /**/
      577     9074    1   DCL NEW$ PTR;
      578     9075    1   DCL NEW BIT(1);
      579     9076    1   DCL INIT$ PTR;
      580     9077    1   DCL SVLNK$ PTR;
      581     9078    1   DCL SVSUB$ PTR;
      582     9079        %B$TERMINAL_ID (FPTN=TERMINAL_ID,STCLASS=AUTO,ALGN=ALIGNED);
      583     9108    1   DCL LVL1$ PTR;
      584     9109    1   DCL LVL2$ PTR;
      585     9110    1   DCL LVL3$ PTR;
      586     9111    1   DCL CHAN UBIN;
      587     9112    1   DCL NUM UBIN;
      588     9113        %KL_RQSCHN (FPTN=RQSCHN,STCLASS=AUTO);
      589     9216        /**/
      590     9217        /**/
      591     9218        %KL_RQSCHN (FPTN=GJA_RQSCHN,STCLASS=SYMREF);
      592     9321    1   DCL GJA_CHNFREE$ PTR SYMREF;
      593     9322    1   DCL GJA_CHNLOW UBIN SYMREF;
      594     9323    1   DCL GJA_CHNHI UBIN SYMREF;
      595     9324    1   DCL GJA_CHNLOW$ PTR SYMREF;
      596     9325    1   DCL GJA_UID_NM UBIN(32) SYMREF;
      597     9326
      598     9327        %EJECT;
PL6.E3A0      #005=GJA$BLD_CTX File=GJA$SUBS.:E05TSI                             TUE 07/29/97 21:55 Page:101
      599     9328    1        CTX$ = ADDR(NIL);
      600     9329    1        IF TERMID.LEV = %TERMINAL_ID_LEV_CHAN#
      601     9330    1        THEN ALTRETURN;
      602     9331    1        CHAN = TERMID.TERM.CHANNEL;
      603     9332    2        IF CHAN > GJA_CHNHI OR CHAN < GJA_CHNLOW THEN DO;
      604     9333    2             ALTRETURN;
      605     9334    2           END;                            /* IF OUT OF RANGE          */
      606     9335    1        LVL1$ = PINCRW(GJA_CHNLOW$,SIZEW(CHANCTX)*(CHAN/128));
      607     9336    2        IF CHANCTX.CHNBIT0_9 = 0 THEN DO;
      608     9337    2             ALTRETURN;
      609     9338    2           END;                            /* IF NUM = 0               */
      610     9339    1        IF TERMID.LEV = %TERMINAL_ID_LEV_SUBSUBCHAN#
      611     9340    2        THEN DO;
      612     9341    2             TERMINAL_ID = TERMID;
      613     9342    2             TERMINAL_ID.TERM.SUBSUBDEVICE = 0;
      614     9343    2             TERMINAL_ID.LEV = %TERMINAL_ID_LEV_SUBCHAN#;
      615     9344    2             CALL GJA$GET_CHNTBL_PTR(TERMINAL_ID,LVL2$)
      616     9345    3             WHENALTRETURN DO;
      617     9346    4                  CALL GJA$BLD_CTX(TERMINAL_ID,LVL2$,'0'B) WHENALTRETURN DO;
      618     9347    4                       ALTRETURN;
      619     9348    4                     END;
      620     9349    3                END;
      621     9350    2           END;
      622     9351
      623     9352    1        SVLNK$ = ADDR(NIL);
      624     9353    1        SVSUB$ = ADDR(NIL);
      625     9354    1        CALL GJA$GET_CHNTBL_PTR(TERMID,NEW$)
      626     9355    2        WHENRETURN DO;
      627     9356    2             NEW = '0'B;
      628     9357    2             SVLNK$ = NEWCTX.LNK$;
      629     9358    2             SVSUB$ = NEWCTX.SUB$;
      630     9359    2           END;
      631     9360    2        WHENALTRETURN DO;
      632     9361    2             IF GJA_CHNFREE$ = ADDR(NIL) THEN
      633     9362    2                  ALTRETURN;
      634     9363    2             NEW = '1'B;
      635     9364    2             NEW$ = GJA_CHNFREE$;
PL6.E3A0      #005=GJA$BLD_CTX File=GJA$SUBS.:E05TSI                             TUE 07/29/97 21:55 Page:102
      636     9365    2             GJA_CHNFREE$ = NEWCTX.LNK$;
      637     9366    2           END;
      638     9367    1        NEWCTX = CTX_C;
      639     9368    1        TERMINAL_ID = TERMID;
      640     9369    1        IF TERMINAL_ID.LEV = %TERMINAL_ID_LEV_SUBCHAN#
      641     9370    1        THEN
      642     9371    1             TERMINAL_ID.TERM.SUBDEVICE = 0;
      643     9372    1        ELSE
      644     9373    1             TERMINAL_ID.TERM.SUBSUBDEVICE = 0;
      645     9374    1        CALL GJA$GET_CHNTBL_PTR(TERMINAL_ID,INIT$)
      646     9375    2        WHENRETURN DO;
      647     9376    2             NEWCTX = INIT$->CHANCTX;
      648     9377    2           END;
      649     9378    1        NEWCTX.LNK$ = SVLNK$;
      650     9379    1        NEWCTX.SUB$ = SVSUB$;
      651     9380    1        NEWCTX.HAND$ = CHANCTX.HAND$;
      652     9381    1        NEWCTX.SYSID = CHANCTX.SYSID;
      653     9382    1        NEWCTX.LINSPD = CHANCTX.LINSPD;
      654     9383    1        NEWCTX.AUTBAD = CHANCTX.AUTBAD;
      655     9384    1        NEWCTX.DRPDTR = CHANCTX.DRPDTR;
      656     9385    1        NEWCTX.BLOCK = CHANCTX.BLOCK;
      657     9386    1        NEWCTX.UNBLOCK = CHANCTX.UNBLOCK;
      658     9387    1        NEWCTX.TPTIMOUTPRD = CHANCTX.TPTIMOUTPRD;
      659     9388    1        NEWCTX.REDTIMOUTPRD = CHANCTX.REDTIMOUTPRD;
      660     9389    1        NEWCTX.LGNTIMOUTPRD = CHANCTX.LGNTIMOUTPRD;
      661     9390    1        IF NEW
      662     9391    2        THEN DO;
      663     9392
      664     9393                                           /* Figure out where to hang this block     */
      665     9394    3             IF TERMID.LEV = %TERMINAL_ID_LEV_SUBCHAN# THEN DO;
      666     9395    4                  IF CHANCTX.SUB$ = ADDR(NIL) THEN DO;
      667     9396    4                       CHANCTX.SUB$ = NEW$;
      668     9397    4                     END;                  /* IF SUB$ = ADDR(NIL)      */
      669     9398    4                  ELSE DO;                 /* Run the chain            */
      670     9399    4                       LVL2$ = CHANCTX.SUB$;
      671     9400    5                       DO WHILE(LVL2CTX.LNK$ ~= ADDR(NIL));
      672     9401    5                            LVL2$ = LVL2CTX.LNK$;
PL6.E3A0      #005=GJA$BLD_CTX File=GJA$SUBS.:E05TSI                             TUE 07/29/97 21:55 Page:103
      673     9402    5                          END;             /* DO WHILE                 */
      674     9403    4                       LVL2CTX.LNK$ = NEW$;
      675     9404    4                     END;                  /* ELSE                     */
      676     9405    3                  NEWCTX.CHNBIT0_9 = TERMID.TERM.SUBDEVICE;
      677     9406    3                END;                       /* IF LEV = SUBCHAN#        */
      678     9407    3             ELSE DO;                      /* It's a level 3           */
      679     9408    3                  LVL2$ = CHANCTX.SUB$;
      680     9409    3                  IF LVL2$ ~= ADDR(NIL)
      681     9410    3                  THEN NUM = LVL2CTX.TERMID.TERM.SUBDEVICE;
      682     9411    4                  DO WHILE(NUM ~= TERMID.TERM.SUBDEVICE AND LVL2$ ~= ADDR(NIL));
      683     9412    4                       LVL2$ = LVL2CTX.LNK$;
      684     9413    4                       IF LVL2$ ~= ADDR(NIL)
      685     9414    4                       THEN NUM = LVL2CTX.TERMID.TERM.SUBDEVICE;
      686     9415    4                     END;                  /* DO WHILE                 */
      687     9416    4                  IF LVL2$ = ADDR(NIL) THEN DO;
      688     9417    4                       ALTRETURN;
      689     9418    4                     END;                  /* IF LVL2$ = ADDR(NIL)     */
      690     9419    4                  IF LVL2CTX.SUB$ = ADDR(NIL) THEN DO;
      691     9420    4                       LVL2CTX.SUB$ = NEW$;
      692     9421    4                     END;                  /* IF SUB$ = ADDR(NIL)      */
      693     9422    4                  ELSE DO;                 /* Run the chain            */
      694     9423    4                       LVL3$ = LVL2CTX.SUB$;
      695     9424    5                       DO WHILE(LVL3CTX.LNK$ ~= ADDR(NIL));
      696     9425    5                            LVL3$ = LVL3CTX.LNK$;
      697     9426    5                          END;             /* DO WHILE                 */
      698     9427    4                       LVL3CTX.LNK$ = NEW$;
      699     9428    4                     END;                  /* ELSE                     */
      700     9429    3                  NEWCTX.CHNBIT0_9 = TERMID.TERM.SUBSUBDEVICE;
      701     9430    3                END;                       /* ELSE level 3             */
      702     9431    2           END;
      703     9432    1   DO_RQSCHN: ;
      704     9433    2        DO CASE (TERMID.LEV);
      705     9434
      706     9435    2        CASE (%TERMINAL_ID_LEV_SUBCHAN#);
      707     9436    2           NEWCTX.CHNBIT0_9 = TERMID.TERM.SUBDEVICE;
      708     9437
      709     9438    2        CASE (%TERMINAL_ID_LEV_SUBSUBCHAN#);
PL6.E3A0      #005=GJA$BLD_CTX File=GJA$SUBS.:E05TSI                             TUE 07/29/97 21:55 Page:104
      710     9439    2           NEWCTX.CHNBIT0_9 = TERMID.TERM.SUBSUBDEVICE;
      711     9440
      712     9441    2        END;
      713     9442    1        NEWCTX.TERMID = TERMID;
      714     9443    1        NEWCTX.STT = %KH#CHN_STT_DSB;
      715     9444    1        CTX$ = NEW$;
      716     9445
      717     9446    1        IF DORQSCHN
      718     9447    2        THEN DO;
      719     9448    2             RQSCHN = GJA_RQSCHN;
      720     9449    2             IF TERMID.TERM.TERM_NAME ~= ' ' THEN
      721     9450    3             DO;
      722     9451    3                  RQSCHN.TERMINAL_ID = TERMID;
      723     9452    3                  RQSCHN.TERMINAL_ID.TERM.TERM_NAME = ' ';
      724     9453    3                  RQSCHN.SCNDCNFG = '1'B;
      725     9454    3                  CALL GJA$NETWORK_MANAGER (RQSCHN,SIZEC(RQSCHN));
      726     9455    3                END;
      727     9456    2             RQSCHN = GJA_RQSCHN;
      728     9457    2             RQSCHN.TERMINAL_ID = TERMID;
      729     9458    2             RQSCHN.CONFIG = '1'B;
      730     9459    2             CALL GJA$NETWORK_MANAGER (RQSCHN,SIZEC(RQSCHN));
      731     9460    2           END;
      732     9461
      733     9462    1        RETURN;
      734     9463    1   END GJA$BLD_CTX;
      735     9464        %EOD;

PL6.E3A0      #005=GJA$BLD_CTX File=GJA$SUBS.:E05TSI                             TUE 07/29/97 21:55 Page:105
--  Include file information  --

   KL_AFCN_C.:E05TOU  is referenced.
   KL_MACRO_C.:E05TOU  is referenced.
   KH$CHN.:E05TOU  is referenced.
   CP_6_SUBS.:E05TOU  is referenced.
   G_LCP6_E.:E05TOU  is referenced.
   GT_LCP6_M.:E05TOU  is referenced.
   KI_CP6.:E05TOU  is referenced.
   GF_LCP6_M.:E05TOU  is referenced.
   GM_LCP6_M.:E05TOU  is referenced.
   GU_LCP6_M.:E05TOU  is referenced.
   GJ_LCP6_M.:E05TOU  is referenced.
   GH_LCP6_M.:E05TOU  is referenced.
   LCP_6.:E05TOU  cannot be made into a system file and is referenced.
      No diagnostics issued in procedure GJA$BLD_CTX.

   Procedure GJA$BLD_CTX requires 597 words for executable code.
   Procedure GJA$BLD_CTX requires 56 words of local(AUTO) storage.

PL6.E3A0      #005=GJA$BLD_CTX File=GJA$SUBS.:E05TSI                             TUE 07/29/97 21:55 Page:106

 Object Unit name= GJA$BLD_CTX                                File name= GJA$SUBS.:E05TOU
 UTS= JUL 29 '97 21:55:49.36 TUE                              Compiler= PL-6/E31         Sev=      00
 SharedLib= :SHARED_LCP6_SYSTEM                               Alt SharedLib=


    ****  Control sections  ****

 Sect   Type Bound  Init  Size HexSiz  Section name
    0  RoData even  UTS     32     20  GJA$BLD_CTX
    1   Proc  even  none   597    255  GJA$BLD_CTX
    2  RoData even  none     1      1  GJA$BLD_CTX

    ****  Entry defs  ****

                              Check   Calling
                             calling  sequence
  Sect HexLoc Primary Altret sequence   type   Parms  Name
     1      0   yes    yes     yes      Std        3  GJA$BLD_CTX

  ****  Entry refs  ****

         Check        Calling
        calling       sequence
Altret sequence SRef   type   Args  Name
 yes     yes           Std       2 GJA$GET_CHNTBL_PTR
 yes     yes           Std       2 GJA$NETWORK_MANAGER
                       nStd      0 X6A_AUTO_3
                       nStd      0 X6A_AALT
                       nStd      0 X6C_ALRZ
                       nStd      0 X6A_ARET
PL6.E3A0      #005=GJA$BLD_CTX File=GJA$SUBS.:E05TSI                             TUE 07/29/97 21:55 Page:107

  ****  Data refs  ****

  Flags:  r = read only, s = secondary
Flgs Name                             Flgs Name                             Flgs Name
     GJA_RQSCHN                            GJA_CHNFREE$                          GJA_CHNLOW
     GJA_CHNHI                             GJA_CHNLOW$                      r    G$ROS$
PL6.E3A0      #005=GJA$BLD_CTX File=GJA$SUBS.:E05TSI                             TUE 07/29/97 21:55 Page:108


      536        1        /*T***********************************************************/
      537        2        /*T*                                                         */
      538        3        /*T* Copyright (c) Bull HN Information Systems Inc., 1997    */
      539        4        /*T*                                                         */
      540        5        /*T***********************************************************/
      541        6        /*F* NAME:  GJA$BLD_CTX
      542        7             PURPOSE: This routine is called to build a new context block for
      543        8                      a specified terminal id.  The new context block is linked
      544        9                      into the context chains.  Then we send a KL_LINPROINFO
      545       10                      message to Node Admin to inform him of the new element.
      546       11             DESCRIPTION:  This routine uses the info in the TERMID portion
      547       12                           of the message to determine where to hang the new
      548       13                           context block.  Then we do a RQSCNFG to get the CONFIG
      549       14                           info for the specified termid.
      550       15             CALL:   CALL GJA$BLD_CTX(TERMID,CTX$,DORQSCHN) ALTRET(label);
      551       16             INPUT:  TERMID - The termid we want to build context for.  See the
      552       17                              B$TERMINAL_ID macro in KL_MACRO_C.
      553       18             OUTPUT: CTX$ - The pointer to the KH$CHN structure that was just inserted
      554       19                            into the chains.
      555       20                                                                                      */
      556       21        GJA$BLD_CTX: PROC(TERMID,CTX$,DORQSCHN) ALTRET;

     21   1 000000  D380 0000 0000  xent GJA$BLD_CTX     LNJ,B5   X6A_AUTO_3
          1 000003       0038 0003                       DC       56,3

      557       22        /**/
      558       23        %INCLUDE LCP_6;
      559     4302        %INCLUDE CP_6_SUBS;
      560     4842        %INCLUDE KH$CHN;
      561     4964        %INCLUDE KL_MACRO_C;
      562     8316        %INCLUDE KL_AFCN_C;
      563     8417        /**/
      564     8418        %B$TERMINAL_ID (FPTN=TERMID,STCLASS=PARAM,ALGN=ALIGNED);
      565     8447    1   DCL CTX$ PTR;
      566     8448    1   DCL DORQSCHN BIT(1) ALIGNED;
      567     8449        /**/
PL6.E3A0      #005=GJA$BLD_CTX File=GJA$SUBS.:E05TSI                             TUE 07/29/97 21:55 Page:109
      568     8450    1   DCL GJA$GET_CHNTBL_PTR ENTRY(2) ALTRET;
      569     8451    1   DCL GJA$NETWORK_MANAGER ENTRY(2) ALTRET;
      570     8452        /**/
      571     8453        %KH$CHN (NAME=CHANCTX,STCLASS="BASED(LVL1$)");
      572     8577        %KH$CHN (NAME=LVL2CTX,STCLASS="BASED(LVL2$)");
      573     8701        %KH$CHN (NAME=LVL3CTX,STCLASS="BASED(LVL3$)");
      574     8825        %KH$CHN (NAME=NEWCTX,STCLASS="BASED(NEW$)");
      575     8949        %KH$CHN (NAME=CTX_C,STCLASS=CONSTANT);
      576     9073        /**/
      577     9074    1   DCL NEW$ PTR;
      578     9075    1   DCL NEW BIT(1);
      579     9076    1   DCL INIT$ PTR;
      580     9077    1   DCL SVLNK$ PTR;
      581     9078    1   DCL SVSUB$ PTR;
      582     9079        %B$TERMINAL_ID (FPTN=TERMINAL_ID,STCLASS=AUTO,ALGN=ALIGNED);
      583     9108    1   DCL LVL1$ PTR;
      584     9109    1   DCL LVL2$ PTR;
      585     9110    1   DCL LVL3$ PTR;
      586     9111    1   DCL CHAN UBIN;
      587     9112    1   DCL NUM UBIN;
      588     9113        %KL_RQSCHN (FPTN=RQSCHN,STCLASS=AUTO);
      589     9216        /**/
      590     9217        /**/
      591     9218        %KL_RQSCHN (FPTN=GJA_RQSCHN,STCLASS=SYMREF);
      592     9321    1   DCL GJA_CHNFREE$ PTR SYMREF;
      593     9322    1   DCL GJA_CHNLOW UBIN SYMREF;
      594     9323    1   DCL GJA_CHNHI UBIN SYMREF;
      595     9324    1   DCL GJA_CHNLOW$ PTR SYMREF;
      596     9325    1   DCL GJA_UID_NM UBIN(32) SYMREF;
      597     9326
      598     9327        %EJECT;
PL6.E3A0      #005=GJA$BLD_CTX File=GJA$SUBS.:E05TSI                             TUE 07/29/97 21:55 Page:110
      599     9328    1        CTX$ = ADDR(NIL);

   9328   1 000005  EB80 0000 0000                       LAB,B6   0
          1 000008  DCC7 0006                            LDB,B5   @CTX$,AUTO
          1 00000A  EF85                                 STB,B6   ,B5

      600     9329    1        IF TERMID.LEV = %TERMINAL_ID_LEV_CHAN#

   9329   1 00000B  CCC7 0004                            LDB,B4   @TERMID,AUTO
          1 00000D  E804                                 LDR,R6   ,B4
          1 00000E  E570 00FF                            AND,R6   255,IMO
          1 000010  6D01                                 CMV,R6   1
          1 000011  0981 0004                            BNE      s:9331,PREL

      601     9330    1        THEN ALTRETURN;

   9330   1 000013  C380 0000 0000  xent                 LNJ,B4   X6A_AALT

      602     9331    1        CHAN = TERMID.TERM.CHANNEL;

   9331   1 000016  D844 0001                            LDR,R5   1,B4
          1 000018  DF47 0021                            STR,R5   CHAN,AUTO

      603     9332    2        IF CHAN > GJA_CHNHI OR CHAN < GJA_CHNLOW THEN DO;

   9332   1 00001A  D900 0000 0000  xsym                 CMR,R5   GJA_CHNHI
          1 00001D  0301 0006                            BG       s:9333,PREL
          1 00001F  D900 0000 0000  xsym                 CMR,R5   GJA_CHNLOW
          1 000022  0281 0004                            BGE      s:9335,PREL

      604     9333    2             ALTRETURN;

   9333   1 000024  C380 0000 0000  xent                 LNJ,B4   X6A_AALT

      605     9334    2           END;                            /* IF OUT OF RANGE          */
      606     9335    1        LVL1$ = PINCRW(GJA_CHNLOW$,SIZEW(CHANCTX)*(CHAN/128));

PL6.E3A0      #005=GJA$BLD_CTX File=GJA$SUBS.:E05TSI                             TUE 07/29/97 21:55 Page:111
   9335   1 000027  5047                                 SOR,R5   7
          1 000028  F855                                 LDR,R7   R5
          1 000029  6C00                                 LDV,R6   0
          1 00002A  7085                                 DOL,R7   5
          1 00002B  8400 0000 0000  xsym                 AID      GJA_CHNLOW$
          1 00002E  8D47 001B                            SDI      LVL1$,AUTO

      607     9336    2        IF CHANCTX.CHNBIT0_9 = 0 THEN DO;

   9336   1 000030  BCC7 001B                            LDB,B3   LVL1$,AUTO
          1 000032  8283                                 LB,'FFC0'X        ,B3
          1 000033       FFC0
          1 000034  0501 0004                            BBT      s:9339,PREL

      608     9337    2             ALTRETURN;

   9337   1 000036  C380 0000 0000  xent                 LNJ,B4   X6A_AALT

      609     9338    2           END;                            /* IF NUM = 0               */
      610     9339    1        IF TERMID.LEV = %TERMINAL_ID_LEV_SUBSUBCHAN#

   9339   1 000039  D804                                 LDR,R5   ,B4
          1 00003A  D570 00FF                            AND,R5   255,IMO
          1 00003C  5D03                                 CMV,R5   3
          1 00003D  0981 0037                            BNE      s:9352,PREL

      611     9340    2        THEN DO;

      612     9341    2             TERMINAL_ID = TERMID;

   9341   1 00003F  AB84                                 LAB,B2   ,B4
          1 000040  2C00                                 LDV,R2   0
          1 000041  6C10                                 LDV,R6   16
          1 000042  BB87                                 LAB,B3   ,AUTO
          1 000043  3C26                                 LDV,R3   38
          1 000044  0008                                 MMM

PL6.E3A0      #005=GJA$BLD_CTX File=GJA$SUBS.:E05TSI                             TUE 07/29/97 21:55 Page:112
      613     9342    2             TERMINAL_ID.TERM.SUBSUBDEVICE = 0;

   9342   1 000045  8747 0016                            CL       TERMINAL_ID+3,AUTO

      614     9343    2             TERMINAL_ID.LEV = %TERMINAL_ID_LEV_SUBCHAN#;

   9343   1 000047  6C02                                 LDV,R6   2
          1 000048  EAC7 0013                            SRM,R6,'00FF'X    TERMINAL_ID,AUTO
          1 00004A       00FF

      615     9344    2             CALL GJA$GET_CHNTBL_PTR(TERMINAL_ID,LVL2$)

   9344   1 00004B  EBC7 001D                            LAB,B6   LVL2$,AUTO
          1 00004D  EFC7 0034                            STB,B6   RQSCHN+17,AUTO
          1 00004F  9BC7 0013                            LAB,B1   TERMINAL_ID,AUTO
          1 000051  9FC7 0032                            STB,B1   RQSCHN+15,AUTO
          1 000053  BBC7 0032                            LAB,B3   RQSCHN+15,AUTO
          1 000055  CBF0 0200                            LAB,B4   512,IMO
          1 000057  E380 0000 0000  xent                 LNJ,B6   GJA$GET_CHNTBL_PTR
          1 00005A       0003                            DC       s:9346,PREL
          1 00005B  0F81 0019                            B        s:9352,PREL

      616     9345    3             WHENALTRETURN DO;

      617     9346    4                  CALL GJA$BLD_CTX(TERMINAL_ID,LVL2$,'0'B) WHENALTRETURN DO;

   9346   1 00005D  EBF0 0000                            LAB,B6   0,IMO
          1 00005F  EFC7 0036                            STB,B6   RQSCHN+19,AUTO
          1 000061  DBC7 001D                            LAB,B5   LVL2$,AUTO
          1 000063  DFC7 0034                            STB,B5   RQSCHN+17,AUTO
          1 000065  CBC7 0013                            LAB,B4   TERMINAL_ID,AUTO
          1 000067  CFC7 0032                            STB,B4   RQSCHN+15,AUTO
          1 000069  BBC7 0032                            LAB,B3   RQSCHN+15,AUTO
          1 00006B  CBF0 0300                            LAB,B4   768,IMO
          1 00006D  E3C0 FF92                            LNJ,B6   s:21,PREL
          1 00006F       0003                            DC       s:9347,PREL
          1 000070  0F81 0004                            B        s:9352,PREL
PL6.E3A0      #005=GJA$BLD_CTX File=GJA$SUBS.:E05TSI                             TUE 07/29/97 21:55 Page:113

      618     9347    4                       ALTRETURN;

   9347   1 000072  C380 0000 0000  xent                 LNJ,B4   X6A_AALT

      619     9348    4                     END;
      620     9349    3                END;

      621     9350    2           END;

      622     9351
      623     9352    1        SVLNK$ = ADDR(NIL);

   9352   1 000075  EB80 0000 0000                       LAB,B6   0
          1 000078  EFC7 000F                            STB,B6   SVLNK$,AUTO

      624     9353    1        SVSUB$ = ADDR(NIL);

   9353   1 00007A  DB80 0000 0000                       LAB,B5   0
          1 00007D  DFC7 0011                            STB,B5   SVSUB$,AUTO

      625     9354    1        CALL GJA$GET_CHNTBL_PTR(TERMID,NEW$)

   9354   1 00007F  CBC7 000A                            LAB,B4   NEW$,AUTO
          1 000081  CFC7 0034                            STB,B4   RQSCHN+17,AUTO
          1 000083  BCC7 0004                            LDB,B3   @TERMID,AUTO
          1 000085  BFC7 0032                            STB,B3   RQSCHN+15,AUTO
          1 000087  BBC7 0032                            LAB,B3   RQSCHN+15,AUTO
          1 000089  CBF0 0200                            LAB,B4   512,IMO
          1 00008B  E380 0000 0000  xent                 LNJ,B6   GJA$GET_CHNTBL_PTR
          1 00008E       000F                            DC       s:9361,PREL

      626     9355    2        WHENRETURN DO;

      627     9356    2             NEW = '0'B;

   9356   1 00008F  8747 000C                            CL       NEW,AUTO
PL6.E3A0      #005=GJA$BLD_CTX File=GJA$SUBS.:E05TSI                             TUE 07/29/97 21:55 Page:114

      628     9357    2             SVLNK$ = NEWCTX.LNK$;

   9357   1 000091  ECC7 000A                            LDB,B6   NEW$,AUTO
          1 000093  DCC6 001C                            LDB,B5   28,B6
          1 000095  DFC7 000F                            STB,B5   SVLNK$,AUTO

      629     9358    2             SVSUB$ = NEWCTX.SUB$;

   9358   1 000097  CCC6 001A                            LDB,B4   26,B6
          1 000099  CFC7 0011                            STB,B4   SVSUB$,AUTO

      630     9359    2           END;

   9359   1 00009B  0F81 0016                            B        s:9367,PREL

      631     9360    2        WHENALTRETURN DO;

      632     9361    2             IF GJA_CHNFREE$ = ADDR(NIL) THEN

   9361   1 00009D  8D80 0000 0000  xsym                 CMN      GJA_CHNFREE$
          1 0000A0  0981 0004                            BNE      s:9363,PREL

      633     9362    2                  ALTRETURN;

   9362   1 0000A2  C380 0000 0000  xent                 LNJ,B4   X6A_AALT

      634     9363    2             NEW = '1'B;

   9363   1 0000A5  8947 000C                            LBT,'8000'X       NEW,AUTO
   9363   1 0000A7       8000

      635     9364    2             NEW$ = GJA_CHNFREE$;

   9364   1 0000A8  EC80 0000 0000  xsym                 LDB,B6   GJA_CHNFREE$
          1 0000AB  EFC7 000A                            STB,B6   NEW$,AUTO

PL6.E3A0      #005=GJA$BLD_CTX File=GJA$SUBS.:E05TSI                             TUE 07/29/97 21:55 Page:115
      636     9365    2             GJA_CHNFREE$ = NEWCTX.LNK$;

   9365   1 0000AD  DCC6 001C                            LDB,B5   28,B6
          1 0000AF  DF80 0000 0000  xsym                 STB,B5   GJA_CHNFREE$

      637     9366    2           END;

      638     9367    1        NEWCTX = CTX_C;

   9367   1 0000B2  AB80 0000 0000  00                   LAB,B2   CTX_C
          1 0000B5  2C00                                 LDV,R2   0
          1 0000B6  6C40                                 LDV,R6   64
          1 0000B7  BB86                                 LAB,B3   ,B6
          1 0000B8  3C00                                 LDV,R3   0
          1 0000B9  0008                                 MMM

      639     9368    1        TERMINAL_ID = TERMID;

   9368   1 0000BA  ACC7 0004                            LDB,B2   @TERMID,AUTO
          1 0000BC  2C00                                 LDV,R2   0
          1 0000BD  6C10                                 LDV,R6   16
          1 0000BE  BB87                                 LAB,B3   ,AUTO
          1 0000BF  3C26                                 LDV,R3   38
          1 0000C0  0008                                 MMM

      640     9369    1        IF TERMINAL_ID.LEV = %TERMINAL_ID_LEV_SUBCHAN#

   9369   1 0000C1  E847 0013                            LDR,R6   TERMINAL_ID,AUTO
          1 0000C3  E570 00FF                            AND,R6   255,IMO
          1 0000C5  6D02                                 CMV,R6   2
          1 0000C6  0981 0005                            BNE      s:9373,PREL

      641     9370    1        THEN
      642     9371    1             TERMINAL_ID.TERM.SUBDEVICE = 0;

   9371   1 0000C8  8747 0015                            CL       TERMINAL_ID+2,AUTO
          1 0000CA  0F81 0003                            B        s:9374,PREL
PL6.E3A0      #005=GJA$BLD_CTX File=GJA$SUBS.:E05TSI                             TUE 07/29/97 21:55 Page:116

      643     9372    1        ELSE
      644     9373    1             TERMINAL_ID.TERM.SUBSUBDEVICE = 0;

   9373   1 0000CC  8747 0016                            CL       TERMINAL_ID+3,AUTO

      645     9374    1        CALL GJA$GET_CHNTBL_PTR(TERMINAL_ID,INIT$)

   9374   1 0000CE  DBC7 000D                            LAB,B5   INIT$,AUTO
          1 0000D0  DFC7 0034                            STB,B5   RQSCHN+17,AUTO
          1 0000D2  CBC7 0013                            LAB,B4   TERMINAL_ID,AUTO
          1 0000D4  CFC7 0032                            STB,B4   RQSCHN+15,AUTO
          1 0000D6  BBC7 0032                            LAB,B3   RQSCHN+15,AUTO
          1 0000D8  CBF0 0200                            LAB,B4   512,IMO
          1 0000DA  E380 0000 0000  xent                 LNJ,B6   GJA$GET_CHNTBL_PTR
          1 0000DD       0009                            DC       s:9378,PREL

      646     9375    2        WHENRETURN DO;

      647     9376    2             NEWCTX = INIT$->CHANCTX;

   9376   1 0000DE  ACC7 000D                            LDB,B2   INIT$,AUTO
          1 0000E0  2C00                                 LDV,R2   0
          1 0000E1  6C40                                 LDV,R6   64
          1 0000E2  BCC7 000A                            LDB,B3   NEW$,AUTO
          1 0000E4  3C00                                 LDV,R3   0
          1 0000E5  0008                                 MMM

      648     9377    2           END;

      649     9378    1        NEWCTX.LNK$ = SVLNK$;

   9378   1 0000E6  ECC7 000F                            LDB,B6   SVLNK$,AUTO
          1 0000E8  DCC7 000A                            LDB,B5   NEW$,AUTO
          1 0000EA  EFC5 001C                            STB,B6   28,B5

      650     9379    1        NEWCTX.SUB$ = SVSUB$;
PL6.E3A0      #005=GJA$BLD_CTX File=GJA$SUBS.:E05TSI                             TUE 07/29/97 21:55 Page:117

   9379   1 0000EC  CCC7 0011                            LDB,B4   SVSUB$,AUTO
          1 0000EE  CFC5 001A                            STB,B4   26,B5

      651     9380    1        NEWCTX.HAND$ = CHANCTX.HAND$;

   9380   1 0000F0  BCC7 001B                            LDB,B3   LVL1$,AUTO
          1 0000F2  ACC3 001E                            LDB,B2   30,B3
          1 0000F4  AFC5 001E                            STB,B2   30,B5

      652     9381    1        NEWCTX.SYSID = CHANCTX.SYSID;

   9381   1 0000F6  E843 0006                            LDR,R6   6,B3
          1 0000F8  EF45 0006                            STR,R6   6,B5

      653     9382    1        NEWCTX.LINSPD = CHANCTX.LINSPD;

   9382   1 0000FA  DCC7 000A                            LDB,B5   NEW$,AUTO
          1 0000FC  E843 0008                            LDR,R6   8,B3
          1 0000FE  EAC5 0008                            SRM,R6,'000F'X    8,B5
          1 000100       000F

      654     9383    1        NEWCTX.AUTBAD = CHANCTX.AUTBAD;

   9383   1 000101  E843 0008                            LDR,R6   8,B3
          1 000103  DCC7 000A                            LDB,B5   NEW$,AUTO
          1 000105  EAC5 0008                            SRM,R6,'0010'X    8,B5
          1 000107       0010

      655     9384    1        NEWCTX.DRPDTR = CHANCTX.DRPDTR;

   9384   1 000108  E843 0008                            LDR,R6   8,B3
          1 00010A  DCC7 000A                            LDB,B5   NEW$,AUTO
          1 00010C  EAC5 0008                            SRM,R6,'0020'X    8,B5
          1 00010E       0020

      656     9385    1        NEWCTX.BLOCK = CHANCTX.BLOCK;
PL6.E3A0      #005=GJA$BLD_CTX File=GJA$SUBS.:E05TSI                             TUE 07/29/97 21:55 Page:118

   9385   1 00010F  DCC7 000A                            LDB,B5   NEW$,AUTO
          1 000111  E843 0010                            LDR,R6   16,B3
          1 000113  EF45 0010                            STR,R6   16,B5

      657     9386    1        NEWCTX.UNBLOCK = CHANCTX.UNBLOCK;

   9386   1 000115  D843 0011                            LDR,R5   17,B3
          1 000117  DF45 0011                            STR,R5   17,B5

      658     9387    1        NEWCTX.TPTIMOUTPRD = CHANCTX.TPTIMOUTPRD;

   9387   1 000119  C843 000A                            LDR,R4   10,B3
          1 00011B  CAC5 000A                            SRM,R4,'00FF'X    10,B5
          1 00011D       00FF

      659     9388    1        NEWCTX.REDTIMOUTPRD = CHANCTX.REDTIMOUTPRD;

   9388   1 00011E  DCC7 000A                            LDB,B5   NEW$,AUTO
          1 000120  E843 0009                            LDR,R6   9,B3
          1 000122  EAC5 0009                            SRM,R6,'00FF'X    9,B5
          1 000124       00FF

      660     9389    1        NEWCTX.LGNTIMOUTPRD = CHANCTX.LGNTIMOUTPRD;

   9389   1 000125  E2C3 000A                            LLH,R6   10,B3
          1 000127  DCC7 000A                            LDB,B5   NEW$,AUTO
          1 000129  E7C5 000A                            STH,R6   10,B5

      661     9390    1        IF NEW

   9390   1 00012B  89C7 000C                            CMZ      NEW,AUTO
          1 00012D  0881 008B                            BAGE     s:9431,PREL

      662     9391    2        THEN DO;

      663     9392
PL6.E3A0      #005=GJA$BLD_CTX File=GJA$SUBS.:E05TSI                             TUE 07/29/97 21:55 Page:119
      664     9393                                           /* Figure out where to hang this block     */
      665     9394    3             IF TERMID.LEV = %TERMINAL_ID_LEV_SUBCHAN# THEN DO;

   9394   1 00012F  DCC7 0004                            LDB,B5   @TERMID,AUTO
          1 000131  E805                                 LDR,R6   ,B5
          1 000132  E570 00FF                            AND,R6   255,IMO
          1 000134  6D02                                 CMV,R6   2
          1 000135  0981 002B                            BNE      s:9408,PREL

      666     9395    4                  IF CHANCTX.SUB$ = ADDR(NIL) THEN DO;

   9395   1 000137  8DC3 001A                            CMN      26,B3
          1 000139  0981 0007                            BNE      s:9399,PREL

      667     9396    4                       CHANCTX.SUB$ = NEW$;

   9396   1 00013B  ACC7 000A                            LDB,B2   NEW$,AUTO
          1 00013D  AFC3 001A                            STB,B2   26,B3

      668     9397    4                     END;                  /* IF SUB$ = ADDR(NIL)      */

   9397   1 00013F  0F81 0016                            B        s:9405,PREL

      669     9398    4                  ELSE DO;                 /* Run the chain            */

      670     9399    4                       LVL2$ = CHANCTX.SUB$;

   9399   1 000141  ACC3 001A                            LDB,B2   26,B3
          1 000143  AFC7 001D                            STB,B2   LVL2$,AUTO

      671     9400    5                       DO WHILE(LVL2CTX.LNK$ ~= ADDR(NIL));

   9400   1 000145  0F81 0007                            B        s:9402,PREL

      672     9401    5                            LVL2$ = LVL2CTX.LNK$;

   9401   1 000147  ECC7 001D                            LDB,B6   LVL2$,AUTO
PL6.E3A0      #005=GJA$BLD_CTX File=GJA$SUBS.:E05TSI                             TUE 07/29/97 21:55 Page:120
          1 000149  DCC6 001C                            LDB,B5   28,B6
          1 00014B  DFC7 001D                            STB,B5   LVL2$,AUTO

      673     9402    5                          END;             /* DO WHILE                 */

   9402   1 00014D  ECC7 001D                            LDB,B6   LVL2$,AUTO
          1 00014F  8DC6 001C                            CMN      28,B6
          1 000151  09F6                                 BNE      s:9401,SPREL

      674     9403    4                       LVL2CTX.LNK$ = NEW$;

   9403   1 000152  DCC7 000A                            LDB,B5   NEW$,AUTO
          1 000154  DFC6 001C                            STB,B5   28,B6

      675     9404    4                     END;                  /* ELSE                     */

      676     9405    3                  NEWCTX.CHNBIT0_9 = TERMID.TERM.SUBDEVICE;

   9405   1 000156  ECC7 0004                            LDB,B6   @TERMID,AUTO
          1 000158  E846 0002                            LDR,R6   2,B6
          1 00015A  6006                                 SOL,R6   6
          1 00015B  DCC7 000A                            LDB,B5   NEW$,AUTO
          1 00015D  EA85                                 SRM,R6,'FFC0'X    ,B5
          1 00015E       FFC0

      677     9406    3                END;                       /* IF LEV = SUBCHAN#        */

   9406   1 00015F  0F81 0059                            B        s:9431,PREL

      678     9407    3             ELSE DO;                      /* It's a level 3           */

      679     9408    3                  LVL2$ = CHANCTX.SUB$;

   9408   1 000161  ACC3 001A                            LDB,B2   26,B3
          1 000163  AFC7 001D                            STB,B2   LVL2$,AUTO

      680     9409    3                  IF LVL2$ ~= ADDR(NIL)
PL6.E3A0      #005=GJA$BLD_CTX File=GJA$SUBS.:E05TSI                             TUE 07/29/97 21:55 Page:121

   9409   1 000165  8DC7 001D                            CMN      LVL2$,AUTO
          1 000167  0901 0005                            BE       s:9411,PREL

      681     9410    3                  THEN NUM = LVL2CTX.TERMID.TERM.SUBDEVICE;

   9410   1 000169  E842 0014                            LDR,R6   20,B2
          1 00016B  EF47 0022                            STR,R6   NUM,AUTO

      682     9411    4                  DO WHILE(NUM ~= TERMID.TERM.SUBDEVICE AND LVL2$ ~= ADDR(NIL));

   9411   1 00016D  0F81 000F                            B        s:9415,PREL

      683     9412    4                       LVL2$ = LVL2CTX.LNK$;

   9412   1 00016F  ECC7 001D                            LDB,B6   LVL2$,AUTO
          1 000171  DCC6 001C                            LDB,B5   28,B6
          1 000173  DFC7 001D                            STB,B5   LVL2$,AUTO

      684     9413    4                       IF LVL2$ ~= ADDR(NIL)

   9413   1 000175  8DC7 001D                            CMN      LVL2$,AUTO
          1 000177  0901 0005                            BE       s:9415,PREL

      685     9414    4                       THEN NUM = LVL2CTX.TERMID.TERM.SUBDEVICE;

   9414   1 000179  E845 0014                            LDR,R6   20,B5
          1 00017B  EF47 0022                            STR,R6   NUM,AUTO

      686     9415    4                     END;                  /* DO WHILE                 */

   9415   1 00017D  ECC7 0004                            LDB,B6   @TERMID,AUTO
          1 00017F  E847 0022                            LDR,R6   NUM,AUTO
          1 000181  E946 0002                            CMR,R6   2,B6
          1 000183  0901 0004                            BE       s:9416,PREL
          1 000185  8DC7 001D                            CMN      LVL2$,AUTO
          1 000187  09E8                                 BNE      s:9412,SPREL
PL6.E3A0      #005=GJA$BLD_CTX File=GJA$SUBS.:E05TSI                             TUE 07/29/97 21:55 Page:122

      687     9416    4                  IF LVL2$ = ADDR(NIL) THEN DO;

   9416   1 000188  8DC7 001D                            CMN      LVL2$,AUTO
          1 00018A  0981 0004                            BNE      s:9419,PREL

      688     9417    4                       ALTRETURN;

   9417   1 00018C  C380 0000 0000  xent                 LNJ,B4   X6A_AALT

      689     9418    4                     END;                  /* IF LVL2$ = ADDR(NIL)     */
      690     9419    4                  IF LVL2CTX.SUB$ = ADDR(NIL) THEN DO;

   9419   1 00018F  DCC7 001D                            LDB,B5   LVL2$,AUTO
          1 000191  8DC5 001A                            CMN      26,B5
          1 000193  0981 0007                            BNE      s:9423,PREL

      691     9420    4                       LVL2CTX.SUB$ = NEW$;

   9420   1 000195  CCC7 000A                            LDB,B4   NEW$,AUTO
          1 000197  CFC5 001A                            STB,B4   26,B5

      692     9421    4                     END;                  /* IF SUB$ = ADDR(NIL)      */

   9421   1 000199  0F81 0016                            B        s:9429,PREL

      693     9422    4                  ELSE DO;                 /* Run the chain            */

      694     9423    4                       LVL3$ = LVL2CTX.SUB$;

   9423   1 00019B  CCC5 001A                            LDB,B4   26,B5
          1 00019D  CFC7 001F                            STB,B4   LVL3$,AUTO

      695     9424    5                       DO WHILE(LVL3CTX.LNK$ ~= ADDR(NIL));

   9424   1 00019F  0F81 0007                            B        s:9426,PREL

PL6.E3A0      #005=GJA$BLD_CTX File=GJA$SUBS.:E05TSI                             TUE 07/29/97 21:55 Page:123
      696     9425    5                            LVL3$ = LVL3CTX.LNK$;

   9425   1 0001A1  ECC7 001F                            LDB,B6   LVL3$,AUTO
          1 0001A3  DCC6 001C                            LDB,B5   28,B6
          1 0001A5  DFC7 001F                            STB,B5   LVL3$,AUTO

      697     9426    5                          END;             /* DO WHILE                 */

   9426   1 0001A7  ECC7 001F                            LDB,B6   LVL3$,AUTO
          1 0001A9  8DC6 001C                            CMN      28,B6
          1 0001AB  09F6                                 BNE      s:9425,SPREL

      698     9427    4                       LVL3CTX.LNK$ = NEW$;

   9427   1 0001AC  DCC7 000A                            LDB,B5   NEW$,AUTO
          1 0001AE  DFC6 001C                            STB,B5   28,B6

      699     9428    4                     END;                  /* ELSE                     */

      700     9429    3                  NEWCTX.CHNBIT0_9 = TERMID.TERM.SUBSUBDEVICE;

   9429   1 0001B0  ECC7 0004                            LDB,B6   @TERMID,AUTO
          1 0001B2  E846 0003                            LDR,R6   3,B6
          1 0001B4  6006                                 SOL,R6   6
          1 0001B5  DCC7 000A                            LDB,B5   NEW$,AUTO
          1 0001B7  EA85                                 SRM,R6,'FFC0'X    ,B5
          1 0001B8       FFC0

      701     9430    3                END;                       /* ELSE level 3             */

      702     9431    2           END;

   9424   1                              DO_RQSCHN       null
      703     9432    1   DO_RQSCHN: ;
      704     9433    2        DO CASE (TERMID.LEV);

   9433   1 0001B9  ECC7 0004            DO_RQSCHN       LDB,B6   @TERMID,AUTO
PL6.E3A0      #005=GJA$BLD_CTX File=GJA$SUBS.:E05TSI                             TUE 07/29/97 21:55 Page:124
          1 0001BB  B806                                 LDR,R3   ,B6
          1 0001BC  B570 00FF                            AND,R3   255,IMO
          1 0001BE  3D04                                 CMV,R3   4
          1 0001BF  0281 001B                            BGE      s:9442,PREL
          1 0001C1  A830 0000 01C7  01                   LDR,R2   DO_RQSCHN+14,R3
          1 0001C4  83A0 0000 01CB  01                   JMP      s:9436,R2
          1 0001C7       0010                            DC       s:9442,PREL
          1 0001C8       0010                            DC       s:9442,PREL
          1 0001C9       0000                            DC       s:9436,PREL
          1 0001CA       0009                            DC       s:9439,PREL

      705     9434
      706     9435    2        CASE (%TERMINAL_ID_LEV_SUBCHAN#);

      707     9436    2           NEWCTX.CHNBIT0_9 = TERMID.TERM.SUBDEVICE;

   9436   1 0001CB  E846 0002                            LDR,R6   2,B6
          1 0001CD  6006                                 SOL,R6   6
          1 0001CE  DCC7 000A                            LDB,B5   NEW$,AUTO
          1 0001D0  EA85                                 SRM,R6,'FFC0'X    ,B5
          1 0001D1       FFC0
          1 0001D2  0F81 0008                            B        s:9442,PREL

      708     9437
      709     9438    2        CASE (%TERMINAL_ID_LEV_SUBSUBCHAN#);

      710     9439    2           NEWCTX.CHNBIT0_9 = TERMID.TERM.SUBSUBDEVICE;

   9439   1 0001D4  E846 0003                            LDR,R6   3,B6
          1 0001D6  6006                                 SOL,R6   6
          1 0001D7  DCC7 000A                            LDB,B5   NEW$,AUTO
          1 0001D9  EA85                                 SRM,R6,'FFC0'X    ,B5
          1 0001DA       FFC0

      711     9440
      712     9441    2        END;

PL6.E3A0      #005=GJA$BLD_CTX File=GJA$SUBS.:E05TSI                             TUE 07/29/97 21:55 Page:125
      713     9442    1        NEWCTX.TERMID = TERMID;

   9442   1 0001DB  AB86                                 LAB,B2   ,B6
          1 0001DC  2C00                                 LDV,R2   0
          1 0001DD  6C10                                 LDV,R6   16
          1 0001DE  BCC7 000A                            LDB,B3   NEW$,AUTO
          1 0001E0  3C24                                 LDV,R3   36
          1 0001E1  0008                                 MMM

      714     9443    1        NEWCTX.STT = %KH#CHN_STT_DSB;

   9443   1 0001E2  6C04                                 LDV,R6   4
          1 0001E3  DCC7 000A                            LDB,B5   NEW$,AUTO
          1 0001E5  E7C5 0001                            STH,R6   1,B5

      715     9444    1        CTX$ = NEW$;

   9444   1 0001E7  DCC7 000A                            LDB,B5   NEW$,AUTO
          1 0001E9  CCC7 0006                            LDB,B4   @CTX$,AUTO
          1 0001EB  DF84                                 STB,B5   ,B4

      716     9445
      717     9446    1        IF DORQSCHN

   9446   1 0001EC  BCC7 0008                            LDB,B3   @DORQSCHN,AUTO
          1 0001EE  8983                                 CMZ      ,B3
          1 0001EF  0881 0062                            BAGE     s:9462,PREL

      718     9447    2        THEN DO;

      719     9448    2             RQSCHN = GJA_RQSCHN;

   9448   1 0001F1  AB80 0000 0000  xsym                 LAB,B2   GJA_RQSCHN
          1 0001F4  2C00                                 LDV,R2   0
          1 0001F5  E280 0000 000D  xsym                 LLH,R6   GJA_RQSCHN+13
          1 0001F8  6E1B                                 ADV,R6   27
          1 0001F9  BB87                                 LAB,B3   ,AUTO
PL6.E3A0      #005=GJA$BLD_CTX File=GJA$SUBS.:E05TSI                             TUE 07/29/97 21:55 Page:126
          1 0001FA  3C46                                 LDV,R3   70
          1 0001FB  7C1C                                 LDV,R7   28
          1 0001FC  D380 0000 0000  xent                 LNJ,B5   X6C_ALRZ

      720     9449    2             IF TERMID.TERM.TERM_NAME ~= ' ' THEN

   9449   1 0001FF  ECC7 0004                            LDB,B6   @TERMID,AUTO
          1 000201  DB80 0000 0000  02                   LAB,B5   0
          1 000204  0022                                 ACM      ;
          1 000205       4806 0004                                ALPHANUM(4,B6,,8,FILL),;
          1 000207       4105 0000                                ALPHANUM(0,B5,,1,FILL)
          1 000209  5381 0020                            CBE      s:9456,PREL

      721     9450    3             DO;

      722     9451    3                  RQSCHN.TERMINAL_ID = TERMID;

   9451   1 00020B  AB86                                 LAB,B2   ,B6
          1 00020C  2C00                                 LDV,R2   0
          1 00020D  6C10                                 LDV,R6   16
          1 00020E  BB87                                 LAB,B3   ,AUTO
          1 00020F  3C50                                 LDV,R3   80
          1 000210  0008                                 MMM

      723     9452    3                  RQSCHN.TERMINAL_ID.TERM.TERM_NAME = ' ';

   9452   1 000211  0021                                 ALR      ;
          1 000212       4178 2000                                ALPHANUM('2000'X,IMO,,1),;
          1 000214       4807 002C                                ALPHANUM(RQSCHN+9,AUTO,,8,FILL)

      724     9453    3                  RQSCHN.SCNDCNFG = '1'B;

   9453   1 000216  8947 0023                            LBT,'0008'X       RQSCHN,AUTO
   9453   1 000218       0008

      725     9454    3                  CALL GJA$NETWORK_MANAGER (RQSCHN,SIZEC(RQSCHN));

PL6.E3A0      #005=GJA$BLD_CTX File=GJA$SUBS.:E05TSI                             TUE 07/29/97 21:55 Page:127
   9454   1 000219  DBF0 001C                            LAB,B5   28,IMO
          1 00021B  DFC7 0034                            STB,B5   RQSCHN+17,AUTO
          1 00021D  CBC7 0023                            LAB,B4   RQSCHN,AUTO
          1 00021F  CFC7 0032                            STB,B4   RQSCHN+15,AUTO
          1 000221  BBC7 0032                            LAB,B3   RQSCHN+15,AUTO
          1 000223  CBF0 0200                            LAB,B4   512,IMO
          1 000225  437F                                 CSYNC    s:9454+11,SPREL
          1 000226  E380 0000 0000  xent                 LNJ,B6   GJA$NETWORK_MANAGER
          1 000229       0001                            DC       s:9456,PREL

      726     9455    3                END;

      727     9456    2             RQSCHN = GJA_RQSCHN;

   9456   1 00022A  AB80 0000 0000  xsym                 LAB,B2   GJA_RQSCHN
          1 00022D  2C00                                 LDV,R2   0
          1 00022E  E280 0000 000D  xsym                 LLH,R6   GJA_RQSCHN+13
          1 000231  6E1B                                 ADV,R6   27
          1 000232  BB87                                 LAB,B3   ,AUTO
          1 000233  3C46                                 LDV,R3   70
          1 000234  7C1C                                 LDV,R7   28
          1 000235  D380 0000 0000  xent                 LNJ,B5   X6C_ALRZ

      728     9457    2             RQSCHN.TERMINAL_ID = TERMID;

   9457   1 000238  ACC7 0004                            LDB,B2   @TERMID,AUTO
          1 00023A  2C00                                 LDV,R2   0
          1 00023B  6C10                                 LDV,R6   16
          1 00023C  BB87                                 LAB,B3   ,AUTO
          1 00023D  3C50                                 LDV,R3   80
          1 00023E  0008                                 MMM

      729     9458    2             RQSCHN.CONFIG = '1'B;

   9458   1 00023F  8947 0023                            LBT,'0040'X       RQSCHN,AUTO
   9458   1 000241       0040

PL6.E3A0      #005=GJA$BLD_CTX File=GJA$SUBS.:E05TSI                             TUE 07/29/97 21:55 Page:128
      730     9459    2             CALL GJA$NETWORK_MANAGER (RQSCHN,SIZEC(RQSCHN));

   9459   1 000242  EBF0 001C                            LAB,B6   28,IMO
          1 000244  EFC7 0034                            STB,B6   RQSCHN+17,AUTO
          1 000246  DBC7 0023                            LAB,B5   RQSCHN,AUTO
          1 000248  DFC7 0032                            STB,B5   RQSCHN+15,AUTO
          1 00024A  BBC7 0032                            LAB,B3   RQSCHN+15,AUTO
          1 00024C  CBF0 0200                            LAB,B4   512,IMO
          1 00024E  E380 0000 0000  xent                 LNJ,B6   GJA$NETWORK_MANAGER
          1 000251       0001                            DC       s:9462,PREL

      731     9460    2           END;

      732     9461
      733     9462    1        RETURN;

   9462   1 000252  C380 0000 0000  xent                 LNJ,B4   X6A_ARET
      734     9463    1   END GJA$BLD_CTX;
      735     9464        %EOD;

PL6.E3A0      #005=GJA$BLD_CTX File=GJA$SUBS.:E05TSI                             TUE 07/29/97 21:55 Page:129
--  Include file information  --

   KL_AFCN_C.:E05TOU  is referenced.
   KL_MACRO_C.:E05TOU  is referenced.
   KH$CHN.:E05TOU  is referenced.
   CP_6_SUBS.:E05TOU  is referenced.
   G_LCP6_E.:E05TOU  is referenced.
   GT_LCP6_M.:E05TOU  is referenced.
   KI_CP6.:E05TOU  is referenced.
   GF_LCP6_M.:E05TOU  is referenced.
   GM_LCP6_M.:E05TOU  is referenced.
   GU_LCP6_M.:E05TOU  is referenced.
   GJ_LCP6_M.:E05TOU  is referenced.
   GH_LCP6_M.:E05TOU  is referenced.
   LCP_6.:E05TOU  cannot be made into a system file and is referenced.
      No diagnostics issued in procedure GJA$BLD_CTX.
PL6.E3A0      #005=GJA$BLD_CTX File=GJA$SUBS.:E05TSI                             TUE 07/29/97 21:55 Page:130

 **** Variables and constants ****

  ****  Section 000 RoData GJA$BLD_CTX

  ****  Scalars and arrays  ****
HexLoc.c.b A Datatyp(siz) R M Lvl/name                 HexLoc.c.b A Datatyp(siz) R M Lvl/name

     0-0-0/w STRC(512)   r     1 CTX_C

  ****  Auto variables  ****

  ****  Scalars and arrays  ****
HexLoc.c.b A Datatyp(siz) R M Lvl/name                 HexLoc.c.b A Datatyp(siz) R M Lvl/name

     6-0-0/w PTR         r     1 @CTX$                      8-0-0/w PTR         r     1 @DORQSCHN
     4-0-0/w PTR         r     1 @TERMID                   21-0-0/w UBIN(16)    r     1 CHAN
    *0-0-0/w PTR         r     1 CTX$                      *0-0-0/w BIT         r     1 DORQSCHN
     D-0-0/w PTR         r     1 INIT$                     1B-0-0/w PTR         r     1 LVL1$
    1D-0-0/w PTR         r     1 LVL2$                     1F-0-0/w PTR         r     1 LVL3$
     C-0-0/b BIT         r     1 NEW                        A-0-0/w PTR         r     1 NEW$
    22-0-0/w UBIN(16)    r     1 NUM                       23-0-0/w STRC(224)   r     1 RQSCHN
     F-0-0/w PTR         r     1 SVLNK$                    11-0-0/w PTR         r     1 SVSUB$
    *0-0-0/w STRC(128)   r     1 TERMID                    13-0-0/w STRC(128)   r     1 TERMINAL_ID

  ****  SYMREF variables  ****

  ****  Scalars and arrays  ****
HexLoc.c.b A Datatyp(siz) R M Lvl/name                 HexLoc.c.b A Datatyp(siz) R M Lvl/name

     0-0-0/w PTR         r     1 GJA_CHNFREE$               0-0-0/w UBIN(16)    r     1 GJA_CHNHI
     0-0-0/w UBIN(16)    r     1 GJA_CHNLOW                 0-0-0/w PTR         r     1 GJA_CHNLOW$
     0-0-0/w ASTR(216)   r     1 GJA_RQSCHN

  ****  BASED and DCB variables  ****

  ****  Scalars and arrays  ****
HexLoc.c.b A Datatyp(siz) R M Lvl/name                 HexLoc.c.b A Datatyp(siz) R M Lvl/name
PL6.E3A0      #005=GJA$BLD_CTX File=GJA$SUBS.:E05TSI                             TUE 07/29/97 21:55 Page:131

     0-0-0/w STRC(512)   r     1 CHANCTX                    0-0-0/w STRC(512)   r     1 LVL2CTX
     0-0-0/w STRC(512)   r     1 LVL3CTX                    0-0-0/w STRC(512)   r     1 NEWCTX


   Procedure GJA$BLD_CTX requires 597 words for executable code.
   Procedure GJA$BLD_CTX requires 56 words of local(AUTO) storage.
PL6.E3A0      #005=GJA$BLD_CTX File=GJA$SUBS.:E05TSI                             TUE 07/29/97 21:55 Page:132
          *** CROSS REFERENCE LISTING ***
**     DENOTES     IDENTIFIER DEFINITION
<<                 IDENTIFIER'S VALUE SET
>>                 IDENTIFIER'S VALUE USED
<>                 IDENTIFIER SET AND/OR USED
--                 IDENTIFIER REFERENCED
PL6.E3A0      #005=GJA$BLD_CTX File=GJA$SUBS.:E05TSI                             TUE 07/29/97 21:55 Page:133
          MINI XREF LISTING

CHAN
      9111**DCL      9331<<ASSIGN   9332>>IF       9332>>IF       9335>>ASSIGN
CHANCTX
      8468**DCL      9335--ASSIGN   9376>>ASSIGN
CHANCTX.AUTBAD
      8522**DCL      9383>>ASSIGN
CHANCTX.BLOCK
      8544**DCL      9385>>ASSIGN
CHANCTX.CHNBIT0_9
      8475**DCL      9336>>IF
CHANCTX.DRPDTR
      8521**DCL      9384>>ASSIGN
CHANCTX.HAND$
      8575**DCL      9380>>ASSIGN
CHANCTX.LGNTIMOUTPRD
      8535**DCL      9389>>ASSIGN
CHANCTX.LINSPD
      8522**DCL      9382>>ASSIGN
CHANCTX.REDTIMOUTPRD
      8535**DCL      9388>>ASSIGN
CHANCTX.SUB$
      8575**DCL      9395>>IF       9396<<ASSIGN   9399>>ASSIGN   9408>>ASSIGN
CHANCTX.SYSID
      8501**DCL      9381>>ASSIGN
CHANCTX.TERMID.TERM
      8564**DCL      8573--REDEF
CHANCTX.TPTIMOUTPRD
      8535**DCL      9387>>ASSIGN
CHANCTX.UNBLOCK
      8544**DCL      9386>>ASSIGN
CTX$
      8447**DCL        21--PROC     9328<<ASSIGN   9444<<ASSIGN
PL6.E3A0      #005=GJA$BLD_CTX File=GJA$SUBS.:E05TSI                             TUE 07/29/97 21:55 Page:134
CTX_C
      8964**DCL      9367>>ASSIGN
CTX_C.TERMID.TERM
      9060**DCL      9069--REDEF
DORQSCHN
      8448**DCL        21--PROC     9446>>IF
GJA$BLD_CTX
        21**PROC     9346--CALL
GJA$GET_CHNTBL_PTR
      8450**DCL-ENT  9344--CALL     9354--CALL     9374--CALL
GJA$NETWORK_MANAGER
      8451**DCL-ENT  9454--CALL     9459--CALL
GJA_CHNFREE$
      9321**DCL      9361>>IF       9364>>ASSIGN   9365<<ASSIGN
GJA_CHNHI
      9323**DCL      9332>>IF
GJA_CHNLOW
      9322**DCL      9332>>IF
GJA_CHNLOW$
      9324**DCL      9335>>ASSIGN
GJA_RQSCHN
      9233**DCL      9448>>ASSIGN   9456>>ASSIGN
GJA_RQSCHN.SGN.L
      9307**DCL      9315--IMP-SIZ  9448>>ASSIGN   9456>>ASSIGN
GJA_RQSCHN.TERMINAL_ID.TERM
      9287**DCL      9296--REDEF
INIT$
      9076**DCL      9374<>CALL     9376>>ASSIGN
LVL1$
      9108**DCL      8468--IMP-PTR  9335<<ASSIGN   9336>>IF       9380>>ASSIGN   9381>>ASSIGN   9382>>ASSIGN
      9383>>ASSIGN   9384>>ASSIGN   9385>>ASSIGN   9386>>ASSIGN   9387>>ASSIGN   9388>>ASSIGN   9389>>ASSIGN
      9395>>IF       9396>>ASSIGN   9399>>ASSIGN   9408>>ASSIGN
LVL2$
      9109**DCL      8592--IMP-PTR  9344<>CALL     9346<>CALL     9399<<ASSIGN   9400>>DOWHILE  9401<<ASSIGN
      9401>>ASSIGN   9403>>ASSIGN   9408<<ASSIGN   9409>>IF       9410>>ASSIGN   9411>>DOWHILE  9412<<ASSIGN
      9412>>ASSIGN   9413>>IF       9414>>ASSIGN   9416>>IF       9419>>IF       9420>>ASSIGN   9423>>ASSIGN
PL6.E3A0      #005=GJA$BLD_CTX File=GJA$SUBS.:E05TSI                             TUE 07/29/97 21:55 Page:135
LVL2CTX.LNK$
      8699**DCL      9400>>DOWHILE  9401>>ASSIGN   9403<<ASSIGN   9412>>ASSIGN
LVL2CTX.SUB$
      8699**DCL      9419>>IF       9420<<ASSIGN   9423>>ASSIGN
LVL2CTX.TERMID.TERM
      8688**DCL      8697--REDEF
LVL2CTX.TERMID.TERM.SUBDEVICE
      8694**DCL      9410>>ASSIGN   9414>>ASSIGN
LVL3$
      9110**DCL      8716--IMP-PTR  9423<<ASSIGN   9424>>DOWHILE  9425<<ASSIGN   9425>>ASSIGN   9427>>ASSIGN
LVL3CTX.LNK$
      8823**DCL      9424>>DOWHILE  9425>>ASSIGN   9427<<ASSIGN
LVL3CTX.TERMID.TERM
      8812**DCL      8821--REDEF
NEW
      9075**DCL      9356<<ASSIGN   9363<<ASSIGN   9390>>IF
NEW$
      9074**DCL      8840--IMP-PTR  9354<>CALL     9357>>ASSIGN   9358>>ASSIGN   9364<<ASSIGN   9365>>ASSIGN
      9367>>ASSIGN   9376>>ASSIGN   9378>>ASSIGN   9379>>ASSIGN   9380>>ASSIGN   9381>>ASSIGN   9382>>ASSIGN
      9383>>ASSIGN   9384>>ASSIGN   9385>>ASSIGN   9386>>ASSIGN   9387>>ASSIGN   9388>>ASSIGN   9389>>ASSIGN
      9396>>ASSIGN   9403>>ASSIGN   9405>>ASSIGN   9420>>ASSIGN   9427>>ASSIGN   9429>>ASSIGN   9436>>ASSIGN
      9439>>ASSIGN   9442>>ASSIGN   9443>>ASSIGN   9444>>ASSIGN
NEWCTX
      8840**DCL      9367<<ASSIGN   9376<<ASSIGN
NEWCTX.AUTBAD
      8894**DCL      9383<<ASSIGN
NEWCTX.BLOCK
      8916**DCL      9385<<ASSIGN
NEWCTX.CHNBIT0_9
      8847**DCL      9405<<ASSIGN   9429<<ASSIGN   9436<<ASSIGN   9439<<ASSIGN
NEWCTX.DRPDTR
      8893**DCL      9384<<ASSIGN
NEWCTX.HAND$
      8947**DCL      9380<<ASSIGN
NEWCTX.LGNTIMOUTPRD
      8907**DCL      9389<<ASSIGN
PL6.E3A0      #005=GJA$BLD_CTX File=GJA$SUBS.:E05TSI                             TUE 07/29/97 21:55 Page:136
NEWCTX.LINSPD
      8894**DCL      9382<<ASSIGN
NEWCTX.LNK$
      8947**DCL      9357>>ASSIGN   9365>>ASSIGN   9378<<ASSIGN
NEWCTX.REDTIMOUTPRD
      8907**DCL      9388<<ASSIGN
NEWCTX.STT
      8856**DCL      9443<<ASSIGN
NEWCTX.SUB$
      8947**DCL      9358>>ASSIGN   9379<<ASSIGN
NEWCTX.SYSID
      8873**DCL      9381<<ASSIGN
NEWCTX.TERMID
      8934**DCL      9442<<ASSIGN
NEWCTX.TERMID.TERM
      8936**DCL      8945--REDEF
NEWCTX.TPTIMOUTPRD
      8907**DCL      9387<<ASSIGN
NEWCTX.UNBLOCK
      8916**DCL      9386<<ASSIGN
NUM
      9112**DCL      9410<<ASSIGN   9411>>DOWHILE  9414<<ASSIGN
RQSCHN
      9128**DCL      9448<<ASSIGN   9454<>CALL     9454--CALL     9456<<ASSIGN   9459<>CALL     9459--CALL
RQSCHN.CONFIG
      9139**DCL      9458<<ASSIGN
RQSCHN.SCNDCNFG
      9152**DCL      9453<<ASSIGN
RQSCHN.TERMINAL_ID
      9180**DCL      9451<<ASSIGN   9457<<ASSIGN
RQSCHN.TERMINAL_ID.TERM
      9182**DCL      9191--REDEF
RQSCHN.TERMINAL_ID.TERM.TERM_NAME
      9191**DCL      9452<<ASSIGN
SVLNK$
      9077**DCL      9352<<ASSIGN   9357<<ASSIGN   9378>>ASSIGN
PL6.E3A0      #005=GJA$BLD_CTX File=GJA$SUBS.:E05TSI                             TUE 07/29/97 21:55 Page:137
SVSUB$
      9078**DCL      9353<<ASSIGN   9358<<ASSIGN   9379>>ASSIGN
TERMID
      8432**DCL        21--PROC     9341>>ASSIGN   9354<>CALL     9368>>ASSIGN   9442>>ASSIGN   9451>>ASSIGN
      9457>>ASSIGN
TERMID.LEV
      8436**DCL      9329>>IF       9339>>IF       9394>>IF       9433>>DOCASE
TERMID.TERM
      8436**DCL      8445--REDEF
TERMID.TERM.CHANNEL
      8442**DCL      9331>>ASSIGN
TERMID.TERM.SUBDEVICE
      8442**DCL      9405>>ASSIGN   9411>>DOWHILE  9436>>ASSIGN
TERMID.TERM.SUBSUBDEVICE
      8442**DCL      9429>>ASSIGN   9439>>ASSIGN
TERMID.TERM.TERM_NAME
      8445**DCL      9449>>IF
TERMINAL_ID
      9093**DCL      9341<<ASSIGN   9344<>CALL     9346<>CALL     9368<<ASSIGN   9374<>CALL
TERMINAL_ID.LEV
      9097**DCL      9343<<ASSIGN   9369>>IF
TERMINAL_ID.TERM
      9097**DCL      9106--REDEF
TERMINAL_ID.TERM.SUBDEVICE
      9103**DCL      9371<<ASSIGN
TERMINAL_ID.TERM.SUBSUBDEVICE
      9103**DCL      9342<<ASSIGN   9373<<ASSIGN

PL6.E3A0      #006=GJA$LINEPROFILE File=GJA$SUBS.:E05TSI                         TUE 07/29/97 21:56 Page:138
      736        1        /*T***********************************************************/
      737        2        /*T*                                                         */
      738        3        /*T* Copyright (c) Bull HN Information Systems Inc., 1997    */
      739        4        /*T*                                                         */
      740        5        /*T***********************************************************/
      741        6        /*F* NAME: GJA$LINEPROFILE
      742        7             PURPOSE: This routine is called by GJA$DVCADM when it receives a line
      743        8                      profile message from the host.  This routine breaks apart
      744        9                      the message into its component pieces and does the following
      745       10                      for each piece:
      746       11
      747       12                         1. Call GJA$BLD_CTX to get the sub-context built for this
      748       13                            termid.
      749       14
      750       15                         2. Call handler admin routine with FNC=BLDCTX, and passing
      751       16                            the appropriate piece of the line profile message.
      752       17             DESCRIPTION: This routine uses the information in the KL_BLKHDR structure
      753       18                          which is at the beginning of every piece of line profile
      754       19                          to determine the level of this item, how many sub-devices
      755       20                          there are, etc.  This information is used to set up
      756       21             CALL: CALL GJA$LINEPROFILE(TERMID,PRO$);
      757       22             INPUT: TERMID - the terminal id of the line which this line profile
      758       23                             corresponds to.  See the B$TERMINAL_ID macro in LCP_6.
      759       24                    PRO$ - a pointer to the line profile message received
      760       25                           from the host.
      761       26        */
      762       27        GJA$LINEPROFILE: PROC(TERMID,PRO$) ALTRET;
      763       28        /**/
      764       29        %INCLUDE LCP_6;
      765     4308        %INCLUDE CP_6_SUBS;
      766     4848        %INCLUDE KL_SUPER_C;
      767     7750        %INCLUDE K_SCODE_C;
      768     7835        %INCLUDE KL_MACRO_C;
      769    11187        /**/
      770    11188        %B$TERMINAL_ID (FPTN=TERMID,STCLASS=PARAM,ALGN=ALIGNED);
      771    11217    1   DCL PRO$ PTR;
      772    11218        /**/
PL6.E3A0      #006=GJA$LINEPROFILE File=GJA$SUBS.:E05TSI                         TUE 07/29/97 21:56 Page:139
      773    11219    1   DCL GJA$GET_CHNTBL_PTR ENTRY(2) ALTRET;
      774    11220    1   DCL GJA$NETWORK_MANAGER ENTRY(2);
      775    11221    1   DCL GJA$BLD_CTX ENTRY(3) ALTRET;
      776    11222        /**/
      777    11223    1   DCL I UBIN;
      778    11224    1   DCL J UBIN;
      779    11225        %KL_BLKHDR (NAME=LVL1BLK,STCLASS="BASED(LVL1$)");
      780    11320        %KL_BLKHDR (NAME=LVL2BLK,STCLASS="BASED(LVL2$)");
      781    11415        %KL_BLKHDR (NAME=LVL3BLK,STCLASS="BASED(LVL3$)");
      782    11510        %KL_LNKVC(STCLASS="BASED(LVL2$)");
      783    11734    1   DCL LVL1$ PTR;
      784    11735    1   DCL LVL2$ PTR;
      785    11736    1   DCL LVL3$ PTR;
      786    11737        %KL_RQSCHN (FPTN=GJA_RQSCHN,STCLASS=SYMREF);
      787    11840        %KL_RQSCHN (FPTN=RQSCHN,STCLASS=AUTO);
      788    11943        %B$TERMINAL_ID (FPTN=TERMID_LCL,STCLASS=AUTO);
      789    11972    1   DCL CHN$ PTR;
      790    11973    1   DCL LIN$ PTR;
      791    11974        /**/
      792    11975        %VLP_SCODE(FPTN=NODEDEV,ERR#=%S$NODEDEV,FCG=GJ,MID=A,SEV=G_SEV_SCREECH#);
      793    12036        %EJECT;
PL6.E3A0      #006=GJA$LINEPROFILE File=GJA$SUBS.:E05TSI                         TUE 07/29/97 21:56 Page:140
      794    12037    1        IF TERMID.LEV ~= %TERMINAL_ID_LEV_CHAN#
      795    12038    1        THEN GOTO SEND_RJC;
      796    12039    1        LVL1$ = PRO$;
      797    12040    1        TERMID_LCL = TERMID;
      798    12041    1        CALL GJA$GET_CHNTBL_PTR(TERMID_LCL,LIN$);
      799    12042    1        LVL2$ = PINCRC(LVL1$,LVL1BLK.LEN);
      800    12043    2        DO I = 0 TO LVL1BLK.NSUBS - 1;
      801    12044    2             TERMID_LCL.LEV = LVL2BLK.LEV;
      802    12045    2             IF LVL2BLK.BLKTYP = %KLTY_VIRCIR# THEN
      803    12046    2                  TERMID_LCL.TERM.SUBDEVICE = KL_LNKVC.VIRCIR#;
      804    12047    2             ELSE
      805    12048    2                  TERMID_LCL.TERM.SUBDEVICE = LVL2BLK.DEVNUM;
      806    12049    2             CALL GJA$BLD_CTX(TERMID_LCL,CHN$,'1'B) WHENALTRETURN
      807    12050    3             DO;
      808    12051    3                  CALL M$SCREECH(NODEDEV);
      809    12052    3                END;
      810    12053    2             LVL3$ = PINCRC(LVL2$,LVL2BLK.LEN);
      811    12054    3             DO J = 0 TO LVL2BLK.NSUBS - 1;
      812    12055    3                  TERMID_LCL.LEV = LVL3BLK.LEV;
      813    12056    3                  TERMID_LCL.TERM.SUBSUBDEVICE = LVL3BLK.DEVNUM;
      814    12057    3                  CALL GJA$BLD_CTX(TERMID_LCL,CHN$,'1'B) WHENALTRETURN
      815    12058    4                  DO;
      816    12059    4                       CALL M$SCREECH(NODEDEV);
      817    12060    4                     END;
      818    12061    3                  LVL3$ = PINCRC(LVL3$,LVL3BLK.LEN);
      819    12062    3                END;                       /* DO J                     */
      820    12063    2             LVL2$ = LVL3$;
      821    12064    2           END;                            /* DO I                     */
      822    12065    1        RETURN;
      823    12066    1   SEND_RJC:;
      824    12067             /*N* WHAT DO WE DO??? */
      825    12068    1        ALTRETURN;
      826    12069    1   END GJA$LINEPROFILE;
      827    12070        %EOD;

PL6.E3A0      #006=GJA$LINEPROFILE File=GJA$SUBS.:E05TSI                         TUE 07/29/97 21:56 Page:141
--  Include file information  --

   KL_MACRO_C.:E05TOU  is referenced.
   K_SCODE_C.:E05TOU  is referenced.
   KL_SUPER_C.:E05TOU  is referenced.
   CP_6_SUBS.:E05TOU  is referenced.
   G_LCP6_E.:E05TOU  is referenced.
   GT_LCP6_M.:E05TOU  is referenced.
   KI_CP6.:E05TOU  is referenced.
   GF_LCP6_M.:E05TOU  is referenced.
   GM_LCP6_M.:E05TOU  is referenced.
   GU_LCP6_M.:E05TOU  is referenced.
   GJ_LCP6_M.:E05TOU  is referenced.
   GH_LCP6_M.:E05TOU  is referenced.
   LCP_6.:E05TOU  cannot be made into a system file and is referenced.
      No diagnostics issued in procedure GJA$LINEPROFILE.

   Procedure GJA$LINEPROFILE requires 216 words for executable code.
   Procedure GJA$LINEPROFILE requires 48 words of local(AUTO) storage.

PL6.E3A0      #006=GJA$LINEPROFILE File=GJA$SUBS.:E05TSI                         TUE 07/29/97 21:56 Page:142

 Object Unit name= GJA$LINEPROFILE                            File name= GJA$SUBS.:E05TOU
 UTS= JUL 29 '97 21:56:18.44 TUE                              Compiler= PL-6/E31         Sev=      00
 SharedLib= :SHARED_LCP6_SYSTEM                               Alt SharedLib=


    ****  Control sections  ****

 Sect   Type Bound  Init  Size HexSiz  Section name
    0   Data  even  none     3      3  GJA$LINEPROFILE
    1   Proc  even  none   216     D8  GJA$LINEPROFILE

    ****  Entry defs  ****

                              Check   Calling
                             calling  sequence
  Sect HexLoc Primary Altret sequence   type   Parms  Name
     1      0   yes    yes     yes      Std        2  GJA$LINEPROFILE

  ****  Entry refs  ****

         Check        Calling
        calling       sequence
Altret sequence SRef   type   Args  Name
 yes     yes           Std       2 GJA$GET_CHNTBL_PTR
 yes     yes           Std       3 GJA$BLD_CTX
                       nStd      0 X6A_AUTO_2
                       nStd      0 X6A_ARET
                       nStd      0 X6A_AALT

  ****  Data refs  ****

  Flags:  r = read only, s = secondary
Flgs Name                             Flgs Name                             Flgs Name
     GJA_RQSCHN                       r    G$ROS$
PL6.E3A0      #006=GJA$LINEPROFILE File=GJA$SUBS.:E05TSI                         TUE 07/29/97 21:56 Page:143


      736        1        /*T***********************************************************/
      737        2        /*T*                                                         */
      738        3        /*T* Copyright (c) Bull HN Information Systems Inc., 1997    */
      739        4        /*T*                                                         */
      740        5        /*T***********************************************************/
      741        6        /*F* NAME: GJA$LINEPROFILE
      742        7             PURPOSE: This routine is called by GJA$DVCADM when it receives a line
      743        8                      profile message from the host.  This routine breaks apart
      744        9                      the message into its component pieces and does the following
      745       10                      for each piece:
      746       11
      747       12                         1. Call GJA$BLD_CTX to get the sub-context built for this
      748       13                            termid.
      749       14
      750       15                         2. Call handler admin routine with FNC=BLDCTX, and passing
      751       16                            the appropriate piece of the line profile message.
      752       17             DESCRIPTION: This routine uses the information in the KL_BLKHDR structure
      753       18                          which is at the beginning of every piece of line profile
      754       19                          to determine the level of this item, how many sub-devices
      755       20                          there are, etc.  This information is used to set up
      756       21             CALL: CALL GJA$LINEPROFILE(TERMID,PRO$);
      757       22             INPUT: TERMID - the terminal id of the line which this line profile
      758       23                             corresponds to.  See the B$TERMINAL_ID macro in LCP_6.
      759       24                    PRO$ - a pointer to the line profile message received
      760       25                           from the host.
      761       26        */
      762       27        GJA$LINEPROFILE: PROC(TERMID,PRO$) ALTRET;

     27   1 000000  D380 0000 0000  xent GJA$LINEPROFILE LNJ,B5   X6A_AUTO_2
          1 000003       0030 0002                       DC       48,2

      763       28        /**/
      764       29        %INCLUDE LCP_6;
      765     4308        %INCLUDE CP_6_SUBS;
      766     4848        %INCLUDE KL_SUPER_C;
      767     7750        %INCLUDE K_SCODE_C;
PL6.E3A0      #006=GJA$LINEPROFILE File=GJA$SUBS.:E05TSI                         TUE 07/29/97 21:56 Page:144
      768     7835        %INCLUDE KL_MACRO_C;
      769    11187        /**/
      770    11188        %B$TERMINAL_ID (FPTN=TERMID,STCLASS=PARAM,ALGN=ALIGNED);
      771    11217    1   DCL PRO$ PTR;
      772    11218        /**/
      773    11219    1   DCL GJA$GET_CHNTBL_PTR ENTRY(2) ALTRET;
      774    11220    1   DCL GJA$NETWORK_MANAGER ENTRY(2);
      775    11221    1   DCL GJA$BLD_CTX ENTRY(3) ALTRET;
      776    11222        /**/
      777    11223    1   DCL I UBIN;
      778    11224    1   DCL J UBIN;
      779    11225        %KL_BLKHDR (NAME=LVL1BLK,STCLASS="BASED(LVL1$)");
      780    11320        %KL_BLKHDR (NAME=LVL2BLK,STCLASS="BASED(LVL2$)");
      781    11415        %KL_BLKHDR (NAME=LVL3BLK,STCLASS="BASED(LVL3$)");
      782    11510        %KL_LNKVC(STCLASS="BASED(LVL2$)");
      783    11734    1   DCL LVL1$ PTR;
      784    11735    1   DCL LVL2$ PTR;
      785    11736    1   DCL LVL3$ PTR;
      786    11737        %KL_RQSCHN (FPTN=GJA_RQSCHN,STCLASS=SYMREF);
      787    11840        %KL_RQSCHN (FPTN=RQSCHN,STCLASS=AUTO);
      788    11943        %B$TERMINAL_ID (FPTN=TERMID_LCL,STCLASS=AUTO);
      789    11972    1   DCL CHN$ PTR;
      790    11973    1   DCL LIN$ PTR;
      791    11974        /**/
      792    11975        %VLP_SCODE(FPTN=NODEDEV,ERR#=%S$NODEDEV,FCG=GJ,MID=A,SEV=G_SEV_SCREECH#);
      793    12036        %EJECT;
PL6.E3A0      #006=GJA$LINEPROFILE File=GJA$SUBS.:E05TSI                         TUE 07/29/97 21:56 Page:145
      794    12037    1        IF TERMID.LEV ~= %TERMINAL_ID_LEV_CHAN#

  12037   1 000005  ECC7 0004                            LDB,B6   @TERMID,AUTO
          1 000007  E806                                 LDR,R6   ,B6
          1 000008  E570 00FF                            AND,R6   255,IMO
          1 00000A  6D01                                 CMV,R6   1
          1 00000B  0981 00C9                            BNE      s:12057,PREL

      795    12038    1        THEN GOTO SEND_RJC;
      796    12039    1        LVL1$ = PRO$;

  12039   1 00000D  DCC7 0006                            LDB,B5   @PRO$,AUTO
          1 00000F  CC85                                 LDB,B4   ,B5
          1 000010  CFC7 000A                            STB,B4   LVL1$,AUTO

      797    12040    1        TERMID_LCL = TERMID;

  12040   1 000012  AB86                                 LAB,B2   ,B6
          1 000013  2C00                                 LDV,R2   0
          1 000014  6C10                                 LDV,R6   16
          1 000015  BB87                                 LAB,B3   ,AUTO
          1 000016  3C3C                                 LDV,R3   60
          1 000017  0008                                 MMM

      798    12041    1        CALL GJA$GET_CHNTBL_PTR(TERMID_LCL,LIN$);

  12041   1 000018  CBC7 0028                            LAB,B4   LIN$,AUTO
          1 00001A  CFC7 002C                            STB,B4   LIN$+4,AUTO
          1 00001C  9BC7 001E                            LAB,B1   TERMID_LCL,AUTO
          1 00001E  9FC7 002A                            STB,B1   LIN$+2,AUTO
          1 000020  BBC7 002A                            LAB,B3   LIN$+2,AUTO
          1 000022  CBF0 0200                            LAB,B4   512,IMO
          1 000024  E380 0000 0000  xent                 LNJ,B6   GJA$GET_CHNTBL_PTR
          1 000027       0001                            DC       s:12042,PREL

      799    12042    1        LVL2$ = PINCRC(LVL1$,LVL1BLK.LEN);

PL6.E3A0      #006=GJA$LINEPROFILE File=GJA$SUBS.:E05TSI                         TUE 07/29/97 21:56 Page:146
  12042   1 000028  ECC7 000A                            LDB,B6   LVL1$,AUTO
          1 00002A  B846 0001                            LDR,R3   1,B6
          1 00002C  8CC7 000A                            LDI      LVL1$,AUTO
          1 00002E  7031                                 DCL,R7   1
          1 00002F  8D47 002A                            SDI      LIN$+2,AUTO
          1 000031  F853                                 LDR,R7   R3
          1 000032  6C00                                 LDV,R6   0
          1 000033  8447 002A                            AID      LIN$+2,AUTO
          1 000035  7071                                 DCR,R7   1
          1 000036  8D47 000C                            SDI      LVL2$,AUTO

      800    12043    2        DO I = 0 TO LVL1BLK.NSUBS - 1;

  12043   1 000038  8747 0008                            CL       I,AUTO
          1 00003A  0F81 008E                            B        s:12064+2,PREL

      801    12044    2             TERMID_LCL.LEV = LVL2BLK.LEV;

  12044   1 00003C  ECC7 000C                            LDB,B6   LVL2$,AUTO
          1 00003E  E286                                 LLH,R6   ,B6
          1 00003F  EAC7 001E                            SRM,R6,'00FF'X    TERMID_LCL,AUTO
          1 000041       00FF

      802    12045    2             IF LVL2BLK.BLKTYP = %KLTY_VIRCIR# THEN

  12045   1 000042  E2C6 0002                            LLH,R6   2,B6
          1 000044  6D08                                 CMV,R6   8
          1 000045  0981 0007                            BNE      s:12048,PREL

      803    12046    2                  TERMID_LCL.TERM.SUBDEVICE = KL_LNKVC.VIRCIR#;

  12046   1 000047  D846 0015                            LDR,R5   21,B6
          1 000049  DF47 0020                            STR,R5   TERMID_LCL+2,AUTO
          1 00004B  0F81 0005                            B        s:12049,PREL

      804    12047    2             ELSE
      805    12048    2                  TERMID_LCL.TERM.SUBDEVICE = LVL2BLK.DEVNUM;
PL6.E3A0      #006=GJA$LINEPROFILE File=GJA$SUBS.:E05TSI                         TUE 07/29/97 21:56 Page:147

  12048   1 00004D  D2C6 0003                            LLH,R5   3,B6
          1 00004F  DF47 0020                            STR,R5   TERMID_LCL+2,AUTO

      806    12049    2             CALL GJA$BLD_CTX(TERMID_LCL,CHN$,'1'B) WHENALTRETURN

  12049   1 000051  DBF0 8000                            LAB,B5   -32768,IMO
          1 000053  DFC7 002E                            STB,B5   LIN$+6,AUTO
          1 000055  CBC7 0026                            LAB,B4   CHN$,AUTO
          1 000057  CFC7 002C                            STB,B4   LIN$+4,AUTO
          1 000059  BBC7 001E                            LAB,B3   TERMID_LCL,AUTO
          1 00005B  BFC7 002A                            STB,B3   LIN$+2,AUTO
          1 00005D  BBC7 002A                            LAB,B3   LIN$+2,AUTO
          1 00005F  CBF0 0300                            LAB,B4   768,IMO
          1 000061  E380 0000 0000  xent                 LNJ,B6   GJA$BLD_CTX
          1 000064       0003                            DC       s:12051,PREL
          1 000065  0F81 0008                            B        s:12053,PREL

      807    12050    3             DO;

      808    12051    3                  CALL M$SCREECH(NODEDEV);

  12051   1 000067  BB80 0000 0000  00                   LAB,B3   NODEDEV
          1 00006A  B870 0485                            LDR,R3   1157,IMO
          1 00006C  0001                                 MCL
          1 00006D       0000                            DC       s:12051+6,PREL

      809    12052    3                END;

      810    12053    2             LVL3$ = PINCRC(LVL2$,LVL2BLK.LEN);

  12053   1 00006E  ECC7 000C                            LDB,B6   LVL2$,AUTO
          1 000070  B846 0001                            LDR,R3   1,B6
          1 000072  8CC7 000C                            LDI      LVL2$,AUTO
          1 000074  7031                                 DCL,R7   1
          1 000075  8D47 002A                            SDI      LIN$+2,AUTO
          1 000077  F853                                 LDR,R7   R3
PL6.E3A0      #006=GJA$LINEPROFILE File=GJA$SUBS.:E05TSI                         TUE 07/29/97 21:56 Page:148
          1 000078  6C00                                 LDV,R6   0
          1 000079  8447 002A                            AID      LIN$+2,AUTO
          1 00007B  7071                                 DCR,R7   1
          1 00007C  8D47 000E                            SDI      LVL3$,AUTO

      811    12054    3             DO J = 0 TO LVL2BLK.NSUBS - 1;

  12054   1 00007E  8747 0009                            CL       J,AUTO
          1 000080  0F81 003A                            B        s:12062+2,PREL

      812    12055    3                  TERMID_LCL.LEV = LVL3BLK.LEV;

  12055   1 000082  ECC7 000E                            LDB,B6   LVL3$,AUTO
          1 000084  E286                                 LLH,R6   ,B6
          1 000085  EAC7 001E                            SRM,R6,'00FF'X    TERMID_LCL,AUTO
          1 000087       00FF

      813    12056    3                  TERMID_LCL.TERM.SUBSUBDEVICE = LVL3BLK.DEVNUM;

  12056   1 000088  E2C6 0003                            LLH,R6   3,B6
          1 00008A  EF47 0021                            STR,R6   TERMID_LCL+3,AUTO

      814    12057    3                  CALL GJA$BLD_CTX(TERMID_LCL,CHN$,'1'B) WHENALTRETURN

  12057   1 00008C  DBF0 8000                            LAB,B5   -32768,IMO
          1 00008E  DFC7 002E                            STB,B5   LIN$+6,AUTO
          1 000090  CBC7 0026                            LAB,B4   CHN$,AUTO
          1 000092  CFC7 002C                            STB,B4   LIN$+4,AUTO
          1 000094  BBC7 001E                            LAB,B3   TERMID_LCL,AUTO
          1 000096  BFC7 002A                            STB,B3   LIN$+2,AUTO
          1 000098  BBC7 002A                            LAB,B3   LIN$+2,AUTO
          1 00009A  CBF0 0300                            LAB,B4   768,IMO
          1 00009C  E380 0000 0000  xent                 LNJ,B6   GJA$BLD_CTX
          1 00009F       0003                            DC       s:12059,PREL
          1 0000A0  0F81 0008                            B        s:12061,PREL

      815    12058    4                  DO;
PL6.E3A0      #006=GJA$LINEPROFILE File=GJA$SUBS.:E05TSI                         TUE 07/29/97 21:56 Page:149

      816    12059    4                       CALL M$SCREECH(NODEDEV);

  12059   1 0000A2  BB80 0000 0000  00                   LAB,B3   NODEDEV
          1 0000A5  B870 0485                            LDR,R3   1157,IMO
          1 0000A7  0001                                 MCL
          1 0000A8       0000                            DC       s:12059+6,PREL

      817    12060    4                     END;

      818    12061    3                  LVL3$ = PINCRC(LVL3$,LVL3BLK.LEN);

  12061   1 0000A9  ECC7 000E                            LDB,B6   LVL3$,AUTO
          1 0000AB  B846 0001                            LDR,R3   1,B6
          1 0000AD  8CC7 000E                            LDI      LVL3$,AUTO
          1 0000AF  7031                                 DCL,R7   1
          1 0000B0  8D47 002A                            SDI      LIN$+2,AUTO
          1 0000B2  F853                                 LDR,R7   R3
          1 0000B3  6C00                                 LDV,R6   0
          1 0000B4  8447 002A                            AID      LIN$+2,AUTO
          1 0000B6  7071                                 DCR,R7   1
          1 0000B7  8D47 000E                            SDI      LVL3$,AUTO

      819    12062    3                END;                       /* DO J                     */

  12062   1 0000B9  8AC7 0009                            INC      J,AUTO
          1 0000BB  ECC7 000C                            LDB,B6   LVL2$,AUTO
          1 0000BD  D806                                 LDR,R5   ,B6
          1 0000BE  D570 00FF                            AND,R5   255,IMO
          1 0000C0  D947 0009                            CMR,R5   J,AUTO
          1 0000C2  0340                                 BG       s:12055,SPREL

      820    12063    2             LVL2$ = LVL3$;

  12063   1 0000C3  DCC7 000E                            LDB,B5   LVL3$,AUTO
          1 0000C5  DFC7 000C                            STB,B5   LVL2$,AUTO

PL6.E3A0      #006=GJA$LINEPROFILE File=GJA$SUBS.:E05TSI                         TUE 07/29/97 21:56 Page:150
      821    12064    2           END;                            /* DO I                     */

  12064   1 0000C7  8AC7 0008                            INC      I,AUTO
          1 0000C9  ECC7 000A                            LDB,B6   LVL1$,AUTO
          1 0000CB  E806                                 LDR,R6   ,B6
          1 0000CC  E570 00FF                            AND,R6   255,IMO
          1 0000CE  E947 0008                            CMR,R6   I,AUTO
          1 0000D0  0301 FF6B                            BG       s:12044,PREL

      822    12065    1        RETURN;

  12065   1 0000D2  C380 0000 0000  xent                 LNJ,B4   X6A_ARET

  12057   1                              SEND_RJC        null
      823    12066    1   SEND_RJC:;
      824    12067             /*N* WHAT DO WE DO??? */
      825    12068    1        ALTRETURN;

  12068   1 0000D5  C380 0000 0000  xent SEND_RJC        LNJ,B4   X6A_AALT
      826    12069    1   END GJA$LINEPROFILE;
      827    12070        %EOD;

PL6.E3A0      #006=GJA$LINEPROFILE File=GJA$SUBS.:E05TSI                         TUE 07/29/97 21:56 Page:151
--  Include file information  --

   KL_MACRO_C.:E05TOU  is referenced.
   K_SCODE_C.:E05TOU  is referenced.
   KL_SUPER_C.:E05TOU  is referenced.
   CP_6_SUBS.:E05TOU  is referenced.
   G_LCP6_E.:E05TOU  is referenced.
   GT_LCP6_M.:E05TOU  is referenced.
   KI_CP6.:E05TOU  is referenced.
   GF_LCP6_M.:E05TOU  is referenced.
   GM_LCP6_M.:E05TOU  is referenced.
   GU_LCP6_M.:E05TOU  is referenced.
   GJ_LCP6_M.:E05TOU  is referenced.
   GH_LCP6_M.:E05TOU  is referenced.
   LCP_6.:E05TOU  cannot be made into a system file and is referenced.
      No diagnostics issued in procedure GJA$LINEPROFILE.
PL6.E3A0      #006=GJA$LINEPROFILE File=GJA$SUBS.:E05TSI                         TUE 07/29/97 21:56 Page:152

 **** Variables and constants ****

  ****  Section 000  Data  GJA$LINEPROFILE

  ****  Scalars and arrays  ****
HexLoc.c.b A Datatyp(siz) R M Lvl/name                 HexLoc.c.b A Datatyp(siz) R M Lvl/name

     0-0-0/w STRC(48)    r     1 NODEDEV

  ****  Auto variables  ****

  ****  Scalars and arrays  ****
HexLoc.c.b A Datatyp(siz) R M Lvl/name                 HexLoc.c.b A Datatyp(siz) R M Lvl/name

     6-0-0/w PTR         r     1 @PRO$                      4-0-0/w PTR         r     1 @TERMID
    26-0-0/w PTR         r     1 CHN$                       8-0-0/w UBIN(16)    r     1 I
     9-0-0/w UBIN(16)    r     1 J                         28-0-0/w PTR         r     1 LIN$
     A-0-0/w PTR         r     1 LVL1$                      C-0-0/w PTR         r     1 LVL2$
     E-0-0/w PTR         r     1 LVL3$                     *0-0-0/w PTR         r     1 PRO$
    *0-0-0/w STRC(128)   r     1 TERMID                    1E-0-0/c STRC(128)   r     1 TERMID_LCL

  ****  SYMREF variables  ****

  ****  Scalars and arrays  ****
HexLoc.c.b A Datatyp(siz) R M Lvl/name                 HexLoc.c.b A Datatyp(siz) R M Lvl/name

     0-0-0/w ASTR(216)   r     1 GJA_RQSCHN

  ****  BASED and DCB variables  ****

  ****  Scalars and arrays  ****
HexLoc.c.b A Datatyp(siz) R M Lvl/name                 HexLoc.c.b A Datatyp(siz) R M Lvl/name

     0-0-0/w STRC(384)   r     1 KL_LNKVC                   0-0-0/w STRC(64)    r     1 LVL1BLK
     0-0-0/w STRC(64)    r     1 LVL2BLK                    0-0-0/w STRC(64)    r     1 LVL3BLK

PL6.E3A0      #006=GJA$LINEPROFILE File=GJA$SUBS.:E05TSI                         TUE 07/29/97 21:56 Page:153

   Procedure GJA$LINEPROFILE requires 216 words for executable code.
   Procedure GJA$LINEPROFILE requires 48 words of local(AUTO) storage.
PL6.E3A0      #006=GJA$LINEPROFILE File=GJA$SUBS.:E05TSI                         TUE 07/29/97 21:56 Page:154
          *** CROSS REFERENCE LISTING ***
**     DENOTES     IDENTIFIER DEFINITION
<<                 IDENTIFIER'S VALUE SET
>>                 IDENTIFIER'S VALUE USED
<>                 IDENTIFIER SET AND/OR USED
--                 IDENTIFIER REFERENCED
PL6.E3A0      #006=GJA$LINEPROFILE File=GJA$SUBS.:E05TSI                         TUE 07/29/97 21:56 Page:155
          MINI XREF LISTING

CHN$
     11972**DCL     12049<>CALL    12057<>CALL
GJA$BLD_CTX
     11221**DCL-ENT 12049--CALL    12057--CALL
GJA$GET_CHNTBL_PTR
     11219**DCL-ENT 12041--CALL
GJA_RQSCHN.SGN.L
     11826**DCL     11834--IMP-SIZ
GJA_RQSCHN.TERMINAL_ID.TERM
     11806**DCL     11815--REDEF
I
     11223**DCL     12043<<DOINDEX
J
     11224**DCL     12054<<DOINDEX
KL_LNKVC.CUG
     11624**DCL     11668--REDEF
KL_LNKVC.VIRCIR#
     11718**DCL     12046>>ASSIGN
LIN$
     11973**DCL     12041<>CALL
LVL1$
     11734**DCL     11239--IMP-PTR 12039<<ASSIGN  12042>>ASSIGN  12042>>ASSIGN  12043>>DOINDEX
LVL1BLK.LEN
     11262**DCL     12042>>ASSIGN
LVL1BLK.NSUBS
     11254**DCL     12043>>DOINDEX
LVL2$
     11735**DCL     11334--IMP-PTR 11525--IMP-PTR 12042<<ASSIGN  12044>>ASSIGN  12045>>IF      12046>>ASSIGN
     12048>>ASSIGN  12053>>ASSIGN  12053>>ASSIGN  12054>>DOINDEX 12063<<ASSIGN
LVL2BLK.BLKTYP
     11362**DCL     12045>>IF
LVL2BLK.DEVNUM
PL6.E3A0      #006=GJA$LINEPROFILE File=GJA$SUBS.:E05TSI                         TUE 07/29/97 21:56 Page:156
     11389**DCL     12048>>ASSIGN
LVL2BLK.LEN
     11357**DCL     12053>>ASSIGN
LVL2BLK.LEV
     11338**DCL     12044>>ASSIGN
LVL2BLK.NSUBS
     11349**DCL     12054>>DOINDEX
LVL3$
     11736**DCL     11429--IMP-PTR 12053<<ASSIGN  12055>>ASSIGN  12056>>ASSIGN  12061<<ASSIGN  12061>>ASSIGN
     12061>>ASSIGN  12063>>ASSIGN
LVL3BLK.DEVNUM
     11484**DCL     12056>>ASSIGN
LVL3BLK.LEN
     11452**DCL     12061>>ASSIGN
LVL3BLK.LEV
     11433**DCL     12055>>ASSIGN
M$SCREECH
      4269**DCL-ENT 12051--CALL    12059--CALL
NODEDEV
     12002**DCL     12051<>CALL    12059<>CALL
PRO$
     11217**DCL        27--PROC    12039>>ASSIGN
RQSCHN.TERMINAL_ID.TERM
     11909**DCL     11918--REDEF
SEND_RJC
     12057**LABEL   12038--GOTO
TERMID
     11202**DCL        27--PROC    12040>>ASSIGN
TERMID.LEV
     11206**DCL     12037>>IF
TERMID.TERM
     11206**DCL     11215--REDEF
TERMID_LCL
     11957**DCL     12040<<ASSIGN  12041<>CALL    12049<>CALL    12057<>CALL
TERMID_LCL.LEV
     11961**DCL     12044<<ASSIGN  12055<<ASSIGN
PL6.E3A0      #006=GJA$LINEPROFILE File=GJA$SUBS.:E05TSI                         TUE 07/29/97 21:56 Page:157
TERMID_LCL.TERM
     11961**DCL     11970--REDEF
TERMID_LCL.TERM.SUBDEVICE
     11967**DCL     12046<<ASSIGN  12048<<ASSIGN
TERMID_LCL.TERM.SUBSUBDEVICE
     11967**DCL     12056<<ASSIGN

PL6.E3A0      #007=GJA$CHK_TRM_RNG File=GJA$SUBS.:E05TSI                         TUE 07/29/97 21:56 Page:158
      828        1        /*T***********************************************************/
      829        2        /*T*                                                         */
      830        3        /*T* Copyright (c) Bull HN Information Systems Inc., 1997    */
      831        4        /*T*                                                         */
      832        5        /*T***********************************************************/
      833        6        /*F* NAME: GJA$CHK_TRM_RNG
      834        7
      835        8             PURPOSE: This routine is called when Node Admin receives a range of
      836        9                      termid specs.  This routine validates that the two termids
      837       10                      constitute a valid range according to the rules defined
      838       11                      below.
      839       12
      840       13             DESCRIPTION: This routine validates that the two termids passed
      841       14                          constitute a valid range according to the following
      842       15                          rules:
      843       16
      844       17                         1. TERMLO.LEV = TERMHI.LEV
      845       18
      846       19                         2. IF LEV = 1
      847       20                               TERMLO.CHAN <= TERMHI.CHAN
      848       21
      849       22                         3. IF LEV = 2
      850       23                               TERMLO.CHAN = TERMHI.CHAN
      851       24                               TERMLO.SUB <= TERMHI.SUB
      852       25
      853       26                         4. IF LEV = 3
      854       27                               TERMLO.CHAN = TERMHI.CHAN
      855       28                               TERMLO.SUB = TERMHI.SUB
      856       29                               TERMLO.SUBSUB <= TERMHI.SUBSUB
      857       30
      858       31                         If any of the specified conditions are not met, the
      859       32                         altreturn is taken.  Else, return.
      860       33
      861       34             CALL: CALL GJA$CHK_TRM_RNG(TERMLO,TERMHI) ALTRET(label);
      862       35             INPUT: TERMLO, TERMHI - the two termids making up the range.  See
      863       36                    the B$TERMINAL_ID macro in CP_6.
      864       37             OUTPUT: None.  If the range is valid we return, else altreturn.
PL6.E3A0      #007=GJA$CHK_TRM_RNG File=GJA$SUBS.:E05TSI                         TUE 07/29/97 21:56 Page:159
      865       38        */
      866       39        GJA$CHK_TRM_RNG: PROC(TERMLO,TERMHI) ALTRET;
      867       40
      868       41        %INCLUDE LCP_6;
      869     4320        %INCLUDE CP_6_SUBS;
      870     4860        %INCLUDE KL_MACRO_C;
      871     8212
      872     8213        %B$TERMINAL_ID (FPTN=TERMLO,STCLASS=PARAM,ALGN=ALIGNED);
      873     8242        %B$TERMINAL_ID (FPTN=TERMHI,STCLASS=PARAM,ALGN=ALIGNED);
      874     8271        %EJECT;
PL6.E3A0      #007=GJA$CHK_TRM_RNG File=GJA$SUBS.:E05TSI                         TUE 07/29/97 21:56 Page:160
      875     8272    1        IF TERMLO.LEV ~= TERMHI.LEV
      876     8273    1        THEN ALTRETURN;
      877     8274    2        DO CASE(TERMLO.LEV);
      878     8275    2        CASE(%TERMINAL_ID_LEV_CHAN#);
      879     8276    2           IF TERMLO.TERM.CHANNEL > TERMHI.TERM.CHANNEL
      880     8277    2           THEN ALTRETURN;
      881     8278    2        CASE(%TERMINAL_ID_LEV_SUBCHAN#);
      882     8279    2           IF TERMLO.TERM.CHANNEL ~= TERMHI.TERM.CHANNEL OR
      883     8280    2                TERMLO.TERM.SUBDEVICE > TERMHI.TERM.SUBDEVICE
      884     8281    2           THEN ALTRETURN;
      885     8282    2        CASE(%TERMINAL_ID_LEV_SUBSUBCHAN#);
      886     8283    2           IF TERMLO.TERM.CHANNEL ~= TERMHI.TERM.CHANNEL OR
      887     8284    2                TERMLO.TERM.SUBDEVICE ~= TERMHI.TERM.SUBDEVICE OR
      888     8285    2                TERMLO.TERM.SUBSUBDEVICE > TERMHI.TERM.SUBSUBDEVICE
      889     8286    2           THEN ALTRETURN;
      890     8287    2        END;                               /* DO CASE                  */
      891     8288    1        RETURN;
      892     8289    1   END GJA$CHK_TRM_RNG;
      893     8290        %EOD;

PL6.E3A0      #007=GJA$CHK_TRM_RNG File=GJA$SUBS.:E05TSI                         TUE 07/29/97 21:56 Page:161
--  Include file information  --

   KL_MACRO_C.:E05TOU  is referenced.
   CP_6_SUBS.:E05TOU  is referenced.
   G_LCP6_E.:E05TOU  is referenced.
   GT_LCP6_M.:E05TOU  is referenced.
   KI_CP6.:E05TOU  is referenced.
   GF_LCP6_M.:E05TOU  is referenced.
   GM_LCP6_M.:E05TOU  is referenced.
   GU_LCP6_M.:E05TOU  is referenced.
   GJ_LCP6_M.:E05TOU  is referenced.
   GH_LCP6_M.:E05TOU  is referenced.
   LCP_6.:E05TOU  cannot be made into a system file and is referenced.
      No diagnostics issued in procedure GJA$CHK_TRM_RNG.

   Procedure GJA$CHK_TRM_RNG requires 83 words for executable code.
   Procedure GJA$CHK_TRM_RNG requires 8 words of local(AUTO) storage.

PL6.E3A0      #007=GJA$CHK_TRM_RNG File=GJA$SUBS.:E05TSI                         TUE 07/29/97 21:56 Page:162

 Object Unit name= GJA$CHK_TRM_RNG                            File name= GJA$SUBS.:E05TOU
 UTS= JUL 29 '97 21:56:48.52 TUE                              Compiler= PL-6/E31         Sev=      00
 SharedLib= :SHARED_LCP6_SYSTEM                               Alt SharedLib=


    ****  Control sections  ****

 Sect   Type Bound  Init  Size HexSiz  Section name
    0   Proc  even  none    83     53  GJA$CHK_TRM_RNG

    ****  Entry defs  ****

                              Check   Calling
                             calling  sequence
  Sect HexLoc Primary Altret sequence   type   Parms  Name
     0      0   yes    yes     yes      Std        2  GJA$CHK_TRM_RNG

  ****  Entry refs  ****

         Check        Calling
        calling       sequence
Altret sequence SRef   type   Args  Name
                       nStd      0 X6A_AUTO_2
                       nStd      0 X6A_AALT
                       nStd      0 X6A_ARET

  ****  Data refs  ****

  Flags:  r = read only, s = secondary
Flgs Name                             Flgs Name                             Flgs Name
r    G$ROS$
PL6.E3A0      #007=GJA$CHK_TRM_RNG File=GJA$SUBS.:E05TSI                         TUE 07/29/97 21:56 Page:163


      828        1        /*T***********************************************************/
      829        2        /*T*                                                         */
      830        3        /*T* Copyright (c) Bull HN Information Systems Inc., 1997    */
      831        4        /*T*                                                         */
      832        5        /*T***********************************************************/
      833        6        /*F* NAME: GJA$CHK_TRM_RNG
      834        7
      835        8             PURPOSE: This routine is called when Node Admin receives a range of
      836        9                      termid specs.  This routine validates that the two termids
      837       10                      constitute a valid range according to the rules defined
      838       11                      below.
      839       12
      840       13             DESCRIPTION: This routine validates that the two termids passed
      841       14                          constitute a valid range according to the following
      842       15                          rules:
      843       16
      844       17                         1. TERMLO.LEV = TERMHI.LEV
      845       18
      846       19                         2. IF LEV = 1
      847       20                               TERMLO.CHAN <= TERMHI.CHAN
      848       21
      849       22                         3. IF LEV = 2
      850       23                               TERMLO.CHAN = TERMHI.CHAN
      851       24                               TERMLO.SUB <= TERMHI.SUB
      852       25
      853       26                         4. IF LEV = 3
      854       27                               TERMLO.CHAN = TERMHI.CHAN
      855       28                               TERMLO.SUB = TERMHI.SUB
      856       29                               TERMLO.SUBSUB <= TERMHI.SUBSUB
      857       30
      858       31                         If any of the specified conditions are not met, the
      859       32                         altreturn is taken.  Else, return.
      860       33
      861       34             CALL: CALL GJA$CHK_TRM_RNG(TERMLO,TERMHI) ALTRET(label);
      862       35             INPUT: TERMLO, TERMHI - the two termids making up the range.  See
      863       36                    the B$TERMINAL_ID macro in CP_6.
PL6.E3A0      #007=GJA$CHK_TRM_RNG File=GJA$SUBS.:E05TSI                         TUE 07/29/97 21:56 Page:164
      864       37             OUTPUT: None.  If the range is valid we return, else altreturn.
      865       38        */
      866       39        GJA$CHK_TRM_RNG: PROC(TERMLO,TERMHI) ALTRET;

     39   0 000000  D380 0000 0000  xent GJA$CHK_TRM_RNG LNJ,B5   X6A_AUTO_2
          0 000003       0008 0002                       DC       8,2

      867       40
      868       41        %INCLUDE LCP_6;
      869     4320        %INCLUDE CP_6_SUBS;
      870     4860        %INCLUDE KL_MACRO_C;
      871     8212
      872     8213        %B$TERMINAL_ID (FPTN=TERMLO,STCLASS=PARAM,ALGN=ALIGNED);
      873     8242        %B$TERMINAL_ID (FPTN=TERMHI,STCLASS=PARAM,ALGN=ALIGNED);
      874     8271        %EJECT;
PL6.E3A0      #007=GJA$CHK_TRM_RNG File=GJA$SUBS.:E05TSI                         TUE 07/29/97 21:56 Page:165
      875     8272    1        IF TERMLO.LEV ~= TERMHI.LEV

   8272   0 000005  ECC7 0004                            LDB,B6   @TERMLO,AUTO
          0 000007  E806                                 LDR,R6   ,B6
          0 000008  E570 00FF                            AND,R6   255,IMO
          0 00000A  DCC7 0006                            LDB,B5   @TERMHI,AUTO
          0 00000C  D805                                 LDR,R5   ,B5
          0 00000D  D570 00FF                            AND,R5   255,IMO
          0 00000F  E955                                 CMR,R6   R5
          0 000010  0901 0004                            BE       s:8274,PREL

      876     8273    1        THEN ALTRETURN;

   8273   0 000012  C380 0000 0000  xent                 LNJ,B4   X6A_AALT

      877     8274    2        DO CASE(TERMLO.LEV);

   8274   0 000015  B856                                 LDR,R3   R6
          0 000016  3D04                                 CMV,R3   4
          0 000017  0281 0038                            BGE      s:8288,PREL
          0 000019  A830 0000 001F  00                   LDR,R2   s:8274+10,R3
          0 00001C  83A0 0000 0023  00                   JMP      s:8276,R2
          0 00001F       002D                            DC       s:8288,PREL
          0 000020       0000                            DC       s:8276,PREL
          0 000021       0009                            DC       s:8279,PREL
          0 000022       0018                            DC       s:8283,PREL

      878     8275    2        CASE(%TERMINAL_ID_LEV_CHAN#);

      879     8276    2           IF TERMLO.TERM.CHANNEL > TERMHI.TERM.CHANNEL

   8276   0 000023  C846 0001                            LDR,R4   1,B6
          0 000025  C945 0001                            CMR,R4   1,B5
          0 000027  0381 0028                            BLE      s:8288,PREL

      880     8277    2           THEN ALTRETURN;

PL6.E3A0      #007=GJA$CHK_TRM_RNG File=GJA$SUBS.:E05TSI                         TUE 07/29/97 21:56 Page:166
   8277   0 000029  C380 0000 0000  xent                 LNJ,B4   X6A_AALT

      881     8278    2        CASE(%TERMINAL_ID_LEV_SUBCHAN#);

      882     8279    2           IF TERMLO.TERM.CHANNEL ~= TERMHI.TERM.CHANNEL OR

   8279   0 00002C  C846 0001                            LDR,R4   1,B6
          0 00002E  C945 0001                            CMR,R4   1,B5
          0 000030  0981 0007                            BNE      s:8281,PREL
          0 000032  9846 0002                            LDR,R1   2,B6
          0 000034  9945 0002                            CMR,R1   2,B5
          0 000036  0381 0019                            BLE      s:8288,PREL

      883     8280    2                TERMLO.TERM.SUBDEVICE > TERMHI.TERM.SUBDEVICE
      884     8281    2           THEN ALTRETURN;

   8281   0 000038  C380 0000 0000  xent                 LNJ,B4   X6A_AALT

      885     8282    2        CASE(%TERMINAL_ID_LEV_SUBSUBCHAN#);

      886     8283    2           IF TERMLO.TERM.CHANNEL ~= TERMHI.TERM.CHANNEL OR

   8283   0 00003B  C846 0001                            LDR,R4   1,B6
          0 00003D  C945 0001                            CMR,R4   1,B5
          0 00003F  0981 000D                            BNE      s:8286,PREL
          0 000041  9846 0002                            LDR,R1   2,B6
          0 000043  9945 0002                            CMR,R1   2,B5
          0 000045  0981 0007                            BNE      s:8286,PREL
          0 000047  E846 0003                            LDR,R6   3,B6
          0 000049  E945 0003                            CMR,R6   3,B5
          0 00004B  0381 0004                            BLE      s:8288,PREL

      887     8284    2                TERMLO.TERM.SUBDEVICE ~= TERMHI.TERM.SUBDEVICE OR
      888     8285    2                TERMLO.TERM.SUBSUBDEVICE > TERMHI.TERM.SUBSUBDEVICE
      889     8286    2           THEN ALTRETURN;

   8286   0 00004D  C380 0000 0000  xent                 LNJ,B4   X6A_AALT
PL6.E3A0      #007=GJA$CHK_TRM_RNG File=GJA$SUBS.:E05TSI                         TUE 07/29/97 21:56 Page:167

      890     8287    2        END;                               /* DO CASE                  */

      891     8288    1        RETURN;

   8288   0 000050  C380 0000 0000  xent                 LNJ,B4   X6A_ARET
      892     8289    1   END GJA$CHK_TRM_RNG;
      893     8290        %EOD;

PL6.E3A0      #007=GJA$CHK_TRM_RNG File=GJA$SUBS.:E05TSI                         TUE 07/29/97 21:56 Page:168
--  Include file information  --

   KL_MACRO_C.:E05TOU  is referenced.
   CP_6_SUBS.:E05TOU  is referenced.
   G_LCP6_E.:E05TOU  is referenced.
   GT_LCP6_M.:E05TOU  is referenced.
   KI_CP6.:E05TOU  is referenced.
   GF_LCP6_M.:E05TOU  is referenced.
   GM_LCP6_M.:E05TOU  is referenced.
   GU_LCP6_M.:E05TOU  is referenced.
   GJ_LCP6_M.:E05TOU  is referenced.
   GH_LCP6_M.:E05TOU  is referenced.
   LCP_6.:E05TOU  cannot be made into a system file and is referenced.
      No diagnostics issued in procedure GJA$CHK_TRM_RNG.
PL6.E3A0      #007=GJA$CHK_TRM_RNG File=GJA$SUBS.:E05TSI                         TUE 07/29/97 21:56 Page:169

 **** Variables and constants ****

  ****  Auto variables  ****

  ****  Scalars and arrays  ****
HexLoc.c.b A Datatyp(siz) R M Lvl/name                 HexLoc.c.b A Datatyp(siz) R M Lvl/name

     6-0-0/w PTR         r     1 @TERMHI                    4-0-0/w PTR         r     1 @TERMLO
    *0-0-0/w STRC(128)   r     1 TERMHI                    *0-0-0/w STRC(128)   r     1 TERMLO


   Procedure GJA$CHK_TRM_RNG requires 83 words for executable code.
   Procedure GJA$CHK_TRM_RNG requires 8 words of local(AUTO) storage.
PL6.E3A0      #007=GJA$CHK_TRM_RNG File=GJA$SUBS.:E05TSI                         TUE 07/29/97 21:56 Page:170
          *** CROSS REFERENCE LISTING ***
**     DENOTES     IDENTIFIER DEFINITION
<<                 IDENTIFIER'S VALUE SET
>>                 IDENTIFIER'S VALUE USED
<>                 IDENTIFIER SET AND/OR USED
--                 IDENTIFIER REFERENCED
PL6.E3A0      #007=GJA$CHK_TRM_RNG File=GJA$SUBS.:E05TSI                         TUE 07/29/97 21:56 Page:171
          MINI XREF LISTING

TERMHI
      8256**DCL        39--PROC
TERMHI.LEV
      8260**DCL      8272>>IF
TERMHI.TERM
      8260**DCL      8269--REDEF
TERMHI.TERM.CHANNEL
      8266**DCL      8276>>IF       8279>>IF       8283>>IF
TERMHI.TERM.SUBDEVICE
      8266**DCL      8279>>IF       8283>>IF
TERMHI.TERM.SUBSUBDEVICE
      8266**DCL      8283>>IF
TERMLO
      8227**DCL        39--PROC
TERMLO.LEV
      8231**DCL      8272>>IF       8274>>DOCASE
TERMLO.TERM
      8231**DCL      8240--REDEF
TERMLO.TERM.CHANNEL
      8237**DCL      8276>>IF       8279>>IF       8283>>IF
TERMLO.TERM.SUBDEVICE
      8237**DCL      8279>>IF       8283>>IF
TERMLO.TERM.SUBSUBDEVICE
      8237**DCL      8283>>IF

