VERSION E05

PL6.E3A0      #001=GJA_DATA_D File=GJA_DATA_D.:E05TSI                            TUE 07/29/97 21:56 Page:1
        1        1        /*M* GJA_DATA_D.  Node Administrator static data module                       */
        2        2        /*T***********************************************************/
        3        3        /*T*                                                         */
        4        4        /*T* Copyright (c) Bull HN Information Systems Inc., 1997    */
        5        5        /*T*                                                         */
        6        6        /*T***********************************************************/
        7        7        /*P* NAME:     GJA_DATA_D
        8        8             PURPOSE:  This module contains SYMDEFS for all of node admins
        9        9                       static data.
       10       10        */
       11       11        GJA_DATA_D: PROC ;
       12       12
       13       13                                                /* INCLUDES                           */
       14       14        %INCLUDE B_ERRORS_C;
       15     1141        %INCLUDE LCP_6;
       16     5420        %INCLUDE KV$VDO;
       17     6435        %INCLUDE KV_PRMID_E;
       18     6609        %INCLUDE GJA_MSG_M;
       19     6848        %INCLUDE KI_SUBS_C;
       20     6984        %INCLUDE K_CP6_M;
       21     7180        %INCLUDE KNH_MACRO_C;                   /* Message templates                  */
       22     7463        %INCLUDE GH_IOFNC_E;
       23     7532        %INCLUDE KH$IO;
       24     7779        %INCLUDE KL_MACRO_C;
       25    11131        %INCLUDE KL_AFCN_C;                     /* 'IGA' Function Codes               */
       26    11232        %INCLUDE OC_SUBS_C;
       27    11963
       28    11964        %GJA_UID_EQUS;
       29    11972        %KV_VDO_ALL;
       30    14115        %KV_PRMID_E;
       31    14271
       32    14272                                                /* SYMDEFS                            */
       33    14273    1   DCL GJA_LDCT_NM UBIN STATIC SYMDEF INIT(0); /* LDCT index of the Network Manager*/
       34    14274    1   DCL GJA_LDCT_BABOON UBIN STATIC SYMDEF INIT(0); /* LDCT index of Baboon       */
       35    14275    1   DCL GJA_UID_NM UBIN(32) STATIC SYMDEF INIT(0);
       36    14276    1   DCL GJA_UID_NM$ REDEF GJA_UID_NM PTR;
       37    14277    1   DCL GJA_UID_BABOON UBIN(32) STATIC SYMDEF INIT(0);
PL6.E3A0      #001=GJA_DATA_D File=GJA_DATA_D.:E05TSI                            TUE 07/29/97 21:56 Page:2
       38    14278    1   DCL GJA_UID_BABOON$ REDEF GJA_UID_BABOON PTR;
       39    14279    1   DCL GJA_HAND_HEAD$ PTR STATIC SYMDEF INIT(ADDR(NIL));
       40    14280    1   DCL GJA_USRLGN_HEAD$ PTR STATIC SYMDEF INIT(ADDR(NIL));
       41    14281        /* The head of other NAs or NMs that we are connected to. */
       42    14282    1   DCL GJA_HOPCOST UBIN STATIC SYMDEF INIT(10);
       43    14283    1   DCL GJA_NM_HEAD$ PTR STATIC SYMDEF INIT(ADDR(NIL));
       44    14284    1   DCL GJA_INTLEV UBIN CONSTANT SYMDEF INIT(63);
       45    14285    1   DCL GJA_ATTR UBIN(16) STATIC SYMDEF;
       46    14286    1   DCL GJA_RCQSIZE UBIN  STATIC SYMDEF;
       47    14287    1   DCL GJA_SCQSIZE UBIN STATIC SYMDEF;
       48    14288    1   DCL GJA_MEMORY UBIN STATIC SYMDEF;
       49    14289
       50    14290        /* The address of the route table that is maintained by KNN$NETWORK */
       51    14291    1   DCL GJA_ROUTE$ PTR STATIC SYMDEF INIT(ADDR(NIL));
       52    14292    1   DCL GJA_OSIROUTE$ PTR STATIC SYMDEF INIT(ADDR(NIL));
       53    14293    1   DCL GJA_LINKS UBIN STATIC SYMDEF INIT(0);
       54    14294    1   DCL GJA_LINK$ PTR STATIC SYMDEF INIT(ADDR(NIL));
       55    14295    1   DCL GJA_OSIMAX# UBIN STATIC SYMDEF INIT(0);
       56    14296
       57    14297        /* Default node# for LOGON */
       58    14298    1   DCL GJA_DEFNODE UBIN STATIC SYMDEF INIT(0);
       59    14299    1   DCL GJA_HSTRSMED BIT(1) STATIC SYMDEF INIT('1'B);
       60    14300
       61    14301        /* Nodename for this node */
       62    14302    1   DCL GJA_NODENAME CHAR(8) STATIC SYMDEF INIT('FEPNODE');
       63    14303    1   DCL GJA_UID_NANM$ PTR STATIC SYMDEF INIT(ADDR(NIL));
       64    14304    1   DCL GJA_CHNRSP_HEAD$ PTR STATIC SYMDEF INIT(ADDR(NIL));
       65    14305    1   DCL GJA_LINE_HEAD$ PTR STATIC SYMDEF INIT(ADDR(NIL));
       66    14306    1   DCL GJA_ERRMSG_HEAD$ PTR STATIC SYMDEF INIT(ADDR(NIL));
       67    14307    1   DCL GJA$SYSLOG$ PTR STATIC SYMDEF INIT(ADDR(NIL));  /* list of errlogs/syslogs */
       68    14308
       69    14309    1   DCL GJA_RETRYMAX UBIN STATIC SYMDEF INIT(6);
       70    14310    1   DCL GJA_FIRST_TIME BIT(1) STATIC SYMDEF INIT('1'B);
       71    14311    1   DCL GJA_ONE_WAIT_UNIT UBIN STATIC SYMDEF INIT(1);
       72    14312    1   DCL GJA_NODE# UBIN STATIC SYMDEF INIT(0);
       73    14313    1   DCL GJA_MAXNODE UBIN STATIC SYMDEF INIT(0);
       74    14314
PL6.E3A0      #001=GJA_DATA_D File=GJA_DATA_D.:E05TSI                            TUE 07/29/97 21:56 Page:3
       75    14315        %EJECT;
PL6.E3A0      #001=GJA_DATA_D File=GJA_DATA_D.:E05TSI                            TUE 07/29/97 21:56 Page:4
       76    14316
       77    14317        %KV_VDOBYTSIZ (NAME=GJA_VDOBYTSIZ,STCLASS=CONSTANT SYMDEF);
       78    14337        %PLIST;
       79    14338        %KV$VDO_DAT(NAME=GJA_VDO_DAT_DAT1,STCLASS=CONSTANT SYMDEF,LAST=",",
       80    14339                    VLP=YES,FNC=KV_VDO_FNC_DAT,STR=KIDM_CP);
       81    14384             %KV$VDOVLP_DAT1(STCLASS="CONSTANT SYMDEF",LVL=2,LST=YES);
       82    14434
       83    14435        %KV$VDO_DAT(NAME=GJA_VDO_DAT_DAT2,STCLASS=STATIC SYMDEF,LAST=",",
       84    14436                    VLP=YES,FNC=KV_VDO_FNC_DAT,STR=KIDM_CP);
       85    14481             %KV$VDOVLP_DAT2(STCLASS="CONSTANT SYMDEF",LVL=2,LST=YES);
       86    14531
       87    14532        %KV$VDO_RQSDAT(NAME=GJA_SOLICIT_VDO_RQSDAT,STCLASS=CONSTANT SYMDEF,
       88    14533                       MAXRCRBYTSIZ=139,MAXNMBRCR=1,MAXNMBBYT=255,
       89    14534                       STR=KIDM_CP,RE_RED=NO);
       90    14582        %KV$VDO_DAT (NAME=GJA_LDDAT,STCLASS=CONSTANT SYMDEF,LAST=",",
       91    14583                       FNC=KV_VDO_FNC_DAT,VLP=YES,STR=KIDM_CP);
       92    14628             %KV$VDOVLP_ERR(NAME=ERR,STCLASS=CONSTANT,LST=YES,FCG=GJ,MID=A,ERR#=%E$LD,LVL=2)
             14628                 ;
       93    14725
       94    14726        %KV$VDO_PRM(NAME=GJA_PARAM_VDO,STCLASS=CONSTANT SYMDEF,LAST=",",
       95    14727                    FNC=KV_VDO_FNC_PRM_SET,VLP=YES,STR=KIDM_CP);
       96    14768             %KV$VDOVLP_DAT2(STCLASS="CONSTANT SYMDEF",LVL=2,LST=YES,LAST=",");
       97    14818    1           2 TL,
       98    14819    1             3 TYPE UBIN BYTE UNAL INIT(0),
       99    14820    1             3 LEN UBIN BYTE UNAL INIT(0);
      100    14821
      101    14822        %KV$VDO_PRM(NAME=GJA_PROMPT_VDO,STCLASS=STATIC SYMDEF,LAST=",",
      102    14823                    FNC=KV_VDO_FNC_PRM_SET,VLP=YES,STR=KIDM_CP);
      103    14864             %KV$VDOVLP_DAT2(STCLASS="CONSTANT SYMDEF",LVL=2,LST=YES,LAST=",",BYTSIZ=16);
      104    14914    1           2 TL,
      105    14915    1             3 TYPE UBIN BYTE UNAL INIT(%KV_PRMID_PRM),
      106    14916    1             3 LEN UBIN BYTE UNAL INIT(14),
      107    14917    1             2 PROMPT CHAR(40) UNAL INIT('aLOGON PLEASE:');
      108    14918        %KV$VDO_PRM(NAME=GJA_RPROMPT_VDO,STCLASS=CONSTANT SYMDEF,LAST=",",
      109    14919                    FNC=KV_VDO_FNC_PRM_SET,VLP=YES,STR=KIDM_CP);
      110    14960             %KV$VDOVLP_DAT2(STCLASS="CONSTANT SYMDEF",LVL=2,LST=YES,LAST=",",BYTSIZ=4);
      111    15010    1           2 TL,
PL6.E3A0      #001=GJA_DATA_D File=GJA_DATA_D.:E05TSI                            TUE 07/29/97 21:56 Page:5
      112    15011    1             3 TYPE UBIN BYTE UNAL INIT(%KV_PRMID_PRM),
      113    15012    1             3 LEN UBIN BYTE UNAL INIT(2),
      114    15013    1             2 PROMPT CHAR(2) UNAL INIT('p!');
      115    15014
      116    15015        %KV$VDO_STT (NAME=GJA_VDO_STT,STCLASS="STATIC SYMDEF",LAST=",",VLP=YES);
      117    15056        %KV$VDOVLP_DAT1 (NAME=DAT1,LST=YES,LAST=",",LVL=2,STCLASS=STATIC);
      118    15106    1         2 STATE CHAR(255);
      119    15107
      120    15108
      121    15109
      122    15110        %KV$VDO_MRK (NAME=GJA_VDO_MRK,STCLASS="STATIC SYMDEF",LAST=",",VLP=YES);
      123    15151        %KV$VDOVLP_MRK (NAME=VDOVLP_MRK,LST=YES,LVL=2,STCLASS="STATIC SYMDEF",RSP=YES);
      124    15204
      125    15205
      126    15206
      127    15207                                                /* Connect message                    */
      128    15208        %FPT_CONNECT(FPTN=GJA_CONNECT,TYPE=SESSION,RESOURCE='NETMAN',
      129    15209                     STCLASS=STATIC SYMDEF);
      130    15278
      131    15279        %FPT_CONNECT_ACK (FPTN=GJA_CONNECT_ACK,REASON=0,STCLASS=STATIC SYMDEF);
      132    15328
      133    15329        %FPT_TERM(FPTN=GJA_TERM,STCLASS=CONSTANT SYMDEF);
      134    15351        %FPT_TERM_ACK(FPTN=GJA_TERM_ACK,STCLASS=CONSTANT SYMDEF);
      135    15373
      136    15374
      137    15375        %VLP_TRMCTL(FPTN=GJA_VLP_TRMCTL,STCLASS=CONSTANT SYMDEF);
      138    15415
      139    15416                                                /* Static channel table               */
      140    15417                                                /* Low channel pointer                */
      141    15418    1   DCL GJA_CHNLOW$ PTR STATIC SYMDEF INIT(ADDR(NIL));
      142    15419                                                /* High Channel pointer               */
      143    15420    1   DCL GJA_CHNHI$ PTR STATIC SYMDEF INIT(ADDR(NIL));
      144    15421                                                /* Low channel                        */
      145    15422    1   DCL GJA_CHNLOW UBIN STATIC SYMDEF INIT(0);
      146    15423                                                /* High channel                       */
      147    15424    1   DCL GJA_CHNHI UBIN STATIC SYMDEF INIT(0);
      148    15425    1   DCL GJA_CHNFREE$ PTR STATIC SYMDEF INIT(ADDR(NIL));
PL6.E3A0      #001=GJA_DATA_D File=GJA_DATA_D.:E05TSI                            TUE 07/29/97 21:56 Page:6
      149    15426                                                /* Broadcast message pointer          */
      150    15427                                                /* Host down message pointer          */
      151    15428    1   DCL GJA_MSG_HOSTDOWN$ PTR STATIC SYMDEF INIT(ADDR(NIL));
      152    15429                                                /* Link down message pointer          */
      153    15430    1   DCL GJA_MSG_LINKDOWN$ PTR STATIC SYMDEF INIT(ADDR(NIL));
      154    15431                                                /* Current down message pointer */
      155    15432    1   DCL GJA_MSG_DOWN$ PTR STATIC SYMDEF INIT(ADDR(NIL));
      156    15433                                                /* Host resumed message */
      157    15434    1   DCL GJA_HOSTRESUMED$ PTR STATIC SYMDEF INIT(ADDR(NIL));
      158    15435                                                /* Logon timed out message */
      159    15436    1   DCL GJA_LGNTIMEDOUT$ PTR STATIC SYMDEF INIT(ADDR(NIL));
      160    15437                                                /* Unable to log you on message */
      161    15438    1   DCL GJA_NOLOGONMSG$ PTR STATIC SYMDEF INIT(ADDR(NIL));
      162    15439                                                /* Salutation pointer                 */
      163    15440    1   DCL GJA_MSG_SALUTE$ PTR STATIC SYMDEF INIT(ADDR(NIL));
      164    15441                                                /* Sendall message pointer            */
      165    15442                                                /* Salutation header                  */
      166    15443    1   DCL GJA_MSG_HDR$ PTR STATIC SYMDEF INIT(ADDR(NIL));
      167    15444    1   DCL GJA_MSG_SGSYN$ PTR STATIC SYMDEF INIT(ADDR(NIL)); /* ptr to bad syntax message*/
      168    15445    1   DCL GJA_MSG_NOHOST$ PTR STATIC SYMDEF INIT(ADDR(NIL));
             15445            /* ptr to no host syntax error*/
      169    15446    1   DCL GJA_MSG_UDHOST$ PTR STATIC SYMDEF INIT(ADDR(NIL));
             15446            /* ptr to undefined host syntax error*/
      170    15447    1   DCL GJA_MSG_BDID$ PTR STATIC SYMDEF INIT(ADDR(NIL)); /* ptr to BAD Id syntax error*/
      171    15448    1   DCL GJA_MAXRDS UBIN STATIC SYMDEF INIT(20);
             15448            /* max number of reads out to the handlers. */
      172    15449        %GJA_NODETBL(NAME = GJA$NODETBL,STCLASS="STATIC SYMDEF");
      173    15473        /*
      174    15474             nodeadmn errlog buffer .
      175    15475        */
      176    15476        %KL_SYSLOG(FPTN=GJA_SYSLOG,LAST=",",STCLASS="STATIC SYMDEF",FILENUM=ERRLOG);
      177    15500        %KL_ERRLOG(FPTN=ERRLOG,FCG='GJ',MID='A',MON='1'B,ERR#=0,LAST=",",LVL=2,STCLASS=
             15500            "STATIC SYMDEF");
      178    15608    1        3 DATA CHAR(200) UNAL;
      179    15609
      180    15610
      181    15611        %KL_RQSCHN (FPTN=GJA_RQSCHN,STCLASS="CONSTANT SYMDEF",DFLTCHN=YES);
PL6.E3A0      #001=GJA_DATA_D File=GJA_DATA_D.:E05TSI                            TUE 07/29/97 21:56 Page:7
      182    15714        %KL_ADMIN (FPTN=GJA_ADMIN,STCLASS="CONSTANT SYMDEF",ORIGIN='NODEADMN');
      183    15875
      184    15876        %KH$IO (FPTN=GJA_IO,FNC=%GH#IO_OTPCHNCTR,CHNINT=YES,STCLASS="STATIC SYMDEF");
      185    15990    1   END GJA_DATA_D;

PL6.E3A0      #001=GJA_DATA_D File=GJA_DATA_D.:E05TSI                            TUE 07/29/97 21:56 Page:8
--  Include file information  --

   OC_SUBS_C.:E05TOU  is referenced.
   KL_AFCN_C.:E05TOU  is referenced.
   KL_MACRO_C.:E05TOU  is referenced.
   KH$IO.:E05TOU  is referenced.
   GH_IOFNC_E.:E05TOU  is referenced.
   KNH_MACRO_C.:E05TOU  is referenced.
   K_CP6_M.:E05TOU  is referenced.
   KI_SUBS_C.:E05TOU  is referenced.
   GJA_MSG_M.:E05TOU  is referenced.
   KV_PRMID_E.:E05TOU  is referenced.
   KV$VDO.:E05TOU  is referenced.
   G_LCP6_E.:E05TOU  is referenced.
   GT_LCP6_M.:E05TOU  is referenced.
   KI_CP6.:E05TOU  is referenced.
   GF_LCP6_M.:E05TOU  is referenced.
   GM_LCP6_M.:E05TOU  is referenced.
   GU_LCP6_M.:E05TOU  is referenced.
   GJ_LCP6_M.:E05TOU  is referenced.
   GH_LCP6_M.:E05TOU  is referenced.
   LCP_6.:E05TOU  cannot be made into a system file and is referenced.
   B_ERRORS_C.:E05TOU  is referenced.
      No diagnostics issued in procedure GJA_DATA_D.

   No code generated for procedure GJA_DATA_D .
   Procedure GJA_DATA_D requires 4 words of local(AUTO) storage.

    No errors detected in file GJA_DATA_D.:E05TSI    .

PL6.E3A0      #001=GJA_DATA_D File=GJA_DATA_D.:E05TSI                            TUE 07/29/97 21:56 Page:9

 Object Unit name= GJA_DATA_D                                 File name= GJA_DATA_D.:E05TOU
 UTS= JUL 29 '97 21:56:01.16 TUE                              Compiler= PL-6/E31         Sev=      00
 SharedLib= :SHARED_LCP6_SYSTEM                               Alt SharedLib=


    ****  Control sections  ****

 Sect   Type Bound  Init  Size HexSiz  Section name
    0   Data  even  none  1669    685  GJA_DATA_D
    1  RoData even  UTS    103     67  GJA_DATA_D
    2   Proc  even  none     0      0  GJA_DATA_D

    ****  Entry defs  ****

                              Check   Calling
                             calling  sequence
  Sect HexLoc Primary Altret sequence   type   Parms  Name
     2      0   yes            yes     ~proc       0  GJA_DATA_D
PL6.E3A0      #001=GJA_DATA_D File=GJA_DATA_D.:E05TSI                            TUE 07/29/97 21:56 Page:10

  ****  Data defs  ****

 Sect HexLoc  Name                           Sect HexLoc  Name
    0      0  GJA_LDCT_NM                        0      1  GJA_LDCT_BABOON
    0      2  GJA_UID_NM                         0      4  GJA_UID_BABOON
    0      6  GJA_HAND_HEAD$                     0      8  GJA_USRLGN_HEAD$
    0      A  GJA_HOPCOST                        0      B  GJA_NM_HEAD$
    1      0  GJA_INTLEV                         0      D  GJA_ATTR
    0      E  GJA_RCQSIZE                        0      F  GJA_SCQSIZE
    0     10  GJA_MEMORY                         0     11  GJA_ROUTE$
    0     13  GJA_OSIROUTE$                      0     15  GJA_LINKS
    0     16  GJA_LINK$                          0     18  GJA_OSIMAX#
    0     19  GJA_DEFNODE                        0     1A  GJA_HSTRSMED
    0     1B  GJA_NODENAME                       0     1F  GJA_UID_NANM$
    0     21  GJA_CHNRSP_HEAD$                   0     23  GJA_LINE_HEAD$
    0     25  GJA_ERRMSG_HEAD$                   0     27  GJA$SYSLOG$
    0     29  GJA_RETRYMAX                       0     2A  GJA_FIRST_TIME
    0     2B  GJA_ONE_WAIT_UNIT                  0     2C  GJA_NODE#
    0     2D  GJA_MAXNODE                        1      1  GJA_VDOBYTSIZ
    1     13  GJA_VDO_DAT_DAT1                   0     2E  GJA_VDO_DAT_DAT2
    1     16  GJA_SOLICIT_VDO_RQSDAT             1     1B  GJA_LDDAT
    1     20  GJA_PARAM_VDO                      0     32  GJA_PROMPT_VDO
    1     24  GJA_RPROMPT_VDO                    0     4A  GJA_VDO_STT
    0     CC  GJA_VDO_MRK                        0     D1  GJA_CONNECT
    0     E4  GJA_CONNECT_ACK                    1     29  GJA_TERM
    1     2D  GJA_TERM_ACK                       1     2F  GJA_VLP_TRMCTL
    0     EA  GJA_CHNLOW$                        0     EC  GJA_CHNHI$
    0     EE  GJA_CHNLOW                         0     EF  GJA_CHNHI
    0     F0  GJA_CHNFREE$                       0     F2  GJA_MSG_HOSTDOWN$
    0     F4  GJA_MSG_LINKDOWN$                  0     F6  GJA_MSG_DOWN$
    0     F8  GJA_HOSTRESUMED$                   0     FA  GJA_LGNTIMEDOUT$
    0     FC  GJA_NOLOGONMSG$                    0     FE  GJA_MSG_SALUTE$
    0    100  GJA_MSG_HDR$                       0    102  GJA_MSG_SGSYN$
    0    104  GJA_MSG_NOHOST$                    0    106  GJA_MSG_UDHOST$
    0    108  GJA_MSG_BDID$                      0    10A  GJA_MAXRDS
    0    10B  GJA$NODETBL                        0    60C  GJA_SYSLOG
    1     37  GJA_RQSCHN                         1     45  GJA_ADMIN
PL6.E3A0      #001=GJA_DATA_D File=GJA_DATA_D.:E05TSI                            TUE 07/29/97 21:56 Page:11
    0    683  GJA_IO

  ****  Data refs  ****

  Flags:  r = read only, s = secondary
Flgs Name                             Flgs Name                             Flgs Name
r    G$ROS$
PL6.E3A0      #001=GJA_DATA_D File=GJA_DATA_D.:E05TSI                            TUE 07/29/97 21:56 Page:12

        1        1        /*M* GJA_DATA_D.  Node Administrator static data module                       */
        2        2        /*T***********************************************************/
        3        3        /*T*                                                         */
        4        4        /*T* Copyright (c) Bull HN Information Systems Inc., 1997    */
        5        5        /*T*                                                         */
        6        6        /*T***********************************************************/
        7        7        /*P* NAME:     GJA_DATA_D
        8        8             PURPOSE:  This module contains SYMDEFS for all of node admins
        9        9                       static data.
       10       10        */
       11       11        GJA_DATA_D: PROC ;
       12       12
       13       13                                                /* INCLUDES                           */
       14       14        %INCLUDE B_ERRORS_C;
       15     1141        %INCLUDE LCP_6;
       16     5420        %INCLUDE KV$VDO;
       17     6435        %INCLUDE KV_PRMID_E;
       18     6609        %INCLUDE GJA_MSG_M;
       19     6848        %INCLUDE KI_SUBS_C;
       20     6984        %INCLUDE K_CP6_M;
       21     7180        %INCLUDE KNH_MACRO_C;                   /* Message templates                  */
       22     7463        %INCLUDE GH_IOFNC_E;
       23     7532        %INCLUDE KH$IO;
       24     7779        %INCLUDE KL_MACRO_C;
       25    11131        %INCLUDE KL_AFCN_C;                     /* 'IGA' Function Codes               */
       26    11232        %INCLUDE OC_SUBS_C;
       27    11963
       28    11964        %GJA_UID_EQUS;
       29    11972        %KV_VDO_ALL;
       30    14115        %KV_PRMID_E;
       31    14271
       32    14272                                                /* SYMDEFS                            */
       33    14273    1   DCL GJA_LDCT_NM UBIN STATIC SYMDEF INIT(0); /* LDCT index of the Network Manager*/
       34    14274    1   DCL GJA_LDCT_BABOON UBIN STATIC SYMDEF INIT(0); /* LDCT index of Baboon       */
       35    14275    1   DCL GJA_UID_NM UBIN(32) STATIC SYMDEF INIT(0);
       36    14276    1   DCL GJA_UID_NM$ REDEF GJA_UID_NM PTR;
       37    14277    1   DCL GJA_UID_BABOON UBIN(32) STATIC SYMDEF INIT(0);
PL6.E3A0      #001=GJA_DATA_D File=GJA_DATA_D.:E05TSI                            TUE 07/29/97 21:56 Page:13
       38    14278    1   DCL GJA_UID_BABOON$ REDEF GJA_UID_BABOON PTR;
       39    14279    1   DCL GJA_HAND_HEAD$ PTR STATIC SYMDEF INIT(ADDR(NIL));
       40    14280    1   DCL GJA_USRLGN_HEAD$ PTR STATIC SYMDEF INIT(ADDR(NIL));
       41    14281        /* The head of other NAs or NMs that we are connected to. */
       42    14282    1   DCL GJA_HOPCOST UBIN STATIC SYMDEF INIT(10);
       43    14283    1   DCL GJA_NM_HEAD$ PTR STATIC SYMDEF INIT(ADDR(NIL));
       44    14284    1   DCL GJA_INTLEV UBIN CONSTANT SYMDEF INIT(63);
       45    14285    1   DCL GJA_ATTR UBIN(16) STATIC SYMDEF;
       46    14286    1   DCL GJA_RCQSIZE UBIN  STATIC SYMDEF;
       47    14287    1   DCL GJA_SCQSIZE UBIN STATIC SYMDEF;
       48    14288    1   DCL GJA_MEMORY UBIN STATIC SYMDEF;
       49    14289
       50    14290        /* The address of the route table that is maintained by KNN$NETWORK */
       51    14291    1   DCL GJA_ROUTE$ PTR STATIC SYMDEF INIT(ADDR(NIL));
       52    14292    1   DCL GJA_OSIROUTE$ PTR STATIC SYMDEF INIT(ADDR(NIL));
       53    14293    1   DCL GJA_LINKS UBIN STATIC SYMDEF INIT(0);
       54    14294    1   DCL GJA_LINK$ PTR STATIC SYMDEF INIT(ADDR(NIL));
       55    14295    1   DCL GJA_OSIMAX# UBIN STATIC SYMDEF INIT(0);
       56    14296
       57    14297        /* Default node# for LOGON */
       58    14298    1   DCL GJA_DEFNODE UBIN STATIC SYMDEF INIT(0);
       59    14299    1   DCL GJA_HSTRSMED BIT(1) STATIC SYMDEF INIT('1'B);
       60    14300
       61    14301        /* Nodename for this node */
       62    14302    1   DCL GJA_NODENAME CHAR(8) STATIC SYMDEF INIT('FEPNODE');
       63    14303    1   DCL GJA_UID_NANM$ PTR STATIC SYMDEF INIT(ADDR(NIL));
       64    14304    1   DCL GJA_CHNRSP_HEAD$ PTR STATIC SYMDEF INIT(ADDR(NIL));
       65    14305    1   DCL GJA_LINE_HEAD$ PTR STATIC SYMDEF INIT(ADDR(NIL));
       66    14306    1   DCL GJA_ERRMSG_HEAD$ PTR STATIC SYMDEF INIT(ADDR(NIL));
       67    14307    1   DCL GJA$SYSLOG$ PTR STATIC SYMDEF INIT(ADDR(NIL));  /* list of errlogs/syslogs */
       68    14308
       69    14309    1   DCL GJA_RETRYMAX UBIN STATIC SYMDEF INIT(6);
       70    14310    1   DCL GJA_FIRST_TIME BIT(1) STATIC SYMDEF INIT('1'B);
       71    14311    1   DCL GJA_ONE_WAIT_UNIT UBIN STATIC SYMDEF INIT(1);
       72    14312    1   DCL GJA_NODE# UBIN STATIC SYMDEF INIT(0);
       73    14313    1   DCL GJA_MAXNODE UBIN STATIC SYMDEF INIT(0);
       74    14314
PL6.E3A0      #001=GJA_DATA_D File=GJA_DATA_D.:E05TSI                            TUE 07/29/97 21:56 Page:14
       75    14315        %EJECT;
PL6.E3A0      #001=GJA_DATA_D File=GJA_DATA_D.:E05TSI                            TUE 07/29/97 21:56 Page:15
       76    14316
       77    14317        %KV_VDOBYTSIZ (NAME=GJA_VDOBYTSIZ,STCLASS=CONSTANT SYMDEF);
       78    14337        %PLIST;
       79    14338        %KV$VDO_DAT(NAME=GJA_VDO_DAT_DAT1,STCLASS=CONSTANT SYMDEF,LAST=",",
       80    14339                    VLP=YES,FNC=KV_VDO_FNC_DAT,STR=KIDM_CP);
       81    14384             %KV$VDOVLP_DAT1(STCLASS="CONSTANT SYMDEF",LVL=2,LST=YES);
       82    14434
       83    14435        %KV$VDO_DAT(NAME=GJA_VDO_DAT_DAT2,STCLASS=STATIC SYMDEF,LAST=",",
       84    14436                    VLP=YES,FNC=KV_VDO_FNC_DAT,STR=KIDM_CP);
       85    14481             %KV$VDOVLP_DAT2(STCLASS="CONSTANT SYMDEF",LVL=2,LST=YES);
       86    14531
       87    14532        %KV$VDO_RQSDAT(NAME=GJA_SOLICIT_VDO_RQSDAT,STCLASS=CONSTANT SYMDEF,
       88    14533                       MAXRCRBYTSIZ=139,MAXNMBRCR=1,MAXNMBBYT=255,
       89    14534                       STR=KIDM_CP,RE_RED=NO);
       90    14582        %KV$VDO_DAT (NAME=GJA_LDDAT,STCLASS=CONSTANT SYMDEF,LAST=",",
       91    14583                       FNC=KV_VDO_FNC_DAT,VLP=YES,STR=KIDM_CP);
       92    14628            %KV$VDOVLP_ERR(NAME=ERR,STCLASS=CONSTANT,LST=YES,FCG=GJ,MID=A,ERR#=%E$LD,LVL=2)
             14628                 ;
       93    14725
       94    14726        %KV$VDO_PRM(NAME=GJA_PARAM_VDO,STCLASS=CONSTANT SYMDEF,LAST=",",
       95    14727                    FNC=KV_VDO_FNC_PRM_SET,VLP=YES,STR=KIDM_CP);
       96    14768             %KV$VDOVLP_DAT2(STCLASS="CONSTANT SYMDEF",LVL=2,LST=YES,LAST=",");
       97    14818    1           2 TL,
       98    14819    1             3 TYPE UBIN BYTE UNAL INIT(0),
       99    14820    1             3 LEN UBIN BYTE UNAL INIT(0);
      100    14821
      101    14822        %KV$VDO_PRM(NAME=GJA_PROMPT_VDO,STCLASS=STATIC SYMDEF,LAST=",",
      102    14823                    FNC=KV_VDO_FNC_PRM_SET,VLP=YES,STR=KIDM_CP);
      103    14864             %KV$VDOVLP_DAT2(STCLASS="CONSTANT SYMDEF",LVL=2,LST=YES,LAST=",",BYTSIZ=16);
      104    14914    1           2 TL,
      105    14915    1             3 TYPE UBIN BYTE UNAL INIT(%KV_PRMID_PRM),
      106    14916    1             3 LEN UBIN BYTE UNAL INIT(14),
      107    14917    1             2 PROMPT CHAR(40) UNAL INIT('aLOGON PLEASE:');
      108    14918        %KV$VDO_PRM(NAME=GJA_RPROMPT_VDO,STCLASS=CONSTANT SYMDEF,LAST=",",
      109    14919                    FNC=KV_VDO_FNC_PRM_SET,VLP=YES,STR=KIDM_CP);
      110    14960             %KV$VDOVLP_DAT2(STCLASS="CONSTANT SYMDEF",LVL=2,LST=YES,LAST=",",BYTSIZ=4);
      111    15010    1           2 TL,
PL6.E3A0      #001=GJA_DATA_D File=GJA_DATA_D.:E05TSI                            TUE 07/29/97 21:56 Page:16
      112    15011    1             3 TYPE UBIN BYTE UNAL INIT(%KV_PRMID_PRM),
      113    15012    1             3 LEN UBIN BYTE UNAL INIT(2),
      114    15013    1             2 PROMPT CHAR(2) UNAL INIT('p!');
      115    15014
      116    15015        %KV$VDO_STT (NAME=GJA_VDO_STT,STCLASS="STATIC SYMDEF",LAST=",",VLP=YES);
      117    15056        %KV$VDOVLP_DAT1 (NAME=DAT1,LST=YES,LAST=",",LVL=2,STCLASS=STATIC);
      118    15106    1         2 STATE CHAR(255);
      119    15107
      120    15108
      121    15109
      122    15110        %KV$VDO_MRK (NAME=GJA_VDO_MRK,STCLASS="STATIC SYMDEF",LAST=",",VLP=YES);
      123    15151        %KV$VDOVLP_MRK (NAME=VDOVLP_MRK,LST=YES,LVL=2,STCLASS="STATIC SYMDEF",RSP=YES);
      124    15204
      125    15205
      126    15206
      127    15207                                                /* Connect message                    */
      128    15208        %FPT_CONNECT(FPTN=GJA_CONNECT,TYPE=SESSION,RESOURCE='NETMAN',
      129    15209                     STCLASS=STATIC SYMDEF);
      130    15278
      131    15279        %FPT_CONNECT_ACK (FPTN=GJA_CONNECT_ACK,REASON=0,STCLASS=STATIC SYMDEF);
      132    15328
      133    15329        %FPT_TERM(FPTN=GJA_TERM,STCLASS=CONSTANT SYMDEF);
      134    15351        %FPT_TERM_ACK(FPTN=GJA_TERM_ACK,STCLASS=CONSTANT SYMDEF);
      135    15373
      136    15374
      137    15375        %VLP_TRMCTL(FPTN=GJA_VLP_TRMCTL,STCLASS=CONSTANT SYMDEF);
      138    15415
      139    15416                                                /* Static channel table               */
      140    15417                                                /* Low channel pointer                */
      141    15418    1   DCL GJA_CHNLOW$ PTR STATIC SYMDEF INIT(ADDR(NIL));
      142    15419                                                /* High Channel pointer               */
      143    15420    1   DCL GJA_CHNHI$ PTR STATIC SYMDEF INIT(ADDR(NIL));
      144    15421                                                /* Low channel                        */
      145    15422    1   DCL GJA_CHNLOW UBIN STATIC SYMDEF INIT(0);
      146    15423                                                /* High channel                       */
      147    15424    1   DCL GJA_CHNHI UBIN STATIC SYMDEF INIT(0);
      148    15425    1   DCL GJA_CHNFREE$ PTR STATIC SYMDEF INIT(ADDR(NIL));
PL6.E3A0      #001=GJA_DATA_D File=GJA_DATA_D.:E05TSI                            TUE 07/29/97 21:56 Page:17
      149    15426                                                /* Broadcast message pointer          */
      150    15427                                                /* Host down message pointer          */
      151    15428    1   DCL GJA_MSG_HOSTDOWN$ PTR STATIC SYMDEF INIT(ADDR(NIL));
      152    15429                                                /* Link down message pointer          */
      153    15430    1   DCL GJA_MSG_LINKDOWN$ PTR STATIC SYMDEF INIT(ADDR(NIL));
      154    15431                                                /* Current down message pointer */
      155    15432    1   DCL GJA_MSG_DOWN$ PTR STATIC SYMDEF INIT(ADDR(NIL));
      156    15433                                                /* Host resumed message */
      157    15434    1   DCL GJA_HOSTRESUMED$ PTR STATIC SYMDEF INIT(ADDR(NIL));
      158    15435                                                /* Logon timed out message */
      159    15436    1   DCL GJA_LGNTIMEDOUT$ PTR STATIC SYMDEF INIT(ADDR(NIL));
      160    15437                                                /* Unable to log you on message */
      161    15438    1   DCL GJA_NOLOGONMSG$ PTR STATIC SYMDEF INIT(ADDR(NIL));
      162    15439                                                /* Salutation pointer                 */
      163    15440    1   DCL GJA_MSG_SALUTE$ PTR STATIC SYMDEF INIT(ADDR(NIL));
      164    15441                                                /* Sendall message pointer            */
      165    15442                                                /* Salutation header                  */
      166    15443    1   DCL GJA_MSG_HDR$ PTR STATIC SYMDEF INIT(ADDR(NIL));
      167    15444    1  DCL GJA_MSG_SGSYN$ PTR STATIC SYMDEF INIT(ADDR(NIL)); /* ptr to bad syntax message*/
      168    15445    1   DCL GJA_MSG_NOHOST$ PTR STATIC SYMDEF INIT(ADDR(NIL));
             15445            /* ptr to no host syntax error*/
      169    15446    1   DCL GJA_MSG_UDHOST$ PTR STATIC SYMDEF INIT(ADDR(NIL));
             15446            /* ptr to undefined host syntax error*/
      170    15447    1  DCL GJA_MSG_BDID$ PTR STATIC SYMDEF INIT(ADDR(NIL)); /* ptr to BAD Id syntax error*/
      171    15448    1   DCL GJA_MAXRDS UBIN STATIC SYMDEF INIT(20);
             15448            /* max number of reads out to the handlers. */
      172    15449        %GJA_NODETBL(NAME = GJA$NODETBL,STCLASS="STATIC SYMDEF");
      173    15473        /*
      174    15474             nodeadmn errlog buffer .
      175    15475        */
      176    15476        %KL_SYSLOG(FPTN=GJA_SYSLOG,LAST=",",STCLASS="STATIC SYMDEF",FILENUM=ERRLOG);
      177    15500        %KL_ERRLOG(FPTN=ERRLOG,FCG='GJ',MID='A',MON='1'B,ERR#=0,LAST=",",LVL=2,STCLASS=
             15500            "STATIC SYMDEF");
      178    15608    1        3 DATA CHAR(200) UNAL;
      179    15609
      180    15610
      181    15611        %KL_RQSCHN (FPTN=GJA_RQSCHN,STCLASS="CONSTANT SYMDEF",DFLTCHN=YES);
PL6.E3A0      #001=GJA_DATA_D File=GJA_DATA_D.:E05TSI                            TUE 07/29/97 21:56 Page:18
      182    15714        %KL_ADMIN (FPTN=GJA_ADMIN,STCLASS="CONSTANT SYMDEF",ORIGIN='NODEADMN');
      183    15875
      184    15876        %KH$IO (FPTN=GJA_IO,FNC=%GH#IO_OTPCHNCTR,CHNINT=YES,STCLASS="STATIC SYMDEF");
      185    15990    1   END GJA_DATA_D;

PL6.E3A0      #001=GJA_DATA_D File=GJA_DATA_D.:E05TSI                            TUE 07/29/97 21:56 Page:19
--  Include file information  --

   OC_SUBS_C.:E05TOU  is referenced.
   KL_AFCN_C.:E05TOU  is referenced.
   KL_MACRO_C.:E05TOU  is referenced.
   KH$IO.:E05TOU  is referenced.
   GH_IOFNC_E.:E05TOU  is referenced.
   KNH_MACRO_C.:E05TOU  is referenced.
   K_CP6_M.:E05TOU  is referenced.
   KI_SUBS_C.:E05TOU  is referenced.
   GJA_MSG_M.:E05TOU  is referenced.
   KV_PRMID_E.:E05TOU  is referenced.
   KV$VDO.:E05TOU  is referenced.
   G_LCP6_E.:E05TOU  is referenced.
   GT_LCP6_M.:E05TOU  is referenced.
   KI_CP6.:E05TOU  is referenced.
   GF_LCP6_M.:E05TOU  is referenced.
   GM_LCP6_M.:E05TOU  is referenced.
   GU_LCP6_M.:E05TOU  is referenced.
   GJ_LCP6_M.:E05TOU  is referenced.
   GH_LCP6_M.:E05TOU  is referenced.
   LCP_6.:E05TOU  cannot be made into a system file and is referenced.
   B_ERRORS_C.:E05TOU  is referenced.
      No diagnostics issued in procedure GJA_DATA_D.
PL6.E3A0      #001=GJA_DATA_D File=GJA_DATA_D.:E05TSI                            TUE 07/29/97 21:56 Page:20

 **** Variables and constants ****

  ****  BASED and DCB variables  ****

  ****  Scalars and arrays  ****
HexLoc.c.b A Datatyp(siz) R M Lvl/name                 HexLoc.c.b A Datatyp(siz) R M Lvl/name

     0-0-0/w STRC(48)    r     1 KV$VDO_BLKDAT              0-0-0/w STRC(32)    r     1 KV$VDO_CLSSSN
     0-0-0/w STRC(32)    r     1 KV$VDO_CLSSTR              0-0-0/w STRC(32)    r     1 KV$VDO_DAT
     0-0-0/w STRC(96)    r     1 KV$VDO_DCLFLD              0-0-0/w STRC(32)    r     1 KV$VDO_DCLSTR
     0-0-0/w STRC(32)    r     1 KV$VDO_DLT                 0-0-0/w STRC(32)    r     1 KV$VDO_DSC
     0-0-0/w STRC(32)    r     1 KV$VDO_ERS                 0-0-0/w STRC(32)    r     1 KV$VDO_EVT
     0-0-0/w STRC(32)    r     1 KV$VDO_HVPS                0-0-0/w STRC(16)    r     1 KV$VDO_MRK
     0-0-0/w STRC(16)    r     1 KV$VDO_NOP                 0-0-0/w STRC(32)    r     1 KV$VDO_OPNSSN
     0-0-0/w STRC(48)    r     1 KV$VDO_OPNSTR              0-0-0/w STRC(16)    r     1 KV$VDO_PRM
     0-0-0/w STRC(16)    r     1 KV$VDO_RLSFLD              0-0-0/w STRC(16)    r     1 KV$VDO_RMS
     0-0-0/w STRC(80)    r     1 KV$VDO_RQSDAT              0-0-0/w STRC(16)    r     1 KV$VDO_RQSMRK
     0-0-0/w STRC(48)    r     1 KV$VDO_RQSPRM              0-0-0/w STRC(16)    r     1 KV$VDO_RQSSTT
     0-0-0/w STRC(16)    r     1 KV$VDO_SLCFLD              0-0-0/w STRC(32)    r     1 KV$VDO_SLCGRPRND
     0-0-0/w STRC(32)    r     1 KV$VDO_SLCQLF              0-0-0/w STRC(32)    r     1 KV$VDO_SMS
     0-0-0/w STRC(16)    r     1 KV$VDO_STT                 0-0-0/w STRC(16)    r     1 KV$VDO_UPDRELDVC


   No code generated for procedure GJA_DATA_D .
   Procedure GJA_DATA_D requires 4 words of local(AUTO) storage.

    No errors detected in file GJA_DATA_D.:E05TSI    .
PL6.E3A0      #001=GJA_DATA_D File=GJA_DATA_D.:E05TSI                            TUE 07/29/97 21:56 Page:21
          *** CROSS REFERENCE LISTING ***
**     DENOTES     IDENTIFIER DEFINITION
<<                 IDENTIFIER'S VALUE SET
>>                 IDENTIFIER'S VALUE USED
<>                 IDENTIFIER SET AND/OR USED
--                 IDENTIFIER REFERENCED
PL6.E3A0      #001=GJA_DATA_D File=GJA_DATA_D.:E05TSI                            TUE 07/29/97 21:56 Page:22
          MINI XREF LISTING

GJA_ADMIN.TERMID_HI.TERM
     15863**DCL     15872--REDEF
GJA_ADMIN.TERMID_LO.TERM
     15834**DCL     15843--REDEF
GJA_CONNECT.RLCID.GENERATION
     15259**DCL     15260--REDEF
GJA_CONNECT.RLCID.LDCTX
     15260**DCL     15260--REDEF
GJA_CONNECT.TERMINAL_ID.TERM
     15248**DCL     15257--REDEF
GJA_CONNECT_ACK.UID.UID
     15323**DCL     15323--REDEF   15323--REDEF
GJA_RQSCHN.TERMINAL_ID.TERM
     15680**DCL     15689--REDEF
GJA_SYSLOG.ERRLOG.TERMID.TERM
     15590**DCL     15599--REDEF
GJA_UID_BABOON
     14277**DCL     14278--REDEF
GJA_UID_NM
     14275**DCL     14276--REDEF
GJA_VLP_TRMCTL.BREAKCOUNT
     15403**DCL     15404--REDEF
KV$VDO_BLKDAT
     12114**DCL     14330--DCLINIT
KV$VDO_CLSSSN
     12158**DCL     14330--DCLINIT 14330--DCLINIT
KV$VDO_CLSSTR
     12201**DCL     14335--DCLINIT
KV$VDO_DAT
     12245**DCL     14330--DCLINIT 14331--DCLINIT
KV$VDO_DCLFLD
     12291**DCL     14331--DCLINIT
PL6.E3A0      #001=GJA_DATA_D File=GJA_DATA_D.:E05TSI                            TUE 07/29/97 21:56 Page:23
KV$VDO_DCLSTR
     12418**DCL     14331--DCLINIT
KV$VDO_DLT
     12462**DCL     14331--DCLINIT
KV$VDO_DSC
     12508**DCL     14331--DCLINIT 14331--DCLINIT
KV$VDO_ERS
     12551**DCL     14331--DCLINIT
KV$VDO_EVT
     12595**DCL     14332--DCLINIT
KV$VDO_HVPS
     12638**DCL     14332--DCLINIT
KV$VDO_MRK
     12681**DCL     14334--DCLINIT
KV$VDO_NOP
     12723**DCL     14332--DCLINIT
KV$VDO_OPNSSN
     12765**DCL     14332--DCLINIT 14332--DCLINIT
KV$VDO_OPNSTR
     12808**DCL     14335--DCLINIT
KV$VDO_PRM
     12852**DCL     14332--DCLINIT 14333--DCLINIT
KV$VDO_RLSFLD
     12894**DCL     14333--DCLINIT
KV$VDO_RMS
     12936**DCL     14333--DCLINIT
KV$VDO_RQSDAT
     12978**DCL     14333--DCLINIT
KV$VDO_RQSMRK
     13027**DCL     14335--DCLINIT
KV$VDO_RQSPRM
     13069**DCL     14333--DCLINIT
KV$VDO_RQSSTT
     13113**DCL     14333--DCLINIT
KV$VDO_SLCFLD
     13155**DCL     14333--DCLINIT
PL6.E3A0      #001=GJA_DATA_D File=GJA_DATA_D.:E05TSI                            TUE 07/29/97 21:56 Page:24
KV$VDO_SLCGRPRND
     13197**DCL     14334--DCLINIT
KV$VDO_SLCQLF
     13280**DCL     14334--DCLINIT
KV$VDO_SMS
     13366**DCL     14334--DCLINIT
KV$VDO_STT
     13409**DCL     14334--DCLINIT
KV$VDO_UPDRELDVC
     13451**DCL     14334--DCLINIT
