VERSION E05

PL6.E3A0      #001=GJA_FMT_E File=GJA_FMT_E.:E05TSI                              TUE 07/29/97 07:42 Page:1
        1        1        /*M* GJA_FMT_E - Get equates for offsets into structures for formatters */
        2        2        /*T***********************************************************/
        3        3        /*T*                                                         */
        4        4        /*T* Copyright (c) Bull HN Information Systems Inc., 1997    */
        5        5        /*T*                                                         */
        6        6        /*T***********************************************************/
        7        7        /* The OU is an include file built by DRAW using: (PL6,BI=4) */
        8        8        GJA_FMT_E: PROC;
        9        9        %INCLUDE KI_CP6;
       10     1105        %INCLUDE GJA_MSG_M;
       11     1344        %LIST;
       12     1345        %GJA_UID_EQUS;
              1346        %EQU GJA_UID_NM=1;
              1347        %EQU GJA_UID_BABOON=2;
              1348        %EQU GJA_UID_HANDLER=3;
              1349        %EQU GJA_UID_LOGON=4;
              1350        %EQU GJA_UID_RESOURCE=5;
              1351        %EQU GJA_UID_UNKNOWN=0;
       13     1353        %GJA$HAND_CTX;
              1354    1   DCL 1 FPTN STCLASS,
              1355              %GJA$CMN_CTX;
              1356        %IF NOT(MODE_FEP);
              1357    1         2 * UBIN(1) UNAL,
              1358        %ENDIF;
              1359    1         2 WHO UBIN(3) UNAL,
              1360    1         2 LDCTX UBIN(13) UNAL,
              1361        %IF NOT(MODE_FEP);
              1362    1         2 * UBIN(1) UNAL,
              1363        %ENDIF;
              1364    1         2 LNK$ PTR CALIGNED,
              1365        %IF MODE_FEP;
              1370        %ELSE;
              1371    1         2 MAXRCRBYTSIZ UBIN(18) CALIGNED,
              1372    1         2 MAXNMBRCR  UBIN(18) CALIGNED,
              1373    1         2 MAXNMBBYT UBIN(18) CALIGNED,
              1374    1         2 RDSOUT UBIN(18) CALIGNED,
              1375        %ENDIF;
PL6.E3A0      #001=GJA_FMT_E File=GJA_FMT_E.:E05TSI                              TUE 07/29/97 07:42 Page:2
              1376    1         2 WAITING_MSG$ PTR CALIGNED,
              1378    1         2 NAME CHAR(8),
              1379              %IF NOT(MODE_FEP);
              1380    1         2 * BIT(1),
              1381              %ENDIF;
              1382    1         2 SENDACK BIT(1) UNAL,
              1383    1         2 LINK_CONNECTED BIT(1) UNAL,
              1384    1         2 HOST_NODE BIT(1) UNAL,
              1385    1         2 BLK BIT(1) UNAL,
              1386    1         2 WAT4ACK BIT(1) UNAL,
              1387    1         2 LNKDWNRCVD BIT(1) UNAL,
              1388    1         2 * BIT(2) UNAL,
              1389    1         2 NODE UBIN BYTE CALIGNED,
              1390        %IF NOT(MODE_FEP);
              1391    1         2 SYSID UBIN(18) CALIGNED,
              1392        %ELSE;
              1394        %ENDIF;
              1395    1         2 RES CHAR(2),
              1396        %IF NOT(MODE_FEP);
              1397    1         2 ATTR UBIN(18) CALIGNED;
              1398        %ELSE;
              1400        %ENDIF;
       14     1402        %GJA$LGNCTX(FPTN=LGN);
              1403    1   DCL 1 FPTN STCLASS ALIGNED,
              1404             %GJA$CMN_CTX;
              1405        %IF NOT(MODE_FEP);
              1406    1         2 * UBIN(1) UNAL,
              1407        %ENDIF;
              1408    1         2 WHO UBIN(3) UNAL,
              1409    1         2 LDCTX UBIN(13) UNAL,
              1410        %IF NOT(MODE_FEP);
              1411    1         2 * UBIN(1) UNAL,
              1412        %ENDIF;
              1413    1         2 LNK$ PTR CALIGNED,
              1414        %IF MODE_FEP;
              1419        %ELSE;
              1420    1         2 MAXRCRBYTSIZ UBIN(18) CALIGNED,
PL6.E3A0      #001=GJA_FMT_E File=GJA_FMT_E.:E05TSI                              TUE 07/29/97 07:42 Page:3
              1421    1         2 MAXNMBRCR  UBIN(18) CALIGNED,
              1422    1         2 MAXNMBBYT UBIN(18) CALIGNED,
              1423    1         2 RDSOUT UBIN(18) CALIGNED,
              1424        %ENDIF;
              1425    1         2 WAITING_MSG$ PTR CALIGNED,
              1427    1         2 NM_NODE UBIN BYTE UNAL, /* Node number were waiting response from */
              1428    1         2 RETRYCNT UBIN BYTE UNAL, /* Number of retries done               */
              1429    1         2 CHN$ PTR,             /* Channel table entry for this device     */
              1430    1         2 MSG$ PTR,             /* Used by routines in GJA$LOGON           */
              1431    1         2 USER,                 /* Info on handler trying to connect       */
              1432    1           3 SYSID UBIN(16) UNAL, /* SYSID of handler                       */
              1433                %IF NOT(MODE_FEP);
              1434    1           3 * BIT(2) UNAL,
              1435                %ENDIF;
              1436             %B$TERMINAL_ID(FPTN=TERMINAL_ID,LVL=2,LAST=",");
              1437        %LSET LISTDIR='0'B;
              1452    1   2 TERMINAL_ID CALIGNED,
              1454    1   3 TTYP UBIN BYTE CALIGNED /*(0)*/,3 LEV UBIN BYTE CALIGNED /*(0)*/,3 TERM UNAL,
              1456    1   4 CHANNEL(0:1)UNAL,5 * BIT(1)/*('0'B*0)*/,5 BYT UBIN(8)UNAL /*(0*0)*/,4 SUBDEVICE(0:
              1456            1)
              1457    1   UNAL,5 * BIT(1)/*('0'B*0)*/,5 BYT UBIN(8)UNAL /*(0*0)*/,4 SUBSUBDEVICE(0:1)UNAL,5 *
              1457            BIT(1
              1458    1   )/*('0'B*0)*/,5 BYT UBIN(8)UNAL /*(0*0)*/,
              1463    1   4 TERM_NAME CHAR(8)CALIGNED /*('        ')*/,3 TERMID REDEF TERM CHAR(14)CALIGNED ,
              1465    1         2 NODE UBIN BYTE UNAL,  /* This node                               */
              1466    1         2 SPEED UBIN BYTE UNAL, /* The speed (encoded) of this  device     */
              1467    1         2 STATUS,
              1468                %IF NOT (MODE_FEP);
              1469    1           3  * BIT(1),
              1470                %ENDIF;
              1471    1           3 TERM BIT(1) UNAL,   /* TERM received from VDH                  */
              1472    1           3 LGNRSP BIT(1) UNAL, /* Awaiting logon responce from handler*/
              1473    1           3 NMRSP BIT(1) UNAL,  /* Awaiting responce from NM               */
              1474    1           3 TERMACK BIT(1) UNAL, /* Awaiting TERM ACK from VDH             */
              1475    1           3 LOGGEDON BIT(1) UNAL, /* Set if a successfull logon occurred   */
              1476    1           3 INT BIT(1) UNAL,    /* Interactive device                      */
              1477    1           3 WTPRO BIT(1) UNAL,  /* Waiting profile                         */
PL6.E3A0      #001=GJA_FMT_E File=GJA_FMT_E.:E05TSI                              TUE 07/29/97 07:42 Page:4
              1478    1           3 DSCRCV BIT(1) UNAL,
              1479                %IF NOT(MODE_FEP);
              1480    1           3  * BIT(1),
              1481                %ENDIF;
              1482    1           3 RDPND BIT(1) UNAL,
              1483    1           3 WAITING_HOST BIT(1) UNAL,
              1484    1           3 * BIT(6) UNAL,
              1485    1         2 *(0:7) UBIN;
       15     1487        %GJA$ERRMSG_CTX;
              1488    1   DCL 1 FPTN STCLASS,
              1489              %GJA$CMN_CTX;
              1490        %IF NOT(MODE_FEP);
              1491    1         2 * UBIN(1) UNAL,
              1492        %ENDIF;
              1493    1         2 WHO UBIN(3) UNAL,
              1494    1         2 LDCTX UBIN(13) UNAL,
              1495        %IF NOT(MODE_FEP);
              1496    1         2 * UBIN(1) UNAL,
              1497        %ENDIF;
              1498    1         2 LNK$ PTR CALIGNED,
              1499        %IF MODE_FEP;
              1504        %ELSE;
              1505    1         2 MAXRCRBYTSIZ UBIN(18) CALIGNED,
              1506    1         2 MAXNMBRCR  UBIN(18) CALIGNED,
              1507    1         2 MAXNMBBYT UBIN(18) CALIGNED,
              1508    1         2 RDSOUT UBIN(18) CALIGNED,
              1509        %ENDIF;
              1510    1         2 WAITING_MSG$ PTR CALIGNED,
              1512    1         2 NODE UBIN BYTE CALIGNED,
              1513    1         2 USR# UBIN BYTE CALIGNED;
       16     1515
       17     1516    1   END;

PL6.E3A0      #001=GJA_FMT_E File=GJA_FMT_E.:E05TSI                              TUE 07/29/97 07:42 Page:5
--  Include file information  --

   GJA_MSG_M.:E05TOU  is referenced.
   KI_CP6.:E05TOU  is referenced.
      No diagnostics issued in procedure GJA_FMT_E.

   No code generated for procedure GJA_FMT_E .
   Procedure GJA_FMT_E requires 4 words of local(AUTO) storage.

    No errors detected in file GJA_FMT_E.:E05TSI    .


07:42 JUL 29 '97 GJA_FMT_E.:E05TOU                                         1
    1      %EQU GJA$HAND_CTX#     =      0;
    2      %EQU GJA$HAND_CTX_WHO#  =      1;
    3      %EQU GJA$HAND_CTX_LDCTX#  =      4;
    4      %EQU GJA$HAND_CTX_LNK$#  =     18;
    5      %EQU GJA$HAND_CTX_MAXRCRBYTSIZ#  =     54;
    6      %EQU GJA$HAND_CTX_MAXNMBRCR#  =     72;
    7      %EQU GJA$HAND_CTX_MAXNMBBYT#  =     90;
    8      %EQU GJA$HAND_CTX_RDSOUT#  =    108;
    9      %EQU GJA$HAND_CTX_WAITING_MSG$#  =    126;
   10      %EQU GJA$HAND_CTX_NAME#  =    162;
   11      %EQU GJA$HAND_CTX_SENDACK#  =    235;
   12      %EQU GJA$HAND_CTX_LINK_CONNECTED#  =    236;
   13      %EQU GJA$HAND_CTX_HOST_NODE#  =    237;
   14      %EQU GJA$HAND_CTX_BLK#  =    238;
   15      %EQU GJA$HAND_CTX_WAT4ACK#  =    239;
   16      %EQU GJA$HAND_CTX_LNKDWNRCVD#  =    240;
   17      %EQU GJA$HAND_CTX_NODE#  =    243;
   18      %EQU GJA$HAND_CTX_SYSID#  =    252;
   19      %EQU GJA$HAND_CTX_RES#  =    270;
   20      %EQU GJA$HAND_CTX_ATTR#  =    288;
   21      %EQU LGN#              =      0;
   22      %EQU LGN_WHO#          =      1;
   23      %EQU LGN_LDCTX#        =      4;
   24      %EQU LGN_LNK$#         =     18;
   25      %EQU LGN_MAXRCRBYTSIZ#  =     54;
   26      %EQU LGN_MAXNMBRCR#    =     72;
   27      %EQU LGN_MAXNMBBYT#    =     90;
   28      %EQU LGN_RDSOUT#       =    108;
   29      %EQU LGN_WAITING_MSG$#  =    126;
   30      %EQU LGN_NM_NODE#      =    162;
   31      %EQU LGN_RETRYCNT#     =    171;
   32      %EQU LGN_CHN$#         =    180;
   33      %EQU LGN_MSG$#         =    216;
   34      %EQU LGN_USER#         =    252;
   35      %EQU LGN_USER_SYSID#   =    252;
   36      %EQU LGN_TERMINAL_ID#  =    270;
   37      %EQU LGN_TERMINAL_ID_TTYP#  =    270;
07:42 JUL 29 '97 GJA_FMT_E.:E05TOU                                         2
   38      %EQU LGN_TERMINAL_ID_LEV#  =    279;
   39      %EQU LGN_TERMINAL_ID_TERM#  =    288;
   40      %EQU LGN_TERMINAL_ID_TERM_CHANNEL#  =    288;
   41      %EQU LGN_TERMINAL_ID_TERM_SUBDEVICE#  =    306;
   42      %EQU LGN_TERMINAL_ID_TERM_SUBSUBDEV#  =    324;
   43      %EQU LGN_TERMINAL_ID_TERM_TERM_NAME#  =    342;
   44      %EQU LGN_TERMINAL_ID_TERMID#  =    288;
   45      %EQU LGN_NODE#         =    414;
   46      %EQU LGN_SPEED#        =    423;
   47      %EQU LGN_STATUS#       =    432;
   48      %EQU LGN_STATUS_TERM#  =    433;
   49      %EQU LGN_STATUS_LGNRSP#  =    434;
   50      %EQU LGN_STATUS_NMRSP#  =    435;
   51      %EQU LGN_STATUS_TERMACK#  =    436;
   52      %EQU LGN_STATUS_LOGGEDON#  =    437;
   53      %EQU LGN_STATUS_INT#   =    438;
   54      %EQU LGN_STATUS_WTPRO#  =    439;
   55      %EQU LGN_STATUS_DSCRCV#  =    440;
   56      %EQU LGN_STATUS_RDPND#  =    442;
   57      %EQU LGN_STATUS_WAITING_HOST#  =    443;
   58      %EQU GJA$ERRMSG_CTX#   =      0;
   59      %EQU GJA$ERRMSG_CTX_WHO#  =      1;
   60      %EQU GJA$ERRMSG_CTX_LDCTX#  =      4;
   61      %EQU GJA$ERRMSG_CTX_LNK$#  =     18;
   62      %EQU GJA$ERRMSG_CTX_MAXRCRBYTSIZ#  =     54;
   63      %EQU GJA$ERRMSG_CTX_MAXNMBRCR#  =     72;
   64      %EQU GJA$ERRMSG_CTX_MAXNMBBYT#  =     90;
   65      %EQU GJA$ERRMSG_CTX_RDSOUT#  =    108;
   66      %EQU GJA$ERRMSG_CTX_WAITING_MSG$#  =    126;
   67      %EQU GJA$ERRMSG_CTX_NODE#  =    162;
   68      %EQU GJA$ERRMSG_CTX_USR##  =    171;

