VERSION E05

PL6.E3A0      #001=GJI$INIT_USR File=GJI$INIT_USR.:E05TSI                        TUE 07/29/97 21:57 Page:1
        1        1        /*M* GJI$INIT_USR   Routine to initiate LCP-6 user        */
        2        2        /*T***********************************************************/
        3        3        /*T*                                                         */
        4        4        /*T* Copyright (c) Bull HN Information Systems Inc., 1997    */
        5        5        /*T*                                                         */
        6        6        /*T***********************************************************/
        7        7        /*X* PLM=3,IND=5,ENU=0,ECU=0,CRM=70   */
        8        8
        9        9        /*F*  NAME: GJI$INIT_USR
       10       10
       11       11              PURPOSE:  To provide for the user's initial entry to Job Step.
       12       12        */
       13       13
       14       14        /*D*   NAME:  GJI$INIT_USR
       15       15
       16       16               CALL:  The scheduler puts the address of GJI$INIT_USR
       17       17                      in P$ of the user's initial TSA frame.  Thus,
       18       18                      the first time that user is scheculed for
       19       19                      execution, control goes to GJI$INIT_USR.
       20       20
       21       21               DESCRIPTION:
       22       22        */
       23       23
       24       24        GJI$INIT_USR: PROC;
       25       25
       26       26        %INCLUDE J_SCODE_C;
       27       54        %INCLUDE LCP_6;
       28      245
       29      246                                                /* Static Data              */
       30      247        %VLP_SCODE (FPTN=SCPEXIT,ERR#=%S$CPEXIT,SEV=G_SEV_SCREECH#,
       31      248                     STCLASS=CONSTANT,FCG=GJ,MID=I,MON='1'B);
       32      309
       33      310                                                /* External Procedures      */
       34      311    1   DCL SCREECH ENTRY(1);
       35      312
       36      313        %EJECT;
PL6.E3A0      #001=GJI$INIT_USR File=GJI$INIT_USR.:E05TSI                        TUE 07/29/97 21:57 Page:2
       37      314        /*D* The GJI$INIT_USR routine causes entry to GJS$STEP by issuing an
       38      315             M$CPEXIT service request with no FPT.
       39      316        */
       40      317    1      CALL M$CPEXIT ALTRET(WHOA);
       41      318
       42      319        /*D* If we ever return from the M$CPEXIT, Screech.
       43      320        */
       44      321
       45      322    1   WHOA: ;
       46      323    1      CALL SCREECH(SCPEXIT);
       47      324
       48      325        /*S* SCREECH_CODE: GJI-S$CPEXIT
       49      326             TYPE: SUA
       50      327             MESSAGE: GJS$STEP returned to an M$CPEXIT MCL.
       51      328        */
       52      329    1   END GJI$INIT_USR;

PL6.E3A0      #001=GJI$INIT_USR File=GJI$INIT_USR.:E05TSI                        TUE 07/29/97 21:57 Page:3
--  Include file information  --

   LCP_6.:E05TOU  cannot be made into a system file and is referenced.
   J_SCODE_C.:E05TOU  is referenced.
   G_LCP6_E.:E05TOU  was found in the system file and is referenced.
   GT_LCP6_M.:E05TOU  was found in the system file and is referenced.
   KI_CP6.:E05TOU  was found in the system file and is referenced.
   GF_LCP6_M.:E05TOU  was found in the system file and is referenced.
   GM_LCP6_M.:E05TOU  was found in the system file and is referenced.
   GU_LCP6_M.:E05TOU  was found in the system file and is referenced.
   GJ_LCP6_M.:E05TOU  was found in the system file and is referenced.
   GH_LCP6_M.:E05TOU  was found in the system file and is referenced.
      No diagnostics issued in procedure GJI$INIT_USR.

   Procedure GJI$INIT_USR requires 21 words for executable code.
   Procedure GJI$INIT_USR requires 4 words of local(AUTO) storage.

    No errors detected in file GJI$INIT_USR.:E05TSI    .

PL6.E3A0      #001=GJI$INIT_USR File=GJI$INIT_USR.:E05TSI                        TUE 07/29/97 21:57 Page:4

 Object Unit name= GJI$INIT_USR                               File name= GJI$INIT_USR.:E05TOU
 UTS= JUL 29 '97 21:57:04.72 TUE                              Compiler= PL-6/E31         Sev=      00
 SharedLib= :SHARED_LCP6_SYSTEM                               Alt SharedLib=


    ****  Control sections  ****

 Sect   Type Bound  Init  Size HexSiz  Section name
    0  RoData even  UTS      3      3  GJI$INIT_USR
    1   Proc  even  none    21     15  GJI$INIT_USR
    2  RoData even  none     2      2  GJI$INIT_USR

    ****  Entry defs  ****

                              Check   Calling
                             calling  sequence
  Sect HexLoc Primary Altret sequence   type   Parms  Name
     1      0   yes            yes      Std        0  GJI$INIT_USR

  ****  Entry refs  ****

         Check        Calling
        calling       sequence
Altret sequence SRef   type   Args  Name
         yes           Std       1 SCREECH
                       nStd      0 X6A_AUTO_0
                       nStd      0 X6A_ARET

  ****  Data refs  ****

  Flags:  r = read only, s = secondary
Flgs Name                             Flgs Name                             Flgs Name
r    G$ROS$
PL6.E3A0      #001=GJI$INIT_USR File=GJI$INIT_USR.:E05TSI                        TUE 07/29/97 21:57 Page:5


        1        1        /*M* GJI$INIT_USR   Routine to initiate LCP-6 user        */
        2        2        /*T***********************************************************/
        3        3        /*T*                                                         */
        4        4        /*T* Copyright (c) Bull HN Information Systems Inc., 1997    */
        5        5        /*T*                                                         */
        6        6        /*T***********************************************************/
        7        7        /*X* PLM=3,IND=5,ENU=0,ECU=0,CRM=70   */
        8        8
        9        9        /*F*  NAME: GJI$INIT_USR
       10       10
       11       11              PURPOSE:  To provide for the user's initial entry to Job Step.
       12       12        */
       13       13
       14       14        /*D*   NAME:  GJI$INIT_USR
       15       15
       16       16               CALL:  The scheduler puts the address of GJI$INIT_USR
       17       17                      in P$ of the user's initial TSA frame.  Thus,
       18       18                      the first time that user is scheculed for
       19       19                      execution, control goes to GJI$INIT_USR.
       20       20
       21       21               DESCRIPTION:
       22       22        */
       23       23
       24       24        GJI$INIT_USR: PROC;

     24   1 000000  D380 0000 0000  xent GJI$INIT_USR    LNJ,B5   X6A_AUTO_0
          1 000003       0004 0000                       DC       4,0

       25       25
       26       26        %INCLUDE J_SCODE_C;
       27       54        %INCLUDE LCP_6;
       28      245
       29      246                                                /* Static Data              */
       30      247        %VLP_SCODE (FPTN=SCPEXIT,ERR#=%S$CPEXIT,SEV=G_SEV_SCREECH#,
       31      248                     STCLASS=CONSTANT,FCG=GJ,MID=I,MON='1'B);
       32      309
PL6.E3A0      #001=GJI$INIT_USR File=GJI$INIT_USR.:E05TSI                        TUE 07/29/97 21:57 Page:6
       33      310                                                /* External Procedures      */
       34      311    1   DCL SCREECH ENTRY(1);
       35      312
       36      313        %EJECT;
PL6.E3A0      #001=GJI$INIT_USR File=GJI$INIT_USR.:E05TSI                        TUE 07/29/97 21:57 Page:7
       37      314        /*D* The GJI$INIT_USR routine causes entry to GJS$STEP by issuing an
       38      315             M$CPEXIT service request with no FPT.
       39      316        */
       40      317    1      CALL M$CPEXIT ALTRET(WHOA);

    317   1 000005  B870 0086                            LDR,R3   134,IMO
          1 000007  0001                                 MCL
          1 000008       0001                            DC       s:317,PREL

    317   1                              WHOA            null
       41      318
       42      319        /*D* If we ever return from the M$CPEXIT, Screech.
       43      320        */
       44      321
       45      322    1   WHOA: ;
       46      323    1      CALL SCREECH(SCPEXIT);

    323   1 000009  BB80 0000 0000  02   WHOA            LAB,B3   0
          1 00000C  CBF0 0100                            LAB,B4   256,IMO
          1 00000E  E380 0000 0000  xent                 LNJ,B6   SCREECH
          1 000011       0001                            DC       s:329,PREL

       47      324
       48      325        /*S* SCREECH_CODE: GJI-S$CPEXIT
       49      326             TYPE: SUA
       50      327             MESSAGE: GJS$STEP returned to an M$CPEXIT MCL.
       51      328        */
       52      329    1   END GJI$INIT_USR;

    329   1 000012  C380 0000 0000  xent                 LNJ,B4   X6A_ARET

PL6.E3A0      #001=GJI$INIT_USR File=GJI$INIT_USR.:E05TSI                        TUE 07/29/97 21:57 Page:8
--  Include file information  --

   LCP_6.:E05TOU  cannot be made into a system file and is referenced.
   J_SCODE_C.:E05TOU  is referenced.
   G_LCP6_E.:E05TOU  was found in the system file and is referenced.
   GT_LCP6_M.:E05TOU  was found in the system file and is referenced.
   KI_CP6.:E05TOU  was found in the system file and is referenced.
   GF_LCP6_M.:E05TOU  was found in the system file and is referenced.
   GM_LCP6_M.:E05TOU  was found in the system file and is referenced.
   GU_LCP6_M.:E05TOU  was found in the system file and is referenced.
   GJ_LCP6_M.:E05TOU  was found in the system file and is referenced.
   GH_LCP6_M.:E05TOU  was found in the system file and is referenced.
      No diagnostics issued in procedure GJI$INIT_USR.
PL6.E3A0      #001=GJI$INIT_USR File=GJI$INIT_USR.:E05TSI                        TUE 07/29/97 21:57 Page:9

 **** Variables and constants ****

  ****  Section 000 RoData GJI$INIT_USR

  ****  Scalars and arrays  ****
HexLoc.c.b A Datatyp(siz) R M Lvl/name                 HexLoc.c.b A Datatyp(siz) R M Lvl/name

     0-0-0/w STRC(48)    r     1 SCPEXIT


   Procedure GJI$INIT_USR requires 21 words for executable code.
   Procedure GJI$INIT_USR requires 4 words of local(AUTO) storage.

    No errors detected in file GJI$INIT_USR.:E05TSI    .
PL6.E3A0      #001=GJI$INIT_USR File=GJI$INIT_USR.:E05TSI                        TUE 07/29/97 21:57 Page:10
          *** CROSS REFERENCE LISTING ***
**     DENOTES     IDENTIFIER DEFINITION
<<                 IDENTIFIER'S VALUE SET
>>                 IDENTIFIER'S VALUE USED
<>                 IDENTIFIER SET AND/OR USED
--                 IDENTIFIER REFERENCED
PL6.E3A0      #001=GJI$INIT_USR File=GJI$INIT_USR.:E05TSI                        TUE 07/29/97 21:57 Page:11
          MINI XREF LISTING

M$CPEXIT
       205**DCL-ENT   317--CALL
SCPEXIT
       275**DCL       323<>CALL
SCREECH
       311**DCL-ENT   323--CALL
WHOA
       317**LABEL     317--CALLALT
