PL6.E3A0      #003=GJU$XCON File=GJU$UTIL.:E05TSI                                TUE 07/29/97 22:10 Page:162
     1066        1        /*T***********************************************************/
     1067        2        /*T*                                                         */
     1068        3        /*T* Copyright (c) Bull HN Information Systems Inc., 1997    */
     1069        4        /*T*                                                         */
     1070        5        /*T***********************************************************/
     1071        6        /*F*    NAME: GJU$XCON
     1072        7
     1073        8                PURPOSE: To provide for exit control.
     1074        9
     1075       10                CALL:    CALL GJU$XCON ALTRET(LABEL);
     1076       11
     1077       12        */
     1078       13
     1079       14        GJU$XCON: PROC(INFO$,P#) ALTRET;
     1080       15
     1081       16        %INCLUDE GU_MACROS_M;
     1082      175        %INCLUDE G_ROS_M;
     1083      257        %INCLUDE G_JIT_M;
     1084      522        %INCLUDE G_HJIT_M;
     1085      667 S      %INCLUDE GH_LCP6_M;
     1086      668 S      %INCLUDE GU_LCP6_M;
     1087      669
     1088      670 S      %INCLUDE G_LCP6_E;
     1089      671        %INCLUDE J_SCODE_C;
     1090      699
     1091      700                                                /* Input parameters         */
     1092      701    1   DCL INFO$ PTR;
     1093      702    1   DCL P# UBIN;
     1094      703                                                /* AUTO Storage             */
     1095      704    1   DCL ECCB$ PTR;
     1096      705        %GUE_ENVTCB_PARAMS (FPTN=ENVTCB_PARAMS,STCLASS=AUTO);
     1097      830
     1098      831                                                /* BASED Structures         */
     1099      832        %G$TSA;
     1100     1220        %G$ROS (STCLASS="BASED(G$ROS$)");
     1101     1264        %G$JIT (STCLASS="BASED(G$JIT$)");
     1102     1678        %G$ECCB (STCLASS="BASED(ECCB$)");
PL6.E3A0      #003=GJU$XCON File=GJU$UTIL.:E05TSI                                TUE 07/29/97 22:10 Page:163
     1103     1754        %G$UHJIT (STCLASS="BASED(G$UHJIT$)");
     1104     4728
     1105     4729                                                /* External Data            */
     1106     4730    1   DCL G$ROS$ PTR SYMREF READONLY;
     1107     4731    1   DCL G$JIT$ PTR SYMREF READONLY;
     1108     4732    1   DCL G$UHJIT$ PTR SYMREF READONLY;
     1109     4733    1   DCL G_XCONTIME UBIN(32) SYMREF;
     1110     4734
     1111     4735                                                /* External Procedures      */
     1112     4736    1   DCL GUE$ENVTCB ENTRY(1) ALTRET;
     1113     4737    1   DCL SCREECH ENTRY(1);
     1114     4738
     1115     4739                                                /* Internal data            */
     1116     4740        %VLP_SCODE (FPTN=SDOMAIN,ERR#=%S$SSFRAME,SEV=G_SEV_SUA#,
     1117     4741                    STCLASS=CONSTANT,FCG=GJ,MID=U,MON='1'B);
     1118     4802
     1119     4803                                                /* String Substitutions     */
     1120     4804        %G$JIT_E;
     1121     4866
     1122     4867        %EJECT;
PL6.E3A0      #003=GJU$XCON File=GJU$UTIL.:E05TSI                                TUE 07/29/97 22:10 Page:164
     1123     4868        /*D* NAME: GJU$XCON
     1124     4869
     1125     4870             DESCRIPTION:
     1126     4871
     1127     4872             GJU$XCON is called from GJS$ABORTM to determine if exit
     1128     4873             control processing is to be initiated.
     1129     4874             If so, the alternate return will be taken.  If the abort
     1130     4875             logic is to continue, the normal return will be taken.
     1131     4876        */
     1132     4877    2      DO CASE(G$UHJIT.DMN.ID);
     1133     4878    2       CASE(%G_DMN_USR#, %G_DMN_USR_SVC#, %G_DMN_INT#, %G_DMN_INT_SVC#);
     1134     4879    2         ECCB$ = G$ROS.U_ECCB$;
     1135     4880
     1136     4881    2       CASE(%G_DMN_DB#, %G_DMN_DB_SVC#);
     1137     4882    2         ECCB$ = G$ROS.DB_ECCB$;
     1138     4883
     1139     4884    2       CASE(ELSE);
     1140     4885    2         CALL SCREECH(SDOMAIN);
     1141     4886
     1142     4887    2         END /*do case*/;
     1143     4888
     1144     4889        /*S* SCREECH_CODE: GJU-S$SSFRAME
     1145     4890             TYPE: SUA
     1146     4891             MESSAGE:  Invalid domain number in UHJIT.
     1147     4892             REMARKS:  The bad domain was detected by GJU$XCON
     1148     4893                       which expects only G_DMN_USR_SVC or G_DMN_DB_SVC.
     1149     4894        */
     1150     4895
     1151     4896    1      IF G$UHJIT.ISA_USR.TSAP$ = ADDR(NIL)
     1152     4897    2      THEN DO;
     1153     4898    2           CALL SCREECH(SDOMAIN);
     1154     4899    2           END;
     1155     4900    2      ELSE DO;
     1156     4901    2           ENVTCB_PARAMS = '0'B;
     1157     4902    2           ENVTCB_PARAMS.ENV$ = ADDR(G$UHJIT.TSA_USR);
     1158     4903    2           ENVTCB_PARAMS.ENVTYPE = %GUE_ENVTCB_TSA#;
     1159     4904    2           END;
PL6.E3A0      #003=GJU$XCON File=GJU$UTIL.:E05TSI                                TUE 07/29/97 22:10 Page:165
     1160     4905
     1161     4906        /*D* Remember exit conditions in FRS.
     1162     4907        */
     1163     4908    1      G$JIT.FRS = (G$JIT.FRS | (G$JIT.RNST & %G_RS_XCON#) );
     1164     4909
     1165     4910        /*D* If this is an exit from XCON or a repeated class 2/3 abort
     1166     4911             the ECCB is reset to prevent re-entry to the user XCON routine.
     1167     4912        */
     1168     4913    1      IF G$ECCB.FLAGS.XCONP
     1169     4914    1      THEN IF (G$JIT.RNST & %G_RS_MCL#) = '0000'X
     1170     4915    2           THEN DO;
     1171     4916    2   NO_XCON:     ;
     1172     4917    2                G$ECCB.FLAGS.XCONP = '0'B;
     1173     4918    2                G$ECCB.XCON$ = ENTADDR(NIL);
     1174     4919    2                GOTO XCON_EXIT;
     1175     4920    2                END;
     1176     4921
     1177     4922        /*D* If the entry address for exit control in the ECCB is not nil,
     1178     4923             the GUE$ENVTCB routine is called to put an exit control frame
     1179     4924             on the TCB and put the user's XCON handler address in TSA.P$$.
     1180     4925             An altret to GJS$ABORTM will then cause a normal return to
     1181     4926             whoever initiated the abort logic.
     1182     4927        */
     1183     4928    1      IF (G$ECCB.XCON$ ~= ENTADDR(NIL) )
     1184     4929    1        OR ( (G$JIT.DB# ~= 0) AND NOT(G$JIT.RNST.LDTRC) )
     1185     4930    2      THEN DO;
     1186     4931    2           IF (G$JIT.RNST & %G_RS_CL23#)
     1187     4932    3           THEN DO;
     1188     4933    3                IF (G$JIT.RNST & %G_RS_CL23#) AND G$ECCB.FLAGS.EXTD_LIM
     1189     4934    3                THEN GOTO NO_XCON;
     1190     4935
     1191     4936    3                G$JIT.MRT = G_XCONTIME;
     1192     4937    3                G$ECCB.FLAGS.EXTD_LIM = '1'B;
     1193     4938    3                END;
     1194     4939
     1195     4940    2           IF (G$JIT.DB# = 0) OR (G$JIT.JUNK.BYPASSD)
     1196     4941    2           THEN ENVTCB_PARAMS.P$$ = G$ECCB.XCON$;
PL6.E3A0      #003=GJU$XCON File=GJU$UTIL.:E05TSI                                TUE 07/29/97 22:10 Page:166
     1197     4942    2           ELSE ENVTCB_PARAMS.P$$ = ENVTCB_PARAMS.ENV$->G$TSA.P$$;
     1198     4943    2           G$JIT.JUNK.BYPASSD = '0'B;
     1199     4944
     1200     4945    2           ENVTCB_PARAMS.ECC = %G_XCON#;
     1201     4946    2           ENVTCB_PARAMS.ECINFO.XCON.TRAP# = ENVTCB_PARAMS.ENV$->G$TSA.I.TRAP#;
     1202     4947    2           ENVTCB_PARAMS.ECINFO.XCON.FLAGS.XCONP = G$ECCB.FLAGS.XCONP;
     1203     4948    2           ENVTCB_PARAMS.ECINFO.RNST = G$JIT.RNST;
     1204     4949    2           ENVTCB_PARAMS.ECINFO.ERR = G$JIT.ERR;
     1205     4950    2           ENVTCB_PARAMS.ECINFO.P# = P#;
     1206     4951    2           ENVTCB_PARAMS.MOREINFO$ = INFO$;
     1207     4952    2           ENVTCB_PARAMS.TCB$ = ADDR(NIL);
     1208     4953
     1209     4954    2           CALL GUE$ENVTCB(ENVTCB_PARAMS)
     1210     4955    3           WHENRETURN DO;
     1211     4956    3                G$ECCB.FLAGS.TCBFULL = '0'B;
     1212     4957    3   GO_XCON:     ;
     1213     4958    3                G$JIT.RNST = '0000'X;
     1214     4959    3                G$ECCB.FLAGS.XCONP ='1'B;
     1215     4960
     1216     4961    3                IF G$JIT.DB# ~= 0
     1217     4962    3                THEN ENVTCB_PARAMS.ENV$->G$TSA.I.TRAP# = %G_FPRG_XCON#;
     1218     4963
     1219     4964    3                ALTRETURN;
     1220     4965    3                END;
     1221     4966
     1222     4967        /*D* When there is no room on the TCB, the exit control frame will be
     1223     4968             placed in the TCB's ALTRET frame and the TCBFULL bit will be set
     1224     4969             in the ECCB.  If this condition should occur again, i.e. a trap
     1225     4970             in the user's exit control logic, exit control will not be
     1226     4971             re-entered.
     1227     4972        */
     1228     4973    3           WHENALTRETURN DO;
     1229     4974    3                IF G$ECCB.FLAGS.TCBFULL= '1'B
     1230     4975    3                THEN RETURN;
     1231     4976
     1232     4977    3                ENVTCB_PARAMS.ECC = %G_TCBFULL#;
     1233     4978    3                CALL GUE$ENVTCB(ENVTCB_PARAMS)
PL6.E3A0      #003=GJU$XCON File=GJU$UTIL.:E05TSI                                TUE 07/29/97 22:10 Page:167
     1234     4979    4                WHENRETURN DO;
     1235     4980    4                     G$ECCB.FLAGS.TCBFULL = '1'B;
     1236     4981    4                     GOTO GO_XCON;
     1237     4982    4                     END;
     1238     4983    4                WHENALTRETURN DO;
     1239     4984    4                     RETURN;
     1240     4985    4                     END;
     1241     4986
     1242     4987    3                END;
     1243     4988
     1244     4989    2           END;
     1245     4990
     1246     4991        /*D* If the user has not requested XCON (or this is an XCON exit)
     1247     4992             JIT.RNST is reset and GJU$XCON returns to GJS$ABORTM.
     1248     4993        */
     1249     4994    2      ELSE DO;
     1250     4995
     1251     4996    2   XCON_EXIT: ;
     1252     4997    2           G$JIT.RNST = (G$JIT.RNST | (G$JIT.FRS & %G_RS_XCON#) );
     1253     4998    2           END;
     1254     4999
     1255     5000    1   END GJU$XCON;
     1256     5001        %EOD;

PL6.E3A0      #003=GJU$XCON File=GJU$UTIL.:E05TSI                                TUE 07/29/97 22:10 Page:168
--  Include file information  --

   J_SCODE_C.:E05TOU  is referenced.
   G_HJIT_M.:E05TOU  is referenced.
   G_JIT_M.:E05TOU  is referenced.
   G_ROS_M.:E05TOU  is referenced.
   GU_MACROS_M.:E05TOU  is referenced.
   G_LCP6_E.:E05TOU  was found in the system file and is referenced.
   GT_LCP6_M.:E05TOU  was found in the system file and is never referenced.
   KI_CP6.:E05TOU  was found in the system file and is never referenced.
   GF_LCP6_M.:E05TOU  was found in the system file and is never referenced.
   GM_LCP6_M.:E05TOU  was found in the system file and is never referenced.
   GU_LCP6_M.:E05TOU  was found in the system file and is referenced.
   GJ_LCP6_M.:E05TOU  was found in the system file and is never referenced.
   GH_LCP6_M.:E05TOU  was found in the system file and is referenced.
      No diagnostics issued in procedure GJU$XCON.

   Procedure GJU$XCON requires 309 words for executable code.
   Procedure GJU$XCON requires 28 words of local(AUTO) storage.

PL6.E3A0      #003=GJU$XCON File=GJU$UTIL.:E05TSI                                TUE 07/29/97 22:10 Page:169

 Object Unit name= GJU$XCON                                   File name= GJU$UTIL.:E05TOU
 UTS= JUL 29 '97 22:10:34.24 TUE                              Compiler= PL-6/E31         Sev=      00
 SharedLib= :SHARED_LCP6_SYSTEM                               Alt SharedLib=


    ****  Control sections  ****

 Sect   Type Bound  Init  Size HexSiz  Section name
    0  RoData even  UTS      3      3  GJU$XCON
    1   Proc  even  none   309    135  GJU$XCON
    2  RoData even  none     4      4  GJU$XCON

    ****  Entry defs  ****

                              Check   Calling
                             calling  sequence
  Sect HexLoc Primary Altret sequence   type   Parms  Name
     1      0   yes    yes     yes      Std        2  GJU$XCON

  ****  Entry refs  ****

         Check        Calling
        calling       sequence
Altret sequence SRef   type   Args  Name
         yes           Std       1 SCREECH
 yes     yes           Std       1 GUE$ENVTCB
                       nStd      0 X6A_AUTO_2
                       nStd      0 X6A_AALT
                       nStd      0 X6A_ARET

  ****  Data refs  ****

  Flags:  r = read only, s = secondary
Flgs Name                             Flgs Name                             Flgs Name
r    G$ROS$                           r    G$JIT$                           r    G$UHJIT$
     G_XCONTIME                       r    G$ROS$
PL6.E3A0      #003=GJU$XCON File=GJU$UTIL.:E05TSI                                TUE 07/29/97 22:10 Page:170


     1066        1        /*T***********************************************************/
     1067        2        /*T*                                                         */
     1068        3        /*T* Copyright (c) Bull HN Information Systems Inc., 1997    */
     1069        4        /*T*                                                         */
     1070        5        /*T***********************************************************/
     1071        6        /*F*    NAME: GJU$XCON
     1072        7
     1073        8                PURPOSE: To provide for exit control.
     1074        9
     1075       10                CALL:    CALL GJU$XCON ALTRET(LABEL);
     1076       11
     1077       12        */
     1078       13
     1079       14        GJU$XCON: PROC(INFO$,P#) ALTRET;

     14   1 000000  D380 0000 0000  xent GJU$XCON        LNJ,B5   X6A_AUTO_2
          1 000003       001C 0002                       DC       28,2

     1080       15
     1081       16        %INCLUDE GU_MACROS_M;
     1082      175        %INCLUDE G_ROS_M;
     1083      257        %INCLUDE G_JIT_M;
     1084      522        %INCLUDE G_HJIT_M;
     1085      667 S      %INCLUDE GH_LCP6_M;
     1086      668 S      %INCLUDE GU_LCP6_M;
     1087      669
     1088      670 S      %INCLUDE G_LCP6_E;
     1089      671        %INCLUDE J_SCODE_C;
     1090      699
     1091      700                                                /* Input parameters         */
     1092      701    1   DCL INFO$ PTR;
     1093      702    1   DCL P# UBIN;
     1094      703                                                /* AUTO Storage             */
     1095      704    1   DCL ECCB$ PTR;
     1096      705        %GUE_ENVTCB_PARAMS (FPTN=ENVTCB_PARAMS,STCLASS=AUTO);
     1097      830
PL6.E3A0      #003=GJU$XCON File=GJU$UTIL.:E05TSI                                TUE 07/29/97 22:10 Page:171
     1098      831                                                /* BASED Structures         */
     1099      832        %G$TSA;
     1100     1220        %G$ROS (STCLASS="BASED(G$ROS$)");
     1101     1264        %G$JIT (STCLASS="BASED(G$JIT$)");
     1102     1678        %G$ECCB (STCLASS="BASED(ECCB$)");
     1103     1754        %G$UHJIT (STCLASS="BASED(G$UHJIT$)");
     1104     4728
     1105     4729                                                /* External Data            */
     1106     4730    1   DCL G$ROS$ PTR SYMREF READONLY;
     1107     4731    1   DCL G$JIT$ PTR SYMREF READONLY;
     1108     4732    1   DCL G$UHJIT$ PTR SYMREF READONLY;
     1109     4733    1   DCL G_XCONTIME UBIN(32) SYMREF;
     1110     4734
     1111     4735                                                /* External Procedures      */
     1112     4736    1   DCL GUE$ENVTCB ENTRY(1) ALTRET;
     1113     4737    1   DCL SCREECH ENTRY(1);
     1114     4738
     1115     4739                                                /* Internal data            */
     1116     4740        %VLP_SCODE (FPTN=SDOMAIN,ERR#=%S$SSFRAME,SEV=G_SEV_SUA#,
     1117     4741                    STCLASS=CONSTANT,FCG=GJ,MID=U,MON='1'B);
     1118     4802
     1119     4803                                                /* String Substitutions     */
     1120     4804        %G$JIT_E;
     1121     4866
     1122     4867        %EJECT;
PL6.E3A0      #003=GJU$XCON File=GJU$UTIL.:E05TSI                                TUE 07/29/97 22:10 Page:172
     1123     4868        /*D* NAME: GJU$XCON
     1124     4869
     1125     4870             DESCRIPTION:
     1126     4871
     1127     4872             GJU$XCON is called from GJS$ABORTM to determine if exit
     1128     4873             control processing is to be initiated.
     1129     4874             If so, the alternate return will be taken.  If the abort
     1130     4875             logic is to continue, the normal return will be taken.
     1131     4876        */
     1132     4877    2      DO CASE(G$UHJIT.DMN.ID);

   4877   1 000005  EC80 0000 0000  xsym                 LDB,B6   G$UHJIT$
          1 000008  B846 007E                            LDR,R3   126,B6
          1 00000A  3D08                                 CMV,R3   8
          1 00000B  0281 0021                            BGE      s:4885,PREL
          1 00000D  A830 0000 0013  01                   LDR,R2   s:4877+14,R3
          1 000010  83A0 0000 001B  01                   JMP      s:4879,R2
          1 000013       0012                            DC       s:4885,PREL
          1 000014       0009                            DC       s:4882,PREL
          1 000015       0000                            DC       s:4879,PREL
          1 000016       0000                            DC       s:4879,PREL
          1 000017       0012                            DC       s:4885,PREL
          1 000018       0009                            DC       s:4882,PREL
          1 000019       0000                            DC       s:4879,PREL
          1 00001A       0000                            DC       s:4879,PREL

     1133     4878    2       CASE(%G_DMN_USR#, %G_DMN_USR_SVC#, %G_DMN_INT#, %G_DMN_INT_SVC#);

     1134     4879    2         ECCB$ = G$ROS.U_ECCB$;

   4879   1 00001B  DC80 0000 0000  xsym                 LDB,B5   G$ROS$
          1 00001E  CCC5 000C                            LDB,B4   12,B5
          1 000020  CFC7 0008                            STB,B4   ECCB$,AUTO
          1 000022  0F81 0013                            B        s:4896,PREL

     1135     4880
     1136     4881    2       CASE(%G_DMN_DB#, %G_DMN_DB_SVC#);
PL6.E3A0      #003=GJU$XCON File=GJU$UTIL.:E05TSI                                TUE 07/29/97 22:10 Page:173

     1137     4882    2         ECCB$ = G$ROS.DB_ECCB$;

   4882   1 000024  DC80 0000 0000  xsym                 LDB,B5   G$ROS$
          1 000027  CCC5 000E                            LDB,B4   14,B5
          1 000029  CFC7 0008                            STB,B4   ECCB$,AUTO
          1 00002B  0F81 000A                            B        s:4896,PREL

     1138     4883
     1139     4884    2       CASE(ELSE);

     1140     4885    2         CALL SCREECH(SDOMAIN);

   4885   1 00002D  BB80 0000 0000  02                   LAB,B3   0
          1 000030  CBF0 0100                            LAB,B4   256,IMO
          1 000032  E380 0000 0000  xent                 LNJ,B6   SCREECH
          1 000035       0001                            DC       s:4896,PREL

     1141     4886
     1142     4887    2         END /*do case*/;

     1143     4888
     1144     4889        /*S* SCREECH_CODE: GJU-S$SSFRAME
     1145     4890             TYPE: SUA
     1146     4891             MESSAGE:  Invalid domain number in UHJIT.
     1147     4892             REMARKS:  The bad domain was detected by GJU$XCON
     1148     4893                       which expects only G_DMN_USR_SVC or G_DMN_DB_SVC.
     1149     4894        */
     1150     4895
     1151     4896    1      IF G$UHJIT.ISA_USR.TSAP$ = ADDR(NIL)

   4896   1 000036  EC80 0000 0000  xsym                 LDB,B6   G$UHJIT$
          1 000039  8DC6 007F                            CMN      127,B6
          1 00003B  0981 000C                            BNE      s:4901,PREL

     1152     4897    2      THEN DO;

PL6.E3A0      #003=GJU$XCON File=GJU$UTIL.:E05TSI                                TUE 07/29/97 22:10 Page:174
     1153     4898    2           CALL SCREECH(SDOMAIN);

   4898   1 00003D  BB80 0000 0000  02                   LAB,B3   0
          1 000040  CBF0 0100                            LAB,B4   256,IMO
          1 000042  E380 0000 0000  xent                 LNJ,B6   SCREECH
          1 000045       0001                            DC       s:4899,PREL

     1154     4899    2           END;

   4899   1 000046  0F81 000E                            B        s:4908,PREL

     1155     4900    2      ELSE DO;

     1156     4901    2           ENVTCB_PARAMS = '0'B;

   4901   1 000048  5C1E                                 LDV,R5   30
          1 000049  0021                                 ALR      ;
          1 00004A       4178 0000                                ALPHANUM('0000'X,IMO,,1),;
          1 00004C       4007 000A                                ALPHANUM(ENVTCB_PARAMS,AUTO,,R5,FILL)

     1157     4902    2           ENVTCB_PARAMS.ENV$ = ADDR(G$UHJIT.TSA_USR);

   4902   1 00004E  DBC6 00B6                            LAB,B5   182,B6
          1 000050  437F                                 CSYNC    s:4902+1,SPREL
          1 000051  DFC7 0015                            STB,B5   ENVTCB_PARAMS+11,AUTO

     1158     4903    2           ENVTCB_PARAMS.ENVTYPE = %GUE_ENVTCB_TSA#;

   4903   1 000053  8747 0014                            CL       ENVTCB_PARAMS+10,AUTO

     1159     4904    2           END;

     1160     4905
     1161     4906        /*D* Remember exit conditions in FRS.
     1162     4907        */
     1163     4908    1      G$JIT.FRS = (G$JIT.FRS | (G$JIT.RNST & %G_RS_XCON#) );

PL6.E3A0      #003=GJU$XCON File=GJU$UTIL.:E05TSI                                TUE 07/29/97 22:10 Page:175
   4908   1 000055  EC80 0000 0000  xsym                 LDB,B6   G$JIT$
          1 000058  E846 0096                            LDR,R6   150,B6
          1 00005A  E570 FFF0                            AND,R6   -16,IMO
          1 00005C  E446 003E                            OR,R6    62,B6
          1 00005E  EF46 003E                            STR,R6   62,B6

     1164     4909
     1165     4910        /*D* If this is an exit from XCON or a repeated class 2/3 abort
     1166     4911             the ECCB is reset to prevent re-entry to the user XCON routine.
     1167     4912        */
     1168     4913    1      IF G$ECCB.FLAGS.XCONP

   4913   1 000060  DCC7 0008                            LDB,B5   ECCB$,AUTO
          1 000062  89C5 000A                            CMZ      10,B5
          1 000064  0881 0013                            BAGE     s:4928,PREL

     1169     4914    1      THEN IF (G$JIT.RNST & %G_RS_MCL#) = '0000'X

   4914   1 000066  D846 0096                            LDR,R5   150,B6
          1 000068  D570 FFFC                            AND,R5   -4,IMO
          1 00006A  5981 000D                            BNEZ,R5  s:4928,PREL

     1170     4915    2           THEN DO;

     1171     4916    2   NO_XCON:     ;

   4916   1                              NO_XCON         null
     1172     4917    2                G$ECCB.FLAGS.XCONP = '0'B;

   4917   1 00006C  ECC7 0008            NO_XCON         LDB,B6   ECCB$,AUTO
          1 00006E  8846 000A                            LBF,'8000'X       10,B6
          1 000070       8000

     1173     4918    2                G$ECCB.XCON$ = ENTADDR(NIL);

   4918   1 000071  DC80 0000 0002  02                   LDB,B5   +2
          1 000074  DFC6 0004                            STB,B5   4,B6
PL6.E3A0      #003=GJU$XCON File=GJU$UTIL.:E05TSI                                TUE 07/29/97 22:10 Page:176

     1174     4919    2                GOTO XCON_EXIT;

   4919   1 000076  0F81 00B0                            B        s:4994,PREL

     1175     4920    2                END;
     1176     4921
     1177     4922        /*D* If the entry address for exit control in the ECCB is not nil,
     1178     4923             the GUE$ENVTCB routine is called to put an exit control frame
     1179     4924             on the TCB and put the user's XCON handler address in TSA.P$$.
     1180     4925             An altret to GJS$ABORTM will then cause a normal return to
     1181     4926             whoever initiated the abort logic.
     1182     4927        */
     1183     4928    1      IF (G$ECCB.XCON$ ~= ENTADDR(NIL) )

   4928   1 000078  CCC5 0004                            LDB,B4   4,B5
          1 00007A  CD80 0000 0002  02                   CMB,B4   +2
          1 00007D  0981 000A                            BNE      s:4931,PREL
          1 00007F  D2C6 008D                            LLH,R5   141,B6
          1 000081  5901 00A5                            BEZ,R5   s:4994,PREL
          1 000083  82C6 0096                            LB,'0004'X        150,B6
          1 000085       0004
          1 000086  0501 00A0                            BBT      s:4994,PREL

     1184     4929    1        OR ( (G$JIT.DB# ~= 0) AND NOT(G$JIT.RNST.LDTRC) )
     1185     4930    2      THEN DO;

     1186     4931    2           IF (G$JIT.RNST & %G_RS_CL23#)

   4931   1 000088  D846 0096                            LDR,R5   150,B6
          1 00008A  D570 FF00                            AND,R5   -256,IMO
          1 00008C  5901 0013                            BEZ,R5   s:4940,PREL

     1187     4932    3           THEN DO;

     1188     4933    3                IF (G$JIT.RNST & %G_RS_CL23#) AND G$ECCB.FLAGS.EXTD_LIM

PL6.E3A0      #003=GJU$XCON File=GJU$UTIL.:E05TSI                                TUE 07/29/97 22:10 Page:177
   4933   1 00008E  D846 0096                            LDR,R5   150,B6
          1 000090  D570 FF00                            AND,R5   -256,IMO
          1 000092  5901 0005                            BEZ,R5   s:4936,PREL
          1 000094  82C5 000A                            LB,'2000'X        10,B5
          1 000096       2000
          1 000097  0555                                 BBT      s:4915,SPREL

     1189     4934    3                THEN GOTO NO_XCON;
     1190     4935
     1191     4936    3                G$JIT.MRT = G_XCONTIME;

   4936   1 000098  8C80 0000 0000  xsym                 LDI      G_XCONTIME
          1 00009B  8D46 0070                            SDI      112,B6

     1192     4937    3                G$ECCB.FLAGS.EXTD_LIM = '1'B;

   4937   1 00009D  8945 000A                            LBT,'2000'X       10,B5
   4937   1 00009F       2000

     1193     4938    3                END;

     1194     4939
     1195     4940    2           IF (G$JIT.DB# = 0) OR (G$JIT.JUNK.BYPASSD)

   4940   1 0000A0  E2C6 008D                            LLH,R6   141,B6
          1 0000A2  6901 0006                            BEZ,R6   s:4941,PREL
          1 0000A4  82C6 0098                            LB,'0200'X        152,B6
          1 0000A6       0200
          1 0000A7  0581 0007                            BBF      s:4942,PREL

     1196     4941    2           THEN ENVTCB_PARAMS.P$$ = G$ECCB.XCON$;

   4941   1 0000A9  CCC5 0004                            LDB,B4   4,B5
          1 0000AB  CFC7 000A                            STB,B4   ENVTCB_PARAMS,AUTO
          1 0000AD  0F81 0007                            B        s:4943,PREL

     1197     4942    2           ELSE ENVTCB_PARAMS.P$$ = ENVTCB_PARAMS.ENV$->G$TSA.P$$;
PL6.E3A0      #003=GJU$XCON File=GJU$UTIL.:E05TSI                                TUE 07/29/97 22:10 Page:178

   4942   1 0000AF  CCC7 0015                            LDB,B4   ENVTCB_PARAMS+11,AUTO
          1 0000B1  BCC4 0008                            LDB,B3   8,B4
          1 0000B3  BFC7 000A                            STB,B3   ENVTCB_PARAMS,AUTO

     1198     4943    2           G$JIT.JUNK.BYPASSD = '0'B;

   4943   1 0000B5  8846 0098                            LBF,'0200'X       152,B6
   4943   1 0000B7       0200

     1199     4944
     1200     4945    2           ENVTCB_PARAMS.ECC = %G_XCON#;

   4945   1 0000B8  5C02                                 LDV,R5   2
          1 0000B9  DF47 000C                            STR,R5   ENVTCB_PARAMS+2,AUTO

     1201     4946    2           ENVTCB_PARAMS.ECINFO.XCON.TRAP# = ENVTCB_PARAMS.ENV$->G$TSA.I.TRAP#;

   4946   1 0000BB  CCC7 0015                            LDB,B4   ENVTCB_PARAMS+11,AUTO
          1 0000BD  C2C4 0002                            LLH,R4   2,B4
          1 0000BF  C7C7 000D                            STH,R4   ENVTCB_PARAMS+3,AUTO

     1202     4947    2           ENVTCB_PARAMS.ECINFO.XCON.FLAGS.XCONP = G$ECCB.FLAGS.XCONP;

   4947   1 0000C1  C845 000A                            LDR,R4   10,B5
          1 0000C3  4048                                 SOR,R4   8
          1 0000C4  CAC7 000D                            SRM,R4,'0080'X    ENVTCB_PARAMS+3,AUTO
          1 0000C6       0080

     1203     4948    2           ENVTCB_PARAMS.ECINFO.RNST = G$JIT.RNST;

   4948   1 0000C7  C846 0096                            LDR,R4   150,B6
          1 0000C9  CF47 000E                            STR,R4   ENVTCB_PARAMS+4,AUTO

     1204     4949    2           ENVTCB_PARAMS.ECINFO.ERR = G$JIT.ERR;

   4949   1 0000CB  8CC6 003C                            LDI      60,B6
PL6.E3A0      #003=GJU$XCON File=GJU$UTIL.:E05TSI                                TUE 07/29/97 22:10 Page:179
          1 0000CD  8D47 000F                            SDI      ENVTCB_PARAMS+5,AUTO

     1205     4950    2           ENVTCB_PARAMS.ECINFO.P# = P#;

   4950   1 0000CF  BCC7 0006                            LDB,B3   @P#,AUTO
          1 0000D1  B803                                 LDR,R3   ,B3
          1 0000D2  BF47 0011                            STR,R3   ENVTCB_PARAMS+7,AUTO

     1206     4951    2           ENVTCB_PARAMS.MOREINFO$ = INFO$;

   4951   1 0000D4  ACC7 0004                            LDB,B2   @INFO$,AUTO
          1 0000D6  9C82                                 LDB,B1   ,B2
          1 0000D7  9FC7 0012                            STB,B1   ENVTCB_PARAMS+8,AUTO

     1207     4952    2           ENVTCB_PARAMS.TCB$ = ADDR(NIL);

   4952   1 0000D9  EB80 0000 0000                       LAB,B6   0
          1 0000DC  EFC7 0017                            STB,B6   ENVTCB_PARAMS+13,AUTO

     1208     4953
     1209     4954    2           CALL GUE$ENVTCB(ENVTCB_PARAMS)

   4954   1 0000DE  EBC7 000A                            LAB,B6   ENVTCB_PARAMS,AUTO
          1 0000E0  EFC7 001A                            STB,B6   ENVTCB_PARAMS+16,AUTO
          1 0000E2  BBC7 001A                            LAB,B3   ENVTCB_PARAMS+16,AUTO
          1 0000E4  CBF0 0100                            LAB,B4   256,IMO
          1 0000E6  E380 0000 0000  xent                 LNJ,B6   GUE$ENVTCB
          1 0000E9       001C                            DC       s:4974,PREL

     1210     4955    3           WHENRETURN DO;

     1211     4956    3                G$ECCB.FLAGS.TCBFULL = '0'B;

   4956   1 0000EA  ECC7 0008                            LDB,B6   ECCB$,AUTO
          1 0000EC  8846 000A                            LBF,'4000'X       10,B6
          1 0000EE       4000

PL6.E3A0      #003=GJU$XCON File=GJU$UTIL.:E05TSI                                TUE 07/29/97 22:10 Page:180
   4956   1                              GO_XCON         null
     1212     4957    3   GO_XCON:     ;
     1213     4958    3                G$JIT.RNST = '0000'X;

   4958   1 0000EF  EC80 0000 0000  xsym GO_XCON         LDB,B6   G$JIT$
          1 0000F2  8746 0096                            CL       150,B6

     1214     4959    3                G$ECCB.FLAGS.XCONP ='1'B;

   4959   1 0000F4  DCC7 0008                            LDB,B5   ECCB$,AUTO
          1 0000F6  8945 000A                            LBT,'8000'X       10,B5
          1 0000F8       8000

     1215     4960
     1216     4961    3                IF G$JIT.DB# ~= 0

   4961   1 0000F9  E2C6 008D                            LLH,R6   141,B6
          1 0000FB  6901 0006                            BEZ,R6   s:4964,PREL

     1217     4962    3                THEN ENVTCB_PARAMS.ENV$->G$TSA.I.TRAP# = %G_FPRG_XCON#;

   4962   1 0000FD  5C3A                                 LDV,R5   58
          1 0000FE  CCC7 0015                            LDB,B4   ENVTCB_PARAMS+11,AUTO
          1 000100  D7C4 0002                            STH,R5   2,B4

     1218     4963
     1219     4964    3                ALTRETURN;

   4964   1 000102  C380 0000 0000  xent                 LNJ,B4   X6A_AALT

     1220     4965    3                END;
     1221     4966
     1222     4967        /*D* When there is no room on the TCB, the exit control frame will be
     1223     4968             placed in the TCB's ALTRET frame and the TCBFULL bit will be set
     1224     4969             in the ECCB.  If this condition should occur again, i.e. a trap
     1225     4970             in the user's exit control logic, exit control will not be
     1226     4971             re-entered.
PL6.E3A0      #003=GJU$XCON File=GJU$UTIL.:E05TSI                                TUE 07/29/97 22:10 Page:181
     1227     4972        */
     1228     4973    3           WHENALTRETURN DO;

     1229     4974    3                IF G$ECCB.FLAGS.TCBFULL= '1'B

   4974   1 000105  ECC7 0008                            LDB,B6   ECCB$,AUTO
          1 000107  82C6 000A                            LB,'4000'X        10,B6
          1 000109       4000
          1 00010A  0581 0004                            BBF      s:4977,PREL

     1230     4975    3                THEN RETURN;

   4975   1 00010C  C380 0000 0000  xent                 LNJ,B4   X6A_ARET

     1231     4976
     1232     4977    3                ENVTCB_PARAMS.ECC = %G_TCBFULL#;

   4977   1 00010F  6C62                                 LDV,R6   98
          1 000110  EF47 000C                            STR,R6   ENVTCB_PARAMS+2,AUTO

     1233     4978    3                CALL GUE$ENVTCB(ENVTCB_PARAMS)

   4978   1 000112  DBC7 000A                            LAB,B5   ENVTCB_PARAMS,AUTO
          1 000114  DFC7 001A                            STB,B5   ENVTCB_PARAMS+16,AUTO
          1 000116  BBC7 001A                            LAB,B3   ENVTCB_PARAMS+16,AUTO
          1 000118  CBF0 0100                            LAB,B4   256,IMO
          1 00011A  E380 0000 0000  xent                 LNJ,B6   GUE$ENVTCB
          1 00011D       0007                            DC       s:4984,PREL

     1234     4979    4                WHENRETURN DO;

     1235     4980    4                     G$ECCB.FLAGS.TCBFULL = '1'B;

   4980   1 00011E  ECC7 0008                            LDB,B6   ECCB$,AUTO
          1 000120  8946 000A                            LBT,'4000'X       10,B6
          1 000122       4000

PL6.E3A0      #003=GJU$XCON File=GJU$UTIL.:E05TSI                                TUE 07/29/97 22:10 Page:182
     1236     4981    4                     GOTO GO_XCON;

   4981   1 000123  0FCC                                 B        s:4956,SPREL

     1237     4982    4                     END;
     1238     4983    4                WHENALTRETURN DO;

     1239     4984    4                     RETURN;

   4984   1 000124  C380 0000 0000  xent                 LNJ,B4   X6A_ARET

     1240     4985    4                     END;
     1241     4986
     1242     4987    3                END;
     1243     4988
     1244     4989    2           END;
     1245     4990
     1246     4991        /*D* If the user has not requested XCON (or this is an XCON exit)
     1247     4992             JIT.RNST is reset and GJU$XCON returns to GJS$ABORTM.
     1248     4993        */
     1249     4994    2      ELSE DO;

   4989   1                              XCON_EXIT       null
     1250     4995
     1251     4996    2   XCON_EXIT: ;
     1252     4997    2           G$JIT.RNST = (G$JIT.RNST | (G$JIT.FRS & %G_RS_XCON#) );

   4997   1 000127  EC80 0000 0000  xsym XCON_EXIT       LDB,B6   G$JIT$
          1 00012A  E846 003E                            LDR,R6   62,B6
          1 00012C  E570 FFF0                            AND,R6   -16,IMO
          1 00012E  E446 0096                            OR,R6    150,B6
          1 000130  EF46 0096                            STR,R6   150,B6

     1253     4998    2           END;

     1254     4999
     1255     5000    1   END GJU$XCON;
PL6.E3A0      #003=GJU$XCON File=GJU$UTIL.:E05TSI                                TUE 07/29/97 22:10 Page:183

   5000   1 000132  C380 0000 0000  xent                 LNJ,B4   X6A_ARET
     1256     5001        %EOD;

PL6.E3A0      #003=GJU$XCON File=GJU$UTIL.:E05TSI                                TUE 07/29/97 22:10 Page:184
--  Include file information  --

   J_SCODE_C.:E05TOU  is referenced.
   G_HJIT_M.:E05TOU  is referenced.
   G_JIT_M.:E05TOU  is referenced.
   G_ROS_M.:E05TOU  is referenced.
   GU_MACROS_M.:E05TOU  is referenced.
   G_LCP6_E.:E05TOU  was found in the system file and is referenced.
   GT_LCP6_M.:E05TOU  was found in the system file and is never referenced.
   KI_CP6.:E05TOU  was found in the system file and is never referenced.
   GF_LCP6_M.:E05TOU  was found in the system file and is never referenced.
   GM_LCP6_M.:E05TOU  was found in the system file and is never referenced.
   GU_LCP6_M.:E05TOU  was found in the system file and is referenced.
   GJ_LCP6_M.:E05TOU  was found in the system file and is never referenced.
   GH_LCP6_M.:E05TOU  was found in the system file and is referenced.
      No diagnostics issued in procedure GJU$XCON.
PL6.E3A0      #003=GJU$XCON File=GJU$UTIL.:E05TSI                                TUE 07/29/97 22:10 Page:185

 **** Variables and constants ****

  ****  Section 000 RoData GJU$XCON

  ****  Scalars and arrays  ****
HexLoc.c.b A Datatyp(siz) R M Lvl/name                 HexLoc.c.b A Datatyp(siz) R M Lvl/name

     0-0-0/w STRC(48)    r     1 SDOMAIN

  ****  Auto variables  ****

  ****  Scalars and arrays  ****
HexLoc.c.b A Datatyp(siz) R M Lvl/name                 HexLoc.c.b A Datatyp(siz) R M Lvl/name

     4-0-0/w PTR         r     1 @INFO$                     6-0-0/w PTR         r     1 @P#
     8-0-0/w PTR         r     1 ECCB$                      A-0-0/w STRC(240)   r     1 ENVTCB_PARAMS
    *0-0-0/w PTR         r     1 INFO$                     *0-0-0/w UBIN(16)    r     1 P#

  ****  SYMREF variables  ****

  ****  Scalars and arrays  ****
HexLoc.c.b A Datatyp(siz) R M Lvl/name                 HexLoc.c.b A Datatyp(siz) R M Lvl/name

     0-0-0/w PTR         r     1 G$JIT$                     0-0-0/w PTR         r     1 G$ROS$
     0-0-0/w PTR         r     1 G$UHJIT$                   0-0-0/w UBIN(32)    r     1 G_XCONTIME

  ****  BASED and DCB variables  ****

  ****  Scalars and arrays  ****
HexLoc.c.b A Datatyp(siz) R M Lvl/name                 HexLoc.c.b A Datatyp(siz) R M Lvl/name

     0-0-0/w STRC(224)   r     1 G$ECCB                     0-0-0/w STRC(5616)  r     1 G$JIT
     0-0-0/w STRC(928)   r     1 G$ROS                      0-0-0/w STRC(928)   r     1 G$TSA
     0-0-0/w STRC(6480)  r     1 G$UHJIT

PL6.E3A0      #003=GJU$XCON File=GJU$UTIL.:E05TSI                                TUE 07/29/97 22:10 Page:186

   Procedure GJU$XCON requires 309 words for executable code.
   Procedure GJU$XCON requires 28 words of local(AUTO) storage.
PL6.E3A0      #003=GJU$XCON File=GJU$UTIL.:E05TSI                                TUE 07/29/97 22:10 Page:187
          *** CROSS REFERENCE LISTING ***
**     DENOTES     IDENTIFIER DEFINITION
<<                 IDENTIFIER'S VALUE SET
>>                 IDENTIFIER'S VALUE USED
<>                 IDENTIFIER SET AND/OR USED
--                 IDENTIFIER REFERENCED
PL6.E3A0      #003=GJU$XCON File=GJU$UTIL.:E05TSI                                TUE 07/29/97 22:10 Page:188
          MINI XREF LISTING

ECCB$
       704**DCL      1692--IMP-PTR  4879<<ASSIGN   4882<<ASSIGN   4913>>IF       4917>>ASSIGN   4918>>ASSIGN
      4928>>IF       4933>>IF       4937>>ASSIGN   4941>>ASSIGN   4947>>ASSIGN   4956>>ASSIGN   4959>>ASSIGN
      4974>>IF       4980>>ASSIGN
ENVTCB_PARAMS
       706**DCL      4901<<ASSIGN   4954<>CALL     4978<>CALL
ENVTCB_PARAMS.ECC
       706**DCL      4945<<ASSIGN   4977<<ASSIGN
ENVTCB_PARAMS.ECINFO.ERR
       792**DCL      4949<<ASSIGN
ENVTCB_PARAMS.ECINFO.EVID
       749**DCL       767--REDEF     775--REDEF     775--REDEF
ENVTCB_PARAMS.ECINFO.P#
       822**DCL      4950<<ASSIGN
ENVTCB_PARAMS.ECINFO.RNST
       767**DCL      4948<<ASSIGN
ENVTCB_PARAMS.ECINFO.SUBC
       726**DCL       726--REDEF     744--REDEF     748--REDEF     748--REDEF
ENVTCB_PARAMS.ECINFO.XCON.FLAGS.XCONP
       749**DCL      4947<<ASSIGN
ENVTCB_PARAMS.ECINFO.XCON.TRAP#
       749**DCL      4946<<ASSIGN
ENVTCB_PARAMS.ENV$
       824**DCL      4902<<ASSIGN   4942>>ASSIGN   4946>>ASSIGN   4962>>ASSIGN
ENVTCB_PARAMS.ENVTYPE
       824**DCL      4903<<ASSIGN
ENVTCB_PARAMS.MOREINFO$
       824**DCL      4951<<ASSIGN
ENVTCB_PARAMS.P$$
       706**DCL       706--REDEF    4941<<ASSIGN   4942<<ASSIGN
ENVTCB_PARAMS.TCB$
       824**DCL      4952<<ASSIGN
PL6.E3A0      #003=GJU$XCON File=GJU$UTIL.:E05TSI                                TUE 07/29/97 22:10 Page:189
G$ECCB.FLAGS.EXTD_LIM
      1703**DCL      4933>>IF       4937<<ASSIGN
G$ECCB.FLAGS.TCBFULL
      1703**DCL      4956<<ASSIGN   4974>>IF       4980<<ASSIGN
G$ECCB.FLAGS.XCONP
      1703**DCL      4913>>IF       4917<<ASSIGN   4947>>ASSIGN   4959<<ASSIGN
G$ECCB.FLTFLG
      1721**DCL      1752--REDEF
G$ECCB.XCON$
      1698**DCL      4918<<ASSIGN   4928>>IF       4941>>ASSIGN
G$JIT.DB#
      1459**DCL      4928>>IF       4940>>IF       4961>>IF
G$JIT.ERR
      1366**DCL      4949>>ASSIGN
G$JIT.ERRLOG
      1608**DCL      1611--REDEF
G$JIT.FRS
      1417**DCL      4908<<ASSIGN   4908>>ASSIGN   4997>>ASSIGN
G$JIT.JSUNIT
      1347**DCL      1348--REDEF
G$JIT.JUNK.BYPASSD
      1600**DCL      4940>>IF       4943<<ASSIGN
G$JIT.MCLS
      1346**DCL      1346--REDEF
G$JIT.MRT
      1447**DCL      4936<<ASSIGN
G$JIT.RNST
      1578**DCL      4908>>ASSIGN   4914>>IF       4931>>IF       4933>>IF       4948>>ASSIGN   4958<<ASSIGN
      4997<<ASSIGN   4997>>ASSIGN
G$JIT.RNST.LDTRC
      1583**DCL      4928>>IF
G$JIT.TMRZ
      1615**DCL      1616--REDEF
G$JIT.USER_EXTIME
      1339**DCL      1340--REDEF
G$JIT.USER_MEMTIME
PL6.E3A0      #003=GJU$XCON File=GJU$UTIL.:E05TSI                                TUE 07/29/97 22:10 Page:190
      1342**DCL      1342--REDEF
G$JIT.USER_SVTIME
      1341**DCL      1341--REDEF
G$JIT$
      4731**DCL      1278--IMP-PTR  4908>>ASSIGN   4908>>ASSIGN   4908>>ASSIGN   4914>>IF       4928>>IF
      4928>>IF       4931>>IF       4933>>IF       4936>>ASSIGN   4940>>IF       4940>>IF       4943>>ASSIGN
      4948>>ASSIGN   4949>>ASSIGN   4958>>ASSIGN   4961>>IF       4997>>ASSIGN   4997>>ASSIGN   4997>>ASSIGN
G$ROS.AUTO_DS$
      1243**DCL      1244--REDEF
G$ROS.AUTO_T$
      1244**DCL      1244--REDEF
G$ROS.DB_ECCB$
      1241**DCL      4882>>ASSIGN
G$ROS.U_ECCB$
      1241**DCL      4879>>ASSIGN
G$ROS$
      4730**DCL      1234--IMP-PTR  4879>>ASSIGN   4882>>ASSIGN
G$TSA.I.TRAP#
       883**DCL      4946>>ASSIGN   4962<<ASSIGN
G$TSA.ISA.P$$
      1020**DCL      1020--REDEF
G$TSA.P$$
       891**DCL       891--REDEF     892--REDEF    4942>>ASSIGN
G$UHJIT.DMN.ID
      3489**DCL      4877>>DOCASE
G$UHJIT.ISA_USR
      3194**DCL      3489--REDEF
G$UHJIT.ISA_USR.P$$
      3269**DCL      3269--REDEF
G$UHJIT.ISA_USR.TSAP$
      3196**DCL      4896>>IF
G$UHJIT.TSA_CP.ISA.P$$
      4476**DCL      4476--REDEF
G$UHJIT.TSA_CP.P$$
      4347**DCL      4347--REDEF    4348--REDEF
G$UHJIT.TSA_DB.ISA.P$$
PL6.E3A0      #003=GJU$XCON File=GJU$UTIL.:E05TSI                                TUE 07/29/97 22:10 Page:191
      4088**DCL      4088--REDEF
G$UHJIT.TSA_DB.P$$
      3959**DCL      3959--REDEF    3960--REDEF
G$UHJIT.TSA_RTT.P$$
      4722**DCL      4722--REDEF    4723--REDEF
G$UHJIT.TSA_USR
      3519**DCL      4902--ASSIGN
G$UHJIT.TSA_USR.ISA.P$$
      3678**DCL      3678--REDEF
G$UHJIT.TSA_USR.P$$
      3549**DCL      3549--REDEF    3550--REDEF
G$UHJIT$
      4732**DCL      1771--IMP-PTR  4877>>DOCASE   4896>>IF       4902>>ASSIGN
GO_XCON
      4956**LABEL    4981--GOTO
GUE$ENVTCB
      4736**DCL-ENT  4954--CALL     4978--CALL
G_XCONTIME
      4733**DCL      4936>>ASSIGN
INFO$
       701**DCL        14--PROC     4951>>ASSIGN
NO_XCON
      4916**LABEL    4934--GOTO
P#
       702**DCL        14--PROC     4950>>ASSIGN
SCREECH
      4737**DCL-ENT  4885--CALL     4898--CALL
SDOMAIN
      4768**DCL      4885<>CALL     4898<>CALL
XCON_EXIT
      4989**LABEL    4919--GOTO

PL6.E3A0      #004=GJU$EVENT File=GJU$UTIL.:E05TSI                               TUE 07/29/97 22:11 Page:192
     1257        1        /*T***********************************************************/
     1258        2        /*T*                                                         */
     1259        3        /*T* Copyright (c) Bull HN Information Systems Inc., 1997    */
     1260        4        /*T*                                                         */
     1261        5        /*T***********************************************************/
     1262        6        /*D* NAME: GJU$EVENT
     1263        7             PURPOSE: This routine handles the events that come in from
     1264        8                      the host monitor.
     1265        9         */
     1266       10
     1267       11        GJU$EVENT: PROC (USER,GJ_FCN_MSG);
     1268       12
     1269       13        /* Include files */
     1270       14        %INCLUDE GJ_MSG_M;
     1271      327        %INCLUDE GH_SCHD_E;
     1272      423 S      %INCLUDE GU_LCP6_M;
     1273      424
     1274      425        /* Parameters */
     1275      426    1   DCL USER UBIN;                          /* User number              */
     1276      427        %GJ_FCN_MSG (STCLASS="");
     1277      497
     1278      498        /* Entrys */
     1279      499    1   DCL GHS$RUE ENTRY(4) ALTRET;
     1280      500
     1281      501        /* Equate */
     1282      502        %GJ_FCN#;
     1283      528
     1284      529
     1285      530    2      DO CASE (GJ_FCN_MSG.FCN);
     1286      531
     1287      532    2       CASE (%GJ_WAKEDB#);
     1288      533    2         CALL GHS$RUE (%GH_EVALIBFD,USER);
     1289      534
     1290      535    2       CASE(%GJ_RTNFID#);
     1291      536    2         CALL GHS$RUE (%GH_EVALIBFD,USER,GJ_FCN_MSG);
     1292      537    2         END;
     1293      538
PL6.E3A0      #004=GJU$EVENT File=GJU$UTIL.:E05TSI                               TUE 07/29/97 22:11 Page:193
     1294      539    1      RETURN;
     1295      540
     1296      541    1   END GJU$EVENT;

PL6.E3A0      #004=GJU$EVENT File=GJU$UTIL.:E05TSI                               TUE 07/29/97 22:11 Page:194
--  Include file information  --

   GH_SCHD_E.:E05TOU  is referenced.
   GJ_MSG_M.:E05TOU  is referenced.
   G_LCP6_E.:E05TOU  was found in the system file and is never referenced.
   GT_LCP6_M.:E05TOU  was found in the system file and is never referenced.
   KI_CP6.:E05TOU  was found in the system file and is never referenced.
   GF_LCP6_M.:E05TOU  was found in the system file and is never referenced.
   GM_LCP6_M.:E05TOU  was found in the system file and is never referenced.
   GU_LCP6_M.:E05TOU  was found in the system file and is referenced.
   GJ_LCP6_M.:E05TOU  was found in the system file and is never referenced.
   GH_LCP6_M.:E05TOU  was found in the system file and is never referenced.
      No diagnostics issued in procedure GJU$EVENT.

   Procedure GJU$EVENT requires 60 words for executable code.
   Procedure GJU$EVENT requires 14 words of local(AUTO) storage.

    No errors detected in file GJU$UTIL.:E05TSI    .

PL6.E3A0      #004=GJU$EVENT File=GJU$UTIL.:E05TSI                               TUE 07/29/97 22:11 Page:195

 Object Unit name= GJU$EVENT                                  File name= GJU$UTIL.:E05TOU
 UTS= JUL 29 '97 22:11:49.92 TUE                              Compiler= PL-6/E31         Sev=      00
 SharedLib= :SHARED_LCP6_SYSTEM                               Alt SharedLib=


    ****  Control sections  ****

 Sect   Type Bound  Init  Size HexSiz  Section name
    0   Proc  even  none    60     3C  GJU$EVENT

    ****  Entry defs  ****

                              Check   Calling
                             calling  sequence
  Sect HexLoc Primary Altret sequence   type   Parms  Name
     0      0   yes            yes      Std        2  GJU$EVENT

  ****  Entry refs  ****

         Check        Calling
        calling       sequence
Altret sequence SRef   type   Args  Name
 yes     yes           Std       4 GHS$RUE
                       nStd      0 X6A_AUTO_2
                       nStd      0 X6A_ARET

  ****  Data refs  ****

  Flags:  r = read only, s = secondary
Flgs Name                             Flgs Name                             Flgs Name
r    G$ROS$
PL6.E3A0      #004=GJU$EVENT File=GJU$UTIL.:E05TSI                               TUE 07/29/97 22:11 Page:196


     1257        1        /*T***********************************************************/
     1258        2        /*T*                                                         */
     1259        3        /*T* Copyright (c) Bull HN Information Systems Inc., 1997    */
     1260        4        /*T*                                                         */
     1261        5        /*T***********************************************************/
     1262        6        /*D* NAME: GJU$EVENT
     1263        7             PURPOSE: This routine handles the events that come in from
     1264        8                      the host monitor.
     1265        9         */
     1266       10
     1267       11        GJU$EVENT: PROC (USER,GJ_FCN_MSG);

     11   0 000000  D380 0000 0000  xent GJU$EVENT       LNJ,B5   X6A_AUTO_2
          0 000003       000E 0002                       DC       14,2

     1268       12
     1269       13        /* Include files */
     1270       14        %INCLUDE GJ_MSG_M;
     1271      327        %INCLUDE GH_SCHD_E;
     1272      423 S      %INCLUDE GU_LCP6_M;
     1273      424
     1274      425        /* Parameters */
     1275      426    1   DCL USER UBIN;                          /* User number              */
     1276      427        %GJ_FCN_MSG (STCLASS="");
     1277      497
     1278      498        /* Entrys */
     1279      499    1   DCL GHS$RUE ENTRY(4) ALTRET;
     1280      500
     1281      501        /* Equate */
     1282      502        %GJ_FCN#;
     1283      528
     1284      529
     1285      530    2      DO CASE (GJ_FCN_MSG.FCN);

    530   0 000005  ECC7 0006                            LDB,B6   @GJ_FCN_MSG,AUTO
          0 000007  B286                                 LLH,R3   ,B6
PL6.E3A0      #004=GJU$EVENT File=GJU$UTIL.:E05TSI                               TUE 07/29/97 22:11 Page:197
          0 000008  3EEF                                 ADV,R3   -17
          0 000009  3D03                                 CMV,R3   3
          0 00000A  0281 002E                            BGE      s:539,PREL
          0 00000C  A830 0000 0012  00                   LDR,R2   s:530+13,R3
          0 00000F  83A0 0000 0015  00                   JMP      s:533,R2
          0 000012       0000                            DC       s:533,PREL
          0 000013       0024                            DC       s:539,PREL
          0 000014       0012                            DC       s:536,PREL

     1286      531
     1287      532    2       CASE (%GJ_WAKEDB#);

     1288      533    2         CALL GHS$RUE (%GH_EVALIBFD,USER);

    533   0 000015  DBF0 0012                            LAB,B5   18,IMO
          0 000017  CCC7 0004                            LDB,B4   @USER,AUTO
          0 000019  CFC7 000A                            STB,B4   @GJ_FCN_MSG+4,AUTO
          0 00001B  DFC7 0008                            STB,B5   @GJ_FCN_MSG+2,AUTO
          0 00001D  BBC7 0008                            LAB,B3   @GJ_FCN_MSG+2,AUTO
          0 00001F  CBF0 0200                            LAB,B4   512,IMO
          0 000021  E380 0000 0000  xent                 LNJ,B6   GHS$RUE
          0 000024       0001                            DC       s:533+16,PREL
          0 000025  0F81 0013                            B        s:539,PREL

     1289      534
     1290      535    2       CASE(%GJ_RTNFID#);

     1291      536    2         CALL GHS$RUE (%GH_EVALIBFD,USER,GJ_FCN_MSG);

    536   0 000027  DBF0 0012                            LAB,B5   18,IMO
          0 000029  EFC7 000C                            STB,B6   @GJ_FCN_MSG+6,AUTO
          0 00002B  CCC7 0004                            LDB,B4   @USER,AUTO
          0 00002D  CFC7 000A                            STB,B4   @GJ_FCN_MSG+4,AUTO
          0 00002F  DFC7 0008                            STB,B5   @GJ_FCN_MSG+2,AUTO
          0 000031  BBC7 0008                            LAB,B3   @GJ_FCN_MSG+2,AUTO
          0 000033  CBF0 0300                            LAB,B4   768,IMO
          0 000035  E380 0000 0000  xent                 LNJ,B6   GHS$RUE
PL6.E3A0      #004=GJU$EVENT File=GJU$UTIL.:E05TSI                               TUE 07/29/97 22:11 Page:198
          0 000038       0001                            DC       s:539,PREL

     1292      537    2         END;

     1293      538
     1294      539    1      RETURN;

    539   0 000039  C380 0000 0000  xent                 LNJ,B4   X6A_ARET
     1295      540
     1296      541    1   END GJU$EVENT;

PL6.E3A0      #004=GJU$EVENT File=GJU$UTIL.:E05TSI                               TUE 07/29/97 22:11 Page:199
--  Include file information  --

   GH_SCHD_E.:E05TOU  is referenced.
   GJ_MSG_M.:E05TOU  is referenced.
   G_LCP6_E.:E05TOU  was found in the system file and is never referenced.
   GT_LCP6_M.:E05TOU  was found in the system file and is never referenced.
   KI_CP6.:E05TOU  was found in the system file and is never referenced.
   GF_LCP6_M.:E05TOU  was found in the system file and is never referenced.
   GM_LCP6_M.:E05TOU  was found in the system file and is never referenced.
   GU_LCP6_M.:E05TOU  was found in the system file and is referenced.
   GJ_LCP6_M.:E05TOU  was found in the system file and is never referenced.
   GH_LCP6_M.:E05TOU  was found in the system file and is never referenced.
      No diagnostics issued in procedure GJU$EVENT.
PL6.E3A0      #004=GJU$EVENT File=GJU$UTIL.:E05TSI                               TUE 07/29/97 22:11 Page:200

 **** Variables and constants ****

  ****  Auto variables  ****

  ****  Scalars and arrays  ****
HexLoc.c.b A Datatyp(siz) R M Lvl/name                 HexLoc.c.b A Datatyp(siz) R M Lvl/name

     6-0-0/w PTR         r     1 @GJ_FCN_MSG                4-0-0/w PTR         r     1 @USER
    *0-0-0/w STRC(48)    r     1 GJ_FCN_MSG                *0-0-0/w UBIN(16)    r     1 USER


   Procedure GJU$EVENT requires 60 words for executable code.
   Procedure GJU$EVENT requires 14 words of local(AUTO) storage.

    No errors detected in file GJU$UTIL.:E05TSI    .
PL6.E3A0      #004=GJU$EVENT File=GJU$UTIL.:E05TSI                               TUE 07/29/97 22:11 Page:201
          *** CROSS REFERENCE LISTING ***
**     DENOTES     IDENTIFIER DEFINITION
<<                 IDENTIFIER'S VALUE SET
>>                 IDENTIFIER'S VALUE USED
<>                 IDENTIFIER SET AND/OR USED
--                 IDENTIFIER REFERENCED
PL6.E3A0      #004=GJU$EVENT File=GJU$UTIL.:E05TSI                               TUE 07/29/97 22:11 Page:202
          MINI XREF LISTING

GHS$RUE
       499**DCL-ENT   533--CALL      536--CALL
GJ_FCN_MSG
       440**DCL        11--PROC      536<>CALL
GJ_FCN_MSG.FCN
       440**DCL       530>>DOCASE
USER
       426**DCL        11--PROC      533<>CALL      536<>CALL
