VERSION E05

PL6.E3A0      #001=GJ_DATA File=GJ_DATA_D.:E05TSI                                TUE 07/29/97 22:04 Page:1
        1        1        /*M* GJ_DATA_D  LCP-6 Central Systems Data  */
        2        2        /*T***********************************************************/
        3        3        /*T*                                                         */
        4        4        /*T* Copyright (c) Bull HN Information Systems Inc., 1997    */
        5        5        /*T*                                                         */
        6        6        /*T***********************************************************/
        7        7        /*X* MEC,MOC,EXM=20,CLM=30,CRM=100 */
        8        8
        9        9                            /*F* NAME: GJ_DATA_D
       10       10
       11       11                            The module GJ_DATA_D contains the data required by
       12       12                            central systems in LCP-6.  This includes:
       13       13                            */
       14       14
       15       15        GJ_DATA: PROC;
       16       16
       17       17        %INCLUDE GJ_MACROS_M;
       18      490        %INCLUDE GH_GATE_M;
       19      531
       20      532        %GATE (FPTN=G_SLOCK,STCLASS=STATIC SYMDEF);
       21      551                            /*K* G_SLOCK - GATE.  This is the gate to be
       22      552                            used with the shared file table.
       23      553                            */
       24      554
       25      555        %GATE (FPTN=GFR_RES_LOCK,STCLASS=STATIC SYMDEF);
       26      574                            /*K* GFR_RES_LOCK - GATE.  This is the gate to be
       27      575                            used for resource management.
       28      576                            */
       29      577
       30      578        %GATE (FPTN=GJ_BOOT_LOCK,STCLASS=STATIC SYMDEF);
       31      597    1   DCL GJ_BOOTBASE UBIN(32) STATIC SYMDEF;
       32      598    1   DCL GJ_BOOTSIZE UBIN(32) STATIC SYMDEF INIT(8192);
       33      599    1   DCL GJ_BOOTCHAN  UBIN STATIC SYMDEF;
       34      600    1   DCL GJ_BOOT_HNDLRS  SBIN STATIC SYMDEF;
       35      601    1   DCL GJ_QUIET UBIN STATIC SYMDEF INIT(0);
       36      602
       37      603    1   DCL GJ_FETCH_SZ UBIN CONSTANT SYMDEF INIT(512);
PL6.E3A0      #001=GJ_DATA File=GJ_DATA_D.:E05TSI                                TUE 07/29/97 22:04 Page:2
       38      604                            /*K* GJ_FETCH_SZ UBIN WORD.
       39      605                            Contains the byte size of the records
       40      606                            (sans communication headers) to be read
       41      607                            from the host when fetching fprgs.
       42      608                            */
       43      609                            /*K* GJ_QUIET - UBIN WORD.
       44      610                            GJ_QUIET may be set non-zero to prevent the FPRG
       45      611                            on/off messages from being displayed on the OC.
       46      612                            This is useful only for M:FEP testing and is intended
       47      613                            to preserve the sanity of the operators on the L66B.
       48      614                            */
       49      615
       50      616    1   DCL GJ_ON_COUNT UBIN STATIC SYMDEF INIT(0);
       51      617                            /*K* GJ_ON_COUNT - UBIN WORD.
       52      618                            This counter is incremented by GJS$STEP when initiating
       53      619                            a user's first job step.  It is useful for debugging
       54      620                            purposes when GJ_QUIET is set.
       55      621                            */
       56      622
       57      623    1   DCL GJ_OFF_COUNT UBIN STATIC SYMDEF INIT(0);
       58      624                            /*K* GJ_OFF_COUNT - UBIN WORD.
       59      625                            This counter is incremented by GJS$ABORTM before
       60      626                            regging to delete the user.  It is useful for debugging
       61      627                            purposes when GJ_QUIET is set.
       62      628                            */
       63      629
       64      630    1   DCL GJ_SABRT_COUNT UBIN STATIC SYMDEF INIT(0);
       65      631                            /*K* GJ_SABRT_COUNT - UBIN WORD.
       66      632                            This counter is incremented by GJS$STEP when the user
       67      633                            is aborted in the first job step.  It is useful for debugging
       68      634                            purposes when GJ_QUIET is set.
       69      635                            */
       70      636
       71      637        %LIST;
       72      638        %GJ_SFILE_TBL (TYPE=DATA);
               639        %LSET LISTDIR='0'B;
               655    1         DCL 1 GJ_SFILE_START$ PTR CALIGNED INIT(ADDR(NIL)) STATIC SYMDEF;
PL6.E3A0      #001=GJ_DATA File=GJ_DATA_D.:E05TSI                                TUE 07/29/97 22:04 Page:3
               656                            /*K* START$ - PTR.
               657                            Contains the address of the Shared File Table in
               658                            in the BOBCAT segment.  Set by BIGFOOT.
               659                            */
               660    1         DCL 1 GJ_SFILE_CURR# UBIN(16) CALIGNED INIT(0) STATIC SYMDEF;
               661                            /*K* CURR# - UBIN WORD.
               662                            Contains the number Shared File Table entries
               663                            currently in use.
               664                            */
               665    1         DCL 1 GJ_SFILE_MAX# UBIN(16) CALIGNED INIT(0) STATIC SYMDEF;
               666                            /*K* MAX# - UBIN WORD.
               667                            Contains the number of Shared File Table entries
               668                            in the BOBCAT segment.  Set by BIGFOOT.
               669                            */
               670    1         DCL 1 GJ_SFILE_PEAK# UBIN(16) CALIGNED INIT(0) STATIC SYMDEF;
               671                            /*K* PEAK# - UBIN WORD.
               672                            Contains the maximum number of Shared File Table
               673                            entries ever in use at any one time.
               674                            */
               675    1         DCL 1 GJ_SFILE_LIB_DATA UBIN(16) CALIGNED INIT(0) STATIC SYMDEF;
               676                            /*K* LIB_DATA - UBIN WORD.
               677                            Contains the number of pages currently being used
               678                            to cache the shared library data pages.
               679                            */
               680    1         DCL 1 GJ_SFILE_CUR_DATA UBIN(16) CALIGNED INIT(0) STATIC SYMDEF;
               681                            /*K* CUR_DATA - UBIN WORD.
               682                            Contains the number of pages currently being used
               683                            to cache the shared processor data pages.
               684                            */
               685    1         DCL 1 GJ_SFILE_MAX_DATA UBIN(16) CALIGNED INIT(0) STATIC SYMDEF;
               686                            /*K* MAX_DATA - UBIN WORD.
               687                            Contains the maximum number of pages that may be used
               688                            to cache the shared processor data pages.
               689                            */
               690    1         DCL 1 GJ_SFILE_PEAK_DATA UBIN(16) CALIGNED INIT(0) STATIC SYMDEF;
               691                            /*K* PEAK_DATA - UBIN WORD.
               692                            Contains the maximum number of pages ever used at
PL6.E3A0      #001=GJ_DATA File=GJ_DATA_D.:E05TSI                                TUE 07/29/97 22:04 Page:4
               693                            any one time to cache the shared processor data pages.
               694                            */
               695    1         DCL 1 GJ_SFILE_CUR_PROC UBIN(16) CALIGNED INIT(0) STATIC SYMDEF;
               696                            /*K* CUR_PROC - UBIN WORD.
               697                            Contains the number of pages currently allocated
               698                            for shared processor procedure pages.  This count
               699                            does not include DELTA_F procedure pages.
               700                            */
               701    1         DCL 1 GJ_SFILE_PEAK_PROC UBIN(16) CALIGNED INIT(0) STATIC SYMDEF;
               702                            /*K* PEAK_PROC - UBIN WORD.
               703                            Contains the maximum number of pages ever used at
               704                            any one time to cache the shared processor procedure pages.
               705                            */
               706    1         DCL 1 GJ_SFILE_FRQ UBIN(16) CALIGNED INIT(0) STATIC SYMDEF;
               707                            /*K* FRQ - UBIN WORD.
               708                            Contains the minimum value of the frequency counter
               709                            that will cause a copy of the shared processor data
               710                            to be cached in memory.
               711                            */
               712    1         DCL 1 GJ_SFILE_TBL_FULL UBIN(16) CALIGNED INIT(0) STATIC SYMDEF;
               713                            /*K* TBL_FULL - UBIN WORD.
               714                            Contains the number of times the system was unable
               715                            to enter an Fprg in the Shared File Table because
               716                            all the entries were in use.
               717                            */
               718    1         DCL 1 GJ_SFILE_REL_4MEM UBIN(16) CALIGNED INIT(0) STATIC SYMDEF;
               719                            /*K* REL_4MEM - UBIN WORD.
               720                            Contains the number of times the system had to
               721                            release entries from the shared file table to
               722                            free the memory for other uses.
               723                            */
               724    1         DCL 1 GJ_SFILE_REL_4SFILE UBIN(16) CALIGNED INIT(0) STATIC SYMDEF;
               725                            /*K* REL_4SFILE - UBIN WORD.
               726                            Contains the number of times the system had to
               727                            release entries from the shared file table to
               728                            make a table entry available for another Fprg.
               729                            */
PL6.E3A0      #001=GJ_DATA File=GJ_DATA_D.:E05TSI                                TUE 07/29/97 22:04 Page:5
       73      731        %PLIST;
       74      732    1   END GJ_DATA;

PL6.E3A0      #001=GJ_DATA File=GJ_DATA_D.:E05TSI                                TUE 07/29/97 22:04 Page:6
--  Include file information  --

   GH_GATE_M.:E05TOU  cannot be made into a system file and is referenced.
   GJ_MACROS_M.:E05TOU  is referenced.
   G_LCP6_E.:E05TOU  was found in the system file and is never referenced.
   GT_LCP6_M.:E05TOU  was found in the system file and is never referenced.
   KI_CP6.:E05TOU  was found in the system file and is never referenced.
   GF_LCP6_M.:E05TOU  was found in the system file and is never referenced.
   GM_LCP6_M.:E05TOU  was found in the system file and is never referenced.
   GU_LCP6_M.:E05TOU  was found in the system file and is never referenced.
   GJ_LCP6_M.:E05TOU  was found in the system file and is never referenced.
   GH_LCP6_M.:E05TOU  was found in the system file and is never referenced.
      No diagnostics issued in procedure GJ_DATA.

   No code generated for procedure GJ_DATA .
   Procedure GJ_DATA requires 4 words of local(AUTO) storage.

    No errors detected in file GJ_DATA_D.:E05TSI    .

PL6.E3A0      #001=GJ_DATA File=GJ_DATA_D.:E05TSI                                TUE 07/29/97 22:04 Page:7

 Object Unit name= GJ_DATA                                    File name= GJ_DATA_D.:E05TOU
 UTS= JUL 29 '97 22:04:30.52 TUE                              Compiler= PL-6/E31         Sev=      00
 SharedLib= :SHARED_LCP6_SYSTEM                               Alt SharedLib=


    ****  Control sections  ****

 Sect   Type Bound  Init  Size HexSiz  Section name
    0   Data  even  none    34     22  GJ_DATA
    1  RoData even  UTS      1      1  GJ_DATA
    2   Proc  even  none     0      0  GJ_DATA

    ****  Entry defs  ****

                              Check   Calling
                             calling  sequence
  Sect HexLoc Primary Altret sequence   type   Parms  Name
     2      0   yes            yes     ~proc       0  GJ_DATA
PL6.E3A0      #001=GJ_DATA File=GJ_DATA_D.:E05TSI                                TUE 07/29/97 22:04 Page:8

  ****  Data defs  ****

 Sect HexLoc  Name                           Sect HexLoc  Name
    0      0  G_SLOCK                            0      3  GFR_RES_LOCK
    0      6  GJ_BOOT_LOCK                       0      9  GJ_BOOTBASE
    0      B  GJ_BOOTSIZE                        0      D  GJ_BOOTCHAN
    0      E  GJ_BOOT_HNDLRS                     0      F  GJ_QUIET
    1      0  GJ_FETCH_SZ                        0     10  GJ_ON_COUNT
    0     11  GJ_OFF_COUNT                       0     12  GJ_SABRT_COUNT
    0     13  GJ_SFILE_START$                    0     15  GJ_SFILE_CURR#
    0     16  GJ_SFILE_MAX#                      0     17  GJ_SFILE_PEAK#
    0     18  GJ_SFILE_LIB_DATA                  0     19  GJ_SFILE_CUR_DATA
    0     1A  GJ_SFILE_MAX_DATA                  0     1B  GJ_SFILE_PEAK_DATA
    0     1C  GJ_SFILE_CUR_PROC                  0     1D  GJ_SFILE_PEAK_PROC
    0     1E  GJ_SFILE_FRQ                       0     1F  GJ_SFILE_TBL_FULL
    0     20  GJ_SFILE_REL_4MEM                  0     21  GJ_SFILE_REL_4SFILE

  ****  Data refs  ****

  Flags:  r = read only, s = secondary
Flgs Name                             Flgs Name                             Flgs Name
r    G$ROS$
PL6.E3A0      #001=GJ_DATA File=GJ_DATA_D.:E05TSI                                TUE 07/29/97 22:04 Page:9

        1        1        /*M* GJ_DATA_D  LCP-6 Central Systems Data  */
        2        2        /*T***********************************************************/
        3        3        /*T*                                                         */
        4        4        /*T* Copyright (c) Bull HN Information Systems Inc., 1997    */
        5        5        /*T*                                                         */
        6        6        /*T***********************************************************/
        7        7        /*X* MEC,MOC,EXM=20,CLM=30,CRM=100 */
        8        8
        9        9                            /*F* NAME: GJ_DATA_D
       10       10
       11       11                            The module GJ_DATA_D contains the data required by
       12       12                            central systems in LCP-6.  This includes:
       13       13                            */
       14       14
       15       15        GJ_DATA: PROC;
       16       16
       17       17        %INCLUDE GJ_MACROS_M;
       18      490        %INCLUDE GH_GATE_M;
       19      531
       20      532        %GATE (FPTN=G_SLOCK,STCLASS=STATIC SYMDEF);
       21      551                            /*K* G_SLOCK - GATE.  This is the gate to be
       22      552                            used with the shared file table.
       23      553                            */
       24      554
       25      555        %GATE (FPTN=GFR_RES_LOCK,STCLASS=STATIC SYMDEF);
       26      574                            /*K* GFR_RES_LOCK - GATE.  This is the gate to be
       27      575                            used for resource management.
       28      576                            */
       29      577
       30      578        %GATE (FPTN=GJ_BOOT_LOCK,STCLASS=STATIC SYMDEF);
       31      597    1   DCL GJ_BOOTBASE UBIN(32) STATIC SYMDEF;
       32      598    1   DCL GJ_BOOTSIZE UBIN(32) STATIC SYMDEF INIT(8192);
       33      599    1   DCL GJ_BOOTCHAN  UBIN STATIC SYMDEF;
       34      600    1   DCL GJ_BOOT_HNDLRS  SBIN STATIC SYMDEF;
       35      601    1   DCL GJ_QUIET UBIN STATIC SYMDEF INIT(0);
       36      602
       37      603    1   DCL GJ_FETCH_SZ UBIN CONSTANT SYMDEF INIT(512);
PL6.E3A0      #001=GJ_DATA File=GJ_DATA_D.:E05TSI                                TUE 07/29/97 22:04 Page:10
       38      604                            /*K* GJ_FETCH_SZ UBIN WORD.
       39      605                            Contains the byte size of the records
       40      606                            (sans communication headers) to be read
       41      607                            from the host when fetching fprgs.
       42      608                            */
       43      609                            /*K* GJ_QUIET - UBIN WORD.
       44      610                            GJ_QUIET may be set non-zero to prevent the FPRG
       45      611                            on/off messages from being displayed on the OC.
       46      612                            This is useful only for M:FEP testing and is intended
       47      613                            to preserve the sanity of the operators on the L66B.
       48      614                            */
       49      615
       50      616    1   DCL GJ_ON_COUNT UBIN STATIC SYMDEF INIT(0);
       51      617                            /*K* GJ_ON_COUNT - UBIN WORD.
       52      618                            This counter is incremented by GJS$STEP when initiating
       53      619                            a user's first job step.  It is useful for debugging
       54      620                            purposes when GJ_QUIET is set.
       55      621                            */
       56      622
       57      623    1   DCL GJ_OFF_COUNT UBIN STATIC SYMDEF INIT(0);
       58      624                            /*K* GJ_OFF_COUNT - UBIN WORD.
       59      625                            This counter is incremented by GJS$ABORTM before
       60      626                            regging to delete the user.  It is useful for debugging
       61      627                            purposes when GJ_QUIET is set.
       62      628                            */
       63      629
       64      630    1   DCL GJ_SABRT_COUNT UBIN STATIC SYMDEF INIT(0);
       65      631                            /*K* GJ_SABRT_COUNT - UBIN WORD.
       66      632                            This counter is incremented by GJS$STEP when the user
       67      633                            is aborted in the first job step.  It is useful for debugging
       68      634                            purposes when GJ_QUIET is set.
       69      635                            */
       70      636
       71      637        %LIST;
       72      638        %GJ_SFILE_TBL (TYPE=DATA);
               639        %LSET LISTDIR='0'B;
               655    1         DCL 1 GJ_SFILE_START$ PTR CALIGNED INIT(ADDR(NIL)) STATIC SYMDEF;
PL6.E3A0      #001=GJ_DATA File=GJ_DATA_D.:E05TSI                                TUE 07/29/97 22:04 Page:11
               656                            /*K* START$ - PTR.
               657                            Contains the address of the Shared File Table in
               658                            in the BOBCAT segment.  Set by BIGFOOT.
               659                            */
               660    1         DCL 1 GJ_SFILE_CURR# UBIN(16) CALIGNED INIT(0) STATIC SYMDEF;
               661                            /*K* CURR# - UBIN WORD.
               662                            Contains the number Shared File Table entries
               663                            currently in use.
               664                            */
               665    1         DCL 1 GJ_SFILE_MAX# UBIN(16) CALIGNED INIT(0) STATIC SYMDEF;
               666                            /*K* MAX# - UBIN WORD.
               667                            Contains the number of Shared File Table entries
               668                            in the BOBCAT segment.  Set by BIGFOOT.
               669                            */
               670    1         DCL 1 GJ_SFILE_PEAK# UBIN(16) CALIGNED INIT(0) STATIC SYMDEF;
               671                            /*K* PEAK# - UBIN WORD.
               672                            Contains the maximum number of Shared File Table
               673                            entries ever in use at any one time.
               674                            */
               675    1         DCL 1 GJ_SFILE_LIB_DATA UBIN(16) CALIGNED INIT(0) STATIC SYMDEF;
               676                            /*K* LIB_DATA - UBIN WORD.
               677                            Contains the number of pages currently being used
               678                            to cache the shared library data pages.
               679                            */
               680    1         DCL 1 GJ_SFILE_CUR_DATA UBIN(16) CALIGNED INIT(0) STATIC SYMDEF;
               681                            /*K* CUR_DATA - UBIN WORD.
               682                            Contains the number of pages currently being used
               683                            to cache the shared processor data pages.
               684                            */
               685    1         DCL 1 GJ_SFILE_MAX_DATA UBIN(16) CALIGNED INIT(0) STATIC SYMDEF;
               686                            /*K* MAX_DATA - UBIN WORD.
               687                            Contains the maximum number of pages that may be used
               688                            to cache the shared processor data pages.
               689                            */
               690    1         DCL 1 GJ_SFILE_PEAK_DATA UBIN(16) CALIGNED INIT(0) STATIC SYMDEF;
               691                            /*K* PEAK_DATA - UBIN WORD.
               692                            Contains the maximum number of pages ever used at
PL6.E3A0      #001=GJ_DATA File=GJ_DATA_D.:E05TSI                                TUE 07/29/97 22:04 Page:12
               693                            any one time to cache the shared processor data pages.
               694                            */
               695    1         DCL 1 GJ_SFILE_CUR_PROC UBIN(16) CALIGNED INIT(0) STATIC SYMDEF;
               696                            /*K* CUR_PROC - UBIN WORD.
               697                            Contains the number of pages currently allocated
               698                            for shared processor procedure pages.  This count
               699                            does not include DELTA_F procedure pages.
               700                            */
               701    1         DCL 1 GJ_SFILE_PEAK_PROC UBIN(16) CALIGNED INIT(0) STATIC SYMDEF;
               702                            /*K* PEAK_PROC - UBIN WORD.
               703                            Contains the maximum number of pages ever used at
               704                            any one time to cache the shared processor procedure pages.
               705                            */
               706    1         DCL 1 GJ_SFILE_FRQ UBIN(16) CALIGNED INIT(0) STATIC SYMDEF;
               707                            /*K* FRQ - UBIN WORD.
               708                            Contains the minimum value of the frequency counter
               709                            that will cause a copy of the shared processor data
               710                            to be cached in memory.
               711                            */
               712    1         DCL 1 GJ_SFILE_TBL_FULL UBIN(16) CALIGNED INIT(0) STATIC SYMDEF;
               713                            /*K* TBL_FULL - UBIN WORD.
               714                            Contains the number of times the system was unable
               715                            to enter an Fprg in the Shared File Table because
               716                            all the entries were in use.
               717                            */
               718    1         DCL 1 GJ_SFILE_REL_4MEM UBIN(16) CALIGNED INIT(0) STATIC SYMDEF;
               719                            /*K* REL_4MEM - UBIN WORD.
               720                            Contains the number of times the system had to
               721                            release entries from the shared file table to
               722                            free the memory for other uses.
               723                            */
               724    1         DCL 1 GJ_SFILE_REL_4SFILE UBIN(16) CALIGNED INIT(0) STATIC SYMDEF;
               725                            /*K* REL_4SFILE - UBIN WORD.
               726                            Contains the number of times the system had to
               727                            release entries from the shared file table to
               728                            make a table entry available for another Fprg.
               729                            */
PL6.E3A0      #001=GJ_DATA File=GJ_DATA_D.:E05TSI                                TUE 07/29/97 22:04 Page:13
       73      731        %PLIST;
       74      732    1   END GJ_DATA;

PL6.E3A0      #001=GJ_DATA File=GJ_DATA_D.:E05TSI                                TUE 07/29/97 22:04 Page:14
--  Include file information  --

   GH_GATE_M.:E05TOU  cannot be made into a system file and is referenced.
   GJ_MACROS_M.:E05TOU  is referenced.
   G_LCP6_E.:E05TOU  was found in the system file and is never referenced.
   GT_LCP6_M.:E05TOU  was found in the system file and is never referenced.
   KI_CP6.:E05TOU  was found in the system file and is never referenced.
   GF_LCP6_M.:E05TOU  was found in the system file and is never referenced.
   GM_LCP6_M.:E05TOU  was found in the system file and is never referenced.
   GU_LCP6_M.:E05TOU  was found in the system file and is never referenced.
   GJ_LCP6_M.:E05TOU  was found in the system file and is never referenced.
   GH_LCP6_M.:E05TOU  was found in the system file and is never referenced.
      No diagnostics issued in procedure GJ_DATA.
PL6.E3A0      #001=GJ_DATA File=GJ_DATA_D.:E05TSI                                TUE 07/29/97 22:04 Page:15

 **** Variables and constants ****


   No code generated for procedure GJ_DATA .
   Procedure GJ_DATA requires 4 words of local(AUTO) storage.

    No errors detected in file GJ_DATA_D.:E05TSI    .
PL6.E3A0      #001=GJ_DATA File=GJ_DATA_D.:E05TSI                                TUE 07/29/97 22:04 Page:16
          *** CROSS REFERENCE LISTING ***
**     DENOTES     IDENTIFIER DEFINITION
<<                 IDENTIFIER'S VALUE SET
>>                 IDENTIFIER'S VALUE USED
<>                 IDENTIFIER SET AND/OR USED
--                 IDENTIFIER REFERENCED
PL6.E3A0      #001=GJ_DATA File=GJ_DATA_D.:E05TSI                                TUE 07/29/97 22:04 Page:17
          MINI XREF LISTING

