PL6.E3A0      #002=GMA$CHKSIZE File=GMA$LGP.:E05TSI                              TUE 07/29/97 22:12 Page:312
     2189        1        /*M* GMA$CHKSIZE - Check memory allocation against authorized limits */
     2190        2        /*T***********************************************************/
     2191        3        /*T*                                                         */
     2192        4        /*T* Copyright (c) Bull HN Information Systems Inc., 1997    */
     2193        5        /*T*                                                         */
     2194        6        /*T***********************************************************/
     2195        7        /*X* PLM=3,IND=5,ENU=0,ECU=0    */
     2196        8        /*D* NAME: GMA$CHKSIZE
     2197        9              CALL: CALL GMA$CHKSIZE (gm_chksz_params) ALTRET(label);
     2198       10              PARAMETERS:
     2199       11                      gm_chksz_params, from the macro in file GM_MACRO_M:
     2200       12
     2201       13                      size is the number pages to be added to the users
     2202       14                      current size.
     2203       15
     2204       16                      err is in VLP_ERRCODE format and will be set by CHKSIZE.
     2205       17
     2206       18                      chk is to be set if this is a call to check the user
     2207       19                      size; the pages will not be deducted for the account
     2208       20                      resource table.
     2209       21
     2210       22                      req_all is to be set if all requested pages must be
     2211       23                      available if any are to be allocated.  Ignored if
     2212       24                      chk is set.
     2213       25
     2214       26                      park is to be set if it is OK to reg the user for lack
     2215       27                      of memory.
     2216       28
     2217       29                      nshuf indicates if the number of pages is to be
     2218       30                      shufflable or not (I/O).  If nshuf is not present
     2219       31                      or is zero, type shufflable is assumed.  If nshuf
     2220       32                      is present and is not zero, non shufflable I/O type is
     2221       33                      assumed.
     2222       34              DESCRIPTION:
     2223       35                      The current size of the user is computed from data
     2224       36                      in the JIT and added to the size parameter to compare
     2225       37                      with the users maximum memory resource size.  If the
PL6.E3A0      #002=GMA$CHKSIZE File=GMA$LGP.:E05TSI                              TUE 07/29/97 22:12 Page:313
     2226       38                      maximum size is exceeded, size is adjusted and an ALTRET
     2227       39                      return is taken.
     2228       40
     2229       41                      The ALTRET is taken if the user cannot fit into physical
     2230       42                      memory.
     2231       43                                                                           */
     2232       44
     2233       45
     2234       46        GMA$CHKSIZE: PROC (CHKSZ)  ALTRET;
     2235       47
     2236       48        %INCLUDE G_JIT_M;
     2237      313 S      %INCLUDE GU_LCP6_M;
     2238      314        %INCLUDE GM_MACRO_M;
     2239      796        %INCLUDE G$BOBCAT_M;
     2240      816        %INCLUDE GFR_DATA_M;
     2241      836        %INCLUDE GH_GATE_M;
     2242      877        %INCLUDE GH_SCHD_E;
     2243      973        %INCLUDE M_ERRORS_C;
     2244     1037        %INCLUDE MM_SCODE_C;
     2245     1084 S      %INCLUDE G_LCP6_E;
     2246     1085
     2247     1086        %GM_CHKSZ_PARAMS (FPTN=CHKSZ, STCLASS=);
     2248     1180
     2249     1181    1   DCL SIZE UBIN;                          /* request from CHKSZ.SIZE            */
     2250     1182    1   DCL USIZE UBIN;                         /* User accountable memory size       */
     2251     1183    1   DCL PSIZE UBIN;                         /* User real physical size            */
     2252     1184    1   DCL RSIZE UBIN;                         /* Requested additional pages         */
     2253     1185    1   DCL GM@SHUF UBIN;                       /* GM_SHUF - GM_STEP                  */
     2254     1186    1   DCL ACC UBIN;
     2255     1187    1   DCL MODE UBIN;
     2256     1188    1   DCL TABLE_UPDATED UBIN;
     2257     1189    1   DCL T$ PTR;
     2258     1190
     2259     1191    1   DCL GM_REG_4_MEM UBIN STATIC SYMDEF INIT(0);
     2260     1192
     2261     1193        %G$BOBCAT (STCLASS="BASED(G$BOBCAT$)");
     2262     1206        %GFR$ACCT (STCLASS="BASED(T$)");
PL6.E3A0      #002=GMA$CHKSIZE File=GMA$LGP.:E05TSI                              TUE 07/29/97 22:12 Page:314
     2263     1219        %G$JIT (STCLASS="BASED(G$JIT$)");
     2264     1633        %G$JIT_E;
     2265     1695
     2266     1696    1   DCL G$JIT$ PTR SYMREF READONLY;
     2267     1697    1   DCL G$BOBCAT$ PTR SYMREF READONLY;
     2268     1698    1   DCL GFR_CUR_MEM(0:4) UBIN SYMREF;
     2269     1699    1   DCL GFR_MAX_MEM(0:4) UBIN SYMREF;
     2270     1700    1   DCL GM_SHUF UBIN SYMREF;
     2271     1701    1   DCL GM_ASHUF UBIN SYMREF;
     2272     1702    1   DCL GM_STEP UBIN SYMREF;
     2273     1703
     2274     1704        %GATE (FPTN=GFR_RES_LOCK,STCLASS=SYMREF);
     2275     1723
     2276     1724    1   DCL GHS$REG ENTRY(2) ALTRET;
     2277     1725    1   DCL GJS$REL_ALL ENTRY(1) ALTRET;
     2278     1726    1   DCL GMA$LOCATE ENTRY(1) ALTRET;
     2279     1727    1   DCL SCREECH ENTRY(1);
     2280     1728
     2281     1729        %VLP_ERRCODE (FPTN=E$MEMLIMIT,FCG='GM',MID='A',MON='1'B,SEV=%G_SEV_CONT#,
     2282     1730              STCLASS=CONSTANT,ERR#=%E$MEMLIMIT);
     2283     1776        %VLP_ERRCODE (FPTN=E$BRKCTY,FCG='GM',MID='A',MON='1'B,SEV=%G_SEV_CONT#,
     2284     1777              STCLASS=CONSTANT,ERR#=%E$BRKCTY);
     2285     1823        %VLP_ERRCODE (FPTN=E$ACCT_MEMLIMIT,FCG='GM',MID='A',MON='1'B,SEV=%G_SEV_CONT#,
     2286     1824              STCLASS=CONSTANT,ERR#=%E$ACCT_MEMLIMIT);
     2287     1870        %VLP_ERRCODE (FPTN=E$MODE_MEMLIMIT,FCG='GM',MID='A',MON='1'B,SEV=%G_SEV_CONT#,
     2288     1871              STCLASS=CONSTANT,ERR#=%E$MODE_MEMLIMIT);
     2289     1917        %VLP_ERRCODE (FPTN=E$PHYS_MEMLIMIT,FCG='GM',MID='A',MON='1'B,SEV=%G_SEV_CONT#,
     2290     1918              STCLASS=CONSTANT,ERR#=%E$PHYS_MEMLIMIT);
     2291     1964
     2292     1965        %VLP_SCODE (FPTN=GONE_NEGATIVE,ERR#=%S$MM39,SEV=G_SEV_SCREECH#,STCLASS=CONSTANT,
     2293     1966                    FCG=GM,MID=A,MON='1'B);
     2294     2027        %EJECT;
PL6.E3A0      #002=GMA$CHKSIZE File=GMA$LGP.:E05TSI                              TUE 07/29/97 22:12 Page:315
     2295     2028
     2296     2029    1      SIZE = CHKSZ.SIZE;
     2297     2030    1      RSIZE = SIZE;                        /* remember requested size            */
     2298     2031    1      CHKSZ.ERR = '0'B;
     2299     2032    1      TABLE_UPDATED = 0;
     2300     2033
     2301     2034    1      IF GM_SHUF > GM_STEP
     2302     2035    1      THEN GM@SHUF = GM_SHUF - GM_STEP;
     2303     2036    1      ELSE GM@SHUF = 0;
     2304     2037
     2305     2038        /* Compute the user's current size.
     2306     2039           USIZE for logical limit checks.
     2307     2040           PSIZE for physical limit checks.
     2308     2041        */
     2309     2042    1      USIZE=G$JIT.PCD                      /* Static data                        */
     2310     2043    1        +G$JIT.PCDS                        /* Shuffable Data Segments            */
     2311     2044    1        +G$JIT.NSPC                        /* Non-shuffable Data Segments        */
     2312     2045    1        +G$JIT.PCL                         /* Unshared Library procedure*/
     2313     2046    1        +G$JIT.PCDDS                       /* Debugger data segment              */
     2314     2047    1        +G$JIT.PCC                         /* Context                            */
     2315     2048    1        +G$JIT.CQPC                        /* Circular Queue                     */
     2316     2049    1        +G$JIT.PSEUDOPGS                   /* HHJITs                             */
     2317     2050    1        +G$JIT.PCROS;                      /* Read Only Segment                  */
     2318     2051
     2319     2052        /*  First, make sure there is enough physical memory, if this is not step.
     2320     2053        */
     2321     2054    1      IF CHKSZ.FLGS.STEP = '1'B
     2322     2055    1      THEN GOTO SKIP_PSIZE_CHK;
     2323     2056
     2324     2057        /*  Handler pages are already taken out of GM_ASHUF.
     2325     2058        */
     2326     2059    1      IF G$JIT.MODE = %G_M_HANDLER#
     2327     2060    2      THEN DO;
     2328     2061    2           PSIZE = 0;
     2329     2062    2           END;
     2330     2063    2      ELSE DO;
     2331     2064    2           PSIZE = USIZE+G$JIT.PCP;        /* Procedure pages                    */
PL6.E3A0      #002=GMA$CHKSIZE File=GMA$LGP.:E05TSI                              TUE 07/29/97 22:12 Page:316
     2332     2065    2           END;
     2333     2066
     2334     2067    1      IF CHKSZ.FLGS.NSHUF
     2335     2068    2      THEN DO;
     2336     2069    2           CALL GMA$LOCATE(SIZE) ALTRET(PSIZE_CHK);
     2337     2070    2           GOTO SKIP_PSIZE_CHK;
     2338     2071    2           END;
     2339     2072
     2340     2073    1   PSIZE_CHK: ;
     2341     2074    1      IF PSIZE + SIZE  > GM_ASHUF
     2342     2075    2      THEN DO;
     2343     2076    2           SIZE = GM_ASHUF - PSIZE;
     2344     2077    2           CHKSZ.ERR = E$PHYS_MEMLIMIT;
     2345     2078    2           END;
     2346     2079
     2347     2080        /*E* ERROR: GMA-E$PHYS_MEMLIMIT-0
     2348     2081              MESSAGE: Physical memory limit exceeded.
     2349     2082        */
     2350     2083
     2351     2084        /*  Check if there is currently enough around.  If not, try to
     2352     2085            free the memory by releasing pages from the shared file table.
     2353     2086        */
     2354     2087    1      IF SIZE > GM@SHUF
     2355     2088    2      THEN DO;
     2356     2089    2           PSIZE = SIZE - GM@SHUF;
     2357     2090    2           CALL GJS$REL_ALL(PSIZE);
     2358     2091
     2359     2092    2           IF GM_SHUF > GM_STEP
     2360     2093    2           THEN GM@SHUF = GM_SHUF - GM_STEP;
     2361     2094    2           ELSE GM@SHUF = 0;
     2362     2095    2           END;
     2363     2096
     2364     2097        /*  If not currently enough, but the user specified we are to get
     2365     2098            what we can without REGing him (REQ_ALL=NO and PARK=NO), give what
     2366     2099            we can.
     2367     2100        */
     2368     2101    1      IF SIZE > GM@SHUF
PL6.E3A0      #002=GMA$CHKSIZE File=GMA$LGP.:E05TSI                              TUE 07/29/97 22:12 Page:317
     2369     2102    2      THEN DO;
     2370     2103    2           IF NOT CHKSZ.FLGS.REQ_ALL
     2371     2104    3           THEN DO;
     2372     2105    3                IF NOT CHKSZ.FLGS.PARK OR GM_REG_4_MEM=0
     2373     2106    4                THEN DO;
     2374     2107    4                     SIZE = GM@SHUF;
     2375     2108    4                     CHKSZ.ERR = E$PHYS_MEMLIMIT;
     2376     2109    4                     END;
     2377     2110    3                END;
     2378     2111    2           END;
     2379     2112
     2380     2113
     2381     2114        %EJECT;
PL6.E3A0      #002=GMA$CHKSIZE File=GMA$LGP.:E05TSI                              TUE 07/29/97 22:12 Page:318
     2382     2115        /*  Now, the system logical limit checks.
     2383     2116            If the user doesn't have MAXMEM priv on, check against the
     2384     2117            limit in the JIT.
     2385     2118        */
     2386     2119    1   SKIP_PSIZE_CHK: ;
     2387     2120    1      IF NOT G$JIT.MMFLGS.FREE_PPGS
     2388     2121    1      THEN USIZE=USIZE+G$JIT.PCP;
     2389     2122
     2390     2123    1      IF NOT (G$JIT.PRIV.ACTIVE & %G_PR_MAXMEM#)
     2391     2124    2      THEN DO;
     2392     2125    2           IF USIZE + SIZE > G$JIT.MAXMEM
     2393     2126    3           THEN DO;
     2394     2127    3                SIZE = G$JIT.MAXMEM - USIZE;
     2395     2128    3                CHKSZ.ERR = E$MEMLIMIT;
     2396     2129    3                END;
     2397     2130    2           END;
     2398     2131
     2399     2132        /*E* ERROR: GMA-E$MEMLIMIT-0
     2400     2133             MESSAGE: User memory limit exceeded.
     2401     2134        */
     2402     2135
     2403     2136        /*  Also check against the memory limit for this account,uname and
     2404     2137            the memory limit for this user mode.
     2405     2138        */
     2406     2139    1      IF G$JIT.GFR_ACCT ~= 0
     2407     2140    2      THEN DO;
     2408     2141    2           T$ = G$BOBCAT.ACCT_RES$;
     2409     2142    2           ACC = G$JIT.GFR_ACCT;
     2410     2143    2           MODE = G$JIT.MODE;
     2411     2144                %LOCK (G=GFR_RES_LOCK);
     2412     2151
     2413     2152    2           IF GFR$ACCT.CUR_MEM(ACC) + SIZE > GFR$ACCT.MAX_MEM(ACC)
     2414     2153    3           THEN DO;
     2415     2154    3                SIZE = GFR$ACCT.MAX_MEM(ACC) - GFR$ACCT.CUR_MEM(ACC);
     2416     2155    3                CHKSZ.ERR = E$ACCT_MEMLIMIT;
     2417     2156    3                END;
     2418     2157
PL6.E3A0      #002=GMA$CHKSIZE File=GMA$LGP.:E05TSI                              TUE 07/29/97 22:12 Page:319
     2419     2158        /*E* ERROR: GMA-E$ACCT_MEMLIMIT-0
     2420     2159             MESSAGE: Account memory limit exceeded.
     2421     2160        */
     2422     2161
     2423     2162    2           IF GFR_CUR_MEM(MODE) + SIZE > GFR_MAX_MEM(MODE)
     2424     2163    3           THEN DO;
     2425     2164    3                SIZE = GFR_MAX_MEM(MODE) - GFR_CUR_MEM(MODE);
     2426     2165    3                CHKSZ.ERR = E$MODE_MEMLIMIT;
     2427     2166    3                END;
     2428     2167
     2429     2168        /*E* ERROR: GMA-E$MODE_MEMLIMIT-0
     2430     2169             MESSAGE: User Mode memory limit exceeded.
     2431     2170        */
     2432     2171
     2433     2172        /* If this is not a check_only call, the memory is removed from
     2434     2173           the account resource table.
     2435     2174        */
     2436     2175    2           IF NOT CHKSZ.FLGS.CHK_ONLY
     2437     2176    3           THEN DO;
     2438     2177    3                IF NOT(CHKSZ.FLGS.REQ_ALL AND (SIZE ~= RSIZE) )
     2439     2178    4                THEN DO;
     2440     2179    4                     GFR$ACCT.CUR_MEM(ACC) = GFR$ACCT.CUR_MEM(ACC) + SIZE;
     2441     2180    4                     GFR_CUR_MEM(MODE) = GFR_CUR_MEM(MODE) + SIZE;
     2442     2181    4                     TABLE_UPDATED = 1;
     2443     2182    4                     END;
     2444     2183    3                END/*do if not chk_only*/;
     2445     2184                %UNLOCK (G=GFR_RES_LOCK);
     2446     2191
     2447     2192    2           END/*do if JIT.GFR_ACCR ~=0*/;
     2448     2193
     2449     2194        %EJECT;
PL6.E3A0      #002=GMA$CHKSIZE File=GMA$LGP.:E05TSI                              TUE 07/29/97 22:12 Page:320
     2450     2195    1      IF NOT CHKSZ.FLGS.CHK_ONLY
     2451     2196    2      THEN DO;
     2452     2197    2           IF NOT CHKSZ.FLGS.STEP
     2453     2198    3           THEN DO;
     2454     2199    3                IF NOT(CHKSZ.FLGS.REQ_ALL AND (SIZE ~= RSIZE) )
     2455     2200    4                THEN DO;
     2456     2201
     2457     2202        /*  Check if there are enough free pages around.  If not, REG this
     2458     2203            guy until some become available.
     2459     2204        */
     2460     2205    5                     DO WHILE ( SIZE > GM@SHUF );
     2461     2206
     2462     2207    5                          IF NOT CHKSZ.FLGS.PARK
     2463     2208    6                          THEN DO;
     2464     2209    6   ERR_FOR_NOW:                ;
     2465     2210    6                               CHKSZ.ERR=E$PHYS_MEMLIMIT;
     2466     2211    6                               GOTO REMOVE;
     2467     2212    6                               END;
     2468     2213
     2469     2214    5                          IF GM_REG_4_MEM = 0 THEN GOTO ERR_FOR_NOW;
     2470     2215
     2471     2216    5                          CALL GHS$REG (%GH_EVMEM)
     2472     2217    6                          WHENALTRETURN DO;
     2473     2218    6                               CHKSZ.ERR=E$BRKCTY;
     2474     2219    6   REMOVE:                     ;
     2475     2220    6                               IF TABLE_UPDATED ~= 0
     2476     2221    7                               THEN DO;
     2477     2222                                         %LOCK (G=GFR_RES_LOCK);
     2478     2229    7                                    GFR$ACCT.CUR_MEM(ACC) = GFR$ACCT.CUR_MEM(ACC) -
              2229                                             SIZE;
     2479     2230    7                                    GFR_CUR_MEM(MODE) = GFR_CUR_MEM(MODE) - SIZE;
     2480     2231                                         %UNLOCK (G=GFR_RES_LOCK);
     2481     2238    7                                    CHKSZ.SIZE = 0;
     2482     2239    7                                    END;
     2483     2240    6                               ALTRETURN;
     2484     2241    6                               END/*Altret from GHS$REG*/;
     2485     2242
PL6.E3A0      #002=GMA$CHKSIZE File=GMA$LGP.:E05TSI                              TUE 07/29/97 22:12 Page:321
     2486     2243    5                          IF GM_SHUF > GM_STEP
     2487     2244    5                          THEN GM@SHUF = GM_SHUF - GM_STEP;
     2488     2245    5                          ELSE GM@SHUF = 0;
     2489     2246    5                          END/*do while*/;
     2490     2247    4                     END/*do if not step*/;
     2491     2248
     2492     2249        /* If the memory we got for this user should bump his memory
     2493     2250           peak count, do so.
     2494     2251        */
     2495     2252    3                IF USIZE + SIZE > G$JIT.PEAK_MEM
     2496     2253    3                THEN G$JIT.PEAK_MEM = USIZE + SIZE;
     2497     2254    3                END/*if not req_all failure*/;
     2498     2255    2           END/*if not chk_only*/;
     2499     2256
     2500     2257    1      CHKSZ.SIZE = SIZE;
     2501     2258    1      IF SIZE ~= RSIZE THEN ALTRETURN;
     2502     2259    1      ELSE RETURN;
     2503     2260
     2504     2261        %EJECT;
PL6.E3A0      #002=GMA$CHKSIZE File=GMA$LGP.:E05TSI                              TUE 07/29/97 22:12 Page:322
     2505     2262
     2506     2263    1   GMA$REL_ACCTMEM: ENTRY(CHKSZ) ALTRET;
     2507     2264
     2508     2265        /*  Remove the pages from the account recource table.   */
     2509     2266
     2510     2267    1      IF G$JIT.GFR_ACCT ~= 0
     2511     2268    2      THEN DO;
     2512     2269    2           SIZE = CHKSZ.SIZE;
     2513     2270    2           T$ = G$BOBCAT.ACCT_RES$;
     2514     2271                %LOCK (G=GFR_RES_LOCK);
     2515     2278
     2516     2279    2           IF SIZE > GFR$ACCT.CUR_MEM(G$JIT.GFR_ACCT)
     2517     2280    2           THEN GOTO ACCTMEM_SCREECH;
     2518     2281    2           GFR$ACCT.CUR_MEM(G$JIT.GFR_ACCT) = GFR$ACCT.CUR_MEM(G$JIT.GFR_ACCT) - SIZE;
     2519     2282
     2520     2283    2           IF SIZE > GFR_CUR_MEM(G$JIT.MODE)
     2521     2284    3           THEN DO;
     2522     2285    3   ACCTMEM_SCREECH: ;
     2523     2286    3                CALL SCREECH(GONE_NEGATIVE);
     2524     2287    3                END;
     2525     2288    2           GFR_CUR_MEM(G$JIT.MODE) = GFR_CUR_MEM(G$JIT.MODE) - SIZE;
     2526     2289                %UNLOCK (G=GFR_RES_LOCK);
     2527     2296    2           END;
     2528     2297        /*S* SCREECH_CODE: GMA-S$MM39
     2529     2298             TYPE: SCREECH
     2530     2299             MESSAGE: Mode Memory or Account Memory count has gone negative.
     2531     2300        */
     2532     2301
     2533     2302    1   END GMA$CHKSIZE;

PL6.E3A0      #002=GMA$CHKSIZE File=GMA$LGP.:E05TSI                              TUE 07/29/97 22:12 Page:323
--  Include file information  --

   MM_SCODE_C.:E05TOU  is referenced.
   M_ERRORS_C.:E05TOU  is referenced.
   GH_SCHD_E.:E05TOU  is referenced.
   GH_GATE_M.:E05TOU  cannot be made into a system file and is referenced.
   GFR_DATA_M.:E05TOU  is referenced.
   G$BOBCAT_M.:E05TOU  is referenced.
   GM_MACRO_M.:E05TOU  is referenced.
   G_JIT_M.:E05TOU  is referenced.
   G_LCP6_E.:E05TOU  was found in the system file and is referenced.
   GT_LCP6_M.:E05TOU  was found in the system file and is never referenced.
   KI_CP6.:E05TOU  was found in the system file and is never referenced.
   GF_LCP6_M.:E05TOU  was found in the system file and is never referenced.
   GM_LCP6_M.:E05TOU  was found in the system file and is never referenced.
   GU_LCP6_M.:E05TOU  was found in the system file and is referenced.
   GJ_LCP6_M.:E05TOU  was found in the system file and is never referenced.
   GH_LCP6_M.:E05TOU  was found in the system file and is never referenced.
      No diagnostics issued in procedure GMA$CHKSIZE.

   Procedure GMA$CHKSIZE requires 643 words for executable code.
   Procedure GMA$CHKSIZE requires 18 words of local(AUTO) storage.

    No errors detected in file GMA$LGP.:E05TSI    .

PL6.E3A0      #002=GMA$CHKSIZE File=GMA$LGP.:E05TSI                              TUE 07/29/97 22:12 Page:324

 Object Unit name= GMA$CHKSIZE                                File name= GMA$LGP.:E05TOU
 UTS= JUL 29 '97 22:12:52.44 TUE                              Compiler= PL-6/E31         Sev=      00
 SharedLib= :SHARED_LCP6_SYSTEM                               Alt SharedLib=


    ****  Control sections  ****

 Sect   Type Bound  Init  Size HexSiz  Section name
    0   Data  even  none     1      1  GMA$CHKSIZE
    1  RoData even  UTS     17     11  GMA$CHKSIZE
    2   Proc  even  none   643    283  GMA$CHKSIZE
    3  RoData even  none     8      8  GMA$CHKSIZE

    ****  Entry defs  ****

                              Check   Calling
                             calling  sequence
  Sect HexLoc Primary Altret sequence   type   Parms  Name
     2      0   yes    yes     yes      Std        1  GMA$CHKSIZE
     2    216          yes     yes      Std        1  GMA$REL_ACCTMEM

  ****  Data defs  ****

 Sect HexLoc  Name                           Sect HexLoc  Name
    0      0  GM_REG_4_MEM
PL6.E3A0      #002=GMA$CHKSIZE File=GMA$LGP.:E05TSI                              TUE 07/29/97 22:12 Page:325

  ****  Entry refs  ****

         Check        Calling
        calling       sequence
Altret sequence SRef   type   Args  Name
 yes     yes           Std       1 GMA$LOCATE
 yes     yes           Std       1 GJS$REL_ALL
 yes     yes           Std       1 GHH$LOCK
 yes     yes           Std       1 GHH$UNLOCK
         yes           Std       1 SCREECH
 yes     yes           Std       2 GHS$REG
                       nStd      0 X6A_AUTO_1
                       nStd      0 X6A_AALT
                       nStd      0 X6A_ARET

  ****  Data refs  ****

  Flags:  r = read only, s = secondary
Flgs Name                             Flgs Name                             Flgs Name
r    G$JIT$                           r    G$BOBCAT$                             GFR_CUR_MEM
     GFR_MAX_MEM                           GM_SHUF                               GM_ASHUF
     GM_STEP                               GFR_RES_LOCK                     r    G$ROS$
PL6.E3A0      #002=GMA$CHKSIZE File=GMA$LGP.:E05TSI                              TUE 07/29/97 22:12 Page:326


     2189        1        /*M* GMA$CHKSIZE - Check memory allocation against authorized limits */
     2190        2        /*T***********************************************************/
     2191        3        /*T*                                                         */
     2192        4        /*T* Copyright (c) Bull HN Information Systems Inc., 1997    */
     2193        5        /*T*                                                         */
     2194        6        /*T***********************************************************/
     2195        7        /*X* PLM=3,IND=5,ENU=0,ECU=0    */
     2196        8        /*D* NAME: GMA$CHKSIZE
     2197        9              CALL: CALL GMA$CHKSIZE (gm_chksz_params) ALTRET(label);
     2198       10              PARAMETERS:
     2199       11                      gm_chksz_params, from the macro in file GM_MACRO_M:
     2200       12
     2201       13                      size is the number pages to be added to the users
     2202       14                      current size.
     2203       15
     2204       16                      err is in VLP_ERRCODE format and will be set by CHKSIZE.
     2205       17
     2206       18                      chk is to be set if this is a call to check the user
     2207       19                      size; the pages will not be deducted for the account
     2208       20                      resource table.
     2209       21
     2210       22                      req_all is to be set if all requested pages must be
     2211       23                      available if any are to be allocated.  Ignored if
     2212       24                      chk is set.
     2213       25
     2214       26                      park is to be set if it is OK to reg the user for lack
     2215       27                      of memory.
     2216       28
     2217       29                      nshuf indicates if the number of pages is to be
     2218       30                      shufflable or not (I/O).  If nshuf is not present
     2219       31                      or is zero, type shufflable is assumed.  If nshuf
     2220       32                      is present and is not zero, non shufflable I/O type is
     2221       33                      assumed.
     2222       34              DESCRIPTION:
     2223       35                      The current size of the user is computed from data
     2224       36                      in the JIT and added to the size parameter to compare
PL6.E3A0      #002=GMA$CHKSIZE File=GMA$LGP.:E05TSI                              TUE 07/29/97 22:12 Page:327
     2225       37                      with the users maximum memory resource size.  If the
     2226       38                      maximum size is exceeded, size is adjusted and an ALTRET
     2227       39                      return is taken.
     2228       40
     2229       41                      The ALTRET is taken if the user cannot fit into physical
     2230       42                      memory.
     2231       43                                                                           */
     2232       44
     2233       45
     2234       46        GMA$CHKSIZE: PROC (CHKSZ)  ALTRET;

     46   2 000000  D380 0000 0000  xent GMA$CHKSIZE     LNJ,B5   X6A_AUTO_1
          2 000003       0012 0001                       DC       18,1

     2235       47
     2236       48        %INCLUDE G_JIT_M;
     2237      313 S      %INCLUDE GU_LCP6_M;
     2238      314        %INCLUDE GM_MACRO_M;
     2239      796        %INCLUDE G$BOBCAT_M;
     2240      816        %INCLUDE GFR_DATA_M;
     2241      836        %INCLUDE GH_GATE_M;
     2242      877        %INCLUDE GH_SCHD_E;
     2243      973        %INCLUDE M_ERRORS_C;
     2244     1037        %INCLUDE MM_SCODE_C;
     2245     1084 S      %INCLUDE G_LCP6_E;
     2246     1085
     2247     1086        %GM_CHKSZ_PARAMS (FPTN=CHKSZ, STCLASS=);
     2248     1180
     2249     1181    1   DCL SIZE UBIN;                          /* request from CHKSZ.SIZE            */
     2250     1182    1   DCL USIZE UBIN;                         /* User accountable memory size       */
     2251     1183    1   DCL PSIZE UBIN;                         /* User real physical size            */
     2252     1184    1   DCL RSIZE UBIN;                         /* Requested additional pages         */
     2253     1185    1   DCL GM@SHUF UBIN;                       /* GM_SHUF - GM_STEP                  */
     2254     1186    1   DCL ACC UBIN;
     2255     1187    1   DCL MODE UBIN;
     2256     1188    1   DCL TABLE_UPDATED UBIN;
     2257     1189    1   DCL T$ PTR;
PL6.E3A0      #002=GMA$CHKSIZE File=GMA$LGP.:E05TSI                              TUE 07/29/97 22:12 Page:328
     2258     1190
     2259     1191    1   DCL GM_REG_4_MEM UBIN STATIC SYMDEF INIT(0);
     2260     1192
     2261     1193        %G$BOBCAT (STCLASS="BASED(G$BOBCAT$)");
     2262     1206        %GFR$ACCT (STCLASS="BASED(T$)");
     2263     1219        %G$JIT (STCLASS="BASED(G$JIT$)");
     2264     1633        %G$JIT_E;
     2265     1695
     2266     1696    1   DCL G$JIT$ PTR SYMREF READONLY;
     2267     1697    1   DCL G$BOBCAT$ PTR SYMREF READONLY;
     2268     1698    1   DCL GFR_CUR_MEM(0:4) UBIN SYMREF;
     2269     1699    1   DCL GFR_MAX_MEM(0:4) UBIN SYMREF;
     2270     1700    1   DCL GM_SHUF UBIN SYMREF;
     2271     1701    1   DCL GM_ASHUF UBIN SYMREF;
     2272     1702    1   DCL GM_STEP UBIN SYMREF;
     2273     1703
     2274     1704        %GATE (FPTN=GFR_RES_LOCK,STCLASS=SYMREF);
     2275     1723
     2276     1724    1   DCL GHS$REG ENTRY(2) ALTRET;
     2277     1725    1   DCL GJS$REL_ALL ENTRY(1) ALTRET;
     2278     1726    1   DCL GMA$LOCATE ENTRY(1) ALTRET;
     2279     1727    1   DCL SCREECH ENTRY(1);
     2280     1728
     2281     1729        %VLP_ERRCODE (FPTN=E$MEMLIMIT,FCG='GM',MID='A',MON='1'B,SEV=%G_SEV_CONT#,
     2282     1730              STCLASS=CONSTANT,ERR#=%E$MEMLIMIT);
     2283     1776        %VLP_ERRCODE (FPTN=E$BRKCTY,FCG='GM',MID='A',MON='1'B,SEV=%G_SEV_CONT#,
     2284     1777              STCLASS=CONSTANT,ERR#=%E$BRKCTY);
     2285     1823        %VLP_ERRCODE (FPTN=E$ACCT_MEMLIMIT,FCG='GM',MID='A',MON='1'B,SEV=%G_SEV_CONT#,
     2286     1824              STCLASS=CONSTANT,ERR#=%E$ACCT_MEMLIMIT);
     2287     1870        %VLP_ERRCODE (FPTN=E$MODE_MEMLIMIT,FCG='GM',MID='A',MON='1'B,SEV=%G_SEV_CONT#,
     2288     1871              STCLASS=CONSTANT,ERR#=%E$MODE_MEMLIMIT);
     2289     1917        %VLP_ERRCODE (FPTN=E$PHYS_MEMLIMIT,FCG='GM',MID='A',MON='1'B,SEV=%G_SEV_CONT#,
     2290     1918              STCLASS=CONSTANT,ERR#=%E$PHYS_MEMLIMIT);
     2291     1964
     2292     1965        %VLP_SCODE (FPTN=GONE_NEGATIVE,ERR#=%S$MM39,SEV=G_SEV_SCREECH#,STCLASS=CONSTANT,
     2293     1966                    FCG=GM,MID=A,MON='1'B);
     2294     2027        %EJECT;
PL6.E3A0      #002=GMA$CHKSIZE File=GMA$LGP.:E05TSI                              TUE 07/29/97 22:12 Page:329
     2295     2028
     2296     2029    1      SIZE = CHKSZ.SIZE;

   2029   2 000005  ECC7 0004                            LDB,B6   @CHKSZ,AUTO
          2 000007  E806                                 LDR,R6   ,B6
          2 000008  EF47 0006                            STR,R6   SIZE,AUTO

     2297     2030    1      RSIZE = SIZE;                        /* remember requested size            */

   2030   2 00000A  EF47 0009                            STR,R6   RSIZE,AUTO

     2298     2031    1      CHKSZ.ERR = '0'B;

   2031   2 00000C  8746 0001                            CL       1,B6
          2 00000E  8746 0002                            CL       2,B6

     2299     2032    1      TABLE_UPDATED = 0;

   2032   2 000010  8747 000D                            CL       TABLE_UPDATED,AUTO

     2300     2033
     2301     2034    1      IF GM_SHUF > GM_STEP

   2034   2 000012  D800 0000 0000  xsym                 LDR,R5   GM_SHUF
          2 000015  D900 0000 0000  xsym                 CMR,R5   GM_STEP
          2 000018  0381 0008                            BLE      s:2036,PREL

     2302     2035    1      THEN GM@SHUF = GM_SHUF - GM_STEP;

   2035   2 00001A  D200 0000 0000  xsym                 SUB,R5   GM_STEP
          2 00001D  DF47 000A                            STR,R5   GM@SHUF,AUTO
          2 00001F  0F81 0003                            B        s:2042,PREL

     2303     2036    1      ELSE GM@SHUF = 0;

   2036   2 000021  8747 000A                            CL       GM@SHUF,AUTO

PL6.E3A0      #002=GMA$CHKSIZE File=GMA$LGP.:E05TSI                              TUE 07/29/97 22:12 Page:330
     2304     2037
     2305     2038        /* Compute the user's current size.
     2306     2039           USIZE for logical limit checks.
     2307     2040           PSIZE for physical limit checks.
     2308     2041        */
     2309     2042    1      USIZE=G$JIT.PCD                      /* Static data                        */

   2042   2 000023  DC80 0000 0000  xsym                 LDB,B5   G$JIT$
          2 000026  D845 0080                            LDR,R5   128,B5
          2 000028  DA45 0083                            ADD,R5   131,B5
          2 00002A  DA45 0087                            ADD,R5   135,B5
          2 00002C  DA45 0082                            ADD,R5   130,B5
          2 00002E  DA45 0084                            ADD,R5   132,B5
          2 000030  DA45 0085                            ADD,R5   133,B5
          2 000032  DA45 008B                            ADD,R5   139,B5
          2 000034  DA45 008A                            ADD,R5   138,B5
          2 000036  DA45 0086                            ADD,R5   134,B5
          2 000038  DF47 0007                            STR,R5   USIZE,AUTO

     2310     2043    1        +G$JIT.PCDS                        /* Shuffable Data Segments            */
     2311     2044    1        +G$JIT.NSPC                        /* Non-shuffable Data Segments        */
     2312     2045    1        +G$JIT.PCL                         /* Unshared Library procedure*/
     2313     2046    1        +G$JIT.PCDDS                       /* Debugger data segment              */
     2314     2047    1        +G$JIT.PCC                         /* Context                            */
     2315     2048    1        +G$JIT.CQPC                        /* Circular Queue                     */
     2316     2049    1        +G$JIT.PSEUDOPGS                   /* HHJITs                             */
     2317     2050    1        +G$JIT.PCROS;                      /* Read Only Segment                  */
     2318     2051
     2319     2052        /*  First, make sure there is enough physical memory, if this is not step.
     2320     2053        */
     2321     2054    1      IF CHKSZ.FLGS.STEP = '1'B

   2054   2 00003A  82C6 0003                            LB,'0800'X        3,B6
   2054   2 00003C       0800
          2 00003D  0501 007F                            BBT      s:2111,PREL

     2322     2055    1      THEN GOTO SKIP_PSIZE_CHK;
PL6.E3A0      #002=GMA$CHKSIZE File=GMA$LGP.:E05TSI                              TUE 07/29/97 22:12 Page:331
     2323     2056
     2324     2057        /*  Handler pages are already taken out of GM_ASHUF.
     2325     2058        */
     2326     2059    1      IF G$JIT.MODE = %G_M_HANDLER#

   2059   2 00003F  C2C5 0004                            LLH,R4   4,B5
          2 000041  4D03                                 CMV,R4   3
          2 000042  0981 0005                            BNE      s:2064,PREL

     2327     2060    2      THEN DO;

     2328     2061    2           PSIZE = 0;

   2061   2 000044  8747 0008                            CL       PSIZE,AUTO

     2329     2062    2           END;

   2062   2 000046  0F81 0005                            B        s:2067,PREL

     2330     2063    2      ELSE DO;

     2331     2064    2           PSIZE = USIZE+G$JIT.PCP;        /* Procedure pages                    */

   2064   2 000048  DA45 0081                            ADD,R5   129,B5
          2 00004A  DF47 0008                            STR,R5   PSIZE,AUTO

     2332     2065    2           END;

     2333     2066
     2334     2067    1      IF CHKSZ.FLGS.NSHUF

   2067   2 00004C  82C6 0003                            LB,'1000'X        3,B6
   2067   2 00004E       1000
          2 00004F  0581 000F                            BBF      s:2067,PREL

     2335     2068    2      THEN DO;

PL6.E3A0      #002=GMA$CHKSIZE File=GMA$LGP.:E05TSI                              TUE 07/29/97 22:12 Page:332
     2336     2069    2           CALL GMA$LOCATE(SIZE) ALTRET(PSIZE_CHK);

   2069   2 000051  CBC7 0006                            LAB,B4   SIZE,AUTO
          2 000053  CFC7 0010                            STB,B4   T$+2,AUTO
          2 000055  BBC7 0010                            LAB,B3   T$+2,AUTO
          2 000057  CBF0 0100                            LAB,B4   256,IMO
          2 000059  E380 0000 0000  xent                 LNJ,B6   GMA$LOCATE
          2 00005C       0003                            DC       s:2067,PREL

     2337     2070    2           GOTO SKIP_PSIZE_CHK;

   2070   2 00005D  0F81 005F                            B        s:2111,PREL

   2067   2                              PSIZE_CHK       null
     2338     2071    2           END;
     2339     2072
     2340     2073    1   PSIZE_CHK: ;
     2341     2074    1      IF PSIZE + SIZE  > GM_ASHUF

   2074   2 00005F  E847 0008            PSIZE_CHK       LDR,R6   PSIZE,AUTO
          2 000061  EA47 0006                            ADD,R6   SIZE,AUTO
          2 000063  E900 0000 0000  xsym                 CMR,R6   GM_ASHUF
          2 000066  0381 000F                            BLE      s:2087,PREL

     2342     2075    2      THEN DO;

     2343     2076    2           SIZE = GM_ASHUF - PSIZE;

   2076   2 000068  E800 0000 0000  xsym                 LDR,R6   GM_ASHUF
          2 00006B  E247 0008                            SUB,R6   PSIZE,AUTO
          2 00006D  EF47 0006                            STR,R6   SIZE,AUTO

     2344     2077    2           CHKSZ.ERR = E$PHYS_MEMLIMIT;

   2077   2 00006F  8C80 0000 0008  01                   LDI      E$PHYS_MEMLIMIT
          2 000072  ECC7 0004                            LDB,B6   @CHKSZ,AUTO
          2 000074  8D46 0001                            SDI      1,B6
PL6.E3A0      #002=GMA$CHKSIZE File=GMA$LGP.:E05TSI                              TUE 07/29/97 22:12 Page:333

     2345     2078    2           END;

     2346     2079
     2347     2080        /*E* ERROR: GMA-E$PHYS_MEMLIMIT-0
     2348     2081              MESSAGE: Physical memory limit exceeded.
     2349     2082        */
     2350     2083
     2351     2084        /*  Check if there is currently enough around.  If not, try to
     2352     2085            free the memory by releasing pages from the shared file table.
     2353     2086        */
     2354     2087    1      IF SIZE > GM@SHUF

   2087   2 000076  E847 0006                            LDR,R6   SIZE,AUTO
          2 000078  E947 000A                            CMR,R6   GM@SHUF,AUTO
          2 00007A  0381 0022                            BLE      s:2101,PREL

     2355     2088    2      THEN DO;

     2356     2089    2           PSIZE = SIZE - GM@SHUF;

   2089   2 00007C  E247 000A                            SUB,R6   GM@SHUF,AUTO
          2 00007E  EF47 0008                            STR,R6   PSIZE,AUTO

     2357     2090    2           CALL GJS$REL_ALL(PSIZE);

   2090   2 000080  EBC7 0008                            LAB,B6   PSIZE,AUTO
          2 000082  EFC7 0010                            STB,B6   T$+2,AUTO
          2 000084  BBC7 0010                            LAB,B3   T$+2,AUTO
          2 000086  CBF0 0100                            LAB,B4   256,IMO
          2 000088  E380 0000 0000  xent                 LNJ,B6   GJS$REL_ALL
          2 00008B       0001                            DC       s:2092,PREL

     2358     2091
     2359     2092    2           IF GM_SHUF > GM_STEP

   2092   2 00008C  E800 0000 0000  xsym                 LDR,R6   GM_SHUF
PL6.E3A0      #002=GMA$CHKSIZE File=GMA$LGP.:E05TSI                              TUE 07/29/97 22:12 Page:334
          2 00008F  E900 0000 0000  xsym                 CMR,R6   GM_STEP
          2 000092  0381 0008                            BLE      s:2094,PREL

     2360     2093    2           THEN GM@SHUF = GM_SHUF - GM_STEP;

   2093   2 000094  E200 0000 0000  xsym                 SUB,R6   GM_STEP
          2 000097  EF47 000A                            STR,R6   GM@SHUF,AUTO
          2 000099  0F81 0003                            B        s:2101,PREL

     2361     2094    2           ELSE GM@SHUF = 0;

   2094   2 00009B  8747 000A                            CL       GM@SHUF,AUTO

     2362     2095    2           END;

     2363     2096
     2364     2097        /*  If not currently enough, but the user specified we are to get
     2365     2098            what we can without REGing him (REQ_ALL=NO and PARK=NO), give what
     2366     2099            we can.
     2367     2100        */
     2368     2101    1      IF SIZE > GM@SHUF

   2101   2 00009D  E847 0006                            LDR,R6   SIZE,AUTO
          2 00009F  E947 000A                            CMR,R6   GM@SHUF,AUTO
          2 0000A1  0381 001B                            BLE      s:2111,PREL

     2369     2102    2      THEN DO;

     2370     2103    2           IF NOT CHKSZ.FLGS.REQ_ALL

   2103   2 0000A3  ECC7 0004                            LDB,B6   @CHKSZ,AUTO
          2 0000A5  82C6 0003                            LB,'4000'X        3,B6
          2 0000A7       4000
          2 0000A8  0501 0014                            BBT      s:2111,PREL

     2371     2104    3           THEN DO;

PL6.E3A0      #002=GMA$CHKSIZE File=GMA$LGP.:E05TSI                              TUE 07/29/97 22:12 Page:335
     2372     2105    3                IF NOT CHKSZ.FLGS.PARK OR GM_REG_4_MEM=0

   2105   2 0000AA  82C6 0003                            LB,'2000'X        3,B6
   2105   2 0000AC       2000
          2 0000AD  0581 0006                            BBF      s:2107,PREL
          2 0000AF  D800 0000 0000  00                   LDR,R5   GM_REG_4_MEM
          2 0000B2  5981 000A                            BNEZ,R5  s:2111,PREL

     2373     2106    4                THEN DO;

     2374     2107    4                     SIZE = GM@SHUF;

   2107   2 0000B4  E847 000A                            LDR,R6   GM@SHUF,AUTO
          2 0000B6  EF47 0006                            STR,R6   SIZE,AUTO

     2375     2108    4                     CHKSZ.ERR = E$PHYS_MEMLIMIT;

   2108   2 0000B8  8C80 0000 0008  01                   LDI      E$PHYS_MEMLIMIT
          2 0000BB  8D46 0001                            SDI      1,B6

     2376     2109    4                     END;

     2377     2110    3                END;

     2378     2111    2           END;

   2101   2                              SKIP_PSIZE_CHK  null
     2379     2112
     2380     2113
     2381     2114        %EJECT;
PL6.E3A0      #002=GMA$CHKSIZE File=GMA$LGP.:E05TSI                              TUE 07/29/97 22:12 Page:336
     2382     2115        /*  Now, the system logical limit checks.
     2383     2116            If the user doesn't have MAXMEM priv on, check against the
     2384     2117            limit in the JIT.
     2385     2118        */
     2386     2119    1   SKIP_PSIZE_CHK: ;
     2387     2120    1      IF NOT G$JIT.MMFLGS.FREE_PPGS

   2120   2 0000BD  EC80 0000 0000  xsym SKIP_PSIZE_CHK  LDB,B6   G$JIT$
          2 0000C0  89C6 0088                            CMZ      136,B6
          2 0000C2  0801 0007                            BAL      s:2123,PREL

     2388     2121    1      THEN USIZE=USIZE+G$JIT.PCP;

   2121   2 0000C4  E847 0007                            LDR,R6   USIZE,AUTO
          2 0000C6  EA46 0081                            ADD,R6   129,B6
          2 0000C8  EF47 0007                            STR,R6   USIZE,AUTO

     2389     2122
     2390     2123    1      IF NOT (G$JIT.PRIV.ACTIVE & %G_PR_MAXMEM#)

   2123   2 0000CA  8CC6 008E                            LDI      142,B6
          2 0000CC  E500 0000 000D  01                   AND,R6   GONE_NEGATIVE+3
          2 0000CF  F500 0000 000E  01                   AND,R7   GONE_NEGATIVE+4
          2 0000D2  8D47 0010                            SDI      T$+2,AUTO
          2 0000D4  DB80 0000 0000  03                   LAB,B5   0
          2 0000D7  5C01                                 LDV,R5   1
          2 0000D8  0022                                 ACM      ;
          2 0000D9       4407 0010                                ALPHANUM(T$+2,AUTO,,4,FILL),;
          2 0000DB       4005 0000                                ALPHANUM(0,B5,,R5,FILL)
          2 0000DD  5301 0016                            CBNE     s:2139,PREL

     2391     2124    2      THEN DO;

     2392     2125    2           IF USIZE + SIZE > G$JIT.MAXMEM

   2125   2 0000DF  C847 0007                            LDR,R4   USIZE,AUTO
          2 0000E1  CA47 0006                            ADD,R4   SIZE,AUTO
PL6.E3A0      #002=GMA$CHKSIZE File=GMA$LGP.:E05TSI                              TUE 07/29/97 22:12 Page:337
          2 0000E3  C946 0089                            CMR,R4   137,B6
          2 0000E5  0381 000E                            BLE      s:2139,PREL

     2393     2126    3           THEN DO;

     2394     2127    3                SIZE = G$JIT.MAXMEM - USIZE;

   2127   2 0000E7  C846 0089                            LDR,R4   137,B6
          2 0000E9  C247 0007                            SUB,R4   USIZE,AUTO
          2 0000EB  CF47 0006                            STR,R4   SIZE,AUTO

     2395     2128    3                CHKSZ.ERR = E$MEMLIMIT;

   2128   2 0000ED  8C80 0000 0000  01                   LDI      E$MEMLIMIT
          2 0000F0  DCC7 0004                            LDB,B5   @CHKSZ,AUTO
          2 0000F2  8D45 0001                            SDI      1,B5

     2396     2129    3                END;

     2397     2130    2           END;

     2398     2131
     2399     2132        /*E* ERROR: GMA-E$MEMLIMIT-0
     2400     2133             MESSAGE: User memory limit exceeded.
     2401     2134        */
     2402     2135
     2403     2136        /*  Also check against the memory limit for this account,uname and
     2404     2137            the memory limit for this user mode.
     2405     2138        */
     2406     2139    1      IF G$JIT.GFR_ACCT ~= 0

   2139   2 0000F4  E2C6 00A7                            LLH,R6   167,B6
          2 0000F6  6901 0076                            BEZ,R6   s:2195,PREL

     2407     2140    2      THEN DO;

     2408     2141    2           T$ = G$BOBCAT.ACCT_RES$;
PL6.E3A0      #002=GMA$CHKSIZE File=GMA$LGP.:E05TSI                              TUE 07/29/97 22:12 Page:338

   2141   2 0000F8  DC80 0000 0000  xsym                 LDB,B5   G$BOBCAT$
          2 0000FB  CCC5 0020                            LDB,B4   32,B5
          2 0000FD  CFC7 000E                            STB,B4   T$,AUTO

     2409     2142    2           ACC = G$JIT.GFR_ACCT;

   2142   2 0000FF  EF47 000B                            STR,R6   ACC,AUTO

     2410     2143    2           MODE = G$JIT.MODE;

   2143   2 000101  C2C6 0004                            LLH,R4   4,B6
          2 000103  CF47 000C                            STR,R4   MODE,AUTO

     2411     2144                %LOCK (G=GFR_RES_LOCK);

   2149   2 000105  BB80 0000 0001  03                   LAB,B3   +1
          2 000108  CBF0 0100                            LAB,B4   256,IMO
          2 00010A  E380 0000 0000  xent                 LNJ,B6   GHH$LOCK
          2 00010D       0001                            DC       s:2152,PREL

     2412     2151
     2413     2152    2           IF GFR$ACCT.CUR_MEM(ACC) + SIZE > GFR$ACCT.MAX_MEM(ACC)

   2152   2 00010E  ECC7 000E                            LDB,B6   T$,AUTO
          2 000110  B847 000B                            LDR,R3   ACC,AUTO
          2 000112  3F0E                                 MLV,R3   14
          2 000113  3E0B                                 ADV,R3   11
          2 000114  E836                                 LDR,R6   ,B6,R3
          2 000115  EA47 0006                            ADD,R6   SIZE,AUTO
          2 000117  A847 000B                            LDR,R2   ACC,AUTO
          2 000119  2F0E                                 MLV,R2   14
          2 00011A  2E0A                                 ADV,R2   10
          2 00011B  E926                                 CMR,R6   ,B6,R2
          2 00011C  0381 000C                            BLE      s:2162,PREL

     2414     2153    3           THEN DO;
PL6.E3A0      #002=GMA$CHKSIZE File=GMA$LGP.:E05TSI                              TUE 07/29/97 22:12 Page:339

     2415     2154    3                SIZE = GFR$ACCT.MAX_MEM(ACC) - GFR$ACCT.CUR_MEM(ACC);

   2154   2 00011E  E826                                 LDR,R6   ,B6,R2
          2 00011F  E236                                 SUB,R6   ,B6,R3
          2 000120  EF47 0006                            STR,R6   SIZE,AUTO

     2416     2155    3                CHKSZ.ERR = E$ACCT_MEMLIMIT;

   2155   2 000122  8C80 0000 0004  01                   LDI      E$ACCT_MEMLIMIT
          2 000125  DCC7 0004                            LDB,B5   @CHKSZ,AUTO
          2 000127  8D45 0001                            SDI      1,B5

     2417     2156    3                END;

     2418     2157
     2419     2158        /*E* ERROR: GMA-E$ACCT_MEMLIMIT-0
     2420     2159             MESSAGE: Account memory limit exceeded.
     2421     2160        */
     2422     2161
     2423     2162    2           IF GFR_CUR_MEM(MODE) + SIZE > GFR_MAX_MEM(MODE)

   2162   2 000129  9847 000C                            LDR,R1   MODE,AUTO
          2 00012B  E810 0000 0000  xsym                 LDR,R6   GFR_CUR_MEM,R1
          2 00012E  EA47 0006                            ADD,R6   SIZE,AUTO
          2 000130  E910 0000 0000  xsym                 CMR,R6   GFR_MAX_MEM,R1
          2 000133  0381 0010                            BLE      s:2175,PREL

     2424     2163    3           THEN DO;

     2425     2164    3                SIZE = GFR_MAX_MEM(MODE) - GFR_CUR_MEM(MODE);

   2164   2 000135  E810 0000 0000  xsym                 LDR,R6   GFR_MAX_MEM,R1
          2 000138  E210 0000 0000  xsym                 SUB,R6   GFR_CUR_MEM,R1
          2 00013B  EF47 0006                            STR,R6   SIZE,AUTO

     2426     2165    3                CHKSZ.ERR = E$MODE_MEMLIMIT;
PL6.E3A0      #002=GMA$CHKSIZE File=GMA$LGP.:E05TSI                              TUE 07/29/97 22:12 Page:340

   2165   2 00013D  8C80 0000 0006  01                   LDI      E$MODE_MEMLIMIT
          2 000140  DCC7 0004                            LDB,B5   @CHKSZ,AUTO
          2 000142  8D45 0001                            SDI      1,B5

     2427     2166    3                END;

     2428     2167
     2429     2168        /*E* ERROR: GMA-E$MODE_MEMLIMIT-0
     2430     2169             MESSAGE: User Mode memory limit exceeded.
     2431     2170        */
     2432     2171
     2433     2172        /* If this is not a check_only call, the memory is removed from
     2434     2173           the account resource table.
     2435     2174        */
     2436     2175    2           IF NOT CHKSZ.FLGS.CHK_ONLY

   2175   2 000144  DCC7 0004                            LDB,B5   @CHKSZ,AUTO
          2 000146  89C5 0003                            CMZ      3,B5
          2 000148  0801 001B                            BAL      s:2189,PREL

     2437     2176    3           THEN DO;

     2438     2177    3                IF NOT(CHKSZ.FLGS.REQ_ALL AND (SIZE ~= RSIZE) )

   2177   2 00014A  82C5 0003                            LB,'4000'X        3,B5
   2177   2 00014C       4000
          2 00014D  0581 0007                            BBF      s:2179,PREL
          2 00014F  E847 0006                            LDR,R6   SIZE,AUTO
          2 000151  E947 0009                            CMR,R6   RSIZE,AUTO
          2 000153  0981 0010                            BNE      s:2189,PREL

     2439     2178    4                THEN DO;

     2440     2179    4                     GFR$ACCT.CUR_MEM(ACC) = GFR$ACCT.CUR_MEM(ACC) + SIZE;

   2179   2 000155  E836                                 LDR,R6   ,B6,R3
PL6.E3A0      #002=GMA$CHKSIZE File=GMA$LGP.:E05TSI                              TUE 07/29/97 22:12 Page:341
          2 000156  EA47 0006                            ADD,R6   SIZE,AUTO
          2 000158  EF36                                 STR,R6   ,B6,R3

     2441     2180    4                     GFR_CUR_MEM(MODE) = GFR_CUR_MEM(MODE) + SIZE;

   2180   2 000159  D810 0000 0000  xsym                 LDR,R5   GFR_CUR_MEM,R1
          2 00015C  DA47 0006                            ADD,R5   SIZE,AUTO
          2 00015E  DF10 0000 0000  xsym                 STR,R5   GFR_CUR_MEM,R1

     2442     2181    4                     TABLE_UPDATED = 1;

   2181   2 000161  6C01                                 LDV,R6   1
          2 000162  EF47 000D                            STR,R6   TABLE_UPDATED,AUTO

     2443     2182    4                     END;

     2444     2183    3                END/*do if not chk_only*/;

     2445     2184                %UNLOCK (G=GFR_RES_LOCK);

   2189   2 000164  BB80 0000 0001  03                   LAB,B3   +1
          2 000167  CBF0 0100                            LAB,B4   256,IMO
          2 000169  E380 0000 0000  xent                 LNJ,B6   GHH$UNLOCK
          2 00016C       0001                            DC       s:2195,PREL

     2446     2191
     2447     2192    2           END/*do if JIT.GFR_ACCR ~=0*/;

     2448     2193
     2449     2194        %EJECT;
PL6.E3A0      #002=GMA$CHKSIZE File=GMA$LGP.:E05TSI                              TUE 07/29/97 22:12 Page:342
     2450     2195    1      IF NOT CHKSZ.FLGS.CHK_ONLY

   2195   2 00016D  ECC7 0004                            LDB,B6   @CHKSZ,AUTO
          2 00016F  89C6 0003                            CMZ      3,B6
          2 000171  0801 0093                            BAL      s:2257,PREL

     2451     2196    2      THEN DO;

     2452     2197    2           IF NOT CHKSZ.FLGS.STEP

   2197   2 000173  82C6 0003                            LB,'0800'X        3,B6
   2197   2 000175       0800
          2 000176  0501 008E                            BBT      s:2257,PREL

     2453     2198    3           THEN DO;

     2454     2199    3                IF NOT(CHKSZ.FLGS.REQ_ALL AND (SIZE ~= RSIZE) )

   2199   2 000178  82C6 0003                            LB,'4000'X        3,B6
   2199   2 00017A       4000
          2 00017B  0581 0007                            BBF      s:2205,PREL
          2 00017D  E847 0006                            LDR,R6   SIZE,AUTO
          2 00017F  E947 0009                            CMR,R6   RSIZE,AUTO
          2 000181  0981 0074                            BNE      s:2252,PREL

     2455     2200    4                THEN DO;

     2456     2201
     2457     2202        /*  Check if there are enough free pages around.  If not, REG this
     2458     2203            guy until some become available.
     2459     2204        */
     2460     2205    5                     DO WHILE ( SIZE > GM@SHUF );

   2205   2 000183  E847 0006                            LDR,R6   SIZE,AUTO
          2 000185  E947 000A                            CMR,R6   GM@SHUF,AUTO
          2 000187  0381 006E                            BLE      s:2252,PREL

PL6.E3A0      #002=GMA$CHKSIZE File=GMA$LGP.:E05TSI                              TUE 07/29/97 22:12 Page:343
     2461     2206
     2462     2207    5                          IF NOT CHKSZ.FLGS.PARK

   2207   2 000189  ECC7 0004                            LDB,B6   @CHKSZ,AUTO
          2 00018B  82C6 0003                            LB,'2000'X        3,B6
          2 00018D       2000
          2 00018E  0501 000A                            BBT      s:2214,PREL

     2463     2208    6                          THEN DO;

     2464     2209    6   ERR_FOR_NOW:                ;

   2209   2                              ERR_FOR_NOW     null
     2465     2210    6                               CHKSZ.ERR=E$PHYS_MEMLIMIT;

   2210   2 000190  8C80 0000 0008  01   ERR_FOR_NOW     LDI      E$PHYS_MEMLIMIT
          2 000193  ECC7 0004                            LDB,B6   @CHKSZ,AUTO
          2 000195  8D46 0001                            SDI      1,B6

     2466     2211    6                               GOTO REMOVE;

   2211   2 000197  0F81 0017                            B        s:2218,PREL

     2467     2212    6                               END;
     2468     2213
     2469     2214    5                          IF GM_REG_4_MEM = 0 THEN GOTO ERR_FOR_NOW;

   2214   2 000199  E800 0000 0000  00                   LDR,R6   GM_REG_4_MEM
          2 00019C  6974                                 BEZ,R6   s:2208,SPREL

     2470     2215
     2471     2216    5                          CALL GHS$REG (%GH_EVMEM)

   2216   2 00019D  BB80 0000 0004  03                   LAB,B3   +4
          2 0001A0  CBF0 0100                            LAB,B4   256,IMO
          2 0001A2  E380 0000 0000  xent                 LNJ,B6   GHS$REG
          2 0001A5       0003                            DC       s:2218,PREL
PL6.E3A0      #002=GMA$CHKSIZE File=GMA$LGP.:E05TSI                              TUE 07/29/97 22:12 Page:344
          2 0001A6  0F81 0038                            B        s:2243,PREL

     2472     2217    6                          WHENALTRETURN DO;

     2473     2218    6                               CHKSZ.ERR=E$BRKCTY;

   2218   2 0001A8  8C80 0000 0002  01                   LDI      E$BRKCTY
          2 0001AB  ECC7 0004                            LDB,B6   @CHKSZ,AUTO
          2 0001AD  8D46 0001                            SDI      1,B6

   2218   2                              REMOVE          null
     2474     2219    6   REMOVE:                     ;
     2475     2220    6                               IF TABLE_UPDATED ~= 0

   2220   2 0001AF  D847 000D            REMOVE          LDR,R5   TABLE_UPDATED,AUTO
          2 0001B1  5901 002A                            BEZ,R5   s:2240,PREL

     2476     2221    7                               THEN DO;

     2477     2222                                         %LOCK (G=GFR_RES_LOCK);

   2227   2 0001B3  BB80 0000 0001  03                   LAB,B3   +1
          2 0001B6  CBF0 0100                            LAB,B4   256,IMO
          2 0001B8  E380 0000 0000  xent                 LNJ,B6   GHH$LOCK
          2 0001BB       0001                            DC       s:2229,PREL

     2478     2229    7                                    GFR$ACCT.CUR_MEM(ACC) = GFR$ACCT.CUR_MEM(ACC) -
              2229                                             SIZE;

   2229   2 0001BC  ECC7 000E                            LDB,B6   T$,AUTO
          2 0001BE  B847 000B                            LDR,R3   ACC,AUTO
          2 0001C0  3F0E                                 MLV,R3   14
          2 0001C1  3E0B                                 ADV,R3   11
          2 0001C2  E836                                 LDR,R6   ,B6,R3
          2 0001C3  E247 0006                            SUB,R6   SIZE,AUTO
          2 0001C5  EF36                                 STR,R6   ,B6,R3

PL6.E3A0      #002=GMA$CHKSIZE File=GMA$LGP.:E05TSI                              TUE 07/29/97 22:12 Page:345
     2479     2230    7                                    GFR_CUR_MEM(MODE) = GFR_CUR_MEM(MODE) - SIZE;

   2230   2 0001C6  A847 000C                            LDR,R2   MODE,AUTO
          2 0001C8  D820 0000 0000  xsym                 LDR,R5   GFR_CUR_MEM,R2
          2 0001CB  D247 0006                            SUB,R5   SIZE,AUTO
          2 0001CD  DF20 0000 0000  xsym                 STR,R5   GFR_CUR_MEM,R2

     2480     2231                                         %UNLOCK (G=GFR_RES_LOCK);

   2236   2 0001D0  BB80 0000 0001  03                   LAB,B3   +1
          2 0001D3  CBF0 0100                            LAB,B4   256,IMO
          2 0001D5  E380 0000 0000  xent                 LNJ,B6   GHH$UNLOCK
          2 0001D8       0001                            DC       s:2238,PREL

     2481     2238    7                                    CHKSZ.SIZE = 0;

   2238   2 0001D9  ECC7 0004                            LDB,B6   @CHKSZ,AUTO
          2 0001DB  8706                                 CL       ,B6

     2482     2239    7                                    END;

     2483     2240    6                               ALTRETURN;

   2240   2 0001DC  C380 0000 0000  xent                 LNJ,B4   X6A_AALT

     2484     2241    6                               END/*Altret from GHS$REG*/;
     2485     2242
     2486     2243    5                          IF GM_SHUF > GM_STEP

   2243   2 0001DF  E800 0000 0000  xsym                 LDR,R6   GM_SHUF
          2 0001E2  E900 0000 0000  xsym                 CMR,R6   GM_STEP
          2 0001E5  0381 0008                            BLE      s:2245,PREL

     2487     2244    5                          THEN GM@SHUF = GM_SHUF - GM_STEP;

   2244   2 0001E7  E200 0000 0000  xsym                 SUB,R6   GM_STEP
          2 0001EA  EF47 000A                            STR,R6   GM@SHUF,AUTO
PL6.E3A0      #002=GMA$CHKSIZE File=GMA$LGP.:E05TSI                              TUE 07/29/97 22:12 Page:346
          2 0001EC  0F81 0003                            B        s:2246,PREL

     2488     2245    5                          ELSE GM@SHUF = 0;

   2245   2 0001EE  8747 000A                            CL       GM@SHUF,AUTO

     2489     2246    5                          END/*do while*/;

   2246   2 0001F0  E847 0006                            LDR,R6   SIZE,AUTO
          2 0001F2  E947 000A                            CMR,R6   GM@SHUF,AUTO
          2 0001F4  0301 FF94                            BG       s:2207,PREL

     2490     2247    4                     END/*do if not step*/;

     2491     2248
     2492     2249        /* If the memory we got for this user should bump his memory
     2493     2250           peak count, do so.
     2494     2251        */
     2495     2252    3                IF USIZE + SIZE > G$JIT.PEAK_MEM

   2252   2 0001F6  EA47 0007                            ADD,R6   USIZE,AUTO
          2 0001F8  EC80 0000 0000  xsym                 LDB,B6   G$JIT$
          2 0001FB  E946 0034                            CMR,R6   52,B6
          2 0001FD  0381 0007                            BLE      s:2257,PREL

     2496     2253    3                THEN G$JIT.PEAK_MEM = USIZE + SIZE;

   2253   2 0001FF  E847 0007                            LDR,R6   USIZE,AUTO
          2 000201  EA47 0006                            ADD,R6   SIZE,AUTO
          2 000203  EF46 0034                            STR,R6   52,B6

     2497     2254    3                END/*if not req_all failure*/;

     2498     2255    2           END/*if not chk_only*/;

     2499     2256
     2500     2257    1      CHKSZ.SIZE = SIZE;
PL6.E3A0      #002=GMA$CHKSIZE File=GMA$LGP.:E05TSI                              TUE 07/29/97 22:12 Page:347

   2257   2 000205  ECC7 0004                            LDB,B6   @CHKSZ,AUTO
          2 000207  E847 0006                            LDR,R6   SIZE,AUTO
          2 000209  EF06                                 STR,R6   ,B6

     2501     2258    1      IF SIZE ~= RSIZE THEN ALTRETURN;

   2258   2 00020A  D847 0006                            LDR,R5   SIZE,AUTO
          2 00020C  D947 0009                            CMR,R5   RSIZE,AUTO
          2 00020E  0901 0004                            BE       s:2259,PREL

   2258   2 000210  C380 0000 0000  xent                 LNJ,B4   X6A_AALT

     2502     2259    1      ELSE RETURN;

   2259   2 000213  C380 0000 0000  xent                 LNJ,B4   X6A_ARET

     2503     2260
     2504     2261        %EJECT;
PL6.E3A0      #002=GMA$CHKSIZE File=GMA$LGP.:E05TSI                              TUE 07/29/97 22:12 Page:348
     2505     2262
     2506     2263    1   GMA$REL_ACCTMEM: ENTRY(CHKSZ) ALTRET;

   2263   2 000216  D380 0000 0000  xent GMA$REL_ACCTMEM LNJ,B5   X6A_AUTO_1
          2 000219       0012 0001                       DC       18,1

     2507     2264
     2508     2265        /*  Remove the pages from the account recource table.   */
     2509     2266
     2510     2267    1      IF G$JIT.GFR_ACCT ~= 0

   2267   2 00021B  EC80 0000 0000  xsym                 LDB,B6   G$JIT$
          2 00021E  E2C6 00A7                            LLH,R6   167,B6
          2 000220  6901 005F                            BEZ,R6   s:2302,PREL

     2511     2268    2      THEN DO;

     2512     2269    2           SIZE = CHKSZ.SIZE;

   2269   2 000222  DCC7 0004                            LDB,B5   @CHKSZ,AUTO
          2 000224  D805                                 LDR,R5   ,B5
          2 000225  DF47 0006                            STR,R5   SIZE,AUTO

     2513     2270    2           T$ = G$BOBCAT.ACCT_RES$;

   2270   2 000227  CC80 0000 0000  xsym                 LDB,B4   G$BOBCAT$
          2 00022A  BCC4 0020                            LDB,B3   32,B4
          2 00022C  BFC7 000E                            STB,B3   T$,AUTO

     2514     2271                %LOCK (G=GFR_RES_LOCK);

   2276   2 00022E  BB80 0000 0001  03                   LAB,B3   +1
          2 000231  CBF0 0100                            LAB,B4   256,IMO
          2 000233  E380 0000 0000  xent                 LNJ,B6   GHH$LOCK
          2 000236       0001                            DC       s:2279,PREL

     2515     2278
PL6.E3A0      #002=GMA$CHKSIZE File=GMA$LGP.:E05TSI                              TUE 07/29/97 22:12 Page:349
     2516     2279    2           IF SIZE > GFR$ACCT.CUR_MEM(G$JIT.GFR_ACCT)

   2279   2 000237  EC80 0000 0000  xsym                 LDB,B6   G$JIT$
          2 00023A  B2C6 00A7                            LLH,R3   167,B6
          2 00023C  DCC7 000E                            LDB,B5   T$,AUTO
          2 00023E  BF47 0010                            STR,R3   T$+2,AUTO
          2 000240  3F0E                                 MLV,R3   14
          2 000241  3E0B                                 ADV,R3   11
          2 000242  B847 0010                            LDR,R3   T$+2,AUTO
          2 000244  3F0E                                 MLV,R3   14
          2 000245  3E0B                                 ADV,R3   11
          2 000246  E847 0006                            LDR,R6   SIZE,AUTO
          2 000248  E935                                 CMR,R6   ,B5,R3
          2 000249  0301 0017                            BG       s:2284,PREL

     2517     2280    2           THEN GOTO ACCTMEM_SCREECH;
     2518     2281    2           GFR$ACCT.CUR_MEM(G$JIT.GFR_ACCT) = GFR$ACCT.CUR_MEM(G$JIT.GFR_ACCT) - SIZE;

   2281   2 00024B  A2C6 00A7                            LLH,R2   167,B6
          2 00024D  AF47 0010                            STR,R2   T$+2,AUTO
          2 00024F  2F0E                                 MLV,R2   14
          2 000250  2E0B                                 ADV,R2   11
          2 000251  B847 0010                            LDR,R3   T$+2,AUTO
          2 000253  3F0E                                 MLV,R3   14
          2 000254  3E0B                                 ADV,R3   11
          2 000255  E235                                 SUB,R6   ,B5,R3
          2 000256  8256                                 NEG      R6
          2 000257  EF35                                 STR,R6   ,B5,R3

     2519     2282
     2520     2283    2           IF SIZE > GFR_CUR_MEM(G$JIT.MODE)

   2283   2 000258  A2C6 0004                            LLH,R2   4,B6
          2 00025A  D847 0006                            LDR,R5   SIZE,AUTO
          2 00025C  D920 0000 0000  xsym                 CMR,R5   GFR_CUR_MEM,R2
          2 00025F  0381 000A                            BLE      s:2288,PREL

PL6.E3A0      #002=GMA$CHKSIZE File=GMA$LGP.:E05TSI                              TUE 07/29/97 22:12 Page:350
     2521     2284    3           THEN DO;

   2281   2                              ACCTMEM_SCREECH null
     2522     2285    3   ACCTMEM_SCREECH: ;
     2523     2286    3                CALL SCREECH(GONE_NEGATIVE);

   2286   2 000261  BB80 0000 0006  03   ACCTMEM_SCREECH LAB,B3   +6
          2 000264  CBF0 0100                            LAB,B4   256,IMO
          2 000266  E380 0000 0000  xent                 LNJ,B6   SCREECH
          2 000269       0001                            DC       s:2288,PREL

     2524     2287    3                END;

     2525     2288    2           GFR_CUR_MEM(G$JIT.MODE) = GFR_CUR_MEM(G$JIT.MODE) - SIZE;

   2288   2 00026A  EC80 0000 0000  xsym                 LDB,B6   G$JIT$
          2 00026D  B2C6 0004                            LLH,R3   4,B6
          2 00026F  E830 0000 0000  xsym                 LDR,R6   GFR_CUR_MEM,R3
          2 000272  E247 0006                            SUB,R6   SIZE,AUTO
          2 000274  EF30 0000 0000  xsym                 STR,R6   GFR_CUR_MEM,R3

     2526     2289                %UNLOCK (G=GFR_RES_LOCK);

   2294   2 000277  BB80 0000 0001  03                   LAB,B3   +1
          2 00027A  CBF0 0100                            LAB,B4   256,IMO
          2 00027C  E380 0000 0000  xent                 LNJ,B6   GHH$UNLOCK
          2 00027F       0001                            DC       s:2302,PREL

     2527     2296    2           END;

     2528     2297        /*S* SCREECH_CODE: GMA-S$MM39
     2529     2298             TYPE: SCREECH
     2530     2299             MESSAGE: Mode Memory or Account Memory count has gone negative.
     2531     2300        */
     2532     2301
     2533     2302    1   END GMA$CHKSIZE;

PL6.E3A0      #002=GMA$CHKSIZE File=GMA$LGP.:E05TSI                              TUE 07/29/97 22:12 Page:351
   2302   2 000280  C380 0000 0000  xent                 LNJ,B4   X6A_ARET

PL6.E3A0      #002=GMA$CHKSIZE File=GMA$LGP.:E05TSI                              TUE 07/29/97 22:12 Page:352
--  Include file information  --

   MM_SCODE_C.:E05TOU  is referenced.
   M_ERRORS_C.:E05TOU  is referenced.
   GH_SCHD_E.:E05TOU  is referenced.
   GH_GATE_M.:E05TOU  cannot be made into a system file and is referenced.
   GFR_DATA_M.:E05TOU  is referenced.
   G$BOBCAT_M.:E05TOU  is referenced.
   GM_MACRO_M.:E05TOU  is referenced.
   G_JIT_M.:E05TOU  is referenced.
   G_LCP6_E.:E05TOU  was found in the system file and is referenced.
   GT_LCP6_M.:E05TOU  was found in the system file and is never referenced.
   KI_CP6.:E05TOU  was found in the system file and is never referenced.
   GF_LCP6_M.:E05TOU  was found in the system file and is never referenced.
   GM_LCP6_M.:E05TOU  was found in the system file and is never referenced.
   GU_LCP6_M.:E05TOU  was found in the system file and is referenced.
   GJ_LCP6_M.:E05TOU  was found in the system file and is never referenced.
   GH_LCP6_M.:E05TOU  was found in the system file and is never referenced.
      No diagnostics issued in procedure GMA$CHKSIZE.
PL6.E3A0      #002=GMA$CHKSIZE File=GMA$LGP.:E05TSI                              TUE 07/29/97 22:12 Page:353

 **** Variables and constants ****

  ****  Section 000  Data  GMA$CHKSIZE

  ****  Scalars and arrays  ****
HexLoc.c.b A Datatyp(siz) R M Lvl/name                 HexLoc.c.b A Datatyp(siz) R M Lvl/name

     0-0-0/w UBIN(16)    r     1 GM_REG_4_MEM

  ****  Section 001 RoData GMA$CHKSIZE

  ****  Scalars and arrays  ****
HexLoc.c.b A Datatyp(siz) R M Lvl/name                 HexLoc.c.b A Datatyp(siz) R M Lvl/name

     4-0-0/w STRC(32)    r     1 E$ACCT_MEMLIMIT            2-0-0/w STRC(32)    r     1 E$BRKCTY
     0-0-0/w STRC(32)    r     1 E$MEMLIMIT                 6-0-0/w STRC(32)    r     1 E$MODE_MEMLIMIT
     8-0-0/w STRC(32)    r     1 E$PHYS_MEMLIMIT            A-0-0/w STRC(48)    r     1 GONE_NEGATIVE

  ****  Auto variables  ****

  ****  Scalars and arrays  ****
HexLoc.c.b A Datatyp(siz) R M Lvl/name                 HexLoc.c.b A Datatyp(siz) R M Lvl/name

     4-0-0/w PTR         r     1 @CHKSZ                     B-0-0/w UBIN(16)    r     1 ACC
    *0-0-0/w STRC(64)    r     1 CHKSZ                      A-0-0/w UBIN(16)    r     1 GM@SHUF
     C-0-0/w UBIN(16)    r     1 MODE                       8-0-0/w UBIN(16)    r     1 PSIZE
     9-0-0/w UBIN(16)    r     1 RSIZE                      6-0-0/w UBIN(16)    r     1 SIZE
     E-0-0/w PTR         r     1 T$                         D-0-0/w UBIN(16)    r     1 TABLE_UPDATED
     7-0-0/w UBIN(16)    r     1 USIZE

  ****  SYMREF variables  ****

  ****  Scalars and arrays  ****
HexLoc.c.b A Datatyp(siz) R M Lvl/name                 HexLoc.c.b A Datatyp(siz) R M Lvl/name

     0-0-0/w PTR         r     1 G$BOBCAT$                  0-0-0/w PTR         r     1 G$JIT$
     0-0-0/w UBIN(16)    r     1 GFR_CUR_MEM(0:4)
PL6.E3A0      #002=GMA$CHKSIZE File=GMA$LGP.:E05TSI                              TUE 07/29/97 22:12 Page:354
     0-0-0/w UBIN(16)    r     1 GFR_MAX_MEM(0:4)
     0-0-0/w STRC(48)    r     1 GFR_RES_LOCK               0-0-0/w UBIN(16)    r     1 GM_ASHUF
     0-0-0/w UBIN(16)    r     1 GM_SHUF                    0-0-0/w UBIN(16)    r     1 GM_STEP

  ****  BASED and DCB variables  ****

  ****  Scalars and arrays  ****
HexLoc.c.b A Datatyp(siz) R M Lvl/name                 HexLoc.c.b A Datatyp(siz) R M Lvl/name

     0-0-0/w STRC(1696)  r     1 G$BOBCAT                   0-0-0/w STRC(5616)  r     1 G$JIT
     0-0-0/w STRC(224)   r     1 GFR$ACCT(0:0)


   Procedure GMA$CHKSIZE requires 643 words for executable code.
   Procedure GMA$CHKSIZE requires 18 words of local(AUTO) storage.

    No errors detected in file GMA$LGP.:E05TSI    .
PL6.E3A0      #002=GMA$CHKSIZE File=GMA$LGP.:E05TSI                              TUE 07/29/97 22:12 Page:355
          *** CROSS REFERENCE LISTING ***
**     DENOTES     IDENTIFIER DEFINITION
<<                 IDENTIFIER'S VALUE SET
>>                 IDENTIFIER'S VALUE USED
<>                 IDENTIFIER SET AND/OR USED
--                 IDENTIFIER REFERENCED
PL6.E3A0      #002=GMA$CHKSIZE File=GMA$LGP.:E05TSI                              TUE 07/29/97 22:12 Page:356
          MINI XREF LISTING

ACC
      1186**DCL      2142<<ASSIGN   2152>>IF       2152>>IF       2154>>ASSIGN   2154>>ASSIGN   2179>>ASSIGN
      2179>>ASSIGN   2229>>ASSIGN   2229>>ASSIGN
ACCTMEM_SCREECH
      2281**LABEL    2280--GOTO
CHKSZ
      1092**DCL        46--PROC     2263--ENTRY
CHKSZ.ERR
      1113**DCL      2031<<ASSIGN   2077<<ASSIGN   2108<<ASSIGN   2128<<ASSIGN   2155<<ASSIGN   2165<<ASSIGN
      2210<<ASSIGN   2218<<ASSIGN
CHKSZ.FLGS.CHK_ONLY
      1147**DCL      2175>>IF       2195>>IF
CHKSZ.FLGS.NSHUF
      1166**DCL      2067>>IF
CHKSZ.FLGS.PARK
      1160**DCL      2105>>IF       2207>>IF
CHKSZ.FLGS.REQ_ALL
      1154**DCL      2103>>IF       2177>>IF       2199>>IF
CHKSZ.FLGS.STEP
      1172**DCL      2054>>IF       2197>>IF
CHKSZ.SIZE
      1093**DCL      2029>>ASSIGN   2238<<ASSIGN   2257<<ASSIGN   2269>>ASSIGN
E$ACCT_MEMLIMIT
      1838**DCL      2155>>ASSIGN
E$BRKCTY
      1791**DCL      2218>>ASSIGN
E$MEMLIMIT
      1744**DCL      2128>>ASSIGN
E$MODE_MEMLIMIT
      1885**DCL      2165>>ASSIGN
E$PHYS_MEMLIMIT
      1932**DCL      2077>>ASSIGN   2108>>ASSIGN   2210>>ASSIGN
PL6.E3A0      #002=GMA$CHKSIZE File=GMA$LGP.:E05TSI                              TUE 07/29/97 22:12 Page:357
ERR_FOR_NOW
      2209**LABEL    2214--GOTO
G$BOBCAT.ACCT_RES$
      1198**DCL      2141>>ASSIGN   2270>>ASSIGN
G$BOBCAT$
      1697**DCL      1194--IMP-PTR  2141>>ASSIGN   2270>>ASSIGN
G$JIT.CQPC
      1413**DCL      2042>>ASSIGN
G$JIT.ERRLOG
      1563**DCL      1566--REDEF
G$JIT.GFR_ACCT
      1569**DCL      2139>>IF       2142>>ASSIGN   2267>>IF       2279>>IF       2281>>ASSIGN   2281>>ASSIGN
G$JIT.JSUNIT
      1302**DCL      1303--REDEF
G$JIT.MAXMEM
      1412**DCL      2125>>IF       2127>>ASSIGN
G$JIT.MCLS
      1301**DCL      1301--REDEF
G$JIT.MMFLGS.FREE_PPGS
      1411**DCL      2120>>IF
G$JIT.MODE
      1290**DCL      2059>>IF       2143>>ASSIGN   2283>>IF       2288>>ASSIGN   2288>>ASSIGN
G$JIT.NSPC
      1410**DCL      2042>>ASSIGN
G$JIT.PCC
      1409**DCL      2042>>ASSIGN
G$JIT.PCD
      1407**DCL      2042>>ASSIGN
G$JIT.PCDDS
      1409**DCL      2042>>ASSIGN
G$JIT.PCDS
      1409**DCL      2042>>ASSIGN
G$JIT.PCL
      1408**DCL      2042>>ASSIGN
G$JIT.PCP
      1408**DCL      2064>>ASSIGN   2121>>ASSIGN
PL6.E3A0      #002=GMA$CHKSIZE File=GMA$LGP.:E05TSI                              TUE 07/29/97 22:12 Page:358
G$JIT.PCROS
      1410**DCL      2042>>ASSIGN
G$JIT.PEAK_MEM
      1300**DCL      2252>>IF       2253<<ASSIGN
G$JIT.PRIV.ACTIVE
      1433**DCL      2123>>IF
G$JIT.PSEUDOPGS
      1412**DCL      2042>>ASSIGN
G$JIT.TMRZ
      1570**DCL      1571--REDEF
G$JIT.USER_EXTIME
      1294**DCL      1295--REDEF
G$JIT.USER_MEMTIME
      1297**DCL      1297--REDEF
G$JIT.USER_SVTIME
      1296**DCL      1296--REDEF
G$JIT$
      1696**DCL      1233--IMP-PTR  2042>>ASSIGN   2042>>ASSIGN   2042>>ASSIGN   2042>>ASSIGN   2042>>ASSIGN
      2042>>ASSIGN   2042>>ASSIGN   2042>>ASSIGN   2042>>ASSIGN   2059>>IF       2064>>ASSIGN   2120>>IF
      2121>>ASSIGN   2123>>IF       2125>>IF       2127>>ASSIGN   2139>>IF       2142>>ASSIGN   2143>>ASSIGN
      2252>>IF       2253>>ASSIGN   2267>>IF       2279>>IF       2281>>ASSIGN   2281>>ASSIGN   2283>>IF
      2288>>ASSIGN   2288>>ASSIGN
GFR$ACCT.CUR_MEM
      1216**DCL      2152>>IF       2154>>ASSIGN   2179<<ASSIGN   2179>>ASSIGN   2229<<ASSIGN   2229>>ASSIGN
      2279>>IF       2281<<ASSIGN   2281>>ASSIGN
GFR$ACCT.MAX_MEM
      1216**DCL      2152>>IF       2154>>ASSIGN
GFR_CUR_MEM
      1698**DCL      2162>>IF       2164>>ASSIGN   2180<<ASSIGN   2180>>ASSIGN   2230<<ASSIGN   2230>>ASSIGN
      2283>>IF       2288<<ASSIGN   2288>>ASSIGN
GFR_MAX_MEM
      1699**DCL      2162>>IF       2164>>ASSIGN
GFR_RES_LOCK
      1716**DCL      2149<>CALL     2189<>CALL     2227<>CALL     2236<>CALL     2276<>CALL     2294<>CALL
GHH$LOCK
       876**DCL-ENT  2149--CALL     2227--CALL     2276--CALL
PL6.E3A0      #002=GMA$CHKSIZE File=GMA$LGP.:E05TSI                              TUE 07/29/97 22:12 Page:359
GHH$UNLOCK
       876**DCL-ENT  2189--CALL     2236--CALL     2294--CALL
GHS$REG
      1724**DCL-ENT  2216--CALL
GJS$REL_ALL
      1725**DCL-ENT  2090--CALL
GM@SHUF
      1185**DCL      2035<<ASSIGN   2036<<ASSIGN   2087>>IF       2089>>ASSIGN   2093<<ASSIGN   2094<<ASSIGN
      2101>>IF       2107>>ASSIGN   2205>>DOWHILE  2244<<ASSIGN   2245<<ASSIGN
GMA$LOCATE
      1726**DCL-ENT  2069--CALL
GM_ASHUF
      1701**DCL      2074>>IF       2076>>ASSIGN
GM_REG_4_MEM
      1191**DCL      2105>>IF       2214>>IF
GM_SHUF
      1700**DCL      2034>>IF       2035>>ASSIGN   2092>>IF       2093>>ASSIGN   2243>>IF       2244>>ASSIGN
GM_STEP
      1702**DCL      2034>>IF       2035>>ASSIGN   2092>>IF       2093>>ASSIGN   2243>>IF       2244>>ASSIGN
GONE_NEGATIVE
      1993**DCL      2286<>CALL
MODE
      1187**DCL      2143<<ASSIGN   2162>>IF       2162>>IF       2164>>ASSIGN   2164>>ASSIGN   2180>>ASSIGN
      2180>>ASSIGN   2230>>ASSIGN   2230>>ASSIGN
PSIZE
      1183**DCL      2061<<ASSIGN   2064<<ASSIGN   2074>>IF       2076>>ASSIGN   2089<<ASSIGN   2090<>CALL
PSIZE_CHK
      2067**LABEL    2069--CALLALT
REMOVE
      2218**LABEL    2211--GOTO
RSIZE
      1184**DCL      2030<<ASSIGN   2177>>IF       2199>>IF       2258>>IF
SCREECH
      1727**DCL-ENT  2286--CALL
SIZE
      1181**DCL      2029<<ASSIGN   2030>>ASSIGN   2069<>CALL     2074>>IF       2076<<ASSIGN   2087>>IF
PL6.E3A0      #002=GMA$CHKSIZE File=GMA$LGP.:E05TSI                              TUE 07/29/97 22:12 Page:360
      2089>>ASSIGN   2101>>IF       2107<<ASSIGN   2125>>IF       2127<<ASSIGN   2152>>IF       2154<<ASSIGN
      2162>>IF       2164<<ASSIGN   2177>>IF       2179>>ASSIGN   2180>>ASSIGN   2199>>IF       2205>>DOWHILE
      2229>>ASSIGN   2230>>ASSIGN   2252>>IF       2253>>ASSIGN   2257>>ASSIGN   2258>>IF       2269<<ASSIGN
      2279>>IF       2281>>ASSIGN   2283>>IF       2288>>ASSIGN
SKIP_PSIZE_CHK
      2101**LABEL    2055--GOTO     2070--GOTO
T$
      1189**DCL      1212--IMP-PTR  2141<<ASSIGN   2152>>IF       2152>>IF       2154>>ASSIGN   2154>>ASSIGN
      2179>>ASSIGN   2179>>ASSIGN   2229>>ASSIGN   2229>>ASSIGN   2270<<ASSIGN   2279>>IF       2281>>ASSIGN
      2281>>ASSIGN
TABLE_UPDATED
      1188**DCL      2032<<ASSIGN   2181<<ASSIGN   2220>>IF
USIZE
      1182**DCL      2042<<ASSIGN   2064>>ASSIGN   2121<<ASSIGN   2121>>ASSIGN   2125>>IF       2127>>ASSIGN
      2252>>IF       2253>>ASSIGN
