VERSION E05

PL6.E3A0      #001=GM_DATA_D File=GM_DATA_D.:E05TSI                              TUE 07/29/97 22:11 Page:1
        1        1        /*M* GM_DATA_D - Constant and static data for memory management. */
        2        2        /*T***********************************************************/
        3        3        /*T*                                                         */
        4        4        /*T* Copyright (c) Bull HN Information Systems Inc., 1997    */
        5        5        /*T*                                                         */
        6        6        /*T***********************************************************/
        7        7        /*X* DMC,PLM=6,IND=0,IDT=2,SDI=2,CTI=0,ENU=0,AND,DCI=4,CSU=2,ECU=4,THI=0,DTI=0,STI=2
                 7        ,IAD=0,PRB */
        8        8        /*P*
        9        9             NAME: GM_DATA_D
       10       10             PURPOSE:
       11       11                   This module contains all of the constant and static data used by
       12       12                   memory management.
       13       13             DESCRIPTION:
       14       14                   This is a data only module. It contains definitions of statistical
       15       15                   and control data used by LCP-6 memory management. Items
       16       16                   initialized to 32768 and ADDR (ERASE) are initialized
       17       17                   elsewhere.
       18       18             REFERENCE:
       19       19                   "Memory Management for LCP-6" AF Section 26.2 #0708A-0.
       20       20        */
       21       21        GM_DATA_D: PROC;
       22       22
       23       23        /* Includes */
       24       24
       25       25        %INCLUDE GH_GATE_M;
       26       66        %INCLUDE GM_MACRO_M;
       27      548
       28      549        /* EQUs and SUBs */
       29      550
       30      551        %GM_EQUS;
       31      554
       32      555
       33      556
       34      557        %GATE (FPTN=GM_MEATLOCK,STCLASS="STATIC SYMDEF");
       35      576        /*B* GM_MEATLOCK - Gate that controls MEAT lists and subsidiary data.
       36      577         */
PL6.E3A0      #001=GM_DATA_D File=GM_DATA_D.:E05TSI                              TUE 07/29/97 22:11 Page:2
       37      578        %GM_MEAT (FPTN=GM_MEAT_SHUF,ARRAY=YES,STCLASS=STATIC SYMDEF);
       38      610        /*B* GM_MEAT_SHUF - Memory extent access table (MEAT), for shufflable
       39      611                            memory pool. Locked by GM_MEATLOCK.
       40      612         */
       41      613        %GM_MEAT (FPTN=GM_MEAT_NSHF,ARRAY=YES,STCLASS=STATIC SYMDEF);
       42      645        /*B* GM_MEAT_NSHF - Memory extent access table (MEAT), for non-shufflable
       43      646                            memory pool. Locked by GM_MEATLOCK.
       44      647         */
       45      648
       46      649        %LIST;
       47      650        %GM_DATA_TBL(TYPE=DATA);
               651        %LSET LISTDIR='0'B;
               665    1         DCL 1 GM_MEM_LOW UBIN(16) CALIGNED INIT(0) STATIC SYMDEF;
               666                            /*K* MEM_LOW -UBIN WORD.
               667                            Contains the page number of the first page available
               668                            for user allocation.  Setup by BIGFOOT.
               669                            */
               670    1         DCL 1 GM_MEM_HI UBIN(16) CALIGNED INIT(0) STATIC SYMDEF;
               671                            /*K* MEM_HI - UBIN WORD.
               672                            Contains the page number of the last page available
               673                            for user allocation.  Set up by BIGFOOT.
               674                            */
               675    1         DCL 1 GM_SHUF_HI UBIN(16) CALIGNED INIT(0) STATIC SYMDEF;
               676                            /*K* SHUF_HI -UBIN WORD.
               677                            Contains the page number of the last page in the
               678                            standard memory pool.
               679                            This is the boundary between shufflable and
               680                            non-shufflable memory.
               681                            The boundary is moved downward as I/O pages are
               682                            allocated, and, when possible, moved back up as
               683                            the I/O pages are returned to the system.
               684                            */
               685    1         DCL 1 GM_ASHUF UBIN(16) CALIGNED INIT(0) STATIC SYMDEF;
               686                            /*K* ASHUF - UBIN WORD.
               687                            Contains the total number of pages in the user
               688                            memory pool.  This value is initialized by
               689                            BIGFOOT to the number of pages remaining after
PL6.E3A0      #001=GM_DATA_D File=GM_DATA_D.:E05TSI                              TUE 07/29/97 22:11 Page:3
               690                            all monitor pages have been allocated.  This value
               691                            is decremented whenever a handler allocates memory
               692                            from the memory pool on the assumption that
               693                            handlers are a class of users that will not normally
               694                            exit.  Thus GM_ASHUF represents the maximum user size.
               695                            */
               696    1         DCL 1 GM_SHUF UBIN(16) CALIGNED INIT(0) STATIC SYMDEF;
               697                            /*K* SHUF - UBIN WORD.
               698                            Contains the number of pages currently available
               699                            for user allocation that are in the standard
               700                            memory pool; i.e. all the unallocated pages
               701                            below GM_SHUF_HI.
               702                            */
               703    1         DCL 1 GM_NSHF UBIN(16) CALIGNED INIT(0) STATIC SYMDEF;
               704                            /*K* NSHF - UBIN WORD.
               705                            Contains the number of pages currently available
               706                            in the fragmented I/O memory pool; i.e. the
               707                            number of unallocated pages above GM_SHUF_HI.
               708                            */
               709    1         DCL 1 GM_XSHUF UBIN(16) CALIGNED INIT(0) STATIC SYMDEF;
               710                            /*K* XSHUF - UBIN WORD.
               711                            Contains the number of non-shufflable extents in
               712                            the shufflable memory pool.  These extents are
               713                            allocated by calls to GMA$GETPS.  The pages are
               714                            marked as shuffable by calling GMA$PS2USR or
               715                            GMA$RELPS.
               716                            */
               717    1         DCL 1 GM_SHUF_COUNT UBIN(16) CALIGNED INIT(0) STATIC SYMDEF;
               718                            /*K* SHUF_COUNT# - UBIN WORD.
               719                            Contains a count of the number of times the system
               720                            had to relocate allocated user memory to get the
               721                            pages to satisfy a user memory request.
               722                            */
               723    1         DCL 1 GM_SHUF_SEGS# UBIN(16) CALIGNED INIT(0) STATIC SYMDEF;
               724                            /*K* SHUF_SEGS# - UBIN WORD.
               725                            Contains a count of the number segments that have
               726                            been relocated to get the pages to satisfy a
PL6.E3A0      #001=GM_DATA_D File=GM_DATA_D.:E05TSI                              TUE 07/29/97 22:11 Page:4
               727                            user memory request.
               728                            */
               729    1         DCL 1 GM_CHK_PPUT UBIN(16) CALIGNED INIT(0) STATIC SYMDEF;
               730                            /*K* CHK_PPUT - UBIN WORD.
               731                            Contains a value to indicate if the PPUT chain is
               732                            to be checked for inconsistency after every memory
               733                            allocation and deallocation.  Any non-zero value
               734                            indicates PPUT is to be checked.
               735                            */
               736    1         DCL 1 GM_HSHUF UBIN(16) CALIGNED INIT(0) STATIC SYMDEF;
               737                            /*K* HSHUF - UBIN WORD.
               738                            Contains the number of pages in the memory
               739                            pool currently in use by handlers.
               740                            */
               741    1         DCL 1 GM_STEP UBIN(16) CALIGNED INIT(0) STATIC SYMDEF;
               742                            /*K* STEP - UBIN WORD.
               743                            Contains a count of the number of pages that the
               744                            step logic has reserved from GM_SHUF.
               745                            */
               746    1         DCL 1 GM_SHUF_MIN UBIN(16) CALIGNED INIT(0) STATIC SYMDEF;
               747                            /*K* SHUF_MIN - UBIN WORD.
               748                            Contains the lowest value that GM_SHUF has ever
               749                            reached.
               750                            */
               751    1         DCL 1 GM_NSHF_CURR UBIN(16) CALIGNED INIT(0) STATIC SYMDEF;
               752                            /*K* NSHF_CURR - UBIN WORD.
               753                            Contains a count of the number of pages currently
               754                            allocated as I/O memory.
               755                            */
               756    1         DCL 1 GM_NSHF_PEAK UBIN(16) CALIGNED INIT(0) STATIC SYMDEF;
               757                            /*K* NSHF_PEAK - UBIN WORD.
               758                            Contains the highest number of pages ever
               759                            allocated as I/O memory at any one time.
               760                            */
               761    1         DCL 1 GM_SHUF_TIME UBIN(32) CALIGNED INIT(0) STATIC SYMDEF;
               762                            /*K* SHUF_TIME - UBIN(32).
               763                            Contains the amount of time that the system has
PL6.E3A0      #001=GM_DATA_D File=GM_DATA_D.:E05TSI                              TUE 07/29/97 22:11 Page:5
               764                            spent in the shuffle logic; maintained in clock ticks.
               765                            */
       48      767        %PLIST;
       49      768
       50      769    1   DCL GM_UHJIT_PGSZ UBIN STATIC SYMDEF INIT(0);
       51      770        /*B* GM_UHJIT_PGSZ - Number of pages required for the user's initial
       52      771                             HJIT.  Setup by Bigfoot.
       53      772        */
       54      773    1   DCL GM_HHJIT_PGSZ UBIN STATIC SYMDEF INIT(0);
       55      774        /*B* GM_HHJIT_PGSZ - Number of pages required for a handler's HJIT.
       56      775                             Setup by Bigfoot.
       57      776        */
       58      777    1   DCL GM_ROS_PGSZ UBIN STATIC SYMDEF INIT(0);
       59      778        /*B* GM_ROS_PGSZ - Number of pages required for a user's initial
       60      779                           Read Only Segment. Setup by Bigfoot.
       61      780        */
       62      781    1   DCL GM_TSTKU_PGSZ UBIN STATIC SYMDEF INIT(7);
       63      782        /*B* GM_TSTKU_PGSZ - Number of pages required for a user's initial TSTACK.
       64      783        */
       65      784    1   DCL GM_INIT_PGSZ UBIN STATIC SYMDEF INIT(0);
       66      785        /*B* GM_INIT_PGSZ - Total number of pages required to start
       67      786                            a new user. Setup by Bigfoot.
       68      787        */
       69      788
       70      789    1   END GM_DATA_D;

PL6.E3A0      #001=GM_DATA_D File=GM_DATA_D.:E05TSI                              TUE 07/29/97 22:11 Page:6
--  Include file information  --

   GM_MACRO_M.:E05TOU  is referenced.
   GH_GATE_M.:E05TOU  cannot be made into a system file and is referenced.
   G_LCP6_E.:E05TOU  was found in the system file and is never referenced.
   GT_LCP6_M.:E05TOU  was found in the system file and is never referenced.
   KI_CP6.:E05TOU  was found in the system file and is never referenced.
   GF_LCP6_M.:E05TOU  was found in the system file and is never referenced.
   GM_LCP6_M.:E05TOU  was found in the system file and is never referenced.
   GU_LCP6_M.:E05TOU  was found in the system file and is never referenced.
   GJ_LCP6_M.:E05TOU  was found in the system file and is never referenced.
   GH_LCP6_M.:E05TOU  was found in the system file and is never referenced.
      No diagnostics issued in procedure GM_DATA_D.

   No code generated for procedure GM_DATA_D .
   Procedure GM_DATA_D requires 4 words of local(AUTO) storage.

    No errors detected in file GM_DATA_D.:E05TSI    .

PL6.E3A0      #001=GM_DATA_D File=GM_DATA_D.:E05TSI                              TUE 07/29/97 22:11 Page:7

 Object Unit name= GM_DATA_D                                  File name= GM_DATA_D.:E05TOU
 UTS= JUL 29 '97 22:11:57.48 TUE                              Compiler= PL-6/E31         Sev=      00
 SharedLib= :SHARED_LCP6_SYSTEM                               Alt SharedLib=


    ****  Control sections  ****

 Sect   Type Bound  Init  Size HexSiz  Section name
    0   Data  even  none   121     79  GM_DATA_D
    1   Proc  even  none     0      0  GM_DATA_D

    ****  Entry defs  ****

                              Check   Calling
                             calling  sequence
  Sect HexLoc Primary Altret sequence   type   Parms  Name
     1      0   yes            yes     ~proc       0  GM_DATA_D

  ****  Data defs  ****

 Sect HexLoc  Name                           Sect HexLoc  Name
    0      0  GM_MEATLOCK                        0      3  GM_MEAT_SHUF
    0     33  GM_MEAT_NSHF                       0     63  GM_MEM_LOW
    0     64  GM_MEM_HI                          0     65  GM_SHUF_HI
    0     66  GM_ASHUF                           0     67  GM_SHUF
    0     68  GM_NSHF                            0     69  GM_XSHUF
    0     6A  GM_SHUF_COUNT                      0     6B  GM_SHUF_SEGS#
    0     6C  GM_CHK_PPUT                        0     6D  GM_HSHUF
    0     6E  GM_STEP                            0     6F  GM_SHUF_MIN
    0     70  GM_NSHF_CURR                       0     71  GM_NSHF_PEAK
    0     72  GM_SHUF_TIME                       0     74  GM_UHJIT_PGSZ
    0     75  GM_HHJIT_PGSZ                      0     76  GM_ROS_PGSZ
    0     77  GM_TSTKU_PGSZ                      0     78  GM_INIT_PGSZ
PL6.E3A0      #001=GM_DATA_D File=GM_DATA_D.:E05TSI                              TUE 07/29/97 22:11 Page:8

  ****  Data refs  ****

  Flags:  r = read only, s = secondary
Flgs Name                             Flgs Name                             Flgs Name
r    G$ROS$
PL6.E3A0      #001=GM_DATA_D File=GM_DATA_D.:E05TSI                              TUE 07/29/97 22:11 Page:9

        1        1        /*M* GM_DATA_D - Constant and static data for memory management. */
        2        2        /*T***********************************************************/
        3        3        /*T*                                                         */
        4        4        /*T* Copyright (c) Bull HN Information Systems Inc., 1997    */
        5        5        /*T*                                                         */
        6        6        /*T***********************************************************/
        7        7       /*X* DMC,PLM=6,IND=0,IDT=2,SDI=2,CTI=0,ENU=0,AND,DCI=4,CSU=2,ECU=4,THI=0,DTI=0,STI=2
                 7        ,IAD=0,PRB */
        8        8        /*P*
        9        9             NAME: GM_DATA_D
       10       10             PURPOSE:
       11       11                   This module contains all of the constant and static data used by
       12       12                   memory management.
       13       13             DESCRIPTION:
       14       14                   This is a data only module. It contains definitions of statistical
       15       15                   and control data used by LCP-6 memory management. Items
       16       16                   initialized to 32768 and ADDR (ERASE) are initialized
       17       17                   elsewhere.
       18       18             REFERENCE:
       19       19                   "Memory Management for LCP-6" AF Section 26.2 #0708A-0.
       20       20        */
       21       21        GM_DATA_D: PROC;
       22       22
       23       23        /* Includes */
       24       24
       25       25        %INCLUDE GH_GATE_M;
       26       66        %INCLUDE GM_MACRO_M;
       27      548
       28      549        /* EQUs and SUBs */
       29      550
       30      551        %GM_EQUS;
       31      554
       32      555
       33      556
       34      557        %GATE (FPTN=GM_MEATLOCK,STCLASS="STATIC SYMDEF");
       35      576        /*B* GM_MEATLOCK - Gate that controls MEAT lists and subsidiary data.
       36      577         */
PL6.E3A0      #001=GM_DATA_D File=GM_DATA_D.:E05TSI                              TUE 07/29/97 22:11 Page:10
       37      578        %GM_MEAT (FPTN=GM_MEAT_SHUF,ARRAY=YES,STCLASS=STATIC SYMDEF);
       38      610        /*B* GM_MEAT_SHUF - Memory extent access table (MEAT), for shufflable
       39      611                            memory pool. Locked by GM_MEATLOCK.
       40      612         */
       41      613        %GM_MEAT (FPTN=GM_MEAT_NSHF,ARRAY=YES,STCLASS=STATIC SYMDEF);
       42      645        /*B* GM_MEAT_NSHF - Memory extent access table (MEAT), for non-shufflable
       43      646                            memory pool. Locked by GM_MEATLOCK.
       44      647         */
       45      648
       46      649        %LIST;
       47      650        %GM_DATA_TBL(TYPE=DATA);
               651        %LSET LISTDIR='0'B;
               665    1         DCL 1 GM_MEM_LOW UBIN(16) CALIGNED INIT(0) STATIC SYMDEF;
               666                            /*K* MEM_LOW -UBIN WORD.
               667                            Contains the page number of the first page available
               668                            for user allocation.  Setup by BIGFOOT.
               669                            */
               670    1         DCL 1 GM_MEM_HI UBIN(16) CALIGNED INIT(0) STATIC SYMDEF;
               671                            /*K* MEM_HI - UBIN WORD.
               672                            Contains the page number of the last page available
               673                            for user allocation.  Set up by BIGFOOT.
               674                            */
               675    1         DCL 1 GM_SHUF_HI UBIN(16) CALIGNED INIT(0) STATIC SYMDEF;
               676                            /*K* SHUF_HI -UBIN WORD.
               677                            Contains the page number of the last page in the
               678                            standard memory pool.
               679                            This is the boundary between shufflable and
               680                            non-shufflable memory.
               681                            The boundary is moved downward as I/O pages are
               682                            allocated, and, when possible, moved back up as
               683                            the I/O pages are returned to the system.
               684                            */
               685    1         DCL 1 GM_ASHUF UBIN(16) CALIGNED INIT(0) STATIC SYMDEF;
               686                            /*K* ASHUF - UBIN WORD.
               687                            Contains the total number of pages in the user
               688                            memory pool.  This value is initialized by
               689                            BIGFOOT to the number of pages remaining after
PL6.E3A0      #001=GM_DATA_D File=GM_DATA_D.:E05TSI                              TUE 07/29/97 22:11 Page:11
               690                            all monitor pages have been allocated.  This value
               691                            is decremented whenever a handler allocates memory
               692                            from the memory pool on the assumption that
               693                            handlers are a class of users that will not normally
               694                            exit.  Thus GM_ASHUF represents the maximum user size.
               695                            */
               696    1         DCL 1 GM_SHUF UBIN(16) CALIGNED INIT(0) STATIC SYMDEF;
               697                            /*K* SHUF - UBIN WORD.
               698                            Contains the number of pages currently available
               699                            for user allocation that are in the standard
               700                            memory pool; i.e. all the unallocated pages
               701                            below GM_SHUF_HI.
               702                            */
               703    1         DCL 1 GM_NSHF UBIN(16) CALIGNED INIT(0) STATIC SYMDEF;
               704                            /*K* NSHF - UBIN WORD.
               705                            Contains the number of pages currently available
               706                            in the fragmented I/O memory pool; i.e. the
               707                            number of unallocated pages above GM_SHUF_HI.
               708                            */
               709    1         DCL 1 GM_XSHUF UBIN(16) CALIGNED INIT(0) STATIC SYMDEF;
               710                            /*K* XSHUF - UBIN WORD.
               711                            Contains the number of non-shufflable extents in
               712                            the shufflable memory pool.  These extents are
               713                            allocated by calls to GMA$GETPS.  The pages are
               714                            marked as shuffable by calling GMA$PS2USR or
               715                            GMA$RELPS.
               716                            */
               717    1         DCL 1 GM_SHUF_COUNT UBIN(16) CALIGNED INIT(0) STATIC SYMDEF;
               718                            /*K* SHUF_COUNT# - UBIN WORD.
               719                            Contains a count of the number of times the system
               720                            had to relocate allocated user memory to get the
               721                            pages to satisfy a user memory request.
               722                            */
               723    1         DCL 1 GM_SHUF_SEGS# UBIN(16) CALIGNED INIT(0) STATIC SYMDEF;
               724                            /*K* SHUF_SEGS# - UBIN WORD.
               725                            Contains a count of the number segments that have
               726                            been relocated to get the pages to satisfy a
PL6.E3A0      #001=GM_DATA_D File=GM_DATA_D.:E05TSI                              TUE 07/29/97 22:11 Page:12
               727                            user memory request.
               728                            */
               729    1         DCL 1 GM_CHK_PPUT UBIN(16) CALIGNED INIT(0) STATIC SYMDEF;
               730                            /*K* CHK_PPUT - UBIN WORD.
               731                            Contains a value to indicate if the PPUT chain is
               732                            to be checked for inconsistency after every memory
               733                            allocation and deallocation.  Any non-zero value
               734                            indicates PPUT is to be checked.
               735                            */
               736    1         DCL 1 GM_HSHUF UBIN(16) CALIGNED INIT(0) STATIC SYMDEF;
               737                            /*K* HSHUF - UBIN WORD.
               738                            Contains the number of pages in the memory
               739                            pool currently in use by handlers.
               740                            */
               741    1         DCL 1 GM_STEP UBIN(16) CALIGNED INIT(0) STATIC SYMDEF;
               742                            /*K* STEP - UBIN WORD.
               743                            Contains a count of the number of pages that the
               744                            step logic has reserved from GM_SHUF.
               745                            */
               746    1         DCL 1 GM_SHUF_MIN UBIN(16) CALIGNED INIT(0) STATIC SYMDEF;
               747                            /*K* SHUF_MIN - UBIN WORD.
               748                            Contains the lowest value that GM_SHUF has ever
               749                            reached.
               750                            */
               751    1         DCL 1 GM_NSHF_CURR UBIN(16) CALIGNED INIT(0) STATIC SYMDEF;
               752                            /*K* NSHF_CURR - UBIN WORD.
               753                            Contains a count of the number of pages currently
               754                            allocated as I/O memory.
               755                            */
               756    1         DCL 1 GM_NSHF_PEAK UBIN(16) CALIGNED INIT(0) STATIC SYMDEF;
               757                            /*K* NSHF_PEAK - UBIN WORD.
               758                            Contains the highest number of pages ever
               759                            allocated as I/O memory at any one time.
               760                            */
               761    1         DCL 1 GM_SHUF_TIME UBIN(32) CALIGNED INIT(0) STATIC SYMDEF;
               762                            /*K* SHUF_TIME - UBIN(32).
               763                            Contains the amount of time that the system has
PL6.E3A0      #001=GM_DATA_D File=GM_DATA_D.:E05TSI                              TUE 07/29/97 22:11 Page:13
               764                            spent in the shuffle logic; maintained in clock ticks.
               765                            */
       48      767        %PLIST;
       49      768
       50      769    1   DCL GM_UHJIT_PGSZ UBIN STATIC SYMDEF INIT(0);
       51      770        /*B* GM_UHJIT_PGSZ - Number of pages required for the user's initial
       52      771                             HJIT.  Setup by Bigfoot.
       53      772        */
       54      773    1   DCL GM_HHJIT_PGSZ UBIN STATIC SYMDEF INIT(0);
       55      774        /*B* GM_HHJIT_PGSZ - Number of pages required for a handler's HJIT.
       56      775                             Setup by Bigfoot.
       57      776        */
       58      777    1   DCL GM_ROS_PGSZ UBIN STATIC SYMDEF INIT(0);
       59      778        /*B* GM_ROS_PGSZ - Number of pages required for a user's initial
       60      779                           Read Only Segment. Setup by Bigfoot.
       61      780        */
       62      781    1   DCL GM_TSTKU_PGSZ UBIN STATIC SYMDEF INIT(7);
       63      782        /*B* GM_TSTKU_PGSZ - Number of pages required for a user's initial TSTACK.
       64      783        */
       65      784    1   DCL GM_INIT_PGSZ UBIN STATIC SYMDEF INIT(0);
       66      785        /*B* GM_INIT_PGSZ - Total number of pages required to start
       67      786                            a new user. Setup by Bigfoot.
       68      787        */
       69      788
       70      789    1   END GM_DATA_D;

PL6.E3A0      #001=GM_DATA_D File=GM_DATA_D.:E05TSI                              TUE 07/29/97 22:11 Page:14
--  Include file information  --

   GM_MACRO_M.:E05TOU  is referenced.
   GH_GATE_M.:E05TOU  cannot be made into a system file and is referenced.
   G_LCP6_E.:E05TOU  was found in the system file and is never referenced.
   GT_LCP6_M.:E05TOU  was found in the system file and is never referenced.
   KI_CP6.:E05TOU  was found in the system file and is never referenced.
   GF_LCP6_M.:E05TOU  was found in the system file and is never referenced.
   GM_LCP6_M.:E05TOU  was found in the system file and is never referenced.
   GU_LCP6_M.:E05TOU  was found in the system file and is never referenced.
   GJ_LCP6_M.:E05TOU  was found in the system file and is never referenced.
   GH_LCP6_M.:E05TOU  was found in the system file and is never referenced.
      No diagnostics issued in procedure GM_DATA_D.
PL6.E3A0      #001=GM_DATA_D File=GM_DATA_D.:E05TSI                              TUE 07/29/97 22:11 Page:15

 **** Variables and constants ****


   No code generated for procedure GM_DATA_D .
   Procedure GM_DATA_D requires 4 words of local(AUTO) storage.

    No errors detected in file GM_DATA_D.:E05TSI    .
PL6.E3A0      #001=GM_DATA_D File=GM_DATA_D.:E05TSI                              TUE 07/29/97 22:11 Page:16
          *** CROSS REFERENCE LISTING ***
**     DENOTES     IDENTIFIER DEFINITION
<<                 IDENTIFIER'S VALUE SET
>>                 IDENTIFIER'S VALUE USED
<>                 IDENTIFIER SET AND/OR USED
--                 IDENTIFIER REFERENCED
PL6.E3A0      #001=GM_DATA_D File=GM_DATA_D.:E05TSI                              TUE 07/29/97 22:11 Page:17
          MINI XREF LISTING

