VERSION E05

PL6.E3A0      #001=GTM$MCL File=GTM$MCL.:E05TSI                                  TUE 07/29/97 22:14 Page:1
        1        1        /*M* GTM$MCL Handler for the GT Monitor Services                      */
        2        2        /*T***********************************************************/
        3        3        /*T*                                                         */
        4        4        /*T* Copyright (c) Bull HN Information Systems Inc., 1997    */
        5        5        /*T*                                                         */
        6        6        /*T***********************************************************/
        7        7
        8        8        GTM$MCL: PROC(GTM_PARAMS);
        9        9
       10       10        %INCLUDE GU_MACROS_M;
       11      169        %INCLUDE EL_ERRORS_C;
       12      180        %INCLUDE KL_MACRO_C;
       13     3532        %INCLUDE KL_AFCN_C;
       14     3633        %INCLUDE LCP_6;
       15     3824
       16     3825        /* Auto */
       17     3826        %KL_SYSLOG (FPTN=SYSLOG,LAST=",",STCLASS=AUTO);
       18     3850        %KL_ERRLOG (FPTN=ERRLOG,LVL=2,LAST=",",STCLASS=AUTO);
       19     3958    1         2 OPT_DATA CHAR(100);
       20     3959    1   DCL SIZE UBIN;
       21     3960
       22     3961        /* Based */
       23     3962    1   DCL OPT_DATA CHAR(SIZE) BASED;
       24     3963        %FPT_WRSYSLOG(FPTN=FPT$WRSYSLOG,VECTORS=NO,STCLASS=BASED);
       25     4058
       26     4059        /* Constant */
       27     4060        %VLP_ERRCODE (FPTN=BSY,FCG=GT,MID=M,MON='1'B,ERR#=%E$SLBUSY,STCLASS=CONSTANT,SEV=
              4060            G_SEV_CONT#);
       28     4106        /* Entry definitions */
       29     4107    1   DCL KNB$WRITE ENTRY(4) ALTRET;
       30     4108    1   DCL GHI$UTS ENTRY(1);
       31     4109
       32     4110        %GUD_HAND_PARAMS(FPTN=GTM_PARAMS);
       33     4186
       34     4187    1           SYSLOG = '0'B;
       35     4188    1           SYSLOG.FCN = IGA_SYSLOG;
       36     4189    1           SYSLOG.FILENUM = GTM_PARAMS.PTRS.PAR1$->FPT$WRSYSLOG.V.FILENUM;
PL6.E3A0      #001=GTM$MCL File=GTM$MCL.:E05TSI                                  TUE 07/29/97 22:14 Page:2
       37     4190    1           SIZE = 0;
       38     4191    1           IF SYSLOG.FILENUM = 1
       39     4192    2           THEN DO;
       40     4193    2              SYSLOG.ERRLOG.VALUES = GTM_PARAMS.PTRS.PAR1$->FPT$WRSYSLOG.V.VALUES;
       41     4194    2              SYSLOG.ERRLOG.ERRCODE = GTM_PARAMS.PTRS.PAR1$->FPT$WRSYSLOG.V.ERRCODE;
       42     4195    2              CALL GHI$UTS(SYSLOG.ERRLOG.UTS);
       43     4196    2              IF GTM_PARAMS.PTRS.PAR2$ = ADDR(NIL)
       44     4197    3              THEN DO;
       45     4198    3                 SIZE = GTM_PARAMS.BND.PAR2 + 1;
       46     4199    3                 SYSLOG.ERRLOG.DATA_SIZE = SIZE;
       47     4200    3                 SYSLOG.OPT_DATA = GTM_PARAMS.PTRS.PAR2$->OPT_DATA;
       48     4201    3                 END;
       49     4202    2              SIZE = SIZE + SIZEC(SYSLOG) - SIZEC(SYSLOG.OPT_DATA);
       50     4203    2              END;
       51     4204    2           ELSE DO;
       52     4205    2              IF GTM_PARAMS.PTRS.PAR2$ ~= ADDR(NIL)
       53     4206    3              THEN DO;
       54     4207    3                 SIZE = GTM_PARAMS.BND.PAR2 + 1;
       55     4208    3                 ADDR(SYSLOG.ERRLOG)->OPT_DATA = GTM_PARAMS.PTRS.PAR2$->OPT_DATA;
       56     4209    3                 END;
       57     4210    2              SIZE = SIZE + SIZEC(SYSLOG) - SIZEC(SYSLOG.OPT_DATA) - SIZEC(SYSLOG.
              4210                       ERRLOG);
       58     4211    2              END;
       59     4212    1           CALL KNB$WRITE (ADDR(SYSLOG),SIZE)
       60     4213    2           WHENALTRETURN DO;
       61     4214    2              GTM_PARAMS.ERR = BSY;
       62     4215                  /*E* ERROR: GTM-E$SLBUSY-0
       63     4216                       MESSAGE: Sysloging is currently busy.  Retry later.
       64     4217                   */
       65     4218    2              END;
       66     4219
       67     4220    1         RETURN;
       68     4221    1         END;

PL6.E3A0      #001=GTM$MCL File=GTM$MCL.:E05TSI                                  TUE 07/29/97 22:14 Page:3
--  Include file information  --

   LCP_6.:E05TOU  cannot be made into a system file and is referenced.
   KL_AFCN_C.:E05TOU  is referenced.
   KL_MACRO_C.:E05TOU  is referenced.
   EL_ERRORS_C.:E05TOU  is referenced.
   GU_MACROS_M.:E05TOU  is referenced.
   G_LCP6_E.:E05TOU  was found in the system file and is referenced.
   GT_LCP6_M.:E05TOU  was found in the system file and is referenced.
   KI_CP6.:E05TOU  was found in the system file and is referenced.
   GF_LCP6_M.:E05TOU  was found in the system file and is referenced.
   GM_LCP6_M.:E05TOU  was found in the system file and is referenced.
   GU_LCP6_M.:E05TOU  was found in the system file and is referenced.
   GJ_LCP6_M.:E05TOU  was found in the system file and is referenced.
   GH_LCP6_M.:E05TOU  was found in the system file and is referenced.
      No diagnostics issued in procedure GTM$MCL.

   Procedure GTM$MCL requires 145 words for executable code.
   Procedure GTM$MCL requires 82 words of local(AUTO) storage.

    No errors detected in file GTM$MCL.:E05TSI    .

PL6.E3A0      #001=GTM$MCL File=GTM$MCL.:E05TSI                                  TUE 07/29/97 22:14 Page:4

 Object Unit name= GTM$MCL                                    File name= GTM$MCL.:E05TOU
 UTS= JUL 29 '97 22:14:04.32 TUE                              Compiler= PL-6/E31         Sev=      00
 SharedLib= :SHARED_LCP6_SYSTEM                               Alt SharedLib=


    ****  Control sections  ****

 Sect   Type Bound  Init  Size HexSiz  Section name
    0  RoData even  UTS      2      2  GTM$MCL
    1   Proc  even  none   145     91  GTM$MCL

    ****  Entry defs  ****

                              Check   Calling
                             calling  sequence
  Sect HexLoc Primary Altret sequence   type   Parms  Name
     1      0   yes            yes      Std        1  GTM$MCL

  ****  Entry refs  ****

         Check        Calling
        calling       sequence
Altret sequence SRef   type   Args  Name
         yes           Std       1 GHI$UTS
 yes     yes           Std       4 KNB$WRITE
                       nStd      0 X6A_AUTO_1
                       nStd      0 X6C_ALR
                       nStd      0 X6A_ARET

  ****  Data refs  ****

  Flags:  r = read only, s = secondary
Flgs Name                             Flgs Name                             Flgs Name
r    G$ROS$
PL6.E3A0      #001=GTM$MCL File=GTM$MCL.:E05TSI                                  TUE 07/29/97 22:14 Page:5


        1        1        /*M* GTM$MCL Handler for the GT Monitor Services                      */
        2        2        /*T***********************************************************/
        3        3        /*T*                                                         */
        4        4        /*T* Copyright (c) Bull HN Information Systems Inc., 1997    */
        5        5        /*T*                                                         */
        6        6        /*T***********************************************************/
        7        7
        8        8        GTM$MCL: PROC(GTM_PARAMS);

      8   1 000000  D380 0000 0000  xent GTM$MCL         LNJ,B5   X6A_AUTO_1
          1 000003       0052 0001                       DC       82,1

        9        9
       10       10        %INCLUDE GU_MACROS_M;
       11      169        %INCLUDE EL_ERRORS_C;
       12      180        %INCLUDE KL_MACRO_C;
       13     3532        %INCLUDE KL_AFCN_C;
       14     3633        %INCLUDE LCP_6;
       15     3824
       16     3825        /* Auto */
       17     3826        %KL_SYSLOG (FPTN=SYSLOG,LAST=",",STCLASS=AUTO);
       18     3850        %KL_ERRLOG (FPTN=ERRLOG,LVL=2,LAST=",",STCLASS=AUTO);
       19     3958    1         2 OPT_DATA CHAR(100);
       20     3959    1   DCL SIZE UBIN;
       21     3960
       22     3961        /* Based */
       23     3962    1   DCL OPT_DATA CHAR(SIZE) BASED;
       24     3963        %FPT_WRSYSLOG(FPTN=FPT$WRSYSLOG,VECTORS=NO,STCLASS=BASED);
       25     4058
       26     4059        /* Constant */
       27     4060        %VLP_ERRCODE (FPTN=BSY,FCG=GT,MID=M,MON='1'B,ERR#=%E$SLBUSY,STCLASS=CONSTANT,SEV=
              4060            G_SEV_CONT#);
       28     4106        /* Entry definitions */
       29     4107    1   DCL KNB$WRITE ENTRY(4) ALTRET;
       30     4108    1   DCL GHI$UTS ENTRY(1);
       31     4109
PL6.E3A0      #001=GTM$MCL File=GTM$MCL.:E05TSI                                  TUE 07/29/97 22:14 Page:6
       32     4110        %GUD_HAND_PARAMS(FPTN=GTM_PARAMS);
       33     4186
       34     4187    1           SYSLOG = '0'B;

   4187   1 000005  D870 008A                            LDR,R5   138,IMO
          1 000007  0021                                 ALR      ;
          1 000008       4178 0000                                ALPHANUM('0000'X,IMO,,1),;
          1 00000A       4007 0006                                ALPHANUM(SYSLOG,AUTO,,R5,FILL)

       35     4188    1           SYSLOG.FCN = IGA_SYSLOG;

   4188   1 00000C  6C27                                 LDV,R6   39
          1 00000D  437F                                 CSYNC    s:4188,SPREL
          1 00000E  E7C7 0006                            STH,R6   SYSLOG,AUTO

       36     4189    1           SYSLOG.FILENUM = GTM_PARAMS.PTRS.PAR1$->FPT$WRSYSLOG.V.FILENUM;

   4189   1 000010  ECC7 0004                            LDB,B6   @GTM_PARAMS,AUTO
          1 000012  DCC6 0006                            LDB,B5   6,B6
          1 000014  C845 000E                            LDR,R4   14,B5
          1 000016  CAC7 0007                            SRM,R4,'00FF'X    SYSLOG+1,AUTO
          1 000018       00FF

       37     4190    1           SIZE = 0;

   4190   1 000019  8747 004B                            CL       SIZE,AUTO

       38     4191    1           IF SYSLOG.FILENUM = 1

   4191   1 00001B  C847 0007                            LDR,R4   SYSLOG+1,AUTO
          1 00001D  C570 00FF                            AND,R4   255,IMO
          1 00001F  4D01                                 CMV,R4   1
          1 000020  0981 003A                            BNE      s:4205,PREL

       39     4192    2           THEN DO;

       40     4193    2              SYSLOG.ERRLOG.VALUES = GTM_PARAMS.PTRS.PAR1$->FPT$WRSYSLOG.V.VALUES;
PL6.E3A0      #001=GTM$MCL File=GTM$MCL.:E05TSI                                  TUE 07/29/97 22:14 Page:7

   4193   1 000022  DCC6 0006                            LDB,B5   6,B6
          1 000024  AB85                                 LAB,B2   ,B5
          1 000025  2C14                                 LDV,R2   20
          1 000026  6C08                                 LDV,R6   8
          1 000027  BB87                                 LAB,B3   ,AUTO
          1 000028  3C28                                 LDV,R3   40
          1 000029  0008                                 MMM

       41     4194    2              SYSLOG.ERRLOG.ERRCODE = GTM_PARAMS.PTRS.PAR1$->FPT$WRSYSLOG.V.ERRCODE;

   4194   1 00002A  CCC6 0006                            LDB,B4   6,B6
          1 00002C  8C84                                 LDI      ,B4
          1 00002D  8D47 0008                            SDI      SYSLOG+2,AUTO

       42     4195    2              CALL GHI$UTS(SYSLOG.ERRLOG.UTS);

   4195   1 00002F  CBC7 000A                            LAB,B4   SYSLOG+4,AUTO
          1 000031  CFC7 004C                            STB,B4   SIZE+1,AUTO
          1 000033  BBC7 004C                            LAB,B3   SIZE+1,AUTO
          1 000035  CBF0 0100                            LAB,B4   256,IMO
          1 000037  E380 0000 0000  xent                 LNJ,B6   GHI$UTS
          1 00003A       0001                            DC       s:4196,PREL

       43     4196    2              IF GTM_PARAMS.PTRS.PAR2$ = ADDR(NIL)

   4196   1 00003B  ECC7 0004                            LDB,B6   @GTM_PARAMS,AUTO
          1 00003D  8DC6 0008                            CMN      8,B6
          1 00003F  0981 0014                            BNE      s:4202,PREL

       44     4197    3              THEN DO;

       45     4198    3                 SIZE = GTM_PARAMS.BND.PAR2 + 1;

   4198   1 000041  E846 0027                            LDR,R6   39,B6
          1 000043  6E01                                 ADV,R6   1
          1 000044  EF47 004B                            STR,R6   SIZE,AUTO
PL6.E3A0      #001=GTM$MCL File=GTM$MCL.:E05TSI                                  TUE 07/29/97 22:14 Page:8

       46     4199    3                 SYSLOG.ERRLOG.DATA_SIZE = SIZE;

   4199   1 000046  E7C7 0018                            STH,R6   SYSLOG+18,AUTO

       47     4200    3                 SYSLOG.OPT_DATA = GTM_PARAMS.PTRS.PAR2$->OPT_DATA;

   4200   1 000048  DCC6 0008                            LDB,B5   8,B6
          1 00004A  DFC7 004C                            STB,B5   SIZE+1,AUTO
          1 00004C  AB85                                 LAB,B2   ,B5
          1 00004D  2C00                                 LDV,R2   0
          1 00004E  BB87                                 LAB,B3   ,AUTO
          1 00004F  3C32                                 LDV,R3   50
          1 000050  7C64                                 LDV,R7   100
          1 000051  D380 0000 0000  xent                 LNJ,B5   X6C_ALR

       48     4201    3                 END;

       49     4202    2              SIZE = SIZE + SIZEC(SYSLOG) - SIZEC(SYSLOG.OPT_DATA);

   4202   1 000054  E847 004B                            LDR,R6   SIZE,AUTO
          1 000056  6E26                                 ADV,R6   38
          1 000057  EF47 004B                            STR,R6   SIZE,AUTO

       50     4203    2              END;

   4203   1 000059  0F81 0017                            B        s:4212,PREL

       51     4204    2           ELSE DO;

       52     4205    2              IF GTM_PARAMS.PTRS.PAR2$ ~= ADDR(NIL)

   4205   1 00005B  8DC6 0008                            CMN      8,B6
          1 00005D  0901 000E                            BE       s:4210,PREL

       53     4206    3              THEN DO;

PL6.E3A0      #001=GTM$MCL File=GTM$MCL.:E05TSI                                  TUE 07/29/97 22:14 Page:9
       54     4207    3                 SIZE = GTM_PARAMS.BND.PAR2 + 1;

   4207   1 00005F  B846 0027                            LDR,R3   39,B6
          1 000061  3E01                                 ADV,R3   1
          1 000062  BF47 004B                            STR,R3   SIZE,AUTO

       55     4208    3                 ADDR(SYSLOG.ERRLOG)->OPT_DATA = GTM_PARAMS.PTRS.PAR2$->OPT_DATA;

   4208   1 000064  DCC6 0008                            LDB,B5   8,B6
          1 000066  AB85                                 LAB,B2   ,B5
          1 000067  2C00                                 LDV,R2   0
          1 000068  E853                                 LDR,R6   R3
          1 000069  BB87                                 LAB,B3   ,AUTO
          1 00006A  3C10                                 LDV,R3   16
          1 00006B  0008                                 MMM

       56     4209    3                 END;

       57     4210    2              SIZE = SIZE + SIZEC(SYSLOG) - SIZEC(SYSLOG.OPT_DATA) - SIZEC(SYSLOG.
              4210                       ERRLOG);

   4210   1 00006C  E847 004B                            LDR,R6   SIZE,AUTO
          1 00006E  6E04                                 ADV,R6   4
          1 00006F  EF47 004B                            STR,R6   SIZE,AUTO

       58     4211    2              END;

       59     4212    1           CALL KNB$WRITE (ADDR(SYSLOG),SIZE)

   4212   1 000071  EBC7 0006                            LAB,B6   SYSLOG,AUTO
          1 000073  EFC7 004C                            STB,B6   SIZE+1,AUTO
          1 000075  DBC7 004B                            LAB,B5   SIZE,AUTO
          1 000077  DFC7 0050                            STB,B5   SIZE+5,AUTO
          1 000079  CBC7 004C                            LAB,B4   SIZE+1,AUTO
          1 00007B  CFC7 004E                            STB,B4   SIZE+3,AUTO
          1 00007D  BBC7 004E                            LAB,B3   SIZE+3,AUTO
          1 00007F  CBF0 0200                            LAB,B4   512,IMO
PL6.E3A0      #001=GTM$MCL File=GTM$MCL.:E05TSI                                  TUE 07/29/97 22:14 Page:10
          1 000081  E380 0000 0000  xent                 LNJ,B6   KNB$WRITE
          1 000084       0003                            DC       s:4214,PREL
          1 000085  0F81 0008                            B        s:4220,PREL

       60     4213    2           WHENALTRETURN DO;

       61     4214    2              GTM_PARAMS.ERR = BSY;

   4214   1 000087  8C80 0000 0000  00                   LDI      BSY
          1 00008A  ECC7 0004                            LDB,B6   @GTM_PARAMS,AUTO
          1 00008C  8D46 0003                            SDI      3,B6

       62     4215                  /*E* ERROR: GTM-E$SLBUSY-0
       63     4216                       MESSAGE: Sysloging is currently busy.  Retry later.
       64     4217                   */
       65     4218    2              END;

       66     4219
       67     4220    1         RETURN;

   4220   1 00008E  C380 0000 0000  xent                 LNJ,B4   X6A_ARET
       68     4221    1         END;

PL6.E3A0      #001=GTM$MCL File=GTM$MCL.:E05TSI                                  TUE 07/29/97 22:14 Page:11
--  Include file information  --

   LCP_6.:E05TOU  cannot be made into a system file and is referenced.
   KL_AFCN_C.:E05TOU  is referenced.
   KL_MACRO_C.:E05TOU  is referenced.
   EL_ERRORS_C.:E05TOU  is referenced.
   GU_MACROS_M.:E05TOU  is referenced.
   G_LCP6_E.:E05TOU  was found in the system file and is referenced.
   GT_LCP6_M.:E05TOU  was found in the system file and is referenced.
   KI_CP6.:E05TOU  was found in the system file and is referenced.
   GF_LCP6_M.:E05TOU  was found in the system file and is referenced.
   GM_LCP6_M.:E05TOU  was found in the system file and is referenced.
   GU_LCP6_M.:E05TOU  was found in the system file and is referenced.
   GJ_LCP6_M.:E05TOU  was found in the system file and is referenced.
   GH_LCP6_M.:E05TOU  was found in the system file and is referenced.
      No diagnostics issued in procedure GTM$MCL.
PL6.E3A0      #001=GTM$MCL File=GTM$MCL.:E05TSI                                  TUE 07/29/97 22:14 Page:12

 **** Variables and constants ****

  ****  Section 000 RoData GTM$MCL

  ****  Scalars and arrays  ****
HexLoc.c.b A Datatyp(siz) R M Lvl/name                 HexLoc.c.b A Datatyp(siz) R M Lvl/name

     0-0-0/w STRC(32)    r     1 BSY

  ****  Auto variables  ****

  ****  Scalars and arrays  ****
HexLoc.c.b A Datatyp(siz) R M Lvl/name                 HexLoc.c.b A Datatyp(siz) R M Lvl/name

     4-0-0/w PTR         r     1 @GTM_PARAMS               *0-0-0/w STRC(1280)  r     1 GTM_PARAMS
    4B-0-0/w UBIN(16)    r     1 SIZE                       6-0-0/w STRC(1104)  r     1 SYSLOG

  ****  BASED and DCB variables  ****

  ****  Scalars and arrays  ****
HexLoc.c.b A Datatyp(siz) R M Lvl/name                 HexLoc.c.b A Datatyp(siz) R M Lvl/name

     0-0-0/w STRC(240)   r     1 FPT$WRSYSLOG               0-0-0/c ACHR        r     1 OPT_DATA


   Procedure GTM$MCL requires 145 words for executable code.
   Procedure GTM$MCL requires 82 words of local(AUTO) storage.

    No errors detected in file GTM$MCL.:E05TSI    .
PL6.E3A0      #001=GTM$MCL File=GTM$MCL.:E05TSI                                  TUE 07/29/97 22:14 Page:13
          *** CROSS REFERENCE LISTING ***
**     DENOTES     IDENTIFIER DEFINITION
<<                 IDENTIFIER'S VALUE SET
>>                 IDENTIFIER'S VALUE USED
<>                 IDENTIFIER SET AND/OR USED
--                 IDENTIFIER REFERENCED
PL6.E3A0      #001=GTM$MCL File=GTM$MCL.:E05TSI                                  TUE 07/29/97 22:14 Page:14
          MINI XREF LISTING

BSY
      4074**DCL      4214>>ASSIGN
FPT$WRSYSLOG.V.ERRCODE
      3997**DCL      4194>>ASSIGN
FPT$WRSYSLOG.V.FILENUM
      4056**DCL      4189>>ASSIGN
FPT$WRSYSLOG.V.TERMID.TERM
      4045**DCL      4054--REDEF
FPT$WRSYSLOG.V.VALUES
      4056**DCL      4193>>ASSIGN
GHI$UTS
      4108**DCL-ENT  4195--CALL
GTM_PARAMS
      4111**DCL         8--PROC
GTM_PARAMS.BND
      4171**DCL      4172--REDEF
GTM_PARAMS.BND.PAR2
      4171**DCL      4198>>ASSIGN   4207>>ASSIGN
GTM_PARAMS.DESC
      4173**DCL      4174--REDEF
GTM_PARAMS.ERR
      4137**DCL      4214<<ASSIGN
GTM_PARAMS.MCL.CODE
      4118**DCL      4118--REDEF
GTM_PARAMS.PTRS
      4167**DCL      4168--REDEF    4170--REDEF    4170--REDEF    4170--REDEF
GTM_PARAMS.PTRS.PAR1$
      4167**DCL      4189>>ASSIGN   4193>>ASSIGN   4194>>ASSIGN
GTM_PARAMS.PTRS.PAR2$
      4167**DCL      4196>>IF       4200>>ASSIGN   4205>>IF       4208>>ASSIGN
KNB$WRITE
      4107**DCL-ENT  4212--CALL
PL6.E3A0      #001=GTM$MCL File=GTM$MCL.:E05TSI                                  TUE 07/29/97 22:14 Page:15
OPT_DATA
      3962**DCL      4200>>ASSIGN   4208<<ASSIGN   4208>>ASSIGN
SIZE
      3959**DCL      3962--IMP-SIZ  4190<<ASSIGN   4198<<ASSIGN   4199>>ASSIGN   4200>>ASSIGN   4202<<ASSIGN
      4202>>ASSIGN   4207<<ASSIGN   4208>>ASSIGN   4208>>ASSIGN   4210<<ASSIGN   4210>>ASSIGN   4212<>CALL
SYSLOG
      3841**DCL      4187<<ASSIGN   4202--ASSIGN   4210--ASSIGN   4212--CALL
SYSLOG.ERRLOG
      3869**DCL      4208--ASSIGN   4210--ASSIGN
SYSLOG.ERRLOG.DATA_SIZE
      3956**DCL      4199<<ASSIGN
SYSLOG.ERRLOG.ERRCODE
      3887**DCL      4194<<ASSIGN
SYSLOG.ERRLOG.TERMID.TERM
      3940**DCL      3949--REDEF
SYSLOG.ERRLOG.UTS
      3918**DCL      4195<>CALL
SYSLOG.ERRLOG.VALUES
      3952**DCL      4193<<ASSIGN
SYSLOG.FCN
      3842**DCL      4188<<ASSIGN
SYSLOG.FILENUM
      3845**DCL      4189<<ASSIGN   4191>>IF
SYSLOG.OPT_DATA
      3958**DCL      4200<<ASSIGN   4202--ASSIGN   4210--ASSIGN
