VERSION E05

PL6.E3A0      #001=GUD_DATA_D File=GUD_DATA_D.:E05TSI                            TUE 07/29/97 22:14 Page:1
        1        1        /*M* GUD_DATA_D  Data used by the Monitor Services Decoder   */
        2        2        /*T***********************************************************/
        3        3        /*T*                                                         */
        4        4        /*T* Copyright (c) Bull HN Information Systems Inc., 1997    */
        5        5        /*T*                                                         */
        6        6        /*T***********************************************************/
        7        7        GUD_DATA_D: PROC;
        8        8
        9        9        %INCLUDE LCP_6;
       10      200        %INCLUDE GU_MACROS_M;
       11      359
       12      360        %GUD_MCL_HANDLERS;
       13      385
       14      386    1   DCL GUD_MAXFCG SBIN CONSTANT SYMDEF INIT(%G_MAXFCG#);
       15      387
       16      388        %GUD_MCL_TABLE (STCLASS=STATIC SYMDEF);
       17     6493
       18     6494    1   END;

PL6.E3A0      #001=GUD_DATA_D File=GUD_DATA_D.:E05TSI                            TUE 07/29/97 22:14 Page:2
--  Include file information  --

   GU_MACROS_M.:E05TOU  is referenced.
   LCP_6.:E05TOU  cannot be made into a system file and is referenced.
   G_LCP6_E.:E05TOU  was found in the system file and is referenced.
   GT_LCP6_M.:E05TOU  was found in the system file and is referenced.
   KI_CP6.:E05TOU  was found in the system file and is referenced.
   GF_LCP6_M.:E05TOU  was found in the system file and is referenced.
   GM_LCP6_M.:E05TOU  was found in the system file and is referenced.
   GU_LCP6_M.:E05TOU  was found in the system file and is referenced.
   GJ_LCP6_M.:E05TOU  was found in the system file and is referenced.
   GH_LCP6_M.:E05TOU  was found in the system file and is referenced.
      No diagnostics issued in procedure GUD_DATA_D.

   No code generated for procedure GUD_DATA_D .
   Procedure GUD_DATA_D requires 4 words of local(AUTO) storage.

    No errors detected in file GUD_DATA_D.:E05TSI    .

PL6.E3A0      #001=GUD_DATA_D File=GUD_DATA_D.:E05TSI                            TUE 07/29/97 22:14 Page:3

 Object Unit name= GUD_DATA_D                                 File name= GUD_DATA_D.:E05TOU
 UTS= JUL 29 '97 22:14:36.68 TUE                              Compiler= PL-6/E31         Sev=      00
 SharedLib= :SHARED_LCP6_SYSTEM                               Alt SharedLib=


    ****  Control sections  ****

 Sect   Type Bound  Init  Size HexSiz  Section name
    0  RoData even  UTS      1      1  GUD_DATA_D
    1   Data  even  none   506    1FA  GUD_DATA_D
    2   Proc  even  none     0      0  GUD_DATA_D

    ****  Entry defs  ****

                              Check   Calling
                             calling  sequence
  Sect HexLoc Primary Altret sequence   type   Parms  Name
     2      0   yes            yes     ~proc       0  GUD_DATA_D

  ****  Data defs  ****

 Sect HexLoc  Name                           Sect HexLoc  Name
    0      0  GUD_MAXFCG                         1      0  GUD_MCL_TABLE
PL6.E3A0      #001=GUD_DATA_D File=GUD_DATA_D.:E05TSI                            TUE 07/29/97 22:14 Page:4

  ****  Entry refs  ****

         Check        Calling
        calling       sequence
Altret sequence SRef   type   Args  Name
 yes     yes           Std       1 GHM$INTRET
 yes     yes           Std       1 GHM$INTCON
 yes     yes           Std       1 GHM$INTREL
         yes           Std       1 GUS$MAKEUSR
         yes           Std       1 GUM$CHGUNIT
         yes           Std       1 GJM$MCL
         yes           Std       1 GTM$MCL
 yes     yes           Std       1 GHM$SYS
         yes           Std       1 GUS$WAIT
         yes           Std       1 GUS$CLOCK
         yes           Std       1 GFM$MCL
         yes           Std       1 GUM$AFD
         yes           Std       1 GUM$UNSHARE
         yes           Std       1 GUM$SPRIV
         yes           Std       1 GUM$ERRMSG
         yes           Std       1 GUM$DRTN
         yes           Std       1 KNA$MCL
         yes           Std       1 GUE$MCL
 yes     yes           Std       1 GMM$MCL
         yes           Std       1 GUS$TIME
         yes           Std       1 GUS$RUE

  ****  Data refs  ****

  Flags:  r = read only, s = secondary
Flgs Name                             Flgs Name                             Flgs Name
r    G$ROS$
PL6.E3A0      #001=GUD_DATA_D File=GUD_DATA_D.:E05TSI                            TUE 07/29/97 22:14 Page:5

        1        1        /*M* GUD_DATA_D  Data used by the Monitor Services Decoder   */
        2        2        /*T***********************************************************/
        3        3        /*T*                                                         */
        4        4        /*T* Copyright (c) Bull HN Information Systems Inc., 1997    */
        5        5        /*T*                                                         */
        6        6        /*T***********************************************************/
        7        7        GUD_DATA_D: PROC;
        8        8
        9        9        %INCLUDE LCP_6;
       10      200        %INCLUDE GU_MACROS_M;
       11      359
       12      360        %GUD_MCL_HANDLERS;
       13      385
       14      386    1   DCL GUD_MAXFCG SBIN CONSTANT SYMDEF INIT(%G_MAXFCG#);
       15      387
       16      388        %GUD_MCL_TABLE (STCLASS=STATIC SYMDEF);
       17     6493
       18     6494    1   END;

PL6.E3A0      #001=GUD_DATA_D File=GUD_DATA_D.:E05TSI                            TUE 07/29/97 22:14 Page:6
--  Include file information  --

   GU_MACROS_M.:E05TOU  is referenced.
   LCP_6.:E05TOU  cannot be made into a system file and is referenced.
   G_LCP6_E.:E05TOU  was found in the system file and is referenced.
   GT_LCP6_M.:E05TOU  was found in the system file and is referenced.
   KI_CP6.:E05TOU  was found in the system file and is referenced.
   GF_LCP6_M.:E05TOU  was found in the system file and is referenced.
   GM_LCP6_M.:E05TOU  was found in the system file and is referenced.
   GU_LCP6_M.:E05TOU  was found in the system file and is referenced.
   GJ_LCP6_M.:E05TOU  was found in the system file and is referenced.
   GH_LCP6_M.:E05TOU  was found in the system file and is referenced.
      No diagnostics issued in procedure GUD_DATA_D.
PL6.E3A0      #001=GUD_DATA_D File=GUD_DATA_D.:E05TSI                            TUE 07/29/97 22:14 Page:7

 **** Variables and constants ****

  ****  Section 001  Data  GUD_DATA_D

  ****  Scalars and arrays  ****
HexLoc.c.b A Datatyp(siz) R M Lvl/name                 HexLoc.c.b A Datatyp(siz) R M Lvl/name

     0-0-0/w STRC(8096)  r     1 GUD_MCL_TABLE


   No code generated for procedure GUD_DATA_D .
   Procedure GUD_DATA_D requires 4 words of local(AUTO) storage.

    No errors detected in file GUD_DATA_D.:E05TSI    .
PL6.E3A0      #001=GUD_DATA_D File=GUD_DATA_D.:E05TSI                            TUE 07/29/97 22:14 Page:8
          *** CROSS REFERENCE LISTING ***
**     DENOTES     IDENTIFIER DEFINITION
<<                 IDENTIFIER'S VALUE SET
>>                 IDENTIFIER'S VALUE USED
<>                 IDENTIFIER SET AND/OR USED
--                 IDENTIFIER REFERENCED
PL6.E3A0      #001=GUD_DATA_D File=GUD_DATA_D.:E05TSI                            TUE 07/29/97 22:14 Page:9
          MINI XREF LISTING

GFM$MCL
       376**DCL-ENT  3748--DCLINIT
GHM$INTCON
       362**DCL-ENT   506--DCLINIT
GHM$INTREL
       362**DCL-ENT   559--DCLINIT
GHM$INTRET
       362**DCL-ENT   453--DCLINIT
GHM$SYS
       362**DCL-ENT   612--DCLINIT
GJM$MCL
       365**DCL-ENT   646--DCLINIT
GMM$MCL
       373**DCL-ENT  3057--DCLINIT
GTM$MCL
       382**DCL-ENT  6413--DCLINIT
GUD_MCL_TABLE.FCG0
      6491**DCL       389--DCLINIT
GUD_MCL_TABLE.GF_FPTS
      3742**DCL       390--DCLINIT
GUD_MCL_TABLE.GH_FPTS
       414**DCL       389--DCLINIT
GUD_MCL_TABLE.GJ_FPTS
       640**DCL       389--DCLINIT
GUD_MCL_TABLE.GM_FPTS
      3051**DCL       390--DCLINIT
GUD_MCL_TABLE.GT_FPTS
      6407**DCL       390--DCLINIT
GUD_MCL_TABLE.GU_FPTS
      1285**DCL       389--DCLINIT
GUD_MCL_TABLE.KI_FPTS
      4820**DCL       390--DCLINIT
PL6.E3A0      #001=GUD_DATA_D File=GUD_DATA_D.:E05TSI                            TUE 07/29/97 22:14 Page:10
GUE$MCL
       368**DCL-ENT  1324--DCLINIT  1397--DCLINIT  1470--DCLINIT  1543--DCLINIT  1616--DCLINIT  1908--DCLINIT
      1941--DCLINIT  1974--DCLINIT  2047--DCLINIT  2100--DCLINIT  2153--DCLINIT  2206--DCLINIT  2259--DCLINIT
GUM$AFD
       369**DCL-ENT  2405--DCLINIT
GUM$CHGUNIT
       369**DCL-ENT  2697--DCLINIT
GUM$DRTN
       368**DCL-ENT  2458--DCLINIT
GUM$ERRMSG
       369**DCL-ENT  2750--DCLINIT
GUM$SPRIV
       368**DCL-ENT  2312--DCLINIT
GUM$UNSHARE
       368**DCL-ENT  2511--DCLINIT
GUS$CLOCK
       369**DCL-ENT  1782--DCLINIT
GUS$MAKEUSR
       369**DCL-ENT  1855--DCLINIT
GUS$RUE
       368**DCL-ENT  3003--DCLINIT
GUS$TIME
       368**DCL-ENT  2564--DCLINIT
GUS$WAIT
       369**DCL-ENT  1689--DCLINIT
KNA$MCL
       379**DCL-ENT  4826--DCLINIT
