VERSION E05

PL6.E3A0      #001=G_CNTRL_D File=G_CNTRL_D.:E05TSI                              TUE 07/29/97 22:17 Page:1
        1        1        /*M* G_CNTRL_D   LCP-6 data accessed by the Control function of NETCON */
        2        2        /*T***********************************************************/
        3        3        /*T*                                                         */
        4        4        /*T* Copyright (c) Bull HN Information Systems Inc., 1997    */
        5        5        /*T*                                                         */
        6        6        /*T***********************************************************/
        7        7        /*X* MEC,MOC,EXM=20,CLM=20,CRM=80 */
        8        8
        9        9                            /*F* NAME: G_CNTRL_D
       10       10
       11       11                            The module G_CNTRL_D contains most monitor data
       12       12                            that may be modified or displayed by the control
       13       13                            function of NETCON and a table of pointers that
       14       14                            locate the data.
       15       15                            */
       16       16        G_CNTRL_D: PROC;
       17       17
       18       18        %INCLUDE GI_BOOT_C;
       19      129        %INCLUDE G_CNTRL_M;
       20      202
       21      203    1   DCL GH_KEEPDELTA UBIN SYMREF;
       22      204    1   DCL GJ_SFILE_MAX_DATA UBIN SYMREF;
       23      205        %LIST;
       24      206
       25      207        %G_CNTRL_TBL (FPTN=G_CNTRL_TBL,
       26      208                      STCLASS="CONSTANT SYMDEF",
       27      209                      BUILD_TBL=YES,
       28      210                      HI_MODIFY=GI_CNTL_BOOTHI,
       29      211                      HI_DISP=GI_CNTL_DISPHI);
               212        %LSET LISTDIR='0'B;
               224    1   DCL 1 G_CNTRL_TBL CONSTANT SYMDEF WALIGNED,
               225    1         2 HI_MODIFY UBIN  INIT(20),
               226                            /*K* HI_MODIFY - UBIN.
               227                            Contains the highest index into G_CNTRL_TBL.PTRS
               228                            for the parameters that may be modified.
               229                            */
               230    1         2 HI_DISP UBIN  INIT(29),
PL6.E3A0      #001=G_CNTRL_D File=G_CNTRL_D.:E05TSI                              TUE 07/29/97 22:17 Page:2
               231                            /*K* HI_DISP - UBIN.
               232                            Contains the highest index into G_CNTRL_TBL.PTRS
               233                            for the parameters that may be displayed.
               234                            */
               244    1         2 PTR$(0:29) PTR  INIT(
               245    1              ADDR(GH_QMIN),
               246    1              ADDR(GH_QUAN),
               247    1              ADDR(G_XCONTIME),
               248    1              ADDR(G_MAX_USRS(0)),
               249    1              ADDR(G_MAX_USRS(1)),
               250    1              ADDR(G_MAX_USRS(2)),
               251    1              ADDR(G_MAX_USRS(3)),
               252    1              ADDR(G_MAX_USRS(4)),
               253    1              ADDR(GFR_MAX_MEM(0)),
               254    1              ADDR(GFR_MAX_MEM(1)),
               255    1              ADDR(GFR_MAX_MEM(2)),
               256    1              ADDR(GFR_MAX_MEM(3)),
               257    1              ADDR(GFR_MAX_MEM(4)),
               258    1              ADDR(GI_DUMP),
               259    1              ADDR(GH_KEEPDELTA),
               260    1              ADDR(GJ_SFILE_MAX_DATA),
               261    1              ADDR(NIL),
               262    1              ADDR(NIL),
               263    1              ADDR(NIL),
               264    1              ADDR(NIL),
               265    1              ADDR(G_CUR_USRS(0)),
               266    1              ADDR(G_CUR_USRS(1)),
               267    1              ADDR(G_CUR_USRS(2)),
               268    1              ADDR(G_CUR_USRS(3)),
               269    1              ADDR(G_CUR_USRS(4)),
               270    1              ADDR(GFR_CUR_MEM(0)),
               271    1              ADDR(GFR_CUR_MEM(1)),
               272    1              ADDR(GFR_CUR_MEM(2)),
               273    1              ADDR(GFR_CUR_MEM(3)),
               274    1              ADDR(GFR_CUR_MEM(4)) );
       30      277
       31      278        %PLIST;
PL6.E3A0      #001=G_CNTRL_D File=G_CNTRL_D.:E05TSI                              TUE 07/29/97 22:17 Page:3
       32      279        %EJECT;
PL6.E3A0      #001=G_CNTRL_D File=G_CNTRL_D.:E05TSI                              TUE 07/29/97 22:17 Page:4
       33      280                            /* Number of users                                        */
       34      281
       35      282    1   DCL G_MAX_USRS (0:4) UBIN WORD STATIC SYMDEF
       36      283    1            INIT(%GI_MUSR#,
       37      284    1                 %GI_MUSR_USER#,
       38      285    1                 %GI_MUSR_CG#,
       39      286    1                 %GI_MUSR_HAND#,
       40      287    1                 %GI_MUSR_GHST#);
       41      288                            /*K* G_MAX_USRS - ARRAY(0:4) UBIN.
       42      289                            This array is indexed by G$JIT.MODE.  Each
       43      290                            entry in the array contains the maximum number
       44      291                            of users that may be started for each user
       45      292                            mode.  The zero-th entry contains the maximum
       46      293                            number of users of all modes allowed on the
       47      294                            system.
       48      295                            */
       49      296
       50      297    1   DCL G_CUR_USRS (0:4) UBIN WORD STATIC SYMDEF INIT(0*0);
       51      298                            /*K* G_CUR_USRS - ARRAY(0:4) UBIN.
       52      299                            This array is indexed by G$JIT.MODE.  Each
       53      300                            entry in the array contains the current number
       54      301                            of users that have been started for each user
       55      302                            mode.  The zero-th entry contains the current
       56      303                            number of users of all modes currently on the
       57      304                            system.
       58      305                            */
       59      306
       60      307        %EJECT;
PL6.E3A0      #001=G_CNTRL_D File=G_CNTRL_D.:E05TSI                              TUE 07/29/97 22:17 Page:5
       61      308                            /* Memory                                                 */
       62      309
       63      310    1   DCL GFR_MAX_MEM (0:4) UBIN WORD STATIC SYMDEF
       64      311    1            INIT(%GI_MMEM#,
       65      312    1                 %GI_MMEM_USER#,
       66      313    1                 %GI_MMEM_CG#,
       67      314    1                 %GI_MMEM_HAND#,
       68      315    1                 %GI_MMEM_GHST#);
       69      316                            /*K* GFR_MAX_MEM - ARRAY(0:4) SBIN.
       70      317                            This array is indexed by G$JIT.MODE.  Each
       71      318                            entry in the array contains the maximum number
       72      319                            of pages that may be allocated for each user
       73      320                            mode.  The zero-th entry contains the maximum
       74      321                            amount of memory that may be allocated for all
       75      322                            users.
       76      323                            */
       77      324
       78      325    1   DCL GFR_CUR_MEM (0:4) UBIN WORD STATIC SYMDEF INIT(0*5);
       79      326                            /*K* GFR_CUR_MEM - ARRAY(0:4) SBIN.
       80      327                            This array is indexed by G$JIT.MODE.  Each
       81      328                            entry in the array contains the current number
       82      329                            of pages that are allocated for each user
       83      330                            mode.  The zero-th entry contains the current
       84      331                            amount of memory that is allocated for all
       85      332                            users.
       86      333                            */
       87      334
       88      335
       89      336        %EJECT;
PL6.E3A0      #001=G_CNTRL_D File=G_CNTRL_D.:E05TSI                              TUE 07/29/97 22:17 Page:6
       90      337                            /* Pseudo Resources                                       */
       91      338
       92      339    1   DCL GFR_PSEUDO# UBIN WORD STATIC SYMDEF INIT(0);
       93      340                            /*K* GFR_PSEUDO# - UBIN WORD.
       94      341                            Contains the number of pseudo resources defined
       95      342                            for this FEP in the :NETCON file.
       96      343                            */
       97      344
       98      345    1   DCL GFR_PSUDO_NM (0:7) CHAR(8) CONSTANT SYMDEF INIT(' '*0);
       99      346                            /*K* GFR_PSUDO_NM - ARRAY(0:7) CHAR(8).  Contains
      100      347                            the TEXT name of each of the pseudo resources.
      101      348                            */
      102      349
      103      350    1   DCL GFR_PSUDO_MAX$ (0:4) PTR CONSTANT SYMDEF
      104      351    1        INIT(ADDR(GFR_PSUDO_MAX_SYS),
      105      352    1            ADDR(GFR_PSUDO_MAX_USR),
      106      353    1            ADDR(GFR_PSUDO_MAX_CG),
      107      354    1            ADDR(GFR_PSUDO_MAX_HND),
      108      355    1            ADDR(GFR_PSUDO_MAX_GST));
      109      356                            /*K* GFR_PSUDO_MAX$ - ARRAY(0:4) PTR.
      110      357                            This array is indexed by G$JIT.MODE.  Each
      111      358                            entry in this array contains the address of
      112      359                            the array of the maximum number of each pseudo
      113      360                            resource that may be allocated for each user
      114      361                            mode.  The zero-th entry in this array contains
      115      362                            the address of GFR_PSUDO_MAX_SYS.
      116      363                            */
      117      364
      118      365    1   DCL GFR_PSUDO_MAX_SYS (0:7) SBIN WORD STATIC SYMDEF INIT(0*0);
      119      366                            /*K* GFR_PSUDO_MAX_SYS - ARRAY(0:7) SBIN WORD.  Contains
      120      367                            the maximum number of each pseudo resource that may be
      121      368                            allocated for all user modes.
      122      369                            */
      123      370    1   DCL GFR_PSUDO_MAX_USR (0:7) SBIN WORD STATIC SYMDEF INIT(0*0);
      124      371                            /*K* GFR_PSUDO_MAX_USR - ARRAY(0:7) SBIN WORD.  Contains
      125      372                            the maximum number of each pseudo resource that may be
      126      373                            allocated for all DCB connected users.
PL6.E3A0      #001=G_CNTRL_D File=G_CNTRL_D.:E05TSI                              TUE 07/29/97 22:17 Page:7
      127      374                            */
      128      375    1   DCL GFR_PSUDO_MAX_CG (0:7) SBIN WORD STATIC SYMDEF INIT(0*0);
      129      376                            /*K* GFR_PSUDO_MAX_CG - ARRAY(0:7) SBIN WORD.  Contains
      130      377                            the maximum number of each pseudo resource that may be
      131      378                            allocated for all CG connected users.
      132      379                            */
      133      380    1   DCL GFR_PSUDO_MAX_HND (0:7) SBIN WORD STATIC SYMDEF INIT(0*0);
      134      381                            /*K* GFR_PSUDO_MAX_HND - ARRAY(0:7) SBIN WORD.  Contains
      135      382                            the maximum number of each pseudo resource that may be
      136      383                            allocated for all handlers.
      137      384                            */
      138      385    1   DCL GFR_PSUDO_MAX_GST (0:7) SBIN WORD STATIC SYMDEF INIT(0*0);
      139      386                            /*K* GFR_PSUDO_MAX_GST - ARRAY(0:7) SBIN WORD.  Contains
      140      387                            the maximum number of each pseudo resource that may be
      141      388                            allocated for all system ghosts.
      142      389                            */
      143      390
      144      391
      145      392    1   DCL GFR_PSUDO_CUR$ (0:4) PTR CONSTANT SYMDEF
      146      393    1        INIT(ADDR(GFR_PSUDO_CUR_SYS),
      147      394    1            ADDR(GFR_PSUDO_CUR_USR),
      148      395    1            ADDR(GFR_PSUDO_CUR_CG),
      149      396    1            ADDR(GFR_PSUDO_CUR_HND),
      150      397    1            ADDR(GFR_PSUDO_CUR_GST));
      151      398                            /*K* GFR_PSUDO_CUR$ - ARRAY(0:4) PTR.
      152      399                            This array is indexed by G$JIT.MODE.  Each
      153      400                            entry in this array contains the address of
      154      401                            an array which contains the current number of each
      155      402                            pseudo resource that has been allocated for user
      156      403                            mode.  The zero-th entry in this array contains
      157      404                            the address of GFR_PSUDO_CUR_SYS.
      158      405                            */
      159      406
      160      407    1   DCL GFR_PSUDO_CUR_SYS (0:7) SBIN WORD STATIC SYMDEF INIT(0*0);
      161      408                            /*K* GFR_PSUDO_CUR_SYS - ARRAY(0:7) SBIN WORD.  Contains
      162      409                            the current number of each pseudo resource that may be
      163      410                            allocated for all user modes.
PL6.E3A0      #001=G_CNTRL_D File=G_CNTRL_D.:E05TSI                              TUE 07/29/97 22:17 Page:8
      164      411                            */
      165      412    1   DCL GFR_PSUDO_CUR_USR (0:7) SBIN WORD STATIC SYMDEF INIT(0*0);
      166      413                            /*K* GFR_PSUDO_CUR_USR - ARRAY(0:7) SBIN WORD.  Contains
      167      414                            the current number of each pseudo resource that may be
      168      415                            allocated for all DCB connected users.
      169      416                            */
      170      417    1   DCL GFR_PSUDO_CUR_CG (0:7) SBIN WORD STATIC SYMDEF INIT(0*0);
      171      418                            /*K* GFR_PSUDO_CUR_CG - ARRAY(0:7) SBIN WORD.  Contains
      172      419                            the current number of each pseudo resource that may be
      173      420                            allocated for all CG connected users.
      174      421                            */
      175      422    1   DCL GFR_PSUDO_CUR_HND (0:7) SBIN WORD STATIC SYMDEF INIT(0*0);
      176      423                            /*K* GFR_PSUDO_CUR_HND - ARRAY(0:7) SBIN WORD.  Contains
      177      424                            the current number of each pseudo resource that may be
      178      425                            allocated for all handlers.
      179      426                            */
      180      427    1   DCL GFR_PSUDO_CUR_GST (0:7) SBIN WORD STATIC SYMDEF INIT(0*0);
      181      428                            /*K* GFR_PSUDO_CUR_GST - ARRAY(0:7) SBIN WORD.  Contains
      182      429                            the current number of each pseudo resource that may be
      183      430                            allocated for all system ghosts.
      184      431                            */
      185      432
      186      433        %EJECT;
PL6.E3A0      #001=G_CNTRL_D File=G_CNTRL_D.:E05TSI                              TUE 07/29/97 22:17 Page:9
      187      434                            /* Scheduler Parameters                                   */
      188      435
      189      436    1   DCL GH_QMIN UBIN STATIC SYMDEF INIT(%GI_QMIN#);
      190      437                            /*K* GH_QMIN - UBIN.
      191      438                            Contains the minimum quantum time.
      192      439                            */
      193      440    1   DCL GH_QUAN UBIN STATIC SYMDEF INIT(%GI_QUAN#);
      194      441                            /*K* GH_QUAN - UBIN.
      195      442                            Contains the default quantum time.
      196      443                            */
      197      444    1   DCL GH_MF UBIN STATIC SYMDEF INIT(%GI_MF#);
      198      445                            /*K* GH_MF - UBIN.
      199      446                            Contains the master function limit.
      200      447                            */
      201      448    1   DCL GH_MFU UBIN STATIC SYMDEF INIT(%GI_MFU#);
      202      449                            /*K* GH_MFU - UBIN.
      203      450                            Contains the master function unblock limit.
      204      451                            */
      205      452    1   DCL G_XCONTIME UBIN STATIC SYMDEF INIT(%GI_XCONTIME#);
      206      453                            /*K* G_XCONTIME - UBIN.
      207      454                            Contains the time to be allowed a user
      208      455                            when a class 2 or 3 exit control condition
      209      456                            exists.
      210      457                            */
      211      458
      212      459    1   DCL GI_DUMP UBIN STATIC SYMDEF INIT(1);
      213      460                            /* GI_DUMP = {0|1}.  A zero indicates no dump
      214      461                            should be taken to diskette.  A one indicates
      215      462                            a dump should be taken. The default is one.
      216      463                            */
      217      464    1   END;

PL6.E3A0      #001=G_CNTRL_D File=G_CNTRL_D.:E05TSI                              TUE 07/29/97 22:17 Page:10
--  Include file information  --

   G_CNTRL_M.:E05TOU  is referenced.
   GI_BOOT_C.:E05TOU  is referenced.
   G_LCP6_E.:E05TOU  was found in the system file and is never referenced.
   GT_LCP6_M.:E05TOU  was found in the system file and is never referenced.
   KI_CP6.:E05TOU  was found in the system file and is never referenced.
   GF_LCP6_M.:E05TOU  was found in the system file and is never referenced.
   GM_LCP6_M.:E05TOU  was found in the system file and is never referenced.
   GU_LCP6_M.:E05TOU  was found in the system file and is never referenced.
   GJ_LCP6_M.:E05TOU  was found in the system file and is never referenced.
   GH_LCP6_M.:E05TOU  was found in the system file and is never referenced.
      No diagnostics issued in procedure G_CNTRL_D.

   No code generated for procedure G_CNTRL_D .
   Procedure G_CNTRL_D requires 4 words of local(AUTO) storage.

    No errors detected in file G_CNTRL_D.:E05TSI    .

PL6.E3A0      #001=G_CNTRL_D File=G_CNTRL_D.:E05TSI                              TUE 07/29/97 22:17 Page:11

 Object Unit name= G_CNTRL_D                                  File name= G_CNTRL_D.:E05TOU
 UTS= JUL 29 '97 22:17:14.48 TUE                              Compiler= PL-6/E31         Sev=      00
 SharedLib= :SHARED_LCP6_SYSTEM                               Alt SharedLib=


    ****  Control sections  ****

 Sect   Type Bound  Init  Size HexSiz  Section name
    0  RoData even  UTS    114     72  G_CNTRL_D
    1   Data  even  none   107     6B  G_CNTRL_D
    2   Proc  even  none     0      0  G_CNTRL_D

    ****  Entry defs  ****

                              Check   Calling
                             calling  sequence
  Sect HexLoc Primary Altret sequence   type   Parms  Name
     2      0   yes            yes     ~proc       0  G_CNTRL_D
PL6.E3A0      #001=G_CNTRL_D File=G_CNTRL_D.:E05TSI                              TUE 07/29/97 22:17 Page:12

  ****  Data defs  ****

 Sect HexLoc  Name                           Sect HexLoc  Name
    0      0  G_CNTRL_TBL                        1      0  G_MAX_USRS
    1      5  G_CUR_USRS                         1      A  GFR_MAX_MEM
    1      F  GFR_CUR_MEM                        1     14  GFR_PSEUDO#
    0     3E  GFR_PSUDO_NM                       0     5E  GFR_PSUDO_MAX$
    1     15  GFR_PSUDO_MAX_SYS                  1     1D  GFR_PSUDO_MAX_USR
    1     25  GFR_PSUDO_MAX_CG                   1     2D  GFR_PSUDO_MAX_HND
    1     35  GFR_PSUDO_MAX_GST                  0     68  GFR_PSUDO_CUR$
    1     3D  GFR_PSUDO_CUR_SYS                  1     45  GFR_PSUDO_CUR_USR
    1     4D  GFR_PSUDO_CUR_CG                   1     55  GFR_PSUDO_CUR_HND
    1     5D  GFR_PSUDO_CUR_GST                  1     65  GH_QMIN
    1     66  GH_QUAN                            1     67  GH_MF
    1     68  GH_MFU                             1     69  G_XCONTIME
    1     6A  GI_DUMP

  ****  Data refs  ****

  Flags:  r = read only, s = secondary
Flgs Name                             Flgs Name                             Flgs Name
     GH_KEEPDELTA                          GJ_SFILE_MAX_DATA                r    G$ROS$
PL6.E3A0      #001=G_CNTRL_D File=G_CNTRL_D.:E05TSI                              TUE 07/29/97 22:17 Page:13

        1        1        /*M* G_CNTRL_D   LCP-6 data accessed by the Control function of NETCON */
        2        2        /*T***********************************************************/
        3        3        /*T*                                                         */
        4        4        /*T* Copyright (c) Bull HN Information Systems Inc., 1997    */
        5        5        /*T*                                                         */
        6        6        /*T***********************************************************/
        7        7        /*X* MEC,MOC,EXM=20,CLM=20,CRM=80 */
        8        8
        9        9                            /*F* NAME: G_CNTRL_D
       10       10
       11       11                            The module G_CNTRL_D contains most monitor data
       12       12                            that may be modified or displayed by the control
       13       13                            function of NETCON and a table of pointers that
       14       14                            locate the data.
       15       15                            */
       16       16        G_CNTRL_D: PROC;
       17       17
       18       18        %INCLUDE GI_BOOT_C;
       19      129        %INCLUDE G_CNTRL_M;
       20      202
       21      203    1   DCL GH_KEEPDELTA UBIN SYMREF;
       22      204    1   DCL GJ_SFILE_MAX_DATA UBIN SYMREF;
       23      205        %LIST;
       24      206
       25      207        %G_CNTRL_TBL (FPTN=G_CNTRL_TBL,
       26      208                      STCLASS="CONSTANT SYMDEF",
       27      209                      BUILD_TBL=YES,
       28      210                      HI_MODIFY=GI_CNTL_BOOTHI,
       29      211                      HI_DISP=GI_CNTL_DISPHI);
               212        %LSET LISTDIR='0'B;
               224    1   DCL 1 G_CNTRL_TBL CONSTANT SYMDEF WALIGNED,
               225    1         2 HI_MODIFY UBIN  INIT(20),
               226                            /*K* HI_MODIFY - UBIN.
               227                            Contains the highest index into G_CNTRL_TBL.PTRS
               228                            for the parameters that may be modified.
               229                            */
               230    1         2 HI_DISP UBIN  INIT(29),
PL6.E3A0      #001=G_CNTRL_D File=G_CNTRL_D.:E05TSI                              TUE 07/29/97 22:17 Page:14
               231                            /*K* HI_DISP - UBIN.
               232                            Contains the highest index into G_CNTRL_TBL.PTRS
               233                            for the parameters that may be displayed.
               234                            */
               244    1         2 PTR$(0:29) PTR  INIT(
               245    1              ADDR(GH_QMIN),
               246    1              ADDR(GH_QUAN),
               247    1              ADDR(G_XCONTIME),
               248    1              ADDR(G_MAX_USRS(0)),
               249    1              ADDR(G_MAX_USRS(1)),
               250    1              ADDR(G_MAX_USRS(2)),
               251    1              ADDR(G_MAX_USRS(3)),
               252    1              ADDR(G_MAX_USRS(4)),
               253    1              ADDR(GFR_MAX_MEM(0)),
               254    1              ADDR(GFR_MAX_MEM(1)),
               255    1              ADDR(GFR_MAX_MEM(2)),
               256    1              ADDR(GFR_MAX_MEM(3)),
               257    1              ADDR(GFR_MAX_MEM(4)),
               258    1              ADDR(GI_DUMP),
               259    1              ADDR(GH_KEEPDELTA),
               260    1              ADDR(GJ_SFILE_MAX_DATA),
               261    1              ADDR(NIL),
               262    1              ADDR(NIL),
               263    1              ADDR(NIL),
               264    1              ADDR(NIL),
               265    1              ADDR(G_CUR_USRS(0)),
               266    1              ADDR(G_CUR_USRS(1)),
               267    1              ADDR(G_CUR_USRS(2)),
               268    1              ADDR(G_CUR_USRS(3)),
               269    1              ADDR(G_CUR_USRS(4)),
               270    1              ADDR(GFR_CUR_MEM(0)),
               271    1              ADDR(GFR_CUR_MEM(1)),
               272    1              ADDR(GFR_CUR_MEM(2)),
               273    1              ADDR(GFR_CUR_MEM(3)),
               274    1              ADDR(GFR_CUR_MEM(4)) );
       30      277
       31      278        %PLIST;
PL6.E3A0      #001=G_CNTRL_D File=G_CNTRL_D.:E05TSI                              TUE 07/29/97 22:17 Page:15
       32      279        %EJECT;
PL6.E3A0      #001=G_CNTRL_D File=G_CNTRL_D.:E05TSI                              TUE 07/29/97 22:17 Page:16
       33      280                            /* Number of users                                        */
       34      281
       35      282    1   DCL G_MAX_USRS (0:4) UBIN WORD STATIC SYMDEF
       36      283    1            INIT(%GI_MUSR#,
       37      284    1                 %GI_MUSR_USER#,
       38      285    1                 %GI_MUSR_CG#,
       39      286    1                 %GI_MUSR_HAND#,
       40      287    1                 %GI_MUSR_GHST#);
       41      288                            /*K* G_MAX_USRS - ARRAY(0:4) UBIN.
       42      289                            This array is indexed by G$JIT.MODE.  Each
       43      290                            entry in the array contains the maximum number
       44      291                            of users that may be started for each user
       45      292                            mode.  The zero-th entry contains the maximum
       46      293                            number of users of all modes allowed on the
       47      294                            system.
       48      295                            */
       49      296
       50      297    1   DCL G_CUR_USRS (0:4) UBIN WORD STATIC SYMDEF INIT(0*0);
       51      298                            /*K* G_CUR_USRS - ARRAY(0:4) UBIN.
       52      299                            This array is indexed by G$JIT.MODE.  Each
       53      300                            entry in the array contains the current number
       54      301                            of users that have been started for each user
       55      302                            mode.  The zero-th entry contains the current
       56      303                            number of users of all modes currently on the
       57      304                            system.
       58      305                            */
       59      306
       60      307        %EJECT;
PL6.E3A0      #001=G_CNTRL_D File=G_CNTRL_D.:E05TSI                              TUE 07/29/97 22:17 Page:17
       61      308                            /* Memory                                                 */
       62      309
       63      310    1   DCL GFR_MAX_MEM (0:4) UBIN WORD STATIC SYMDEF
       64      311    1            INIT(%GI_MMEM#,
       65      312    1                 %GI_MMEM_USER#,
       66      313    1                 %GI_MMEM_CG#,
       67      314    1                 %GI_MMEM_HAND#,
       68      315    1                 %GI_MMEM_GHST#);
       69      316                            /*K* GFR_MAX_MEM - ARRAY(0:4) SBIN.
       70      317                            This array is indexed by G$JIT.MODE.  Each
       71      318                            entry in the array contains the maximum number
       72      319                            of pages that may be allocated for each user
       73      320                            mode.  The zero-th entry contains the maximum
       74      321                            amount of memory that may be allocated for all
       75      322                            users.
       76      323                            */
       77      324
       78      325    1   DCL GFR_CUR_MEM (0:4) UBIN WORD STATIC SYMDEF INIT(0*5);
       79      326                            /*K* GFR_CUR_MEM - ARRAY(0:4) SBIN.
       80      327                            This array is indexed by G$JIT.MODE.  Each
       81      328                            entry in the array contains the current number
       82      329                            of pages that are allocated for each user
       83      330                            mode.  The zero-th entry contains the current
       84      331                            amount of memory that is allocated for all
       85      332                            users.
       86      333                            */
       87      334
       88      335
       89      336        %EJECT;
PL6.E3A0      #001=G_CNTRL_D File=G_CNTRL_D.:E05TSI                              TUE 07/29/97 22:17 Page:18
       90      337                            /* Pseudo Resources                                       */
       91      338
       92      339    1   DCL GFR_PSEUDO# UBIN WORD STATIC SYMDEF INIT(0);
       93      340                            /*K* GFR_PSEUDO# - UBIN WORD.
       94      341                            Contains the number of pseudo resources defined
       95      342                            for this FEP in the :NETCON file.
       96      343                            */
       97      344
       98      345    1   DCL GFR_PSUDO_NM (0:7) CHAR(8) CONSTANT SYMDEF INIT(' '*0);
       99      346                            /*K* GFR_PSUDO_NM - ARRAY(0:7) CHAR(8).  Contains
      100      347                            the TEXT name of each of the pseudo resources.
      101      348                            */
      102      349
      103      350    1   DCL GFR_PSUDO_MAX$ (0:4) PTR CONSTANT SYMDEF
      104      351    1        INIT(ADDR(GFR_PSUDO_MAX_SYS),
      105      352    1            ADDR(GFR_PSUDO_MAX_USR),
      106      353    1            ADDR(GFR_PSUDO_MAX_CG),
      107      354    1            ADDR(GFR_PSUDO_MAX_HND),
      108      355    1            ADDR(GFR_PSUDO_MAX_GST));
      109      356                            /*K* GFR_PSUDO_MAX$ - ARRAY(0:4) PTR.
      110      357                            This array is indexed by G$JIT.MODE.  Each
      111      358                            entry in this array contains the address of
      112      359                            the array of the maximum number of each pseudo
      113      360                            resource that may be allocated for each user
      114      361                            mode.  The zero-th entry in this array contains
      115      362                            the address of GFR_PSUDO_MAX_SYS.
      116      363                            */
      117      364
      118      365    1   DCL GFR_PSUDO_MAX_SYS (0:7) SBIN WORD STATIC SYMDEF INIT(0*0);
      119      366                            /*K* GFR_PSUDO_MAX_SYS - ARRAY(0:7) SBIN WORD.  Contains
      120      367                            the maximum number of each pseudo resource that may be
      121      368                            allocated for all user modes.
      122      369                            */
      123      370    1   DCL GFR_PSUDO_MAX_USR (0:7) SBIN WORD STATIC SYMDEF INIT(0*0);
      124      371                            /*K* GFR_PSUDO_MAX_USR - ARRAY(0:7) SBIN WORD.  Contains
      125      372                            the maximum number of each pseudo resource that may be
      126      373                            allocated for all DCB connected users.
PL6.E3A0      #001=G_CNTRL_D File=G_CNTRL_D.:E05TSI                              TUE 07/29/97 22:17 Page:19
      127      374                            */
      128      375    1   DCL GFR_PSUDO_MAX_CG (0:7) SBIN WORD STATIC SYMDEF INIT(0*0);
      129      376                            /*K* GFR_PSUDO_MAX_CG - ARRAY(0:7) SBIN WORD.  Contains
      130      377                            the maximum number of each pseudo resource that may be
      131      378                            allocated for all CG connected users.
      132      379                            */
      133      380    1   DCL GFR_PSUDO_MAX_HND (0:7) SBIN WORD STATIC SYMDEF INIT(0*0);
      134      381                            /*K* GFR_PSUDO_MAX_HND - ARRAY(0:7) SBIN WORD.  Contains
      135      382                            the maximum number of each pseudo resource that may be
      136      383                            allocated for all handlers.
      137      384                            */
      138      385    1   DCL GFR_PSUDO_MAX_GST (0:7) SBIN WORD STATIC SYMDEF INIT(0*0);
      139      386                            /*K* GFR_PSUDO_MAX_GST - ARRAY(0:7) SBIN WORD.  Contains
      140      387                            the maximum number of each pseudo resource that may be
      141      388                            allocated for all system ghosts.
      142      389                            */
      143      390
      144      391
      145      392    1   DCL GFR_PSUDO_CUR$ (0:4) PTR CONSTANT SYMDEF
      146      393    1        INIT(ADDR(GFR_PSUDO_CUR_SYS),
      147      394    1            ADDR(GFR_PSUDO_CUR_USR),
      148      395    1            ADDR(GFR_PSUDO_CUR_CG),
      149      396    1            ADDR(GFR_PSUDO_CUR_HND),
      150      397    1            ADDR(GFR_PSUDO_CUR_GST));
      151      398                            /*K* GFR_PSUDO_CUR$ - ARRAY(0:4) PTR.
      152      399                            This array is indexed by G$JIT.MODE.  Each
      153      400                            entry in this array contains the address of
      154      401                            an array which contains the current number of each
      155      402                            pseudo resource that has been allocated for user
      156      403                            mode.  The zero-th entry in this array contains
      157      404                            the address of GFR_PSUDO_CUR_SYS.
      158      405                            */
      159      406
      160      407    1   DCL GFR_PSUDO_CUR_SYS (0:7) SBIN WORD STATIC SYMDEF INIT(0*0);
      161      408                            /*K* GFR_PSUDO_CUR_SYS - ARRAY(0:7) SBIN WORD.  Contains
      162      409                            the current number of each pseudo resource that may be
      163      410                            allocated for all user modes.
PL6.E3A0      #001=G_CNTRL_D File=G_CNTRL_D.:E05TSI                              TUE 07/29/97 22:17 Page:20
      164      411                            */
      165      412    1   DCL GFR_PSUDO_CUR_USR (0:7) SBIN WORD STATIC SYMDEF INIT(0*0);
      166      413                            /*K* GFR_PSUDO_CUR_USR - ARRAY(0:7) SBIN WORD.  Contains
      167      414                            the current number of each pseudo resource that may be
      168      415                            allocated for all DCB connected users.
      169      416                            */
      170      417    1   DCL GFR_PSUDO_CUR_CG (0:7) SBIN WORD STATIC SYMDEF INIT(0*0);
      171      418                            /*K* GFR_PSUDO_CUR_CG - ARRAY(0:7) SBIN WORD.  Contains
      172      419                            the current number of each pseudo resource that may be
      173      420                            allocated for all CG connected users.
      174      421                            */
      175      422    1   DCL GFR_PSUDO_CUR_HND (0:7) SBIN WORD STATIC SYMDEF INIT(0*0);
      176      423                            /*K* GFR_PSUDO_CUR_HND - ARRAY(0:7) SBIN WORD.  Contains
      177      424                            the current number of each pseudo resource that may be
      178      425                            allocated for all handlers.
      179      426                            */
      180      427    1   DCL GFR_PSUDO_CUR_GST (0:7) SBIN WORD STATIC SYMDEF INIT(0*0);
      181      428                            /*K* GFR_PSUDO_CUR_GST - ARRAY(0:7) SBIN WORD.  Contains
      182      429                            the current number of each pseudo resource that may be
      183      430                            allocated for all system ghosts.
      184      431                            */
      185      432
      186      433        %EJECT;
PL6.E3A0      #001=G_CNTRL_D File=G_CNTRL_D.:E05TSI                              TUE 07/29/97 22:17 Page:21
      187      434                            /* Scheduler Parameters                                   */
      188      435
      189      436    1   DCL GH_QMIN UBIN STATIC SYMDEF INIT(%GI_QMIN#);
      190      437                            /*K* GH_QMIN - UBIN.
      191      438                            Contains the minimum quantum time.
      192      439                            */
      193      440    1   DCL GH_QUAN UBIN STATIC SYMDEF INIT(%GI_QUAN#);
      194      441                            /*K* GH_QUAN - UBIN.
      195      442                            Contains the default quantum time.
      196      443                            */
      197      444    1   DCL GH_MF UBIN STATIC SYMDEF INIT(%GI_MF#);
      198      445                            /*K* GH_MF - UBIN.
      199      446                            Contains the master function limit.
      200      447                            */
      201      448    1   DCL GH_MFU UBIN STATIC SYMDEF INIT(%GI_MFU#);
      202      449                            /*K* GH_MFU - UBIN.
      203      450                            Contains the master function unblock limit.
      204      451                            */
      205      452    1   DCL G_XCONTIME UBIN STATIC SYMDEF INIT(%GI_XCONTIME#);
      206      453                            /*K* G_XCONTIME - UBIN.
      207      454                            Contains the time to be allowed a user
      208      455                            when a class 2 or 3 exit control condition
      209      456                            exists.
      210      457                            */
      211      458
      212      459    1   DCL GI_DUMP UBIN STATIC SYMDEF INIT(1);
      213      460                            /* GI_DUMP = {0|1}.  A zero indicates no dump
      214      461                            should be taken to diskette.  A one indicates
      215      462                            a dump should be taken. The default is one.
      216      463                            */
      217      464    1   END;

PL6.E3A0      #001=G_CNTRL_D File=G_CNTRL_D.:E05TSI                              TUE 07/29/97 22:17 Page:22
--  Include file information  --

   G_CNTRL_M.:E05TOU  is referenced.
   GI_BOOT_C.:E05TOU  is referenced.
   G_LCP6_E.:E05TOU  was found in the system file and is never referenced.
   GT_LCP6_M.:E05TOU  was found in the system file and is never referenced.
   KI_CP6.:E05TOU  was found in the system file and is never referenced.
   GF_LCP6_M.:E05TOU  was found in the system file and is never referenced.
   GM_LCP6_M.:E05TOU  was found in the system file and is never referenced.
   GU_LCP6_M.:E05TOU  was found in the system file and is never referenced.
   GJ_LCP6_M.:E05TOU  was found in the system file and is never referenced.
   GH_LCP6_M.:E05TOU  was found in the system file and is never referenced.
      No diagnostics issued in procedure G_CNTRL_D.
PL6.E3A0      #001=G_CNTRL_D File=G_CNTRL_D.:E05TSI                              TUE 07/29/97 22:17 Page:23

 **** Variables and constants ****

  ****  Section 001  Data  G_CNTRL_D

  ****  Scalars and arrays  ****
HexLoc.c.b A Datatyp(siz) R M Lvl/name                 HexLoc.c.b A Datatyp(siz) R M Lvl/name

     F-0-0/w UBIN(16)    r     1 GFR_CUR_MEM(0:4)
     A-0-0/w UBIN(16)    r     1 GFR_MAX_MEM(0:4)
    4D-0-0/w SBIN(16)    r     1 GFR_PSUDO_CUR_CG(0:7)
    5D-0-0/w SBIN(16)    r     1 GFR_PSUDO_CUR_GST(0:7)
    55-0-0/w SBIN(16)    r     1 GFR_PSUDO_CUR_HND(0:7)
    3D-0-0/w SBIN(16)    r     1 GFR_PSUDO_CUR_SYS(0:7)
    45-0-0/w SBIN(16)    r     1 GFR_PSUDO_CUR_USR(0:7)
    25-0-0/w SBIN(16)    r     1 GFR_PSUDO_MAX_CG(0:7)
    35-0-0/w SBIN(16)    r     1 GFR_PSUDO_MAX_GST(0:7)
    2D-0-0/w SBIN(16)    r     1 GFR_PSUDO_MAX_HND(0:7)
    15-0-0/w SBIN(16)    r     1 GFR_PSUDO_MAX_SYS(0:7)
    1D-0-0/w SBIN(16)    r     1 GFR_PSUDO_MAX_USR(0:7)
    65-0-0/w UBIN(16)    r     1 GH_QMIN                   66-0-0/w UBIN(16)    r     1 GH_QUAN
    6A-0-0/w UBIN(16)    r     1 GI_DUMP
     5-0-0/w UBIN(16)    r     1 G_CUR_USRS(0:4)
     0-0-0/w UBIN(16)    r     1 G_MAX_USRS(0:4)
    69-0-0/w UBIN(16)    r     1 G_XCONTIME

  ****  SYMREF variables  ****

  ****  Scalars and arrays  ****
HexLoc.c.b A Datatyp(siz) R M Lvl/name                 HexLoc.c.b A Datatyp(siz) R M Lvl/name

     0-0-0/w UBIN(16)    r     1 GH_KEEPDELTA               0-0-0/w UBIN(16)    r     1 GJ_SFILE_MAX_DATA


   No code generated for procedure G_CNTRL_D .
   Procedure G_CNTRL_D requires 4 words of local(AUTO) storage.
PL6.E3A0      #001=G_CNTRL_D File=G_CNTRL_D.:E05TSI                              TUE 07/29/97 22:17 Page:24

    No errors detected in file G_CNTRL_D.:E05TSI    .
PL6.E3A0      #001=G_CNTRL_D File=G_CNTRL_D.:E05TSI                              TUE 07/29/97 22:17 Page:25
          *** CROSS REFERENCE LISTING ***
**     DENOTES     IDENTIFIER DEFINITION
<<                 IDENTIFIER'S VALUE SET
>>                 IDENTIFIER'S VALUE USED
<>                 IDENTIFIER SET AND/OR USED
--                 IDENTIFIER REFERENCED
PL6.E3A0      #001=G_CNTRL_D File=G_CNTRL_D.:E05TSI                              TUE 07/29/97 22:17 Page:26
          MINI XREF LISTING

GFR_CUR_MEM
       325**DCL       270--DCLINIT   271--DCLINIT   272--DCLINIT   273--DCLINIT   274--DCLINIT
GFR_MAX_MEM
       310**DCL       253--DCLINIT   254--DCLINIT   255--DCLINIT   256--DCLINIT   257--DCLINIT
GFR_PSUDO_CUR_CG
       417**DCL       395--DCLINIT
GFR_PSUDO_CUR_GST
       427**DCL       397--DCLINIT
GFR_PSUDO_CUR_HND
       422**DCL       396--DCLINIT
GFR_PSUDO_CUR_SYS
       407**DCL       393--DCLINIT
GFR_PSUDO_CUR_USR
       412**DCL       394--DCLINIT
GFR_PSUDO_MAX_CG
       375**DCL       353--DCLINIT
GFR_PSUDO_MAX_GST
       385**DCL       355--DCLINIT
GFR_PSUDO_MAX_HND
       380**DCL       354--DCLINIT
GFR_PSUDO_MAX_SYS
       365**DCL       351--DCLINIT
GFR_PSUDO_MAX_USR
       370**DCL       352--DCLINIT
GH_KEEPDELTA
       203**DCL       259--DCLINIT
GH_QMIN
       436**DCL       245--DCLINIT
GH_QUAN
       440**DCL       246--DCLINIT
GI_DUMP
       459**DCL       258--DCLINIT
PL6.E3A0      #001=G_CNTRL_D File=G_CNTRL_D.:E05TSI                              TUE 07/29/97 22:17 Page:27
GJ_SFILE_MAX_DATA
       204**DCL       260--DCLINIT
G_CUR_USRS
       297**DCL       265--DCLINIT   266--DCLINIT   267--DCLINIT   268--DCLINIT   269--DCLINIT
G_MAX_USRS
       282**DCL       248--DCLINIT   249--DCLINIT   250--DCLINIT   251--DCLINIT   252--DCLINIT
G_XCONTIME
       452**DCL       247--DCLINIT
