VERSION E05

PL6.E3A0      #001=G_COPYRIGHT File=G_COPYRIGHT.:E05TSI                          TUE 07/29/97 22:17 Page:1
        1        1        /*M*  G_COPYRIGHT - Copyright text */
        2        2        /*T***********************************************************/
        3        3        /*T*                                                         */
        4        4        /*T* Copyright (c) Bull HN Information Systems Inc., 1997    */
        5        5        /*T*                                                         */
        6        6        /*T***********************************************************/
        7        7        /**/
        8        8        /**/
        9        9        /**/
       10       10        G_COPYRIGHT: PROC;
       11       11        %INCLUDE B_COPYRIGHT_E;
       12       22    1   DCL COPYRIGHT CONSTANT SYMDEF CHAR(0) INIT
       13       23    1      (%COPYRIGHT_TEXT);
       14       24    1   END G_COPYRIGHT;

PL6.E3A0      #001=G_COPYRIGHT File=G_COPYRIGHT.:E05TSI                          TUE 07/29/97 22:17 Page:2
--  Include file information  --

   B_COPYRIGHT_E.:E05TOU  is referenced.
      No diagnostics issued in procedure G_COPYRIGHT.

   No code generated for procedure G_COPYRIGHT .
   Procedure G_COPYRIGHT requires 4 words of local(AUTO) storage.

    No errors detected in file G_COPYRIGHT.:E05TSI    .

PL6.E3A0      #001=G_COPYRIGHT File=G_COPYRIGHT.:E05TSI                          TUE 07/29/97 22:17 Page:3

 Object Unit name= G_COPYRIGHT                                File name= G_COPYRIGHT.:E05TOU
 UTS= JUL 29 '97 22:17:53.12 TUE                              Compiler= PL-6/E31         Sev=      00
 SharedLib= :SHARED_LCP6_SYSTEM                               Alt SharedLib=


    ****  Control sections  ****

 Sect   Type Bound  Init  Size HexSiz  Section name
    0  RoData even  UTS     26     1A  G_COPYRIGHT
    1   Proc  even  none     0      0  G_COPYRIGHT

    ****  Entry defs  ****

                              Check   Calling
                             calling  sequence
  Sect HexLoc Primary Altret sequence   type   Parms  Name
     1      0   yes            yes     ~proc       0  G_COPYRIGHT

  ****  Data defs  ****

 Sect HexLoc  Name                           Sect HexLoc  Name
    0      0  COPYRIGHT

  ****  Data refs  ****

  Flags:  r = read only, s = secondary
Flgs Name                             Flgs Name                             Flgs Name
r    G$ROS$
PL6.E3A0      #001=G_COPYRIGHT File=G_COPYRIGHT.:E05TSI                          TUE 07/29/97 22:17 Page:4

        1        1        /*M*  G_COPYRIGHT - Copyright text */
        2        2        /*T***********************************************************/
        3        3        /*T*                                                         */
        4        4        /*T* Copyright (c) Bull HN Information Systems Inc., 1997    */
        5        5        /*T*                                                         */
        6        6        /*T***********************************************************/
        7        7        /**/
        8        8        /**/
        9        9        /**/
       10       10        G_COPYRIGHT: PROC;
       11       11        %INCLUDE B_COPYRIGHT_E;
       12       22    1   DCL COPYRIGHT CONSTANT SYMDEF CHAR(0) INIT
       13       23    1      (%COPYRIGHT_TEXT);
       14       24    1   END G_COPYRIGHT;

PL6.E3A0      #001=G_COPYRIGHT File=G_COPYRIGHT.:E05TSI                          TUE 07/29/97 22:17 Page:5
--  Include file information  --

   B_COPYRIGHT_E.:E05TOU  is referenced.
      No diagnostics issued in procedure G_COPYRIGHT.
PL6.E3A0      #001=G_COPYRIGHT File=G_COPYRIGHT.:E05TSI                          TUE 07/29/97 22:17 Page:6

 **** Variables and constants ****


   No code generated for procedure G_COPYRIGHT .
   Procedure G_COPYRIGHT requires 4 words of local(AUTO) storage.

    No errors detected in file G_COPYRIGHT.:E05TSI    .
PL6.E3A0      #001=G_COPYRIGHT File=G_COPYRIGHT.:E05TSI                          TUE 07/29/97 22:17 Page:7
          *** CROSS REFERENCE LISTING ***
**     DENOTES     IDENTIFIER DEFINITION
<<                 IDENTIFIER'S VALUE SET
>>                 IDENTIFIER'S VALUE USED
<>                 IDENTIFIER SET AND/OR USED
--                 IDENTIFIER REFERENCED
PL6.E3A0      #001=G_COPYRIGHT File=G_COPYRIGHT.:E05TSI                          TUE 07/29/97 22:17 Page:8
          MINI XREF LISTING

