VERSION E05

PL6.E3A0      #001=G_MPTRS_D File=G_MPTRS_D.:E05TSI                              TUE 07/29/97 22:18 Page:1
        1        1        /*M* G_MPTRS_D   System-wide pointers for LCP-6           */
        2        2        /*T***********************************************************/
        3        3        /*T*                                                         */
        4        4        /*T* Copyright (c) Bull HN Information Systems Inc., 1997    */
        5        5        /*T*                                                         */
        6        6        /*T***********************************************************/
        7        7
        8        8        G_MPTRS_D: PROC;
        9        9
       10       10        /*F*  NAME: G_MPTRS_D
       11       11              DESCRIPTION:
       12       12
       13       13        The G_MPTRS_D module contains the pointers to specific
       14       14        portions of the monitor's and user's virtual memory.
       15       15
       16       16        Pointers SYMDEFed in this module that are initialized at
       17       17        compile time are DCLed as UBIN(32) and INITed to the
       18       18        appropriate %EQU from the GM_VIRTUAL_E file.  The first
       19       19        31 pointers defined in this module are INITed to the
       20       20        virtual address of the base of the 16 4K segments and
       21       21        the 15 64 K segments.
       22       22
       23       23        These first 31 pointers defined must be kept in order
       24       24        and not added to or deleted from.  They can then be viewed as
       25       25        an array of pointers and used as the value to be loaded into
       26       26        the B5 register prior to executing an ASD instruction:
       27       27        }
       28       28        }  DCL G$SEG$(0:30) PTR SYMREF;
       29       29        }
       30       30        */
       31       31        %EJECT;
PL6.E3A0      #001=G_MPTRS_D File=G_MPTRS_D.:E05TSI                              TUE 07/29/97 22:18 Page:2
       32       32
       33       33        %INCLUDE GM_VIRTUAL_E;
       34      243
       35      244
       36      245    1   DCL G$SEG$ UBIN(32) CONSTANT SYMDEF INIT(0);  /* this is the null segment */
       37      246    1   DCL G$ROS$ UBIN(32) CONSTANT SYMDEF INIT(%GM_ROS_BASE);
       38      247    1   DCL G$DB_DS$ UBIN(32) CONSTANT SYMDEF INIT(%GM_DB_DS_BASE);
       39      248    1   DCL G$LOW_MEM$ UBIN(32) CONSTANT SYMDEF INIT(%GM_LOW_MEM_BASE);
       40      249    1   DCL G$TSTACK$ UBIN(32) CONSTANT SYMDEF INIT(%GM_TSTACK_BASE);
       41      250    1   DCL G$UHJIT$ UBIN(32) CONSTANT SYMDEF INIT(%GM_UHJIT_BASE);
       42      251    1   DCL G$MHJIT$ UBIN(32) CONSTANT SYMDEF INIT(%GM_MHJIT_BASE);
       43      252    1   DCL G$SEG0007$ UBIN(32) CONSTANT SYMDEF INIT(%GM_SEG0007_BASE);
       44      253    1   DCL G$MON_ENT_DATA$ UBIN(32) CONSTANT SYMDEF INIT(%GM_MON_ENT_DATA_BASE);
       45      254    1   DCL G$MON_ENT$ UBIN(32) CONSTANT SYMDEF INIT(%GM_MON_ENT_BASE);
       46      255    1   DCL G$LPAR1$ UBIN(32) CONSTANT SYMDEF INIT(%GM_LPAR1_BASE);
       47      256    1   DCL G$LPAR2$ UBIN(32) CONSTANT SYMDEF INIT(%GM_LPAR2_BASE);
       48      257    1   DCL G$LPAR3$ UBIN(32) CONSTANT SYMDEF INIT(%GM_LPAR3_BASE);
       49      258    1   DCL G$LPAR4$ UBIN(32) CONSTANT SYMDEF INIT(%GM_LPAR4_BASE);
       50      259    1   DCL G$LPAR5$ UBIN(32) CONSTANT SYMDEF INIT(%GM_LPAR5_BASE);
       51      260    1   DCL G$LPAR6$ UBIN(32) CONSTANT SYMDEF INIT(%GM_LPAR6_BASE);
       52      261
       53      262    1   DCL G$ISR1$ UBIN(32) CONSTANT SYMDEF INIT(%GM_ISR1_BASE);
       54      263    1   DCL G$ISR2$ UBIN(32) CONSTANT SYMDEF INIT(%GM_ISR2_BASE);
       55      264    1   DCL G$ISR3$ UBIN(32) CONSTANT SYMDEF INIT(%GM_ISR3_BASE);
       56      265    1   DCL G$ISR4$ UBIN(32) CONSTANT SYMDEF INIT(%GM_ISR4_BASE);
       57      266    1   DCL G$ISR5$ UBIN(32) CONSTANT SYMDEF INIT(%GM_ISR5_BASE);
       58      267    1   DCL G$ISR6$ UBIN(32) CONSTANT SYMDEF INIT(%GM_ISR6_BASE);
       59      268    1   DCL G$ISR7$ UBIN(32) CONSTANT SYMDEF INIT(%GM_ISR7_BASE);
       60      269    1   DCL G$DB_PROC$ UBIN(32) CONSTANT SYMDEF INIT(%GM_DB_PROC_BASE);
       61      270    1   DCL G$WINDOW1$ UBIN(32) CONSTANT SYMDEF INIT(%GM_WINDOW1_BASE);
       62      271    1   DCL G$UAUTO_DS$ UBIN(32) CONSTANT SYMDEF INIT(%GM_UAUTO_DS_BASE);
       63      272    1   DCL G$CBUFFER$ UBIN(32) CONSTANT SYMDEF INIT(%GM_CBUFFER_BASE);
       64      273    1   DCL G$PPUT$ UBIN(32) CONSTANT SYMDEF INIT(%GM_PPUT_BASE);
       65      274    1   DCL G$BOBCAT$ UBIN(32) CONSTANT SYMDEF INIT(%GM_BOBCAT_BASE);
       66      275    1   DCL G$HAND_Q$ UBIN(32) CONSTANT SYMDEF INIT(%GM_HAND_Q_BASE);
       67      276    1   DCL G$SEG1400$ UBIN(32) CONSTANT SYMDEF INIT(%GM_SEG1400_BASE);
       68      277    1   DCL G$SEG1500$ UBIN(32) CONSTANT SYMDEF INIT(%GM_SEG1500_BASE);
PL6.E3A0      #001=G_MPTRS_D File=G_MPTRS_D.:E05TSI                              TUE 07/29/97 22:18 Page:3
       69      278
       70      279        /*
       71      280        The following pointers redefine one of those defed above.  They
       72      281        are included to give meaningful names to the segments.
       73      282        */
       74      283    1   DCL G$USRDS1$ UBIN(32) CONSTANT SYMDEF INIT(%GM_USRDS1_BASE);
       75      284    1   DCL G$USRDS2$ UBIN(32) CONSTANT SYMDEF INIT(%GM_USRDS2_BASE);
       76      285    1   DCL G$CP_DS$ UBIN(32) CONSTANT SYMDEF INIT(%GM_CP_DS_BASE);
       77      286    1   DCL G$BPAR1$ UBIN(32) CONSTANT SYMDEF INIT(%GM_BPAR1_BASE);
       78      287    1   DCL G$BPAR2$ UBIN(32) CONSTANT SYMDEF INIT(%GM_BPAR2_BASE);
       79      288    1   DCL G$USRDS3$ UBIN(32) CONSTANT SYMDEF INIT(%GM_USRDS3_BASE);
       80      289    1   DCL G$USRDS4$ UBIN(32) CONSTANT SYMDEF INIT(%GM_USRDS4_BASE);
       81      290    1   DCL G$CP_PROC$ UBIN(32) CONSTANT SYMDEF INIT(%GM_CP_PROC_BASE);
       82      291
       83      292
       84      293        /*
       85      294        The following pointers must be initialized by BIGFOOT.
       86      295        This set of pointers can (should) be added to and deleted
       87      296        from as the needs of the development process dictates.
       88      297        */
       89      298        /*  Pointers depending on size values               */
       90      299    1   DCL G$TSTACKM$ UBIN(32) CONSTANT SYMDEF;
       91      300    1   DCL G$TSTACKU$ UBIN(32) CONSTANT SYMDEF;
       92      301
       93      302        /*  Pointers with the monitor's HJIT                */
       94      303    1   DCL G$ASDT_MON$ PTR CONSTANT SYMDEF;
       95      304    1   DCL G$ASDT_CIH$ PTR CONSTANT SYMDEF;
       96      305    1   DCL G$ISA_RT_CLOCK$ PTR CONSTANT SYMDEF;
       97      306    1   DCL G$TSA_MON$ PTR CONSTANT SYMDEF;
       98      307    1   DCL G$TSA_OV$ PTR CONSTANT SYMDEF;
       99      308    1   DCL G$ASDT_BIGFOOT$ PTR CONSTANT SYMDEF;
      100      309    1   DCL G$ISA_PFS$ PTR CONSTANT SYMDEF;
      101      310    1   DCL G$ISA_WDOG$ PTR CONSTANT SYMDEF;
      102      311    1   DCL G$ISA_OV$ PTR CONSTANT SYMDEF;
      103      312    1   DCL G$ISA_BIGFOOT$ PTR CONSTANT SYMDEF;
      104      313    1   DCL G$ISA_LVL5$ PTR CONSTANT SYMDEF;
      105      314    1   DCL G$ISA_SATYR_RCV$ PTR CONSTANT SYMDEF;
PL6.E3A0      #001=G_MPTRS_D File=G_MPTRS_D.:E05TSI                              TUE 07/29/97 22:18 Page:4
      106      315    1   DCL G$ISA_SATYR_TRN$ PTR CONSTANT SYMDEF;
      107      316    1   DCL G$ISA_DBINH$ PTR CONSTANT SYMDEF;
      108      317    1   DCL G$ISA_LVL10$ PTR CONSTANT SYMDEF;
      109      318    1   DCL G$ISA_LVL11$ PTR CONSTANT SYMDEF;
      110      319    1   DCL G$ISA_LVL12$ PTR CONSTANT SYMDEF;
      111      320
      112      321        /*
      113      322        The following pointer is initialized by the debugger after he
      114      323        has moved his data from CONSTANT Storage to his data segment.
      115      324        */
      116      325    1   DCL G$DBG_FLG$ PTR CONSTANT SYMDEF;
      117      326
      118      327        /*  Pointers with the user's HJIT                */
      119      328    1   DCL G$ASDT_USR$ PTR CONSTANT SYMDEF;
      120      329    1   DCL G$ASDT_MCL$ PTR CONSTANT SYMDEF;
      121      330    1   DCL G$ISA_USR$ PTR CONSTANT SYMDEF;
      122      331    1   DCL G$TSA_USR$ PTR CONSTANT SYMDEF;
      123      332    1   DCL G$TSA_DB$ PTR CONSTANT SYMDEF;
      124      333    1   DCL G$TSA_CP$ PTR CONSTANT SYMDEF;
      125      334    1   DCL G$TSA_RTT$ PTR CONSTANT SYMDEF;
      126      335
      127      336        /*  Pointers with the user's Read Only Segment                */
      128      337    1   DCL G$JIT$ PTR CONSTANT SYMDEF;
      129      338    1   DCL G$U_ECCB$ PTR CONSTANT SYMDEF;
      130      339    1   DCL G$DB_ECCB$ PTR CONSTANT SYMDEF;
      131      340    1   DCL G$CP_ECCB$ PTR CONSTANT SYMDEF;
      132      341    1   DCL G$DCBPTR$ PTR CONSTANT SYMDEF;
      133      342    1   DCL G$TCB$ PTR CONSTANT SYMDEF;
      134      343
      135      344        /*  MISC Pointers                         */
      136      345    1   DCL G$TSTACKD$ PTR CONSTANT SYMDEF;
      137      346    1   END;

PL6.E3A0      #001=G_MPTRS_D File=G_MPTRS_D.:E05TSI                              TUE 07/29/97 22:18 Page:5
--  Include file information  --

   GM_VIRTUAL_E.:E05TOU  is referenced.
   G_LCP6_E.:E05TOU  was found in the system file and is never referenced.
   GT_LCP6_M.:E05TOU  was found in the system file and is never referenced.
   KI_CP6.:E05TOU  was found in the system file and is never referenced.
   GF_LCP6_M.:E05TOU  was found in the system file and is never referenced.
   GM_LCP6_M.:E05TOU  was found in the system file and is never referenced.
   GU_LCP6_M.:E05TOU  was found in the system file and is never referenced.
   GJ_LCP6_M.:E05TOU  was found in the system file and is never referenced.
   GH_LCP6_M.:E05TOU  was found in the system file and is never referenced.
      No diagnostics issued in procedure G_MPTRS_D.

   No code generated for procedure G_MPTRS_D .
   Procedure G_MPTRS_D requires 4 words of local(AUTO) storage.

    No errors detected in file G_MPTRS_D.:E05TSI    .

PL6.E3A0      #001=G_MPTRS_D File=G_MPTRS_D.:E05TSI                              TUE 07/29/97 22:18 Page:6

 Object Unit name= G_MPTRS_D                                  File name= G_MPTRS_D.:E05TOU
 UTS= JUL 29 '97 22:18:57.76 TUE                              Compiler= PL-6/E31         Sev=      00
 SharedLib= :SHARED_LCP6_SYSTEM                               Alt SharedLib=


    ****  Control sections  ****

 Sect   Type Bound  Init  Size HexSiz  Section name
    0  RoData even  UTS    148     94  G_MPTRS_D
    1   Proc  even  none     0      0  G_MPTRS_D

    ****  Entry defs  ****

                              Check   Calling
                             calling  sequence
  Sect HexLoc Primary Altret sequence   type   Parms  Name
     1      0   yes            yes     ~proc       0  G_MPTRS_D

  ****  Data defs  ****

 Sect HexLoc  Name                           Sect HexLoc  Name
    0      0  G$SEG$                             0      2  G$ROS$
    0      4  G$DB_DS$                           0      6  G$LOW_MEM$
    0      8  G$TSTACK$                          0      A  G$UHJIT$
    0      C  G$MHJIT$                           0      E  G$SEG0007$
    0     10  G$MON_ENT_DATA$                    0     12  G$MON_ENT$
    0     14  G$LPAR1$                           0     16  G$LPAR2$
    0     18  G$LPAR3$                           0     1A  G$LPAR4$
    0     1C  G$LPAR5$                           0     1E  G$LPAR6$
    0     20  G$ISR1$                            0     22  G$ISR2$
    0     24  G$ISR3$                            0     26  G$ISR4$
    0     28  G$ISR5$                            0     2A  G$ISR6$
    0     2C  G$ISR7$                            0     2E  G$DB_PROC$
    0     30  G$WINDOW1$                         0     32  G$UAUTO_DS$
    0     34  G$CBUFFER$                         0     36  G$PPUT$
    0     38  G$BOBCAT$                          0     3A  G$HAND_Q$
    0     3C  G$SEG1400$                         0     3E  G$SEG1500$
PL6.E3A0      #001=G_MPTRS_D File=G_MPTRS_D.:E05TSI                              TUE 07/29/97 22:18 Page:7
    0     40  G$USRDS1$                          0     42  G$USRDS2$
    0     44  G$CP_DS$                           0     46  G$BPAR1$
    0     48  G$BPAR2$                           0     4A  G$USRDS3$
    0     4C  G$USRDS4$                          0     4E  G$CP_PROC$
    0     50  G$TSTACKM$                         0     52  G$TSTACKU$
    0     54  G$ASDT_MON$                        0     56  G$ASDT_CIH$
    0     58  G$ISA_RT_CLOCK$                    0     5A  G$TSA_MON$
    0     5C  G$TSA_OV$                          0     5E  G$ASDT_BIGFOOT$
    0     60  G$ISA_PFS$                         0     62  G$ISA_WDOG$
    0     64  G$ISA_OV$                          0     66  G$ISA_BIGFOOT$
    0     68  G$ISA_LVL5$                        0     6A  G$ISA_SATYR_RCV$
    0     6C  G$ISA_SATYR_TRN$                   0     6E  G$ISA_DBINH$
    0     70  G$ISA_LVL10$                       0     72  G$ISA_LVL11$
    0     74  G$ISA_LVL12$                       0     76  G$DBG_FLG$
    0     78  G$ASDT_USR$                        0     7A  G$ASDT_MCL$
    0     7C  G$ISA_USR$                         0     7E  G$TSA_USR$
    0     80  G$TSA_DB$                          0     82  G$TSA_CP$
    0     84  G$TSA_RTT$                         0     86  G$JIT$
    0     88  G$U_ECCB$                          0     8A  G$DB_ECCB$
    0     8C  G$CP_ECCB$                         0     8E  G$DCBPTR$
    0     90  G$TCB$                             0     92  G$TSTACKD$

  ****  Data refs  ****

  Flags:  r = read only, s = secondary
Flgs Name                             Flgs Name                             Flgs Name
r    G$ROS$
PL6.E3A0      #001=G_MPTRS_D File=G_MPTRS_D.:E05TSI                              TUE 07/29/97 22:18 Page:8

        1        1        /*M* G_MPTRS_D   System-wide pointers for LCP-6           */
        2        2        /*T***********************************************************/
        3        3        /*T*                                                         */
        4        4        /*T* Copyright (c) Bull HN Information Systems Inc., 1997    */
        5        5        /*T*                                                         */
        6        6        /*T***********************************************************/
        7        7
        8        8        G_MPTRS_D: PROC;
        9        9
       10       10        /*F*  NAME: G_MPTRS_D
       11       11              DESCRIPTION:
       12       12
       13       13        The G_MPTRS_D module contains the pointers to specific
       14       14        portions of the monitor's and user's virtual memory.
       15       15
       16       16        Pointers SYMDEFed in this module that are initialized at
       17       17        compile time are DCLed as UBIN(32) and INITed to the
       18       18        appropriate %EQU from the GM_VIRTUAL_E file.  The first
       19       19        31 pointers defined in this module are INITed to the
       20       20        virtual address of the base of the 16 4K segments and
       21       21        the 15 64 K segments.
       22       22
       23       23        These first 31 pointers defined must be kept in order
       24       24        and not added to or deleted from.  They can then be viewed as
       25       25        an array of pointers and used as the value to be loaded into
       26       26        the B5 register prior to executing an ASD instruction:
       27       27        }
       28       28        }  DCL G$SEG$(0:30) PTR SYMREF;
       29       29        }
       30       30        */
       31       31        %EJECT;
PL6.E3A0      #001=G_MPTRS_D File=G_MPTRS_D.:E05TSI                              TUE 07/29/97 22:18 Page:9
       32       32
       33       33        %INCLUDE GM_VIRTUAL_E;
       34      243
       35      244
       36      245    1   DCL G$SEG$ UBIN(32) CONSTANT SYMDEF INIT(0);  /* this is the null segment */
       37      246    1   DCL G$ROS$ UBIN(32) CONSTANT SYMDEF INIT(%GM_ROS_BASE);
       38      247    1   DCL G$DB_DS$ UBIN(32) CONSTANT SYMDEF INIT(%GM_DB_DS_BASE);
       39      248    1   DCL G$LOW_MEM$ UBIN(32) CONSTANT SYMDEF INIT(%GM_LOW_MEM_BASE);
       40      249    1   DCL G$TSTACK$ UBIN(32) CONSTANT SYMDEF INIT(%GM_TSTACK_BASE);
       41      250    1   DCL G$UHJIT$ UBIN(32) CONSTANT SYMDEF INIT(%GM_UHJIT_BASE);
       42      251    1   DCL G$MHJIT$ UBIN(32) CONSTANT SYMDEF INIT(%GM_MHJIT_BASE);
       43      252    1   DCL G$SEG0007$ UBIN(32) CONSTANT SYMDEF INIT(%GM_SEG0007_BASE);
       44      253    1   DCL G$MON_ENT_DATA$ UBIN(32) CONSTANT SYMDEF INIT(%GM_MON_ENT_DATA_BASE);
       45      254    1   DCL G$MON_ENT$ UBIN(32) CONSTANT SYMDEF INIT(%GM_MON_ENT_BASE);
       46      255    1   DCL G$LPAR1$ UBIN(32) CONSTANT SYMDEF INIT(%GM_LPAR1_BASE);
       47      256    1   DCL G$LPAR2$ UBIN(32) CONSTANT SYMDEF INIT(%GM_LPAR2_BASE);
       48      257    1   DCL G$LPAR3$ UBIN(32) CONSTANT SYMDEF INIT(%GM_LPAR3_BASE);
       49      258    1   DCL G$LPAR4$ UBIN(32) CONSTANT SYMDEF INIT(%GM_LPAR4_BASE);
       50      259    1   DCL G$LPAR5$ UBIN(32) CONSTANT SYMDEF INIT(%GM_LPAR5_BASE);
       51      260    1   DCL G$LPAR6$ UBIN(32) CONSTANT SYMDEF INIT(%GM_LPAR6_BASE);
       52      261
       53      262    1   DCL G$ISR1$ UBIN(32) CONSTANT SYMDEF INIT(%GM_ISR1_BASE);
       54      263    1   DCL G$ISR2$ UBIN(32) CONSTANT SYMDEF INIT(%GM_ISR2_BASE);
       55      264    1   DCL G$ISR3$ UBIN(32) CONSTANT SYMDEF INIT(%GM_ISR3_BASE);
       56      265    1   DCL G$ISR4$ UBIN(32) CONSTANT SYMDEF INIT(%GM_ISR4_BASE);
       57      266    1   DCL G$ISR5$ UBIN(32) CONSTANT SYMDEF INIT(%GM_ISR5_BASE);
       58      267    1   DCL G$ISR6$ UBIN(32) CONSTANT SYMDEF INIT(%GM_ISR6_BASE);
       59      268    1   DCL G$ISR7$ UBIN(32) CONSTANT SYMDEF INIT(%GM_ISR7_BASE);
       60      269    1   DCL G$DB_PROC$ UBIN(32) CONSTANT SYMDEF INIT(%GM_DB_PROC_BASE);
       61      270    1   DCL G$WINDOW1$ UBIN(32) CONSTANT SYMDEF INIT(%GM_WINDOW1_BASE);
       62      271    1   DCL G$UAUTO_DS$ UBIN(32) CONSTANT SYMDEF INIT(%GM_UAUTO_DS_BASE);
       63      272    1   DCL G$CBUFFER$ UBIN(32) CONSTANT SYMDEF INIT(%GM_CBUFFER_BASE);
       64      273    1   DCL G$PPUT$ UBIN(32) CONSTANT SYMDEF INIT(%GM_PPUT_BASE);
       65      274    1   DCL G$BOBCAT$ UBIN(32) CONSTANT SYMDEF INIT(%GM_BOBCAT_BASE);
       66      275    1   DCL G$HAND_Q$ UBIN(32) CONSTANT SYMDEF INIT(%GM_HAND_Q_BASE);
       67      276    1   DCL G$SEG1400$ UBIN(32) CONSTANT SYMDEF INIT(%GM_SEG1400_BASE);
       68      277    1   DCL G$SEG1500$ UBIN(32) CONSTANT SYMDEF INIT(%GM_SEG1500_BASE);
PL6.E3A0      #001=G_MPTRS_D File=G_MPTRS_D.:E05TSI                              TUE 07/29/97 22:18 Page:10
       69      278
       70      279        /*
       71      280        The following pointers redefine one of those defed above.  They
       72      281        are included to give meaningful names to the segments.
       73      282        */
       74      283    1   DCL G$USRDS1$ UBIN(32) CONSTANT SYMDEF INIT(%GM_USRDS1_BASE);
       75      284    1   DCL G$USRDS2$ UBIN(32) CONSTANT SYMDEF INIT(%GM_USRDS2_BASE);
       76      285    1   DCL G$CP_DS$ UBIN(32) CONSTANT SYMDEF INIT(%GM_CP_DS_BASE);
       77      286    1   DCL G$BPAR1$ UBIN(32) CONSTANT SYMDEF INIT(%GM_BPAR1_BASE);
       78      287    1   DCL G$BPAR2$ UBIN(32) CONSTANT SYMDEF INIT(%GM_BPAR2_BASE);
       79      288    1   DCL G$USRDS3$ UBIN(32) CONSTANT SYMDEF INIT(%GM_USRDS3_BASE);
       80      289    1   DCL G$USRDS4$ UBIN(32) CONSTANT SYMDEF INIT(%GM_USRDS4_BASE);
       81      290    1   DCL G$CP_PROC$ UBIN(32) CONSTANT SYMDEF INIT(%GM_CP_PROC_BASE);
       82      291
       83      292
       84      293        /*
       85      294        The following pointers must be initialized by BIGFOOT.
       86      295        This set of pointers can (should) be added to and deleted
       87      296        from as the needs of the development process dictates.
       88      297        */
       89      298        /*  Pointers depending on size values               */
       90      299    1   DCL G$TSTACKM$ UBIN(32) CONSTANT SYMDEF;
       91      300    1   DCL G$TSTACKU$ UBIN(32) CONSTANT SYMDEF;
       92      301
       93      302        /*  Pointers with the monitor's HJIT                */
       94      303    1   DCL G$ASDT_MON$ PTR CONSTANT SYMDEF;
       95      304    1   DCL G$ASDT_CIH$ PTR CONSTANT SYMDEF;
       96      305    1   DCL G$ISA_RT_CLOCK$ PTR CONSTANT SYMDEF;
       97      306    1   DCL G$TSA_MON$ PTR CONSTANT SYMDEF;
       98      307    1   DCL G$TSA_OV$ PTR CONSTANT SYMDEF;
       99      308    1   DCL G$ASDT_BIGFOOT$ PTR CONSTANT SYMDEF;
      100      309    1   DCL G$ISA_PFS$ PTR CONSTANT SYMDEF;
      101      310    1   DCL G$ISA_WDOG$ PTR CONSTANT SYMDEF;
      102      311    1   DCL G$ISA_OV$ PTR CONSTANT SYMDEF;
      103      312    1   DCL G$ISA_BIGFOOT$ PTR CONSTANT SYMDEF;
      104      313    1   DCL G$ISA_LVL5$ PTR CONSTANT SYMDEF;
      105      314    1   DCL G$ISA_SATYR_RCV$ PTR CONSTANT SYMDEF;
PL6.E3A0      #001=G_MPTRS_D File=G_MPTRS_D.:E05TSI                              TUE 07/29/97 22:18 Page:11
      106      315    1   DCL G$ISA_SATYR_TRN$ PTR CONSTANT SYMDEF;
      107      316    1   DCL G$ISA_DBINH$ PTR CONSTANT SYMDEF;
      108      317    1   DCL G$ISA_LVL10$ PTR CONSTANT SYMDEF;
      109      318    1   DCL G$ISA_LVL11$ PTR CONSTANT SYMDEF;
      110      319    1   DCL G$ISA_LVL12$ PTR CONSTANT SYMDEF;
      111      320
      112      321        /*
      113      322        The following pointer is initialized by the debugger after he
      114      323        has moved his data from CONSTANT Storage to his data segment.
      115      324        */
      116      325    1   DCL G$DBG_FLG$ PTR CONSTANT SYMDEF;
      117      326
      118      327        /*  Pointers with the user's HJIT                */
      119      328    1   DCL G$ASDT_USR$ PTR CONSTANT SYMDEF;
      120      329    1   DCL G$ASDT_MCL$ PTR CONSTANT SYMDEF;
      121      330    1   DCL G$ISA_USR$ PTR CONSTANT SYMDEF;
      122      331    1   DCL G$TSA_USR$ PTR CONSTANT SYMDEF;
      123      332    1   DCL G$TSA_DB$ PTR CONSTANT SYMDEF;
      124      333    1   DCL G$TSA_CP$ PTR CONSTANT SYMDEF;
      125      334    1   DCL G$TSA_RTT$ PTR CONSTANT SYMDEF;
      126      335
      127      336        /*  Pointers with the user's Read Only Segment                */
      128      337    1   DCL G$JIT$ PTR CONSTANT SYMDEF;
      129      338    1   DCL G$U_ECCB$ PTR CONSTANT SYMDEF;
      130      339    1   DCL G$DB_ECCB$ PTR CONSTANT SYMDEF;
      131      340    1   DCL G$CP_ECCB$ PTR CONSTANT SYMDEF;
      132      341    1   DCL G$DCBPTR$ PTR CONSTANT SYMDEF;
      133      342    1   DCL G$TCB$ PTR CONSTANT SYMDEF;
      134      343
      135      344        /*  MISC Pointers                         */
      136      345    1   DCL G$TSTACKD$ PTR CONSTANT SYMDEF;
      137      346    1   END;

PL6.E3A0      #001=G_MPTRS_D File=G_MPTRS_D.:E05TSI                              TUE 07/29/97 22:18 Page:12
--  Include file information  --

   GM_VIRTUAL_E.:E05TOU  is referenced.
   G_LCP6_E.:E05TOU  was found in the system file and is never referenced.
   GT_LCP6_M.:E05TOU  was found in the system file and is never referenced.
   KI_CP6.:E05TOU  was found in the system file and is never referenced.
   GF_LCP6_M.:E05TOU  was found in the system file and is never referenced.
   GM_LCP6_M.:E05TOU  was found in the system file and is never referenced.
   GU_LCP6_M.:E05TOU  was found in the system file and is never referenced.
   GJ_LCP6_M.:E05TOU  was found in the system file and is never referenced.
   GH_LCP6_M.:E05TOU  was found in the system file and is never referenced.
      No diagnostics issued in procedure G_MPTRS_D.
PL6.E3A0      #001=G_MPTRS_D File=G_MPTRS_D.:E05TSI                              TUE 07/29/97 22:18 Page:13

 **** Variables and constants ****


   No code generated for procedure G_MPTRS_D .
   Procedure G_MPTRS_D requires 4 words of local(AUTO) storage.

    No errors detected in file G_MPTRS_D.:E05TSI    .
PL6.E3A0      #001=G_MPTRS_D File=G_MPTRS_D.:E05TSI                              TUE 07/29/97 22:18 Page:14
          *** CROSS REFERENCE LISTING ***
**     DENOTES     IDENTIFIER DEFINITION
<<                 IDENTIFIER'S VALUE SET
>>                 IDENTIFIER'S VALUE USED
<>                 IDENTIFIER SET AND/OR USED
--                 IDENTIFIER REFERENCED
PL6.E3A0      #001=G_MPTRS_D File=G_MPTRS_D.:E05TSI                              TUE 07/29/97 22:18 Page:15
          MINI XREF LISTING

