VERSION E05

PL6.E3A0      #001=G_PATCH_BF File=G_PATCH_BF.:E05TSI                            TUE 07/29/97 22:19 Page:1
        1        1        /*M* G_PATCH_BF   Patch Area for the LCP-6 Bigfoot Segment. */
        2        2        /*T***********************************************************/
        3        3        /*T*                                                         */
        4        4        /*T* Copyright (c) Bull HN Information Systems Inc., 1997    */
        5        5        /*T*                                                         */
        6        6        /*T***********************************************************/
        7        7        /*X* PLM=3,IND=5,ENU=0,ECU=0,CRM=70   */
        8        8
        9        9        /*P* NAME: G_PATCH_BF
       10       10
       11       11             PURPOSE:  To provide patch space for the LCP-6 Bigfoot Segment.
       12       12
       13       13        */
       14       14
       15       15        G_PATCH_BF: PROC;
       16       16
       17       17        %INCLUDE G_PATCH_E;
       18       32
       19       33    1   DCL 1 G_PATCHDH_BF STATIC SYMDEF,
       20       34    1         2 NEXT$ PTR INIT(ADDR(G_PATCHD_BF)),
       21       35    1         2 SZ UBIN INIT(%G_PATCHD_BF_SZ#);
       22       36
       23       37    1   DCL 1 G_PATCHD_BF(0:%G_PATCHD_BF_SZ#) UBIN STATIC SYMDEF INIT(0*0);
       24       38
       25       39
       26       40
       27       41
       28       42    1   DCL 1 G_PATCHIH_BF CONSTANT SYMDEF,
       29       43    1         2 NEXT$ PTR INIT(ADDR(G_PATCHI_BF)),
       30       44    1         2 SZ UBIN INIT(%G_PATCHI_BF_SZ#);
       31       45
       32       46    1   DCL 1 G_PATCHI_BF(0:%G_PATCHI_BF_SZ#) UBIN CONSTANT SYMDEF INIT(0*0);
       33       47
       34       48    1   END;

PL6.E3A0      #001=G_PATCH_BF File=G_PATCH_BF.:E05TSI                            TUE 07/29/97 22:19 Page:2
--  Include file information  --

   G_PATCH_E.:E05TOU  is referenced.
   G_LCP6_E.:E05TOU  was found in the system file and is never referenced.
   GT_LCP6_M.:E05TOU  was found in the system file and is never referenced.
   KI_CP6.:E05TOU  was found in the system file and is never referenced.
   GF_LCP6_M.:E05TOU  was found in the system file and is never referenced.
   GM_LCP6_M.:E05TOU  was found in the system file and is never referenced.
   GU_LCP6_M.:E05TOU  was found in the system file and is never referenced.
   GJ_LCP6_M.:E05TOU  was found in the system file and is never referenced.
   GH_LCP6_M.:E05TOU  was found in the system file and is never referenced.
      No diagnostics issued in procedure G_PATCH_BF.

   No code generated for procedure G_PATCH_BF .
   Procedure G_PATCH_BF requires 4 words of local(AUTO) storage.

    No errors detected in file G_PATCH_BF.:E05TSI    .

PL6.E3A0      #001=G_PATCH_BF File=G_PATCH_BF.:E05TSI                            TUE 07/29/97 22:19 Page:3

 Object Unit name= G_PATCH_BF                                 File name= G_PATCH_BF.:E05TOU
 UTS= JUL 29 '97 22:19:42.08 TUE                              Compiler= PL-6/E31         Sev=      00
 SharedLib= :SHARED_LCP6_SYSTEM                               Alt SharedLib=


    ****  Control sections  ****

 Sect   Type Bound  Init  Size HexSiz  Section name
    0   Data  even  none    54     36  G_PATCH_BF
    1  RoData even  UTS    404    194  G_PATCH_BF
    2   Proc  even  none     0      0  G_PATCH_BF

    ****  Entry defs  ****

                              Check   Calling
                             calling  sequence
  Sect HexLoc Primary Altret sequence   type   Parms  Name
     2      0   yes            yes     ~proc       0  G_PATCH_BF

  ****  Data defs  ****

 Sect HexLoc  Name                           Sect HexLoc  Name
    0      0  G_PATCHDH_BF                       0      3  G_PATCHD_BF
    1      0  G_PATCHIH_BF                       1      3  G_PATCHI_BF

  ****  Data refs  ****

  Flags:  r = read only, s = secondary
Flgs Name                             Flgs Name                             Flgs Name
r    G$ROS$
PL6.E3A0      #001=G_PATCH_BF File=G_PATCH_BF.:E05TSI                            TUE 07/29/97 22:19 Page:4

        1        1        /*M* G_PATCH_BF   Patch Area for the LCP-6 Bigfoot Segment. */
        2        2        /*T***********************************************************/
        3        3        /*T*                                                         */
        4        4        /*T* Copyright (c) Bull HN Information Systems Inc., 1997    */
        5        5        /*T*                                                         */
        6        6        /*T***********************************************************/
        7        7        /*X* PLM=3,IND=5,ENU=0,ECU=0,CRM=70   */
        8        8
        9        9        /*P* NAME: G_PATCH_BF
       10       10
       11       11             PURPOSE:  To provide patch space for the LCP-6 Bigfoot Segment.
       12       12
       13       13        */
       14       14
       15       15        G_PATCH_BF: PROC;
       16       16
       17       17        %INCLUDE G_PATCH_E;
       18       32
       19       33    1   DCL 1 G_PATCHDH_BF STATIC SYMDEF,
       20       34    1         2 NEXT$ PTR INIT(ADDR(G_PATCHD_BF)),
       21       35    1         2 SZ UBIN INIT(%G_PATCHD_BF_SZ#);
       22       36
       23       37    1   DCL 1 G_PATCHD_BF(0:%G_PATCHD_BF_SZ#) UBIN STATIC SYMDEF INIT(0*0);
       24       38
       25       39
       26       40
       27       41
       28       42    1   DCL 1 G_PATCHIH_BF CONSTANT SYMDEF,
       29       43    1         2 NEXT$ PTR INIT(ADDR(G_PATCHI_BF)),
       30       44    1         2 SZ UBIN INIT(%G_PATCHI_BF_SZ#);
       31       45
       32       46    1   DCL 1 G_PATCHI_BF(0:%G_PATCHI_BF_SZ#) UBIN CONSTANT SYMDEF INIT(0*0);
       33       47
       34       48    1   END;

PL6.E3A0      #001=G_PATCH_BF File=G_PATCH_BF.:E05TSI                            TUE 07/29/97 22:19 Page:5
--  Include file information  --

   G_PATCH_E.:E05TOU  is referenced.
   G_LCP6_E.:E05TOU  was found in the system file and is never referenced.
   GT_LCP6_M.:E05TOU  was found in the system file and is never referenced.
   KI_CP6.:E05TOU  was found in the system file and is never referenced.
   GF_LCP6_M.:E05TOU  was found in the system file and is never referenced.
   GM_LCP6_M.:E05TOU  was found in the system file and is never referenced.
   GU_LCP6_M.:E05TOU  was found in the system file and is never referenced.
   GJ_LCP6_M.:E05TOU  was found in the system file and is never referenced.
   GH_LCP6_M.:E05TOU  was found in the system file and is never referenced.
      No diagnostics issued in procedure G_PATCH_BF.
PL6.E3A0      #001=G_PATCH_BF File=G_PATCH_BF.:E05TSI                            TUE 07/29/97 22:19 Page:6

 **** Variables and constants ****

  ****  Section 000  Data  G_PATCH_BF

  ****  Scalars and arrays  ****
HexLoc.c.b A Datatyp(siz) R M Lvl/name                 HexLoc.c.b A Datatyp(siz) R M Lvl/name

     3-0-0/w UBIN(16)    r     1 G_PATCHD_BF(0:50)

  ****  Section 001 RoData G_PATCH_BF

  ****  Scalars and arrays  ****
HexLoc.c.b A Datatyp(siz) R M Lvl/name                 HexLoc.c.b A Datatyp(siz) R M Lvl/name

     3-0-0/w UBIN(16)    r     1 G_PATCHI_BF(0:400)


   No code generated for procedure G_PATCH_BF .
   Procedure G_PATCH_BF requires 4 words of local(AUTO) storage.

    No errors detected in file G_PATCH_BF.:E05TSI    .
PL6.E3A0      #001=G_PATCH_BF File=G_PATCH_BF.:E05TSI                            TUE 07/29/97 22:19 Page:7
          *** CROSS REFERENCE LISTING ***
**     DENOTES     IDENTIFIER DEFINITION
<<                 IDENTIFIER'S VALUE SET
>>                 IDENTIFIER'S VALUE USED
<>                 IDENTIFIER SET AND/OR USED
--                 IDENTIFIER REFERENCED
PL6.E3A0      #001=G_PATCH_BF File=G_PATCH_BF.:E05TSI                            TUE 07/29/97 22:19 Page:8
          MINI XREF LISTING

G_PATCHD_BF
        37**DCL        34--DCLINIT
G_PATCHI_BF
        46**DCL        43--DCLINIT
