VERSION E05

PL6.E3A0      #001=G_PATCH_FD File=G_PATCH_FD.:E05TSI                            TUE 07/29/97 22:20 Page:1
        1        1        /*M* G_PATCH_FD   Patch Area for the LCP-6 Debugger Instruction Seg.*/
        2        2        /*T***********************************************************/
        3        3        /*T*                                                         */
        4        4        /*T* Copyright (c) Bull HN Information Systems Inc., 1997    */
        5        5        /*T*                                                         */
        6        6        /*T***********************************************************/
        7        7        /*X* PLM=3,IND=5,ENU=0,ECU=0,CRM=70   */
        8        8
        9        9        /*P* NAME: G_PATCH_FD
       10       10
       11       11             PURPOSE:  To provide patch space for the LCP-6 Debugger
       12       12                       Instruction Segment.
       13       13
       14       14        */
       15       15
       16       16        G_PATCH_FD: PROC;
       17       17
       18       18        %INCLUDE G_PATCH_E;
       19       33
       20       34        /* There is no G_PATCHDH_FD because the Front-end Debugger has no
       21       35           data - it is in a separate segment.  Therefore the debugger must
       22       36           reserve space for data patch space.  */
       23       37
       24       38
       25       39
       26       40
       27       41    1   DCL 1 G_PATCHIH_FD CONSTANT SYMDEF,
       28       42    1         2 NEXT$ PTR INIT(ADDR(G_PATCHI_FD)),
       29       43    1         2 SZ UBIN INIT(%G_PATCHI_FD_SZ#);
       30       44
       31       45    1   DCL 1 G_PATCHI_FD(0:%G_PATCHI_FD_SZ#) UBIN CONSTANT SYMDEF INIT(0*0);
       32       46
       33       47    1   END;

PL6.E3A0      #001=G_PATCH_FD File=G_PATCH_FD.:E05TSI                            TUE 07/29/97 22:20 Page:2
--  Include file information  --

   G_PATCH_E.:E05TOU  is referenced.
   G_LCP6_E.:E05TOU  was found in the system file and is never referenced.
   GT_LCP6_M.:E05TOU  was found in the system file and is never referenced.
   KI_CP6.:E05TOU  was found in the system file and is never referenced.
   GF_LCP6_M.:E05TOU  was found in the system file and is never referenced.
   GM_LCP6_M.:E05TOU  was found in the system file and is never referenced.
   GU_LCP6_M.:E05TOU  was found in the system file and is never referenced.
   GJ_LCP6_M.:E05TOU  was found in the system file and is never referenced.
   GH_LCP6_M.:E05TOU  was found in the system file and is never referenced.
      No diagnostics issued in procedure G_PATCH_FD.

   No code generated for procedure G_PATCH_FD .
   Procedure G_PATCH_FD requires 4 words of local(AUTO) storage.

    No errors detected in file G_PATCH_FD.:E05TSI    .

PL6.E3A0      #001=G_PATCH_FD File=G_PATCH_FD.:E05TSI                            TUE 07/29/97 22:20 Page:3

 Object Unit name= G_PATCH_FD                                 File name= G_PATCH_FD.:E05TOU
 UTS= JUL 29 '97 22:20:19.12 TUE                              Compiler= PL-6/E31         Sev=      00
 SharedLib= :SHARED_LCP6_SYSTEM                               Alt SharedLib=


    ****  Control sections  ****

 Sect   Type Bound  Init  Size HexSiz  Section name
    0  RoData even  UTS   1004    3EC  G_PATCH_FD
    1   Proc  even  none     0      0  G_PATCH_FD

    ****  Entry defs  ****

                              Check   Calling
                             calling  sequence
  Sect HexLoc Primary Altret sequence   type   Parms  Name
     1      0   yes            yes     ~proc       0  G_PATCH_FD

  ****  Data defs  ****

 Sect HexLoc  Name                           Sect HexLoc  Name
    0      0  G_PATCHIH_FD                       0      3  G_PATCHI_FD

  ****  Data refs  ****

  Flags:  r = read only, s = secondary
Flgs Name                             Flgs Name                             Flgs Name
r    G$ROS$
PL6.E3A0      #001=G_PATCH_FD File=G_PATCH_FD.:E05TSI                            TUE 07/29/97 22:20 Page:4

        1        1        /*M* G_PATCH_FD   Patch Area for the LCP-6 Debugger Instruction Seg.*/
        2        2        /*T***********************************************************/
        3        3        /*T*                                                         */
        4        4        /*T* Copyright (c) Bull HN Information Systems Inc., 1997    */
        5        5        /*T*                                                         */
        6        6        /*T***********************************************************/
        7        7        /*X* PLM=3,IND=5,ENU=0,ECU=0,CRM=70   */
        8        8
        9        9        /*P* NAME: G_PATCH_FD
       10       10
       11       11             PURPOSE:  To provide patch space for the LCP-6 Debugger
       12       12                       Instruction Segment.
       13       13
       14       14        */
       15       15
       16       16        G_PATCH_FD: PROC;
       17       17
       18       18        %INCLUDE G_PATCH_E;
       19       33
       20       34        /* There is no G_PATCHDH_FD because the Front-end Debugger has no
       21       35           data - it is in a separate segment.  Therefore the debugger must
       22       36           reserve space for data patch space.  */
       23       37
       24       38
       25       39
       26       40
       27       41    1   DCL 1 G_PATCHIH_FD CONSTANT SYMDEF,
       28       42    1         2 NEXT$ PTR INIT(ADDR(G_PATCHI_FD)),
       29       43    1         2 SZ UBIN INIT(%G_PATCHI_FD_SZ#);
       30       44
       31       45    1   DCL 1 G_PATCHI_FD(0:%G_PATCHI_FD_SZ#) UBIN CONSTANT SYMDEF INIT(0*0);
       32       46
       33       47    1   END;

PL6.E3A0      #001=G_PATCH_FD File=G_PATCH_FD.:E05TSI                            TUE 07/29/97 22:20 Page:5
--  Include file information  --

   G_PATCH_E.:E05TOU  is referenced.
   G_LCP6_E.:E05TOU  was found in the system file and is never referenced.
   GT_LCP6_M.:E05TOU  was found in the system file and is never referenced.
   KI_CP6.:E05TOU  was found in the system file and is never referenced.
   GF_LCP6_M.:E05TOU  was found in the system file and is never referenced.
   GM_LCP6_M.:E05TOU  was found in the system file and is never referenced.
   GU_LCP6_M.:E05TOU  was found in the system file and is never referenced.
   GJ_LCP6_M.:E05TOU  was found in the system file and is never referenced.
   GH_LCP6_M.:E05TOU  was found in the system file and is never referenced.
      No diagnostics issued in procedure G_PATCH_FD.
PL6.E3A0      #001=G_PATCH_FD File=G_PATCH_FD.:E05TSI                            TUE 07/29/97 22:20 Page:6

 **** Variables and constants ****

  ****  Section 000 RoData G_PATCH_FD

  ****  Scalars and arrays  ****
HexLoc.c.b A Datatyp(siz) R M Lvl/name                 HexLoc.c.b A Datatyp(siz) R M Lvl/name

     3-0-0/w UBIN(16)    r     1 G_PATCHI_FD(0:1000)


   No code generated for procedure G_PATCH_FD .
   Procedure G_PATCH_FD requires 4 words of local(AUTO) storage.

    No errors detected in file G_PATCH_FD.:E05TSI    .
PL6.E3A0      #001=G_PATCH_FD File=G_PATCH_FD.:E05TSI                            TUE 07/29/97 22:20 Page:7
          *** CROSS REFERENCE LISTING ***
**     DENOTES     IDENTIFIER DEFINITION
<<                 IDENTIFIER'S VALUE SET
>>                 IDENTIFIER'S VALUE USED
<>                 IDENTIFIER SET AND/OR USED
--                 IDENTIFIER REFERENCED
PL6.E3A0      #001=G_PATCH_FD File=G_PATCH_FD.:E05TSI                            TUE 07/29/97 22:20 Page:8
          MINI XREF LISTING

G_PATCHI_FD
        45**DCL        42--DCLINIT
