VERSION E05

PL6.E3A0      #001=G$PATCH File=G_PATCH_IS.:E05TSI                               TUE 07/29/97 22:20 Page:1
        1        1        /*M* G_PATCH_IS   Patch Area for the LCP-6 Monitor Instruction Seg.*/
        2        2        /*T***********************************************************/
        3        3        /*T*                                                         */
        4        4        /*T* Copyright (c) Bull HN Information Systems Inc., 1997    */
        5        5        /*T*                                                         */
        6        6        /*T***********************************************************/
        7        7        /*X* PLM=3,IND=5,ENU=0,ECU=0,CRM=70   */
        8        8
        9        9        /*P* NAME: G$PATCH
       10       10
       11       11             PURPOSE:  To provide name for the patch space in the
       12       12                       LCP-6 monitor Instruction Segment.
       13       13
       14       14        */
       15       15
       16       16        G$PATCH: PROC;
       17       17    1      RETURN;
       18       18    1   END G$PATCH;
       19       19        %EOD;

PL6.E3A0      #001=G$PATCH File=G_PATCH_IS.:E05TSI                               TUE 07/29/97 22:20 Page:2
--  Include file information  --

   G_LCP6_E.:E05TOU  was found in the system file and is never referenced.
   GT_LCP6_M.:E05TOU  was found in the system file and is never referenced.
   KI_CP6.:E05TOU  was found in the system file and is never referenced.
   GF_LCP6_M.:E05TOU  was found in the system file and is never referenced.
   GM_LCP6_M.:E05TOU  was found in the system file and is never referenced.
   GU_LCP6_M.:E05TOU  was found in the system file and is never referenced.
   GJ_LCP6_M.:E05TOU  was found in the system file and is never referenced.
   GH_LCP6_M.:E05TOU  was found in the system file and is never referenced.
      No diagnostics issued in procedure G$PATCH.

   Procedure G$PATCH requires 8 words for executable code.
   Procedure G$PATCH requires 4 words of local(AUTO) storage.

PL6.E3A0      #001=G$PATCH File=G_PATCH_IS.:E05TSI                               TUE 07/29/97 22:20 Page:3

 Object Unit name= G$PATCH                                    File name= G_PATCH_IS.:E05TOU
 UTS= JUL 29 '97 22:20:43.40 TUE                              Compiler= PL-6/E31         Sev=      00
 SharedLib= :SHARED_LCP6_SYSTEM                               Alt SharedLib=


    ****  Control sections  ****

 Sect   Type Bound  Init  Size HexSiz  Section name
    0   Proc  even  none     8      8  G$PATCH

    ****  Entry defs  ****

                              Check   Calling
                             calling  sequence
  Sect HexLoc Primary Altret sequence   type   Parms  Name
     0      0   yes            yes      Std        0  G$PATCH

  ****  Entry refs  ****

         Check        Calling
        calling       sequence
Altret sequence SRef   type   Args  Name
                       nStd      0 X6A_AUTO_0
                       nStd      0 X6A_ARET

  ****  Data refs  ****

  Flags:  r = read only, s = secondary
Flgs Name                             Flgs Name                             Flgs Name
r    G$ROS$
PL6.E3A0      #001=G$PATCH File=G_PATCH_IS.:E05TSI                               TUE 07/29/97 22:20 Page:4


        1        1        /*M* G_PATCH_IS   Patch Area for the LCP-6 Monitor Instruction Seg.*/
        2        2        /*T***********************************************************/
        3        3        /*T*                                                         */
        4        4        /*T* Copyright (c) Bull HN Information Systems Inc., 1997    */
        5        5        /*T*                                                         */
        6        6        /*T***********************************************************/
        7        7        /*X* PLM=3,IND=5,ENU=0,ECU=0,CRM=70   */
        8        8
        9        9        /*P* NAME: G$PATCH
       10       10
       11       11             PURPOSE:  To provide name for the patch space in the
       12       12                       LCP-6 monitor Instruction Segment.
       13       13
       14       14        */
       15       15
       16       16        G$PATCH: PROC;

     16   0 000000  D380 0000 0000  xent G$PATCH         LNJ,B5   X6A_AUTO_0
          0 000003       0004 0000                       DC       4,0

       17       17    1      RETURN;

     17   0 000005  C380 0000 0000  xent                 LNJ,B4   X6A_ARET
       18       18    1   END G$PATCH;
       19       19        %EOD;

PL6.E3A0      #001=G$PATCH File=G_PATCH_IS.:E05TSI                               TUE 07/29/97 22:20 Page:5
--  Include file information  --

   G_LCP6_E.:E05TOU  was found in the system file and is never referenced.
   GT_LCP6_M.:E05TOU  was found in the system file and is never referenced.
   KI_CP6.:E05TOU  was found in the system file and is never referenced.
   GF_LCP6_M.:E05TOU  was found in the system file and is never referenced.
   GM_LCP6_M.:E05TOU  was found in the system file and is never referenced.
   GU_LCP6_M.:E05TOU  was found in the system file and is never referenced.
   GJ_LCP6_M.:E05TOU  was found in the system file and is never referenced.
   GH_LCP6_M.:E05TOU  was found in the system file and is never referenced.
      No diagnostics issued in procedure G$PATCH.
PL6.E3A0      #001=G$PATCH File=G_PATCH_IS.:E05TSI                               TUE 07/29/97 22:20 Page:6

 **** Variables and constants ****


   Procedure G$PATCH requires 8 words for executable code.
   Procedure G$PATCH requires 4 words of local(AUTO) storage.
PL6.E3A0      #001=G$PATCH File=G_PATCH_IS.:E05TSI                               TUE 07/29/97 22:20 Page:7
          *** CROSS REFERENCE LISTING ***
**     DENOTES     IDENTIFIER DEFINITION
<<                 IDENTIFIER'S VALUE SET
>>                 IDENTIFIER'S VALUE USED
<>                 IDENTIFIER SET AND/OR USED
--                 IDENTIFIER REFERENCED
PL6.E3A0      #001=G$PATCH File=G_PATCH_IS.:E05TSI                               TUE 07/29/97 22:20 Page:8
          MINI XREF LISTING


PL6.E3A0      #002=G_PATCH_IS File=G_PATCH_IS.:E05TSI                            TUE 07/29/97 22:20 Page:9
       20        1        /*T***********************************************************/
       21        2        /*T*                                                         */
       22        3        /*T* Copyright (c) Bull HN Information Systems Inc., 1997    */
       23        4        /*T*                                                         */
       24        5        /*T***********************************************************/
       25        6
       26        7
       27        8        /*P* NAME: G_PATCH_IS
       28        9
       29       10             PURPOSE:  To provide patch space for the LCP-6 monitor
       30       11                       Instruction Segment.
       31       12
       32       13        */
       33       14
       34       15        G_PATCH_IS: PROC;
       35       16
       36       17        %INCLUDE G_PATCH_E;
       37       32
       38       33    1   DCL 1 G_PATCHDH_IS STATIC SYMDEF,
       39       34    1         2 NEXT$ PTR INIT(ADDR(G_PATCHD_IS)),
       40       35    1         2 SZ UBIN INIT(%G_PATCHD_IS_SZ#);
       41       36
       42       37    1   DCL 1 G_PATCHD_IS(0:%G_PATCHD_IS_SZ#) UBIN STATIC SYMDEF INIT(0*0);
       43       38
       44       39
       45       40
       46       41
       47       42    1   DCL 1 G_PATCHIH_IS CONSTANT SYMDEF,
       48       43    1         2 NEXT$ PTR INIT(ADDR(G_PATCHI_IS)),
       49       44    1         2 SZ UBIN INIT(%G_PATCHI_IS_SZ#);
       50       45
       51       46    1   DCL 1 G_PATCHI_IS(0:%G_PATCHI_IS_SZ#) UBIN CONSTANT SYMDEF INIT(0*0);
       52       47
       53       48    1   END;

PL6.E3A0      #002=G_PATCH_IS File=G_PATCH_IS.:E05TSI                            TUE 07/29/97 22:20 Page:10
--  Include file information  --

   G_PATCH_E.:E05TOU  is referenced.
   G_LCP6_E.:E05TOU  was found in the system file and is never referenced.
   GT_LCP6_M.:E05TOU  was found in the system file and is never referenced.
   KI_CP6.:E05TOU  was found in the system file and is never referenced.
   GF_LCP6_M.:E05TOU  was found in the system file and is never referenced.
   GM_LCP6_M.:E05TOU  was found in the system file and is never referenced.
   GU_LCP6_M.:E05TOU  was found in the system file and is never referenced.
   GJ_LCP6_M.:E05TOU  was found in the system file and is never referenced.
   GH_LCP6_M.:E05TOU  was found in the system file and is never referenced.
      No diagnostics issued in procedure G_PATCH_IS.

   No code generated for procedure G_PATCH_IS .
   Procedure G_PATCH_IS requires 4 words of local(AUTO) storage.

    No errors detected in file G_PATCH_IS.:E05TSI    .

PL6.E3A0      #002=G_PATCH_IS File=G_PATCH_IS.:E05TSI                            TUE 07/29/97 22:20 Page:11

 Object Unit name= G_PATCH_IS                                 File name= G_PATCH_IS.:E05TOU
 UTS= JUL 29 '97 22:20:47.68 TUE                              Compiler= PL-6/E31         Sev=      00
 SharedLib= :SHARED_LCP6_SYSTEM                               Alt SharedLib=


    ****  Control sections  ****

 Sect   Type Bound  Init  Size HexSiz  Section name
    0   Data  even  none   132     84  G_PATCH_IS
    1  RoData even  UTS   3004    BBC  G_PATCH_IS
    2   Proc  even  none     0      0  G_PATCH_IS

    ****  Entry defs  ****

                              Check   Calling
                             calling  sequence
  Sect HexLoc Primary Altret sequence   type   Parms  Name
     2      0   yes            yes     ~proc       0  G_PATCH_IS

  ****  Data defs  ****

 Sect HexLoc  Name                           Sect HexLoc  Name
    0      0  G_PATCHDH_IS                       0      3  G_PATCHD_IS
    1      0  G_PATCHIH_IS                       1      3  G_PATCHI_IS

  ****  Data refs  ****

  Flags:  r = read only, s = secondary
Flgs Name                             Flgs Name                             Flgs Name
r    G$ROS$
PL6.E3A0      #002=G_PATCH_IS File=G_PATCH_IS.:E05TSI                            TUE 07/29/97 22:20 Page:12

       20        1        /*T***********************************************************/
       21        2        /*T*                                                         */
       22        3        /*T* Copyright (c) Bull HN Information Systems Inc., 1997    */
       23        4        /*T*                                                         */
       24        5        /*T***********************************************************/
       25        6
       26        7
       27        8        /*P* NAME: G_PATCH_IS
       28        9
       29       10             PURPOSE:  To provide patch space for the LCP-6 monitor
       30       11                       Instruction Segment.
       31       12
       32       13        */
       33       14
       34       15        G_PATCH_IS: PROC;
       35       16
       36       17        %INCLUDE G_PATCH_E;
       37       32
       38       33    1   DCL 1 G_PATCHDH_IS STATIC SYMDEF,
       39       34    1         2 NEXT$ PTR INIT(ADDR(G_PATCHD_IS)),
       40       35    1         2 SZ UBIN INIT(%G_PATCHD_IS_SZ#);
       41       36
       42       37    1   DCL 1 G_PATCHD_IS(0:%G_PATCHD_IS_SZ#) UBIN STATIC SYMDEF INIT(0*0);
       43       38
       44       39
       45       40
       46       41
       47       42    1   DCL 1 G_PATCHIH_IS CONSTANT SYMDEF,
       48       43    1         2 NEXT$ PTR INIT(ADDR(G_PATCHI_IS)),
       49       44    1         2 SZ UBIN INIT(%G_PATCHI_IS_SZ#);
       50       45
       51       46    1   DCL 1 G_PATCHI_IS(0:%G_PATCHI_IS_SZ#) UBIN CONSTANT SYMDEF INIT(0*0);
       52       47
       53       48    1   END;

PL6.E3A0      #002=G_PATCH_IS File=G_PATCH_IS.:E05TSI                            TUE 07/29/97 22:20 Page:13
--  Include file information  --

   G_PATCH_E.:E05TOU  is referenced.
   G_LCP6_E.:E05TOU  was found in the system file and is never referenced.
   GT_LCP6_M.:E05TOU  was found in the system file and is never referenced.
   KI_CP6.:E05TOU  was found in the system file and is never referenced.
   GF_LCP6_M.:E05TOU  was found in the system file and is never referenced.
   GM_LCP6_M.:E05TOU  was found in the system file and is never referenced.
   GU_LCP6_M.:E05TOU  was found in the system file and is never referenced.
   GJ_LCP6_M.:E05TOU  was found in the system file and is never referenced.
   GH_LCP6_M.:E05TOU  was found in the system file and is never referenced.
      No diagnostics issued in procedure G_PATCH_IS.
PL6.E3A0      #002=G_PATCH_IS File=G_PATCH_IS.:E05TSI                            TUE 07/29/97 22:20 Page:14

 **** Variables and constants ****

  ****  Section 000  Data  G_PATCH_IS

  ****  Scalars and arrays  ****
HexLoc.c.b A Datatyp(siz) R M Lvl/name                 HexLoc.c.b A Datatyp(siz) R M Lvl/name

     3-0-0/w UBIN(16)    r     1 G_PATCHD_IS(0:128)

  ****  Section 001 RoData G_PATCH_IS

  ****  Scalars and arrays  ****
HexLoc.c.b A Datatyp(siz) R M Lvl/name                 HexLoc.c.b A Datatyp(siz) R M Lvl/name

     3-0-0/w UBIN(16)    r     1 G_PATCHI_IS(0:3000)


   No code generated for procedure G_PATCH_IS .
   Procedure G_PATCH_IS requires 4 words of local(AUTO) storage.

    No errors detected in file G_PATCH_IS.:E05TSI    .
PL6.E3A0      #002=G_PATCH_IS File=G_PATCH_IS.:E05TSI                            TUE 07/29/97 22:20 Page:15
          *** CROSS REFERENCE LISTING ***
**     DENOTES     IDENTIFIER DEFINITION
<<                 IDENTIFIER'S VALUE SET
>>                 IDENTIFIER'S VALUE USED
<>                 IDENTIFIER SET AND/OR USED
--                 IDENTIFIER REFERENCED
PL6.E3A0      #002=G_PATCH_IS File=G_PATCH_IS.:E05TSI                            TUE 07/29/97 22:20 Page:16
          MINI XREF LISTING

G_PATCHD_IS
        37**DCL        34--DCLINIT
G_PATCHI_IS
        46**DCL        43--DCLINIT
