VERSION E05

PL6.E3A0      #001=G_PATCH_ME File=G_PATCH_ME.:E05TSI                            TUE 07/29/97 22:20 Page:1
        1        1        /*M* G_PATCH_ME   Patch Area for the LCP-6 Monitor Entry Seg.*/
        2        2        /*T***********************************************************/
        3        3        /*T*                                                         */
        4        4        /*T* Copyright (c) Bull HN Information Systems Inc., 1997    */
        5        5        /*T*                                                         */
        6        6        /*T***********************************************************/
        7        7        /*X* PLM=3,IND=5,ENU=0,ECU=0,CRM=70   */
        8        8
        9        9        /*P* NAME: G_PATCH_ME
       10       10
       11       11             PURPOSE:  To provide patch space for the LCP-6 monitor
       12       12                       Entry Segment.
       13       13
       14       14        */
       15       15
       16       16        G_PATCH_ME: PROC;
       17       17
       18       18        %INCLUDE G_PATCH_E;
       19       33
       20       34    1   DCL 1 G_PATCHWEEK CHAR(4) STATIC SYMDEF;
       21       35
       22       36    1   DCL 1 G_PATCHDH_ME STATIC SYMDEF,
       23       37    1         2 NEXT$ PTR INIT(ADDR(G_PATCHD_ME)),
       24       38    1         2 SZ UBIN INIT(%G_PATCHD_ME_SZ#);
       25       39
       26       40    1   DCL 1 G_PATCHD_ME(0:%G_PATCHD_ME_SZ#) UBIN STATIC SYMDEF INIT(0*0);
       27       41
       28       42
       29       43
       30       44
       31       45    1   DCL 1 G_PATCHIH_ME STATIC SYMDEF,
       32       46    1         2 NEXT$ PTR INIT(ADDR(G_PATCHI_ME)),
       33       47    1         2 SZ UBIN INIT(%G_PATCHI_ME_SZ#);
       34       48
       35       49    1   DCL 1 G_PATCHI_ME(0:%G_PATCHI_ME_SZ#) UBIN CONSTANT SYMDEF INIT(0*0);
       36       50
       37       51    1   END;
PL6.E3A0      #001=G_PATCH_ME File=G_PATCH_ME.:E05TSI                            TUE 07/29/97 22:20 Page:2

PL6.E3A0      #001=G_PATCH_ME File=G_PATCH_ME.:E05TSI                            TUE 07/29/97 22:20 Page:3
--  Include file information  --

   G_PATCH_E.:E05TOU  is referenced.
   G_LCP6_E.:E05TOU  was found in the system file and is never referenced.
   GT_LCP6_M.:E05TOU  was found in the system file and is never referenced.
   KI_CP6.:E05TOU  was found in the system file and is never referenced.
   GF_LCP6_M.:E05TOU  was found in the system file and is never referenced.
   GM_LCP6_M.:E05TOU  was found in the system file and is never referenced.
   GU_LCP6_M.:E05TOU  was found in the system file and is never referenced.
   GJ_LCP6_M.:E05TOU  was found in the system file and is never referenced.
   GH_LCP6_M.:E05TOU  was found in the system file and is never referenced.
      No diagnostics issued in procedure G_PATCH_ME.

   No code generated for procedure G_PATCH_ME .
   Procedure G_PATCH_ME requires 4 words of local(AUTO) storage.

    No errors detected in file G_PATCH_ME.:E05TSI    .

PL6.E3A0      #001=G_PATCH_ME File=G_PATCH_ME.:E05TSI                            TUE 07/29/97 22:20 Page:4

 Object Unit name= G_PATCH_ME                                 File name= G_PATCH_ME.:E05TOU
 UTS= JUL 29 '97 22:20:46.08 TUE                              Compiler= PL-6/E31         Sev=      00
 SharedLib= :SHARED_LCP6_SYSTEM                               Alt SharedLib=


    ****  Control sections  ****

 Sect   Type Bound  Init  Size HexSiz  Section name
    0   Data  even  none  1009    3F1  G_PATCH_ME
    1  RoData even  UTS    126     7E  G_PATCH_ME
    2   Proc  even  none     0      0  G_PATCH_ME

    ****  Entry defs  ****

                              Check   Calling
                             calling  sequence
  Sect HexLoc Primary Altret sequence   type   Parms  Name
     2      0   yes            yes     ~proc       0  G_PATCH_ME

  ****  Data defs  ****

 Sect HexLoc  Name                           Sect HexLoc  Name
    0      0  G_PATCHWEEK                        0      2  G_PATCHDH_ME
    0      5  G_PATCHD_ME                        0    3EE  G_PATCHIH_ME
    1      0  G_PATCHI_ME

  ****  Data refs  ****

  Flags:  r = read only, s = secondary
Flgs Name                             Flgs Name                             Flgs Name
r    G$ROS$
PL6.E3A0      #001=G_PATCH_ME File=G_PATCH_ME.:E05TSI                            TUE 07/29/97 22:20 Page:5

        1        1        /*M* G_PATCH_ME   Patch Area for the LCP-6 Monitor Entry Seg.*/
        2        2        /*T***********************************************************/
        3        3        /*T*                                                         */
        4        4        /*T* Copyright (c) Bull HN Information Systems Inc., 1997    */
        5        5        /*T*                                                         */
        6        6        /*T***********************************************************/
        7        7        /*X* PLM=3,IND=5,ENU=0,ECU=0,CRM=70   */
        8        8
        9        9        /*P* NAME: G_PATCH_ME
       10       10
       11       11             PURPOSE:  To provide patch space for the LCP-6 monitor
       12       12                       Entry Segment.
       13       13
       14       14        */
       15       15
       16       16        G_PATCH_ME: PROC;
       17       17
       18       18        %INCLUDE G_PATCH_E;
       19       33
       20       34    1   DCL 1 G_PATCHWEEK CHAR(4) STATIC SYMDEF;
       21       35
       22       36    1   DCL 1 G_PATCHDH_ME STATIC SYMDEF,
       23       37    1         2 NEXT$ PTR INIT(ADDR(G_PATCHD_ME)),
       24       38    1         2 SZ UBIN INIT(%G_PATCHD_ME_SZ#);
       25       39
       26       40    1   DCL 1 G_PATCHD_ME(0:%G_PATCHD_ME_SZ#) UBIN STATIC SYMDEF INIT(0*0);
       27       41
       28       42
       29       43
       30       44
       31       45    1   DCL 1 G_PATCHIH_ME STATIC SYMDEF,
       32       46    1         2 NEXT$ PTR INIT(ADDR(G_PATCHI_ME)),
       33       47    1         2 SZ UBIN INIT(%G_PATCHI_ME_SZ#);
       34       48
       35       49    1   DCL 1 G_PATCHI_ME(0:%G_PATCHI_ME_SZ#) UBIN CONSTANT SYMDEF INIT(0*0);
       36       50
       37       51    1   END;
PL6.E3A0      #001=G_PATCH_ME File=G_PATCH_ME.:E05TSI                            TUE 07/29/97 22:20 Page:6

PL6.E3A0      #001=G_PATCH_ME File=G_PATCH_ME.:E05TSI                            TUE 07/29/97 22:20 Page:7
--  Include file information  --

   G_PATCH_E.:E05TOU  is referenced.
   G_LCP6_E.:E05TOU  was found in the system file and is never referenced.
   GT_LCP6_M.:E05TOU  was found in the system file and is never referenced.
   KI_CP6.:E05TOU  was found in the system file and is never referenced.
   GF_LCP6_M.:E05TOU  was found in the system file and is never referenced.
   GM_LCP6_M.:E05TOU  was found in the system file and is never referenced.
   GU_LCP6_M.:E05TOU  was found in the system file and is never referenced.
   GJ_LCP6_M.:E05TOU  was found in the system file and is never referenced.
   GH_LCP6_M.:E05TOU  was found in the system file and is never referenced.
      No diagnostics issued in procedure G_PATCH_ME.
PL6.E3A0      #001=G_PATCH_ME File=G_PATCH_ME.:E05TSI                            TUE 07/29/97 22:20 Page:8

 **** Variables and constants ****

  ****  Section 000  Data  G_PATCH_ME

  ****  Scalars and arrays  ****
HexLoc.c.b A Datatyp(siz) R M Lvl/name                 HexLoc.c.b A Datatyp(siz) R M Lvl/name

     5-0-0/w UBIN(16)    r     1 G_PATCHD_ME(0:1000)

  ****  Section 001 RoData G_PATCH_ME

  ****  Scalars and arrays  ****
HexLoc.c.b A Datatyp(siz) R M Lvl/name                 HexLoc.c.b A Datatyp(siz) R M Lvl/name

     0-0-0/w UBIN(16)    r     1 G_PATCHI_ME(0:125)


   No code generated for procedure G_PATCH_ME .
   Procedure G_PATCH_ME requires 4 words of local(AUTO) storage.

    No errors detected in file G_PATCH_ME.:E05TSI    .
PL6.E3A0      #001=G_PATCH_ME File=G_PATCH_ME.:E05TSI                            TUE 07/29/97 22:20 Page:9
          *** CROSS REFERENCE LISTING ***
**     DENOTES     IDENTIFIER DEFINITION
<<                 IDENTIFIER'S VALUE SET
>>                 IDENTIFIER'S VALUE USED
<>                 IDENTIFIER SET AND/OR USED
--                 IDENTIFIER REFERENCED
PL6.E3A0      #001=G_PATCH_ME File=G_PATCH_ME.:E05TSI                            TUE 07/29/97 22:20 Page:10
          MINI XREF LISTING

G_PATCHD_ME
        40**DCL        37--DCLINIT
G_PATCHI_ME
        49**DCL        46--DCLINIT
