VERSION E05

PL6.E3A0      #001=G_ROS_D File=G_ROS_D.:E05TSI                                  TUE 07/29/97 22:21 Page:1
        1        1        /*M* G_ROS_D  Canned Read-only segment for the user         */
        2        2        /*T***********************************************************/
        3        3        /*T*                                                         */
        4        4        /*T* Copyright (c) Bull HN Information Systems Inc., 1997    */
        5        5        /*T*                                                         */
        6        6        /*T***********************************************************/
        7        7
        8        8        G_ROS_D: PROC;
        9        9
       10       10        %INCLUDE G_JIT_M;
       11      275        %INCLUDE G_ROS_M;
       12      357 S      %INCLUDE GF_LCP6_M;
       13      358 S      %INCLUDE GU_LCP6_M;
       14      359 S      %INCLUDE G_LCP6_E;
       15      360
       16      361        /* If the following list of system DCBs is added to or changed,
       17      362           the file 'G_DCB_D' must also be updated.
       18      363        */
       19      364    1   DCL M$DEBUG DCB;
       20      365    1   DCL M$LM DCB;
       21      366    1   DCL M$ME DCB;
       22      367    1   DCL M$HOST DCB;
       23      368    1   DCL M$DO DCB;
       24      369
       25      370        %G$ROS (FPTN=G_ROS,STCLASS=STATIC SYMDEF,FULL=YES);
       26     1321
       27     1322    1   END G_ROS_D;

PL6.E3A0      #001=G_ROS_D File=G_ROS_D.:E05TSI                                  TUE 07/29/97 22:21 Page:2
--  Include file information  --

   G_ROS_M.:E05TOU  is referenced.
   G_JIT_M.:E05TOU  is referenced.
   G_LCP6_E.:E05TOU  was found in the system file and is referenced.
   GT_LCP6_M.:E05TOU  was found in the system file and is never referenced.
   KI_CP6.:E05TOU  was found in the system file and is never referenced.
   GF_LCP6_M.:E05TOU  was found in the system file and is referenced.
   GM_LCP6_M.:E05TOU  was found in the system file and is never referenced.
   GU_LCP6_M.:E05TOU  was found in the system file and is referenced.
   GJ_LCP6_M.:E05TOU  was found in the system file and is never referenced.
   GH_LCP6_M.:E05TOU  was found in the system file and is never referenced.
      No diagnostics issued in procedure G_ROS_D.

   No code generated for procedure G_ROS_D .
   Procedure G_ROS_D requires 4 words of local(AUTO) storage.

    No errors detected in file G_ROS_D.:E05TSI    .

PL6.E3A0      #001=G_ROS_D File=G_ROS_D.:E05TSI                                  TUE 07/29/97 22:21 Page:3

 Object Unit name= G_ROS_D                                    File name= G_ROS_D.:E05TOU
 UTS= JUL 29 '97 22:21:12.84 TUE                              Compiler= PL-6/E31         Sev=      00
 SharedLib= :SHARED_LCP6_SYSTEM                               Alt SharedLib=


    ****  Control sections  ****

 Sect   Type Bound  Init  Size HexSiz  Section name
    0   DCB   even  none     0      0  M$DEBUG
    1   DCB   even  none     0      0  M$LM
    2   DCB   even  none     0      0  M$ME
    3   DCB   even  none     0      0  M$HOST
    4   DCB   even  none     0      0  M$DO
    5   Data  even  none   750    2EE  G_ROS_D
    6   Proc  even  none     0      0  G_ROS_D

    ****  Entry defs  ****

                              Check   Calling
                             calling  sequence
  Sect HexLoc Primary Altret sequence   type   Parms  Name
     6      0   yes            yes     ~proc       0  G_ROS_D

  ****  Data defs  ****

 Sect HexLoc  Name                           Sect HexLoc  Name
    5      0  G_ROS

  ****  Data refs  ****

  Flags:  r = read only, s = secondary
Flgs Name                             Flgs Name                             Flgs Name
     M$DEBUG                               M$LM                                  M$ME
     M$HOST                                M$DO                             r    G$ROS$
PL6.E3A0      #001=G_ROS_D File=G_ROS_D.:E05TSI                                  TUE 07/29/97 22:21 Page:4

        1        1        /*M* G_ROS_D  Canned Read-only segment for the user         */
        2        2        /*T***********************************************************/
        3        3        /*T*                                                         */
        4        4        /*T* Copyright (c) Bull HN Information Systems Inc., 1997    */
        5        5        /*T*                                                         */
        6        6        /*T***********************************************************/
        7        7
        8        8        G_ROS_D: PROC;
        9        9
       10       10        %INCLUDE G_JIT_M;
       11      275        %INCLUDE G_ROS_M;
       12      357 S      %INCLUDE GF_LCP6_M;
       13      358 S      %INCLUDE GU_LCP6_M;
       14      359 S      %INCLUDE G_LCP6_E;
       15      360
       16      361        /* If the following list of system DCBs is added to or changed,
       17      362           the file 'G_DCB_D' must also be updated.
       18      363        */
       19      364    1   DCL M$DEBUG DCB;
       20      365    1   DCL M$LM DCB;
       21      366    1   DCL M$ME DCB;
       22      367    1   DCL M$HOST DCB;
       23      368    1   DCL M$DO DCB;
       24      369
       25      370        %G$ROS (FPTN=G_ROS,STCLASS=STATIC SYMDEF,FULL=YES);
       26     1321
       27     1322    1   END G_ROS_D;

PL6.E3A0      #001=G_ROS_D File=G_ROS_D.:E05TSI                                  TUE 07/29/97 22:21 Page:5
--  Include file information  --

   G_ROS_M.:E05TOU  is referenced.
   G_JIT_M.:E05TOU  is referenced.
   G_LCP6_E.:E05TOU  was found in the system file and is referenced.
   GT_LCP6_M.:E05TOU  was found in the system file and is never referenced.
   KI_CP6.:E05TOU  was found in the system file and is never referenced.
   GF_LCP6_M.:E05TOU  was found in the system file and is referenced.
   GM_LCP6_M.:E05TOU  was found in the system file and is never referenced.
   GU_LCP6_M.:E05TOU  was found in the system file and is referenced.
   GJ_LCP6_M.:E05TOU  was found in the system file and is never referenced.
   GH_LCP6_M.:E05TOU  was found in the system file and is never referenced.
      No diagnostics issued in procedure G_ROS_D.
PL6.E3A0      #001=G_ROS_D File=G_ROS_D.:E05TSI                                  TUE 07/29/97 22:21 Page:6

 **** Variables and constants ****

  ****  Section 005  Data  G_ROS_D

  ****  Scalars and arrays  ****
HexLoc.c.b A Datatyp(siz) R M Lvl/name                 HexLoc.c.b A Datatyp(siz) R M Lvl/name

     0-0-0/w STRC(12000) r     1 G_ROS

  ****  BASED and DCB variables  ****

  ****  Scalars and arrays  ****
HexLoc.c.b A Datatyp(siz) R M Lvl/name                 HexLoc.c.b A Datatyp(siz) R M Lvl/name

     0-0-0N  NULL        r     1 M$DEBUG                    0-0-0N  NULL        r     1 M$DO
     0-0-0N  NULL        r     1 M$HOST                     0-0-0N  NULL        r     1 M$LM
     0-0-0N  NULL        r     1 M$ME


   No code generated for procedure G_ROS_D .
   Procedure G_ROS_D requires 4 words of local(AUTO) storage.

    No errors detected in file G_ROS_D.:E05TSI    .
PL6.E3A0      #001=G_ROS_D File=G_ROS_D.:E05TSI                                  TUE 07/29/97 22:21 Page:7
          *** CROSS REFERENCE LISTING ***
**     DENOTES     IDENTIFIER DEFINITION
<<                 IDENTIFIER'S VALUE SET
>>                 IDENTIFIER'S VALUE USED
<>                 IDENTIFIER SET AND/OR USED
--                 IDENTIFIER REFERENCED
PL6.E3A0      #001=G_ROS_D File=G_ROS_D.:E05TSI                                  TUE 07/29/97 22:21 Page:8
          MINI XREF LISTING

G_ROS.AUTO_DS$
       393**DCL       394--REDEF
G_ROS.AUTO_T$
       394**DCL       394--REDEF
G_ROS.AVAIL_HDR
      1315**DCL       391--DCLINIT
G_ROS.CP_ECCB
       981**DCL       392--DCLINIT
G_ROS.CP_ECCB.FLTFLG
      1008**DCL      1039--REDEF
G_ROS.DB_ECCB
       905**DCL       392--DCLINIT
G_ROS.DB_ECCB.FLTFLG
       932**DCL       963--REDEF
G_ROS.DCBTABLE
      1297**DCL       389--DCLINIT
G_ROS.JIT
       415**DCL       389--DCLINIT
G_ROS.JIT.ERRLOG
       743**DCL       746--REDEF
G_ROS.JIT.JSUNIT
       482**DCL       483--REDEF
G_ROS.JIT.MCLS
       481**DCL       481--REDEF
G_ROS.JIT.TMRZ
       750**DCL       751--REDEF
G_ROS.JIT.USER_EXTIME
       474**DCL       475--REDEF
G_ROS.JIT.USER_MEMTIME
       477**DCL       477--REDEF
G_ROS.JIT.USER_SVTIME
       476**DCL       476--REDEF
PL6.E3A0      #001=G_ROS_D File=G_ROS_D.:E05TSI                                  TUE 07/29/97 22:21 Page:9
G_ROS.M$DEBUG
      1063**DCL      1297--DCLINIT
G_ROS.M$DEBUG.EOMCHAR
      1079**DCL      1079--REDEF    1080--REDEF
G_ROS.M$DEBUG.FLDID
      1078**DCL      1078--REDEF
G_ROS.M$DEBUG.RES
      1073**DCL      1074--REDEF
G_ROS.M$DO
      1268**DCL      1297--DCLINIT
G_ROS.M$DO.EOMCHAR
      1284**DCL      1284--REDEF    1285--REDEF
G_ROS.M$DO.FLDID
      1283**DCL      1283--REDEF
G_ROS.M$DO.RES
      1278**DCL      1279--REDEF
G_ROS.M$HOST
      1217**DCL      1297--DCLINIT
G_ROS.M$HOST.EOMCHAR
      1233**DCL      1233--REDEF    1234--REDEF
G_ROS.M$HOST.FLDID
      1232**DCL      1232--REDEF
G_ROS.M$HOST.RES
      1227**DCL      1228--REDEF
G_ROS.M$LM
      1114**DCL      1297--DCLINIT
G_ROS.M$LM.EOMCHAR
      1130**DCL      1130--REDEF    1131--REDEF
G_ROS.M$LM.FLDID
      1129**DCL      1129--REDEF
G_ROS.M$LM.RES
      1124**DCL      1125--REDEF
G_ROS.M$ME
      1166**DCL      1297--DCLINIT
G_ROS.M$ME.EOMCHAR
      1182**DCL      1182--REDEF    1183--REDEF
PL6.E3A0      #001=G_ROS_D File=G_ROS_D.:E05TSI                                  TUE 07/29/97 22:21 Page:10
G_ROS.M$ME.FLDID
      1181**DCL      1181--REDEF
G_ROS.M$ME.RES
      1176**DCL      1177--REDEF
G_ROS.PIA
       398**DCL       392--DCLINIT
G_ROS.U_ECCB
       829**DCL       391--DCLINIT
G_ROS.U_ECCB.FLTFLG
       856**DCL       887--REDEF
