VERSION E05

PL6.E3A0      #001=G_UHJIT_D File=G_UHJIT_D.:E05TSI                              TUE 07/29/97 22:21 Page:1
        1        1        /*M* G_UHJIT_D  Canned User's HJIT                        */
        2        2        /*T***********************************************************/
        3        3        /*T*                                                         */
        4        4        /*T* Copyright (c) Bull HN Information Systems Inc., 1997    */
        5        5        /*T*                                                         */
        6        6        /*T***********************************************************/
        7        7
        8        8        G_UHJIT_D: PROC;
        9        9
       10       10 S      %INCLUDE GH_LCP6_M;
       11       11        %INCLUDE G_HJIT_M;
       12      156
       13      157        %G$UHJIT (FPTN=G_UHJIT,STCLASS=CONSTANT SYMDEF);
       14    10004
       15    10005    1   END G_UHJIT_D;

PL6.E3A0      #001=G_UHJIT_D File=G_UHJIT_D.:E05TSI                              TUE 07/29/97 22:21 Page:2
--  Include file information  --

   G_HJIT_M.:E05TOU  is referenced.
   G_LCP6_E.:E05TOU  was found in the system file and is never referenced.
   GT_LCP6_M.:E05TOU  was found in the system file and is never referenced.
   KI_CP6.:E05TOU  was found in the system file and is never referenced.
   GF_LCP6_M.:E05TOU  was found in the system file and is never referenced.
   GM_LCP6_M.:E05TOU  was found in the system file and is never referenced.
   GU_LCP6_M.:E05TOU  was found in the system file and is never referenced.
   GJ_LCP6_M.:E05TOU  was found in the system file and is never referenced.
   GH_LCP6_M.:E05TOU  was found in the system file and is referenced.
      No diagnostics issued in procedure G_UHJIT_D.

   No code generated for procedure G_UHJIT_D .
   Procedure G_UHJIT_D requires 4 words of local(AUTO) storage.

    No errors detected in file G_UHJIT_D.:E05TSI    .

PL6.E3A0      #001=G_UHJIT_D File=G_UHJIT_D.:E05TSI                              TUE 07/29/97 22:21 Page:3

 Object Unit name= G_UHJIT_D                                  File name= G_UHJIT_D.:E05TOU
 UTS= JUL 29 '97 22:21:15.92 TUE                              Compiler= PL-6/E31         Sev=      00
 SharedLib= :SHARED_LCP6_SYSTEM                               Alt SharedLib=


    ****  Control sections  ****

 Sect   Type Bound  Init  Size HexSiz  Section name
    0  RoData even  UTS    405    195  G_UHJIT_D
    1   Proc  even  none     0      0  G_UHJIT_D

    ****  Entry defs  ****

                              Check   Calling
                             calling  sequence
  Sect HexLoc Primary Altret sequence   type   Parms  Name
     1      0   yes            yes     ~proc       0  G_UHJIT_D

  ****  Data defs  ****

 Sect HexLoc  Name                           Sect HexLoc  Name
    0      0  G_UHJIT

  ****  Entry refs  ****

         Check        Calling
        calling       sequence
Altret sequence SRef   type   Args  Name
         yes           Std       0 GJI$INIT_USR

  ****  Data refs  ****

  Flags:  r = read only, s = secondary
Flgs Name                             Flgs Name                             Flgs Name
     G_MHJIT                          r    G$ROS$
PL6.E3A0      #001=G_UHJIT_D File=G_UHJIT_D.:E05TSI                              TUE 07/29/97 22:21 Page:4

        1        1        /*M* G_UHJIT_D  Canned User's HJIT                        */
        2        2        /*T***********************************************************/
        3        3        /*T*                                                         */
        4        4        /*T* Copyright (c) Bull HN Information Systems Inc., 1997    */
        5        5        /*T*                                                         */
        6        6        /*T***********************************************************/
        7        7
        8        8        G_UHJIT_D: PROC;
        9        9
       10       10 S      %INCLUDE GH_LCP6_M;
       11       11        %INCLUDE G_HJIT_M;
       12      156
       13      157        %G$UHJIT (FPTN=G_UHJIT,STCLASS=CONSTANT SYMDEF);
       14    10004
       15    10005    1   END G_UHJIT_D;

PL6.E3A0      #001=G_UHJIT_D File=G_UHJIT_D.:E05TSI                              TUE 07/29/97 22:21 Page:5
--  Include file information  --

   G_HJIT_M.:E05TOU  is referenced.
   G_LCP6_E.:E05TOU  was found in the system file and is never referenced.
   GT_LCP6_M.:E05TOU  was found in the system file and is never referenced.
   KI_CP6.:E05TOU  was found in the system file and is never referenced.
   GF_LCP6_M.:E05TOU  was found in the system file and is never referenced.
   GM_LCP6_M.:E05TOU  was found in the system file and is never referenced.
   GU_LCP6_M.:E05TOU  was found in the system file and is never referenced.
   GJ_LCP6_M.:E05TOU  was found in the system file and is never referenced.
   GH_LCP6_M.:E05TOU  was found in the system file and is referenced.
      No diagnostics issued in procedure G_UHJIT_D.
PL6.E3A0      #001=G_UHJIT_D File=G_UHJIT_D.:E05TSI                              TUE 07/29/97 22:21 Page:6

 **** Variables and constants ****

  ****  Section 000 RoData G_UHJIT_D

  ****  Scalars and arrays  ****
HexLoc.c.b A Datatyp(siz) R M Lvl/name                 HexLoc.c.b A Datatyp(siz) R M Lvl/name

     0-0-0/w STRC(6480)  r     1 G_UHJIT

  ****  SYMREF variables  ****

  ****  Scalars and arrays  ****
HexLoc.c.b A Datatyp(siz) R M Lvl/name                 HexLoc.c.b A Datatyp(siz) R M Lvl/name

     0-0-0/w STRC(27232) r     1 G_MHJIT


   No code generated for procedure G_UHJIT_D .
   Procedure G_UHJIT_D requires 4 words of local(AUTO) storage.

    No errors detected in file G_UHJIT_D.:E05TSI    .
PL6.E3A0      #001=G_UHJIT_D File=G_UHJIT_D.:E05TSI                              TUE 07/29/97 22:21 Page:7
          *** CROSS REFERENCE LISTING ***
**     DENOTES     IDENTIFIER DEFINITION
<<                 IDENTIFIER'S VALUE SET
>>                 IDENTIFIER'S VALUE USED
<>                 IDENTIFIER SET AND/OR USED
--                 IDENTIFIER REFERENCED
PL6.E3A0      #001=G_UHJIT_D File=G_UHJIT_D.:E05TSI                              TUE 07/29/97 22:21 Page:8
          MINI XREF LISTING

GJI$INIT_USR
       166**DCL-ENT  8545--DCLINIT
G_MHJIT.INTCON.HHJIT
      6646**DCL      6646--REDEF
G_MHJIT.INTCON.P$$
      6619**DCL      6619--REDEF
G_MHJIT.ISA_BIGFOOT.P$$
      3564**DCL      3564--REDEF
G_MHJIT.ISA_DBINH.P$$
      4778**DCL      4778--REDEF
G_MHJIT.ISA_IDLE.P$$
      1659**DCL      1659--REDEF
G_MHJIT.ISA_LVL10.P$$
      5081**DCL      5081--REDEF
G_MHJIT.ISA_LVL11.P$$
      5384**DCL      5384--REDEF
G_MHJIT.ISA_LVL12.P$$
      5687**DCL      5687--REDEF
G_MHJIT.ISA_LVL5.P$$
      3867**DCL      3867--REDEF
G_MHJIT.ISA_OV.P$$
      3261**DCL      3261--REDEF
G_MHJIT.ISA_PFS.P$$
      2932**DCL      2932--REDEF
G_MHJIT.ISA_RT_CLOCK.P$$
      6294**DCL      6294--REDEF
G_MHJIT.ISA_SATYR_RCV.P$$
      4171**DCL      4171--REDEF
G_MHJIT.ISA_SATYR_TRN.P$$
      4475**DCL      4475--REDEF
G_MHJIT.ISA_SCHD.P$$
      5990**DCL      5990--REDEF
PL6.E3A0      #001=G_UHJIT_D File=G_UHJIT_D.:E05TSI                              TUE 07/29/97 22:21 Page:9
G_MHJIT.ISA_WDOG.P$$
      3040**DCL      3040--REDEF
G_MHJIT.TSA_DB.ISA.P$$
      2262**DCL      2262--REDEF
G_MHJIT.TSA_DB.P$$
      2133**DCL      2133--REDEF    2134--REDEF
G_MHJIT.TSA_HND.ISA.P$$
      6840**DCL      6840--REDEF
G_MHJIT.TSA_HND.P$$
      6711**DCL      6711--REDEF    6712--REDEF
G_MHJIT.TSA_MON
      1715**DCL      9971--DCLINIT
G_MHJIT.TSA_MON.ISA.P$$
      1874**DCL      1874--REDEF
G_MHJIT.TSA_MON.P$$
      1745**DCL      1745--REDEF    1746--REDEF
G_MHJIT.TSA_OV.ISA.P$$
      2650**DCL      2650--REDEF
G_MHJIT.TSA_OV.P$$
      2521**DCL      2521--REDEF    2522--REDEF
G_UHJIT.ASDT_MCL
      7754**DCL      8472--DCLINIT
G_UHJIT.ISA_USR
      8470**DCL      8765--REDEF
G_UHJIT.ISA_USR.P$$
      8545**DCL      8545--REDEF
G_UHJIT.TSA_CP
      9593**DCL      9208--DCLINIT
G_UHJIT.TSA_CP.ISA.P$$
      9752**DCL      9752--REDEF
G_UHJIT.TSA_CP.P$$
      9623**DCL      9623--REDEF    9624--REDEF
G_UHJIT.TSA_DB
      9205**DCL      8798--DCLINIT
G_UHJIT.TSA_DB.ISA.P$$
      9364**DCL      9364--REDEF
PL6.E3A0      #001=G_UHJIT_D File=G_UHJIT_D.:E05TSI                              TUE 07/29/97 22:21 Page:10
G_UHJIT.TSA_DB.P$$
      9235**DCL      9235--REDEF    9236--REDEF
G_UHJIT.TSA_RTT
      9968**DCL      9596--DCLINIT
G_UHJIT.TSA_RTT.P$$
      9998**DCL      9998--REDEF    9999--REDEF
G_UHJIT.TSA_USR
      8795**DCL      9175--DCLINIT
G_UHJIT.TSA_USR.ISA.P$$
      8954**DCL      8954--REDEF
G_UHJIT.TSA_USR.P$$
      8825**DCL      8825--REDEF    8826--REDEF
