VERSION E05

PL6.E3A0      #001=G_UPTRS_D File=G_UPTRS_D.:E05TSI                              TUE 07/29/97 22:21 Page:1
        1        1        /*M* G_UPTRS_D   Pointers available to user programs and processors     */
        2        2        /*T***********************************************************/
        3        3        /*T*                                                         */
        4        4        /*T* Copyright (c) Bull HN Information Systems Inc., 1997    */
        5        5        /*T*                                                         */
        6        6        /*T***********************************************************/
        7        7
        8        8        G_UPTRS_D: PROC;
        9        9
       10       10        %INCLUDE GM_VIRTUAL_E;
       11      220
       12      221
       13      222        /*    no user access to this segment     */
       14      223        /*    FEPLINK build G$ROS$       */
       15      224    1   DCL G$DB_DS$ UBIN(32) CONSTANT SYMDEF INIT(%GM_DB_DS_BASE);
       16      225    1   DCL G$LOW_MEM$ UBIN(32) CONSTANT SYMDEF INIT(%GM_LOW_MEM_BASE);
       17      226        /*    no user access to this segment     */
       18      227    1   DCL G$UHJIT$ UBIN(32) CONSTANT SYMDEF INIT(%GM_UHJIT_BASE);
       19      228    1   DCL G$MHJIT$ UBIN(32) CONSTANT SYMDEF INIT(%GM_MHJIT_BASE);
       20      229        /*    no user access to this segment     */
       21      230        /*    no user access to this segment     */
       22      231        /*    no user access to this segment     */
       23      232    1   DCL G$DS1$ UBIN(32) CONSTANT SYMDEF INIT(%GM_USRDS1_BASE);
       24      233    1   DCL G$DS2$ UBIN(32) CONSTANT SYMDEF INIT(%GM_USRDS2_BASE);
       25      234    1   DCL G$CP_DS$ UBIN(32) CONSTANT SYMDEF INIT(%GM_CP_DS_BASE);
       26      235    1   DCL G$LAUTO_DS$ UBIN(32) CONSTANT SYMDEF INIT(%GM_LAUTO_DS_BASE);
       27      236    1   DCL G$LAUTO_DS2$ UBIN(32) CONSTANT SYMDEF INIT(%GM_LAUTO_DS2_BASE);
       28      237    1   DCL G$LAUTO_DS3$ UBIN(32) CONSTANT SYMDEF INIT(%GM_LAUTO_DS3_BASE);
       29      238
       30      239    1   DCL G$ISR1$ UBIN(32) CONSTANT SYMDEF INIT(%GM_ISR1_BASE);
       31      240    1   DCL G$ISR2$ UBIN(32) CONSTANT SYMDEF INIT(%GM_ISR2_BASE);
       32      241    1   DCL G$ISR3$ UBIN(32) CONSTANT SYMDEF INIT(%GM_ISR3_BASE);
       33      242    1   DCL G$ISR4$ UBIN(32) CONSTANT SYMDEF INIT(%GM_ISR4_BASE);
       34      243    1   DCL G$ISR5$ UBIN(32) CONSTANT SYMDEF INIT(%GM_ISR5_BASE);
       35      244    1   DCL G$ISR6$ UBIN(32) CONSTANT SYMDEF INIT(%GM_ISR3_BASE);
       36      245    1   DCL G$ISR7$ UBIN(32) CONSTANT SYMDEF INIT(%GM_ISR4_BASE);
       37      246    1   DCL G$DB_PROC$ UBIN(32) CONSTANT SYMDEF INIT(%GM_DB_PROC_BASE);
PL6.E3A0      #001=G_UPTRS_D File=G_UPTRS_D.:E05TSI                              TUE 07/29/97 22:21 Page:2
       38      247    1   DCL G$CP_PROC$ UBIN(32) CONSTANT SYMDEF INIT(%GM_CP_PROC_BASE);
       39      248    1   DCL G$BAUTO_DS$ UBIN(32) CONSTANT SYMDEF INIT(%GM_UAUTO_DS_BASE);
       40      249    1   DCL G$DS3$ UBIN(32) CONSTANT SYMDEF INIT(%GM_USRDS3_BASE);
       41      250    1   DCL G$DS4$ UBIN(32) CONSTANT SYMDEF INIT(%GM_USRDS4_BASE);
       42      251    1   DCL G$HAND_Q$ UBIN(32) CONSTANT SYMDEF INIT(%GM_HAND_Q_BASE);
       43      252    1   DCL G$LIB_ISR1$ UBIN(32) CONSTANT SYMDEF INIT(%GM_LIBIS1_BASE);
       44      253    1   DCL G$LIB_ISR2$ UBIN(32) CONSTANT SYMDEF INIT(%GM_LIBIS2_BASE);
       45      254
       46      255    1   END;

PL6.E3A0      #001=G_UPTRS_D File=G_UPTRS_D.:E05TSI                              TUE 07/29/97 22:21 Page:3
--  Include file information  --

   GM_VIRTUAL_E.:E05TOU  is referenced.
   G_LCP6_E.:E05TOU  was found in the system file and is never referenced.
   GT_LCP6_M.:E05TOU  was found in the system file and is never referenced.
   KI_CP6.:E05TOU  was found in the system file and is never referenced.
   GF_LCP6_M.:E05TOU  was found in the system file and is never referenced.
   GM_LCP6_M.:E05TOU  was found in the system file and is never referenced.
   GU_LCP6_M.:E05TOU  was found in the system file and is never referenced.
   GJ_LCP6_M.:E05TOU  was found in the system file and is never referenced.
   GH_LCP6_M.:E05TOU  was found in the system file and is never referenced.
      No diagnostics issued in procedure G_UPTRS_D.

   No code generated for procedure G_UPTRS_D .
   Procedure G_UPTRS_D requires 4 words of local(AUTO) storage.

    No errors detected in file G_UPTRS_D.:E05TSI    .

PL6.E3A0      #001=G_UPTRS_D File=G_UPTRS_D.:E05TSI                              TUE 07/29/97 22:21 Page:4

 Object Unit name= G_UPTRS_D                                  File name= G_UPTRS_D.:E05TOU
 UTS= JUL 29 '97 22:21:55.24 TUE                              Compiler= PL-6/E31         Sev=      00
 SharedLib= :SHARED_LCP6_SYSTEM                               Alt SharedLib=


    ****  Control sections  ****

 Sect   Type Bound  Init  Size HexSiz  Section name
    0  RoData even  UTS     50     32  G_UPTRS_D
    1   Proc  even  none     0      0  G_UPTRS_D

    ****  Entry defs  ****

                              Check   Calling
                             calling  sequence
  Sect HexLoc Primary Altret sequence   type   Parms  Name
     1      0   yes            yes     ~proc       0  G_UPTRS_D

  ****  Data defs  ****

 Sect HexLoc  Name                           Sect HexLoc  Name
    0      0  G$DB_DS$                           0      2  G$LOW_MEM$
    0      4  G$UHJIT$                           0      6  G$MHJIT$
    0      8  G$DS1$                             0      A  G$DS2$
    0      C  G$CP_DS$                           0      E  G$LAUTO_DS$
    0     10  G$LAUTO_DS2$                       0     12  G$LAUTO_DS3$
    0     14  G$ISR1$                            0     16  G$ISR2$
    0     18  G$ISR3$                            0     1A  G$ISR4$
    0     1C  G$ISR5$                            0     1E  G$ISR6$
    0     20  G$ISR7$                            0     22  G$DB_PROC$
    0     24  G$CP_PROC$                         0     26  G$BAUTO_DS$
    0     28  G$DS3$                             0     2A  G$DS4$
    0     2C  G$HAND_Q$                          0     2E  G$LIB_ISR1$
    0     30  G$LIB_ISR2$
PL6.E3A0      #001=G_UPTRS_D File=G_UPTRS_D.:E05TSI                              TUE 07/29/97 22:21 Page:5

  ****  Data refs  ****

  Flags:  r = read only, s = secondary
Flgs Name                             Flgs Name                             Flgs Name
r    G$ROS$
PL6.E3A0      #001=G_UPTRS_D File=G_UPTRS_D.:E05TSI                              TUE 07/29/97 22:21 Page:6

        1        1        /*M* G_UPTRS_D   Pointers available to user programs and processors     */
        2        2        /*T***********************************************************/
        3        3        /*T*                                                         */
        4        4        /*T* Copyright (c) Bull HN Information Systems Inc., 1997    */
        5        5        /*T*                                                         */
        6        6        /*T***********************************************************/
        7        7
        8        8        G_UPTRS_D: PROC;
        9        9
       10       10        %INCLUDE GM_VIRTUAL_E;
       11      220
       12      221
       13      222        /*    no user access to this segment     */
       14      223        /*    FEPLINK build G$ROS$       */
       15      224    1   DCL G$DB_DS$ UBIN(32) CONSTANT SYMDEF INIT(%GM_DB_DS_BASE);
       16      225    1   DCL G$LOW_MEM$ UBIN(32) CONSTANT SYMDEF INIT(%GM_LOW_MEM_BASE);
       17      226        /*    no user access to this segment     */
       18      227    1   DCL G$UHJIT$ UBIN(32) CONSTANT SYMDEF INIT(%GM_UHJIT_BASE);
       19      228    1   DCL G$MHJIT$ UBIN(32) CONSTANT SYMDEF INIT(%GM_MHJIT_BASE);
       20      229        /*    no user access to this segment     */
       21      230        /*    no user access to this segment     */
       22      231        /*    no user access to this segment     */
       23      232    1   DCL G$DS1$ UBIN(32) CONSTANT SYMDEF INIT(%GM_USRDS1_BASE);
       24      233    1   DCL G$DS2$ UBIN(32) CONSTANT SYMDEF INIT(%GM_USRDS2_BASE);
       25      234    1   DCL G$CP_DS$ UBIN(32) CONSTANT SYMDEF INIT(%GM_CP_DS_BASE);
       26      235    1   DCL G$LAUTO_DS$ UBIN(32) CONSTANT SYMDEF INIT(%GM_LAUTO_DS_BASE);
       27      236    1   DCL G$LAUTO_DS2$ UBIN(32) CONSTANT SYMDEF INIT(%GM_LAUTO_DS2_BASE);
       28      237    1   DCL G$LAUTO_DS3$ UBIN(32) CONSTANT SYMDEF INIT(%GM_LAUTO_DS3_BASE);
       29      238
       30      239    1   DCL G$ISR1$ UBIN(32) CONSTANT SYMDEF INIT(%GM_ISR1_BASE);
       31      240    1   DCL G$ISR2$ UBIN(32) CONSTANT SYMDEF INIT(%GM_ISR2_BASE);
       32      241    1   DCL G$ISR3$ UBIN(32) CONSTANT SYMDEF INIT(%GM_ISR3_BASE);
       33      242    1   DCL G$ISR4$ UBIN(32) CONSTANT SYMDEF INIT(%GM_ISR4_BASE);
       34      243    1   DCL G$ISR5$ UBIN(32) CONSTANT SYMDEF INIT(%GM_ISR5_BASE);
       35      244    1   DCL G$ISR6$ UBIN(32) CONSTANT SYMDEF INIT(%GM_ISR3_BASE);
       36      245    1   DCL G$ISR7$ UBIN(32) CONSTANT SYMDEF INIT(%GM_ISR4_BASE);
       37      246    1   DCL G$DB_PROC$ UBIN(32) CONSTANT SYMDEF INIT(%GM_DB_PROC_BASE);
PL6.E3A0      #001=G_UPTRS_D File=G_UPTRS_D.:E05TSI                              TUE 07/29/97 22:21 Page:7
       38      247    1   DCL G$CP_PROC$ UBIN(32) CONSTANT SYMDEF INIT(%GM_CP_PROC_BASE);
       39      248    1   DCL G$BAUTO_DS$ UBIN(32) CONSTANT SYMDEF INIT(%GM_UAUTO_DS_BASE);
       40      249    1   DCL G$DS3$ UBIN(32) CONSTANT SYMDEF INIT(%GM_USRDS3_BASE);
       41      250    1   DCL G$DS4$ UBIN(32) CONSTANT SYMDEF INIT(%GM_USRDS4_BASE);
       42      251    1   DCL G$HAND_Q$ UBIN(32) CONSTANT SYMDEF INIT(%GM_HAND_Q_BASE);
       43      252    1   DCL G$LIB_ISR1$ UBIN(32) CONSTANT SYMDEF INIT(%GM_LIBIS1_BASE);
       44      253    1   DCL G$LIB_ISR2$ UBIN(32) CONSTANT SYMDEF INIT(%GM_LIBIS2_BASE);
       45      254
       46      255    1   END;

PL6.E3A0      #001=G_UPTRS_D File=G_UPTRS_D.:E05TSI                              TUE 07/29/97 22:21 Page:8
--  Include file information  --

   GM_VIRTUAL_E.:E05TOU  is referenced.
   G_LCP6_E.:E05TOU  was found in the system file and is never referenced.
   GT_LCP6_M.:E05TOU  was found in the system file and is never referenced.
   KI_CP6.:E05TOU  was found in the system file and is never referenced.
   GF_LCP6_M.:E05TOU  was found in the system file and is never referenced.
   GM_LCP6_M.:E05TOU  was found in the system file and is never referenced.
   GU_LCP6_M.:E05TOU  was found in the system file and is never referenced.
   GJ_LCP6_M.:E05TOU  was found in the system file and is never referenced.
   GH_LCP6_M.:E05TOU  was found in the system file and is never referenced.
      No diagnostics issued in procedure G_UPTRS_D.
PL6.E3A0      #001=G_UPTRS_D File=G_UPTRS_D.:E05TSI                              TUE 07/29/97 22:21 Page:9

 **** Variables and constants ****


   No code generated for procedure G_UPTRS_D .
   Procedure G_UPTRS_D requires 4 words of local(AUTO) storage.

    No errors detected in file G_UPTRS_D.:E05TSI    .
PL6.E3A0      #001=G_UPTRS_D File=G_UPTRS_D.:E05TSI                              TUE 07/29/97 22:21 Page:10
          *** CROSS REFERENCE LISTING ***
**     DENOTES     IDENTIFIER DEFINITION
<<                 IDENTIFIER'S VALUE SET
>>                 IDENTIFIER'S VALUE USED
<>                 IDENTIFIER SET AND/OR USED
--                 IDENTIFIER REFERENCED
PL6.E3A0      #001=G_UPTRS_D File=G_UPTRS_D.:E05TSI                              TUE 07/29/97 22:21 Page:11
          MINI XREF LISTING

