PL6.E3A0      #003=HFB$WASH File=HFB$FPR.:E05TSI                                 TUE 07/29/97 22:25 Page:164
     1173        1        /*T***********************************************************/
     1174        2        /*T*                                                         */
     1175        3        /*T* Copyright (c) Bull HN Information Systems Inc., 1997    */
     1176        4        /*T*                                                         */
     1177        5        /*T***********************************************************/
     1178        6        /*F* NAME:        HFB$WASH
     1179        7             PURPOSE:     PL6 portion of code to wash a memory chip that has
     1180        8                          caused an memory EDAC error.   */
     1181        9        /*D* NAME:        HFB$WASH
     1182       10             DESCRIPTION: Entered from HFB$EDAC with the identification of the
     1183       11                          memory chip to be washed.  Based on the memory
     1184       12                          configuration, a set of four loop counts and
     1185       13                          increments is generated that is used by HFC$WASH
     1186       14                          to do the actual washing of the chip for all
     1187       15                          memory interlace configurations.   */
     1188       16        HFB$WASH: PROC(STORE_MODE,STOREUNIT#,WASHED_STORE_MODE);
     1189       17        /**/
     1190       18        %INCLUDE HF_DATA_R;
     1191       61        %INCLUDE SS_SCHED_R;
     1192      104        %INCLUDE B_STRINGS_C;
     1193      233        %INCLUDE B_MLSMAC_C;
     1194     1175        %B_MLS (FPTN=B$MLS,STCLASS=BASED);
     1195     1990        /**/
     1196     1991    1   DCL B$LS$ PTR SYMREF;
     1197     1992    1   DCL HFC$WASH ENTRY(3);
     1198     1993        /**/
     1199     1994    1   DCL 1 STORE_MODE ALIGNED,
     1200     1995    1         2 * BIT(36) UNAL,
     1201     1996    1         2 ERR_ADDR UBIN(5) UNAL,
     1202     1997    1         2 * BIT(9) UNAL,
     1203     1998    1         2 MOSID BIT(4) UNAL,
     1204     1999    1         2 * BIT(18) UNAL;
     1205     2000    1   DCL STOREUNIT# UBIN WORD;
     1206     2001    1   DCL WASHED_STORE_MODE BIT(72) ALIGNED;
     1207     2002    1   DCL MISCDESC BIT(72) DALIGNED;
     1208     2003        /**/
     1209     2004    1   DCL CHIP_START_ADDR UBIN WORD;
PL6.E3A0      #003=HFB$WASH File=HFB$FPR.:E05TSI                                 TUE 07/29/97 22:25 Page:165
     1210     2005    1   DCL 1 START_ADDR REDEF CHIP_START_ADDR,
     1211     2006    1         2 * BIT(12) UNAL,
     1212     2007    1         2 BITS (0:23) BIT(1) UNAL;
     1213     2008    1   DCL 1 LOOP_PARAM,
     1214     2009    1         2 INLOOP UBIN WORD,               /* INNER LOOP COUNT                   */
     1215     2010    1         2 ININC UBIN WORD,                /* INNER LOOP INCREMENT               */
     1216     2011    1         2 OTLOOP UBIN WORD,               /* OUTER LOOP COUNT                   */
     1217     2012    1         2 OTINC UBIN WORD;                /* OUTER LOOP INCREMENT               */
     1218     2013    1   DCL PORT# UBIN WORD;
     1219     2014    1   DCL 1 TYPE2 DALIGNED,
     1220     2015    1         2 FIRST_WORD BIT(36) UNAL,
     1221     2016    1         2 BASE UBIN WORD UNAL;
     1222     2017    1   DCL 1 RSW2,
     1223     2018    1         2 DPSE_2WAY (0:3) BIT(1) UNAL,
     1224     2019    1         2 * BIT(32) UNAL;
     1225     2020    1   DCL S_PNO UBIN SYMREF;
     1226     2021        /**/
     1227     2022    1      IF STORE_MODE.MOSID = '1010'B
     1228     2023    1      THEN CHIP_START_ADDR=H_STOREUNIT.FIRST_ADDR(STOREUNIT#)
     1229     2024    1             + STORE_MODE.ERR_ADDR*32768*4;
     1230     2025    1      ELSE CHIP_START_ADDR=H_STOREUNIT.FIRST_ADDR(STOREUNIT#)
     1231     2026    1             + STORE_MODE.ERR_ADDR*32768;
     1232     2027    1      WASHED_STORE_MODE='0'B;
     1233     2028    1      LOOP_PARAM.INLOOP=4;                 /* ASSUME NO INTERLACE                */
     1234     2029    1      LOOP_PARAM.ININC=2;
     1235     2030    1      LOOP_PARAM.OTLOOP=1024;
     1236     2031    1      LOOP_PARAM.OTINC=32;
     1237     2032    1      PORT#=H_STOREUNIT.PORT#(STOREUNIT#);
     1238     2033    1      IF S_PTYPE(S_PNO) = %DPSE
     1239     2034    1      THEN RSW2 = H_RSW2(S_PNO);
     1240     2035    1      ELSE RSW2 = '0'B;
     1241     2036    1      IF H_SCU_CONFIG.INTERLACE(PORT#)
     1242     2037    2      THEN DO;
     1243     2038        /*
     1244     2039              SCU INTERLACE
     1245     2040        */
     1246     2041    2           IF START_ADDR.BITS(H_SCU_BF(PORT#))
PL6.E3A0      #003=HFB$WASH File=HFB$FPR.:E05TSI                                 TUE 07/29/97 22:25 Page:166
     1247     2042    3           THEN DO;
     1248     2043        /*
     1249     2044                 REVERSE BIT 22 IF SCU BOUNDARY FUNCTION BIT = '1'B
     1250     2045        */
     1251     2046    3                START_ADDR.BITS(22)=~START_ADDR.BITS(22);
     1252     2047    3                END;
     1253     2048    2           LOOP_PARAM.INLOOP=2;
     1254     2049    2           LOOP_PARAM.ININC=4;
     1255     2050    2           LOOP_PARAM.OTLOOP=2048;
     1256     2051    2           END;
     1257     2052    1      IF H_CPU_CONFIG.INTERLACE(PORT#) AND NOT RSW2.DPSE_2WAY(PORT#)
     1258     2053    2      THEN DO;
     1259     2054        /*
     1260     2055              CPU 4-WORD INTERLACE
     1261     2056        */
     1262     2057    2           IF START_ADDR.BITS(H_CPU_BF(PORT#))
     1263     2058    3           THEN DO;
     1264     2059        /*
     1265     2060                 REVERSE BIT 21 IF CPU BOUNDARY FUNCTION BIT = '1'B
     1266     2061        */
     1267     2062    3                START_ADDR.BITS(21)=~START_ADDR.BITS(21);
     1268     2063    3                END;
     1269     2064    2           IF H_SCU_CONFIG.INTERLACE(PORT#)
     1270     2065    3           THEN DO;
     1271     2066        /*
     1272     2067                 FOUR-WAY INTERLACE
     1273     2068        */
     1274     2069    3                LOOP_PARAM.INLOOP=4096;
     1275     2070    3                LOOP_PARAM.ININC=32;
     1276     2071    3                LOOP_PARAM.OTLOOP=1;
     1277     2072    3                LOOP_PARAM.OTINC=128*1024;
     1278     2073    3                END;
     1279     2074    3           ELSE DO;
     1280     2075        /*
     1281     2076                 CPU 4-WORD TWO-WAY INTERLACE ONLY
     1282     2077        */
     1283     2078    3                LOOP_PARAM.INLOOP=2;
PL6.E3A0      #003=HFB$WASH File=HFB$FPR.:E05TSI                                 TUE 07/29/97 22:25 Page:167
     1284     2079    3                LOOP_PARAM.OTLOOP=2048;
     1285     2080    3                END;
     1286     2081    2           END;
     1287     2082    1      IF H_CPU_CONFIG.INTERLACE(PORT#) AND RSW2.DPSE_2WAY(PORT#)
     1288     2083    2      THEN DO;
     1289     2084        /*
     1290     2085              %DPSE CPU 2-WORD TWO-WAY INTERLACE ONLY
     1291     2086        */
     1292     2087    2           IF START_ADDR.BITS(H_CPU_BF(PORT#))
     1293     2088    3           THEN DO;
     1294     2089        /*
     1295     2090                 REVERSE BIT 22 IF CPU BOUNDARY FUNCTION BIT = '1'B
     1296     2091        */
     1297     2092    3                START_ADDR.BITS(22)=~START_ADDR.BITS(22);
     1298     2093    3                END;
     1299     2094    2           LOOP_PARAM.INLOOP=2;
     1300     2095    2           LOOP_PARAM.ININC=4;
     1301     2096    2           LOOP_PARAM.OTLOOP=2048;
     1302     2097    2           END;
     1303     2098        /*
     1304     2099           ADJUST OUTER LOOP COUNT FOR 64K MEMORY CHIP
     1305     2100        */
     1306     2101    1      IF STORE_MODE.MOSID = '1010'B
     1307     2102    1      THEN LOOP_PARAM.OTLOOP = LOOP_PARAM.OTLOOP * 4;
     1308     2103        /*
     1309     2104           BUILD TYPE 2 DESCRIPTOR USING WSQ 0
     1310     2105        */
     1311     2106    1      TYPE2.BASE=4*CHIP_START_ADDR;
     1312     2107    1      TYPE2.FIRST_WORD='377777740002'O;
     1313     2108    2      DO INHIBIT;
     1314     2109    2           MISCDESC=B$LS$->B$MLS.MISC;
     1315     2110    2           CALL HFC$WASH (TYPE2,LOOP_PARAM,WASHED_STORE_MODE);
     1316     2111    2           B$LS$->B$MLS.MISC=MISCDESC;
     1317     2112    2           END;                            /* INHIBIT                            */
     1318     2113    1      RETURN;
     1319     2114    1   END;
     1320     2115        %EOD;
PL6.E3A0      #003=HFB$WASH File=HFB$FPR.:E05TSI                                 TUE 07/29/97 22:25 Page:168

PL6.E3A0      #003=HFB$WASH File=HFB$FPR.:E05TSI                                 TUE 07/29/97 22:25 Page:169
--  Include file information  --

   B_MLSMAC_C.:E05TOU  is referenced.
   B_STRINGS_C.:E05TOU  is referenced.
   SS_CNTRLD_R.:E05TOU  cannot be made into a system file and is referenced.
   SS_CNTRL_R.:E05TOU  cannot be made into a system file and is referenced.
   SS_SCHED_R.:E05TOU  cannot be made into a system file and is referenced.
   HF_DATA_R.:E05TOU  cannot be made into a system file and is referenced.
      No diagnostics issued in procedure HFB$WASH.

   Procedure HFB$WASH requires 177 words for executable code.
   Procedure HFB$WASH requires 22 words of local(AUTO) storage.

PL6.E3A0      #003=HFB$WASH File=HFB$FPR.:E05TSI                                 TUE 07/29/97 22:25 Page:170

 Object Unit name= HFB$WASH                                   File name= HFB$FPR.:E05TOU
 UTS= JUL 29 '97 22:25:41.28 TUE                              Compiler= PL-6/E31         Sev=      00
 SharedLib= :SHARED_SYSTEM                                    Alt SharedLib=


    ****  Control sections  ****

 Sect   Type Bound  Init  Size OctSiz  Section name(segment info)
    0  RoData even  UTS      1      1  HFB$WASH
    1   Proc  even  none   177    261  HFB$WASH
    2  RoData even  none     3      3  HFB$WASH

    ****  Entry defs  ****

                              Check   Calling
                             calling  sequence
  Sect OctLoc Primary Altret sequence   type   Parms  Name
     1      0   yes            yes      Std        3  HFB$WASH

  ****  Entry refs  ****

         Check        Calling
        calling       sequence
Altret sequence SRef   type   Args  Name
         yes           Std       3 HFC$WASH
                       nStd      0 X66_AUTO_3
                       Std       0 B_CONSPOOL_D
                       nStd      0 X66_ARET
PL6.E3A0      #003=HFB$WASH File=HFB$FPR.:E05TSI                                 TUE 07/29/97 22:25 Page:171

  ****  Data refs  ****

  Flags:  r = read only, s = secondary
Flgs Name                             Flgs Name                             Flgs Name
     H_STOREUNIT                           H_CPU_CONFIG                          H_SCU_CONFIG
     H_SCU_BF                              H_CPU_BF                              H_RSW2
     S_PTYPE                               B$LS$                                 S_PNO
     B_VECTNIL
PL6.E3A0      #003=HFB$WASH File=HFB$FPR.:E05TSI                                 TUE 07/29/97 22:25 Page:172


     1173        1        /*T***********************************************************/
     1174        2        /*T*                                                         */
     1175        3        /*T* Copyright (c) Bull HN Information Systems Inc., 1997    */
     1176        4        /*T*                                                         */
     1177        5        /*T***********************************************************/
     1178        6        /*F* NAME:        HFB$WASH
     1179        7             PURPOSE:     PL6 portion of code to wash a memory chip that has
     1180        8                          caused an memory EDAC error.   */
     1181        9        /*D* NAME:        HFB$WASH
     1182       10             DESCRIPTION: Entered from HFB$EDAC with the identification of the
     1183       11                          memory chip to be washed.  Based on the memory
     1184       12                          configuration, a set of four loop counts and
     1185       13                          increments is generated that is used by HFC$WASH
     1186       14                          to do the actual washing of the chip for all
     1187       15                          memory interlace configurations.   */
     1188       16        HFB$WASH: PROC(STORE_MODE,STOREUNIT#,WASHED_STORE_MODE);

     16  1 000000   000000 700200 xent  HFB$WASH     TSX0  ! X66_AUTO_3
         1 000001   000026 000003                    ZERO    22,3

     1189       17        /**/
     1190       18        %INCLUDE HF_DATA_R;
     1191       61        %INCLUDE SS_SCHED_R;
     1192      104        %INCLUDE B_STRINGS_C;
     1193      233        %INCLUDE B_MLSMAC_C;
     1194     1175        %B_MLS (FPTN=B$MLS,STCLASS=BASED);
     1195     1990        /**/
     1196     1991    1   DCL B$LS$ PTR SYMREF;
     1197     1992    1   DCL HFC$WASH ENTRY(3);
     1198     1993        /**/
     1199     1994    1   DCL 1 STORE_MODE ALIGNED,
     1200     1995    1         2 * BIT(36) UNAL,
     1201     1996    1         2 ERR_ADDR UBIN(5) UNAL,
     1202     1997    1         2 * BIT(9) UNAL,
     1203     1998    1         2 MOSID BIT(4) UNAL,
     1204     1999    1         2 * BIT(18) UNAL;
PL6.E3A0      #003=HFB$WASH File=HFB$FPR.:E05TSI                                 TUE 07/29/97 22:25 Page:173
     1205     2000    1   DCL STOREUNIT# UBIN WORD;
     1206     2001    1   DCL WASHED_STORE_MODE BIT(72) ALIGNED;
     1207     2002    1   DCL MISCDESC BIT(72) DALIGNED;
     1208     2003        /**/
     1209     2004    1   DCL CHIP_START_ADDR UBIN WORD;
     1210     2005    1   DCL 1 START_ADDR REDEF CHIP_START_ADDR,
     1211     2006    1         2 * BIT(12) UNAL,
     1212     2007    1         2 BITS (0:23) BIT(1) UNAL;
     1213     2008    1   DCL 1 LOOP_PARAM,
     1214     2009    1         2 INLOOP UBIN WORD,               /* INNER LOOP COUNT                   */
     1215     2010    1         2 ININC UBIN WORD,                /* INNER LOOP INCREMENT               */
     1216     2011    1         2 OTLOOP UBIN WORD,               /* OUTER LOOP COUNT                   */
     1217     2012    1         2 OTINC UBIN WORD;                /* OUTER LOOP INCREMENT               */
     1218     2013    1   DCL PORT# UBIN WORD;
     1219     2014    1   DCL 1 TYPE2 DALIGNED,
     1220     2015    1         2 FIRST_WORD BIT(36) UNAL,
     1221     2016    1         2 BASE UBIN WORD UNAL;
     1222     2017    1   DCL 1 RSW2,
     1223     2018    1         2 DPSE_2WAY (0:3) BIT(1) UNAL,
     1224     2019    1         2 * BIT(32) UNAL;
     1225     2020    1   DCL S_PNO UBIN SYMREF;
     1226     2021        /**/
     1227     2022    1      IF STORE_MODE.MOSID = '1010'B

   2022  1 000002   200003 470500                    LDP0    @STORE_MODE,,AUTO
         1 000003   000001 236100                    LDQ     1,,PR0
         1 000004   000017 376003                    ANQ     15,DU
         1 000005   000012 116003                    CMPQ    10,DU
         1 000006   000022 601000 1                  TNZ     s:2025

     1228     2023    1      THEN CHIP_START_ADDR=H_STOREUNIT.FIRST_ADDR(STOREUNIT#)

   2023  1 000007   200004 471500                    LDP1    @STOREUNIT#,,AUTO
         1 000010   100000 720100                    LXL0    0,,PR1
         1 000011   000000 236010 xsym               LDQ     H_STOREUNIT,X0
         1 000012   000000 376000 2                  ANQ     0
         1 000013   200022 756100                    STQ     RSW2+2,,AUTO
PL6.E3A0      #003=HFB$WASH File=HFB$FPR.:E05TSI                                 TUE 07/29/97 22:25 Page:174
         1 000014   000001 236100                    LDQ     1,,PR0
         1 000015   000016 772000                    QRL     14
         1 000016   000001 376000 2                  ANQ     1
         1 000017   200022 036100                    ADLQ    RSW2+2,,AUTO
         1 000020   200010 756100                    STQ     CHIP_START_ADDR,,AUTO
         1 000021   000034 710000 1                  TRA     s:2027

     1229     2024    1             + STORE_MODE.ERR_ADDR*32768*4;
     1230     2025    1      ELSE CHIP_START_ADDR=H_STOREUNIT.FIRST_ADDR(STOREUNIT#)

   2025  1 000022   200004 471500                    LDP1    @STOREUNIT#,,AUTO
         1 000023   100000 720100                    LXL0    0,,PR1
         1 000024   000000 236010 xsym               LDQ     H_STOREUNIT,X0
         1 000025   000000 376000 2                  ANQ     0
         1 000026   200022 756100                    STQ     RSW2+2,,AUTO
         1 000027   000001 236100                    LDQ     1,,PR0
         1 000030   000020 772000                    QRL     16
         1 000031   000002 376000 2                  ANQ     2
         1 000032   200022 036100                    ADLQ    RSW2+2,,AUTO
         1 000033   200010 756100                    STQ     CHIP_START_ADDR,,AUTO

     1231     2026    1             + STORE_MODE.ERR_ADDR*32768;
     1232     2027    1      WASHED_STORE_MODE='0'B;

   2027  1 000034   200005 473500                    LDP3    @WASHED_STORE_MODE,,AUTO
         1 000035   300000 450100                    STZ     0,,PR3
         1 000036   300001 450100                    STZ     1,,PR3

     1233     2028    1      LOOP_PARAM.INLOOP=4;                 /* ASSUME NO INTERLACE                */

   2028  1 000037   000004 235007                    LDA     4,DL
         1 000040   200011 755100                    STA     LOOP_PARAM,,AUTO

     1234     2029    1      LOOP_PARAM.ININC=2;

   2029  1 000041   000002 235007                    LDA     2,DL
         1 000042   200012 755100                    STA     LOOP_PARAM+1,,AUTO
PL6.E3A0      #003=HFB$WASH File=HFB$FPR.:E05TSI                                 TUE 07/29/97 22:25 Page:175

     1235     2030    1      LOOP_PARAM.OTLOOP=1024;

   2030  1 000043   002000 235007                    LDA     1024,DL
         1 000044   200013 755100                    STA     LOOP_PARAM+2,,AUTO

     1236     2031    1      LOOP_PARAM.OTINC=32;

   2031  1 000045   000040 235007                    LDA     32,DL
         1 000046   200014 755100                    STA     LOOP_PARAM+3,,AUTO

     1237     2032    1      PORT#=H_STOREUNIT.PORT#(STOREUNIT#);

   2032  1 000047   100000 720100                    LXL0    0,,PR1
         1 000050   000000 236010 xsym               LDQ     H_STOREUNIT,X0
         1 000051   000042 772000                    QRL     34
         1 000052   200015 756100                    STQ     PORT#,,AUTO

     1238     2033    1      IF S_PTYPE(S_PNO) = %DPSE

   2033  1 000053   000000 721000 xsym               LXL1    S_PNO
         1 000054   000000 235011 xsym               LDA     S_PTYPE,X1
         1 000055   000001 115007                    CMPA    1,DL
         1 000056   000062 601000 1                  TNZ     s:2035

     1239     2034    1      THEN RSW2 = H_RSW2(S_PNO);

   2034  1 000057   000000 236011 xsym               LDQ     H_RSW2,X1
         1 000060   200020 756100                    STQ     RSW2,,AUTO
         1 000061   000063 710000 1                  TRA     s:2036

     1240     2035    1      ELSE RSW2 = '0'B;

   2035  1 000062   200020 450100                    STZ     RSW2,,AUTO

     1241     2036    1      IF H_SCU_CONFIG.INTERLACE(PORT#)

PL6.E3A0      #003=HFB$WASH File=HFB$FPR.:E05TSI                                 TUE 07/29/97 22:25 Page:176
   2036  1 000063   200015 236100                    LDQ     PORT#,,AUTO
         1 000064   000001 736000                    QLS     1
         1 000065   000000 236006 xsym               LDQ     H_SCU_CONFIG,QL
         1 000066   000040 316007                    CANQ    32,DL
         1 000067   000114 600000 1                  TZE     s:2052

     1242     2037    2      THEN DO;

     1243     2038        /*
     1244     2039              SCU INTERLACE
     1245     2040        */
     1246     2041    2           IF START_ADDR.BITS(H_SCU_BF(PORT#))

   2041  1 000070   200015 722100                    LXL2    PORT#,,AUTO
         1 000071   000000 235012 xsym               LDA     H_SCU_BF,X2
         1 000072   000000 066505                    CMPB    filb='0'B
         1 000073   200010 230001                    BDSC    CHIP_START_ADDR,A,AUTO   by=1,bit=3,n=1
         1 000074   000002 000022 xsym               BDSC    B_VECTNIL+2              by=0,bit=0,n=18
         1 000075   000106 600000 1                  TZE     s:2048

     1247     2042    3           THEN DO;

     1248     2043        /*
     1249     2044                 REVERSE BIT 22 IF SCU BOUNDARY FUNCTION BIT = '1'B
     1250     2045        */
     1251     2046    3                START_ADDR.BITS(22)=~START_ADDR.BITS(22);

   2046  1 000076   200010 236100                    LDQ     CHIP_START_ADDR,,AUTO
         1 000077   000042 736000                    QLS     34
         1 000100   400000 376003                    ANQ     -131072,DU
         1 000101   400000 676003                    ERQ     -131072,DU
         1 000102   000042 772000                    QRL     34
         1 000103   200010 676100                    ERQ     CHIP_START_ADDR,,AUTO
         1 000104   000002 376007                    ANQ     2,DL
         1 000105   200010 656100                    ERSQ    CHIP_START_ADDR,,AUTO

     1252     2047    3                END;
PL6.E3A0      #003=HFB$WASH File=HFB$FPR.:E05TSI                                 TUE 07/29/97 22:25 Page:177

     1253     2048    2           LOOP_PARAM.INLOOP=2;

   2048  1 000106   000002 236007                    LDQ     2,DL
         1 000107   200011 756100                    STQ     LOOP_PARAM,,AUTO

     1254     2049    2           LOOP_PARAM.ININC=4;

   2049  1 000110   000004 235007                    LDA     4,DL
         1 000111   200012 755100                    STA     LOOP_PARAM+1,,AUTO

     1255     2050    2           LOOP_PARAM.OTLOOP=2048;

   2050  1 000112   004000 235007                    LDA     2048,DL
         1 000113   200013 755100                    STA     LOOP_PARAM+2,,AUTO

     1256     2051    2           END;

     1257     2052    1      IF H_CPU_CONFIG.INTERLACE(PORT#) AND NOT RSW2.DPSE_2WAY(PORT#)

   2052  1 000114   200015 236100                    LDQ     PORT#,,AUTO
         1 000115   000011 402007                    MPY     9,DL
         1 000116   000000 066406                    CMPB    filb='0'B
         1 000117   000000 050001 xsym               BDSC    H_CPU_CONFIG,Q           by=0,bit=5,n=1
         1 000120   000002 000022 xsym               BDSC    B_VECTNIL+2              by=0,bit=0,n=18
         1 000121   000166 600000 1                  TZE     s:2082
         1 000122   200015 235100                    LDA     PORT#,,AUTO
         1 000123   000000 066505                    CMPB    filb='0'B
         1 000124   200020 000001                    BDSC    RSW2,A,AUTO              by=0,bit=0,n=1
         1 000125   000002 000022 xsym               BDSC    B_VECTNIL+2              by=0,bit=0,n=18
         1 000126   000166 601000 1                  TNZ     s:2082

     1258     2053    2      THEN DO;

     1259     2054        /*
     1260     2055              CPU 4-WORD INTERLACE
     1261     2056        */
PL6.E3A0      #003=HFB$WASH File=HFB$FPR.:E05TSI                                 TUE 07/29/97 22:25 Page:178
     1262     2057    2           IF START_ADDR.BITS(H_CPU_BF(PORT#))

   2057  1 000127   000000 235005 xsym               LDA     H_CPU_BF,AL
         1 000130   000000 066505                    CMPB    filb='0'B
         1 000131   200010 230001                    BDSC    CHIP_START_ADDR,A,AUTO   by=1,bit=3,n=1
         1 000132   000002 000022 xsym               BDSC    B_VECTNIL+2              by=0,bit=0,n=18
         1 000133   000144 600000 1                  TZE     s:2064

     1263     2058    3           THEN DO;

     1264     2059        /*
     1265     2060                 REVERSE BIT 21 IF CPU BOUNDARY FUNCTION BIT = '1'B
     1266     2061        */
     1267     2062    3                START_ADDR.BITS(21)=~START_ADDR.BITS(21);

   2062  1 000134   200010 236100                    LDQ     CHIP_START_ADDR,,AUTO
         1 000135   000041 736000                    QLS     33
         1 000136   400000 376003                    ANQ     -131072,DU
         1 000137   400000 676003                    ERQ     -131072,DU
         1 000140   000041 772000                    QRL     33
         1 000141   200010 676100                    ERQ     CHIP_START_ADDR,,AUTO
         1 000142   000004 376007                    ANQ     4,DL
         1 000143   200010 656100                    ERSQ    CHIP_START_ADDR,,AUTO

     1268     2063    3                END;

     1269     2064    2           IF H_SCU_CONFIG.INTERLACE(PORT#)

   2064  1 000144   200015 235100                    LDA     PORT#,,AUTO
         1 000145   000001 735000                    ALS     1
         1 000146   000000 236005 xsym               LDQ     H_SCU_CONFIG,AL
         1 000147   000040 316007                    CANQ    32,DL
         1 000150   000162 600000 1                  TZE     s:2078

     1270     2065    3           THEN DO;

     1271     2066        /*
PL6.E3A0      #003=HFB$WASH File=HFB$FPR.:E05TSI                                 TUE 07/29/97 22:25 Page:179
     1272     2067                 FOUR-WAY INTERLACE
     1273     2068        */
     1274     2069    3                LOOP_PARAM.INLOOP=4096;

   2069  1 000151   010000 235007                    LDA     4096,DL
         1 000152   200011 755100                    STA     LOOP_PARAM,,AUTO

     1275     2070    3                LOOP_PARAM.ININC=32;

   2070  1 000153   000040 236007                    LDQ     32,DL
         1 000154   200012 756100                    STQ     LOOP_PARAM+1,,AUTO

     1276     2071    3                LOOP_PARAM.OTLOOP=1;

   2071  1 000155   000001 235007                    LDA     1,DL
         1 000156   200013 755100                    STA     LOOP_PARAM+2,,AUTO

     1277     2072    3                LOOP_PARAM.OTINC=128*1024;

   2072  1 000157   400000 235007                    LDA     -131072,DL
         1 000160   200014 755100                    STA     LOOP_PARAM+3,,AUTO

     1278     2073    3                END;

   2073  1 000161   000166 710000 1                  TRA     s:2082

     1279     2074    3           ELSE DO;

     1280     2075        /*
     1281     2076                 CPU 4-WORD TWO-WAY INTERLACE ONLY
     1282     2077        */
     1283     2078    3                LOOP_PARAM.INLOOP=2;

   2078  1 000162   000002 235007                    LDA     2,DL
         1 000163   200011 755100                    STA     LOOP_PARAM,,AUTO

     1284     2079    3                LOOP_PARAM.OTLOOP=2048;
PL6.E3A0      #003=HFB$WASH File=HFB$FPR.:E05TSI                                 TUE 07/29/97 22:25 Page:180

   2079  1 000164   004000 236007                    LDQ     2048,DL
         1 000165   200013 756100                    STQ     LOOP_PARAM+2,,AUTO

     1285     2080    3                END;

     1286     2081    2           END;

     1287     2082    1      IF H_CPU_CONFIG.INTERLACE(PORT#) AND RSW2.DPSE_2WAY(PORT#)

   2082  1 000166   200015 236100                    LDQ     PORT#,,AUTO
         1 000167   000011 402007                    MPY     9,DL
         1 000170   000000 066406                    CMPB    filb='0'B
         1 000171   000000 050001 xsym               BDSC    H_CPU_CONFIG,Q           by=0,bit=5,n=1
         1 000172   000002 000022 xsym               BDSC    B_VECTNIL+2              by=0,bit=0,n=18
         1 000173   000224 600000 1                  TZE     s:2101
         1 000174   200015 235100                    LDA     PORT#,,AUTO
         1 000175   000000 066505                    CMPB    filb='0'B
         1 000176   200020 000001                    BDSC    RSW2,A,AUTO              by=0,bit=0,n=1
         1 000177   000002 000022 xsym               BDSC    B_VECTNIL+2              by=0,bit=0,n=18
         1 000200   000224 600000 1                  TZE     s:2101

     1288     2083    2      THEN DO;

     1289     2084        /*
     1290     2085              %DPSE CPU 2-WORD TWO-WAY INTERLACE ONLY
     1291     2086        */
     1292     2087    2           IF START_ADDR.BITS(H_CPU_BF(PORT#))

   2087  1 000201   000000 235005 xsym               LDA     H_CPU_BF,AL
         1 000202   000000 066505                    CMPB    filb='0'B
         1 000203   200010 230001                    BDSC    CHIP_START_ADDR,A,AUTO   by=1,bit=3,n=1
         1 000204   000002 000022 xsym               BDSC    B_VECTNIL+2              by=0,bit=0,n=18
         1 000205   000216 600000 1                  TZE     s:2094

     1293     2088    3           THEN DO;

PL6.E3A0      #003=HFB$WASH File=HFB$FPR.:E05TSI                                 TUE 07/29/97 22:25 Page:181
     1294     2089        /*
     1295     2090                 REVERSE BIT 22 IF CPU BOUNDARY FUNCTION BIT = '1'B
     1296     2091        */
     1297     2092    3                START_ADDR.BITS(22)=~START_ADDR.BITS(22);

   2092  1 000206   200010 236100                    LDQ     CHIP_START_ADDR,,AUTO
         1 000207   000042 736000                    QLS     34
         1 000210   400000 376003                    ANQ     -131072,DU
         1 000211   400000 676003                    ERQ     -131072,DU
         1 000212   000042 772000                    QRL     34
         1 000213   200010 676100                    ERQ     CHIP_START_ADDR,,AUTO
         1 000214   000002 376007                    ANQ     2,DL
         1 000215   200010 656100                    ERSQ    CHIP_START_ADDR,,AUTO

     1298     2093    3                END;

     1299     2094    2           LOOP_PARAM.INLOOP=2;

   2094  1 000216   000002 235007                    LDA     2,DL
         1 000217   200011 755100                    STA     LOOP_PARAM,,AUTO

     1300     2095    2           LOOP_PARAM.ININC=4;

   2095  1 000220   000004 236007                    LDQ     4,DL
         1 000221   200012 756100                    STQ     LOOP_PARAM+1,,AUTO

     1301     2096    2           LOOP_PARAM.OTLOOP=2048;

   2096  1 000222   004000 235007                    LDA     2048,DL
         1 000223   200013 755100                    STA     LOOP_PARAM+2,,AUTO

     1302     2097    2           END;

     1303     2098        /*
     1304     2099           ADJUST OUTER LOOP COUNT FOR 64K MEMORY CHIP
     1305     2100        */
     1306     2101    1      IF STORE_MODE.MOSID = '1010'B
PL6.E3A0      #003=HFB$WASH File=HFB$FPR.:E05TSI                                 TUE 07/29/97 22:25 Page:182

   2101  1 000224   000001 236100                    LDQ     1,,PR0
         1 000225   000017 376003                    ANQ     15,DU
         1 000226   000012 116003                    CMPQ    10,DU
         1 000227   000233 601000 1                  TNZ     s:2106

     1307     2102    1      THEN LOOP_PARAM.OTLOOP = LOOP_PARAM.OTLOOP * 4;

   2102  1 000230   200013 235100                    LDA     LOOP_PARAM+2,,AUTO
         1 000231   000002 735000                    ALS     2
         1 000232   200013 755100                    STA     LOOP_PARAM+2,,AUTO

     1308     2103        /*
     1309     2104           BUILD TYPE 2 DESCRIPTOR USING WSQ 0
     1310     2105        */
     1311     2106    1      TYPE2.BASE=4*CHIP_START_ADDR;

   2106  1 000233   200010 235100                    LDA     CHIP_START_ADDR,,AUTO
         1 000234   000002 735000                    ALS     2
         1 000235   200017 755100                    STA     TYPE2+1,,AUTO

     1312     2107    1      TYPE2.FIRST_WORD='377777740002'O;

   2107  1 000236   000000 236000 0                  LDQ     0
         1 000237   200016 756100                    STQ     TYPE2,,AUTO

     1313     2108    2      DO INHIBIT;

     1314     2109    2           MISCDESC=B$LS$->B$MLS.MISC;

   2109  1 000240   000000 474600 xsym               LDP4  ! B$LS$
         1 000241   400130 237300                    LDAQ  ! 88,,PR4
         1 000242   200006 757300                    STAQ  ! MISCDESC,,AUTO

     1315     2110    2           CALL HFC$WASH (TYPE2,LOOP_PARAM,WASHED_STORE_MODE);

   2110  1 000243   200005 236300                    LDQ   ! @WASHED_STORE_MODE,,AUTO
PL6.E3A0      #003=HFB$WASH File=HFB$FPR.:E05TSI                                 TUE 07/29/97 22:25 Page:183
         1 000244   200024 756300                    STQ   ! RSW2+4,,AUTO
         1 000245   200011 635700                    EPPR5 ! LOOP_PARAM,,AUTO
         1 000246   200023 455700                    STP5  ! RSW2+3,,AUTO
         1 000247   200016 636700                    EPPR6 ! TYPE2,,AUTO
         1 000250   200022 456700                    STP6  ! RSW2+2,,AUTO
         1 000251   200022 630700                    EPPR0 ! RSW2+2,,AUTO
         1 000252   000021 631600 xsym               EPPR1 ! B_VECTNIL+17
         1 000253   000000 701200 xent               TSX1  ! HFC$WASH
         1 000254   000000 011200                    NOP   ! 0

     1316     2111    2           B$LS$->B$MLS.MISC=MISCDESC;

   2111  1 000255   200006 237300                    LDAQ  ! MISCDESC,,AUTO
         1 000256   000000 470600 xsym               LDP0  ! B$LS$
         1 000257   000130 757300                    STAQ  ! 88,,PR0

     1317     2112    2           END;                            /* INHIBIT                            */

     1318     2113    1      RETURN;

   2113  1 000260   000000 702200 xent               TSX2  ! X66_ARET

(unnamed)
 Sect OctLoc
   0     000   377777 740002                                                    ....

(unnamed)
 Sect OctLoc
   2     000   000077 777777   000017 400000   000003 700000                    .?..........
     1319     2114    1   END;
     1320     2115        %EOD;

PL6.E3A0      #003=HFB$WASH File=HFB$FPR.:E05TSI                                 TUE 07/29/97 22:25 Page:184
--  Include file information  --

   B_MLSMAC_C.:E05TOU  is referenced.
   B_STRINGS_C.:E05TOU  is referenced.
   SS_CNTRLD_R.:E05TOU  cannot be made into a system file and is referenced.
   SS_CNTRL_R.:E05TOU  cannot be made into a system file and is referenced.
   SS_SCHED_R.:E05TOU  cannot be made into a system file and is referenced.
   HF_DATA_R.:E05TOU  cannot be made into a system file and is referenced.
      No diagnostics issued in procedure HFB$WASH.
PL6.E3A0      #003=HFB$WASH File=HFB$FPR.:E05TSI                                 TUE 07/29/97 22:25 Page:185

 **** Variables and constants ****

  ****  Auto variables  ****

  ****  Scalars and arrays  ****
OctLoc.c.b A Datatyp(siz) R M Lvl/name                 OctLoc.c.b A Datatyp(siz) R M Lvl/name

     4-0-0/w PTR         r     1 @STOREUNIT#                3-0-0/w PTR         r     1 @STORE_MODE
     5-0-0/w PTR         r     1 @WASHED_STORE_MODE        10-0-0/w UBIN        r     1 CHIP_START_ADDR
    11-0-0/w STRC(144)   r     1 LOOP_PARAM                 6-0-0/d BIT (72)    r     1 MISCDESC
    15-0-0/w UBIN        r     1 PORT#                     20-0-0/b STRC        r     1 RSW2
    10-0-0/w STRC        r     1 START_ADDR                *0-0-0/w UBIN        r     1 STOREUNIT#
    *0-0-0/w STRC(72)    r     1 STORE_MODE                16-0-0/d STRC(72)    r     1 TYPE2
    *0-0-0/w BIT (72)    r     1 WASHED_STORE_MODE

  ****  SYMREF variables  ****

  ****  Scalars and arrays  ****
OctLoc.c.b A Datatyp(siz) R M Lvl/name                 OctLoc.c.b A Datatyp(siz) R M Lvl/name

     0-0-0/w PTR         r     1 B$LS$
     0-0-0/w UBIN        r     1 H_CPU_BF(0:3)
     0-0-0/b STRC(9)     r     1 H_CPU_CONFIG(0:3)
     0-0-0/w BIT         r     1 H_RSW2(0:7)
     0-0-0/w UBIN        r     1 H_SCU_BF(0:3)
     0-0-0/d STRC(72)    r     1 H_SCU_CONFIG(0:3)
     0-0-0/b STRC        r     1 H_STOREUNIT(0:15)
     0-0-0/w UBIN        r     1 S_PNO
     0-0-0/w SBIN        r     1 S_PTYPE(0:7)

  ****  BASED and DCB variables  ****

  ****  Scalars and arrays  ****
OctLoc.c.b A Datatyp(siz) R M Lvl/name                 OctLoc.c.b A Datatyp(siz) R M Lvl/name

     0-0-0/d STRC(10368) r     1 B$MLS

PL6.E3A0      #003=HFB$WASH File=HFB$FPR.:E05TSI                                 TUE 07/29/97 22:25 Page:186

   Procedure HFB$WASH requires 177 words for executable code.
   Procedure HFB$WASH requires 22 words of local(AUTO) storage.
PL6.E3A0      #003=HFB$WASH File=HFB$FPR.:E05TSI                                 TUE 07/29/97 22:25 Page:187
          *** CROSS REFERENCE LISTING ***
**     DENOTES     IDENTIFIER DEFINITION
<<                 IDENTIFIER'S VALUE SET
>>                 IDENTIFIER'S VALUE USED
<>                 IDENTIFIER SET AND/OR USED
--                 IDENTIFIER REFERENCED
PL6.E3A0      #003=HFB$WASH File=HFB$FPR.:E05TSI                                 TUE 07/29/97 22:25 Page:188
          MINI XREF LISTING

B$LS$
      1991**DCL      2109>>ASSIGN   2111>>ASSIGN
B$MLS.MISC
      1487**DCL      2109>>ASSIGN   2111<<ASSIGN
CHIP_START_ADDR
      2004**DCL      2005--REDEF    2023<<ASSIGN   2025<<ASSIGN   2106>>ASSIGN
HFC$WASH
      1992**DCL-ENT  2110--CALL
H_CPU_BF
        36**DCL      2057>>IF       2087>>IF
H_CPU_CONFIG.INTERLACE
        33**DCL      2052>>IF       2082>>IF
H_RSW2
        41**DCL      2034>>ASSIGN
H_SCU_BF
        36**DCL      2041>>IF
H_SCU_CONFIG.INTERLACE
        35**DCL      2036>>IF       2064>>IF
H_STOREUNIT.FIRST_ADDR
        29**DCL      2023>>ASSIGN   2025>>ASSIGN
H_STOREUNIT.PORT#
        28**DCL      2032>>ASSIGN
LOOP_PARAM
      2008**DCL      2110<>CALL
LOOP_PARAM.ININC
      2010**DCL      2029<<ASSIGN   2049<<ASSIGN   2070<<ASSIGN   2095<<ASSIGN
LOOP_PARAM.INLOOP
      2009**DCL      2028<<ASSIGN   2048<<ASSIGN   2069<<ASSIGN   2078<<ASSIGN   2094<<ASSIGN
LOOP_PARAM.OTINC
      2012**DCL      2031<<ASSIGN   2072<<ASSIGN
LOOP_PARAM.OTLOOP
      2011**DCL      2030<<ASSIGN   2050<<ASSIGN   2071<<ASSIGN   2079<<ASSIGN   2096<<ASSIGN   2102<<ASSIGN
PL6.E3A0      #003=HFB$WASH File=HFB$FPR.:E05TSI                                 TUE 07/29/97 22:25 Page:189
      2102>>ASSIGN
MISCDESC
      2002**DCL      2109<<ASSIGN   2111>>ASSIGN
PORT#
      2013**DCL      2032<<ASSIGN   2036>>IF       2041>>IF       2052>>IF       2052>>IF       2057>>IF
      2064>>IF       2082>>IF       2082>>IF       2087>>IF
RSW2
      2017**DCL      2034<<ASSIGN   2035<<ASSIGN
RSW2.DPSE_2WAY
      2018**DCL      2052>>IF       2082>>IF
START_ADDR.BITS
      2007**DCL      2041>>IF       2046<<ASSIGN   2046>>ASSIGN   2057>>IF       2062<<ASSIGN   2062>>ASSIGN
      2087>>IF       2092<<ASSIGN   2092>>ASSIGN
STOREUNIT#
      2000**DCL        16--PROC     2023>>ASSIGN   2025>>ASSIGN   2032>>ASSIGN
STORE_MODE
      1994**DCL        16--PROC
STORE_MODE.ERR_ADDR
      1996**DCL      2023>>ASSIGN   2025>>ASSIGN
STORE_MODE.MOSID
      1998**DCL      2022>>IF       2101>>IF
S_PNO
      2020**DCL      2033>>IF       2034>>ASSIGN
S_PTYPE
        91**DCL      2033>>IF
TYPE2
      2014**DCL      2110<>CALL
TYPE2.BASE
      2016**DCL      2106<<ASSIGN
TYPE2.FIRST_WORD
      2015**DCL      2107<<ASSIGN
WASHED_STORE_MODE
      2001**DCL        16--PROC     2027<<ASSIGN   2110<>CALL

PL6.E3A0      #004=HFB$DIAGSNAP File=HFB$FPR.:E05TSI                             TUE 07/29/97 22:26 Page:190
     1321        1        /*T***********************************************************/
     1322        2        /*T*                                                         */
     1323        3        /*T* Copyright (c) Bull HN Information Systems Inc., 1997    */
     1324        4        /*T*                                                         */
     1325        5        /*T***********************************************************/
     1326        6        /*F* NAME:        HFB$DIAGSNAP
     1327        7             PURPOSE:     Perform diagnostic snap upon occurrence of a fault
     1328        8                          if certain system programmer set conditions are met.  */
     1329        9        /*D* NAME:        HFB$DIAGSNAP
     1330       10             DESCRIPTION: The following flags, H_CODE, H_SYSID, H_MODE,
     1331       11                          H_PORT#, H_SPROC#, and H_SNAP control a diagnostic
     1332       12                          snapshot capability built into the fault handler.
     1333       13                          If H_SNAP is zero or negative, the diagnostic
     1334       14                          snapshot mode is disabled.  If H_SNAP is positive
     1335       15                          non-zero value, the snapshot mode is enabled and the
     1336       16                          other snapshot control flags are interrogated.  If
     1337       17                          all of the conditions for a snapshot are met, an
     1338       18                          HFA-548-5 snapshot dump takes place.  This is a
     1339       19                          small dump consisting only of hardware oriented
     1340       20                          data (JITs, HJITs, page tables, user read_only
     1341       21                          segment, history registers, associative memory,
     1342       22                          instructions from the user's instruction segment
     1343       23                          around the faulting instruction, and monitor static
     1344       24                          data).  Definitions of data unique to diagnostic
     1345       25                          snapshots in monitor static are found in modules
     1346       26                          HF_DATA_D and S_WSPTD_D.  The doubleword recovery
     1347       27                          code for this snapshot screech is found at location
     1348       28                          SC_DIAGSNAP in module B_SCREECH_D.  The definitons
     1349       29                          for the recovery codes are found in RV_MACRO_C.
     1350       30                          The procedure for the diagnostic snapshot is in
     1351       31                          module HFA$FAULT and entry point HFB$DIAGSNAP in
     1352       32                          module HFB$FPR.      */
     1353       33        HFB$DIAGSNAP: PROC(FINFO);
     1354       34        /**/
     1355       35        %INCLUDE B_STRINGS_C;
     1356      164        %INCLUDE HF_DATA_R;
     1357      207        %INCLUDE S_WSPTD_R;
PL6.E3A0      #004=HFB$DIAGSNAP File=HFB$FPR.:E05TSI                             TUE 07/29/97 22:26 Page:191
     1358      223        %INCLUDE B$JIT_C;
     1359      537        %B$JIT0;
     1360      626        %A$JIT6X;
     1361      629        %INCLUDE B$USER;
     1362      845        %B$USERREFS;
     1363      849        %INCLUDE B_MAGIC_C;
     1364      967        %B_MPT (FPTN=B_MPT,STCLASS=SYMREF);
     1365     1060        %INCLUDE B_MLSMAC_C;
     1366     2002        %B_MLS (FPTN=B$MLS,STCLASS=BASED);
     1367     2817        %INCLUDE B$SS;
     1368     2996        /**/
     1369     2997    1   DCL 1 FINFO,
     1370     2998    1         2 PORT# UBIN(9) UNAL,
     1371     2999    1         2 * BIT(4) UNAL,
     1372     3000    1         2 BRANCH_MODE BIT(1) UNAL,
     1373     3001    1         2 PROCTYPE UBIN(4) UNAL,
     1374     3002    1         2 SUBCODE UBIN(18) UNAL,
     1375     3003    1         2 FLTREG BIT(36) UNAL,
     1376     3004    1         2 JERR,
     1377     3005    1           3 FCG BIT(12) UNAL,
     1378     3006    1           3 MID BIT(6) UNAL,
     1379     3007    1           3 MON BIT(1) UNAL,
     1380     3008    1           3 CODE UBIN(14) UNAL,
     1381     3009    1           3 SEV UBIN(3) UNAL,
     1382     3010    1         2 P# SBIN WORD;
     1383     3011        /**/
     1384     3012    1   DCL IC UBIN WORD;
     1385     3013    1   DCL IC_HIGH UBIN WORD;
     1386     3014    1   DCL IC_LOW UBIN WORD;
     1387     3015    1   DCL 1 WSPTD,
     1388     3016    1         2 ADDRESS UBIN(18) UNAL,          /* MOD 64 OR 1K WORDS                 */
     1389     3017    1         2 Q BIT(2) UNAL,
     1390     3018    1         2 P BIT(1) UNAL,                  /* 1 -> PAGE TABLE PRESENT            */
     1391     3019    1         2 T BIT(2) UNAL,                  /* 0 -> DENSE PAGE TABLE              */
     1392     3020    1         2 * BIT(1) UNAL,
     1393     3021    1         2 SIZE UBIN(12) UNAL;             /* MOD 64 WORDS                       */
     1394     3022    1   DCL 1 TYPE2 DALIGNED,
PL6.E3A0      #004=HFB$DIAGSNAP File=HFB$FPR.:E05TSI                             TUE 07/29/97 22:26 Page:192
     1395     3023    1         2 FIRST_WORD BIT(36) UNAL,
     1396     3024    1         2 BASE UBIN WORD UNAL;
     1397     3025    1   DCL MISCDESC BIT(72) DALIGNED;
     1398     3026    1   DCL WSR (0:7) UBIN(9) UNAL;
     1399     3027    1   DCL WSQ UBIN WORD;
     1400     3028    1   DCL FAULT_CODE UBIN WORD;
     1401     3029    1   DCL S_TIMR_OLD UBIN WORD;
     1402     3030    1   DCL FLT_IS (0:31) UBIN WORD ALIGNED BASED;
     1403     3031    1   DCL PG_TABLE (0:511) UBIN WORD ALIGNED BASED;
     1404     3032        /**/
     1405     3033    1   DCL B$MISC$ PTR SYMREF;
     1406     3034    1   DCL B$LS$ PTR SYMREF;
     1407     3035    1   DCL B$JIT$ PTR SYMREF;
     1408     3036    1   DCL S_TIMR UBIN SYMREF;
     1409     3037    1   DCL SC_DIAGSNAP ENTRY CONV(2,0);
     1410     3038    1   DCL SSC$SASYNC ENTRY(0);
     1411     3039    1   DCL SSC$STIMR ENTRY(1);
     1412     3040        /**/
     1413     3041    2      DO INHIBIT;
     1414     3042    2           FAULT_CODE = FINFO.JERR.CODE-500;
     1415     3043    2           IF H_CODE~=0 AND H_CODE~=FAULT_CODE
     1416     3044    2             OR H_SYSID~=0 AND H_SYSID~=B$JIT.SYSID
     1417     3045    2             OR H_MODE~=0 AND H_MODE~=B$JIT.MODE
     1418     3046    2             OR H_PORT#~=0 AND H_PORT#~=FINFO.PORT#
     1419     3047    2             OR H_SPROC#~=0 AND H_SPROC#~=S$CU$->B$U.APR
     1420     3048    2           THEN RETURN;
     1421     3049    2           IF H_CODE=0
     1422     3050    2             AND (FAULT_CODE=2             /* MME                                */
     1423     3051    2             OR FAULT_CODE=3               /* FAULT TAG                          */
     1424     3052    2             OR FAULT_CODE=6               /* DERAIL                             */
     1425     3053    2             OR FAULT_CODE=8)              /* CONNECT                            */
     1426     3054    2           THEN RETURN;
     1427     3055    2           END;                            /* DO INHIBIT                         */
     1428     3056    1   HFB$DIAGSNAP1: ENTRY(FINFO);
     1429     3057        /*
     1430     3058                       ENTRY POINT FOR DIAG SNAP WITH NO ADDITONAL QUALIFICATION.
     1431     3059        */
PL6.E3A0      #004=HFB$DIAGSNAP File=HFB$FPR.:E05TSI                             TUE 07/29/97 22:26 Page:193
     1432     3060    2      DO INHIBIT;
     1433     3061    2           S_TIMR_OLD = S_TIMR;
     1434     3062    2           CALL SSC$SASYNC;      /* SWITCH TO MONITOR MODE SO WE CAN UNINHIBIT   */
     1435     3063    2           END;
     1436     3064    1      H_SNAP = H_SNAP-1;
     1437     3065    1      IF MOD(B_MPT.SS$->B$SS.ISR.BOUND,4096) = 4095
     1438     3066    1        AND MOD(B_MPT.SS$->B$SS.ISR.BASE,4096) = 0
     1439     3067    2      THEN DO;
     1440     3068        /*
     1441     3069                   DONT FOOL AROUND WITH MOVING PART OF USER ISR
     1442     3070                   UNLESS ISR BASE AND BOUND ARE BOTH PAGE ALLIGNED
     1443     3071        */
     1444     3072    2           IF NOT(HW_FLTIC_OK OR B_MPT.SS$->B$SS.IR.MIR)
     1445     3073    2           THEN IC = B_MPT.SS$->B$SS.IC-1;
     1446     3074    2           ELSE IC = B_MPT.SS$->B$SS.IC;
     1447     3075    2           IC_HIGH = IC+4;
     1448     3076    2           IF MOD(IC_HIGH,1024)<MOD(IC,1024)
     1449     3077    3           THEN DO;
     1450     3078        /*
     1451     3079                      IC+4 CROSSES PAGE BOUNDARY,
     1452     3080                      USE END OF PAGE FOR IC_HIGH
     1453     3081        */
     1454     3082    3                IC_HIGH = IC-MOD(IC,1024)+1023;
     1455     3083    3                END;
     1456     3084    2           IC_LOW = IC_HIGH-31;
     1457     3085    2           IF MOD(IC_LOW,1024)>MOD(IC,1024)
     1458     3086    3           THEN DO;
     1459     3087        /*
     1460     3088                      IC-27 CROSSES PAGE BOUNDARY,
     1461     3089                      USE BEGINNING OF PAGE FOR IC_LOW
     1462     3090        */
     1463     3091    3                IC_LOW = IC-MOD(IC,1024);
     1464     3092    3                END;
     1465     3093    3           DO INHIBIT;
     1466     3094    3                MISCDESC=B$LS$->B$MLS.MISC;
     1467     3095    3                B$LS$->B$MLS.MISC=B_MPT.SS$->B$SS.ISR;
     1468     3096    3                S_FLT_IS_START = IC_LOW;
PL6.E3A0      #004=HFB$DIAGSNAP File=HFB$FPR.:E05TSI                             TUE 07/29/97 22:26 Page:194
     1469     3097    3                S_FLT_IS = PINCRW(B$MISC$,IC_LOW)->FLT_IS;
     1470     3098    3                B$LS$->B$MLS.MISC=MISCDESC;
     1471     3099    3                END;                       /* INHIBIT                            */
     1472     3100    2           END;
     1473     3101    2      ELSE DO;
     1474     3102    2           S_FLT_IS_START = 0;
     1475     3103    2           S_FLT_IS = '0'B;
     1476     3104    2           END;
     1477     3105    1      IF B_MPT.SS$->B$SS.ISR.WSR ~= %MONWSR
     1478     3106    1        AND B_MPT.SS$->B$SS.ISR.WSR ~= %USERWSR
     1479     3107    2      THEN DO;
     1480     3108        /*
     1481     3109                   DUMP 1ST 512 WORDS OF PAGE TABLE SPECIFIED BY FAULTING
     1482     3110                   INSTRUCTION'S ISR IS NOT MONITOR OR USER
     1483     3111        */
     1484     3112    2           WSR = S_WSR;
     1485     3113    2           WSQ = WSR(B_MPT.SS$->B$SS.ISR.WSR);
     1486     3114    2           WSPTD = S_WSPTD(WSQ);
     1487     3115    2           IF WSQ~=0 AND WSPTD.P='1'B AND WSPTD.T='0'B
     1488     3116    3           THEN DO;
     1489     3117        /*
     1490     3118                      NOT REAL ADDRESSING AND PAGE TABLE IS PRESENT AND DENSE
     1491     3119        */
     1492     3120    3                TYPE2.BASE = WSPTD.ADDRESS*HW_PTB_UNITS*4;
     1493     3121    3                TYPE2.FIRST_WORD = '000777700002'O;
     1494     3122    4                DO INHIBIT;
     1495     3123    4                     MISCDESC=B$LS$->B$MLS.MISC;
     1496     3124    4                     B$LS$->B$MLS.MISC=TYPE2;
     1497     3125    4                     S_PGTABLE = B$MISC$->PG_TABLE;
     1498     3126    4                     B$LS$->B$MLS.MISC=MISCDESC;
     1499     3127    4                     END;                  /* INHIBIT                            */
     1500     3128    3                END;
     1501     3129    2           END;
     1502     3130    1      CALL SC_DIAGSNAP;
     1503     3131    1      CALL SSC$STIMR(S_TIMR_OLD); /* RESTORE S_TIMR, MAKE HANDLING TRANSPARENT   */
     1504     3132    1      RETURN;
     1505     3133    1   END;
PL6.E3A0      #004=HFB$DIAGSNAP File=HFB$FPR.:E05TSI                             TUE 07/29/97 22:26 Page:195
     1506     3134        %EOD;

PL6.E3A0      #004=HFB$DIAGSNAP File=HFB$FPR.:E05TSI                             TUE 07/29/97 22:26 Page:196
--  Include file information  --

   B$SS.:E05TOU  cannot be made into a system file and is referenced.
   B_MLSMAC_C.:E05TOU  is referenced.
   B_MAGIC_C.:E05TOU  is referenced.
   B$USER.:E05TOU  cannot be made into a system file and is referenced.
   B$JIT_C.:E05TOU  is referenced.
   S_WSPTD_R.:E05TOU  cannot be made into a system file and is referenced.
   HF_DATA_R.:E05TOU  cannot be made into a system file and is referenced.
   B_STRINGS_C.:E05TOU  is referenced.
      No diagnostics issued in procedure HFB$DIAGSNAP.

   Procedure HFB$DIAGSNAP requires 188 words for executable code.
   Procedure HFB$DIAGSNAP requires 20 words of local(AUTO) storage.

PL6.E3A0      #004=HFB$DIAGSNAP File=HFB$FPR.:E05TSI                             TUE 07/29/97 22:26 Page:197

 Object Unit name= HFB$DIAGSNAP                               File name= HFB$FPR.:E05TOU
 UTS= JUL 29 '97 22:26:19.28 TUE                              Compiler= PL-6/E31         Sev=      00
 SharedLib= :SHARED_SYSTEM                                    Alt SharedLib=


    ****  Control sections  ****

 Sect   Type Bound  Init  Size OctSiz  Section name(segment info)
    0  RoData even  UTS      1      1  HFB$DIAGSNAP
    1   Proc  even  none   188    274  HFB$DIAGSNAP

    ****  Entry defs  ****

                              Check   Calling
                             calling  sequence
  Sect OctLoc Primary Altret sequence   type   Parms  Name
     1      0   yes            yes      Std        1  HFB$DIAGSNAP
     1     65                  yes      Std        1  HFB$DIAGSNAP1

  ****  Entry refs  ****

         Check        Calling
        calling       sequence
Altret sequence SRef   type   Args  Name
         yes           Std       0 SSC$SASYNC
         yes           Std       1 SSC$STIMR
                       nStd      0 X66_AUTO_1
                       nStd      0 X66_ARET
                       Std       0 B_CONSPOOL_D
PL6.E3A0      #004=HFB$DIAGSNAP File=HFB$FPR.:E05TSI                             TUE 07/29/97 22:26 Page:198

  ****  Data refs  ****

  Flags:  r = read only, s = secondary
Flgs Name                             Flgs Name                             Flgs Name
     SC_DIAGSNAP                           H_CODE                                H_SYSID
     H_MODE                                H_PORT#                               H_SPROC#
     H_SNAP                                HW_PTB_UNITS                          HW_FLTIC_OK
     S_WSPTD                               S_WSR                                 S_FLT_IS_START
     S_FLT_IS                              S_PGTABLE                             S$CU$
     B_MPT                                 B$MISC$                               B$LS$
     B$JIT$                                S_TIMR                                B_VECTNIL

  ****  Segment refs  ****

  Flags:  r = read only, s = secondary
Flgs Name                             Flgs Name                             Flgs Name
     ASLENTSID
PL6.E3A0      #004=HFB$DIAGSNAP File=HFB$FPR.:E05TSI                             TUE 07/29/97 22:26 Page:199


     1321        1        /*T***********************************************************/
     1322        2        /*T*                                                         */
     1323        3        /*T* Copyright (c) Bull HN Information Systems Inc., 1997    */
     1324        4        /*T*                                                         */
     1325        5        /*T***********************************************************/
     1326        6        /*F* NAME:        HFB$DIAGSNAP
     1327        7             PURPOSE:     Perform diagnostic snap upon occurrence of a fault
     1328        8                          if certain system programmer set conditions are met.  */
     1329        9        /*D* NAME:        HFB$DIAGSNAP
     1330       10             DESCRIPTION: The following flags, H_CODE, H_SYSID, H_MODE,
     1331       11                          H_PORT#, H_SPROC#, and H_SNAP control a diagnostic
     1332       12                          snapshot capability built into the fault handler.
     1333       13                          If H_SNAP is zero or negative, the diagnostic
     1334       14                          snapshot mode is disabled.  If H_SNAP is positive
     1335       15                          non-zero value, the snapshot mode is enabled and the
     1336       16                          other snapshot control flags are interrogated.  If
     1337       17                          all of the conditions for a snapshot are met, an
     1338       18                          HFA-548-5 snapshot dump takes place.  This is a
     1339       19                          small dump consisting only of hardware oriented
     1340       20                          data (JITs, HJITs, page tables, user read_only
     1341       21                          segment, history registers, associative memory,
     1342       22                          instructions from the user's instruction segment
     1343       23                          around the faulting instruction, and monitor static
     1344       24                          data).  Definitions of data unique to diagnostic
     1345       25                          snapshots in monitor static are found in modules
     1346       26                          HF_DATA_D and S_WSPTD_D.  The doubleword recovery
     1347       27                          code for this snapshot screech is found at location
     1348       28                          SC_DIAGSNAP in module B_SCREECH_D.  The definitons
     1349       29                          for the recovery codes are found in RV_MACRO_C.
     1350       30                          The procedure for the diagnostic snapshot is in
     1351       31                          module HFA$FAULT and entry point HFB$DIAGSNAP in
     1352       32                          module HFB$FPR.      */
     1353       33        HFB$DIAGSNAP: PROC(FINFO);

     33  1 000000   000000 700200 xent  HFB$DIAGSNAP TSX0  ! X66_AUTO_1
         1 000001   000024 000001                    ZERO    20,1
PL6.E3A0      #004=HFB$DIAGSNAP File=HFB$FPR.:E05TSI                             TUE 07/29/97 22:26 Page:200

     1354       34        /**/
     1355       35        %INCLUDE B_STRINGS_C;
     1356      164        %INCLUDE HF_DATA_R;
     1357      207        %INCLUDE S_WSPTD_R;
     1358      223        %INCLUDE B$JIT_C;
     1359      537        %B$JIT0;
     1360      626        %A$JIT6X;
     1361      629        %INCLUDE B$USER;
     1362      845        %B$USERREFS;
     1363      849        %INCLUDE B_MAGIC_C;
     1364      967        %B_MPT (FPTN=B_MPT,STCLASS=SYMREF);
     1365     1060        %INCLUDE B_MLSMAC_C;
     1366     2002        %B_MLS (FPTN=B$MLS,STCLASS=BASED);
     1367     2817        %INCLUDE B$SS;
     1368     2996        /**/
     1369     2997    1   DCL 1 FINFO,
     1370     2998    1         2 PORT# UBIN(9) UNAL,
     1371     2999    1         2 * BIT(4) UNAL,
     1372     3000    1         2 BRANCH_MODE BIT(1) UNAL,
     1373     3001    1         2 PROCTYPE UBIN(4) UNAL,
     1374     3002    1         2 SUBCODE UBIN(18) UNAL,
     1375     3003    1         2 FLTREG BIT(36) UNAL,
     1376     3004    1         2 JERR,
     1377     3005    1           3 FCG BIT(12) UNAL,
     1378     3006    1           3 MID BIT(6) UNAL,
     1379     3007    1           3 MON BIT(1) UNAL,
     1380     3008    1           3 CODE UBIN(14) UNAL,
     1381     3009    1           3 SEV UBIN(3) UNAL,
     1382     3010    1         2 P# SBIN WORD;
     1383     3011        /**/
     1384     3012    1   DCL IC UBIN WORD;
     1385     3013    1   DCL IC_HIGH UBIN WORD;
     1386     3014    1   DCL IC_LOW UBIN WORD;
     1387     3015    1   DCL 1 WSPTD,
     1388     3016    1         2 ADDRESS UBIN(18) UNAL,          /* MOD 64 OR 1K WORDS                 */
     1389     3017    1         2 Q BIT(2) UNAL,
PL6.E3A0      #004=HFB$DIAGSNAP File=HFB$FPR.:E05TSI                             TUE 07/29/97 22:26 Page:201
     1390     3018    1         2 P BIT(1) UNAL,                  /* 1 -> PAGE TABLE PRESENT            */
     1391     3019    1         2 T BIT(2) UNAL,                  /* 0 -> DENSE PAGE TABLE              */
     1392     3020    1         2 * BIT(1) UNAL,
     1393     3021    1         2 SIZE UBIN(12) UNAL;             /* MOD 64 WORDS                       */
     1394     3022    1   DCL 1 TYPE2 DALIGNED,
     1395     3023    1         2 FIRST_WORD BIT(36) UNAL,
     1396     3024    1         2 BASE UBIN WORD UNAL;
     1397     3025    1   DCL MISCDESC BIT(72) DALIGNED;
     1398     3026    1   DCL WSR (0:7) UBIN(9) UNAL;
     1399     3027    1   DCL WSQ UBIN WORD;
     1400     3028    1   DCL FAULT_CODE UBIN WORD;
     1401     3029    1   DCL S_TIMR_OLD UBIN WORD;
     1402     3030    1   DCL FLT_IS (0:31) UBIN WORD ALIGNED BASED;
     1403     3031    1   DCL PG_TABLE (0:511) UBIN WORD ALIGNED BASED;
     1404     3032        /**/
     1405     3033    1   DCL B$MISC$ PTR SYMREF;
     1406     3034    1   DCL B$LS$ PTR SYMREF;
     1407     3035    1   DCL B$JIT$ PTR SYMREF;
     1408     3036    1   DCL S_TIMR UBIN SYMREF;
     1409     3037    1   DCL SC_DIAGSNAP ENTRY CONV(2,0);
     1410     3038    1   DCL SSC$SASYNC ENTRY(0);
     1411     3039    1   DCL SSC$STIMR ENTRY(1);
     1412     3040        /**/
     1413     3041    2      DO INHIBIT;

     1414     3042    2           FAULT_CODE = FINFO.JERR.CODE-500;

   3042  1 000002   200003 470700                    LDP0  ! @FINFO,,AUTO
         1 000003   000002 236300                    LDQ   ! 2,,PR0
         1 000004   000003 772200                    QRL   ! 3
         1 000005   037777 376207                    ANQ   ! 16383,DL
         1 000006   000764 136207                    SBLQ  ! 500,DL
         1 000007   200017 756300                    STQ   ! FAULT_CODE,,AUTO

     1415     3043    2           IF H_CODE~=0 AND H_CODE~=FAULT_CODE

   3043  1 000010   000000 235200 xsym               LDA   ! H_CODE
PL6.E3A0      #004=HFB$DIAGSNAP File=HFB$FPR.:E05TSI                             TUE 07/29/97 22:26 Page:202
         1 000011   000014 600200 1                  TZE   ! s:3043+4
         1 000012   000000 116200 xsym               CMPQ  ! H_CODE
         1 000013   000047 601200 1                  TNZ   ! s:3048
         1 000014   000000 235200 xsym               LDA   ! H_SYSID
         1 000015   000023 600200 1                  TZE   ! s:3043+11
         1 000016   000000 471600 xsym               LDP1  ! B$JIT$
         1 000017   100000 236300                    LDQ   ! 0,,PR1
         1 000020   777777 376207                    ANQ   ! -1,DL
         1 000021   000000 116200 xsym               CMPQ  ! H_SYSID
         1 000022   000047 601200 1                  TNZ   ! s:3048
         1 000023   000000 236200 xsym               LDQ   ! H_MODE
         1 000024   000032 600200 1                  TZE   ! s:3043+18
         1 000025   000000 471600 xsym               LDP1  ! B$JIT$
         1 000026   100000 236300                    LDQ   ! 0,,PR1
         1 000027   000040 772200                    QRL   ! 32
         1 000030   000000 116200 xsym               CMPQ  ! H_MODE
         1 000031   000047 601200 1                  TNZ   ! s:3048
         1 000032   000000 236200 xsym               LDQ   ! H_PORT#
         1 000033   000040 600200 1                  TZE   ! s:3043+24
         1 000034   000000 236300                    LDQ   ! 0,,PR0
         1 000035   000033 772200                    QRL   ! 27
         1 000036   000000 116200 xsym               CMPQ  ! H_PORT#
         1 000037   000047 601200 1                  TNZ   ! s:3048
         1 000040   000000 236200 xsym               LDQ   ! H_SPROC#
         1 000041   000050 600200 1                  TZE   ! s:3049
         1 000042   000000 471600 xsym               LDP1  ! S$CU$
         1 000043   100007 236300                    LDQ   ! 7,,PR1
         1 000044   000030 772200                    QRL   ! 24
         1 000045   000000 116200 xsym               CMPQ  ! H_SPROC#
         1 000046   000050 600200 1                  TZE   ! s:3049

     1416     3044    2             OR H_SYSID~=0 AND H_SYSID~=B$JIT.SYSID
     1417     3045    2             OR H_MODE~=0 AND H_MODE~=B$JIT.MODE
     1418     3046    2             OR H_PORT#~=0 AND H_PORT#~=FINFO.PORT#
     1419     3047    2             OR H_SPROC#~=0 AND H_SPROC#~=S$CU$->B$U.APR
     1420     3048    2           THEN RETURN;

PL6.E3A0      #004=HFB$DIAGSNAP File=HFB$FPR.:E05TSI                             TUE 07/29/97 22:26 Page:203
   3048  1 000047   000000 702200 xent               TSX2  ! X66_ARET

     1421     3049    2           IF H_CODE=0

   3049  1 000050   000000 236200 xsym               LDQ   ! H_CODE
         1 000051   000064 601200 1                  TNZ   ! s:3055
         1 000052   200017 235300                    LDA   ! FAULT_CODE,,AUTO
         1 000053   000002 115207                    CMPA  ! 2,DL
         1 000054   000063 600200 1                  TZE   ! s:3054
         1 000055   000003 115207                    CMPA  ! 3,DL
         1 000056   000063 600200 1                  TZE   ! s:3054
         1 000057   000006 115207                    CMPA  ! 6,DL
         1 000060   000063 600200 1                  TZE   ! s:3054
         1 000061   000010 115207                    CMPA  ! 8,DL
         1 000062   000064 601200 1                  TNZ   ! s:3055

     1422     3050    2             AND (FAULT_CODE=2             /* MME                                */
     1423     3051    2             OR FAULT_CODE=3               /* FAULT TAG                          */
     1424     3052    2             OR FAULT_CODE=6               /* DERAIL                             */
     1425     3053    2             OR FAULT_CODE=8)              /* CONNECT                            */
     1426     3054    2           THEN RETURN;

   3054  1 000063   000000 702200 xent               TSX2  ! X66_ARET

     1427     3055    2           END;                            /* DO INHIBIT                         */

   3055  1 000064   000067 710000 1                  TRA     s:3061

     1428     3056    1   HFB$DIAGSNAP1: ENTRY(FINFO);

   3056  1 000065   000000 700200 xent  HFB$DIAGSNA* TSX0  ! X66_AUTO_1
         1 000066   000024 000001                    ZERO    20,1

     1429     3057        /*
     1430     3058                       ENTRY POINT FOR DIAG SNAP WITH NO ADDITONAL QUALIFICATION.
     1431     3059        */
     1432     3060    2      DO INHIBIT;
PL6.E3A0      #004=HFB$DIAGSNAP File=HFB$FPR.:E05TSI                             TUE 07/29/97 22:26 Page:204

     1433     3061    2           S_TIMR_OLD = S_TIMR;

   3061  1 000067   000000 235200 xsym               LDA   ! S_TIMR
         1 000070   200020 755300                    STA   ! S_TIMR_OLD,,AUTO

     1434     3062    2           CALL SSC$SASYNC;      /* SWITCH TO MONITOR MODE SO WE CAN UNINHIBIT   */

   3062  1 000071   000002 631600 xsym               EPPR1 ! B_VECTNIL+2
         1 000072   000000 701200 xent               TSX1  ! SSC$SASYNC
         1 000073   000000 011200                    NOP   ! 0

     1435     3063    2           END;

     1436     3064    1      H_SNAP = H_SNAP-1;

   3064  1 000074   000001 336007                    LCQ     1,DL
         1 000075   000000 056000 xsym               ASQ     H_SNAP

     1437     3065    1      IF MOD(B_MPT.SS$->B$SS.ISR.BOUND,4096) = 4095

   3065  1 000076   000000 470400 xsym               LDP0    B_MPT
         1 000077   000010 236100                    LDQ     8,,PR0
         1 000100   000020 772000                    QRL     16
         1 000101   007777 376007                    ANQ     4095,DL
         1 000102   007777 116007                    CMPQ    4095,DL
         1 000103   000205 601000 1                  TNZ     s:3102
         1 000104   000011 236100                    LDQ     9,,PR0
         1 000105   010000 506007                    DIV     4096,DL
         1 000106   000044 733000                    LRS     36
         1 000107   000000 116003                    CMPQ    0,DU
         1 000110   000205 601000 1                  TNZ     s:3102

     1438     3066    1        AND MOD(B_MPT.SS$->B$SS.ISR.BASE,4096) = 0
     1439     3067    2      THEN DO;

     1440     3068        /*
PL6.E3A0      #004=HFB$DIAGSNAP File=HFB$FPR.:E05TSI                             TUE 07/29/97 22:26 Page:205
     1441     3069                   DONT FOOL AROUND WITH MOVING PART OF USER ISR
     1442     3070                   UNLESS ISR BASE AND BOUND ARE BOTH PAGE ALLIGNED
     1443     3071        */
     1444     3072    2           IF NOT(HW_FLTIC_OK OR B_MPT.SS$->B$SS.IR.MIR)

   3072  1 000111   000000 234000 xsym               SZN     HW_FLTIC_OK
         1 000112   000123 604000 1                  TMI     s:3074
         1 000113   000004 236100                    LDQ     4,,PR0
         1 000114   000040 316007                    CANQ    32,DL
         1 000115   000123 601000 1                  TNZ     s:3074

     1445     3073    2           THEN IC = B_MPT.SS$->B$SS.IC-1;

   3073  1 000116   000004 236100                    LDQ     4,,PR0
         1 000117   000022 772000                    QRL     18
         1 000120   000001 136007                    SBLQ    1,DL
         1 000121   200004 756100                    STQ     IC,,AUTO
         1 000122   000126 710000 1                  TRA     s:3075

     1446     3074    2           ELSE IC = B_MPT.SS$->B$SS.IC;

   3074  1 000123   000004 236100                    LDQ     4,,PR0
         1 000124   000022 772000                    QRL     18
         1 000125   200004 756100                    STQ     IC,,AUTO

     1447     3075    2           IC_HIGH = IC+4;

   3075  1 000126   000004 036007                    ADLQ    4,DL
         1 000127   200005 756100                    STQ     IC_HIGH,,AUTO

     1448     3076    2           IF MOD(IC_HIGH,1024)<MOD(IC,1024)

   3076  1 000130   001777 376007                    ANQ     1023,DL
         1 000131   200022 756100                    STQ     S_TIMR_OLD+2,,AUTO
         1 000132   200004 236100                    LDQ     IC,,AUTO
         1 000133   001777 376007                    ANQ     1023,DL
         1 000134   200022 116100                    CMPQ    S_TIMR_OLD+2,,AUTO
PL6.E3A0      #004=HFB$DIAGSNAP File=HFB$FPR.:E05TSI                             TUE 07/29/97 22:26 Page:206
         1 000135   000146 602000 1                  TNC     s:3084
         1 000136   000146 600000 1                  TZE     s:3084

     1449     3077    3           THEN DO;

     1450     3078        /*
     1451     3079                      IC+4 CROSSES PAGE BOUNDARY,
     1452     3080                      USE END OF PAGE FOR IC_HIGH
     1453     3081        */
     1454     3082    3                IC_HIGH = IC-MOD(IC,1024)+1023;

   3082  1 000137   200004 236100                    LDQ     IC,,AUTO
         1 000140   001777 376007                    ANQ     1023,DL
         1 000141   200022 756100                    STQ     S_TIMR_OLD+2,,AUTO
         1 000142   200004 236100                    LDQ     IC,,AUTO
         1 000143   200022 136100                    SBLQ    S_TIMR_OLD+2,,AUTO
         1 000144   001777 036007                    ADLQ    1023,DL
         1 000145   200005 756100                    STQ     IC_HIGH,,AUTO

     1455     3083    3                END;

     1456     3084    2           IC_LOW = IC_HIGH-31;

   3084  1 000146   200005 235100                    LDA     IC_HIGH,,AUTO
         1 000147   000037 135007                    SBLA    31,DL
         1 000150   200006 755100                    STA     IC_LOW,,AUTO

     1457     3085    2           IF MOD(IC_LOW,1024)>MOD(IC,1024)

   3085  1 000151   200006 236100                    LDQ     IC_LOW,,AUTO
         1 000152   001777 376007                    ANQ     1023,DL
         1 000153   200022 756100                    STQ     S_TIMR_OLD+2,,AUTO
         1 000154   200004 236100                    LDQ     IC,,AUTO
         1 000155   001777 376007                    ANQ     1023,DL
         1 000156   200022 116100                    CMPQ    S_TIMR_OLD+2,,AUTO
         1 000157   000166 603000 1                  TRC     s:3094

PL6.E3A0      #004=HFB$DIAGSNAP File=HFB$FPR.:E05TSI                             TUE 07/29/97 22:26 Page:207
     1458     3086    3           THEN DO;

     1459     3087        /*
     1460     3088                      IC-27 CROSSES PAGE BOUNDARY,
     1461     3089                      USE BEGINNING OF PAGE FOR IC_LOW
     1462     3090        */
     1463     3091    3                IC_LOW = IC-MOD(IC,1024);

   3091  1 000160   200004 236100                    LDQ     IC,,AUTO
         1 000161   001777 376007                    ANQ     1023,DL
         1 000162   200022 756100                    STQ     S_TIMR_OLD+2,,AUTO
         1 000163   200004 236100                    LDQ     IC,,AUTO
         1 000164   200022 136100                    SBLQ    S_TIMR_OLD+2,,AUTO
         1 000165   200006 756100                    STQ     IC_LOW,,AUTO

     1464     3092    3                END;

     1465     3093    3           DO INHIBIT;

     1466     3094    3                MISCDESC=B$LS$->B$MLS.MISC;

   3094  1 000166   000000 471600 xsym               LDP1  ! B$LS$
         1 000167   100130 237300                    LDAQ  ! 88,,PR1
         1 000170   200012 757300                    STAQ  ! MISCDESC,,AUTO

     1467     3095    3                B$LS$->B$MLS.MISC=B_MPT.SS$->B$SS.ISR;

   3095  1 000171   000010 237300                    LDAQ  ! 8,,PR0
         1 000172   100130 757300                    STAQ  ! 88,,PR1

     1468     3096    3                S_FLT_IS_START = IC_LOW;

   3096  1 000173   200006 235300                    LDA   ! IC_LOW,,AUTO
         1 000174   000000 755200 xsym               STA   ! S_FLT_IS_START

     1469     3097    3                S_FLT_IS = PINCRW(B$MISC$,IC_LOW)->FLT_IS;

PL6.E3A0      #004=HFB$DIAGSNAP File=HFB$FPR.:E05TSI                             TUE 07/29/97 22:26 Page:208
   3097  1 000175   000002 735200                    ALS   ! 2
         1 000176   000000 473600 xsym               LDP3  ! B$MISC$
         1 000177   000000 100705                    MLR   ! fill='000'O
         1 000200   300000 000200                    ADSC9   0,A,PR3                  cn=0,n=128
         1 000201   000000 000200 xsym               ADSC9   S_FLT_IS                 cn=0,n=128

     1470     3098    3                B$LS$->B$MLS.MISC=MISCDESC;

   3098  1 000202   200012 237300                    LDAQ  ! MISCDESC,,AUTO
         1 000203   100130 757300                    STAQ  ! 88,,PR1

     1471     3099    3                END;                       /* INHIBIT                            */

     1472     3100    2           END;

   3100  1 000204   000211 710000 1                  TRA     s:3105

     1473     3101    2      ELSE DO;

     1474     3102    2           S_FLT_IS_START = 0;

   3102  1 000205   000000 450000 xsym               STZ     S_FLT_IS_START

     1475     3103    2           S_FLT_IS = '0'B;

   3103  1 000206   000000 100400                    MLR     fill='000'O
         1 000207   000002 000001 xsym               ADSC9   B_VECTNIL+2              cn=0,n=1
         1 000210   000000 000200 xsym               ADSC9   S_FLT_IS                 cn=0,n=128

     1476     3104    2           END;

     1477     3105    1      IF B_MPT.SS$->B$SS.ISR.WSR ~= %MONWSR

   3105  1 000211   000010 236100                    LDQ     8,,PR0
         1 000212   000160 316007                    CANQ    112,DL
         1 000213   000263 600000 1                  TZE     s:3130
         1 000214   000010 236100                    LDQ     8,,PR0
PL6.E3A0      #004=HFB$DIAGSNAP File=HFB$FPR.:E05TSI                             TUE 07/29/97 22:26 Page:209
         1 000215   000160 376007                    ANQ     112,DL
         1 000216   000160 116007                    CMPQ    112,DL
         1 000217   000263 600000 1                  TZE     s:3130

     1478     3106    1        AND B_MPT.SS$->B$SS.ISR.WSR ~= %USERWSR
     1479     3107    2      THEN DO;

     1480     3108        /*
     1481     3109                   DUMP 1ST 512 WORDS OF PAGE TABLE SPECIFIED BY FAULTING
     1482     3110                   INSTRUCTION'S ISR IS NOT MONITOR OR USER
     1483     3111        */
     1484     3112    2           WSR = S_WSR;

   3112  1 000220   000000 237000 xsym               LDAQ    S_WSR
         1 000221   200014 757100                    STAQ    WSR,,AUTO

     1485     3113    2           WSQ = WSR(B_MPT.SS$->B$SS.ISR.WSR);

   3113  1 000222   000010 236100                    LDQ     8,,PR0
         1 000223   000004 772000                    QRL     4
         1 000224   000007 376007                    ANQ     7,DL
         1 000225   000100 101506                    MRL     fill='000'O
         1 000226   200014 000001                    ADSC9   WSR,Q,AUTO               cn=0,n=1
         1 000227   200016 000004                    ADSC9   WSQ,,AUTO                cn=0,n=4

     1486     3114    2           WSPTD = S_WSPTD(WSQ);

   3114  1 000230   200016 720100                    LXL0    WSQ,,AUTO
         1 000231   000000 236010 xsym               LDQ     S_WSPTD,X0
         1 000232   200007 756100                    STQ     WSPTD,,AUTO

     1487     3115    2           IF WSQ~=0 AND WSPTD.P='1'B AND WSPTD.T='0'B

   3115  1 000233   200016 235100                    LDA     WSQ,,AUTO
         1 000234   000263 600000 1                  TZE     s:3130
         1 000235   100000 316007                    CANQ    32768,DL
         1 000236   000263 600000 1                  TZE     s:3130
PL6.E3A0      #004=HFB$DIAGSNAP File=HFB$FPR.:E05TSI                             TUE 07/29/97 22:26 Page:210
         1 000237   060000 316007                    CANQ    24576,DL
         1 000240   000263 601000 1                  TNZ     s:3130

     1488     3116    3           THEN DO;

     1489     3117        /*
     1490     3118                      NOT REAL ADDRESSING AND PAGE TABLE IS PRESENT AND DENSE
     1491     3119        */
     1492     3120    3                TYPE2.BASE = WSPTD.ADDRESS*HW_PTB_UNITS*4;

   3120  1 000241   200007 236100                    LDQ     WSPTD,,AUTO
         1 000242   000022 772000                    QRL     18
         1 000243   000000 402000 xsym               MPY     HW_PTB_UNITS
         1 000244   000002 736000                    QLS     2
         1 000245   200011 756100                    STQ     TYPE2+1,,AUTO

     1493     3121    3                TYPE2.FIRST_WORD = '000777700002'O;

   3121  1 000246   000000 236000 0                  LDQ     0
         1 000247   200010 756100                    STQ     TYPE2,,AUTO

     1494     3122    4                DO INHIBIT;

     1495     3123    4                     MISCDESC=B$LS$->B$MLS.MISC;

   3123  1 000250   000000 471600 xsym               LDP1  ! B$LS$
         1 000251   100130 237300                    LDAQ  ! 88,,PR1
         1 000252   200012 757300                    STAQ  ! MISCDESC,,AUTO

     1496     3124    4                     B$LS$->B$MLS.MISC=TYPE2;

   3124  1 000253   200010 237300                    LDAQ  ! TYPE2,,AUTO
         1 000254   100130 757300                    STAQ  ! 88,,PR1

     1497     3125    4                     S_PGTABLE = B$MISC$->PG_TABLE;

   3125  1 000255   000000 473600 xsym               LDP3  ! B$MISC$
PL6.E3A0      #004=HFB$DIAGSNAP File=HFB$FPR.:E05TSI                             TUE 07/29/97 22:26 Page:211
         1 000256   000000 100700                    MLR   ! fill='000'O
         1 000257   300000 002000                    ADSC9   0,,PR3                   cn=0,n=1024
         1 000260   000000 002000 xsym               ADSC9   S_PGTABLE                cn=0,n=1024

     1498     3126    4                     B$LS$->B$MLS.MISC=MISCDESC;

   3126  1 000261   200012 237300                    LDAQ  ! MISCDESC,,AUTO
         1 000262   100130 757300                    STAQ  ! 88,,PR1

     1499     3127    4                     END;                  /* INHIBIT                            */

     1500     3128    3                END;

     1501     3129    2           END;

     1502     3130    1      CALL SC_DIAGSNAP;

   3130  1 000263   000000 713400 xsym               CLIMB   SC_DIAGSNAP
         1 000264   000000 600000 xsid               climb   nvectors=         0

     1503     3131    1      CALL SSC$STIMR(S_TIMR_OLD); /* RESTORE S_TIMR, MAKE HANDLING TRANSPARENT   */

   3131  1 000265   200020 630500                    EPPR0   S_TIMR_OLD,,AUTO
         1 000266   200022 450500                    STP0    S_TIMR_OLD+2,,AUTO
         1 000267   200022 630500                    EPPR0   S_TIMR_OLD+2,,AUTO
         1 000270   000017 631400 xsym               EPPR1   B_VECTNIL+15
         1 000271   000000 701000 xent               TSX1    SSC$STIMR
         1 000272   000000 011000                    NOP     0

     1504     3132    1      RETURN;

   3132  1 000273   000000 702200 xent               TSX2  ! X66_ARET

(unnamed)
 Sect OctLoc
   0     000   000777 700002                                                    ....
     1505     3133    1   END;
PL6.E3A0      #004=HFB$DIAGSNAP File=HFB$FPR.:E05TSI                             TUE 07/29/97 22:26 Page:212
     1506     3134        %EOD;

PL6.E3A0      #004=HFB$DIAGSNAP File=HFB$FPR.:E05TSI                             TUE 07/29/97 22:26 Page:213
--  Include file information  --

   B$SS.:E05TOU  cannot be made into a system file and is referenced.
   B_MLSMAC_C.:E05TOU  is referenced.
   B_MAGIC_C.:E05TOU  is referenced.
   B$USER.:E05TOU  cannot be made into a system file and is referenced.
   B$JIT_C.:E05TOU  is referenced.
   S_WSPTD_R.:E05TOU  cannot be made into a system file and is referenced.
   HF_DATA_R.:E05TOU  cannot be made into a system file and is referenced.
   B_STRINGS_C.:E05TOU  is referenced.
      No diagnostics issued in procedure HFB$DIAGSNAP.
PL6.E3A0      #004=HFB$DIAGSNAP File=HFB$FPR.:E05TSI                             TUE 07/29/97 22:26 Page:214

 **** Variables and constants ****

  ****  Auto variables  ****

  ****  Scalars and arrays  ****
OctLoc.c.b A Datatyp(siz) R M Lvl/name                 OctLoc.c.b A Datatyp(siz) R M Lvl/name

     3-0-0/w PTR         r     1 @FINFO                    17-0-0/w UBIN        r     1 FAULT_CODE
    *0-0-0/w STRC(144)   r     1 FINFO                      4-0-0/w UBIN        r     1 IC
     5-0-0/w UBIN        r     1 IC_HIGH                    6-0-0/w UBIN        r     1 IC_LOW
    12-0-0/d BIT (72)    r     1 MISCDESC                  20-0-0/w UBIN        r     1 S_TIMR_OLD
    10-0-0/d STRC(72)    r     1 TYPE2                      7-0-0/b STRC        r     1 WSPTD
    16-0-0/w UBIN        r     1 WSQ                       14-0-0/b UBIN(9)     r     1 WSR(0:7)

  ****  SYMREF variables  ****

  ****  Scalars and arrays  ****
OctLoc.c.b A Datatyp(siz) R M Lvl/name                 OctLoc.c.b A Datatyp(siz) R M Lvl/name

     0-0-0/w PTR         r     1 B$JIT$                     0-0-0/w PTR         r     1 B$LS$
     0-0-0/w PTR         r     1 B$MISC$                    0-0-0/d STRC(432)   r     1 B_MPT
     0-0-0/w BIT         r     1 HW_FLTIC_OK                0-0-0/w SBIN        r     1 HW_PTB_UNITS
     0-0-0/w UBIN        r     1 H_CODE                     0-0-0/w UBIN        r     1 H_MODE
     0-0-0/w UBIN        r     1 H_PORT#                    0-0-0/w SBIN        r     1 H_SNAP
     0-0-0/w UBIN        r     1 H_SPROC#                   0-0-0/w UBIN        r     1 H_SYSID
     0-0-0/w PTR         r     1 S$CU$
     0-0-0/w UBIN        r     1 S_FLT_IS(0:31)
     0-0-0/w UBIN        r     1 S_FLT_IS_START
     0-0-0/w UBIN        r     1 S_PGTABLE(0:255)
     0-0-0/w UBIN        r     1 S_TIMR                     0-0-0/w STRC        r     1 S_WSPTD(0:28)
     0-0-0/d BIT (72)    r     1 S_WSR

  ****  BASED and DCB variables  ****

  ****  Scalars and arrays  ****
OctLoc.c.b A Datatyp(siz) R M Lvl/name                 OctLoc.c.b A Datatyp(siz) R M Lvl/name

PL6.E3A0      #004=HFB$DIAGSNAP File=HFB$FPR.:E05TSI                             TUE 07/29/97 22:26 Page:215
     0-0-0/d STRC(2088)  r     1 B$JIT                      0-0-0/d STRC(10368) r     1 B$MLS
     0-0-0/d STRC(2304)  r     1 B$SS                       0-0-0/d STRC(576)   r     1 B$U
     0-0-0/w UBIN        r     1 FLT_IS(0:31)               0-0-0/w UBIN        r     1 PG_TABLE(0:511)


   Procedure HFB$DIAGSNAP requires 188 words for executable code.
   Procedure HFB$DIAGSNAP requires 20 words of local(AUTO) storage.
PL6.E3A0      #004=HFB$DIAGSNAP File=HFB$FPR.:E05TSI                             TUE 07/29/97 22:26 Page:216
          *** CROSS REFERENCE LISTING ***
**     DENOTES     IDENTIFIER DEFINITION
<<                 IDENTIFIER'S VALUE SET
>>                 IDENTIFIER'S VALUE USED
<>                 IDENTIFIER SET AND/OR USED
--                 IDENTIFIER REFERENCED
PL6.E3A0      #004=HFB$DIAGSNAP File=HFB$FPR.:E05TSI                             TUE 07/29/97 22:26 Page:217
          MINI XREF LISTING

B$DO.ECCINFO
       780**DCL       781--REDEF
B$JIT.ERR.MID
       544**DCL       544--REDEF
B$JIT.MODE
       538**DCL      3043>>IF
B$JIT.SYSID
       543**DCL      3043>>IF
B$JIT$
      3035**DCL       538--IMP-PTR  3043>>IF       3043>>IF
B$LS$
      3034**DCL      3094>>ASSIGN   3095>>ASSIGN   3098>>ASSIGN   3123>>ASSIGN   3124>>ASSIGN   3126>>ASSIGN
B$MISC$
      3033**DCL      3097>>ASSIGN   3125>>ASSIGN
B$MLS.MISC
      2314**DCL      3094>>ASSIGN   3095<<ASSIGN   3098<<ASSIGN   3123>>ASSIGN   3124<<ASSIGN   3126<<ASSIGN
B$SS.IC
      2836**DCL      3073>>ASSIGN   3074>>ASSIGN
B$SS.IR.MIR
      2850**DCL      3072>>IF
B$SS.ISR
      2871**DCL      3095>>ASSIGN
B$SS.ISR.BASE
      2876**DCL      3065>>IF
B$SS.ISR.BOUND
      2872**DCL      3065>>IF
B$SS.ISR.WSR
      2874**DCL      3105>>IF       3105>>IF       3113>>ASSIGN
B$SS.RVA
      2869**DCL      2870--REDEF
B$U.APR
       739**DCL      3043>>IF
PL6.E3A0      #004=HFB$DIAGSNAP File=HFB$FPR.:E05TSI                             TUE 07/29/97 22:26 Page:218
B$U.MISC
       759**DCL       760--REDEF
B$USER.MISC
       835**DCL       836--REDEF
B_MPT.AS
      1003**DCL      1006--REDEF
B_MPT.ASDESC
      1035**DCL      1039--REDEF
B_MPT.ECCB
      1018**DCL      1021--REDEF
B_MPT.ECCBDESC
      1053**DCL      1057--REDEF
B_MPT.LS
       998**DCL      1001--REDEF
B_MPT.LSDESC
      1029**DCL      1033--REDEF
B_MPT.PS
      1008**DCL      1011--REDEF
B_MPT.PSDESC
      1041**DCL      1045--REDEF
B_MPT.SS
       993**DCL       996--REDEF
B_MPT.SS$
       996**DCL      3065>>IF       3065>>IF       3072>>IF       3073>>ASSIGN   3074>>ASSIGN   3095>>ASSIGN
      3105>>IF       3105>>IF       3113>>ASSIGN
B_MPT.SSDESC
      1023**DCL      1027--REDEF
B_MPT.TCB
      1013**DCL      1016--REDEF
B_MPT.TCBDESC
      1047**DCL      1051--REDEF
FAULT_CODE
      3028**DCL      3042<<ASSIGN   3043>>IF       3049>>IF       3049>>IF       3049>>IF       3049>>IF
FINFO
      2997**DCL        33--PROC     3056--ENTRY
FINFO.JERR.CODE
PL6.E3A0      #004=HFB$DIAGSNAP File=HFB$FPR.:E05TSI                             TUE 07/29/97 22:26 Page:219
      3008**DCL      3042>>ASSIGN
FINFO.PORT#
      2998**DCL      3043>>IF
FLT_IS
      3030**DCL      3097>>ASSIGN
HW_FLTIC_OK
       205**DCL      3072>>IF
HW_PTB_UNITS
       201**DCL      3120>>ASSIGN
H_CODE
       183**DCL      3043>>IF       3043>>IF       3049>>IF
H_MODE
       184**DCL      3043>>IF       3043>>IF
H_PORT#
       184**DCL      3043>>IF       3043>>IF
H_SNAP
       184**DCL      3064<<ASSIGN   3064>>ASSIGN
H_SPROC#
       184**DCL      3043>>IF       3043>>IF
H_SYSID
       184**DCL      3043>>IF       3043>>IF
IC
      3012**DCL      3073<<ASSIGN   3074<<ASSIGN   3075>>ASSIGN   3076>>IF       3082>>ASSIGN   3082>>ASSIGN
      3085>>IF       3091>>ASSIGN   3091>>ASSIGN
IC_HIGH
      3013**DCL      3075<<ASSIGN   3076>>IF       3082<<ASSIGN   3084>>ASSIGN
IC_LOW
      3014**DCL      3084<<ASSIGN   3085>>IF       3091<<ASSIGN   3096>>ASSIGN   3097>>ASSIGN
MISCDESC
      3025**DCL      3094<<ASSIGN   3098>>ASSIGN   3123<<ASSIGN   3126>>ASSIGN
PG_TABLE
      3031**DCL      3125>>ASSIGN
S$CU$
       846**DCL      3043>>IF
SC_DIAGSNAP
      3037**DCL-ENT  3130--CALL
PL6.E3A0      #004=HFB$DIAGSNAP File=HFB$FPR.:E05TSI                             TUE 07/29/97 22:26 Page:220
SSC$SASYNC
      3038**DCL-ENT  3062--CALL
SSC$STIMR
      3039**DCL-ENT  3131--CALL
S_FLT_IS
       217**DCL      3097<<ASSIGN   3103<<ASSIGN
S_FLT_IS_START
       216**DCL      3096<<ASSIGN   3102<<ASSIGN
S_PGTABLE
       218**DCL      3125<<ASSIGN
S_TIMR
      3036**DCL      3061>>ASSIGN
S_TIMR_OLD
      3029**DCL      3061<<ASSIGN   3131<>CALL
S_WSPTD
       215**DCL      3114>>ASSIGN
S_WSR
       216**DCL      3112>>ASSIGN
TYPE2
      3022**DCL      3124>>ASSIGN
TYPE2.BASE
      3024**DCL      3120<<ASSIGN
TYPE2.FIRST_WORD
      3023**DCL      3121<<ASSIGN
WSPTD
      3015**DCL      3114<<ASSIGN
WSPTD.ADDRESS
      3016**DCL      3120>>ASSIGN
WSPTD.P
      3018**DCL      3115>>IF
WSPTD.T
      3019**DCL      3115>>IF
WSQ
      3027**DCL      3113<<ASSIGN   3114>>ASSIGN   3115>>IF
WSR
      3026**DCL      3112<<ASSIGN   3113>>ASSIGN

PL6.E3A0      #005=HFB$FLTREG File=HFB$FPR.:E05TSI                               TUE 07/29/97 22:27 Page:221
     1507        1        /*T***********************************************************/
     1508        2        /*T*                                                         */
     1509        3        /*T* Copyright (c) Bull HN Information Systems Inc., 1997    */
     1510        4        /*T*                                                         */
     1511        5        /*T***********************************************************/
     1512        6        /*F* NAME:        HFB$FLTREG
     1513        7             PURPOSE:     Processing of the extended fault registers.  */
     1514        8        /*D* NAME:        HFB$FLTREG
     1515        9             DESCRIPTION: This subroutine is entered once per minute on every
     1516       10                          running CPU in the system.  HFA$FLTREG is called to
     1517       11                          check that cache and history registers are enabled.
     1518       12                          HFA$FLTREG will also read the extended
     1519       13                          fault register.  Upon return from HFA$FLTREG, this
     1520       14                          subroutine will create a Processor Error Log entry
     1521       15                          if the extended fault register is non-zero.  */
     1522       16        HFB$FLTREG: PROC;
     1523       17        %INCLUDE EL_SUBS_C;
     1524      101        %INCLUDE EL$TABLES;
     1525      424        %EL$PROCERR (STCLASS=AUTO,SHORT=YES);
     1526      434        %INCLUDE HF_DATA_R;
     1527      477        %INCLUDE SS_SCHED_R;
     1528      520        %INCLUDE S_WSPTD_R;
     1529      536        %INCLUDE B_STRINGS_C;
     1530      665        /**/
     1531      666    1   DCL TEMP BIT(72) DALIGNED;
     1532      667    1   DCL 1 FLTREG DALIGNED,
     1533      668    1         2 WORD1 UBIN WORD,
     1534      669    1         2 W1 REDEF WORD1,
     1535      670    1           3 * BIT (24),
     1536      671    1           3 W2 BIT (8),
     1537      672    1           3 * BIT (4),
     1538      673    1         2 WORD2 BIT(36);
     1539      674        /*D* NAME:        HFB$FLTREG
     1540      675             DESCRIPTION: ELS EXTENDED FAULT REGISTER:
     1541      676
     1542      677                  BIT 36 -> WRITE NOTIFY BUFFER OVERFLOW (ELS2)
     1543      678                  BIT 37 -> ONE CYCLE OF PATROL COMPLETED
PL6.E3A0      #005=HFB$FLTREG File=HFB$FPR.:E05TSI                               TUE 07/29/97 22:27 Page:222
     1544      679                  BIT 38 -> INTERMITTENT ERROR ON PATROL
     1545      680
     1546      681                  BIT 39 -> ECS SINGLE ERROR CORRECTED
     1547      682                  BIT 40 -> CONNECT FROM DIAGNOSTIC UNIT
     1548      683                  BIT 41 -> ASSOCIATIVE MEMORY DIRECTORY PARITY ERROR
     1549      684
     1550      685                  BIT 42 -> ASSOCIATIVE MEMORY STORAGE PARITY ERROR
     1551      686                  BIT 43 -> WRITE NOTIFY PARITY ERROR (ELS2)
     1552      687        */
     1553      688        /*D* NAME:        HFB$FLTREG
     1554      689             DESCRIPTION: 8K CACHE FAULT REGISTER:
     1555      690
     1556      691                  BIT 36 -> BUFFER OVERFLOW - PORT_A
     1557      692                  BIT 37 -> BUFFER OVERFLOW - PORT_B
     1558      693                  BIT 38 -> BUFFER OVERFLOW - PORT_C
     1559      694
     1560      695                  BIT 39 -> BUFFER OVERFLOW - PORT_D
     1561      696                  BIT 40 -> PRIMARY DIRECTORY BUFFER OVERFLOW
     1562      697                  BIT 41 -> WRITE NOTIFY PARITY ERROR ON ANY PORT
     1563      698
     1564      699                  BIT 42 -> DUPLICATE DIRECTORY - LEVEL 0 PARITY ERROR
     1565      700                  BIT 43 -> DUPLICATE DIRECTORY - LEVEL 1 PARITY ERROR
     1566      701                  BIT 44 -> DUPLICATE DIRECTORY - LEVEL 2 PARITY ERROR
     1567      702
     1568      703                  BIT 45 -> DUPLICATE DIRECTORY - LEVEL 3 PARITY ERROR
     1569      704                  BIT 46 -> DUPLICATE DIRECTORY MULTIPLE MATCH ERROR
     1570      705        */
     1571      706    1   DCL ERROR UBIN;
     1572      707        /**/
     1573      708    1   DCL S_PNO UBIN SYMREF;
     1574      709        /**/
     1575      710    1   DCL HFA$FLTREG ENTRY(2);
     1576      711    1   DCL ELA$SYSLOG ENTRY(6) ALTRET;
     1577      712        /**/
     1578      713    1      IF H_FLTREG(S_PNO) ~= 0
     1579      714    2      THEN DO;
     1580      715    2           FLTREG.WORD1 = H_FLTREG(S_PNO);
PL6.E3A0      #005=HFB$FLTREG File=HFB$FPR.:E05TSI                               TUE 07/29/97 22:27 Page:223
     1581      716    2           FLTREG.WORD2 = '0'B;
     1582      717    2           H_FLTREG(S_PNO) = 0;
     1583      718    2           IF S_PTYPE (S_PNO) = %ELS1
     1584      719    2           THEN
     1585      720    2                FLTREG.WORD2 = FLTREG.W1.W2;
     1586      721    2           CALL LOGERR;
     1587      722    2           END;
     1588      723    1      CALL HFA$FLTREG(TEMP,FLTREG);
     1589      724    1      IF S_RETRY > 0
     1590      725    1      THEN S_RETRY = 0;
     1591      726    1      IF (FLTREG.WORD2 & H_EXTFLTREG_MASK(S_PTYPE(S_PNO))) ~= '0'B
     1592      727    1      THEN CALL LOGERR;
     1593      728    1      RETURN;
     1594      729        /**/
     1595      730    1   LOGERR: PROC;
     1596      731    2      EL$PROCERR = '0'B;
     1597      732    2      EL$PROCERR.FLTREG = FLTREG;
     1598      733    2      EL$PROCERR.PORT# = S_PORTNR(S_PNO);
     1599      734    2      EL$PROCERR.PROCTYPE = S_PTYPE(S_PNO);
     1600      735    2      EL$PROCERR.RSW2 = H_RSW2(S_PNO);
     1601      736    2      CALL ELA$SYSLOG(EL_PROCERR,EL$PROCERR,SIZEW(EL$PROCERR),'0'B,1,ERROR);
     1602      737    2      RETURN;
     1603      738    2   END LOGERR;
     1604      739    1   END;
     1605      740        %EOD;

PL6.E3A0      #005=HFB$FLTREG File=HFB$FPR.:E05TSI                               TUE 07/29/97 22:27 Page:224
--  Include file information  --

   B_STRINGS_C.:E05TOU  is referenced.
   S_WSPTD_R.:E05TOU  cannot be made into a system file and is referenced.
   SS_CNTRLD_R.:E05TOU  cannot be made into a system file and is referenced.
   SS_CNTRL_R.:E05TOU  cannot be made into a system file and is referenced.
   SS_SCHED_R.:E05TOU  cannot be made into a system file and is referenced.
   HF_DATA_R.:E05TOU  cannot be made into a system file and is referenced.
   EL$TABLES.:E05TOU  is referenced.
   EL_SUBS_C.:E05TOU  is referenced.
      No diagnostics issued in procedure HFB$FLTREG.

   Procedure HFB$FLTREG requires 70 words for executable code.
   Procedure HFB$FLTREG requires 28 words of local(AUTO) storage.

PL6.E3A0      #005=HFB$FLTREG File=HFB$FPR.:E05TSI                               TUE 07/29/97 22:27 Page:225

 Object Unit name= HFB$FLTREG                                 File name= HFB$FPR.:E05TOU
 UTS= JUL 29 '97 22:27:14.96 TUE                              Compiler= PL-6/E31         Sev=      00
 SharedLib= :SHARED_SYSTEM                                    Alt SharedLib=


    ****  Control sections  ****

 Sect   Type Bound  Init  Size OctSiz  Section name(segment info)
    0   Proc  even  none    70    106  HFB$FLTREG
    1  RoData even  none     5      5  HFB$FLTREG

    ****  Entry defs  ****

                              Check   Calling
                             calling  sequence
  Sect OctLoc Primary Altret sequence   type   Parms  Name
     0      0   yes            yes      Std        0  HFB$FLTREG

  ****  Entry refs  ****

         Check        Calling
        calling       sequence
Altret sequence SRef   type   Args  Name
         yes           Std       2 HFA$FLTREG
 yes     yes           Std       6 ELA$SYSLOG
                       nStd      0 X66_AUTO_0
                       Std       0 B_CONSPOOL_D
                       nStd      0 X66_ARET

  ****  Data refs  ****

  Flags:  r = read only, s = secondary
Flgs Name                             Flgs Name                             Flgs Name
     H_RSW2                           r    H_EXTFLTREG_MASK                      H_FLTREG
     S_PORTNR                              S_PTYPE                               S_RETRY
     S_PNO                                 B_VECTNIL
PL6.E3A0      #005=HFB$FLTREG File=HFB$FPR.:E05TSI                               TUE 07/29/97 22:27 Page:226

  ****  Segment refs  ****

  Flags:  r = read only, s = secondary
Flgs Name                             Flgs Name                             Flgs Name
     ISSID
PL6.E3A0      #005=HFB$FLTREG File=HFB$FPR.:E05TSI                               TUE 07/29/97 22:27 Page:227


     1507        1        /*T***********************************************************/
     1508        2        /*T*                                                         */
     1509        3        /*T* Copyright (c) Bull HN Information Systems Inc., 1997    */
     1510        4        /*T*                                                         */
     1511        5        /*T***********************************************************/
     1512        6        /*F* NAME:        HFB$FLTREG
     1513        7             PURPOSE:     Processing of the extended fault registers.  */
     1514        8        /*D* NAME:        HFB$FLTREG
     1515        9             DESCRIPTION: This subroutine is entered once per minute on every
     1516       10                          running CPU in the system.  HFA$FLTREG is called to
     1517       11                          check that cache and history registers are enabled.
     1518       12                          HFA$FLTREG will also read the extended
     1519       13                          fault register.  Upon return from HFA$FLTREG, this
     1520       14                          subroutine will create a Processor Error Log entry
     1521       15                          if the extended fault register is non-zero.  */
     1522       16        HFB$FLTREG: PROC;

     16  0 000000   000000 700200 xent  HFB$FLTREG   TSX0  ! X66_AUTO_0
         0 000001   000034 000000                    ZERO    28,0

     1523       17        %INCLUDE EL_SUBS_C;
     1524      101        %INCLUDE EL$TABLES;
     1525      424        %EL$PROCERR (STCLASS=AUTO,SHORT=YES);
     1526      434        %INCLUDE HF_DATA_R;
     1527      477        %INCLUDE SS_SCHED_R;
     1528      520        %INCLUDE S_WSPTD_R;
     1529      536        %INCLUDE B_STRINGS_C;
     1530      665        /**/
     1531      666    1   DCL TEMP BIT(72) DALIGNED;
     1532      667    1   DCL 1 FLTREG DALIGNED,
     1533      668    1         2 WORD1 UBIN WORD,
     1534      669    1         2 W1 REDEF WORD1,
     1535      670    1           3 * BIT (24),
     1536      671    1           3 W2 BIT (8),
     1537      672    1           3 * BIT (4),
     1538      673    1         2 WORD2 BIT(36);
PL6.E3A0      #005=HFB$FLTREG File=HFB$FPR.:E05TSI                               TUE 07/29/97 22:27 Page:228
     1539      674        /*D* NAME:        HFB$FLTREG
     1540      675             DESCRIPTION: ELS EXTENDED FAULT REGISTER:
     1541      676
     1542      677                  BIT 36 -> WRITE NOTIFY BUFFER OVERFLOW (ELS2)
     1543      678                  BIT 37 -> ONE CYCLE OF PATROL COMPLETED
     1544      679                  BIT 38 -> INTERMITTENT ERROR ON PATROL
     1545      680
     1546      681                  BIT 39 -> ECS SINGLE ERROR CORRECTED
     1547      682                  BIT 40 -> CONNECT FROM DIAGNOSTIC UNIT
     1548      683                  BIT 41 -> ASSOCIATIVE MEMORY DIRECTORY PARITY ERROR
     1549      684
     1550      685                  BIT 42 -> ASSOCIATIVE MEMORY STORAGE PARITY ERROR
     1551      686                  BIT 43 -> WRITE NOTIFY PARITY ERROR (ELS2)
     1552      687        */
     1553      688        /*D* NAME:        HFB$FLTREG
     1554      689             DESCRIPTION: 8K CACHE FAULT REGISTER:
     1555      690
     1556      691                  BIT 36 -> BUFFER OVERFLOW - PORT_A
     1557      692                  BIT 37 -> BUFFER OVERFLOW - PORT_B
     1558      693                  BIT 38 -> BUFFER OVERFLOW - PORT_C
     1559      694
     1560      695                  BIT 39 -> BUFFER OVERFLOW - PORT_D
     1561      696                  BIT 40 -> PRIMARY DIRECTORY BUFFER OVERFLOW
     1562      697                  BIT 41 -> WRITE NOTIFY PARITY ERROR ON ANY PORT
     1563      698
     1564      699                  BIT 42 -> DUPLICATE DIRECTORY - LEVEL 0 PARITY ERROR
     1565      700                  BIT 43 -> DUPLICATE DIRECTORY - LEVEL 1 PARITY ERROR
     1566      701                  BIT 44 -> DUPLICATE DIRECTORY - LEVEL 2 PARITY ERROR
     1567      702
     1568      703                  BIT 45 -> DUPLICATE DIRECTORY - LEVEL 3 PARITY ERROR
     1569      704                  BIT 46 -> DUPLICATE DIRECTORY MULTIPLE MATCH ERROR
     1570      705        */
     1571      706    1   DCL ERROR UBIN;
     1572      707        /**/
     1573      708    1   DCL S_PNO UBIN SYMREF;
     1574      709        /**/
     1575      710    1   DCL HFA$FLTREG ENTRY(2);
PL6.E3A0      #005=HFB$FLTREG File=HFB$FPR.:E05TSI                               TUE 07/29/97 22:27 Page:229
     1576      711    1   DCL ELA$SYSLOG ENTRY(6) ALTRET;
     1577      712        /**/
     1578      713    1      IF H_FLTREG(S_PNO) ~= 0

    713  0 000002   000000 720000 xsym               LXL0    S_PNO
         0 000003   000000 235010 xsym               LDA     H_FLTREG,X0
         0 000004   000021 600000 0                  TZE     s:723

     1579      714    2      THEN DO;

     1580      715    2           FLTREG.WORD1 = H_FLTREG(S_PNO);

    715  0 000005   200020 755100                    STA     FLTREG,,AUTO

     1581      716    2           FLTREG.WORD2 = '0'B;

    716  0 000006   200021 450100                    STZ     FLTREG+1,,AUTO

     1582      717    2           H_FLTREG(S_PNO) = 0;

    717  0 000007   000000 450010 xsym               STZ     H_FLTREG,X0

     1583      718    2           IF S_PTYPE (S_PNO) = %ELS1

    718  0 000010   000000 235010 xsym               LDA     S_PTYPE,X0
         0 000011   000002 115007                    CMPA    2,DL
         0 000012   000017 601000 0                  TNZ     s:721

     1584      719    2           THEN
     1585      720    2                FLTREG.WORD2 = FLTREG.W1.W2;

    720  0 000013   200020 236100                    LDQ     FLTREG,,AUTO
         0 000014   000030 736000                    QLS     24
         0 000015   776000 376003                    ANQ     -1024,DU
         0 000016   200021 756100                    STQ     FLTREG+1,,AUTO

     1586      721    2           CALL LOGERR;
PL6.E3A0      #005=HFB$FLTREG File=HFB$FPR.:E05TSI                               TUE 07/29/97 22:27 Page:230

    721  0 000017   000044 701000 0                  TSX1    LOGERR
         0 000020   000000 011000                    NOP     0

     1587      722    2           END;

     1588      723    1      CALL HFA$FLTREG(TEMP,FLTREG);

    723  0 000021   200020 630500                    EPPR0   FLTREG,,AUTO
         0 000022   200027 450500                    STP0    ERROR+5,,AUTO
         0 000023   200016 631500                    EPPR1   TEMP,,AUTO
         0 000024   200026 451500                    STP1    ERROR+4,,AUTO
         0 000025   200026 630500                    EPPR0   ERROR+4,,AUTO
         0 000026   000020 631400 xsym               EPPR1   B_VECTNIL+16
         0 000027   000000 701000 xent               TSX1    HFA$FLTREG
         0 000030   000000 011000                    NOP     0

     1589      724    1      IF S_RETRY > 0

    724  0 000031   000000 235000 xsym               LDA     S_RETRY
         0 000032   000034 604400 0                  TMOZ    s:726

     1590      725    1      THEN S_RETRY = 0;

    725  0 000033   000000 450000 xsym               STZ     S_RETRY

     1591      726    1      IF (FLTREG.WORD2 & H_EXTFLTREG_MASK(S_PTYPE(S_PNO))) ~= '0'B

    726  0 000034   000000 720000 xsym               LXL0    S_PNO
         0 000035   000000 721010 xsym               LXL1    S_PTYPE,X0
         0 000036   200021 236100                    LDQ     FLTREG+1,,AUTO
         0 000037   000000 376011 xsym               ANQ     H_EXTFLTREG_MASK,X1
         0 000040   000043 600000 0                  TZE     s:728

     1592      727    1      THEN CALL LOGERR;

    727  0 000041   000044 701000 0                  TSX1    LOGERR
PL6.E3A0      #005=HFB$FLTREG File=HFB$FPR.:E05TSI                               TUE 07/29/97 22:27 Page:231
         0 000042   000000 011000                    NOP     0

     1593      728    1      RETURN;

    728  0 000043   000000 702200 xent               TSX2  ! X66_ARET

     1594      729        /**/
     1595      730    1   LOGERR: PROC;

    730  0 000044   200024 741300       LOGERR       STX1  ! ERROR+2,,AUTO

     1596      731    2      EL$PROCERR = '0'B;

    731  0 000045   000100 100400                    MLR     fill='000'O
         0 000046   000002 000001 xsym               ADSC9   B_VECTNIL+2              cn=0,n=1
         0 000047   200003 000050                    ADSC9   EL$PROCERR,,AUTO         cn=0,n=40

     1597      732    2      EL$PROCERR.FLTREG = FLTREG;

    732  0 000050   200020 237100                    LDAQ    FLTREG,,AUTO
         0 000051   200005 755100                    STA     EL$PROCERR+2,,AUTO
         0 000052   200006 756100                    STQ     EL$PROCERR+3,,AUTO

     1598      733    2      EL$PROCERR.PORT# = S_PORTNR(S_PNO);

    733  0 000053   000000 720000 xsym               LXL0    S_PNO
         0 000054   000000 236010 xsym               LDQ     S_PORTNR,X0
         0 000055   000011 736000                    QLS     9
         0 000056   200010 552110                    STBQ    EL$PROCERR+5,'10'O,AUTO

     1599      734    2      EL$PROCERR.PROCTYPE = S_PTYPE(S_PNO);

    734  0 000057   000000 236010 xsym               LDQ     S_PTYPE,X0
         0 000060   000005 736000                    QLS     5
         0 000061   200010 676100                    ERQ     EL$PROCERR+5,,AUTO
         0 000062   000740 376007                    ANQ     480,DL
         0 000063   200010 656100                    ERSQ    EL$PROCERR+5,,AUTO
PL6.E3A0      #005=HFB$FLTREG File=HFB$FPR.:E05TSI                               TUE 07/29/97 22:27 Page:232

     1600      735    2      EL$PROCERR.RSW2 = H_RSW2(S_PNO);

    735  0 000064   000000 236010 xsym               LDQ     H_RSW2,X0
         0 000065   200012 756100                    STQ     EL$PROCERR+7,,AUTO

     1601      736    2      CALL ELA$SYSLOG(EL_PROCERR,EL$PROCERR,SIZEW(EL$PROCERR),'0'B,1,ERROR);

    736  0 000066   200022 630500                    EPPR0   ERROR,,AUTO
         0 000067   200033 450500                    STP0    ERROR+9,,AUTO
         0 000070   000001 236000 1                  LDQ     1
         0 000071   200032 756100                    STQ     ERROR+8,,AUTO
         0 000072   000002 237000 1                  LDAQ    2
         0 000073   200030 757100                    STAQ    ERROR+6,,AUTO
         0 000074   200003 631500                    EPPR1   EL$PROCERR,,AUTO
         0 000075   200027 451500                    STP1    ERROR+5,,AUTO
         0 000076   000004 236000 1                  LDQ     4
         0 000077   200026 756100                    STQ     ERROR+4,,AUTO
         0 000100   200026 630500                    EPPR0   ERROR+4,,AUTO
         0 000101   000024 631400 xsym               EPPR1   B_VECTNIL+20
         0 000102   000000 701000 xent               TSX1    ELA$SYSLOG
         0 000103   000000 011000                    NOP     0

     1602      737    2      RETURN;

    737  0 000104   200024 221300                    LDX1  ! ERROR+2,,AUTO
         0 000105   000001 702211                    TSX2  ! 1,X1

(unnamed)
 Sect OctLoc
   1     000   000000 000314   000003 006000   000014 006000   000002 006000    ................
   1     004   000000 006000                                                    ....
     1603      738    2   END LOGERR;
     1604      739    1   END;
     1605      740        %EOD;

PL6.E3A0      #005=HFB$FLTREG File=HFB$FPR.:E05TSI                               TUE 07/29/97 22:27 Page:233
--  Include file information  --

   B_STRINGS_C.:E05TOU  is referenced.
   S_WSPTD_R.:E05TOU  cannot be made into a system file and is referenced.
   SS_CNTRLD_R.:E05TOU  cannot be made into a system file and is referenced.
   SS_CNTRL_R.:E05TOU  cannot be made into a system file and is referenced.
   SS_SCHED_R.:E05TOU  cannot be made into a system file and is referenced.
   HF_DATA_R.:E05TOU  cannot be made into a system file and is referenced.
   EL$TABLES.:E05TOU  is referenced.
   EL_SUBS_C.:E05TOU  is referenced.
      No diagnostics issued in procedure HFB$FLTREG.
PL6.E3A0      #005=HFB$FLTREG File=HFB$FPR.:E05TSI                               TUE 07/29/97 22:27 Page:234

 **** Variables and constants ****

  ****  Auto variables  ****

  ****  Scalars and arrays  ****
OctLoc.c.b A Datatyp(siz) R M Lvl/name                 OctLoc.c.b A Datatyp(siz) R M Lvl/name

     3-0-0/w STRC(360)   r     1 EL$PROCERR                22-0-0/w UBIN        r     1 ERROR
    20-0-0/d STRC(72)    r     1 FLTREG                    16-0-0/d BIT (72)    r     1 TEMP

  ****  SYMREF variables  ****

  ****  Scalars and arrays  ****
OctLoc.c.b A Datatyp(siz) R M Lvl/name                 OctLoc.c.b A Datatyp(siz) R M Lvl/name

     0-0-0/w BIT         r     1 H_EXTFLTREG_MASK(0:6)
     0-0-0/w UBIN        r     1 H_FLTREG(0:5)
     0-0-0/w BIT         r     1 H_RSW2(0:7)                0-0-0/w UBIN        r     1 S_PNO
     0-0-0/w UBIN        r     1 S_PORTNR(0:7)
     0-0-0/w SBIN        r     1 S_PTYPE(0:7)
     0-0-0/w SBIN        r     1 S_RETRY


   Procedure HFB$FLTREG requires 70 words for executable code.
   Procedure HFB$FLTREG requires 28 words of local(AUTO) storage.
PL6.E3A0      #005=HFB$FLTREG File=HFB$FPR.:E05TSI                               TUE 07/29/97 22:27 Page:235
          *** CROSS REFERENCE LISTING ***
**     DENOTES     IDENTIFIER DEFINITION
<<                 IDENTIFIER'S VALUE SET
>>                 IDENTIFIER'S VALUE USED
<>                 IDENTIFIER SET AND/OR USED
--                 IDENTIFIER REFERENCED
PL6.E3A0      #005=HFB$FLTREG File=HFB$FPR.:E05TSI                               TUE 07/29/97 22:27 Page:236
          MINI XREF LISTING

EL$PROCERR
       425**DCL       731<<ASSIGN    736<>CALL      736--CALL
EL$PROCERR.FLTREG
       425**DCL       732<<ASSIGN
EL$PROCERR.PORT#
       425**DCL       733<<ASSIGN
EL$PROCERR.PROCTYPE
       425**DCL       734<<ASSIGN
EL$PROCERR.RSW2
       426**DCL       735<<ASSIGN
ELA$SYSLOG
       711**DCL-ENT   736--CALL
ERROR
       706**DCL       736<>CALL
FLTREG
       667**DCL       723<>CALL      732>>ASSIGN
FLTREG.W1.W2
       671**DCL       720>>ASSIGN
FLTREG.WORD1
       668**DCL       669--REDEF     715<<ASSIGN
FLTREG.WORD2
       673**DCL       716<<ASSIGN    720<<ASSIGN    726>>IF
HFA$FLTREG
       710**DCL-ENT   723--CALL
H_EXTFLTREG_MASK
       462**DCL       726>>IF
H_FLTREG
       462**DCL       713>>IF        715>>ASSIGN    717<<ASSIGN
H_RSW2
       457**DCL       735>>ASSIGN
LOGERR
       730**PROC      721--CALL      727--CALL
PL6.E3A0      #005=HFB$FLTREG File=HFB$FPR.:E05TSI                               TUE 07/29/97 22:27 Page:237
S_PNO
       708**DCL       713>>IF        715>>ASSIGN    717>>ASSIGN    718>>IF        726>>IF        733>>ASSIGN
       734>>ASSIGN    735>>ASSIGN
S_PORTNR
       506**DCL       733>>ASSIGN
S_PTYPE
       507**DCL       718>>IF        726>>IF        734>>ASSIGN
S_RETRY
       530**DCL       724>>IF        725<<ASSIGN
TEMP
       666**DCL       723<>CALL

PL6.E3A0      #006=HFB$ENAPORT File=HFB$FPR.:E05TSI                              TUE 07/29/97 22:27 Page:238
     1606        1        /*T***********************************************************/
     1607        2        /*T*                                                         */
     1608        3        /*T* Copyright (c) Bull HN Information Systems Inc., 1997    */
     1609        4        /*T*                                                         */
     1610        5        /*T***********************************************************/
     1611        6        /*F*      NAME:        HFB$ENAPORT
     1612        7                  PURPOSE:     Management of port access mask and cyclic priority
     1613        8                               registers in System Control Units (SCUs).
     1614        9                  DESCRIPTION: If the SCUs are configured to PROGRAM
     1615       10                               MODE, these routines insure that only those
     1616       11                               ports currently being used will be enabled.
     1617       12                               All other ports will be disabled.  The cyclic
     1618       13                               priority register is also set to keep one CPU
     1619       14                               from hogging all memory accesses.
     1620       15
     1621       16                               The proper setting of the SCU CONFIGURATION
     1622       17                               PANEL is as follows:
     1623       18
     1624       19                                 MODE: PROGRAM
     1625       20
     1626       21                                 PORT ENABLE: ON for MASTER CPU PORT,
     1627       22                                 all SLAVE CPU PORTS, and all IOM PORTS
     1628       23                                 normally connected to this system.
     1629       24
     1630       25                                 MASK A PORT ASSIGNMENT: Set to MASTER CPU PORT
     1631       26                                 on base SCU (lower memory).  Set to Off for
     1632       27                                 all other SCUs.
     1633       28
     1634       29                                              WARNING:
     1635       30
     1636       31                               If there is more than one SCU on a system,
     1637       32                               then all CPUs and IOMs must be connected to
     1638       33                               the same ports on all SCUs.  If this
     1639       34                               restriction can not be safisfied, then
     1640       35                               those SCUs with different port assignments
     1641       36                               MUST be configured to MANUAL MODE with the
     1642       37                               PORT ENABLE switches set ON for all ports
PL6.E3A0      #006=HFB$ENAPORT File=HFB$FPR.:E05TSI                              TUE 07/29/97 22:27 Page:239
     1643       38                               that are to me used and the CYCLIC PRIORITY
     1644       39                               switches set appropriately.
     1645       40        */
     1646       41        HFB$ENAPORT: PROC(PORT#);
     1647       42        /* INCLUDES */
     1648       43        %INCLUDE SS_SCHED_R;
     1649       86        %INCLUDE HF_DATA_R;
     1650      129        %INCLUDE NI_DATA_R;
     1651      566        %NI$IOM;
     1652      571        %INCLUDE B_MLSMAC_C;
     1653     1513        %B_MLS (FPTN=B$MLS,STCLASS=BASED);
     1654     2328        %INCLUDE B$MAP;
     1655     2427        %INCLUDE B_STRINGS_C;
     1656     2556        %INCLUDE M_INFO_C;
     1657     2696        /* PARAMETERS */
     1658     2697    1   DCL PORT# UBIN;
     1659     2698        /* AUTO */
     1660     2699    1   DCL AND_MASK BIT(72) DALIGNED;
     1661     2700    1   DCL OR_MASK BIT(72) DALIGNED;
     1662     2701    1   DCL MISC_SAVE BIT(72) DALIGNED;
     1663     2702    1   DCL 1 TYPE2 DALIGNED,
     1664     2703    1         2 FIRST_WORD BIT(36) UNAL,
     1665     2704    1         2 BASE UBIN WORD UNAL;
     1666     2705    1   DCL 1 SCU_CONFIG DALIGNED,
     1667     2706    1         2 * BIT(57) UNAL,
     1668     2707    1         2 CYCLIC BIT(7) UNAL,
     1669     2708    1         2 * BIT(8) UNAL;
     1670     2709    1   DCL I SBIN;
     1671     2710    1   DCL HIGH_PORT UBIN;
     1672     2711    1   DCL LOW_PORT UBIN;
     1673     2712    1   DCL CYCLIC BIT(7);
     1674     2713    1   DCL CYCLIC_ARRAY (0:6) REDEF CYCLIC BIT(1) UNAL;
     1675     2714    1   DCL PAGE# UBIN;
     1676     2715    1   DCL CPUPORT# SBIN;
     1677     2716        /* CONSTANTS */
     1678     2717    1   DCL PORT_MASKS (0:7) BIT(72) CONSTANT DALIGNED INIT(
     1679     2718    1      '000000000010000000000000'O,'000000000004000000000000'O,
PL6.E3A0      #006=HFB$ENAPORT File=HFB$FPR.:E05TSI                              TUE 07/29/97 22:27 Page:240
     1680     2719    1      '000000000002000000000000'O,'000000000001000000000000'O,
     1681     2720    1      '000000000000000000000010'O,'000000000000000000000004'O,
     1682     2721    1      '000000000000000000000002'O,'000000000000000000000001'O);
     1683     2722    1   DCL PORT_MASKS_RPM (0:7) BIT(72) CONSTANT DALIGNED INIT(
     1684     2723    1      '000000000000000000000200'O,'000000000000000000000100'O,
     1685     2724    1      '000000000000000000000040'O,'000000000000000000000020'O,
     1686     2725    1      '000000000000000000000010'O,'000000000000000000000004'O,
     1687     2726    1      '000000000000000000000002'O,'000000000000000000000001'O);
     1688     2727        /* SYMREFS */
     1689     2728    1   DCL B$IS$ PTR SYMREF;
     1690     2729    1   DCL B$SCU$ PTR SYMREF;
     1691     2730    1   DCL B$MPT$ PTR SYMREF;
     1692     2731    1   DCL B$LS$ PTR SYMREF;
     1693     2732    1   DCL B$MISC$ PTR SYMREF;
     1694     2733        /* BASED */
     1695     2734    1   DCL B$WORD BIT(36) BASED UNAL;
     1696     2735        /* ENTRY */
     1697     2736    1   DCL HFC$RMCM ENTRY(2);
     1698     2737    1   DCL HFC$SMCM ENTRY(2);
     1699     2738    1   DCL HFC$RSCR ENTRY(3);
     1700     2739    1   DCL HFC$SSCR ENTRY(3);
     1701     2740    1   DCL HFC$ASSOCCLR ENTRY;
     1702     2741        /* PROCEDURE */
     1703     2742    2      DO INHIBIT;
     1704     2743    2           IF PORT# = S_PORTNR(0)
     1705     2744    3           THEN DO;
     1706     2745        /*
     1707     2746                 IF PORT# IS MASTER CPU PORT, WE MUST HAVE BEEN CALLED
     1708     2747                 FROM ITT$TIGR.  USE CURRENT PORT MASKS AS LEFT
     1709     2748                 BY AARDVARK AS THE INITIAL PORT MASKS WHILE TIGR
     1710     2749                 IS RUNNING.  START BUILDING THE REAL PORT MASK IN
     1711     2750                 H_PORTMASK.
     1712     2751        */
     1713     2752    3                CALL HFC$RMCM(B$SCU$,OR_MASK);
     1714     2753    4                IF H_RPM_FLG THEN DO;
     1715     2754    4                     AND_MASK = '777777777777777777777400'O;
     1716     2755    4                     OR_MASK = OR_MASK & '000000000000000000000377'O;
PL6.E3A0      #006=HFB$ENAPORT File=HFB$FPR.:E05TSI                              TUE 07/29/97 22:27 Page:241
     1717     2756    4                     CALL HFC$RSCR(B$SCU$,8,MISC_SAVE);
     1718     2757    4                     PINCRW(ADDR(OR_MASK),1)->B$WORD = ADDR(MISC_SAVE)->B$WORD;
     1719     2758    4                     END;
     1720     2759    4                ELSE DO;
     1721     2760    4                     OR_MASK = OR_MASK & '000000000017000000000017'O;
     1722     2761    4                     AND_MASK = '777777777760777777777760'O;
     1723     2762    4                     END;
     1724     2763    3                H_PORTMASK = '0'B;
     1725     2764    3                END;
     1726     2765    3           ELSE DO;
     1727     2766    3                IF H_RPM_FLG THEN
     1728     2767    3                     OR_MASK = '0'B;
     1729     2768    3                ELSE
     1730     2769    3                     OR_MASK = PORT_MASKS(PORT#);
     1731     2770    3                AND_MASK = '777777777777777777777777'O;
     1732     2771    3                END;
     1733     2772    2           IF H_RPM_FLG THEN
     1734     2773    2                H_PORTMASK = H_PORTMASK | PORT_MASKS_RPM(PORT#);
     1735     2774    2           ELSE
     1736     2775    2                H_PORTMASK = H_PORTMASK | PORT_MASKS(PORT#);
     1737     2776    2           GOTO SETMASK;
     1738     2777    2           END;                            /* INHIBIT                            */
     1739     2778        /**/
     1740     2779    1   HFB$DISPORT: ENTRY(PORT#);
     1741     2780    2      DO INHIBIT;
     1742     2781    3           IF H_RPM_FLG THEN DO;
     1743     2782    3                AND_MASK = '777777777777777777777777'O;
     1744     2783    3                OR_MASK = '0'B;
     1745     2784    3                END;
     1746     2785    3           ELSE DO;
     1747     2786    3                OR_MASK = '0'B;
     1748     2787    3                AND_MASK = ~PORT_MASKS(PORT#);
     1749     2788    3                END;
     1750     2789    2           H_PORTMASK = H_PORTMASK & AND_MASK;
     1751     2790    2           GOTO SETMASK;
     1752     2791    2           END;                            /* INHIBIT                            */
     1753     2792        /**/
PL6.E3A0      #006=HFB$ENAPORT File=HFB$FPR.:E05TSI                              TUE 07/29/97 22:27 Page:242
     1754     2793    1   HFB$INITMASK: ENTRY;
     1755     2794        /*
     1756     2795              THIS ENTRY POINT IS CALLED FROM ITW$WRAPUP AFTER ALL
     1757     2796              OF THE TIGR IOM CARDS HAVE BEEN READ.  H_PORTMASK IS
     1758     2797              MOVED TO H_ENMASK AND H_DSMASK IN HFC$UTIL AND USED AS
     1759     2798              THE REAL PORT MASKS STARTING NOW.
     1760     2799        */
     1761     2800    2      DO INHIBIT;
     1762     2801    3           IF H_RPM_FLG THEN DO;
     1763     2802    3                OR_MASK = H_PORTMASK & '000000000000000000000377'O;
     1764     2803    3                CALL HFC$RSCR(B$SCU$,8,MISC_SAVE);
     1765     2804    3                PINCRW(ADDR(OR_MASK),1)->B$WORD = ADDR(MISC_SAVE)->B$WORD;
     1766     2805    3                AND_MASK = '777777777777777777777400'O;
     1767     2806    3                END;
     1768     2807    3           ELSE DO;
     1769     2808    3                OR_MASK = H_PORTMASK & '000000000017000000000017'O;
     1770     2809    3                AND_MASK = '777777777760777777777760'O;
     1771     2810    3                END;
     1772     2811    2   SETMASK: ;
     1773     2812    2           HIGH_PORT = S_PORTNR(0);
     1774     2813    2           LOW_PORT = S_PORTNR(0);
     1775     2814    3           DO I = 1 TO S_NSCPU;
     1776     2815    3                IF (~H_RPM_FLG AND (PORT_MASKS(S_PORTNR(I)) & H_PORTMASK)) OR
     1777     2816    3                  ( H_RPM_FLG AND (PORT_MASKS(S_PORTNR(I)) & H_PORTMASK))
     1778     2817    4                THEN DO;
     1779     2818    4                     IF S_PORTNR(I) > HIGH_PORT
     1780     2819    4                     THEN HIGH_PORT = S_PORTNR(I);
     1781     2820    4                     IF S_PORTNR(I) < LOW_PORT
     1782     2821    4                     THEN LOW_PORT = S_PORTNR(I);
     1783     2822    4                     END;
     1784     2823    3                END;
     1785     2824    2           CYCLIC = '0'B;
     1786     2825    3           DO I = LOW_PORT TO HIGH_PORT-1;
     1787     2826    3                CYCLIC_ARRAY(I) = '1'B;
     1788     2827    3                END;
     1789     2828    2           IF NI$IOM$(0) ~= ADDR(NIL)
     1790     2829    3           THEN DO;
PL6.E3A0      #006=HFB$ENAPORT File=HFB$FPR.:E05TSI                              TUE 07/29/97 22:27 Page:243
     1791     2830    3                HIGH_PORT = NI$IOM$(0)->NI$IOM.ADDRESS;
     1792     2831    3                LOW_PORT = NI$IOM$(0)->NI$IOM.ADDRESS;
     1793     2832    4                DO I = 1 TO NI_IOMS-1;
     1794     2833    4                     IF NI$IOM$(I)->NI$IOM.ADDRESS > HIGH_PORT
     1795     2834    4                     THEN HIGH_PORT = NI$IOM$(I)->NI$IOM.ADDRESS;
     1796     2835    4                     IF NI$IOM$(I)->NI$IOM.ADDRESS < LOW_PORT
     1797     2836    4                     THEN LOW_PORT = NI$IOM$(I)->NI$IOM.ADDRESS;
     1798     2837    4                     END;
     1799     2838    4                DO I = LOW_PORT TO HIGH_PORT-1;
     1800     2839    4                     CYCLIC_ARRAY(I) = '1'B;
     1801     2840    4                     END;
     1802     2841    3                END;
     1803     2842    2           H_ENMASK = (H_ENMASK & AND_MASK) | OR_MASK;
     1804     2843    2           H_DSMASK = (H_DSMASK & AND_MASK) | OR_MASK;
     1805     2844    2           IF NOT H_MEMOK THEN RETURN;     /* Memory image not complete          */
     1806     2845    2           MISC_SAVE = B$LS$->B$MLS.MISC;
     1807     2846    2           TYPE2.FIRST_WORD = '000017740002'O;
     1808     2847    3           DO CPUPORT# = 0 TO H_MAXPORT#;
     1809     2848    3                TYPE2.BASE = H_PORT_FIRST_ADDR(CPUPORT#)*4;
     1810     2849    3                B$LS$->B$MLS.MISC = TYPE2;
     1811     2850    3                CALL HFC$RSCR(B$MISC$,8,SCU_CONFIG);
     1812     2851    3                SCU_CONFIG.CYCLIC = CYCLIC;
     1813     2852    3                CALL HFC$SSCR(B$MISC$,8,SCU_CONFIG);
     1814     2853    3                CALL HFC$RSCR(B$MISC$,8,H_SCU_CONFIG(CPUPORT#));
     1815     2854    3                IF NI$DS.LEVEL=0 AND TYPE2.BASE=0
     1816     2855    3                THEN CALL HFC$SMCM(B$MISC$,H_ENMASK);
     1817     2856    3                ELSE CALL HFC$SMCM(B$MISC$,H_DSMASK);
     1818     2857    3                END;
     1819     2858    2           B$LS$->B$MLS.MISC = MISC_SAVE;
     1820     2859    2           END;                            /* INHIBIT                            */
     1821     2860    1   END HFB$ENAPORT;
     1822     2861        %EOD;

PL6.E3A0      #006=HFB$ENAPORT File=HFB$FPR.:E05TSI                              TUE 07/29/97 22:27 Page:244
--  Include file information  --

   M_INFO_C.:E05TOU  is referenced.
   B_STRINGS_C.:E05TOU  is referenced.
   B$MAP.:E05TOU  cannot be made into a system file and is referenced.
   B_MLSMAC_C.:E05TOU  is referenced.
   NI$TABLES.:E05TOU  is referenced.
   N$REQ.:E05TOU  is referenced.
   NI_DATA_R.:E05TOU  cannot be made into a system file and is referenced.
   HF_DATA_R.:E05TOU  cannot be made into a system file and is referenced.
   SS_CNTRLD_R.:E05TOU  cannot be made into a system file and is referenced.
   SS_CNTRL_R.:E05TOU  cannot be made into a system file and is referenced.
   SS_SCHED_R.:E05TOU  cannot be made into a system file and is referenced.
      No diagnostics issued in procedure HFB$ENAPORT.

   Procedure HFB$ENAPORT requires 298 words for executable code.
   Procedure HFB$ENAPORT requires 24 words of local(AUTO) storage.

PL6.E3A0      #006=HFB$ENAPORT File=HFB$FPR.:E05TSI                              TUE 07/29/97 22:27 Page:245

 Object Unit name= HFB$ENAPORT                                File name= HFB$FPR.:E05TOU
 UTS= JUL 29 '97 22:27:31.84 TUE                              Compiler= PL-6/E31         Sev=      00
 SharedLib= :SHARED_SYSTEM                                    Alt SharedLib=


    ****  Control sections  ****

 Sect   Type Bound  Init  Size OctSiz  Section name(segment info)
    0  RoData even  UTS     43     53  HFB$ENAPORT
    1   Proc  even  none   298    452  HFB$ENAPORT
    2  RoData even  none    14     16  HFB$ENAPORT

    ****  Entry defs  ****

                              Check   Calling
                             calling  sequence
  Sect OctLoc Primary Altret sequence   type   Parms  Name
     1      0   yes            yes      Std        1  HFB$ENAPORT
     1    113                  yes      Std        1  HFB$DISPORT
     1    144                  yes      Std        0  HFB$INITMASK

  ****  Entry refs  ****

         Check        Calling
        calling       sequence
Altret sequence SRef   type   Args  Name
         yes           Std       2 HFC$RMCM
         yes           Std       2 HFC$SMCM
         yes           Std       3 HFC$RSCR
         yes           Std       3 HFC$SSCR
                       nStd      0 X66_AUTO_1
                       Std       0 B_CONSPOOL_D
                       nStd      0 X66_ARET
PL6.E3A0      #006=HFB$ENAPORT File=HFB$FPR.:E05TSI                              TUE 07/29/97 22:27 Page:246

  ****  Data refs  ****

  Flags:  r = read only, s = secondary
Flgs Name                             Flgs Name                             Flgs Name
     S_PORTNR                              S_NSCPU                               H_ENMASK
     H_DSMASK                              H_MEMOK                               H_RPM_FLG
     H_SCU_CONFIG                          H_PORT_FIRST_ADDR                     H_MAXPORT#
     H_PORTMASK                            N$DCT$$                               N$FQ$
     NI$DS                                 NI$FQ$                                NI$IBUF$
     NI$IOM$                               NI$RP$                                NI_IOMS
     B$SCU$                                B$LS$                                 B$MISC$
     B_VECTNIL

  ****  Segment refs  ****

  Flags:  r = read only, s = secondary
Flgs Name                             Flgs Name                             Flgs Name
     ISSID
PL6.E3A0      #006=HFB$ENAPORT File=HFB$FPR.:E05TSI                              TUE 07/29/97 22:27 Page:247


     1606        1        /*T***********************************************************/
     1607        2        /*T*                                                         */
     1608        3        /*T* Copyright (c) Bull HN Information Systems Inc., 1997    */
     1609        4        /*T*                                                         */
     1610        5        /*T***********************************************************/
     1611        6        /*F*      NAME:        HFB$ENAPORT
     1612        7                  PURPOSE:     Management of port access mask and cyclic priority
     1613        8                               registers in System Control Units (SCUs).
     1614        9                  DESCRIPTION: If the SCUs are configured to PROGRAM
     1615       10                               MODE, these routines insure that only those
     1616       11                               ports currently being used will be enabled.
     1617       12                               All other ports will be disabled.  The cyclic
     1618       13                               priority register is also set to keep one CPU
     1619       14                               from hogging all memory accesses.
     1620       15
     1621       16                               The proper setting of the SCU CONFIGURATION
     1622       17                               PANEL is as follows:
     1623       18
     1624       19                                 MODE: PROGRAM
     1625       20
     1626       21                                 PORT ENABLE: ON for MASTER CPU PORT,
     1627       22                                 all SLAVE CPU PORTS, and all IOM PORTS
     1628       23                                 normally connected to this system.
     1629       24
     1630       25                                 MASK A PORT ASSIGNMENT: Set to MASTER CPU PORT
     1631       26                                 on base SCU (lower memory).  Set to Off for
     1632       27                                 all other SCUs.
     1633       28
     1634       29                                              WARNING:
     1635       30
     1636       31                               If there is more than one SCU on a system,
     1637       32                               then all CPUs and IOMs must be connected to
     1638       33                               the same ports on all SCUs.  If this
     1639       34                               restriction can not be safisfied, then
     1640       35                               those SCUs with different port assignments
     1641       36                               MUST be configured to MANUAL MODE with the
PL6.E3A0      #006=HFB$ENAPORT File=HFB$FPR.:E05TSI                              TUE 07/29/97 22:27 Page:248
     1642       37                               PORT ENABLE switches set ON for all ports
     1643       38                               that are to me used and the CYCLIC PRIORITY
     1644       39                               switches set appropriately.
     1645       40        */
     1646       41        HFB$ENAPORT: PROC(PORT#);

     41  1 000000   000000 700200 xent  HFB$ENAPORT  TSX0  ! X66_AUTO_1
         1 000001   000030 000001                    ZERO    24,1

     1647       42        /* INCLUDES */
     1648       43        %INCLUDE SS_SCHED_R;
     1649       86        %INCLUDE HF_DATA_R;
     1650      129        %INCLUDE NI_DATA_R;
     1651      566        %NI$IOM;
     1652      571        %INCLUDE B_MLSMAC_C;
     1653     1513        %B_MLS (FPTN=B$MLS,STCLASS=BASED);
     1654     2328        %INCLUDE B$MAP;
     1655     2427        %INCLUDE B_STRINGS_C;
     1656     2556        %INCLUDE M_INFO_C;
     1657     2696        /* PARAMETERS */
     1658     2697    1   DCL PORT# UBIN;
     1659     2698        /* AUTO */
     1660     2699    1   DCL AND_MASK BIT(72) DALIGNED;
     1661     2700    1   DCL OR_MASK BIT(72) DALIGNED;
     1662     2701    1   DCL MISC_SAVE BIT(72) DALIGNED;
     1663     2702    1   DCL 1 TYPE2 DALIGNED,
     1664     2703    1         2 FIRST_WORD BIT(36) UNAL,
     1665     2704    1         2 BASE UBIN WORD UNAL;
     1666     2705    1   DCL 1 SCU_CONFIG DALIGNED,
     1667     2706    1         2 * BIT(57) UNAL,
     1668     2707    1         2 CYCLIC BIT(7) UNAL,
     1669     2708    1         2 * BIT(8) UNAL;
     1670     2709    1   DCL I SBIN;
     1671     2710    1   DCL HIGH_PORT UBIN;
     1672     2711    1   DCL LOW_PORT UBIN;
     1673     2712    1   DCL CYCLIC BIT(7);
     1674     2713    1   DCL CYCLIC_ARRAY (0:6) REDEF CYCLIC BIT(1) UNAL;
PL6.E3A0      #006=HFB$ENAPORT File=HFB$FPR.:E05TSI                              TUE 07/29/97 22:27 Page:249
     1675     2714    1   DCL PAGE# UBIN;
     1676     2715    1   DCL CPUPORT# SBIN;
     1677     2716        /* CONSTANTS */
     1678     2717    1   DCL PORT_MASKS (0:7) BIT(72) CONSTANT DALIGNED INIT(
     1679     2718    1      '000000000010000000000000'O,'000000000004000000000000'O,
     1680     2719    1      '000000000002000000000000'O,'000000000001000000000000'O,
     1681     2720    1      '000000000000000000000010'O,'000000000000000000000004'O,
     1682     2721    1      '000000000000000000000002'O,'000000000000000000000001'O);
     1683     2722    1   DCL PORT_MASKS_RPM (0:7) BIT(72) CONSTANT DALIGNED INIT(
     1684     2723    1      '000000000000000000000200'O,'000000000000000000000100'O,
     1685     2724    1      '000000000000000000000040'O,'000000000000000000000020'O,
     1686     2725    1      '000000000000000000000010'O,'000000000000000000000004'O,
     1687     2726    1      '000000000000000000000002'O,'000000000000000000000001'O);
     1688     2727        /* SYMREFS */
     1689     2728    1   DCL B$IS$ PTR SYMREF;
     1690     2729    1   DCL B$SCU$ PTR SYMREF;
     1691     2730    1   DCL B$MPT$ PTR SYMREF;
     1692     2731    1   DCL B$LS$ PTR SYMREF;
     1693     2732    1   DCL B$MISC$ PTR SYMREF;
     1694     2733        /* BASED */
     1695     2734    1   DCL B$WORD BIT(36) BASED UNAL;
     1696     2735        /* ENTRY */
     1697     2736    1   DCL HFC$RMCM ENTRY(2);
     1698     2737    1   DCL HFC$SMCM ENTRY(2);
     1699     2738    1   DCL HFC$RSCR ENTRY(3);
     1700     2739    1   DCL HFC$SSCR ENTRY(3);
     1701     2740    1   DCL HFC$ASSOCCLR ENTRY;
     1702     2741        /* PROCEDURE */
     1703     2742    2      DO INHIBIT;

     1704     2743    2           IF PORT# = S_PORTNR(0)

   2743  1 000002   200003 470700                    LDP0  ! @PORT#,,AUTO
         1 000003   000000 236300                    LDQ   ! 0,,PR0
         1 000004   000000 116200 xsym               CMPQ  ! S_PORTNR
         1 000005   000051 601200 1                  TNZ   ! s:2766

PL6.E3A0      #006=HFB$ENAPORT File=HFB$FPR.:E05TSI                              TUE 07/29/97 22:27 Page:250
     1705     2744    3           THEN DO;

     1706     2745        /*
     1707     2746                 IF PORT# IS MASTER CPU PORT, WE MUST HAVE BEEN CALLED
     1708     2747                 FROM ITT$TIGR.  USE CURRENT PORT MASKS AS LEFT
     1709     2748                 BY AARDVARK AS THE INITIAL PORT MASKS WHILE TIGR
     1710     2749                 IS RUNNING.  START BUILDING THE REAL PORT MASK IN
     1711     2750                 H_PORTMASK.
     1712     2751        */
     1713     2752    3                CALL HFC$RMCM(B$SCU$,OR_MASK);

   2752  1 000006   200006 631700                    EPPR1 ! OR_MASK,,AUTO
         1 000007   200025 451700                    STP1  ! CPUPORT#+2,,AUTO
         1 000010   000000 236200 2                  LDQ   ! 0
         1 000011   200024 756300                    STQ   ! CPUPORT#+1,,AUTO
         1 000012   200024 630700                    EPPR0 ! CPUPORT#+1,,AUTO
         1 000013   000020 631600 xsym               EPPR1 ! B_VECTNIL+16
         1 000014   000000 701200 xent               TSX1  ! HFC$RMCM
         1 000015   000000 011200                    NOP   ! 0

     1714     2753    4                IF H_RPM_FLG THEN DO;

   2753  1 000016   000000 234200 xsym               SZN   ! H_RPM_FLG
         1 000017   000040 605200 1                  TPL   ! s:2760

     1715     2754    4                     AND_MASK = '777777777777777777777400'O;

   2754  1 000020   000040 237200 0                  LDAQ  ! PORT_MASKS_RPM+16
         1 000021   200004 757300                    STAQ  ! AND_MASK,,AUTO

     1716     2755    4                     OR_MASK = OR_MASK & '000000000000000000000377'O;

   2755  1 000022   200006 237300                    LDAQ  ! OR_MASK,,AUTO
         1 000023   000042 377200 0                  ANAQ  ! PORT_MASKS_RPM+18
         1 000024   200006 757300                    STAQ  ! OR_MASK,,AUTO

     1717     2756    4                     CALL HFC$RSCR(B$SCU$,8,MISC_SAVE);
PL6.E3A0      #006=HFB$ENAPORT File=HFB$FPR.:E05TSI                              TUE 07/29/97 22:27 Page:251

   2756  1 000025   200010 630700                    EPPR0 ! MISC_SAVE,,AUTO
         1 000026   200026 450700                    STP0  ! CPUPORT#+3,,AUTO
         1 000027   000002 237200 2                  LDAQ  ! 2
         1 000030   200024 757300                    STAQ  ! CPUPORT#+1,,AUTO
         1 000031   200024 630700                    EPPR0 ! CPUPORT#+1,,AUTO
         1 000032   000021 631600 xsym               EPPR1 ! B_VECTNIL+17
         1 000033   000000 701200 xent               TSX1  ! HFC$RSCR
         1 000034   000000 011200                    NOP   ! 0

     1718     2757    4                     PINCRW(ADDR(OR_MASK),1)->B$WORD = ADDR(MISC_SAVE)->B$WORD;

   2757  1 000035   200010 236300                    LDQ   ! MISC_SAVE,,AUTO
         1 000036   200007 756300                    STQ   ! OR_MASK+1,,AUTO

     1719     2758    4                     END;

   2758  1 000037   000045 710200 1                  TRA   ! s:2763

     1720     2759    4                ELSE DO;

     1721     2760    4                     OR_MASK = OR_MASK & '000000000017000000000017'O;

   2760  1 000040   200006 237300                    LDAQ  ! OR_MASK,,AUTO
         1 000041   000044 377200 0                  ANAQ  ! PORT_MASKS_RPM+20
         1 000042   200006 757300                    STAQ  ! OR_MASK,,AUTO

     1722     2761    4                     AND_MASK = '777777777760777777777760'O;

   2761  1 000043   000046 237200 0                  LDAQ  ! PORT_MASKS_RPM+22
         1 000044   200004 757300                    STAQ  ! AND_MASK,,AUTO

     1723     2762    4                     END;

     1724     2763    3                H_PORTMASK = '0'B;

   2763  1 000045   000000 235203                    LDA   ! 0,DU
PL6.E3A0      #006=HFB$ENAPORT File=HFB$FPR.:E05TSI                              TUE 07/29/97 22:27 Page:252
         1 000046   000000 236203                    LDQ   ! 0,DU
         1 000047   000000 757200 xsym               STAQ  ! H_PORTMASK

     1725     2764    3                END;

   2764  1 000050   000066 710200 1                  TRA   ! s:2772

     1726     2765    3           ELSE DO;

     1727     2766    3                IF H_RPM_FLG THEN

   2766  1 000051   000000 234200 xsym               SZN   ! H_RPM_FLG
         1 000052   000057 605200 1                  TPL   ! s:2769

     1728     2767    3                     OR_MASK = '0'B;

   2767  1 000053   000000 235203                    LDA   ! 0,DU
         1 000054   000000 236203                    LDQ   ! 0,DU
         1 000055   200006 757300                    STAQ  ! OR_MASK,,AUTO
         1 000056   000064 710200 1                  TRA   ! s:2770

     1729     2768    3                ELSE
     1730     2769    3                     OR_MASK = PORT_MASKS(PORT#);

   2769  1 000057   000000 720300                    LXL0  ! 0,,PR0
         1 000060   000000 635210                    EAA   ! 0,X0
         1 000061   000021 771200                    ARL   ! 17
         1 000062   000000 237205 0                  LDAQ  ! PORT_MASKS,AL
         1 000063   200006 757300                    STAQ  ! OR_MASK,,AUTO

     1731     2770    3                AND_MASK = '777777777777777777777777'O;

   2770  1 000064   000050 237200 0                  LDAQ  ! PORT_MASKS_RPM+24
         1 000065   200004 757300                    STAQ  ! AND_MASK,,AUTO

     1732     2771    3                END;

PL6.E3A0      #006=HFB$ENAPORT File=HFB$FPR.:E05TSI                              TUE 07/29/97 22:27 Page:253
     1733     2772    2           IF H_RPM_FLG THEN

   2772  1 000066   000000 234200 xsym               SZN   ! H_RPM_FLG
         1 000067   000101 605200 1                  TPL   ! s:2775

     1734     2773    2                H_PORTMASK = H_PORTMASK | PORT_MASKS_RPM(PORT#);

   2773  1 000070   200003 470700                    LDP0  ! @PORT#,,AUTO
         1 000071   000000 720300                    LXL0  ! 0,,PR0
         1 000072   000000 635210                    EAA   ! 0,X0
         1 000073   000021 771200                    ARL   ! 17
         1 000074   000000 621205                    EAX1  ! 0,AL
         1 000075   000000 237200 xsym               LDAQ  ! H_PORTMASK
         1 000076   000020 277211 0                  ORAQ  ! PORT_MASKS_RPM,X1
         1 000077   000000 757200 xsym               STAQ  ! H_PORTMASK
         1 000100   000111 710200 1                  TRA   ! s:2776

     1735     2774    2           ELSE
     1736     2775    2                H_PORTMASK = H_PORTMASK | PORT_MASKS(PORT#);

   2775  1 000101   200003 470700                    LDP0  ! @PORT#,,AUTO
         1 000102   000000 720300                    LXL0  ! 0,,PR0
         1 000103   000000 635210                    EAA   ! 0,X0
         1 000104   000021 771200                    ARL   ! 17
         1 000105   000000 621205                    EAX1  ! 0,AL
         1 000106   000000 237200 xsym               LDAQ  ! H_PORTMASK
         1 000107   000000 277211 0                  ORAQ  ! PORT_MASKS,X1
         1 000110   000000 757200 xsym               STAQ  ! H_PORTMASK

     1737     2776    2           GOTO SETMASK;

   2776  1 000111   000175 710200 1                  TRA   ! SETMASK

     1738     2777    2           END;                            /* INHIBIT                            */

   2777  1 000112   000115 710000 1                  TRA     s:2781

PL6.E3A0      #006=HFB$ENAPORT File=HFB$FPR.:E05TSI                              TUE 07/29/97 22:27 Page:254
     1739     2778        /**/
     1740     2779    1   HFB$DISPORT: ENTRY(PORT#);

   2779  1 000113   000000 700200 xent  HFB$DISPORT  TSX0  ! X66_AUTO_1
         1 000114   000030 000001                    ZERO    24,1

     1741     2780    2      DO INHIBIT;

     1742     2781    3           IF H_RPM_FLG THEN DO;

   2781  1 000115   000000 234200 xsym               SZN   ! H_RPM_FLG
         1 000116   000125 605200 1                  TPL   ! s:2786

     1743     2782    3                AND_MASK = '777777777777777777777777'O;

   2782  1 000117   000050 237200 0                  LDAQ  ! PORT_MASKS_RPM+24
         1 000120   200004 757300                    STAQ  ! AND_MASK,,AUTO

     1744     2783    3                OR_MASK = '0'B;

   2783  1 000121   000000 235203                    LDA   ! 0,DU
         1 000122   000000 236203                    LDQ   ! 0,DU
         1 000123   200006 757300                    STAQ  ! OR_MASK,,AUTO

     1745     2784    3                END;

   2784  1 000124   000137 710200 1                  TRA   ! s:2789

     1746     2785    3           ELSE DO;

     1747     2786    3                OR_MASK = '0'B;

   2786  1 000125   000000 235203                    LDA   ! 0,DU
         1 000126   000000 236203                    LDQ   ! 0,DU
         1 000127   200006 757300                    STAQ  ! OR_MASK,,AUTO

     1748     2787    3                AND_MASK = ~PORT_MASKS(PORT#);
PL6.E3A0      #006=HFB$ENAPORT File=HFB$FPR.:E05TSI                              TUE 07/29/97 22:27 Page:255

   2787  1 000130   200003 470700                    LDP0  ! @PORT#,,AUTO
         1 000131   000000 720300                    LXL0  ! 0,,PR0
         1 000132   000000 635210                    EAA   ! 0,X0
         1 000133   000021 771200                    ARL   ! 17
         1 000134   000000 237205 0                  LDAQ  ! PORT_MASKS,AL
         1 000135   000004 677200 2                  ERAQ  ! 4
         1 000136   200004 757300                    STAQ  ! AND_MASK,,AUTO

     1749     2788    3                END;

     1750     2789    2           H_PORTMASK = H_PORTMASK & AND_MASK;

   2789  1 000137   000000 237200 xsym               LDAQ  ! H_PORTMASK
         1 000140   200004 377300                    ANAQ  ! AND_MASK,,AUTO
         1 000141   000000 757200 xsym               STAQ  ! H_PORTMASK

     1751     2790    2           GOTO SETMASK;

   2790  1 000142   000175 710200 1                  TRA   ! SETMASK

     1752     2791    2           END;                            /* INHIBIT                            */

   2791  1 000143   000146 710000 1                  TRA     s:2801

     1753     2792        /**/
     1754     2793    1   HFB$INITMASK: ENTRY;

   2793  1 000144   000000 700200 xent  HFB$INITMASK TSX0  ! X66_AUTO_1
         1 000145   000030 000001                    ZERO    24,1

     1755     2794        /*
     1756     2795              THIS ENTRY POINT IS CALLED FROM ITW$WRAPUP AFTER ALL
     1757     2796              OF THE TIGR IOM CARDS HAVE BEEN READ.  H_PORTMASK IS
     1758     2797              MOVED TO H_ENMASK AND H_DSMASK IN HFC$UTIL AND USED AS
     1759     2798              THE REAL PORT MASKS STARTING NOW.
     1760     2799        */
PL6.E3A0      #006=HFB$ENAPORT File=HFB$FPR.:E05TSI                              TUE 07/29/97 22:27 Page:256
     1761     2800    2      DO INHIBIT;

     1762     2801    3           IF H_RPM_FLG THEN DO;

   2801  1 000146   000000 234200 xsym               SZN   ! H_RPM_FLG
         1 000147   000170 605200 1                  TPL   ! s:2808

     1763     2802    3                OR_MASK = H_PORTMASK & '000000000000000000000377'O;

   2802  1 000150   000000 237200 xsym               LDAQ  ! H_PORTMASK
         1 000151   000042 377200 0                  ANAQ  ! PORT_MASKS_RPM+18
         1 000152   200006 757300                    STAQ  ! OR_MASK,,AUTO

     1764     2803    3                CALL HFC$RSCR(B$SCU$,8,MISC_SAVE);

   2803  1 000153   200010 630700                    EPPR0 ! MISC_SAVE,,AUTO
         1 000154   200026 450700                    STP0  ! CPUPORT#+3,,AUTO
         1 000155   000000 237200 2                  LDAQ  ! 0
         1 000156   200024 757300                    STAQ  ! CPUPORT#+1,,AUTO
         1 000157   200024 630700                    EPPR0 ! CPUPORT#+1,,AUTO
         1 000160   000021 631600 xsym               EPPR1 ! B_VECTNIL+17
         1 000161   000000 701200 xent               TSX1  ! HFC$RSCR
         1 000162   000000 011200                    NOP   ! 0

     1765     2804    3                PINCRW(ADDR(OR_MASK),1)->B$WORD = ADDR(MISC_SAVE)->B$WORD;

   2804  1 000163   200010 236300                    LDQ   ! MISC_SAVE,,AUTO
         1 000164   200007 756300                    STQ   ! OR_MASK+1,,AUTO

     1766     2805    3                AND_MASK = '777777777777777777777400'O;

   2805  1 000165   000040 237200 0                  LDAQ  ! PORT_MASKS_RPM+16
         1 000166   200004 757300                    STAQ  ! AND_MASK,,AUTO

     1767     2806    3                END;

   2806  1 000167   000175 710200 1                  TRA   ! SETMASK
PL6.E3A0      #006=HFB$ENAPORT File=HFB$FPR.:E05TSI                              TUE 07/29/97 22:27 Page:257

     1768     2807    3           ELSE DO;

     1769     2808    3                OR_MASK = H_PORTMASK & '000000000017000000000017'O;

   2808  1 000170   000000 237200 xsym               LDAQ  ! H_PORTMASK
         1 000171   000044 377200 0                  ANAQ  ! PORT_MASKS_RPM+20
         1 000172   200006 757300                    STAQ  ! OR_MASK,,AUTO

     1770     2809    3                AND_MASK = '777777777760777777777760'O;

   2809  1 000173   000046 237200 0                  LDAQ  ! PORT_MASKS_RPM+22
         1 000174   200004 757300                    STAQ  ! AND_MASK,,AUTO

     1771     2810    3                END;

   2808  1 000175                       SETMASK      null
     1772     2811    2   SETMASK: ;
     1773     2812    2           HIGH_PORT = S_PORTNR(0);

   2812  1 000175   000000 235200 xsym               LDA   ! S_PORTNR
         1 000176   200017 755300                    STA   ! HIGH_PORT,,AUTO

     1774     2813    2           LOW_PORT = S_PORTNR(0);

   2813  1 000177   200020 755300                    STA   ! LOW_PORT,,AUTO

     1775     2814    3           DO I = 1 TO S_NSCPU;

   2814  1 000200   000001 236207                    LDQ   ! 1,DL
         1 000201   200016 756300                    STQ   ! I,,AUTO
         1 000202   000241 710200 1                  TRA   ! s:2823+1

     1776     2815    3                IF (~H_RPM_FLG AND (PORT_MASKS(S_PORTNR(I)) & H_PORTMASK)) OR

   2815  1 000203   000000 236200 xsym               LDQ   ! H_RPM_FLG
         1 000204   400000 376203                    ANQ   ! -131072,DU
PL6.E3A0      #006=HFB$ENAPORT File=HFB$FPR.:E05TSI                              TUE 07/29/97 22:27 Page:258
         1 000205   400000 676203                    ERQ   ! -131072,DU
         1 000206   000216 600200 1                  TZE   ! s:2815+11
         1 000207   200016 720300                    LXL0  ! I,,AUTO
         1 000210   000000 721210 xsym               LXL1  ! S_PORTNR,X0
         1 000211   000000 635211                    EAA   ! 0,X1
         1 000212   000021 771200                    ARL   ! 17
         1 000213   000000 237205 0                  LDAQ  ! PORT_MASKS,AL
         1 000214   000000 377200 xsym               ANAQ  ! H_PORTMASK
         1 000215   000227 601200 1                  TNZ   ! s:2818
         1 000216   000000 234200 xsym               SZN   ! H_RPM_FLG
         1 000217   000240 605200 1                  TPL   ! s:2823
         1 000220   200016 720300                    LXL0  ! I,,AUTO
         1 000221   000000 721210 xsym               LXL1  ! S_PORTNR,X0
         1 000222   000000 635211                    EAA   ! 0,X1
         1 000223   000021 771200                    ARL   ! 17
         1 000224   000000 237205 0                  LDAQ  ! PORT_MASKS,AL
         1 000225   000000 377200 xsym               ANAQ  ! H_PORTMASK
         1 000226   000240 600200 1                  TZE   ! s:2823

     1777     2816    3                  ( H_RPM_FLG AND (PORT_MASKS(S_PORTNR(I)) & H_PORTMASK))
     1778     2817    4                THEN DO;

     1779     2818    4                     IF S_PORTNR(I) > HIGH_PORT

   2818  1 000227   200017 236300                    LDQ   ! HIGH_PORT,,AUTO
         1 000230   000000 116210 xsym               CMPQ  ! S_PORTNR,X0
         1 000231   000234 603200 1                  TRC   ! s:2820

     1780     2819    4                     THEN HIGH_PORT = S_PORTNR(I);

   2819  1 000232   000000 235210 xsym               LDA   ! S_PORTNR,X0
         1 000233   200017 755300                    STA   ! HIGH_PORT,,AUTO

     1781     2820    4                     IF S_PORTNR(I) < LOW_PORT

   2820  1 000234   000000 236210 xsym               LDQ   ! S_PORTNR,X0
         1 000235   200020 116300                    CMPQ  ! LOW_PORT,,AUTO
PL6.E3A0      #006=HFB$ENAPORT File=HFB$FPR.:E05TSI                              TUE 07/29/97 22:27 Page:259
         1 000236   000240 603200 1                  TRC   ! s:2823

     1782     2821    4                     THEN LOW_PORT = S_PORTNR(I);

   2821  1 000237   200020 756300                    STQ   ! LOW_PORT,,AUTO

     1783     2822    4                     END;

     1784     2823    3                END;

   2823  1 000240   200016 054300                    AOS   ! I,,AUTO
         1 000241   000000 236200 xsym               LDQ   ! S_NSCPU
         1 000242   000203 604200 1                  TMI   ! s:2815
         1 000243   200016 116300                    CMPQ  ! I,,AUTO
         1 000244   000203 605200 1                  TPL   ! s:2815

     1785     2824    2           CYCLIC = '0'B;

   2824  1 000245   000006 236200 2                  LDQ   ! 6
         1 000246   200021 356300                    ANSQ  ! CYCLIC,,AUTO

     1786     2825    3           DO I = LOW_PORT TO HIGH_PORT-1;

   2825  1 000247   200020 235300                    LDA   ! LOW_PORT,,AUTO
         1 000250   200016 755300                    STA   ! I,,AUTO
         1 000251   000261 710200 1                  TRA   ! s:2827+1

     1787     2826    3                CYCLIC_ARRAY(I) = '1'B;

   2826  1 000252   200016 235300                    LDA   ! I,,AUTO
         1 000253   000255 605200 1                  TPL   ! s:2826+3
         1 000254   000044 035203                    ADLA  ! 36,DU
         1 000255   003105 060600                    CSL   ! bolr='003'O
         1 000256   000030 000001 xsym               BDSC    B_VECTNIL+24             by=0,bit=0,n=1
         1 000257   200021 000001                    BDSC    CYCLIC,A,AUTO            by=0,bit=0,n=1

     1788     2827    3                END;
PL6.E3A0      #006=HFB$ENAPORT File=HFB$FPR.:E05TSI                              TUE 07/29/97 22:27 Page:260

   2827  1 000260   200016 054300                    AOS   ! I,,AUTO
         1 000261   200016 236300                    LDQ   ! I,,AUTO
         1 000262   000252 604200 1                  TMI   ! s:2826
         1 000263   200017 116300                    CMPQ  ! HIGH_PORT,,AUTO
         1 000264   000252 602200 1                  TNC   ! s:2826

     1789     2828    2           IF NI$IOM$(0) ~= ADDR(NIL)

   2828  1 000265   000000 236200 xsym               LDQ   ! NI$IOM$
         1 000266   000001 116200 xsym               CMPQ  ! B_VECTNIL+1
         1 000267   000335 600200 1                  TZE   ! s:2842

     1790     2829    3           THEN DO;

     1791     2830    3                HIGH_PORT = NI$IOM$(0)->NI$IOM.ADDRESS;

   2830  1 000270   000000 470600 xsym               LDP0  ! NI$IOM$
         1 000271   000003 236300                    LDQ   ! 3,,PR0
         1 000272   000007 376207                    ANQ   ! 7,DL
         1 000273   200017 756300                    STQ   ! HIGH_PORT,,AUTO

     1792     2831    3                LOW_PORT = NI$IOM$(0)->NI$IOM.ADDRESS;

   2831  1 000274   200020 756300                    STQ   ! LOW_PORT,,AUTO

     1793     2832    4                DO I = 1 TO NI_IOMS-1;

   2832  1 000275   000001 235207                    LDA   ! 1,DL
         1 000276   200016 755300                    STA   ! I,,AUTO
         1 000277   000314 710200 1                  TRA   ! s:2837+1

     1794     2833    4                     IF NI$IOM$(I)->NI$IOM.ADDRESS > HIGH_PORT

   2833  1 000300   200016 720300                    LXL0  ! I,,AUTO
         1 000301   000000 470610 xsym               LDP0  ! NI$IOM$,X0
         1 000302   000003 236300                    LDQ   ! 3,,PR0
PL6.E3A0      #006=HFB$ENAPORT File=HFB$FPR.:E05TSI                              TUE 07/29/97 22:27 Page:261
         1 000303   000007 376207                    ANQ   ! 7,DL
         1 000304   200017 116300                    CMPQ  ! HIGH_PORT,,AUTO
         1 000305   000310 602200 1                  TNC   ! s:2835
         1 000306   000310 600200 1                  TZE   ! s:2835

     1795     2834    4                     THEN HIGH_PORT = NI$IOM$(I)->NI$IOM.ADDRESS;

   2834  1 000307   200017 756300                    STQ   ! HIGH_PORT,,AUTO

     1796     2835    4                     IF NI$IOM$(I)->NI$IOM.ADDRESS < LOW_PORT

   2835  1 000310   200020 116300                    CMPQ  ! LOW_PORT,,AUTO
         1 000311   000313 603200 1                  TRC   ! s:2837

     1797     2836    4                     THEN LOW_PORT = NI$IOM$(I)->NI$IOM.ADDRESS;

   2836  1 000312   200020 756300                    STQ   ! LOW_PORT,,AUTO

     1798     2837    4                     END;

   2837  1 000313   200016 054300                    AOS   ! I,,AUTO
         1 000314   200016 236300                    LDQ   ! I,,AUTO
         1 000315   000000 116200 xsym               CMPQ  ! NI_IOMS
         1 000316   000300 604200 1                  TMI   ! s:2833

     1799     2838    4                DO I = LOW_PORT TO HIGH_PORT-1;

   2838  1 000317   200020 235300                    LDA   ! LOW_PORT,,AUTO
         1 000320   200016 755300                    STA   ! I,,AUTO
         1 000321   000331 710200 1                  TRA   ! s:2840+1

     1800     2839    4                     CYCLIC_ARRAY(I) = '1'B;

   2839  1 000322   200016 235300                    LDA   ! I,,AUTO
         1 000323   000325 605200 1                  TPL   ! s:2839+3
         1 000324   000044 035203                    ADLA  ! 36,DU
         1 000325   003105 060600                    CSL   ! bolr='003'O
PL6.E3A0      #006=HFB$ENAPORT File=HFB$FPR.:E05TSI                              TUE 07/29/97 22:27 Page:262
         1 000326   000030 000001 xsym               BDSC    B_VECTNIL+24             by=0,bit=0,n=1
         1 000327   200021 000001                    BDSC    CYCLIC,A,AUTO            by=0,bit=0,n=1

     1801     2840    4                     END;

   2840  1 000330   200016 054300                    AOS   ! I,,AUTO
         1 000331   200016 236300                    LDQ   ! I,,AUTO
         1 000332   000322 604200 1                  TMI   ! s:2839
         1 000333   200017 116300                    CMPQ  ! HIGH_PORT,,AUTO
         1 000334   000322 602200 1                  TNC   ! s:2839

     1802     2841    3                END;

     1803     2842    2           H_ENMASK = (H_ENMASK & AND_MASK) | OR_MASK;

   2842  1 000335   000000 237200 xsym               LDAQ  ! H_ENMASK
         1 000336   200004 377300                    ANAQ  ! AND_MASK,,AUTO
         1 000337   200006 277300                    ORAQ  ! OR_MASK,,AUTO
         1 000340   000000 757200 xsym               STAQ  ! H_ENMASK

     1804     2843    2           H_DSMASK = (H_DSMASK & AND_MASK) | OR_MASK;

   2843  1 000341   000000 237200 xsym               LDAQ  ! H_DSMASK
         1 000342   200004 377300                    ANAQ  ! AND_MASK,,AUTO
         1 000343   200006 277300                    ORAQ  ! OR_MASK,,AUTO
         1 000344   000000 757200 xsym               STAQ  ! H_DSMASK

     1805     2844    2           IF NOT H_MEMOK THEN RETURN;     /* Memory image not complete          */

   2844  1 000345   000000 234200 xsym               SZN   ! H_MEMOK
         1 000346   000350 604200 1                  TMI   ! s:2845

   2844  1 000347   000000 702200 xent               TSX2  ! X66_ARET

     1806     2845    2           MISC_SAVE = B$LS$->B$MLS.MISC;

   2845  1 000350   000000 470600 xsym               LDP0  ! B$LS$
PL6.E3A0      #006=HFB$ENAPORT File=HFB$FPR.:E05TSI                              TUE 07/29/97 22:27 Page:263
         1 000351   000130 237300                    LDAQ  ! 88,,PR0
         1 000352   200010 757300                    STAQ  ! MISC_SAVE,,AUTO

     1807     2846    2           TYPE2.FIRST_WORD = '000017740002'O;

   2846  1 000353   000052 236200 0                  LDQ   ! PORT_MASKS_RPM+26
         1 000354   200012 756300                    STQ   ! TYPE2,,AUTO

     1808     2847    3           DO CPUPORT# = 0 TO H_MAXPORT#;

   2847  1 000355   200023 450300                    STZ   ! CPUPORT#,,AUTO
         1 000356   000443 710200 1                  TRA   ! s:2857+1

     1809     2848    3                TYPE2.BASE = H_PORT_FIRST_ADDR(CPUPORT#)*4;

   2848  1 000357   200023 720300                    LXL0  ! CPUPORT#,,AUTO
         1 000360   000000 235210 xsym               LDA   ! H_PORT_FIRST_ADDR,X0
         1 000361   000002 735200                    ALS   ! 2
         1 000362   200013 755300                    STA   ! TYPE2+1,,AUTO

     1810     2849    3                B$LS$->B$MLS.MISC = TYPE2;

   2849  1 000363   200012 237300                    LDAQ  ! TYPE2,,AUTO
         1 000364   000000 470600 xsym               LDP0  ! B$LS$
         1 000365   000130 757300                    STAQ  ! 88,,PR0

     1811     2850    3                CALL HFC$RSCR(B$MISC$,8,SCU_CONFIG);

   2850  1 000366   200014 631700                    EPPR1 ! SCU_CONFIG,,AUTO
         1 000367   200026 451700                    STP1  ! CPUPORT#+3,,AUTO
         1 000370   000010 237200 2                  LDAQ  ! 8
         1 000371   200024 757300                    STAQ  ! CPUPORT#+1,,AUTO
         1 000372   200024 630700                    EPPR0 ! CPUPORT#+1,,AUTO
         1 000373   000021 631600 xsym               EPPR1 ! B_VECTNIL+17
         1 000374   000000 701200 xent               TSX1  ! HFC$RSCR
         1 000375   000000 011200                    NOP   ! 0

PL6.E3A0      #006=HFB$ENAPORT File=HFB$FPR.:E05TSI                              TUE 07/29/97 22:27 Page:264
     1812     2851    3                SCU_CONFIG.CYCLIC = CYCLIC;

   2851  1 000376   200021 236300                    LDQ   ! CYCLIC,,AUTO
         1 000377   000025 772200                    QRL   ! 21
         1 000400   200015 676300                    ERQ   ! SCU_CONFIG+1,,AUTO
         1 000401   077400 376207                    ANQ   ! 32512,DL
         1 000402   200015 656300                    ERSQ  ! SCU_CONFIG+1,,AUTO

     1813     2852    3                CALL HFC$SSCR(B$MISC$,8,SCU_CONFIG);

   2852  1 000403   200014 630700                    EPPR0 ! SCU_CONFIG,,AUTO
         1 000404   200026 450700                    STP0  ! CPUPORT#+3,,AUTO
         1 000405   000010 237200 2                  LDAQ  ! 8
         1 000406   200024 757300                    STAQ  ! CPUPORT#+1,,AUTO
         1 000407   200024 630700                    EPPR0 ! CPUPORT#+1,,AUTO
         1 000410   000021 631600 xsym               EPPR1 ! B_VECTNIL+17
         1 000411   000000 701200 xent               TSX1  ! HFC$SSCR
         1 000412   000000 011200                    NOP   ! 0

     1814     2853    3                CALL HFC$RSCR(B$MISC$,8,H_SCU_CONFIG(CPUPORT#));

   2853  1 000413   200023 236300                    LDQ   ! CPUPORT#,,AUTO
         1 000414   000023 736200                    QLS   ! 19
         1 000415   000007 036200 2                  ADLQ  ! 7
         1 000416   200026 756300                    STQ   ! CPUPORT#+3,,AUTO
         1 000417   000010 237200 2                  LDAQ  ! 8
         1 000420   200024 757300                    STAQ  ! CPUPORT#+1,,AUTO
         1 000421   200024 630700                    EPPR0 ! CPUPORT#+1,,AUTO
         1 000422   000021 631600 xsym               EPPR1 ! B_VECTNIL+17
         1 000423   000000 701200 xent               TSX1  ! HFC$RSCR
         1 000424   000000 011200                    NOP   ! 0

     1815     2854    3                IF NI$DS.LEVEL=0 AND TYPE2.BASE=0

   2854  1 000425   000000 235200 xsym               LDA   ! NI$DS
         1 000426   000436 601200 1                  TNZ   ! s:2856
         1 000427   200013 236300                    LDQ   ! TYPE2+1,,AUTO
PL6.E3A0      #006=HFB$ENAPORT File=HFB$FPR.:E05TSI                              TUE 07/29/97 22:27 Page:265
         1 000430   000436 601200 1                  TNZ   ! s:2856

     1816     2855    3                THEN CALL HFC$SMCM(B$MISC$,H_ENMASK);

   2855  1 000431   000012 630600 2                  EPPR0 ! 10
         1 000432   000020 631600 xsym               EPPR1 ! B_VECTNIL+16
         1 000433   000000 701200 xent               TSX1  ! HFC$SMCM
         1 000434   000000 011200                    NOP   ! 0
         1 000435   000442 710200 1                  TRA   ! s:2857

     1817     2856    3                ELSE CALL HFC$SMCM(B$MISC$,H_DSMASK);

   2856  1 000436   000014 630600 2                  EPPR0 ! 12
         1 000437   000020 631600 xsym               EPPR1 ! B_VECTNIL+16
         1 000440   000000 701200 xent               TSX1  ! HFC$SMCM
         1 000441   000000 011200                    NOP   ! 0

     1818     2857    3                END;

   2857  1 000442   200023 054300                    AOS   ! CPUPORT#,,AUTO
         1 000443   200023 236300                    LDQ   ! CPUPORT#,,AUTO
         1 000444   000000 116200 xsym               CMPQ  ! H_MAXPORT#
         1 000445   000357 604600 1                  TMOZ  ! s:2848

     1819     2858    2           B$LS$->B$MLS.MISC = MISC_SAVE;

   2858  1 000446   200010 237300                    LDAQ  ! MISC_SAVE,,AUTO
         1 000447   000000 470600 xsym               LDP0  ! B$LS$
         1 000450   000130 757300                    STAQ  ! 88,,PR0

     1820     2859    2           END;                            /* INHIBIT                            */

     1821     2860    1   END HFB$ENAPORT;

   2860  1 000451   000000 702200 xent               TSX2  ! X66_ARET

PORT_MASKS
PL6.E3A0      #006=HFB$ENAPORT File=HFB$FPR.:E05TSI                              TUE 07/29/97 22:27 Page:266
 Sect OctLoc
   0     000   000000 000010   000000 000000   000000 000004   000000 000000    ................
   0     004   000000 000002   000000 000000   000000 000001   000000 000000    ................
   0     010   000000 000000   000000 000010   000000 000000   000000 000004    ................
   0     014   000000 000000   000000 000002   000000 000000   000000 000001    ................

PORT_MASKS_RPM
 Sect OctLoc
   0     020   000000 000000   000000 000200   000000 000000   000000 000100    ...............@
   0     024   000000 000000   000000 000040   000000 000000   000000 000020    ....... ........
   0     030   000000 000000   000000 000010   000000 000000   000000 000004    ................
   0     034   000000 000000   000000 000002   000000 000000   000000 000001    ................

(unnamed)
 Sect OctLoc
   0     040   777777 777777   777777 777400   000000 000000   000000 000377    ................
   0     044   000000 000017   000000 000017   777777 777760   777777 777760    ................
   0     050   777777 777777   777777 777777   000017 740002                    ............

(unnamed)
 Sect OctLoc
   2     000   000000 006000   000012 006000   000000 006000   000012 006000    ................
   2     004   777777 777777   777777 777777   003777 777777   000000 006000    ................
   2     010   000000 006000   000012 006000   000000 006000   000000 006000    ................
   2     014   000000 006000   000000 006000                                    ........
     1822     2861        %EOD;

PL6.E3A0      #006=HFB$ENAPORT File=HFB$FPR.:E05TSI                              TUE 07/29/97 22:27 Page:267
--  Include file information  --

   M_INFO_C.:E05TOU  is referenced.
   B_STRINGS_C.:E05TOU  is referenced.
   B$MAP.:E05TOU  cannot be made into a system file and is referenced.
   B_MLSMAC_C.:E05TOU  is referenced.
   NI$TABLES.:E05TOU  is referenced.
   N$REQ.:E05TOU  is referenced.
   NI_DATA_R.:E05TOU  cannot be made into a system file and is referenced.
   HF_DATA_R.:E05TOU  cannot be made into a system file and is referenced.
   SS_CNTRLD_R.:E05TOU  cannot be made into a system file and is referenced.
   SS_CNTRL_R.:E05TOU  cannot be made into a system file and is referenced.
   SS_SCHED_R.:E05TOU  cannot be made into a system file and is referenced.
      No diagnostics issued in procedure HFB$ENAPORT.
PL6.E3A0      #006=HFB$ENAPORT File=HFB$FPR.:E05TSI                              TUE 07/29/97 22:27 Page:268

 **** Variables and constants ****

  ****  Section 000 RoData HFB$ENAPORT

  ****  Scalars and arrays  ****
OctLoc.c.b A Datatyp(siz) R M Lvl/name                 OctLoc.c.b A Datatyp(siz) R M Lvl/name

     0-0-0/d BIT (72)    r     1 PORT_MASKS(0:7)
    20-0-0/d BIT (72)    r     1 PORT_MASKS_RPM(0:7)

  ****  Auto variables  ****

  ****  Scalars and arrays  ****
OctLoc.c.b A Datatyp(siz) R M Lvl/name                 OctLoc.c.b A Datatyp(siz) R M Lvl/name

     3-0-0/w PTR         r     1 @PORT#                     4-0-0/d BIT (72)    r     1 AND_MASK
    23-0-0/w SBIN        r     1 CPUPORT#                  21-0-0/b BIT (7)     r     1 CYCLIC
    21-0-0/b BIT         r     1 CYCLIC_ARRAY(0:6)
    17-0-0/w UBIN        r     1 HIGH_PORT                 16-0-0/w SBIN        r     1 I
    20-0-0/w UBIN        r     1 LOW_PORT                  10-0-0/d BIT (72)    r     1 MISC_SAVE
     6-0-0/d BIT (72)    r     1 OR_MASK                   *0-0-0/w UBIN        r     1 PORT#
    14-0-0/d STRC(72)    r     1 SCU_CONFIG                12-0-0/d STRC(72)    r     1 TYPE2

  ****  SYMREF variables  ****

  ****  Scalars and arrays  ****
OctLoc.c.b A Datatyp(siz) R M Lvl/name                 OctLoc.c.b A Datatyp(siz) R M Lvl/name

     0-0-0/w PTR         r     1 B$LS$                      0-0-0/w PTR         r     1 B$MISC$
     0-0-0/w PTR         r     1 B$SCU$                     0-0-0/d BIT (72)    r     1 H_DSMASK
     0-0-0/d BIT (72)    r     1 H_ENMASK                   0-0-0/w SBIN        r     1 H_MAXPORT#
     0-0-0/w BIT         r     1 H_MEMOK                    0-0-0/d BIT (72)    r     1 H_PORTMASK
     0-0-0/w UBIN        r     1 H_PORT_FIRST_ADDR(0:3)
     0-0-0/w BIT         r     1 H_RPM_FLG
     0-0-0/d STRC(72)    r     1 H_SCU_CONFIG(0:3)
     0-0-0/w PTR         r     1 N$DCT$$                    0-0-0/w PTR         r     1 N$FQ$
     0-0-0/w STRC        r     1 NI$DS                      0-0-0/w PTR         r     1 NI$FQ$
PL6.E3A0      #006=HFB$ENAPORT File=HFB$FPR.:E05TSI                              TUE 07/29/97 22:27 Page:269
     0-0-0/w PTR         r     1 NI$IBUF$
     0-0-0/w PTR         r     1 NI$IOM$(0:3)
     0-0-0/w PTR         r     1 NI$RP$                     0-0-0/w SBIN        r     1 NI_IOMS
     0-0-0/w UBIN        r     1 S_NSCPU
     0-0-0/w UBIN        r     1 S_PORTNR(0:7)

  ****  BASED and DCB variables  ****

  ****  Scalars and arrays  ****
OctLoc.c.b A Datatyp(siz) R M Lvl/name                 OctLoc.c.b A Datatyp(siz) R M Lvl/name

     0-0-0/d STRC(10368) r     1 B$MLS                      0-0-0/b BIT         r     1 B$WORD
     0-0-0/w STRC(252)   r     1 NI$IOM


   Procedure HFB$ENAPORT requires 298 words for executable code.
   Procedure HFB$ENAPORT requires 24 words of local(AUTO) storage.
PL6.E3A0      #006=HFB$ENAPORT File=HFB$FPR.:E05TSI                              TUE 07/29/97 22:27 Page:270
          *** CROSS REFERENCE LISTING ***
**     DENOTES     IDENTIFIER DEFINITION
<<                 IDENTIFIER'S VALUE SET
>>                 IDENTIFIER'S VALUE USED
<>                 IDENTIFIER SET AND/OR USED
--                 IDENTIFIER REFERENCED
PL6.E3A0      #006=HFB$ENAPORT File=HFB$FPR.:E05TSI                              TUE 07/29/97 22:27 Page:271
          MINI XREF LISTING

AND_MASK
      2699**DCL      2754<<ASSIGN   2761<<ASSIGN   2770<<ASSIGN   2782<<ASSIGN   2787<<ASSIGN   2789>>ASSIGN
      2805<<ASSIGN   2809<<ASSIGN   2842>>ASSIGN   2843>>ASSIGN
B$LS$
      2731**DCL      2845>>ASSIGN   2849>>ASSIGN   2858>>ASSIGN
B$MAP.SCTRL
      2371**DCL      2372--REDEF
B$MISC$
      2732**DCL      2850<>CALL     2852<>CALL     2853<>CALL     2855<>CALL     2856<>CALL
B$MLS.MISC
      1825**DCL      2845>>ASSIGN   2849<<ASSIGN   2858<<ASSIGN
B$SCU$
      2729**DCL      2752<>CALL     2756<>CALL     2803<>CALL
B$WORD
      2734**DCL      2757<<ASSIGN   2757>>ASSIGN   2804<<ASSIGN   2804>>ASSIGN
CPUPORT#
      2715**DCL      2847<<DOINDEX  2848>>ASSIGN   2853>>CALL
CYCLIC
      2712**DCL      2713--REDEF    2824<<ASSIGN   2851>>ASSIGN
CYCLIC_ARRAY
      2713**DCL      2826<<ASSIGN   2839<<ASSIGN
HFC$RMCM
      2736**DCL-ENT  2752--CALL
HFC$RSCR
      2738**DCL-ENT  2756--CALL     2803--CALL     2850--CALL     2853--CALL
HFC$SMCM
      2737**DCL-ENT  2855--CALL     2856--CALL
HFC$SSCR
      2739**DCL-ENT  2852--CALL
HIGH_PORT
      2710**DCL      2812<<ASSIGN   2818>>IF       2819<<ASSIGN   2825>>DOINDEX  2830<<ASSIGN   2833>>IF
      2834<<ASSIGN   2838>>DOINDEX
PL6.E3A0      #006=HFB$ENAPORT File=HFB$FPR.:E05TSI                              TUE 07/29/97 22:27 Page:272
H_DSMASK
        96**DCL      2843<<ASSIGN   2843>>ASSIGN   2856<>CALL
H_ENMASK
        96**DCL      2842<<ASSIGN   2842>>ASSIGN   2855<>CALL
H_MAXPORT#
       105**DCL      2847>>DOINDEX
H_MEMOK
        97**DCL      2844>>IF
H_PORTMASK
       105**DCL      2763<<ASSIGN   2773<<ASSIGN   2773>>ASSIGN   2775<<ASSIGN   2775>>ASSIGN   2789<<ASSIGN
      2789>>ASSIGN   2802>>ASSIGN   2808>>ASSIGN   2815>>IF       2815>>IF
H_PORT_FIRST_ADDR
       104**DCL      2848>>ASSIGN
H_RPM_FLG
        98**DCL      2753>>IF       2766>>IF       2772>>IF       2781>>IF       2801>>IF       2815>>IF
      2815>>IF
H_SCU_CONFIG
       101**DCL      2853<>CALL
I
      2709**DCL      2814<<DOINDEX  2815>>IF       2815>>IF       2818>>IF       2819>>ASSIGN   2820>>IF
      2821>>ASSIGN   2825<<DOINDEX  2826>>ASSIGN   2832<<DOINDEX  2833>>IF       2834>>ASSIGN   2835>>IF
      2836>>ASSIGN   2838<<DOINDEX  2839>>ASSIGN
LOW_PORT
      2711**DCL      2813<<ASSIGN   2820>>IF       2821<<ASSIGN   2825>>DOINDEX  2831<<ASSIGN   2835>>IF
      2836<<ASSIGN   2838>>DOINDEX
MISC_SAVE
      2701**DCL      2756<>CALL     2757--ASSIGN   2803<>CALL     2804--ASSIGN   2845<<ASSIGN   2858>>ASSIGN
N$DCT$$
       427**DCL       561--IMP-PTR
N$FQ$
       427**DCL       562--IMP-PTR
N$REQ_INIT.BUFADDR
       446**DCL       447--REDEF     447--REDEF
N$REQ_INIT.DLA.DRELADDR
       438**DCL       438--REDEF
N$REQ_INIT.DVE.EOMCHAR
PL6.E3A0      #006=HFB$ENAPORT File=HFB$FPR.:E05TSI                              TUE 07/29/97 22:27 Page:273
       475**DCL       476--REDEF
N$REQ_INIT.EAINFO
       469**DCL       469--REDEF
N$REQ_INIT.EAINFOX
       469**DCL       470--REDEF
N$REQ_INIT.EVNTINFO
       470**DCL       470--REDEF
N$REQ_INIT.STATUS
       451**DCL       457--REDEF
NI$DS.LEVEL
       486**DCL      2854>>IF
NI$FQ$
       487**DCL       563--IMP-PTR
NI$IBUF$
       487**DCL       563--IMP-PTR
NI$IMXMBX_INIT.PAGED_BASE
       497**DCL       498--REDEF     498--REDEF
NI$IMXMBX_INIT.SIZE
       499**DCL       499--REDEF
NI$IOM.ADDRESS
       568**DCL      2830>>ASSIGN   2831>>ASSIGN   2833>>IF       2834>>ASSIGN   2835>>IF       2836>>ASSIGN
NI$IOM$
       509**DCL      2828>>IF       2830>>ASSIGN   2831>>ASSIGN   2833>>IF       2834>>ASSIGN   2835>>IF
      2836>>ASSIGN
NI$REQ_INIT.DCW
       521**DCL       524--REDEF
NI$REQ_INIT.DCW.TALLY
       522**DCL       522--REDEF
NI$REQ_INIT.IDCW.EXTA
       524**DCL       524--REDEF
NI$REQ_INIT.PCW
       526**DCL       530--REDEF
NI$REQ_INIT.SEEK
       531**DCL       532--REDEF     533--REDEF
NI$RP$
       535**DCL       565--IMP-PTR
PL6.E3A0      #006=HFB$ENAPORT File=HFB$FPR.:E05TSI                              TUE 07/29/97 22:27 Page:274
NI_IOMS
       539**DCL      2832>>DOINDEX
NI_MBX_INIT.DCW.CONTROL.AE
       557**DCL       557--REDEF
NI_MBX_INIT.LPW.CONTROL.AE
       553**DCL       553--REDEF
OR_MASK
      2700**DCL      2752<>CALL     2755<<ASSIGN   2755>>ASSIGN   2757--ASSIGN   2760<<ASSIGN   2760>>ASSIGN
      2767<<ASSIGN   2769<<ASSIGN   2783<<ASSIGN   2786<<ASSIGN   2802<<ASSIGN   2804--ASSIGN   2808<<ASSIGN
      2842>>ASSIGN   2843>>ASSIGN
PORT#
      2697**DCL        41--PROC     2743>>IF       2769>>ASSIGN   2773>>ASSIGN   2775>>ASSIGN   2779--ENTRY
      2787>>ASSIGN
PORT_MASKS
      2717**DCL      2769>>ASSIGN   2775>>ASSIGN   2787>>ASSIGN   2815>>IF       2815>>IF
PORT_MASKS_RPM
      2722**DCL      2773>>ASSIGN
SCU_CONFIG
      2705**DCL      2850<>CALL     2852<>CALL
SCU_CONFIG.CYCLIC
      2707**DCL      2851<<ASSIGN
SETMASK
      2808**LABEL    2776--GOTO     2790--GOTO
S_NSCPU
        73**DCL      2814>>DOINDEX
S_PORTNR
        72**DCL      2743>>IF       2812>>ASSIGN   2813>>ASSIGN   2815>>IF       2815>>IF       2818>>IF
      2819>>ASSIGN   2820>>IF       2821>>ASSIGN
TYPE2
      2702**DCL      2849>>ASSIGN
TYPE2.BASE
      2704**DCL      2848<<ASSIGN   2854>>IF
TYPE2.FIRST_WORD
      2703**DCL      2846<<ASSIGN

PL6.E3A0      #007=HFB$CSHERR File=HFB$FPR.:E05TSI                               TUE 07/29/97 22:28 Page:275
     1823        1        /*T***********************************************************/
     1824        2        /*T*                                                         */
     1825        3        /*T* Copyright (c) Bull HN Information Systems Inc., 1997    */
     1826        4        /*T*                                                         */
     1827        5        /*T***********************************************************/
     1828        6        /*F* NAME:        HFB$CSHERR
     1829        7             PURPOSE:     Processing of cache parity errors.   */
     1830        8        /*D* NAME:        HFB$CSHERR
     1831        9             DESCRIPTION: This subroutine is entered from HFA$FAULT for every
     1832       10                          parity fault.  If the parity fault is due to a cache
     1833       11                          error, we interogate the contents of cache for the
     1834       12                          last 16 real addresses accessed according to the
     1835       13                          contents of the history registers.  If a parity
     1836       14                          is detected, the contents of the cache doubleword,
     1837       15                          the contents of the memory doubleword, and the
     1838       16                          cache address are placed in unused locations of the
     1839       17                          safe-store frame for the parity fault.   This data
     1840       18                          can be analyzed later by looking at the PROCESSOR
     1841       19                          ERROR entry in the error log file.    */
     1842       20        HFB$CSHERR: PROC(FINFO);
     1843       21        /**/
     1844       22        /* INCLUDE FILES */
     1845       23        %INCLUDE B_MAGIC_C;
     1846      141        %B_MPT (FPTN=B_MPT,STCLASS=SYMREF);
     1847      234        %INCLUDE MM_DATA_R;
     1848      754        %INCLUDE HF_DATA_R;
     1849      797        %INCLUDE SS_SCHED_R;
     1850      840        /**/
     1851      841        /* PARAMETERS */
     1852      842    1   DCL 1 FINFO DALIGNED,
     1853      843    1         2 PORT# UBIN(9) UNAL,
     1854      844    1         2 * BIT(4) UNAL,
     1855      845    1         2 BRANCH_MODE BIT(1) UNAL,
     1856      846    1         2 PROCTYPE UBIN(4) UNAL,
     1857      847    1         2 SUBCODE UBIN(18) UNAL,
     1858      848    1         2 FLTREG,                         /* FAULT REGISTER                     */
     1859      849    1           3 * BIT(16) UNAL,
PL6.E3A0      #007=HFB$CSHERR File=HFB$FPR.:E05TSI                               TUE 07/29/97 22:28 Page:276
     1860      850    1           3 MEM_ILL_ACT,
     1861      851    1             4 PORT_A UBIN(4) UNAL,
     1862      852    1             4 PORT_B UBIN(4) UNAL,
     1863      853    1             4 PORT_C UBIN(4) UNAL,
     1864      854    1             4 PORT_D UBIN(4) UNAL,
     1865      855    1           3 MEM_ILL_ACT_ELS REDEF MEM_ILL_ACT,
     1866      856    1             4 PORT_AB BIT(8) UNAL,
     1867      857    1             4 * BIT(8) UNAL,
     1868      858    1           3 CACHE_ERR,
     1869      859    1             4 DIR_PAR BIT(1),
     1870      860    1             4 STORE_PAR BIT(1),
     1871      861    1             4 ILL_ACT_ON_STORE BIT(1),
     1872      862    1             4 PAR_ON_BLOCKLOAD BIT(1),
     1873      863    1         2 JERR,
     1874      864    1           3 FCG BIT(12) UNAL,
     1875      865    1           3 MID BIT(6) UNAL,
     1876      866    1           3 CODE UBIN(15) UNAL,
     1877      867    1           3 SEV UBIN(3) UNAL,
     1878      868    1         2 P# SBIN WORD,
     1879      869    1         2 HR,
     1880      870    1           3 DPSE_CU (0:63),
     1881      871    1             4 * BIT(36) UNAL,
     1882      872    1             4 RA UBIN(24) UNAL,
     1883      873    1             4 * BIT(12) UNAL,
     1884      874    1           3 L66 REDEF DPSE_CU,
     1885      875    1             4 CU (0:15) BIT(72),
     1886      876    1             4 OU (0:15) BIT(72),
     1887      877    1             4 VU (0:15),
     1888      878    1               5 * BIT(36) UNAL,
     1889      879    1               5 RA UBIN(24) UNAL,
     1890      880    1               5 * BIT(12) UNAL,
     1891      881    1             4 DU (0:15) BIT(72),
     1892      882    1           3 ELS REDEF DPSE_CU,
     1893      883    1             4 ELS_HR (0:15),
     1894      884    1               5 * BIT(36) UNAL,
     1895      885    1               5 RAL UBIN(18) UNAL,
     1896      886    1               5 * BIT(13) UNAL,
PL6.E3A0      #007=HFB$CSHERR File=HFB$FPR.:E05TSI                               TUE 07/29/97 22:28 Page:277
     1897      887    1               5 RAU UBIN(5) UNAL,
     1898      888    1             4 * (0:47) BIT(72);
     1899      889        /**/
     1900      890        /* AUTO */
     1901      891    1   DCL CSH_ADDR UBIN;
     1902      892    1   DCL CSH_ADDR_BIN REDEF CSH_ADDR BIT(36);
     1903      893    1   DCL MEM_ADDR UBIN;
     1904      894    1   DCL MEM_ADDR_BIN REDEF MEM_ADDR BIT(36);
     1905      895    1   DCL CSH_INC UBIN HALF;
     1906      896    1   DCL CSH_MASK BIT(36);
     1907      897    1   DCL I SBIN;
     1908      898        /**/
     1909      899        /* BASED */
     1910      900    1   DCL 1 B$SS BASED(B_MPT.SS$) DALIGNED,
     1911      901    1         2 * (0:55) UBIN,
     1912      902    1         2 CSHERR,
     1913      903    1           3 CSH_SIZE UBIN HALF UNAL,
     1914      904    1           3 CSH_ADDR UBIN HALF UNAL,
     1915      905    1           3 MEM_ADDR UBIN,
     1916      906    1           3 CSH_DATA BIT(72),
     1917      907    1           3 MEM_DATA BIT(72);
     1918      908        /**/
     1919      909        /* EXTERNAL REFERENCES */
     1920      910    1   DCL HFA$CSHERR ENTRY(5) ALTRET;
     1921      911    1   DCL S_PNO UBIN SYMREF;
     1922      912        /**/
     1923      913        /**/
     1924      914        /* PROCEDURE */
     1925      915    2      DO INHIBIT;
     1926      916    2           B$SS.CSHERR = '0'B;
     1927      917    2           IF (S_PTYPE(S_PNO)~=%ELS1 AND FINFO.FLTREG.MEM_ILL_ACT~='0'B)
     1928      918    2             OR (S_PTYPE(S_PNO)=%ELS1
     1929      919    2             AND FINFO.FLTREG.MEM_ILL_ACT_ELS.PORT_AB~='0'B)
     1930      920    2             OR (S_PTYPE(S_PNO)~=%ELS1
     1931      921    2             AND FINFO.FLTREG.CACHE_ERR.STORE_PAR = '0'B
     1932      922    2             AND FINFO.FLTREG.CACHE_ERR.PAR_ON_BLOCKLOAD = '0'B)
     1933      923    2             OR FINFO.P# = 0
PL6.E3A0      #007=HFB$CSHERR File=HFB$FPR.:E05TSI                               TUE 07/29/97 22:28 Page:278
     1934      924    2           THEN RETURN;
     1935      925    2           IF H_RSW2(S_PNO) & '000000100000'O
     1936      926    3           THEN DO;
     1937      927    3                CSH_INC = 2048;
     1938      928    3                CSH_MASK = '000000003776'O;
     1939      929    3                END;
     1940      930    3           ELSE DO;
     1941      931    3                CSH_INC = 512;
     1942      932    3                CSH_MASK = '000000000776'O;
     1943      933    3                END;
     1944      934    3           DO I = 15 DOWNTO 0;
     1945      935    4                DO CASE(S_PTYPE(S_PNO));
     1946      936    4                 CASE (%DPSE);
     1947      937    4                   MEM_ADDR = FINFO.HR.DPSE_CU.RA(48+I);
     1948      938    4                 CASE (%L66);
     1949      939    4                   MEM_ADDR = FINFO.HR.L66.VU.RA(I);
     1950      940    4                 CASE (%ELS1);
     1951      941    4                   MEM_ADDR = FINFO.HR.ELS.ELS_HR.RAU(I) * 262144
     1952      942    4                     + FINFO.HR.ELS.ELS_HR.RAL(I);
     1953      943    4                   END;                    /* DO CASE                            */
     1954      944    3                MEM_ADDR_BIN = MEM_ADDR_BIN & '777777777776'O;
     1955      945    3                CSH_ADDR_BIN = MEM_ADDR_BIN & CSH_MASK;
     1956      946    3                IF MEM_ADDR < (MM_PCORE + 1) * 1024
     1957      947    3                THEN CALL HFA$CSHERR (CSH_ADDR,
     1958      948    3                       CSH_INC,
     1959      949    3                       B$SS.CSHERR.CSH_DATA,
     1960      950    3                       MEM_ADDR,
     1961      951    3                       B$SS.CSHERR.MEM_DATA)
     1962      952    3                       ALTRET(FOUND_PAR_ERR);
     1963      953    3                END;                       /* DO I = 15 DOWNTO                   */
     1964      954    2           RETURN;
     1965      955    2   FOUND_PAR_ERR: ;
     1966      956    2           B$SS.CSHERR.CSH_SIZE = CSH_INC * 4;
     1967      957    2           B$SS.CSHERR.CSH_ADDR = CSH_ADDR;
     1968      958    2           B$SS.CSHERR.MEM_ADDR = MEM_ADDR;
     1969      959    2           RETURN;
     1970      960    2           END;                            /* DO INHIBIT                         */
PL6.E3A0      #007=HFB$CSHERR File=HFB$FPR.:E05TSI                               TUE 07/29/97 22:28 Page:279
     1971      961    1   END HFB$CSHERR;

PL6.E3A0      #007=HFB$CSHERR File=HFB$FPR.:E05TSI                               TUE 07/29/97 22:28 Page:280
--  Include file information  --

   SS_CNTRLD_R.:E05TOU  cannot be made into a system file and is referenced.
   SS_CNTRL_R.:E05TOU  cannot be made into a system file and is referenced.
   SS_SCHED_R.:E05TOU  cannot be made into a system file and is referenced.
   HF_DATA_R.:E05TOU  cannot be made into a system file and is referenced.
   MM_MACRO_M.:E05TOU  is referenced.
   B_STRINGS_C.:E05TOU  is referenced.
   MM$SYSGEN.:E05TOU  is referenced.
   M_INFO_C.:E05TOU  is referenced.
   MM_DATA_R.:E05TOU  cannot be made into a system file and is referenced.
   B_MAGIC_C.:E05TOU  is referenced.
      No diagnostics issued in procedure HFB$CSHERR.

   Procedure HFB$CSHERR requires 125 words for executable code.
   Procedure HFB$CSHERR requires 16 words of local(AUTO) storage.

    No errors detected in file HFB$FPR.:E05TSI    .

PL6.E3A0      #007=HFB$CSHERR File=HFB$FPR.:E05TSI                               TUE 07/29/97 22:28 Page:281

 Object Unit name= HFB$CSHERR                                 File name= HFB$FPR.:E05TOU
 UTS= JUL 29 '97 22:28:28.36 TUE                              Compiler= PL-6/E31         Sev=      00
 SharedLib= :SHARED_SYSTEM                                    Alt SharedLib=


    ****  Control sections  ****

 Sect   Type Bound  Init  Size OctSiz  Section name(segment info)
    0  RoData even  UTS      4      4  HFB$CSHERR
    1   Proc  even  none   125    175  HFB$CSHERR
    2  RoData even  none     2      2  HFB$CSHERR

    ****  Entry defs  ****

                              Check   Calling
                             calling  sequence
  Sect OctLoc Primary Altret sequence   type   Parms  Name
     1      0   yes            yes      Std        1  HFB$CSHERR

  ****  Entry refs  ****

         Check        Calling
        calling       sequence
Altret sequence SRef   type   Args  Name
 yes     yes           Std       5 HFA$CSHERR
                       nStd      0 X66_AUTO_1
                       Std       0 B_CONSPOOL_D
                       nStd      0 X66_ARET

  ****  Data refs  ****

  Flags:  r = read only, s = secondary
Flgs Name                             Flgs Name                             Flgs Name
     B_MPT                            r    MM_BYP$                               MM_PCORE
     H_RSW2                                S_PTYPE                               S_PNO
     B_VECTNIL
PL6.E3A0      #007=HFB$CSHERR File=HFB$FPR.:E05TSI                               TUE 07/29/97 22:28 Page:282


     1823        1        /*T***********************************************************/
     1824        2        /*T*                                                         */
     1825        3        /*T* Copyright (c) Bull HN Information Systems Inc., 1997    */
     1826        4        /*T*                                                         */
     1827        5        /*T***********************************************************/
     1828        6        /*F* NAME:        HFB$CSHERR
     1829        7             PURPOSE:     Processing of cache parity errors.   */
     1830        8        /*D* NAME:        HFB$CSHERR
     1831        9             DESCRIPTION: This subroutine is entered from HFA$FAULT for every
     1832       10                          parity fault.  If the parity fault is due to a cache
     1833       11                          error, we interogate the contents of cache for the
     1834       12                          last 16 real addresses accessed according to the
     1835       13                          contents of the history registers.  If a parity
     1836       14                          is detected, the contents of the cache doubleword,
     1837       15                          the contents of the memory doubleword, and the
     1838       16                          cache address are placed in unused locations of the
     1839       17                          safe-store frame for the parity fault.   This data
     1840       18                          can be analyzed later by looking at the PROCESSOR
     1841       19                          ERROR entry in the error log file.    */
     1842       20        HFB$CSHERR: PROC(FINFO);

     20  1 000000   000000 700200 xent  HFB$CSHERR   TSX0  ! X66_AUTO_1
         1 000001   000020 000001                    ZERO    16,1

     1843       21        /**/
     1844       22        /* INCLUDE FILES */
     1845       23        %INCLUDE B_MAGIC_C;
     1846      141        %B_MPT (FPTN=B_MPT,STCLASS=SYMREF);
     1847      234        %INCLUDE MM_DATA_R;
     1848      754        %INCLUDE HF_DATA_R;
     1849      797        %INCLUDE SS_SCHED_R;
     1850      840        /**/
     1851      841        /* PARAMETERS */
     1852      842    1   DCL 1 FINFO DALIGNED,
     1853      843    1         2 PORT# UBIN(9) UNAL,
     1854      844    1         2 * BIT(4) UNAL,
PL6.E3A0      #007=HFB$CSHERR File=HFB$FPR.:E05TSI                               TUE 07/29/97 22:28 Page:283
     1855      845    1         2 BRANCH_MODE BIT(1) UNAL,
     1856      846    1         2 PROCTYPE UBIN(4) UNAL,
     1857      847    1         2 SUBCODE UBIN(18) UNAL,
     1858      848    1         2 FLTREG,                         /* FAULT REGISTER                     */
     1859      849    1           3 * BIT(16) UNAL,
     1860      850    1           3 MEM_ILL_ACT,
     1861      851    1             4 PORT_A UBIN(4) UNAL,
     1862      852    1             4 PORT_B UBIN(4) UNAL,
     1863      853    1             4 PORT_C UBIN(4) UNAL,
     1864      854    1             4 PORT_D UBIN(4) UNAL,
     1865      855    1           3 MEM_ILL_ACT_ELS REDEF MEM_ILL_ACT,
     1866      856    1             4 PORT_AB BIT(8) UNAL,
     1867      857    1             4 * BIT(8) UNAL,
     1868      858    1           3 CACHE_ERR,
     1869      859    1             4 DIR_PAR BIT(1),
     1870      860    1             4 STORE_PAR BIT(1),
     1871      861    1             4 ILL_ACT_ON_STORE BIT(1),
     1872      862    1             4 PAR_ON_BLOCKLOAD BIT(1),
     1873      863    1         2 JERR,
     1874      864    1           3 FCG BIT(12) UNAL,
     1875      865    1           3 MID BIT(6) UNAL,
     1876      866    1           3 CODE UBIN(15) UNAL,
     1877      867    1           3 SEV UBIN(3) UNAL,
     1878      868    1         2 P# SBIN WORD,
     1879      869    1         2 HR,
     1880      870    1           3 DPSE_CU (0:63),
     1881      871    1             4 * BIT(36) UNAL,
     1882      872    1             4 RA UBIN(24) UNAL,
     1883      873    1             4 * BIT(12) UNAL,
     1884      874    1           3 L66 REDEF DPSE_CU,
     1885      875    1             4 CU (0:15) BIT(72),
     1886      876    1             4 OU (0:15) BIT(72),
     1887      877    1             4 VU (0:15),
     1888      878    1               5 * BIT(36) UNAL,
     1889      879    1               5 RA UBIN(24) UNAL,
     1890      880    1               5 * BIT(12) UNAL,
     1891      881    1             4 DU (0:15) BIT(72),
PL6.E3A0      #007=HFB$CSHERR File=HFB$FPR.:E05TSI                               TUE 07/29/97 22:28 Page:284
     1892      882    1           3 ELS REDEF DPSE_CU,
     1893      883    1             4 ELS_HR (0:15),
     1894      884    1               5 * BIT(36) UNAL,
     1895      885    1               5 RAL UBIN(18) UNAL,
     1896      886    1               5 * BIT(13) UNAL,
     1897      887    1               5 RAU UBIN(5) UNAL,
     1898      888    1             4 * (0:47) BIT(72);
     1899      889        /**/
     1900      890        /* AUTO */
     1901      891    1   DCL CSH_ADDR UBIN;
     1902      892    1   DCL CSH_ADDR_BIN REDEF CSH_ADDR BIT(36);
     1903      893    1   DCL MEM_ADDR UBIN;
     1904      894    1   DCL MEM_ADDR_BIN REDEF MEM_ADDR BIT(36);
     1905      895    1   DCL CSH_INC UBIN HALF;
     1906      896    1   DCL CSH_MASK BIT(36);
     1907      897    1   DCL I SBIN;
     1908      898        /**/
     1909      899        /* BASED */
     1910      900    1   DCL 1 B$SS BASED(B_MPT.SS$) DALIGNED,
     1911      901    1         2 * (0:55) UBIN,
     1912      902    1         2 CSHERR,
     1913      903    1           3 CSH_SIZE UBIN HALF UNAL,
     1914      904    1           3 CSH_ADDR UBIN HALF UNAL,
     1915      905    1           3 MEM_ADDR UBIN,
     1916      906    1           3 CSH_DATA BIT(72),
     1917      907    1           3 MEM_DATA BIT(72);
     1918      908        /**/
     1919      909        /* EXTERNAL REFERENCES */
     1920      910    1   DCL HFA$CSHERR ENTRY(5) ALTRET;
     1921      911    1   DCL S_PNO UBIN SYMREF;
     1922      912        /**/
     1923      913        /**/
     1924      914        /* PROCEDURE */
     1925      915    2      DO INHIBIT;

     1926      916    2           B$SS.CSHERR = '0'B;

PL6.E3A0      #007=HFB$CSHERR File=HFB$FPR.:E05TSI                               TUE 07/29/97 22:28 Page:285
    916  1 000002   000000 470600 xsym               LDP0  ! B_MPT
         1 000003   000100 100600                    MLR   ! fill='000'O
         1 000004   000002 000001 xsym               ADSC9   B_VECTNIL+2              cn=0,n=1
         1 000005   000070 000030                    ADSC9   56,,PR0                  cn=0,n=24

     1927      917    2           IF (S_PTYPE(S_PNO)~=%ELS1 AND FINFO.FLTREG.MEM_ILL_ACT~='0'B)

    917  1 000006   000000 720200 xsym               LXL0  ! S_PNO
         1 000007   000000 235210 xsym               LDA   ! S_PTYPE,X0
         1 000010   000002 115207                    CMPA  ! 2,DL
         1 000011   000016 600200 1                  TZE   ! s:917+8
         1 000012   200003 471700                    LDP1  ! @FINFO,,AUTO
         1 000013   100001 236300                    LDQ   ! 1,,PR1
         1 000014   000000 316200 2                  CANQ  ! 0
         1 000015   000037 601200 1                  TNZ   ! s:924
         1 000016   000002 115207                    CMPA  ! 2,DL
         1 000017   000024 601200 1                  TNZ   ! s:917+14
         1 000020   200003 471700                    LDP1  ! @FINFO,,AUTO
         1 000021   100001 236300                    LDQ   ! 1,,PR1
         1 000022   000001 316200 2                  CANQ  ! 1
         1 000023   000037 601200 1                  TNZ   ! s:924
         1 000024   000002 115207                    CMPA  ! 2,DL
         1 000025   000034 600200 1                  TZE   ! s:917+22
         1 000026   200003 471700                    LDP1  ! @FINFO,,AUTO
         1 000027   100001 236300                    LDQ   ! 1,,PR1
         1 000030   000004 316207                    CANQ  ! 4,DL
         1 000031   000034 601200 1                  TNZ   ! s:917+22
         1 000032   000001 316207                    CANQ  ! 1,DL
         1 000033   000037 600200 1                  TZE   ! s:924
         1 000034   200003 471700                    LDP1  ! @FINFO,,AUTO
         1 000035   100003 235300                    LDA   ! 3,,PR1
         1 000036   000040 601200 1                  TNZ   ! s:925

     1928      918    2             OR (S_PTYPE(S_PNO)=%ELS1
     1929      919    2             AND FINFO.FLTREG.MEM_ILL_ACT_ELS.PORT_AB~='0'B)
     1930      920    2             OR (S_PTYPE(S_PNO)~=%ELS1
     1931      921    2             AND FINFO.FLTREG.CACHE_ERR.STORE_PAR = '0'B
PL6.E3A0      #007=HFB$CSHERR File=HFB$FPR.:E05TSI                               TUE 07/29/97 22:28 Page:286
     1932      922    2             AND FINFO.FLTREG.CACHE_ERR.PAR_ON_BLOCKLOAD = '0'B)
     1933      923    2             OR FINFO.P# = 0
     1934      924    2           THEN RETURN;

    924  1 000037   000000 702200 xent               TSX2  ! X66_ARET

     1935      925    2           IF H_RSW2(S_PNO) & '000000100000'O

    925  1 000040   000000 236210 xsym               LDQ   ! H_RSW2,X0
         1 000041   000000 376200 0                  ANQ   ! 0
         1 000042   000050 600200 1                  TZE   ! s:931

     1936      926    3           THEN DO;

     1937      927    3                CSH_INC = 2048;

    927  1 000043   004000 221203                    LDX1  ! 2048,DU
         1 000044   200006 741300                    STX1  ! CSH_INC,,AUTO

     1938      928    3                CSH_MASK = '000000003776'O;

    928  1 000045   000001 236200 0                  LDQ   ! 1
         1 000046   200007 756300                    STQ   ! CSH_MASK,,AUTO

     1939      929    3                END;

    929  1 000047   000054 710200 1                  TRA   ! s:934

     1940      930    3           ELSE DO;

     1941      931    3                CSH_INC = 512;

    931  1 000050   001000 221203                    LDX1  ! 512,DU
         1 000051   200006 741300                    STX1  ! CSH_INC,,AUTO

     1942      932    3                CSH_MASK = '000000000776'O;

PL6.E3A0      #007=HFB$CSHERR File=HFB$FPR.:E05TSI                               TUE 07/29/97 22:28 Page:287
    932  1 000052   000002 236200 0                  LDQ   ! 2
         1 000053   200007 756300                    STQ   ! CSH_MASK,,AUTO

     1943      933    3                END;

     1944      934    3           DO I = 15 DOWNTO 0;

    934  1 000054   000017 235207                    LDA   ! 15,DL
         1 000055   200010 755300                    STA   ! I,,AUTO

     1945      935    4                DO CASE(S_PTYPE(S_PNO));

    935  1 000056   000000 720200 xsym               LXL0  ! S_PNO
         1 000057   000000 235210 xsym               LDA   ! S_PTYPE,X0
         1 000060   000003 115207                    CMPA  ! 3,DL
         1 000061   000063 602205 1                  TNC   ! s:935+5,AL
         1 000062   000121 710200 1                  TRA   ! s:944
         1 000063   000075 710200 1                  TRA   ! s:939
         1 000064   000066 710200 1                  TRA   ! s:937
         1 000065   000104 710200 1                  TRA   ! s:941

     1946      936    4                 CASE (%DPSE);

     1947      937    4                   MEM_ADDR = FINFO.HR.DPSE_CU.RA(48+I);

    937  1 000066   200010 236300                    LDQ   ! I,,AUTO
         1 000067   000001 736200                    QLS   ! 1
         1 000070   200003 470700                    LDP0  ! @FINFO,,AUTO
         1 000071   000145 236306                    LDQ   ! 101,QL,PR0
         1 000072   000014 772200                    QRL   ! 12
         1 000073   200005 756300                    STQ   ! MEM_ADDR,,AUTO
         1 000074   000121 710200 1                  TRA   ! s:944

     1948      938    4                 CASE (%L66);

     1949      939    4                   MEM_ADDR = FINFO.HR.L66.VU.RA(I);

PL6.E3A0      #007=HFB$CSHERR File=HFB$FPR.:E05TSI                               TUE 07/29/97 22:28 Page:288
    939  1 000075   200010 236300                    LDQ   ! I,,AUTO
         1 000076   000001 736200                    QLS   ! 1
         1 000077   200003 470700                    LDP0  ! @FINFO,,AUTO
         1 000100   000105 236306                    LDQ   ! 69,QL,PR0
         1 000101   000014 772200                    QRL   ! 12
         1 000102   200005 756300                    STQ   ! MEM_ADDR,,AUTO
         1 000103   000121 710200 1                  TRA   ! s:944

     1950      940    4                 CASE (%ELS1);

     1951      941    4                   MEM_ADDR = FINFO.HR.ELS.ELS_HR.RAU(I) * 262144

    941  1 000104   200010 236300                    LDQ   ! I,,AUTO
         1 000105   000001 736200                    QLS   ! 1
         1 000106   200003 470700                    LDP0  ! @FINFO,,AUTO
         1 000107   000005 236306                    LDQ   ! 5,QL,PR0
         1 000110   000022 772200                    QRL   ! 18
         1 000111   200012 756300                    STQ   ! I+2,,AUTO
         1 000112   200010 235300                    LDA   ! I,,AUTO
         1 000113   000001 735200                    ALS   ! 1
         1 000114   000005 236305                    LDQ   ! 5,AL,PR0
         1 000115   000022 736200                    QLS   ! 18
         1 000116   000037 376203                    ANQ   ! 31,DU
         1 000117   200012 036300                    ADLQ  ! I+2,,AUTO
         1 000120   200005 756300                    STQ   ! MEM_ADDR,,AUTO

     1952      942    4                     + FINFO.HR.ELS.ELS_HR.RAL(I);
     1953      943    4                   END;                    /* DO CASE                            */

     1954      944    3                MEM_ADDR_BIN = MEM_ADDR_BIN & '777777777776'O;

    944  1 000121   200005 236300                    LDQ   ! MEM_ADDR,,AUTO
         1 000122   000003 376200 0                  ANQ   ! 3
         1 000123   200005 756300                    STQ   ! MEM_ADDR,,AUTO

     1955      945    3                CSH_ADDR_BIN = MEM_ADDR_BIN & CSH_MASK;

PL6.E3A0      #007=HFB$CSHERR File=HFB$FPR.:E05TSI                               TUE 07/29/97 22:28 Page:289
    945  1 000124   200007 376300                    ANQ   ! CSH_MASK,,AUTO
         1 000125   200004 756300                    STQ   ! CSH_ADDR,,AUTO

     1956      946    3                IF MEM_ADDR < (MM_PCORE + 1) * 1024

    946  1 000126   000000 236200 xsym               LDQ   ! MM_PCORE
         1 000127   000012 736200                    QLS   ! 10
         1 000130   002000 036207                    ADLQ  ! 1024,DL
         1 000131   000155 604200 1                  TMI   ! s:953
         1 000132   200005 116300                    CMPQ  ! MEM_ADDR,,AUTO
         1 000133   000155 602200 1                  TNC   ! s:953
         1 000134   000155 600200 1                  TZE   ! s:953

     1957      947    3                THEN CALL HFA$CSHERR (CSH_ADDR,

    947  1 000135   000000 236200 xsym               LDQ   ! B_MPT
         1 000136   000074 036203                    ADLQ  ! 60,DU
         1 000137   200016 756300                    STQ   ! I+6,,AUTO
         1 000140   200005 630700                    EPPR0 ! MEM_ADDR,,AUTO
         1 000141   200015 450700                    STP0  ! I+5,,AUTO
         1 000142   000000 236200 xsym               LDQ   ! B_MPT
         1 000143   000072 036203                    ADLQ  ! 58,DU
         1 000144   200014 756300                    STQ   ! I+4,,AUTO
         1 000145   200006 631700                    EPPR1 ! CSH_INC,,AUTO
         1 000146   200013 451700                    STP1  ! I+3,,AUTO
         1 000147   200004 633700                    EPPR3 ! CSH_ADDR,,AUTO
         1 000150   200012 453700                    STP3  ! I+2,,AUTO
         1 000151   200012 630700                    EPPR0 ! I+2,,AUTO
         1 000152   000023 631600 xsym               EPPR1 ! B_VECTNIL+19
         1 000153   000000 701200 xent               TSX1  ! HFA$CSHERR
         1 000154   000161 702200 1                  TSX2  ! FOUND_PAR_ERR

     1958      948    3                       CSH_INC,
     1959      949    3                       B$SS.CSHERR.CSH_DATA,
     1960      950    3                       MEM_ADDR,
     1961      951    3                       B$SS.CSHERR.MEM_DATA)
     1962      952    3                       ALTRET(FOUND_PAR_ERR);
PL6.E3A0      #007=HFB$CSHERR File=HFB$FPR.:E05TSI                               TUE 07/29/97 22:28 Page:290
     1963      953    3                END;                       /* DO I = 15 DOWNTO                   */

    953  1 000155   000001 336207                    LCQ   ! 1,DL
         1 000156   200010 056300                    ASQ   ! I,,AUTO
         1 000157   000056 605200 1                  TPL   ! s:935

     1964      954    2           RETURN;

    954  1 000160   000000 702200 xent               TSX2  ! X66_ARET

    946  1 000161                       FOUND_PAR_E* null
     1965      955    2   FOUND_PAR_ERR: ;
     1966      956    2           B$SS.CSHERR.CSH_SIZE = CSH_INC * 4;

    956  1 000161   200006 235300                    LDA   ! CSH_INC,,AUTO
         1 000162   777777 375203                    ANA   ! -1,DU
         1 000163   000020 771200                    ARL   ! 16
         1 000164   000000 620205                    EAX0  ! 0,AL
         1 000165   000000 470600 xsym               LDP0  ! B_MPT
         1 000166   000070 740300                    STX0  ! 56,,PR0

     1967      957    2           B$SS.CSHERR.CSH_ADDR = CSH_ADDR;

    957  1 000167   200004 721300                    LXL1  ! CSH_ADDR,,AUTO
         1 000170   000070 441300                    SXL1  ! 56,,PR0

     1968      958    2           B$SS.CSHERR.MEM_ADDR = MEM_ADDR;

    958  1 000171   200005 236300                    LDQ   ! MEM_ADDR,,AUTO
         1 000172   000071 756300                    STQ   ! 57,,PR0

     1969      959    2           RETURN;

    959  1 000173   000000 702200 xent               TSX2  ! X66_ARET

     1970      960    2           END;                            /* DO INHIBIT                         */

PL6.E3A0      #007=HFB$CSHERR File=HFB$FPR.:E05TSI                               TUE 07/29/97 22:28 Page:291
     1971      961    1   END HFB$CSHERR;

    961  1 000174   000000 702200 xent               TSX2  ! X66_ARET

(unnamed)
 Sect OctLoc
   0     000   000000 100000   000000 003776   000000 000776   777777 777776    ..@.............

(unnamed)
 Sect OctLoc
   2     000   000003 777760   000003 770000                                    ........

PL6.E3A0      #007=HFB$CSHERR File=HFB$FPR.:E05TSI                               TUE 07/29/97 22:28 Page:292
--  Include file information  --

   SS_CNTRLD_R.:E05TOU  cannot be made into a system file and is referenced.
   SS_CNTRL_R.:E05TOU  cannot be made into a system file and is referenced.
   SS_SCHED_R.:E05TOU  cannot be made into a system file and is referenced.
   HF_DATA_R.:E05TOU  cannot be made into a system file and is referenced.
   MM_MACRO_M.:E05TOU  is referenced.
   B_STRINGS_C.:E05TOU  is referenced.
   MM$SYSGEN.:E05TOU  is referenced.
   M_INFO_C.:E05TOU  is referenced.
   MM_DATA_R.:E05TOU  cannot be made into a system file and is referenced.
   B_MAGIC_C.:E05TOU  is referenced.
      No diagnostics issued in procedure HFB$CSHERR.
PL6.E3A0      #007=HFB$CSHERR File=HFB$FPR.:E05TSI                               TUE 07/29/97 22:28 Page:293

 **** Variables and constants ****

  ****  Auto variables  ****

  ****  Scalars and arrays  ****
OctLoc.c.b A Datatyp(siz) R M Lvl/name                 OctLoc.c.b A Datatyp(siz) R M Lvl/name

     3-0-0/w PTR         r     1 @FINFO                     4-0-0/w UBIN        r     1 CSH_ADDR
     4-0-0/w BIT         r     1 CSH_ADDR_BIN               6-0-0/w UBIN(18)    r     1 CSH_INC
     7-0-0/b BIT         r     1 CSH_MASK                  *0-0-0/d STRC(4752)  r     1 FINFO
    10-0-0/w SBIN        r     1 I                          5-0-0/w UBIN        r     1 MEM_ADDR
     5-0-0/w BIT         r     1 MEM_ADDR_BIN

  ****  SYMREF variables  ****

  ****  Scalars and arrays  ****
OctLoc.c.b A Datatyp(siz) R M Lvl/name                 OctLoc.c.b A Datatyp(siz) R M Lvl/name

     0-0-0/d STRC(432)   r     1 B_MPT                      0-0-0/w BIT         r     1 H_RSW2(0:7)
     0-0-0/w PTR         r     1 MM_BYP$                    0-0-0/w SBIN        r     1 MM_PCORE
     0-0-0/w UBIN        r     1 S_PNO
     0-0-0/w SBIN        r     1 S_PTYPE(0:7)

  ****  BASED and DCB variables  ****

  ****  Scalars and arrays  ****
OctLoc.c.b A Datatyp(siz) R M Lvl/name                 OctLoc.c.b A Datatyp(siz) R M Lvl/name

     0-0-0/d STRC(2232)  r     1 B$SS


   Procedure HFB$CSHERR requires 125 words for executable code.
   Procedure HFB$CSHERR requires 16 words of local(AUTO) storage.

    No errors detected in file HFB$FPR.:E05TSI    .
PL6.E3A0      #007=HFB$CSHERR File=HFB$FPR.:E05TSI                               TUE 07/29/97 22:28 Page:294
          *** CROSS REFERENCE LISTING ***
**     DENOTES     IDENTIFIER DEFINITION
<<                 IDENTIFIER'S VALUE SET
>>                 IDENTIFIER'S VALUE USED
<>                 IDENTIFIER SET AND/OR USED
--                 IDENTIFIER REFERENCED
PL6.E3A0      #007=HFB$CSHERR File=HFB$FPR.:E05TSI                               TUE 07/29/97 22:28 Page:295
          MINI XREF LISTING

B$SS.CSHERR
       902**DCL       916<<ASSIGN
B$SS.CSHERR.CSH_ADDR
       904**DCL       957<<ASSIGN
B$SS.CSHERR.CSH_DATA
       906**DCL       947<>CALL
B$SS.CSHERR.CSH_SIZE
       903**DCL       956<<ASSIGN
B$SS.CSHERR.MEM_ADDR
       905**DCL       958<<ASSIGN
B$SS.CSHERR.MEM_DATA
       907**DCL       947<>CALL
B_MPT.AS
       177**DCL       180--REDEF
B_MPT.ASDESC
       209**DCL       213--REDEF
B_MPT.ECCB
       192**DCL       195--REDEF
B_MPT.ECCBDESC
       227**DCL       231--REDEF
B_MPT.LS
       172**DCL       175--REDEF
B_MPT.LSDESC
       203**DCL       207--REDEF
B_MPT.PS
       182**DCL       185--REDEF
B_MPT.PSDESC
       215**DCL       219--REDEF
B_MPT.SS
       167**DCL       170--REDEF
B_MPT.SS$
       170**DCL       900--IMP-PTR   916>>ASSIGN    947>>CALL      947>>CALL      956>>ASSIGN    957>>ASSIGN
PL6.E3A0      #007=HFB$CSHERR File=HFB$FPR.:E05TSI                               TUE 07/29/97 22:28 Page:296
       958>>ASSIGN
B_MPT.SSDESC
       197**DCL       201--REDEF
B_MPT.TCB
       187**DCL       190--REDEF
B_MPT.TCBDESC
       221**DCL       225--REDEF
CSH_ADDR
       891**DCL       892--REDEF     947<>CALL      957>>ASSIGN
CSH_ADDR_BIN
       892**DCL       945<<ASSIGN
CSH_INC
       895**DCL       927<<ASSIGN    931<<ASSIGN    947<>CALL      956>>ASSIGN
CSH_MASK
       896**DCL       928<<ASSIGN    932<<ASSIGN    945>>ASSIGN
FINFO
       842**DCL        20--PROC
FINFO.FLTREG.CACHE_ERR.PAR_ON_BLOCKLOAD
       862**DCL       917>>IF
FINFO.FLTREG.CACHE_ERR.STORE_PAR
       860**DCL       917>>IF
FINFO.FLTREG.MEM_ILL_ACT
       850**DCL       855--REDEF     917>>IF
FINFO.FLTREG.MEM_ILL_ACT_ELS.PORT_AB
       856**DCL       917>>IF
FINFO.HR.DPSE_CU
       870**DCL       874--REDEF     882--REDEF
FINFO.HR.DPSE_CU.RA
       872**DCL       937>>ASSIGN
FINFO.HR.ELS.ELS_HR.RAL
       885**DCL       941>>ASSIGN
FINFO.HR.ELS.ELS_HR.RAU
       887**DCL       941>>ASSIGN
FINFO.HR.L66.VU.RA
       879**DCL       939>>ASSIGN
FINFO.P#
PL6.E3A0      #007=HFB$CSHERR File=HFB$FPR.:E05TSI                               TUE 07/29/97 22:28 Page:297
       868**DCL       917>>IF
FOUND_PAR_ERR
       946**LABEL     947--CALLALT
HFA$CSHERR
       910**DCL-ENT   947--CALL
H_RSW2
       777**DCL       925>>IF
I
       897**DCL       934<<DOINDEX   937>>ASSIGN    939>>ASSIGN    941>>ASSIGN    941>>ASSIGN
MEM_ADDR
       893**DCL       894--REDEF     937<<ASSIGN    939<<ASSIGN    941<<ASSIGN    946>>IF        947<>CALL
       958>>ASSIGN
MEM_ADDR_BIN
       894**DCL       944<<ASSIGN    944>>ASSIGN    945>>ASSIGN
MM$DESC.BOUND
       705**DCL       706--REDEF
MM$DESC.FLGS
       706**DCL       706--REDEF
MM$PPUT.USER#
       694**DCL       694--REDEF
MM_BYP$
       625**DCL       625--IMP-PTR
MM_PCORE
       627**DCL       946>>IF
S_PNO
       911**DCL       917>>IF        917>>IF        917>>IF        925>>IF        935>>DOCASE
S_PTYPE
       827**DCL       917>>IF        917>>IF        917>>IF        935>>DOCASE
