VERSION E05

PL6.E3A0      #001=HFD$CNNCT File=HFD$CNNCT.:E05TSI                              TUE 07/29/97 22:23 Page:1
        1        1        /*M* HFD$CNNCT - INTER PROCESSOR CONNECT PROCEDURE                            */
        2        2        /*T***********************************************************/
        3        3        /*T*                                                         */
        4        4        /*T* Copyright (c) Bull HN Information Systems Inc., 1997    */
        5        5        /*T*                                                         */
        6        6        /*T***********************************************************/
        7        7        HFD$CNNCT: PROC(CP#,ACTION);
        8        8        /*                                                                    */
        9        9    1   DCL   CP# UBIN;                         /* LOGICAL NUMBER OF PROCESSOR        */
       10       10    1   DCL   ACTION BIT(36) ALIGNED;           /* MAILBOX DIRECTIVE FOR PROCESSOR    */
       11       11        /*                                                                    */
       12       12    1   DCL   SSS$CIOC ENTRY(1);
       13       13        %INCLUDE HF_DATA_R;
       14       56        %INCLUDE HF_LOCK_C;
       15       70        /*                                                                    */
       16       71             %LOCK  (G#=H_CPUGATE);
       17       74    1      H_CNNCTMLBX(CP#)=ACTION;
       18       75    1      CALL SSS$CIOC(CP#);
       19       76             %UNLOCK  (G#=H_CPUGATE);
       20       79    1      RETURN;
       21       80    1   END;

PL6.E3A0      #001=HFD$CNNCT File=HFD$CNNCT.:E05TSI                              TUE 07/29/97 22:23 Page:2
--  Include file information  --

   HF_LOCK_C.:E05TOU  cannot be made into a system file and is referenced.
   HF_DATA_R.:E05TOU  cannot be made into a system file and is referenced.
      No diagnostics issued in procedure HFD$CNNCT.

   Procedure HFD$CNNCT requires 20 words for executable code.
   Procedure HFD$CNNCT requires 6 words of local(AUTO) storage.

    No errors detected in file HFD$CNNCT.:E05TSI    .

PL6.E3A0      #001=HFD$CNNCT File=HFD$CNNCT.:E05TSI                              TUE 07/29/97 22:23 Page:3

 Object Unit name= HFD$CNNCT                                  File name= HFD$CNNCT.:E05TOU
 UTS= JUL 29 '97 22:23:53.44 TUE                              Compiler= PL-6/E31         Sev=      00
 SharedLib= :SHARED_SYSTEM                                    Alt SharedLib=


    ****  Control sections  ****

 Sect   Type Bound  Init  Size OctSiz  Section name(segment info)
    0   Proc  even  none    20     24  HFD$CNNCT
    1  RoData even  none     1      1  HFD$CNNCT

    ****  Entry defs  ****

                              Check   Calling
                             calling  sequence
  Sect OctLoc Primary Altret sequence   type   Parms  Name
     0      0   yes            yes      Std        2  HFD$CNNCT

  ****  Entry refs  ****

         Check        Calling
        calling       sequence
Altret sequence SRef   type   Args  Name
         yes           Std       1 HFC$LOCK
         yes           Std       1 SSS$CIOC
         yes           Std       1 HFC$UNLOCK
                       nStd      0 X66_AUTO_2
                       Std       0 B_CONSPOOL_D
                       nStd      0 X66_ARET

  ****  Data refs  ****

  Flags:  r = read only, s = secondary
Flgs Name                             Flgs Name                             Flgs Name
     H_CPUGATE                             H_CNNCTMLBX                           B_VECTNIL
PL6.E3A0      #001=HFD$CNNCT File=HFD$CNNCT.:E05TSI                              TUE 07/29/97 22:23 Page:4

  ****  Segment refs  ****

  Flags:  r = read only, s = secondary
Flgs Name                             Flgs Name                             Flgs Name
     ISSID
PL6.E3A0      #001=HFD$CNNCT File=HFD$CNNCT.:E05TSI                              TUE 07/29/97 22:23 Page:5


        1        1        /*M* HFD$CNNCT - INTER PROCESSOR CONNECT PROCEDURE                            */
        2        2        /*T***********************************************************/
        3        3        /*T*                                                         */
        4        4        /*T* Copyright (c) Bull HN Information Systems Inc., 1997    */
        5        5        /*T*                                                         */
        6        6        /*T***********************************************************/
        7        7        HFD$CNNCT: PROC(CP#,ACTION);

      7  0 000000   000000 700200 xent  HFD$CNNCT    TSX0  ! X66_AUTO_2
         0 000001   000006 000002                    ZERO    6,2

        8        8        /*                                                                    */
        9        9    1   DCL   CP# UBIN;                         /* LOGICAL NUMBER OF PROCESSOR        */
       10       10    1   DCL   ACTION BIT(36) ALIGNED;           /* MAILBOX DIRECTIVE FOR PROCESSOR    */
       11       11        /*                                                                    */
       12       12    1   DCL   SSS$CIOC ENTRY(1);
       13       13        %INCLUDE HF_DATA_R;
       14       56        %INCLUDE HF_LOCK_C;
       15       70        /*                                                                    */
       16       71             %LOCK  (G#=H_CPUGATE);

     72  0 000002   000000 630400 1                  EPPR0   0
         0 000003   000017 631400 xsym               EPPR1   B_VECTNIL+15
         0 000004   000000 701000 xent               TSX1    HFC$LOCK
         0 000005   000000 011000                    NOP     0

       17       74    1      H_CNNCTMLBX(CP#)=ACTION;

     74  0 000006   200003 470500                    LDP0    @CP#,,AUTO
         0 000007   000000 720100                    LXL0    0,,PR0
         0 000010   200004 471500                    LDP1    @ACTION,,AUTO
         0 000011   100000 236100                    LDQ     0,,PR1
         0 000012   000000 756010 xsym               STQ     H_CNNCTMLBX,X0

       18       75    1      CALL SSS$CIOC(CP#);

PL6.E3A0      #001=HFD$CNNCT File=HFD$CNNCT.:E05TSI                              TUE 07/29/97 22:23 Page:6
     75  0 000013   200003 630500                    EPPR0   @CP#,,AUTO
         0 000014   000017 631400 xsym               EPPR1   B_VECTNIL+15
         0 000015   000000 701000 xent               TSX1    SSS$CIOC
         0 000016   000000 011000                    NOP     0

       19       76             %UNLOCK  (G#=H_CPUGATE);

     77  0 000017   000000 630400 1                  EPPR0   0
         0 000020   000017 631400 xsym               EPPR1   B_VECTNIL+15
         0 000021   000000 701000 xent               TSX1    HFC$UNLOCK
         0 000022   000000 011000                    NOP     0

       20       79    1      RETURN;

     79  0 000023   000000 702200 xent               TSX2  ! X66_ARET

(unnamed)
 Sect OctLoc
   1     000   000000 006000                                                    ....
       21       80    1   END;

PL6.E3A0      #001=HFD$CNNCT File=HFD$CNNCT.:E05TSI                              TUE 07/29/97 22:23 Page:7
--  Include file information  --

   HF_LOCK_C.:E05TOU  cannot be made into a system file and is referenced.
   HF_DATA_R.:E05TOU  cannot be made into a system file and is referenced.
      No diagnostics issued in procedure HFD$CNNCT.
PL6.E3A0      #001=HFD$CNNCT File=HFD$CNNCT.:E05TSI                              TUE 07/29/97 22:23 Page:8

 **** Variables and constants ****

  ****  Auto variables  ****

  ****  Scalars and arrays  ****
OctLoc.c.b A Datatyp(siz) R M Lvl/name                 OctLoc.c.b A Datatyp(siz) R M Lvl/name

     4-0-0/w PTR         r     1 @ACTION                    3-0-0/w PTR         r     1 @CP#
    *0-0-0/w BIT         r     1 ACTION                    *0-0-0/w UBIN        r     1 CP#

  ****  SYMREF variables  ****

  ****  Scalars and arrays  ****
OctLoc.c.b A Datatyp(siz) R M Lvl/name                 OctLoc.c.b A Datatyp(siz) R M Lvl/name

     0-0-0/b STRC        r     1 H_CNNCTMLBX(0:7)
     0-0-0/d BIT (72)    r     1 H_CPUGATE


   Procedure HFD$CNNCT requires 20 words for executable code.
   Procedure HFD$CNNCT requires 6 words of local(AUTO) storage.

    No errors detected in file HFD$CNNCT.:E05TSI    .
PL6.E3A0      #001=HFD$CNNCT File=HFD$CNNCT.:E05TSI                              TUE 07/29/97 22:23 Page:9
          *** CROSS REFERENCE LISTING ***
**     DENOTES     IDENTIFIER DEFINITION
<<                 IDENTIFIER'S VALUE SET
>>                 IDENTIFIER'S VALUE USED
<>                 IDENTIFIER SET AND/OR USED
--                 IDENTIFIER REFERENCED
PL6.E3A0      #001=HFD$CNNCT File=HFD$CNNCT.:E05TSI                              TUE 07/29/97 22:23 Page:10
          MINI XREF LISTING

ACTION
        10**DCL         7--PROC       74>>ASSIGN
CP#
         9**DCL         7--PROC       74>>ASSIGN     75<>CALL
HFC$LOCK
        69**DCL-ENT    72--CALL
HFC$UNLOCK
        69**DCL-ENT    77--CALL
H_CNNCTMLBX
        21**DCL        74<<ASSIGN
H_CPUGATE
        21**DCL        72<>CALL       77<>CALL
SSS$CIOC
        12**DCL-ENT    75--CALL
