PL6.E3A0      #002=IAA$EVENT File=IAA$MAIN.:E05TSI                               TUE 07/29/97 22:31 Page:325
     2488        1        /*M* IAA$EVENT           HANDLES READS FROM CSCG */
     2489        2        /*T***********************************************************/
     2490        3        /*T*                                                         */
     2491        4        /*T* Copyright (c) Bull HN Information Systems Inc., 1997    */
     2492        5        /*T*                                                         */
     2493        6        /*T***********************************************************/
     2494        7
     2495        8        IAA$EVENT: PROC ASYNC;
     2496        9                                                /*  */
     2497       10                       /*
     2498       11             PURPOSE: This routine will handle the completion of a read
     2499       12                       event from ccscg                                      */
     2500       13        %INCLUDE CP_6;
     2501       94        %INCLUDE CP_6_SUBS;
     2502      634        %B$NWIO(STCLASS="BASED");
     2503      719        %B$TCB;
     2504      722                                                /*  */
     2505      723    1   DCL DET_RENV UBIN WORD;
     2506      724    1   DCL B$TCB$ PTR SYMREF;
     2507      725    1   DCL GOOSE_ERR BIT(36) SYMREF;
     2508      726    1   DCL GOOSE_READ_FLAG BIT(1) SYMREF;
     2509      727        /* Begin main program */
     2510      728    1        GOOSE_ERR = B$TCB$ -> B$TCB.STK$ -> B$NWIO.ERR;
     2511      729    1        GOOSE_READ_FLAG = %YES#;
     2512      730    1        RETURN;
     2513      731    1   END IAA$EVENT;
     2514      732        %EOD;

PL6.E3A0      #002=IAA$EVENT File=IAA$MAIN.:E05TSI                               TUE 07/29/97 22:31 Page:326
--  Include file information  --

   CP_6_SUBS.:E05TOU  is referenced.
   CP_6.:E05TOU  cannot be made into a system file and is referenced.
   B$JIT_C.:E05TOU  was found in the system file and is never referenced.
   CP_6_C.:E05TOU  was found in the system file and is referenced.
      No diagnostics issued in procedure IAA$EVENT.

   Procedure IAA$EVENT requires 9 words for executable code.
   Procedure IAA$EVENT requires 4 words of local(AUTO) storage.

PL6.E3A0      #002=IAA$EVENT File=IAA$MAIN.:E05TSI                               TUE 07/29/97 22:31 Page:327

 Object Unit name= IAA$EVENT                                  File name= IAA$MAIN.:E05TOU
 UTS= JUL 29 '97 22:31:34.08 TUE                              Compiler= PL-6/E31         Sev=      00
 SharedLib= :SHARED_SYSTEM                                    Alt SharedLib=


    ****  Control sections  ****

 Sect   Type Bound  Init  Size OctSiz  Section name(segment info)
    0   DCB   even  none     0      0  M$UC
    1   Proc  even  none     9     11  IAA$EVENT

    ****  Entry defs  ****

                              Check   Calling
                             calling  sequence
  Sect OctLoc Primary Altret sequence   type   Parms  Name
     1      0   yes            yes     Async       0  IAA$EVENT

  ****  Entry refs  ****

         Check        Calling
        calling       sequence
Altret sequence SRef   type   Args  Name
                       nStd      0 X66_AAUTO
                       nStd      0 X66_AARET

  ****  Data refs  ****

  Flags:  r = read only, s = secondary
Flgs Name                             Flgs Name                             Flgs Name
     M$UC                                  B$TCB$                                GOOSE_ERR
     GOOSE_READ_FLAG
PL6.E3A0      #002=IAA$EVENT File=IAA$MAIN.:E05TSI                               TUE 07/29/97 22:31 Page:328


     2488        1        /*M* IAA$EVENT           HANDLES READS FROM CSCG */
     2489        2        /*T***********************************************************/
     2490        3        /*T*                                                         */
     2491        4        /*T* Copyright (c) Bull HN Information Systems Inc., 1997    */
     2492        5        /*T*                                                         */
     2493        6        /*T***********************************************************/
     2494        7
     2495        8        IAA$EVENT: PROC ASYNC;

      8  1 000000   000000 700200 xent  IAA$EVENT    TSX0  ! X66_AAUTO
         1 000001   000004 000000                    ZERO    4,0

     2496        9                                                /*  */
     2497       10                       /*
     2498       11             PURPOSE: This routine will handle the completion of a read
     2499       12                       event from ccscg                                      */
     2500       13        %INCLUDE CP_6;
     2501       94        %INCLUDE CP_6_SUBS;
     2502      634        %B$NWIO(STCLASS="BASED");
     2503      719        %B$TCB;
     2504      722                                                /*  */
     2505      723    1   DCL DET_RENV UBIN WORD;
     2506      724    1   DCL B$TCB$ PTR SYMREF;
     2507      725    1   DCL GOOSE_ERR BIT(36) SYMREF;
     2508      726    1   DCL GOOSE_READ_FLAG BIT(1) SYMREF;
     2509      727        /* Begin main program */
     2510      728    1        GOOSE_ERR = B$TCB$ -> B$TCB.STK$ -> B$NWIO.ERR;

    728  1 000002   000000 470400 xsym               LDP0    B$TCB$
         1 000003   000001 471500                    LDP1    1,,PR0
         1 000004   100102 236100                    LDQ     66,,PR1
         1 000005   000000 756000 xsym               STQ     GOOSE_ERR

     2511      729    1        GOOSE_READ_FLAG = %YES#;

    729  1 000006   400000 236003                    LDQ     -131072,DU
PL6.E3A0      #002=IAA$EVENT File=IAA$MAIN.:E05TSI                               TUE 07/29/97 22:31 Page:329
         1 000007   000000 756000 xsym               STQ     GOOSE_READ_FLAG

     2512      730    1        RETURN;

    730  1 000010   000000 702200 xent               TSX2  ! X66_AARET
     2513      731    1   END IAA$EVENT;
     2514      732        %EOD;

PL6.E3A0      #002=IAA$EVENT File=IAA$MAIN.:E05TSI                               TUE 07/29/97 22:31 Page:330
--  Include file information  --

   CP_6_SUBS.:E05TOU  is referenced.
   CP_6.:E05TOU  cannot be made into a system file and is referenced.
   B$JIT_C.:E05TOU  was found in the system file and is never referenced.
   CP_6_C.:E05TOU  was found in the system file and is referenced.
      No diagnostics issued in procedure IAA$EVENT.
PL6.E3A0      #002=IAA$EVENT File=IAA$MAIN.:E05TSI                               TUE 07/29/97 22:31 Page:331

 **** Variables and constants ****

  ****  SYMREF variables  ****

  ****  Scalars and arrays  ****
OctLoc.c.b A Datatyp(siz) R M Lvl/name                 OctLoc.c.b A Datatyp(siz) R M Lvl/name

     0-0-0/w PTR         r     1 B$TCB$                     0-0-0/b BIT         r     1 GOOSE_ERR
     0-0-0/b BIT         r     1 GOOSE_READ_FLAG

  ****  BASED and DCB variables  ****

  ****  Scalars and arrays  ****
OctLoc.c.b A Datatyp(siz) R M Lvl/name                 OctLoc.c.b A Datatyp(siz) R M Lvl/name

     0-0-0/w STRC(2880)  r     1 B$NWIO                     0-0-0/w STRC(144)   r     1 B$TCB


   Procedure IAA$EVENT requires 9 words for executable code.
   Procedure IAA$EVENT requires 4 words of local(AUTO) storage.
PL6.E3A0      #002=IAA$EVENT File=IAA$MAIN.:E05TSI                               TUE 07/29/97 22:31 Page:332
          *** CROSS REFERENCE LISTING ***
**     DENOTES     IDENTIFIER DEFINITION
<<                 IDENTIFIER'S VALUE SET
>>                 IDENTIFIER'S VALUE USED
<>                 IDENTIFIER SET AND/OR USED
--                 IDENTIFIER REFERENCED
PL6.E3A0      #002=IAA$EVENT File=IAA$MAIN.:E05TSI                               TUE 07/29/97 22:31 Page:333
          MINI XREF LISTING

B$NWIO.CGPARM.MSGIDXT
       668**DCL       671--REDEF
B$NWIO.CODE
       637**DCL       637--REDEF     638--REDEF     638--REDEF
B$NWIO.ERR
       638**DCL       728>>ASSIGN
B$NWIO.ERR.ERR#
       639**DCL       639--REDEF
B$NWIO.EVID
       638**DCL       638--REDEF     638--REDEF
B$TCB.STK$
       720**DCL       728>>ASSIGN
B$TCB$
       724**DCL       728>>ASSIGN
GOOSE_ERR
       725**DCL       728<<ASSIGN
GOOSE_READ_FLAG
       726**DCL       729<<ASSIGN

PL6.E3A0      #003=IAA$ABORT_CMD File=IAA$MAIN.:E05TSI                           TUE 07/29/97 22:31 Page:334
     2515        1        /*M* IAA$ABORT_CMD       HANDLES BREAKS FROM XUG$ */
     2516        2        /*T***********************************************************/
     2517        3        /*T*                                                         */
     2518        4        /*T* Copyright (c) Bull HN Information Systems Inc., 1997    */
     2519        5        /*T*                                                         */
     2520        6        /*T***********************************************************/
     2521        7
     2522        8        IAA$ABORT_CMD: PROC ;
     2523        9                                                /*  */
     2524       10                       /*
     2525       11             PURPOSE: This routine will handle the return to processing
     2526       12                       necessitated by receiving a break interrupt from
     2527       13                       the user. This routine will be call from XUG$BREAK.
     2528       14                       The remember variable is setup in the MAIN_OLOOP
     2529       15                       or online portion of IAA$MAIN.                    */
     2530       16        %INCLUDE CP_6;
     2531       97        %INCLUDE IA_DAT_R;
     2532      115                                                /*  */
     2533      116
     2534      117        /* Begin main program */
     2535      118
     2536      119    1        UNWIND TO ABORT_CMD;
     2537      120    1   END IAA$ABORT_CMD;

PL6.E3A0      #003=IAA$ABORT_CMD File=IAA$MAIN.:E05TSI                           TUE 07/29/97 22:31 Page:335
--  Include file information  --

   IA_DAT_R.:E05TOU  cannot be made into a system file and is referenced.
   CP_6.:E05TOU  cannot be made into a system file and is referenced.
   B$JIT_C.:E05TOU  was found in the system file and is never referenced.
   CP_6_C.:E05TOU  was found in the system file and is referenced.
      No diagnostics issued in procedure IAA$ABORT_CMD.

   Procedure IAA$ABORT_CMD requires 8 words for executable code.
   Procedure IAA$ABORT_CMD requires 6 words of local(AUTO) storage.

    No errors detected in file IAA$MAIN.:E05TSI    .

PL6.E3A0      #003=IAA$ABORT_CMD File=IAA$MAIN.:E05TSI                           TUE 07/29/97 22:31 Page:336

 Object Unit name= IAA$ABORT_CMD                              File name= IAA$MAIN.:E05TOU
 UTS= JUL 29 '97 22:31:52.00 TUE                              Compiler= PL-6/E31         Sev=      00
 SharedLib= :SHARED_SYSTEM                                    Alt SharedLib=


    ****  Control sections  ****

 Sect   Type Bound  Init  Size OctSiz  Section name(segment info)
    0   DCB   even  none     0      0  M$UC
    1   Proc  even  none     8     10  IAA$ABORT_CMD

    ****  Entry defs  ****

                              Check   Calling
                             calling  sequence
  Sect OctLoc Primary Altret sequence   type   Parms  Name
     1      0   yes            yes      Std        0  IAA$ABORT_CMD

  ****  Entry refs  ****

         Check        Calling
        calling       sequence
Altret sequence SRef   type   Args  Name
                       nStd      0 X66_AUTO_0
                       nStd      0 X66_AUNWIND

  ****  Data refs  ****

  Flags:  r = read only, s = secondary
Flgs Name                             Flgs Name                             Flgs Name
     M$UC                                  MESS_BUF                              ABORT_CMD
PL6.E3A0      #003=IAA$ABORT_CMD File=IAA$MAIN.:E05TSI                           TUE 07/29/97 22:31 Page:337


     2515        1        /*M* IAA$ABORT_CMD       HANDLES BREAKS FROM XUG$ */
     2516        2        /*T***********************************************************/
     2517        3        /*T*                                                         */
     2518        4        /*T* Copyright (c) Bull HN Information Systems Inc., 1997    */
     2519        5        /*T*                                                         */
     2520        6        /*T***********************************************************/
     2521        7
     2522        8        IAA$ABORT_CMD: PROC ;

      8  1 000000   000000 700200 xent  IAA$ABORT_C* TSX0  ! X66_AUTO_0
         1 000001   000006 000000                    ZERO    6,0

     2523        9                                                /*  */
     2524       10                       /*
     2525       11             PURPOSE: This routine will handle the return to processing
     2526       12                       necessitated by receiving a break interrupt from
     2527       13                       the user. This routine will be call from XUG$BREAK.
     2528       14                       The remember variable is setup in the MAIN_OLOOP
     2529       15                       or online portion of IAA$MAIN.                    */
     2530       16        %INCLUDE CP_6;
     2531       97        %INCLUDE IA_DAT_R;
     2532      115                                                /*  */
     2533      116
     2534      117        /* Begin main program */
     2535      118
     2536      119    1        UNWIND TO ABORT_CMD;

    119  1 000002   000100 100600                    MLR   ! fill='000'O
         1 000003   000000 000010 xsym               ADSC9   ABORT_CMD                cn=0,n=8
         1 000004   200004 000010                    ADSC9   4,,AUTO                  cn=0,n=8
         1 000005   200004 237300                    LDAQ  ! 4,,AUTO
         1 000006   000000 700200 xent               TSX0  ! X66_AUNWIND
         1 000007   000000 000200                    ZERO    0,128
     2537      120    1   END IAA$ABORT_CMD;

PL6.E3A0      #003=IAA$ABORT_CMD File=IAA$MAIN.:E05TSI                           TUE 07/29/97 22:31 Page:338
--  Include file information  --

   IA_DAT_R.:E05TOU  cannot be made into a system file and is referenced.
   CP_6.:E05TOU  cannot be made into a system file and is referenced.
   B$JIT_C.:E05TOU  was found in the system file and is never referenced.
   CP_6_C.:E05TOU  was found in the system file and is referenced.
      No diagnostics issued in procedure IAA$ABORT_CMD.
PL6.E3A0      #003=IAA$ABORT_CMD File=IAA$MAIN.:E05TSI                           TUE 07/29/97 22:31 Page:339

 **** Variables and constants ****

  ****  SYMREF variables  ****

  ****  Scalars and arrays  ****
OctLoc.c.b A Datatyp(siz) R M Lvl/name                 OctLoc.c.b A Datatyp(siz) R M Lvl/name

     0-0-0/w REMB        r     1 ABORT_CMD


   Procedure IAA$ABORT_CMD requires 8 words for executable code.
   Procedure IAA$ABORT_CMD requires 6 words of local(AUTO) storage.

    No errors detected in file IAA$MAIN.:E05TSI    .
PL6.E3A0      #003=IAA$ABORT_CMD File=IAA$MAIN.:E05TSI                           TUE 07/29/97 22:31 Page:340
          *** CROSS REFERENCE LISTING ***
**     DENOTES     IDENTIFIER DEFINITION
<<                 IDENTIFIER'S VALUE SET
>>                 IDENTIFIER'S VALUE USED
<>                 IDENTIFIER SET AND/OR USED
--                 IDENTIFIER REFERENCED
PL6.E3A0      #003=IAA$ABORT_CMD File=IAA$MAIN.:E05TSI                           TUE 07/29/97 22:31 Page:341
          MINI XREF LISTING

ABORT_CMD
       114**DCL       119>>UNWIND
MESS_BUF
       106**DCL       106--REDEF
