VERSION E05

PL6.E3A0      #001=IAE$ERROR File=IAE$ERROR.:E05TSI                              TUE 07/29/97 22:26 Page:1
        1        1        /*M* IAE$ERROR - Routines to output GOOSE error msgs. */
        2        2        /*T***********************************************************/
        3        3        /*T*                                                         */
        4        4        /*T* Copyright (c) Bull HN Information Systems Inc., 1997    */
        5        5        /*T*                                                         */
        6        6        /*T***********************************************************/
        7        7
        8        8        IAE$ERROR: PROC (ON_LINE, GOOSE_ERROR, SYSTEM_ERROR, KEY, TEXT$);
        9        9
       10       10        /*P*
       11       11             NAME: IAE$ERROR
       12       12             PURPOSE:
       13       13                  To report GOOSE errors to the proper place(s).
       14       14             DESCRIPTION:
       15       15                  This module contains three routines:
       16       16
       17       17                                 IAE$ERROR
       18       18                                 IAE$CSCG_ERROR
       19       19                                 IAE$ONLINE_ERROR
       20       20
       21       21                  The first routine is called by GOOSE when it doesn't know
       22       22                  from context which of the actual error reporting mechanisms
       23       23                  to use.
       24       24
       25       25                  IAE$CSCG_ERROR is called to report an error to the
       26       26                  operator's console.
       27       27
       28       28                  IAE$ONLINE_ERROR is called to report an error to the
       29       29                  online users terminal.
       30       30        */
       31       31        %EJECT
       32       32        /*F*
       33       33             NAME: IAE$ERROR
       34       34             PURPOSE:
       35       35                  To decide which of the actual error reporting mechanisms to use.
       36       36             DESCRIPTION:
       37       37                  This routine checks the ON_LINE flag to decide whether to
PL6.E3A0      #001=IAE$ERROR File=IAE$ERROR.:E05TSI                              TUE 07/29/97 22:26 Page:2
       38       38                  call IAE$CSCG_ERROR or IAE$ONLINE_ERROR.
       39       39        */
       40       40        /*D*
       41       41             NAME: IAE$ERROR
       42       42             CALL:
       43       43                  CALL IAE$ERROR (ON_LINE, GOOSE_ERROR, SYSTEM_ERROR, KEY, TEXT$);
       44       44             PARAMETERS:
       45       45                  ON_LINE - flag - set if the current GOOSE user is online
       46       46                                 - reset if the current GOOSE user is a ghost job.
       47       47
       48       48                  GOOSE_ERROR - the GOOSE error to be reported
       49       49
       50       50                  SYSTEM_ERROR - the monitor service or XUG$ error to be reported.
       51       51
       52       52                  KEY          - the message key to use when reporting an error to
       53       53                                 the operator's console.
       54       54
       55       55                  TEXT$        - a pointer to the text of the GOOSE command that
       56       56                                 caused the error.  To be used when reporting
       57       57                                 an error to the operator's console.
       58       58             INTERFACE:
       59       59                  calls:
       60       60                     IAE$CSCG_ERROR
       61       61                     IAE$ONLINE_ERROR
       62       62
       63       63                  called by:
       64       64                     PARSE$COMMAND
       65       65                     DO$COMMAND
       66       66
       67       67             ENVIRONMENT:
       68       68                  None.
       69       69             INPUT:
       70       70                  ON_LINE
       71       71                  GOOSE_ERROR
       72       72                  SYSTEM_ERROR
       73       73                  KEY
       74       74                  TEXT$
PL6.E3A0      #001=IAE$ERROR File=IAE$ERROR.:E05TSI                              TUE 07/29/97 22:26 Page:3
       75       75             OUTPUT:
       76       76                  None.
       77       77             SCRATCH:
       78       78                  None.
       79       79             DESCRIPTION:
       80       80                  This routine checks ON_LINE to decide which actual error
       81       81                  reporting mechanism to use.  If ON_LINE is set then
       82       82                  we call IAE$ONLINE_ERROR, else we call IAE$CSCG_ERROR.
       83       83        */
       84       84
       85       85        /*
       86       86          Parameters
       87       87        */
       88       88
       89       89    1   DCL  ON_LINE   BIT(1) ALIGNED;
       90       90    1   DCL  GOOSE_ERROR  UBIN;
       91       91    1   DCL  SYSTEM_ERROR  BIT(36) ALIGNED;
       92       92    1   DCL  KEY          UBIN;
       93       93    1   DCL  TEXT$       PTR;
       94       94
       95       95        /*
       96       96             Includes
       97       97        */
       98       98
       99       99        %INCLUDE CP_6;
      100     5658
      101     5659        /*
      102     5660           Auto variables
      103     5661        */
      104     5662
      105     5663    1   DCL ERROR BIT(36);
      106     5664
      107     5665        /*
      108     5666           Fpt's
      109     5667        */
      110     5668
      111     5669
PL6.E3A0      #001=IAE$ERROR File=IAE$ERROR.:E05TSI                              TUE 07/29/97 22:26 Page:4
      112     5670        /*
      113     5671           Entry points
      114     5672        */
      115     5673
      116     5674    1   DCL IAE$ONLINE_ERROR  ENTRY (2);
      117     5675    1   DCL IAE$CSCG_ERROR  ENTRY (3);
      118     5676
      119     5677        /*
      120     5678             start of IAE$ERROR main procedure
      121     5679        */
      122     5680
      123     5681    1    IF ON_LINE
      124     5682    1    THEN
      125     5683    2      DO;
      126     5684    2         CALL IAE$ONLINE_ERROR (GOOSE_ERROR, SYSTEM_ERROR);
      127     5685    2             END;
      128     5686    1    ELSE
      129     5687    2       DO;
      130     5688    2         IF GOOSE_ERROR = 0
      131     5689    2         THEN
      132     5690    3           DO;
      133     5691    3            ERROR = SYSTEM_ERROR;
      134     5692    3            END;
      135     5693    2         ELSE
      136     5694    3            DO;
      137     5695    3              ERROR = BINBIT(GOOSE_ERROR,36);
      138     5696    3           END;   /*  GOOSE ERROR  */
      139     5697    2         CALL IAE$CSCG_ERROR (KEY,ERROR,TEXT$);
      140     5698    2      END;  /* NOT ONLINE */
      141     5699
      142     5700    1        RETURN;
      143     5701
      144     5702    1   END IAE$ERROR;
      145     5703        %EOD;

PL6.E3A0      #001=IAE$ERROR File=IAE$ERROR.:E05TSI                              TUE 07/29/97 22:26 Page:5
--  Include file information  --

   CP_6_C.:E05TOU  is referenced.
   CP_6.:E05TOU  cannot be made into a system file and is referenced.
      No diagnostics issued in procedure IAE$ERROR.

   Procedure IAE$ERROR requires 30 words for executable code.
   Procedure IAE$ERROR requires 14 words of local(AUTO) storage.

PL6.E3A0      #001=IAE$ERROR File=IAE$ERROR.:E05TSI                              TUE 07/29/97 22:26 Page:6

 Object Unit name= IAE$ERROR                                  File name= IAE$ERROR.:E05TOU
 UTS= JUL 29 '97 22:26:05.92 TUE                              Compiler= PL-6/E31         Sev=      00
 SharedLib= :SHARED_SYSTEM                                    Alt SharedLib=


    ****  Control sections  ****

 Sect   Type Bound  Init  Size OctSiz  Section name(segment info)
    0   DCB   even  none     0      0  M$UC
    1   Proc  even  none    30     36  IAE$ERROR

    ****  Entry defs  ****

                              Check   Calling
                             calling  sequence
  Sect OctLoc Primary Altret sequence   type   Parms  Name
     1      0   yes            yes      Std        5  IAE$ERROR

  ****  Entry refs  ****

         Check        Calling
        calling       sequence
Altret sequence SRef   type   Args  Name
         yes           Std       2 IAE$ONLINE_ERROR
         yes           Std       3 IAE$CSCG_ERROR
                       nStd      0 X66_AUTO_5
                       Std       0 B_CONSPOOL_D
                       nStd      0 X66_ARET

  ****  Data refs  ****

  Flags:  r = read only, s = secondary
Flgs Name                             Flgs Name                             Flgs Name
     M$UC                                  B_VECTNIL
PL6.E3A0      #001=IAE$ERROR File=IAE$ERROR.:E05TSI                              TUE 07/29/97 22:26 Page:7


        1        1        /*M* IAE$ERROR - Routines to output GOOSE error msgs. */
        2        2        /*T***********************************************************/
        3        3        /*T*                                                         */
        4        4        /*T* Copyright (c) Bull HN Information Systems Inc., 1997    */
        5        5        /*T*                                                         */
        6        6        /*T***********************************************************/
        7        7
        8        8        IAE$ERROR: PROC (ON_LINE, GOOSE_ERROR, SYSTEM_ERROR, KEY, TEXT$);

      8  1 000000   000000 700200 xent  IAE$ERROR    TSX0  ! X66_AUTO_5
         1 000001   000016 000005                    ZERO    14,5

        9        9
       10       10        /*P*
       11       11             NAME: IAE$ERROR
       12       12             PURPOSE:
       13       13                  To report GOOSE errors to the proper place(s).
       14       14             DESCRIPTION:
       15       15                  This module contains three routines:
       16       16
       17       17                                 IAE$ERROR
       18       18                                 IAE$CSCG_ERROR
       19       19                                 IAE$ONLINE_ERROR
       20       20
       21       21                  The first routine is called by GOOSE when it doesn't know
       22       22                  from context which of the actual error reporting mechanisms
       23       23                  to use.
       24       24
       25       25                  IAE$CSCG_ERROR is called to report an error to the
       26       26                  operator's console.
       27       27
       28       28                  IAE$ONLINE_ERROR is called to report an error to the
       29       29                  online users terminal.
       30       30        */
       31       31        %EJECT
       32       32        /*F*
PL6.E3A0      #001=IAE$ERROR File=IAE$ERROR.:E05TSI                              TUE 07/29/97 22:26 Page:8
       33       33             NAME: IAE$ERROR
       34       34             PURPOSE:
       35       35                  To decide which of the actual error reporting mechanisms to use.
       36       36             DESCRIPTION:
       37       37                  This routine checks the ON_LINE flag to decide whether to
       38       38                  call IAE$CSCG_ERROR or IAE$ONLINE_ERROR.
       39       39        */
       40       40        /*D*
       41       41             NAME: IAE$ERROR
       42       42             CALL:
       43       43                  CALL IAE$ERROR (ON_LINE, GOOSE_ERROR, SYSTEM_ERROR, KEY, TEXT$);
       44       44             PARAMETERS:
       45       45                  ON_LINE - flag - set if the current GOOSE user is online
       46       46                                 - reset if the current GOOSE user is a ghost job.
       47       47
       48       48                  GOOSE_ERROR - the GOOSE error to be reported
       49       49
       50       50                  SYSTEM_ERROR - the monitor service or XUG$ error to be reported.
       51       51
       52       52                  KEY          - the message key to use when reporting an error to
       53       53                                 the operator's console.
       54       54
       55       55                  TEXT$        - a pointer to the text of the GOOSE command that
       56       56                                 caused the error.  To be used when reporting
       57       57                                 an error to the operator's console.
       58       58             INTERFACE:
       59       59                  calls:
       60       60                     IAE$CSCG_ERROR
       61       61                     IAE$ONLINE_ERROR
       62       62
       63       63                  called by:
       64       64                     PARSE$COMMAND
       65       65                     DO$COMMAND
       66       66
       67       67             ENVIRONMENT:
       68       68                  None.
       69       69             INPUT:
PL6.E3A0      #001=IAE$ERROR File=IAE$ERROR.:E05TSI                              TUE 07/29/97 22:26 Page:9
       70       70                  ON_LINE
       71       71                  GOOSE_ERROR
       72       72                  SYSTEM_ERROR
       73       73                  KEY
       74       74                  TEXT$
       75       75             OUTPUT:
       76       76                  None.
       77       77             SCRATCH:
       78       78                  None.
       79       79             DESCRIPTION:
       80       80                  This routine checks ON_LINE to decide which actual error
       81       81                  reporting mechanism to use.  If ON_LINE is set then
       82       82                  we call IAE$ONLINE_ERROR, else we call IAE$CSCG_ERROR.
       83       83        */
       84       84
       85       85        /*
       86       86          Parameters
       87       87        */
       88       88
       89       89    1   DCL  ON_LINE   BIT(1) ALIGNED;
       90       90    1   DCL  GOOSE_ERROR  UBIN;
       91       91    1   DCL  SYSTEM_ERROR  BIT(36) ALIGNED;
       92       92    1   DCL  KEY          UBIN;
       93       93    1   DCL  TEXT$       PTR;
       94       94
       95       95        /*
       96       96             Includes
       97       97        */
       98       98
       99       99        %INCLUDE CP_6;
      100     5658
      101     5659        /*
      102     5660           Auto variables
      103     5661        */
      104     5662
      105     5663    1   DCL ERROR BIT(36);
      106     5664
PL6.E3A0      #001=IAE$ERROR File=IAE$ERROR.:E05TSI                              TUE 07/29/97 22:26 Page:10
      107     5665        /*
      108     5666           Fpt's
      109     5667        */
      110     5668
      111     5669
      112     5670        /*
      113     5671           Entry points
      114     5672        */
      115     5673
      116     5674    1   DCL IAE$ONLINE_ERROR  ENTRY (2);
      117     5675    1   DCL IAE$CSCG_ERROR  ENTRY (3);
      118     5676
      119     5677        /*
      120     5678             start of IAE$ERROR main procedure
      121     5679        */
      122     5680
      123     5681    1    IF ON_LINE

   5681  1 000002   200003 470500                    LDP0    @ON_LINE,,AUTO
         1 000003   000000 234100                    SZN     0,,PR0
         1 000004   000012 605000 1                  TPL     s:5688

      124     5682    1    THEN
      125     5683    2      DO;

      126     5684    2         CALL IAE$ONLINE_ERROR (GOOSE_ERROR, SYSTEM_ERROR);

   5684  1 000005   200004 630500                    EPPR0   @GOOSE_ERROR,,AUTO
         1 000006   000020 631400 xsym               EPPR1   B_VECTNIL+16
         1 000007   000000 701000 xent               TSX1    IAE$ONLINE_ERROR
         1 000010   000000 011000                    NOP     0

      127     5685    2             END;

   5685  1 000011   000035 710000 1                  TRA     s:5700

      128     5686    1    ELSE
PL6.E3A0      #001=IAE$ERROR File=IAE$ERROR.:E05TSI                              TUE 07/29/97 22:26 Page:11
      129     5687    2       DO;

      130     5688    2         IF GOOSE_ERROR = 0

   5688  1 000012   200004 471500                    LDP1    @GOOSE_ERROR,,AUTO
         1 000013   100000 235100                    LDA     0,,PR1
         1 000014   000021 601000 1                  TNZ     s:5695

      131     5689    2         THEN
      132     5690    3           DO;

      133     5691    3            ERROR = SYSTEM_ERROR;

   5691  1 000015   200005 473500                    LDP3    @SYSTEM_ERROR,,AUTO
         1 000016   300000 236100                    LDQ     0,,PR3
         1 000017   200010 756100                    STQ     ERROR,,AUTO

      134     5692    3            END;

   5692  1 000020   000023 710000 1                  TRA     s:5697

      135     5693    2         ELSE
      136     5694    3            DO;

      137     5695    3              ERROR = BINBIT(GOOSE_ERROR,36);

   5695  1 000021   100000 236100                    LDQ     0,,PR1
         1 000022   200010 756100                    STQ     ERROR,,AUTO

      138     5696    3           END;   /*  GOOSE ERROR  */

      139     5697    2         CALL IAE$CSCG_ERROR (KEY,ERROR,TEXT$);

   5697  1 000023   200007 236100                    LDQ     @TEXT$,,AUTO
         1 000024   200014 756100                    STQ     ERROR+4,,AUTO
         1 000025   200010 633500                    EPPR3   ERROR,,AUTO
         1 000026   200013 453500                    STP3    ERROR+3,,AUTO
PL6.E3A0      #001=IAE$ERROR File=IAE$ERROR.:E05TSI                              TUE 07/29/97 22:26 Page:12
         1 000027   200006 236100                    LDQ     @KEY,,AUTO
         1 000030   200012 756100                    STQ     ERROR+2,,AUTO
         1 000031   200012 630500                    EPPR0   ERROR+2,,AUTO
         1 000032   000021 631400 xsym               EPPR1   B_VECTNIL+17
         1 000033   000000 701000 xent               TSX1    IAE$CSCG_ERROR
         1 000034   000000 011000                    NOP     0

      140     5698    2      END;  /* NOT ONLINE */

      141     5699
      142     5700    1        RETURN;

   5700  1 000035   000000 702200 xent               TSX2  ! X66_ARET
      143     5701
      144     5702    1   END IAE$ERROR;
      145     5703        %EOD;

PL6.E3A0      #001=IAE$ERROR File=IAE$ERROR.:E05TSI                              TUE 07/29/97 22:26 Page:13
--  Include file information  --

   CP_6_C.:E05TOU  is referenced.
   CP_6.:E05TOU  cannot be made into a system file and is referenced.
      No diagnostics issued in procedure IAE$ERROR.
PL6.E3A0      #001=IAE$ERROR File=IAE$ERROR.:E05TSI                              TUE 07/29/97 22:26 Page:14

 **** Variables and constants ****

  ****  Auto variables  ****

  ****  Scalars and arrays  ****
OctLoc.c.b A Datatyp(siz) R M Lvl/name                 OctLoc.c.b A Datatyp(siz) R M Lvl/name

     4-0-0/w PTR         r     1 @GOOSE_ERROR               6-0-0/w PTR         r     1 @KEY
     3-0-0/w PTR         r     1 @ON_LINE                   5-0-0/w PTR         r     1 @SYSTEM_ERROR
     7-0-0/w PTR         r     1 @TEXT$                    10-0-0/b BIT         r     1 ERROR
    *0-0-0/w UBIN        r     1 GOOSE_ERROR               *0-0-0/w UBIN        r     1 KEY
    *0-0-0/w BIT         r     1 ON_LINE                   *0-0-0/w BIT         r     1 SYSTEM_ERROR
    *0-0-0/w PTR         r     1 TEXT$


   Procedure IAE$ERROR requires 30 words for executable code.
   Procedure IAE$ERROR requires 14 words of local(AUTO) storage.
PL6.E3A0      #001=IAE$ERROR File=IAE$ERROR.:E05TSI                              TUE 07/29/97 22:26 Page:15
          *** CROSS REFERENCE LISTING ***
**     DENOTES     IDENTIFIER DEFINITION
<<                 IDENTIFIER'S VALUE SET
>>                 IDENTIFIER'S VALUE USED
<>                 IDENTIFIER SET AND/OR USED
--                 IDENTIFIER REFERENCED
PL6.E3A0      #001=IAE$ERROR File=IAE$ERROR.:E05TSI                              TUE 07/29/97 22:26 Page:16
          MINI XREF LISTING

ERROR
      5663**DCL      5691<<ASSIGN   5695<<ASSIGN   5697<>CALL
GOOSE_ERROR
        90**DCL         8--PROC     5684<>CALL     5688>>IF       5695>>ASSIGN
IAE$CSCG_ERROR
      5675**DCL-ENT  5697--CALL
IAE$ONLINE_ERROR
      5674**DCL-ENT  5684--CALL
KEY
        92**DCL         8--PROC     5697<>CALL
ON_LINE
        89**DCL         8--PROC     5681>>IF
SYSTEM_ERROR
        91**DCL         8--PROC     5684<>CALL     5691>>ASSIGN
TEXT$
        93**DCL         8--PROC     5697<>CALL

PL6.E3A0      #002=IAE$CSCG_ERROR File=IAE$ERROR.:E05TSI                         TUE 07/29/97 22:26 Page:17
      146        1        /*T***********************************************************/
      147        2        /*T*                                                         */
      148        3        /*T* Copyright (c) Bull HN Information Systems Inc., 1997    */
      149        4        /*T*                                                         */
      150        5        /*T***********************************************************/
      151        6        /*F*
      152        7             NAME: IAE$CSCG_ERROR
      153        8             PURPOSE:
      154        9                  To notify the operators console of GOOSE_EGG errors when GOOSE
      155       10                  is running in ghost mode.
      156       11             DESCRIPTION:
      157       12                  This routine builds the necessary structure for a message
      158       13                  to be put into CSCG directed at the system console to let
      159       14                  the operator know that the GOOSE_EGG is having problems.
      160       15        */
      161       16        /*D*
      162       17             NAME: IAE$CSCG_ERROR
      163       18             CALL:
      164       19                  CALL IAE$CSCG_ERROR (KEY,ERROR,PTR$);
      165       20             PARAMETERS:
      166       21                  KEY - the integer that describes the message type that is being
      167       22                        written to CSCG for delivery to the operators console.
      168       23
      169       24                  ERROR - the GOOSE assigned number to tell this routine what
      170       25                          submessage to write to CSCG and the operators console.
      171       26                  PTR$ - A pointer to the parse control block of the command
      172       27                         that failed to parse.
      173       28             INTERFACE:
      174       29                  M$WRITE
      175       30             ENVIRONMENT:
      176       31                  None.
      177       32             INPUT:
      178       33                  None.
      179       34             OUTPUT:
      180       35                  None.
      181       36             SCRATCH:
      182       37                  None.
PL6.E3A0      #002=IAE$CSCG_ERROR File=IAE$ERROR.:E05TSI                         TUE 07/29/97 22:26 Page:18
      183       38             DESCRIPTION:
      184       39                  This routine cases the key to determine what part of the fpt
      185       40                  to fill in with what messages.  In the case of key 5 the
      186       41                  ERROR parameter is put directly into the fpt.  In the case of
      187       42                  key 3 the ERROR number is used as an index into a table of
      188       43                  error messages that go into the fpt.
      189       44        */
      190       45        %EJECT;
PL6.E3A0      #002=IAE$CSCG_ERROR File=IAE$ERROR.:E05TSI                         TUE 07/29/97 22:26 Page:19
      191       46        IAE$CSCG_ERROR: PROC  (KEY, ERROR, PTR$);
      192       47
      193       48        /*
      194       49            Parameters
      195       50        */
      196       51    1   DCL KEY   UBIN;
      197       52    1   DCL ERROR  BIT(36) ALIGNED;
      198       53    1   DCL PTR$ PTR;
      199       54
      200       55        /*
      201       56            Includes
      202       57        */
      203       58        %INCLUDE CP_6;
      204     5617        %INCLUDE XUG_ENTRY;
      205     5648        %INCLUDE XU_MACRO_C;
      206     8754        %INCLUDE IA_SUBS_C;
      207     8824        %INCLUDE IA_PERR_C;
      208     8865        %INCLUDE OC_MESSHD_C;
      209     8918        %INCLUDE OC_SUBS_C;
      210     9649
      211     9650
      212     9651
      213     9652        /*
      214     9653           Fpt's and Vlp's
      215     9654        */
      216     9655        %FPT_WRITE (FPTN=TELL_CSCG,             /* Tell consoles error */
      217     9656                       DCB=M$CSCG,
      218     9657                       STATION=STA_KEYIN,
      219     9658                       BUF=TELL_CONSOLES,
      220     9659                       WAIT=YES);
      221     9690                                                /**/
      222     9691        %VLP_STATION (FPTN=STA_KEYIN,
      223     9692                       STATION='KEYIN');
      224     9719                                                /**/
      225     9720
      226     9721        /*
      227     9722            Macro invocations
PL6.E3A0      #002=IAE$CSCG_ERROR File=IAE$ERROR.:E05TSI                         TUE 07/29/97 22:26 Page:20
      228     9723        */
      229     9724        %P_PCB (NAME = P_PCB,
      230     9725                STCLASS = BASED);
      231     9924
      232     9925        %OC_MESSHD_W   (NAME=TELL_CONSOLES,     /* Template to tell console */
      233     9926                            ATR=M_SYS,          /* Tell system consoles */
      234     9927                            FUNC=WR,
      235     9928                            NPARMS = 4,
      236     9929             MSG=GOOSE_EMSG#);
      237     9942    1        2 * (0:3) UBIN BYTE CALIGNED INIT(1,4,80,20),
      238     9943    1             2 KEY UBIN BYTE CALIGNED,
      239     9944    1             2 ERROR BIT(36) CALIGNED,
      240     9945    1             2 MESS CHAR(80) CALIGNED,
      241     9946    1             2 FID CHAR(20) CALIGNED;
      242     9947
      243     9948        /*
      244     9949           Static variables
      245     9950        */
      246     9951
      247     9952    1   DCL ERROR_MSG1  CHAR(20) STATIC INIT ('Syntax error.       ');
      248     9953    1   DCL ERROR_MSG2  CHAR(20) STATIC INIT ('Time invalid.       ');
      249     9954    1   DCL ERROR_MSG3  CHAR(20) STATIC INIT ('Date invalid.       ');
      250     9955    1   DCL ERROR_MSG4  CHAR(20) STATIC INIT ('Cant get memory.    ');
      251     9956    1   DCL ERROR_MSG5  CHAR(20) STATIC INIT ('Invalid year        ');
      252     9957    1   DCL ERROR_MSG6  CHAR(20) STATIC INIT ('Invalid month       ');
      253     9958    1   DCL ERROR_MSG7  CHAR(20) STATIC INIT ('Invalid day         ');
      254     9959    1   DCL ERROR_MSG8  CHAR(20) STATIC INIT ('Invalid wildcard    ');
      255     9960    1   DCL ERROR_MSG9  CHAR(20) STATIC INIT ('Invalid date range  ');
      256     9961    1   DCL ERROR_MSG10 CHAR(20) STATIC INIT ('Command too big     ');
      257     9962    1   DCL ERROR_MSG11 CHAR(20) STATIC INIT ('Invalid time range  ');
      258     9963    1   DCL ERROR_MSG12 CHAR(20) STATIC INIT ('Date in the future  ');
      259     9964
      260     9965        /*
      261     9966           Based variables
      262     9967        */
      263     9968
      264     9969    1   DCL STRING CHAR(80) BASED;
PL6.E3A0      #002=IAE$CSCG_ERROR File=IAE$ERROR.:E05TSI                         TUE 07/29/97 22:26 Page:21
      265     9970
      266     9971        /*
      267     9972           DCB's
      268     9973        */
      269     9974    1   DCL M$CSCG DCB;
      270     9975
      271     9976        %EJECT;
PL6.E3A0      #002=IAE$CSCG_ERROR File=IAE$ERROR.:E05TSI                         TUE 07/29/97 22:26 Page:22
      272     9977        /*
      273     9978            Main procedure for IAE$CSCG_ERROR
      274     9979        */
      275     9980    2   DO CASE (KEY);
      276     9981
      277     9982    2      CASE (%IA_KEY_EGG_ERR# /* 5 */);
      278     9983
      279     9984    2         TELL_CONSOLES.ERROR = ERROR;
      280     9985                                                /**/
      281     9986        /*O*      MESSAGE: GOOSE: FCG-ERR-SEV error accessing GOOSE_EGG
      282     9987                  ACTION: Fix the GOOSE_EGG according to the error code given.
      283     9988                  PURPOSE: An error occured while GOOSE was accessing the
      284     9989                            GOOSE_EGG file.
      285     9990                             */
      286     9991
      287     9992    2      CASE (%IA_KEY_SYNTAX_ERR# /* 3 */,%IA_KEY_DATE_WARN# /* 8 */);
      288     9993
      289     9994              /*
      290     9995                  get the last command that XUG$GETCMD read and put it into
      291     9996                  the write buffer.
      292     9997                  The last command read by XUG$GETCMD is in PTR$.TEXT$.
      293     9998                  And the number of characters read is in PTR$.NCHARS.
      294     9999                  Continuation records are not delimited.
      295    10000                  Limit of 80 bytes of command.
      296    10001                  Limit of 20 bytes of error message.
      297    10002              */
      298    10003    2         TELL_CONSOLES.MESS = SUBSTR(PTR$->P_PCB.TEXT$->STRING,0,PTR$->P_PCB.NCHARS);
      299    10004
      300    10005    3        DO CASE (BITBIN(ERROR) );
      301    10006
      302    10007    3          CASE (%E$IA_SYN_ERR#);
      303    10008
      304    10009    3             TELL_CONSOLES.FID = ERROR_MSG1;
      305    10010
      306    10011    3          CASE (%E$IA_TIME_ERR#);
      307    10012
      308    10013    3             TELL_CONSOLES.FID = ERROR_MSG2;
PL6.E3A0      #002=IAE$CSCG_ERROR File=IAE$ERROR.:E05TSI                         TUE 07/29/97 22:26 Page:23
      309    10014
      310    10015    3          CASE (%E$IA_DATE_ERR#);
      311    10016
      312    10017    3             TELL_CONSOLES.FID = ERROR_MSG3;
      313    10018
      314    10019    3          CASE (%E$IA_NO_MEM#);
      315    10020
      316    10021    3             TELL_CONSOLES.FID = ERROR_MSG4;
      317    10022
      318    10023    3          CASE (%E$IA_YEAR_ERR#);
      319    10024
      320    10025    3             TELL_CONSOLES.FID = ERROR_MSG5;
      321    10026
      322    10027    3          CASE (%E$IA_MONTH_ERR#);
      323    10028
      324    10029    3             TELL_CONSOLES.FID = ERROR_MSG6;
      325    10030
      326    10031    3          CASE (%E$IA_DAY_ERR#);
      327    10032
      328    10033    3             TELL_CONSOLES.FID = ERROR_MSG7;
      329    10034
      330    10035    3          CASE (%E$IA_NO_WILD_ERR#);
      331    10036
      332    10037    3             TELL_CONSOLES.FID = ERROR_MSG8;
      333    10038
      334    10039    3          CASE (%E$IA_DATE_RANGE_ERR#);
      335    10040    3             TELL_CONSOLES.FID = ERROR_MSG9;
      336    10041
      337    10042    3          CASE (%E$IA_BEFORE_RANGE_WARN#,%E$IA_AFTER_RANGE_WARN#);
      338    10043    3             TELL_CONSOLES.FID = ERROR_MSG12;
      339    10044
      340    10045    3          CASE (%E$IA_CMD_TOO_BIG_ERR#);
      341    10046
      342    10047    3             TELL_CONSOLES.FID = ERROR_MSG10;
      343    10048
      344    10049    3          CASE (%E$IA_TIME_RANGE_ERR#);
      345    10050
PL6.E3A0      #002=IAE$CSCG_ERROR File=IAE$ERROR.:E05TSI                         TUE 07/29/97 22:26 Page:24
      346    10051    3             TELL_CONSOLES.FID = ERROR_MSG11;
      347    10052
      348    10053    3         END;  /*  DO CASE ERROR  */
      349    10054                                                /**/
      350    10055        /*O*      MESSAGE: GOOSE Error in line: command
      351    10056                  ACTION: Fix command in GOOSE_EGG file
      352    10057                  MEANING: GOOSE while parsing commands contained in
      353    10058                            the GOOSE_EGG file encountered an error in
      354    10059                            a command.
      355    10060                             */
      356    10061        /*O*      MESSAGE: GOOSE Warning in line: command
      357    10062                  ACTION: Check command in GOOSE_EGG file
      358    10063                  MEANING: GOOSE while parsing commands contained in
      359    10064                            the GOOSE_EGG file encountered a possible
      360    10065                            error in a command.
      361    10066                             */
      362    10067
      363    10068    2        CASE (%IA_KEY_START_ERR#);
      364    10069
      365    10070    2        TELL_CONSOLES.ERROR = ERROR;
      366    10071        /*O*      MESSAGE: GOOSE FCG-ERR-SEV could not start GJOB
      367    10072                  ACTION:
      368    10073                  MEANING: Goose could not start a ghost job because of an error.
      369    10074                        */
      370    10075    2             CALL M$WRITE(TELL_CSCG) ;
      371    10076    2      END;   /*  DO CASE KEY  */
      372    10077
      373    10078
      374    10079    1   TELL_CONSOLES.KEY = KEY;
      375    10080    1   CALL M$WRITE (TELL_CSCG) ;
      376    10081    1   RETURN;
      377    10082
      378    10083    1   END  IAE$CSCG_ERROR;
      379    10084        %EOD;

PL6.E3A0      #002=IAE$CSCG_ERROR File=IAE$ERROR.:E05TSI                         TUE 07/29/97 22:26 Page:25
--  Include file information  --

   OC_SUBS_C.:E05TOU  is referenced.
   OC_MESSHD_C.:E05TOU  is referenced.
   IA_PERR_C.:E05TOU  is referenced.
   IA_SUBS_C.:E05TOU  is referenced.
   XU_MACRO_C.:E05TOU  is referenced.
   XUG_ENTRY.:E05TOU  cannot be made into a system file and is referenced.
   CP_6_C.:E05TOU  is referenced.
   CP_6.:E05TOU  cannot be made into a system file and is referenced.
      No diagnostics issued in procedure IAE$CSCG_ERROR.

   Procedure IAE$CSCG_ERROR requires 124 words for executable code.
   Procedure IAE$CSCG_ERROR requires 6 words of local(AUTO) storage.

PL6.E3A0      #002=IAE$CSCG_ERROR File=IAE$ERROR.:E05TSI                         TUE 07/29/97 22:26 Page:26

 Object Unit name= IAE$CSCG_ERROR                             File name= IAE$ERROR.:E05TOU
 UTS= JUL 29 '97 22:26:47.24 TUE                              Compiler= PL-6/E31         Sev=      00
 SharedLib= :SHARED_SYSTEM                                    Alt SharedLib=


    ****  Control sections  ****

 Sect   Type Bound  Init  Size OctSiz  Section name(segment info)
    0   DCB   even  none     0      0  M$UC
    1   Data  even  none   113    161  IAE$CSCG_ERROR
    2   DCB   even  none     0      0  M$CSCG
    3   Proc  even  none   124    174  IAE$CSCG_ERROR

    ****  Entry defs  ****

                              Check   Calling
                             calling  sequence
  Sect OctLoc Primary Altret sequence   type   Parms  Name
     3      0   yes            yes      Std        3  IAE$CSCG_ERROR

  ****  Entry refs  ****

         Check        Calling
        calling       sequence
Altret sequence SRef   type   Args  Name
                       nStd      0 X66_AUTO_3
                       nStd      0 X66_ARET

  ****  Data refs  ****

  Flags:  r = read only, s = secondary
Flgs Name                             Flgs Name                             Flgs Name
     M$UC                                  M$CSCG
PL6.E3A0      #002=IAE$CSCG_ERROR File=IAE$ERROR.:E05TSI                         TUE 07/29/97 22:26 Page:27

  ****  Segment refs  ****

  Flags:  r = read only, s = secondary
Flgs Name                             Flgs Name                             Flgs Name
     ISSID                                 NULLSID
PL6.E3A0      #002=IAE$CSCG_ERROR File=IAE$ERROR.:E05TSI                         TUE 07/29/97 22:26 Page:28


      146        1        /*T***********************************************************/
      147        2        /*T*                                                         */
      148        3        /*T* Copyright (c) Bull HN Information Systems Inc., 1997    */
      149        4        /*T*                                                         */
      150        5        /*T***********************************************************/
      151        6        /*F*
      152        7             NAME: IAE$CSCG_ERROR
      153        8             PURPOSE:
      154        9                  To notify the operators console of GOOSE_EGG errors when GOOSE
      155       10                  is running in ghost mode.
      156       11             DESCRIPTION:
      157       12                  This routine builds the necessary structure for a message
      158       13                  to be put into CSCG directed at the system console to let
      159       14                  the operator know that the GOOSE_EGG is having problems.
      160       15        */
      161       16        /*D*
      162       17             NAME: IAE$CSCG_ERROR
      163       18             CALL:
      164       19                  CALL IAE$CSCG_ERROR (KEY,ERROR,PTR$);
      165       20             PARAMETERS:
      166       21                  KEY - the integer that describes the message type that is being
      167       22                        written to CSCG for delivery to the operators console.
      168       23
      169       24                  ERROR - the GOOSE assigned number to tell this routine what
      170       25                          submessage to write to CSCG and the operators console.
      171       26                  PTR$ - A pointer to the parse control block of the command
      172       27                         that failed to parse.
      173       28             INTERFACE:
      174       29                  M$WRITE
      175       30             ENVIRONMENT:
      176       31                  None.
      177       32             INPUT:
      178       33                  None.
      179       34             OUTPUT:
      180       35                  None.
      181       36             SCRATCH:
PL6.E3A0      #002=IAE$CSCG_ERROR File=IAE$ERROR.:E05TSI                         TUE 07/29/97 22:26 Page:29
      182       37                  None.
      183       38             DESCRIPTION:
      184       39                  This routine cases the key to determine what part of the fpt
      185       40                  to fill in with what messages.  In the case of key 5 the
      186       41                  ERROR parameter is put directly into the fpt.  In the case of
      187       42                  key 3 the ERROR number is used as an index into a table of
      188       43                  error messages that go into the fpt.
      189       44        */
      190       45        %EJECT;
PL6.E3A0      #002=IAE$CSCG_ERROR File=IAE$ERROR.:E05TSI                         TUE 07/29/97 22:26 Page:30
      191       46        IAE$CSCG_ERROR: PROC  (KEY, ERROR, PTR$);

     46  3 000000   000000 700200 xent  IAE$CSCG_ER* TSX0  ! X66_AUTO_3
         3 000001   000006 000003                    ZERO    6,3

      192       47
      193       48        /*
      194       49            Parameters
      195       50        */
      196       51    1   DCL KEY   UBIN;
      197       52    1   DCL ERROR  BIT(36) ALIGNED;
      198       53    1   DCL PTR$ PTR;
      199       54
      200       55        /*
      201       56            Includes
      202       57        */
      203       58        %INCLUDE CP_6;
      204     5617        %INCLUDE XUG_ENTRY;
      205     5648        %INCLUDE XU_MACRO_C;
      206     8754        %INCLUDE IA_SUBS_C;
      207     8824        %INCLUDE IA_PERR_C;
      208     8865        %INCLUDE OC_MESSHD_C;
      209     8918        %INCLUDE OC_SUBS_C;
      210     9649
      211     9650
      212     9651
      213     9652        /*
      214     9653           Fpt's and Vlp's
      215     9654        */
      216     9655        %FPT_WRITE (FPTN=TELL_CSCG,             /* Tell consoles error */
      217     9656                       DCB=M$CSCG,
      218     9657                       STATION=STA_KEYIN,
      219     9658                       BUF=TELL_CONSOLES,
      220     9659                       WAIT=YES);
      221     9690                                                /**/
      222     9691        %VLP_STATION (FPTN=STA_KEYIN,
      223     9692                       STATION='KEYIN');
PL6.E3A0      #002=IAE$CSCG_ERROR File=IAE$ERROR.:E05TSI                         TUE 07/29/97 22:26 Page:31
      224     9719                                                /**/
      225     9720
      226     9721        /*
      227     9722            Macro invocations
      228     9723        */
      229     9724        %P_PCB (NAME = P_PCB,
      230     9725                STCLASS = BASED);
      231     9924
      232     9925        %OC_MESSHD_W   (NAME=TELL_CONSOLES,     /* Template to tell console */
      233     9926                            ATR=M_SYS,          /* Tell system consoles */
      234     9927                            FUNC=WR,
      235     9928                            NPARMS = 4,
      236     9929             MSG=GOOSE_EMSG#);
      237     9942    1        2 * (0:3) UBIN BYTE CALIGNED INIT(1,4,80,20),
      238     9943    1             2 KEY UBIN BYTE CALIGNED,
      239     9944    1             2 ERROR BIT(36) CALIGNED,
      240     9945    1             2 MESS CHAR(80) CALIGNED,
      241     9946    1             2 FID CHAR(20) CALIGNED;
      242     9947
      243     9948        /*
      244     9949           Static variables
      245     9950        */
      246     9951
      247     9952    1   DCL ERROR_MSG1  CHAR(20) STATIC INIT ('Syntax error.       ');
      248     9953    1   DCL ERROR_MSG2  CHAR(20) STATIC INIT ('Time invalid.       ');
      249     9954    1   DCL ERROR_MSG3  CHAR(20) STATIC INIT ('Date invalid.       ');
      250     9955    1   DCL ERROR_MSG4  CHAR(20) STATIC INIT ('Cant get memory.    ');
      251     9956    1   DCL ERROR_MSG5  CHAR(20) STATIC INIT ('Invalid year        ');
      252     9957    1   DCL ERROR_MSG6  CHAR(20) STATIC INIT ('Invalid month       ');
      253     9958    1   DCL ERROR_MSG7  CHAR(20) STATIC INIT ('Invalid day         ');
      254     9959    1   DCL ERROR_MSG8  CHAR(20) STATIC INIT ('Invalid wildcard    ');
      255     9960    1   DCL ERROR_MSG9  CHAR(20) STATIC INIT ('Invalid date range  ');
      256     9961    1   DCL ERROR_MSG10 CHAR(20) STATIC INIT ('Command too big     ');
      257     9962    1   DCL ERROR_MSG11 CHAR(20) STATIC INIT ('Invalid time range  ');
      258     9963    1   DCL ERROR_MSG12 CHAR(20) STATIC INIT ('Date in the future  ');
      259     9964
      260     9965        /*
PL6.E3A0      #002=IAE$CSCG_ERROR File=IAE$ERROR.:E05TSI                         TUE 07/29/97 22:26 Page:32
      261     9966           Based variables
      262     9967        */
      263     9968
      264     9969    1   DCL STRING CHAR(80) BASED;
      265     9970
      266     9971        /*
      267     9972           DCB's
      268     9973        */
      269     9974    1   DCL M$CSCG DCB;
      270     9975
      271     9976        %EJECT;
PL6.E3A0      #002=IAE$CSCG_ERROR File=IAE$ERROR.:E05TSI                         TUE 07/29/97 22:26 Page:33
      272     9977        /*
      273     9978            Main procedure for IAE$CSCG_ERROR
      274     9979        */
      275     9980    2   DO CASE (KEY);

   9980  3 000002   200003 470500                    LDP0    @KEY,,AUTO
         3 000003   000000 235100                    LDA     0,,PR0
         3 000004   000011 115007                    CMPA    9,DL
         3 000005   000007 602005 3                  TNC     s:9980+5,AL
         3 000006   000164 710000 3                  TRA     s:10079
         3 000007   000164 710000 3                  TRA     s:10079
         3 000010   000164 710000 3                  TRA     s:10079
         3 000011   000164 710000 3                  TRA     s:10079
         3 000012   000025 710000 3                  TRA     s:10003
         3 000013   000155 710000 3                  TRA     s:10070
         3 000014   000020 710000 3                  TRA     s:9984
         3 000015   000164 710000 3                  TRA     s:10079
         3 000016   000164 710000 3                  TRA     s:10079
         3 000017   000025 710000 3                  TRA     s:10003

      276     9981
      277     9982    2      CASE (%IA_KEY_EGG_ERR# /* 5 */);

      278     9983
      279     9984    2         TELL_CONSOLES.ERROR = ERROR;

   9984  3 000020   200004 471500                    LDP1    @ERROR,,AUTO
         3 000021   000000 100500                    MLR     fill='000'O
         3 000022   100000 000004                    ADSC9   0,,PR1                   cn=0,n=4
         3 000023   000032 200004 1                  ADSC9   TELL_CONSOLES+6          cn=1,n=4
         3 000024   000164 710000 3                  TRA     s:10079

      280     9985                                                /**/
      281     9986        /*O*      MESSAGE: GOOSE: FCG-ERR-SEV error accessing GOOSE_EGG
      282     9987                  ACTION: Fix the GOOSE_EGG according to the error code given.
      283     9988                  PURPOSE: An error occured while GOOSE was accessing the
      284     9989                            GOOSE_EGG file.
PL6.E3A0      #002=IAE$CSCG_ERROR File=IAE$ERROR.:E05TSI                         TUE 07/29/97 22:26 Page:34
      285     9990                             */
      286     9991
      287     9992    2      CASE (%IA_KEY_SYNTAX_ERR# /* 3 */,%IA_KEY_DATE_WARN# /* 8 */);

      288     9993
      289     9994              /*
      290     9995                  get the last command that XUG$GETCMD read and put it into
      291     9996                  the write buffer.
      292     9997                  The last command read by XUG$GETCMD is in PTR$.TEXT$.
      293     9998                  And the number of characters read is in PTR$.NCHARS.
      294     9999                  Continuation records are not delimited.
      295    10000                  Limit of 80 bytes of command.
      296    10001                  Limit of 20 bytes of error message.
      297    10002              */
      298    10003    2         TELL_CONSOLES.MESS = SUBSTR(PTR$->P_PCB.TEXT$->STRING,0,PTR$->P_PCB.NCHARS);

  10003  3 000025   200005 471500                    LDP1    @PTR$,,AUTO
         3 000026   100000 473500                    LDP3    0,,PR1
         3 000027   300000 474500                    LDP4    0,,PR3
         3 000030   300011 720100                    LXL0    9,,PR3
         3 000031   040000 100540                    MLR     fill='040'O
         3 000032   400000 000010                    ADSC9   0,,PR4                   cn=0,n=*X0
         3 000033   000033 200120 1                  ADSC9   TELL_CONSOLES+7          cn=1,n=80

      299    10004
      300    10005    3        DO CASE (BITBIN(ERROR) );

  10005  3 000034   200004 473500                    LDP3    @ERROR,,AUTO
         3 000035   300000 235100                    LDA     0,,PR3
         3 000036   000011 135007                    SBLA    9,DL
         3 000037   000033 115007                    CMPA    27,DL
         3 000040   000042 602005 3                  TNC     s:10005+6,AL
         3 000041   000164 710000 3                  TRA     s:10079
         3 000042   000105 710000 3                  TRA     s:10017
         3 000043   000101 710000 3                  TRA     s:10013
         3 000044   000075 710000 3                  TRA     s:10009
         3 000045   000154 710000 3                  TRA     s:10053
PL6.E3A0      #002=IAE$CSCG_ERROR File=IAE$ERROR.:E05TSI                         TUE 07/29/97 22:26 Page:35
         3 000046   000154 710000 3                  TRA     s:10053
         3 000047   000154 710000 3                  TRA     s:10053
         3 000050   000154 710000 3                  TRA     s:10053
         3 000051   000154 710000 3                  TRA     s:10053
         3 000052   000154 710000 3                  TRA     s:10053
         3 000053   000154 710000 3                  TRA     s:10053
         3 000054   000154 710000 3                  TRA     s:10053
         3 000055   000154 710000 3                  TRA     s:10053
         3 000056   000154 710000 3                  TRA     s:10053
         3 000057   000154 710000 3                  TRA     s:10053
         3 000060   000154 710000 3                  TRA     s:10053
         3 000061   000154 710000 3                  TRA     s:10053
         3 000062   000154 710000 3                  TRA     s:10053
         3 000063   000111 710000 3                  TRA     s:10021
         3 000064   000115 710000 3                  TRA     s:10025
         3 000065   000121 710000 3                  TRA     s:10029
         3 000066   000125 710000 3                  TRA     s:10033
         3 000067   000131 710000 3                  TRA     s:10037
         3 000070   000135 710000 3                  TRA     s:10040
         3 000071   000141 710000 3                  TRA     s:10043
         3 000072   000141 710000 3                  TRA     s:10043
         3 000073   000151 710000 3                  TRA     s:10051
         3 000074   000145 710000 3                  TRA     s:10047

      301    10006
      302    10007    3          CASE (%E$IA_SYN_ERR#);

      303    10008
      304    10009    3             TELL_CONSOLES.FID = ERROR_MSG1;

  10009  3 000075   040000 100400                    MLR     fill='040'O
         3 000076   000065 000024 1                  ADSC9   ERROR_MSG1               cn=0,n=20
         3 000077   000057 200024 1                  ADSC9   TELL_CONSOLES+27         cn=1,n=20
         3 000100   000164 710000 3                  TRA     s:10079

      305    10010
      306    10011    3          CASE (%E$IA_TIME_ERR#);
PL6.E3A0      #002=IAE$CSCG_ERROR File=IAE$ERROR.:E05TSI                         TUE 07/29/97 22:26 Page:36

      307    10012
      308    10013    3             TELL_CONSOLES.FID = ERROR_MSG2;

  10013  3 000101   040000 100400                    MLR     fill='040'O
         3 000102   000072 000024 1                  ADSC9   ERROR_MSG2               cn=0,n=20
         3 000103   000057 200024 1                  ADSC9   TELL_CONSOLES+27         cn=1,n=20
         3 000104   000164 710000 3                  TRA     s:10079

      309    10014
      310    10015    3          CASE (%E$IA_DATE_ERR#);

      311    10016
      312    10017    3             TELL_CONSOLES.FID = ERROR_MSG3;

  10017  3 000105   040000 100400                    MLR     fill='040'O
         3 000106   000077 000024 1                  ADSC9   ERROR_MSG3               cn=0,n=20
         3 000107   000057 200024 1                  ADSC9   TELL_CONSOLES+27         cn=1,n=20
         3 000110   000164 710000 3                  TRA     s:10079

      313    10018
      314    10019    3          CASE (%E$IA_NO_MEM#);

      315    10020
      316    10021    3             TELL_CONSOLES.FID = ERROR_MSG4;

  10021  3 000111   040000 100400                    MLR     fill='040'O
         3 000112   000104 000024 1                  ADSC9   ERROR_MSG4               cn=0,n=20
         3 000113   000057 200024 1                  ADSC9   TELL_CONSOLES+27         cn=1,n=20
         3 000114   000164 710000 3                  TRA     s:10079

      317    10022
      318    10023    3          CASE (%E$IA_YEAR_ERR#);

      319    10024
      320    10025    3             TELL_CONSOLES.FID = ERROR_MSG5;

PL6.E3A0      #002=IAE$CSCG_ERROR File=IAE$ERROR.:E05TSI                         TUE 07/29/97 22:26 Page:37
  10025  3 000115   040000 100400                    MLR     fill='040'O
         3 000116   000111 000024 1                  ADSC9   ERROR_MSG5               cn=0,n=20
         3 000117   000057 200024 1                  ADSC9   TELL_CONSOLES+27         cn=1,n=20
         3 000120   000164 710000 3                  TRA     s:10079

      321    10026
      322    10027    3          CASE (%E$IA_MONTH_ERR#);

      323    10028
      324    10029    3             TELL_CONSOLES.FID = ERROR_MSG6;

  10029  3 000121   040000 100400                    MLR     fill='040'O
         3 000122   000116 000024 1                  ADSC9   ERROR_MSG6               cn=0,n=20
         3 000123   000057 200024 1                  ADSC9   TELL_CONSOLES+27         cn=1,n=20
         3 000124   000164 710000 3                  TRA     s:10079

      325    10030
      326    10031    3          CASE (%E$IA_DAY_ERR#);

      327    10032
      328    10033    3             TELL_CONSOLES.FID = ERROR_MSG7;

  10033  3 000125   040000 100400                    MLR     fill='040'O
         3 000126   000123 000024 1                  ADSC9   ERROR_MSG7               cn=0,n=20
         3 000127   000057 200024 1                  ADSC9   TELL_CONSOLES+27         cn=1,n=20
         3 000130   000164 710000 3                  TRA     s:10079

      329    10034
      330    10035    3          CASE (%E$IA_NO_WILD_ERR#);

      331    10036
      332    10037    3             TELL_CONSOLES.FID = ERROR_MSG8;

  10037  3 000131   040000 100400                    MLR     fill='040'O
         3 000132   000130 000024 1                  ADSC9   ERROR_MSG8               cn=0,n=20
         3 000133   000057 200024 1                  ADSC9   TELL_CONSOLES+27         cn=1,n=20
         3 000134   000164 710000 3                  TRA     s:10079
PL6.E3A0      #002=IAE$CSCG_ERROR File=IAE$ERROR.:E05TSI                         TUE 07/29/97 22:26 Page:38

      333    10038
      334    10039    3          CASE (%E$IA_DATE_RANGE_ERR#);

      335    10040    3             TELL_CONSOLES.FID = ERROR_MSG9;

  10040  3 000135   040000 100400                    MLR     fill='040'O
         3 000136   000135 000024 1                  ADSC9   ERROR_MSG9               cn=0,n=20
         3 000137   000057 200024 1                  ADSC9   TELL_CONSOLES+27         cn=1,n=20
         3 000140   000164 710000 3                  TRA     s:10079

      336    10041
      337    10042    3          CASE (%E$IA_BEFORE_RANGE_WARN#,%E$IA_AFTER_RANGE_WARN#);

      338    10043    3             TELL_CONSOLES.FID = ERROR_MSG12;

  10043  3 000141   040000 100400                    MLR     fill='040'O
         3 000142   000154 000024 1                  ADSC9   ERROR_MSG12              cn=0,n=20
         3 000143   000057 200024 1                  ADSC9   TELL_CONSOLES+27         cn=1,n=20
         3 000144   000164 710000 3                  TRA     s:10079

      339    10044
      340    10045    3          CASE (%E$IA_CMD_TOO_BIG_ERR#);

      341    10046
      342    10047    3             TELL_CONSOLES.FID = ERROR_MSG10;

  10047  3 000145   040000 100400                    MLR     fill='040'O
         3 000146   000142 000024 1                  ADSC9   ERROR_MSG10              cn=0,n=20
         3 000147   000057 200024 1                  ADSC9   TELL_CONSOLES+27         cn=1,n=20
         3 000150   000164 710000 3                  TRA     s:10079

      343    10048
      344    10049    3          CASE (%E$IA_TIME_RANGE_ERR#);

      345    10050
      346    10051    3             TELL_CONSOLES.FID = ERROR_MSG11;
PL6.E3A0      #002=IAE$CSCG_ERROR File=IAE$ERROR.:E05TSI                         TUE 07/29/97 22:26 Page:39

  10051  3 000151   040000 100400                    MLR     fill='040'O
         3 000152   000147 000024 1                  ADSC9   ERROR_MSG11              cn=0,n=20
         3 000153   000057 200024 1                  ADSC9   TELL_CONSOLES+27         cn=1,n=20

      347    10052
      348    10053    3         END;  /*  DO CASE ERROR  */

  10053  3 000154   000164 710000 3                  TRA     s:10079

      349    10054                                                /**/
      350    10055        /*O*      MESSAGE: GOOSE Error in line: command
      351    10056                  ACTION: Fix command in GOOSE_EGG file
      352    10057                  MEANING: GOOSE while parsing commands contained in
      353    10058                            the GOOSE_EGG file encountered an error in
      354    10059                            a command.
      355    10060                             */
      356    10061        /*O*      MESSAGE: GOOSE Warning in line: command
      357    10062                  ACTION: Check command in GOOSE_EGG file
      358    10063                  MEANING: GOOSE while parsing commands contained in
      359    10064                            the GOOSE_EGG file encountered a possible
      360    10065                            error in a command.
      361    10066                             */
      362    10067
      363    10068    2        CASE (%IA_KEY_START_ERR#);

      364    10069
      365    10070    2        TELL_CONSOLES.ERROR = ERROR;

  10070  3 000155   200004 471500                    LDP1    @ERROR,,AUTO
         3 000156   000000 100500                    MLR     fill='000'O
         3 000157   100000 000004                    ADSC9   0,,PR1                   cn=0,n=4
         3 000160   000032 200004 1                  ADSC9   TELL_CONSOLES+6          cn=1,n=4

      366    10071        /*O*      MESSAGE: GOOSE FCG-ERR-SEV could not start GJOB
      367    10072                  ACTION:
      368    10073                  MEANING: Goose could not start a ghost job because of an error.
PL6.E3A0      #002=IAE$CSCG_ERROR File=IAE$ERROR.:E05TSI                         TUE 07/29/97 22:26 Page:40
      369    10074                        */
      370    10075    2             CALL M$WRITE(TELL_CSCG) ;

  10075  3 000161   000000 630400 1                  EPPR0   TELL_CSCG
         3 000162   040001 713400                    CLIMB   write
         3 000163   401400 401760                    pmme    nvectors=4

      371    10076    2      END;   /*  DO CASE KEY  */

      372    10077
      373    10078
      374    10079    1   TELL_CONSOLES.KEY = KEY;

  10079  3 000164   200003 470500                    LDP0    @KEY,,AUTO
         3 000165   000000 236100                    LDQ     0,,PR0
         3 000166   000033 736000                    QLS     27
         3 000167   000032 552040 1                  STBQ    TELL_CONSOLES+6,'40'O

      375    10080    1   CALL M$WRITE (TELL_CSCG) ;

  10080  3 000170   000000 630400 1                  EPPR0   TELL_CSCG
         3 000171   040001 713400                    CLIMB   write
         3 000172   401400 401760                    pmme    nvectors=4

      376    10081    1   RETURN;

  10081  3 000173   000000 702200 xent               TSX2  ! X66_ARET
      377    10082
      378    10083    1   END  IAE$CSCG_ERROR;
      379    10084        %EOD;

PL6.E3A0      #002=IAE$CSCG_ERROR File=IAE$ERROR.:E05TSI                         TUE 07/29/97 22:26 Page:41
--  Include file information  --

   OC_SUBS_C.:E05TOU  is referenced.
   OC_MESSHD_C.:E05TOU  is referenced.
   IA_PERR_C.:E05TOU  is referenced.
   IA_SUBS_C.:E05TOU  is referenced.
   XU_MACRO_C.:E05TOU  is referenced.
   XUG_ENTRY.:E05TOU  cannot be made into a system file and is referenced.
   CP_6_C.:E05TOU  is referenced.
   CP_6.:E05TOU  cannot be made into a system file and is referenced.
      No diagnostics issued in procedure IAE$CSCG_ERROR.
PL6.E3A0      #002=IAE$CSCG_ERROR File=IAE$ERROR.:E05TSI                         TUE 07/29/97 22:26 Page:42

 **** Variables and constants ****

  ****  Section 001  Data  IAE$CSCG_ERROR

  ****  Scalars and arrays  ****
OctLoc.c.b A Datatyp(siz) R M Lvl/name                 OctLoc.c.b A Datatyp(siz) R M Lvl/name

    65-0-0/c CHAR(20)    r     1 ERROR_MSG1               142-0-0/c CHAR(20)    r     1 ERROR_MSG10
   147-0-0/c CHAR(20)    r     1 ERROR_MSG11              154-0-0/c CHAR(20)    r     1 ERROR_MSG12
    72-0-0/c CHAR(20)    r     1 ERROR_MSG2                77-0-0/c CHAR(20)    r     1 ERROR_MSG3
   104-0-0/c CHAR(20)    r     1 ERROR_MSG4               111-0-0/c CHAR(20)    r     1 ERROR_MSG5
   116-0-0/c CHAR(20)    r     1 ERROR_MSG6               123-0-0/c CHAR(20)    r     1 ERROR_MSG7
   130-0-0/c CHAR(20)    r     1 ERROR_MSG8               135-0-0/c CHAR(20)    r     1 ERROR_MSG9
    14-0-0/w STRC(288)   r     1 STA_KEYIN                 24-0-0/c STRC(1161)  r     1 TELL_CONSOLES
     0-0-0/d STRC(432)   r     1 TELL_CSCG

  ****  Auto variables  ****

  ****  Scalars and arrays  ****
OctLoc.c.b A Datatyp(siz) R M Lvl/name                 OctLoc.c.b A Datatyp(siz) R M Lvl/name

     4-0-0/w PTR         r     1 @ERROR                     3-0-0/w PTR         r     1 @KEY
     5-0-0/w PTR         r     1 @PTR$                     *0-0-0/w BIT         r     1 ERROR
    *0-0-0/w UBIN        r     1 KEY                       *0-0-0/w PTR         r     1 PTR$

  ****  BASED and DCB variables  ****

  ****  Scalars and arrays  ****
OctLoc.c.b A Datatyp(siz) R M Lvl/name                 OctLoc.c.b A Datatyp(siz) R M Lvl/name

     0-0-0N  NULL        r     1 M$CSCG                     0-0-0/w STRC(504)   r     1 P_PCB
     0-0-0/c CHAR(80)    r     1 STRING


   Procedure IAE$CSCG_ERROR requires 124 words for executable code.
   Procedure IAE$CSCG_ERROR requires 6 words of local(AUTO) storage.
PL6.E3A0      #002=IAE$CSCG_ERROR File=IAE$ERROR.:E05TSI                         TUE 07/29/97 22:26 Page:43
          *** CROSS REFERENCE LISTING ***
**     DENOTES     IDENTIFIER DEFINITION
<<                 IDENTIFIER'S VALUE SET
>>                 IDENTIFIER'S VALUE USED
<>                 IDENTIFIER SET AND/OR USED
--                 IDENTIFIER REFERENCED
PL6.E3A0      #002=IAE$CSCG_ERROR File=IAE$ERROR.:E05TSI                         TUE 07/29/97 22:26 Page:44
          MINI XREF LISTING

ERROR
        52**DCL        46--PROC     9984>>ASSIGN  10005>>DOCASE  10070>>ASSIGN
ERROR_MSG1
      9952**DCL     10009>>ASSIGN
ERROR_MSG10
      9961**DCL     10047>>ASSIGN
ERROR_MSG11
      9962**DCL     10051>>ASSIGN
ERROR_MSG12
      9963**DCL     10043>>ASSIGN
ERROR_MSG2
      9953**DCL     10013>>ASSIGN
ERROR_MSG3
      9954**DCL     10017>>ASSIGN
ERROR_MSG4
      9955**DCL     10021>>ASSIGN
ERROR_MSG5
      9956**DCL     10025>>ASSIGN
ERROR_MSG6
      9957**DCL     10029>>ASSIGN
ERROR_MSG7
      9958**DCL     10033>>ASSIGN
ERROR_MSG8
      9959**DCL     10037>>ASSIGN
ERROR_MSG9
      9960**DCL     10040>>ASSIGN
KEY
        51**DCL        46--PROC     9980>>DOCASE  10079>>ASSIGN
M$WRITE
      5546**DCL-ENT 10075--CALL    10080--CALL
PTR$
        53**DCL        46--PROC    10003>>ASSIGN  10003>>ASSIGN
PL6.E3A0      #002=IAE$CSCG_ERROR File=IAE$ERROR.:E05TSI                         TUE 07/29/97 22:26 Page:45
P_PCB.NCHARS
      9890**DCL     10003>>ASSIGN
P_PCB.TEXT$
      9744**DCL     10003>>ASSIGN
STA_KEYIN
      9704**DCL      9678--DCLINIT
STA_KEYIN.MSGIDXT
      9714**DCL      9717--REDEF
STRING
      9969**DCL     10003>>ASSIGN
TELL_CONSOLES
      9930**DCL      9677--DCLINIT  9678--DCLINIT
TELL_CONSOLES.ERROR
      9944**DCL      9984<<ASSIGN  10070<<ASSIGN
TELL_CONSOLES.FID
      9946**DCL     10009<<ASSIGN  10013<<ASSIGN  10017<<ASSIGN  10021<<ASSIGN  10025<<ASSIGN  10029<<ASSIGN
     10033<<ASSIGN  10037<<ASSIGN  10040<<ASSIGN  10043<<ASSIGN  10047<<ASSIGN  10051<<ASSIGN
TELL_CONSOLES.FLAGS
      9937**DCL      9938--REDEF
TELL_CONSOLES.KEY
      9943**DCL     10079<<ASSIGN
TELL_CONSOLES.MESS
      9945**DCL     10003<<ASSIGN
TELL_CONSOLES.MSGID
      9933**DCL      9934--REDEF
TELL_CSCG
      9676**DCL     10075<>CALL    10080<>CALL
TELL_CSCG.STATION_
      9678**DCL      9678--REDEF
TELL_CSCG.V
      9679**DCL      9676--DCLINIT
TELL_CSCG.V.DVBYTE.VFC#
      9685**DCL      9685--REDEF

PL6.E3A0      #003=IAE$ONLINE_ERROR File=IAE$ERROR.:E05TSI                       TUE 07/29/97 22:27 Page:46
      380        1        /*T***********************************************************/
      381        2        /*T*                                                         */
      382        3        /*T* Copyright (c) Bull HN Information Systems Inc., 1997    */
      383        4        /*T*                                                         */
      384        5        /*T***********************************************************/
      385        6        %EJECT;
PL6.E3A0      #003=IAE$ONLINE_ERROR File=IAE$ERROR.:E05TSI                       TUE 07/29/97 22:27 Page:47
      386        7        /*F*
      387        8             NAME: IAE$ONLINE_ERROR
      388        9             PURPOSE:
      389       10                  To report GOOSE diagnostics to online users of GOOSE.
      390       11             DESCRIPTION:
      391       12                  This routine is called when GOOSE is being run in an
      392       13                  online mode and an error is found.
      393       14        */
      394       15        /*D*
      395       16             NAME: IAE$ONLINE_ERROR
      396       17             CALL:
      397       18                  CALL IAE$ONLINE_ERROR (GOOSE_ERROR, SYSTEM_ERROR);
      398       19             PARAMETERS:
      399       20                  GOOSE_ERROR - the error number GOOSE assigns to an error
      400       21                                condition to be reported to the user.
      401       22                  SYSTEM_ERROR - the system error returned in the alt frame in
      402       23                                 the cases where it is a system found error
      403       24                                 condition that triggered this call to this
      404       25                                 routine.
      405       26             INTERFACE:
      406       27                  XUG$ERRMSG
      407       28             ENVIRONMENT:
      408       29                  None.
      409       30             INPUT:
      410       31                  None.
      411       32             OUTPUT:
      412       33                  None.
      413       34             SCRATCH:
      414       35                  None.
      415       36             DESCRIPTION:
      416       37                  This routine uses XUG$ERRMSG to report error messages to
      417       38                  online users of GOOSE.  It checks the two paramters for 0.
      418       39                  If the parameter is not 0 it moves the given error number
      419       40                  into the error message fpt and calls XUG$ERRMSG, otherwise
      420       41                  it ignores the parameter this go round.
      421       42        */
      422       43        IAE$ONLINE_ERROR: PROC (GOOSE_ERROR, SYSTEM_ERROR);
PL6.E3A0      #003=IAE$ONLINE_ERROR File=IAE$ERROR.:E05TSI                       TUE 07/29/97 22:27 Page:48
      423       44
      424       45        /*
      425       46           Parameters
      426       47        */
      427       48
      428       49    1   DCL GOOSE_ERROR   UBIN;
      429       50    1   DCL SYSTEM_ERROR  BIT(36) ALIGNED;
      430       51
      431       52        /*
      432       53           Includes
      433       54        */
      434       55
      435       56        %INCLUDE CP_6;
      436     5615        %INCLUDE XUG_ENTRY;
      437     5646        %INCLUDE XU_MACRO_C;
      438     8752
      439     8753        /*
      440     8754           Fpt's
      441     8755        */
      442     8756
      443     8757        %VLP_ERRCODE (FPTN=MYERROR,
      444     8758                       FCG='IA',
      445     8759                       MID='A',
      446     8760                       MON='0'B,
      447     8761                       SEV=0);
      448     8806
      449     8807        /*
      450     8808           Macro's
      451     8809        */
      452     8810
      453     8811        %XUG_GETCMD (NAME = GOOSE_ERRMSG,
      454     8812                     OUTDCB = M$DO);
      455     9150
      456     9151        %XUG_GETCMD (NAME = SYSTEM_ERRMSG,
      457     9152                     OUTDCB = M$DO);
      458     9490
      459     9491
PL6.E3A0      #003=IAE$ONLINE_ERROR File=IAE$ERROR.:E05TSI                       TUE 07/29/97 22:27 Page:49
      460     9492        /*
      461     9493           Static variables
      462     9494        */
      463     9495
      464     9496    1   DCL GOOSE_FLGLEVS (0:34)    STATIC UBIN
      465     9497    1       INIT (
      466     9498    1              0,         /* IA_SCHED_ON# */
      467     9499    1              0,         /* IA_SCHED_OFF# */
      468     9500    1              0,         /* IA_SCHED_MSG_ON# */
      469     9501    1              0,         /* IA_SCHED_MSG_OFF# */
      470     9502    1              0,         /* IA_SCHED_UPD# */
      471     9503    1              0,         /* IA_EGG_UPD# */
      472     9504    1              0,         /* IA_EDIT# */
      473     9505    1              0,         /* IA_GJOB_START# */
      474     9506    1              1,         /* IA_DATE_ERR# */
      475     9507    1              1,         /* IA_TIME_ERR# */
      476     9508    1              1,         /* IA_SYN_ERR# */
      477     9509    1              2,         /* IA_LINK_ERR# */
      478     9510    1              2,         /* IA_GJOB_ERR# */
      479     9511    1              2,         /* IA_EGG_OPEN_ERR# */
      480     9512    1              2,         /* IA_EGG_RD_ERR# */
      481     9513    1              2,         /* IA_EGG_WR_ERR# */
      482     9514    1              2,         /* IA_TEMP_OPEN_ERR# */
      483     9515    1              2,         /* IA_TEMP_RD_ERR# */
      484     9516    1              2,         /* IA_TEMP_WR_ERR# */
      485     9517    1              2,         /* IA_CSCG_OPEN_ERR# */
      486     9518    1              2,         /* IA_CSCG_RD_ERR# */
      487     9519    1              2,         /* IA_CSCG_WR_ERR# */
      488     9520    1              3,         /* IA_XUG_INIT_ERR# */
      489     9521    1              1,         /* IA_XUG_GETCMD_ERR# */
      490     9522    1              0,         /* IA_XUG_ERRMSG_ERR# */
      491     9523    1              1,         /* IA_NO_MEM# */
      492     9524    1              1,         /* IA_YEAR_ERR# */
      493     9525    1              1,         /* IA_MONTH_ERR# */
      494     9526    1              1,         /* IA_DAY_ERR# */
      495     9527    1              1,         /* IA_NO_WILD_ERR# */
      496     9528    1              1,         /* IA_DATE_RANGE_ERR# */
PL6.E3A0      #003=IAE$ONLINE_ERROR File=IAE$ERROR.:E05TSI                       TUE 07/29/97 22:27 Page:50
      497     9529    1              1,         /* IA_BEFORE_RANGE_WARN# */
      498     9530    1              1,         /* IA_AFTER_RANGE_WARN# */
      499     9531    1              1,         /* IA_TIME_RANGE_ERR#   */
      500     9532    1              1);        /* IA_CMD_TOO_BIG_ERR#   */
      501     9533
      502     9534        /*
      503     9535           Auto variables
      504     9536        */
      505     9537
      506     9538        /*
      507     9539           DCB's
      508     9540        */
      509     9541
      510     9542    1   DCL M$DO  DCB;
      511     9543    1   DCL M$ME  DCB;
      512     9544
      513     9545        /*
      514     9546           Begin main procedure of IAE$ONLINE_ERROR
      515     9547        */
      516     9548
      517     9549        /*E* ERROR: IAA-E$IA_SCHED_ON#-0
      518     9550             MESSAGE: Automatic scheduling has been turned on.
      519     9551              */
      520     9552        /*E* ERROR: IAA-E$IA_SCHED_OFF#-0
      521     9553             MESSAGE: Automatic scheduling has been turned off.
      522     9554              */
      523     9555        /*E* ERROR: IAA-E$IA_SCHED_MSG_ON#-0
      524     9556             MESSAGE: Automatic message reporting has been turned on.
      525     9557              */
      526     9558        /*E* ERROR: IAA-E$IA_SCHED_MSG_OFF#-0
      527     9559             MESSAGE: Automatic message reporting has been turned off.
      528     9560              */
      529     9561        /*E* ERROR: IAA-E$IA_SCHED_UPD#-0
      530     9562             MESSAGE: Automatic scheduling has been updated.
      531     9563              */
      532     9564        /*E* ERROR: IAA-E$IA_EGG_UPD#-0
      533     9565             MESSAGE: GOOSE_EGG has been updated.
PL6.E3A0      #003=IAE$ONLINE_ERROR File=IAE$ERROR.:E05TSI                       TUE 07/29/97 22:27 Page:51
      534     9566              */
      535     9567        /*E* ERROR: IAA-E$IA_EDIT#-0
      536     9568             MESSAGE: Do you wish to edit the file again?
      537     9569              */
      538     9570        /*E* ERROR: IAA-E$IA_GJOB_START#-0
      539     9571             MESSAGE: Started a ghost job.
      540     9572              */
      541     9573        /*E* ERROR: IAA-E$IA_DATE_ERR#-0
      542     9574            MESSAGE: Invalid date specified.
      543     9575              */
      544     9576        /*E* ERROR: IAA-E$IA_TIME_ERR#-0
      545     9577            MESSAGE: Invalid time specified.
      546     9578              */
      547     9579        /*E* ERROR: IAA-E$IA_SYN_ERR#-0
      548     9580             MESSAGE: Syntax errors in new GOOSE_EGG.
      549     9581              */
      550     9582        /*E* ERROR: IAA-E$IA_LINK_ERR#-0
      551     9583             MESSAGE: Error linking to EDIT.
      552     9584              */
      553     9585        /*E* ERROR: IAA-E$IA_GJOB_ERR#-0
      554     9586             MESSAGE: Could not start a ghost job.
      555     9587              */
      556     9588        /*E* ERROR: IAA-E$IA_EGG_OPEN_ERR#-0
      557     9589             MESSAGE: Cannot open GOOSE_EGG file.
      558     9590              */
      559     9591        /*E* ERROR: IAA-E$IA_EGG_RD_ERR#-0
      560     9592             MESSAGE: Error reading GOOSE_EGG.
      561     9593              */
      562     9594        /*E* ERROR: IAA-E$IA_EGG_WR_ERR#-0
      563     9595             MESSAGE: Error writing GOOSE_EGG.
      564     9596              */
      565     9597        /*E* ERROR: IAA-E$IA_TEMP_OPEN_ERR#-0
      566     9598             MESSAGE: Error opening temp file.
      567     9599              */
      568     9600        /*E* ERROR: IAA-E$IA_TEMP_RD_ERR#-0
      569     9601             MESSAGE: Error reading temp file.
      570     9602              */
PL6.E3A0      #003=IAE$ONLINE_ERROR File=IAE$ERROR.:E05TSI                       TUE 07/29/97 22:27 Page:52
      571     9603        /*E* ERROR: IAA-E$IA_TEMP_WR_ERR#-0
      572     9604             MESSAGE: Error writing temp file.
      573     9605              */
      574     9606        /*E* ERROR: IAA-E$IA_CSCG_OPEN_ERR#-0
      575     9607             MESSAGE: Cannot open CSCG.
      576     9608              */
      577     9609        /*E* ERROR: IAA-E$IA_CSCG_RD_ERR#-0
      578     9610             MESSAGE: Error reading CSCG.
      579     9611              */
      580     9612        /*E* ERROR: IAA-E$IA_CSCG_WR_ERR#-0
      581     9613             MESSAGE: Error writing to CSCG.
      582     9614              */
      583     9615        /*E* ERROR: IAA-E$IA_XUG_INIT_ERR#-0
      584     9616             MESSAGE: Cannot initialize XUG library services.
      585     9617              */
      586     9618        /*E* ERROR: IAA-E$IA_XUG_GETCMD_ERR#-0
      587     9619             MESSAGE: XUG_GETCMD altreturned.
      588     9620              */
      589     9621        /*E* ERROR: IAA-E$IA_XUG_ERRMSG_ERR#-0
      590     9622             MESSAGE: XUG_ERRMSG altreturned.
      591     9623              */
      592     9624        /*E* ERROR: IAA-E$IA_NO_MEM#-0
      593     9625             MESSAGE: Cannot get enough memory to add the current
      594     9626                      command to the automatic schedule table.
      595     9627              */
      596     9628        /*E* ERROR: IAA-E$IA_YEAR_ERR#-0
      597     9629             MESSAGE: Bad year specification.
      598     9630              */
      599     9631        /*E* ERROR: IAA-E$IA_MONTH_ERR#-0
      600     9632             MESSAGE: Bad month specification.
      601     9633              */
      602     9634        /*E* ERROR: IAA-E$IA_DAY_ERR#-0
      603     9635             MESSAGE: Bad day specification.
      604     9636              */
      605     9637        /*E* ERROR: IAA-E$IA_NO_WILD_ERR#-0
      606     9638             MESSAGE: You cannot wildcard a date range specification.
      607     9639              */
PL6.E3A0      #003=IAE$ONLINE_ERROR File=IAE$ERROR.:E05TSI                       TUE 07/29/97 22:27 Page:53
      608     9640        /*E* ERROR: IAA-E$IA_DATE_RANGE_ERR#-0
      609     9641             MESSAGE: Invalid date range specification.
      610     9642              */
      611     9643        /*E* ERROR: IAA-E$IA_BEFORE_RANGE_WARN#-0
      612     9644             MESSAGE: The current date is before the range specified.
      613     9645              */
      614     9646        /*E* ERROR: IAA-E$IA_AFTER_RANGE_WARN#-0
      615     9647             MESSAGE: The current date is after the range specified.
      616     9648              */
      617     9649        /*E* ERROR:  IAA-E$IA_TIME_RANGE_ERR#-0
      618     9650             MESSAGE0: Invalid time range specification.
      619     9651             MESSAGE1:  You cannot specify an UNTIL time that is less than the
      620     9652                        FROM time.
      621     9653              */
      622     9654        /*E* ERROR:  IAA-E$IA_CMD_TOO_BIG_ERR#-0
      623     9655             MESSAGE0: CMD is larger than 256 characters or KEYIN larger than
      624     9656                       80 characters.
      625     9657             MESSAGE1:  You cannot specify a CMD larger than 256 characters,
      626     9658                        or a KEYIN larger than 80 characters.
      627     9659              */
      628     9660
      629     9661    1   IF GOOSE_ERROR ~= 0
      630     9662    2   THEN DO;
      631     9663    2      GOOSE_ERRMSG.ERR_CODE = MYERROR;
      632     9664    2      GOOSE_ERRMSG.ERR_CODE.CODE# = GOOSE_ERROR;
      633     9665    2      GOOSE_ERRMSG.FLGLEV# = GOOSE_FLGLEVS ( GOOSE_ERROR );
      634     9666    2      CALL XUG$ERRMSG (GOOSE_ERRMSG);
      635     9667    2   END;  /*   IF GOOSE_ERROR  */
      636     9668
      637     9669    1   IF BITBIN(SYSTEM_ERROR) ~= 0
      638     9670    2   THEN DO;
      639     9671    2      SYSTEM_ERRMSG.ERR_CODE = SYSTEM_ERROR;
      640     9672    2      CALL XUG$ERRMSG (SYSTEM_ERRMSG);
      641     9673    2   END;  /*  IF SYSTEM_ERROR  */
      642     9674
      643     9675    1   END  IAE$ONLINE_ERROR;

PL6.E3A0      #003=IAE$ONLINE_ERROR File=IAE$ERROR.:E05TSI                       TUE 07/29/97 22:27 Page:54
--  Include file information  --

   XU_MACRO_C.:E05TOU  is referenced.
   XUG_ENTRY.:E05TOU  cannot be made into a system file and is referenced.
   CP_6_C.:E05TOU  is referenced.
   CP_6.:E05TOU  cannot be made into a system file and is referenced.
      No diagnostics issued in procedure IAE$ONLINE_ERROR.

   Procedure IAE$ONLINE_ERROR requires 30 words for executable code.
   Procedure IAE$ONLINE_ERROR requires 6 words of local(AUTO) storage.

    No errors detected in file IAE$ERROR.:E05TSI    .

PL6.E3A0      #003=IAE$ONLINE_ERROR File=IAE$ERROR.:E05TSI                       TUE 07/29/97 22:27 Page:55

 Object Unit name= IAE$ONLINE_ERROR                           File name= IAE$ERROR.:E05TOU
 UTS= JUL 29 '97 22:27:48.20 TUE                              Compiler= PL-6/E31         Sev=      00
 SharedLib= :SHARED_SYSTEM                                    Alt SharedLib=


    ****  Control sections  ****

 Sect   Type Bound  Init  Size OctSiz  Section name(segment info)
    0   DCB   even  none     0      0  M$UC
    1   Data  even  none   121    171  IAE$ONLINE_ERROR
    2   DCB   even  none     0      0  M$DO
    3   DCB   even  none     0      0  M$ME
    4   Proc  even  none    30     36  IAE$ONLINE_ERROR
    5  RoData even  none     2      2  IAE$ONLINE_ERROR

    ****  Entry defs  ****

                              Check   Calling
                             calling  sequence
  Sect OctLoc Primary Altret sequence   type   Parms  Name
     4      0   yes            yes      Std        2  IAE$ONLINE_ERROR

  ****  Entry refs  ****

         Check        Calling
        calling       sequence
Altret sequence SRef   type   Args  Name
 yes     yes           Std       1 XUG$ERRMSG
                       nStd      0 X66_AUTO_2
                       Std       0 B_CONSPOOL_D
                       nStd      0 X66_ARET
PL6.E3A0      #003=IAE$ONLINE_ERROR File=IAE$ERROR.:E05TSI                       TUE 07/29/97 22:27 Page:56

  ****  Data refs  ****

  Flags:  r = read only, s = secondary
Flgs Name                             Flgs Name                             Flgs Name
     M$UC                                  M$DO                                  M$ME
     B_VECTNIL

  ****  Segment refs  ****

  Flags:  r = read only, s = secondary
Flgs Name                             Flgs Name                             Flgs Name
     NULLSID                               ISSID
PL6.E3A0      #003=IAE$ONLINE_ERROR File=IAE$ERROR.:E05TSI                       TUE 07/29/97 22:27 Page:57


      380        1        /*T***********************************************************/
      381        2        /*T*                                                         */
      382        3        /*T* Copyright (c) Bull HN Information Systems Inc., 1997    */
      383        4        /*T*                                                         */
      384        5        /*T***********************************************************/
      385        6        %EJECT;
PL6.E3A0      #003=IAE$ONLINE_ERROR File=IAE$ERROR.:E05TSI                       TUE 07/29/97 22:27 Page:58
      386        7        /*F*
      387        8             NAME: IAE$ONLINE_ERROR
      388        9             PURPOSE:
      389       10                  To report GOOSE diagnostics to online users of GOOSE.
      390       11             DESCRIPTION:
      391       12                  This routine is called when GOOSE is being run in an
      392       13                  online mode and an error is found.
      393       14        */
      394       15        /*D*
      395       16             NAME: IAE$ONLINE_ERROR
      396       17             CALL:
      397       18                  CALL IAE$ONLINE_ERROR (GOOSE_ERROR, SYSTEM_ERROR);
      398       19             PARAMETERS:
      399       20                  GOOSE_ERROR - the error number GOOSE assigns to an error
      400       21                                condition to be reported to the user.
      401       22                  SYSTEM_ERROR - the system error returned in the alt frame in
      402       23                                 the cases where it is a system found error
      403       24                                 condition that triggered this call to this
      404       25                                 routine.
      405       26             INTERFACE:
      406       27                  XUG$ERRMSG
      407       28             ENVIRONMENT:
      408       29                  None.
      409       30             INPUT:
      410       31                  None.
      411       32             OUTPUT:
      412       33                  None.
      413       34             SCRATCH:
      414       35                  None.
      415       36             DESCRIPTION:
      416       37                  This routine uses XUG$ERRMSG to report error messages to
      417       38                  online users of GOOSE.  It checks the two paramters for 0.
      418       39                  If the parameter is not 0 it moves the given error number
      419       40                  into the error message fpt and calls XUG$ERRMSG, otherwise
      420       41                  it ignores the parameter this go round.
      421       42        */
      422       43        IAE$ONLINE_ERROR: PROC (GOOSE_ERROR, SYSTEM_ERROR);
PL6.E3A0      #003=IAE$ONLINE_ERROR File=IAE$ERROR.:E05TSI                       TUE 07/29/97 22:27 Page:59

     43  4 000000   000000 700200 xent  IAE$ONLINE_* TSX0  ! X66_AUTO_2
         4 000001   000006 000002                    ZERO    6,2

      423       44
      424       45        /*
      425       46           Parameters
      426       47        */
      427       48
      428       49    1   DCL GOOSE_ERROR   UBIN;
      429       50    1   DCL SYSTEM_ERROR  BIT(36) ALIGNED;
      430       51
      431       52        /*
      432       53           Includes
      433       54        */
      434       55
      435       56        %INCLUDE CP_6;
      436     5615        %INCLUDE XUG_ENTRY;
      437     5646        %INCLUDE XU_MACRO_C;
      438     8752
      439     8753        /*
      440     8754           Fpt's
      441     8755        */
      442     8756
      443     8757        %VLP_ERRCODE (FPTN=MYERROR,
      444     8758                       FCG='IA',
      445     8759                       MID='A',
      446     8760                       MON='0'B,
      447     8761                       SEV=0);
      448     8806
      449     8807        /*
      450     8808           Macro's
      451     8809        */
      452     8810
      453     8811        %XUG_GETCMD (NAME = GOOSE_ERRMSG,
      454     8812                     OUTDCB = M$DO);
      455     9150
PL6.E3A0      #003=IAE$ONLINE_ERROR File=IAE$ERROR.:E05TSI                       TUE 07/29/97 22:27 Page:60
      456     9151        %XUG_GETCMD (NAME = SYSTEM_ERRMSG,
      457     9152                     OUTDCB = M$DO);
      458     9490
      459     9491
      460     9492        /*
      461     9493           Static variables
      462     9494        */
      463     9495
      464     9496    1   DCL GOOSE_FLGLEVS (0:34)    STATIC UBIN
      465     9497    1       INIT (
      466     9498    1              0,         /* IA_SCHED_ON# */
      467     9499    1              0,         /* IA_SCHED_OFF# */
      468     9500    1              0,         /* IA_SCHED_MSG_ON# */
      469     9501    1              0,         /* IA_SCHED_MSG_OFF# */
      470     9502    1              0,         /* IA_SCHED_UPD# */
      471     9503    1              0,         /* IA_EGG_UPD# */
      472     9504    1              0,         /* IA_EDIT# */
      473     9505    1              0,         /* IA_GJOB_START# */
      474     9506    1              1,         /* IA_DATE_ERR# */
      475     9507    1              1,         /* IA_TIME_ERR# */
      476     9508    1              1,         /* IA_SYN_ERR# */
      477     9509    1              2,         /* IA_LINK_ERR# */
      478     9510    1              2,         /* IA_GJOB_ERR# */
      479     9511    1              2,         /* IA_EGG_OPEN_ERR# */
      480     9512    1              2,         /* IA_EGG_RD_ERR# */
      481     9513    1              2,         /* IA_EGG_WR_ERR# */
      482     9514    1              2,         /* IA_TEMP_OPEN_ERR# */
      483     9515    1              2,         /* IA_TEMP_RD_ERR# */
      484     9516    1              2,         /* IA_TEMP_WR_ERR# */
      485     9517    1              2,         /* IA_CSCG_OPEN_ERR# */
      486     9518    1              2,         /* IA_CSCG_RD_ERR# */
      487     9519    1              2,         /* IA_CSCG_WR_ERR# */
      488     9520    1              3,         /* IA_XUG_INIT_ERR# */
      489     9521    1              1,         /* IA_XUG_GETCMD_ERR# */
      490     9522    1              0,         /* IA_XUG_ERRMSG_ERR# */
      491     9523    1              1,         /* IA_NO_MEM# */
      492     9524    1              1,         /* IA_YEAR_ERR# */
PL6.E3A0      #003=IAE$ONLINE_ERROR File=IAE$ERROR.:E05TSI                       TUE 07/29/97 22:27 Page:61
      493     9525    1              1,         /* IA_MONTH_ERR# */
      494     9526    1              1,         /* IA_DAY_ERR# */
      495     9527    1              1,         /* IA_NO_WILD_ERR# */
      496     9528    1              1,         /* IA_DATE_RANGE_ERR# */
      497     9529    1              1,         /* IA_BEFORE_RANGE_WARN# */
      498     9530    1              1,         /* IA_AFTER_RANGE_WARN# */
      499     9531    1              1,         /* IA_TIME_RANGE_ERR#   */
      500     9532    1              1);        /* IA_CMD_TOO_BIG_ERR#   */
      501     9533
      502     9534        /*
      503     9535           Auto variables
      504     9536        */
      505     9537
      506     9538        /*
      507     9539           DCB's
      508     9540        */
      509     9541
      510     9542    1   DCL M$DO  DCB;
      511     9543    1   DCL M$ME  DCB;
      512     9544
      513     9545        /*
      514     9546           Begin main procedure of IAE$ONLINE_ERROR
      515     9547        */
      516     9548
      517     9549        /*E* ERROR: IAA-E$IA_SCHED_ON#-0
      518     9550             MESSAGE: Automatic scheduling has been turned on.
      519     9551              */
      520     9552        /*E* ERROR: IAA-E$IA_SCHED_OFF#-0
      521     9553             MESSAGE: Automatic scheduling has been turned off.
      522     9554              */
      523     9555        /*E* ERROR: IAA-E$IA_SCHED_MSG_ON#-0
      524     9556             MESSAGE: Automatic message reporting has been turned on.
      525     9557              */
      526     9558        /*E* ERROR: IAA-E$IA_SCHED_MSG_OFF#-0
      527     9559             MESSAGE: Automatic message reporting has been turned off.
      528     9560              */
      529     9561        /*E* ERROR: IAA-E$IA_SCHED_UPD#-0
PL6.E3A0      #003=IAE$ONLINE_ERROR File=IAE$ERROR.:E05TSI                       TUE 07/29/97 22:27 Page:62
      530     9562             MESSAGE: Automatic scheduling has been updated.
      531     9563              */
      532     9564        /*E* ERROR: IAA-E$IA_EGG_UPD#-0
      533     9565             MESSAGE: GOOSE_EGG has been updated.
      534     9566              */
      535     9567        /*E* ERROR: IAA-E$IA_EDIT#-0
      536     9568             MESSAGE: Do you wish to edit the file again?
      537     9569              */
      538     9570        /*E* ERROR: IAA-E$IA_GJOB_START#-0
      539     9571             MESSAGE: Started a ghost job.
      540     9572              */
      541     9573        /*E* ERROR: IAA-E$IA_DATE_ERR#-0
      542     9574            MESSAGE: Invalid date specified.
      543     9575              */
      544     9576        /*E* ERROR: IAA-E$IA_TIME_ERR#-0
      545     9577            MESSAGE: Invalid time specified.
      546     9578              */
      547     9579        /*E* ERROR: IAA-E$IA_SYN_ERR#-0
      548     9580             MESSAGE: Syntax errors in new GOOSE_EGG.
      549     9581              */
      550     9582        /*E* ERROR: IAA-E$IA_LINK_ERR#-0
      551     9583             MESSAGE: Error linking to EDIT.
      552     9584              */
      553     9585        /*E* ERROR: IAA-E$IA_GJOB_ERR#-0
      554     9586             MESSAGE: Could not start a ghost job.
      555     9587              */
      556     9588        /*E* ERROR: IAA-E$IA_EGG_OPEN_ERR#-0
      557     9589             MESSAGE: Cannot open GOOSE_EGG file.
      558     9590              */
      559     9591        /*E* ERROR: IAA-E$IA_EGG_RD_ERR#-0
      560     9592             MESSAGE: Error reading GOOSE_EGG.
      561     9593              */
      562     9594        /*E* ERROR: IAA-E$IA_EGG_WR_ERR#-0
      563     9595             MESSAGE: Error writing GOOSE_EGG.
      564     9596              */
      565     9597        /*E* ERROR: IAA-E$IA_TEMP_OPEN_ERR#-0
      566     9598             MESSAGE: Error opening temp file.
PL6.E3A0      #003=IAE$ONLINE_ERROR File=IAE$ERROR.:E05TSI                       TUE 07/29/97 22:27 Page:63
      567     9599              */
      568     9600        /*E* ERROR: IAA-E$IA_TEMP_RD_ERR#-0
      569     9601             MESSAGE: Error reading temp file.
      570     9602              */
      571     9603        /*E* ERROR: IAA-E$IA_TEMP_WR_ERR#-0
      572     9604             MESSAGE: Error writing temp file.
      573     9605              */
      574     9606        /*E* ERROR: IAA-E$IA_CSCG_OPEN_ERR#-0
      575     9607             MESSAGE: Cannot open CSCG.
      576     9608              */
      577     9609        /*E* ERROR: IAA-E$IA_CSCG_RD_ERR#-0
      578     9610             MESSAGE: Error reading CSCG.
      579     9611              */
      580     9612        /*E* ERROR: IAA-E$IA_CSCG_WR_ERR#-0
      581     9613             MESSAGE: Error writing to CSCG.
      582     9614              */
      583     9615        /*E* ERROR: IAA-E$IA_XUG_INIT_ERR#-0
      584     9616             MESSAGE: Cannot initialize XUG library services.
      585     9617              */
      586     9618        /*E* ERROR: IAA-E$IA_XUG_GETCMD_ERR#-0
      587     9619             MESSAGE: XUG_GETCMD altreturned.
      588     9620              */
      589     9621        /*E* ERROR: IAA-E$IA_XUG_ERRMSG_ERR#-0
      590     9622             MESSAGE: XUG_ERRMSG altreturned.
      591     9623              */
      592     9624        /*E* ERROR: IAA-E$IA_NO_MEM#-0
      593     9625             MESSAGE: Cannot get enough memory to add the current
      594     9626                      command to the automatic schedule table.
      595     9627              */
      596     9628        /*E* ERROR: IAA-E$IA_YEAR_ERR#-0
      597     9629             MESSAGE: Bad year specification.
      598     9630              */
      599     9631        /*E* ERROR: IAA-E$IA_MONTH_ERR#-0
      600     9632             MESSAGE: Bad month specification.
      601     9633              */
      602     9634        /*E* ERROR: IAA-E$IA_DAY_ERR#-0
      603     9635             MESSAGE: Bad day specification.
PL6.E3A0      #003=IAE$ONLINE_ERROR File=IAE$ERROR.:E05TSI                       TUE 07/29/97 22:27 Page:64
      604     9636              */
      605     9637        /*E* ERROR: IAA-E$IA_NO_WILD_ERR#-0
      606     9638             MESSAGE: You cannot wildcard a date range specification.
      607     9639              */
      608     9640        /*E* ERROR: IAA-E$IA_DATE_RANGE_ERR#-0
      609     9641             MESSAGE: Invalid date range specification.
      610     9642              */
      611     9643        /*E* ERROR: IAA-E$IA_BEFORE_RANGE_WARN#-0
      612     9644             MESSAGE: The current date is before the range specified.
      613     9645              */
      614     9646        /*E* ERROR: IAA-E$IA_AFTER_RANGE_WARN#-0
      615     9647             MESSAGE: The current date is after the range specified.
      616     9648              */
      617     9649        /*E* ERROR:  IAA-E$IA_TIME_RANGE_ERR#-0
      618     9650             MESSAGE0: Invalid time range specification.
      619     9651             MESSAGE1:  You cannot specify an UNTIL time that is less than the
      620     9652                        FROM time.
      621     9653              */
      622     9654        /*E* ERROR:  IAA-E$IA_CMD_TOO_BIG_ERR#-0
      623     9655             MESSAGE0: CMD is larger than 256 characters or KEYIN larger than
      624     9656                       80 characters.
      625     9657             MESSAGE1:  You cannot specify a CMD larger than 256 characters,
      626     9658                        or a KEYIN larger than 80 characters.
      627     9659              */
      628     9660
      629     9661    1   IF GOOSE_ERROR ~= 0

   9661  4 000002   200003 470500                    LDP0    @GOOSE_ERROR,,AUTO
         4 000003   000000 235100                    LDA     0,,PR0
         4 000004   000024 600000 4                  TZE     s:9669

      630     9662    2   THEN DO;

      631     9663    2      GOOSE_ERRMSG.ERR_CODE = MYERROR;

   9663  4 000005   000000 236000 1                  LDQ     MYERROR
         4 000006   000012 756000 1                  STQ     GOOSE_ERRMSG+8
PL6.E3A0      #003=IAE$ONLINE_ERROR File=IAE$ERROR.:E05TSI                       TUE 07/29/97 22:27 Page:65

      632     9664    2      GOOSE_ERRMSG.ERR_CODE.CODE# = GOOSE_ERROR;

   9664  4 000007   000000 236100                    LDQ     0,,PR0
         4 000010   000003 736000                    QLS     3
         4 000011   000012 676000 1                  ERQ     GOOSE_ERRMSG+8
         4 000012   377770 376007                    ANQ     131064,DL
         4 000013   000012 656000 1                  ERSQ    GOOSE_ERRMSG+8

      633     9665    2      GOOSE_ERRMSG.FLGLEV# = GOOSE_FLGLEVS ( GOOSE_ERROR );

   9665  4 000014   000000 720100                    LXL0    0,,PR0
         4 000015   000126 236010 1                  LDQ     GOOSE_FLGLEVS,X0
         4 000016   000022 736000                    QLS     18
         4 000017   000010 552020 1                  STBQ    GOOSE_ERRMSG+6,'20'O

      634     9666    2      CALL XUG$ERRMSG (GOOSE_ERRMSG);

   9666  4 000020   000000 630400 5                  EPPR0   0
         4 000021   000017 631400 xsym               EPPR1   B_VECTNIL+15
         4 000022   000000 701000 xent               TSX1    XUG$ERRMSG
         4 000023   000000 011000                    NOP     0

      635     9667    2   END;  /*   IF GOOSE_ERROR  */

      636     9668
      637     9669    1   IF BITBIN(SYSTEM_ERROR) ~= 0

   9669  4 000024   200004 470500                    LDP0    @SYSTEM_ERROR,,AUTO
         4 000025   000000 235100                    LDA     0,,PR0
         4 000026   000035 600000 4                  TZE     s:9675

      638     9670    2   THEN DO;

      639     9671    2      SYSTEM_ERRMSG.ERR_CODE = SYSTEM_ERROR;

   9671  4 000027   000000 236100                    LDQ     0,,PR0
PL6.E3A0      #003=IAE$ONLINE_ERROR File=IAE$ERROR.:E05TSI                       TUE 07/29/97 22:27 Page:66
         4 000030   000064 756000 1                  STQ     SYSTEM_ERRMSG+8

      640     9672    2      CALL XUG$ERRMSG (SYSTEM_ERRMSG);

   9672  4 000031   000001 630400 5                  EPPR0   1
         4 000032   000017 631400 xsym               EPPR1   B_VECTNIL+15
         4 000033   000000 701000 xent               TSX1    XUG$ERRMSG
         4 000034   000000 011000                    NOP     0

      641     9673    2   END;  /*  IF SYSTEM_ERROR  */

      642     9674
      643     9675    1   END  IAE$ONLINE_ERROR;

   9675  4 000035   000000 702200 xent               TSX2  ! X66_ARET

PL6.E3A0      #003=IAE$ONLINE_ERROR File=IAE$ERROR.:E05TSI                       TUE 07/29/97 22:27 Page:67
--  Include file information  --

   XU_MACRO_C.:E05TOU  is referenced.
   XUG_ENTRY.:E05TOU  cannot be made into a system file and is referenced.
   CP_6_C.:E05TOU  is referenced.
   CP_6.:E05TOU  cannot be made into a system file and is referenced.
      No diagnostics issued in procedure IAE$ONLINE_ERROR.
PL6.E3A0      #003=IAE$ONLINE_ERROR File=IAE$ERROR.:E05TSI                       TUE 07/29/97 22:27 Page:68

 **** Variables and constants ****

  ****  Section 001  Data  IAE$ONLINE_ERROR

  ****  Scalars and arrays  ****
OctLoc.c.b A Datatyp(siz) R M Lvl/name                 OctLoc.c.b A Datatyp(siz) R M Lvl/name

     2-0-0/d STRC(1512)  r     1 GOOSE_ERRMSG
   126-0-0/w UBIN        r     1 GOOSE_FLGLEVS(0:34)
     0-0-0/w STRC        r     1 MYERROR                   54-0-0/d STRC(1512)  r     1 SYSTEM_ERRMSG

  ****  Auto variables  ****

  ****  Scalars and arrays  ****
OctLoc.c.b A Datatyp(siz) R M Lvl/name                 OctLoc.c.b A Datatyp(siz) R M Lvl/name

     3-0-0/w PTR         r     1 @GOOSE_ERROR               4-0-0/w PTR         r     1 @SYSTEM_ERROR
    *0-0-0/w UBIN        r     1 GOOSE_ERROR               *0-0-0/w BIT         r     1 SYSTEM_ERROR

  ****  BASED and DCB variables  ****

  ****  Scalars and arrays  ****
OctLoc.c.b A Datatyp(siz) R M Lvl/name                 OctLoc.c.b A Datatyp(siz) R M Lvl/name

     0-0-0N  NULL        r     1 M$DO


   Procedure IAE$ONLINE_ERROR requires 30 words for executable code.
   Procedure IAE$ONLINE_ERROR requires 6 words of local(AUTO) storage.

    No errors detected in file IAE$ERROR.:E05TSI    .
PL6.E3A0      #003=IAE$ONLINE_ERROR File=IAE$ERROR.:E05TSI                       TUE 07/29/97 22:27 Page:69
          *** CROSS REFERENCE LISTING ***
**     DENOTES     IDENTIFIER DEFINITION
<<                 IDENTIFIER'S VALUE SET
>>                 IDENTIFIER'S VALUE USED
<>                 IDENTIFIER SET AND/OR USED
--                 IDENTIFIER REFERENCED
PL6.E3A0      #003=IAE$ONLINE_ERROR File=IAE$ERROR.:E05TSI                       TUE 07/29/97 22:27 Page:70
          MINI XREF LISTING

GOOSE_ERRMSG
      8825**DCL      9666<>CALL
GOOSE_ERRMSG.ERR_CODE
      8973**DCL      9663<<ASSIGN
GOOSE_ERRMSG.ERR_CODE.CODE#
      8976**DCL      9664<<ASSIGN
GOOSE_ERRMSG.FLGLEV#
      8930**DCL      9665<<ASSIGN
GOOSE_ERRMSG.OUT$
      8830**DCL      8836--REDEF
GOOSE_ERROR
        49**DCL        43--PROC     9661>>IF       9664>>ASSIGN   9665>>ASSIGN
GOOSE_FLGLEVS
      9496**DCL      9665>>ASSIGN
MYERROR
      8773**DCL      9663>>ASSIGN
SYSTEM_ERRMSG
      9165**DCL      9672<>CALL
SYSTEM_ERRMSG.ERR_CODE
      9313**DCL      9671<<ASSIGN
SYSTEM_ERRMSG.OUT$
      9170**DCL      9176--REDEF
SYSTEM_ERROR
        50**DCL        43--PROC     9669>>IF       9671>>ASSIGN
XUG$ERRMSG
      5629**DCL-ENT  9666--CALL     9672--CALL
