VERSION E05

PL6.E3A0      #001=IAM$MISC File=IAM$MISC.:E05TSI                                TUE 07/29/97 22:27 Page:1
        1        1        /*T***********************************************************/
        2        2        /*T*                                                         */
        3        3        /*T* Copyright (c) Bull HN Information Systems Inc., 1997    */
        4        4        /*T*                                                         */
        5        5        /*T***********************************************************/
        6        6        IAM$MISC: PROC;
        7        7
        8        8        %INCLUDE IA_DAT_R;
        9       26
       10       27    1   IAM$LEAP: ENTRY;
       11       28
       12       29    1        LEAP = '0'B;
       13       30
       14       31    1        IF MOD (TEMP_YEARS, 400) = 0
       15       32    1        THEN
       16       33    2          DO;
       17       34    2             LEAP = '1'B;
       18       35    2             END;
       19       36    1        ELSE
       20       37    2          DO;
       21       38    2             IF MOD (TEMP_YEARS, 100) = 0
       22       39    2             THEN
       23       40    3               DO;
       24       41    3                  LEAP = '0'B;
       25       42    3                  END;
       26       43    2             ELSE
       27       44    3               DO;
       28       45    3                  IF MOD (TEMP_YEARS, 4) = 0
       29       46    3                  THEN
       30       47    3                       LEAP = '1'B;
       31       48    3                  ELSE
       32       49    3                       LEAP = '0'B;
       33       50    3                  END;
       34       51    2             END;
       35       52    1        RETURN;
       36       53        %EJECT;
PL6.E3A0      #001=IAM$MISC File=IAM$MISC.:E05TSI                                TUE 07/29/97 22:27 Page:2
       37       54
       38       55    1   IAM$CYCLE: ENTRY;
       39       56
       40       57    1        JULIAN = JUL_TABLE (TEMP_MONTHS - 1) + TEMP_DAYS;
       41       58    1        IF TEMP_MONTHS > 2 AND LEAP = '1'B
       42       59    1        THEN
       43       60    2          DO;
       44       61    2             JULIAN = JULIAN + 1;
       45       62    2             END;
       46       63    1        IF TEMP_YEARS > 399
       47       64    1        THEN
       48       65    2          DO;
       49       66    2             YEAR_OF_CYCLE = MOD (TEMP_YEARS, 400);
       50       67    2             END;
       51       68    1        ELSE
       52       69    2          DO;
       53       70    2             YEAR_OF_CYCLE = TEMP_YEARS;
       54       71    2             END;
       55       72
       56       73    1        IF YEAR_OF_CYCLE ~= 0
       57       74    1        THEN
       58       75    2          DO;
       59       76    2             IF YEAR_OF_CYCLE > 4
       60       77    2             THEN
       61       78    3               DO;
       62       79    3                  NUM_LEAPS = (YEAR_OF_CYCLE / 4) + 1;
       63       80    3                  CENTURY_ADJUSTMENT = BITBIN (YEAR_OF_CYCLE >= 100)
       64       81    3                       + BITBIN (YEAR_OF_CYCLE >= 200)
       65       82    3                       + BITBIN (YEAR_OF_CYCLE >= 300)
       66       83    3                       + BITBIN (LEAP = '1'B);
       67       84    3                  NUM_LEAPS = NUM_LEAPS - CENTURY_ADJUSTMENT;
       68       85    3                  END;
       69       86    2             ELSE
       70       87    3               DO;
       71       88    3                  NUM_LEAPS = 1;
       72       89    3                  END;
       73       90    2             NON_LEAPS = YEAR_OF_CYCLE - NUM_LEAPS;
PL6.E3A0      #001=IAM$MISC File=IAM$MISC.:E05TSI                                TUE 07/29/97 22:27 Page:3
       74       91    2             LEAP_DAYS = NUM_LEAPS * 366;
       75       92    2             NON_LEAP_DAYS = NON_LEAPS * 365;
       76       93    2             TOTAL_DAYS = NON_LEAP_DAYS + LEAP_DAYS + JULIAN;
       77       94    2             DAY_OF_WEEK = MOD (TOTAL_DAYS, 7) + FIRST_DAY - 1;
       78       95    2             END;
       79       96    1        ELSE
       80       97    2          DO;
       81       98    2             TOTAL_DAYS = JULIAN;
       82       99    2             IF JULIAN > 6
       83      100    2             THEN
       84      101    2                  DAY_OF_WEEK = MOD (JULIAN, 7) + FIRST_DAY - 1;
       85      102    2             ELSE
       86      103    2                  DAY_OF_WEEK = JULIAN + FIRST_DAY - 1;
       87      104    2             END;
       88      105
       89      106    1             IF DAY_OF_WEEK <= 0
       90      107    1             THEN
       91      108    1                  DAY_OF_WEEK = DAY_OF_WEEK + 7;
       92      109    1             IF DAY_OF_WEEK > 7
       93      110    1             THEN
       94      111    1                  DAY_OF_WEEK = MOD (DAY_OF_WEEK, 7);
       95      112
       96      113    1             DAYNAME = DAY_TABLE (DAY_OF_WEEK - 1);
       97      114    1             MONTHNAME = MON_TABLE (TEMP_MONTHS - 1);
       98      115
       99      116    1             J_MONDAY_OF_WEEK = JULIAN - (DAY_OF_WEEK - 1);
      100      117    1             WEEK_OF_YEAR = (J_MONDAY_OF_WEEK - 1) / 7
      101      118    1                                 + BITBIN (J_MONDAY_OF_WEEK > 0);
      102      119
      103      120    1             MONDAY_OF_WEEK = TEMP_DAYS - (DAY_OF_WEEK - 1);
      104      121    1             WEEK_OF_MONTH = (MONDAY_OF_WEEK - 1) / 7
      105      122    1                                 + BITBIN (MONDAY_OF_WEEK > 0);
      106      123    1             RETURN;
      107      124    1   END IAM$MISC;

PL6.E3A0      #001=IAM$MISC File=IAM$MISC.:E05TSI                                TUE 07/29/97 22:27 Page:4
--  Include file information  --

   IA_DAT_R.:E05TOU  cannot be made into a system file and is referenced.
      No diagnostics issued in procedure IAM$MISC.

   Procedure IAM$MISC requires 177 words for executable code.
   Procedure IAM$MISC requires 8 words of local(AUTO) storage.

    No errors detected in file IAM$MISC.:E05TSI    .

PL6.E3A0      #001=IAM$MISC File=IAM$MISC.:E05TSI                                TUE 07/29/97 22:27 Page:5

 Object Unit name= IAM$MISC                                   File name= IAM$MISC.:E05TOU
 UTS= JUL 29 '97 22:27:38.52 TUE                              Compiler= PL-6/E31         Sev=      00
 SharedLib= :SHARED_SYSTEM                                    Alt SharedLib=


    ****  Control sections  ****

 Sect   Type Bound  Init  Size OctSiz  Section name(segment info)
    0   Proc  even  none   177    261  IAM$MISC

    ****  Entry defs  ****

                              Check   Calling
                             calling  sequence
  Sect OctLoc Primary Altret sequence   type   Parms  Name
     0      0   yes            yes      Std        0  IAM$MISC
     0      3                  yes      Std        0  IAM$LEAP
     0     37                  yes      Std        0  IAM$CYCLE

  ****  Entry refs  ****

         Check        Calling
        calling       sequence
Altret sequence SRef   type   Args  Name
                       nStd      0 X66_AUTO_0
                       nStd      0 X66_ARET
PL6.E3A0      #001=IAM$MISC File=IAM$MISC.:E05TSI                                TUE 07/29/97 22:27 Page:6

  ****  Data refs  ****

  Flags:  r = read only, s = secondary
Flgs Name                             Flgs Name                             Flgs Name
     DAYNAME                               MONTHNAME                             DAY_TABLE
     MON_TABLE                             JUL_TABLE                             MESS_BUF
     TEMP_DAYS                             TEMP_MONTHS                           TEMP_YEARS
     JULIAN                                LEAP_DAYS                             NON_LEAP_DAYS
     NUM_LEAPS                             NON_LEAPS                             YEAR_OF_CYCLE
     CENTURY_ADJUSTMENT                    TOTAL_DAYS                            DAY_OF_WEEK
     MONDAY_OF_WEEK                        J_MONDAY_OF_WEEK                      WEEK_OF_MONTH
     WEEK_OF_YEAR                          FIRST_DAY                             LEAP
PL6.E3A0      #001=IAM$MISC File=IAM$MISC.:E05TSI                                TUE 07/29/97 22:27 Page:7


        1        1        /*T***********************************************************/
        2        2        /*T*                                                         */
        3        3        /*T* Copyright (c) Bull HN Information Systems Inc., 1997    */
        4        4        /*T*                                                         */
        5        5        /*T***********************************************************/
        6        6        IAM$MISC: PROC;

      6  0 000000   000000 700200 xent  IAM$MISC     TSX0  ! X66_AUTO_0
         0 000001   000010 000000                    ZERO    8,0
         0 000002   000005 710000 0                  TRA     s:29

        7        7
        8        8        %INCLUDE IA_DAT_R;
        9       26
       10       27    1   IAM$LEAP: ENTRY;

     27  0 000003   000000 700200 xent  IAM$LEAP     TSX0  ! X66_AUTO_0
         0 000004   000010 000000                    ZERO    8,0

       11       28
       12       29    1        LEAP = '0'B;

     29  0 000005   000000 450000 xsym               STZ     LEAP

       13       30
       14       31    1        IF MOD (TEMP_YEARS, 400) = 0

     31  0 000006   000000 236000 xsym               LDQ     TEMP_YEARS
         0 000007   000620 506007                    DIV     400,DL
         0 000010   000044 733000                    LRS     36
         0 000011   000000 116003                    CMPQ    0,DU
         0 000012   000016 601000 0                  TNZ     s:38

       15       32    1        THEN
       16       33    2          DO;

PL6.E3A0      #001=IAM$MISC File=IAM$MISC.:E05TSI                                TUE 07/29/97 22:27 Page:8
       17       34    2             LEAP = '1'B;

     34  0 000013   400000 236003                    LDQ     -131072,DU
         0 000014   000000 756000 xsym               STQ     LEAP

       18       35    2             END;

     35  0 000015   000036 710000 0                  TRA     s:52

       19       36    1        ELSE
       20       37    2          DO;

       21       38    2             IF MOD (TEMP_YEARS, 100) = 0

     38  0 000016   000000 236000 xsym               LDQ     TEMP_YEARS
         0 000017   000144 506007                    DIV     100,DL
         0 000020   000044 733000                    LRS     36
         0 000021   000000 116003                    CMPQ    0,DU
         0 000022   000025 601000 0                  TNZ     s:45

       22       39    2             THEN
       23       40    3               DO;

       24       41    3                  LEAP = '0'B;

     41  0 000023   000000 450000 xsym               STZ     LEAP

       25       42    3                  END;

     42  0 000024   000036 710000 0                  TRA     s:52

       26       43    2             ELSE
       27       44    3               DO;

       28       45    3                  IF MOD (TEMP_YEARS, 4) = 0

     45  0 000025   000000 236000 xsym               LDQ     TEMP_YEARS
PL6.E3A0      #001=IAM$MISC File=IAM$MISC.:E05TSI                                TUE 07/29/97 22:27 Page:9
         0 000026   000004 506007                    DIV     4,DL
         0 000027   000044 733000                    LRS     36
         0 000030   000000 116003                    CMPQ    0,DU
         0 000031   000035 601000 0                  TNZ     s:49

       29       46    3                  THEN
       30       47    3                       LEAP = '1'B;

     47  0 000032   400000 236003                    LDQ     -131072,DU
         0 000033   000000 756000 xsym               STQ     LEAP
         0 000034   000036 710000 0                  TRA     s:52

       31       48    3                  ELSE
       32       49    3                       LEAP = '0'B;

     49  0 000035   000000 450000 xsym               STZ     LEAP

       33       50    3                  END;

       34       51    2             END;

       35       52    1        RETURN;

     52  0 000036   000000 702200 xent               TSX2  ! X66_ARET

       36       53        %EJECT;
PL6.E3A0      #001=IAM$MISC File=IAM$MISC.:E05TSI                                TUE 07/29/97 22:27 Page:10
       37       54
       38       55    1   IAM$CYCLE: ENTRY;

     55  0 000037   000000 700200 xent  IAM$CYCLE    TSX0  ! X66_AUTO_0
         0 000040   000010 000000                    ZERO    8,0

       39       56
       40       57    1        JULIAN = JUL_TABLE (TEMP_MONTHS - 1) + TEMP_DAYS;

     57  0 000041   000000 720000 xsym               LXL0    TEMP_MONTHS
         0 000042   777777 236010 xsym               LDQ     JUL_TABLE-1,X0
         0 000043   000000 036000 xsym               ADLQ    TEMP_DAYS
         0 000044   000000 756000 xsym               STQ     JULIAN

       41       58    1        IF TEMP_MONTHS > 2 AND LEAP = '1'B

     58  0 000045   000000 235000 xsym               LDA     TEMP_MONTHS
         0 000046   000002 115007                    CMPA    2,DL
         0 000047   000053 604400 0                  TMOZ    s:63
         0 000050   000000 234000 xsym               SZN     LEAP
         0 000051   000053 605000 0                  TPL     s:63

       42       59    1        THEN
       43       60    2          DO;

       44       61    2             JULIAN = JULIAN + 1;

     61  0 000052   000000 054000 xsym               AOS     JULIAN

       45       62    2             END;

       46       63    1        IF TEMP_YEARS > 399

     63  0 000053   000000 236000 xsym               LDQ     TEMP_YEARS
         0 000054   000617 116007                    CMPQ    399,DL
         0 000055   000061 604400 0                  TMOZ    s:70

PL6.E3A0      #001=IAM$MISC File=IAM$MISC.:E05TSI                                TUE 07/29/97 22:27 Page:11
       47       64    1        THEN
       48       65    2          DO;

       49       66    2             YEAR_OF_CYCLE = MOD (TEMP_YEARS, 400);

     66  0 000056   000620 506007                    DIV     400,DL
         0 000057   000000 755000 xsym               STA     YEAR_OF_CYCLE

       50       67    2             END;

     67  0 000060   000062 710000 0                  TRA     s:73

       51       68    1        ELSE
       52       69    2          DO;

       53       70    2             YEAR_OF_CYCLE = TEMP_YEARS;

     70  0 000061   000000 756000 xsym               STQ     YEAR_OF_CYCLE

       54       71    2             END;

       55       72
       56       73    1        IF YEAR_OF_CYCLE ~= 0

     73  0 000062   000000 235000 xsym               LDA     YEAR_OF_CYCLE
         0 000063   000162 600000 0                  TZE     s:98

       57       74    1        THEN
       58       75    2          DO;

       59       76    2             IF YEAR_OF_CYCLE > 4

     76  0 000064   000004 115007                    CMPA    4,DL
         0 000065   000136 604400 0                  TMOZ    s:88

       60       77    2             THEN
       61       78    3               DO;
PL6.E3A0      #001=IAM$MISC File=IAM$MISC.:E05TSI                                TUE 07/29/97 22:27 Page:12

       62       79    3                  NUM_LEAPS = (YEAR_OF_CYCLE / 4) + 1;

     79  0 000066   000000 236000 xsym               LDQ     YEAR_OF_CYCLE
         0 000067   000004 506007                    DIV     4,DL
         0 000070   000001 036007                    ADLQ    1,DL
         0 000071   000000 756000 xsym               STQ     NUM_LEAPS

       63       80    3                  CENTURY_ADJUSTMENT = BITBIN (YEAR_OF_CYCLE >= 100)

     80  0 000072   400000 221003                    LDX1    -131072,DU
         0 000073   000000 235000 xsym               LDA     YEAR_OF_CYCLE
         0 000074   000144 115007                    CMPA    100,DL
         0 000075   000077 605000 0                  TPL     s:80+5
         0 000076   000000 221003                    LDX1    0,DU
         0 000077   000000 636011                    EAQ     0,X1
         0 000100   000043 772000                    QRL     35
         0 000101   400000 221003                    LDX1    -131072,DU
         0 000102   000310 115007                    CMPA    200,DL
         0 000103   000105 605000 0                  TPL     s:80+11
         0 000104   000000 221003                    LDX1    0,DU
         0 000105   200004 756100                    STQ     4,,AUTO
         0 000106   000000 636011                    EAQ     0,X1
         0 000107   000043 772000                    QRL     35
         0 000110   200004 036100                    ADLQ    4,,AUTO
         0 000111   400000 221003                    LDX1    -131072,DU
         0 000112   000454 115007                    CMPA    300,DL
         0 000113   000115 605000 0                  TPL     s:80+19
         0 000114   000000 221003                    LDX1    0,DU
         0 000115   200005 756100                    STQ     5,,AUTO
         0 000116   000000 636011                    EAQ     0,X1
         0 000117   000043 772000                    QRL     35
         0 000120   200005 036100                    ADLQ    5,,AUTO
         0 000121   400000 221003                    LDX1    -131072,DU
         0 000122   000000 234000 xsym               SZN     LEAP
         0 000123   000125 604000 0                  TMI     s:80+27
         0 000124   000000 221003                    LDX1    0,DU
PL6.E3A0      #001=IAM$MISC File=IAM$MISC.:E05TSI                                TUE 07/29/97 22:27 Page:13
         0 000125   200006 756100                    STQ     6,,AUTO
         0 000126   000000 636011                    EAQ     0,X1
         0 000127   000043 772000                    QRL     35
         0 000130   200006 036100                    ADLQ    6,,AUTO
         0 000131   000000 756000 xsym               STQ     CENTURY_ADJUSTMENT

       64       81    3                       + BITBIN (YEAR_OF_CYCLE >= 200)
       65       82    3                       + BITBIN (YEAR_OF_CYCLE >= 300)
       66       83    3                       + BITBIN (LEAP = '1'B);
       67       84    3                  NUM_LEAPS = NUM_LEAPS - CENTURY_ADJUSTMENT;

     84  0 000132   000000 236000 xsym               LDQ     NUM_LEAPS
         0 000133   000000 136000 xsym               SBLQ    CENTURY_ADJUSTMENT
         0 000134   000000 756000 xsym               STQ     NUM_LEAPS

       68       85    3                  END;

     85  0 000135   000140 710000 0                  TRA     s:90

       69       86    2             ELSE
       70       87    3               DO;

       71       88    3                  NUM_LEAPS = 1;

     88  0 000136   000001 236007                    LDQ     1,DL
         0 000137   000000 756000 xsym               STQ     NUM_LEAPS

       72       89    3                  END;

       73       90    2             NON_LEAPS = YEAR_OF_CYCLE - NUM_LEAPS;

     90  0 000140   000000 236000 xsym               LDQ     YEAR_OF_CYCLE
         0 000141   000000 136000 xsym               SBLQ    NUM_LEAPS
         0 000142   000000 756000 xsym               STQ     NON_LEAPS

       74       91    2             LEAP_DAYS = NUM_LEAPS * 366;

PL6.E3A0      #001=IAM$MISC File=IAM$MISC.:E05TSI                                TUE 07/29/97 22:27 Page:14
     91  0 000143   000000 236000 xsym               LDQ     NUM_LEAPS
         0 000144   000556 402007                    MPY     366,DL
         0 000145   000000 756000 xsym               STQ     LEAP_DAYS

       75       92    2             NON_LEAP_DAYS = NON_LEAPS * 365;

     92  0 000146   000000 236000 xsym               LDQ     NON_LEAPS
         0 000147   000555 402007                    MPY     365,DL
         0 000150   000000 756000 xsym               STQ     NON_LEAP_DAYS

       76       93    2             TOTAL_DAYS = NON_LEAP_DAYS + LEAP_DAYS + JULIAN;

     93  0 000151   000000 036000 xsym               ADLQ    LEAP_DAYS
         0 000152   000000 036000 xsym               ADLQ    JULIAN
         0 000153   000000 756000 xsym               STQ     TOTAL_DAYS

       77       94    2             DAY_OF_WEEK = MOD (TOTAL_DAYS, 7) + FIRST_DAY - 1;

     94  0 000154   000007 506007                    DIV     7,DL
         0 000155   000044 733000                    LRS     36
         0 000156   000000 036000 xsym               ADLQ    FIRST_DAY
         0 000157   000001 136007                    SBLQ    1,DL
         0 000160   000000 756000 xsym               STQ     DAY_OF_WEEK

       78       95    2             END;

     95  0 000161   000177 710000 0                  TRA     s:106

       79       96    1        ELSE
       80       97    2          DO;

       81       98    2             TOTAL_DAYS = JULIAN;

     98  0 000162   000000 236000 xsym               LDQ     JULIAN
         0 000163   000000 756000 xsym               STQ     TOTAL_DAYS

       82       99    2             IF JULIAN > 6
PL6.E3A0      #001=IAM$MISC File=IAM$MISC.:E05TSI                                TUE 07/29/97 22:27 Page:15

     99  0 000164   000006 116007                    CMPQ    6,DL
         0 000165   000174 604400 0                  TMOZ    s:103

       83      100    2             THEN
       84      101    2                  DAY_OF_WEEK = MOD (JULIAN, 7) + FIRST_DAY - 1;

    101  0 000166   000007 506007                    DIV     7,DL
         0 000167   000044 733000                    LRS     36
         0 000170   000000 036000 xsym               ADLQ    FIRST_DAY
         0 000171   000001 136007                    SBLQ    1,DL
         0 000172   000000 756000 xsym               STQ     DAY_OF_WEEK
         0 000173   000177 710000 0                  TRA     s:106

       85      102    2             ELSE
       86      103    2                  DAY_OF_WEEK = JULIAN + FIRST_DAY - 1;

    103  0 000174   000000 036000 xsym               ADLQ    FIRST_DAY
         0 000175   000001 136007                    SBLQ    1,DL
         0 000176   000000 756000 xsym               STQ     DAY_OF_WEEK

       87      104    2             END;

       88      105
       89      106    1             IF DAY_OF_WEEK <= 0

    106  0 000177   000202 605400 0                  TPNZ    s:109

       90      107    1             THEN
       91      108    1                  DAY_OF_WEEK = DAY_OF_WEEK + 7;

    108  0 000200   000007 236007                    LDQ     7,DL
         0 000201   000000 056000 xsym               ASQ     DAY_OF_WEEK

       92      109    1             IF DAY_OF_WEEK > 7

    109  0 000202   000000 235000 xsym               LDA     DAY_OF_WEEK
PL6.E3A0      #001=IAM$MISC File=IAM$MISC.:E05TSI                                TUE 07/29/97 22:27 Page:16
         0 000203   000007 115007                    CMPA    7,DL
         0 000204   000210 604400 0                  TMOZ    s:113

       93      110    1             THEN
       94      111    1                  DAY_OF_WEEK = MOD (DAY_OF_WEEK, 7);

    111  0 000205   000000 236000 xsym               LDQ     DAY_OF_WEEK
         0 000206   000007 506007                    DIV     7,DL
         0 000207   000000 755000 xsym               STA     DAY_OF_WEEK

       95      112
       96      113    1             DAYNAME = DAY_TABLE (DAY_OF_WEEK - 1);

    113  0 000210   000000 236000 xsym               LDQ     DAY_OF_WEEK
         0 000211   000011 402007                    MPY     9,DL
         0 000212   040000 100406                    MLR     fill='040'O
         0 000213   777775 600011 xsym               ADSC9   DAY_TABLE-3,Q            cn=3,n=9
         0 000214   000000 000011 xsym               ADSC9   DAYNAME                  cn=0,n=9

       97      114    1             MONTHNAME = MON_TABLE (TEMP_MONTHS - 1);

    114  0 000215   000000 236000 xsym               LDQ     TEMP_MONTHS
         0 000216   000011 402007                    MPY     9,DL
         0 000217   040000 100406                    MLR     fill='040'O
         0 000220   777775 600011 xsym               ADSC9   MON_TABLE-3,Q            cn=3,n=9
         0 000221   000000 000011 xsym               ADSC9   MONTHNAME                cn=0,n=9

       98      115
       99      116    1             J_MONDAY_OF_WEEK = JULIAN - (DAY_OF_WEEK - 1);

    116  0 000222   000000 236000 xsym               LDQ     JULIAN
         0 000223   000000 136000 xsym               SBLQ    DAY_OF_WEEK
         0 000224   000001 036007                    ADLQ    1,DL
         0 000225   000000 756000 xsym               STQ     J_MONDAY_OF_WEEK

      100      117    1             WEEK_OF_YEAR = (J_MONDAY_OF_WEEK - 1) / 7

PL6.E3A0      #001=IAM$MISC File=IAM$MISC.:E05TSI                                TUE 07/29/97 22:27 Page:17
    117  0 000226   000001 136007                    SBLQ    1,DL
         0 000227   000007 506007                    DIV     7,DL
         0 000230   400000 221003                    LDX1    -131072,DU
         0 000231   000000 235000 xsym               LDA     J_MONDAY_OF_WEEK
         0 000232   000234 605400 0                  TPNZ    s:117+6
         0 000233   000000 221003                    LDX1    0,DU
         0 000234   200004 756100                    STQ     4,,AUTO
         0 000235   000000 636011                    EAQ     0,X1
         0 000236   000043 772000                    QRL     35
         0 000237   200004 036100                    ADLQ    4,,AUTO
         0 000240   000000 756000 xsym               STQ     WEEK_OF_YEAR

      101      118    1                                 + BITBIN (J_MONDAY_OF_WEEK > 0);
      102      119
      103      120    1             MONDAY_OF_WEEK = TEMP_DAYS - (DAY_OF_WEEK - 1);

    120  0 000241   000000 236000 xsym               LDQ     TEMP_DAYS
         0 000242   000000 136000 xsym               SBLQ    DAY_OF_WEEK
         0 000243   000001 036007                    ADLQ    1,DL
         0 000244   000000 756000 xsym               STQ     MONDAY_OF_WEEK

      104      121    1             WEEK_OF_MONTH = (MONDAY_OF_WEEK - 1) / 7

    121  0 000245   000001 136007                    SBLQ    1,DL
         0 000246   000007 506007                    DIV     7,DL
         0 000247   400000 221003                    LDX1    -131072,DU
         0 000250   000000 235000 xsym               LDA     MONDAY_OF_WEEK
         0 000251   000253 605400 0                  TPNZ    s:121+6
         0 000252   000000 221003                    LDX1    0,DU
         0 000253   200004 756100                    STQ     4,,AUTO
         0 000254   000000 636011                    EAQ     0,X1
         0 000255   000043 772000                    QRL     35
         0 000256   200004 036100                    ADLQ    4,,AUTO
         0 000257   000000 756000 xsym               STQ     WEEK_OF_MONTH

      105      122    1                                 + BITBIN (MONDAY_OF_WEEK > 0);
      106      123    1             RETURN;
PL6.E3A0      #001=IAM$MISC File=IAM$MISC.:E05TSI                                TUE 07/29/97 22:27 Page:18

    123  0 000260   000000 702200 xent               TSX2  ! X66_ARET
      107      124    1   END IAM$MISC;

PL6.E3A0      #001=IAM$MISC File=IAM$MISC.:E05TSI                                TUE 07/29/97 22:27 Page:19
--  Include file information  --

   IA_DAT_R.:E05TOU  cannot be made into a system file and is referenced.
      No diagnostics issued in procedure IAM$MISC.
PL6.E3A0      #001=IAM$MISC File=IAM$MISC.:E05TSI                                TUE 07/29/97 22:27 Page:20

 **** Variables and constants ****

  ****  SYMREF variables  ****

  ****  Scalars and arrays  ****
OctLoc.c.b A Datatyp(siz) R M Lvl/name                 OctLoc.c.b A Datatyp(siz) R M Lvl/name

     0-0-0/w SBIN        r     1 CENTURY_ADJUSTMENT         0-0-0/c CHAR(9)     r     1 DAYNAME
     0-0-0/w SBIN        r     1 DAY_OF_WEEK
     0-0-0/c CHAR(9)     r     1 DAY_TABLE(0:6)
     0-0-0/w UBIN        r     1 FIRST_DAY                  0-0-0/w SBIN        r     1 JULIAN
     0-0-0/w SBIN        r     1 JUL_TABLE(0:12)
     0-0-0/w SBIN        r     1 J_MONDAY_OF_WEEK           0-0-0/w BIT         r     1 LEAP
     0-0-0/w UBIN        r     1 LEAP_DAYS                  0-0-0/w SBIN        r     1 MONDAY_OF_WEEK
     0-0-0/c CHAR(9)     r     1 MONTHNAME
     0-0-0/c CHAR(9)     r     1 MON_TABLE(0:11)
     0-0-0/w UBIN        r     1 NON_LEAPS                  0-0-0/w UBIN        r     1 NON_LEAP_DAYS
     0-0-0/w UBIN        r     1 NUM_LEAPS                  0-0-0/w SBIN        r     1 TEMP_DAYS
     0-0-0/w SBIN        r     1 TEMP_MONTHS                0-0-0/w SBIN        r     1 TEMP_YEARS
     0-0-0/w SBIN        r     1 TOTAL_DAYS                 0-0-0/w UBIN        r     1 WEEK_OF_MONTH
     0-0-0/w UBIN        r     1 WEEK_OF_YEAR               0-0-0/w SBIN        r     1 YEAR_OF_CYCLE


   Procedure IAM$MISC requires 177 words for executable code.
   Procedure IAM$MISC requires 8 words of local(AUTO) storage.

    No errors detected in file IAM$MISC.:E05TSI    .
PL6.E3A0      #001=IAM$MISC File=IAM$MISC.:E05TSI                                TUE 07/29/97 22:27 Page:21
          *** CROSS REFERENCE LISTING ***
**     DENOTES     IDENTIFIER DEFINITION
<<                 IDENTIFIER'S VALUE SET
>>                 IDENTIFIER'S VALUE USED
<>                 IDENTIFIER SET AND/OR USED
--                 IDENTIFIER REFERENCED
PL6.E3A0      #001=IAM$MISC File=IAM$MISC.:E05TSI                                TUE 07/29/97 22:27 Page:22
          MINI XREF LISTING

CENTURY_ADJUSTMENT
        22**DCL        80<<ASSIGN     84>>ASSIGN
DAYNAME
        16**DCL       113<<ASSIGN
DAY_OF_WEEK
        23**DCL        94<<ASSIGN    101<<ASSIGN    103<<ASSIGN    106>>IF        108<<ASSIGN    108>>ASSIGN
       109>>IF        111<<ASSIGN    111>>ASSIGN    113>>ASSIGN    116>>ASSIGN    120>>ASSIGN
DAY_TABLE
        16**DCL       113>>ASSIGN
FIRST_DAY
        24**DCL        94>>ASSIGN    101>>ASSIGN    103>>ASSIGN
JULIAN
        19**DCL        57<<ASSIGN     61<<ASSIGN     61>>ASSIGN     93>>ASSIGN     98>>ASSIGN     99>>IF
       101>>ASSIGN    103>>ASSIGN    116>>ASSIGN
JUL_TABLE
        17**DCL        57>>ASSIGN
J_MONDAY_OF_WEEK
        23**DCL       116<<ASSIGN    117>>ASSIGN    117>>ASSIGN
LEAP
        24**DCL        29<<ASSIGN     34<<ASSIGN     41<<ASSIGN     47<<ASSIGN     49<<ASSIGN     58>>IF
        80>>ASSIGN
LEAP_DAYS
        20**DCL        91<<ASSIGN     93>>ASSIGN
MESS_BUF
        17**DCL        17--REDEF
MONDAY_OF_WEEK
        23**DCL       120<<ASSIGN    121>>ASSIGN    121>>ASSIGN
MONTHNAME
        16**DCL       114<<ASSIGN
MON_TABLE
        16**DCL       114>>ASSIGN
NON_LEAPS
PL6.E3A0      #001=IAM$MISC File=IAM$MISC.:E05TSI                                TUE 07/29/97 22:27 Page:23
        20**DCL        90<<ASSIGN     92>>ASSIGN
NON_LEAP_DAYS
        20**DCL        92<<ASSIGN     93>>ASSIGN
NUM_LEAPS
        20**DCL        79<<ASSIGN     84<<ASSIGN     84>>ASSIGN     88<<ASSIGN     90>>ASSIGN     91>>ASSIGN
TEMP_DAYS
        18**DCL        57>>ASSIGN    120>>ASSIGN
TEMP_MONTHS
        18**DCL        57>>ASSIGN     58>>IF        114>>ASSIGN
TEMP_YEARS
        19**DCL        31>>IF         38>>IF         45>>IF         63>>IF         66>>ASSIGN     70>>ASSIGN
TOTAL_DAYS
        22**DCL        93<<ASSIGN     94>>ASSIGN     98<<ASSIGN
WEEK_OF_MONTH
        24**DCL       121<<ASSIGN
WEEK_OF_YEAR
        24**DCL       117<<ASSIGN
YEAR_OF_CYCLE
        21**DCL        66<<ASSIGN     70<<ASSIGN     73>>IF         76>>IF         79>>ASSIGN     80>>ASSIGN
        80>>ASSIGN     80>>ASSIGN     90>>ASSIGN
