VERSION E05

PL6.E3A0      #001=IA_DAT_D File=IA_DAT_D.:E05TSI                                TUE 07/29/97 22:28 Page:1
        1        1        /*M* IA_DAT_D SYMDEFs for global data available to all GOOSE modules */
        2        2        /*T***********************************************************/
        3        3        /*T*                                                         */
        4        4        /*T* Copyright (c) Bull HN Information Systems Inc., 1997    */
        5        5        /*T*                                                         */
        6        6        /*T***********************************************************/
        7        7        /*X* DMR,PLM=5,IND=5,CTI=5,SDI=5,MCL=10,CSI=0,ECI=0 */
        8        8
        9        9        IA_DAT_D: PROC NOAUTO;
       10       10
       11       11                                           /*
       12       12                                              Textual Data
       13       13                                                          */
       14       14
       15       15    1   DCL DAYNAME CHAR(9) CALIGNED STATIC SYMDEF INIT (' ');
       16       16    1   DCL MONTHNAME CHAR(9) CALIGNED STATIC SYMDEF INIT (' ');
       17       17
       18       18    1   DCL DAY_TABLE (0:6) CHAR(9) STATIC SYMDEF INIT ('Monday   ',
       19       19    1                                                   'Tuesday  ',
       20       20    1                                                   'Wednesday',
       21       21    1                                                   'Thursday ',
       22       22    1                                                   'Friday   ',
       23       23    1                                                   'Saturday ',
       24       24    1                                                   'Sunday   ');
       25       25
       26       26    1   DCL MON_TABLE (0:11) CHAR(9) STATIC SYMDEF INIT ('January  ',
       27       27    1                                                    'February ',
       28       28    1                                                    'March    ',
       29       29    1                                                    'April    ',
       30       30    1                                                    'May      ',
       31       31    1                                                    'June     ',
       32       32    1                                                    'July     ',
       33       33    1                                                    'August   ',
       34       34    1                                                    'September',
       35       35    1                                                    'October  ',
       36       36    1                                                    'November ',
       37       37    1                                                    'December ');
PL6.E3A0      #001=IA_DAT_D File=IA_DAT_D.:E05TSI                                TUE 07/29/97 22:28 Page:2
       38       38
       39       39    1   DCL JUL_TABLE (0:12) SBIN WORD STATIC SYMDEF INIT (0,31,59,90,120,
       40       40    1                                                      151,181,212,243,
       41       41    1                                                      273,304,334,365);
       42       42
       43       43    1   DCL MESS_BUF CHAR(256) CALIGNED STATIC SYMDEF INIT (' ');
       44       44    1   DCL MESS_BUFC (0:255) REDEF MESS_BUF CHAR(1);
       45       45
       46       46                                           /*
       47       47                                              Binary Data
       48       48                                                          */
       49       49
       50       50    1   DCL TIME_DIFF UBIN WORD ALIGNED STATIC SYMDEF INIT (0);
       51       51    1   DCL TEMP_SEC SBIN WORD ALIGNED STATIC SYMDEF INIT (0);
       52       52    1   DCL TEMP_DAYS SBIN WORD ALIGNED STATIC SYMDEF INIT (0);
       53       53    1   DCL TEMP_MONTHS SBIN WORD ALIGNED STATIC SYMDEF INIT (0);
       54       54    1   DCL TEMP_YEARS SBIN WORD ALIGNED STATIC SYMDEF INIT (0);
       55       55    1   DCL TEMP_JUL SBIN WORD ALIGNED STATIC SYMDEF INIT (0);
       56       56    1   DCL JULIAN SBIN WORD ALIGNED STATIC SYMDEF INIT (0);
       57       57    1   DCL LEAP_DAYS UBIN WORD ALIGNED STATIC SYMDEF INIT (0);
       58       58    1   DCL NON_LEAP_DAYS UBIN WORD ALIGNED STATIC SYMDEF INIT (0);
       59       59    1   DCL NUM_LEAPS UBIN WORD ALIGNED STATIC SYMDEF INIT (0);
       60       60    1   DCL NON_LEAPS UBIN WORD ALIGNED STATIC SYMDEF INIT (0);
       61       61    1   DCL YEAR_OF_CYCLE SBIN WORD ALIGNED STATIC SYMDEF INIT (0);
       62       62    1   DCL CYCLE_DAYS_LAST UBIN WORD ALIGNED STATIC SYMDEF INIT (0);
       63       63    1   DCL CYCLE_DAYS_CURRENT UBIN WORD ALIGNED STATIC SYMDEF INIT (0);
       64       64    1   DCL CENTURY_ADJUSTMENT SBIN WORD ALIGNED STATIC SYMDEF INIT (0);
       65       65    1   DCL TOTAL_DAYS SBIN WORD ALIGNED STATIC SYMDEF INIT (0);
       66       66    1   DCL DAY_OF_WEEK SBIN WORD ALIGNED STATIC SYMDEF INIT (0);
       67       67    1   DCL MONDAY_OF_WEEK SBIN WORD ALIGNED STATIC SYMDEF INIT (0);
       68       68    1   DCL J_MONDAY_OF_WEEK SBIN WORD ALIGNED STATIC SYMDEF INIT (0);
       69       69    1   DCL WEEK_OF_MONTH UBIN WORD ALIGNED STATIC SYMDEF INIT (0);
       70       70    1   DCL WEEK_OF_YEAR UBIN WORD ALIGNED STATIC SYMDEF INIT (0);
       71       71    1   DCL FIRST_DAY UBIN WORD ALIGNED STATIC SYMDEF INIT (6);
       72       72
       73       73                                           /*
       74       74                                              Bit Data
PL6.E3A0      #001=IA_DAT_D File=IA_DAT_D.:E05TSI                                TUE 07/29/97 22:28 Page:3
       75       75                                                          */
       76       76
       77       77    1   DCL LEAP BIT(1) ALIGNED STATIC SYMDEF INIT('0'B);
       78       78
       79       79                                           /*
       80       80                                              Remember Data
       81       81                                                          */
       82       82
       83       83    1   DCL ABORT_CMD REMEMBER ALIGNED STATIC SYMDEF;
       84       84
       85       85    1   END IA_DAT_D;

PL6.E3A0      #001=IA_DAT_D File=IA_DAT_D.:E05TSI                                TUE 07/29/97 22:28 Page:4
      No diagnostics issued in procedure IA_DAT_D.

   No code generated for procedure IA_DAT_D .
   Procedure IA_DAT_D is declared NOAUTO and requires 152 words of local(STATIC) storage.

    No errors detected in file IA_DAT_D.:E05TSI    .

PL6.E3A0      #001=IA_DAT_D File=IA_DAT_D.:E05TSI                                TUE 07/29/97 22:28 Page:5

 Object Unit name= IA_DAT_D                                   File name= IA_DAT_D.:E05TOU
 UTS= JUL 29 '97 22:28:19.08 TUE                              Compiler= PL-6/E31         Sev=      00
 SharedLib= :SHARED_SYSTEM                                    Alt SharedLib=


    ****  Control sections  ****

 Sect   Type Bound  Init  Size OctSiz  Section name(segment info)
    0   Data  even  none   152    230  IA_DAT_D
    1   Proc  even  none     0      0  IA_DAT_D

    ****  Entry defs  ****

                              Check   Calling
                             calling  sequence
  Sect OctLoc Primary Altret sequence   type   Parms  Name
     1      0   yes            yes     ~proc       0  IA_DAT_D

  ****  Data defs  ****

 Sect OctLoc  Name                           Sect OctLoc  Name
    0      1  DAYNAME                            0      4  MONTHNAME
    0      7  DAY_TABLE                          0     27  MON_TABLE
    0     62  JUL_TABLE                          0     77  MESS_BUF
    0    177  TIME_DIFF                          0    200  TEMP_SEC
    0    201  TEMP_DAYS                          0    202  TEMP_MONTHS
    0    203  TEMP_YEARS                         0    204  TEMP_JUL
    0    205  JULIAN                             0    206  LEAP_DAYS
    0    207  NON_LEAP_DAYS                      0    210  NUM_LEAPS
    0    211  NON_LEAPS                          0    212  YEAR_OF_CYCLE
    0    213  CYCLE_DAYS_LAST                    0    214  CYCLE_DAYS_CURRENT
    0    215  CENTURY_ADJUSTMENT                 0    216  TOTAL_DAYS
    0    217  DAY_OF_WEEK                        0    220  MONDAY_OF_WEEK
    0    221  J_MONDAY_OF_WEEK                   0    222  WEEK_OF_MONTH
    0    223  WEEK_OF_YEAR                       0    224  FIRST_DAY
    0    225  LEAP                               0    226  ABORT_CMD
PL6.E3A0      #001=IA_DAT_D File=IA_DAT_D.:E05TSI                                TUE 07/29/97 22:28 Page:6

        1        1        /*M* IA_DAT_D SYMDEFs for global data available to all GOOSE modules */
        2        2        /*T***********************************************************/
        3        3        /*T*                                                         */
        4        4        /*T* Copyright (c) Bull HN Information Systems Inc., 1997    */
        5        5        /*T*                                                         */
        6        6        /*T***********************************************************/
        7        7        /*X* DMR,PLM=5,IND=5,CTI=5,SDI=5,MCL=10,CSI=0,ECI=0 */
        8        8
        9        9        IA_DAT_D: PROC NOAUTO;
       10       10
       11       11                                           /*
       12       12                                              Textual Data
       13       13                                                          */
       14       14
       15       15    1   DCL DAYNAME CHAR(9) CALIGNED STATIC SYMDEF INIT (' ');
       16       16    1   DCL MONTHNAME CHAR(9) CALIGNED STATIC SYMDEF INIT (' ');
       17       17
       18       18    1   DCL DAY_TABLE (0:6) CHAR(9) STATIC SYMDEF INIT ('Monday   ',
       19       19    1                                                   'Tuesday  ',
       20       20    1                                                   'Wednesday',
       21       21    1                                                   'Thursday ',
       22       22    1                                                   'Friday   ',
       23       23    1                                                   'Saturday ',
       24       24    1                                                   'Sunday   ');
       25       25
       26       26    1   DCL MON_TABLE (0:11) CHAR(9) STATIC SYMDEF INIT ('January  ',
       27       27    1                                                    'February ',
       28       28    1                                                    'March    ',
       29       29    1                                                    'April    ',
       30       30    1                                                    'May      ',
       31       31    1                                                    'June     ',
       32       32    1                                                    'July     ',
       33       33    1                                                    'August   ',
       34       34    1                                                    'September',
       35       35    1                                                    'October  ',
       36       36    1                                                    'November ',
       37       37    1                                                    'December ');
PL6.E3A0      #001=IA_DAT_D File=IA_DAT_D.:E05TSI                                TUE 07/29/97 22:28 Page:7
       38       38
       39       39    1   DCL JUL_TABLE (0:12) SBIN WORD STATIC SYMDEF INIT (0,31,59,90,120,
       40       40    1                                                      151,181,212,243,
       41       41    1                                                      273,304,334,365);
       42       42
       43       43    1   DCL MESS_BUF CHAR(256) CALIGNED STATIC SYMDEF INIT (' ');
       44       44    1   DCL MESS_BUFC (0:255) REDEF MESS_BUF CHAR(1);
       45       45
       46       46                                           /*
       47       47                                              Binary Data
       48       48                                                          */
       49       49
       50       50    1   DCL TIME_DIFF UBIN WORD ALIGNED STATIC SYMDEF INIT (0);
       51       51    1   DCL TEMP_SEC SBIN WORD ALIGNED STATIC SYMDEF INIT (0);
       52       52    1   DCL TEMP_DAYS SBIN WORD ALIGNED STATIC SYMDEF INIT (0);
       53       53    1   DCL TEMP_MONTHS SBIN WORD ALIGNED STATIC SYMDEF INIT (0);
       54       54    1   DCL TEMP_YEARS SBIN WORD ALIGNED STATIC SYMDEF INIT (0);
       55       55    1   DCL TEMP_JUL SBIN WORD ALIGNED STATIC SYMDEF INIT (0);
       56       56    1   DCL JULIAN SBIN WORD ALIGNED STATIC SYMDEF INIT (0);
       57       57    1   DCL LEAP_DAYS UBIN WORD ALIGNED STATIC SYMDEF INIT (0);
       58       58    1   DCL NON_LEAP_DAYS UBIN WORD ALIGNED STATIC SYMDEF INIT (0);
       59       59    1   DCL NUM_LEAPS UBIN WORD ALIGNED STATIC SYMDEF INIT (0);
       60       60    1   DCL NON_LEAPS UBIN WORD ALIGNED STATIC SYMDEF INIT (0);
       61       61    1   DCL YEAR_OF_CYCLE SBIN WORD ALIGNED STATIC SYMDEF INIT (0);
       62       62    1   DCL CYCLE_DAYS_LAST UBIN WORD ALIGNED STATIC SYMDEF INIT (0);
       63       63    1   DCL CYCLE_DAYS_CURRENT UBIN WORD ALIGNED STATIC SYMDEF INIT (0);
       64       64    1   DCL CENTURY_ADJUSTMENT SBIN WORD ALIGNED STATIC SYMDEF INIT (0);
       65       65    1   DCL TOTAL_DAYS SBIN WORD ALIGNED STATIC SYMDEF INIT (0);
       66       66    1   DCL DAY_OF_WEEK SBIN WORD ALIGNED STATIC SYMDEF INIT (0);
       67       67    1   DCL MONDAY_OF_WEEK SBIN WORD ALIGNED STATIC SYMDEF INIT (0);
       68       68    1   DCL J_MONDAY_OF_WEEK SBIN WORD ALIGNED STATIC SYMDEF INIT (0);
       69       69    1   DCL WEEK_OF_MONTH UBIN WORD ALIGNED STATIC SYMDEF INIT (0);
       70       70    1   DCL WEEK_OF_YEAR UBIN WORD ALIGNED STATIC SYMDEF INIT (0);
       71       71    1   DCL FIRST_DAY UBIN WORD ALIGNED STATIC SYMDEF INIT (6);
       72       72
       73       73                                           /*
       74       74                                              Bit Data
PL6.E3A0      #001=IA_DAT_D File=IA_DAT_D.:E05TSI                                TUE 07/29/97 22:28 Page:8
       75       75                                                          */
       76       76
       77       77    1   DCL LEAP BIT(1) ALIGNED STATIC SYMDEF INIT('0'B);
       78       78
       79       79                                           /*
       80       80                                              Remember Data
       81       81                                                          */
       82       82
       83       83    1   DCL ABORT_CMD REMEMBER ALIGNED STATIC SYMDEF;
       84       84
       85       85    1   END IA_DAT_D;

PL6.E3A0      #001=IA_DAT_D File=IA_DAT_D.:E05TSI                                TUE 07/29/97 22:28 Page:9
      No diagnostics issued in procedure IA_DAT_D.
PL6.E3A0      #001=IA_DAT_D File=IA_DAT_D.:E05TSI                                TUE 07/29/97 22:28 Page:10

 **** Variables and constants ****


   No code generated for procedure IA_DAT_D .
   Procedure IA_DAT_D is declared NOAUTO and requires 152 words of local(STATIC) storage.

    No errors detected in file IA_DAT_D.:E05TSI    .
PL6.E3A0      #001=IA_DAT_D File=IA_DAT_D.:E05TSI                                TUE 07/29/97 22:28 Page:11
          *** CROSS REFERENCE LISTING ***
**     DENOTES     IDENTIFIER DEFINITION
<<                 IDENTIFIER'S VALUE SET
>>                 IDENTIFIER'S VALUE USED
<>                 IDENTIFIER SET AND/OR USED
--                 IDENTIFIER REFERENCED
PL6.E3A0      #001=IA_DAT_D File=IA_DAT_D.:E05TSI                                TUE 07/29/97 22:28 Page:12
          MINI XREF LISTING

MESS_BUF
        43**DCL        44--REDEF
