PL6.E3A0      #002=IDD$ERRTEXT File=IDD$DEF.:E05TSI                              TUE 07/29/97 22:32 Page:165
      851        1        /*T***********************************************************/
      852        2        /*T*                                                         */
      853        3        /*T* Copyright (c) Bull HN Information Systems Inc., 1997    */
      854        4        /*T*                                                         */
      855        5        /*T***********************************************************/
      856        6        IDD$ERRTEXT: PROC;
      857        7        /*E*        ERROR:  ID-E$NO_BOOT
      858        8                  MESSAGE: Error opening BOOTSTRAP file %%FN%
      859        9        */
      860       10        /*E*        ERROR:  ID-E$NO_FIRMWARE
      861       11                  MESSAGE: Error opening FIRMWARE file %%FN%
      862       12        */
      863       13        /*E*        ERROR:  ID-E$NO_XDELTA
      864       14                  MESSAGE: Error opening XDELTA run unit %FN
      865       15        */
      866       16        /*E*        ERROR:  ID-E$NO_MHJIT
      867       17                  MESSAGE: Error opening monitor HJIT file %FN
      868       18        */
      869       19        /*E*        ERROR:  ID-E$NO_MONSTER
      870       20                  MESSAGE: Error opening MONITOR run unit %FN
      871       21        */
      872       22        /*E*        ERROR:  ID-E$NO_G1RO
      873       23                  MESSAGE: Error opening GHOST1RO file %FN
      874       24        */
      875       25        /*E*        ERROR:  ID-E$NO_GHOST1
      876       26                  MESSAGE: Error opening GHOST1 run unit %FN
      877       27        */
      878       28        /*E*        ERROR:  ID-E$PO_OPN
      879       29                  MESSAGE: Error opening DCB %DC
      880       30        */
      881       31        /*E*        ERROR:  ID-E$NO_HEAD
      882       32                  MESSAGE: Run unit %%FN% has no head record
      883       33        */
      884       34        /*E*        ERROR:  ID-E$NO_PROGRAM
      885       35                  MESSAGE: Run unit %%FN% does not have required program records
      886       36        */
      887       37        /*E*        ERROR:  ID-E$BAD_PO_WRITE
PL6.E3A0      #002=IDD$ERRTEXT File=IDD$DEF.:E05TSI                              TUE 07/29/97 22:32 Page:166
      888       38                  MESSAGE: Write error on DCB %DC
      889       39        */
      890       40        /*E*        ERROR:  ID-E$BAD_READ
      891       41                  MESSAGE: Read error on DCB %DC
      892       42        */
      893       43        /*E*        ERROR:  ID-E$SCHEMA_ERR
      894       44                  MESSAGE: Error processing debug schema
      895       45        */
      896       46        /*E*        ERROR:  ID-E$NO_BUFFER
      897       47                  MESSAGE: Insufficient memory available for buffers.
      898       48        */
      899       49        /*E*        ERROR:  ID-E$DEF_IO_ERR
      900       50                  MESSAGE: I/O error on DCB %DC
      901       51        */
      902       52        /*E*        ERROR:  ID-E$DUPERR
      903       53                  MESSAGE: Duplicate command ignored
      904       54        */
      905       55        /*E*        ERROR:  ID-E$NOPATCH
      906       56                  MESSAGE: No patches
      907       57        */
      908       58        /*E*        ERROR:  ID-E$NOTIGR
      909       59                  MESSAGE: No TIGR commands
      910       60        */
      911       61        /*E*        ERROR:  ID-E$FNAME_ILGL
      912       62                  MESSAGE: Filename illegal here
      913       63        */
      914       64        /*E*        ERROR:  ID-E$NOACCN
      915       65                  MESSAGE: This fid must contain an account
      916       66        */
      917       67        /*E*        ERROR:  ID-E$BADTYPE
      918       68                  MESSAGE: Illegal file type specifcation
      919       69        */
      920       70        /*E*        ERROR:  ID-E$NOFNAME
      921       71                  MESSAGE: This fid must contain a filename
      922       72        */
      923       73    1   END IDD$ERRTEXT;
      924       74        %EOD;
PL6.E3A0      #002=IDD$ERRTEXT File=IDD$DEF.:E05TSI                              TUE 07/29/97 22:32 Page:167

PL6.E3A0      #002=IDD$ERRTEXT File=IDD$DEF.:E05TSI                              TUE 07/29/97 22:32 Page:168
--  Include file information  --

   B$JIT_C.:E05TOU  was found in the system file and is never referenced.
   CP_6_C.:E05TOU  was found in the system file and is never referenced.
      No diagnostics issued in procedure IDD$ERRTEXT.

   No code generated for procedure IDD$ERRTEXT .
   Procedure IDD$ERRTEXT requires 4 words of local(AUTO) storage.

PL6.E3A0      #002=IDD$ERRTEXT File=IDD$DEF.:E05TSI                              TUE 07/29/97 22:32 Page:169

 Object Unit name= IDD$ERRTEXT                                File name= IDD$DEF.:E05TOU
 UTS= JUL 29 '97 22:32:37.68 TUE                              Compiler= PL-6/E31         Sev=      00
 SharedLib= :SHARED_SYSTEM                                    Alt SharedLib=


    ****  Control sections  ****

 Sect   Type Bound  Init  Size OctSiz  Section name(segment info)
    0   Proc  even  none     0      0  IDD$ERRTEXT

    ****  Entry defs  ****

                              Check   Calling
                             calling  sequence
  Sect OctLoc Primary Altret sequence   type   Parms  Name
     0      0   yes            yes     ~proc       0  IDD$ERRTEXT
PL6.E3A0      #002=IDD$ERRTEXT File=IDD$DEF.:E05TSI                              TUE 07/29/97 22:32 Page:170

      851        1        /*T***********************************************************/
      852        2        /*T*                                                         */
      853        3        /*T* Copyright (c) Bull HN Information Systems Inc., 1997    */
      854        4        /*T*                                                         */
      855        5        /*T***********************************************************/
      856        6        IDD$ERRTEXT: PROC;
      857        7        /*E*        ERROR:  ID-E$NO_BOOT
      858        8                  MESSAGE: Error opening BOOTSTRAP file %%FN%
      859        9        */
      860       10        /*E*        ERROR:  ID-E$NO_FIRMWARE
      861       11                  MESSAGE: Error opening FIRMWARE file %%FN%
      862       12        */
      863       13        /*E*        ERROR:  ID-E$NO_XDELTA
      864       14                  MESSAGE: Error opening XDELTA run unit %FN
      865       15        */
      866       16        /*E*        ERROR:  ID-E$NO_MHJIT
      867       17                  MESSAGE: Error opening monitor HJIT file %FN
      868       18        */
      869       19        /*E*        ERROR:  ID-E$NO_MONSTER
      870       20                  MESSAGE: Error opening MONITOR run unit %FN
      871       21        */
      872       22        /*E*        ERROR:  ID-E$NO_G1RO
      873       23                  MESSAGE: Error opening GHOST1RO file %FN
      874       24        */
      875       25        /*E*        ERROR:  ID-E$NO_GHOST1
      876       26                  MESSAGE: Error opening GHOST1 run unit %FN
      877       27        */
      878       28        /*E*        ERROR:  ID-E$PO_OPN
      879       29                  MESSAGE: Error opening DCB %DC
      880       30        */
      881       31        /*E*        ERROR:  ID-E$NO_HEAD
      882       32                  MESSAGE: Run unit %%FN% has no head record
      883       33        */
      884       34        /*E*        ERROR:  ID-E$NO_PROGRAM
      885       35                  MESSAGE: Run unit %%FN% does not have required program records
      886       36        */
      887       37        /*E*        ERROR:  ID-E$BAD_PO_WRITE
PL6.E3A0      #002=IDD$ERRTEXT File=IDD$DEF.:E05TSI                              TUE 07/29/97 22:32 Page:171
      888       38                  MESSAGE: Write error on DCB %DC
      889       39        */
      890       40        /*E*        ERROR:  ID-E$BAD_READ
      891       41                  MESSAGE: Read error on DCB %DC
      892       42        */
      893       43        /*E*        ERROR:  ID-E$SCHEMA_ERR
      894       44                  MESSAGE: Error processing debug schema
      895       45        */
      896       46        /*E*        ERROR:  ID-E$NO_BUFFER
      897       47                  MESSAGE: Insufficient memory available for buffers.
      898       48        */
      899       49        /*E*        ERROR:  ID-E$DEF_IO_ERR
      900       50                  MESSAGE: I/O error on DCB %DC
      901       51        */
      902       52        /*E*        ERROR:  ID-E$DUPERR
      903       53                  MESSAGE: Duplicate command ignored
      904       54        */
      905       55        /*E*        ERROR:  ID-E$NOPATCH
      906       56                  MESSAGE: No patches
      907       57        */
      908       58        /*E*        ERROR:  ID-E$NOTIGR
      909       59                  MESSAGE: No TIGR commands
      910       60        */
      911       61        /*E*        ERROR:  ID-E$FNAME_ILGL
      912       62                  MESSAGE: Filename illegal here
      913       63        */
      914       64        /*E*        ERROR:  ID-E$NOACCN
      915       65                  MESSAGE: This fid must contain an account
      916       66        */
      917       67        /*E*        ERROR:  ID-E$BADTYPE
      918       68                  MESSAGE: Illegal file type specifcation
      919       69        */
      920       70        /*E*        ERROR:  ID-E$NOFNAME
      921       71                  MESSAGE: This fid must contain a filename
      922       72        */
      923       73    1   END IDD$ERRTEXT;
      924       74        %EOD;
PL6.E3A0      #002=IDD$ERRTEXT File=IDD$DEF.:E05TSI                              TUE 07/29/97 22:32 Page:172

PL6.E3A0      #002=IDD$ERRTEXT File=IDD$DEF.:E05TSI                              TUE 07/29/97 22:32 Page:173
--  Include file information  --

   B$JIT_C.:E05TOU  was found in the system file and is never referenced.
   CP_6_C.:E05TOU  was found in the system file and is never referenced.
      No diagnostics issued in procedure IDD$ERRTEXT.
PL6.E3A0      #002=IDD$ERRTEXT File=IDD$DEF.:E05TSI                              TUE 07/29/97 22:32 Page:174

 **** Variables and constants ****


   No code generated for procedure IDD$ERRTEXT .
   Procedure IDD$ERRTEXT requires 4 words of local(AUTO) storage.
PL6.E3A0      #002=IDD$ERRTEXT File=IDD$DEF.:E05TSI                              TUE 07/29/97 22:32 Page:175
          *** CROSS REFERENCE LISTING ***
**     DENOTES     IDENTIFIER DEFINITION
<<                 IDENTIFIER'S VALUE SET
>>                 IDENTIFIER'S VALUE USED
<>                 IDENTIFIER SET AND/OR USED
--                 IDENTIFIER REFERENCED
PL6.E3A0      #002=IDD$ERRTEXT File=IDD$DEF.:E05TSI                              TUE 07/29/97 22:32 Page:176
          MINI XREF LISTING


PL6.E3A0      #003=IDD$GETSEG File=IDD$DEF.:E05TSI                               TUE 07/29/97 22:32 Page:177
      925        1        /*T***********************************************************/
      926        2        /*T*                                                         */
      927        3        /*T* Copyright (c) Bull HN Information Systems Inc., 1997    */
      928        4        /*T*                                                         */
      929        5        /*T***********************************************************/
      930        6        IDD$GETSEG: PROC(RESULT,SEGSIZE) ALTRET;
      931        7    1   DCL 1 RESULT ALIGNED,
      932        8    1         2 BOUND UBIN(20) UNAL,
      933        9    1         2 * BIT(16) UNAL,
      934       10    1         2 P$ PTR;
      935       11    1   DCL SEGSIZE SBIN;
      936       12        /**/
      937       13        %INCLUDE CP_6;
      938       94        %FPT_GDS;
      939      110    1   DCL SZ SBIN;
      940      111        %EJECT;
PL6.E3A0      #003=IDD$GETSEG File=IDD$DEF.:E05TSI                               TUE 07/29/97 22:32 Page:178
      941      112    1           FPT_GDS.RESULTS_=VECTOR(RESULT);
      942      113    1           IF RESULT.BOUND=0 THEN FPT_GDS.V.SEGSIZE#=SEGSIZE;
      943      114    2           ELSE DO;
      944      115    2              SZ=(RESULT.BOUND+1)/4;
      945      116    2              IF SEGSIZE=SZ THEN RETURN;
      946      117    2              IF SEGSIZE>SZ THEN FPT_GDS.V.SEGSIZE#=SEGSIZE-SZ;
      947      118    3              ELSE DO;
      948      119    3                 SZ=SZ-SEGSIZE;
      949      120    3                 FPT_GDS.V.SEGSIZE#=SZ-MOD(SZ,2);
      950      121    3                 CALL M$FDS(FPT_GDS) ALTRET(ALT);
      951      122    3                 RETURN;
      952      123    3                 END;
      953      124    2              END;
      954      125    1           CALL M$GDS(FPT_GDS) ALTRET(ALT);
      955      126    1           RETURN;
      956      127    1   ALT:    ALTRETURN;
      957      128    1   END IDD$GETSEG;

PL6.E3A0      #003=IDD$GETSEG File=IDD$DEF.:E05TSI                               TUE 07/29/97 22:32 Page:179
--  Include file information  --

   CP_6.:E05TOU  cannot be made into a system file and is referenced.
   B$JIT_C.:E05TOU  was found in the system file and is never referenced.
   CP_6_C.:E05TOU  was found in the system file and is referenced.
      No diagnostics issued in procedure IDD$GETSEG.

   Procedure IDD$GETSEG requires 47 words for executable code.
   Procedure IDD$GETSEG requires 8 words of local(AUTO) storage.

    No errors detected in file IDD$DEF.:E05TSI    .

PL6.E3A0      #003=IDD$GETSEG File=IDD$DEF.:E05TSI                               TUE 07/29/97 22:32 Page:180

 Object Unit name= IDD$GETSEG                                 File name= IDD$DEF.:E05TOU
 UTS= JUL 29 '97 22:32:45.64 TUE                              Compiler= PL-6/E31         Sev=      00
 SharedLib= :SHARED_SYSTEM                                    Alt SharedLib=


    ****  Control sections  ****

 Sect   Type Bound  Init  Size OctSiz  Section name(segment info)
    0   DCB   even  none     0      0  M$UC
    1   Data  even  none     6      6  IDD$GETSEG
    2   Proc  even  none    47     57  IDD$GETSEG
    3  RoData even  none     1      1  IDD$GETSEG

    ****  Entry defs  ****

                              Check   Calling
                             calling  sequence
  Sect OctLoc Primary Altret sequence   type   Parms  Name
     2      0   yes    yes     yes      Std        2  IDD$GETSEG

  ****  Entry refs  ****

         Check        Calling
        calling       sequence
Altret sequence SRef   type   Args  Name
                       nStd      0 X66_AUTO_2
                       Std       0 B_CONSPOOL_D
                       nStd      0 X66_ARET
                       nStd      0 X66_AALT

  ****  Data refs  ****

  Flags:  r = read only, s = secondary
Flgs Name                             Flgs Name                             Flgs Name
     M$UC                                  B_VECTNIL
PL6.E3A0      #003=IDD$GETSEG File=IDD$DEF.:E05TSI                               TUE 07/29/97 22:32 Page:181

  ****  Segment refs  ****

  Flags:  r = read only, s = secondary
Flgs Name                             Flgs Name                             Flgs Name
     ISSID                                 NULLSID
PL6.E3A0      #003=IDD$GETSEG File=IDD$DEF.:E05TSI                               TUE 07/29/97 22:32 Page:182


      925        1        /*T***********************************************************/
      926        2        /*T*                                                         */
      927        3        /*T* Copyright (c) Bull HN Information Systems Inc., 1997    */
      928        4        /*T*                                                         */
      929        5        /*T***********************************************************/
      930        6        IDD$GETSEG: PROC(RESULT,SEGSIZE) ALTRET;

      6  2 000000   000000 700200 xent  IDD$GETSEG   TSX0  ! X66_AUTO_2
         2 000001   000010 000002                    ZERO    8,2

      931        7    1   DCL 1 RESULT ALIGNED,
      932        8    1         2 BOUND UBIN(20) UNAL,
      933        9    1         2 * BIT(16) UNAL,
      934       10    1         2 P$ PTR;
      935       11    1   DCL SEGSIZE SBIN;
      936       12        /**/
      937       13        %INCLUDE CP_6;
      938       94        %FPT_GDS;
      939      110    1   DCL SZ SBIN;
      940      111        %EJECT;
PL6.E3A0      #003=IDD$GETSEG File=IDD$DEF.:E05TSI                               TUE 07/29/97 22:32 Page:183
      941      112    1           FPT_GDS.RESULTS_=VECTOR(RESULT);

    112  2 000002   000000 235000 3                  LDA     0
         2 000003   200003 236100                    LDQ     @RESULT,,AUTO
         2 000004   000002 757000 1                  STAQ    FPT_GDS+2

      942      113    1           IF RESULT.BOUND=0 THEN FPT_GDS.V.SEGSIZE#=SEGSIZE;

    113  2 000005   200003 470500                    LDP0    @RESULT,,AUTO
         2 000006   000000 236100                    LDQ     0,,PR0
         2 000007   000034 316000 xsym               CANQ    B_VECTNIL+28
         2 000010   000015 601000 2                  TNZ     s:115

    113  2 000011   200004 471500                    LDP1    @SEGSIZE,,AUTO
         2 000012   100000 720100                    LXL0    0,,PR1
         2 000013   000004 440000 1                  SXL0    FPT_GDS+4
         2 000014   000051 710000 2                  TRA     s:125

      943      114    2           ELSE DO;

      944      115    2              SZ=(RESULT.BOUND+1)/4;

    115  2 000015   000000 236100                    LDQ     0,,PR0
         2 000016   000020 772000                    QRL     16
         2 000017   000001 036007                    ADLQ    1,DL
         2 000020   000002 772000                    QRL     2
         2 000021   200005 756100                    STQ     SZ,,AUTO

      945      116    2              IF SEGSIZE=SZ THEN RETURN;

    116  2 000022   200004 471500                    LDP1    @SEGSIZE,,AUTO
         2 000023   100000 116100                    CMPQ    0,,PR1
         2 000024   000026 601000 2                  TNZ     s:117

    116  2 000025   000000 702200 xent               TSX2  ! X66_ARET

      946      117    2              IF SEGSIZE>SZ THEN FPT_GDS.V.SEGSIZE#=SEGSIZE-SZ;
PL6.E3A0      #003=IDD$GETSEG File=IDD$DEF.:E05TSI                               TUE 07/29/97 22:32 Page:184

    117  2 000026   000034 605000 2                  TPL     s:119

    117  2 000027   100000 236100                    LDQ     0,,PR1
         2 000030   200005 136100                    SBLQ    SZ,,AUTO
         2 000031   000000 620006                    EAX0    0,QL
         2 000032   000004 440000 1                  SXL0    FPT_GDS+4
         2 000033   000051 710000 2                  TRA     s:125

      947      118    3              ELSE DO;

      948      119    3                 SZ=SZ-SEGSIZE;

    119  2 000034   100000 136100                    SBLQ    0,,PR1
         2 000035   200005 756100                    STQ     SZ,,AUTO

      949      120    3                 FPT_GDS.V.SEGSIZE#=SZ-MOD(SZ,2);

    120  2 000036   000002 506007                    DIV     2,DL
         2 000037   200006 755100                    STA     SZ+1,,AUTO
         2 000040   200005 236100                    LDQ     SZ,,AUTO
         2 000041   200006 136100                    SBLQ    SZ+1,,AUTO
         2 000042   000000 620006                    EAX0    0,QL
         2 000043   000004 440000 1                  SXL0    FPT_GDS+4

      950      121    3                 CALL M$FDS(FPT_GDS) ALTRET(ALT);

    121  2 000044   000000 630400 1                  EPPR0   FPT_GDS
         2 000045   430002 713400                    CLIMB   alt,fds
         2 000046   400400 401760                    pmme    nvectors=2
         2 000047   000056 702000 2                  TSX2    ALT

      951      122    3                 RETURN;

    122  2 000050   000000 702200 xent               TSX2  ! X66_ARET

      952      123    3                 END;
PL6.E3A0      #003=IDD$GETSEG File=IDD$DEF.:E05TSI                               TUE 07/29/97 22:32 Page:185
      953      124    2              END;
      954      125    1           CALL M$GDS(FPT_GDS) ALTRET(ALT);

    125  2 000051   000000 630400 1                  EPPR0   FPT_GDS
         2 000052   430001 713400                    CLIMB   alt,gds
         2 000053   400400 401760                    pmme    nvectors=2
         2 000054   000056 702000 2                  TSX2    ALT

      955      126    1           RETURN;

    126  2 000055   000000 702200 xent               TSX2  ! X66_ARET

      956      127    1   ALT:    ALTRETURN;

    127  2 000056   000000 702200 xent  ALT          TSX2  ! X66_AALT
      957      128    1   END IDD$GETSEG;

PL6.E3A0      #003=IDD$GETSEG File=IDD$DEF.:E05TSI                               TUE 07/29/97 22:32 Page:186
--  Include file information  --

   CP_6.:E05TOU  cannot be made into a system file and is referenced.
   B$JIT_C.:E05TOU  was found in the system file and is never referenced.
   CP_6_C.:E05TOU  was found in the system file and is referenced.
      No diagnostics issued in procedure IDD$GETSEG.
PL6.E3A0      #003=IDD$GETSEG File=IDD$DEF.:E05TSI                               TUE 07/29/97 22:32 Page:187

 **** Variables and constants ****

  ****  Section 001  Data  IDD$GETSEG

  ****  Scalars and arrays  ****
OctLoc.c.b A Datatyp(siz) R M Lvl/name                 OctLoc.c.b A Datatyp(siz) R M Lvl/name

     0-0-0/d STRC(216)   r     1 FPT_GDS

  ****  Auto variables  ****

  ****  Scalars and arrays  ****
OctLoc.c.b A Datatyp(siz) R M Lvl/name                 OctLoc.c.b A Datatyp(siz) R M Lvl/name

     3-0-0/w PTR         r     1 @RESULT                    4-0-0/w PTR         r     1 @SEGSIZE
    *0-0-0/w STRC(72)    r     1 RESULT                    *0-0-0/w SBIN        r     1 SEGSIZE
     5-0-0/w SBIN        r     1 SZ


   Procedure IDD$GETSEG requires 47 words for executable code.
   Procedure IDD$GETSEG requires 8 words of local(AUTO) storage.

    No errors detected in file IDD$DEF.:E05TSI    .
PL6.E3A0      #003=IDD$GETSEG File=IDD$DEF.:E05TSI                               TUE 07/29/97 22:32 Page:188
          *** CROSS REFERENCE LISTING ***
**     DENOTES     IDENTIFIER DEFINITION
<<                 IDENTIFIER'S VALUE SET
>>                 IDENTIFIER'S VALUE USED
<>                 IDENTIFIER SET AND/OR USED
--                 IDENTIFIER REFERENCED
PL6.E3A0      #003=IDD$GETSEG File=IDD$DEF.:E05TSI                               TUE 07/29/97 22:32 Page:189
          MINI XREF LISTING

ALT
       127**LABEL     121--CALLALT   125--CALLALT
FPT_GDS
       105**DCL       121<>CALL      125<>CALL
FPT_GDS.RESULTS_
       105**DCL       112<<ASSIGN
FPT_GDS.V
       105**DCL       105--DCLINIT
FPT_GDS.V.SEGSIZE#
       108**DCL       113<<ASSIGN    117<<ASSIGN    120<<ASSIGN
M$FDS
        57**DCL-ENT   121--CALL
M$GDS
        57**DCL-ENT   125--CALL
RESULT
         7**DCL         6--PROC      112--ASSIGN
RESULT.BOUND
         8**DCL       113>>IF        115>>ASSIGN
SEGSIZE
        11**DCL         6--PROC      113>>ASSIGN    116>>IF        117>>IF        117>>ASSIGN    119>>ASSIGN
SZ
       110**DCL       115<<ASSIGN    116>>IF        117>>IF        117>>ASSIGN    119<<ASSIGN    119>>ASSIGN
       120>>ASSIGN    120>>ASSIGN
