VERSION E05

PL6.E3A0      #001=IDD$DEF File=IDD$DEF.:E05TSI                                  TUE 07/29/97 22:29 Page:1
        1        1        /*M* IDD$DEF - CP-6 DEF MAIN PROGRAM */
        2        2        /*T***********************************************************/
        3        3        /*T*                                                         */
        4        4        /*T* Copyright (c) Bull HN Information Systems Inc., 1997    */
        5        5        /*T*                                                         */
        6        6        /*T***********************************************************/
        7        7        /*X* */
        8        8        /**/
        9        9        IDD$DEF: PROC MAIN;
       10       10        /**/
       11       11    1   DCL IDD$GETSEG ENTRY(2) ALTRET;
       12       12    1   DCL IDO$OPENFILE ENTRY(4) ALTRET;
       13       13    1   DCL IDO$SETFIRST ENTRY(2);
       14       14    1   DCL IDO$OPENNEXT ENTRY(2) ALTRET;
       15       15    1   DCL IDU$BOOT ENTRY;
       16       16    1   DCL IDU$ALTSCH ENTRY;
       17       17    1   DCL IDC$COPY ENTRY(3);
       18       18    1   DCL IDE$CHK_CMD ENTRY(1) ALTRET;
       19       19    1   DCL IDE$FMSECON ENTRY;
       20       20    1   DCL IDE$FMSECOFF ENTRY;
       21       21        %INCLUDE XUR_ENTRY;
       22       53    1   DCL IDE$FLUSH ENTRY;
       23       54    1   DCL IDE$FILE ENTRY(1);
       24       55    1   DCL IDE$FILEACCT ENTRY(1);
       25       56    1   DCL IDE$WRTCOLUMN ENTRY(3);
       26       57        %INCLUDE XUF_ENTRY;
       27       65        /**/
       28       66        %INCLUDE CP_6;
       29      147        %INCLUDE CP_6_SUBS;
       30      687        %INCLUDE B_ERRORS_C;
       31     1814        %INCLUDE ID_DATA_C;
       32     1875        %INCLUDE ID_SUBS_C;
       33     1929        %INCLUDE ID_PERR_C;
       34     1971        %INCLUDE XU_MACRO_C;
       35     5077        %INCLUDE XU_FORMAT_C;
       36     5239        %INCLUDE XUH_MACRO_C;
       37     5323        %INCLUDE F$DCB;
PL6.E3A0      #001=IDD$DEF File=IDD$DEF.:E05TSI                                  TUE 07/29/97 22:29 Page:2
       38     5372    1   DCL B$JIT$ PTR SYMREF;
       39     5373        %INCLUDE B$JIT;
       40     5663    1   DCL B$TCB$ PTR SYMREF;
       41     5664        %B$TCB;
       42     5667        %B$ALT;
       43     5675        /**/
       44     5676        /* COMMAND TABLES */
       45     5677        /**/
       46     5678    1   DCL TAPEID CHAR(28) STATIC SYMDEF;
       47     5679    1   DCL 1 TBUF STATIC CALIGNED,
       48     5680    1         2 * CHAR(1) INIT(' '),
       49     5681    1         2 TIME CHAR(5),
       50     5682    1         2 * CHAR(1) INIT(' '),
       51     5683    1         2 DATE CHAR(8),
       52     5684    1         2 * CHAR(1) INIT(' ');
       53     5685    1   DCL TBUFR REDEF TBUF CHAR(16);
       54     5686        %FIDBLK (NAME=BOOTSTRAP,DNAME='AARDVARK');
       55     5738        %FIDBLK (NAME=FIRMWARE,DNAME='FIRMWARE');
       56     5790        %FIDBLK (NAME=MONSTER,DNAME='M:MON');
       57     5842        %FIDBLK (NAME=MHJIT,DNAME='MHJIT');
       58     5894        %FIDBLK (NAME=GHOST1,DNAME='GHOST1');
       59     5946        %FIDBLK (NAME=G1HJIT,DNAME='G1HJIT');
       60     5998        %FIDBLK (NAME=XDLT,DNAME='XDELTA');
       61     6050        %FIDBLK (NAME=XDLTLS,DNAME='XDELTALS');
       62     6102        %FIDBLK (NAME=ASCHEMA,DNAME='ASCHEMA');
       63     6154        %FIDBLK (NAME=FID_BLK,DNAME='?');
       64     6206        %FIDBLK (NAME=XINSTALL,DNAME='$XINSTALL',ASNAME='$XINSTALL');
       65     6258    1   DCL MOVEBASE CHAR(MOVESIZE) BASED;
       66     6259    1   DCL MOVESIZE SBIN;
       67     6260    1   DCL INCLHEAD$ PTR STATIC INIT(ADDR(NIL));
       68     6261    1   DCL INCLTAIL$ PTR STATIC INIT(ADDR(NIL));
       69     6262        %FIDBLK (NAME=INCLSPEC,STCLASS=BASED,LINKED=YES);
       70     6314    1   DCL ID_PTCHHEAD$ PTR STATIC SYMDEF INIT(ADDR(NIL));
       71     6315    1   DCL ID_PTCHTAIL$ PTR STATIC INIT(ADDR(NIL));
       72     6316    1   DCL SRCHHEAD$ PTR STATIC INIT(ADDR(NIL));
       73     6317    1   DCL SRCHTAIL$ PTR STATIC INIT(ADDR(NIL));
       74     6318    1   DCL 1 SRCHSPEC BASED,
PL6.E3A0      #001=IDD$DEF File=IDD$DEF.:E05TSI                                  TUE 07/29/97 22:29 Page:3
       75     6319    1         2 FL$ PTR,
       76     6320    1         2 ACCN CHAR(8),
       77     6321    1         2 SN CHAR(6),
       78     6322    1         2 ASN UBIN(18) UNAL;
       79     6323    1   DCL ACCNHEAD$ PTR STATIC INIT(ADDR(NIL));
       80     6324    1   DCL ACCNTAIL$ PTR STATIC INIT(ADDR(NIL));
       81     6325    1   DCL 1 ACCNSPEC BASED,
       82     6326    1         2 FL$ PTR,
       83     6327    1         2 ACCN CHAR(8),
       84     6328    1         2 SN,
       85     6329    1           3 CNT UBIN,
       86     6330    1           3 TXT CHAR(6),
       87     6331    1         2 ASN UBIN(18) UNAL,
       88     6332    1         2 NTYPES SBIN HALF UNAL,
       89     6333    1         2 TYPE(0:0) CHAR(2);
       90     6334    1   DCL IGNRHEAD$ PTR STATIC INIT(ADDR(NIL));
       91     6335    1   DCL IGNRTAIL$ PTR STATIC INIT(ADDR(NIL));
       92     6336        /**/
       93     6337        /* MISC DATA */
       94     6338        /**/
       95     6339    1   DCL X1 BIT(72) STATIC DALIGNED INIT('0'B);
       96     6340    1   DCL 1 CMDSEG REDEF X1,
       97     6341    1         2 BOUND UBIN(20) UNAL,
       98     6342    1         2 FLAGS BIT(16),
       99     6343    1         2 PTR$ PTR;
      100     6344    1   DCL CMDSEG$ PTR;
      101     6345    1   DCL FPARAM(0:1023) SBIN;
      102     6346    1   DCL M$SI DCB;
      103     6347    1   DCL M$LO DCB;
      104     6348    1   DCL M$INPUT DCB;
      105     6349    1   DCL M$INPUT$ PTR STATIC SYMDEF;
      106     6350    1   DCL M$DO DCB;
      107     6351    1   DCL M$PO DCB;
      108     6352    1   DCL M$PO$ PTR;
      109     6353    1   DCL M$AS DCB;
      110     6354    1   DCL M$AS$ PTR;
      111     6355    1   DCL PRMPT CHAR(0) CONSTANT INIT(':');
PL6.E3A0      #001=IDD$DEF File=IDD$DEF.:E05TSI                                  TUE 07/29/97 22:29 Page:4
      112     6356        %FPT_OPEN (DCB=M$PO,
      113     6357                   SN=ID_SNLIST,
      114     6358                   ASN=TAPE,
      115     6359                   ORG=CONSEC,
      116     6360                   FUN=CREATE,
      117     6361                   NAME=VLP_DUMMYFILE);
      118     6470        %VLP_NAME (FPTN=VLP_DUMMYFILE,NAME='$DUMMYFILE');
      119     6497        %FPT_CVOL (DCB=M$PO);
      120     6512        %FPT_CLOSE (DCB=M$PO,
      121     6513                    DISP=SAVE);
      122     6555        %FPT_EXIT (STCLASS=EXT);
      123     6570        %FPT_REM (DISP=REM);
      124     6584        %FPT_TIME (SOURCE=CLOCK,DEST=LOCAL,DATE=TBUF.DATE,TIME=TBUF.TIME);
      125     6603    1   DCL ID_NODES UBIN SYMREF;
      126     6604        %P_PCB (NAME=P_PCB,STCLASS="STATIC SYMDEF");
      127     6803        %XUR_INIT (SYNTAX=YES,PCB=P_PCB);
      128     6902        %PARSE$OUT (NAME=OUT$BLK,STCLASS="BASED(OUT$)");
      129     6947        %PARSE$SYM (NAME=SYM$BLK,STCLASS="BASED(OUT$)");
      130     6985        %F_FDS (DCB=M$LO,STCLASS="STATIC SYMDEF",BUF=FMTBUF);
      131     7098        %XUH_PARAM (PROCNAME=DEFNAME,PROCACCT=HELPACCT,OUTDCB1=M$DO,OUTDCB2=M$LO);
      132     7159        %VLP_NAME (FPTN=DEFNAME,NAME='DEF');
      133     7186        %VLP_ACCT (FPTN=HELPACCT,ACCT=':SYS');
      134     7199    1   DCL FMTBUF CHAR(144) STATIC ALIGNED;
      135     7200    1   DCL 1 FMTVECS(0:3) STATIC DALIGNED,
      136     7201    1         2 BOUND UBIN(20) UNAL,
      137     7202    1         2 * BIT(16),
      138     7203    1         2 PTR$ PTR;
      139     7204    1   DCL END_FLG BIT(1) ALIGNED STATIC INIT('0'B);
      140     7205    1   DCL I SBIN;
      141     7206    1   DCL J SBIN;
      142     7207    1   DCL SCHEMA_FLAG BIT(1) ALIGNED STATIC SYMDEF INIT('1'B);
      143     7208    1   DCL CMDSEGSZ SBIN STATIC;
      144     7209    1   DCL TEMP SBIN;
      145     7210    1   DCL 1 ERRCODE,
      146     7211    1         2 * BIT(19) UNAL,
      147     7212    1         2 ERR UBIN(14) UNAL,
      148     7213    1         2 * BIT(3) UNAL;
PL6.E3A0      #001=IDD$DEF File=IDD$DEF.:E05TSI                                  TUE 07/29/97 22:29 Page:5
      149     7214    1   DCL OUT$ PTR;
      150     7215    1   DCL 1 PARSERR REDEF OUT$,
      151     7216    1         2 FCG BIT(12) UNAL,
      152     7217    1         2 MID BIT(6) UNAL,
      153     7218    1         2 MON BIT(1) UNAL,
      154     7219    1         2 CODE UBIN(14) UNAL,
      155     7220    1         2 SEV UBIN(3) UNAL;
      156     7221    1   DCL ABORT_FLG BIT(1) ALIGNED STATIC INIT('0'B);
      157     7222    1   DCL POCMD_FLG BIT(1) STATIC INIT('0'B);
      158     7223    1   DCL NOFILES_FLG BIT(1) ALIGNED;
      159     7224    1   DCL LABEL_FLG BIT(1) ALIGNED;
      160     7225    1   DCL BOOT_FLG BIT(1) ALIGNED;
      161     7226    1   DCL BLOCKFLG BIT(1) STATIC ALIGNED INIT('1'B);
      162     7227    1   DCL ID_BLOCKFLG BIT(1) STATIC SYMDEF ALIGNED INIT('0'B);
      163     7228    1   DCL ASCHEMA_FLG BIT(1) STATIC SYMDEF ALIGNED INIT ('0'B);
      164     7229    1   DCL ASCHEMA_TYP UBIN STATIC SYMDEF INIT (0);
      165     7230    1   DCL 1 REQUIRED STATIC SYMDEF,
      166     7231    1         2 NUMBER UBIN INIT(30),
      167     7232    1         2 PROCESS(0:30),
      168     7233    1           3 NAME CHAR(31) INIT(' ',
      169     7234    1                             ':OCKEY',
      170     7235    1                             ':OCMSG',
      171     7236    1                             ':SHARED_LCP6_SYSTEM',
      172     7237    1                             ':SHARED_SPECIAL',
      173     7238    1                             ':SHARED_SYSTEM',
      174     7239    1                             'ASYNC',
      175     7240    1                             'COUPLER',
      176     7241    1                             'DELTA',
      177     7242    1                             'DOG',
      178     7243    1                             'ELF',
      179     7244    1                             'FROG',
      180     7245    1                             'GOOSE',
      181     7246    1                             'IBEX',
      182     7247    1                             'INSYM',
      183     7248    1                             'JAYS',
      184     7249    1                             'KEYIN',
      185     7250    1                             'LOGON',
PL6.E3A0      #001=IDD$DEF File=IDD$DEF.:E05TSI                                  TUE 07/29/97 22:29 Page:6
      186     7251    1                             'NETCON',
      187     7252    1                             'M:FEP',
      188     7253    1                             'NODEADMN',
      189     7254    1                             'OUTSYM',
      190     7255    1                             'PIG',
      191     7256    1                             'PRESCAN',
      192     7257    1                             'RCVR2',
      193     7258    1                             'SLUG',
      194     7259    1                             'SUPER',
      195     7260    1                             ' '*0),
      196     7261    1           3 FOUND BIT(1) INIT('0'B*0);
      197     7262    1   DCL 1 SCHEMA_TBL STATIC SYMDEF,
      198     7263    1         2 CNT UBIN INIT(0),
      199     7264    1         2 FCG(0:99) CHAR(2);
      200     7265    1   DCL INCL$ PTR;
      201     7266        %FPT_MONINFO (SITEINFO=ID_SITEINFO);
      202     7281        %VLR_SITEINFO (FPTN=ID_SITEINFO,STCLASS="STATIC SYMDEF");
      203     7300    1   DCL 1 ID_SNLIST ALIGNED STATIC SYMDEF,
      204     7301    1         2 N SBIN ALIGNED INIT(9),
      205     7302    1         2 C(0:8) CHAR(6) UNAL INIT('CP6PO1','CP6PO2','CP6PO3','CP6PO4','CP6PO5',
      206     7303    1           'CP6PO6','CP6PO7','CP6PO8','CP6PO9');
      207     7304    1   DCL 1 ID_ASLIST ALIGNED STATIC SYMDEF,
      208     7305    1         2 N SBIN ALIGNED INIT(2),
      209     7306    1         2 C(0:1) CHAR(6) UNAL INIT('CP6AS1','CP6AS2');
      210     7307    1   DCL ID_DENSITY SBIN STATIC SYMDEF INIT(%D1600#);
      211     7308    1   DCL 1 B_VERSION SYMREF,
      212     7309    1         2 L# UBIN(9) UNAL,
      213     7310    1         2 TXT CHAR(B_VERSION.L#);
      214     7311    1   DCL HELLO CHAR(15) STATIC INIT(' ');
      215     7312    1   DCL ID_VERIFLG BIT(1) STATIC SYMDEF ALIGNED INIT('0'B);
      216     7313    1   DCL ID_VERISEG BIT(72) DALIGNED STATIC SYMDEF INIT('0'B);
      217     7314    1   DCL ID_LISTFLG BIT(1) ALIGNED STATIC SYMDEF;
      218     7315        %EJECT;
PL6.E3A0      #001=IDD$DEF File=IDD$DEF.:E05TSI                                  TUE 07/29/97 22:29 Page:7
      219     7316    1           CALL XUR$INIT(XUR_INIT);
      220     7317    2           IF NOT B$JIT.PRIV.ACTIVE & %PR_FMSEC# THEN DO;
      221     7318    2              CALL ERRMSG(%E$NOFMSEC);
      222     7319        /*E*    ERROR:   IDD-E$NOFMSEC
      223     7320                MESSAGE: DEF must have FMSEC privilege to run.
      224     7321                                                                           */
      225     7322    2              ABORT_FLG='1'B;
      226     7323    2              CALL EXIT_DEF;
      227     7324    2              END;
      228     7325    1           BLOCKFLG='0'B;
      229     7326    1           CALL IDE$FMSECOFF;
      230     7327    1           CALL CONCAT (HELLO, 'DEF ',SUBSTR(B_VERSION.TXT,0,
      231     7328    1             B_VERSION.L#), ' Here');
      232     7329    1           CALL X$WRITE(F_FDS,VECTOR(HELLO));
      233     7330    1           M$INPUT$=DCBADDR(DCBNUM(M$INPUT));
      234     7331    1           M$PO$=DCBADDR(DCBNUM(M$PO));
      235     7332    1           M$AS$=DCBADDR(DCBNUM(M$AS));
      236     7333    1           CALL M$TIME(FPT_TIME);
      237     7334    1           CALL M$MONINFO(FPT_MONINFO);
      238     7335    1           ID_SITEINFO.MINI_ID#=' ';
      239     7336    1           IF M$PO$->F$DCB.PSN~=' ' THEN ID_SNLIST.C(0)=M$PO$->F$DCB.PSN;
      240     7337    1           IF M$AS$->F$DCB.PSN~=' ' THEN ID_ASLIST.C(0)=M$AS$->F$DCB.PSN;
      241     7338    1           ID_BLOCKFLG='0'B;
      242     7339    1           CALL READ_DEF_COMMANDS;
      243     7340    1           IF ASCHEMA_FLG
      244     7341    2           THEN DO;
      245     7342    2              CALL IDU$ALTSCH;
      246     7343    2              ID_VERIFLG='0'B;
      247     7344    2              CALL EXIT_DEF;
      248     7345    2              END;
      249     7346    2           IF BOOT_FLG THEN DO;
      250     7347    2              CALL IDU$BOOT;
      251     7348    2              CALL INSTALL_FILE;
      252     7349    2              END;
      253     7350    1           ID_BLOCKFLG=BLOCKFLG;
      254     7351    1           IF NOFILES_FLG THEN CALL CVOL;
      255     7352    2           IF LABEL_FLG THEN DO;
PL6.E3A0      #001=IDD$DEF File=IDD$DEF.:E05TSI                                  TUE 07/29/97 22:29 Page:8
      256     7353    2              CALL PROCESS_ACCOUNT_SPECS;
      257     7354    2              CALL PROCESS_INCLUDE_SPECS;
      258     7355    2              CALL WRITE_MISSING_STUFF;
      259     7356    2              END;
      260     7357    1           CALL EXIT_DEF;
      261     7358        %EJECT;
PL6.E3A0      #001=IDD$DEF File=IDD$DEF.:E05TSI                                  TUE 07/29/97 22:29 Page:9
      262     7359    1   READ_DEF_COMMANDS: PROC;
      263     7360    2           CALL IDD$GETSEG(CMDSEG,1024);
      264     7361    2           CMDSEG$=CMDSEG.PTR$;
      265     7362    2           CMDSEGSZ=(CMDSEG.BOUND+1)/4;
      266     7363    2           END_FLG='0'B;
      267     7364    2           NOFILES_FLG='0'B;
      268     7365    2           LABEL_FLG='0'B;
      269     7366    2           BOOT_FLG='1'B;
      270     7367    2           ID_VERIFLG='0'B;
      271     7368    2           ID_LISTFLG='1'B;
      272     7369    3           DO WHILE(~END_FLG);
      273     7370    3              CALL XUR$GETCMD(ID_NODES,OUT$,VECTOR(PRMPT)) ALTRET(PARSE_ERR);
      274     7371    4              DO CASE(OUT$BLK.CODE);
      275     7372    4               CASE(%NULL_CMD);
      276     7373    4               CASE(%PO_CMD);
      277     7374    4                 IF POCMD_FLG THEN
      278     7375    4                    CALL ERRMSG(%E$DUPERR,DCBNUM(NIL));
      279     7376    5                 ELSE DO I=0 TO OUT$BLK.NSUBLKS-1;
      280     7377    5                    IF OUT$BLK.SUBLK$(I)->OUT$BLK.CODE=%NO_FILES_OPT THEN
      281     7378    5                       NOFILES_FLG='1'B;
      282     7379    6                    ELSE DO;
      283     7380    6                       ID_SITEINFO.VERSION#=OUT$BLK.SUBLK$(I)->SYM$BLK.TEXT;
      284     7381    6                       POCMD_FLG='1'B;
      285     7382    6                       END;
      286     7383    5                    END;
      287     7384    4               CASE(%BOOT_CMD);
      288     7385    4                 CALL IDE$CHK_CMD(BOOTSTRAP) ALTRET(NEXT_COMMAND);
      289     7386    4                 CALL PARSE_FID(OUT$BLK.SUBLK$(0)->OUT$BLK) ALTRET(NEXT_COMMAND);
      290     7387    4                 BOOTSTRAP=FID_BLK;
      291     7388    4               CASE(%FIRM_CMD);
      292     7389    4                 CALL IDE$CHK_CMD(FIRMWARE) ALTRET(NEXT_COMMAND);
      293     7390    4                 CALL PARSE_FID(OUT$BLK.SUBLK$(0)->OUT$BLK) ALTRET(NEXT_COMMAND);
      294     7391    4                 FIRMWARE=FID_BLK;
      295     7392    4               CASE(%ASCHEMA_CMD);
      296     7393    4                 CALL IDE$CHK_CMD(ASCHEMA) ALTRET(NEXT_COMMAND);
      297     7394    4                 CALL PARSE_FID(OUT$BLK.SUBLK$(0)->OUT$BLK) ALTRET(NEXT_COMMAND);
      298     7395    4                 ASCHEMA=FID_BLK;
PL6.E3A0      #001=IDD$DEF File=IDD$DEF.:E05TSI                                  TUE 07/29/97 22:29 Page:10
      299     7396    4                 ASCHEMA_FLG='1'B;
      300     7397    4                 ASCHEMA_TYP=OUT$BLK.SUBLK$(1)->OUT$BLK.CODE;
      301     7398    4               CASE(%MON_CMD);
      302     7399    4                 CALL IDE$CHK_CMD(MONSTER) ALTRET(NEXT_COMMAND);
      303     7400    4                 CALL PARSE_FID(OUT$BLK.SUBLK$(0)->OUT$BLK) ALTRET(NEXT_COMMAND);
      304     7401    4                 MONSTER=FID_BLK;
      305     7402    4               CASE(%MHJIT_CMD);
      306     7403    4                 CALL IDE$CHK_CMD(MHJIT) ALTRET(NEXT_COMMAND);
      307     7404    4                 CALL PARSE_FID(OUT$BLK.SUBLK$(0)->OUT$BLK) ALTRET(NEXT_COMMAND);
      308     7405    4                 MHJIT=FID_BLK;
      309     7406    4               CASE(%GHOST1_CMD);
      310     7407    4                 CALL IDE$CHK_CMD(GHOST1) ALTRET(NEXT_COMMAND);
      311     7408    4                 CALL PARSE_FID(OUT$BLK.SUBLK$(0)->OUT$BLK) ALTRET(NEXT_COMMAND);
      312     7409    4                 GHOST1=FID_BLK;
      313     7410    5                 IF G1HJIT.FLAGS.CMD='0'B THEN DO;
      314     7411    5                    G1HJIT.ACCN=GHOST1.ACCN;
      315     7412    5                    G1HJIT.RESULT.ACCN=GHOST1.RESULT.ACCN;
      316     7413    5                    END;
      317     7414    4               CASE(%G1HJIT_CMD);
      318     7415    4                 CALL IDE$CHK_CMD(G1HJIT) ALTRET(NEXT_COMMAND);
      319     7416    4                 CALL PARSE_FID(OUT$BLK.SUBLK$(0)->OUT$BLK) ALTRET(NEXT_COMMAND);
      320     7417    4                 G1HJIT=FID_BLK;
      321     7418    4               CASE(%XDLT_CMD);
      322     7419    4                 CALL IDE$CHK_CMD(XDLT) ALTRET(NEXT_COMMAND);
      323     7420    5                 DO I=0 TO OUT$BLK.NSUBLKS-1;
      324     7421    5                    IF OUT$BLK.SUBLK$(I)->OUT$BLK.CODE=100 THEN
      325     7422    5                       SCHEMA_FLAG='0'B;
      326     7423    6                    ELSE DO;
      327     7424    6                       CALL PARSE_FID(OUT$BLK.SUBLK$(I)->OUT$BLK) ALTRET(NEXT_COMMAND);
      328     7425    6                       XDLT=FID_BLK;
      329     7426    6                       END;
      330     7427    5                    END;
      331     7428    5                 IF NOT XDLTLS.FLAGS.CMD THEN DO;
      332     7429    5                    XDLTLS.ACCN=XDLT.ACCN;
      333     7430    5                    XDLTLS.RESULT.ACCN=XDLT.RESULT.ACCN;
      334     7431    5                    END;
      335     7432    4               CASE(%XDLTLS_CMD);
PL6.E3A0      #001=IDD$DEF File=IDD$DEF.:E05TSI                                  TUE 07/29/97 22:29 Page:11
      336     7433    4                 CALL IDE$CHK_CMD(XDLTLS) ALTRET(NEXT_COMMAND);
      337     7434    4                 CALL PARSE_FID(OUT$BLK.SUBLK$(0)->OUT$BLK) ALTRET(NEXT_COMMAND);
      338     7435    4                 XDLTLS=FID_BLK;
      339     7436    4               CASE(%PATCH_CMD);
      340     7437    5                 DO I=0 TO OUT$BLK.NSUBLKS-1;
      341     7438    5                    CALL BUILD_INCLSPEC(OUT$BLK.SUBLK$(I)->OUT$BLK) ALTRET(PTCHSKIP);
      342     7439    5                    IF ID_PTCHHEAD$=ADDR(NIL) THEN ID_PTCHHEAD$=CMDSEG$;
      343     7440    5                    IF ID_PTCHTAIL$~=ADDR(NIL) THEN
      344     7441    5                       ID_PTCHTAIL$->INCLSPEC.FL$=CMDSEG$;
      345     7442    5                    ID_PTCHTAIL$=CMDSEG$;
      346     7443    5                    CMDSEG$=PINCRW(CMDSEG$,SIZEW(INCLSPEC));
      347     7444    5                    CMDSEGSZ=CMDSEGSZ-SIZEW(INCLSPEC);
      348     7445    5   PTCHSKIP:        END;
      349     7446    4               CASE(%INSTALL_CMD);
      350     7447    4                 CALL IDE$CHK_CMD(XINSTALL) ALTRET(NEXT_COMMAND);
      351     7448    4                 CALL PARSE_FID(OUT$BLK.SUBLK$(0)->OUT$BLK) ALTRET(NEXT_COMMAND);
      352     7449    4                 XINSTALL=FID_BLK;
      353     7450    4                 XINSTALL.ASFILE.L=LENGTHC('$XINSTALL');
      354     7451    4                 XINSTALL.ASFILE.C='$XINSTALL';
      355     7452    4               CASE(%INCLUDE_CMD);
      356     7453    4                 LABEL_FLG='1'B;
      357     7454    5                 DO I=0 TO OUT$BLK.NSUBLKS-1;
      358     7455    5                    CALL BUILD_INCLSPEC(OUT$BLK.SUBLK$(I)->OUT$BLK.SUBLK$(0)->OUT$BLK)
              7455                             ALTRET(INCLSKIP);
      359     7456    6                    IF OUT$BLK.SUBLK$(I)->OUT$BLK.NSUBLKS=2 THEN DO;
      360     7457    6                       CMDSEG$->INCLSPEC.ASFILE.L=OUT$BLK.SUBLK$(I)->OUT$BLK.SUBLK$(1)
              7457                                ->SYM$BLK.COUNT;
      361     7458    6                       CMDSEG$->INCLSPEC.ASFILE.C=OUT$BLK.SUBLK$(I)->OUT$BLK.SUBLK$(1)
              7458                                ->SYM$BLK.TEXT;
      362     7459    6                       END;
      363     7460    5                    IF INCLHEAD$=ADDR(NIL) THEN INCLHEAD$=CMDSEG$;
      364     7461    5                    IF INCLTAIL$~=ADDR(NIL) THEN
      365     7462    5                       INCLTAIL$->INCLSPEC.FL$=CMDSEG$;
      366     7463    5                    INCLTAIL$=CMDSEG$;
      367     7464    5                    CMDSEG$=PINCRW(CMDSEG$,SIZEW(INCLSPEC));
      368     7465    5                    CMDSEGSZ=CMDSEGSZ-SIZEW(INCLSPEC);
      369     7466    5   INCLSKIP:        END;
PL6.E3A0      #001=IDD$DEF File=IDD$DEF.:E05TSI                                  TUE 07/29/97 22:29 Page:12
      370     7467    4               CASE(%SEARCH_CMD);
      371     7468    5                 DO I=0 TO OUT$BLK.NSUBLKS-1;
      372     7469    5                    CALL PARSE_FID(OUT$BLK.SUBLK$(I)->OUT$BLK) ALTRET(SRCHSKIP);
      373     7470    6                    IF FID_BLK.RESULT.FNAME THEN DO;
      374     7471    6                       J=OUT$BLK.SUBLK$(I)->OUT$BLK.CPOS;
      375     7472    6                       CALL ERRMSG(%E$FNAME_ILGL,DCBNUM(NIL),J);
      376     7473    6                       END;
      377     7474    6                    ELSE DO;
      378     7475    6                       IF CMDSEGSZ<SIZEW(SRCHSPEC) THEN
      379     7476    6                          CALL GET_CMD_SPACE;
      380     7477    6                       IF SRCHHEAD$=ADDR(NIL) THEN SRCHHEAD$=CMDSEG$;
      381     7478    6                       IF SRCHTAIL$~=ADDR(NIL) THEN
      382     7479    6                          SRCHTAIL$->SRCHSPEC.FL$=CMDSEG$;
      383     7480    6                       SRCHTAIL$=CMDSEG$;
      384     7481    6                       CMDSEG$->SRCHSPEC.ACCN=FID_BLK.ACCN;
      385     7482    6                       CMDSEG$->SRCHSPEC.SN=FID_BLK.SNX.TXT(0);
      386     7483    6                       CMDSEG$->SRCHSPEC.ASN=FID_BLK.ASNX;
      387     7484    6                       CMDSEG$->SRCHSPEC.FL$=ADDR(NIL);
      388     7485    6                       CMDSEG$=PINCRW(CMDSEG$,SIZEW(SRCHSPEC));
      389     7486    6                       CMDSEGSZ=CMDSEGSZ-SIZEW(SRCHSPEC);
      390     7487    6                       END;
      391     7488    5   SRCHSKIP:        END;
      392     7489    4               CASE(%ACCOUNT_CMD);
      393     7490    4                 LABEL_FLG='1'B;
      394     7491    4                 CALL PARSE_FID(OUT$BLK.SUBLK$(0)->OUT$BLK) ALTRET(NEXT_COMMAND);
      395     7492    5                 IF FID_BLK.RESULT.FNAME THEN DO;
      396     7493    5                    J=OUT$BLK.SUBLK$(0)->OUT$BLK.CPOS;
      397     7494    5                    CALL ERRMSG(%E$FNAME_ILGL,DCBNUM(NIL),J);
      398     7495    5                    GOTO NEXT_COMMAND;
      399     7496    5                    END;
      400     7497    5                 IF NOT FID_BLK.RESULT.ACCN THEN DO;
      401     7498    5                    J=OUT$BLK.SUBLK$(0)->OUT$BLK.CPOS;
      402     7499    5                    CALL ERRMSG(%E$NOACCN,DCBNUM(NIL),J);
      403     7500    5                    GOTO NEXT_COMMAND;
      404     7501    5                    END;
      405     7502    5                 DO I=1 TO OUT$BLK.NSUBLKS-1;
      406     7503    6                    IF OUT$BLK.SUBLK$(I)->SYM$BLK.COUNT > 2 THEN DO;
PL6.E3A0      #001=IDD$DEF File=IDD$DEF.:E05TSI                                  TUE 07/29/97 22:29 Page:13
      407     7504    6                       J=OUT$BLK.SUBLK$(I)->OUT$BLK.CPOS;
      408     7505    6                       CALL ERRMSG(%E$BADTYPE,DCBNUM(NIL),J);
      409     7506    6                       GOTO NEXT_COMMAND;
      410     7507    6                       END;
      411     7508    5                    END;
      412     7509    4                 TEMP = SIZEW(ACCNSPEC) + OUT$BLK.NSUBLKS/2;
      413     7510    4                 IF CMDSEGSZ<TEMP THEN
      414     7511    4                    CALL GET_CMD_SPACE;
      415     7512    4                 IF ACCNHEAD$=ADDR(NIL) THEN ACCNHEAD$=CMDSEG$;
      416     7513    4                 IF ACCNTAIL$~=ADDR(NIL) THEN
      417     7514    4                    ACCNTAIL$->ACCNSPEC.FL$=CMDSEG$;
      418     7515    4                 ACCNTAIL$=CMDSEG$;
      419     7516    4                 CMDSEG$->ACCNSPEC.ACCN=FID_BLK.ACCN;
      420     7517    4                 CMDSEG$->ACCNSPEC.SN.CNT=FID_BLK.SNX.CNT;
      421     7518    4                 CMDSEG$->ACCNSPEC.SN.TXT=FID_BLK.SNX.TXT(0);
      422     7519    4                 CMDSEG$->ACCNSPEC.ASN=FID_BLK.ASNX;
      423     7520    5                 DO I=1 TO OUT$BLK.NSUBLKS-1;
      424     7521    5                    CMDSEG$->ACCNSPEC.TYPE(I-1)=OUT$BLK.SUBLK$(I)->SYM$BLK.TEXT;
      425     7522    5                    END;
      426     7523    4                 CMDSEG$->ACCNSPEC.NTYPES=OUT$BLK.NSUBLKS-1;
      427     7524    4                 CMDSEG$->ACCNSPEC.FL$=ADDR(NIL);
      428     7525    4                 CMDSEG$=PINCRW(CMDSEG$,TEMP);
      429     7526    4                 CMDSEGSZ=CMDSEGSZ-TEMP;
      430     7527    4               CASE(%IGNORE_CMD);
      431     7528    5                 DO I=0 TO OUT$BLK.NSUBLKS-1;
      432     7529    5                    CALL BUILD_INCLSPEC(OUT$BLK.SUBLK$(I)->OUT$BLK) ALTRET(IGNRSKIP);
      433     7530    5                    IF IGNRHEAD$=ADDR(NIL) THEN IGNRHEAD$=CMDSEG$;
      434     7531    5                    IF IGNRTAIL$~=ADDR(NIL) THEN
      435     7532    5                       IGNRTAIL$->INCLSPEC.FL$=CMDSEG$;
      436     7533    5                    IGNRTAIL$=CMDSEG$;
      437     7534    5                    CMDSEG$=PINCRW(CMDSEG$,SIZEW(INCLSPEC));
      438     7535    5                    CMDSEGSZ=CMDSEGSZ-SIZEW(INCLSPEC);
      439     7536    5   IGNRSKIP:        END;
      440     7537    4               CASE(%SCHEMA_CMD);
      441     7538    5                 DO I=0 TO OUT$BLK.NSUBLKS-1;
      442     7539    6                    IF OUT$BLK.SUBLK$(I)->SYM$BLK.COUNT>2 THEN DO;
      443     7540    6                       TEMP=OUT$BLK.SUBLK$(I)->SYM$BLK.CPOS;
PL6.E3A0      #001=IDD$DEF File=IDD$DEF.:E05TSI                                  TUE 07/29/97 22:29 Page:14
      444     7541    6                       CALL ERRMSG(%E$FCG2BIG,DCBNUM(NIL),TEMP);
      445     7542        /*E*       ERROR:  IDD-E$FCG2BIG
      446     7543                   MESSAGE: FCGs for schema are one or two characters.
      447     7544        */
      448     7545    6                       END;
      449     7546    6                    ELSE DO;
      450     7547    6                       SCHEMA_TBL.FCG(SCHEMA_TBL.CNT)=OUT$BLK.SUBLK$(I)->SYM$BLK.TEXT;
      451     7548    6                       SCHEMA_TBL.CNT=SCHEMA_TBL.CNT+1;
      452     7549    6                       END;
      453     7550    5                    END;
      454     7551    4               CASE(%END_CMD);
      455     7552    4                 END_FLG='1'B;
      456     7553    4               CASE(%SITEID_CMD);
      457     7554    4                 ID_SITEINFO.SITE_ID#=OUT$BLK.SUBLK$(0)->SYM$BLK.TEXT;
      458     7555    4               CASE(%SITENAME_CMD);
      459     7556    4                 ID_SITEINFO.SITE_NAME#.L=OUT$BLK.SUBLK$(0)->SYM$BLK.COUNT;
      460     7557    4                 ID_SITEINFO.SITE_NAME#.C=OUT$BLK.SUBLK$(0)->SYM$BLK.TEXT;
      461     7558    4               CASE(%SALUTATION_CMD);
      462     7559    4                 ID_SITEINFO.SALUTATION#.L=OUT$BLK.SUBLK$(0)->SYM$BLK.COUNT;
      463     7560    4                 ID_SITEINFO.SALUTATION#.C=OUT$BLK.SUBLK$(0)->SYM$BLK.TEXT;
      464     7561    4               CASE(%MINI_ID_CMD);
      465     7562    4                 ID_SITEINFO.MINI_ID#=OUT$BLK.SUBLK$(0)->SYM$BLK.TEXT;
      466     7563    4               CASE(%DENSITY_CMD);
      467     7564    4                 ID_DENSITY=OUT$BLK.SUBLK$(0)->OUT$BLK.CODE;
      468     7565    4               CASE(%NOFILES_CMD);
      469     7566    4                 NOFILES_FLG='1'B;
      470     7567    4               CASE(%NOLIST_CMD);
      471     7568    4                 ID_LISTFLG='0'B;
      472     7569    4               CASE(%VERIFY_CMD);
      473     7570    4                 ID_VERIFLG='1'B;
      474     7571    4               CASE(%BLOCK_CMD);
      475     7572    5                 IF B$JIT.PRIV.ACTIVE & %PR_FMBLK# THEN DO;
      476     7573    5                    BLOCKFLG='1'B;
      477     7574    5                    END;
      478     7575    5                 ELSE DO;
      479     7576    5                    CALL ERRMSG(%E$NOBLK);
      480     7577    5                    END;
PL6.E3A0      #001=IDD$DEF File=IDD$DEF.:E05TSI                                  TUE 07/29/97 22:29 Page:15
      481     7578        /**/
      482     7579        /*E*    ERROR: IDD-E$NOBLK
      483     7580        MESSAGE: DEF does not have FMBLK privilege.  Tape will not be written in block mode.
      484     7581                MESSAGE1: DEF must reside in the :SYS account to write block mode tapes.
      485     7582                DESCRIPTION:  DEF must be linked with the FMBLK privilege and
      486     7583                reside in :SYS to write block mode tapes.
      487     7584                                                                           */
      488     7585    4               CASE(%HELP_CMD);
      489     7586    4                 XUH_PARAM.HELP$=OUT$BLK.SUBLK$(0)->SYM$BLK.TEXTC$;
      490     7587    4                 CALL XUR$HELP(XUH_PARAM);
      491     7588    4               CASE(%SNGLQ_CMD);
      492     7589    4                 CALL XUR$MOREMSG(XUH_PARAM) ALTRET(NO_MORE);
      493     7590    5                 DO NEVER;
      494     7591    5   NO_MORE:         CALL ERRMSG(%E$ID_NO_MORE);
      495     7592        /*E*    ERROR:   IDD-E$ID_NO_MORE
      496     7593                MESSAGE: No messages available
      497     7594               MESSAGE1: Th Th Th That's all folks!
      498     7595        */
      499     7596    5                    END;
      500     7597    4               CASE(%DBLQ_CMD);
      501     7598    4                 CALL XUR$ALLMSG(XUH_PARAM) ALTRET(NO_MORE);
      502     7599    4               CASE(%QUIT_CMD);
      503     7600    4                 CALL XUR$CLOSE_DCBS;
      504     7601    4                 CALL M$EXIT (FPT_EXIT);
      505     7602    4               CASE(%NOBOOT_CMD);
      506     7603    4                 BOOT_FLG='0'B;
      507     7604    4               END;                        /* CASE OUT$BLK.CODE                  */
      508     7605    3   NEXT_COMMAND:
      509     7606    3              END;                         /* DO WHILE ~END_FLG                  */
      510     7607    2           IF ID_SITEINFO.MINI_ID#=' ' THEN
      511     7608    2              CALL CONCAT(TAPEID,
      512     7609    2                'CP-6 ',
      513     7610    2                SUBSTR(ID_SITEINFO.VERSION#,0,3),
      514     7611    2                TBUFR);
      515     7612    2           ELSE
      516     7613    2              CALL CONCAT(TAPEID,
      517     7614    2                'CP-6 ',
PL6.E3A0      #001=IDD$DEF File=IDD$DEF.:E05TSI                                  TUE 07/29/97 22:29 Page:16
      518     7615    2                SUBSTR(ID_SITEINFO.VERSION#,0,3),
      519     7616    2                ID_SITEINFO.MINI_ID#,
      520     7617    2                TBUFR);
      521     7618    3           IF SRCHHEAD$=ADDR(NIL) THEN DO;
      522     7619    3              IF CMDSEGSZ<SIZEW(SRCHSPEC) THEN
      523     7620    3                 CALL GET_CMD_SPACE;
      524     7621    3              CMDSEG$->SRCHSPEC.FL$=ADDR(NIL);
      525     7622    3              CMDSEG$->SRCHSPEC.ACCN=B$JIT.FACCN;
      526     7623    3              CMDSEG$->SRCHSPEC.SN=' ';
      527     7624    3              CMDSEG$->SRCHSPEC.ASN=%FILE#;
      528     7625    3              SRCHHEAD$=CMDSEG$;
      529     7626    3              SRCHTAIL$=CMDSEG$;
      530     7627    3              CMDSEG$=PINCRW(CMDSEG$,SIZEW(SRCHSPEC));
      531     7628    3              END;
      532     7629    2           IF ABORT_FLG THEN CALL EXIT_DEF;
      533     7630    2           RETURN;
      534     7631    2   PARSE_ERR:
      535     7632    2           I=P_PCB.HI_CHAR;
      536     7633    3           IF PARSERR.MON THEN DO;
      537     7634    3              IF PARSERR.CODE~=%E$EOF THEN ABORT_FLG='1'B;
      538     7635    3              END_FLG='1'B;
      539     7636    3              I=0;
      540     7637    3              END;
      541     7638    3           IF I>0 THEN DO;
      542     7639    3              CALL ERRMSG(PARSERR,DCBNUM(NIL),I);
      543     7640    3              END;
      544     7641    3           ELSE DO;
      545     7642    3              CALL ERRMSG(PARSERR,DCBNUM(NIL));
      546     7643    3              END;
      547     7644    2           GOTO NEXT_COMMAND;
      548     7645    2   END READ_DEF_COMMANDS;
      549     7646        %EJECT;
PL6.E3A0      #001=IDD$DEF File=IDD$DEF.:E05TSI                                  TUE 07/29/97 22:29 Page:17
      550     7647    1   EXIT_DEF: PROC;
      551     7648    2   DCL EXITFMT CHAR(0) STATIC INIT(
      552     7649    2           'DEF processing completed at%A');
      553     7650    2   DCL VERIFMT CHAR(0) STATIC INIT(
      554     7651    2           'DEF verification completed at%A');
      555     7652    2   DCL XXXFMT CHAR(0) STATIC INIT(
      556     7653    2           'DEF abort at%A');
      557     7654        /**/
      558     7655    2           CALL M$TIME(FPT_TIME);
      559     7656    3           IF ABORT_FLG THEN DO;
      560     7657    3              CALL X$WRITE(F_FDS,VECTOR(XXXFMT),VECTOR(TBUF));
      561     7658    3              CALL M$XXX;
      562     7659    3              END;
      563     7660    3           ELSE DO;
      564     7661    3              IF ID_VERIFLG THEN
      565     7662    3                 CALL X$WRITE(F_FDS,VECTOR(VERIFMT),VECTOR(TBUF));
      566     7663    3              ELSE
      567     7664    3                 CALL X$WRITE(F_FDS,VECTOR(EXITFMT),VECTOR(TBUF));
      568     7665    3              CALL XUR$CLOSE_DCBS;
      569     7666    4              IF DCBADDR(DCBNUM(M$PO))->F$DCB.FCI THEN DO;
      570     7667    4                 FPT_REM.V.PSN#=M$PO$->F$DCB.PSN;
      571     7668    4                 CALL M$REM(FPT_REM) ALTRET(REM_ERR);
      572     7669    4   REM_ERR:      ;
      573     7670    4                 END;
      574     7671    4              ELSE IF DCBADDR(DCBNUM(M$AS))->F$DCB.FCI THEN DO;
      575     7672    4                    FPT_REM.V.PSN#=M$AS$->F$DCB.PSN;
      576     7673    4                    CALL M$REM(FPT_REM);
      577     7674    4                    END;
      578     7675    3              CALL M$EXIT (FPT_EXIT);
      579     7676    3              END;
      580     7677    2   END EXIT_DEF;
      581     7678        %EJECT;
PL6.E3A0      #001=IDD$DEF File=IDD$DEF.:E05TSI                                  TUE 07/29/97 22:29 Page:18
      582     7679    1   GET_CMD_SPACE: PROC;
      583     7680    2           CALL IDD$GETSEG(CMDSEG,CMDSEG.BOUND/4+1025) ALTRET(NO_MEM);
      584     7681    2           CMDSEGSZ=CMDSEGSZ+1024;
      585     7682    2           RETURN;
      586     7683    2   NO_MEM:
      587     7684    2           ERRCODE=B$TCB$->B$TCB.ALT$->B$ALT.ERR;
      588     7685    2           CALL ERRMSG(ERRCODE,DCBNUM(NIL));
      589     7686    2           ABORT_FLG='1'B;
      590     7687    2           CALL EXIT_DEF;
      591     7688    2   END GET_CMD_SPACE;
      592     7689        %EJECT;
PL6.E3A0      #001=IDD$DEF File=IDD$DEF.:E05TSI                                  TUE 07/29/97 22:29 Page:19
      593     7690    1   PARSE_FID: PROC(OUTSYM) ALTRET;
      594     7691        /**/
      595     7692        %PARSE$SYM (NAME=OUTSYM,STCLASS="");
      596     7730        /**/
      597     7731        %FPT_FID (NAME=FID_BLK.FNAME,
      598     7732                  ACCT=FID_BLK.ACCN,
      599     7733                  PASS=FID_BLK.PASW,
      600     7734                  ASN=FID_BLK.ASNX,
      601     7735                  RES=FID_BLK.RESX,
      602     7736                  SN=FID_BLK.SNX,
      603     7737                  WSN=FID_BLK.WSNX,
      604     7738                  RESULTS=FID_BLK.RESULT);
      605     7761    3           IF OUTSYM.CODE=101 THEN DO;
      606     7762    3              FID_BLK.FLAGS.SKIP='1'B;
      607     7763    3              RETURN;
      608     7764    3              END;
      609     7765    2           FPT_FID.TEXTFID_=VECTOR(OUTSYM.TEXT);
      610     7766    2           CALL M$FID(FPT_FID) ALTRET(BAD_FID);
      611     7767    2           IF FID_BLK.RESULT.ACCN THEN
      612     7768    2              IF FID_BLK.ACCN=' ' THEN FID_BLK.ACCN=B$JIT$->B$JIT.FACCN;
      613     7769    2           IF FID_BLK.RESULT.FNAME AND FID_BLK.FNAME.CNT=0 THEN
      614     7770    2              FID_BLK.RESULT.FNAME='0'B;
      615     7771    2           IF NOT FID_BLK.RESULT.SNX THEN
      616     7772    2              FID_BLK.SNX.TXT(0)=' ';
      617     7773    2           FID_BLK.FLAGS.CMD='1'B;
      618     7774    2           RETURN;
      619     7775    2   BAD_FID:
      620     7776    2           J=OUTSYM.CPOS;
      621     7777    2           CALL ERRMSG(B$TCB$->B$TCB.ALT$->B$ALT.ERR,DCBNUM(NIL),J);
      622     7778    2           ALTRETURN;
      623     7779    2   END PARSE_FID;
      624     7780        %EJECT;
PL6.E3A0      #001=IDD$DEF File=IDD$DEF.:E05TSI                                  TUE 07/29/97 22:29 Page:20
      625     7781    1   BUILD_INCLSPEC: PROC(OUTBLK) ALTRET;
      626     7782        /**/
      627     7783        %PARSE$OUT (NAME=OUTBLK,STCLASS="");
      628     7828    2           CALL PARSE_FID(OUTBLK) ALTRET(BAD_FID);
      629     7829    3           IF NOT FID_BLK.RESULT.FNAME OR FID_BLK.FNAME.CNT=0 THEN DO;
      630     7830    3              J=OUTBLK.CPOS;
      631     7831    3              CALL ERRMSG(%E$NOFNAME,DCBNUM(NIL),J);
      632     7832    3              ALTRETURN;
      633     7833    3              END;
      634     7834    2           IF CMDSEGSZ<SIZEW(INCLSPEC) THEN
      635     7835    2              CALL GET_CMD_SPACE;
      636     7836    2           CMDSEG$->INCLSPEC='0'B;
      637     7837    2           CMDSEG$->INCLSPEC.FL$=ADDR(NIL);
      638     7838    2           CMDSEG$->INCLSPEC.FNAME=FID_BLK.FNAME;
      639     7839    2           CMDSEG$->INCLSPEC.ACCN=FID_BLK.ACCN;
      640     7840    2           CMDSEG$->INCLSPEC.PASW=FID_BLK.PASW;
      641     7841    2           CMDSEG$->INCLSPEC.RESX=FID_BLK.RESX;
      642     7842    2           CMDSEG$->INCLSPEC.SNX=FID_BLK.SNX;
      643     7843    2           CMDSEG$->INCLSPEC.WSNX=FID_BLK.WSNX;
      644     7844    2           CMDSEG$->INCLSPEC.RESULT=FID_BLK.RESULT;
      645     7845    2           CMDSEG$->INCLSPEC.RESULT.FOUND='0'B;
      646     7846    2           CMDSEG$->INCLSPEC.ASNX=FID_BLK.ASNX;
      647     7847    2           RETURN;
      648     7848    2   BAD_FID:
      649     7849    2           ALTRETURN;
      650     7850    2   END BUILD_INCLSPEC;
      651     7851        %EJECT;
PL6.E3A0      #001=IDD$DEF File=IDD$DEF.:E05TSI                                  TUE 07/29/97 22:29 Page:21
      652     7852    1   INSTALL_FILE: PROC;
      653     7853    2           CALL IDO$OPENFILE(XINSTALL,DCBNUM(M$INPUT),ERRCODE,VECTOR(FPARAM)) ALTRET(
              7853                    NO_INSTALL);
      654     7854    2           CALL IDC$COPY(DCBNUM(M$INPUT),VECTOR(FPARAM),XINSTALL);
      655     7855    2           RETURN;
      656     7856        /**/
      657     7857    2   NO_INSTALL:
      658     7858    2           CALL ERRMSG;
      659     7859    2           CALL ERRMSG(%E$ID_NO_INSTALL,,,4);
      660     7860        /*E*    ERROR:   IDD-E$ID_NO_INSTALL
      661     7861                MESSAGE: No $XINSTALL file was written on this PO tape.
      662     7862                                                                           */
      663     7863    2           CALL M$OPEN(FPT_OPEN) ALTRET(DUMMY_ERR);
      664     7864    2           CALL M$CLOSE(FPT_CLOSE) ALTRET(DUMMY_ERR);
      665     7865    2           RETURN;
      666     7866        /**/
      667     7867    2   DUMMY_ERR:
      668     7868    2           CALL ERRMSG;
      669     7869    2           RETURN;
      670     7870    2   END INSTALL_FILE;
      671     7871        %EJECT;
PL6.E3A0      #001=IDD$DEF File=IDD$DEF.:E05TSI                                  TUE 07/29/97 22:29 Page:22
      672     7872    1   CVOL:   PROC;
      673     7873    2           IF ID_VERIFLG THEN RETURN;
      674     7874    2           CALL IDE$FMSECON;
      675     7875    2           CALL M$OPEN(FPT_OPEN) ALTRET(CVOL_ERR);
      676     7876    3           IF LABEL_FLG THEN DO;
      677     7877    3              FPT_CLOSE.V.POS#=0;
      678     7878    3              CALL M$CVOL(FPT_CVOL) ALTRET(CVOL_ERR);
      679     7879    3              END;
      680     7880    3           ELSE DO;
      681     7881    3              FPT_CLOSE.V.POS#=%POT#;
      682     7882    3              END;
      683     7883    2           CALL M$CLOSE(FPT_CLOSE) ALTRET(CVOL_ERR);
      684     7884    2           FPT_CLOSE.V.POS#=0;             /* CLEAN UP FPT                       */
      685     7885    2           CALL IDE$FMSECOFF;
      686     7886    2           RETURN;
      687     7887    2   CVOL_ERR:
      688     7888    2           CALL ERRMSG(B$TCB$->B$TCB.ALT$->B$ALT.ERR,DCBNUM(M$PO));
      689     7889    2           ABORT_FLG='1'B;
      690     7890    2           CALL EXIT_DEF;
      691     7891    2   END CVOL;
      692     7892        %EJECT;
PL6.E3A0      #001=IDD$DEF File=IDD$DEF.:E05TSI                                  TUE 07/29/97 22:29 Page:23
      693     7893    1   PROCESS_ACCOUNT_SPECS: PROC;
      694     7894        /**/
      695     7895    2   DCL ACCT$ PTR;
      696     7896    2   DCL IGNR$ PTR;
      697     7897    2   DCL TYPE1 CHAR(2);
      698     7898    2   DCL TYPE1A(0:1) REDEF TYPE1 CHAR(1);
      699     7899    2   DCL TYPE2 CHAR(2);
      700     7900    2   DCL TYPE2A(0:1) REDEF TYPE2 CHAR(1);
      701     7901    2   DCL ACCTHDR CHAR(0) STATIC INIT('%2/    FILES FROM .%>A:%/');
      702     7902        /**/
      703     7903    2           ACCT$=ACCNHEAD$;
      704     7904    3           DO WHILE (ACCT$~=ADDR(NIL));
      705     7905    3              IF NOT ID_VERIFLG THEN
      706     7906    3                 CALL X$WRITE(F_FDS,VECTOR(ACCTHDR),VECTOR(ACCT$->ACCNSPEC.ACCN));
      707     7907    3              CALL IDO$SETFIRST(DCBNUM(M$INPUT),ACCT$->ACCNSPEC);
      708     7908    4              DO WHILE('1'B);
      709     7909    4                 CALL IDO$OPENNEXT(DCBNUM(M$INPUT),VECTOR(FPARAM)) ALTRET(NXT_ACCT);
      710     7910    4                 IF ACCT$->ACCNSPEC.NTYPES=0 THEN
      711     7911    4                    GOTO CHK_IGNORE;
      712     7912    5                 ELSE DO I=0 TO ACCT$->ACCNSPEC.NTYPES-1;
      713     7913    5                    TYPE1=ACCT$->ACCNSPEC.TYPE(I);
      714     7914    5                    TYPE2=M$INPUT$->F$DCB.TYPE;
      715     7915    5                    IF TYPE1A(0)='?' THEN TYPE2A(0)='?';
      716     7916    5                    IF TYPE1A(1)='?' THEN TYPE2A(1)='?';
      717     7917    5                    IF TYPE1=TYPE2 THEN
      718     7918    5                       GOTO CHK_IGNORE;
      719     7919    5                    END /* DO I */;
      720     7920    4                 GOTO NEXT_FILE;
      721     7921    4   CHK_IGNORE:
      722     7922    4                 IGNR$=IGNRHEAD$;
      723     7923    5                 DO WHILE (IGNR$~=ADDR(NIL));
      724     7924    6                    IF M$INPUT$->F$DCB.NAME=IGNR$->INCLSPEC.FNAME THEN DO;
      725     7925    6                       IF M$INPUT$->F$DCB.ACCT=IGNR$->INCLSPEC.ACCN OR ~IGNR$->INCLSPEC
              7925                                .RESULT.ACCN THEN
      726     7926    6                          GOTO NEXT_FILE;
      727     7927    6                       END /* DO IF NAME */;
      728     7928    5                    IGNR$=IGNR$->INCLSPEC.FL$;
PL6.E3A0      #001=IDD$DEF File=IDD$DEF.:E05TSI                                  TUE 07/29/97 22:29 Page:24
      729     7929    5                    END /* DO WHILE IGNR$ */;
      730     7930    4                 CALL IDC$COPY(DCBNUM(M$INPUT),VECTOR(FPARAM));
      731     7931    4                 IF NOT ID_VERIFLG THEN CALL IDE$FILE(DCBNUM(M$INPUT));
      732     7932    4   NEXT_FILE:
      733     7933    4                 END /* DO FOREVER */;
      734     7934    3   NXT_ACCT:
      735     7935    3              ACCT$=ACCT$->ACCNSPEC.FL$;
      736     7936    3              CALL IDE$FLUSH;
      737     7937    3              END /* DO WHILE ACCT$ */;
      738     7938    2   END PROCESS_ACCOUNT_SPECS;
      739     7939        %EJECT;
PL6.E3A0      #001=IDD$DEF File=IDD$DEF.:E05TSI                                  TUE 07/29/97 22:29 Page:25
      740     7940    1   PROCESS_INCLUDE_SPECS: PROC;
      741     7941    2   DCL SRCH$ PTR;
      742     7942    2   DCL INCLHDR CHAR(0) STATIC INIT('%2/    INCLUDED FILES:%/');
      743     7943        /**/
      744     7944    2           IF NOT ID_VERIFLG THEN CALL X$WRITE(F_FDS,VECTOR(INCLHDR));
      745     7945    2           INCL$=INCLHEAD$;
      746     7946    3           DO WHILE (INCL$~=ADDR(NIL));
      747     7947    3              IF INCL$->INCLSPEC.RESULT.ACCN THEN
      748     7948    3                 CALL IDO$OPENFILE(INCL$->INCLSPEC.FNAME,DCBNUM(M$INPUT),ERRCODE,VECTOR
              7948                          (FPARAM))
      749     7949    4                 WHENALTRETURN DO;
      750     7950    4                    IF ERRCODE.ERR ~= %E$NOFILE THEN CALL ERRMSG (ERRCODE, DCBNUM(
              7950                             M$INPUT));
      751     7951    4                    GOTO NEXT_INCL_FILE;
      752     7952    4                    END;
      753     7953    4              ELSE DO;
      754     7954    4                 SRCH$=SRCHHEAD$;
      755     7955    4                 MOVESIZE=SIZEC(FID_BLK);
      756     7956    4                 ADDR(FID_BLK)->MOVEBASE=ADDR(INCL$->INCLSPEC.FNAME)->MOVEBASE;
      757     7957    4                 FID_BLK.RESULT.ACCN='1'B;
      758     7958    5                 DO WHILE (SRCH$~=ADDR(NIL));
      759     7959    5                    FID_BLK.ACCN=SRCH$->SRCHSPEC.ACCN;
      760     7960    5                    FID_BLK.SNX.CNT=1;
      761     7961    5                    FID_BLK.SNX.TXT(0)=SRCH$->SRCHSPEC.SN;
      762     7962    5                    FID_BLK.RESULT.SNX='1'B;
      763     7963    5                    FID_BLK.ASNX=SRCH$->SRCHSPEC.ASN;
      764     7964    5                    CALL IDO$OPENFILE(FID_BLK,DCBNUM(M$INPUT),ERRCODE,VECTOR(FPARAM))
              7964                             ALTRET(NEXT_SRCH_ACCT);
      765     7965    5                    GOTO FILE_OPEN;
      766     7966    5   NEXT_SRCH_ACCT:
      767     7967    5                    IF ERRCODE.ERR ~= %E$NOFILE THEN
      768     7968    5                       CALL ERRMSG (ERRCODE, DCBNUM(M$INPUT));
      769     7969    5                    SRCH$=SRCH$->SRCHSPEC.FL$;
      770     7970    5                    END /* DO WHILE SRCH$ */;
      771     7971    4                 GOTO NEXT_INCL_FILE;
      772     7972    4                 END /* ELSE DO */;
      773     7973    3   FILE_OPEN:
PL6.E3A0      #001=IDD$DEF File=IDD$DEF.:E05TSI                                  TUE 07/29/97 22:29 Page:26
      774     7974    3              CALL IDC$COPY(DCBNUM(M$INPUT),VECTOR(FPARAM),INCL$->INCLSPEC.FNAME);
      775     7975    3              IF NOT ID_VERIFLG THEN CALL IDE$FILEACCT(DCBNUM(M$INPUT));
      776     7976    3              INCL$->INCLSPEC.RESULT.FOUND='1'B;
      777     7977    3   NEXT_INCL_FILE:
      778     7978    3              INCL$=INCL$->INCLSPEC.FL$;
      779     7979    3              END /* DO WHILE INCL$ */;
      780     7980    2           CALL IDE$FLUSH;
      781     7981    2   END PROCESS_INCLUDE_SPECS;
      782     7982        %EJECT;
PL6.E3A0      #001=IDD$DEF File=IDD$DEF.:E05TSI                                  TUE 07/29/97 22:29 Page:27
      783     7983    1   WRITE_MISSING_STUFF: PROC;
      784     7984    2   DCL INCL_NOT_FOUND CHAR(0) STATIC INIT('%2/ INCLUDE FILES NOT FOUND:%/');
      785     7985    2   DCL REQ_NOT_FOUND CHAR(0) STATIC INIT('%2/ REQUIRED FILES NOT FOUND:%/');
      786     7986    2           CALL X$WRITE(F_FDS,VECTOR(INCL_NOT_FOUND));
      787     7987        /**/
      788     7988    2           INCL$=INCLHEAD$;
      789     7989    3           DO WHILE(INCL$~=ADDR(NIL));
      790     7990    4              IF NOT INCL$->INCLSPEC.RESULT.FOUND THEN DO;
      791     7991    4                 I=INCL$->INCLSPEC.FNAME.CNT;
      792     7992    4                 CALL IDE$WRTCOLUMN(INCL$->INCLSPEC.FNAME.TXT,I,16);
      793     7993    4                 END;
      794     7994    3              INCL$=INCL$->INCLSPEC.FL$;
      795     7995    3              END /* DO WHILE INCL$ */;
      796     7996    2           CALL IDE$FLUSH;
      797     7997    3           IF BOOT_FLG THEN DO;
      798     7998    3              CALL X$WRITE(F_FDS,VECTOR(REQ_NOT_FOUND));
      799     7999    4              DO I=1 TO REQUIRED.NUMBER;
      800     8000    5                 IF NOT REQUIRED.PROCESS.FOUND(I) AND REQUIRED.PROCESS.NAME(I)~=' '
              8000                          THEN DO;
      801     8001    5                    CALL INDEX(J,' ',REQUIRED.PROCESS.NAME(I));
      802     8002    5                    CALL IDE$WRTCOLUMN(REQUIRED.PROCESS.NAME(I),J,16);
      803     8003    5                    END;
      804     8004    4                 END;
      805     8005    3              CALL IDE$FLUSH;
      806     8006    3              END;
      807     8007    2           RETURN;
      808     8008    2   END WRITE_MISSING_STUFF;
      809     8009        %EJECT;
PL6.E3A0      #001=IDD$DEF File=IDD$DEF.:E05TSI                                  TUE 07/29/97 22:29 Page:28
      810     8010    1   ERRMSG: PROC(C#,EDCB,CPOS,FLAGLEV);
      811     8011    2   DCL C# BIT(36) UNAL;
      812     8012    2   DCL 1 CODE,
      813     8013    2         2 FCG BIT(18),
      814     8014    2         2 N UBIN(18) UNAL;
      815     8015    2   DCL EDCB SBIN;
      816     8016    2   DCL D# SBIN;
      817     8017    2   DCL CPOS SBIN;
      818     8018    2   DCL FLAGLEV SBIN;
      819     8019    2   DCL 1 ECODE STATIC,
      820     8020    2         2 FCG BIT(18) INIT('110404'O),
      821     8021    2         2 MON BIT(1) INIT('0'B),
      822     8022    2         2 CODE UBIN(14) UNAL,
      823     8023    2         2 SEV UBIN(3) UNAL INIT(0);
      824     8024        /**/
      825     8025        /**/
      826     8026        /**/
      827     8027    2           D#=DCBNUM(NIL);
      828     8028    3           IF ADDR(C#)=ADDR(NIL) THEN DO;
      829     8029    3              CODE=B$TCB$->B$TCB.ALT$->B$ALT.ERR;
      830     8030    3              D#=B$TCB$->B$TCB.ALT$->B$ALT.DCB#;
      831     8031    3              END;
      832     8032    3           ELSE DO;
      833     8033    3              CODE=C#;
      834     8034    3              END;
      835     8035    2           IF ADDR(EDCB)~=ADDR(NIL) THEN D#=EDCB;
      836     8036    3           IF ADDR(CPOS)~=ADDR(NIL) THEN DO;
      837     8037    3              CALL XUR$ERRPTR(CPOS,DCBNUM(M$DO));
      838     8038    3              END;
      839     8039    3           IF CODE.FCG THEN DO;
      840     8040    3              CALL XUR$ERRMSG(CODE,D#,,,,,FLAGLEV);
      841     8041    3              END;
      842     8042    3           ELSE DO;
      843     8043    3              ECODE.CODE=CODE.N;
      844     8044    3              CALL XUR$ERRMSG(ECODE,D#,,,,,FLAGLEV);
      845     8045    3              END;
      846     8046    2           FPT_EXIT.V.STEPCC# = 4;
PL6.E3A0      #001=IDD$DEF File=IDD$DEF.:E05TSI                                  TUE 07/29/97 22:29 Page:29
      847     8047    2           RETURN;
      848     8048    2   END ERRMSG;
      849     8049    1   END IDD$DEF;
      850     8050        %EOD;

PL6.E3A0      #001=IDD$DEF File=IDD$DEF.:E05TSI                                  TUE 07/29/97 22:29 Page:30
--  Include file information  --

   B$JIT.:E05TOU  cannot be made into a system file and is referenced.
   F$DCB.:E05TOU  cannot be made into a system file and is referenced.
   XUH_MACRO_C.:E05TOU  is referenced.
   XU_FORMAT_C.:E05TOU  is referenced.
   XU_MACRO_C.:E05TOU  is referenced.
   ID_PERR_C.:E05TOU  is referenced.
   ID_SUBS_C.:E05TOU  is referenced.
   ID_DATA_C.:E05TOU  is referenced.
   B_ERRORS_C.:E05TOU  is referenced.
   CP_6_SUBS.:E05TOU  is referenced.
   CP_6.:E05TOU  cannot be made into a system file and is referenced.
   XUF_ENTRY.:E05TOU  cannot be made into a system file and is referenced.
   XUR_ENTRY.:E05TOU  cannot be made into a system file and is referenced.
   B$JIT_C.:E05TOU  was found in the system file and is referenced.
   CP_6_C.:E05TOU  was found in the system file and is referenced.
      No diagnostics issued in procedure IDD$DEF.

   Procedure IDD$DEF requires 1812 words for executable code.
   Procedure IDD$DEF requires 1070 words of local(AUTO) storage.

PL6.E3A0      #001=IDD$DEF File=IDD$DEF.:E05TSI                                  TUE 07/29/97 22:29 Page:31

 Object Unit name= IDD$DEF                                    File name= IDD$DEF.:E05TOU
 UTS= JUL 29 '97 22:29:09.68 TUE                              Compiler= PL-6/E31         Sev=      00
 SharedLib= :SHARED_SYSTEM                                    Alt SharedLib=


    ****  Control sections  ****

 Sect   Type Bound  Init  Size OctSiz  Section name(segment info)
    0   DCB   even  none     0      0  M$UC
    1   Data  even  none  1182   2236  IDD$DEF
    2   DCB   even  none     0      0  M$SI
    3   DCB   even  none     0      0  M$LO
    4   DCB   even  none     0      0  M$INPUT
    5   DCB   even  none     0      0  M$DO
    6   DCB   even  none     0      0  M$PO
    7   DCB   even  none     0      0  M$AS
    8  RoData even  UTS     11     13  IDD$DEF
    9  LblCom even  none     6      6  FPT_EXIT
   10   Proc  even  none  1812   3424  IDD$DEF
   11  RoData even  none    97    141  IDD$DEF

    ****  Entry defs  ****

                              Check   Calling
                             calling  sequence
  Sect OctLoc Primary Altret sequence   type   Parms  Name
    10      0   yes            yes      Main       0  IDD$DEF
PL6.E3A0      #001=IDD$DEF File=IDD$DEF.:E05TSI                                  TUE 07/29/97 22:29 Page:32

  ****  Data defs  ****

 Sect OctLoc  Name                           Sect OctLoc  Name
    1      0  TAPEID                             1     13  BOOTSTRAP
    1     54  FIRMWARE                           1    115  MONSTER
    1    156  MHJIT                              1    217  GHOST1
    1    260  G1HJIT                             1    321  XDLT
    1    362  XDLTLS                             1    423  ASCHEMA
    1    464  FID_BLK                            1    525  XINSTALL
    1    570  ID_PTCHHEAD$                       1    602  M$INPUT$
    1    770  P_PCB                              1   1056  F_FDS
    1   1267  SCHEMA_FLAG                        1   1274  ID_BLOCKFLG
    1   1275  ASCHEMA_FLG                        1   1276  ASCHEMA_TYP
    1   1277  REQUIRED                           1   1670  SCHEMA_TBL
    1   1770  ID_SITEINFO                        1   2066  ID_SNLIST
    1   2105  ID_ASLIST                          1   2111  ID_DENSITY
    1   2116  ID_VERIFLG                         1   2120  ID_VERISEG
    1   2122  ID_LISTFLG
PL6.E3A0      #001=IDD$DEF File=IDD$DEF.:E05TSI                                  TUE 07/29/97 22:29 Page:33

  ****  Entry refs  ****

         Check        Calling
        calling       sequence
Altret sequence SRef   type   Args  Name
 yes     yes           Std       2 XTX$ADAPT
         yes           Std       0 IDU$BOOT
 yes     yes           Std       3 XUR$INIT
         yes           Std       0 IDE$FMSECOFF
         yes           Std      22 X$WRITE
         yes           Std       0 IDU$ALTSCH
 yes     yes           Std       2 IDD$GETSEG
 yes     yes           Std       6 XUR$GETCMD
 yes     yes           Std       1 IDE$CHK_CMD
 yes     yes           Std       1 XUR$MOREMSG
         yes           Std       2 XUR$CLOSE_DCBS
 yes     yes           Std       1 XUR$HELP
 yes     yes           Std       1 XUR$ALLMSG
 yes     yes           Std       4 IDO$OPENFILE
         yes           Std       3 IDC$COPY
         yes           Std       0 IDE$FMSECON
         yes           Std       2 IDO$SETFIRST
 yes     yes           Std       2 IDO$OPENNEXT
         yes           Std       1 IDE$FILE
         yes           Std       0 IDE$FLUSH
         yes           Std       1 IDE$FILEACCT
         yes           Std       3 IDE$WRTCOLUMN
 yes     yes           Std       2 XUR$ERRPTR
 yes     yes           Std       7 XUR$ERRMSG
                       nStd      0 X66_MAUTO
                       Std       0 B_CONSPOOL_D
                       nStd      0 X66_MARET
PL6.E3A0      #001=IDD$DEF File=IDD$DEF.:E05TSI                                  TUE 07/29/97 22:29 Page:34

  ****  Data refs  ****

  Flags:  r = read only, s = secondary
Flgs Name                             Flgs Name                             Flgs Name
     M$UC                                  B$JIT$                                B$TCB$
     M$SI                                  M$LO                                  M$INPUT
     M$DO                                  M$PO                                  M$AS
     ID_NODES                              B_VERSION                             B_VECTNIL

  ****  Segment refs  ****

  Flags:  r = read only, s = secondary
Flgs Name                             Flgs Name                             Flgs Name
     NULLSID                               ISSID                                 ROSID
PL6.E3A0      #001=IDD$DEF File=IDD$DEF.:E05TSI                                  TUE 07/29/97 22:29 Page:35


        1        1        /*M* IDD$DEF - CP-6 DEF MAIN PROGRAM */
        2        2        /*T***********************************************************/
        3        3        /*T*                                                         */
        4        4        /*T* Copyright (c) Bull HN Information Systems Inc., 1997    */
        5        5        /*T*                                                         */
        6        6        /*T***********************************************************/
        7        7        /*X* */
        8        8        /**/
        9        9        IDD$DEF: PROC MAIN;

      9 10 000000   000000 700200 xent  IDD$DEF      TSX0  ! X66_MAUTO
        10 000001   002056 000000                    ZERO    1070,0

       10       10        /**/
       11       11    1   DCL IDD$GETSEG ENTRY(2) ALTRET;
       12       12    1   DCL IDO$OPENFILE ENTRY(4) ALTRET;
       13       13    1   DCL IDO$SETFIRST ENTRY(2);
       14       14    1   DCL IDO$OPENNEXT ENTRY(2) ALTRET;
       15       15    1   DCL IDU$BOOT ENTRY;
       16       16    1   DCL IDU$ALTSCH ENTRY;
       17       17    1   DCL IDC$COPY ENTRY(3);
       18       18    1   DCL IDE$CHK_CMD ENTRY(1) ALTRET;
       19       19    1   DCL IDE$FMSECON ENTRY;
       20       20    1   DCL IDE$FMSECOFF ENTRY;
       21       21        %INCLUDE XUR_ENTRY;
       22       53    1   DCL IDE$FLUSH ENTRY;
       23       54    1   DCL IDE$FILE ENTRY(1);
       24       55    1   DCL IDE$FILEACCT ENTRY(1);
       25       56    1   DCL IDE$WRTCOLUMN ENTRY(3);
       26       57        %INCLUDE XUF_ENTRY;
       27       65        /**/
       28       66        %INCLUDE CP_6;
       29      147        %INCLUDE CP_6_SUBS;
       30      687        %INCLUDE B_ERRORS_C;
       31     1814        %INCLUDE ID_DATA_C;
       32     1875        %INCLUDE ID_SUBS_C;
PL6.E3A0      #001=IDD$DEF File=IDD$DEF.:E05TSI                                  TUE 07/29/97 22:29 Page:36
       33     1929        %INCLUDE ID_PERR_C;
       34     1971        %INCLUDE XU_MACRO_C;
       35     5077        %INCLUDE XU_FORMAT_C;
       36     5239        %INCLUDE XUH_MACRO_C;
       37     5323        %INCLUDE F$DCB;
       38     5372    1   DCL B$JIT$ PTR SYMREF;
       39     5373        %INCLUDE B$JIT;
       40     5663    1   DCL B$TCB$ PTR SYMREF;
       41     5664        %B$TCB;
       42     5667        %B$ALT;
       43     5675        /**/
       44     5676        /* COMMAND TABLES */
       45     5677        /**/
       46     5678    1   DCL TAPEID CHAR(28) STATIC SYMDEF;
       47     5679    1   DCL 1 TBUF STATIC CALIGNED,
       48     5680    1         2 * CHAR(1) INIT(' '),
       49     5681    1         2 TIME CHAR(5),
       50     5682    1         2 * CHAR(1) INIT(' '),
       51     5683    1         2 DATE CHAR(8),
       52     5684    1         2 * CHAR(1) INIT(' ');
       53     5685    1   DCL TBUFR REDEF TBUF CHAR(16);
       54     5686        %FIDBLK (NAME=BOOTSTRAP,DNAME='AARDVARK');
       55     5738        %FIDBLK (NAME=FIRMWARE,DNAME='FIRMWARE');
       56     5790        %FIDBLK (NAME=MONSTER,DNAME='M:MON');
       57     5842        %FIDBLK (NAME=MHJIT,DNAME='MHJIT');
       58     5894        %FIDBLK (NAME=GHOST1,DNAME='GHOST1');
       59     5946        %FIDBLK (NAME=G1HJIT,DNAME='G1HJIT');
       60     5998        %FIDBLK (NAME=XDLT,DNAME='XDELTA');
       61     6050        %FIDBLK (NAME=XDLTLS,DNAME='XDELTALS');
       62     6102        %FIDBLK (NAME=ASCHEMA,DNAME='ASCHEMA');
       63     6154        %FIDBLK (NAME=FID_BLK,DNAME='?');
       64     6206        %FIDBLK (NAME=XINSTALL,DNAME='$XINSTALL',ASNAME='$XINSTALL');
       65     6258    1   DCL MOVEBASE CHAR(MOVESIZE) BASED;
       66     6259    1   DCL MOVESIZE SBIN;
       67     6260    1   DCL INCLHEAD$ PTR STATIC INIT(ADDR(NIL));
       68     6261    1   DCL INCLTAIL$ PTR STATIC INIT(ADDR(NIL));
       69     6262        %FIDBLK (NAME=INCLSPEC,STCLASS=BASED,LINKED=YES);
PL6.E3A0      #001=IDD$DEF File=IDD$DEF.:E05TSI                                  TUE 07/29/97 22:29 Page:37
       70     6314    1   DCL ID_PTCHHEAD$ PTR STATIC SYMDEF INIT(ADDR(NIL));
       71     6315    1   DCL ID_PTCHTAIL$ PTR STATIC INIT(ADDR(NIL));
       72     6316    1   DCL SRCHHEAD$ PTR STATIC INIT(ADDR(NIL));
       73     6317    1   DCL SRCHTAIL$ PTR STATIC INIT(ADDR(NIL));
       74     6318    1   DCL 1 SRCHSPEC BASED,
       75     6319    1         2 FL$ PTR,
       76     6320    1         2 ACCN CHAR(8),
       77     6321    1         2 SN CHAR(6),
       78     6322    1         2 ASN UBIN(18) UNAL;
       79     6323    1   DCL ACCNHEAD$ PTR STATIC INIT(ADDR(NIL));
       80     6324    1   DCL ACCNTAIL$ PTR STATIC INIT(ADDR(NIL));
       81     6325    1   DCL 1 ACCNSPEC BASED,
       82     6326    1         2 FL$ PTR,
       83     6327    1         2 ACCN CHAR(8),
       84     6328    1         2 SN,
       85     6329    1           3 CNT UBIN,
       86     6330    1           3 TXT CHAR(6),
       87     6331    1         2 ASN UBIN(18) UNAL,
       88     6332    1         2 NTYPES SBIN HALF UNAL,
       89     6333    1         2 TYPE(0:0) CHAR(2);
       90     6334    1   DCL IGNRHEAD$ PTR STATIC INIT(ADDR(NIL));
       91     6335    1   DCL IGNRTAIL$ PTR STATIC INIT(ADDR(NIL));
       92     6336        /**/
       93     6337        /* MISC DATA */
       94     6338        /**/
       95     6339    1   DCL X1 BIT(72) STATIC DALIGNED INIT('0'B);
       96     6340    1   DCL 1 CMDSEG REDEF X1,
       97     6341    1         2 BOUND UBIN(20) UNAL,
       98     6342    1         2 FLAGS BIT(16),
       99     6343    1         2 PTR$ PTR;
      100     6344    1   DCL CMDSEG$ PTR;
      101     6345    1   DCL FPARAM(0:1023) SBIN;
      102     6346    1   DCL M$SI DCB;
      103     6347    1   DCL M$LO DCB;
      104     6348    1   DCL M$INPUT DCB;
      105     6349    1   DCL M$INPUT$ PTR STATIC SYMDEF;
      106     6350    1   DCL M$DO DCB;
PL6.E3A0      #001=IDD$DEF File=IDD$DEF.:E05TSI                                  TUE 07/29/97 22:29 Page:38
      107     6351    1   DCL M$PO DCB;
      108     6352    1   DCL M$PO$ PTR;
      109     6353    1   DCL M$AS DCB;
      110     6354    1   DCL M$AS$ PTR;
      111     6355    1   DCL PRMPT CHAR(0) CONSTANT INIT(':');
      112     6356        %FPT_OPEN (DCB=M$PO,
      113     6357                   SN=ID_SNLIST,
      114     6358                   ASN=TAPE,
      115     6359                   ORG=CONSEC,
      116     6360                   FUN=CREATE,
      117     6361                   NAME=VLP_DUMMYFILE);
      118     6470        %VLP_NAME (FPTN=VLP_DUMMYFILE,NAME='$DUMMYFILE');
      119     6497        %FPT_CVOL (DCB=M$PO);
      120     6512        %FPT_CLOSE (DCB=M$PO,
      121     6513                    DISP=SAVE);
      122     6555        %FPT_EXIT (STCLASS=EXT);
      123     6570        %FPT_REM (DISP=REM);
      124     6584        %FPT_TIME (SOURCE=CLOCK,DEST=LOCAL,DATE=TBUF.DATE,TIME=TBUF.TIME);
      125     6603    1   DCL ID_NODES UBIN SYMREF;
      126     6604        %P_PCB (NAME=P_PCB,STCLASS="STATIC SYMDEF");
      127     6803        %XUR_INIT (SYNTAX=YES,PCB=P_PCB);
      128     6902        %PARSE$OUT (NAME=OUT$BLK,STCLASS="BASED(OUT$)");
      129     6947        %PARSE$SYM (NAME=SYM$BLK,STCLASS="BASED(OUT$)");
      130     6985        %F_FDS (DCB=M$LO,STCLASS="STATIC SYMDEF",BUF=FMTBUF);
      131     7098        %XUH_PARAM (PROCNAME=DEFNAME,PROCACCT=HELPACCT,OUTDCB1=M$DO,OUTDCB2=M$LO);
      132     7159        %VLP_NAME (FPTN=DEFNAME,NAME='DEF');
      133     7186        %VLP_ACCT (FPTN=HELPACCT,ACCT=':SYS');
      134     7199    1   DCL FMTBUF CHAR(144) STATIC ALIGNED;
      135     7200    1   DCL 1 FMTVECS(0:3) STATIC DALIGNED,
      136     7201    1         2 BOUND UBIN(20) UNAL,
      137     7202    1         2 * BIT(16),
      138     7203    1         2 PTR$ PTR;
      139     7204    1   DCL END_FLG BIT(1) ALIGNED STATIC INIT('0'B);
      140     7205    1   DCL I SBIN;
      141     7206    1   DCL J SBIN;
      142     7207    1   DCL SCHEMA_FLAG BIT(1) ALIGNED STATIC SYMDEF INIT('1'B);
      143     7208    1   DCL CMDSEGSZ SBIN STATIC;
PL6.E3A0      #001=IDD$DEF File=IDD$DEF.:E05TSI                                  TUE 07/29/97 22:29 Page:39
      144     7209    1   DCL TEMP SBIN;
      145     7210    1   DCL 1 ERRCODE,
      146     7211    1         2 * BIT(19) UNAL,
      147     7212    1         2 ERR UBIN(14) UNAL,
      148     7213    1         2 * BIT(3) UNAL;
      149     7214    1   DCL OUT$ PTR;
      150     7215    1   DCL 1 PARSERR REDEF OUT$,
      151     7216    1         2 FCG BIT(12) UNAL,
      152     7217    1         2 MID BIT(6) UNAL,
      153     7218    1         2 MON BIT(1) UNAL,
      154     7219    1         2 CODE UBIN(14) UNAL,
      155     7220    1         2 SEV UBIN(3) UNAL;
      156     7221    1   DCL ABORT_FLG BIT(1) ALIGNED STATIC INIT('0'B);
      157     7222    1   DCL POCMD_FLG BIT(1) STATIC INIT('0'B);
      158     7223    1   DCL NOFILES_FLG BIT(1) ALIGNED;
      159     7224    1   DCL LABEL_FLG BIT(1) ALIGNED;
      160     7225    1   DCL BOOT_FLG BIT(1) ALIGNED;
      161     7226    1   DCL BLOCKFLG BIT(1) STATIC ALIGNED INIT('1'B);
      162     7227    1   DCL ID_BLOCKFLG BIT(1) STATIC SYMDEF ALIGNED INIT('0'B);
      163     7228    1   DCL ASCHEMA_FLG BIT(1) STATIC SYMDEF ALIGNED INIT ('0'B);
      164     7229    1   DCL ASCHEMA_TYP UBIN STATIC SYMDEF INIT (0);
      165     7230    1   DCL 1 REQUIRED STATIC SYMDEF,
      166     7231    1         2 NUMBER UBIN INIT(30),
      167     7232    1         2 PROCESS(0:30),
      168     7233    1           3 NAME CHAR(31) INIT(' ',
      169     7234    1                             ':OCKEY',
      170     7235    1                             ':OCMSG',
      171     7236    1                             ':SHARED_LCP6_SYSTEM',
      172     7237    1                             ':SHARED_SPECIAL',
      173     7238    1                             ':SHARED_SYSTEM',
      174     7239    1                             'ASYNC',
      175     7240    1                             'COUPLER',
      176     7241    1                             'DELTA',
      177     7242    1                             'DOG',
      178     7243    1                             'ELF',
      179     7244    1                             'FROG',
      180     7245    1                             'GOOSE',
PL6.E3A0      #001=IDD$DEF File=IDD$DEF.:E05TSI                                  TUE 07/29/97 22:29 Page:40
      181     7246    1                             'IBEX',
      182     7247    1                             'INSYM',
      183     7248    1                             'JAYS',
      184     7249    1                             'KEYIN',
      185     7250    1                             'LOGON',
      186     7251    1                             'NETCON',
      187     7252    1                             'M:FEP',
      188     7253    1                             'NODEADMN',
      189     7254    1                             'OUTSYM',
      190     7255    1                             'PIG',
      191     7256    1                             'PRESCAN',
      192     7257    1                             'RCVR2',
      193     7258    1                             'SLUG',
      194     7259    1                             'SUPER',
      195     7260    1                             ' '*0),
      196     7261    1           3 FOUND BIT(1) INIT('0'B*0);
      197     7262    1   DCL 1 SCHEMA_TBL STATIC SYMDEF,
      198     7263    1         2 CNT UBIN INIT(0),
      199     7264    1         2 FCG(0:99) CHAR(2);
      200     7265    1   DCL INCL$ PTR;
      201     7266        %FPT_MONINFO (SITEINFO=ID_SITEINFO);
      202     7281        %VLR_SITEINFO (FPTN=ID_SITEINFO,STCLASS="STATIC SYMDEF");
      203     7300    1   DCL 1 ID_SNLIST ALIGNED STATIC SYMDEF,
      204     7301    1         2 N SBIN ALIGNED INIT(9),
      205     7302    1         2 C(0:8) CHAR(6) UNAL INIT('CP6PO1','CP6PO2','CP6PO3','CP6PO4','CP6PO5',
      206     7303    1           'CP6PO6','CP6PO7','CP6PO8','CP6PO9');
      207     7304    1   DCL 1 ID_ASLIST ALIGNED STATIC SYMDEF,
      208     7305    1         2 N SBIN ALIGNED INIT(2),
      209     7306    1         2 C(0:1) CHAR(6) UNAL INIT('CP6AS1','CP6AS2');
      210     7307    1   DCL ID_DENSITY SBIN STATIC SYMDEF INIT(%D1600#);
      211     7308    1   DCL 1 B_VERSION SYMREF,
      212     7309    1         2 L# UBIN(9) UNAL,
      213     7310    1         2 TXT CHAR(B_VERSION.L#);
      214     7311    1   DCL HELLO CHAR(15) STATIC INIT(' ');
      215     7312    1   DCL ID_VERIFLG BIT(1) STATIC SYMDEF ALIGNED INIT('0'B);
      216     7313    1   DCL ID_VERISEG BIT(72) DALIGNED STATIC SYMDEF INIT('0'B);
      217     7314    1   DCL ID_LISTFLG BIT(1) ALIGNED STATIC SYMDEF;
PL6.E3A0      #001=IDD$DEF File=IDD$DEF.:E05TSI                                  TUE 07/29/97 22:29 Page:41
      218     7315        %EJECT;
PL6.E3A0      #001=IDD$DEF File=IDD$DEF.:E05TSI                                  TUE 07/29/97 22:29 Page:42
      219     7316    1           CALL XUR$INIT(XUR_INIT);

   7316 10 000002   000000 630400 11                 EPPR0   0
        10 000003   000017 631400 xsym               EPPR1   B_VECTNIL+15
        10 000004   000000 701000 xent               TSX1    XUR$INIT
        10 000005   000000 011000                    NOP     0

      220     7317    2           IF NOT B$JIT.PRIV.ACTIVE & %PR_FMSEC# THEN DO;

   7317 10 000006   000000 470400 xsym               LDP0    B$JIT$
        10 000007   000013 236100                    LDQ     11,,PR0
        10 000010   000001 376000 8                  ANQ     PRMPT+1
        10 000011   000026 601000 10                 TNZ     s:7325

      221     7318    2              CALL ERRMSG(%E$NOFMSEC);

   7318 10 000012   000001 236000 xsym               LDQ     B_VECTNIL+1
        10 000013   202032 756100                    STQ     @CPOS+1,,AUTO
        10 000014   000001 235000 xsym               LDA     B_VECTNIL+1
        10 000015   202030 757100                    STAQ    @C#+1,,AUTO
        10 000016   000002 236000 11                 LDQ     2
        10 000017   202027 756100                    STQ     @OUTSYM+2,,AUTO
        10 000020   003303 701000 10                 TSX1    ERRMSG
        10 000021   000000 011000                    NOP     0

      222     7319        /*E*    ERROR:   IDD-E$NOFMSEC
      223     7320                MESSAGE: DEF must have FMSEC privilege to run.
      224     7321                                                                           */
      225     7322    2              ABORT_FLG='1'B;

   7322 10 000022   400000 236003                    LDQ     -131072,DU
        10 000023   001271 756000 1                  STQ     ABORT_FLG

      226     7323    2              CALL EXIT_DEF;

   7323 10 000024   001713 701000 10                 TSX1    EXIT_DEF
        10 000025   000000 011000                    NOP     0
PL6.E3A0      #001=IDD$DEF File=IDD$DEF.:E05TSI                                  TUE 07/29/97 22:29 Page:43

      227     7324    2              END;

      228     7325    1           BLOCKFLG='0'B;

   7325 10 000026   001273 450000 1                  STZ     BLOCKFLG

      229     7326    1           CALL IDE$FMSECOFF;

   7326 10 000027   000002 631400 xsym               EPPR1   B_VECTNIL+2
        10 000030   000000 701000 xent               TSX1    IDE$FMSECOFF
        10 000031   000000 011000                    NOP     0

      230     7327    1           CALL CONCAT (HELLO, 'DEF ',SUBSTR(B_VERSION.TXT,0,

   7327 10 000032   000000 236000 xsym               LDQ     B_VERSION
        10 000033   000033 772000                    QRL     27
        10 000034   000000 620006                    EAX0    0,QL
        10 000035   000002 236000 8                  LDQ     PRMPT+2
        10 000036   002112 756000 1                  STQ     HELLO
        10 000037   040000 100440                    MLR     fill='040'O
        10 000040   000000 200010 xsym               ADSC9   B_VERSION                cn=1,n=*X0
        10 000041   002113 000013 1                  ADSC9   HELLO+1                  cn=0,n=11
        10 000042   000000 636010                    EAQ     0,X0
        10 000043   000022 772000                    QRL     18
        10 000044   000013 116007                    CMPQ    11,DL
        10 000045   000056 603000 10                 TRC     s:7329
        10 000046   202036 740100                    STX0    D#+2,,AUTO
        10 000047   777764 620010                    EAX0    -12,X0
        10 000050   777777 660003                    ERX0    -1,DU
        10 000051   202036 235100                    LDA     D#+2,,AUTO
        10 000052   000022 771000                    ARL     18
        10 000053   040045 100400                    MLR     fill='040'O
        10 000054   000003 000005 8                  ADSC9   PRMPT+3                  cn=0,n=5
        10 000055   002113 000010 1                  ADSC9   HELLO+1,A                cn=0,n=*X0

      231     7328    1             B_VERSION.L#), ' Here');
PL6.E3A0      #001=IDD$DEF File=IDD$DEF.:E05TSI                                  TUE 07/29/97 22:29 Page:44
      232     7329    1           CALL X$WRITE(F_FDS,VECTOR(HELLO));

   7329 10 000056   000006 630400 11                 EPPR0   6
        10 000057   000020 631400 xsym               EPPR1   B_VECTNIL+16
        10 000060   000000 701000 xent               TSX1    X$WRITE
        10 000061   000000 011000                    NOP     0

      233     7330    1           M$INPUT$=DCBADDR(DCBNUM(M$INPUT));

   7330 10 000062   000000 236007 xsym               LDQ     M$INPUT,DL
        10 000063   000010 470400 11                 LDP0    8
        10 000064   000000 471500                    LDP1    0,,PR0
        10 000065   100000 236106                    LDQ     0,QL,PR1
        10 000066   000602 756000 1                  STQ     M$INPUT$

      234     7331    1           M$PO$=DCBADDR(DCBNUM(M$PO));

   7331 10 000067   000000 236007 xsym               LDQ     M$PO,DL
        10 000070   100000 236106                    LDQ     0,QL,PR1
        10 000071   202005 756100                    STQ     M$PO$,,AUTO

      235     7332    1           M$AS$=DCBADDR(DCBNUM(M$AS));

   7332 10 000072   000000 236007 xsym               LDQ     M$AS,DL
        10 000073   100000 236106                    LDQ     0,QL,PR1
        10 000074   202006 756100                    STQ     M$AS$,,AUTO

      236     7333    1           CALL M$TIME(FPT_TIME);

   7333 10 000075   000754 630400 1                  EPPR0   FPT_TIME
        10 000076   020004 713400                    CLIMB   8196
        10 000077   402000 401760                    pmme    nvectors=5

      237     7334    1           CALL M$MONINFO(FPT_MONINFO);

   7334 10 000100   001754 630400 1                  EPPR0   FPT_MONINFO
        10 000101   020023 713400                    CLIMB   8211
PL6.E3A0      #001=IDD$DEF File=IDD$DEF.:E05TSI                                  TUE 07/29/97 22:29 Page:45
        10 000102   402400 401760                    pmme    nvectors=6

      238     7335    1           ID_SITEINFO.MINI_ID#=' ';

   7335 10 000103   000011 236000 11                 LDQ     9
        10 000104   001770 552070 1                  STBQ    ID_SITEINFO,'70'O

      239     7336    1           IF M$PO$->F$DCB.PSN~=' ' THEN ID_SNLIST.C(0)=M$PO$->F$DCB.PSN;

   7336 10 000105   202005 470500                    LDP0    M$PO$,,AUTO
        10 000106   040000 106500                    CMPC    fill='040'O
        10 000107   000024 000006                    ADSC9   20,,PR0                  cn=0,n=6
        10 000110   000035 000001 xsym               ADSC9   B_VECTNIL+29             cn=0,n=1
        10 000111   000115 600000 10                 TZE     s:7337

   7336 10 000112   040000 100500                    MLR     fill='040'O
        10 000113   000024 000006                    ADSC9   20,,PR0                  cn=0,n=6
        10 000114   002067 000006 1                  ADSC9   ID_SNLIST+1              cn=0,n=6

      240     7337    1           IF M$AS$->F$DCB.PSN~=' ' THEN ID_ASLIST.C(0)=M$AS$->F$DCB.PSN;

   7337 10 000115   202006 471500                    LDP1    M$AS$,,AUTO
        10 000116   040000 106500                    CMPC    fill='040'O
        10 000117   100024 000006                    ADSC9   20,,PR1                  cn=0,n=6
        10 000120   000035 000001 xsym               ADSC9   B_VECTNIL+29             cn=0,n=1
        10 000121   000125 600000 10                 TZE     s:7338

   7337 10 000122   040000 100500                    MLR     fill='040'O
        10 000123   100024 000006                    ADSC9   20,,PR1                  cn=0,n=6
        10 000124   002106 000006 1                  ADSC9   ID_ASLIST+1              cn=0,n=6

      241     7338    1           ID_BLOCKFLG='0'B;

   7338 10 000125   001274 450000 1                  STZ     ID_BLOCKFLG

      242     7339    1           CALL READ_DEF_COMMANDS;

PL6.E3A0      #001=IDD$DEF File=IDD$DEF.:E05TSI                                  TUE 07/29/97 22:29 Page:46
   7339 10 000126   000171 701000 10                 TSX1    READ_DEF_COMMANDS
        10 000127   000000 011000                    NOP     0

      243     7340    1           IF ASCHEMA_FLG

   7340 10 000130   001275 234000 1                  SZN     ASCHEMA_FLG
        10 000131   000140 605000 10                 TPL     s:7346

      244     7341    2           THEN DO;

      245     7342    2              CALL IDU$ALTSCH;

   7342 10 000132   000002 631400 xsym               EPPR1   B_VECTNIL+2
        10 000133   000000 701000 xent               TSX1    IDU$ALTSCH
        10 000134   000000 011000                    NOP     0

      246     7343    2              ID_VERIFLG='0'B;

   7343 10 000135   002116 450000 1                  STZ     ID_VERIFLG

      247     7344    2              CALL EXIT_DEF;

   7344 10 000136   001713 701000 10                 TSX1    EXIT_DEF
        10 000137   000000 011000                    NOP     0

      248     7345    2              END;

      249     7346    2           IF BOOT_FLG THEN DO;

   7346 10 000140   202016 234100                    SZN     BOOT_FLG,,AUTO
        10 000141   000147 605000 10                 TPL     s:7350

      250     7347    2              CALL IDU$BOOT;

   7347 10 000142   000002 631400 xsym               EPPR1   B_VECTNIL+2
        10 000143   000000 701000 xent               TSX1    IDU$BOOT
        10 000144   000000 011000                    NOP     0
PL6.E3A0      #001=IDD$DEF File=IDD$DEF.:E05TSI                                  TUE 07/29/97 22:29 Page:47

      251     7348    2              CALL INSTALL_FILE;

   7348 10 000145   002253 701000 10                 TSX1    INSTALL_FILE
        10 000146   000000 011000                    NOP     0

      252     7349    2              END;

      253     7350    1           ID_BLOCKFLG=BLOCKFLG;

   7350 10 000147   001273 236000 1                  LDQ     BLOCKFLG
        10 000150   400000 376003                    ANQ     -131072,DU
        10 000151   001274 756000 1                  STQ     ID_BLOCKFLG

      254     7351    1           IF NOFILES_FLG THEN CALL CVOL;

   7351 10 000152   202014 234100                    SZN     NOFILES_FLG,,AUTO
        10 000153   000156 605000 10                 TPL     s:7352

   7351 10 000154   002377 701000 10                 TSX1    CVOL
        10 000155   000000 011000                    NOP     0

      255     7352    2           IF LABEL_FLG THEN DO;

   7352 10 000156   202015 234100                    SZN     LABEL_FLG,,AUTO
        10 000157   000166 605000 10                 TPL     s:7357

      256     7353    2              CALL PROCESS_ACCOUNT_SPECS;

   7353 10 000160   002463 701000 10                 TSX1    PROCESS_ACCOUNT_SPECS
        10 000161   000000 011000                    NOP     0

      257     7354    2              CALL PROCESS_INCLUDE_SPECS;

   7354 10 000162   002705 701000 10                 TSX1    PROCESS_INCLUDE_SPECS
        10 000163   000000 011000                    NOP     0

PL6.E3A0      #001=IDD$DEF File=IDD$DEF.:E05TSI                                  TUE 07/29/97 22:29 Page:48
      258     7355    2              CALL WRITE_MISSING_STUFF;

   7355 10 000164   003163 701000 10                 TSX1    WRITE_MISSING_STUFF
        10 000165   000000 011000                    NOP     0

      259     7356    2              END;

      260     7357    1           CALL EXIT_DEF;

   7357 10 000166   001713 701000 10                 TSX1    EXIT_DEF
        10 000167   000000 011000                    NOP     0
        10 000170   003423 710000 10                 TRA     s:8049

      261     7358        %EJECT;
PL6.E3A0      #001=IDD$DEF File=IDD$DEF.:E05TSI                                  TUE 07/29/97 22:29 Page:49
      262     7359    1   READ_DEF_COMMANDS: PROC;

   7359 10 000171   202020 741300       READ_DEF_CO* STX1  ! INCL$+1,,AUTO

      263     7360    2           CALL IDD$GETSEG(CMDSEG,1024);

   7360 10 000172   000013 630400 11                 EPPR0   11
        10 000173   000020 631400 xsym               EPPR1   B_VECTNIL+16
        10 000174   000000 701000 xent               TSX1    IDD$GETSEG
        10 000175   000000 011000                    NOP     0

      264     7361    2           CMDSEG$=CMDSEG.PTR$;

   7361 10 000176   000601 236000 1                  LDQ     X1+1
        10 000177   200004 756100                    STQ     CMDSEG$,,AUTO

      265     7362    2           CMDSEGSZ=(CMDSEG.BOUND+1)/4;

   7362 10 000200   000600 236000 1                  LDQ     X1
        10 000201   000020 772000                    QRL     16
        10 000202   000001 036007                    ADLQ    1,DL
        10 000203   000002 772000                    QRL     2
        10 000204   001270 756000 1                  STQ     CMDSEGSZ

      266     7363    2           END_FLG='0'B;

   7363 10 000205   001266 450000 1                  STZ     END_FLG

      267     7364    2           NOFILES_FLG='0'B;

   7364 10 000206   202014 450100                    STZ     NOFILES_FLG,,AUTO

      268     7365    2           LABEL_FLG='0'B;

   7365 10 000207   202015 450100                    STZ     LABEL_FLG,,AUTO

      269     7366    2           BOOT_FLG='1'B;
PL6.E3A0      #001=IDD$DEF File=IDD$DEF.:E05TSI                                  TUE 07/29/97 22:29 Page:50

   7366 10 000210   400000 236003                    LDQ     -131072,DU
        10 000211   202016 756100                    STQ     BOOT_FLG,,AUTO

      270     7367    2           ID_VERIFLG='0'B;

   7367 10 000212   002116 450000 1                  STZ     ID_VERIFLG

      271     7368    2           ID_LISTFLG='1'B;

   7368 10 000213   002122 756000 1                  STQ     ID_LISTFLG

      272     7369    3           DO WHILE(~END_FLG);

   7369 10 000214   001551 710000 10                 TRA     NEXT_COMMAND

      273     7370    3              CALL XUR$GETCMD(ID_NODES,OUT$,VECTOR(PRMPT)) ALTRET(PARSE_ERR);

   7370 10 000215   000020 236000 11                 LDQ     16
        10 000216   202040 756100                    STQ     D#+4,,AUTO
        10 000217   202013 630500                    EPPR0   OUT$,,AUTO
        10 000220   202037 450500                    STP0    D#+3,,AUTO
        10 000221   000021 236000 11                 LDQ     17
        10 000222   202036 756100                    STQ     D#+2,,AUTO
        10 000223   202036 630500                    EPPR0   D#+2,,AUTO
        10 000224   000021 631400 xsym               EPPR1   B_VECTNIL+17
        10 000225   000000 701000 xent               TSX1    XUR$GETCMD
        10 000226   001647 702000 10                 TSX2    PARSE_ERR

      274     7371    4              DO CASE(OUT$BLK.CODE);

   7371 10 000227   202013 470500                    LDP0    OUT$,,AUTO
        10 000230   000000 720100                    LXL0    0,,PR0
        10 000231   000042 100003                    CMPX0   34,DU
        10 000232   000234 602010 10                 TNC     s:7371+5,X0
        10 000233   001551 710000 10                 TRA     NEXT_COMMAND
        10 000234   001551 710000 10                 TRA     NEXT_COMMAND
PL6.E3A0      #001=IDD$DEF File=IDD$DEF.:E05TSI                                  TUE 07/29/97 22:29 Page:51
        10 000235   001551 710000 10                 TRA     NEXT_COMMAND
        10 000236   000276 710000 10                 TRA     s:7374
        10 000237   000342 710000 10                 TRA     s:7385
        10 000240   000357 710000 10                 TRA     s:7389
        10 000241   000420 710000 10                 TRA     s:7399
        10 000242   000435 710000 10                 TRA     s:7403
        10 000243   000452 710000 10                 TRA     s:7407
        10 000244   000501 710000 10                 TRA     s:7415
        10 000245   000516 710000 10                 TRA     s:7419
        10 000246   000563 710000 10                 TRA     s:7433
        10 000247   000600 710000 10                 TRA     s:7437
        10 000250   000662 710000 10                 TRA     s:7453
        10 000251   000751 710000 10                 TRA     s:7468
        10 000252   001056 710000 10                 TRA     s:7490
        10 000253   001270 710000 10                 TRA     s:7528
        10 000254   001330 710000 10                 TRA     s:7538
        10 000255   001400 710000 10                 TRA     s:7552
        10 000256   001506 710000 10                 TRA     s:7586
        10 000257   001516 710000 10                 TRA     s:7589
        10 000260   001534 710000 10                 TRA     s:7598
        10 000261   001403 710000 10                 TRA     s:7554
        10 000262   001413 710000 10                 TRA     s:7556
        10 000263   001426 710000 10                 TRA     s:7559
        10 000264   001451 710000 10                 TRA     s:7564
        10 000265   001456 710000 10                 TRA     s:7566
        10 000266   001461 710000 10                 TRA     s:7568
        10 000267   001463 710000 10                 TRA     s:7570
        10 000270   001541 710000 10                 TRA     s:7600
        10 000271   001550 710000 10                 TRA     s:7603
        10 000272   000640 710000 10                 TRA     s:7447
        10 000273   001441 710000 10                 TRA     s:7562
        10 000274   000374 710000 10                 TRA     s:7393
        10 000275   001466 710000 10                 TRA     s:7572

      275     7372    4               CASE(%NULL_CMD);

      276     7373    4               CASE(%PO_CMD);
PL6.E3A0      #001=IDD$DEF File=IDD$DEF.:E05TSI                                  TUE 07/29/97 22:29 Page:52

      277     7374    4                 IF POCMD_FLG THEN

   7374 10 000276   001272 234000 1                  SZN     POCMD_FLG
        10 000277   000311 605000 10                 TPL     s:7376

      278     7375    4                    CALL ERRMSG(%E$DUPERR,DCBNUM(NIL));

   7375 10 000300   000001 236000 xsym               LDQ     B_VECTNIL+1
        10 000301   202032 756100                    STQ     @CPOS+1,,AUTO
        10 000302   000023 235000 11                 LDA     19
        10 000303   202030 757100                    STAQ    @C#+1,,AUTO
        10 000304   000024 236000 11                 LDQ     20
        10 000305   202027 756100                    STQ     @OUTSYM+2,,AUTO
        10 000306   003303 701000 10                 TSX1    ERRMSG
        10 000307   000000 011000                    NOP     0
        10 000310   001551 710000 10                 TRA     NEXT_COMMAND

      279     7376    5                 ELSE DO I=0 TO OUT$BLK.NSUBLKS-1;

   7376 10 000311   202007 450100                    STZ     I,,AUTO
        10 000312   000335 710000 10                 TRA     s:7383+1

      280     7377    5                    IF OUT$BLK.SUBLK$(I)->OUT$BLK.CODE=%NO_FILES_OPT THEN

   7377 10 000313   202013 470500                    LDP0    OUT$,,AUTO
        10 000314   202007 720100                    LXL0    I,,AUTO
        10 000315   000003 471510                    LDP1    3,X0,PR0
        10 000316   100000 721100                    LXL1    0,,PR1
        10 000317   000146 101003                    CMPX1   102,DU
        10 000320   000324 601000 10                 TNZ     s:7380

      281     7378    5                       NOFILES_FLG='1'B;

   7378 10 000321   400000 236003                    LDQ     -131072,DU
        10 000322   202014 756100                    STQ     NOFILES_FLG,,AUTO
        10 000323   000334 710000 10                 TRA     s:7383
PL6.E3A0      #001=IDD$DEF File=IDD$DEF.:E05TSI                                  TUE 07/29/97 22:29 Page:53

      282     7379    6                    ELSE DO;

      283     7380    6                       ID_SITEINFO.VERSION#=OUT$BLK.SUBLK$(I)->SYM$BLK.TEXT;

   7380 10 000324   100004 236100                    LDQ     4,,PR1
        10 000325   000033 772000                    QRL     27
        10 000326   000000 622006                    EAX2    0,QL
        10 000327   040000 100540                    MLR     fill='040'O
        10 000330   100004 200012                    ADSC9   4,,PR1                   cn=1,n=*X2
        10 000331   002054 000004 1                  ADSC9   ID_SITEINFO+52           cn=0,n=4

      284     7381    6                       POCMD_FLG='1'B;

   7381 10 000332   400000 236003                    LDQ     -131072,DU
        10 000333   001272 756000 1                  STQ     POCMD_FLG

      285     7382    6                       END;

      286     7383    5                    END;

   7383 10 000334   202007 054100                    AOS     I,,AUTO
        10 000335   000001 236100                    LDQ     1,,PR0
        10 000336   000022 772000                    QRL     18
        10 000337   202007 116100                    CMPQ    I,,AUTO
        10 000340   000313 605400 10                 TPNZ    s:7377
        10 000341   001551 710000 10                 TRA     NEXT_COMMAND

      287     7384    4               CASE(%BOOT_CMD);

      288     7385    4                 CALL IDE$CHK_CMD(BOOTSTRAP) ALTRET(NEXT_COMMAND);

   7385 10 000342   000025 630400 11                 EPPR0   21
        10 000343   000017 631400 xsym               EPPR1   B_VECTNIL+15
        10 000344   000000 701000 xent               TSX1    IDE$CHK_CMD
        10 000345   001551 702000 10                 TSX2    NEXT_COMMAND

PL6.E3A0      #001=IDD$DEF File=IDD$DEF.:E05TSI                                  TUE 07/29/97 22:29 Page:54
      289     7386    4                 CALL PARSE_FID(OUT$BLK.SUBLK$(0)->OUT$BLK) ALTRET(NEXT_COMMAND);

   7386 10 000346   202013 470500                    LDP0    OUT$,,AUTO
        10 000347   000003 471500                    LDP1    3,,PR0
        10 000350   202025 451500                    STP1    TYPE2+1,,AUTO
        10 000351   002053 701000 10                 TSX1    PARSE_FID
        10 000352   001551 702000 10                 TSX2    NEXT_COMMAND

      290     7387    4                 BOOTSTRAP=FID_BLK;

   7387 10 000353   000000 100400                    MLR     fill='000'O
        10 000354   000464 000204 1                  ADSC9   FID_BLK                  cn=0,n=132
        10 000355   000013 000204 1                  ADSC9   BOOTSTRAP                cn=0,n=132
        10 000356   001551 710000 10                 TRA     NEXT_COMMAND

      291     7388    4               CASE(%FIRM_CMD);

      292     7389    4                 CALL IDE$CHK_CMD(FIRMWARE) ALTRET(NEXT_COMMAND);

   7389 10 000357   000026 630400 11                 EPPR0   22
        10 000360   000017 631400 xsym               EPPR1   B_VECTNIL+15
        10 000361   000000 701000 xent               TSX1    IDE$CHK_CMD
        10 000362   001551 702000 10                 TSX2    NEXT_COMMAND

      293     7390    4                 CALL PARSE_FID(OUT$BLK.SUBLK$(0)->OUT$BLK) ALTRET(NEXT_COMMAND);

   7390 10 000363   202013 470500                    LDP0    OUT$,,AUTO
        10 000364   000003 471500                    LDP1    3,,PR0
        10 000365   202025 451500                    STP1    TYPE2+1,,AUTO
        10 000366   002053 701000 10                 TSX1    PARSE_FID
        10 000367   001551 702000 10                 TSX2    NEXT_COMMAND

      294     7391    4                 FIRMWARE=FID_BLK;

   7391 10 000370   000000 100400                    MLR     fill='000'O
        10 000371   000464 000204 1                  ADSC9   FID_BLK                  cn=0,n=132
        10 000372   000054 000204 1                  ADSC9   FIRMWARE                 cn=0,n=132
PL6.E3A0      #001=IDD$DEF File=IDD$DEF.:E05TSI                                  TUE 07/29/97 22:29 Page:55
        10 000373   001551 710000 10                 TRA     NEXT_COMMAND

      295     7392    4               CASE(%ASCHEMA_CMD);

      296     7393    4                 CALL IDE$CHK_CMD(ASCHEMA) ALTRET(NEXT_COMMAND);

   7393 10 000374   000027 630400 11                 EPPR0   23
        10 000375   000017 631400 xsym               EPPR1   B_VECTNIL+15
        10 000376   000000 701000 xent               TSX1    IDE$CHK_CMD
        10 000377   001551 702000 10                 TSX2    NEXT_COMMAND

      297     7394    4                 CALL PARSE_FID(OUT$BLK.SUBLK$(0)->OUT$BLK) ALTRET(NEXT_COMMAND);

   7394 10 000400   202013 470500                    LDP0    OUT$,,AUTO
        10 000401   000003 471500                    LDP1    3,,PR0
        10 000402   202025 451500                    STP1    TYPE2+1,,AUTO
        10 000403   002053 701000 10                 TSX1    PARSE_FID
        10 000404   001551 702000 10                 TSX2    NEXT_COMMAND

      298     7395    4                 ASCHEMA=FID_BLK;

   7395 10 000405   000000 100400                    MLR     fill='000'O
        10 000406   000464 000204 1                  ADSC9   FID_BLK                  cn=0,n=132
        10 000407   000423 000204 1                  ADSC9   ASCHEMA                  cn=0,n=132

      299     7396    4                 ASCHEMA_FLG='1'B;

   7396 10 000410   400000 236003                    LDQ     -131072,DU
        10 000411   001275 756000 1                  STQ     ASCHEMA_FLG

      300     7397    4                 ASCHEMA_TYP=OUT$BLK.SUBLK$(1)->OUT$BLK.CODE;

   7397 10 000412   202013 470500                    LDP0    OUT$,,AUTO
        10 000413   000004 471500                    LDP1    4,,PR0
        10 000414   100000 236100                    LDQ     0,,PR1
        10 000415   777777 376007                    ANQ     -1,DL
        10 000416   001276 756000 1                  STQ     ASCHEMA_TYP
PL6.E3A0      #001=IDD$DEF File=IDD$DEF.:E05TSI                                  TUE 07/29/97 22:29 Page:56
        10 000417   001551 710000 10                 TRA     NEXT_COMMAND

      301     7398    4               CASE(%MON_CMD);

      302     7399    4                 CALL IDE$CHK_CMD(MONSTER) ALTRET(NEXT_COMMAND);

   7399 10 000420   000030 630400 11                 EPPR0   24
        10 000421   000017 631400 xsym               EPPR1   B_VECTNIL+15
        10 000422   000000 701000 xent               TSX1    IDE$CHK_CMD
        10 000423   001551 702000 10                 TSX2    NEXT_COMMAND

      303     7400    4                 CALL PARSE_FID(OUT$BLK.SUBLK$(0)->OUT$BLK) ALTRET(NEXT_COMMAND);

   7400 10 000424   202013 470500                    LDP0    OUT$,,AUTO
        10 000425   000003 471500                    LDP1    3,,PR0
        10 000426   202025 451500                    STP1    TYPE2+1,,AUTO
        10 000427   002053 701000 10                 TSX1    PARSE_FID
        10 000430   001551 702000 10                 TSX2    NEXT_COMMAND

      304     7401    4                 MONSTER=FID_BLK;

   7401 10 000431   000000 100400                    MLR     fill='000'O
        10 000432   000464 000204 1                  ADSC9   FID_BLK                  cn=0,n=132
        10 000433   000115 000204 1                  ADSC9   MONSTER                  cn=0,n=132
        10 000434   001551 710000 10                 TRA     NEXT_COMMAND

      305     7402    4               CASE(%MHJIT_CMD);

      306     7403    4                 CALL IDE$CHK_CMD(MHJIT) ALTRET(NEXT_COMMAND);

   7403 10 000435   000031 630400 11                 EPPR0   25
        10 000436   000017 631400 xsym               EPPR1   B_VECTNIL+15
        10 000437   000000 701000 xent               TSX1    IDE$CHK_CMD
        10 000440   001551 702000 10                 TSX2    NEXT_COMMAND

      307     7404    4                 CALL PARSE_FID(OUT$BLK.SUBLK$(0)->OUT$BLK) ALTRET(NEXT_COMMAND);

PL6.E3A0      #001=IDD$DEF File=IDD$DEF.:E05TSI                                  TUE 07/29/97 22:29 Page:57
   7404 10 000441   202013 470500                    LDP0    OUT$,,AUTO
        10 000442   000003 471500                    LDP1    3,,PR0
        10 000443   202025 451500                    STP1    TYPE2+1,,AUTO
        10 000444   002053 701000 10                 TSX1    PARSE_FID
        10 000445   001551 702000 10                 TSX2    NEXT_COMMAND

      308     7405    4                 MHJIT=FID_BLK;

   7405 10 000446   000000 100400                    MLR     fill='000'O
        10 000447   000464 000204 1                  ADSC9   FID_BLK                  cn=0,n=132
        10 000450   000156 000204 1                  ADSC9   MHJIT                    cn=0,n=132
        10 000451   001551 710000 10                 TRA     NEXT_COMMAND

      309     7406    4               CASE(%GHOST1_CMD);

      310     7407    4                 CALL IDE$CHK_CMD(GHOST1) ALTRET(NEXT_COMMAND);

   7407 10 000452   000032 630400 11                 EPPR0   26
        10 000453   000017 631400 xsym               EPPR1   B_VECTNIL+15
        10 000454   000000 701000 xent               TSX1    IDE$CHK_CMD
        10 000455   001551 702000 10                 TSX2    NEXT_COMMAND

      311     7408    4                 CALL PARSE_FID(OUT$BLK.SUBLK$(0)->OUT$BLK) ALTRET(NEXT_COMMAND);

   7408 10 000456   202013 470500                    LDP0    OUT$,,AUTO
        10 000457   000003 471500                    LDP1    3,,PR0
        10 000460   202025 451500                    STP1    TYPE2+1,,AUTO
        10 000461   002053 701000 10                 TSX1    PARSE_FID
        10 000462   001551 702000 10                 TSX2    NEXT_COMMAND

      312     7409    4                 GHOST1=FID_BLK;

   7409 10 000463   000000 100400                    MLR     fill='000'O
        10 000464   000464 000204 1                  ADSC9   FID_BLK                  cn=0,n=132
        10 000465   000217 000204 1                  ADSC9   GHOST1                   cn=0,n=132

      313     7410    5                 IF G1HJIT.FLAGS.CMD='0'B THEN DO;
PL6.E3A0      #001=IDD$DEF File=IDD$DEF.:E05TSI                                  TUE 07/29/97 22:29 Page:58

   7410 10 000466   000310 236000 1                  LDQ     G1HJIT+24
        10 000467   100000 316003                    CANQ    32768,DU
        10 000470   001551 601000 10                 TNZ     NEXT_COMMAND

      314     7411    5                    G1HJIT.ACCN=GHOST1.ACCN;

   7411 10 000471   040000 100400                    MLR     fill='040'O
        10 000472   000227 000010 1                  ADSC9   GHOST1+8                 cn=0,n=8
        10 000473   000270 000010 1                  ADSC9   G1HJIT+8                 cn=0,n=8

      315     7412    5                    G1HJIT.RESULT.ACCN=GHOST1.RESULT.ACCN;

   7412 10 000474   000244 236000 1                  LDQ     GHOST1+21
        10 000475   000305 676000 1                  ERQ     G1HJIT+21
        10 000476   200000 376003                    ANQ     65536,DU
        10 000477   000305 656000 1                  ERSQ    G1HJIT+21

      316     7413    5                    END;

   7413 10 000500   001551 710000 10                 TRA     NEXT_COMMAND

      317     7414    4               CASE(%G1HJIT_CMD);

      318     7415    4                 CALL IDE$CHK_CMD(G1HJIT) ALTRET(NEXT_COMMAND);

   7415 10 000501   000033 630400 11                 EPPR0   27
        10 000502   000017 631400 xsym               EPPR1   B_VECTNIL+15
        10 000503   000000 701000 xent               TSX1    IDE$CHK_CMD
        10 000504   001551 702000 10                 TSX2    NEXT_COMMAND

      319     7416    4                 CALL PARSE_FID(OUT$BLK.SUBLK$(0)->OUT$BLK) ALTRET(NEXT_COMMAND);

   7416 10 000505   202013 470500                    LDP0    OUT$,,AUTO
        10 000506   000003 471500                    LDP1    3,,PR0
        10 000507   202025 451500                    STP1    TYPE2+1,,AUTO
        10 000510   002053 701000 10                 TSX1    PARSE_FID
PL6.E3A0      #001=IDD$DEF File=IDD$DEF.:E05TSI                                  TUE 07/29/97 22:29 Page:59
        10 000511   001551 702000 10                 TSX2    NEXT_COMMAND

      320     7417    4                 G1HJIT=FID_BLK;

   7417 10 000512   000000 100400                    MLR     fill='000'O
        10 000513   000464 000204 1                  ADSC9   FID_BLK                  cn=0,n=132
        10 000514   000260 000204 1                  ADSC9   G1HJIT                   cn=0,n=132
        10 000515   001551 710000 10                 TRA     NEXT_COMMAND

      321     7418    4               CASE(%XDLT_CMD);

      322     7419    4                 CALL IDE$CHK_CMD(XDLT) ALTRET(NEXT_COMMAND);

   7419 10 000516   000034 630400 11                 EPPR0   28
        10 000517   000017 631400 xsym               EPPR1   B_VECTNIL+15
        10 000520   000000 701000 xent               TSX1    IDE$CHK_CMD
        10 000521   001551 702000 10                 TSX2    NEXT_COMMAND

      323     7420    5                 DO I=0 TO OUT$BLK.NSUBLKS-1;

   7420 10 000522   202007 450100                    STZ     I,,AUTO
        10 000523   000543 710000 10                 TRA     s:7427+1

      324     7421    5                    IF OUT$BLK.SUBLK$(I)->OUT$BLK.CODE=100 THEN

   7421 10 000524   202013 470500                    LDP0    OUT$,,AUTO
        10 000525   202007 720100                    LXL0    I,,AUTO
        10 000526   000003 471510                    LDP1    3,X0,PR0
        10 000527   100000 721100                    LXL1    0,,PR1
        10 000530   000144 101003                    CMPX1   100,DU
        10 000531   000534 601000 10                 TNZ     s:7424

      325     7422    5                       SCHEMA_FLAG='0'B;

   7422 10 000532   001267 450000 1                  STZ     SCHEMA_FLAG
        10 000533   000542 710000 10                 TRA     s:7427

PL6.E3A0      #001=IDD$DEF File=IDD$DEF.:E05TSI                                  TUE 07/29/97 22:29 Page:60
      326     7423    6                    ELSE DO;

      327     7424    6                      CALL PARSE_FID(OUT$BLK.SUBLK$(I)->OUT$BLK) ALTRET(NEXT_COMMAND);

   7424 10 000534   202025 451500                    STP1    TYPE2+1,,AUTO
        10 000535   002053 701000 10                 TSX1    PARSE_FID
        10 000536   001551 702000 10                 TSX2    NEXT_COMMAND

      328     7425    6                       XDLT=FID_BLK;

   7425 10 000537   000000 100400                    MLR     fill='000'O
        10 000540   000464 000204 1                  ADSC9   FID_BLK                  cn=0,n=132
        10 000541   000321 000204 1                  ADSC9   XDLT                     cn=0,n=132

      329     7426    6                       END;

      330     7427    5                    END;

   7427 10 000542   202007 054100                    AOS     I,,AUTO
        10 000543   202013 470500                    LDP0    OUT$,,AUTO
        10 000544   000001 236100                    LDQ     1,,PR0
        10 000545   000022 772000                    QRL     18
        10 000546   202007 116100                    CMPQ    I,,AUTO
        10 000547   000524 605400 10                 TPNZ    s:7421

      331     7428    5                 IF NOT XDLTLS.FLAGS.CMD THEN DO;

   7428 10 000550   000412 236000 1                  LDQ     XDLTLS+24
        10 000551   100000 316003                    CANQ    32768,DU
        10 000552   001551 601000 10                 TNZ     NEXT_COMMAND

      332     7429    5                    XDLTLS.ACCN=XDLT.ACCN;

   7429 10 000553   040000 100400                    MLR     fill='040'O
        10 000554   000331 000010 1                  ADSC9   XDLT+8                   cn=0,n=8
        10 000555   000372 000010 1                  ADSC9   XDLTLS+8                 cn=0,n=8

PL6.E3A0      #001=IDD$DEF File=IDD$DEF.:E05TSI                                  TUE 07/29/97 22:29 Page:61
      333     7430    5                    XDLTLS.RESULT.ACCN=XDLT.RESULT.ACCN;

   7430 10 000556   000346 236000 1                  LDQ     XDLT+21
        10 000557   000407 676000 1                  ERQ     XDLTLS+21
        10 000560   200000 376003                    ANQ     65536,DU
        10 000561   000407 656000 1                  ERSQ    XDLTLS+21

      334     7431    5                    END;

   7431 10 000562   001551 710000 10                 TRA     NEXT_COMMAND

      335     7432    4               CASE(%XDLTLS_CMD);

      336     7433    4                 CALL IDE$CHK_CMD(XDLTLS) ALTRET(NEXT_COMMAND);

   7433 10 000563   000035 630400 11                 EPPR0   29
        10 000564   000017 631400 xsym               EPPR1   B_VECTNIL+15
        10 000565   000000 701000 xent               TSX1    IDE$CHK_CMD
        10 000566   001551 702000 10                 TSX2    NEXT_COMMAND

      337     7434    4                 CALL PARSE_FID(OUT$BLK.SUBLK$(0)->OUT$BLK) ALTRET(NEXT_COMMAND);

   7434 10 000567   202013 470500                    LDP0    OUT$,,AUTO
        10 000570   000003 471500                    LDP1    3,,PR0
        10 000571   202025 451500                    STP1    TYPE2+1,,AUTO
        10 000572   002053 701000 10                 TSX1    PARSE_FID
        10 000573   001551 702000 10                 TSX2    NEXT_COMMAND

      338     7435    4                 XDLTLS=FID_BLK;

   7435 10 000574   000000 100400                    MLR     fill='000'O
        10 000575   000464 000204 1                  ADSC9   FID_BLK                  cn=0,n=132
        10 000576   000362 000204 1                  ADSC9   XDLTLS                   cn=0,n=132
        10 000577   001551 710000 10                 TRA     NEXT_COMMAND

      339     7436    4               CASE(%PATCH_CMD);

PL6.E3A0      #001=IDD$DEF File=IDD$DEF.:E05TSI                                  TUE 07/29/97 22:29 Page:62
      340     7437    5                 DO I=0 TO OUT$BLK.NSUBLKS-1;

   7437 10 000600   202007 450100                    STZ     I,,AUTO
        10 000601   000632 710000 10                 TRA     PTCHSKIP+1

      341     7438    5                    CALL BUILD_INCLSPEC(OUT$BLK.SUBLK$(I)->OUT$BLK) ALTRET(PTCHSKIP);

   7438 10 000602   202013 470500                    LDP0    OUT$,,AUTO
        10 000603   202007 720100                    LXL0    I,,AUTO
        10 000604   000003 471510                    LDP1    3,X0,PR0
        10 000605   202023 451500                    STP1    IGNR$+1,,AUTO
        10 000606   002151 701000 10                 TSX1    BUILD_INCLSPEC
        10 000607   000631 702000 10                 TSX2    PTCHSKIP

      342     7439    5                    IF ID_PTCHHEAD$=ADDR(NIL) THEN ID_PTCHHEAD$=CMDSEG$;

   7439 10 000610   000570 236000 1                  LDQ     ID_PTCHHEAD$
        10 000611   000001 116000 xsym               CMPQ    B_VECTNIL+1
        10 000612   000615 601000 10                 TNZ     s:7440

   7439 10 000613   200004 236100                    LDQ     CMDSEG$,,AUTO
        10 000614   000570 756000 1                  STQ     ID_PTCHHEAD$

      343     7440    5                    IF ID_PTCHTAIL$~=ADDR(NIL) THEN

   7440 10 000615   000571 236000 1                  LDQ     ID_PTCHTAIL$
        10 000616   000001 116000 xsym               CMPQ    B_VECTNIL+1
        10 000617   000623 600000 10                 TZE     s:7442

      344     7441    5                       ID_PTCHTAIL$->INCLSPEC.FL$=CMDSEG$;

   7441 10 000620   200004 236100                    LDQ     CMDSEG$,,AUTO
        10 000621   000571 470400 1                  LDP0    ID_PTCHTAIL$
        10 000622   000000 756100                    STQ     0,,PR0

      345     7442    5                    ID_PTCHTAIL$=CMDSEG$;

PL6.E3A0      #001=IDD$DEF File=IDD$DEF.:E05TSI                                  TUE 07/29/97 22:29 Page:63
   7442 10 000623   200004 236100                    LDQ     CMDSEG$,,AUTO
        10 000624   000571 756000 1                  STQ     ID_PTCHTAIL$

      346     7443    5                    CMDSEG$=PINCRW(CMDSEG$,SIZEW(INCLSPEC));

   7443 10 000625   000042 036003                    ADLQ    34,DU
        10 000626   200004 756100                    STQ     CMDSEG$,,AUTO

      347     7444    5                    CMDSEGSZ=CMDSEGSZ-SIZEW(INCLSPEC);

   7444 10 000627   000042 336007                    LCQ     34,DL
        10 000630   001270 056000 1                  ASQ     CMDSEGSZ

      348     7445    5   PTCHSKIP:        END;

   7445 10 000631   202007 054100       PTCHSKIP     AOS     I,,AUTO
        10 000632   202013 470500                    LDP0    OUT$,,AUTO
        10 000633   000001 236100                    LDQ     1,,PR0
        10 000634   000022 772000                    QRL     18
        10 000635   202007 116100                    CMPQ    I,,AUTO
        10 000636   000602 605400 10                 TPNZ    s:7438
        10 000637   001551 710000 10                 TRA     NEXT_COMMAND

      349     7446    4               CASE(%INSTALL_CMD);

      350     7447    4                 CALL IDE$CHK_CMD(XINSTALL) ALTRET(NEXT_COMMAND);

   7447 10 000640   000036 630400 11                 EPPR0   30
        10 000641   000017 631400 xsym               EPPR1   B_VECTNIL+15
        10 000642   000000 701000 xent               TSX1    IDE$CHK_CMD
        10 000643   001551 702000 10                 TSX2    NEXT_COMMAND

      351     7448    4                 CALL PARSE_FID(OUT$BLK.SUBLK$(0)->OUT$BLK) ALTRET(NEXT_COMMAND);

   7448 10 000644   202013 470500                    LDP0    OUT$,,AUTO
        10 000645   000003 471500                    LDP1    3,,PR0
        10 000646   202025 451500                    STP1    TYPE2+1,,AUTO
PL6.E3A0      #001=IDD$DEF File=IDD$DEF.:E05TSI                                  TUE 07/29/97 22:29 Page:64
        10 000647   002053 701000 10                 TSX1    PARSE_FID
        10 000650   001551 702000 10                 TSX2    NEXT_COMMAND

      352     7449    4                 XINSTALL=FID_BLK;

   7449 10 000651   000000 100400                    MLR     fill='000'O
        10 000652   000464 000204 1                  ADSC9   FID_BLK                  cn=0,n=132
        10 000653   000525 000204 1                  ADSC9   XINSTALL                 cn=0,n=132

      353     7450    4                 XINSTALL.ASFILE.L=LENGTHC('$XINSTALL');

   7450 10 000654   011000 236003                    LDQ     4608,DU
        10 000655   000556 552040 1                  STBQ    XINSTALL+25,'40'O

      354     7451    4                 XINSTALL.ASFILE.C='$XINSTALL';

   7451 10 000656   040000 100400                    MLR     fill='040'O
        10 000657   000005 000011 8                  ADSC9   PRMPT+5                  cn=0,n=9
        10 000660   000556 200037 1                  ADSC9   XINSTALL+25              cn=1,n=31
        10 000661   001551 710000 10                 TRA     NEXT_COMMAND

      355     7452    4               CASE(%INCLUDE_CMD);

      356     7453    4                 LABEL_FLG='1'B;

   7453 10 000662   400000 236003                    LDQ     -131072,DU
        10 000663   202015 756100                    STQ     LABEL_FLG,,AUTO

      357     7454    5                 DO I=0 TO OUT$BLK.NSUBLKS-1;

   7454 10 000664   202007 450100                    STZ     I,,AUTO
        10 000665   000743 710000 10                 TRA     INCLSKIP+1

      358     7455    5                    CALL BUILD_INCLSPEC(OUT$BLK.SUBLK$(I)->OUT$BLK.SUBLK$(0)->OUT$BLK)
              7455                             ALTRET(INCLSKIP);

   7455 10 000666   202013 470500                    LDP0    OUT$,,AUTO
PL6.E3A0      #001=IDD$DEF File=IDD$DEF.:E05TSI                                  TUE 07/29/97 22:29 Page:65
        10 000667   202007 720100                    LXL0    I,,AUTO
        10 000670   000003 471510                    LDP1    3,X0,PR0
        10 000671   100003 473500                    LDP3    3,,PR1
        10 000672   202023 453500                    STP3    IGNR$+1,,AUTO
        10 000673   002151 701000 10                 TSX1    BUILD_INCLSPEC
        10 000674   000742 702000 10                 TSX2    INCLSKIP

      359     7456    6                    IF OUT$BLK.SUBLK$(I)->OUT$BLK.NSUBLKS=2 THEN DO;

   7456 10 000675   202013 470500                    LDP0    OUT$,,AUTO
        10 000676   202007 720100                    LXL0    I,,AUTO
        10 000677   000003 471510                    LDP1    3,X0,PR0
        10 000700   100001 221100                    LDX1    1,,PR1
        10 000701   000002 101003                    CMPX1   2,DU
        10 000702   000721 601000 10                 TNZ     s:7460

      360     7457    6                       CMDSEG$->INCLSPEC.ASFILE.L=OUT$BLK.SUBLK$(I)->OUT$BLK.SUBLK$(1)
              7457                                ->SYM$BLK.COUNT;

   7457 10 000703   100004 473500                    LDP3    4,,PR1
        10 000704   200004 474500                    LDP4    CMDSEG$,,AUTO
        10 000705   300004 236100                    LDQ     4,,PR3
        10 000706   400032 552140                    STBQ    26,'40'O,PR4

      361     7458    6                       CMDSEG$->INCLSPEC.ASFILE.C=OUT$BLK.SUBLK$(I)->OUT$BLK.SUBLK$(1)
              7458                                ->SYM$BLK.TEXT;

   7458 10 000707   202013 470500                    LDP0    OUT$,,AUTO
        10 000710   202007 720100                    LXL0    I,,AUTO
        10 000711   000003 471510                    LDP1    3,X0,PR0
        10 000712   100004 473500                    LDP3    4,,PR1
        10 000713   300004 236100                    LDQ     4,,PR3
        10 000714   000033 772000                    QRL     27
        10 000715   000000 621006                    EAX1    0,QL
        10 000716   040100 100540                    MLR     fill='040'O
        10 000717   300004 200011                    ADSC9   4,,PR3                   cn=1,n=*X1
        10 000720   400032 200037                    ADSC9   26,,PR4                  cn=1,n=31
PL6.E3A0      #001=IDD$DEF File=IDD$DEF.:E05TSI                                  TUE 07/29/97 22:29 Page:66

      362     7459    6                       END;

      363     7460    5                    IF INCLHEAD$=ADDR(NIL) THEN INCLHEAD$=CMDSEG$;

   7460 10 000721   000566 236000 1                  LDQ     INCLHEAD$
        10 000722   000001 116000 xsym               CMPQ    B_VECTNIL+1
        10 000723   000726 601000 10                 TNZ     s:7461

   7460 10 000724   200004 236100                    LDQ     CMDSEG$,,AUTO
        10 000725   000566 756000 1                  STQ     INCLHEAD$

      364     7461    5                    IF INCLTAIL$~=ADDR(NIL) THEN

   7461 10 000726   000567 236000 1                  LDQ     INCLTAIL$
        10 000727   000001 116000 xsym               CMPQ    B_VECTNIL+1
        10 000730   000734 600000 10                 TZE     s:7463

      365     7462    5                       INCLTAIL$->INCLSPEC.FL$=CMDSEG$;

   7462 10 000731   200004 236100                    LDQ     CMDSEG$,,AUTO
        10 000732   000567 470400 1                  LDP0    INCLTAIL$
        10 000733   000000 756100                    STQ     0,,PR0

      366     7463    5                    INCLTAIL$=CMDSEG$;

   7463 10 000734   200004 236100                    LDQ     CMDSEG$,,AUTO
        10 000735   000567 756000 1                  STQ     INCLTAIL$

      367     7464    5                    CMDSEG$=PINCRW(CMDSEG$,SIZEW(INCLSPEC));

   7464 10 000736   000042 036003                    ADLQ    34,DU
        10 000737   200004 756100                    STQ     CMDSEG$,,AUTO

      368     7465    5                    CMDSEGSZ=CMDSEGSZ-SIZEW(INCLSPEC);

   7465 10 000740   000042 336007                    LCQ     34,DL
PL6.E3A0      #001=IDD$DEF File=IDD$DEF.:E05TSI                                  TUE 07/29/97 22:29 Page:67
        10 000741   001270 056000 1                  ASQ     CMDSEGSZ

      369     7466    5   INCLSKIP:        END;

   7466 10 000742   202007 054100       INCLSKIP     AOS     I,,AUTO
        10 000743   202013 470500                    LDP0    OUT$,,AUTO
        10 000744   000001 236100                    LDQ     1,,PR0
        10 000745   000022 772000                    QRL     18
        10 000746   202007 116100                    CMPQ    I,,AUTO
        10 000747   000666 605400 10                 TPNZ    s:7455
        10 000750   001551 710000 10                 TRA     NEXT_COMMAND

      370     7467    4               CASE(%SEARCH_CMD);

      371     7468    5                 DO I=0 TO OUT$BLK.NSUBLKS-1;

   7468 10 000751   202007 450100                    STZ     I,,AUTO
        10 000752   001050 710000 10                 TRA     SRCHSKIP+1

      372     7469    5                    CALL PARSE_FID(OUT$BLK.SUBLK$(I)->OUT$BLK) ALTRET(SRCHSKIP);

   7469 10 000753   202013 470500                    LDP0    OUT$,,AUTO
        10 000754   202007 720100                    LXL0    I,,AUTO
        10 000755   000003 471510                    LDP1    3,X0,PR0
        10 000756   202025 451500                    STP1    TYPE2+1,,AUTO
        10 000757   002053 701000 10                 TSX1    PARSE_FID
        10 000760   001047 702000 10                 TSX2    SRCHSKIP

      373     7470    6                    IF FID_BLK.RESULT.FNAME THEN DO;

   7470 10 000761   000511 234000 1                  SZN     FID_BLK+21
        10 000762   001003 605000 10                 TPL     s:7475

      374     7471    6                       J=OUT$BLK.SUBLK$(I)->OUT$BLK.CPOS;

   7471 10 000763   202013 470500                    LDP0    OUT$,,AUTO
        10 000764   202007 720100                    LXL0    I,,AUTO
PL6.E3A0      #001=IDD$DEF File=IDD$DEF.:E05TSI                                  TUE 07/29/97 22:29 Page:68
        10 000765   000003 471510                    LDP1    3,X0,PR0
        10 000766   100002 235100                    LDA     2,,PR1
        10 000767   202010 755100                    STA     J,,AUTO

      375     7472    6                       CALL ERRMSG(%E$FNAME_ILGL,DCBNUM(NIL),J);

   7472 10 000770   000001 236000 xsym               LDQ     B_VECTNIL+1
        10 000771   202032 756100                    STQ     @CPOS+1,,AUTO
        10 000772   202010 631500                    EPPR1   J,,AUTO
        10 000773   202031 451500                    STP1    @EDCB+1,,AUTO
        10 000774   000023 236000 11                 LDQ     19
        10 000775   202030 756100                    STQ     @C#+1,,AUTO
        10 000776   000040 236000 11                 LDQ     32
        10 000777   202027 756100                    STQ     @OUTSYM+2,,AUTO
        10 001000   003303 701000 10                 TSX1    ERRMSG
        10 001001   000000 011000                    NOP     0

      376     7473    6                       END;

   7473 10 001002   001047 710000 10                 TRA     SRCHSKIP

      377     7474    6                    ELSE DO;

      378     7475    6                       IF CMDSEGSZ<SIZEW(SRCHSPEC) THEN

   7475 10 001003   001270 235000 1                  LDA     CMDSEGSZ
        10 001004   000005 115007                    CMPA    5,DL
        10 001005   001010 605000 10                 TPL     s:7477

      379     7476    6                          CALL GET_CMD_SPACE;

   7476 10 001006   002007 701000 10                 TSX1    GET_CMD_SPACE
        10 001007   000000 011000                    NOP     0

      380     7477    6                       IF SRCHHEAD$=ADDR(NIL) THEN SRCHHEAD$=CMDSEG$;

   7477 10 001010   000572 236000 1                  LDQ     SRCHHEAD$
PL6.E3A0      #001=IDD$DEF File=IDD$DEF.:E05TSI                                  TUE 07/29/97 22:29 Page:69
        10 001011   000001 116000 xsym               CMPQ    B_VECTNIL+1
        10 001012   001015 601000 10                 TNZ     s:7478

   7477 10 001013   200004 236100                    LDQ     CMDSEG$,,AUTO
        10 001014   000572 756000 1                  STQ     SRCHHEAD$

      381     7478    6                       IF SRCHTAIL$~=ADDR(NIL) THEN

   7478 10 001015   000573 236000 1                  LDQ     SRCHTAIL$
        10 001016   000001 116000 xsym               CMPQ    B_VECTNIL+1
        10 001017   001023 600000 10                 TZE     s:7480

      382     7479    6                          SRCHTAIL$->SRCHSPEC.FL$=CMDSEG$;

   7479 10 001020   200004 236100                    LDQ     CMDSEG$,,AUTO
        10 001021   000573 470400 1                  LDP0    SRCHTAIL$
        10 001022   000000 756100                    STQ     0,,PR0

      383     7480    6                       SRCHTAIL$=CMDSEG$;

   7480 10 001023   200004 236100                    LDQ     CMDSEG$,,AUTO
        10 001024   000573 756000 1                  STQ     SRCHTAIL$

      384     7481    6                       CMDSEG$->SRCHSPEC.ACCN=FID_BLK.ACCN;

   7481 10 001025   200004 470500                    LDP0    CMDSEG$,,AUTO
        10 001026   000474 237000 1                  LDAQ    FID_BLK+8
        10 001027   000001 755100                    STA     1,,PR0
        10 001030   000002 756100                    STQ     2,,PR0

      385     7482    6                       CMDSEG$->SRCHSPEC.SN=FID_BLK.SNX.TXT(0);

   7482 10 001031   040100 100400                    MLR     fill='040'O
        10 001032   000502 000006 1                  ADSC9   FID_BLK+14               cn=0,n=6
        10 001033   000003 000006                    ADSC9   3,,PR0                   cn=0,n=6

      386     7483    6                       CMDSEG$->SRCHSPEC.ASN=FID_BLK.ASNX;
PL6.E3A0      #001=IDD$DEF File=IDD$DEF.:E05TSI                                  TUE 07/29/97 22:29 Page:70

   7483 10 001034   000513 236000 1                  LDQ     FID_BLK+23
        10 001035   000033 772000                    QRL     27
        10 001036   000000 620006                    EAX0    0,QL
        10 001037   000004 440100                    SXL0    4,,PR0

      387     7484    6                       CMDSEG$->SRCHSPEC.FL$=ADDR(NIL);

   7484 10 001040   000001 236000 xsym               LDQ     B_VECTNIL+1
        10 001041   000000 756100                    STQ     0,,PR0

      388     7485    6                       CMDSEG$=PINCRW(CMDSEG$,SIZEW(SRCHSPEC));

   7485 10 001042   200004 236100                    LDQ     CMDSEG$,,AUTO
        10 001043   000005 036003                    ADLQ    5,DU
        10 001044   200004 756100                    STQ     CMDSEG$,,AUTO

      389     7486    6                       CMDSEGSZ=CMDSEGSZ-SIZEW(SRCHSPEC);

   7486 10 001045   000005 336007                    LCQ     5,DL
        10 001046   001270 056000 1                  ASQ     CMDSEGSZ

      390     7487    6                       END;

      391     7488    5   SRCHSKIP:        END;

   7488 10 001047   202007 054100       SRCHSKIP     AOS     I,,AUTO
        10 001050   202013 470500                    LDP0    OUT$,,AUTO
        10 001051   000001 236100                    LDQ     1,,PR0
        10 001052   000022 772000                    QRL     18
        10 001053   202007 116100                    CMPQ    I,,AUTO
        10 001054   000753 605400 10                 TPNZ    s:7469
        10 001055   001551 710000 10                 TRA     NEXT_COMMAND

      392     7489    4               CASE(%ACCOUNT_CMD);

      393     7490    4                 LABEL_FLG='1'B;
PL6.E3A0      #001=IDD$DEF File=IDD$DEF.:E05TSI                                  TUE 07/29/97 22:29 Page:71

   7490 10 001056   400000 236003                    LDQ     -131072,DU
        10 001057   202015 756100                    STQ     LABEL_FLG,,AUTO

      394     7491    4                 CALL PARSE_FID(OUT$BLK.SUBLK$(0)->OUT$BLK) ALTRET(NEXT_COMMAND);

   7491 10 001060   000003 471500                    LDP1    3,,PR0
        10 001061   202025 451500                    STP1    TYPE2+1,,AUTO
        10 001062   002053 701000 10                 TSX1    PARSE_FID
        10 001063   001551 702000 10                 TSX2    NEXT_COMMAND

      395     7492    5                 IF FID_BLK.RESULT.FNAME THEN DO;

   7492 10 001064   000511 234000 1                  SZN     FID_BLK+21
        10 001065   001105 605000 10                 TPL     s:7497

      396     7493    5                    J=OUT$BLK.SUBLK$(0)->OUT$BLK.CPOS;

   7493 10 001066   202013 470500                    LDP0    OUT$,,AUTO
        10 001067   000003 471500                    LDP1    3,,PR0
        10 001070   100002 235100                    LDA     2,,PR1
        10 001071   202010 755100                    STA     J,,AUTO

      397     7494    5                    CALL ERRMSG(%E$FNAME_ILGL,DCBNUM(NIL),J);

   7494 10 001072   000001 236000 xsym               LDQ     B_VECTNIL+1
        10 001073   202032 756100                    STQ     @CPOS+1,,AUTO
        10 001074   202010 631500                    EPPR1   J,,AUTO
        10 001075   202031 451500                    STP1    @EDCB+1,,AUTO
        10 001076   000023 236000 11                 LDQ     19
        10 001077   202030 756100                    STQ     @C#+1,,AUTO
        10 001100   000040 236000 11                 LDQ     32
        10 001101   202027 756100                    STQ     @OUTSYM+2,,AUTO
        10 001102   003303 701000 10                 TSX1    ERRMSG
        10 001103   000000 011000                    NOP     0

      398     7495    5                    GOTO NEXT_COMMAND;
PL6.E3A0      #001=IDD$DEF File=IDD$DEF.:E05TSI                                  TUE 07/29/97 22:29 Page:72

   7495 10 001104   001551 710000 10                 TRA     NEXT_COMMAND

      399     7496    5                    END;
      400     7497    5                 IF NOT FID_BLK.RESULT.ACCN THEN DO;

   7497 10 001105   000511 236000 1                  LDQ     FID_BLK+21
        10 001106   200000 316003                    CANQ    65536,DU
        10 001107   001127 601000 10                 TNZ     s:7502

      401     7498    5                    J=OUT$BLK.SUBLK$(0)->OUT$BLK.CPOS;

   7498 10 001110   202013 470500                    LDP0    OUT$,,AUTO
        10 001111   000003 471500                    LDP1    3,,PR0
        10 001112   100002 235100                    LDA     2,,PR1
        10 001113   202010 755100                    STA     J,,AUTO

      402     7499    5                    CALL ERRMSG(%E$NOACCN,DCBNUM(NIL),J);

   7499 10 001114   000001 236000 xsym               LDQ     B_VECTNIL+1
        10 001115   202032 756100                    STQ     @CPOS+1,,AUTO
        10 001116   202010 631500                    EPPR1   J,,AUTO
        10 001117   202031 451500                    STP1    @EDCB+1,,AUTO
        10 001120   000023 236000 11                 LDQ     19
        10 001121   202030 756100                    STQ     @C#+1,,AUTO
        10 001122   000042 236000 11                 LDQ     34
        10 001123   202027 756100                    STQ     @OUTSYM+2,,AUTO
        10 001124   003303 701000 10                 TSX1    ERRMSG
        10 001125   000000 011000                    NOP     0

      403     7500    5                    GOTO NEXT_COMMAND;

   7500 10 001126   001551 710000 10                 TRA     NEXT_COMMAND

      404     7501    5                    END;
      405     7502    5                 DO I=1 TO OUT$BLK.NSUBLKS-1;

PL6.E3A0      #001=IDD$DEF File=IDD$DEF.:E05TSI                                  TUE 07/29/97 22:29 Page:73
   7502 10 001127   000001 235007                    LDA     1,DL
        10 001130   202007 755100                    STA     I,,AUTO
        10 001131   001157 710000 10                 TRA     s:7508+1

      406     7503    6                    IF OUT$BLK.SUBLK$(I)->SYM$BLK.COUNT > 2 THEN DO;

   7503 10 001132   202013 470500                    LDP0    OUT$,,AUTO
        10 001133   202007 720100                    LXL0    I,,AUTO
        10 001134   000003 471510                    LDP1    3,X0,PR0
        10 001135   100004 236100                    LDQ     4,,PR1
        10 001136   777000 376003                    ANQ     -512,DU
        10 001137   003000 116003                    CMPQ    1536,DU
        10 001140   001156 602000 10                 TNC     s:7508

      407     7504    6                       J=OUT$BLK.SUBLK$(I)->OUT$BLK.CPOS;

   7504 10 001141   100002 235100                    LDA     2,,PR1
        10 001142   202010 755100                    STA     J,,AUTO

      408     7505    6                       CALL ERRMSG(%E$BADTYPE,DCBNUM(NIL),J);

   7505 10 001143   000001 236000 xsym               LDQ     B_VECTNIL+1
        10 001144   202032 756100                    STQ     @CPOS+1,,AUTO
        10 001145   202010 631500                    EPPR1   J,,AUTO
        10 001146   202031 451500                    STP1    @EDCB+1,,AUTO
        10 001147   000023 236000 11                 LDQ     19
        10 001150   202030 756100                    STQ     @C#+1,,AUTO
        10 001151   000044 236000 11                 LDQ     36
        10 001152   202027 756100                    STQ     @OUTSYM+2,,AUTO
        10 001153   003303 701000 10                 TSX1    ERRMSG
        10 001154   000000 011000                    NOP     0

      409     7506    6                       GOTO NEXT_COMMAND;

   7506 10 001155   001551 710000 10                 TRA     NEXT_COMMAND

      410     7507    6                       END;
PL6.E3A0      #001=IDD$DEF File=IDD$DEF.:E05TSI                                  TUE 07/29/97 22:29 Page:74
      411     7508    5                    END;

   7508 10 001156   202007 054100                    AOS     I,,AUTO
        10 001157   202013 470500                    LDP0    OUT$,,AUTO
        10 001160   000001 236100                    LDQ     1,,PR0
        10 001161   000022 772000                    QRL     18
        10 001162   202007 116100                    CMPQ    I,,AUTO
        10 001163   001132 605400 10                 TPNZ    s:7503

      412     7509    4                 TEMP = SIZEW(ACCNSPEC) + OUT$BLK.NSUBLKS/2;

   7509 10 001164   000001 772000                    QRL     1
        10 001165   000010 036007                    ADLQ    8,DL
        10 001166   202011 756100                    STQ     TEMP,,AUTO

      413     7510    4                 IF CMDSEGSZ<TEMP THEN

   7510 10 001167   001270 116000 1                  CMPQ    CMDSEGSZ
        10 001170   001173 604400 10                 TMOZ    s:7512

      414     7511    4                    CALL GET_CMD_SPACE;

   7511 10 001171   002007 701000 10                 TSX1    GET_CMD_SPACE
        10 001172   000000 011000                    NOP     0

      415     7512    4                 IF ACCNHEAD$=ADDR(NIL) THEN ACCNHEAD$=CMDSEG$;

   7512 10 001173   000574 236000 1                  LDQ     ACCNHEAD$
        10 001174   000001 116000 xsym               CMPQ    B_VECTNIL+1
        10 001175   001200 601000 10                 TNZ     s:7513

   7512 10 001176   200004 236100                    LDQ     CMDSEG$,,AUTO
        10 001177   000574 756000 1                  STQ     ACCNHEAD$

      416     7513    4                 IF ACCNTAIL$~=ADDR(NIL) THEN

   7513 10 001200   000575 236000 1                  LDQ     ACCNTAIL$
PL6.E3A0      #001=IDD$DEF File=IDD$DEF.:E05TSI                                  TUE 07/29/97 22:29 Page:75
        10 001201   000001 116000 xsym               CMPQ    B_VECTNIL+1
        10 001202   001206 600000 10                 TZE     s:7515

      417     7514    4                    ACCNTAIL$->ACCNSPEC.FL$=CMDSEG$;

   7514 10 001203   200004 236100                    LDQ     CMDSEG$,,AUTO
        10 001204   000575 470400 1                  LDP0    ACCNTAIL$
        10 001205   000000 756100                    STQ     0,,PR0

      418     7515    4                 ACCNTAIL$=CMDSEG$;

   7515 10 001206   200004 236100                    LDQ     CMDSEG$,,AUTO
        10 001207   000575 756000 1                  STQ     ACCNTAIL$

      419     7516    4                 CMDSEG$->ACCNSPEC.ACCN=FID_BLK.ACCN;

   7516 10 001210   200004 470500                    LDP0    CMDSEG$,,AUTO
        10 001211   000474 237000 1                  LDAQ    FID_BLK+8
        10 001212   000001 755100                    STA     1,,PR0
        10 001213   000002 756100                    STQ     2,,PR0

      420     7517    4                 CMDSEG$->ACCNSPEC.SN.CNT=FID_BLK.SNX.CNT;

   7517 10 001214   000501 235000 1                  LDA     FID_BLK+13
        10 001215   000003 755100                    STA     3,,PR0

      421     7518    4                 CMDSEG$->ACCNSPEC.SN.TXT=FID_BLK.SNX.TXT(0);

   7518 10 001216   040100 100400                    MLR     fill='040'O
        10 001217   000502 000006 1                  ADSC9   FID_BLK+14               cn=0,n=6
        10 001220   000004 000006                    ADSC9   4,,PR0                   cn=0,n=6

      422     7519    4                 CMDSEG$->ACCNSPEC.ASN=FID_BLK.ASNX;

   7519 10 001221   000513 236000 1                  LDQ     FID_BLK+23
        10 001222   000033 772000                    QRL     27
        10 001223   000000 620006                    EAX0    0,QL
PL6.E3A0      #001=IDD$DEF File=IDD$DEF.:E05TSI                                  TUE 07/29/97 22:29 Page:76
        10 001224   000006 740100                    STX0    6,,PR0

      423     7520    5                 DO I=1 TO OUT$BLK.NSUBLKS-1;

   7520 10 001225   000001 236007                    LDQ     1,DL
        10 001226   202007 756100                    STQ     I,,AUTO
        10 001227   001245 710000 10                 TRA     s:7522+1

      424     7521    5                    CMDSEG$->ACCNSPEC.TYPE(I-1)=OUT$BLK.SUBLK$(I)->SYM$BLK.TEXT;

   7521 10 001230   202013 470500                    LDP0    OUT$,,AUTO
        10 001231   202007 720100                    LXL0    I,,AUTO
        10 001232   000003 471510                    LDP1    3,X0,PR0
        10 001233   100004 236100                    LDQ     4,,PR1
        10 001234   000033 772000                    QRL     27
        10 001235   202007 235100                    LDA     I,,AUTO
        10 001236   000001 735000                    ALS     1
        10 001237   000000 621006                    EAX1    0,QL
        10 001240   200004 473500                    LDP3    CMDSEG$,,AUTO
        10 001241   040105 100540                    MLR     fill='040'O
        10 001242   100004 200011                    ADSC9   4,,PR1                   cn=1,n=*X1
        10 001243   300006 400002                    ADSC9   6,A,PR3                  cn=2,n=2

      425     7522    5                    END;

   7522 10 001244   202007 054100                    AOS     I,,AUTO
        10 001245   202013 470500                    LDP0    OUT$,,AUTO
        10 001246   000001 236100                    LDQ     1,,PR0
        10 001247   000022 772000                    QRL     18
        10 001250   202007 116100                    CMPQ    I,,AUTO
        10 001251   001230 605400 10                 TPNZ    s:7521

      426     7523    4                 CMDSEG$->ACCNSPEC.NTYPES=OUT$BLK.NSUBLKS-1;

   7523 10 001252   000001 220100                    LDX0    1,,PR0
        10 001253   777777 621010                    EAX1    -1,X0
        10 001254   200004 471500                    LDP1    CMDSEG$,,AUTO
PL6.E3A0      #001=IDD$DEF File=IDD$DEF.:E05TSI                                  TUE 07/29/97 22:29 Page:77
        10 001255   100006 441100                    SXL1    6,,PR1

      427     7524    4                 CMDSEG$->ACCNSPEC.FL$=ADDR(NIL);

   7524 10 001256   000001 236000 xsym               LDQ     B_VECTNIL+1
        10 001257   100000 756100                    STQ     0,,PR1

      428     7525    4                 CMDSEG$=PINCRW(CMDSEG$,TEMP);

   7525 10 001260   202011 236100                    LDQ     TEMP,,AUTO
        10 001261   000022 736000                    QLS     18
        10 001262   200004 036100                    ADLQ    CMDSEG$,,AUTO
        10 001263   200004 756100                    STQ     CMDSEG$,,AUTO

      429     7526    4                 CMDSEGSZ=CMDSEGSZ-TEMP;

   7526 10 001264   001270 236000 1                  LDQ     CMDSEGSZ
        10 001265   202011 136100                    SBLQ    TEMP,,AUTO
        10 001266   001270 756000 1                  STQ     CMDSEGSZ
        10 001267   001551 710000 10                 TRA     NEXT_COMMAND

      430     7527    4               CASE(%IGNORE_CMD);

      431     7528    5                 DO I=0 TO OUT$BLK.NSUBLKS-1;

   7528 10 001270   202007 450100                    STZ     I,,AUTO
        10 001271   001322 710000 10                 TRA     IGNRSKIP+1

      432     7529    5                    CALL BUILD_INCLSPEC(OUT$BLK.SUBLK$(I)->OUT$BLK) ALTRET(IGNRSKIP);

   7529 10 001272   202013 470500                    LDP0    OUT$,,AUTO
        10 001273   202007 720100                    LXL0    I,,AUTO
        10 001274   000003 471510                    LDP1    3,X0,PR0
        10 001275   202023 451500                    STP1    IGNR$+1,,AUTO
        10 001276   002151 701000 10                 TSX1    BUILD_INCLSPEC
        10 001277   001321 702000 10                 TSX2    IGNRSKIP

PL6.E3A0      #001=IDD$DEF File=IDD$DEF.:E05TSI                                  TUE 07/29/97 22:29 Page:78
      433     7530    5                    IF IGNRHEAD$=ADDR(NIL) THEN IGNRHEAD$=CMDSEG$;

   7530 10 001300   000576 236000 1                  LDQ     IGNRHEAD$
        10 001301   000001 116000 xsym               CMPQ    B_VECTNIL+1
        10 001302   001305 601000 10                 TNZ     s:7531

   7530 10 001303   200004 236100                    LDQ     CMDSEG$,,AUTO
        10 001304   000576 756000 1                  STQ     IGNRHEAD$

      434     7531    5                    IF IGNRTAIL$~=ADDR(NIL) THEN

   7531 10 001305   000577 236000 1                  LDQ     IGNRTAIL$
        10 001306   000001 116000 xsym               CMPQ    B_VECTNIL+1
        10 001307   001313 600000 10                 TZE     s:7533

      435     7532    5                       IGNRTAIL$->INCLSPEC.FL$=CMDSEG$;

   7532 10 001310   200004 236100                    LDQ     CMDSEG$,,AUTO
        10 001311   000577 470400 1                  LDP0    IGNRTAIL$
        10 001312   000000 756100                    STQ     0,,PR0

      436     7533    5                    IGNRTAIL$=CMDSEG$;

   7533 10 001313   200004 236100                    LDQ     CMDSEG$,,AUTO
        10 001314   000577 756000 1                  STQ     IGNRTAIL$

      437     7534    5                    CMDSEG$=PINCRW(CMDSEG$,SIZEW(INCLSPEC));

   7534 10 001315   000042 036003                    ADLQ    34,DU
        10 001316   200004 756100                    STQ     CMDSEG$,,AUTO

      438     7535    5                    CMDSEGSZ=CMDSEGSZ-SIZEW(INCLSPEC);

   7535 10 001317   000042 336007                    LCQ     34,DL
        10 001320   001270 056000 1                  ASQ     CMDSEGSZ

      439     7536    5   IGNRSKIP:        END;
PL6.E3A0      #001=IDD$DEF File=IDD$DEF.:E05TSI                                  TUE 07/29/97 22:29 Page:79

   7536 10 001321   202007 054100       IGNRSKIP     AOS     I,,AUTO
        10 001322   202013 470500                    LDP0    OUT$,,AUTO
        10 001323   000001 236100                    LDQ     1,,PR0
        10 001324   000022 772000                    QRL     18
        10 001325   202007 116100                    CMPQ    I,,AUTO
        10 001326   001272 605400 10                 TPNZ    s:7529
        10 001327   001551 710000 10                 TRA     NEXT_COMMAND

      440     7537    4               CASE(%SCHEMA_CMD);

      441     7538    5                 DO I=0 TO OUT$BLK.NSUBLKS-1;

   7538 10 001330   202007 450100                    STZ     I,,AUTO
        10 001331   001372 710000 10                 TRA     s:7550+1

      442     7539    6                    IF OUT$BLK.SUBLK$(I)->SYM$BLK.COUNT>2 THEN DO;

   7539 10 001332   202013 470500                    LDP0    OUT$,,AUTO
        10 001333   202007 720100                    LXL0    I,,AUTO
        10 001334   000003 471510                    LDP1    3,X0,PR0
        10 001335   100004 236100                    LDQ     4,,PR1
        10 001336   777000 376003                    ANQ     -512,DU
        10 001337   003000 116003                    CMPQ    1536,DU
        10 001340   001356 602000 10                 TNC     s:7547

      443     7540    6                       TEMP=OUT$BLK.SUBLK$(I)->SYM$BLK.CPOS;

   7540 10 001341   100002 235100                    LDA     2,,PR1
        10 001342   202011 755100                    STA     TEMP,,AUTO

      444     7541    6                       CALL ERRMSG(%E$FCG2BIG,DCBNUM(NIL),TEMP);

   7541 10 001343   000001 236000 xsym               LDQ     B_VECTNIL+1
        10 001344   202032 756100                    STQ     @CPOS+1,,AUTO
        10 001345   202011 631500                    EPPR1   TEMP,,AUTO
        10 001346   202031 451500                    STP1    @EDCB+1,,AUTO
PL6.E3A0      #001=IDD$DEF File=IDD$DEF.:E05TSI                                  TUE 07/29/97 22:29 Page:80
        10 001347   000023 236000 11                 LDQ     19
        10 001350   202030 756100                    STQ     @C#+1,,AUTO
        10 001351   000046 236000 11                 LDQ     38
        10 001352   202027 756100                    STQ     @OUTSYM+2,,AUTO
        10 001353   003303 701000 10                 TSX1    ERRMSG
        10 001354   000000 011000                    NOP     0

      445     7542        /*E*       ERROR:  IDD-E$FCG2BIG
      446     7543                   MESSAGE: FCGs for schema are one or two characters.
      447     7544        */
      448     7545    6                       END;

   7545 10 001355   001371 710000 10                 TRA     s:7550

      449     7546    6                    ELSE DO;

      450     7547    6                       SCHEMA_TBL.FCG(SCHEMA_TBL.CNT)=OUT$BLK.SUBLK$(I)->SYM$BLK.TEXT;

   7547 10 001356   100004 236100                    LDQ     4,,PR1
        10 001357   000033 772000                    QRL     27
        10 001360   001670 235000 1                  LDA     SCHEMA_TBL
        10 001361   000001 735000                    ALS     1
        10 001362   000000 621006                    EAX1    0,QL
        10 001363   040005 100540                    MLR     fill='040'O
        10 001364   100004 200011                    ADSC9   4,,PR1                   cn=1,n=*X1
        10 001365   001671 000002 1                  ADSC9   SCHEMA_TBL+1,A           cn=0,n=2

      451     7548    6                       SCHEMA_TBL.CNT=SCHEMA_TBL.CNT+1;

   7548 10 001366   001670 235000 1                  LDA     SCHEMA_TBL
        10 001367   000001 035007                    ADLA    1,DL
        10 001370   001670 755000 1                  STA     SCHEMA_TBL

      452     7549    6                       END;

      453     7550    5                    END;

PL6.E3A0      #001=IDD$DEF File=IDD$DEF.:E05TSI                                  TUE 07/29/97 22:29 Page:81
   7550 10 001371   202007 054100                    AOS     I,,AUTO
        10 001372   202013 470500                    LDP0    OUT$,,AUTO
        10 001373   000001 236100                    LDQ     1,,PR0
        10 001374   000022 772000                    QRL     18
        10 001375   202007 116100                    CMPQ    I,,AUTO
        10 001376   001332 605400 10                 TPNZ    s:7539
        10 001377   001551 710000 10                 TRA     NEXT_COMMAND

      454     7551    4               CASE(%END_CMD);

      455     7552    4                 END_FLG='1'B;

   7552 10 001400   400000 236003                    LDQ     -131072,DU
        10 001401   001266 756000 1                  STQ     END_FLG
        10 001402   001551 710000 10                 TRA     NEXT_COMMAND

      456     7553    4               CASE(%SITEID_CMD);

      457     7554    4                 ID_SITEINFO.SITE_ID#=OUT$BLK.SUBLK$(0)->SYM$BLK.TEXT;

   7554 10 001403   000003 471500                    LDP1    3,,PR0
        10 001404   100004 236100                    LDQ     4,,PR1
        10 001405   000033 772000                    QRL     27
        10 001406   000000 621006                    EAX1    0,QL
        10 001407   040000 100540                    MLR     fill='040'O
        10 001410   100004 200011                    ADSC9   4,,PR1                   cn=1,n=*X1
        10 001411   002056 000006 1                  ADSC9   ID_SITEINFO+54           cn=0,n=6
        10 001412   001551 710000 10                 TRA     NEXT_COMMAND

      458     7555    4               CASE(%SITENAME_CMD);

      459     7556    4                 ID_SITEINFO.SITE_NAME#.L=OUT$BLK.SUBLK$(0)->SYM$BLK.COUNT;

   7556 10 001413   000003 471500                    LDP1    3,,PR0
        10 001414   100004 236100                    LDQ     4,,PR1
        10 001415   001771 552040 1                  STBQ    ID_SITEINFO+1,'40'O

PL6.E3A0      #001=IDD$DEF File=IDD$DEF.:E05TSI                                  TUE 07/29/97 22:29 Page:82
      460     7557    4                 ID_SITEINFO.SITE_NAME#.C=OUT$BLK.SUBLK$(0)->SYM$BLK.TEXT;

   7557 10 001416   000003 471500                    LDP1    3,,PR0
        10 001417   100004 236100                    LDQ     4,,PR1
        10 001420   000033 772000                    QRL     27
        10 001421   000000 620006                    EAX0    0,QL
        10 001422   040000 100540                    MLR     fill='040'O
        10 001423   100004 200010                    ADSC9   4,,PR1                   cn=1,n=*X0
        10 001424   001771 200167 1                  ADSC9   ID_SITEINFO+1            cn=1,n=119
        10 001425   001551 710000 10                 TRA     NEXT_COMMAND

      461     7558    4               CASE(%SALUTATION_CMD);

      462     7559    4                 ID_SITEINFO.SALUTATION#.L=OUT$BLK.SUBLK$(0)->SYM$BLK.COUNT;

   7559 10 001426   000003 471500                    LDP1    3,,PR0
        10 001427   100004 236100                    LDQ     4,,PR1
        10 001430   002027 552040 1                  STBQ    ID_SITEINFO+31,'40'O

      463     7560    4                 ID_SITEINFO.SALUTATION#.C=OUT$BLK.SUBLK$(0)->SYM$BLK.TEXT;

   7560 10 001431   000003 471500                    LDP1    3,,PR0
        10 001432   100004 236100                    LDQ     4,,PR1
        10 001433   000033 772000                    QRL     27
        10 001434   000000 620006                    EAX0    0,QL
        10 001435   040000 100540                    MLR     fill='040'O
        10 001436   100004 200010                    ADSC9   4,,PR1                   cn=1,n=*X0
        10 001437   002027 200117 1                  ADSC9   ID_SITEINFO+31           cn=1,n=79
        10 001440   001551 710000 10                 TRA     NEXT_COMMAND

      464     7561    4               CASE(%MINI_ID_CMD);

      465     7562    4                 ID_SITEINFO.MINI_ID#=OUT$BLK.SUBLK$(0)->SYM$BLK.TEXT;

   7562 10 001441   000003 471500                    LDP1    3,,PR0
        10 001442   100004 236100                    LDQ     4,,PR1
        10 001443   000033 772000                    QRL     27
PL6.E3A0      #001=IDD$DEF File=IDD$DEF.:E05TSI                                  TUE 07/29/97 22:29 Page:83
        10 001444   000000 621006                    EAX1    0,QL
        10 001445   040000 100540                    MLR     fill='040'O
        10 001446   100004 200011                    ADSC9   4,,PR1                   cn=1,n=*X1
        10 001447   001770 000003 1                  ADSC9   ID_SITEINFO              cn=0,n=3
        10 001450   001551 710000 10                 TRA     NEXT_COMMAND

      466     7563    4               CASE(%DENSITY_CMD);

      467     7564    4                 ID_DENSITY=OUT$BLK.SUBLK$(0)->OUT$BLK.CODE;

   7564 10 001451   000003 471500                    LDP1    3,,PR0
        10 001452   100000 236100                    LDQ     0,,PR1
        10 001453   777777 376007                    ANQ     -1,DL
        10 001454   002111 756000 1                  STQ     ID_DENSITY
        10 001455   001551 710000 10                 TRA     NEXT_COMMAND

      468     7565    4               CASE(%NOFILES_CMD);

      469     7566    4                 NOFILES_FLG='1'B;

   7566 10 001456   400000 236003                    LDQ     -131072,DU
        10 001457   202014 756100                    STQ     NOFILES_FLG,,AUTO
        10 001460   001551 710000 10                 TRA     NEXT_COMMAND

      470     7567    4               CASE(%NOLIST_CMD);

      471     7568    4                 ID_LISTFLG='0'B;

   7568 10 001461   002122 450000 1                  STZ     ID_LISTFLG
        10 001462   001551 710000 10                 TRA     NEXT_COMMAND

      472     7569    4               CASE(%VERIFY_CMD);

      473     7570    4                 ID_VERIFLG='1'B;

   7570 10 001463   400000 236003                    LDQ     -131072,DU
        10 001464   002116 756000 1                  STQ     ID_VERIFLG
PL6.E3A0      #001=IDD$DEF File=IDD$DEF.:E05TSI                                  TUE 07/29/97 22:29 Page:84
        10 001465   001551 710000 10                 TRA     NEXT_COMMAND

      474     7571    4               CASE(%BLOCK_CMD);

      475     7572    5                 IF B$JIT.PRIV.ACTIVE & %PR_FMBLK# THEN DO;

   7572 10 001466   000000 471400 xsym               LDP1    B$JIT$
        10 001467   100013 236100                    LDQ     11,,PR1
        10 001470   000010 376000 8                  ANQ     PRMPT+8
        10 001471   001475 600000 10                 TZE     s:7576

      476     7573    5                    BLOCKFLG='1'B;

   7573 10 001472   400000 236003                    LDQ     -131072,DU
        10 001473   001273 756000 1                  STQ     BLOCKFLG

      477     7574    5                    END;

   7574 10 001474   001551 710000 10                 TRA     NEXT_COMMAND

      478     7575    5                 ELSE DO;

      479     7576    5                    CALL ERRMSG(%E$NOBLK);

   7576 10 001475   000001 236000 xsym               LDQ     B_VECTNIL+1
        10 001476   202032 756100                    STQ     @CPOS+1,,AUTO
        10 001477   000001 235000 xsym               LDA     B_VECTNIL+1
        10 001500   202030 757100                    STAQ    @C#+1,,AUTO
        10 001501   000050 236000 11                 LDQ     40
        10 001502   202027 756100                    STQ     @OUTSYM+2,,AUTO
        10 001503   003303 701000 10                 TSX1    ERRMSG
        10 001504   000000 011000                    NOP     0

      480     7577    5                    END;

   7577 10 001505   001551 710000 10                 TRA     NEXT_COMMAND

PL6.E3A0      #001=IDD$DEF File=IDD$DEF.:E05TSI                                  TUE 07/29/97 22:29 Page:85
      481     7578        /**/
      482     7579        /*E*    ERROR: IDD-E$NOBLK
      483     7580        MESSAGE: DEF does not have FMBLK privilege. Tape will not be written in block mode.
      484     7581                MESSAGE1: DEF must reside in the :SYS account to write block mode tapes.
      485     7582                DESCRIPTION:  DEF must be linked with the FMBLK privilege and
      486     7583                reside in :SYS to write block mode tapes.
      487     7584                                                                           */
      488     7585    4               CASE(%HELP_CMD);

      489     7586    4                 XUH_PARAM.HELP$=OUT$BLK.SUBLK$(0)->SYM$BLK.TEXTC$;

   7586 10 001506   000003 471500                    LDP1    3,,PR0
        10 001507   100003 236100                    LDQ     3,,PR1
        10 001510   001125 756000 1                  STQ     XUH_PARAM+9

      490     7587    4                 CALL XUR$HELP(XUH_PARAM);

   7587 10 001511   000051 630400 11                 EPPR0   41
        10 001512   000017 631400 xsym               EPPR1   B_VECTNIL+15
        10 001513   000000 701000 xent               TSX1    XUR$HELP
        10 001514   000000 011000                    NOP     0
        10 001515   001551 710000 10                 TRA     NEXT_COMMAND

      491     7588    4               CASE(%SNGLQ_CMD);

      492     7589    4                 CALL XUR$MOREMSG(XUH_PARAM) ALTRET(NO_MORE);

   7589 10 001516   000051 630400 11                 EPPR0   41
        10 001517   000017 631400 xsym               EPPR1   B_VECTNIL+15
        10 001520   000000 701000 xent               TSX1    XUR$MOREMSG
        10 001521   001523 702000 10                 TSX2    NO_MORE

      493     7590    5                 DO NEVER;

   7590 10 001522   001551 710000 10                 TRA     NEXT_COMMAND

      494     7591    5   NO_MORE:         CALL ERRMSG(%E$ID_NO_MORE);
PL6.E3A0      #001=IDD$DEF File=IDD$DEF.:E05TSI                                  TUE 07/29/97 22:29 Page:86

   7591 10 001523   000001 236000 xsym  NO_MORE      LDQ     B_VECTNIL+1
        10 001524   202032 756100                    STQ     @CPOS+1,,AUTO
        10 001525   000001 235000 xsym               LDA     B_VECTNIL+1
        10 001526   202030 757100                    STAQ    @C#+1,,AUTO
        10 001527   000053 236000 11                 LDQ     43
        10 001530   202027 756100                    STQ     @OUTSYM+2,,AUTO
        10 001531   003303 701000 10                 TSX1    ERRMSG
        10 001532   000000 011000                    NOP     0

      495     7592        /*E*    ERROR:   IDD-E$ID_NO_MORE
      496     7593                MESSAGE: No messages available
      497     7594               MESSAGE1: Th Th Th That's all folks!
      498     7595        */
      499     7596    5                    END;

   7596 10 001533   001551 710000 10                 TRA     NEXT_COMMAND

      500     7597    4               CASE(%DBLQ_CMD);

      501     7598    4                 CALL XUR$ALLMSG(XUH_PARAM) ALTRET(NO_MORE);

   7598 10 001534   000051 630400 11                 EPPR0   41
        10 001535   000017 631400 xsym               EPPR1   B_VECTNIL+15
        10 001536   000000 701000 xent               TSX1    XUR$ALLMSG
        10 001537   001523 702000 10                 TSX2    NO_MORE
        10 001540   001551 710000 10                 TRA     NEXT_COMMAND

      502     7599    4               CASE(%QUIT_CMD);

      503     7600    4                 CALL XUR$CLOSE_DCBS;

   7600 10 001541   000002 631400 xsym               EPPR1   B_VECTNIL+2
        10 001542   000000 701000 xent               TSX1    XUR$CLOSE_DCBS
        10 001543   000000 011000                    NOP     0

      504     7601    4                 CALL M$EXIT (FPT_EXIT);
PL6.E3A0      #001=IDD$DEF File=IDD$DEF.:E05TSI                                  TUE 07/29/97 22:29 Page:87

   7601 10 001544   000000 630400 9                  EPPR0   FPT_EXIT
        10 001545   000001 713400                    CLIMB   exit
        10 001546   400400 401760                    pmme    nvectors=2
        10 001547   001551 710000 10                 TRA     NEXT_COMMAND

      505     7602    4               CASE(%NOBOOT_CMD);

      506     7603    4                 BOOT_FLG='0'B;

   7603 10 001550   202016 450100                    STZ     BOOT_FLG,,AUTO

      507     7604    4               END;                        /* CASE OUT$BLK.CODE                  */

      508     7605    3   NEXT_COMMAND:
      509     7606    3              END;                         /* DO WHILE ~END_FLG                  */

   7606 10 001551   001266 236000 1     NEXT_COMMAND LDQ     END_FLG
        10 001552   400000 376003                    ANQ     -131072,DU
        10 001553   400000 676003                    ERQ     -131072,DU
        10 001554   000215 601000 10                 TNZ     s:7370

      510     7607    2           IF ID_SITEINFO.MINI_ID#=' ' THEN

   7607 10 001555   001770 236000 1                  LDQ     ID_SITEINFO
        10 001556   000054 376000 11                 ANQ     44
        10 001557   000011 116000 11                 CMPQ    9
        10 001560   001573 601000 10                 TNZ     s:7613

      511     7608    2              CALL CONCAT(TAPEID,

   7608 10 001561   040000 100400                    MLR     fill='040'O
        10 001562   000011 000005 8                  ADSC9   PRMPT+9                  cn=0,n=5
        10 001563   000000 000005 1                  ADSC9   TAPEID                   cn=0,n=5
        10 001564   002054 236000 1                  LDQ     ID_SITEINFO+52
        10 001565   000011 772000                    QRL     9
        10 001566   000001 552034 1                  STBQ    TAPEID+1,'34'O
PL6.E3A0      #001=IDD$DEF File=IDD$DEF.:E05TSI                                  TUE 07/29/97 22:29 Page:88
        10 001567   040000 100400                    MLR     fill='040'O
        10 001570   000007 000020 1                  ADSC9   TBUF                     cn=0,n=16
        10 001571   000002 000024 1                  ADSC9   TAPEID+2                 cn=0,n=20
        10 001572   001610 710000 10                 TRA     s:7618

      512     7609    2                'CP-6 ',
      513     7610    2                SUBSTR(ID_SITEINFO.VERSION#,0,3),
      514     7611    2                TBUFR);
      515     7612    2           ELSE
      516     7613    2              CALL CONCAT(TAPEID,

   7613 10 001573   040000 100400                    MLR     fill='040'O
        10 001574   000011 000005 8                  ADSC9   PRMPT+9                  cn=0,n=5
        10 001575   000000 000005 1                  ADSC9   TAPEID                   cn=0,n=5
        10 001576   002054 236000 1                  LDQ     ID_SITEINFO+52
        10 001577   000011 772000                    QRL     9
        10 001600   000001 552034 1                  STBQ    TAPEID+1,'34'O
        10 001601   001770 236000 1                  LDQ     ID_SITEINFO
        10 001602   000054 376000 11                 ANQ     44
        10 001603   000040 276007                    ORQ     32,DL
        10 001604   000002 756000 1                  STQ     TAPEID+2
        10 001605   040000 100400                    MLR     fill='040'O
        10 001606   000007 000020 1                  ADSC9   TBUF                     cn=0,n=16
        10 001607   000002 600021 1                  ADSC9   TAPEID+2                 cn=3,n=17

      517     7614    2                'CP-6 ',
      518     7615    2                SUBSTR(ID_SITEINFO.VERSION#,0,3),
      519     7616    2                ID_SITEINFO.MINI_ID#,
      520     7617    2                TBUFR);
      521     7618    3           IF SRCHHEAD$=ADDR(NIL) THEN DO;

   7618 10 001610   000572 236000 1                  LDQ     SRCHHEAD$
        10 001611   000001 116000 xsym               CMPQ    B_VECTNIL+1
        10 001612   001641 601000 10                 TNZ     s:7629

      522     7619    3              IF CMDSEGSZ<SIZEW(SRCHSPEC) THEN

PL6.E3A0      #001=IDD$DEF File=IDD$DEF.:E05TSI                                  TUE 07/29/97 22:29 Page:89
   7619 10 001613   001270 235000 1                  LDA     CMDSEGSZ
        10 001614   000005 115007                    CMPA    5,DL
        10 001615   001620 605000 10                 TPL     s:7621

      523     7620    3                 CALL GET_CMD_SPACE;

   7620 10 001616   002007 701000 10                 TSX1    GET_CMD_SPACE
        10 001617   000000 011000                    NOP     0

      524     7621    3              CMDSEG$->SRCHSPEC.FL$=ADDR(NIL);

   7621 10 001620   000001 236000 xsym               LDQ     B_VECTNIL+1
        10 001621   200004 470500                    LDP0    CMDSEG$,,AUTO
        10 001622   000000 756100                    STQ     0,,PR0

      525     7622    3              CMDSEG$->SRCHSPEC.ACCN=B$JIT.FACCN;

   7622 10 001623   000000 471400 xsym               LDP1    B$JIT$
        10 001624   100006 237100                    LDAQ    6,,PR1
        10 001625   000001 755100                    STA     1,,PR0
        10 001626   000002 756100                    STQ     2,,PR0

      526     7623    3              CMDSEG$->SRCHSPEC.SN=' ';

   7623 10 001627   040100 100400                    MLR     fill='040'O
        10 001630   000035 000001 xsym               ADSC9   B_VECTNIL+29             cn=0,n=1
        10 001631   000003 000006                    ADSC9   3,,PR0                   cn=0,n=6

      527     7624    3              CMDSEG$->SRCHSPEC.ASN=%FILE#;

   7624 10 001632   000001 220003                    LDX0    1,DU
        10 001633   000004 440100                    SXL0    4,,PR0

      528     7625    3              SRCHHEAD$=CMDSEG$;

   7625 10 001634   200004 236100                    LDQ     CMDSEG$,,AUTO
        10 001635   000572 756000 1                  STQ     SRCHHEAD$
PL6.E3A0      #001=IDD$DEF File=IDD$DEF.:E05TSI                                  TUE 07/29/97 22:29 Page:90

      529     7626    3              SRCHTAIL$=CMDSEG$;

   7626 10 001636   000573 756000 1                  STQ     SRCHTAIL$

      530     7627    3              CMDSEG$=PINCRW(CMDSEG$,SIZEW(SRCHSPEC));

   7627 10 001637   000005 036003                    ADLQ    5,DU
        10 001640   200004 756100                    STQ     CMDSEG$,,AUTO

      531     7628    3              END;

      532     7629    2           IF ABORT_FLG THEN CALL EXIT_DEF;

   7629 10 001641   001271 234000 1                  SZN     ABORT_FLG
        10 001642   001645 605000 10                 TPL     s:7630

   7629 10 001643   001713 701000 10                 TSX1    EXIT_DEF
        10 001644   000000 011000                    NOP     0

      533     7630    2           RETURN;

   7630 10 001645   202020 221300                    LDX1  ! INCL$+1,,AUTO
        10 001646   000001 702211                    TSX2  ! 1,X1

      534     7631    2   PARSE_ERR:
      535     7632    2           I=P_PCB.HI_CHAR;

   7632 10 001647   001002 235000 1     PARSE_ERR    LDA     P_PCB+10
        10 001650   202007 755100                    STA     I,,AUTO

      536     7633    3           IF PARSERR.MON THEN DO;

   7633 10 001651   202013 236100                    LDQ     OUT$,,AUTO
        10 001652   400000 316007                    CANQ    -131072,DL
        10 001653   001665 600000 10                 TZE     s:7638

PL6.E3A0      #001=IDD$DEF File=IDD$DEF.:E05TSI                                  TUE 07/29/97 22:29 Page:91
      537     7634    3              IF PARSERR.CODE~=%E$EOF THEN ABORT_FLG='1'B;

   7634 10 001654   202013 236100                    LDQ     OUT$,,AUTO
        10 001655   377770 376007                    ANQ     131064,DL
        10 001656   000060 116007                    CMPQ    48,DL
        10 001657   001662 600000 10                 TZE     s:7635

   7634 10 001660   400000 236003                    LDQ     -131072,DU
        10 001661   001271 756000 1                  STQ     ABORT_FLG

      538     7635    3              END_FLG='1'B;

   7635 10 001662   400000 236003                    LDQ     -131072,DU
        10 001663   001266 756000 1                  STQ     END_FLG

      539     7636    3              I=0;

   7636 10 001664   202007 450100                    STZ     I,,AUTO

      540     7637    3              END;

      541     7638    3           IF I>0 THEN DO;

   7638 10 001665   202007 236100                    LDQ     I,,AUTO
        10 001666   001702 604400 10                 TMOZ    s:7642

      542     7639    3              CALL ERRMSG(PARSERR,DCBNUM(NIL),I);

   7639 10 001667   000001 236000 xsym               LDQ     B_VECTNIL+1
        10 001670   202032 756100                    STQ     @CPOS+1,,AUTO
        10 001671   202007 630500                    EPPR0   I,,AUTO
        10 001672   202031 450500                    STP0    @EDCB+1,,AUTO
        10 001673   000023 236000 11                 LDQ     19
        10 001674   202030 756100                    STQ     @C#+1,,AUTO
        10 001675   202013 631500                    EPPR1   OUT$,,AUTO
        10 001676   202027 451500                    STP1    @OUTSYM+2,,AUTO
        10 001677   003303 701000 10                 TSX1    ERRMSG
PL6.E3A0      #001=IDD$DEF File=IDD$DEF.:E05TSI                                  TUE 07/29/97 22:29 Page:92
        10 001700   000000 011000                    NOP     0

      543     7640    3              END;

   7640 10 001701   001712 710000 10                 TRA     s:7644

      544     7641    3           ELSE DO;

      545     7642    3              CALL ERRMSG(PARSERR,DCBNUM(NIL));

   7642 10 001702   000001 236000 xsym               LDQ     B_VECTNIL+1
        10 001703   202032 756100                    STQ     @CPOS+1,,AUTO
        10 001704   000023 235000 11                 LDA     19
        10 001705   202030 757100                    STAQ    @C#+1,,AUTO
        10 001706   202013 630500                    EPPR0   OUT$,,AUTO
        10 001707   202027 450500                    STP0    @OUTSYM+2,,AUTO
        10 001710   003303 701000 10                 TSX1    ERRMSG
        10 001711   000000 011000                    NOP     0

      546     7643    3              END;

      547     7644    2           GOTO NEXT_COMMAND;

   7644 10 001712   001551 710000 10                 TRA     NEXT_COMMAND

      548     7645    2   END READ_DEF_COMMANDS;
      549     7646        %EJECT;
PL6.E3A0      #001=IDD$DEF File=IDD$DEF.:E05TSI                                  TUE 07/29/97 22:29 Page:93
      550     7647    1   EXIT_DEF: PROC;

   7647 10 001713   202026 741300       EXIT_DEF     STX1  ! @OUTSYM+1,,AUTO

      551     7648    2   DCL EXITFMT CHAR(0) STATIC INIT(
      552     7649    2           'DEF processing completed at%A');
      553     7650    2   DCL VERIFMT CHAR(0) STATIC INIT(
      554     7651    2           'DEF verification completed at%A');
      555     7652    2   DCL XXXFMT CHAR(0) STATIC INIT(
      556     7653    2           'DEF abort at%A');
      557     7654        /**/
      558     7655    2           CALL M$TIME(FPT_TIME);

   7655 10 001714   000754 630400 1                  EPPR0   FPT_TIME
        10 001715   020004 713400                    CLIMB   8196
        10 001716   402000 401760                    pmme    nvectors=5

      559     7656    3           IF ABORT_FLG THEN DO;

   7656 10 001717   001271 234000 1                  SZN     ABORT_FLG
        10 001720   001730 605000 10                 TPL     s:7661

      560     7657    3              CALL X$WRITE(F_FDS,VECTOR(XXXFMT),VECTOR(TBUF));

   7657 10 001721   000062 630400 11                 EPPR0   50
        10 001722   000021 631400 xsym               EPPR1   B_VECTNIL+17
        10 001723   000000 701000 xent               TSX1    X$WRITE
        10 001724   000000 011000                    NOP     0

      561     7658    3              CALL M$XXX;

   7658 10 001725   000003 713400                    CLIMB   3
        10 001726   000000 401760                    pmme    nvectors=0

      562     7659    3              END;

   7659 10 001727   002005 710000 10                 TRA     s:7677
PL6.E3A0      #001=IDD$DEF File=IDD$DEF.:E05TSI                                  TUE 07/29/97 22:29 Page:94

      563     7660    3           ELSE DO;

      564     7661    3              IF ID_VERIFLG THEN

   7661 10 001730   002116 234000 1                  SZN     ID_VERIFLG
        10 001731   001737 605000 10                 TPL     s:7664

      565     7662    3                 CALL X$WRITE(F_FDS,VECTOR(VERIFMT),VECTOR(TBUF));

   7662 10 001732   000070 630400 11                 EPPR0   56
        10 001733   000021 631400 xsym               EPPR1   B_VECTNIL+17
        10 001734   000000 701000 xent               TSX1    X$WRITE
        10 001735   000000 011000                    NOP     0
        10 001736   001743 710000 10                 TRA     s:7665

      566     7663    3              ELSE
      567     7664    3                 CALL X$WRITE(F_FDS,VECTOR(EXITFMT),VECTOR(TBUF));

   7664 10 001737   000076 630400 11                 EPPR0   62
        10 001740   000021 631400 xsym               EPPR1   B_VECTNIL+17
        10 001741   000000 701000 xent               TSX1    X$WRITE
        10 001742   000000 011000                    NOP     0

      568     7665    3              CALL XUR$CLOSE_DCBS;

   7665 10 001743   000002 631400 xsym               EPPR1   B_VECTNIL+2
        10 001744   000000 701000 xent               TSX1    XUR$CLOSE_DCBS
        10 001745   000000 011000                    NOP     0

      569     7666    4              IF DCBADDR(DCBNUM(M$PO))->F$DCB.FCI THEN DO;

   7666 10 001746   000000 236007 xsym               LDQ     M$PO,DL
        10 001747   000010 470400 11                 LDP0    8
        10 001750   000000 471500                    LDP1    0,,PR0
        10 001751   100000 473506                    LDP3    0,QL,PR1
        10 001752   300031 236100                    LDQ     25,,PR3
PL6.E3A0      #001=IDD$DEF File=IDD$DEF.:E05TSI                                  TUE 07/29/97 22:29 Page:95
        10 001753   040000 316007                    CANQ    16384,DL
        10 001754   001766 600000 10                 TZE     s:7671

      570     7667    4                 FPT_REM.V.PSN#=M$PO$->F$DCB.PSN;

   7667 10 001755   202005 473500                    LDP3    M$PO$,,AUTO
        10 001756   040000 100500                    MLR     fill='040'O
        10 001757   300024 000006                    ADSC9   20,,PR3                  cn=0,n=6
        10 001760   000752 400006 1                  ADSC9   FPT_REM+2                cn=2,n=6

      571     7668    4                 CALL M$REM(FPT_REM) ALTRET(REM_ERR);

   7668 10 001761   000750 630400 1                  EPPR0   FPT_REM
        10 001762   460006 713400                    CLIMB   alt,+24582
        10 001763   400000 401760                    pmme    nvectors=1
        10 001764   001765 702000 10                 TSX2    REM_ERR

   7667 10 001765                       REM_ERR      null
      572     7669    4   REM_ERR:      ;
      573     7670    4                 END;

   7670 10 001765   002002 710000 10                 TRA     s:7675

      574     7671    4              ELSE IF DCBADDR(DCBNUM(M$AS))->F$DCB.FCI THEN DO;

   7671 10 001766   000000 236007 xsym               LDQ     M$AS,DL
        10 001767   100000 473506                    LDP3    0,QL,PR1
        10 001770   300031 236100                    LDQ     25,,PR3
        10 001771   040000 316007                    CANQ    16384,DL
        10 001772   002002 600000 10                 TZE     s:7675

      575     7672    4                    FPT_REM.V.PSN#=M$AS$->F$DCB.PSN;

   7672 10 001773   202006 473500                    LDP3    M$AS$,,AUTO
        10 001774   040000 100500                    MLR     fill='040'O
        10 001775   300024 000006                    ADSC9   20,,PR3                  cn=0,n=6
        10 001776   000752 400006 1                  ADSC9   FPT_REM+2                cn=2,n=6
PL6.E3A0      #001=IDD$DEF File=IDD$DEF.:E05TSI                                  TUE 07/29/97 22:29 Page:96

      576     7673    4                    CALL M$REM(FPT_REM);

   7673 10 001777   000750 630400 1                  EPPR0   FPT_REM
        10 002000   060006 713400                    CLIMB   24582
        10 002001   400000 401760                    pmme    nvectors=1

      577     7674    4                    END;

      578     7675    3              CALL M$EXIT (FPT_EXIT);

   7675 10 002002   000000 630400 9                  EPPR0   FPT_EXIT
        10 002003   000001 713400                    CLIMB   exit
        10 002004   400400 401760                    pmme    nvectors=2

      579     7676    3              END;

      580     7677    2   END EXIT_DEF;

   7677 10 002005   202026 221300                    LDX1  ! @OUTSYM+1,,AUTO
        10 002006   000001 702211                    TSX2  ! 1,X1

      581     7678        %EJECT;
PL6.E3A0      #001=IDD$DEF File=IDD$DEF.:E05TSI                                  TUE 07/29/97 22:29 Page:97
      582     7679    1   GET_CMD_SPACE: PROC;

   7679 10 002007   202024 741300       GET_CMD_SPA* STX1  ! TYPE1+1,,AUTO

      583     7680    2           CALL IDD$GETSEG(CMDSEG,CMDSEG.BOUND/4+1025) ALTRET(NO_MEM);

   7680 10 002010   000600 236000 1                  LDQ     X1
        10 002011   000020 772000                    QRL     16
        10 002012   000002 772000                    QRL     2
        10 002013   002001 036007                    ADLQ    1025,DL
        10 002014   202036 756100                    STQ     D#+2,,AUTO
        10 002015   202036 630500                    EPPR0   D#+2,,AUTO
        10 002016   202041 450500                    STP0    D#+5,,AUTO
        10 002017   000013 236000 11                 LDQ     11
        10 002020   202040 756100                    STQ     D#+4,,AUTO
        10 002021   202040 630500                    EPPR0   D#+4,,AUTO
        10 002022   000020 631400 xsym               EPPR1   B_VECTNIL+16
        10 002023   000000 701000 xent               TSX1    IDD$GETSEG
        10 002024   002031 702000 10                 TSX2    NO_MEM

      584     7681    2           CMDSEGSZ=CMDSEGSZ+1024;

   7681 10 002025   002000 236007                    LDQ     1024,DL
        10 002026   001270 056000 1                  ASQ     CMDSEGSZ

      585     7682    2           RETURN;

   7682 10 002027   202024 221300                    LDX1  ! TYPE1+1,,AUTO
        10 002030   000001 702211                    TSX2  ! 1,X1

      586     7683    2   NO_MEM:
      587     7684    2           ERRCODE=B$TCB$->B$TCB.ALT$->B$ALT.ERR;

   7684 10 002031   000000 470400 xsym  NO_MEM       LDP0    B$TCB$
        10 002032   000000 471500                    LDP1    0,,PR0
        10 002033   100102 236100                    LDQ     66,,PR1
        10 002034   202012 756100                    STQ     ERRCODE,,AUTO
PL6.E3A0      #001=IDD$DEF File=IDD$DEF.:E05TSI                                  TUE 07/29/97 22:29 Page:98

      588     7685    2           CALL ERRMSG(ERRCODE,DCBNUM(NIL));

   7685 10 002035   000001 236000 xsym               LDQ     B_VECTNIL+1
        10 002036   202032 756100                    STQ     @CPOS+1,,AUTO
        10 002037   000023 235000 11                 LDA     19
        10 002040   202030 757100                    STAQ    @C#+1,,AUTO
        10 002041   202012 631500                    EPPR1   ERRCODE,,AUTO
        10 002042   202027 451500                    STP1    @OUTSYM+2,,AUTO
        10 002043   003303 701000 10                 TSX1    ERRMSG
        10 002044   000000 011000                    NOP     0

      589     7686    2           ABORT_FLG='1'B;

   7686 10 002045   400000 236003                    LDQ     -131072,DU
        10 002046   001271 756000 1                  STQ     ABORT_FLG

      590     7687    2           CALL EXIT_DEF;

   7687 10 002047   001713 701000 10                 TSX1    EXIT_DEF
        10 002050   000000 011000                    NOP     0

      591     7688    2   END GET_CMD_SPACE;

   7688 10 002051   202024 221300                    LDX1  ! TYPE1+1,,AUTO
        10 002052   000001 702211                    TSX2  ! 1,X1

      592     7689        %EJECT;
PL6.E3A0      #001=IDD$DEF File=IDD$DEF.:E05TSI                                  TUE 07/29/97 22:29 Page:99
      593     7690    1   PARSE_FID: PROC(OUTSYM) ALTRET;

   7690 10 002053   202024 741300       PARSE_FID    STX1  ! TYPE1+1,,AUTO

      594     7691        /**/
      595     7692        %PARSE$SYM (NAME=OUTSYM,STCLASS="");
      596     7730        /**/
      597     7731        %FPT_FID (NAME=FID_BLK.FNAME,
      598     7732                  ACCT=FID_BLK.ACCN,
      599     7733                  PASS=FID_BLK.PASW,
      600     7734                  ASN=FID_BLK.ASNX,
      601     7735                  RES=FID_BLK.RESX,
      602     7736                  SN=FID_BLK.SNX,
      603     7737                  WSN=FID_BLK.WSNX,
      604     7738                  RESULTS=FID_BLK.RESULT);
      605     7761    3           IF OUTSYM.CODE=101 THEN DO;

   7761 10 002054   202025 470500                    LDP0    @OUTSYM,,AUTO
        10 002055   000000 720100                    LXL0    0,,PR0
        10 002056   000145 100003                    CMPX0   101,DU
        10 002057   002063 601000 10                 TNZ     s:7765

      606     7762    3              FID_BLK.FLAGS.SKIP='1'B;

   7762 10 002060   040000 236003                    LDQ     16384,DU
        10 002061   000514 256000 1                  ORSQ    FID_BLK+24

      607     7763    3              RETURN;

   7763 10 002062   000001 702211                    TSX2  ! 1,X1

      608     7764    3              END;
      609     7765    2           FPT_FID.TEXTFID_=VECTOR(OUTSYM.TEXT);

   7765 10 002063   000004 236100                    LDQ     4,,PR0
        10 002064   000033 772000                    QRL     27
        10 002065   000064 737000                    LLS     52
PL6.E3A0      #001=IDD$DEF File=IDD$DEF.:E05TSI                                  TUE 07/29/97 22:29 Page:100
        10 002066   000140 135007                    SBLA    96,DL
        10 002067   202025 236100                    LDQ     @OUTSYM,,AUTO
        10 002070   000055 036000 11                 ADLQ    45
        10 002071   002152 757000 1                  STAQ    FPT_FID+2

      610     7766    2           CALL M$FID(FPT_FID) ALTRET(BAD_FID);

   7766 10 002072   002150 630400 1                  EPPR0   FPT_FID
        10 002073   420001 713400                    CLIMB   alt,+8193
        10 002074   404400 401760                    pmme    nvectors=10
        10 002075   002130 702000 10                 TSX2    BAD_FID

      611     7767    2           IF FID_BLK.RESULT.ACCN THEN

   7767 10 002076   000511 236000 1                  LDQ     FID_BLK+21
        10 002077   200000 316003                    CANQ    65536,DU
        10 002100   002107 600000 10                 TZE     s:7769

      612     7768    2              IF FID_BLK.ACCN=' ' THEN FID_BLK.ACCN=B$JIT$->B$JIT.FACCN;

   7768 10 002101   000474 237000 1                  LDAQ    FID_BLK+8
        10 002102   000102 117000 11                 CMPAQ   66
        10 002103   002107 601000 10                 TNZ     s:7769

   7768 10 002104   000000 470400 xsym               LDP0    B$JIT$
        10 002105   000006 237100                    LDAQ    6,,PR0
        10 002106   000474 757000 1                  STAQ    FID_BLK+8

      613     7769    2           IF FID_BLK.RESULT.FNAME AND FID_BLK.FNAME.CNT=0 THEN

   7769 10 002107   000511 234000 1                  SZN     FID_BLK+21
        10 002110   002116 605000 10                 TPL     s:7771
        10 002111   000464 236000 1                  LDQ     FID_BLK
        10 002112   777000 316003                    CANQ    -512,DU
        10 002113   002116 601000 10                 TNZ     s:7771

      614     7770    2              FID_BLK.RESULT.FNAME='0'B;
PL6.E3A0      #001=IDD$DEF File=IDD$DEF.:E05TSI                                  TUE 07/29/97 22:29 Page:101

   7770 10 002114   000031 236000 xsym               LDQ     B_VECTNIL+25
        10 002115   000511 356000 1                  ANSQ    FID_BLK+21

      615     7771    2           IF NOT FID_BLK.RESULT.SNX THEN

   7771 10 002116   000511 236000 1                  LDQ     FID_BLK+21
        10 002117   040000 316003                    CANQ    16384,DU
        10 002120   002124 601000 10                 TNZ     s:7773

      616     7772    2              FID_BLK.SNX.TXT(0)=' ';

   7772 10 002121   040000 100400                    MLR     fill='040'O
        10 002122   000035 000001 xsym               ADSC9   B_VECTNIL+29             cn=0,n=1
        10 002123   000502 000006 1                  ADSC9   FID_BLK+14               cn=0,n=6

      617     7773    2           FID_BLK.FLAGS.CMD='1'B;

   7773 10 002124   100000 236003                    LDQ     32768,DU
        10 002125   000514 256000 1                  ORSQ    FID_BLK+24

      618     7774    2           RETURN;

   7774 10 002126   202024 221300                    LDX1  ! TYPE1+1,,AUTO
        10 002127   000001 702211                    TSX2  ! 1,X1

      619     7775    2   BAD_FID:
      620     7776    2           J=OUTSYM.CPOS;

   7776 10 002130   202025 470500       BAD_FID      LDP0    @OUTSYM,,AUTO
        10 002131   000002 235100                    LDA     2,,PR0
        10 002132   202010 755100                    STA     J,,AUTO

      621     7777    2           CALL ERRMSG(B$TCB$->B$TCB.ALT$->B$ALT.ERR,DCBNUM(NIL),J);

   7777 10 002133   000000 471400 xsym               LDP1    B$TCB$
        10 002134   100000 473500                    LDP3    0,,PR1
PL6.E3A0      #001=IDD$DEF File=IDD$DEF.:E05TSI                                  TUE 07/29/97 22:29 Page:102
        10 002135   000001 236000 xsym               LDQ     B_VECTNIL+1
        10 002136   202032 756100                    STQ     @CPOS+1,,AUTO
        10 002137   202010 634500                    EPPR4   J,,AUTO
        10 002140   202031 454500                    STP4    @EDCB+1,,AUTO
        10 002141   000023 236000 11                 LDQ     19
        10 002142   202030 756100                    STQ     @C#+1,,AUTO
        10 002143   300102 635500                    EPPR5   66,,PR3
        10 002144   202027 455500                    STP5    @OUTSYM+2,,AUTO
        10 002145   003303 701000 10                 TSX1    ERRMSG
        10 002146   000000 011000                    NOP     0

      622     7778    2           ALTRETURN;

   7778 10 002147   202024 221300                    LDX1  ! TYPE1+1,,AUTO
        10 002150   000000 702211                    TSX2  ! 0,X1

      623     7779    2   END PARSE_FID;
      624     7780        %EJECT;
PL6.E3A0      #001=IDD$DEF File=IDD$DEF.:E05TSI                                  TUE 07/29/97 22:29 Page:103
      625     7781    1   BUILD_INCLSPEC: PROC(OUTBLK) ALTRET;

   7781 10 002151   202022 741300       BUILD_INCLS* STX1  ! SRCH$+1,,AUTO

      626     7782        /**/
      627     7783        %PARSE$OUT (NAME=OUTBLK,STCLASS="");
      628     7828    2           CALL PARSE_FID(OUTBLK) ALTRET(BAD_FID);

   7828 10 002152   202023 236100                    LDQ     @OUTBLK,,AUTO
        10 002153   202025 756100                    STQ     @OUTSYM,,AUTO
        10 002154   002053 701000 10                 TSX1    PARSE_FID
        10 002155   002251 702000 10                 TSX2    BAD_FID

      629     7829    3           IF NOT FID_BLK.RESULT.FNAME OR FID_BLK.FNAME.CNT=0 THEN DO;

   7829 10 002156   000511 234000 1                  SZN     FID_BLK+21
        10 002157   002163 605000 10                 TPL     s:7830
        10 002160   000464 236000 1                  LDQ     FID_BLK
        10 002161   777000 316003                    CANQ    -512,DU
        10 002162   002202 601000 10                 TNZ     s:7834

      630     7830    3              J=OUTBLK.CPOS;

   7830 10 002163   202023 470500                    LDP0    @OUTBLK,,AUTO
        10 002164   000002 235100                    LDA     2,,PR0
        10 002165   202010 755100                    STA     J,,AUTO

      631     7831    3              CALL ERRMSG(%E$NOFNAME,DCBNUM(NIL),J);

   7831 10 002166   000001 236000 xsym               LDQ     B_VECTNIL+1
        10 002167   202032 756100                    STQ     @CPOS+1,,AUTO
        10 002170   202010 631500                    EPPR1   J,,AUTO
        10 002171   202031 451500                    STP1    @EDCB+1,,AUTO
        10 002172   000023 236000 11                 LDQ     19
        10 002173   202030 756100                    STQ     @C#+1,,AUTO
        10 002174   000105 236000 11                 LDQ     69
        10 002175   202027 756100                    STQ     @OUTSYM+2,,AUTO
PL6.E3A0      #001=IDD$DEF File=IDD$DEF.:E05TSI                                  TUE 07/29/97 22:29 Page:104
        10 002176   003303 701000 10                 TSX1    ERRMSG
        10 002177   000000 011000                    NOP     0

      632     7832    3              ALTRETURN;

   7832 10 002200   202022 221300                    LDX1  ! SRCH$+1,,AUTO
        10 002201   000000 702211                    TSX2  ! 0,X1

      633     7833    3              END;
      634     7834    2           IF CMDSEGSZ<SIZEW(INCLSPEC) THEN

   7834 10 002202   001270 235000 1                  LDA     CMDSEGSZ
        10 002203   000042 115007                    CMPA    34,DL
        10 002204   002207 605000 10                 TPL     s:7836

      635     7835    2              CALL GET_CMD_SPACE;

   7835 10 002205   002007 701000 10                 TSX1    GET_CMD_SPACE
        10 002206   000000 011000                    NOP     0

      636     7836    2           CMDSEG$->INCLSPEC='0'B;

   7836 10 002207   200004 470500                    LDP0    CMDSEG$,,AUTO
        10 002210   000100 100400                    MLR     fill='000'O
        10 002211   000002 000001 xsym               ADSC9   B_VECTNIL+2              cn=0,n=1
        10 002212   000000 000210                    ADSC9   0,,PR0                   cn=0,n=136

      637     7837    2           CMDSEG$->INCLSPEC.FL$=ADDR(NIL);

   7837 10 002213   000001 236000 xsym               LDQ     B_VECTNIL+1
        10 002214   000000 756100                    STQ     0,,PR0

      638     7838    2           CMDSEG$->INCLSPEC.FNAME=FID_BLK.FNAME;

   7838 10 002215   000100 100400                    MLR     fill='000'O
        10 002216   000464 000040 1                  ADSC9   FID_BLK                  cn=0,n=32
        10 002217   000001 000040                    ADSC9   1,,PR0                   cn=0,n=32
PL6.E3A0      #001=IDD$DEF File=IDD$DEF.:E05TSI                                  TUE 07/29/97 22:29 Page:105

      639     7839    2           CMDSEG$->INCLSPEC.ACCN=FID_BLK.ACCN;

   7839 10 002220   000474 237000 1                  LDAQ    FID_BLK+8
        10 002221   000011 755100                    STA     9,,PR0
        10 002222   000012 756100                    STQ     10,,PR0

      640     7840    2           CMDSEG$->INCLSPEC.PASW=FID_BLK.PASW;

   7840 10 002223   000476 237000 1                  LDAQ    FID_BLK+10
        10 002224   000013 755100                    STA     11,,PR0
        10 002225   000014 756100                    STQ     12,,PR0

      641     7841    2           CMDSEG$->INCLSPEC.RESX=FID_BLK.RESX;

   7841 10 002226   000500 236000 1                  LDQ     FID_BLK+12
        10 002227   000015 756100                    STQ     13,,PR0

      642     7842    2           CMDSEG$->INCLSPEC.SNX=FID_BLK.SNX;

   7842 10 002230   000100 100400                    MLR     fill='000'O
        10 002231   000501 000026 1                  ADSC9   FID_BLK+13               cn=0,n=22
        10 002232   000016 000026                    ADSC9   14,,PR0                  cn=0,n=22

      643     7843    2           CMDSEG$->INCLSPEC.WSNX=FID_BLK.WSNX;

   7843 10 002233   040100 100400                    MLR     fill='040'O
        10 002234   000507 000010 1                  ADSC9   FID_BLK+19               cn=0,n=8
        10 002235   000024 000010                    ADSC9   20,,PR0                  cn=0,n=8

      644     7844    2           CMDSEG$->INCLSPEC.RESULT=FID_BLK.RESULT;

   7844 10 002236   000100 100400                    MLR     fill='000'O
        10 002237   000511 000010 1                  ADSC9   FID_BLK+21               cn=0,n=8
        10 002240   000026 000010                    ADSC9   22,,PR0                  cn=0,n=8

      645     7845    2           CMDSEG$->INCLSPEC.RESULT.FOUND='0'B;
PL6.E3A0      #001=IDD$DEF File=IDD$DEF.:E05TSI                                  TUE 07/29/97 22:29 Page:106

   7845 10 002241   000106 236000 11                 LDQ     70
        10 002242   000027 356100                    ANSQ    23,,PR0

      646     7846    2           CMDSEG$->INCLSPEC.ASNX=FID_BLK.ASNX;

   7846 10 002243   000513 236000 1                  LDQ     FID_BLK+23
        10 002244   000033 772000                    QRL     27
        10 002245   000033 736000                    QLS     27
        10 002246   000030 756100                    STQ     24,,PR0

      647     7847    2           RETURN;

   7847 10 002247   202022 221300                    LDX1  ! SRCH$+1,,AUTO
        10 002250   000001 702211                    TSX2  ! 1,X1

      648     7848    2   BAD_FID:
      649     7849    2           ALTRETURN;

   7849 10 002251   202022 221300       BAD_FID      LDX1  ! SRCH$+1,,AUTO
        10 002252   000000 702211                    TSX2  ! 0,X1

      650     7850    2   END BUILD_INCLSPEC;
      651     7851        %EJECT;
PL6.E3A0      #001=IDD$DEF File=IDD$DEF.:E05TSI                                  TUE 07/29/97 22:29 Page:107
      652     7852    1   INSTALL_FILE: PROC;

   7852 10 002253   202020 741300       INSTALL_FILE STX1  ! INCL$+1,,AUTO

      653     7853    2           CALL IDO$OPENFILE(XINSTALL,DCBNUM(M$INPUT),ERRCODE,VECTOR(FPARAM)) ALTRET(
              7853                    NO_INSTALL);

   7853 10 002254   000000 236007 xsym               LDQ     M$INPUT,DL
        10 002255   000107 235000 11                 LDA     71
        10 002256   202036 452500                    STP2    D#+2,,AUTO
        10 002257   202037 756100                    STQ     D#+3,,AUTO
        10 002260   202036 236100                    LDQ     D#+2,,AUTO
        10 002261   000005 036003                    ADLQ    5,DU
        10 002262   202042 757100                    STAQ    D#+6,,AUTO
        10 002263   202037 235100                    LDA     D#+3,,AUTO
        10 002264   202040 755100                    STA     D#+4,,AUTO
        10 002265   202042 237100                    LDAQ    D#+6,,AUTO
        10 002266   202044 757100                    STAQ    D#+8,,AUTO
        10 002267   202044 630500                    EPPR0   D#+8,,AUTO
        10 002270   202051 450500                    STP0    D#+13,,AUTO
        10 002271   202012 631500                    EPPR1   ERRCODE,,AUTO
        10 002272   202050 451500                    STP1    D#+12,,AUTO
        10 002273   202040 633500                    EPPR3   D#+4,,AUTO
        10 002274   202047 453500                    STP3    D#+11,,AUTO
        10 002275   000036 236000 11                 LDQ     30
        10 002276   202046 756100                    STQ     D#+10,,AUTO
        10 002277   202046 630500                    EPPR0   D#+10,,AUTO
        10 002300   000022 631400 xsym               EPPR1   B_VECTNIL+18
        10 002301   000000 701000 xent               TSX1    IDO$OPENFILE
        10 002302   002332 702000 10                 TSX2    NO_INSTALL

      654     7854    2           CALL IDC$COPY(DCBNUM(M$INPUT),VECTOR(FPARAM),XINSTALL);

   7854 10 002303   000000 236007 xsym               LDQ     M$INPUT,DL
        10 002304   000107 235000 11                 LDA     71
        10 002305   202036 452500                    STP2    D#+2,,AUTO
        10 002306   202037 756100                    STQ     D#+3,,AUTO
PL6.E3A0      #001=IDD$DEF File=IDD$DEF.:E05TSI                                  TUE 07/29/97 22:29 Page:108
        10 002307   202036 236100                    LDQ     D#+2,,AUTO
        10 002310   000005 036003                    ADLQ    5,DU
        10 002311   202042 757100                    STAQ    D#+6,,AUTO
        10 002312   202037 235100                    LDA     D#+3,,AUTO
        10 002313   202040 755100                    STA     D#+4,,AUTO
        10 002314   202042 237100                    LDAQ    D#+6,,AUTO
        10 002315   202044 757100                    STAQ    D#+8,,AUTO
        10 002316   000036 236000 11                 LDQ     30
        10 002317   202050 756100                    STQ     D#+12,,AUTO
        10 002320   202044 630500                    EPPR0   D#+8,,AUTO
        10 002321   202047 450500                    STP0    D#+11,,AUTO
        10 002322   202040 631500                    EPPR1   D#+4,,AUTO
        10 002323   202046 451500                    STP1    D#+10,,AUTO
        10 002324   202046 630500                    EPPR0   D#+10,,AUTO
        10 002325   000021 631400 xsym               EPPR1   B_VECTNIL+17
        10 002326   000000 701000 xent               TSX1    IDC$COPY
        10 002327   000000 011000                    NOP     0

      655     7855    2           RETURN;

   7855 10 002330   202020 221300                    LDX1  ! INCL$+1,,AUTO
        10 002331   000001 702211                    TSX2  ! 1,X1

      656     7856        /**/
      657     7857    2   NO_INSTALL:
      658     7858    2           CALL ERRMSG;

   7858 10 002332   000001 236000 xsym  NO_INSTALL   LDQ     B_VECTNIL+1
        10 002333   202032 756100                    STQ     @CPOS+1,,AUTO
        10 002334   000001 235000 xsym               LDA     B_VECTNIL+1
        10 002335   202030 757100                    STAQ    @C#+1,,AUTO
        10 002336   000001 236000 xsym               LDQ     B_VECTNIL+1
        10 002337   202027 756100                    STQ     @OUTSYM+2,,AUTO
        10 002340   003303 701000 10                 TSX1    ERRMSG
        10 002341   000000 011000                    NOP     0

      659     7859    2           CALL ERRMSG(%E$ID_NO_INSTALL,,,4);
PL6.E3A0      #001=IDD$DEF File=IDD$DEF.:E05TSI                                  TUE 07/29/97 22:29 Page:109

   7859 10 002342   000111 236000 11                 LDQ     73
        10 002343   202032 756100                    STQ     @CPOS+1,,AUTO
        10 002344   000001 236000 xsym               LDQ     B_VECTNIL+1
        10 002345   000001 235000 xsym               LDA     B_VECTNIL+1
        10 002346   202030 757100                    STAQ    @C#+1,,AUTO
        10 002347   000112 236000 11                 LDQ     74
        10 002350   202027 756100                    STQ     @OUTSYM+2,,AUTO
        10 002351   003303 701000 10                 TSX1    ERRMSG
        10 002352   000000 011000                    NOP     0

      660     7860        /*E*    ERROR:   IDD-E$ID_NO_INSTALL
      661     7861                MESSAGE: No $XINSTALL file was written on this PO tape.
      662     7862                                                                           */
      663     7863    2           CALL M$OPEN(FPT_OPEN) ALTRET(DUMMY_ERR);

   7863 10 002353   000604 630400 1                  EPPR0   FPT_OPEN
        10 002354   450000 713400                    CLIMB   alt,open
        10 002355   410400 401760                    pmme    nvectors=18
        10 002356   002365 702000 10                 TSX2    DUMMY_ERR

      664     7864    2           CALL M$CLOSE(FPT_CLOSE) ALTRET(DUMMY_ERR);

   7864 10 002357   000712 630400 1                  EPPR0   FPT_CLOSE
        10 002360   450001 713400                    CLIMB   alt,close
        10 002361   406000 401760                    pmme    nvectors=13
        10 002362   002365 702000 10                 TSX2    DUMMY_ERR

      665     7865    2           RETURN;

   7865 10 002363   202020 221300                    LDX1  ! INCL$+1,,AUTO
        10 002364   000001 702211                    TSX2  ! 1,X1

      666     7866        /**/
      667     7867    2   DUMMY_ERR:
      668     7868    2           CALL ERRMSG;

PL6.E3A0      #001=IDD$DEF File=IDD$DEF.:E05TSI                                  TUE 07/29/97 22:29 Page:110
   7868 10 002365   000001 236000 xsym  DUMMY_ERR    LDQ     B_VECTNIL+1
        10 002366   202032 756100                    STQ     @CPOS+1,,AUTO
        10 002367   000001 235000 xsym               LDA     B_VECTNIL+1
        10 002370   202030 757100                    STAQ    @C#+1,,AUTO
        10 002371   000001 236000 xsym               LDQ     B_VECTNIL+1
        10 002372   202027 756100                    STQ     @OUTSYM+2,,AUTO
        10 002373   003303 701000 10                 TSX1    ERRMSG
        10 002374   000000 011000                    NOP     0

      669     7869    2           RETURN;

   7869 10 002375   202020 221300                    LDX1  ! INCL$+1,,AUTO
        10 002376   000001 702211                    TSX2  ! 1,X1

      670     7870    2   END INSTALL_FILE;
      671     7871        %EJECT;
PL6.E3A0      #001=IDD$DEF File=IDD$DEF.:E05TSI                                  TUE 07/29/97 22:29 Page:111
      672     7872    1   CVOL:   PROC;

   7872 10 002377   202020 741300       CVOL         STX1  ! INCL$+1,,AUTO

      673     7873    2           IF ID_VERIFLG THEN RETURN;

   7873 10 002400   002116 234000 1                  SZN     ID_VERIFLG
        10 002401   002403 605000 10                 TPL     s:7874

   7873 10 002402   000001 702211                    TSX2  ! 1,X1

      674     7874    2           CALL IDE$FMSECON;

   7874 10 002403   000002 631400 xsym               EPPR1   B_VECTNIL+2
        10 002404   000000 701000 xent               TSX1    IDE$FMSECON
        10 002405   000000 011000                    NOP     0

      675     7875    2           CALL M$OPEN(FPT_OPEN) ALTRET(CVOL_ERR);

   7875 10 002406   000604 630400 1                  EPPR0   FPT_OPEN
        10 002407   450000 713400                    CLIMB   alt,open
        10 002410   410400 401760                    pmme    nvectors=18
        10 002411   002440 702000 10                 TSX2    CVOL_ERR

      676     7876    3           IF LABEL_FLG THEN DO;

   7876 10 002412   202015 234100                    SZN     LABEL_FLG,,AUTO
        10 002413   002423 605000 10                 TPL     s:7881

      677     7877    3              FPT_CLOSE.V.POS#=0;

   7877 10 002414   000000 236003                    LDQ     0,DU
        10 002415   000746 552040 1                  STBQ    FPT_CLOSE+28,'40'O

      678     7878    3              CALL M$CVOL(FPT_CVOL) ALTRET(CVOL_ERR);

   7878 10 002416   000702 630400 1                  EPPR0   FPT_CVOL
PL6.E3A0      #001=IDD$DEF File=IDD$DEF.:E05TSI                                  TUE 07/29/97 22:29 Page:112
        10 002417   450004 713400                    CLIMB   alt,+20484
        10 002420   401000 401760                    pmme    nvectors=3
        10 002421   002440 702000 10                 TSX2    CVOL_ERR

      679     7879    3              END;

   7879 10 002422   002425 710000 10                 TRA     s:7883

      680     7880    3           ELSE DO;

      681     7881    3              FPT_CLOSE.V.POS#=%POT#;

   7881 10 002423   005000 236003                    LDQ     2560,DU
        10 002424   000746 552040 1                  STBQ    FPT_CLOSE+28,'40'O

      682     7882    3              END;

      683     7883    2           CALL M$CLOSE(FPT_CLOSE) ALTRET(CVOL_ERR);

   7883 10 002425   000712 630400 1                  EPPR0   FPT_CLOSE
        10 002426   450001 713400                    CLIMB   alt,close
        10 002427   406000 401760                    pmme    nvectors=13
        10 002430   002440 702000 10                 TSX2    CVOL_ERR

      684     7884    2           FPT_CLOSE.V.POS#=0;             /* CLEAN UP FPT                       */

   7884 10 002431   000000 236003                    LDQ     0,DU
        10 002432   000746 552040 1                  STBQ    FPT_CLOSE+28,'40'O

      685     7885    2           CALL IDE$FMSECOFF;

   7885 10 002433   000002 631400 xsym               EPPR1   B_VECTNIL+2
        10 002434   000000 701000 xent               TSX1    IDE$FMSECOFF
        10 002435   000000 011000                    NOP     0

      686     7886    2           RETURN;

PL6.E3A0      #001=IDD$DEF File=IDD$DEF.:E05TSI                                  TUE 07/29/97 22:29 Page:113
   7886 10 002436   202020 221300                    LDX1  ! INCL$+1,,AUTO
        10 002437   000001 702211                    TSX2  ! 1,X1

      687     7887    2   CVOL_ERR:
      688     7888    2           CALL ERRMSG(B$TCB$->B$TCB.ALT$->B$ALT.ERR,DCBNUM(M$PO));

   7888 10 002440   000000 470400 xsym  CVOL_ERR     LDP0    B$TCB$
        10 002441   000000 471500                    LDP1    0,,PR0
        10 002442   000000 236007 xsym               LDQ     M$PO,DL
        10 002443   202052 756100                    STQ     D#+14,,AUTO
        10 002444   000001 236000 xsym               LDQ     B_VECTNIL+1
        10 002445   202032 756100                    STQ     @CPOS+1,,AUTO
        10 002446   202031 756100                    STQ     @EDCB+1,,AUTO
        10 002447   202052 633500                    EPPR3   D#+14,,AUTO
        10 002450   202030 453500                    STP3    @C#+1,,AUTO
        10 002451   100102 634500                    EPPR4   66,,PR1
        10 002452   202027 454500                    STP4    @OUTSYM+2,,AUTO
        10 002453   003303 701000 10                 TSX1    ERRMSG
        10 002454   000000 011000                    NOP     0

      689     7889    2           ABORT_FLG='1'B;

   7889 10 002455   400000 236003                    LDQ     -131072,DU
        10 002456   001271 756000 1                  STQ     ABORT_FLG

      690     7890    2           CALL EXIT_DEF;

   7890 10 002457   001713 701000 10                 TSX1    EXIT_DEF
        10 002460   000000 011000                    NOP     0

      691     7891    2   END CVOL;

   7891 10 002461   202020 221300                    LDX1  ! INCL$+1,,AUTO
        10 002462   000001 702211                    TSX2  ! 1,X1

      692     7892        %EJECT;
PL6.E3A0      #001=IDD$DEF File=IDD$DEF.:E05TSI                                  TUE 07/29/97 22:29 Page:114
      693     7893    1   PROCESS_ACCOUNT_SPECS: PROC;

   7893 10 002463   202020 741300       PROCESS_ACC* STX1  ! INCL$+1,,AUTO

      694     7894        /**/
      695     7895    2   DCL ACCT$ PTR;
      696     7896    2   DCL IGNR$ PTR;
      697     7897    2   DCL TYPE1 CHAR(2);
      698     7898    2   DCL TYPE1A(0:1) REDEF TYPE1 CHAR(1);
      699     7899    2   DCL TYPE2 CHAR(2);
      700     7900    2   DCL TYPE2A(0:1) REDEF TYPE2 CHAR(1);
      701     7901    2   DCL ACCTHDR CHAR(0) STATIC INIT('%2/    FILES FROM .%>A:%/');
      702     7902        /**/
      703     7903    2           ACCT$=ACCNHEAD$;

   7903 10 002464   000574 236000 1                  LDQ     ACCNHEAD$
        10 002465   202021 756100                    STQ     ACCT$,,AUTO

      704     7904    3           DO WHILE (ACCT$~=ADDR(NIL));

   7904 10 002466   002700 710000 10                 TRA     s:7937

      705     7905    3              IF NOT ID_VERIFLG THEN

   7905 10 002467   002116 234000 1                  SZN     ID_VERIFLG
        10 002470   002505 604000 10                 TMI     s:7907

      706     7906    3                 CALL X$WRITE(F_FDS,VECTOR(ACCTHDR),VECTOR(ACCT$->ACCNSPEC.ACCN));

   7906 10 002471   000116 235000 11                 LDA     78
        10 002472   202021 236100                    LDQ     ACCT$,,AUTO
        10 002473   000001 036003                    ADLQ    1,DU
        10 002474   202036 757100                    STAQ    D#+2,,AUTO
        10 002475   202036 630500                    EPPR0   D#+2,,AUTO
        10 002476   202042 450500                    STP0    D#+6,,AUTO
        10 002477   000120 237000 11                 LDAQ    80
        10 002500   202040 757100                    STAQ    D#+4,,AUTO
PL6.E3A0      #001=IDD$DEF File=IDD$DEF.:E05TSI                                  TUE 07/29/97 22:29 Page:115
        10 002501   202040 630500                    EPPR0   D#+4,,AUTO
        10 002502   000021 631400 xsym               EPPR1   B_VECTNIL+17
        10 002503   000000 701000 xent               TSX1    X$WRITE
        10 002504   000000 011000                    NOP     0

      707     7907    3              CALL IDO$SETFIRST(DCBNUM(M$INPUT),ACCT$->ACCNSPEC);

   7907 10 002505   000000 236007 xsym               LDQ     M$INPUT,DL
        10 002506   202036 756100                    STQ     D#+2,,AUTO
        10 002507   202021 236100                    LDQ     ACCT$,,AUTO
        10 002510   202041 756100                    STQ     D#+5,,AUTO
        10 002511   202036 630500                    EPPR0   D#+2,,AUTO
        10 002512   202040 450500                    STP0    D#+4,,AUTO
        10 002513   202040 630500                    EPPR0   D#+4,,AUTO
        10 002514   000020 631400 xsym               EPPR1   B_VECTNIL+16
        10 002515   000000 701000 xent               TSX1    IDO$SETFIRST
        10 002516   000000 011000                    NOP     0

      708     7908    4              DO WHILE('1'B);

      709     7909    4                 CALL IDO$OPENNEXT(DCBNUM(M$INPUT),VECTOR(FPARAM)) ALTRET(NXT_ACCT);

   7909 10 002517   000000 236007 xsym               LDQ     M$INPUT,DL
        10 002520   000107 235000 11                 LDA     71
        10 002521   202036 452500                    STP2    D#+2,,AUTO
        10 002522   202037 756100                    STQ     D#+3,,AUTO
        10 002523   202036 236100                    LDQ     D#+2,,AUTO
        10 002524   000005 036003                    ADLQ    5,DU
        10 002525   202042 757100                    STAQ    D#+6,,AUTO
        10 002526   202037 235100                    LDA     D#+3,,AUTO
        10 002527   202040 755100                    STA     D#+4,,AUTO
        10 002530   202042 237100                    LDAQ    D#+6,,AUTO
        10 002531   202044 757100                    STAQ    D#+8,,AUTO
        10 002532   202044 630500                    EPPR0   D#+8,,AUTO
        10 002533   202047 450500                    STP0    D#+11,,AUTO
        10 002534   202040 631500                    EPPR1   D#+4,,AUTO
        10 002535   202046 451500                    STP1    D#+10,,AUTO
PL6.E3A0      #001=IDD$DEF File=IDD$DEF.:E05TSI                                  TUE 07/29/97 22:29 Page:116
        10 002536   202046 630500                    EPPR0   D#+10,,AUTO
        10 002537   000020 631400 xsym               EPPR1   B_VECTNIL+16
        10 002540   000000 701000 xent               TSX1    IDO$OPENNEXT
        10 002541   002672 702000 10                 TSX2    NXT_ACCT

      710     7910    4                 IF ACCT$->ACCNSPEC.NTYPES=0 THEN

   7910 10 002542   202021 470500                    LDP0    ACCT$,,AUTO
        10 002543   000006 720100                    LXL0    6,,PR0
        10 002544   002606 600000 10                 TZE     CHK_IGNORE

      711     7911    4                    GOTO CHK_IGNORE;
      712     7912    5                 ELSE DO I=0 TO ACCT$->ACCNSPEC.NTYPES-1;

   7912 10 002545   202007 450100                    STZ     I,,AUTO
        10 002546   002600 710000 10                 TRA     s:7919+1

      713     7913    5                    TYPE1=ACCT$->ACCNSPEC.TYPE(I);

   7913 10 002547   202007 235100                    LDA     I,,AUTO
        10 002550   000001 735000                    ALS     1
        10 002551   202021 470500                    LDP0    ACCT$,,AUTO
        10 002552   040100 100505                    MLR     fill='040'O
        10 002553   000007 000002                    ADSC9   7,A,PR0                  cn=0,n=2
        10 002554   202023 000002                    ADSC9   TYPE1,,AUTO              cn=0,n=2

      714     7914    5                    TYPE2=M$INPUT$->F$DCB.TYPE;

   7914 10 002555   000602 471400 1                  LDP1    M$INPUT$
        10 002556   100025 720100                    LXL0    21,,PR1
        10 002557   202024 740100                    STX0    TYPE2,,AUTO

      715     7915    5                    IF TYPE1A(0)='?' THEN TYPE2A(0)='?';

   7915 10 002560   202023 236100                    LDQ     TYPE1,,AUTO
        10 002561   777000 376003                    ANQ     -512,DU
        10 002562   077000 116003                    CMPQ    32256,DU
PL6.E3A0      #001=IDD$DEF File=IDD$DEF.:E05TSI                                  TUE 07/29/97 22:29 Page:117
        10 002563   002566 601000 10                 TNZ     s:7916

   7915 10 002564   077000 236003                    LDQ     32256,DU
        10 002565   202024 552140                    STBQ    TYPE2,'40'O,AUTO

      716     7916    5                    IF TYPE1A(1)='?' THEN TYPE2A(1)='?';

   7916 10 002566   202023 236100                    LDQ     TYPE1,,AUTO
        10 002567   000777 376003                    ANQ     511,DU
        10 002570   000077 116003                    CMPQ    63,DU
        10 002571   002574 601000 10                 TNZ     s:7917

   7916 10 002572   000077 236003                    LDQ     63,DU
        10 002573   202024 552120                    STBQ    TYPE2,'20'O,AUTO

      717     7917    5                    IF TYPE1=TYPE2 THEN

   7917 10 002574   202023 221100                    LDX1    TYPE1,,AUTO
        10 002575   202024 101100                    CMPX1   TYPE2,,AUTO
        10 002576   002606 600000 10                 TZE     CHK_IGNORE

      718     7918    5                       GOTO CHK_IGNORE;
      719     7919    5                    END /* DO I */;

   7919 10 002577   202007 054100                    AOS     I,,AUTO
        10 002600   000006 236100                    LDQ     6,,PR0
        10 002601   000022 736000                    QLS     18
        10 002602   000022 732000                    QRS     18
        10 002603   202007 116100                    CMPQ    I,,AUTO
        10 002604   002547 605400 10                 TPNZ    s:7913

      720     7920    4                 GOTO NEXT_FILE;

   7920 10 002605   002671 710000 10                 TRA     NEXT_FILE

      721     7921    4   CHK_IGNORE:
      722     7922    4                 IGNR$=IGNRHEAD$;
PL6.E3A0      #001=IDD$DEF File=IDD$DEF.:E05TSI                                  TUE 07/29/97 22:29 Page:118

   7922 10 002606   000576 236000 1     CHK_IGNORE   LDQ     IGNRHEAD$
        10 002607   202022 756100                    STQ     IGNR$,,AUTO

      723     7923    5                 DO WHILE (IGNR$~=ADDR(NIL));

   7923 10 002610   002632 710000 10                 TRA     s:7929

      724     7924    6                    IF M$INPUT$->F$DCB.NAME=IGNR$->INCLSPEC.FNAME THEN DO;

   7924 10 002611   000602 470400 1                  LDP0    M$INPUT$
        10 002612   202022 471500                    LDP1    IGNR$,,AUTO
        10 002613   000100 106500                    CMPC    fill='000'O
        10 002614   000010 000040                    ADSC9   8,,PR0                   cn=0,n=32
        10 002615   100001 000040                    ADSC9   1,,PR1                   cn=0,n=32
        10 002616   002630 601000 10                 TNZ     s:7928

      725     7925    6                      IF M$INPUT$->F$DCB.ACCT=IGNR$->INCLSPEC.ACCN OR ~IGNR$->INCLSPEC
              7925                                .RESULT.ACCN THEN

   7925 10 002617   040100 106500                    CMPC    fill='040'O
        10 002620   000020 000010                    ADSC9   16,,PR0                  cn=0,n=8
        10 002621   100011 000010                    ADSC9   9,,PR1                   cn=0,n=8
        10 002622   002671 600000 10                 TZE     NEXT_FILE
        10 002623   100026 236100                    LDQ     22,,PR1
        10 002624   000001 736000                    QLS     1
        10 002625   400000 376003                    ANQ     -131072,DU
        10 002626   400000 676003                    ERQ     -131072,DU
        10 002627   002671 601000 10                 TNZ     NEXT_FILE

      726     7926    6                          GOTO NEXT_FILE;
      727     7927    6                       END /* DO IF NAME */;

      728     7928    5                    IGNR$=IGNR$->INCLSPEC.FL$;

   7928 10 002630   100000 236100                    LDQ     0,,PR1
        10 002631   202022 756100                    STQ     IGNR$,,AUTO
PL6.E3A0      #001=IDD$DEF File=IDD$DEF.:E05TSI                                  TUE 07/29/97 22:29 Page:119

      729     7929    5                    END /* DO WHILE IGNR$ */;

   7929 10 002632   000001 116000 xsym               CMPQ    B_VECTNIL+1
        10 002633   002611 601000 10                 TNZ     s:7924

      730     7930    4                 CALL IDC$COPY(DCBNUM(M$INPUT),VECTOR(FPARAM));

   7930 10 002634   000000 236007 xsym               LDQ     M$INPUT,DL
        10 002635   000107 235000 11                 LDA     71
        10 002636   202036 452500                    STP2    D#+2,,AUTO
        10 002637   202037 756100                    STQ     D#+3,,AUTO
        10 002640   202036 236100                    LDQ     D#+2,,AUTO
        10 002641   000005 036003                    ADLQ    5,DU
        10 002642   202042 757100                    STAQ    D#+6,,AUTO
        10 002643   202037 235100                    LDA     D#+3,,AUTO
        10 002644   202040 755100                    STA     D#+4,,AUTO
        10 002645   202042 237100                    LDAQ    D#+6,,AUTO
        10 002646   202044 757100                    STAQ    D#+8,,AUTO
        10 002647   202044 630500                    EPPR0   D#+8,,AUTO
        10 002650   202047 450500                    STP0    D#+11,,AUTO
        10 002651   202040 631500                    EPPR1   D#+4,,AUTO
        10 002652   202046 451500                    STP1    D#+10,,AUTO
        10 002653   202046 630500                    EPPR0   D#+10,,AUTO
        10 002654   000020 631400 xsym               EPPR1   B_VECTNIL+16
        10 002655   000000 701000 xent               TSX1    IDC$COPY
        10 002656   000000 011000                    NOP     0

      731     7931    4                 IF NOT ID_VERIFLG THEN CALL IDE$FILE(DCBNUM(M$INPUT));

   7931 10 002657   002116 234000 1                  SZN     ID_VERIFLG
        10 002660   002671 604000 10                 TMI     NEXT_FILE

   7931 10 002661   000000 236007 xsym               LDQ     M$INPUT,DL
        10 002662   202036 756100                    STQ     D#+2,,AUTO
        10 002663   202036 630500                    EPPR0   D#+2,,AUTO
        10 002664   202037 450500                    STP0    D#+3,,AUTO
PL6.E3A0      #001=IDD$DEF File=IDD$DEF.:E05TSI                                  TUE 07/29/97 22:29 Page:120
        10 002665   202037 630500                    EPPR0   D#+3,,AUTO
        10 002666   000017 631400 xsym               EPPR1   B_VECTNIL+15
        10 002667   000000 701000 xent               TSX1    IDE$FILE
        10 002670   000000 011000                    NOP     0

      732     7932    4   NEXT_FILE:
      733     7933    4                 END /* DO FOREVER */;

   7933 10 002671   002517 710000 10    NEXT_FILE    TRA     s:7909

      734     7934    3   NXT_ACCT:
      735     7935    3              ACCT$=ACCT$->ACCNSPEC.FL$;

   7935 10 002672   202021 470500       NXT_ACCT     LDP0    ACCT$,,AUTO
        10 002673   000000 236100                    LDQ     0,,PR0
        10 002674   202021 756100                    STQ     ACCT$,,AUTO

      736     7936    3              CALL IDE$FLUSH;

   7936 10 002675   000002 631400 xsym               EPPR1   B_VECTNIL+2
        10 002676   000000 701000 xent               TSX1    IDE$FLUSH
        10 002677   000000 011000                    NOP     0

      737     7937    3              END /* DO WHILE ACCT$ */;

   7937 10 002700   202021 236100                    LDQ     ACCT$,,AUTO
        10 002701   000001 116000 xsym               CMPQ    B_VECTNIL+1
        10 002702   002467 601000 10                 TNZ     s:7905

      738     7938    2   END PROCESS_ACCOUNT_SPECS;

   7938 10 002703   202020 221300                    LDX1  ! INCL$+1,,AUTO
        10 002704   000001 702211                    TSX2  ! 1,X1

      739     7939        %EJECT;
PL6.E3A0      #001=IDD$DEF File=IDD$DEF.:E05TSI                                  TUE 07/29/97 22:29 Page:121
      740     7940    1   PROCESS_INCLUDE_SPECS: PROC;

   7940 10 002705   202020 741300       PROCESS_INC* STX1  ! INCL$+1,,AUTO

      741     7941    2   DCL SRCH$ PTR;
      742     7942    2   DCL INCLHDR CHAR(0) STATIC INIT('%2/    INCLUDED FILES:%/');
      743     7943        /**/
      744     7944    2           IF NOT ID_VERIFLG THEN CALL X$WRITE(F_FDS,VECTOR(INCLHDR));

   7944 10 002706   002116 234000 1                  SZN     ID_VERIFLG
        10 002707   002714 604000 10                 TMI     s:7945

   7944 10 002710   000124 630400 11                 EPPR0   84
        10 002711   000020 631400 xsym               EPPR1   B_VECTNIL+16
        10 002712   000000 701000 xent               TSX1    X$WRITE
        10 002713   000000 011000                    NOP     0

      745     7945    2           INCL$=INCLHEAD$;

   7945 10 002714   000566 236000 1                  LDQ     INCLHEAD$
        10 002715   202017 756100                    STQ     INCL$,,AUTO

      746     7946    3           DO WHILE (INCL$~=ADDR(NIL));

   7946 10 002716   003154 710000 10                 TRA     s:7979

      747     7947    3              IF INCL$->INCLSPEC.RESULT.ACCN THEN

   7947 10 002717   202017 470500                    LDP0    INCL$,,AUTO
        10 002720   000026 236100                    LDQ     22,,PR0
        10 002721   200000 316003                    CANQ    65536,DU
        10 002722   002775 600000 10                 TZE     s:7954

      748     7948    3                CALL IDO$OPENFILE(INCL$->INCLSPEC.FNAME,DCBNUM(M$INPUT),ERRCODE,VECTOR
              7948                          (FPARAM))

   7948 10 002723   000000 236007 xsym               LDQ     M$INPUT,DL
PL6.E3A0      #001=IDD$DEF File=IDD$DEF.:E05TSI                                  TUE 07/29/97 22:29 Page:122
        10 002724   000107 235000 11                 LDA     71
        10 002725   202036 452500                    STP2    D#+2,,AUTO
        10 002726   202037 756100                    STQ     D#+3,,AUTO
        10 002727   202036 236100                    LDQ     D#+2,,AUTO
        10 002730   000005 036003                    ADLQ    5,DU
        10 002731   202042 757100                    STAQ    D#+6,,AUTO
        10 002732   202037 235100                    LDA     D#+3,,AUTO
        10 002733   202040 755100                    STA     D#+4,,AUTO
        10 002734   202042 237100                    LDAQ    D#+6,,AUTO
        10 002735   202044 757100                    STAQ    D#+8,,AUTO
        10 002736   202044 631500                    EPPR1   D#+8,,AUTO
        10 002737   202051 451500                    STP1    D#+13,,AUTO
        10 002740   202012 633500                    EPPR3   ERRCODE,,AUTO
        10 002741   202050 453500                    STP3    D#+12,,AUTO
        10 002742   202040 634500                    EPPR4   D#+4,,AUTO
        10 002743   202047 454500                    STP4    D#+11,,AUTO
        10 002744   202017 236100                    LDQ     INCL$,,AUTO
        10 002745   000001 036003                    ADLQ    1,DU
        10 002746   202046 756100                    STQ     D#+10,,AUTO
        10 002747   202046 630500                    EPPR0   D#+10,,AUTO
        10 002750   000022 631400 xsym               EPPR1   B_VECTNIL+18
        10 002751   000000 701000 xent               TSX1    IDO$OPENFILE
        10 002752   002754 702000 10                 TSX2    s:7950
        10 002753   002774 710000 10                 TRA     s:7951+1

      749     7949    4                 WHENALTRETURN DO;

      750     7950    4                    IF ERRCODE.ERR ~= %E$NOFILE THEN CALL ERRMSG (ERRCODE, DCBNUM(
              7950                             M$INPUT));

   7950 10 002754   202012 236100                    LDQ     ERRCODE,,AUTO
        10 002755   377770 376007                    ANQ     131064,DL
        10 002756   001610 116007                    CMPQ    904,DL
        10 002757   002773 600000 10                 TZE     s:7951

   7950 10 002760   000000 236007 xsym               LDQ     M$INPUT,DL
        10 002761   202053 756100                    STQ     D#+15,,AUTO
PL6.E3A0      #001=IDD$DEF File=IDD$DEF.:E05TSI                                  TUE 07/29/97 22:29 Page:123
        10 002762   000001 236000 xsym               LDQ     B_VECTNIL+1
        10 002763   202032 756100                    STQ     @CPOS+1,,AUTO
        10 002764   202031 756100                    STQ     @EDCB+1,,AUTO
        10 002765   202053 630500                    EPPR0   D#+15,,AUTO
        10 002766   202030 450500                    STP0    @C#+1,,AUTO
        10 002767   202012 631500                    EPPR1   ERRCODE,,AUTO
        10 002770   202027 451500                    STP1    @OUTSYM+2,,AUTO
        10 002771   003303 701000 10                 TSX1    ERRMSG
        10 002772   000000 011000                    NOP     0

      751     7951    4                    GOTO NEXT_INCL_FILE;

   7951 10 002773   003151 710000 10                 TRA     NEXT_INCL_FILE
        10 002774   003106 710000 10                 TRA     FILE_OPEN

      752     7952    4                    END;
      753     7953    4              ELSE DO;

      754     7954    4                 SRCH$=SRCHHEAD$;

   7954 10 002775   000572 236000 1                  LDQ     SRCHHEAD$
        10 002776   202021 756100                    STQ     SRCH$,,AUTO

      755     7955    4                 MOVESIZE=SIZEC(FID_BLK);

   7955 10 002777   000204 235007                    LDA     132,DL
        10 003000   200003 755100                    STA     MOVESIZE,,AUTO

      756     7956    4                 ADDR(FID_BLK)->MOVEBASE=ADDR(INCL$->INCLSPEC.FNAME)->MOVEBASE;

   7956 10 003001   000000 620005                    EAX0    0,AL
        10 003002   200003 721100                    LXL1    MOVESIZE,,AUTO
        10 003003   040040 100540                    MLR     fill='040'O
        10 003004   000001 000010                    ADSC9   1,,PR0                   cn=0,n=*X0
        10 003005   000464 000011 1                  ADSC9   FID_BLK                  cn=0,n=*X1

      757     7957    4                 FID_BLK.RESULT.ACCN='1'B;
PL6.E3A0      #001=IDD$DEF File=IDD$DEF.:E05TSI                                  TUE 07/29/97 22:29 Page:124

   7957 10 003006   200000 236003                    LDQ     65536,DU
        10 003007   000511 256000 1                  ORSQ    FID_BLK+21

      758     7958    5                 DO WHILE (SRCH$~=ADDR(NIL));

   7958 10 003010   003102 710000 10                 TRA     s:7970

      759     7959    5                    FID_BLK.ACCN=SRCH$->SRCHSPEC.ACCN;

   7959 10 003011   202021 470500                    LDP0    SRCH$,,AUTO
        10 003012   040000 100500                    MLR     fill='040'O
        10 003013   000001 000010                    ADSC9   1,,PR0                   cn=0,n=8
        10 003014   000474 000010 1                  ADSC9   FID_BLK+8                cn=0,n=8

      760     7960    5                    FID_BLK.SNX.CNT=1;

   7960 10 003015   000001 235007                    LDA     1,DL
        10 003016   000501 755000 1                  STA     FID_BLK+13

      761     7961    5                    FID_BLK.SNX.TXT(0)=SRCH$->SRCHSPEC.SN;

   7961 10 003017   040000 100500                    MLR     fill='040'O
        10 003020   000003 000006                    ADSC9   3,,PR0                   cn=0,n=6
        10 003021   000502 000006 1                  ADSC9   FID_BLK+14               cn=0,n=6

      762     7962    5                    FID_BLK.RESULT.SNX='1'B;

   7962 10 003022   040000 236003                    LDQ     16384,DU
        10 003023   000511 256000 1                  ORSQ    FID_BLK+21

      763     7963    5                    FID_BLK.ASNX=SRCH$->SRCHSPEC.ASN;

   7963 10 003024   000004 236100                    LDQ     4,,PR0
        10 003025   777777 376007                    ANQ     -1,DL
        10 003026   000033 736000                    QLS     27
        10 003027   000513 756000 1                  STQ     FID_BLK+23
PL6.E3A0      #001=IDD$DEF File=IDD$DEF.:E05TSI                                  TUE 07/29/97 22:29 Page:125

      764     7964    5                    CALL IDO$OPENFILE(FID_BLK,DCBNUM(M$INPUT),ERRCODE,VECTOR(FPARAM))
              7964                             ALTRET(NEXT_SRCH_ACCT);

   7964 10 003030   000000 236007 xsym               LDQ     M$INPUT,DL
        10 003031   000107 235000 11                 LDA     71
        10 003032   202036 452500                    STP2    D#+2,,AUTO
        10 003033   202037 756100                    STQ     D#+3,,AUTO
        10 003034   202036 236100                    LDQ     D#+2,,AUTO
        10 003035   000005 036003                    ADLQ    5,DU
        10 003036   202042 757100                    STAQ    D#+6,,AUTO
        10 003037   202037 235100                    LDA     D#+3,,AUTO
        10 003040   202040 755100                    STA     D#+4,,AUTO
        10 003041   202042 237100                    LDAQ    D#+6,,AUTO
        10 003042   202044 757100                    STAQ    D#+8,,AUTO
        10 003043   202044 631500                    EPPR1   D#+8,,AUTO
        10 003044   202051 451500                    STP1    D#+13,,AUTO
        10 003045   202012 633500                    EPPR3   ERRCODE,,AUTO
        10 003046   202050 453500                    STP3    D#+12,,AUTO
        10 003047   202040 634500                    EPPR4   D#+4,,AUTO
        10 003050   202047 454500                    STP4    D#+11,,AUTO
        10 003051   000117 236000 11                 LDQ     79
        10 003052   202046 756100                    STQ     D#+10,,AUTO
        10 003053   202046 630500                    EPPR0   D#+10,,AUTO
        10 003054   000022 631400 xsym               EPPR1   B_VECTNIL+18
        10 003055   000000 701000 xent               TSX1    IDO$OPENFILE
        10 003056   003060 702000 10                 TSX2    NEXT_SRCH_ACCT

      765     7965    5                    GOTO FILE_OPEN;

   7965 10 003057   003106 710000 10                 TRA     FILE_OPEN

      766     7966    5   NEXT_SRCH_ACCT:
      767     7967    5                    IF ERRCODE.ERR ~= %E$NOFILE THEN

   7967 10 003060   202012 236100       NEXT_SRCH_A* LDQ     ERRCODE,,AUTO
        10 003061   377770 376007                    ANQ     131064,DL
PL6.E3A0      #001=IDD$DEF File=IDD$DEF.:E05TSI                                  TUE 07/29/97 22:29 Page:126
        10 003062   001610 116007                    CMPQ    904,DL
        10 003063   003077 600000 10                 TZE     s:7969

      768     7968    5                       CALL ERRMSG (ERRCODE, DCBNUM(M$INPUT));

   7968 10 003064   000000 236007 xsym               LDQ     M$INPUT,DL
        10 003065   202054 756100                    STQ     D#+16,,AUTO
        10 003066   000001 236000 xsym               LDQ     B_VECTNIL+1
        10 003067   202032 756100                    STQ     @CPOS+1,,AUTO
        10 003070   202031 756100                    STQ     @EDCB+1,,AUTO
        10 003071   202054 630500                    EPPR0   D#+16,,AUTO
        10 003072   202030 450500                    STP0    @C#+1,,AUTO
        10 003073   202012 631500                    EPPR1   ERRCODE,,AUTO
        10 003074   202027 451500                    STP1    @OUTSYM+2,,AUTO
        10 003075   003303 701000 10                 TSX1    ERRMSG
        10 003076   000000 011000                    NOP     0

      769     7969    5                    SRCH$=SRCH$->SRCHSPEC.FL$;

   7969 10 003077   202021 470500                    LDP0    SRCH$,,AUTO
        10 003100   000000 236100                    LDQ     0,,PR0
        10 003101   202021 756100                    STQ     SRCH$,,AUTO

      770     7970    5                    END /* DO WHILE SRCH$ */;

   7970 10 003102   202021 236100                    LDQ     SRCH$,,AUTO
        10 003103   000001 116000 xsym               CMPQ    B_VECTNIL+1
        10 003104   003011 601000 10                 TNZ     s:7959

      771     7971    4                 GOTO NEXT_INCL_FILE;

   7971 10 003105   003151 710000 10                 TRA     NEXT_INCL_FILE

      772     7972    4                 END /* ELSE DO */;
      773     7973    3   FILE_OPEN:
      774     7974    3              CALL IDC$COPY(DCBNUM(M$INPUT),VECTOR(FPARAM),INCL$->INCLSPEC.FNAME);

PL6.E3A0      #001=IDD$DEF File=IDD$DEF.:E05TSI                                  TUE 07/29/97 22:29 Page:127
   7974 10 003106   000000 236007 xsym  FILE_OPEN    LDQ     M$INPUT,DL
        10 003107   000107 235000 11                 LDA     71
        10 003110   202036 452500                    STP2    D#+2,,AUTO
        10 003111   202037 756100                    STQ     D#+3,,AUTO
        10 003112   202036 236100                    LDQ     D#+2,,AUTO
        10 003113   000005 036003                    ADLQ    5,DU
        10 003114   202042 757100                    STAQ    D#+6,,AUTO
        10 003115   202037 235100                    LDA     D#+3,,AUTO
        10 003116   202040 755100                    STA     D#+4,,AUTO
        10 003117   202042 237100                    LDAQ    D#+6,,AUTO
        10 003120   202044 757100                    STAQ    D#+8,,AUTO
        10 003121   202017 236100                    LDQ     INCL$,,AUTO
        10 003122   000001 036003                    ADLQ    1,DU
        10 003123   202050 756100                    STQ     D#+12,,AUTO
        10 003124   202044 630500                    EPPR0   D#+8,,AUTO
        10 003125   202047 450500                    STP0    D#+11,,AUTO
        10 003126   202040 631500                    EPPR1   D#+4,,AUTO
        10 003127   202046 451500                    STP1    D#+10,,AUTO
        10 003130   202046 630500                    EPPR0   D#+10,,AUTO
        10 003131   000021 631400 xsym               EPPR1   B_VECTNIL+17
        10 003132   000000 701000 xent               TSX1    IDC$COPY
        10 003133   000000 011000                    NOP     0

      775     7975    3              IF NOT ID_VERIFLG THEN CALL IDE$FILEACCT(DCBNUM(M$INPUT));

   7975 10 003134   002116 234000 1                  SZN     ID_VERIFLG
        10 003135   003146 604000 10                 TMI     s:7976

   7975 10 003136   000000 236007 xsym               LDQ     M$INPUT,DL
        10 003137   202036 756100                    STQ     D#+2,,AUTO
        10 003140   202036 630500                    EPPR0   D#+2,,AUTO
        10 003141   202037 450500                    STP0    D#+3,,AUTO
        10 003142   202037 630500                    EPPR0   D#+3,,AUTO
        10 003143   000017 631400 xsym               EPPR1   B_VECTNIL+15
        10 003144   000000 701000 xent               TSX1    IDE$FILEACCT
        10 003145   000000 011000                    NOP     0

PL6.E3A0      #001=IDD$DEF File=IDD$DEF.:E05TSI                                  TUE 07/29/97 22:29 Page:128
      776     7976    3              INCL$->INCLSPEC.RESULT.FOUND='1'B;

   7976 10 003146   202017 470500                    LDP0    INCL$,,AUTO
        10 003147   000001 236007                    LDQ     1,DL
        10 003150   000027 256100                    ORSQ    23,,PR0

      777     7977    3   NEXT_INCL_FILE:
      778     7978    3              INCL$=INCL$->INCLSPEC.FL$;

   7978 10 003151   202017 470500       NEXT_INCL_F* LDP0    INCL$,,AUTO
        10 003152   000000 236100                    LDQ     0,,PR0
        10 003153   202017 756100                    STQ     INCL$,,AUTO

      779     7979    3              END /* DO WHILE INCL$ */;

   7979 10 003154   000001 116000 xsym               CMPQ    B_VECTNIL+1
        10 003155   002717 601000 10                 TNZ     s:7947

      780     7980    2           CALL IDE$FLUSH;

   7980 10 003156   000002 631400 xsym               EPPR1   B_VECTNIL+2
        10 003157   000000 701000 xent               TSX1    IDE$FLUSH
        10 003160   000000 011000                    NOP     0

      781     7981    2   END PROCESS_INCLUDE_SPECS;

   7981 10 003161   202020 221300                    LDX1  ! INCL$+1,,AUTO
        10 003162   000001 702211                    TSX2  ! 1,X1

      782     7982        %EJECT;
PL6.E3A0      #001=IDD$DEF File=IDD$DEF.:E05TSI                                  TUE 07/29/97 22:29 Page:129
      783     7983    1   WRITE_MISSING_STUFF: PROC;

   7983 10 003163   202020 741300       WRITE_MISSI* STX1  ! INCL$+1,,AUTO

      784     7984    2   DCL INCL_NOT_FOUND CHAR(0) STATIC INIT('%2/ INCLUDE FILES NOT FOUND:%/');
      785     7985    2   DCL REQ_NOT_FOUND CHAR(0) STATIC INIT('%2/ REQUIRED FILES NOT FOUND:%/');
      786     7986    2           CALL X$WRITE(F_FDS,VECTOR(INCL_NOT_FOUND));

   7986 10 003164   000130 630400 11                 EPPR0   88
        10 003165   000020 631400 xsym               EPPR1   B_VECTNIL+16
        10 003166   000000 701000 xent               TSX1    X$WRITE
        10 003167   000000 011000                    NOP     0

      787     7987        /**/
      788     7988    2           INCL$=INCLHEAD$;

   7988 10 003170   000566 236000 1                  LDQ     INCLHEAD$
        10 003171   202017 756100                    STQ     INCL$,,AUTO

      789     7989    3           DO WHILE(INCL$~=ADDR(NIL));

   7989 10 003172   003220 710000 10                 TRA     s:7995

      790     7990    4              IF NOT INCL$->INCLSPEC.RESULT.FOUND THEN DO;

   7990 10 003173   202017 470500                    LDP0    INCL$,,AUTO
        10 003174   000027 236100                    LDQ     23,,PR0
        10 003175   000001 316007                    CANQ    1,DL
        10 003176   003215 601000 10                 TNZ     s:7994

      791     7991    4                 I=INCL$->INCLSPEC.FNAME.CNT;

   7991 10 003177   000001 236100                    LDQ     1,,PR0
        10 003200   000033 772000                    QRL     27
        10 003201   202007 756100                    STQ     I,,AUTO

      792     7992    4                 CALL IDE$WRTCOLUMN(INCL$->INCLSPEC.FNAME.TXT,I,16);
PL6.E3A0      #001=IDD$DEF File=IDD$DEF.:E05TSI                                  TUE 07/29/97 22:29 Page:130

   7992 10 003202   000024 236000 11                 LDQ     20
        10 003203   202040 756100                    STQ     D#+4,,AUTO
        10 003204   202007 631500                    EPPR1   I,,AUTO
        10 003205   202037 451500                    STP1    D#+3,,AUTO
        10 003206   202017 236100                    LDQ     INCL$,,AUTO
        10 003207   000132 036000 11                 ADLQ    90
        10 003210   202036 756100                    STQ     D#+2,,AUTO
        10 003211   202036 630500                    EPPR0   D#+2,,AUTO
        10 003212   000021 631400 xsym               EPPR1   B_VECTNIL+17
        10 003213   000000 701000 xent               TSX1    IDE$WRTCOLUMN
        10 003214   000000 011000                    NOP     0

      793     7993    4                 END;

      794     7994    3              INCL$=INCL$->INCLSPEC.FL$;

   7994 10 003215   202017 470500                    LDP0    INCL$,,AUTO
        10 003216   000000 236100                    LDQ     0,,PR0
        10 003217   202017 756100                    STQ     INCL$,,AUTO

      795     7995    3              END /* DO WHILE INCL$ */;

   7995 10 003220   000001 116000 xsym               CMPQ    B_VECTNIL+1
        10 003221   003173 601000 10                 TNZ     s:7990

      796     7996    2           CALL IDE$FLUSH;

   7996 10 003222   000002 631400 xsym               EPPR1   B_VECTNIL+2
        10 003223   000000 701000 xent               TSX1    IDE$FLUSH
        10 003224   000000 011000                    NOP     0

      797     7997    3           IF BOOT_FLG THEN DO;

   7997 10 003225   202016 234100                    SZN     BOOT_FLG,,AUTO
        10 003226   003301 605000 10                 TPL     s:8007

PL6.E3A0      #001=IDD$DEF File=IDD$DEF.:E05TSI                                  TUE 07/29/97 22:29 Page:131
      798     7998    3              CALL X$WRITE(F_FDS,VECTOR(REQ_NOT_FOUND));

   7998 10 003227   000136 630400 11                 EPPR0   94
        10 003230   000020 631400 xsym               EPPR1   B_VECTNIL+16
        10 003231   000000 701000 xent               TSX1    X$WRITE
        10 003232   000000 011000                    NOP     0

      799     7999    4              DO I=1 TO REQUIRED.NUMBER;

   7999 10 003233   000001 235007                    LDA     1,DL
        10 003234   202007 755100                    STA     I,,AUTO
        10 003235   003272 710000 10                 TRA     s:8004+1

      800     8000    5                 IF NOT REQUIRED.PROCESS.FOUND(I) AND REQUIRED.PROCESS.NAME(I)~=' '
              8000                          THEN DO;

   8000 10 003236   202007 235100                    LDA     I,,AUTO
        10 003237   000003 735000                    ALS     3
        10 003240   001307 236005 1                  LDQ     REQUIRED+8,AL
        10 003241   000400 316007                    CANQ    256,DL
        10 003242   003271 601000 10                 TNZ     s:8004
        10 003243   202007 235100                    LDA     I,,AUTO
        10 003244   000005 735000                    ALS     5
        10 003245   040000 106405                    CMPC    fill='040'O
        10 003246   001300 000037 1                  ADSC9   REQUIRED+1,A             cn=0,n=31
        10 003247   000035 000001 xsym               ADSC9   B_VECTNIL+29             cn=0,n=1
        10 003250   003271 600000 10                 TZE     s:8004

      801     8001    5                    CALL INDEX(J,' ',REQUIRED.PROCESS.NAME(I));

   8001 10 003251   000000 124405                    SCM     mask='000'O
        10 003252   001300 000037 1                  ADSC9   REQUIRED+1,A             cn=0,n=31
        10 003253   000035 000001 xsym               ADSC9   B_VECTNIL+29             cn=0,n=1
        10 003254   202010 000100                    ARG     J,,AUTO

      802     8002    5                    CALL IDE$WRTCOLUMN(REQUIRED.PROCESS.NAME(I),J,16);

PL6.E3A0      #001=IDD$DEF File=IDD$DEF.:E05TSI                                  TUE 07/29/97 22:29 Page:132
   8002 10 003255   000024 236000 11                 LDQ     20
        10 003256   202040 756100                    STQ     D#+4,,AUTO
        10 003257   202010 630500                    EPPR0   J,,AUTO
        10 003260   202037 450500                    STP0    D#+3,,AUTO
        10 003261   202007 236100                    LDQ     I,,AUTO
        10 003262   000025 736000                    QLS     21
        10 003263   000133 036000 11                 ADLQ    91
        10 003264   202036 756100                    STQ     D#+2,,AUTO
        10 003265   202036 630500                    EPPR0   D#+2,,AUTO
        10 003266   000021 631400 xsym               EPPR1   B_VECTNIL+17
        10 003267   000000 701000 xent               TSX1    IDE$WRTCOLUMN
        10 003270   000000 011000                    NOP     0

      803     8003    5                    END;

      804     8004    4                 END;

   8004 10 003271   202007 054100                    AOS     I,,AUTO
        10 003272   001277 236000 1                  LDQ     REQUIRED
        10 003273   003236 604000 10                 TMI     s:8000
        10 003274   202007 116100                    CMPQ    I,,AUTO
        10 003275   003236 605000 10                 TPL     s:8000

      805     8005    3              CALL IDE$FLUSH;

   8005 10 003276   000002 631400 xsym               EPPR1   B_VECTNIL+2
        10 003277   000000 701000 xent               TSX1    IDE$FLUSH
        10 003300   000000 011000                    NOP     0

      806     8006    3              END;

      807     8007    2           RETURN;

   8007 10 003301   202020 221300                    LDX1  ! INCL$+1,,AUTO
        10 003302   000001 702211                    TSX2  ! 1,X1

      808     8008    2   END WRITE_MISSING_STUFF;
PL6.E3A0      #001=IDD$DEF File=IDD$DEF.:E05TSI                                  TUE 07/29/97 22:29 Page:133
      809     8009        %EJECT;
PL6.E3A0      #001=IDD$DEF File=IDD$DEF.:E05TSI                                  TUE 07/29/97 22:29 Page:134
      810     8010    1   ERRMSG: PROC(C#,EDCB,CPOS,FLAGLEV);

   8010 10 003303   202026 741300       ERRMSG       STX1  ! @OUTSYM+1,,AUTO

      811     8011    2   DCL C# BIT(36) UNAL;
      812     8012    2   DCL 1 CODE,
      813     8013    2         2 FCG BIT(18),
      814     8014    2         2 N UBIN(18) UNAL;
      815     8015    2   DCL EDCB SBIN;
      816     8016    2   DCL D# SBIN;
      817     8017    2   DCL CPOS SBIN;
      818     8018    2   DCL FLAGLEV SBIN;
      819     8019    2   DCL 1 ECODE STATIC,
      820     8020    2         2 FCG BIT(18) INIT('110404'O),
      821     8021    2         2 MON BIT(1) INIT('0'B),
      822     8022    2         2 CODE UBIN(14) UNAL,
      823     8023    2         2 SEV UBIN(3) UNAL INIT(0);
      824     8024        /**/
      825     8025        /**/
      826     8026        /**/
      827     8027    2           D#=DCBNUM(NIL);

   8027 10 003304   202034 450100                    STZ     D#,,AUTO

      828     8028    3           IF ADDR(C#)=ADDR(NIL) THEN DO;

   8028 10 003305   202027 236100                    LDQ     @C#,,AUTO
        10 003306   000001 116000 xsym               CMPQ    B_VECTNIL+1
        10 003307   003320 601000 10                 TNZ     s:8033

      829     8029    3              CODE=B$TCB$->B$TCB.ALT$->B$ALT.ERR;

   8029 10 003310   000000 470400 xsym               LDP0    B$TCB$
        10 003311   000000 471500                    LDP1    0,,PR0
        10 003312   100102 236100                    LDQ     66,,PR1
        10 003313   202033 756100                    STQ     CODE,,AUTO

PL6.E3A0      #001=IDD$DEF File=IDD$DEF.:E05TSI                                  TUE 07/29/97 22:29 Page:135
      830     8030    3              D#=B$TCB$->B$TCB.ALT$->B$ALT.DCB#;

   8030 10 003314   000000 471500                    LDP1    0,,PR0
        10 003315   100101 235100                    LDA     65,,PR1
        10 003316   202034 755100                    STA     D#,,AUTO

      831     8031    3              END;

   8031 10 003317   003324 710000 10                 TRA     s:8035

      832     8032    3           ELSE DO;

      833     8033    3              CODE=C#;

   8033 10 003320   202027 470500                    LDP0    @C#,,AUTO
        10 003321   003100 060500                    CSL     bolr='003'O
        10 003322   000000 000044                    BDSC    0,,PR0                   by=0,bit=0,n=36
        10 003323   202033 000044                    BDSC    CODE,,AUTO               by=0,bit=0,n=36

      834     8034    3              END;

      835     8035    2           IF ADDR(EDCB)~=ADDR(NIL) THEN D#=EDCB;

   8035 10 003324   202030 236100                    LDQ     @EDCB,,AUTO
        10 003325   000001 116000 xsym               CMPQ    B_VECTNIL+1
        10 003326   003332 600000 10                 TZE     s:8036

   8035 10 003327   202030 470500                    LDP0    @EDCB,,AUTO
        10 003330   000000 235100                    LDA     0,,PR0
        10 003331   202034 755100                    STA     D#,,AUTO

      836     8036    3           IF ADDR(CPOS)~=ADDR(NIL) THEN DO;

   8036 10 003332   202031 236100                    LDQ     @CPOS,,AUTO
        10 003333   000001 116000 xsym               CMPQ    B_VECTNIL+1
        10 003334   003347 600000 10                 TZE     s:8039

PL6.E3A0      #001=IDD$DEF File=IDD$DEF.:E05TSI                                  TUE 07/29/97 22:29 Page:136
      837     8037    3              CALL XUR$ERRPTR(CPOS,DCBNUM(M$DO));

   8037 10 003335   000000 236007 xsym               LDQ     M$DO,DL
        10 003336   202036 756100                    STQ     D#+2,,AUTO
        10 003337   202036 630500                    EPPR0   D#+2,,AUTO
        10 003340   202041 450500                    STP0    D#+5,,AUTO
        10 003341   202031 236100                    LDQ     @CPOS,,AUTO
        10 003342   202040 756100                    STQ     D#+4,,AUTO
        10 003343   202040 630500                    EPPR0   D#+4,,AUTO
        10 003344   000020 631400 xsym               EPPR1   B_VECTNIL+16
        10 003345   000000 701000 xent               TSX1    XUR$ERRPTR
        10 003346   000000 011000                    NOP     0

      838     8038    3              END;

      839     8039    3           IF CODE.FCG THEN DO;

   8039 10 003347   202033 220100                    LDX0    CODE,,AUTO
        10 003350   003372 600000 10                 TZE     s:8043

      840     8040    3              CALL XUR$ERRMSG(CODE,D#,,,,,FLAGLEV);

   8040 10 003351   202032 236100                    LDQ     @FLAGLEV,,AUTO
        10 003352   202044 756100                    STQ     D#+8,,AUTO
        10 003353   000001 236000 xsym               LDQ     B_VECTNIL+1
        10 003354   000001 235000 xsym               LDA     B_VECTNIL+1
        10 003355   202042 757100                    STAQ    D#+6,,AUTO
        10 003356   000001 236000 xsym               LDQ     B_VECTNIL+1
        10 003357   000001 235000 xsym               LDA     B_VECTNIL+1
        10 003360   202040 757100                    STAQ    D#+4,,AUTO
        10 003361   202034 630500                    EPPR0   D#,,AUTO
        10 003362   202037 450500                    STP0    D#+3,,AUTO
        10 003363   202033 631500                    EPPR1   CODE,,AUTO
        10 003364   202036 451500                    STP1    D#+2,,AUTO
        10 003365   202036 630500                    EPPR0   D#+2,,AUTO
        10 003366   000025 631400 xsym               EPPR1   B_VECTNIL+21
        10 003367   000000 701000 xent               TSX1    XUR$ERRMSG
PL6.E3A0      #001=IDD$DEF File=IDD$DEF.:E05TSI                                  TUE 07/29/97 22:29 Page:137
        10 003370   000000 011000                    NOP     0

      841     8041    3              END;

   8041 10 003371   003417 710000 10                 TRA     s:8046

      842     8042    3           ELSE DO;

      843     8043    3              ECODE.CODE=CODE.N;

   8043 10 003372   202033 236100                    LDQ     CODE,,AUTO
        10 003373   000003 736000                    QLS     3
        10 003374   002235 676000 1                  ERQ     ECODE
        10 003375   377770 376007                    ANQ     131064,DL
        10 003376   002235 656000 1                  ERSQ    ECODE

      844     8044    3              CALL XUR$ERRMSG(ECODE,D#,,,,,FLAGLEV);

   8044 10 003377   202032 236100                    LDQ     @FLAGLEV,,AUTO
        10 003400   202044 756100                    STQ     D#+8,,AUTO
        10 003401   000001 236000 xsym               LDQ     B_VECTNIL+1
        10 003402   000001 235000 xsym               LDA     B_VECTNIL+1
        10 003403   202042 757100                    STAQ    D#+6,,AUTO
        10 003404   000001 236000 xsym               LDQ     B_VECTNIL+1
        10 003405   000001 235000 xsym               LDA     B_VECTNIL+1
        10 003406   202040 757100                    STAQ    D#+4,,AUTO
        10 003407   202034 630500                    EPPR0   D#,,AUTO
        10 003410   202037 450500                    STP0    D#+3,,AUTO
        10 003411   000140 236000 11                 LDQ     96
        10 003412   202036 756100                    STQ     D#+2,,AUTO
        10 003413   202036 630500                    EPPR0   D#+2,,AUTO
        10 003414   000025 631400 xsym               EPPR1   B_VECTNIL+21
        10 003415   000000 701000 xent               TSX1    XUR$ERRMSG
        10 003416   000000 011000                    NOP     0

      845     8045    3              END;

PL6.E3A0      #001=IDD$DEF File=IDD$DEF.:E05TSI                                  TUE 07/29/97 22:29 Page:138
      846     8046    2           FPT_EXIT.V.STEPCC# = 4;

   8046 10 003417   004000 236003                    LDQ     2048,DU
        10 003420   000004 552040 9                  STBQ    FPT_EXIT+4,'40'O

      847     8047    2           RETURN;

   8047 10 003421   202026 221300                    LDX1  ! @OUTSYM+1,,AUTO
        10 003422   000001 702211                    TSX2  ! 1,X1

      848     8048    2   END ERRMSG;
      849     8049    1   END IDD$DEF;

   8049 10 003423   000000 702200 xent               TSX2  ! X66_MARET
      850     8050        %EOD;

PL6.E3A0      #001=IDD$DEF File=IDD$DEF.:E05TSI                                  TUE 07/29/97 22:29 Page:139
--  Include file information  --

   B$JIT.:E05TOU  cannot be made into a system file and is referenced.
   F$DCB.:E05TOU  cannot be made into a system file and is referenced.
   XUH_MACRO_C.:E05TOU  is referenced.
   XU_FORMAT_C.:E05TOU  is referenced.
   XU_MACRO_C.:E05TOU  is referenced.
   ID_PERR_C.:E05TOU  is referenced.
   ID_SUBS_C.:E05TOU  is referenced.
   ID_DATA_C.:E05TOU  is referenced.
   B_ERRORS_C.:E05TOU  is referenced.
   CP_6_SUBS.:E05TOU  is referenced.
   CP_6.:E05TOU  cannot be made into a system file and is referenced.
   XUF_ENTRY.:E05TOU  cannot be made into a system file and is referenced.
   XUR_ENTRY.:E05TOU  cannot be made into a system file and is referenced.
   B$JIT_C.:E05TOU  was found in the system file and is referenced.
   CP_6_C.:E05TOU  was found in the system file and is referenced.
      No diagnostics issued in procedure IDD$DEF.
PL6.E3A0      #001=IDD$DEF File=IDD$DEF.:E05TSI                                  TUE 07/29/97 22:29 Page:140

 **** Variables and constants ****

  ****  Section 001  Data  IDD$DEF

  ****  Scalars and arrays  ****
OctLoc.c.b A Datatyp(siz) R M Lvl/name                 OctLoc.c.b A Datatyp(siz) R M Lvl/name

  1271-0-0/w BIT         r     1 ABORT_FLG                574-0-0/w PTR         r     1 ACCNHEAD$
   575-0-0/w PTR         r     1 ACCNTAIL$               2200-0-0/c CHAR(25)    r     1 ACCTHDR
   423-0-0/w STRC(1188)  r     1 ASCHEMA                 1275-0-0/w BIT         r     1 ASCHEMA_FLG
  1276-0-0/w UBIN        r     1 ASCHEMA_TYP             1273-0-0/w BIT         r     1 BLOCKFLG
    13-0-0/w STRC(1188)  r     1 BOOTSTRAP                600-0-0/d STRC(72)    r     1 CMDSEG
  1270-0-0/w SBIN        r     1 CMDSEGSZ                1206-0-0/c STRC        r     1 DEFNAME
  2235-0-0/b STRC        r     1 ECODE                   1266-0-0/w BIT         r     1 END_FLG
  2123-0-0/c CHAR(29)    r     1 EXITFMT                  464-0-0/w STRC(1188)  r     1 FID_BLK
    54-0-0/w STRC(1188)  r     1 FIRMWARE                1211-0-0/w CHAR(144)   r     1 FMTBUF
   712-0-0/d STRC(1080)  r     1 FPT_CLOSE                702-0-0/d STRC(288)   r     1 FPT_CVOL
  2150-0-0/d STRC(864)   r     1 FPT_FID                 1754-0-0/d STRC(432)   r     1 FPT_MONINFO
   604-0-0/d STRC(2088)  r     1 FPT_OPEN                 750-0-0/d STRC(144)   r     1 FPT_REM
   754-0-0/d STRC(432)   r     1 FPT_TIME                1056-0-0/w STRC(1080)  r     1 F_FDS
   260-0-0/w STRC(1188)  r     1 G1HJIT                   217-0-0/w STRC(1188)  r     1 GHOST1
  2112-0-0/c CHAR(15)    r     1 HELLO                   1207-0-0/c STRC(72)    r     1 HELPACCT
  2105-0-0/w STRC(144)   r     1 ID_ASLIST               1274-0-0/w BIT         r     1 ID_BLOCKFLG
  2111-0-0/w SBIN        r     1 ID_DENSITY              2122-0-0/w BIT         r     1 ID_LISTFLG
   570-0-0/w PTR         r     1 ID_PTCHHEAD$             571-0-0/w PTR         r     1 ID_PTCHTAIL$
  1770-0-0/d STRC(2232)  r     1 ID_SITEINFO             2066-0-0/w STRC(522)   r     1 ID_SNLIST
  2116-0-0/w BIT         r     1 ID_VERIFLG               576-0-0/w PTR         r     1 IGNRHEAD$
   577-0-0/w PTR         r     1 IGNRTAIL$               2207-0-0/c CHAR(24)    r     1 INCLHDR
   566-0-0/w PTR         r     1 INCLHEAD$                567-0-0/w PTR         r     1 INCLTAIL$
  2215-0-0/c CHAR(30)    r     1 INCL_NOT_FOUND           602-0-0/w PTR         r     1 M$INPUT$
   156-0-0/w STRC(1188)  r     1 MHJIT                    115-0-0/w STRC(1188)  r     1 MONSTER
  1272-0-0/b BIT         r     1 POCMD_FLG                770-0-0/w STRC(504)   r     1 P_PCB
  1277-0-0/w STRC(8964)  r     1 REQUIRED                2225-0-0/c CHAR(31)    r     1 REQ_NOT_FOUND
  1267-0-0/w BIT         r     1 SCHEMA_FLAG             1670-0-0/w STRC(1836)  r     1 SCHEMA_TBL
   572-0-0/w PTR         r     1 SRCHHEAD$                573-0-0/w PTR         r     1 SRCHTAIL$
     0-0-0/c CHAR(28)    r     1 TAPEID                     7-0-0/c STRC(144)   r     1 TBUF
     7-0-0/c CHAR(16)    r     1 TBUFR                   2133-0-0/c CHAR(31)    r     1 VERIFMT
PL6.E3A0      #001=IDD$DEF File=IDD$DEF.:E05TSI                                  TUE 07/29/97 22:29 Page:141
   676-0-0/c STRC(99)    r     1 VLP_DUMMYFILE            600-0-0/d BIT (72)    r     1 X1
   321-0-0/w STRC(1188)  r     1 XDLT                     362-0-0/w STRC(1188)  r     1 XDLTLS
   525-0-0/w STRC(1188)  r     1 XINSTALL                1114-0-0/d STRC(2052)  r     1 XUH_PARAM
  1006-0-0/d STRC(1404)  r     1 XUR_INIT                2143-0-0/c CHAR(14)    r     1 XXXFMT

  ****  Section 008 RoData IDD$DEF

  ****  Scalars and arrays  ****
OctLoc.c.b A Datatyp(siz) R M Lvl/name                 OctLoc.c.b A Datatyp(siz) R M Lvl/name

     0-0-0/c CHAR        r     1 PRMPT

  ****  Section 009 LblCom FPT_EXIT

  ****  Scalars and arrays  ****
OctLoc.c.b A Datatyp(siz) R M Lvl/name                 OctLoc.c.b A Datatyp(siz) R M Lvl/name

     0-0-0/d STRC(216)   r     1 FPT_EXIT

  ****  Auto variables  ****

  ****  Scalars and arrays  ****
OctLoc.c.b A Datatyp(siz) R M Lvl/name                 OctLoc.c.b A Datatyp(siz) R M Lvl/name

  2027-0-0/w PTR         r     1 @C#                     2031-0-0/w PTR         r     1 @CPOS
  2030-0-0/w PTR         r     1 @EDCB                   2032-0-0/w PTR         r     1 @FLAGLEV
  2023-0-0/w PTR         r     1 @OUTBLK                 2025-0-0/w PTR         r     1 @OUTSYM
  2021-0-0/w PTR         r     1 ACCT$                   2016-0-0/w BIT         r     1 BOOT_FLG
    *0-0-0/b BIT         r     1 C#                         4-0-0/w PTR         r     1 CMDSEG$
  2033-0-0/b STRC        r     1 CODE                      *0-0-0/w SBIN        r     1 CPOS
  2034-0-0/w SBIN        r     1 D#                        *0-0-0/w SBIN        r     1 EDCB
  2012-0-0/b STRC        r     1 ERRCODE                   *0-0-0/w SBIN        r     1 FLAGLEV
     5-0-0/w SBIN        r     1 FPARAM(0:1023)          2007-0-0/w SBIN        r     1 I
  2022-0-0/w PTR         r     1 IGNR$                   2017-0-0/w PTR         r     1 INCL$
  2010-0-0/w SBIN        r     1 J                       2015-0-0/w BIT         r     1 LABEL_FLG
  2006-0-0/w PTR         r     1 M$AS$                   2005-0-0/w PTR         r     1 M$PO$
     3-0-0/w SBIN        r     1 MOVESIZE                2014-0-0/w BIT         r     1 NOFILES_FLG
PL6.E3A0      #001=IDD$DEF File=IDD$DEF.:E05TSI                                  TUE 07/29/97 22:29 Page:142
  2013-0-0/w PTR         r     1 OUT$                      *0-0-0/w STRC(144)   r     1 OUTBLK
    *0-0-0/w ASTR(153)   r     1 OUTSYM                  2013-0-0/w STRC        r     1 PARSERR
  2021-0-0/w PTR         r     1 SRCH$                   2011-0-0/w SBIN        r     1 TEMP
  2023-0-0/c CHAR(2)     r     1 TYPE1                   2023-0-0/c CHAR        r     1 TYPE1A(0:1)
  2024-0-0/c CHAR(2)     r     1 TYPE2                   2024-0-0/c CHAR        r     1 TYPE2A(0:1)

  ****  SYMREF variables  ****

  ****  Scalars and arrays  ****
OctLoc.c.b A Datatyp(siz) R M Lvl/name                 OctLoc.c.b A Datatyp(siz) R M Lvl/name

     0-0-0/w PTR         r     1 B$JIT$                     0-0-0/w PTR         r     1 B$TCB$
     0-0-0/c ASTR(9)     r     1 B_VERSION                  0-0-0/w UBIN        r     1 ID_NODES

  ****  BASED and DCB variables  ****

  ****  Scalars and arrays  ****
OctLoc.c.b A Datatyp(siz) R M Lvl/name                 OctLoc.c.b A Datatyp(siz) R M Lvl/name

     0-0-0/w STRC(270)   r     1 ACCNSPEC                   0-0-0/w STRC(2448)  r     1 B$ALT
     0-0-0/d STRC(8856)  r     1 B$JIT                      0-0-0/w STRC(144)   r     1 B$TCB
     0-0-0/d ASTR(3528)  r     1 F$DCB                      0-0-0/w STRC(1224)  r     1 INCLSPEC
     0-0-0N  NULL        r     1 M$AS                       0-0-0N  NULL        r     1 M$DO
     0-0-0N  NULL        r     1 M$INPUT                    0-0-0N  NULL        r     1 M$LO
     0-0-0N  NULL        r     1 M$PO                       0-0-0/c ACHR        r     1 MOVEBASE
     0-0-0/w STRC(144)   r     1 OUT$BLK                    0-0-0/w STRC(180)   r     1 SRCHSPEC
     0-0-0/w ASTR(153)   r     1 SYM$BLK


   Procedure IDD$DEF requires 1812 words for executable code.
   Procedure IDD$DEF requires 1070 words of local(AUTO) storage.
PL6.E3A0      #001=IDD$DEF File=IDD$DEF.:E05TSI                                  TUE 07/29/97 22:29 Page:143
          *** CROSS REFERENCE LISTING ***
**     DENOTES     IDENTIFIER DEFINITION
<<                 IDENTIFIER'S VALUE SET
>>                 IDENTIFIER'S VALUE USED
<>                 IDENTIFIER SET AND/OR USED
--                 IDENTIFIER REFERENCED
PL6.E3A0      #001=IDD$DEF File=IDD$DEF.:E05TSI                                  TUE 07/29/97 22:29 Page:144
          MINI XREF LISTING

ABORT_FLG
      7221**DCL      7322<<ASSIGN   7629>>IF       7634<<ASSIGN   7656>>IF       7686<<ASSIGN   7889<<ASSIGN
ACCNHEAD$
      6323**DCL      7512>>IF       7512<<ASSIGN   7903>>ASSIGN
ACCNSPEC
      6325**DCL      7509--ASSIGN   7907<>CALL
ACCNSPEC.ACCN
      6327**DCL      7516<<ASSIGN   7906--CALL
ACCNSPEC.ASN
      6331**DCL      7519<<ASSIGN
ACCNSPEC.FL$
      6326**DCL      7514<<ASSIGN   7524<<ASSIGN   7935>>ASSIGN
ACCNSPEC.NTYPES
      6332**DCL      7523<<ASSIGN   7910>>IF       7912>>DOINDEX
ACCNSPEC.SN.CNT
      6329**DCL      7517<<ASSIGN
ACCNSPEC.SN.TXT
      6330**DCL      7518<<ASSIGN
ACCNSPEC.TYPE
      6333**DCL      7521<<ASSIGN   7913>>ASSIGN
ACCNTAIL$
      6324**DCL      7513>>IF       7514>>ASSIGN   7515<<ASSIGN
ACCT$ IN PROCEDURE PROCESS_ACCOUNT_SPECS
      7895**DCL      7903<<ASSIGN   7904>>DOWHILE  7906>>CALL     7907>>CALL     7910>>IF       7912>>DOINDEX
      7913>>ASSIGN   7935<<ASSIGN   7935>>ASSIGN
ACCTHDR IN PROCEDURE PROCESS_ACCOUNT_SPECS
      7901**DCL      7906--CALL
ASCHEMA
      6115**DCL      7393<>CALL     7395<<ASSIGN
ASCHEMA_FLG
      7228**DCL      7340>>IF       7396<<ASSIGN
ASCHEMA_TYP
PL6.E3A0      #001=IDD$DEF File=IDD$DEF.:E05TSI                                  TUE 07/29/97 22:29 Page:145
      7229**DCL      7397<<ASSIGN
B$ALT.CODE
      5669**DCL      5669--REDEF    5670--REDEF    5670--REDEF
B$ALT.DCB#
      5670**DCL      8030>>ASSIGN
B$ALT.ERR
      5670**DCL      7684>>ASSIGN   7777<>CALL     7888<>CALL     8029>>ASSIGN
B$ALT.ERR.ERR#
      5671**DCL      5671--REDEF
B$ALT.EVID
      5670**DCL      5670--REDEF    5670--REDEF
B$JIT.CPFLAGS1.SLEAZE
      5481**DCL      5481--REDEF
B$JIT.ERR.MID
      5388**DCL      5388--REDEF
B$JIT.FACCN
      5387**DCL      7622>>ASSIGN   7768>>ASSIGN
B$JIT.JRESPEAK
      5549**DCL      5550--REDEF
B$JIT.ORIGINATOR_PORT.FROM_CR
      5658**DCL      5658--REDEF    5659--REDEF
B$JIT.PNR
      5562**DCL      5562--REDEF
B$JIT.PRIV.ACTIVE
      5388**DCL      7317>>IF       7572>>IF
B$JIT.TSLINE
      5656**DCL      5657--REDEF
B$JIT$
      5372**DCL      5382--IMP-PTR  7317>>IF       7572>>IF       7622>>ASSIGN   7768>>ASSIGN
B$TCB.ALT$
      5665**DCL      7684>>ASSIGN   7777>>CALL     7888>>CALL     8029>>ASSIGN   8030>>ASSIGN
B$TCB$
      5663**DCL      7684>>ASSIGN   7777>>CALL     7888>>CALL     8029>>ASSIGN   8030>>ASSIGN
BAD_FID IN PROCEDURE BUILD_INCLSPEC
      7849**LABEL    7828--CALLALT
BAD_FID IN PROCEDURE PARSE_FID
PL6.E3A0      #001=IDD$DEF File=IDD$DEF.:E05TSI                                  TUE 07/29/97 22:29 Page:146
      7776**LABEL    7766--CALLALT
BLOCKFLG
      7226**DCL      7325<<ASSIGN   7350>>ASSIGN   7573<<ASSIGN
BOOTSTRAP
      5699**DCL      7385<>CALL     7387<<ASSIGN
BOOT_FLG
      7225**DCL      7346>>IF       7366<<ASSIGN   7603<<ASSIGN   7997>>IF
BUILD_INCLSPEC
      7781**PROC     7438--CALL     7455--CALL     7529--CALL
B_VERSION.L#
      7309**DCL      7310--IMP-SIZ  7327>>CALLBLT  7327>>CALLBLT
B_VERSION.TXT
      7310**DCL      7327>>CALLBLT
C# IN PROCEDURE ERRMSG
      8011**DCL      8010--PROC     8028--IF       8033>>ASSIGN
CHK_IGNORE IN PROCEDURE PROCESS_ACCOUNT_SPECS
      7922**LABEL    7911--GOTO     7918--GOTO
CMDSEG
      6340**DCL      7360<>CALL     7680<>CALL
CMDSEG.BOUND
      6341**DCL      7362>>ASSIGN   7680>>CALL
CMDSEG.PTR$
      6343**DCL      7361>>ASSIGN
CMDSEG$
      6344**DCL      7361<<ASSIGN   7439>>ASSIGN   7441>>ASSIGN   7442>>ASSIGN   7443<<ASSIGN   7443>>ASSIGN
      7457>>ASSIGN   7458>>ASSIGN   7460>>ASSIGN   7462>>ASSIGN   7463>>ASSIGN   7464<<ASSIGN   7464>>ASSIGN
      7477>>ASSIGN   7479>>ASSIGN   7480>>ASSIGN   7481>>ASSIGN   7482>>ASSIGN   7483>>ASSIGN   7484>>ASSIGN
      7485<<ASSIGN   7485>>ASSIGN   7512>>ASSIGN   7514>>ASSIGN   7515>>ASSIGN   7516>>ASSIGN   7517>>ASSIGN
      7518>>ASSIGN   7519>>ASSIGN   7521>>ASSIGN   7523>>ASSIGN   7524>>ASSIGN   7525<<ASSIGN   7525>>ASSIGN
      7530>>ASSIGN   7532>>ASSIGN   7533>>ASSIGN   7534<<ASSIGN   7534>>ASSIGN   7621>>ASSIGN   7622>>ASSIGN
      7623>>ASSIGN   7624>>ASSIGN   7625>>ASSIGN   7626>>ASSIGN   7627<<ASSIGN   7627>>ASSIGN   7836>>ASSIGN
      7837>>ASSIGN   7838>>ASSIGN   7839>>ASSIGN   7840>>ASSIGN   7841>>ASSIGN   7842>>ASSIGN   7843>>ASSIGN
      7844>>ASSIGN   7845>>ASSIGN   7846>>ASSIGN
CMDSEGSZ
      7208**DCL      7362<<ASSIGN   7444<<ASSIGN   7444>>ASSIGN   7465<<ASSIGN   7465>>ASSIGN   7475>>IF
      7486<<ASSIGN   7486>>ASSIGN   7510>>IF       7526<<ASSIGN   7526>>ASSIGN   7535<<ASSIGN   7535>>ASSIGN
PL6.E3A0      #001=IDD$DEF File=IDD$DEF.:E05TSI                                  TUE 07/29/97 22:29 Page:147
      7619>>IF       7681<<ASSIGN   7681>>ASSIGN   7834>>IF
CODE IN PROCEDURE ERRMSG
      8012**DCL      8029<<ASSIGN   8033<<ASSIGN   8040<>CALL
CODE.FCG IN PROCEDURE ERRMSG
      8013**DCL      8039>>IF
CODE.N IN PROCEDURE ERRMSG
      8014**DCL      8043>>ASSIGN
CPOS IN PROCEDURE ERRMSG
      8017**DCL      8010--PROC     8036--IF       8037<>CALL
CVOL
      7872**PROC     7351--CALL
CVOL_ERR IN PROCEDURE CVOL
      7888**LABEL    7875--CALLALT  7878--CALLALT  7883--CALLALT
D# IN PROCEDURE ERRMSG
      8016**DCL      8027<<ASSIGN   8030<<ASSIGN   8035<<ASSIGN   8040<>CALL     8044<>CALL
DEFNAME
      7184**DCL      7122--DCLINIT
DUMMY_ERR IN PROCEDURE INSTALL_FILE
      7868**LABEL    7863--CALLALT  7864--CALLALT
ECODE IN PROCEDURE ERRMSG
      8019**DCL      8044<>CALL
ECODE.CODE IN PROCEDURE ERRMSG
      8022**DCL      8043<<ASSIGN
EDCB IN PROCEDURE ERRMSG
      8015**DCL      8010--PROC     8035--IF       8035>>ASSIGN
END_FLG
      7204**DCL      7363<<ASSIGN   7369>>DOWHILE  7552<<ASSIGN   7635<<ASSIGN
ERRCODE
      7210**DCL      7684<<ASSIGN   7685<>CALL     7853<>CALL     7948<>CALL     7950<>CALL     7964<>CALL
      7968<>CALL
ERRCODE.ERR
      7212**DCL      7950>>IF       7967>>IF
ERRMSG
      8010**PROC     7318--CALL     7375--CALL     7472--CALL     7494--CALL     7499--CALL     7505--CALL
      7541--CALL     7576--CALL     7591--CALL     7639--CALL     7642--CALL     7685--CALL     7777--CALL
      7831--CALL     7858--CALL     7859--CALL     7868--CALL     7888--CALL     7950--CALL     7968--CALL
PL6.E3A0      #001=IDD$DEF File=IDD$DEF.:E05TSI                                  TUE 07/29/97 22:29 Page:148
EXITFMT IN PROCEDURE EXIT_DEF
      7648**DCL      7664--CALL
EXIT_DEF
      7647**PROC     7323--CALL     7344--CALL     7357--CALL     7629--CALL     7687--CALL     7890--CALL
F$DCB.ACCT
      5334**DCL      7925>>IF
F$DCB.ACTPOS
      5349**DCL      5349--REDEF
F$DCB.ARS
      5324**DCL      5324--REDEF
F$DCB.ATTR
      5342**DCL      5343--REDEF
F$DCB.BORROW
      5357**DCL      5357--REDEF    5357--REDEF    5357--REDEF
F$DCB.DCBNAME.L
      5371**DCL      5371--IMP-SIZ
F$DCB.EOMCHAR
      5328**DCL      5328--REDEF
F$DCB.FCI
      5337**DCL      7666>>IF       7671>>IF
F$DCB.FLDID
      5352**DCL      5352--REDEF
F$DCB.FORM$
      5346**DCL      5346--REDEF
F$DCB.FSECT
      5362**DCL      5362--REDEF
F$DCB.FSN
      5339**DCL      5339--REDEF    5339--REDEF    5340--REDEF
F$DCB.HEADER$
      5345**DCL      5345--REDEF
F$DCB.IXTNSIZE
      5343**DCL      5343--REDEF
F$DCB.LASTSTA$
      5333**DCL      5333--REDEF
F$DCB.LVL
      5358**DCL      5358--REDEF
PL6.E3A0      #001=IDD$DEF File=IDD$DEF.:E05TSI                                  TUE 07/29/97 22:29 Page:149
F$DCB.NAME
      5333**DCL      7924>>IF
F$DCB.NAME.C
      5333**DCL      5333--REDEF
F$DCB.NOEOF
      5354**DCL      5354--REDEF
F$DCB.NRECS
      5344**DCL      5344--REDEF
F$DCB.NRECX
      5363**DCL      5363--REDEF
F$DCB.OHDR
      5355**DCL      5355--REDEF
F$DCB.ORG
      5338**DCL      5338--REDEF
F$DCB.PRECNO
      5361**DCL      5361--REDEF
F$DCB.PSN
      5334**DCL      7336>>IF       7336>>ASSIGN   7337>>IF       7337>>ASSIGN   7667>>ASSIGN   7672>>ASSIGN
F$DCB.RCSZ
      5366**DCL      5366--REDEF
F$DCB.RES
      5334**DCL      5334--REDEF
F$DCB.SETX
      5346**DCL      5346--REDEF
F$DCB.TAB$
      5345**DCL      5346--REDEF
F$DCB.TDA
      5360**DCL      5360--REDEF
F$DCB.TYPE
      5334**DCL      7914>>ASSIGN
F$DCB.WSN
      5335**DCL      5335--REDEF
FID_BLK
      6167**DCL      7387>>ASSIGN   7391>>ASSIGN   7395>>ASSIGN   7401>>ASSIGN   7405>>ASSIGN   7409>>ASSIGN
      7417>>ASSIGN   7425>>ASSIGN   7435>>ASSIGN   7449>>ASSIGN   7955--ASSIGN   7956--ASSIGN   7964<>CALL
FID_BLK.ACCN
PL6.E3A0      #001=IDD$DEF File=IDD$DEF.:E05TSI                                  TUE 07/29/97 22:29 Page:150
      6174**DCL      7481>>ASSIGN   7516>>ASSIGN   7750--DCLINIT  7768>>IF       7768<<ASSIGN   7839>>ASSIGN
      7959<<ASSIGN
FID_BLK.ASNX
      6191**DCL      7483>>ASSIGN   7519>>ASSIGN   7752--DCLINIT  7846>>ASSIGN   7963<<ASSIGN
FID_BLK.FLAGS.CMD
      6195**DCL      7773<<ASSIGN
FID_BLK.FLAGS.SKIP
      6196**DCL      7762<<ASSIGN
FID_BLK.FNAME
      6171**DCL      7750--DCLINIT  7838>>ASSIGN
FID_BLK.FNAME.CNT
      6172**DCL      7769>>IF       7829>>IF
FID_BLK.PASW
      6175**DCL      7751--DCLINIT  7840>>ASSIGN
FID_BLK.RESULT
      6181**DCL      7753--DCLINIT  7844>>ASSIGN
FID_BLK.RESULT.ACCN
      6183**DCL      7497>>IF       7767>>IF       7957<<ASSIGN
FID_BLK.RESULT.FNAME
      6182**DCL      7470>>IF       7492>>IF       7769>>IF       7770<<ASSIGN   7829>>IF
FID_BLK.RESULT.SNX
      6185**DCL      7771>>IF       7962<<ASSIGN
FID_BLK.RESX
      6176**DCL      7752--DCLINIT  7841>>ASSIGN
FID_BLK.SNX
      6177**DCL      7751--DCLINIT  7842>>ASSIGN
FID_BLK.SNX.CNT
      6178**DCL      7517>>ASSIGN   7960<<ASSIGN
FID_BLK.SNX.TXT
      6179**DCL      7482>>ASSIGN   7518>>ASSIGN   7772<<ASSIGN   7961<<ASSIGN
FID_BLK.WSNX
      6180**DCL      7751--DCLINIT  7843>>ASSIGN
FILE_OPEN IN PROCEDURE PROCESS_INCLUDE_SPECS
      7974**LABEL    7965--GOTO
FIRMWARE
      5751**DCL      7389<>CALL     7391<<ASSIGN
PL6.E3A0      #001=IDD$DEF File=IDD$DEF.:E05TSI                                  TUE 07/29/97 22:29 Page:151
FLAGLEV IN PROCEDURE ERRMSG
      8018**DCL      8010--PROC     8040<>CALL     8044<>CALL
FMTBUF
      7199**DCL      7017--DCLINIT  7019--DCLINIT
FPARAM
      6345**DCL      7853--CALL     7854--CALL     7909--CALL     7930--CALL     7948--CALL     7964--CALL
      7974--CALL
FPT_CLOSE
      6536**DCL      7864<>CALL     7883<>CALL
FPT_CLOSE.SN_
      6536**DCL      6536--REDEF
FPT_CLOSE.UTL_
      6537**DCL      6537--REDEF
FPT_CLOSE.V
      6541**DCL      6536--DCLINIT
FPT_CLOSE.V.EXPIRE#
      6551**DCL      6551--REDEF
FPT_CLOSE.V.POS#
      6549**DCL      7877<<ASSIGN   7881<<ASSIGN   7884<<ASSIGN
FPT_CLOSE.V.TYPE#
      6549**DCL      6549--REDEF
FPT_CLOSE.V.XTNSIZE#
      6546**DCL      6546--REDEF    6548--REDEF
FPT_CVOL
      6508**DCL      7878<>CALL
FPT_CVOL.V
      6509**DCL      6508--DCLINIT
FPT_EXIT
      6566**DCL      7601<>CALL     7675<>CALL
FPT_EXIT.V
      6566**DCL      6566--DCLINIT
FPT_EXIT.V.STEPCC#
      6567**DCL      6567--REDEF    8046<<ASSIGN
FPT_FID IN PROCEDURE PARSE_FID
      7749**DCL      7766<>CALL
FPT_FID.TEXTFID_ IN PROCEDURE PARSE_FID
PL6.E3A0      #001=IDD$DEF File=IDD$DEF.:E05TSI                                  TUE 07/29/97 22:29 Page:152
      7749**DCL      7765<<ASSIGN
FPT_FID.V IN PROCEDURE PARSE_FID
      7753**DCL      7749--DCLINIT
FPT_MONINFO
      7277**DCL      7334<>CALL
FPT_OPEN
      6426**DCL      7863<>CALL     7875<>CALL
FPT_OPEN.ACSVEH_
      6428**DCL      6429--REDEF
FPT_OPEN.ALTKEYS_
      6434**DCL      6435--REDEF    6435--REDEF
FPT_OPEN.HDR_
      6433**DCL      6434--REDEF
FPT_OPEN.TAB_
      6432**DCL      6433--REDEF
FPT_OPEN.UHL_
      6426**DCL      6427--REDEF    6427--REDEF
FPT_OPEN.V
      6435**DCL      6426--DCLINIT
FPT_OPEN.V.FSN#
      6466**DCL      6466--REDEF    6466--REDEF
FPT_OPEN.WSN_
      6432**DCL      6432--REDEF
FPT_REM
      6581**DCL      7668<>CALL     7673<>CALL
FPT_REM.V
      6581**DCL      6581--DCLINIT
FPT_REM.V.PSN#
      6582**DCL      7667<<ASSIGN   7672<<ASSIGN
FPT_TIME
      6595**DCL      7333<>CALL     7655<>CALL
FPT_TIME.V
      6599**DCL      6595--DCLINIT
F_FDS
      6999**DCL      7329<>CALL     7657<>CALL     7662<>CALL     7664<>CALL     7906<>CALL     7944<>CALL
      7986<>CALL     7998<>CALL
PL6.E3A0      #001=IDD$DEF File=IDD$DEF.:E05TSI                                  TUE 07/29/97 22:29 Page:153
G1HJIT
      5959**DCL      7415<>CALL     7417<<ASSIGN
G1HJIT.ACCN
      5966**DCL      7411<<ASSIGN
G1HJIT.FLAGS.CMD
      5987**DCL      7410>>IF
G1HJIT.RESULT.ACCN
      5975**DCL      7412<<ASSIGN
GET_CMD_SPACE
      7679**PROC     7476--CALL     7511--CALL     7620--CALL     7835--CALL
GHOST1
      5907**DCL      7407<>CALL     7409<<ASSIGN
GHOST1.ACCN
      5914**DCL      7411>>ASSIGN
GHOST1.RESULT.ACCN
      5923**DCL      7412>>ASSIGN
HELLO
      7311**DCL      7327<<CALLBLT  7329--CALL
HELPACCT
      7197**DCL      7123--DCLINIT
I
      7205**DCL      7376<<DOINDEX  7377>>IF       7380>>ASSIGN   7380>>ASSIGN   7420<<DOINDEX  7421>>IF
      7424>>CALL     7437<<DOINDEX  7438>>CALL     7454<<DOINDEX  7455>>CALL     7456>>IF       7457>>ASSIGN
      7458>>ASSIGN   7458>>ASSIGN   7468<<DOINDEX  7469>>CALL     7471>>ASSIGN   7502<<DOINDEX  7503>>IF
      7504>>ASSIGN   7520<<DOINDEX  7521>>ASSIGN   7521>>ASSIGN   7521>>ASSIGN   7528<<DOINDEX  7529>>CALL
      7538<<DOINDEX  7539>>IF       7540>>ASSIGN   7547>>ASSIGN   7547>>ASSIGN   7632<<ASSIGN   7636<<ASSIGN
      7638>>IF       7639<>CALL     7912<<DOINDEX  7913>>ASSIGN   7991<<ASSIGN   7992<>CALL     7999<<DOINDEX
      8000>>IF       8000>>IF       8001>>CALLBLT  8002>>CALL
IDC$COPY
        17**DCL-ENT  7854--CALL     7930--CALL     7974--CALL
IDD$GETSEG
        11**DCL-ENT  7360--CALL     7680--CALL
IDE$CHK_CMD
        18**DCL-ENT  7385--CALL     7389--CALL     7393--CALL     7399--CALL     7403--CALL     7407--CALL
      7415--CALL     7419--CALL     7433--CALL     7447--CALL
IDE$FILE
PL6.E3A0      #001=IDD$DEF File=IDD$DEF.:E05TSI                                  TUE 07/29/97 22:29 Page:154
        54**DCL-ENT  7931--CALL
IDE$FILEACCT
        55**DCL-ENT  7975--CALL
IDE$FLUSH
        53**DCL-ENT  7936--CALL     7980--CALL     7996--CALL     8005--CALL
IDE$FMSECOFF
        20**DCL-ENT  7326--CALL     7885--CALL
IDE$FMSECON
        19**DCL-ENT  7874--CALL
IDE$WRTCOLUMN
        56**DCL-ENT  7992--CALL     8002--CALL
IDO$OPENFILE
        12**DCL-ENT  7853--CALL     7948--CALL     7964--CALL
IDO$OPENNEXT
        14**DCL-ENT  7909--CALL
IDO$SETFIRST
        13**DCL-ENT  7907--CALL
IDU$ALTSCH
        16**DCL-ENT  7342--CALL
IDU$BOOT
        15**DCL-ENT  7347--CALL
ID_ASLIST.C
      7306**DCL      7337<<ASSIGN
ID_BLOCKFLG
      7227**DCL      7338<<ASSIGN   7350<<ASSIGN
ID_DENSITY
      7307**DCL      7564<<ASSIGN
ID_LISTFLG
      7314**DCL      7368<<ASSIGN   7568<<ASSIGN
ID_NODES
      6603**DCL      7370<>CALL
ID_PTCHHEAD$
      6314**DCL      7439>>IF       7439<<ASSIGN
ID_PTCHTAIL$
      6315**DCL      7440>>IF       7441>>ASSIGN   7442<<ASSIGN
ID_SITEINFO
PL6.E3A0      #001=IDD$DEF File=IDD$DEF.:E05TSI                                  TUE 07/29/97 22:29 Page:155
      7292**DCL      7277--DCLINIT
ID_SITEINFO.MINI_ID#
      7292**DCL      7335<<ASSIGN   7562<<ASSIGN   7607>>IF       7613>>CALLBLT
ID_SITEINFO.SALUTATION#.C
      7294**DCL      7560<<ASSIGN
ID_SITEINFO.SALUTATION#.L
      7294**DCL      7559<<ASSIGN
ID_SITEINFO.SITE_ID#
      7296**DCL      7554<<ASSIGN
ID_SITEINFO.SITE_NAME#.C
      7293**DCL      7557<<ASSIGN
ID_SITEINFO.SITE_NAME#.L
      7293**DCL      7556<<ASSIGN
ID_SITEINFO.VERSION#
      7295**DCL      7380<<ASSIGN   7608>>CALLBLT  7613>>CALLBLT
ID_SNLIST
      7300**DCL      6426--DCLINIT
ID_SNLIST.C
      7302**DCL      7336<<ASSIGN
ID_VERIFLG
      7312**DCL      7343<<ASSIGN   7367<<ASSIGN   7570<<ASSIGN   7661>>IF       7873>>IF       7905>>IF
      7931>>IF       7944>>IF       7975>>IF
IGNR$ IN PROCEDURE PROCESS_ACCOUNT_SPECS
      7896**DCL      7922<<ASSIGN   7923>>DOWHILE  7924>>IF       7925>>IF       7925>>IF       7928<<ASSIGN
      7928>>ASSIGN
IGNRHEAD$
      6334**DCL      7530>>IF       7530<<ASSIGN   7922>>ASSIGN
IGNRSKIP IN PROCEDURE READ_DEF_COMMANDS
      7536**LABEL    7529--CALLALT
IGNRTAIL$
      6335**DCL      7531>>IF       7532>>ASSIGN   7533<<ASSIGN
INCL$
      7265**DCL      7945<<ASSIGN   7946>>DOWHILE  7947>>IF       7948>>CALL     7956>>ASSIGN   7974>>CALL
      7976>>ASSIGN   7978<<ASSIGN   7978>>ASSIGN   7988<<ASSIGN   7989>>DOWHILE  7990>>IF       7991>>ASSIGN
      7992>>CALL     7994<<ASSIGN   7994>>ASSIGN
INCLHDR IN PROCEDURE PROCESS_INCLUDE_SPECS
PL6.E3A0      #001=IDD$DEF File=IDD$DEF.:E05TSI                                  TUE 07/29/97 22:29 Page:156
      7942**DCL      7944--CALL
INCLHEAD$
      6260**DCL      7460>>IF       7460<<ASSIGN   7945>>ASSIGN   7988>>ASSIGN
INCLSKIP IN PROCEDURE READ_DEF_COMMANDS
      7466**LABEL    7455--CALLALT
INCLSPEC
      6275**DCL      7443--ASSIGN   7444--ASSIGN   7464--ASSIGN   7465--ASSIGN   7534--ASSIGN   7535--ASSIGN
      7834--IF       7836<<ASSIGN
INCLSPEC.ACCN
      6282**DCL      7839<<ASSIGN   7925>>IF
INCLSPEC.ASFILE.C
      6312**DCL      7458<<ASSIGN
INCLSPEC.ASFILE.L
      6311**DCL      7457<<ASSIGN
INCLSPEC.ASNX
      6299**DCL      7846<<ASSIGN
INCLSPEC.FL$
      6277**DCL      7441<<ASSIGN   7462<<ASSIGN   7532<<ASSIGN   7837<<ASSIGN   7928>>ASSIGN   7978>>ASSIGN
      7994>>ASSIGN
INCLSPEC.FNAME
      6279**DCL      7838<<ASSIGN   7924>>IF       7948<>CALL     7956--ASSIGN   7974<>CALL
INCLSPEC.FNAME.CNT
      6280**DCL      7991>>ASSIGN
INCLSPEC.FNAME.TXT
      6281**DCL      7992<>CALL
INCLSPEC.PASW
      6283**DCL      7840<<ASSIGN
INCLSPEC.RESULT
      6289**DCL      7844<<ASSIGN
INCLSPEC.RESULT.ACCN
      6291**DCL      7925>>IF       7947>>IF
INCLSPEC.RESULT.FOUND
      6298**DCL      7845<<ASSIGN   7976<<ASSIGN   7990>>IF
INCLSPEC.RESX
      6284**DCL      7841<<ASSIGN
INCLSPEC.SNX
PL6.E3A0      #001=IDD$DEF File=IDD$DEF.:E05TSI                                  TUE 07/29/97 22:29 Page:157
      6285**DCL      7842<<ASSIGN
INCLSPEC.WSNX
      6288**DCL      7843<<ASSIGN
INCLTAIL$
      6261**DCL      7461>>IF       7462>>ASSIGN   7463<<ASSIGN
INCL_NOT_FOUND IN PROCEDURE WRITE_MISSING_STUFF
      7984**DCL      7986--CALL
INSTALL_FILE
      7852**PROC     7348--CALL
J
      7206**DCL      7471<<ASSIGN   7472<>CALL     7493<<ASSIGN   7494<>CALL     7498<<ASSIGN   7499<>CALL
      7504<<ASSIGN   7505<>CALL     7776<<ASSIGN   7777<>CALL     7830<<ASSIGN   7831<>CALL     8001<<CALLBLT
      8002<>CALL
LABEL_FLG
      7224**DCL      7352>>IF       7365<<ASSIGN   7453<<ASSIGN   7490<<ASSIGN   7876>>IF
M$AS
      6353**DCL      7332--ASSIGN   7671--IF
M$AS$
      6354**DCL      7332<<ASSIGN   7337>>IF       7337>>ASSIGN   7672>>ASSIGN
M$CLOSE
        75**DCL-ENT  7864--CALL     7883--CALL
M$CVOL
        78**DCL-ENT  7878--CALL
M$DO
      6350**DCL      8037<>CALL
M$EXIT
        87**DCL-ENT  7601--CALL     7675--CALL
M$FID
       138**DCL-ENT  7766--CALL
M$INPUT
      6348**DCL      7330--ASSIGN   7853<>CALL     7854<>CALL     7907<>CALL     7909<>CALL     7930<>CALL
      7931<>CALL     7948<>CALL     7950<>CALL     7964<>CALL     7968<>CALL     7974<>CALL     7975<>CALL
M$INPUT$
      6349**DCL      7330<<ASSIGN   7914>>ASSIGN   7924>>IF       7925>>IF
M$MONINFO
       143**DCL-ENT  7334--CALL
PL6.E3A0      #001=IDD$DEF File=IDD$DEF.:E05TSI                                  TUE 07/29/97 22:29 Page:158
M$OPEN
        75**DCL-ENT  7863--CALL     7875--CALL
M$PO
      6351**DCL      7331--ASSIGN   7666--IF       7888<>CALL
M$PO$
      6352**DCL      7331<<ASSIGN   7336>>IF       7336>>ASSIGN   7667>>ASSIGN
M$REM
        84**DCL-ENT  7668--CALL     7673--CALL
M$TIME
       142**DCL-ENT  7333--CALL     7655--CALL
M$XXX
        87**DCL-ENT  7658--CALL
MHJIT
      5855**DCL      7403<>CALL     7405<<ASSIGN
MONSTER
      5803**DCL      7399<>CALL     7401<<ASSIGN
MOVEBASE
      6258**DCL      7956<<ASSIGN   7956>>ASSIGN
MOVESIZE
      6259**DCL      6258--IMP-SIZ  7955<<ASSIGN   7956>>ASSIGN   7956>>ASSIGN
NEXT_COMMAND IN PROCEDURE READ_DEF_COMMANDS
      7606**LABEL    7385--CALLALT  7386--CALLALT  7389--CALLALT  7390--CALLALT  7393--CALLALT  7394--CALLALT
      7399--CALLALT  7400--CALLALT  7403--CALLALT  7404--CALLALT  7407--CALLALT  7408--CALLALT  7415--CALLALT
      7416--CALLALT  7419--CALLALT  7424--CALLALT  7433--CALLALT  7434--CALLALT  7447--CALLALT  7448--CALLALT
      7491--CALLALT  7495--GOTO     7500--GOTO     7506--GOTO     7644--GOTO
NEXT_FILE IN PROCEDURE PROCESS_ACCOUNT_SPECS
      7933**LABEL    7920--GOTO     7926--GOTO
NEXT_INCL_FILE IN PROCEDURE PROCESS_INCLUDE_SPECS
      7978**LABEL    7951--GOTO     7971--GOTO
NEXT_SRCH_ACCT IN PROCEDURE PROCESS_INCLUDE_SPECS
      7967**LABEL    7964--CALLALT
NOFILES_FLG
      7223**DCL      7351>>IF       7364<<ASSIGN   7378<<ASSIGN   7566<<ASSIGN
NO_INSTALL IN PROCEDURE INSTALL_FILE
      7858**LABEL    7853--CALLALT
NO_MEM IN PROCEDURE GET_CMD_SPACE
PL6.E3A0      #001=IDD$DEF File=IDD$DEF.:E05TSI                                  TUE 07/29/97 22:29 Page:159
      7684**LABEL    7680--CALLALT
NO_MORE IN PROCEDURE READ_DEF_COMMANDS
      7591**LABEL    7589--CALLALT  7598--CALLALT
NXT_ACCT IN PROCEDURE PROCESS_ACCOUNT_SPECS
      7935**LABEL    7909--CALLALT
OUT$
      7214**DCL      6908--IMP-PTR  6954--IMP-PTR  7215--REDEF    7370<>CALL     7371>>DOCASE   7376>>DOINDEX
      7377>>IF       7380>>ASSIGN   7380>>ASSIGN   7386>>CALL     7390>>CALL     7394>>CALL     7397>>ASSIGN
      7400>>CALL     7404>>CALL     7408>>CALL     7416>>CALL     7420>>DOINDEX  7421>>IF       7424>>CALL
      7434>>CALL     7437>>DOINDEX  7438>>CALL     7448>>CALL     7454>>DOINDEX  7455>>CALL     7456>>IF
      7457>>ASSIGN   7458>>ASSIGN   7458>>ASSIGN   7468>>DOINDEX  7469>>CALL     7471>>ASSIGN   7491>>CALL
      7493>>ASSIGN   7498>>ASSIGN   7502>>DOINDEX  7503>>IF       7504>>ASSIGN   7509>>ASSIGN   7520>>DOINDEX
      7521>>ASSIGN   7521>>ASSIGN   7523>>ASSIGN   7528>>DOINDEX  7529>>CALL     7538>>DOINDEX  7539>>IF
      7540>>ASSIGN   7547>>ASSIGN   7547>>ASSIGN   7554>>ASSIGN   7554>>ASSIGN   7556>>ASSIGN   7557>>ASSIGN
      7557>>ASSIGN   7559>>ASSIGN   7560>>ASSIGN   7560>>ASSIGN   7562>>ASSIGN   7562>>ASSIGN   7564>>ASSIGN
      7586>>ASSIGN
OUT$BLK
      6908**DCL      7386<>CALL     7390<>CALL     7394<>CALL     7400<>CALL     7404<>CALL     7408<>CALL
      7416<>CALL     7424<>CALL     7434<>CALL     7438<>CALL     7448<>CALL     7455<>CALL     7469<>CALL
      7491<>CALL     7529<>CALL
OUT$BLK.CODE
      6916**DCL      7371>>DOCASE   7377>>IF       7397>>ASSIGN   7421>>IF       7564>>ASSIGN
OUT$BLK.CPOS
      6934**DCL      7471>>ASSIGN   7493>>ASSIGN   7498>>ASSIGN   7504>>ASSIGN
OUT$BLK.NSUBLKS
      6920**DCL      7376>>DOINDEX  7420>>DOINDEX  7437>>DOINDEX  7454>>DOINDEX  7456>>IF       7468>>DOINDEX
      7502>>DOINDEX  7509>>ASSIGN   7520>>DOINDEX  7523>>ASSIGN   7528>>DOINDEX  7538>>DOINDEX
OUT$BLK.SUBLK$
      6941**DCL      7377>>IF       7380>>ASSIGN   7380>>ASSIGN   7386>>CALL     7390>>CALL     7394>>CALL
      7397>>ASSIGN   7400>>CALL     7404>>CALL     7408>>CALL     7416>>CALL     7421>>IF       7424>>CALL
      7434>>CALL     7438>>CALL     7448>>CALL     7455>>CALL     7455>>CALL     7456>>IF       7457>>ASSIGN
      7457>>ASSIGN   7458>>ASSIGN   7458>>ASSIGN   7458>>ASSIGN   7458>>ASSIGN   7469>>CALL     7471>>ASSIGN
      7491>>CALL     7493>>ASSIGN   7498>>ASSIGN   7503>>IF       7504>>ASSIGN   7521>>ASSIGN   7521>>ASSIGN
      7529>>CALL     7539>>IF       7540>>ASSIGN   7547>>ASSIGN   7547>>ASSIGN   7554>>ASSIGN   7554>>ASSIGN
      7556>>ASSIGN   7557>>ASSIGN   7557>>ASSIGN   7559>>ASSIGN   7560>>ASSIGN   7560>>ASSIGN   7562>>ASSIGN
      7562>>ASSIGN   7564>>ASSIGN   7586>>ASSIGN
PL6.E3A0      #001=IDD$DEF File=IDD$DEF.:E05TSI                                  TUE 07/29/97 22:29 Page:160
OUTBLK IN PROCEDURE BUILD_INCLSPEC
      7789**DCL      7781--PROC     7828<>CALL
OUTBLK.CPOS IN PROCEDURE BUILD_INCLSPEC
      7815**DCL      7830>>ASSIGN
OUTSYM IN PROCEDURE PARSE_FID
      7699**DCL      7690--PROC
OUTSYM.CODE IN PROCEDURE PARSE_FID
      7705**DCL      7761>>IF
OUTSYM.COUNT IN PROCEDURE PARSE_FID
      7722**DCL      7725--IMP-SIZ  7765>>ASSIGN
OUTSYM.CPOS IN PROCEDURE PARSE_FID
      7714**DCL      7776>>ASSIGN
OUTSYM.TEXT IN PROCEDURE PARSE_FID
      7725**DCL      7765--ASSIGN
PARSERR
      7215**DCL      7639<>CALL     7642<>CALL
PARSERR.CODE
      7219**DCL      7634>>IF
PARSERR.MON
      7218**DCL      7633>>IF
PARSE_ERR IN PROCEDURE READ_DEF_COMMANDS
      7632**LABEL    7370--CALLALT
PARSE_FID
      7690**PROC     7386--CALL     7390--CALL     7394--CALL     7400--CALL     7404--CALL     7408--CALL
      7416--CALL     7424--CALL     7434--CALL     7448--CALL     7469--CALL     7491--CALL     7828--CALL
POCMD_FLG
      7222**DCL      7374>>IF       7381<<ASSIGN
PRMPT
      6355**DCL      7370--CALL
PROCESS_ACCOUNT_SPECS
      7893**PROC     7353--CALL
PROCESS_INCLUDE_SPECS
      7940**PROC     7354--CALL
PTCHSKIP IN PROCEDURE READ_DEF_COMMANDS
      7445**LABEL    7438--CALLALT
P_PCB
PL6.E3A0      #001=IDD$DEF File=IDD$DEF.:E05TSI                                  TUE 07/29/97 22:29 Page:161
      6622**DCL      6838--DCLINIT
P_PCB.HI_CHAR
      6773**DCL      7632>>ASSIGN
READ_DEF_COMMANDS
      7359**PROC     7339--CALL
REM_ERR IN PROCEDURE EXIT_DEF
      7667**LABEL    7668--CALLALT
REQUIRED.NUMBER
      7231**DCL      7999>>DOINDEX
REQUIRED.PROCESS.FOUND
      7261**DCL      8000>>IF
REQUIRED.PROCESS.NAME
      7233**DCL      8000>>IF       8001>>CALLBLT  8002<>CALL
REQ_NOT_FOUND IN PROCEDURE WRITE_MISSING_STUFF
      7985**DCL      7998--CALL
SCHEMA_FLAG
      7207**DCL      7422<<ASSIGN
SCHEMA_TBL.CNT
      7263**DCL      7547>>ASSIGN   7548<<ASSIGN   7548>>ASSIGN
SCHEMA_TBL.FCG
      7264**DCL      7547<<ASSIGN
SRCH$ IN PROCEDURE PROCESS_INCLUDE_SPECS
      7941**DCL      7954<<ASSIGN   7958>>DOWHILE  7959>>ASSIGN   7961>>ASSIGN   7963>>ASSIGN   7969<<ASSIGN
      7969>>ASSIGN
SRCHHEAD$
      6316**DCL      7477>>IF       7477<<ASSIGN   7618>>IF       7625<<ASSIGN   7954>>ASSIGN
SRCHSKIP IN PROCEDURE READ_DEF_COMMANDS
      7488**LABEL    7469--CALLALT
SRCHSPEC
      6318**DCL      7475--IF       7485--ASSIGN   7486--ASSIGN   7619--IF       7627--ASSIGN
SRCHSPEC.ACCN
      6320**DCL      7481<<ASSIGN   7622<<ASSIGN   7959>>ASSIGN
SRCHSPEC.ASN
      6322**DCL      7483<<ASSIGN   7624<<ASSIGN   7963>>ASSIGN
SRCHSPEC.FL$
      6319**DCL      7479<<ASSIGN   7484<<ASSIGN   7621<<ASSIGN   7969>>ASSIGN
PL6.E3A0      #001=IDD$DEF File=IDD$DEF.:E05TSI                                  TUE 07/29/97 22:29 Page:162
SRCHSPEC.SN
      6321**DCL      7482<<ASSIGN   7623<<ASSIGN   7961>>ASSIGN
SRCHTAIL$
      6317**DCL      7478>>IF       7479>>ASSIGN   7480<<ASSIGN   7626<<ASSIGN
SYM$BLK.COUNT
      6977**DCL      6980--IMP-SIZ  7380>>ASSIGN   7457>>ASSIGN   7458>>ASSIGN   7503>>IF       7521>>ASSIGN
      7539>>IF       7547>>ASSIGN   7554>>ASSIGN   7556>>ASSIGN   7557>>ASSIGN   7559>>ASSIGN   7560>>ASSIGN
      7562>>ASSIGN
SYM$BLK.CPOS
      6969**DCL      7540>>ASSIGN
SYM$BLK.TEXT
      6980**DCL      7380>>ASSIGN   7458>>ASSIGN   7521>>ASSIGN   7547>>ASSIGN   7554>>ASSIGN   7557>>ASSIGN
      7560>>ASSIGN   7562>>ASSIGN
SYM$BLK.TEXTC$
      6972**DCL      7586>>ASSIGN
TAPEID
      5678**DCL      7608<<CALLBLT  7613<<CALLBLT
TBUF
      5679**DCL      5685--REDEF    7657--CALL     7662--CALL     7664--CALL
TBUF.DATE
      5683**DCL      6595--DCLINIT  6596--DCLINIT
TBUF.TIME
      5681**DCL      6597--DCLINIT  6598--DCLINIT
TBUFR
      5685**DCL      7608>>CALLBLT  7613>>CALLBLT
TEMP
      7209**DCL      7509<<ASSIGN   7510>>IF       7525>>ASSIGN   7526>>ASSIGN   7540<<ASSIGN   7541<>CALL
TYPE1 IN PROCEDURE PROCESS_ACCOUNT_SPECS
      7897**DCL      7898--REDEF    7913<<ASSIGN   7917>>IF
TYPE1A IN PROCEDURE PROCESS_ACCOUNT_SPECS
      7898**DCL      7915>>IF       7916>>IF
TYPE2 IN PROCEDURE PROCESS_ACCOUNT_SPECS
      7899**DCL      7900--REDEF    7914<<ASSIGN   7917>>IF
TYPE2A IN PROCEDURE PROCESS_ACCOUNT_SPECS
      7900**DCL      7915<<ASSIGN   7916<<ASSIGN
VERIFMT IN PROCEDURE EXIT_DEF
PL6.E3A0      #001=IDD$DEF File=IDD$DEF.:E05TSI                                  TUE 07/29/97 22:29 Page:163
      7650**DCL      7662--CALL
VLP_DUMMYFILE
      6495**DCL      6427--DCLINIT
WRITE_MISSING_STUFF
      7983**PROC     7355--CALL
X$WRITE
        63**DCL-ENT  7329--CALL     7657--CALL     7662--CALL     7664--CALL     7906--CALL     7944--CALL
      7986--CALL     7998--CALL
X1
      6339**DCL      6340--REDEF
XDLT
      6011**DCL      7419<>CALL     7425<<ASSIGN
XDLT.ACCN
      6018**DCL      7429>>ASSIGN
XDLT.RESULT.ACCN
      6027**DCL      7430>>ASSIGN
XDLTLS
      6063**DCL      7433<>CALL     7435<<ASSIGN
XDLTLS.ACCN
      6070**DCL      7429<<ASSIGN
XDLTLS.FLAGS.CMD
      6091**DCL      7428>>IF
XDLTLS.RESULT.ACCN
      6079**DCL      7430<<ASSIGN
XINSTALL
      6219**DCL      7447<>CALL     7449<<ASSIGN   7853<>CALL     7854<>CALL
XINSTALL.ASFILE.C
      6256**DCL      7451<<ASSIGN
XINSTALL.ASFILE.L
      6255**DCL      7450<<ASSIGN
XTX$ADAPT
      6820**DCL-ENT  6899--DCLINIT
XUH_PARAM
      7118**DCL      7587<>CALL     7589<>CALL     7598<>CALL
XUH_PARAM.HELP$
      7128**DCL      7586<<ASSIGN
PL6.E3A0      #001=IDD$DEF File=IDD$DEF.:E05TSI                                  TUE 07/29/97 22:29 Page:164
XUR$ALLMSG
        47**DCL-ENT  7598--CALL
XUR$CLOSE_DCBS
        39**DCL-ENT  7600--CALL     7665--CALL
XUR$ERRMSG
        36**DCL-ENT  8040--CALL     8044--CALL
XUR$ERRPTR
        29**DCL-ENT  8037--CALL
XUR$GETCMD
        28**DCL-ENT  7370--CALL
XUR$HELP
        45**DCL-ENT  7587--CALL
XUR$INIT
        33**DCL-ENT  7316--CALL
XUR$MOREMSG
        46**DCL-ENT  7589--CALL
XUR_INIT
      6825**DCL      7316<>CALL
XUR_INIT.WORKR_
      6839**DCL      6840--REDEF
XXXFMT IN PROCEDURE EXIT_DEF
      7652**DCL      7657--CALL

