VERSION E05

PL6.E3A0      #001=IDE$WRTCOLUMN File=IDE$MISC.:E05TSI                           TUE 07/29/97 22:29 Page:1
        1        1        /*T***********************************************************/
        2        2        /*T*                                                         */
        3        3        /*T* Copyright (c) Bull HN Information Systems Inc., 1997    */
        4        4        /*T*                                                         */
        5        5        /*T***********************************************************/
        6        6        /* IDE$MISC - MISCELLANEOUS ROUTINES FOR DEF */
        7        7        IDE$WRTCOLUMN: PROC(TEXT,TSIZ,CLMN);
        8        8        /**/
        9        9    1   DCL TEXT CHAR(TSIZ);
       10       10    1   DCL TSIZ SBIN;
       11       11    1   DCL CLMN SBIN;
       12       12        /**/
       13       13    1   DCL M$LO DCB;
       14       14    1   DCL M$LO$ PTR;
       15       15        %INCLUDE CP_6;
       16       96        %INCLUDE CP_6_SUBS;
       17      636        %FPT_WRITE (DCB=M$LO,VFC=YES,WAIT=YES);
       18      667    1   DCL CARRIER SBIN STATIC INIT(1);
       19      668    1   DCL BUF(0:132) CHAR(1) STATIC;
       20      669    1   DCL BUFC REDEF BUF CHAR(133);
       21      670    1   DCL MOVEBASE CHAR(TMP) BASED;
       22      671    1   DCL TMP SBIN;
       23      672    1   DCL WIDTH SBIN;
       24      673        %INCLUDE F$DCB;
       25      722        /**/
       26      723    1           TMP=TSIZ+CLMN-MOD(TSIZ,CLMN);
       27      724    1           M$LO$=DCBADDR(DCBNUM(M$LO));
       28      725    1           IF M$LO$->F$DCB.WIDTH=0 THEN WIDTH=72;
       29      726    1           ELSE WIDTH=M$LO$->F$DCB.WIDTH;
       30      727    1           IF WIDTH>132 THEN WIDTH=132;
       31      728    1           IF CARRIER+TSIZ>WIDTH THEN CALL IDE$FLUSH;
       32      729    1           ADDR(BUF(CARRIER))->MOVEBASE=TEXT;
       33      730    1           CARRIER=CARRIER+TMP;
       34      731    1           IF CARRIER>WIDTH THEN CARRIER=WIDTH;
       35      732    1           RETURN;
       36      733        /**/
       37      734    1   IDE$FLUSH: ENTRY;
PL6.E3A0      #001=IDE$WRTCOLUMN File=IDE$MISC.:E05TSI                           TUE 07/29/97 22:29 Page:2
       38      735    1           IF CARRIER=1 THEN RETURN;
       39      736    1           BUF(0)='A';
       40      737    1           FPT_WRITE.BUF_=VECTOR(BUF);
       41      738    1           FPT_WRITE.BUF_.BOUND=CARRIER-1;
       42      739    1           CALL M$WRITE(FPT_WRITE);
       43      740    1           CARRIER=1;
       44      741    1           RETURN;
       45      742    1   END IDE$WRTCOLUMN;
       46      743        %EOD;

PL6.E3A0      #001=IDE$WRTCOLUMN File=IDE$MISC.:E05TSI                           TUE 07/29/97 22:29 Page:3
--  Include file information  --

   F$DCB.:E05TOU  cannot be made into a system file and is referenced.
   CP_6_SUBS.:E05TOU  is referenced.
   CP_6.:E05TOU  cannot be made into a system file and is referenced.
   B$JIT_C.:E05TOU  was found in the system file and is never referenced.
   CP_6_C.:E05TOU  was found in the system file and is referenced.
      No diagnostics issued in procedure IDE$WRTCOLUMN.

   Procedure IDE$WRTCOLUMN requires 78 words for executable code.
   Procedure IDE$WRTCOLUMN requires 12 words of local(AUTO) storage.

PL6.E3A0      #001=IDE$WRTCOLUMN File=IDE$MISC.:E05TSI                           TUE 07/29/97 22:29 Page:4

 Object Unit name= IDE$WRTCOLUMN                              File name= IDE$MISC.:E05TOU
 UTS= JUL 29 '97 22:29:18.72 TUE                              Compiler= PL-6/E31         Sev=      00
 SharedLib= :SHARED_SYSTEM                                    Alt SharedLib=


    ****  Control sections  ****

 Sect   Type Bound  Init  Size OctSiz  Section name(segment info)
    0   DCB   even  none     0      0  M$LO
    1   DCB   even  none     0      0  M$UC
    2   Data  even  none    47     57  IDE$WRTCOLUMN
    3   Proc  even  none    78    116  IDE$WRTCOLUMN
    4  RoData even  none     4      4  IDE$WRTCOLUMN

    ****  Entry defs  ****

                              Check   Calling
                             calling  sequence
  Sect OctLoc Primary Altret sequence   type   Parms  Name
     3      0   yes            yes      Std        3  IDE$WRTCOLUMN
     3     70                  yes      Std        0  IDE$FLUSH

  ****  Entry refs  ****

         Check        Calling
        calling       sequence
Altret sequence SRef   type   Args  Name
                       nStd      0 X66_AUTO_3
                       Std       0 B_CONSPOOL_D
                       nStd      0 X66_ARET

  ****  Data refs  ****

  Flags:  r = read only, s = secondary
Flgs Name                             Flgs Name                             Flgs Name
     M$LO                                  M$UC                                  B_VECTNIL
PL6.E3A0      #001=IDE$WRTCOLUMN File=IDE$MISC.:E05TSI                           TUE 07/29/97 22:29 Page:5

  ****  Segment refs  ****

  Flags:  r = read only, s = secondary
Flgs Name                             Flgs Name                             Flgs Name
     ISSID                                 NULLSID                               ROSID
PL6.E3A0      #001=IDE$WRTCOLUMN File=IDE$MISC.:E05TSI                           TUE 07/29/97 22:29 Page:6


        1        1        /*T***********************************************************/
        2        2        /*T*                                                         */
        3        3        /*T* Copyright (c) Bull HN Information Systems Inc., 1997    */
        4        4        /*T*                                                         */
        5        5        /*T***********************************************************/
        6        6        /* IDE$MISC - MISCELLANEOUS ROUTINES FOR DEF */
        7        7        IDE$WRTCOLUMN: PROC(TEXT,TSIZ,CLMN);

      7  3 000000   000000 700200 xent  IDE$WRTCOLU* TSX0  ! X66_AUTO_3
         3 000001   000014 000003                    ZERO    12,3

        8        8        /**/
        9        9    1   DCL TEXT CHAR(TSIZ);
       10       10    1   DCL TSIZ SBIN;
       11       11    1   DCL CLMN SBIN;
       12       12        /**/
       13       13    1   DCL M$LO DCB;
       14       14    1   DCL M$LO$ PTR;
       15       15        %INCLUDE CP_6;
       16       96        %INCLUDE CP_6_SUBS;
       17      636        %FPT_WRITE (DCB=M$LO,VFC=YES,WAIT=YES);
       18      667    1   DCL CARRIER SBIN STATIC INIT(1);
       19      668    1   DCL BUF(0:132) CHAR(1) STATIC;
       20      669    1   DCL BUFC REDEF BUF CHAR(133);
       21      670    1   DCL MOVEBASE CHAR(TMP) BASED;
       22      671    1   DCL TMP SBIN;
       23      672    1   DCL WIDTH SBIN;
       24      673        %INCLUDE F$DCB;
       25      722        /**/
       26      723    1           TMP=TSIZ+CLMN-MOD(TSIZ,CLMN);

    723  3 000002   200004 470500                    LDP0    @TSIZ,,AUTO
         3 000003   200005 471500                    LDP1    @CLMN,,AUTO
         3 000004   000000 236100                    LDQ     0,,PR0
         3 000005   100000 036100                    ADLQ    0,,PR1
         3 000006   200012 756100                    STQ     WIDTH+2,,AUTO
PL6.E3A0      #001=IDE$WRTCOLUMN File=IDE$MISC.:E05TSI                           TUE 07/29/97 22:29 Page:7
         3 000007   000000 236100                    LDQ     0,,PR0
         3 000010   100000 506100                    DIV     0,,PR1
         3 000011   200013 755100                    STA     WIDTH+3,,AUTO
         3 000012   200012 236100                    LDQ     WIDTH+2,,AUTO
         3 000013   200013 136100                    SBLQ    WIDTH+3,,AUTO
         3 000014   200007 756100                    STQ     TMP,,AUTO

       27      724    1           M$LO$=DCBADDR(DCBNUM(M$LO));

    724  3 000015   000000 236007 xsym               LDQ     M$LO,DL
         3 000016   000000 473400 4                  LDP3    0
         3 000017   300000 474500                    LDP4    0,,PR3
         3 000020   400000 236106                    LDQ     0,QL,PR4
         3 000021   200006 756100                    STQ     M$LO$,,AUTO

       28      725    1           IF M$LO$->F$DCB.WIDTH=0 THEN WIDTH=72;

    725  3 000022   200006 475500                    LDP5    M$LO$,,AUTO
         3 000023   500004 236100                    LDQ     4,,PR5
         3 000024   000777 316007                    CANQ    511,DL
         3 000025   000031 601000 3                  TNZ     s:726

    725  3 000026   000110 235007                    LDA     72,DL
         3 000027   200010 755100                    STA     WIDTH,,AUTO
         3 000030   000034 710000 3                  TRA     s:727

       29      726    1           ELSE WIDTH=M$LO$->F$DCB.WIDTH;

    726  3 000031   500004 236100                    LDQ     4,,PR5
         3 000032   000777 376007                    ANQ     511,DL
         3 000033   200010 756100                    STQ     WIDTH,,AUTO

       30      727    1           IF WIDTH>132 THEN WIDTH=132;

    727  3 000034   200010 235100                    LDA     WIDTH,,AUTO
         3 000035   000204 115007                    CMPA    132,DL
         3 000036   000041 604400 3                  TMOZ    s:728
PL6.E3A0      #001=IDE$WRTCOLUMN File=IDE$MISC.:E05TSI                           TUE 07/29/97 22:29 Page:8

    727  3 000037   000204 236007                    LDQ     132,DL
         3 000040   200010 756100                    STQ     WIDTH,,AUTO

       31      728    1           IF CARRIER+TSIZ>WIDTH THEN CALL IDE$FLUSH;

    728  3 000041   000014 236000 2                  LDQ     CARRIER
         3 000042   000000 036100                    ADLQ    0,,PR0
         3 000043   200010 116100                    CMPQ    WIDTH,,AUTO
         3 000044   000050 604400 3                  TMOZ    s:729

    728  3 000045   000002 631400 xsym               EPPR1   B_VECTNIL+2
         3 000046   000070 701000 3                  TSX1    s:734
         3 000047   000000 011000                    NOP     0

       32      729    1           ADDR(BUF(CARRIER))->MOVEBASE=TEXT;

    729  3 000050   200004 470500                    LDP0    @TSIZ,,AUTO
         3 000051   000000 720100                    LXL0    0,,PR0
         3 000052   200003 471500                    LDP1    @TEXT,,AUTO
         3 000053   200007 721100                    LXL1    TMP,,AUTO
         3 000054   000014 235000 2                  LDA     CARRIER
         3 000055   040045 100540                    MLR     fill='040'O
         3 000056   100000 000010                    ADSC9   0,,PR1                   cn=0,n=*X0
         3 000057   000015 000011 2                  ADSC9   BUF,A                    cn=0,n=*X1

       33      730    1           CARRIER=CARRIER+TMP;

    730  3 000060   000014 236000 2                  LDQ     CARRIER
         3 000061   200007 036100                    ADLQ    TMP,,AUTO
         3 000062   000014 756000 2                  STQ     CARRIER

       34      731    1           IF CARRIER>WIDTH THEN CARRIER=WIDTH;

    731  3 000063   200010 116100                    CMPQ    WIDTH,,AUTO
         3 000064   000067 604400 3                  TMOZ    s:732

PL6.E3A0      #001=IDE$WRTCOLUMN File=IDE$MISC.:E05TSI                           TUE 07/29/97 22:29 Page:9
    731  3 000065   200010 235100                    LDA     WIDTH,,AUTO
         3 000066   000014 755000 2                  STA     CARRIER

       35      732    1           RETURN;

    732  3 000067   000000 702200 xent               TSX2  ! X66_ARET

       36      733        /**/
       37      734    1   IDE$FLUSH: ENTRY;

    734  3 000070   000000 700200 xent  IDE$FLUSH    TSX0  ! X66_AUTO_3
         3 000071   000014 000003                    ZERO    12,3

       38      735    1           IF CARRIER=1 THEN RETURN;

    735  3 000072   000014 235000 2                  LDA     CARRIER
         3 000073   000001 115007                    CMPA    1,DL
         3 000074   000076 601000 3                  TNZ     s:736

    735  3 000075   000000 702200 xent               TSX2  ! X66_ARET

       39      736    1           BUF(0)='A';

    736  3 000076   101000 236003                    LDQ     33280,DU
         3 000077   000015 552040 2                  STBQ    BUF,'40'O

       40      737    1           FPT_WRITE.BUF_=VECTOR(BUF);

    737  3 000100   000002 237000 4                  LDAQ    2
         3 000101   000004 757000 2                  STAQ    FPT_WRITE+4

       41      738    1           FPT_WRITE.BUF_.BOUND=CARRIER-1;

    738  3 000102   000014 236000 2                  LDQ     CARRIER
         3 000103   000001 136007                    SBLQ    1,DL
         3 000104   000020 736000                    QLS     16
         3 000105   000004 676000 2                  ERQ     FPT_WRITE+4
PL6.E3A0      #001=IDE$WRTCOLUMN File=IDE$MISC.:E05TSI                           TUE 07/29/97 22:29 Page:10
         3 000106   000034 376000 xsym               ANQ     B_VECTNIL+28
         3 000107   000004 656000 2                  ERSQ    FPT_WRITE+4

       42      739    1           CALL M$WRITE(FPT_WRITE);

    739  3 000110   000000 630400 2                  EPPR0   FPT_WRITE
         3 000111   040001 713400                    CLIMB   write
         3 000112   401400 401760                    pmme    nvectors=4

       43      740    1           CARRIER=1;

    740  3 000113   000001 235007                    LDA     1,DL
         3 000114   000014 755000 2                  STA     CARRIER

       44      741    1           RETURN;

    741  3 000115   000000 702200 xent               TSX2  ! X66_ARET
       45      742    1   END IDE$WRTCOLUMN;
       46      743        %EOD;

PL6.E3A0      #001=IDE$WRTCOLUMN File=IDE$MISC.:E05TSI                           TUE 07/29/97 22:29 Page:11
--  Include file information  --

   F$DCB.:E05TOU  cannot be made into a system file and is referenced.
   CP_6_SUBS.:E05TOU  is referenced.
   CP_6.:E05TOU  cannot be made into a system file and is referenced.
   B$JIT_C.:E05TOU  was found in the system file and is never referenced.
   CP_6_C.:E05TOU  was found in the system file and is referenced.
      No diagnostics issued in procedure IDE$WRTCOLUMN.
PL6.E3A0      #001=IDE$WRTCOLUMN File=IDE$MISC.:E05TSI                           TUE 07/29/97 22:29 Page:12

 **** Variables and constants ****

  ****  Section 002  Data  IDE$WRTCOLUMN

  ****  Scalars and arrays  ****
OctLoc.c.b A Datatyp(siz) R M Lvl/name                 OctLoc.c.b A Datatyp(siz) R M Lvl/name

    15-0-0/c CHAR        r     1 BUF(0:132)                14-0-0/w SBIN        r     1 CARRIER
     0-0-0/d STRC(432)   r     1 FPT_WRITE

  ****  Auto variables  ****

  ****  Scalars and arrays  ****
OctLoc.c.b A Datatyp(siz) R M Lvl/name                 OctLoc.c.b A Datatyp(siz) R M Lvl/name

     5-0-0/w PTR         r     1 @CLMN                      3-0-0/w PTR         r     1 @TEXT
     4-0-0/w PTR         r     1 @TSIZ                     *0-0-0/w SBIN        r     1 CLMN
     6-0-0/w PTR         r     1 M$LO$                     *0-0-0/c ACHR        r     1 TEXT
     7-0-0/w SBIN        r     1 TMP                       *0-0-0/w SBIN        r     1 TSIZ
    10-0-0/w SBIN        r     1 WIDTH

  ****  BASED and DCB variables  ****

  ****  Scalars and arrays  ****
OctLoc.c.b A Datatyp(siz) R M Lvl/name                 OctLoc.c.b A Datatyp(siz) R M Lvl/name

     0-0-0/d ASTR(3528)  r     1 F$DCB                      0-0-0N  NULL        r     1 M$LO
     0-0-0/c ACHR        r     1 MOVEBASE


   Procedure IDE$WRTCOLUMN requires 78 words for executable code.
   Procedure IDE$WRTCOLUMN requires 12 words of local(AUTO) storage.
PL6.E3A0      #001=IDE$WRTCOLUMN File=IDE$MISC.:E05TSI                           TUE 07/29/97 22:29 Page:13
          *** CROSS REFERENCE LISTING ***
**     DENOTES     IDENTIFIER DEFINITION
<<                 IDENTIFIER'S VALUE SET
>>                 IDENTIFIER'S VALUE USED
<>                 IDENTIFIER SET AND/OR USED
--                 IDENTIFIER REFERENCED
PL6.E3A0      #001=IDE$WRTCOLUMN File=IDE$MISC.:E05TSI                           TUE 07/29/97 22:29 Page:14
          MINI XREF LISTING

BUF
       668**DCL       669--REDEF     729--ASSIGN    736<<ASSIGN    737--ASSIGN
CARRIER
       667**DCL       728>>IF        729>>ASSIGN    730<<ASSIGN    730>>ASSIGN    731>>IF        731<<ASSIGN
       735>>IF        738>>ASSIGN    740<<ASSIGN
CLMN
        11**DCL         7--PROC      723>>ASSIGN    723>>ASSIGN
F$DCB.ACTPOS
       699**DCL       699--REDEF
F$DCB.ARS
       674**DCL       674--REDEF
F$DCB.ATTR
       692**DCL       693--REDEF
F$DCB.BORROW
       707**DCL       707--REDEF     707--REDEF     707--REDEF
F$DCB.DCBNAME.L
       721**DCL       721--IMP-SIZ
F$DCB.EOMCHAR
       678**DCL       678--REDEF
F$DCB.FLDID
       702**DCL       702--REDEF
F$DCB.FORM$
       696**DCL       696--REDEF
F$DCB.FSECT
       712**DCL       712--REDEF
F$DCB.FSN
       689**DCL       689--REDEF     689--REDEF     690--REDEF
F$DCB.HEADER$
       695**DCL       695--REDEF
F$DCB.IXTNSIZE
       693**DCL       693--REDEF
F$DCB.LASTSTA$
PL6.E3A0      #001=IDE$WRTCOLUMN File=IDE$MISC.:E05TSI                           TUE 07/29/97 22:29 Page:15
       683**DCL       683--REDEF
F$DCB.LVL
       708**DCL       708--REDEF
F$DCB.NAME.C
       683**DCL       683--REDEF
F$DCB.NOEOF
       704**DCL       704--REDEF
F$DCB.NRECS
       694**DCL       694--REDEF
F$DCB.NRECX
       713**DCL       713--REDEF
F$DCB.OHDR
       705**DCL       705--REDEF
F$DCB.ORG
       688**DCL       688--REDEF
F$DCB.PRECNO
       711**DCL       711--REDEF
F$DCB.RCSZ
       716**DCL       716--REDEF
F$DCB.RES
       684**DCL       684--REDEF
F$DCB.SETX
       696**DCL       696--REDEF
F$DCB.TAB$
       695**DCL       696--REDEF
F$DCB.TDA
       710**DCL       710--REDEF
F$DCB.WIDTH
       681**DCL       725>>IF        726>>ASSIGN
F$DCB.WSN
       685**DCL       685--REDEF
FPT_WRITE
       653**DCL       739<>CALL
FPT_WRITE.BUF_
       653**DCL       737<<ASSIGN
FPT_WRITE.BUF_.BOUND
PL6.E3A0      #001=IDE$WRTCOLUMN File=IDE$MISC.:E05TSI                           TUE 07/29/97 22:29 Page:16
       653**DCL       738<<ASSIGN
FPT_WRITE.STATION_
       655**DCL       655--REDEF
FPT_WRITE.V
       656**DCL       653--DCLINIT
FPT_WRITE.V.DVBYTE.VFC#
       662**DCL       662--REDEF
IDE$FLUSH
       734**ENTRY     728--CALL
M$LO
        13**DCL       724--ASSIGN
M$LO$
        14**DCL       724<<ASSIGN    725>>IF        726>>ASSIGN
M$WRITE
        25**DCL-ENT   739--CALL
MOVEBASE
       670**DCL       729<<ASSIGN
TEXT
         9**DCL         7--PROC      729>>ASSIGN
TMP
       671**DCL       670--IMP-SIZ   723<<ASSIGN    729>>ASSIGN    730>>ASSIGN
TSIZ
        10**DCL         7--PROC        9--IMP-SIZ   723>>ASSIGN    723>>ASSIGN    728>>IF        729>>ASSIGN
WIDTH
       672**DCL       725<<ASSIGN    726<<ASSIGN    727>>IF        727<<ASSIGN    728>>IF        731>>IF
       731>>ASSIGN

PL6.E3A0      #002=IDE$FILE File=IDE$MISC.:E05TSI                                TUE 07/29/97 22:29 Page:17
       47        1        /*T***********************************************************/
       48        2        /*T*                                                         */
       49        3        /*T* Copyright (c) Bull HN Information Systems Inc., 1997    */
       50        4        /*T*                                                         */
       51        5        /*T***********************************************************/
       52        6        IDE$FILE: PROC(DCB#);
       53        7        /**/
       54        8    1   DCL DCB# SBIN;
       55        9        /**/
       56       10    1   DCL BUF(0:50) CHAR(1);
       57       11    1   DCL BUFC REDEF BUF CHAR(51);
       58       12    1   DCL TMP SBIN;
       59       13    1   DCL ACCTBASE CHAR(8) BASED;
       60       14    1   DCL IDE$WRTCOLUMN ENTRY(3);
       61       15        %INCLUDE F$DCB;
       62       64        /**/
       63       65    1           TMP=DCBADDR(DCB#)->F$DCB.NAME.L;
       64       66    1           BUFC=DCBADDR(DCB#)->F$DCB.NAME.C;
       65       67    1           CALL IDE$WRTCOLUMN(BUF,TMP,12);
       66       68    1           RETURN;
       67       69        /**/
       68       70    1   IDE$FILEACCT: ENTRY(DCB#);
       69       71    1           BUFC=DCBADDR(DCB#)->F$DCB.NAME.C;
       70       72    1           TMP=DCBADDR(DCB#)->F$DCB.NAME.L;
       71       73    1           BUF(TMP)='.';
       72       74    1           ADDR(BUF(TMP+1))->ACCTBASE=DCBADDR(DCB#)->F$DCB.ACCT;
       73       75    1           CALL INDEX(TMP,' ',BUFC);
       74       76    1           CALL IDE$WRTCOLUMN(BUF,TMP,20);
       75       77    1           RETURN;
       76       78    1   END IDE$FILE;
       77       79        %EOD;

PL6.E3A0      #002=IDE$FILE File=IDE$MISC.:E05TSI                                TUE 07/29/97 22:29 Page:18
--  Include file information  --

   F$DCB.:E05TOU  cannot be made into a system file and is referenced.
   B$JIT_C.:E05TOU  was found in the system file and is never referenced.
   CP_6_C.:E05TOU  was found in the system file and is never referenced.
      No diagnostics issued in procedure IDE$FILE.

   Procedure IDE$FILE requires 65 words for executable code.
   Procedure IDE$FILE requires 22 words of local(AUTO) storage.

PL6.E3A0      #002=IDE$FILE File=IDE$MISC.:E05TSI                                TUE 07/29/97 22:29 Page:19

 Object Unit name= IDE$FILE                                   File name= IDE$MISC.:E05TOU
 UTS= JUL 29 '97 22:29:46.48 TUE                              Compiler= PL-6/E31         Sev=      00
 SharedLib= :SHARED_SYSTEM                                    Alt SharedLib=


    ****  Control sections  ****

 Sect   Type Bound  Init  Size OctSiz  Section name(segment info)
    0   Proc  even  none    65    101  IDE$FILE
    1  RoData even  none     6      6  IDE$FILE

    ****  Entry defs  ****

                              Check   Calling
                             calling  sequence
  Sect OctLoc Primary Altret sequence   type   Parms  Name
     0      0   yes            yes      Std        1  IDE$FILE
     0     32                  yes      Std        1  IDE$FILEACCT

  ****  Entry refs  ****

         Check        Calling
        calling       sequence
Altret sequence SRef   type   Args  Name
         yes           Std       3 IDE$WRTCOLUMN
                       nStd      0 X66_AUTO_1
                       Std       0 B_CONSPOOL_D
                       nStd      0 X66_ARET

  ****  Data refs  ****

  Flags:  r = read only, s = secondary
Flgs Name                             Flgs Name                             Flgs Name
     B_VECTNIL
PL6.E3A0      #002=IDE$FILE File=IDE$MISC.:E05TSI                                TUE 07/29/97 22:29 Page:20

  ****  Segment refs  ****

  Flags:  r = read only, s = secondary
Flgs Name                             Flgs Name                             Flgs Name
     ROSID                                 ISSID
PL6.E3A0      #002=IDE$FILE File=IDE$MISC.:E05TSI                                TUE 07/29/97 22:29 Page:21


       47        1        /*T***********************************************************/
       48        2        /*T*                                                         */
       49        3        /*T* Copyright (c) Bull HN Information Systems Inc., 1997    */
       50        4        /*T*                                                         */
       51        5        /*T***********************************************************/
       52        6        IDE$FILE: PROC(DCB#);

      6  0 000000   000000 700200 xent  IDE$FILE     TSX0  ! X66_AUTO_1
         0 000001   000026 000001                    ZERO    22,1

       53        7        /**/
       54        8    1   DCL DCB# SBIN;
       55        9        /**/
       56       10    1   DCL BUF(0:50) CHAR(1);
       57       11    1   DCL BUFC REDEF BUF CHAR(51);
       58       12    1   DCL TMP SBIN;
       59       13    1   DCL ACCTBASE CHAR(8) BASED;
       60       14    1   DCL IDE$WRTCOLUMN ENTRY(3);
       61       15        %INCLUDE F$DCB;
       62       64        /**/
       63       65    1           TMP=DCBADDR(DCB#)->F$DCB.NAME.L;

     65  0 000002   000000 470400 1                  LDP0    0
         0 000003   000000 471500                    LDP1    0,,PR0
         0 000004   200003 473500                    LDP3    @DCB#,,AUTO
         0 000005   300000 720100                    LXL0    0,,PR3
         0 000006   100000 474510                    LDP4    0,X0,PR1
         0 000007   400010 236100                    LDQ     8,,PR4
         0 000010   000033 772000                    QRL     27
         0 000011   200021 756100                    STQ     TMP,,AUTO

       64       66    1           BUFC=DCBADDR(DCB#)->F$DCB.NAME.C;

     66  0 000012   300000 720100                    LXL0    0,,PR3
         0 000013   100000 474510                    LDP4    0,X0,PR1
         0 000014   040100 100500                    MLR     fill='040'O
PL6.E3A0      #002=IDE$FILE File=IDE$MISC.:E05TSI                                TUE 07/29/97 22:29 Page:22
         0 000015   400010 200037                    ADSC9   8,,PR4                   cn=1,n=31
         0 000016   200004 000063                    ADSC9   BUF,,AUTO                cn=0,n=51

       65       67    1           CALL IDE$WRTCOLUMN(BUF,TMP,12);

     67  0 000017   000002 236000 1                  LDQ     2
         0 000020   200024 756100                    STQ     TMP+3,,AUTO
         0 000021   200021 634500                    EPPR4   TMP,,AUTO
         0 000022   200023 454500                    STP4    TMP+2,,AUTO
         0 000023   200004 635500                    EPPR5   BUF,,AUTO
         0 000024   200022 455500                    STP5    TMP+1,,AUTO
         0 000025   200022 630500                    EPPR0   TMP+1,,AUTO
         0 000026   000021 631400 xsym               EPPR1   B_VECTNIL+17
         0 000027   000000 701000 xent               TSX1    IDE$WRTCOLUMN
         0 000030   000000 011000                    NOP     0

       66       68    1           RETURN;

     68  0 000031   000000 702200 xent               TSX2  ! X66_ARET

       67       69        /**/
       68       70    1   IDE$FILEACCT: ENTRY(DCB#);

     70  0 000032   000000 700200 xent  IDE$FILEACCT TSX0  ! X66_AUTO_1
         0 000033   000026 000001                    ZERO    22,1

       69       71    1           BUFC=DCBADDR(DCB#)->F$DCB.NAME.C;

     71  0 000034   000000 470400 1                  LDP0    0
         0 000035   000000 471500                    LDP1    0,,PR0
         0 000036   200003 473500                    LDP3    @DCB#,,AUTO
         0 000037   300000 720100                    LXL0    0,,PR3
         0 000040   100000 474510                    LDP4    0,X0,PR1
         0 000041   040100 100500                    MLR     fill='040'O
         0 000042   400010 200037                    ADSC9   8,,PR4                   cn=1,n=31
         0 000043   200004 000063                    ADSC9   BUF,,AUTO                cn=0,n=51

PL6.E3A0      #002=IDE$FILE File=IDE$MISC.:E05TSI                                TUE 07/29/97 22:29 Page:23
       70       72    1           TMP=DCBADDR(DCB#)->F$DCB.NAME.L;

     72  0 000044   300000 720100                    LXL0    0,,PR3
         0 000045   100000 474510                    LDP4    0,X0,PR1
         0 000046   400010 236100                    LDQ     8,,PR4
         0 000047   000033 772000                    QRL     27
         0 000050   200021 756100                    STQ     TMP,,AUTO

       71       73    1           BUF(TMP)='.';

     73  0 000051   040106 100400                    MLR     fill='040'O
         0 000052   000003 000001 1                  ADSC9   3                        cn=0,n=1
         0 000053   200004 000001                    ADSC9   BUF,Q,AUTO               cn=0,n=1

       72       74    1           ADDR(BUF(TMP+1))->ACCTBASE=DCBADDR(DCB#)->F$DCB.ACCT;

     74  0 000054   300000 720100                    LXL0    0,,PR3
         0 000055   100000 474510                    LDP4    0,X0,PR1
         0 000056   200021 235100                    LDA     TMP,,AUTO
         0 000057   040105 100500                    MLR     fill='040'O
         0 000060   400020 000010                    ADSC9   16,,PR4                  cn=0,n=8
         0 000061   200004 200010                    ADSC9   BUF,A,AUTO               cn=1,n=8

       73       75    1           CALL INDEX(TMP,' ',BUFC);

     75  0 000062   000000 124500                    SCM     mask='000'O
         0 000063   200004 000063                    ADSC9   BUF,,AUTO                cn=0,n=51
         0 000064   000035 000001 xsym               ADSC9   B_VECTNIL+29             cn=0,n=1
         0 000065   200021 000100                    ARG     TMP,,AUTO

       74       76    1           CALL IDE$WRTCOLUMN(BUF,TMP,20);

     76  0 000066   000005 236000 1                  LDQ     5
         0 000067   200024 756100                    STQ     TMP+3,,AUTO
         0 000070   200021 634500                    EPPR4   TMP,,AUTO
         0 000071   200023 454500                    STP4    TMP+2,,AUTO
         0 000072   200004 635500                    EPPR5   BUF,,AUTO
PL6.E3A0      #002=IDE$FILE File=IDE$MISC.:E05TSI                                TUE 07/29/97 22:29 Page:24
         0 000073   200022 455500                    STP5    TMP+1,,AUTO
         0 000074   200022 630500                    EPPR0   TMP+1,,AUTO
         0 000075   000021 631400 xsym               EPPR1   B_VECTNIL+17
         0 000076   000000 701000 xent               TSX1    IDE$WRTCOLUMN
         0 000077   000000 011000                    NOP     0

       75       77    1           RETURN;

     77  0 000100   000000 702200 xent               TSX2  ! X66_ARET
       76       78    1   END IDE$FILE;
       77       79        %EOD;

PL6.E3A0      #002=IDE$FILE File=IDE$MISC.:E05TSI                                TUE 07/29/97 22:29 Page:25
--  Include file information  --

   F$DCB.:E05TOU  cannot be made into a system file and is referenced.
   B$JIT_C.:E05TOU  was found in the system file and is never referenced.
   CP_6_C.:E05TOU  was found in the system file and is never referenced.
      No diagnostics issued in procedure IDE$FILE.
PL6.E3A0      #002=IDE$FILE File=IDE$MISC.:E05TSI                                TUE 07/29/97 22:29 Page:26

 **** Variables and constants ****

  ****  Auto variables  ****

  ****  Scalars and arrays  ****
OctLoc.c.b A Datatyp(siz) R M Lvl/name                 OctLoc.c.b A Datatyp(siz) R M Lvl/name

     3-0-0/w PTR         r     1 @DCB#                      4-0-0/c CHAR        r     1 BUF(0:50)
     4-0-0/c CHAR(51)    r     1 BUFC                      *0-0-0/w SBIN        r     1 DCB#
    21-0-0/w SBIN        r     1 TMP

  ****  BASED and DCB variables  ****

  ****  Scalars and arrays  ****
OctLoc.c.b A Datatyp(siz) R M Lvl/name                 OctLoc.c.b A Datatyp(siz) R M Lvl/name

     0-0-0/c CHAR(8)     r     1 ACCTBASE                   0-0-0/d ASTR(3528)  r     1 F$DCB


   Procedure IDE$FILE requires 65 words for executable code.
   Procedure IDE$FILE requires 22 words of local(AUTO) storage.
PL6.E3A0      #002=IDE$FILE File=IDE$MISC.:E05TSI                                TUE 07/29/97 22:29 Page:27
          *** CROSS REFERENCE LISTING ***
**     DENOTES     IDENTIFIER DEFINITION
<<                 IDENTIFIER'S VALUE SET
>>                 IDENTIFIER'S VALUE USED
<>                 IDENTIFIER SET AND/OR USED
--                 IDENTIFIER REFERENCED
PL6.E3A0      #002=IDE$FILE File=IDE$MISC.:E05TSI                                TUE 07/29/97 22:29 Page:28
          MINI XREF LISTING

ACCTBASE
        13**DCL        74<<ASSIGN
BUF
        10**DCL        11--REDEF      67<>CALL       73<<ASSIGN     74--ASSIGN     76<>CALL
BUFC
        11**DCL        66<<ASSIGN     71<<ASSIGN     75>>CALLBLT
DCB#
         8**DCL         6--PROC       65--ASSIGN     66--ASSIGN     70--ENTRY      71--ASSIGN     72--ASSIGN
        74--ASSIGN
F$DCB.ACCT
        26**DCL        74>>ASSIGN
F$DCB.ACTPOS
        41**DCL        41--REDEF
F$DCB.ARS
        16**DCL        16--REDEF
F$DCB.ATTR
        34**DCL        35--REDEF
F$DCB.BORROW
        49**DCL        49--REDEF      49--REDEF      49--REDEF
F$DCB.DCBNAME.L
        63**DCL        63--IMP-SIZ
F$DCB.EOMCHAR
        20**DCL        20--REDEF
F$DCB.FLDID
        44**DCL        44--REDEF
F$DCB.FORM$
        38**DCL        38--REDEF
F$DCB.FSECT
        54**DCL        54--REDEF
F$DCB.FSN
        31**DCL        31--REDEF      31--REDEF      32--REDEF
F$DCB.HEADER$
PL6.E3A0      #002=IDE$FILE File=IDE$MISC.:E05TSI                                TUE 07/29/97 22:29 Page:29
        37**DCL        37--REDEF
F$DCB.IXTNSIZE
        35**DCL        35--REDEF
F$DCB.LASTSTA$
        25**DCL        25--REDEF
F$DCB.LVL
        50**DCL        50--REDEF
F$DCB.NAME.C
        25**DCL        25--REDEF      66>>ASSIGN     71>>ASSIGN
F$DCB.NAME.L
        25**DCL        65>>ASSIGN     72>>ASSIGN
F$DCB.NOEOF
        46**DCL        46--REDEF
F$DCB.NRECS
        36**DCL        36--REDEF
F$DCB.NRECX
        55**DCL        55--REDEF
F$DCB.OHDR
        47**DCL        47--REDEF
F$DCB.ORG
        30**DCL        30--REDEF
F$DCB.PRECNO
        53**DCL        53--REDEF
F$DCB.RCSZ
        58**DCL        58--REDEF
F$DCB.RES
        26**DCL        26--REDEF
F$DCB.SETX
        38**DCL        38--REDEF
F$DCB.TAB$
        37**DCL        38--REDEF
F$DCB.TDA
        52**DCL        52--REDEF
F$DCB.WSN
        27**DCL        27--REDEF
IDE$WRTCOLUMN
PL6.E3A0      #002=IDE$FILE File=IDE$MISC.:E05TSI                                TUE 07/29/97 22:29 Page:30
        14**DCL-ENT    67--CALL       76--CALL
TMP
        12**DCL        65<<ASSIGN     67<>CALL       72<<ASSIGN     73>>ASSIGN     74>>ASSIGN     75<<CALLBLT
        76<>CALL

PL6.E3A0      #003=IDE$CHK_CMD File=IDE$MISC.:E05TSI                             TUE 07/29/97 22:30 Page:31
       78        1        /*T***********************************************************/
       79        2        /*T*                                                         */
       80        3        /*T* Copyright (c) Bull HN Information Systems Inc., 1997    */
       81        4        /*T*                                                         */
       82        5        /*T***********************************************************/
       83        6        IDE$CHK_CMD: PROC (FID_BLK) ALTRET;
       84        7        /**/
       85        8        %INCLUDE CP_6;
       86       89        %FPT_EXIT (STCLASS=EXT);
       87      104        %INCLUDE ID_DATA_C;
       88      165        %FIDBLK (NAME=FID_BLK,STCLASS="");
       89      217        /**/
       90      218    1   DCL XUR$ERRMSG ENTRY(7) ALTRET;
       91      219        %MACRO ERRCODE (NAME=ERRCODE,FCG='0'B,MID='0'B,MON='0'B,CODE=0,SEV=0);
       92      220        DCL 1 NAME CONSTANT ALIGNED,
       93      221              2 FCG# BIT(12) INIT(FCG),
       94      222              2 MID# BIT(6) INIT(MID),
       95      223              2 MON# BIT(1) INIT(MON),
       96      224              2 CODE# UBIN(14) UNAL INIT(CODE),
       97      225              2 SEV# UBIN(3) UNAL INIT(SEV);
       98      226        %MEND;
       99      227        %INCLUDE ID_PERR_C;
      100      269        %ERRCODE (NAME=DUPCMDERR,CODE=%E$DUPERR);
      101      277        /**/
      102      278        /* BEGIN PROCEDURE */
      103      279        /**/
      104      280    2           IF FID_BLK.FLAGS.CMD THEN DO;
      105      281    2               FPT_EXIT.V.STEPCC# = 4;
      106      282    2              CALL XUR$ERRMSG(DUPCMDERR);
      107      283    2              ALTRETURN;
      108      284    2              END;
      109      285    1           RETURN;
      110      286    1   END IDE$CHK_CMD;
      111      287        %EOD;

PL6.E3A0      #003=IDE$CHK_CMD File=IDE$MISC.:E05TSI                             TUE 07/29/97 22:30 Page:32
--  Include file information  --

   ID_PERR_C.:E05TOU  is referenced.
   ID_DATA_C.:E05TOU  is referenced.
   CP_6.:E05TOU  cannot be made into a system file and is referenced.
   B$JIT_C.:E05TOU  was found in the system file and is never referenced.
   CP_6_C.:E05TOU  was found in the system file and is referenced.
      No diagnostics issued in procedure IDE$CHK_CMD.

   Procedure IDE$CHK_CMD requires 14 words for executable code.
   Procedure IDE$CHK_CMD requires 4 words of local(AUTO) storage.

PL6.E3A0      #003=IDE$CHK_CMD File=IDE$MISC.:E05TSI                             TUE 07/29/97 22:30 Page:33

 Object Unit name= IDE$CHK_CMD                                File name= IDE$MISC.:E05TOU
 UTS= JUL 29 '97 22:30:00.04 TUE                              Compiler= PL-6/E31         Sev=      00
 SharedLib= :SHARED_SYSTEM                                    Alt SharedLib=


    ****  Control sections  ****

 Sect   Type Bound  Init  Size OctSiz  Section name(segment info)
    0   DCB   even  none     0      0  M$UC
    1  LblCom even  none     6      6  FPT_EXIT
    2  RoData even  UTS      1      1  IDE$CHK_CMD
    3   Proc  even  none    14     16  IDE$CHK_CMD
    4  RoData even  none     1      1  IDE$CHK_CMD

    ****  Entry defs  ****

                              Check   Calling
                             calling  sequence
  Sect OctLoc Primary Altret sequence   type   Parms  Name
     3      0   yes    yes     yes      Std        1  IDE$CHK_CMD

  ****  Entry refs  ****

         Check        Calling
        calling       sequence
Altret sequence SRef   type   Args  Name
 yes     yes           Std       7 XUR$ERRMSG
                       nStd      0 X66_AUTO_1
                       Std       0 B_CONSPOOL_D
                       nStd      0 X66_AALT
                       nStd      0 X66_ARET
PL6.E3A0      #003=IDE$CHK_CMD File=IDE$MISC.:E05TSI                             TUE 07/29/97 22:30 Page:34

  ****  Data refs  ****

  Flags:  r = read only, s = secondary
Flgs Name                             Flgs Name                             Flgs Name
     M$UC                                  B_VECTNIL

  ****  Segment refs  ****

  Flags:  r = read only, s = secondary
Flgs Name                             Flgs Name                             Flgs Name
     ISSID                                 NULLSID
PL6.E3A0      #003=IDE$CHK_CMD File=IDE$MISC.:E05TSI                             TUE 07/29/97 22:30 Page:35


       78        1        /*T***********************************************************/
       79        2        /*T*                                                         */
       80        3        /*T* Copyright (c) Bull HN Information Systems Inc., 1997    */
       81        4        /*T*                                                         */
       82        5        /*T***********************************************************/
       83        6        IDE$CHK_CMD: PROC (FID_BLK) ALTRET;

      6  3 000000   000000 700200 xent  IDE$CHK_CMD  TSX0  ! X66_AUTO_1
         3 000001   000004 000001                    ZERO    4,1

       84        7        /**/
       85        8        %INCLUDE CP_6;
       86       89        %FPT_EXIT (STCLASS=EXT);
       87      104        %INCLUDE ID_DATA_C;
       88      165        %FIDBLK (NAME=FID_BLK,STCLASS="");
       89      217        /**/
       90      218    1   DCL XUR$ERRMSG ENTRY(7) ALTRET;
       91      219        %MACRO ERRCODE (NAME=ERRCODE,FCG='0'B,MID='0'B,MON='0'B,CODE=0,SEV=0);
       92      220        DCL 1 NAME CONSTANT ALIGNED,
       93      221              2 FCG# BIT(12) INIT(FCG),
       94      222              2 MID# BIT(6) INIT(MID),
       95      223              2 MON# BIT(1) INIT(MON),
       96      224              2 CODE# UBIN(14) UNAL INIT(CODE),
       97      225              2 SEV# UBIN(3) UNAL INIT(SEV);
       98      226        %MEND;
       99      227        %INCLUDE ID_PERR_C;
      100      269        %ERRCODE (NAME=DUPCMDERR,CODE=%E$DUPERR);
      101      277        /**/
      102      278        /* BEGIN PROCEDURE */
      103      279        /**/
      104      280    2           IF FID_BLK.FLAGS.CMD THEN DO;

    280  3 000002   200003 470500                    LDP0    @FID_BLK,,AUTO
         3 000003   000030 236100                    LDQ     24,,PR0
         3 000004   100000 316003                    CANQ    32768,DU
         3 000005   000015 600000 3                  TZE     s:285
PL6.E3A0      #003=IDE$CHK_CMD File=IDE$MISC.:E05TSI                             TUE 07/29/97 22:30 Page:36

      105      281    2               FPT_EXIT.V.STEPCC# = 4;

    281  3 000006   004000 236003                    LDQ     2048,DU
         3 000007   000004 552040 1                  STBQ    FPT_EXIT+4,'40'O

      106      282    2              CALL XUR$ERRMSG(DUPCMDERR);

    282  3 000010   000000 630400 4                  EPPR0   0
         3 000011   000017 631400 xsym               EPPR1   B_VECTNIL+15
         3 000012   000000 701000 xent               TSX1    XUR$ERRMSG
         3 000013   000000 011000                    NOP     0

      107      283    2              ALTRETURN;

    283  3 000014   000000 702200 xent               TSX2  ! X66_AALT

      108      284    2              END;
      109      285    1           RETURN;

    285  3 000015   000000 702200 xent               TSX2  ! X66_ARET
      110      286    1   END IDE$CHK_CMD;
      111      287        %EOD;

PL6.E3A0      #003=IDE$CHK_CMD File=IDE$MISC.:E05TSI                             TUE 07/29/97 22:30 Page:37
--  Include file information  --

   ID_PERR_C.:E05TOU  is referenced.
   ID_DATA_C.:E05TOU  is referenced.
   CP_6.:E05TOU  cannot be made into a system file and is referenced.
   B$JIT_C.:E05TOU  was found in the system file and is never referenced.
   CP_6_C.:E05TOU  was found in the system file and is referenced.
      No diagnostics issued in procedure IDE$CHK_CMD.
PL6.E3A0      #003=IDE$CHK_CMD File=IDE$MISC.:E05TSI                             TUE 07/29/97 22:30 Page:38

 **** Variables and constants ****

  ****  Section 001 LblCom FPT_EXIT

  ****  Scalars and arrays  ****
OctLoc.c.b A Datatyp(siz) R M Lvl/name                 OctLoc.c.b A Datatyp(siz) R M Lvl/name

     0-0-0/d STRC(216)   r     1 FPT_EXIT

  ****  Section 002 RoData IDE$CHK_CMD

  ****  Scalars and arrays  ****
OctLoc.c.b A Datatyp(siz) R M Lvl/name                 OctLoc.c.b A Datatyp(siz) R M Lvl/name

     0-0-0/w STRC        r     1 DUPCMDERR

  ****  Auto variables  ****

  ****  Scalars and arrays  ****
OctLoc.c.b A Datatyp(siz) R M Lvl/name                 OctLoc.c.b A Datatyp(siz) R M Lvl/name

     3-0-0/w PTR         r     1 @FID_BLK                  *0-0-0/w STRC(1188)  r     1 FID_BLK


   Procedure IDE$CHK_CMD requires 14 words for executable code.
   Procedure IDE$CHK_CMD requires 4 words of local(AUTO) storage.
PL6.E3A0      #003=IDE$CHK_CMD File=IDE$MISC.:E05TSI                             TUE 07/29/97 22:30 Page:39
          *** CROSS REFERENCE LISTING ***
**     DENOTES     IDENTIFIER DEFINITION
<<                 IDENTIFIER'S VALUE SET
>>                 IDENTIFIER'S VALUE USED
<>                 IDENTIFIER SET AND/OR USED
--                 IDENTIFIER REFERENCED
PL6.E3A0      #003=IDE$CHK_CMD File=IDE$MISC.:E05TSI                             TUE 07/29/97 22:30 Page:40
          MINI XREF LISTING

DUPCMDERR
       270**DCL       282<>CALL
FID_BLK
       178**DCL         6--PROC
FID_BLK.FLAGS.CMD
       206**DCL       280>>IF
FPT_EXIT.V
       100**DCL       100--DCLINIT
FPT_EXIT.V.STEPCC#
       101**DCL       101--REDEF     281<<ASSIGN
XUR$ERRMSG
       218**DCL-ENT   282--CALL

PL6.E3A0      #004=IDE$FMSECON File=IDE$MISC.:E05TSI                             TUE 07/29/97 22:30 Page:41
      112        1        /*T***********************************************************/
      113        2        /*T*                                                         */
      114        3        /*T* Copyright (c) Bull HN Information Systems Inc., 1997    */
      115        4        /*T*                                                         */
      116        5        /*T***********************************************************/
      117        6        IDE$FMSECON: PROC NOAUTO;
      118        7        /**/
      119        8    1   DCL B$JIT$ PTR SYMREF;
      120        9        %INCLUDE B$JIT;
      121      299        %INCLUDE CP_6;
      122      380        %FPT_EXIT (STCLASS=EXT);
      123      395        %FPT_PRIV (PRIV=%PR_FMSEC#);
      124      410        %VLR_SITEINFO;
      125      429        %FPT_MONINFO(SITEINFO=VLR_SITEINFO);
      126      444        %INCLUDE ID_PERR_C;
      127      486    1   DCL 1 NOFMSEC ALIGNED CONSTANT,
      128      487    1         2 FCG BIT(18) UNAL INIT('110405'O),
      129      488    1         2 CODE UBIN(15) UNAL INIT(%E$NOFMSEC),
      130      489    1         2 SEV UBIN(3) UNAL INIT(0);
      131      490    1   DCL XUR$ERRMSG ENTRY(7) ALTRET;
      132      491        %EJECT;
PL6.E3A0      #004=IDE$FMSECON File=IDE$MISC.:E05TSI                             TUE 07/29/97 22:30 Page:42
      133      492    1           IF B$JIT.PRIV.ACTIVE & %PR_FMSEC# THEN RETURN;
      134      493    1           CALL M$SPRIV(FPT_PRIV) ALTRET(FMSEC_ERR);
      135      494    1           RETURN;
      136      495    1   FMSEC_ERR:
      137      496    1         FPT_EXIT.V.STEPCC# = 4;
      138      497    1           CALL XUR$ERRMSG(NOFMSEC);
      139      498        /*E*    ERROR:   IDE-E$NOFMSEC
      140      499                MESSAGE: DEF cannot get FMSEC privilege.  DEF aborting.
      141      500                DESCRIPTION: DEF must either be run from an account with FMSEC
      142      501                             privilege or must reside in :SYS and be linked with
      143      502                             FMSEC.                                        */
      144      503    1   IDE$FMSECOFF: ENTRY;
      145      504    1           IF B$JIT.PRIV.JOB & %PR_FMSEC# THEN RETURN;
      146      505    1           IF NOT B$JIT.PRIV.ACTIVE & %PR_FMSEC# THEN RETURN;
      147      506        /* The following per JJ -  to allow ?HOST accts to DEF from :SYS; */
      148      507        /* the M$MONINFO pmme is done here to localize the code.          */
      149      508    1         CALL M$MONINFO (FPT_MONINFO);
      150      509    1         IF SUBSTR(VLR_SITEINFO.SITE_NAME#.C,0,9)='LADC L66B' AND
      151      510    1            SUBSTR(B$JIT.ACCN,3,4)='HOST' THEN RETURN;
      152      511        /* End of special code */
      153      512    1           CALL M$RPRIV(FPT_PRIV);
      154      513    1           RETURN;
      155      514    1   END IDE$FMSECON;

PL6.E3A0      #004=IDE$FMSECON File=IDE$MISC.:E05TSI                             TUE 07/29/97 22:30 Page:43
--  Include file information  --

   ID_PERR_C.:E05TOU  is referenced.
   CP_6.:E05TOU  cannot be made into a system file and is referenced.
   B$JIT.:E05TOU  cannot be made into a system file and is referenced.
   B$JIT_C.:E05TOU  was found in the system file and is referenced.
   CP_6_C.:E05TOU  was found in the system file and is referenced.
      No diagnostics issued in procedure IDE$FMSECON.

   Procedure IDE$FMSECON requires 51 words for executable code.
   Procedure IDE$FMSECON is declared NOAUTO and requires 80 words of local(STATIC) storage.

    No errors detected in file IDE$MISC.:E05TSI    .

PL6.E3A0      #004=IDE$FMSECON File=IDE$MISC.:E05TSI                             TUE 07/29/97 22:30 Page:44

 Object Unit name= IDE$FMSECON                                File name= IDE$MISC.:E05TOU
 UTS= JUL 29 '97 22:30:14.96 TUE                              Compiler= PL-6/E31         Sev=      00
 SharedLib= :SHARED_SYSTEM                                    Alt SharedLib=


    ****  Control sections  ****

 Sect   Type Bound  Init  Size OctSiz  Section name(segment info)
    0   Data  even  none    80    120  IDE$FMSECON
    1   DCB   even  none     0      0  M$UC
    2  LblCom even  none     6      6  FPT_EXIT
    3  RoData even  UTS      6      6  IDE$FMSECON
    4   Proc  even  none    51     63  IDE$FMSECON
    5  RoData even  none     1      1  IDE$FMSECON

    ****  Entry defs  ****

                              Check   Calling
                             calling  sequence
  Sect OctLoc Primary Altret sequence   type   Parms  Name
     4      0   yes            yes      Std        0  IDE$FMSECON
     4     24                  yes      Std        0  IDE$FMSECOFF

  ****  Entry refs  ****

         Check        Calling
        calling       sequence
Altret sequence SRef   type   Args  Name
 yes     yes           Std       7 XUR$ERRMSG
                       Std       0 B_CONSPOOL_D

  ****  Data refs  ****

  Flags:  r = read only, s = secondary
Flgs Name                             Flgs Name                             Flgs Name
     B$JIT$                                M$UC                                  B_VECTNIL
PL6.E3A0      #004=IDE$FMSECON File=IDE$MISC.:E05TSI                             TUE 07/29/97 22:30 Page:45

  ****  Segment refs  ****

  Flags:  r = read only, s = secondary
Flgs Name                             Flgs Name                             Flgs Name
     ISSID                                 NULLSID
PL6.E3A0      #004=IDE$FMSECON File=IDE$MISC.:E05TSI                             TUE 07/29/97 22:30 Page:46


      112        1        /*T***********************************************************/
      113        2        /*T*                                                         */
      114        3        /*T* Copyright (c) Bull HN Information Systems Inc., 1997    */
      115        4        /*T*                                                         */
      116        5        /*T***********************************************************/
      117        6        IDE$FMSECON: PROC NOAUTO;

      6  4 000000   000000 741200 0     IDE$FMSECON  STX1  ! 0

      118        7        /**/
      119        8    1   DCL B$JIT$ PTR SYMREF;
      120        9        %INCLUDE B$JIT;
      121      299        %INCLUDE CP_6;
      122      380        %FPT_EXIT (STCLASS=EXT);
      123      395        %FPT_PRIV (PRIV=%PR_FMSEC#);
      124      410        %VLR_SITEINFO;
      125      429        %FPT_MONINFO(SITEINFO=VLR_SITEINFO);
      126      444        %INCLUDE ID_PERR_C;
      127      486    1   DCL 1 NOFMSEC ALIGNED CONSTANT,
      128      487    1         2 FCG BIT(18) UNAL INIT('110405'O),
      129      488    1         2 CODE UBIN(15) UNAL INIT(%E$NOFMSEC),
      130      489    1         2 SEV UBIN(3) UNAL INIT(0);
      131      490    1   DCL XUR$ERRMSG ENTRY(7) ALTRET;
      132      491        %EJECT;
PL6.E3A0      #004=IDE$FMSECON File=IDE$MISC.:E05TSI                             TUE 07/29/97 22:30 Page:47
      133      492    1           IF B$JIT.PRIV.ACTIVE & %PR_FMSEC# THEN RETURN;

    492  4 000001   000000 470400 xsym               LDP0    B$JIT$
         4 000002   000013 236100                    LDQ     11,,PR0
         4 000003   000001 376000 3                  ANQ     NOFMSEC+1
         4 000004   000007 600000 4                  TZE     s:493

    492  4 000005   000000 221200 0                  LDX1  ! 0
         4 000006   000001 702211                    TSX2  ! 1,X1

      134      493    1           CALL M$SPRIV(FPT_PRIV) ALTRET(FMSEC_ERR);

    493  4 000007   000002 630400 0                  EPPR0   FPT_PRIV
         4 000010   420012 713400                    CLIMB   alt,+8202
         4 000011   400000 401760                    pmme    nvectors=1
         4 000012   000015 702000 4                  TSX2    FMSEC_ERR

      135      494    1           RETURN;

    494  4 000013   000000 221200 0                  LDX1  ! 0
         4 000014   000001 702211                    TSX2  ! 1,X1

      136      495    1   FMSEC_ERR:
      137      496    1         FPT_EXIT.V.STEPCC# = 4;

    496  4 000015   004000 236003       FMSEC_ERR    LDQ     2048,DU
         4 000016   000004 552040 2                  STBQ    FPT_EXIT+4,'40'O

      138      497    1           CALL XUR$ERRMSG(NOFMSEC);

    497  4 000017   000000 630400 5                  EPPR0   0
         4 000020   000017 631400 xsym               EPPR1   B_VECTNIL+15
         4 000021   000000 701000 xent               TSX1    XUR$ERRMSG
         4 000022   000000 011000                    NOP     0
         4 000023   000025 710000 4                  TRA     s:504

      139      498        /*E*    ERROR:   IDE-E$NOFMSEC
PL6.E3A0      #004=IDE$FMSECON File=IDE$MISC.:E05TSI                             TUE 07/29/97 22:30 Page:48
      140      499                MESSAGE: DEF cannot get FMSEC privilege.  DEF aborting.
      141      500                DESCRIPTION: DEF must either be run from an account with FMSEC
      142      501                             privilege or must reside in :SYS and be linked with
      143      502                             FMSEC.                                        */
      144      503    1   IDE$FMSECOFF: ENTRY;

    503  4 000024   000000 741200 0     IDE$FMSECOFF STX1  ! 0

      145      504    1           IF B$JIT.PRIV.JOB & %PR_FMSEC# THEN RETURN;

    504  4 000025   000000 470400 xsym               LDP0    B$JIT$
         4 000026   000015 236100                    LDQ     13,,PR0
         4 000027   000001 376000 3                  ANQ     NOFMSEC+1
         4 000030   000033 600000 4                  TZE     s:505

    504  4 000031   000000 221200 0                  LDX1  ! 0
         4 000032   000001 702211                    TSX2  ! 1,X1

      146      505    1           IF NOT B$JIT.PRIV.ACTIVE & %PR_FMSEC# THEN RETURN;

    505  4 000033   000013 236100                    LDQ     11,,PR0
         4 000034   000001 376000 3                  ANQ     NOFMSEC+1
         4 000035   000040 601000 4                  TNZ     s:508

    505  4 000036   000000 221200 0                  LDX1  ! 0
         4 000037   000001 702211                    TSX2  ! 1,X1

      147      506        /* The following per JJ -  to allow ?HOST accts to DEF from :SYS; */
      148      507        /* the M$MONINFO pmme is done here to localize the code.          */
      149      508    1         CALL M$MONINFO (FPT_MONINFO);

    508  4 000040   000104 630400 0                  EPPR0   FPT_MONINFO
         4 000041   020023 713400                    CLIMB   8211
         4 000042   402400 401760                    pmme    nvectors=6

      150      509    1         IF SUBSTR(VLR_SITEINFO.SITE_NAME#.C,0,9)='LADC L66B' AND

PL6.E3A0      #004=IDE$FMSECON File=IDE$MISC.:E05TSI                             TUE 07/29/97 22:30 Page:49
    509  4 000043   040000 106400                    CMPC    fill='040'O
         4 000044   000007 200011 0                  ADSC9   VLR_SITEINFO+1           cn=1,n=9
         4 000045   000002 000011 3                  ADSC9   NOFMSEC+2                cn=0,n=9
         4 000046   000056 601000 4                  TNZ     s:512
         4 000047   000000 470400 xsym               LDP0    B$JIT$
         4 000050   040000 106500                    CMPC    fill='040'O
         4 000051   000001 600004                    ADSC9   1,,PR0                   cn=3,n=4
         4 000052   000005 000004 3                  ADSC9   NOFMSEC+5                cn=0,n=4
         4 000053   000056 601000 4                  TNZ     s:512

      151      510    1            SUBSTR(B$JIT.ACCN,3,4)='HOST' THEN RETURN;

    510  4 000054   000000 221200 0                  LDX1  ! 0
         4 000055   000001 702211                    TSX2  ! 1,X1

      152      511        /* End of special code */
      153      512    1           CALL M$RPRIV(FPT_PRIV);

    512  4 000056   000002 630400 0                  EPPR0   FPT_PRIV
         4 000057   020013 713400                    CLIMB   8203
         4 000060   400000 401760                    pmme    nvectors=1

      154      513    1           RETURN;

    513  4 000061   000000 221200 0                  LDX1  ! 0
         4 000062   000001 702211                    TSX2  ! 1,X1
      155      514    1   END IDE$FMSECON;

PL6.E3A0      #004=IDE$FMSECON File=IDE$MISC.:E05TSI                             TUE 07/29/97 22:30 Page:50
--  Include file information  --

   ID_PERR_C.:E05TOU  is referenced.
   CP_6.:E05TOU  cannot be made into a system file and is referenced.
   B$JIT.:E05TOU  cannot be made into a system file and is referenced.
   B$JIT_C.:E05TOU  was found in the system file and is referenced.
   CP_6_C.:E05TOU  was found in the system file and is referenced.
      No diagnostics issued in procedure IDE$FMSECON.
PL6.E3A0      #004=IDE$FMSECON File=IDE$MISC.:E05TSI                             TUE 07/29/97 22:30 Page:51

 **** Variables and constants ****

  ****  Section 000  Data  IDE$FMSECON

  ****  Scalars and arrays  ****
OctLoc.c.b A Datatyp(siz) R M Lvl/name                 OctLoc.c.b A Datatyp(siz) R M Lvl/name

   104-0-0/d STRC(432)   r     1 FPT_MONINFO                2-0-0/d STRC(144)   r     1 FPT_PRIV
     6-0-0/d STRC(2232)  r     1 VLR_SITEINFO

  ****  Section 002 LblCom FPT_EXIT

  ****  Scalars and arrays  ****
OctLoc.c.b A Datatyp(siz) R M Lvl/name                 OctLoc.c.b A Datatyp(siz) R M Lvl/name

     0-0-0/d STRC(216)   r     1 FPT_EXIT

  ****  Section 003 RoData IDE$FMSECON

  ****  Scalars and arrays  ****
OctLoc.c.b A Datatyp(siz) R M Lvl/name                 OctLoc.c.b A Datatyp(siz) R M Lvl/name

     0-0-0/w STRC        r     1 NOFMSEC

  ****  SYMREF variables  ****

  ****  Scalars and arrays  ****
OctLoc.c.b A Datatyp(siz) R M Lvl/name                 OctLoc.c.b A Datatyp(siz) R M Lvl/name

     0-0-0/w PTR         r     1 B$JIT$

  ****  BASED and DCB variables  ****

  ****  Scalars and arrays  ****
OctLoc.c.b A Datatyp(siz) R M Lvl/name                 OctLoc.c.b A Datatyp(siz) R M Lvl/name

     0-0-0/d STRC(8856)  r     1 B$JIT
PL6.E3A0      #004=IDE$FMSECON File=IDE$MISC.:E05TSI                             TUE 07/29/97 22:30 Page:52


   Procedure IDE$FMSECON requires 51 words for executable code.
   Procedure IDE$FMSECON is declared NOAUTO and requires 80 words of local(STATIC) storage.

    No errors detected in file IDE$MISC.:E05TSI    .
PL6.E3A0      #004=IDE$FMSECON File=IDE$MISC.:E05TSI                             TUE 07/29/97 22:30 Page:53
          *** CROSS REFERENCE LISTING ***
**     DENOTES     IDENTIFIER DEFINITION
<<                 IDENTIFIER'S VALUE SET
>>                 IDENTIFIER'S VALUE USED
<>                 IDENTIFIER SET AND/OR USED
--                 IDENTIFIER REFERENCED
PL6.E3A0      #004=IDE$FMSECON File=IDE$MISC.:E05TSI                             TUE 07/29/97 22:30 Page:54
          MINI XREF LISTING

B$JIT.ACCN
        23**DCL       509>>IF
B$JIT.CPFLAGS1.SLEAZE
       117**DCL       117--REDEF
B$JIT.ERR.MID
        24**DCL        24--REDEF
B$JIT.JRESPEAK
       185**DCL       186--REDEF
B$JIT.ORIGINATOR_PORT.FROM_CR
       294**DCL       294--REDEF     295--REDEF
B$JIT.PNR
       198**DCL       198--REDEF
B$JIT.PRIV.ACTIVE
        24**DCL       492>>IF        505>>IF
B$JIT.PRIV.JOB
        67**DCL       504>>IF
B$JIT.TSLINE
       292**DCL       293--REDEF
B$JIT$
         8**DCL        18--IMP-PTR   492>>IF        504>>IF        505>>IF        509>>IF
FMSEC_ERR
       496**LABEL     493--CALLALT
FPT_EXIT.V
       391**DCL       391--DCLINIT
FPT_EXIT.V.STEPCC#
       392**DCL       392--REDEF     496<<ASSIGN
FPT_MONINFO
       440**DCL       508<>CALL
FPT_PRIV
       406**DCL       493<>CALL      512<>CALL
FPT_PRIV.V
       406**DCL       406--DCLINIT
PL6.E3A0      #004=IDE$FMSECON File=IDE$MISC.:E05TSI                             TUE 07/29/97 22:30 Page:55
M$MONINFO
       376**DCL-ENT   508--CALL
M$RPRIV
       367**DCL-ENT   512--CALL
M$SPRIV
       367**DCL-ENT   493--CALL
NOFMSEC
       486**DCL       497<>CALL
VLR_SITEINFO
       421**DCL       440--DCLINIT
VLR_SITEINFO.SITE_NAME#.C
       422**DCL       509>>IF
XUR$ERRMSG
       490**DCL-ENT   497--CALL
