VERSION E05

PL6.E3A0      #001=ID_G1RO_D File=ID_G1RO_D.:E05TSI                              TUE 07/29/97 22:32 Page:1
        1        1        /*M* ID_G1RO_D - STATIC DATA FOR SOME OF GHOST1'S DCBS */
        2        2        /*T***********************************************************/
        3        3        /*T*                                                         */
        4        4        /*T* Copyright (c) Bull HN Information Systems Inc., 1997    */
        5        5        /*T*                                                         */
        6        6        /*T***********************************************************/
        7        7        ID_G1RO_D: PROC NOAUTO;
        8        8        %INCLUDE F_DCB_D;
        9       96        /**/
       10       97        %M$MDCB (DCBN=M_STAR,STCLASS="STATIC SYMDEF DALIGNED");
       11      171        /**/
       12      172        %M$MDCB (DCBN=M_LM,STCLASS="STATIC SYMDEF DALIGNED");
       13      246        /**/
       14      247        %M$MDCB (DCBN=M_UC,STCLASS="STATIC SYMDEF DALIGNED",ASN=DEVICE,RES='NO');
       15      321        /**/
       16      322        %M$MDCB (DCBN=M_DO,STCLASS="STATIC SYMDEF DALIGNED",ASN=DEVICE,RES='LO',FUN=CREATE);
       17      396        /**/
       18      397        %M$MDCB (DCBN=M_DUMMY,STCLASS="STATIC SYMDEF DALIGNED");
       19      471        /**/
       20      472    1   END ID_G1RO_D;

PL6.E3A0      #001=ID_G1RO_D File=ID_G1RO_D.:E05TSI                              TUE 07/29/97 22:32 Page:2
--  Include file information  --

   F_DCB_D.:E05TOU  is referenced.
      No diagnostics issued in procedure ID_G1RO_D.

   No code generated for procedure ID_G1RO_D .
   Procedure ID_G1RO_D is declared NOAUTO and requires 482 words of local(STATIC) storage.

    No errors detected in file ID_G1RO_D.:E05TSI    .

PL6.E3A0      #001=ID_G1RO_D File=ID_G1RO_D.:E05TSI                              TUE 07/29/97 22:32 Page:3

 Object Unit name= ID_G1RO_D                                  File name= ID_G1RO_D.:E05TOU
 UTS= JUL 29 '97 22:32:30.32 TUE                              Compiler= PL-6/E31         Sev=      00
 SharedLib= :SHARED_SYSTEM                                    Alt SharedLib=


    ****  Control sections  ****

 Sect   Type Bound  Init  Size OctSiz  Section name(segment info)
    0   Data  even  none   482    742  ID_G1RO_D
    1   Proc  even  none     0      0  ID_G1RO_D

    ****  Entry defs  ****

                              Check   Calling
                             calling  sequence
  Sect OctLoc Primary Altret sequence   type   Parms  Name
     1      0   yes            yes     ~proc       0  ID_G1RO_D

  ****  Data defs  ****

 Sect OctLoc  Name                           Sect OctLoc  Name
    0      2  M_STAR                             0    142  M_LM
    0    302  M_UC                               0    442  M_DO
    0    602  M_DUMMY

  ****  Segment refs  ****

  Flags:  r = read only, s = secondary
Flgs Name                             Flgs Name                             Flgs Name
     NULLSID
PL6.E3A0      #001=ID_G1RO_D File=ID_G1RO_D.:E05TSI                              TUE 07/29/97 22:32 Page:4

        1        1        /*M* ID_G1RO_D - STATIC DATA FOR SOME OF GHOST1'S DCBS */
        2        2        /*T***********************************************************/
        3        3        /*T*                                                         */
        4        4        /*T* Copyright (c) Bull HN Information Systems Inc., 1997    */
        5        5        /*T*                                                         */
        6        6        /*T***********************************************************/
        7        7        ID_G1RO_D: PROC NOAUTO;
        8        8        %INCLUDE F_DCB_D;
        9       96        /**/
       10       97        %M$MDCB (DCBN=M_STAR,STCLASS="STATIC SYMDEF DALIGNED");
       11      171        /**/
       12      172        %M$MDCB (DCBN=M_LM,STCLASS="STATIC SYMDEF DALIGNED");
       13      246        /**/
       14      247        %M$MDCB (DCBN=M_UC,STCLASS="STATIC SYMDEF DALIGNED",ASN=DEVICE,RES='NO');
       15      321        /**/
       16      322       %M$MDCB (DCBN=M_DO,STCLASS="STATIC SYMDEF DALIGNED",ASN=DEVICE,RES='LO',FUN=CREATE);
       17      396        /**/
       18      397        %M$MDCB (DCBN=M_DUMMY,STCLASS="STATIC SYMDEF DALIGNED");
       19      471        /**/
       20      472    1   END ID_G1RO_D;

PL6.E3A0      #001=ID_G1RO_D File=ID_G1RO_D.:E05TSI                              TUE 07/29/97 22:32 Page:5
--  Include file information  --

   F_DCB_D.:E05TOU  is referenced.
      No diagnostics issued in procedure ID_G1RO_D.
PL6.E3A0      #001=ID_G1RO_D File=ID_G1RO_D.:E05TSI                              TUE 07/29/97 22:32 Page:6

 **** Variables and constants ****


   No code generated for procedure ID_G1RO_D .
   Procedure ID_G1RO_D is declared NOAUTO and requires 482 words of local(STATIC) storage.

    No errors detected in file ID_G1RO_D.:E05TSI    .
PL6.E3A0      #001=ID_G1RO_D File=ID_G1RO_D.:E05TSI                              TUE 07/29/97 22:32 Page:7
          *** CROSS REFERENCE LISTING ***
**     DENOTES     IDENTIFIER DEFINITION
<<                 IDENTIFIER'S VALUE SET
>>                 IDENTIFIER'S VALUE USED
<>                 IDENTIFIER SET AND/OR USED
--                 IDENTIFIER REFERENCED
PL6.E3A0      #001=ID_G1RO_D File=ID_G1RO_D.:E05TSI                              TUE 07/29/97 22:32 Page:8
          MINI XREF LISTING

M_DO.ACTPOS
       364**DCL       364--REDEF
M_DO.ARS#
       323**DCL       323--REDEF
M_DO.ATTR#
       353**DCL       353--REDEF     355--REDEF
M_DO.BORROW
       375**DCL       375--REDEF     375--REDEF     375--REDEF
M_DO.EOMCHAR#
       330**DCL       331--REDEF
M_DO.FLDID
       367**DCL       368--REDEF
M_DO.FORM$
       359**DCL       359--REDEF
M_DO.FSECT
       382**DCL       382--REDEF
M_DO.FSN#
       349**DCL       349--REDEF     349--REDEF     350--REDEF
M_DO.HEADER$
       358**DCL       359--REDEF
M_DO.IXTNSIZE#
       355**DCL       356--REDEF
M_DO.LASTSTA$
       339**DCL       339--REDEF
M_DO.LVL
       376**DCL       376--REDEF
M_DO.NAME#.C
       339**DCL       340--REDEF
M_DO.NOEOF
       371**DCL       371--REDEF
M_DO.NRECS#
       356**DCL       356--REDEF
PL6.E3A0      #001=ID_G1RO_D File=ID_G1RO_D.:E05TSI                              TUE 07/29/97 22:32 Page:9
M_DO.NRECX
       383**DCL       383--REDEF
M_DO.OHDR
       372**DCL       372--REDEF
M_DO.ORG#
       347**DCL       348--REDEF
M_DO.PRECNO
       380**DCL       380--REDEF
M_DO.RCSZ
       388**DCL       388--REDEF
M_DO.RES#
       341**DCL       341--REDEF
M_DO.SETX
       360**DCL       360--REDEF
M_DO.TAB$
       359**DCL       359--REDEF
M_DO.TDA
       379**DCL       380--REDEF
M_DO.WSN#
       341**DCL       342--REDEF
M_DUMMY.ACTPOS
       439**DCL       439--REDEF
M_DUMMY.ARS#
       398**DCL       398--REDEF
M_DUMMY.ATTR#
       428**DCL       428--REDEF     430--REDEF
M_DUMMY.BORROW
       450**DCL       450--REDEF     450--REDEF     450--REDEF
M_DUMMY.EOMCHAR#
       405**DCL       406--REDEF
M_DUMMY.FLDID
       442**DCL       443--REDEF
M_DUMMY.FORM$
       434**DCL       434--REDEF
M_DUMMY.FSECT
       457**DCL       457--REDEF
PL6.E3A0      #001=ID_G1RO_D File=ID_G1RO_D.:E05TSI                              TUE 07/29/97 22:32 Page:10
M_DUMMY.FSN#
       424**DCL       424--REDEF     424--REDEF     425--REDEF
M_DUMMY.HEADER$
       433**DCL       434--REDEF
M_DUMMY.IXTNSIZE#
       430**DCL       431--REDEF
M_DUMMY.LASTSTA$
       414**DCL       414--REDEF
M_DUMMY.LVL
       451**DCL       451--REDEF
M_DUMMY.NAME#.C
       414**DCL       415--REDEF
M_DUMMY.NOEOF
       446**DCL       446--REDEF
M_DUMMY.NRECS#
       431**DCL       431--REDEF
M_DUMMY.NRECX
       458**DCL       458--REDEF
M_DUMMY.OHDR
       447**DCL       447--REDEF
M_DUMMY.ORG#
       422**DCL       423--REDEF
M_DUMMY.PRECNO
       455**DCL       455--REDEF
M_DUMMY.RCSZ
       463**DCL       463--REDEF
M_DUMMY.RES#
       416**DCL       416--REDEF
M_DUMMY.SETX
       435**DCL       435--REDEF
M_DUMMY.TAB$
       434**DCL       434--REDEF
M_DUMMY.TDA
       454**DCL       455--REDEF
M_DUMMY.WSN#
       416**DCL       417--REDEF
PL6.E3A0      #001=ID_G1RO_D File=ID_G1RO_D.:E05TSI                              TUE 07/29/97 22:32 Page:11
M_LM.ACTPOS
       214**DCL       214--REDEF
M_LM.ARS#
       173**DCL       173--REDEF
M_LM.ATTR#
       203**DCL       203--REDEF     205--REDEF
M_LM.BORROW
       225**DCL       225--REDEF     225--REDEF     225--REDEF
M_LM.EOMCHAR#
       180**DCL       181--REDEF
M_LM.FLDID
       217**DCL       218--REDEF
M_LM.FORM$
       209**DCL       209--REDEF
M_LM.FSECT
       232**DCL       232--REDEF
M_LM.FSN#
       199**DCL       199--REDEF     199--REDEF     200--REDEF
M_LM.HEADER$
       208**DCL       209--REDEF
M_LM.IXTNSIZE#
       205**DCL       206--REDEF
M_LM.LASTSTA$
       189**DCL       189--REDEF
M_LM.LVL
       226**DCL       226--REDEF
M_LM.NAME#.C
       189**DCL       190--REDEF
M_LM.NOEOF
       221**DCL       221--REDEF
M_LM.NRECS#
       206**DCL       206--REDEF
M_LM.NRECX
       233**DCL       233--REDEF
M_LM.OHDR
       222**DCL       222--REDEF
PL6.E3A0      #001=ID_G1RO_D File=ID_G1RO_D.:E05TSI                              TUE 07/29/97 22:32 Page:12
M_LM.ORG#
       197**DCL       198--REDEF
M_LM.PRECNO
       230**DCL       230--REDEF
M_LM.RCSZ
       238**DCL       238--REDEF
M_LM.RES#
       191**DCL       191--REDEF
M_LM.SETX
       210**DCL       210--REDEF
M_LM.TAB$
       209**DCL       209--REDEF
M_LM.TDA
       229**DCL       230--REDEF
M_LM.WSN#
       191**DCL       192--REDEF
M_STAR.ACTPOS
       139**DCL       139--REDEF
M_STAR.ARS#
        98**DCL        98--REDEF
M_STAR.ATTR#
       128**DCL       128--REDEF     130--REDEF
M_STAR.BORROW
       150**DCL       150--REDEF     150--REDEF     150--REDEF
M_STAR.EOMCHAR#
       105**DCL       106--REDEF
M_STAR.FLDID
       142**DCL       143--REDEF
M_STAR.FORM$
       134**DCL       134--REDEF
M_STAR.FSECT
       157**DCL       157--REDEF
M_STAR.FSN#
       124**DCL       124--REDEF     124--REDEF     125--REDEF
M_STAR.HEADER$
       133**DCL       134--REDEF
PL6.E3A0      #001=ID_G1RO_D File=ID_G1RO_D.:E05TSI                              TUE 07/29/97 22:32 Page:13
M_STAR.IXTNSIZE#
       130**DCL       131--REDEF
M_STAR.LASTSTA$
       114**DCL       114--REDEF
M_STAR.LVL
       151**DCL       151--REDEF
M_STAR.NAME#.C
       114**DCL       115--REDEF
M_STAR.NOEOF
       146**DCL       146--REDEF
M_STAR.NRECS#
       131**DCL       131--REDEF
M_STAR.NRECX
       158**DCL       158--REDEF
M_STAR.OHDR
       147**DCL       147--REDEF
M_STAR.ORG#
       122**DCL       123--REDEF
M_STAR.PRECNO
       155**DCL       155--REDEF
M_STAR.RCSZ
       163**DCL       163--REDEF
M_STAR.RES#
       116**DCL       116--REDEF
M_STAR.SETX
       135**DCL       135--REDEF
M_STAR.TAB$
       134**DCL       134--REDEF
M_STAR.TDA
       154**DCL       155--REDEF
M_STAR.WSN#
       116**DCL       117--REDEF
M_UC.ACTPOS
       289**DCL       289--REDEF
M_UC.ARS#
       248**DCL       248--REDEF
PL6.E3A0      #001=ID_G1RO_D File=ID_G1RO_D.:E05TSI                              TUE 07/29/97 22:32 Page:14
M_UC.ATTR#
       278**DCL       278--REDEF     280--REDEF
M_UC.BORROW
       300**DCL       300--REDEF     300--REDEF     300--REDEF
M_UC.EOMCHAR#
       255**DCL       256--REDEF
M_UC.FLDID
       292**DCL       293--REDEF
M_UC.FORM$
       284**DCL       284--REDEF
M_UC.FSECT
       307**DCL       307--REDEF
M_UC.FSN#
       274**DCL       274--REDEF     274--REDEF     275--REDEF
M_UC.HEADER$
       283**DCL       284--REDEF
M_UC.IXTNSIZE#
       280**DCL       281--REDEF
M_UC.LASTSTA$
       264**DCL       264--REDEF
M_UC.LVL
       301**DCL       301--REDEF
M_UC.NAME#.C
       264**DCL       265--REDEF
M_UC.NOEOF
       296**DCL       296--REDEF
M_UC.NRECS#
       281**DCL       281--REDEF
M_UC.NRECX
       308**DCL       308--REDEF
M_UC.OHDR
       297**DCL       297--REDEF
M_UC.ORG#
       272**DCL       273--REDEF
M_UC.PRECNO
       305**DCL       305--REDEF
PL6.E3A0      #001=ID_G1RO_D File=ID_G1RO_D.:E05TSI                              TUE 07/29/97 22:32 Page:15
M_UC.RCSZ
       313**DCL       313--REDEF
M_UC.RES#
       266**DCL       266--REDEF
M_UC.SETX
       285**DCL       285--REDEF
M_UC.TAB$
       284**DCL       284--REDEF
M_UC.TDA
       304**DCL       305--REDEF
M_UC.WSN#
       266**DCL       267--REDEF
