VERSION E05

PL6.E3A0      #001=IGL$HLP File=IGL$HLP.:E05TSI                                  TUE 07/29/97 22:36 Page:1
        1        1        /*M* IGL$HLP Load-and-transfer-control to SLUG to start users */
        2        2        /*T***********************************************************/
        3        3        /*T*                                                         */
        4        4        /*T* Copyright (c) Bull HN Information Systems Inc., 1997    */
        5        5        /*T*                                                         */
        6        6        /*T***********************************************************/
        7        7        /*X* */
        8        8        /**/
        9        9        /**/
       10       10        IGL$HLP: PROC;
       11       11        /**/
       12       12        /**/
       13       13        %INCLUDE CP_6;
       14       94        %INCLUDE U$JIT_C;
       15      280        %INCLUDE JC_SCODE_C;
       16      296        /**/
       17      297        %B$TCB;
       18      300        %B$ALT;
       19      308        %VLP_SCREECH (FPTN=SCNOSLUG,FCG='1107'O,MID=L,MON=NO,CODE=%S$NOSLUG,
       20      309                  SEV=SEV_SCREECH,LRM=NO,
       21      310                  CFUS=NO,ASAVE=NO,ENQ=NO,DS4=NO,DS5=NO,DS6=NO,LDCTS=NO,
       22      311                  PPUT=YES,SHJIT=NO,CWSPT=NO,PMST=NO,PMDATA=NO,
       23      312                  MPROC=NO,CUSR=YES,CUSRS=NO,IOUSRS=NO,ALLUSR=NO,SPBUF=YES,
       24      313                  FMBUF=YES,ROSEG=YES,ISEG=YES,DDSEG=NO,DBSEG=NO,ASLSEG=NO,
       25      314                  CPSEG=NO);
       26      384        /**/
       27      385        /**/
       28      386    1   DCL ERCOD  BIT(36) STATIC DALIGNED;
       29      387    1   DCL B$TCB$ PTR SYMREF;
       30      388    1   DCL B$JIT$ PTR SYMREF;
       31      389        /**/
       32      390        /**/
       33      391        %FPT_LDTRC (STCLASS=CONSTANT,NAME=SLNM,ACCT=SLACCT);
       34      409        %VLP_NAME (STCLASS=CONSTANT,FPTN=SLNM,NAME='SLUG');
       35      436        %VLP_ACCT (STCLASS=CONSTANT,FPTN=SLACCT,ACCT=':SYS');
       36      449        %FPT_SCREECH (FPTN=NOSLUG,SCODE=SCNOSLUG,JERR=ERCOD,STCLASS=CONSTANT);
       37      463        /**/
PL6.E3A0      #001=IGL$HLP File=IGL$HLP.:E05TSI                                  TUE 07/29/97 22:36 Page:2
       38      464        /**/
       39      465    1           B$JIT.UNAME = 'SLUG';
       40      466    1           B$JIT.CCBUF = 'SLUG';
       41      467    1           CALL M$LDTRC (FPT_LDTRC) ALTRET (BADTRC);
       42      468    1   BADTRC: ;
       43      469    1           ERCOD=B$TCB$->B$TCB.ALT$->B$ALT.ERR;
       44      470        /*S*  SCREECH_CODE:  IGL-S$NOSLUG
       45      471              TYPE:    Screech
       46      472              MESSAGE: GHOST1 unable to start SLUG
       47      473              REMARKS: At the end of SYSMAK GHOST1 attempts to replace itself
       48      474                       with SLUG via M$LDTRC.  The failure of this PMME results
       49      475                       in a screech IGL-250-7.                                      */
       50      476    1           CALL M$SCREECH (NOSLUG);
       51      477        /**/
       52      478    1   END;
       53      479        /**/
       54      480        /**/

PL6.E3A0      #001=IGL$HLP File=IGL$HLP.:E05TSI                                  TUE 07/29/97 22:36 Page:3
--  Include file information  --

   JC_SCODE_C.:E05TOU  is referenced.
   U$JIT_C.:E05TOU  cannot be made into a system file and is referenced.
   CP_6.:E05TOU  cannot be made into a system file and is referenced.
   B$JIT_C.:E05TOU  was found in the system file and is referenced.
   CP_6_C.:E05TOU  was found in the system file and is referenced.
      No diagnostics issued in procedure IGL$HLP.

   Procedure IGL$HLP requires 21 words for executable code.
   Procedure IGL$HLP requires 4 words of local(AUTO) storage.

    No errors detected in file IGL$HLP.:E05TSI    .

PL6.E3A0      #001=IGL$HLP File=IGL$HLP.:E05TSI                                  TUE 07/29/97 22:36 Page:4

 Object Unit name= IGL$HLP                                    File name= IGL$HLP.:E05TOU
 UTS= JUL 29 '97 22:36:02.48 TUE                              Compiler= PL-6/E31         Sev=      00
 SharedLib= :SHARED_SYSTEM                                    Alt SharedLib=


    ****  Control sections  ****

 Sect   Type Bound  Init  Size OctSiz  Section name(segment info)
    0   DCB   even  none     0      0  M$UC
    1   Data  even  none     4      4  IGL$HLP
    2  RoData even  UTS     27     33  IGL$HLP
    3   Proc  even  none    21     25  IGL$HLP

    ****  Entry defs  ****

                              Check   Calling
                             calling  sequence
  Sect OctLoc Primary Altret sequence   type   Parms  Name
     3      0   yes            yes      Std        0  IGL$HLP

  ****  Entry refs  ****

         Check        Calling
        calling       sequence
Altret sequence SRef   type   Args  Name
                       nStd      0 X66_AUTO_0
                       nStd      0 X66_ARET

  ****  Data refs  ****

  Flags:  r = read only, s = secondary
Flgs Name                             Flgs Name                             Flgs Name
     M$UC                                  B$TCB$                                B$JIT$
PL6.E3A0      #001=IGL$HLP File=IGL$HLP.:E05TSI                                  TUE 07/29/97 22:36 Page:5

  ****  Segment refs  ****

  Flags:  r = read only, s = secondary
Flgs Name                             Flgs Name                             Flgs Name
     ISSID                                 NULLSID
PL6.E3A0      #001=IGL$HLP File=IGL$HLP.:E05TSI                                  TUE 07/29/97 22:36 Page:6


        1        1        /*M* IGL$HLP Load-and-transfer-control to SLUG to start users */
        2        2        /*T***********************************************************/
        3        3        /*T*                                                         */
        4        4        /*T* Copyright (c) Bull HN Information Systems Inc., 1997    */
        5        5        /*T*                                                         */
        6        6        /*T***********************************************************/
        7        7        /*X* */
        8        8        /**/
        9        9        /**/
       10       10        IGL$HLP: PROC;

     10  3 000000   000000 700200 xent  IGL$HLP      TSX0  ! X66_AUTO_0
         3 000001   000004 000000                    ZERO    4,0

       11       11        /**/
       12       12        /**/
       13       13        %INCLUDE CP_6;
       14       94        %INCLUDE U$JIT_C;
       15      280        %INCLUDE JC_SCODE_C;
       16      296        /**/
       17      297        %B$TCB;
       18      300        %B$ALT;
       19      308        %VLP_SCREECH (FPTN=SCNOSLUG,FCG='1107'O,MID=L,MON=NO,CODE=%S$NOSLUG,
       20      309                  SEV=SEV_SCREECH,LRM=NO,
       21      310                  CFUS=NO,ASAVE=NO,ENQ=NO,DS4=NO,DS5=NO,DS6=NO,LDCTS=NO,
       22      311                  PPUT=YES,SHJIT=NO,CWSPT=NO,PMST=NO,PMDATA=NO,
       23      312                  MPROC=NO,CUSR=YES,CUSRS=NO,IOUSRS=NO,ALLUSR=NO,SPBUF=YES,
       24      313                  FMBUF=YES,ROSEG=YES,ISEG=YES,DDSEG=NO,DBSEG=NO,ASLSEG=NO,
       25      314                  CPSEG=NO);
       26      384        /**/
       27      385        /**/
       28      386    1   DCL ERCOD  BIT(36) STATIC DALIGNED;
       29      387    1   DCL B$TCB$ PTR SYMREF;
       30      388    1   DCL B$JIT$ PTR SYMREF;
       31      389        /**/
       32      390        /**/
PL6.E3A0      #001=IGL$HLP File=IGL$HLP.:E05TSI                                  TUE 07/29/97 22:36 Page:7
       33      391        %FPT_LDTRC (STCLASS=CONSTANT,NAME=SLNM,ACCT=SLACCT);
       34      409        %VLP_NAME (STCLASS=CONSTANT,FPTN=SLNM,NAME='SLUG');
       35      436        %VLP_ACCT (STCLASS=CONSTANT,FPTN=SLACCT,ACCT=':SYS');
       36      449        %FPT_SCREECH (FPTN=NOSLUG,SCODE=SCNOSLUG,JERR=ERCOD,STCLASS=CONSTANT);
       37      463        /**/
       38      464        /**/
       39      465    1           B$JIT.UNAME = 'SLUG';

    465  3 000002   000000 470400 xsym               LDP0    B$JIT$
         3 000003   040100 100400                    MLR     fill='040'O
         3 000004   000032 000004 2                  ADSC9   NOSLUG+6                 cn=0,n=4
         3 000005   000003 000014                    ADSC9   3,,PR0                   cn=0,n=12

       40      466    1           B$JIT.CCBUF = 'SLUG';

    466  3 000006   040100 100400                    MLR     fill='040'O
         3 000007   000032 000004 2                  ADSC9   NOSLUG+6                 cn=0,n=4
         3 000010   000033 000400                    ADSC9   27,,PR0                  cn=0,n=256

       41      467    1           CALL M$LDTRC (FPT_LDTRC) ALTRET (BADTRC);

    467  3 000011   000000 630400 2                  EPPR0   FPT_LDTRC
         3 000012   400006 713400                    CLIMB   alt,+6
         3 000013   403000 401760                    pmme    nvectors=7
         3 000014   000015 702000 3                  TSX2    BADTRC

    466  3 000015                       BADTRC       null
       42      468    1   BADTRC: ;
       43      469    1           ERCOD=B$TCB$->B$TCB.ALT$->B$ALT.ERR;

    469  3 000015   000000 470400 xsym               LDP0    B$TCB$
         3 000016   000000 471500                    LDP1    0,,PR0
         3 000017   100102 236100                    LDQ     66,,PR1
         3 000020   000002 756000 1                  STQ     ERCOD

       44      470        /*S*  SCREECH_CODE:  IGL-S$NOSLUG
       45      471              TYPE:    Screech
PL6.E3A0      #001=IGL$HLP File=IGL$HLP.:E05TSI                                  TUE 07/29/97 22:36 Page:8
       46      472              MESSAGE: GHOST1 unable to start SLUG
       47      473              REMARKS: At the end of SYSMAK GHOST1 attempts to replace itself
       48      474                       with SLUG via M$LDTRC.  The failure of this PMME results
       49      475                       in a screech IGL-250-7.                                      */
       50      476    1           CALL M$SCREECH (NOSLUG);

    476  3 000021   000024 630400 2                  EPPR0   NOSLUG
         3 000022   000013 713400                    CLIMB   11
         3 000023   401000 401760                    pmme    nvectors=3

       51      477        /**/
       52      478    1   END;

    478  3 000024   000000 702200 xent               TSX2  ! X66_ARET
       53      479        /**/
       54      480        /**/

PL6.E3A0      #001=IGL$HLP File=IGL$HLP.:E05TSI                                  TUE 07/29/97 22:36 Page:9
--  Include file information  --

   JC_SCODE_C.:E05TOU  is referenced.
   U$JIT_C.:E05TOU  cannot be made into a system file and is referenced.
   CP_6.:E05TOU  cannot be made into a system file and is referenced.
   B$JIT_C.:E05TOU  was found in the system file and is referenced.
   CP_6_C.:E05TOU  was found in the system file and is referenced.
      No diagnostics issued in procedure IGL$HLP.
PL6.E3A0      #001=IGL$HLP File=IGL$HLP.:E05TSI                                  TUE 07/29/97 22:36 Page:10

 **** Variables and constants ****

  ****  Section 001  Data  IGL$HLP

  ****  Scalars and arrays  ****
OctLoc.c.b A Datatyp(siz) R M Lvl/name                 OctLoc.c.b A Datatyp(siz) R M Lvl/name

     2-0-0/d BIT         r     1 ERCOD                      0-0-0/d STRC(72)    r     1 SCNOSLUG

  ****  Section 002 RoData IGL$HLP

  ****  Scalars and arrays  ****
OctLoc.c.b A Datatyp(siz) R M Lvl/name                 OctLoc.c.b A Datatyp(siz) R M Lvl/name

     0-0-0/d STRC(576)   r     1 FPT_LDTRC                 24-0-0/d STRC(216)   r     1 NOSLUG
    22-0-0/c STRC(72)    r     1 SLACCT                    20-0-0/c STRC(45)    r     1 SLNM

  ****  SYMREF variables  ****

  ****  Scalars and arrays  ****
OctLoc.c.b A Datatyp(siz) R M Lvl/name                 OctLoc.c.b A Datatyp(siz) R M Lvl/name

     0-0-0/w PTR         r     1 B$JIT$                     0-0-0/w PTR         r     1 B$TCB$

  ****  BASED and DCB variables  ****

  ****  Scalars and arrays  ****
OctLoc.c.b A Datatyp(siz) R M Lvl/name                 OctLoc.c.b A Datatyp(siz) R M Lvl/name

     0-0-0/w STRC(2448)  r     1 B$ALT                      0-0-0/d STRC(8856)  r     1 B$JIT
     0-0-0/w STRC(144)   r     1 B$TCB


   Procedure IGL$HLP requires 21 words for executable code.
   Procedure IGL$HLP requires 4 words of local(AUTO) storage.
PL6.E3A0      #001=IGL$HLP File=IGL$HLP.:E05TSI                                  TUE 07/29/97 22:36 Page:11

    No errors detected in file IGL$HLP.:E05TSI    .
PL6.E3A0      #001=IGL$HLP File=IGL$HLP.:E05TSI                                  TUE 07/29/97 22:36 Page:12
          *** CROSS REFERENCE LISTING ***
**     DENOTES     IDENTIFIER DEFINITION
<<                 IDENTIFIER'S VALUE SET
>>                 IDENTIFIER'S VALUE USED
<>                 IDENTIFIER SET AND/OR USED
--                 IDENTIFIER REFERENCED
PL6.E3A0      #001=IGL$HLP File=IGL$HLP.:E05TSI                                  TUE 07/29/97 22:36 Page:13
          MINI XREF LISTING

B$ALT.CODE
       302**DCL       302--REDEF     303--REDEF     303--REDEF
B$ALT.ERR
       303**DCL       469>>ASSIGN
B$ALT.ERR.ERR#
       304**DCL       304--REDEF
B$ALT.EVID
       303**DCL       303--REDEF     303--REDEF
B$JIT.CCBUF
       196**DCL       466<<ASSIGN
B$JIT.CPFLAGS1.SLEAZE
       202**DCL       202--REDEF
B$JIT.ERR.MID
       109**DCL       109--REDEF
B$JIT.UNAME
       108**DCL       465<<ASSIGN
B$JIT$
       388**DCL       103--IMP-PTR   465>>ASSIGN    466>>ASSIGN
B$TCB.ALT$
       298**DCL       469>>ASSIGN
B$TCB$
       387**DCL       469>>ASSIGN
BADTRC
       466**LABEL     467--CALLALT
ERCOD
       386**DCL       460--DCLINIT   469<<ASSIGN
FPT_LDTRC
       404**DCL       467<>CALL
FPT_LDTRC.V
       406**DCL       406--DCLINIT
M$LDTRC
        35**DCL-ENT   467--CALL
PL6.E3A0      #001=IGL$HLP File=IGL$HLP.:E05TSI                                  TUE 07/29/97 22:36 Page:14
M$SCREECH
        36**DCL-ENT   476--CALL
NOSLUG
       460**DCL       476<>CALL
SCNOSLUG
       337**DCL       460--DCLINIT
SLACCT
       447**DCL       404--DCLINIT
SLNM
       434**DCL       404--DCLINIT
PL6.E3A0      #001=IGL$HLP File=IGL$HLP.:E05TSI                                  TUE 07/29/97 22:36 Page:15
              *** CROSS REFERENCE LISTING ***
    **     DENOTES     IDENTIFIER DEFINITION
    <<                 IDENTIFIER'S VALUE SET
    >>                 IDENTIFIER'S VALUE USED
    <>                 IDENTIFIER SET AND/OR USED
    --                 IDENTIFIER REFERENCED
PL6.E3A0      #001=IGL$HLP File=IGL$HLP.:E05TSI                                  TUE 07/29/97 22:36 Page:16
              MINI UREF LISTING

IGL$HLP      10**PROC
M$ACCT      39**DCL-ENT
M$ACTIVATE      42**DCL-ENT
M$ALIB      35**DCL-ENT
M$ASUSER      37**DCL-ENT
M$ATTACH      44**DCL-ENT
M$BADPP      62**DCL-ENT
M$CGCTL      43**DCL-ENT
M$CGINFO      43**DCL-ENT
M$CHECK      24**DCL-ENT
M$CHGUNIT      82**DCL-ENT
M$CLOSE      22**DCL-ENT
M$CLRSTK      80**DCL-ENT
M$CMDVAR      91**DCL-ENT
M$CONFIG      52**DCL-ENT
M$CORRES      27**DCL-ENT
M$CPEXIT      36**DCL-ENT
M$CVM      60**DCL-ENT
M$CVOL      25**DCL-ENT
M$DCLFLD      52**DCL-ENT
M$DEACTIVATE      42**DCL-ENT
M$DELREC      24**DCL-ENT
M$DEQ      89**DCL-ENT
M$DETACH      44**DCL-ENT
M$DEVICE      26**DCL-ENT
M$DISPLAY      89**DCL-ENT
M$DISPRES      29**DCL-ENT
M$DLIB      35**DCL-ENT
M$DRIBBLE      52**DCL-ENT
M$DRTN      80**DCL-ENT
M$DSUSER      37**DCL-ENT
M$ENQ      88**DCL-ENT
PL6.E3A0      #001=IGL$HLP File=IGL$HLP.:E05TSI                                  TUE 07/29/97 22:36 Page:17
M$EOM      47**DCL-ENT
M$ERASE      53**DCL-ENT
M$ERR      34**DCL-ENT
M$ERRMSG      85**DCL-ENT
M$EVENT      77**DCL-ENT
M$EXHUME      86**DCL-ENT
M$EXIT      34**DCL-ENT
M$EXTEND      26**DCL-ENT
M$FDP      58**DCL-ENT
M$FDS      57**DCL-ENT
M$FEBOOT      50**DCL-ENT
M$FECTL      51**DCL-ENT
M$FEDUMP      50**DCL-ENT
M$FID      85**DCL-ENT
M$FINDPROC      39**DCL-ENT
M$FSUSER      37**DCL-ENT
M$FVP      59**DCL-ENT
M$FWCG      43**DCL-ENT
M$GBPL      63**DCL-ENT
M$GDDL      59**DCL-ENT
M$GDP      58**DCL-ENT
M$GDS      57**DCL-ENT
M$GETDCB      28**DCL-ENT
M$GETMOUSE      68**DCL-ENT
M$GETPM      69**DCL-ENT
M$GJOB      87**DCL-ENT
M$GLINEATTR      47**DCL-ENT
M$GOODPP      62**DCL-ENT
M$GPLATEN      55**DCL-ENT
M$GPROMPT      54**DCL-ENT
M$GTRMATTR      48**DCL-ENT
M$GTRMCTL      46**DCL-ENT
M$GTRMTAB      49**DCL-ENT
M$GVP      58**DCL-ENT
M$HELP      85**DCL-ENT
M$INT      77**DCL-ENT
PL6.E3A0      #001=IGL$HLP File=IGL$HLP.:E05TSI                                  TUE 07/29/97 22:36 Page:18
M$INTRTN      38**DCL-ENT
M$IOQ      73**DCL-ENT
M$JOBSTATS      87**DCL-ENT
M$KEYIN      27**DCL-ENT
M$LDEV      22**DCL-ENT
M$LIMIT      28**DCL-ENT
M$LINES      27**DCL-ENT
M$LINK      34**DCL-ENT
M$MADMUCK      30**DCL-ENT
M$MAKUSER      61**DCL-ENT
M$MBS      29**DCL-ENT
M$MDFFLD      53**DCL-ENT
M$MERC      78**DCL-ENT
M$MERCS      79**DCL-ENT
M$MIRROR      73**DCL-ENT
M$MONINFO      90**DCL-ENT
M$MPL      63**DCL-ENT
M$NODEINFO      54**DCL-ENT
M$NXTUSR      88**DCL-ENT
M$OCMSG      86**DCL-ENT
M$OLAY      34**DCL-ENT
M$OPEN      22**DCL-ENT
M$PAS      63**DCL-ENT
M$PATHCON      86**DCL-ENT
M$PDS      57**DCL-ENT
M$PFIL      24**DCL-ENT
M$PLATEN      48**DCL-ENT
M$PRECORD      26**DCL-ENT
M$PROCNAME      39**DCL-ENT
M$PROFILE      50**DCL-ENT
M$PROMPT      46**DCL-ENT
M$RACST      30**DCL-ENT
M$RDSYSLOG      71**DCL-ENT
M$READ      23**DCL-ENT
M$RELDCB      28**DCL-ENT
M$RELRES      29**DCL-ENT
PL6.E3A0      #001=IGL$HLP File=IGL$HLP.:E05TSI                                  TUE 07/29/97 22:36 Page:19
M$RELSTARF      31**DCL-ENT
M$REM      31**DCL-ENT
M$RENV      78**DCL-ENT
M$REQUIRE      30**DCL-ENT
M$RETRY      79**DCL-ENT
M$RETRYS      79**DCL-ENT
M$REW      25**DCL-ENT
M$RLSFLD      53**DCL-ENT
M$RPRIV      81**DCL-ENT
M$RSPP      60**DCL-ENT
M$RSWITCH      82**DCL-ENT
M$RUE      88**DCL-ENT
M$SAD      61**DCL-ENT
M$SAVE      37**DCL-ENT
M$SCON      38**DCL-ENT
M$SENV      78**DCL-ENT
M$SETFMA      22**DCL-ENT
M$SETFP      51**DCL-ENT
M$SINPUT      49**DCL-ENT
M$SLCFLD      54**DCL-ENT
M$SMOUSE      68**DCL-ENT
M$SMPRT      60**DCL-ENT
M$SPRIV      81**DCL-ENT
M$SSC      61**DCL-ENT
M$SSWITCH      81**DCL-ENT
M$STATE      90**DCL-ENT
M$STD      62**DCL-ENT
M$STIMER      76**DCL-ENT
M$STLPP      59**DCL-ENT
M$STRAP      76**DCL-ENT
M$STRMATTR      48**DCL-ENT
M$STRMCTL      46**DCL-ENT
M$STRMTAB      49**DCL-ENT
M$SYMBIO      87**DCL-ENT
M$SYSCON      73**DCL-ENT
M$SYSID      91**DCL-ENT
PL6.E3A0      #001=IGL$HLP File=IGL$HLP.:E05TSI                                  TUE 07/29/97 22:36 Page:20
M$TDCLOSE      72**DCL-ENT
M$TDIO      72**DCL-ENT
M$TDOPEN      71**DCL-ENT
M$TDREQCPU      72**DCL-ENT
M$TEMPWROC      66**DCL-ENT
M$TIME      89**DCL-ENT
M$TRAP      76**DCL-ENT
M$TRMISC      51**DCL-ENT
M$TRMPRG      47**DCL-ENT
M$TRTN      80**DCL-ENT
M$TRUNC      23**DCL-ENT
M$TTIMER      76**DCL-ENT
M$UC      46**DCL
M$UMPL      63**DCL-ENT
M$UNFID      85**DCL-ENT
M$UNLATCH      42**DCL-ENT
M$UNSHARE      39**DCL-ENT
M$USRFIELD      82**DCL-ENT
M$VIRTUAL      57**DCL-ENT
M$WAIT      80**DCL-ENT
M$WEOF      25**DCL-ENT
M$WRITE      23**DCL-ENT
M$WRSYSLOG      71**DCL-ENT
M$XCON      77**DCL-ENT
M$XCONRTN      38**DCL-ENT
M$XEQTIME      90**DCL-ENT
M$XFLUSH      31**DCL-ENT
M$XMOUSE      68**DCL-ENT
M$XXX      34**DCL-ENT
M$YC      36**DCL-ENT
