VERSION E05

PL6.E3A0      #001=IPE$LIST File=IPE$LIST.:E05TSI                                TUE 07/29/97 22:41 Page:1
        1        1        /*M* IPE$LIST - Routines for performing the SPIDER 'LIST' command. */
        2        2        /*T***********************************************************/
        3        3        /*T*                                                         */
        4        4        /*T* Copyright (c) Bull HN Information Systems Inc., 1997    */
        5        5        /*T*                                                         */
        6        6        /*T***********************************************************/
        7        7        /*X* PLM=8,IND=2,THI=2,ENU=2,CSU=2,DTI=4,DCI=4,ECU=4,AND */
        8        8        IPE$LIST: PROC(PNUM);
        9        9    1   DCL PNUM UBIN;                          /* Processor number to list data for  */
       10       10        /**/
       11       11        %INCLUDE B$P;
       12       95        %INCLUDE CP_6;
       13      176        /**/
       14      177    1   DCL UVAL UBIN;
       15      178    1   DCL 1 BVAL REDEF UVAL,
       16      179    1         2 * BIT(18) UNAL,
       17      180    1         2 LOWHALF BIT(18) UNAL;
       18      181    1   DCL TP$ PTR;
       19      182    1   DCL SIZE SBIN;
       20      183    1   DCL I SBIN;
       21      184    1   DCL IPNUM SBIN;
       22      185        /**/
       23      186    1   DCL DATE_BUF CHAR(6) STATIC;
       24      187    1   DCL 1 TIME_BUF STATIC,
       25      188    1         2 HH CHAR(2) UNAL,
       26      189    1         2 MM CHAR(2) UNAL,
       27      190    1         2 SSSS CHAR(4) UNAL;
       28      191    1   DCL UTS_BUF UBIN STATIC;
       29      192        %EJECT;
PL6.E3A0      #001=IPE$LIST File=IPE$LIST.:E05TSI                                TUE 07/29/97 22:41 Page:2
       30      193    1   DCL 1 LIST1_HDR1 STATIC,
       31      194    1         2 PNUM CHAR(4) UNAL INIT('  #'),
       32      195    1         2 NAME CHAR(13) UNAL INIT('NAME'),
       33      196    1         2 ACCT CHAR(9) UNAL INIT('ACCOUNT'),
       34      197    1         2 FLAGS CHAR(8) UNAL INIT('  FLAGS'),
       35      198    1         2 PRIV CHAR(14) UNAL INIT('         PRIV'),
       36      199    1         2 UC CHAR(4) UNAL INIT(' UC'),
       37      200    1         2 PPC CHAR(4) UNAL INIT('PPC'),
       38      201    1         2 PVA CHAR(5) UNAL INIT('PVA'),
       39      202    1         2 DVA CHAR(5) UNAL INIT('DVA'),
       40      203    1         2 HVA CHAR(5) UNAL INIT('HVA'),
       41      204    1         2 LNK CHAR(3) UNAL INIT('LNK');
       42      205        /**/
       43      206    1   DCL 1 LIST2_HDR1 STATIC,
       44      207    1         2 PNUM CHAR(4) UNAL INIT('  #'),
       45      208    1         2 NAME CHAR(13) UNAL INIT('NAME'),
       46      209    1         2 DSZ CHAR(8) UNAL INIT('    DSZ'),
       47      210    1         2 DADDR CHAR(8) UNAL INIT('  DADDR'),
       48      211    1         2 TCBSZ CHAR(5) UNAL INIT(' TCB'),
       49      212    1         2 SA CHAR(8) UNAL INIT('  START'),
       50      213    1         2 HPP CHAR(7) UNAL INIT('   HPP'),
       51      214    1         2 FRQ CHAR(6) UNAL INIT('  FRQ'),
       52      215    1         2 MODTIME CHAR(12) UNAL INIT('INSTALL-TIME'),
       53      216    1         2 LIB_LNK CHAR(4) UNAL INIT(' LIB');
       54      217        /**/
       55      218    1   DCL 1 LIST1_HDR2 STATIC,
       56      219    1         2 PNUM CHAR(4) UNAL INIT('--- '),
       57      220    1         2 NAME CHAR(13) UNAL INIT('------------ '),
       58      221    1         2 ACCT CHAR(9) UNAL INIT('-------- '),
       59      222    1         2 FLAGS CHAR(8) UNAL INIT('------- '),
       60      223    1         2 PRIV CHAR(14) UNAL INIT('-------------'),
       61      224    1         2 UC CHAR(4) UNAL INIT('--- '),
       62      225    1         2 PPC CHAR(4) UNAL INIT('--- '),
       63      226    1         2 PVA CHAR(5) UNAL INIT('---- '),
       64      227    1         2 DVA CHAR(5) UNAL INIT('---- '),
       65      228    1         2 HVA CHAR(5) UNAL INIT('---- '),
       66      229    1         2 LNK CHAR(3) UNAL INIT('---');
PL6.E3A0      #001=IPE$LIST File=IPE$LIST.:E05TSI                                TUE 07/29/97 22:41 Page:3
       67      230        /**/
       68      231    1   DCL 1 LIST2_HDR2 STATIC,
       69      232    1         2 PNUM CHAR(4) UNAL INIT('--- '),
       70      233    1         2 NAME CHAR(13) UNAL INIT('------------ '),
       71      234    1         2 DSZ CHAR(8) UNAL INIT('------- '),
       72      235    1         2 DADDR CHAR(8) UNAL INIT('------- '),
       73      236    1         2 TCBSZ CHAR(5) UNAL INIT('---- '),
       74      237    1         2 SA CHAR(8) UNAL INIT('------- '),
       75      238    1         2 HPP CHAR(7) UNAL INIT('------ '),
       76      239    1         2 FRQ CHAR(6) UNAL INIT('----- '),
       77      240    1         2 MODTIME CHAR(12) UNAL INIT('------------'),
       78      241    1         2 LIB_LNK CHAR(4) UNAL INIT(' ---');
       79      242        %EJECT;
PL6.E3A0      #001=IPE$LIST File=IPE$LIST.:E05TSI                                TUE 07/29/97 22:41 Page:4
       80      243    1   DCL 1 LIST1 STATIC,
       81      244    1         2 PNUM CHAR(3) UNAL,
       82      245    1         2 * CHAR(1) UNAL,
       83      246    1         2 NAME CHAR(12) UNAL,
       84      247    1         2 * CHAR(1) UNAL,
       85      248    1         2 ACCT CHAR(8) UNAL,
       86      249    1         2 * CHAR(1) UNAL,
       87      250    1         2 FLGS CHAR(7) UNAL,
       88      251    1         2 * CHAR(1) UNAL,
       89      252    1         2 PRIV CHAR(13) UNAL,
       90      253    1         2 * CHAR(1) UNAL,
       91      254    1         2 UC CHAR(3) UNAL,
       92      255    1         2 * CHAR(1) UNAL,
       93      256    1         2 PPC CHAR(3) UNAL,
       94      257    1         2 * CHAR(1) UNAL,
       95      258    1         2 PVA CHAR(4) UNAL,
       96      259    1         2 * CHAR(1) UNAL,
       97      260    1         2 DVA CHAR(4) UNAL,
       98      261    1         2 * CHAR(1) UNAL,
       99      262    1         2 HVA CHAR(4) UNAL,
      100      263    1         2 * CHAR(1) UNAL,
      101      264    1         2 LNK CHAR(2) UNAL;
      102      265    1   DCL LIST1_STR REDEF LIST1 CHAR(73);
      103      266        /**/
      104      267    1   DCL 1 LIST2 STATIC,
      105      268    1         2 PNUM CHAR(3) UNAL,
      106      269    1         2 * CHAR(1) UNAL,
      107      270    1         2 NAME CHAR(12) UNAL,
      108      271    1         2 * CHAR(1) UNAL,
      109      272    1         2 DSZ CHAR(7) UNAL,
      110      273    1         2 * CHAR(1) UNAL,
      111      274    1         2 DADDR CHAR(7) UNAL,
      112      275    1         2 * CHAR(1) UNAL,
      113      276    1         2 TCBSZ CHAR(4) UNAL,
      114      277    1         2 * CHAR(1) UNAL,
      115      278    1         2 SA CHAR(7) UNAL,
      116      279    1         2 * CHAR(1) UNAL,
PL6.E3A0      #001=IPE$LIST File=IPE$LIST.:E05TSI                                TUE 07/29/97 22:41 Page:5
      117      280    1         2 HPP CHAR(6) UNAL,
      118      281    1         2 * CHAR(1) UNAL,
      119      282    1         2 FRQ CHAR(5) UNAL,
      120      283    1         2 * CHAR(1) UNAL,
      121      284    1         2 MODTIME,
      122      285    1           3 YY CHAR(6) UNAL,
      123      286    1           3 DASH CHAR(1) UNAL,
      124      287    1           3 HH CHAR(2) UNAL,
      125      288    1           3 COLON CHAR(1) UNAL,
      126      289    1           3 MM CHAR(2) UNAL,
      127      290    1         2 * CHAR(1) UNAL,
      128      291    1         2 LIB_LNK CHAR(3) UNAL;
      129      292    1   DCL LIST2_STR REDEF LIST2 CHAR(75);
      130      293        %EJECT;
PL6.E3A0      #001=IPE$LIST File=IPE$LIST.:E05TSI                                TUE 07/29/97 22:41 Page:6
      131      294        /**/
      132      295    1   DCL M$LO DCB;
      133      296    1   DCL P$ PTR SYMREF;
      134      297        /**/
      135      298    1   DCL 1 B$TEXTC BASED ALIGNED,
      136      299    1         2 COUNT UBIN(9) UNAL,
      137      300    1         2 TEXT CHAR(B$TEXTC.COUNT) UNAL;
      138      301    1   DCL B$CHAR8 CHAR(8) UNAL BASED;
      139      302        /**/
      140      303    1   DCL IPD$BINTXT ENTRY(4) ALTRET;
      141      304        /**/
      142      305        %MACRO PRINT(STR=NIL);
      143      306                WRITE_LO.BUF_ = VECTOR(STR);
      144      307                CALL M$WRITE(WRITE_LO);
      145      308        %MEND;
      146      309        /**/
      147      310                %SUB B$P=P$->B$P;
      148      311                %SUB OCT='1'B;
      149      312                %SUB DEC='0'B;
      150      313        /**/
      151      314                %FPT_WRITE(FPTN=WRITE_LO,
      152      315                DCB=M$LO);
      153      346                %FPT_TIME(SOURCE=UTS,
      154      347                DEST=ANS,
      155      348                DATE=DATE_BUF,
      156      349                TIME=TIME_BUF,
      157      350                TSTAMP=UTS_BUF);
      158      369        /**/
      159      370        %EJECT;
PL6.E3A0      #001=IPE$LIST File=IPE$LIST.:E05TSI                                TUE 07/29/97 22:41 Page:7
      160      371        /**/
      161      372        /*F*  NAME:     IPE$LIST1_INFO                                     */
      162      373        /*F*  PURPOSE:  To print a line of LIST information for a given    */
      163      374        /*,*            shared processor.                                  */
      164      375    1   IPE$LIST1_INFO: ENTRY(PNUM);
      165      376        /**/
      166      377    1           IPNUM = PNUM;
      167      378    1           IF NOT(B$P.FLGS(PNUM) & %P_OVRLY) THEN
      168      379    2               DO WHILE (IPNUM ~= 0);
      169      380    2                 LIST1_STR = ' ';
      170      381    2                 CALL IPD$BINTXT(ADDR(LIST1.PNUM),IPNUM,DEC,SIZEC(LIST1.PNUM));
      171      382    2                 TP$ = ADDR(B$P.NAME(IPNUM));
      172      383    2                 LIST1.NAME = TP$->B$TEXTC.TEXT;
      173      384    2                 TP$ = ADDR(B$P.ACCT(IPNUM));
      174      385    2                 LIST1.ACCT = TP$->B$CHAR8;
      175      386    2                 UVAL = 0;
      176      387    2                 BVAL.LOWHALF = B$P.FLGS(IPNUM);
      177      388    2                 CALL IPD$BINTXT(ADDR(LIST1.FLGS),UVAL,OCT,SIZEC(LIST1.FLGS));
      178      389    2                 UVAL = BITBIN(B$P.PRIV(IPNUM));
      179      390    2                 CALL IPD$BINTXT(ADDR(LIST1.PRIV),UVAL,OCT,SIZEC(LIST1.PRIV));
      180      391    2                 UVAL = B$P.UC(IPNUM);
      181      392    2                 CALL IPD$BINTXT(ADDR(LIST1.UC),UVAL,DEC,SIZEC(LIST1.UC));
      182      393    2                 UVAL = B$P.PPC(IPNUM);
      183      394    2                 CALL IPD$BINTXT(ADDR(LIST1.PPC),UVAL,DEC,SIZEC(LIST1.PPC));
      184      395    2                 UVAL = B$P.PVA(IPNUM);
      185      396    2                 CALL IPD$BINTXT(ADDR(LIST1.PVA),UVAL,DEC,SIZEC(LIST1.PVA));
      186      397    2                 UVAL = B$P.DVA(IPNUM);
      187      398    2                 CALL IPD$BINTXT(ADDR(LIST1.DVA),UVAL,DEC,SIZEC(LIST1.DVA));
      188      399    2                 UVAL = B$P.HVA(IPNUM);
      189      400    2                 CALL IPD$BINTXT(ADDR(LIST1.HVA),UVAL,DEC,SIZEC(LIST1.HVA));
      190      401    2                 UVAL = B$P.LNK(IPNUM);
      191      402    2                 CALL IPD$BINTXT(ADDR(LIST1.LNK),UVAL,DEC,SIZEC(LIST1.LNK));
      192      403                      %PRINT(STR=LIST1);
      193      407    2                 IPNUM = B$P.LNK(IPNUM);
      194      408    2               END;
      195      409    1           RETURN;
      196      410        /**/
PL6.E3A0      #001=IPE$LIST File=IPE$LIST.:E05TSI                                TUE 07/29/97 22:41 Page:8
      197      411        %EJECT;
PL6.E3A0      #001=IPE$LIST File=IPE$LIST.:E05TSI                                TUE 07/29/97 22:41 Page:9
      198      412        /**/
      199      413        /*F*    NAME:   IPE$LIST2_INFO
      200      414                PURPOSE: To print the second line of LIST information for
      201      415                        a given shared program.                            */
      202      416    1   IPE$LIST2_INFO: ENTRY(PNUM);
      203      417        /**/
      204      418    1           IPNUM = PNUM;
      205      419    1           IF NOT(B$P.FLGS(PNUM) & %P_OVRLY) THEN
      206      420    2               DO WHILE (IPNUM ~= 0);
      207      421    2                 LIST2_STR = ' ';
      208      422    2                 LIST2.MODTIME.DASH = '-';
      209      423    2                 LIST2.MODTIME.COLON = ':';
      210      424    2                 CALL IPD$BINTXT(ADDR(LIST2.PNUM),IPNUM,DEC,SIZEC(LIST2.PNUM));
      211      425    2                 TP$ = ADDR(B$P.NAME(IPNUM));
      212      426    2                 LIST2.NAME = TP$->B$TEXTC.TEXT;
      213      427    2                 UVAL = B$P.DSZ(IPNUM);
      214      428    2                 CALL IPD$BINTXT(ADDR(LIST2.DSZ),UVAL,OCT,SIZEC(LIST2.DSZ));
      215      429    2                 UVAL = B$P.DADDR(IPNUM);
      216      430    2                 CALL IPD$BINTXT(ADDR(LIST2.DADDR),UVAL,OCT,SIZEC(LIST2.DADDR));
      217      431    2                 UVAL = B$P.TCBSZ(IPNUM);
      218      432    2                 CALL IPD$BINTXT(ADDR(LIST2.TCBSZ),UVAL,DEC,SIZEC(LIST2.TCBSZ));
      219      433    2                 UVAL = B$P.SA(IPNUM);
      220      434    2                 CALL IPD$BINTXT(ADDR(LIST2.SA),UVAL,OCT,SIZEC(LIST2.SA));
      221      435    2                 UVAL = B$P.HPP(IPNUM);
      222      436    2                 CALL IPD$BINTXT(ADDR(LIST2.HPP),UVAL,OCT,SIZEC(LIST2.HPP));
      223      437    2                 UVAL = B$P.FRQ(IPNUM);
      224      438    2                 CALL IPD$BINTXT(ADDR(LIST2.FRQ),UVAL,DEC,SIZEC(LIST2.FRQ));
      225      439    2                 UTS_BUF = B$P.INSTDATE(IPNUM);
      226      440    2                 CALL M$TIME(FPT_TIME);
      227      441    2                 LIST2.MODTIME.YY = DATE_BUF;
      228      442    2                 LIST2.MODTIME.HH = TIME_BUF.HH;
      229      443    2                 LIST2.MODTIME.MM = TIME_BUF.MM;
      230      444    2                 UVAL = B$P.LIB_LNK(IPNUM);
      231      445    2                 CALL IPD$BINTXT(ADDR(LIST2.LIB_LNK),UVAL,DEC,SIZEC(LIST2.LIB_LNK));
      232      446                      %PRINT(STR=LIST2);
      233      450    2                 IPNUM = B$P.LNK(IPNUM);
      234      451    2               END;
PL6.E3A0      #001=IPE$LIST File=IPE$LIST.:E05TSI                                TUE 07/29/97 22:41 Page:10
      235      452    1           RETURN;
      236      453        /**/
      237      454        %EJECT;
PL6.E3A0      #001=IPE$LIST File=IPE$LIST.:E05TSI                                TUE 07/29/97 22:41 Page:11
      238      455        /**/
      239      456        /*F*    NAME:   IPE$LIST1_HDR                                      */
      240      457        /*F*    PURPOSE: To print the header lines for a processor LIST.   */
      241      458    1   IPE$LIST1_HDR: ENTRY;
      242      459                %PRINT(STR=LIST1_HDR1);
      243      463                %PRINT(STR=LIST1_HDR2);
      244      467    1           RETURN;
      245      468        /**/
      246      469        %EJECT;
PL6.E3A0      #001=IPE$LIST File=IPE$LIST.:E05TSI                                TUE 07/29/97 22:41 Page:12
      247      470        /**/
      248      471        /*F*    NAME:   IPE$LIST2_HDR
      249      472                PURPOSE: To print the header lines for the second line of
      250      473                        processor LIST information.                        */
      251      474    1   IPE$LIST2_HDR: ENTRY;
      252      475                %PRINT(STR=LIST2_HDR1);
      253      479                %PRINT(STR=LIST2_HDR2);
      254      483    1           RETURN;
      255      484        /**/
      256      485        /**/
      257      486    1   END IPE$LIST;

PL6.E3A0      #001=IPE$LIST File=IPE$LIST.:E05TSI                                TUE 07/29/97 22:41 Page:13
--  Include file information  --

   CP_6.:E05TOU  cannot be made into a system file and is referenced.
   B$P.:E05TOU  cannot be made into a system file and is referenced.
   B$JIT_C.:E05TOU  was found in the system file and is never referenced.
   CP_6_C.:E05TOU  was found in the system file and is referenced.
      No diagnostics issued in procedure IPE$LIST.

   Procedure IPE$LIST requires 431 words for executable code.
   Procedure IPE$LIST requires 16 words of local(AUTO) storage.

    No errors detected in file IPE$LIST.:E05TSI    .

PL6.E3A0      #001=IPE$LIST File=IPE$LIST.:E05TSI                                TUE 07/29/97 22:41 Page:14

 Object Unit name= IPE$LIST                                   File name= IPE$LIST.:E05TOU
 UTS= JUL 29 '97 22:41:32.48 TUE                              Compiler= PL-6/E31         Sev=      00
 SharedLib= :SHARED_SYSTEM                                    Alt SharedLib=


    ****  Control sections  ****

 Sect   Type Bound  Init  Size OctSiz  Section name(segment info)
    0   DCB   even  none     0      0  M$UC
    1   Data  even  none   144    220  IPE$LIST
    2   DCB   even  none     0      0  M$LO
    3   Proc  even  none   431    657  IPE$LIST
    4  RoData even  none    50     62  IPE$LIST

    ****  Entry defs  ****

                              Check   Calling
                             calling  sequence
  Sect OctLoc Primary Altret sequence   type   Parms  Name
     3      0   yes            yes      Std        1  IPE$LIST
     3      3                  yes      Std        1  IPE$LIST1_INFO
     3    317                  yes      Std        1  IPE$LIST2_INFO
     3    625                  yes      Std        0  IPE$LIST1_HDR
     3    642                  yes      Std        0  IPE$LIST2_HDR

  ****  Entry refs  ****

         Check        Calling
        calling       sequence
Altret sequence SRef   type   Args  Name
 yes     yes           Std       4 IPD$BINTXT
                       nStd      0 X66_AUTO_1
                       Std       0 B_CONSPOOL_D
                       nStd      0 X66_ARET
PL6.E3A0      #001=IPE$LIST File=IPE$LIST.:E05TSI                                TUE 07/29/97 22:41 Page:15

  ****  Data refs  ****

  Flags:  r = read only, s = secondary
Flgs Name                             Flgs Name                             Flgs Name
     M$UC                                  M$LO                                  P$
     B_VECTNIL

  ****  Segment refs  ****

  Flags:  r = read only, s = secondary
Flgs Name                             Flgs Name                             Flgs Name
     ISSID                                 NULLSID
PL6.E3A0      #001=IPE$LIST File=IPE$LIST.:E05TSI                                TUE 07/29/97 22:41 Page:16


        1        1        /*M* IPE$LIST - Routines for performing the SPIDER 'LIST' command. */
        2        2        /*T***********************************************************/
        3        3        /*T*                                                         */
        4        4        /*T* Copyright (c) Bull HN Information Systems Inc., 1997    */
        5        5        /*T*                                                         */
        6        6        /*T***********************************************************/
        7        7        /*X* PLM=8,IND=2,THI=2,ENU=2,CSU=2,DTI=4,DCI=4,ECU=4,AND */
        8        8        IPE$LIST: PROC(PNUM);

      8  3 000000   000000 700200 xent  IPE$LIST     TSX0  ! X66_AUTO_1
         3 000001   000020 000001                    ZERO    16,1
         3 000002   000005 710000 3                  TRA     s:377

        9        9    1   DCL PNUM UBIN;                          /* Processor number to list data for  */
       10       10        /**/
       11       11        %INCLUDE B$P;
       12       95        %INCLUDE CP_6;
       13      176        /**/
       14      177    1   DCL UVAL UBIN;
       15      178    1   DCL 1 BVAL REDEF UVAL,
       16      179    1         2 * BIT(18) UNAL,
       17      180    1         2 LOWHALF BIT(18) UNAL;
       18      181    1   DCL TP$ PTR;
       19      182    1   DCL SIZE SBIN;
       20      183    1   DCL I SBIN;
       21      184    1   DCL IPNUM SBIN;
       22      185        /**/
       23      186    1   DCL DATE_BUF CHAR(6) STATIC;
       24      187    1   DCL 1 TIME_BUF STATIC,
       25      188    1         2 HH CHAR(2) UNAL,
       26      189    1         2 MM CHAR(2) UNAL,
       27      190    1         2 SSSS CHAR(4) UNAL;
       28      191    1   DCL UTS_BUF UBIN STATIC;
       29      192        %EJECT;
PL6.E3A0      #001=IPE$LIST File=IPE$LIST.:E05TSI                                TUE 07/29/97 22:41 Page:17
       30      193    1   DCL 1 LIST1_HDR1 STATIC,
       31      194    1         2 PNUM CHAR(4) UNAL INIT('  #'),
       32      195    1         2 NAME CHAR(13) UNAL INIT('NAME'),
       33      196    1         2 ACCT CHAR(9) UNAL INIT('ACCOUNT'),
       34      197    1         2 FLAGS CHAR(8) UNAL INIT('  FLAGS'),
       35      198    1         2 PRIV CHAR(14) UNAL INIT('         PRIV'),
       36      199    1         2 UC CHAR(4) UNAL INIT(' UC'),
       37      200    1         2 PPC CHAR(4) UNAL INIT('PPC'),
       38      201    1         2 PVA CHAR(5) UNAL INIT('PVA'),
       39      202    1         2 DVA CHAR(5) UNAL INIT('DVA'),
       40      203    1         2 HVA CHAR(5) UNAL INIT('HVA'),
       41      204    1         2 LNK CHAR(3) UNAL INIT('LNK');
       42      205        /**/
       43      206    1   DCL 1 LIST2_HDR1 STATIC,
       44      207    1         2 PNUM CHAR(4) UNAL INIT('  #'),
       45      208    1         2 NAME CHAR(13) UNAL INIT('NAME'),
       46      209    1         2 DSZ CHAR(8) UNAL INIT('    DSZ'),
       47      210    1         2 DADDR CHAR(8) UNAL INIT('  DADDR'),
       48      211    1         2 TCBSZ CHAR(5) UNAL INIT(' TCB'),
       49      212    1         2 SA CHAR(8) UNAL INIT('  START'),
       50      213    1         2 HPP CHAR(7) UNAL INIT('   HPP'),
       51      214    1         2 FRQ CHAR(6) UNAL INIT('  FRQ'),
       52      215    1         2 MODTIME CHAR(12) UNAL INIT('INSTALL-TIME'),
       53      216    1         2 LIB_LNK CHAR(4) UNAL INIT(' LIB');
       54      217        /**/
       55      218    1   DCL 1 LIST1_HDR2 STATIC,
       56      219    1         2 PNUM CHAR(4) UNAL INIT('--- '),
       57      220    1         2 NAME CHAR(13) UNAL INIT('------------ '),
       58      221    1         2 ACCT CHAR(9) UNAL INIT('-------- '),
       59      222    1         2 FLAGS CHAR(8) UNAL INIT('------- '),
       60      223    1         2 PRIV CHAR(14) UNAL INIT('-------------'),
       61      224    1         2 UC CHAR(4) UNAL INIT('--- '),
       62      225    1         2 PPC CHAR(4) UNAL INIT('--- '),
       63      226    1         2 PVA CHAR(5) UNAL INIT('---- '),
       64      227    1         2 DVA CHAR(5) UNAL INIT('---- '),
       65      228    1         2 HVA CHAR(5) UNAL INIT('---- '),
       66      229    1         2 LNK CHAR(3) UNAL INIT('---');
PL6.E3A0      #001=IPE$LIST File=IPE$LIST.:E05TSI                                TUE 07/29/97 22:41 Page:18
       67      230        /**/
       68      231    1   DCL 1 LIST2_HDR2 STATIC,
       69      232    1         2 PNUM CHAR(4) UNAL INIT('--- '),
       70      233    1         2 NAME CHAR(13) UNAL INIT('------------ '),
       71      234    1         2 DSZ CHAR(8) UNAL INIT('------- '),
       72      235    1         2 DADDR CHAR(8) UNAL INIT('------- '),
       73      236    1         2 TCBSZ CHAR(5) UNAL INIT('---- '),
       74      237    1         2 SA CHAR(8) UNAL INIT('------- '),
       75      238    1         2 HPP CHAR(7) UNAL INIT('------ '),
       76      239    1         2 FRQ CHAR(6) UNAL INIT('----- '),
       77      240    1         2 MODTIME CHAR(12) UNAL INIT('------------'),
       78      241    1         2 LIB_LNK CHAR(4) UNAL INIT(' ---');
       79      242        %EJECT;
PL6.E3A0      #001=IPE$LIST File=IPE$LIST.:E05TSI                                TUE 07/29/97 22:41 Page:19
       80      243    1   DCL 1 LIST1 STATIC,
       81      244    1         2 PNUM CHAR(3) UNAL,
       82      245    1         2 * CHAR(1) UNAL,
       83      246    1         2 NAME CHAR(12) UNAL,
       84      247    1         2 * CHAR(1) UNAL,
       85      248    1         2 ACCT CHAR(8) UNAL,
       86      249    1         2 * CHAR(1) UNAL,
       87      250    1         2 FLGS CHAR(7) UNAL,
       88      251    1         2 * CHAR(1) UNAL,
       89      252    1         2 PRIV CHAR(13) UNAL,
       90      253    1         2 * CHAR(1) UNAL,
       91      254    1         2 UC CHAR(3) UNAL,
       92      255    1         2 * CHAR(1) UNAL,
       93      256    1         2 PPC CHAR(3) UNAL,
       94      257    1         2 * CHAR(1) UNAL,
       95      258    1         2 PVA CHAR(4) UNAL,
       96      259    1         2 * CHAR(1) UNAL,
       97      260    1         2 DVA CHAR(4) UNAL,
       98      261    1         2 * CHAR(1) UNAL,
       99      262    1         2 HVA CHAR(4) UNAL,
      100      263    1         2 * CHAR(1) UNAL,
      101      264    1         2 LNK CHAR(2) UNAL;
      102      265    1   DCL LIST1_STR REDEF LIST1 CHAR(73);
      103      266        /**/
      104      267    1   DCL 1 LIST2 STATIC,
      105      268    1         2 PNUM CHAR(3) UNAL,
      106      269    1         2 * CHAR(1) UNAL,
      107      270    1         2 NAME CHAR(12) UNAL,
      108      271    1         2 * CHAR(1) UNAL,
      109      272    1         2 DSZ CHAR(7) UNAL,
      110      273    1         2 * CHAR(1) UNAL,
      111      274    1         2 DADDR CHAR(7) UNAL,
      112      275    1         2 * CHAR(1) UNAL,
      113      276    1         2 TCBSZ CHAR(4) UNAL,
      114      277    1         2 * CHAR(1) UNAL,
      115      278    1         2 SA CHAR(7) UNAL,
      116      279    1         2 * CHAR(1) UNAL,
PL6.E3A0      #001=IPE$LIST File=IPE$LIST.:E05TSI                                TUE 07/29/97 22:41 Page:20
      117      280    1         2 HPP CHAR(6) UNAL,
      118      281    1         2 * CHAR(1) UNAL,
      119      282    1         2 FRQ CHAR(5) UNAL,
      120      283    1         2 * CHAR(1) UNAL,
      121      284    1         2 MODTIME,
      122      285    1           3 YY CHAR(6) UNAL,
      123      286    1           3 DASH CHAR(1) UNAL,
      124      287    1           3 HH CHAR(2) UNAL,
      125      288    1           3 COLON CHAR(1) UNAL,
      126      289    1           3 MM CHAR(2) UNAL,
      127      290    1         2 * CHAR(1) UNAL,
      128      291    1         2 LIB_LNK CHAR(3) UNAL;
      129      292    1   DCL LIST2_STR REDEF LIST2 CHAR(75);
      130      293        %EJECT;
PL6.E3A0      #001=IPE$LIST File=IPE$LIST.:E05TSI                                TUE 07/29/97 22:41 Page:21
      131      294        /**/
      132      295    1   DCL M$LO DCB;
      133      296    1   DCL P$ PTR SYMREF;
      134      297        /**/
      135      298    1   DCL 1 B$TEXTC BASED ALIGNED,
      136      299    1         2 COUNT UBIN(9) UNAL,
      137      300    1         2 TEXT CHAR(B$TEXTC.COUNT) UNAL;
      138      301    1   DCL B$CHAR8 CHAR(8) UNAL BASED;
      139      302        /**/
      140      303    1   DCL IPD$BINTXT ENTRY(4) ALTRET;
      141      304        /**/
      142      305        %MACRO PRINT(STR=NIL);
      143      306                WRITE_LO.BUF_ = VECTOR(STR);
      144      307                CALL M$WRITE(WRITE_LO);
      145      308        %MEND;
      146      309        /**/
      147      310                %SUB B$P=P$->B$P;
      148      311                %SUB OCT='1'B;
      149      312                %SUB DEC='0'B;
      150      313        /**/
      151      314                %FPT_WRITE(FPTN=WRITE_LO,
      152      315                DCB=M$LO);
      153      346                %FPT_TIME(SOURCE=UTS,
      154      347                DEST=ANS,
      155      348                DATE=DATE_BUF,
      156      349                TIME=TIME_BUF,
      157      350                TSTAMP=UTS_BUF);
      158      369        /**/
      159      370        %EJECT;
PL6.E3A0      #001=IPE$LIST File=IPE$LIST.:E05TSI                                TUE 07/29/97 22:41 Page:22
      160      371        /**/
      161      372        /*F*  NAME:     IPE$LIST1_INFO                                     */
      162      373        /*F*  PURPOSE:  To print a line of LIST information for a given    */
      163      374        /*,*            shared processor.                                  */
      164      375    1   IPE$LIST1_INFO: ENTRY(PNUM);

    375  3 000003   000000 700200 xent  IPE$LIST1_I* TSX0  ! X66_AUTO_1
         3 000004   000020 000001                    ZERO    16,1

      165      376        /**/
      166      377    1           IPNUM = PNUM;

    377  3 000005   200003 470500                    LDP0    @PNUM,,AUTO
         3 000006   000000 235100                    LDA     0,,PR0
         3 000007   200010 755100                    STA     IPNUM,,AUTO

      167      378    1           IF NOT(B$P.FLGS(PNUM) & %P_OVRLY) THEN

    378  3 000010   000000 236100                    LDQ     0,,PR0
         3 000011   000021 402007                    MPY     17,DL
         3 000012   000001 736000                    QLS     1
         3 000013   000000 471400 xsym               LDP1    P$
         3 000014   100027 220106                    LDX0    23,QL,PR1
         3 000015   002000 360003                    ANX0    1024,DU
         3 000016   000316 601000 3                  TNZ     s:409

      168      379    2               DO WHILE (IPNUM ~= 0);

    379  3 000017   200010 235100                    LDA     IPNUM,,AUTO
         3 000020   000316 600000 3                  TZE     s:409

      169      380    2                 LIST1_STR = ' ';

    380  3 000021   040000 100400                    MLR     fill='040'O
         3 000022   000035 000001 xsym               ADSC9   B_VECTNIL+29             cn=0,n=1
         3 000023   000121 000111 1                  ADSC9   LIST1                    cn=0,n=73

PL6.E3A0      #001=IPE$LIST File=IPE$LIST.:E05TSI                                TUE 07/29/97 22:41 Page:23
      170      381    2                 CALL IPD$BINTXT(ADDR(LIST1.PNUM),IPNUM,DEC,SIZEC(LIST1.PNUM));

    381  3 000024   000000 236000 4                  LDQ     0
         3 000025   200012 756100                    STQ     IPNUM+2,,AUTO
         3 000026   000002 237000 4                  LDAQ    2
         3 000027   200016 757100                    STAQ    IPNUM+6,,AUTO
         3 000030   200010 630500                    EPPR0   IPNUM,,AUTO
         3 000031   200015 450500                    STP0    IPNUM+5,,AUTO
         3 000032   200012 631500                    EPPR1   IPNUM+2,,AUTO
         3 000033   200014 451500                    STP1    IPNUM+4,,AUTO
         3 000034   200014 630500                    EPPR0   IPNUM+4,,AUTO
         3 000035   000022 631400 xsym               EPPR1   B_VECTNIL+18
         3 000036   000000 701000 xent               TSX1    IPD$BINTXT
         3 000037   000000 011000                    NOP     0

      171      382    2                 TP$ = ADDR(B$P.NAME(IPNUM));

    382  3 000040   200010 236100                    LDQ     IPNUM,,AUTO
         3 000041   000042 402003                    MPY     34,DU
         3 000042   000032 036003                    ADLQ    26,DU
         3 000043   000000 036000 xsym               ADLQ    P$
         3 000044   200005 756100                    STQ     TP$,,AUTO

      172      383    2                 LIST1.NAME = TP$->B$TEXTC.TEXT;

    383  3 000045   200005 470500                    LDP0    TP$,,AUTO
         3 000046   000000 236100                    LDQ     0,,PR0
         3 000047   000033 772000                    QRL     27
         3 000050   000000 620006                    EAX0    0,QL
         3 000051   040000 100540                    MLR     fill='040'O
         3 000052   000000 200010                    ADSC9   0,,PR0                   cn=1,n=*X0
         3 000053   000122 000014 1                  ADSC9   LIST1+1                  cn=0,n=12

      173      384    2                 TP$ = ADDR(B$P.ACCT(IPNUM));

    384  3 000054   200010 236100                    LDQ     IPNUM,,AUTO
         3 000055   000042 402003                    MPY     34,DU
PL6.E3A0      #001=IPE$LIST File=IPE$LIST.:E05TSI                                TUE 07/29/97 22:41 Page:24
         3 000056   000030 036003                    ADLQ    24,DU
         3 000057   000000 036000 xsym               ADLQ    P$
         3 000060   200005 756100                    STQ     TP$,,AUTO

      174      385    2                 LIST1.ACCT = TP$->B$CHAR8;

    385  3 000061   200005 470500                    LDP0    TP$,,AUTO
         3 000062   040000 100500                    MLR     fill='040'O
         3 000063   000000 000010                    ADSC9   0,,PR0                   cn=0,n=8
         3 000064   000125 200010 1                  ADSC9   LIST1+4                  cn=1,n=8

      175      386    2                 UVAL = 0;

    386  3 000065   200004 450100                    STZ     UVAL,,AUTO

      176      387    2                 BVAL.LOWHALF = B$P.FLGS(IPNUM);

    387  3 000066   200010 236100                    LDQ     IPNUM,,AUTO
         3 000067   000042 402007                    MPY     34,DL
         3 000070   000000 471400 xsym               LDP1    P$
         3 000071   100027 220106                    LDX0    23,QL,PR1
         3 000072   200004 440100                    SXL0    UVAL,,AUTO

      177      388    2                 CALL IPD$BINTXT(ADDR(LIST1.FLGS),UVAL,OCT,SIZEC(LIST1.FLGS));

    388  3 000073   000004 236000 4                  LDQ     4
         3 000074   200012 756100                    STQ     IPNUM+2,,AUTO
         3 000075   000006 237000 4                  LDAQ    6
         3 000076   200016 757100                    STAQ    IPNUM+6,,AUTO
         3 000077   200004 633500                    EPPR3   UVAL,,AUTO
         3 000100   200015 453500                    STP3    IPNUM+5,,AUTO
         3 000101   200012 634500                    EPPR4   IPNUM+2,,AUTO
         3 000102   200014 454500                    STP4    IPNUM+4,,AUTO
         3 000103   200014 630500                    EPPR0   IPNUM+4,,AUTO
         3 000104   000022 631400 xsym               EPPR1   B_VECTNIL+18
         3 000105   000000 701000 xent               TSX1    IPD$BINTXT
         3 000106   000000 011000                    NOP     0
PL6.E3A0      #001=IPE$LIST File=IPE$LIST.:E05TSI                                TUE 07/29/97 22:41 Page:25

      178      389    2                 UVAL = BITBIN(B$P.PRIV(IPNUM));

    389  3 000107   200010 236100                    LDQ     IPNUM,,AUTO
         3 000110   000042 402007                    MPY     34,DL
         3 000111   000000 470400 xsym               LDP0    P$
         3 000112   000010 235106                    LDA     8,QL,PR0
         3 000113   200004 755100                    STA     UVAL,,AUTO

      179      390    2                 CALL IPD$BINTXT(ADDR(LIST1.PRIV),UVAL,OCT,SIZEC(LIST1.PRIV));

    390  3 000114   000010 236000 4                  LDQ     8
         3 000115   200012 756100                    STQ     IPNUM+2,,AUTO
         3 000116   000012 237000 4                  LDAQ    10
         3 000117   200016 757100                    STAQ    IPNUM+6,,AUTO
         3 000120   200004 631500                    EPPR1   UVAL,,AUTO
         3 000121   200015 451500                    STP1    IPNUM+5,,AUTO
         3 000122   200012 633500                    EPPR3   IPNUM+2,,AUTO
         3 000123   200014 453500                    STP3    IPNUM+4,,AUTO
         3 000124   200014 630500                    EPPR0   IPNUM+4,,AUTO
         3 000125   000022 631400 xsym               EPPR1   B_VECTNIL+18
         3 000126   000000 701000 xent               TSX1    IPD$BINTXT
         3 000127   000000 011000                    NOP     0

      180      391    2                 UVAL = B$P.UC(IPNUM);

    391  3 000130   200010 236100                    LDQ     IPNUM,,AUTO
         3 000131   000042 402007                    MPY     34,DL
         3 000132   000000 470400 xsym               LDP0    P$
         3 000133   000000 235106                    LDA     0,QL,PR0
         3 000134   200004 755100                    STA     UVAL,,AUTO

      181      392    2                 CALL IPD$BINTXT(ADDR(LIST1.UC),UVAL,DEC,SIZEC(LIST1.UC));

    392  3 000135   000014 236000 4                  LDQ     12
         3 000136   200012 756100                    STQ     IPNUM+2,,AUTO
         3 000137   000002 237000 4                  LDAQ    2
PL6.E3A0      #001=IPE$LIST File=IPE$LIST.:E05TSI                                TUE 07/29/97 22:41 Page:26
         3 000140   200016 757100                    STAQ    IPNUM+6,,AUTO
         3 000141   200004 631500                    EPPR1   UVAL,,AUTO
         3 000142   200015 451500                    STP1    IPNUM+5,,AUTO
         3 000143   200012 633500                    EPPR3   IPNUM+2,,AUTO
         3 000144   200014 453500                    STP3    IPNUM+4,,AUTO
         3 000145   200014 630500                    EPPR0   IPNUM+4,,AUTO
         3 000146   000022 631400 xsym               EPPR1   B_VECTNIL+18
         3 000147   000000 701000 xent               TSX1    IPD$BINTXT
         3 000150   000000 011000                    NOP     0

      182      393    2                 UVAL = B$P.PPC(IPNUM);

    393  3 000151   200010 236100                    LDQ     IPNUM,,AUTO
         3 000152   000042 402007                    MPY     34,DL
         3 000153   000000 470400 xsym               LDP0    P$
         3 000154   000003 235106                    LDA     3,QL,PR0
         3 000155   200004 755100                    STA     UVAL,,AUTO

      183      394    2                 CALL IPD$BINTXT(ADDR(LIST1.PPC),UVAL,DEC,SIZEC(LIST1.PPC));

    394  3 000156   000015 236000 4                  LDQ     13
         3 000157   200012 756100                    STQ     IPNUM+2,,AUTO
         3 000160   000002 237000 4                  LDAQ    2
         3 000161   200016 757100                    STAQ    IPNUM+6,,AUTO
         3 000162   200004 631500                    EPPR1   UVAL,,AUTO
         3 000163   200015 451500                    STP1    IPNUM+5,,AUTO
         3 000164   200012 633500                    EPPR3   IPNUM+2,,AUTO
         3 000165   200014 453500                    STP3    IPNUM+4,,AUTO
         3 000166   200014 630500                    EPPR0   IPNUM+4,,AUTO
         3 000167   000022 631400 xsym               EPPR1   B_VECTNIL+18
         3 000170   000000 701000 xent               TSX1    IPD$BINTXT
         3 000171   000000 011000                    NOP     0

      184      395    2                 UVAL = B$P.PVA(IPNUM);

    395  3 000172   200010 236100                    LDQ     IPNUM,,AUTO
         3 000173   000042 402007                    MPY     34,DL
PL6.E3A0      #001=IPE$LIST File=IPE$LIST.:E05TSI                                TUE 07/29/97 22:41 Page:27
         3 000174   000000 470400 xsym               LDP0    P$
         3 000175   000025 236106                    LDQ     21,QL,PR0
         3 000176   000022 772000                    QRL     18
         3 000177   200004 756100                    STQ     UVAL,,AUTO

      185      396    2                 CALL IPD$BINTXT(ADDR(LIST1.PVA),UVAL,DEC,SIZEC(LIST1.PVA));

    396  3 000200   000016 236000 4                  LDQ     14
         3 000201   200012 756100                    STQ     IPNUM+2,,AUTO
         3 000202   000020 237000 4                  LDAQ    16
         3 000203   200016 757100                    STAQ    IPNUM+6,,AUTO
         3 000204   200004 631500                    EPPR1   UVAL,,AUTO
         3 000205   200015 451500                    STP1    IPNUM+5,,AUTO
         3 000206   200012 633500                    EPPR3   IPNUM+2,,AUTO
         3 000207   200014 453500                    STP3    IPNUM+4,,AUTO
         3 000210   200014 630500                    EPPR0   IPNUM+4,,AUTO
         3 000211   000022 631400 xsym               EPPR1   B_VECTNIL+18
         3 000212   000000 701000 xent               TSX1    IPD$BINTXT
         3 000213   000000 011000                    NOP     0

      186      397    2                 UVAL = B$P.DVA(IPNUM);

    397  3 000214   200010 236100                    LDQ     IPNUM,,AUTO
         3 000215   000042 402007                    MPY     34,DL
         3 000216   000000 470400 xsym               LDP0    P$
         3 000217   000025 236106                    LDQ     21,QL,PR0
         3 000220   777777 376007                    ANQ     -1,DL
         3 000221   200004 756100                    STQ     UVAL,,AUTO

      187      398    2                 CALL IPD$BINTXT(ADDR(LIST1.DVA),UVAL,DEC,SIZEC(LIST1.DVA));

    398  3 000222   000022 236000 4                  LDQ     18
         3 000223   200012 756100                    STQ     IPNUM+2,,AUTO
         3 000224   000020 237000 4                  LDAQ    16
         3 000225   200016 757100                    STAQ    IPNUM+6,,AUTO
         3 000226   200004 631500                    EPPR1   UVAL,,AUTO
         3 000227   200015 451500                    STP1    IPNUM+5,,AUTO
PL6.E3A0      #001=IPE$LIST File=IPE$LIST.:E05TSI                                TUE 07/29/97 22:41 Page:28
         3 000230   200012 633500                    EPPR3   IPNUM+2,,AUTO
         3 000231   200014 453500                    STP3    IPNUM+4,,AUTO
         3 000232   200014 630500                    EPPR0   IPNUM+4,,AUTO
         3 000233   000022 631400 xsym               EPPR1   B_VECTNIL+18
         3 000234   000000 701000 xent               TSX1    IPD$BINTXT
         3 000235   000000 011000                    NOP     0

      188      399    2                 UVAL = B$P.HVA(IPNUM);

    399  3 000236   200010 236100                    LDQ     IPNUM,,AUTO
         3 000237   000042 402007                    MPY     34,DL
         3 000240   000000 470400 xsym               LDP0    P$
         3 000241   000026 236106                    LDQ     22,QL,PR0
         3 000242   000022 772000                    QRL     18
         3 000243   200004 756100                    STQ     UVAL,,AUTO

      189      400    2                 CALL IPD$BINTXT(ADDR(LIST1.HVA),UVAL,DEC,SIZEC(LIST1.HVA));

    400  3 000244   000023 236000 4                  LDQ     19
         3 000245   200012 756100                    STQ     IPNUM+2,,AUTO
         3 000246   000020 237000 4                  LDAQ    16
         3 000247   200016 757100                    STAQ    IPNUM+6,,AUTO
         3 000250   200004 631500                    EPPR1   UVAL,,AUTO
         3 000251   200015 451500                    STP1    IPNUM+5,,AUTO
         3 000252   200012 633500                    EPPR3   IPNUM+2,,AUTO
         3 000253   200014 453500                    STP3    IPNUM+4,,AUTO
         3 000254   200014 630500                    EPPR0   IPNUM+4,,AUTO
         3 000255   000022 631400 xsym               EPPR1   B_VECTNIL+18
         3 000256   000000 701000 xent               TSX1    IPD$BINTXT
         3 000257   000000 011000                    NOP     0

      190      401    2                 UVAL = B$P.LNK(IPNUM);

    401  3 000260   200010 236100                    LDQ     IPNUM,,AUTO
         3 000261   000042 402007                    MPY     34,DL
         3 000262   000000 470400 xsym               LDP0    P$
         3 000263   000022 236106                    LDQ     18,QL,PR0
PL6.E3A0      #001=IPE$LIST File=IPE$LIST.:E05TSI                                TUE 07/29/97 22:41 Page:29
         3 000264   777777 376007                    ANQ     -1,DL
         3 000265   200004 756100                    STQ     UVAL,,AUTO

      191      402    2                 CALL IPD$BINTXT(ADDR(LIST1.LNK),UVAL,DEC,SIZEC(LIST1.LNK));

    402  3 000266   000024 236000 4                  LDQ     20
         3 000267   200012 756100                    STQ     IPNUM+2,,AUTO
         3 000270   000026 237000 4                  LDAQ    22
         3 000271   200016 757100                    STAQ    IPNUM+6,,AUTO
         3 000272   200004 631500                    EPPR1   UVAL,,AUTO
         3 000273   200015 451500                    STP1    IPNUM+5,,AUTO
         3 000274   200012 633500                    EPPR3   IPNUM+2,,AUTO
         3 000275   200014 453500                    STP3    IPNUM+4,,AUTO
         3 000276   200014 630500                    EPPR0   IPNUM+4,,AUTO
         3 000277   000022 631400 xsym               EPPR1   B_VECTNIL+18
         3 000300   000000 701000 xent               TSX1    IPD$BINTXT
         3 000301   000000 011000                    NOP     0

      192      403                      %PRINT(STR=LIST1);

    404  3 000302   000030 237000 4                  LDAQ    24
         3 000303   000174 757000 1                  STAQ    WRITE_LO+4

    405  3 000304   000170 630400 1                  EPPR0   WRITE_LO
         3 000305   040001 713400                    CLIMB   write
         3 000306   401400 401760                    pmme    nvectors=4

      193      407    2                 IPNUM = B$P.LNK(IPNUM);

    407  3 000307   200010 236100                    LDQ     IPNUM,,AUTO
         3 000310   000042 402007                    MPY     34,DL
         3 000311   000000 470400 xsym               LDP0    P$
         3 000312   000022 236106                    LDQ     18,QL,PR0
         3 000313   777777 376007                    ANQ     -1,DL
         3 000314   200010 756100                    STQ     IPNUM,,AUTO

      194      408    2               END;
PL6.E3A0      #001=IPE$LIST File=IPE$LIST.:E05TSI                                TUE 07/29/97 22:41 Page:30

    408  3 000315   000021 601000 3                  TNZ     s:380

      195      409    1           RETURN;

    409  3 000316   000000 702200 xent               TSX2  ! X66_ARET

      196      410        /**/
      197      411        %EJECT;
PL6.E3A0      #001=IPE$LIST File=IPE$LIST.:E05TSI                                TUE 07/29/97 22:41 Page:31
      198      412        /**/
      199      413        /*F*    NAME:   IPE$LIST2_INFO
      200      414                PURPOSE: To print the second line of LIST information for
      201      415                        a given shared program.                            */
      202      416    1   IPE$LIST2_INFO: ENTRY(PNUM);

    416  3 000317   000000 700200 xent  IPE$LIST2_I* TSX0  ! X66_AUTO_1
         3 000320   000020 000001                    ZERO    16,1

      203      417        /**/
      204      418    1           IPNUM = PNUM;

    418  3 000321   200003 470500                    LDP0    @PNUM,,AUTO
         3 000322   000000 235100                    LDA     0,,PR0
         3 000323   200010 755100                    STA     IPNUM,,AUTO

      205      419    1           IF NOT(B$P.FLGS(PNUM) & %P_OVRLY) THEN

    419  3 000324   000000 236100                    LDQ     0,,PR0
         3 000325   000021 402007                    MPY     17,DL
         3 000326   000001 736000                    QLS     1
         3 000327   000000 471400 xsym               LDP1    P$
         3 000330   100027 220106                    LDX0    23,QL,PR1
         3 000331   002000 360003                    ANX0    1024,DU
         3 000332   000624 601000 3                  TNZ     s:452

      206      420    2               DO WHILE (IPNUM ~= 0);

    420  3 000333   200010 235100                    LDA     IPNUM,,AUTO
         3 000334   000624 600000 3                  TZE     s:452

      207      421    2                 LIST2_STR = ' ';

    421  3 000335   040000 100400                    MLR     fill='040'O
         3 000336   000035 000001 xsym               ADSC9   B_VECTNIL+29             cn=0,n=1
         3 000337   000144 000113 1                  ADSC9   LIST2                    cn=0,n=75

PL6.E3A0      #001=IPE$LIST File=IPE$LIST.:E05TSI                                TUE 07/29/97 22:41 Page:32
      208      422    2                 LIST2.MODTIME.DASH = '-';

    422  3 000340   000055 236003                    LDQ     45,DU
         3 000341   000164 552020 1                  STBQ    LIST2+16,'20'O

      209      423    2                 LIST2.MODTIME.COLON = ':';

    423  3 000342   072000 236003                    LDQ     29696,DU
         3 000343   000165 552040 1                  STBQ    LIST2+17,'40'O

      210      424    2                 CALL IPD$BINTXT(ADDR(LIST2.PNUM),IPNUM,DEC,SIZEC(LIST2.PNUM));

    424  3 000344   000032 236000 4                  LDQ     26
         3 000345   200012 756100                    STQ     IPNUM+2,,AUTO
         3 000346   000002 237000 4                  LDAQ    2
         3 000347   200016 757100                    STAQ    IPNUM+6,,AUTO
         3 000350   200010 630500                    EPPR0   IPNUM,,AUTO
         3 000351   200015 450500                    STP0    IPNUM+5,,AUTO
         3 000352   200012 631500                    EPPR1   IPNUM+2,,AUTO
         3 000353   200014 451500                    STP1    IPNUM+4,,AUTO
         3 000354   200014 630500                    EPPR0   IPNUM+4,,AUTO
         3 000355   000022 631400 xsym               EPPR1   B_VECTNIL+18
         3 000356   000000 701000 xent               TSX1    IPD$BINTXT
         3 000357   000000 011000                    NOP     0

      211      425    2                 TP$ = ADDR(B$P.NAME(IPNUM));

    425  3 000360   200010 236100                    LDQ     IPNUM,,AUTO
         3 000361   000042 402003                    MPY     34,DU
         3 000362   000032 036003                    ADLQ    26,DU
         3 000363   000000 036000 xsym               ADLQ    P$
         3 000364   200005 756100                    STQ     TP$,,AUTO

      212      426    2                 LIST2.NAME = TP$->B$TEXTC.TEXT;

    426  3 000365   200005 470500                    LDP0    TP$,,AUTO
         3 000366   000000 236100                    LDQ     0,,PR0
PL6.E3A0      #001=IPE$LIST File=IPE$LIST.:E05TSI                                TUE 07/29/97 22:41 Page:33
         3 000367   000033 772000                    QRL     27
         3 000370   000000 620006                    EAX0    0,QL
         3 000371   040000 100540                    MLR     fill='040'O
         3 000372   000000 200010                    ADSC9   0,,PR0                   cn=1,n=*X0
         3 000373   000145 000014 1                  ADSC9   LIST2+1                  cn=0,n=12

      213      427    2                 UVAL = B$P.DSZ(IPNUM);

    427  3 000374   200010 236100                    LDQ     IPNUM,,AUTO
         3 000375   000042 402007                    MPY     34,DL
         3 000376   000000 471400 xsym               LDP1    P$
         3 000377   100024 236106                    LDQ     20,QL,PR1
         3 000400   777777 376007                    ANQ     -1,DL
         3 000401   200004 756100                    STQ     UVAL,,AUTO

      214      428    2                 CALL IPD$BINTXT(ADDR(LIST2.DSZ),UVAL,OCT,SIZEC(LIST2.DSZ));

    428  3 000402   000033 236000 4                  LDQ     27
         3 000403   200012 756100                    STQ     IPNUM+2,,AUTO
         3 000404   000006 237000 4                  LDAQ    6
         3 000405   200016 757100                    STAQ    IPNUM+6,,AUTO
         3 000406   200004 633500                    EPPR3   UVAL,,AUTO
         3 000407   200015 453500                    STP3    IPNUM+5,,AUTO
         3 000410   200012 634500                    EPPR4   IPNUM+2,,AUTO
         3 000411   200014 454500                    STP4    IPNUM+4,,AUTO
         3 000412   200014 630500                    EPPR0   IPNUM+4,,AUTO
         3 000413   000022 631400 xsym               EPPR1   B_VECTNIL+18
         3 000414   000000 701000 xent               TSX1    IPD$BINTXT
         3 000415   000000 011000                    NOP     0

      215      429    2                 UVAL = B$P.DADDR(IPNUM);

    429  3 000416   200010 236100                    LDQ     IPNUM,,AUTO
         3 000417   000042 402007                    MPY     34,DL
         3 000420   000000 470400 xsym               LDP0    P$
         3 000421   000024 236106                    LDQ     20,QL,PR0
         3 000422   000022 772000                    QRL     18
PL6.E3A0      #001=IPE$LIST File=IPE$LIST.:E05TSI                                TUE 07/29/97 22:41 Page:34
         3 000423   200004 756100                    STQ     UVAL,,AUTO

      216      430    2                 CALL IPD$BINTXT(ADDR(LIST2.DADDR),UVAL,OCT,SIZEC(LIST2.DADDR));

    430  3 000424   000034 236000 4                  LDQ     28
         3 000425   200012 756100                    STQ     IPNUM+2,,AUTO
         3 000426   000006 237000 4                  LDAQ    6
         3 000427   200016 757100                    STAQ    IPNUM+6,,AUTO
         3 000430   200004 631500                    EPPR1   UVAL,,AUTO
         3 000431   200015 451500                    STP1    IPNUM+5,,AUTO
         3 000432   200012 633500                    EPPR3   IPNUM+2,,AUTO
         3 000433   200014 453500                    STP3    IPNUM+4,,AUTO
         3 000434   200014 630500                    EPPR0   IPNUM+4,,AUTO
         3 000435   000022 631400 xsym               EPPR1   B_VECTNIL+18
         3 000436   000000 701000 xent               TSX1    IPD$BINTXT
         3 000437   000000 011000                    NOP     0

      217      431    2                 UVAL = B$P.TCBSZ(IPNUM);

    431  3 000440   200010 236100                    LDQ     IPNUM,,AUTO
         3 000441   000042 402007                    MPY     34,DL
         3 000442   000000 470400 xsym               LDP0    P$
         3 000443   000027 236106                    LDQ     23,QL,PR0
         3 000444   777777 376007                    ANQ     -1,DL
         3 000445   200004 756100                    STQ     UVAL,,AUTO

      218      432    2                 CALL IPD$BINTXT(ADDR(LIST2.TCBSZ),UVAL,DEC,SIZEC(LIST2.TCBSZ));

    432  3 000446   000035 236000 4                  LDQ     29
         3 000447   200012 756100                    STQ     IPNUM+2,,AUTO
         3 000450   000020 237000 4                  LDAQ    16
         3 000451   200016 757100                    STAQ    IPNUM+6,,AUTO
         3 000452   200004 631500                    EPPR1   UVAL,,AUTO
         3 000453   200015 451500                    STP1    IPNUM+5,,AUTO
         3 000454   200012 633500                    EPPR3   IPNUM+2,,AUTO
         3 000455   200014 453500                    STP3    IPNUM+4,,AUTO
         3 000456   200014 630500                    EPPR0   IPNUM+4,,AUTO
PL6.E3A0      #001=IPE$LIST File=IPE$LIST.:E05TSI                                TUE 07/29/97 22:41 Page:35
         3 000457   000022 631400 xsym               EPPR1   B_VECTNIL+18
         3 000460   000000 701000 xent               TSX1    IPD$BINTXT
         3 000461   000000 011000                    NOP     0

      219      433    2                 UVAL = B$P.SA(IPNUM);

    433  3 000462   200010 236100                    LDQ     IPNUM,,AUTO
         3 000463   000042 402007                    MPY     34,DL
         3 000464   000000 470400 xsym               LDP0    P$
         3 000465   000026 236106                    LDQ     22,QL,PR0
         3 000466   777777 376007                    ANQ     -1,DL
         3 000467   200004 756100                    STQ     UVAL,,AUTO

      220      434    2                 CALL IPD$BINTXT(ADDR(LIST2.SA),UVAL,OCT,SIZEC(LIST2.SA));

    434  3 000470   000036 236000 4                  LDQ     30
         3 000471   200012 756100                    STQ     IPNUM+2,,AUTO
         3 000472   000006 237000 4                  LDAQ    6
         3 000473   200016 757100                    STAQ    IPNUM+6,,AUTO
         3 000474   200004 631500                    EPPR1   UVAL,,AUTO
         3 000475   200015 451500                    STP1    IPNUM+5,,AUTO
         3 000476   200012 633500                    EPPR3   IPNUM+2,,AUTO
         3 000477   200014 453500                    STP3    IPNUM+4,,AUTO
         3 000500   200014 630500                    EPPR0   IPNUM+4,,AUTO
         3 000501   000022 631400 xsym               EPPR1   B_VECTNIL+18
         3 000502   000000 701000 xent               TSX1    IPD$BINTXT
         3 000503   000000 011000                    NOP     0

      221      435    2                 UVAL = B$P.HPP(IPNUM);

    435  3 000504   200010 236100                    LDQ     IPNUM,,AUTO
         3 000505   000042 402007                    MPY     34,DL
         3 000506   000000 470400 xsym               LDP0    P$
         3 000507   000002 235106                    LDA     2,QL,PR0
         3 000510   200004 755100                    STA     UVAL,,AUTO

      222      436    2                 CALL IPD$BINTXT(ADDR(LIST2.HPP),UVAL,OCT,SIZEC(LIST2.HPP));
PL6.E3A0      #001=IPE$LIST File=IPE$LIST.:E05TSI                                TUE 07/29/97 22:41 Page:36

    436  3 000511   000037 236000 4                  LDQ     31
         3 000512   200012 756100                    STQ     IPNUM+2,,AUTO
         3 000513   000040 237000 4                  LDAQ    32
         3 000514   200016 757100                    STAQ    IPNUM+6,,AUTO
         3 000515   200004 631500                    EPPR1   UVAL,,AUTO
         3 000516   200015 451500                    STP1    IPNUM+5,,AUTO
         3 000517   200012 633500                    EPPR3   IPNUM+2,,AUTO
         3 000520   200014 453500                    STP3    IPNUM+4,,AUTO
         3 000521   200014 630500                    EPPR0   IPNUM+4,,AUTO
         3 000522   000022 631400 xsym               EPPR1   B_VECTNIL+18
         3 000523   000000 701000 xent               TSX1    IPD$BINTXT
         3 000524   000000 011000                    NOP     0

      223      437    2                 UVAL = B$P.FRQ(IPNUM);

    437  3 000525   200010 236100                    LDQ     IPNUM,,AUTO
         3 000526   000042 402007                    MPY     34,DL
         3 000527   000000 470400 xsym               LDP0    P$
         3 000530   000001 235106                    LDA     1,QL,PR0
         3 000531   200004 755100                    STA     UVAL,,AUTO

      224      438    2                 CALL IPD$BINTXT(ADDR(LIST2.FRQ),UVAL,DEC,SIZEC(LIST2.FRQ));

    438  3 000532   000042 236000 4                  LDQ     34
         3 000533   200012 756100                    STQ     IPNUM+2,,AUTO
         3 000534   000044 237000 4                  LDAQ    36
         3 000535   200016 757100                    STAQ    IPNUM+6,,AUTO
         3 000536   200004 631500                    EPPR1   UVAL,,AUTO
         3 000537   200015 451500                    STP1    IPNUM+5,,AUTO
         3 000540   200012 633500                    EPPR3   IPNUM+2,,AUTO
         3 000541   200014 453500                    STP3    IPNUM+4,,AUTO
         3 000542   200014 630500                    EPPR0   IPNUM+4,,AUTO
         3 000543   000022 631400 xsym               EPPR1   B_VECTNIL+18
         3 000544   000000 701000 xent               TSX1    IPD$BINTXT
         3 000545   000000 011000                    NOP     0

PL6.E3A0      #001=IPE$LIST File=IPE$LIST.:E05TSI                                TUE 07/29/97 22:41 Page:37
      225      439    2                 UTS_BUF = B$P.INSTDATE(IPNUM);

    439  3 000546   200010 236100                    LDQ     IPNUM,,AUTO
         3 000547   000042 402007                    MPY     34,DL
         3 000550   000000 470400 xsym               LDP0    P$
         3 000551   000005 235106                    LDA     5,QL,PR0
         3 000552   000004 755000 1                  STA     UTS_BUF

      226      440    2                 CALL M$TIME(FPT_TIME);

    440  3 000553   000204 630400 1                  EPPR0   FPT_TIME
         3 000554   020004 713400                    CLIMB   8196
         3 000555   402000 401760                    pmme    nvectors=5

      227      441    2                 LIST2.MODTIME.YY = DATE_BUF;

    441  3 000556   040000 100400                    MLR     fill='040'O
         3 000557   000000 000006 1                  ADSC9   DATE_BUF                 cn=0,n=6
         3 000560   000162 600006 1                  ADSC9   LIST2+14                 cn=3,n=6

      228      442    2                 LIST2.MODTIME.HH = TIME_BUF.HH;

    442  3 000561   000002 220000 1                  LDX0    TIME_BUF
         3 000562   000164 440000 1                  SXL0    LIST2+16

      229      443    2                 LIST2.MODTIME.MM = TIME_BUF.MM;

    443  3 000563   000002 236000 1                  LDQ     TIME_BUF
         3 000564   000011 736000                    QLS     9
         3 000565   000165 552030 1                  STBQ    LIST2+17,'30'O

      230      444    2                 UVAL = B$P.LIB_LNK(IPNUM);

    444  3 000566   200010 236100                    LDQ     IPNUM,,AUTO
         3 000567   000042 402007                    MPY     34,DL
         3 000570   000000 470400 xsym               LDP0    P$
         3 000571   000022 236106                    LDQ     18,QL,PR0
PL6.E3A0      #001=IPE$LIST File=IPE$LIST.:E05TSI                                TUE 07/29/97 22:41 Page:38
         3 000572   000022 772000                    QRL     18
         3 000573   200004 756100                    STQ     UVAL,,AUTO

      231      445    2                 CALL IPD$BINTXT(ADDR(LIST2.LIB_LNK),UVAL,DEC,SIZEC(LIST2.LIB_LNK));

    445  3 000574   000046 236000 4                  LDQ     38
         3 000575   200012 756100                    STQ     IPNUM+2,,AUTO
         3 000576   000002 237000 4                  LDAQ    2
         3 000577   200016 757100                    STAQ    IPNUM+6,,AUTO
         3 000600   200004 631500                    EPPR1   UVAL,,AUTO
         3 000601   200015 451500                    STP1    IPNUM+5,,AUTO
         3 000602   200012 633500                    EPPR3   IPNUM+2,,AUTO
         3 000603   200014 453500                    STP3    IPNUM+4,,AUTO
         3 000604   200014 630500                    EPPR0   IPNUM+4,,AUTO
         3 000605   000022 631400 xsym               EPPR1   B_VECTNIL+18
         3 000606   000000 701000 xent               TSX1    IPD$BINTXT
         3 000607   000000 011000                    NOP     0

      232      446                      %PRINT(STR=LIST2);

    447  3 000610   000050 237000 4                  LDAQ    40
         3 000611   000174 757000 1                  STAQ    WRITE_LO+4

    448  3 000612   000170 630400 1                  EPPR0   WRITE_LO
         3 000613   040001 713400                    CLIMB   write
         3 000614   401400 401760                    pmme    nvectors=4

      233      450    2                 IPNUM = B$P.LNK(IPNUM);

    450  3 000615   200010 236100                    LDQ     IPNUM,,AUTO
         3 000616   000042 402007                    MPY     34,DL
         3 000617   000000 470400 xsym               LDP0    P$
         3 000620   000022 236106                    LDQ     18,QL,PR0
         3 000621   777777 376007                    ANQ     -1,DL
         3 000622   200010 756100                    STQ     IPNUM,,AUTO

      234      451    2               END;
PL6.E3A0      #001=IPE$LIST File=IPE$LIST.:E05TSI                                TUE 07/29/97 22:41 Page:39

    451  3 000623   000335 601000 3                  TNZ     s:421

      235      452    1           RETURN;

    452  3 000624   000000 702200 xent               TSX2  ! X66_ARET

      236      453        /**/
      237      454        %EJECT;
PL6.E3A0      #001=IPE$LIST File=IPE$LIST.:E05TSI                                TUE 07/29/97 22:41 Page:40
      238      455        /**/
      239      456        /*F*    NAME:   IPE$LIST1_HDR                                      */
      240      457        /*F*    PURPOSE: To print the header lines for a processor LIST.   */
      241      458    1   IPE$LIST1_HDR: ENTRY;

    458  3 000625   000000 700200 xent  IPE$LIST1_H* TSX0  ! X66_AUTO_1
         3 000626   000020 000001                    ZERO    16,1

      242      459                %PRINT(STR=LIST1_HDR1);

    460  3 000627   000052 237000 4                  LDAQ    42
         3 000630   000174 757000 1                  STAQ    WRITE_LO+4

    461  3 000631   000170 630400 1                  EPPR0   WRITE_LO
         3 000632   040001 713400                    CLIMB   write
         3 000633   401400 401760                    pmme    nvectors=4

      243      463                %PRINT(STR=LIST1_HDR2);

    464  3 000634   000054 237000 4                  LDAQ    44
         3 000635   000174 757000 1                  STAQ    WRITE_LO+4

    465  3 000636   000170 630400 1                  EPPR0   WRITE_LO
         3 000637   040001 713400                    CLIMB   write
         3 000640   401400 401760                    pmme    nvectors=4

      244      467    1           RETURN;

    467  3 000641   000000 702200 xent               TSX2  ! X66_ARET

      245      468        /**/
      246      469        %EJECT;
PL6.E3A0      #001=IPE$LIST File=IPE$LIST.:E05TSI                                TUE 07/29/97 22:41 Page:41
      247      470        /**/
      248      471        /*F*    NAME:   IPE$LIST2_HDR
      249      472                PURPOSE: To print the header lines for the second line of
      250      473                        processor LIST information.                        */
      251      474    1   IPE$LIST2_HDR: ENTRY;

    474  3 000642   000000 700200 xent  IPE$LIST2_H* TSX0  ! X66_AUTO_1
         3 000643   000020 000001                    ZERO    16,1

      252      475                %PRINT(STR=LIST2_HDR1);

    476  3 000644   000056 237000 4                  LDAQ    46
         3 000645   000174 757000 1                  STAQ    WRITE_LO+4

    477  3 000646   000170 630400 1                  EPPR0   WRITE_LO
         3 000647   040001 713400                    CLIMB   write
         3 000650   401400 401760                    pmme    nvectors=4

      253      479                %PRINT(STR=LIST2_HDR2);

    480  3 000651   000060 237000 4                  LDAQ    48
         3 000652   000174 757000 1                  STAQ    WRITE_LO+4

    481  3 000653   000170 630400 1                  EPPR0   WRITE_LO
         3 000654   040001 713400                    CLIMB   write
         3 000655   401400 401760                    pmme    nvectors=4

      254      483    1           RETURN;

    483  3 000656   000000 702200 xent               TSX2  ! X66_ARET
      255      484        /**/
      256      485        /**/
      257      486    1   END IPE$LIST;

PL6.E3A0      #001=IPE$LIST File=IPE$LIST.:E05TSI                                TUE 07/29/97 22:41 Page:42
--  Include file information  --

   CP_6.:E05TOU  cannot be made into a system file and is referenced.
   B$P.:E05TOU  cannot be made into a system file and is referenced.
   B$JIT_C.:E05TOU  was found in the system file and is never referenced.
   CP_6_C.:E05TOU  was found in the system file and is referenced.
      No diagnostics issued in procedure IPE$LIST.
PL6.E3A0      #001=IPE$LIST File=IPE$LIST.:E05TSI                                TUE 07/29/97 22:41 Page:43

 **** Variables and constants ****

  ****  Section 001  Data  IPE$LIST

  ****  Scalars and arrays  ****
OctLoc.c.b A Datatyp(siz) R M Lvl/name                 OctLoc.c.b A Datatyp(siz) R M Lvl/name

     0-0-0/c CHAR(6)     r     1 DATE_BUF                 204-0-0/d STRC(432)   r     1 FPT_TIME
   121-0-0/c STRC(657)   r     1 LIST1                      5-0-0/c STRC(666)   r     1 LIST1_HDR1
    53-0-0/c STRC(666)   r     1 LIST1_HDR2               121-0-0/c CHAR(73)    r     1 LIST1_STR
   144-0-0/c STRC(675)   r     1 LIST2                     30-0-0/c STRC(675)   r     1 LIST2_HDR1
    76-0-0/c STRC(675)   r     1 LIST2_HDR2               144-0-0/c CHAR(75)    r     1 LIST2_STR
     2-0-0/c STRC(72)    r     1 TIME_BUF                   4-0-0/w UBIN        r     1 UTS_BUF
   170-0-0/d STRC(432)   r     1 WRITE_LO

  ****  Auto variables  ****

  ****  Scalars and arrays  ****
OctLoc.c.b A Datatyp(siz) R M Lvl/name                 OctLoc.c.b A Datatyp(siz) R M Lvl/name

     3-0-0/w PTR         r     1 @PNUM                      4-0-0/w STRC        r     1 BVAL
    10-0-0/w SBIN        r     1 IPNUM                     *0-0-0/w UBIN        r     1 PNUM
     5-0-0/w PTR         r     1 TP$                        4-0-0/w UBIN        r     1 UVAL

  ****  SYMREF variables  ****

  ****  Scalars and arrays  ****
OctLoc.c.b A Datatyp(siz) R M Lvl/name                 OctLoc.c.b A Datatyp(siz) R M Lvl/name

     0-0-0/w PTR         r     1 P$

  ****  BASED and DCB variables  ****

  ****  Scalars and arrays  ****
OctLoc.c.b A Datatyp(siz) R M Lvl/name                 OctLoc.c.b A Datatyp(siz) R M Lvl/name

     0-0-0/c CHAR(8)     r     1 B$CHAR8                    0-0-0/d STRC(1224)  r     1 B$P(0:0)
PL6.E3A0      #001=IPE$LIST File=IPE$LIST.:E05TSI                                TUE 07/29/97 22:41 Page:44
     0-0-0/w ASTR(9)     r     1 B$TEXTC                    0-0-0N  NULL        r     1 M$LO


   Procedure IPE$LIST requires 431 words for executable code.
   Procedure IPE$LIST requires 16 words of local(AUTO) storage.

    No errors detected in file IPE$LIST.:E05TSI    .
PL6.E3A0      #001=IPE$LIST File=IPE$LIST.:E05TSI                                TUE 07/29/97 22:41 Page:45
          *** CROSS REFERENCE LISTING ***
**     DENOTES     IDENTIFIER DEFINITION
<<                 IDENTIFIER'S VALUE SET
>>                 IDENTIFIER'S VALUE USED
<>                 IDENTIFIER SET AND/OR USED
--                 IDENTIFIER REFERENCED
PL6.E3A0      #001=IPE$LIST File=IPE$LIST.:E05TSI                                TUE 07/29/97 22:41 Page:46
          MINI XREF LISTING

B$CHAR8
       301**DCL       385>>ASSIGN
B$P.ACCT
        42**DCL       384--ASSIGN
B$P.DADDR
        34**DCL       429>>ASSIGN
B$P.DSZ
        35**DCL       427>>ASSIGN
B$P.DVA
        37**DCL       397>>ASSIGN
B$P.FLGS
        40**DCL       378>>IF        387>>ASSIGN    419>>IF
B$P.FRQ
        21**DCL       437>>ASSIGN
B$P.HPP
        22**DCL       435>>ASSIGN
B$P.HVA
        38**DCL       399>>ASSIGN
B$P.INSTDATE
        25**DCL       439>>ASSIGN
B$P.LIB_LNK
        30**DCL       444>>ASSIGN
B$P.LNK
        31**DCL       401>>ASSIGN    407>>ASSIGN    450>>ASSIGN
B$P.NAME
        43**DCL       382--ASSIGN    425--ASSIGN
B$P.PPC
        23**DCL       393>>ASSIGN
B$P.PRIV
        28**DCL       389>>ASSIGN
B$P.PVA
        36**DCL       395>>ASSIGN
PL6.E3A0      #001=IPE$LIST File=IPE$LIST.:E05TSI                                TUE 07/29/97 22:41 Page:47
B$P.SA
        39**DCL       433>>ASSIGN
B$P.TCBSZ
        41**DCL       431>>ASSIGN
B$P.UC
        20**DCL       391>>ASSIGN
B$TEXTC.COUNT
       299**DCL       300--IMP-SIZ   383>>ASSIGN    426>>ASSIGN
B$TEXTC.TEXT
       300**DCL       383>>ASSIGN    426>>ASSIGN
BVAL.LOWHALF
       180**DCL       387<<ASSIGN
DATE_BUF
       186**DCL       361--DCLINIT   362--DCLINIT   441>>ASSIGN
FPT_TIME
       361**DCL       440<>CALL
FPT_TIME.V
       365**DCL       361--DCLINIT
IPD$BINTXT
       303**DCL-ENT   381--CALL      388--CALL      390--CALL      392--CALL      394--CALL      396--CALL
       398--CALL      400--CALL      402--CALL      424--CALL      428--CALL      430--CALL      432--CALL
       434--CALL      436--CALL      438--CALL      445--CALL
IPNUM
       184**DCL       377<<ASSIGN    379>>DOWHILE   381<>CALL      382>>ASSIGN    384>>ASSIGN    387>>ASSIGN
       389>>ASSIGN    391>>ASSIGN    393>>ASSIGN    395>>ASSIGN    397>>ASSIGN    399>>ASSIGN    401>>ASSIGN
       407<<ASSIGN    407>>ASSIGN    418<<ASSIGN    420>>DOWHILE   424<>CALL      425>>ASSIGN    427>>ASSIGN
       429>>ASSIGN    431>>ASSIGN    433>>ASSIGN    435>>ASSIGN    437>>ASSIGN    439>>ASSIGN    444>>ASSIGN
       450<<ASSIGN    450>>ASSIGN
LIST1
       243**DCL       265--REDEF     404--ASSIGN
LIST1.ACCT
       248**DCL       385<<ASSIGN
LIST1.DVA
       260**DCL       398--CALL      398--CALL
LIST1.FLGS
       250**DCL       388--CALL      388--CALL
PL6.E3A0      #001=IPE$LIST File=IPE$LIST.:E05TSI                                TUE 07/29/97 22:41 Page:48
LIST1.HVA
       262**DCL       400--CALL      400--CALL
LIST1.LNK
       264**DCL       402--CALL      402--CALL
LIST1.NAME
       246**DCL       383<<ASSIGN
LIST1.PNUM
       244**DCL       381--CALL      381--CALL
LIST1.PPC
       256**DCL       394--CALL      394--CALL
LIST1.PRIV
       252**DCL       390--CALL      390--CALL
LIST1.PVA
       258**DCL       396--CALL      396--CALL
LIST1.UC
       254**DCL       392--CALL      392--CALL
LIST1_HDR1
       193**DCL       460--ASSIGN
LIST1_HDR2
       218**DCL       464--ASSIGN
LIST1_STR
       265**DCL       380<<ASSIGN
LIST2
       267**DCL       292--REDEF     447--ASSIGN
LIST2.DADDR
       274**DCL       430--CALL      430--CALL
LIST2.DSZ
       272**DCL       428--CALL      428--CALL
LIST2.FRQ
       282**DCL       438--CALL      438--CALL
LIST2.HPP
       280**DCL       436--CALL      436--CALL
LIST2.LIB_LNK
       291**DCL       445--CALL      445--CALL
LIST2.MODTIME.COLON
       288**DCL       423<<ASSIGN
PL6.E3A0      #001=IPE$LIST File=IPE$LIST.:E05TSI                                TUE 07/29/97 22:41 Page:49
LIST2.MODTIME.DASH
       286**DCL       422<<ASSIGN
LIST2.MODTIME.HH
       287**DCL       442<<ASSIGN
LIST2.MODTIME.MM
       289**DCL       443<<ASSIGN
LIST2.MODTIME.YY
       285**DCL       441<<ASSIGN
LIST2.NAME
       270**DCL       426<<ASSIGN
LIST2.PNUM
       268**DCL       424--CALL      424--CALL
LIST2.SA
       278**DCL       434--CALL      434--CALL
LIST2.TCBSZ
       276**DCL       432--CALL      432--CALL
LIST2_HDR1
       206**DCL       476--ASSIGN
LIST2_HDR2
       231**DCL       480--ASSIGN
LIST2_STR
       292**DCL       421<<ASSIGN
M$TIME
       171**DCL-ENT   440--CALL
M$WRITE
       105**DCL-ENT   405--CALL      448--CALL      461--CALL      465--CALL      477--CALL      481--CALL
P$
       296**DCL       378>>IF        382>>ASSIGN    384>>ASSIGN    387>>ASSIGN    389>>ASSIGN    391>>ASSIGN
       393>>ASSIGN    395>>ASSIGN    397>>ASSIGN    399>>ASSIGN    401>>ASSIGN    407>>ASSIGN    419>>IF
       425>>ASSIGN    427>>ASSIGN    429>>ASSIGN    431>>ASSIGN    433>>ASSIGN    435>>ASSIGN    437>>ASSIGN
       439>>ASSIGN    444>>ASSIGN    450>>ASSIGN
PNUM
         9**DCL         8--PROC      375--ENTRY     377>>ASSIGN    378>>IF        416--ENTRY     418>>ASSIGN
       419>>IF
TIME_BUF
       187**DCL       363--DCLINIT   364--DCLINIT
PL6.E3A0      #001=IPE$LIST File=IPE$LIST.:E05TSI                                TUE 07/29/97 22:41 Page:50
TIME_BUF.HH
       188**DCL       442>>ASSIGN
TIME_BUF.MM
       189**DCL       443>>ASSIGN
TP$
       181**DCL       382<<ASSIGN    383>>ASSIGN    383>>ASSIGN    384<<ASSIGN    385>>ASSIGN    425<<ASSIGN
       426>>ASSIGN    426>>ASSIGN
UTS_BUF
       191**DCL       365--DCLINIT   439<<ASSIGN
UVAL
       177**DCL       178--REDEF     386<<ASSIGN    388<>CALL      389<<ASSIGN    390<>CALL      391<<ASSIGN
       392<>CALL      393<<ASSIGN    394<>CALL      395<<ASSIGN    396<>CALL      397<<ASSIGN    398<>CALL
       399<<ASSIGN    400<>CALL      401<<ASSIGN    402<>CALL      427<<ASSIGN    428<>CALL      429<<ASSIGN
       430<>CALL      431<<ASSIGN    432<>CALL      433<<ASSIGN    434<>CALL      435<<ASSIGN    436<>CALL
       437<<ASSIGN    438<>CALL      444<<ASSIGN    445<>CALL
WRITE_LO
       332**DCL       405<>CALL      448<>CALL      461<>CALL      465<>CALL      477<>CALL      481<>CALL
WRITE_LO.BUF_
       332**DCL       404<<ASSIGN    447<<ASSIGN    460<<ASSIGN    464<<ASSIGN    476<<ASSIGN    480<<ASSIGN
WRITE_LO.STATION_
       334**DCL       334--REDEF
WRITE_LO.V
       335**DCL       332--DCLINIT
WRITE_LO.V.DVBYTE.VFC#
       341**DCL       341--REDEF
