VERSION E05

PL6.E3A0      #001=IRF_DATA_D File=IRF_DATA_D.:E05TSI                            TUE 07/29/97 22:44 Page:1
        1        1        /*M*  IRF_DATA_D - Data for IRF$CLSF    */
        2        2        /*T***********************************************************/
        3        3        /*T*                                                         */
        4        4        /*T* Copyright (c) Bull HN Information Systems Inc., 1997    */
        5        5        /*T*                                                         */
        6        6        /*T***********************************************************/
        7        7        /**/
        8        8        /*X* */
        9        9        /**/
       10       10        IRF_DATA_D: PROC;
       11       11        /**/
       12       12    1   DCL RVF_ERRCNT SBIN CONSTANT SYMDEF INIT(0);
       13       13    1   DCL 1 RVF_ERRMSG CONSTANT SYMDEF,       /* Must be word-multiple in length    */
       14       14    1         2 * CHAR(19) INIT(' File cls err: USR='),
       15       15    1         2 USR CHAR(3),
       16       16    1         2 * CHAR(5) INIT(',DCB='),
       17       17    1         2 DCBA(0:4) CHAR(1),
       18       18    1         2 * CHAR(5) INIT(',CFU='),
       19       19    1         2 CFU(0:4) CHAR(1),
       20       20    1         2 * CHAR(5) INIT(',POE='),
       21       21    1         2 PH CHAR(1),
       22       22    1         2 * CHAR(1) INIT(' '),
       23       23    1         2 OP CHAR(2),
       24       24    1         2 * CHAR(1) INIT(' '),
       25       25    1         2 ERR CHAR(2),
       26       26    1         2 * CHAR(1) INIT(' '),
       27       27    1         2 FID CHAR(53);
       28       28    1   DCL 1 RVF_CLSDCB CONSTANT SYMDEF,
       29       29    1         2 F CHAR(15) INIT(' Closing DCB:  '),
       30       30    1         2 FID CHAR(53);
       31       31    1   DCL 1 RVF_CLSCFU CONSTANT SYMDEF,
       32       32    1         2 F CHAR(15) INIT(' Closing CFU:  '),
       33       33    1         2 FID CHAR(53);
       34       34    1   DCL 1 RVF_CLSFD CONSTANT SYMDEF,
       35       35    1         2 F CHAR(15) INIT(' Updating FD:  '),
       36       36    1         2 FID CHAR(25);
       37       37    1   DCL 1 RVF_CLSUSR CONSTANT SYMDEF,
PL6.E3A0      #001=IRF_DATA_D File=IRF_DATA_D.:E05TSI                            TUE 07/29/97 22:44 Page:2
       38       38    1         2 * CHAR(16) INIT(' Closing user:  '),
       39       39    1         2 ACCN CHAR(8),
       40       40    1         2 * CHAR(8) INIT('  SYSID='),
       41       41    1         2 SYSID CHAR(8);
       42       42    1   DCL 1 RVF_RELFILE CONSTANT SYMDEF,
       43       43    1         2 F CHAR(18) INIT(' Releasing file:  '),
       44       44    1         2 FID CHAR(50);
       45       45    1   DCL 1 RVF_CLSBFR CONSTANT SYMDEF,
       46       46    1         2 F CHAR(18) INIT(' Updated buffer:  '),
       47       47    1         2 FID CHAR(52);
       48       48    1   DCL 1 RVF_RELGRAN CONSTANT SYMDEF,
       49       49    1         2 * CHAR(20) INIT(' Releasing files on '),
       50       50    1         2 PSN CHAR(12);
       51       51    1   DCL 1 RVF_DUMPCG CONSTANT SYMDEF,
       52       52    1         2 * CHAR(28) INIT(' Dumping current comgroup:  '),
       53       53    1         2 FID CHAR(52);
       54       54    1   DCL 1 RVF_CGTRAP CONSTANT SYMDEF,
       55       55    1         2 F CHAR(25) INIT(' Trap closing comgroup:  '),
       56       56    1         2 FID CHAR(51);
       57       57    1   DCL 1 RVF_WRDSMSG CONSTANT SYMDEF,
       58       58    1         2 * CHAR(21) INIT(' Data segment file:  '),
       59       59    1         2 FID CHAR(55);
       60       60    1   DCL 1 RVF_MISCMSG CONSTANT SYMDEF,
       61       61    1         2 * CHAR(4) INIT(' '),
       62       62    1         2 M1(0:11) CHAR(1),
       63       63    1         2 * CHAR(4) INIT(' '),
       64       64    1         2 M2(0:11) CHAR(1);
       65       65        /**/
       66       66    1   END IRF_DATA_D;

PL6.E3A0      #001=IRF_DATA_D File=IRF_DATA_D.:E05TSI                            TUE 07/29/97 22:44 Page:3
      No diagnostics issued in procedure IRF_DATA_D.

   No code generated for procedure IRF_DATA_D .
   Procedure IRF_DATA_D requires 4 words of local(AUTO) storage.

    No errors detected in file IRF_DATA_D.:E05TSI    .

PL6.E3A0      #001=IRF_DATA_D File=IRF_DATA_D.:E05TSI                            TUE 07/29/97 22:44 Page:4

 Object Unit name= IRF_DATA_D                                 File name= IRF_DATA_D.:E05TOU
 UTS= JUL 29 '97 22:44:46.36 TUE                              Compiler= PL-6/E31         Sev=      00
 SharedLib= :SHARED_SYSTEM                                    Alt SharedLib=


    ****  Control sections  ****

 Sect   Type Bound  Init  Size OctSiz  Section name(segment info)
    0  RoData even  UTS    191    277  IRF_DATA_D
    1   Proc  even  none     0      0  IRF_DATA_D

    ****  Entry defs  ****

                              Check   Calling
                             calling  sequence
  Sect OctLoc Primary Altret sequence   type   Parms  Name
     1      0   yes            yes     ~proc       0  IRF_DATA_D

  ****  Data defs  ****

 Sect OctLoc  Name                           Sect OctLoc  Name
    0      0  RVF_ERRCNT                         0      1  RVF_ERRMSG
    0     34  RVF_CLSDCB                         0     55  RVF_CLSCFU
    0     76  RVF_CLSFD                          0    110  RVF_CLSUSR
    0    122  RVF_RELFILE                        0    143  RVF_CLSBFR
    0    165  RVF_RELGRAN                        0    175  RVF_DUMPCG
    0    221  RVF_CGTRAP                         0    244  RVF_WRDSMSG
    0    267  RVF_MISCMSG
PL6.E3A0      #001=IRF_DATA_D File=IRF_DATA_D.:E05TSI                            TUE 07/29/97 22:44 Page:5

        1        1        /*M*  IRF_DATA_D - Data for IRF$CLSF    */
        2        2        /*T***********************************************************/
        3        3        /*T*                                                         */
        4        4        /*T* Copyright (c) Bull HN Information Systems Inc., 1997    */
        5        5        /*T*                                                         */
        6        6        /*T***********************************************************/
        7        7        /**/
        8        8        /*X* */
        9        9        /**/
       10       10        IRF_DATA_D: PROC;
       11       11        /**/
       12       12    1   DCL RVF_ERRCNT SBIN CONSTANT SYMDEF INIT(0);
       13       13    1   DCL 1 RVF_ERRMSG CONSTANT SYMDEF,       /* Must be word-multiple in length    */
       14       14    1         2 * CHAR(19) INIT(' File cls err: USR='),
       15       15    1         2 USR CHAR(3),
       16       16    1         2 * CHAR(5) INIT(',DCB='),
       17       17    1         2 DCBA(0:4) CHAR(1),
       18       18    1         2 * CHAR(5) INIT(',CFU='),
       19       19    1         2 CFU(0:4) CHAR(1),
       20       20    1         2 * CHAR(5) INIT(',POE='),
       21       21    1         2 PH CHAR(1),
       22       22    1         2 * CHAR(1) INIT(' '),
       23       23    1         2 OP CHAR(2),
       24       24    1         2 * CHAR(1) INIT(' '),
       25       25    1         2 ERR CHAR(2),
       26       26    1         2 * CHAR(1) INIT(' '),
       27       27    1         2 FID CHAR(53);
       28       28    1   DCL 1 RVF_CLSDCB CONSTANT SYMDEF,
       29       29    1         2 F CHAR(15) INIT(' Closing DCB:  '),
       30       30    1         2 FID CHAR(53);
       31       31    1   DCL 1 RVF_CLSCFU CONSTANT SYMDEF,
       32       32    1         2 F CHAR(15) INIT(' Closing CFU:  '),
       33       33    1         2 FID CHAR(53);
       34       34    1   DCL 1 RVF_CLSFD CONSTANT SYMDEF,
       35       35    1         2 F CHAR(15) INIT(' Updating FD:  '),
       36       36    1         2 FID CHAR(25);
       37       37    1   DCL 1 RVF_CLSUSR CONSTANT SYMDEF,
PL6.E3A0      #001=IRF_DATA_D File=IRF_DATA_D.:E05TSI                            TUE 07/29/97 22:44 Page:6
       38       38    1         2 * CHAR(16) INIT(' Closing user:  '),
       39       39    1         2 ACCN CHAR(8),
       40       40    1         2 * CHAR(8) INIT('  SYSID='),
       41       41    1         2 SYSID CHAR(8);
       42       42    1   DCL 1 RVF_RELFILE CONSTANT SYMDEF,
       43       43    1         2 F CHAR(18) INIT(' Releasing file:  '),
       44       44    1         2 FID CHAR(50);
       45       45    1   DCL 1 RVF_CLSBFR CONSTANT SYMDEF,
       46       46    1         2 F CHAR(18) INIT(' Updated buffer:  '),
       47       47    1         2 FID CHAR(52);
       48       48    1   DCL 1 RVF_RELGRAN CONSTANT SYMDEF,
       49       49    1         2 * CHAR(20) INIT(' Releasing files on '),
       50       50    1         2 PSN CHAR(12);
       51       51    1   DCL 1 RVF_DUMPCG CONSTANT SYMDEF,
       52       52    1         2 * CHAR(28) INIT(' Dumping current comgroup:  '),
       53       53    1         2 FID CHAR(52);
       54       54    1   DCL 1 RVF_CGTRAP CONSTANT SYMDEF,
       55       55    1         2 F CHAR(25) INIT(' Trap closing comgroup:  '),
       56       56    1         2 FID CHAR(51);
       57       57    1   DCL 1 RVF_WRDSMSG CONSTANT SYMDEF,
       58       58    1         2 * CHAR(21) INIT(' Data segment file:  '),
       59       59    1         2 FID CHAR(55);
       60       60    1   DCL 1 RVF_MISCMSG CONSTANT SYMDEF,
       61       61    1         2 * CHAR(4) INIT(' '),
       62       62    1         2 M1(0:11) CHAR(1),
       63       63    1         2 * CHAR(4) INIT(' '),
       64       64    1         2 M2(0:11) CHAR(1);
       65       65        /**/
       66       66    1   END IRF_DATA_D;

PL6.E3A0      #001=IRF_DATA_D File=IRF_DATA_D.:E05TSI                            TUE 07/29/97 22:44 Page:7
      No diagnostics issued in procedure IRF_DATA_D.
PL6.E3A0      #001=IRF_DATA_D File=IRF_DATA_D.:E05TSI                            TUE 07/29/97 22:44 Page:8

 **** Variables and constants ****


   No code generated for procedure IRF_DATA_D .
   Procedure IRF_DATA_D requires 4 words of local(AUTO) storage.

    No errors detected in file IRF_DATA_D.:E05TSI    .
PL6.E3A0      #001=IRF_DATA_D File=IRF_DATA_D.:E05TSI                            TUE 07/29/97 22:44 Page:9
          *** CROSS REFERENCE LISTING ***
**     DENOTES     IDENTIFIER DEFINITION
<<                 IDENTIFIER'S VALUE SET
>>                 IDENTIFIER'S VALUE USED
<>                 IDENTIFIER SET AND/OR USED
--                 IDENTIFIER REFERENCED
PL6.E3A0      #001=IRF_DATA_D File=IRF_DATA_D.:E05TSI                            TUE 07/29/97 22:44 Page:10
          MINI XREF LISTING

