VERSION E05

 22:47 07/29/97  FILE=IRR$RECOVER.:E05TSI                                                                1    BMAP - B00
                                         1  *M*     IRR$RECOVER     ENTRY TO AARDVARK PORTION OF RECOVERY
                                         2  *T***********************************************************
                                         3  *T*                                                         *
                                         4  *T* Copyright (c) Bull HN Information Systems Inc., 1997    *
                                         5  *T*                                                         *
                                         6  *T***********************************************************
             000000000000                7  AARDVARK SET   0               SEE IS$BMACROS
                                         8         ENTDEF  IRR$RECOVER
                                         9         ENTDEF  IRR$OPRCVR
                                        10         ENTDEF  IRR$FLUSHIQ
                                        11         ENTDEF  IRR$GIVEUP
                                        12                 *******************************************************
                                        13                 * MONITOR REFS
                                        14                 *******************************************************
                                        15         SYMREF  B$P$
                                        16         SYMREF  B_VERSION
                                        17         SYMREF  H_DPS8000_SCU_INFO
                                        18         SYMREF  TEMP_CONFIG
                                        19         SYMREF  IS_MEM_SIDE1
                                        20         SYMREF  EL_BUSY
                                        21         SYMREF  EL_NUMPGS
                                        22         SYMREF  EL_FULLBUFS
                                        23         SYMREF  EL_MAXPGS
                                        24         SYMREF  EL_FIRSTBUF
                                        25         SYMREF  EL_CURBUF
                                        26         SYMREF  EL_ERRCT
                                        27         SYMREF  N$DCT$$
                                        28         SYMREF  B$USRT$
                                        29         SYMREF  B_MUAIS
                                        30         SYMREF  K_HEADER
                                        31         SYMREF  RPM_FLG
                                        32         SYMREF  H_DPS8000_CI_TABLE
                                        33         SYMREF  IT_CP6UP
                                        34         SYMREF  IT_PARTITION
                                        35         SYMREF  IT_SCPUJIT
                                        36         SYMREF  P_NPROCS
                                        37         SYMREF  P_MAXPROCS
 22:47 07/29/97  FILE=IRR$RECOVER.:E05TSI                                                                2    BMAP - B00
                                        38         SYMREF  S_DL$
                                        39         SYMREF  S_CUN
                                        40         SYMREF  S_CTUIS
                                        41         SYMREF  S$CU$
                                        42         SYMREF  S_PNO
                                        43         SYMREF  S_CNODE
                                        44         SYMREF  S1000_FLG
                                        45         SYMREF  IPHYPG
                                        46         SYMREF  S_PCU
                                        47         SYMREF  S_NSCPU
                                        48         SYMREF  S_MPSTATE
                                        49         SYMREF  S_PORTNR
                                        50         SYMREF  S_SYSID
                                        51         SYMREF  S_STREAMFILEID
                                        52         SYMREF  S_TUIS
                                        53         SYMREF  S_MUIS
                                        54         SYMREF  KI_FEI$$
                                        55         SYMREF  KI_MXFE
                                        56         SYMREF  MM_CGQCXT_END
                                        57         SYMREF  IRM_ASCOUNT
                                        58         SYMREF  IRM_DINDEX
                                        59         SYMREF  IRM_RTRAPS
                                        60         SYMREF  REC_DPX
                                        61         SYMREF  IT_CLOFF
                                        62         SYMDEF   IR_MS_COOKIE
                                        63         SYMDEF   IR_UTS_COOKIE
                                        64                 *******************************************************
                                        65                 * RECOVERY REFS
                                        66                 *******************************************************
                                        67         ENTREF  X66_MSTATIC
                                        68         ENTREF  DO_CPU_SWITCH
                                        69         ENTREF  IRN$RCVRIO
                                        70         ENTREF  IRN$PART
                                        71         ENTREF  IRN$RCVR_MTUNLOAD
                                        72         ENTREF  IRD$DUMPMP
                                        73         ENTREF  IRD$DJITS
                                        74         ENTREF  IRD$ERRLOG
 22:47 07/29/97  FILE=IRR$RECOVER.:E05TSI                                                                3    BMAP - B00
                                        75         ENTREF  IRD$DUSERS
                                        76         ENTREF  IRD$DLRMEM
                                        77         ENTREF  IRD$DHJITS
                                        78         ENTREF  IRD$CLOSE
                                        79         ENTREF  IRI$INIT
                                        80         SYMREF  RV_USRPT
                                        81         SYMREF  RV_MONPT
                                        82         SYMREF  RV_USRDRDA
                                        83         ENTREF  IRD$DUMPMON
                                        84         SYMREF  RV_ATTEMPTS
                                        85         SYMREF  RV_MAXGRAN
                                        86         SYMREF  RV_BUFFGRAN
                                        87         SYMREF  RV_OPASCODE
                                        88         SYMREF  RV_DINDEXA
                                        89         SYMREF  RV_NODUMPG
                                        90         SYMREF  RV_PDUMP
                                        91         SYMREF  RV_T1
                                        92         SYMREF  RV_T2
                                        93         SYMREF  RV_SCODEA
                                        94         SYMREF  RV_CUN
                                        95         SYMREF  RV_CPNO
                                        96         SYMREF  RV_SCPUJIT
                                        97         SYMREF  RV_NSCPU
                                        98         SYMREF  RV_WDGRAN
                                        99         SYMREF  RV_NXTGRAN
                                       100         SYMREF  RV_BAPAGE
                                       101         SYMREF  RV_BUFF
                                       102         SYMREF  RV_USRDIR
                                       103         SYMREF  RV_DEBUG
                                       104         SYMREF  RV_DEBUGM
                                       105         SYMREF  RV_UNWIND1
                                       106         SYMREF  RV_UNWIND2
                                       107         SYMREF  RV_ENTRY
                                       108         SYMREF  RV_MUAIS
                                       109         SYMREF  RV_DCTX
                                       110         SYMREF  RV_NSPG
                                       111         SYMREF  RV_FCN
 22:47 07/29/97  FILE=IRR$RECOVER.:E05TSI                                                                4    BMAP - B00
                                       112         SYMREF  RV_SLAVES
                                       113         SYMREF  RV_MONDSEG
                                       114         SYMREF  R$USRT$
                                       115         SYMREF  R$CU$
                                       116         SYMREF  R$ROSEG$
                                       117         SYMREF  R$BUFF$
                                       118         SYMREF  R$CFU$
                                       119         SYMREF  R$DVT$
                                       120         SYMREF  R$DCT$$
                                       121         SYMREF  RV_UBUFF
                                       122         SYMREF  RV_CGPT
                                       123         SYMREF  RV_CGCTXT
                                       124                 *******************************************************
                                       125                 * AARDVARK REFS
                                       126                 *******************************************************
             000000000040              127  AFLTLC BOOL    40
                                       128         SYMREF  MEMDESC
                                       129         SYMREF  MINID
                                       130         SYMREF  POBUF
                                       131         SYMREF  RAUTO
                                       132         SYMREF  RCV_FLG
                                       133         SYMREF  WSREGS
                                       134         SYMREF  ASDESC
                                       135         SYMREF  PSDESC
                                       136         SYMREF  DESCRV1
                                       137         SYMREF  DESCRV2
                                       138         SYMREF  DESCRV3
                                       139         SYMREF  DESCRV4
                                       140         SYMREF  DESCRV5
                                       141         SYMREF  DESCTEMP
                                       142         SYMREF  I$AUTO$
                                       143         SYMREF  I$MEM$
                                       144         SYMREF  I$MONIS$
                                       145         SYMREF  I$MONLS$
                                       146         SYMREF  I$RV1$
                                       147         SYMREF  I$RV2$
                                       148         SYMREF  I$RV3$
 22:47 07/29/97  FILE=IRR$RECOVER.:E05TSI                                                                5    BMAP - B00
                                       149         SYMREF  I$RV4$
                                       150         SYMREF  I$RV5$
                                       151         SYMREF  I$TEMP$
                                       152         SYMREF  S.AIS
             000000000000              153  FCNRDB EQU     0               FCN CODE FOR DISK READ (BINARY)
             000000000001              154  FCNWDB EQU     1               FCN CODE FOR DISK WRITE (BINARY)
             000000000011              155  FCNUNL EQU     9               FCN CODE FOR TAPE UNLOAD
             000000000005              156  FCNWFM EQU     5               FCN CODE FOR TAPE WRITE FILEMARK
             000000000016              157  FCNPER EQU     14              FCN CODE FOR TAPE WRITE PERMIT
             000000000001              158  FCNWTB EQU     1               FCN CODE FOR TAPE WRITE BINARY
             000000000003              159  FCNWT9 EQU     3               FCN CODE FOR TAPE WRITE ASCII
             000000000014              160  FCNSRB EQU     12              FCN CODE FOR SKIP RECORD BACKWARD
                                       161         SYMREF  PPDBR
                                       162         SYMREF  SPW2
                                       163         SYMREF  IODESC
                                       164         SYMREF  SSDESC
                                       165         SYMREF  TOPDA
                                       166         SYMREF  AAFLTD
                                       167         SYMREF  SYS_DPX
                                       168         SYMREF  PO_INDX
                                       169         SYMREF  DEVINFO
                                       170         SYMREF  NSPG
                                       171         ENTREF  MINIQ_PL6
                                       172         ENTREF  MINIQC_PL6
                                       173         ENTREF  INIT_FEP
                                       174         ENTREF  ZAPR
                                       175         ENTREF  REBOOT
                                       176  *
                                       177  *
                                       178  *  THE FIRST FEW LOCATIONS IN AARDVARK ARE KNOWN TO BE:
                                       179  *
                                       180  *AARD  NULL
                                       181  *      TRA     MINIQM          TRANSFER VECTOR FOR MON ISR.
                                       182  *      TRA     MINIQX          TRANSFER VECTOR FOR XDEL ISR
                                       183  *RSTART TRA    RCVR            TRANSFER VECTOR FOR BISON RECOVERY
                                       184  *GOLOOP TRA    LOOP            TRANSFER VECTOR FOR CP6 ETC.
                                       185  *      TRA     IRR$RECOVER
 22:47 07/29/97  FILE=IRR$RECOVER.:E05TSI                                                                6    BMAP - B00
                                       186  *
                                       187  *PATCH BSS     50
                                       188  *
             000000020000              189  AARD   BOOL    20000
             000000020002              190  RESTART EQU    AARD+2
             000000020003              191  GOLOOP EQU     AARD+3

 22:47 07/29/97  FILE=IRR$RECOVER.:E05TSI                                                                7    BMAP - B00
                                       192         EJECT
                                       193                 *******************************************************
                                       194                 * HARDWARE SEGIDS
                                       195                 *******************************************************
             000000001761              196  TYP    BOOL    1761
             000000001762              197  ISR    BOOL    1762
             000000001764              198  SSR    BOOL    1764
             000000001765              199  LSR    BOOL    1765
             000000001766              200  ASR    BOOL    1766
             000000001767              201  PSR    BOOL    1767

 22:47 07/29/97  FILE=IRR$RECOVER.:E05TSI                                                                8    BMAP - B00
                                       202         EJECT
                                       203                 *******************************************************
                                       204                 * THINGS STOLEN FROM AARDVARK
                                       205                 *******************************************************
                                       206         LODM    IS$BMACROS
 0 000000 (0)000006 0 00 X 0000        207         MINIT                   SOME STUFF FOR IS$BMACROS MACROS
   000001 (0)000007 0 00 X 0000
   000002 (0)000010 0 00 X 0000
   000003 (0)000011 0 00 X 0000
   000004 (0)000012 0 00 X 0000
   000005    000000000000
   000013    000000 000120
             000000000002              208  WSRX   EQU     2
             000000000001              209  MONWSQ EQU     1               MONITOR WORKING SPACE QUARTER
             000000000010              210  USRWSQ EQU     8               USER WORKING SPACE QUARTER
             000000000032              211  FLTLOC BOOL    32              AARDVARK'S FAULT ENTRY DESC
             000000000030              212  INTLOC BOOL    30              AARDVARK'S INTERRUPT ENTRY DESC
             000000000403              213  R      BOOL    403
             000000000203              214  W      BOOL    203
                                       215  *
                                       216  *
                                       217         LODM    B_BMACROS_C
                                       218         PMC     ON
                                       219  *
                                       220  *      MONITOR LINKAGE SEGMENT DEFINITIONS
                                       221  *
                                       222         MONLS
             000000000000                   LS.IS EQU 0             MONITOR INSTRUCTION SEGMENT
             000000000001                   LS.JITU EQU LS.IS+1       USER JIT
             000000000002                   LS.BUF EQU LS.JITU+1     USER FILE MANAGEMENT BUFFERS
             000000000003                   LS.ROSEG EQU LS.BUF+1      USER READ ONLY SEGMENT
             000000000004                   LS.DS1 EQU LS.ROSEG+1    MONITOR DATA SEGMENT 1
             000000000004                   LS.CFU EQU LS.DS1        MON DS1 -- CFUS
             000000000005                   LS.DS2 EQU LS.DS1+1      MONITOR DATA SEGMENT 2
             000000000006                   LS.DS3 EQU LS.DS2+1      MONITOR DATA SEGMENT 3
             000000000007                   LS.DS4 EQU LS.DS3+1      MONITOR DATA SEGMENT 4
             000000000010                   LS.DS5 EQU LS.DS4+1      MONITOR DATA SEGMENT 5
 22:47 07/29/97  FILE=IRR$RECOVER.:E05TSI                                                                9    BMAP - B00
             000000000011                   LS.DS6 EQU LS.DS5+1      MONITOR DATA SEGMENT 6
             000000000012                   LS.DS7 EQU LS.DS6+1      MONITOR DATA SEGMENT 7
             000000000013                   LS.DS8 EQU LS.DS7+1      MONITOR DATA SEGMENT 8
             000000000013                   LS.LDCT EQU LS.DS8        MON DS8 -- LDCTS
             000000000014                   LS.NULL EQU LS.DS8+1      NULL DESCRIPTOR
             000000000015                   LS.XLAT EQU LS.NULL+1     XLATE/SEARCH TABLES
             000000000016                   LS.ECCB EQU LS.XLAT+1     ECCB
             000000000017                   LS.TCB EQU LS.ECCB+1     TCB
             000000000020                   LS.TSTACK EQU LS.TCB+1      TSTACK
             000000000021                   LS.REAL EQU LS.TSTACK+1   REAL PG 0-3
             000000000022                   LS.USSS EQU LS.REAL+1     USER SS AREA
             000000000023                   LS.USDS0 EQU LS.USSS+1     USER SDS TYPE 0
             000000000024                   LS.USDS1 EQU LS.USDS0+1    USER SDS TYPE 1
             000000000025                   LS.SCR EQU LS.USDS1+1    SCREECH ENTRY
             000000000026                   LS.XD EQU LS.SCR+1      XDELTA ENTRY DESCRIPTOR
             000000000027                   LS.PMME EQU LS.XD+1       PMME ENTRY DESCRIPTOR
             000000000030                   LS.REG EQU LS.PMME+1     SCHED REG ENTRY DESCRIPTOR
             000000000031                   LS.ULS EQU LS.REG+1      USER LINKAGE SEGMENT
             000000000032                   LS.DBLS EQU LS.ULS+1      DEBUGGER LINKAGE SEGMENT
             000000000033                   LS.ASLLS EQU LS.DBLS+1     ASL LINKAGE SEGMENT
             000000000034                   LS.CPLS EQU LS.ASLLS+1    COMMAND PROCESSOR LINKAGE SEGMENT
             000000000035                   LS.MLS EQU LS.CPLS+1     MONITOR LINKAGE SEGMENT
             000000000036                   LS.UPT EQU LS.MLS+1      USER PAGE TABLE
             000000000037                   LS.MPT EQU LS.UPT+1      MONITOR PAGE TABLE
             000000000040                   LS.USRIS EQU LS.MPT+1      USER INSTRUCTION SEGMENT
             000000000041                   LS.MTSTACK EQU LS.USRIS+1    TSTACKU
             000000000042                   LS.MJIT EQU LS.MTSTACK+1  MONITOR JIT
             000000000043                   LS.MHJIT EQU LS.MJIT+1     MONITOR HJIT
             000000000044                   LS.MONSSS EQU LS.MHJIT+1    MONITOR SSS -- TYPE 0
             000000000045                   LS.HJITU EQU LS.MONSSS+1   USER HJIT
             000000000046                   LS.SBUF1 EQU LS.HJITU+1    SPECIAL BUFFER 1
             000000000047                   LS.SBUF2 EQU LS.SBUF1+1    SPECIAL BUFFER 2
             000000000050                   LS.ISB EQU LS.SBUF2+1    MON ISR -- BYPASS CACHE
             000000000051                   LS.SCU EQU LS.ISB+1      SPECIAL PAGES FOR GETTING SCU ADDR
             000000000052                   LS.WINDOW EQU LS.SCU+1      WINDOW AREA
             000000000053                   LS.ASR EQU LS.WINDOW+1   MONITOR ARGUMENT STACK DESC
             000000000054                   LS.MISC EQU LS.ASR+1      MISCELLANEOUS (can be used @ int level)
 22:47 07/29/97  FILE=IRR$RECOVER.:E05TSI                                                                10   BMAP - B00
             000000000055                   LS.CWSQ1 EQU LS.MISC+1     COMMUNICATIONS WSQ
             000000000075                   LS.CPGT1 EQU LS.CWSQ1+16   CWSQ PG TABLE
             000000000115                   LS.JITPG EQU LS.CPGT1+16
             000000000116                   LS.PPUT EQU LS.JITPG+1
             000000000117                   LS.VPT EQU LS.PPUT+1
             000000000120                   LS.MOUSE EQU LS.VPT+1
             000000000121                   LS.LOWMEM EQU LS.MOUSE+1
             000000000122                   LS.IOEND EQU LS.LOWMEM+1
             000000000123                   LS.TIGR EQU LS.IOEND+1    TIGR DATA
             000000000124                   LS.RONC EQU LS.TIGR+1     READ ONLY SEG -- BYPASS CACHE
             000000000125                   LS.ROSEG8 EQU LS.RONC+1     READ ONLY SEG -- AT IO END ACT (WSQ8)
             000000000126                   LS.XDRTN EQU LS.ROSEG8+1   XDELTA RETURN ENTRY DESCRIPTOR
             000000000127                   LS.RCVRTN EQU LS.XDRTN+1    SUA OR SNAP RETURN ENTRY DESCRIPTOR
             000000000130                   LS.MISC2 EQU LS.RCVRTN+1   MISCELLANEOUS (used on behalf of user only)
             000000000131                   LS.RCVENT EQU LS.MISC2+1    RECOVERY ENTRY DESCRIPTOR
             000000000132                   LS.MLS1 EQU LS.RCVENT+1   MON LS -- TYPE 1 FOR ANLZ
             000000000133                   LS.WS3MLS EQU LS.MLS1+1
             000000000134                   LS.LDCTNC EQU LS.WS3MLS+1
             000000000135                   LS.MSTRPT EQU LS.LDCTNC+1
             000000000136                   LS.SLV1PT EQU LS.MSTRPT+1
             000000000137                   LS.SLV2PT EQU LS.SLV1PT+1
             000000000140                   LS.SLV3PT EQU LS.SLV2PT+1
             000000000141                   LS.SLV4PT EQU LS.SLV3PT+1
             000000000142                   LS.SLV5PT EQU LS.SLV4PT+1
             000000000143                   LS.SLV6PT EQU LS.SLV5PT+1
             000000000144                   LS.SLV7PT EQU LS.SLV6PT+1
             000000000145                   LS.MSTRHJ EQU LS.SLV7PT+1
             000000000146                   LS.SLV1HJ EQU LS.MSTRHJ+1
             000000000147                   LS.SLV2HJ EQU LS.SLV1HJ+1
             000000000150                   LS.SLV3HJ EQU LS.SLV2HJ+1
             000000000151                   LS.SLV4HJ EQU LS.SLV3HJ+1
             000000000152                   LS.SLV5HJ EQU LS.SLV4HJ+1
             000000000153                   LS.SLV6HJ EQU LS.SLV5HJ+1
             000000000154                   LS.SLV7HJ EQU LS.SLV6HJ+1
             000000000155                   LS.AARDV EQU LS.SLV7HJ+1
             000000000155                   LS.FLT EQU LS.AARDV      AARDVARK FAULT ENTRY DESCR
             000000000156                   LS.AARDV2 EQU LS.AARDV+1
 22:47 07/29/97  FILE=IRR$RECOVER.:E05TSI                                                                11   BMAP - B00
             000000000156                   LS.MONRL EQU LS.AARDV2     REAL MON ISR FOR MINIQ
             000000000157                   LS.FIRM EQU LS.AARDV2+1
             000000000160                   LS.WS3MLSNW EQU LS.FIRM+1
             000000000161                   LS.BUFCACH EQU LS.WS3MLSNW+1
             000000000162                   LS.IMX EQU LS.BUFCACH+1  IMX DATA
             000000000163                   LS.CGPT EQU LS.IMX+1      CG PAGE TABLE
             000000000164                   LS.CGCTXT EQU LS.CGPT+1     CG CONTEXT & DESCRIPTOR SEG BLKS
             000000000165                   LS.MAGSS EQU LS.CGCTXT+1   MAGIC SS FRAME
             000000000166                   LS.MAGLS EQU LS.MAGSS+1    MAGIC LS
             000000000167                   LS.MAGAS EQU LS.MAGLS+1    MAGIC AS
             000000000170                   LS.MAGPS EQU LS.MAGAS+1    MAGIC PS
             000000000171                   LS.MAGTCB EQU LS.MAGPS+1    MAGIC TCB
             000000000172                   LS.MAGECCB EQU LS.MAGTCB+1   MAGIC ECCB
             000000000173                   LS.MLSREAD EQU LS.MAGECCB+1  MLS - READ ONLY
             000000000174                   LS.SEGTBL EQU LS.MLSREAD+1    MON OVERLAY SEGMENT TABLE
             000000000175                   LS.WSQ0PT EQU LS.SEGTBL+1     WSQ #0 Page Table.  DPS-90 only
             000000000176                   LS.IPHY_MAP EQU LS.WSQ0PT+1   Inverse physical map for DPS-90
             000000000177                   LS.MINIQ_ENT EQU LS.IPHY_MAP+1 Entry for MINIQ's climb to itself
             000000000200                   LS.XLNORM EQU LS.MINIQ_ENT+1 Normal XLATE tables (Note space reserved for X1000)
             000000000201                   LS.XLALT EQU LS.XLNORM+1   Alternate XLATE tables
             000000000202                   LS.DVT EQU LS.XLALT+1    DVT TABLE
                                       223         PMC     OFF

 22:47 07/29/97  FILE=IRR$RECOVER.:E05TSI                                                                12   BMAP - B00
                                       224         EJECT
                                       225                 *******************************************************
                                       226                 * IRR$RECOVER
                                       227                 *******************************************************
 2 000000                              228         USE     IRR$RECOVER,1
   000000                              229  IRR$RECOVER NULL
                                       230         INHIB   ON
   000000  X 000000 4776 00            231         LDP7    I$MONIS$
   000001    7 00000 7213 10           232         LXL1    0,0,7           FETCH SCREECH CODE
   000002    000007 3612 03            233         ANX1    =O7,DU
   000003    000007 1012 03            234         CMPX1   =O7,DU          CHECK TYPE
   000004  X 000000 6002 00            235         TZE     REBOOT          SCREECH; GET NEW AARDVARK
                                       236  *
                                       237  *  CONTINUE HERE IF SUA OR AFTER AARDVARK IS REBOOTED           *
                                       238  *
   000005                              239  IRR$OPRCVR NULL
   000005  X 000000 4776 00            240          LDP7    I$MONIS$
   000006 (2)002564 4502 00            241         STZ     MSKDFEP
   000007 (2)002553 7402 00            242         STX0    RVB.X0          REMEMBER ADDR OF SCREECH CODE
                                       243  *
   000010    004210 6342 07            244         LDI     =O4210,DL       IR   OVMSK, MM, FLOX
   000011    000000 2332 00            245         RMCM                    INTERRUPT MASK TO AQ
   000012 (2)002554 7572 00            246         STAQ    RVB.IMASK       REMEMBER IT
   000013    000017 3752 07            247         ANA     =O17,DL         ZERO ALL CHANNELS
   000014    000017 3762 07            248         ANQ     =O17,DL
   000015    000000 5532 00            249         SMCM    0               DISABLE ALL INTERRUPTS
   000016 (2)002354 7042 00            250         TSX4    IRR$BMAP_CLOCK  SYSTIME
   000017 (2)002550 1172 00            251         CMPAQ   IR_MS_COOKIE
   000020 (2)000031 6022 00            252         TNC     PRE_COOKIE
   000021 (2)002550 1772 00            253         SBAQ    IR_MS_COOKIE
   000022    116100 5072 07            254         DVF     40000,DL
   000023    000001 7352 00            255         ALS     1
   000024    047040 1162 07            256         CMPQ    20000,DL
   000025 (2)000027 6042 00            257         TMI     *+2
   000026    000001 0352 07            258         ADLA    1,DL
   000027 (2)002552 0352 00            259         ADLA    IR_UTS_COOKIE
   000030 (2)000036 7102 00            260         TRA     *+6
 22:47 07/29/97  FILE=IRR$RECOVER.:E05TSI                                                                13   BMAP - B00
   000031                              261  PRE_COOKIE NULL
   000031    023420 5072 07            262         DVF     10000,DL
   000032    000001 7352 00            263         ALS     1
   000033    011610 1162 07            264         CMPQ    5000,DL
   000034 (2)000036 6042 00            265         TMI     *+2
   000035    000001 0352 07            266         ADLA    1,DL
   000036 (2)002556 7552 00            267         STA     RVB.UTS1
                                       268  *
                                       269  *              CLEAN THE RECOVERY BUFFER
                                       270  *
   000037    010000 6232 00            271         EAX3    4096
   000040    000 0 040 1006 00         272         MLR     ,(0,1),000
   000041    000000 0 0 0 0000         273         ADSC9   0,0,0
   000042  X 000000 0 0 0 0013         274         ADSC9   RV_BUFF,0,3
                                       275                 *******************************************************
                                       276                 *REMEMBER THE HARDWARE REG VALUES BEFORE WE SWITCH
                                       277                 *TO AARDVARKS ENVIRONMENT
                                       278                 *******************************************************
   000043    000032 2372 00            279         LDAQ    FLTLOC          REMEMBER MON FAULT LOC
   000044  X 000026 7572 00            280         STAQ    RV_BUFF+B.FLTLOC
   000045    000040 2372 00            281         LDAQ    AFLTLC          REMEMBER CURRENT AFLTLOC TOO
   000046  X 000030 7572 00            282         STAQ    RV_BUFF+B.AFLTLOC
   000047  X 000000 2372 00            283         LDAQ    AAFLTD          AARDVARK FAULT HANDLER
   000050    000032 7572 00            284         STAQ    FLTLOC
   000051    000040 7572 00            285         STAQ    AFLTLC
                                       286  *
   000052    000030 2372 00            287         LDAQ    INTLOC          REMEMBER INTERRUPT HANDLER
   000053  X 000032 7572 00            288         STAQ    RV_BUFF+B.INTLOC
   000054  X 000000 2372 00            289         LDAQ    IODESC
   000055    000030 7572 00            290         STAQ    INTLOC
                                       291  *
   000056  X 000020 7536 00            292         STSS    RV_BUFF+B.SSR   REMEMBER SSR
   000057  X 000000 7736 00            293         LDSS    SSDESC          AND SWITCH TO AARDVARK SS
                                       294  *
   000060  X 000024 7506 00            295         STAS    RV_BUFF+B.ASR   REMEMBER ASR
   000061  X 000022 7516 00            296         STPS    RV_BUFF+B.PSR   REMEMBER PSR
   000062  X 000000 7706 00            297         LDAS    ASDESC
 22:47 07/29/97  FILE=IRR$RECOVER.:E05TSI                                                                14   BMAP - B00
   000063  X 000000 7716 00            298         LDPS    PSDESC
                                       299  *
   000064  X 000036 7526 00            300         STWS    RV_BUFF+B.WSR0  REMEMBER THE WORKING
   000065  X 000037 7526 00            301         STWS    RV_BUFF+B.WSR4    SPACE REGISTERS
   000066  X 000000 7726 00            302         LDWS    WSREGS
   000067  X 000001 7726 00            303         LDWS    WSREGS+1
   000070    204000 1726 07            304         LDO     =O204000,DL     ENABLE SS AND CRCF
                                       305  *
   000071  X 000162 1516 00            306         SPDBR   RV_BUFF+B.PDBR  REMEMBER THE PDBR
                                       307  *                                BUT DONT RELOAD IT YET
                                       308         INHIB   OFF
                                       309  *
                                       310  *              INITIALIZE AUTO
                                       311  *
   000072 (2)002363 7010 00            312         TSX1    6INIT
   000073    000000 0110 00            313         NOP
                                       314  *
                                       315  *              ESTABLISH TRAP CONTROL
                                       316  *
   000074  X 000000 2350 00            317         LDA     I$AUTO$         AN INITIAL POINTER
   000075  X 000000 7550 00            318         STA     RV_UNWIND1
   000076 (2)001443 6210 00            319         EAX1    TRAP.P1         AN INITIAL HANDLER
   000077  X 000001 7410 00            320         STX1    RV_UNWIND1+1
   000100  X 000000 2350 00            321         LDA     RV_DEBUG        ARE WE DEBUGGING RECOVERY
   000101 (2)000104 6010 00            322         TNZ     NO.TRAPH        YES
   000102 (2)001353 6210 00            323         EAX1    TRAP.HAND
   000103    000032 7410 00            324         STX1    FLTLOC
   000104                              325  NO.TRAPH NULL
                                       326  *
                                       327  *              BUILD THE RECOVERY BUFFER INFORMATION
                                       328  *              AND GRAB INFORMATION OUT OF MONITOR IS
                                       329  *
   000104 (2)002554 2370 00            330         LDAQ    RVB.IMASK
   000105  X 000034 7570 00            331         STAQ    RV_BUFF+B.IMASK
   000106 (2)002556 2350 00            332         LDA     RVB.UTS1
   000107  X 000004 7550 00            333         STA     RV_BUFF+B.UTS1
   000110 (2)002553 2200 00            334         LDX0    RVB.X0
 22:47 07/29/97  FILE=IRR$RECOVER.:E05TSI                                                                15   BMAP - B00
   000111    001762 4774 07            335         LDP7    ISR,DL
   000112  X 000000 1000 03            336         CMPX0   RV_OPASCODE,DU
   000113 (2)000115 6000 00            337         TZE     *+2             SKIP IF OP RECOVERY
   000114  X 000000 4774 00            338         LDP7    I$MONIS$
   000115    7 00000 2371 10           339         LDAQ    0,0,7           GET SCREECH CODE FROM MON IS
   000116  X 000010 7570 00            340         STAQ    RV_BUFF+B.SCODE
   000117  X 000001 3760 00            341         ANQ     RV_MONDSEG+1         ***SAVE SOME TIME***
   000120  X 000000 7570 00            342         STAQ    RV_SCODEA       PUT IN PL6 ACCESSABLE DATA
   000121  X 000014 7570 00            343         STAQ    RV_BUFF+B.RCODE
   000122    000007 3750 07            344         ANA     =O7,DL
   000123    000007 1150 07            345         CMPA    =O7,DL
   000124 (2)000126 6010 00            346         TNZ     *+2             IF NOT FULL SCREECH
   000125  X 000000 0540 00            347         AOS     RV_DEBUGM
   000126  X 000000 4774 00            348         LDP7    I$MONIS$
   000127    7 X 00000 2361 00         349         LDQ     IT_CP6UP,,7     HAS TIGR COMPLETED
   000130 (2)000167 6010 00            350         TNZ     CP6UP           YES
   000131    000007 2750 07            351         ORA     =O7,DL          NO-BRING IT AROUND
   000132  X 000014 7550 00            352         STA     RV_BUFF+B.RCODE
   000133  X 000000 4440 51            353         TYPE    NOTUPM
   000134  X 000000 7430 56
   000135 (2)002400 2350 00
   000136    000000 6314 01
   000137    777777 3750 07
   000140    000004 7310 00
   000141    000000 6250 05
   000142    040 0 040 1005 40
   000143    1 00000 0 0 0 0015
   000144 (0)000014 0 0 0 0015
   000145 (0)000013 4450 00
   000146 (0)000013 6304 00
   000147 (0)000000 4504 00
   000150    000001 2350 03
   000151 (0)000005 7550 00
   000152 (0)000000 6304 00
   000153 (0)000005 6314 00
   000154  X 000000 7010 00
   000155    000000 0110 00
 22:47 07/29/97  FILE=IRR$RECOVER.:E05TSI                                                                16   BMAP - B00
   000156 (0)000006 6304 00
   000157 (0)000000 4504 00
   000160  X 000000 2230 54
   000161  X 000000 7240 51
   000162  X 000000 0540 00            354         AOS     RV_ATTEMPTS
   000163  X 000000 2350 00            355         LDA     RV_ATTEMPTS
   000164    000002 1150 07            356         CMPA    2,DL
   000165 (2)001476 6044 00            357         TMOZ    IRR$GIVEUP
   000166    020002 7100 00            358         TRA     RESTART
                                       359  *O*
                                       360  *O*    MESSAGE:   RCVR-CP6 NOT UP
                                       361  *O*    MEANING:   The system SCREECHed before TIGR initialization
                                       362  *O*               was completed.
                                       363  *
   000167                              364  CP6UP  NULL
   000167    7 00002 2351 10           365         LDA     2,0,7           GET THE SNAP USER #
   000170  X 000012 7550 00            366         STA     RV_BUFF+B.SNAPU    -- IF ANY
   000171  X 000000 4774 00            367         LDP7    I$MONIS$
   000172    7 X 00000 2351 00         368         LDA     B$P$,,7
   000173  X 000155 7550 00            369         STA     RV_BUFF+B.B$P$
   000174    7 X 00000 2351 00         370         LDA     MM_CGQCXT_END,,7
   000175  X 000143 7550 00            371         STA     RV_BUFF+B.MXCG
   000176    7 X 00000 2351 00         372         LDA     S_DL$,,7
   000177  X 000156 7550 00            373         STA     RV_BUFF+B.DL$
   000200    7 X 00000 2351 00         374         LDA     P_NPROCS,,7
   000201  X 000157 7550 00            375         STA     RV_BUFF+B.NPROCS
   000202    7 X 00000 2351 00         376         LDA     P_MAXPROCS,,7
   000203  X 000160 7550 00            377         STA     RV_BUFF+B.MXPRS
   000204    7 X 00000 2351 00         378         LDA     S_CTUIS,,7
   000205  X 000251 7550 00            379         STA     RV_BUFF+B.CTUIS
   000206    7 X 00000 2351 00         380         LDA     B_MUAIS,,7
   000207  X 000161 7550 00            381         STA     RV_BUFF+B.MUAIS
   000210  X 000000 7550 00            382         STA     RV_MUAIS        MAX USERS
   000211    000174 2230 03            383         LDX3    0124,DU
   000212    040 0 040 1005 40         384         MLR     (1,1),(0,1),040   SAVE HEADER MESSAGE
   000213    7 X 00000 0 0 0 0013      385         ADSC9   K_HEADER,0,X3,7
   000214  X 000617 0 0 0 0013         386         ADSC9   RV_BUFF+B.HEADER,0,X3
 22:47 07/29/97  FILE=IRR$RECOVER.:E05TSI                                                                17   BMAP - B00
   000215    7 X 00000 2351 00         387         LDA     S_CUN,,7        GET CURRENT USER#-THIS PROCESSOR
   000216  X 000140 7550 00            388         STA     RV_BUFF+B.CUN
   000217  X 000000 7550 00            389         STA     RV_CUN
                                       390  *
   000220  X 000020 2370 00            391         LDAQ    RV_BUFF+B.SSR   SSR AT TIME OF SCREECH
   000221  X 000000 7570 00            392         STAQ    DESCRV1
   000222  X 000000 4764 00            393         LDP6    I$RV1$          TO A DR
   000223    001761 4764 07            394         LDP6    TYP,DL          AS TYPE 0
   000224  X 000000 0564 00            395         STD6    DESCRV1
   000225    000400 6230 00            396         EAX3    64*4            MOVE SS FRAME TO BUFF
   000226    000 0 040 1005 40         397         MLR     (1,1),(0,1),000
   000227    6 00000 0 0 0 0013        398         ADSC9   0,0,3,6
   000230  X 000040 0 0 0 0013         399         ADSC9   RV_BUFF+B.SSF,0,3
                                       400  *
                                       401  *              GENERATE POINTERS TO TIGR DATA
                                       402  *
   000231    7 X 00000 2351 00         403         LDA     S$CU$,,7        GET CURRENT USER TABLE PTR
   000232  X 000141 7550 00            404         STA     RV_BUFF+B.CUN$
   000233    777777 3750 03            405         ANA     =O777777,DU     AND MAKE IT USEABLE FOR PL6
   000234  X 000000 2750 00            406         ORA     I$RV1$
   000235  X 000000 7550 00            407         STA     R$CU$
                                       408  *
   000236    7 X 00000 2351 00         409         LDA     B$USRT$,,7      GET PTR TO BEGINNING OF USER TABLES
   000237  X 000154 7550 00            410         STA     RV_BUFF+B.USRT$
   000240    777777 3750 03            411         ANA     =O777777,DU     AND MAKE IT USEABLE
   000241  X 000000 2750 00            412         ORA     I$RV1$
   000242  X 000000 7550 00            413         STA     R$USRT$
                                       414  *
   000243    7 X 00000 2351 00         415         LDA     N$DCT$$,,7
   000244    777777 3750 03            416         ANA     =O777777,DU
   000245  X 000000 2750 00            417         ORA     I$RV1$
   000246  X 000000 7550 00            418         STA     R$DCT$$
                                       419  *
   000247  X 000000 4764 00            420         LDP6    I$MONLS$        BUILD THE DESCRIPTOR
   000250    001761 4764 07            421         LDP6    TYP,DL           TO BE USED
   000251    000123 6270 00            422         EAX7    LS.TIGR         RELOCATION
   000252    6 00123 2371 17           423         LDAQ    LS.TIGR,7,6     WITH I$RV1$
 22:47 07/29/97  FILE=IRR$RECOVER.:E05TSI                                                                18   BMAP - B00
   000253  X 000000 7570 00            424         STAQ    DESCRV1
                                       425  *
                                       426  *
                                       427  *              GENERATE CFU POINTER - DESCRIPTOR
                                       428  *
   000254    000004 6270 00            429         EAX7    LS.CFU
   000255    6 00004 2371 17           430         LDAQ    LS.CFU,7,6
   000256  X 000000 7570 00            431         STAQ    DESCRV2
   000257  X 000000 2350 00            432         LDA     I$RV2$
   000260  X 000000 7550 00            433         STA     R$CFU$
                                       434  *
                                       435  *              NOW ROSEG AND BUFFERS
                                       436  *
   000261    000003 6270 00            437         EAX7    LS.ROSEG
   000262    6 00003 2371 17           438         LDAQ    LS.ROSEG,7,6
   000263  X 000000 7570 00            439         STAQ    DESCRV3
   000264  X 000000 2350 00            440         LDA     I$RV3$
   000265  X 000000 7550 00            441         STA     R$ROSEG$
                                       442  *
   000266    000002 6270 00            443         EAX7    LS.BUF
   000267    6 00002 2371 17           444         LDAQ    LS.BUF,7,6
   000270  X 000000 7570 00            445         STAQ    DESCRV4
   000271  X 000000 7570 00            446         STAQ    RV_UBUFF
   000272  X 000000 2350 00            447         LDA     I$RV4$
   000273  X 000000 7550 00            448         STA     R$BUFF$
                                       449  *
                                       450  *
   000274    000202 6270 00            451         EAX7    LS.DVT
   000275    6 00202 2371 17           452         LDAQ    LS.DVT,7,6
   000276  X 000000 7570 00            453         STAQ    DESCRV5
   000277  X 000000 2350 00            454         LDA     I$RV5$
   000300  X 000000 7550 00            455         STA     R$DVT$
                                       456  *
                                       457  *              GET COMGROUP DESCRIPTORS WHILE WE ARE HERE
                                       458  *
   000301    000163 6270 00            459         EAX7    LS.CGPT
   000302    6 00163 2371 17           460         LDAQ    LS.CGPT,7,6
 22:47 07/29/97  FILE=IRR$RECOVER.:E05TSI                                                                19   BMAP - B00
   000303  X 000000 7570 00            461         STAQ    RV_CGPT
                                       462  *
   000304    000164 6270 00            463         EAX7    LS.CGCTXT
   000305    6 00164 2371 17           464         LDAQ    LS.CGCTXT,7,6
   000306  X 000000 7570 00            465         STAQ    RV_CGCTXT
                                       466  *
                                       467  *              MASK THE FRONT END IF FULL RECOVERY
                                       468  *
   000307 (2)002553 2200 00            469         LDX0    RVB.X0
   000310  X 000000 1000 03            470         CMPX0   RV_OPASCODE,DU
   000311 (2)000324 6000 00            471         TZE     OPRCVR1         SKIP MASKING IF OP RECOVERY
   000312  X 000000 4774 00            472         LDP7    I$MONIS$
   000313    7 00000 2351 10           473         LDA     0,0,7           FETCH SCREECH CODE
   000314    000007 3750 07            474         ANA     =O7,DL          ISOLATE SEVERITY
   000315    000007 1150 07            475         CMPA    =O7,DL          FULL SCREECH
   000316 (2)000321 6000 00            476         TZE     MASKIT          YES
   000317    000004 1150 07            477         CMPA    =O4,DL          DOING A ZAP
   000320 (2)000324 6010 00            478         TNZ     OPRCVR1         NOPE
   000321                              479  MASKIT NULL
   000321 (2)001531 7000 00            480         TSX0    IRR$MSKFEPS     MASK THE FEP
   000322    000000 0110 00            481         NOP
   000323 (2)002564 0540 00            482         AOS     MSKDFEP         DONT DO IT MORE THAN ONCE
   000324                              483  OPRCVR1 NULL
   000324                              484  DO_RCVR NULL
                                       485  *
   000324    7 X 00000 2351 00         486         LDA     S_PNO,,7        GET PROCESSOR NUMBER
   000325  X 000142 7550 00            487         STA     RV_BUFF+B.SPNO
   000326  X 000000 7550 00            488         STA     RV_CPNO         CPU TO DUMP FIRST
   000327    7 00010 2351 00           489         LDA     USRWSQ,,7       SAVE THE CURRENT USER
   000330  X 000000 7550 00            490         STA     RV_USRPT         PAGE TBL ADDR FROM WSPTD
   000331    7 00001 2351 00           491         LDA     MONWSQ,,7       SAVE THE MONITOR
   000332  X 000000 7550 00            492         STA     RV_MONPT         PAGE TBL FROM WSPTD
   000333    7 X 00000 2351 00         493         LDA     S_NSCPU,,7
   000334  X 000000 7550 00            494         STA     RV_NSCPU
                                       495  *
   000335    000000 2270 03            496         LDX7    0,DU            GET THE WSPTD FOR EACH PROCESSOR
   000336    7 X 00000 2351 17         497  WSPTD  LDA     IT_SCPUJIT,7,7
 22:47 07/29/97  FILE=IRR$RECOVER.:E05TSI                                                                20   BMAP - B00
   000337  X 000000 7550 17            498         STA     RV_SCPUJIT,7
   000340    000001 0670 03            499         ADX7    1,DU
   000341    000007 1070 03            500         CMPX7   7,DU
   000342 (2)000336 6010 00            501         TNZ     WSPTD
                                       502  *
   000343    000000 2270 03            503         LDX7    0,DU            GET THE PROCESSOR STATES
   000344    7 X 00000 2351 17         504  MPSTATE LDA    S_MPSTATE,7,7
   000345  X 000224 7550 17            505         STA     RV_BUFF+B.MPSTATE,7
   000346    7 X 00000 2351 17         506         LDA     S_PCU,7,7       CUN FOR EACH PROCESSOR
   000347  X 000144 7550 17            507         STA     RV_BUFF+B.SCUN,7
   000350    7 X 00000 2351 17         508         LDA     S_PORTNR,7,7    PORT NUMBER OF EACH PROCESSOR
   000351  X 000234 7550 17            509         STA     RV_BUFF+B.PORTNR,7
   000352    000001 0670 03            510         ADX7    1,DU
   000353    000010 1070 03            511         CMPX7   8,DU
   000354 (2)000344 6010 00            512         TNZ     MPSTATE
                                       513  *
   000355    000000 2270 03            514         LDX7    0,DU            GET THE FEP STATES
                                       515  *
   000356    7 X 00000 2351 00         516         LDA     S_TUIS,,7       SAVE # OF USERS
   000357  X 000250 7550 00            517         STA     RV_BUFF+B.TUIS
                                       518  *
   000360  X 000000 7010 00            519         TSX1    IRN$PART         MOVE DCT,DQH BITS TO IT_PARTITION
   000361    000000 0110 00            520         NOP     0
   000362  X 000000 4774 00            521         LDP7    I$MONIS$         GET PR7 TO POINT BACK TO MON IS
   000363    000061 2270 03            522         LDX7    49,DU           SAVE PARTITIONED DEVICES/CHANNELS
   000364    7 X 00000 2351 17         523  PARTITION LDA  IT_PARTITION,7,7
   000365  X 000473 7550 17            524         STA     RV_BUFF+B.PART,7
   000366    777777 6270 17            525         EAX7    -1,X7
   000367 (2)000364 6050 00            526         TPL     PARTITION
                                       527  *
   000370  X 000000 2340 00            528         SZN     RPM_FLG         IS THIS RPM?
   000371 (2)000377 6000 00            529         TZE     SKIP_CT         NO DOWN STORE CONNECT TABLE
   000372    000003 2270 03            530         LDX7    3,DU            4 WORDS
   000373    7 X 00000 2351 17         531  CT8000 LDA     H_DPS8000_CI_TABLE,7,7
   000374  X 000613 7550 17            532         STA     RV_BUFF+B.CT8000,7
   000375    777777 6270 17            533         EAX7    -1,X7
   000376 (2)000373 6050 00            534         TPL     CT8000
 22:47 07/29/97  FILE=IRR$RECOVER.:E05TSI                                                                21   BMAP - B00
   000377                              535  SKIP_CT NULL
   000377    000000 2270 03            536         LDX7    0,DU
   000400    7 X 00000 2351 17         537  SMUIS  LDA     S_MUIS,7,7
   000401  X 000253 7550 17            538         STA     RV_BUFF+B.MUIS,7
   000402    000001 0670 03            539         ADX7    1,DU
   000403    000005 1070 03            540         CMPX7   5,DU
   000404 (2)000400 6010 00            541         TNZ     SMUIS
                                       542  *
   000405    7 X 00000 2351 00         543         LDA     S_SYSID,,7      SAVE CURRENT SYSID
   000406  X 000244 7550 00            544         STA     RV_BUFF+B.SYSID
                                       545  *                              MOVE S_STREAMFILEID TO THE BUFFER
   000407    7 X 00000 2351 00         546         LDA     S_STREAMFILEID,,7
   000410  X 000245 7550 00            547         STA     RV_BUFF+B.STRFILID
                                       548  *                              MOVE ERRLOG INFO TO THE BUFFER
   000411    7 X 00000 2351 00         549         LDA     EL_BUSY,,7
   000412  X 000260 7550 00            550         STA     RV_BUFF+B.ELBUSY
   000413    7 X 00000 2351 00         551         LDA     EL_NUMPGS,,7
   000414  X 000261 7550 00            552         STA     RV_BUFF+B.ELNPGS
   000415    7 X 00000 2351 00         553         LDA     EL_FULLBUFS,,7
   000416  X 000262 7550 00            554         STA     RV_BUFF+B.ELFBUF
   000417    7 X 00000 2351 00         555         LDA     EL_MAXPGS,,7
   000420  X 000263 7550 00            556         STA     RV_BUFF+B.ELMXPG
   000421    7 X 00000 2351 00         557         LDA     EL_FIRSTBUF,,7
   000422  X 000264 7550 00            558         STA     RV_BUFF+B.ELFRBF
   000423    7 X 00000 2351 00         559         LDA     EL_CURBUF,,7
   000424  X 000265 7550 00            560         STA     RV_BUFF+B.ELCRBF
   000425    7 X 00000 2351 00         561         LDA     EL_ERRCT,,7
   000426  X 000266 7550 00            562         STA     RV_BUFF+B.ELERRC
                                       563  *
                                       564  *              FIND OUT WHAT CPU SCREECHED
                                       565  *
   000427 (2)000546 6210 00            566         EAX1    MAP.TRAP        GET TRAP CONTROL
   000430  X 000001 7410 00            567         STX1    RV_UNWIND1+1
   000431  X 000000 4764 00            568         LDP6    I$MONLS$        REAL DESCR OF MON LINK SEG
   000432    001761 4764 07            569         LDP6    TYP,DL
   000433    000037 6270 00            570         EAX7    LS.MPT          RELOCATION
   000434    6 00037 2371 17           571         LDAQ    LS.MPT,7,6      MONITOR PAGE TABLE DESCRIPTOR
 22:47 07/29/97  FILE=IRR$RECOVER.:E05TSI                                                                22   BMAP - B00
   000435  X 000000 7570 00            572         STAQ    DESCTEMP
                                       573  *
                                       574  *              GET MAPPED PAGE 0
                                       575  *
   000436  X 000000 4754 00            576         LDP5    I$TEMP$         LOAD THE DESCRIPTOR
   000437    5 00100 2361 00           577         LDQ     64,,5
   000440    000022 7720 00            578         QRL     18
   000441  X 000000 2340 00            579         SZN     S1000_FLG   (HW_WSQ0PT)
   000442 (2)000456 6050 00            580         TPL     NORM
   000443    000000 6350 06            581         EAA     0,QL
   000444    000023 7730 00            582         LRL     19
   000445  X 000000 7210 00            583         LXL1    IPHYPG
   000446 (2)002566 4410 00            584         SXL1    TEMP
   000447 (2)002566 0350 00            585         ADLA    TEMP
   000450    000000 2350 05            586         LDA     0,AL
   000451    000000 0360 07            587         ADLQ    0,DL
   000452 (2)000454 6040 00            588         TMI     *+2
   000453    000022 7710 00            589         ARL     18
   000454    000000 6360 05            590         EAQ     0,AL
   000455    000022 7720 00            591         QRL     18
   000456                              592  NORM   NULL
   000456    000014 7360 00            593         QLS     12
   000457  X 000001 7560 00            594         STQ     MEMDESC+1       TO REAL DESC
                                       595  *
   000460  X 000000 4744 00            596         LDP4    I$MEM$          GET CPU DEPENDENT DATA
   000461    4 X 00000 2351 00         597         LDA     S_PNO,,4        CPU #
   000462  X 000000 1150 00            598         CMPA    RV_NSCPU        IS IT REASONABLE
   000463 (2)000465 6000 00            599         TZE     *+2             YES
   000464 (2)000513 6030 00            600         TRC     BADDATA
   000465    4 X 00000 2351 00         601         LDA     S_CUN,,4        CURRENT USER #
   000466  X 000000 1150 00            602         CMPA    RV_MUAIS
   000467 (2)000471 6000 00            603         TZE     *+2
   000470 (2)000513 6030 00            604         TRC     BADDATA
   000471    4 X 00000 2351 00         605         LDA     S$CU$,,4        CURRENT USER TABLE
   000472    777777 3750 07            606         ANA     =O777777,DL     CHECK SEGID
   000473    006123 1150 07            607         CMPA    =O6123,DL       ****REF TIGR***
   000474 (2)000513 6010 00            608         TNZ     BADDATA
 22:47 07/29/97  FILE=IRR$RECOVER.:E05TSI                                                                23   BMAP - B00
   000475    4 X 00000 2211 00         609         LDX1    S$CU$,,4        CHECK SIZE
   000476  X 000000 1010 00            610         CMPX1   DESCRV1
   000477 (2)000513 6030 00            611         TRC     BADDATA
                                       612  *              ALL OK-- REPLACE DATA IN RV_BUFF
   000500    4 X 00000 2351 00         613         LDA     S_PNO,,4
   000501  X 000142 7550 00            614         STA     RV_BUFF+B.SPNO
   000502  X 000000 7550 00            615         STA     RV_CPNO
   000503    4 X 00000 2351 00         616         LDA     S_CUN,,4
   000504  X 000140 7550 00            617         STA     RV_BUFF+B.CUN
   000505  X 000000 7550 00            618         STA     RV_CUN
   000506    4 X 00000 2351 00         619         LDA     S$CU$,,4
   000507  X 000141 7550 00            620         STA     RV_BUFF+B.CUN$
   000510    4 X 00000 2351 00         621         LDA     S_CNODE,,4
   000511  X 000252 7550 00            622         STA     RV_BUFF+B.NODE
   000512 (2)000603 7100 00            623         TRA     LOADPDBR
                                       624  *
   000513                              625  BADDATA NULL
   000513  X 000000 4440 51            626         TYPE    DATAM
   000514  X 000000 7430 56
   000515 (2)002414 2350 00
   000516    000000 6314 01
   000517    777777 3750 07
   000520    000004 7310 00
   000521    000000 6250 05
   000522    040 0 040 1005 40
   000523    1 00000 0 0 0 0015
   000524 (0)000014 0 0 0 0015
   000525 (0)000013 4450 00
   000526 (0)000013 6304 00
   000527 (0)000000 4504 00
   000530    000001 2350 03
   000531 (0)000005 7550 00
   000532 (0)000000 6304 00
   000533 (0)000005 6314 00
   000534  X 000000 7010 00
   000535    000000 0110 00
   000536 (0)000006 6304 00
 22:47 07/29/97  FILE=IRR$RECOVER.:E05TSI                                                                24   BMAP - B00
   000537 (0)000000 4504 00
   000540  X 000000 2230 54
   000541  X 000000 7240 51
                                       627  *O*
                                       628  *O*    MESSAGE:   RCVR-MON PAGE 0 CLOBBERED
                                       629  *O*    MEANING:   Data in page 0 of the mapped Monitor Instruction
                                       630  *O*               Segment failed the consistency checks.
                                       631  *
   000542  X 000003 2350 00            632         LDA     RV_BUFF+B.TRAPS
   000543 (2)002573 2750 00            633         ORA     MPG0BAD
   000544  X 000003 7550 00            634         STA     RV_BUFF+B.TRAPS
   000545 (2)000600 7100 00            635         TRA     GETSLAVES
                                       636  *
   000546                              637  MAP.TRAP NULL
   000546  X 000000 4440 51            638         TYPE    TRAPMAPM
   000547  X 000000 7430 56
   000550 (2)002424 2350 00
   000551    000000 6314 01
   000552    777777 3750 07
   000553    000004 7310 00
   000554    000000 6250 05
   000555    040 0 040 1005 40
   000556    1 00000 0 0 0 0015
   000557 (0)000014 0 0 0 0015
   000560 (0)000013 4450 00
   000561 (0)000013 6304 00
   000562 (0)000000 4504 00
   000563    000001 2350 03
   000564 (0)000005 7550 00
   000565 (0)000000 6304 00
   000566 (0)000005 6314 00
   000567  X 000000 7010 00
   000570    000000 0110 00
   000571 (0)000006 6304 00
   000572 (0)000000 4504 00
   000573  X 000000 2230 54
   000574  X 000000 7240 51
 22:47 07/29/97  FILE=IRR$RECOVER.:E05TSI                                                                25   BMAP - B00
                                       639  *O*
                                       640  *O*    MESSAGE:   RCVR-TRAP ACCESSING THE MAPPED MONITOR
                                       641  *O*    MEANING:   Recovery trapped accessing the monitor data via
                                       642  *O*               the page table descriptor from the monitors
                                       643  *O*               Linkage Segment.
                                       644  *
   000575  X 000003 2350 00            645         LDA     RV_BUFF+B.TRAPS
   000576 (2)002571 2750 00            646         ORA     MONDTRAP
   000577  X 000003 7550 00            647         STA     RV_BUFF+B.TRAPS
   000600                              648  GETSLAVES NULL
   000600  X 000015 2350 00            649         LDA     RV_BUFF+B.RCODE+1   SET THE BITS TO DUMP SLAVES
   000601  X 000001 2750 00            650         ORA     RV_SLAVES+1
   000602  X 000015 7550 00            651         STA     RV_BUFF+B.RCODE+1
                                       652  *
   000603                              653  LOADPDBR NULL
   000603  X 000000 1714 00            654         LPDBR   PPDBR            USE THE MASTER CPU PDBR
   000604 (2)002567 4500 00            655         STZ     SADTEMP          SET NUMBER OF SAD READ TO ZERO

 22:47 07/29/97  FILE=IRR$RECOVER.:E05TSI                                                                26   BMAP - B00
                                       656         EJECT
                                       657  *
                                       658  *              READ THE SYSTEM AREA DIRECTORY INTO POBUF
                                       659  *
   000605                              660  READSAD NULL
   000605 (2)000676 6210 00            661         EAX1    INITRAP
   000606  X 000001 7410 00            662         STX1    RV_UNWIND1+1
   000607 (2)002363 7010 00            663         TSX1    6INIT
   000610    000000 0110 00            664         NOP
   000611  X 000000 4524 00            665         STP2    RV_UNWIND1
   000612  X 000000 4524 00            666         STP2    RV_UNWIND2
   000613    000000 6230 00            667         EAX3    FCNRDB          FCN CODE TO READ DISK (BINARY)
   000614  X 000000 7240 00            668         LXL4    SYS_DPX         DCTX OF THE SYSTEM PACK
   000615  X 000000 7250 00            669         LXL5    TOPDA           GRANULE NUMBER
   000616 (2)001621 4500 00            670         STZ     ARGS
   000617 (2)001621 4440 00            671         SXL4    ARGS
   000620 (2)002374 6304 00            672         EPPR0   SADDCW
   000621 (2)001622 4504 00            673         STP0    ARGS+1
   000622 (2)001624 4500 00            674         STZ     ARGS+3
   000623 (2)001624 4430 00            675         SXL3    ARGS+3
   000624 (2)001625 4500 00            676         STZ     ARGS+4
   000625 (2)001625 4450 00            677         SXL5    ARGS+4
   000626 (2)001626 6304 00            678         EPPR0   PTRS
   000627    000005 2350 03            679         LDA     5,DU
   000630 (2)001633 7550 00            680         STA     DESCS
   000631 (2)001633 6314 00            681         EPPR1   DESCS
   000632  X 000000 7010 00            682         TSX1    MINIQC_PL6      READ IT
   000633 (2)000635 7100 00            683         TRA     RSADERR         ERROR RETURN
   000634 (2)000730 7100 00            684         TRA     GOTSAD          NORMAL RETURN
                                       685  *
   000635                              686  RSADERR NULL
   000635 (2)002567 2360 00            687         LDQ     SADTEMP          HOW MANY TIMES HAVE WE TRIED THIS
   000636    000003 1160 07            688         CMPQ    3,DL             HAVE WE DONE IT THREE TIMES
   000637 (2)000646 6000 00            689         TZE     TOO_MANY         DON'T TRY IT AGAIN
   000640 (2)002567 0540 00            690         AOS     SADTEMP          UP THE COUNT
   000641    000000 2360 07            691         LDQ     0,DL             WAIT AWHILE BEFORE ISSUING THE READ
   000642                              692  ADD_MORE NULL
 22:47 07/29/97  FILE=IRR$RECOVER.:E05TSI                                                                27   BMAP - B00
   000642    000001 0360 07            693         ADLQ    1,DL
   000643    000001 1160 03            694         CMPQ    1,DU             HAVE WE WAITED LONG ENOUGH
   000644 (2)000642 6010 00            695         TNZ     ADD_MORE         NOPE
   000645 (2)000605 7100 00            696         TRA     READSAD
   000646                              697  TOO_MANY NULL
   000646  X 000000 4440 51            698         TYPE    RSADEM
   000647  X 000000 7430 56
   000650 (2)002436 2350 00
   000651    000000 6314 01
   000652    777777 3750 07
   000653    000004 7310 00
   000654    000000 6250 05
   000655    040 0 040 1005 40
   000656    1 00000 0 0 0 0015
   000657 (0)000014 0 0 0 0015
   000660 (0)000013 4450 00
   000661 (0)000013 6304 00
   000662 (0)000000 4504 00
   000663    000001 2350 03
   000664 (0)000005 7550 00
   000665 (0)000000 6304 00
   000666 (0)000005 6314 00
   000667  X 000000 7010 00
   000670    000000 0110 00
   000671 (0)000006 6304 00
   000672 (0)000000 4504 00
   000673  X 000000 2230 54
   000674  X 000000 7240 51
   000675 (2)000725 7100 00            699         TRA     BYPASS.DUMP
                                       700  *O*
                                       701  *O*    MESSAGE:   RCVR-ERROR READING SAD
                                       702  *O*    MEANING:   Error reading the System Area Directory.
                                       703  *O*               Recovery dump will not be written.
   000676                              704  INITRAP NULL
   000676  X 000000 4440 51            705         TYPE    INITRAPM
   000677  X 000000 7430 56
   000700 (2)002537 2350 00
 22:47 07/29/97  FILE=IRR$RECOVER.:E05TSI                                                                28   BMAP - B00
   000701    000000 6314 01
   000702    777777 3750 07
   000703    000004 7310 00
   000704    000000 6250 05
   000705    040 0 040 1005 40
   000706    1 00000 0 0 0 0015
   000707 (0)000014 0 0 0 0015
   000710 (0)000013 4450 00
   000711 (0)000013 6304 00
   000712 (0)000000 4504 00
   000713    000001 2350 03
   000714 (0)000005 7550 00
   000715 (0)000000 6304 00
   000716 (0)000005 6314 00
   000717  X 000000 7010 00
   000720    000000 0110 00
   000721 (0)000006 6304 00
   000722 (0)000000 4504 00
   000723  X 000000 2230 54
   000724  X 000000 7240 51
                                       706  *O*
                                       707  *O*    MESSAGE:   RCVR-TRAP IN RCVR INITIALIZATION
                                       708  *O*    MEANING:   Recovery trapped while initializing
                                       709  *O*               recovery data.  A dump will not be
                                       710  *O*               written.
   000725                              711  BYPASS.DUMP NULL
   000725  X 000000 0540 00            712         AOS     RV_NODUMPG       SET TO BYPASS DUMPING
   000726  X 000000 0540 00            713         AOS     RV_PDUMP
   000727 (2)001030 7100 00            714         TRA     CHECK_SEV7
                                       715  *
                                       716  *              FINISH BUFFER INITIALIZATION--FIND GRANULES TO USE
                                       717  *
   000730                              718  GOTSAD NULL
   000730 (2)002363 7010 00            719         TSX1    6INIT           REFRESH AUTO
   000731    000000 0110 00            720         NOP
   000732 (2)002565 4500 00            721         STZ     RVIALT
   000733    000003 2200 03            722         LDX0    3,DU             COMPARE THREE CHARS
 22:47 07/29/97  FILE=IRR$RECOVER.:E05TSI                                                                29   BMAP - B00
   000734    040 0 040 1064 40         723         CMPC    (,1),(,1),040
   000735  X 000000 2 0 0 0010         724         ADSC9   B_VERSION,1,X0
   000736  X 000210 0 0 0 0010         725         ADSC9   POBUF+136,0,X0
   000737 (2)000745 6000 00            726         TZE     SADOK
   000740 (2)002567 2360 00            727         LDQ     SADTEMP
   000741    000003 1160 07            728         CMPQ    3,DL
   000742 (2)000635 6000 00            729         TZE     RSADERR
   000743 (2)002567 0540 00            730         AOS     SADTEMP
   000744 (2)000605 7100 00            731         TRA     READSAD
   000745                              732  SADOK  NULL
   000745  X 000000 7010 00            733         TSX1    IRI$INIT        BUFFER-GRANULE INITIALIZATION
   000746 (2)002565 0540 00            734         AOS     RVIALT      ALTRETS IF DUMP IS NOT TO BE WRITTEN
   000747  X 000014 2350 00            735         LDA     RV_BUFF+B.RCODE
   000750  X 000010 1150 00            736         CMPA    RV_BUFF+B.SCODE DID RVI$INIT CHANGE SEVERITY
   000751 (2)000757 6000 00            737         TZE     NO.FEMSK        NO
   000752 (2)002564 2350 00            738         LDA     MSKDFEP         IS FRONT END ALREADY MASKED
   000753 (2)000757 6010 00            739         TNZ     NO.FEMSK        YES
   000754 (2)002564 0540 00            740         AOS     MSKDFEP
   000755 (2)001531 7000 00            741         TSX0    IRR$MSKFEPS
   000756    000000 0110 00            742         NOP
   000757                              743  NO.FEMSK NULL
                                       744  *
                                       745  *              CLEAN THE USER DIRECTORY
                                       746  *
   000757    010000 6230 00            747         EAX3    4096
   000760    000 0 040 1004 00         748         MLR     ,(0,1),000
   000761    000000 0 0 0 0000         749         ADSC9   0,0,0
   000762  X 000000 0 0 0 0013         750         ADSC9   RV_USRDIR,0,3
                                       751  *
                                       752  *              AND WRITE NULL DIRECTORY
                                       753  *
   000763 (2)002565 2350 00            754         LDA     RVIALT          TAKE A DUMP
   000764 (2)001030 6010 00            755         TNZ     CHECK_SEV7      NO
   000765 (2)002007 7010 00            756         TSX1    IRR$WUSRDR
   000766    000000 0110 00            757         NOP
   000767  X 000002 0540 00            758         AOS     RV_BUFF+B.SIZE  BUMP SIZE OF DUMP FILE

 22:47 07/29/97  FILE=IRR$RECOVER.:E05TSI                                                                30   BMAP - B00
                                       759         EJECT
                                       760                 *******************************************************
                                       761                 * WRITE THE DUMP FILE
                                       762                 *******************************************************
                                       763  *
                                       764  *              DUMP THINGS NEEDED FOR FULL RECOVERY FIRST
                                       765  *
   000770                              766  GETDUMP NULL
   000770  X 000014 2350 00            767         LDA     RV_BUFF+B.RCODE
   000771    000007 3750 07            768         ANA     =07,DL
   000772    000007 1150 07            769         CMPA    =07,DL
   000773 (2)000776 6000 00            770         TZE     DUMPJITS        IF FULL SCREECH
   000774    000004 1150 07            771         CMPA    =04,DL
   000775 (2)001012 6010 00            772         TNZ     DUMPREST        IF NOT ZAP
   000776                              773  DUMPJITS NULL
   000776 (2)001004 6210 00            774         EAX1    DUMPEL
   000777  X 000001 7410 00            775         STX1    RV_UNWIND1+1
   001000  X 000000 7010 00            776         TSX1    IRD$DJITS       WRITE THE ACCOUNTING JITS
   001001    000000 0110 00            777         NOP
   001002 (2)001012 6210 00            778         EAX1    DUMPREST
   001003  X 000001 7410 00            779         STX1    RV_UNWIND1+1
   001004                              780  DUMPEL NULL
   001004  X 000000 7010 00            781         TSX1    IRD$ERRLOG      WRITE THE ERRLOG INFO
   001005    000000 0110 00            782         NOP
   001006  X 000010 2350 00            783         LDA     RV_BUFF+B.SCODE
   001007    000007 3750 07            784         ANA     =O7,DL
   001010    000004 1150 07            785         CMPA    =O4,DL          DOING A ZAP
   001011 (2)001034 6000 00            786         TZE     DO_ZAP          YES
   001012                              787  DUMPREST NULL                  DUMP AS PER SCREECH CODE
   001012 (2)001016 6210 00            788         EAX1    DLRM
   001013  X 000001 7410 00            789         STX1    RV_UNWIND1+1
   001014  X 000000 7010 00            790         TSX1    IRD$DUMPMON     DUMP THE MONITOR
   001015    000000 0110 00            791         NOP
   001016                              792  DLRM   NULL
   001016  X 000000 7010 00            793         TSX1    IRD$DLRMEM      DUMP LOW REAL MEMORY
   001017    000000 0110 00            794         NOP
   001020  X 000000 7010 00            795         TSX1    IRD$DHJITS      DUMP SLAVE CPU DATA
 22:47 07/29/97  FILE=IRR$RECOVER.:E05TSI                                                                31   BMAP - B00
   001021    000000 0110 00            796         NOP
   001022  X 000000 7010 00            797         TSX1    IRD$DUSERS      DUMP USERS
   001023    000000 0110 00            798         NOP
   001024  X 000014 2350 00            799         LDA     RV_BUFF+B.RCODE RESTORE PL6 ACCESSABLE CODE
   001025  X 000000 7550 00            800         STA     RV_SCODEA        IN CASE OF TRAP DUMPING USERS
   001026                              801  DUMPMP NULL
   001026  X 000000 7010 00            802         TSX1    IRD$DUMPMP      DUMP MONITOR PROCEDURE
   001027    000000 0110 00            803         NOP

 22:47 07/29/97  FILE=IRR$RECOVER.:E05TSI                                                                32   BMAP - B00
                                       804         EJECT
                                       805  *
                                       806  *              IF FULL SCREECH COMPLETE IO AND CLOSE FILES
                                       807  *
   001030                              808  CHECK_SEV7 NULL
   001030  X 000014 2350 00            809         LDA     RV_BUFF+B.RCODE
   001031    000007 3750 07            810         ANA     =O7,DL
   001032    000007 1150 07            811         CMPA    =O7,DL
   001033 (2)001073 6010 00            812         TNZ     CYCCLS          IF NOT FULL SCREECH
                                       813  *
                                       814  *              COMPLETE OUTSTANDING WRITES
                                       815  *
   001034                              816  DO_ZAP NULL
   001034 (2)001041 6210 00            817         EAX1    RCIOTRAP
   001035  X 000001 7410 00            818         STX1    RV_UNWIND1+1
   001036  X 000000 7010 00            819         TSX1    IRN$RCVRIO
   001037    000000 0110 00            820         NOP
   001040 (2)001073 7100 00            821         TRA     CYCCLS
                                       822  *
   001041                              823  RCIOTRAP NULL
   001041  X 000000 4440 51            824         TYPE    IOTRAPEM
   001042  X 000000 7430 56
   001043 (2)002530 2350 00
   001044    000000 6314 01
   001045    777777 3750 07
   001046    000004 7310 00
   001047    000000 6250 05
   001050    040 0 040 1005 40
   001051    1 00000 0 0 0 0015
   001052 (0)000014 0 0 0 0015
   001053 (0)000013 4450 00
   001054 (0)000013 6304 00
   001055 (0)000000 4504 00
   001056    000001 2350 03
   001057 (0)000005 7550 00
   001060 (0)000000 6304 00
   001061 (0)000005 6314 00
 22:47 07/29/97  FILE=IRR$RECOVER.:E05TSI                                                                33   BMAP - B00
   001062  X 000000 7010 00
   001063    000000 0110 00
   001064 (0)000006 6304 00
   001065 (0)000000 4504 00
   001066  X 000000 2230 54
   001067  X 000000 7240 51
                                       825  *O*
                                       826  *O*    MESSAGE:   RCVR-TRAP IN IRN$RCVRIO
                                       827  *O*    MEANING:   Recovery trapped while completing outstanding writes
                                       828  *
   001070  X 000003 2350 00            829         LDA     RV_BUFF+B.TRAPS
   001071 (2)002570 2750 00            830         ORA     NIOTRAP
   001072  X 000003 7550 00            831         STA     RV_BUFF+B.TRAPS
                                       832  *
                                       833  *              CLOSE THE USERS FILES
                                       834  *              DUMP COMGROUP
                                       835  *
   001073                              836  CYCCLS NULL
   001073  X 000000 2370 00            837         LDAQ    RV_UBUFF
                                       838  *              IRN$RCVRIO HAS CLOBBERED DESCRV4
   001074  X 000000 7570 00            839         STAQ    DESCRV4
   001075 (2)001111 6210 00            840         EAX1    FINISH_UP
   001076  X 000001 7410 00            841         STX1    RV_UNWIND1+1
   001077  X 000000 7010 00            842         TSX1    IRD$CLOSE
                                       843  *              IRD$CLOSE WILL JUST DUMP COMGROUP IF NOT SEV 7
   001100    000000 0110 00            844         NOP
                                       845  *
                                       846  *      TRY TO FIND TRAP IN IRF$CLSF MESSAGE LOOP
                                       847  *
   001101 (2)001111 6210 00            848         EAX1    FINISH_UP
   001102  X 000001 7410 00            849         STX1    RV_UNWIND1+1
                                       850  *
                                       851  *              UNLOAD ALL TAPE DRIVES IF FULL SCREECH
                                       852  *
   001103  X 000014 2350 00            853         LDA     RV_BUFF+B.RCODE
   001104    000007 3750 07            854         ANA     =O7,DL
   001105    000007 1150 07            855         CMPA    =O7,DL
 22:47 07/29/97  FILE=IRR$RECOVER.:E05TSI                                                                34   BMAP - B00
   001106 (2)001111 6010 00            856         TNZ     FINISH_UP       IF NOT FULL SCREECH
   001107  X 000000 7010 00            857         TSX1    IRN$RCVR_MTUNLOAD
   001110    000000 0110 00            858         NOP     0
                                       859  *
                                       860  *              ADD CURRENT GRANULE INFO TO RECOVERY BUFFER
                                       861  *
   001111                              862  FINISH_UP NULL
                                       863  *
                                       864  * This section of code turns of the memory port if the memory was
                                       865  * released with a die. Map on the H_DPS8000_SCU_INFO to check the
                                       866  * release in progress bit for the second scu. If it is set turn the
                                       867  * port off on the configuration register
                                       868  *
   001111  X 000000 2340 00            869         SZN     RPM_FLG         IS THIS AN RPM
   001112 (2)001175 6000 00            870         TZE     NO_SCU_REL      NOPE
   001113  X 000014 2350 00            871         LDA     RV_BUFF+B.RCODE
   001114    000007 3750 07            872         ANA     7,DL
   001115    000007 1150 07            873         CMPA    7,DL
   001116 (2)001175 6010 00            874         TNZ     NO_SCU_REL
   001117  X 000000 4774 00            875         LDP7    I$MONIS$        LOAD POINTER TO THE MONITOR DATA
   001120  X 000000 2340 00            876         SZN     IS_MEM_SIDE1
   001121    000004 6040 04            877         TMI      4,IC
   001122    000003 2270 03            878         LDX7     3,DU
   001123    000002 7100 04            879         TRA      2,IC
   001124    000001 2270 03            880         LDX7    1,DU            GET THIRD WORD IN SCU INFORMATION TABLE
   001125    7 X 00000 7231 17         881         LXL3    H_DPS8000_SCU_INFO,7,7 GET THE STATUS INFORMATION FOR SCU1
   001126    100000 3630 03            882         ANX3    =O100000,DU     IF SCU IN PROCESS OF RELEASE
   001127 (2)001175 6000 00            883         TZE     NO_SCU_REL      NOPE
   001130  X 000000 4520 11            884         SCPR    TEMP_CONFIG,11  GET THE CONFIGURATION INFORMATION
   001131    453621 3750 03            885         ANA     =0677777,DU     TURN OFF PORT 1
   001132  X 000000 6740 11            886         LCPR    TEMP_CONFIG,11   SET CONFIGURATION REGISTER
   001133    000001 2350 03            887         LDA     1,DU            1 DESCRIPTOR TO SUBROUTINE
   001134 (2)001633 7550 00            888         STA     DESCS
   001135    000010 4130 00            889         RSCR    8
   001136  X 000000 2340 00            890         SZN     IS_MEM_SIDE1    LOW MEM IN SIDE1
   001137 (2)001157 6000 00            891         TZE     CHECK_SIDE0     MOPE, BOOT ON SIDE 0
   001140    000001 3750 07            892         ANA     =O000001,DL
 22:47 07/29/97  FILE=IRR$RECOVER.:E05TSI                                                                35   BMAP - B00
   001141 (2)001150 6000 00            893         TZE     SWITCH_CPU1
   001142    000003 2350 07            894         LDA     3,DL
   001143 (2)001621 7550 00            895         STA     ARGS
   001144 (2)001626 6304 00            896         EPPR0   PTRS
   001145 (2)001633 6314 00            897         EPPR1   DESCS
   001146  X 000000 7010 00            898         TSX1    DO_CPU_SWITCH
   001147    000000 0110 00            899         NOP     0
   001150                              900  SWITCH_CPU1 NULL
   001150    000001 2350 07            901         LDA     1,DL
   001151 (2)001621 7550 00            902         STA     ARGS
   001152 (2)001626 6304 00            903         EPPR0   PTRS
   001153 (2)001633 6314 00            904         EPPR1   DESCS
   001154  X 000000 7010 00            905         TSX1   DO_CPU_SWITCH
   001155    000000 0110 00            906         NOP     0
   001156 (2)001175 7100 00            907         TRA     NO_SCU_REL
   001157                              908  CHECK_SIDE0 NULL
   001157    000004 3750 07            909         ANA     =O000004,DL     IS CPU 5 ENABLED
   001160 (2)001167 6000 00            910         TZE     SWITCH_CPU0     NOPE
   001161    000002 2350 07            911         LDA     2,DL
   001162 (2)001621 7550 00            912         STA     ARGS
   001163 (2)001626 6304 00            913         EPPR0   PTRS
   001164 (2)001633 6314 00            914         EPPR1   DESCS
   001165  X 000000 7010 00            915         TSX1    DO_CPU_SWITCH  TURN OFF CPU 5
   001166    000000 0110 00            916         NOP     0
   001167                              917  SWITCH_CPU0 NULL
   001167    000000 2350 07            918         LDA     0,DL
   001170 (2)001621 7550 00            919         STA     ARGS
   001171 (2)001626 6304 00            920         EPPR0   PTRS
   001172 (2)001633 6314 00            921         EPPR1   DESCS
   001173  X 000000 7010 00            922         TSX1    DO_CPU_SWITCH
   001174    000000 0110 00            923         NOP     0
   001175                              924  NO_SCU_REL NULL
   001175  X 000000 2350 00            925         LDA     RV_NXTGRAN
   001176  X 000276 7550 00            926         STA     RV_BUFF+B.NXTGRAN
                                       927  *
                                       928  *              COMPUTE TIME TO WRITE DUMP FILE
                                       929  *
 22:47 07/29/97  FILE=IRR$RECOVER.:E05TSI                                                                36   BMAP - B00
   001177 (2)002354 7040 00            930         TSX4    IRR$BMAP_CLOCK  SYSTIME
   001200 (2)002550 1170 00            931         CMPAQ   IR_MS_COOKIE
   001201 (2)001212 6020 00            932         TNC     PRE_COOKIE1
   001202 (2)002550 1770 00            933         SBAQ    IR_MS_COOKIE
   001203    116100 5070 07            934         DVF     40000,DL
   001204    000001 7350 00            935         ALS     1
   001205    047040 1160 07            936         CMPQ    20000,DL
   001206 (2)001210 6040 00            937         TMI     *+2
   001207    000001 0350 07            938         ADLA    1,DL
   001210 (2)002552 0350 00            939         ADLA    IR_UTS_COOKIE
   001211 (2)001217 7100 00            940         TRA     *+6
   001212                              941  PRE_COOKIE1 NULL
   001212    023420 5070 07            942         DVF     10000,DL
   001213    000001 7350 00            943         ALS     1
   001214    011610 1160 07            944         CMPQ    5000,DL
   001215 (2)001217 6040 00            945         TMI     *+2
   001216    000001 0350 07            946         ADLA    1,DL
   001217  X 000005 7550 00            947         STA     RV_BUFF+B.UTS2
                                       948  *
                                       949  *
                                       950  *              WRITE THE RECOVER BUFFER--DUMP DIRECTORY
                                       951  *
   001220                              952  WRBUFF NULL
   001220  X 000000 2350 00            953         LDA     RV_NODUMPG      DO WE HAVE A DUMP AREA
   001221 (2)001300 6010 00            954         TNZ     RCVEXIT         NO-FORGET IT
   001222  X 000002 0540 00            955         AOS     RV_BUFF+B.SIZE
   001223    000001 6230 00            956         EAX3    FCNWDB          WRITE DISK BINARY
   001224  X 000000 7240 00            957         LXL4    SYS_DPX         DCTX OF THE SYSTEM PACK
   001225  X 000000 7250 00            958         LXL5    RV_BUFFGRAN     GRANULE#
   001226 (2)001421 6210 00            959         EAX1    GETMINI
   001227  X 000000 7410 00            960         STX1    RV_T1
   001230 (2)002232 7070 00            961         TSX7    CHECKGRAN
   001231 (2)001621 4500 00            962         STZ     ARGS
   001232 (2)001621 4440 00            963         SXL4    ARGS
   001233 (2)002375 6304 00            964         EPPR0   WBUFDCW
   001234 (2)001622 4504 00            965         STP0    ARGS+1
   001235 (2)001624 4500 00            966         STZ     ARGS+3
 22:47 07/29/97  FILE=IRR$RECOVER.:E05TSI                                                                37   BMAP - B00
   001236 (2)001624 4430 00            967         SXL3    ARGS+3
   001237 (2)001625 4500 00            968         STZ     ARGS+4
   001240 (2)001625 4450 00            969         SXL5    ARGS+4
   001241 (2)001626 6304 00            970         EPPR0   PTRS
   001242    000005 2350 03            971         LDA     5,DU
   001243 (2)001633 7550 00            972         STA     DESCS
   001244 (2)001633 6314 00            973         EPPR1   DESCS
   001245  X 000000 7010 00            974         TSX1    MINIQC_PL6
   001246 (2)001251 7100 00            975         TRA     WBUFERR         ERROR RETURN
   001247 (2)001300 7100 00            976         TRA     RCVEXIT         NORMAL RETURN
   001250 (2)002375 0000 00            977         ARG     WBUFDCW         DCW TO WRITE RECOVERY BUFF
                                       978  *
   001251                              979  WBUFERR NULL
   001251  X 000000 4440 51            980         TYPE WBUFEM
   001252  X 000000 7430 56
   001253 (2)002445 2350 00
   001254    000000 6314 01
   001255    777777 3750 07
   001256    000004 7310 00
   001257    000000 6250 05
   001260    040 0 040 1005 40
   001261    1 00000 0 0 0 0015
   001262 (0)000014 0 0 0 0015
   001263 (0)000013 4450 00
   001264 (0)000013 6304 00
   001265 (0)000000 4504 00
   001266    000001 2350 03
   001267 (0)000005 7550 00
   001270 (0)000000 6304 00
   001271 (0)000005 6314 00
   001272  X 000000 7010 00
   001273    000000 0110 00
   001274 (0)000006 6304 00
   001275 (0)000000 4504 00
   001276  X 000000 2230 54
   001277  X 000000 7240 51
                                       981  *O*
 22:47 07/29/97  FILE=IRR$RECOVER.:E05TSI                                                                38   BMAP - B00
                                       982  *O*    MESSAGE:   RCVR-ERR WRITING RCVR BUFFER
                                       983  *O*    MEANING:   IO error while writing the recovery buffer

 22:47 07/29/97  FILE=IRR$RECOVER.:E05TSI                                                                39   BMAP - B00
                                       984         EJECT
                                       985  *
                                       986  *              RETURN TO THE MONITOR IF NOT FULL SCREECH
                                       987  *
   001300                              988  RCVEXIT NULL
   001300  X 000000 4500 00            989         STZ     RV_DEBUGM
   001301 (2)002553 2200 00            990         LDX0    RVB.X0          CHECK ADDR OF SCREECH CODE
   001302  X 000000 1000 03            991         CMPX0   RV_OPASCODE,DU
   001303    020002 6000 00            992         TZE     RESTART         RETURN TO AARDVARK IF OP RECV
   001304  X 000010 2350 00            993         LDA     RV_BUFF+B.SCODE
   001305    000007 3750 07            994         ANA     =O7,DL
   001306    000004 1150 07            995         CMPA    =O4,DL          DID WE GET HERE FOR ZAP
   001307  X 000000 6000 00            996         TZE     ZAPR            YES
   001310  X 000000 4774 00            997         LDP7    I$MONIS$
   001311  X 000000 2350 00            998         LDA     RV_MONPT        RESTORE WSPTD
   001312    7 00001 7551 00           999         STA     MONWSQ,,7
   001313  X 000000 2350 00           1000         LDA     RV_USRPT
   001314    7 00010 7551 00          1001         STA     USRWSQ,,7
   001315  X 000162 1714 00           1002         LPDBR   RV_BUFF+B.PDBR  RESTORE THE PDBR
                                      1003  *
   001316  X 000273 2350 00           1004         LDA     RV_BUFF+B.IDCT
   001317    7 X 00000 7551 00        1005         STA     IRM_ASCOUNT,,7
   001320  X 000000 2350 00           1006         LDA     RV_DINDEXA
   001321    7 X 00000 7551 00        1007         STA     IRM_DINDEX,,7
   001322 (2)002553 2200 00           1008         LDX0    RVB.X0          PUT REAL SCREECH CODE BACK IN MON
   001323  X 000014 2350 00           1009         LDA     RV_BUFF+B.RCODE
   001324    7 00000 7551 10          1010         STA     0,0,7           IN CASE WE CHANGED SUA TO SCREECH
   001325  X 000003 2350 00           1011         LDA     RV_BUFF+B.TRAPS
   001326    7 X 00000 7551 00        1012         STA     IRM_RTRAPS,,7
                                      1013         INHIB   ON
   001327  X 000024 7706 00           1014         LDAS    RV_BUFF+B.ASR
   001330  X 000022 7716 00           1015         LDPS    RV_BUFF+B.PSR
   001331  X 000026 2372 00           1016         LDAQ    RV_BUFF+B.FLTLOC
   001332    000032 7572 00           1017         STAQ    FLTLOC
   001333  X 000030 2372 00           1018         LDAQ    RV_BUFF+B.AFLTLOC
   001334    000040 7572 00           1019         STAQ    AFLTLC
   001335  X 000032 2372 00           1020         LDAQ    RV_BUFF+B.INTLOC
 22:47 07/29/97  FILE=IRR$RECOVER.:E05TSI                                                                40   BMAP - B00
   001336    000030 7572 00           1021         STAQ    INTLOC
   001337  X 000020 7736 00           1022         LDSS    RV_BUFF+B.SSR
   001340  X 000034 2372 00           1023         LDAQ    RV_BUFF+B.IMASK
   001341    000000 5532 00           1024         SMCM    0
   001342    000002 5326 00           1025         CAMP    2               CLEAR AM-JIST IN CASE
   001343  X 000000 4766 00           1026         LDP6    I$MONLS$        MON LSEG DESCRIPTOR-TYPE 1
   001344    6 00256 6777 00          1027         LDD7    2*LS.RCVRTN,,6     RVA$RTN ENTRY DESCRIPTOR
                                      1028  *
   001345  X 000000 2352 00           1029         LDA     RV_NODUMPG      WAS DUMP FILE SKIPPED
   001346 (2)001351 6012 00           1030         TNZ     EXIT.1          YES - X0=1
                                      1031  *
   001347    000000 7134 00           1032         GOTO    =O1777,,0       ALL OK - X0=0
   001350    0 000 000 63 1777
   001351    000001 7134 00           1033  EXIT.1 GOTO    =O1777,,1
   001352    0 000 000 63 1777
                                      1034         INHIB   OFF

 22:47 07/29/97  FILE=IRR$RECOVER.:E05TSI                                                                41   BMAP - B00
                                      1035         EJECT
                                      1036                 *******************************************************
                                      1037                 * TRAP HANDLER
                                      1038                 *******************************************************
   001353                             1039  TRAP.HAND NULL
   001353 (2)002560 7534 00           1040         STSS    TRAPSS          SAVE TO DEBUG RECOVERY
   001354    001764 4774 07           1041         LDP7    SSR,DL          GET SSFRAME DATA
   001355    001761 4774 07           1042         LDP7    TYP,DL
   001356    7 00004 2361 00          1043         LDQ     4,,7            GET TRAP IC
   001357 (2)002562 7560 00           1044         STQ     TRAPIC          STORE AWAY IC
   001360    7 00005 2351 00          1045         LDA     5,,7            FAULT CODE
   001361    000200 3150 03           1046         CANA    =O200,DU        CHECK SAFE-STORE FULL
   001362 (2)001414 6000 00           1047         TZE     NOSSF
   001363  X 000000 7734 00           1048         LDSS    SSDESC
   001364  X 000000 4440 51           1049         TYPE    SSFM
   001365  X 000000 7430 56
   001366 (2)002455 2350 00
   001367    000000 6314 01
   001370    777777 3750 07
   001371    000004 7310 00
   001372    000000 6250 05
   001373    040 0 040 1005 40
   001374    1 00000 0 0 0 0015
   001375 (0)000014 0 0 0 0015
   001376 (0)000013 4450 00
   001377 (0)000013 6304 00
   001400 (0)000000 4504 00
   001401    000001 2350 03
   001402 (0)000005 7550 00
   001403 (0)000000 6304 00
   001404 (0)000005 6314 00
   001405  X 000000 7010 00
   001406    000000 0110 00
   001407 (0)000006 6304 00
   001410 (0)000000 4504 00
   001411  X 000000 2230 54
   001412  X 000000 7240 51
 22:47 07/29/97  FILE=IRR$RECOVER.:E05TSI                                                                42   BMAP - B00
                                      1050  *O*
                                      1051  *O*    MESSAGE:   RCVR-SAFE STORE FAULT IN RECOVERY
                                      1052  *O*    MEANING:   Recovery is impossible
                                      1053  *
   001413 (2)001421 7100 00           1054         TRA     GETMINI
                                      1055  *
   001414                             1056  NOSSF  NULL
   001414    000076 3750 03           1057         ANA     =O76,DU         ISOLATE FAULT CODE
   001415    000036 1150 03           1058         CMPA    =O36,DU         EXU FAULT
   001416 (2)001421 6000 00           1059         TZE     GETMINI
   001417    000016 1150 03           1060         CMPA    =014,DU         DERAIL?
   001420 (2)001425 6010 00           1061         TNZ     UNWIND          NO-CONTINUE RECOVERY
                                      1062  *
   001421                             1063  GETMINI NULL
   001421  X 000000 2370 00           1064         LDAQ    AAFLTD
   001422    000032 7570 00           1065         STAQ    FLTLOC
   001423    000032 2270 00           1066         LDX7    FLTLOC
   001424    000000 7100 17           1067         TRA     0,7             ENTER MINI DELTA
                                      1068  *
   001425                             1069  UNWIND NULL
   001425    000400 6230 00           1070         EAX3    64*4
   001426    000 0 040 1005 40        1071         MLR     (1,1),(0,1),000
   001427    7 00000 0 0 0 0013       1072         ADSC9   0,0,3,7
   001430  X 001700 0 0 0 0013        1073         ADSC9   RV_BUFF+B.RCVSSF,0,3
   001431  X 000001 2350 00           1074         LDA     RV_ENTRY+1      SET THE TRAPPED BIT
   001432 (2)002557 2750 00           1075         ORA     TRAPBIT
   001433  X 000001 7550 00           1076         STA     RV_ENTRY+1
   001434  X 000000 7734 00           1077         LDSS    SSDESC          FLUSH TRAP FRAME
   001435  X 000000 4724 00           1078         LDP2    RV_UNWIND1      UNWIND
   001436  X 000000 3210 00           1079         LCX1    RV_UNWIND1
   001437    000001 1210 03           1080         SBLX1   1,DU
   001440    2 00001 4411 11          1081         SXL1    1,1,2           PUT PROPER 'CURRENT' IN AUTO BASE
   001441  X 000001 2210 00           1082         LDX1    RV_UNWIND1+1
   001442    000000 7100 11           1083         TRA     0,1
                                      1084  *
                                      1085  *
   001443                             1086  TRAP.P1 NULL                   COME HERE IF TRAP INITIALIZING RCV DATA
 22:47 07/29/97  FILE=IRR$RECOVER.:E05TSI                                                                43   BMAP - B00
   001443  X 000000 4440 51           1087         TYPE    TRAPP1M
   001444  X 000000 7430 56
   001445 (2)002466 2350 00
   001446    000000 6314 01
   001447    777777 3750 07
   001450    000004 7310 00
   001451    000000 6250 05
   001452    040 0 040 1005 40
   001453    1 00000 0 0 0 0015
   001454 (0)000014 0 0 0 0015
   001455 (0)000013 4450 00
   001456 (0)000013 6304 00
   001457 (0)000000 4504 00
   001460    000001 2350 03
   001461 (0)000005 7550 00
   001462 (0)000000 6304 00
   001463 (0)000005 6314 00
   001464  X 000000 7010 00
   001465    000000 0110 00
   001466 (0)000006 6304 00
   001467 (0)000000 4504 00
   001470  X 000000 2230 54
   001471  X 000000 7240 51
                                      1088  *O*
                                      1089  *O*    MESSAGE:   RCVR-TRAP ACCESSING MONITOR DATA
                                      1090  *O*    MEANING:   Trap accessing monitor data required
                                      1091  *O*               to recover
   001472  X 000003 2350 00           1092         LDA     RV_BUFF+B.TRAPS
   001473 (2)002571 2750 00           1093         ORA     MONDTRAP
   001474  X 000003 7550 00           1094         STA     RV_BUFF+B.TRAPS
   001475 (2)001421 7100 00           1095         TRA     GETMINI         TEMPORARY
                                      1096  *

 22:47 07/29/97  FILE=IRR$RECOVER.:E05TSI                                                                44   BMAP - B00
                                      1097         EJECT
                                      1098                 *******************************************************
                                      1099                 * ROUTINES USED BY PL6
                                      1100                 *******************************************************
                                      1101  *              COME HERE TO GIVE UP ON RECOVERY
   001476                             1102  IRR$GIVEUP NULL
   001476  X 000000 2370 00           1103         LDAQ    AAFLTD          GET MINI-DELTA BACK
   001477    000032 7570 00           1104         STAQ    FLTLOC
   001500  X 000000 4440 51           1105         TYPE    NORCVRM
   001501  X 000000 7430 56
   001502 (2)002405 2350 00
   001503    000000 6314 01
   001504    777777 3750 07
   001505    000004 7310 00
   001506    000000 6250 05
   001507    040 0 040 1005 40
   001510    1 00000 0 0 0 0015
   001511 (0)000014 0 0 0 0015
   001512 (0)000013 4450 00
   001513 (0)000013 6304 00
   001514 (0)000000 4504 00
   001515    000001 2350 03
   001516 (0)000005 7550 00
   001517 (0)000000 6304 00
   001520 (0)000005 6314 00
   001521  X 000000 7010 00
   001522    000000 0110 00
   001523 (0)000006 6304 00
   001524 (0)000000 4504 00
   001525  X 000000 2230 54
   001526  X 000000 7240 51
                                      1106  *O*
                                      1107  *O*    MESSAGE:   RCVR-RECOVERY IMPOSSIBLE
                                      1108  *O*    MEANING:   The system is too sick to recover.
   001527 (2)001421 7100 00           1109         TRA     GETMINI         TEMPORARY
   001530    020003 7100 00           1110         TRA     GOLOOP
                                      1111  *

 22:47 07/29/97  FILE=IRR$RECOVER.:E05TSI                                                                45   BMAP - B00
                                      1112         EJECT
                                      1113  *F*    NAME:   IRR$MSKFEPS
                                      1114  *F*
                                      1115  *F*    PURPOSE: To mask all local FEP's
                                      1116  *F*
                                      1117  *F*    CALL:   TSX0 IRR$MSKFEPS
                                      1118  *F*
   001531                             1119  IRR$MSKFEPS   NULL
   001531  X 000000 4774 00           1120         LDP7    I$MONIS$
   001532    000000 2230 03           1121         LDX3    0,DU
   001533    7 X 00000 2361 00        1122  MSKFPS LDQ     KI_FEI$$,,7        Get FEP's channel
   001534    777777 3760 03           1123         ANQ    =O777777,DU
   001535  X 000000 2760 00           1124         ORQ    I$RV1$
   001536  X 000000 7560 00           1125         STQ    RV_T1
   001537  X 000000 4764 00           1126         LDP6   RV_T1
   001540    6 00000 2361 13          1127         LDQ     0,X3,6
   001541    006014 1160 07           1128         CMPQ   =O6014,DL
   001542 (2)001577 6000 00           1129         TZE     NXTFP
   001543    777777 3760 03           1130         ANQ     =O777777,DU
   001544  X 000000 2760 00           1131         ORQ     I$RV1$
   001545  X 000000 7560 00           1132         STQ     RV_T1
   001546  X 000000 4764 00           1133         LDP6    RV_T1
   001547    6 00015 2221 00          1134         LDX2    13,,6            PBST.PROB
   001550    000016 1020 03           1135         CMPX2   14,DU            KIER_PART
   001551 (2)001577 6000 00           1136         TZE     NXTFP
   001552    6 00002 2361 00          1137         LDQ     2,,6
   001553    000033 7720 00           1138         QRL     27
   001554 (2)001577 6000 00           1139         TZE     NXTFP
   001555    000000 6220 06           1140         EAX2    0,QL
   001556    000177 3620 03           1141         ANX2    =O000177,DU      Channel# is now in X2
   001557    000007 7720 00           1142         QRL     7
   001560    000000 6210 06           1143         EAX1    0,QL              IOM# in X1
   001561 (2)001633 6314 00           1144         EPPR1   DESCS
   001562 (2)001621 4500 00           1145         STZ     ARGS
   001563 (2)001621 4410 00           1146         SXL1    ARGS
   001564 (2)001622 4500 00           1147         STZ     ARGS+1
   001565 (2)001622 4420 00           1148         SXL2    ARGS+1
 22:47 07/29/97  FILE=IRR$RECOVER.:E05TSI                                                                46   BMAP - B00
   001566 (2)001626 6304 00           1149         EPPR0   PTRS
   001567    000002 2350 03           1150         LDA     2,DU
   001570 (2)001633 7550 00           1151         STA     DESCS
   001571 (2)001634 7400 00           1152         STX0    TEMPX0
   001572 (2)001635 7430 00           1153         STX3    TEMPX3
   001573  X 000000 7010 00           1154         TSX1    INIT_FEP
   001574    000000 0110 00           1155         NOP     0
   001575 (2)001634 2200 00           1156         LDX0    TEMPX0
   001576 (2)001635 2230 00           1157         LDX3    TEMPX3
   001577    000000 6360 13           1158  NXTFP  EAQ     0,X3
   001600    000022 7720 00           1159         QRL     18
   001601    000001 0630 03           1160         ADX3    1,DU
   001602    7 X 00000 1161 00        1161         CMPQ    KI_MXFE,,7
   001603 (2)001533 6010 00           1162         TNZ     MSKFPS
   001604    000000 7100 10           1163         TRA     0,X0

 22:47 07/29/97  FILE=IRR$RECOVER.:E05TSI                                                                47   BMAP - B00
                                      1164         EJECT
                                      1165  *F*  NAME:     IRR$WWSQD
                                      1166  *F*
                                      1167  *F*  PURPOSE:  To re-write the WSQ dump directory for the
                                      1168  *F*            Monitor or a user.
                                      1169  *F*
                                      1170  *F*  CALL:     TSX1 IRR$WWSQD
                                      1171  *F*            TRA  ERR       Taken if MINIQC Altreturns
                                      1172  *F*            TRA  NORMAL
                                      1173  *F*
                                      1174  *F*  INPUT:    RV_WDGRAN = GRAN# to be re-written
                                      1175  *F*            POBUFF    = Page Table to be re-written
                                      1176  *F*
                                      1177         ENTDEF  IRR$WWSQD
   001605                             1178  IRR$WWSQD  NULL
   001605  X 000000 7250 00           1179         LXL5    RV_WDGRAN       GRAN# TO WRITE
   001606 (2)001643 7100 00           1180         TRA     WRITEIT
                                      1181  *
                                      1182  *F*  NAME:     IRR$WDUMP
                                      1183  *F*
                                      1184  *F*  PURPOSE:  To move a pge to POBUFF, allocate the next dump
                                      1185  *F*            granule, and write the page to the dump file.
                                      1186  *F*
                                      1187  *F*  CALL:     TSX1 IRR$WDUMP
                                      1188  *F*            TRA  ERR       Taken if MINIQC Altreturns
                                      1189  *F*                           Taken if dump area exceeded (RV_PDUMP set ~= 0)
                                      1190  *F*            TRA  NORMAL
                                      1191  *F*
                                      1192  *F*  INPUT:    RV_NXTGRAN = GRAN# to write (Maintained by IRR$RECOVER)
                                      1193  *F*            RV_BAPAGE = Byte address of the real page# to write
                                      1194  *F*
                                      1195         ENTDEF  IRR$WDUMP
   001607                             1196  IRR$WDUMP NULL
   001607  X 000000 2350 00           1197         LDA     RV_PDUMP        HAVE WE ALREADY EXCEEDED THE LIMIT
   001610    000000 6010 11           1198         TNZ     0,1             YES-ALTRETURN
   001611  X 000000 2350 00           1199         LDA     RV_BAPAGE       BYTE ADDR OF THE REAL PAGE
   001612  X 000001 7550 00           1200         STA     MEMDESC+1
 22:47 07/29/97  FILE=IRR$RECOVER.:E05TSI                                                                48   BMAP - B00
   001613  X 000000 4774 00           1201         LDP7    I$MEM$          LOAD DSCR TO FRAME THE REAL PAGE
   001614    010000 6230 00           1202         EAX3    4096
   001615    000 0 040 1005 40        1203         MLR     (1,1),(0,1),000
   001616    7 00000 0 0 0 0013       1204         ADSC9   0,0,3,7
   001617  X 000000 0 0 0 0013        1205         ADSC9   POBUF,0,3
   001620 (2)001636 7100 00           1206         TRA     IRR$WPOBUFF     TO GET NEXT GRAN AND WRITE IT
                                      1207  *
                                      1208  *F*  NAME:     IRR$WPOBUFF
                                      1209  *F*
                                      1210  *F*  PURPOSE:  To allocate the next dump granule and write the
                                      1211  *F*            the contents of POBUF to it.
                                      1212  *F*
                                      1213  *F*  CALL:     TSX1 IRR$WPOBUFF
                                      1214  *F*            TRA  ERR       Taken if MINIQC Altreturns
                                      1215  *F*                           Taken if dump area exceeded (RV_PDUMP set ~= 0)
                                      1216  *F*            TRA  NORMAL
                                      1217  *F*
                                      1218  *F*  INPUT:    RV_NXTGRAN = GRAN# to write (Maintained by IRR$RECOVER)
                                      1219  *F*            POBUF contains data to be written
                                      1220  *F*
                                      1221         ENTDEF  IRR$WPOBUFF
             000000006000             1222  ISSID  BOOL    6000
   001621                             1223  ARGS   BSS     5
   001626 (2)001621 0 00 6000         1224  PTRS   PTR     ISSID,ARGS
   001627 (2)001622 0 00 6000         1225         PTR     ISSID,ARGS+1
   001630 (2)001623 0 00 6000         1226         PTR     ISSID,ARGS+2
   001631 (2)001624 0 00 6000         1227         PTR     ISSID,ARGS+3
   001632 (2)001625 0 00 6000         1228         PTR     ISSID,ARGS+4
   001633                             1229  DESCS  BSS     1
   001634                             1230  TEMPX0 BSS     1
   001635                             1231  TEMPX3 BSS     1
   001636                             1232  IRR$WPOBUFF NULL
   001636  X 000000 2350 00           1233         LDA     RV_NXTGRAN      GRANULE TO WRITE
   001637  X 000000 1150 00           1234         CMPA    RV_MAXGRAN      LAST ONE AVAILABLE
   001640 (2)001725 6030 00           1235         TRC     NOROOM          OUT OF ROOM-ALTRETURN
   001641  X 000000 7250 00           1236         LXL5    RV_NXTGRAN      NEXT GRAN TO WRITE
   001642  X 000000 0540 00           1237         AOS     RV_NXTGRAN      BUMP TO NEXT ONE TO USE
 22:47 07/29/97  FILE=IRR$RECOVER.:E05TSI                                                                49   BMAP - B00
   001643                             1238  WRITEIT NULL
   001643  X 000000 2350 00           1239         LDA     RV_PDUMP        HAVE WE ALREADY EXCEEDED THE LIMIT
   001644    000000 6010 11           1240         TNZ     0,1             YES-ALTRETURN
   001645  X 000000 7410 00           1241         STX1    RV_T1           REMEMBER WHAT
   001646  X 000000 4524 00           1242         STP2    RV_T2             PL6 NEEDS
   001647    000001 6230 00           1243         EAX3    FCNWDB          WRITE DISK BINARY
   001650  X 000000 7240 00           1244         LXL4    SYS_DPX         DCTX OF THE SYSTEM DISK
   001651 (2)002232 7070 00           1245         TSX7    CHECKGRAN
   001652 (2)001621 4500 00           1246         STZ     ARGS
   001653 (2)001621 4440 00           1247         SXL4    ARGS
   001654 (2)002376 6304 00           1248         EPPR0   WPGDCW
   001655 (2)001622 4504 00           1249         STP0    ARGS+1
   001656 (2)001624 4500 00           1250         STZ     ARGS+3
   001657 (2)001624 4430 00           1251         SXL3    ARGS+3
   001660 (2)001625 4500 00           1252         STZ     ARGS+4
   001661 (2)001625 4450 00           1253         SXL5    ARGS+4
   001662 (2)001626 6304 00           1254         EPPR0   PTRS
   001663    000005 2350 03           1255         LDA     5,DU
   001664 (2)001633 7550 00           1256         STA     DESCS
   001665 (2)001633 6314 00           1257         EPPR1   DESCS
   001666  X 000000 7010 00           1258         TSX1    MINIQC_PL6      WRITE IT OUT
   001667 (2)001673 7100 00           1259         TRA     WDUMPERR        ERROR RETURN
   001670                             1260  WDUMPRET NULL
   001670  X 000000 2210 00           1261         LDX1    RV_T1           RESTORE RETURN
   001671  X 000000 4724 00           1262         LDP2    RV_T2            AND PL6 AUTO POINTER
   001672    000001 7100 11           1263         TRA     1,1             NORMAL RETURN
                                      1264  *
                                      1265  *
   001673                             1266  WDUMPERR NULL                  ERROR RETURN FROM MINIQC
   001673  X 000000 4440 51           1267         TYPE    WDERRM
   001674  X 000000 7430 56
   001675 (2)002477 2350 00
   001676    000000 6314 01
   001677    777777 3750 07
   001700    000004 7310 00
   001701    000000 6250 05
   001702    040 0 040 1005 40
 22:47 07/29/97  FILE=IRR$RECOVER.:E05TSI                                                                50   BMAP - B00
   001703    1 00000 0 0 0 0015
   001704 (0)000014 0 0 0 0015
   001705 (0)000013 4450 00
   001706 (0)000013 6304 00
   001707 (0)000000 4504 00
   001710    000001 2350 03
   001711 (0)000005 7550 00
   001712 (0)000000 6304 00
   001713 (0)000005 6314 00
   001714  X 000000 7010 00
   001715    000000 0110 00
   001716 (0)000006 6304 00
   001717 (0)000000 4504 00
   001720  X 000000 2230 54
   001721  X 000000 7240 51
                                      1268  *O*
                                      1269  *O*    MESSAGE:   RCVR-ERROR WRITING DUMP FILE
                                      1270  *O*    MEANING:   IO error while writing the recovery dump
   001722                             1271  WDUMPALT NULL                  ALTRETURN TO PL6 ROUTINE
   001722  X 000000 2210 00           1272         LDX1    RV_T1           RESTORE RETURN
   001723  X 000000 4724 00           1273         LDP2    RV_T2            AND PL6 AUTO POINTER
   001724    000000 7100 11           1274         TRA     0,1
                                      1275  *
                                      1276  *
   001725                             1277  NOROOM NULL                    DUMP AREA EXCEEDED
   001725  X 000000 7410 00           1278         STX1    RV_T1           REMEMBER WHAT
   001726  X 000000 4524 00           1279         STP2    RV_T2             PL6 NEEDS
   001727  X 000000 2350 00           1280         LDA     RV_PDUMP
   001730 (2)001722 6010 00           1281         TNZ     WDUMPALT
   001731  X 000000 0540 00           1282         AOS     RV_PDUMP        INDICATE SKIP DUMP
   001732  X 000000 4500 00           1283         STZ     RV_BUFF+B.BUSY
   001733  X 000000 4440 51           1284         TYPE    NDERRM
   001734  X 000000 7430 56
   001735 (2)002507 2350 00
   001736    000000 6314 01
   001737    777777 3750 07
   001740    000004 7310 00
 22:47 07/29/97  FILE=IRR$RECOVER.:E05TSI                                                                51   BMAP - B00
   001741    000000 6250 05
   001742    040 0 040 1005 40
   001743    1 00000 0 0 0 0015
   001744 (0)000014 0 0 0 0015
   001745 (0)000013 4450 00
   001746 (0)000013 6304 00
   001747 (0)000000 4504 00
   001750    000001 2350 03
   001751 (0)000005 7550 00
   001752 (0)000000 6304 00
   001753 (0)000005 6314 00
   001754  X 000000 7010 00
   001755    000000 0110 00
   001756 (0)000006 6304 00
   001757 (0)000000 4504 00
   001760  X 000000 2230 54
   001761  X 000000 7240 51
                                      1285  *O*
                                      1286  *O*    MESSAGE:   RCVR-DUMP AREA EXCEEDED
                                      1287  *O*    MEANING:   A partial dump file has been written
   001762 (2)001722 7100 00           1288         TRA     WDUMPALT
                                      1289  *

 22:47 07/29/97  FILE=IRR$RECOVER.:E05TSI                                                                52   BMAP - B00
                                      1290         EJECT
                                      1291  *F*    NAME:     IRR$READBUF
                                      1292  *F*
                                      1293  *F*    PURPOSE:  To read a previously used Recovery Buffer
                                      1294  *F*              for RVI$INIT.
                                      1295  *F*
                                      1296  *F*    CALL:     TSX1   IRR$READBUF
                                      1297  *F*              TRA    ERR
                                      1298  *F*              TRA    NORMAL
                                      1299  *F*
                                      1300  *F*    INPUT:    RV_WDGRAN = Gran# to read
                                      1301  *F*
                                      1302  *F*    OUTPUT:   RV_USRDIR = Recovery Buffer
                                      1303  *F*
                                      1304         ENTDEF  IRR$READBUF
                                      1305  *
   001763                             1306  IRR$READBUF NULL
   001763  X 000000 7410 00           1307         STX1    RV_T1           REMEMBER WHAT
   001764  X 000000 4524 00           1308         STP2    RV_T2             PL6 NEEDS
   001765    000000 6230 00           1309         EAX3    FCNRDB          FCN CODE TO READ DISK (BINARY)
   001766  X 000000 7240 00           1310         LXL4    SYS_DPX         DCTX OF THE SYSTEM PACK
   001767  X 000000 7250 00           1311         LXL5    RV_WDGRAN       GRAN# TO READ
   001770 (2)001621 4500 00           1312         STZ     ARGS
   001771 (2)001621 4440 00           1313         SXL4    ARGS
   001772 (2)002377 6304 00           1314         EPPR0   WUDIRDCW
   001773 (2)001622 4504 00           1315         STP0    ARGS+1
   001774 (2)001624 4500 00           1316         STZ     ARGS+3
   001775 (2)001624 4430 00           1317         SXL3    ARGS+3
   001776 (2)001625 4500 00           1318         STZ     ARGS+4
   001777 (2)001625 4450 00           1319         SXL5    ARGS+4
   002000 (2)001626 6304 00           1320         EPPR0   PTRS
   002001    000005 2350 03           1321         LDA     5,DU
   002002 (2)001633 7550 00           1322         STA     DESCS
   002003 (2)001633 6314 00           1323         EPPR1   DESCS
   002004  X 000000 7010 00           1324         TSX1    MINIQC_PL6      READ IT
   002005 (2)001722 7100 00           1325         TRA     WDUMPALT        RVI WILL PRINT ANY ERROR MESSAGE
   002006 (2)001670 7100 00           1326         TRA     WDUMPRET        NORMAL RETURN

 22:47 07/29/97  FILE=IRR$RECOVER.:E05TSI                                                                53   BMAP - B00
                                      1327         EJECT
                                      1328  *F*
                                      1329  *F*    NAME:   IRR$WUSRDR
                                      1330  *F*
                                      1331  *F*    PURPOSE:  To write the user directory to the dump file
                                      1332  *F*
                                      1333  *F*    CALL:   TSX1 IRR$WUSRDR
                                      1334  *F*            TRA  ERR    Taken if a good gran cant be found
                                      1335  *F*            TRA  NORMAL
                                      1336  *F*
                                      1337  *F*    INPUT:  RV_USRDRDA = GRAN# (Initialized to dump gran #1)
                                      1338  *F*
                                      1339  *F*    OUTPUT: RV_USRDRDA (If another granule was used)
                                      1340  *F*
                                      1341         ENTDEF  IRR$WUSRDR
   002007                             1342  IRR$WUSRDR NULL
   002007  X 000000 2350 00           1343         LDA     RV_NODUMPG      ARE WE TAKING A DUMP
   002010    000000 6010 11           1344         TNZ     0,1             NOPE
   002011  X 000000 7410 00           1345         STX1    RV_T1           REMEMBER WHAT
   002012  X 000000 4524 00           1346         STP2    RV_T2             PL6 NEEDS
   002013  X 000000 7250 00           1347         LXL5    RV_USRDRDA      GRAN# TO WRITE
   002014                             1348  USRDR2 NULL
   002014  X 000000 7240 00           1349         LXL4    SYS_DPX         DCTX OF THE SYSTEM PACK
   002015    000001 6230 00           1350         EAX3    FCNWDB          WRITE DISK BINARY
   002016 (2)002232 7070 00           1351         TSX7    CHECKGRAN
   002017 (2)001621 4500 00           1352         STZ     ARGS
   002020 (2)001621 4440 00           1353         SXL4    ARGS
   002021 (2)002377 6304 00           1354         EPPR0   WUDIRDCW
   002022 (2)001622 4504 00           1355         STP0    ARGS+1
   002023 (2)001624 4500 00           1356         STZ     ARGS+3
   002024 (2)001624 4430 00           1357         SXL3    ARGS+3
   002025 (2)001625 4500 00           1358         STZ     ARGS+4
   002026 (2)001625 4450 00           1359         SXL5    ARGS+4
   002027 (2)001626 6304 00           1360         EPPR0   PTRS
   002030    000005 2350 03           1361         LDA     5,DU
   002031 (2)001633 7550 00           1362         STA     DESCS
   002032 (2)001633 6314 00           1363         EPPR1   DESCS
 22:47 07/29/97  FILE=IRR$RECOVER.:E05TSI                                                                54   BMAP - B00
   002033  X 000000 7010 00           1364         TSX1    MINIQC_PL6      WRITE THE USER DUMP DIRECTORY
   002034 (2)002043 7100 00           1365         TRA     WUDERR          ERROR RETURN
   002035 (2)002036 7100 00           1366         TRA     WUDIROK         NORMAL RETURN
                                      1367  *
   002036                             1368  WUDIROK NULL
   002036  X 000000 2350 00           1369         LDA     RV_USRDRDA      DA OF USER DIRECTORY
   002037  X 000310 7550 00           1370         STA     RV_BUFF+B.USRDR     TO RECOVERY BUFFER
   002040    000001 2270 03           1371         LDX7    1,DU            SIZE OF USER DIRECTORY
   002041  X 000311 4470 00           1372         SXL7    RV_BUFF+B.USRDR+1     TO RECOVERY BUFFER
   002042 (2)001670 7100 00           1373         TRA     WDUMPRET        NORMAL RETURN
                                      1374  *
   002043                             1375  WUDERR  NULL
   002043  X 000000 2350 00           1376         LDA     RV_PDUMP        HAVE WE ALREADY EXCEEDED THE LIMIT
   002044 (2)002054 6010 00           1377         TNZ     DIRMSG          YES-ERRMSG AND ALTRET
   002045  X 000000 2350 00           1378         LDA     RV_NXTGRAN      AN AVAILABLE GRAN
   002046  X 000000 1150 00           1379         CMPA    RV_MAXGRAN      MAYBE
   002047 (2)002054 6030 00           1380         TRC     DIRMSG          NOPE
   002050  X 000000 7550 00           1381         STA     RV_USRDRDA      OK-USE IT
   002051  X 000000 7250 00           1382         LXL5    RV_USRDRDA      AND TRY AGAIN
   002052  X 000000 0540 00           1383         AOS     RV_NXTGRAN      DONT CLOBBER IT LATER
   002053 (2)002014 7100 00           1384         TRA     USRDR2
                                      1385  *
   002054                             1386  DIRMSG NULL
   002054  X 000000 4440 51           1387         TYPE    WDIREM
   002055  X 000000 7430 56
   002056 (2)002516 2350 00
   002057    000000 6314 01
   002060    777777 3750 07
   002061    000004 7310 00
   002062    000000 6250 05
   002063    040 0 040 1005 40
   002064    1 00000 0 0 0 0015
   002065 (0)000014 0 0 0 0015
   002066 (0)000013 4450 00
   002067 (0)000013 6304 00
   002070 (0)000000 4504 00
   002071    000001 2350 03
 22:47 07/29/97  FILE=IRR$RECOVER.:E05TSI                                                                55   BMAP - B00
   002072 (0)000005 7550 00
   002073 (0)000000 6304 00
   002074 (0)000005 6314 00
   002075  X 000000 7010 00
   002076    000000 0110 00
   002077 (0)000006 6304 00
   002100 (0)000000 4504 00
   002101  X 000000 2230 54
   002102  X 000000 7240 51
                                      1388  *O*
                                      1389  *O*    MESSAGE:   RCVR-ERROR WRITING USER DIRECTORY
                                      1390  *O*    MEANING:   IO error while writing the user directory
   002103 (2)001673 7100 00           1391         TRA     WDUMPERR        ALTRET

 22:47 07/29/97  FILE=IRR$RECOVER.:E05TSI                                                                56   BMAP - B00
                                      1392         EJECT
                                      1393  *F*  NAME:     IRR$FLUSHIQ
                                      1394  *F*
                                      1395  *F*  PURPOSE:  To flush SCU interrupt queues for the DPS 8000.
                                      1396  *F*
                                      1397  *F*  CALL:     TSX1 IRR$FLUSHIQ
                                      1398  *F*            TRA  NORMAL
                                      1399  *F*
   002104                             1400  IRR$FLUSHIQ NULL
   002104  X 000000 2340 00           1401         SZN     RPM_FLG     IS THIS THE RPM?
   002105    000001 6050 11           1402         TPL     1,1         T/ NO, JUST RETURN
   002106                             1403  FLUSH  NULL
   002106    000000 4120 00           1404         RIW                 READS INTERRUPT ENTRY INTO A & Q
   002107 (2)002106 6010 00           1405         TNZ     FLUSH       T/ NONZERO MEANS STILL READING ENTRIES
   002110    000001 7100 11           1406         TRA     1,1         RETURN

 22:47 07/29/97  FILE=IRR$RECOVER.:E05TSI                                                                57   BMAP - B00
                                      1407         EJECT
                                      1408                 *******************************************************
                                      1409                 *    ROUTINES USED BY IRF$CLSF
                                      1410                 * IRR$RPAGE  --  IRR$WPAGE    PACKS
                                      1411                 * IRR$TAPE  --  IRR$UNLOAD    TAPES
                                      1412                 * IRR$WRBIN -- IRR$WRASC
                                      1413                 * IRR$SPRECB
                                      1414                 *******************************************************
                                      1415         ENTDEF  IRR$TAPE
                                      1416         ENTDEF  IRR$UNLOAD
                                      1417         ENTDEF  IRR$RPAGE
                                      1418         ENTDEF  IRR$WPAGE
                                      1419         ENTDEF  IRR$PERMIT
                                      1420         ENTDEF  IRR$WRFM
                                      1421         ENTDEF  IRR$WRBIN
                                      1422         ENTDEF  IRR$WRASC
                                      1423         ENTDEF  IRR$SPRECB
                                      1424  *
   002111    000001 6230 00           1425  IRR$WRBIN EAX3 FCNWTB
   002112 (2)002114 7100 00           1426         TRA     SETARS
                                      1427  *
   002113    000003 6230 00           1428  IRR$WRASC EAX3 FCNWT9
                                      1429  *
   002114  X 000000 7240 00           1430  SETARS LXL4    PO_INDX
   002115    000000 6360 14           1431         EAQ     0,X4
   002116    000022 7360 00           1432         QLS     18
   002117    000014 4020 07           1433         MPY     12,DL
   002120    000000 6260 06           1434         EAX6    0,QL
   002121  X 000000 2350 00           1435         LDA     RV_DCTX
   002122  X 000000 7550 16           1436         STA     DEVINFO,X6
   002123    3 00000 2351 00          1437         LDA     0,,3
   002124    000022 7350 00           1438         ALS     18
   002125  X 000000 2750 07           1439         ORA     POBUF,DL
   002126  X 000000 7410 00           1440         STX1    RV_T1
   002127  X 000000 4524 00           1441         STP2    RV_T2
   002130 (2)001621 4500 00           1442         STZ     ARGS
   002131 (2)001621 4440 00           1443         SXL4    ARGS
 22:47 07/29/97  FILE=IRR$RECOVER.:E05TSI                                                                58   BMAP - B00
   002132    000000 6304 01           1444         EPPR0   0,AU
   002133 (2)001622 4504 00           1445         STP0    ARGS+1
   002134    777777 3750 07           1446         ANA     =O777777,DL
   002135    000006 7310 00           1447         ARS     6
   002136 (2)001623 7550 00           1448         STA     ARGS+2
   002137 (2)001624 4500 00           1449         STZ     ARGS+3
   002140 (2)001624 4430 00           1450         SXL3    ARGS+3
   002141 (2)001625 4500 00           1451         STZ     ARGS+4
   002142 (2)001625 4450 00           1452         SXL5    ARGS+4
   002143 (2)001626 6304 00           1453         EPPR0   PTRS
   002144    000005 2350 03           1454         LDA     5,DU
   002145 (2)001633 7550 00           1455         STA     DESCS
   002146 (2)001633 6314 00           1456         EPPR1   DESCS
   002147  X 000000 7010 00           1457         TSX1    MINIQ_PL6
   002150 (2)001722 7100 00           1458         TRA     WDUMPALT
   002151 (2)001670 7100 00           1459         TRA     WDUMPRET
                                      1460  *
   002152  X 000000 7230 00           1461  IRR$TAPE LXL3  RV_FCN          GET FCN
   002153  X 000000 7240 00           1462         LXL4    PO_INDX          DCTX FOR THIS TAPE
   002154 (2)002170 7100 00           1463         TRA     FAKE$X5
                                      1464  *
   002155    000005 6230 00           1465  IRR$WRFM EAX3  FCNWFM          FCN CODE TO WRITE FILEMARK ON TAPE
   002156  X 000000 7240 00           1466         LXL4    PO_INDX
   002157 (2)002170 7100 00           1467         TRA     FAKE$X5
                                      1468  *
   002160    000014 6230 00           1469  IRR$SPRECB EAX3 FCNSRB         FCN CODE FOR SKIP RECORD BACKWARD
   002161  X 000000 7240 00           1470         LXL4    PO_INDX
   002162 (2)002170 7100 00           1471         TRA     FAKE$X5
                                      1472  *
   002163    000016 6230 00           1473  IRR$PERMIT EAX3 FCNPER         FCN CODE TO WRITE PERMIT ON TAPE
   002164  X 000000 7240 00           1474         LXL4    PO_INDX
   002165 (2)002170 7100 00           1475         TRA     FAKE$X5
                                      1476  *
   002166    000011 6230 00           1477  IRR$UNLOAD EAX3 FCNUNL          FCN CODE TO UNLOAD TAPE
   002167  X 000000 7240 00           1478         LXL4    PO_INDX
   002170                             1479  FAKE$X5 NULL                   EVEN THO ITS NOT USED BY MINIQC FOR THESE
   002170  X 000000 7250 00           1480         LXL5    RV_WDGRAN        ROUTINES LOAD X5 TO FAKE OUT CHECKGRAN
 22:47 07/29/97  FILE=IRR$RECOVER.:E05TSI                                                                59   BMAP - B00
   002171 (2)002201 7100 00           1481         TRA     SET.DCT1
                                      1482  *
   002172    000000 6230 00           1483  IRR$RPAGE EAX3 FCNRDB          FCN CODE TO READ DISK (BINARY)
   002173 (2)002175 7100 00           1484         TRA     *+2
                                      1485  *
   002174    000001 6230 00           1486  IRR$WPAGE EAX3 FCNWDB          FCN CODE TO WRITE DISK (BINARY)
   002175  X 000000 7250 00           1487         LXL5    RV_WDGRAN       GRAN# TO WRITE
   002176  X 000000 7240 00           1488         LXL4    REC_DPX        DCTX OF THE DEVICE
   002177  X 000000 2350 00           1489         LDA     RV_NSPG
   002200    000000 6260 05           1490         EAX6    0,AL
   002201                             1491  SET.DCT1 NULL
   002201    000000 6360 14           1492         EAQ     0,X4            PUT IT INTO Q (WE STILL NEED IT IN X4)
   002202    000022 7320 00           1493         QRS     18              SHIFT IT INTO THE LOWER HALF
   002203    000014 4020 07           1494         MPY     12,DL           DEVINFO ENTRIES ARE 12 WORDS LONG
   002204    000000 6270 06           1495         EAX7    0,QL            PUT OFFSET INTO X7
   002205  X 000000 2350 00           1496         LDA     RV_DCTX         GET CHAN-DEV-IOM (FROM IRF)
   002206  X 000000 7550 17           1497         STA     DEVINFO,X7      PUT IT INTO DEVINFO FOR MINIQ
   002207  X 000000 7410 00           1498         STX1    RV_T1           REMEMBER WHAT
   002210  X 000000 4524 00           1499         STP2    RV_T2             PL6 NEEDS
   002211 (2)002232 7070 00           1500         TSX7    CHECKGRAN
   002212 (2)001621 4500 00           1501         STZ     ARGS
   002213 (2)001621 4440 00           1502         SXL4    ARGS
   002214 (2)002376 6304 00           1503         EPPR0   WPGDCW
   002215 (2)001622 4504 00           1504         STP0    ARGS+1
   002216 (2)001624 4500 00           1505         STZ     ARGS+3
   002217 (2)001624 4430 00           1506         SXL3    ARGS+3
   002220 (2)001625 4500 00           1507         STZ     ARGS+4
   002221 (2)001625 4450 00           1508         SXL5    ARGS+4
   002222 (2)001626 6304 00           1509         EPPR0   PTRS
   002223    000005 2350 03           1510         LDA     5,DU
   002224 (2)001633 7550 00           1511         STA     DESCS
   002225 (2)001633 6314 00           1512         EPPR1   DESCS
   002226  X 000000 7010 00           1513         TSX1    MINIQC_PL6
   002227 (2)001722 7100 00           1514         TRA     WDUMPALT        ERROR RETURN
   002230 (2)001670 7100 00           1515         TRA     WDUMPRET        NORMAL RETURN
   002231 (2)002376 0000 00           1516         ARG     WPGDCW          READ-WRITE POBUF
                                      1517  *

 22:47 07/29/97  FILE=IRR$RECOVER.:E05TSI                                                                60   BMAP - B00
                                      1518         EJECT
                                      1519  *
                                      1520  *
                                      1521  *
   002232                             1522  CHECKGRAN NULL
   002232    000000 1050 03           1523         CMPX5   0,DU            TRYING TO WRITE GRAN 0
   002233    000000 6010 17           1524         TNZ     0,7             NO
   002234 (2)002277 1010 00           1525         CMPX1   GRAN0IC SAME TURKEY
   002235 (2)001722 6000 00           1526         TZE     WDUMPALT        YES
   002236 (2)002277 7410 00           1527         STX1    GRAN0IC
   002237  X 000000 4440 51           1528         TYPE    GRAN0MSG
   002240  X 000000 7430 56
   002241 (2)002267 2350 00
   002242    000000 6314 01
   002243    777777 3750 07
   002244    000004 7310 00
   002245    000000 6250 05
   002246    040 0 040 1005 40
   002247    1 00000 0 0 0 0015
   002250 (0)000014 0 0 0 0015
   002251 (0)000013 4450 00
   002252 (0)000013 6304 00
   002253 (0)000000 4504 00
   002254    000001 2350 03
   002255 (0)000005 7550 00
   002256 (0)000000 6304 00
   002257 (0)000005 6314 00
   002260  X 000000 7010 00
   002261    000000 0110 00
   002262 (0)000006 6304 00
   002263 (0)000000 4504 00
   002264  X 000000 2230 54
   002265  X 000000 7240 51
   002266    000000000000             1529         OCT     0               CAUSE TRAP
                                      1530  *
                                      1531  *
   002267 (2)002270 0007 00           1532         TALLY   *+1,7
 22:47 07/29/97  FILE=IRR$RECOVER.:E05TSI                                                                61   BMAP - B00
   002270    122103126122             1533  GRAN0MSG UASCI 7,RCVR-ATTEMPT TO WRITE GRAN 0
   002271    055101124124
   002272    105115120124
   002273    040124117040
   002274    127122111124
   002275    105040107122
   002276    101116040060
                                      1534         SYMDEF  GRAN0IC
   002277    000000000000             1535  GRAN0IC OCT    0
                                      1536                 *******************************************************
                                      1537                 * IRR$TYPE
                                      1538                 *******************************************************
                                      1539         ENTDEF  IRR$TYPE
                                      1540         ENTDEF  IRR$TYPEM       TO TYPE ONLY IF RV_DEBUGM ~= 0
                                      1541         ENTDEF  IRR$TYPE6       EASIER CALLING SEQUENCE FOR PL6
                                      1542         ENTDEF  IRR$TYPE6M      TO TYPE ONLY IF RV_DEBUGM ~= 0
                                      1543  *
   002300                             1544  IRR$TYPE6M NULL
   002300  X 000000 2350 00           1545         LDA     RV_DEBUGM
   002301    000001 6000 11           1546         TZE     1,1
   002302                             1547  IRR$TYPE6 NULL
   002302    0 00000 4715 00          1548         LDP1    0,,0
   002303    0 00001 4735 00          1549         LDP3    1,,0
   002304    3 00000 2351 00          1550         LDA     0,,3
   002305    000010 7350 00           1551         ALS     8               SHIFT TO TALLY WORD FORMAT
   002306  X 000000 7550 00           1552         STA     RV_T2           HOLD
   002307  X 000000 4514 00           1553         STP1    RV_T1
   002310  X 000000 2220 00           1554         LDX2    RV_T1
   002311  X 000000 7420 00           1555         STX2    RV_T2           COMPLETE TALLY WORD
   002312  X 000000 2350 00           1556         LDA     RV_T2           AND GET IT INTO A
   002313  X 000000 7410 00           1557         STX1    RV_T1           SAVE X1
   002314  X 000000 4524 00           1558         STP2    RV_T2           ETC.
   002315 (2)002324 7100 00           1559         TRA     IRR$TYPE1       AND FAKE IT OUT
                                      1560  *
                                      1561  *
   002316                             1562  IRR$TYPEM NULL
   002316  X 000000 2350 00           1563         LDA     RV_DEBUGM
 22:47 07/29/97  FILE=IRR$RECOVER.:E05TSI                                                                62   BMAP - B00
   002317    000001 6000 11           1564         TZE     1,1
   002320                             1565  IRR$TYPE NULL
   002320    0 00000 4715 00          1566         LDP1    0,,0
   002321    1 00000 2351 00          1567         LDA     0,,1
   002322  X 000000 7410 00           1568         STX1    RV_T1
   002323  X 000000 4524 00           1569         STP2    RV_T2
   002324                             1570  IRR$TYPE1 NULL
   002324    000001 2230 03           1571         LDX3    1,DU            FCN CODE FOR WRITE CONSOLE ASCII
   002325    000000 2240 03           1572         LDX4    0,DU            DEVICE INDEX FOR CONSOLE
   002326 (2)001621 4500 00           1573         STZ     ARGS
   002327 (2)001621 4440 00           1574         SXL4    ARGS
   002330    000000 6304 01           1575         EPPR0   0,AU
   002331 (2)001622 4504 00           1576         STP0    ARGS+1
   002332    777777 3750 07           1577         ANA     =O777777,DL
   002333    000006 7310 00           1578         ARS     6
   002334 (2)001623 7550 00           1579         STA     ARGS+2
   002335 (2)001624 4500 00           1580         STZ     ARGS+3
   002336 (2)001624 4430 00           1581         SXL3    ARGS+3
   002337 (2)001625 4500 00           1582         STZ     ARGS+4
   002340 (2)001625 4450 00           1583         SXL5    ARGS+4
   002341 (2)001626 6304 00           1584         EPPR0   PTRS
   002342    000005 2350 03           1585         LDA     5,DU
   002343 (2)001633 7550 00           1586         STA     DESCS
   002344 (2)001633 6314 00           1587         EPPR1   DESCS
   002345  X 000000 7010 00           1588         TSX1    MINIQ_PL6
   002346    000000 0110 00           1589         NOP
   002347  X 000000 2210 00           1590         LDX1    RV_T1
   002350  X 000000 4724 00           1591         LDP2    RV_T2
   002351    000001 7100 11           1592         TRA     1,1
                                      1593                 *******************************************************
                                      1594                 * IRR$MAP
                                      1595                 *******************************************************
                                      1596         ENTDEF  IRR$MAP
   002352                             1597  IRR$MAP NULL
   002352    000002 5324 00           1598         CAMP    2               CLEAR AM-JUST IN CASE
   002353    000001 7100 11           1599         TRA     1,1

 22:47 07/29/97  FILE=IRR$RECOVER.:E05TSI                                                                63   BMAP - B00
                                      1600         EJECT
                                      1601                 *******************************************************
                                      1602                 * IRR$BMAP_CLOCK
                                      1603                 *******************************************************
                                      1604         ENTDEF  IRR$BMAP_CLOCK
                                      1605         INHIB   ON
   002354                             1606  IRR$BMAP_CLOCK NULL
   002354  X 000000 4776 00           1607         LDP7    I$MONIS$
   002355    000040 4132 00           1608         RSCR    32
   002356  X 000000 2342 00           1609         SZN     S1000_FLG IF NOT S1000... (HW_NORM_CLOCK)
   002357    000000 6052 14           1610         TPL     0,4  ... JUST RETURN (VIA X4)
   002360    007777 3752 07           1611         ANA     =O7777,DL  STRIP DATE
   002361    7 X 00000 0373 00        1612         ADLAQ   IT_CLOFF,,7 AND ADD OFFSET (PR7=MONIS)
   002362    000000 7102 14           1613         TRA     0,4      RETURN VIA X4
                                      1614         INHIB   OFF

 22:47 07/29/97  FILE=IRR$RECOVER.:E05TSI                                                                64   BMAP - B00
                                      1615         EJECT
                                      1616                 *******************************************************
                                      1617                 * 6INIT
                                      1618                 *******************************************************
   002363                             1619  6INIT  NULL
   002363    000000 6270 11           1620         EAX7    0,1             SAVE RETURN
   002364 (2)003574 2370 00           1621         LDAQ    AUTODESC
   002365  X 000000 7570 00           1622         STAQ    RAUTO
   002366 (2)003576 6304 00           1623         EPPR0   AUTO_PARAMS
   002367 (1)000000 6314 00           1624         EPPR1   =V18/3,18/0
   002370  X 000000 7010 00           1625         TSX1    X66_MSTATIC
   002371    000000 0110 00           1626         NOP
   002372 (2)003602 4724 00           1627         LDP2    AUTO_PTR
   002373    000000 7100 17           1628         TRA     0,7

 22:47 07/29/97  FILE=IRR$RECOVER.:E05TSI                                                                65   BMAP - B00
                                      1629         EJECT
                                      1630                 *******************************************************
                                      1631                 * DCWS USED BY IRR$RECOVER
                                      1632                 *******************************************************
   002374  X 000000 00 2000           1633  SADDCW IOTD    POBUF,1024      TO READ SYSTEM AREA DIRECTORY
   002375  X 000000 00 2000           1634  WBUFDCW IOTD   RV_BUFF,1024    TO WRITE THE RECOVERY BUFFER
   002376  X 000000 00 2000           1635  WPGDCW IOTD    POBUF,1024      TO WRITE FULL PAGE TO DUMP AREA
   002377  X 000000 00 2000           1636  WUDIRDCW IOTD  RV_USRDIR,1024  TO WRITE THE USER DUMP DIRECTORY
                                      1637                 *******************************************************
                                      1638                 * IRR$RECOVER ERROR MESSAGES
                                      1639                 *******************************************************
                                      1640  *
   002400 (2)002401 0004 00           1641         TALLY   *+1,4
   002401    122103126122             1642  NOTUPM UASCI   4,RCVR-CP6 NOT UP
   002402    055103120066
   002403    040116117124
   002404    040125120040
   002405 (2)002406 0006 00           1643         TALLY   *+1,6
   002406    122103126122             1644  NORCVRM UASCI  6,RCVR-RECOVERY IMPOSSIBLE
   002407    055122105103
   002410    117126105122
   002411    131040111115
   002412    120117123123
   002413    111102114105
   002414 (2)002415 0007 00           1645         TALLY   *+1,7
   002415    122103126122             1646  DATAM  UASCI   7,RCVR-MON PAGE 0 CLOBBERED
   002416    055115117116
   002417    040120101107
   002420    105040060040
   002421    103114117102
   002422    102105122105
   002423    104040040040
   002424 (2)002425 0011 00           1647         TALLY   *+1,9
   002425    122103126122             1648  TRAPMAPM UASCI 9,RCVR-TRAP ACCESSING MAPPED MONITOR
   002426    055124122101
   002427    120040101103
   002430    103105123123
 22:47 07/29/97  FILE=IRR$RECOVER.:E05TSI                                                                66   BMAP - B00
   002431    111116107040
   002432    115101120120
   002433    105104040115
   002434    117116111124
   002435    117122040040
   002436 (2)002437 0006 00           1649         TALLY   *+1,6
   002437    122103126122             1650  RSADEM UASCI   6,RCVR-ERROR READING SAD
   002440    055105122122
   002441    117122040122
   002442    105101104111
   002443    116107040123
   002444    101104040040
   002445 (2)002446 0007 00           1651         TALLY   *+1,7
   002446    122103126122             1652  WBUFEM UASCI   7,RCVR-ERR WRITING RCVR BUFFER
   002447    055105122122
   002450    040127122111
   002451    124111116107
   002452    040122103126
   002453    122040102125
   002454    106106105122
   002455 (2)002456 0010 00           1653         TALLY   *+1,8
   002456    122103126122             1654  SSFM   UASCI   8,RCVR-SAFE STORE FAULT IN RECOVERY
   002457    055123101106
   002460    105040123124
   002461    117122105040
   002462    106101125114
   002463    124040111116
   002464    040122105103
   002465    117126105122
   002466 (2)002467 0010 00           1655         TALLY   *+1,8
   002467    122103126122             1656  TRAPP1M UASCI   8,RCVR-TRAP ACCESSING MONITOR DATA
   002470    055124122101
   002471    120040101103
   002472    103105123123
   002473    111116107040
   002474    115117116111
   002475    124117122040
 22:47 07/29/97  FILE=IRR$RECOVER.:E05TSI                                                                67   BMAP - B00
   002476    104101124101
   002477 (2)002500 0007 00           1657         TALLY   *+1,7
   002500    122103126122             1658  WDERRM UASCI   7,RCVR-ERROR WRITING DUMP FILE
   002501    055105122122
   002502    117122040127
   002503    122111124111
   002504    116107040104
   002505    125115120040
   002506    106111114105
   002507 (2)002510 0006 00           1659         TALLY   *+1,6
   002510    122103126122             1660  NDERRM UASCI   6,RCVR-DUMP AREA EXCEEDED
   002511    055104125115
   002512    120040101122
   002513    105101040105
   002514    130103105105
   002515    104105104040
   002516 (2)002517 0011 00           1661         TALLY   *+1,9
   002517    122103126122             1662  WDIREM UASCI   9,RCVR-ERROR WRITING USER DIRECTORY
   002520    055105122122
   002521    117122040127
   002522    122111124111
   002523    116107040125
   002524    123105122040
   002525    104111122105
   002526    103124117122
   002527    131040040040
   002530 (2)002531 0006 00           1663         TALLY   *+1,6
   002531    122103126122             1664  IOTRAPEM UASCI 6,RCVR-TRAP IN IRN$RCVRIO
   002532    055124122101
   002533    120040111116
   002534    040111122116
   002535    044122103126
   002536    122111117040
   002537 (2)002540 0010 00           1665         TALLY   *+1,8
   002540    122103126122             1666  INITRAPM UASCI 8,RCVR-TRAP IN RCVR INITIALIZATION
   002541    055124122101
   002542    120040111116
 22:47 07/29/97  FILE=IRR$RECOVER.:E05TSI                                                                68   BMAP - B00
   002543    040122103126
   002544    122040111116
   002545    111124111101
   002546    114111132101
   002547    124111117116

 22:47 07/29/97  FILE=IRR$RECOVER.:E05TSI                                                                69   BMAP - B00
                                      1667         EJECT
                                      1668         EVEN
                                      1669  *                              FIRST PART OF THE RECOVERY BUFFER
             000000000000             1670  B.BUSY EQU     0
             000000000001             1671  B.SCOUNT EQU   B.BUSY+1
             000000000002             1672  B.SIZE EQU     B.SCOUNT+1
             000000000003             1673  B.TRAPS EQU    B.SIZE+1
             000000000004             1674  B.UTS1 EQU     B.TRAPS+1
             000000000005             1675  B.UTS2 EQU     B.UTS1+1
             000000000006             1676  B.UTS3 EQU     B.UTS2+1
             000000000007             1677  B.UTS4 EQU     B.UTS3+1
             000000000010             1678  B.SCODE EQU    B.UTS4+1
             000000000012             1679  B.SNAPU EQU    B.SCODE+2
             000000000014             1680  B.RCODE EQU    B.SCODE+4
             000000000020             1681  B.SSR  EQU     B.RCODE+4
             000000000022             1682  B.PSR  EQU     B.SSR+2
             000000000024             1683  B.ASR  EQU     B.PSR+2
             000000000026             1684  B.FLTLOC EQU   B.ASR+2
             000000000030             1685  B.AFLTLOC EQU  B.FLTLOC+2
             000000000032             1686  B.INTLOC EQU   B.AFLTLOC+2
             000000000034             1687  B.IMASK EQU    B.INTLOC+2
             000000000036             1688  B.WSR0 EQU     B.IMASK+2
             000000000037             1689  B.WSR4 EQU     B.WSR0+1
             000000000040             1690  B.SSF  EQU     B.WSR4+1
             000000000140             1691  B.CUN  EQU     B.SSF+64
             000000000141             1692  B.CUN$ EQU     B.CUN+1
             000000000142             1693  B.SPNO EQU     B.CUN$+1
             000000000143             1694  B.MXCG EQU     B.SPNO+1
             000000000144             1695  B.SCUN EQU     B.MXCG+1
             000000000154             1696  B.USRT$ EQU    B.SCUN+8
             000000000155             1697  B.B$P$ EQU     B.USRT$+1
             000000000156             1698  B.DL$  EQU     B.B$P$+1
             000000000157             1699  B.NPROCS EQU   B.DL$+1
             000000000160             1700  B.MXPRS EQU    B.NPROCS+1
             000000000161             1701  B.MUAIS EQU    B.MXPRS+1
             000000000162             1702  B.PDBR EQU B.MUAIS+1
             000000000164             1703  B.CUTBL EQU B.PDBR+2
 22:47 07/29/97  FILE=IRR$RECOVER.:E05TSI                                                                70   BMAP - B00
             000000000204             1704  B.FEP  EQU     B.CUTBL+16
             000000000224             1705  B.MPSTATE EQU  B.FEP+16
             000000000234             1706  B.PORTNR EQU   B.MPSTATE+8
             000000000244             1707  B.SYSID EQU    B.PORTNR+8
             000000000245             1708  B.STRFILID EQU B.SYSID+1
             000000000250             1709  B.TUIS EQU     B.STRFILID+3
             000000000251             1710  B.CTUIS EQU    B.TUIS+1
             000000000252             1711  B.NODE  EQU    B.CTUIS+1
             000000000253             1712  B.MUIS  EQU    B.CTUIS+2
             000000000260             1713  B.ELBUSY EQU   B.MUIS+5
             000000000261             1714  B.ELNPGS EQU   B.ELBUSY+1
             000000000262             1715  B.ELFBUF EQU   B.ELNPGS+1
             000000000263             1716  B.ELMXPG EQU   B.ELFBUF+1
             000000000264             1717  B.ELFRBF EQU   B.ELMXPG+1
             000000000265             1718  B.ELCRBF EQU   B.ELFRBF+1
             000000000266             1719  B.ELERRC EQU   B.ELCRBF+1
             000000000270             1720  B.AMID EQU     B.ELERRC+2
             000000000271             1721  B.DMID EQU     B.AMID+1
             000000000272             1722  B.INSTID EQU   B.DMID+1
             000000000273             1723  B.IDCT EQU     B.INSTID+1
             000000000274             1724  B.MPLL EQU     B.IDCT+1
             000000000275             1725  B.DINDX EQU B.MPLL+1
             000000000276             1726  B.NXTGRAN EQU B.DINDX+1
             000000000277             1727  B.MXGRAN  EQU  B.NXTGRAN+1
             000000000300             1728  B.TPID EQU     B.MXGRAN+1
             000000000310             1729  B.USRDR EQU    B.TPID+8
             000000000312             1730  B.JITS  EQU    B.USRDR+2
             000000000314             1731  B.ERRLG EQU    B.JITS+2
             000000000316             1732  B.MONWS EQU    B.ERRLG+2
             000000000320             1733  B.LRMEM EQU    B.MONWS+2
             000000000322             1734  B.MJITS EQU    B.LRMEM+2
             000000000342             1735  B.MPROC EQU    B.MJITS+16
             000000000344             1736  B.CWSPT EQU    B.MPROC+2
             000000000444             1737  B.CGWSPT EQU   B.CWSPT+64
             000000000470             1738  B.CURCG EQU    B.CGWSPT+20
             000000000473             1739  B.PART EQU     B.CURCG+3
             000000000613             1740  B.CT8000 EQU   B.PART+80
 22:47 07/29/97  FILE=IRR$RECOVER.:E05TSI                                                                71   BMAP - B00
             000000000617             1741  B.HEADER EQU   B.CT8000+4
             000000001700             1742  B.RCVSSF EQU  B.BUSY+1024-64
             000000002000             1743  B.BSIZE  EQU   B.RCVSSF+64

 22:47 07/29/97  FILE=IRR$RECOVER.:E05TSI                                                                72   BMAP - B00
                                      1744         EJECT
                                      1745         EVEN
   002550    000000015350             1746  IR_MS_COOKIE OCT 15350,525441720000
   002551    525441720000
   002552    540546215000             1747  IR_UTS_COOKIE OCT 540546215000
   002553    000000000000             1748  RVB.X0 OCT     0
                                      1749         EVEN
   002554    000000000000             1750  RVB.IMASK OCT  0,0
   002555    000000000000
   002556    000000000000             1751  RVB.UTS1 OCT   0
   002557    400000000000             1752  TRAPBIT OCT    400000000000
                                      1753        EVEN
                                      1754         SYMDEF  TRAPSS
   002560    000000000000             1755  TRAPSS OCT     0,0
   002561    000000000000
                                      1756         SYMDEF  TRAPIC
   002562    000000000000             1757  TRAPIC OCT     0
   002563    000000000000             1758  USRDIRFLG OCT  0
   002564    000000000000             1759  MSKDFEP OCT    0
   002565    000000000000             1760  RVIALT  OCT    0
   002566    000000000000             1761  TEMP    OCT    0
   002567    000000000000             1762  SADTEMP OCT    0
                                      1763  *              TO SET TRAP BITS IN RCVR BUFFER
   002570    000000000020             1764  NIOTRAP OCT    20
   002571    000000000010             1765  MONDTRAP OCT   10
   002572    000000000002             1766  MJITBAD  OCT   02
   002573    000000000001             1767  MPG0BAD  OCT   01

 22:47 07/29/97  FILE=IRR$RECOVER.:E05TSI                                                                73   BMAP - B00
                                      1768         EJECT
                                      1769  *
                                      1770  * AUTO FOR PL6 ROUTINES
                                      1771         EVEN
                                      1772         SYMDEF  PL6AUTO
   002574                             1773  PL6AUTO NULL
   002574                             1774         BSS     512
             000000001000             1775  AUTOSZ EQU *-PL6AUTO
                                      1776         EVEN
   003574                             1777  AUTODESC NULL
   003574    0003777 603 2 00         1778         VFD     20/AUTOSZ*4-1,O9/R+W,3/WSRX,4/0
   003575 (2)000000002574 0           1779         VFD     34/PL6AUTO,2/0
                                      1780  *
   003576                             1781  AUTO_PARAMS NULL
   003576  X 000000 0 00 X 0000       1782         PTR     S.AIS,I$AUTO$
   003577 (2)003601 0 00 X 0000       1783         PTR     S.AIS,AUTO_SIZE
   003600 (2)003602 0 00 X 0000       1784         PTR     S.AIS,AUTO_PTR
                                      1785  *
   003601    000000 001000            1786  AUTO_SIZE ZERO 0,AUTOSZ
   003602    000000000000             1787  AUTO_PTR  OCT  0
                                      1788  *
                                      1789         END
 1 000000    000003000000

  CONTROL SECTION TABLE

   0 CODE   EVEN  000040
   1 RODATA EVEN  000001 LITERALS
   2 CODE   EVEN  003603 IRR$RECOVER

 22:47 07/29/97  FILE=IRR$RECOVER.:E05TSI     SYMBOL TABLE                                               74   BMAP - B00
 01101002 000000002363 6INIT          312       663       719     *1619
 03301120 000000000000 AAFLTD        *166       283      1064      1103
 41000000 000000020000 AARD          *189       190       191
 61000000 000000000000 AARDVARK        *7       353       626       638       698       705       824
                                      980      1049      1087      1105      1267      1284      1387
                                     1528
 01101002 000000000642 ADD_MORE      *692       695
 41000000 000000000040 AFLTLC        *127       281       285      1019
 01101000 000000000006 ALST1         *207       353       626       638       698       705       824
                                      980      1049      1087      1105      1267      1284      1387
                                     1528
 01101002 000000001621 ARGS           670       671       673       674       675       676       677
                                      895       902       912       919       962       963       965
                                      966       967       968       969      1145      1146      1147
                                     1148     *1223      1224      1225      1226      1227      1228
                                     1246      1247      1249      1250      1251      1252      1253
                                     1312      1313      1315      1316      1317      1318      1319
                                     1352      1353      1355      1356      1357      1358      1359
                                     1442      1443      1445      1448      1449      1450      1451
                                     1452      1501      1502      1504      1505      1506      1507
                                     1508      1573      1574      1576      1579      1580      1581
                                     1582      1583
 03301096 000000000000 ASDESC        *134       297
 40000000 000000001766 ASR           *200
 01101002 000000003574 AUTODESC      1621     *1777
 41000000 000000001000 AUTOSZ       *1775      1778      1786
 01101002 000000003576 AUTO_PARAMS   1623     *1781
 01101002 000000003602 AUTO_PTR      1627      1784     *1787
 01101002 000000003601 AUTO_SIZE     1783     *1786
 03301000 000000000000 B$P$           *15       368
 03301013 000000000000 B$USRT$        *28       409
 41000000 000000000030 B.AFLTLOC      282      1018     *1685      1686
 41000000 000000000270 B.AMID       *1720      1721
 41000000 000000000024 B.ASR          295      1014     *1683      1684
 41000000 000000000155 B.B$P$         369     *1697      1698
 40000000 000000002000 B.BSIZE      *1743
 41000000 000000000000 B.BUSY        1283     *1670      1671      1742
 22:47 07/29/97  FILE=IRR$RECOVER.:E05TSI     SYMBOL TABLE                                               75   BMAP - B00
 41000000 000000000444 B.CGWSPT     *1737      1738
 41000000 000000000613 B.CT8000       532     *1740      1741
 41000000 000000000251 B.CTUIS        379     *1710      1711      1712
 41000000 000000000140 B.CUN          388       617     *1691      1692
 41000000 000000000141 B.CUN$         404       620     *1692      1693
 41000000 000000000470 B.CURCG      *1738      1739
 41000000 000000000164 B.CUTBL      *1703      1704
 41000000 000000000344 B.CWSPT      *1736      1737
 41000000 000000000275 B.DINDX      *1725      1726
 41000000 000000000156 B.DL$          373     *1698      1699
 41000000 000000000271 B.DMID       *1721      1722
 41000000 000000000260 B.ELBUSY       550     *1713      1714
 41000000 000000000265 B.ELCRBF       560     *1718      1719
 41000000 000000000266 B.ELERRC       562     *1719      1720
 41000000 000000000262 B.ELFBUF       554     *1715      1716
 41000000 000000000264 B.ELFRBF       558     *1717      1718
 41000000 000000000263 B.ELMXPG       556     *1716      1717
 41000000 000000000261 B.ELNPGS       552     *1714      1715
 41000000 000000000314 B.ERRLG      *1731      1732
 41000000 000000000204 B.FEP        *1704      1705
 41000000 000000000026 B.FLTLOC       280      1016     *1684      1685
 41000000 000000000617 B.HEADER       386     *1741
 41000000 000000000273 B.IDCT        1004     *1723      1724
 41000000 000000000034 B.IMASK        331      1023     *1687      1688
 41000000 000000000272 B.INSTID     *1722      1723
 41000000 000000000032 B.INTLOC       288      1020     *1686      1687
 41000000 000000000312 B.JITS       *1730      1731
 41000000 000000000320 B.LRMEM      *1733      1734
 41000000 000000000322 B.MJITS      *1734      1735
 41000000 000000000316 B.MONWS      *1732      1733
 41000000 000000000274 B.MPLL       *1724      1725
 41000000 000000000342 B.MPROC      *1735      1736
 41000000 000000000224 B.MPSTATE      505     *1705      1706
 41000000 000000000161 B.MUAIS        381     *1701      1702
 41000000 000000000253 B.MUIS         538     *1712      1713
 41000000 000000000143 B.MXCG         371     *1694      1695
 41000000 000000000277 B.MXGRAN     *1727      1728
 22:47 07/29/97  FILE=IRR$RECOVER.:E05TSI     SYMBOL TABLE                                               76   BMAP - B00
 41000000 000000000160 B.MXPRS        377     *1700      1701
 41000000 000000000252 B.NODE         622     *1711
 41000000 000000000157 B.NPROCS       375     *1699      1700
 41000000 000000000276 B.NXTGRAN      926     *1726      1727
 41000000 000000000473 B.PART         524     *1739      1740
 41000000 000000000162 B.PDBR         306      1002     *1702      1703
 41000000 000000000234 B.PORTNR       509     *1706      1707
 41000000 000000000022 B.PSR          296      1015     *1682      1683
 41000000 000000000014 B.RCODE        343       352       649       651       735       767       799
                                      809       853       871      1009     *1680      1681
 41000000 000000001700 B.RCVSSF      1073     *1742      1743
 41000000 000000000010 B.SCODE        340       736       783       993     *1678      1679      1680
 41000000 000000000001 B.SCOUNT     *1671      1672
 41000000 000000000144 B.SCUN         507     *1695      1696
 41000000 000000000002 B.SIZE         758       955     *1672      1673
 41000000 000000000012 B.SNAPU        366     *1679
 41000000 000000000142 B.SPNO         487       614     *1693      1694
 41000000 000000000040 B.SSF          399     *1690      1691
 41000000 000000000020 B.SSR          292       391      1022     *1681      1682
 41000000 000000000245 B.STRFILID     547     *1708      1709
 41000000 000000000244 B.SYSID        544     *1707      1708
 41000000 000000000300 B.TPID       *1728      1729
 41000000 000000000003 B.TRAPS        632       634       645       647       829       831      1011
                                     1092      1094     *1673      1674
 41000000 000000000250 B.TUIS         517     *1709      1710
 41000000 000000000310 B.USRDR       1370      1372     *1729      1730
 41000000 000000000154 B.USRT$        410     *1696      1697
 41000000 000000000004 B.UTS1         333     *1674      1675
 41000000 000000000005 B.UTS2         947     *1675      1676
 41000000 000000000006 B.UTS3       *1676      1677
 41000000 000000000007 B.UTS4       *1677      1678
 41000000 000000000036 B.WSR0         300     *1688      1689
 41000000 000000000037 B.WSR4         301     *1689      1690
 01101002 000000000513 BADDATA        600       604       608       611      *625
 01101002 000000000725 BYPASS.DUMP    699      *711
 03301014 000000000000 B_MUAIS        *29       380
 03301001 000000000000 B_VERSION      *16       724
 22:47 07/29/97  FILE=IRR$RECOVER.:E05TSI     SYMBOL TABLE                                               77   BMAP - B00
 01101002 000000002232 CHECKGRAN      961      1245      1351      1500     *1522
 01101002 000000001030 CHECK_SEV7     714       755      *808
 01101002 000000001157 CHECK_SIDE0    891      *908
 01101002 000000000167 CP6UP          350      *364
 01101002 000000000373 CT8000        *531       534
 01101002 000000001073 CYCCLS         812       821      *836
 01101002 000000002415 DATAM          626     *1646
 03301098 000000000000 DESCRV1       *136       392       395       424       610
 03301099 000000000000 DESCRV2       *137       431
 03301100 000000000000 DESCRV3       *138       439
 03301101 000000000000 DESCRV4       *139       445       839
 03301102 000000000000 DESCRV5       *140       453
 01101002 000000001633 DESCS          680       681       888       897       904       914       921
                                      972       973      1144      1151     *1229      1256      1257
                                     1322      1323      1362      1363      1455      1456      1511
                                     1512      1586      1587
 03301103 000000000000 DESCTEMP      *141       572
 03301123 000000000000 DEVINFO       *169      1436      1497
 01101002 000000002054 DIRMSG        1377      1380     *1386
 01101002 000000001016 DLRM           788      *792
 01101000 000000000005 DLST1         *207       353       626       638       698       705       824
                                      980      1049      1087      1105      1267      1284      1387
                                     1528
 03201001 000000000000 DO_CPU_SWITCH  *68       898       905       915       922
 00101002 000000000324 DO_RCVR       *484
 01101002 000000001034 DO_ZAP         786      *816
 01101002 000000001004 DUMPEL         774      *780
 01101002 000000000776 DUMPJITS       770      *773
 00101002 000000001026 DUMPMP        *801
 01101002 000000001012 DUMPREST       772       778      *787
 03301005 000000000000 EL_BUSY        *20       549
 03301010 000000000000 EL_CURBUF      *25       559
 03301011 000000000000 EL_ERRCT       *26       561
 03301009 000000000000 EL_FIRSTBUF    *24       557
 03301007 000000000000 EL_FULLBUFS    *22       553
 03301008 000000000000 EL_MAXPGS      *23       555
 03301006 000000000000 EL_NUMPGS      *21       551
 22:47 07/29/97  FILE=IRR$RECOVER.:E05TSI     SYMBOL TABLE                                               78   BMAP - B00
 01101002 000000001351 EXIT.1        1030     *1033
 01101002 000000002170 FAKE$X5       1463      1467      1471      1475     *1479
 41000000 000000000016 FCNPER        *157      1473
 41000000 000000000000 FCNRDB        *153       667      1309      1483
 41000000 000000000014 FCNSRB        *160      1469
 41000000 000000000011 FCNUNL        *155      1477
 41000000 000000000001 FCNWDB        *154       956      1243      1350      1486
 41000000 000000000005 FCNWFM        *156      1465
 41000000 000000000003 FCNWT9        *159      1428
 41000000 000000000001 FCNWTB        *158      1425
 01101002 000000001111 FINISH_UP      840       848       856      *862
 41000000 000000000032 FLTLOC        *211       279       284       324      1017      1065      1066
                                     1104
 01101002 000000002106 FLUSH        *1403      1405
 00101002 000000000770 GETDUMP       *766
 01101002 000000001421 GETMINI        959      1054      1059     *1063      1095      1109
 01101002 000000000600 GETSLAVES      635      *648
 41000000 000000020003 GOLOOP        *191      1110
 01101002 000000000730 GOTSAD         684      *718
 07101002 000000002277 GRAN0IC       1525      1527      1534     *1535
 01101002 000000002270 GRAN0MSG      1528     *1533
 03301017 000000000000 H_DPS8000_CI_TABLE       *32       531
 03301002 000000000000 H_DPS8000_SCU_INFO       *17       881
 03301104 000000000000 I$AUTO$       *142       317      1782
 03301105 000000000000 I$MEM$        *143       596      1201
 03301106 000000000000 I$MONIS$      *144       231       240       338       348       367       472
                                      521       875       997      1120      1607
 03301107 000000000000 I$MONLS$      *145       420       568      1026
 03301108 000000000000 I$RV1$        *146       393       406       412       417      1124      1131
 03301109 000000000000 I$RV2$        *147       432
 03301110 000000000000 I$RV3$        *148       440
 03301111 000000000000 I$RV4$        *149       447
 03301112 000000000000 I$RV5$        *150       454
 03301113 000000000000 I$TEMP$       *151       576
 01101002 000000000676 INITRAP        661      *704
 01101002 000000002540 INITRAPM       705     *1666
 03201016 000000000000 INIT_FEP      *173      1154
 22:47 07/29/97  FILE=IRR$RECOVER.:E05TSI     SYMBOL TABLE                                               79   BMAP - B00
 41000000 000000000030 INTLOC        *212       287       290      1021
 03301117 000000000000 IODESC        *163       289
 01101002 000000002531 IOTRAPEM       824     *1664
 03301030 000000000000 IPHYPG         *45       583
 03201011 000000000000 IRD$CLOSE      *78       842
 03201010 000000000000 IRD$DHJITS     *77       795
 03201006 000000000000 IRD$DJITS      *73       776
 03201009 000000000000 IRD$DLRMEM     *76       793
 03201013 000000000000 IRD$DUMPMON    *83       790
 03201005 000000000000 IRD$DUMPMP     *72       802
 03201008 000000000000 IRD$DUSERS     *75       797
 03201007 000000000000 IRD$ERRLOG     *74       781
 03201012 000000000000 IRI$INIT       *79       733
 03301042 000000000000 IRM_ASCOUNT    *57      1005
 03301043 000000000000 IRM_DINDEX     *58      1007
 03301044 000000000000 IRM_RTRAPS     *59      1012
 03201003 000000000000 IRN$PART       *70       519
 03201002 000000000000 IRN$RCVRIO     *69       819
 03201004 000000000000 IRN$RCVR_MTUNLOAD        *71       857
 13101002 000000002354 IRR$BMAP_CLOCK           250       930      1604     *1606
 12101002 000000002104 IRR$FLUSHIQ     10     *1400
 13101002 000000001476 IRR$GIVEUP      11       357     *1102
 12101002 000000002352 IRR$MAP       1596     *1597
 01101002 000000001531 IRR$MSKFEPS    480       741     *1119
 12101002 000000000005 IRR$OPRCVR       9      *239
 12101002 000000002163 IRR$PERMIT    1419     *1473
 12101002 000000001763 IRR$READBUF   1304     *1306
 12101002 000000000000 IRR$RECOVER      8      *229
 12101002 000000002172 IRR$RPAGE     1417     *1483
 12101002 000000002160 IRR$SPRECB    1423     *1469
 12101002 000000002152 IRR$TAPE      1415     *1461
 12101002 000000002320 IRR$TYPE      1539     *1565
 01101002 000000002324 IRR$TYPE1     1559     *1570
 12101002 000000002302 IRR$TYPE6     1541     *1547
 12101002 000000002300 IRR$TYPE6M    1542     *1544
 12101002 000000002316 IRR$TYPEM     1540     *1562
 12101002 000000002166 IRR$UNLOAD    1416     *1477
 22:47 07/29/97  FILE=IRR$RECOVER.:E05TSI     SYMBOL TABLE                                               80   BMAP - B00
 12101002 000000001607 IRR$WDUMP     1195     *1196
 12101002 000000002174 IRR$WPAGE     1418     *1486
 13101002 000000001636 IRR$WPOBUFF   1206      1221     *1232
 12101002 000000002113 IRR$WRASC     1422     *1428
 12101002 000000002111 IRR$WRBIN     1421     *1425
 12101002 000000002155 IRR$WRFM      1420     *1465
 13101002 000000002007 IRR$WUSRDR     756      1341     *1342
 12101002 000000001605 IRR$WWSQD     1177     *1178
 07101002 000000002550 IR_MS_COOKIE    62       251       253       931       933     *1746
 07101002 000000002552 IR_UTS_COOKIE   63       259       939     *1747
 41000000 000000001762 ISR           *197       335
 41000000 000000006000 ISSID        *1222      1224      1225      1226      1227      1228
 03301004 000000000000 IS_MEM_SIDE1   *19       876       890
 03301046 000000000000 IT_CLOFF       *61      1612
 03301018 000000000000 IT_CP6UP       *33       349
 03301019 000000000000 IT_PARTITION   *34       523
 03301020 000000000000 IT_SCPUJIT     *35       497
 03301039 000000000000 KI_FEI$$       *54      1122
 03301040 000000000000 KI_MXFE        *55      1161
 03301015 000000000000 K_HEADER       *30       385
 01101002 000000000603 LOADPDBR       623      *653
 41000000 000000000155 LS.AARDV      *222
 41000000 000000000156 LS.AARDV2     *222
 41000000 000000000033 LS.ASLLS      *222
 41000000 000000000053 LS.ASR        *222
 41000000 000000000002 LS.BUF        *222       443       444
 41000000 000000000161 LS.BUFCACH    *222
 41000000 000000000004 LS.CFU        *222       429       430
 41000000 000000000164 LS.CGCTXT     *222       463       464
 41000000 000000000163 LS.CGPT       *222       459       460
 41000000 000000000075 LS.CPGT1      *222
 41000000 000000000034 LS.CPLS       *222
 41000000 000000000055 LS.CWSQ1      *222
 41000000 000000000032 LS.DBLS       *222
 41000000 000000000004 LS.DS1        *222
 41000000 000000000005 LS.DS2        *222
 41000000 000000000006 LS.DS3        *222
 22:47 07/29/97  FILE=IRR$RECOVER.:E05TSI     SYMBOL TABLE                                               81   BMAP - B00
 41000000 000000000007 LS.DS4        *222
 41000000 000000000010 LS.DS5        *222
 41000000 000000000011 LS.DS6        *222
 41000000 000000000012 LS.DS7        *222
 41000000 000000000013 LS.DS8        *222
 41000000 000000000202 LS.DVT        *222       451       452
 41000000 000000000016 LS.ECCB       *222
 41000000 000000000157 LS.FIRM       *222
 40000000 000000000155 LS.FLT        *222
 41000000 000000000045 LS.HJITU      *222
 41000000 000000000162 LS.IMX        *222
 41000000 000000000122 LS.IOEND      *222
 41000000 000000000176 LS.IPHY_MAP   *222
 41000000 000000000000 LS.IS         *222
 41000000 000000000050 LS.ISB        *222
 41000000 000000000115 LS.JITPG      *222
 41000000 000000000001 LS.JITU       *222
 40000000 000000000013 LS.LDCT       *222
 41000000 000000000134 LS.LDCTNC     *222
 41000000 000000000121 LS.LOWMEM     *222
 41000000 000000000167 LS.MAGAS      *222
 41000000 000000000172 LS.MAGECCB    *222
 41000000 000000000166 LS.MAGLS      *222
 41000000 000000000170 LS.MAGPS      *222
 41000000 000000000165 LS.MAGSS      *222
 41000000 000000000171 LS.MAGTCB     *222
 41000000 000000000043 LS.MHJIT      *222
 41000000 000000000177 LS.MINIQ_ENT  *222
 41000000 000000000054 LS.MISC       *222
 41000000 000000000130 LS.MISC2      *222
 41000000 000000000042 LS.MJIT       *222
 41000000 000000000035 LS.MLS        *222
 41000000 000000000132 LS.MLS1       *222
 41000000 000000000173 LS.MLSREAD    *222
 40000000 000000000156 LS.MONRL      *222
 41000000 000000000044 LS.MONSSS     *222
 41000000 000000000120 LS.MOUSE      *222
 22:47 07/29/97  FILE=IRR$RECOVER.:E05TSI     SYMBOL TABLE                                               82   BMAP - B00
 41000000 000000000037 LS.MPT        *222       570       571
 41000000 000000000145 LS.MSTRHJ     *222
 41000000 000000000135 LS.MSTRPT     *222
 41000000 000000000041 LS.MTSTACK    *222
 41000000 000000000014 LS.NULL       *222
 41000000 000000000027 LS.PMME       *222
 41000000 000000000116 LS.PPUT       *222
 41000000 000000000131 LS.RCVENT     *222
 41000000 000000000127 LS.RCVRTN     *222      1027
 41000000 000000000021 LS.REAL       *222
 41000000 000000000030 LS.REG        *222
 41000000 000000000124 LS.RONC       *222
 41000000 000000000003 LS.ROSEG      *222       437       438
 41000000 000000000125 LS.ROSEG8     *222
 41000000 000000000046 LS.SBUF1      *222
 41000000 000000000047 LS.SBUF2      *222
 41000000 000000000025 LS.SCR        *222
 41000000 000000000051 LS.SCU        *222
 41000000 000000000174 LS.SEGTBL     *222
 41000000 000000000146 LS.SLV1HJ     *222
 41000000 000000000136 LS.SLV1PT     *222
 41000000 000000000147 LS.SLV2HJ     *222
 41000000 000000000137 LS.SLV2PT     *222
 41000000 000000000150 LS.SLV3HJ     *222
 41000000 000000000140 LS.SLV3PT     *222
 41000000 000000000151 LS.SLV4HJ     *222
 41000000 000000000141 LS.SLV4PT     *222
 41000000 000000000152 LS.SLV5HJ     *222
 41000000 000000000142 LS.SLV5PT     *222
 41000000 000000000153 LS.SLV6HJ     *222
 41000000 000000000143 LS.SLV6PT     *222
 41000000 000000000154 LS.SLV7HJ     *222
 41000000 000000000144 LS.SLV7PT     *222
 41000000 000000000017 LS.TCB        *222
 41000000 000000000123 LS.TIGR       *222       422       423
 41000000 000000000020 LS.TSTACK     *222
 41000000 000000000031 LS.ULS        *222
 22:47 07/29/97  FILE=IRR$RECOVER.:E05TSI     SYMBOL TABLE                                               83   BMAP - B00
 41000000 000000000036 LS.UPT        *222
 41000000 000000000023 LS.USDS0      *222
 41000000 000000000024 LS.USDS1      *222
 41000000 000000000040 LS.USRIS      *222
 41000000 000000000022 LS.USSS       *222
 41000000 000000000117 LS.VPT        *222
 41000000 000000000052 LS.WINDOW     *222
 41000000 000000000133 LS.WS3MLS     *222
 41000000 000000000160 LS.WS3MLSNW   *222
 41000000 000000000175 LS.WSQ0PT     *222
 41000000 000000000026 LS.XD         *222
 41000000 000000000126 LS.XDRTN      *222
 41000000 000000000201 LS.XLALT      *222
 41000000 000000000015 LS.XLAT       *222
 41000000 000000000200 LS.XLNORM     *222
 40000000 000000001765 LSR           *199
 01101002 000000000546 MAP.TRAP       566      *637
 01101002 000000000321 MASKIT         476      *479
 03301090 000000000000 MEMDESC       *128       594      1200
 02301091 000000000000 MINID         *129
 03201015 000000000000 MINIQC_PL6    *172       682       974      1258      1324      1364      1513
 03201014 000000000000 MINIQ_PL6     *171      1457      1588
 00101002 000000002572 MJITBAD      *1766
 03301041 000000000000 MM_CGQCXT_END  *56       370
 01101002 000000002571 MONDTRAP       646      1093     *1765
 41000000 000000000001 MONWSQ        *209       491       999
 01101002 000000002573 MPG0BAD        633     *1767
 01101002 000000000344 MPSTATE       *504       512
 01101002 000000002564 MSKDFEP        241       482       738       740     *1759
 01101002 000000001533 MSKFPS       *1122      1162
 03301012 000000000000 N$DCT$$        *27       415
 01101002 000000002510 NDERRM        1284     *1660
 01101002 000000002570 NIOTRAP        830     *1764
 01101002 000000000757 NO.FEMSK       737       739      *743
 01101002 000000000104 NO.TRAPH       322      *325
 01101002 000000002406 NORCVRM       1105     *1644
 01101002 000000000456 NORM           580      *592
 22:47 07/29/97  FILE=IRR$RECOVER.:E05TSI     SYMBOL TABLE                                               84   BMAP - B00
 01101002 000000001725 NOROOM        1235     *1277
 01101002 000000001414 NOSSF         1047     *1056
 01101002 000000002401 NOTUPM         353     *1642
 01101002 000000001175 NO_SCU_REL     870       874       883       907      *924
 02301124 000000000000 NSPG          *170
 01101002 000000001577 NXTFP         1129      1136      1139     *1158
 01101002 000000000324 OPRCVR1        471       478      *483
 01101002 000000000364 PARTITION     *523       526
 07101002 000000002574 PL6AUTO       1772     *1773      1775      1779
 01101000 000000000000 PLST1         *207       353       626       638       698       705       824
                                      980      1049      1087      1105      1267      1284      1387
                                     1528
 03301092 000000000000 POBUF         *130       725      1205      1439      1633      1635
 03301122 000000000000 PO_INDX       *168      1430      1462      1466      1470      1474      1478
 03301115 000000000000 PPDBR         *161       654
 01101002 000000000031 PRE_COOKIE     252      *261
 01101002 000000001212 PRE_COOKIE1    932      *941
 03301097 000000000000 PSDESC        *135       298
 40000000 000000001767 PSR           *201
 01101002 000000001626 PTRS           678       896       903       913       920       970      1149
                                    *1224      1254      1320      1360      1453      1509      1584
 03301022 000000000000 P_MAXPROCS     *37       376
 03301021 000000000000 P_NPROCS       *36       374
 41000000 000000000403 R             *213      1778
 03301083 000000000000 R$BUFF$       *117       448
 03301084 000000000000 R$CFU$        *118       433
 03301081 000000000000 R$CU$         *115       407
 03301086 000000000000 R$DCT$$       *120       418
 03301085 000000000000 R$DVT$        *119       455
 03301082 000000000000 R$ROSEG$      *116       441
 03301080 000000000000 R$USRT$       *114       413
 03301093 000000000000 RAUTO         *131      1622
 01101002 000000001041 RCIOTRAP       817      *823
 01101002 000000001300 RCVEXIT        954       976      *988
 02301094 000000000000 RCV_FLG       *132
 01101002 000000000605 READSAD       *660       696       731
 03201018 000000000000 REBOOT        *175       235
 22:47 07/29/97  FILE=IRR$RECOVER.:E05TSI     SYMBOL TABLE                                               85   BMAP - B00
 03301045 000000000000 REC_DPX        *60      1488
 41000000 000000020002 RESTART       *190       358       992
 03301016 000000000000 RPM_FLG        *31       528       869      1401
 01101002 000000002437 RSADEM         698     *1650
 01101002 000000000635 RSADERR        683      *686       729
 01101002 000000002554 RVB.IMASK      246       330     *1750
 01101002 000000002556 RVB.UTS1       267       332     *1751
 01101002 000000002553 RVB.X0         242       334       469       990      1008     *1748
 01101002 000000002565 RVIALT         721       734       754     *1760
 03301050 000000000000 RV_ATTEMPTS    *84       354       355
 03301066 000000000000 RV_BAPAGE     *100      1199
 03301067 000000000000 RV_BUFF       *101       274       280       282       288       292       295
                                      296       300       301       306       331       333       340
                                      343       352       366       369       371       373       375
                                      377       379       381       386       388       391       399
                                      404       410       487       505       507       509       517
                                      524       532       538       544       547       550       552
                                      554       556       558       560       562       614       617
                                      620       622       632       634       645       647       649
                                      651       735       736       758       767       783       799
                                      809       829       831       853       871       926       947
                                      955       993      1002      1004      1009      1011      1014
                                     1015      1016      1018      1020      1022      1023      1073
                                     1092      1094      1283      1370      1372      1634
 03301052 000000000000 RV_BUFFGRAN    *86       958
 03301089 000000000000 RV_CGCTXT     *123       465
 03301088 000000000000 RV_CGPT       *122       461
 03301061 000000000000 RV_CPNO        *95       488       615
 03301060 000000000000 RV_CUN         *94       389       618
 03301075 000000000000 RV_DCTX       *109      1435      1496
 03301069 000000000000 RV_DEBUG      *103       321
 03301070 000000000000 RV_DEBUGM     *104       347       989      1545      1563
 03301054 000000000000 RV_DINDEXA     *88      1006
 03301073 000000000000 RV_ENTRY      *107      1074      1076
 03301077 000000000000 RV_FCN        *111      1461
 03301051 000000000000 RV_MAXGRAN     *85      1234      1379
 03301079 000000000000 RV_MONDSEG    *113       341
 22:47 07/29/97  FILE=IRR$RECOVER.:E05TSI     SYMBOL TABLE                                               86   BMAP - B00
 03301048 000000000000 RV_MONPT       *81       492       998
 03301074 000000000000 RV_MUAIS      *108       382       602
 03301055 000000000000 RV_NODUMPG     *89       712       953      1029      1343
 03301063 000000000000 RV_NSCPU       *97       494       598
 03301076 000000000000 RV_NSPG       *110      1489
 03301065 000000000000 RV_NXTGRAN     *99       925      1233      1236      1237      1378      1383
 03301053 000000000000 RV_OPASCODE    *87       336       470       991
 03301056 000000000000 RV_PDUMP       *90       713      1197      1239      1280      1282      1376
 03301059 000000000000 RV_SCODEA      *93       342       800
 03301062 000000000000 RV_SCPUJIT     *96       498
 03301078 000000000000 RV_SLAVES     *112       650
 03301057 000000000000 RV_T1          *91       960      1125      1126      1132      1133      1241
                                     1261      1272      1278      1307      1345      1440      1498
                                     1553      1554      1557      1568      1590
 03301058 000000000000 RV_T2          *92      1242      1262      1273      1279      1308      1346
                                     1441      1499      1552      1555      1556      1558      1569
                                     1591
 03301087 000000000000 RV_UBUFF      *121       446       837
 03301071 000000000000 RV_UNWIND1    *105       318       320       567       662       665       775
                                      779       789       818       841       849      1078      1079
                                     1082
 03301072 000000000000 RV_UNWIND2    *106       666
 03301068 000000000000 RV_USRDIR     *102       750      1636
 03301049 000000000000 RV_USRDRDA     *82      1347      1369      1381      1382
 03301047 000000000000 RV_USRPT       *80       490      1000
 03301064 000000000000 RV_WDGRAN      *98      1179      1311      1480      1487
 03301026 000000000000 S$CU$          *41       403       605       609       619
 03301114 000000000000 S.AIS         *152       207      1782      1783      1784
 03301029 000000000000 S1000_FLG      *44       579      1609
 01101002 000000002374 SADDCW         672     *1633
 01101002 000000000745 SADOK          726      *732
 01101002 000000002567 SADTEMP        655       687       690       727       730     *1762
 01101002 000000002201 SET.DCT1      1481     *1491
 01101002 000000002114 SETARS        1426     *1430
 01101002 000000000377 SKIP_CT        529      *535
 01101002 000000000400 SMUIS         *537       541
 03301116 000000000000 SPW2          *162       353       626       638       698       705       824
 22:47 07/29/97  FILE=IRR$RECOVER.:E05TSI     SYMBOL TABLE                                               87   BMAP - B00
                                      980      1049      1087      1105      1267      1284      1387
                                     1528
 03301118 000000000000 SSDESC        *164       293      1048      1077
 01101002 000000002456 SSFM          1049     *1654
 41000000 000000001764 SSR           *198      1041
 01101002 000000001167 SWITCH_CPU0    910      *917
 01101002 000000001150 SWITCH_CPU1    893      *900
 03301121 000000000000 SYS_DPX       *167       668       957      1244      1310      1349
 03301028 000000000000 S_CNODE        *43       621
 03301025 000000000000 S_CTUIS        *40       378
 03301024 000000000000 S_CUN          *39       387       601       616
 03301023 000000000000 S_DL$          *38       372
 03301033 000000000000 S_MPSTATE      *48       504
 03301038 000000000000 S_MUIS         *53       537
 03301032 000000000000 S_NSCPU        *47       493
 03301031 000000000000 S_PCU          *46       506
 03301027 000000000000 S_PNO          *42       486       597       613
 03301034 000000000000 S_PORTNR       *49       508
 03301036 000000000000 S_STREAMFILEID           *51       546
 03301035 000000000000 S_SYSID        *50       543
 03301037 000000000000 S_TUIS         *52       516
 01101000 000000000014 TBUF.C        *207       353       626       638       698       705       824
                                      980      1049      1087      1105      1267      1284      1387
                                     1528
 01101000 000000000013 TBUF.N        *207       353       626       638       698       705       824
                                      980      1049      1087      1105      1267      1284      1387
                                     1528
 01101002 000000002566 TEMP           584       585     *1761
 01101002 000000001634 TEMPX0        1152      1156     *1230
 01101002 000000001635 TEMPX3        1153      1157     *1231
 03301003 000000000000 TEMP_CONFIG    *18       884       886
 01101002 000000000646 TOO_MANY       689      *697
 03301119 000000000000 TOPDA         *165       669
 01101002 000000001353 TRAP.HAND      323     *1039
 01101002 000000001443 TRAP.P1        319     *1086
 01101002 000000002557 TRAPBIT       1075     *1752
 07101002 000000002562 TRAPIC        1044      1756     *1757
 22:47 07/29/97  FILE=IRR$RECOVER.:E05TSI     SYMBOL TABLE                                               88   BMAP - B00
 01101002 000000002425 TRAPMAPM       638     *1648
 01101002 000000002467 TRAPP1M       1087     *1656
 07101002 000000002560 TRAPSS        1040      1754     *1755
 41000000 000000001761 TYP           *196       394       421       569      1042
 03201019 000000000000 TYPEC         *353      *626      *638      *698      *705      *824      *980
                                    *1049     *1087     *1105     *1267     *1284     *1387     *1528
 01101002 000000001425 UNWIND        1061     *1069
 00101002 000000002563 USRDIRFLG    *1758
 01101002 000000002014 USRDR2       *1348      1384
 41000000 000000000010 USRWSQ        *210       489      1001
 41000000 000000000203 W             *214      1778
 01101002 000000002375 WBUFDCW        964       977     *1634
 01101002 000000002446 WBUFEM         980     *1652
 01101002 000000001251 WBUFERR        975      *979
 01101002 000000002500 WDERRM        1267     *1658
 01101002 000000002517 WDIREM        1387     *1662
 01101002 000000001722 WDUMPALT     *1271      1281      1288      1325      1458      1514      1526
 01101002 000000001673 WDUMPERR      1259     *1266      1391
 01101002 000000001670 WDUMPRET     *1260      1326      1373      1459      1515
 01101002 000000002376 WPGDCW        1248      1503      1516     *1635
 00101002 000000001220 WRBUFF        *952
 01101002 000000001643 WRITEIT       1180     *1238
 01101002 000000000336 WSPTD         *497       501
 03301095 000000000000 WSREGS        *133       302       303
 41000000 000000000002 WSRX          *208      1778
 01101002 000000002043 WUDERR        1365     *1375
 01101002 000000002377 WUDIRDCW      1314      1354     *1636
 01101002 000000002036 WUDIROK       1366     *1368
 03201000 000000000000 X66_MSTATIC    *67      1625
 03201017 000000000000 ZAPR          *174       996

     497 SYMBOLS

 22:47 07/29/97  FILE=IRR$RECOVER.:E05TSI     MACRO TABLE                                                89   BMAP - B00
 MINIT          207
 MONLS          222
 TYPE           353       626       638       698       705       824       980      1049      1087
               1105      1267      1284      1387      1528

      40 MACROS

    SYMBOL SPACE USED  7041 WORDS
     MACRO SPACE USED  5142 WORDS
   INPUT RECORDS READ  4340
 STATEMENTS PROCESSED  2381
         ELAPSED TIME  0:18.36
             CPU TIME    16.76 SEC.
        ASSEMBLY RATE  8524 STATEMENTS/CPU MIN.

      NO ERRORS

