VERSION E05

PL6.E3A0      #001=IR_DATA_D File=IR_DATA_D.:E05TSI                              TUE 07/29/97 22:48 Page:1
        1        1        /*M*   IR_DATA_D    Recovery data              */
        2        2        /*T***********************************************************/
        3        3        /*T*                                                         */
        4        4        /*T* Copyright (c) Bull HN Information Systems Inc., 1997    */
        5        5        /*T*                                                         */
        6        6        /*T***********************************************************/
        7        7        IR_DATA_D: PROC;
        8        8
        9        9        /*  ALL DATA MUST BE DEFINED AS CONSTANT AS PGS0-3 ARE THROWN AWAY
       10       10            BY DEF WHEN WRITING AARDVARK      */
       11       11
       12       12
       13       13    1   DCL 1 RV_ENTRY CONSTANT SYMDEF DALIGNED,
       14       14    1         2 DA UBIN(36) UNAL INIT(0),
       15       15    1         2 DTRAP BIT(1) UNAL INIT('0'B),
       16       16    1         2 CFTRAP BIT(1) UNAL INIT('0'B),
       17       17    1         2 BADPT BIT(1) UNAL INIT('0'B),
       18       18    1         2 * BIT(6) UNAL INIT('0'B),
       19       19    1         2 TYP UBIN(9) UNAL INIT(0),
       20       20    1         2 SZ UBIN(18) UNAL INIT(0);
       21       21
       22       22    1   DCL R$BUFF$ PTR CONSTANT SYMDEF;
       23       23    1   DCL R$CFU$ PTR CONSTANT SYMDEF;
       24       24    1   DCL R$DVT$ PTR CONSTANT SYMDEF;
       25       25    1   DCL R$CGCTXT$ PTR CONSTANT SYMDEF;
       26       26    1   DCL R$CGPT$ PTR CONSTANT SYMDEF;
       27       27    1   DCL R$CU$ PTR CONSTANT SYMDEF;
       28       28    1   DCL R$DCT$$ PTR CONSTANT SYMDEF;
       29       29    1   DCL R$ROSEG$ PTR CONSTANT SYMDEF;
       30       30    1   DCL R$USRT$ PTR CONSTANT SYMDEF;
       31       31
       32       32
       33       33    1   DCL RV_ATTEMPTS SBIN WORD CONSTANT SYMDEF INIT(0);
       34       34    1   DCL RV_BAPAGE UBIN(36) CONSTANT SYMDEF;
       35       35    1   DCL RV_BOOTFLAG UBIN(36) CONSTANT SYMDEF INIT(0);
       36       36    1   DCL RV_BUFFGRAN UBIN(36) CONSTANT SYMDEF INIT(0);
       37       37    1   DCL RV_CGCTXT BIT(72) CONSTANT SYMDEF DALIGNED;
PL6.E3A0      #001=IR_DATA_D File=IR_DATA_D.:E05TSI                              TUE 07/29/97 22:48 Page:2
       38       38    1   DCL RV_CGPT BIT(72) CONSTANT SYMDEF DALIGNED;
       39       39    1   DCL RV_CPNO UBIN(36) CONSTANT SYMDEF INIT(0);
       40       40    1   DCL RV_CUN UBIN(36) CONSTANT SYMDEF INIT(0);
       41       41    1   DCL RV_DCTX UBIN(36) CONSTANT SYMDEF INIT(0);
       42       42    1   DCL RV_DCT$ PTR  CONSTANT SYMDEF;
       43       43    1   DCL RV_DEBUG UBIN(36) CONSTANT SYMDEF INIT(0);
       44       44                                      /* SET NON-ZERO TO AVOID RECOVERY TRAP CONTROL  */
       45       45    1   DCL RV_DEBUGM SBIN CONSTANT SYMDEF INIT(0);
       46       46                                      /* SET TO ZERO TO AVOID RECOVERY DEBUG MESSAGES */
       47       47    1   DCL RV_DINDEXA UBIN(36) CONSTANT SYMDEF INIT(0);
       48       48    1   DCL RV_FCN UBIN(36) CONSTANT SYMDEF INIT(0);
       49       49    1   DCL RV_LASTGRAN UBIN(36) CONSTANT SYMDEF INIT(0);
       50       50    1   DCL RV_MAXGRAN  UBIN(36) CONSTANT SYMDEF INIT(0);
       51       51    1   DCL RV_MONPT UBIN(36) CONSTANT SYMDEF INIT(0);
       52       52    1   DCL RV_MUAIS UBIN(36) CONSTANT SYMDEF INIT(0);
       53       53    1   DCL RV_NODUMPG UBIN(36) CONSTANT SYMDEF INIT(0);
       54       54    1   DCL RV_NSCPU SBIN CONSTANT SYMDEF INIT(0);
       55       55    1   DCL RV_NSPG UBIN(36) CONSTANT SYMDEF INIT(0);
       56       56    1   DCL RV_NXTGRAN  UBIN(36) CONSTANT SYMDEF INIT(0);
       57       57    1   DCL RV_OPRCVR UBIN(36) CONSTANT SYMDEF INIT(0);
       58       58    1   DCL RV_PDUMP  UBIN(36) CONSTANT SYMDEF INIT(0);
       59       59    1   DCL RV_SCODEA BIT(72) CONSTANT SYMDEF DALIGNED;
       60       60    1   DCL RV_SCPUJIT(0:7)   UBIN WORD CONSTANT SYMDEF INIT(0*0);
       61       61    1   DCL RV_SEV7SZ UBIN(36) CONSTANT SYMDEF INIT(0);
       62       62    1   DCL RV_T1  UBIN(36) CONSTANT SYMDEF INIT(0);
       63       63    1   DCL RV_T2  UBIN(36) CONSTANT SYMDEF INIT(0);
       64       64    1   DCL RV_UBUFF BIT(72) CONSTANT SYMDEF DALIGNED;
       65       65    1   DCL RV_UNWIND1 BIT(72) CONSTANT SYMDEF DALIGNED;
       66       66    1   DCL RV_UNWIND2 BIT(72) CONSTANT SYMDEF DALIGNED;
       67       67    1   DCL RV_USRDRDA UBIN(36) CONSTANT SYMDEF INIT(0);
       68       68    1   DCL RV_USRPT UBIN(36) CONSTANT SYMDEF INIT(0);
       69       69    1   DCL RV_USRTYP UBIN(18) CONSTANT SYMDEF INIT(0);
       70       70    1   DCL RV_USTATE UBIN(36) CONSTANT SYMDEF INIT(0);
       71       71    1   DCL RV_WDGRAN UBIN(36) CONSTANT SYMDEF INIT(0);
       72       72
       73       73    1   END IR_DATA_D;
       74       74        %EOD;
PL6.E3A0      #001=IR_DATA_D File=IR_DATA_D.:E05TSI                              TUE 07/29/97 22:48 Page:3

PL6.E3A0      #001=IR_DATA_D File=IR_DATA_D.:E05TSI                              TUE 07/29/97 22:48 Page:4
      No diagnostics issued in procedure IR_DATA_D.

   No code generated for procedure IR_DATA_D .
   Procedure IR_DATA_D requires 4 words of local(AUTO) storage.

PL6.E3A0      #001=IR_DATA_D File=IR_DATA_D.:E05TSI                              TUE 07/29/97 22:48 Page:5

 Object Unit name= IR_DATA_D                                  File name= IR_DATA_D.:E05TOU
 UTS= JUL 29 '97 22:48:11.24 TUE                              Compiler= PL-6/E31         Sev=      00
 SharedLib= :SHARED_SYSTEM                                    Alt SharedLib=


    ****  Control sections  ****

 Sect   Type Bound  Init  Size OctSiz  Section name(segment info)
    0  RoData even  UTS     63     77  IR_DATA_D
    1   Proc  even  none     0      0  IR_DATA_D

    ****  Entry defs  ****

                              Check   Calling
                             calling  sequence
  Sect OctLoc Primary Altret sequence   type   Parms  Name
     1      0   yes            yes     ~proc       0  IR_DATA_D

  ****  Data defs  ****

 Sect OctLoc  Name                           Sect OctLoc  Name
    0      0  RV_ENTRY                           0      2  R$BUFF$
    0      3  R$CFU$                             0      4  R$DVT$
    0      5  R$CGCTXT$                          0      6  R$CGPT$
    0      7  R$CU$                              0     10  R$DCT$$
    0     11  R$ROSEG$                           0     12  R$USRT$
    0     13  RV_ATTEMPTS                        0     14  RV_BAPAGE
    0     15  RV_BOOTFLAG                        0     16  RV_BUFFGRAN
    0     20  RV_CGCTXT                          0     22  RV_CGPT
    0     24  RV_CPNO                            0     25  RV_CUN
    0     26  RV_DCTX                            0     27  RV_DCT$
    0     30  RV_DEBUG                           0     31  RV_DEBUGM
    0     32  RV_DINDEXA                         0     33  RV_FCN
    0     34  RV_LASTGRAN                        0     35  RV_MAXGRAN
    0     36  RV_MONPT                           0     37  RV_MUAIS
    0     40  RV_NODUMPG                         0     41  RV_NSCPU
    0     42  RV_NSPG                            0     43  RV_NXTGRAN
PL6.E3A0      #001=IR_DATA_D File=IR_DATA_D.:E05TSI                              TUE 07/29/97 22:48 Page:6
    0     44  RV_OPRCVR                          0     45  RV_PDUMP
    0     46  RV_SCODEA                          0     50  RV_SCPUJIT
    0     60  RV_SEV7SZ                          0     61  RV_T1
    0     62  RV_T2                              0     64  RV_UBUFF
    0     66  RV_UNWIND1                         0     70  RV_UNWIND2
    0     72  RV_USRDRDA                         0     73  RV_USRPT
    0     74  RV_USRTYP                          0     75  RV_USTATE
    0     76  RV_WDGRAN
PL6.E3A0      #001=IR_DATA_D File=IR_DATA_D.:E05TSI                              TUE 07/29/97 22:48 Page:7

        1        1        /*M*   IR_DATA_D    Recovery data              */
        2        2        /*T***********************************************************/
        3        3        /*T*                                                         */
        4        4        /*T* Copyright (c) Bull HN Information Systems Inc., 1997    */
        5        5        /*T*                                                         */
        6        6        /*T***********************************************************/
        7        7        IR_DATA_D: PROC;
        8        8
        9        9        /*  ALL DATA MUST BE DEFINED AS CONSTANT AS PGS0-3 ARE THROWN AWAY
       10       10            BY DEF WHEN WRITING AARDVARK      */
       11       11
       12       12
       13       13    1   DCL 1 RV_ENTRY CONSTANT SYMDEF DALIGNED,
       14       14    1         2 DA UBIN(36) UNAL INIT(0),
       15       15    1         2 DTRAP BIT(1) UNAL INIT('0'B),
       16       16    1         2 CFTRAP BIT(1) UNAL INIT('0'B),
       17       17    1         2 BADPT BIT(1) UNAL INIT('0'B),
       18       18    1         2 * BIT(6) UNAL INIT('0'B),
       19       19    1         2 TYP UBIN(9) UNAL INIT(0),
       20       20    1         2 SZ UBIN(18) UNAL INIT(0);
       21       21
       22       22    1   DCL R$BUFF$ PTR CONSTANT SYMDEF;
       23       23    1   DCL R$CFU$ PTR CONSTANT SYMDEF;
       24       24    1   DCL R$DVT$ PTR CONSTANT SYMDEF;
       25       25    1   DCL R$CGCTXT$ PTR CONSTANT SYMDEF;
       26       26    1   DCL R$CGPT$ PTR CONSTANT SYMDEF;
       27       27    1   DCL R$CU$ PTR CONSTANT SYMDEF;
       28       28    1   DCL R$DCT$$ PTR CONSTANT SYMDEF;
       29       29    1   DCL R$ROSEG$ PTR CONSTANT SYMDEF;
       30       30    1   DCL R$USRT$ PTR CONSTANT SYMDEF;
       31       31
       32       32
       33       33    1   DCL RV_ATTEMPTS SBIN WORD CONSTANT SYMDEF INIT(0);
       34       34    1   DCL RV_BAPAGE UBIN(36) CONSTANT SYMDEF;
       35       35    1   DCL RV_BOOTFLAG UBIN(36) CONSTANT SYMDEF INIT(0);
       36       36    1   DCL RV_BUFFGRAN UBIN(36) CONSTANT SYMDEF INIT(0);
       37       37    1   DCL RV_CGCTXT BIT(72) CONSTANT SYMDEF DALIGNED;
PL6.E3A0      #001=IR_DATA_D File=IR_DATA_D.:E05TSI                              TUE 07/29/97 22:48 Page:8
       38       38    1   DCL RV_CGPT BIT(72) CONSTANT SYMDEF DALIGNED;
       39       39    1   DCL RV_CPNO UBIN(36) CONSTANT SYMDEF INIT(0);
       40       40    1   DCL RV_CUN UBIN(36) CONSTANT SYMDEF INIT(0);
       41       41    1   DCL RV_DCTX UBIN(36) CONSTANT SYMDEF INIT(0);
       42       42    1   DCL RV_DCT$ PTR  CONSTANT SYMDEF;
       43       43    1   DCL RV_DEBUG UBIN(36) CONSTANT SYMDEF INIT(0);
       44       44                                      /* SET NON-ZERO TO AVOID RECOVERY TRAP CONTROL  */
       45       45    1   DCL RV_DEBUGM SBIN CONSTANT SYMDEF INIT(0);
       46       46                                      /* SET TO ZERO TO AVOID RECOVERY DEBUG MESSAGES */
       47       47    1   DCL RV_DINDEXA UBIN(36) CONSTANT SYMDEF INIT(0);
       48       48    1   DCL RV_FCN UBIN(36) CONSTANT SYMDEF INIT(0);
       49       49    1   DCL RV_LASTGRAN UBIN(36) CONSTANT SYMDEF INIT(0);
       50       50    1   DCL RV_MAXGRAN  UBIN(36) CONSTANT SYMDEF INIT(0);
       51       51    1   DCL RV_MONPT UBIN(36) CONSTANT SYMDEF INIT(0);
       52       52    1   DCL RV_MUAIS UBIN(36) CONSTANT SYMDEF INIT(0);
       53       53    1   DCL RV_NODUMPG UBIN(36) CONSTANT SYMDEF INIT(0);
       54       54    1   DCL RV_NSCPU SBIN CONSTANT SYMDEF INIT(0);
       55       55    1   DCL RV_NSPG UBIN(36) CONSTANT SYMDEF INIT(0);
       56       56    1   DCL RV_NXTGRAN  UBIN(36) CONSTANT SYMDEF INIT(0);
       57       57    1   DCL RV_OPRCVR UBIN(36) CONSTANT SYMDEF INIT(0);
       58       58    1   DCL RV_PDUMP  UBIN(36) CONSTANT SYMDEF INIT(0);
       59       59    1   DCL RV_SCODEA BIT(72) CONSTANT SYMDEF DALIGNED;
       60       60    1   DCL RV_SCPUJIT(0:7)   UBIN WORD CONSTANT SYMDEF INIT(0*0);
       61       61    1   DCL RV_SEV7SZ UBIN(36) CONSTANT SYMDEF INIT(0);
       62       62    1   DCL RV_T1  UBIN(36) CONSTANT SYMDEF INIT(0);
       63       63    1   DCL RV_T2  UBIN(36) CONSTANT SYMDEF INIT(0);
       64       64    1   DCL RV_UBUFF BIT(72) CONSTANT SYMDEF DALIGNED;
       65       65    1   DCL RV_UNWIND1 BIT(72) CONSTANT SYMDEF DALIGNED;
       66       66    1   DCL RV_UNWIND2 BIT(72) CONSTANT SYMDEF DALIGNED;
       67       67    1   DCL RV_USRDRDA UBIN(36) CONSTANT SYMDEF INIT(0);
       68       68    1   DCL RV_USRPT UBIN(36) CONSTANT SYMDEF INIT(0);
       69       69    1   DCL RV_USRTYP UBIN(18) CONSTANT SYMDEF INIT(0);
       70       70    1   DCL RV_USTATE UBIN(36) CONSTANT SYMDEF INIT(0);
       71       71    1   DCL RV_WDGRAN UBIN(36) CONSTANT SYMDEF INIT(0);
       72       72
       73       73    1   END IR_DATA_D;
       74       74        %EOD;
PL6.E3A0      #001=IR_DATA_D File=IR_DATA_D.:E05TSI                              TUE 07/29/97 22:48 Page:9

PL6.E3A0      #001=IR_DATA_D File=IR_DATA_D.:E05TSI                              TUE 07/29/97 22:48 Page:10
      No diagnostics issued in procedure IR_DATA_D.
PL6.E3A0      #001=IR_DATA_D File=IR_DATA_D.:E05TSI                              TUE 07/29/97 22:48 Page:11

 **** Variables and constants ****


   No code generated for procedure IR_DATA_D .
   Procedure IR_DATA_D requires 4 words of local(AUTO) storage.
PL6.E3A0      #001=IR_DATA_D File=IR_DATA_D.:E05TSI                              TUE 07/29/97 22:48 Page:12
          *** CROSS REFERENCE LISTING ***
**     DENOTES     IDENTIFIER DEFINITION
<<                 IDENTIFIER'S VALUE SET
>>                 IDENTIFIER'S VALUE USED
<>                 IDENTIFIER SET AND/OR USED
--                 IDENTIFIER REFERENCED
PL6.E3A0      #001=IR_DATA_D File=IR_DATA_D.:E05TSI                              TUE 07/29/97 22:48 Page:13
          MINI XREF LISTING


PL6.E3A0      #002=IR_BUFF_D File=IR_DATA_D.:E05TSI                              TUE 07/29/97 22:48 Page:14
       75        1        /*M*  IR_BUFF_D   RECOVERY BUFFERS  */
       76        2        /*T***********************************************************/
       77        3        /*T*                                                         */
       78        4        /*T* Copyright (c) Bull HN Information Systems Inc., 1997    */
       79        5        /*T*                                                         */
       80        6        /*T***********************************************************/
       81        7        IR_BUFF_D: PROC;
       82        8
       83        9        %INCLUDE IR_DATA_M;
       84      173        %INCLUDE NI$TABLES;
       85      389
       86      390        /*   RV_BUFF  RECOVERY GRANULE 0  */
       87      391        %RV_BUFF (STCLASS=CONSTANT SYMDEF);
       88      427
       89      428        /*  RV_USRDIR   RECOVERY GRANULE 1  */
       90      429        %RV_USRDIR (STCLASS=CONSTANT SYMDEF);
       91      433
       92      434        /*  RV_WSQD  WSQ DIRECTORY FOR EACH USER AND THE MONITOR  */
       93      435        %RV_WSQD (STCLASS=CONSTANT SYMDEF);
       94      439
       95      440    1   END IR_BUFF_D;

PL6.E3A0      #002=IR_BUFF_D File=IR_DATA_D.:E05TSI                              TUE 07/29/97 22:48 Page:15
--  Include file information  --

   NI$TABLES.:E05TOU  is referenced.
   IR_DATA_M.:E05TOU  is referenced.
      No diagnostics issued in procedure IR_BUFF_D.

   No code generated for procedure IR_BUFF_D .
   Procedure IR_BUFF_D requires 4 words of local(AUTO) storage.

    No errors detected in file IR_DATA_D.:E05TSI    .

PL6.E3A0      #002=IR_BUFF_D File=IR_DATA_D.:E05TSI                              TUE 07/29/97 22:48 Page:16

 Object Unit name= IR_BUFF_D                                  File name= IR_DATA_D.:E05TOU
 UTS= JUL 29 '97 22:48:13.28 TUE                              Compiler= PL-6/E31         Sev=      00
 SharedLib= :SHARED_SYSTEM                                    Alt SharedLib=


    ****  Control sections  ****

 Sect   Type Bound  Init  Size OctSiz  Section name(segment info)
    0  RoData even  UTS   3072   6000  IR_BUFF_D
    1   Proc  even  none     0      0  IR_BUFF_D

    ****  Entry defs  ****

                              Check   Calling
                             calling  sequence
  Sect OctLoc Primary Altret sequence   type   Parms  Name
     1      0   yes            yes     ~proc       0  IR_BUFF_D

  ****  Data defs  ****

 Sect OctLoc  Name                           Sect OctLoc  Name
    0      0  RV_BUFF                            0   2000  RV_USRDIR
    0   4000  RV_WSQD
PL6.E3A0      #002=IR_BUFF_D File=IR_DATA_D.:E05TSI                              TUE 07/29/97 22:48 Page:17

       75        1        /*M*  IR_BUFF_D   RECOVERY BUFFERS  */
       76        2        /*T***********************************************************/
       77        3        /*T*                                                         */
       78        4        /*T* Copyright (c) Bull HN Information Systems Inc., 1997    */
       79        5        /*T*                                                         */
       80        6        /*T***********************************************************/
       81        7        IR_BUFF_D: PROC;
       82        8
       83        9        %INCLUDE IR_DATA_M;
       84      173        %INCLUDE NI$TABLES;
       85      389
       86      390        /*   RV_BUFF  RECOVERY GRANULE 0  */
       87      391        %RV_BUFF (STCLASS=CONSTANT SYMDEF);
       88      427
       89      428        /*  RV_USRDIR   RECOVERY GRANULE 1  */
       90      429        %RV_USRDIR (STCLASS=CONSTANT SYMDEF);
       91      433
       92      434        /*  RV_WSQD  WSQ DIRECTORY FOR EACH USER AND THE MONITOR  */
       93      435        %RV_WSQD (STCLASS=CONSTANT SYMDEF);
       94      439
       95      440    1   END IR_BUFF_D;

PL6.E3A0      #002=IR_BUFF_D File=IR_DATA_D.:E05TSI                              TUE 07/29/97 22:48 Page:18
--  Include file information  --

   NI$TABLES.:E05TOU  is referenced.
   IR_DATA_M.:E05TOU  is referenced.
      No diagnostics issued in procedure IR_BUFF_D.
PL6.E3A0      #002=IR_BUFF_D File=IR_DATA_D.:E05TSI                              TUE 07/29/97 22:48 Page:19

 **** Variables and constants ****


   No code generated for procedure IR_BUFF_D .
   Procedure IR_BUFF_D requires 4 words of local(AUTO) storage.

    No errors detected in file IR_DATA_D.:E05TSI    .
PL6.E3A0      #002=IR_BUFF_D File=IR_DATA_D.:E05TSI                              TUE 07/29/97 22:48 Page:20
          *** CROSS REFERENCE LISTING ***
**     DENOTES     IDENTIFIER DEFINITION
<<                 IDENTIFIER'S VALUE SET
>>                 IDENTIFIER'S VALUE USED
<>                 IDENTIFIER SET AND/OR USED
--                 IDENTIFIER REFERENCED
PL6.E3A0      #002=IR_BUFF_D File=IR_DATA_D.:E05TSI                              TUE 07/29/97 22:48 Page:21
          MINI XREF LISTING

RV_WSQD.PG.SFLG
       436**DCL       436--REDEF
