VERSION E05

 22:48 07/29/97  FILE=ISI$BOOT.:E05TSI                                                                   1    BMAP - B00
                                         1  *M*    ISI$BOOT - AARDVARK
                                         2  *T***********************************************************
                                         3  *T*                                                         *
                                         4  *T* Copyright (c) Bull HN Information Systems Inc., 1997    *
                                         5  *T*                                                         *
                                         6  *T***********************************************************
             000000000001                7  BMAP   SET     1               0 -> GMAP     1 -> BMAP
             000000000001                8  AARDVARK SET   1               SEE IS$BMACROS

 22:48 07/29/97  FILE=ISI$BOOT.:E05TSI        A A R D V A R K                                            2    BMAP - B00
                                         9         TTL     A A R D V A R K
                                        10         ENTDEF  DBOOT           ENTRY FOR MINI-DELTA 'DBOO' COMMAND
                                        11         ENTDEF  BOOTS
                                        12         ENTDEF  REBOOT
                                        13         ENTDEF  RCVR
                                        14         ENTDEF  LDSPWS
                                        15         ENTDEF  XDRET
                                        16         ENTDEF  ZAPR
                                        17         ENTDEF READ_CONNECT_TABLE
                                        18         ENTDEF START_IO
                                        19         ENTDEF START_IO_RPM
                                        20         ENTDEF  SET_TIME_FROM_SP
                                        21         ENTDEF  INIT_CHN_RPM
                                        22         ENTDEF  INIT_FEP_RPM
                                        23         ENTDEF CLEAR_RIW
                                        24         ENTDEF CLEAR_CACHE
                                        25         ENTDEF S_INT
                                        26         ENTDEF R_INT
                                        27         ENTDEF HANG
                                        28         ENTDEF  GIVEUP
                                        29         ENTDEF  MDELTCALL
                                        30         ENTDEF  LOADPDBR
                                        31         ENTDEF  LOAD_SSR
                                        32         ENTDEF  PREPRE
                                        33         ENTDEF  MYSELFX
                                        34         ENTDEF  GETOUT
                                        35         ENTDEF  MYSELFM
                                        36         ENTDEF  WT_TIME
                                        37         SYMDEF  AAFLTD
                                        38         SYMDEF  AARD            MINI-DELTA SYMBOL TABLE DEFINITION
                                        39         SYMDEF  AFLTLC
                                        40         SYMDEF  ASDESC
                                        41         SYMDEF  BSNLS
                                        42         SYMDEF  CACHE
                                        43         SYMDEF  DESC0
                                        44         SYMDEF  DESCCP
                                        45         SYMDEF  DESCMD
 22:48 07/29/97  FILE=ISI$BOOT.:E05TSI        A A R D V A R K                                            3    BMAP - B00
                                        46         SYMDEF  DESCMI
                                        47         SYMDEF  DESCMP
                                        48         SYMDEF  DESCRL
                                        49         SYMDEF  DESCRV1
                                        50         SYMDEF  DESCRV2
                                        51         SYMDEF  DESCRV3
                                        52         SYMDEF  DESCRV4
                                        53         SYMDEF  DESCRV5
                                        54         SYMDEF  DESCTEMP
                                        55         SYMDEF  DESCUI
                                        56         SYMDEF  DESCXI
                                        57         SYMDEF  FLTLOC
                                        58         SYMDEF  HIPAGE
                                        59         SYMDEF  HIAVPG          Last avail page on S1000
                                        60         SYMDEF  GAP_SZ          Gap size on RPM
                                        61         SYMDEF  IODESC
                                        62         SYMDEF  INTLOC
                                        63         SYMDEF  LOWER_SCU
                                        64         SYMDEF  UPPER_SCU
                                        65         SYMDEF  MEMDESC
                                        66         SYMDEF  MODE
                                        67         SYMDEF  MONLSR
                                        68         SYMDEF  S.AIS
                                        69         SYMDEF  PATCH
                                        70         SYMDEF  PMASK
                                        71         SYMDEF  PODESC
                                        72         SYMDEF  PSDESC
                                        73         SYMDEF  RAUTO
                                        74         SYMDEF  RD
                                        75         SYMDEF  SPW1
                                        76         SYMDEF  SPW2
                                        77         SYMDEF  SPW3
                                        78         SYMDEF  SPWF
                                        79         SYMDEF  SPWI
                                        80         SYMDEF  SSDESC
                                        81         SYMDEF  TEMPD
                                        82         SYMDEF  DESAAAUTO
 22:48 07/29/97  FILE=ISI$BOOT.:E05TSI        A A R D V A R K                                            4    BMAP - B00
                                        83         SYMDEF  TOP
                                        84         SYMDEF  WRITE
                                        85         SYMDEF  WSRX            REF'D BY MINI
                                        86         SYMDEF  WSREGS
                                        87         SYMDEF  PTRAIN5
                                        88         SYMDEF  PTRAIN6
                                        89         SYMDEF  VFCL
                                        90         SYMDEF  TR5SZ
                                        91         SYMDEF  TR6SZ
                                        92         SYMDEF  VFCSZ
                                        93         SYMDEF  BEGAA
                                        94         SYMDEF  S1000_FLG
                                        95         SYMDEF  RPM_FLG
                                        96         SYMDEF   RPM_BOOT_IDCW
                                        97         SYMDEF  CONS_INFO
                                        98         SYMDEF  MEM_SZ
                                        99         SYMDEF  XA_MODE
                                       100         SYMDEF  CONFIG
                                       101         SYMDEF  CONF_REG
                                       102         SYMDEF  MSEGTBL
                                       103         SYMDEF  RPM_BOOTIN
                                       104         SYMDEF  MC1
                                       105         SYMDEF  TGMISCDESC
                                       106         SYMDEF  MC1SKAD
                                       107         SYMDEF  MC1LPW
                                       108         SYMDEF  MC1SK
                                       109         SYMDEF  MC1LIM
                                       110         SYMDEF  MC1PCW
                                       111         SYMDEF  MC1ICW
                                       112         SYMDEF  MC1B
                                       113         SYMDEF  XC1
                                       114         SYMDEF  XC1SKAD
                                       115         SYMDEF  XC1SK
                                       116         SYMDEF  XC1LIM
                                       117         SYMDEF  XC1ICW
                                       118         SYMDEF  XC1B
                                       119         SYMDEF  CONS_MBX
 22:48 07/29/97  FILE=ISI$BOOT.:E05TSI        A A R D V A R K                                            5    BMAP - B00
                                       120         SYMDEF  SH_MBX
                                       121         SYMDEF  RPM_BOOTRC
                                       122         SYMDEF  CHN3_MBX
                                       123         SYMDEF  RC1
                                       124         SYMDEF  RC1SKAD
                                       125         SYMDEF  RC1SK
                                       126         SYMDEF  RC1LIM
                                       127         SYMDEF  RC1ICW
                                       128         SYMDEF  RC1B
                                       129         SYMDEF  SSDMON
                                       130         SYMDEF  SSDMONX
                                       131         SYMDEF  TGRDESC
                                       132         SYMDEF  DSDESC
                                       133         SYMDEF  XDSSR
                                       134         SYMDEF  VIRGIN
                                       135         SYMDEF  READBTR
                                       136         SYMDEF  LWSRDR
                                       137         SYMDEF  PREPRESBR
                                       138         SYMDEF  BOOTS1R
                                       139         SYMDEF  CODE
                                       140         SYMDEF  CODE
                                       141         ENTREF  DRLH            MINI FAULT HANDLER
                                       142         ENTREF  MDELTA          PATCHING ENTRY POINT
                                       143         ENTREF  IRR$RECOVER
                                       144         ENTREF  IRR$OPRCVR
                                       145         ENTREF  X66_MSTATIC
                                       146         ENTREF PUSSYCAT_PL6
                                       147         ENTREF TYPE_SIZE
                                       148         ENTREF  FIX_FIRM
                                       149         ENTREF  GOPO_PL6
                                       150         ENTREF  WRITE_PATCH
                                       151         ENTREF  READ_PATCH
                                       152         ENTREF  MINIQ_PL6
                                       153         ENTREF  XDELT_RET
                                       154         ENTREF  SET_MODE
                                       155         ENTREF  FINAL
                                       156         ENTREF  LOOP_PL6
 22:48 07/29/97  FILE=ISI$BOOT.:E05TSI        A A R D V A R K                                            6    BMAP - B00
                                       157         ENTREF  MINT_PL6
                                       158         ENTREF  GT_SYSPACKAD
                                       159         ENTREF  INIT_DISK
                                       160         ENTREF  URINIT
                                       161         ENTREF  ACONFIG
                                       162         ENTREF  CLOSE_SYST
                                       163         SYMREF  RV_OPASCODE
                                       164         SYMREF  POBUF
                                       165         SYMREF  CP6UL
                                       166         SYMREF  FLTSW           NON-ZERO -> GO TO FAULT HANDLER
                                       167         SYMREF  TQFLAG          NON-ZERO -> TQ COMMAND
                                       168         SYMREF  AUTOBUF
                                       169         SYMREF  AUTOSIZEW
                                       170         SYMREF  BOOTINFO        PUSSYCAT,BOOT INFORMATION
                                       171         SYMREF  MDELTAFLG       PUSSYCAT,MDELTA required
                                       172         SYMREF  PPDBR           VALUE OF PDBR AS ESTABLISHED BY PL6
                                       173         SYMREF  MONPA
                                       174         SYMREF  TIGRPA          !TIGR written to patch file
                                       175         SYMREF  INDXT
                                       176         SYMREF  BOOTTAPE
                                       177         SYMDEF  TEMP_CONFIG
                                       178         SYMREF  DISK_BOOTINFO
                                       179         SYMREF  RPM_DISK_BOOTINFO
                                       180         SYMREF  PATT_MBX
                                       181         SYMREF  CONNECT_TABLE
                                       182         INHIB   OFF
                                       183         SYMREF  RCV_FLG
                                       184         SYMREF  FRSTDISK        Sys disk index in DEVINFO
                                       185         SYMREF  SYS_DPX         Sys disk index in DEVINFO
                                       186         SYMREF  BOOTRC
                                       187         SYMREF  HDRMD
                                       188         SYMREF  ORDBFLG
                                       189         SYMREF  PDEV
                                       190         SYMREF  DIR_ENT0
                                       191         SYMREF  IR_UTS_COOKIE
                                       192         SYMREF  IR_MS_COOKIE
                                       193  *
 22:48 07/29/97  FILE=ISI$BOOT.:E05TSI        A A R D V A R K                                            7    BMAP - B00
                                       194  *      SYMDEF  I$AIS$
                                       195  *      SYMDEF  I$AIS.T$
                                       196         SYMDEF  I$MONLS$
                                       197         SYMDEF  I$PPUT$
                                       198         SYMDEF  I$TEMP$
                                       199         SYMDEF  I$MEM$
                                       200         SYMDEF  I$PO$
                                       201  *      SYMDEF  I$OUH$
                                       202         SYMDEF  I$TYP0$
                                       203  *      SYMDEF  I$XLS$
                                       204  *      SYMDEF  I$XIS$
                                       205  *      SYMDEF  I$HJIT$
                                       206  *      SYMDEF  I$MOND$
                                       207  *      SYMDEF  I$MONP$
                                       208  *      SYMDEF  I$ENTD$
                                       209  *      SYMDEF  I$SYMD$
                                       210  *      SYMDEF  I$DEFN$
                                       211  *      SYMDEF  I$SEGTBL$
                                       212  *      SYMDEF  I$DEFDIR$
                                       213  *      SYMDEF  I$SCH$
                                       214  *      SYMDEF  I$G1RO$
                                       215  *      SYMDEF  I$G1D$
                                       216  *      SYMDEF  I$G1P$
                                       217  *      SYMDEF  I$ENTD1$
                                       218  *      SYMDEF  I$SYMD1$
                                       219  *      SYMDEF  I$DEFN1$
                                       220  *      SYMDEF  I$TIGR$
                                       221  *      SYMDEF  I$PATCH$
                                       222         SYMDEF  I$MONIS$
                                       223  *      SYMDEF  I$G1IS$
                                       224         SYMDEF  I$JIT$
                                       225  *      SYMDEF  I$JIT1$
                                       226  *      SYMDEF  I$HJIT1$
                                       227  *      SYMDEF  I$SST$
                                       228  *      SYMDEF  I$SSS$
                                       229  *      SYMDEF  I$SSS1$
                                       230  *      SYMDEF  I$TSTK$
 22:48 07/29/97  FILE=ISI$BOOT.:E05TSI        A A R D V A R K                                            8    BMAP - B00
                                       231  *      SYMDEF  I$TSTK1$
                                       232  *      SYMDEF  I$ASTK$
                                       233  *      SYMDEF  I$ASTK1$
                                       234  *      SYMDEF  I$SCH0$
                                       235  *      SYMDEF  I$SCH1$
                                       236  *      SYMDEF  I$SCH2$
                                       237  *      SYMDEF  I$SCH3$
                                       238  *      SYMDEF  I$SCH4$
                                       239  *      SYMDEF  I$SCH5$
                                       240         SYMDEF  I$MPGTBL$
                                       241         SYMDEF  I$G1PGTBL$
                                       242  *      SYMDEF  I$CPIS$
                                       243  *      SYMDEF  I$CPPT$
                                       244  *      SYMDEF  I$SSSU$
                                       245  *      SYMDEF  I$TSTKU$
                                       246  *      SYMDEF  I$ASTKU$
                                       247         SYMDEF  I$JITU$
                                       248         SYMDEF  I$UPGTBL$
                                       249  *      SYMDEF  I$HJITU$
                                       250  *      SYMDEF  I$UIS$
                                       251         SYMDEF  I$MLS$
                                       252  *      SYMDEF  I$ULS$
                                       253  *      SYMDEF  I$DLS$
                                       254  *      SYMDEF  I$ALS$
                                       255  *      SYMDEF  I$CLS$
                                       256         SYMDEF  I$REAL$
                                       257         SYMDEF  I$RV1$
                                       258         SYMDEF  I$RV2$
                                       259         SYMDEF  I$RV3$
                                       260         SYMDEF  I$RV4$
                                       261         SYMDEF  I$RV5$
                                       262         SYMDEF  I$AUTO$
                                       263  *      SYMDEF  I$DUMMY$
                                       264         SYMDEF  I$AAAUTO$
                                       265         CPR     H,1977
             000000000100              266  TGRPG  BOOL    100             TIGR STORES WSPTD PAGE# HERE
             000000000020              267  M_W_H_LOC BOOL 20              MITCH'S WATERING HOLE
 22:48 07/29/97  FILE=ISI$BOOT.:E05TSI        A A R D V A R K                                            9    BMAP - B00
             000000000030              268  INTLOC BOOL    30              INTERRUPT ENTRY LOCATION
             000000000032              269  FLTLOC BOOL    32              FAULT ENTRY
             000000000040              270  AFLTLC BOOL    40              ALTERNATE FAULT ENTRY
                                       271  *  Reserved memory addresses
             000000001110              272  RCONS_INFO BOOL 1110
             000000001000              273  RMEM_SZ BOOL   1000
             000000001177              274  RPT_WS0 BOOL   1177
             000000001014              275  RCONFIG BOOL   1014
             000000001400              276  MBOX    BOOL   1400            RPM BOOT MAILBOX
             000000001430              277  CONF_8000 BOOL 1430            RPM CONFIG REGISTER
             000000000740              278  INTLOCK BOOL   740             IMW AREA
             000000000142              279  REPU_MODE BOOL 142
             000000001141              280  RCLOS     BOOL 1141
             000000777777              281  MEMSIZ EQU     256*1024-1      256K
                                       282  *
                                       283  *  SYMBOLIC REGISTER DEFINITIONS
                                       284  *
             000000000000              285  X0     EQU     0
             000000000001              286  X1     EQU     1
             000000000002              287  X2     EQU     2
             000000000003              288  X3     EQU     3
             000000000004              289  X4     EQU     4
             000000000005              290  X5     EQU     5               RESERVE FOR USE WITH DR.USE
             000000000006              291  X6     EQU     6
             000000000007              292  X7     EQU     7
             000000000001              293  DR.LS  EQU     1               USED BY MINI TO LTRAD TO MON
             000000000004              294  DR.SSR EQU     4               DESCRIPTOR REG. TO HOLD SS STACK DESC.
             000000000005              295  DR.USE EQU     5
             000000000006              296  DR.X   EQU     6               DR.X USED FOR SCRATCH
             000000001776              297  DDRX   BOOL    DR.X+=O1770     SEGID FOR DR.X
             000000000000              298  DR.Y   EQU     0               DR.Y USED FOR SCRATCH
             000000001761              299  DTYP   BOOL    1761            CHANGE DESCRIPTOR TYPE
             000000001762              300  DISR   BOOL    1762            ISR
             000000001762              301  ISR    BOOL    1762            ISR REGISTER
             000000001764              302  DSSR   BOOL    1764            SAFE STORE REGISTER
             000000001765              303  DLSR   BOOL    1765            LSR
                                       304  * SAFE STORE FRAME DISPLACEMENT DEFINITIONS
 22:48 07/29/97  FILE=ISI$BOOT.:E05TSI        A A R D V A R K                                            10   BMAP - B00
             000000000004              305  SSIC   EQU     4               LOCATION OF IC IN SAFE STORE FRAME
             000000000005              306  SSFLT  EQU     5               LOCATION OF 5 BIT CODE IN SS FRAME
             000000000000              307  TRMASK BOOL    0               SAVE TRAP MASK HERE IN SS STACK
             000000000002              308  EOINST EQU     2               LOCATION OF EVEN/ODD INST. IN SS FRAME
             000000000005              309  FC     BOOL    5               POSITION OF FAULT CODE IN SS STACK
             000000000010              310  SSISR  EQU     8               DISP TO ISR DESC IN SS FRAME
             000000000020              311  SSAR   EQU     16              POSITION OF AR'S IN SS FRAME
             000000000030              312  SSDR   EQU     24              POSITION OF DR'S IN SS FRAME
                                       313  *
             000000000004              314  ICADD  EQU     4               IC+1,INDICATORS OF DERAIL
             000000000050              315  ICREGS EQU     40              REGISTER AREA
                                       316  *
                                       317  *  MINI'S FAULT HANDLER MUST BE CHANGED IF WSR DEFINITIONS CHANGE.
                                       318  *
             000000000000              319  WSRM   EQU     0               RUNNING MONITOR WSR
             000000000002              320  WSRX   EQU     2               X-DELTA WORKING SPACE REGISTER
             000000000004              321  WSRCP  EQU     4               COMMAND PROCESSOR WSR
             000000000007              322  WSRU   EQU     7               USER WORKING SPACE REGISTER
                                       323  *  DESCRIPTOR FLAG DEFINITIONS
             000000000403              324  R      BOOL    403             BIT 20=1 -> READ ALLOWED
             000000000203              325  W      BOOL    203             BIT 21=1 -> WRITE ALLOWED
             000000000103              326  S      BOOL    103             BIT 22=1 -> MAY BE SAVED
             000000000043              327  C      BOOL    43              BIT 23=1 -> UTILIZE CACHE
             000000000023              328  X      BOOL    23              BIT 24   -> UNASSIGNED
             000000000013              329  E      BOOL    13              BIT 25=1 -> EXECUTE ALLOWED
             000000000007              330  P      BOOL    7               BIT 26=1 -> PRIVILEGED
             000000000002              331  N      BOOL    2               BIT 27=0 -> EMPTY(NULL) SEGMENT
             000000000001              332  M      BOOL    1               BIT 28=0 -> SEGMENT MISSING
                                       333  *
             000000000011              334  FCNUNL EQU     9               FCN CODE FOR REWIND AND UNLOAD
                                       335  *
                                       336  *  PAGE TABLE HARDWARE CONTROL FLAG DEFINITIONS
                                       337  *
             000000000040              338  P.P    BOOL    40              PAGE IN MEMORY
             000000000020              339  P.W    BOOL    20              WRITE PERMISSION
             000000000010              340  P.H    BOOL    10              HOUSEKEEPING PAGE
             000000000004              341  P.I    BOOL    4               PAGE IS AVAILABLE FOR I/O
 22:48 07/29/97  FILE=ISI$BOOT.:E05TSI        A A R D V A R K                                            11   BMAP - B00
             000000000002              342  P.M    BOOL    2               PAGE HAS BEEN MODIFIED
             000000000001              343  P.A    BOOL    1               PAGE HAS BEEN ACCESSED
                                       344  *
                                       345  *  PAGE TABLE SOFTWARE CONTROL FLAG DEFINITIONS
                                       346  *
             000000000001              347  S.U    BOOL    1               PAGE IS OWNED BY THE USER
             000000000002              348  S.C    BOOL    2               PAGE WAS ESTABLISHED BY CVM
             000000000004              349  S.F    BOOL    4               VIRTUAL PAGE IS USED AS FPOOL
             000000001000              350  S.D    BOOL    1000            PAGE WAS WRITE PROTECTED FOR DATA BKPT
                                       351  *
                                       352  *      CPU TYPE DEFINITIONS (FOR CPUTYPE SUBROUTINE)
                                       353  *
             000000000000              354  L66    EQU     0
             000000000001              355  DPSE   EQU     1
             000000000002              356  ELS1   EQU     2
                                       357  *
                                       358  *
                                       359         LODM    IS$BMACROS
                                       360         LODM    B_BMACROS_C
                                       361         PMC     ON
                                       362  *
                                       363  *  VIRTUAL MEMORY PAGE DEFINITIONS
                                       364  *
             000000777777              365  FPMC   EQU     262143          FREE PAGE MAP CONSTANT
                                       366         VPAGES
             000000000000                   V.PGTBL EQU 0               PAGE TABLE
             000000000001                   V.CGPGTBLLO EQU 1
             000000000012                   V.PGTBLHI EQU 10              LAST CGQ PAGE TABLE
             000000000013                   V.JIT EQU 11              JIT
             000000000015                   V.HJIT EQU 13              HJIT
             000000000610                   V.MTD EQU 392             MONITOR TIGR DATA
             000000000057                   V.ROS EQU 47              GHOST1 ROSEG (PGTBL)
             000000000500                   V.REAL EQU 320             LOW REAL MAPPED INTO PHY PAGES 0-7
             000000000100                   V.ISR EQU 64              INSTRUCTION SEGMENT
             000000000510                   V.PPUT EQU 328             MM_PPUT GOES HERE
             000000000077                   V.SEGTBL EQU 63              VIRTUAL PAGE FOR MON SEGMENT TABLE
                                       367  *
 22:48 07/29/97  FILE=ISI$BOOT.:E05TSI        A A R D V A R K                                            12   BMAP - B00
                                       368  *  JIT DISPLACEMENT DEFINITIONS
                                       369  *
                                       370         BJIT0
             000000000000                   J.BJIT0 EQU 0
             000000000000                   J.MODE EQU J.BJIT0
             000000000000                   J.USER EQU J.MODE
             000000000000                   J.SYSID EQU J.MODE
             000000000001                   J.ACCN EQU J.MODE+1
             000000000003                   J.UNAME EQU J.ACCN+2
             000000000006                   J.FACCN EQU J.UNAME+3
             000000000010                   J.WOO EQU J.FACCN+2
             000000000012                   J.ERR EQU J.WOO+2
             000000000013                   J.PRIV EQU J.ERR+1
             000000000013                   J.ACTIVE EQU J.PRIV
             000000000014                   J.AUTH EQU J.PRIV+1
             000000000015                   J.JOB EQU J.PRIV+2
             000000000016                   J.PRC EQU J.PRIV+3
             000000000017                   J.SAVED EQU J.PRIV+4
             000000000020                   J.PPRIV EQU J.PRIV+5
             000000000021                   J.FPSN EQU J.PPRIV+1
             000000000022                   J.OUTPRIO EQU J.FPSN+1
             000000000022                   J.DCBNO EQU J.OUTPRIO
             000000000023                   J.JOBNAME EQU J.FPSN+2
                                       371         UJIT1
             000000000030                   J.UJIT1 EQU 24
             000000000030                   J.PRFLAGS EQU J.UJIT1
             000000000031                   J.SWITCH EQU J.PRFLAGS+1
             000000000032                   J.CCARS EQU J.SWITCH+1
             000000000032                   J.CCDISP EQU J.CCARS
             000000000033                   J.CCBUF EQU J.CCARS+1
             000000000133                   J.USERWORD EQU J.CCBUF+64
             000000000135                   J.INSTWORD EQU J.USERWORD+2
             000000000137                   J.JOBUNIT EQU J.INSTWORD+2
             000000000141                   J.STEPUNIT EQU J.JOBUNIT+2
             000000000143                   J.CPFLAGS1 EQU J.STEPUNIT+2
             000000000144                   J.USRERR EQU J.CPFLAGS1+1
             000000000145                   J.JORG EQU J.USRERR+1
 22:48 07/29/97  FILE=ISI$BOOT.:E05TSI        A A R D V A R K                                            13   BMAP - B00
             000000000145                   J.USRRNST EQU J.JORG
             000000000145                   J.LANG EQU J.JORG
             000000000146                   J.YC0SZ EQU J.JORG+1
             000000000146                   J.USRIC EQU J.YC0SZ
             000000000147                   J.BUDLIM EQU J.YC0SZ+1
             000000000150                   J.LOGONTIME EQU J.BUDLIM+1
             000000000151                   J.SSLEV EQU J.LOGONTIME+1
             000000000151                   J.NEXTCC EQU J.SSLEV
             000000000151                   J.BILL EQU J.SSLEV
             000000000153                   J.DEFPRI EQU J.SSLEV+2
             000000000153                   J.MAXPRI EQU J.DEFPRI
                                       372         MJIT2
             000000000176                   J.MJIT2 EQU 126
             000000000176                   J.PLL EQU J.MJIT2
             000000000176                   J.PUL EQU J.PLL
             000000000177                   J.DLL EQU J.PLL+1
             000000000177                   J.DUL EQU J.DLL
             000000000200                   J.DDLL EQU J.DLL+1
             000000000200                   J.DDUL EQU J.DDLL
             000000000201                   J.PCP EQU J.DDLL+1
             000000000201                   J.PCD EQU J.PCP
             000000000202                   J.PCDS EQU J.PCP+1
             000000000202                   J.PCC EQU J.PCDS
             000000000203                   J.PCROS EQU J.PCDS+1
             000000000203                   J.PCDD EQU J.PCROS
             000000000204                   J.TDP EQU J.PCROS+1
             000000000204                   J.EUP EQU J.TDP
             000000000205                   J.FBUC EQU J.EUP+1
             000000000205                   J.FBUL EQU J.FBUC
             000000000206                   J.PPH EQU J.FBUC+1
             000000000207                   J.PPT EQU J.PPH+1
             000000000207                   J.PPC EQU J.PPT
             000000000210                   J.MAXCORE EQU J.PPT+1
             000000000210                   J.CURRCORE EQU J.MAXCORE
             000000000211                   J.SPEAK EQU J.MAXCORE+1
             000000000211                   J.JPEAK EQU J.SPEAK
                                       373         AJIT6
 22:48 07/29/97  FILE=ISI$BOOT.:E05TSI        A A R D V A R K                                            14   BMAP - B00
             000000000324                   J.AJIT6 EQU 212
             000000000325                   J.INTER EQU J.AJIT6+1
             000000000326                   J.STDLOPGS EQU J.INTER+1
             000000000327                   J.ACCESS EQU J.STDLOPGS+1
             000000000327                   J.PACKS EQU J.ACCESS
             000000000330                   J.TAPES EQU J.PACKS+1
             000000000331                   J.FORMS EQU J.TAPES+1
             000000000332                   J.MOUNTS EQU J.ACCESS+3
             000000000334                   J.CURSUDO EQU J.MOUNTS+2
             000000000336                   J.RESCORE EQU J.CURSUDO+2
             000000000337                   J.TSLINE EQU J.RESCORE+1
             000000000337                   J.FEX EQU J.TSLINE
             000000000337                   J.SPEED EQU J.TSLINE
             000000000337                   J.PORT EQU J.TSLINE
             000000000340                   J.PMME_COUNT EQU J.TSLINE+1
             000000000341                   J.PMME_DATA EQU J.PMME_COUNT+1
             000000000355                   J.ENQS EQU J.PMME_DATA+12
             000000000356                   J.REMCPO EQU J.ENQS+1
             000000000357                   J.REMLO EQU J.REMCPO+1
             000000000360                   J.REMDO EQU J.REMLO+1
                                       374         TJIT7
             000000000366                   J.SIZE EQU 246
             000000000366                   J.TSTK EQU 246
             000000003412                   J.TSSZ EQU 2048-J.SIZE
             000000003412              375  TSSZ   EQU     J.TSSZ
                                       376  *
                                       377  *  MON L. S. POSITION   DEFINITIONS
                                       378  *
                                       379         MONLS
             000000000000                   LS.IS EQU 0             MONITOR INSTRUCTION SEGMENT
             000000000001                   LS.JITU EQU LS.IS+1       USER JIT
             000000000002                   LS.BUF EQU LS.JITU+1     USER FILE MANAGEMENT BUFFERS
             000000000003                   LS.ROSEG EQU LS.BUF+1      USER READ ONLY SEGMENT
             000000000004                   LS.DS1 EQU LS.ROSEG+1    MONITOR DATA SEGMENT 1
             000000000004                   LS.CFU EQU LS.DS1        MON DS1 -- CFUS
             000000000005                   LS.DS2 EQU LS.DS1+1      MONITOR DATA SEGMENT 2
             000000000006                   LS.DS3 EQU LS.DS2+1      MONITOR DATA SEGMENT 3
 22:48 07/29/97  FILE=ISI$BOOT.:E05TSI        A A R D V A R K                                            15   BMAP - B00
             000000000007                   LS.DS4 EQU LS.DS3+1      MONITOR DATA SEGMENT 4
             000000000010                   LS.DS5 EQU LS.DS4+1      MONITOR DATA SEGMENT 5
             000000000011                   LS.DS6 EQU LS.DS5+1      MONITOR DATA SEGMENT 6
             000000000012                   LS.DS7 EQU LS.DS6+1      MONITOR DATA SEGMENT 7
             000000000013                   LS.DS8 EQU LS.DS7+1      MONITOR DATA SEGMENT 8
             000000000013                   LS.LDCT EQU LS.DS8        MON DS8 -- LDCTS
             000000000014                   LS.NULL EQU LS.DS8+1      NULL DESCRIPTOR
             000000000015                   LS.XLAT EQU LS.NULL+1     XLATE/SEARCH TABLES
             000000000016                   LS.ECCB EQU LS.XLAT+1     ECCB
             000000000017                   LS.TCB EQU LS.ECCB+1     TCB
             000000000020                   LS.TSTACK EQU LS.TCB+1      TSTACK
             000000000021                   LS.REAL EQU LS.TSTACK+1   REAL PG 0-3
             000000000022                   LS.USSS EQU LS.REAL+1     USER SS AREA
             000000000023                   LS.USDS0 EQU LS.USSS+1     USER SDS TYPE 0
             000000000024                   LS.USDS1 EQU LS.USDS0+1    USER SDS TYPE 1
             000000000025                   LS.SCR EQU LS.USDS1+1    SCREECH ENTRY
             000000000026                   LS.XD EQU LS.SCR+1      XDELTA ENTRY DESCRIPTOR
             000000000027                   LS.PMME EQU LS.XD+1       PMME ENTRY DESCRIPTOR
             000000000030                   LS.REG EQU LS.PMME+1     SCHED REG ENTRY DESCRIPTOR
             000000000031                   LS.ULS EQU LS.REG+1      USER LINKAGE SEGMENT
             000000000032                   LS.DBLS EQU LS.ULS+1      DEBUGGER LINKAGE SEGMENT
             000000000033                   LS.ASLLS EQU LS.DBLS+1     ASL LINKAGE SEGMENT
             000000000034                   LS.CPLS EQU LS.ASLLS+1    COMMAND PROCESSOR LINKAGE SEGMENT
             000000000035                   LS.MLS EQU LS.CPLS+1     MONITOR LINKAGE SEGMENT
             000000000036                   LS.UPT EQU LS.MLS+1      USER PAGE TABLE
             000000000037                   LS.MPT EQU LS.UPT+1      MONITOR PAGE TABLE
             000000000040                   LS.USRIS EQU LS.MPT+1      USER INSTRUCTION SEGMENT
             000000000041                   LS.MTSTACK EQU LS.USRIS+1    TSTACKU
             000000000042                   LS.MJIT EQU LS.MTSTACK+1  MONITOR JIT
             000000000043                   LS.MHJIT EQU LS.MJIT+1     MONITOR HJIT
             000000000044                   LS.MONSSS EQU LS.MHJIT+1    MONITOR SSS -- TYPE 0
             000000000045                   LS.HJITU EQU LS.MONSSS+1   USER HJIT
             000000000046                   LS.SBUF1 EQU LS.HJITU+1    SPECIAL BUFFER 1
             000000000047                   LS.SBUF2 EQU LS.SBUF1+1    SPECIAL BUFFER 2
             000000000050                   LS.ISB EQU LS.SBUF2+1    MON ISR -- BYPASS CACHE
             000000000051                   LS.SCU EQU LS.ISB+1      SPECIAL PAGES FOR GETTING SCU ADDR
             000000000052                   LS.WINDOW EQU LS.SCU+1      WINDOW AREA
 22:48 07/29/97  FILE=ISI$BOOT.:E05TSI        A A R D V A R K                                            16   BMAP - B00
             000000000053                   LS.ASR EQU LS.WINDOW+1   MONITOR ARGUMENT STACK DESC
             000000000054                   LS.MISC EQU LS.ASR+1      MISCELLANEOUS (can be used @ int level)
             000000000055                   LS.CWSQ1 EQU LS.MISC+1     COMMUNICATIONS WSQ
             000000000075                   LS.CPGT1 EQU LS.CWSQ1+16   CWSQ PG TABLE
             000000000115                   LS.JITPG EQU LS.CPGT1+16
             000000000116                   LS.PPUT EQU LS.JITPG+1
             000000000117                   LS.VPT EQU LS.PPUT+1
             000000000120                   LS.MOUSE EQU LS.VPT+1
             000000000121                   LS.LOWMEM EQU LS.MOUSE+1
             000000000122                   LS.IOEND EQU LS.LOWMEM+1
             000000000123                   LS.TIGR EQU LS.IOEND+1    TIGR DATA
             000000000124                   LS.RONC EQU LS.TIGR+1     READ ONLY SEG -- BYPASS CACHE
             000000000125                   LS.ROSEG8 EQU LS.RONC+1     READ ONLY SEG -- AT IO END ACT (WSQ8)
             000000000126                   LS.XDRTN EQU LS.ROSEG8+1   XDELTA RETURN ENTRY DESCRIPTOR
             000000000127                   LS.RCVRTN EQU LS.XDRTN+1    SUA OR SNAP RETURN ENTRY DESCRIPTOR
             000000000130                   LS.MISC2 EQU LS.RCVRTN+1   MISCELLANEOUS (used on behalf of user only)
             000000000131                   LS.RCVENT EQU LS.MISC2+1    RECOVERY ENTRY DESCRIPTOR
             000000000132                   LS.MLS1 EQU LS.RCVENT+1   MON LS -- TYPE 1 FOR ANLZ
             000000000133                   LS.WS3MLS EQU LS.MLS1+1
             000000000134                   LS.LDCTNC EQU LS.WS3MLS+1
             000000000135                   LS.MSTRPT EQU LS.LDCTNC+1
             000000000136                   LS.SLV1PT EQU LS.MSTRPT+1
             000000000137                   LS.SLV2PT EQU LS.SLV1PT+1
             000000000140                   LS.SLV3PT EQU LS.SLV2PT+1
             000000000141                   LS.SLV4PT EQU LS.SLV3PT+1
             000000000142                   LS.SLV5PT EQU LS.SLV4PT+1
             000000000143                   LS.SLV6PT EQU LS.SLV5PT+1
             000000000144                   LS.SLV7PT EQU LS.SLV6PT+1
             000000000145                   LS.MSTRHJ EQU LS.SLV7PT+1
             000000000146                   LS.SLV1HJ EQU LS.MSTRHJ+1
             000000000147                   LS.SLV2HJ EQU LS.SLV1HJ+1
             000000000150                   LS.SLV3HJ EQU LS.SLV2HJ+1
             000000000151                   LS.SLV4HJ EQU LS.SLV3HJ+1
             000000000152                   LS.SLV5HJ EQU LS.SLV4HJ+1
             000000000153                   LS.SLV6HJ EQU LS.SLV5HJ+1
             000000000154                   LS.SLV7HJ EQU LS.SLV6HJ+1
             000000000155                   LS.AARDV EQU LS.SLV7HJ+1
 22:48 07/29/97  FILE=ISI$BOOT.:E05TSI        A A R D V A R K                                            17   BMAP - B00
             000000000155                   LS.FLT EQU LS.AARDV      AARDVARK FAULT ENTRY DESCR
             000000000156                   LS.AARDV2 EQU LS.AARDV+1
             000000000156                   LS.MONRL EQU LS.AARDV2     REAL MON ISR FOR MINIQ
             000000000157                   LS.FIRM EQU LS.AARDV2+1
             000000000160                   LS.WS3MLSNW EQU LS.FIRM+1
             000000000161                   LS.BUFCACH EQU LS.WS3MLSNW+1
             000000000162                   LS.IMX EQU LS.BUFCACH+1  IMX DATA
             000000000163                   LS.CGPT EQU LS.IMX+1      CG PAGE TABLE
             000000000164                   LS.CGCTXT EQU LS.CGPT+1     CG CONTEXT & DESCRIPTOR SEG BLKS
             000000000165                   LS.MAGSS EQU LS.CGCTXT+1   MAGIC SS FRAME
             000000000166                   LS.MAGLS EQU LS.MAGSS+1    MAGIC LS
             000000000167                   LS.MAGAS EQU LS.MAGLS+1    MAGIC AS
             000000000170                   LS.MAGPS EQU LS.MAGAS+1    MAGIC PS
             000000000171                   LS.MAGTCB EQU LS.MAGPS+1    MAGIC TCB
             000000000172                   LS.MAGECCB EQU LS.MAGTCB+1   MAGIC ECCB
             000000000173                   LS.MLSREAD EQU LS.MAGECCB+1  MLS - READ ONLY
             000000000174                   LS.SEGTBL EQU LS.MLSREAD+1    MON OVERLAY SEGMENT TABLE
             000000000175                   LS.WSQ0PT EQU LS.SEGTBL+1     WSQ #0 Page Table.  DPS-90 only
             000000000176                   LS.IPHY_MAP EQU LS.WSQ0PT+1   Inverse physical map for DPS-90
             000000000177                   LS.MINIQ_ENT EQU LS.IPHY_MAP+1 Entry for MINIQ's climb to itself
             000000000200                   LS.XLNORM EQU LS.MINIQ_ENT+1 Normal XLATE tables (Note space reserved for X1000)
             000000000201                   LS.XLALT EQU LS.XLNORM+1   Alternate XLATE tables
             000000000202                   LS.DVT EQU LS.XLALT+1    DVT TABLE
                                       380  *
                                       381  *  X-DELTA LINKAGE SEGMENT DEFINITIONS
                                       382  *
                                       383         XDLS
             000000000000                   XL.ISR EQU 0             XDELTA ISR DESCRIPTOR
             000000000001                   XL.LSR EQU XL.ISR+1      XDELTA LSR DESCRIPTOR
             000000000002                   XL.SSR EQU XL.LSR+1      XDELTA SSR DESCRIPTOR
             000000000003                   XL.AUTO EQU XL.SSR+1      XDELTA AUTO
             000000000004                   XL.ENT EQU XL.AUTO+1     MON ENTDEFS
             000000000005                   XL.SYM EQU XL.ENT+1      MON SYMDEFS
             000000000006                   XL.DEF EQU XL.SYM+1      MON DEF NAMES
             000000000007                   XL.SCH EQU XL.DEF+1      MON SCHEMA DIRECTORY
             000000000010                   XL.MLS0 EQU XL.SCH+1      MON LS -- TYPE 0
             000000000011                   XL.MLS1 EQU XL.MLS0+1     MON LS -- TYPE 1
 22:48 07/29/97  FILE=ISI$BOOT.:E05TSI        A A R D V A R K                                            18   BMAP - B00
             000000000012                   XL.MIS EQU XL.MLS1+1     MON ISR DESCRIPTOR
             000000000013                   XL.MSS EQU XL.MIS+1      MON SSR DESCRIPTOR -- TYPE 1
             000000000014                   XL.NULL EQU XL.MSS+1      NULL
             000000000015                   XL.MINIQ EQU XL.NULL+1     AARDVARK ISR DESC FOR MINIQ
             000000000016                   XL.REAL EQU XL.MINIQ+1    REAL
             000000000017                   XL.REALX EQU XL.REAL+1     REAL SCRATCH
             000000000020                   XL.MAP256 EQU XL.REALX+1    MAP 0-256K
             000000000021                   XL.MAPX EQU XL.MAP256+1   MAP 256-512K
             000000000022                   XL.FLT EQU XL.MAPX+1     XDELTA FAULT ENTRY DESCRIPTOR
             000000000023                   XL.SSR0 EQU XL.FLT+1      XDELTA SSR -- TYPE 0
             000000000024                   XL.MSSR0 EQU XL.SSR0+1     MON SSR --  TYPE 0
             000000000025                   XL.SC1 EQU XL.MSSR0+1    SCRATCH DESCRIPTOR 1
             000000000026                   XL.SC2 EQU XL.SC1+1      SCRATCH DESCRIPTOR 2
             000000000027                   XL.AENT EQU XL.SC2+1     ENTRY DESCRIPTOR FOR CALLS TO MINIQ
             000000000030                   XL.UDR2 EQU XL.AENT+1    DR2 FROM CURRENT SS
             000000000031                   XL.JITU EQU XL.UDR2+1     USER JIT
             000000000032                   XL.HJITU EQU XL.JITU+1     USER HJIT
             000000000033                   XL.ULS EQU XL.HJITU+1    USER LS
             000000000034                   XL.DBLS EQU XL.ULS+1      DEBUGGER LS
             000000000035                   XL.ASLLS EQU XL.DBLS+1     ASL LS
             000000000036                   XL.CPLS EQU XL.ASLLS+1    CP LS
             000000000037                   XL.ASR EQU XL.CPLS+1     ASR
             000000000040                   XL.PSR EQU XL.ASR+1      PSR
             000000000041                   XL.UISR EQU XL.PSR+1      USER ISR
             000000000042                   XL.SDS EQU XL.UISR+1     MON SPECIAL DESCRIPTOR STORAGE
             000000000043                   XL.MJIT EQU XL.SDS+1      MON JIT
             000000000044                   XL.MHJIT EQU XL.MJIT+1     MON HJIT
             000000000045                   XL.SSISR EQU XL.MHJIT+1    ISR FROM SAFE STORE
             000000000046                   XL.SCH0 EQU XL.SSISR+1    SCHEMA DESC -DEBUG RECORDS
             000000000047                   XL.SCH1 EQU XL.SCH0+1     DITTO
             000000000050                   XL.SCH2 EQU XL.SCH1+1     DITTO
             000000000051                   XL.SCH3 EQU XL.SCH2+1     DITTO
             000000000052                   XL.SCH4 EQU XL.SCH3+1     DITTO
             000000000053                   XL.SCH5 EQU XL.SCH4+1     DITTO
             000000000054                   XL.SCH6 EQU XL.SCH5+1     DITTO
             000000000055                   XL.SCH7 EQU XL.SCH6+1     DITTO
             000000000056                   XL.SCH8 EQU XL.SCH7+1     DITTO
 22:48 07/29/97  FILE=ISI$BOOT.:E05TSI        A A R D V A R K                                            19   BMAP - B00
             000000000057                   XL.SCH9 EQU XL.SCH8+1     DITTO
             000000000060                   XL.SCH10 EQU XL.SCH9+1     DITTO
             000000000061                   XL.SCH11 EQU XL.SCH10+1    DITTO
             000000000061                   XL.SCHLAST EQU XL.SCH11      LAST SCHEMA DESCRIPTOR
             000000000062                   XL.ENT1 EQU XL.SCHLAST+1  ALTERNATE ENTDEFS
             000000000063                   XL.SYM1 EQU XL.ENT1+1     ALTERNATE SYMDEFS
             000000000064                   XL.DEF1 EQU XL.SYM1+1     ALTERNATE DEFNAMES
             000000000065                   XL.ASCH EQU XL.DEF1+1     ALTERNATE DEBUG SCHEMA HEADERS
             000000000066                   XL.ASCH0 EQU XL.ASCH+1     ALTERNATE SCHEMA DESC -DEBUG RECORDS
             000000000067                   XL.ASCH1 EQU XL.ASCH0+1    DITTO
             000000000070                   XL.ASCH2 EQU XL.ASCH1+1    DITTO
             000000000071                   XL.ASCH3 EQU XL.ASCH2+1    DITTO
             000000000072                   XL.ASCH4 EQU XL.ASCH3+1    DITTO
             000000000073                   XL.ASCH5 EQU XL.ASCH4+1    DITTO
             000000000074                   XL.ASCH6 EQU XL.ASCH5+1    DITTO
             000000000075                   XL.ASCH7 EQU XL.ASCH6+1    DITTO
             000000000076                   XL.ASCH8 EQU XL.ASCH7+1    DITTO
             000000000077                   XL.ASCH9 EQU XL.ASCH8+1    DITTO
             000000000100                   XL.ASCH10 EQU XL.ASCH9+1    DITTO
             000000000101                   XL.ASCH11 EQU XL.ASCH10+1   DITTO
             000000000101                   XL.ASCHLAST EQU XL.ASCH11     LAST ALTERNATE SCHEMA DESCRIPTOR
             000000000102                   XL.SEGTBL EQU XL.ASCHLAST+1   MON OVERLAY SEGMENT TABLE
             000000000103                   XL.DEFDIR EQU XL.SEGTBL+1     MON NODE INFO TABLE
                                       384  *
             000000000000              385  RD     EQU     0               READ FC
             000000000001              386  WRITE  EQU     1               WRITE FC
             000000000002              387  SCRLF  EQU     2               TYPE WITHOUT CR LF
             000000000002              388  DOUBLE EQU     2               ORDER CODE FOR DOUBLE SPACE PRINTER
             000000000003              389  TOP    EQU     3               TOP OF PAGE ORDER CODE
             000000000024              390  NSYM   EQU     20              NUMBER OF SYMBOL ENTRIES
                                       391  *
                                       392  *  HJIT DISPLACEMENT DEFINITIONS
                                       393  *
                                       394         HJIT
             000000000000                   HJ.MLS EQU 0               MONITOR LINKAGE SEGMENT
             000000000000                   HJ.ULS EQU 0               USER LINKAGE SEGMENT
             000000000110                   HJ.DLS EQU HJ.ULS+72       DEBUGGER LINKAGE SEGMENT
 22:48 07/29/97  FILE=ISI$BOOT.:E05TSI        A A R D V A R K                                            20   BMAP - B00
             000000000220                   HJ.ALS EQU HJ.DLS+72       ALT SHARED LIB LINKAGE SEGMENT
             000000000330                   HJ.CLS EQU HJ.ALS+72       COMMAND PROCESSOR LINKAGE SEGMENT
             000000000440                   HJ.SDS EQU HJ.CLS+72       SPECIAL DESC STORAGE
             000000000460                   HJ.SSS EQU HJ.SDS+16       SAFE STORE STACK
             000000001120                   HJ.SSSSZ EQU 592             SIZE OF SAFE STORE STACK
             000000003120                   HJ.SSSSZM EQU HJ.SSSSZ+1024   MON SAFE STORE IS 1 PAGE BIGGER
             000000001600                   HJ.AS EQU HJ.SSS+HJ.SSSSZ    ARGUMENT STACK
             000000003600                   HJ.ASM EQU HJ.SSS+HJ.SSSSZM    ARGUMENT STACK(MON)
             000000000200                   HJ.ASSZ EQU 128             SIZE OF ARGUMENT STACK
                                       395  *
                                       396  *  SEGID VALUES FOR AARDVARK'S L.S.
                                       397  *
             000000006000              398  S.AIS  BOOL    6000            AARDVARK'S ISR
             000000006001              399  S.AIS.T EQU    S.AIS+1         AARDVARK'S ISR FOR TIGR'S USE
             000000006002              400  S.MONLS EQU    S.AIS.T+1       MON'S LSR
             000000006003              401  S.PPUT EQU     S.MONLS+1       FRAME'S MM_PPUT
             000000006004              402  S.TEMP EQU     S.PPUT+1        TEMP DESC FOR BOUNDS CHECKING ETC.
             000000006005              403  S.MEM  EQU     S.TEMP+1        USED TO CALCULATE MEMORY SIZE
             000000006006              404  S.PO   EQU     S.MEM+1         FRAME'S PO TAPE BLOCKS
             000000006007              405  S.OUH  EQU     S.PO+1          FRAME'S DEBUG SCHEMA OU HEADERS
                                       406  *  PO STUFF
             000000006010              407  S.TYP0 EQU     S.OUH+1         SYMBOL DEFINITION ONLY
             000000006010              408  S.XLS  EQU     S.TYP0          X-DELTA LS
             000000006011              409  S.XIS  EQU     S.XLS+1         X-DELTA IS
             000000006012              410  S.HJIT EQU     S.XIS+1         MON HJIT
             000000006013              411  S.MOND EQU     S.HJIT+1        MON DATA
             000000006014              412  S.MONP EQU     S.MOND+1        MON PROC
             000000006015              413  S.ENTD EQU     S.MONP+1        ENTDEFS
             000000006016              414  S.SYMD EQU     S.ENTD+1        SYMDEFS
             000000006017              415  S.DEFN EQU     S.SYMD+1        DEFNAMES
             000000006020              416  S.SCH  EQU     S.DEFN+1        DEBUG SCHEMAS
             000000006021              417  S.G1RO EQU     S.SCH+1         GHOST1 ROSEG
             000000006022              418  S.G1D  EQU     S.G1RO+1        GHOST1 DATA
             000000006023              419  S.G1P  EQU     S.G1D+1         GHOST1 PROC
             000000006024              420  S.ENTD1 EQU    S.G1P+1         ALTERNATE ENTDEFS
             000000006025              421  S.SYMD1 EQU    S.ENTD1+1       ALTERNATE SYMDEFS
             000000006026              422  S.DEFN1 EQU    S.SYMD1+1       ALTERNATE DEFNAMES
 22:48 07/29/97  FILE=ISI$BOOT.:E05TSI        A A R D V A R K                                            21   BMAP - B00
             000000006027              423  S.ASCH EQU     S.DEFN1+1       ALTERNATE SCHEMA
             000000006030              424  S.TIGR EQU     S.ASCH+1       TIGR MISCELLANEOUS
             000000006031              425  S.DEFDIR EQU   S.TIGR+1        MON NODE INFO
             000000006032              426  S.PATCH EQU    S.DEFDIR+1        PATCHES - SYMBOL DEFINITION ONLY
                                       427  * END OF PO STUFF
                                       428  * JUST IN CASE YOU WONDERED -- THERE ARE 14 MON OVERLAY DESCS HERE
             000000006050              429  S.MONIS EQU    S.PATCH+14      MON IS
             000000006051              430  S.G1IS EQU     S.MONIS+1       GHOST1 IS
             000000006052              431  S.JIT  EQU     S.G1IS+1        MON JIT
             000000006053              432  S.JIT1 EQU     S.JIT+1         GHOST1 JIT
             000000006054              433  S.HJIT1 EQU    S.JIT1+1        GHOST1 HJIT
             000000006055              434  S.SST  EQU     S.HJIT1+1       AARDVARK SAFE STORE
             000000006056              435  S.SSS  EQU     S.SST+1         MON SAFE STORE
             000000006057              436  S.SSS1 EQU     S.SSS+1         GHOST1 SAFE STORE
             000000006060              437  S.TSTK EQU     S.SSS1+1        MON TSTACK
             000000006061              438  S.TSTK1 EQU    S.TSTK+1        GHOST1 TSTACK
             000000006062              439  S.ASTK EQU     S.TSTK1+1       MON ASTACK
             000000006063              440  S.ASTK1 EQU    S.ASTK+1        GHOST1 ASTACK
             000000006064              441  S.SCH0 EQU     S.ASTK1+1       SCHEMA DEBUG OU RECORD
             000000006065              442  S.SCH1 EQU     S.SCH0+1        SCHEMA DEBUG OU RECORD
             000000006066              443  S.SCH2 EQU     S.SCH1+1        SCHEMA DEBUG OU RECORD
             000000006067              444  S.SCH3 EQU     S.SCH2+1        SCHEMA DEBUG OU RECORD
             000000006070              445  S.SCH4 EQU     S.SCH3+1        SCHEMA DEBUG OU RECORD
             000000006071              446  S.SCH5 EQU     S.SCH4+1        SCHEMA DEBUG OU RECORD
             000000006072              447  S.SCH6 EQU     S.SCH5+1        SCHEMA DEBUG OU RECORD
             000000006073              448  S.SCH7 EQU     S.SCH6+1        SCHEMA DEBUG OU RECORD
             000000006074              449  S.SCH8 EQU     S.SCH7+1        SCHEMA DEBUG OU RECORD
             000000006075              450  S.SCH9 EQU     S.SCH8+1        SCHEMA DEBUG OU RECORD
             000000006076              451  S.SCH10 EQU    S.SCH9+1        SCHEMA DEBUG OU RECORD
             000000006077              452  S.SCH11 EQU    S.SCH10+1       SCHEMA DEBUG OU RECORD
             000000006100              453  S.ASCH0 EQU    S.SCH11+1       ALTERNATE SCHEMA DEBUG OU RECORD
             000000006101              454  S.ASCH1 EQU    S.ASCH0+1       ALTERNATE SCHEMA DEBUG OU RECORD
             000000006102              455  S.ASCH2 EQU    S.ASCH1+1       ALTERNATE SCHEMA DEBUG OU RECORD
             000000006103              456  S.ASCH3 EQU    S.ASCH2+1       ALTERNATE SCHEMA DEBUG OU RECORD
             000000006104              457  S.ASCH4 EQU    S.ASCH3+1       ALTERNATE SCHEMA DEBUG OU RECORD
             000000006105              458  S.ASCH5 EQU    S.ASCH4+1       ALTERNATE SCHEMA DEBUG OU RECORD
             000000006106              459  S.ASCH6 EQU    S.ASCH5+1       ALTERNATE SCHEMA DEBUG OU RECORD
 22:48 07/29/97  FILE=ISI$BOOT.:E05TSI        A A R D V A R K                                            22   BMAP - B00
             000000006107              460  S.ASCH7 EQU    S.ASCH6+1       ALTERNATE SCHEMA DEBUG OU RECORD
             000000006110              461  S.ASCH8 EQU    S.ASCH7+1       ALTERNATE SCHEMA DEBUG OU RECORD
             000000006111              462  S.ASCH9 EQU    S.ASCH8+1       ALTERNATE SCHEMA DEBUG OU RECORD
             000000006112              463  S.ASCH10 EQU   S.ASCH9+1       ALTERNATE SCHEMA DEBUG OU RECORD
             000000006113              464  S.ASCH11 EQU   S.ASCH10+1      ALTERNATE SCHEMA DEBUG OU RECORD
             000000006114              465  S.MPGTBL EQU   S.ASCH11+1      MONITOR PAGE TABLE
             000000006115              466  S.G1PGTBL EQU  S.MPGTBL+1      GHOST1 PAGE TABLE
             000000006116              467  S.CPIS EQU     S.G1PGTBL+1     COMMAND PROCESSOR IS
             000000006117              468  S.CPPT EQU     S.CPIS+1        COMMAND PROCESSOR PAGE TABLE
             000000006120              469  S.SSSU EQU     S.CPPT+1        USER SAFE STORE
             000000006121              470  S.TSTKU EQU    S.SSSU+1        USER TSTACK
             000000006122              471  S.ASTKU EQU    S.TSTKU+1       USER ASTACK
             000000006123              472  S.JITU EQU     S.ASTKU+1       USER JIT
             000000006124              473  S.UPGTBL EQU   S.JITU+1        USER PAGE TABLE
             000000006125              474  S.HJITU EQU    S.UPGTBL+1      USER HJIT
             000000006126              475  S.UIS  EQU     S.HJITU+1       USER IS
             000000006127              476  S.LS   EQU     S.UIS+1         AARDVARK'S LS
             000000006130              477  S.MLS  EQU     S.LS+1            MAPPED MON LS
             000000006131              478  S.ULS  EQU     S.MLS+1         MAPPED USER LS
             000000006132              479  S.DLS  EQU     S.ULS+1         MAPPED DEBUGGER LS (CURRENT USER)
             000000006133              480  S.ALS  EQU     S.DLS+1         MAPPED ALT SHARED LIB (CURRENT USER)
             000000006134              481  S.CLS  EQU     S.ALS+1         CP LS (CU)
             000000006135              482  S.REAL EQU     S.CLS+1         REAL DESC
             000000006136              483  S.AUTO EQU     S.REAL+1
             000000006137              484  S.RV1  EQU     S.AUTO+1        RECOVERY'S
             000000006140              485  S.RV2  EQU     S.RV1+1         RECOVERY'S
             000000006141              486  S.RV3  EQU     S.RV2+1         RECOVERY'S
             000000006142              487  S.RV4  EQU     S.RV3+1         RECOVERY'S
             000000006143              488  S.AAAUTO EQU   S.RV4+1         AARDVARK AUTO DESCR
             000000006144              489  S.WS#0 EQU     S.AAAUTO+1      WS#0 PAGE TABLE
             000000006145              490  S.SEGTBL EQU   S.WS#0+1        MONITOR OVERLAY SEGMENT TABLE
             000000006146              491  S.MONSSR EQU   S.SEGTBL+1      MONITOR SSR
             000000006147              492  S.RV5   EQU    S.MONSSR+1      RECOVERY RECOVERY'S
             000000006150              493  S.DUMMY EQU    S.RV5+1         DUMMY DESC
                                       494  *

 22:48 07/29/97  FILE=ISI$BOOT.:E05TSI        C O Y O T E  -  B O O T   L O A D E R                      23   BMAP - B00
                                       495         TTLS    C O Y O T E  -  B O O T   L O A D E R
                                       496  *      THIS CARD IS LOADED INTO THE INTERRUPT ADDRESS
                                       497  *      THE ROUTINE IS EXECUTED BY THE CLIMB INITIATED BY THE
                                       498  *      INTERRUPT FROM THE FIRST I/O OPERATION.
                                       499  *
                                       500  *
                                       501  *      THE HARDWARE SETS THE FOLLOWING IN RESPONSE TO USE OF BOOT
                                       502  *      BUTTON.
                                       503  *
                                       504  *
                                       505  *      ON AN IOM (OR IOP)
                                       506  *      LOCATION
                                       507  *      0                  OCTAL 000000720201      1'ST PCW WORD
                                       508  *      1                  BITS 0-8 CHANNEL #; BITS 33-35 PORT #
                                       509  *      2                  18/MAILBOX BASE,18/MULTIPLEX BASE + IOM#
                                       510  *      3                  OCTAL 010000700000    IDCW
                                       511  *      4                  IOTD INVCT,0
                                       512  *
                                       513  *
                                       514  *      ON AN IMX
                                       515  *
                                       516  *
                                       517  *      LOCATION
                                       518  *      0                   OCTAL CCDD00700000 IDCW
                                       519  *      1                   IOTD INVCT,0
                                       520  *      2                   NOT USED
                                       521  *      3                   COPY OF DCW (IOTD)
                                       522  *      4                   OCTAL 700000000PPP  A-REG FOR CONNECT
                                       523  * (CC=COMMAND CODE,  DD=DEVICE NR,  PPP=LOGICAL CHAN NR)
                                       524  *
                                       525  *
 0 000000                              526         USE     ISI$BOOT_BOOTSTRAP,0 BOOTSTRAP SECTION
                                       527  *  ENTRY DESCRIPTOR
   000000 (0)000004 0 0000 0 13        528  C1     VFD     18/C1B,1/0,10/0,3/0,4/11 ENTLOC,S,ISEGNO,WSR,TY
   000001    0002 (0)00000002 0        529         VFD     10/2,24/C1A,2/0  LBOUND,LBASE,(IN BYTES)
                                       530  *  INSTRUCTION SEGMENT DESCRIPTOR
   000002    3777777 717 0 00          531  C1A    VFD     20/MEMSIZ*4+3,O9/717,3/0,4/0 BND,FLAGS,WSR,TYPE
 22:48 07/29/97  FILE=ISI$BOOT.:E05TSI        C O Y O T E  -  B O O T   L O A D E R                      24   BMAP - B00
   000003    0000 000000000            532         VFD     10/0,26/0       0,BASE(BYTES)
                                       533         INHIB   ON
   000004                              534  C1B    NULL
   000004 (0)000047 6242 00            535         EAX4    C2              SET INTERRUPT ENTRY DSCR
   000005 (0)000000 7442 00            536         STX4    C1
   000006 (0)000126 2362 00            537         LDQ     C1DCW           READ AARDV DCW
   000007    000004 2352 00            538         LDA     4               FIND THE IO SYSTEM TYPE
   000010 (0)000022 6052 00            539         TPL     IOM_B           IT'S AN IOM
                                       540  *      IT'S AN IMX
   000011                              541  IMX_B  NULL
   000011    000001 7562 00            542         STQ     1               SET THE DCW TO READ AARDV
   000012    000000 4122 00            543         RIW
   000013    041000 2352 03            544         LDA     =O041000,DU     ALLOW TERMINATE
   000014    000000 5532 00            545         LIMR
   000015                              546  IMX_CON NULL
   000015    000401 3352 07            547         LCA     =O401,DL        RESET SYNC BIT
   000016    001406 3552 00            548         ANSA    MBOX+6
   000017    000004 2352 00            549         LDA     4               A REG IMMAGE
   000020    001400 0152 00            550         CIOC    MBOX
   000021    000000 6162 00            551  IMX_W  DIS     0
                                       552  *
   000022                              553  IOM_B  NULL                    IT'S AN IOM BOOT
   000022    000004 7562 00            554         STQ     4               SET DCW TO READ AARDV
   000023    000001 2362 00            555         LDQ     1               GET CHN#
   000024    000033 7722 00            556         QRL     27              IN QL
   000025    000040 1162 07            557         CMPQ    32,DL           CHANNEL#<32
   000026 (0)000031 6042 00            558         TMI     *+3
   000027    000040 1362 07            559         SBLQ    32,DL
   000030 (0)000131 0542 00            560         AOS     CHN#32
   000031    400000 2352 03            561         LDA     =O400000,DU
   000032    000000 7712 06            562         ARL     0,QL            BUILD MASK
   000033 (0)000130 7552 00            563         STA     CHAN_MASK
   000034    000001 2362 00            564         LDQ     1               BITS 0-8 ARE BOOTCHANNEL #
   000035    000007 7722 00            565         QRL     7               TIMES 4 IN QU
   000036    000002 0362 00            566         ADLQ    2               PLUS MAILBOX BASE
   000037 (0)000131 2342 00            567         SZN     CHN#32          CHANNEL # > 32 ?
   000040 (0)000042 6002 00            568         TZE     *+2
 22:48 07/29/97  FILE=ISI$BOOT.:E05TSI        C O Y O T E  -  B O O T   L O A D E R                      25   BMAP - B00
   000041    000004 1362 07            569         SBLQ    4,DL            YES, IMW CELL-4
   000042                              570  IOM_CON NULL
   000042 (0)000127 2352 00            571         LDA     C1LPW
   000043    000000 7552 02            572         STA     0,QU            LPW FOR NEXT IO
   000044    000014 4502 06            573         STZ     12,QL           CLEAR TERMINATE IMW
   000045    000001 0152 00            574         CIOC    1
   000046    000000 6162 00            575  IOM_W  DIS     0
                                       576  *
                                       577  *      INTERRUPT
   000047                              578  C2     NULL
   000047    000004 2352 00            579         LDA     4
   000050 (0)000106 6052 00            580         TPL     IOM_INT
                                       581  *  IT'S AN IMX
   000051    000000 4122 00            582         RIW
   000052 (2)024624 7552 00            583         STA     RPM_BOOTIN
   000053    000000 2362 00            584         LDQ     0               GET IDCW
   000054 (2)022011 7562 00            585         STQ     RPM_BOOT_IDCW
   000055    000000 2362 07            586         LDQ     0,DL
   000056    000022 7332 00            587         LRS     18              CHN# ->A27-35,IMX#->Q7-8
   000057    003000 3762 03            588         ANQ     =O3000,DU
   000060    000024 7322 00            589         QRS     27-7            IMX#*128
   000061    000010 0362 07            590         ADLQ    8,DL            +8
   000062 (2)024505 7562 00            591         STQ     MCHAN_MSK       WORK CELL
   000063 (2)024505 0352 00            592         ADLA    MCHAN_MSK       IMX#*128+CHN#+8
   000064    400000 3362 07            593         LCQ     =O400000,DL
   000065    000004 2112 00            594         CMK     4               IS THIS THE BOOT CHN ?
   000066 (0)000072 6002 00            595         TZE     CHNOK           YES
   000067    041000 2352 03            596         LDA     =O041000,DU
   000070    000000 5532 00            597         LIMR
   000071 (0)000021 7102 00            598         TRA     IMX_W           WAIT FOR THE BOOT CHN TO INTERRUPT
   000072                              599  CHNOK  NULL
   000072    001410 2352 00            600         LDA     MBOX+8           CHECK STATUS
   000073 (0)000132 3152 00            601         CANA    IMX_MSK
   000074 (0)000076 6002 00            602         TZE     *+2
   000075    000001 6162 00            603  ERR_B  DIS     1               ERROR
                                       604  * WE READ ONE RECORD, SEE IF WE ARE DONE
   000076    000001 2242 00            605         LDX4    1               DCW
 22:48 07/29/97  FILE=ISI$BOOT.:E05TSI        C O Y O T E  -  B O O T   L O A D E R                      26   BMAP - B00
   000077    002000 6242 14            606         EAX4    1024,4          ADDRESS+1K
   000100  X 000000 1042 03            607         CMPX4   CP6UL,DU        END OF AARDVARK ?
   000101 (2)022056 6032 00            608         TRC     BOOTS           YES
   000102    000001 7442 00            609         STX4    1               SET NEW DCW
   000103    041000 2352 03            610         LDA     =O041000,DU
   000104    000000 5532 00            611         LIMR
   000105 (0)000015 7102 00            612         TRA     IMX_CON
                                       613  *
                                       614  *
   000106                              615  IOM_INT NULL
   000106    000014 0342 06            616         LDAC    12,QL           IMW WORD
   000107 (0)000112 6012 00            617         TNZ     *+3
   000110    000014 0342 06            618         LDAC    12,QL
   000111 (0)000046 6002 00            619         TZE     IOM_W
   000112 (0)000130 3752 00            620         ANA     CHAN_MASK       IS THIS THE BOOT CHAN ?
   000113 (0)000046 6002 00            621         TZE     IOM_W           NO
   000114    000002 2242 00            622         LDX4    2               GET STATUS ADDR
   000115    000000 2352 14            623         LDA     0,X4            GET STATUS FROM MAILBOX
   000116 (0)000133 3152 00            624         CANA    IOM_MSK         CHECK STATUS
   000117 (0)000075 6012 00            625         TNZ     ERR_B
   000120    000004 2242 00            626         LDX4    4               DCW
   000121    002000 6242 14            627         EAX4    1024,4
   000122  X 000000 1042 03            628         CMPX4   CP6UL,DU
   000123 (2)022056 6032 00            629         TRC     BOOTS           ALL ARDVARK IN MEMORY
   000124    000004 7442 00            630         STX4    4               NEW DCW
   000125 (0)000042 7102 00            631         TRA     IOM_CON
                                       632  *  DATA
   000126 (2)016000 00 2000            633  C1DCW  IOTD    CP6LL,1024
   000127    000003 020007             634  C1LPW  VFD     18/3,O18/020007
   000130    000000000000              635  CHAN_MASK OCT  0
   000131    000000000000              636  CHN#32 OCT     0
   000132    377222770060              637  IMX_MSK OCT    377222770060
   000133    377237777760              638  IOM_MSK OCT    377237777760
                                       639  *

 22:48 07/29/97  FILE=ISI$BOOT.:E05TSI        C P 6 - B O O T S U B R                                    27   BMAP - B00
                                       640         TTLS    C P 6 - B O O T S U B R
                                       641         IFE     BMAP,1,3
 2 000000                              642         USE     ISI$BOOT_MAIN,0 MAIN DATA AND PROCEDURE
                                       643         PAGE
   000000                              644  AARD   NULL                    MINI-DELTA SYMBOL TABLE DEFINITION
   000000                              645         BSS     7*1024   LEAVE PHY PAGES 0->7 EMPTY
   016000                              646  CP6LL  NULL
          (2)000000016000              647  BEGAA  EQU     CP6LL
                                       648  *
                                       649  *  VARIOUS WAYS TO GET INTO AARDVARK
                                       650  *
                                       651  *   .  BOOT FROM PO TAPE
                                       652  *   .  BOOT FROM DISC
                                       653  *   .  MINI-DELTA 'T' COMMAND TO REREAD EVERY THING BUT AARDVARK
                                       654  *   .  FROM PO TAPE
                                       655  *   .  MINI-DELTA 'Q' COMMAND TO REREAD EVERY THING FROM DISC
                                       656  *   .  XDELTA 'DBOOT' COMMAND TO READ EVERYTHING FROM DISC WITHOUT
                                       657  *      TAKING A RECOVERY DUMP. (X0=3 UPON RETURN FROM XDELTA TO
                                       658  *      HFA$FAULT OR SCREECH)
                                       659  *   .  XDELTA 'QUIT' COMMAND TO FORCE RECOVERY. (X0=2 UPON RETURN
                                       660  *      FROM XDELTA TO HFA$FAULT OR SCREECH)
                                       661  *      (X0=1 WHEN XDELTA 'GO' COMMAND IS TYPED TO RETURN TO A SPECIFIC
                                       662  *      IC OR THE CALLER OF SCREECH)
                                       663  *      (X0=0 WHEN XDELTA 'GOTRAP' COMMAND IS USED TO CONTINUE FAULT
                                       664  *      PROCESSING)
                                       665  *   .  XDELTA USES  DRL -4   TO RETURN TO AARDVARK TO WRITE OUT THE
                                       666  *      PATCHED MONITOR ETC.
                                       667  *   .  XDELTA USES  DRL -3   AFTER A 'TBOOT' COMMAND TO REREAD EVERY
                                       668  *      THING BUT AARDVARK FROM PO TAPE.
                                       669  *   .  INITIALIZE & CLEAR BUTTON DEPRESSED FOLLOWED BY EITHER AN
                                       670  *      EXECUTE FAULT, DEPRESS BOOT BUTTON WITH NO TAPE MOUNTED OR,
                                       671  *      A  TRA .20  EXECUTED FROM DATA SWITCHES TO READ AARDVARK FROM
                                       672  *      DISC AND REREAD MONITOR ETC.
                                       673  *
                                       674  *
                                       675         INHIB   ON
   016000 (2)023414 7102 00            676         TRA     MINIQM          TRANSFER VECTOR FOR MON ISR.
 22:48 07/29/97  FILE=ISI$BOOT.:E05TSI        C P 6 - B O O T S U B R                                    28   BMAP - B00
   016001 (2)023552 7102 00            677         TRA     MINIQX          TRANSFER VECTOR FOR XDEL ISR
   016002 (2)022036 7102 00            678  RSTART TRA     RCVR            TRANSFER VECTOR FOR SCREECH
   016003 (2)022324 7102 00            679  GOLOOP TRA     LOOP            TRANSFER VECTOR FOR CP6 ETC.
   016004  X 000000 7102 00            680         TRA     IRR$RECOVER
   016005    000000000000              681  OK2WRVID OCT   0               N.Z. -> OKAY TO WRITE G.VID
                                       682  *
   016006    000000000000              683  DEBUG  OCT     0               N.Z. -> DEBUG MODE
   016007                              684  PATCH  NULL
                                       685         DETAIL  OFF
                                       686         DUP     1,200
   016007    000000000000              687         OCT     0
                                       688         DETAIL  ON
                                       689  *
                                       690         INHIB   OFF
                                       691  *

 22:48 07/29/97  FILE=ISI$BOOT.:E05TSI        A A R D V A R K  -  P O I N T E R S                        29   BMAP - B00
                                       692         TTLS    A A R D V A R K  -  P O I N T E R S
                                       693  *
                                       694  *  PL6 POINTERS FOR AARDVARK'S L.S.
                                       695  *
   016317    00000000 6000             696  I$AIS$ VFD     24/0,O12/S.AIS   AARDVARK'S ISR
   016320    00000000 6001             697  I$AIS.T$ VFD   24/0,O12/S.AIS.T  AARDVARK'S ISR FOR TIGR'S USE
   016321    00000000 6002             698  I$MONLS$ VFD   24/0,O12/S.MONLS     MON'S LSR
   016322    00000000 6003             699  I$PPUT$ VFD    24/0,O12/S.PPUT      FRAME'S MM_PPUT
   016323    00000000 6004             700  I$TEMP$ VFD    24/0,O12/S.TEMP     TEMP DESC FOR BOUNDS CHECKING ETC.
   016324    00000000 6005             701  I$MEM$ VFD     24/0,O12/S.MEM      USED TO CALCULATE MEMORY SIZE
   016325    00000000 6006             702  I$PO$  VFD     24/0,O12/S.PO      FRAME'S PO TAPE BLOCKS
   016326    00000000 6007             703  I$OUH$ VFD     24/0,O12/S.OUH     FRAME'S DEBUG SCHEMA OU HEADERS
                                       704  *
                                       705  *  PO STUFF
                                       706  *
   016327    00000000 6010             707  I$TYP0$ VFD    24/0,O12/S.TYP0    MINID REQUIRES EXTRA POINTER
   016330    00000000 6010             708  I$XLS$ VFD     24/0,O12/S.XLS   X-DELTA LS
   016331    00000000 6011             709  I$XIS$ VFD     24/0,O12/S.XIS     X-DELTA  IS
   016332    00000000 6012             710  I$HJIT$ VFD    24/0,O12/S.HJIT    MON HJIT
   016333    00000000 6013             711  I$MOND$ VFD    24/0,O12/S.MOND     MON DATA
   016334    00000000 6014             712  I$MONP$ VFD    24/0,O12/S.MONP    MON PROC (ROOT)
   016335    00000000 6015             713  I$ENTD$ VFD    24/0,O12/S.ENTD     ENTDEFS
   016336    00000000 6016             714  I$SYMD$ VFD    24/0,O12/S.SYMD     SYMDEFS
   016337    00000000 6017             715  I$DEFN$ VFD    24/0,O12/S.DEFN     DEFNAMES
   016340    00000000 6020             716  I$SCH$ VFD     24/0,O12/S.SCH      DEBUG SCHEMAS
   016341    00000000 6021             717  I$G1RO$ VFD    24/0,O12/S.G1RO    GHOST1 ROSEG
   016342    00000000 6022             718  I$G1D$ VFD     24/0,O12/S.G1D      GHOST1 DATA
   016343    00000000 6023             719  I$G1P$ VFD     24/0,O12/S.G1P     GHOST1 PROC
   016344    00000000 6024             720  I$ENTD1$ VFD   24/0,O12/S.ENTD1 ALTERNATE ENTDEFS
   016345    00000000 6025             721  I$SYMD1$ VFD   24/0,O12/S.SYMD1 ALTERNATE SYMDEFS
   016346    00000000 6026             722  I$DEFN1$ VFD   24/0,O12/S.DEFN1 ALTERNATE DEFNAMES
   016347    00000000 6027             723  I$ASCH$  VFD   24/0,O12/S.ASCH  ALTERNATE SCHEMA
   016350    00000000 6030             724  I$TIGR$ VFD    24/0,O12/S.TIGR TIGR MISCELLANEOUS
   016351                              725  I$PATCH$ NULL                     PATCHES - SYMBOL DEFINITION ONLY
                                       726  *
                                       727  * END OF PO STUFF
                                       728  *
 22:48 07/29/97  FILE=ISI$BOOT.:E05TSI        A A R D V A R K  -  P O I N T E R S                        30   BMAP - B00
   016351    00000000 6050             729  I$MONIS$ VFD   24/0,O12/S.MONIS MON IS
   016352    00000000 6051             730  I$G1IS$ VFD    24/0,O12/S.G1IS      GHOST1 IS
   016353    00000000 6052             731  I$JIT$ VFD     24/0,O12/S.JIT      MON JIT
   016354    00000000 6053             732  I$JIT1$ VFD    24/0,O12/S.JIT1    GHOST1 JIT
   016355    00000000 6054             733  I$HJIT1$ VFD   24/0,O12/S.HJIT1    GHOST1 HJIT
   016356    00000000 6055             734  I$SST$ VFD     24/0,O12/S.SST       AARDVARK SAFE STORE
   016357    00000000 6056             735  I$SSS$ VFD     24/0,O12/S.SSS     MON SAFE STORE
   016360    00000000 6057             736  I$SSS1$ VFD    24/0,O12/S.SSS1    GHOST1 SAFE STORE
   016361    00000000 6060             737  I$TSTK$ VFD    24/0,O12/S.TSTK     MON TSTACK
   016362    00000000 6061             738  I$TSTK1$ VFD   24/0,O12/S.TSTK1    GHOST1 TSTACK
   016363    00000000 6062             739  I$ASTK$ VFD    24/0,O12/S.ASTK      MON ASTACK
   016364    00000000 6063             740  I$ASTK1$ VFD   24/0,O12/S.ASTK1    GHOST1 ASTACK
   016365    00000000 6064             741  I$SCH0$ VFD    24/0,O12/S.SCH0 SCHEMA DEBUG RECORD
   016366    00000000 6065             742  I$SCH1$ VFD    24/0,O12/S.SCH1 SCHEMA DEBUG RECORD
   016367    00000000 6066             743  I$SCH2$ VFD    24/0,O12/S.SCH2 SCHEMA DEBUG RECORD
   016370    00000000 6067             744  I$SCH3$ VFD    24/0,O12/S.SCH3 SCHEMA DEBUG RECORD
   016371    00000000 6070             745  I$SCH4$ VFD    24/0,O12/S.SCH4 SCHEMA DEBUG RECORD
   016372    00000000 6071             746  I$SCH5$ VFD    24/0,O12/S.SCH5 SCHEMA DEBUG RECORD
   016373    00000000 6072             747  I$SCH6$ VFD    24/0,O12/S.SCH6 SCHEMA DEBUG RECORD
   016374    00000000 6073             748  I$SCH7$ VFD    24/0,O12/S.SCH7 SCHEMA DEBUG RECORD
   016375    00000000 6074             749  I$SCH8$ VFD    24/0,O12/S.SCH8 SCHEMA DEBUG RECORD
   016376    00000000 6075             750  I$SCH9$ VFD    24/0,O12/S.SCH9 SCHEMA DEBUG RECORD
   016377    00000000 6076             751  I$SCH10$ VFD   24/0,O12/S.SCH10 SCHEMA DEBUG RECORD
   016400    00000000 6077             752  I$SCH11$ VFD   24/0,O12/S.SCH11 SCHEMA DEBUG RECORD
   016401    00000000 6100             753  I$ASCH0$ VFD   24/0,O12/S.ASCH0 ALTERNATE SCHEMA DEBUG RECORD
   016402    00000000 6101             754  I$ASCH1$ VFD   24/0,O12/S.ASCH1 ALTERNATE SCHEMA DEBUG RECORD
   016403    00000000 6102             755  I$ASCH2$ VFD   24/0,O12/S.ASCH2 ALTERNATE SCHEMA DEBUG RECORD
   016404    00000000 6103             756  I$ASCH3$ VFD   24/0,O12/S.ASCH3 ALTERNATE SCHEMA DEBUG RECORD
   016405    00000000 6104             757  I$ASCH4$ VFD   24/0,O12/S.ASCH4 ALTERNATE SCHEMA DEBUG RECORD
   016406    00000000 6105             758  I$ASCH5$ VFD   24/0,O12/S.ASCH5 ALTERNATE SCHEMA DEBUG RECORD
   016407    00000000 6106             759  I$ASCH6$ VFD   24/0,O12/S.ASCH6 ALTERNATE SCHEMA DEBUG RECORD
   016410    00000000 6107             760  I$ASCH7$ VFD   24/0,O12/S.ASCH7 ALTERNATE SCHEMA DEBUG RECORD
   016411    00000000 6110             761  I$ASCH8$ VFD   24/0,O12/S.ASCH8 ALTERNATE SCHEMA DEBUG RECORD
   016412    00000000 6111             762  I$ASCH9$ VFD   24/0,O12/S.ASCH9 ALTERNATE SCHEMA DEBUG RECORD
   016413    00000000 6112             763  I$ASCH10$ VFD  24/0,O12/S.ASCH10 ALTERNATE SCHEMA DEBUG RECORD
   016414    00000000 6113             764  I$ASCH11$ VFD  24/0,O12/S.ASCH11 ALTERNATE SCHEMA DEBUG RECORD
   016415    00000000 6114             765  I$MPGTBL$ VFD  24/0,012/S.MPGTBL       MONITOR PAGE TABLE
 22:48 07/29/97  FILE=ISI$BOOT.:E05TSI        A A R D V A R K  -  P O I N T E R S                        31   BMAP - B00
   016416    00000000 6115             766  I$G1PGTBL$ VFD 24/0,012/S.G1PGTBL      GHOST1 PAGE TABLE
   016417    00000000 6116             767  I$CPIS$ VFD    24/0,O12/S.CPIS      COMMAND PROCESSOR IS
   016420    00000000 6117             768  I$CPPT$ VFD    24/0,O12/S.CPPT     COMMAND PROCESSOR PAGE TABLE
   016421    00000000 6120             769  I$SSSU$ VFD    24/0,O12/S.SSSU     USER SAFE STORE
   016422    00000000 6121             770  I$TSTKU$ VFD   24/0,O12/S.TSTKU    USER TSTACK
   016423    00000000 6122             771  I$ASTKU$ VFD   24/0,O12/S.ASTKU     USER ASTACK
   016424    00000000 6123             772  I$JITU$ VFD    24/0,O12/S.JITU      USER JIT
   016425    00000000 6124             773  I$UPGTBL$ VFD  24/0,012/S.UPGTBL       USER PAGE TABLE
   016426    00000000 6125             774  I$HJITU$ VFD   24/0,O12/S.HJITU    USER HJIT
   016427    00000000 6126             775  I$UIS$ VFD     24/0,O12/S.UIS       USER IS
   016430    00000000 6127             776  I$LS$  VFD     24/0,O12/S.LS   AARDVARK'S LS
   016431    00000000 6130             777  I$MLS$ VFD     24/0,O12/S.MLS     MAPPED MON LS
   016432    00000000 6131             778  I$ULS$ VFD     24/0,O12/S.ULS     MAPPED USER LS
   016433    00000000 6132             779  I$DLS$ VFD     24/0,O12/S.DLS     MAPPED DEBUGGER LS (CURRENT USER)
   016434    00000000 6133             780  I$ALS$ VFD     24/0,O12/S.ALS     MAPPED ALT SHARED LIB (CURRENT USER)
   016435    00000000 6134             781  I$CLS$ VFD     24/0,O12/S.CLS     CP LS (CU)
   016436    00000000 6135             782  I$REAL$ VFD    24/0,O12/S.REAL    REAL DESC
   016437    00000000 6136             783  I$AUTO$ VFD    24/0,O12/S.AUTO AARDVARK AUTO FOR RECOVERY
   016440    00000000 6137             784  I$RV1$ VFD     24/0,O12/S.RV1  RECOVERY'S
   016441    00000000 6140             785  I$RV2$ VFD     24/0,O12/S.RV2  RECOVERY'S
   016442    00000000 6141             786  I$RV3$ VFD     24/0,O12/S.RV3  RECOVERY'S
   016443    00000000 6142             787  I$RV4$ VFD     24/0,O12/S.RV4  RECOVERY'S
   016444    00000000 6147             788  I$RV5$ VFD     24/0,O12/S.RV5  RECOVERY'S
   016445    00000000 6150             789  I$DUMMY$ VFD   24/0,O12/S.DUMMY DUMMY
   016446    00000000 0000             790  I$CHAIN$ VFD   24/0,O12/0        SEE MINIQ FOR SETUP
   016447  X 000000 00 6000            791  I$POBUF$ VFD   18/POBUF,6/0,O12/S.AIS  NEEDED BY MINIQR FOR PATCH CHECKING
   016450    00000000 6145             792  I$SEGTBL$ VFD  24/0,O12/S.SEGTBL   MON OVERLAY SEGMENT TABLE
   016451    00000000 6031             793  I$DEFDIR$ VFD  24/0,O12/S.DEFDIR   MON NODE INFO
   016452    00000000 6143             794  I$AAAUTO$ VFD  24/0,12/S.AAAUTO AARDVARK AUTO
                                       795  *

 22:48 07/29/97  FILE=ISI$BOOT.:E05TSI        A A R D V A R K  -  D E S C R I P T O R S                  32   BMAP - B00
                                       796         TTLS    A A R D V A R K  -  D E S C R I P T O R S
   016453    000000 0110 00            797         EVEN
   016454
   016454                              798  TGMISCDESC NULL                TIGR DESCRIPTOR
   016454    1777777 403 0 00          799         VFD    20/128*4096-1,O9/R,3/WSRM,4/0
   016455    0000 006100000            800         VFD    10/0,26/392*4096
                                       801  *  MONITOR SAFE STORE STACK DESCRIPTOR
   016456                              802  SSDMON NULL
   016456    003100 0 603 0 01         803         VFD     18/HJ.SSSSZM-16,2/0,O9/R+W,3/WSRM,4/1 BOUND,FLGS,WSR,TYPE
   016457    0000 00032500 0           804         VFD     10/0,24/V.HJIT*1024+HJ.SSS+16,2/0 0,BASE(BYTES)
                                       805  *  MONITOR SAFE STORE STACK DESCRIPTOR WITH EXTRA INITIAL FRAME
   016460                              806  SSDMONX NULL
   016460    003000 0 603 0 01         807         VFD     18/HJ.SSSSZM-16-64,2/0,O9/R+W,3/WSRM,4/1
   016461    0000 00032600 0           808         VFD     10/0,24/V.HJIT*1024+HJ.SSS+16+64,2/0
                                       809  *
                                       810  *  BISON SAFE STORE STACK DESCRIPTOR
   016462    000600 0 603 2 01         811  SSDESC VFD     18/64*6,2/0,O9/R+W,3/WSRX,4/1  BOUND,FLAGS,WSR,TYPE
   016463    0000 (2)00025370 0        812         VFD     10/0,24/SSTACK,2/0 0,BASE(BYTES)
   016464    000000000000              813  DSDESC OCT     0,0             DUMMY DSR DESCRIPTOR
   016465    000000000000
   016466    0000000 601 2 01          814  ASDESC VFD     20/0,O9/R+W-N,3/WSRX,4/1    BOUND,FLAGS,WSR,TYPE
   016467    0000 (2)00026170 0        815         VFD     10/0,24/ASTACK,2/0 0,BASE(BYTES)
   016470    000000000001              816  PSDESC OCT     1,0             DUMMY PSR DESCRIPTOR
   016471    000000000000
                                       817  *  I/O INTERRUPT ENTRY DESCRIPTOR
                                       818         EVEN
   016472 (2)023700 0 0000 2 13        819  IODESC VFD     18/IOINT,1/0,10/0,3/WSRX,4/11 ENTLOC,S,ISEGNO,WSR,TYPE
   016473    0322 (2)00016500 0        820         VFD     11/SZBLS,23/BSNLS,2/0 LBOUND,LBASE,(IN BYTES)
                                       821  *  FAULT ENTRY DESCRIPTOR USED WHEN TIGR CAUSES CONNECT FAULTS
   016474                              822  TGRDESC NULL
                                       823  *  NOTE ISEGNO=1
   016474 (2)023010 0 0001 0 13        824         VFD     18/MPINIT,1/0,10/1,3/WSRM,4/11 ENTLOC,S,ISEGNO,WSR,TYP
   016475    0322 (2)00016500 0        825         VFD     11/SZBLS,23/BSNLS,2/0  LBOUND,LBASE,(IN BYTES)
                                       826  *
   016476    000000000000              827  XDSSR  OCT     0,0             TEMP FOR XDELTA SSR
   016477    000000000000

 22:48 07/29/97  FILE=ISI$BOOT.:E05TSI        A A R D V A R K  -  L I N K A G E   S E G M E N T          33   BMAP - B00
                                       828         TTLS    A A R D V A R K  -  L I N K A G E   S E G M E N T
                                       829  *
                                       830  *  BEGIN BISON'S LINKAGE SEGMENT
                                       831  *
                                       832         EIGHT
   016500                              833  BSNLS  NULL
                                       834  *  INSTRUCTION SEGMENT DESCRIPTOR
   016500    3777777 717 2 00          835         VFD     20/MEMSIZ*4+3,O9/R+W+S+E+P,3/WSRX,4/0 BND(BYTES),FLG,WSR,TYPE
   016501    0000 000000000            836         VFD     10/0,26/0       0,BASE(BYTES)
                                       837  *  AARDVARK ISR DESC USED WHEN TIGR CAUSES CONNECT FAULTS(WSR=0)
   016502    3777777 717 0 00          838         VFD     20/MEMSIZ*4+3,O9/R+W+S+E+P,3/WSRM,4/0
   016503    0000 000000000            839         VFD     10/0,26/0
                                       840  *  DESCRIPTOR TO FRAME MON'S LINKAGE SEGMENT
   016504                              841  MONLSR NULL
   016504    000000000000              842         OCT     0,0             FILLED IN BEFORE CLIMBING TO MON
   016505    000000000000
   016506                              843  DESCPPUT NULL                  DESCRIPTOR TO FRAME MM_PPUT
   016506    000000 3 603 2 00         844         VFD     18/**,2/3,O9/R+W,3/WSRX,4/0
   016507    0000 00000000 0           845         VFD     10/0,24/**,2/0
                                       846  *   TEMPORARY DESCRIPTOR STORAGE USED FOR BOUNDS CHECKING ETC.
   016510                              847  TEMPD  NULL
   016510                              848  DESCTEMP       NULL
   016510    000000000000              849         OCT     0,0
   016511    000000000000
                                       850  *
   016512                              851  MEMDESC NULL                   USE TO CALCULATE HIPAGE
   016512    7777777 603 2 00          852         VFD     20/-1,O9/R+W,3/WSRX,4/0
   016513    0000 000000000            853         VFD     10/0,26/**      BASE GETS FILLED IN
                                       854  *
   016514                              855  PODESC NULL                    FRAME PO TAPE BLOCK DESTINATION
   016514    0007777 603 2 00          856         VFD     20/1024*4-1,O9/R+W,3/WSRX,4/0
   016515    0000 000000000            857         VFD     10/0,26/**      BASE CHANGES WITH EACH BLOCK READ
                                       858  *
   016516                              859  OUHDESC NULL                   FRAME DEBUG SCHEMA OU HEADERS
   016516    7777777 603 2 00          860         VFD     20/-1,O9/R+W,3/WSRX,4/0
   016517    0000 000000000            861         VFD     10/0,26/**
                                       862  *
 22:48 07/29/97  FILE=ISI$BOOT.:E05TSI        A A R D V A R K  -  L I N K A G E   S E G M E N T          34   BMAP - B00
                                       863  *
                                       864  *  MINI-XDELTA DESCRIPTOR DESCRIPTORS
                                       865         EVEN                    MAKE SURE WE'RE STILL THERE
   016520                              866  DESC0  NULL
   016520                              867  DESCXL NULL                    X-DELTA L.S./S.S.S
   016520    000000000000              868         OCT     0,0             DESCRIPTOR 10 -> X-DELTA LS/SSS
   016521    000000000000
   016522                              869  DESCXI NULL                    X-DELTA ISR
   016522    000000000000              870         OCT     0,0             DESCRIPTOR 11 -> X-DELTA ISR
   016523    000000000000
   016524                              871  DESCH  NULL                    HJIT DESCRIPTOR
   016524    000000000000              872         OCT     0,0             DESCRIPTOR 12 -> MON HJIT
   016525    000000000000
   016526                              873  DESCMD NULL
   016526    000000000000              874         OCT     0,0             DESCRIPTOR 13 -> MON DATA
   016527    000000000000
   016530                              875  DESCMP NULL
   016530    000000000000              876         OCT     0,0             DESCRIPTOR 14 -> MON PROC
   016531    000000000000
   016532                              877  DESCENT NULL                   ENTDEFS
   016532    000000000000              878         OCT     0,0             DESCRIPTOR 15 -> ENTDEFS
   016533    000000000000
   016534                              879  DESCSYM NULL                   SYMDEFS
   016534    000000000000              880         OCT     0,0             DESCRIPTOR 16 -> SYMDEFS
   016535    000000000000
   016536                              881  DESCDEF NULL                   DEFNAMES
   016536    000000000000              882         OCT     0,0             DESCRIPTOR 17 -> DEFNAMES
   016537    000000000000
   016540                              883  DESCSCH NULL                   DEBUG SCHEMAS
   016540    000000000000              884         OCT     0,0             DESCRIPTOR 20-> DEBUG SCHEMA
   016541    000000000000
   016542                              885  DESCGR NULL                    GHOST1 ROSEG DESCRIPTOR
   016542    000000000000              886         OCT     0,0             DESCRIPTOR 21-> GHOST1 ROSEG
   016543    000000000000
   016544    000000000000              887         OCT     0,0             DESCRIPTOR 22 -> GHOST1 DATA
   016545    000000000000
   016546    000000000000              888         OCT     0,0             DESCRIPTOR 23 -> GHOST1 PROC
 22:48 07/29/97  FILE=ISI$BOOT.:E05TSI        A A R D V A R K  -  L I N K A G E   S E G M E N T          35   BMAP - B00
   016547    000000000000
   016550    000000000000              889  DESCENT1 OCT   0,0             ALT ENTDEFS - DESC 24
   016551    000000000000
   016552    000000000000              890  DESCSYM1 OCT   0,0             ALT SYMDEFS - DESC 25
   016553    000000000000
   016554    000000000000              891  DESCDEF1 OCT   0,0             ALT DEFNAMES(26)
   016555    000000000000
   016556    000000000000              892  DESCASCH OCT   0,0             ALT DEBUG SCHEMA(27)
   016557    000000000000
   016560    000000000000              893         OCT     0,0             TIGR MISCELLANEOUS(30)
   016561    000000000000
   016562                              894  DESCDDIR NULL                  DESC(31)
   016562    000000000000              895         OCT     0,0             MON NODE INFO
   016563    000000000000
          (2)000000016562              896  DESCL  EQU     *-2             LAST PO DESCRIPTOR
   016564                              897  DESCMP1 NULL
   016564    000000000000              898         OCT     0,0             DESCRIPTOR 32-> MON PROC(OVERLAY SEG 1)
   016565    000000000000
   016566                              899  DESCMP2 NULL
   016566    000000000000              900         OCT     0,0             DESCRIPTOR 33-> MON PROC(OVERLAY SEG 2)
   016567    000000000000
   016570                              901  DESCMP3 NULL
   016570    000000000000              902         OCT     0,0             DESCRIPTOR 34-> MON PROC(OVERLAY SEG 3)
   016571    000000000000
   016572                              903  DESCMP4 NULL
   016572    000000000000              904         OCT     0,0             DESCRIPTOR 35-> MON PROC(OVERLAY SEG 4)
   016573    000000000000
   016574                              905  DESCMP5 NULL
   016574    000000000000              906         OCT     0,0             DESCRIPTOR 36-> MON PROC(OVERLAY SEG 5)
   016575    000000000000
   016576                              907  DESCMP6 NULL
   016576    000000000000              908         OCT     0,0             DESCRIPTOR 37 ->MON PROC(OVERLAY SEG 6)
   016577    000000000000
   016600                              909  DESCMP7 NULL
   016600    000000000000              910         OCT     0,0             DESCRIPTOR 40 ->MON PROC(OVERLAY SEG 7)
   016601    000000000000
   016602                              911  DESCMP8 NULL
 22:48 07/29/97  FILE=ISI$BOOT.:E05TSI        A A R D V A R K  -  L I N K A G E   S E G M E N T          36   BMAP - B00
   016602    000000000000              912         OCT     0,0             DESCRIPTOR 41 ->MON PROC(OVERLAY SEG 8)
   016603    000000000000
   016604                              913  DESCMP9 NULL
   016604    000000000000              914         OCT     0,0             DESCRIPTOR 42 ->MON PROC(OVERLAY SEG 9)
   016605    000000000000
   016606                              915  DESCMP10 NULL
   016606    000000000000              916         OCT     0,0             DESCRIPTOR 43->MON PROC(OVERLAY SEG 10)
   016607    000000000000
   016610                              917  DESCMP11 NULL
   016610    000000000000              918         OCT     0,0             DESCRIPTOR 44->MON PROC(OVERLAY SEG 11)
   016611    000000000000
   016612                              919  DESCMP12 NULL
   016612    000000000000              920         OCT     0,0             DESCRIPTOR 45->MON PROC(OVERLAY SEG 12)
   016613    000000000000
   016614                              921  DESCMP13 NULL
   016614    000000000000              922         OCT     0,0             DESCRIPTOR 46->MON PROC(OVERLAY SEG 13)
   016615    000000000000
   016616                              923  DESCMP14 NULL
   016616    000000000000              924         OCT     0,0             DESCRIPTOR 47->MON PROC(OV SEG 14)
   016617    000000000000
   016620                              925  DESCMI NULL                    MON ISR DESCRIPTOR
   016620    000000000000              926         OCT     0,0             DESCRIPTOR 50 -> MON ISR
   016621    000000000000
   016622                              927  DESCGI NULL                    GHOST1 ISR DESCRIPTOR
   016622    000000000000              928         OCT     0,0             DESCRIPTOR AB -> GHOST1 ISR(51)
   016623    000000000000
   016624                              929  DESC99 NULL                    JUST A LABEL
             000000000104              930  DSCSZ0 EQU     DESC99-DESC0
                                       931  *  MONITOR JIT DESCRIPTOR
   016624                              932  DESCJ  NULL                    MON JIT DESCRIPTOR (2 PAGES)(52)
   016624    0017777 603 2 00          933         VFD     20/2048*4-1,O9/R+W,3/WSRX,4/0 BOUND,FLAGS,WSR,TYP
   016625    000000000000              934         OCT     0               BASE TO BE FILLED IN
                                       935  *  GHOST1  JIT DESCRIPTOR
   016626                              936  DESCJ1 NULL                    GHOST1 JIT DESCRIPTOR (1 PAGE)(53)
   016626    0017777 603 2 00          937         VFD     20/2048*4-1,O9/R+W,3/WSRX,4/0 BOUND,FLAGS,WSR,TYP
   016627    000000000000              938         OCT     0               BASE TO BE FILLED IN
                                       939  *  GHOST1 HJIT DESCRIPTOR
 22:48 07/29/97  FILE=ISI$BOOT.:E05TSI        A A R D V A R K  -  L I N K A G E   S E G M E N T          37   BMAP - B00
   016630                              940  DESCH1 NULL                    GHOST1 HJIT DESCRIPTOR(54)
   016630    0007777 603 2 00          941         VFD     20/1024*4-1,O9/R+W,3/WSRX,4/0
   016631    000000000000              942         OCT     0               BASE TO BE FILLED IN
                                       943  *  BISON   SAFE STORE STACK DESCRIPTOR
   016632                              944  DESCS  NULL                    DESC(55)
   016632    000600 0 603 2 00         945         VFD     18/64*6,2/0,O9/R+W,3/WSRX,4/0 BOUND,FLAGS,WSR,TYP
   016633    0000 (2)00025370 0        946         VFD     10/0,24/SSTACK,2/0 BASE
                                       947  *  MONITOR SAFE STORE STACK DESCRIPTOR
   016634                              948  DESCSM NULL                    DESC(56)
   016634    003120 0 603 2 00         949         VFD     18/HJ.SSSSZM,2/0,O9/R+W,3/WSRX,4/0
   016635    000000000000              950         OCT     0               BASE TO BE FILLED IN
                                       951  *   GHOST1 SAFE STORE STACK DESCRIPTOR
   016636                              952  DESCS1 NULL                    DESC(57)
   016636    001120 0 603 2 00         953         VFD     18/HJ.SSSSZ,2/0,O9/R+W,3/WSRX,4/0
   016637    000000000000              954         OCT     0               BASE TO BE FILLED IN
                                       955  *  MONITOR TSTACK DESCRIPTOR
   016640                              956  DESCTM NULL                    DESC(60)
   016640    0014577 603 2 00          957         VFD     20/4*TSSZ-4*170-1,O9/R+W,3/WSRX,4/0
   016641    000000000000              958         OCT     0               BASE TO BE FILLED IN
                                       959  *   GHOST1 TSTACK DESCRIPTOR
   016642                              960  DESCT1 NULL                    DESC(61)
   016642    0016047 603 2 00          961         VFD     20/4*TSSZ-1,O9/R+W,3/WSRX,4/0
   016643    000000000000              962         OCT     0               BASE TO BE FILLED IN
                                       963  *  MONITOR ARGUMENT STACK DESCRIPTOR
   016644                              964  DESCAM NULL                    DESC(62)
   016644    0000777 603 2 00          965         VFD     20/4*HJ.ASSZ-1,O9/R+W,3/WSRX,4/0
   016645    000000000000              966         OCT     0               BASE TO BE FILLED IN
                                       967  *   GHOST1 ARGUMENT STACK DESCRIPTOR
   016646                              968  DESCA1 NULL                    DESC(63)
   016646    0000777 603 2 00          969         VFD     20/4*HJ.ASSZ-1,O9/R+W,3/WSRX,4/0
   016647    000000000000              970         OCT     0               BASE TO BE FILLED IN
                                       971  *
                                       972  *   DESCSCH0 THRU DESCSCH11 FRAME DEBUG SCHEMA OU RECORDS
                                       973  *
   016650                              974  DESCSCH0 NULL                  DESC(64)
   016650    0000003 603 2 00          975         VFD     20/3,O9/R+W,3/WSRX,4/0  BOUND GETS FILLED IN
   016651    000000000000              976         OCT     0               BASE GETS FILLED IN
 22:48 07/29/97  FILE=ISI$BOOT.:E05TSI        A A R D V A R K  -  L I N K A G E   S E G M E N T          38   BMAP - B00
   016652                              977  DESCSCH1 NULL                  DESC(65)
   016652    0000003 603 2 00          978         VFD     20/3,O9/R+W,3/WSRX,4/0  BOUND GETS FILLED IN
   016653    000000000000              979         OCT     0               BASE GETS FILLED IN
   016654                              980  DESCSCH2 NULL                  DESC(66)
   016654    0000003 603 2 00          981         VFD     20/3,O9/R+W,3/WSRX,4/0  BOUND GETS FILLED IN
   016655    000000000000              982         OCT     0               BASE GETS FILLED IN
   016656                              983  DESCSCH3 NULL                  DESC(67)
   016656    0000003 603 2 00          984         VFD     20/3,O9/R+W,3/WSRX,4/0  BOUND GETS FILLED IN
   016657    000000000000              985         OCT     0               BASE GETS FILLED IN
   016660                              986  DESCSCH4 NULL                  DESC(70)
   016660    0000003 603 2 00          987         VFD     20/3,O9/R+W,3/WSRX,4/0  BOUND GETS FILLED IN
   016661    000000000000              988         OCT     0               BASE GETS FILLED IN
   016662                              989  DESCSCH5 NULL                  DESC(71)
   016662    0000003 603 2 00          990         VFD     20/3,O9/R+W,3/WSRX,4/0  BOUND GETS FILLED IN
   016663    000000000000              991         OCT     0               BASE GETS FILLED IN
   016664                              992  DESCSCH6 NULL                  DESC(72)
   016664    0000003 603 2 00          993         VFD     20/3,O9/R+W,3/WSRX,4/0  BOUND GETS FILLED IN
   016665    000000000000              994         OCT     0               BASE GETS FILLED IN
   016666                              995  DESCSCH7 NULL                  DESC(73)
   016666    0000003 603 2 00          996         VFD     20/3,O9/R+W,3/WSRX,4/0  BOUND GETS FILLED IN
   016667    000000000000              997         OCT     0               BASE GETS FILLED IN
   016670                              998  DESCSCH8 NULL                  DESC(74)
   016670    0000003 603 2 00          999         VFD     20/3,O9/R+W,3/WSRX,4/0  BOUND GETS FILLED IN
   016671    000000000000             1000         OCT     0               BASE GETS FILLED IN
   016672                             1001  DESCSCH9 NULL                  DESC(75)
   016672    0000003 603 2 00         1002         VFD     20/3,O9/R+W,3/WSRX,4/0  BOUND GETS FILLED IN
   016673    000000000000             1003         OCT     0               BASE GETS FILLED IN
   016674                             1004  DESCSCH10 NULL                 DESC(76)
   016674    0000003 603 2 00         1005         VFD     20/3,O9/R+W,3/WSRX,4/0  BOUND GETS FILLED IN
   016675    000000000000             1006         OCT     0               BASE GETS FILLED IN
   016676                             1007  DESCSCH11 NULL                 DESC(77)
   016676    0000003 603 2 00         1008         VFD     20/3,O9/R+W,3/WSRX,4/0  BOUND GETS FILLED IN
   016677    000000000000             1009         OCT     0               BASE GETS FILLED IN
                                      1010  *
                                      1011  *   DESCASCH0 THRU DESCASCH11 FRAME ALTERNATE DEBUG SCHEMA OU RECORDS
                                      1012  *
   016700                             1013  DESCASCH0 NULL                 DESC(100)
 22:48 07/29/97  FILE=ISI$BOOT.:E05TSI        A A R D V A R K  -  L I N K A G E   S E G M E N T          39   BMAP - B00
   016700    0000003 603 2 00         1014         VFD     20/3,O9/R+W,3/WSRX,4/0  BOUND GETS FILLED IN
   016701    000000000000             1015         OCT     0               BASE GETS FILLED IN
   016702                             1016  DESCASCH1 NULL                 DESC(101)
   016702    0000003 603 2 00         1017         VFD     20/3,O9/R+W,3/WSRX,4/0  BOUND GETS FILLED IN
   016703    000000000000             1018         OCT     0               BASE GETS FILLED IN
   016704                             1019  DESCASCH2 NULL                 DESC(102)
   016704    0000003 603 2 00         1020         VFD     20/3,O9/R+W,3/WSRX,4/0  BOUND GETS FILLED IN
   016705    000000000000             1021         OCT     0               BASE GETS FILLED IN
   016706                             1022  DESCASCH3 NULL                 DESC(103)
   016706    0000003 603 2 00         1023         VFD     20/3,O9/R+W,3/WSRX,4/0  BOUND GETS FILLED IN
   016707    000000000000             1024         OCT     0               BASE GETS FILLED IN
   016710                             1025  DESCASCH4 NULL                 DESC(104)
   016710    0000003 603 2 00         1026         VFD     20/3,O9/R+W,3/WSRX,4/0  BOUND GETS FILLED IN
   016711    000000000000             1027         OCT     0               BASE GETS FILLED IN
   016712                             1028  DESCASCH5 NULL                 DESC(105)
   016712    0000003 603 2 00         1029         VFD     20/3,O9/R+W,3/WSRX,4/0  BOUND GETS FILLED IN
   016713    000000000000             1030         OCT     0               BASE GETS FILLED IN
   016714                             1031  DESCASCH6 NULL                 DESC(106)
   016714    0000003 603 2 00         1032         VFD     20/3,O9/R+W,3/WSRX,4/0  BOUND GETS FILLED IN
   016715    000000000000             1033         OCT     0               BASE GETS FILLED IN
   016716                             1034  DESCASCH7 NULL                 DESC(107)
   016716    0000003 603 2 00         1035         VFD     20/3,O9/R+W,3/WSRX,4/0  BOUND GETS FILLED IN
   016717    000000000000             1036         OCT     0               BASE GETS FILLED IN
   016720                             1037  DESCASCH8 NULL                 DESC(110)
   016720    0000003 603 2 00         1038         VFD     20/3,O9/R+W,3/WSRX,4/0  BOUND GETS FILLED IN
   016721    000000000000             1039         OCT     0               BASE GETS FILLED IN
   016722                             1040  DESCASCH9 NULL                 DESC(111)
   016722    0000003 603 2 00         1041         VFD     20/3,O9/R+W,3/WSRX,4/0  BOUND GETS FILLED IN
   016723    000000000000             1042         OCT     0               BASE GETS FILLED IN
   016724                             1043  DESCASCH10 NULL                DESC(112)
   016724    0000003 603 2 00         1044         VFD     20/3,O9/R+W,3/WSRX,4/0  BOUND GETS FILLED IN
   016725    000000000000             1045         OCT     0               BASE GETS FILLED IN
   016726                             1046  DESCASCH11 NULL                DESC(113)
   016726    0000003 603 2 00         1047         VFD     20/3,O9/R+W,3/WSRX,4/0  BOUND GETS FILLED IN
   016727    000000000000             1048         OCT     0               BASE GETS FILLED IN
                                      1049  *  MONITOR PAGE TABLE DESCRIPTOR
   016730                             1050  DESCMPT NULL                   DESC(114)
 22:48 07/29/97  FILE=ISI$BOOT.:E05TSI        A A R D V A R K  -  L I N K A G E   S E G M E N T          40   BMAP - B00
   016730    0127777 603 2 00         1051         VFD     20/1024*4*11-1,O9/R+W,3/WSRX,4/0 BOUND,FLAGS,WSR,TYP
   016731    000000000000             1052         OCT     0               BASE TO BE FILLED IN
                                      1053  *  GHOST1 PAGE TABLE DESCRIPTOR
   016732                             1054  DESCGPT NULL                   DESC(115)
   016732    0007777 603 2 00         1055         VFD     20/1024*4-1,O9/R+W,3/WSRX,4/0 BOUND,FLAGS,WSR,TYP
   016733    000000000000             1056         OCT     0               BASE TO BE FILLED IN
                                      1057  *   COMMAND PROCESSOR ISR(MAPPED THRU WSRCP)
   016734                             1058  DESCCP NULL                    DESC(116)
   016734    7777777 603 4 00         1059         VFD     20/-1,O9/R+W,3/WSRCP,4/0 CAUTION...BOUND IS ALWAYS 256K
   016735    0000 00002000 0          1060         VFD     10/0,24/1*1024,2/0 BASE IS VIRTUAL PAGE#1
                                      1061  *   COMMAND PROCESSOR PAGE TABLE(MAPPED VIA WSRCP)
   016736                             1062  DESCCPPT NULL                  DESC(117)
   016736    0007777 603 4 00         1063         VFD     20/1024*4-1,O9/R+W,3/WSRCP,4/0
   016737    0000 00000000 0          1064         VFD     10/0,24/0*1024,2/0  BASE IS VIRTUAL PAGE#0
                                      1065  *   CURRENT USER SAFE STORE STACK DESCRIPTOR
   016740                             1066  DESCSU NULL                    DESC(120)
   016740    001120 0 603 7 00        1067         VFD     18/HJ.SSSSZ,2/0,O9/R+W,3/WSRU,4/0
   016741    0000 00032460 0          1068         VFD     10/0,24/V.HJIT*1024+HJ.SSS,2/0
                                      1069  *   CURRENT USER TSTACK DESCRIPTOR
   016742                             1070  DESCTU NULL                    DESC(121)
   016742    0016047 603 7 00         1071         VFD     20/4*TSSZ-1,O9/R+W,3/WSRU,4/0
   016743    0000 00026366 0          1072         VFD     10/0,24/V.JIT*1024+J.TSTK,2/0
                                      1073  *   CURRENT USER ASTACK DESCRIPTOR
   016744                             1074  DESCAU NULL                    DESC(122)
   016744    0000777 603 7 00         1075         VFD     20/4*HJ.ASSZ-1,O9/R+W,3/WSRU,4/0
   016745    0000 00033600 0          1076         VFD     10/0,24/V.HJIT*1024+HJ.AS,2/0
                                      1077  *
   016746                             1078  DESCJU NULL                    JIT DESC CURRENT USER(MAPPED)DESC(123)
   016746    0007777 603 7 00         1079         VFD     20/1024*4-1,O9/R+W,3/WSRU,4/0
   016747    0000 00026000 0          1080         VFD     10/0,24/V.JIT*1024,2/0
                                      1081  * CURRENT USER(MAPPED) PAGE TABLE DESCRIPTOR
   016750                             1082  DESCUPT NULL                   DESC(124)
   016750    0007777 603 7 00         1083         VFD     20/1024*4-1,O9/R+W,3/WSRU,4/0
   016751    0000 00000000 0          1084         VFD     10/0,24/V.PGTBL*1024,2/0
   016752                             1085  DESCHU NULL                    HJIT DESC CURRENT USER(MAPPED)DESC(125)
   016752    0007777 603 7 00         1086         VFD     20/1024*4-1,O9/R+W,3/WSRU,4/0
   016753    0000 00032000 0          1087         VFD     10/0,24/V.HJIT*1024,2/0
 22:48 07/29/97  FILE=ISI$BOOT.:E05TSI        A A R D V A R K  -  L I N K A G E   S E G M E N T          41   BMAP - B00
   016754                             1088  DESCUI NULL                    ISR DESC CURRENT USER(MAPPED)DESC(126)
   016754    7777777 603 7 00         1089         VFD     20/-1,O9/R+W,3/WSRU,4/0  CAUTION...BOUND IS ALWAYS 256K
   016755    0000 00200000 0          1090         VFD     10/0,24/V.ISR*1024,2/0
                                      1091  *
   016756                             1092  DESCAALS NULL                  AARDVARK'S LINKAGE SEGMENT DESC(127)
   016756    000322 3 603 2 01        1093         VFD     18/SZBLS,2/3,O9/R+W,3/WSRX,4/1  TYPE=1
   016757    0000 (2)00016500 0       1094         VFD     10/0,24/BSNLS,2/0
                                      1095  *   MONITOR LINKAGE SEGMENT DESCRIPTOR (VIA WSRM)
   016760                             1096  DESCMLS NULL                   DESC(130)
   016760    0002277 603 0 01         1097         VFD     20/HJ.SSS*4-1,O9/R+W,3/WSRM,4/1  TYPE=1
   016761    0000 00032000 0          1098         VFD     10/0,24/V.HJIT*1024,2/0
                                      1099  *   USER    LINKAGE SEGMENT DESCRIPTOR (VIA WSRU)
   016762                             1100  DESCULS NULL                   DESC(131)
   016762    0002277 603 7 01         1101         VFD     20/HJ.SSS*4-1,O9/R+W,3/WSRU,4/1  TYPE=1
   016763    0000 00032000 0          1102         VFD     10/0,24/V.HJIT*1024,2/0
                                      1103  *   DEBUGGER LINKAGE SEGMENT DESCRIPTOR (VIA WSRU)
   016764                             1104  DESCDLS NULL                   DESC(132)
   016764    000347 3 603 7 01        1105         VFD     18/HJ.SSS-HJ.DLS-1,2/3,O9/R+W,3/WSRU,4/1 TYPE=1
   016765    0000 00032110 0          1106         VFD     10/0,24/V.HJIT*1024+HJ.DLS,2/0
                                      1107  *   ALT SHARED LIB LINKAGE SEGMENT DESCRIPTOR (VIA WSRU)
   016766                             1108  DESCALS NULL                   DESC(133)
   016766    000237 3 603 7 01        1109         VFD     18/HJ.SSS-HJ.ALS-1,2/3,O9/R+W,3/WSRU,4/1 TYPE=1
   016767    0000 00032220 0          1110         VFD     10/0,24/V.HJIT*1024+HJ.ALS,2/0
                                      1111  *   COMMAND PROCESSOR LINKAGE SEGMENT DESCRIPTOR (VIA WSRU)
   016770                             1112  DESCCLS NULL                   DESC(134)
   016770    000127 3 603 7 01        1113         VFD     18/HJ.SSS-HJ.CLS-1,2/3,O9/R+W,3/WSRU,4/1 TYPE=1
   016771    0000 00032330 0          1114         VFD     10/0,24/V.HJIT*1024+HJ.CLS,2/0
   016772                             1115  DESCRL NULL                    DESC USED TO ACCESS REAL MEM DESC(135)
   016772    7777777 603 2 00         1116         VFD     20/-1,O9/R+W,3/WSRX,4/0
   016773    000000000000             1117         OCT     0               BASE TO BE FILLED IN BY USE #
                                      1118  *RECOVERY AUTO DESCRIPTOR
   016774                             1119  RAUTO  NULL                    DESC(136)
   016774    000000000000             1120         OCT     0,0             FILLED IN BY IRR$RECOVER
   016775    000000000000
                                      1121  *  RECOVERY'S EXTRA DESCRIPTORS
   016776                             1122  DESCRV1 NULL                   DESC(137)
   016776    000000000000             1123         OCT     0,0
 22:48 07/29/97  FILE=ISI$BOOT.:E05TSI        A A R D V A R K  -  L I N K A G E   S E G M E N T          42   BMAP - B00
   016777    000000000000
   017000                             1124  DESCRV2 NULL                   DESC(140)
   017000    000000000000             1125         OCT     0,0
   017001    000000000000
   017002                             1126  DESCRV3 NULL                   DESC(141)
   017002    000000000000             1127         OCT     0,0
   017003    000000000000
   017004                             1128  DESCRV4 NULL                   DESC(142)
   017004    000000000000             1129         OCT     0,0
   017005    000000000000
                                      1130  * AARDVARK AUTO DESCRIPTOR
   017006                             1131  DESAAAUTO NULL                 DESC(143)
   017006    000000 3 603 2 00        1132         VFD     18/0,2/3,O9/R+W,3/WSRX,4/0
   017007  X 000000000000 0           1133         VFD     34/AUTOBUF,2/0
                                      1134  *   WS#0 PAGE TABLE DESCRIPTOR
   017010                             1135  DESCWS#0 NULL                  DESC(144)
   017010    000000 3 403 2 00        1136         VFD     18/0,2/3,09/R,3/WSRX,4/0
   017011    000000000000 0           1137         VFD     34/0,2/0
   017012                             1138  DESCSGT NULL                   DESC(145)
   017012    0007777 603 2 00         1139         VFD     20/1024*4-1,O9/R+W,3/WSRX,4/0  MON OVERLAY SEGMENT TABLE
   017013 (2)000000020000 0           1140         VFD     34/MSEGTBL,2/0
                                      1141  *  MONITOR SAFE STORE STACK DESCRIPTOR
   017014                             1142  DESCMONSSR NULL                DESC(146)
   017014    003100 0 603 0 00        1143         VFD     18/HJ.SSSSZM-16,2/0,O9/R+W,3/WSRM,4/0 BOUND,FLGS,WSR,TYPE
   017015    0000 00032500 0          1144         VFD     10/0,24/V.HJIT*1024+HJ.SSS+16,2/0 0,BASE(BYTES)
                                      1145  *  DUMMY DESCRIPTOR - FIELDS USED IN BUILDING ABOVE DESCORS
   017016                             1146  DESCRV5 NULL                   DESC(147)
   017016    000000000000             1147         OCT     0,0
   017017    000000000000
   017020                             1148  DESCD  NULL                    DESC(150)
   017020    0000003 617 2 00         1149         VFD     20/3,O9/R+W+E+P,3/WSRX,4/0 BOUND,FLAGS,WSR,TYP
   017021    000000000000             1150         OCT     0               BASE
             000000000322             1151  SZBLS  EQU     *-BSNLS         SIZE(WORDS) OF LINKAGE SEGMENT
                                      1152  *
                                      1153  *  END BISON'S LINKAGE SEGMENT
                                      1154  *

 22:48 07/29/97  FILE=ISI$BOOT.:E05TSI        A A R D V A R K  -  H E A D E R S   E T C .                43   BMAP - B00
                                      1155         TTLS    A A R D V A R K  -  H E A D E R S   E T C .
   017022    000000 0110 00           1156         ODD
   017023
                                      1157  *

 22:48 07/29/97  FILE=ISI$BOOT.:E05TSI        MON OVERLAY PAGE TBL SEGMENT DIRECTORY                     44   BMAP - B00
                                      1158         TTLS    MON OVERLAY PAGE TBL SEGMENT DIRECTORY
   017023    000755 7100 04           1159         PAGE
   020000
                                      1160  *
   020000                             1161  MSEGTBL NULL
   020000    000000000000             1162         OCT     0
   020001    000074 000000            1163         ZERO    60,0
                                      1164         DUP     1,13
   020002    000000000000             1165         OCT     0
   020003    000000000000
   020004    000000000000
   020005    000000000000
   020006    000000000000
   020007    000000000000
   020010    000000000000
   020011    000000000000
   020012    000000000000
   020013    000000000000
   020014    000000000000
   020015    000000000000
   020016    000000000000
                                      1166  *
                                      1167  * DUP 1,1009
                                      1168  * ZERO -1,12 (%FPMC)
                                      1169  *
                                      1170         DETAIL  OFF
                                      1171         DUP     1,1009
   020017    777777 000014            1172         ZERO    -1,12
                                      1173         DETAIL  ON
                                      1174  *
                                      1175  *   Cells reproducing reserved mem locations
   022000    000000000000             1176  CONS_INFO OCT  0
   022001    000000000000             1177  MEM_SZ OCT     0
   022002    000000000000             1178  XA_MODE OCT     0
   022003    000000000000             1179  CONFIG OCT     0
   022004    000000000000             1180  CONF_REG OCT   0
   022005    001774000000             1181  S1000_TRMM OCT 001774000000    Mask for terminate interrupts
 22:48 07/29/97  FILE=ISI$BOOT.:E05TSI        MON OVERLAY PAGE TBL SEGMENT DIRECTORY                     45   BMAP - B00
   022006    000000000000             1182  S1000_INTM OCT 0               Interrupts masks (according to config)
   022007    000000000000             1183  S1000_FLG OCT  0
   022010    000000000000             1184  RPM_FLG   OCT  0
   022011    000000000000             1185  RPM_BOOT_IDCW OCT 0
   022012    000000000000             1186  EPU_MODE OCT   0
                                      1187  *   Interrupt levels for IOPs
   022013    00 10 10 10 00 00 10 10 00 88  IOPM   VFD     4/0,4/8,4/8,4/8,4/0,4/0,4/8,4/8,4/0
   022014    00 04 04 04 00 00 04 04 00 89         VFD     4/0,4/4,4/4,4/4,4/0,4/0,4/4,4/4,4/0
   022015    00 02 02 02 00 00 02 02 00 90         VFD     4/0,4/2,4/2,4/2,4/0,4/0,4/2,4/2,4/0
   022016    00 01 01 01 00 00 01 01 00 91         VFD     4/0,4/1,4/1,4/1,4/0,4/0,4/1,4/1,4/0
                                      1192  *   Configuration Register info for IOPs
   022017    0 1 00000000000          1193  CONFIOP VFD    3/0,1/1,32/0
   022020    00 1 00000000000         1194         VFD     4/0,1/1,31/0
   022021    0000000 1 00000          1195         VFD     21/0,1/1,14/0
   022022    00000000 1 00000         1196         VFD     22/0,1/1,13/0
                                      1197  *
                                      1198  *

 22:48 07/29/97  FILE=ISI$BOOT.:E05TSI        C P 6 - B O O T S U B R                                    46   BMAP - B00
                                      1199         TTLS    C P 6 - B O O T S U B R
   022023    000000000000             1200  HIPAGE OCT     0               PAGE # OF HIGHEST PHY PAGE
   022024    000000000000             1201  HIAVPG OCT     0               PAGE # OF HIGHEST AVAIL PAGE ON S1000
   022025    000000000000             1202  GAP_SZ OCT     0               Size of the gap on RPM
                                      1203  *
                                      1204  *   MITCH'S_WATERING_HOLE.  LIVES AT M_W_H_LOC IN LOW MEMORY.
                                      1205  *
   022026                             1206  M_W_H  NULL
   022026 (2)022734 2370 00           1207         LDAQ    MWHFLTD         MOVE MITCH'S FAULT DESCRIPTOR
   022027    000032 7570 00           1208         STAQ    FLTLOC          TO FAULT LOCATION
   022030    777777 6350 00           1209         EAA     -1
   022031 (2)022416 7550 00           1210         STA     VIRGIN          SET DEBUG MODE FOR AARDVARK
   022032 (2)022724 7724 00           1211         LDWS    WSREGS          ASSURE WSR0=1.
   022033    000000000000             1212         OCT     0               ZOP
             000000000006             1213  M_W_H_SZ EQU   *-M_W_H
                                      1214  *
                                      1215  *    ENTER HERE AFTER
                                      1216  *      'Q' TO MINI
                                      1217  *      'DBOOT' TO MINI (AND SOMEDAY TO XDELTA)
                                      1218  *      'DB' AT TAPE BOOT
   022034                             1219  DBOOT  NULL
   022034 (2)022726 7724 00           1220         LDWS    WSREGS+2        LOAD WSR0-3 WITH 0 TO SIMULATE
   022035 (2)022445 7100 00           1221         TRA     REBOOT          BOOTLOAD
                                      1222  *
                                      1223  *   SCREECH COMES BACK HERE AFTER DUMP IF NOT SUA
                                      1224  *   IRR$RECOVER COMES BACK HERE INSTEAD OF SCREECH IF IT WAS
                                      1225  *   'OR' OR TRA .20
                                      1226  *
                                      1227         INHIB   ON
                                      1228  *
   022036                             1229  RCVR   NULL
   022036    040000 2352 03           1230         LDA     =O040000,DU     Init the flag
   022037  X 000000 7552 00           1231         STA     RCV_FLG
   022040 (2)022147 7102 00           1232         TRA     BOOTS1
                                      1233  *

 22:48 07/29/97  FILE=ISI$BOOT.:E05TSI        C P 6 - B O O T S U B R                                    47   BMAP - B00
                                      1234         EJECT
                                      1235  *
                                      1236  *  BOOTFLG HAS THE FOLLOWING VALUES
                                      1237  *
                                      1238  *  1 -> VOLINIT ONLY
                                      1239  *  2 -> TAPE BOOT  -  NEW FILES
                                      1240  *  3 -> TAPE BOOT  -  SYS FILES  -  NORECON
                                      1241  *  4 -> TAPE BOOT  -  NO FILES  -  NORECON
                                      1242  *  5 -> TAPE BOOT  -  SYS FILES - RECON
                                      1243  *  6 -> TAPE BOOT  -  NO FILES  -  RECON
                                      1244  *  7 -> DISK BOOT  -  NORECON
                                      1245  *  8 -> DISK BOOT  -  RECON
                                      1246  *  9 -> RECOVERY
                                      1247  * 10 -> RECOVERY (SEE LINDA)
                                      1248  * 11 -> RECOVERY (OPERATOR RECOVER VIA REBOOTING)
                                      1249  *
                                      1250  *  BIT 0 = 1 -> DELTA KEYINS ALLOWED
                                      1251  *
                                      1252  *
                                      1253  *   PRE-PREFAULT HANDLER
                                      1254  *   CHECK FOR WSR0 CONTAINING 0  ->  OPERATOR RECOVERY
                                      1255  *
   022041    000000 0112 00           1256         EVEN
   022042
   022042                             1257  PREPRE NULL
   022042    000001 5326 00           1258         CAMP    1               TURN OFF PTWAM FOR DIAG SNAP
   022043 (2)022740 7526 00           1259         STWS    TEMPDW          WSR0->WSR3
   022044 (2)022740 2272 00           1260         LDX7    TEMPDW          PICK UP WSR0,WSR1
   022045    777000 3672 03           1261         ANX7    =O777000,DU     MASK OFF WSR1
   022046 (2)022053 6002 00           1262         TZE     PREPRESB        WSR0=0 -> SIMULATED BOOT
   022047 (2)016431 4716 00           1263         LDP     DR.LS,I$MLS$    FRAME MON LS
   022050    1 00332 6717 00          1264         LDD     DR.LS,2*LS.FLT,,DR.LS   GET MON FAULT ENTRY DESC
   022051    000000 7134 00           1265         GOTO    DR.LS+=O1770    AND LTRAD TO MON FAULT HANDLER
   022052    0 000 000 23 1771
                                      1266  *
   022053                             1267  PREPRESB NULL
   022053    000002 5326 00           1268         CAMP    2               TURN ON PTWAM
 22:48 07/29/97  FILE=ISI$BOOT.:E05TSI        C P 6 - B O O T S U B R                                    48   BMAP - B00
   022054  X 000000 6202 00           1269         EAX0    RV_OPASCODE     SHOW OPERATOR RECOVER SCREECH
   022055 (2)022445 7102 00           1270         TRA     REBOOT          RELOAD AARDVARK FROM DISC
                                      1271  *
   022056                             1272  BOOTS  NULL                    START OF BOOTSUBR
   022056 (2)022416 2342 00           1273         SZN     VIRGIN          COMES HERE ON REAL BOOTLOADS
   022057 (2)022113 6002 00           1274         TZE     BOOTS0          TAPE BOOT....
                                      1275  *
   022060 (2)016472 2372 00           1276         LDAQ    IODESC          INITIALIZE FAULT ENTRY DSCR ON
   022061    000032 7572 00           1277         STAQ    FLTLOC          DISC BOOTS.
   022062    000040 7572 00           1278         STAQ    AFLTLC
   022063 (2)022042 6272 00           1279         EAX7    PREPRE          TO GO TO MONITOR.
   022064    000032 7472 00           1280         STX7    FLTLOC
   022065    000040 7472 00           1281         STX7    AFLTLC
   022066 (2)022007 2342 00           1282         SZN     S1000_FLG
   022067 (2)022107 6012 00           1283         TNZ     BOOTSS
   022070                             1284  BOOTSCOM NULL
   022070 (2)022740 7526 00           1285         STWS    TEMPDW
   022071 (2)022740 2272 00           1286         LDX7    TEMPDW          CHECK WSR0 HERE FOR RECOVERY
   022072    777000 3672 03           1287         ANX7    =O777000,DU
   022073 (2)022104 6002 00           1288         TZE     DREB
   022074  X 000000 1002 03           1289         CMPX0   RV_OPASCODE,DU  Is it OR at tape boot time
   022075    000002 6012 04           1290         TNZ     2,IC            No, systems up
   022076  X 000000 1716 00           1291         LPDBR   PPDBR     Yes,locate ourself
   022077    000000 2332 00           1292         RMCM    0               Disable interrupts
   022100    000017 3752 07           1293         ANA     =O017,DL
   022101    000017 3762 07           1294         ANQ     =O017,DL
   022102    000000 5532 00           1295         SMCM    0
   022103  X 000000 7102 00           1296         TRA     IRR$OPRCVR      Take dump
   022104    100000 2352 03           1297  DREB   LDA     =O100000,DU     REBOOTED FROM DISK
   022105  X 000000 7552 00           1298         STA     RCV_FLG
   022106 (2)022147 7102 00           1299         TRA     BOOTS1          JUST RELOAD FROM DISC.
                                      1300  *
   022107                             1301  BOOTSS NULL
   022107    006050 4766 07           1302         LDP     DR.X,S.MONIS,DL ADDR OF WSPTD
   022110  X 000000 2352 00           1303         LDA     DIR_ENT0        WSPTD word0
   022111    6 00000 7553 00          1304         STA     0,,DR.X         Put it in the directory
   022112 (2)022070 7102 00           1305         TRA     BOOTSCOM
 22:48 07/29/97  FILE=ISI$BOOT.:E05TSI        C P 6 - B O O T S U B R                                    49   BMAP - B00
   022113                             1306  BOOTS0 NULL
   022113    000001 2352 00           1307         LDA     1               GET TAPE BOOT CHAN# AND IOM#
   022114    000002 2362 00           1308         LDQ     2               GET MBOX BASE, IMW BASE AND IOM#
   022115  X 000001 7562 00           1309         STQ     BOOTINFO+1
   022116  X 000000 7552 00           1310         STA     BOOTINFO
   022117 (2)022416 4502 00           1311         STZ     VIRGIN          1ST TIME FOR AARDVARK
   022120  X 000000 4502 00           1312         STZ     RCV_FLG          RESET RECOVERY FLAG
   022121 (0)000131 4502 00           1313         STZ     CHN#32           Reset channel#>31 flag
   022122    000000 1726 07           1314         LDO     0,DL            Don't push SS frames on fault
   022123 (2)022726 7726 00           1315         LDWS    WSREGS+2        Load WSRs with fake values
   022124 (2)022725 7726 00           1316         LDWS    WSREGS+1
   022125 (2)016472 2372 00           1317         LDAQ    IODESC
   022126    000032 7572 00           1318         STAQ    FLTLOC
                                      1319  * Try if we are on an RPM
   022127    000004 2352 00           1320         LDA     4
   022130 (2)022134 6052 00           1321         TPL     NO_RPM
   022131    777777 6212 00           1322         EAX1    -1
   022132 (2)022010 7412 00           1323         STX1    RPM_FLG
   022133 (2)022157 7102 00           1324         TRA     BOOTS1S
   022134                             1325  NO_RPM NULL
                                      1326  *   Try if we are on an S1000
   022134 (2)022147 6212 00           1327         EAX1    BOOTS1
   022135    000032 7412 00           1328         STX1    FLTLOC
   022136    000000 3676 00           1329         RPN                     This instr will trap on any CPU but S1000 or ELS
   022137    000002 2312 00           1330         RSW     2
   022140    000006 7752 00           1331         ALR     6               Eventual CPU type right aligned
   022141    000003 3752 07           1332         ANA     3,DL
   022142    000002 1152 07           1333         CMPA    ELS1,DL
   022143 (2)022147 6002 00           1334         TZE     BOOTS1          We are on ELS1
                                      1335  *   Here we are on an S1000
   022144    777777 6212 00           1336         EAX1    -1
   022145 (2)022007 7412 00           1337         STX1    S1000_FLG       Set flag
   022146 (2)022157 7102 00           1338         TRA     BOOTS1S
   022147                             1339  BOOTS1 NULL
   022147    000000 6342 07           1340         LDI     0,DL
   022150 (2)022007 2342 00           1341         SZN     S1000_FLG
   022151 (2)022157 6012 00           1342         TNZ     BOOTS1S
 22:48 07/29/97  FILE=ISI$BOOT.:E05TSI        C P 6 - B O O T S U B R                                    50   BMAP - B00
   022152    000000 2332 00           1343         RMCM    0
   022153    000017 3752 07           1344         ANA     =O017,DL
   022154    000017 3762 07           1345         ANQ     =O017,DL        DISABLE ALL
   022155    000000 5532 00           1346         SMCM    0               INTERRUPTS
   022156 (2)022161 7102 00           1347         TRA     BOOTS1C
   022157    000000 6352 00           1348  BOOTS1S EAA    0               Disable interrupts on S1000
   022160    000000 5532 00           1349         LIMR
   022161                             1350  BOOTS1C NULL
                                      1351  *
                                      1352         INHIB   OFF
                                      1353  *
   022161  X 000000 4500 00           1354         STZ     PDEV            JUST IN CASE
   022162  X 000000 4500 00           1355         STZ     CP6UL           NEXT WORD ADDRESS FOR PATCHES
   022163 (2)022516 7060 00           1356         TSX6    LDREG           LOAD AND ENABLE SAFE STORE STACK ETC.
                                      1357  *
   022164 (2)023712 7070 00           1358         TSX7    LDSPWS          INITIALIZE THE STACKS
   022165 (2)022007 2340 00           1359         SZN     S1000_FLG
   022166 (2)022177 6010 00           1360         TNZ     MOVEMIT
                                      1361  *
                                      1362  *
                                      1363  *  CLEAR MEMORY   BELOW CP6LL
                                      1364  *
   022167 (2)015600 2350 07           1365         LDA     CP6LL-128,DL     DEST WD CNT -> A
   022170    000002 7350 00           1366         ALS     2               CONVERT TO DEST. CHAR. CNT.
   022171    000 0 040 1004 00        1367         MLR     ,(,1),000       MF2(RL=1) -> DEST. CHAR. CNT IN REG.
   022172    000000 0 0 0 0000        1368         ADSC9   0,0,0           SOURCE CNT. = 0 -> JUST FILL
   022173    000200 0 0 0 0005        1369         ADSC9   128,0,A         DEST CNT IS IN A
   022174 (2)022010 2340 00           1370         SZN     RPM_FLG         IS THIS AN 8000
   022175 (2)022177 6000 00           1371         TZE     MOVEMIT         NOPE
   022176    001430 4520 11           1372         SCPR    CONF_8000,11    GET THE CPU CONFIG REGISTER
                                      1373  *
                                      1374  *   MOVE MITCH'S_WATERING_HOLE TO M_W_H_LOC IN LOW MEMORY.
                                      1375  *
   022177                             1376  MOVEMIT NULL
   022177    000 0 000 1004 00        1377         MLR
   022200 (2)022026 0 0 0 0030        1378         ADSC9   M_W_H,0,4*M_W_H_SZ
   022201    000020 0 0 0 0030        1379         ADSC9   M_W_H_LOC,0,4*M_W_H_SZ
 22:48 07/29/97  FILE=ISI$BOOT.:E05TSI        C P 6 - B O O T S U B R                                    51   BMAP - B00
                                      1380  *
                                      1381  *  Should print memory size on diskboots and recoveries
   022202 (2)022416 2340 00           1382         SZN     VIRGIN
   022203 (2)022210 6000 00           1383         TZE     *+5
   022204  X 000000 2340 00           1384         SZN     ORDBFLG
   022205 (2)022210 6010 00           1385         TNZ     *+3
   022206  X 000000 7010 00           1386         TSX1    TYPE_SIZE
   022207    000000 0110 00           1387         NOP
   022210 (2)022416 2340 00           1388         SZN     VIRGIN          1ST TIME?
   022211 (2)022225 6010 00           1389         TNZ     BOOTSZ          NO -> SKIP PUSSYCAT
   022212 (2)016504 4500 00           1390         STZ     MONLSR          MAKE SURE IT'S ZERO
   022213 (2)016505 4500 00           1391         STZ     MONLSR+1
                                      1392  *
                                      1393  *  AARDVARK NEEDS TO KNOW ABOUT CONFIGURATION BEFORE TIGR RUNS.
                                      1394  *
   022214  X 000000 7010 00           1395         TSX1    PUSSYCAT_PL6    What's the config ?
   022215 (2)022300 7100 00           1396         TRA     ORDB            It's DB or OR
   022216  X 000000 2140 00           1397         SZNC    MDELTAFLG       MDELTA required?
   022217 (2)022221 6000 00           1398         TZE     NODEBUG         NO
   022220  X 000000 7070 00           1399         TSX7    MDELTA
   022221                             1400  NODEBUG NULL
   022221 (2)022416 2340 00           1401         SZN     VIRGIN          HAVE I BEEN HERE BEFORE?
   022222 (2)022225 6010 00           1402         TNZ     BOOTSZ          YES -> FIRMWARE IS ALREADY IN MEMORY
   022223                             1403  COMDBTB NULL
   022223  X 000000 7010 00           1404         TSX1    FIX_FIRM
   022224    000000 0110 00           1405         NOP
   022225                             1406  BOOTSZ NULL
   022225  X 000000 2350 00           1407         LDA     ORDBFLG
   022226 (2)022231 6000 00           1408         TZE     *+3
   022227  X 000000 7550 00           1409         STA     RCV_FLG
   022230 (2)022304 7100 00           1410         TRA     COMOR
   022231  X 000000 7010 00           1411         TSX1    SET_MODE
   022232    000000 0110 00           1412         NOP
   022233                             1413  COMALL NULL
   022233  X 000000 7010 00           1414         TSX1    GOPO_PL6
   022234    000000 0110 00           1415         NOP
                                      1416  *
 22:48 07/29/97  FILE=ISI$BOOT.:E05TSI        C P 6 - B O O T S U B R                                    52   BMAP - B00
   022235                             1417  GETOUT NULL
                                      1418         INHIB   ON
                                      1419  * Exit to MON or XDELTA
   022235 (2)022007 2342 00           1420         SZN     S1000_FLG
   022236 (2)022242 6002 00           1421         TZE     *+4
   022237 (2)022006 2352 00           1422         LDA     S1000_INTM      Masks for S1000 interrupts
   022240    000000 5532 00           1423         LIMR
   022241 (2)022250 7102 00           1424         TRA     GETOUTC
   022242    000000 2332 00           1425         RMCM    0
   022243    000017 3752 07           1426         ANA     =O017,DL
   022244    000017 3762 07           1427         ANQ     =O017,DL
   022245    036074 2752 03           1428         ORA     =O036074,DU     ENABLE OVERHEAD, TERMINATE ,
   022246    036074 2762 03           1429         ORQ     =O036074,DU     MARKER AND SPECIAL INTERRUPTS.
   022247    000000 5532 00           1430         SMCM    0
   022250                             1431  GETOUTC NULL
   022250    000000 7134 00           1432         EXIT                    AND RETURN TO X-DELTA OR INITIAL
   022251    0 000 000 01 0000
                                      1433         INHIB   OFF
                                      1434  * XDELTA returns here
   022252                             1435  XDRET  NULL
   022252 (2)016476 7534 00           1436         STSS    XDSSR
   022253 (2)024306 7020 00           1437         TSX2    SETAUTO         Init the AUTO
   022254  X 000000 7010 00           1438         TSX1    XDELT_RET
   022255 (2)022257 7100 00           1439         TRA     KEEPXD          Altret on keep XDELTA
   022256 (2)022235 7100 00           1440         TRA     GETOUT
   022257                             1441  KEEPXD NULL
   022257    001764 4764 07           1442         LDP     DR.X,=O1764,DL  INC IC TO RETURN TO DELTA FOR
   022260    001761 4764 07           1443         LDP     DR.X,=O1761,DL  BREAKS AFTER TAPE BOOTS.
   022261    000001 2350 03           1444         LDA     1,DU
   022262    6 00004 0551 00          1445         ASA     4,,DR.X
   022263 (2)016351 4764 00           1446         LDP     DR.X,I$MONIS$
                                      1447         INHIB   ON
                                      1448         RIMR1                   SEE ISI$MINI
   022264 (2)023731 2372 44                  LDAQ SPWI,SD         PULL FROM SPECIAL STACK
   022265 (2)022007 2342 00                  SZN S1000_FLG       ARE WE ON AN S1000
   022266 (2)022272 6012 00                  TNZ *+4             YES
   022267 (2)024274 2772 00                  ORAQ PMASK           MAKE SURE PORTS ARE ENABLED
 22:48 07/29/97  FILE=ISI$BOOT.:E05TSI        C P 6 - B O O T S U B R                                    53   BMAP - B00
   022270    000000 5532 00                  SMCM 0               ENABLE OR WHATEVER
   022271 (2)022273 7102 00                  TRA *+2             EXIT
   022272    000000 5532 00                  LIMR
                                      1449         RFAULT                  DITTO
                                             IFE AARDVARK,0,3
                                             SYMREF FLTLOC
                                             SYMREF AFLTLC
                                             SYMREF SPWF
   022273 (2)023727 2372 44                  LDAQ SPWF,SD         PULL IT FROM ITS STACK
   022274    000032 7572 00                  STAQ FLTLOC          AND RE-PLANT IT
   022275    000040 7572 00                  STAQ AFLTLC
   022276    000000 7134 00           1450         EXIT                    AND RETURN TO DELTA
   022277    0 000 000 01 0000
                                      1451         INHIB   OFF
   022300                             1452  ORDB   NULL
   022300  X 000000 2140 00           1453        SZNC    MDELTAFLG         MDELTA required
   022301 (2)022303 6000 00           1454        TZE     NDBUG
   022302  X 000000 7070 00           1455        TSX7    MDELTA
   022303                             1456  NDBUG NULL
   022303 (2)022223 7100 00           1457         TRA     COMDBTB
   022304                             1458  COMOR  NULL
   022304  X 000000 7550 00           1459         STA     RCV_FLG
   022305  X 000000 2350 00           1460         LDA     SYS_DPX
   022306 (2)022321 6010 00           1461         TNZ     NASK
   022307  X 000000 2350 00           1462         LDA     FRSTDISK
   022310 (2)025331 7550 00           1463         STA     ALIST
   022311    000001 6200 00           1464         EAX0    1
   022312 (2)025336 7400 00           1465         STX0    DLIST
   022313 (2)025324 6304 00           1466         EPPR0   PLIST
   022314 (2)025336 6314 00           1467         EPPR1   DLIST
   022315  X 000000 7010 00           1468         TSX1    GT_SYSPACKAD
   022316    000000 0110 00           1469         NOP
   022317  X 000000 2350 00           1470         LDA     FRSTDISK
   022320  X 000000 7550 00           1471         STA     SYS_DPX
   022321  X 000000 7010 00           1472  NASK   TSX1    INIT_DISK
   022322    000000 0110 00           1473         NOP
   022323 (2)022233 7100 00           1474         TRA     COMALL
 22:48 07/29/97  FILE=ISI$BOOT.:E05TSI        C P 6 - B O O T S U B R                                    54   BMAP - B00
                                      1475  *
                                      1476  *
                                      1477  *
                                      1478  *
   022324                             1479  LOOP   NULL
   022324 (2)024322 4724 00           1480         LDP2    INITPR2$        Init the AUTO
   022325  X 000000 7010 00           1481         TSX1    LOOP_PL6
   022326    000000 0110 00           1482         NOP
                                      1483  *
                                      1484  *  HANG HERE WAITING FOR KEYIN...
   022327                             1485  HANG   NULL
   022327 (2)022352 6200 00           1486         EAX0    MINT            ADDRESS OF MINI-INTERRUPT RECEIVER
   022330    000030 7400 00           1487         STX0    INTLOC          STUFF IT INTO ENTRY DESCRIPTOR
   022331 (2)022007 2340 00           1488         SZN     S1000_FLG
   022332 (2)022343 6010 00           1489         TNZ     HANGS
   022333    000000 2330 00           1490         RMCM    0
   022334    000017 3750 07           1491         ANA     =O017,DL
   022335    000017 3760 07           1492         ANQ     =O017,DL
   022336    001774 2760 03           1493         ORQ     =O1774,DU        DISABLE ALL BUT SPECIAL
   022337    000000 5530 00           1494         SMCM    0               INTERRUPT
                                      1495  *                              *******
   022340                             1496  IDLE   NULL
                                      1497  *                              *******
                                      1498         WAIT    -1              HANG IT
                                             INHIB ON
   022340    777777 6162 03                  DIS -1,DU
   022341 (2)022340 7102 00                  TRA *-1
                                             INHIB OFF
   022342 (2)022341 7100 00           1499         TRA     *-1
                                      1500  *                              *******
   022343                             1501  HANGS  NULL
   022343    007760 2350 07           1502         LDA     =O7760,DL       DISABLE ALL BUT SPECIAL
   022344    000000 5530 00           1503         LIMR
   022345 (2)022340 7100 00           1504         TRA     IDLE
                                      1505         EVEN                    *******
   022346    000000000000             1506  IMASK  OCT     0,000074000000  *******
   022347    000074000000
 22:48 07/29/97  FILE=ISI$BOOT.:E05TSI        C P 6 - B O O T S U B R                                    55   BMAP - B00
   022350    777777777700             1507         OCT     777777777700,777777777700 ******* MASK
   022351    777777777700
                                      1508  *                              *******
                                      1509  *
                                      1510         INHIB   ON
   022352                             1511  MINT   NULL                    MINI-INTERRUPT RECEIVER
   022352    000000 6342 07           1512         LDI     0,DL            SET INDICATORS TO KNOWN VALUE
   022353    000000 0116 00           1513         CCAC                    CLEAR CACHE
   022354    001764 4746 07           1514         LDP     DR.SSR,DSSR,DL  LOAD SS STACK DESC. INTO DR.SSR
   022355    001761 4746 07           1515         LDP     DR.SSR,DTYP,DL  CHANGE DESC. TYPE FROM 1 TO 0
   022356    4 00005 2353 00          1516         LDA     SSFLT,,DR.SSR   Word 5 of SSR frame
   022357 (2)025351 7552 00           1517         STA     CODE
   022360 (2)024322 4726 00           1518         LDP2    INITPR2$        Init the AUTO
   022361  X 000000 7012 00           1519         TSX1    MINT_PL6
   022362    000000 0112 00           1520         NOP
   022363 (2)025351 7202 00           1521         LXL0    CODE            Now, action code
   022364 (2)022365 7102 10           1522         TRA     ACT,X0
                                      1523  *
   022365                             1524  ACT    NULL
   022365 (2)022371 7102 00           1525         TRA     JEXIT
   022366  X 000000 7102 00           1526         TRA     DRLH
   022367 (2)022373 7102 00           1527         TRA     ZAPR
   022370 (2)022233 7102 00           1528         TRA     COMALL
                                      1529  *
   022371    000000 7134 00           1530  JEXIT  EXIT                    Just EXIT
   022372    0 000 000 01 0000
                                      1531  *
   022373                             1532  ZAPR   NULL                    ZAP -> SELF-DESTRUCT
   022373    000000 2332 00           1533         RMCM    0
   022374    000017 3752 07           1534         ANA     =O017,DL
   022375    000017 3762 07           1535         ANQ     =O017,DL        DISABLE ALL
   022376    000000 5532 00           1536         SMCM    0               INTERRUPTS
   022377 (2)022401 6202 00           1537         EAX0    SUI1            ADDRESS OF SELF-DESTRUCT ROUTINE
   022400    000000 7102 10           1538         TRA     0,X0            JUST GO THERE
                                      1539  *
                                      1540  *
                                      1541         INHIB   OFF
 22:48 07/29/97  FILE=ISI$BOOT.:E05TSI        C P 6 - B O O T S U B R                                    56   BMAP - B00
                                      1542  *
                                      1543  * NOW DESTROY THE EVIDENCE
   022401                             1544  SUI1   NULL
             000000004401             1545  ZAP1SZ EQU     SUI1-CP6LL
                                      1546  *
                                      1547  *
   022401 (2)022007 2340 00           1548         SZN     S1000_FLG
   022402 (2)022405 6000 00           1549         TZE     *+3
   022403  X 000000 7010 00           1550         TSX1    CLOSE_SYST
   022404    000000 0110 00           1551         NOP
   022405  X 000000 7010 00           1552         TSX1    FINAL
   022406    000000 0110 00           1553         NOP
   022407 (2)022007 2340 00           1554         SZN     S1000_FLG       S1000?
   022410 (2)022414 6000 00           1555         TZE     NO_MSOS         No
   022411    400000 2350 03           1556         LDA     =O400000,DU
   022412    001141 2320 00           1557         WRES    RCLOS           Set bit in reserved mem
   022413    000000 6120 14           1558         DIAG    ,14
   022414                             1559  NO_MSOS NULL
                                      1560         WAIT    -1              FOR NOW JUST HANG
                                             INHIB ON
   022414    777777 6162 03                  DIS -1,DU
   022415 (2)022414 7102 00                  TRA *-1
                                             INHIB OFF
   022416                             1561  SUI2   NULL
                                      1562  *
   022416    000000000000             1563  VIRGIN OCT     0               N.Z. -> NOT INITIAL BOOT
                                      1564  *
                                      1565  *

 22:48 07/29/97  FILE=ISI$BOOT.:E05TSI        SIMULATE DISC BOOTLOAD FUNCTION                            57   BMAP - B00
                                      1566         TTLS    SIMULATE DISC BOOTLOAD FUNCTION
                                      1567  *
                                      1568  *      MOVE DISC BOOTSTRAP PROG TO LOC .30. SET UP LOC 0-3 AND
                                      1569  *      CONNECT CHANNEL MAILBOX. THEN GO TO BOOTSTRAP TO REREAD
                                      1570  *      AARDVARK.  DON'T TOUCH X0. (ADDRESS OF SCREECH CODE)
                                      1571  *      IN FACT, TRY TO BE AS CLEAN AS POSSIBLE IN HOPES OF PASSING
                                      1572  *      SOME USEFULL INFORMATION TO RECOVERY FOR DUMP.
                                      1573  *
   022417                             1574  LWSRD  NULL
   022417 (2)022726 7724 00           1575         LDWS    WSREGS+2        0->WSR 0-3
   022420                             1576  READBT NULL          ENTRY FOR 'OR' OR 'DB' AT TAPE BOOT
   022420    000 0 000 1004 00        1577         MLR                     MOVE BOOTSTRAP FROM VID TO LOW
   022421  X 000200 0 0 0 0400        1578         ADSC9   GRANBUF+128,0,64*4  MEMORY
   022422 (0)000000 0 0 0 0400        1579         ADSC9   C1,0,64*4
                                      1580  * Rewind and unload PO tape
   022423  X 000000 2350 00           1581         LDA     BOOTTAPE        Index of PO tape
   022424 (2)025331 7550 00           1582         STA     ALIST
   022425  X 000000 6304 00           1583         EPPR0   POBUF           Fake
   022426 (2)025332 4504 00           1584         STP0    ALIST+1
   022427    000000 6350 00           1585         EAA     0
   022430 (2)025333 7550 00           1586         STA     ALIST+2
   022431    000011 2230 03           1587         LDX3    FCNUNL,DU       Rewind and Unload PO tape
   022432 (2)025334 4430 00           1588         SXL3    ALIST+3
   022433    000004 6200 00           1589         EAX0    4               Param#
   022434 (2)025336 7400 00           1590         STX0    DLIST
   022435 (2)025324 6304 00           1591         EPPR0   PLIST
   022436 (2)025336 6314 00           1592         EPPR1   DLIST
   022437  X 000000 7010 00           1593         TSX1    MINIQ_PL6
   022440    000000 0110 00           1594         NOP                     Ignore errors
   022441  X 000000 6200 00           1595         EAX0    RV_OPASCODE
   022442 (2)022010 2340 00           1596         SZN     RPM_FLG
   022443 (2)022504 6010 00           1597         TNZ     RPM_RBOOT
   022444 (2)022452 7100 00           1598         TRA     RBOOT0
                                      1599  *                    ENTRY FOR RECOVERY AFTER SYSTEM IS UP
   022445                             1600  REBOOT NULL
   022445 (2)022010 2340 00           1601         SZN     RPM_FLG
   022446 (2)022504 6010 00           1602         TNZ     RPM_RBOOT
 22:48 07/29/97  FILE=ISI$BOOT.:E05TSI        SIMULATE DISC BOOTLOAD FUNCTION                            58   BMAP - B00
   022447    000 0 000 1004 00        1603         MLR
   022450  X 000000 0 0 0 0400        1604         ADSC9   BOOTRC,0,64*4
   022451 (0)000000 0 0 0 0400        1605         ADSC9   C1,0,64*4       BOOTSTRAP PROG
   022452    000000 1724 07           1606  RBOOT0 LDO     0,DL            DON'T PUSH SS FRAMES
   022453 (2)016472 2370 00           1607         LDAQ    IODESC          SETUP ENTRY DSCR FOR I/O IN
   022454    000030 7570 00           1608         STAQ    INTLOC          CASE INTL/CLR WAS PRESSED.
   022455  X 000000 2350 00           1609         LDA     DISK_BOOTINFO
   022456    000001 7550 00           1610         STA     1
   022457  X 000001 2360 00           1611         LDQ     DISK_BOOTINFO+1
   022460    000002 7560 00           1612         STQ     2
   022461 (2)024513 2350 00           1613         LDA     MC1ICW
   022462    000003 7550 00           1614         STA     3               READ DISC IDCW
   022463    040000 2350 07           1615         LDA     =O040000,DL
   022464    000010 7550 02           1616         STA     8,QU            CNCT LPW;  PCW @ LOC 0
   022465    000002 6350 02           1617         EAA     2,QU            IOMBASE + 2
   022466    000002 0350 07           1618         ADLA    2,DL            TALLY = 2
   022467    000007 7550 02           1619         STA     7,QU            FAULT CHANNEL DCW
   022470  X 000000 2350 00           1620         LDA     DISK_BOOTINFO
   022471    000007 7710 00           1621         ARL     7
   022472  X 000001 0350 00           1622         ADLA    DISK_BOOTINFO+1
   022473    000000 6360 02           1623         EAQ     0,QU
   022474    000002 7560 01           1624         STQ     2,AU            CHANNEL STATUS DCW
   022475    011000 2350 07           1625         LDA     =O11000,DL      Uninhibited NOP
   022476    000063 7550 00           1626         STA     MCP6L1W-MREF+BASE
   022477    000064 7550 00           1627         STA     MCP6L1W+1-MREF+BASE
   022500 (2)022503 2350 00           1628         LDA     MINST           Don't wait for interrupts
   022501    000065 7550 00           1629         STA     MCP6L1W+2-MREF+BASE
   022502 (0)000004 7100 00           1630  GOOB   TRA     C1B             Go to read AARDVARK
   022503    000066 7100 00           1631  MINST  TRA     MC2-MREF+BASE   Modifies DIS 0
                                      1632  *
                                      1633  *   Reboot on an RPM
   022504                             1634  RPM_RBOOT NULL
   022504    000 0 000 1004 00        1635         MLR
   022505 (2)024740 0 0 0 0400        1636         ADSC9   RPM_BOOTRC,0,64*4
   022506 (0)000000 0 0 0 0400        1637         ADSC9   C1,0,64*4
   022507    000000 1724 07           1638         LDO     0,DL            Don't push SS frames
   022510  X 000000 2350 00           1639         LDA     RPM_DISK_BOOTINFO   Areg image forI/O
 22:48 07/29/97  FILE=ISI$BOOT.:E05TSI        SIMULATE DISC BOOTLOAD FUNCTION                            59   BMAP - B00
   022511    000004 7550 00           1640         STA     4
   022512    000 0 000 1004 00        1641         MLR
   022513  X 000000 0 0 0 0140        1642         ADSC9   PATT_MBX,0,24*4
   022514    000300 0 0 0 0140        1643         ADSC9   RMBOX,0,24*4
   022515 (0)000004 7100 00           1644         TRA     C1B
                                      1645  *

 22:48 07/29/97  FILE=ISI$BOOT.:E05TSI        AARDVARK - LDREG - INITIALIZE NSA REGISTERS ETC.           60   BMAP - B00
                                      1646         TTLS    AARDVARK - LDREG - INITIALIZE NSA REGISTERS ETC.
                                      1647  *
                                      1648  *      CALLING SEQUENCE
                                      1649  *      TSX6    LDREG
                                      1650  *      RETURN
                                      1651  *
   022516                             1652  LDREG  NULL
   022516 (2)016472 2370 00           1653         LDAQ    IODESC          PLANT INTERRUPT ENTRY
   022517    000030 7570 00           1654         STAQ    INTLOC          DESCRIPTOR FOR CP6
   022520    000032 7570 00           1655         STAQ    FLTLOC          AND PLANT IT
   022521    000040 7570 00           1656         STAQ    AFLTLC          ALTERNATE FAULT ENTRY
   022522 (2)022531 2210 03           1657         LDX1    LDREG1,DU       CATCH FAKE FAULT BELOW
   022523    000032 7410 00           1658         STX1    FLTLOC          AND FIX UP ENTRY DESCRIPTORS
   022524    000040 7410 00           1659         STX1    AFLTLC
   022525    000000 1724 07           1660         LDO     0,DL            DONT PUSH SS FRAME ON DRL
   022526 (2)022726 7724 00           1661         LDWS    WSREGS+2        LOAD WSR0->WSR3 WITH FAKE VALUES
   022527 (2)022725 7724 00           1662         LDWS    WSREGS+1        LOAD WSR4->WSR7
   022530    000000 0020 00           1663         DRL                     AND CAUSE A FAULT
                                      1664  *      SWITCH TO ISR WITH WSR2
   022531                             1665  LDREG1 NULL
   022531 (2)022724 7724 00           1666         LDWS    WSREGS          NOW LOAD REAL WSR0->WSR3
   022532  X 000000 6210 00           1667         EAX1    DRLH            FAULT ENTRY LOCATION
   022533    000032 7410 00           1668         STX1    FLTLOC          AND FIX UP ENTRY DESCRIPTORS
   022534    000040 7410 00           1669         STX1    AFLTLC
   022535 (2)022416 2340 00           1670         SZN     VIRGIN          HAVE WE BEEN HERE BEFORE?
   022536 (2)022550 6010 00           1671         TNZ     LDREG1A         YUP
   022537    003100 6230 00           1672         EAX3    64*6*4+16*4     SIZE(BYTES) OF SSTACK + ASTACK
   022540    000 0 040 1004 00        1673         MLR     ,(,1),000       ZAPEM BOTH
   022541    000000 0 0 0 0000        1674         ADSC9   0,0,0
   022542 (2)025370 0 0 0 0013        1675         ADSC9   SSTACK,0,X3
   022543    000200 6230 00           1676         EAX3    32*4            SIZE(BYTES) OF INTER AREA
   022544    000 0 040 1004 00        1677         MLR     ,(,1),000       ZAP IT
   022545    000000 0 0 0 0000        1678         ADSC9   0,0,0
   022546    000740 0 0 0 0013        1679         ADSC9   INTLOCK,0,X3
   022547 (2)022551 7100 00           1680         TRA     LDREG1A+1       PAGE TABLE DIRECTORY NOT YET BUILT
   022550                             1681  LDREG1A NULL
   022550    000000 0110 00           1682         NOP     0               LPDBR   PDBR     LOAD 'ER UP FOR DELTA
 22:48 07/29/97  FILE=ISI$BOOT.:E05TSI        AARDVARK - LDREG - INITIALIZE NSA REGISTERS ETC.           61   BMAP - B00
   022551 (2)016462 7734 00           1683         LDSS    SSDESC          LOAD SAFE STORE REGISTER
   022552 (2)016464 5714 00           1684         LDDSD   DSDESC          LOAD DSR
   022553 (1)000000 1704 00           1685         LDDSA   =0              LOAD DSAR
                                      1686  *  ENABLE SAFE STORE STACK AND CACHE READ CONTROL FLAG (CRCF)
   022554    204000 1724 07           1687         LDO     =O204000,DL
   022555    004000 6340 07           1688         LDI     =O004000,DL     Turn off overflow
                                      1689  *
   022556 (2)016466 7704 00           1690         LDAS    ASDESC          INITIALIZE ASR
   022557 (2)016470 7714 00           1691         LDPS    PSDESC          INITIALIZE PSR
                                      1692  *
   022560 (2)022007 2340 00           1693         SZN     S1000_FLG
   022561 (2)022637 6010 00           1694         TNZ     LDREG2S
   022562 (2)022010 2340 00           1695         SZN     RPM_FLG
   022563 (2)022713 6010 00           1696         TNZ     LDREG2R
   022564 (2)023003 7050 00           1697         TSX5    CPUTYPE         DETERMINE CPU TYPE
   022565 (2)022745 7550 00           1698         STA     MTYPE           SAVE MASTER CPU TYPE
   022566    000002 1150 07           1699         CMPA    ELS1,DL         ELS1?
   022567 (2)022572 6010 00           1700         TNZ     LDREG2          NO
                                      1701  *
                                      1702  *                              UNIQUE INITIALIZATION FOR ELS1
   022570 (2)023164 7050 00           1703         TSX5    CONFIG_ELS1     SETUP CONFIGURATION SWITCHES
   022571 (2)022746 7550 00           1704         STA     MCONFIG         SAVE MASTER CONFIG SWITCHES
                                      1705  *
   022572                             1706  LDREG2 NULL
   022572 (2)022747 7050 00           1707         TSX5    MSIZE           FIND MEMORY SIZE
   022573 (2)022023 7550 00           1708         STA     HIPAGE          SAVE HIGHEST AVAILABLE PAGE #
   022574 (2)022024 7550 00           1709         STA     HIAVPG          ON OTHER SYSTEMS THAN S1000
                                      1710  *
   022575                             1711  LDREG2A NULL
   022575    000032 2370 00           1712         LDAQ    FLTLOC          SAVE FAULT ENTRY DESCRIPTOR
   022576 (2)022732 7570 00           1713         STAQ    AAFLTD          FOR LATER USE
   022577 (2)022734 7570 00           1714         STAQ    MWHFLTD         SAVE FOR M_W_H FAULT ENTRY
   022600 (2)022053 6250 00           1715         EAX5    PREPRESB
   022601 (2)022734 7450 00           1716         STX5    MWHFLTD         GO DIRECTLY TO REBOOT
                                      1717  *
   022602 (2)022726 6740 04           1718         LCPR    ZERO,04         CLEAR MODE REGISTER
   022603 (2)022726 6740 02           1719         LCPR    ZERO,02         TURN CACHE OFF
 22:48 07/29/97  FILE=ISI$BOOT.:E05TSI        AARDVARK - LDREG - INITIALIZE NSA REGISTERS ETC.           62   BMAP - B00
   022604    000000 0114 00           1720         CCAC                    CLEAR CACHE
   022605 (2)022730 4520 01           1721         SCPR    OFLTR,01        CLEAR FAULT REGISTER
   022606 (2)022745 2360 00           1722         LDQ     MTYPE           CPU TYPE
   022607    000002 1160 07           1723         CMPQ    ELS1,DL         ELS1?
   022610 (2)022612 6010 00           1724         TNZ     *+2             NO
   022611 (2)022736 4520 03           1725         SCPR    OEFLTR,03       CLEAR ELS1 EXTENDED FLT REG
   022612 (2)022010 2340 00           1726         SZN     RPM_FLG         RPM??
   022613 (2)022616 6010 00           1727         TNZ     RPM_CACHE
   022614 (2)022742 6740 02           1728         LCPR    CACHE,02        TURN CACHE ON
   022615 (2)022617 7100 00           1729         TRA     CACHE_DONE
   022616                             1730  RPM_CACHE NULL
   022616 (2)022743 6740 02           1731         LCPR    CACHE_RPM,02    TURN ON CACHE ON RPM
   022617                             1732  CACHE_DONE NULL
   022617 (2)022744 6740 04           1733         LCPR    MODE,04         ENABLE HISTORY REGISTERS
   022620                             1734  LDREG2C NULL
   022620 (2)022147 6350 00           1735         EAA     BOOTS1
   022621 (2)025360 4524 00           1736         STP2    BOOTS1R
   022622 (2)025361 7550 00           1737         STA     BOOTS1R+1
   022623    000002 5324 00           1738         CAMP    2               CLEAR AND ENABLE PTWAM
   022624 (2)024306 7020 00           1739         TSX2    SETAUTO         INIT AARDVARK AUTO
                                      1740  * Remember the addresses needed in PL6
   022625 (2)022420 6350 00           1741         EAA     READBT
   022626 (2)025352 4524 00           1742         STP2    READBTR
   022627 (2)025353 7550 00           1743         STA     READBTR+1
   022630 (2)022053 6350 00           1744         EAA     PREPRESB
   022631 (2)025354 4524 00           1745         STP2    PREPRESBR
   022632 (2)025355 7550 00           1746         STA    PREPRESBR+1
   022633 (2)022417 6350 00           1747         EAA     LWSRD
   022634 (2)025356 4524 00           1748         STP2    LWSRDR
   022635 (2)025357 7550 00           1749         STA     LWSRDR+1
                                      1750  *
   022636    000000 7100 16           1751         TRA     0,X6            RETURN
                                      1752  *
   022637                             1753  LDREG2S NULL                   Load registers and read reserved mem for S1000
   022637    000001 2350 07           1754         LDA     1,DL
   022640 (2)022726 6740 00           1755         LLUF    ZERO            Load Lockup Fault Register
   022641    000142 2310 00           1756         RRES    REPU_MODE
 22:48 07/29/97  FILE=ISI$BOOT.:E05TSI        AARDVARK - LDREG - INITIALIZE NSA REGISTERS ETC.           63   BMAP - B00
   022642 (2)022012 7550 00           1757         STA     EPU_MODE
   022643 (2)022012 2350 00           1758         LDA     EPU_MODE
                                      1759  *      TPL     BASIC         Don't allow basic mode for now
   022644    777777 6210 00           1760  XA     EAX1    -1
   022645 (2)022002 7410 00           1761         STX1    XA_MODE
   022646 (2)022650 7100 00           1762         TRA     END_MOD
   022647 (2)022002 4500 00           1763  BASIC  STZ     XA_MODE
   022650                             1764  END_MOD NULL
   022650    001000 2310 00           1765         RRES    RMEM_SZ         Memory size
   022651 (2)022001 7550 00           1766         STA     MEM_SZ
   022652    777777 3750 07           1767         ANA     -1,DL
   022653    000001 1350 07           1768         SBLA    1,DL
   022654 (2)022023 7550 00           1769         STA     HIPAGE          Nr of last page
   022655    000032 2370 00           1770         LDAQ    FLTLOC          SAVE FAULT ENTRY DESCRIPTOR
   022656 (2)022732 7570 00           1771         STAQ    AAFLTD          FOR LATER USE
   022657 (2)022734 7570 00           1772         STAQ    MWHFLTD         SAVE FOR M_W_H FAULT ENTRY
   022660 (2)022053 6250 00           1773         EAX5    PREPRESB
   022661 (2)022734 7450 00           1774         STX5    MWHFLTD         GO DIRECTLY TO REBOOT
                                      1775  *   Build WS#0 PT descriptor
   022662    001000 2310 00           1776         RRES    RMEM_SZ         Bound=Nr of pages - 1 byte
   022663    000000 6210 05           1777         EAX1    0,AL
   022664    000001 1610 03           1778         SBX1    1,DU
   022665 (2)017010 7410 00           1779         STX1    DESCWS#0
   022666    001177 2310 00           1780         RRES    RPT_WS0
   022667    000002 7350 00           1781         ALS     2               Convert to byte addr
   022670 (2)017011 7550 00           1782         STA     DESCWS#0+1      Base
   022671    000014 7710 00           1783         ARL     12              Make it a page address
   022672    000001 1350 07           1784         SBLA    1,DL
   022673 (2)022024 7550 00           1785         STA     HIAVPG
                                      1786  *
   022674    001110 2310 00           1787         RRES    RCONS_INFO
   022675 (2)022000 7550 00           1788         STA     CONS_INFO
   022676    001014 2310 00           1789         RRES    RCONFIG
   022677 (2)022003 7550 00           1790         STA     CONFIG
   022700    000000 6120 07           1791         DIAG    ,7              Read Configuration Register
   022701 (2)022004 7550 00           1792         STA     CONF_REG
                                      1793  *   Build interrupt mask word for this system
 22:48 07/29/97  FILE=ISI$BOOT.:E05TSI        AARDVARK - LDREG - INITIALIZE NSA REGISTERS ETC.           64   BMAP - B00
   022702    000000 6270 00           1794         EAX7    0
   022703                             1795  CHECKI NULL
   022703 (2)022017 3150 17           1796         CANA    CONFIOP,X7
   022704 (2)022707 6000 00           1797         TZE     NOIOP           This IOP is not configured
   022705 (2)022013 2360 17           1798         LDQ     IOPM,X7         Interr masks for this IOP
   022706 (2)022006 2560 00           1799         ORSQ    S1000_INTM
   022707                             1800  NOIOP  NULL
   022707    000001 6270 17           1801         EAX7    1,X7
   022710    000003 1070 03           1802         CMPX7   3,DU
   022711 (2)022620 6050 00           1803         TPL     LDREG2C         All IOPs checked
   022712 (2)022703 7100 00           1804         TRA     CHECKI
   022713                             1805  LDREG2R NULL                   Load reg and do memsiz for RPM
   022713 (2)022726 6740 04           1806         LCPR    ZERO,04         CLEAR MODE REGISTER
   022714 (2)022726 6740 02           1807         LCPR    ZERO,02         TURN OFF CACHE
   022715    000000 0114 00           1808         CCAC                    CLEAR CACHE
   022716 (2)022730 4520 01           1809         SCPR    OFLTR,01        CLEAR FAULT REGISTER
   022717 (2)022736 4520 03           1810         SCPR    OEFLTR,03       CLEAR EXTEND FAULT REGISTER
   022720 (2)022743 6740 02           1811         LCPR    CACHE_RPM,02    TURN CACHE ON FOR RPM
   022721 (2)022744 6740 04           1812         LCPR    MODE,04         TURN ON HISTORY REGISTER
   022722 (2)023332 7050 00           1813         TSX5    CONFIG_RPM
   022723 (2)022575 7100 00           1814         TRA     LDREG2A
                                      1815         EVEN
   022724                             1816  WSREGS NULL
   022724    001 001 000 014          1817         VFD     9/1,9/1,9/0,9/12 WSR0->WSR3 MONWSQ,MONWSQ,NULL,CGWSQ
   022725    004 005 006 010          1818         VFD     9/4,9/5,9/6,9/8 WSR4->WSR7 ASLWSQ,IDBWSQ,ICPWSQ,USERWSQ
   022726                             1819  ZERO   NULL
   022726    000000000000             1820         OCT     0               FAKE WSR0->WSR3
   022727    000000000000             1821         OCT     0               GIMME TWO ZEROES
                                      1822         EVEN
   022730    000000000000             1823  OFLTR  OCT     0,0             OLD VALUE OF FAULT REGISTER
   022731    000000000000
   022732    000000000000             1824  AAFLTD OCT     0,0             AARDVARK FAULT ENTRY DESCRIPTOR
   022733    000000000000
   022734    000000000000             1825  MWHFLTD OCT    0,0             MITCHS FAULT ENTRY DESCRIPTOR
   022735    000000000000
   022736    000000000000             1826  OEFLTR OCT     0,0             OLD VALUE OF ELS1 EXTENDED FLT REG
   022737    000000000000
 22:48 07/29/97  FILE=ISI$BOOT.:E05TSI        AARDVARK - LDREG - INITIALIZE NSA REGISTERS ETC.           65   BMAP - B00
   022740    000000000000             1827  TEMPDW OCT     0,0             SCRATCH DOUBLEWORD
   022741    000000000000
                                      1828  *
   022742    000000740000             1829  CACHE  OCT     740000          ENABLE CACHE
   022743    000000446000             1830  CACHE_RPM OCT     446000          ENABLE RPM CACHE
   022744    000000000065             1831  MODE   OCT     65              ENABLE HIST REGS AND HEX FLOATING
   022745    000000000000             1832  MTYPE  OCT     0               MASTER CPU TYPE
   022746    000000000000             1833  MCONFIG OCT    0               MASTER CPU CONFIG SWITCHES FOR ELS1

 22:48 07/29/97  FILE=ISI$BOOT.:E05TSI        AARDVARK - FIND MEMORY SIZE                                66   BMAP - B00
                                      1834         TTLS    AARDVARK - FIND MEMORY SIZE
                                      1835  *
                                      1836  *      CALLING SEQUENCE
                                      1837  *      TSX5    MSIZE
                                      1838  *      RETURN                  HIGHEST AVAIL PAGE # IN A
                                      1839  *
   022747                             1840  MSIZE  NULL
   022747 (2)016462 7734 00           1841         LDSS    SSDESC          RELOAD SAFE STORE REGISTER
   022750 (2)022763 6210 00           1842         EAX1    MSIZE2          CATCH FAULTS AT MSIZE2
   022751    000032 7410 00           1843         STX1    FLTLOC          BY FIXING UP ENTRY DESCRIPTORS
   022752    000040 7410 00           1844         STX1    AFLTLC
   022753    000004 2350 03           1845         LDA     4,DU            START AT 256K
   022754    000000 4500 00           1846         STZ     0               CLEAR LOCATION 0
                                      1847  *
                                      1848  *      STORE BYTE ADDRESS OF 1ST WORD IN EACH 32K WORD
                                      1849  *      BLOCK IN THAT WORD.  CONTINUE UNTIL FAULT OR UNTIL
                                      1850  *      LOCATION 0 CHANGES
                                      1851  *
   022755                             1852  MSIZE1 NULL
   022755    400000 0350 07           1853         ADLA    32*1024*4,DL    INCREMENT A BY 32K WORDS
   022756 (2)016513 7550 00           1854         STA     MEMDESC+1       STORE BASE OF DESCRIPTOR
   022757    006005 4764 07           1855         LDP     DR.X,S.MEM,DL   LOAD DESCRIPTOR
   022760    6 00000 7551 00          1856         STA     0,,DR.X         STORE ADDRESS
   022761    000000 2340 00           1857         SZN     0               DID LOCATION 0 CHANGE?
   022762 (2)022755 6000 00           1858         TZE     MSIZE1          NO -> KEEP ON LOOKING
                                      1859  *
   022763                             1860  MSIZE2 NULL                    FAULT OR LOACATION 0 CHANGED
   022763 (2)022774 6210 00           1861         EAX1    MSIZE4          CATCH FAULTS AT MSIZE4
   022764    000032 7410 00           1862         STX1    FLTLOC
   022765    000040 7410 00           1863         STX1    AFLTLC
   022766    000004 2350 03           1864         LDA     4,DU            START AT 256K AGAIN
                                      1865  *
                                      1866  *      CHECK CONTENTS OF 1ST WORD IN EACH 32K WORD BLOCK.
                                      1867  *      CONTINUE UNTIL FAULT OR MISCOMPARE
                                      1868  *
   022767                             1869  MSIZE3 NULL
   022767    400000 0350 07           1870         ADLA    32*1024*4,DL    INCREMENT A BY 32K WORDS
 22:48 07/29/97  FILE=ISI$BOOT.:E05TSI        AARDVARK - FIND MEMORY SIZE                                67   BMAP - B00
   022770 (2)016513 7550 00           1871         STA     MEMDESC+1       STORE BASE OF DESCRIPTOR
   022771    006005 4764 07           1872         LDP     DR.X,S.MEM,DL   LOAD DESCRIPTOR
   022772    6 00000 1151 00          1873         CMPA    0,,DR.X         ARE CONTENTS CORRECT?
   022773 (2)022767 6000 00           1874         TZE     MSIZE3          YES -> KEEP ON LOOKING
                                      1875  *
   022774                             1876  MSIZE4 NULL                    FAULT OR MISCOMPARE
   022774 (2)016462 7734 00           1877         LDSS    SSDESC          RELOAD SAFE STORE REGISTER
   022775  X 000000 6210 00           1878         EAX1    DRLH            RESTORE NORMAL AARDVARK FLT ENTRY
   022776    000032 7410 00           1879         STX1    FLTLOC
   022777    000040 7410 00           1880         STX1    AFLTLC
   023000    000014 7710 00           1881         ARL     12              CONVERT TO PAGE #
   023001    000001 1350 07           1882         SBLA    1,DL            HIGHEST AVAILABLE PAGE #
   023002    000000 7100 15           1883         TRA     0,X5            RETURN

 22:48 07/29/97  FILE=ISI$BOOT.:E05TSI        AARDVARK - DETERMINE CPU TYPE                              68   BMAP - B00
                                      1884         TTLS    AARDVARK - DETERMINE CPU TYPE
                                      1885  *
                                      1886  *      CALLING SEQUENCE
                                      1887  *      TSX5    CPUTYPE
                                      1888  *      RETURN                  CPU TYPE IN A
                                      1889  *
   023003                             1890  CPUTYPE NULL
   023003 (2)022726 6740 04           1891         LCPR    ZERO,04         UNLOCK SOFTWARE LOCKOUT
   023004    000002 2310 00           1892         RSW     2               PROCESSOR ID DATA -> A
   023005    000006 7750 00           1893         ALR     6               RIGHT ALIGN CPU TYPE
   023006    000003 3750 07           1894         ANA     3,DL            CPU TYPE (0=L66, 1=DPSE, 2=ELS1)
   023007    000000 7100 15           1895         TRA     0,X5            RETURN

 22:48 07/29/97  FILE=ISI$BOOT.:E05TSI        KIWI - MPINIT - INITIALIZE NSA REGS ETC. FOR SLAVE CPU     69   BMAP - B00
                                      1896         TTLS    KIWI - MPINIT - INITIALIZE NSA REGS ETC. FOR SLAVE CPU
                                      1897  *
                                      1898  *      ENTERED VIA FAULT INITIATED BY MASTER CPU
                                      1899  *      TERMINATES BY GOING IDLE
                                      1900  *
   023010                             1901  MPINIT NULL
                                      1902         INHIB   ON
   023010    000100 0342 00           1903         LDAC    TGRPG           PICK UP PAGE TABLE PAGE# FROM TIGR
   023011 (2)022007 2342 00           1904         SZN     S1000_FLG
   023012 (2)023142 6012 00           1905         TNZ     MPINITS         We are on an S1000
   023013 (2)022010 2342 00           1906         SZN     RPM_FLG
   023014 (2)023146 6012 00           1907         TNZ     MPINITR         We are on a DPS8000
   023015    000026 7352 00           1908         ALS     18+4            PDBR(0->14) IS MOD 512 ADDRESS
   023016                             1909  MPINITC NULL
   023016 (2)024305 7552 00           1910         STA     PDBR1          SAVE FOR DEBUGGING
   023017 (2)024305 1716 00           1911         LPDBR   PDBR1          LOAD 'ER UP
   023020 (2)022726 7726 00           1912         LDWS    WSREGS+2        LOAD WSR0->WSR3 WITH FAKE VALUES
   023021 (2)022725 7726 00           1913         LDWS    WSREGS+1        LOAD WSR4->WSR7
   023022 (2)016472 2372 00           1914         LDAQ    IODESC          SINCE WE ENTERED WITH ISR AND
   023023    000032 7572 00           1915         STAQ    FLTLOC          LSR USING WSR 0 WE NEED TO SWITCH
   023024    000040 7572 00           1916         STAQ    AFLTLC          TO WSR 2 AND LOAD UP ALL WSRS WITH
   023025 (2)023031 2212 03           1917         LDX1    MPIDRL,DU       PROPER VALUES.
   023026    000032 7412 00           1918         STX1    FLTLOC
   023027    000040 7412 00           1919         STX1    AFLTLC
   023030    000000 0022 00           1920         DRL
   023031                             1921  MPIDRL NULL
   023031 (2)022724 7726 00           1922         LDWS    WSREGS          NOW LOAD REAL WSR0->WSR3
   023032 (2)016456 7736 00           1923         LDSS    SSDMON          LOAD SAFE STORE REGISTER
   023033 (2)016464 5716 00           1924         LDDSD   DSDESC          LOAD DSR
   023034 (1)000000 1706 00           1925         LDDSA   =0              LOAD DSAR
                                      1926  *  ENABLE SAFE STORE STACK AND CACHE READ CONTROL FLAG (CRCF)
   023035    204000 1726 07           1927         LDO     =O204000,DL
                                      1928  *
   023036 (2)016466 7706 00           1929         LDAS    ASDESC          INITIALIZE ASR
   023037 (2)016470 7716 00           1930         LDPS    PSDESC          INITIALIZE PSR
                                      1931  *
   023040 (2)022007 2342 00           1932         SZN     S1000_FLG
 22:48 07/29/97  FILE=ISI$BOOT.:E05TSI        KIWI - MPINIT - INITIALIZE NSA REGS ETC. FOR SLAVE CPU     70   BMAP - B00
   023041 (2)023134 6012 00           1933         TNZ     MPDIRLS
                                      1934  *
   023042 (2)022726 6742 04           1935         LCPR    ZERO,04         CLEAR MODE REGISTER
   023043 (2)022726 6742 02           1936         LCPR    ZERO,02         TURN CACHE OFF
   023044    000000 0116 00           1937         CCAC                    CLEAR CACHE
   023045 (2)022010 2342 00           1938         SZN     RPM_FLG
   023046 (2)023077 6012 00           1939         TNZ     DO_RPM_CACHE
   023047 (2)023003 7052 00           1940         TSX5    CPUTYPE         DETERMINE CPU TYPE
   023050 (2)023162 7552 00           1941         STA     STYPE           SAVE SLAVE CPU TYPE
   023051    000002 1152 07           1942         CMPA    ELS1,DL         ELS1?
   023052 (2)023074 6012 00           1943         TNZ     MPINIT1         NO
                                      1944  *
                                      1945  *                              UNIQUE INITIALIZATION FOR ELS1
   023053 (2)023164 7052 00           1946         TSX5    CONFIG_ELS1     SETUP CONFIG SWITCHES
   023054 (2)023163 7552 00           1947         STA     SCONFIG         SAVE SLAVE CONFIG SWITCHES
   023055 (2)016456 7736 00           1948         LDSS    SSDMON          LOAD SAFE STORE REGISTER AGAIN
   023056 (2)023160 4522 03           1949         SCPR    SOEFLTR,03      CLEAR ELS1 EXTENDED FLT REG
   023057 (2)022745 2362 00           1950         LDQ     MTYPE
   023060    000002 1162 07           1951         CMPQ    ELS1,DL         IS MASTER CPU AN ELS1?
   023061 (2)023074 6012 00           1952         TNZ     MPINIT1         NO -> CROSS OUR FINGERS
   023062 (2)022746 1152 00           1953         CMPA    MCONFIG         YES -> SAME CONFIG AS MASTER?
   023063 (2)023074 6002 00           1954         TZE     MPINIT1         YES
   023064    000011 7772 00           1955         LLR     9               NO, BUT MAYBE PORTS REVERSED
   023065    000033 7712 00           1956         ARL     27
   023066    000033 7362 00           1957         QLS     27
   023067    000033 7372 00           1958         LLS     27
   023070    777777 3752 03           1959         ANA     -1,DU           RETAIN BITS 0-17
   023071 (2)022746 1152 00           1960         CMPA    MCONFIG         IS THIS BETTER?
   023072 (2)023074 6002 00           1961         TZE     MPINIT1         YES
   023073 (2)022726 6742 11           1962         LCPR    ZERO,11         NO -> WE BETTER DIE RIGHT HERE!!!
                                      1963  *
   023074                             1964  MPINIT1 NULL
   023074 (2)023156 4522 01           1965         SCPR    SOFLTR,01       CLEAR FAULT REGISTER
   023075 (2)022742 6742 02           1966         LCPR    CACHE,02        TURN CACHE ON
   023076 (2)023130 7102 00           1967         TRA     CACHE_LOADED
   023077                             1968  DO_RPM_CACHE NULL
   023077 (2)023156 4522 01           1969         SCPR    SOFLTR,01       CLEAR FAULT REGISTER
 22:48 07/29/97  FILE=ISI$BOOT.:E05TSI        KIWI - MPINIT - INITIALIZE NSA REGS ETC. FOR SLAVE CPU     71   BMAP - B00
   023100 (2)022743 6742 02           1970         LCPR    CACHE_RPM,02    TURN ON RPM CACHE
   023101 (2)023330 4522 11           1971         SCPR    SLAVE_CONFIG,11 GET CONFIG REGISTER ON CPU1
   023102    001430 2352 00           1972         LDA     CONF_8000
   023103    300000 3752 03           1973         ANA     =O300000,DU      ISOLATE PORT ENABLE
   023104    300000 1152 03           1974         CMPA    =O300000,DU      ARE THEY BOTH ACTIVE
   023105 (2)023113 6012 00           1975         TNZ     CHECK_SLAVE
   023106    001430 2352 00           1976         LDA     CONF_8000
   023107    317000 3752 03           1977         ANA     =O317000,DU      GET THE ADDR SPLIT
   023110 (2)023330 2552 00           1978         ORSA    SLAVE_CONFIG     OR INTO THE SLAVE CONFIG
   023111 (2)023330 6742 11           1979         LCPR    SLAVE_CONFIG,11  SET THE CONFIG REGISTER ON THE SLAVE
   023112 (2)023130 7102 00           1980         TRA     CACHE_LOADED
   023113                             1981  CHECK_SLAVE NULL
   023113 (2)023330 2352 00           1982         LDA     SLAVE_CONFIG      GET CURRENT CONF REG ON SLAVE
   023114    300000 3752 03           1983         ANA     =O300000,DU       ARE BOTH SCUS ON
   023115    300000 1152 03           1984         CMPA    =O300000,DU
   023116 (2)023130 6012 00           1985         TNZ     CACHE_LOADED      NOPE - DON'T RELOAD
   023117 (2)023330 2352 00           1986         LDA     SLAVE_CONFIG      GET THE CONFIGURATION
   023120    040000 3752 03           1987         ANA     =O040000,DU       PORT A INIT
   023121    040000 1152 03           1988         CMPA    =O040000,DU
   023122 (2)023125 6002 00           1989         TZE     TURN_OFF_B        TURN OFF PORT B
   023123    577000 2352 03           1990         LDA     =O577000,DU       TURN OFF PORT A
   023124 (2)023126 7102 00           1991         TRA     DO_LCPR
   023125                             1992  TURN_OFF_B NULL
   023125    677000 2352 03           1993         LDA     =O677000,DU        TURN OFF PORT B
   023126                             1994  DO_LCPR NULL
   023126 (2)023330 3552 00           1995         ANSA     SLAVE_CONFIG
   023127 (2)023330 6742 11           1996         LCPR     SLAVE_CONFIG,11
   023130                             1997  CACHE_LOADED NULL
   023130 (2)022744 6742 04           1998         LCPR    MODE,04         ENABLE HISTORY REGISTERS
   023131    000002 5326 00           1999         CAMP    2               CLEAR AND ENABLE PTWAM
   023132    000000 7134 00           2000         EXIT                    CLIMB BACK TO MONITOR
   023133    0 000 000 01 0000
                                      2001  *
   023134                             2002  MPDIRLS NULL
   023134    000001 2352 07           2003         LDA     1,DL
   023135 (2)022726 6742 00           2004         LLUF    ZERO            Load Lock up fault reg
   023136    000000 1566 00           2005         RICHR                   Start ICHR update
 22:48 07/29/97  FILE=ISI$BOOT.:E05TSI        KIWI - MPINIT - INITIALIZE NSA REGS ETC. FOR SLAVE CPU     72   BMAP - B00
   023137    000000 5326 00           2006         CAMP                    Clear associative mem
   023140    000000 7134 00           2007         EXIT                    Climb to MON
   023141    0 000 000 01 0000
                                      2008  *
   023142                             2009  MPINITS NULL
   023142    006144 4766 07           2010         LDP     DR.X,S.WS#0,DL  Frame WS#0 PT
   023143    6 00000 2353 05          2011         LDA     0,AL,DR.X       Get physical page nr
   023144    000002 7352 00           2012         ALS     2               Mod 512 instead of 1024, 17 bits long
   023145 (2)023016 7102 00           2013         TRA     MPINITC
   023146                             2014  MPINITR NULL
                                      2015         INHIB   ON
   023146 (2)023324 7552 00           2016         STA     LOWER_PORT
   023147    000400 2352 03           2017         LDA     =O000400,DU     ALLOW ONLY CONNECT
   023150    000000 5532 00           2018         LIMR
   023151    000000 2502 00           2019         RCW                     READ THE CONNECT QUEUE
   023152 (2)023324 2352 00           2020         LDA     LOWER_PORT
   023153    000022 7352 00           2021         ALS     18               MOD 512 and 19 bits
   023154 (2)023016 7102 00           2022         TRA     MPINITC
                                      2023         INHIB    OFF
                                      2024  *
   023155    000000 0110 00           2025         EVEN
   023156
   023156    000000000000             2026  SOFLTR OCT     0,0             OLD VALUE OF FAULT REGISTER
   023157    000000000000
   023160    000000000000             2027  SOEFLTR OCT    0,0             OLD VALUE OF ELS1 EXTENDED FLT REG
   023161    000000000000
                                      2028  *
   023162    000000000000             2029  STYPE  OCT     0               SLAVE CPU TYPE
   023163    000000000000             2030  SCONFIG OCT    0               SLAVE CPU CONFIG SWITCHES FOR ELS1

 22:48 07/29/97  FILE=ISI$BOOT.:E05TSI        AARDVARK - SETUP ELS1 CPU CONFIGURATION SWITCHES           73   BMAP - B00
                                      2031         TTLS    AARDVARK - SETUP ELS1 CPU CONFIGURATION SWITCHES
                                      2032  *
                                      2033  *      CALLING SEQUENCE
                                      2034  *      TSX5    CONFIG_ELS1
                                      2035  *      RETURN                  RETURN WITH CONFIG REG IN A
                                      2036  *
   023164                             2037  CONFIG_ELS1 NULL
                                      2038  *
                                      2039  *      READ INITIAL CPU CONFIGURATION SWITCHES.  IF NOT SET
                                      2040  *      TO ONE OF THE TWO POSSIBLE INITIAL VALUES, EXIT.
                                      2041  *      IF THE CPU CONFIGURATION REGISTER APPEARS TO HAVE
                                      2042  *      JUST BEEN INITIALIZED, DETERMINE WHICH PORT IS LOWER
                                      2043  *
   023164 (2)023324 4500 00           2044         STZ     LOWER_PORT      ASSUME PORT A LOWER
   023165    000001 2310 00           2045         RSW     1               CPU CONFIG SWITCHES -> A
   023166    777777 3750 03           2046         ANA     -1,DU           RETAIN BITS 0-17
   023167    067000 1150 03           2047         CMPA    =O067000,DU
   023170 (2)023174 6000 00           2048         TZE     CONF1           PORT A LOWER
   023171 (2)023324 7550 00           2049         STA     LOWER_PORT      PORT B LOWER
   023172    000067 1150 03           2050         CMPA    =O000067,DU
   023173    000000 6010 15           2051         TNZ     0,X5            RETURN IF CONFIG REG ALREADY SET
   023174                             2052  CONF1  NULL
   023174    000032 2370 00           2053         LDAQ    FLTLOC          SAVE OLD FAULT ENTRY VECTOR
   023175 (2)023320 7570 00           2054         STAQ    FLTLOC_SAVE
   023176 (2)016472 2370 00           2055         LDAQ    IODESC          USE $LS0 (WSR2) FOR FAULTS
   023177    000032 7570 00           2056         STAQ    FLTLOC
   023200    000040 7570 00           2057         STAQ    AFLTLC
   023201 (2)023270 6210 00           2058         EAX1    CONF3           CATCH FAULTS AT CONF3
   023202    000032 7410 00           2059         STX1    FLTLOC
   023203    000040 7410 00           2060         STX1    AFLTLC
   023204 (2)016462 7734 00           2061         LDSS    SSDESC          USE AARDVARKS SAFE STORE
   023205 (2)023322 4500 00           2062         STZ     LOWER_SIZE      ZERO LOWER SIZE IN CASE OF FAULT
   023206 (2)023323 4500 00           2063         STZ     UPPER_SIZE      ASSUME NO UPPER PORT
   023207    000100 2350 03           2064         LDA     =O100,DU        LOAD DR.X BASE WITH 4MW
   023210 (2)016513 7550 00           2065         STA     MEMDESC+1
   023211    006005 4764 07           2066         LDP     DR.X,S.MEM,DL
                                      2067  *
 22:48 07/29/97  FILE=ISI$BOOT.:E05TSI        AARDVARK - SETUP ELS1 CPU CONFIGURATION SWITCHES           74   BMAP - B00
                                      2068  *      READ SCU CONFIGURATION SWITCHES FOR SCU CONNECTED TO
                                      2069  *      LOWER CPU PORT.  DOUBLE STORE SIZE AS READ FROM SCU
                                      2070  *      STORE SIZE SWITCHES IF BOTH A/A1 AND B/B1 ARE IN USE
                                      2071  *
   023212    000010 4130 00           2072         RSCR    8               LOWER SCU CONFIG SWITCHES -> AQ
   023213 (2)023314 7570 00           2073         STAQ    LOWER_SCU
   023214 (2)023314 2360 00           2074         LDQ     LOWER_SCU       BITS 0-35 IN BOTH A AND Q
   023215    000030 7720 00           2075         QRL     24
   023216    000007 3760 07           2076         ANQ     7,DL            STORE SIZE -> Q
   023217    000020 3150 07           2077         CANA    =O20,DL         LOWER STORE UNIT?
   023220 (2)023223 6010 00           2078         TNZ     *+3             B/B1 LOWER
   023221    000010 3150 03           2079         CANA    =O10,DU         A/A1 LOWER - B ENABLED?
   023222 (2)023224 7100 00           2080         TRA     *+2
   023223    000040 3150 03           2081         CANA    =O40,DU         B/B1 LOWER - A ENABLED?
   023224 (2)023226 6000 00           2082         TZE     *+2             NO -> STORE SIZE CORRECT
   023225    000001 0360 07           2083         ADLQ    1,DL            YES -> DOUBLE STORE SIZE
   023226 (2)023322 7560 00           2084         STQ     LOWER_SIZE      SIZE OF MEMORY ON LOWER PORT
                                      2085  *
                                      2086  *      ENABLE LOWER PORT WITH 4MW SIZE AND UPPER PORT WITH 4MW
                                      2087  *      STARTING ADDRESS AND SIZE IN ORDER TO ISSUE RSCR 8 TO
                                      2088  *      UPPER PORT.  RSCR WILL FAULT IF NO UPPER PORT.
                                      2089  *      DETERMINE UPPER PORT MEMORY SIZE AS ABOVE
                                      2090  *
   023227    067147 2350 03           2091         LDA     =O067147,DU     ASSUME PORT A LOWER
   023230 (2)023324 2340 00           2092         SZN     LOWER_PORT
   023231 (2)023233 6000 00           2093         TZE     *+2             PORT A LOWER
   023232    147067 2350 03           2094         LDA     =O147067,DU     PORT B LOWER
   023233 (2)023326 7550 00           2095         STA     TEMP_CONFIG
   023234 (2)023326 6740 11           2096         LCPR    TEMP_CONFIG,11  LOAD CPU CONFIG REGISTER
   023235    000000 0110 00           2097         NOP                     *** CHANGE TO ZERO TO KEEP   ***
                                      2098  *                              *** ELS FROM FINDING MORE    ***
                                      2099  *                              *** ONE SCU.                 ***
   023236    6 00010 4131 00          2100         RSCR    8,,DR.X         UPPER SCU CONFIG SWITCHES -> AQ
   023237 (2)023316 7570 00           2101         STAQ    UPPER_SCU
   023240 (2)023316 2360 00           2102         LDQ     UPPER_SCU       BITS 0-35 IN BOTH A AND Q
   023241    000050 3150 03           2103         CANA    =O50,DU         ARE ANY STORE UNITS ENABLED?
   023242 (2)023270 6000 00           2104         TZE     CONF3           NO -> SKIP UPPER PORT
 22:48 07/29/97  FILE=ISI$BOOT.:E05TSI        AARDVARK - SETUP ELS1 CPU CONFIGURATION SWITCHES           75   BMAP - B00
   023243    000030 7720 00           2105         QRL     24
   023244    000007 3760 07           2106         ANQ     7,DL            STORE SIZE -> Q
   023245    000020 3150 07           2107         CANA    =O20,DL         LOWER STORE UNIT?
   023246 (2)023251 6010 00           2108         TNZ     *+3             B/B1 LOWER
   023247    000010 3150 03           2109         CANA    =O10,DU         A/A1 LOWER - STORE UNIT B ENABLED?
   023250 (2)023252 7100 00           2110         TRA     *+2
   023251    000040 3150 03           2111         CANA    =O40,DU         B/B1 LOWER - STORE UNIT A ENABLED?
   023252 (2)023254 6000 00           2112         TZE     *+2             NO -> STORE SIZE CORRECT
   023253    000001 0360 07           2113         ADLQ    1,DL            YES -> DOUBLE STORE SIZE
   023254 (2)023323 7560 00           2114         STQ     UPPER_SIZE      SIZE OF MEMORY ON UPPER PORT
                                      2115  *
                                      2116  *      DETERMINE UPPER PORT ASSIGNMENT BY EFFECTIVELY
                                      2117  *      DIVIDING THE LOWER PORT SIZE BY THE UPPER PORT SIZE.
                                      2118  *      SET PORT ENABLE FOR UPPER PORT
                                      2119  *
   023255    000000 2360 07           2120         LDQ     0,DL
   023256 (2)023322 2350 00           2121         LDA     LOWER_SIZE
   023257 (2)023323 1350 00           2122         SBLA    UPPER_SIZE
   023260 (2)023267 6040 00           2123         TMI     CONF2           UPPER PORT SIZE > LOWER PORT SIZE
   023261    000002 1150 07           2124         CMPA    2,DL            A MUST BE 0, 1, OR 2
   023262 (2)023267 6054 00           2125         TPNZ    CONF2           LOWER TOO MUCH LARGER THAN UPPER
   023263    000100 2360 07           2126         LDQ     =O100,DL        BUILD UPPER PORT ASSIGNMENT
   023264    000000 7360 05           2127         QLS     0,AL            2 ** (LOWER SIZE - UPPER SIZE)
   023265    000040 2760 07           2128         ORQ     =O40,DL         PORT ENABLE
   023266 (2)023323 2760 00           2129         ORQ     UPPER_SIZE      MERGE IN PORT SIZE
   023267                             2130  CONF2  NULL
   023267 (2)023323 7560 00           2131         STQ     UPPER_SIZE
   023270                             2132  CONF3  NULL
                                      2133  *
                                      2134  *      SET PORT ENABLE AND INITIALIZE ENABLE FOR LOWER PORT.
                                      2135  *      MERGE LOWER PORT REGISTER WITH UPPER PORT REGISTER
                                      2136  *      DEPENDING ON WHICH PORT IS LOWER.  LOAD FINAL CPU
                                      2137  *      CONFIGURATION REGISTER AND RETURN
                                      2138  *
   023270    000060 2360 07           2139         LDQ     =O60,DL
   023271 (2)023322 2560 00           2140         ORSQ    LOWER_SIZE      PORT ENABLE & INITIALIZE ENABLE
   023272 (2)023322 2370 00           2141         LDAQ    LOWER_SIZE
 22:48 07/29/97  FILE=ISI$BOOT.:E05TSI        AARDVARK - SETUP ELS1 CPU CONFIGURATION SWITCHES           76   BMAP - B00
   023273    000011 7370 00           2142         LLS     9
   023274 (2)023322 2770 00           2143         ORAQ    LOWER_SIZE
   023275    000022 7370 00           2144         LLS     18
   023276 (2)023326 5510 40           2145         STBA    TEMP_CONFIG,40  ASSUME PORT A LOWER
   023277 (2)023326 5520 20           2146         STBQ    TEMP_CONFIG,20
   023300 (2)023324 2340 00           2147         SZN     LOWER_PORT
   023301 (2)023304 6000 00           2148         TZE     *+3             PORT A LOWER
   023302 (2)023326 5510 20           2149         STBA    TEMP_CONFIG,20  PORT B LOWER
   023303 (2)023326 5520 40           2150         STBQ    TEMP_CONFIG,40
   023304 (2)023326 6740 11           2151         LCPR    TEMP_CONFIG,11  LOAD FINAL CPU CONFIG REGISTER
   023305 (2)023320 2370 00           2152         LDAQ    FLTLOC_SAVE     RESTORE FAULT ENTRY VECTOR
   023306    000032 7570 00           2153         STAQ    FLTLOC
   023307    000040 7570 00           2154         STAQ    AFLTLC
   023310 (2)023326 2350 00           2155         LDA     TEMP_CONFIG
   023311    777777 3750 03           2156         ANA     -1,DU           RETAIN BITS 0-17
   023312    001430 7550 00           2157         STA     CONF_8000       SAVE AWAY THE CURRENT CONFIG REG
   023313    000000 7100 15           2158         TRA     0,X5            RETURN
                                      2159  *
                                      2160         EVEN
   023314    000000000000             2161  LOWER_SCU OCT  0,0             SCU CONFIG SWITCHES FOR LOWER PORT
   023315    000000000000
   023316    000000000000             2162  UPPER_SCU OCT  0,0             SCU CONFIG SWITCHES FOR UPPER PORT
   023317    000000000000
   023320    000000000000             2163  FLTLOC_SAVE OCT 0,0            TEMP STORAGE FOR FAULT VECTOR
   023321    000000000000
   023322    000000000000             2164  LOWER_SIZE OCT 0               TEMP FOR LOWER PORT CONFIG REG
   023323    000000000000             2165  UPPER_SIZE OCT 0               TEMP FOR UPPER PORT CONFIG REG
                                      2166  *
   023324    000000000000             2167  LOWER_PORT OCT 0               0 IF PORT A LOWER
   023325    000000 0110 00           2168         EVEN
   023326
   023326    000000000000             2169  TEMP_CONFIG OCT 0,0            TEMP FOR FULL CONFIG REG
   023327    000000000000
   023330    000000000000             2170  SLAVE_CONFIG OCT 0,0            TEMP FOR FULL CONFIG REG ON SLAVE
   023331    000000000000
                                      2171  *

 22:48 07/29/97  FILE=ISI$BOOT.:E05TSI        AARDVARK - SETUP RPM CONFIGURATION REG                     77   BMAP - B00
                                      2172         TTLS    AARDVARK - SETUP RPM CONFIGURATION REG
                                      2173  *
                                      2174  * Configuration register on DPS8000 is set only on the booting CPU
                                      2175  * Its format is
                                      2176  * Bit 0    Port accessing lower memory
                                      2177  *          0 is PORT A
                                      2178  *          1 is PORT B
                                      2179  * Bit 1    Port A enabled
                                      2180  * Bit 2    Port B enabled
                                      2181  * Bit 3    Port A initialized from SCU on
                                      2182  * Bit 4    Port B initialized from SCU on
                                      2183  * Bit 5-8  Address split
                                      2184  *          0000 - 256MW
                                      2185  *          1000 - 128MW
                                      2186  *          1100 -  64MW
                                      2187  *          1110 -  32MW
                                      2188  *          1111 -  16MW
                                      2189  * Bit 9-17 Zeroes
                                      2190  * The CPU configuration register is read with SCPR  tag 11 and loaded
                                      2191  * with a LCPR tag of 11.
                                      2192  * The SCU configuration register is initialized for all SCUs.
                                      2193  * Its format is:
                                      2194  * Bit 0-2   Number of units attached to SCU
                                      2195  *           Interlace configuration
                                      2196  *           000 = 1
                                      2197  *           001 = 2
                                      2198  *           010 = 4
                                      2199  *           011 = 8
                                      2200  *           100 = 16
                                      2201  *           101 = 1
                                      2202  *           Non-interlace configuration
                                      2203  *           111 = 16
                                      2204  * Bit 3-4   History Register Control: Recording mode
                                      2205  *           00 = OFF, inhibit entry
                                      2206  *           01 = ON, record all selected activities continuously
                                      2207  *           10 = ON, record all selected activities, stop on fault
                                      2208  *                    and reset bits to 00
 22:48 07/29/97  FILE=ISI$BOOT.:E05TSI        AARDVARK - SETUP RPM CONFIGURATION REG                     78   BMAP - B00
                                      2209  *           11 = ON, record start of selected activities, stop on fault
                                      2210  *                    and reset bits to 00
                                      2211  * Bit 5     History Register Control: Port Select
                                      2212  *           0 = Record only for designated port
                                      2213  *           1 = Record for all ports
                                      2214  * Bit 6-8   History Register Control: Designated Port
                                      2215  * Bit 9-16  Upper bound modulo 1 MW (minimum memory size)
                                      2216  * Bit 17-20 Lower Bound modulo 16 MW (port address split)
                                      2217  * Bit 21    Used for hardware test
                                      2218  * Bit 22    Not used
                                      2219  * Bit 23    Used for hardware test
                                      2220  * Bit 24    ID definer
                                      2221  *           1 = logical ID select
                                      2222  *           0 = Physical ID select
                                      2223  * Bit 25-27 Requesting port number (read only)
                                      2224  * Bit 38-35 Port enable indicator for ports 0-7
                                      2225  *           1 = port enable
                                      2226  *           0 = port disable
                                      2227  * Bit 36-71 not used
                                      2228  * This register is read with RSCR, bits 22-24 set to 1. It is set
                                      2229  * with SSCR, bits 22-24 set to 1.  In order to access the
                                      2230  * non-control SCU, the control SCU bit must be reset.  See RSCR
                                      2231  * description in DPS8000 assembly instructions - DZ51-00.
                                      2232  *
   023332                             2233  CONFIG_RPM NULL
   023332 (2)023326 4520 11           2234         SCPR    TEMP_CONFIG,11  Read CONFIG Reg
   023333    000110 7370 00           2235         LLS     72
   023334 (2)023314 7570 00           2236         STAQ    LOWER_SCU
   023335 (2)023316 4500 00           2237         STZ     UPPER_SCU
   023336 (2)023317 4500 00           2238         STZ     UPPER_SCU+1
                                      2239  * Find out how much memory we have on Low Port
   023337    000000 6200 00           2240         EAX0    0
   023340    000010 4130 10           2241         RSCR    8,X0            Conf Reg of Low Port->AQ
   023341 (2)023322 7550 00           2242         STA     LOWER_SIZE
   023342    000023 7710 00           2243         ARL     19              Upper bound->AL
   023343    000001 0350 07           2244         ADLA    1,DL             Next MEG
   023344    000012 7350 00           2245         ALS     10              Make it a page#
 22:48 07/29/97  FILE=ISI$BOOT.:E05TSI        AARDVARK - SETUP RPM CONFIGURATION REG                     79   BMAP - B00
   023345    776000 3750 07           2246         ANA     =O776000,DL
   023346    000001 1350 07           2247         SBLA    1,DL
   023347 (2)023315 7550 00           2248         STA     LOWER_SCU+1
   023350 (2)022024 7550 00           2249         STA     HIAVPG
   023351 (2)022023 7550 00           2250         STA     HIPAGE
   023352 (2)023322 2350 00           2251         LDA     LOWER_SIZE
   023353    000001 7710 00           2252         ARL     15-4-10         Lower bound*16->page#->AL
   023354    740000 3750 07           2253         ANA     =O740000,DL
   023355 (2)023314 7550 00           2254         STA     LOWER_SCU
                                      2255  * Find out if we have another SCU
   023356 (2)023326 2350 00           2256         LDA     TEMP_CONFIG
   023357    300000 3750 03           2257         ANA     =O300000,DU
   023360    300000 1150 03           2258         CMPA    =O300000,DU    Both SCUs configured?
   023361 (2)023413 6010 00           2259         TNZ     NO_UPPER        No
                                      2260  * If we get here we have an Upper Port
   023362    000001 6200 00           2261         EAX0    1
   023363    000010 4130 10           2262         RSCR    8,X0
   023364 (2)023323 7550 00           2263         STA     UPPER_SIZE
   023365    000023 7710 00           2264         ARL     19              Upper bound->AL
   023366    000001 0350 07           2265         ADLA    1,DL            Next Meg
   023367    000012 7350 00           2266         ALS     10              Make it a page#
   023370    776000 3750 07           2267         ANA     =O776000,DL
   023371    000001 1350 07           2268         SBLA    1,DL
   023372 (2)023317 7550 00           2269         STA     UPPER_SCU+1
   023373 (2)022024 7550 00           2270         STA     HIAVPG
   023374 (2)022023 7550 00           2271         STA     HIPAGE
   023375 (2)023323 2350 00           2272         LDA     UPPER_SIZE
   023376    000001 7710 00           2273         ARL     15-4-10         Lower bound*16->page#->AL
   023377    740000 3750 07           2274         ANA     =O740000,DL
   023400 (2)023316 7550 00           2275         STA     UPPER_SCU
   023401    000016 7710 00           2276         ARL     4+10            Make Lower bound modulo 16M
   023402    000000 5310 00           2277         NEG     A
   023403    000017 3750 07           2278         ANA     =O17,DL
   023404    000033 7350 00           2279         ALS     27
   023405 (2)023326 2550 00           2280         ORSA    TEMP_CONFIG
   023406 (2)023316 2350 00           2281         LDA     UPPER_SCU       First pg , upper SCU
   023407 (2)023315 1350 00           2282         SBLA    LOWER_SCU+1     Last pg, lower SCU
 22:48 07/29/97  FILE=ISI$BOOT.:E05TSI        AARDVARK - SETUP RPM CONFIGURATION REG                     80   BMAP - B00
   023410    000001 1350 07           2283         SBLA    1,DL
   023411 (2)022025 7550 00           2284         STA     GAP_SZ
   023412 (2)023326 6740 11           2285         LCPR    TEMP_CONFIG,11
   023413                             2286  NO_UPPER NULL
   023413    000000 7100 15           2287         TRA     0,X5
                                      2288  *
                                      2289  *

 22:48 07/29/97  FILE=ISI$BOOT.:E05TSI        AARDVARK - MINIQ - MINI-IOQ FOR USE BY DELTA ETC.          81   BMAP - B00
                                      2290         TTLS    AARDVARK - MINIQ - MINI-IOQ FOR USE BY DELTA ETC.
                                      2291  *
                                      2292  * THIS PROGRAM RECEIVES I/O REQUESTS FROM THE OUTSIDE WORLD
                                      2293  *
                                      2294  *      CALLING SEQUENCE
                                      2295  *
                                      2296  *      A CONTAINS THE WA(BUF) IN AU, BA(SIZE) IN A(18-29)
                                      2297  *      X3 CONTAINS THE FUNCTION CODE
                                      2298  *      X4 CONTAINS THE DEVICE INDEX
                                      2299  *      (=0 -> PATCH DEVICE,  <0 -> PATCH FILE)
                                      2300  *      X5 CONTAINS THE GRANULE# (IF APPLICABLE)
                                      2301  *      DR7 CONTAINS CALLER'S ISR DESC.
                                      2302  *
                                      2303  *      LOC     TSX7    MINIQ                IF LOC IS IN MINIQ ISR
                                      2304  *  OR  LOC     TSX7    MINIQM,,N  N NOT= 7  IF LOC IS IN MON ISR
                                      2305  *  OR  LOC     TSX7    MINIQX,,N  N NOT= 7  IF LOC IS IN XDEL ISR
                                      2306  *      LOC+1 ERROR RETURN
                                      2307  *      LOC+2 NORMAL RETURN
                                      2308  *
                                      2309  *
                                      2310  *      ALTERNATE CALLING SEQUENCE
                                      2311  *
                                      2312  *      X3 CONTAINS THE FUNCTION CODE
                                      2313  *      X4 CONTAINS THE DEVICE INDEX
                                      2314  *      X5 CONTAINS THE SEEK ADDRESS IF APPLICABLE
                                      2315  *
                                      2316  *      LOC     TSX7    MINIQC
                                      2317  *      LOC+1 ERROR RETURN
                                      2318  *      LOC+2 NORMAL RETURN
                                      2319  *      LOC+3   ARG     GRUNCH  GRUNCH IS THE ADDRESS OF THE USER'S DCW L
                                      2320  *
                                      2321         INHIB   ON
                                      2322  *
   023414                             2323  MINIQM NULL                    MON MUST TSX HERE
   023414    000000 7134 00           2324         ENTER   =O6000+LS.MINIQ_ENT  CLIMB TO MYSELFM
   023415    0 000 000 20 6177
                                      2325  * Get here from EXIT, return to caller
 22:48 07/29/97  FILE=ISI$BOOT.:E05TSI        AARDVARK - MINIQ - MINI-IOQ FOR USE BY DELTA ETC.          82   BMAP - B00
   023416 (2)025350 2142 00           2326         SZNC    XMERFLG
   023417 (2)023421 6012 00           2327         TNZ     *+2
   023420    7 00001 7103 17          2328         TRA     1,7,7           Normal return
   023421    7 00000 7103 17          2329         TRA     0,7,7           Error return
                                      2330  *
   023422                             2331  MYSELFM NULL
   023422 (2)024322 4726 00           2332         LDP2    INITPR2$        Reset the AUTO
   023423    000000 1152 07           2333         CMPA    0,DL            Change configuration ?
   023424 (2)023517 6002 00           2334         TZE     CHNG_CNF        Yes
   023425    000000 6362 01           2335         EAQ     0,AU            WA(buf)->Q
   023426    006050 2762 07           2336         ORQ     S.MONIS,DL      MON ISR
   023427 (2)025340 7562 00           2337         STQ     BUF$            Pointer to the buffer
   023430 (2)023664 7062 00           2338         TSX6    DOBUF_LGTH
   023431 (2)025340 4706 00           2339         LDP0    BUF$            Move buffer into POBUF
   023432  X 000000 6316 00           2340         EPPR1   POBUF
   023433 (2)025341 7212 00           2341         LXL1    BUF_LGTH
   023434    000 0 140 1007 40        2342         MLR     (1,1),(1,1)
   023435    0 00000 0 0 0 0011       2343         ADSC9   0,,1,0
   023436    1 00000 0 0 0 0011       2344         ADSC9   0,,1,1
   023437 (2)024351 7012 00           2345         TSX1    S_INT           Save int masks and mask
   023440    000000 0112 00           2346         NOP
                                      2347         INHIB   OFF
   023441    000000 1040 03           2348         CMPX4   0,DU
   023442 (2)023522 6054 00           2349         TPNZ    MINIQMX         Normal device
   023443 (2)023474 6000 00           2350         TZE     MREAD           Read patch
   023444                             2351  MWRITE NULL                    Write patch
   023444  X 000000 2340 00           2352         SZN     TIGRPA          Is !TIGR written ?
   023445 (2)023461 6010 00           2353         TNZ     MALLWRIT        Yes
   023446  X 000000 0540 00           2354         AOS     TIGRPA          No, write it
   023447 (2)025344 6304 00           2355         EPPR0   BANGTIGR
   023450 (2)025331 4504 00           2356         STP0    ALIST
   023451    000010 6200 00           2357         EAX0    8
   023452 (2)025332 4400 00           2358         SXL0    ALIST+1
   023453    000002 6200 00           2359         EAX0    2
   023454 (2)025336 7400 00           2360         STX0    DLIST
   023455 (2)025324 6304 00           2361         EPPR0   PLIST
   023456 (2)025336 6314 00           2362         EPPR1   DLIST
 22:48 07/29/97  FILE=ISI$BOOT.:E05TSI        AARDVARK - MINIQ - MINI-IOQ FOR USE BY DELTA ETC.          83   BMAP - B00
   023457  X 000000 7010 00           2363         TSX1    WRITE_PATCH
   023460    000000 0110 00           2364         NOP
   023461                             2365  MALLWRIT NULL
   023461  X 000000 6304 00           2366         EPPR0   POBUF
   023462 (2)025331 4504 00           2367         STP0    ALIST
   023463 (2)025341 2350 00           2368         LDA     BUF_LGTH
   023464 (2)025332 7550 00           2369         STA     ALIST+1
   023465    000002 6200 00           2370         EAX0    2
   023466 (2)025336 7400 00           2371         STX0    DLIST
   023467 (2)025324 6304 00           2372         EPPR0   PLIST
   023470 (2)025336 6314 00           2373         EPPR1   DLIST
   023471  X 000000 7010 00           2374         TSX1    WRITE_PATCH
   023472    000000 0110 00           2375         NOP
   023473 (2)023706 7100 00           2376         TRA     RINT_EX
                                      2377  *
   023474                             2378  MREAD  NULL
   023474 (2)025347 2200 00           2379         LDX0    PWHOTIGR        Identifies the caller
   023475 (2)025331 7400 00           2380         STX0    ALIST
   023476  X 000000 6304 00           2381         EPPR0   POBUF           Replacement buffer
   023477 (2)025332 4504 00           2382         STP0    ALIST+1
   023500 (2)025341 2350 00           2383         LDA     BUF_LGTH        Buffer length
   023501 (2)025333 7550 00           2384         STA     ALIST+2
   023502    000003 6200 00           2385         EAX0    3
   023503 (2)025336 7400 00           2386         STX0    DLIST           Param#
   023504 (2)025324 6304 00           2387         EPPR0   PLIST
   023505 (2)025336 6314 00           2388         EPPR1   DLIST
   023506  X 000000 7010 00           2389         TSX1    READ_PATCH
   023507 (2)023542 7100 00           2390         TRA     MERRET          Error return
   023510                             2391  MNORMRET NULL
   023510 (2)025340 4704 00           2392         LDP0    BUF$            Move buffer
   023511  X 000000 6314 00           2393         EPPR1   POBUF
   023512 (2)025341 7210 00           2394         LXL1    BUF_LGTH
   023513    000 0 140 1005 40        2395         MLR     (1,1),(1,1)
   023514    1 00000 0 0 0 0011       2396         ADSC9   0,,1,1
   023515    0 00000 0 0 0 0011       2397         ADSC9   0,,1,0
   023516 (2)023706 7100 00           2398         TRA     RINT_EX
                                      2399  *
 22:48 07/29/97  FILE=ISI$BOOT.:E05TSI        AARDVARK - MINIQ - MINI-IOQ FOR USE BY DELTA ETC.          84   BMAP - B00
   023517                             2400  CHNG_CNF NULL                  Change AARDVARK config
   023517  X 000000 7010 00           2401         TSX1    ACONFIG
   023520 (2)025350 0540 00           2402         AOS     XMERFLG           ERROR FORCE AN ALTRETURN
   023521 (2)023706 7100 00           2403         TRA     RINT_EX
                                      2404  *
   023522                             2405  MINIQMX NULL
   023522 (2)023675 7060 00           2406         TSX6    STINDX          Get device index in DEVINFO
   023523 (2)025337 2350 00           2407         LDA     TINDX
   023524 (2)025331 7550 00           2408         STA     ALIST
   023525  X 000000 6304 00           2409         EPPR0   POBUF           Replacement buffer
   023526 (2)025332 4504 00           2410         STP0    ALIST+1
   023527 (2)025341 2350 00           2411         LDA     BUF_LGTH        Buffer length
   023530 (2)025333 7550 00           2412         STA     ALIST+2
   023531 (2)025334 4430 00           2413         SXL3    ALIST+3         I/O Code
   023532 (2)025335 4450 00           2414         SXL5    ALIST+4         Eventual Gran#
   023533    000005 6200 00           2415         EAX0    5
   023534 (2)025336 7400 00           2416         STX0    DLIST
   023535 (2)025324 6304 00           2417         EPPR0   PLIST
   023536 (2)025336 6314 00           2418         EPPR1   DLIST
   023537  X 000000 7010 00           2419         TSX1    MINIQ_PL6
   023540 (2)023542 7100 00           2420         TRA     MERRET          Error return
   023541 (2)023510 7100 00           2421         TRA     MNORMRET        Normal return
                                      2422  *
   023542                             2423  MERRET NULL                    Error return
   023542 (2)025340 4704 00           2424         LDP0    BUF$            Move buffer
   023543  X 000000 6314 00           2425         EPPR1   POBUF
   023544 (2)025341 7210 00           2426         LXL1    BUF_LGTH
   023545    000 0 140 1005 40        2427         MLR     (1,1),(1,1)
   023546    1 00000 0 0 0 0011       2428         ADSC9   0,,1,1
   023547    0 00000 0 0 0 0011       2429         ADSC9   0,,1,0
   023550 (2)025350 0540 00           2430         AOS     XMERFLG         Error flag
   023551 (2)023706 7100 00           2431         TRA     RINT_EX
                                      2432  *
                                      2433  *
                                      2434         INHIB   ON
   023552                             2435  MINIQX NULL                    XDEL MUST TSX HERE
   023552    000000 7134 00           2436         ENTER   =O6000+XL.AENT  CLIMB to MYSELFX
 22:48 07/29/97  FILE=ISI$BOOT.:E05TSI        AARDVARK - MINIQ - MINI-IOQ FOR USE BY DELTA ETC.          85   BMAP - B00
   023553    0 000 000 20 6027
                                      2437  * Get here on EXIT, and return to caller
   023554 (2)025350 2142 00           2438         SZNC    XMERFLG
   023555 (2)023557 6012 00           2439         TNZ     *+2
   023556    7 00001 7103 17          2440         TRA     1,7,7
   023557    7 00000 7103 17          2441         TRA     0,7,7
   023560                             2442  MYSELFX NULL
   023560 (2)024322 4726 00           2443         LDP2    INITPR2$        Reset the AUTO
   023561 (2)016523 2362 00           2444         LDQ     DESCXI+1
   023562    000020 7362 00           2445         QLS     18-2
   023563 (2)025340 7552 00           2446         STA     BUF$
   023564 (2)025340 0362 00           2447         ADLQ    BUF$
   023565    777777 3762 03           2448         ANQ     -1,DU
   023566    006000 2762 07           2449         ORQ     S.AIS,DL
   023567 (2)025340 7562 00           2450         STQ     BUF$
   023570 (2)023664 7062 00           2451         TSX6    DOBUF_LGTH      Get buffer length
   023571 (2)024351 7012 00           2452         TSX1    S_INT           Save int masks and mask int
   023572    000000 0112 00           2453         NOP
                                      2454         INHIB   OFF
   023573    000000 1040 03           2455         CMPX4   0,DU            Read/write patch ?
   023574 (2)023643 6054 00           2456         TPNZ    MINIQXX         No
   023575 (2)023626 6000 00           2457         TZE     XREAD           Read patch
   023576                             2458  XWRITE NULL                    Write patch
   023576  X 000000 2340 00           2459         SZN     MONPA           Is !XDEL written ?
   023577 (2)023613 6010 00           2460         TNZ     XALLWRIT        Yes
   023600  X 000000 0540 00           2461         AOS     MONPA           Write it
   023601 (2)025342 6304 00           2462         EPPR0   BANGDEL
   023602 (2)025331 4504 00           2463         STP0    ALIST
   023603    000010 6200 00           2464         EAX0    8               Buf lgth
   023604 (2)025332 4400 00           2465         SXL0    ALIST+1
   023605    000002 6200 00           2466         EAX0    2
   023606 (2)025336 7400 00           2467         STX0    DLIST           param#
   023607 (2)025324 6304 00           2468         EPPR0   PLIST
   023610 (2)025336 6314 00           2469         EPPR1   DLIST
   023611  X 000000 7010 00           2470         TSX1    WRITE_PATCH
   023612    000000 0110 00           2471         NOP
   023613                             2472  XALLWRIT NULL
 22:48 07/29/97  FILE=ISI$BOOT.:E05TSI        AARDVARK - MINIQ - MINI-IOQ FOR USE BY DELTA ETC.          86   BMAP - B00
   023613 (2)025340 2350 00           2473         LDA     BUF$
   023614 (2)025331 7550 00           2474         STA     ALIST
   023615 (2)025341 2350 00           2475         LDA     BUF_LGTH
   023616 (2)025332 7550 00           2476         STA     ALIST+1
   023617    000002 6200 00           2477         EAX0    2
   023620 (2)025336 7400 00           2478         STX0    DLIST
   023621 (2)025324 6304 00           2479         EPPR0   PLIST
   023622 (2)025336 6314 00           2480         EPPR1   DLIST
   023623  X 000000 7010 00           2481         TSX1    WRITE_PATCH
   023624    000000 0110 00           2482         NOP
   023625 (2)023706 7100 00           2483         TRA     RINT_EX
                                      2484  *
   023626                             2485  XREAD  NULL                    Read patch
   023626 (2)025346 2200 00           2486         LDX0    PWHOXDEL        Identifies the caller
   023627 (2)025331 7400 00           2487         STX0    ALIST
   023630 (2)025340 2350 00           2488         LDA     BUF$            Pointer to buffer
   023631 (2)025332 7550 00           2489         STA     ALIST+1
   023632 (2)025341 2350 00           2490         LDA     BUF_LGTH        Buf length
   023633 (2)025333 7550 00           2491         STA     ALIST+2
   023634    000003 6200 00           2492         EAX0    3
   023635 (2)025336 7400 00           2493         STX0    DLIST           Param#
   023636 (2)025324 6304 00           2494         EPPR0   PLIST
   023637 (2)025336 6314 00           2495         EPPR1   DLIST
   023640  X 000000 7010 00           2496         TSX1    READ_PATCH
   023641 (2)023662 7100 00           2497         TRA     XERRET
   023642 (2)023706 7100 00           2498         TRA     RINT_EX
                                      2499  *
   023643                             2500  MINIQXX NULL                   Come here on a normal I/O
   023643 (2)023675 7060 00           2501         TSX6    STINDX          Get index in DEVINFO
   023644 (2)025337 2350 00           2502         LDA     TINDX
   023645 (2)025331 7550 00           2503         STA     ALIST
   023646 (2)025340 2350 00           2504         LDA     BUF$
   023647 (2)025332 7550 00           2505         STA     ALIST+1
   023650 (2)025341 2350 00           2506         LDA     BUF_LGTH
   023651 (2)025333 7550 00           2507         STA     ALIST+2
   023652 (2)025334 4430 00           2508         SXL3    ALIST+3         I/O code
   023653    000004 6200 00           2509         EAX0    4
 22:48 07/29/97  FILE=ISI$BOOT.:E05TSI        AARDVARK - MINIQ - MINI-IOQ FOR USE BY DELTA ETC.          87   BMAP - B00
   023654 (2)025336 7400 00           2510         STX0    DLIST
   023655 (2)025324 6304 00           2511         EPPR0   PLIST
   023656 (2)025336 6314 00           2512         EPPR1   DLIST
   023657  X 000000 7010 00           2513         TSX1    MINIQ_PL6
   023660 (2)023662 7100 00           2514         TRA     XERRET
   023661 (2)023706 7100 00           2515         TRA     RINT_EX
   023662                             2516  XERRET NULL
   023662 (2)025350 0540 00           2517         AOS     XMERFLG
   023663 (2)023706 7100 00           2518         TRA     RINT_EX
                                      2519  *
                                      2520         INHIB   ON              *******
   023664                             2521  DOBUF_LGTH NULL
                                      2522  * This program determines the length of
                                      2523  * the user's buffer
                                      2524  * CALL TSX6
   023664    777777 3752 07           2525         ANA     =O777777,DL     A contains a TALLY or TALLYB word
   023665    000040 3152 07           2526         CANA    =O40,DL         TALLYB ?
   023666 (2)023672 6012 00           2527         TNZ     TALLYBW         Yes
   023667    000006 7712 00           2528         ARL     6
   023670    000002 7352 00           2529         ALS     2               Make it a byte count
   023671 (2)023673 7102 00           2530         TRA     *+2
   023672    000006 7712 00           2531  TALLYBW ARL    6
   023673 (2)025341 7552 00           2532         STA     BUF_LGTH
   023674    000000 7102 16           2533         TRA     0,X6
                                      2534  *
   023675                             2535  STINDX NULL
                                      2536  * This program determines the index in DEVINFO
                                      2537  * for the user's device
                                      2538  * CALL TSX6
   023675  X 000000 7242 14           2539         LXL4   INDXT,X4
   023676 (2)025337 4442 00           2540         SXL4    TINDX
   023677    000000 7102 16           2541         TRA     0,X6
                                      2542  *
                                      2543  *                              *******
   023700                             2544  IOINT  NULL                    *******COME HERE AFTER IO INTERRUPT
   023700 (2)022352 7102 00           2545         TRA     MINT            *******CHANGE TO NOP IF DESIRED
   023701    001764 4746 07           2546         LDP     DR.SSR,DSSR,DL  *******LOAD SS STACK DESC. INTO DR#SS
 22:48 07/29/97  FILE=ISI$BOOT.:E05TSI        AARDVARK - MINIQ - MINI-IOQ FOR USE BY DELTA ETC.          88   BMAP - B00
   023702    001761 4746 07           2547         LDP     DR.SSR,DTYP,DL  *******CHANGE DESC. TYPE FROM 1 TO 0
   023703    4 00004 2203 00          2548         LDX0    SSIC,,DR.SSR    *******PICK UP IC FROM SAFE STORE FRAME
   023704    000000 7134 00           2549         EXIT                    *******AND CLIMB OUTWARD
   023705    0 000 000 01 0000
                                      2550  *
   023706                             2551  RINT_EX NULL                   Restore int masks and exit
   023706 (2)024367 7012 00           2552         TSX1    R_INT
   023707    000000 0112 00           2553         NOP
   023710    000000 7134 00           2554         EXIT
   023711    0 000 000 01 0000
                                      2555  *
                                      2556         INHIB   OFF             *******

 22:48 07/29/97  FILE=ISI$BOOT.:E05TSI        DINGO - LDSPWS - INITIALIZES STACK POINTERS                89   BMAP - B00
                                      2557         TTLS    DINGO - LDSPWS - INITIALIZES STACK POINTERS
                                      2558  *
   023712                             2559  LDSPWS NULL
   023712    000000 6200 00           2560         EAX0    0               INDEX
   023713 (2)023722 2350 10           2561         LDA     SPW1+1,X0       INITIALIZE THE STACKS
   023714 (2)023721 7550 10           2562         STA     SPW1,X0
   023715    000014 1000 03           2563         CMPX0   SPWS-SPW1,DU    ARE WE DONE YET?
   023716    000000 6050 17           2564         TPL     0,X7            YES -> RETURN
   023717    000002 6200 10           2565         EAX0    2,X0            NO -> BUMP INDEX
   023720 (2)023713 7100 00           2566         TRA     LDSPWS+1        AND CONTINUE
   023721 (2)023740 0010 10           2567  SPW1   TALLYD  STACK1,8,8      STACK RUNS 8 DEEP
   023722 (2)023740 0010 10           2568         TALLYD  STACK1,8,8      INITIAL VALUE FOR SPW1
   023723 (2)024040 0014 00           2569  SPW2   TALLY   STACK2,12       STACK RUNS 12 DEEP
   023724 (2)024040 0014 00           2570         TALLY   STACK2,12       INITIAL VALUE FOR SPW2
   023725 (2)024100 0050 02           2571  SPW3   TALLYD  STACK3,40,2     STACK RUNS 40 DEEP
   023726 (2)024100 0050 02           2572         TALLYD  STACK3,40,2     INITIAL VALUE FOR SPW3
   023727 (2)024054 0012 02           2573  SPWF   TALLYD  STACKF,10,2     ALLOW 10 ENTRIES
   023730 (2)024054 0012 02           2574         TALLYD  STACKF,10,2
   023731 (2)024220 0012 02           2575  SPWI   TALLYD  STACKI,10,2     STACK RUNS 10 DEEP
   023732 (2)024220 0012 02           2576         TALLYD  STACKI,10,2
   023733 (2)024244 0010 00           2577  SPWQ   TALLY   STACKQ,8        STACKQ RUNS 8 DEEP
   023734 (2)024244 0010 00           2578         TALLY   STACKQ,8        INITIAL VALUE FOR SPWQ
   023735 (2)024254 0010 02           2579  SPWS   TALLYD  STACKS,8,2      STACKS RUNS 8 DEEP
   023736 (2)024254 0010 02           2580         TALLYD  STACKS,8,2      INITIAL VALUE FOR SPWS
   023737    000000000000             2581  MPCFLG OCT     0               NON-ZERO INDICATES PSI INTERFACE
                                      2582         EIGHT
   023740                             2583  STACK1 BSS     8*8             REGISTERS SAVED HERE
   024040                             2584  STACK2 BSS     12              REGISTERS       SAVED HERE
   024054                             2585  STACKF BSS     10*2            FAULT ENTRY DESCRIPTOR SAVED HERE
   024100                             2586  STACK3 BSS     40*2            MAILBOXES SAVED HERE
   024220                             2587  STACKI BSS     10*2            INTERRUPT MASK REG SAVED HERE
   024244                             2588  STACKQ BSS     8               MINIQ RETURN SWITCH PUSHED HERE
   024254                             2589  STACKS BSS     8*2             MINIQ SAVES CALLERS SSR HERE IF NECESSARY
   024274    000000000017             2590  PMASK  OCT     17,17           MEMORY PORT BITS
   024275    000000000017

 22:48 07/29/97  FILE=ISI$BOOT.:E05TSI        AARDVARK WAIT ROUTINE                                      90   BMAP - B00
                                      2591         TTLS    AARDVARK WAIT ROUTINE
                                      2592  *
                                      2593  *      CALLING SEQUENCE
                                      2594  *      TSX7    WAIT
                                      2595  *
   024276                             2596  WAIT   NULL
   024276 (2)023723 7550 56           2597         STA     SPW2,ID         SAVE A
   024277    000000 6350 00           2598         EAA     0
   024300    000001 0750 07           2599         ADA     1,DL
   024301    400000 3150 07           2600         CANA    =O400000,DL
   024302 (2)024300 6000 00           2601         TZE     *-2
   024303 (2)023723 2350 54           2602         LDA     SPW2,DI         RESTORE A
   024304    000000 7100 17           2603         TRA     0,X7
                                      2604  *
           X 000000000000             2605  GRANBUF EQU    POBUF           MAY AS WELL USE POBUF FOR NOW
                                      2606  *
   024305    000000000000             2607  PDBR1  OCT     0               VALUE LOADED INTO SLAVE PDBR
                                      2608  *

 22:48 07/29/97  FILE=ISI$BOOT.:E05TSI        SETAUTO - INIT THE AUTO SPACE AND DESCR FOR AARDV          91   BMAP - B00
                                      2609         TTLS    SETAUTO - INIT THE AUTO SPACE AND DESCR FOR AARDV
   024306                             2610  SETAUTO NULL
   024306  X 000000 7210 00           2611         LXL1    AUTOSIZEW
   024307    000001 1610 03           2612         SBX1    1,DU
   024310 (2)017006 7410 00           2613         STX1    DESAAAUTO
   024311 (2)024317 6304 00           2614         EPPR0   PTRLIST
   024312 (1)000001 6314 00           2615         EPPR1   =V18/3,18/0
   024313  X 000000 7010 00           2616         TSX1    X66_MSTATIC
   024314    000000 0110 00           2617         NOP
   024315 (2)024322 4724 00           2618         LDP2    INITPR2$
   024316    000000 7100 12           2619         TRA     0,X2
   024317                             2620  PTRLIST NULL
   024317 (2)016452 0 00 6000         2621         PTR     S.AIS,I$AAAUTO$
   024320  X 000000 0 00 6000         2622         PTR     S.AIS,AUTOSIZEW
   024321 (2)024322 0 00 6000         2623         PTR     S.AIS,INITPR2$
   024322    000000000000             2624  INITPR2$ OCT   0

 22:48 07/29/97  FILE=ISI$BOOT.:E05TSI        BMAP ROUTINES                                              92   BMAP - B00
                                      2625         TTLS    BMAP ROUTINES
                                      2626  *
                                      2627  *      START_IO    executes a CIOC instr
                                      2628  *
   024323                             2629  START_IO NULL
   024323    0 00000 4705 00          2630         LDP0    0,,0
   024324    0 00000 0151 00          2631         CIOC    0,,0
   024325    000000 7100 11           2632         TRA     0,X1            RETURN
                                      2633  *
                                      2634  *      START_IO_RPM executes a CIOC instr on an IMX
                                      2635  *
   024326                             2636  START_IO_RPM NULL
   024326    0 00001 4715 00          2637         LDP1    1,,0            Addr of MAILBOX$
   024327    0 00000 4705 00          2638         LDP0    0,,0            Addr of logical chan#
   024330    0 00000 2351 00          2639         LDA     0,,0            chn#->AL
   024331    700000 2750 03           2640         ORA     =O700000,DU     connect, non-paged
   024332    1 00000 4715 00          2641  IO_COM LDP1    0,,1            Pointer to mailbox
   024333    1 00000 0151 00          2642         CIOC    0,,1
   024334    000000 7100 11           2643         TRA     0,X1            RETURN
                                      2644  *
                                      2645  *
   024335                             2646  INIT_CHN_RPM NULL              RSO & Mask Adapter
   024335    0 00001 4715 00          2647         LDP1    1,,0            Pointer to mailbox ptr
   024336    0 00000 4705 00          2648         LDP0    0,,0            Pointer to logical channel
   024337    0 00000 2351 00          2649         LDA     0,,0            Logical channel in A
   024340    730000 2750 03           2650         ORA     =O730000,DU     connect, non-paged, RSO and Mask
   024341 (2)024332 7100 00           2651         TRA     IO_COM
                                      2652  *
                                      2653  *
   024342                             2654  INIT_FEP_RPM NULL              DI Channel Initiate
   024342    0 00001 4715 00          2655         LDP1    1,,0            Pointer to mailbox ptr
   024343    0 00000 4705 00          2656         LDP0    0,,0            Pointer to logical channel
   024344    0 00000 2351 00          2657         LDA     0,,0            Logical channel in A
   024345    740000 2750 03           2658         ORA     =O740000,DU     connect,non-paged, DI channel initate
   024346 (2)024332 7100 00           2659         TRA     IO_COM
                                      2660  *
                                      2661  *      CLEAR_CACHE executes a CCAC instruction
 22:48 07/29/97  FILE=ISI$BOOT.:E05TSI        BMAP ROUTINES                                              93   BMAP - B00
                                      2662  *
   024347                             2663  CLEAR_CACHE NULL
   024347    000000 0114 00           2664         CCAC
   024350    000000 7100 11           2665         TRA     0,X1            RETURN
                                      2666  *
                                      2667  *
                                      2668  *      S_INT saves INTERRUPT MASK REG and disables interrupts
                                      2669  *
                                      2670         INHIB ON
   024351                             2671  S_INT  NULL
   024351 (2)022007 2342 00           2672         SZN     S1000_FLG
   024352 (2)024362 6012 00           2673         TNZ     S_INTS
   024353    000000 2332 00           2674         RMCM    0               Get INT MSK REG in A,Q
   024354 (2)023731 7572 53           2675         STAQ    SPWI,AD         Push in stack
   024355    000017 3752 07           2676         ANA     =O17,DL         Keep only memory PORT bits
   024356    000017 3762 07           2677         ANQ     =O17,DL
   024357 (2)024274 7572 00           2678         STAQ    PMASK           Save current PORT MASKs
   024360    000000 5532 00           2679         SMCM    0               Disable INT
   024361    000000 7102 11           2680         TRA     0,X1            Return
   024362    000000 2332 00           2681  S_INTS RIMR                    Read masks
   024363 (2)023731 7572 53           2682         STAQ    SPWI,AD         Save
   024364    000000 6352 00           2683         EAA     0
   024365    000000 5532 00           2684         LIMR                    Disable interrupts
   024366    000000 7102 11           2685         TRA     0,X1
                                      2686  *
                                      2687  *      R_INT restores INTERRUPT MASK REG
                                      2688  *
   024367                             2689  R_INT  NULL
   024367 (2)023731 2372 44           2690         LDAQ    SPWI,SD         Pull from stack
   024370 (2)022007 2342 00           2691         SZN     S1000_FLG
   024371 (2)024375 6012 00           2692         TNZ     R_INTS
   024372 (2)024274 2772 00           2693         ORAQ    PMASK           Make sure PORTS are enabled
   024373    000000 5532 00           2694         SMCM    0
   024374    000000 7102 11           2695         TRA     0,X1            Return
   024375                             2696  R_INTS NULL
   024375    000000 5532 00           2697         LIMR
   024376    000000 7102 11           2698         TRA     0,X1
 22:48 07/29/97  FILE=ISI$BOOT.:E05TSI        BMAP ROUTINES                                              94   BMAP - B00
                                      2699         INHIB OFF
                                      2700  *
   024377                             2701  GIVEUP NULL                    Nothing else to do
   024377    000000 6160 00           2702         DIS     0
                                      2703  *
   024400                             2704  MDELTCALL NULL
   024400  X 000000 7070 00           2705         TSX7    MDELTA
   024401    000000 7100 11           2706         TRA     0,X1
                                      2707  *
   024402                             2708  LOADPDBR NULL
   024402  X 000000 1714 00           2709         LPDBR   PPDBR
   024403    000000 7100 11           2710         TRA     0,X1
   024404                             2711  LOAD_SSR NULL
   024404    0 00000 4705 00          2712         LDP0    0,,0
   024405    0 00000 7735 00          2713         LDSS    0,,0
   024406    000000 7100 11           2714         TRA     0,X1
                                      2715  *
                                      2716  *     Wait for a specified amount of time
   024407                             2717  WT_TIME NULL
   024407    000000 6350 00           2718         EAA     0
   024410    0 00000 4705 00          2719         LDP0    0,,0
   024411    0 00000 2361 00          2720         LDQ     0,,0            The time value->A,Q
   024412 (2)024422 7570 00           2721         STAQ    X_TIME
   024413    000040 4130 00           2722         RSCR    32              Actual time->A,Q
   024414 (2)024422 0770 00           2723         ADAQ    X_TIME
   024415 (2)024422 7570 00           2724         STAQ    X_TIME
   024416    000040 4130 00           2725         RSCR    32
   024417 (2)024422 1170 00           2726         CMPAQ   X_TIME          Enough?
   024420    777776 6020 04           2727         TNC     -2,IC           No
   024421    000000 7100 11           2728         TRA     0,X1            Yes
                                      2729  *
                                      2730         EVEN
   024422    000000000000             2731  X_TIME OCT     0
   024423    000000000000             2732         OCT     0

 22:48 07/29/97  FILE=ISI$BOOT.:E05TSI        C P 6 - B O O T S U B R                                    95   BMAP - B00
                                      2733         TTLS    C P 6 - B O O T S U B R
             000000000030             2734  BASE   BOOL    30
                                      2735         PMC     OFF
                                      2736  *      IOM DISC BOOT RECORD
   024424                             2737  MREF   NULL
                                      2738  *  ENTRY DESCRIPTOR
   024424    000034 0 0000 0 13       2739  MC1    VFD     18/MC1B-MREF+BASE,1/0,10/0,3/0,4/11 ENTLOC,S,ISEGNO,WSR,TYPE
   024425    0002 00000032 0          2740         VFD     10/2,24/MC1A-MREF+BASE,2/0  LBOUND,LBASE,(IN BYTES)
                                      2741  *  INSTRUCTION SEGMENT DESCRIPTOR
   024426    3777777 717 0 00         2742  MC1A   VFD     20/MEMSIZ*4+3,O9/717,3/0,4/0 BND,FLAGS,WSR,TYPE
   024427    0000 000000000           2743         VFD     10/0,26/0       0,BASE(BYTES)
                                      2744         INHIB   ON
   024430                             2745  MC1B   NULL
   024430    000066 6242 00           2746         EAX4    MC2-MREF+BASE   SET INTERRUPT ENTRY DSCR
   024431    000030 7442 00           2747         STX4    MC1-MREF+BASE
   024432    000001 2362 00           2748         LDQ     1               GET CHN#
   024433    000033 7722 00           2749         QRL     27              IN QL
   024434    000040 1162 07           2750         CMPQ    32,DL
   024435    000003 6042 04           2751         TMI     3,IC            Channel# < 32
   024436    000040 1362 07           2752         SBLQ    32,DL
   024437    000112 0542 00           2753         AOS     MCHN#32-MREF+BASE
   024440    400000 2352 03           2754         LDA     =O400000,DU
   024441    000000 7712 06           2755         ARL     0,QL            BUILD MASK
   024442    000111 7552 00           2756         STA     MCHAN_MSK-MREF+BASE
   024443    000001 2362 00           2757         LDQ     1               BITS 0-8 ARE BOOT CHANNEL #
   024444    000007 7722 00           2758         QRL     7               TIMES 4 IN Q UPPER
   024445    000002 0362 00           2759         ADLQ    2               PLUS MAILBOX BASE
   024446    000112 2342 00           2760         SZN     MCHN#32-MREF+BASE Channel# > 32 ?
   024447    000002 6002 04           2761         TZE     2,IC            No
   024450    000004 1362 07           2762         SBLQ    4,DL            IMW cell - 4
   024451    000114 2352 00           2763  MC1CON LDA     MC1LPW-MREF+BASE LIST POINTER WORD FOR NEXT IO
   024452    000000 7552 02           2764         STA     0,QU
   024453    000122 2352 00           2765         LDA     MC1PCW-MREF+BASE PCW WITH UNIT# IF DISC BOOT
   024454    000000 7552 00           2766         STA     0
   024455    000014 4502 06           2767         STZ     12,QL           CLEAR TERMINATE IMW
   024456    000001 0152 00           2768         CIOC    1               START I-O
   024457                             2769  MCP6L1W NULL
 22:48 07/29/97  FILE=ISI$BOOT.:E05TSI        C P 6 - B O O T S U B R                                    96   BMAP - B00
   024457    000000 0112 00           2770         NOP     0
   024460    000000 0112 00           2771         NOP     0
   024461    000000 6162 00           2772         DIS     0               WAIT FOR INTERRUPT
                                      2773  *
                                      2774  *
   024462                             2775  MC2    NULL
   024462    000014 0342 06           2776         LDAC    12,QL           INTERR WORD
   024463    000003 6012 04           2777         TNZ     3,IC
   024464    000014 0342 06           2778         LDAC    12,QL
   024465    000063 6002 00           2779         TZE     MCP6L1W-MREF+BASE
   024466    000111 3752 00           2780         ANA     MCHAN_MSK-MREF+BASE IS BOOT CHAN IT ?
   024467    000063 6002 00           2781         TZE     MCP6L1W-MREF+BASE NOT OUR CHANNEL
   024470    000002 2242 00           2782         LDX4    2               GET STATUS ADDRESS
   024471    000000 2352 14           2783         LDA     0,4             CHECK STATUS
   024472    000113 3152 00           2784         CANA    MSTSMSK-MREF+BASE
   024473    000002 6002 04           2785         TZE     2,IC
   024474    000003 6162 00           2786         DIS     3               ERROR
   024475    000120 2242 00           2787         LDX4    MC1DCW-MREF+BASE BUF FROM LAST IDCW
   024476    002000 6242 14           2788         EAX4    1024,4          BUF + SIZE -> X4
   024477  X 000000 1042 03           2789  MC1LIM CMPX4   CP6UL,DU        TEST FOR END
   024500 (2)022056 6032 00           2790         TRC     BOOTS           WE'RE THERE -> GO TO BISON START
   024501    000120 7442 00           2791         STX4    MC1DCW-MREF+BASE ADJUST BUF FOR NEXT RECORD
   024502    000020 2352 07           2792         LDA     16,DL           INCREMENT SEEK ADDRESS
   024503    000121 0552 00           2793         ASA     MC1SKAD-MREF+BASE
   024504    000055 7102 00           2794         TRA     MC1CON-MREF+BASE CONTINUE READ
                                      2795         INHIB   OFF
   024505    000000000000             2796  MCHAN_MSK OCT  0
   024506    000000000000             2797  MCHN#32 OCT    0
   024507    377237777760             2798  MSTSMSK OCT    377237777760    STATUS MASK
                                      2799                 400540000017    ALLOW- SYNC,9TK,PROTECTED,E/O,DEVICE NO.
                                      2800                                 DISALLOW- PWR,MAJ,SUB,SOFT,IOM,MBZ
   024510    000115 020007            2801  MC1LPW VFD     18/MC1SK-MREF+BASE,O18/020007       TALLY BIT AND COUNT OF 7
   024511    340000720000             2802  MC1SK  OCT     340000720000    SEEK IDCW
   024512    000121 00 0001           2803         IOTD    MC1SKAD-MREF+BASE,1        DCW FOR SEEK
   024513                             2804  MC1ICW NULL
   024513    250000700000             2805         OCT     250000700000    READ
                                      2806  *  CP6 WILL CHANGE ADDRESS AND TALLY IN C1DCW BELOW
 22:48 07/29/97  FILE=ISI$BOOT.:E05TSI        C P 6 - B O O T S U B R                                    97   BMAP - B00
   024514                             2807  MC1DCW NULL
   024514 (2)016000 00 2000           2808         IOTD    CP6LL,1024      DCW FOR TAPE/DISC
   024515    000000777777             2809  MC1SKAD OCT    777777          SEEK ADDRESS
   024516    000000720201             2810  MC1PCW  OCT    000000720201    PCW WITH UNIT# AND CONTINUE
   024517    000000000000             2811         OCT     0
   024520    000000000000             2812         OCT     0
   024521    000000000000             2813         OCT     0
   024522    000000000000             2814         OCT     0
   024523    102117117124             2815         UASCI   1,BOOT          For DPS90 validity check
   024524                             2816         ORG     MREF+64
                                      2817  *
                                      2818         PMC     OFF
                                      2819  *      IMX DISC BOOT RECORD
   024524                             2820  XREF   NULL
                                      2821  *  ENTRY DESCRIPTOR
   024524    000034 0 0000 0 13       2822  XC1    VFD     18/XC1B-XREF+BASE,1/0,10/0,3/0,4/11 ENTLOC,S,ISEGNO,WSR,TYPE
   024525    0002 00000032 0          2823         VFD     10/2,24/XC1A-XREF+BASE,2/0  LBOUND,LBASE,(IN BYTES)
                                      2824  *  INSTRUCTION SEGMENT DESCRIPTOR
   024526    3777777 717 0 00         2825  XC1A   VFD     20/MEMSIZ*4+3,O9/717,3/0,4/0 BND,FLAGS,WSR,TYPE
   024527    0000 000000000           2826         VFD     10/0,26/0       0,BASE(BYTES)
                                      2827         INHIB   ON
   024530                             2828  XC1B   NULL
   024530    000050 6242 00           2829         EAX4    XC2-XREF+BASE   SET INTERRUPT ENTRY DSCR
   024531    000030 7442 00           2830         STX4    XC1-XREF+BASE
   024532    000000 4122 00           2831         RIW
   024533                             2832  XC1CON NULL
   024533    041000 2352 03           2833         LDA     =O041000,DU     ALLOW TERMINATE INTERR
   024534    000000 5532 00           2834         LIMR
   024535    000100 2372 00           2835         LDAQ    XCLW-XREF+BASE  GET CHN LINK WORD + LPW
   024536    001406 7572 00           2836         STAQ    MBOX+6          IN MAILBOX
   024537    000004 2352 00           2837         LDA     4
   024540    001400 0152 00           2838         CIOC    MBOX
   024541                             2839  XCP6L1W NULL
   024541    000000 0112 00           2840         NOP     0
   024542    000000 0112 00           2841         NOP     0
   024543    000000 6162 00           2842         DIS     0
                                      2843  *
 22:48 07/29/97  FILE=ISI$BOOT.:E05TSI        C P 6 - B O O T S U B R                                    98   BMAP - B00
                                      2844  *
   024544                             2845  XC2    NULL
   024544    000000 4122 00           2846         RIW                     GET DOUBLE WORD INTERR
   024545    000000 2362 07           2847         LDQ     0,DL
   024546    000022 7332 00           2848         LRS     18              CHN# ->A27-35,IMX#->Q7-8
   024547    003000 3762 03           2849         ANQ     =O3000,DU
   024550    000024 7322 00           2850         QRS     27-7            IMX#*128
   024551    000010 0362 07           2851         ADLQ    8,DL            +8
   024552    000110 7562 00           2852         STQ     XC1WRK-XREF+BASE WORK CELL
   024553    000110 0352 00           2853         ADLA    XC1WRK-XREF+BASE IMX#*128+CHN#+8
   024554    400000 3362 07           2854         LCQ     =O400000,DL
   024555    000004 2112 00           2855         CMK     4               IS THIS THE BOOT CHN ?
   024556    000045 6012 00           2856         TNZ     XCP6L1W-XREF+BASE NO
   024557    001410 2352 00           2857         LDA     MBOX+8          GET STATUS
   024560    000107 3152 00           2858         CANA    XSTMSK-XREF+BASE
   024561    000002 6002 04           2859         TZE     2,IC
   024562    000003 6162 00           2860         DIS     3               IO ERROR
   024563    000105 2242 00           2861         LDX4    XC1DCW-XREF+BASE BUF FROM LAST IDCW
   024564    002000 6242 14           2862         EAX4    1024,4          BUF+SIZE -> X4
   024565  X 000000 1042 03           2863  XC1LIM CMPX4   CP6UL,DU        TEST FOR END
   024566 (2)022056 6032 00           2864         TRC     BOOTS           DONE
   024567    000105 7442 00           2865         STX4    XC1DCW-XREF+BASE ADJUST BUF FOR NEXT RECORD
   024570    000020 2352 07           2866         LDA     16,DL           INCREMENT SEEK ADDR
   024571    000106 0552 00           2867         ASA     XC1SKAD-XREF+BASE
   024572    000037 7102 00           2868         TRA     XC1CON-XREF+BASE
                                      2869  *
                                      2870  *
                                      2871         INHIB   OFF
   024573    000000 0110 00           2872         EVEN
   024574
   024574    000000000030             2873  XCLW   OCT     30              CHN LINK WORD
   024575    000102 400400            2874         VFD     18/XC1SK-XREF+BASE,O18/400400 LPW
   024576    340000720000             2875  XC1SK  OCT     340000720000    SEEK IDCW
   024577    000106 00 0001           2876         IOTD    XC1SKAD-XREF+BASE,1 DCW FOR SEEK
   024600    250000700000             2877  XC1ICW OCT     250000700000    IDCW FOR READ
   024601 (2)016000 00 2000           2878  XC1DCW IOTD    CP6LL,1024      DCW FOR READ
   024602    000000777777             2879  XC1SKAD OCT    777777
 22:48 07/29/97  FILE=ISI$BOOT.:E05TSI        C P 6 - B O O T S U B R                                    99   BMAP - B00
   024603    377222770060             2880  XSTMSK OCT    377222770060
   024604    000000000000             2881  XC1WRK OCT    0
   024624                             2882         ORG     XREF+64
   024624    000000000000             2883  RPM_BOOTIN OCT 0               Image of reg A after the interr
   024625    000003 7100 04           2884         EIGHT
   024630
   024630                             2885  CONS_MBX BSS   24
   024660                             2886  SH_MBX BSS     24
   024710                             2887  CHN3_MBX BSS     24
                                      2888  *
                                      2889  *
             000000000300             2890  RMBOX  BOOL    300             Mailbox addr for reboots
                                      2891  *      IMX REBOOT RECORD
   024740                             2892  RREF   NULL
   024740                             2893  RPM_BOOTRC NULL
                                      2894  *  ENTRY DESCRIPTOR
   024740    000034 0 0000 0 13       2895  RC1    VFD     18/RC1B-RREF+BASE,1/0,10/0,3/0,4/11 ENTLOC,S,ISEGNO,WSR,TYPE
   024741    0002 00000032 0          2896         VFD     10/2,24/RC1A-RREF+BASE,2/0  LBOUND,LBASE,(IN BYTES)
                                      2897  *  INSTRUCTION SEGMENT DESCRIPTOR
   024742    3777777 717 0 00         2898  RC1A   VFD     20/MEMSIZ*4+3,O9/717,3/0,4/0 BND,FLAGS,WSR,TYPE
   024743    0000 000000000           2899         VFD     10/0,26/0       0,BASE(BYTES)
                                      2900         INHIB   ON
   024744                             2901  RC1B   NULL
   024744    000064 2372 00           2902         LDAQ    RCLW-RREF+BASE  Chan link word + LPW
   024745    000306 7572 00           2903         STAQ    RMBOX+6         In MBOX
   024746                             2904  RC1CON NULL
   024746    000004 2352 00           2905         LDA     4               A Reg image
   024747    000300 0152 00           2906         CIOC    RMBOX           Start the I/O
                                      2907  *   Wait for the SYNC bit
   024750                             2908  SYNC_W NULL
   024750    000306 2362 00           2909         LDQ     RMBOX+6
   024751    000400 3162 07           2910         CANQ    =O400,DL
   024752    000040 6002 00           2911         TZE     SYNC_W-RREF+BASE
                                      2912  *   Check the status
   024753                             2913  STAT_W NULL
   024753    000310 2362 00           2914         LDQ     RMBOX+8
   024754    000002 6042 04           2915         TMI     2,IC
 22:48 07/29/97  FILE=ISI$BOOT.:E05TSI        C P 6 - B O O T S U B R                                    100  BMAP - B00
   024755    000043 7102 00           2916         TRA     STAT_W-RREF+BASE
   024756    000310 2362 00           2917         LDQ     RMBOX+8
   024757    000073 3162 00           2918         CANQ    RSTMSK-RREF+BASE
   024760    000002 6002 04           2919         TZE     2,IC
   024761    000003 6162 00           2920         DIS     3               Error
   024762    000071 2242 00           2921         LDX4    RC1DCW-RREF+BASE BUF FROM LAST IDCW
   024763    002000 6242 14           2922         EAX4    1024,4          BUF+SIZE -> X4
   024764  X 000000 1042 03           2923  RC1LIM CMPX4   CP6UL,DU        TEST FOR END
   024765 (2)022056 6032 00           2924         TRC     BOOTS           DONE
   024766    000071 7442 00           2925         STX4    RC1DCW-RREF+BASE ADJUST BUF FOR NEXT RECORD
   024767    000020 2352 07           2926         LDA     16,DL           INCREMENT SEEK ADDR
   024770    000072 0552 00           2927         ASA     RC1SKAD-RREF+BASE
                                      2928         INHIB   OFF
   024771    000064 2360 00           2929         LDQ     RCLW-RREF+BASE
   024772    000306 7560 00           2930         STQ     RMBOX+6
   024773    000036 7100 00           2931         TRA     RC1CON-RREF+BASE
                                      2932  *
                                      2933  *
                                      2934  *
                                      2935         EVEN
   024774    000000000032             2936  RCLW   OCT     32              CHN LINK WORD
   024775    000066 400400            2937         VFD     18/RC1SK-RREF+BASE,O18/400400 LPW
   024776    340000720000             2938  RC1SK  OCT     340000720000    SEEK IDCW
   024777    000072 00 0001           2939         IOTD    RC1SKAD-RREF+BASE,1 DCW FOR SEEK
   025000    250000700000             2940  RC1ICW OCT     250000700000    IDCW FOR READ
   025001 (2)016000 00 2000           2941  RC1DCW IOTD    CP6LL,1024      DCW FOR READ
   025002    000000777777             2942  RC1SKAD OCT    777777
   025003    377222770060             2943  RSTMSK OCT    377222770060
   025040                             2944         ORG     RREF+64
                                      2945  *
   025040                             2946  CLEAR_RIW NULL
   025040    000000 4120 00           2947         RIW                      READ INTERRUPT WORD
   025041    000000 1150 03           2948         CMPA    0,DU             ARE ANY INTERRUPTS SET
   025042 (2)025040 6010 00           2949         TNZ     CLEAR_RIW        READ UNTIL NO MORE INTERRUPTS
   025043    000000 7100 11           2950         TRA     0,X1
   025044                             2951  READ_CONNECT_TABLE NULL
   025044  X 000000 4520 07           2952         SCPR    CONNECT_TABLE,7 READ THE CONNECT/SECONDARY CON TABLE
 22:48 07/29/97  FILE=ISI$BOOT.:E05TSI        C P 6 - B O O T S U B R                                    101  BMAP - B00
   025045    000000 7100 11           2953         TRA     0,X1            RETURN
   025046                             2954  SET_TIME_FROM_SP NULL           SET TIME FROM THE SERVICE PROCESSOR
   025046    000040 4130 00           2955         RSCR    32               READ THE TIME
   025047    177777 3750 07           2956         ANA     =O177777,DL
   025050    0 00000 4715 00          2957         LDP1    0,,0             GET ADDRESS OF TIME
   025051    1 00000 2361 00          2958         LDQ     0,,1             GET THE TIME
   025052  X 000000 1160 00           2959         CMPQ    IR_UTS_COOKIE  IS IT POST 1/1/93
   025053 (2)025060 6030 00           2960         TRC     POST_COOKIE  YES IT IS
   025054    000001 7720 00           2961         QRL     1
   025055    047040 4020 07           2962         MPY     20000,DL         USECS
   025056    000040 0570 00           2963         SSCR    32
   025057    000000 7100 11           2964         TRA     0,X1
   025060                             2965  POST_COOKIE NULL
   025060  X 000000 1760 00           2966         SBQ     IR_UTS_COOKIE   SUBTRACT COOKIE UTS
   025061    000001 7720 00           2967         QRL     1            SHIFT RESULT
   025062    234200 4020 07           2968         MPY     80000,DL     CONVERT INTO MICROSECONDS
   025063    000001 3600 07           2969         ANX0    1,DL         WAS LOW ORDER BIT SET
   025064 (2)025066 6000 00           2970         TZE     *+2          NOPE
   025065 (2)025072 0370 00           2971         ADLAQ   TWENFIFHO    ADD IN 40000 MICRO SECONDS
   025066  X 000000 0370 00           2972         ADLAQ   IR_MS_COOKIE ADD IN MICRO SECONDS FOR COOKIE
   025067    000040 0570 00           2973         SSCR    32           STORE SERVICE PROCESSOR TIME
   025070    000001 7100 11           2974         TRA     1,X1
   025071    000000 0110 00           2975         EVEN
   025072
   025072    000000000000             2976  TWENFIFHO OCT  000000000000
   025073    000000116100             2977         OCT     000000116100
                                      2978  *  STANDARD LADC VFC IMAGE FOR PRT*401/402
                                      2979  *
   025074                             2980  VFCL   VFD     9/6,9/51,       DENSITY = 6, LINE COUNT =51
   025074    006 063 001 020          2981         ETC     9/1,O9/020,     LINE# = 1   TRACK# 5
                                      2982         ETC     9/2,O9/020,     LINE# = 2   TRACK# 5
   025075    002 020 003 020          2983         ETC     9/3,O9/020,     LINE# = 3   TRACK# 5
                                      2984         ETC     9/4,O9/020,     LINE# = 4   TRACK# 5
   025076    004 020 005 020          2985         ETC     9/5,O9/020,     LINE# = 5   TRACK# 5
                                      2986         ETC     9/6,O9/020,     LINE# = 6   TRACK# 5
   025077    006 020 007 140          2987         ETC     9/7,O9/140,     LINE# = 7   TRACK# 6,7  (SMK)
                                      2988         ETC     9/8,O9/040,     LINE# = 8   TRACK# 6
 22:48 07/29/97  FILE=ISI$BOOT.:E05TSI        C P 6 - B O O T S U B R                                    102  BMAP - B00
   025100    010 040 011 001          2989         ETC     9/9,O9/001,     LINE# = 9   TRACK# 1
                                      2990         ETC     9/11,O9/002,    LINE# = 11  TRACK# 2
   025101    013 002 015 003          2991         ETC     9/13,O9/003,    LINE# = 13  TRACK# 1,2
                                      2992         ETC     9/15,O9/004,    LINE# = 15  TRACK# 3
   025102    017 004 022 005          2993         ETC     9/18,O9/005,    LINE# = 18  TRACK# 1,3
                                      2994         ETC     9/21,O9/006,    LINE# = 21  TRACK# 2,3
   025103    025 006 030 007          2995         ETC     9/24,O9/007,    LINE# = 24  TRACK# 1,2,3
                                      2996         ETC     9/27,O9/010,    LINE# = 27  TRACK# 4
   025104    033 010 036 011          2997         ETC     9/30,O9/011,    LINE# = 30  TRACK# 1,4
                                      2998         ETC     9/33,O9/012,    LINE# = 33  TRACK# 2,4
   025105    041 012 044 013          2999         ETC     9/36,O9/013,    LINE# = 36  TRACK# 1,2,4
                                      3000         ETC     9/39,O9/014,    LINE# = 39  TRACK# 3,4
   025106    047 014 052 015          3001         ETC     9/42,O9/015,    LINE# = 42  TRACK# 1,3,4
                                      3002         ETC     9/44,O9/016,    LINE# = 44  TRACK# 2,3,4
   025107    054 016 055 060          3003         ETC     9/45,O9/060,    LINE# = 45  TRACK# 5,6
                                      3004         ETC     9/46,O9/020,    LINE# = 46  TRACK# 5
   025110    056 020 057 020          3005         ETC     9/47,O9/020,    LINE# = 47  TRACK# 5
                                      3006         ETC     9/48,O9/020,    LINE# = 48  TRACK# 5
   025111    060 020 061 020          3007         ETC     9/49,O9/020,    LINE# = 49  TRACK# 5
                                      3008         ETC     9/50,O9/020,    LINE# = 50  TRACK# 5
   025112    062 020 063 020          3009         ETC     9/51,O9/020     LINE# = 51  TRACK# 5
             000000000017             3010  VFCLSZ EQU     *-VFCL
                                      3011  *
                                      3012  *  STANDARD GCOS VFC IMAGE FOR PRT*401/402
                                      3013  *
   025113                             3014  VFCI   VFD     9/6,9/66,       DENSITY = 6, LINE COUNT =66
   025113    006 102 001 020          3015         ETC     9/1,O9/020,     LINE# = 1   TRACK# 5
                                      3016         ETC     9/2,O9/020,     LINE# = 2   TRACK# 5
   025114    002 020 003 020          3017         ETC     9/3,O9/020,     LINE# = 3   TRACK# 5
                                      3018         ETC     9/4,O9/020,     LINE# = 4   TRACK# 5
   025115    004 020 005 020          3019         ETC     9/5,O9/020,     LINE# = 5   TRACK# 5
                                      3020         ETC     9/6,O9/020,     LINE# = 6   TRACK# 5
   025116    006 020 007 100          3021         ETC     9/7,O9/100,     LINE# = 7   TRACK# 7
                                      3022         ETC     9/8,O9/040,     LINE# = 8   TRACK# 6
   025117    010 040 012 001          3023         ETC     9/10,O9/001,    LINE# = 10  TRACK# 1
                                      3024         ETC     9/14,O9/002,    LINE# = 14  TRACK# 2
   025120    016 002 022 003          3025         ETC     9/18,O9/003,    LINE# = 18  TRACK# 1,2
 22:48 07/29/97  FILE=ISI$BOOT.:E05TSI        C P 6 - B O O T S U B R                                    103  BMAP - B00
                                      3026         ETC     9/22,O9/004,    LINE# = 22  TRACK# 3
   025121    026 004 032 005          3027         ETC     9/26,O9/005,    LINE# = 26  TRACK# 1,3
                                      3028         ETC     9/30,O9/006,    LINE# = 30  TRACK# 2,3
   025122    036 006 042 007          3029         ETC     9/34,O9/007,    LINE# = 34  TRACK# 1,2,3
                                      3030         ETC     9/38,O9/010,    LINE# = 38  TRACK# 4
   025123    046 010 052 011          3031         ETC     9/42,O9/011,    LINE# = 42  TRACK# 1,4
                                      3032         ETC     9/46,O9/012,    LINE# = 46  TRACK# 2,4
   025124    056 012 062 013          3033         ETC     9/50,O9/013,    LINE# = 50  TRACK# 1,2,4
                                      3034         ETC     9/54,O9/014,    LINE# = 54  TRACK# 3,4
   025125    066 014 072 015          3035         ETC     9/58,O9/015,    LINE# = 58  TRACK# 1,3,4
                                      3036         ETC     9/62,O9/016,    LINE# = 62  TRACK# 2,3,4
   025126    076 016 102 060          3037         ETC     9/66,O9/060     LINE# = 66  TRACK# 5,6
             000000000014             3038  VFCISZ EQU     *-VFCI
   025127    000000000014             3039  VFCSZ  OCT     VFCISZ
                                      3040  *
   025130 (2)025131 00 0074           3041         IOTD    PTRAIN5,PTRN5SZ
   025131                             3042  PTRAIN5 NULL                   PRINT TRAIN IMAGE 500 TRAIN
   025131    075065066067             3043         UASCI   9,=5678GHIJKL|0.-*/MNOPQR:&(9),STUVWX}
   025132    070107110111
   025133    112113114174
   025134    060056055052
   025135    057115116117
   025136    120121122072
   025137    046050071051
   025140    054123124125
   025141    126127130175
   025142    060061062063             3044         UASCI   9,01234YZ$`#+!?5678ABCDEF~0.-*/GHIJKL<
   025143    064131132044
   025144    140043053041
   025145    077065066067
   025146    070101102103
   025147    104105106176
   025150    060056055052
   025151    057107110111
   025152    112113114074
   025153    076050071051             3045         UASCI   9,>(9),MNOPQR{01234STUVWX;'5678YZ$@#%_
   025154    054115116117
 22:48 07/29/97  FILE=ISI$BOOT.:E05TSI        C P 6 - B O O T S U B R                                    104  BMAP - B00
   025155    120121122173
   025156    060061062063
   025157    064123124125
   025160    126127130073
   025161    047065066067
   025162    070131132044
   025163    100043045137
   025164    060056055052             3046         UASCI   9,0.-*/ABCDEF"=(9),GHIJKL\01234MNOPQR:
   025165    057101102103
   025166    104105106042
   025167    075050071051
   025170    054107110111
   025171    112113114134
   025172    060061062063
   025173    064115116117
   025174    120121122072
   025175    046065066067             3047         UASCI   9,&5678STUVWX]0.-*/YZ$@#+!?(9),ABCDEF^
   025176    070123124125
   025177    126127130135
   025200    060056055052
   025201    057131132044
   025202    100043053041
   025203    077050071051
   025204    054101102103
   025205    104105106136
   025206    060061062063             3048         ASCII   9,01234ghijkl<>5678mnopqr[0.-*/stuvwx;
   025207    064147150151
   025210    152153154074
   025211    076065066067
   025212    070155156157
   025213    160161162133
   025214    060056055052
   025215    057163164165
   025216    166167170073
   025217    047050071051             3049         ASCII   6,'(9),yz$@#%_01234abcdef"
   025220    054171172044
   025221    100043045137
 22:48 07/29/97  FILE=ISI$BOOT.:E05TSI        C P 6 - B O O T S U B R                                    105  BMAP - B00
   025222    060061062063
   025223    064141142143
   025224    144145146042
             000000000074             3050  PTRN5SZ EQU    *-PTRAIN5       SIZE OF TRAIN IMAGE
   025225    000000000074             3051  TR5SZ  OCT     PTRN5SZ
                                      3052  *
   025226 (2)025227 00 0074           3053         IOTD    PTRAIN6,PTRN6SZ
   025227                             3054  PTRAIN6 NULL                   PRINT TRAIN IMAGE FOR 600 TRAIN
   025227    102104106107             3055         OCT     102104106107,110112147123,060101103105,111116117122
   025230    110112147123
   025231    060101103105
   025232    111116117122
   025233    114124141142             3056         OCT     114124141142,143144145146,113150151152,153154155115
   025234    143144145146
   025235    113150151152
   025236    153154155115
   025237    060120121125             3057         OCT     060120121125,126127130131,132072073077,041045067170
   025240    126127130131
   025241    132072073077
   025242    041045067170
   025243    171156157160             3058         OCT     171156157160,162163164167,060172061062,063064065066
   025244    162163164167
   025245    060172061062
   025246    063064065066
   025247    043070071056             3059         OCT     043070071056,054050051100,044075046057,047134136137
   025250    054050051100
   025251    044075046057
   025252    047134136137
   025253    060042074076             3060         OCT     060042074076,133135147123,176101103105,111116117122
   025254    133135147123
   025255    176101103105
   025256    111116117122
   025257    173124141142             3061         OCT     173124141142,143144145146,060150151152,153154155175
   025260    143144145146
   025261    060150151152
   025262    153154155175
   025263    174140055052             3062         OCT     174140055052,053161165166,102104106107,110112067170
 22:48 07/29/97  FILE=ISI$BOOT.:E05TSI        C P 6 - B O O T S U B R                                    106  BMAP - B00
   025264    053161165166
   025265    102104106107
   025266    110112067170
   025267    060156157160             3063         OCT     060156157160,162163164167,114172061062,063064065066
   025270    162163164167
   025271    114172061062
   025272    063064065066
   025273    113070071056             3064         OCT     113070071056,054050051115,060120121125,126127130131
   025274    054050051115
   025275    060120121125
   025276    126127130131
   025277    132072073077             3065         OCT     132072073077,041045147123,171101103105,111116117122
   025300    041045147123
   025301    171101103105
   025302    111116117122
   025303    060124141142             3066         OCT     060124141142,143144145146,043150151152,153154155100
   025304    143144145146
   025305    043150151152
   025306    153154155100
   025307    044075046057             3067         OCT     044075046057,047134136137,060042074076,133135067170
   025310    047134136137
   025311    060042074076
   025312    133135067170
   025313    176156157160             3068         OCT     176156157160,162163164167,173172061062,063064065066
   025314    162163164167
   025315    173172061062
   025316    063064065066
   025317    060070071056             3069         OCT     060070071056,054050051175,174140055052,053161165166
   025320    054050051175
   025321    174140055052
   025322    053161165166
             000000000074             3070  PTRN6SZ EQU    *-PTRAIN6
   025323    000000000074             3071  TR6SZ  OCT     PTRN6SZ
                                      3072  *
                                      3073  * Cells used to call PL6 routines
   025324 (2)025331 0 00 6000         3074  PLIST  PTR     S.AIS,ALIST
   025325 (2)025332 0 00 6000         3075         PTR     S.AIS,ALIST+1
 22:48 07/29/97  FILE=ISI$BOOT.:E05TSI        C P 6 - B O O T S U B R                                    107  BMAP - B00
   025326 (2)025333 0 00 6000         3076         PTR     S.AIS,ALIST+2
   025327 (2)025334 0 00 6000         3077         PTR     S.AIS,ALIST+3
   025330 (2)025335 0 00 6000         3078         PTR     S.AIS,ALIST+4
   025331                             3079  ALIST  BSS     5
   025336    000000000000             3080  DLIST  OCT     0
                                      3081  *
                                      3082  *
   025337    000000000000             3083  TINDX  OCT     0               Index in DEVINFO
   025340    000000000000             3084  BUF$   OCT     0               Pointer to user's buffer
   025341    000000000000             3085  BUF_LGTH OCT   0               Buffer length
                                      3086  *
   025342    041130104105             3087  BANGDEL UASCI  2,!XDEL
   025343    114040040040
   025344    041124111107             3088  BANGTIGR UASCI 2,!TIGR
   025345    122040040040
   025346    02 0000000000            3089  PWHOXDEL VFD   O6/02,30/0
   025347    04 0000000000            3090  PWHOTIGR VFD   O6/04,30/0
   025350    000000000000             3091  XMERFLG OCT     0
                                      3092  *
   025351    000000000000             3093  CODE   OCT     0
                                      3094  *
                                      3095         EVEN
   025352    000000000000             3096  READBTR OCT    0               USED FOR REMEMBER
   025353    000000000000             3097         OCT     0
   025354    000000000000             3098  PREPRESBR OCT  0               USED FOR REMEMBER
   025355    000000000000             3099         OCT     0
   025356    000000000000             3100  LWSRDR OCT     0
   025357    000000000000             3101         OCT     0
   025360    000000000000             3102  BOOTS1R OCT    0
   025361    000000000000             3103         OCT     0
                                      3104  *
          (2)000000025361             3105  AARDUL EQU     *-1             ASSIGN LABEL TO TOP OF AARDVARK

 22:48 07/29/97  FILE=ISI$BOOT.:E05TSI        A A R D V A R K                                            108  BMAP - B00
                                      3106         TTL     A A R D V A R K
          (2)000000025361             3107  MINIUL EQU     *-1             ASSIGN LABEL TO TOP OF MINI-DELTA
   025362    000006 7100 04           3108         EIGHT
   025370
   025370                             3109  SSTACK NULL                    BISON SAFE STORE STACK
   025370                             3110         BSS     64*6            6 FRAMES OUGHT TO BE ENUF
   026170                             3111  ASTACK NULL                    BISON ARGUMENT STACK
   026170                             3112         BSS     16
                                      3113  *
          (2)022056                   3114         END     BOOTS
 1 000000    000000000000
   000001    000003000000

  CONTROL SECTION TABLE

   0 DATA   EVEN  000134 ISI$BOOT_BOOTSTRAP
   1 RODATA EVEN  000002 LITERALS
   2 DATA   PAGE  026210 ISI$BOOT_MAIN

 22:48 07/29/97  FILE=ISI$BOOT.:E05TSI        SYMBOL TABLE                                               109  BMAP - B00
 07101002 000000022732 AAFLTD          37      1713      1771     *1824
 06101002 000000000000 AARD            38      *644
 40101002 000000025361 AARDUL       *3105
 61000000 000000000001 AARDVARK        *8      1449
 03201020 000000000000 ACONFIG       *161      2401
 01101002 000000022365 ACT           1522     *1524
 47000000 000000000040 AFLTLC          39      *270      1278      1281      1449      1656      1659
                                     1669      1844      1863      1880      1916      1919      2057
                                     2060      2154
 01101002 000000025331 ALIST         1463      1582      1584      1586      1588      2356      2358
                                     2367      2369      2380      2382      2384      2408      2410
                                     2412      2413      2414      2463      2465      2474      2476
                                     2487      2489      2491      2503      2505      2507      2508
                                     3074      3075      3076      3077      3078     *3079
 07101002 000000016466 ASDESC          40      *814      1690      1929
 01101002 000000026170 ASTACK         815     *3111
 03301005 000000000000 AUTOBUF       *168      1133
 03301006 000000000000 AUTOSIZEW     *169      2611      2622
 01101002 000000025342 BANGDEL       2462     *3087
 01101002 000000025344 BANGTIGR      2355     *3088
 41000000 000000000030 BASE          1626      1627      1629      1631     *2734      2739      2740
                                     2746      2747      2753      2756      2760      2763      2765
                                     2779      2780      2781      2784      2787      2791      2793
                                     2794      2801      2803      2822      2823      2829      2830
                                     2835      2852      2853      2856      2858      2861      2865
                                     2867      2868      2874      2876      2895      2896      2902
                                     2911      2916      2918      2921      2925      2927      2929
                                     2931      2937      2939
 00101002 000000022647 BASIC        *1763
 46101002 000000016000 BEGAA           93      *647
 61000000 000000000001 BMAP            *7       641
 03301007 000000000000 BOOTINFO      *170      1309      1310
 03301021 000000000000 BOOTRC        *186      1604
 13101002 000000022056 BOOTS           11       608       629     *1272      2790      2864      2924
                                     3114
 01101002 000000022113 BOOTS0        1274     *1306
 01101002 000000022147 BOOTS1        1232      1299      1327      1334     *1339      1735
 22:48 07/29/97  FILE=ISI$BOOT.:E05TSI        SYMBOL TABLE                                               110  BMAP - B00
 01101002 000000022161 BOOTS1C       1347     *1350
 07101002 000000025360 BOOTS1R        138      1736      1737     *3102
 01101002 000000022157 BOOTS1S       1324      1338      1342     *1348
 01101002 000000022070 BOOTSCOM     *1284      1305
 01101002 000000022107 BOOTSS        1283     *1301
 01101002 000000022225 BOOTSZ        1389      1402     *1406
 03301013 000000000000 BOOTTAPE      *176      1581
 07101002 000000016500 BSNLS           41       820       825      *833      1094      1151
 01101002 000000025340 BUF$          2337      2339      2392      2424      2446      2447      2450
                                     2473      2488      2504     *3084
 01101002 000000025341 BUF_LGTH      2341      2368      2383      2394      2411      2426      2475
                                     2490      2506      2532     *3085
 40000000 000000000043 C             *327
 01101000 000000000000 C1            *528       536      1579      1605      1637
 01101000 000000000002 C1A            529      *531
 01101000 000000000004 C1B            528      *534      1630      1644
 01101000 000000000126 C1DCW          537      *633
 01101000 000000000127 C1LPW          571      *634
 01101000 000000000047 C2             535      *578
 07101002 000000022742 CACHE           42      1728     *1829      1966
 01101002 000000022617 CACHE_DONE    1729     *1732
 01101002 000000023130 CACHE_LOADED  1967      1980      1985     *1997
 01101002 000000022743 CACHE_RPM     1731      1811     *1830      1970
 01101000 000000000130 CHAN_MASK      563       620      *635
 01101002 000000022703 CHECKI       *1795      1804
 01101002 000000023113 CHECK_SLAVE   1975     *1981
 01101000 000000000131 CHN#32         560       567      *636      1313
 06101002 000000024710 CHN3_MBX       122     *2887
 01101002 000000023517 CHNG_CNF      2334     *2400
 01101000 000000000072 CHNOK          595      *599
 12101002 000000024347 CLEAR_CACHE     24     *2663
 13101002 000000025040 CLEAR_RIW       23     *2946      2949
 03201021 000000000000 CLOSE_SYST    *162      1550
 07101002 000000025351 CODE           139       140      1517      1521     *3093
 01101002 000000022233 COMALL       *1413      1474      1528
 01101002 000000022223 COMDBTB      *1403      1457
 01101002 000000022304 COMOR         1410     *1458
 22:48 07/29/97  FILE=ISI$BOOT.:E05TSI        SYMBOL TABLE                                               111  BMAP - B00
 01101002 000000023174 CONF1         2048     *2052
 01101002 000000023267 CONF2         2123      2125     *2130
 01101002 000000023270 CONF3         2058      2104     *2132
 07101002 000000022003 CONFIG         100     *1179      1790
 01101002 000000023164 CONFIG_ELS1   1703      1946     *2037
 01101002 000000023332 CONFIG_RPM    1813     *2233
 01101002 000000022017 CONFIOP      *1193      1796
 41000000 000000001430 CONF_8000     *277      1372      1972      1976      2157
 07101002 000000022004 CONF_REG       101     *1180      1792
 03301017 000000000000 CONNECT_TABLE *181      2952
 07101002 000000022000 CONS_INFO       97     *1176      1788
 06101002 000000024630 CONS_MBX       119     *2885
 01101002 000000016000 CP6LL          633      *646       647      1365      1545      2808      2878
                                     2941
 03301002 000000000000 CP6UL         *165       607       628      1355      2789      2863      2923
 01101002 000000023003 CPUTYPE       1697     *1890      1940
 12101002 000000022034 DBOOT           10     *1219
 40000000 000000001776 DDRX          *297
 00101002 000000016006 DEBUG         *683
 07101002 000000017006 DESAAAUTO       82     *1131      2613
 07101002 000000016520 DESC0           43      *866       930
 01101002 000000016624 DESC99        *929       930
 00101002 000000016646 DESCA1        *968
 00101002 000000016756 DESCAALS     *1092
 00101002 000000016766 DESCALS      *1108
 00101002 000000016644 DESCAM        *964
 00101002 000000016556 DESCASCH      *892
 00101002 000000016700 DESCASCH0    *1013
 00101002 000000016702 DESCASCH1    *1016
 00101002 000000016724 DESCASCH10   *1043
 00101002 000000016726 DESCASCH11   *1046
 00101002 000000016704 DESCASCH2    *1019
 00101002 000000016706 DESCASCH3    *1022
 00101002 000000016710 DESCASCH4    *1025
 00101002 000000016712 DESCASCH5    *1028
 00101002 000000016714 DESCASCH6    *1031
 00101002 000000016716 DESCASCH7    *1034
 22:48 07/29/97  FILE=ISI$BOOT.:E05TSI        SYMBOL TABLE                                               112  BMAP - B00
 00101002 000000016720 DESCASCH8    *1037
 00101002 000000016722 DESCASCH9    *1040
 00101002 000000016744 DESCAU       *1074
 00101002 000000016770 DESCCLS      *1112
 06101002 000000016734 DESCCP          44     *1058
 00101002 000000016736 DESCCPPT     *1062
 00101002 000000017020 DESCD        *1148
 00101002 000000016562 DESCDDIR      *894
 00101002 000000016536 DESCDEF       *881
 00101002 000000016554 DESCDEF1      *891
 00101002 000000016764 DESCDLS      *1104
 00101002 000000016532 DESCENT       *877
 00101002 000000016550 DESCENT1      *889
 00101002 000000016622 DESCGI        *927
 00101002 000000016732 DESCGPT      *1054
 00101002 000000016542 DESCGR        *885
 00101002 000000016524 DESCH         *871
 00101002 000000016630 DESCH1        *940
 00101002 000000016752 DESCHU       *1085
 00101002 000000016624 DESCJ         *932
 00101002 000000016626 DESCJ1        *936
 00101002 000000016746 DESCJU       *1078
 40101002 000000016562 DESCL         *896
 06101002 000000016526 DESCMD          45      *873
 06101002 000000016620 DESCMI          46      *925
 00101002 000000016760 DESCMLS      *1096
 00101002 000000017014 DESCMONSSR   *1142
 06101002 000000016530 DESCMP          47      *875
 00101002 000000016564 DESCMP1       *897
 00101002 000000016606 DESCMP10      *915
 00101002 000000016610 DESCMP11      *917
 00101002 000000016612 DESCMP12      *919
 00101002 000000016614 DESCMP13      *921
 00101002 000000016616 DESCMP14      *923
 00101002 000000016566 DESCMP2       *899
 00101002 000000016570 DESCMP3       *901
 00101002 000000016572 DESCMP4       *903
 22:48 07/29/97  FILE=ISI$BOOT.:E05TSI        SYMBOL TABLE                                               113  BMAP - B00
 00101002 000000016574 DESCMP5       *905
 00101002 000000016576 DESCMP6       *907
 00101002 000000016600 DESCMP7       *909
 00101002 000000016602 DESCMP8       *911
 00101002 000000016604 DESCMP9       *913
 00101002 000000016730 DESCMPT      *1050
 00101002 000000016506 DESCPPUT      *843
 06101002 000000016772 DESCRL          48     *1115
 06101002 000000016776 DESCRV1         49     *1122
 06101002 000000017000 DESCRV2         50     *1124
 06101002 000000017002 DESCRV3         51     *1126
 06101002 000000017004 DESCRV4         52     *1128
 06101002 000000017016 DESCRV5         53     *1146
 00101002 000000016632 DESCS         *944
 00101002 000000016636 DESCS1        *952
 00101002 000000016540 DESCSCH       *883
 00101002 000000016650 DESCSCH0      *974
 00101002 000000016652 DESCSCH1      *977
 00101002 000000016674 DESCSCH10    *1004
 00101002 000000016676 DESCSCH11    *1007
 00101002 000000016654 DESCSCH2      *980
 00101002 000000016656 DESCSCH3      *983
 00101002 000000016660 DESCSCH4      *986
 00101002 000000016662 DESCSCH5      *989
 00101002 000000016664 DESCSCH6      *992
 00101002 000000016666 DESCSCH7      *995
 00101002 000000016670 DESCSCH8      *998
 00101002 000000016672 DESCSCH9     *1001
 00101002 000000017012 DESCSGT      *1138
 00101002 000000016634 DESCSM        *948
 00101002 000000016740 DESCSU       *1066
 00101002 000000016534 DESCSYM       *879
 00101002 000000016552 DESCSYM1      *890
 00101002 000000016642 DESCT1        *960
 06101002 000000016510 DESCTEMP        54      *848
 00101002 000000016640 DESCTM        *956
 00101002 000000016742 DESCTU       *1070
 22:48 07/29/97  FILE=ISI$BOOT.:E05TSI        SYMBOL TABLE                                               114  BMAP - B00
 06101002 000000016754 DESCUI          55     *1088
 00101002 000000016762 DESCULS      *1100
 00101002 000000016750 DESCUPT      *1082
 01101002 000000017010 DESCWS#0     *1135      1779      1782
 07101002 000000016522 DESCXI          56      *869      2444
 00101002 000000016520 DESCXL        *867
 03301025 000000000000 DIR_ENT0      *190      1303
 03301014 000000000000 DISK_BOOTINFO *178      1609      1611      1620      1622
 40000000 000000001762 DISR          *300
 01101002 000000025336 DLIST         1465      1467      1590      1592      2360      2362      2371
                                     2373      2386      2388      2416      2418      2467      2469
                                     2478      2480      2493      2495      2510      2512     *3080
 40000000 000000001765 DLSR          *303
 01101002 000000023664 DOBUF_LGTH    2338      2451     *2521
 40000000 000000000002 DOUBLE        *388
 01101002 000000023126 DO_LCPR       1991     *1994
 01101002 000000023077 DO_RPM_CACHE  1939     *1968
 40000000 000000000001 DPSE          *355
 41000000 000000000001 DR.LS         *293      1263      1264      1265
 41000000 000000000004 DR.SSR        *294      1514      1515      1516      2546      2547      2548
 40000000 000000000005 DR.USE        *295
 41000000 000000000006 DR.X          *296       297      1302      1304      1442      1443      1445
                                     1446      1855      1856      1872      1873      2010      2011
                                     2066      2100
 40000000 000000000000 DR.Y          *298
 01101002 000000022104 DREB          1288     *1297
 03201000 000000000000 DRLH          *141      1526      1667      1878
 40000000 000000000104 DSCSZ0        *930
 07101002 000000016464 DSDESC         132      *813      1684      1924
 41000000 000000001764 DSSR          *302      1514      2546
 41000000 000000001761 DTYP          *299      1515      2547
 41000000 000000000013 E             *329       835       838      1149
 41000000 000000000002 ELS1          *356      1333      1699      1723      1942      1951
 01101002 000000022650 END_MOD       1762     *1764
 40000000 000000000002 EOINST        *308
 01101002 000000022012 EPU_MODE     *1186      1757      1758
 01101000 000000000075 ERR_B         *603       625
 22:48 07/29/97  FILE=ISI$BOOT.:E05TSI        SYMBOL TABLE                                               115  BMAP - B00
 40000000 000000000005 FC            *309
 41000000 000000000011 FCNUNL        *334      1587
 03201014 000000000000 FINAL         *155      1552
 03201007 000000000000 FIX_FIRM      *148      1404
 47000000 000000000032 FLTLOC          57      *269      1208      1277      1280      1318      1328
                                     1449      1655      1658      1668      1712      1770      1843
                                     1862      1879      1915      1918      2053      2056      2059
                                     2153
 01101002 000000023320 FLTLOC_SAVE   2054      2152     *2163
 02301003 000000000000 FLTSW         *166
 40000000 000000777777 FPMC          *365
 03301019 000000000000 FRSTDISK      *184      1462      1470
 07101002 000000022025 GAP_SZ          60     *1202      2284
 13101002 000000022235 GETOUT          34     *1417      1440
 01101002 000000022250 GETOUTC       1424     *1431
 12101002 000000024377 GIVEUP          28     *2701
 00101002 000000016003 GOLOOP        *679
 00101002 000000022502 GOOB         *1630
 03201008 000000000000 GOPO_PL6      *149      1414
 41301001 000000000000 GRANBUF       1578     *2605
 03201017 000000000000 GT_SYSPACKAD  *158      1468
 12101002 000000022327 HANG            27     *1485
 01101002 000000022343 HANGS         1489     *1501
 02301022 000000000000 HDRMD         *187
 07101002 000000022024 HIAVPG          59     *1201      1709      1785      2249      2270
 07101002 000000022023 HIPAGE          58     *1200      1708      1769      2250      2271
 41000000 000000000220 HJ.ALS        *394      1109      1110
 41000000 000000001600 HJ.AS         *394      1076
 40000000 000000003600 HJ.ASM        *394
 41000000 000000000200 HJ.ASSZ       *394       965       969      1075
 41000000 000000000330 HJ.CLS        *394      1113      1114
 41000000 000000000110 HJ.DLS        *394      1105      1106
 40000000 000000000000 HJ.MLS        *394
 41000000 000000000440 HJ.SDS        *394
 41000000 000000000460 HJ.SSS        *394       804       808      1068      1097      1101      1105
                                     1109      1113      1144
 41000000 000000001120 HJ.SSSSZ      *394       953      1067
 22:48 07/29/97  FILE=ISI$BOOT.:E05TSI        SYMBOL TABLE                                               116  BMAP - B00
 41000000 000000003120 HJ.SSSSZM     *394       803       807       949      1143
 41000000 000000000000 HJ.ULS        *394
 07101002 000000016452 I$AAAUTO$      264      *794      2621
 00101002 000000016317 I$AIS$        *696
 00101002 000000016320 I$AIS.T$      *697
 00101002 000000016434 I$ALS$        *780
 00101002 000000016347 I$ASCH$       *723
 00101002 000000016401 I$ASCH0$      *753
 00101002 000000016402 I$ASCH1$      *754
 00101002 000000016413 I$ASCH10$     *763
 00101002 000000016414 I$ASCH11$     *764
 00101002 000000016403 I$ASCH2$      *755
 00101002 000000016404 I$ASCH3$      *756
 00101002 000000016405 I$ASCH4$      *757
 00101002 000000016406 I$ASCH5$      *758
 00101002 000000016407 I$ASCH6$      *759
 00101002 000000016410 I$ASCH7$      *760
 00101002 000000016411 I$ASCH8$      *761
 00101002 000000016412 I$ASCH9$      *762
 00101002 000000016363 I$ASTK$       *739
 00101002 000000016364 I$ASTK1$      *740
 00101002 000000016423 I$ASTKU$      *771
 06101002 000000016437 I$AUTO$        262      *783
 00101002 000000016446 I$CHAIN$      *790
 00101002 000000016435 I$CLS$        *781
 00101002 000000016417 I$CPIS$       *767
 00101002 000000016420 I$CPPT$       *768
 00101002 000000016451 I$DEFDIR$     *793
 00101002 000000016337 I$DEFN$       *715
 00101002 000000016346 I$DEFN1$      *722
 00101002 000000016433 I$DLS$        *779
 00101002 000000016445 I$DUMMY$      *789
 00101002 000000016335 I$ENTD$       *713
 00101002 000000016344 I$ENTD1$      *720
 00101002 000000016342 I$G1D$        *718
 00101002 000000016352 I$G1IS$       *730
 00101002 000000016343 I$G1P$        *719
 22:48 07/29/97  FILE=ISI$BOOT.:E05TSI        SYMBOL TABLE                                               117  BMAP - B00
 06101002 000000016416 I$G1PGTBL$     241      *766
 00101002 000000016341 I$G1RO$       *717
 00101002 000000016332 I$HJIT$       *710
 00101002 000000016355 I$HJIT1$      *733
 00101002 000000016426 I$HJITU$      *774
 06101002 000000016353 I$JIT$         224      *731
 00101002 000000016354 I$JIT1$       *732
 06101002 000000016424 I$JITU$        247      *772
 00101002 000000016430 I$LS$         *776
 06101002 000000016324 I$MEM$         199      *701
 07101002 000000016431 I$MLS$         251      *777      1263
 00101002 000000016333 I$MOND$       *711
 07101002 000000016351 I$MONIS$       222      *729      1446
 06101002 000000016321 I$MONLS$       196      *698
 00101002 000000016334 I$MONP$       *712
 06101002 000000016415 I$MPGTBL$      240      *765
 00101002 000000016326 I$OUH$        *703
 00101002 000000016351 I$PATCH$      *725
 06101002 000000016325 I$PO$          200      *702
 00101002 000000016447 I$POBUF$      *791
 06101002 000000016322 I$PPUT$        197      *699
 06101002 000000016436 I$REAL$        256      *782
 06101002 000000016440 I$RV1$         257      *784
 06101002 000000016441 I$RV2$         258      *785
 06101002 000000016442 I$RV3$         259      *786
 06101002 000000016443 I$RV4$         260      *787
 06101002 000000016444 I$RV5$         261      *788
 00101002 000000016340 I$SCH$        *716
 00101002 000000016365 I$SCH0$       *741
 00101002 000000016366 I$SCH1$       *742
 00101002 000000016377 I$SCH10$      *751
 00101002 000000016400 I$SCH11$      *752
 00101002 000000016367 I$SCH2$       *743
 00101002 000000016370 I$SCH3$       *744
 00101002 000000016371 I$SCH4$       *745
 00101002 000000016372 I$SCH5$       *746
 00101002 000000016373 I$SCH6$       *747
 22:48 07/29/97  FILE=ISI$BOOT.:E05TSI        SYMBOL TABLE                                               118  BMAP - B00
 00101002 000000016374 I$SCH7$       *748
 00101002 000000016375 I$SCH8$       *749
 00101002 000000016376 I$SCH9$       *750
 00101002 000000016450 I$SEGTBL$     *792
 00101002 000000016357 I$SSS$        *735
 00101002 000000016360 I$SSS1$       *736
 00101002 000000016421 I$SSSU$       *769
 00101002 000000016356 I$SST$        *734
 00101002 000000016336 I$SYMD$       *714
 00101002 000000016345 I$SYMD1$      *721
 06101002 000000016323 I$TEMP$        198      *700
 00101002 000000016350 I$TIGR$       *724
 00101002 000000016361 I$TSTK$       *737
 00101002 000000016362 I$TSTK1$      *738
 00101002 000000016422 I$TSTKU$      *770
 06101002 000000016327 I$TYP0$        202      *707
 00101002 000000016427 I$UIS$        *775
 00101002 000000016432 I$ULS$        *778
 06101002 000000016425 I$UPGTBL$      248      *773
 00101002 000000016331 I$XIS$        *709
 00101002 000000016330 I$XLS$        *708
 40000000 000000000004 ICADD         *314
 40000000 000000000050 ICREGS        *315
 01101002 000000022340 IDLE         *1496      1504
 00101002 000000022346 IMASK        *1506
 00101000 000000000011 IMX_B         *541
 01101000 000000000015 IMX_CON       *546       612
 01101000 000000000132 IMX_MSK        601      *637
 01101000 000000000021 IMX_W         *551       598
 03301012 000000000000 INDXT         *175      2539
 01101002 000000024322 INITPR2$      1480      1518      2332      2443      2618      2623     *2624
 12101002 000000024335 INIT_CHN_RPM    21     *2646
 03201018 000000000000 INIT_DISK     *159      1472
 12101002 000000024342 INIT_FEP_RPM    22     *2654
 47000000 000000000030 INTLOC          62      *268      1487      1608      1654
 41000000 000000000740 INTLOCK       *278      1679
 07101002 000000016472 IODESC          61      *819      1276      1317      1607      1653      1914
 22:48 07/29/97  FILE=ISI$BOOT.:E05TSI        SYMBOL TABLE                                               119  BMAP - B00
                                     2055
 01101002 000000023700 IOINT          819     *2544
 01101000 000000000022 IOM_B          539      *553
 01101000 000000000042 IOM_CON       *570       631
 01101000 000000000106 IOM_INT        580      *615
 01101000 000000000133 IOM_MSK        624      *638
 01101000 000000000046 IOM_W         *575       619       621
 01101002 000000022013 IOPM         *1188      1798
 01101002 000000024332 IO_COM       *2641      2651      2659
 03201003 000000000000 IRR$OPRCVR    *144      1296
 03201002 000000000000 IRR$RECOVER   *143       680
 03301027 000000000000 IR_MS_COOKIE  *192      2972
 03301026 000000000000 IR_UTS_COOKIE *191      2959      2966
 40000000 000000001762 ISR           *301
 41000000 000000000327 J.ACCESS      *373
 41000000 000000000001 J.ACCN        *370
 40000000 000000000013 J.ACTIVE      *370
 41000000 000000000324 J.AJIT6       *373
 40000000 000000000014 J.AUTH        *370
 40000000 000000000151 J.BILL        *371
 41000000 000000000000 J.BJIT0       *370
 41000000 000000000147 J.BUDLIM      *371
 41000000 000000000032 J.CCARS       *371
 41000000 000000000033 J.CCBUF       *371
 40000000 000000000032 J.CCDISP      *371
 41000000 000000000143 J.CPFLAGS1    *371
 40000000 000000000210 J.CURRCORE    *372
 41000000 000000000334 J.CURSUDO     *373
 40000000 000000000022 J.DCBNO       *370
 41000000 000000000200 J.DDLL        *372
 40000000 000000000200 J.DDUL        *372
 41000000 000000000153 J.DEFPRI      *371
 41000000 000000000177 J.DLL         *372
 40000000 000000000177 J.DUL         *372
 41000000 000000000355 J.ENQS        *373
 41000000 000000000012 J.ERR         *370
 41000000 000000000204 J.EUP         *372
 22:48 07/29/97  FILE=ISI$BOOT.:E05TSI        SYMBOL TABLE                                               120  BMAP - B00
 41000000 000000000006 J.FACCN       *370
 41000000 000000000205 J.FBUC        *372
 40000000 000000000205 J.FBUL        *372
 40000000 000000000337 J.FEX         *373
 40000000 000000000331 J.FORMS       *373
 41000000 000000000021 J.FPSN        *370
 41000000 000000000135 J.INSTWORD    *371
 41000000 000000000325 J.INTER       *373
 40000000 000000000015 J.JOB         *370
 40000000 000000000023 J.JOBNAME     *370
 41000000 000000000137 J.JOBUNIT     *371
 41000000 000000000145 J.JORG        *371
 40000000 000000000211 J.JPEAK       *372
 40000000 000000000145 J.LANG        *371
 41000000 000000000150 J.LOGONTIME   *371
 41000000 000000000210 J.MAXCORE     *372
 40000000 000000000153 J.MAXPRI      *371
 41000000 000000000176 J.MJIT2       *372
 41000000 000000000000 J.MODE        *370
 41000000 000000000332 J.MOUNTS      *373
 40000000 000000000151 J.NEXTCC      *371
 41000000 000000000022 J.OUTPRIO     *370
 41000000 000000000327 J.PACKS       *373
 40000000 000000000202 J.PCC         *372
 40000000 000000000201 J.PCD         *372
 40000000 000000000203 J.PCDD        *372
 41000000 000000000202 J.PCDS        *372
 41000000 000000000201 J.PCP         *372
 41000000 000000000203 J.PCROS       *372
 41000000 000000000176 J.PLL         *372
 41000000 000000000340 J.PMME_COUNT  *373
 41000000 000000000341 J.PMME_DATA   *373
 40000000 000000000337 J.PORT        *373
 40000000 000000000207 J.PPC         *372
 41000000 000000000206 J.PPH         *372
 41000000 000000000020 J.PPRIV       *370
 41000000 000000000207 J.PPT         *372
 22:48 07/29/97  FILE=ISI$BOOT.:E05TSI        SYMBOL TABLE                                               121  BMAP - B00
 40000000 000000000016 J.PRC         *370
 41000000 000000000030 J.PRFLAGS     *371
 41000000 000000000013 J.PRIV        *370
 40000000 000000000176 J.PUL         *372
 41000000 000000000356 J.REMCPO      *373
 40000000 000000000360 J.REMDO       *373
 41000000 000000000357 J.REMLO       *373
 41000000 000000000336 J.RESCORE     *373
 40000000 000000000017 J.SAVED       *370
 41000000 000000000366 J.SIZE        *374
 41000000 000000000211 J.SPEAK       *372
 40000000 000000000337 J.SPEED       *373
 41000000 000000000151 J.SSLEV       *371
 41000000 000000000326 J.STDLOPGS    *373
 41000000 000000000141 J.STEPUNIT    *371
 41000000 000000000031 J.SWITCH      *371
 40000000 000000000000 J.SYSID       *370
 41000000 000000000330 J.TAPES       *373
 41000000 000000000204 J.TDP         *372
 41000000 000000000337 J.TSLINE      *373
 41000000 000000003412 J.TSSZ        *374       375
 41000000 000000000366 J.TSTK        *374      1072
 41000000 000000000030 J.UJIT1       *371
 41000000 000000000003 J.UNAME       *370
 40000000 000000000000 J.USER        *370
 41000000 000000000133 J.USERWORD    *371
 41000000 000000000144 J.USRERR      *371
 40000000 000000000146 J.USRIC       *371
 40000000 000000000145 J.USRRNST     *371
 41000000 000000000010 J.WOO         *370
 41000000 000000000146 J.YC0SZ       *371
 01101002 000000022371 JEXIT         1525     *1530
 01101002 000000022257 KEEPXD        1439     *1441
 40000000 000000000000 L66           *354
 01101002 000000022516 LDREG         1356     *1652
 01101002 000000022531 LDREG1        1657     *1665
 01101002 000000022550 LDREG1A       1671      1680     *1681
 22:48 07/29/97  FILE=ISI$BOOT.:E05TSI        SYMBOL TABLE                                               122  BMAP - B00
 01101002 000000022572 LDREG2        1700     *1706
 01101002 000000022575 LDREG2A      *1711      1814
 01101002 000000022620 LDREG2C      *1734      1803
 01101002 000000022713 LDREG2R       1696     *1805
 01101002 000000022637 LDREG2S       1694     *1753
 13101002 000000023712 LDSPWS          14      1358     *2559      2566
 12101002 000000024402 LOADPDBR        30     *2708
 12101002 000000024404 LOAD_SSR        31     *2711
 01101002 000000022324 LOOP           679     *1479
 03201015 000000000000 LOOP_PL6      *156      1481
 01101002 000000023324 LOWER_PORT    2016      2020      2044      2049      2092      2147     *2167
 07101002 000000023314 LOWER_SCU       63      2073      2074     *2161      2236      2248      2254
                                     2282
 01101002 000000023322 LOWER_SIZE    2062      2084      2121      2140      2141      2143     *2164
                                     2242      2251
 41000000 000000000155 LS.AARDV      *379
 41000000 000000000156 LS.AARDV2     *379
 41000000 000000000033 LS.ASLLS      *379
 41000000 000000000053 LS.ASR        *379
 41000000 000000000002 LS.BUF        *379
 41000000 000000000161 LS.BUFCACH    *379
 40000000 000000000004 LS.CFU        *379
 41000000 000000000164 LS.CGCTXT     *379
 41000000 000000000163 LS.CGPT       *379
 41000000 000000000075 LS.CPGT1      *379
 41000000 000000000034 LS.CPLS       *379
 41000000 000000000055 LS.CWSQ1      *379
 41000000 000000000032 LS.DBLS       *379
 41000000 000000000004 LS.DS1        *379
 41000000 000000000005 LS.DS2        *379
 41000000 000000000006 LS.DS3        *379
 41000000 000000000007 LS.DS4        *379
 41000000 000000000010 LS.DS5        *379
 41000000 000000000011 LS.DS6        *379
 41000000 000000000012 LS.DS7        *379
 41000000 000000000013 LS.DS8        *379
 40000000 000000000202 LS.DVT        *379
 22:48 07/29/97  FILE=ISI$BOOT.:E05TSI        SYMBOL TABLE                                               123  BMAP - B00
 41000000 000000000016 LS.ECCB       *379
 41000000 000000000157 LS.FIRM       *379
 41000000 000000000155 LS.FLT        *379      1264
 41000000 000000000045 LS.HJITU      *379
 41000000 000000000162 LS.IMX        *379
 41000000 000000000122 LS.IOEND      *379
 41000000 000000000176 LS.IPHY_MAP   *379
 41000000 000000000000 LS.IS         *379
 41000000 000000000050 LS.ISB        *379
 41000000 000000000115 LS.JITPG      *379
 41000000 000000000001 LS.JITU       *379
 40000000 000000000013 LS.LDCT       *379
 41000000 000000000134 LS.LDCTNC     *379
 41000000 000000000121 LS.LOWMEM     *379
 41000000 000000000167 LS.MAGAS      *379
 41000000 000000000172 LS.MAGECCB    *379
 41000000 000000000166 LS.MAGLS      *379
 41000000 000000000170 LS.MAGPS      *379
 41000000 000000000165 LS.MAGSS      *379
 41000000 000000000171 LS.MAGTCB     *379
 41000000 000000000043 LS.MHJIT      *379
 41000000 000000000177 LS.MINIQ_ENT  *379      2324
 41000000 000000000054 LS.MISC       *379
 41000000 000000000130 LS.MISC2      *379
 41000000 000000000042 LS.MJIT       *379
 41000000 000000000035 LS.MLS        *379
 41000000 000000000132 LS.MLS1       *379
 41000000 000000000173 LS.MLSREAD    *379
 40000000 000000000156 LS.MONRL      *379
 41000000 000000000044 LS.MONSSS     *379
 41000000 000000000120 LS.MOUSE      *379
 41000000 000000000037 LS.MPT        *379
 41000000 000000000145 LS.MSTRHJ     *379
 41000000 000000000135 LS.MSTRPT     *379
 41000000 000000000041 LS.MTSTACK    *379
 41000000 000000000014 LS.NULL       *379
 41000000 000000000027 LS.PMME       *379
 22:48 07/29/97  FILE=ISI$BOOT.:E05TSI        SYMBOL TABLE                                               124  BMAP - B00
 41000000 000000000116 LS.PPUT       *379
 41000000 000000000131 LS.RCVENT     *379
 41000000 000000000127 LS.RCVRTN     *379
 41000000 000000000021 LS.REAL       *379
 41000000 000000000030 LS.REG        *379
 41000000 000000000124 LS.RONC       *379
 41000000 000000000003 LS.ROSEG      *379
 41000000 000000000125 LS.ROSEG8     *379
 41000000 000000000046 LS.SBUF1      *379
 41000000 000000000047 LS.SBUF2      *379
 41000000 000000000025 LS.SCR        *379
 41000000 000000000051 LS.SCU        *379
 41000000 000000000174 LS.SEGTBL     *379
 41000000 000000000146 LS.SLV1HJ     *379
 41000000 000000000136 LS.SLV1PT     *379
 41000000 000000000147 LS.SLV2HJ     *379
 41000000 000000000137 LS.SLV2PT     *379
 41000000 000000000150 LS.SLV3HJ     *379
 41000000 000000000140 LS.SLV3PT     *379
 41000000 000000000151 LS.SLV4HJ     *379
 41000000 000000000141 LS.SLV4PT     *379
 41000000 000000000152 LS.SLV5HJ     *379
 41000000 000000000142 LS.SLV5PT     *379
 41000000 000000000153 LS.SLV6HJ     *379
 41000000 000000000143 LS.SLV6PT     *379
 41000000 000000000154 LS.SLV7HJ     *379
 41000000 000000000144 LS.SLV7PT     *379
 41000000 000000000017 LS.TCB        *379
 41000000 000000000123 LS.TIGR       *379
 41000000 000000000020 LS.TSTACK     *379
 41000000 000000000031 LS.ULS        *379
 41000000 000000000036 LS.UPT        *379
 41000000 000000000023 LS.USDS0      *379
 41000000 000000000024 LS.USDS1      *379
 41000000 000000000040 LS.USRIS      *379
 41000000 000000000022 LS.USSS       *379
 41000000 000000000117 LS.VPT        *379
 22:48 07/29/97  FILE=ISI$BOOT.:E05TSI        SYMBOL TABLE                                               125  BMAP - B00
 41000000 000000000052 LS.WINDOW     *379
 41000000 000000000133 LS.WS3MLS     *379
 41000000 000000000160 LS.WS3MLSNW   *379
 41000000 000000000175 LS.WSQ0PT     *379
 41000000 000000000026 LS.XD         *379
 41000000 000000000126 LS.XDRTN      *379
 41000000 000000000201 LS.XLALT      *379
 41000000 000000000015 LS.XLAT       *379
 41000000 000000000200 LS.XLNORM     *379
 01101002 000000022417 LWSRD        *1574      1747
 07101002 000000025356 LWSRDR         136      1748      1749     *3100
 40000000 000000000001 M             *332
 01101002 000000023461 MALLWRIT      2353     *2365
 41000000 000000001400 MBOX          *276       548       550       600      2836      2838      2857
 07101002 000000024424 MC1            104     *2739      2747
 01101002 000000024426 MC1A          2740     *2742
 07101002 000000024430 MC1B           112      2739     *2745
 01101002 000000024451 MC1CON       *2763      2794
 01101002 000000024514 MC1DCW        2787      2791     *2807
 07101002 000000024513 MC1ICW         111      1613     *2804
 06101002 000000024477 MC1LIM         109     *2789
 07101002 000000024510 MC1LPW         107      2763     *2801
 07101002 000000024516 MC1PCW         110      2765     *2810
 07101002 000000024511 MC1SK          108      2801     *2802
 07101002 000000024515 MC1SKAD        106      2793      2803     *2809
 01101002 000000024462 MC2           1631      2746     *2775
 01101002 000000024505 MCHAN_MSK      591       592      2756      2780     *2796
 01101002 000000024506 MCHN#32       2753      2760     *2797
 01101002 000000022746 MCONFIG       1704     *1833      1953      1960
 01101002 000000024457 MCP6L1W       1626      1627      1629     *2769      2779      2781
 03201001 000000000000 MDELTA        *142      1399      1455      2705
 03301008 000000000000 MDELTAFLG     *171      1397      1453
 12101002 000000024400 MDELTCALL       29     *2704
 07101002 000000016512 MEMDESC         65      *851      1854      1871      2065
 41000000 000000777777 MEMSIZ        *281       531       835       838      2742      2825      2898
 07101002 000000022001 MEM_SZ          98     *1177      1766
 01101002 000000023542 MERRET        2390      2420     *2423
 22:48 07/29/97  FILE=ISI$BOOT.:E05TSI        SYMBOL TABLE                                               126  BMAP - B00
 01101002 000000023414 MINIQM         676     *2323
 01101002 000000023522 MINIQMX       2349     *2405
 01101002 000000023552 MINIQX         677     *2435
 01101002 000000023643 MINIQXX       2456     *2500
 03201011 000000000000 MINIQ_PL6     *152      1593      2419      2513
 40101002 000000025361 MINIUL       *3107
 01101002 000000022503 MINST         1628     *1631
 01101002 000000022352 MINT          1486     *1511      2545
 03201016 000000000000 MINT_PL6      *157      1519
 01101002 000000023510 MNORMRET     *2391      2421
 07101002 000000022744 MODE            66      1733      1812     *1831      1998
 07101002 000000016504 MONLSR          67      *841      1390      1391
 03301010 000000000000 MONPA         *173      2459      2461
 01101002 000000022177 MOVEMIT       1360      1371     *1376
 00101002 000000023737 MPCFLG       *2581
 01101002 000000023134 MPDIRLS       1933     *2002
 01101002 000000023031 MPIDRL        1917     *1921
 01101002 000000023010 MPINIT         824     *1901
 01101002 000000023074 MPINIT1       1943      1952      1954      1961     *1964
 01101002 000000023016 MPINITC      *1909      2013      2022
 01101002 000000023146 MPINITR       1907     *2014
 01101002 000000023142 MPINITS       1905     *2009
 01101002 000000023474 MREAD         2350     *2378
 01101002 000000024424 MREF          1626      1627      1629      1631     *2737      2739      2740
                                     2746      2747      2753      2756      2760      2763      2765
                                     2779      2780      2781      2784      2787      2791      2793
                                     2794      2801      2803      2816
 07101002 000000020000 MSEGTBL        102      1140     *1161
 01101002 000000022747 MSIZE         1707     *1840
 01101002 000000022755 MSIZE1       *1852      1858
 01101002 000000022763 MSIZE2        1842     *1860
 01101002 000000022767 MSIZE3       *1869      1874
 01101002 000000022774 MSIZE4        1861     *1876
 01101002 000000024507 MSTSMSK       2784     *2798
 01101002 000000022745 MTYPE         1698      1722     *1832      1950
 01101002 000000022734 MWHFLTD       1207      1714      1716      1772      1774     *1825
 00101002 000000023444 MWRITE       *2351
 22:48 07/29/97  FILE=ISI$BOOT.:E05TSI        SYMBOL TABLE                                               127  BMAP - B00
 12101002 000000023422 MYSELFM         35     *2331
 12101002 000000023560 MYSELFX         33     *2442
 01101002 000000022026 M_W_H        *1206      1213      1378
 41000000 000000000020 M_W_H_LOC     *267      1379
 41000000 000000000006 M_W_H_SZ     *1213      1378      1379
 41000000 000000000002 N             *331       814
 01101002 000000022321 NASK          1461     *1472
 01101002 000000022303 NDBUG         1454     *1456
 01101002 000000022221 NODEBUG       1398     *1400
 01101002 000000022707 NOIOP         1797     *1800
 01101002 000000022414 NO_MSOS       1555     *1559
 01101002 000000022134 NO_RPM        1321     *1325
 01101002 000000023413 NO_UPPER      2259     *2286
 40000000 000000000024 NSYM          *390
 01101002 000000022736 OEFLTR        1725      1810     *1826
 01101002 000000022730 OFLTR         1721      1809     *1823
 00101002 000000016005 OK2WRVID      *681
 01101002 000000022300 ORDB          1396     *1452
 03301023 000000000000 ORDBFLG       *188      1384      1407
 00101002 000000016516 OUHDESC       *859
 41000000 000000000007 P             *330       835       838      1149
 40000000 000000000001 P.A           *343
 40000000 000000000010 P.H           *340
 40000000 000000000004 P.I           *341
 40000000 000000000002 P.M           *342
 40000000 000000000040 P.P           *338
 40000000 000000000020 P.W           *339
 06101002 000000016007 PATCH           69      *684
 03301016 000000000000 PATT_MBX      *180      1642
 01101002 000000024305 PDBR1         1910      1911     *2607
 03301024 000000000000 PDEV          *189      1354
 01101002 000000025324 PLIST         1466      1591      2361      2372      2387      2417      2468
                                     2479      2494      2511     *3074
 07101002 000000024274 PMASK           70      1448     *2590      2678      2693
 03301001 000000000000 POBUF         *164       791      1583      2340      2366      2381      2393
                                     2409      2425      2605
 06101002 000000016514 PODESC          71      *855
 22:48 07/29/97  FILE=ISI$BOOT.:E05TSI        SYMBOL TABLE                                               128  BMAP - B00
 01101002 000000025060 POST_COOKIE   2960     *2965
 03301009 000000000000 PPDBR         *172      1291      2709
 13101002 000000022042 PREPRE          32     *1257      1279
 01101002 000000022053 PREPRESB      1262     *1267      1715      1744      1773
 07101002 000000025354 PREPRESBR      137      1745      1746     *3098
 07101002 000000016470 PSDESC          72      *816      1691      1930
 07101002 000000025131 PTRAIN5         87      3041     *3042      3050
 07101002 000000025227 PTRAIN6         88      3053     *3054      3070
 01101002 000000024317 PTRLIST       2614     *2620
 41000000 000000000074 PTRN5SZ       3041     *3050      3051
 41000000 000000000074 PTRN6SZ       3053     *3070      3071
 03201005 000000000000 PUSSYCAT_PL6  *146      1395
 01101002 000000025347 PWHOTIGR      2379     *3090
 01101002 000000025346 PWHOXDEL      2486     *3089
 41000000 000000000403 R             *324       799       803       807       811       814       835
                                      838       844       852       856       860       933       937
                                      941       945       949       953       957       961       965
                                      969       975       978       981       984       987       990
                                      993       996       999      1002      1005      1008      1014
                                     1017      1020      1023      1026      1029      1032      1035
                                     1038      1041      1044      1047      1051      1055      1059
                                     1063      1067      1071      1075      1079      1083      1086
                                     1089      1093      1097      1101      1105      1109      1113
                                     1116      1132      1136      1139      1143      1149
 06101002 000000016774 RAUTO           73     *1119
 01101002 000000022452 RBOOT0        1598     *1606
 06101002 000000024740 RC1            123     *2895
 01101002 000000024742 RC1A          2896     *2898
 07101002 000000024744 RC1B           128      2895     *2901
 01101002 000000024746 RC1CON       *2904      2931
 01101002 000000025001 RC1DCW        2921      2925     *2941
 06101002 000000025000 RC1ICW         127     *2940
 06101002 000000024764 RC1LIM         126     *2923
 07101002 000000024776 RC1SK          125      2937     *2938
 07101002 000000025002 RC1SKAD        124      2927      2939     *2942
 41000000 000000001141 RCLOS         *280      1557
 01101002 000000024774 RCLW          2902      2929     *2936
 22:48 07/29/97  FILE=ISI$BOOT.:E05TSI        SYMBOL TABLE                                               129  BMAP - B00
 41000000 000000001014 RCONFIG       *275      1789
 41000000 000000001110 RCONS_INFO    *272      1787
 13101002 000000022036 RCVR            13       678     *1229
 03301018 000000000000 RCV_FLG       *183      1231      1298      1312      1409      1459
 46000000 000000000000 RD              74      *385
 01101002 000000022420 READBT       *1576      1741
 07101002 000000025352 READBTR        135      1742      1743     *3096
 12101002 000000025044 READ_CONNECT_TABLE        17     *2951
 03201010 000000000000 READ_PATCH    *151      2389      2496
 13101002 000000022445 REBOOT          12      1221      1270     *1600
 41000000 000000000142 REPU_MODE     *279      1756
 01101002 000000023706 RINT_EX       2376      2398      2403      2431      2483      2498      2515
                                     2518     *2551
 41000000 000000000300 RMBOX         1643     *2890      2903      2906      2909      2914      2917
                                     2930
 41000000 000000001000 RMEM_SZ       *273      1765      1776
 07101002 000000024624 RPM_BOOTIN     103       583     *2883
 07101002 000000024740 RPM_BOOTRC     121      1636     *2893
 07101002 000000022011 RPM_BOOT_IDCW   96       585     *1185
 01101002 000000022616 RPM_CACHE     1727     *1730
 03301015 000000000000 RPM_DISK_BOOTINFO       *179      1639
 07101002 000000022010 RPM_FLG         95     *1184      1323      1370      1596      1601      1695
                                     1726      1906      1938
 01101002 000000022504 RPM_RBOOT     1597      1602     *1634
 41000000 000000001177 RPT_WS0       *274      1780
 01101002 000000024740 RREF         *2892      2895      2896      2902      2911      2916      2918
                                     2921      2925      2927      2929      2931      2937      2939
                                     2944
 00101002 000000016002 RSTART        *678
 01101002 000000025003 RSTMSK        2918     *2943
 03301000 000000000000 RV_OPASCODE   *163      1269      1289      1595
 13101002 000000024367 R_INT           26      2552     *2689
 01101002 000000024375 R_INTS        2692     *2696
 41000000 000000000103 S             *326       835       838
 41000000 000000006143 S.AAAUTO      *488       489       794
 47000000 000000006000 S.AIS           68      *398       399       696       791      2449      2621
                                     2622      2623      3074      3075      3076      3077      3078
 22:48 07/29/97  FILE=ISI$BOOT.:E05TSI        SYMBOL TABLE                                               130  BMAP - B00
 41000000 000000006001 S.AIS.T       *399       400       697
 41000000 000000006133 S.ALS         *480       481       780
 41000000 000000006027 S.ASCH        *423       424       723
 41000000 000000006100 S.ASCH0       *453       454       753
 41000000 000000006101 S.ASCH1       *454       455       754
 41000000 000000006112 S.ASCH10      *463       464       763
 41000000 000000006113 S.ASCH11      *464       465       764
 41000000 000000006102 S.ASCH2       *455       456       755
 41000000 000000006103 S.ASCH3       *456       457       756
 41000000 000000006104 S.ASCH4       *457       458       757
 41000000 000000006105 S.ASCH5       *458       459       758
 41000000 000000006106 S.ASCH6       *459       460       759
 41000000 000000006107 S.ASCH7       *460       461       760
 41000000 000000006110 S.ASCH8       *461       462       761
 41000000 000000006111 S.ASCH9       *462       463       762
 41000000 000000006062 S.ASTK        *439       440       739
 41000000 000000006063 S.ASTK1       *440       441       740
 41000000 000000006122 S.ASTKU       *471       472       771
 41000000 000000006136 S.AUTO        *483       484       783
 40000000 000000000002 S.C           *348
 41000000 000000006134 S.CLS         *481       482       781
 41000000 000000006116 S.CPIS        *467       468       767
 41000000 000000006117 S.CPPT        *468       469       768
 40000000 000000001000 S.D           *350
 41000000 000000006031 S.DEFDIR      *425       426       793
 41000000 000000006017 S.DEFN        *415       416       715
 41000000 000000006026 S.DEFN1       *422       423       722
 41000000 000000006132 S.DLS         *479       480       779
 41000000 000000006150 S.DUMMY       *493       789
 41000000 000000006015 S.ENTD        *413       414       713
 41000000 000000006024 S.ENTD1       *420       421       720
 40000000 000000000004 S.F           *349
 41000000 000000006022 S.G1D         *418       419       718
 41000000 000000006051 S.G1IS        *430       431       730
 41000000 000000006023 S.G1P         *419       420       719
 41000000 000000006115 S.G1PGTBL     *466       467       766
 41000000 000000006021 S.G1RO        *417       418       717
 22:48 07/29/97  FILE=ISI$BOOT.:E05TSI        SYMBOL TABLE                                               131  BMAP - B00
 41000000 000000006012 S.HJIT        *410       411       710
 41000000 000000006054 S.HJIT1       *433       434       733
 41000000 000000006125 S.HJITU       *474       475       774
 41000000 000000006052 S.JIT         *431       432       731
 41000000 000000006053 S.JIT1        *432       433       732
 41000000 000000006123 S.JITU        *472       473       772
 41000000 000000006127 S.LS          *476       477       776
 41000000 000000006005 S.MEM         *403       404       701      1855      1872      2066
 41000000 000000006130 S.MLS         *477       478       777
 41000000 000000006013 S.MOND        *411       412       711
 41000000 000000006050 S.MONIS       *429       430       729      1302      2336
 41000000 000000006002 S.MONLS       *400       401       698
 41000000 000000006014 S.MONP        *412       413       712
 41000000 000000006146 S.MONSSR      *491       492
 41000000 000000006114 S.MPGTBL      *465       466       765
 41000000 000000006007 S.OUH         *405       407       703
 41000000 000000006032 S.PATCH       *426       429
 41000000 000000006006 S.PO          *404       405       702
 41000000 000000006003 S.PPUT        *401       402       699
 41000000 000000006135 S.REAL        *482       483       782
 41000000 000000006137 S.RV1         *484       485       784
 41000000 000000006140 S.RV2         *485       486       785
 41000000 000000006141 S.RV3         *486       487       786
 41000000 000000006142 S.RV4         *487       488       787
 41000000 000000006147 S.RV5         *492       493       788
 41000000 000000006020 S.SCH         *416       417       716
 41000000 000000006064 S.SCH0        *441       442       741
 41000000 000000006065 S.SCH1        *442       443       742
 41000000 000000006076 S.SCH10       *451       452       751
 41000000 000000006077 S.SCH11       *452       453       752
 41000000 000000006066 S.SCH2        *443       444       743
 41000000 000000006067 S.SCH3        *444       445       744
 41000000 000000006070 S.SCH4        *445       446       745
 41000000 000000006071 S.SCH5        *446       447       746
 41000000 000000006072 S.SCH6        *447       448       747
 41000000 000000006073 S.SCH7        *448       449       748
 41000000 000000006074 S.SCH8        *449       450       749
 22:48 07/29/97  FILE=ISI$BOOT.:E05TSI        SYMBOL TABLE                                               132  BMAP - B00
 41000000 000000006075 S.SCH9        *450       451       750
 41000000 000000006145 S.SEGTBL      *490       491       792
 41000000 000000006056 S.SSS         *435       436       735
 41000000 000000006057 S.SSS1        *436       437       736
 41000000 000000006120 S.SSSU        *469       470       769
 41000000 000000006055 S.SST         *434       435       734
 41000000 000000006016 S.SYMD        *414       415       714
 41000000 000000006025 S.SYMD1       *421       422       721
 41000000 000000006004 S.TEMP        *402       403       700
 41000000 000000006030 S.TIGR        *424       425       724
 41000000 000000006060 S.TSTK        *437       438       737
 41000000 000000006061 S.TSTK1       *438       439       738
 41000000 000000006121 S.TSTKU       *470       471       770
 41000000 000000006010 S.TYP0        *407       408       707
 40000000 000000000001 S.U           *347
 41000000 000000006126 S.UIS         *475       476       775
 41000000 000000006131 S.ULS         *478       479       778
 41000000 000000006124 S.UPGTBL      *473       474       773
 41000000 000000006144 S.WS#0        *489       490      2010
 41000000 000000006011 S.XIS         *409       410       709
 41000000 000000006010 S.XLS         *408       409       708
 07101002 000000022007 S1000_FLG       94     *1183      1282      1337      1341      1359      1420
                                     1448      1488      1548      1554      1693      1904      1932
                                     2672      2691
 01101002 000000022006 S1000_INTM   *1182      1422      1799
 00101002 000000022005 S1000_TRMM   *1181
 01101002 000000023163 SCONFIG       1947     *2030
 40000000 000000000002 SCRLF         *387
 01101002 000000024306 SETAUTO       1437      1739     *2610
 03201013 000000000000 SET_MODE      *154      1411
 12101002 000000025046 SET_TIME_FROM_SP          20     *2954
 06101002 000000024660 SH_MBX         120     *2886
 01101002 000000023330 SLAVE_CONFIG  1971      1978      1979      1982      1986      1995      1996
                                    *2170
 01101002 000000023160 SOEFLTR       1949     *2027
 01101002 000000023156 SOFLTR        1965      1969     *2026
 07101002 000000023721 SPW1            75      2561      2562      2563     *2567
 22:48 07/29/97  FILE=ISI$BOOT.:E05TSI        SYMBOL TABLE                                               133  BMAP - B00
 07101002 000000023723 SPW2            76     *2569      2597      2602
 06101002 000000023725 SPW3            77     *2571
 07101002 000000023727 SPWF            78      1449     *2573
 07101002 000000023731 SPWI            79      1448     *2575      2675      2682      2690
 00101002 000000023733 SPWQ         *2577
 01101002 000000023735 SPWS          2563     *2579
 40000000 000000000020 SSAR          *311
 07101002 000000016462 SSDESC          80      *811      1683      1841      1877      2061
 07101002 000000016456 SSDMON         129      *802      1923      1948
 06101002 000000016460 SSDMONX        130      *806
 40000000 000000000030 SSDR          *312
 41000000 000000000005 SSFLT         *306      1516
 41000000 000000000004 SSIC          *305      2548
 40000000 000000000010 SSISR         *310
 01101002 000000025370 SSTACK         812       946      1675     *3109
 01101002 000000023740 STACK1        2567      2568     *2583
 01101002 000000024040 STACK2        2569      2570     *2584
 01101002 000000024100 STACK3        2571      2572     *2586
 01101002 000000024054 STACKF        2573      2574     *2585
 01101002 000000024220 STACKI        2575      2576     *2587
 01101002 000000024244 STACKQ        2577      2578     *2588
 01101002 000000024254 STACKS        2579      2580     *2589
 12101002 000000024323 START_IO        18     *2629
 12101002 000000024326 START_IO_RPM    19     *2636
 01101002 000000024753 STAT_W       *2913      2916
 01101002 000000023675 STINDX        2406      2501     *2535
 01101002 000000023162 STYPE         1941     *2029
 01101002 000000022401 SUI1          1537     *1544      1545
 00101002 000000022416 SUI2         *1561
 01101002 000000024750 SYNC_W       *2908      2911
 03301020 000000000000 SYS_DPX       *185      1460      1471
 41000000 000000000322 SZBLS          820       825      1093     *1151
 13101002 000000024351 S_INT           25      2345      2452     *2671
 01101002 000000024362 S_INTS        2673     *2681
 01101002 000000023672 TALLYBW       2527     *2531
 06101002 000000016510 TEMPD           81      *847
 01101002 000000022740 TEMPDW        1259      1260      1285      1286     *1827
 22:48 07/29/97  FILE=ISI$BOOT.:E05TSI        SYMBOL TABLE                                               134  BMAP - B00
 07101002 000000023326 TEMP_CONFIG    177      2095      2096      2145      2146      2149      2150
                                     2151      2155     *2169      2234      2256      2280      2285
 06101002 000000016454 TGMISCDESC     105      *798
 06101002 000000016474 TGRDESC        131      *822
 41000000 000000000100 TGRPG         *266      1903
 03301011 000000000000 TIGRPA        *174      2352      2354
 01101002 000000025337 TINDX         2407      2502      2540     *3083
 46000000 000000000003 TOP             83      *389
 02301004 000000000000 TQFLAG        *167
 06101002 000000025225 TR5SZ           90     *3051
 06101002 000000025323 TR6SZ           91     *3071
 40000000 000000000000 TRMASK        *307
 41000000 000000003412 TSSZ          *375       957       961      1071
 01101002 000000023125 TURN_OFF_B    1989     *1992
 01101002 000000025072 TWENFIFHO     2971     *2976
 03201006 000000000000 TYPE_SIZE     *147      1386
 07101002 000000023316 UPPER_SCU       64      2101      2102     *2162      2237      2238      2269
                                     2275      2281
 01101002 000000023323 UPPER_SIZE    2063      2114      2122      2129      2131     *2165      2263
                                     2272
 02201019 000000000000 URINIT        *160
 40000000 000000000001 V.CGPGTBLLO   *366
 41000000 000000000015 V.HJIT        *366       804       808      1068      1076      1087      1098
                                     1102      1106      1110      1114      1144
 41000000 000000000100 V.ISR         *366      1090
 41000000 000000000013 V.JIT         *366      1072      1080
 40000000 000000000610 V.MTD         *366
 41000000 000000000000 V.PGTBL       *366      1084
 40000000 000000000012 V.PGTBLHI     *366
 40000000 000000000510 V.PPUT        *366
 40000000 000000000500 V.REAL        *366
 40000000 000000000057 V.ROS         *366
 40000000 000000000077 V.SEGTBL      *366
 01101002 000000025113 VFCI         *3014      3038
 41000000 000000000014 VFCISZ       *3038      3039
 07101002 000000025074 VFCL            89     *2980      3010
 40000000 000000000017 VFCLSZ       *3010
 22:48 07/29/97  FILE=ISI$BOOT.:E05TSI        SYMBOL TABLE                                               135  BMAP - B00
 06101002 000000025127 VFCSZ           92     *3039
 07101002 000000022416 VIRGIN         134      1210      1273      1311      1382      1388      1401
                                    *1563      1670
 41000000 000000000203 W             *325       803       807       811       814       835       838
                                      844       852       856       860       933       937       941
                                      945       949       953       957       961       965       969
                                      975       978       981       984       987       990       993
                                      996       999      1002      1005      1008      1014      1017
                                     1020      1023      1026      1029      1032      1035      1038
                                     1041      1044      1047      1051      1055      1059      1063
                                     1067      1071      1075      1079      1083      1086      1089
                                     1093      1097      1101      1105      1109      1113      1116
                                     1132      1139      1143      1149
 00101002 000000024276 WAIT         *2596
 46000000 000000000001 WRITE           84      *386
 03201009 000000000000 WRITE_PATCH   *150      2363      2374      2470      2481
 41000000 000000000004 WSRCP         *321      1059      1063
 07101002 000000022724 WSREGS          86      1211      1220      1315      1316      1575      1661
                                     1662      1666     *1816      1912      1913      1922
 41000000 000000000000 WSRM          *319       799       803       807       824       838      1097
                                     1143
 41000000 000000000007 WSRU          *322      1067      1071      1075      1079      1083      1086
                                     1089      1101      1105      1109      1113
 47000000 000000000002 WSRX            85      *320       811       814       819       835       844
                                      852       856       860       933       937       941       945
                                      949       953       957       961       965       969       975
                                      978       981       984       987       990       993       996
                                      999      1002      1005      1008      1014      1017      1020
                                     1023      1026      1029      1032      1035      1038      1041
                                     1044      1047      1051      1055      1093      1116      1132
                                     1136      1139      1149
 12101002 000000024407 WT_TIME         36     *2717
 40000000 000000000023 X             *328
 40000000 000000000000 X0            *285
 40000000 000000000001 X1            *286
 40000000 000000000002 X2            *287
 40000000 000000000003 X3            *288
 22:48 07/29/97  FILE=ISI$BOOT.:E05TSI        SYMBOL TABLE                                               136  BMAP - B00
 40000000 000000000004 X4            *289
 40000000 000000000005 X5            *290
 40000000 000000000006 X6            *291
 03201004 000000000000 X66_MSTATIC   *145      2616
 40000000 000000000007 X7            *292
 00101002 000000022644 XA           *1760
 01101002 000000023613 XALLWRIT      2460     *2472
 07101002 000000022002 XA_MODE         99     *1178      1761      1763
 07101002 000000024524 XC1            113     *2822      2830
 01101002 000000024526 XC1A          2823     *2825
 07101002 000000024530 XC1B           118      2822     *2828
 01101002 000000024533 XC1CON       *2832      2868
 01101002 000000024601 XC1DCW        2861      2865     *2878
 06101002 000000024600 XC1ICW         117     *2877
 06101002 000000024565 XC1LIM         116     *2863
 07101002 000000024576 XC1SK          115      2874     *2875
 07101002 000000024602 XC1SKAD        114      2867      2876     *2879
 01101002 000000024604 XC1WRK        2852      2853     *2881
 01101002 000000024544 XC2           2829     *2845
 01101002 000000024574 XCLW          2835     *2873
 01101002 000000024541 XCP6L1W      *2839      2856
 03201012 000000000000 XDELT_RET     *153      1438
 12101002 000000022252 XDRET           15     *1435
 07101002 000000016476 XDSSR          133      *827      1436
 01101002 000000023662 XERRET        2497      2514     *2516
 41000000 000000000027 XL.AENT       *383      2436
 41000000 000000000065 XL.ASCH       *383
 41000000 000000000066 XL.ASCH0      *383
 41000000 000000000067 XL.ASCH1      *383
 41000000 000000000100 XL.ASCH10     *383
 41000000 000000000101 XL.ASCH11     *383
 41000000 000000000070 XL.ASCH2      *383
 41000000 000000000071 XL.ASCH3      *383
 41000000 000000000072 XL.ASCH4      *383
 41000000 000000000073 XL.ASCH5      *383
 41000000 000000000074 XL.ASCH6      *383
 41000000 000000000075 XL.ASCH7      *383
 22:48 07/29/97  FILE=ISI$BOOT.:E05TSI        SYMBOL TABLE                                               137  BMAP - B00
 41000000 000000000076 XL.ASCH8      *383
 41000000 000000000077 XL.ASCH9      *383
 41000000 000000000101 XL.ASCHLAST   *383
 41000000 000000000035 XL.ASLLS      *383
 41000000 000000000037 XL.ASR        *383
 41000000 000000000003 XL.AUTO       *383
 41000000 000000000036 XL.CPLS       *383
 41000000 000000000034 XL.DBLS       *383
 41000000 000000000006 XL.DEF        *383
 41000000 000000000064 XL.DEF1       *383
 40000000 000000000103 XL.DEFDIR     *383
 41000000 000000000004 XL.ENT        *383
 41000000 000000000062 XL.ENT1       *383
 41000000 000000000022 XL.FLT        *383
 41000000 000000000032 XL.HJITU      *383
 41000000 000000000000 XL.ISR        *383
 41000000 000000000031 XL.JITU       *383
 41000000 000000000001 XL.LSR        *383
 41000000 000000000020 XL.MAP256     *383
 41000000 000000000021 XL.MAPX       *383
 41000000 000000000044 XL.MHJIT      *383
 41000000 000000000015 XL.MINIQ      *383
 41000000 000000000012 XL.MIS        *383
 41000000 000000000043 XL.MJIT       *383
 41000000 000000000010 XL.MLS0       *383
 41000000 000000000011 XL.MLS1       *383
 41000000 000000000013 XL.MSS        *383
 41000000 000000000024 XL.MSSR0      *383
 41000000 000000000014 XL.NULL       *383
 41000000 000000000040 XL.PSR        *383
 41000000 000000000016 XL.REAL       *383
 41000000 000000000017 XL.REALX      *383
 41000000 000000000025 XL.SC1        *383
 41000000 000000000026 XL.SC2        *383
 41000000 000000000007 XL.SCH        *383
 41000000 000000000046 XL.SCH0       *383
 41000000 000000000047 XL.SCH1       *383
 22:48 07/29/97  FILE=ISI$BOOT.:E05TSI        SYMBOL TABLE                                               138  BMAP - B00
 41000000 000000000060 XL.SCH10      *383
 41000000 000000000061 XL.SCH11      *383
 41000000 000000000050 XL.SCH2       *383
 41000000 000000000051 XL.SCH3       *383
 41000000 000000000052 XL.SCH4       *383
 41000000 000000000053 XL.SCH5       *383
 41000000 000000000054 XL.SCH6       *383
 41000000 000000000055 XL.SCH7       *383
 41000000 000000000056 XL.SCH8       *383
 41000000 000000000057 XL.SCH9       *383
 41000000 000000000061 XL.SCHLAST    *383
 41000000 000000000042 XL.SDS        *383
 41000000 000000000102 XL.SEGTBL     *383
 41000000 000000000045 XL.SSISR      *383
 41000000 000000000002 XL.SSR        *383
 41000000 000000000023 XL.SSR0       *383
 41000000 000000000005 XL.SYM        *383
 41000000 000000000063 XL.SYM1       *383
 41000000 000000000030 XL.UDR2       *383
 41000000 000000000041 XL.UISR       *383
 41000000 000000000033 XL.ULS        *383
 01101002 000000025350 XMERFLG       2326      2402      2430      2438      2517     *3091
 01101002 000000023626 XREAD         2457     *2485
 01101002 000000024524 XREF         *2820      2822      2823      2829      2830      2835      2852
                                     2853      2856      2858      2861      2865      2867      2868
                                     2874      2876      2882
 01101002 000000024603 XSTMSK        2858     *2880
 00101002 000000023576 XWRITE       *2458
 01101002 000000024422 X_TIME        2721      2723      2724      2726     *2731
 40000000 000000004401 ZAP1SZ       *1545
 13101002 000000022373 ZAPR            16      1527     *1532
 01101002 000000022726 ZERO          1718      1719      1755      1806      1807     *1819      1891
                                     1935      1936      1962      2004

    1028 SYMBOLS

 22:48 07/29/97  FILE=ISI$BOOT.:E05TSI        MACRO TABLE                                                139  BMAP - B00
 AJIT6          373
 BJIT0          370
 HJIT           394
 MJIT2          372
 MONLS          379
 RFAULT        1449
 RIMR1         1448
 TJIT7          374
 UJIT1          371
 VPAGES         366
 WAIT          1498      1560
 XDLS           383

      40 MACROS

    SYMBOL SPACE USED 13004 WORDS
     MACRO SPACE USED  5140 WORDS
   INPUT RECORDS READ  6990
 STATEMENTS PROCESSED  5422
         ELAPSED TIME  0:33.40
             CPU TIME    31.33 SEC.
        ASSEMBLY RATE 10384 STATEMENTS/CPU MIN.

      NO ERRORS

