VERSION E05

PL6.E3A0      #001=WRVID File=ISI$FIXSYST.:E05TSI                                TUE 07/29/97 22:49 Page:1
        1        1        /*M* PL6 ROUTINES FOR AARDVARK                       */
        2        2        /*T***********************************************************/
        3        3        /*T*                                                         */
        4        4        /*T* Copyright (c) Bull HN Information Systems Inc., 1997    */
        5        5        /*T*                                                         */
        6        6        /*T***********************************************************/
        7        7        /*X* PLM=8,IND=2,THI=2,ENU=2,CSU=2,DTI=4,DCI=4,ECU=4,AND */
        8        8        WRVID:  PROC ALTRET;
        9        9        /* This program reads or writes a VID
       10       10            and reads configuration data .    */
       11       11        %INCLUDE IS$MACROS;
       12     1286        %DEVINFO(STCLASS="SYMREF");
       13     1355        %DOIO_COMZONE(NAME=R_CNF_Z);
       14     1388    1   DCL R_CONF BIT(36) STATIC INIT('240000700000'O); /* Read conf IDCW            */
       15     1389    1   DCL POBUF BIT(1) SYMREF;
       16     1390    1   DCL GRAN$ PTR STATIC INIT(ADDR(POBUF));
       17     1391        %DCW_STRUCT(NAME=GRANDCW,STCLASS="REDEF GRAN$");
       18     1409    1   DCL SYS_DPX UBIN WORD SYMREF;
       19     1410    1   DCL   RPM_FLG BIT(1) SYMREF;
       20     1411    1   DCL   HIGHEST_CHAN UBIN WORD;
       21     1412    1   DCL MINIQC_PL6 ENTRY(5) ALTRET;
       22     1413    1   DCL TYPEC ENTRY(1);
       23     1414    1   DCL DOIOX ENTRY(4);
       24     1415        %TEXTC(N#=VIDERM,M#="' Error writing VID . '");
       25     1420        %TEXTC(N#=VIDERM1,M#="' Error reading VID . '");
       26     1425    1   DCL CNF$ PTR STATIC INIT(ADDR(CNF));
       27     1426        %DCW_STRUCT(NAME=CNFDCW,STCLASS="REDEF CNF$");
       28     1444    1   DCL 1 CNF_FIPS(0:135) STATIC,
       29     1445    1         2 DEVICE_STATUS BIT(9) INIT('0'B*0),
       30     1446    1         2 DEVICE_TYPE UBIN(9) UNAL INIT(0*0),
       31     1447    1         2 DEVICE_FORMAT BIT(9) INIT('0'B*0),
       32     1448    1         2 RFU BIT(9) INIT('0'B*0);
       33     1449    1   DCL 1 CNF(0:271) REDEF CNF_FIPS,
       34     1450    1         2 TYPE BIT(9) ,
       35     1451    1         2 DEV# UBIN(9) UNAL ;
       36     1452    1   DCL DPCNF BIT(9) CALIGNED STATIC SYMDEF INIT('0'B); /* System disk device type */
       37     1453    1   DCL I UBIN WORD;
PL6.E3A0      #001=WRVID File=ISI$FIXSYST.:E05TSI                                TUE 07/29/97 22:49 Page:2
       38     1454    1   DCL CODE UBIN WORD;
       39     1455    1   DCL SAVDEV UBIN(6);
       40     1456        /**/
       41     1457    1           CODE=%FCNWDB;                   /* Write disk binary                  */
       42     1458    1           GOTO COMM;
       43     1459    1   RDVID:  ENTRY ALTRET;
       44     1460    1           CODE=%FCNRDB;                   /* Read disk binary                   */
       45     1461    1   COMM:
       46     1462    1           GRANDCW.TALLY=1024;
       47     1463    1           CALL MINIQC_PL6(SYS_DPX,ADDR(GRANDCW),,CODE,%G_VID) ALTRET(VIDERR);
       48     1464    1   READ_CONF:ENTRY ALTRET;
       49     1465    1           HIGHEST_CHAN = %HIGH_CHAN;
       50     1466    1           IF RPM_FLG THEN
       51     1467    1             HIGHEST_CHAN = %HIGH_RPM_CHAN;
       52     1468    1           CNFDCW.TALLY=HIGHEST_CHAN/2 + 1; /* Init read config DCW              */
       53     1469    1           R_CNF_Z.IDCW$=ADDR(R_CONF);
       54     1470    1           R_CNF_Z.DCW$=ADDR(CNFDCW);
       55     1471    1           R_CNF_Z.BDCW.H2='0'B;
       56     1472    1           R_CNF_Z.TDCW.TYPE='10'B;
       57     1473    1           SAVDEV=DEVINFO.DEV#(SYS_DPX);
       58     1474    1           DEVINFO.DEV#(SYS_DPX)=0;
       59     1475    1           CALL DOIOX(SYS_DPX,ADDR(R_CNF_Z));
       60     1476    1           DEVINFO.DEV#(SYS_DPX)=SAVDEV;
       61     1477    1           IF CNF_FIPS.DEVICE_TYPE(DEVINFO.DEV#(SYS_DPX)) = %FIPS_3380D OR
       62     1478    1             CNF_FIPS.DEVICE_TYPE(DEVINFO.DEV#(SYS_DPX)) = %FIPS_3380E  OR
       63     1479    1             CNF_FIPS.DEVICE_TYPE(DEVINFO.DEV#(SYS_DPX)) = %FIPS_3390J  OR
       64     1480    1             CNF_FIPS.DEVICE_TYPE(DEVINFO.DEV#(SYS_DPX)) = %FIPS_3391K
       65     1481    2             THEN DO ;
       66     1482    2                 DPCNF = BINBIT(CNF_FIPS.DEVICE_TYPE(DEVINFO.DEV#(SYS_DPX))*16,9);
       67     1483    2                 RETURN;
       68     1484    2               END;
       69     1485    2             ELSE DO ;
       70     1486    2                 I = DEVINFO.DEV#(SYS_DPX) + ( (DEVINFO.DEV#(SYS_DPX)/8)*9) + 1;
       71     1487    2                 IF  CNF_FIPS.DEVICE_TYPE(I) = %MDS_1
       72     1488    2                   OR CNF_FIPS.DEVICE_TYPE(I) = %MDS_2
       73     1489    3                   THEN DO ;
       74     1490    3                       DPCNF = BINBIT(CNF_FIPS.DEVICE_TYPE(I)*16, 9 ) ;
PL6.E3A0      #001=WRVID File=ISI$FIXSYST.:E05TSI                                TUE 07/29/97 22:49 Page:3
       75     1491    3                       RETURN ;
       76     1492    3                     END ;
       77     1493    2               END ;
       78     1494    2           DO I=0 TO %HIGH_CHAN;
       79     1495    2             IF DEVINFO.DEV#(SYS_DPX)=CNF.DEV#(I) THEN GOTO DPTYPE;
       80     1496    2               ELSE;
       81     1497    2           END;                            /*DO I=                               */
       82     1498    1           RETURN;                         /* No device-> no type                */
       83     1499    1   DPTYPE:
       84     1500    1           DPCNF=CNF.TYPE(I);
       85     1501    1           RETURN;
       86     1502    1   VIDERR:
       87     1503    2           IF CODE=%FCNWDB THEN DO;
       88     1504    2                 CALL TYPEC(VIDERM);
       89     1505    2                 ALTRETURN;
       90     1506    2               END;                        /*THEN                                */
       91     1507    1             ELSE;
       92     1508    1           CALL TYPEC(VIDERM1);
       93     1509    1           ALTRETURN;
       94     1510    1   END WRVID;
       95     1511        %EOD;

PL6.E3A0      #001=WRVID File=ISI$FIXSYST.:E05TSI                                TUE 07/29/97 22:49 Page:4
--  Include file information  --

   IS$MACROS.:E05TOU  is referenced.
      No diagnostics issued in procedure WRVID.

   Procedure WRVID requires 184 words for executable code.
   Procedure WRVID requires 14 words of local(AUTO) storage.

PL6.E3A0      #001=WRVID File=ISI$FIXSYST.:E05TSI                                TUE 07/29/97 22:49 Page:5

 Object Unit name= WRVID                                      File name= ISI$FIXSYST.:E05TOU
 UTS= JUL 29 '97 22:49:17.12 TUE                              Compiler= PL-6/E31         Sev=      00
 SharedLib= :SHARED_SYSTEM                                    Alt SharedLib=


    ****  Control sections  ****

 Sect   Type Bound  Init  Size OctSiz  Section name(segment info)
    0   Data  even  none   156    234  WRVID
    1   Proc  even  none   184    270  WRVID
    2  RoData even  none    10     12  WRVID

    ****  Entry defs  ****

                              Check   Calling
                             calling  sequence
  Sect OctLoc Primary Altret sequence   type   Parms  Name
     1      0   yes    yes     yes      Std        0  WRVID
     1      5          yes     yes      Std        0  RDVID
     1     33          yes     yes      Std        0  READ_CONF

  ****  Data defs  ****

 Sect OctLoc  Name                           Sect OctLoc  Name
    0      0  R_CNF_Z                            0      4  VIDERM
    0     13  VIDERM1                            0    233  DPCNF
PL6.E3A0      #001=WRVID File=ISI$FIXSYST.:E05TSI                                TUE 07/29/97 22:49 Page:6

  ****  Entry refs  ****

         Check        Calling
        calling       sequence
Altret sequence SRef   type   Args  Name
 yes     yes           Std       5 MINIQC_PL6
         yes           Std       4 DOIOX
         yes           Std       1 TYPEC
                       nStd      0 X66_AUTO_0
                       Std       0 B_CONSPOOL_D
                       nStd      0 X66_ARET
                       nStd      0 X66_AALT

  ****  Data refs  ****

  Flags:  r = read only, s = secondary
Flgs Name                             Flgs Name                             Flgs Name
     DEVINFO                               POBUF                                 SYS_DPX
     RPM_FLG                               B_VECTNIL

  ****  Segment refs  ****

  Flags:  r = read only, s = secondary
Flgs Name                             Flgs Name                             Flgs Name
     ISSID
PL6.E3A0      #001=WRVID File=ISI$FIXSYST.:E05TSI                                TUE 07/29/97 22:49 Page:7


        1        1        /*M* PL6 ROUTINES FOR AARDVARK                       */
        2        2        /*T***********************************************************/
        3        3        /*T*                                                         */
        4        4        /*T* Copyright (c) Bull HN Information Systems Inc., 1997    */
        5        5        /*T*                                                         */
        6        6        /*T***********************************************************/
        7        7        /*X* PLM=8,IND=2,THI=2,ENU=2,CSU=2,DTI=4,DCI=4,ECU=4,AND */
        8        8        WRVID:  PROC ALTRET;

      8  1 000000   000000 700200 xent  WRVID        TSX0  ! X66_AUTO_0
         1 000001   000016 000000                    ZERO    14,0

        9        9        /* This program reads or writes a VID
       10       10            and reads configuration data .    */
       11       11        %INCLUDE IS$MACROS;
       12     1286        %DEVINFO(STCLASS="SYMREF");
       13     1355        %DOIO_COMZONE(NAME=R_CNF_Z);
       14     1388    1   DCL R_CONF BIT(36) STATIC INIT('240000700000'O); /* Read conf IDCW            */
       15     1389    1   DCL POBUF BIT(1) SYMREF;
       16     1390    1   DCL GRAN$ PTR STATIC INIT(ADDR(POBUF));
       17     1391        %DCW_STRUCT(NAME=GRANDCW,STCLASS="REDEF GRAN$");
       18     1409    1   DCL SYS_DPX UBIN WORD SYMREF;
       19     1410    1   DCL   RPM_FLG BIT(1) SYMREF;
       20     1411    1   DCL   HIGHEST_CHAN UBIN WORD;
       21     1412    1   DCL MINIQC_PL6 ENTRY(5) ALTRET;
       22     1413    1   DCL TYPEC ENTRY(1);
       23     1414    1   DCL DOIOX ENTRY(4);
       24     1415        %TEXTC(N#=VIDERM,M#="' Error writing VID . '");
       25     1420        %TEXTC(N#=VIDERM1,M#="' Error reading VID . '");
       26     1425    1   DCL CNF$ PTR STATIC INIT(ADDR(CNF));
       27     1426        %DCW_STRUCT(NAME=CNFDCW,STCLASS="REDEF CNF$");
       28     1444    1   DCL 1 CNF_FIPS(0:135) STATIC,
       29     1445    1         2 DEVICE_STATUS BIT(9) INIT('0'B*0),
       30     1446    1         2 DEVICE_TYPE UBIN(9) UNAL INIT(0*0),
       31     1447    1         2 DEVICE_FORMAT BIT(9) INIT('0'B*0),
       32     1448    1         2 RFU BIT(9) INIT('0'B*0);
PL6.E3A0      #001=WRVID File=ISI$FIXSYST.:E05TSI                                TUE 07/29/97 22:49 Page:8
       33     1449    1   DCL 1 CNF(0:271) REDEF CNF_FIPS,
       34     1450    1         2 TYPE BIT(9) ,
       35     1451    1         2 DEV# UBIN(9) UNAL ;
       36     1452    1   DCL DPCNF BIT(9) CALIGNED STATIC SYMDEF INIT('0'B); /* System disk device type */
       37     1453    1   DCL I UBIN WORD;
       38     1454    1   DCL CODE UBIN WORD;
       39     1455    1   DCL SAVDEV UBIN(6);
       40     1456        /**/
       41     1457    1           CODE=%FCNWDB;                   /* Write disk binary                  */

   1457  1 000002   000001 235007                    LDA     1,DL
         1 000003   200005 755100                    STA     CODE,,AUTO

       42     1458    1           GOTO COMM;

   1458  1 000004   000010 710000 1                  TRA     COMM

       43     1459    1   RDVID:  ENTRY ALTRET;

   1459  1 000005   000000 700200 xent  RDVID        TSX0  ! X66_AUTO_0
         1 000006   000016 000000                    ZERO    14,0

       44     1460    1           CODE=%FCNRDB;                   /* Read disk binary                   */

   1460  1 000007   200005 450100                    STZ     CODE,,AUTO

       45     1461    1   COMM:
       46     1462    1           GRANDCW.TALLY=1024;

   1462  1 000010   002000 236007       COMM         LDQ     1024,DL
         1 000011   000003 752003 0                  STCQ    GRAN$,'03'O

       47     1463    1           CALL MINIQC_PL6(SYS_DPX,ADDR(GRANDCW),,CODE,%G_VID) ALTRET(VIDERR);

   1463  1 000012   000000 236000 2                  LDQ     0
         1 000013   200010 756100                    STQ     SAVDEV+2,,AUTO
         1 000014   000001 236000 2                  LDQ     1
PL6.E3A0      #001=WRVID File=ISI$FIXSYST.:E05TSI                                TUE 07/29/97 22:49 Page:9
         1 000015   200015 756100                    STQ     SAVDEV+7,,AUTO
         1 000016   200005 630500                    EPPR0   CODE,,AUTO
         1 000017   200014 450500                    STP0    SAVDEV+6,,AUTO
         1 000020   000001 236000 xsym               LDQ     B_VECTNIL+1
         1 000021   200013 756100                    STQ     SAVDEV+5,,AUTO
         1 000022   200010 631500                    EPPR1   SAVDEV+2,,AUTO
         1 000023   200012 451500                    STP1    SAVDEV+4,,AUTO
         1 000024   000002 236000 2                  LDQ     2
         1 000025   200011 756100                    STQ     SAVDEV+3,,AUTO
         1 000026   200011 630500                    EPPR0   SAVDEV+3,,AUTO
         1 000027   000023 631400 xsym               EPPR1   B_VECTNIL+19
         1 000030   000000 701000 xent               TSX1    MINIQC_PL6
         1 000031   000253 702000 1                  TSX2    VIDERR
         1 000032   000035 710000 1                  TRA     s:1465

       48     1464    1   READ_CONF:ENTRY ALTRET;

   1464  1 000033   000000 700200 xent  READ_CONF    TSX0  ! X66_AUTO_0
         1 000034   000016 000000                    ZERO    14,0

       49     1465    1           HIGHEST_CHAN = %HIGH_CHAN;

   1465  1 000035   000077 235007                    LDA     63,DL
         1 000036   200003 755100                    STA     HIGHEST_CHAN,,AUTO

       50     1466    1           IF RPM_FLG THEN

   1466  1 000037   000000 234000 xsym               SZN     RPM_FLG
         1 000040   000043 605000 1                  TPL     s:1468

       51     1467    1             HIGHEST_CHAN = %HIGH_RPM_CHAN;

   1467  1 000041   000177 236007                    LDQ     127,DL
         1 000042   200003 756100                    STQ     HIGHEST_CHAN,,AUTO

       52     1468    1           CNFDCW.TALLY=HIGHEST_CHAN/2 + 1; /* Init read config DCW              */

PL6.E3A0      #001=WRVID File=ISI$FIXSYST.:E05TSI                                TUE 07/29/97 22:49 Page:10
   1468  1 000043   200003 236100                    LDQ     HIGHEST_CHAN,,AUTO
         1 000044   000001 772000                    QRL     1
         1 000045   000001 036007                    ADLQ    1,DL
         1 000046   000022 752003 0                  STCQ    CNF$,'03'O

       53     1469    1           R_CNF_Z.IDCW$=ADDR(R_CONF);

   1469  1 000047   000003 236000 2                  LDQ     3
         1 000050   000000 756000 0                  STQ     R_CNF_Z

       54     1470    1           R_CNF_Z.DCW$=ADDR(CNFDCW);

   1470  1 000051   000004 236000 2                  LDQ     4
         1 000052   000001 756000 0                  STQ     R_CNF_Z+1

       55     1471    1           R_CNF_Z.BDCW.H2='0'B;

   1471  1 000053   000000 220003                    LDX0    0,DU
         1 000054   000001 440000 0                  SXL0    R_CNF_Z+1

       56     1472    1           R_CNF_Z.TDCW.TYPE='10'B;

   1472  1 000055   000001 236000 0                  LDQ     R_CNF_Z+1
         1 000056   000005 376000 2                  ANQ     5
         1 000057   020000 276007                    ORQ     8192,DL
         1 000060   000001 756000 0                  STQ     R_CNF_Z+1

       57     1473    1           SAVDEV=DEVINFO.DEV#(SYS_DPX);

   1473  1 000061   000000 236000 xsym               LDQ     SYS_DPX
         1 000062   000014 402007                    MPY     12,DL
         1 000063   000000 236006 xsym               LDQ     DEVINFO,QL
         1 000064   000025 772000                    QRL     21
         1 000065   000077 376007                    ANQ     63,DL
         1 000066   000036 736000                    QLS     30
         1 000067   200006 756100                    STQ     SAVDEV,,AUTO

PL6.E3A0      #001=WRVID File=ISI$FIXSYST.:E05TSI                                TUE 07/29/97 22:49 Page:11
       58     1474    1           DEVINFO.DEV#(SYS_DPX)=0;

   1474  1 000070   000000 236000 xsym               LDQ     SYS_DPX
         1 000071   000014 402007                    MPY     12,DL
         1 000072   000000 621006                    EAX1    0,QL
         1 000073   000006 236000 2                  LDQ     6
         1 000074   000000 356011 xsym               ANSQ    DEVINFO,X1

       59     1475    1           CALL DOIOX(SYS_DPX,ADDR(R_CNF_Z));

   1475  1 000075   000007 236000 2                  LDQ     7
         1 000076   200010 756100                    STQ     SAVDEV+2,,AUTO
         1 000077   200010 630500                    EPPR0   SAVDEV+2,,AUTO
         1 000100   200013 450500                    STP0    SAVDEV+5,,AUTO
         1 000101   000002 236000 2                  LDQ     2
         1 000102   200012 756100                    STQ     SAVDEV+4,,AUTO
         1 000103   200012 630500                    EPPR0   SAVDEV+4,,AUTO
         1 000104   000020 631400 xsym               EPPR1   B_VECTNIL+16
         1 000105   000000 701000 xent               TSX1    DOIOX
         1 000106   000000 011000                    NOP     0

       60     1476    1           DEVINFO.DEV#(SYS_DPX)=SAVDEV;

   1476  1 000107   000000 236000 xsym               LDQ     SYS_DPX
         1 000110   000014 402007                    MPY     12,DL
         1 000111   000000 620006                    EAX0    0,QL
         1 000112   200006 236100                    LDQ     SAVDEV,,AUTO
         1 000113   000011 772000                    QRL     9
         1 000114   000000 676010 xsym               ERQ     DEVINFO,X0
         1 000115   000770 376003                    ANQ     504,DU
         1 000116   000000 656010 xsym               ERSQ    DEVINFO,X0

       61     1477    1           IF CNF_FIPS.DEVICE_TYPE(DEVINFO.DEV#(SYS_DPX)) = %FIPS_3380D OR

   1477  1 000117   000000 236010 xsym               LDQ     DEVINFO,X0
         1 000120   000025 772000                    QRL     21
         1 000121   000077 376007                    ANQ     63,DL
PL6.E3A0      #001=WRVID File=ISI$FIXSYST.:E05TSI                                TUE 07/29/97 22:49 Page:12
         1 000122   000023 236006 0                  LDQ     CNF_FIPS,QL
         1 000123   000777 376003                    ANQ     511,DU
         1 000124   000003 116003                    CMPQ    3,DU
         1 000125   000153 600000 1                  TZE     s:1482
         1 000126   000000 236010 xsym               LDQ     DEVINFO,X0
         1 000127   000025 772000                    QRL     21
         1 000130   000077 376007                    ANQ     63,DL
         1 000131   000023 236006 0                  LDQ     CNF_FIPS,QL
         1 000132   000777 376003                    ANQ     511,DU
         1 000133   000004 116003                    CMPQ    4,DU
         1 000134   000153 600000 1                  TZE     s:1482
         1 000135   000000 236010 xsym               LDQ     DEVINFO,X0
         1 000136   000025 772000                    QRL     21
         1 000137   000077 376007                    ANQ     63,DL
         1 000140   000023 236006 0                  LDQ     CNF_FIPS,QL
         1 000141   000777 376003                    ANQ     511,DU
         1 000142   000026 116003                    CMPQ    22,DU
         1 000143   000153 600000 1                  TZE     s:1482
         1 000144   000000 236010 xsym               LDQ     DEVINFO,X0
         1 000145   000025 772000                    QRL     21
         1 000146   000077 376007                    ANQ     63,DL
         1 000147   000023 236006 0                  LDQ     CNF_FIPS,QL
         1 000150   000777 376003                    ANQ     511,DU
         1 000151   000025 116003                    CMPQ    21,DU
         1 000152   000164 601000 1                  TNZ     s:1486

       62     1478    1             CNF_FIPS.DEVICE_TYPE(DEVINFO.DEV#(SYS_DPX)) = %FIPS_3380E  OR
       63     1479    1             CNF_FIPS.DEVICE_TYPE(DEVINFO.DEV#(SYS_DPX)) = %FIPS_3390J  OR
       64     1480    1             CNF_FIPS.DEVICE_TYPE(DEVINFO.DEV#(SYS_DPX)) = %FIPS_3391K
       65     1481    2             THEN DO ;

       66     1482    2                 DPCNF = BINBIT(CNF_FIPS.DEVICE_TYPE(DEVINFO.DEV#(SYS_DPX))*16,9);

   1482  1 000153   000000 236010 xsym               LDQ     DEVINFO,X0
         1 000154   000025 772000                    QRL     21
         1 000155   000077 376007                    ANQ     63,DL
         1 000156   000023 236006 0                  LDQ     CNF_FIPS,QL
PL6.E3A0      #001=WRVID File=ISI$FIXSYST.:E05TSI                                TUE 07/29/97 22:49 Page:13
         1 000157   000016 772000                    QRL     14
         1 000160   017760 376007                    ANQ     8176,DL
         1 000161   000033 736000                    QLS     27
         1 000162   000233 756000 0                  STQ     DPCNF

       67     1483    2                 RETURN;

   1483  1 000163   000000 702200 xent               TSX2  ! X66_ARET

       68     1484    2               END;
       69     1485    2             ELSE DO ;

       70     1486    2                 I = DEVINFO.DEV#(SYS_DPX) + ( (DEVINFO.DEV#(SYS_DPX)/8)*9) + 1;

   1486  1 000164   000000 236010 xsym               LDQ     DEVINFO,X0
         1 000165   000025 772000                    QRL     21
         1 000166   000077 376007                    ANQ     63,DL
         1 000167   000003 772000                    QRL     3
         1 000170   200010 756100                    STQ     SAVDEV+2,,AUTO
         1 000171   000000 236010 xsym               LDQ     DEVINFO,X0
         1 000172   000025 772000                    QRL     21
         1 000173   000077 376007                    ANQ     63,DL
         1 000174   200011 756100                    STQ     SAVDEV+3,,AUTO
         1 000175   200010 236100                    LDQ     SAVDEV+2,,AUTO
         1 000176   000011 402007                    MPY     9,DL
         1 000177   200011 036100                    ADLQ    SAVDEV+3,,AUTO
         1 000200   000001 036007                    ADLQ    1,DL
         1 000201   200004 756100                    STQ     I,,AUTO

       71     1487    2                 IF  CNF_FIPS.DEVICE_TYPE(I) = %MDS_1

   1487  1 000202   000023 236006 0                  LDQ     CNF_FIPS,QL
         1 000203   000777 376003                    ANQ     511,DU
         1 000204   000005 116003                    CMPQ    5,DU
         1 000205   000213 600000 1                  TZE     s:1490
         1 000206   200004 721100                    LXL1    I,,AUTO
         1 000207   000023 236011 0                  LDQ     CNF_FIPS,X1
PL6.E3A0      #001=WRVID File=ISI$FIXSYST.:E05TSI                                TUE 07/29/97 22:49 Page:14
         1 000210   000777 376003                    ANQ     511,DU
         1 000211   000007 116003                    CMPQ    7,DU
         1 000212   000222 601000 1                  TNZ     s:1494

       72     1488    2                   OR CNF_FIPS.DEVICE_TYPE(I) = %MDS_2
       73     1489    3                   THEN DO ;

       74     1490    3                       DPCNF = BINBIT(CNF_FIPS.DEVICE_TYPE(I)*16, 9 ) ;

   1490  1 000213   200004 721100                    LXL1    I,,AUTO
         1 000214   000023 236011 0                  LDQ     CNF_FIPS,X1
         1 000215   000016 772000                    QRL     14
         1 000216   017760 376007                    ANQ     8176,DL
         1 000217   000033 736000                    QLS     27
         1 000220   000233 756000 0                  STQ     DPCNF

       75     1491    3                       RETURN ;

   1491  1 000221   000000 702200 xent               TSX2  ! X66_ARET

       76     1492    3                     END ;
       77     1493    2               END ;
       78     1494    2           DO I=0 TO %HIGH_CHAN;

   1494  1 000222   200004 450100                    STZ     I,,AUTO

       79     1495    2             IF DEVINFO.DEV#(SYS_DPX)=CNF.DEV#(I) THEN GOTO DPTYPE;

   1495  1 000223   200004 235100                    LDA     I,,AUTO
         1 000224   000001 735000                    ALS     1
         1 000225   000100 101405                    MRL     fill='000'O
         1 000226   000023 200001 0                  ADSC9   CNF_FIPS,A               cn=1,n=1
         1 000227   200010 000004                    ADSC9   SAVDEV+2,,AUTO           cn=0,n=4
         1 000230   000000 236000 xsym               LDQ     SYS_DPX
         1 000231   000014 402007                    MPY     12,DL
         1 000232   000000 236006 xsym               LDQ     DEVINFO,QL
         1 000233   000025 772000                    QRL     21
PL6.E3A0      #001=WRVID File=ISI$FIXSYST.:E05TSI                                TUE 07/29/97 22:49 Page:15
         1 000234   000077 376007                    ANQ     63,DL
         1 000235   200010 116100                    CMPQ    SAVDEV+2,,AUTO
         1 000236   000245 600000 1                  TZE     DPTYPE

       80     1496    2               ELSE;
       81     1497    2           END;                            /*DO I=                               */

   1497  1 000237   200004 235100                    LDA     I,,AUTO
         1 000240   000001 035007                    ADLA    1,DL
         1 000241   200004 755100                    STA     I,,AUTO
         1 000242   000100 115007                    CMPA    64,DL
         1 000243   000223 602000 1                  TNC     s:1495

       82     1498    1           RETURN;                         /* No device-> no type                */

   1498  1 000244   000000 702200 xent               TSX2  ! X66_ARET

       83     1499    1   DPTYPE:
       84     1500    1           DPCNF=CNF.TYPE(I);

   1500  1 000245   200004 235100       DPTYPE       LDA     I,,AUTO
         1 000246   000001 735000                    ALS     1
         1 000247   000000 100405                    MLR     fill='000'O
         1 000250   000023 000001 0                  ADSC9   CNF_FIPS,A               cn=0,n=1
         1 000251   000233 000001 0                  ADSC9   DPCNF                    cn=0,n=1

       85     1501    1           RETURN;

   1501  1 000252   000000 702200 xent               TSX2  ! X66_ARET

       86     1502    1   VIDERR:
       87     1503    2           IF CODE=%FCNWDB THEN DO;

   1503  1 000253   200005 235100       VIDERR       LDA     CODE,,AUTO
         1 000254   000001 115007                    CMPA    1,DL
         1 000255   000263 601000 1                  TNZ     s:1508

PL6.E3A0      #001=WRVID File=ISI$FIXSYST.:E05TSI                                TUE 07/29/97 22:49 Page:16
       88     1504    2                 CALL TYPEC(VIDERM);

   1504  1 000256   000010 630400 2                  EPPR0   8
         1 000257   000017 631400 xsym               EPPR1   B_VECTNIL+15
         1 000260   000000 701000 xent               TSX1    TYPEC
         1 000261   000000 011000                    NOP     0

       89     1505    2                 ALTRETURN;

   1505  1 000262   000000 702200 xent               TSX2  ! X66_AALT

       90     1506    2               END;                        /*THEN                                */
       91     1507    1             ELSE;
       92     1508    1           CALL TYPEC(VIDERM1);

   1508  1 000263   000011 630400 2                  EPPR0   9
         1 000264   000017 631400 xsym               EPPR1   B_VECTNIL+15
         1 000265   000000 701000 xent               TSX1    TYPEC
         1 000266   000000 011000                    NOP     0

       93     1509    1           ALTRETURN;

   1509  1 000267   000000 702200 xent               TSX2  ! X66_AALT
       94     1510    1   END WRVID;
       95     1511        %EOD;

PL6.E3A0      #001=WRVID File=ISI$FIXSYST.:E05TSI                                TUE 07/29/97 22:49 Page:17
--  Include file information  --

   IS$MACROS.:E05TOU  is referenced.
      No diagnostics issued in procedure WRVID.
PL6.E3A0      #001=WRVID File=ISI$FIXSYST.:E05TSI                                TUE 07/29/97 22:49 Page:18

 **** Variables and constants ****

  ****  Section 000  Data  WRVID

  ****  Scalars and arrays  ****
OctLoc.c.b A Datatyp(siz) R M Lvl/name                 OctLoc.c.b A Datatyp(siz) R M Lvl/name

    23-0-0/b STRC(18)    r     1 CNF(0:271)                22-0-0/w PTR         r     1 CNF$
    22-0-0/w STRC        r     1 CNFDCW                    23-0-0/b STRC        r     1 CNF_FIPS(0:135)
   233-0-0/c BIT (9)     r     1 DPCNF                      3-0-0/w PTR         r     1 GRAN$
     3-0-0/w STRC        r     1 GRANDCW                    0-0-0/w STRC(72)    r     1 R_CNF_Z
     2-0-0/b BIT         r     1 R_CONF                     4-0-0/w STRC(225)   r     1 VIDERM
    13-0-0/w STRC(225)   r     1 VIDERM1

  ****  Auto variables  ****

  ****  Scalars and arrays  ****
OctLoc.c.b A Datatyp(siz) R M Lvl/name                 OctLoc.c.b A Datatyp(siz) R M Lvl/name

     5-0-0/w UBIN        r     1 CODE                       3-0-0/w UBIN        r     1 HIGHEST_CHAN
     4-0-0/w UBIN        r     1 I                          6-0-0/w UBIN(6)     r     1 SAVDEV

  ****  SYMREF variables  ****

  ****  Scalars and arrays  ****
OctLoc.c.b A Datatyp(siz) R M Lvl/name                 OctLoc.c.b A Datatyp(siz) R M Lvl/name

     0-0-0/d STRC(396)   r     1 DEVINFO(0:21)              0-0-0/b BIT         r     1 POBUF
     0-0-0/b BIT         r     1 RPM_FLG                    0-0-0/w UBIN        r     1 SYS_DPX


   Procedure WRVID requires 184 words for executable code.
   Procedure WRVID requires 14 words of local(AUTO) storage.
PL6.E3A0      #001=WRVID File=ISI$FIXSYST.:E05TSI                                TUE 07/29/97 22:49 Page:19
          *** CROSS REFERENCE LISTING ***
**     DENOTES     IDENTIFIER DEFINITION
<<                 IDENTIFIER'S VALUE SET
>>                 IDENTIFIER'S VALUE USED
<>                 IDENTIFIER SET AND/OR USED
--                 IDENTIFIER REFERENCED
PL6.E3A0      #001=WRVID File=ISI$FIXSYST.:E05TSI                                TUE 07/29/97 22:49 Page:20
          MINI XREF LISTING

CNF
      1449**DCL      1425--DCLINIT
CNF.DEV#
      1451**DCL      1495>>IF
CNF.TYPE
      1450**DCL      1500>>ASSIGN
CNF$
      1425**DCL      1436--REDEF
CNFDCW
      1436**DCL      1470--ASSIGN
CNFDCW.TALLY
      1441**DCL      1468<<ASSIGN
CNF_FIPS
      1444**DCL      1449--REDEF
CNF_FIPS.DEVICE_TYPE
      1446**DCL      1477>>IF       1477>>IF       1477>>IF       1477>>IF       1482>>ASSIGN   1487>>IF
      1487>>IF       1490>>ASSIGN
CODE
      1454**DCL      1457<<ASSIGN   1460<<ASSIGN   1463<>CALL     1503>>IF
COMM
      1462**LABEL    1458--GOTO
DEVINFO.DEV#
      1299**DCL      1473>>ASSIGN   1474<<ASSIGN   1476<<ASSIGN   1477>>IF       1477>>IF       1477>>IF
      1477>>IF       1482>>ASSIGN   1486>>ASSIGN   1486>>ASSIGN   1495>>IF
DEVINFO.PCWS
      1302**DCL      1313--REDEF
DEVINFO.RPM_PTRS.EF_DCWS$
      1315**DCL      1316--REDEF
DEVINFO.STATUS
      1319**DCL      1338--REDEF
DOIOX
      1414**DCL-ENT  1475--CALL
PL6.E3A0      #001=WRVID File=ISI$FIXSYST.:E05TSI                                TUE 07/29/97 22:49 Page:21
DPCNF
      1452**DCL      1482<<ASSIGN   1490<<ASSIGN   1500<<ASSIGN
DPTYPE
      1500**LABEL    1495--GOTO
GRAN$
      1390**DCL      1401--REDEF
GRANDCW
      1401**DCL      1463--CALL
GRANDCW.TALLY
      1406**DCL      1462<<ASSIGN
HIGHEST_CHAN
      1411**DCL      1465<<ASSIGN   1467<<ASSIGN   1468>>ASSIGN
I
      1453**DCL      1486<<ASSIGN   1487>>IF       1487>>IF       1490>>ASSIGN   1494<<DOINDEX  1495>>IF
      1500>>ASSIGN
MINIQC_PL6
      1412**DCL-ENT  1463--CALL
POBUF
      1389**DCL      1390--DCLINIT
RPM_FLG
      1410**DCL      1466>>IF
R_CNF_Z
      1366**DCL      1475--CALL
R_CNF_Z.BDCW.H2
      1379**DCL      1471<<ASSIGN
R_CNF_Z.DCW
      1373**DCL      1377--REDEF    1380--REDEF    1381--REDEF
R_CNF_Z.DCW$
      1380**DCL      1470<<ASSIGN
R_CNF_Z.IDCW$
      1372**DCL      1469<<ASSIGN
R_CNF_Z.TDCW.TYPE
      1384**DCL      1472<<ASSIGN
R_CNF_Z.W1
      1367**DCL      1372--REDEF
R_CONF
PL6.E3A0      #001=WRVID File=ISI$FIXSYST.:E05TSI                                TUE 07/29/97 22:49 Page:22
      1388**DCL      1469--ASSIGN
SAVDEV
      1455**DCL      1473<<ASSIGN   1476>>ASSIGN
SYS_DPX
      1409**DCL      1463<>CALL     1473>>ASSIGN   1474>>ASSIGN   1475<>CALL     1476>>ASSIGN   1477>>IF
      1477>>IF       1477>>IF       1477>>IF       1482>>ASSIGN   1486>>ASSIGN   1486>>ASSIGN   1495>>IF
TYPEC
      1413**DCL-ENT  1504--CALL     1508--CALL
VIDERM
      1416**DCL      1504<>CALL
VIDERM1
      1421**DCL      1508<>CALL
VIDERR
      1503**LABEL    1463--CALLALT

PL6.E3A0      #002=CHKVID File=ISI$FIXSYST.:E05TSI                               TUE 07/29/97 22:49 Page:23
       96        1        /*T***********************************************************/
       97        2        /*T*                                                         */
       98        3        /*T* Copyright (c) Bull HN Information Systems Inc., 1997    */
       99        4        /*T*                                                         */
      100        5        /*T***********************************************************/
      101        6        CHKVID: PROC ALTRET;
      102        7        /* This program checks Volume ID for system disk pack */
      103        8        /* ALTRETURN if: not a CP6 pack or
      104        9                         System area=0 or
      105       10                         not a primary pack set .
      106       11           RETURN if all OK .                     */
      107       12        %INCLUDE IS$MACROS;
      108     1287        %FM$VID(STCLASS="BASED(VID$)");
      109     1333    1   DCL VID$ PTR STATIC INIT(ADDR(POBUF));
      110     1334    1   DCL POBUF BIT(1) SYMREF;
      111     1335        /* Simplified VID */
      112     1336    1   DCL 1 S_VID STATIC ALIGNED,
      113     1337    1         2 ID CHAR(4) INIT('CP6 '),
      114     1338    1         2 INSTID BIT(36) INIT('0'B),
      115     1339    1         2 VSN UBIN WORD INIT(4095),
      116     1340    1         2 PSN CHAR(6) INIT('CP-6''S'),
      117     1341    1         2 VOLCNT UBIN(18) UNAL INIT(0),
      118     1342    1         2 SYSSIZE UBIN WORD INIT(0),
      119     1343    1         2 SYSDIRDA UBIN WORD INIT(4),
      120     1344    1         2 INITTIME UBIN WORD INIT(0),
      121     1345    1         2 SECTSTRT(0:1) UBIN WORD INIT(0*0);
      122     1346    1   DCL NF_FLG BIT(3) SYMREF;               /* New Files flag                     */
      123     1347        %TEXTC(N#=VIDNCPM,M#="' NOT a CP-6 pack - OK to proceed (Y/N) ? '");
      124     1352        %TEXTC(N#=VIDSYSAM,M#="' System area size incorrect - OK to correct (Y/N) ? '");
      125     1357        %TEXTC(N#=VIDSNM,M#="' Serial number = '");
      126     1362        %TEXTC(N#=VIDSAZM,M#="' 00000 #SSSSSS No system area - OK to proceed (Y/N) ? '");
      127     1367        %TEXTC(N#=VIDNSYSM,M#=
              1367            "' 00000 #SSSSSS is NOT a system volume - OK  to proceed (Y/N) ? '");
      128     1372    1   DCL MESSAGE$ PTR;
      129     1373    1   DCL 1 TEXTM BASED(MESSAGE$),
      130     1374    1         2 CNT UBIN WORD,
      131     1375    1         2 TXT CHAR(TEXTM.CNT);
PL6.E3A0      #002=CHKVID File=ISI$FIXSYST.:E05TSI                               TUE 07/29/97 22:49 Page:24
      132     1376    1   DCL 1 ANSBUF SYMREF,
      133     1377    1         2 CNT UBIN WORD,
      134     1378    1         2 TXT CHAR(16);
      135     1379    1   DCL FIELD$ PTR SYMREF;
      136     1380    1   DCL FIELD_LEN UBIN WORD SYMREF;
      137     1381    1   DCL ALPHA_FLG BIT(1) SYMREF;
      138     1382    1   DCL ANS CHAR(16) BASED(FIELD$);
      139     1383    1   DCL TOPDA UBIN WORD SYMREF;
      140     1384    1   DCL NUMBER UBIN WORD;
      141     1385        /**/
      142     1386    1   DCL WRVID ENTRY ALTRET;
      143     1387    1   DCL KEYIN ENTRY(2) ALTRET;
      144     1388    1   DCL UPPER_CASE ENTRY(2);
      145     1389    1   DCL GETFD ENTRY(2) ALTRET;
      146     1390        /**/
      147     1391    1           IF FM$VID.ID=S_VID.ID THEN GOTO VIDCP6; /* It's a CP6 pack            */
      148     1392    1             ELSE;
      149     1393        /* Ask if OK */
      150     1394    1   ASK1:
      151     1395    1           CALL KEYIN(VIDNCPM,ANSBUF);
      152     1396    1           CALL UPPER_CASE(ANSBUF.TXT,1);
      153     1397    2           DO SELECT(SUBSTR(ANSBUF.TXT,0,1));
      154     1398    2             SELECT('N');
      155     1399    2   VIDALT:
      156     1400    2             ALTRETURN;
      157     1401    2             SELECT('Y');
      158     1402    2   ASK2:                                   /* Ask for serial number              */
      159     1403    2             CALL KEYIN(VIDSNM,ANSBUF);
      160     1404    2             CALL GETFD(ANSBUF.TXT,16) ALTRET(ASK2);
      161     1405    2             IF ALPHA_FLG='1'B THEN GOTO ASK2;
      162     1406    2               ELSE;
      163     1407    2             CALL CHARBIN(NUMBER,SUBSTR(ANS,0,FIELD_LEN));
      164     1408    2             IF NUMBER=0 THEN GOTO ASK2;   /* Don't allow 0                      */
      165     1409    2               ELSE;
      166     1410        /* Write a VID with an empty system area */
      167     1411    2             FM$VID=S_VID;
      168     1412    2             FM$VID.VSN=NUMBER;
PL6.E3A0      #002=CHKVID File=ISI$FIXSYST.:E05TSI                               TUE 07/29/97 22:49 Page:25
      169     1413    2             FM$VID.SNLIST.VSN.N(0)=FM$VID.VSN;
      170     1414    2   VIDWR:
      171     1415    2             FM$VID.PSN=S_VID.PSN;
      172     1416    2             CALL WRVID ALTRET(VIDALT);
      173     1417    2   VIDRET:
      174     1418    2             IF FM$VID.SYSDIRDA>100 THEN GOTO BAD;
      175     1419    2               ELSE;
      176     1420    2             IF FM$VID.SYSDIRDA<S_VID.SYSDIRDA THEN GOTO BAD;
      177     1421    2               ELSE;
      178     1422    2             TOPDA=FM$VID.SYSDIRDA;
      179     1423    2             RETURN;
      180     1424    2   BAD:
      181     1425    2             TOPDA=S_VID.SYSDIRDA;
      182     1426    2             RETURN;
      183     1427    2             SELECT(ELSE);
      184     1428    2           GOTO ASK1;
      185     1429    2           END;                            /* DO SELECT                          */
      186     1430    1   VIDCP6:
      187     1431    1           IF FM$VID.VOLCNT=0 THEN GOTO VIDWR; /* Vol count=0->scratch,take it   */
      188     1432    1             ELSE;
      189     1433    1           IF FM$VID.PSN~=S_VID.PSN THEN GOTO VIDNSYS;
      190     1434    1             ELSE;
      191     1435    1   VIDSYS:
      192     1436    1           IF FM$VID.SYSSIZE <= FM$VID.SYSDIRDA THEN GOTO VIDASK;
      193     1437    1           IF FM$VID.SYSSIZE = FM$VID.SECTSTRT(1) AND
      194     1438    1             FM$VID.SYSSIZE = FM$VID.SNLIST.SIZE(0) THEN GOTO VIDWR;
      195     1439    1   ASK21:
      196     1440    1           CALL KEYIN(VIDSYSAM,ANSBUF);
      197     1441    1           CALL UPPER_CASE(ANSBUF.TXT,1);
      198     1442    2           DO SELECT(SUBSTR(ANSBUF.TXT,0,1));
      199     1443    2             SELECT('N');
      200     1444    2             ALTRETURN;
      201     1445    2             SELECT('Y');
      202     1446    2             FM$VID.SYSSIZE = FM$VID.SECTSTRT(1);
      203     1447    2             FM$VID.SNLIST.SIZE(0)  = FM$VID.SECTSTRT(1);
      204     1448    2             GOTO VIDWR;
      205     1449    2             SELECT (ELSE);
PL6.E3A0      #002=CHKVID File=ISI$FIXSYST.:E05TSI                               TUE 07/29/97 22:49 Page:26
      206     1450    2           GOTO ASK21;
      207     1451    2           END;
      208     1452    1   VIDASK:
      209     1453        /* System area size=0. Ask . */
      210     1454    1           MESSAGE$=ADDR(VIDSAZM);
      211     1455    1           SUBSTR(TEXTM.TXT,8,6)=FM$VID.PSN;
      212     1456    1           CALL BINCHAR(SUBSTR(TEXTM.TXT,1,5),FM$VID.VSN);
      213     1457    1   ASK3:
      214     1458    1           CALL KEYIN(VIDSAZM,ANSBUF);
      215     1459    1   ASK4:
      216     1460    1           CALL UPPER_CASE(ANSBUF.TXT,1);
      217     1461    2           DO SELECT(SUBSTR(ANSBUF.TXT,0,1));
      218     1462    2             SELECT('Y');
      219     1463    2             GOTO VIDWR;
      220     1464    2             SELECT('N');
      221     1465    2             GOTO VIDALT;
      222     1466    2             SELECT(ELSE);
      223     1467    2           GOTO ASK3;
      224     1468    2           END;                            /* DO SELECT                          */
      225     1469    1   VIDNSYS:
      226     1470    1           IF SUBSTR(FM$VID.PSN,0,4)='SYS ' AND NF_FLG='0'B THEN GOTO VIDSYS;
      227     1471    1             ELSE;
      228     1472    1           MESSAGE$=ADDR(VIDNSYSM);
      229     1473    1           SUBSTR(TEXTM.TXT,8,6)=FM$VID.PSN;
      230     1474    1           CALL BINCHAR(SUBSTR(TEXTM.TXT,1,5),FM$VID.VSN);
      231     1475    1           CALL KEYIN(VIDNSYSM,ANSBUF);
      232     1476    1           GOTO ASK4;
      233     1477    1   END CHKVID;
      234     1478        %EOD;

PL6.E3A0      #002=CHKVID File=ISI$FIXSYST.:E05TSI                               TUE 07/29/97 22:49 Page:27
--  Include file information  --

   IS$MACROS.:E05TOU  is referenced.
      No diagnostics issued in procedure CHKVID.

   Procedure CHKVID requires 179 words for executable code.
   Procedure CHKVID requires 8 words of local(AUTO) storage.

PL6.E3A0      #002=CHKVID File=ISI$FIXSYST.:E05TSI                               TUE 07/29/97 22:49 Page:28

 Object Unit name= CHKVID                                     File name= ISI$FIXSYST.:E05TOU
 UTS= JUL 29 '97 22:49:22.92 TUE                              Compiler= PL-6/E31         Sev=      00
 SharedLib= :SHARED_SYSTEM                                    Alt SharedLib=


    ****  Control sections  ****

 Sect   Type Bound  Init  Size OctSiz  Section name(segment info)
    0   Data  even  none    75    113  CHKVID
    1  RoData even  UTS      1      1  CHKVID
    2   Proc  even  none   179    263  CHKVID
    3  RoData even  none    17     21  CHKVID

    ****  Entry defs  ****

                              Check   Calling
                             calling  sequence
  Sect OctLoc Primary Altret sequence   type   Parms  Name
     2      0   yes    yes     yes      Std        0  CHKVID

  ****  Data defs  ****

 Sect OctLoc  Name                           Sect OctLoc  Name
    0     13  VIDNCPM                            0     27  VIDSYSAM
    0     45  VIDSNM                             0     53  VIDSAZM
    0     72  VIDNSYSM
PL6.E3A0      #002=CHKVID File=ISI$FIXSYST.:E05TSI                               TUE 07/29/97 22:49 Page:29

  ****  Entry refs  ****

         Check        Calling
        calling       sequence
Altret sequence SRef   type   Args  Name
 yes     yes           Std       2 KEYIN
 yes     yes           Std       2 GETFD
         yes           Std       2 UPPER_CASE
 yes     yes           Std       0 WRVID
                       nStd      0 X66_AUTO_0
                       Std       0 B_CONSPOOL_D
                       nStd      0 X66_AALT
                       nStd      0 X66_ARET

  ****  Data refs  ****

  Flags:  r = read only, s = secondary
Flgs Name                             Flgs Name                             Flgs Name
     POBUF                                 NF_FLG                                ANSBUF
     FIELD$                                FIELD_LEN                             ALPHA_FLG
     TOPDA                                 B_VECTNIL

  ****  Segment refs  ****

  Flags:  r = read only, s = secondary
Flgs Name                             Flgs Name                             Flgs Name
     ISSID
PL6.E3A0      #002=CHKVID File=ISI$FIXSYST.:E05TSI                               TUE 07/29/97 22:49 Page:30


       96        1        /*T***********************************************************/
       97        2        /*T*                                                         */
       98        3        /*T* Copyright (c) Bull HN Information Systems Inc., 1997    */
       99        4        /*T*                                                         */
      100        5        /*T***********************************************************/
      101        6        CHKVID: PROC ALTRET;

      6  2 000000   000000 700200 xent  CHKVID       TSX0  ! X66_AUTO_0
         2 000001   000010 000000                    ZERO    8,0

      102        7        /* This program checks Volume ID for system disk pack */
      103        8        /* ALTRETURN if: not a CP6 pack or
      104        9                         System area=0 or
      105       10                         not a primary pack set .
      106       11           RETURN if all OK .                     */
      107       12        %INCLUDE IS$MACROS;
      108     1287        %FM$VID(STCLASS="BASED(VID$)");
      109     1333    1   DCL VID$ PTR STATIC INIT(ADDR(POBUF));
      110     1334    1   DCL POBUF BIT(1) SYMREF;
      111     1335        /* Simplified VID */
      112     1336    1   DCL 1 S_VID STATIC ALIGNED,
      113     1337    1         2 ID CHAR(4) INIT('CP6 '),
      114     1338    1         2 INSTID BIT(36) INIT('0'B),
      115     1339    1         2 VSN UBIN WORD INIT(4095),
      116     1340    1         2 PSN CHAR(6) INIT('CP-6''S'),
      117     1341    1         2 VOLCNT UBIN(18) UNAL INIT(0),
      118     1342    1         2 SYSSIZE UBIN WORD INIT(0),
      119     1343    1         2 SYSDIRDA UBIN WORD INIT(4),
      120     1344    1         2 INITTIME UBIN WORD INIT(0),
      121     1345    1         2 SECTSTRT(0:1) UBIN WORD INIT(0*0);
      122     1346    1   DCL NF_FLG BIT(3) SYMREF;               /* New Files flag                     */
      123     1347        %TEXTC(N#=VIDNCPM,M#="' NOT a CP-6 pack - OK to proceed (Y/N) ? '");
      124     1352        %TEXTC(N#=VIDSYSAM,M#="' System area size incorrect - OK to correct (Y/N) ? '");
      125     1357        %TEXTC(N#=VIDSNM,M#="' Serial number = '");
      126     1362        %TEXTC(N#=VIDSAZM,M#="' 00000 #SSSSSS No system area - OK to proceed (Y/N) ? '");
      127     1367        %TEXTC(N#=VIDNSYSM,M#=
PL6.E3A0      #002=CHKVID File=ISI$FIXSYST.:E05TSI                               TUE 07/29/97 22:49 Page:31
              1367            "' 00000 #SSSSSS is NOT a system volume - OK  to proceed (Y/N) ? '");
      128     1372    1   DCL MESSAGE$ PTR;
      129     1373    1   DCL 1 TEXTM BASED(MESSAGE$),
      130     1374    1         2 CNT UBIN WORD,
      131     1375    1         2 TXT CHAR(TEXTM.CNT);
      132     1376    1   DCL 1 ANSBUF SYMREF,
      133     1377    1         2 CNT UBIN WORD,
      134     1378    1         2 TXT CHAR(16);
      135     1379    1   DCL FIELD$ PTR SYMREF;
      136     1380    1   DCL FIELD_LEN UBIN WORD SYMREF;
      137     1381    1   DCL ALPHA_FLG BIT(1) SYMREF;
      138     1382    1   DCL ANS CHAR(16) BASED(FIELD$);
      139     1383    1   DCL TOPDA UBIN WORD SYMREF;
      140     1384    1   DCL NUMBER UBIN WORD;
      141     1385        /**/
      142     1386    1   DCL WRVID ENTRY ALTRET;
      143     1387    1   DCL KEYIN ENTRY(2) ALTRET;
      144     1388    1   DCL UPPER_CASE ENTRY(2);
      145     1389    1   DCL GETFD ENTRY(2) ALTRET;
      146     1390        /**/
      147     1391    1           IF FM$VID.ID=S_VID.ID THEN GOTO VIDCP6; /* It's a CP6 pack            */

   1391  2 000002   000000 470400 0                  LDP0    VID$
         2 000003   000000 236100                    LDQ     0,,PR0
         2 000004   000001 116000 0                  CMPQ    S_VID
         2 000005   000112 600000 2                  TZE     VIDCP6

      148     1392    1             ELSE;
      149     1393        /* Ask if OK */
      150     1394    1   ASK1:
      151     1395    1           CALL KEYIN(VIDNCPM,ANSBUF);

   1395  2 000006   000000 630400 3     ASK1         EPPR0   0
         2 000007   000020 631400 xsym               EPPR1   B_VECTNIL+16
         2 000010   000000 701000 xent               TSX1    KEYIN
         2 000011   000000 011000                    NOP     0

PL6.E3A0      #002=CHKVID File=ISI$FIXSYST.:E05TSI                               TUE 07/29/97 22:49 Page:32
      152     1396    1           CALL UPPER_CASE(ANSBUF.TXT,1);

   1396  2 000012   000002 630400 3                  EPPR0   2
         2 000013   000020 631400 xsym               EPPR1   B_VECTNIL+16
         2 000014   000000 701000 xent               TSX1    UPPER_CASE
         2 000015   000000 011000                    NOP     0

      153     1397    2           DO SELECT(SUBSTR(ANSBUF.TXT,0,1));

   1397  2 000016   000001 236000 xsym               LDQ     ANSBUF+1
         2 000017   777000 376003                    ANQ     -512,DU
         2 000020   116000 116003                    CMPQ    39936,DU
         2 000021   000111 602000 2                  TNC     s:1428
         2 000022   000001 236000 xsym               LDQ     ANSBUF+1
         2 000023   777000 376003                    ANQ     -512,DU
         2 000024   116000 116003                    CMPQ    39936,DU
         2 000025   000033 600000 2                  TZE     VIDALT
         2 000026   000001 236000 xsym               LDQ     ANSBUF+1
         2 000027   777000 376003                    ANQ     -512,DU
         2 000030   131000 116003                    CMPQ    45568,DU
         2 000031   000111 601000 2                  TNZ     s:1428
         2 000032   000034 710000 2                  TRA     ASK2

      154     1398    2             SELECT('N');

      155     1399    2   VIDALT:
      156     1400    2             ALTRETURN;

   1400  2 000033   000000 702200 xent  VIDALT       TSX2  ! X66_AALT

      157     1401    2             SELECT('Y');

      158     1402    2   ASK2:                                   /* Ask for serial number              */
      159     1403    2             CALL KEYIN(VIDSNM,ANSBUF);

   1403  2 000034   000004 630400 3     ASK2         EPPR0   4
         2 000035   000020 631400 xsym               EPPR1   B_VECTNIL+16
PL6.E3A0      #002=CHKVID File=ISI$FIXSYST.:E05TSI                               TUE 07/29/97 22:49 Page:33
         2 000036   000000 701000 xent               TSX1    KEYIN
         2 000037   000000 011000                    NOP     0

      160     1404    2             CALL GETFD(ANSBUF.TXT,16) ALTRET(ASK2);

   1404  2 000040   000007 630400 3                  EPPR0   7
         2 000041   000020 631400 xsym               EPPR1   B_VECTNIL+16
         2 000042   000000 701000 xent               TSX1    GETFD
         2 000043   000034 702000 2                  TSX2    ASK2

      161     1405    2             IF ALPHA_FLG='1'B THEN GOTO ASK2;

   1405  2 000044   000000 234000 xsym               SZN     ALPHA_FLG
         2 000045   000034 604000 2                  TMI     ASK2

      162     1406    2               ELSE;
      163     1407    2             CALL CHARBIN(NUMBER,SUBSTR(ANS,0,FIELD_LEN));

   1407  2 000046   000000 470400 xsym               LDP0    FIELD$
         2 000047   000000 720000 xsym               LXL0    FIELD_LEN
         2 000050   000100 305540                    DTB
         2 000051   000000 030010                    NDSC9   0,,PR0                   cn=0,s=nosgn,sf=0,n=*X0
         2 000052   200006 000010                    NDSC9   NUMBER+2,,AUTO           cn=0,s=lsgnf,sf=0,n=8
         2 000053   200007 235100                    LDA     NUMBER+3,,AUTO
         2 000054   200004 755100                    STA     NUMBER,,AUTO

      164     1408    2             IF NUMBER=0 THEN GOTO ASK2;   /* Don't allow 0                      */

   1408  2 000055   000034 600000 2                  TZE     ASK2

      165     1409    2               ELSE;
      166     1410        /* Write a VID with an empty system area */
      167     1411    2             FM$VID=S_VID;

   1411  2 000056   000000 471400 0                  LDP1    VID$
         2 000057   010000 221003                    LDX1    4096,DU
         2 000060   000140 100400                    MLR     fill='000'O
PL6.E3A0      #002=CHKVID File=ISI$FIXSYST.:E05TSI                               TUE 07/29/97 22:49 Page:34
         2 000061   000001 000050 0                  ADSC9   S_VID                    cn=0,n=40
         2 000062   100000 000011                    ADSC9   0,,PR1                   cn=0,n=*X1

      168     1412    2             FM$VID.VSN=NUMBER;

   1412  2 000063   100002 755100                    STA     2,,PR1

      169     1413    2             FM$VID.SNLIST.VSN.N(0)=FM$VID.VSN;

   1413  2 000064   100002 236100                    LDQ     2,,PR1
         2 000065   100500 552134                    STBQ    320,'34'O,PR1

      170     1414    2   VIDWR:
      171     1415    2             FM$VID.PSN=S_VID.PSN;

   1415  2 000066   000000 470400 0     VIDWR        LDP0    VID$
         2 000067   040100 100400                    MLR     fill='040'O
         2 000070   000004 000006 0                  ADSC9   S_VID+3                  cn=0,n=6
         2 000071   000003 000006                    ADSC9   3,,PR0                   cn=0,n=6

      172     1416    2             CALL WRVID ALTRET(VIDALT);

   1416  2 000072   000002 631400 xsym               EPPR1   B_VECTNIL+2
         2 000073   000000 701000 xent               TSX1    WRVID
         2 000074   000033 702000 2                  TSX2    VIDALT

      173     1417    2   VIDRET:
      174     1418    2             IF FM$VID.SYSDIRDA>100 THEN GOTO BAD;

   1418  2 000075   000000 470400 0     VIDRET       LDP0    VID$
         2 000076   000006 235100                    LDA     6,,PR0
         2 000077   000145 115007                    CMPA    101,DL
         2 000100   000106 603000 2                  TRC     BAD

      175     1419    2               ELSE;
      176     1420    2             IF FM$VID.SYSDIRDA<S_VID.SYSDIRDA THEN GOTO BAD;

PL6.E3A0      #002=CHKVID File=ISI$FIXSYST.:E05TSI                               TUE 07/29/97 22:49 Page:35
   1420  2 000101   000006 236100                    LDQ     6,,PR0
         2 000102   000007 116000 0                  CMPQ    S_VID+6
         2 000103   000106 602000 2                  TNC     BAD

      177     1421    2               ELSE;
      178     1422    2             TOPDA=FM$VID.SYSDIRDA;

   1422  2 000104   000000 756000 xsym               STQ     TOPDA

      179     1423    2             RETURN;

   1423  2 000105   000000 702200 xent               TSX2  ! X66_ARET

      180     1424    2   BAD:
      181     1425    2             TOPDA=S_VID.SYSDIRDA;

   1425  2 000106   000007 236000 0     BAD          LDQ     S_VID+6
         2 000107   000000 756000 xsym               STQ     TOPDA

      182     1426    2             RETURN;

   1426  2 000110   000000 702200 xent               TSX2  ! X66_ARET

      183     1427    2             SELECT(ELSE);

      184     1428    2           GOTO ASK1;

   1428  2 000111   000006 710000 2                  TRA     ASK1

      185     1429    2           END;                            /* DO SELECT                          */

      186     1430    1   VIDCP6:
      187     1431    1           IF FM$VID.VOLCNT=0 THEN GOTO VIDWR; /* Vol count=0->scratch,take it   */

   1431  2 000112   000004 720100       VIDCP6       LXL0    4,,PR0
         2 000113   000066 600000 2                  TZE     VIDWR

PL6.E3A0      #002=CHKVID File=ISI$FIXSYST.:E05TSI                               TUE 07/29/97 22:49 Page:36
      188     1432    1             ELSE;
      189     1433    1           IF FM$VID.PSN~=S_VID.PSN THEN GOTO VIDNSYS;

   1433  2 000114   040000 106500                    CMPC    fill='040'O
         2 000115   000003 000006                    ADSC9   3,,PR0                   cn=0,n=6
         2 000116   000004 000006 0                  ADSC9   S_VID+3                  cn=0,n=6
         2 000117   000233 601000 2                  TNZ     VIDNSYS

      190     1434    1             ELSE;
      191     1435    1   VIDSYS:
      192     1436    1           IF FM$VID.SYSSIZE <= FM$VID.SYSDIRDA THEN GOTO VIDASK;

   1436  2 000120   000000 470400 0     VIDSYS       LDP0    VID$
         2 000121   000006 236100                    LDQ     6,,PR0
         2 000122   000005 116100                    CMPQ    5,,PR0
         2 000123   000165 603000 2                  TRC     VIDASK

      193     1437    1           IF FM$VID.SYSSIZE = FM$VID.SECTSTRT(1) AND

   1437  2 000124   000005 236100                    LDQ     5,,PR0
         2 000125   000011 116100                    CMPQ    9,,PR0
         2 000126   000131 601000 2                  TNZ     ASK21
         2 000127   000501 116100                    CMPQ    321,,PR0
         2 000130   000066 600000 2                  TZE     VIDWR

      194     1438    1             FM$VID.SYSSIZE = FM$VID.SNLIST.SIZE(0) THEN GOTO VIDWR;
      195     1439    1   ASK21:
      196     1440    1           CALL KEYIN(VIDSYSAM,ANSBUF);

   1440  2 000131   000011 630400 3     ASK21        EPPR0   9
         2 000132   000020 631400 xsym               EPPR1   B_VECTNIL+16
         2 000133   000000 701000 xent               TSX1    KEYIN
         2 000134   000000 011000                    NOP     0

      197     1441    1           CALL UPPER_CASE(ANSBUF.TXT,1);

   1441  2 000135   000002 630400 3                  EPPR0   2
PL6.E3A0      #002=CHKVID File=ISI$FIXSYST.:E05TSI                               TUE 07/29/97 22:49 Page:37
         2 000136   000020 631400 xsym               EPPR1   B_VECTNIL+16
         2 000137   000000 701000 xent               TSX1    UPPER_CASE
         2 000140   000000 011000                    NOP     0

      198     1442    2           DO SELECT(SUBSTR(ANSBUF.TXT,0,1));

   1442  2 000141   000001 236000 xsym               LDQ     ANSBUF+1
         2 000142   777000 376003                    ANQ     -512,DU
         2 000143   116000 116003                    CMPQ    39936,DU
         2 000144   000164 602000 2                  TNC     s:1450
         2 000145   000001 236000 xsym               LDQ     ANSBUF+1
         2 000146   777000 376003                    ANQ     -512,DU
         2 000147   116000 116003                    CMPQ    39936,DU
         2 000150   000156 600000 2                  TZE     s:1444
         2 000151   000001 236000 xsym               LDQ     ANSBUF+1
         2 000152   777000 376003                    ANQ     -512,DU
         2 000153   131000 116003                    CMPQ    45568,DU
         2 000154   000164 601000 2                  TNZ     s:1450
         2 000155   000157 710000 2                  TRA     s:1446

      199     1443    2             SELECT('N');

      200     1444    2             ALTRETURN;

   1444  2 000156   000000 702200 xent               TSX2  ! X66_AALT

      201     1445    2             SELECT('Y');

      202     1446    2             FM$VID.SYSSIZE = FM$VID.SECTSTRT(1);

   1446  2 000157   000000 470400 0                  LDP0    VID$
         2 000160   000011 235100                    LDA     9,,PR0
         2 000161   000005 755100                    STA     5,,PR0

      203     1447    2             FM$VID.SNLIST.SIZE(0)  = FM$VID.SECTSTRT(1);

   1447  2 000162   000501 755100                    STA     321,,PR0
PL6.E3A0      #002=CHKVID File=ISI$FIXSYST.:E05TSI                               TUE 07/29/97 22:49 Page:38

      204     1448    2             GOTO VIDWR;

   1448  2 000163   000066 710000 2                  TRA     VIDWR

      205     1449    2             SELECT (ELSE);

      206     1450    2           GOTO ASK21;

   1450  2 000164   000131 710000 2                  TRA     ASK21

      207     1451    2           END;

      208     1452    1   VIDASK:
      209     1453        /* System area size=0. Ask . */
      210     1454    1           MESSAGE$=ADDR(VIDSAZM);

   1454  2 000165   000013 236000 3     VIDASK       LDQ     11
         2 000166   200003 756100                    STQ     MESSAGE$,,AUTO

      211     1455    1           SUBSTR(TEXTM.TXT,8,6)=FM$VID.PSN;

   1455  2 000167   200003 471500                    LDP1    MESSAGE$,,AUTO
         2 000170   100000 720100                    LXL0    0,,PR1
         2 000171   040100 100500                    MLR     fill='040'O
         2 000172   000003 000006                    ADSC9   3,,PR0                   cn=0,n=6
         2 000173   100003 000006                    ADSC9   3,,PR1                   cn=0,n=6

      212     1456    1           CALL BINCHAR(SUBSTR(TEXTM.TXT,1,5),FM$VID.VSN);

   1456  2 000174   000002 235100                    LDA     2,,PR0
         2 000175   000044 773000                    LRL     36
         2 000176   200006 757100                    STAQ    NUMBER+2,,AUTO
         2 000177   000100 301500                    BTD
         2 000200   200006 000010                    NDSC9   NUMBER+2,,AUTO           cn=0,s=lsgnf,sf=0,n=8
         2 000201   100001 230005                    NDSC9   1,,PR1                   cn=1,s=nosgn,sf=0,n=5

PL6.E3A0      #002=CHKVID File=ISI$FIXSYST.:E05TSI                               TUE 07/29/97 22:49 Page:39
      213     1457    1   ASK3:
      214     1458    1           CALL KEYIN(VIDSAZM,ANSBUF);

   1458  2 000202   000014 630400 3     ASK3         EPPR0   12
         2 000203   000020 631400 xsym               EPPR1   B_VECTNIL+16
         2 000204   000000 701000 xent               TSX1    KEYIN
         2 000205   000000 011000                    NOP     0

      215     1459    1   ASK4:
      216     1460    1           CALL UPPER_CASE(ANSBUF.TXT,1);

   1460  2 000206   000002 630400 3     ASK4         EPPR0   2
         2 000207   000020 631400 xsym               EPPR1   B_VECTNIL+16
         2 000210   000000 701000 xent               TSX1    UPPER_CASE
         2 000211   000000 011000                    NOP     0

      217     1461    2           DO SELECT(SUBSTR(ANSBUF.TXT,0,1));

   1461  2 000212   000001 236000 xsym               LDQ     ANSBUF+1
         2 000213   777000 376003                    ANQ     -512,DU
         2 000214   131000 116003                    CMPQ    45568,DU
         2 000215   000223 602000 2                  TNC     s:1461+9
         2 000216   000001 236000 xsym               LDQ     ANSBUF+1
         2 000217   777000 376003                    ANQ     -512,DU
         2 000220   131000 116003                    CMPQ    45568,DU
         2 000221   000230 600000 2                  TZE     s:1463
         2 000222   000232 710000 2                  TRA     s:1467
         2 000223   000001 236000 xsym               LDQ     ANSBUF+1
         2 000224   777000 376003                    ANQ     -512,DU
         2 000225   116000 116003                    CMPQ    39936,DU
         2 000226   000232 601000 2                  TNZ     s:1467
         2 000227   000231 710000 2                  TRA     s:1465

      218     1462    2             SELECT('Y');

      219     1463    2             GOTO VIDWR;

PL6.E3A0      #002=CHKVID File=ISI$FIXSYST.:E05TSI                               TUE 07/29/97 22:49 Page:40
   1463  2 000230   000066 710000 2                  TRA     VIDWR

      220     1464    2             SELECT('N');

      221     1465    2             GOTO VIDALT;

   1465  2 000231   000033 710000 2                  TRA     VIDALT

      222     1466    2             SELECT(ELSE);

      223     1467    2           GOTO ASK3;

   1467  2 000232   000202 710000 2                  TRA     ASK3

      224     1468    2           END;                            /* DO SELECT                          */

      225     1469    1   VIDNSYS:
      226     1470    1           IF SUBSTR(FM$VID.PSN,0,4)='SYS ' AND NF_FLG='0'B THEN GOTO VIDSYS;

   1470  2 000233   000003 236100       VIDNSYS      LDQ     3,,PR0
         2 000234   000000 116000 1                  CMPQ    0
         2 000235   000241 601000 2                  TNZ     s:1472
         2 000236   000000 236000 xsym               LDQ     NF_FLG
         2 000237   700000 316003                    CANQ    -32768,DU
         2 000240   000120 600000 2                  TZE     VIDSYS

      227     1471    1             ELSE;
      228     1472    1           MESSAGE$=ADDR(VIDNSYSM);

   1472  2 000241   000016 236000 3                  LDQ     14
         2 000242   200003 756100                    STQ     MESSAGE$,,AUTO

      229     1473    1           SUBSTR(TEXTM.TXT,8,6)=FM$VID.PSN;

   1473  2 000243   200003 471500                    LDP1    MESSAGE$,,AUTO
         2 000244   100000 721100                    LXL1    0,,PR1
         2 000245   040100 100500                    MLR     fill='040'O
PL6.E3A0      #002=CHKVID File=ISI$FIXSYST.:E05TSI                               TUE 07/29/97 22:49 Page:41
         2 000246   000003 000006                    ADSC9   3,,PR0                   cn=0,n=6
         2 000247   100003 000006                    ADSC9   3,,PR1                   cn=0,n=6

      230     1474    1           CALL BINCHAR(SUBSTR(TEXTM.TXT,1,5),FM$VID.VSN);

   1474  2 000250   000002 235100                    LDA     2,,PR0
         2 000251   000044 773000                    LRL     36
         2 000252   200006 757100                    STAQ    NUMBER+2,,AUTO
         2 000253   000100 301500                    BTD
         2 000254   200006 000010                    NDSC9   NUMBER+2,,AUTO           cn=0,s=lsgnf,sf=0,n=8
         2 000255   100001 230005                    NDSC9   1,,PR1                   cn=1,s=nosgn,sf=0,n=5

      231     1475    1           CALL KEYIN(VIDNSYSM,ANSBUF);

   1475  2 000256   000017 630400 3                  EPPR0   15
         2 000257   000020 631400 xsym               EPPR1   B_VECTNIL+16
         2 000260   000000 701000 xent               TSX1    KEYIN
         2 000261   000000 011000                    NOP     0

      232     1476    1           GOTO ASK4;

   1476  2 000262   000206 710000 2                  TRA     ASK4
      233     1477    1   END CHKVID;
      234     1478        %EOD;

PL6.E3A0      #002=CHKVID File=ISI$FIXSYST.:E05TSI                               TUE 07/29/97 22:49 Page:42
--  Include file information  --

   IS$MACROS.:E05TOU  is referenced.
      No diagnostics issued in procedure CHKVID.
PL6.E3A0      #002=CHKVID File=ISI$FIXSYST.:E05TSI                               TUE 07/29/97 22:49 Page:43

 **** Variables and constants ****

  ****  Section 000  Data  CHKVID

  ****  Scalars and arrays  ****
OctLoc.c.b A Datatyp(siz) R M Lvl/name                 OctLoc.c.b A Datatyp(siz) R M Lvl/name

     1-0-0/w STRC(360)   r     1 S_VID                      0-0-0/w PTR         r     1 VID$
    13-0-0/w STRC(405)   r     1 VIDNCPM                   72-0-0/w STRC(603)   r     1 VIDNSYSM
    53-0-0/w STRC(522)   r     1 VIDSAZM                   45-0-0/w STRC(189)   r     1 VIDSNM
    27-0-0/w STRC(504)   r     1 VIDSYSAM

  ****  Auto variables  ****

  ****  Scalars and arrays  ****
OctLoc.c.b A Datatyp(siz) R M Lvl/name                 OctLoc.c.b A Datatyp(siz) R M Lvl/name

     3-0-0/w PTR         r     1 MESSAGE$                   4-0-0/w UBIN        r     1 NUMBER

  ****  SYMREF variables  ****

  ****  Scalars and arrays  ****
OctLoc.c.b A Datatyp(siz) R M Lvl/name                 OctLoc.c.b A Datatyp(siz) R M Lvl/name

     0-0-0/b BIT         r     1 ALPHA_FLG                  0-0-0/w STRC(180)   r     1 ANSBUF
     0-0-0/w PTR         r     1 FIELD$                     0-0-0/w UBIN        r     1 FIELD_LEN
     0-0-0/b BIT (3)     r     1 NF_FLG                     0-0-0/b BIT         r     1 POBUF
     0-0-0/w UBIN        r     1 TOPDA

  ****  BASED and DCB variables  ****

  ****  Scalars and arrays  ****
OctLoc.c.b A Datatyp(siz) R M Lvl/name                 OctLoc.c.b A Datatyp(siz) R M Lvl/name

     0-0-0/c CHAR(16)    r     1 ANS                        0-0-0/w STRC(36864) r     1 FM$VID
     0-0-0/w ASTR        r     1 TEXTM

PL6.E3A0      #002=CHKVID File=ISI$FIXSYST.:E05TSI                               TUE 07/29/97 22:49 Page:44

   Procedure CHKVID requires 179 words for executable code.
   Procedure CHKVID requires 8 words of local(AUTO) storage.
PL6.E3A0      #002=CHKVID File=ISI$FIXSYST.:E05TSI                               TUE 07/29/97 22:49 Page:45
          *** CROSS REFERENCE LISTING ***
**     DENOTES     IDENTIFIER DEFINITION
<<                 IDENTIFIER'S VALUE SET
>>                 IDENTIFIER'S VALUE USED
<>                 IDENTIFIER SET AND/OR USED
--                 IDENTIFIER REFERENCED
PL6.E3A0      #002=CHKVID File=ISI$FIXSYST.:E05TSI                               TUE 07/29/97 22:49 Page:46
          MINI XREF LISTING

ALPHA_FLG
      1381**DCL      1405>>IF
ANS
      1382**DCL      1407>>CALLBLT
ANSBUF
      1376**DCL      1395<>CALL     1403<>CALL     1440<>CALL     1458<>CALL     1475<>CALL
ANSBUF.TXT
      1378**DCL      1396<>CALL     1397>>DOSELCT  1404<>CALL     1441<>CALL     1442>>DOSELCT  1460<>CALL
      1461>>DOSELCT
ASK1
      1395**LABEL    1428--GOTO
ASK2
      1403**LABEL    1404--CALLALT  1405--GOTO     1408--GOTO
ASK21
      1440**LABEL    1450--GOTO
ASK3
      1458**LABEL    1467--GOTO
ASK4
      1460**LABEL    1476--GOTO
BAD
      1425**LABEL    1418--GOTO     1420--GOTO
FIELD$
      1379**DCL      1382--IMP-PTR  1407>>CALLBLT
FIELD_LEN
      1380**DCL      1407>>CALLBLT
FM$VID
      1288**DCL      1411<<ASSIGN
FM$VID.DTT
      1315**DCL      1318--REDEF
FM$VID.ID
      1292**DCL      1391>>IF
FM$VID.PSN
PL6.E3A0      #002=CHKVID File=ISI$FIXSYST.:E05TSI                               TUE 07/29/97 22:49 Page:47
      1298**DCL      1415<<ASSIGN   1433>>IF       1455>>ASSIGN   1470>>IF       1473>>ASSIGN
FM$VID.SECTSTRT
      1308**DCL      1437>>IF       1446>>ASSIGN   1447>>ASSIGN
FM$VID.SNLIST.SIZE
      1328**DCL      1437>>IF       1447<<ASSIGN
FM$VID.SNLIST.VSN.N
      1326**DCL      1413<<ASSIGN
FM$VID.SYSDIRDA
      1304**DCL      1418>>IF       1420>>IF       1422>>ASSIGN   1436>>IF
FM$VID.SYSSIZE
      1302**DCL      1436>>IF       1437>>IF       1437>>IF       1446<<ASSIGN
FM$VID.VOLCNT
      1300**DCL      1431>>IF
FM$VID.VSN
      1296**DCL      1412<<ASSIGN   1413>>ASSIGN   1456>>CALLBLT  1474>>CALLBLT
GETFD
      1389**DCL-ENT  1404--CALL
KEYIN
      1387**DCL-ENT  1395--CALL     1403--CALL     1440--CALL     1458--CALL     1475--CALL
MESSAGE$
      1372**DCL      1373--IMP-PTR  1454<<ASSIGN   1455>>ASSIGN   1455>>ASSIGN   1456>>CALLBLT  1456>>CALLBLT
      1472<<ASSIGN   1473>>ASSIGN   1473>>ASSIGN   1474>>CALLBLT  1474>>CALLBLT
NF_FLG
      1346**DCL      1470>>IF
NUMBER
      1384**DCL      1407<<CALLBLT  1408>>IF       1412>>ASSIGN
POBUF
      1334**DCL      1333--DCLINIT
S_VID
      1336**DCL      1411>>ASSIGN
S_VID.ID
      1337**DCL      1391>>IF
S_VID.PSN
      1340**DCL      1415>>ASSIGN   1433>>IF
S_VID.SYSDIRDA
      1343**DCL      1420>>IF       1425>>ASSIGN
PL6.E3A0      #002=CHKVID File=ISI$FIXSYST.:E05TSI                               TUE 07/29/97 22:49 Page:48
TEXTM.CNT
      1374**DCL      1375--IMP-SIZ  1455>>ASSIGN   1456>>CALLBLT  1473>>ASSIGN   1474>>CALLBLT
TEXTM.TXT
      1375**DCL      1455<<ASSIGN   1456<<CALLBLT  1473<<ASSIGN   1474<<CALLBLT
TOPDA
      1383**DCL      1422<<ASSIGN   1425<<ASSIGN
UPPER_CASE
      1388**DCL-ENT  1396--CALL     1441--CALL     1460--CALL
VID$
      1333**DCL      1288--IMP-PTR  1391>>IF       1411>>ASSIGN   1412>>ASSIGN   1413>>ASSIGN   1413>>ASSIGN
      1415>>ASSIGN   1418>>IF       1420>>IF       1422>>ASSIGN   1431>>IF       1433>>IF       1436>>IF
      1436>>IF       1437>>IF       1437>>IF       1437>>IF       1437>>IF       1446>>ASSIGN   1446>>ASSIGN
      1447>>ASSIGN   1447>>ASSIGN   1455>>ASSIGN   1456>>CALLBLT  1470>>IF       1473>>ASSIGN   1474>>CALLBLT
VIDALT
      1400**LABEL    1416--CALLALT  1465--GOTO
VIDASK
      1454**LABEL    1436--GOTO
VIDCP6
      1431**LABEL    1391--GOTO
VIDNCPM
      1348**DCL      1395<>CALL
VIDNSYS
      1470**LABEL    1433--GOTO
VIDNSYSM
      1368**DCL      1472--ASSIGN   1475<>CALL
VIDSAZM
      1363**DCL      1454--ASSIGN   1458<>CALL
VIDSNM
      1358**DCL      1403<>CALL
VIDSYS
      1436**LABEL    1470--GOTO
VIDSYSAM
      1353**DCL      1440<>CALL
VIDWR
      1415**LABEL    1431--GOTO     1438--GOTO     1448--GOTO     1463--GOTO
WRVID
PL6.E3A0      #002=CHKVID File=ISI$FIXSYST.:E05TSI                               TUE 07/29/97 22:49 Page:49
      1386**DCL-ENT  1416--CALL

