PL6.E3A0      #004=AOC File=ISI$FIXSYST.:E05TSI                                  TUE 07/29/97 22:50 Page:316
     1828        1        /*T***********************************************************/
     1829        2        /*T*                                                         */
     1830        3        /*T* Copyright (c) Bull HN Information Systems Inc., 1997    */
     1831        4        /*T*                                                         */
     1832        5        /*T***********************************************************/
     1833        6        AOC:    PROC(WISH) ALTRET;
     1834        7        /* Processes the Patches answer */
     1835        8        %INCLUDE IS$MACROS;
     1836     1283    1   DCL 1 WISH UNAL,
     1837     1284    1         2 B BIT(1),
     1838     1285    1         2 P BIT(1),
     1839     1286    1         2 R BIT(1),
     1840     1287    1         2 T BIT(1),
     1841     1288    1         2 X BIT(1),
     1842     1289    1         2 M BIT(1);
     1843     1290    1   DCL UWISH REDEF WISH UBIN(6) UNAL;
     1844     1291    1   DCL SWISH REDEF WISH SBIN(6) UNAL;
     1845     1292    1   DCL 1 ANSBUF SYMREF,
     1846     1293    1         2 CNT UBIN WORD,
     1847     1294    1         2 TXT CHAR(16);
     1848     1295        %TEXTC(N#=HLP1,M#="' M - Read MINI Patches . '");
     1849     1300        %TEXTC(N#=HLP2,M#="' X - Read XDELTA Patches . '");
     1850     1305        %TEXTC(N#=HLP3,M#="' T - Read TIGR Commands . '");
     1851     1310        %TEXTC(N#=HLP4,M#="' R - Read RUMs . '");
     1852     1315        %TEXTC(N#=HLP5,M#="' P - Read PLOVER commands . '");
     1853     1320        %TEXTC(N#=HLP8,M#="' B - Read BOOTIME commands . '");
     1854     1325        %TEXTC(N#=HLP7,M#="' N - None of the above options . '");
     1855     1330        %TEXTC(N#=HLP6,M#="' Y - All of the above options . '");
     1856     1335    1   DCL TYPEC ENTRY(1);
     1857     1336    1   DCL I UBIN WORD;
     1858     1337        /**/
     1859     1338    1           WISH='0'B;
     1860     1339    2           DO SELECT(SUBSTR(ANSBUF.TXT,0,1));
     1861     1340    2             SELECT('?');
     1862     1341    2             CALL TYPEC(HLP1);
     1863     1342    2             CALL TYPEC(HLP2);
     1864     1343    2             CALL TYPEC(HLP3);
PL6.E3A0      #004=AOC File=ISI$FIXSYST.:E05TSI                                  TUE 07/29/97 22:50 Page:317
     1865     1344    2             CALL TYPEC(HLP4);
     1866     1345    2             CALL TYPEC(HLP5);
     1867     1346    2             CALL TYPEC(HLP8);
     1868     1347    2             CALL TYPEC(HLP6);
     1869     1348    2             CALL TYPEC(HLP7);
     1870     1349    2             ALTRETURN;
     1871     1350    2             SELECT('Y','y');
     1872     1351    2             SWISH=-1;
     1873     1352    2             SELECT('N','n');
     1874     1353    2             WISH='0'B;
     1875     1354    2             SELECT(ELSE);
     1876     1355    3           DO I=0 TO 15;
     1877     1356    4             DO SELECT(SUBSTR(ANSBUF.TXT,I,1));
     1878     1357    4               SELECT(' ');
     1879     1358    4               SELECT('M','m');
     1880     1359    4               WISH.M='1'B;
     1881     1360    4               SELECT('X','x');
     1882     1361    4               WISH.X='1'B;
     1883     1362    4               SELECT('T','t');
     1884     1363    4               WISH.T='1'B;
     1885     1364    4               SELECT('R','r');
     1886     1365    4               WISH.R='1'B;
     1887     1366    4               SELECT('P','p');
     1888     1367    4               WISH.P='1'B;
     1889     1368    4               SELECT('B','b');
     1890     1369    4               WISH.B='1'B;
     1891     1370    4               SELECT(ELSE);
     1892     1371    4             ALTRETURN;
     1893     1372    4             END;                          /* DO SELECT                          */
     1894     1373    3           END;                            /* DO I=                              */
     1895     1374    2           END;                            /* DO SELECT                          */
     1896     1375    1           RETURN;
     1897     1376    1   END AOC;
     1898     1377        %EOD;

PL6.E3A0      #004=AOC File=ISI$FIXSYST.:E05TSI                                  TUE 07/29/97 22:50 Page:318
--  Include file information  --

   IS$MACROS.:E05TOU  is referenced.
      No diagnostics issued in procedure AOC.

   Procedure AOC requires 187 words for executable code.
   Procedure AOC requires 6 words of local(AUTO) storage.

PL6.E3A0      #004=AOC File=ISI$FIXSYST.:E05TSI                                  TUE 07/29/97 22:50 Page:319

 Object Unit name= AOC                                        File name= ISI$FIXSYST.:E05TOU
 UTS= JUL 29 '97 22:50:50.36 TUE                              Compiler= PL-6/E31         Sev=      00
 SharedLib= :SHARED_SYSTEM                                    Alt SharedLib=


    ****  Control sections  ****

 Sect   Type Bound  Init  Size OctSiz  Section name(segment info)
    0   Data  even  none    66    102  AOC
    1   Proc  even  none   187    273  AOC
    2  RoData even  none    20     24  AOC

    ****  Entry defs  ****

                              Check   Calling
                             calling  sequence
  Sect OctLoc Primary Altret sequence   type   Parms  Name
     1      0   yes    yes     yes      Std        1  AOC

  ****  Data defs  ****

 Sect OctLoc  Name                           Sect OctLoc  Name
    0      0  HLP1                               0     10  HLP2
    0     20  HLP3                               0     30  HLP4
    0     36  HLP5                               0     46  HLP8
    0     57  HLP7                               0     71  HLP6

  ****  Entry refs  ****

         Check        Calling
        calling       sequence
Altret sequence SRef   type   Args  Name
         yes           Std       1 TYPEC
                       nStd      0 X66_AUTO_1
                       Std       0 B_CONSPOOL_D
                       nStd      0 X66_AALT
                       nStd      0 X66_ARET
PL6.E3A0      #004=AOC File=ISI$FIXSYST.:E05TSI                                  TUE 07/29/97 22:50 Page:320

  ****  Data refs  ****

  Flags:  r = read only, s = secondary
Flgs Name                             Flgs Name                             Flgs Name
     ANSBUF                                B_VECTNIL

  ****  Segment refs  ****

  Flags:  r = read only, s = secondary
Flgs Name                             Flgs Name                             Flgs Name
     ISSID
PL6.E3A0      #004=AOC File=ISI$FIXSYST.:E05TSI                                  TUE 07/29/97 22:50 Page:321


     1828        1        /*T***********************************************************/
     1829        2        /*T*                                                         */
     1830        3        /*T* Copyright (c) Bull HN Information Systems Inc., 1997    */
     1831        4        /*T*                                                         */
     1832        5        /*T***********************************************************/
     1833        6        AOC:    PROC(WISH) ALTRET;

      6  1 000000   000000 700200 xent  AOC          TSX0  ! X66_AUTO_1
         1 000001   000006 000001                    ZERO    6,1

     1834        7        /* Processes the Patches answer */
     1835        8        %INCLUDE IS$MACROS;
     1836     1283    1   DCL 1 WISH UNAL,
     1837     1284    1         2 B BIT(1),
     1838     1285    1         2 P BIT(1),
     1839     1286    1         2 R BIT(1),
     1840     1287    1         2 T BIT(1),
     1841     1288    1         2 X BIT(1),
     1842     1289    1         2 M BIT(1);
     1843     1290    1   DCL UWISH REDEF WISH UBIN(6) UNAL;
     1844     1291    1   DCL SWISH REDEF WISH SBIN(6) UNAL;
     1845     1292    1   DCL 1 ANSBUF SYMREF,
     1846     1293    1         2 CNT UBIN WORD,
     1847     1294    1         2 TXT CHAR(16);
     1848     1295        %TEXTC(N#=HLP1,M#="' M - Read MINI Patches . '");
     1849     1300        %TEXTC(N#=HLP2,M#="' X - Read XDELTA Patches . '");
     1850     1305        %TEXTC(N#=HLP3,M#="' T - Read TIGR Commands . '");
     1851     1310        %TEXTC(N#=HLP4,M#="' R - Read RUMs . '");
     1852     1315        %TEXTC(N#=HLP5,M#="' P - Read PLOVER commands . '");
     1853     1320        %TEXTC(N#=HLP8,M#="' B - Read BOOTIME commands . '");
     1854     1325        %TEXTC(N#=HLP7,M#="' N - None of the above options . '");
     1855     1330        %TEXTC(N#=HLP6,M#="' Y - All of the above options . '");
     1856     1335    1   DCL TYPEC ENTRY(1);
     1857     1336    1   DCL I UBIN WORD;
     1858     1337        /**/
     1859     1338    1           WISH='0'B;
PL6.E3A0      #004=AOC File=ISI$FIXSYST.:E05TSI                                  TUE 07/29/97 22:50 Page:322

   1338  1 000002   200003 470500                    LDP0    @WISH,,AUTO
         1 000003   003100 060400                    CSL     bolr='003'O
         1 000004   000002 000001 xsym               BDSC    B_VECTNIL+2              by=0,bit=0,n=1
         1 000005   000000 000006                    BDSC    0,,PR0                   by=0,bit=0,n=6

     1860     1339    2           DO SELECT(SUBSTR(ANSBUF.TXT,0,1));

   1339  1 000006   000001 236000 xsym               LDQ     ANSBUF+1
         1 000007   777000 376003                    ANQ     -512,DU
         1 000010   131000 116003                    CMPQ    45568,DU
         1 000011   000034 602000 1                  TNC     s:1339+22
         1 000012   000001 236000 xsym               LDQ     ANSBUF+1
         1 000013   777000 376003                    ANQ     -512,DU
         1 000014   131000 116003                    CMPQ    45568,DU
         1 000015   000112 600000 1                  TZE     s:1351
         1 000016   000001 236000 xsym               LDQ     ANSBUF+1
         1 000017   777000 376003                    ANQ     -512,DU
         1 000020   171000 116003                    CMPQ    61952,DU
         1 000021   000027 602000 1                  TNC     s:1339+17
         1 000022   000001 236000 xsym               LDQ     ANSBUF+1
         1 000023   777000 376003                    ANQ     -512,DU
         1 000024   171000 116003                    CMPQ    61952,DU
         1 000025   000112 600000 1                  TZE     s:1351
         1 000026   000122 710000 1                  TRA     s:1355
         1 000027   000001 236000 xsym               LDQ     ANSBUF+1
         1 000030   777000 376003                    ANQ     -512,DU
         1 000031   156000 116003                    CMPQ    56320,DU
         1 000032   000122 601000 1                  TNZ     s:1355
         1 000033   000116 710000 1                  TRA     s:1353
         1 000034   000001 236000 xsym               LDQ     ANSBUF+1
         1 000035   777000 376003                    ANQ     -512,DU
         1 000036   077000 116003                    CMPQ    32256,DU
         1 000037   000122 602000 1                  TNC     s:1355
         1 000040   000001 236000 xsym               LDQ     ANSBUF+1
         1 000041   777000 376003                    ANQ     -512,DU
         1 000042   077000 116003                    CMPQ    32256,DU
PL6.E3A0      #004=AOC File=ISI$FIXSYST.:E05TSI                                  TUE 07/29/97 22:50 Page:323
         1 000043   000051 600000 1                  TZE     s:1341
         1 000044   000001 236000 xsym               LDQ     ANSBUF+1
         1 000045   777000 376003                    ANQ     -512,DU
         1 000046   116000 116003                    CMPQ    39936,DU
         1 000047   000122 601000 1                  TNZ     s:1355
         1 000050   000116 710000 1                  TRA     s:1353

     1861     1340    2             SELECT('?');

     1862     1341    2             CALL TYPEC(HLP1);

   1341  1 000051   000000 630400 2                  EPPR0   0
         1 000052   000017 631400 xsym               EPPR1   B_VECTNIL+15
         1 000053   000000 701000 xent               TSX1    TYPEC
         1 000054   000000 011000                    NOP     0

     1863     1342    2             CALL TYPEC(HLP2);

   1342  1 000055   000001 630400 2                  EPPR0   1
         1 000056   000017 631400 xsym               EPPR1   B_VECTNIL+15
         1 000057   000000 701000 xent               TSX1    TYPEC
         1 000060   000000 011000                    NOP     0

     1864     1343    2             CALL TYPEC(HLP3);

   1343  1 000061   000002 630400 2                  EPPR0   2
         1 000062   000017 631400 xsym               EPPR1   B_VECTNIL+15
         1 000063   000000 701000 xent               TSX1    TYPEC
         1 000064   000000 011000                    NOP     0

     1865     1344    2             CALL TYPEC(HLP4);

   1344  1 000065   000003 630400 2                  EPPR0   3
         1 000066   000017 631400 xsym               EPPR1   B_VECTNIL+15
         1 000067   000000 701000 xent               TSX1    TYPEC
         1 000070   000000 011000                    NOP     0

PL6.E3A0      #004=AOC File=ISI$FIXSYST.:E05TSI                                  TUE 07/29/97 22:50 Page:324
     1866     1345    2             CALL TYPEC(HLP5);

   1345  1 000071   000004 630400 2                  EPPR0   4
         1 000072   000017 631400 xsym               EPPR1   B_VECTNIL+15
         1 000073   000000 701000 xent               TSX1    TYPEC
         1 000074   000000 011000                    NOP     0

     1867     1346    2             CALL TYPEC(HLP8);

   1346  1 000075   000005 630400 2                  EPPR0   5
         1 000076   000017 631400 xsym               EPPR1   B_VECTNIL+15
         1 000077   000000 701000 xent               TSX1    TYPEC
         1 000100   000000 011000                    NOP     0

     1868     1347    2             CALL TYPEC(HLP6);

   1347  1 000101   000006 630400 2                  EPPR0   6
         1 000102   000017 631400 xsym               EPPR1   B_VECTNIL+15
         1 000103   000000 701000 xent               TSX1    TYPEC
         1 000104   000000 011000                    NOP     0

     1869     1348    2             CALL TYPEC(HLP7);

   1348  1 000105   000007 630400 2                  EPPR0   7
         1 000106   000017 631400 xsym               EPPR1   B_VECTNIL+15
         1 000107   000000 701000 xent               TSX1    TYPEC
         1 000110   000000 011000                    NOP     0

     1870     1349    2             ALTRETURN;

   1349  1 000111   000000 702200 xent               TSX2  ! X66_AALT

     1871     1350    2             SELECT('Y','y');

     1872     1351    2             SWISH=-1;

   1351  1 000112   003100 061400                    CSR     bolr='003'O
PL6.E3A0      #004=AOC File=ISI$FIXSYST.:E05TSI                                  TUE 07/29/97 22:50 Page:325
         1 000113   000027 000044 xsym               BDSC    B_VECTNIL+23             by=0,bit=0,n=36
         1 000114   000000 000006                    BDSC    0,,PR0                   by=0,bit=0,n=6
         1 000115   000272 710000 1                  TRA     s:1375

     1873     1352    2             SELECT('N','n');

     1874     1353    2             WISH='0'B;

   1353  1 000116   003100 060400                    CSL     bolr='003'O
         1 000117   000002 000001 xsym               BDSC    B_VECTNIL+2              by=0,bit=0,n=1
         1 000120   000000 000006                    BDSC    0,,PR0                   by=0,bit=0,n=6
         1 000121   000272 710000 1                  TRA     s:1375

     1875     1354    2             SELECT(ELSE);

     1876     1355    3           DO I=0 TO 15;

   1355  1 000122   200004 450100                    STZ     I,,AUTO

     1877     1356    4             DO SELECT(SUBSTR(ANSBUF.TXT,I,1));

   1356  1 000123   200004 235100                    LDA     I,,AUTO
         1 000124   040000 106405                    CMPC    fill='040'O
         1 000125   000001 000001 xsym               ADSC9   ANSBUF+1,A               cn=0,n=1
         1 000126   000010 000001 2                  ADSC9   8                        cn=0,n=1
         1 000127   000170 602000 1                  TNC     s:1356+37
         1 000130   000234 600000 1                  TZE     s:1361
         1 000131   040000 106405                    CMPC    fill='040'O
         1 000132   000001 000001 xsym               ADSC9   ANSBUF+1,A               cn=0,n=1
         1 000133   000011 000001 2                  ADSC9   9                        cn=0,n=1
         1 000134   000155 602000 1                  TNC     s:1356+26
         1 000135   000253 600000 1                  TZE     s:1367
         1 000136   040000 106405                    CMPC    fill='040'O
         1 000137   000001 000001 xsym               ADSC9   ANSBUF+1,A               cn=0,n=1
         1 000140   000012 000001 2                  ADSC9   10                       cn=0,n=1
         1 000141   000150 602000 1                  TNC     s:1356+21
         1 000142   000241 600000 1                  TZE     s:1363
PL6.E3A0      #004=AOC File=ISI$FIXSYST.:E05TSI                                  TUE 07/29/97 22:50 Page:326
         1 000143   040000 106405                    CMPC    fill='040'O
         1 000144   000001 000001 xsym               ADSC9   ANSBUF+1,A               cn=0,n=1
         1 000145   000013 000001 2                  ADSC9   11                       cn=0,n=1
         1 000146   000265 601000 1                  TNZ     s:1371
         1 000147   000234 710000 1                  TRA     s:1361
         1 000150   040000 106405                    CMPC    fill='040'O
         1 000151   000001 000001 xsym               ADSC9   ANSBUF+1,A               cn=0,n=1
         1 000152   000014 000001 2                  ADSC9   12                       cn=0,n=1
         1 000153   000265 601000 1                  TNZ     s:1371
         1 000154   000246 710000 1                  TRA     s:1365
         1 000155   040000 106405                    CMPC    fill='040'O
         1 000156   000001 000001 xsym               ADSC9   ANSBUF+1,A               cn=0,n=1
         1 000157   000015 000001 2                  ADSC9   13                       cn=0,n=1
         1 000160   000163 602000 1                  TNC     s:1356+32
         1 000161   000227 600000 1                  TZE     s:1359
         1 000162   000265 710000 1                  TRA     s:1371
         1 000163   040000 106405                    CMPC    fill='040'O
         1 000164   000001 000001 xsym               ADSC9   ANSBUF+1,A               cn=0,n=1
         1 000165   000016 000001 2                  ADSC9   14                       cn=0,n=1
         1 000166   000265 601000 1                  TNZ     s:1371
         1 000167   000260 710000 1                  TRA     s:1369
         1 000170   040000 106405                    CMPC    fill='040'O
         1 000171   000001 000001 xsym               ADSC9   ANSBUF+1,A               cn=0,n=1
         1 000172   000017 000001 2                  ADSC9   15                       cn=0,n=1
         1 000173   000214 602000 1                  TNC     s:1356+57
         1 000174   000227 600000 1                  TZE     s:1359
         1 000175   040000 106405                    CMPC    fill='040'O
         1 000176   000001 000001 xsym               ADSC9   ANSBUF+1,A               cn=0,n=1
         1 000177   000020 000001 2                  ADSC9   16                       cn=0,n=1
         1 000200   000207 602000 1                  TNC     s:1356+52
         1 000201   000246 600000 1                  TZE     s:1365
         1 000202   040000 106405                    CMPC    fill='040'O
         1 000203   000001 000001 xsym               ADSC9   ANSBUF+1,A               cn=0,n=1
         1 000204   000021 000001 2                  ADSC9   17                       cn=0,n=1
         1 000205   000265 601000 1                  TNZ     s:1371
         1 000206   000241 710000 1                  TRA     s:1363
         1 000207   040000 106405                    CMPC    fill='040'O
PL6.E3A0      #004=AOC File=ISI$FIXSYST.:E05TSI                                  TUE 07/29/97 22:50 Page:327
         1 000210   000001 000001 xsym               ADSC9   ANSBUF+1,A               cn=0,n=1
         1 000211   000022 000001 2                  ADSC9   18                       cn=0,n=1
         1 000212   000265 601000 1                  TNZ     s:1371
         1 000213   000253 710000 1                  TRA     s:1367
         1 000214   040000 106405                    CMPC    fill='040'O
         1 000215   000001 000001 xsym               ADSC9   ANSBUF+1,A               cn=0,n=1
         1 000216   000035 000001 xsym               ADSC9   B_VECTNIL+29             cn=0,n=1
         1 000217   000265 602000 1                  TNC     s:1371
         1 000220   000226 600000 1                  TZE     s:1357
         1 000221   040000 106405                    CMPC    fill='040'O
         1 000222   000001 000001 xsym               ADSC9   ANSBUF+1,A               cn=0,n=1
         1 000223   000023 000001 2                  ADSC9   19                       cn=0,n=1
         1 000224   000265 601000 1                  TNZ     s:1371
         1 000225   000260 710000 1                  TRA     s:1369

     1878     1357    4               SELECT(' ');

   1357  1 000226   000266 710000 1                  TRA     s:1373

     1879     1358    4               SELECT('M','m');

     1880     1359    4               WISH.M='1'B;

   1359  1 000227   200003 470500                    LDP0    @WISH,,AUTO
         1 000230   003100 060400                    CSL     bolr='003'O
         1 000231   000030 000001 xsym               BDSC    B_VECTNIL+24             by=0,bit=0,n=1
         1 000232   000000 050001                    BDSC    0,,PR0                   by=0,bit=5,n=1
         1 000233   000266 710000 1                  TRA     s:1373

     1881     1360    4               SELECT('X','x');

     1882     1361    4               WISH.X='1'B;

   1361  1 000234   200003 470500                    LDP0    @WISH,,AUTO
         1 000235   003100 060400                    CSL     bolr='003'O
         1 000236   000030 000001 xsym               BDSC    B_VECTNIL+24             by=0,bit=0,n=1
         1 000237   000000 040001                    BDSC    0,,PR0                   by=0,bit=4,n=1
PL6.E3A0      #004=AOC File=ISI$FIXSYST.:E05TSI                                  TUE 07/29/97 22:50 Page:328
         1 000240   000266 710000 1                  TRA     s:1373

     1883     1362    4               SELECT('T','t');

     1884     1363    4               WISH.T='1'B;

   1363  1 000241   200003 470500                    LDP0    @WISH,,AUTO
         1 000242   003100 060400                    CSL     bolr='003'O
         1 000243   000030 000001 xsym               BDSC    B_VECTNIL+24             by=0,bit=0,n=1
         1 000244   000000 030001                    BDSC    0,,PR0                   by=0,bit=3,n=1
         1 000245   000266 710000 1                  TRA     s:1373

     1885     1364    4               SELECT('R','r');

     1886     1365    4               WISH.R='1'B;

   1365  1 000246   200003 470500                    LDP0    @WISH,,AUTO
         1 000247   003100 060400                    CSL     bolr='003'O
         1 000250   000030 000001 xsym               BDSC    B_VECTNIL+24             by=0,bit=0,n=1
         1 000251   000000 020001                    BDSC    0,,PR0                   by=0,bit=2,n=1
         1 000252   000266 710000 1                  TRA     s:1373

     1887     1366    4               SELECT('P','p');

     1888     1367    4               WISH.P='1'B;

   1367  1 000253   200003 470500                    LDP0    @WISH,,AUTO
         1 000254   003100 060400                    CSL     bolr='003'O
         1 000255   000030 000001 xsym               BDSC    B_VECTNIL+24             by=0,bit=0,n=1
         1 000256   000000 010001                    BDSC    0,,PR0                   by=0,bit=1,n=1
         1 000257   000266 710000 1                  TRA     s:1373

     1889     1368    4               SELECT('B','b');

     1890     1369    4               WISH.B='1'B;

   1369  1 000260   200003 470500                    LDP0    @WISH,,AUTO
PL6.E3A0      #004=AOC File=ISI$FIXSYST.:E05TSI                                  TUE 07/29/97 22:50 Page:329
         1 000261   003100 060400                    CSL     bolr='003'O
         1 000262   000030 000001 xsym               BDSC    B_VECTNIL+24             by=0,bit=0,n=1
         1 000263   000000 000001                    BDSC    0,,PR0                   by=0,bit=0,n=1
         1 000264   000266 710000 1                  TRA     s:1373

     1891     1370    4               SELECT(ELSE);

     1892     1371    4             ALTRETURN;

   1371  1 000265   000000 702200 xent               TSX2  ! X66_AALT

     1893     1372    4             END;                          /* DO SELECT                          */

     1894     1373    3           END;                            /* DO I=                              */

   1373  1 000266   000001 035007                    ADLA    1,DL
         1 000267   200004 755100                    STA     I,,AUTO
         1 000270   000020 115007                    CMPA    16,DL
         1 000271   000123 602000 1                  TNC     s:1356

     1895     1374    2           END;                            /* DO SELECT                          */

     1896     1375    1           RETURN;

   1375  1 000272   000000 702200 xent               TSX2  ! X66_ARET
     1897     1376    1   END AOC;
     1898     1377        %EOD;

PL6.E3A0      #004=AOC File=ISI$FIXSYST.:E05TSI                                  TUE 07/29/97 22:50 Page:330
--  Include file information  --

   IS$MACROS.:E05TOU  is referenced.
      No diagnostics issued in procedure AOC.
PL6.E3A0      #004=AOC File=ISI$FIXSYST.:E05TSI                                  TUE 07/29/97 22:50 Page:331

 **** Variables and constants ****

  ****  Section 000  Data  AOC

  ****  Scalars and arrays  ****
OctLoc.c.b A Datatyp(siz) R M Lvl/name                 OctLoc.c.b A Datatyp(siz) R M Lvl/name

     0-0-0/w STRC(261)   r     1 HLP1                      10-0-0/w STRC(279)   r     1 HLP2
    20-0-0/w STRC(270)   r     1 HLP3                      30-0-0/w STRC(189)   r     1 HLP4
    36-0-0/w STRC(288)   r     1 HLP5                      71-0-0/w STRC(324)   r     1 HLP6
    57-0-0/w STRC(333)   r     1 HLP7                      46-0-0/w STRC(297)   r     1 HLP8

  ****  Auto variables  ****

  ****  Scalars and arrays  ****
OctLoc.c.b A Datatyp(siz) R M Lvl/name                 OctLoc.c.b A Datatyp(siz) R M Lvl/name

     3-0-0/w PTR         r     1 @WISH                      4-0-0/w UBIN        r     1 I
    *0-0-0/b SBIN(6)     r     1 SWISH                     *0-0-0/b STRC(6)     r     1 WISH

  ****  SYMREF variables  ****

  ****  Scalars and arrays  ****
OctLoc.c.b A Datatyp(siz) R M Lvl/name                 OctLoc.c.b A Datatyp(siz) R M Lvl/name

     0-0-0/w STRC(180)   r     1 ANSBUF


   Procedure AOC requires 187 words for executable code.
   Procedure AOC requires 6 words of local(AUTO) storage.
PL6.E3A0      #004=AOC File=ISI$FIXSYST.:E05TSI                                  TUE 07/29/97 22:50 Page:332
          *** CROSS REFERENCE LISTING ***
**     DENOTES     IDENTIFIER DEFINITION
<<                 IDENTIFIER'S VALUE SET
>>                 IDENTIFIER'S VALUE USED
<>                 IDENTIFIER SET AND/OR USED
--                 IDENTIFIER REFERENCED
PL6.E3A0      #004=AOC File=ISI$FIXSYST.:E05TSI                                  TUE 07/29/97 22:50 Page:333
          MINI XREF LISTING

ANSBUF.TXT
      1294**DCL      1339>>DOSELCT  1356>>DOSELCT
HLP1
      1296**DCL      1341<>CALL
HLP2
      1301**DCL      1342<>CALL
HLP3
      1306**DCL      1343<>CALL
HLP4
      1311**DCL      1344<>CALL
HLP5
      1316**DCL      1345<>CALL
HLP6
      1331**DCL      1347<>CALL
HLP7
      1326**DCL      1348<>CALL
HLP8
      1321**DCL      1346<>CALL
I
      1336**DCL      1355<<DOINDEX  1356>>DOSELCT
SWISH
      1291**DCL      1351<<ASSIGN
TYPEC
      1335**DCL-ENT  1341--CALL     1342--CALL     1343--CALL     1344--CALL     1345--CALL     1346--CALL
      1347--CALL     1348--CALL
WISH
      1283**DCL         6--PROC     1290--REDEF    1291--REDEF    1338<<ASSIGN   1353<<ASSIGN
WISH.B
      1284**DCL      1369<<ASSIGN
WISH.M
      1289**DCL      1359<<ASSIGN
WISH.P
PL6.E3A0      #004=AOC File=ISI$FIXSYST.:E05TSI                                  TUE 07/29/97 22:50 Page:334
      1285**DCL      1367<<ASSIGN
WISH.R
      1286**DCL      1365<<ASSIGN
WISH.T
      1287**DCL      1363<<ASSIGN
WISH.X
      1288**DCL      1361<<ASSIGN

PL6.E3A0      #005=IBANGI File=ISI$FIXSYST.:E05TSI                               TUE 07/29/97 22:50 Page:335
     1899        1        /*T***********************************************************/
     1900        2        /*T*                                                         */
     1901        3        /*T* Copyright (c) Bull HN Information Systems Inc., 1997    */
     1902        4        /*T*                                                         */
     1903        5        /*T***********************************************************/
     1904        6        IBANGI: PROC(BUF,OWN) ALTRET;
     1905        7        /* This program looks for a recognized ! card in BUF */
     1906        8        /* If found -> OWN= appropriate owner configuration */
     1907        9        /* If not found -> ALTRETURN   */
     1908       10        %INCLUDE IS$MACROS;
     1909     1285    1   DCL BUF CHAR(8);
     1910     1286    1   DCL OWN BIT(6) UNAL;
     1911     1287    1   DCL PIDTB(0:6) CHAR(8) STATIC INIT('!MINI','!XDEL','!TIGR',
     1912     1288    1                                 '!RUM','!PLOVER','!BOOTIME','!FIN');
     1913     1289    1   DCL LENS(0:6) SBIN STATIC INIT(4,4,4,3,6,7,3);
     1914     1290    1   DCL BOWN(0:6) BIT(6) STATIC INIT(%WHOMINI,%WHOXDEL,%WHOTIGR,%WHORUM,
     1915     1291    1                                       %WHOPLV,%WHOBTM,%WHOFIN);
     1916     1292    1   DCL I UBIN WORD;
     1917     1293    1   DCL UPPER_CASE ENTRY(2);
     1918     1294        /**/
     1919     1295    1           IF SUBSTR(BUF,1) = '!' THEN
     1920     1296    1             CALL UPPER_CASE(SUBSTR(BUF,1),7);
     1921     1297    2           DO I=0 TO 6;
     1922     1298    2             IF SUBSTR(BUF,0,LENS(I)+2)=PIDTB(I) THEN GOTO BANGFOUND;
     1923     1299                                      /* +2 is for ! before keyword and space after.  */
     1924     1300    2           END;                            /* DO I=                              */
     1925     1301    1           ALTRETURN;
     1926     1302    1   BANGFOUND:
     1927     1303    1           OWN=BOWN(I);
     1928     1304    1           RETURN;
     1929     1305    1   END IBANGI;
     1930     1306        %EOD;

PL6.E3A0      #005=IBANGI File=ISI$FIXSYST.:E05TSI                               TUE 07/29/97 22:50 Page:336
--  Include file information  --

   IS$MACROS.:E05TOU  is referenced.
      No diagnostics issued in procedure IBANGI.

   Procedure IBANGI requires 40 words for executable code.
   Procedure IBANGI requires 8 words of local(AUTO) storage.

PL6.E3A0      #005=IBANGI File=ISI$FIXSYST.:E05TSI                               TUE 07/29/97 22:50 Page:337

 Object Unit name= IBANGI                                     File name= ISI$FIXSYST.:E05TOU
 UTS= JUL 29 '97 22:50:54.64 TUE                              Compiler= PL-6/E31         Sev=      00
 SharedLib= :SHARED_SYSTEM                                    Alt SharedLib=


    ****  Control sections  ****

 Sect   Type Bound  Init  Size OctSiz  Section name(segment info)
    0   Data  even  none    23     27  IBANGI
    1   Proc  even  none    40     50  IBANGI
    2  RoData even  none     2      2  IBANGI

    ****  Entry defs  ****

                              Check   Calling
                             calling  sequence
  Sect OctLoc Primary Altret sequence   type   Parms  Name
     1      0   yes    yes     yes      Std        2  IBANGI

  ****  Entry refs  ****

         Check        Calling
        calling       sequence
Altret sequence SRef   type   Args  Name
         yes           Std       2 UPPER_CASE
                       nStd      0 X66_AUTO_2
                       Std       0 B_CONSPOOL_D
                       nStd      0 X66_AALT
                       nStd      0 X66_ARET

  ****  Data refs  ****

  Flags:  r = read only, s = secondary
Flgs Name                             Flgs Name                             Flgs Name
     B_VECTNIL
PL6.E3A0      #005=IBANGI File=ISI$FIXSYST.:E05TSI                               TUE 07/29/97 22:50 Page:338

  ****  Segment refs  ****

  Flags:  r = read only, s = secondary
Flgs Name                             Flgs Name                             Flgs Name
     ISSID
PL6.E3A0      #005=IBANGI File=ISI$FIXSYST.:E05TSI                               TUE 07/29/97 22:50 Page:339


     1899        1        /*T***********************************************************/
     1900        2        /*T*                                                         */
     1901        3        /*T* Copyright (c) Bull HN Information Systems Inc., 1997    */
     1902        4        /*T*                                                         */
     1903        5        /*T***********************************************************/
     1904        6        IBANGI: PROC(BUF,OWN) ALTRET;

      6  1 000000   000000 700200 xent  IBANGI       TSX0  ! X66_AUTO_2
         1 000001   000010 000002                    ZERO    8,2

     1905        7        /* This program looks for a recognized ! card in BUF */
     1906        8        /* If found -> OWN= appropriate owner configuration */
     1907        9        /* If not found -> ALTRETURN   */
     1908       10        %INCLUDE IS$MACROS;
     1909     1285    1   DCL BUF CHAR(8);
     1910     1286    1   DCL OWN BIT(6) UNAL;
     1911     1287    1   DCL PIDTB(0:6) CHAR(8) STATIC INIT('!MINI','!XDEL','!TIGR',
     1912     1288    1                                 '!RUM','!PLOVER','!BOOTIME','!FIN');
     1913     1289    1   DCL LENS(0:6) SBIN STATIC INIT(4,4,4,3,6,7,3);
     1914     1290    1   DCL BOWN(0:6) BIT(6) STATIC INIT(%WHOMINI,%WHOXDEL,%WHOTIGR,%WHORUM,
     1915     1291    1                                       %WHOPLV,%WHOBTM,%WHOFIN);
     1916     1292    1   DCL I UBIN WORD;
     1917     1293    1   DCL UPPER_CASE ENTRY(2);
     1918     1294        /**/
     1919     1295    1           IF SUBSTR(BUF,1) = '!' THEN

   1295  1 000002   200003 470500                    LDP0    @BUF,,AUTO
         1 000003   040000 106500                    CMPC    fill='040'O
         1 000004   000000 200007                    ADSC9   0,,PR0                   cn=1,n=7
         1 000005   000000 000001 2                  ADSC9   0                        cn=0,n=1
         1 000006   000020 601000 1                  TNZ     s:1297

     1920     1296    1             CALL UPPER_CASE(SUBSTR(BUF,1),7);

   1296  1 000007   000001 236000 2                  LDQ     1
         1 000010   200007 756100                    STQ     I+2,,AUTO
PL6.E3A0      #005=IBANGI File=ISI$FIXSYST.:E05TSI                               TUE 07/29/97 22:50 Page:340
         1 000011   200003 236100                    LDQ     @BUF,,AUTO
         1 000012   200000 036007                    ADLQ    65536,DL
         1 000013   200006 756100                    STQ     I+1,,AUTO
         1 000014   200006 630500                    EPPR0   I+1,,AUTO
         1 000015   000020 631400 xsym               EPPR1   B_VECTNIL+16
         1 000016   000000 701000 xent               TSX1    UPPER_CASE
         1 000017   000000 011000                    NOP     0

     1921     1297    2           DO I=0 TO 6;

   1297  1 000020   200005 450100                    STZ     I,,AUTO

     1922     1298    2             IF SUBSTR(BUF,0,LENS(I)+2)=PIDTB(I) THEN GOTO BANGFOUND;

   1298  1 000021   200005 720100                    LXL0    I,,AUTO
         1 000022   000016 721010 0                  LXL1    LENS,X0
         1 000023   000002 622011                    EAX2    2,X1
         1 000024   200005 235100                    LDA     I,,AUTO
         1 000025   000003 735000                    ALS     3
         1 000026   200003 470500                    LDP0    @BUF,,AUTO
         1 000027   040005 106540                    CMPC    fill='040'O
         1 000030   000000 000012                    ADSC9   0,,PR0                   cn=0,n=*X2
         1 000031   000000 000010 0                  ADSC9   PIDTB,A                  cn=0,n=8
         1 000032   000041 600000 1                  TZE     BANGFOUND

     1923     1299                                      /* +2 is for ! before keyword and space after.  */
     1924     1300    2           END;                            /* DO I=                              */

   1300  1 000033   200005 236100                    LDQ     I,,AUTO
         1 000034   000001 036007                    ADLQ    1,DL
         1 000035   200005 756100                    STQ     I,,AUTO
         1 000036   000007 116007                    CMPQ    7,DL
         1 000037   000021 602000 1                  TNC     s:1298

     1925     1301    1           ALTRETURN;

   1301  1 000040   000000 702200 xent               TSX2  ! X66_AALT
PL6.E3A0      #005=IBANGI File=ISI$FIXSYST.:E05TSI                               TUE 07/29/97 22:50 Page:341

     1926     1302    1   BANGFOUND:
     1927     1303    1           OWN=BOWN(I);

   1303  1 000041   200005 236100       BANGFOUND    LDQ     I,,AUTO
         1 000042   000006 402007                    MPY     6,DL
         1 000043   200004 471500                    LDP1    @OWN,,AUTO
         1 000044   003100 060406                    CSL     bolr='003'O
         1 000045   000025 000006 0                  BDSC    BOWN,Q                   by=0,bit=0,n=6
         1 000046   100000 000006                    BDSC    0,,PR1                   by=0,bit=0,n=6

     1928     1304    1           RETURN;

   1304  1 000047   000000 702200 xent               TSX2  ! X66_ARET
     1929     1305    1   END IBANGI;
     1930     1306        %EOD;

PL6.E3A0      #005=IBANGI File=ISI$FIXSYST.:E05TSI                               TUE 07/29/97 22:50 Page:342
--  Include file information  --

   IS$MACROS.:E05TOU  is referenced.
      No diagnostics issued in procedure IBANGI.
PL6.E3A0      #005=IBANGI File=ISI$FIXSYST.:E05TSI                               TUE 07/29/97 22:50 Page:343

 **** Variables and constants ****

  ****  Section 000  Data  IBANGI

  ****  Scalars and arrays  ****
OctLoc.c.b A Datatyp(siz) R M Lvl/name                 OctLoc.c.b A Datatyp(siz) R M Lvl/name

    25-0-0/b BIT (6)     r     1 BOWN(0:6)                 16-0-0/w SBIN        r     1 LENS(0:6)
     0-0-0/c CHAR(8)     r     1 PIDTB(0:6)

  ****  Auto variables  ****

  ****  Scalars and arrays  ****
OctLoc.c.b A Datatyp(siz) R M Lvl/name                 OctLoc.c.b A Datatyp(siz) R M Lvl/name

     3-0-0/w PTR         r     1 @BUF                       4-0-0/w PTR         r     1 @OWN
    *0-0-0/c CHAR(8)     r     1 BUF                        5-0-0/w UBIN        r     1 I
    *0-0-0/b BIT (6)     r     1 OWN


   Procedure IBANGI requires 40 words for executable code.
   Procedure IBANGI requires 8 words of local(AUTO) storage.
PL6.E3A0      #005=IBANGI File=ISI$FIXSYST.:E05TSI                               TUE 07/29/97 22:50 Page:344
          *** CROSS REFERENCE LISTING ***
**     DENOTES     IDENTIFIER DEFINITION
<<                 IDENTIFIER'S VALUE SET
>>                 IDENTIFIER'S VALUE USED
<>                 IDENTIFIER SET AND/OR USED
--                 IDENTIFIER REFERENCED
PL6.E3A0      #005=IBANGI File=ISI$FIXSYST.:E05TSI                               TUE 07/29/97 22:50 Page:345
          MINI XREF LISTING

BANGFOUND
      1303**LABEL    1298--GOTO
BOWN
      1290**DCL      1303>>ASSIGN
BUF
      1285**DCL         6--PROC     1295>>IF       1296<>CALL     1298>>IF
I
      1292**DCL      1297<<DOINDEX  1298>>IF       1298>>IF       1303>>ASSIGN
LENS
      1289**DCL      1298>>IF
OWN
      1286**DCL         6--PROC     1303<<ASSIGN
PIDTB
      1287**DCL      1298>>IF
UPPER_CASE
      1293**DCL-ENT  1296--CALL

PL6.E3A0      #006=WRITE_PATCH File=ISI$FIXSYST.:E05TSI                          TUE 07/29/97 22:50 Page:346
     1931        1        /*T***********************************************************/
     1932        2        /*T*                                                         */
     1933        3        /*T* Copyright (c) Bull HN Information Systems Inc., 1997    */
     1934        4        /*T*                                                         */
     1935        5        /*T***********************************************************/
     1936        6        WRITE_PATCH:PROC(US_PTCH$,US_PTCH_LGTH);
     1937        7        /* Writes a patch in the patch file */
     1938        8        %INCLUDE IS$MACROS;
     1939     1283        %DISKDIR(NAME=ADIR,STCLASS="SYMREF");   /* System directory                   */
     1940     1539    1   DCL SYS_DPX UBIN WORD SYMREF;
     1941     1540    1   DCL US_PTCH$ PTR;                       /* Pointer to the user's patch        */
     1942     1541    1   DCL US_PTCH_LGTH UBIN WORD;             /* User's patch length (in bytes)     */
     1943     1542    1   DCL US_PTCH CHAR(US_PTCH_LGTH) BASED(US_PTCH$);
     1944     1543    1   DCL CP6UL(0:1023) CHAR(4) SYMREF;
     1945     1544    1   DCL 1 PTCHBF REDEF CP6UL,               /* Patch buffer                       */
     1946     1545    1         2 NXTWA UBIN WORD,                /* Rel word address of the next patch */
     1947     1546    1         2 PTCHS(0:1022) BIT(36);
     1948     1547    1   DCL RPB_FLAG BIT(1) SYMREF;
     1949     1548    1   DCL WPATSZ UBIN WORD;
     1950     1549    1   DCL BUFPTCH$ PTR;
     1951     1550    1   DCL BUFPATCH CHAR(WPATSZ) BASED(BUFPTCH$);
     1952     1551    1   DCL WPTCH$ PTR STATIC INIT(ADDR(CP6UL));
     1953     1552        %DCW_STRUCT(NAME=PTCHDCW,STCLASS="REDEF WPTCH$");
     1954     1570        %TEXTC(N#=PATERM,M#="' Can''t write patch file...Reboot required. '");
     1955     1575        %TEXTC(N#=NOSPACE,M#="' Not enough disk patch space. '");
     1956     1580    1   DCL TYPEC ENTRY(1);
     1957     1581    1   DCL GIVEUP ENTRY;
     1958     1582    1   DCL MINIQC_PL6 ENTRY(5) ALTRET;
     1959     1583        /**/
     1960     1584    1           IF ADIR.PATCH.SIZE>%PATCH_GRS THEN RETURN; /* Disk patch space exceeded */
     1961     1585    1           IF PTCHBF.NXTWA=0 THEN PTCHBF.NXTWA=1; /* Start a new buffer          */
     1962     1586    1             ELSE;
     1963     1587    1           IF RPB_FLAG THEN WPATSZ=%SHORTPATCH;
     1964     1588    1             ELSE WPATSZ=%LONGPATCH;
     1965     1589    1           BUFPTCH$=PINCRW(ADDR(CP6UL),PTCHBF.NXTWA);
     1966     1590    1           BUFPATCH=US_PTCH;               /* Move patch in buffer               */
     1967     1591    1           PTCHBF.NXTWA=PTCHBF.NXTWA+WPATSZ/4;
PL6.E3A0      #006=WRITE_PATCH File=ISI$FIXSYST.:E05TSI                          TUE 07/29/97 22:50 Page:347
     1968     1592        /* See if we have room for another patch */
     1969     1593    1           IF PTCHBF.NXTWA+WPATSZ/4<=1024 THEN RETURN; /* Yes                    */
     1970     1594    1             ELSE;                         /* No, write then clear buffer        */
     1971     1595    2           IF ADIR.PATCH.DA~=0 THEN DO;
     1972     1596        /* Starting addr#0, can write */
     1973     1597    2                 PTCHDCW.TALLY=1024;
     1974     1598    2                 CALL MINIQC_PL6(SYS_DPX,ADDR(PTCHDCW),,%FCNWDB,ADIR.PATCH.DA+ADIR.
              1598                          PATCH.SIZE) ALTRET(ER_WPATCH1);
     1975     1599    2                 ADIR.PATCH.SIZE=ADIR.PATCH.SIZE+1; /* Bump size                 */
     1976     1600    2                 IF ADIR.PATCH.SIZE>%PATCH_GRS THEN
     1977     1601    2                   CALL TYPEC(NOSPACE);
     1978     1602    2               END;                        /* THEN                               */
     1979     1603    1             ELSE;
     1980     1604    1           PTCHBF='0'B;                    /* Clear buffer                       */
     1981     1605    1           RETURN;
     1982     1606    1   ER_WPATCH:ENTRY;
     1983     1607    1   ER_WPATCH1:
     1984     1608    1           CALL TYPEC(PATERM);
     1985     1609    1           CALL GIVEUP;
     1986     1610    1   END WRITE_PATCH;
     1987     1611        %EOD;

PL6.E3A0      #006=WRITE_PATCH File=ISI$FIXSYST.:E05TSI                          TUE 07/29/97 22:50 Page:348
--  Include file information  --

   IS$MACROS.:E05TOU  is referenced.
      No diagnostics issued in procedure WRITE_PATCH.

   Procedure WRITE_PATCH requires 87 words for executable code.
   Procedure WRITE_PATCH requires 16 words of local(AUTO) storage.

PL6.E3A0      #006=WRITE_PATCH File=ISI$FIXSYST.:E05TSI                          TUE 07/29/97 22:50 Page:349

 Object Unit name= WRITE_PATCH                                File name= ISI$FIXSYST.:E05TOU
 UTS= JUL 29 '97 22:50:57.44 TUE                              Compiler= PL-6/E31         Sev=      00
 SharedLib= :SHARED_SYSTEM                                    Alt SharedLib=


    ****  Control sections  ****

 Sect   Type Bound  Init  Size OctSiz  Section name(segment info)
    0   Data  even  none    22     26  WRITE_PATCH
    1   Proc  even  none    87    127  WRITE_PATCH
    2  RoData even  none     5      5  WRITE_PATCH

    ****  Entry defs  ****

                              Check   Calling
                             calling  sequence
  Sect OctLoc Primary Altret sequence   type   Parms  Name
     1      0   yes            yes      Std        2  WRITE_PATCH
     1    115                  yes      Std        0  ER_WPATCH

  ****  Data defs  ****

 Sect OctLoc  Name                           Sect OctLoc  Name
    0      1  PATERM                             0     15  NOSPACE

  ****  Entry refs  ****

         Check        Calling
        calling       sequence
Altret sequence SRef   type   Args  Name
 yes     yes           Std       5 MINIQC_PL6
         yes           Std       1 TYPEC
         yes           Std       0 GIVEUP
                       nStd      0 X66_AUTO_2
                       nStd      0 X66_ARET
                       Std       0 B_CONSPOOL_D
PL6.E3A0      #006=WRITE_PATCH File=ISI$FIXSYST.:E05TSI                          TUE 07/29/97 22:50 Page:350

  ****  Data refs  ****

  Flags:  r = read only, s = secondary
Flgs Name                             Flgs Name                             Flgs Name
     ADIR                                  SYS_DPX                               CP6UL
     RPB_FLAG                              B_VECTNIL

  ****  Segment refs  ****

  Flags:  r = read only, s = secondary
Flgs Name                             Flgs Name                             Flgs Name
     ISSID
PL6.E3A0      #006=WRITE_PATCH File=ISI$FIXSYST.:E05TSI                          TUE 07/29/97 22:50 Page:351


     1931        1        /*T***********************************************************/
     1932        2        /*T*                                                         */
     1933        3        /*T* Copyright (c) Bull HN Information Systems Inc., 1997    */
     1934        4        /*T*                                                         */
     1935        5        /*T***********************************************************/
     1936        6        WRITE_PATCH:PROC(US_PTCH$,US_PTCH_LGTH);

      6  1 000000   000000 700200 xent  WRITE_PATCH  TSX0  ! X66_AUTO_2
         1 000001   000020 000002                    ZERO    16,2

     1937        7        /* Writes a patch in the patch file */
     1938        8        %INCLUDE IS$MACROS;
     1939     1283        %DISKDIR(NAME=ADIR,STCLASS="SYMREF");   /* System directory                   */
     1940     1539    1   DCL SYS_DPX UBIN WORD SYMREF;
     1941     1540    1   DCL US_PTCH$ PTR;                       /* Pointer to the user's patch        */
     1942     1541    1   DCL US_PTCH_LGTH UBIN WORD;             /* User's patch length (in bytes)     */
     1943     1542    1   DCL US_PTCH CHAR(US_PTCH_LGTH) BASED(US_PTCH$);
     1944     1543    1   DCL CP6UL(0:1023) CHAR(4) SYMREF;
     1945     1544    1   DCL 1 PTCHBF REDEF CP6UL,               /* Patch buffer                       */
     1946     1545    1         2 NXTWA UBIN WORD,                /* Rel word address of the next patch */
     1947     1546    1         2 PTCHS(0:1022) BIT(36);
     1948     1547    1   DCL RPB_FLAG BIT(1) SYMREF;
     1949     1548    1   DCL WPATSZ UBIN WORD;
     1950     1549    1   DCL BUFPTCH$ PTR;
     1951     1550    1   DCL BUFPATCH CHAR(WPATSZ) BASED(BUFPTCH$);
     1952     1551    1   DCL WPTCH$ PTR STATIC INIT(ADDR(CP6UL));
     1953     1552        %DCW_STRUCT(NAME=PTCHDCW,STCLASS="REDEF WPTCH$");
     1954     1570        %TEXTC(N#=PATERM,M#="' Can''t write patch file...Reboot required. '");
     1955     1575        %TEXTC(N#=NOSPACE,M#="' Not enough disk patch space. '");
     1956     1580    1   DCL TYPEC ENTRY(1);
     1957     1581    1   DCL GIVEUP ENTRY;
     1958     1582    1   DCL MINIQC_PL6 ENTRY(5) ALTRET;
     1959     1583        /**/
     1960     1584    1           IF ADIR.PATCH.SIZE>%PATCH_GRS THEN RETURN; /* Disk patch space exceeded */

   1584  1 000002   000176 235000 xsym               LDA     ADIR+126
PL6.E3A0      #006=WRITE_PATCH File=ISI$FIXSYST.:E05TSI                          TUE 07/29/97 22:50 Page:352
         1 000003   002261 115007                    CMPA    1201,DL
         1 000004   000006 602000 1                  TNC     s:1585

   1584  1 000005   000000 702200 xent               TSX2  ! X66_ARET

     1961     1585    1           IF PTCHBF.NXTWA=0 THEN PTCHBF.NXTWA=1; /* Start a new buffer          */

   1585  1 000006   000000 236000 xsym               LDQ     CP6UL
         1 000007   000012 601000 1                  TNZ     s:1587

   1585  1 000010   000001 235007                    LDA     1,DL
         1 000011   000000 755000 xsym               STA     CP6UL

     1962     1586    1             ELSE;
     1963     1587    1           IF RPB_FLAG THEN WPATSZ=%SHORTPATCH;

   1587  1 000012   000000 234000 xsym               SZN     RPB_FLAG
         1 000013   000017 605000 1                  TPL     s:1588

   1587  1 000014   000120 235007                    LDA     80,DL
         1 000015   200005 755100                    STA     WPATSZ,,AUTO
         1 000016   000021 710000 1                  TRA     s:1589

     1964     1588    1             ELSE WPATSZ=%LONGPATCH;

   1588  1 000017   000310 235007                    LDA     200,DL
         1 000020   200005 755100                    STA     WPATSZ,,AUTO

     1965     1589    1           BUFPTCH$=PINCRW(ADDR(CP6UL),PTCHBF.NXTWA);

   1589  1 000021   000000 720000 xsym               LXL0    CP6UL
         1 000022   000000 630410 xsym               EPPR0   CP6UL,X0
         1 000023   200006 450500                    STP0    BUFPTCH$,,AUTO

     1966     1590    1           BUFPATCH=US_PTCH;               /* Move patch in buffer               */

   1590  1 000024   200003 471500                    LDP1    @US_PTCH$,,AUTO
PL6.E3A0      #006=WRITE_PATCH File=ISI$FIXSYST.:E05TSI                          TUE 07/29/97 22:50 Page:353
         1 000025   100000 473500                    LDP3    0,,PR1
         1 000026   200004 474500                    LDP4    @US_PTCH_LGTH,,AUTO
         1 000027   400000 721100                    LXL1    0,,PR4
         1 000030   000000 622005                    EAX2    0,AL
         1 000031   040140 100540                    MLR     fill='040'O
         1 000032   300000 000011                    ADSC9   0,,PR3                   cn=0,n=*X1
         1 000033   000000 000012                    ADSC9   0,,PR0                   cn=0,n=*X2

     1967     1591    1           PTCHBF.NXTWA=PTCHBF.NXTWA+WPATSZ/4;

   1591  1 000034   200005 236100                    LDQ     WPATSZ,,AUTO
         1 000035   000002 772000                    QRL     2
         1 000036   000000 036000 xsym               ADLQ    CP6UL
         1 000037   000000 756000 xsym               STQ     CP6UL

     1968     1592        /* See if we have room for another patch */
     1969     1593    1           IF PTCHBF.NXTWA+WPATSZ/4<=1024 THEN RETURN; /* Yes                    */

   1593  1 000040   200005 236100                    LDQ     WPATSZ,,AUTO
         1 000041   000002 772000                    QRL     2
         1 000042   000000 036000 xsym               ADLQ    CP6UL
         1 000043   002001 116007                    CMPQ    1025,DL
         1 000044   000046 603000 1                  TRC     s:1595

   1593  1 000045   000000 702200 xent               TSX2  ! X66_ARET

     1970     1594    1             ELSE;                         /* No, write then clear buffer        */
     1971     1595    2           IF ADIR.PATCH.DA~=0 THEN DO;

   1595  1 000046   000175 235000 xsym               LDA     ADIR+125
         1 000047   000110 600000 1                  TZE     s:1604

     1972     1596        /* Starting addr#0, can write */
     1973     1597    2                 PTCHDCW.TALLY=1024;

   1597  1 000050   002000 236007                    LDQ     1024,DL
         1 000051   000000 752003 0                  STCQ    WPTCH$,'03'O
PL6.E3A0      #006=WRITE_PATCH File=ISI$FIXSYST.:E05TSI                          TUE 07/29/97 22:50 Page:354

     1974     1598    2                 CALL MINIQC_PL6(SYS_DPX,ADDR(PTCHDCW),,%FCNWDB,ADIR.PATCH.DA+ADIR.
              1598                          PATCH.SIZE) ALTRET(ER_WPATCH1);

   1598  1 000052   000175 236000 xsym               LDQ     ADIR+125
         1 000053   000176 036000 xsym               ADLQ    ADIR+126
         1 000054   200011 756100                    STQ     BUFPTCH$+3,,AUTO
         1 000055   000000 236000 2                  LDQ     0
         1 000056   200010 756100                    STQ     BUFPTCH$+2,,AUTO
         1 000057   200011 235100                    LDA     BUFPTCH$+3,,AUTO
         1 000060   200012 755100                    STA     BUFPTCH$+4,,AUTO
         1 000061   200012 633500                    EPPR3   BUFPTCH$+4,,AUTO
         1 000062   200017 453500                    STP3    BUFPTCH$+9,,AUTO
         1 000063   000001 236000 2                  LDQ     1
         1 000064   200016 756100                    STQ     BUFPTCH$+8,,AUTO
         1 000065   000001 236000 xsym               LDQ     B_VECTNIL+1
         1 000066   200015 756100                    STQ     BUFPTCH$+7,,AUTO
         1 000067   200010 635500                    EPPR5   BUFPTCH$+2,,AUTO
         1 000070   200014 455500                    STP5    BUFPTCH$+6,,AUTO
         1 000071   000002 236000 2                  LDQ     2
         1 000072   200013 756100                    STQ     BUFPTCH$+5,,AUTO
         1 000073   200013 630500                    EPPR0   BUFPTCH$+5,,AUTO
         1 000074   000023 631400 xsym               EPPR1   B_VECTNIL+19
         1 000075   000000 701000 xent               TSX1    MINIQC_PL6
         1 000076   000117 702000 1                  TSX2    ER_WPATCH1

     1975     1599    2                 ADIR.PATCH.SIZE=ADIR.PATCH.SIZE+1; /* Bump size                 */

   1599  1 000077   000176 235000 xsym               LDA     ADIR+126
         1 000100   000001 035007                    ADLA    1,DL
         1 000101   000176 755000 xsym               STA     ADIR+126

     1976     1600    2                 IF ADIR.PATCH.SIZE>%PATCH_GRS THEN

   1600  1 000102   002261 115007                    CMPA    1201,DL
         1 000103   000110 602000 1                  TNC     s:1604

PL6.E3A0      #006=WRITE_PATCH File=ISI$FIXSYST.:E05TSI                          TUE 07/29/97 22:50 Page:355
     1977     1601    2                   CALL TYPEC(NOSPACE);

   1601  1 000104   000003 630400 2                  EPPR0   3
         1 000105   000017 631400 xsym               EPPR1   B_VECTNIL+15
         1 000106   000000 701000 xent               TSX1    TYPEC
         1 000107   000000 011000                    NOP     0

     1978     1602    2               END;                        /* THEN                               */

     1979     1603    1             ELSE;
     1980     1604    1           PTCHBF='0'B;                    /* Clear buffer                       */

   1604  1 000110   010000 220003                    LDX0    4096,DU
         1 000111   000040 100400                    MLR     fill='000'O
         1 000112   000002 000001 xsym               ADSC9   B_VECTNIL+2              cn=0,n=1
         1 000113   000000 000010 xsym               ADSC9   CP6UL                    cn=0,n=*X0

     1981     1605    1           RETURN;

   1605  1 000114   000000 702200 xent               TSX2  ! X66_ARET

     1982     1606    1   ER_WPATCH:ENTRY;

   1606  1 000115   000000 700200 xent  ER_WPATCH    TSX0  ! X66_AUTO_2
         1 000116   000020 000002                    ZERO    16,2

     1983     1607    1   ER_WPATCH1:
     1984     1608    1           CALL TYPEC(PATERM);

   1608  1 000117   000004 630400 2     ER_WPATCH1   EPPR0   4
         1 000120   000017 631400 xsym               EPPR1   B_VECTNIL+15
         1 000121   000000 701000 xent               TSX1    TYPEC
         1 000122   000000 011000                    NOP     0

     1985     1609    1           CALL GIVEUP;

   1609  1 000123   000002 631400 xsym               EPPR1   B_VECTNIL+2
PL6.E3A0      #006=WRITE_PATCH File=ISI$FIXSYST.:E05TSI                          TUE 07/29/97 22:50 Page:356
         1 000124   000000 701000 xent               TSX1    GIVEUP
         1 000125   000000 011000                    NOP     0

     1986     1610    1   END WRITE_PATCH;

   1610  1 000126   000000 702200 xent               TSX2  ! X66_ARET
     1987     1611        %EOD;

PL6.E3A0      #006=WRITE_PATCH File=ISI$FIXSYST.:E05TSI                          TUE 07/29/97 22:50 Page:357
--  Include file information  --

   IS$MACROS.:E05TOU  is referenced.
      No diagnostics issued in procedure WRITE_PATCH.
PL6.E3A0      #006=WRITE_PATCH File=ISI$FIXSYST.:E05TSI                          TUE 07/29/97 22:50 Page:358

 **** Variables and constants ****

  ****  Section 000  Data  WRITE_PATCH

  ****  Scalars and arrays  ****
OctLoc.c.b A Datatyp(siz) R M Lvl/name                 OctLoc.c.b A Datatyp(siz) R M Lvl/name

    15-0-0/w STRC(306)   r     1 NOSPACE                    1-0-0/w STRC(423)   r     1 PATERM
     0-0-0/w STRC        r     1 PTCHDCW                    0-0-0/w PTR         r     1 WPTCH$

  ****  Auto variables  ****

  ****  Scalars and arrays  ****
OctLoc.c.b A Datatyp(siz) R M Lvl/name                 OctLoc.c.b A Datatyp(siz) R M Lvl/name

     3-0-0/w PTR         r     1 @US_PTCH$                  4-0-0/w PTR         r     1 @US_PTCH_LGTH
     6-0-0/w PTR         r     1 BUFPTCH$                  *0-0-0/w PTR         r     1 US_PTCH$
    *0-0-0/w UBIN        r     1 US_PTCH_LGTH               5-0-0/w UBIN        r     1 WPATSZ

  ****  SYMREF variables  ****

  ****  Scalars and arrays  ****
OctLoc.c.b A Datatyp(siz) R M Lvl/name                 OctLoc.c.b A Datatyp(siz) R M Lvl/name

     0-0-0/w STRC(8640)  r     1 ADIR                       0-0-0/w CHAR(4)     r     1 CP6UL(0:1023)
     0-0-0/w STRC(36864) r     1 PTCHBF                     0-0-0/b BIT         r     1 RPB_FLAG
     0-0-0/w UBIN        r     1 SYS_DPX

  ****  BASED and DCB variables  ****

  ****  Scalars and arrays  ****
OctLoc.c.b A Datatyp(siz) R M Lvl/name                 OctLoc.c.b A Datatyp(siz) R M Lvl/name

     0-0-0/c ACHR        r     1 BUFPATCH                   0-0-0/c ACHR        r     1 US_PTCH

PL6.E3A0      #006=WRITE_PATCH File=ISI$FIXSYST.:E05TSI                          TUE 07/29/97 22:50 Page:359

   Procedure WRITE_PATCH requires 87 words for executable code.
   Procedure WRITE_PATCH requires 16 words of local(AUTO) storage.
PL6.E3A0      #006=WRITE_PATCH File=ISI$FIXSYST.:E05TSI                          TUE 07/29/97 22:50 Page:360
          *** CROSS REFERENCE LISTING ***
**     DENOTES     IDENTIFIER DEFINITION
<<                 IDENTIFIER'S VALUE SET
>>                 IDENTIFIER'S VALUE USED
<>                 IDENTIFIER SET AND/OR USED
--                 IDENTIFIER REFERENCED
PL6.E3A0      #006=WRITE_PATCH File=ISI$FIXSYST.:E05TSI                          TUE 07/29/97 22:50 Page:361
          MINI XREF LISTING

ADIR.FW.ADIR
      1536**DCL      1537--REDEF
ADIR.MONID.M
      1496**DCL      1499--REDEF
ADIR.PATCH.DA
      1482**DCL      1595>>IF       1598>>CALL
ADIR.PATCH.SIZE
      1483**DCL      1584>>IF       1598>>CALL     1599<<ASSIGN   1599>>ASSIGN   1600>>IF
BUFPATCH
      1550**DCL      1590<<ASSIGN
BUFPTCH$
      1549**DCL      1550--IMP-PTR  1589<<ASSIGN   1590>>ASSIGN
CP6UL
      1543**DCL      1544--REDEF    1551--DCLINIT  1589--ASSIGN
ER_WPATCH1
      1608**LABEL    1598--CALLALT
GIVEUP
      1581**DCL-ENT  1609--CALL
MINIQC_PL6
      1582**DCL-ENT  1598--CALL
NOSPACE
      1576**DCL      1601<>CALL
PATERM
      1571**DCL      1608<>CALL
PTCHBF
      1544**DCL      1604<<ASSIGN
PTCHBF.NXTWA
      1545**DCL      1585>>IF       1585<<ASSIGN   1589>>ASSIGN   1591<<ASSIGN   1591>>ASSIGN   1593>>IF
PTCHDCW
      1562**DCL      1598--CALL
PTCHDCW.TALLY
      1567**DCL      1597<<ASSIGN
PL6.E3A0      #006=WRITE_PATCH File=ISI$FIXSYST.:E05TSI                          TUE 07/29/97 22:50 Page:362
RPB_FLAG
      1547**DCL      1587>>IF
SYS_DPX
      1539**DCL      1598<>CALL
TYPEC
      1580**DCL-ENT  1601--CALL     1608--CALL
US_PTCH
      1542**DCL      1590>>ASSIGN
US_PTCH$
      1540**DCL         6--PROC     1542--IMP-PTR  1590>>ASSIGN
US_PTCH_LGTH
      1541**DCL         6--PROC     1542--IMP-SIZ  1590>>ASSIGN
WPATSZ
      1548**DCL      1550--IMP-SIZ  1587<<ASSIGN   1588<<ASSIGN   1590>>ASSIGN   1591>>ASSIGN   1593>>IF
WPTCH$
      1551**DCL      1562--REDEF

PL6.E3A0      #007=READ_PATCH File=ISI$FIXSYST.:E05TSI                           TUE 07/29/97 22:51 Page:363
     1988        1        /*T***********************************************************/
     1989        2        /*T*                                                         */
     1990        3        /*T* Copyright (c) Bull HN Information Systems Inc., 1997    */
     1991        4        /*T*                                                         */
     1992        5        /*T***********************************************************/
     1993        6        READ_PATCH:PROC(WHO,PTCH$,PTCH_LGTH) ALTRET;
     1994        7        /* This program reads patches from a patch device */
     1995        8        %INCLUDE IS$MACROS;
     1996     1283    1   DCL WHO BIT(6) UNAL;                    /* identifies the caller              */
     1997     1284    1   DCL UWHO REDEF WHO UBIN(6) UNAL;
     1998     1285    1   DCL MTWISH BIT(6) SYMREF;
     1999     1286    1   DCL MTOWN BIT(6) STATIC INIT('0'B);
     2000     1287    1   DCL UMTOWN REDEF MTOWN UBIN(6) UNAL;    /* Owner of tape patches              */
     2001     1288    1   DCL MT2WISH BIT(6) SYMREF;
     2002     1289    1   DCL MT2OWN BIT(6) STATIC INIT('0'B);
     2003     1290    1   DCL UMT2OWN REDEF MT2OWN UBIN(6) UNAL;
     2004     1291    1   DCL CRWISH BIT(6) SYMREF;
     2005     1292    1   DCL CROWN BIT(6) STATIC INIT('0'B);
     2006     1293    1   DCL UCROWN REDEF CROWN UBIN(6) UNAL;    /* Owner of card patches              */
     2007     1294    1   DCL OCWISH BIT(6) SYMREF;
     2008     1295    1   DCL OCOWN BIT(6) STATIC INIT('0'B);
     2009     1296    1   DCL UOCOWN REDEF OCOWN UBIN(6) UNAL;    /* Owner of cons patches              */
     2010     1297    1   DCL PO_INDX UBIN WORD SYMREF;
     2011     1298    1   DCL PAT2_INDX UBIN WORD SYMREF;
     2012     1299    1   DCL PTCH$ PTR;
     2013     1300    1   DCL PTCH_LGTH UBIN WORD;
     2014     1301    1   DCL PTCH CHAR(80) BASED(PTCH$);
     2015     1302    1   DCL POBUF CHAR(80) SYMREF;
     2016     1303        /**/
     2017     1304    1   DCL IBANGI ENTRY(2) ALTRET;
     2018     1305    1   DCL MINIQ_PL6 ENTRY(5) ALTRET;
     2019     1306    1   DCL DORPB ENTRY ALTRET;
     2020     1307    1   DCL ESADERR REMEMBER SYMREF;
     2021     1308        /**/
     2022     1309    1   RPD:
     2023     1310        /* Try tape patches */
     2024     1311    2           IF(WHO&MTWISH)~='0'B THEN DO;   /* The caller wants tape patches      */
PL6.E3A0      #007=READ_PATCH File=ISI$FIXSYST.:E05TSI                           TUE 07/29/97 22:51 Page:364
     2025     1312    3                 IF WHO=MTOWN THEN DO; /* and he is the owner of tape patches    */
     2026     1313    3   RPDT:                                   /* Read tape patch                    */
     2027     1314    3                       CALL MINIQ_PL6(PO_INDX,PTCH$,PTCH_LGTH,%FCNRT9) ALTRET(ER_RPATCH
              1314                                );
     2028     1315    4                       CALL IBANGI(PTCH,MTOWN) WHENRETURN DO;
     2029     1316    4                             GOTO RPD;
     2030     1317    4                           END;            /* WHENRETURN                         */
     2031     1318    3                       RETURN;
     2032     1319    3                     END;                  /* THEN                               */
     2033     1320    2                   ELSE;
     2034     1321    2                 IF UWHO<UMTOWN THEN;
              1321                          /* Tape patch owner is a later one, try card patches */
     2035     1322    3                   ELSE DO;                /* Skip tape                          */
     2036     1323    3                       CALL MINIQ_PL6(PO_INDX,ADDR(POBUF),80,%FCNRT9);
     2037     1324    4                       CALL IBANGI(POBUF,MTOWN) WHENRETURN DO;
     2038     1325    4                             POBUF='R ME';
     2039     1326    4                           END;            /* WHENRETURN                         */
     2040     1327    3                       GOTO RPD;
     2041     1328    3                     END;                  /* ELSE*/
     2042     1329    2               END;                        /* THEN                               */
     2043     1330    1             ELSE;
     2044     1331    1   RPD0:
     2045     1332        /* Try tape2 patches */
     2046     1333    2           IF(WHO&MT2WISH)~='0'B THEN DO;  /* The caller wants tape2 patches     */
     2047     1334    3                 IF WHO=MT2OWN THEN DO; /* and he is the owner of tape2 patches  */
     2048     1335    3   RPDT2:                                  /* Read tape2 patch                   */
     2049     1336    3                       CALL MINIQ_PL6(PAT2_INDX,PTCH$,PTCH_LGTH,%FCNRT9) ALTRET(
              1336                                ER_RPATCH);
     2050     1337    4                       CALL IBANGI(PTCH,MT2OWN) WHENRETURN DO;
     2051     1338    4                             GOTO RPD0;
     2052     1339    4                           END;            /* WHENRETURN                         */
     2053     1340    3                       RETURN;
     2054     1341    3                     END;                  /* THEN                               */
     2055     1342    2                   ELSE;
     2056     1343    2                 IF UWHO<UMT2OWN THEN;
              1343                          /* Tape2 patch owner is a later one, try card patches */
     2057     1344    3                   ELSE DO;                /* Skip tape                          */
PL6.E3A0      #007=READ_PATCH File=ISI$FIXSYST.:E05TSI                           TUE 07/29/97 22:51 Page:365
     2058     1345    3                       CALL MINIQ_PL6(PAT2_INDX,ADDR(POBUF),80,%FCNRT9);
     2059     1346    4                       CALL IBANGI(POBUF,MT2OWN) WHENRETURN DO;
     2060     1347    4                             POBUF='R ME';
     2061     1348    4                           END;            /* WHENRETURN                         */
     2062     1349    3                       GOTO RPD0;
     2063     1350    3                     END;                  /* ELSE*/
     2064     1351    2               END;                        /* THEN                               */
     2065     1352    1             ELSE;
     2066     1353    1   RPD1:
     2067     1354        /* Try card patches */
     2068     1355    2           IF(WHO&CRWISH)~='0'B THEN DO;   /* The caller wants card patches      */
     2069     1356    3                 IF WHO=CROWN THEN DO; /* and he is the owner of card patches    */
     2070     1357    3   RPDC:                                   /* Read card patch                    */
     2071     1358    3                       CALL MINIQ_PL6(%FRSTCR,PTCH$,PTCH_LGTH,%FCNRCRA) ALTRET(
              1358                                ER_RPATCH);
     2072     1359    4                       CALL IBANGI(PTCH,CROWN) WHENRETURN DO;
     2073     1360    4                             GOTO RPD;
     2074     1361    4                           END;            /* WHENRETURN                         */
     2075     1362    3                       RETURN;
     2076     1363    3                     END;                  /* THEN                               */
     2077     1364    2                   ELSE;
     2078     1365    2                 IF UWHO<UCROWN THEN;
              1365                          /* Card patch owner is a later one, try cons patches */
     2079     1366    3                   ELSE DO;                /* Skip card                          */
     2080     1367    3                       CALL MINIQ_PL6(%FRSTCR,ADDR(POBUF),80,%FCNRCRA);
     2081     1368    4                       CALL IBANGI(POBUF,CROWN) WHENRETURN DO;
     2082     1369    4                             POBUF='R ME';
     2083     1370    4                           END;            /* WHENRETURN                         */
     2084     1371    3                       GOTO RPD1;
     2085     1372    3                     END;                  /* ELSE*/
     2086     1373    2               END;                        /* THEN                               */
     2087     1374    1             ELSE;
     2088     1375    1   RPD2:
     2089     1376        /* Try console patches */
     2090     1377    2           IF(WHO&OCWISH)~='0'B THEN DO;   /* The caller wants cons patches      */
     2091     1378    3                 IF WHO=OCOWN THEN DO; /* and he is the owner of cons patches    */
     2092     1379    3   RPDO:                                   /* Read console patch                 */
PL6.E3A0      #007=READ_PATCH File=ISI$FIXSYST.:E05TSI                           TUE 07/29/97 22:51 Page:366
     2093     1380    3                       CALL MINIQ_PL6(0,PTCH$,PTCH_LGTH,%FCNRCA) ALTRET(ER_RPATCH);
     2094     1381    4                       CALL IBANGI(PTCH,OCOWN) WHENRETURN DO;
     2095     1382    4                             GOTO RPD;
     2096     1383    4                           END;            /* WHENRETURN                         */
     2097     1384    3                       RETURN;
     2098     1385    3                     END;                  /* THEN                               */
     2099     1386    2                   ELSE;
     2100     1387    2                 IF UWHO>UOCOWN THEN GOTO RPDO;
     2101     1388    2                   ELSE;
     2102     1389    2               END;                        /* THEN                               */
     2103     1390    1             ELSE;
     2104     1391    1   RPD3:
     2105     1392    2           IF WHO=%WHOTIGR THEN CALL DORPB WHENALTRETURN DO;
     2106     1393    2                   UNWIND TO ESADERR;
     2107     1394    2                 END;                      /* WHENALTRET                         */
     2108     1395    1             ELSE;
     2109     1396        /* Give him an !EOD */
     2110     1397    1           PTCH='!EOD';
     2111     1398    1           RETURN;
     2112     1399    1   ER_RPATCH:
     2113     1400    1           ALTRETURN;
     2114     1401    1   END READ_PATCH;
     2115     1402        %EOD;

PL6.E3A0      #007=READ_PATCH File=ISI$FIXSYST.:E05TSI                           TUE 07/29/97 22:51 Page:367
--  Include file information  --

   IS$MACROS.:E05TOU  is referenced.
      No diagnostics issued in procedure READ_PATCH.

   Procedure READ_PATCH requires 253 words for executable code.
   Procedure READ_PATCH requires 12 words of local(AUTO) storage.

PL6.E3A0      #007=READ_PATCH File=ISI$FIXSYST.:E05TSI                           TUE 07/29/97 22:51 Page:368

 Object Unit name= READ_PATCH                                 File name= ISI$FIXSYST.:E05TOU
 UTS= JUL 29 '97 22:51:03.32 TUE                              Compiler= PL-6/E31         Sev=      00
 SharedLib= :SHARED_SYSTEM                                    Alt SharedLib=


    ****  Control sections  ****

 Sect   Type Bound  Init  Size OctSiz  Section name(segment info)
    0   Data  even  none     4      4  READ_PATCH
    1  RoData even  UTS      2      2  READ_PATCH
    2   Proc  even  none   253    375  READ_PATCH
    3  RoData even  none    22     26  READ_PATCH

    ****  Entry defs  ****

                              Check   Calling
                             calling  sequence
  Sect OctLoc Primary Altret sequence   type   Parms  Name
     2      0   yes    yes     yes      Std        3  READ_PATCH

  ****  Entry refs  ****

         Check        Calling
        calling       sequence
Altret sequence SRef   type   Args  Name
 yes     yes           Std       5 MINIQ_PL6
 yes     yes           Std       2 IBANGI
 yes     yes           Std       0 DORPB
                       nStd      0 X66_AUTO_3
                       Std       0 B_CONSPOOL_D
                       nStd      0 X66_ARET
                       nStd      0 X66_AUNWIND
                       nStd      0 X66_AALT
PL6.E3A0      #007=READ_PATCH File=ISI$FIXSYST.:E05TSI                           TUE 07/29/97 22:51 Page:369

  ****  Data refs  ****

  Flags:  r = read only, s = secondary
Flgs Name                             Flgs Name                             Flgs Name
     MTWISH                                MT2WISH                               CRWISH
     OCWISH                                PO_INDX                               PAT2_INDX
     POBUF                                 ESADERR                               B_VECTNIL

  ****  Segment refs  ****

  Flags:  r = read only, s = secondary
Flgs Name                             Flgs Name                             Flgs Name
     ISSID
PL6.E3A0      #007=READ_PATCH File=ISI$FIXSYST.:E05TSI                           TUE 07/29/97 22:51 Page:370


     1988        1        /*T***********************************************************/
     1989        2        /*T*                                                         */
     1990        3        /*T* Copyright (c) Bull HN Information Systems Inc., 1997    */
     1991        4        /*T*                                                         */
     1992        5        /*T***********************************************************/
     1993        6        READ_PATCH:PROC(WHO,PTCH$,PTCH_LGTH) ALTRET;

      6  2 000000   000000 700200 xent  READ_PATCH   TSX0  ! X66_AUTO_3
         2 000001   000014 000003                    ZERO    12,3

     1994        7        /* This program reads patches from a patch device */
     1995        8        %INCLUDE IS$MACROS;
     1996     1283    1   DCL WHO BIT(6) UNAL;                    /* identifies the caller              */
     1997     1284    1   DCL UWHO REDEF WHO UBIN(6) UNAL;
     1998     1285    1   DCL MTWISH BIT(6) SYMREF;
     1999     1286    1   DCL MTOWN BIT(6) STATIC INIT('0'B);
     2000     1287    1   DCL UMTOWN REDEF MTOWN UBIN(6) UNAL;    /* Owner of tape patches              */
     2001     1288    1   DCL MT2WISH BIT(6) SYMREF;
     2002     1289    1   DCL MT2OWN BIT(6) STATIC INIT('0'B);
     2003     1290    1   DCL UMT2OWN REDEF MT2OWN UBIN(6) UNAL;
     2004     1291    1   DCL CRWISH BIT(6) SYMREF;
     2005     1292    1   DCL CROWN BIT(6) STATIC INIT('0'B);
     2006     1293    1   DCL UCROWN REDEF CROWN UBIN(6) UNAL;    /* Owner of card patches              */
     2007     1294    1   DCL OCWISH BIT(6) SYMREF;
     2008     1295    1   DCL OCOWN BIT(6) STATIC INIT('0'B);
     2009     1296    1   DCL UOCOWN REDEF OCOWN UBIN(6) UNAL;    /* Owner of cons patches              */
     2010     1297    1   DCL PO_INDX UBIN WORD SYMREF;
     2011     1298    1   DCL PAT2_INDX UBIN WORD SYMREF;
     2012     1299    1   DCL PTCH$ PTR;
     2013     1300    1   DCL PTCH_LGTH UBIN WORD;
     2014     1301    1   DCL PTCH CHAR(80) BASED(PTCH$);
     2015     1302    1   DCL POBUF CHAR(80) SYMREF;
     2016     1303        /**/
     2017     1304    1   DCL IBANGI ENTRY(2) ALTRET;
     2018     1305    1   DCL MINIQ_PL6 ENTRY(5) ALTRET;
     2019     1306    1   DCL DORPB ENTRY ALTRET;
PL6.E3A0      #007=READ_PATCH File=ISI$FIXSYST.:E05TSI                           TUE 07/29/97 22:51 Page:371
     2020     1307    1   DCL ESADERR REMEMBER SYMREF;
     2021     1308        /**/
     2022     1309    1   RPD:
     2023     1310        /* Try tape patches */
     2024     1311    2           IF(WHO&MTWISH)~='0'B THEN DO;   /* The caller wants tape patches      */

   1311  2 000002   000000 236000 xsym  RPD          LDQ     MTWISH
         2 000003   770000 376003                    ANQ     -4096,DU
         2 000004   200006 756100                    STQ     @PTCH_LGTH+1,,AUTO
         2 000005   200003 470500                    LDP0    @WHO,,AUTO
         2 000006   003100 060500                    CSL     bolr='003'O
         2 000007   000000 000006                    BDSC    0,,PR0                   by=0,bit=0,n=6
         2 000010   200007 000044                    BDSC    @PTCH_LGTH+2,,AUTO       by=0,bit=0,n=36
         2 000011   200007 236100                    LDQ     @PTCH_LGTH+2,,AUTO
         2 000012   200006 376100                    ANQ     @PTCH_LGTH+1,,AUTO
         2 000013   000102 600000 2                  TZE     RPD0

     2025     1312    3                 IF WHO=MTOWN THEN DO; /* and he is the owner of tape patches    */

   1312  2 000014   000000 066500                    CMPB    filb='0'B
         2 000015   000000 000006                    BDSC    0,,PR0                   by=0,bit=0,n=6
         2 000016   000000 000006 0                  BDSC    MTOWN                    by=0,bit=0,n=6
         2 000017   000045 601000 2                  TNZ     s:1321

     2026     1313    3   RPDT:                                   /* Read tape patch                    */
     2027     1314    3                      CALL MINIQ_PL6(PO_INDX,PTCH$,PTCH_LGTH,%FCNRT9) ALTRET(ER_RPATCH
              1314                                );

   1314  2 000020   000000 236000 3     RPDT         LDQ     0
         2 000021   200005 235100                    LDA     @PTCH_LGTH,,AUTO
         2 000022   200010 757100                    STAQ    @PTCH_LGTH+3,,AUTO
         2 000023   200004 236100                    LDQ     @PTCH$,,AUTO
         2 000024   000001 235000 3                  LDA     1
         2 000025   200006 757100                    STAQ    @PTCH_LGTH+1,,AUTO
         2 000026   200006 630500                    EPPR0   @PTCH_LGTH+1,,AUTO
         2 000027   000022 631400 xsym               EPPR1   B_VECTNIL+18
         2 000030   000000 701000 xent               TSX1    MINIQ_PL6
PL6.E3A0      #007=READ_PATCH File=ISI$FIXSYST.:E05TSI                           TUE 07/29/97 22:51 Page:372
         2 000031   000374 702000 2                  TSX2    ER_RPATCH

     2028     1315    4                       CALL IBANGI(PTCH,MTOWN) WHENRETURN DO;

   1315  2 000032   200004 470500                    LDP0    @PTCH$,,AUTO
         2 000033   000000 471500                    LDP1    0,,PR0
         2 000034   000002 236000 3                  LDQ     2
         2 000035   200007 756100                    STQ     @PTCH_LGTH+2,,AUTO
         2 000036   200006 451500                    STP1    @PTCH_LGTH+1,,AUTO
         2 000037   200006 630500                    EPPR0   @PTCH_LGTH+1,,AUTO
         2 000040   000020 631400 xsym               EPPR1   B_VECTNIL+16
         2 000041   000000 701000 xent               TSX1    IBANGI
         2 000042   000044 702000 2                  TSX2    s:1318

     2029     1316    4                             GOTO RPD;

   1316  2 000043   000002 710000 2                  TRA     RPD

     2030     1317    4                           END;            /* WHENRETURN                         */
     2031     1318    3                       RETURN;

   1318  2 000044   000000 702200 xent               TSX2  ! X66_ARET

     2032     1319    3                     END;                  /* THEN                               */
     2033     1320    2                   ELSE;
     2034     1321    2                 IF UWHO<UMTOWN THEN;
              1321                          /* Tape patch owner is a later one, try card patches */

   1321  2 000045   000000 236000 0                  LDQ     MTOWN
         2 000046   000036 772000                    QRL     30
         2 000047   200006 756100                    STQ     @PTCH_LGTH+1,,AUTO
         2 000050   003100 061500                    CSR     bolr='003'O
         2 000051   000000 000006                    BDSC    0,,PR0                   by=0,bit=0,n=6
         2 000052   200007 000044                    BDSC    @PTCH_LGTH+2,,AUTO       by=0,bit=0,n=36
         2 000053   200007 236100                    LDQ     @PTCH_LGTH+2,,AUTO
         2 000054   200006 116100                    CMPQ    @PTCH_LGTH+1,,AUTO
         2 000055   000102 604000 2                  TMI     RPD0
PL6.E3A0      #007=READ_PATCH File=ISI$FIXSYST.:E05TSI                           TUE 07/29/97 22:51 Page:373

     2035     1322    3                   ELSE DO;                /* Skip tape                          */

     2036     1323    3                       CALL MINIQ_PL6(PO_INDX,ADDR(POBUF),80,%FCNRT9);

   1323  2 000056   000003 236000 3                  LDQ     3
         2 000057   200006 756100                    STQ     @PTCH_LGTH+1,,AUTO
         2 000060   000006 237000 3                  LDAQ    6
         2 000061   200012 757100                    STAQ    @PTCH_LGTH+5,,AUTO
         2 000062   200006 631500                    EPPR1   @PTCH_LGTH+1,,AUTO
         2 000063   200011 451500                    STP1    @PTCH_LGTH+4,,AUTO
         2 000064   000001 236000 3                  LDQ     1
         2 000065   200010 756100                    STQ     @PTCH_LGTH+3,,AUTO
         2 000066   200010 630500                    EPPR0   @PTCH_LGTH+3,,AUTO
         2 000067   000022 631400 xsym               EPPR1   B_VECTNIL+18
         2 000070   000000 701000 xent               TSX1    MINIQ_PL6
         2 000071   000000 011000                    NOP     0

     2037     1324    4                       CALL IBANGI(POBUF,MTOWN) WHENRETURN DO;

   1324  2 000072   000010 630400 3                  EPPR0   8
         2 000073   000020 631400 xsym               EPPR1   B_VECTNIL+16
         2 000074   000000 701000 xent               TSX1    IBANGI
         2 000075   000101 702000 2                  TSX2    s:1327

     2038     1325    4                             POBUF='R ME';

   1325  2 000076   040000 100400                    MLR     fill='040'O
         2 000077   000000 000004 1                  ADSC9   0                        cn=0,n=4
         2 000100   000000 000120 xsym               ADSC9   POBUF                    cn=0,n=80

     2039     1326    4                           END;            /* WHENRETURN                         */

     2040     1327    3                       GOTO RPD;

   1327  2 000101   000002 710000 2                  TRA     RPD

PL6.E3A0      #007=READ_PATCH File=ISI$FIXSYST.:E05TSI                           TUE 07/29/97 22:51 Page:374
     2041     1328    3                     END;                  /* ELSE*/
     2042     1329    2               END;                        /* THEN                               */
     2043     1330    1             ELSE;
     2044     1331    1   RPD0:
     2045     1332        /* Try tape2 patches */
     2046     1333    2           IF(WHO&MT2WISH)~='0'B THEN DO;  /* The caller wants tape2 patches     */

   1333  2 000102   000000 236000 xsym  RPD0         LDQ     MT2WISH
         2 000103   770000 376003                    ANQ     -4096,DU
         2 000104   200006 756100                    STQ     @PTCH_LGTH+1,,AUTO
         2 000105   200003 470500                    LDP0    @WHO,,AUTO
         2 000106   003100 060500                    CSL     bolr='003'O
         2 000107   000000 000006                    BDSC    0,,PR0                   by=0,bit=0,n=6
         2 000110   200007 000044                    BDSC    @PTCH_LGTH+2,,AUTO       by=0,bit=0,n=36
         2 000111   200007 236100                    LDQ     @PTCH_LGTH+2,,AUTO
         2 000112   200006 376100                    ANQ     @PTCH_LGTH+1,,AUTO
         2 000113   000202 600000 2                  TZE     RPD1

     2047     1334    3                 IF WHO=MT2OWN THEN DO; /* and he is the owner of tape2 patches  */

   1334  2 000114   000000 066500                    CMPB    filb='0'B
         2 000115   000000 000006                    BDSC    0,,PR0                   by=0,bit=0,n=6
         2 000116   000001 000006 0                  BDSC    MT2OWN                   by=0,bit=0,n=6
         2 000117   000145 601000 2                  TNZ     s:1343

     2048     1335    3   RPDT2:                                  /* Read tape2 patch                   */
     2049     1336    3                       CALL MINIQ_PL6(PAT2_INDX,PTCH$,PTCH_LGTH,%FCNRT9) ALTRET(
              1336                                ER_RPATCH);

   1336  2 000120   000000 236000 3     RPDT2        LDQ     0
         2 000121   200005 235100                    LDA     @PTCH_LGTH,,AUTO
         2 000122   200010 757100                    STAQ    @PTCH_LGTH+3,,AUTO
         2 000123   200004 236100                    LDQ     @PTCH$,,AUTO
         2 000124   000005 235000 3                  LDA     5
         2 000125   200006 757100                    STAQ    @PTCH_LGTH+1,,AUTO
         2 000126   200006 630500                    EPPR0   @PTCH_LGTH+1,,AUTO
         2 000127   000022 631400 xsym               EPPR1   B_VECTNIL+18
PL6.E3A0      #007=READ_PATCH File=ISI$FIXSYST.:E05TSI                           TUE 07/29/97 22:51 Page:375
         2 000130   000000 701000 xent               TSX1    MINIQ_PL6
         2 000131   000374 702000 2                  TSX2    ER_RPATCH

     2050     1337    4                       CALL IBANGI(PTCH,MT2OWN) WHENRETURN DO;

   1337  2 000132   200004 470500                    LDP0    @PTCH$,,AUTO
         2 000133   000000 471500                    LDP1    0,,PR0
         2 000134   000012 236000 3                  LDQ     10
         2 000135   200007 756100                    STQ     @PTCH_LGTH+2,,AUTO
         2 000136   200006 451500                    STP1    @PTCH_LGTH+1,,AUTO
         2 000137   200006 630500                    EPPR0   @PTCH_LGTH+1,,AUTO
         2 000140   000020 631400 xsym               EPPR1   B_VECTNIL+16
         2 000141   000000 701000 xent               TSX1    IBANGI
         2 000142   000144 702000 2                  TSX2    s:1340

     2051     1338    4                             GOTO RPD0;

   1338  2 000143   000102 710000 2                  TRA     RPD0

     2052     1339    4                           END;            /* WHENRETURN                         */
     2053     1340    3                       RETURN;

   1340  2 000144   000000 702200 xent               TSX2  ! X66_ARET

     2054     1341    3                     END;                  /* THEN                               */
     2055     1342    2                   ELSE;
     2056     1343    2                 IF UWHO<UMT2OWN THEN;
              1343                          /* Tape2 patch owner is a later one, try card patches */

   1343  2 000145   000001 236000 0                  LDQ     MT2OWN
         2 000146   000036 772000                    QRL     30
         2 000147   200006 756100                    STQ     @PTCH_LGTH+1,,AUTO
         2 000150   003100 061500                    CSR     bolr='003'O
         2 000151   000000 000006                    BDSC    0,,PR0                   by=0,bit=0,n=6
         2 000152   200007 000044                    BDSC    @PTCH_LGTH+2,,AUTO       by=0,bit=0,n=36
         2 000153   200007 236100                    LDQ     @PTCH_LGTH+2,,AUTO
         2 000154   200006 116100                    CMPQ    @PTCH_LGTH+1,,AUTO
PL6.E3A0      #007=READ_PATCH File=ISI$FIXSYST.:E05TSI                           TUE 07/29/97 22:51 Page:376
         2 000155   000202 604000 2                  TMI     RPD1

     2057     1344    3                   ELSE DO;                /* Skip tape                          */

     2058     1345    3                       CALL MINIQ_PL6(PAT2_INDX,ADDR(POBUF),80,%FCNRT9);

   1345  2 000156   000003 236000 3                  LDQ     3
         2 000157   200006 756100                    STQ     @PTCH_LGTH+1,,AUTO
         2 000160   000006 237000 3                  LDAQ    6
         2 000161   200012 757100                    STAQ    @PTCH_LGTH+5,,AUTO
         2 000162   200006 631500                    EPPR1   @PTCH_LGTH+1,,AUTO
         2 000163   200011 451500                    STP1    @PTCH_LGTH+4,,AUTO
         2 000164   000005 236000 3                  LDQ     5
         2 000165   200010 756100                    STQ     @PTCH_LGTH+3,,AUTO
         2 000166   200010 630500                    EPPR0   @PTCH_LGTH+3,,AUTO
         2 000167   000022 631400 xsym               EPPR1   B_VECTNIL+18
         2 000170   000000 701000 xent               TSX1    MINIQ_PL6
         2 000171   000000 011000                    NOP     0

     2059     1346    4                       CALL IBANGI(POBUF,MT2OWN) WHENRETURN DO;

   1346  2 000172   000013 630400 3                  EPPR0   11
         2 000173   000020 631400 xsym               EPPR1   B_VECTNIL+16
         2 000174   000000 701000 xent               TSX1    IBANGI
         2 000175   000201 702000 2                  TSX2    s:1349

     2060     1347    4                             POBUF='R ME';

   1347  2 000176   040000 100400                    MLR     fill='040'O
         2 000177   000000 000004 1                  ADSC9   0                        cn=0,n=4
         2 000200   000000 000120 xsym               ADSC9   POBUF                    cn=0,n=80

     2061     1348    4                           END;            /* WHENRETURN                         */

     2062     1349    3                       GOTO RPD0;

   1349  2 000201   000102 710000 2                  TRA     RPD0
PL6.E3A0      #007=READ_PATCH File=ISI$FIXSYST.:E05TSI                           TUE 07/29/97 22:51 Page:377

     2063     1350    3                     END;                  /* ELSE*/
     2064     1351    2               END;                        /* THEN                               */
     2065     1352    1             ELSE;
     2066     1353    1   RPD1:
     2067     1354        /* Try card patches */
     2068     1355    2           IF(WHO&CRWISH)~='0'B THEN DO;   /* The caller wants card patches      */

   1355  2 000202   000000 236000 xsym  RPD1         LDQ     CRWISH
         2 000203   770000 376003                    ANQ     -4096,DU
         2 000204   200006 756100                    STQ     @PTCH_LGTH+1,,AUTO
         2 000205   200003 470500                    LDP0    @WHO,,AUTO
         2 000206   003100 060500                    CSL     bolr='003'O
         2 000207   000000 000006                    BDSC    0,,PR0                   by=0,bit=0,n=6
         2 000210   200007 000044                    BDSC    @PTCH_LGTH+2,,AUTO       by=0,bit=0,n=36
         2 000211   200007 236100                    LDQ     @PTCH_LGTH+2,,AUTO
         2 000212   200006 376100                    ANQ     @PTCH_LGTH+1,,AUTO
         2 000213   000302 600000 2                  TZE     RPD2

     2069     1356    3                 IF WHO=CROWN THEN DO; /* and he is the owner of card patches    */

   1356  2 000214   000000 066500                    CMPB    filb='0'B
         2 000215   000000 000006                    BDSC    0,,PR0                   by=0,bit=0,n=6
         2 000216   000002 000006 0                  BDSC    CROWN                    by=0,bit=0,n=6
         2 000217   000245 601000 2                  TNZ     s:1365

     2070     1357    3   RPDC:                                   /* Read card patch                    */
     2071     1358    3                       CALL MINIQ_PL6(%FRSTCR,PTCH$,PTCH_LGTH,%FCNRCRA) ALTRET(
              1358                                ER_RPATCH);

   1358  2 000220   000015 236000 3     RPDC         LDQ     13
         2 000221   200005 235100                    LDA     @PTCH_LGTH,,AUTO
         2 000222   200010 757100                    STAQ    @PTCH_LGTH+3,,AUTO
         2 000223   200004 236100                    LDQ     @PTCH$,,AUTO
         2 000224   000000 235000 3                  LDA     0
         2 000225   200006 757100                    STAQ    @PTCH_LGTH+1,,AUTO
         2 000226   200006 630500                    EPPR0   @PTCH_LGTH+1,,AUTO
PL6.E3A0      #007=READ_PATCH File=ISI$FIXSYST.:E05TSI                           TUE 07/29/97 22:51 Page:378
         2 000227   000022 631400 xsym               EPPR1   B_VECTNIL+18
         2 000230   000000 701000 xent               TSX1    MINIQ_PL6
         2 000231   000374 702000 2                  TSX2    ER_RPATCH

     2072     1359    4                       CALL IBANGI(PTCH,CROWN) WHENRETURN DO;

   1359  2 000232   200004 470500                    LDP0    @PTCH$,,AUTO
         2 000233   000000 471500                    LDP1    0,,PR0
         2 000234   000016 236000 3                  LDQ     14
         2 000235   200007 756100                    STQ     @PTCH_LGTH+2,,AUTO
         2 000236   200006 451500                    STP1    @PTCH_LGTH+1,,AUTO
         2 000237   200006 630500                    EPPR0   @PTCH_LGTH+1,,AUTO
         2 000240   000020 631400 xsym               EPPR1   B_VECTNIL+16
         2 000241   000000 701000 xent               TSX1    IBANGI
         2 000242   000244 702000 2                  TSX2    s:1362

     2073     1360    4                             GOTO RPD;

   1360  2 000243   000002 710000 2                  TRA     RPD

     2074     1361    4                           END;            /* WHENRETURN                         */
     2075     1362    3                       RETURN;

   1362  2 000244   000000 702200 xent               TSX2  ! X66_ARET

     2076     1363    3                     END;                  /* THEN                               */
     2077     1364    2                   ELSE;
     2078     1365    2                 IF UWHO<UCROWN THEN;
              1365                          /* Card patch owner is a later one, try cons patches */

   1365  2 000245   000002 236000 0                  LDQ     CROWN
         2 000246   000036 772000                    QRL     30
         2 000247   200006 756100                    STQ     @PTCH_LGTH+1,,AUTO
         2 000250   003100 061500                    CSR     bolr='003'O
         2 000251   000000 000006                    BDSC    0,,PR0                   by=0,bit=0,n=6
         2 000252   200007 000044                    BDSC    @PTCH_LGTH+2,,AUTO       by=0,bit=0,n=36
         2 000253   200007 236100                    LDQ     @PTCH_LGTH+2,,AUTO
PL6.E3A0      #007=READ_PATCH File=ISI$FIXSYST.:E05TSI                           TUE 07/29/97 22:51 Page:379
         2 000254   200006 116100                    CMPQ    @PTCH_LGTH+1,,AUTO
         2 000255   000302 604000 2                  TMI     RPD2

     2079     1366    3                   ELSE DO;                /* Skip card                          */

     2080     1367    3                       CALL MINIQ_PL6(%FRSTCR,ADDR(POBUF),80,%FCNRCRA);

   1367  2 000256   000003 236000 3                  LDQ     3
         2 000257   200006 756100                    STQ     @PTCH_LGTH+1,,AUTO
         2 000260   000020 237000 3                  LDAQ    16
         2 000261   200012 757100                    STAQ    @PTCH_LGTH+5,,AUTO
         2 000262   200006 631500                    EPPR1   @PTCH_LGTH+1,,AUTO
         2 000263   200011 451500                    STP1    @PTCH_LGTH+4,,AUTO
         2 000264   000000 236000 3                  LDQ     0
         2 000265   200010 756100                    STQ     @PTCH_LGTH+3,,AUTO
         2 000266   200010 630500                    EPPR0   @PTCH_LGTH+3,,AUTO
         2 000267   000022 631400 xsym               EPPR1   B_VECTNIL+18
         2 000270   000000 701000 xent               TSX1    MINIQ_PL6
         2 000271   000000 011000                    NOP     0

     2081     1368    4                       CALL IBANGI(POBUF,CROWN) WHENRETURN DO;

   1368  2 000272   000022 630400 3                  EPPR0   18
         2 000273   000020 631400 xsym               EPPR1   B_VECTNIL+16
         2 000274   000000 701000 xent               TSX1    IBANGI
         2 000275   000301 702000 2                  TSX2    s:1371

     2082     1369    4                             POBUF='R ME';

   1369  2 000276   040000 100400                    MLR     fill='040'O
         2 000277   000000 000004 1                  ADSC9   0                        cn=0,n=4
         2 000300   000000 000120 xsym               ADSC9   POBUF                    cn=0,n=80

     2083     1370    4                           END;            /* WHENRETURN                         */

     2084     1371    3                       GOTO RPD1;

PL6.E3A0      #007=READ_PATCH File=ISI$FIXSYST.:E05TSI                           TUE 07/29/97 22:51 Page:380
   1371  2 000301   000202 710000 2                  TRA     RPD1

     2085     1372    3                     END;                  /* ELSE*/
     2086     1373    2               END;                        /* THEN                               */
     2087     1374    1             ELSE;
     2088     1375    1   RPD2:
     2089     1376        /* Try console patches */
     2090     1377    2           IF(WHO&OCWISH)~='0'B THEN DO;   /* The caller wants cons patches      */

   1377  2 000302   000000 236000 xsym  RPD2         LDQ     OCWISH
         2 000303   770000 376003                    ANQ     -4096,DU
         2 000304   200006 756100                    STQ     @PTCH_LGTH+1,,AUTO
         2 000305   003100 060500                    CSL     bolr='003'O
         2 000306   000000 000006                    BDSC    0,,PR0                   by=0,bit=0,n=6
         2 000307   200007 000044                    BDSC    @PTCH_LGTH+2,,AUTO       by=0,bit=0,n=36
         2 000310   200007 236100                    LDQ     @PTCH_LGTH+2,,AUTO
         2 000311   200006 376100                    ANQ     @PTCH_LGTH+1,,AUTO
         2 000312   000353 600000 2                  TZE     RPD3

     2091     1378    3                 IF WHO=OCOWN THEN DO; /* and he is the owner of cons patches    */

   1378  2 000313   000000 066500                    CMPB    filb='0'B
         2 000314   000000 000006                    BDSC    0,,PR0                   by=0,bit=0,n=6
         2 000315   000003 000006 0                  BDSC    OCOWN                    by=0,bit=0,n=6
         2 000316   000344 601000 2                  TNZ     s:1387

     2092     1379    3   RPDO:                                   /* Read console patch                 */
     2093     1380    3                       CALL MINIQ_PL6(0,PTCH$,PTCH_LGTH,%FCNRCA) ALTRET(ER_RPATCH);

   1380  2 000317   000015 236000 3     RPDO         LDQ     13
         2 000320   200005 235100                    LDA     @PTCH_LGTH,,AUTO
         2 000321   200010 757100                    STAQ    @PTCH_LGTH+3,,AUTO
         2 000322   200004 236100                    LDQ     @PTCH$,,AUTO
         2 000323   000015 235000 3                  LDA     13
         2 000324   200006 757100                    STAQ    @PTCH_LGTH+1,,AUTO
         2 000325   200006 630500                    EPPR0   @PTCH_LGTH+1,,AUTO
         2 000326   000022 631400 xsym               EPPR1   B_VECTNIL+18
PL6.E3A0      #007=READ_PATCH File=ISI$FIXSYST.:E05TSI                           TUE 07/29/97 22:51 Page:381
         2 000327   000000 701000 xent               TSX1    MINIQ_PL6
         2 000330   000374 702000 2                  TSX2    ER_RPATCH

     2094     1381    4                       CALL IBANGI(PTCH,OCOWN) WHENRETURN DO;

   1381  2 000331   200004 470500                    LDP0    @PTCH$,,AUTO
         2 000332   000000 471500                    LDP1    0,,PR0
         2 000333   000024 236000 3                  LDQ     20
         2 000334   200007 756100                    STQ     @PTCH_LGTH+2,,AUTO
         2 000335   200006 451500                    STP1    @PTCH_LGTH+1,,AUTO
         2 000336   200006 630500                    EPPR0   @PTCH_LGTH+1,,AUTO
         2 000337   000020 631400 xsym               EPPR1   B_VECTNIL+16
         2 000340   000000 701000 xent               TSX1    IBANGI
         2 000341   000343 702000 2                  TSX2    s:1384

     2095     1382    4                             GOTO RPD;

   1382  2 000342   000002 710000 2                  TRA     RPD

     2096     1383    4                           END;            /* WHENRETURN                         */
     2097     1384    3                       RETURN;

   1384  2 000343   000000 702200 xent               TSX2  ! X66_ARET

     2098     1385    3                     END;                  /* THEN                               */
     2099     1386    2                   ELSE;
     2100     1387    2                 IF UWHO>UOCOWN THEN GOTO RPDO;

   1387  2 000344   003100 061500                    CSR     bolr='003'O
         2 000345   000000 000006                    BDSC    0,,PR0                   by=0,bit=0,n=6
         2 000346   200006 000044                    BDSC    @PTCH_LGTH+1,,AUTO       by=0,bit=0,n=36
         2 000347   000003 236000 0                  LDQ     OCOWN
         2 000350   000036 772000                    QRL     30
         2 000351   200006 116100                    CMPQ    @PTCH_LGTH+1,,AUTO
         2 000352   000317 604000 2                  TMI     RPDO

     2101     1388    2                   ELSE;
PL6.E3A0      #007=READ_PATCH File=ISI$FIXSYST.:E05TSI                           TUE 07/29/97 22:51 Page:382
     2102     1389    2               END;                        /* THEN                               */

     2103     1390    1             ELSE;
     2104     1391    1   RPD3:
     2105     1392    2           IF WHO=%WHOTIGR THEN CALL DORPB WHENALTRETURN DO;

   1392  2 000353   000000 066500       RPD3         CMPB    filb='0'B
         2 000354   000000 000006                    BDSC    0,,PR0                   by=0,bit=0,n=6
         2 000355   000025 000022 3                  BDSC    21                       by=0,bit=0,n=18
         2 000356   000366 601000 2                  TNZ     s:1397

   1392  2 000357   000002 631400 xsym               EPPR1   B_VECTNIL+2
         2 000360   000000 701000 xent               TSX1    DORPB
         2 000361   000363 702000 2                  TSX2    s:1393
         2 000362   000366 710000 2                  TRA     s:1397

     2106     1393    2                   UNWIND TO ESADERR;

   1393  2 000363   000000 237200 xsym               LDAQ  ! ESADERR
         2 000364   000000 700200 xent               TSX0  ! X66_AUNWIND
         2 000365   000000 000200                    ZERO    0,128

     2107     1394    2                 END;                      /* WHENALTRET                         */
     2108     1395    1             ELSE;
     2109     1396        /* Give him an !EOD */
     2110     1397    1           PTCH='!EOD';

   1397  2 000366   200004 470500                    LDP0    @PTCH$,,AUTO
         2 000367   000000 471500                    LDP1    0,,PR0
         2 000370   040100 100400                    MLR     fill='040'O
         2 000371   000001 000004 1                  ADSC9   1                        cn=0,n=4
         2 000372   100000 000120                    ADSC9   0,,PR1                   cn=0,n=80

     2111     1398    1           RETURN;

   1398  2 000373   000000 702200 xent               TSX2  ! X66_ARET

PL6.E3A0      #007=READ_PATCH File=ISI$FIXSYST.:E05TSI                           TUE 07/29/97 22:51 Page:383
     2112     1399    1   ER_RPATCH:
     2113     1400    1           ALTRETURN;

   1400  2 000374   000000 702200 xent  ER_RPATCH    TSX2  ! X66_AALT
     2114     1401    1   END READ_PATCH;
     2115     1402        %EOD;

PL6.E3A0      #007=READ_PATCH File=ISI$FIXSYST.:E05TSI                           TUE 07/29/97 22:51 Page:384
--  Include file information  --

   IS$MACROS.:E05TOU  is referenced.
      No diagnostics issued in procedure READ_PATCH.
PL6.E3A0      #007=READ_PATCH File=ISI$FIXSYST.:E05TSI                           TUE 07/29/97 22:51 Page:385

 **** Variables and constants ****

  ****  Section 000  Data  READ_PATCH

  ****  Scalars and arrays  ****
OctLoc.c.b A Datatyp(siz) R M Lvl/name                 OctLoc.c.b A Datatyp(siz) R M Lvl/name

     2-0-0/b BIT (6)     r     1 CROWN                      1-0-0/b BIT (6)     r     1 MT2OWN
     0-0-0/b BIT (6)     r     1 MTOWN                      3-0-0/b BIT (6)     r     1 OCOWN
     2-0-0/b UBIN(6)     r     1 UCROWN                     1-0-0/b UBIN(6)     r     1 UMT2OWN
     0-0-0/b UBIN(6)     r     1 UMTOWN                     3-0-0/b UBIN(6)     r     1 UOCOWN

  ****  Auto variables  ****

  ****  Scalars and arrays  ****
OctLoc.c.b A Datatyp(siz) R M Lvl/name                 OctLoc.c.b A Datatyp(siz) R M Lvl/name

     4-0-0/w PTR         r     1 @PTCH$                     5-0-0/w PTR         r     1 @PTCH_LGTH
     3-0-0/w PTR         r     1 @WHO                      *0-0-0/w PTR         r     1 PTCH$
    *0-0-0/w UBIN        r     1 PTCH_LGTH                 *0-0-0/b UBIN(6)     r     1 UWHO
    *0-0-0/b BIT (6)     r     1 WHO

  ****  SYMREF variables  ****

  ****  Scalars and arrays  ****
OctLoc.c.b A Datatyp(siz) R M Lvl/name                 OctLoc.c.b A Datatyp(siz) R M Lvl/name

     0-0-0/b BIT (6)     r     1 CRWISH                     0-0-0/d REMB        r     1 ESADERR
     0-0-0/b BIT (6)     r     1 MT2WISH                    0-0-0/b BIT (6)     r     1 MTWISH
     0-0-0/b BIT (6)     r     1 OCWISH                     0-0-0/w UBIN        r     1 PAT2_INDX
     0-0-0/c CHAR(80)    r     1 POBUF                      0-0-0/w UBIN        r     1 PO_INDX

  ****  BASED and DCB variables  ****

  ****  Scalars and arrays  ****
OctLoc.c.b A Datatyp(siz) R M Lvl/name                 OctLoc.c.b A Datatyp(siz) R M Lvl/name

PL6.E3A0      #007=READ_PATCH File=ISI$FIXSYST.:E05TSI                           TUE 07/29/97 22:51 Page:386
     0-0-0/c CHAR(80)    r     1 PTCH


   Procedure READ_PATCH requires 253 words for executable code.
   Procedure READ_PATCH requires 12 words of local(AUTO) storage.
PL6.E3A0      #007=READ_PATCH File=ISI$FIXSYST.:E05TSI                           TUE 07/29/97 22:51 Page:387
          *** CROSS REFERENCE LISTING ***
**     DENOTES     IDENTIFIER DEFINITION
<<                 IDENTIFIER'S VALUE SET
>>                 IDENTIFIER'S VALUE USED
<>                 IDENTIFIER SET AND/OR USED
--                 IDENTIFIER REFERENCED
PL6.E3A0      #007=READ_PATCH File=ISI$FIXSYST.:E05TSI                           TUE 07/29/97 22:51 Page:388
          MINI XREF LISTING

CROWN
      1292**DCL      1293--REDEF    1356>>IF       1359<>CALL     1368<>CALL
CRWISH
      1291**DCL      1355>>IF
DORPB
      1306**DCL-ENT  1392--CALL
ER_RPATCH
      1400**LABEL    1314--CALLALT  1336--CALLALT  1358--CALLALT  1380--CALLALT
ESADERR
      1307**DCL      1393>>UNWIND
IBANGI
      1304**DCL-ENT  1315--CALL     1324--CALL     1337--CALL     1346--CALL     1359--CALL     1368--CALL
      1381--CALL
MINIQ_PL6
      1305**DCL-ENT  1314--CALL     1323--CALL     1336--CALL     1345--CALL     1358--CALL     1367--CALL
      1380--CALL
MT2OWN
      1289**DCL      1290--REDEF    1334>>IF       1337<>CALL     1346<>CALL
MT2WISH
      1288**DCL      1333>>IF
MTOWN
      1286**DCL      1287--REDEF    1312>>IF       1315<>CALL     1324<>CALL
MTWISH
      1285**DCL      1311>>IF
OCOWN
      1295**DCL      1296--REDEF    1378>>IF       1381<>CALL
OCWISH
      1294**DCL      1377>>IF
PAT2_INDX
      1298**DCL      1336<>CALL     1345<>CALL
POBUF
      1302**DCL      1323--CALL     1324<>CALL     1325<<ASSIGN   1345--CALL     1346<>CALL     1347<<ASSIGN
PL6.E3A0      #007=READ_PATCH File=ISI$FIXSYST.:E05TSI                           TUE 07/29/97 22:51 Page:389
      1367--CALL     1368<>CALL     1369<<ASSIGN
PO_INDX
      1297**DCL      1314<>CALL     1323<>CALL
PTCH
      1301**DCL      1315<>CALL     1337<>CALL     1359<>CALL     1381<>CALL     1397<<ASSIGN
PTCH$
      1299**DCL         6--PROC     1301--IMP-PTR  1314<>CALL     1315>>CALL     1336<>CALL     1337>>CALL
      1358<>CALL     1359>>CALL     1380<>CALL     1381>>CALL     1397>>ASSIGN
PTCH_LGTH
      1300**DCL         6--PROC     1314<>CALL     1336<>CALL     1358<>CALL     1380<>CALL
RPD
      1311**LABEL    1316--GOTO     1327--GOTO     1360--GOTO     1382--GOTO
RPD0
      1333**LABEL    1338--GOTO     1349--GOTO
RPD1
      1355**LABEL    1371--GOTO
RPDO
      1380**LABEL    1387--GOTO
UCROWN
      1293**DCL      1365>>IF
UMT2OWN
      1290**DCL      1343>>IF
UMTOWN
      1287**DCL      1321>>IF
UOCOWN
      1296**DCL      1387>>IF
UWHO
      1284**DCL      1321>>IF       1343>>IF       1365>>IF       1387>>IF
WHO
      1283**DCL         6--PROC     1284--REDEF    1311>>IF       1312>>IF       1333>>IF       1334>>IF
      1355>>IF       1356>>IF       1377>>IF       1378>>IF       1392>>IF

PL6.E3A0      #008=DORPB File=ISI$FIXSYST.:E05TSI                                TUE 07/29/97 22:51 Page:390
     2116        1        /*T***********************************************************/
     2117        2        /*T*                                                         */
     2118        3        /*T* Copyright (c) Bull HN Information Systems Inc., 1997    */
     2119        4        /*T*                                                         */
     2120        5        /*T***********************************************************/
     2121        6        DORPB:  PROC ALTRET;
     2122        7        /* Copies RUM, PLOVER and BOOTIME commands from patch
     2123        8                   device to patch file                     */
     2124        9        %INCLUDE IS$MACROS;
     2125     1284        %DISKDIR(NAME=ADIR,STCLASS="SYMREF");
     2126     1540        %DISKDIR(NAME=RDIR,STCLASS="BASED(PO$)");
     2127     1796    1   DCL 1 ADPXF SYMREF,
     2128     1797    1         2 A BIT(1),
     2129     1798    1         2 D BIT(1),
     2130     1799    1         2 P BIT(1),
     2131     1800    1         2 X BIT(1),
     2132     1801    1         2 F BIT(1);
     2133     1802    1   DCL 1 NF_FLG SYMREF,
     2134     1803    1         2 RECON BIT(1),
     2135     1804    1         2 NONEW BIT(1),
     2136     1805    1         2 S BIT(1);
     2137     1806    1   DCL VOFLG BIT(1)SYMREF;
     2138     1807    1   DCL TOPDA UBIN WORD SYMREF;
     2139     1808    1   DCL SYS_DPX UBIN WORD SYMREF;
     2140     1809    1   DCL SADX$ PTR STATIC INIT(ADDR(POBUF));
     2141     1810        %DCW_STRUCT(NAME=SADDCWX,STCLASS="REDEF SADX$");
     2142     1828    1   DCL MTWISH BIT(6) SYMREF;
     2143     1829    1   DCL MT2WISH BIT(6) SYMREF;
     2144     1830    1   DCL PAT2_INDX UBIN WORD SYMREF;         /* Patch tape 2 index                 */
     2145     1831    1   DCL CRWISH BIT(6) SYMREF;
     2146     1832    1   DCL RUMPA BIT(1) SYMREF;
     2147     1833    1   DCL PLVPA BIT(1) SYMREF;
     2148     1834    1   DCL BTMPA BIT(1) SYMREF;
     2149     1835    1   DCL RPB_FLAG BIT(1) SYMREF;
     2150     1836    1   DCL POBUF CHAR(80) SYMREF;
     2151     1837    1   DCL PO$ PTR STATIC INIT(ADDR(POBUF));
     2152     1838    1   DCL CP6UL(0:1023) CHAR(4) SYMREF;
PL6.E3A0      #008=DORPB File=ISI$FIXSYST.:E05TSI                                TUE 07/29/97 22:51 Page:391
     2153     1839    1   DCL 1 PTCHBF REDEF CP6UL,
     2154     1840    1         2 NXTWA UBIN WORD,
     2155     1841    1         2 PTCHS(0:1022) BIT(36);
     2156     1842    1   DCL WPTCH$ PTR STATIC INIT(ADDR(CP6UL));
     2157     1843        %DCW_STRUCT(NAME=PTCHDCW,STCLASS="REDEF WPTCH$");
     2158     1861        /**/
     2159     1862    1   DCL WRITE_PATCH ENTRY(2);
     2160     1863    1   DCL READ_PATCH ENTRY(3) ALTRET;
     2161     1864    1   DCL MINIQC_PL6 ENTRY(5) ALTRET;
     2162     1865    1   DCL ER_WPATCH ENTRY;
     2163     1866    1   DCL MINIQ_PL6 ENTRY(5) ALTRET;
     2164     1867        /**/
     2165     1868    1   DCL SRUM CHAR(8) STATIC INIT('!RUM');
     2166     1869    1   DCL SPLV CHAR(8) STATIC INIT('!PLOVER');
     2167     1870    1   DCL SBTM CHAR(8) STATIC INIT('!BOOTIME');
     2168     1871        /**/
     2169     1872    2           IF (ADPXF.P='1'B OR NF_FLG='0'B OR NF_FLG.S='1'B) THEN DO;
              1872                    /* Patch option,or New Files ,or System files */
     2170     1873    2   DORPB0:
     2171     1874    3                 IF((%WHORUM&MTWISH)~='0'B OR(%WHORUM&MT2WISH)~='0'B OR (%WHORUM&CRWISH
              1874                          )~='0'B) THEN DO; /* Do RUM */
     2172     1875    3   DORUM:
     2173     1876    4                       IF RUMPA='0'B THEN DO; /* Write !RUM                      */
     2174     1877    4                             RUMPA='1'B;
     2175     1878    4                             CALL WRITE_PATCH(ADDR(SRUM),8);
     2176     1879    4                           END;            /* THEN                               */
     2177     1880    3                         ELSE;
     2178     1881    3                       RPB_FLAG='1'B;
     2179     1882    3   DORUM1:
     2180     1883    3                       CALL READ_PATCH(%WHORUM,ADDR(POBUF),80);
     2181     1884    4                       IF POBUF~='!EOD' THEN DO;
     2182     1885    4                             CALL WRITE_PATCH(ADDR(POBUF),80);
     2183     1886    4                             GOTO DORUM1;
     2184     1887    4                           END;            /* THEN                               */
     2185     1888    3                         ELSE;
     2186     1889    3                     END;                  /* THEN                               */
     2187     1890    2   DORPB1:
PL6.E3A0      #008=DORPB File=ISI$FIXSYST.:E05TSI                                TUE 07/29/97 22:51 Page:392
     2188     1891    3                 IF((%WHOPLV&MTWISH)~='0'B OR (%WHOPLV&MT2WISH)~='0'B OR (%WHOPLV&
              1891                          CRWISH)~='0'B) THEN DO; /* Do PLOVER */
     2189     1892    3                       RPB_FLAG='1'B;
     2190     1893    3   DOPLV:
     2191     1894    4                       IF PLVPA='0'B THEN DO; /* Write !PLOVER                   */
     2192     1895    4                             PLVPA='1'B;
     2193     1896    4                             CALL WRITE_PATCH(ADDR(SPLV),8);
     2194     1897    4                           END;            /* THEN                               */
     2195     1898    3                         ELSE;
     2196     1899    3   DOPLV1:
     2197     1900    3                       CALL READ_PATCH(%WHOPLV,ADDR(POBUF),80);
     2198     1901    4                       IF POBUF~='!EOD' THEN DO;
     2199     1902    4                             CALL WRITE_PATCH(ADDR(POBUF),80);
     2200     1903    4                             GOTO DOPLV1;
     2201     1904    4                           END;            /* THEN                               */
     2202     1905    3                         ELSE;
     2203     1906    3                     END;                  /* THEN                               */
     2204     1907    2   DORPB2:
     2205     1908    3                 IF((%WHOBTM&MTWISH)~='0'B OR (%WHOBTM&MT2WISH)~='0'B OR (%WHOBTM&
              1908                          CRWISH)~='0'B) THEN DO; /* Do BOOTIME */
     2206     1909    3                       RPB_FLAG='1'B;
     2207     1910    3   DOBTM:
     2208     1911    4                       IF BTMPA='0'B THEN DO; /* Write !BOOTIME                  */
     2209     1912    4                             BTMPA='1'B;
     2210     1913    4                             CALL WRITE_PATCH(ADDR(SBTM),8);
     2211     1914    4                           END;            /* THEN                               */
     2212     1915    3                         ELSE;
     2213     1916    3   DOBTM1:
     2214     1917    3                       CALL READ_PATCH(%WHOBTM,ADDR(POBUF),80);
     2215     1918    4                       IF POBUF~='!EOD' THEN DO;
     2216     1919    4                             CALL WRITE_PATCH(ADDR(POBUF),80);
     2217     1920    4                             GOTO DOBTM1;
     2218     1921    4                           END;            /* THEN                               */
     2219     1922    3                         ELSE;
     2220     1923    3                     END;                  /* THEN                               */
     2221     1924    2               END;                        /* THEN                               */
     2222     1925    1             ELSE;
PL6.E3A0      #008=DORPB File=ISI$FIXSYST.:E05TSI                                TUE 07/29/97 22:51 Page:393
     2223     1926    1   DORPB3:
     2224     1927    1           IF VOFLG='1'B THEN RETURN;
     2225     1928    1             ELSE;
     2226     1929    2           IF PTCHBF.NXTWA~=0 THEN DO;     /* Write out last buffer              */
     2227     1930    2                 PTCHDCW.TALLY=1024;
     2228     1931    2                 CALL MINIQC_PL6(SYS_DPX,ADDR(PTCHDCW),,%FCNWDB,ADIR.PATCH.DA+ADIR.
              1931                          PATCH.SIZE) ALTRET(ER_WBUF);
     2229     1932    2                 ADIR.PATCH.SIZE=ADIR.PATCH.SIZE+1; /* Update patch size         */
     2230     1933    2               END;                        /* THEN                               */
     2231     1934    1   DORPBCPB:
     2232     1935    1           PTCHBF='0'B;
     2233     1936        /* Read SAD, update SAD.PATCH, rewrite SAD */
     2234     1937    1           SADDCWX.TALLY=LENGTHW(ADIR)+4;
     2235     1938    1           CALL MINIQC_PL6(SYS_DPX,ADDR(SADDCWX),,%FCNRDB,TOPDA) ALTRET(SADER);
     2236     1939    1           RDIR.PATCH=ADIR.PATCH;
     2237     1940    1           CALL MINIQC_PL6(SYS_DPX,ADDR(SADDCWX),,%FCNWDB,TOPDA) ALTRET(SADER);
     2238     1941    1           IF MT2WISH~='0'B THEN CALL MINIQ_PL6(PAT2_INDX,0,0,%FCNUNL);
     2239     1942    1           RETURN;
     2240     1943    1   SADER:
     2241     1944    1           ALTRETURN;
     2242     1945    1   ER_WBUF:
     2243     1946    1           CALL ER_WPATCH;                 /* Err on writing patches; give up    */
     2244     1947    1   END DORPB;
     2245     1948        %EOD;

PL6.E3A0      #008=DORPB File=ISI$FIXSYST.:E05TSI                                TUE 07/29/97 22:51 Page:394
--  Include file information  --

   IS$MACROS.:E05TOU  is referenced.
      No diagnostics issued in procedure DORPB.

   Procedure DORPB requires 255 words for executable code.
   Procedure DORPB requires 12 words of local(AUTO) storage.

PL6.E3A0      #008=DORPB File=ISI$FIXSYST.:E05TSI                                TUE 07/29/97 22:51 Page:395

 Object Unit name= DORPB                                      File name= ISI$FIXSYST.:E05TOU
 UTS= JUL 29 '97 22:51:10.60 TUE                              Compiler= PL-6/E31         Sev=      00
 SharedLib= :SHARED_SYSTEM                                    Alt SharedLib=


    ****  Control sections  ****

 Sect   Type Bound  Init  Size OctSiz  Section name(segment info)
    0   Data  even  none     9     11  DORPB
    1  RoData even  UTS      1      1  DORPB
    2   Proc  even  none   255    377  DORPB
    3  RoData even  none    24     30  DORPB

    ****  Entry defs  ****

                              Check   Calling
                             calling  sequence
  Sect OctLoc Primary Altret sequence   type   Parms  Name
     2      0   yes    yes     yes      Std        0  DORPB

  ****  Entry refs  ****

         Check        Calling
        calling       sequence
Altret sequence SRef   type   Args  Name
         yes           Std       2 WRITE_PATCH
 yes     yes           Std       3 READ_PATCH
         yes           Std       0 ER_WPATCH
 yes     yes           Std       5 MINIQC_PL6
 yes     yes           Std       5 MINIQ_PL6
                       nStd      0 X66_AUTO_0
                       Std       0 B_CONSPOOL_D
                       nStd      0 X66_ARET
                       nStd      0 X66_AALT
PL6.E3A0      #008=DORPB File=ISI$FIXSYST.:E05TSI                                TUE 07/29/97 22:51 Page:396

  ****  Data refs  ****

  Flags:  r = read only, s = secondary
Flgs Name                             Flgs Name                             Flgs Name
     ADIR                                  ADPXF                                 NF_FLG
     VOFLG                                 TOPDA                                 SYS_DPX
     MTWISH                                MT2WISH                               PAT2_INDX
     CRWISH                                RUMPA                                 PLVPA
     BTMPA                                 RPB_FLAG                              POBUF
     CP6UL                                 B_VECTNIL

  ****  Segment refs  ****

  Flags:  r = read only, s = secondary
Flgs Name                             Flgs Name                             Flgs Name
     ISSID
PL6.E3A0      #008=DORPB File=ISI$FIXSYST.:E05TSI                                TUE 07/29/97 22:51 Page:397


     2116        1        /*T***********************************************************/
     2117        2        /*T*                                                         */
     2118        3        /*T* Copyright (c) Bull HN Information Systems Inc., 1997    */
     2119        4        /*T*                                                         */
     2120        5        /*T***********************************************************/
     2121        6        DORPB:  PROC ALTRET;

      6  2 000000   000000 700200 xent  DORPB        TSX0  ! X66_AUTO_0
         2 000001   000014 000000                    ZERO    12,0

     2122        7        /* Copies RUM, PLOVER and BOOTIME commands from patch
     2123        8                   device to patch file                     */
     2124        9        %INCLUDE IS$MACROS;
     2125     1284        %DISKDIR(NAME=ADIR,STCLASS="SYMREF");
     2126     1540        %DISKDIR(NAME=RDIR,STCLASS="BASED(PO$)");
     2127     1796    1   DCL 1 ADPXF SYMREF,
     2128     1797    1         2 A BIT(1),
     2129     1798    1         2 D BIT(1),
     2130     1799    1         2 P BIT(1),
     2131     1800    1         2 X BIT(1),
     2132     1801    1         2 F BIT(1);
     2133     1802    1   DCL 1 NF_FLG SYMREF,
     2134     1803    1         2 RECON BIT(1),
     2135     1804    1         2 NONEW BIT(1),
     2136     1805    1         2 S BIT(1);
     2137     1806    1   DCL VOFLG BIT(1)SYMREF;
     2138     1807    1   DCL TOPDA UBIN WORD SYMREF;
     2139     1808    1   DCL SYS_DPX UBIN WORD SYMREF;
     2140     1809    1   DCL SADX$ PTR STATIC INIT(ADDR(POBUF));
     2141     1810        %DCW_STRUCT(NAME=SADDCWX,STCLASS="REDEF SADX$");
     2142     1828    1   DCL MTWISH BIT(6) SYMREF;
     2143     1829    1   DCL MT2WISH BIT(6) SYMREF;
     2144     1830    1   DCL PAT2_INDX UBIN WORD SYMREF;         /* Patch tape 2 index                 */
     2145     1831    1   DCL CRWISH BIT(6) SYMREF;
     2146     1832    1   DCL RUMPA BIT(1) SYMREF;
     2147     1833    1   DCL PLVPA BIT(1) SYMREF;
PL6.E3A0      #008=DORPB File=ISI$FIXSYST.:E05TSI                                TUE 07/29/97 22:51 Page:398
     2148     1834    1   DCL BTMPA BIT(1) SYMREF;
     2149     1835    1   DCL RPB_FLAG BIT(1) SYMREF;
     2150     1836    1   DCL POBUF CHAR(80) SYMREF;
     2151     1837    1   DCL PO$ PTR STATIC INIT(ADDR(POBUF));
     2152     1838    1   DCL CP6UL(0:1023) CHAR(4) SYMREF;
     2153     1839    1   DCL 1 PTCHBF REDEF CP6UL,
     2154     1840    1         2 NXTWA UBIN WORD,
     2155     1841    1         2 PTCHS(0:1022) BIT(36);
     2156     1842    1   DCL WPTCH$ PTR STATIC INIT(ADDR(CP6UL));
     2157     1843        %DCW_STRUCT(NAME=PTCHDCW,STCLASS="REDEF WPTCH$");
     2158     1861        /**/
     2159     1862    1   DCL WRITE_PATCH ENTRY(2);
     2160     1863    1   DCL READ_PATCH ENTRY(3) ALTRET;
     2161     1864    1   DCL MINIQC_PL6 ENTRY(5) ALTRET;
     2162     1865    1   DCL ER_WPATCH ENTRY;
     2163     1866    1   DCL MINIQ_PL6 ENTRY(5) ALTRET;
     2164     1867        /**/
     2165     1868    1   DCL SRUM CHAR(8) STATIC INIT('!RUM');
     2166     1869    1   DCL SPLV CHAR(8) STATIC INIT('!PLOVER');
     2167     1870    1   DCL SBTM CHAR(8) STATIC INIT('!BOOTIME');
     2168     1871        /**/
     2169     1872    2           IF (ADPXF.P='1'B OR NF_FLG='0'B OR NF_FLG.S='1'B) THEN DO;
              1872                    /* Patch option,or New Files ,or System files */

   1872  2 000002   000000 236000 xsym               LDQ     ADPXF
         2 000003   100000 316003                    CANQ    32768,DU
         2 000004   000012 601000 2                  TNZ     DORPB0
         2 000005   000000 236000 xsym               LDQ     NF_FLG
         2 000006   700000 316003                    CANQ    -32768,DU
         2 000007   000012 600000 2                  TZE     DORPB0
         2 000010   100000 316003                    CANQ    32768,DU
         2 000011   000255 600000 2                  TZE     DORPB3

     2170     1873    2   DORPB0:
     2171     1874    3                IF((%WHORUM&MTWISH)~='0'B OR(%WHORUM&MT2WISH)~='0'B OR (%WHORUM&CRWISH
              1874                          )~='0'B) THEN DO; /* Do RUM */

PL6.E3A0      #008=DORPB File=ISI$FIXSYST.:E05TSI                                TUE 07/29/97 22:51 Page:399
   1874  2 000012   000000 236000 xsym  DORPB0       LDQ     MTWISH
         2 000013   770000 376003                    ANQ     -4096,DU
         2 000014   100000 376003                    ANQ     32768,DU
         2 000015   000026 601000 2                  TNZ     DORUM
         2 000016   000000 236000 xsym               LDQ     MT2WISH
         2 000017   770000 376003                    ANQ     -4096,DU
         2 000020   100000 376003                    ANQ     32768,DU
         2 000021   000026 601000 2                  TNZ     DORUM
         2 000022   000000 236000 xsym               LDQ     CRWISH
         2 000023   770000 376003                    ANQ     -4096,DU
         2 000024   100000 376003                    ANQ     32768,DU
         2 000025   000101 600000 2                  TZE     DORPB1

     2172     1875    3   DORUM:
     2173     1876    4                       IF RUMPA='0'B THEN DO; /* Write !RUM                      */

   1876  2 000026   000000 234000 xsym  DORUM        SZN     RUMPA
         2 000027   000044 604000 2                  TMI     s:1881

     2174     1877    4                             RUMPA='1'B;

   1877  2 000030   400000 236003                    LDQ     -131072,DU
         2 000031   000000 756000 xsym               STQ     RUMPA

     2175     1878    4                             CALL WRITE_PATCH(ADDR(SRUM),8);

   1878  2 000032   000000 236000 3                  LDQ     0
         2 000033   200004 756100                    STQ     4,,AUTO
         2 000034   000001 236000 3                  LDQ     1
         2 000035   200007 756100                    STQ     7,,AUTO
         2 000036   200004 630500                    EPPR0   4,,AUTO
         2 000037   200006 450500                    STP0    6,,AUTO
         2 000040   200006 630500                    EPPR0   6,,AUTO
         2 000041   000020 631400 xsym               EPPR1   B_VECTNIL+16
         2 000042   000000 701000 xent               TSX1    WRITE_PATCH
         2 000043   000000 011000                    NOP     0

PL6.E3A0      #008=DORPB File=ISI$FIXSYST.:E05TSI                                TUE 07/29/97 22:51 Page:400
     2176     1879    4                           END;            /* THEN                               */

     2177     1880    3                         ELSE;
     2178     1881    3                       RPB_FLAG='1'B;

   1881  2 000044   400000 236003                    LDQ     -131072,DU
         2 000045   000000 756000 xsym               STQ     RPB_FLAG

     2179     1882    3   DORUM1:
     2180     1883    3                       CALL READ_PATCH(%WHORUM,ADDR(POBUF),80);

   1883  2 000046   000003 236000 3     DORUM1       LDQ     3
         2 000047   200004 756100                    STQ     4,,AUTO
         2 000050   000005 236000 3                  LDQ     5
         2 000051   200007 756100                    STQ     7,,AUTO
         2 000052   200004 630500                    EPPR0   4,,AUTO
         2 000053   200006 450500                    STP0    6,,AUTO
         2 000054   000006 236000 3                  LDQ     6
         2 000055   200005 756100                    STQ     5,,AUTO
         2 000056   200005 630500                    EPPR0   5,,AUTO
         2 000057   000021 631400 xsym               EPPR1   B_VECTNIL+17
         2 000060   000000 701000 xent               TSX1    READ_PATCH
         2 000061   000000 011000                    NOP     0

     2181     1884    4                       IF POBUF~='!EOD' THEN DO;

   1884  2 000062   040000 106400                    CMPC    fill='040'O
         2 000063   000000 000120 xsym               ADSC9   POBUF                    cn=0,n=80
         2 000064   000000 000004 1                  ADSC9   0                        cn=0,n=4
         2 000065   000101 600000 2                  TZE     DORPB1

     2182     1885    4                             CALL WRITE_PATCH(ADDR(POBUF),80);

   1885  2 000066   000003 236000 3                  LDQ     3
         2 000067   200004 756100                    STQ     4,,AUTO
         2 000070   000005 236000 3                  LDQ     5
         2 000071   200007 756100                    STQ     7,,AUTO
PL6.E3A0      #008=DORPB File=ISI$FIXSYST.:E05TSI                                TUE 07/29/97 22:51 Page:401
         2 000072   200004 630500                    EPPR0   4,,AUTO
         2 000073   200006 450500                    STP0    6,,AUTO
         2 000074   200006 630500                    EPPR0   6,,AUTO
         2 000075   000020 631400 xsym               EPPR1   B_VECTNIL+16
         2 000076   000000 701000 xent               TSX1    WRITE_PATCH
         2 000077   000000 011000                    NOP     0

     2183     1886    4                             GOTO DORUM1;

   1886  2 000100   000046 710000 2                  TRA     DORUM1

     2184     1887    4                           END;            /* THEN                               */
     2185     1888    3                         ELSE;
     2186     1889    3                     END;                  /* THEN                               */
     2187     1890    2   DORPB1:
     2188     1891    3                 IF((%WHOPLV&MTWISH)~='0'B OR (%WHOPLV&MT2WISH)~='0'B OR (%WHOPLV&
              1891                          CRWISH)~='0'B) THEN DO; /* Do PLOVER */

   1891  2 000101   000000 236000 xsym  DORPB1       LDQ     MTWISH
         2 000102   770000 376003                    ANQ     -4096,DU
         2 000103   200000 376003                    ANQ     65536,DU
         2 000104   000115 601000 2                  TNZ     s:1892
         2 000105   000000 236000 xsym               LDQ     MT2WISH
         2 000106   770000 376003                    ANQ     -4096,DU
         2 000107   200000 376003                    ANQ     65536,DU
         2 000110   000115 601000 2                  TNZ     s:1892
         2 000111   000000 236000 xsym               LDQ     CRWISH
         2 000112   770000 376003                    ANQ     -4096,DU
         2 000113   200000 376003                    ANQ     65536,DU
         2 000114   000167 600000 2                  TZE     DORPB2

     2189     1892    3                       RPB_FLAG='1'B;

   1892  2 000115   400000 236003                    LDQ     -131072,DU
         2 000116   000000 756000 xsym               STQ     RPB_FLAG

     2190     1893    3   DOPLV:
PL6.E3A0      #008=DORPB File=ISI$FIXSYST.:E05TSI                                TUE 07/29/97 22:51 Page:402
     2191     1894    4                       IF PLVPA='0'B THEN DO; /* Write !PLOVER                   */

   1894  2 000117   000000 234000 xsym  DOPLV        SZN     PLVPA
         2 000120   000134 604000 2                  TMI     DOPLV1

     2192     1895    4                             PLVPA='1'B;

   1895  2 000121   000000 756000 xsym               STQ     PLVPA

     2193     1896    4                             CALL WRITE_PATCH(ADDR(SPLV),8);

   1896  2 000122   000007 236000 3                  LDQ     7
         2 000123   200004 756100                    STQ     4,,AUTO
         2 000124   000001 236000 3                  LDQ     1
         2 000125   200007 756100                    STQ     7,,AUTO
         2 000126   200004 630500                    EPPR0   4,,AUTO
         2 000127   200006 450500                    STP0    6,,AUTO
         2 000130   200006 630500                    EPPR0   6,,AUTO
         2 000131   000020 631400 xsym               EPPR1   B_VECTNIL+16
         2 000132   000000 701000 xent               TSX1    WRITE_PATCH
         2 000133   000000 011000                    NOP     0

     2194     1897    4                           END;            /* THEN                               */

     2195     1898    3                         ELSE;
     2196     1899    3   DOPLV1:
     2197     1900    3                       CALL READ_PATCH(%WHOPLV,ADDR(POBUF),80);

   1900  2 000134   000003 236000 3     DOPLV1       LDQ     3
         2 000135   200004 756100                    STQ     4,,AUTO
         2 000136   000005 236000 3                  LDQ     5
         2 000137   200007 756100                    STQ     7,,AUTO
         2 000140   200004 630500                    EPPR0   4,,AUTO
         2 000141   200006 450500                    STP0    6,,AUTO
         2 000142   000011 236000 3                  LDQ     9
         2 000143   200005 756100                    STQ     5,,AUTO
         2 000144   200005 630500                    EPPR0   5,,AUTO
PL6.E3A0      #008=DORPB File=ISI$FIXSYST.:E05TSI                                TUE 07/29/97 22:51 Page:403
         2 000145   000021 631400 xsym               EPPR1   B_VECTNIL+17
         2 000146   000000 701000 xent               TSX1    READ_PATCH
         2 000147   000000 011000                    NOP     0

     2198     1901    4                       IF POBUF~='!EOD' THEN DO;

   1901  2 000150   040000 106400                    CMPC    fill='040'O
         2 000151   000000 000120 xsym               ADSC9   POBUF                    cn=0,n=80
         2 000152   000000 000004 1                  ADSC9   0                        cn=0,n=4
         2 000153   000167 600000 2                  TZE     DORPB2

     2199     1902    4                             CALL WRITE_PATCH(ADDR(POBUF),80);

   1902  2 000154   000003 236000 3                  LDQ     3
         2 000155   200004 756100                    STQ     4,,AUTO
         2 000156   000005 236000 3                  LDQ     5
         2 000157   200007 756100                    STQ     7,,AUTO
         2 000160   200004 630500                    EPPR0   4,,AUTO
         2 000161   200006 450500                    STP0    6,,AUTO
         2 000162   200006 630500                    EPPR0   6,,AUTO
         2 000163   000020 631400 xsym               EPPR1   B_VECTNIL+16
         2 000164   000000 701000 xent               TSX1    WRITE_PATCH
         2 000165   000000 011000                    NOP     0

     2200     1903    4                             GOTO DOPLV1;

   1903  2 000166   000134 710000 2                  TRA     DOPLV1

     2201     1904    4                           END;            /* THEN                               */
     2202     1905    3                         ELSE;
     2203     1906    3                     END;                  /* THEN                               */
     2204     1907    2   DORPB2:
     2205     1908    3                 IF((%WHOBTM&MTWISH)~='0'B OR (%WHOBTM&MT2WISH)~='0'B OR (%WHOBTM&
              1908                          CRWISH)~='0'B) THEN DO; /* Do BOOTIME */

   1908  2 000167   000000 236000 xsym  DORPB2       LDQ     MTWISH
         2 000170   770000 376003                    ANQ     -4096,DU
PL6.E3A0      #008=DORPB File=ISI$FIXSYST.:E05TSI                                TUE 07/29/97 22:51 Page:404
         2 000171   400000 376003                    ANQ     -131072,DU
         2 000172   000203 601000 2                  TNZ     s:1909
         2 000173   000000 236000 xsym               LDQ     MT2WISH
         2 000174   770000 376003                    ANQ     -4096,DU
         2 000175   400000 376003                    ANQ     -131072,DU
         2 000176   000203 601000 2                  TNZ     s:1909
         2 000177   000000 236000 xsym               LDQ     CRWISH
         2 000200   770000 376003                    ANQ     -4096,DU
         2 000201   400000 376003                    ANQ     -131072,DU
         2 000202   000255 600000 2                  TZE     DORPB3

     2206     1909    3                       RPB_FLAG='1'B;

   1909  2 000203   400000 236003                    LDQ     -131072,DU
         2 000204   000000 756000 xsym               STQ     RPB_FLAG

     2207     1910    3   DOBTM:
     2208     1911    4                       IF BTMPA='0'B THEN DO; /* Write !BOOTIME                  */

   1911  2 000205   000000 234000 xsym  DOBTM        SZN     BTMPA
         2 000206   000222 604000 2                  TMI     DOBTM1

     2209     1912    4                             BTMPA='1'B;

   1912  2 000207   000000 756000 xsym               STQ     BTMPA

     2210     1913    4                             CALL WRITE_PATCH(ADDR(SBTM),8);

   1913  2 000210   000012 236000 3                  LDQ     10
         2 000211   200004 756100                    STQ     4,,AUTO
         2 000212   000001 236000 3                  LDQ     1
         2 000213   200007 756100                    STQ     7,,AUTO
         2 000214   200004 630500                    EPPR0   4,,AUTO
         2 000215   200006 450500                    STP0    6,,AUTO
         2 000216   200006 630500                    EPPR0   6,,AUTO
         2 000217   000020 631400 xsym               EPPR1   B_VECTNIL+16
         2 000220   000000 701000 xent               TSX1    WRITE_PATCH
PL6.E3A0      #008=DORPB File=ISI$FIXSYST.:E05TSI                                TUE 07/29/97 22:51 Page:405
         2 000221   000000 011000                    NOP     0

     2211     1914    4                           END;            /* THEN                               */

     2212     1915    3                         ELSE;
     2213     1916    3   DOBTM1:
     2214     1917    3                       CALL READ_PATCH(%WHOBTM,ADDR(POBUF),80);

   1917  2 000222   000003 236000 3     DOBTM1       LDQ     3
         2 000223   200004 756100                    STQ     4,,AUTO
         2 000224   000005 236000 3                  LDQ     5
         2 000225   200007 756100                    STQ     7,,AUTO
         2 000226   200004 630500                    EPPR0   4,,AUTO
         2 000227   200006 450500                    STP0    6,,AUTO
         2 000230   000013 236000 3                  LDQ     11
         2 000231   200005 756100                    STQ     5,,AUTO
         2 000232   200005 630500                    EPPR0   5,,AUTO
         2 000233   000021 631400 xsym               EPPR1   B_VECTNIL+17
         2 000234   000000 701000 xent               TSX1    READ_PATCH
         2 000235   000000 011000                    NOP     0

     2215     1918    4                       IF POBUF~='!EOD' THEN DO;

   1918  2 000236   040000 106400                    CMPC    fill='040'O
         2 000237   000000 000120 xsym               ADSC9   POBUF                    cn=0,n=80
         2 000240   000000 000004 1                  ADSC9   0                        cn=0,n=4
         2 000241   000255 600000 2                  TZE     DORPB3

     2216     1919    4                             CALL WRITE_PATCH(ADDR(POBUF),80);

   1919  2 000242   000003 236000 3                  LDQ     3
         2 000243   200004 756100                    STQ     4,,AUTO
         2 000244   000005 236000 3                  LDQ     5
         2 000245   200007 756100                    STQ     7,,AUTO
         2 000246   200004 630500                    EPPR0   4,,AUTO
         2 000247   200006 450500                    STP0    6,,AUTO
         2 000250   200006 630500                    EPPR0   6,,AUTO
PL6.E3A0      #008=DORPB File=ISI$FIXSYST.:E05TSI                                TUE 07/29/97 22:51 Page:406
         2 000251   000020 631400 xsym               EPPR1   B_VECTNIL+16
         2 000252   000000 701000 xent               TSX1    WRITE_PATCH
         2 000253   000000 011000                    NOP     0

     2217     1920    4                             GOTO DOBTM1;

   1920  2 000254   000222 710000 2                  TRA     DOBTM1

     2218     1921    4                           END;            /* THEN                               */
     2219     1922    3                         ELSE;
     2220     1923    3                     END;                  /* THEN                               */
     2221     1924    2               END;                        /* THEN                               */
     2222     1925    1             ELSE;
     2223     1926    1   DORPB3:
     2224     1927    1           IF VOFLG='1'B THEN RETURN;

   1927  2 000255   000000 234000 xsym  DORPB3       SZN     VOFLG
         2 000256   000260 605000 2                  TPL     s:1929

   1927  2 000257   000000 702200 xent               TSX2  ! X66_ARET

     2225     1928    1             ELSE;
     2226     1929    2           IF PTCHBF.NXTWA~=0 THEN DO;     /* Write out last buffer              */

   1929  2 000260   000000 235000 xsym               LDA     CP6UL
         2 000261   000314 600000 2                  TZE     DORPBCPB

     2227     1930    2                 PTCHDCW.TALLY=1024;

   1930  2 000262   002000 236007                    LDQ     1024,DL
         2 000263   000002 752003 0                  STCQ    WPTCH$,'03'O

     2228     1931    2                 CALL MINIQC_PL6(SYS_DPX,ADDR(PTCHDCW),,%FCNWDB,ADIR.PATCH.DA+ADIR.
              1931                          PATCH.SIZE) ALTRET(ER_WBUF);

   1931  2 000264   000175 236000 xsym               LDQ     ADIR+125
         2 000265   000176 036000 xsym               ADLQ    ADIR+126
PL6.E3A0      #008=DORPB File=ISI$FIXSYST.:E05TSI                                TUE 07/29/97 22:51 Page:407
         2 000266   200005 756100                    STQ     5,,AUTO
         2 000267   000014 236000 3                  LDQ     12
         2 000270   200004 756100                    STQ     4,,AUTO
         2 000271   200005 235100                    LDA     5,,AUTO
         2 000272   200006 755100                    STA     6,,AUTO
         2 000273   200006 630500                    EPPR0   6,,AUTO
         2 000274   200013 450500                    STP0    11,,AUTO
         2 000275   000015 236000 3                  LDQ     13
         2 000276   200012 756100                    STQ     10,,AUTO
         2 000277   000001 236000 xsym               LDQ     B_VECTNIL+1
         2 000300   200011 756100                    STQ     9,,AUTO
         2 000301   200004 631500                    EPPR1   4,,AUTO
         2 000302   200010 451500                    STP1    8,,AUTO
         2 000303   000016 236000 3                  LDQ     14
         2 000304   200007 756100                    STQ     7,,AUTO
         2 000305   200007 630500                    EPPR0   7,,AUTO
         2 000306   000023 631400 xsym               EPPR1   B_VECTNIL+19
         2 000307   000000 701000 xent               TSX1    MINIQC_PL6
         2 000310   000373 702000 2                  TSX2    ER_WBUF

     2229     1932    2                 ADIR.PATCH.SIZE=ADIR.PATCH.SIZE+1; /* Update patch size         */

   1932  2 000311   000176 235000 xsym               LDA     ADIR+126
         2 000312   000001 035007                    ADLA    1,DL
         2 000313   000176 755000 xsym               STA     ADIR+126

     2230     1933    2               END;                        /* THEN                               */

     2231     1934    1   DORPBCPB:
     2232     1935    1           PTCHBF='0'B;

   1935  2 000314   010000 220003       DORPBCPB     LDX0    4096,DU
         2 000315   000040 100400                    MLR     fill='000'O
         2 000316   000002 000001 xsym               ADSC9   B_VECTNIL+2              cn=0,n=1
         2 000317   000000 000010 xsym               ADSC9   CP6UL                    cn=0,n=*X0

     2233     1936        /* Read SAD, update SAD.PATCH, rewrite SAD */
PL6.E3A0      #008=DORPB File=ISI$FIXSYST.:E05TSI                                TUE 07/29/97 22:51 Page:408
     2234     1937    1           SADDCWX.TALLY=LENGTHW(ADIR)+4;

   1937  2 000320   000364 236007                    LDQ     244,DL
         2 000321   000000 752003 0                  STCQ    SADX$,'03'O

     2235     1938    1           CALL MINIQC_PL6(SYS_DPX,ADDR(SADDCWX),,%FCNRDB,TOPDA) ALTRET(SADER);

   1938  2 000322   000017 236000 3                  LDQ     15
         2 000323   200004 756100                    STQ     4,,AUTO
         2 000324   000020 237000 3                  LDAQ    16
         2 000325   200010 757100                    STAQ    8,,AUTO
         2 000326   000001 236000 xsym               LDQ     B_VECTNIL+1
         2 000327   200007 756100                    STQ     7,,AUTO
         2 000330   200004 630500                    EPPR0   4,,AUTO
         2 000331   200006 450500                    STP0    6,,AUTO
         2 000332   000016 236000 3                  LDQ     14
         2 000333   200005 756100                    STQ     5,,AUTO
         2 000334   200005 630500                    EPPR0   5,,AUTO
         2 000335   000023 631400 xsym               EPPR1   B_VECTNIL+19
         2 000336   000000 701000 xent               TSX1    MINIQC_PL6
         2 000337   000372 702000 2                  TSX2    SADER

     2236     1939    1           RDIR.PATCH=ADIR.PATCH;

   1939  2 000340   000001 470400 0                  LDP0    PO$
         2 000341   000100 100400                    MLR     fill='000'O
         2 000342   000174 000020 xsym               ADSC9   ADIR+124                 cn=0,n=16
         2 000343   000174 000020                    ADSC9   124,,PR0                 cn=0,n=16

     2237     1940    1           CALL MINIQC_PL6(SYS_DPX,ADDR(SADDCWX),,%FCNWDB,TOPDA) ALTRET(SADER);

   1940  2 000344   000017 236000 3                  LDQ     15
         2 000345   200004 756100                    STQ     4,,AUTO
         2 000346   000022 237000 3                  LDAQ    18
         2 000347   200010 757100                    STAQ    8,,AUTO
         2 000350   000001 236000 xsym               LDQ     B_VECTNIL+1
         2 000351   200007 756100                    STQ     7,,AUTO
PL6.E3A0      #008=DORPB File=ISI$FIXSYST.:E05TSI                                TUE 07/29/97 22:51 Page:409
         2 000352   200004 631500                    EPPR1   4,,AUTO
         2 000353   200006 451500                    STP1    6,,AUTO
         2 000354   000016 236000 3                  LDQ     14
         2 000355   200005 756100                    STQ     5,,AUTO
         2 000356   200005 630500                    EPPR0   5,,AUTO
         2 000357   000023 631400 xsym               EPPR1   B_VECTNIL+19
         2 000360   000000 701000 xent               TSX1    MINIQC_PL6
         2 000361   000372 702000 2                  TSX2    SADER

     2238     1941    1           IF MT2WISH~='0'B THEN CALL MINIQ_PL6(PAT2_INDX,0,0,%FCNUNL);

   1941  2 000362   000000 236000 xsym               LDQ     MT2WISH
         2 000363   770000 316003                    CANQ    -4096,DU
         2 000364   000371 600000 2                  TZE     s:1942

   1941  2 000365   000024 630400 3                  EPPR0   20
         2 000366   000022 631400 xsym               EPPR1   B_VECTNIL+18
         2 000367   000000 701000 xent               TSX1    MINIQ_PL6
         2 000370   000000 011000                    NOP     0

     2239     1942    1           RETURN;

   1942  2 000371   000000 702200 xent               TSX2  ! X66_ARET

     2240     1943    1   SADER:
     2241     1944    1           ALTRETURN;

   1944  2 000372   000000 702200 xent  SADER        TSX2  ! X66_AALT

     2242     1945    1   ER_WBUF:
     2243     1946    1           CALL ER_WPATCH;                 /* Err on writing patches; give up    */

   1946  2 000373   000002 631400 xsym  ER_WBUF      EPPR1   B_VECTNIL+2
         2 000374   000000 701000 xent               TSX1    ER_WPATCH
         2 000375   000000 011000                    NOP     0

     2244     1947    1   END DORPB;
PL6.E3A0      #008=DORPB File=ISI$FIXSYST.:E05TSI                                TUE 07/29/97 22:51 Page:410

   1947  2 000376   000000 702200 xent               TSX2  ! X66_ARET
     2245     1948        %EOD;

PL6.E3A0      #008=DORPB File=ISI$FIXSYST.:E05TSI                                TUE 07/29/97 22:51 Page:411
--  Include file information  --

   IS$MACROS.:E05TOU  is referenced.
      No diagnostics issued in procedure DORPB.
PL6.E3A0      #008=DORPB File=ISI$FIXSYST.:E05TSI                                TUE 07/29/97 22:51 Page:412

 **** Variables and constants ****

  ****  Section 000  Data  DORPB

  ****  Scalars and arrays  ****
OctLoc.c.b A Datatyp(siz) R M Lvl/name                 OctLoc.c.b A Datatyp(siz) R M Lvl/name

     1-0-0/w PTR         r     1 PO$                        2-0-0/w STRC        r     1 PTCHDCW
     0-0-0/w STRC        r     1 SADDCWX                    0-0-0/w PTR         r     1 SADX$
     7-0-0/c CHAR(8)     r     1 SBTM                       5-0-0/c CHAR(8)     r     1 SPLV
     3-0-0/c CHAR(8)     r     1 SRUM                       2-0-0/w PTR         r     1 WPTCH$

  ****  SYMREF variables  ****

  ****  Scalars and arrays  ****
OctLoc.c.b A Datatyp(siz) R M Lvl/name                 OctLoc.c.b A Datatyp(siz) R M Lvl/name

     0-0-0/w STRC(8640)  r     1 ADIR                       0-0-0/b STRC(5)     r     1 ADPXF
     0-0-0/b BIT         r     1 BTMPA                      0-0-0/w CHAR(4)     r     1 CP6UL(0:1023)
     0-0-0/b BIT (6)     r     1 CRWISH                     0-0-0/b BIT (6)     r     1 MT2WISH
     0-0-0/b BIT (6)     r     1 MTWISH                     0-0-0/b STRC(3)     r     1 NF_FLG
     0-0-0/w UBIN        r     1 PAT2_INDX                  0-0-0/b BIT         r     1 PLVPA
     0-0-0/c CHAR(80)    r     1 POBUF                      0-0-0/w STRC(36864) r     1 PTCHBF
     0-0-0/b BIT         r     1 RPB_FLAG                   0-0-0/b BIT         r     1 RUMPA
     0-0-0/w UBIN        r     1 SYS_DPX                    0-0-0/w UBIN        r     1 TOPDA
     0-0-0/b BIT         r     1 VOFLG

  ****  BASED and DCB variables  ****

  ****  Scalars and arrays  ****
OctLoc.c.b A Datatyp(siz) R M Lvl/name                 OctLoc.c.b A Datatyp(siz) R M Lvl/name

     0-0-0/w STRC(8640)  r     1 RDIR


   Procedure DORPB requires 255 words for executable code.
PL6.E3A0      #008=DORPB File=ISI$FIXSYST.:E05TSI                                TUE 07/29/97 22:51 Page:413
   Procedure DORPB requires 12 words of local(AUTO) storage.
PL6.E3A0      #008=DORPB File=ISI$FIXSYST.:E05TSI                                TUE 07/29/97 22:51 Page:414
          *** CROSS REFERENCE LISTING ***
**     DENOTES     IDENTIFIER DEFINITION
<<                 IDENTIFIER'S VALUE SET
>>                 IDENTIFIER'S VALUE USED
<>                 IDENTIFIER SET AND/OR USED
--                 IDENTIFIER REFERENCED
PL6.E3A0      #008=DORPB File=ISI$FIXSYST.:E05TSI                                TUE 07/29/97 22:51 Page:415
          MINI XREF LISTING

ADIR
      1295**DCL      1937--ASSIGN
ADIR.FW.ADIR
      1537**DCL      1538--REDEF
ADIR.MONID.M
      1497**DCL      1500--REDEF
ADIR.PATCH
      1481**DCL      1939>>ASSIGN
ADIR.PATCH.DA
      1483**DCL      1931>>CALL
ADIR.PATCH.SIZE
      1484**DCL      1931>>CALL     1932<<ASSIGN   1932>>ASSIGN
ADPXF.P
      1799**DCL      1872>>IF
BTMPA
      1834**DCL      1911>>IF       1912<<ASSIGN
CP6UL
      1838**DCL      1839--REDEF    1842--DCLINIT
CRWISH
      1831**DCL      1874>>IF       1891>>IF       1908>>IF
DOBTM1
      1917**LABEL    1920--GOTO
DOPLV1
      1900**LABEL    1903--GOTO
DORUM1
      1883**LABEL    1886--GOTO
ER_WBUF
      1946**LABEL    1931--CALLALT
ER_WPATCH
      1865**DCL-ENT  1946--CALL
MINIQC_PL6
      1864**DCL-ENT  1931--CALL     1938--CALL     1940--CALL
PL6.E3A0      #008=DORPB File=ISI$FIXSYST.:E05TSI                                TUE 07/29/97 22:51 Page:416
MINIQ_PL6
      1866**DCL-ENT  1941--CALL
MT2WISH
      1829**DCL      1874>>IF       1891>>IF       1908>>IF       1941>>IF
MTWISH
      1828**DCL      1874>>IF       1891>>IF       1908>>IF
NF_FLG
      1802**DCL      1872>>IF
NF_FLG.S
      1805**DCL      1872>>IF
PAT2_INDX
      1830**DCL      1941<>CALL
PLVPA
      1833**DCL      1894>>IF       1895<<ASSIGN
PO$
      1837**DCL      1551--IMP-PTR  1939>>ASSIGN
POBUF
      1836**DCL      1809--DCLINIT  1837--DCLINIT  1883--CALL     1884>>IF       1885--CALL     1900--CALL
      1901>>IF       1902--CALL     1917--CALL     1918>>IF       1919--CALL
PTCHBF
      1839**DCL      1935<<ASSIGN
PTCHBF.NXTWA
      1840**DCL      1929>>IF
PTCHDCW
      1853**DCL      1931--CALL
PTCHDCW.TALLY
      1858**DCL      1930<<ASSIGN
RDIR.FW.RDIR
      1793**DCL      1794--REDEF
RDIR.MONID.M
      1753**DCL      1756--REDEF
RDIR.PATCH
      1737**DCL      1939<<ASSIGN
READ_PATCH
      1863**DCL-ENT  1883--CALL     1900--CALL     1917--CALL
RPB_FLAG
PL6.E3A0      #008=DORPB File=ISI$FIXSYST.:E05TSI                                TUE 07/29/97 22:51 Page:417
      1835**DCL      1881<<ASSIGN   1892<<ASSIGN   1909<<ASSIGN
RUMPA
      1832**DCL      1876>>IF       1877<<ASSIGN
SADDCWX
      1820**DCL      1938--CALL     1940--CALL
SADDCWX.TALLY
      1825**DCL      1937<<ASSIGN
SADER
      1944**LABEL    1938--CALLALT  1940--CALLALT
SADX$
      1809**DCL      1820--REDEF
SBTM
      1870**DCL      1913--CALL
SPLV
      1869**DCL      1896--CALL
SRUM
      1868**DCL      1878--CALL
SYS_DPX
      1808**DCL      1931<>CALL     1938<>CALL     1940<>CALL
TOPDA
      1807**DCL      1938<>CALL     1940<>CALL
VOFLG
      1806**DCL      1927>>IF
WPTCH$
      1842**DCL      1853--REDEF
WRITE_PATCH
      1862**DCL-ENT  1878--CALL     1885--CALL     1896--CALL     1902--CALL     1913--CALL     1919--CALL

PL6.E3A0      #009=WRTFW File=ISI$FIXSYST.:E05TSI                                TUE 07/29/97 22:51 Page:418
     2246        1        /*T***********************************************************/
     2247        2        /*T*                                                         */
     2248        3        /*T* Copyright (c) Bull HN Information Systems Inc., 1997    */
     2249        4        /*T*                                                         */
     2250        5        /*T***********************************************************/
     2251        6        WRTFW:  PROC ALTRET;
     2252        7        /* This program writes FW on disk */
     2253        8        /* or through entry WRTDP writes PO info on disk */
     2254        9        %INCLUDE IS$MACROS;
     2255     1284        %DISKDIR(NAME=ADIR,STCLASS="SYMREF");
     2256     1540    1   DCL POBUF CHAR(4096) SYMREF;
     2257     1541    1   DCL PO$ PTR STATIC INIT(ADDR(POBUF));
     2258     1542        %DCW_STRUCT(NAME=PODCW,STCLASS="REDEF PO$");
     2259     1560    1   DCL S1000_FLG BIT(1) SYMREF;
     2260     1561        %AALS(STCLASS="BASED(AALS$)");          /* AARD LS                            */
     2261     3888    1   DCL AALS$ PTR SYMREF;
     2262     3889    1   DCL INFO$ PTR;
     2263     3890        %PTR_STRUCT(NAME=INFO_PTR,STCLASS="REDEF INFO$");
     2264     3908    1   DCL DUMMY$ PTR;
     2265     3909    1   DCL BUF CHAR(4096) BASED(INFO$);
     2266     3910    1   DCL LGTH SBIN WORD;
     2267     3911    1   DCL DCFWHDR$ PTR SYMREF;
     2268     3912    1   DCL SYS_DPX UBIN WORD SYMREF;
     2269     3913    1   DCL EDCIASK REMEMBER SYMREF;
     2270     3914    1   DCL HDRAAR BIT(1) SYMREF;
     2271     3915    1   DCL HDRMP14 BIT(1) SYMREF;
     2272     3916    1   DCL HDR$ PTR;
     2273     3917    1   DCL I UBIN WORD;
     2274     3918    1   DCL HDRDA UBIN WORD SYMREF;
     2275     3919    1   DCL NAVDA UBIN WORD SYMREF;
     2276     3920    1   DCL RT_CNT UBIN WORD ;
     2277     3921        %DIRHDR(NAME=BAS_HDR,STCLASS="BASED(HDR$)");
     2278     3932        /**/
     2279     3933    1   DCL TYPEC ENTRY(1);
     2280     3934    1   DCL HANG  ENTRY;
     2281     3935    1   DCL MINIQC_PL6 ENTRY(5) ALTRET;
     2282     3936        /**/
PL6.E3A0      #009=WRTFW File=ISI$FIXSYST.:E05TSI                                TUE 07/29/97 22:51 Page:419
     2283     3937        %TEXTC(N#=DPERRM,M#="' Error writing system disk .'");
     2284     3942        /**/
     2285     3943    2           IF S1000_FLG='1'B THEN DO;
     2286     3944    2                 ADIR.FW='0'B;
     2287     3945    2                 RETURN;
     2288     3946    2               END;                        /* THEN                               */
     2289     3947    1             ELSE;
     2290     3948    1           DUMMY$=ADDR(INFO$);             /* To be sure INFO$ is reloaded       */
     2291     3949    1           INFO_PTR='0'B;
     2292     3950    1           INFO_PTR.S_D_FIELD=%ALS_PO;
     2293     3951    2           DO I=0 TO %(FWHDR#-1);          /* Max FW headers                     */
     2294     3952    2             PODCW.TALLY=1024;
     2295     3953    2             AALS.PODESC.BASE=ADIR.FW.BASE(I)*4;
     2296     3954    2             ADIR.FW.DA(I)=NAVDA;
     2297     3955    2             LGTH=ADIR.FW.CS0SIZE(I)+ADIR.FW.MM0SIZE(I);
     2298     3956    2             IF DCFWHDR$=ADDR(ADIR.FW(I)) THEN ADIR.FW.INMEM(I)='0'B; /* Disk FW */
     2299     3957    2               ELSE ADIR.FW.INMEM(I)='1'B;
     2300     3958    2             HDRDA=ADIR.FW.DA(I);
     2301     3959    2   WRTFW1:
     2302     3960    2             IF LGTH<=0 THEN GOTO WRTFW2;
     2303     3961    2               ELSE;
     2304     3962    2             IF LGTH>1024 THEN;
     2305     3963    2               ELSE PODCW.TALLY=LGTH;
     2306     3964    2             LGTH=LGTH-1024;
     2307     3965    2             SUBSTR(POBUF,0,PODCW.TALLY*4)=BUF;
     2308     3966    2             CALL MINIQC_PL6(SYS_DPX,ADDR(PODCW),,%FCNWDB,HDRDA) ALTRET(WRTE);
     2309     3967    2             AALS.PODESC.BASE=AALS.PODESC.BASE+PODCW.TALLY*4;
     2310     3968    2             HDRDA=HDRDA+1;
     2311     3969    2             GOTO WRTFW1;
     2312     3970    2   WRTFW2:
     2313     3971    2             NAVDA=HDRDA;
     2314     3972    2           END;                            /* DO I=                              */
     2315     3973    1           RETURN;
     2316     3974    1   WRTE:
     2317     3975    1           CALL TYPEC(DPERRM);
     2318     3976    1           UNWIND TO EDCIASK;
     2319     3977    1   WRTDP:  ENTRY ALTRET;
PL6.E3A0      #009=WRTFW File=ISI$FIXSYST.:E05TSI                                TUE 07/29/97 22:51 Page:420
     2320     3978        /* Write PO info on disk */
     2321     3979    1           INFO_PTR='0'B;
     2322     3980    1           INFO_PTR.S_D_FIELD=%ALS_PO;
     2323     3981    1           HDR$=ADDR(HDRAAR);
     2324     3982    1   WRTDP0:
     2325     3983    1           AALS.PODESC.BASE=BAS_HDR.BASE*4;
     2326     3984    1           LGTH=BAS_HDR.SIZE;
     2327     3985    1           HDRDA=BAS_HDR.DA;
     2328     3986    1           PODCW.TALLY=1024;
     2329     3987    1   WRTDP1:
     2330     3988    1           IF LGTH<=0 THEN GOTO WRTDP2;
     2331     3989    1             ELSE;
     2332     3990    1           IF LGTH>1024 THEN;
     2333     3991    1             ELSE PODCW.TALLY=LGTH;
     2334     3992    1           LGTH=LGTH-1024;
     2335     3993    1           SUBSTR(POBUF,0,PODCW.TALLY*4)=BUF;
     2336     3994    1           CALL MINIQC_PL6(SYS_DPX,ADDR(PODCW),,%FCNWDB,HDRDA) ALTRET(WRTE);
     2337     3995    1           AALS.PODESC.BASE=AALS.PODESC.BASE+PODCW.TALLY*4;
     2338     3996    1           HDRDA=HDRDA+1;
     2339     3997    1           GOTO WRTDP1;
     2340     3998    1   WRTDP2:
     2341     3999    1           NAVDA=HDRDA;
     2342     4000    1           IF HDR$=ADDR(HDRMP14) THEN RETURN;
     2343     4001    1             ELSE;
     2344     4002    1           HDR$=PINCRW(HDR$,4);
     2345     4003    1           GOTO WRTDP0;
     2346     4004        /* Rewrite AARDVARK on disk */
     2347     4005    1   RWAARD: ENTRY ALTRET;
     2348     4006    1           INFO_PTR='0'B;
     2349     4007    1           INFO_PTR.S_D_FIELD=%ALS_PO;
     2350     4008    1           HDR$=ADDR(HDRAAR);
     2351     4009    1   WRTDPA0:
     2352     4010    1           AALS.PODESC.BASE=BAS_HDR.BASE*4;
     2353     4011    1           LGTH=BAS_HDR.SIZE;
     2354     4012    1           HDRDA=BAS_HDR.DA;
     2355     4013    1           PODCW.TALLY=1024;
     2356     4014    1   WRTDPA1:
PL6.E3A0      #009=WRTFW File=ISI$FIXSYST.:E05TSI                                TUE 07/29/97 22:51 Page:421
     2357     4015    1           IF LGTH<=0 THEN GOTO WRTDPA2;
     2358     4016    1             ELSE;
     2359     4017    1           IF LGTH>1024 THEN;
     2360     4018    1             ELSE PODCW.TALLY=LGTH;
     2361     4019    1           RT_CNT = 0;
     2362     4020    1           LGTH=LGTH-1024;
     2363     4021    1           SUBSTR(POBUF,0,PODCW.TALLY*4)=BUF;
     2364     4022    1   RETRY_IO:
     2365     4023    1           CALL MINIQC_PL6(SYS_DPX,ADDR(PODCW),,%FCNWDB,HDRDA)
     2366     4024    2             WHENALTRETURN DO;
     2367     4025    2                 RT_CNT = RT_CNT + 1;
     2368     4026    2                 IF RT_CNT > 4 THEN
     2369     4027    2                   ALTRETURN;
     2370     4028    2                   ELSE
     2371     4029    2                   GOTO RETRY_IO;
     2372     4030    2               END;
     2373     4031    1           AALS.PODESC.BASE=AALS.PODESC.BASE+PODCW.TALLY*4;
     2374     4032    1           HDRDA=HDRDA+1;
     2375     4033    1           GOTO WRTDPA1;
     2376     4034    1   WRTDPA2:
     2377     4035    1           RETURN;
     2378     4036    1   END WRTFW;
     2379     4037        %EOD;

PL6.E3A0      #009=WRTFW File=ISI$FIXSYST.:E05TSI                                TUE 07/29/97 22:51 Page:422
--  Include file information  --

   IS$MACROS.:E05TOU  is referenced.
      No diagnostics issued in procedure WRTFW.

   Procedure WRTFW requires 236 words for executable code.
   Procedure WRTFW requires 16 words of local(AUTO) storage.

PL6.E3A0      #009=WRTFW File=ISI$FIXSYST.:E05TSI                                TUE 07/29/97 22:51 Page:423

 Object Unit name= WRTFW                                      File name= ISI$FIXSYST.:E05TOU
 UTS= JUL 29 '97 22:51:21.44 TUE                              Compiler= PL-6/E31         Sev=      00
 SharedLib= :SHARED_SYSTEM                                    Alt SharedLib=


    ****  Control sections  ****

 Sect   Type Bound  Init  Size OctSiz  Section name(segment info)
    0   Data  even  none     9     11  WRTFW
    1   Proc  even  none   236    354  WRTFW
    2  RoData even  none     8     10  WRTFW

    ****  Entry defs  ****

                              Check   Calling
                             calling  sequence
  Sect OctLoc Primary Altret sequence   type   Parms  Name
     1      0   yes    yes     yes      Std        0  WRTFW
     1    143          yes     yes      Std        0  WRTDP
     1    250          yes     yes      Std        0  RWAARD

  ****  Data defs  ****

 Sect OctLoc  Name                           Sect OctLoc  Name
    0      1  DPERRM
PL6.E3A0      #009=WRTFW File=ISI$FIXSYST.:E05TSI                                TUE 07/29/97 22:51 Page:424

  ****  Entry refs  ****

         Check        Calling
        calling       sequence
Altret sequence SRef   type   Args  Name
 yes     yes           Std       5 MINIQC_PL6
         yes           Std       1 TYPEC
                       nStd      0 X66_AUTO_0
                       Std       0 B_CONSPOOL_D
                       nStd      0 X66_ARET
                       nStd      0 X66_AUNWIND
                       nStd      0 X66_AALT

  ****  Data refs  ****

  Flags:  r = read only, s = secondary
Flgs Name                             Flgs Name                             Flgs Name
     ADIR                                  POBUF                                 S1000_FLG
     AALS$                                 DCFWHDR$                              SYS_DPX
     EDCIASK                               HDRAAR                                HDRMP14
     HDRDA                                 NAVDA                                 B_VECTNIL

  ****  Segment refs  ****

  Flags:  r = read only, s = secondary
Flgs Name                             Flgs Name                             Flgs Name
     ISSID
PL6.E3A0      #009=WRTFW File=ISI$FIXSYST.:E05TSI                                TUE 07/29/97 22:51 Page:425


     2246        1        /*T***********************************************************/
     2247        2        /*T*                                                         */
     2248        3        /*T* Copyright (c) Bull HN Information Systems Inc., 1997    */
     2249        4        /*T*                                                         */
     2250        5        /*T***********************************************************/
     2251        6        WRTFW:  PROC ALTRET;

      6  1 000000   000000 700200 xent  WRTFW        TSX0  ! X66_AUTO_0
         1 000001   000020 000000                    ZERO    16,0

     2252        7        /* This program writes FW on disk */
     2253        8        /* or through entry WRTDP writes PO info on disk */
     2254        9        %INCLUDE IS$MACROS;
     2255     1284        %DISKDIR(NAME=ADIR,STCLASS="SYMREF");
     2256     1540    1   DCL POBUF CHAR(4096) SYMREF;
     2257     1541    1   DCL PO$ PTR STATIC INIT(ADDR(POBUF));
     2258     1542        %DCW_STRUCT(NAME=PODCW,STCLASS="REDEF PO$");
     2259     1560    1   DCL S1000_FLG BIT(1) SYMREF;
     2260     1561        %AALS(STCLASS="BASED(AALS$)");          /* AARD LS                            */
     2261     3888    1   DCL AALS$ PTR SYMREF;
     2262     3889    1   DCL INFO$ PTR;
     2263     3890        %PTR_STRUCT(NAME=INFO_PTR,STCLASS="REDEF INFO$");
     2264     3908    1   DCL DUMMY$ PTR;
     2265     3909    1   DCL BUF CHAR(4096) BASED(INFO$);
     2266     3910    1   DCL LGTH SBIN WORD;
     2267     3911    1   DCL DCFWHDR$ PTR SYMREF;
     2268     3912    1   DCL SYS_DPX UBIN WORD SYMREF;
     2269     3913    1   DCL EDCIASK REMEMBER SYMREF;
     2270     3914    1   DCL HDRAAR BIT(1) SYMREF;
     2271     3915    1   DCL HDRMP14 BIT(1) SYMREF;
     2272     3916    1   DCL HDR$ PTR;
     2273     3917    1   DCL I UBIN WORD;
     2274     3918    1   DCL HDRDA UBIN WORD SYMREF;
     2275     3919    1   DCL NAVDA UBIN WORD SYMREF;
     2276     3920    1   DCL RT_CNT UBIN WORD ;
     2277     3921        %DIRHDR(NAME=BAS_HDR,STCLASS="BASED(HDR$)");
PL6.E3A0      #009=WRTFW File=ISI$FIXSYST.:E05TSI                                TUE 07/29/97 22:51 Page:426
     2278     3932        /**/
     2279     3933    1   DCL TYPEC ENTRY(1);
     2280     3934    1   DCL HANG  ENTRY;
     2281     3935    1   DCL MINIQC_PL6 ENTRY(5) ALTRET;
     2282     3936        /**/
     2283     3937        %TEXTC(N#=DPERRM,M#="' Error writing system disk .'");
     2284     3942        /**/
     2285     3943    2           IF S1000_FLG='1'B THEN DO;

   3943  1 000002   000000 234000 xsym               SZN     S1000_FLG
         1 000003   000010 605000 1                  TPL     s:3948

     2286     3944    2                 ADIR.FW='0'B;

   3944  1 000004   000000 100400                    MLR     fill='000'O
         1 000005   000002 000001 xsym               ADSC9   B_VECTNIL+2              cn=0,n=1
         1 000006   000240 000500 xsym               ADSC9   ADIR+160                 cn=0,n=320

     2287     3945    2                 RETURN;

   3945  1 000007   000000 702200 xent               TSX2  ! X66_ARET

     2288     3946    2               END;                        /* THEN                               */
     2289     3947    1             ELSE;
     2290     3948    1           DUMMY$=ADDR(INFO$);             /* To be sure INFO$ is reloaded       */

   3948  1 000010   200003 630500                    EPPR0   INFO$,,AUTO
         1 000011   200004 450500                    STP0    DUMMY$,,AUTO

     2291     3949    1           INFO_PTR='0'B;

   3949  1 000012   200003 450100                    STZ     INFO$,,AUTO

     2292     3950    1           INFO_PTR.S_D_FIELD=%ALS_PO;

   3950  1 000013   006006 236007                    LDQ     3078,DL
         1 000014   200003 752103                    STCQ    INFO$,'03'O,AUTO
PL6.E3A0      #009=WRTFW File=ISI$FIXSYST.:E05TSI                                TUE 07/29/97 22:51 Page:427

     2293     3951    2           DO I=0 TO %(FWHDR#-1);          /* Max FW headers                     */

   3951  1 000015   200007 450100                    STZ     I,,AUTO

     2294     3952    2             PODCW.TALLY=1024;

   3952  1 000016   002000 236007                    LDQ     1024,DL
         1 000017   000000 752003 0                  STCQ    PO$,'03'O

     2295     3953    2             AALS.PODESC.BASE=ADIR.FW.BASE(I)*4;

   3953  1 000020   200007 235100                    LDA     I,,AUTO
         1 000021   000002 735000                    ALS     2
         1 000022   000240 236005 xsym               LDQ     ADIR+160,AL
         1 000023   000002 736000                    QLS     2
         1 000024   000000 470400 xsym               LDP0    AALS$
         1 000025   000015 756100                    STQ     13,,PR0

     2296     3954    2             ADIR.FW.DA(I)=NAVDA;

   3954  1 000026   000000 236000 xsym               LDQ     NAVDA
         1 000027   000241 756005 xsym               STQ     ADIR+161,AL

     2297     3955    2             LGTH=ADIR.FW.CS0SIZE(I)+ADIR.FW.MM0SIZE(I);

   3955  1 000030   000242 236005 xsym               LDQ     ADIR+162,AL
         1 000031   777777 376007                    ANQ     -1,DL
         1 000032   200012 756100                    STQ     RT_CNT+2,,AUTO
         1 000033   000242 236005 xsym               LDQ     ADIR+162,AL
         1 000034   000022 772000                    QRL     18
         1 000035   200012 036100                    ADLQ    RT_CNT+2,,AUTO
         1 000036   200005 756100                    STQ     LGTH,,AUTO

     2298     3956    2             IF DCFWHDR$=ADDR(ADIR.FW(I)) THEN ADIR.FW.INMEM(I)='0'B; /* Disk FW */

   3956  1 000037   200007 236100                    LDQ     I,,AUTO
PL6.E3A0      #009=WRTFW File=ISI$FIXSYST.:E05TSI                                TUE 07/29/97 22:51 Page:428
         1 000040   000024 736000                    QLS     20
         1 000041   000000 036000 2                  ADLQ    0
         1 000042   000000 116000 xsym               CMPQ    DCFWHDR$
         1 000043   000047 601000 1                  TNZ     s:3957

   3956  1 000044   000031 236000 xsym               LDQ     B_VECTNIL+25
         1 000045   000240 356005 xsym               ANSQ    ADIR+160,AL
         1 000046   000051 710000 1                  TRA     s:3958

     2299     3957    2               ELSE ADIR.FW.INMEM(I)='1'B;

   3957  1 000047   400000 236003                    LDQ     -131072,DU
         1 000050   000240 256005 xsym               ORSQ    ADIR+160,AL

     2300     3958    2             HDRDA=ADIR.FW.DA(I);

   3958  1 000051   000241 235005 xsym               LDA     ADIR+161,AL
         1 000052   000000 755000 xsym               STA     HDRDA

     2301     3959    2   WRTFW1:
     2302     3960    2             IF LGTH<=0 THEN GOTO WRTFW2;

   3960  1 000053   200005 235100       WRTFW1       LDA     LGTH,,AUTO
         1 000054   000124 604400 1                  TMOZ    WRTFW2

     2303     3961    2               ELSE;
     2304     3962    2             IF LGTH>1024 THEN;

   3962  1 000055   002000 115007                    CMPA    1024,DL
         1 000056   000061 605400 1                  TPNZ    s:3964

     2305     3963    2               ELSE PODCW.TALLY=LGTH;

   3963  1 000057   200005 236100                    LDQ     LGTH,,AUTO
         1 000060   000000 752003 0                  STCQ    PO$,'03'O

     2306     3964    2             LGTH=LGTH-1024;
PL6.E3A0      #009=WRTFW File=ISI$FIXSYST.:E05TSI                                TUE 07/29/97 22:51 Page:429

   3964  1 000061   002000 336007                    LCQ     1024,DL
         1 000062   200005 056100                    ASQ     LGTH,,AUTO

     2307     3965    2             SUBSTR(POBUF,0,PODCW.TALLY*4)=BUF;

   3965  1 000063   000000 236000 0                  LDQ     PO$
         1 000064   000002 736000                    QLS     2
         1 000065   037774 376007                    ANQ     16380,DL
         1 000066   200003 470500                    LDP0    INFO$,,AUTO
         1 000067   010000 220003                    LDX0    4096,DU
         1 000070   000000 621006                    EAX1    0,QL
         1 000071   040040 100540                    MLR     fill='040'O
         1 000072   000000 000010                    ADSC9   0,,PR0                   cn=0,n=*X0
         1 000073   000000 000011 xsym               ADSC9   POBUF                    cn=0,n=*X1

     2308     3966    2             CALL MINIQC_PL6(SYS_DPX,ADDR(PODCW),,%FCNWDB,HDRDA) ALTRET(WRTE);

   3966  1 000074   000001 236000 2                  LDQ     1
         1 000075   200012 756100                    STQ     RT_CNT+2,,AUTO
         1 000076   000002 237000 2                  LDAQ    2
         1 000077   200016 757100                    STAQ    RT_CNT+6,,AUTO
         1 000100   000001 236000 xsym               LDQ     B_VECTNIL+1
         1 000101   200015 756100                    STQ     RT_CNT+5,,AUTO
         1 000102   200012 631500                    EPPR1   RT_CNT+2,,AUTO
         1 000103   200014 451500                    STP1    RT_CNT+4,,AUTO
         1 000104   000004 236000 2                  LDQ     4
         1 000105   200013 756100                    STQ     RT_CNT+3,,AUTO
         1 000106   200013 630500                    EPPR0   RT_CNT+3,,AUTO
         1 000107   000023 631400 xsym               EPPR1   B_VECTNIL+19
         1 000110   000000 701000 xent               TSX1    MINIQC_PL6
         1 000111   000134 702000 1                  TSX2    WRTE

     2309     3967    2             AALS.PODESC.BASE=AALS.PODESC.BASE+PODCW.TALLY*4;

   3967  1 000112   000000 470400 xsym               LDP0    AALS$
         1 000113   000000 236000 0                  LDQ     PO$
PL6.E3A0      #009=WRTFW File=ISI$FIXSYST.:E05TSI                                TUE 07/29/97 22:51 Page:430
         1 000114   000002 736000                    QLS     2
         1 000115   037774 376007                    ANQ     16380,DL
         1 000116   000015 036100                    ADLQ    13,,PR0
         1 000117   000015 756100                    STQ     13,,PR0

     2310     3968    2             HDRDA=HDRDA+1;

   3968  1 000120   000000 235000 xsym               LDA     HDRDA
         1 000121   000001 035007                    ADLA    1,DL
         1 000122   000000 755000 xsym               STA     HDRDA

     2311     3969    2             GOTO WRTFW1;

   3969  1 000123   000053 710000 1                  TRA     WRTFW1

     2312     3970    2   WRTFW2:
     2313     3971    2             NAVDA=HDRDA;

   3971  1 000124   000000 236000 xsym  WRTFW2       LDQ     HDRDA
         1 000125   000000 756000 xsym               STQ     NAVDA

     2314     3972    2           END;                            /* DO I=                              */

   3972  1 000126   200007 235100                    LDA     I,,AUTO
         1 000127   000001 035007                    ADLA    1,DL
         1 000130   200007 755100                    STA     I,,AUTO
         1 000131   000024 115007                    CMPA    20,DL
         1 000132   000016 602000 1                  TNC     s:3952

     2315     3973    1           RETURN;

   3973  1 000133   000000 702200 xent               TSX2  ! X66_ARET

     2316     3974    1   WRTE:
     2317     3975    1           CALL TYPEC(DPERRM);

   3975  1 000134   000005 630400 2     WRTE         EPPR0   5
PL6.E3A0      #009=WRTFW File=ISI$FIXSYST.:E05TSI                                TUE 07/29/97 22:51 Page:431
         1 000135   000017 631400 xsym               EPPR1   B_VECTNIL+15
         1 000136   000000 701000 xent               TSX1    TYPEC
         1 000137   000000 011000                    NOP     0

     2318     3976    1           UNWIND TO EDCIASK;

   3976  1 000140   000000 237200 xsym               LDAQ  ! EDCIASK
         1 000141   000000 700200 xent               TSX0  ! X66_AUNWIND
         1 000142   000000 000200                    ZERO    0,128

     2319     3977    1   WRTDP:  ENTRY ALTRET;

   3977  1 000143   000000 700200 xent  WRTDP        TSX0  ! X66_AUTO_0
         1 000144   000020 000000                    ZERO    16,0

     2320     3978        /* Write PO info on disk */
     2321     3979    1           INFO_PTR='0'B;

   3979  1 000145   200003 450100                    STZ     INFO$,,AUTO

     2322     3980    1           INFO_PTR.S_D_FIELD=%ALS_PO;

   3980  1 000146   006006 236007                    LDQ     3078,DL
         1 000147   200003 752103                    STCQ    INFO$,'03'O,AUTO

     2323     3981    1           HDR$=ADDR(HDRAAR);

   3981  1 000150   000006 236000 2                  LDQ     6
         1 000151   200006 756100                    STQ     HDR$,,AUTO

     2324     3982    1   WRTDP0:
     2325     3983    1           AALS.PODESC.BASE=BAS_HDR.BASE*4;

   3983  1 000152   200006 470500       WRTDP0       LDP0    HDR$,,AUTO
         1 000153   000000 471400 xsym               LDP1    AALS$
         1 000154   000000 235100                    LDA     0,,PR0
         1 000155   000002 735000                    ALS     2
PL6.E3A0      #009=WRTFW File=ISI$FIXSYST.:E05TSI                                TUE 07/29/97 22:51 Page:432
         1 000156   100015 755100                    STA     13,,PR1

     2326     3984    1           LGTH=BAS_HDR.SIZE;

   3984  1 000157   000002 235100                    LDA     2,,PR0
         1 000160   200005 755100                    STA     LGTH,,AUTO

     2327     3985    1           HDRDA=BAS_HDR.DA;

   3985  1 000161   000001 235100                    LDA     1,,PR0
         1 000162   000000 755000 xsym               STA     HDRDA

     2328     3986    1           PODCW.TALLY=1024;

   3986  1 000163   002000 236007                    LDQ     1024,DL
         1 000164   000000 752003 0                  STCQ    PO$,'03'O

     2329     3987    1   WRTDP1:
     2330     3988    1           IF LGTH<=0 THEN GOTO WRTDP2;

   3988  1 000165   200005 235100       WRTDP1       LDA     LGTH,,AUTO
         1 000166   000236 604400 1                  TMOZ    WRTDP2

     2331     3989    1             ELSE;
     2332     3990    1           IF LGTH>1024 THEN;

   3990  1 000167   002000 115007                    CMPA    1024,DL
         1 000170   000173 605400 1                  TPNZ    s:3992

     2333     3991    1             ELSE PODCW.TALLY=LGTH;

   3991  1 000171   200005 236100                    LDQ     LGTH,,AUTO
         1 000172   000000 752003 0                  STCQ    PO$,'03'O

     2334     3992    1           LGTH=LGTH-1024;

   3992  1 000173   002000 336007                    LCQ     1024,DL
PL6.E3A0      #009=WRTFW File=ISI$FIXSYST.:E05TSI                                TUE 07/29/97 22:51 Page:433
         1 000174   200005 056100                    ASQ     LGTH,,AUTO

     2335     3993    1           SUBSTR(POBUF,0,PODCW.TALLY*4)=BUF;

   3993  1 000175   000000 236000 0                  LDQ     PO$
         1 000176   000002 736000                    QLS     2
         1 000177   037774 376007                    ANQ     16380,DL
         1 000200   200003 470500                    LDP0    INFO$,,AUTO
         1 000201   010000 220003                    LDX0    4096,DU
         1 000202   000000 621006                    EAX1    0,QL
         1 000203   040040 100540                    MLR     fill='040'O
         1 000204   000000 000010                    ADSC9   0,,PR0                   cn=0,n=*X0
         1 000205   000000 000011 xsym               ADSC9   POBUF                    cn=0,n=*X1

     2336     3994    1           CALL MINIQC_PL6(SYS_DPX,ADDR(PODCW),,%FCNWDB,HDRDA) ALTRET(WRTE);

   3994  1 000206   000001 236000 2                  LDQ     1
         1 000207   200012 756100                    STQ     RT_CNT+2,,AUTO
         1 000210   000002 237000 2                  LDAQ    2
         1 000211   200016 757100                    STAQ    RT_CNT+6,,AUTO
         1 000212   000001 236000 xsym               LDQ     B_VECTNIL+1
         1 000213   200015 756100                    STQ     RT_CNT+5,,AUTO
         1 000214   200012 631500                    EPPR1   RT_CNT+2,,AUTO
         1 000215   200014 451500                    STP1    RT_CNT+4,,AUTO
         1 000216   000004 236000 2                  LDQ     4
         1 000217   200013 756100                    STQ     RT_CNT+3,,AUTO
         1 000220   200013 630500                    EPPR0   RT_CNT+3,,AUTO
         1 000221   000023 631400 xsym               EPPR1   B_VECTNIL+19
         1 000222   000000 701000 xent               TSX1    MINIQC_PL6
         1 000223   000134 702000 1                  TSX2    WRTE

     2337     3995    1           AALS.PODESC.BASE=AALS.PODESC.BASE+PODCW.TALLY*4;

   3995  1 000224   000000 470400 xsym               LDP0    AALS$
         1 000225   000000 236000 0                  LDQ     PO$
         1 000226   000002 736000                    QLS     2
         1 000227   037774 376007                    ANQ     16380,DL
PL6.E3A0      #009=WRTFW File=ISI$FIXSYST.:E05TSI                                TUE 07/29/97 22:51 Page:434
         1 000230   000015 036100                    ADLQ    13,,PR0
         1 000231   000015 756100                    STQ     13,,PR0

     2338     3996    1           HDRDA=HDRDA+1;

   3996  1 000232   000000 235000 xsym               LDA     HDRDA
         1 000233   000001 035007                    ADLA    1,DL
         1 000234   000000 755000 xsym               STA     HDRDA

     2339     3997    1           GOTO WRTDP1;

   3997  1 000235   000165 710000 1                  TRA     WRTDP1

     2340     3998    1   WRTDP2:
     2341     3999    1           NAVDA=HDRDA;

   3999  1 000236   000000 236000 xsym  WRTDP2       LDQ     HDRDA
         1 000237   000000 756000 xsym               STQ     NAVDA

     2342     4000    1           IF HDR$=ADDR(HDRMP14) THEN RETURN;

   4000  1 000240   000007 236000 2                  LDQ     7
         1 000241   200006 116100                    CMPQ    HDR$,,AUTO
         1 000242   000244 601000 1                  TNZ     s:4002

   4000  1 000243   000000 702200 xent               TSX2  ! X66_ARET

     2343     4001    1             ELSE;
     2344     4002    1           HDR$=PINCRW(HDR$,4);

   4002  1 000244   200006 236100                    LDQ     HDR$,,AUTO
         1 000245   000004 036003                    ADLQ    4,DU
         1 000246   200006 756100                    STQ     HDR$,,AUTO

     2345     4003    1           GOTO WRTDP0;

   4003  1 000247   000152 710000 1                  TRA     WRTDP0
PL6.E3A0      #009=WRTFW File=ISI$FIXSYST.:E05TSI                                TUE 07/29/97 22:51 Page:435

     2346     4004        /* Rewrite AARDVARK on disk */
     2347     4005    1   RWAARD: ENTRY ALTRET;

   4005  1 000250   000000 700200 xent  RWAARD       TSX0  ! X66_AUTO_0
         1 000251   000020 000000                    ZERO    16,0

     2348     4006    1           INFO_PTR='0'B;

   4006  1 000252   200003 450100                    STZ     INFO$,,AUTO

     2349     4007    1           INFO_PTR.S_D_FIELD=%ALS_PO;

   4007  1 000253   006006 236007                    LDQ     3078,DL
         1 000254   200003 752103                    STCQ    INFO$,'03'O,AUTO

     2350     4008    1           HDR$=ADDR(HDRAAR);

   4008  1 000255   000006 236000 2                  LDQ     6
         1 000256   200006 756100                    STQ     HDR$,,AUTO

     2351     4009    1   WRTDPA0:
     2352     4010    1           AALS.PODESC.BASE=BAS_HDR.BASE*4;

   4010  1 000257   200006 470500       WRTDPA0      LDP0    HDR$,,AUTO
         1 000260   000000 471400 xsym               LDP1    AALS$
         1 000261   000000 235100                    LDA     0,,PR0
         1 000262   000002 735000                    ALS     2
         1 000263   100015 755100                    STA     13,,PR1

     2353     4011    1           LGTH=BAS_HDR.SIZE;

   4011  1 000264   000002 235100                    LDA     2,,PR0
         1 000265   200005 755100                    STA     LGTH,,AUTO

     2354     4012    1           HDRDA=BAS_HDR.DA;

PL6.E3A0      #009=WRTFW File=ISI$FIXSYST.:E05TSI                                TUE 07/29/97 22:51 Page:436
   4012  1 000266   000001 235100                    LDA     1,,PR0
         1 000267   000000 755000 xsym               STA     HDRDA

     2355     4013    1           PODCW.TALLY=1024;

   4013  1 000270   002000 236007                    LDQ     1024,DL
         1 000271   000000 752003 0                  STCQ    PO$,'03'O

     2356     4014    1   WRTDPA1:
     2357     4015    1           IF LGTH<=0 THEN GOTO WRTDPA2;

   4015  1 000272   200005 235100       WRTDPA1      LDA     LGTH,,AUTO
         1 000273   000353 604400 1                  TMOZ    WRTDPA2

     2358     4016    1             ELSE;
     2359     4017    1           IF LGTH>1024 THEN;

   4017  1 000274   002000 115007                    CMPA    1024,DL
         1 000275   000300 605400 1                  TPNZ    s:4019

     2360     4018    1             ELSE PODCW.TALLY=LGTH;

   4018  1 000276   200005 236100                    LDQ     LGTH,,AUTO
         1 000277   000000 752003 0                  STCQ    PO$,'03'O

     2361     4019    1           RT_CNT = 0;

   4019  1 000300   200010 450100                    STZ     RT_CNT,,AUTO

     2362     4020    1           LGTH=LGTH-1024;

   4020  1 000301   002000 336007                    LCQ     1024,DL
         1 000302   200005 056100                    ASQ     LGTH,,AUTO

     2363     4021    1           SUBSTR(POBUF,0,PODCW.TALLY*4)=BUF;

   4021  1 000303   000000 236000 0                  LDQ     PO$
PL6.E3A0      #009=WRTFW File=ISI$FIXSYST.:E05TSI                                TUE 07/29/97 22:51 Page:437
         1 000304   000002 736000                    QLS     2
         1 000305   037774 376007                    ANQ     16380,DL
         1 000306   200003 470500                    LDP0    INFO$,,AUTO
         1 000307   010000 220003                    LDX0    4096,DU
         1 000310   000000 621006                    EAX1    0,QL
         1 000311   040040 100540                    MLR     fill='040'O
         1 000312   000000 000010                    ADSC9   0,,PR0                   cn=0,n=*X0
         1 000313   000000 000011 xsym               ADSC9   POBUF                    cn=0,n=*X1

     2364     4022    1   RETRY_IO:
     2365     4023    1           CALL MINIQC_PL6(SYS_DPX,ADDR(PODCW),,%FCNWDB,HDRDA)

   4023  1 000314   000001 236000 2     RETRY_IO     LDQ     1
         1 000315   200012 756100                    STQ     RT_CNT+2,,AUTO
         1 000316   000002 237000 2                  LDAQ    2
         1 000317   200016 757100                    STAQ    RT_CNT+6,,AUTO
         1 000320   000001 236000 xsym               LDQ     B_VECTNIL+1
         1 000321   200015 756100                    STQ     RT_CNT+5,,AUTO
         1 000322   200012 630500                    EPPR0   RT_CNT+2,,AUTO
         1 000323   200014 450500                    STP0    RT_CNT+4,,AUTO
         1 000324   000004 236000 2                  LDQ     4
         1 000325   200013 756100                    STQ     RT_CNT+3,,AUTO
         1 000326   200013 630500                    EPPR0   RT_CNT+3,,AUTO
         1 000327   000023 631400 xsym               EPPR1   B_VECTNIL+19
         1 000330   000000 701000 xent               TSX1    MINIQC_PL6
         1 000331   000333 702000 1                  TSX2    s:4025
         1 000332   000341 710000 1                  TRA     s:4031

     2366     4024    2             WHENALTRETURN DO;

     2367     4025    2                 RT_CNT = RT_CNT + 1;

   4025  1 000333   200010 235100                    LDA     RT_CNT,,AUTO
         1 000334   000001 035007                    ADLA    1,DL
         1 000335   200010 755100                    STA     RT_CNT,,AUTO

     2368     4026    2                 IF RT_CNT > 4 THEN
PL6.E3A0      #009=WRTFW File=ISI$FIXSYST.:E05TSI                                TUE 07/29/97 22:51 Page:438

   4026  1 000336   000005 115007                    CMPA    5,DL
         1 000337   000314 602000 1                  TNC     RETRY_IO

     2369     4027    2                   ALTRETURN;

   4027  1 000340   000000 702200 xent               TSX2  ! X66_AALT

     2370     4028    2                   ELSE
     2371     4029    2                   GOTO RETRY_IO;
     2372     4030    2               END;
     2373     4031    1           AALS.PODESC.BASE=AALS.PODESC.BASE+PODCW.TALLY*4;

   4031  1 000341   000000 470400 xsym               LDP0    AALS$
         1 000342   000000 236000 0                  LDQ     PO$
         1 000343   000002 736000                    QLS     2
         1 000344   037774 376007                    ANQ     16380,DL
         1 000345   000015 036100                    ADLQ    13,,PR0
         1 000346   000015 756100                    STQ     13,,PR0

     2374     4032    1           HDRDA=HDRDA+1;

   4032  1 000347   000000 235000 xsym               LDA     HDRDA
         1 000350   000001 035007                    ADLA    1,DL
         1 000351   000000 755000 xsym               STA     HDRDA

     2375     4033    1           GOTO WRTDPA1;

   4033  1 000352   000272 710000 1                  TRA     WRTDPA1

     2376     4034    1   WRTDPA2:
     2377     4035    1           RETURN;

   4035  1 000353   000000 702200 xent  WRTDPA2      TSX2  ! X66_ARET
     2378     4036    1   END WRTFW;
     2379     4037        %EOD;

PL6.E3A0      #009=WRTFW File=ISI$FIXSYST.:E05TSI                                TUE 07/29/97 22:51 Page:439
--  Include file information  --

   IS$MACROS.:E05TOU  is referenced.
      No diagnostics issued in procedure WRTFW.
PL6.E3A0      #009=WRTFW File=ISI$FIXSYST.:E05TSI                                TUE 07/29/97 22:51 Page:440

 **** Variables and constants ****

  ****  Section 000  Data  WRTFW

  ****  Scalars and arrays  ****
OctLoc.c.b A Datatyp(siz) R M Lvl/name                 OctLoc.c.b A Datatyp(siz) R M Lvl/name

     1-0-0/w STRC(288)   r     1 DPERRM                     0-0-0/w PTR         r     1 PO$
     0-0-0/w STRC        r     1 PODCW

  ****  Auto variables  ****

  ****  Scalars and arrays  ****
OctLoc.c.b A Datatyp(siz) R M Lvl/name                 OctLoc.c.b A Datatyp(siz) R M Lvl/name

     4-0-0/w PTR         r     1 DUMMY$                     6-0-0/w PTR         r     1 HDR$
     7-0-0/w UBIN        r     1 I                          3-0-0/w PTR         r     1 INFO$
     3-0-0/w STRC        r     1 INFO_PTR                   5-0-0/w SBIN        r     1 LGTH
    10-0-0/w UBIN        r     1 RT_CNT

  ****  SYMREF variables  ****

  ****  Scalars and arrays  ****
OctLoc.c.b A Datatyp(siz) R M Lvl/name                 OctLoc.c.b A Datatyp(siz) R M Lvl/name

     0-0-0/w PTR         r     1 AALS$                      0-0-0/w STRC(8640)  r     1 ADIR
     0-0-0/w PTR         r     1 DCFWHDR$                   0-0-0/d REMB        r     1 EDCIASK
     0-0-0/b BIT         r     1 HDRAAR                     0-0-0/w UBIN        r     1 HDRDA
     0-0-0/b BIT         r     1 HDRMP14                    0-0-0/w UBIN        r     1 NAVDA
     0-0-0/c CHAR(4096)  r     1 POBUF                      0-0-0/b BIT         r     1 S1000_FLG
     0-0-0/w UBIN        r     1 SYS_DPX

  ****  BASED and DCB variables  ****

  ****  Scalars and arrays  ****
OctLoc.c.b A Datatyp(siz) R M Lvl/name                 OctLoc.c.b A Datatyp(siz) R M Lvl/name

PL6.E3A0      #009=WRTFW File=ISI$FIXSYST.:E05TSI                                TUE 07/29/97 22:51 Page:441
     0-0-0/d STRC(7560)  r     1 AALS                       0-0-0/w STRC(144)   r     1 BAS_HDR
     0-0-0/c CHAR(4096)  r     1 BUF


   Procedure WRTFW requires 236 words for executable code.
   Procedure WRTFW requires 16 words of local(AUTO) storage.
PL6.E3A0      #009=WRTFW File=ISI$FIXSYST.:E05TSI                                TUE 07/29/97 22:51 Page:442
          *** CROSS REFERENCE LISTING ***
**     DENOTES     IDENTIFIER DEFINITION
<<                 IDENTIFIER'S VALUE SET
>>                 IDENTIFIER'S VALUE USED
<>                 IDENTIFIER SET AND/OR USED
--                 IDENTIFIER REFERENCED
PL6.E3A0      #009=WRTFW File=ISI$FIXSYST.:E05TSI                                TUE 07/29/97 22:51 Page:443
          MINI XREF LISTING

AALS.PODESC.BASE
      1724**DCL      3953<<ASSIGN   3967<<ASSIGN   3967>>ASSIGN   3983<<ASSIGN   3995<<ASSIGN   3995>>ASSIGN
      4010<<ASSIGN   4031<<ASSIGN   4031>>ASSIGN
AALS$
      3888**DCL      1572--IMP-PTR  3953>>ASSIGN   3967>>ASSIGN   3967>>ASSIGN   3983>>ASSIGN   3995>>ASSIGN
      3995>>ASSIGN   4010>>ASSIGN   4031>>ASSIGN   4031>>ASSIGN
ADIR.FW
      1531**DCL      3944<<ASSIGN   3956--IF
ADIR.FW.ADIR
      1537**DCL      1538--REDEF
ADIR.FW.BASE
      1533**DCL      3953>>ASSIGN
ADIR.FW.CS0SIZE
      1535**DCL      3955>>ASSIGN
ADIR.FW.DA
      1534**DCL      3954<<ASSIGN   3958>>ASSIGN
ADIR.FW.INMEM
      1532**DCL      3956<<ASSIGN   3957<<ASSIGN
ADIR.FW.MM0SIZE
      1536**DCL      3955>>ASSIGN
ADIR.MONID.M
      1497**DCL      1500--REDEF
BAS_HDR.BASE
      3923**DCL      3983>>ASSIGN   4010>>ASSIGN
BAS_HDR.DA
      3924**DCL      3925--REDEF    3985>>ASSIGN   4012>>ASSIGN
BAS_HDR.SIZE
      3928**DCL      3984>>ASSIGN   4011>>ASSIGN
BUF
      3909**DCL      3965>>ASSIGN   3993>>ASSIGN   4021>>ASSIGN
DCFWHDR$
      3911**DCL      3956>>IF
PL6.E3A0      #009=WRTFW File=ISI$FIXSYST.:E05TSI                                TUE 07/29/97 22:51 Page:444
DPERRM
      3938**DCL      3975<>CALL
DUMMY$
      3908**DCL      3948<<ASSIGN
EDCIASK
      3913**DCL      3976>>UNWIND
HDR$
      3916**DCL      3922--IMP-PTR  3981<<ASSIGN   3983>>ASSIGN   3984>>ASSIGN   3985>>ASSIGN   4000>>IF
      4002<<ASSIGN   4002>>ASSIGN   4008<<ASSIGN   4010>>ASSIGN   4011>>ASSIGN   4012>>ASSIGN
HDRAAR
      3914**DCL      3981--ASSIGN   4008--ASSIGN
HDRDA
      3918**DCL      3958<<ASSIGN   3966<>CALL     3968<<ASSIGN   3968>>ASSIGN   3971>>ASSIGN   3985<<ASSIGN
      3994<>CALL     3996<<ASSIGN   3996>>ASSIGN   3999>>ASSIGN   4012<<ASSIGN   4023<>CALL     4032<<ASSIGN
      4032>>ASSIGN
HDRMP14
      3915**DCL      4000--IF
I
      3917**DCL      3951<<DOINDEX  3953>>ASSIGN   3954>>ASSIGN   3955>>ASSIGN   3955>>ASSIGN   3956>>IF
      3956>>ASSIGN   3957>>ASSIGN   3958>>ASSIGN
INFO$
      3889**DCL      3901--REDEF    3909--IMP-PTR  3948--ASSIGN   3965>>ASSIGN   3993>>ASSIGN   4021>>ASSIGN
INFO_PTR
      3901**DCL      3949<<ASSIGN   3979<<ASSIGN   4006<<ASSIGN
INFO_PTR.S_D_FIELD
      3905**DCL      3950<<ASSIGN   3980<<ASSIGN   4007<<ASSIGN
LGTH
      3910**DCL      3955<<ASSIGN   3960>>IF       3962>>IF       3963>>ASSIGN   3964<<ASSIGN   3964>>ASSIGN
      3984<<ASSIGN   3988>>IF       3990>>IF       3991>>ASSIGN   3992<<ASSIGN   3992>>ASSIGN   4011<<ASSIGN
      4015>>IF       4017>>IF       4018>>ASSIGN   4020<<ASSIGN   4020>>ASSIGN
MINIQC_PL6
      3935**DCL-ENT  3966--CALL     3994--CALL     4023--CALL
NAVDA
      3919**DCL      3954>>ASSIGN   3971<<ASSIGN   3999<<ASSIGN
PO$
      1541**DCL      1552--REDEF
PL6.E3A0      #009=WRTFW File=ISI$FIXSYST.:E05TSI                                TUE 07/29/97 22:51 Page:445
POBUF
      1540**DCL      1541--DCLINIT  3965<<ASSIGN   3993<<ASSIGN   4021<<ASSIGN
PODCW
      1552**DCL      3966--CALL     3994--CALL     4023--CALL
PODCW.TALLY
      1557**DCL      3952<<ASSIGN   3963<<ASSIGN   3965>>ASSIGN   3967>>ASSIGN   3986<<ASSIGN   3991<<ASSIGN
      3993>>ASSIGN   3995>>ASSIGN   4013<<ASSIGN   4018<<ASSIGN   4021>>ASSIGN   4031>>ASSIGN
RETRY_IO
      4023**LABEL    4029--GOTO
RT_CNT
      3920**DCL      4019<<ASSIGN   4025<<ASSIGN   4025>>ASSIGN   4026>>IF
S1000_FLG
      1560**DCL      3943>>IF
SYS_DPX
      3912**DCL      3966<>CALL     3994<>CALL     4023<>CALL
TYPEC
      3933**DCL-ENT  3975--CALL
WRTDP0
      3983**LABEL    4003--GOTO
WRTDP1
      3988**LABEL    3997--GOTO
WRTDP2
      3999**LABEL    3988--GOTO
WRTDPA1
      4015**LABEL    4033--GOTO
WRTDPA2
      4035**LABEL    4015--GOTO
WRTE
      3975**LABEL    3966--CALLALT  3994--CALLALT
WRTFW1
      3960**LABEL    3969--GOTO
WRTFW2
      3971**LABEL    3960--GOTO

PL6.E3A0      #010=SET_MODE File=ISI$FIXSYST.:E05TSI                             TUE 07/29/97 22:51 Page:446
     2380        1        /*T***********************************************************/
     2381        2        /*T*                                                         */
     2382        3        /*T* Copyright (c) Bull HN Information Systems Inc., 1997    */
     2383        4        /*T*                                                         */
     2384        5        /*T***********************************************************/
     2385        6        SET_MODE:PROC;
     2386        7        /* This program establishes the boot mode,
     2387        8             and the path to be taken from now on */
     2388        9        %INCLUDE IS$MACROS;
     2389     1284    1   DCL UFLG UBIN WORD SYMREF;
     2390     1285    1   DCL VIRGIN SBIN WORD SYMREF;
     2391     1286    1   DCL TQFLAG UBIN WORD SYMREF;
     2392     1287    1   DCL 1 NF_FLG SYMREF,
     2393     1288    1         2 RECON BIT(1),
     2394     1289    1         2 NONEW BIT(1),
     2395     1290    1         2 S BIT(1);
     2396     1291    1   DCL 1 RCV_FLG SYMREF,
     2397     1292    1         2 RC BIT(1),
     2398     1293    1         2 DB BIT(1),
     2399     1294    1         2 RBD BIT(1),
     2400     1295    1         2 RBO BIT(1);
     2401     1296    1   DCL VOFLG BIT(1) SYMREF;
     2402     1297    1   DCL TIGRPA BIT(1) SYMREF;
     2403     1298    1   DCL MONPA BIT(1) SYMREF;
     2404     1299    1   DCL RUMPA BIT(1) SYMREF;
     2405     1300    1   DCL PLVPA BIT(1) SYMREF;
     2406     1301        %TEXTC(N#=UQ,M#="'Do you want users (Y/N) ? '");
     2407     1306        %TEXTC(N#=NFQ,M#="'New file system (Y/N/S) ? '");
     2408     1311        %TEXTC(N#=RECONQ,M#="'Reconstruct (Y/N) ? '");
     2409     1316    1   DCL 1 ANSBUF SYMREF,
     2410     1317    1         2 CNT UBIN WORD,
     2411     1318    1         2 TXT CHAR(16);
     2412     1319    1   DCL KEYIN ENTRY(2) ALTRET;
     2413     1320    1   DCL TYPEC ENTRY(1);
     2414     1321    1   DCL PREPRESBR REMEMBER SYMREF;
     2415     1322        /**/
     2416     1323    1           UFLG=0;                         /* Assume users allowed               */
PL6.E3A0      #010=SET_MODE File=ISI$FIXSYST.:E05TSI                             TUE 07/29/97 22:51 Page:447
     2417     1324    1           NF_FLG='0'B;
     2418     1325    2           IF RCV_FLG='0'B THEN DO;        /* Not 0-> recovery or DB             */
     2419     1326    2                 IF VIRGIN>0 THEN UNWIND TO PREPRESBR; /* Make it operator recovery */
     2420     1327    2               END;                        /* THEN                               */
     2421     1328    2             ELSE DO;
     2422     1329    2                 IF TQFLAG~=0 THEN;        /* TBOOT in MINI                      */
     2423     1330    3                   ELSE DO;
     2424     1331    3                       IF(RCV_FLG.DB='1'B OR RCV_FLG.RBD='1'B) THEN GOTO ASKRECON;
     2425     1332    3                         ELSE RETURN;
     2426     1333    3                     END;                  /* ELSE                               */
     2427     1334    2               END;                        /* ELSE                               */
     2428     1335    1   BOOTSX:
     2429     1336    1           VIRGIN=VIRGIN+1;                /* Show we have been here             */
     2430     1337    1           RCV_FLG='0'B;
     2431     1338    1           TIGRPA='0'B;
     2432     1339    1           MONPA='0'B;
     2433     1340    1           RUMPA='0'B;
     2434     1341    1           PLVPA='0'B;
     2435     1342    1           IF VOFLG='1'B THEN RETURN;
     2436     1343    1             ELSE;
     2437     1344        /* Ask about users */
     2438     1345    1   UKI:
     2439     1346    1           CALL KEYIN(UQ,ANSBUF);
     2440     1347    2           DO SELECT(SUBSTR(ANSBUF.TXT,0,1));
     2441     1348    2             SELECT('Y','y');
     2442     1349    2             SELECT('N','n');
     2443     1350    2             UFLG=1;
     2444     1351    2             SELECT(ELSE);
     2445     1352    2           GOTO UKI;
     2446     1353    2           END;                            /* DO SELECT                          */
     2447     1354        /* Ask about new files */
     2448     1355    1   NFKI:
     2449     1356    1           NF_FLG='0'B;
     2450     1357    1           CALL KEYIN(NFQ,ANSBUF);
     2451     1358    2           DO SELECT(SUBSTR(ANSBUF.TXT,0,1));
     2452     1359    2             SELECT('S','s');
     2453     1360    2             NF_FLG.S='1'B;
PL6.E3A0      #010=SET_MODE File=ISI$FIXSYST.:E05TSI                             TUE 07/29/97 22:51 Page:448
     2454     1361    2             SELECT('N','n');
     2455     1362    2             NF_FLG.NONEW='1'B;
     2456     1363    2             SELECT('Y','y');
     2457     1364    2             RETURN;
     2458     1365    2             SELECT(ELSE);
     2459     1366    2           GOTO NFKI;
     2460     1367    2           END;                            /* DO SELECT                          */
     2461     1368        /* Ask about reconstruct */
     2462     1369    1   ASKRECON:
     2463     1370    1           CALL KEYIN(RECONQ,ANSBUF);
     2464     1371    2           DO SELECT(SUBSTR(ANSBUF.TXT,0,1));
     2465     1372    2             SELECT('Y','y');
     2466     1373    2             NF_FLG.RECON='1'B;
     2467     1374    2             SELECT('N','n');
     2468     1375    2             SELECT(ELSE);
     2469     1376    2           GOTO ASKRECON;
     2470     1377    2           END;                            /* DO SELECT                          */
     2471     1378    1           RETURN;
     2472     1379    1   END SET_MODE;

PL6.E3A0      #010=SET_MODE File=ISI$FIXSYST.:E05TSI                             TUE 07/29/97 22:51 Page:449
--  Include file information  --

   IS$MACROS.:E05TOU  is referenced.
      No diagnostics issued in procedure SET_MODE.

   Procedure SET_MODE requires 153 words for executable code.
   Procedure SET_MODE requires 4 words of local(AUTO) storage.

    No errors detected in file ISI$FIXSYST.:E05TSI    .

PL6.E3A0      #010=SET_MODE File=ISI$FIXSYST.:E05TSI                             TUE 07/29/97 22:51 Page:450

 Object Unit name= SET_MODE                                   File name= ISI$FIXSYST.:E05TOU
 UTS= JUL 29 '97 22:51:38.76 TUE                              Compiler= PL-6/E31         Sev=      00
 SharedLib= :SHARED_SYSTEM                                    Alt SharedLib=


    ****  Control sections  ****

 Sect   Type Bound  Init  Size OctSiz  Section name(segment info)
    0   Data  even  none    22     26  SET_MODE
    1   Proc  even  none   153    231  SET_MODE
    2  RoData even  none     6      6  SET_MODE

    ****  Entry defs  ****

                              Check   Calling
                             calling  sequence
  Sect OctLoc Primary Altret sequence   type   Parms  Name
     1      0   yes            yes      Std        0  SET_MODE

  ****  Data defs  ****

 Sect OctLoc  Name                           Sect OctLoc  Name
    0      0  UQ                                 0     10  NFQ
    0     20  RECONQ

  ****  Entry refs  ****

         Check        Calling
        calling       sequence
Altret sequence SRef   type   Args  Name
 yes     yes           Std       2 KEYIN
                       nStd      0 X66_AUTO_0
                       nStd      0 X66_AUNWIND
                       nStd      0 X66_ARET
                       Std       0 B_CONSPOOL_D
PL6.E3A0      #010=SET_MODE File=ISI$FIXSYST.:E05TSI                             TUE 07/29/97 22:51 Page:451

  ****  Data refs  ****

  Flags:  r = read only, s = secondary
Flgs Name                             Flgs Name                             Flgs Name
     UFLG                                  VIRGIN                                TQFLAG
     NF_FLG                                RCV_FLG                               VOFLG
     TIGRPA                                MONPA                                 RUMPA
     PLVPA                                 ANSBUF                                PREPRESBR
     B_VECTNIL

  ****  Segment refs  ****

  Flags:  r = read only, s = secondary
Flgs Name                             Flgs Name                             Flgs Name
     ISSID
PL6.E3A0      #010=SET_MODE File=ISI$FIXSYST.:E05TSI                             TUE 07/29/97 22:51 Page:452


     2380        1        /*T***********************************************************/
     2381        2        /*T*                                                         */
     2382        3        /*T* Copyright (c) Bull HN Information Systems Inc., 1997    */
     2383        4        /*T*                                                         */
     2384        5        /*T***********************************************************/
     2385        6        SET_MODE:PROC;

      6  1 000000   000000 700200 xent  SET_MODE     TSX0  ! X66_AUTO_0
         1 000001   000004 000000                    ZERO    4,0

     2386        7        /* This program establishes the boot mode,
     2387        8             and the path to be taken from now on */
     2388        9        %INCLUDE IS$MACROS;
     2389     1284    1   DCL UFLG UBIN WORD SYMREF;
     2390     1285    1   DCL VIRGIN SBIN WORD SYMREF;
     2391     1286    1   DCL TQFLAG UBIN WORD SYMREF;
     2392     1287    1   DCL 1 NF_FLG SYMREF,
     2393     1288    1         2 RECON BIT(1),
     2394     1289    1         2 NONEW BIT(1),
     2395     1290    1         2 S BIT(1);
     2396     1291    1   DCL 1 RCV_FLG SYMREF,
     2397     1292    1         2 RC BIT(1),
     2398     1293    1         2 DB BIT(1),
     2399     1294    1         2 RBD BIT(1),
     2400     1295    1         2 RBO BIT(1);
     2401     1296    1   DCL VOFLG BIT(1) SYMREF;
     2402     1297    1   DCL TIGRPA BIT(1) SYMREF;
     2403     1298    1   DCL MONPA BIT(1) SYMREF;
     2404     1299    1   DCL RUMPA BIT(1) SYMREF;
     2405     1300    1   DCL PLVPA BIT(1) SYMREF;
     2406     1301        %TEXTC(N#=UQ,M#="'Do you want users (Y/N) ? '");
     2407     1306        %TEXTC(N#=NFQ,M#="'New file system (Y/N/S) ? '");
     2408     1311        %TEXTC(N#=RECONQ,M#="'Reconstruct (Y/N) ? '");
     2409     1316    1   DCL 1 ANSBUF SYMREF,
     2410     1317    1         2 CNT UBIN WORD,
     2411     1318    1         2 TXT CHAR(16);
PL6.E3A0      #010=SET_MODE File=ISI$FIXSYST.:E05TSI                             TUE 07/29/97 22:51 Page:453
     2412     1319    1   DCL KEYIN ENTRY(2) ALTRET;
     2413     1320    1   DCL TYPEC ENTRY(1);
     2414     1321    1   DCL PREPRESBR REMEMBER SYMREF;
     2415     1322        /**/
     2416     1323    1           UFLG=0;                         /* Assume users allowed               */

   1323  1 000002   000000 450000 xsym               STZ     UFLG

     2417     1324    1           NF_FLG='0'B;

   1324  1 000003   000000 450000 xsym               STZ     NF_FLG

     2418     1325    2           IF RCV_FLG='0'B THEN DO;        /* Not 0-> recovery or DB             */

   1325  1 000004   000000 236000 xsym               LDQ     RCV_FLG
         1 000005   740000 316003                    CANQ    -16384,DU
         1 000006   000014 601000 1                  TNZ     s:1329

     2419     1326    2                 IF VIRGIN>0 THEN UNWIND TO PREPRESBR; /* Make it operator recovery */

   1326  1 000007   000000 235000 xsym               LDA     VIRGIN
         1 000010   000023 604400 1                  TMOZ    BOOTSX

   1326  1 000011   000000 237200 xsym               LDAQ  ! PREPRESBR
         1 000012   000000 700200 xent               TSX0  ! X66_AUNWIND
         1 000013   000000 000200                    ZERO    0,128

     2420     1327    2               END;                        /* THEN                               */
     2421     1328    2             ELSE DO;

     2422     1329    2                 IF TQFLAG~=0 THEN;        /* TBOOT in MINI                      */

   1329  1 000014   000000 235000 xsym               LDA     TQFLAG
         1 000015   000023 601000 1                  TNZ     BOOTSX

     2423     1330    3                   ELSE DO;

PL6.E3A0      #010=SET_MODE File=ISI$FIXSYST.:E05TSI                             TUE 07/29/97 22:51 Page:454
     2424     1331    3                       IF(RCV_FLG.DB='1'B OR RCV_FLG.RBD='1'B) THEN GOTO ASKRECON;

   1331  1 000016   200000 316003                    CANQ    65536,DU
         1 000017   000164 601000 1                  TNZ     ASKRECON
         1 000020   100000 316003                    CANQ    32768,DU
         1 000021   000164 601000 1                  TNZ     ASKRECON

     2425     1332    3                         ELSE RETURN;

   1332  1 000022   000000 702200 xent               TSX2  ! X66_ARET

     2426     1333    3                     END;                  /* ELSE                               */
     2427     1334    2               END;                        /* ELSE                               */
     2428     1335    1   BOOTSX:
     2429     1336    1           VIRGIN=VIRGIN+1;                /* Show we have been here             */

   1336  1 000023   000000 054000 xsym  BOOTSX       AOS     VIRGIN

     2430     1337    1           RCV_FLG='0'B;

   1337  1 000024   000000 450000 xsym               STZ     RCV_FLG

     2431     1338    1           TIGRPA='0'B;

   1338  1 000025   000000 450000 xsym               STZ     TIGRPA

     2432     1339    1           MONPA='0'B;

   1339  1 000026   000000 450000 xsym               STZ     MONPA

     2433     1340    1           RUMPA='0'B;

   1340  1 000027   000000 450000 xsym               STZ     RUMPA

     2434     1341    1           PLVPA='0'B;

   1341  1 000030   000000 450000 xsym               STZ     PLVPA
PL6.E3A0      #010=SET_MODE File=ISI$FIXSYST.:E05TSI                             TUE 07/29/97 22:51 Page:455

     2435     1342    1           IF VOFLG='1'B THEN RETURN;

   1342  1 000031   000000 234000 xsym               SZN     VOFLG
         1 000032   000034 605000 1                  TPL     UKI

   1342  1 000033   000000 702200 xent               TSX2  ! X66_ARET

     2436     1343    1             ELSE;
     2437     1344        /* Ask about users */
     2438     1345    1   UKI:
     2439     1346    1           CALL KEYIN(UQ,ANSBUF);

   1346  1 000034   000000 630400 2     UKI          EPPR0   0
         1 000035   000020 631400 xsym               EPPR1   B_VECTNIL+16
         1 000036   000000 701000 xent               TSX1    KEYIN
         1 000037   000000 011000                    NOP     0

     2440     1347    2           DO SELECT(SUBSTR(ANSBUF.TXT,0,1));

   1347  1 000040   000001 236000 xsym               LDQ     ANSBUF+1
         1 000041   777000 376003                    ANQ     -512,DU
         1 000042   131000 116003                    CMPQ    45568,DU
         1 000043   000066 602000 1                  TNC     s:1347+22
         1 000044   000001 236000 xsym               LDQ     ANSBUF+1
         1 000045   777000 376003                    ANQ     -512,DU
         1 000046   131000 116003                    CMPQ    45568,DU
         1 000047   000073 600000 1                  TZE     s:1348
         1 000050   000001 236000 xsym               LDQ     ANSBUF+1
         1 000051   777000 376003                    ANQ     -512,DU
         1 000052   171000 116003                    CMPQ    61952,DU
         1 000053   000061 602000 1                  TNC     s:1347+17
         1 000054   000001 236000 xsym               LDQ     ANSBUF+1
         1 000055   777000 376003                    ANQ     -512,DU
         1 000056   171000 116003                    CMPQ    61952,DU
         1 000057   000073 600000 1                  TZE     s:1348
         1 000060   000077 710000 1                  TRA     s:1352
PL6.E3A0      #010=SET_MODE File=ISI$FIXSYST.:E05TSI                             TUE 07/29/97 22:51 Page:456
         1 000061   000001 236000 xsym               LDQ     ANSBUF+1
         1 000062   777000 376003                    ANQ     -512,DU
         1 000063   156000 116003                    CMPQ    56320,DU
         1 000064   000077 601000 1                  TNZ     s:1352
         1 000065   000074 710000 1                  TRA     s:1350
         1 000066   000001 236000 xsym               LDQ     ANSBUF+1
         1 000067   777000 376003                    ANQ     -512,DU
         1 000070   116000 116003                    CMPQ    39936,DU
         1 000071   000077 601000 1                  TNZ     s:1352
         1 000072   000074 710000 1                  TRA     s:1350

     2441     1348    2             SELECT('Y','y');

   1348  1 000073   000100 710000 1                  TRA     NFKI

     2442     1349    2             SELECT('N','n');

     2443     1350    2             UFLG=1;

   1350  1 000074   000001 235007                    LDA     1,DL
         1 000075   000000 755000 xsym               STA     UFLG
         1 000076   000100 710000 1                  TRA     NFKI

     2444     1351    2             SELECT(ELSE);

     2445     1352    2           GOTO UKI;

   1352  1 000077   000034 710000 1                  TRA     UKI

     2446     1353    2           END;                            /* DO SELECT                          */

     2447     1354        /* Ask about new files */
     2448     1355    1   NFKI:
     2449     1356    1           NF_FLG='0'B;

   1356  1 000100   000000 450000 xsym  NFKI         STZ     NF_FLG

PL6.E3A0      #010=SET_MODE File=ISI$FIXSYST.:E05TSI                             TUE 07/29/97 22:51 Page:457
     2450     1357    1           CALL KEYIN(NFQ,ANSBUF);

   1357  1 000101   000002 630400 2                  EPPR0   2
         1 000102   000020 631400 xsym               EPPR1   B_VECTNIL+16
         1 000103   000000 701000 xent               TSX1    KEYIN
         1 000104   000000 011000                    NOP     0

     2451     1358    2           DO SELECT(SUBSTR(ANSBUF.TXT,0,1));

   1358  1 000105   000001 236000 xsym               LDQ     ANSBUF+1
         1 000106   777000 376003                    ANQ     -512,DU
         1 000107   156000 116003                    CMPQ    56320,DU
         1 000110   000132 602000 1                  TNC     s:1358+21
         1 000111   000001 236000 xsym               LDQ     ANSBUF+1
         1 000112   777000 376003                    ANQ     -512,DU
         1 000113   156000 116003                    CMPQ    56320,DU
         1 000114   000157 600000 1                  TZE     s:1362
         1 000115   000001 236000 xsym               LDQ     ANSBUF+1
         1 000116   777000 376003                    ANQ     -512,DU
         1 000117   163000 116003                    CMPQ    58880,DU
         1 000120   000163 602000 1                  TNC     s:1366
         1 000121   000001 236000 xsym               LDQ     ANSBUF+1
         1 000122   777000 376003                    ANQ     -512,DU
         1 000123   163000 116003                    CMPQ    58880,DU
         1 000124   000154 600000 1                  TZE     s:1360
         1 000125   000001 236000 xsym               LDQ     ANSBUF+1
         1 000126   777000 376003                    ANQ     -512,DU
         1 000127   171000 116003                    CMPQ    61952,DU
         1 000130   000163 601000 1                  TNZ     s:1366
         1 000131   000162 710000 1                  TRA     s:1364
         1 000132   000001 236000 xsym               LDQ     ANSBUF+1
         1 000133   777000 376003                    ANQ     -512,DU
         1 000134   123000 116003                    CMPQ    42496,DU
         1 000135   000147 602000 1                  TNC     s:1358+34
         1 000136   000001 236000 xsym               LDQ     ANSBUF+1
         1 000137   777000 376003                    ANQ     -512,DU
         1 000140   123000 116003                    CMPQ    42496,DU
PL6.E3A0      #010=SET_MODE File=ISI$FIXSYST.:E05TSI                             TUE 07/29/97 22:51 Page:458
         1 000141   000154 600000 1                  TZE     s:1360
         1 000142   000001 236000 xsym               LDQ     ANSBUF+1
         1 000143   777000 376003                    ANQ     -512,DU
         1 000144   131000 116003                    CMPQ    45568,DU
         1 000145   000163 601000 1                  TNZ     s:1366
         1 000146   000162 710000 1                  TRA     s:1364
         1 000147   000001 236000 xsym               LDQ     ANSBUF+1
         1 000150   777000 376003                    ANQ     -512,DU
         1 000151   116000 116003                    CMPQ    39936,DU
         1 000152   000163 601000 1                  TNZ     s:1366
         1 000153   000157 710000 1                  TRA     s:1362

     2452     1359    2             SELECT('S','s');

     2453     1360    2             NF_FLG.S='1'B;

   1360  1 000154   100000 236003                    LDQ     32768,DU
         1 000155   000000 256000 xsym               ORSQ    NF_FLG
         1 000156   000164 710000 1                  TRA     ASKRECON

     2454     1361    2             SELECT('N','n');

     2455     1362    2             NF_FLG.NONEW='1'B;

   1362  1 000157   200000 236003                    LDQ     65536,DU
         1 000160   000000 256000 xsym               ORSQ    NF_FLG
         1 000161   000164 710000 1                  TRA     ASKRECON

     2456     1363    2             SELECT('Y','y');

     2457     1364    2             RETURN;

   1364  1 000162   000000 702200 xent               TSX2  ! X66_ARET

     2458     1365    2             SELECT(ELSE);

     2459     1366    2           GOTO NFKI;
PL6.E3A0      #010=SET_MODE File=ISI$FIXSYST.:E05TSI                             TUE 07/29/97 22:51 Page:459

   1366  1 000163   000100 710000 1                  TRA     NFKI

     2460     1367    2           END;                            /* DO SELECT                          */

     2461     1368        /* Ask about reconstruct */
     2462     1369    1   ASKRECON:
     2463     1370    1           CALL KEYIN(RECONQ,ANSBUF);

   1370  1 000164   000004 630400 2     ASKRECON     EPPR0   4
         1 000165   000020 631400 xsym               EPPR1   B_VECTNIL+16
         1 000166   000000 701000 xent               TSX1    KEYIN
         1 000167   000000 011000                    NOP     0

     2464     1371    2           DO SELECT(SUBSTR(ANSBUF.TXT,0,1));

   1371  1 000170   000001 236000 xsym               LDQ     ANSBUF+1
         1 000171   777000 376003                    ANQ     -512,DU
         1 000172   131000 116003                    CMPQ    45568,DU
         1 000173   000216 602000 1                  TNC     s:1371+22
         1 000174   000001 236000 xsym               LDQ     ANSBUF+1
         1 000175   777000 376003                    ANQ     -512,DU
         1 000176   131000 116003                    CMPQ    45568,DU
         1 000177   000223 600000 1                  TZE     s:1373
         1 000200   000001 236000 xsym               LDQ     ANSBUF+1
         1 000201   777000 376003                    ANQ     -512,DU
         1 000202   171000 116003                    CMPQ    61952,DU
         1 000203   000211 602000 1                  TNC     s:1371+17
         1 000204   000001 236000 xsym               LDQ     ANSBUF+1
         1 000205   777000 376003                    ANQ     -512,DU
         1 000206   171000 116003                    CMPQ    61952,DU
         1 000207   000223 600000 1                  TZE     s:1373
         1 000210   000227 710000 1                  TRA     s:1376
         1 000211   000001 236000 xsym               LDQ     ANSBUF+1
         1 000212   777000 376003                    ANQ     -512,DU
         1 000213   156000 116003                    CMPQ    56320,DU
         1 000214   000227 601000 1                  TNZ     s:1376
PL6.E3A0      #010=SET_MODE File=ISI$FIXSYST.:E05TSI                             TUE 07/29/97 22:51 Page:460
         1 000215   000226 710000 1                  TRA     s:1374
         1 000216   000001 236000 xsym               LDQ     ANSBUF+1
         1 000217   777000 376003                    ANQ     -512,DU
         1 000220   116000 116003                    CMPQ    39936,DU
         1 000221   000227 601000 1                  TNZ     s:1376
         1 000222   000226 710000 1                  TRA     s:1374

     2465     1372    2             SELECT('Y','y');

     2466     1373    2             NF_FLG.RECON='1'B;

   1373  1 000223   400000 236003                    LDQ     -131072,DU
         1 000224   000000 256000 xsym               ORSQ    NF_FLG
         1 000225   000230 710000 1                  TRA     s:1378

     2467     1374    2             SELECT('N','n');

   1374  1 000226   000230 710000 1                  TRA     s:1378

     2468     1375    2             SELECT(ELSE);

     2469     1376    2           GOTO ASKRECON;

   1376  1 000227   000164 710000 1                  TRA     ASKRECON

     2470     1377    2           END;                            /* DO SELECT                          */

     2471     1378    1           RETURN;

   1378  1 000230   000000 702200 xent               TSX2  ! X66_ARET
     2472     1379    1   END SET_MODE;

PL6.E3A0      #010=SET_MODE File=ISI$FIXSYST.:E05TSI                             TUE 07/29/97 22:51 Page:461
--  Include file information  --

   IS$MACROS.:E05TOU  is referenced.
      No diagnostics issued in procedure SET_MODE.
PL6.E3A0      #010=SET_MODE File=ISI$FIXSYST.:E05TSI                             TUE 07/29/97 22:51 Page:462

 **** Variables and constants ****

  ****  Section 000  Data  SET_MODE

  ****  Scalars and arrays  ****
OctLoc.c.b A Datatyp(siz) R M Lvl/name                 OctLoc.c.b A Datatyp(siz) R M Lvl/name

    10-0-0/w STRC(270)   r     1 NFQ                       20-0-0/w STRC(216)   r     1 RECONQ
     0-0-0/w STRC(270)   r     1 UQ

  ****  SYMREF variables  ****

  ****  Scalars and arrays  ****
OctLoc.c.b A Datatyp(siz) R M Lvl/name                 OctLoc.c.b A Datatyp(siz) R M Lvl/name

     0-0-0/w STRC(180)   r     1 ANSBUF                     0-0-0/b BIT         r     1 MONPA
     0-0-0/b STRC(3)     r     1 NF_FLG                     0-0-0/b BIT         r     1 PLVPA
     0-0-0/d REMB        r     1 PREPRESBR                  0-0-0/b STRC(4)     r     1 RCV_FLG
     0-0-0/b BIT         r     1 RUMPA                      0-0-0/b BIT         r     1 TIGRPA
     0-0-0/w UBIN        r     1 TQFLAG                     0-0-0/w UBIN        r     1 UFLG
     0-0-0/w SBIN        r     1 VIRGIN                     0-0-0/b BIT         r     1 VOFLG


   Procedure SET_MODE requires 153 words for executable code.
   Procedure SET_MODE requires 4 words of local(AUTO) storage.

    No errors detected in file ISI$FIXSYST.:E05TSI    .
PL6.E3A0      #010=SET_MODE File=ISI$FIXSYST.:E05TSI                             TUE 07/29/97 22:51 Page:463
          *** CROSS REFERENCE LISTING ***
**     DENOTES     IDENTIFIER DEFINITION
<<                 IDENTIFIER'S VALUE SET
>>                 IDENTIFIER'S VALUE USED
<>                 IDENTIFIER SET AND/OR USED
--                 IDENTIFIER REFERENCED
PL6.E3A0      #010=SET_MODE File=ISI$FIXSYST.:E05TSI                             TUE 07/29/97 22:51 Page:464
          MINI XREF LISTING

ANSBUF
      1316**DCL      1346<>CALL     1357<>CALL     1370<>CALL
ANSBUF.TXT
      1318**DCL      1347>>DOSELCT  1358>>DOSELCT  1371>>DOSELCT
ASKRECON
      1370**LABEL    1331--GOTO     1376--GOTO
KEYIN
      1319**DCL-ENT  1346--CALL     1357--CALL     1370--CALL
MONPA
      1298**DCL      1339<<ASSIGN
NFKI
      1356**LABEL    1366--GOTO
NFQ
      1307**DCL      1357<>CALL
NF_FLG
      1287**DCL      1324<<ASSIGN   1356<<ASSIGN
NF_FLG.NONEW
      1289**DCL      1362<<ASSIGN
NF_FLG.RECON
      1288**DCL      1373<<ASSIGN
NF_FLG.S
      1290**DCL      1360<<ASSIGN
PLVPA
      1300**DCL      1341<<ASSIGN
PREPRESBR
      1321**DCL      1326>>UNWIND
RCV_FLG
      1291**DCL      1325>>IF       1337<<ASSIGN
RCV_FLG.DB
      1293**DCL      1331>>IF
RCV_FLG.RBD
      1294**DCL      1331>>IF
PL6.E3A0      #010=SET_MODE File=ISI$FIXSYST.:E05TSI                             TUE 07/29/97 22:51 Page:465
RECONQ
      1312**DCL      1370<>CALL
RUMPA
      1299**DCL      1340<<ASSIGN
TIGRPA
      1297**DCL      1338<<ASSIGN
TQFLAG
      1286**DCL      1329>>IF
UFLG
      1284**DCL      1323<<ASSIGN   1350<<ASSIGN
UKI
      1346**LABEL    1352--GOTO
UQ
      1302**DCL      1346<>CALL
VIRGIN
      1285**DCL      1326>>IF       1336<<ASSIGN   1336>>ASSIGN
VOFLG
      1296**DCL      1342>>IF
